{
	"contracts/BusinessConsensus.sol": {
		"BusinessConsensus": {
			"abi": [
				{
					"inputs": [
						{
							"internalType": "string",
							"name": "_messageID",
							"type": "string"
						},
						{
							"internalType": "uint256",
							"name": "expiry",
							"type": "uint256"
						},
						{
							"internalType": "uint256",
							"name": "requiredPercentage",
							"type": "uint256"
						}
					],
					"stateMutability": "nonpayable",
					"type": "constructor"
				},
				{
					"anonymous": false,
					"inputs": [],
					"name": "votingCompleted",
					"type": "event"
				},
				{
					"inputs": [],
					"name": "AccumulatedPercentage",
					"outputs": [
						{
							"internalType": "uint256",
							"name": "",
							"type": "uint256"
						}
					],
					"stateMutability": "view",
					"type": "function"
				},
				{
					"inputs": [],
					"name": "BusinessRequirement",
					"outputs": [
						{
							"internalType": "uint256",
							"name": "",
							"type": "uint256"
						}
					],
					"stateMutability": "view",
					"type": "function"
				},
				{
					"inputs": [],
					"name": "Consensus",
					"outputs": [],
					"stateMutability": "nonpayable",
					"type": "function"
				},
				{
					"inputs": [
						{
							"internalType": "address",
							"name": "voter",
							"type": "address"
						}
					],
					"name": "RegisterVoter",
					"outputs": [],
					"stateMutability": "nonpayable",
					"type": "function"
				},
				{
					"inputs": [
						{
							"internalType": "string",
							"name": "response",
							"type": "string"
						}
					],
					"name": "Vote",
					"outputs": [],
					"stateMutability": "nonpayable",
					"type": "function"
				},
				{
					"inputs": [],
					"name": "contractAddress",
					"outputs": [
						{
							"internalType": "address",
							"name": "",
							"type": "address"
						}
					],
					"stateMutability": "view",
					"type": "function"
				},
				{
					"inputs": [],
					"name": "getParameters",
					"outputs": [
						{
							"internalType": "string",
							"name": "",
							"type": "string"
						},
						{
							"internalType": "uint256",
							"name": "",
							"type": "uint256"
						},
						{
							"internalType": "address",
							"name": "",
							"type": "address"
						},
						{
							"internalType": "uint256",
							"name": "",
							"type": "uint256"
						},
						{
							"internalType": "uint256",
							"name": "",
							"type": "uint256"
						}
					],
					"stateMutability": "view",
					"type": "function"
				},
				{
					"inputs": [
						{
							"internalType": "address",
							"name": "test_address",
							"type": "address"
						}
					],
					"name": "getParameters2",
					"outputs": [
						{
							"internalType": "bool",
							"name": "",
							"type": "bool"
						},
						{
							"internalType": "bool",
							"name": "",
							"type": "bool"
						},
						{
							"internalType": "address",
							"name": "",
							"type": "address"
						}
					],
					"stateMutability": "view",
					"type": "function"
				},
				{
					"inputs": [],
					"name": "getValues",
					"outputs": [
						{
							"internalType": "string",
							"name": "",
							"type": "string"
						}
					],
					"stateMutability": "view",
					"type": "function"
				},
				{
					"inputs": [],
					"name": "initiator",
					"outputs": [
						{
							"internalType": "address",
							"name": "",
							"type": "address"
						}
					],
					"stateMutability": "view",
					"type": "function"
				},
				{
					"inputs": [
						{
							"internalType": "uint256",
							"name": "",
							"type": "uint256"
						}
					],
					"name": "keys",
					"outputs": [
						{
							"internalType": "address",
							"name": "",
							"type": "address"
						}
					],
					"stateMutability": "view",
					"type": "function"
				},
				{
					"inputs": [],
					"name": "numApprovals",
					"outputs": [
						{
							"internalType": "uint256",
							"name": "",
							"type": "uint256"
						}
					],
					"stateMutability": "view",
					"type": "function"
				},
				{
					"inputs": [],
					"name": "numberCompiled",
					"outputs": [
						{
							"internalType": "uint256",
							"name": "",
							"type": "uint256"
						}
					],
					"stateMutability": "view",
					"type": "function"
				},
				{
					"inputs": [],
					"name": "proposal",
					"outputs": [
						{
							"internalType": "uint256",
							"name": "voteCount",
							"type": "uint256"
						},
						{
							"internalType": "string",
							"name": "messageID",
							"type": "string"
						}
					],
					"stateMutability": "view",
					"type": "function"
				},
				{
					"inputs": [
						{
							"internalType": "uint256",
							"name": "",
							"type": "uint256"
						}
					],
					"name": "voters",
					"outputs": [
						{
							"internalType": "bool",
							"name": "voted",
							"type": "bool"
						},
						{
							"internalType": "address",
							"name": "recipient",
							"type": "address"
						},
						{
							"internalType": "bool",
							"name": "vote",
							"type": "bool"
						}
					],
					"stateMutability": "view",
					"type": "function"
				},
				{
					"inputs": [
						{
							"internalType": "address",
							"name": "",
							"type": "address"
						}
					],
					"name": "voters_map",
					"outputs": [
						{
							"internalType": "bool",
							"name": "voted",
							"type": "bool"
						},
						{
							"internalType": "address",
							"name": "recipient",
							"type": "address"
						},
						{
							"internalType": "bool",
							"name": "vote",
							"type": "bool"
						}
					],
					"stateMutability": "view",
					"type": "function"
				}
			],
			"devdoc": {
				"kind": "dev",
				"methods": {},
				"version": 1
			},
			"evm": {
				"assembly": "    /* \"contracts/BusinessConsensus.sol\":33:5007  contract BusinessConsensus{... */\n  mstore(0x40, 0x80)\n    /* \"contracts/BusinessConsensus.sol\":1252:1841  constructor(string memory _messageID, uint expiry, uint requiredPercentage) {... */\n  callvalue\n  dup1\n  iszero\n  tag_1\n  jumpi\n  0x00\n  dup1\n  revert\ntag_1:\n  pop\n  mload(0x40)\n  sub(codesize, bytecodeSize)\n  dup1\n  bytecodeSize\n  dup4\n  codecopy\n  dup2\n  dup2\n  add\n  0x40\n  mstore\n  dup2\n  add\n  swap1\n  tag_2\n  swap2\n  swap1\n  tag_3\n  jump\t// in\ntag_2:\n    /* \"contracts/BusinessConsensus.sol\":1351:1361  msg.sender */\n  caller\n    /* \"contracts/BusinessConsensus.sol\":1339:1348  initiator */\n  0x03\n  0x00\n    /* \"contracts/BusinessConsensus.sol\":1339:1361  initiator = msg.sender */\n  0x0100\n  exp\n  dup2\n  sload\n  dup2\n  0xffffffffffffffffffffffffffffffffffffffff\n  mul\n  not\n  and\n  swap1\n  dup4\n  0xffffffffffffffffffffffffffffffffffffffff\n  and\n  mul\n  or\n  swap1\n  sstore\n  pop\n    /* \"contracts/BusinessConsensus.sol\":1403:1409  expiry */\n  dup2\n    /* \"contracts/BusinessConsensus.sol\":1385:1400  block.timestamp */\n  timestamp\n    /* \"contracts/BusinessConsensus.sol\":1385:1409  block.timestamp + expiry */\n  tag_6\n  swap2\n  swap1\n  tag_7\n  jump\t// in\ntag_6:\n    /* \"contracts/BusinessConsensus.sol\":1372:1382  expiryDate */\n  0x01\n    /* \"contracts/BusinessConsensus.sol\":1372:1409  expiryDate = block.timestamp + expiry */\n  dup2\n  swap1\n  sstore\n  pop\n    /* \"contracts/BusinessConsensus.sol\":1442:1460  requiredPercentage */\n  dup1\n    /* \"contracts/BusinessConsensus.sol\":1420:1439  BusinessRequirement */\n  0x04\n    /* \"contracts/BusinessConsensus.sol\":1420:1460  BusinessRequirement = requiredPercentage */\n  dup2\n  swap1\n  sstore\n  pop\n    /* \"contracts/BusinessConsensus.sol\":1495:1496  0 */\n  0x00\n    /* \"contracts/BusinessConsensus.sol\":1471:1492  AccumulatedPercentage */\n  0x05\n    /* \"contracts/BusinessConsensus.sol\":1471:1496  AccumulatedPercentage = 0 */\n  dup2\n  swap1\n  sstore\n  pop\n    /* \"contracts/BusinessConsensus.sol\":1522:1523  0 */\n  0x00\n    /* \"contracts/BusinessConsensus.sol\":1507:1519  numApprovals */\n  0x06\n    /* \"contracts/BusinessConsensus.sol\":1507:1523  numApprovals = 0 */\n  dup2\n  swap1\n  sstore\n  pop\n    /* \"contracts/BusinessConsensus.sol\":1551:1552  0 */\n  0x00\n    /* \"contracts/BusinessConsensus.sol\":1534:1548  numberCompiled */\n  0x07\n    /* \"contracts/BusinessConsensus.sol\":1534:1552  numberCompiled = 0 */\n  dup2\n  swap1\n  sstore\n  pop\n    /* \"contracts/BusinessConsensus.sol\":1563:1588  finalVerdict = \"Rejected\" */\n  mload(0x40)\n  dup1\n  0x40\n  add\n  0x40\n  mstore\n  dup1\n  0x08\n  dup2\n  mstore\n  0x20\n  add\n  0x52656a6563746564000000000000000000000000000000000000000000000000\n  dup2\n  mstore\n  pop\n    /* \"contracts/BusinessConsensus.sol\":1563:1575  finalVerdict */\n  0x02\n    /* \"contracts/BusinessConsensus.sol\":1563:1588  finalVerdict = \"Rejected\" */\n  swap1\n  dup2\n  tag_8\n  swap2\n  swap1\n  tag_9\n  jump\t// in\ntag_8:\n  pop\n    /* \"contracts/BusinessConsensus.sol\":1625:1629  this */\n  address\n    /* \"contracts/BusinessConsensus.sol\":1599:1614  contractAddress */\n  0x00\n  dup1\n    /* \"contracts/BusinessConsensus.sol\":1599:1630  contractAddress = address(this) */\n  0x0100\n  exp\n  dup2\n  sload\n  dup2\n  0xffffffffffffffffffffffffffffffffffffffff\n  mul\n  not\n  and\n  swap1\n  dup4\n  0xffffffffffffffffffffffffffffffffffffffff\n  and\n  mul\n  or\n  swap1\n  sstore\n  pop\n    /* \"contracts/BusinessConsensus.sol\":1737:1833  Proposal({... */\n  mload(0x40)\n  dup1\n  0x40\n  add\n  0x40\n  mstore\n  dup1\n    /* \"contracts/BusinessConsensus.sol\":1776:1777  0 */\n  0x00\n    /* \"contracts/BusinessConsensus.sol\":1737:1833  Proposal({... */\n  dup2\n  mstore\n  0x20\n  add\n    /* \"contracts/BusinessConsensus.sol\":1807:1817  _messageID */\n  dup5\n    /* \"contracts/BusinessConsensus.sol\":1737:1833  Proposal({... */\n  dup2\n  mstore\n  pop\n    /* \"contracts/BusinessConsensus.sol\":1726:1734  proposal */\n  0x0b\n    /* \"contracts/BusinessConsensus.sol\":1726:1833  proposal = Proposal({... */\n  0x00\n  dup3\n  add\n  mload\n  dup2\n  0x00\n  add\n  sstore\n  0x20\n  dup3\n  add\n  mload\n  dup2\n  0x01\n  add\n  swap1\n  dup2\n  tag_10\n  swap2\n  swap1\n  tag_9\n  jump\t// in\ntag_10:\n  pop\n  swap1\n  pop\n  pop\n    /* \"contracts/BusinessConsensus.sol\":1252:1841  constructor(string memory _messageID, uint expiry, uint requiredPercentage) {... */\n  pop\n  pop\n  pop\n    /* \"contracts/BusinessConsensus.sol\":33:5007  contract BusinessConsensus{... */\n  jump(tag_11)\n    /* \"#utility.yul\":7:82   */\ntag_12:\n    /* \"#utility.yul\":40:46   */\n  0x00\n    /* \"#utility.yul\":73:75   */\n  0x40\n    /* \"#utility.yul\":67:76   */\n  mload\n    /* \"#utility.yul\":57:76   */\n  swap1\n  pop\n    /* \"#utility.yul\":7:82   */\n  swap1\n  jump\t// out\n    /* \"#utility.yul\":88:205   */\ntag_13:\n    /* \"#utility.yul\":197:198   */\n  0x00\n    /* \"#utility.yul\":194:195   */\n  dup1\n    /* \"#utility.yul\":187:199   */\n  revert\n    /* \"#utility.yul\":211:328   */\ntag_14:\n    /* \"#utility.yul\":320:321   */\n  0x00\n    /* \"#utility.yul\":317:318   */\n  dup1\n    /* \"#utility.yul\":310:322   */\n  revert\n    /* \"#utility.yul\":334:451   */\ntag_15:\n    /* \"#utility.yul\":443:444   */\n  0x00\n    /* \"#utility.yul\":440:441   */\n  dup1\n    /* \"#utility.yul\":433:445   */\n  revert\n    /* \"#utility.yul\":457:574   */\ntag_16:\n    /* \"#utility.yul\":566:567   */\n  0x00\n    /* \"#utility.yul\":563:564   */\n  dup1\n    /* \"#utility.yul\":556:568   */\n  revert\n    /* \"#utility.yul\":580:682   */\ntag_17:\n    /* \"#utility.yul\":621:627   */\n  0x00\n    /* \"#utility.yul\":672:674   */\n  0x1f\n    /* \"#utility.yul\":668:675   */\n  not\n    /* \"#utility.yul\":663:665   */\n  0x1f\n    /* \"#utility.yul\":656:661   */\n  dup4\n    /* \"#utility.yul\":652:666   */\n  add\n    /* \"#utility.yul\":648:676   */\n  and\n    /* \"#utility.yul\":638:676   */\n  swap1\n  pop\n    /* \"#utility.yul\":580:682   */\n  swap2\n  swap1\n  pop\n  jump\t// out\n    /* \"#utility.yul\":688:868   */\ntag_18:\n    /* \"#utility.yul\":736:813   */\n  0x4e487b7100000000000000000000000000000000000000000000000000000000\n    /* \"#utility.yul\":733:734   */\n  0x00\n    /* \"#utility.yul\":726:814   */\n  mstore\n    /* \"#utility.yul\":833:837   */\n  0x41\n    /* \"#utility.yul\":830:831   */\n  0x04\n    /* \"#utility.yul\":823:838   */\n  mstore\n    /* \"#utility.yul\":857:861   */\n  0x24\n    /* \"#utility.yul\":854:855   */\n  0x00\n    /* \"#utility.yul\":847:862   */\n  revert\n    /* \"#utility.yul\":874:1155   */\ntag_19:\n    /* \"#utility.yul\":957:984   */\n  tag_56\n    /* \"#utility.yul\":979:983   */\n  dup3\n    /* \"#utility.yul\":957:984   */\n  tag_17\n  jump\t// in\ntag_56:\n    /* \"#utility.yul\":949:955   */\n  dup2\n    /* \"#utility.yul\":945:985   */\n  add\n    /* \"#utility.yul\":1087:1093   */\n  dup2\n    /* \"#utility.yul\":1075:1085   */\n  dup2\n    /* \"#utility.yul\":1072:1094   */\n  lt\n    /* \"#utility.yul\":1051:1069   */\n  0xffffffffffffffff\n    /* \"#utility.yul\":1039:1049   */\n  dup3\n    /* \"#utility.yul\":1036:1070   */\n  gt\n    /* \"#utility.yul\":1033:1095   */\n  or\n    /* \"#utility.yul\":1030:1118   */\n  iszero\n  tag_57\n  jumpi\n    /* \"#utility.yul\":1098:1116   */\n  tag_58\n  tag_18\n  jump\t// in\ntag_58:\n    /* \"#utility.yul\":1030:1118   */\ntag_57:\n    /* \"#utility.yul\":1138:1148   */\n  dup1\n    /* \"#utility.yul\":1134:1136   */\n  0x40\n    /* \"#utility.yul\":1127:1149   */\n  mstore\n    /* \"#utility.yul\":917:1155   */\n  pop\n    /* \"#utility.yul\":874:1155   */\n  pop\n  pop\n  jump\t// out\n    /* \"#utility.yul\":1161:1290   */\ntag_20:\n    /* \"#utility.yul\":1195:1201   */\n  0x00\n    /* \"#utility.yul\":1222:1242   */\n  tag_60\n  tag_12\n  jump\t// in\ntag_60:\n    /* \"#utility.yul\":1212:1242   */\n  swap1\n  pop\n    /* \"#utility.yul\":1251:1284   */\n  tag_61\n    /* \"#utility.yul\":1279:1283   */\n  dup3\n    /* \"#utility.yul\":1271:1277   */\n  dup3\n    /* \"#utility.yul\":1251:1284   */\n  tag_19\n  jump\t// in\ntag_61:\n    /* \"#utility.yul\":1161:1290   */\n  swap2\n  swap1\n  pop\n  jump\t// out\n    /* \"#utility.yul\":1296:1604   */\ntag_21:\n    /* \"#utility.yul\":1358:1362   */\n  0x00\n    /* \"#utility.yul\":1448:1466   */\n  0xffffffffffffffff\n    /* \"#utility.yul\":1440:1446   */\n  dup3\n    /* \"#utility.yul\":1437:1467   */\n  gt\n    /* \"#utility.yul\":1434:1490   */\n  iszero\n  tag_63\n  jumpi\n    /* \"#utility.yul\":1470:1488   */\n  tag_64\n  tag_18\n  jump\t// in\ntag_64:\n    /* \"#utility.yul\":1434:1490   */\ntag_63:\n    /* \"#utility.yul\":1508:1537   */\n  tag_65\n    /* \"#utility.yul\":1530:1536   */\n  dup3\n    /* \"#utility.yul\":1508:1537   */\n  tag_17\n  jump\t// in\ntag_65:\n    /* \"#utility.yul\":1500:1537   */\n  swap1\n  pop\n    /* \"#utility.yul\":1592:1596   */\n  0x20\n    /* \"#utility.yul\":1586:1590   */\n  dup2\n    /* \"#utility.yul\":1582:1597   */\n  add\n    /* \"#utility.yul\":1574:1597   */\n  swap1\n  pop\n    /* \"#utility.yul\":1296:1604   */\n  swap2\n  swap1\n  pop\n  jump\t// out\n    /* \"#utility.yul\":1610:1917   */\ntag_22:\n    /* \"#utility.yul\":1678:1679   */\n  0x00\n    /* \"#utility.yul\":1688:1801   */\ntag_67:\n    /* \"#utility.yul\":1702:1708   */\n  dup4\n    /* \"#utility.yul\":1699:1700   */\n  dup2\n    /* \"#utility.yul\":1696:1709   */\n  lt\n    /* \"#utility.yul\":1688:1801   */\n  iszero\n  tag_69\n  jumpi\n    /* \"#utility.yul\":1787:1788   */\n  dup1\n    /* \"#utility.yul\":1782:1785   */\n  dup3\n    /* \"#utility.yul\":1778:1789   */\n  add\n    /* \"#utility.yul\":1772:1790   */\n  mload\n    /* \"#utility.yul\":1768:1769   */\n  dup2\n    /* \"#utility.yul\":1763:1766   */\n  dup5\n    /* \"#utility.yul\":1759:1770   */\n  add\n    /* \"#utility.yul\":1752:1791   */\n  mstore\n    /* \"#utility.yul\":1724:1726   */\n  0x20\n    /* \"#utility.yul\":1721:1722   */\n  dup2\n    /* \"#utility.yul\":1717:1727   */\n  add\n    /* \"#utility.yul\":1712:1727   */\n  swap1\n  pop\n    /* \"#utility.yul\":1688:1801   */\n  jump(tag_67)\ntag_69:\n    /* \"#utility.yul\":1819:1825   */\n  dup4\n    /* \"#utility.yul\":1816:1817   */\n  dup2\n    /* \"#utility.yul\":1813:1826   */\n  gt\n    /* \"#utility.yul\":1810:1911   */\n  iszero\n  tag_70\n  jumpi\n    /* \"#utility.yul\":1899:1900   */\n  0x00\n    /* \"#utility.yul\":1890:1896   */\n  dup5\n    /* \"#utility.yul\":1885:1888   */\n  dup5\n    /* \"#utility.yul\":1881:1897   */\n  add\n    /* \"#utility.yul\":1874:1901   */\n  mstore\n    /* \"#utility.yul\":1810:1911   */\ntag_70:\n    /* \"#utility.yul\":1659:1917   */\n  pop\n    /* \"#utility.yul\":1610:1917   */\n  pop\n  pop\n  pop\n  jump\t// out\n    /* \"#utility.yul\":1923:2344   */\ntag_23:\n    /* \"#utility.yul\":2012:2017   */\n  0x00\n    /* \"#utility.yul\":2037:2103   */\n  tag_72\n    /* \"#utility.yul\":2053:2102   */\n  tag_73\n    /* \"#utility.yul\":2095:2101   */\n  dup5\n    /* \"#utility.yul\":2053:2102   */\n  tag_21\n  jump\t// in\ntag_73:\n    /* \"#utility.yul\":2037:2103   */\n  tag_20\n  jump\t// in\ntag_72:\n    /* \"#utility.yul\":2028:2103   */\n  swap1\n  pop\n    /* \"#utility.yul\":2126:2132   */\n  dup3\n    /* \"#utility.yul\":2119:2124   */\n  dup2\n    /* \"#utility.yul\":2112:2133   */\n  mstore\n    /* \"#utility.yul\":2164:2168   */\n  0x20\n    /* \"#utility.yul\":2157:2162   */\n  dup2\n    /* \"#utility.yul\":2153:2169   */\n  add\n    /* \"#utility.yul\":2202:2205   */\n  dup5\n    /* \"#utility.yul\":2193:2199   */\n  dup5\n    /* \"#utility.yul\":2188:2191   */\n  dup5\n    /* \"#utility.yul\":2184:2200   */\n  add\n    /* \"#utility.yul\":2181:2206   */\n  gt\n    /* \"#utility.yul\":2178:2290   */\n  iszero\n  tag_74\n  jumpi\n    /* \"#utility.yul\":2209:2288   */\n  tag_75\n  tag_16\n  jump\t// in\ntag_75:\n    /* \"#utility.yul\":2178:2290   */\ntag_74:\n    /* \"#utility.yul\":2299:2338   */\n  tag_76\n    /* \"#utility.yul\":2331:2337   */\n  dup5\n    /* \"#utility.yul\":2326:2329   */\n  dup3\n    /* \"#utility.yul\":2321:2324   */\n  dup6\n    /* \"#utility.yul\":2299:2338   */\n  tag_22\n  jump\t// in\ntag_76:\n    /* \"#utility.yul\":2018:2344   */\n  pop\n    /* \"#utility.yul\":1923:2344   */\n  swap4\n  swap3\n  pop\n  pop\n  pop\n  jump\t// out\n    /* \"#utility.yul\":2364:2719   */\ntag_24:\n    /* \"#utility.yul\":2431:2436   */\n  0x00\n    /* \"#utility.yul\":2480:2483   */\n  dup3\n    /* \"#utility.yul\":2473:2477   */\n  0x1f\n    /* \"#utility.yul\":2465:2471   */\n  dup4\n    /* \"#utility.yul\":2461:2478   */\n  add\n    /* \"#utility.yul\":2457:2484   */\n  slt\n    /* \"#utility.yul\":2447:2569   */\n  tag_78\n  jumpi\n    /* \"#utility.yul\":2488:2567   */\n  tag_79\n  tag_15\n  jump\t// in\ntag_79:\n    /* \"#utility.yul\":2447:2569   */\ntag_78:\n    /* \"#utility.yul\":2598:2604   */\n  dup2\n    /* \"#utility.yul\":2592:2605   */\n  mload\n    /* \"#utility.yul\":2623:2713   */\n  tag_80\n    /* \"#utility.yul\":2709:2712   */\n  dup5\n    /* \"#utility.yul\":2701:2707   */\n  dup3\n    /* \"#utility.yul\":2694:2698   */\n  0x20\n    /* \"#utility.yul\":2686:2692   */\n  dup7\n    /* \"#utility.yul\":2682:2699   */\n  add\n    /* \"#utility.yul\":2623:2713   */\n  tag_23\n  jump\t// in\ntag_80:\n    /* \"#utility.yul\":2614:2713   */\n  swap2\n  pop\n    /* \"#utility.yul\":2437:2719   */\n  pop\n    /* \"#utility.yul\":2364:2719   */\n  swap3\n  swap2\n  pop\n  pop\n  jump\t// out\n    /* \"#utility.yul\":2725:2802   */\ntag_25:\n    /* \"#utility.yul\":2762:2769   */\n  0x00\n    /* \"#utility.yul\":2791:2796   */\n  dup2\n    /* \"#utility.yul\":2780:2796   */\n  swap1\n  pop\n    /* \"#utility.yul\":2725:2802   */\n  swap2\n  swap1\n  pop\n  jump\t// out\n    /* \"#utility.yul\":2808:2930   */\ntag_26:\n    /* \"#utility.yul\":2881:2905   */\n  tag_83\n    /* \"#utility.yul\":2899:2904   */\n  dup2\n    /* \"#utility.yul\":2881:2905   */\n  tag_25\n  jump\t// in\ntag_83:\n    /* \"#utility.yul\":2874:2879   */\n  dup2\n    /* \"#utility.yul\":2871:2906   */\n  eq\n    /* \"#utility.yul\":2861:2924   */\n  tag_84\n  jumpi\n    /* \"#utility.yul\":2920:2921   */\n  0x00\n    /* \"#utility.yul\":2917:2918   */\n  dup1\n    /* \"#utility.yul\":2910:2922   */\n  revert\n    /* \"#utility.yul\":2861:2924   */\ntag_84:\n    /* \"#utility.yul\":2808:2930   */\n  pop\n  jump\t// out\n    /* \"#utility.yul\":2936:3079   */\ntag_27:\n    /* \"#utility.yul\":2993:2998   */\n  0x00\n    /* \"#utility.yul\":3024:3030   */\n  dup2\n    /* \"#utility.yul\":3018:3031   */\n  mload\n    /* \"#utility.yul\":3009:3031   */\n  swap1\n  pop\n    /* \"#utility.yul\":3040:3073   */\n  tag_86\n    /* \"#utility.yul\":3067:3072   */\n  dup2\n    /* \"#utility.yul\":3040:3073   */\n  tag_26\n  jump\t// in\ntag_86:\n    /* \"#utility.yul\":2936:3079   */\n  swap3\n  swap2\n  pop\n  pop\n  jump\t// out\n    /* \"#utility.yul\":3085:3921   */\ntag_3:\n    /* \"#utility.yul\":3183:3189   */\n  0x00\n    /* \"#utility.yul\":3191:3197   */\n  dup1\n    /* \"#utility.yul\":3199:3205   */\n  0x00\n    /* \"#utility.yul\":3248:3250   */\n  0x60\n    /* \"#utility.yul\":3236:3245   */\n  dup5\n    /* \"#utility.yul\":3227:3234   */\n  dup7\n    /* \"#utility.yul\":3223:3246   */\n  sub\n    /* \"#utility.yul\":3219:3251   */\n  slt\n    /* \"#utility.yul\":3216:3335   */\n  iszero\n  tag_88\n  jumpi\n    /* \"#utility.yul\":3254:3333   */\n  tag_89\n  tag_13\n  jump\t// in\ntag_89:\n    /* \"#utility.yul\":3216:3335   */\ntag_88:\n    /* \"#utility.yul\":3395:3396   */\n  0x00\n    /* \"#utility.yul\":3384:3393   */\n  dup5\n    /* \"#utility.yul\":3380:3397   */\n  add\n    /* \"#utility.yul\":3374:3398   */\n  mload\n    /* \"#utility.yul\":3425:3443   */\n  0xffffffffffffffff\n    /* \"#utility.yul\":3417:3423   */\n  dup2\n    /* \"#utility.yul\":3414:3444   */\n  gt\n    /* \"#utility.yul\":3411:3528   */\n  iszero\n  tag_90\n  jumpi\n    /* \"#utility.yul\":3447:3526   */\n  tag_91\n  tag_14\n  jump\t// in\ntag_91:\n    /* \"#utility.yul\":3411:3528   */\ntag_90:\n    /* \"#utility.yul\":3552:3626   */\n  tag_92\n    /* \"#utility.yul\":3618:3625   */\n  dup7\n    /* \"#utility.yul\":3609:3615   */\n  dup3\n    /* \"#utility.yul\":3598:3607   */\n  dup8\n    /* \"#utility.yul\":3594:3616   */\n  add\n    /* \"#utility.yul\":3552:3626   */\n  tag_24\n  jump\t// in\ntag_92:\n    /* \"#utility.yul\":3542:3626   */\n  swap4\n  pop\n    /* \"#utility.yul\":3345:3636   */\n  pop\n    /* \"#utility.yul\":3675:3677   */\n  0x20\n    /* \"#utility.yul\":3701:3765   */\n  tag_93\n    /* \"#utility.yul\":3757:3764   */\n  dup7\n    /* \"#utility.yul\":3748:3754   */\n  dup3\n    /* \"#utility.yul\":3737:3746   */\n  dup8\n    /* \"#utility.yul\":3733:3755   */\n  add\n    /* \"#utility.yul\":3701:3765   */\n  tag_27\n  jump\t// in\ntag_93:\n    /* \"#utility.yul\":3691:3765   */\n  swap3\n  pop\n    /* \"#utility.yul\":3646:3775   */\n  pop\n    /* \"#utility.yul\":3814:3816   */\n  0x40\n    /* \"#utility.yul\":3840:3904   */\n  tag_94\n    /* \"#utility.yul\":3896:3903   */\n  dup7\n    /* \"#utility.yul\":3887:3893   */\n  dup3\n    /* \"#utility.yul\":3876:3885   */\n  dup8\n    /* \"#utility.yul\":3872:3894   */\n  add\n    /* \"#utility.yul\":3840:3904   */\n  tag_27\n  jump\t// in\ntag_94:\n    /* \"#utility.yul\":3830:3904   */\n  swap2\n  pop\n    /* \"#utility.yul\":3785:3914   */\n  pop\n    /* \"#utility.yul\":3085:3921   */\n  swap3\n  pop\n  swap3\n  pop\n  swap3\n  jump\t// out\n    /* \"#utility.yul\":3927:4107   */\ntag_28:\n    /* \"#utility.yul\":3975:4052   */\n  0x4e487b7100000000000000000000000000000000000000000000000000000000\n    /* \"#utility.yul\":3972:3973   */\n  0x00\n    /* \"#utility.yul\":3965:4053   */\n  mstore\n    /* \"#utility.yul\":4072:4076   */\n  0x11\n    /* \"#utility.yul\":4069:4070   */\n  0x04\n    /* \"#utility.yul\":4062:4077   */\n  mstore\n    /* \"#utility.yul\":4096:4100   */\n  0x24\n    /* \"#utility.yul\":4093:4094   */\n  0x00\n    /* \"#utility.yul\":4086:4101   */\n  revert\n    /* \"#utility.yul\":4113:4418   */\ntag_7:\n    /* \"#utility.yul\":4153:4156   */\n  0x00\n    /* \"#utility.yul\":4172:4192   */\n  tag_97\n    /* \"#utility.yul\":4190:4191   */\n  dup3\n    /* \"#utility.yul\":4172:4192   */\n  tag_25\n  jump\t// in\ntag_97:\n    /* \"#utility.yul\":4167:4192   */\n  swap2\n  pop\n    /* \"#utility.yul\":4206:4226   */\n  tag_98\n    /* \"#utility.yul\":4224:4225   */\n  dup4\n    /* \"#utility.yul\":4206:4226   */\n  tag_25\n  jump\t// in\ntag_98:\n    /* \"#utility.yul\":4201:4226   */\n  swap3\n  pop\n    /* \"#utility.yul\":4360:4361   */\n  dup3\n    /* \"#utility.yul\":4292:4358   */\n  0xffffffffffffffffffffffffffffffffffffffffffffffffffffffffffffffff\n    /* \"#utility.yul\":4288:4362   */\n  sub\n    /* \"#utility.yul\":4285:4286   */\n  dup3\n    /* \"#utility.yul\":4282:4363   */\n  gt\n    /* \"#utility.yul\":4279:4386   */\n  iszero\n  tag_99\n  jumpi\n    /* \"#utility.yul\":4366:4384   */\n  tag_100\n  tag_28\n  jump\t// in\ntag_100:\n    /* \"#utility.yul\":4279:4386   */\ntag_99:\n    /* \"#utility.yul\":4410:4411   */\n  dup3\n    /* \"#utility.yul\":4407:4408   */\n  dup3\n    /* \"#utility.yul\":4403:4412   */\n  add\n    /* \"#utility.yul\":4396:4412   */\n  swap1\n  pop\n    /* \"#utility.yul\":4113:4418   */\n  swap3\n  swap2\n  pop\n  pop\n  jump\t// out\n    /* \"#utility.yul\":4424:4523   */\ntag_29:\n    /* \"#utility.yul\":4476:4482   */\n  0x00\n    /* \"#utility.yul\":4510:4515   */\n  dup2\n    /* \"#utility.yul\":4504:4516   */\n  mload\n    /* \"#utility.yul\":4494:4516   */\n  swap1\n  pop\n    /* \"#utility.yul\":4424:4523   */\n  swap2\n  swap1\n  pop\n  jump\t// out\n    /* \"#utility.yul\":4529:4709   */\ntag_30:\n    /* \"#utility.yul\":4577:4654   */\n  0x4e487b7100000000000000000000000000000000000000000000000000000000\n    /* \"#utility.yul\":4574:4575   */\n  0x00\n    /* \"#utility.yul\":4567:4655   */\n  mstore\n    /* \"#utility.yul\":4674:4678   */\n  0x22\n    /* \"#utility.yul\":4671:4672   */\n  0x04\n    /* \"#utility.yul\":4664:4679   */\n  mstore\n    /* \"#utility.yul\":4698:4702   */\n  0x24\n    /* \"#utility.yul\":4695:4696   */\n  0x00\n    /* \"#utility.yul\":4688:4703   */\n  revert\n    /* \"#utility.yul\":4715:5035   */\ntag_31:\n    /* \"#utility.yul\":4759:4765   */\n  0x00\n    /* \"#utility.yul\":4796:4797   */\n  0x02\n    /* \"#utility.yul\":4790:4794   */\n  dup3\n    /* \"#utility.yul\":4786:4798   */\n  div\n    /* \"#utility.yul\":4776:4798   */\n  swap1\n  pop\n    /* \"#utility.yul\":4843:4844   */\n  0x01\n    /* \"#utility.yul\":4837:4841   */\n  dup3\n    /* \"#utility.yul\":4833:4845   */\n  and\n    /* \"#utility.yul\":4864:4882   */\n  dup1\n    /* \"#utility.yul\":4854:4935   */\n  tag_104\n  jumpi\n    /* \"#utility.yul\":4920:4924   */\n  0x7f\n    /* \"#utility.yul\":4912:4918   */\n  dup3\n    /* \"#utility.yul\":4908:4925   */\n  and\n    /* \"#utility.yul\":4898:4925   */\n  swap2\n  pop\n    /* \"#utility.yul\":4854:4935   */\ntag_104:\n    /* \"#utility.yul\":4982:4984   */\n  0x20\n    /* \"#utility.yul\":4974:4980   */\n  dup3\n    /* \"#utility.yul\":4971:4985   */\n  lt\n    /* \"#utility.yul\":4951:4969   */\n  dup2\n    /* \"#utility.yul\":4948:4986   */\n  sub\n    /* \"#utility.yul\":4945:5029   */\n  tag_105\n  jumpi\n    /* \"#utility.yul\":5001:5019   */\n  tag_106\n  tag_30\n  jump\t// in\ntag_106:\n    /* \"#utility.yul\":4945:5029   */\ntag_105:\n    /* \"#utility.yul\":4766:5035   */\n  pop\n    /* \"#utility.yul\":4715:5035   */\n  swap2\n  swap1\n  pop\n  jump\t// out\n    /* \"#utility.yul\":5041:5182   */\ntag_32:\n    /* \"#utility.yul\":5090:5094   */\n  0x00\n    /* \"#utility.yul\":5113:5116   */\n  dup2\n    /* \"#utility.yul\":5105:5116   */\n  swap1\n  pop\n    /* \"#utility.yul\":5136:5139   */\n  dup2\n    /* \"#utility.yul\":5133:5134   */\n  0x00\n    /* \"#utility.yul\":5126:5140   */\n  mstore\n    /* \"#utility.yul\":5170:5174   */\n  0x20\n    /* \"#utility.yul\":5167:5168   */\n  0x00\n    /* \"#utility.yul\":5157:5175   */\n  keccak256\n    /* \"#utility.yul\":5149:5175   */\n  swap1\n  pop\n    /* \"#utility.yul\":5041:5182   */\n  swap2\n  swap1\n  pop\n  jump\t// out\n    /* \"#utility.yul\":5188:5281   */\ntag_33:\n    /* \"#utility.yul\":5225:5231   */\n  0x00\n    /* \"#utility.yul\":5272:5274   */\n  0x20\n    /* \"#utility.yul\":5267:5269   */\n  0x1f\n    /* \"#utility.yul\":5260:5265   */\n  dup4\n    /* \"#utility.yul\":5256:5270   */\n  add\n    /* \"#utility.yul\":5252:5275   */\n  div\n    /* \"#utility.yul\":5242:5275   */\n  swap1\n  pop\n    /* \"#utility.yul\":5188:5281   */\n  swap2\n  swap1\n  pop\n  jump\t// out\n    /* \"#utility.yul\":5287:5394   */\ntag_34:\n    /* \"#utility.yul\":5331:5339   */\n  0x00\n    /* \"#utility.yul\":5381:5386   */\n  dup3\n    /* \"#utility.yul\":5375:5379   */\n  dup3\n    /* \"#utility.yul\":5371:5387   */\n  shl\n    /* \"#utility.yul\":5350:5387   */\n  swap1\n  pop\n    /* \"#utility.yul\":5287:5394   */\n  swap3\n  swap2\n  pop\n  pop\n  jump\t// out\n    /* \"#utility.yul\":5400:5793   */\ntag_35:\n    /* \"#utility.yul\":5469:5475   */\n  0x00\n    /* \"#utility.yul\":5519:5520   */\n  0x08\n    /* \"#utility.yul\":5507:5517   */\n  dup4\n    /* \"#utility.yul\":5503:5521   */\n  mul\n    /* \"#utility.yul\":5542:5639   */\n  tag_111\n    /* \"#utility.yul\":5572:5638   */\n  0xffffffffffffffffffffffffffffffffffffffffffffffffffffffffffffffff\n    /* \"#utility.yul\":5561:5570   */\n  dup3\n    /* \"#utility.yul\":5542:5639   */\n  tag_34\n  jump\t// in\ntag_111:\n    /* \"#utility.yul\":5660:5699   */\n  tag_112\n    /* \"#utility.yul\":5690:5698   */\n  dup7\n    /* \"#utility.yul\":5679:5688   */\n  dup4\n    /* \"#utility.yul\":5660:5699   */\n  tag_34\n  jump\t// in\ntag_112:\n    /* \"#utility.yul\":5648:5699   */\n  swap6\n  pop\n    /* \"#utility.yul\":5732:5736   */\n  dup1\n    /* \"#utility.yul\":5728:5737   */\n  not\n    /* \"#utility.yul\":5721:5726   */\n  dup5\n    /* \"#utility.yul\":5717:5738   */\n  and\n    /* \"#utility.yul\":5708:5738   */\n  swap4\n  pop\n    /* \"#utility.yul\":5781:5785   */\n  dup1\n    /* \"#utility.yul\":5771:5779   */\n  dup7\n    /* \"#utility.yul\":5767:5786   */\n  and\n    /* \"#utility.yul\":5760:5765   */\n  dup5\n    /* \"#utility.yul\":5757:5787   */\n  or\n    /* \"#utility.yul\":5747:5787   */\n  swap3\n  pop\n    /* \"#utility.yul\":5476:5793   */\n  pop\n  pop\n    /* \"#utility.yul\":5400:5793   */\n  swap4\n  swap3\n  pop\n  pop\n  pop\n  jump\t// out\n    /* \"#utility.yul\":5799:5859   */\ntag_36:\n    /* \"#utility.yul\":5827:5830   */\n  0x00\n    /* \"#utility.yul\":5848:5853   */\n  dup2\n    /* \"#utility.yul\":5841:5853   */\n  swap1\n  pop\n    /* \"#utility.yul\":5799:5859   */\n  swap2\n  swap1\n  pop\n  jump\t// out\n    /* \"#utility.yul\":5865:6007   */\ntag_37:\n    /* \"#utility.yul\":5915:5924   */\n  0x00\n    /* \"#utility.yul\":5948:6001   */\n  tag_115\n    /* \"#utility.yul\":5966:6000   */\n  tag_116\n    /* \"#utility.yul\":5975:5999   */\n  tag_117\n    /* \"#utility.yul\":5993:5998   */\n  dup5\n    /* \"#utility.yul\":5975:5999   */\n  tag_25\n  jump\t// in\ntag_117:\n    /* \"#utility.yul\":5966:6000   */\n  tag_36\n  jump\t// in\ntag_116:\n    /* \"#utility.yul\":5948:6001   */\n  tag_25\n  jump\t// in\ntag_115:\n    /* \"#utility.yul\":5935:6001   */\n  swap1\n  pop\n    /* \"#utility.yul\":5865:6007   */\n  swap2\n  swap1\n  pop\n  jump\t// out\n    /* \"#utility.yul\":6013:6088   */\ntag_38:\n    /* \"#utility.yul\":6056:6059   */\n  0x00\n    /* \"#utility.yul\":6077:6082   */\n  dup2\n    /* \"#utility.yul\":6070:6082   */\n  swap1\n  pop\n    /* \"#utility.yul\":6013:6088   */\n  swap2\n  swap1\n  pop\n  jump\t// out\n    /* \"#utility.yul\":6094:6363   */\ntag_39:\n    /* \"#utility.yul\":6204:6243   */\n  tag_120\n    /* \"#utility.yul\":6235:6242   */\n  dup4\n    /* \"#utility.yul\":6204:6243   */\n  tag_37\n  jump\t// in\ntag_120:\n    /* \"#utility.yul\":6265:6356   */\n  tag_121\n    /* \"#utility.yul\":6314:6355   */\n  tag_122\n    /* \"#utility.yul\":6338:6354   */\n  dup3\n    /* \"#utility.yul\":6314:6355   */\n  tag_38\n  jump\t// in\ntag_122:\n    /* \"#utility.yul\":6306:6312   */\n  dup5\n    /* \"#utility.yul\":6299:6303   */\n  dup5\n    /* \"#utility.yul\":6293:6304   */\n  sload\n    /* \"#utility.yul\":6265:6356   */\n  tag_35\n  jump\t// in\ntag_121:\n    /* \"#utility.yul\":6259:6263   */\n  dup3\n    /* \"#utility.yul\":6252:6357   */\n  sstore\n    /* \"#utility.yul\":6170:6363   */\n  pop\n    /* \"#utility.yul\":6094:6363   */\n  pop\n  pop\n  pop\n  jump\t// out\n    /* \"#utility.yul\":6369:6442   */\ntag_40:\n    /* \"#utility.yul\":6414:6417   */\n  0x00\n    /* \"#utility.yul\":6369:6442   */\n  swap1\n  jump\t// out\n    /* \"#utility.yul\":6448:6637   */\ntag_41:\n    /* \"#utility.yul\":6525:6557   */\n  tag_125\n  tag_40\n  jump\t// in\ntag_125:\n    /* \"#utility.yul\":6566:6631   */\n  tag_126\n    /* \"#utility.yul\":6624:6630   */\n  dup2\n    /* \"#utility.yul\":6616:6622   */\n  dup5\n    /* \"#utility.yul\":6610:6614   */\n  dup5\n    /* \"#utility.yul\":6566:6631   */\n  tag_39\n  jump\t// in\ntag_126:\n    /* \"#utility.yul\":6501:6637   */\n  pop\n    /* \"#utility.yul\":6448:6637   */\n  pop\n  pop\n  jump\t// out\n    /* \"#utility.yul\":6643:6829   */\ntag_42:\n    /* \"#utility.yul\":6703:6823   */\ntag_128:\n    /* \"#utility.yul\":6720:6723   */\n  dup2\n    /* \"#utility.yul\":6713:6718   */\n  dup2\n    /* \"#utility.yul\":6710:6724   */\n  lt\n    /* \"#utility.yul\":6703:6823   */\n  iszero\n  tag_130\n  jumpi\n    /* \"#utility.yul\":6774:6813   */\n  tag_131\n    /* \"#utility.yul\":6811:6812   */\n  0x00\n    /* \"#utility.yul\":6804:6809   */\n  dup3\n    /* \"#utility.yul\":6774:6813   */\n  tag_41\n  jump\t// in\ntag_131:\n    /* \"#utility.yul\":6747:6748   */\n  0x01\n    /* \"#utility.yul\":6740:6745   */\n  dup2\n    /* \"#utility.yul\":6736:6749   */\n  add\n    /* \"#utility.yul\":6727:6749   */\n  swap1\n  pop\n    /* \"#utility.yul\":6703:6823   */\n  jump(tag_128)\ntag_130:\n    /* \"#utility.yul\":6643:6829   */\n  pop\n  pop\n  jump\t// out\n    /* \"#utility.yul\":6835:7378   */\ntag_43:\n    /* \"#utility.yul\":6936:6938   */\n  0x1f\n    /* \"#utility.yul\":6931:6934   */\n  dup3\n    /* \"#utility.yul\":6928:6939   */\n  gt\n    /* \"#utility.yul\":6925:7371   */\n  iszero\n  tag_133\n  jumpi\n    /* \"#utility.yul\":6970:7008   */\n  tag_134\n    /* \"#utility.yul\":7002:7007   */\n  dup2\n    /* \"#utility.yul\":6970:7008   */\n  tag_32\n  jump\t// in\ntag_134:\n    /* \"#utility.yul\":7054:7083   */\n  tag_135\n    /* \"#utility.yul\":7072:7082   */\n  dup5\n    /* \"#utility.yul\":7054:7083   */\n  tag_33\n  jump\t// in\ntag_135:\n    /* \"#utility.yul\":7044:7052   */\n  dup2\n    /* \"#utility.yul\":7040:7084   */\n  add\n    /* \"#utility.yul\":7237:7239   */\n  0x20\n    /* \"#utility.yul\":7225:7235   */\n  dup6\n    /* \"#utility.yul\":7222:7240   */\n  lt\n    /* \"#utility.yul\":7219:7268   */\n  iszero\n  tag_136\n  jumpi\n    /* \"#utility.yul\":7258:7266   */\n  dup2\n    /* \"#utility.yul\":7243:7266   */\n  swap1\n  pop\n    /* \"#utility.yul\":7219:7268   */\ntag_136:\n    /* \"#utility.yul\":7281:7361   */\n  tag_137\n    /* \"#utility.yul\":7337:7359   */\n  tag_138\n    /* \"#utility.yul\":7355:7358   */\n  dup6\n    /* \"#utility.yul\":7337:7359   */\n  tag_33\n  jump\t// in\ntag_138:\n    /* \"#utility.yul\":7327:7335   */\n  dup4\n    /* \"#utility.yul\":7323:7360   */\n  add\n    /* \"#utility.yul\":7310:7321   */\n  dup3\n    /* \"#utility.yul\":7281:7361   */\n  tag_42\n  jump\t// in\ntag_137:\n    /* \"#utility.yul\":6940:7371   */\n  pop\n  pop\n    /* \"#utility.yul\":6925:7371   */\ntag_133:\n    /* \"#utility.yul\":6835:7378   */\n  pop\n  pop\n  pop\n  jump\t// out\n    /* \"#utility.yul\":7384:7501   */\ntag_44:\n    /* \"#utility.yul\":7438:7446   */\n  0x00\n    /* \"#utility.yul\":7488:7493   */\n  dup3\n    /* \"#utility.yul\":7482:7486   */\n  dup3\n    /* \"#utility.yul\":7478:7494   */\n  shr\n    /* \"#utility.yul\":7457:7494   */\n  swap1\n  pop\n    /* \"#utility.yul\":7384:7501   */\n  swap3\n  swap2\n  pop\n  pop\n  jump\t// out\n    /* \"#utility.yul\":7507:7676   */\ntag_45:\n    /* \"#utility.yul\":7551:7557   */\n  0x00\n    /* \"#utility.yul\":7584:7635   */\n  tag_141\n    /* \"#utility.yul\":7632:7633   */\n  0x00\n    /* \"#utility.yul\":7628:7634   */\n  not\n    /* \"#utility.yul\":7620:7625   */\n  dup5\n    /* \"#utility.yul\":7617:7618   */\n  0x08\n    /* \"#utility.yul\":7613:7626   */\n  mul\n    /* \"#utility.yul\":7584:7635   */\n  tag_44\n  jump\t// in\ntag_141:\n    /* \"#utility.yul\":7580:7636   */\n  not\n    /* \"#utility.yul\":7665:7669   */\n  dup1\n    /* \"#utility.yul\":7659:7663   */\n  dup4\n    /* \"#utility.yul\":7655:7670   */\n  and\n    /* \"#utility.yul\":7645:7670   */\n  swap2\n  pop\n    /* \"#utility.yul\":7558:7676   */\n  pop\n    /* \"#utility.yul\":7507:7676   */\n  swap3\n  swap2\n  pop\n  pop\n  jump\t// out\n    /* \"#utility.yul\":7681:7976   */\ntag_46:\n    /* \"#utility.yul\":7757:7761   */\n  0x00\n    /* \"#utility.yul\":7903:7932   */\n  tag_143\n    /* \"#utility.yul\":7928:7931   */\n  dup4\n    /* \"#utility.yul\":7922:7926   */\n  dup4\n    /* \"#utility.yul\":7903:7932   */\n  tag_45\n  jump\t// in\ntag_143:\n    /* \"#utility.yul\":7895:7932   */\n  swap2\n  pop\n    /* \"#utility.yul\":7965:7968   */\n  dup3\n    /* \"#utility.yul\":7962:7963   */\n  0x02\n    /* \"#utility.yul\":7958:7969   */\n  mul\n    /* \"#utility.yul\":7952:7956   */\n  dup3\n    /* \"#utility.yul\":7949:7970   */\n  or\n    /* \"#utility.yul\":7941:7970   */\n  swap1\n  pop\n    /* \"#utility.yul\":7681:7976   */\n  swap3\n  swap2\n  pop\n  pop\n  jump\t// out\n    /* \"#utility.yul\":7981:9376   */\ntag_9:\n    /* \"#utility.yul\":8098:8135   */\n  tag_145\n    /* \"#utility.yul\":8131:8134   */\n  dup3\n    /* \"#utility.yul\":8098:8135   */\n  tag_29\n  jump\t// in\ntag_145:\n    /* \"#utility.yul\":8200:8218   */\n  0xffffffffffffffff\n    /* \"#utility.yul\":8192:8198   */\n  dup2\n    /* \"#utility.yul\":8189:8219   */\n  gt\n    /* \"#utility.yul\":8186:8242   */\n  iszero\n  tag_146\n  jumpi\n    /* \"#utility.yul\":8222:8240   */\n  tag_147\n  tag_18\n  jump\t// in\ntag_147:\n    /* \"#utility.yul\":8186:8242   */\ntag_146:\n    /* \"#utility.yul\":8266:8304   */\n  tag_148\n    /* \"#utility.yul\":8298:8302   */\n  dup3\n    /* \"#utility.yul\":8292:8303   */\n  sload\n    /* \"#utility.yul\":8266:8304   */\n  tag_31\n  jump\t// in\ntag_148:\n    /* \"#utility.yul\":8351:8418   */\n  tag_149\n    /* \"#utility.yul\":8411:8417   */\n  dup3\n    /* \"#utility.yul\":8403:8409   */\n  dup3\n    /* \"#utility.yul\":8397:8401   */\n  dup6\n    /* \"#utility.yul\":8351:8418   */\n  tag_43\n  jump\t// in\ntag_149:\n    /* \"#utility.yul\":8445:8446   */\n  0x00\n    /* \"#utility.yul\":8469:8473   */\n  0x20\n    /* \"#utility.yul\":8456:8473   */\n  swap1\n  pop\n    /* \"#utility.yul\":8501:8503   */\n  0x1f\n    /* \"#utility.yul\":8493:8499   */\n  dup4\n    /* \"#utility.yul\":8490:8504   */\n  gt\n    /* \"#utility.yul\":8518:8519   */\n  0x01\n    /* \"#utility.yul\":8513:9131   */\n  dup2\n  eq\n  tag_151\n  jumpi\n    /* \"#utility.yul\":9175:9176   */\n  0x00\n    /* \"#utility.yul\":9192:9198   */\n  dup5\n    /* \"#utility.yul\":9189:9266   */\n  iszero\n  tag_152\n  jumpi\n    /* \"#utility.yul\":9241:9250   */\n  dup3\n    /* \"#utility.yul\":9236:9239   */\n  dup8\n    /* \"#utility.yul\":9232:9251   */\n  add\n    /* \"#utility.yul\":9226:9252   */\n  mload\n    /* \"#utility.yul\":9217:9252   */\n  swap1\n  pop\n    /* \"#utility.yul\":9189:9266   */\ntag_152:\n    /* \"#utility.yul\":9292:9359   */\n  tag_153\n    /* \"#utility.yul\":9352:9358   */\n  dup6\n    /* \"#utility.yul\":9345:9350   */\n  dup3\n    /* \"#utility.yul\":9292:9359   */\n  tag_46\n  jump\t// in\ntag_153:\n    /* \"#utility.yul\":9286:9290   */\n  dup7\n    /* \"#utility.yul\":9279:9360   */\n  sstore\n    /* \"#utility.yul\":9148:9370   */\n  pop\n    /* \"#utility.yul\":8483:9370   */\n  jump(tag_150)\n    /* \"#utility.yul\":8513:9131   */\ntag_151:\n    /* \"#utility.yul\":8565:8569   */\n  0x1f\n    /* \"#utility.yul\":8561:8570   */\n  not\n    /* \"#utility.yul\":8553:8559   */\n  dup5\n    /* \"#utility.yul\":8549:8571   */\n  and\n    /* \"#utility.yul\":8599:8636   */\n  tag_154\n    /* \"#utility.yul\":8631:8635   */\n  dup7\n    /* \"#utility.yul\":8599:8636   */\n  tag_32\n  jump\t// in\ntag_154:\n    /* \"#utility.yul\":8658:8659   */\n  0x00\n    /* \"#utility.yul\":8672:8880   */\ntag_155:\n    /* \"#utility.yul\":8686:8693   */\n  dup3\n    /* \"#utility.yul\":8683:8684   */\n  dup2\n    /* \"#utility.yul\":8680:8694   */\n  lt\n    /* \"#utility.yul\":8672:8880   */\n  iszero\n  tag_157\n  jumpi\n    /* \"#utility.yul\":8765:8774   */\n  dup5\n    /* \"#utility.yul\":8760:8763   */\n  dup10\n    /* \"#utility.yul\":8756:8775   */\n  add\n    /* \"#utility.yul\":8750:8776   */\n  mload\n    /* \"#utility.yul\":8742:8748   */\n  dup3\n    /* \"#utility.yul\":8735:8777   */\n  sstore\n    /* \"#utility.yul\":8816:8817   */\n  0x01\n    /* \"#utility.yul\":8808:8814   */\n  dup3\n    /* \"#utility.yul\":8804:8818   */\n  add\n    /* \"#utility.yul\":8794:8818   */\n  swap2\n  pop\n    /* \"#utility.yul\":8863:8865   */\n  0x20\n    /* \"#utility.yul\":8852:8861   */\n  dup6\n    /* \"#utility.yul\":8848:8866   */\n  add\n    /* \"#utility.yul\":8835:8866   */\n  swap5\n  pop\n    /* \"#utility.yul\":8709:8713   */\n  0x20\n    /* \"#utility.yul\":8706:8707   */\n  dup2\n    /* \"#utility.yul\":8702:8714   */\n  add\n    /* \"#utility.yul\":8697:8714   */\n  swap1\n  pop\n    /* \"#utility.yul\":8672:8880   */\n  jump(tag_155)\ntag_157:\n    /* \"#utility.yul\":8908:8914   */\n  dup7\n    /* \"#utility.yul\":8899:8906   */\n  dup4\n    /* \"#utility.yul\":8896:8915   */\n  lt\n    /* \"#utility.yul\":8893:9072   */\n  iszero\n  tag_158\n  jumpi\n    /* \"#utility.yul\":8966:8975   */\n  dup5\n    /* \"#utility.yul\":8961:8964   */\n  dup10\n    /* \"#utility.yul\":8957:8976   */\n  add\n    /* \"#utility.yul\":8951:8977   */\n  mload\n    /* \"#utility.yul\":9009:9057   */\n  tag_159\n    /* \"#utility.yul\":9051:9055   */\n  0x1f\n    /* \"#utility.yul\":9043:9049   */\n  dup10\n    /* \"#utility.yul\":9039:9056   */\n  and\n    /* \"#utility.yul\":9028:9037   */\n  dup3\n    /* \"#utility.yul\":9009:9057   */\n  tag_45\n  jump\t// in\ntag_159:\n    /* \"#utility.yul\":9001:9007   */\n  dup4\n    /* \"#utility.yul\":8994:9058   */\n  sstore\n    /* \"#utility.yul\":8916:9072   */\n  pop\n    /* \"#utility.yul\":8893:9072   */\ntag_158:\n    /* \"#utility.yul\":9118:9119   */\n  0x01\n    /* \"#utility.yul\":9114:9115   */\n  0x02\n    /* \"#utility.yul\":9106:9112   */\n  dup9\n    /* \"#utility.yul\":9102:9116   */\n  mul\n    /* \"#utility.yul\":9098:9120   */\n  add\n    /* \"#utility.yul\":9092:9096   */\n  dup9\n    /* \"#utility.yul\":9085:9121   */\n  sstore\n    /* \"#utility.yul\":8520:9131   */\n  pop\n  pop\n  pop\n    /* \"#utility.yul\":8483:9370   */\ntag_150:\n  pop\n    /* \"#utility.yul\":8073:9376   */\n  pop\n  pop\n  pop\n    /* \"#utility.yul\":7981:9376   */\n  pop\n  pop\n  jump\t// out\n    /* \"contracts/BusinessConsensus.sol\":33:5007  contract BusinessConsensus{... */\ntag_11:\n  dataSize(sub_0)\n  dup1\n  dataOffset(sub_0)\n  0x00\n  codecopy\n  0x00\n  return\nstop\n\nsub_0: assembly {\n        /* \"contracts/BusinessConsensus.sol\":33:5007  contract BusinessConsensus{... */\n      mstore(0x40, 0x80)\n      callvalue\n      dup1\n      iszero\n      tag_1\n      jumpi\n      0x00\n      dup1\n      revert\n    tag_1:\n      pop\n      jumpi(tag_2, lt(calldatasize, 0x04))\n      shr(0xe0, calldataload(0x00))\n      dup1\n      0x753ec103\n      gt\n      tag_19\n      jumpi\n      dup1\n      0xb9a29250\n      gt\n      tag_20\n      jumpi\n      dup1\n      0xb9a29250\n      eq\n      tag_15\n      jumpi\n      dup1\n      0xd77aa749\n      eq\n      tag_16\n      jumpi\n      dup1\n      0xda58c7d9\n      eq\n      tag_17\n      jumpi\n      dup1\n      0xf6b4dfb4\n      eq\n      tag_18\n      jumpi\n      jump(tag_2)\n    tag_20:\n      dup1\n      0x753ec103\n      eq\n      tag_11\n      jumpi\n      dup1\n      0x95b02dfa\n      eq\n      tag_12\n      jumpi\n      dup1\n      0x9aa4bbdd\n      eq\n      tag_13\n      jumpi\n      dup1\n      0xa5ea11da\n      eq\n      tag_14\n      jumpi\n      jump(tag_2)\n    tag_19:\n      dup1\n      0x5361a0ea\n      gt\n      tag_21\n      jumpi\n      dup1\n      0x5361a0ea\n      eq\n      tag_7\n      jumpi\n      dup1\n      0x5c39fcc1\n      eq\n      tag_8\n      jumpi\n      dup1\n      0x604c8333\n      eq\n      tag_9\n      jumpi\n      dup1\n      0x7403c5e5\n      eq\n      tag_10\n      jumpi\n      jump(tag_2)\n    tag_21:\n      dup1\n      0x0cb6aaf1\n      eq\n      tag_3\n      jumpi\n      dup1\n      0x15fe6f1b\n      eq\n      tag_4\n      jumpi\n      dup1\n      0x19eb4a90\n      eq\n      tag_5\n      jumpi\n      dup1\n      0x323082d7\n      eq\n      tag_6\n      jumpi\n    tag_2:\n      0x00\n      dup1\n      revert\n        /* \"contracts/BusinessConsensus.sol\":1071:1092  address[] public keys */\n    tag_3:\n      tag_22\n      0x04\n      dup1\n      calldatasize\n      sub\n      dup2\n      add\n      swap1\n      tag_23\n      swap2\n      swap1\n      tag_24\n      jump\t// in\n    tag_23:\n      tag_25\n      jump\t// in\n    tag_22:\n      mload(0x40)\n      tag_26\n      swap2\n      swap1\n      tag_27\n      jump\t// in\n    tag_26:\n      mload(0x40)\n      dup1\n      swap2\n      sub\n      swap1\n      return\n        /* \"contracts/BusinessConsensus.sol\":2465:3109  function RegisterVoter(address voter) external {... */\n    tag_4:\n      tag_28\n      0x04\n      dup1\n      calldatasize\n      sub\n      dup2\n      add\n      swap1\n      tag_29\n      swap2\n      swap1\n      tag_30\n      jump\t// in\n    tag_29:\n      tag_31\n      jump\t// in\n    tag_28:\n      stop\n        /* \"contracts/BusinessConsensus.sol\":1847:1947  function getValues() public view returns (string memory){... */\n    tag_5:\n      tag_32\n      tag_33\n      jump\t// in\n    tag_32:\n      mload(0x40)\n      tag_34\n      swap2\n      swap1\n      tag_35\n      jump\t// in\n    tag_34:\n      mload(0x40)\n      dup1\n      swap2\n      sub\n      swap1\n      return\n        /* \"contracts/BusinessConsensus.sol\":3164:4098  function Vote(string memory response) external {... */\n    tag_6:\n      tag_36\n      0x04\n      dup1\n      calldatasize\n      sub\n      dup2\n      add\n      swap1\n      tag_37\n      swap2\n      swap1\n      tag_38\n      jump\t// in\n    tag_37:\n      tag_39\n      jump\t// in\n    tag_36:\n      stop\n        /* \"contracts/BusinessConsensus.sol\":2147:2359  function getParameters2(address test_address) public view returns (bool, bool, address){... */\n    tag_7:\n      tag_40\n      0x04\n      dup1\n      calldatasize\n      sub\n      dup2\n      add\n      swap1\n      tag_41\n      swap2\n      swap1\n      tag_30\n      jump\t// in\n    tag_41:\n      tag_42\n      jump\t// in\n    tag_40:\n      mload(0x40)\n      tag_43\n      swap4\n      swap3\n      swap2\n      swap1\n      tag_44\n      jump\t// in\n    tag_43:\n      mload(0x40)\n      dup1\n      swap2\n      sub\n      swap1\n      return\n        /* \"contracts/BusinessConsensus.sol\":862:886  address public initiator */\n    tag_8:\n      tag_45\n      tag_46\n      jump\t// in\n    tag_45:\n      mload(0x40)\n      tag_47\n      swap2\n      swap1\n      tag_27\n      jump\t// in\n    tag_47:\n      mload(0x40)\n      dup1\n      swap2\n      sub\n      swap1\n      return\n        /* \"contracts/BusinessConsensus.sol\":935:968  uint public AccumulatedPercentage */\n    tag_9:\n      tag_48\n      tag_49\n      jump\t// in\n    tag_48:\n      mload(0x40)\n      tag_50\n      swap2\n      swap1\n      tag_51\n      jump\t// in\n    tag_50:\n      mload(0x40)\n      dup1\n      swap2\n      sub\n      swap1\n      return\n        /* \"contracts/BusinessConsensus.sol\":975:999  uint public numApprovals */\n    tag_10:\n      tag_52\n      tag_53\n      jump\t// in\n    tag_52:\n      mload(0x40)\n      tag_54\n      swap2\n      swap1\n      tag_51\n      jump\t// in\n    tag_54:\n      mload(0x40)\n      dup1\n      swap2\n      sub\n      swap1\n      return\n        /* \"contracts/BusinessConsensus.sol\":1219:1243  Proposal public proposal */\n    tag_11:\n      tag_55\n      tag_56\n      jump\t// in\n    tag_55:\n      mload(0x40)\n      tag_57\n      swap3\n      swap2\n      swap1\n      tag_58\n      jump\t// in\n    tag_57:\n      mload(0x40)\n      dup1\n      swap2\n      sub\n      swap1\n      return\n        /* \"contracts/BusinessConsensus.sol\":4162:4746  function Consensus() external {... */\n    tag_12:\n      tag_59\n      tag_60\n      jump\t// in\n    tag_59:\n      stop\n        /* \"contracts/BusinessConsensus.sol\":1099:1142  mapping(address => Voter) public voters_map */\n    tag_13:\n      tag_61\n      0x04\n      dup1\n      calldatasize\n      sub\n      dup2\n      add\n      swap1\n      tag_62\n      swap2\n      swap1\n      tag_30\n      jump\t// in\n    tag_62:\n      tag_63\n      jump\t// in\n    tag_61:\n      mload(0x40)\n      tag_64\n      swap4\n      swap3\n      swap2\n      swap1\n      tag_65\n      jump\t// in\n    tag_64:\n      mload(0x40)\n      dup1\n      swap2\n      sub\n      swap1\n      return\n        /* \"contracts/BusinessConsensus.sol\":1953:2141  function getParameters() public view returns (string memory, uint , address ,uint ,uint){... */\n    tag_14:\n      tag_66\n      tag_67\n      jump\t// in\n    tag_66:\n      mload(0x40)\n      tag_68\n      swap6\n      swap5\n      swap4\n      swap3\n      swap2\n      swap1\n      tag_69\n      jump\t// in\n    tag_68:\n      mload(0x40)\n      dup1\n      swap2\n      sub\n      swap1\n      return\n        /* \"contracts/BusinessConsensus.sol\":1008:1034  uint public numberCompiled */\n    tag_15:\n      tag_70\n      tag_71\n      jump\t// in\n    tag_70:\n      mload(0x40)\n      tag_72\n      swap2\n      swap1\n      tag_51\n      jump\t// in\n    tag_72:\n      mload(0x40)\n      dup1\n      swap2\n      sub\n      swap1\n      return\n        /* \"contracts/BusinessConsensus.sol\":897:928  uint public BusinessRequirement */\n    tag_16:\n      tag_73\n      tag_74\n      jump\t// in\n    tag_73:\n      mload(0x40)\n      tag_75\n      swap2\n      swap1\n      tag_51\n      jump\t// in\n    tag_75:\n      mload(0x40)\n      dup1\n      swap2\n      sub\n      swap1\n      return\n        /* \"contracts/BusinessConsensus.sol\":1043:1064  Voter[] public voters */\n    tag_17:\n      tag_76\n      0x04\n      dup1\n      calldatasize\n      sub\n      dup2\n      add\n      swap1\n      tag_77\n      swap2\n      swap1\n      tag_24\n      jump\t// in\n    tag_77:\n      tag_78\n      jump\t// in\n    tag_76:\n      mload(0x40)\n      tag_79\n      swap4\n      swap3\n      swap2\n      swap1\n      tag_65\n      jump\t// in\n    tag_79:\n      mload(0x40)\n      dup1\n      swap2\n      sub\n      swap1\n      return\n        /* \"contracts/BusinessConsensus.sol\":596:626  address public contractAddress */\n    tag_18:\n      tag_80\n      tag_81\n      jump\t// in\n    tag_80:\n      mload(0x40)\n      tag_82\n      swap2\n      swap1\n      tag_27\n      jump\t// in\n    tag_82:\n      mload(0x40)\n      dup1\n      swap2\n      sub\n      swap1\n      return\n        /* \"contracts/BusinessConsensus.sol\":1071:1092  address[] public keys */\n    tag_25:\n      0x09\n      dup2\n      dup2\n      sload\n      dup2\n      lt\n      tag_83\n      jumpi\n      0x00\n      dup1\n      revert\n    tag_83:\n      swap1\n      0x00\n      mstore\n      keccak256(0x00, 0x20)\n      add\n      0x00\n      swap2\n      pop\n      sload\n      swap1\n      0x0100\n      exp\n      swap1\n      div\n      0xffffffffffffffffffffffffffffffffffffffff\n      and\n      dup2\n      jump\t// out\n        /* \"contracts/BusinessConsensus.sol\":2465:3109  function RegisterVoter(address voter) external {... */\n    tag_31:\n        /* \"contracts/BusinessConsensus.sol\":2633:2642  initiator */\n      0x03\n      0x00\n      swap1\n      sload\n      swap1\n      0x0100\n      exp\n      swap1\n      div\n      0xffffffffffffffffffffffffffffffffffffffff\n      and\n        /* \"contracts/BusinessConsensus.sol\":2619:2642  msg.sender == initiator */\n      0xffffffffffffffffffffffffffffffffffffffff\n      and\n        /* \"contracts/BusinessConsensus.sol\":2619:2629  msg.sender */\n      caller\n        /* \"contracts/BusinessConsensus.sol\":2619:2642  msg.sender == initiator */\n      0xffffffffffffffffffffffffffffffffffffffff\n      and\n      eq\n        /* \"contracts/BusinessConsensus.sol\":2597:2710  require(... */\n      tag_86\n      jumpi\n      mload(0x40)\n      0x08c379a000000000000000000000000000000000000000000000000000000000\n      dup2\n      mstore\n      0x04\n      add\n      tag_87\n      swap1\n      tag_88\n      jump\t// in\n    tag_87:\n      mload(0x40)\n      dup1\n      swap2\n      sub\n      swap1\n      revert\n    tag_86:\n        /* \"contracts/BusinessConsensus.sol\":2738:2747  initiator */\n      0x03\n      0x00\n      swap1\n      sload\n      swap1\n      0x0100\n      exp\n      swap1\n      div\n      0xffffffffffffffffffffffffffffffffffffffff\n      and\n        /* \"contracts/BusinessConsensus.sol\":2729:2747  voter != initiator */\n      0xffffffffffffffffffffffffffffffffffffffff\n      and\n        /* \"contracts/BusinessConsensus.sol\":2729:2734  voter */\n      dup2\n        /* \"contracts/BusinessConsensus.sol\":2729:2747  voter != initiator */\n      0xffffffffffffffffffffffffffffffffffffffff\n      and\n      sub\n        /* \"contracts/BusinessConsensus.sol\":2721:2773  require(voter != initiator, \"Initiator can't vote!\") */\n      tag_89\n      jumpi\n      mload(0x40)\n      0x08c379a000000000000000000000000000000000000000000000000000000000\n      dup2\n      mstore\n      0x04\n      add\n      tag_90\n      swap1\n      tag_91\n      jump\t// in\n    tag_90:\n      mload(0x40)\n      dup1\n      swap2\n      sub\n      swap1\n      revert\n    tag_89:\n        /* \"contracts/BusinessConsensus.sol\":2833:2834  0 */\n      0x00\n        /* \"contracts/BusinessConsensus.sol\":2794:2835  voters_map[voter].recipient == address(0) */\n      0xffffffffffffffffffffffffffffffffffffffff\n      and\n        /* \"contracts/BusinessConsensus.sol\":2794:2804  voters_map */\n      0x0a\n        /* \"contracts/BusinessConsensus.sol\":2794:2811  voters_map[voter] */\n      0x00\n        /* \"contracts/BusinessConsensus.sol\":2805:2810  voter */\n      dup4\n        /* \"contracts/BusinessConsensus.sol\":2794:2811  voters_map[voter] */\n      0xffffffffffffffffffffffffffffffffffffffff\n      and\n      0xffffffffffffffffffffffffffffffffffffffff\n      and\n      dup2\n      mstore\n      0x20\n      add\n      swap1\n      dup2\n      mstore\n      0x20\n      add\n      0x00\n      keccak256\n        /* \"contracts/BusinessConsensus.sol\":2794:2821  voters_map[voter].recipient */\n      0x00\n      add\n      0x01\n      swap1\n      sload\n      swap1\n      0x0100\n      exp\n      swap1\n      div\n      0xffffffffffffffffffffffffffffffffffffffff\n      and\n        /* \"contracts/BusinessConsensus.sol\":2794:2835  voters_map[voter].recipient == address(0) */\n      0xffffffffffffffffffffffffffffffffffffffff\n      and\n      eq\n        /* \"contracts/BusinessConsensus.sol\":2786:2871  require(voters_map[voter].recipient == address(0), \"Recipient is already registered\") */\n      tag_92\n      jumpi\n      mload(0x40)\n      0x08c379a000000000000000000000000000000000000000000000000000000000\n      dup2\n      mstore\n      0x04\n      add\n      tag_93\n      swap1\n      tag_94\n      jump\t// in\n    tag_93:\n      mload(0x40)\n      dup1\n      swap2\n      sub\n      swap1\n      revert\n    tag_92:\n        /* \"contracts/BusinessConsensus.sol\":2910:2920  expiryDate */\n      sload(0x01)\n        /* \"contracts/BusinessConsensus.sol\":2892:2907  block.timestamp */\n      timestamp\n        /* \"contracts/BusinessConsensus.sol\":2892:2920  block.timestamp < expiryDate */\n      lt\n        /* \"contracts/BusinessConsensus.sol\":2884:2961  require(block.timestamp < expiryDate, \"Proposal has reached its expiry date\") */\n      tag_95\n      jumpi\n      mload(0x40)\n      0x08c379a000000000000000000000000000000000000000000000000000000000\n      dup2\n      mstore\n      0x04\n      add\n      tag_96\n      swap1\n      tag_97\n      jump\t// in\n    tag_96:\n      mload(0x40)\n      dup1\n      swap2\n      sub\n      swap1\n      revert\n    tag_95:\n        /* \"contracts/BusinessConsensus.sol\":2974:2988  Voter memory x */\n      0x00\n        /* \"contracts/BusinessConsensus.sol\":2991:3042  Voter({voted: false,recipient: voter, vote: false}) */\n      mload(0x40)\n      dup1\n      0x60\n      add\n      0x40\n      mstore\n      dup1\n        /* \"contracts/BusinessConsensus.sol\":3005:3010  false */\n      0x00\n        /* \"contracts/BusinessConsensus.sol\":2991:3042  Voter({voted: false,recipient: voter, vote: false}) */\n      iszero\n      iszero\n      dup2\n      mstore\n      0x20\n      add\n        /* \"contracts/BusinessConsensus.sol\":3022:3027  voter */\n      dup4\n        /* \"contracts/BusinessConsensus.sol\":2991:3042  Voter({voted: false,recipient: voter, vote: false}) */\n      0xffffffffffffffffffffffffffffffffffffffff\n      and\n      dup2\n      mstore\n      0x20\n      add\n        /* \"contracts/BusinessConsensus.sol\":3035:3040  false */\n      0x00\n        /* \"contracts/BusinessConsensus.sol\":2991:3042  Voter({voted: false,recipient: voter, vote: false}) */\n      iszero\n      iszero\n      dup2\n      mstore\n      pop\n        /* \"contracts/BusinessConsensus.sol\":2974:3042  Voter memory x = Voter({voted: false,recipient: voter, vote: false}) */\n      swap1\n      pop\n        /* \"contracts/BusinessConsensus.sol\":3073:3074  x */\n      dup1\n        /* \"contracts/BusinessConsensus.sol\":3053:3063  voters_map */\n      0x0a\n        /* \"contracts/BusinessConsensus.sol\":3053:3070  voters_map[voter] */\n      0x00\n        /* \"contracts/BusinessConsensus.sol\":3064:3069  voter */\n      dup5\n        /* \"contracts/BusinessConsensus.sol\":3053:3070  voters_map[voter] */\n      0xffffffffffffffffffffffffffffffffffffffff\n      and\n      0xffffffffffffffffffffffffffffffffffffffff\n      and\n      dup2\n      mstore\n      0x20\n      add\n      swap1\n      dup2\n      mstore\n      0x20\n      add\n      0x00\n      keccak256\n        /* \"contracts/BusinessConsensus.sol\":3053:3074  voters_map[voter] = x */\n      0x00\n      dup3\n      add\n      mload\n      dup2\n      0x00\n      add\n      exp(0x0100, 0x00)\n      dup2\n      sload\n      dup2\n      0xff\n      mul\n      not\n      and\n      swap1\n      dup4\n      iszero\n      iszero\n      mul\n      or\n      swap1\n      sstore\n      pop\n      0x20\n      dup3\n      add\n      mload\n      dup2\n      0x00\n      add\n      exp(0x0100, 0x01)\n      dup2\n      sload\n      dup2\n      0xffffffffffffffffffffffffffffffffffffffff\n      mul\n      not\n      and\n      swap1\n      dup4\n      0xffffffffffffffffffffffffffffffffffffffff\n      and\n      mul\n      or\n      swap1\n      sstore\n      pop\n      0x40\n      dup3\n      add\n      mload\n      dup2\n      0x00\n      add\n      exp(0x0100, 0x15)\n      dup2\n      sload\n      dup2\n      0xff\n      mul\n      not\n      and\n      swap1\n      dup4\n      iszero\n      iszero\n      mul\n      or\n      swap1\n      sstore\n      pop\n      swap1\n      pop\n      pop\n        /* \"contracts/BusinessConsensus.sol\":3085:3089  keys */\n      0x09\n        /* \"contracts/BusinessConsensus.sol\":3095:3100  voter */\n      dup3\n        /* \"contracts/BusinessConsensus.sol\":3085:3101  keys.push(voter) */\n      swap1\n      dup1\n      0x01\n      dup2\n      sload\n      add\n      dup1\n      dup3\n      sstore\n      dup1\n      swap2\n      pop\n      pop\n      0x01\n      swap1\n      sub\n      swap1\n      0x00\n      mstore\n      keccak256(0x00, 0x20)\n      add\n      0x00\n      swap1\n      swap2\n      swap1\n      swap2\n      swap1\n      swap2\n      0x0100\n      exp\n      dup2\n      sload\n      dup2\n      0xffffffffffffffffffffffffffffffffffffffff\n      mul\n      not\n      and\n      swap1\n      dup4\n      0xffffffffffffffffffffffffffffffffffffffff\n      and\n      mul\n      or\n      swap1\n      sstore\n      pop\n        /* \"contracts/BusinessConsensus.sol\":2512:3109  {... */\n      pop\n        /* \"contracts/BusinessConsensus.sol\":2465:3109  function RegisterVoter(address voter) external {... */\n      pop\n      jump\t// out\n        /* \"contracts/BusinessConsensus.sol\":1847:1947  function getValues() public view returns (string memory){... */\n    tag_33:\n        /* \"contracts/BusinessConsensus.sol\":1889:1902  string memory */\n      0x60\n        /* \"contracts/BusinessConsensus.sol\":1921:1929  proposal */\n      0x0b\n        /* \"contracts/BusinessConsensus.sol\":1921:1939  proposal.messageID */\n      0x01\n      add\n        /* \"contracts/BusinessConsensus.sol\":1914:1939  return proposal.messageID */\n      dup1\n      sload\n      tag_100\n      swap1\n      tag_101\n      jump\t// in\n    tag_100:\n      dup1\n      0x1f\n      add\n      0x20\n      dup1\n      swap2\n      div\n      mul\n      0x20\n      add\n      mload(0x40)\n      swap1\n      dup2\n      add\n      0x40\n      mstore\n      dup1\n      swap3\n      swap2\n      swap1\n      dup2\n      dup2\n      mstore\n      0x20\n      add\n      dup3\n      dup1\n      sload\n      tag_102\n      swap1\n      tag_101\n      jump\t// in\n    tag_102:\n      dup1\n      iszero\n      tag_103\n      jumpi\n      dup1\n      0x1f\n      lt\n      tag_104\n      jumpi\n      0x0100\n      dup1\n      dup4\n      sload\n      div\n      mul\n      dup4\n      mstore\n      swap2\n      0x20\n      add\n      swap2\n      jump(tag_103)\n    tag_104:\n      dup3\n      add\n      swap2\n      swap1\n      0x00\n      mstore\n      keccak256(0x00, 0x20)\n      swap1\n    tag_105:\n      dup2\n      sload\n      dup2\n      mstore\n      swap1\n      0x01\n      add\n      swap1\n      0x20\n      add\n      dup1\n      dup4\n      gt\n      tag_105\n      jumpi\n      dup3\n      swap1\n      sub\n      0x1f\n      and\n      dup3\n      add\n      swap2\n    tag_103:\n      pop\n      pop\n      pop\n      pop\n      pop\n      swap1\n      pop\n        /* \"contracts/BusinessConsensus.sol\":1847:1947  function getValues() public view returns (string memory){... */\n      swap1\n      jump\t// out\n        /* \"contracts/BusinessConsensus.sol\":3164:4098  function Vote(string memory response) external {... */\n    tag_39:\n        /* \"contracts/BusinessConsensus.sol\":3278:3288  expiryDate */\n      sload(0x01)\n        /* \"contracts/BusinessConsensus.sol\":3260:3275  block.timestamp */\n      timestamp\n        /* \"contracts/BusinessConsensus.sol\":3260:3288  block.timestamp < expiryDate */\n      lt\n        /* \"contracts/BusinessConsensus.sol\":3252:3311  require(block.timestamp < expiryDate, \"Voting has expired\") */\n      tag_107\n      jumpi\n      mload(0x40)\n      0x08c379a000000000000000000000000000000000000000000000000000000000\n      dup2\n      mstore\n      0x04\n      add\n      tag_108\n      swap1\n      tag_109\n      jump\t// in\n    tag_108:\n      mload(0x40)\n      dup1\n      swap2\n      sub\n      swap1\n      revert\n    tag_107:\n        /* \"contracts/BusinessConsensus.sol\":3322:3349  Voter memory recipientVoter */\n      0x00\n        /* \"contracts/BusinessConsensus.sol\":3352:3362  voters_map */\n      0x0a\n        /* \"contracts/BusinessConsensus.sol\":3352:3374  voters_map[msg.sender] */\n      0x00\n        /* \"contracts/BusinessConsensus.sol\":3363:3373  msg.sender */\n      caller\n        /* \"contracts/BusinessConsensus.sol\":3352:3374  voters_map[msg.sender] */\n      0xffffffffffffffffffffffffffffffffffffffff\n      and\n      0xffffffffffffffffffffffffffffffffffffffff\n      and\n      dup2\n      mstore\n      0x20\n      add\n      swap1\n      dup2\n      mstore\n      0x20\n      add\n      0x00\n      keccak256\n        /* \"contracts/BusinessConsensus.sol\":3322:3374  Voter memory recipientVoter = voters_map[msg.sender] */\n      mload(0x40)\n      dup1\n      0x60\n      add\n      0x40\n      mstore\n      swap1\n      dup2\n      0x00\n      dup3\n      add\n      0x00\n      swap1\n      sload\n      swap1\n      0x0100\n      exp\n      swap1\n      div\n      0xff\n      and\n      iszero\n      iszero\n      iszero\n      iszero\n      dup2\n      mstore\n      0x20\n      add\n      0x00\n      dup3\n      add\n      0x01\n      swap1\n      sload\n      swap1\n      0x0100\n      exp\n      swap1\n      div\n      0xffffffffffffffffffffffffffffffffffffffff\n      and\n      0xffffffffffffffffffffffffffffffffffffffff\n      and\n      0xffffffffffffffffffffffffffffffffffffffff\n      and\n      dup2\n      mstore\n      0x20\n      add\n      0x00\n      dup3\n      add\n      0x15\n      swap1\n      sload\n      swap1\n      0x0100\n      exp\n      swap1\n      div\n      0xff\n      and\n      iszero\n      iszero\n      iszero\n      iszero\n      dup2\n      mstore\n      pop\n      pop\n      swap1\n      pop\n        /* \"contracts/BusinessConsensus.sol\":3429:3432  0x0 */\n      0x00\n        /* \"contracts/BusinessConsensus.sol\":3393:3433  recipientVoter.recipient != address(0x0) */\n      0xffffffffffffffffffffffffffffffffffffffff\n      and\n        /* \"contracts/BusinessConsensus.sol\":3393:3407  recipientVoter */\n      dup2\n        /* \"contracts/BusinessConsensus.sol\":3393:3417  recipientVoter.recipient */\n      0x20\n      add\n      mload\n        /* \"contracts/BusinessConsensus.sol\":3393:3433  recipientVoter.recipient != address(0x0) */\n      0xffffffffffffffffffffffffffffffffffffffff\n      and\n      sub\n        /* \"contracts/BusinessConsensus.sol\":3385:3468  require(recipientVoter.recipient != address(0x0), \"You are not registered to vote\") */\n      tag_110\n      jumpi\n      mload(0x40)\n      0x08c379a000000000000000000000000000000000000000000000000000000000\n      dup2\n      mstore\n      0x04\n      add\n      tag_111\n      swap1\n      tag_112\n      jump\t// in\n    tag_111:\n      mload(0x40)\n      dup1\n      swap2\n      sub\n      swap1\n      revert\n    tag_110:\n        /* \"contracts/BusinessConsensus.sol\":3488:3502  recipientVoter */\n      dup1\n        /* \"contracts/BusinessConsensus.sol\":3488:3508  recipientVoter.voted */\n      0x00\n      add\n      mload\n        /* \"contracts/BusinessConsensus.sol\":3487:3508  !recipientVoter.voted */\n      iszero\n        /* \"contracts/BusinessConsensus.sol\":3479:3541  require(!recipientVoter.voted, \"You already sent a response.\") */\n      tag_113\n      jumpi\n      mload(0x40)\n      0x08c379a000000000000000000000000000000000000000000000000000000000\n      dup2\n      mstore\n      0x04\n      add\n      tag_114\n      swap1\n      tag_115\n      jump\t// in\n    tag_114:\n      mload(0x40)\n      dup1\n      swap2\n      sub\n      swap1\n      revert\n    tag_113:\n        /* \"contracts/BusinessConsensus.sol\":3597:3615  bytes(\"i approve\") */\n      mload(0x40)\n      dup1\n      0x40\n      add\n      0x40\n      mstore\n      dup1\n      0x09\n      dup2\n      mstore\n      0x20\n      add\n      0x6920617070726f76650000000000000000000000000000000000000000000000\n      dup2\n      mstore\n      pop\n        /* \"contracts/BusinessConsensus.sol\":3587:3616  keccak256(bytes(\"i approve\")) */\n      dup1\n      mload\n      swap1\n      0x20\n      add\n      keccak256\n        /* \"contracts/BusinessConsensus.sol\":3573:3581  response */\n      dup3\n        /* \"contracts/BusinessConsensus.sol\":3557:3583  keccak256(bytes(response)) */\n      dup1\n      mload\n      swap1\n      0x20\n      add\n      keccak256\n        /* \"contracts/BusinessConsensus.sol\":3557:3616  keccak256(bytes(response)) == keccak256(bytes(\"i approve\")) */\n      sub\n        /* \"contracts/BusinessConsensus.sol\":3554:4081  if(keccak256(bytes(response)) == keccak256(bytes(\"i approve\"))){... */\n      tag_116\n      jumpi\n        /* \"contracts/BusinessConsensus.sol\":3663:3667  true */\n      0x01\n        /* \"contracts/BusinessConsensus.sol\":3632:3642  voters_map */\n      0x0a\n        /* \"contracts/BusinessConsensus.sol\":3632:3654  voters_map[msg.sender] */\n      0x00\n        /* \"contracts/BusinessConsensus.sol\":3643:3653  msg.sender */\n      caller\n        /* \"contracts/BusinessConsensus.sol\":3632:3654  voters_map[msg.sender] */\n      0xffffffffffffffffffffffffffffffffffffffff\n      and\n      0xffffffffffffffffffffffffffffffffffffffff\n      and\n      dup2\n      mstore\n      0x20\n      add\n      swap1\n      dup2\n      mstore\n      0x20\n      add\n      0x00\n      keccak256\n        /* \"contracts/BusinessConsensus.sol\":3632:3660  voters_map[msg.sender].voted */\n      0x00\n      add\n      0x00\n        /* \"contracts/BusinessConsensus.sol\":3632:3667  voters_map[msg.sender].voted = true */\n      0x0100\n      exp\n      dup2\n      sload\n      dup2\n      0xff\n      mul\n      not\n      and\n      swap1\n      dup4\n      iszero\n      iszero\n      mul\n      or\n      swap1\n      sstore\n      pop\n        /* \"contracts/BusinessConsensus.sol\":3712:3716  true */\n      0x01\n        /* \"contracts/BusinessConsensus.sol\":3682:3692  voters_map */\n      0x0a\n        /* \"contracts/BusinessConsensus.sol\":3682:3704  voters_map[msg.sender] */\n      0x00\n        /* \"contracts/BusinessConsensus.sol\":3693:3703  msg.sender */\n      caller\n        /* \"contracts/BusinessConsensus.sol\":3682:3704  voters_map[msg.sender] */\n      0xffffffffffffffffffffffffffffffffffffffff\n      and\n      0xffffffffffffffffffffffffffffffffffffffff\n      and\n      dup2\n      mstore\n      0x20\n      add\n      swap1\n      dup2\n      mstore\n      0x20\n      add\n      0x00\n      keccak256\n        /* \"contracts/BusinessConsensus.sol\":3682:3709  voters_map[msg.sender].vote */\n      0x00\n      add\n      0x15\n        /* \"contracts/BusinessConsensus.sol\":3682:3716  voters_map[msg.sender].vote = true */\n      0x0100\n      exp\n      dup2\n      sload\n      dup2\n      0xff\n      mul\n      not\n      and\n      swap1\n      dup4\n      iszero\n      iszero\n      mul\n      or\n      swap1\n      sstore\n      pop\n        /* \"contracts/BusinessConsensus.sol\":3747:3748  1 */\n      0x01\n        /* \"contracts/BusinessConsensus.sol\":3731:3743  numApprovals */\n      0x06\n      0x00\n        /* \"contracts/BusinessConsensus.sol\":3731:3748  numApprovals += 1 */\n      dup3\n      dup3\n      sload\n      tag_117\n      swap2\n      swap1\n      tag_118\n      jump\t// in\n    tag_117:\n      swap3\n      pop\n      pop\n      dup2\n      swap1\n      sstore\n      pop\n        /* \"contracts/BusinessConsensus.sol\":3785:3786  1 */\n      0x01\n        /* \"contracts/BusinessConsensus.sol\":3763:3771  proposal */\n      0x0b\n        /* \"contracts/BusinessConsensus.sol\":3763:3781  proposal.voteCount */\n      0x00\n      add\n      0x00\n        /* \"contracts/BusinessConsensus.sol\":3763:3786  proposal.voteCount += 1 */\n      dup3\n      dup3\n      sload\n      tag_119\n      swap2\n      swap1\n      tag_118\n      jump\t// in\n    tag_119:\n      swap3\n      pop\n      pop\n      dup2\n      swap1\n      sstore\n      pop\n        /* \"contracts/BusinessConsensus.sol\":3801:3807  voters */\n      0x08\n        /* \"contracts/BusinessConsensus.sol\":3813:3823  voters_map */\n      0x0a\n        /* \"contracts/BusinessConsensus.sol\":3813:3835  voters_map[msg.sender] */\n      0x00\n        /* \"contracts/BusinessConsensus.sol\":3824:3834  msg.sender */\n      caller\n        /* \"contracts/BusinessConsensus.sol\":3813:3835  voters_map[msg.sender] */\n      0xffffffffffffffffffffffffffffffffffffffff\n      and\n      0xffffffffffffffffffffffffffffffffffffffff\n      and\n      dup2\n      mstore\n      0x20\n      add\n      swap1\n      dup2\n      mstore\n      0x20\n      add\n      0x00\n      keccak256\n        /* \"contracts/BusinessConsensus.sol\":3801:3836  voters.push(voters_map[msg.sender]) */\n      swap1\n      dup1\n      0x01\n      dup2\n      sload\n      add\n      dup1\n      dup3\n      sstore\n      dup1\n      swap2\n      pop\n      pop\n      0x01\n      swap1\n      sub\n      swap1\n      0x00\n      mstore\n      keccak256(0x00, 0x20)\n      add\n      0x00\n      swap1\n      swap2\n      swap1\n      swap2\n      swap1\n      swap2\n      pop\n      0x00\n      dup3\n      add\n      0x00\n      swap1\n      sload\n      swap1\n      0x0100\n      exp\n      swap1\n      div\n      0xff\n      and\n      dup2\n      0x00\n      add\n      exp(0x0100, 0x00)\n      dup2\n      sload\n      dup2\n      0xff\n      mul\n      not\n      and\n      swap1\n      dup4\n      iszero\n      iszero\n      mul\n      or\n      swap1\n      sstore\n      pop\n      0x00\n      dup3\n      add\n      0x01\n      swap1\n      sload\n      swap1\n      0x0100\n      exp\n      swap1\n      div\n      0xffffffffffffffffffffffffffffffffffffffff\n      and\n      dup2\n      0x00\n      add\n      exp(0x0100, 0x01)\n      dup2\n      sload\n      dup2\n      0xffffffffffffffffffffffffffffffffffffffff\n      mul\n      not\n      and\n      swap1\n      dup4\n      0xffffffffffffffffffffffffffffffffffffffff\n      and\n      mul\n      or\n      swap1\n      sstore\n      pop\n      0x00\n      dup3\n      add\n      0x15\n      swap1\n      sload\n      swap1\n      0x0100\n      exp\n      swap1\n      div\n      0xff\n      and\n      dup2\n      0x00\n      add\n      exp(0x0100, 0x15)\n      dup2\n      sload\n      dup2\n      0xff\n      mul\n      not\n      and\n      swap1\n      dup4\n      iszero\n      iszero\n      mul\n      or\n      swap1\n      sstore\n      pop\n      pop\n      pop\n        /* \"contracts/BusinessConsensus.sol\":3554:4081  if(keccak256(bytes(response)) == keccak256(bytes(\"i approve\"))){... */\n      jump(tag_121)\n    tag_116:\n        /* \"contracts/BusinessConsensus.sol\":3908:3929  bytes(\"i disapprove\") */\n      mload(0x40)\n      dup1\n      0x40\n      add\n      0x40\n      mstore\n      dup1\n      0x0c\n      dup2\n      mstore\n      0x20\n      add\n      0x6920646973617070726f76650000000000000000000000000000000000000000\n      dup2\n      mstore\n      pop\n        /* \"contracts/BusinessConsensus.sol\":3898:3930  keccak256(bytes(\"i disapprove\")) */\n      dup1\n      mload\n      swap1\n      0x20\n      add\n      keccak256\n        /* \"contracts/BusinessConsensus.sol\":3884:3892  response */\n      dup3\n        /* \"contracts/BusinessConsensus.sol\":3868:3894  keccak256(bytes(response)) */\n      dup1\n      mload\n      swap1\n      0x20\n      add\n      keccak256\n        /* \"contracts/BusinessConsensus.sol\":3868:3930  keccak256(bytes(response)) == keccak256(bytes(\"i disapprove\")) */\n      sub\n        /* \"contracts/BusinessConsensus.sol\":3865:4081  if(keccak256(bytes(response)) == keccak256(bytes(\"i disapprove\"))){... */\n      tag_122\n      jumpi\n        /* \"contracts/BusinessConsensus.sol\":3977:3981  true */\n      0x01\n        /* \"contracts/BusinessConsensus.sol\":3946:3956  voters_map */\n      0x0a\n        /* \"contracts/BusinessConsensus.sol\":3946:3968  voters_map[msg.sender] */\n      0x00\n        /* \"contracts/BusinessConsensus.sol\":3957:3967  msg.sender */\n      caller\n        /* \"contracts/BusinessConsensus.sol\":3946:3968  voters_map[msg.sender] */\n      0xffffffffffffffffffffffffffffffffffffffff\n      and\n      0xffffffffffffffffffffffffffffffffffffffff\n      and\n      dup2\n      mstore\n      0x20\n      add\n      swap1\n      dup2\n      mstore\n      0x20\n      add\n      0x00\n      keccak256\n        /* \"contracts/BusinessConsensus.sol\":3946:3974  voters_map[msg.sender].voted */\n      0x00\n      add\n      0x00\n        /* \"contracts/BusinessConsensus.sol\":3946:3981  voters_map[msg.sender].voted = true */\n      0x0100\n      exp\n      dup2\n      sload\n      dup2\n      0xff\n      mul\n      not\n      and\n      swap1\n      dup4\n      iszero\n      iszero\n      mul\n      or\n      swap1\n      sstore\n      pop\n        /* \"contracts/BusinessConsensus.sol\":4018:4019  1 */\n      0x01\n        /* \"contracts/BusinessConsensus.sol\":3996:4004  proposal */\n      0x0b\n        /* \"contracts/BusinessConsensus.sol\":3996:4014  proposal.voteCount */\n      0x00\n      add\n      0x00\n        /* \"contracts/BusinessConsensus.sol\":3996:4019  proposal.voteCount += 1 */\n      dup3\n      dup3\n      sload\n      tag_123\n      swap2\n      swap1\n      tag_118\n      jump\t// in\n    tag_123:\n      swap3\n      pop\n      pop\n      dup2\n      swap1\n      sstore\n      pop\n        /* \"contracts/BusinessConsensus.sol\":4034:4040  voters */\n      0x08\n        /* \"contracts/BusinessConsensus.sol\":4046:4056  voters_map */\n      0x0a\n        /* \"contracts/BusinessConsensus.sol\":4046:4068  voters_map[msg.sender] */\n      0x00\n        /* \"contracts/BusinessConsensus.sol\":4057:4067  msg.sender */\n      caller\n        /* \"contracts/BusinessConsensus.sol\":4046:4068  voters_map[msg.sender] */\n      0xffffffffffffffffffffffffffffffffffffffff\n      and\n      0xffffffffffffffffffffffffffffffffffffffff\n      and\n      dup2\n      mstore\n      0x20\n      add\n      swap1\n      dup2\n      mstore\n      0x20\n      add\n      0x00\n      keccak256\n        /* \"contracts/BusinessConsensus.sol\":4034:4069  voters.push(voters_map[msg.sender]) */\n      swap1\n      dup1\n      0x01\n      dup2\n      sload\n      add\n      dup1\n      dup3\n      sstore\n      dup1\n      swap2\n      pop\n      pop\n      0x01\n      swap1\n      sub\n      swap1\n      0x00\n      mstore\n      keccak256(0x00, 0x20)\n      add\n      0x00\n      swap1\n      swap2\n      swap1\n      swap2\n      swap1\n      swap2\n      pop\n      0x00\n      dup3\n      add\n      0x00\n      swap1\n      sload\n      swap1\n      0x0100\n      exp\n      swap1\n      div\n      0xff\n      and\n      dup2\n      0x00\n      add\n      exp(0x0100, 0x00)\n      dup2\n      sload\n      dup2\n      0xff\n      mul\n      not\n      and\n      swap1\n      dup4\n      iszero\n      iszero\n      mul\n      or\n      swap1\n      sstore\n      pop\n      0x00\n      dup3\n      add\n      0x01\n      swap1\n      sload\n      swap1\n      0x0100\n      exp\n      swap1\n      div\n      0xffffffffffffffffffffffffffffffffffffffff\n      and\n      dup2\n      0x00\n      add\n      exp(0x0100, 0x01)\n      dup2\n      sload\n      dup2\n      0xffffffffffffffffffffffffffffffffffffffff\n      mul\n      not\n      and\n      swap1\n      dup4\n      0xffffffffffffffffffffffffffffffffffffffff\n      and\n      mul\n      or\n      swap1\n      sstore\n      pop\n      0x00\n      dup3\n      add\n      0x15\n      swap1\n      sload\n      swap1\n      0x0100\n      exp\n      swap1\n      div\n      0xff\n      and\n      dup2\n      0x00\n      add\n      exp(0x0100, 0x15)\n      dup2\n      sload\n      dup2\n      0xff\n      mul\n      not\n      and\n      swap1\n      dup4\n      iszero\n      iszero\n      mul\n      or\n      swap1\n      sstore\n      pop\n      pop\n      pop\n        /* \"contracts/BusinessConsensus.sol\":3865:4081  if(keccak256(bytes(response)) == keccak256(bytes(\"i disapprove\"))){... */\n    tag_122:\n        /* \"contracts/BusinessConsensus.sol\":3554:4081  if(keccak256(bytes(response)) == keccak256(bytes(\"i approve\"))){... */\n    tag_121:\n        /* \"contracts/BusinessConsensus.sol\":3211:4098  {... */\n      pop\n        /* \"contracts/BusinessConsensus.sol\":3164:4098  function Vote(string memory response) external {... */\n      pop\n      jump\t// out\n        /* \"contracts/BusinessConsensus.sol\":2147:2359  function getParameters2(address test_address) public view returns (bool, bool, address){... */\n    tag_42:\n        /* \"contracts/BusinessConsensus.sol\":2214:2218  bool */\n      0x00\n        /* \"contracts/BusinessConsensus.sol\":2220:2224  bool */\n      dup1\n        /* \"contracts/BusinessConsensus.sol\":2226:2233  address */\n      0x00\n        /* \"contracts/BusinessConsensus.sol\":2253:2263  voters_map */\n      0x0a\n        /* \"contracts/BusinessConsensus.sol\":2253:2277  voters_map[test_address] */\n      0x00\n        /* \"contracts/BusinessConsensus.sol\":2264:2276  test_address */\n      dup6\n        /* \"contracts/BusinessConsensus.sol\":2253:2277  voters_map[test_address] */\n      0xffffffffffffffffffffffffffffffffffffffff\n      and\n      0xffffffffffffffffffffffffffffffffffffffff\n      and\n      dup2\n      mstore\n      0x20\n      add\n      swap1\n      dup2\n      mstore\n      0x20\n      add\n      0x00\n      keccak256\n        /* \"contracts/BusinessConsensus.sol\":2253:2282  voters_map[test_address].vote */\n      0x00\n      add\n      0x15\n      swap1\n      sload\n      swap1\n      0x0100\n      exp\n      swap1\n      div\n      0xff\n      and\n        /* \"contracts/BusinessConsensus.sol\":2284:2294  voters_map */\n      0x0a\n        /* \"contracts/BusinessConsensus.sol\":2284:2308  voters_map[test_address] */\n      0x00\n        /* \"contracts/BusinessConsensus.sol\":2295:2307  test_address */\n      dup7\n        /* \"contracts/BusinessConsensus.sol\":2284:2308  voters_map[test_address] */\n      0xffffffffffffffffffffffffffffffffffffffff\n      and\n      0xffffffffffffffffffffffffffffffffffffffff\n      and\n      dup2\n      mstore\n      0x20\n      add\n      swap1\n      dup2\n      mstore\n      0x20\n      add\n      0x00\n      keccak256\n        /* \"contracts/BusinessConsensus.sol\":2284:2314  voters_map[test_address].voted */\n      0x00\n      add\n      0x00\n      swap1\n      sload\n      swap1\n      0x0100\n      exp\n      swap1\n      div\n      0xff\n      and\n        /* \"contracts/BusinessConsensus.sol\":2316:2326  voters_map */\n      0x0a\n        /* \"contracts/BusinessConsensus.sol\":2316:2340  voters_map[test_address] */\n      0x00\n        /* \"contracts/BusinessConsensus.sol\":2327:2339  test_address */\n      dup8\n        /* \"contracts/BusinessConsensus.sol\":2316:2340  voters_map[test_address] */\n      0xffffffffffffffffffffffffffffffffffffffff\n      and\n      0xffffffffffffffffffffffffffffffffffffffff\n      and\n      dup2\n      mstore\n      0x20\n      add\n      swap1\n      dup2\n      mstore\n      0x20\n      add\n      0x00\n      keccak256\n        /* \"contracts/BusinessConsensus.sol\":2316:2350  voters_map[test_address].recipient */\n      0x00\n      add\n      0x01\n      swap1\n      sload\n      swap1\n      0x0100\n      exp\n      swap1\n      div\n      0xffffffffffffffffffffffffffffffffffffffff\n      and\n        /* \"contracts/BusinessConsensus.sol\":2245:2351  return (voters_map[test_address].vote, voters_map[test_address].voted, voters_map[test_address].recipient) */\n      swap3\n      pop\n      swap3\n      pop\n      swap3\n      pop\n        /* \"contracts/BusinessConsensus.sol\":2147:2359  function getParameters2(address test_address) public view returns (bool, bool, address){... */\n      swap2\n      swap4\n      swap1\n      swap3\n      pop\n      jump\t// out\n        /* \"contracts/BusinessConsensus.sol\":862:886  address public initiator */\n    tag_46:\n      0x03\n      0x00\n      swap1\n      sload\n      swap1\n      0x0100\n      exp\n      swap1\n      div\n      0xffffffffffffffffffffffffffffffffffffffff\n      and\n      dup2\n      jump\t// out\n        /* \"contracts/BusinessConsensus.sol\":935:968  uint public AccumulatedPercentage */\n    tag_49:\n      sload(0x05)\n      dup2\n      jump\t// out\n        /* \"contracts/BusinessConsensus.sol\":975:999  uint public numApprovals */\n    tag_53:\n      sload(0x06)\n      dup2\n      jump\t// out\n        /* \"contracts/BusinessConsensus.sol\":1219:1243  Proposal public proposal */\n    tag_56:\n      0x0b\n      dup1\n      0x00\n      add\n      sload\n      swap1\n      dup1\n      0x01\n      add\n      dup1\n      sload\n      tag_126\n      swap1\n      tag_101\n      jump\t// in\n    tag_126:\n      dup1\n      0x1f\n      add\n      0x20\n      dup1\n      swap2\n      div\n      mul\n      0x20\n      add\n      mload(0x40)\n      swap1\n      dup2\n      add\n      0x40\n      mstore\n      dup1\n      swap3\n      swap2\n      swap1\n      dup2\n      dup2\n      mstore\n      0x20\n      add\n      dup3\n      dup1\n      sload\n      tag_127\n      swap1\n      tag_101\n      jump\t// in\n    tag_127:\n      dup1\n      iszero\n      tag_128\n      jumpi\n      dup1\n      0x1f\n      lt\n      tag_129\n      jumpi\n      0x0100\n      dup1\n      dup4\n      sload\n      div\n      mul\n      dup4\n      mstore\n      swap2\n      0x20\n      add\n      swap2\n      jump(tag_128)\n    tag_129:\n      dup3\n      add\n      swap2\n      swap1\n      0x00\n      mstore\n      keccak256(0x00, 0x20)\n      swap1\n    tag_130:\n      dup2\n      sload\n      dup2\n      mstore\n      swap1\n      0x01\n      add\n      swap1\n      0x20\n      add\n      dup1\n      dup4\n      gt\n      tag_130\n      jumpi\n      dup3\n      swap1\n      sub\n      0x1f\n      and\n      dup3\n      add\n      swap2\n    tag_128:\n      pop\n      pop\n      pop\n      pop\n      pop\n      swap1\n      pop\n      dup3\n      jump\t// out\n        /* \"contracts/BusinessConsensus.sol\":4162:4746  function Consensus() external {... */\n    tag_60:\n        /* \"contracts/BusinessConsensus.sol\":4230:4240  expiryDate */\n      sload(0x01)\n        /* \"contracts/BusinessConsensus.sol\":4211:4226  block.timestamp */\n      timestamp\n        /* \"contracts/BusinessConsensus.sol\":4211:4240  block.timestamp >= expiryDate */\n      lt\n      iszero\n        /* \"contracts/BusinessConsensus.sol\":4203:4277  require(block.timestamp >= expiryDate, \"Verdict has not been reached yet\") */\n      tag_132\n      jumpi\n      mload(0x40)\n      0x08c379a000000000000000000000000000000000000000000000000000000000\n      dup2\n      mstore\n      0x04\n      add\n      tag_133\n      swap1\n      tag_134\n      jump\t// in\n    tag_133:\n      mload(0x40)\n      dup1\n      swap2\n      sub\n      swap1\n      revert\n    tag_132:\n        /* \"contracts/BusinessConsensus.sol\":4314:4315  0 */\n      0x00\n        /* \"contracts/BusinessConsensus.sol\":4296:4310  numberCompiled */\n      sload(0x07)\n        /* \"contracts/BusinessConsensus.sol\":4296:4315  numberCompiled == 0 */\n      eq\n        /* \"contracts/BusinessConsensus.sol\":4288:4357  require(numberCompiled == 0, \"Consensus has already been calculated\") */\n      tag_135\n      jumpi\n      mload(0x40)\n      0x08c379a000000000000000000000000000000000000000000000000000000000\n      dup2\n      mstore\n      0x04\n      add\n      tag_136\n      swap1\n      tag_137\n      jump\t// in\n    tag_136:\n      mload(0x40)\n      dup1\n      swap2\n      sub\n      swap1\n      revert\n    tag_135:\n        /* \"contracts/BusinessConsensus.sol\":4419:4422  100 */\n      0x64\n        /* \"contracts/BusinessConsensus.sol\":4406:4410  keys */\n      0x09\n        /* \"contracts/BusinessConsensus.sol\":4406:4417  keys.length */\n      dup1\n      sload\n      swap1\n      pop\n        /* \"contracts/BusinessConsensus.sol\":4393:4405  numApprovals */\n      sload(0x06)\n        /* \"contracts/BusinessConsensus.sol\":4393:4417  numApprovals/keys.length */\n      tag_138\n      swap2\n      swap1\n      tag_139\n      jump\t// in\n    tag_138:\n        /* \"contracts/BusinessConsensus.sol\":4392:4422  (numApprovals/keys.length)*100 */\n      tag_140\n      swap2\n      swap1\n      tag_141\n      jump\t// in\n    tag_140:\n        /* \"contracts/BusinessConsensus.sol\":4368:4389  AccumulatedPercentage */\n      0x05\n        /* \"contracts/BusinessConsensus.sol\":4368:4422  AccumulatedPercentage = (numApprovals/keys.length)*100 */\n      dup2\n      swap1\n      sstore\n      pop\n        /* \"contracts/BusinessConsensus.sol\":4461:4480  BusinessRequirement */\n      sload(0x04)\n        /* \"contracts/BusinessConsensus.sol\":4436:4457  AccumulatedPercentage */\n      sload(0x05)\n        /* \"contracts/BusinessConsensus.sol\":4436:4480  AccumulatedPercentage >= BusinessRequirement */\n      lt\n        /* \"contracts/BusinessConsensus.sol\":4433:4533  if(AccumulatedPercentage >= BusinessRequirement){... */\n      tag_142\n      jumpi\n        /* \"contracts/BusinessConsensus.sol\":4496:4521  finalVerdict = \"Accepted\" */\n      mload(0x40)\n      dup1\n      0x40\n      add\n      0x40\n      mstore\n      dup1\n      0x08\n      dup2\n      mstore\n      0x20\n      add\n      0x4163636570746564000000000000000000000000000000000000000000000000\n      dup2\n      mstore\n      pop\n        /* \"contracts/BusinessConsensus.sol\":4496:4508  finalVerdict */\n      0x02\n        /* \"contracts/BusinessConsensus.sol\":4496:4521  finalVerdict = \"Accepted\" */\n      swap1\n      dup2\n      tag_143\n      swap2\n      swap1\n      tag_144\n      jump\t// in\n    tag_143:\n      pop\n        /* \"contracts/BusinessConsensus.sol\":4433:4533  if(AccumulatedPercentage >= BusinessRequirement){... */\n    tag_142:\n        /* \"contracts/BusinessConsensus.sol\":4547:4554  uint8 i */\n      0x00\n        /* \"contracts/BusinessConsensus.sol\":4543:4709  for(uint8 i=0; i< keys.length; i++){... */\n    tag_145:\n        /* \"contracts/BusinessConsensus.sol\":4561:4565  keys */\n      0x09\n        /* \"contracts/BusinessConsensus.sol\":4561:4572  keys.length */\n      dup1\n      sload\n      swap1\n      pop\n        /* \"contracts/BusinessConsensus.sol\":4558:4559  i */\n      dup2\n        /* \"contracts/BusinessConsensus.sol\":4558:4572  i< keys.length */\n      0xff\n      and\n      lt\n        /* \"contracts/BusinessConsensus.sol\":4543:4709  for(uint8 i=0; i< keys.length; i++){... */\n      iszero\n      tag_146\n      jumpi\n        /* \"contracts/BusinessConsensus.sol\":4625:4630  false */\n      0x00\n        /* \"contracts/BusinessConsensus.sol\":4596:4630  voters_map[keys[i]].voted == false */\n      iszero\n      iszero\n        /* \"contracts/BusinessConsensus.sol\":4596:4606  voters_map */\n      0x0a\n        /* \"contracts/BusinessConsensus.sol\":4596:4615  voters_map[keys[i]] */\n      0x00\n        /* \"contracts/BusinessConsensus.sol\":4607:4611  keys */\n      0x09\n        /* \"contracts/BusinessConsensus.sol\":4612:4613  i */\n      dup5\n        /* \"contracts/BusinessConsensus.sol\":4607:4614  keys[i] */\n      0xff\n      and\n      dup2\n      sload\n      dup2\n      lt\n      tag_148\n      jumpi\n      tag_149\n      tag_150\n      jump\t// in\n    tag_149:\n    tag_148:\n      swap1\n      0x00\n      mstore\n      keccak256(0x00, 0x20)\n      add\n      0x00\n      swap1\n      sload\n      swap1\n      0x0100\n      exp\n      swap1\n      div\n      0xffffffffffffffffffffffffffffffffffffffff\n      and\n        /* \"contracts/BusinessConsensus.sol\":4596:4615  voters_map[keys[i]] */\n      0xffffffffffffffffffffffffffffffffffffffff\n      and\n      0xffffffffffffffffffffffffffffffffffffffff\n      and\n      dup2\n      mstore\n      0x20\n      add\n      swap1\n      dup2\n      mstore\n      0x20\n      add\n      0x00\n      keccak256\n        /* \"contracts/BusinessConsensus.sol\":4596:4621  voters_map[keys[i]].voted */\n      0x00\n      add\n      0x00\n      swap1\n      sload\n      swap1\n      0x0100\n      exp\n      swap1\n      div\n      0xff\n      and\n        /* \"contracts/BusinessConsensus.sol\":4596:4630  voters_map[keys[i]].voted == false */\n      iszero\n      iszero\n      sub\n        /* \"contracts/BusinessConsensus.sol\":4593:4698  if(voters_map[keys[i]].voted == false){... */\n      tag_152\n      jumpi\n        /* \"contracts/BusinessConsensus.sol\":4650:4656  voters */\n      0x08\n        /* \"contracts/BusinessConsensus.sol\":4662:4672  voters_map */\n      0x0a\n        /* \"contracts/BusinessConsensus.sol\":4662:4681  voters_map[keys[i]] */\n      0x00\n        /* \"contracts/BusinessConsensus.sol\":4673:4677  keys */\n      0x09\n        /* \"contracts/BusinessConsensus.sol\":4678:4679  i */\n      dup5\n        /* \"contracts/BusinessConsensus.sol\":4673:4680  keys[i] */\n      0xff\n      and\n      dup2\n      sload\n      dup2\n      lt\n      tag_153\n      jumpi\n      tag_154\n      tag_150\n      jump\t// in\n    tag_154:\n    tag_153:\n      swap1\n      0x00\n      mstore\n      keccak256(0x00, 0x20)\n      add\n      0x00\n      swap1\n      sload\n      swap1\n      0x0100\n      exp\n      swap1\n      div\n      0xffffffffffffffffffffffffffffffffffffffff\n      and\n        /* \"contracts/BusinessConsensus.sol\":4662:4681  voters_map[keys[i]] */\n      0xffffffffffffffffffffffffffffffffffffffff\n      and\n      0xffffffffffffffffffffffffffffffffffffffff\n      and\n      dup2\n      mstore\n      0x20\n      add\n      swap1\n      dup2\n      mstore\n      0x20\n      add\n      0x00\n      keccak256\n        /* \"contracts/BusinessConsensus.sol\":4650:4682  voters.push(voters_map[keys[i]]) */\n      swap1\n      dup1\n      0x01\n      dup2\n      sload\n      add\n      dup1\n      dup3\n      sstore\n      dup1\n      swap2\n      pop\n      pop\n      0x01\n      swap1\n      sub\n      swap1\n      0x00\n      mstore\n      keccak256(0x00, 0x20)\n      add\n      0x00\n      swap1\n      swap2\n      swap1\n      swap2\n      swap1\n      swap2\n      pop\n      0x00\n      dup3\n      add\n      0x00\n      swap1\n      sload\n      swap1\n      0x0100\n      exp\n      swap1\n      div\n      0xff\n      and\n      dup2\n      0x00\n      add\n      exp(0x0100, 0x00)\n      dup2\n      sload\n      dup2\n      0xff\n      mul\n      not\n      and\n      swap1\n      dup4\n      iszero\n      iszero\n      mul\n      or\n      swap1\n      sstore\n      pop\n      0x00\n      dup3\n      add\n      0x01\n      swap1\n      sload\n      swap1\n      0x0100\n      exp\n      swap1\n      div\n      0xffffffffffffffffffffffffffffffffffffffff\n      and\n      dup2\n      0x00\n      add\n      exp(0x0100, 0x01)\n      dup2\n      sload\n      dup2\n      0xffffffffffffffffffffffffffffffffffffffff\n      mul\n      not\n      and\n      swap1\n      dup4\n      0xffffffffffffffffffffffffffffffffffffffff\n      and\n      mul\n      or\n      swap1\n      sstore\n      pop\n      0x00\n      dup3\n      add\n      0x15\n      swap1\n      sload\n      swap1\n      0x0100\n      exp\n      swap1\n      div\n      0xff\n      and\n      dup2\n      0x00\n      add\n      exp(0x0100, 0x15)\n      dup2\n      sload\n      dup2\n      0xff\n      mul\n      not\n      and\n      swap1\n      dup4\n      iszero\n      iszero\n      mul\n      or\n      swap1\n      sstore\n      pop\n      pop\n      pop\n        /* \"contracts/BusinessConsensus.sol\":4593:4698  if(voters_map[keys[i]].voted == false){... */\n    tag_152:\n        /* \"contracts/BusinessConsensus.sol\":4574:4577  i++ */\n      dup1\n      dup1\n      tag_157\n      swap1\n      tag_158\n      jump\t// in\n    tag_157:\n      swap2\n      pop\n      pop\n        /* \"contracts/BusinessConsensus.sol\":4543:4709  for(uint8 i=0; i< keys.length; i++){... */\n      jump(tag_145)\n    tag_146:\n      pop\n        /* \"contracts/BusinessConsensus.sol\":4737:4738  1 */\n      0x01\n        /* \"contracts/BusinessConsensus.sol\":4719:4733  numberCompiled */\n      0x07\n      0x00\n        /* \"contracts/BusinessConsensus.sol\":4719:4738  numberCompiled += 1 */\n      dup3\n      dup3\n      sload\n      tag_159\n      swap2\n      swap1\n      tag_118\n      jump\t// in\n    tag_159:\n      swap3\n      pop\n      pop\n      dup2\n      swap1\n      sstore\n      pop\n        /* \"contracts/BusinessConsensus.sol\":4162:4746  function Consensus() external {... */\n      jump\t// out\n        /* \"contracts/BusinessConsensus.sol\":1099:1142  mapping(address => Voter) public voters_map */\n    tag_63:\n      mstore(0x20, 0x0a)\n      dup1\n      0x00\n      mstore\n      keccak256(0x00, 0x40)\n      0x00\n      swap2\n      pop\n      swap1\n      pop\n      dup1\n      0x00\n      add\n      0x00\n      swap1\n      sload\n      swap1\n      0x0100\n      exp\n      swap1\n      div\n      0xff\n      and\n      swap1\n      dup1\n      0x00\n      add\n      0x01\n      swap1\n      sload\n      swap1\n      0x0100\n      exp\n      swap1\n      div\n      0xffffffffffffffffffffffffffffffffffffffff\n      and\n      swap1\n      dup1\n      0x00\n      add\n      0x15\n      swap1\n      sload\n      swap1\n      0x0100\n      exp\n      swap1\n      div\n      0xff\n      and\n      swap1\n      pop\n      dup4\n      jump\t// out\n        /* \"contracts/BusinessConsensus.sol\":1953:2141  function getParameters() public view returns (string memory, uint , address ,uint ,uint){... */\n    tag_67:\n        /* \"contracts/BusinessConsensus.sol\":1999:2012  string memory */\n      0x60\n        /* \"contracts/BusinessConsensus.sol\":2014:2018  uint */\n      0x00\n        /* \"contracts/BusinessConsensus.sol\":2021:2028  address */\n      dup1\n        /* \"contracts/BusinessConsensus.sol\":2030:2034  uint */\n      0x00\n        /* \"contracts/BusinessConsensus.sol\":2036:2040  uint */\n      dup1\n        /* \"contracts/BusinessConsensus.sol\":2060:2068  proposal */\n      0x0b\n        /* \"contracts/BusinessConsensus.sol\":2060:2078  proposal.messageID */\n      0x01\n      add\n        /* \"contracts/BusinessConsensus.sol\":2079:2089  expiryDate */\n      sload(0x01)\n        /* \"contracts/BusinessConsensus.sol\":2090:2099  initiator */\n      0x03\n      0x00\n      swap1\n      sload\n      swap1\n      0x0100\n      exp\n      swap1\n      div\n      0xffffffffffffffffffffffffffffffffffffffff\n      and\n        /* \"contracts/BusinessConsensus.sol\":2100:2119  BusinessRequirement */\n      sload(0x04)\n        /* \"contracts/BusinessConsensus.sol\":2120:2132  numApprovals */\n      sload(0x06)\n        /* \"contracts/BusinessConsensus.sol\":2052:2133  return (proposal.messageID,expiryDate,initiator,BusinessRequirement,numApprovals) */\n      dup5\n      dup1\n      sload\n      tag_161\n      swap1\n      tag_101\n      jump\t// in\n    tag_161:\n      dup1\n      0x1f\n      add\n      0x20\n      dup1\n      swap2\n      div\n      mul\n      0x20\n      add\n      mload(0x40)\n      swap1\n      dup2\n      add\n      0x40\n      mstore\n      dup1\n      swap3\n      swap2\n      swap1\n      dup2\n      dup2\n      mstore\n      0x20\n      add\n      dup3\n      dup1\n      sload\n      tag_162\n      swap1\n      tag_101\n      jump\t// in\n    tag_162:\n      dup1\n      iszero\n      tag_163\n      jumpi\n      dup1\n      0x1f\n      lt\n      tag_164\n      jumpi\n      0x0100\n      dup1\n      dup4\n      sload\n      div\n      mul\n      dup4\n      mstore\n      swap2\n      0x20\n      add\n      swap2\n      jump(tag_163)\n    tag_164:\n      dup3\n      add\n      swap2\n      swap1\n      0x00\n      mstore\n      keccak256(0x00, 0x20)\n      swap1\n    tag_165:\n      dup2\n      sload\n      dup2\n      mstore\n      swap1\n      0x01\n      add\n      swap1\n      0x20\n      add\n      dup1\n      dup4\n      gt\n      tag_165\n      jumpi\n      dup3\n      swap1\n      sub\n      0x1f\n      and\n      dup3\n      add\n      swap2\n    tag_163:\n      pop\n      pop\n      pop\n      pop\n      pop\n      swap5\n      pop\n      swap5\n      pop\n      swap5\n      pop\n      swap5\n      pop\n      swap5\n      pop\n      swap5\n      pop\n        /* \"contracts/BusinessConsensus.sol\":1953:2141  function getParameters() public view returns (string memory, uint , address ,uint ,uint){... */\n      swap1\n      swap2\n      swap3\n      swap4\n      swap5\n      jump\t// out\n        /* \"contracts/BusinessConsensus.sol\":1008:1034  uint public numberCompiled */\n    tag_71:\n      sload(0x07)\n      dup2\n      jump\t// out\n        /* \"contracts/BusinessConsensus.sol\":897:928  uint public BusinessRequirement */\n    tag_74:\n      sload(0x04)\n      dup2\n      jump\t// out\n        /* \"contracts/BusinessConsensus.sol\":1043:1064  Voter[] public voters */\n    tag_78:\n      0x08\n      dup2\n      dup2\n      sload\n      dup2\n      lt\n      tag_166\n      jumpi\n      0x00\n      dup1\n      revert\n    tag_166:\n      swap1\n      0x00\n      mstore\n      keccak256(0x00, 0x20)\n      add\n      0x00\n      swap2\n      pop\n      swap1\n      pop\n      dup1\n      0x00\n      add\n      0x00\n      swap1\n      sload\n      swap1\n      0x0100\n      exp\n      swap1\n      div\n      0xff\n      and\n      swap1\n      dup1\n      0x00\n      add\n      0x01\n      swap1\n      sload\n      swap1\n      0x0100\n      exp\n      swap1\n      div\n      0xffffffffffffffffffffffffffffffffffffffff\n      and\n      swap1\n      dup1\n      0x00\n      add\n      0x15\n      swap1\n      sload\n      swap1\n      0x0100\n      exp\n      swap1\n      div\n      0xff\n      and\n      swap1\n      pop\n      dup4\n      jump\t// out\n        /* \"contracts/BusinessConsensus.sol\":596:626  address public contractAddress */\n    tag_81:\n      0x00\n      dup1\n      sload\n      swap1\n      0x0100\n      exp\n      swap1\n      div\n      0xffffffffffffffffffffffffffffffffffffffff\n      and\n      dup2\n      jump\t// out\n        /* \"#utility.yul\":7:82   */\n    tag_168:\n        /* \"#utility.yul\":40:46   */\n      0x00\n        /* \"#utility.yul\":73:75   */\n      0x40\n        /* \"#utility.yul\":67:76   */\n      mload\n        /* \"#utility.yul\":57:76   */\n      swap1\n      pop\n        /* \"#utility.yul\":7:82   */\n      swap1\n      jump\t// out\n        /* \"#utility.yul\":88:205   */\n    tag_169:\n        /* \"#utility.yul\":197:198   */\n      0x00\n        /* \"#utility.yul\":194:195   */\n      dup1\n        /* \"#utility.yul\":187:199   */\n      revert\n        /* \"#utility.yul\":211:328   */\n    tag_170:\n        /* \"#utility.yul\":320:321   */\n      0x00\n        /* \"#utility.yul\":317:318   */\n      dup1\n        /* \"#utility.yul\":310:322   */\n      revert\n        /* \"#utility.yul\":334:411   */\n    tag_171:\n        /* \"#utility.yul\":371:378   */\n      0x00\n        /* \"#utility.yul\":400:405   */\n      dup2\n        /* \"#utility.yul\":389:405   */\n      swap1\n      pop\n        /* \"#utility.yul\":334:411   */\n      swap2\n      swap1\n      pop\n      jump\t// out\n        /* \"#utility.yul\":417:539   */\n    tag_172:\n        /* \"#utility.yul\":490:514   */\n      tag_239\n        /* \"#utility.yul\":508:513   */\n      dup2\n        /* \"#utility.yul\":490:514   */\n      tag_171\n      jump\t// in\n    tag_239:\n        /* \"#utility.yul\":483:488   */\n      dup2\n        /* \"#utility.yul\":480:515   */\n      eq\n        /* \"#utility.yul\":470:533   */\n      tag_240\n      jumpi\n        /* \"#utility.yul\":529:530   */\n      0x00\n        /* \"#utility.yul\":526:527   */\n      dup1\n        /* \"#utility.yul\":519:531   */\n      revert\n        /* \"#utility.yul\":470:533   */\n    tag_240:\n        /* \"#utility.yul\":417:539   */\n      pop\n      jump\t// out\n        /* \"#utility.yul\":545:684   */\n    tag_173:\n        /* \"#utility.yul\":591:596   */\n      0x00\n        /* \"#utility.yul\":629:635   */\n      dup2\n        /* \"#utility.yul\":616:636   */\n      calldataload\n        /* \"#utility.yul\":607:636   */\n      swap1\n      pop\n        /* \"#utility.yul\":645:678   */\n      tag_242\n        /* \"#utility.yul\":672:677   */\n      dup2\n        /* \"#utility.yul\":645:678   */\n      tag_172\n      jump\t// in\n    tag_242:\n        /* \"#utility.yul\":545:684   */\n      swap3\n      swap2\n      pop\n      pop\n      jump\t// out\n        /* \"#utility.yul\":690:1019   */\n    tag_24:\n        /* \"#utility.yul\":749:755   */\n      0x00\n        /* \"#utility.yul\":798:800   */\n      0x20\n        /* \"#utility.yul\":786:795   */\n      dup3\n        /* \"#utility.yul\":777:784   */\n      dup5\n        /* \"#utility.yul\":773:796   */\n      sub\n        /* \"#utility.yul\":769:801   */\n      slt\n        /* \"#utility.yul\":766:885   */\n      iszero\n      tag_244\n      jumpi\n        /* \"#utility.yul\":804:883   */\n      tag_245\n      tag_169\n      jump\t// in\n    tag_245:\n        /* \"#utility.yul\":766:885   */\n    tag_244:\n        /* \"#utility.yul\":924:925   */\n      0x00\n        /* \"#utility.yul\":949:1002   */\n      tag_246\n        /* \"#utility.yul\":994:1001   */\n      dup5\n        /* \"#utility.yul\":985:991   */\n      dup3\n        /* \"#utility.yul\":974:983   */\n      dup6\n        /* \"#utility.yul\":970:992   */\n      add\n        /* \"#utility.yul\":949:1002   */\n      tag_173\n      jump\t// in\n    tag_246:\n        /* \"#utility.yul\":939:1002   */\n      swap2\n      pop\n        /* \"#utility.yul\":895:1012   */\n      pop\n        /* \"#utility.yul\":690:1019   */\n      swap3\n      swap2\n      pop\n      pop\n      jump\t// out\n        /* \"#utility.yul\":1025:1151   */\n    tag_174:\n        /* \"#utility.yul\":1062:1069   */\n      0x00\n        /* \"#utility.yul\":1102:1144   */\n      0xffffffffffffffffffffffffffffffffffffffff\n        /* \"#utility.yul\":1095:1100   */\n      dup3\n        /* \"#utility.yul\":1091:1145   */\n      and\n        /* \"#utility.yul\":1080:1145   */\n      swap1\n      pop\n        /* \"#utility.yul\":1025:1151   */\n      swap2\n      swap1\n      pop\n      jump\t// out\n        /* \"#utility.yul\":1157:1253   */\n    tag_175:\n        /* \"#utility.yul\":1194:1201   */\n      0x00\n        /* \"#utility.yul\":1223:1247   */\n      tag_249\n        /* \"#utility.yul\":1241:1246   */\n      dup3\n        /* \"#utility.yul\":1223:1247   */\n      tag_174\n      jump\t// in\n    tag_249:\n        /* \"#utility.yul\":1212:1247   */\n      swap1\n      pop\n        /* \"#utility.yul\":1157:1253   */\n      swap2\n      swap1\n      pop\n      jump\t// out\n        /* \"#utility.yul\":1259:1377   */\n    tag_176:\n        /* \"#utility.yul\":1346:1370   */\n      tag_251\n        /* \"#utility.yul\":1364:1369   */\n      dup2\n        /* \"#utility.yul\":1346:1370   */\n      tag_175\n      jump\t// in\n    tag_251:\n        /* \"#utility.yul\":1341:1344   */\n      dup3\n        /* \"#utility.yul\":1334:1371   */\n      mstore\n        /* \"#utility.yul\":1259:1377   */\n      pop\n      pop\n      jump\t// out\n        /* \"#utility.yul\":1383:1605   */\n    tag_27:\n        /* \"#utility.yul\":1476:1480   */\n      0x00\n        /* \"#utility.yul\":1514:1516   */\n      0x20\n        /* \"#utility.yul\":1503:1512   */\n      dup3\n        /* \"#utility.yul\":1499:1517   */\n      add\n        /* \"#utility.yul\":1491:1517   */\n      swap1\n      pop\n        /* \"#utility.yul\":1527:1598   */\n      tag_253\n        /* \"#utility.yul\":1595:1596   */\n      0x00\n        /* \"#utility.yul\":1584:1593   */\n      dup4\n        /* \"#utility.yul\":1580:1597   */\n      add\n        /* \"#utility.yul\":1571:1577   */\n      dup5\n        /* \"#utility.yul\":1527:1598   */\n      tag_176\n      jump\t// in\n    tag_253:\n        /* \"#utility.yul\":1383:1605   */\n      swap3\n      swap2\n      pop\n      pop\n      jump\t// out\n        /* \"#utility.yul\":1611:1733   */\n    tag_177:\n        /* \"#utility.yul\":1684:1708   */\n      tag_255\n        /* \"#utility.yul\":1702:1707   */\n      dup2\n        /* \"#utility.yul\":1684:1708   */\n      tag_175\n      jump\t// in\n    tag_255:\n        /* \"#utility.yul\":1677:1682   */\n      dup2\n        /* \"#utility.yul\":1674:1709   */\n      eq\n        /* \"#utility.yul\":1664:1727   */\n      tag_256\n      jumpi\n        /* \"#utility.yul\":1723:1724   */\n      0x00\n        /* \"#utility.yul\":1720:1721   */\n      dup1\n        /* \"#utility.yul\":1713:1725   */\n      revert\n        /* \"#utility.yul\":1664:1727   */\n    tag_256:\n        /* \"#utility.yul\":1611:1733   */\n      pop\n      jump\t// out\n        /* \"#utility.yul\":1739:1878   */\n    tag_178:\n        /* \"#utility.yul\":1785:1790   */\n      0x00\n        /* \"#utility.yul\":1823:1829   */\n      dup2\n        /* \"#utility.yul\":1810:1830   */\n      calldataload\n        /* \"#utility.yul\":1801:1830   */\n      swap1\n      pop\n        /* \"#utility.yul\":1839:1872   */\n      tag_258\n        /* \"#utility.yul\":1866:1871   */\n      dup2\n        /* \"#utility.yul\":1839:1872   */\n      tag_177\n      jump\t// in\n    tag_258:\n        /* \"#utility.yul\":1739:1878   */\n      swap3\n      swap2\n      pop\n      pop\n      jump\t// out\n        /* \"#utility.yul\":1884:2213   */\n    tag_30:\n        /* \"#utility.yul\":1943:1949   */\n      0x00\n        /* \"#utility.yul\":1992:1994   */\n      0x20\n        /* \"#utility.yul\":1980:1989   */\n      dup3\n        /* \"#utility.yul\":1971:1978   */\n      dup5\n        /* \"#utility.yul\":1967:1990   */\n      sub\n        /* \"#utility.yul\":1963:1995   */\n      slt\n        /* \"#utility.yul\":1960:2079   */\n      iszero\n      tag_260\n      jumpi\n        /* \"#utility.yul\":1998:2077   */\n      tag_261\n      tag_169\n      jump\t// in\n    tag_261:\n        /* \"#utility.yul\":1960:2079   */\n    tag_260:\n        /* \"#utility.yul\":2118:2119   */\n      0x00\n        /* \"#utility.yul\":2143:2196   */\n      tag_262\n        /* \"#utility.yul\":2188:2195   */\n      dup5\n        /* \"#utility.yul\":2179:2185   */\n      dup3\n        /* \"#utility.yul\":2168:2177   */\n      dup6\n        /* \"#utility.yul\":2164:2186   */\n      add\n        /* \"#utility.yul\":2143:2196   */\n      tag_178\n      jump\t// in\n    tag_262:\n        /* \"#utility.yul\":2133:2196   */\n      swap2\n      pop\n        /* \"#utility.yul\":2089:2206   */\n      pop\n        /* \"#utility.yul\":1884:2213   */\n      swap3\n      swap2\n      pop\n      pop\n      jump\t// out\n        /* \"#utility.yul\":2219:2318   */\n    tag_179:\n        /* \"#utility.yul\":2271:2277   */\n      0x00\n        /* \"#utility.yul\":2305:2310   */\n      dup2\n        /* \"#utility.yul\":2299:2311   */\n      mload\n        /* \"#utility.yul\":2289:2311   */\n      swap1\n      pop\n        /* \"#utility.yul\":2219:2318   */\n      swap2\n      swap1\n      pop\n      jump\t// out\n        /* \"#utility.yul\":2324:2493   */\n    tag_180:\n        /* \"#utility.yul\":2408:2419   */\n      0x00\n        /* \"#utility.yul\":2442:2448   */\n      dup3\n        /* \"#utility.yul\":2437:2440   */\n      dup3\n        /* \"#utility.yul\":2430:2449   */\n      mstore\n        /* \"#utility.yul\":2482:2486   */\n      0x20\n        /* \"#utility.yul\":2477:2480   */\n      dup3\n        /* \"#utility.yul\":2473:2487   */\n      add\n        /* \"#utility.yul\":2458:2487   */\n      swap1\n      pop\n        /* \"#utility.yul\":2324:2493   */\n      swap3\n      swap2\n      pop\n      pop\n      jump\t// out\n        /* \"#utility.yul\":2499:2806   */\n    tag_181:\n        /* \"#utility.yul\":2567:2568   */\n      0x00\n        /* \"#utility.yul\":2577:2690   */\n    tag_266:\n        /* \"#utility.yul\":2591:2597   */\n      dup4\n        /* \"#utility.yul\":2588:2589   */\n      dup2\n        /* \"#utility.yul\":2585:2598   */\n      lt\n        /* \"#utility.yul\":2577:2690   */\n      iszero\n      tag_268\n      jumpi\n        /* \"#utility.yul\":2676:2677   */\n      dup1\n        /* \"#utility.yul\":2671:2674   */\n      dup3\n        /* \"#utility.yul\":2667:2678   */\n      add\n        /* \"#utility.yul\":2661:2679   */\n      mload\n        /* \"#utility.yul\":2657:2658   */\n      dup2\n        /* \"#utility.yul\":2652:2655   */\n      dup5\n        /* \"#utility.yul\":2648:2659   */\n      add\n        /* \"#utility.yul\":2641:2680   */\n      mstore\n        /* \"#utility.yul\":2613:2615   */\n      0x20\n        /* \"#utility.yul\":2610:2611   */\n      dup2\n        /* \"#utility.yul\":2606:2616   */\n      add\n        /* \"#utility.yul\":2601:2616   */\n      swap1\n      pop\n        /* \"#utility.yul\":2577:2690   */\n      jump(tag_266)\n    tag_268:\n        /* \"#utility.yul\":2708:2714   */\n      dup4\n        /* \"#utility.yul\":2705:2706   */\n      dup2\n        /* \"#utility.yul\":2702:2715   */\n      gt\n        /* \"#utility.yul\":2699:2800   */\n      iszero\n      tag_269\n      jumpi\n        /* \"#utility.yul\":2788:2789   */\n      0x00\n        /* \"#utility.yul\":2779:2785   */\n      dup5\n        /* \"#utility.yul\":2774:2777   */\n      dup5\n        /* \"#utility.yul\":2770:2786   */\n      add\n        /* \"#utility.yul\":2763:2790   */\n      mstore\n        /* \"#utility.yul\":2699:2800   */\n    tag_269:\n        /* \"#utility.yul\":2548:2806   */\n      pop\n        /* \"#utility.yul\":2499:2806   */\n      pop\n      pop\n      pop\n      jump\t// out\n        /* \"#utility.yul\":2812:2914   */\n    tag_182:\n        /* \"#utility.yul\":2853:2859   */\n      0x00\n        /* \"#utility.yul\":2904:2906   */\n      0x1f\n        /* \"#utility.yul\":2900:2907   */\n      not\n        /* \"#utility.yul\":2895:2897   */\n      0x1f\n        /* \"#utility.yul\":2888:2893   */\n      dup4\n        /* \"#utility.yul\":2884:2898   */\n      add\n        /* \"#utility.yul\":2880:2908   */\n      and\n        /* \"#utility.yul\":2870:2908   */\n      swap1\n      pop\n        /* \"#utility.yul\":2812:2914   */\n      swap2\n      swap1\n      pop\n      jump\t// out\n        /* \"#utility.yul\":2920:3284   */\n    tag_183:\n        /* \"#utility.yul\":3008:3011   */\n      0x00\n        /* \"#utility.yul\":3036:3075   */\n      tag_272\n        /* \"#utility.yul\":3069:3074   */\n      dup3\n        /* \"#utility.yul\":3036:3075   */\n      tag_179\n      jump\t// in\n    tag_272:\n        /* \"#utility.yul\":3091:3162   */\n      tag_273\n        /* \"#utility.yul\":3155:3161   */\n      dup2\n        /* \"#utility.yul\":3150:3153   */\n      dup6\n        /* \"#utility.yul\":3091:3162   */\n      tag_180\n      jump\t// in\n    tag_273:\n        /* \"#utility.yul\":3084:3162   */\n      swap4\n      pop\n        /* \"#utility.yul\":3171:3223   */\n      tag_274\n        /* \"#utility.yul\":3216:3222   */\n      dup2\n        /* \"#utility.yul\":3211:3214   */\n      dup6\n        /* \"#utility.yul\":3204:3208   */\n      0x20\n        /* \"#utility.yul\":3197:3202   */\n      dup7\n        /* \"#utility.yul\":3193:3209   */\n      add\n        /* \"#utility.yul\":3171:3223   */\n      tag_181\n      jump\t// in\n    tag_274:\n        /* \"#utility.yul\":3248:3277   */\n      tag_275\n        /* \"#utility.yul\":3270:3276   */\n      dup2\n        /* \"#utility.yul\":3248:3277   */\n      tag_182\n      jump\t// in\n    tag_275:\n        /* \"#utility.yul\":3243:3246   */\n      dup5\n        /* \"#utility.yul\":3239:3278   */\n      add\n        /* \"#utility.yul\":3232:3278   */\n      swap2\n      pop\n        /* \"#utility.yul\":3012:3284   */\n      pop\n        /* \"#utility.yul\":2920:3284   */\n      swap3\n      swap2\n      pop\n      pop\n      jump\t// out\n        /* \"#utility.yul\":3290:3603   */\n    tag_35:\n        /* \"#utility.yul\":3403:3407   */\n      0x00\n        /* \"#utility.yul\":3441:3443   */\n      0x20\n        /* \"#utility.yul\":3430:3439   */\n      dup3\n        /* \"#utility.yul\":3426:3444   */\n      add\n        /* \"#utility.yul\":3418:3444   */\n      swap1\n      pop\n        /* \"#utility.yul\":3490:3499   */\n      dup2\n        /* \"#utility.yul\":3484:3488   */\n      dup2\n        /* \"#utility.yul\":3480:3500   */\n      sub\n        /* \"#utility.yul\":3476:3477   */\n      0x00\n        /* \"#utility.yul\":3465:3474   */\n      dup4\n        /* \"#utility.yul\":3461:3478   */\n      add\n        /* \"#utility.yul\":3454:3501   */\n      mstore\n        /* \"#utility.yul\":3518:3596   */\n      tag_277\n        /* \"#utility.yul\":3591:3595   */\n      dup2\n        /* \"#utility.yul\":3582:3588   */\n      dup5\n        /* \"#utility.yul\":3518:3596   */\n      tag_183\n      jump\t// in\n    tag_277:\n        /* \"#utility.yul\":3510:3596   */\n      swap1\n      pop\n        /* \"#utility.yul\":3290:3603   */\n      swap3\n      swap2\n      pop\n      pop\n      jump\t// out\n        /* \"#utility.yul\":3609:3726   */\n    tag_184:\n        /* \"#utility.yul\":3718:3719   */\n      0x00\n        /* \"#utility.yul\":3715:3716   */\n      dup1\n        /* \"#utility.yul\":3708:3720   */\n      revert\n        /* \"#utility.yul\":3732:3849   */\n    tag_185:\n        /* \"#utility.yul\":3841:3842   */\n      0x00\n        /* \"#utility.yul\":3838:3839   */\n      dup1\n        /* \"#utility.yul\":3831:3843   */\n      revert\n        /* \"#utility.yul\":3855:4035   */\n    tag_186:\n        /* \"#utility.yul\":3903:3980   */\n      0x4e487b7100000000000000000000000000000000000000000000000000000000\n        /* \"#utility.yul\":3900:3901   */\n      0x00\n        /* \"#utility.yul\":3893:3981   */\n      mstore\n        /* \"#utility.yul\":4000:4004   */\n      0x41\n        /* \"#utility.yul\":3997:3998   */\n      0x04\n        /* \"#utility.yul\":3990:4005   */\n      mstore\n        /* \"#utility.yul\":4024:4028   */\n      0x24\n        /* \"#utility.yul\":4021:4022   */\n      0x00\n        /* \"#utility.yul\":4014:4029   */\n      revert\n        /* \"#utility.yul\":4041:4322   */\n    tag_187:\n        /* \"#utility.yul\":4124:4151   */\n      tag_282\n        /* \"#utility.yul\":4146:4150   */\n      dup3\n        /* \"#utility.yul\":4124:4151   */\n      tag_182\n      jump\t// in\n    tag_282:\n        /* \"#utility.yul\":4116:4122   */\n      dup2\n        /* \"#utility.yul\":4112:4152   */\n      add\n        /* \"#utility.yul\":4254:4260   */\n      dup2\n        /* \"#utility.yul\":4242:4252   */\n      dup2\n        /* \"#utility.yul\":4239:4261   */\n      lt\n        /* \"#utility.yul\":4218:4236   */\n      0xffffffffffffffff\n        /* \"#utility.yul\":4206:4216   */\n      dup3\n        /* \"#utility.yul\":4203:4237   */\n      gt\n        /* \"#utility.yul\":4200:4262   */\n      or\n        /* \"#utility.yul\":4197:4285   */\n      iszero\n      tag_283\n      jumpi\n        /* \"#utility.yul\":4265:4283   */\n      tag_284\n      tag_186\n      jump\t// in\n    tag_284:\n        /* \"#utility.yul\":4197:4285   */\n    tag_283:\n        /* \"#utility.yul\":4305:4315   */\n      dup1\n        /* \"#utility.yul\":4301:4303   */\n      0x40\n        /* \"#utility.yul\":4294:4316   */\n      mstore\n        /* \"#utility.yul\":4084:4322   */\n      pop\n        /* \"#utility.yul\":4041:4322   */\n      pop\n      pop\n      jump\t// out\n        /* \"#utility.yul\":4328:4457   */\n    tag_188:\n        /* \"#utility.yul\":4362:4368   */\n      0x00\n        /* \"#utility.yul\":4389:4409   */\n      tag_286\n      tag_168\n      jump\t// in\n    tag_286:\n        /* \"#utility.yul\":4379:4409   */\n      swap1\n      pop\n        /* \"#utility.yul\":4418:4451   */\n      tag_287\n        /* \"#utility.yul\":4446:4450   */\n      dup3\n        /* \"#utility.yul\":4438:4444   */\n      dup3\n        /* \"#utility.yul\":4418:4451   */\n      tag_187\n      jump\t// in\n    tag_287:\n        /* \"#utility.yul\":4328:4457   */\n      swap2\n      swap1\n      pop\n      jump\t// out\n        /* \"#utility.yul\":4463:4771   */\n    tag_189:\n        /* \"#utility.yul\":4525:4529   */\n      0x00\n        /* \"#utility.yul\":4615:4633   */\n      0xffffffffffffffff\n        /* \"#utility.yul\":4607:4613   */\n      dup3\n        /* \"#utility.yul\":4604:4634   */\n      gt\n        /* \"#utility.yul\":4601:4657   */\n      iszero\n      tag_289\n      jumpi\n        /* \"#utility.yul\":4637:4655   */\n      tag_290\n      tag_186\n      jump\t// in\n    tag_290:\n        /* \"#utility.yul\":4601:4657   */\n    tag_289:\n        /* \"#utility.yul\":4675:4704   */\n      tag_291\n        /* \"#utility.yul\":4697:4703   */\n      dup3\n        /* \"#utility.yul\":4675:4704   */\n      tag_182\n      jump\t// in\n    tag_291:\n        /* \"#utility.yul\":4667:4704   */\n      swap1\n      pop\n        /* \"#utility.yul\":4759:4763   */\n      0x20\n        /* \"#utility.yul\":4753:4757   */\n      dup2\n        /* \"#utility.yul\":4749:4764   */\n      add\n        /* \"#utility.yul\":4741:4764   */\n      swap1\n      pop\n        /* \"#utility.yul\":4463:4771   */\n      swap2\n      swap1\n      pop\n      jump\t// out\n        /* \"#utility.yul\":4777:4931   */\n    tag_190:\n        /* \"#utility.yul\":4861:4867   */\n      dup3\n        /* \"#utility.yul\":4856:4859   */\n      dup2\n        /* \"#utility.yul\":4851:4854   */\n      dup4\n        /* \"#utility.yul\":4838:4868   */\n      calldatacopy\n        /* \"#utility.yul\":4923:4924   */\n      0x00\n        /* \"#utility.yul\":4914:4920   */\n      dup4\n        /* \"#utility.yul\":4909:4912   */\n      dup4\n        /* \"#utility.yul\":4905:4921   */\n      add\n        /* \"#utility.yul\":4898:4925   */\n      mstore\n        /* \"#utility.yul\":4777:4931   */\n      pop\n      pop\n      pop\n      jump\t// out\n        /* \"#utility.yul\":4937:5349   */\n    tag_191:\n        /* \"#utility.yul\":5015:5020   */\n      0x00\n        /* \"#utility.yul\":5040:5106   */\n      tag_294\n        /* \"#utility.yul\":5056:5105   */\n      tag_295\n        /* \"#utility.yul\":5098:5104   */\n      dup5\n        /* \"#utility.yul\":5056:5105   */\n      tag_189\n      jump\t// in\n    tag_295:\n        /* \"#utility.yul\":5040:5106   */\n      tag_188\n      jump\t// in\n    tag_294:\n        /* \"#utility.yul\":5031:5106   */\n      swap1\n      pop\n        /* \"#utility.yul\":5129:5135   */\n      dup3\n        /* \"#utility.yul\":5122:5127   */\n      dup2\n        /* \"#utility.yul\":5115:5136   */\n      mstore\n        /* \"#utility.yul\":5167:5171   */\n      0x20\n        /* \"#utility.yul\":5160:5165   */\n      dup2\n        /* \"#utility.yul\":5156:5172   */\n      add\n        /* \"#utility.yul\":5205:5208   */\n      dup5\n        /* \"#utility.yul\":5196:5202   */\n      dup5\n        /* \"#utility.yul\":5191:5194   */\n      dup5\n        /* \"#utility.yul\":5187:5203   */\n      add\n        /* \"#utility.yul\":5184:5209   */\n      gt\n        /* \"#utility.yul\":5181:5293   */\n      iszero\n      tag_296\n      jumpi\n        /* \"#utility.yul\":5212:5291   */\n      tag_297\n      tag_185\n      jump\t// in\n    tag_297:\n        /* \"#utility.yul\":5181:5293   */\n    tag_296:\n        /* \"#utility.yul\":5302:5343   */\n      tag_298\n        /* \"#utility.yul\":5336:5342   */\n      dup5\n        /* \"#utility.yul\":5331:5334   */\n      dup3\n        /* \"#utility.yul\":5326:5329   */\n      dup6\n        /* \"#utility.yul\":5302:5343   */\n      tag_190\n      jump\t// in\n    tag_298:\n        /* \"#utility.yul\":5021:5349   */\n      pop\n        /* \"#utility.yul\":4937:5349   */\n      swap4\n      swap3\n      pop\n      pop\n      pop\n      jump\t// out\n        /* \"#utility.yul\":5369:5709   */\n    tag_192:\n        /* \"#utility.yul\":5425:5430   */\n      0x00\n        /* \"#utility.yul\":5474:5477   */\n      dup3\n        /* \"#utility.yul\":5467:5471   */\n      0x1f\n        /* \"#utility.yul\":5459:5465   */\n      dup4\n        /* \"#utility.yul\":5455:5472   */\n      add\n        /* \"#utility.yul\":5451:5478   */\n      slt\n        /* \"#utility.yul\":5441:5563   */\n      tag_300\n      jumpi\n        /* \"#utility.yul\":5482:5561   */\n      tag_301\n      tag_184\n      jump\t// in\n    tag_301:\n        /* \"#utility.yul\":5441:5563   */\n    tag_300:\n        /* \"#utility.yul\":5599:5605   */\n      dup2\n        /* \"#utility.yul\":5586:5606   */\n      calldataload\n        /* \"#utility.yul\":5624:5703   */\n      tag_302\n        /* \"#utility.yul\":5699:5702   */\n      dup5\n        /* \"#utility.yul\":5691:5697   */\n      dup3\n        /* \"#utility.yul\":5684:5688   */\n      0x20\n        /* \"#utility.yul\":5676:5682   */\n      dup7\n        /* \"#utility.yul\":5672:5689   */\n      add\n        /* \"#utility.yul\":5624:5703   */\n      tag_191\n      jump\t// in\n    tag_302:\n        /* \"#utility.yul\":5615:5703   */\n      swap2\n      pop\n        /* \"#utility.yul\":5431:5709   */\n      pop\n        /* \"#utility.yul\":5369:5709   */\n      swap3\n      swap2\n      pop\n      pop\n      jump\t// out\n        /* \"#utility.yul\":5715:6224   */\n    tag_38:\n        /* \"#utility.yul\":5784:5790   */\n      0x00\n        /* \"#utility.yul\":5833:5835   */\n      0x20\n        /* \"#utility.yul\":5821:5830   */\n      dup3\n        /* \"#utility.yul\":5812:5819   */\n      dup5\n        /* \"#utility.yul\":5808:5831   */\n      sub\n        /* \"#utility.yul\":5804:5836   */\n      slt\n        /* \"#utility.yul\":5801:5920   */\n      iszero\n      tag_304\n      jumpi\n        /* \"#utility.yul\":5839:5918   */\n      tag_305\n      tag_169\n      jump\t// in\n    tag_305:\n        /* \"#utility.yul\":5801:5920   */\n    tag_304:\n        /* \"#utility.yul\":5987:5988   */\n      0x00\n        /* \"#utility.yul\":5976:5985   */\n      dup3\n        /* \"#utility.yul\":5972:5989   */\n      add\n        /* \"#utility.yul\":5959:5990   */\n      calldataload\n        /* \"#utility.yul\":6017:6035   */\n      0xffffffffffffffff\n        /* \"#utility.yul\":6009:6015   */\n      dup2\n        /* \"#utility.yul\":6006:6036   */\n      gt\n        /* \"#utility.yul\":6003:6120   */\n      iszero\n      tag_306\n      jumpi\n        /* \"#utility.yul\":6039:6118   */\n      tag_307\n      tag_170\n      jump\t// in\n    tag_307:\n        /* \"#utility.yul\":6003:6120   */\n    tag_306:\n        /* \"#utility.yul\":6144:6207   */\n      tag_308\n        /* \"#utility.yul\":6199:6206   */\n      dup5\n        /* \"#utility.yul\":6190:6196   */\n      dup3\n        /* \"#utility.yul\":6179:6188   */\n      dup6\n        /* \"#utility.yul\":6175:6197   */\n      add\n        /* \"#utility.yul\":6144:6207   */\n      tag_192\n      jump\t// in\n    tag_308:\n        /* \"#utility.yul\":6134:6207   */\n      swap2\n      pop\n        /* \"#utility.yul\":5930:6217   */\n      pop\n        /* \"#utility.yul\":5715:6224   */\n      swap3\n      swap2\n      pop\n      pop\n      jump\t// out\n        /* \"#utility.yul\":6230:6320   */\n    tag_193:\n        /* \"#utility.yul\":6264:6271   */\n      0x00\n        /* \"#utility.yul\":6307:6312   */\n      dup2\n        /* \"#utility.yul\":6300:6313   */\n      iszero\n        /* \"#utility.yul\":6293:6314   */\n      iszero\n        /* \"#utility.yul\":6282:6314   */\n      swap1\n      pop\n        /* \"#utility.yul\":6230:6320   */\n      swap2\n      swap1\n      pop\n      jump\t// out\n        /* \"#utility.yul\":6326:6435   */\n    tag_194:\n        /* \"#utility.yul\":6407:6428   */\n      tag_311\n        /* \"#utility.yul\":6422:6427   */\n      dup2\n        /* \"#utility.yul\":6407:6428   */\n      tag_193\n      jump\t// in\n    tag_311:\n        /* \"#utility.yul\":6402:6405   */\n      dup3\n        /* \"#utility.yul\":6395:6429   */\n      mstore\n        /* \"#utility.yul\":6326:6435   */\n      pop\n      pop\n      jump\t// out\n        /* \"#utility.yul\":6441:6859   */\n    tag_44:\n        /* \"#utility.yul\":6578:6582   */\n      0x00\n        /* \"#utility.yul\":6616:6618   */\n      0x60\n        /* \"#utility.yul\":6605:6614   */\n      dup3\n        /* \"#utility.yul\":6601:6619   */\n      add\n        /* \"#utility.yul\":6593:6619   */\n      swap1\n      pop\n        /* \"#utility.yul\":6629:6694   */\n      tag_313\n        /* \"#utility.yul\":6691:6692   */\n      0x00\n        /* \"#utility.yul\":6680:6689   */\n      dup4\n        /* \"#utility.yul\":6676:6693   */\n      add\n        /* \"#utility.yul\":6667:6673   */\n      dup7\n        /* \"#utility.yul\":6629:6694   */\n      tag_194\n      jump\t// in\n    tag_313:\n        /* \"#utility.yul\":6704:6770   */\n      tag_314\n        /* \"#utility.yul\":6766:6768   */\n      0x20\n        /* \"#utility.yul\":6755:6764   */\n      dup4\n        /* \"#utility.yul\":6751:6769   */\n      add\n        /* \"#utility.yul\":6742:6748   */\n      dup6\n        /* \"#utility.yul\":6704:6770   */\n      tag_194\n      jump\t// in\n    tag_314:\n        /* \"#utility.yul\":6780:6852   */\n      tag_315\n        /* \"#utility.yul\":6848:6850   */\n      0x40\n        /* \"#utility.yul\":6837:6846   */\n      dup4\n        /* \"#utility.yul\":6833:6851   */\n      add\n        /* \"#utility.yul\":6824:6830   */\n      dup5\n        /* \"#utility.yul\":6780:6852   */\n      tag_176\n      jump\t// in\n    tag_315:\n        /* \"#utility.yul\":6441:6859   */\n      swap5\n      swap4\n      pop\n      pop\n      pop\n      pop\n      jump\t// out\n        /* \"#utility.yul\":6865:6983   */\n    tag_195:\n        /* \"#utility.yul\":6952:6976   */\n      tag_317\n        /* \"#utility.yul\":6970:6975   */\n      dup2\n        /* \"#utility.yul\":6952:6976   */\n      tag_171\n      jump\t// in\n    tag_317:\n        /* \"#utility.yul\":6947:6950   */\n      dup3\n        /* \"#utility.yul\":6940:6977   */\n      mstore\n        /* \"#utility.yul\":6865:6983   */\n      pop\n      pop\n      jump\t// out\n        /* \"#utility.yul\":6989:7211   */\n    tag_51:\n        /* \"#utility.yul\":7082:7086   */\n      0x00\n        /* \"#utility.yul\":7120:7122   */\n      0x20\n        /* \"#utility.yul\":7109:7118   */\n      dup3\n        /* \"#utility.yul\":7105:7123   */\n      add\n        /* \"#utility.yul\":7097:7123   */\n      swap1\n      pop\n        /* \"#utility.yul\":7133:7204   */\n      tag_319\n        /* \"#utility.yul\":7201:7202   */\n      0x00\n        /* \"#utility.yul\":7190:7199   */\n      dup4\n        /* \"#utility.yul\":7186:7203   */\n      add\n        /* \"#utility.yul\":7177:7183   */\n      dup5\n        /* \"#utility.yul\":7133:7204   */\n      tag_195\n      jump\t// in\n    tag_319:\n        /* \"#utility.yul\":6989:7211   */\n      swap3\n      swap2\n      pop\n      pop\n      jump\t// out\n        /* \"#utility.yul\":7217:7640   */\n    tag_58:\n        /* \"#utility.yul\":7358:7362   */\n      0x00\n        /* \"#utility.yul\":7396:7398   */\n      0x40\n        /* \"#utility.yul\":7385:7394   */\n      dup3\n        /* \"#utility.yul\":7381:7399   */\n      add\n        /* \"#utility.yul\":7373:7399   */\n      swap1\n      pop\n        /* \"#utility.yul\":7409:7480   */\n      tag_321\n        /* \"#utility.yul\":7477:7478   */\n      0x00\n        /* \"#utility.yul\":7466:7475   */\n      dup4\n        /* \"#utility.yul\":7462:7479   */\n      add\n        /* \"#utility.yul\":7453:7459   */\n      dup6\n        /* \"#utility.yul\":7409:7480   */\n      tag_195\n      jump\t// in\n    tag_321:\n        /* \"#utility.yul\":7527:7536   */\n      dup2\n        /* \"#utility.yul\":7521:7525   */\n      dup2\n        /* \"#utility.yul\":7517:7537   */\n      sub\n        /* \"#utility.yul\":7512:7514   */\n      0x20\n        /* \"#utility.yul\":7501:7510   */\n      dup4\n        /* \"#utility.yul\":7497:7515   */\n      add\n        /* \"#utility.yul\":7490:7538   */\n      mstore\n        /* \"#utility.yul\":7555:7633   */\n      tag_322\n        /* \"#utility.yul\":7628:7632   */\n      dup2\n        /* \"#utility.yul\":7619:7625   */\n      dup5\n        /* \"#utility.yul\":7555:7633   */\n      tag_183\n      jump\t// in\n    tag_322:\n        /* \"#utility.yul\":7547:7633   */\n      swap1\n      pop\n        /* \"#utility.yul\":7217:7640   */\n      swap4\n      swap3\n      pop\n      pop\n      pop\n      jump\t// out\n        /* \"#utility.yul\":7646:8064   */\n    tag_65:\n        /* \"#utility.yul\":7783:7787   */\n      0x00\n        /* \"#utility.yul\":7821:7823   */\n      0x60\n        /* \"#utility.yul\":7810:7819   */\n      dup3\n        /* \"#utility.yul\":7806:7824   */\n      add\n        /* \"#utility.yul\":7798:7824   */\n      swap1\n      pop\n        /* \"#utility.yul\":7834:7899   */\n      tag_324\n        /* \"#utility.yul\":7896:7897   */\n      0x00\n        /* \"#utility.yul\":7885:7894   */\n      dup4\n        /* \"#utility.yul\":7881:7898   */\n      add\n        /* \"#utility.yul\":7872:7878   */\n      dup7\n        /* \"#utility.yul\":7834:7899   */\n      tag_194\n      jump\t// in\n    tag_324:\n        /* \"#utility.yul\":7909:7981   */\n      tag_325\n        /* \"#utility.yul\":7977:7979   */\n      0x20\n        /* \"#utility.yul\":7966:7975   */\n      dup4\n        /* \"#utility.yul\":7962:7980   */\n      add\n        /* \"#utility.yul\":7953:7959   */\n      dup6\n        /* \"#utility.yul\":7909:7981   */\n      tag_176\n      jump\t// in\n    tag_325:\n        /* \"#utility.yul\":7991:8057   */\n      tag_326\n        /* \"#utility.yul\":8053:8055   */\n      0x40\n        /* \"#utility.yul\":8042:8051   */\n      dup4\n        /* \"#utility.yul\":8038:8056   */\n      add\n        /* \"#utility.yul\":8029:8035   */\n      dup5\n        /* \"#utility.yul\":7991:8057   */\n      tag_194\n      jump\t// in\n    tag_326:\n        /* \"#utility.yul\":7646:8064   */\n      swap5\n      swap4\n      pop\n      pop\n      pop\n      pop\n      jump\t// out\n        /* \"#utility.yul\":8070:8825   */\n    tag_69:\n        /* \"#utility.yul\":8295:8299   */\n      0x00\n        /* \"#utility.yul\":8333:8336   */\n      0xa0\n        /* \"#utility.yul\":8322:8331   */\n      dup3\n        /* \"#utility.yul\":8318:8337   */\n      add\n        /* \"#utility.yul\":8310:8337   */\n      swap1\n      pop\n        /* \"#utility.yul\":8383:8392   */\n      dup2\n        /* \"#utility.yul\":8377:8381   */\n      dup2\n        /* \"#utility.yul\":8373:8393   */\n      sub\n        /* \"#utility.yul\":8369:8370   */\n      0x00\n        /* \"#utility.yul\":8358:8367   */\n      dup4\n        /* \"#utility.yul\":8354:8371   */\n      add\n        /* \"#utility.yul\":8347:8394   */\n      mstore\n        /* \"#utility.yul\":8411:8489   */\n      tag_328\n        /* \"#utility.yul\":8484:8488   */\n      dup2\n        /* \"#utility.yul\":8475:8481   */\n      dup9\n        /* \"#utility.yul\":8411:8489   */\n      tag_183\n      jump\t// in\n    tag_328:\n        /* \"#utility.yul\":8403:8489   */\n      swap1\n      pop\n        /* \"#utility.yul\":8499:8571   */\n      tag_329\n        /* \"#utility.yul\":8567:8569   */\n      0x20\n        /* \"#utility.yul\":8556:8565   */\n      dup4\n        /* \"#utility.yul\":8552:8570   */\n      add\n        /* \"#utility.yul\":8543:8549   */\n      dup8\n        /* \"#utility.yul\":8499:8571   */\n      tag_195\n      jump\t// in\n    tag_329:\n        /* \"#utility.yul\":8581:8653   */\n      tag_330\n        /* \"#utility.yul\":8649:8651   */\n      0x40\n        /* \"#utility.yul\":8638:8647   */\n      dup4\n        /* \"#utility.yul\":8634:8652   */\n      add\n        /* \"#utility.yul\":8625:8631   */\n      dup7\n        /* \"#utility.yul\":8581:8653   */\n      tag_176\n      jump\t// in\n    tag_330:\n        /* \"#utility.yul\":8663:8735   */\n      tag_331\n        /* \"#utility.yul\":8731:8733   */\n      0x60\n        /* \"#utility.yul\":8720:8729   */\n      dup4\n        /* \"#utility.yul\":8716:8734   */\n      add\n        /* \"#utility.yul\":8707:8713   */\n      dup6\n        /* \"#utility.yul\":8663:8735   */\n      tag_195\n      jump\t// in\n    tag_331:\n        /* \"#utility.yul\":8745:8818   */\n      tag_332\n        /* \"#utility.yul\":8813:8816   */\n      0x80\n        /* \"#utility.yul\":8802:8811   */\n      dup4\n        /* \"#utility.yul\":8798:8817   */\n      add\n        /* \"#utility.yul\":8789:8795   */\n      dup5\n        /* \"#utility.yul\":8745:8818   */\n      tag_195\n      jump\t// in\n    tag_332:\n        /* \"#utility.yul\":8070:8825   */\n      swap7\n      swap6\n      pop\n      pop\n      pop\n      pop\n      pop\n      pop\n      jump\t// out\n        /* \"#utility.yul\":8831:9058   */\n    tag_196:\n        /* \"#utility.yul\":8971:9005   */\n      0x4f6e6c7920696e69746961746f722063616e2072656769737465722061207265\n        /* \"#utility.yul\":8967:8968   */\n      0x00\n        /* \"#utility.yul\":8959:8965   */\n      dup3\n        /* \"#utility.yul\":8955:8969   */\n      add\n        /* \"#utility.yul\":8948:9006   */\n      mstore\n        /* \"#utility.yul\":9040:9050   */\n      0x63697069656e742e000000000000000000000000000000000000000000000000\n        /* \"#utility.yul\":9035:9037   */\n      0x20\n        /* \"#utility.yul\":9027:9033   */\n      dup3\n        /* \"#utility.yul\":9023:9038   */\n      add\n        /* \"#utility.yul\":9016:9051   */\n      mstore\n        /* \"#utility.yul\":8831:9058   */\n      pop\n      jump\t// out\n        /* \"#utility.yul\":9064:9430   */\n    tag_197:\n        /* \"#utility.yul\":9206:9209   */\n      0x00\n        /* \"#utility.yul\":9227:9294   */\n      tag_335\n        /* \"#utility.yul\":9291:9293   */\n      0x28\n        /* \"#utility.yul\":9286:9289   */\n      dup4\n        /* \"#utility.yul\":9227:9294   */\n      tag_180\n      jump\t// in\n    tag_335:\n        /* \"#utility.yul\":9220:9294   */\n      swap2\n      pop\n        /* \"#utility.yul\":9303:9396   */\n      tag_336\n        /* \"#utility.yul\":9392:9395   */\n      dup3\n        /* \"#utility.yul\":9303:9396   */\n      tag_196\n      jump\t// in\n    tag_336:\n        /* \"#utility.yul\":9421:9423   */\n      0x40\n        /* \"#utility.yul\":9416:9419   */\n      dup3\n        /* \"#utility.yul\":9412:9424   */\n      add\n        /* \"#utility.yul\":9405:9424   */\n      swap1\n      pop\n        /* \"#utility.yul\":9064:9430   */\n      swap2\n      swap1\n      pop\n      jump\t// out\n        /* \"#utility.yul\":9436:9855   */\n    tag_88:\n        /* \"#utility.yul\":9602:9606   */\n      0x00\n        /* \"#utility.yul\":9640:9642   */\n      0x20\n        /* \"#utility.yul\":9629:9638   */\n      dup3\n        /* \"#utility.yul\":9625:9643   */\n      add\n        /* \"#utility.yul\":9617:9643   */\n      swap1\n      pop\n        /* \"#utility.yul\":9689:9698   */\n      dup2\n        /* \"#utility.yul\":9683:9687   */\n      dup2\n        /* \"#utility.yul\":9679:9699   */\n      sub\n        /* \"#utility.yul\":9675:9676   */\n      0x00\n        /* \"#utility.yul\":9664:9673   */\n      dup4\n        /* \"#utility.yul\":9660:9677   */\n      add\n        /* \"#utility.yul\":9653:9700   */\n      mstore\n        /* \"#utility.yul\":9717:9848   */\n      tag_338\n        /* \"#utility.yul\":9843:9847   */\n      dup2\n        /* \"#utility.yul\":9717:9848   */\n      tag_197\n      jump\t// in\n    tag_338:\n        /* \"#utility.yul\":9709:9848   */\n      swap1\n      pop\n        /* \"#utility.yul\":9436:9855   */\n      swap2\n      swap1\n      pop\n      jump\t// out\n        /* \"#utility.yul\":9861:10032   */\n    tag_198:\n        /* \"#utility.yul\":10001:10024   */\n      0x496e69746961746f722063616e277420766f7465210000000000000000000000\n        /* \"#utility.yul\":9997:9998   */\n      0x00\n        /* \"#utility.yul\":9989:9995   */\n      dup3\n        /* \"#utility.yul\":9985:9999   */\n      add\n        /* \"#utility.yul\":9978:10025   */\n      mstore\n        /* \"#utility.yul\":9861:10032   */\n      pop\n      jump\t// out\n        /* \"#utility.yul\":10038:10404   */\n    tag_199:\n        /* \"#utility.yul\":10180:10183   */\n      0x00\n        /* \"#utility.yul\":10201:10268   */\n      tag_341\n        /* \"#utility.yul\":10265:10267   */\n      0x15\n        /* \"#utility.yul\":10260:10263   */\n      dup4\n        /* \"#utility.yul\":10201:10268   */\n      tag_180\n      jump\t// in\n    tag_341:\n        /* \"#utility.yul\":10194:10268   */\n      swap2\n      pop\n        /* \"#utility.yul\":10277:10370   */\n      tag_342\n        /* \"#utility.yul\":10366:10369   */\n      dup3\n        /* \"#utility.yul\":10277:10370   */\n      tag_198\n      jump\t// in\n    tag_342:\n        /* \"#utility.yul\":10395:10397   */\n      0x20\n        /* \"#utility.yul\":10390:10393   */\n      dup3\n        /* \"#utility.yul\":10386:10398   */\n      add\n        /* \"#utility.yul\":10379:10398   */\n      swap1\n      pop\n        /* \"#utility.yul\":10038:10404   */\n      swap2\n      swap1\n      pop\n      jump\t// out\n        /* \"#utility.yul\":10410:10829   */\n    tag_91:\n        /* \"#utility.yul\":10576:10580   */\n      0x00\n        /* \"#utility.yul\":10614:10616   */\n      0x20\n        /* \"#utility.yul\":10603:10612   */\n      dup3\n        /* \"#utility.yul\":10599:10617   */\n      add\n        /* \"#utility.yul\":10591:10617   */\n      swap1\n      pop\n        /* \"#utility.yul\":10663:10672   */\n      dup2\n        /* \"#utility.yul\":10657:10661   */\n      dup2\n        /* \"#utility.yul\":10653:10673   */\n      sub\n        /* \"#utility.yul\":10649:10650   */\n      0x00\n        /* \"#utility.yul\":10638:10647   */\n      dup4\n        /* \"#utility.yul\":10634:10651   */\n      add\n        /* \"#utility.yul\":10627:10674   */\n      mstore\n        /* \"#utility.yul\":10691:10822   */\n      tag_344\n        /* \"#utility.yul\":10817:10821   */\n      dup2\n        /* \"#utility.yul\":10691:10822   */\n      tag_199\n      jump\t// in\n    tag_344:\n        /* \"#utility.yul\":10683:10822   */\n      swap1\n      pop\n        /* \"#utility.yul\":10410:10829   */\n      swap2\n      swap1\n      pop\n      jump\t// out\n        /* \"#utility.yul\":10835:11016   */\n    tag_200:\n        /* \"#utility.yul\":10975:11008   */\n      0x526563697069656e7420697320616c7265616479207265676973746572656400\n        /* \"#utility.yul\":10971:10972   */\n      0x00\n        /* \"#utility.yul\":10963:10969   */\n      dup3\n        /* \"#utility.yul\":10959:10973   */\n      add\n        /* \"#utility.yul\":10952:11009   */\n      mstore\n        /* \"#utility.yul\":10835:11016   */\n      pop\n      jump\t// out\n        /* \"#utility.yul\":11022:11388   */\n    tag_201:\n        /* \"#utility.yul\":11164:11167   */\n      0x00\n        /* \"#utility.yul\":11185:11252   */\n      tag_347\n        /* \"#utility.yul\":11249:11251   */\n      0x1f\n        /* \"#utility.yul\":11244:11247   */\n      dup4\n        /* \"#utility.yul\":11185:11252   */\n      tag_180\n      jump\t// in\n    tag_347:\n        /* \"#utility.yul\":11178:11252   */\n      swap2\n      pop\n        /* \"#utility.yul\":11261:11354   */\n      tag_348\n        /* \"#utility.yul\":11350:11353   */\n      dup3\n        /* \"#utility.yul\":11261:11354   */\n      tag_200\n      jump\t// in\n    tag_348:\n        /* \"#utility.yul\":11379:11381   */\n      0x20\n        /* \"#utility.yul\":11374:11377   */\n      dup3\n        /* \"#utility.yul\":11370:11382   */\n      add\n        /* \"#utility.yul\":11363:11382   */\n      swap1\n      pop\n        /* \"#utility.yul\":11022:11388   */\n      swap2\n      swap1\n      pop\n      jump\t// out\n        /* \"#utility.yul\":11394:11813   */\n    tag_94:\n        /* \"#utility.yul\":11560:11564   */\n      0x00\n        /* \"#utility.yul\":11598:11600   */\n      0x20\n        /* \"#utility.yul\":11587:11596   */\n      dup3\n        /* \"#utility.yul\":11583:11601   */\n      add\n        /* \"#utility.yul\":11575:11601   */\n      swap1\n      pop\n        /* \"#utility.yul\":11647:11656   */\n      dup2\n        /* \"#utility.yul\":11641:11645   */\n      dup2\n        /* \"#utility.yul\":11637:11657   */\n      sub\n        /* \"#utility.yul\":11633:11634   */\n      0x00\n        /* \"#utility.yul\":11622:11631   */\n      dup4\n        /* \"#utility.yul\":11618:11635   */\n      add\n        /* \"#utility.yul\":11611:11658   */\n      mstore\n        /* \"#utility.yul\":11675:11806   */\n      tag_350\n        /* \"#utility.yul\":11801:11805   */\n      dup2\n        /* \"#utility.yul\":11675:11806   */\n      tag_201\n      jump\t// in\n    tag_350:\n        /* \"#utility.yul\":11667:11806   */\n      swap1\n      pop\n        /* \"#utility.yul\":11394:11813   */\n      swap2\n      swap1\n      pop\n      jump\t// out\n        /* \"#utility.yul\":11819:12042   */\n    tag_202:\n        /* \"#utility.yul\":11959:11993   */\n      0x50726f706f73616c206861732072656163686564206974732065787069727920\n        /* \"#utility.yul\":11955:11956   */\n      0x00\n        /* \"#utility.yul\":11947:11953   */\n      dup3\n        /* \"#utility.yul\":11943:11957   */\n      add\n        /* \"#utility.yul\":11936:11994   */\n      mstore\n        /* \"#utility.yul\":12028:12034   */\n      0x6461746500000000000000000000000000000000000000000000000000000000\n        /* \"#utility.yul\":12023:12025   */\n      0x20\n        /* \"#utility.yul\":12015:12021   */\n      dup3\n        /* \"#utility.yul\":12011:12026   */\n      add\n        /* \"#utility.yul\":12004:12035   */\n      mstore\n        /* \"#utility.yul\":11819:12042   */\n      pop\n      jump\t// out\n        /* \"#utility.yul\":12048:12414   */\n    tag_203:\n        /* \"#utility.yul\":12190:12193   */\n      0x00\n        /* \"#utility.yul\":12211:12278   */\n      tag_353\n        /* \"#utility.yul\":12275:12277   */\n      0x24\n        /* \"#utility.yul\":12270:12273   */\n      dup4\n        /* \"#utility.yul\":12211:12278   */\n      tag_180\n      jump\t// in\n    tag_353:\n        /* \"#utility.yul\":12204:12278   */\n      swap2\n      pop\n        /* \"#utility.yul\":12287:12380   */\n      tag_354\n        /* \"#utility.yul\":12376:12379   */\n      dup3\n        /* \"#utility.yul\":12287:12380   */\n      tag_202\n      jump\t// in\n    tag_354:\n        /* \"#utility.yul\":12405:12407   */\n      0x40\n        /* \"#utility.yul\":12400:12403   */\n      dup3\n        /* \"#utility.yul\":12396:12408   */\n      add\n        /* \"#utility.yul\":12389:12408   */\n      swap1\n      pop\n        /* \"#utility.yul\":12048:12414   */\n      swap2\n      swap1\n      pop\n      jump\t// out\n        /* \"#utility.yul\":12420:12839   */\n    tag_97:\n        /* \"#utility.yul\":12586:12590   */\n      0x00\n        /* \"#utility.yul\":12624:12626   */\n      0x20\n        /* \"#utility.yul\":12613:12622   */\n      dup3\n        /* \"#utility.yul\":12609:12627   */\n      add\n        /* \"#utility.yul\":12601:12627   */\n      swap1\n      pop\n        /* \"#utility.yul\":12673:12682   */\n      dup2\n        /* \"#utility.yul\":12667:12671   */\n      dup2\n        /* \"#utility.yul\":12663:12683   */\n      sub\n        /* \"#utility.yul\":12659:12660   */\n      0x00\n        /* \"#utility.yul\":12648:12657   */\n      dup4\n        /* \"#utility.yul\":12644:12661   */\n      add\n        /* \"#utility.yul\":12637:12684   */\n      mstore\n        /* \"#utility.yul\":12701:12832   */\n      tag_356\n        /* \"#utility.yul\":12827:12831   */\n      dup2\n        /* \"#utility.yul\":12701:12832   */\n      tag_203\n      jump\t// in\n    tag_356:\n        /* \"#utility.yul\":12693:12832   */\n      swap1\n      pop\n        /* \"#utility.yul\":12420:12839   */\n      swap2\n      swap1\n      pop\n      jump\t// out\n        /* \"#utility.yul\":12845:13025   */\n    tag_204:\n        /* \"#utility.yul\":12893:12970   */\n      0x4e487b7100000000000000000000000000000000000000000000000000000000\n        /* \"#utility.yul\":12890:12891   */\n      0x00\n        /* \"#utility.yul\":12883:12971   */\n      mstore\n        /* \"#utility.yul\":12990:12994   */\n      0x22\n        /* \"#utility.yul\":12987:12988   */\n      0x04\n        /* \"#utility.yul\":12980:12995   */\n      mstore\n        /* \"#utility.yul\":13014:13018   */\n      0x24\n        /* \"#utility.yul\":13011:13012   */\n      0x00\n        /* \"#utility.yul\":13004:13019   */\n      revert\n        /* \"#utility.yul\":13031:13351   */\n    tag_101:\n        /* \"#utility.yul\":13075:13081   */\n      0x00\n        /* \"#utility.yul\":13112:13113   */\n      0x02\n        /* \"#utility.yul\":13106:13110   */\n      dup3\n        /* \"#utility.yul\":13102:13114   */\n      div\n        /* \"#utility.yul\":13092:13114   */\n      swap1\n      pop\n        /* \"#utility.yul\":13159:13160   */\n      0x01\n        /* \"#utility.yul\":13153:13157   */\n      dup3\n        /* \"#utility.yul\":13149:13161   */\n      and\n        /* \"#utility.yul\":13180:13198   */\n      dup1\n        /* \"#utility.yul\":13170:13251   */\n      tag_359\n      jumpi\n        /* \"#utility.yul\":13236:13240   */\n      0x7f\n        /* \"#utility.yul\":13228:13234   */\n      dup3\n        /* \"#utility.yul\":13224:13241   */\n      and\n        /* \"#utility.yul\":13214:13241   */\n      swap2\n      pop\n        /* \"#utility.yul\":13170:13251   */\n    tag_359:\n        /* \"#utility.yul\":13298:13300   */\n      0x20\n        /* \"#utility.yul\":13290:13296   */\n      dup3\n        /* \"#utility.yul\":13287:13301   */\n      lt\n        /* \"#utility.yul\":13267:13285   */\n      dup2\n        /* \"#utility.yul\":13264:13302   */\n      sub\n        /* \"#utility.yul\":13261:13345   */\n      tag_360\n      jumpi\n        /* \"#utility.yul\":13317:13335   */\n      tag_361\n      tag_204\n      jump\t// in\n    tag_361:\n        /* \"#utility.yul\":13261:13345   */\n    tag_360:\n        /* \"#utility.yul\":13082:13351   */\n      pop\n        /* \"#utility.yul\":13031:13351   */\n      swap2\n      swap1\n      pop\n      jump\t// out\n        /* \"#utility.yul\":13357:13525   */\n    tag_205:\n        /* \"#utility.yul\":13497:13517   */\n      0x566f74696e672068617320657870697265640000000000000000000000000000\n        /* \"#utility.yul\":13493:13494   */\n      0x00\n        /* \"#utility.yul\":13485:13491   */\n      dup3\n        /* \"#utility.yul\":13481:13495   */\n      add\n        /* \"#utility.yul\":13474:13518   */\n      mstore\n        /* \"#utility.yul\":13357:13525   */\n      pop\n      jump\t// out\n        /* \"#utility.yul\":13531:13897   */\n    tag_206:\n        /* \"#utility.yul\":13673:13676   */\n      0x00\n        /* \"#utility.yul\":13694:13761   */\n      tag_364\n        /* \"#utility.yul\":13758:13760   */\n      0x12\n        /* \"#utility.yul\":13753:13756   */\n      dup4\n        /* \"#utility.yul\":13694:13761   */\n      tag_180\n      jump\t// in\n    tag_364:\n        /* \"#utility.yul\":13687:13761   */\n      swap2\n      pop\n        /* \"#utility.yul\":13770:13863   */\n      tag_365\n        /* \"#utility.yul\":13859:13862   */\n      dup3\n        /* \"#utility.yul\":13770:13863   */\n      tag_205\n      jump\t// in\n    tag_365:\n        /* \"#utility.yul\":13888:13890   */\n      0x20\n        /* \"#utility.yul\":13883:13886   */\n      dup3\n        /* \"#utility.yul\":13879:13891   */\n      add\n        /* \"#utility.yul\":13872:13891   */\n      swap1\n      pop\n        /* \"#utility.yul\":13531:13897   */\n      swap2\n      swap1\n      pop\n      jump\t// out\n        /* \"#utility.yul\":13903:14322   */\n    tag_109:\n        /* \"#utility.yul\":14069:14073   */\n      0x00\n        /* \"#utility.yul\":14107:14109   */\n      0x20\n        /* \"#utility.yul\":14096:14105   */\n      dup3\n        /* \"#utility.yul\":14092:14110   */\n      add\n        /* \"#utility.yul\":14084:14110   */\n      swap1\n      pop\n        /* \"#utility.yul\":14156:14165   */\n      dup2\n        /* \"#utility.yul\":14150:14154   */\n      dup2\n        /* \"#utility.yul\":14146:14166   */\n      sub\n        /* \"#utility.yul\":14142:14143   */\n      0x00\n        /* \"#utility.yul\":14131:14140   */\n      dup4\n        /* \"#utility.yul\":14127:14144   */\n      add\n        /* \"#utility.yul\":14120:14167   */\n      mstore\n        /* \"#utility.yul\":14184:14315   */\n      tag_367\n        /* \"#utility.yul\":14310:14314   */\n      dup2\n        /* \"#utility.yul\":14184:14315   */\n      tag_206\n      jump\t// in\n    tag_367:\n        /* \"#utility.yul\":14176:14315   */\n      swap1\n      pop\n        /* \"#utility.yul\":13903:14322   */\n      swap2\n      swap1\n      pop\n      jump\t// out\n        /* \"#utility.yul\":14328:14508   */\n    tag_207:\n        /* \"#utility.yul\":14468:14500   */\n      0x596f7520617265206e6f74207265676973746572656420746f20766f74650000\n        /* \"#utility.yul\":14464:14465   */\n      0x00\n        /* \"#utility.yul\":14456:14462   */\n      dup3\n        /* \"#utility.yul\":14452:14466   */\n      add\n        /* \"#utility.yul\":14445:14501   */\n      mstore\n        /* \"#utility.yul\":14328:14508   */\n      pop\n      jump\t// out\n        /* \"#utility.yul\":14514:14880   */\n    tag_208:\n        /* \"#utility.yul\":14656:14659   */\n      0x00\n        /* \"#utility.yul\":14677:14744   */\n      tag_370\n        /* \"#utility.yul\":14741:14743   */\n      0x1e\n        /* \"#utility.yul\":14736:14739   */\n      dup4\n        /* \"#utility.yul\":14677:14744   */\n      tag_180\n      jump\t// in\n    tag_370:\n        /* \"#utility.yul\":14670:14744   */\n      swap2\n      pop\n        /* \"#utility.yul\":14753:14846   */\n      tag_371\n        /* \"#utility.yul\":14842:14845   */\n      dup3\n        /* \"#utility.yul\":14753:14846   */\n      tag_207\n      jump\t// in\n    tag_371:\n        /* \"#utility.yul\":14871:14873   */\n      0x20\n        /* \"#utility.yul\":14866:14869   */\n      dup3\n        /* \"#utility.yul\":14862:14874   */\n      add\n        /* \"#utility.yul\":14855:14874   */\n      swap1\n      pop\n        /* \"#utility.yul\":14514:14880   */\n      swap2\n      swap1\n      pop\n      jump\t// out\n        /* \"#utility.yul\":14886:15305   */\n    tag_112:\n        /* \"#utility.yul\":15052:15056   */\n      0x00\n        /* \"#utility.yul\":15090:15092   */\n      0x20\n        /* \"#utility.yul\":15079:15088   */\n      dup3\n        /* \"#utility.yul\":15075:15093   */\n      add\n        /* \"#utility.yul\":15067:15093   */\n      swap1\n      pop\n        /* \"#utility.yul\":15139:15148   */\n      dup2\n        /* \"#utility.yul\":15133:15137   */\n      dup2\n        /* \"#utility.yul\":15129:15149   */\n      sub\n        /* \"#utility.yul\":15125:15126   */\n      0x00\n        /* \"#utility.yul\":15114:15123   */\n      dup4\n        /* \"#utility.yul\":15110:15127   */\n      add\n        /* \"#utility.yul\":15103:15150   */\n      mstore\n        /* \"#utility.yul\":15167:15298   */\n      tag_373\n        /* \"#utility.yul\":15293:15297   */\n      dup2\n        /* \"#utility.yul\":15167:15298   */\n      tag_208\n      jump\t// in\n    tag_373:\n        /* \"#utility.yul\":15159:15298   */\n      swap1\n      pop\n        /* \"#utility.yul\":14886:15305   */\n      swap2\n      swap1\n      pop\n      jump\t// out\n        /* \"#utility.yul\":15311:15489   */\n    tag_209:\n        /* \"#utility.yul\":15451:15481   */\n      0x596f7520616c72656164792073656e74206120726573706f6e73652e00000000\n        /* \"#utility.yul\":15447:15448   */\n      0x00\n        /* \"#utility.yul\":15439:15445   */\n      dup3\n        /* \"#utility.yul\":15435:15449   */\n      add\n        /* \"#utility.yul\":15428:15482   */\n      mstore\n        /* \"#utility.yul\":15311:15489   */\n      pop\n      jump\t// out\n        /* \"#utility.yul\":15495:15861   */\n    tag_210:\n        /* \"#utility.yul\":15637:15640   */\n      0x00\n        /* \"#utility.yul\":15658:15725   */\n      tag_376\n        /* \"#utility.yul\":15722:15724   */\n      0x1c\n        /* \"#utility.yul\":15717:15720   */\n      dup4\n        /* \"#utility.yul\":15658:15725   */\n      tag_180\n      jump\t// in\n    tag_376:\n        /* \"#utility.yul\":15651:15725   */\n      swap2\n      pop\n        /* \"#utility.yul\":15734:15827   */\n      tag_377\n        /* \"#utility.yul\":15823:15826   */\n      dup3\n        /* \"#utility.yul\":15734:15827   */\n      tag_209\n      jump\t// in\n    tag_377:\n        /* \"#utility.yul\":15852:15854   */\n      0x20\n        /* \"#utility.yul\":15847:15850   */\n      dup3\n        /* \"#utility.yul\":15843:15855   */\n      add\n        /* \"#utility.yul\":15836:15855   */\n      swap1\n      pop\n        /* \"#utility.yul\":15495:15861   */\n      swap2\n      swap1\n      pop\n      jump\t// out\n        /* \"#utility.yul\":15867:16286   */\n    tag_115:\n        /* \"#utility.yul\":16033:16037   */\n      0x00\n        /* \"#utility.yul\":16071:16073   */\n      0x20\n        /* \"#utility.yul\":16060:16069   */\n      dup3\n        /* \"#utility.yul\":16056:16074   */\n      add\n        /* \"#utility.yul\":16048:16074   */\n      swap1\n      pop\n        /* \"#utility.yul\":16120:16129   */\n      dup2\n        /* \"#utility.yul\":16114:16118   */\n      dup2\n        /* \"#utility.yul\":16110:16130   */\n      sub\n        /* \"#utility.yul\":16106:16107   */\n      0x00\n        /* \"#utility.yul\":16095:16104   */\n      dup4\n        /* \"#utility.yul\":16091:16108   */\n      add\n        /* \"#utility.yul\":16084:16131   */\n      mstore\n        /* \"#utility.yul\":16148:16279   */\n      tag_379\n        /* \"#utility.yul\":16274:16278   */\n      dup2\n        /* \"#utility.yul\":16148:16279   */\n      tag_210\n      jump\t// in\n    tag_379:\n        /* \"#utility.yul\":16140:16279   */\n      swap1\n      pop\n        /* \"#utility.yul\":15867:16286   */\n      swap2\n      swap1\n      pop\n      jump\t// out\n        /* \"#utility.yul\":16292:16472   */\n    tag_211:\n        /* \"#utility.yul\":16340:16417   */\n      0x4e487b7100000000000000000000000000000000000000000000000000000000\n        /* \"#utility.yul\":16337:16338   */\n      0x00\n        /* \"#utility.yul\":16330:16418   */\n      mstore\n        /* \"#utility.yul\":16437:16441   */\n      0x11\n        /* \"#utility.yul\":16434:16435   */\n      0x04\n        /* \"#utility.yul\":16427:16442   */\n      mstore\n        /* \"#utility.yul\":16461:16465   */\n      0x24\n        /* \"#utility.yul\":16458:16459   */\n      0x00\n        /* \"#utility.yul\":16451:16466   */\n      revert\n        /* \"#utility.yul\":16478:16783   */\n    tag_118:\n        /* \"#utility.yul\":16518:16521   */\n      0x00\n        /* \"#utility.yul\":16537:16557   */\n      tag_382\n        /* \"#utility.yul\":16555:16556   */\n      dup3\n        /* \"#utility.yul\":16537:16557   */\n      tag_171\n      jump\t// in\n    tag_382:\n        /* \"#utility.yul\":16532:16557   */\n      swap2\n      pop\n        /* \"#utility.yul\":16571:16591   */\n      tag_383\n        /* \"#utility.yul\":16589:16590   */\n      dup4\n        /* \"#utility.yul\":16571:16591   */\n      tag_171\n      jump\t// in\n    tag_383:\n        /* \"#utility.yul\":16566:16591   */\n      swap3\n      pop\n        /* \"#utility.yul\":16725:16726   */\n      dup3\n        /* \"#utility.yul\":16657:16723   */\n      0xffffffffffffffffffffffffffffffffffffffffffffffffffffffffffffffff\n        /* \"#utility.yul\":16653:16727   */\n      sub\n        /* \"#utility.yul\":16650:16651   */\n      dup3\n        /* \"#utility.yul\":16647:16728   */\n      gt\n        /* \"#utility.yul\":16644:16751   */\n      iszero\n      tag_384\n      jumpi\n        /* \"#utility.yul\":16731:16749   */\n      tag_385\n      tag_211\n      jump\t// in\n    tag_385:\n        /* \"#utility.yul\":16644:16751   */\n    tag_384:\n        /* \"#utility.yul\":16775:16776   */\n      dup3\n        /* \"#utility.yul\":16772:16773   */\n      dup3\n        /* \"#utility.yul\":16768:16777   */\n      add\n        /* \"#utility.yul\":16761:16777   */\n      swap1\n      pop\n        /* \"#utility.yul\":16478:16783   */\n      swap3\n      swap2\n      pop\n      pop\n      jump\t// out\n        /* \"#utility.yul\":16789:16971   */\n    tag_212:\n        /* \"#utility.yul\":16929:16963   */\n      0x5665726469637420686173206e6f74206265656e207265616368656420796574\n        /* \"#utility.yul\":16925:16926   */\n      0x00\n        /* \"#utility.yul\":16917:16923   */\n      dup3\n        /* \"#utility.yul\":16913:16927   */\n      add\n        /* \"#utility.yul\":16906:16964   */\n      mstore\n        /* \"#utility.yul\":16789:16971   */\n      pop\n      jump\t// out\n        /* \"#utility.yul\":16977:17343   */\n    tag_213:\n        /* \"#utility.yul\":17119:17122   */\n      0x00\n        /* \"#utility.yul\":17140:17207   */\n      tag_388\n        /* \"#utility.yul\":17204:17206   */\n      0x20\n        /* \"#utility.yul\":17199:17202   */\n      dup4\n        /* \"#utility.yul\":17140:17207   */\n      tag_180\n      jump\t// in\n    tag_388:\n        /* \"#utility.yul\":17133:17207   */\n      swap2\n      pop\n        /* \"#utility.yul\":17216:17309   */\n      tag_389\n        /* \"#utility.yul\":17305:17308   */\n      dup3\n        /* \"#utility.yul\":17216:17309   */\n      tag_212\n      jump\t// in\n    tag_389:\n        /* \"#utility.yul\":17334:17336   */\n      0x20\n        /* \"#utility.yul\":17329:17332   */\n      dup3\n        /* \"#utility.yul\":17325:17337   */\n      add\n        /* \"#utility.yul\":17318:17337   */\n      swap1\n      pop\n        /* \"#utility.yul\":16977:17343   */\n      swap2\n      swap1\n      pop\n      jump\t// out\n        /* \"#utility.yul\":17349:17768   */\n    tag_134:\n        /* \"#utility.yul\":17515:17519   */\n      0x00\n        /* \"#utility.yul\":17553:17555   */\n      0x20\n        /* \"#utility.yul\":17542:17551   */\n      dup3\n        /* \"#utility.yul\":17538:17556   */\n      add\n        /* \"#utility.yul\":17530:17556   */\n      swap1\n      pop\n        /* \"#utility.yul\":17602:17611   */\n      dup2\n        /* \"#utility.yul\":17596:17600   */\n      dup2\n        /* \"#utility.yul\":17592:17612   */\n      sub\n        /* \"#utility.yul\":17588:17589   */\n      0x00\n        /* \"#utility.yul\":17577:17586   */\n      dup4\n        /* \"#utility.yul\":17573:17590   */\n      add\n        /* \"#utility.yul\":17566:17613   */\n      mstore\n        /* \"#utility.yul\":17630:17761   */\n      tag_391\n        /* \"#utility.yul\":17756:17760   */\n      dup2\n        /* \"#utility.yul\":17630:17761   */\n      tag_213\n      jump\t// in\n    tag_391:\n        /* \"#utility.yul\":17622:17761   */\n      swap1\n      pop\n        /* \"#utility.yul\":17349:17768   */\n      swap2\n      swap1\n      pop\n      jump\t// out\n        /* \"#utility.yul\":17774:17998   */\n    tag_214:\n        /* \"#utility.yul\":17914:17948   */\n      0x436f6e73656e7375732068617320616c7265616479206265656e2063616c6375\n        /* \"#utility.yul\":17910:17911   */\n      0x00\n        /* \"#utility.yul\":17902:17908   */\n      dup3\n        /* \"#utility.yul\":17898:17912   */\n      add\n        /* \"#utility.yul\":17891:17949   */\n      mstore\n        /* \"#utility.yul\":17983:17990   */\n      0x6c61746564000000000000000000000000000000000000000000000000000000\n        /* \"#utility.yul\":17978:17980   */\n      0x20\n        /* \"#utility.yul\":17970:17976   */\n      dup3\n        /* \"#utility.yul\":17966:17981   */\n      add\n        /* \"#utility.yul\":17959:17991   */\n      mstore\n        /* \"#utility.yul\":17774:17998   */\n      pop\n      jump\t// out\n        /* \"#utility.yul\":18004:18370   */\n    tag_215:\n        /* \"#utility.yul\":18146:18149   */\n      0x00\n        /* \"#utility.yul\":18167:18234   */\n      tag_394\n        /* \"#utility.yul\":18231:18233   */\n      0x25\n        /* \"#utility.yul\":18226:18229   */\n      dup4\n        /* \"#utility.yul\":18167:18234   */\n      tag_180\n      jump\t// in\n    tag_394:\n        /* \"#utility.yul\":18160:18234   */\n      swap2\n      pop\n        /* \"#utility.yul\":18243:18336   */\n      tag_395\n        /* \"#utility.yul\":18332:18335   */\n      dup3\n        /* \"#utility.yul\":18243:18336   */\n      tag_214\n      jump\t// in\n    tag_395:\n        /* \"#utility.yul\":18361:18363   */\n      0x40\n        /* \"#utility.yul\":18356:18359   */\n      dup3\n        /* \"#utility.yul\":18352:18364   */\n      add\n        /* \"#utility.yul\":18345:18364   */\n      swap1\n      pop\n        /* \"#utility.yul\":18004:18370   */\n      swap2\n      swap1\n      pop\n      jump\t// out\n        /* \"#utility.yul\":18376:18795   */\n    tag_137:\n        /* \"#utility.yul\":18542:18546   */\n      0x00\n        /* \"#utility.yul\":18580:18582   */\n      0x20\n        /* \"#utility.yul\":18569:18578   */\n      dup3\n        /* \"#utility.yul\":18565:18583   */\n      add\n        /* \"#utility.yul\":18557:18583   */\n      swap1\n      pop\n        /* \"#utility.yul\":18629:18638   */\n      dup2\n        /* \"#utility.yul\":18623:18627   */\n      dup2\n        /* \"#utility.yul\":18619:18639   */\n      sub\n        /* \"#utility.yul\":18615:18616   */\n      0x00\n        /* \"#utility.yul\":18604:18613   */\n      dup4\n        /* \"#utility.yul\":18600:18617   */\n      add\n        /* \"#utility.yul\":18593:18640   */\n      mstore\n        /* \"#utility.yul\":18657:18788   */\n      tag_397\n        /* \"#utility.yul\":18783:18787   */\n      dup2\n        /* \"#utility.yul\":18657:18788   */\n      tag_215\n      jump\t// in\n    tag_397:\n        /* \"#utility.yul\":18649:18788   */\n      swap1\n      pop\n        /* \"#utility.yul\":18376:18795   */\n      swap2\n      swap1\n      pop\n      jump\t// out\n        /* \"#utility.yul\":18801:18981   */\n    tag_216:\n        /* \"#utility.yul\":18849:18926   */\n      0x4e487b7100000000000000000000000000000000000000000000000000000000\n        /* \"#utility.yul\":18846:18847   */\n      0x00\n        /* \"#utility.yul\":18839:18927   */\n      mstore\n        /* \"#utility.yul\":18946:18950   */\n      0x12\n        /* \"#utility.yul\":18943:18944   */\n      0x04\n        /* \"#utility.yul\":18936:18951   */\n      mstore\n        /* \"#utility.yul\":18970:18974   */\n      0x24\n        /* \"#utility.yul\":18967:18968   */\n      0x00\n        /* \"#utility.yul\":18960:18975   */\n      revert\n        /* \"#utility.yul\":18987:19172   */\n    tag_139:\n        /* \"#utility.yul\":19027:19028   */\n      0x00\n        /* \"#utility.yul\":19044:19064   */\n      tag_400\n        /* \"#utility.yul\":19062:19063   */\n      dup3\n        /* \"#utility.yul\":19044:19064   */\n      tag_171\n      jump\t// in\n    tag_400:\n        /* \"#utility.yul\":19039:19064   */\n      swap2\n      pop\n        /* \"#utility.yul\":19078:19098   */\n      tag_401\n        /* \"#utility.yul\":19096:19097   */\n      dup4\n        /* \"#utility.yul\":19078:19098   */\n      tag_171\n      jump\t// in\n    tag_401:\n        /* \"#utility.yul\":19073:19098   */\n      swap3\n      pop\n        /* \"#utility.yul\":19117:19118   */\n      dup3\n        /* \"#utility.yul\":19107:19142   */\n      tag_402\n      jumpi\n        /* \"#utility.yul\":19122:19140   */\n      tag_403\n      tag_216\n      jump\t// in\n    tag_403:\n        /* \"#utility.yul\":19107:19142   */\n    tag_402:\n        /* \"#utility.yul\":19164:19165   */\n      dup3\n        /* \"#utility.yul\":19161:19162   */\n      dup3\n        /* \"#utility.yul\":19157:19166   */\n      div\n        /* \"#utility.yul\":19152:19166   */\n      swap1\n      pop\n        /* \"#utility.yul\":18987:19172   */\n      swap3\n      swap2\n      pop\n      pop\n      jump\t// out\n        /* \"#utility.yul\":19178:19526   */\n    tag_141:\n        /* \"#utility.yul\":19218:19225   */\n      0x00\n        /* \"#utility.yul\":19241:19261   */\n      tag_405\n        /* \"#utility.yul\":19259:19260   */\n      dup3\n        /* \"#utility.yul\":19241:19261   */\n      tag_171\n      jump\t// in\n    tag_405:\n        /* \"#utility.yul\":19236:19261   */\n      swap2\n      pop\n        /* \"#utility.yul\":19275:19295   */\n      tag_406\n        /* \"#utility.yul\":19293:19294   */\n      dup4\n        /* \"#utility.yul\":19275:19295   */\n      tag_171\n      jump\t// in\n    tag_406:\n        /* \"#utility.yul\":19270:19295   */\n      swap3\n      pop\n        /* \"#utility.yul\":19463:19464   */\n      dup2\n        /* \"#utility.yul\":19395:19461   */\n      0xffffffffffffffffffffffffffffffffffffffffffffffffffffffffffffffff\n        /* \"#utility.yul\":19391:19465   */\n      div\n        /* \"#utility.yul\":19388:19389   */\n      dup4\n        /* \"#utility.yul\":19385:19466   */\n      gt\n        /* \"#utility.yul\":19380:19381   */\n      dup3\n        /* \"#utility.yul\":19373:19382   */\n      iszero\n        /* \"#utility.yul\":19366:19383   */\n      iszero\n        /* \"#utility.yul\":19362:19467   */\n      and\n        /* \"#utility.yul\":19359:19490   */\n      iszero\n      tag_407\n      jumpi\n        /* \"#utility.yul\":19470:19488   */\n      tag_408\n      tag_211\n      jump\t// in\n    tag_408:\n        /* \"#utility.yul\":19359:19490   */\n    tag_407:\n        /* \"#utility.yul\":19518:19519   */\n      dup3\n        /* \"#utility.yul\":19515:19516   */\n      dup3\n        /* \"#utility.yul\":19511:19520   */\n      mul\n        /* \"#utility.yul\":19500:19520   */\n      swap1\n      pop\n        /* \"#utility.yul\":19178:19526   */\n      swap3\n      swap2\n      pop\n      pop\n      jump\t// out\n        /* \"#utility.yul\":19532:19673   */\n    tag_217:\n        /* \"#utility.yul\":19581:19585   */\n      0x00\n        /* \"#utility.yul\":19604:19607   */\n      dup2\n        /* \"#utility.yul\":19596:19607   */\n      swap1\n      pop\n        /* \"#utility.yul\":19627:19630   */\n      dup2\n        /* \"#utility.yul\":19624:19625   */\n      0x00\n        /* \"#utility.yul\":19617:19631   */\n      mstore\n        /* \"#utility.yul\":19661:19665   */\n      0x20\n        /* \"#utility.yul\":19658:19659   */\n      0x00\n        /* \"#utility.yul\":19648:19666   */\n      keccak256\n        /* \"#utility.yul\":19640:19666   */\n      swap1\n      pop\n        /* \"#utility.yul\":19532:19673   */\n      swap2\n      swap1\n      pop\n      jump\t// out\n        /* \"#utility.yul\":19679:19772   */\n    tag_218:\n        /* \"#utility.yul\":19716:19722   */\n      0x00\n        /* \"#utility.yul\":19763:19765   */\n      0x20\n        /* \"#utility.yul\":19758:19760   */\n      0x1f\n        /* \"#utility.yul\":19751:19756   */\n      dup4\n        /* \"#utility.yul\":19747:19761   */\n      add\n        /* \"#utility.yul\":19743:19766   */\n      div\n        /* \"#utility.yul\":19733:19766   */\n      swap1\n      pop\n        /* \"#utility.yul\":19679:19772   */\n      swap2\n      swap1\n      pop\n      jump\t// out\n        /* \"#utility.yul\":19778:19885   */\n    tag_219:\n        /* \"#utility.yul\":19822:19830   */\n      0x00\n        /* \"#utility.yul\":19872:19877   */\n      dup3\n        /* \"#utility.yul\":19866:19870   */\n      dup3\n        /* \"#utility.yul\":19862:19878   */\n      shl\n        /* \"#utility.yul\":19841:19878   */\n      swap1\n      pop\n        /* \"#utility.yul\":19778:19885   */\n      swap3\n      swap2\n      pop\n      pop\n      jump\t// out\n        /* \"#utility.yul\":19891:20284   */\n    tag_220:\n        /* \"#utility.yul\":19960:19966   */\n      0x00\n        /* \"#utility.yul\":20010:20011   */\n      0x08\n        /* \"#utility.yul\":19998:20008   */\n      dup4\n        /* \"#utility.yul\":19994:20012   */\n      mul\n        /* \"#utility.yul\":20033:20130   */\n      tag_413\n        /* \"#utility.yul\":20063:20129   */\n      0xffffffffffffffffffffffffffffffffffffffffffffffffffffffffffffffff\n        /* \"#utility.yul\":20052:20061   */\n      dup3\n        /* \"#utility.yul\":20033:20130   */\n      tag_219\n      jump\t// in\n    tag_413:\n        /* \"#utility.yul\":20151:20190   */\n      tag_414\n        /* \"#utility.yul\":20181:20189   */\n      dup7\n        /* \"#utility.yul\":20170:20179   */\n      dup4\n        /* \"#utility.yul\":20151:20190   */\n      tag_219\n      jump\t// in\n    tag_414:\n        /* \"#utility.yul\":20139:20190   */\n      swap6\n      pop\n        /* \"#utility.yul\":20223:20227   */\n      dup1\n        /* \"#utility.yul\":20219:20228   */\n      not\n        /* \"#utility.yul\":20212:20217   */\n      dup5\n        /* \"#utility.yul\":20208:20229   */\n      and\n        /* \"#utility.yul\":20199:20229   */\n      swap4\n      pop\n        /* \"#utility.yul\":20272:20276   */\n      dup1\n        /* \"#utility.yul\":20262:20270   */\n      dup7\n        /* \"#utility.yul\":20258:20277   */\n      and\n        /* \"#utility.yul\":20251:20256   */\n      dup5\n        /* \"#utility.yul\":20248:20278   */\n      or\n        /* \"#utility.yul\":20238:20278   */\n      swap3\n      pop\n        /* \"#utility.yul\":19967:20284   */\n      pop\n      pop\n        /* \"#utility.yul\":19891:20284   */\n      swap4\n      swap3\n      pop\n      pop\n      pop\n      jump\t// out\n        /* \"#utility.yul\":20290:20350   */\n    tag_221:\n        /* \"#utility.yul\":20318:20321   */\n      0x00\n        /* \"#utility.yul\":20339:20344   */\n      dup2\n        /* \"#utility.yul\":20332:20344   */\n      swap1\n      pop\n        /* \"#utility.yul\":20290:20350   */\n      swap2\n      swap1\n      pop\n      jump\t// out\n        /* \"#utility.yul\":20356:20498   */\n    tag_222:\n        /* \"#utility.yul\":20406:20415   */\n      0x00\n        /* \"#utility.yul\":20439:20492   */\n      tag_417\n        /* \"#utility.yul\":20457:20491   */\n      tag_418\n        /* \"#utility.yul\":20466:20490   */\n      tag_419\n        /* \"#utility.yul\":20484:20489   */\n      dup5\n        /* \"#utility.yul\":20466:20490   */\n      tag_171\n      jump\t// in\n    tag_419:\n        /* \"#utility.yul\":20457:20491   */\n      tag_221\n      jump\t// in\n    tag_418:\n        /* \"#utility.yul\":20439:20492   */\n      tag_171\n      jump\t// in\n    tag_417:\n        /* \"#utility.yul\":20426:20492   */\n      swap1\n      pop\n        /* \"#utility.yul\":20356:20498   */\n      swap2\n      swap1\n      pop\n      jump\t// out\n        /* \"#utility.yul\":20504:20579   */\n    tag_223:\n        /* \"#utility.yul\":20547:20550   */\n      0x00\n        /* \"#utility.yul\":20568:20573   */\n      dup2\n        /* \"#utility.yul\":20561:20573   */\n      swap1\n      pop\n        /* \"#utility.yul\":20504:20579   */\n      swap2\n      swap1\n      pop\n      jump\t// out\n        /* \"#utility.yul\":20585:20854   */\n    tag_224:\n        /* \"#utility.yul\":20695:20734   */\n      tag_422\n        /* \"#utility.yul\":20726:20733   */\n      dup4\n        /* \"#utility.yul\":20695:20734   */\n      tag_222\n      jump\t// in\n    tag_422:\n        /* \"#utility.yul\":20756:20847   */\n      tag_423\n        /* \"#utility.yul\":20805:20846   */\n      tag_424\n        /* \"#utility.yul\":20829:20845   */\n      dup3\n        /* \"#utility.yul\":20805:20846   */\n      tag_223\n      jump\t// in\n    tag_424:\n        /* \"#utility.yul\":20797:20803   */\n      dup5\n        /* \"#utility.yul\":20790:20794   */\n      dup5\n        /* \"#utility.yul\":20784:20795   */\n      sload\n        /* \"#utility.yul\":20756:20847   */\n      tag_220\n      jump\t// in\n    tag_423:\n        /* \"#utility.yul\":20750:20754   */\n      dup3\n        /* \"#utility.yul\":20743:20848   */\n      sstore\n        /* \"#utility.yul\":20661:20854   */\n      pop\n        /* \"#utility.yul\":20585:20854   */\n      pop\n      pop\n      pop\n      jump\t// out\n        /* \"#utility.yul\":20860:20933   */\n    tag_225:\n        /* \"#utility.yul\":20905:20908   */\n      0x00\n        /* \"#utility.yul\":20860:20933   */\n      swap1\n      jump\t// out\n        /* \"#utility.yul\":20939:21128   */\n    tag_226:\n        /* \"#utility.yul\":21016:21048   */\n      tag_427\n      tag_225\n      jump\t// in\n    tag_427:\n        /* \"#utility.yul\":21057:21122   */\n      tag_428\n        /* \"#utility.yul\":21115:21121   */\n      dup2\n        /* \"#utility.yul\":21107:21113   */\n      dup5\n        /* \"#utility.yul\":21101:21105   */\n      dup5\n        /* \"#utility.yul\":21057:21122   */\n      tag_224\n      jump\t// in\n    tag_428:\n        /* \"#utility.yul\":20992:21128   */\n      pop\n        /* \"#utility.yul\":20939:21128   */\n      pop\n      pop\n      jump\t// out\n        /* \"#utility.yul\":21134:21320   */\n    tag_227:\n        /* \"#utility.yul\":21194:21314   */\n    tag_430:\n        /* \"#utility.yul\":21211:21214   */\n      dup2\n        /* \"#utility.yul\":21204:21209   */\n      dup2\n        /* \"#utility.yul\":21201:21215   */\n      lt\n        /* \"#utility.yul\":21194:21314   */\n      iszero\n      tag_432\n      jumpi\n        /* \"#utility.yul\":21265:21304   */\n      tag_433\n        /* \"#utility.yul\":21302:21303   */\n      0x00\n        /* \"#utility.yul\":21295:21300   */\n      dup3\n        /* \"#utility.yul\":21265:21304   */\n      tag_226\n      jump\t// in\n    tag_433:\n        /* \"#utility.yul\":21238:21239   */\n      0x01\n        /* \"#utility.yul\":21231:21236   */\n      dup2\n        /* \"#utility.yul\":21227:21240   */\n      add\n        /* \"#utility.yul\":21218:21240   */\n      swap1\n      pop\n        /* \"#utility.yul\":21194:21314   */\n      jump(tag_430)\n    tag_432:\n        /* \"#utility.yul\":21134:21320   */\n      pop\n      pop\n      jump\t// out\n        /* \"#utility.yul\":21326:21869   */\n    tag_228:\n        /* \"#utility.yul\":21427:21429   */\n      0x1f\n        /* \"#utility.yul\":21422:21425   */\n      dup3\n        /* \"#utility.yul\":21419:21430   */\n      gt\n        /* \"#utility.yul\":21416:21862   */\n      iszero\n      tag_435\n      jumpi\n        /* \"#utility.yul\":21461:21499   */\n      tag_436\n        /* \"#utility.yul\":21493:21498   */\n      dup2\n        /* \"#utility.yul\":21461:21499   */\n      tag_217\n      jump\t// in\n    tag_436:\n        /* \"#utility.yul\":21545:21574   */\n      tag_437\n        /* \"#utility.yul\":21563:21573   */\n      dup5\n        /* \"#utility.yul\":21545:21574   */\n      tag_218\n      jump\t// in\n    tag_437:\n        /* \"#utility.yul\":21535:21543   */\n      dup2\n        /* \"#utility.yul\":21531:21575   */\n      add\n        /* \"#utility.yul\":21728:21730   */\n      0x20\n        /* \"#utility.yul\":21716:21726   */\n      dup6\n        /* \"#utility.yul\":21713:21731   */\n      lt\n        /* \"#utility.yul\":21710:21759   */\n      iszero\n      tag_438\n      jumpi\n        /* \"#utility.yul\":21749:21757   */\n      dup2\n        /* \"#utility.yul\":21734:21757   */\n      swap1\n      pop\n        /* \"#utility.yul\":21710:21759   */\n    tag_438:\n        /* \"#utility.yul\":21772:21852   */\n      tag_439\n        /* \"#utility.yul\":21828:21850   */\n      tag_440\n        /* \"#utility.yul\":21846:21849   */\n      dup6\n        /* \"#utility.yul\":21828:21850   */\n      tag_218\n      jump\t// in\n    tag_440:\n        /* \"#utility.yul\":21818:21826   */\n      dup4\n        /* \"#utility.yul\":21814:21851   */\n      add\n        /* \"#utility.yul\":21801:21812   */\n      dup3\n        /* \"#utility.yul\":21772:21852   */\n      tag_227\n      jump\t// in\n    tag_439:\n        /* \"#utility.yul\":21431:21862   */\n      pop\n      pop\n        /* \"#utility.yul\":21416:21862   */\n    tag_435:\n        /* \"#utility.yul\":21326:21869   */\n      pop\n      pop\n      pop\n      jump\t// out\n        /* \"#utility.yul\":21875:21992   */\n    tag_229:\n        /* \"#utility.yul\":21929:21937   */\n      0x00\n        /* \"#utility.yul\":21979:21984   */\n      dup3\n        /* \"#utility.yul\":21973:21977   */\n      dup3\n        /* \"#utility.yul\":21969:21985   */\n      shr\n        /* \"#utility.yul\":21948:21985   */\n      swap1\n      pop\n        /* \"#utility.yul\":21875:21992   */\n      swap3\n      swap2\n      pop\n      pop\n      jump\t// out\n        /* \"#utility.yul\":21998:22167   */\n    tag_230:\n        /* \"#utility.yul\":22042:22048   */\n      0x00\n        /* \"#utility.yul\":22075:22126   */\n      tag_443\n        /* \"#utility.yul\":22123:22124   */\n      0x00\n        /* \"#utility.yul\":22119:22125   */\n      not\n        /* \"#utility.yul\":22111:22116   */\n      dup5\n        /* \"#utility.yul\":22108:22109   */\n      0x08\n        /* \"#utility.yul\":22104:22117   */\n      mul\n        /* \"#utility.yul\":22075:22126   */\n      tag_229\n      jump\t// in\n    tag_443:\n        /* \"#utility.yul\":22071:22127   */\n      not\n        /* \"#utility.yul\":22156:22160   */\n      dup1\n        /* \"#utility.yul\":22150:22154   */\n      dup4\n        /* \"#utility.yul\":22146:22161   */\n      and\n        /* \"#utility.yul\":22136:22161   */\n      swap2\n      pop\n        /* \"#utility.yul\":22049:22167   */\n      pop\n        /* \"#utility.yul\":21998:22167   */\n      swap3\n      swap2\n      pop\n      pop\n      jump\t// out\n        /* \"#utility.yul\":22172:22467   */\n    tag_231:\n        /* \"#utility.yul\":22248:22252   */\n      0x00\n        /* \"#utility.yul\":22394:22423   */\n      tag_445\n        /* \"#utility.yul\":22419:22422   */\n      dup4\n        /* \"#utility.yul\":22413:22417   */\n      dup4\n        /* \"#utility.yul\":22394:22423   */\n      tag_230\n      jump\t// in\n    tag_445:\n        /* \"#utility.yul\":22386:22423   */\n      swap2\n      pop\n        /* \"#utility.yul\":22456:22459   */\n      dup3\n        /* \"#utility.yul\":22453:22454   */\n      0x02\n        /* \"#utility.yul\":22449:22460   */\n      mul\n        /* \"#utility.yul\":22443:22447   */\n      dup3\n        /* \"#utility.yul\":22440:22461   */\n      or\n        /* \"#utility.yul\":22432:22461   */\n      swap1\n      pop\n        /* \"#utility.yul\":22172:22467   */\n      swap3\n      swap2\n      pop\n      pop\n      jump\t// out\n        /* \"#utility.yul\":22472:23867   */\n    tag_144:\n        /* \"#utility.yul\":22589:22626   */\n      tag_447\n        /* \"#utility.yul\":22622:22625   */\n      dup3\n        /* \"#utility.yul\":22589:22626   */\n      tag_179\n      jump\t// in\n    tag_447:\n        /* \"#utility.yul\":22691:22709   */\n      0xffffffffffffffff\n        /* \"#utility.yul\":22683:22689   */\n      dup2\n        /* \"#utility.yul\":22680:22710   */\n      gt\n        /* \"#utility.yul\":22677:22733   */\n      iszero\n      tag_448\n      jumpi\n        /* \"#utility.yul\":22713:22731   */\n      tag_449\n      tag_186\n      jump\t// in\n    tag_449:\n        /* \"#utility.yul\":22677:22733   */\n    tag_448:\n        /* \"#utility.yul\":22757:22795   */\n      tag_450\n        /* \"#utility.yul\":22789:22793   */\n      dup3\n        /* \"#utility.yul\":22783:22794   */\n      sload\n        /* \"#utility.yul\":22757:22795   */\n      tag_101\n      jump\t// in\n    tag_450:\n        /* \"#utility.yul\":22842:22909   */\n      tag_451\n        /* \"#utility.yul\":22902:22908   */\n      dup3\n        /* \"#utility.yul\":22894:22900   */\n      dup3\n        /* \"#utility.yul\":22888:22892   */\n      dup6\n        /* \"#utility.yul\":22842:22909   */\n      tag_228\n      jump\t// in\n    tag_451:\n        /* \"#utility.yul\":22936:22937   */\n      0x00\n        /* \"#utility.yul\":22960:22964   */\n      0x20\n        /* \"#utility.yul\":22947:22964   */\n      swap1\n      pop\n        /* \"#utility.yul\":22992:22994   */\n      0x1f\n        /* \"#utility.yul\":22984:22990   */\n      dup4\n        /* \"#utility.yul\":22981:22995   */\n      gt\n        /* \"#utility.yul\":23009:23010   */\n      0x01\n        /* \"#utility.yul\":23004:23622   */\n      dup2\n      eq\n      tag_453\n      jumpi\n        /* \"#utility.yul\":23666:23667   */\n      0x00\n        /* \"#utility.yul\":23683:23689   */\n      dup5\n        /* \"#utility.yul\":23680:23757   */\n      iszero\n      tag_454\n      jumpi\n        /* \"#utility.yul\":23732:23741   */\n      dup3\n        /* \"#utility.yul\":23727:23730   */\n      dup8\n        /* \"#utility.yul\":23723:23742   */\n      add\n        /* \"#utility.yul\":23717:23743   */\n      mload\n        /* \"#utility.yul\":23708:23743   */\n      swap1\n      pop\n        /* \"#utility.yul\":23680:23757   */\n    tag_454:\n        /* \"#utility.yul\":23783:23850   */\n      tag_455\n        /* \"#utility.yul\":23843:23849   */\n      dup6\n        /* \"#utility.yul\":23836:23841   */\n      dup3\n        /* \"#utility.yul\":23783:23850   */\n      tag_231\n      jump\t// in\n    tag_455:\n        /* \"#utility.yul\":23777:23781   */\n      dup7\n        /* \"#utility.yul\":23770:23851   */\n      sstore\n        /* \"#utility.yul\":23639:23861   */\n      pop\n        /* \"#utility.yul\":22974:23861   */\n      jump(tag_452)\n        /* \"#utility.yul\":23004:23622   */\n    tag_453:\n        /* \"#utility.yul\":23056:23060   */\n      0x1f\n        /* \"#utility.yul\":23052:23061   */\n      not\n        /* \"#utility.yul\":23044:23050   */\n      dup5\n        /* \"#utility.yul\":23040:23062   */\n      and\n        /* \"#utility.yul\":23090:23127   */\n      tag_456\n        /* \"#utility.yul\":23122:23126   */\n      dup7\n        /* \"#utility.yul\":23090:23127   */\n      tag_217\n      jump\t// in\n    tag_456:\n        /* \"#utility.yul\":23149:23150   */\n      0x00\n        /* \"#utility.yul\":23163:23371   */\n    tag_457:\n        /* \"#utility.yul\":23177:23184   */\n      dup3\n        /* \"#utility.yul\":23174:23175   */\n      dup2\n        /* \"#utility.yul\":23171:23185   */\n      lt\n        /* \"#utility.yul\":23163:23371   */\n      iszero\n      tag_459\n      jumpi\n        /* \"#utility.yul\":23256:23265   */\n      dup5\n        /* \"#utility.yul\":23251:23254   */\n      dup10\n        /* \"#utility.yul\":23247:23266   */\n      add\n        /* \"#utility.yul\":23241:23267   */\n      mload\n        /* \"#utility.yul\":23233:23239   */\n      dup3\n        /* \"#utility.yul\":23226:23268   */\n      sstore\n        /* \"#utility.yul\":23307:23308   */\n      0x01\n        /* \"#utility.yul\":23299:23305   */\n      dup3\n        /* \"#utility.yul\":23295:23309   */\n      add\n        /* \"#utility.yul\":23285:23309   */\n      swap2\n      pop\n        /* \"#utility.yul\":23354:23356   */\n      0x20\n        /* \"#utility.yul\":23343:23352   */\n      dup6\n        /* \"#utility.yul\":23339:23357   */\n      add\n        /* \"#utility.yul\":23326:23357   */\n      swap5\n      pop\n        /* \"#utility.yul\":23200:23204   */\n      0x20\n        /* \"#utility.yul\":23197:23198   */\n      dup2\n        /* \"#utility.yul\":23193:23205   */\n      add\n        /* \"#utility.yul\":23188:23205   */\n      swap1\n      pop\n        /* \"#utility.yul\":23163:23371   */\n      jump(tag_457)\n    tag_459:\n        /* \"#utility.yul\":23399:23405   */\n      dup7\n        /* \"#utility.yul\":23390:23397   */\n      dup4\n        /* \"#utility.yul\":23387:23406   */\n      lt\n        /* \"#utility.yul\":23384:23563   */\n      iszero\n      tag_460\n      jumpi\n        /* \"#utility.yul\":23457:23466   */\n      dup5\n        /* \"#utility.yul\":23452:23455   */\n      dup10\n        /* \"#utility.yul\":23448:23467   */\n      add\n        /* \"#utility.yul\":23442:23468   */\n      mload\n        /* \"#utility.yul\":23500:23548   */\n      tag_461\n        /* \"#utility.yul\":23542:23546   */\n      0x1f\n        /* \"#utility.yul\":23534:23540   */\n      dup10\n        /* \"#utility.yul\":23530:23547   */\n      and\n        /* \"#utility.yul\":23519:23528   */\n      dup3\n        /* \"#utility.yul\":23500:23548   */\n      tag_230\n      jump\t// in\n    tag_461:\n        /* \"#utility.yul\":23492:23498   */\n      dup4\n        /* \"#utility.yul\":23485:23549   */\n      sstore\n        /* \"#utility.yul\":23407:23563   */\n      pop\n        /* \"#utility.yul\":23384:23563   */\n    tag_460:\n        /* \"#utility.yul\":23609:23610   */\n      0x01\n        /* \"#utility.yul\":23605:23606   */\n      0x02\n        /* \"#utility.yul\":23597:23603   */\n      dup9\n        /* \"#utility.yul\":23593:23607   */\n      mul\n        /* \"#utility.yul\":23589:23611   */\n      add\n        /* \"#utility.yul\":23583:23587   */\n      dup9\n        /* \"#utility.yul\":23576:23612   */\n      sstore\n        /* \"#utility.yul\":23011:23622   */\n      pop\n      pop\n      pop\n        /* \"#utility.yul\":22974:23861   */\n    tag_452:\n      pop\n        /* \"#utility.yul\":22564:23867   */\n      pop\n      pop\n      pop\n        /* \"#utility.yul\":22472:23867   */\n      pop\n      pop\n      jump\t// out\n        /* \"#utility.yul\":23873:24053   */\n    tag_150:\n        /* \"#utility.yul\":23921:23998   */\n      0x4e487b7100000000000000000000000000000000000000000000000000000000\n        /* \"#utility.yul\":23918:23919   */\n      0x00\n        /* \"#utility.yul\":23911:23999   */\n      mstore\n        /* \"#utility.yul\":24018:24022   */\n      0x32\n        /* \"#utility.yul\":24015:24016   */\n      0x04\n        /* \"#utility.yul\":24008:24023   */\n      mstore\n        /* \"#utility.yul\":24042:24046   */\n      0x24\n        /* \"#utility.yul\":24039:24040   */\n      0x00\n        /* \"#utility.yul\":24032:24047   */\n      revert\n        /* \"#utility.yul\":24059:24145   */\n    tag_232:\n        /* \"#utility.yul\":24094:24101   */\n      0x00\n        /* \"#utility.yul\":24134:24138   */\n      0xff\n        /* \"#utility.yul\":24127:24132   */\n      dup3\n        /* \"#utility.yul\":24123:24139   */\n      and\n        /* \"#utility.yul\":24112:24139   */\n      swap1\n      pop\n        /* \"#utility.yul\":24059:24145   */\n      swap2\n      swap1\n      pop\n      jump\t// out\n        /* \"#utility.yul\":24151:24318   */\n    tag_158:\n        /* \"#utility.yul\":24188:24191   */\n      0x00\n        /* \"#utility.yul\":24211:24233   */\n      tag_465\n        /* \"#utility.yul\":24227:24232   */\n      dup3\n        /* \"#utility.yul\":24211:24233   */\n      tag_232\n      jump\t// in\n    tag_465:\n        /* \"#utility.yul\":24202:24233   */\n      swap2\n      pop\n        /* \"#utility.yul\":24255:24259   */\n      0xff\n        /* \"#utility.yul\":24248:24253   */\n      dup3\n        /* \"#utility.yul\":24245:24260   */\n      sub\n        /* \"#utility.yul\":24242:24283   */\n      tag_466\n      jumpi\n        /* \"#utility.yul\":24263:24281   */\n      tag_467\n      tag_211\n      jump\t// in\n    tag_467:\n        /* \"#utility.yul\":24242:24283   */\n    tag_466:\n        /* \"#utility.yul\":24310:24311   */\n      0x01\n        /* \"#utility.yul\":24303:24308   */\n      dup3\n        /* \"#utility.yul\":24299:24312   */\n      add\n        /* \"#utility.yul\":24292:24312   */\n      swap1\n      pop\n        /* \"#utility.yul\":24151:24318   */\n      swap2\n      swap1\n      pop\n      jump\t// out\n\n    auxdata: 0xa264697066735822122090697677a1cd1b969215245ac84a3c2499e1a5c0309b6b155c9cc77769c3eb5464736f6c634300080f0033\n}\n",
				"bytecode": {
					"linkReferences": {},
					"object": "60806040523480156200001157600080fd5b50604051620029ed380380620029ed833981810160405281019062000037919062000350565b33600360006101000a81548173ffffffffffffffffffffffffffffffffffffffff021916908373ffffffffffffffffffffffffffffffffffffffff1602179055508142620000869190620003fa565b600181905550806004819055506000600581905550600060068190555060006007819055506040518060400160405280600881526020017f52656a656374656400000000000000000000000000000000000000000000000081525060029081620000f1919062000698565b50306000806101000a81548173ffffffffffffffffffffffffffffffffffffffff021916908373ffffffffffffffffffffffffffffffffffffffff16021790555060405180604001604052806000815260200184815250600b6000820151816000015560208201518160010190816200016b919062000698565b509050505050506200077f565b6000604051905090565b600080fd5b600080fd5b600080fd5b600080fd5b6000601f19601f8301169050919050565b7f4e487b7100000000000000000000000000000000000000000000000000000000600052604160045260246000fd5b620001e18262000196565b810181811067ffffffffffffffff82111715620002035762000202620001a7565b5b80604052505050565b60006200021862000178565b9050620002268282620001d6565b919050565b600067ffffffffffffffff821115620002495762000248620001a7565b5b620002548262000196565b9050602081019050919050565b60005b838110156200028157808201518184015260208101905062000264565b8381111562000291576000848401525b50505050565b6000620002ae620002a8846200022b565b6200020c565b905082815260208101848484011115620002cd57620002cc62000191565b5b620002da84828562000261565b509392505050565b600082601f830112620002fa57620002f96200018c565b5b81516200030c84826020860162000297565b91505092915050565b6000819050919050565b6200032a8162000315565b81146200033657600080fd5b50565b6000815190506200034a816200031f565b92915050565b6000806000606084860312156200036c576200036b62000182565b5b600084015167ffffffffffffffff8111156200038d576200038c62000187565b5b6200039b86828701620002e2565b9350506020620003ae8682870162000339565b9250506040620003c18682870162000339565b9150509250925092565b7f4e487b7100000000000000000000000000000000000000000000000000000000600052601160045260246000fd5b6000620004078262000315565b9150620004148362000315565b9250827fffffffffffffffffffffffffffffffffffffffffffffffffffffffffffffffff038211156200044c576200044b620003cb565b5b828201905092915050565b600081519050919050565b7f4e487b7100000000000000000000000000000000000000000000000000000000600052602260045260246000fd5b60006002820490506001821680620004aa57607f821691505b602082108103620004c057620004bf62000462565b5b50919050565b60008190508160005260206000209050919050565b60006020601f8301049050919050565b600082821b905092915050565b6000600883026200052a7fffffffffffffffffffffffffffffffffffffffffffffffffffffffffffffffff82620004eb565b620005368683620004eb565b95508019841693508086168417925050509392505050565b6000819050919050565b600062000579620005736200056d8462000315565b6200054e565b62000315565b9050919050565b6000819050919050565b620005958362000558565b620005ad620005a48262000580565b848454620004f8565b825550505050565b600090565b620005c4620005b5565b620005d18184846200058a565b505050565b5b81811015620005f957620005ed600082620005ba565b600181019050620005d7565b5050565b601f82111562000648576200061281620004c6565b6200061d84620004db565b810160208510156200062d578190505b620006456200063c85620004db565b830182620005d6565b50505b505050565b600082821c905092915050565b60006200066d600019846008026200064d565b1980831691505092915050565b60006200068883836200065a565b9150826002028217905092915050565b620006a38262000457565b67ffffffffffffffff811115620006bf57620006be620001a7565b5b620006cb825462000491565b620006d8828285620005fd565b600060209050601f831160018114620007105760008415620006fb578287015190505b6200070785826200067a565b86555062000777565b601f1984166200072086620004c6565b60005b828110156200074a5784890151825560018201915060208501945060208101905062000723565b868310156200076a578489015162000766601f8916826200065a565b8355505b6001600288020188555050505b505050505050565b61225e806200078f6000396000f3fe608060405234801561001057600080fd5b50600436106101005760003560e01c8063753ec10311610097578063b9a2925011610066578063b9a2925014610294578063d77aa749146102b2578063da58c7d9146102d0578063f6b4dfb41461030257610100565b8063753ec1031461021757806395b02dfa146102365780639aa4bbdd14610240578063a5ea11da1461027257610100565b80635361a0ea116100d35780635361a0ea1461018b5780635c39fcc1146101bd578063604c8333146101db5780637403c5e5146101f957610100565b80630cb6aaf11461010557806315fe6f1b1461013557806319eb4a9014610151578063323082d71461016f575b600080fd5b61011f600480360381019061011a9190611510565b610320565b60405161012c919061157e565b60405180910390f35b61014f600480360381019061014a91906115c5565b61035f565b005b610159610700565b604051610166919061168b565b60405180910390f35b610189600480360381019061018491906117e2565b610795565b005b6101a560048036038101906101a091906115c5565b610dc1565b6040516101b493929190611846565b60405180910390f35b6101c5610ed6565b6040516101d2919061157e565b60405180910390f35b6101e3610efc565b6040516101f0919061188c565b60405180910390f35b610201610f02565b60405161020e919061188c565b60405180910390f35b61021f610f08565b60405161022d9291906118a7565b60405180910390f35b61023e610fa2565b005b61025a600480360381019061025591906115c5565b6112ec565b604051610269939291906118d7565b60405180910390f35b61027a611350565b60405161028b95949392919061190e565b60405180910390f35b61029c611426565b6040516102a9919061188c565b60405180910390f35b6102ba61142c565b6040516102c7919061188c565b60405180910390f35b6102ea60048036038101906102e59190611510565b611432565b6040516102f9939291906118d7565b60405180910390f35b61030a6114a2565b604051610317919061157e565b60405180910390f35b6009818154811061033057600080fd5b906000526020600020016000915054906101000a900473ffffffffffffffffffffffffffffffffffffffff1681565b600360009054906101000a900473ffffffffffffffffffffffffffffffffffffffff1673ffffffffffffffffffffffffffffffffffffffff163373ffffffffffffffffffffffffffffffffffffffff16146103ef576040517f08c379a00000000000000000000000000000000000000000000000000000000081526004016103e6906119da565b60405180910390fd5b600360009054906101000a900473ffffffffffffffffffffffffffffffffffffffff1673ffffffffffffffffffffffffffffffffffffffff168173ffffffffffffffffffffffffffffffffffffffff160361047f576040517f08c379a000000000000000000000000000000000000000000000000000000000815260040161047690611a46565b60405180910390fd5b600073ffffffffffffffffffffffffffffffffffffffff16600a60008373ffffffffffffffffffffffffffffffffffffffff1673ffffffffffffffffffffffffffffffffffffffff16815260200190815260200160002060000160019054906101000a900473ffffffffffffffffffffffffffffffffffffffff1673ffffffffffffffffffffffffffffffffffffffff1614610550576040517f08c379a000000000000000000000000000000000000000000000000000000000815260040161054790611ab2565b60405180910390fd5b6001544210610594576040517f08c379a000000000000000000000000000000000000000000000000000000000815260040161058b90611b44565b60405180910390fd5b600060405180606001604052806000151581526020018373ffffffffffffffffffffffffffffffffffffffff16815260200160001515815250905080600a60008473ffffffffffffffffffffffffffffffffffffffff1673ffffffffffffffffffffffffffffffffffffffff16815260200190815260200160002060008201518160000160006101000a81548160ff02191690831515021790555060208201518160000160016101000a81548173ffffffffffffffffffffffffffffffffffffffff021916908373ffffffffffffffffffffffffffffffffffffffff16021790555060408201518160000160156101000a81548160ff0219169083151502179055509050506009829080600181540180825580915050600190039060005260206000200160009091909190916101000a81548173ffffffffffffffffffffffffffffffffffffffff021916908373ffffffffffffffffffffffffffffffffffffffff1602179055505050565b6060600b600101805461071290611b93565b80601f016020809104026020016040519081016040528092919081815260200182805461073e90611b93565b801561078b5780601f106107605761010080835404028352916020019161078b565b820191906000526020600020905b81548152906001019060200180831161076e57829003601f168201915b5050505050905090565b60015442106107d9576040517f08c379a00000000000000000000000000000000000000000000000000000000081526004016107d090611c10565b60405180910390fd5b6000600a60003373ffffffffffffffffffffffffffffffffffffffff1673ffffffffffffffffffffffffffffffffffffffff1681526020019081526020016000206040518060600160405290816000820160009054906101000a900460ff161515151581526020016000820160019054906101000a900473ffffffffffffffffffffffffffffffffffffffff1673ffffffffffffffffffffffffffffffffffffffff1673ffffffffffffffffffffffffffffffffffffffff1681526020016000820160159054906101000a900460ff1615151515815250509050600073ffffffffffffffffffffffffffffffffffffffff16816020015173ffffffffffffffffffffffffffffffffffffffff1603610926576040517f08c379a000000000000000000000000000000000000000000000000000000000815260040161091d90611c7c565b60405180910390fd5b80600001511561096b576040517f08c379a000000000000000000000000000000000000000000000000000000000815260040161096290611ce8565b60405180910390fd5b6040518060400160405280600981526020017f6920617070726f7665000000000000000000000000000000000000000000000081525080519060200120828051906020012003610bd0576001600a60003373ffffffffffffffffffffffffffffffffffffffff1673ffffffffffffffffffffffffffffffffffffffff16815260200190815260200160002060000160006101000a81548160ff0219169083151502179055506001600a60003373ffffffffffffffffffffffffffffffffffffffff1673ffffffffffffffffffffffffffffffffffffffff16815260200190815260200160002060000160156101000a81548160ff021916908315150217905550600160066000828254610a7e9190611d37565b925050819055506001600b6000016000828254610a9b9190611d37565b925050819055506008600a60003373ffffffffffffffffffffffffffffffffffffffff1673ffffffffffffffffffffffffffffffffffffffff168152602001908152602001600020908060018154018082558091505060019003906000526020600020016000909190919091506000820160009054906101000a900460ff168160000160006101000a81548160ff0219169083151502179055506000820160019054906101000a900473ffffffffffffffffffffffffffffffffffffffff168160000160016101000a81548173ffffffffffffffffffffffffffffffffffffffff021916908373ffffffffffffffffffffffffffffffffffffffff1602179055506000820160159054906101000a900460ff168160000160156101000a81548160ff0219169083151502179055505050610dbd565b6040518060400160405280600c81526020017f6920646973617070726f7665000000000000000000000000000000000000000081525080519060200120828051906020012003610dbc576001600a60003373ffffffffffffffffffffffffffffffffffffffff1673ffffffffffffffffffffffffffffffffffffffff16815260200190815260200160002060000160006101000a81548160ff0219169083151502179055506001600b6000016000828254610c8b9190611d37565b925050819055506008600a60003373ffffffffffffffffffffffffffffffffffffffff1673ffffffffffffffffffffffffffffffffffffffff168152602001908152602001600020908060018154018082558091505060019003906000526020600020016000909190919091506000820160009054906101000a900460ff168160000160006101000a81548160ff0219169083151502179055506000820160019054906101000a900473ffffffffffffffffffffffffffffffffffffffff168160000160016101000a81548173ffffffffffffffffffffffffffffffffffffffff021916908373ffffffffffffffffffffffffffffffffffffffff1602179055506000820160159054906101000a900460ff168160000160156101000a81548160ff02191690831515021790555050505b5b5050565b6000806000600a60008573ffffffffffffffffffffffffffffffffffffffff1673ffffffffffffffffffffffffffffffffffffffff16815260200190815260200160002060000160159054906101000a900460ff16600a60008673ffffffffffffffffffffffffffffffffffffffff1673ffffffffffffffffffffffffffffffffffffffff16815260200190815260200160002060000160009054906101000a900460ff16600a60008773ffffffffffffffffffffffffffffffffffffffff1673ffffffffffffffffffffffffffffffffffffffff16815260200190815260200160002060000160019054906101000a900473ffffffffffffffffffffffffffffffffffffffff169250925092509193909250565b600360009054906101000a900473ffffffffffffffffffffffffffffffffffffffff1681565b60055481565b60065481565b600b806000015490806001018054610f1f90611b93565b80601f0160208091040260200160405190810160405280929190818152602001828054610f4b90611b93565b8015610f985780601f10610f6d57610100808354040283529160200191610f98565b820191906000526020600020905b815481529060010190602001808311610f7b57829003601f168201915b5050505050905082565b600154421015610fe7576040517f08c379a0000000000000000000000000000000000000000000000000000000008152600401610fde90611dd9565b60405180910390fd5b60006007541461102c576040517f08c379a000000000000000000000000000000000000000000000000000000000815260040161102390611e6b565b60405180910390fd5b60646009805490506006546110419190611eba565b61104b9190611eeb565b600581905550600454600554106110a2576040518060400160405280600881526020017f4163636570746564000000000000000000000000000000000000000000000000815250600290816110a091906120f1565b505b60005b6009805490508160ff1610156112cf5760001515600a600060098460ff16815481106110d4576110d36121c3565b5b9060005260206000200160009054906101000a900473ffffffffffffffffffffffffffffffffffffffff1673ffffffffffffffffffffffffffffffffffffffff1673ffffffffffffffffffffffffffffffffffffffff16815260200190815260200160002060000160009054906101000a900460ff161515036112bc576008600a600060098460ff168154811061116e5761116d6121c3565b5b9060005260206000200160009054906101000a900473ffffffffffffffffffffffffffffffffffffffff1673ffffffffffffffffffffffffffffffffffffffff1673ffffffffffffffffffffffffffffffffffffffff168152602001908152602001600020908060018154018082558091505060019003906000526020600020016000909190919091506000820160009054906101000a900460ff168160000160006101000a81548160ff0219169083151502179055506000820160019054906101000a900473ffffffffffffffffffffffffffffffffffffffff168160000160016101000a81548173ffffffffffffffffffffffffffffffffffffffff021916908373ffffffffffffffffffffffffffffffffffffffff1602179055506000820160159054906101000a900460ff168160000160156101000a81548160ff02191690831515021790555050505b80806112c7906121ff565b9150506110a5565b506001600760008282546112e39190611d37565b92505081905550565b600a6020528060005260406000206000915090508060000160009054906101000a900460ff16908060000160019054906101000a900473ffffffffffffffffffffffffffffffffffffffff16908060000160159054906101000a900460ff16905083565b6060600080600080600b600101600154600360009054906101000a900473ffffffffffffffffffffffffffffffffffffffff1660045460065484805461139590611b93565b80601f01602080910402602001604051908101604052809291908181526020018280546113c190611b93565b801561140e5780601f106113e35761010080835404028352916020019161140e565b820191906000526020600020905b8154815290600101906020018083116113f157829003601f168201915b50505050509450945094509450945094509091929394565b60075481565b60045481565b6008818154811061144257600080fd5b906000526020600020016000915090508060000160009054906101000a900460ff16908060000160019054906101000a900473ffffffffffffffffffffffffffffffffffffffff16908060000160159054906101000a900460ff16905083565b60008054906101000a900473ffffffffffffffffffffffffffffffffffffffff1681565b6000604051905090565b600080fd5b600080fd5b6000819050919050565b6114ed816114da565b81146114f857600080fd5b50565b60008135905061150a816114e4565b92915050565b600060208284031215611526576115256114d0565b5b6000611534848285016114fb565b91505092915050565b600073ffffffffffffffffffffffffffffffffffffffff82169050919050565b60006115688261153d565b9050919050565b6115788161155d565b82525050565b6000602082019050611593600083018461156f565b92915050565b6115a28161155d565b81146115ad57600080fd5b50565b6000813590506115bf81611599565b92915050565b6000602082840312156115db576115da6114d0565b5b60006115e9848285016115b0565b91505092915050565b600081519050919050565b600082825260208201905092915050565b60005b8381101561162c578082015181840152602081019050611611565b8381111561163b576000848401525b50505050565b6000601f19601f8301169050919050565b600061165d826115f2565b61166781856115fd565b935061167781856020860161160e565b61168081611641565b840191505092915050565b600060208201905081810360008301526116a58184611652565b905092915050565b600080fd5b600080fd5b7f4e487b7100000000000000000000000000000000000000000000000000000000600052604160045260246000fd5b6116ef82611641565b810181811067ffffffffffffffff8211171561170e5761170d6116b7565b5b80604052505050565b60006117216114c6565b905061172d82826116e6565b919050565b600067ffffffffffffffff82111561174d5761174c6116b7565b5b61175682611641565b9050602081019050919050565b82818337600083830152505050565b600061178561178084611732565b611717565b9050828152602081018484840111156117a1576117a06116b2565b5b6117ac848285611763565b509392505050565b600082601f8301126117c9576117c86116ad565b5b81356117d9848260208601611772565b91505092915050565b6000602082840312156117f8576117f76114d0565b5b600082013567ffffffffffffffff811115611816576118156114d5565b5b611822848285016117b4565b91505092915050565b60008115159050919050565b6118408161182b565b82525050565b600060608201905061185b6000830186611837565b6118686020830185611837565b611875604083018461156f565b949350505050565b611886816114da565b82525050565b60006020820190506118a1600083018461187d565b92915050565b60006040820190506118bc600083018561187d565b81810360208301526118ce8184611652565b90509392505050565b60006060820190506118ec6000830186611837565b6118f9602083018561156f565b6119066040830184611837565b949350505050565b600060a08201905081810360008301526119288188611652565b9050611937602083018761187d565b611944604083018661156f565b611951606083018561187d565b61195e608083018461187d565b9695505050505050565b7f4f6e6c7920696e69746961746f722063616e207265676973746572206120726560008201527f63697069656e742e000000000000000000000000000000000000000000000000602082015250565b60006119c46028836115fd565b91506119cf82611968565b604082019050919050565b600060208201905081810360008301526119f3816119b7565b9050919050565b7f496e69746961746f722063616e277420766f7465210000000000000000000000600082015250565b6000611a306015836115fd565b9150611a3b826119fa565b602082019050919050565b60006020820190508181036000830152611a5f81611a23565b9050919050565b7f526563697069656e7420697320616c7265616479207265676973746572656400600082015250565b6000611a9c601f836115fd565b9150611aa782611a66565b602082019050919050565b60006020820190508181036000830152611acb81611a8f565b9050919050565b7f50726f706f73616c20686173207265616368656420697473206578706972792060008201527f6461746500000000000000000000000000000000000000000000000000000000602082015250565b6000611b2e6024836115fd565b9150611b3982611ad2565b604082019050919050565b60006020820190508181036000830152611b5d81611b21565b9050919050565b7f4e487b7100000000000000000000000000000000000000000000000000000000600052602260045260246000fd5b60006002820490506001821680611bab57607f821691505b602082108103611bbe57611bbd611b64565b5b50919050565b7f566f74696e672068617320657870697265640000000000000000000000000000600082015250565b6000611bfa6012836115fd565b9150611c0582611bc4565b602082019050919050565b60006020820190508181036000830152611c2981611bed565b9050919050565b7f596f7520617265206e6f74207265676973746572656420746f20766f74650000600082015250565b6000611c66601e836115fd565b9150611c7182611c30565b602082019050919050565b60006020820190508181036000830152611c9581611c59565b9050919050565b7f596f7520616c72656164792073656e74206120726573706f6e73652e00000000600082015250565b6000611cd2601c836115fd565b9150611cdd82611c9c565b602082019050919050565b60006020820190508181036000830152611d0181611cc5565b9050919050565b7f4e487b7100000000000000000000000000000000000000000000000000000000600052601160045260246000fd5b6000611d42826114da565b9150611d4d836114da565b9250827fffffffffffffffffffffffffffffffffffffffffffffffffffffffffffffffff03821115611d8257611d81611d08565b5b828201905092915050565b7f5665726469637420686173206e6f74206265656e207265616368656420796574600082015250565b6000611dc36020836115fd565b9150611dce82611d8d565b602082019050919050565b60006020820190508181036000830152611df281611db6565b9050919050565b7f436f6e73656e7375732068617320616c7265616479206265656e2063616c637560008201527f6c61746564000000000000000000000000000000000000000000000000000000602082015250565b6000611e556025836115fd565b9150611e6082611df9565b604082019050919050565b60006020820190508181036000830152611e8481611e48565b9050919050565b7f4e487b7100000000000000000000000000000000000000000000000000000000600052601260045260246000fd5b6000611ec5826114da565b9150611ed0836114da565b925082611ee057611edf611e8b565b5b828204905092915050565b6000611ef6826114da565b9150611f01836114da565b9250817fffffffffffffffffffffffffffffffffffffffffffffffffffffffffffffffff0483118215151615611f3a57611f39611d08565b5b828202905092915050565b60008190508160005260206000209050919050565b60006020601f8301049050919050565b600082821b905092915050565b600060088302611fa77fffffffffffffffffffffffffffffffffffffffffffffffffffffffffffffffff82611f6a565b611fb18683611f6a565b95508019841693508086168417925050509392505050565b6000819050919050565b6000611fee611fe9611fe4846114da565b611fc9565b6114da565b9050919050565b6000819050919050565b61200883611fd3565b61201c61201482611ff5565b848454611f77565b825550505050565b600090565b612031612024565b61203c818484611fff565b505050565b5b8181101561206057612055600082612029565b600181019050612042565b5050565b601f8211156120a55761207681611f45565b61207f84611f5a565b8101602085101561208e578190505b6120a261209a85611f5a565b830182612041565b50505b505050565b600082821c905092915050565b60006120c8600019846008026120aa565b1980831691505092915050565b60006120e183836120b7565b9150826002028217905092915050565b6120fa826115f2565b67ffffffffffffffff811115612113576121126116b7565b5b61211d8254611b93565b612128828285612064565b600060209050601f83116001811461215b5760008415612149578287015190505b61215385826120d5565b8655506121bb565b601f19841661216986611f45565b60005b828110156121915784890151825560018201915060208501945060208101905061216c565b868310156121ae57848901516121aa601f8916826120b7565b8355505b6001600288020188555050505b505050505050565b7f4e487b7100000000000000000000000000000000000000000000000000000000600052603260045260246000fd5b600060ff82169050919050565b600061220a826121f2565b915060ff820361221d5761221c611d08565b5b60018201905091905056fea264697066735822122090697677a1cd1b969215245ac84a3c2499e1a5c0309b6b155c9cc77769c3eb5464736f6c634300080f0033",
					"opcodes": "PUSH1 0x80 PUSH1 0x40 MSTORE CALLVALUE DUP1 ISZERO PUSH3 0x11 JUMPI PUSH1 0x0 DUP1 REVERT JUMPDEST POP PUSH1 0x40 MLOAD PUSH3 0x29ED CODESIZE SUB DUP1 PUSH3 0x29ED DUP4 CODECOPY DUP2 DUP2 ADD PUSH1 0x40 MSTORE DUP2 ADD SWAP1 PUSH3 0x37 SWAP2 SWAP1 PUSH3 0x350 JUMP JUMPDEST CALLER PUSH1 0x3 PUSH1 0x0 PUSH2 0x100 EXP DUP2 SLOAD DUP2 PUSH20 0xFFFFFFFFFFFFFFFFFFFFFFFFFFFFFFFFFFFFFFFF MUL NOT AND SWAP1 DUP4 PUSH20 0xFFFFFFFFFFFFFFFFFFFFFFFFFFFFFFFFFFFFFFFF AND MUL OR SWAP1 SSTORE POP DUP2 TIMESTAMP PUSH3 0x86 SWAP2 SWAP1 PUSH3 0x3FA JUMP JUMPDEST PUSH1 0x1 DUP2 SWAP1 SSTORE POP DUP1 PUSH1 0x4 DUP2 SWAP1 SSTORE POP PUSH1 0x0 PUSH1 0x5 DUP2 SWAP1 SSTORE POP PUSH1 0x0 PUSH1 0x6 DUP2 SWAP1 SSTORE POP PUSH1 0x0 PUSH1 0x7 DUP2 SWAP1 SSTORE POP PUSH1 0x40 MLOAD DUP1 PUSH1 0x40 ADD PUSH1 0x40 MSTORE DUP1 PUSH1 0x8 DUP2 MSTORE PUSH1 0x20 ADD PUSH32 0x52656A6563746564000000000000000000000000000000000000000000000000 DUP2 MSTORE POP PUSH1 0x2 SWAP1 DUP2 PUSH3 0xF1 SWAP2 SWAP1 PUSH3 0x698 JUMP JUMPDEST POP ADDRESS PUSH1 0x0 DUP1 PUSH2 0x100 EXP DUP2 SLOAD DUP2 PUSH20 0xFFFFFFFFFFFFFFFFFFFFFFFFFFFFFFFFFFFFFFFF MUL NOT AND SWAP1 DUP4 PUSH20 0xFFFFFFFFFFFFFFFFFFFFFFFFFFFFFFFFFFFFFFFF AND MUL OR SWAP1 SSTORE POP PUSH1 0x40 MLOAD DUP1 PUSH1 0x40 ADD PUSH1 0x40 MSTORE DUP1 PUSH1 0x0 DUP2 MSTORE PUSH1 0x20 ADD DUP5 DUP2 MSTORE POP PUSH1 0xB PUSH1 0x0 DUP3 ADD MLOAD DUP2 PUSH1 0x0 ADD SSTORE PUSH1 0x20 DUP3 ADD MLOAD DUP2 PUSH1 0x1 ADD SWAP1 DUP2 PUSH3 0x16B SWAP2 SWAP1 PUSH3 0x698 JUMP JUMPDEST POP SWAP1 POP POP POP POP POP PUSH3 0x77F JUMP JUMPDEST PUSH1 0x0 PUSH1 0x40 MLOAD SWAP1 POP SWAP1 JUMP JUMPDEST PUSH1 0x0 DUP1 REVERT JUMPDEST PUSH1 0x0 DUP1 REVERT JUMPDEST PUSH1 0x0 DUP1 REVERT JUMPDEST PUSH1 0x0 DUP1 REVERT JUMPDEST PUSH1 0x0 PUSH1 0x1F NOT PUSH1 0x1F DUP4 ADD AND SWAP1 POP SWAP2 SWAP1 POP JUMP JUMPDEST PUSH32 0x4E487B7100000000000000000000000000000000000000000000000000000000 PUSH1 0x0 MSTORE PUSH1 0x41 PUSH1 0x4 MSTORE PUSH1 0x24 PUSH1 0x0 REVERT JUMPDEST PUSH3 0x1E1 DUP3 PUSH3 0x196 JUMP JUMPDEST DUP2 ADD DUP2 DUP2 LT PUSH8 0xFFFFFFFFFFFFFFFF DUP3 GT OR ISZERO PUSH3 0x203 JUMPI PUSH3 0x202 PUSH3 0x1A7 JUMP JUMPDEST JUMPDEST DUP1 PUSH1 0x40 MSTORE POP POP POP JUMP JUMPDEST PUSH1 0x0 PUSH3 0x218 PUSH3 0x178 JUMP JUMPDEST SWAP1 POP PUSH3 0x226 DUP3 DUP3 PUSH3 0x1D6 JUMP JUMPDEST SWAP2 SWAP1 POP JUMP JUMPDEST PUSH1 0x0 PUSH8 0xFFFFFFFFFFFFFFFF DUP3 GT ISZERO PUSH3 0x249 JUMPI PUSH3 0x248 PUSH3 0x1A7 JUMP JUMPDEST JUMPDEST PUSH3 0x254 DUP3 PUSH3 0x196 JUMP JUMPDEST SWAP1 POP PUSH1 0x20 DUP2 ADD SWAP1 POP SWAP2 SWAP1 POP JUMP JUMPDEST PUSH1 0x0 JUMPDEST DUP4 DUP2 LT ISZERO PUSH3 0x281 JUMPI DUP1 DUP3 ADD MLOAD DUP2 DUP5 ADD MSTORE PUSH1 0x20 DUP2 ADD SWAP1 POP PUSH3 0x264 JUMP JUMPDEST DUP4 DUP2 GT ISZERO PUSH3 0x291 JUMPI PUSH1 0x0 DUP5 DUP5 ADD MSTORE JUMPDEST POP POP POP POP JUMP JUMPDEST PUSH1 0x0 PUSH3 0x2AE PUSH3 0x2A8 DUP5 PUSH3 0x22B JUMP JUMPDEST PUSH3 0x20C JUMP JUMPDEST SWAP1 POP DUP3 DUP2 MSTORE PUSH1 0x20 DUP2 ADD DUP5 DUP5 DUP5 ADD GT ISZERO PUSH3 0x2CD JUMPI PUSH3 0x2CC PUSH3 0x191 JUMP JUMPDEST JUMPDEST PUSH3 0x2DA DUP5 DUP3 DUP6 PUSH3 0x261 JUMP JUMPDEST POP SWAP4 SWAP3 POP POP POP JUMP JUMPDEST PUSH1 0x0 DUP3 PUSH1 0x1F DUP4 ADD SLT PUSH3 0x2FA JUMPI PUSH3 0x2F9 PUSH3 0x18C JUMP JUMPDEST JUMPDEST DUP2 MLOAD PUSH3 0x30C DUP5 DUP3 PUSH1 0x20 DUP7 ADD PUSH3 0x297 JUMP JUMPDEST SWAP2 POP POP SWAP3 SWAP2 POP POP JUMP JUMPDEST PUSH1 0x0 DUP2 SWAP1 POP SWAP2 SWAP1 POP JUMP JUMPDEST PUSH3 0x32A DUP2 PUSH3 0x315 JUMP JUMPDEST DUP2 EQ PUSH3 0x336 JUMPI PUSH1 0x0 DUP1 REVERT JUMPDEST POP JUMP JUMPDEST PUSH1 0x0 DUP2 MLOAD SWAP1 POP PUSH3 0x34A DUP2 PUSH3 0x31F JUMP JUMPDEST SWAP3 SWAP2 POP POP JUMP JUMPDEST PUSH1 0x0 DUP1 PUSH1 0x0 PUSH1 0x60 DUP5 DUP7 SUB SLT ISZERO PUSH3 0x36C JUMPI PUSH3 0x36B PUSH3 0x182 JUMP JUMPDEST JUMPDEST PUSH1 0x0 DUP5 ADD MLOAD PUSH8 0xFFFFFFFFFFFFFFFF DUP2 GT ISZERO PUSH3 0x38D JUMPI PUSH3 0x38C PUSH3 0x187 JUMP JUMPDEST JUMPDEST PUSH3 0x39B DUP7 DUP3 DUP8 ADD PUSH3 0x2E2 JUMP JUMPDEST SWAP4 POP POP PUSH1 0x20 PUSH3 0x3AE DUP7 DUP3 DUP8 ADD PUSH3 0x339 JUMP JUMPDEST SWAP3 POP POP PUSH1 0x40 PUSH3 0x3C1 DUP7 DUP3 DUP8 ADD PUSH3 0x339 JUMP JUMPDEST SWAP2 POP POP SWAP3 POP SWAP3 POP SWAP3 JUMP JUMPDEST PUSH32 0x4E487B7100000000000000000000000000000000000000000000000000000000 PUSH1 0x0 MSTORE PUSH1 0x11 PUSH1 0x4 MSTORE PUSH1 0x24 PUSH1 0x0 REVERT JUMPDEST PUSH1 0x0 PUSH3 0x407 DUP3 PUSH3 0x315 JUMP JUMPDEST SWAP2 POP PUSH3 0x414 DUP4 PUSH3 0x315 JUMP JUMPDEST SWAP3 POP DUP3 PUSH32 0xFFFFFFFFFFFFFFFFFFFFFFFFFFFFFFFFFFFFFFFFFFFFFFFFFFFFFFFFFFFFFFFF SUB DUP3 GT ISZERO PUSH3 0x44C JUMPI PUSH3 0x44B PUSH3 0x3CB JUMP JUMPDEST JUMPDEST DUP3 DUP3 ADD SWAP1 POP SWAP3 SWAP2 POP POP JUMP JUMPDEST PUSH1 0x0 DUP2 MLOAD SWAP1 POP SWAP2 SWAP1 POP JUMP JUMPDEST PUSH32 0x4E487B7100000000000000000000000000000000000000000000000000000000 PUSH1 0x0 MSTORE PUSH1 0x22 PUSH1 0x4 MSTORE PUSH1 0x24 PUSH1 0x0 REVERT JUMPDEST PUSH1 0x0 PUSH1 0x2 DUP3 DIV SWAP1 POP PUSH1 0x1 DUP3 AND DUP1 PUSH3 0x4AA JUMPI PUSH1 0x7F DUP3 AND SWAP2 POP JUMPDEST PUSH1 0x20 DUP3 LT DUP2 SUB PUSH3 0x4C0 JUMPI PUSH3 0x4BF PUSH3 0x462 JUMP JUMPDEST JUMPDEST POP SWAP2 SWAP1 POP JUMP JUMPDEST PUSH1 0x0 DUP2 SWAP1 POP DUP2 PUSH1 0x0 MSTORE PUSH1 0x20 PUSH1 0x0 KECCAK256 SWAP1 POP SWAP2 SWAP1 POP JUMP JUMPDEST PUSH1 0x0 PUSH1 0x20 PUSH1 0x1F DUP4 ADD DIV SWAP1 POP SWAP2 SWAP1 POP JUMP JUMPDEST PUSH1 0x0 DUP3 DUP3 SHL SWAP1 POP SWAP3 SWAP2 POP POP JUMP JUMPDEST PUSH1 0x0 PUSH1 0x8 DUP4 MUL PUSH3 0x52A PUSH32 0xFFFFFFFFFFFFFFFFFFFFFFFFFFFFFFFFFFFFFFFFFFFFFFFFFFFFFFFFFFFFFFFF DUP3 PUSH3 0x4EB JUMP JUMPDEST PUSH3 0x536 DUP7 DUP4 PUSH3 0x4EB JUMP JUMPDEST SWAP6 POP DUP1 NOT DUP5 AND SWAP4 POP DUP1 DUP7 AND DUP5 OR SWAP3 POP POP POP SWAP4 SWAP3 POP POP POP JUMP JUMPDEST PUSH1 0x0 DUP2 SWAP1 POP SWAP2 SWAP1 POP JUMP JUMPDEST PUSH1 0x0 PUSH3 0x579 PUSH3 0x573 PUSH3 0x56D DUP5 PUSH3 0x315 JUMP JUMPDEST PUSH3 0x54E JUMP JUMPDEST PUSH3 0x315 JUMP JUMPDEST SWAP1 POP SWAP2 SWAP1 POP JUMP JUMPDEST PUSH1 0x0 DUP2 SWAP1 POP SWAP2 SWAP1 POP JUMP JUMPDEST PUSH3 0x595 DUP4 PUSH3 0x558 JUMP JUMPDEST PUSH3 0x5AD PUSH3 0x5A4 DUP3 PUSH3 0x580 JUMP JUMPDEST DUP5 DUP5 SLOAD PUSH3 0x4F8 JUMP JUMPDEST DUP3 SSTORE POP POP POP POP JUMP JUMPDEST PUSH1 0x0 SWAP1 JUMP JUMPDEST PUSH3 0x5C4 PUSH3 0x5B5 JUMP JUMPDEST PUSH3 0x5D1 DUP2 DUP5 DUP5 PUSH3 0x58A JUMP JUMPDEST POP POP POP JUMP JUMPDEST JUMPDEST DUP2 DUP2 LT ISZERO PUSH3 0x5F9 JUMPI PUSH3 0x5ED PUSH1 0x0 DUP3 PUSH3 0x5BA JUMP JUMPDEST PUSH1 0x1 DUP2 ADD SWAP1 POP PUSH3 0x5D7 JUMP JUMPDEST POP POP JUMP JUMPDEST PUSH1 0x1F DUP3 GT ISZERO PUSH3 0x648 JUMPI PUSH3 0x612 DUP2 PUSH3 0x4C6 JUMP JUMPDEST PUSH3 0x61D DUP5 PUSH3 0x4DB JUMP JUMPDEST DUP2 ADD PUSH1 0x20 DUP6 LT ISZERO PUSH3 0x62D JUMPI DUP2 SWAP1 POP JUMPDEST PUSH3 0x645 PUSH3 0x63C DUP6 PUSH3 0x4DB JUMP JUMPDEST DUP4 ADD DUP3 PUSH3 0x5D6 JUMP JUMPDEST POP POP JUMPDEST POP POP POP JUMP JUMPDEST PUSH1 0x0 DUP3 DUP3 SHR SWAP1 POP SWAP3 SWAP2 POP POP JUMP JUMPDEST PUSH1 0x0 PUSH3 0x66D PUSH1 0x0 NOT DUP5 PUSH1 0x8 MUL PUSH3 0x64D JUMP JUMPDEST NOT DUP1 DUP4 AND SWAP2 POP POP SWAP3 SWAP2 POP POP JUMP JUMPDEST PUSH1 0x0 PUSH3 0x688 DUP4 DUP4 PUSH3 0x65A JUMP JUMPDEST SWAP2 POP DUP3 PUSH1 0x2 MUL DUP3 OR SWAP1 POP SWAP3 SWAP2 POP POP JUMP JUMPDEST PUSH3 0x6A3 DUP3 PUSH3 0x457 JUMP JUMPDEST PUSH8 0xFFFFFFFFFFFFFFFF DUP2 GT ISZERO PUSH3 0x6BF JUMPI PUSH3 0x6BE PUSH3 0x1A7 JUMP JUMPDEST JUMPDEST PUSH3 0x6CB DUP3 SLOAD PUSH3 0x491 JUMP JUMPDEST PUSH3 0x6D8 DUP3 DUP3 DUP6 PUSH3 0x5FD JUMP JUMPDEST PUSH1 0x0 PUSH1 0x20 SWAP1 POP PUSH1 0x1F DUP4 GT PUSH1 0x1 DUP2 EQ PUSH3 0x710 JUMPI PUSH1 0x0 DUP5 ISZERO PUSH3 0x6FB JUMPI DUP3 DUP8 ADD MLOAD SWAP1 POP JUMPDEST PUSH3 0x707 DUP6 DUP3 PUSH3 0x67A JUMP JUMPDEST DUP7 SSTORE POP PUSH3 0x777 JUMP JUMPDEST PUSH1 0x1F NOT DUP5 AND PUSH3 0x720 DUP7 PUSH3 0x4C6 JUMP JUMPDEST PUSH1 0x0 JUMPDEST DUP3 DUP2 LT ISZERO PUSH3 0x74A JUMPI DUP5 DUP10 ADD MLOAD DUP3 SSTORE PUSH1 0x1 DUP3 ADD SWAP2 POP PUSH1 0x20 DUP6 ADD SWAP5 POP PUSH1 0x20 DUP2 ADD SWAP1 POP PUSH3 0x723 JUMP JUMPDEST DUP7 DUP4 LT ISZERO PUSH3 0x76A JUMPI DUP5 DUP10 ADD MLOAD PUSH3 0x766 PUSH1 0x1F DUP10 AND DUP3 PUSH3 0x65A JUMP JUMPDEST DUP4 SSTORE POP JUMPDEST PUSH1 0x1 PUSH1 0x2 DUP9 MUL ADD DUP9 SSTORE POP POP POP JUMPDEST POP POP POP POP POP POP JUMP JUMPDEST PUSH2 0x225E DUP1 PUSH3 0x78F PUSH1 0x0 CODECOPY PUSH1 0x0 RETURN INVALID PUSH1 0x80 PUSH1 0x40 MSTORE CALLVALUE DUP1 ISZERO PUSH2 0x10 JUMPI PUSH1 0x0 DUP1 REVERT JUMPDEST POP PUSH1 0x4 CALLDATASIZE LT PUSH2 0x100 JUMPI PUSH1 0x0 CALLDATALOAD PUSH1 0xE0 SHR DUP1 PUSH4 0x753EC103 GT PUSH2 0x97 JUMPI DUP1 PUSH4 0xB9A29250 GT PUSH2 0x66 JUMPI DUP1 PUSH4 0xB9A29250 EQ PUSH2 0x294 JUMPI DUP1 PUSH4 0xD77AA749 EQ PUSH2 0x2B2 JUMPI DUP1 PUSH4 0xDA58C7D9 EQ PUSH2 0x2D0 JUMPI DUP1 PUSH4 0xF6B4DFB4 EQ PUSH2 0x302 JUMPI PUSH2 0x100 JUMP JUMPDEST DUP1 PUSH4 0x753EC103 EQ PUSH2 0x217 JUMPI DUP1 PUSH4 0x95B02DFA EQ PUSH2 0x236 JUMPI DUP1 PUSH4 0x9AA4BBDD EQ PUSH2 0x240 JUMPI DUP1 PUSH4 0xA5EA11DA EQ PUSH2 0x272 JUMPI PUSH2 0x100 JUMP JUMPDEST DUP1 PUSH4 0x5361A0EA GT PUSH2 0xD3 JUMPI DUP1 PUSH4 0x5361A0EA EQ PUSH2 0x18B JUMPI DUP1 PUSH4 0x5C39FCC1 EQ PUSH2 0x1BD JUMPI DUP1 PUSH4 0x604C8333 EQ PUSH2 0x1DB JUMPI DUP1 PUSH4 0x7403C5E5 EQ PUSH2 0x1F9 JUMPI PUSH2 0x100 JUMP JUMPDEST DUP1 PUSH4 0xCB6AAF1 EQ PUSH2 0x105 JUMPI DUP1 PUSH4 0x15FE6F1B EQ PUSH2 0x135 JUMPI DUP1 PUSH4 0x19EB4A90 EQ PUSH2 0x151 JUMPI DUP1 PUSH4 0x323082D7 EQ PUSH2 0x16F JUMPI JUMPDEST PUSH1 0x0 DUP1 REVERT JUMPDEST PUSH2 0x11F PUSH1 0x4 DUP1 CALLDATASIZE SUB DUP2 ADD SWAP1 PUSH2 0x11A SWAP2 SWAP1 PUSH2 0x1510 JUMP JUMPDEST PUSH2 0x320 JUMP JUMPDEST PUSH1 0x40 MLOAD PUSH2 0x12C SWAP2 SWAP1 PUSH2 0x157E JUMP JUMPDEST PUSH1 0x40 MLOAD DUP1 SWAP2 SUB SWAP1 RETURN JUMPDEST PUSH2 0x14F PUSH1 0x4 DUP1 CALLDATASIZE SUB DUP2 ADD SWAP1 PUSH2 0x14A SWAP2 SWAP1 PUSH2 0x15C5 JUMP JUMPDEST PUSH2 0x35F JUMP JUMPDEST STOP JUMPDEST PUSH2 0x159 PUSH2 0x700 JUMP JUMPDEST PUSH1 0x40 MLOAD PUSH2 0x166 SWAP2 SWAP1 PUSH2 0x168B JUMP JUMPDEST PUSH1 0x40 MLOAD DUP1 SWAP2 SUB SWAP1 RETURN JUMPDEST PUSH2 0x189 PUSH1 0x4 DUP1 CALLDATASIZE SUB DUP2 ADD SWAP1 PUSH2 0x184 SWAP2 SWAP1 PUSH2 0x17E2 JUMP JUMPDEST PUSH2 0x795 JUMP JUMPDEST STOP JUMPDEST PUSH2 0x1A5 PUSH1 0x4 DUP1 CALLDATASIZE SUB DUP2 ADD SWAP1 PUSH2 0x1A0 SWAP2 SWAP1 PUSH2 0x15C5 JUMP JUMPDEST PUSH2 0xDC1 JUMP JUMPDEST PUSH1 0x40 MLOAD PUSH2 0x1B4 SWAP4 SWAP3 SWAP2 SWAP1 PUSH2 0x1846 JUMP JUMPDEST PUSH1 0x40 MLOAD DUP1 SWAP2 SUB SWAP1 RETURN JUMPDEST PUSH2 0x1C5 PUSH2 0xED6 JUMP JUMPDEST PUSH1 0x40 MLOAD PUSH2 0x1D2 SWAP2 SWAP1 PUSH2 0x157E JUMP JUMPDEST PUSH1 0x40 MLOAD DUP1 SWAP2 SUB SWAP1 RETURN JUMPDEST PUSH2 0x1E3 PUSH2 0xEFC JUMP JUMPDEST PUSH1 0x40 MLOAD PUSH2 0x1F0 SWAP2 SWAP1 PUSH2 0x188C JUMP JUMPDEST PUSH1 0x40 MLOAD DUP1 SWAP2 SUB SWAP1 RETURN JUMPDEST PUSH2 0x201 PUSH2 0xF02 JUMP JUMPDEST PUSH1 0x40 MLOAD PUSH2 0x20E SWAP2 SWAP1 PUSH2 0x188C JUMP JUMPDEST PUSH1 0x40 MLOAD DUP1 SWAP2 SUB SWAP1 RETURN JUMPDEST PUSH2 0x21F PUSH2 0xF08 JUMP JUMPDEST PUSH1 0x40 MLOAD PUSH2 0x22D SWAP3 SWAP2 SWAP1 PUSH2 0x18A7 JUMP JUMPDEST PUSH1 0x40 MLOAD DUP1 SWAP2 SUB SWAP1 RETURN JUMPDEST PUSH2 0x23E PUSH2 0xFA2 JUMP JUMPDEST STOP JUMPDEST PUSH2 0x25A PUSH1 0x4 DUP1 CALLDATASIZE SUB DUP2 ADD SWAP1 PUSH2 0x255 SWAP2 SWAP1 PUSH2 0x15C5 JUMP JUMPDEST PUSH2 0x12EC JUMP JUMPDEST PUSH1 0x40 MLOAD PUSH2 0x269 SWAP4 SWAP3 SWAP2 SWAP1 PUSH2 0x18D7 JUMP JUMPDEST PUSH1 0x40 MLOAD DUP1 SWAP2 SUB SWAP1 RETURN JUMPDEST PUSH2 0x27A PUSH2 0x1350 JUMP JUMPDEST PUSH1 0x40 MLOAD PUSH2 0x28B SWAP6 SWAP5 SWAP4 SWAP3 SWAP2 SWAP1 PUSH2 0x190E JUMP JUMPDEST PUSH1 0x40 MLOAD DUP1 SWAP2 SUB SWAP1 RETURN JUMPDEST PUSH2 0x29C PUSH2 0x1426 JUMP JUMPDEST PUSH1 0x40 MLOAD PUSH2 0x2A9 SWAP2 SWAP1 PUSH2 0x188C JUMP JUMPDEST PUSH1 0x40 MLOAD DUP1 SWAP2 SUB SWAP1 RETURN JUMPDEST PUSH2 0x2BA PUSH2 0x142C JUMP JUMPDEST PUSH1 0x40 MLOAD PUSH2 0x2C7 SWAP2 SWAP1 PUSH2 0x188C JUMP JUMPDEST PUSH1 0x40 MLOAD DUP1 SWAP2 SUB SWAP1 RETURN JUMPDEST PUSH2 0x2EA PUSH1 0x4 DUP1 CALLDATASIZE SUB DUP2 ADD SWAP1 PUSH2 0x2E5 SWAP2 SWAP1 PUSH2 0x1510 JUMP JUMPDEST PUSH2 0x1432 JUMP JUMPDEST PUSH1 0x40 MLOAD PUSH2 0x2F9 SWAP4 SWAP3 SWAP2 SWAP1 PUSH2 0x18D7 JUMP JUMPDEST PUSH1 0x40 MLOAD DUP1 SWAP2 SUB SWAP1 RETURN JUMPDEST PUSH2 0x30A PUSH2 0x14A2 JUMP JUMPDEST PUSH1 0x40 MLOAD PUSH2 0x317 SWAP2 SWAP1 PUSH2 0x157E JUMP JUMPDEST PUSH1 0x40 MLOAD DUP1 SWAP2 SUB SWAP1 RETURN JUMPDEST PUSH1 0x9 DUP2 DUP2 SLOAD DUP2 LT PUSH2 0x330 JUMPI PUSH1 0x0 DUP1 REVERT JUMPDEST SWAP1 PUSH1 0x0 MSTORE PUSH1 0x20 PUSH1 0x0 KECCAK256 ADD PUSH1 0x0 SWAP2 POP SLOAD SWAP1 PUSH2 0x100 EXP SWAP1 DIV PUSH20 0xFFFFFFFFFFFFFFFFFFFFFFFFFFFFFFFFFFFFFFFF AND DUP2 JUMP JUMPDEST PUSH1 0x3 PUSH1 0x0 SWAP1 SLOAD SWAP1 PUSH2 0x100 EXP SWAP1 DIV PUSH20 0xFFFFFFFFFFFFFFFFFFFFFFFFFFFFFFFFFFFFFFFF AND PUSH20 0xFFFFFFFFFFFFFFFFFFFFFFFFFFFFFFFFFFFFFFFF AND CALLER PUSH20 0xFFFFFFFFFFFFFFFFFFFFFFFFFFFFFFFFFFFFFFFF AND EQ PUSH2 0x3EF JUMPI PUSH1 0x40 MLOAD PUSH32 0x8C379A000000000000000000000000000000000000000000000000000000000 DUP2 MSTORE PUSH1 0x4 ADD PUSH2 0x3E6 SWAP1 PUSH2 0x19DA JUMP JUMPDEST PUSH1 0x40 MLOAD DUP1 SWAP2 SUB SWAP1 REVERT JUMPDEST PUSH1 0x3 PUSH1 0x0 SWAP1 SLOAD SWAP1 PUSH2 0x100 EXP SWAP1 DIV PUSH20 0xFFFFFFFFFFFFFFFFFFFFFFFFFFFFFFFFFFFFFFFF AND PUSH20 0xFFFFFFFFFFFFFFFFFFFFFFFFFFFFFFFFFFFFFFFF AND DUP2 PUSH20 0xFFFFFFFFFFFFFFFFFFFFFFFFFFFFFFFFFFFFFFFF AND SUB PUSH2 0x47F JUMPI PUSH1 0x40 MLOAD PUSH32 0x8C379A000000000000000000000000000000000000000000000000000000000 DUP2 MSTORE PUSH1 0x4 ADD PUSH2 0x476 SWAP1 PUSH2 0x1A46 JUMP JUMPDEST PUSH1 0x40 MLOAD DUP1 SWAP2 SUB SWAP1 REVERT JUMPDEST PUSH1 0x0 PUSH20 0xFFFFFFFFFFFFFFFFFFFFFFFFFFFFFFFFFFFFFFFF AND PUSH1 0xA PUSH1 0x0 DUP4 PUSH20 0xFFFFFFFFFFFFFFFFFFFFFFFFFFFFFFFFFFFFFFFF AND PUSH20 0xFFFFFFFFFFFFFFFFFFFFFFFFFFFFFFFFFFFFFFFF AND DUP2 MSTORE PUSH1 0x20 ADD SWAP1 DUP2 MSTORE PUSH1 0x20 ADD PUSH1 0x0 KECCAK256 PUSH1 0x0 ADD PUSH1 0x1 SWAP1 SLOAD SWAP1 PUSH2 0x100 EXP SWAP1 DIV PUSH20 0xFFFFFFFFFFFFFFFFFFFFFFFFFFFFFFFFFFFFFFFF AND PUSH20 0xFFFFFFFFFFFFFFFFFFFFFFFFFFFFFFFFFFFFFFFF AND EQ PUSH2 0x550 JUMPI PUSH1 0x40 MLOAD PUSH32 0x8C379A000000000000000000000000000000000000000000000000000000000 DUP2 MSTORE PUSH1 0x4 ADD PUSH2 0x547 SWAP1 PUSH2 0x1AB2 JUMP JUMPDEST PUSH1 0x40 MLOAD DUP1 SWAP2 SUB SWAP1 REVERT JUMPDEST PUSH1 0x1 SLOAD TIMESTAMP LT PUSH2 0x594 JUMPI PUSH1 0x40 MLOAD PUSH32 0x8C379A000000000000000000000000000000000000000000000000000000000 DUP2 MSTORE PUSH1 0x4 ADD PUSH2 0x58B SWAP1 PUSH2 0x1B44 JUMP JUMPDEST PUSH1 0x40 MLOAD DUP1 SWAP2 SUB SWAP1 REVERT JUMPDEST PUSH1 0x0 PUSH1 0x40 MLOAD DUP1 PUSH1 0x60 ADD PUSH1 0x40 MSTORE DUP1 PUSH1 0x0 ISZERO ISZERO DUP2 MSTORE PUSH1 0x20 ADD DUP4 PUSH20 0xFFFFFFFFFFFFFFFFFFFFFFFFFFFFFFFFFFFFFFFF AND DUP2 MSTORE PUSH1 0x20 ADD PUSH1 0x0 ISZERO ISZERO DUP2 MSTORE POP SWAP1 POP DUP1 PUSH1 0xA PUSH1 0x0 DUP5 PUSH20 0xFFFFFFFFFFFFFFFFFFFFFFFFFFFFFFFFFFFFFFFF AND PUSH20 0xFFFFFFFFFFFFFFFFFFFFFFFFFFFFFFFFFFFFFFFF AND DUP2 MSTORE PUSH1 0x20 ADD SWAP1 DUP2 MSTORE PUSH1 0x20 ADD PUSH1 0x0 KECCAK256 PUSH1 0x0 DUP3 ADD MLOAD DUP2 PUSH1 0x0 ADD PUSH1 0x0 PUSH2 0x100 EXP DUP2 SLOAD DUP2 PUSH1 0xFF MUL NOT AND SWAP1 DUP4 ISZERO ISZERO MUL OR SWAP1 SSTORE POP PUSH1 0x20 DUP3 ADD MLOAD DUP2 PUSH1 0x0 ADD PUSH1 0x1 PUSH2 0x100 EXP DUP2 SLOAD DUP2 PUSH20 0xFFFFFFFFFFFFFFFFFFFFFFFFFFFFFFFFFFFFFFFF MUL NOT AND SWAP1 DUP4 PUSH20 0xFFFFFFFFFFFFFFFFFFFFFFFFFFFFFFFFFFFFFFFF AND MUL OR SWAP1 SSTORE POP PUSH1 0x40 DUP3 ADD MLOAD DUP2 PUSH1 0x0 ADD PUSH1 0x15 PUSH2 0x100 EXP DUP2 SLOAD DUP2 PUSH1 0xFF MUL NOT AND SWAP1 DUP4 ISZERO ISZERO MUL OR SWAP1 SSTORE POP SWAP1 POP POP PUSH1 0x9 DUP3 SWAP1 DUP1 PUSH1 0x1 DUP2 SLOAD ADD DUP1 DUP3 SSTORE DUP1 SWAP2 POP POP PUSH1 0x1 SWAP1 SUB SWAP1 PUSH1 0x0 MSTORE PUSH1 0x20 PUSH1 0x0 KECCAK256 ADD PUSH1 0x0 SWAP1 SWAP2 SWAP1 SWAP2 SWAP1 SWAP2 PUSH2 0x100 EXP DUP2 SLOAD DUP2 PUSH20 0xFFFFFFFFFFFFFFFFFFFFFFFFFFFFFFFFFFFFFFFF MUL NOT AND SWAP1 DUP4 PUSH20 0xFFFFFFFFFFFFFFFFFFFFFFFFFFFFFFFFFFFFFFFF AND MUL OR SWAP1 SSTORE POP POP POP JUMP JUMPDEST PUSH1 0x60 PUSH1 0xB PUSH1 0x1 ADD DUP1 SLOAD PUSH2 0x712 SWAP1 PUSH2 0x1B93 JUMP JUMPDEST DUP1 PUSH1 0x1F ADD PUSH1 0x20 DUP1 SWAP2 DIV MUL PUSH1 0x20 ADD PUSH1 0x40 MLOAD SWAP1 DUP2 ADD PUSH1 0x40 MSTORE DUP1 SWAP3 SWAP2 SWAP1 DUP2 DUP2 MSTORE PUSH1 0x20 ADD DUP3 DUP1 SLOAD PUSH2 0x73E SWAP1 PUSH2 0x1B93 JUMP JUMPDEST DUP1 ISZERO PUSH2 0x78B JUMPI DUP1 PUSH1 0x1F LT PUSH2 0x760 JUMPI PUSH2 0x100 DUP1 DUP4 SLOAD DIV MUL DUP4 MSTORE SWAP2 PUSH1 0x20 ADD SWAP2 PUSH2 0x78B JUMP JUMPDEST DUP3 ADD SWAP2 SWAP1 PUSH1 0x0 MSTORE PUSH1 0x20 PUSH1 0x0 KECCAK256 SWAP1 JUMPDEST DUP2 SLOAD DUP2 MSTORE SWAP1 PUSH1 0x1 ADD SWAP1 PUSH1 0x20 ADD DUP1 DUP4 GT PUSH2 0x76E JUMPI DUP3 SWAP1 SUB PUSH1 0x1F AND DUP3 ADD SWAP2 JUMPDEST POP POP POP POP POP SWAP1 POP SWAP1 JUMP JUMPDEST PUSH1 0x1 SLOAD TIMESTAMP LT PUSH2 0x7D9 JUMPI PUSH1 0x40 MLOAD PUSH32 0x8C379A000000000000000000000000000000000000000000000000000000000 DUP2 MSTORE PUSH1 0x4 ADD PUSH2 0x7D0 SWAP1 PUSH2 0x1C10 JUMP JUMPDEST PUSH1 0x40 MLOAD DUP1 SWAP2 SUB SWAP1 REVERT JUMPDEST PUSH1 0x0 PUSH1 0xA PUSH1 0x0 CALLER PUSH20 0xFFFFFFFFFFFFFFFFFFFFFFFFFFFFFFFFFFFFFFFF AND PUSH20 0xFFFFFFFFFFFFFFFFFFFFFFFFFFFFFFFFFFFFFFFF AND DUP2 MSTORE PUSH1 0x20 ADD SWAP1 DUP2 MSTORE PUSH1 0x20 ADD PUSH1 0x0 KECCAK256 PUSH1 0x40 MLOAD DUP1 PUSH1 0x60 ADD PUSH1 0x40 MSTORE SWAP1 DUP2 PUSH1 0x0 DUP3 ADD PUSH1 0x0 SWAP1 SLOAD SWAP1 PUSH2 0x100 EXP SWAP1 DIV PUSH1 0xFF AND ISZERO ISZERO ISZERO ISZERO DUP2 MSTORE PUSH1 0x20 ADD PUSH1 0x0 DUP3 ADD PUSH1 0x1 SWAP1 SLOAD SWAP1 PUSH2 0x100 EXP SWAP1 DIV PUSH20 0xFFFFFFFFFFFFFFFFFFFFFFFFFFFFFFFFFFFFFFFF AND PUSH20 0xFFFFFFFFFFFFFFFFFFFFFFFFFFFFFFFFFFFFFFFF AND PUSH20 0xFFFFFFFFFFFFFFFFFFFFFFFFFFFFFFFFFFFFFFFF AND DUP2 MSTORE PUSH1 0x20 ADD PUSH1 0x0 DUP3 ADD PUSH1 0x15 SWAP1 SLOAD SWAP1 PUSH2 0x100 EXP SWAP1 DIV PUSH1 0xFF AND ISZERO ISZERO ISZERO ISZERO DUP2 MSTORE POP POP SWAP1 POP PUSH1 0x0 PUSH20 0xFFFFFFFFFFFFFFFFFFFFFFFFFFFFFFFFFFFFFFFF AND DUP2 PUSH1 0x20 ADD MLOAD PUSH20 0xFFFFFFFFFFFFFFFFFFFFFFFFFFFFFFFFFFFFFFFF AND SUB PUSH2 0x926 JUMPI PUSH1 0x40 MLOAD PUSH32 0x8C379A000000000000000000000000000000000000000000000000000000000 DUP2 MSTORE PUSH1 0x4 ADD PUSH2 0x91D SWAP1 PUSH2 0x1C7C JUMP JUMPDEST PUSH1 0x40 MLOAD DUP1 SWAP2 SUB SWAP1 REVERT JUMPDEST DUP1 PUSH1 0x0 ADD MLOAD ISZERO PUSH2 0x96B JUMPI PUSH1 0x40 MLOAD PUSH32 0x8C379A000000000000000000000000000000000000000000000000000000000 DUP2 MSTORE PUSH1 0x4 ADD PUSH2 0x962 SWAP1 PUSH2 0x1CE8 JUMP JUMPDEST PUSH1 0x40 MLOAD DUP1 SWAP2 SUB SWAP1 REVERT JUMPDEST PUSH1 0x40 MLOAD DUP1 PUSH1 0x40 ADD PUSH1 0x40 MSTORE DUP1 PUSH1 0x9 DUP2 MSTORE PUSH1 0x20 ADD PUSH32 0x6920617070726F76650000000000000000000000000000000000000000000000 DUP2 MSTORE POP DUP1 MLOAD SWAP1 PUSH1 0x20 ADD KECCAK256 DUP3 DUP1 MLOAD SWAP1 PUSH1 0x20 ADD KECCAK256 SUB PUSH2 0xBD0 JUMPI PUSH1 0x1 PUSH1 0xA PUSH1 0x0 CALLER PUSH20 0xFFFFFFFFFFFFFFFFFFFFFFFFFFFFFFFFFFFFFFFF AND PUSH20 0xFFFFFFFFFFFFFFFFFFFFFFFFFFFFFFFFFFFFFFFF AND DUP2 MSTORE PUSH1 0x20 ADD SWAP1 DUP2 MSTORE PUSH1 0x20 ADD PUSH1 0x0 KECCAK256 PUSH1 0x0 ADD PUSH1 0x0 PUSH2 0x100 EXP DUP2 SLOAD DUP2 PUSH1 0xFF MUL NOT AND SWAP1 DUP4 ISZERO ISZERO MUL OR SWAP1 SSTORE POP PUSH1 0x1 PUSH1 0xA PUSH1 0x0 CALLER PUSH20 0xFFFFFFFFFFFFFFFFFFFFFFFFFFFFFFFFFFFFFFFF AND PUSH20 0xFFFFFFFFFFFFFFFFFFFFFFFFFFFFFFFFFFFFFFFF AND DUP2 MSTORE PUSH1 0x20 ADD SWAP1 DUP2 MSTORE PUSH1 0x20 ADD PUSH1 0x0 KECCAK256 PUSH1 0x0 ADD PUSH1 0x15 PUSH2 0x100 EXP DUP2 SLOAD DUP2 PUSH1 0xFF MUL NOT AND SWAP1 DUP4 ISZERO ISZERO MUL OR SWAP1 SSTORE POP PUSH1 0x1 PUSH1 0x6 PUSH1 0x0 DUP3 DUP3 SLOAD PUSH2 0xA7E SWAP2 SWAP1 PUSH2 0x1D37 JUMP JUMPDEST SWAP3 POP POP DUP2 SWAP1 SSTORE POP PUSH1 0x1 PUSH1 0xB PUSH1 0x0 ADD PUSH1 0x0 DUP3 DUP3 SLOAD PUSH2 0xA9B SWAP2 SWAP1 PUSH2 0x1D37 JUMP JUMPDEST SWAP3 POP POP DUP2 SWAP1 SSTORE POP PUSH1 0x8 PUSH1 0xA PUSH1 0x0 CALLER PUSH20 0xFFFFFFFFFFFFFFFFFFFFFFFFFFFFFFFFFFFFFFFF AND PUSH20 0xFFFFFFFFFFFFFFFFFFFFFFFFFFFFFFFFFFFFFFFF AND DUP2 MSTORE PUSH1 0x20 ADD SWAP1 DUP2 MSTORE PUSH1 0x20 ADD PUSH1 0x0 KECCAK256 SWAP1 DUP1 PUSH1 0x1 DUP2 SLOAD ADD DUP1 DUP3 SSTORE DUP1 SWAP2 POP POP PUSH1 0x1 SWAP1 SUB SWAP1 PUSH1 0x0 MSTORE PUSH1 0x20 PUSH1 0x0 KECCAK256 ADD PUSH1 0x0 SWAP1 SWAP2 SWAP1 SWAP2 SWAP1 SWAP2 POP PUSH1 0x0 DUP3 ADD PUSH1 0x0 SWAP1 SLOAD SWAP1 PUSH2 0x100 EXP SWAP1 DIV PUSH1 0xFF AND DUP2 PUSH1 0x0 ADD PUSH1 0x0 PUSH2 0x100 EXP DUP2 SLOAD DUP2 PUSH1 0xFF MUL NOT AND SWAP1 DUP4 ISZERO ISZERO MUL OR SWAP1 SSTORE POP PUSH1 0x0 DUP3 ADD PUSH1 0x1 SWAP1 SLOAD SWAP1 PUSH2 0x100 EXP SWAP1 DIV PUSH20 0xFFFFFFFFFFFFFFFFFFFFFFFFFFFFFFFFFFFFFFFF AND DUP2 PUSH1 0x0 ADD PUSH1 0x1 PUSH2 0x100 EXP DUP2 SLOAD DUP2 PUSH20 0xFFFFFFFFFFFFFFFFFFFFFFFFFFFFFFFFFFFFFFFF MUL NOT AND SWAP1 DUP4 PUSH20 0xFFFFFFFFFFFFFFFFFFFFFFFFFFFFFFFFFFFFFFFF AND MUL OR SWAP1 SSTORE POP PUSH1 0x0 DUP3 ADD PUSH1 0x15 SWAP1 SLOAD SWAP1 PUSH2 0x100 EXP SWAP1 DIV PUSH1 0xFF AND DUP2 PUSH1 0x0 ADD PUSH1 0x15 PUSH2 0x100 EXP DUP2 SLOAD DUP2 PUSH1 0xFF MUL NOT AND SWAP1 DUP4 ISZERO ISZERO MUL OR SWAP1 SSTORE POP POP POP PUSH2 0xDBD JUMP JUMPDEST PUSH1 0x40 MLOAD DUP1 PUSH1 0x40 ADD PUSH1 0x40 MSTORE DUP1 PUSH1 0xC DUP2 MSTORE PUSH1 0x20 ADD PUSH32 0x6920646973617070726F76650000000000000000000000000000000000000000 DUP2 MSTORE POP DUP1 MLOAD SWAP1 PUSH1 0x20 ADD KECCAK256 DUP3 DUP1 MLOAD SWAP1 PUSH1 0x20 ADD KECCAK256 SUB PUSH2 0xDBC JUMPI PUSH1 0x1 PUSH1 0xA PUSH1 0x0 CALLER PUSH20 0xFFFFFFFFFFFFFFFFFFFFFFFFFFFFFFFFFFFFFFFF AND PUSH20 0xFFFFFFFFFFFFFFFFFFFFFFFFFFFFFFFFFFFFFFFF AND DUP2 MSTORE PUSH1 0x20 ADD SWAP1 DUP2 MSTORE PUSH1 0x20 ADD PUSH1 0x0 KECCAK256 PUSH1 0x0 ADD PUSH1 0x0 PUSH2 0x100 EXP DUP2 SLOAD DUP2 PUSH1 0xFF MUL NOT AND SWAP1 DUP4 ISZERO ISZERO MUL OR SWAP1 SSTORE POP PUSH1 0x1 PUSH1 0xB PUSH1 0x0 ADD PUSH1 0x0 DUP3 DUP3 SLOAD PUSH2 0xC8B SWAP2 SWAP1 PUSH2 0x1D37 JUMP JUMPDEST SWAP3 POP POP DUP2 SWAP1 SSTORE POP PUSH1 0x8 PUSH1 0xA PUSH1 0x0 CALLER PUSH20 0xFFFFFFFFFFFFFFFFFFFFFFFFFFFFFFFFFFFFFFFF AND PUSH20 0xFFFFFFFFFFFFFFFFFFFFFFFFFFFFFFFFFFFFFFFF AND DUP2 MSTORE PUSH1 0x20 ADD SWAP1 DUP2 MSTORE PUSH1 0x20 ADD PUSH1 0x0 KECCAK256 SWAP1 DUP1 PUSH1 0x1 DUP2 SLOAD ADD DUP1 DUP3 SSTORE DUP1 SWAP2 POP POP PUSH1 0x1 SWAP1 SUB SWAP1 PUSH1 0x0 MSTORE PUSH1 0x20 PUSH1 0x0 KECCAK256 ADD PUSH1 0x0 SWAP1 SWAP2 SWAP1 SWAP2 SWAP1 SWAP2 POP PUSH1 0x0 DUP3 ADD PUSH1 0x0 SWAP1 SLOAD SWAP1 PUSH2 0x100 EXP SWAP1 DIV PUSH1 0xFF AND DUP2 PUSH1 0x0 ADD PUSH1 0x0 PUSH2 0x100 EXP DUP2 SLOAD DUP2 PUSH1 0xFF MUL NOT AND SWAP1 DUP4 ISZERO ISZERO MUL OR SWAP1 SSTORE POP PUSH1 0x0 DUP3 ADD PUSH1 0x1 SWAP1 SLOAD SWAP1 PUSH2 0x100 EXP SWAP1 DIV PUSH20 0xFFFFFFFFFFFFFFFFFFFFFFFFFFFFFFFFFFFFFFFF AND DUP2 PUSH1 0x0 ADD PUSH1 0x1 PUSH2 0x100 EXP DUP2 SLOAD DUP2 PUSH20 0xFFFFFFFFFFFFFFFFFFFFFFFFFFFFFFFFFFFFFFFF MUL NOT AND SWAP1 DUP4 PUSH20 0xFFFFFFFFFFFFFFFFFFFFFFFFFFFFFFFFFFFFFFFF AND MUL OR SWAP1 SSTORE POP PUSH1 0x0 DUP3 ADD PUSH1 0x15 SWAP1 SLOAD SWAP1 PUSH2 0x100 EXP SWAP1 DIV PUSH1 0xFF AND DUP2 PUSH1 0x0 ADD PUSH1 0x15 PUSH2 0x100 EXP DUP2 SLOAD DUP2 PUSH1 0xFF MUL NOT AND SWAP1 DUP4 ISZERO ISZERO MUL OR SWAP1 SSTORE POP POP POP JUMPDEST JUMPDEST POP POP JUMP JUMPDEST PUSH1 0x0 DUP1 PUSH1 0x0 PUSH1 0xA PUSH1 0x0 DUP6 PUSH20 0xFFFFFFFFFFFFFFFFFFFFFFFFFFFFFFFFFFFFFFFF AND PUSH20 0xFFFFFFFFFFFFFFFFFFFFFFFFFFFFFFFFFFFFFFFF AND DUP2 MSTORE PUSH1 0x20 ADD SWAP1 DUP2 MSTORE PUSH1 0x20 ADD PUSH1 0x0 KECCAK256 PUSH1 0x0 ADD PUSH1 0x15 SWAP1 SLOAD SWAP1 PUSH2 0x100 EXP SWAP1 DIV PUSH1 0xFF AND PUSH1 0xA PUSH1 0x0 DUP7 PUSH20 0xFFFFFFFFFFFFFFFFFFFFFFFFFFFFFFFFFFFFFFFF AND PUSH20 0xFFFFFFFFFFFFFFFFFFFFFFFFFFFFFFFFFFFFFFFF AND DUP2 MSTORE PUSH1 0x20 ADD SWAP1 DUP2 MSTORE PUSH1 0x20 ADD PUSH1 0x0 KECCAK256 PUSH1 0x0 ADD PUSH1 0x0 SWAP1 SLOAD SWAP1 PUSH2 0x100 EXP SWAP1 DIV PUSH1 0xFF AND PUSH1 0xA PUSH1 0x0 DUP8 PUSH20 0xFFFFFFFFFFFFFFFFFFFFFFFFFFFFFFFFFFFFFFFF AND PUSH20 0xFFFFFFFFFFFFFFFFFFFFFFFFFFFFFFFFFFFFFFFF AND DUP2 MSTORE PUSH1 0x20 ADD SWAP1 DUP2 MSTORE PUSH1 0x20 ADD PUSH1 0x0 KECCAK256 PUSH1 0x0 ADD PUSH1 0x1 SWAP1 SLOAD SWAP1 PUSH2 0x100 EXP SWAP1 DIV PUSH20 0xFFFFFFFFFFFFFFFFFFFFFFFFFFFFFFFFFFFFFFFF AND SWAP3 POP SWAP3 POP SWAP3 POP SWAP2 SWAP4 SWAP1 SWAP3 POP JUMP JUMPDEST PUSH1 0x3 PUSH1 0x0 SWAP1 SLOAD SWAP1 PUSH2 0x100 EXP SWAP1 DIV PUSH20 0xFFFFFFFFFFFFFFFFFFFFFFFFFFFFFFFFFFFFFFFF AND DUP2 JUMP JUMPDEST PUSH1 0x5 SLOAD DUP2 JUMP JUMPDEST PUSH1 0x6 SLOAD DUP2 JUMP JUMPDEST PUSH1 0xB DUP1 PUSH1 0x0 ADD SLOAD SWAP1 DUP1 PUSH1 0x1 ADD DUP1 SLOAD PUSH2 0xF1F SWAP1 PUSH2 0x1B93 JUMP JUMPDEST DUP1 PUSH1 0x1F ADD PUSH1 0x20 DUP1 SWAP2 DIV MUL PUSH1 0x20 ADD PUSH1 0x40 MLOAD SWAP1 DUP2 ADD PUSH1 0x40 MSTORE DUP1 SWAP3 SWAP2 SWAP1 DUP2 DUP2 MSTORE PUSH1 0x20 ADD DUP3 DUP1 SLOAD PUSH2 0xF4B SWAP1 PUSH2 0x1B93 JUMP JUMPDEST DUP1 ISZERO PUSH2 0xF98 JUMPI DUP1 PUSH1 0x1F LT PUSH2 0xF6D JUMPI PUSH2 0x100 DUP1 DUP4 SLOAD DIV MUL DUP4 MSTORE SWAP2 PUSH1 0x20 ADD SWAP2 PUSH2 0xF98 JUMP JUMPDEST DUP3 ADD SWAP2 SWAP1 PUSH1 0x0 MSTORE PUSH1 0x20 PUSH1 0x0 KECCAK256 SWAP1 JUMPDEST DUP2 SLOAD DUP2 MSTORE SWAP1 PUSH1 0x1 ADD SWAP1 PUSH1 0x20 ADD DUP1 DUP4 GT PUSH2 0xF7B JUMPI DUP3 SWAP1 SUB PUSH1 0x1F AND DUP3 ADD SWAP2 JUMPDEST POP POP POP POP POP SWAP1 POP DUP3 JUMP JUMPDEST PUSH1 0x1 SLOAD TIMESTAMP LT ISZERO PUSH2 0xFE7 JUMPI PUSH1 0x40 MLOAD PUSH32 0x8C379A000000000000000000000000000000000000000000000000000000000 DUP2 MSTORE PUSH1 0x4 ADD PUSH2 0xFDE SWAP1 PUSH2 0x1DD9 JUMP JUMPDEST PUSH1 0x40 MLOAD DUP1 SWAP2 SUB SWAP1 REVERT JUMPDEST PUSH1 0x0 PUSH1 0x7 SLOAD EQ PUSH2 0x102C JUMPI PUSH1 0x40 MLOAD PUSH32 0x8C379A000000000000000000000000000000000000000000000000000000000 DUP2 MSTORE PUSH1 0x4 ADD PUSH2 0x1023 SWAP1 PUSH2 0x1E6B JUMP JUMPDEST PUSH1 0x40 MLOAD DUP1 SWAP2 SUB SWAP1 REVERT JUMPDEST PUSH1 0x64 PUSH1 0x9 DUP1 SLOAD SWAP1 POP PUSH1 0x6 SLOAD PUSH2 0x1041 SWAP2 SWAP1 PUSH2 0x1EBA JUMP JUMPDEST PUSH2 0x104B SWAP2 SWAP1 PUSH2 0x1EEB JUMP JUMPDEST PUSH1 0x5 DUP2 SWAP1 SSTORE POP PUSH1 0x4 SLOAD PUSH1 0x5 SLOAD LT PUSH2 0x10A2 JUMPI PUSH1 0x40 MLOAD DUP1 PUSH1 0x40 ADD PUSH1 0x40 MSTORE DUP1 PUSH1 0x8 DUP2 MSTORE PUSH1 0x20 ADD PUSH32 0x4163636570746564000000000000000000000000000000000000000000000000 DUP2 MSTORE POP PUSH1 0x2 SWAP1 DUP2 PUSH2 0x10A0 SWAP2 SWAP1 PUSH2 0x20F1 JUMP JUMPDEST POP JUMPDEST PUSH1 0x0 JUMPDEST PUSH1 0x9 DUP1 SLOAD SWAP1 POP DUP2 PUSH1 0xFF AND LT ISZERO PUSH2 0x12CF JUMPI PUSH1 0x0 ISZERO ISZERO PUSH1 0xA PUSH1 0x0 PUSH1 0x9 DUP5 PUSH1 0xFF AND DUP2 SLOAD DUP2 LT PUSH2 0x10D4 JUMPI PUSH2 0x10D3 PUSH2 0x21C3 JUMP JUMPDEST JUMPDEST SWAP1 PUSH1 0x0 MSTORE PUSH1 0x20 PUSH1 0x0 KECCAK256 ADD PUSH1 0x0 SWAP1 SLOAD SWAP1 PUSH2 0x100 EXP SWAP1 DIV PUSH20 0xFFFFFFFFFFFFFFFFFFFFFFFFFFFFFFFFFFFFFFFF AND PUSH20 0xFFFFFFFFFFFFFFFFFFFFFFFFFFFFFFFFFFFFFFFF AND PUSH20 0xFFFFFFFFFFFFFFFFFFFFFFFFFFFFFFFFFFFFFFFF AND DUP2 MSTORE PUSH1 0x20 ADD SWAP1 DUP2 MSTORE PUSH1 0x20 ADD PUSH1 0x0 KECCAK256 PUSH1 0x0 ADD PUSH1 0x0 SWAP1 SLOAD SWAP1 PUSH2 0x100 EXP SWAP1 DIV PUSH1 0xFF AND ISZERO ISZERO SUB PUSH2 0x12BC JUMPI PUSH1 0x8 PUSH1 0xA PUSH1 0x0 PUSH1 0x9 DUP5 PUSH1 0xFF AND DUP2 SLOAD DUP2 LT PUSH2 0x116E JUMPI PUSH2 0x116D PUSH2 0x21C3 JUMP JUMPDEST JUMPDEST SWAP1 PUSH1 0x0 MSTORE PUSH1 0x20 PUSH1 0x0 KECCAK256 ADD PUSH1 0x0 SWAP1 SLOAD SWAP1 PUSH2 0x100 EXP SWAP1 DIV PUSH20 0xFFFFFFFFFFFFFFFFFFFFFFFFFFFFFFFFFFFFFFFF AND PUSH20 0xFFFFFFFFFFFFFFFFFFFFFFFFFFFFFFFFFFFFFFFF AND PUSH20 0xFFFFFFFFFFFFFFFFFFFFFFFFFFFFFFFFFFFFFFFF AND DUP2 MSTORE PUSH1 0x20 ADD SWAP1 DUP2 MSTORE PUSH1 0x20 ADD PUSH1 0x0 KECCAK256 SWAP1 DUP1 PUSH1 0x1 DUP2 SLOAD ADD DUP1 DUP3 SSTORE DUP1 SWAP2 POP POP PUSH1 0x1 SWAP1 SUB SWAP1 PUSH1 0x0 MSTORE PUSH1 0x20 PUSH1 0x0 KECCAK256 ADD PUSH1 0x0 SWAP1 SWAP2 SWAP1 SWAP2 SWAP1 SWAP2 POP PUSH1 0x0 DUP3 ADD PUSH1 0x0 SWAP1 SLOAD SWAP1 PUSH2 0x100 EXP SWAP1 DIV PUSH1 0xFF AND DUP2 PUSH1 0x0 ADD PUSH1 0x0 PUSH2 0x100 EXP DUP2 SLOAD DUP2 PUSH1 0xFF MUL NOT AND SWAP1 DUP4 ISZERO ISZERO MUL OR SWAP1 SSTORE POP PUSH1 0x0 DUP3 ADD PUSH1 0x1 SWAP1 SLOAD SWAP1 PUSH2 0x100 EXP SWAP1 DIV PUSH20 0xFFFFFFFFFFFFFFFFFFFFFFFFFFFFFFFFFFFFFFFF AND DUP2 PUSH1 0x0 ADD PUSH1 0x1 PUSH2 0x100 EXP DUP2 SLOAD DUP2 PUSH20 0xFFFFFFFFFFFFFFFFFFFFFFFFFFFFFFFFFFFFFFFF MUL NOT AND SWAP1 DUP4 PUSH20 0xFFFFFFFFFFFFFFFFFFFFFFFFFFFFFFFFFFFFFFFF AND MUL OR SWAP1 SSTORE POP PUSH1 0x0 DUP3 ADD PUSH1 0x15 SWAP1 SLOAD SWAP1 PUSH2 0x100 EXP SWAP1 DIV PUSH1 0xFF AND DUP2 PUSH1 0x0 ADD PUSH1 0x15 PUSH2 0x100 EXP DUP2 SLOAD DUP2 PUSH1 0xFF MUL NOT AND SWAP1 DUP4 ISZERO ISZERO MUL OR SWAP1 SSTORE POP POP POP JUMPDEST DUP1 DUP1 PUSH2 0x12C7 SWAP1 PUSH2 0x21FF JUMP JUMPDEST SWAP2 POP POP PUSH2 0x10A5 JUMP JUMPDEST POP PUSH1 0x1 PUSH1 0x7 PUSH1 0x0 DUP3 DUP3 SLOAD PUSH2 0x12E3 SWAP2 SWAP1 PUSH2 0x1D37 JUMP JUMPDEST SWAP3 POP POP DUP2 SWAP1 SSTORE POP JUMP JUMPDEST PUSH1 0xA PUSH1 0x20 MSTORE DUP1 PUSH1 0x0 MSTORE PUSH1 0x40 PUSH1 0x0 KECCAK256 PUSH1 0x0 SWAP2 POP SWAP1 POP DUP1 PUSH1 0x0 ADD PUSH1 0x0 SWAP1 SLOAD SWAP1 PUSH2 0x100 EXP SWAP1 DIV PUSH1 0xFF AND SWAP1 DUP1 PUSH1 0x0 ADD PUSH1 0x1 SWAP1 SLOAD SWAP1 PUSH2 0x100 EXP SWAP1 DIV PUSH20 0xFFFFFFFFFFFFFFFFFFFFFFFFFFFFFFFFFFFFFFFF AND SWAP1 DUP1 PUSH1 0x0 ADD PUSH1 0x15 SWAP1 SLOAD SWAP1 PUSH2 0x100 EXP SWAP1 DIV PUSH1 0xFF AND SWAP1 POP DUP4 JUMP JUMPDEST PUSH1 0x60 PUSH1 0x0 DUP1 PUSH1 0x0 DUP1 PUSH1 0xB PUSH1 0x1 ADD PUSH1 0x1 SLOAD PUSH1 0x3 PUSH1 0x0 SWAP1 SLOAD SWAP1 PUSH2 0x100 EXP SWAP1 DIV PUSH20 0xFFFFFFFFFFFFFFFFFFFFFFFFFFFFFFFFFFFFFFFF AND PUSH1 0x4 SLOAD PUSH1 0x6 SLOAD DUP5 DUP1 SLOAD PUSH2 0x1395 SWAP1 PUSH2 0x1B93 JUMP JUMPDEST DUP1 PUSH1 0x1F ADD PUSH1 0x20 DUP1 SWAP2 DIV MUL PUSH1 0x20 ADD PUSH1 0x40 MLOAD SWAP1 DUP2 ADD PUSH1 0x40 MSTORE DUP1 SWAP3 SWAP2 SWAP1 DUP2 DUP2 MSTORE PUSH1 0x20 ADD DUP3 DUP1 SLOAD PUSH2 0x13C1 SWAP1 PUSH2 0x1B93 JUMP JUMPDEST DUP1 ISZERO PUSH2 0x140E JUMPI DUP1 PUSH1 0x1F LT PUSH2 0x13E3 JUMPI PUSH2 0x100 DUP1 DUP4 SLOAD DIV MUL DUP4 MSTORE SWAP2 PUSH1 0x20 ADD SWAP2 PUSH2 0x140E JUMP JUMPDEST DUP3 ADD SWAP2 SWAP1 PUSH1 0x0 MSTORE PUSH1 0x20 PUSH1 0x0 KECCAK256 SWAP1 JUMPDEST DUP2 SLOAD DUP2 MSTORE SWAP1 PUSH1 0x1 ADD SWAP1 PUSH1 0x20 ADD DUP1 DUP4 GT PUSH2 0x13F1 JUMPI DUP3 SWAP1 SUB PUSH1 0x1F AND DUP3 ADD SWAP2 JUMPDEST POP POP POP POP POP SWAP5 POP SWAP5 POP SWAP5 POP SWAP5 POP SWAP5 POP SWAP5 POP SWAP1 SWAP2 SWAP3 SWAP4 SWAP5 JUMP JUMPDEST PUSH1 0x7 SLOAD DUP2 JUMP JUMPDEST PUSH1 0x4 SLOAD DUP2 JUMP JUMPDEST PUSH1 0x8 DUP2 DUP2 SLOAD DUP2 LT PUSH2 0x1442 JUMPI PUSH1 0x0 DUP1 REVERT JUMPDEST SWAP1 PUSH1 0x0 MSTORE PUSH1 0x20 PUSH1 0x0 KECCAK256 ADD PUSH1 0x0 SWAP2 POP SWAP1 POP DUP1 PUSH1 0x0 ADD PUSH1 0x0 SWAP1 SLOAD SWAP1 PUSH2 0x100 EXP SWAP1 DIV PUSH1 0xFF AND SWAP1 DUP1 PUSH1 0x0 ADD PUSH1 0x1 SWAP1 SLOAD SWAP1 PUSH2 0x100 EXP SWAP1 DIV PUSH20 0xFFFFFFFFFFFFFFFFFFFFFFFFFFFFFFFFFFFFFFFF AND SWAP1 DUP1 PUSH1 0x0 ADD PUSH1 0x15 SWAP1 SLOAD SWAP1 PUSH2 0x100 EXP SWAP1 DIV PUSH1 0xFF AND SWAP1 POP DUP4 JUMP JUMPDEST PUSH1 0x0 DUP1 SLOAD SWAP1 PUSH2 0x100 EXP SWAP1 DIV PUSH20 0xFFFFFFFFFFFFFFFFFFFFFFFFFFFFFFFFFFFFFFFF AND DUP2 JUMP JUMPDEST PUSH1 0x0 PUSH1 0x40 MLOAD SWAP1 POP SWAP1 JUMP JUMPDEST PUSH1 0x0 DUP1 REVERT JUMPDEST PUSH1 0x0 DUP1 REVERT JUMPDEST PUSH1 0x0 DUP2 SWAP1 POP SWAP2 SWAP1 POP JUMP JUMPDEST PUSH2 0x14ED DUP2 PUSH2 0x14DA JUMP JUMPDEST DUP2 EQ PUSH2 0x14F8 JUMPI PUSH1 0x0 DUP1 REVERT JUMPDEST POP JUMP JUMPDEST PUSH1 0x0 DUP2 CALLDATALOAD SWAP1 POP PUSH2 0x150A DUP2 PUSH2 0x14E4 JUMP JUMPDEST SWAP3 SWAP2 POP POP JUMP JUMPDEST PUSH1 0x0 PUSH1 0x20 DUP3 DUP5 SUB SLT ISZERO PUSH2 0x1526 JUMPI PUSH2 0x1525 PUSH2 0x14D0 JUMP JUMPDEST JUMPDEST PUSH1 0x0 PUSH2 0x1534 DUP5 DUP3 DUP6 ADD PUSH2 0x14FB JUMP JUMPDEST SWAP2 POP POP SWAP3 SWAP2 POP POP JUMP JUMPDEST PUSH1 0x0 PUSH20 0xFFFFFFFFFFFFFFFFFFFFFFFFFFFFFFFFFFFFFFFF DUP3 AND SWAP1 POP SWAP2 SWAP1 POP JUMP JUMPDEST PUSH1 0x0 PUSH2 0x1568 DUP3 PUSH2 0x153D JUMP JUMPDEST SWAP1 POP SWAP2 SWAP1 POP JUMP JUMPDEST PUSH2 0x1578 DUP2 PUSH2 0x155D JUMP JUMPDEST DUP3 MSTORE POP POP JUMP JUMPDEST PUSH1 0x0 PUSH1 0x20 DUP3 ADD SWAP1 POP PUSH2 0x1593 PUSH1 0x0 DUP4 ADD DUP5 PUSH2 0x156F JUMP JUMPDEST SWAP3 SWAP2 POP POP JUMP JUMPDEST PUSH2 0x15A2 DUP2 PUSH2 0x155D JUMP JUMPDEST DUP2 EQ PUSH2 0x15AD JUMPI PUSH1 0x0 DUP1 REVERT JUMPDEST POP JUMP JUMPDEST PUSH1 0x0 DUP2 CALLDATALOAD SWAP1 POP PUSH2 0x15BF DUP2 PUSH2 0x1599 JUMP JUMPDEST SWAP3 SWAP2 POP POP JUMP JUMPDEST PUSH1 0x0 PUSH1 0x20 DUP3 DUP5 SUB SLT ISZERO PUSH2 0x15DB JUMPI PUSH2 0x15DA PUSH2 0x14D0 JUMP JUMPDEST JUMPDEST PUSH1 0x0 PUSH2 0x15E9 DUP5 DUP3 DUP6 ADD PUSH2 0x15B0 JUMP JUMPDEST SWAP2 POP POP SWAP3 SWAP2 POP POP JUMP JUMPDEST PUSH1 0x0 DUP2 MLOAD SWAP1 POP SWAP2 SWAP1 POP JUMP JUMPDEST PUSH1 0x0 DUP3 DUP3 MSTORE PUSH1 0x20 DUP3 ADD SWAP1 POP SWAP3 SWAP2 POP POP JUMP JUMPDEST PUSH1 0x0 JUMPDEST DUP4 DUP2 LT ISZERO PUSH2 0x162C JUMPI DUP1 DUP3 ADD MLOAD DUP2 DUP5 ADD MSTORE PUSH1 0x20 DUP2 ADD SWAP1 POP PUSH2 0x1611 JUMP JUMPDEST DUP4 DUP2 GT ISZERO PUSH2 0x163B JUMPI PUSH1 0x0 DUP5 DUP5 ADD MSTORE JUMPDEST POP POP POP POP JUMP JUMPDEST PUSH1 0x0 PUSH1 0x1F NOT PUSH1 0x1F DUP4 ADD AND SWAP1 POP SWAP2 SWAP1 POP JUMP JUMPDEST PUSH1 0x0 PUSH2 0x165D DUP3 PUSH2 0x15F2 JUMP JUMPDEST PUSH2 0x1667 DUP2 DUP6 PUSH2 0x15FD JUMP JUMPDEST SWAP4 POP PUSH2 0x1677 DUP2 DUP6 PUSH1 0x20 DUP7 ADD PUSH2 0x160E JUMP JUMPDEST PUSH2 0x1680 DUP2 PUSH2 0x1641 JUMP JUMPDEST DUP5 ADD SWAP2 POP POP SWAP3 SWAP2 POP POP JUMP JUMPDEST PUSH1 0x0 PUSH1 0x20 DUP3 ADD SWAP1 POP DUP2 DUP2 SUB PUSH1 0x0 DUP4 ADD MSTORE PUSH2 0x16A5 DUP2 DUP5 PUSH2 0x1652 JUMP JUMPDEST SWAP1 POP SWAP3 SWAP2 POP POP JUMP JUMPDEST PUSH1 0x0 DUP1 REVERT JUMPDEST PUSH1 0x0 DUP1 REVERT JUMPDEST PUSH32 0x4E487B7100000000000000000000000000000000000000000000000000000000 PUSH1 0x0 MSTORE PUSH1 0x41 PUSH1 0x4 MSTORE PUSH1 0x24 PUSH1 0x0 REVERT JUMPDEST PUSH2 0x16EF DUP3 PUSH2 0x1641 JUMP JUMPDEST DUP2 ADD DUP2 DUP2 LT PUSH8 0xFFFFFFFFFFFFFFFF DUP3 GT OR ISZERO PUSH2 0x170E JUMPI PUSH2 0x170D PUSH2 0x16B7 JUMP JUMPDEST JUMPDEST DUP1 PUSH1 0x40 MSTORE POP POP POP JUMP JUMPDEST PUSH1 0x0 PUSH2 0x1721 PUSH2 0x14C6 JUMP JUMPDEST SWAP1 POP PUSH2 0x172D DUP3 DUP3 PUSH2 0x16E6 JUMP JUMPDEST SWAP2 SWAP1 POP JUMP JUMPDEST PUSH1 0x0 PUSH8 0xFFFFFFFFFFFFFFFF DUP3 GT ISZERO PUSH2 0x174D JUMPI PUSH2 0x174C PUSH2 0x16B7 JUMP JUMPDEST JUMPDEST PUSH2 0x1756 DUP3 PUSH2 0x1641 JUMP JUMPDEST SWAP1 POP PUSH1 0x20 DUP2 ADD SWAP1 POP SWAP2 SWAP1 POP JUMP JUMPDEST DUP3 DUP2 DUP4 CALLDATACOPY PUSH1 0x0 DUP4 DUP4 ADD MSTORE POP POP POP JUMP JUMPDEST PUSH1 0x0 PUSH2 0x1785 PUSH2 0x1780 DUP5 PUSH2 0x1732 JUMP JUMPDEST PUSH2 0x1717 JUMP JUMPDEST SWAP1 POP DUP3 DUP2 MSTORE PUSH1 0x20 DUP2 ADD DUP5 DUP5 DUP5 ADD GT ISZERO PUSH2 0x17A1 JUMPI PUSH2 0x17A0 PUSH2 0x16B2 JUMP JUMPDEST JUMPDEST PUSH2 0x17AC DUP5 DUP3 DUP6 PUSH2 0x1763 JUMP JUMPDEST POP SWAP4 SWAP3 POP POP POP JUMP JUMPDEST PUSH1 0x0 DUP3 PUSH1 0x1F DUP4 ADD SLT PUSH2 0x17C9 JUMPI PUSH2 0x17C8 PUSH2 0x16AD JUMP JUMPDEST JUMPDEST DUP2 CALLDATALOAD PUSH2 0x17D9 DUP5 DUP3 PUSH1 0x20 DUP7 ADD PUSH2 0x1772 JUMP JUMPDEST SWAP2 POP POP SWAP3 SWAP2 POP POP JUMP JUMPDEST PUSH1 0x0 PUSH1 0x20 DUP3 DUP5 SUB SLT ISZERO PUSH2 0x17F8 JUMPI PUSH2 0x17F7 PUSH2 0x14D0 JUMP JUMPDEST JUMPDEST PUSH1 0x0 DUP3 ADD CALLDATALOAD PUSH8 0xFFFFFFFFFFFFFFFF DUP2 GT ISZERO PUSH2 0x1816 JUMPI PUSH2 0x1815 PUSH2 0x14D5 JUMP JUMPDEST JUMPDEST PUSH2 0x1822 DUP5 DUP3 DUP6 ADD PUSH2 0x17B4 JUMP JUMPDEST SWAP2 POP POP SWAP3 SWAP2 POP POP JUMP JUMPDEST PUSH1 0x0 DUP2 ISZERO ISZERO SWAP1 POP SWAP2 SWAP1 POP JUMP JUMPDEST PUSH2 0x1840 DUP2 PUSH2 0x182B JUMP JUMPDEST DUP3 MSTORE POP POP JUMP JUMPDEST PUSH1 0x0 PUSH1 0x60 DUP3 ADD SWAP1 POP PUSH2 0x185B PUSH1 0x0 DUP4 ADD DUP7 PUSH2 0x1837 JUMP JUMPDEST PUSH2 0x1868 PUSH1 0x20 DUP4 ADD DUP6 PUSH2 0x1837 JUMP JUMPDEST PUSH2 0x1875 PUSH1 0x40 DUP4 ADD DUP5 PUSH2 0x156F JUMP JUMPDEST SWAP5 SWAP4 POP POP POP POP JUMP JUMPDEST PUSH2 0x1886 DUP2 PUSH2 0x14DA JUMP JUMPDEST DUP3 MSTORE POP POP JUMP JUMPDEST PUSH1 0x0 PUSH1 0x20 DUP3 ADD SWAP1 POP PUSH2 0x18A1 PUSH1 0x0 DUP4 ADD DUP5 PUSH2 0x187D JUMP JUMPDEST SWAP3 SWAP2 POP POP JUMP JUMPDEST PUSH1 0x0 PUSH1 0x40 DUP3 ADD SWAP1 POP PUSH2 0x18BC PUSH1 0x0 DUP4 ADD DUP6 PUSH2 0x187D JUMP JUMPDEST DUP2 DUP2 SUB PUSH1 0x20 DUP4 ADD MSTORE PUSH2 0x18CE DUP2 DUP5 PUSH2 0x1652 JUMP JUMPDEST SWAP1 POP SWAP4 SWAP3 POP POP POP JUMP JUMPDEST PUSH1 0x0 PUSH1 0x60 DUP3 ADD SWAP1 POP PUSH2 0x18EC PUSH1 0x0 DUP4 ADD DUP7 PUSH2 0x1837 JUMP JUMPDEST PUSH2 0x18F9 PUSH1 0x20 DUP4 ADD DUP6 PUSH2 0x156F JUMP JUMPDEST PUSH2 0x1906 PUSH1 0x40 DUP4 ADD DUP5 PUSH2 0x1837 JUMP JUMPDEST SWAP5 SWAP4 POP POP POP POP JUMP JUMPDEST PUSH1 0x0 PUSH1 0xA0 DUP3 ADD SWAP1 POP DUP2 DUP2 SUB PUSH1 0x0 DUP4 ADD MSTORE PUSH2 0x1928 DUP2 DUP9 PUSH2 0x1652 JUMP JUMPDEST SWAP1 POP PUSH2 0x1937 PUSH1 0x20 DUP4 ADD DUP8 PUSH2 0x187D JUMP JUMPDEST PUSH2 0x1944 PUSH1 0x40 DUP4 ADD DUP7 PUSH2 0x156F JUMP JUMPDEST PUSH2 0x1951 PUSH1 0x60 DUP4 ADD DUP6 PUSH2 0x187D JUMP JUMPDEST PUSH2 0x195E PUSH1 0x80 DUP4 ADD DUP5 PUSH2 0x187D JUMP JUMPDEST SWAP7 SWAP6 POP POP POP POP POP POP JUMP JUMPDEST PUSH32 0x4F6E6C7920696E69746961746F722063616E2072656769737465722061207265 PUSH1 0x0 DUP3 ADD MSTORE PUSH32 0x63697069656E742E000000000000000000000000000000000000000000000000 PUSH1 0x20 DUP3 ADD MSTORE POP JUMP JUMPDEST PUSH1 0x0 PUSH2 0x19C4 PUSH1 0x28 DUP4 PUSH2 0x15FD JUMP JUMPDEST SWAP2 POP PUSH2 0x19CF DUP3 PUSH2 0x1968 JUMP JUMPDEST PUSH1 0x40 DUP3 ADD SWAP1 POP SWAP2 SWAP1 POP JUMP JUMPDEST PUSH1 0x0 PUSH1 0x20 DUP3 ADD SWAP1 POP DUP2 DUP2 SUB PUSH1 0x0 DUP4 ADD MSTORE PUSH2 0x19F3 DUP2 PUSH2 0x19B7 JUMP JUMPDEST SWAP1 POP SWAP2 SWAP1 POP JUMP JUMPDEST PUSH32 0x496E69746961746F722063616E277420766F7465210000000000000000000000 PUSH1 0x0 DUP3 ADD MSTORE POP JUMP JUMPDEST PUSH1 0x0 PUSH2 0x1A30 PUSH1 0x15 DUP4 PUSH2 0x15FD JUMP JUMPDEST SWAP2 POP PUSH2 0x1A3B DUP3 PUSH2 0x19FA JUMP JUMPDEST PUSH1 0x20 DUP3 ADD SWAP1 POP SWAP2 SWAP1 POP JUMP JUMPDEST PUSH1 0x0 PUSH1 0x20 DUP3 ADD SWAP1 POP DUP2 DUP2 SUB PUSH1 0x0 DUP4 ADD MSTORE PUSH2 0x1A5F DUP2 PUSH2 0x1A23 JUMP JUMPDEST SWAP1 POP SWAP2 SWAP1 POP JUMP JUMPDEST PUSH32 0x526563697069656E7420697320616C7265616479207265676973746572656400 PUSH1 0x0 DUP3 ADD MSTORE POP JUMP JUMPDEST PUSH1 0x0 PUSH2 0x1A9C PUSH1 0x1F DUP4 PUSH2 0x15FD JUMP JUMPDEST SWAP2 POP PUSH2 0x1AA7 DUP3 PUSH2 0x1A66 JUMP JUMPDEST PUSH1 0x20 DUP3 ADD SWAP1 POP SWAP2 SWAP1 POP JUMP JUMPDEST PUSH1 0x0 PUSH1 0x20 DUP3 ADD SWAP1 POP DUP2 DUP2 SUB PUSH1 0x0 DUP4 ADD MSTORE PUSH2 0x1ACB DUP2 PUSH2 0x1A8F JUMP JUMPDEST SWAP1 POP SWAP2 SWAP1 POP JUMP JUMPDEST PUSH32 0x50726F706F73616C206861732072656163686564206974732065787069727920 PUSH1 0x0 DUP3 ADD MSTORE PUSH32 0x6461746500000000000000000000000000000000000000000000000000000000 PUSH1 0x20 DUP3 ADD MSTORE POP JUMP JUMPDEST PUSH1 0x0 PUSH2 0x1B2E PUSH1 0x24 DUP4 PUSH2 0x15FD JUMP JUMPDEST SWAP2 POP PUSH2 0x1B39 DUP3 PUSH2 0x1AD2 JUMP JUMPDEST PUSH1 0x40 DUP3 ADD SWAP1 POP SWAP2 SWAP1 POP JUMP JUMPDEST PUSH1 0x0 PUSH1 0x20 DUP3 ADD SWAP1 POP DUP2 DUP2 SUB PUSH1 0x0 DUP4 ADD MSTORE PUSH2 0x1B5D DUP2 PUSH2 0x1B21 JUMP JUMPDEST SWAP1 POP SWAP2 SWAP1 POP JUMP JUMPDEST PUSH32 0x4E487B7100000000000000000000000000000000000000000000000000000000 PUSH1 0x0 MSTORE PUSH1 0x22 PUSH1 0x4 MSTORE PUSH1 0x24 PUSH1 0x0 REVERT JUMPDEST PUSH1 0x0 PUSH1 0x2 DUP3 DIV SWAP1 POP PUSH1 0x1 DUP3 AND DUP1 PUSH2 0x1BAB JUMPI PUSH1 0x7F DUP3 AND SWAP2 POP JUMPDEST PUSH1 0x20 DUP3 LT DUP2 SUB PUSH2 0x1BBE JUMPI PUSH2 0x1BBD PUSH2 0x1B64 JUMP JUMPDEST JUMPDEST POP SWAP2 SWAP1 POP JUMP JUMPDEST PUSH32 0x566F74696E672068617320657870697265640000000000000000000000000000 PUSH1 0x0 DUP3 ADD MSTORE POP JUMP JUMPDEST PUSH1 0x0 PUSH2 0x1BFA PUSH1 0x12 DUP4 PUSH2 0x15FD JUMP JUMPDEST SWAP2 POP PUSH2 0x1C05 DUP3 PUSH2 0x1BC4 JUMP JUMPDEST PUSH1 0x20 DUP3 ADD SWAP1 POP SWAP2 SWAP1 POP JUMP JUMPDEST PUSH1 0x0 PUSH1 0x20 DUP3 ADD SWAP1 POP DUP2 DUP2 SUB PUSH1 0x0 DUP4 ADD MSTORE PUSH2 0x1C29 DUP2 PUSH2 0x1BED JUMP JUMPDEST SWAP1 POP SWAP2 SWAP1 POP JUMP JUMPDEST PUSH32 0x596F7520617265206E6F74207265676973746572656420746F20766F74650000 PUSH1 0x0 DUP3 ADD MSTORE POP JUMP JUMPDEST PUSH1 0x0 PUSH2 0x1C66 PUSH1 0x1E DUP4 PUSH2 0x15FD JUMP JUMPDEST SWAP2 POP PUSH2 0x1C71 DUP3 PUSH2 0x1C30 JUMP JUMPDEST PUSH1 0x20 DUP3 ADD SWAP1 POP SWAP2 SWAP1 POP JUMP JUMPDEST PUSH1 0x0 PUSH1 0x20 DUP3 ADD SWAP1 POP DUP2 DUP2 SUB PUSH1 0x0 DUP4 ADD MSTORE PUSH2 0x1C95 DUP2 PUSH2 0x1C59 JUMP JUMPDEST SWAP1 POP SWAP2 SWAP1 POP JUMP JUMPDEST PUSH32 0x596F7520616C72656164792073656E74206120726573706F6E73652E00000000 PUSH1 0x0 DUP3 ADD MSTORE POP JUMP JUMPDEST PUSH1 0x0 PUSH2 0x1CD2 PUSH1 0x1C DUP4 PUSH2 0x15FD JUMP JUMPDEST SWAP2 POP PUSH2 0x1CDD DUP3 PUSH2 0x1C9C JUMP JUMPDEST PUSH1 0x20 DUP3 ADD SWAP1 POP SWAP2 SWAP1 POP JUMP JUMPDEST PUSH1 0x0 PUSH1 0x20 DUP3 ADD SWAP1 POP DUP2 DUP2 SUB PUSH1 0x0 DUP4 ADD MSTORE PUSH2 0x1D01 DUP2 PUSH2 0x1CC5 JUMP JUMPDEST SWAP1 POP SWAP2 SWAP1 POP JUMP JUMPDEST PUSH32 0x4E487B7100000000000000000000000000000000000000000000000000000000 PUSH1 0x0 MSTORE PUSH1 0x11 PUSH1 0x4 MSTORE PUSH1 0x24 PUSH1 0x0 REVERT JUMPDEST PUSH1 0x0 PUSH2 0x1D42 DUP3 PUSH2 0x14DA JUMP JUMPDEST SWAP2 POP PUSH2 0x1D4D DUP4 PUSH2 0x14DA JUMP JUMPDEST SWAP3 POP DUP3 PUSH32 0xFFFFFFFFFFFFFFFFFFFFFFFFFFFFFFFFFFFFFFFFFFFFFFFFFFFFFFFFFFFFFFFF SUB DUP3 GT ISZERO PUSH2 0x1D82 JUMPI PUSH2 0x1D81 PUSH2 0x1D08 JUMP JUMPDEST JUMPDEST DUP3 DUP3 ADD SWAP1 POP SWAP3 SWAP2 POP POP JUMP JUMPDEST PUSH32 0x5665726469637420686173206E6F74206265656E207265616368656420796574 PUSH1 0x0 DUP3 ADD MSTORE POP JUMP JUMPDEST PUSH1 0x0 PUSH2 0x1DC3 PUSH1 0x20 DUP4 PUSH2 0x15FD JUMP JUMPDEST SWAP2 POP PUSH2 0x1DCE DUP3 PUSH2 0x1D8D JUMP JUMPDEST PUSH1 0x20 DUP3 ADD SWAP1 POP SWAP2 SWAP1 POP JUMP JUMPDEST PUSH1 0x0 PUSH1 0x20 DUP3 ADD SWAP1 POP DUP2 DUP2 SUB PUSH1 0x0 DUP4 ADD MSTORE PUSH2 0x1DF2 DUP2 PUSH2 0x1DB6 JUMP JUMPDEST SWAP1 POP SWAP2 SWAP1 POP JUMP JUMPDEST PUSH32 0x436F6E73656E7375732068617320616C7265616479206265656E2063616C6375 PUSH1 0x0 DUP3 ADD MSTORE PUSH32 0x6C61746564000000000000000000000000000000000000000000000000000000 PUSH1 0x20 DUP3 ADD MSTORE POP JUMP JUMPDEST PUSH1 0x0 PUSH2 0x1E55 PUSH1 0x25 DUP4 PUSH2 0x15FD JUMP JUMPDEST SWAP2 POP PUSH2 0x1E60 DUP3 PUSH2 0x1DF9 JUMP JUMPDEST PUSH1 0x40 DUP3 ADD SWAP1 POP SWAP2 SWAP1 POP JUMP JUMPDEST PUSH1 0x0 PUSH1 0x20 DUP3 ADD SWAP1 POP DUP2 DUP2 SUB PUSH1 0x0 DUP4 ADD MSTORE PUSH2 0x1E84 DUP2 PUSH2 0x1E48 JUMP JUMPDEST SWAP1 POP SWAP2 SWAP1 POP JUMP JUMPDEST PUSH32 0x4E487B7100000000000000000000000000000000000000000000000000000000 PUSH1 0x0 MSTORE PUSH1 0x12 PUSH1 0x4 MSTORE PUSH1 0x24 PUSH1 0x0 REVERT JUMPDEST PUSH1 0x0 PUSH2 0x1EC5 DUP3 PUSH2 0x14DA JUMP JUMPDEST SWAP2 POP PUSH2 0x1ED0 DUP4 PUSH2 0x14DA JUMP JUMPDEST SWAP3 POP DUP3 PUSH2 0x1EE0 JUMPI PUSH2 0x1EDF PUSH2 0x1E8B JUMP JUMPDEST JUMPDEST DUP3 DUP3 DIV SWAP1 POP SWAP3 SWAP2 POP POP JUMP JUMPDEST PUSH1 0x0 PUSH2 0x1EF6 DUP3 PUSH2 0x14DA JUMP JUMPDEST SWAP2 POP PUSH2 0x1F01 DUP4 PUSH2 0x14DA JUMP JUMPDEST SWAP3 POP DUP2 PUSH32 0xFFFFFFFFFFFFFFFFFFFFFFFFFFFFFFFFFFFFFFFFFFFFFFFFFFFFFFFFFFFFFFFF DIV DUP4 GT DUP3 ISZERO ISZERO AND ISZERO PUSH2 0x1F3A JUMPI PUSH2 0x1F39 PUSH2 0x1D08 JUMP JUMPDEST JUMPDEST DUP3 DUP3 MUL SWAP1 POP SWAP3 SWAP2 POP POP JUMP JUMPDEST PUSH1 0x0 DUP2 SWAP1 POP DUP2 PUSH1 0x0 MSTORE PUSH1 0x20 PUSH1 0x0 KECCAK256 SWAP1 POP SWAP2 SWAP1 POP JUMP JUMPDEST PUSH1 0x0 PUSH1 0x20 PUSH1 0x1F DUP4 ADD DIV SWAP1 POP SWAP2 SWAP1 POP JUMP JUMPDEST PUSH1 0x0 DUP3 DUP3 SHL SWAP1 POP SWAP3 SWAP2 POP POP JUMP JUMPDEST PUSH1 0x0 PUSH1 0x8 DUP4 MUL PUSH2 0x1FA7 PUSH32 0xFFFFFFFFFFFFFFFFFFFFFFFFFFFFFFFFFFFFFFFFFFFFFFFFFFFFFFFFFFFFFFFF DUP3 PUSH2 0x1F6A JUMP JUMPDEST PUSH2 0x1FB1 DUP7 DUP4 PUSH2 0x1F6A JUMP JUMPDEST SWAP6 POP DUP1 NOT DUP5 AND SWAP4 POP DUP1 DUP7 AND DUP5 OR SWAP3 POP POP POP SWAP4 SWAP3 POP POP POP JUMP JUMPDEST PUSH1 0x0 DUP2 SWAP1 POP SWAP2 SWAP1 POP JUMP JUMPDEST PUSH1 0x0 PUSH2 0x1FEE PUSH2 0x1FE9 PUSH2 0x1FE4 DUP5 PUSH2 0x14DA JUMP JUMPDEST PUSH2 0x1FC9 JUMP JUMPDEST PUSH2 0x14DA JUMP JUMPDEST SWAP1 POP SWAP2 SWAP1 POP JUMP JUMPDEST PUSH1 0x0 DUP2 SWAP1 POP SWAP2 SWAP1 POP JUMP JUMPDEST PUSH2 0x2008 DUP4 PUSH2 0x1FD3 JUMP JUMPDEST PUSH2 0x201C PUSH2 0x2014 DUP3 PUSH2 0x1FF5 JUMP JUMPDEST DUP5 DUP5 SLOAD PUSH2 0x1F77 JUMP JUMPDEST DUP3 SSTORE POP POP POP POP JUMP JUMPDEST PUSH1 0x0 SWAP1 JUMP JUMPDEST PUSH2 0x2031 PUSH2 0x2024 JUMP JUMPDEST PUSH2 0x203C DUP2 DUP5 DUP5 PUSH2 0x1FFF JUMP JUMPDEST POP POP POP JUMP JUMPDEST JUMPDEST DUP2 DUP2 LT ISZERO PUSH2 0x2060 JUMPI PUSH2 0x2055 PUSH1 0x0 DUP3 PUSH2 0x2029 JUMP JUMPDEST PUSH1 0x1 DUP2 ADD SWAP1 POP PUSH2 0x2042 JUMP JUMPDEST POP POP JUMP JUMPDEST PUSH1 0x1F DUP3 GT ISZERO PUSH2 0x20A5 JUMPI PUSH2 0x2076 DUP2 PUSH2 0x1F45 JUMP JUMPDEST PUSH2 0x207F DUP5 PUSH2 0x1F5A JUMP JUMPDEST DUP2 ADD PUSH1 0x20 DUP6 LT ISZERO PUSH2 0x208E JUMPI DUP2 SWAP1 POP JUMPDEST PUSH2 0x20A2 PUSH2 0x209A DUP6 PUSH2 0x1F5A JUMP JUMPDEST DUP4 ADD DUP3 PUSH2 0x2041 JUMP JUMPDEST POP POP JUMPDEST POP POP POP JUMP JUMPDEST PUSH1 0x0 DUP3 DUP3 SHR SWAP1 POP SWAP3 SWAP2 POP POP JUMP JUMPDEST PUSH1 0x0 PUSH2 0x20C8 PUSH1 0x0 NOT DUP5 PUSH1 0x8 MUL PUSH2 0x20AA JUMP JUMPDEST NOT DUP1 DUP4 AND SWAP2 POP POP SWAP3 SWAP2 POP POP JUMP JUMPDEST PUSH1 0x0 PUSH2 0x20E1 DUP4 DUP4 PUSH2 0x20B7 JUMP JUMPDEST SWAP2 POP DUP3 PUSH1 0x2 MUL DUP3 OR SWAP1 POP SWAP3 SWAP2 POP POP JUMP JUMPDEST PUSH2 0x20FA DUP3 PUSH2 0x15F2 JUMP JUMPDEST PUSH8 0xFFFFFFFFFFFFFFFF DUP2 GT ISZERO PUSH2 0x2113 JUMPI PUSH2 0x2112 PUSH2 0x16B7 JUMP JUMPDEST JUMPDEST PUSH2 0x211D DUP3 SLOAD PUSH2 0x1B93 JUMP JUMPDEST PUSH2 0x2128 DUP3 DUP3 DUP6 PUSH2 0x2064 JUMP JUMPDEST PUSH1 0x0 PUSH1 0x20 SWAP1 POP PUSH1 0x1F DUP4 GT PUSH1 0x1 DUP2 EQ PUSH2 0x215B JUMPI PUSH1 0x0 DUP5 ISZERO PUSH2 0x2149 JUMPI DUP3 DUP8 ADD MLOAD SWAP1 POP JUMPDEST PUSH2 0x2153 DUP6 DUP3 PUSH2 0x20D5 JUMP JUMPDEST DUP7 SSTORE POP PUSH2 0x21BB JUMP JUMPDEST PUSH1 0x1F NOT DUP5 AND PUSH2 0x2169 DUP7 PUSH2 0x1F45 JUMP JUMPDEST PUSH1 0x0 JUMPDEST DUP3 DUP2 LT ISZERO PUSH2 0x2191 JUMPI DUP5 DUP10 ADD MLOAD DUP3 SSTORE PUSH1 0x1 DUP3 ADD SWAP2 POP PUSH1 0x20 DUP6 ADD SWAP5 POP PUSH1 0x20 DUP2 ADD SWAP1 POP PUSH2 0x216C JUMP JUMPDEST DUP7 DUP4 LT ISZERO PUSH2 0x21AE JUMPI DUP5 DUP10 ADD MLOAD PUSH2 0x21AA PUSH1 0x1F DUP10 AND DUP3 PUSH2 0x20B7 JUMP JUMPDEST DUP4 SSTORE POP JUMPDEST PUSH1 0x1 PUSH1 0x2 DUP9 MUL ADD DUP9 SSTORE POP POP POP JUMPDEST POP POP POP POP POP POP JUMP JUMPDEST PUSH32 0x4E487B7100000000000000000000000000000000000000000000000000000000 PUSH1 0x0 MSTORE PUSH1 0x32 PUSH1 0x4 MSTORE PUSH1 0x24 PUSH1 0x0 REVERT JUMPDEST PUSH1 0x0 PUSH1 0xFF DUP3 AND SWAP1 POP SWAP2 SWAP1 POP JUMP JUMPDEST PUSH1 0x0 PUSH2 0x220A DUP3 PUSH2 0x21F2 JUMP JUMPDEST SWAP2 POP PUSH1 0xFF DUP3 SUB PUSH2 0x221D JUMPI PUSH2 0x221C PUSH2 0x1D08 JUMP JUMPDEST JUMPDEST PUSH1 0x1 DUP3 ADD SWAP1 POP SWAP2 SWAP1 POP JUMP INVALID LOG2 PUSH5 0x6970667358 0x22 SLT KECCAK256 SWAP1 PUSH10 0x7677A1CD1B969215245A 0xC8 0x4A EXTCODECOPY 0x24 SWAP10 0xE1 0xA5 0xC0 ADDRESS SWAP12 PUSH12 0x155C9CC77769C3EB5464736F PUSH13 0x634300080F0033000000000000 "
				},
				"gasEstimates": {
					"creation": {
						"codeDepositCost": "1759600",
						"executionCost": "infinite",
						"totalCost": "infinite"
					},
					"external": {
						"AccumulatedPercentage()": "2496",
						"BusinessRequirement()": "2473",
						"Consensus()": "infinite",
						"RegisterVoter(address)": "131014",
						"Vote(string)": "infinite",
						"contractAddress()": "2599",
						"getParameters()": "infinite",
						"getParameters2(address)": "infinite",
						"getValues()": "infinite",
						"initiator()": "2559",
						"keys(uint256)": "4980",
						"numApprovals()": "2518",
						"numberCompiled()": "2451",
						"proposal()": "infinite",
						"voters(uint256)": "infinite",
						"voters_map(address)": "infinite"
					},
					"internal": {
						"retrieve_bundle()": "infinite"
					}
				},
				"methodIdentifiers": {
					"AccumulatedPercentage()": "604c8333",
					"BusinessRequirement()": "d77aa749",
					"Consensus()": "95b02dfa",
					"RegisterVoter(address)": "15fe6f1b",
					"Vote(string)": "323082d7",
					"contractAddress()": "f6b4dfb4",
					"getParameters()": "a5ea11da",
					"getParameters2(address)": "5361a0ea",
					"getValues()": "19eb4a90",
					"initiator()": "5c39fcc1",
					"keys(uint256)": "0cb6aaf1",
					"numApprovals()": "7403c5e5",
					"numberCompiled()": "b9a29250",
					"proposal()": "753ec103",
					"voters(uint256)": "da58c7d9",
					"voters_map(address)": "9aa4bbdd"
				}
			},
			"storageLayout": {
				"storage": [
					{
						"astId": 15,
						"contract": "contracts/BusinessConsensus.sol:BusinessConsensus",
						"label": "contractAddress",
						"offset": 0,
						"slot": "0",
						"type": "t_address"
					},
					{
						"astId": 17,
						"contract": "contracts/BusinessConsensus.sol:BusinessConsensus",
						"label": "expiryDate",
						"offset": 0,
						"slot": "1",
						"type": "t_uint256"
					},
					{
						"astId": 19,
						"contract": "contracts/BusinessConsensus.sol:BusinessConsensus",
						"label": "finalVerdict",
						"offset": 0,
						"slot": "2",
						"type": "t_string_storage"
					},
					{
						"astId": 23,
						"contract": "contracts/BusinessConsensus.sol:BusinessConsensus",
						"label": "initiator",
						"offset": 0,
						"slot": "3",
						"type": "t_address"
					},
					{
						"astId": 25,
						"contract": "contracts/BusinessConsensus.sol:BusinessConsensus",
						"label": "BusinessRequirement",
						"offset": 0,
						"slot": "4",
						"type": "t_uint256"
					},
					{
						"astId": 27,
						"contract": "contracts/BusinessConsensus.sol:BusinessConsensus",
						"label": "AccumulatedPercentage",
						"offset": 0,
						"slot": "5",
						"type": "t_uint256"
					},
					{
						"astId": 29,
						"contract": "contracts/BusinessConsensus.sol:BusinessConsensus",
						"label": "numApprovals",
						"offset": 0,
						"slot": "6",
						"type": "t_uint256"
					},
					{
						"astId": 31,
						"contract": "contracts/BusinessConsensus.sol:BusinessConsensus",
						"label": "numberCompiled",
						"offset": 0,
						"slot": "7",
						"type": "t_uint256"
					},
					{
						"astId": 35,
						"contract": "contracts/BusinessConsensus.sol:BusinessConsensus",
						"label": "voters",
						"offset": 0,
						"slot": "8",
						"type": "t_array(t_struct(Voter)8_storage)dyn_storage"
					},
					{
						"astId": 38,
						"contract": "contracts/BusinessConsensus.sol:BusinessConsensus",
						"label": "keys",
						"offset": 0,
						"slot": "9",
						"type": "t_array(t_address)dyn_storage"
					},
					{
						"astId": 43,
						"contract": "contracts/BusinessConsensus.sol:BusinessConsensus",
						"label": "voters_map",
						"offset": 0,
						"slot": "10",
						"type": "t_mapping(t_address,t_struct(Voter)8_storage)"
					},
					{
						"astId": 46,
						"contract": "contracts/BusinessConsensus.sol:BusinessConsensus",
						"label": "proposal",
						"offset": 0,
						"slot": "11",
						"type": "t_struct(Proposal)13_storage"
					}
				],
				"types": {
					"t_address": {
						"encoding": "inplace",
						"label": "address",
						"numberOfBytes": "20"
					},
					"t_array(t_address)dyn_storage": {
						"base": "t_address",
						"encoding": "dynamic_array",
						"label": "address[]",
						"numberOfBytes": "32"
					},
					"t_array(t_struct(Voter)8_storage)dyn_storage": {
						"base": "t_struct(Voter)8_storage",
						"encoding": "dynamic_array",
						"label": "struct BusinessConsensus.Voter[]",
						"numberOfBytes": "32"
					},
					"t_bool": {
						"encoding": "inplace",
						"label": "bool",
						"numberOfBytes": "1"
					},
					"t_mapping(t_address,t_struct(Voter)8_storage)": {
						"encoding": "mapping",
						"key": "t_address",
						"label": "mapping(address => struct BusinessConsensus.Voter)",
						"numberOfBytes": "32",
						"value": "t_struct(Voter)8_storage"
					},
					"t_string_storage": {
						"encoding": "bytes",
						"label": "string",
						"numberOfBytes": "32"
					},
					"t_struct(Proposal)13_storage": {
						"encoding": "inplace",
						"label": "struct BusinessConsensus.Proposal",
						"members": [
							{
								"astId": 10,
								"contract": "contracts/BusinessConsensus.sol:BusinessConsensus",
								"label": "voteCount",
								"offset": 0,
								"slot": "0",
								"type": "t_uint256"
							},
							{
								"astId": 12,
								"contract": "contracts/BusinessConsensus.sol:BusinessConsensus",
								"label": "messageID",
								"offset": 0,
								"slot": "1",
								"type": "t_string_storage"
							}
						],
						"numberOfBytes": "64"
					},
					"t_struct(Voter)8_storage": {
						"encoding": "inplace",
						"label": "struct BusinessConsensus.Voter",
						"members": [
							{
								"astId": 3,
								"contract": "contracts/BusinessConsensus.sol:BusinessConsensus",
								"label": "voted",
								"offset": 0,
								"slot": "0",
								"type": "t_bool"
							},
							{
								"astId": 5,
								"contract": "contracts/BusinessConsensus.sol:BusinessConsensus",
								"label": "recipient",
								"offset": 1,
								"slot": "0",
								"type": "t_address"
							},
							{
								"astId": 7,
								"contract": "contracts/BusinessConsensus.sol:BusinessConsensus",
								"label": "vote",
								"offset": 21,
								"slot": "0",
								"type": "t_bool"
							}
						],
						"numberOfBytes": "32"
					},
					"t_uint256": {
						"encoding": "inplace",
						"label": "uint256",
						"numberOfBytes": "32"
					}
				}
			},
			"userdoc": {
				"kind": "user",
				"methods": {
					"Consensus()": {
						"notice": "compile all relevant information into a Bundle"
					},
					"Vote(string)": {
						"notice": "Delegate your vote to the voter `to`."
					}
				},
				"version": 1
			}
		}
	}
}