{
	"contracts/BusinessConsensus2.sol": {
		"BusinessConsensus2": {
			"abi": [
				{
					"inputs": [
						{
							"internalType": "string",
							"name": "_messageID",
							"type": "string"
						}
					],
					"name": "Consensus",
					"outputs": [],
					"stateMutability": "nonpayable",
					"type": "function"
				},
				{
					"inputs": [
						{
							"internalType": "address",
							"name": "voter",
							"type": "address"
						},
						{
							"internalType": "string",
							"name": "_messageID",
							"type": "string"
						}
					],
					"name": "RegisterVoter",
					"outputs": [],
					"stateMutability": "nonpayable",
					"type": "function"
				},
				{
					"inputs": [
						{
							"internalType": "string",
							"name": "response",
							"type": "string"
						},
						{
							"internalType": "string",
							"name": "_messageID",
							"type": "string"
						}
					],
					"name": "Vote",
					"outputs": [],
					"stateMutability": "nonpayable",
					"type": "function"
				},
				{
					"inputs": [
						{
							"internalType": "string",
							"name": "",
							"type": "string"
						},
						{
							"internalType": "uint256",
							"name": "",
							"type": "uint256"
						}
					],
					"name": "Voters",
					"outputs": [
						{
							"internalType": "bool",
							"name": "voted",
							"type": "bool"
						},
						{
							"internalType": "bool",
							"name": "vote",
							"type": "bool"
						},
						{
							"internalType": "address",
							"name": "recipient",
							"type": "address"
						}
					],
					"stateMutability": "view",
					"type": "function"
				},
				{
					"inputs": [
						{
							"internalType": "string",
							"name": "",
							"type": "string"
						}
					],
					"name": "businessProposals",
					"outputs": [
						{
							"internalType": "string",
							"name": "messageID",
							"type": "string"
						},
						{
							"internalType": "address",
							"name": "initiator",
							"type": "address"
						},
						{
							"internalType": "address",
							"name": "contractAddress",
							"type": "address"
						},
						{
							"internalType": "uint256",
							"name": "voteCount",
							"type": "uint256"
						},
						{
							"internalType": "uint256",
							"name": "expiryDate",
							"type": "uint256"
						},
						{
							"internalType": "uint256",
							"name": "BusinessRequirement",
							"type": "uint256"
						},
						{
							"internalType": "uint256",
							"name": "numApprovals",
							"type": "uint256"
						},
						{
							"internalType": "bool",
							"name": "isCompiled",
							"type": "bool"
						},
						{
							"internalType": "bytes32",
							"name": "finalVerdict",
							"type": "bytes32"
						},
						{
							"internalType": "string",
							"name": "messageDate",
							"type": "string"
						},
						{
							"internalType": "string",
							"name": "subject",
							"type": "string"
						},
						{
							"internalType": "string",
							"name": "contents",
							"type": "string"
						}
					],
					"stateMutability": "view",
					"type": "function"
				},
				{
					"inputs": [
						{
							"internalType": "string",
							"name": "_subject",
							"type": "string"
						},
						{
							"internalType": "uint256",
							"name": "_businessRequirement",
							"type": "uint256"
						},
						{
							"internalType": "uint256",
							"name": "_expiry",
							"type": "uint256"
						},
						{
							"internalType": "string",
							"name": "_contents",
							"type": "string"
						}
					],
					"name": "checkConsistency",
					"outputs": [
						{
							"internalType": "bool",
							"name": "",
							"type": "bool"
						},
						{
							"internalType": "bool",
							"name": "",
							"type": "bool"
						},
						{
							"internalType": "bool",
							"name": "",
							"type": "bool"
						}
					],
					"stateMutability": "view",
					"type": "function"
				},
				{
					"inputs": [
						{
							"internalType": "string",
							"name": "_messageID",
							"type": "string"
						},
						{
							"internalType": "uint256",
							"name": "expiry",
							"type": "uint256"
						},
						{
							"internalType": "uint256",
							"name": "requiredPercentage",
							"type": "uint256"
						},
						{
							"internalType": "string",
							"name": "contents",
							"type": "string"
						},
						{
							"internalType": "string",
							"name": "subject",
							"type": "string"
						},
						{
							"internalType": "string",
							"name": "_messageDate",
							"type": "string"
						}
					],
					"name": "createContract",
					"outputs": [],
					"stateMutability": "nonpayable",
					"type": "function"
				},
				{
					"inputs": [
						{
							"internalType": "string",
							"name": "_messageID",
							"type": "string"
						}
					],
					"name": "getIsCompiled",
					"outputs": [
						{
							"internalType": "bool",
							"name": "",
							"type": "bool"
						}
					],
					"stateMutability": "view",
					"type": "function"
				},
				{
					"inputs": [
						{
							"internalType": "string",
							"name": "subject",
							"type": "string"
						}
					],
					"name": "getIsCreated",
					"outputs": [
						{
							"components": [
								{
									"internalType": "string",
									"name": "messageID",
									"type": "string"
								},
								{
									"internalType": "address",
									"name": "initiator",
									"type": "address"
								},
								{
									"internalType": "address",
									"name": "contractAddress",
									"type": "address"
								},
								{
									"internalType": "uint256",
									"name": "voteCount",
									"type": "uint256"
								},
								{
									"internalType": "uint256",
									"name": "expiryDate",
									"type": "uint256"
								},
								{
									"internalType": "uint256",
									"name": "BusinessRequirement",
									"type": "uint256"
								},
								{
									"internalType": "uint256",
									"name": "numApprovals",
									"type": "uint256"
								},
								{
									"internalType": "bool",
									"name": "isCompiled",
									"type": "bool"
								},
								{
									"internalType": "bytes32",
									"name": "finalVerdict",
									"type": "bytes32"
								},
								{
									"internalType": "string",
									"name": "messageDate",
									"type": "string"
								},
								{
									"internalType": "string",
									"name": "subject",
									"type": "string"
								},
								{
									"internalType": "string",
									"name": "contents",
									"type": "string"
								}
							],
							"internalType": "struct BusinessConsensus2.Proposal",
							"name": "",
							"type": "tuple"
						}
					],
					"stateMutability": "view",
					"type": "function"
				},
				{
					"inputs": [
						{
							"internalType": "string",
							"name": "_messageID",
							"type": "string"
						}
					],
					"name": "getValues",
					"outputs": [
						{
							"internalType": "string",
							"name": "",
							"type": "string"
						}
					],
					"stateMutability": "view",
					"type": "function"
				},
				{
					"inputs": [
						{
							"internalType": "string",
							"name": "",
							"type": "string"
						},
						{
							"internalType": "uint256",
							"name": "",
							"type": "uint256"
						}
					],
					"name": "keys",
					"outputs": [
						{
							"internalType": "address",
							"name": "",
							"type": "address"
						}
					],
					"stateMutability": "view",
					"type": "function"
				},
				{
					"inputs": [
						{
							"internalType": "string",
							"name": "_messageID",
							"type": "string"
						}
					],
					"name": "retrieve_bundle",
					"outputs": [
						{
							"internalType": "bytes32",
							"name": "",
							"type": "bytes32"
						},
						{
							"internalType": "string",
							"name": "",
							"type": "string"
						},
						{
							"internalType": "uint256",
							"name": "",
							"type": "uint256"
						},
						{
							"components": [
								{
									"internalType": "bool",
									"name": "voted",
									"type": "bool"
								},
								{
									"internalType": "bool",
									"name": "vote",
									"type": "bool"
								},
								{
									"internalType": "address",
									"name": "recipient",
									"type": "address"
								}
							],
							"internalType": "struct BusinessConsensus2.Voter[]",
							"name": "",
							"type": "tuple[]"
						}
					],
					"stateMutability": "view",
					"type": "function"
				},
				{
					"inputs": [
						{
							"internalType": "string",
							"name": "",
							"type": "string"
						},
						{
							"internalType": "address",
							"name": "",
							"type": "address"
						}
					],
					"name": "voter_maps",
					"outputs": [
						{
							"internalType": "bool",
							"name": "voted",
							"type": "bool"
						},
						{
							"internalType": "bool",
							"name": "vote",
							"type": "bool"
						},
						{
							"internalType": "address",
							"name": "recipient",
							"type": "address"
						}
					],
					"stateMutability": "view",
					"type": "function"
				}
			],
			"devdoc": {
				"kind": "dev",
				"methods": {},
				"version": 1
			},
			"evm": {
				"assembly": "    /* \"contracts/BusinessConsensus2.sol\":33:8316  contract BusinessConsensus2{\r... */\n  mstore(0x40, 0x80)\n  callvalue\n  dup1\n  iszero\n  tag_1\n  jumpi\n  0x00\n  dup1\n  revert\ntag_1:\n  pop\n  dataSize(sub_0)\n  dup1\n  dataOffset(sub_0)\n  0x00\n  codecopy\n  0x00\n  return\nstop\n\nsub_0: assembly {\n        /* \"contracts/BusinessConsensus2.sol\":33:8316  contract BusinessConsensus2{\r... */\n      mstore(0x40, 0x80)\n      callvalue\n      dup1\n      iszero\n      tag_1\n      jumpi\n      0x00\n      dup1\n      revert\n    tag_1:\n      pop\n      jumpi(tag_2, lt(calldatasize, 0x04))\n      shr(0xe0, calldataload(0x00))\n      dup1\n      0x706e2105\n      gt\n      tag_16\n      jumpi\n      dup1\n      0x8f6a35b7\n      gt\n      tag_17\n      jumpi\n      dup1\n      0x8f6a35b7\n      eq\n      tag_12\n      jumpi\n      dup1\n      0xc99ba896\n      eq\n      tag_13\n      jumpi\n      dup1\n      0xc9bc42ed\n      eq\n      tag_14\n      jumpi\n      dup1\n      0xec548680\n      eq\n      tag_15\n      jumpi\n      jump(tag_2)\n    tag_17:\n      dup1\n      0x706e2105\n      eq\n      tag_9\n      jumpi\n      dup1\n      0x883a9673\n      eq\n      tag_10\n      jumpi\n      dup1\n      0x8b5f41fb\n      eq\n      tag_11\n      jumpi\n      jump(tag_2)\n    tag_16:\n      dup1\n      0x06699b01\n      eq\n      tag_3\n      jumpi\n      dup1\n      0x089a4c60\n      eq\n      tag_4\n      jumpi\n      dup1\n      0x17072d6b\n      eq\n      tag_5\n      jumpi\n      dup1\n      0x33a0b0ab\n      eq\n      tag_6\n      jumpi\n      dup1\n      0x37f2e190\n      eq\n      tag_7\n      jumpi\n      dup1\n      0x3d63af0e\n      eq\n      tag_8\n      jumpi\n    tag_2:\n      0x00\n      dup1\n      revert\n        /* \"contracts/BusinessConsensus2.sol\":1150:1188  mapping(string=>address[]) public keys */\n    tag_3:\n      tag_18\n      0x04\n      dup1\n      calldatasize\n      sub\n      dup2\n      add\n      swap1\n      tag_19\n      swap2\n      swap1\n      tag_20\n      jump\t// in\n    tag_19:\n      tag_21\n      jump\t// in\n    tag_18:\n      mload(0x40)\n      tag_22\n      swap2\n      swap1\n      tag_23\n      jump\t// in\n    tag_22:\n      mload(0x40)\n      dup1\n      swap2\n      sub\n      swap1\n      return\n        /* \"contracts/BusinessConsensus2.sol\":983:1033  mapping(string=>Proposal) public businessProposals */\n    tag_4:\n      tag_24\n      0x04\n      dup1\n      calldatasize\n      sub\n      dup2\n      add\n      swap1\n      tag_25\n      swap2\n      swap1\n      tag_26\n      jump\t// in\n    tag_25:\n      tag_27\n      jump\t// in\n    tag_24:\n      mload(0x40)\n      tag_28\n      swap13\n      swap12\n      swap11\n      swap10\n      swap9\n      swap8\n      swap7\n      swap6\n      swap5\n      swap4\n      swap3\n      swap2\n      swap1\n      tag_29\n      jump\t// in\n    tag_28:\n      mload(0x40)\n      dup1\n      swap2\n      sub\n      swap1\n      return\n        /* \"contracts/BusinessConsensus2.sol\":5230:6621  function Vote(string memory response,string calldata _messageID) external {\r... */\n    tag_5:\n      tag_30\n      0x04\n      dup1\n      calldatasize\n      sub\n      dup2\n      add\n      swap1\n      tag_31\n      swap2\n      swap1\n      tag_32\n      jump\t// in\n    tag_31:\n      tag_33\n      jump\t// in\n    tag_30:\n      stop\n        /* \"contracts/BusinessConsensus2.sol\":1040:1098  mapping(string=>mapping(address=>Voter)) public voter_maps */\n    tag_6:\n      tag_34\n      0x04\n      dup1\n      calldatasize\n      sub\n      dup2\n      add\n      swap1\n      tag_35\n      swap2\n      swap1\n      tag_36\n      jump\t// in\n    tag_35:\n      tag_37\n      jump\t// in\n    tag_34:\n      mload(0x40)\n      tag_38\n      swap4\n      swap3\n      swap2\n      swap1\n      tag_39\n      jump\t// in\n    tag_38:\n      mload(0x40)\n      dup1\n      swap2\n      sub\n      swap1\n      return\n        /* \"contracts/BusinessConsensus2.sol\":7752:8311  function retrieve_bundle(string calldata _messageID) external view returns (bytes32, string memory, uint256, Voter[] memory){\r... */\n    tag_7:\n      tag_40\n      0x04\n      dup1\n      calldatasize\n      sub\n      dup2\n      add\n      swap1\n      tag_41\n      swap2\n      swap1\n      tag_42\n      jump\t// in\n    tag_41:\n      tag_43\n      jump\t// in\n    tag_40:\n      mload(0x40)\n      tag_44\n      swap5\n      swap4\n      swap3\n      swap2\n      swap1\n      tag_45\n      jump\t// in\n    tag_44:\n      mload(0x40)\n      dup1\n      swap2\n      sub\n      swap1\n      return\n        /* \"contracts/BusinessConsensus2.sol\":4425:5222  function RegisterVoter(address voter,string calldata _messageID) external {\r... */\n    tag_8:\n      tag_46\n      0x04\n      dup1\n      calldatasize\n      sub\n      dup2\n      add\n      swap1\n      tag_47\n      swap2\n      swap1\n      tag_48\n      jump\t// in\n    tag_47:\n      tag_49\n      jump\t// in\n    tag_46:\n      stop\n        /* \"contracts/BusinessConsensus2.sol\":2555:3513  function checkConsistency(string memory _subject, uint256 _businessRequirement, uint256 _expiry, string memory _contents) public view returns(bool, bool, bool){\r... */\n    tag_9:\n      tag_50\n      0x04\n      dup1\n      calldatasize\n      sub\n      dup2\n      add\n      swap1\n      tag_51\n      swap2\n      swap1\n      tag_52\n      jump\t// in\n    tag_51:\n      tag_53\n      jump\t// in\n    tag_50:\n      mload(0x40)\n      tag_54\n      swap4\n      swap3\n      swap2\n      swap1\n      tag_55\n      jump\t// in\n    tag_54:\n      mload(0x40)\n      dup1\n      swap2\n      sub\n      swap1\n      return\n        /* \"contracts/BusinessConsensus2.sol\":6685:7744  function Consensus(string calldata _messageID) external {\r... */\n    tag_10:\n      tag_56\n      0x04\n      dup1\n      calldatasize\n      sub\n      dup2\n      add\n      swap1\n      tag_57\n      swap2\n      swap1\n      tag_42\n      jump\t// in\n    tag_57:\n      tag_58\n      jump\t// in\n    tag_56:\n      stop\n        /* \"contracts/BusinessConsensus2.sol\":1201:2247  function createContract(string memory _messageID, uint256 expiry, uint256 requiredPercentage,string memory contents,string memory subject,string memory _messageDate) external{\r... */\n    tag_11:\n      tag_59\n      0x04\n      dup1\n      calldatasize\n      sub\n      dup2\n      add\n      swap1\n      tag_60\n      swap2\n      swap1\n      tag_61\n      jump\t// in\n    tag_60:\n      tag_62\n      jump\t// in\n    tag_59:\n      stop\n        /* \"contracts/BusinessConsensus2.sol\":1105:1143  mapping(string=>Voter[]) public Voters */\n    tag_12:\n      tag_63\n      0x04\n      dup1\n      calldatasize\n      sub\n      dup2\n      add\n      swap1\n      tag_64\n      swap2\n      swap1\n      tag_20\n      jump\t// in\n    tag_64:\n      tag_65\n      jump\t// in\n    tag_63:\n      mload(0x40)\n      tag_66\n      swap4\n      swap3\n      swap2\n      swap1\n      tag_39\n      jump\t// in\n    tag_66:\n      mload(0x40)\n      dup1\n      swap2\n      sub\n      swap1\n      return\n        /* \"contracts/BusinessConsensus2.sol\":2253:2400  function getValues(string calldata _messageID) public view returns (string memory){\r... */\n    tag_13:\n      tag_67\n      0x04\n      dup1\n      calldatasize\n      sub\n      dup2\n      add\n      swap1\n      tag_68\n      swap2\n      swap1\n      tag_42\n      jump\t// in\n    tag_68:\n      tag_69\n      jump\t// in\n    tag_67:\n      mload(0x40)\n      tag_70\n      swap2\n      swap1\n      tag_71\n      jump\t// in\n    tag_70:\n      mload(0x40)\n      dup1\n      swap2\n      sub\n      swap1\n      return\n        /* \"contracts/BusinessConsensus2.sol\":3519:3655  function getIsCreated(string calldata subject) public view returns (Proposal memory){\r... */\n    tag_14:\n      tag_72\n      0x04\n      dup1\n      calldatasize\n      sub\n      dup2\n      add\n      swap1\n      tag_73\n      swap2\n      swap1\n      tag_42\n      jump\t// in\n    tag_73:\n      tag_74\n      jump\t// in\n    tag_72:\n      mload(0x40)\n      tag_75\n      swap2\n      swap1\n      tag_76\n      jump\t// in\n    tag_75:\n      mload(0x40)\n      dup1\n      swap2\n      sub\n      swap1\n      return\n        /* \"contracts/BusinessConsensus2.sol\":2406:2549  function getIsCompiled(string calldata _messageID) public view returns (bool){\r... */\n    tag_15:\n      tag_77\n      0x04\n      dup1\n      calldatasize\n      sub\n      dup2\n      add\n      swap1\n      tag_78\n      swap2\n      swap1\n      tag_42\n      jump\t// in\n    tag_78:\n      tag_79\n      jump\t// in\n    tag_77:\n      mload(0x40)\n      tag_80\n      swap2\n      swap1\n      tag_81\n      jump\t// in\n    tag_80:\n      mload(0x40)\n      dup1\n      swap2\n      sub\n      swap1\n      return\n        /* \"contracts/BusinessConsensus2.sol\":1150:1188  mapping(string=>address[]) public keys */\n    tag_21:\n      0x03\n      dup3\n      dup1\n      mload\n      0x20\n      dup2\n      add\n      dup3\n      add\n      dup1\n      mload\n      dup5\n      dup3\n      mstore\n      0x20\n      dup4\n      add\n      0x20\n      dup6\n      add\n      keccak256\n      dup2\n      dup4\n      mstore\n      dup1\n      swap6\n      pop\n      pop\n      pop\n      pop\n      pop\n      pop\n      dup2\n      dup2\n      sload\n      dup2\n      lt\n      tag_82\n      jumpi\n      0x00\n      dup1\n      revert\n    tag_82:\n      swap1\n      0x00\n      mstore\n      keccak256(0x00, 0x20)\n      add\n      0x00\n      swap2\n      pop\n      swap2\n      pop\n      swap1\n      sload\n      swap1\n      0x0100\n      exp\n      swap1\n      div\n      0xffffffffffffffffffffffffffffffffffffffff\n      and\n      dup2\n      jump\t// out\n        /* \"contracts/BusinessConsensus2.sol\":983:1033  mapping(string=>Proposal) public businessProposals */\n    tag_27:\n      0x00\n      dup2\n      dup1\n      mload\n      0x20\n      dup2\n      add\n      dup3\n      add\n      dup1\n      mload\n      dup5\n      dup3\n      mstore\n      0x20\n      dup4\n      add\n      0x20\n      dup6\n      add\n      keccak256\n      dup2\n      dup4\n      mstore\n      dup1\n      swap6\n      pop\n      pop\n      pop\n      pop\n      pop\n      pop\n      0x00\n      swap2\n      pop\n      swap1\n      pop\n      dup1\n      0x00\n      add\n      dup1\n      sload\n      tag_84\n      swap1\n      tag_85\n      jump\t// in\n    tag_84:\n      dup1\n      0x1f\n      add\n      0x20\n      dup1\n      swap2\n      div\n      mul\n      0x20\n      add\n      mload(0x40)\n      swap1\n      dup2\n      add\n      0x40\n      mstore\n      dup1\n      swap3\n      swap2\n      swap1\n      dup2\n      dup2\n      mstore\n      0x20\n      add\n      dup3\n      dup1\n      sload\n      tag_86\n      swap1\n      tag_85\n      jump\t// in\n    tag_86:\n      dup1\n      iszero\n      tag_87\n      jumpi\n      dup1\n      0x1f\n      lt\n      tag_88\n      jumpi\n      0x0100\n      dup1\n      dup4\n      sload\n      div\n      mul\n      dup4\n      mstore\n      swap2\n      0x20\n      add\n      swap2\n      jump(tag_87)\n    tag_88:\n      dup3\n      add\n      swap2\n      swap1\n      0x00\n      mstore\n      keccak256(0x00, 0x20)\n      swap1\n    tag_89:\n      dup2\n      sload\n      dup2\n      mstore\n      swap1\n      0x01\n      add\n      swap1\n      0x20\n      add\n      dup1\n      dup4\n      gt\n      tag_89\n      jumpi\n      dup3\n      swap1\n      sub\n      0x1f\n      and\n      dup3\n      add\n      swap2\n    tag_87:\n      pop\n      pop\n      pop\n      pop\n      pop\n      swap1\n      dup1\n      0x01\n      add\n      0x00\n      swap1\n      sload\n      swap1\n      0x0100\n      exp\n      swap1\n      div\n      0xffffffffffffffffffffffffffffffffffffffff\n      and\n      swap1\n      dup1\n      0x02\n      add\n      0x00\n      swap1\n      sload\n      swap1\n      0x0100\n      exp\n      swap1\n      div\n      0xffffffffffffffffffffffffffffffffffffffff\n      and\n      swap1\n      dup1\n      0x03\n      add\n      sload\n      swap1\n      dup1\n      0x04\n      add\n      sload\n      swap1\n      dup1\n      0x05\n      add\n      sload\n      swap1\n      dup1\n      0x06\n      add\n      sload\n      swap1\n      dup1\n      0x07\n      add\n      0x00\n      swap1\n      sload\n      swap1\n      0x0100\n      exp\n      swap1\n      div\n      0xff\n      and\n      swap1\n      dup1\n      0x08\n      add\n      sload\n      swap1\n      dup1\n      0x09\n      add\n      dup1\n      sload\n      tag_90\n      swap1\n      tag_85\n      jump\t// in\n    tag_90:\n      dup1\n      0x1f\n      add\n      0x20\n      dup1\n      swap2\n      div\n      mul\n      0x20\n      add\n      mload(0x40)\n      swap1\n      dup2\n      add\n      0x40\n      mstore\n      dup1\n      swap3\n      swap2\n      swap1\n      dup2\n      dup2\n      mstore\n      0x20\n      add\n      dup3\n      dup1\n      sload\n      tag_91\n      swap1\n      tag_85\n      jump\t// in\n    tag_91:\n      dup1\n      iszero\n      tag_92\n      jumpi\n      dup1\n      0x1f\n      lt\n      tag_93\n      jumpi\n      0x0100\n      dup1\n      dup4\n      sload\n      div\n      mul\n      dup4\n      mstore\n      swap2\n      0x20\n      add\n      swap2\n      jump(tag_92)\n    tag_93:\n      dup3\n      add\n      swap2\n      swap1\n      0x00\n      mstore\n      keccak256(0x00, 0x20)\n      swap1\n    tag_94:\n      dup2\n      sload\n      dup2\n      mstore\n      swap1\n      0x01\n      add\n      swap1\n      0x20\n      add\n      dup1\n      dup4\n      gt\n      tag_94\n      jumpi\n      dup3\n      swap1\n      sub\n      0x1f\n      and\n      dup3\n      add\n      swap2\n    tag_92:\n      pop\n      pop\n      pop\n      pop\n      pop\n      swap1\n      dup1\n      0x0a\n      add\n      dup1\n      sload\n      tag_95\n      swap1\n      tag_85\n      jump\t// in\n    tag_95:\n      dup1\n      0x1f\n      add\n      0x20\n      dup1\n      swap2\n      div\n      mul\n      0x20\n      add\n      mload(0x40)\n      swap1\n      dup2\n      add\n      0x40\n      mstore\n      dup1\n      swap3\n      swap2\n      swap1\n      dup2\n      dup2\n      mstore\n      0x20\n      add\n      dup3\n      dup1\n      sload\n      tag_96\n      swap1\n      tag_85\n      jump\t// in\n    tag_96:\n      dup1\n      iszero\n      tag_97\n      jumpi\n      dup1\n      0x1f\n      lt\n      tag_98\n      jumpi\n      0x0100\n      dup1\n      dup4\n      sload\n      div\n      mul\n      dup4\n      mstore\n      swap2\n      0x20\n      add\n      swap2\n      jump(tag_97)\n    tag_98:\n      dup3\n      add\n      swap2\n      swap1\n      0x00\n      mstore\n      keccak256(0x00, 0x20)\n      swap1\n    tag_99:\n      dup2\n      sload\n      dup2\n      mstore\n      swap1\n      0x01\n      add\n      swap1\n      0x20\n      add\n      dup1\n      dup4\n      gt\n      tag_99\n      jumpi\n      dup3\n      swap1\n      sub\n      0x1f\n      and\n      dup3\n      add\n      swap2\n    tag_97:\n      pop\n      pop\n      pop\n      pop\n      pop\n      swap1\n      dup1\n      0x0b\n      add\n      dup1\n      sload\n      tag_100\n      swap1\n      tag_85\n      jump\t// in\n    tag_100:\n      dup1\n      0x1f\n      add\n      0x20\n      dup1\n      swap2\n      div\n      mul\n      0x20\n      add\n      mload(0x40)\n      swap1\n      dup2\n      add\n      0x40\n      mstore\n      dup1\n      swap3\n      swap2\n      swap1\n      dup2\n      dup2\n      mstore\n      0x20\n      add\n      dup3\n      dup1\n      sload\n      tag_101\n      swap1\n      tag_85\n      jump\t// in\n    tag_101:\n      dup1\n      iszero\n      tag_102\n      jumpi\n      dup1\n      0x1f\n      lt\n      tag_103\n      jumpi\n      0x0100\n      dup1\n      dup4\n      sload\n      div\n      mul\n      dup4\n      mstore\n      swap2\n      0x20\n      add\n      swap2\n      jump(tag_102)\n    tag_103:\n      dup3\n      add\n      swap2\n      swap1\n      0x00\n      mstore\n      keccak256(0x00, 0x20)\n      swap1\n    tag_104:\n      dup2\n      sload\n      dup2\n      mstore\n      swap1\n      0x01\n      add\n      swap1\n      0x20\n      add\n      dup1\n      dup4\n      gt\n      tag_104\n      jumpi\n      dup3\n      swap1\n      sub\n      0x1f\n      and\n      dup3\n      add\n      swap2\n    tag_102:\n      pop\n      pop\n      pop\n      pop\n      pop\n      swap1\n      pop\n      dup13\n      jump\t// out\n        /* \"contracts/BusinessConsensus2.sol\":5230:6621  function Vote(string memory response,string calldata _messageID) external {\r... */\n    tag_33:\n        /* \"contracts/BusinessConsensus2.sol\":5343:5360  businessProposals */\n      0x00\n        /* \"contracts/BusinessConsensus2.sol\":5361:5371  _messageID */\n      dup3\n      dup3\n        /* \"contracts/BusinessConsensus2.sol\":5343:5372  businessProposals[_messageID] */\n      mload(0x40)\n      tag_106\n      swap3\n      swap2\n      swap1\n      tag_107\n      jump\t// in\n    tag_106:\n      swap1\n      dup2\n      mstore\n      0x20\n      add\n      mload(0x40)\n      dup1\n      swap2\n      sub\n      swap1\n      keccak256\n        /* \"contracts/BusinessConsensus2.sol\":5343:5383  businessProposals[_messageID].expiryDate */\n      0x04\n      add\n      sload\n        /* \"contracts/BusinessConsensus2.sol\":5325:5340  block.timestamp */\n      timestamp\n        /* \"contracts/BusinessConsensus2.sol\":5325:5383  block.timestamp < businessProposals[_messageID].expiryDate */\n      lt\n        /* \"contracts/BusinessConsensus2.sol\":5317:5406  require(block.timestamp < businessProposals[_messageID].expiryDate, \"Voting has expired\") */\n      tag_108\n      jumpi\n      mload(0x40)\n      0x08c379a000000000000000000000000000000000000000000000000000000000\n      dup2\n      mstore\n      0x04\n      add\n      tag_109\n      swap1\n      tag_110\n      jump\t// in\n    tag_109:\n      mload(0x40)\n      dup1\n      swap2\n      sub\n      swap1\n      revert\n    tag_108:\n        /* \"contracts/BusinessConsensus2.sol\":5481:5484  0x0 */\n      0x00\n        /* \"contracts/BusinessConsensus2.sol\":5425:5485  voter_maps[_messageID][msg.sender].recipient != address(0x0) */\n      0xffffffffffffffffffffffffffffffffffffffff\n      and\n        /* \"contracts/BusinessConsensus2.sol\":5425:5435  voter_maps */\n      0x01\n        /* \"contracts/BusinessConsensus2.sol\":5436:5446  _messageID */\n      dup4\n      dup4\n        /* \"contracts/BusinessConsensus2.sol\":5425:5447  voter_maps[_messageID] */\n      mload(0x40)\n      tag_111\n      swap3\n      swap2\n      swap1\n      tag_107\n      jump\t// in\n    tag_111:\n      swap1\n      dup2\n      mstore\n      0x20\n      add\n      mload(0x40)\n      dup1\n      swap2\n      sub\n      swap1\n      keccak256\n        /* \"contracts/BusinessConsensus2.sol\":5425:5459  voter_maps[_messageID][msg.sender] */\n      0x00\n        /* \"contracts/BusinessConsensus2.sol\":5448:5458  msg.sender */\n      caller\n        /* \"contracts/BusinessConsensus2.sol\":5425:5459  voter_maps[_messageID][msg.sender] */\n      0xffffffffffffffffffffffffffffffffffffffff\n      and\n      0xffffffffffffffffffffffffffffffffffffffff\n      and\n      dup2\n      mstore\n      0x20\n      add\n      swap1\n      dup2\n      mstore\n      0x20\n      add\n      0x00\n      keccak256\n        /* \"contracts/BusinessConsensus2.sol\":5425:5469  voter_maps[_messageID][msg.sender].recipient */\n      0x00\n      add\n      0x02\n      swap1\n      sload\n      swap1\n      0x0100\n      exp\n      swap1\n      div\n      0xffffffffffffffffffffffffffffffffffffffff\n      and\n        /* \"contracts/BusinessConsensus2.sol\":5425:5485  voter_maps[_messageID][msg.sender].recipient != address(0x0) */\n      0xffffffffffffffffffffffffffffffffffffffff\n      and\n      eq\n      iszero\n        /* \"contracts/BusinessConsensus2.sol\":5417:5520  require(voter_maps[_messageID][msg.sender].recipient != address(0x0), \"You are not registered to vote\") */\n      tag_112\n      jumpi\n      mload(0x40)\n      0x08c379a000000000000000000000000000000000000000000000000000000000\n      dup2\n      mstore\n      0x04\n      add\n      tag_113\n      swap1\n      tag_114\n      jump\t// in\n    tag_113:\n      mload(0x40)\n      dup1\n      swap2\n      sub\n      swap1\n      revert\n    tag_112:\n        /* \"contracts/BusinessConsensus2.sol\":5540:5550  voter_maps */\n      0x01\n        /* \"contracts/BusinessConsensus2.sol\":5551:5561  _messageID */\n      dup3\n      dup3\n        /* \"contracts/BusinessConsensus2.sol\":5540:5562  voter_maps[_messageID] */\n      mload(0x40)\n      tag_115\n      swap3\n      swap2\n      swap1\n      tag_107\n      jump\t// in\n    tag_115:\n      swap1\n      dup2\n      mstore\n      0x20\n      add\n      mload(0x40)\n      dup1\n      swap2\n      sub\n      swap1\n      keccak256\n        /* \"contracts/BusinessConsensus2.sol\":5540:5574  voter_maps[_messageID][msg.sender] */\n      0x00\n        /* \"contracts/BusinessConsensus2.sol\":5563:5573  msg.sender */\n      caller\n        /* \"contracts/BusinessConsensus2.sol\":5540:5574  voter_maps[_messageID][msg.sender] */\n      0xffffffffffffffffffffffffffffffffffffffff\n      and\n      0xffffffffffffffffffffffffffffffffffffffff\n      and\n      dup2\n      mstore\n      0x20\n      add\n      swap1\n      dup2\n      mstore\n      0x20\n      add\n      0x00\n      keccak256\n        /* \"contracts/BusinessConsensus2.sol\":5540:5580  voter_maps[_messageID][msg.sender].voted */\n      0x00\n      add\n      0x00\n      swap1\n      sload\n      swap1\n      0x0100\n      exp\n      swap1\n      div\n      0xff\n      and\n        /* \"contracts/BusinessConsensus2.sol\":5539:5580  !voter_maps[_messageID][msg.sender].voted */\n      iszero\n        /* \"contracts/BusinessConsensus2.sol\":5531:5613  require(!voter_maps[_messageID][msg.sender].voted, \"You already sent a response.\") */\n      tag_116\n      jumpi\n      mload(0x40)\n      0x08c379a000000000000000000000000000000000000000000000000000000000\n      dup2\n      mstore\n      0x04\n      add\n      tag_117\n      swap1\n      tag_118\n      jump\t// in\n    tag_117:\n      mload(0x40)\n      dup1\n      swap2\n      sub\n      swap1\n      revert\n    tag_116:\n        /* \"contracts/BusinessConsensus2.sol\":5669:5687  bytes(\"i approve\") */\n      mload(0x40)\n      dup1\n      0x40\n      add\n      0x40\n      mstore\n      dup1\n      0x09\n      dup2\n      mstore\n      0x20\n      add\n      0x6920617070726f76650000000000000000000000000000000000000000000000\n      dup2\n      mstore\n      pop\n        /* \"contracts/BusinessConsensus2.sol\":5659:5688  keccak256(bytes(\"i approve\")) */\n      dup1\n      mload\n      swap1\n      0x20\n      add\n      keccak256\n        /* \"contracts/BusinessConsensus2.sol\":5645:5653  response */\n      dup4\n        /* \"contracts/BusinessConsensus2.sol\":5629:5655  keccak256(bytes(response)) */\n      dup1\n      mload\n      swap1\n      0x20\n      add\n      keccak256\n        /* \"contracts/BusinessConsensus2.sol\":5629:5688  keccak256(bytes(response)) == keccak256(bytes(\"i approve\")) */\n      eq\n        /* \"contracts/BusinessConsensus2.sol\":5626:6604  if(keccak256(bytes(response)) == keccak256(bytes(\"i approve\"))){\r... */\n      iszero\n      tag_119\n      jumpi\n        /* \"contracts/BusinessConsensus2.sol\":5747:5751  true */\n      0x01\n        /* \"contracts/BusinessConsensus2.sol\":5704:5714  voter_maps */\n      dup1\n        /* \"contracts/BusinessConsensus2.sol\":5715:5725  _messageID */\n      dup4\n      dup4\n        /* \"contracts/BusinessConsensus2.sol\":5704:5726  voter_maps[_messageID] */\n      mload(0x40)\n      tag_120\n      swap3\n      swap2\n      swap1\n      tag_107\n      jump\t// in\n    tag_120:\n      swap1\n      dup2\n      mstore\n      0x20\n      add\n      mload(0x40)\n      dup1\n      swap2\n      sub\n      swap1\n      keccak256\n        /* \"contracts/BusinessConsensus2.sol\":5704:5738  voter_maps[_messageID][msg.sender] */\n      0x00\n        /* \"contracts/BusinessConsensus2.sol\":5727:5737  msg.sender */\n      caller\n        /* \"contracts/BusinessConsensus2.sol\":5704:5738  voter_maps[_messageID][msg.sender] */\n      0xffffffffffffffffffffffffffffffffffffffff\n      and\n      0xffffffffffffffffffffffffffffffffffffffff\n      and\n      dup2\n      mstore\n      0x20\n      add\n      swap1\n      dup2\n      mstore\n      0x20\n      add\n      0x00\n      keccak256\n        /* \"contracts/BusinessConsensus2.sol\":5704:5744  voter_maps[_messageID][msg.sender].voted */\n      0x00\n      add\n      0x00\n        /* \"contracts/BusinessConsensus2.sol\":5704:5751  voter_maps[_messageID][msg.sender].voted = true */\n      0x0100\n      exp\n      dup2\n      sload\n      dup2\n      0xff\n      mul\n      not\n      and\n      swap1\n      dup4\n      iszero\n      iszero\n      mul\n      or\n      swap1\n      sstore\n      pop\n        /* \"contracts/BusinessConsensus2.sol\":5808:5812  true */\n      0x01\n        /* \"contracts/BusinessConsensus2.sol\":5766:5776  voter_maps */\n      dup1\n        /* \"contracts/BusinessConsensus2.sol\":5777:5787  _messageID */\n      dup4\n      dup4\n        /* \"contracts/BusinessConsensus2.sol\":5766:5788  voter_maps[_messageID] */\n      mload(0x40)\n      tag_121\n      swap3\n      swap2\n      swap1\n      tag_107\n      jump\t// in\n    tag_121:\n      swap1\n      dup2\n      mstore\n      0x20\n      add\n      mload(0x40)\n      dup1\n      swap2\n      sub\n      swap1\n      keccak256\n        /* \"contracts/BusinessConsensus2.sol\":5766:5800  voter_maps[_messageID][msg.sender] */\n      0x00\n        /* \"contracts/BusinessConsensus2.sol\":5789:5799  msg.sender */\n      caller\n        /* \"contracts/BusinessConsensus2.sol\":5766:5800  voter_maps[_messageID][msg.sender] */\n      0xffffffffffffffffffffffffffffffffffffffff\n      and\n      0xffffffffffffffffffffffffffffffffffffffff\n      and\n      dup2\n      mstore\n      0x20\n      add\n      swap1\n      dup2\n      mstore\n      0x20\n      add\n      0x00\n      keccak256\n        /* \"contracts/BusinessConsensus2.sol\":5766:5805  voter_maps[_messageID][msg.sender].vote */\n      0x00\n      add\n      0x01\n        /* \"contracts/BusinessConsensus2.sol\":5766:5812  voter_maps[_messageID][msg.sender].vote = true */\n      0x0100\n      exp\n      dup2\n      sload\n      dup2\n      0xff\n      mul\n      not\n      and\n      swap1\n      dup4\n      iszero\n      iszero\n      mul\n      or\n      swap1\n      sstore\n      pop\n        /* \"contracts/BusinessConsensus2.sol\":5873:5874  1 */\n      0x01\n        /* \"contracts/BusinessConsensus2.sol\":5827:5844  businessProposals */\n      0x00\n        /* \"contracts/BusinessConsensus2.sol\":5845:5855  _messageID */\n      dup4\n      dup4\n        /* \"contracts/BusinessConsensus2.sol\":5827:5856  businessProposals[_messageID] */\n      mload(0x40)\n      tag_122\n      swap3\n      swap2\n      swap1\n      tag_107\n      jump\t// in\n    tag_122:\n      swap1\n      dup2\n      mstore\n      0x20\n      add\n      mload(0x40)\n      dup1\n      swap2\n      sub\n      swap1\n      keccak256\n        /* \"contracts/BusinessConsensus2.sol\":5827:5869  businessProposals[_messageID].numApprovals */\n      0x06\n      add\n      0x00\n        /* \"contracts/BusinessConsensus2.sol\":5827:5874  businessProposals[_messageID].numApprovals += 1 */\n      dup3\n      dup3\n      sload\n      tag_123\n      swap2\n      swap1\n      tag_124\n      jump\t// in\n    tag_123:\n      swap3\n      pop\n      pop\n      dup2\n      swap1\n      sstore\n      pop\n        /* \"contracts/BusinessConsensus2.sol\":5932:5933  1 */\n      0x01\n        /* \"contracts/BusinessConsensus2.sol\":5889:5906  businessProposals */\n      0x00\n        /* \"contracts/BusinessConsensus2.sol\":5907:5917  _messageID */\n      dup4\n      dup4\n        /* \"contracts/BusinessConsensus2.sol\":5889:5918  businessProposals[_messageID] */\n      mload(0x40)\n      tag_125\n      swap3\n      swap2\n      swap1\n      tag_107\n      jump\t// in\n    tag_125:\n      swap1\n      dup2\n      mstore\n      0x20\n      add\n      mload(0x40)\n      dup1\n      swap2\n      sub\n      swap1\n      keccak256\n        /* \"contracts/BusinessConsensus2.sol\":5889:5928  businessProposals[_messageID].voteCount */\n      0x03\n      add\n      0x00\n        /* \"contracts/BusinessConsensus2.sol\":5889:5933  businessProposals[_messageID].voteCount += 1 */\n      dup3\n      dup3\n      sload\n      tag_126\n      swap2\n      swap1\n      tag_124\n      jump\t// in\n    tag_126:\n      swap3\n      pop\n      pop\n      dup2\n      swap1\n      sstore\n      pop\n        /* \"contracts/BusinessConsensus2.sol\":5948:5954  Voters */\n      0x02\n        /* \"contracts/BusinessConsensus2.sol\":5955:5965  _messageID */\n      dup3\n      dup3\n        /* \"contracts/BusinessConsensus2.sol\":5948:5966  Voters[_messageID] */\n      mload(0x40)\n      tag_127\n      swap3\n      swap2\n      swap1\n      tag_107\n      jump\t// in\n    tag_127:\n      swap1\n      dup2\n      mstore\n      0x20\n      add\n      mload(0x40)\n      dup1\n      swap2\n      sub\n      swap1\n      keccak256\n        /* \"contracts/BusinessConsensus2.sol\":5972:5982  voter_maps */\n      0x01\n        /* \"contracts/BusinessConsensus2.sol\":5983:5993  _messageID */\n      dup4\n      dup4\n        /* \"contracts/BusinessConsensus2.sol\":5972:5994  voter_maps[_messageID] */\n      mload(0x40)\n      tag_128\n      swap3\n      swap2\n      swap1\n      tag_107\n      jump\t// in\n    tag_128:\n      swap1\n      dup2\n      mstore\n      0x20\n      add\n      mload(0x40)\n      dup1\n      swap2\n      sub\n      swap1\n      keccak256\n        /* \"contracts/BusinessConsensus2.sol\":5972:6006  voter_maps[_messageID][msg.sender] */\n      0x00\n        /* \"contracts/BusinessConsensus2.sol\":5995:6005  msg.sender */\n      caller\n        /* \"contracts/BusinessConsensus2.sol\":5972:6006  voter_maps[_messageID][msg.sender] */\n      0xffffffffffffffffffffffffffffffffffffffff\n      and\n      0xffffffffffffffffffffffffffffffffffffffff\n      and\n      dup2\n      mstore\n      0x20\n      add\n      swap1\n      dup2\n      mstore\n      0x20\n      add\n      0x00\n      keccak256\n        /* \"contracts/BusinessConsensus2.sol\":5948:6007  Voters[_messageID].push(voter_maps[_messageID][msg.sender]) */\n      swap1\n      dup1\n      0x01\n      dup2\n      sload\n      add\n      dup1\n      dup3\n      sstore\n      dup1\n      swap2\n      pop\n      pop\n      0x01\n      swap1\n      sub\n      swap1\n      0x00\n      mstore\n      keccak256(0x00, 0x20)\n      add\n      0x00\n      swap1\n      swap2\n      swap1\n      swap2\n      swap1\n      swap2\n      pop\n      0x00\n      dup3\n      add\n      0x00\n      swap1\n      sload\n      swap1\n      0x0100\n      exp\n      swap1\n      div\n      0xff\n      and\n      dup2\n      0x00\n      add\n      exp(0x0100, 0x00)\n      dup2\n      sload\n      dup2\n      0xff\n      mul\n      not\n      and\n      swap1\n      dup4\n      iszero\n      iszero\n      mul\n      or\n      swap1\n      sstore\n      pop\n      0x00\n      dup3\n      add\n      0x01\n      swap1\n      sload\n      swap1\n      0x0100\n      exp\n      swap1\n      div\n      0xff\n      and\n      dup2\n      0x00\n      add\n      exp(0x0100, 0x01)\n      dup2\n      sload\n      dup2\n      0xff\n      mul\n      not\n      and\n      swap1\n      dup4\n      iszero\n      iszero\n      mul\n      or\n      swap1\n      sstore\n      pop\n      0x00\n      dup3\n      add\n      0x02\n      swap1\n      sload\n      swap1\n      0x0100\n      exp\n      swap1\n      div\n      0xffffffffffffffffffffffffffffffffffffffff\n      and\n      dup2\n      0x00\n      add\n      exp(0x0100, 0x02)\n      dup2\n      sload\n      dup2\n      0xffffffffffffffffffffffffffffffffffffffff\n      mul\n      not\n      and\n      swap1\n      dup4\n      0xffffffffffffffffffffffffffffffffffffffff\n      and\n      mul\n      or\n      swap1\n      sstore\n      pop\n      pop\n      pop\n        /* \"contracts/BusinessConsensus2.sol\":5626:6604  if(keccak256(bytes(response)) == keccak256(bytes(\"i approve\"))){\r... */\n      jump(tag_130)\n    tag_119:\n        /* \"contracts/BusinessConsensus2.sol\":6079:6100  bytes(\"i disapprove\") */\n      mload(0x40)\n      dup1\n      0x40\n      add\n      0x40\n      mstore\n      dup1\n      0x0c\n      dup2\n      mstore\n      0x20\n      add\n      0x6920646973617070726f76650000000000000000000000000000000000000000\n      dup2\n      mstore\n      pop\n        /* \"contracts/BusinessConsensus2.sol\":6069:6101  keccak256(bytes(\"i disapprove\")) */\n      dup1\n      mload\n      swap1\n      0x20\n      add\n      keccak256\n        /* \"contracts/BusinessConsensus2.sol\":6055:6063  response */\n      dup4\n        /* \"contracts/BusinessConsensus2.sol\":6039:6065  keccak256(bytes(response)) */\n      dup1\n      mload\n      swap1\n      0x20\n      add\n      keccak256\n        /* \"contracts/BusinessConsensus2.sol\":6039:6101  keccak256(bytes(response)) == keccak256(bytes(\"i disapprove\")) */\n      eq\n        /* \"contracts/BusinessConsensus2.sol\":6036:6604  if(keccak256(bytes(response)) == keccak256(bytes(\"i disapprove\"))){\r... */\n      iszero\n      tag_131\n      jumpi\n        /* \"contracts/BusinessConsensus2.sol\":6160:6164  true */\n      0x01\n        /* \"contracts/BusinessConsensus2.sol\":6117:6127  voter_maps */\n      dup1\n        /* \"contracts/BusinessConsensus2.sol\":6128:6138  _messageID */\n      dup4\n      dup4\n        /* \"contracts/BusinessConsensus2.sol\":6117:6139  voter_maps[_messageID] */\n      mload(0x40)\n      tag_132\n      swap3\n      swap2\n      swap1\n      tag_107\n      jump\t// in\n    tag_132:\n      swap1\n      dup2\n      mstore\n      0x20\n      add\n      mload(0x40)\n      dup1\n      swap2\n      sub\n      swap1\n      keccak256\n        /* \"contracts/BusinessConsensus2.sol\":6117:6151  voter_maps[_messageID][msg.sender] */\n      0x00\n        /* \"contracts/BusinessConsensus2.sol\":6140:6150  msg.sender */\n      caller\n        /* \"contracts/BusinessConsensus2.sol\":6117:6151  voter_maps[_messageID][msg.sender] */\n      0xffffffffffffffffffffffffffffffffffffffff\n      and\n      0xffffffffffffffffffffffffffffffffffffffff\n      and\n      dup2\n      mstore\n      0x20\n      add\n      swap1\n      dup2\n      mstore\n      0x20\n      add\n      0x00\n      keccak256\n        /* \"contracts/BusinessConsensus2.sol\":6117:6157  voter_maps[_messageID][msg.sender].voted */\n      0x00\n      add\n      0x00\n        /* \"contracts/BusinessConsensus2.sol\":6117:6164  voter_maps[_messageID][msg.sender].voted = true */\n      0x0100\n      exp\n      dup2\n      sload\n      dup2\n      0xff\n      mul\n      not\n      and\n      swap1\n      dup4\n      iszero\n      iszero\n      mul\n      or\n      swap1\n      sstore\n      pop\n        /* \"contracts/BusinessConsensus2.sol\":6222:6223  1 */\n      0x01\n        /* \"contracts/BusinessConsensus2.sol\":6179:6196  businessProposals */\n      0x00\n        /* \"contracts/BusinessConsensus2.sol\":6197:6207  _messageID */\n      dup4\n      dup4\n        /* \"contracts/BusinessConsensus2.sol\":6179:6208  businessProposals[_messageID] */\n      mload(0x40)\n      tag_133\n      swap3\n      swap2\n      swap1\n      tag_107\n      jump\t// in\n    tag_133:\n      swap1\n      dup2\n      mstore\n      0x20\n      add\n      mload(0x40)\n      dup1\n      swap2\n      sub\n      swap1\n      keccak256\n        /* \"contracts/BusinessConsensus2.sol\":6179:6218  businessProposals[_messageID].voteCount */\n      0x03\n      add\n      0x00\n        /* \"contracts/BusinessConsensus2.sol\":6179:6223  businessProposals[_messageID].voteCount += 1 */\n      dup3\n      dup3\n      sload\n      tag_134\n      swap2\n      swap1\n      tag_124\n      jump\t// in\n    tag_134:\n      swap3\n      pop\n      pop\n      dup2\n      swap1\n      sstore\n      pop\n        /* \"contracts/BusinessConsensus2.sol\":6238:6244  Voters */\n      0x02\n        /* \"contracts/BusinessConsensus2.sol\":6245:6255  _messageID */\n      dup3\n      dup3\n        /* \"contracts/BusinessConsensus2.sol\":6238:6256  Voters[_messageID] */\n      mload(0x40)\n      tag_135\n      swap3\n      swap2\n      swap1\n      tag_107\n      jump\t// in\n    tag_135:\n      swap1\n      dup2\n      mstore\n      0x20\n      add\n      mload(0x40)\n      dup1\n      swap2\n      sub\n      swap1\n      keccak256\n        /* \"contracts/BusinessConsensus2.sol\":6262:6272  voter_maps */\n      0x01\n        /* \"contracts/BusinessConsensus2.sol\":6273:6283  _messageID */\n      dup4\n      dup4\n        /* \"contracts/BusinessConsensus2.sol\":6262:6284  voter_maps[_messageID] */\n      mload(0x40)\n      tag_136\n      swap3\n      swap2\n      swap1\n      tag_107\n      jump\t// in\n    tag_136:\n      swap1\n      dup2\n      mstore\n      0x20\n      add\n      mload(0x40)\n      dup1\n      swap2\n      sub\n      swap1\n      keccak256\n        /* \"contracts/BusinessConsensus2.sol\":6262:6296  voter_maps[_messageID][msg.sender] */\n      0x00\n        /* \"contracts/BusinessConsensus2.sol\":6285:6295  msg.sender */\n      caller\n        /* \"contracts/BusinessConsensus2.sol\":6262:6296  voter_maps[_messageID][msg.sender] */\n      0xffffffffffffffffffffffffffffffffffffffff\n      and\n      0xffffffffffffffffffffffffffffffffffffffff\n      and\n      dup2\n      mstore\n      0x20\n      add\n      swap1\n      dup2\n      mstore\n      0x20\n      add\n      0x00\n      keccak256\n        /* \"contracts/BusinessConsensus2.sol\":6238:6297  Voters[_messageID].push(voter_maps[_messageID][msg.sender]) */\n      swap1\n      dup1\n      0x01\n      dup2\n      sload\n      add\n      dup1\n      dup3\n      sstore\n      dup1\n      swap2\n      pop\n      pop\n      0x01\n      swap1\n      sub\n      swap1\n      0x00\n      mstore\n      keccak256(0x00, 0x20)\n      add\n      0x00\n      swap1\n      swap2\n      swap1\n      swap2\n      swap1\n      swap2\n      pop\n      0x00\n      dup3\n      add\n      0x00\n      swap1\n      sload\n      swap1\n      0x0100\n      exp\n      swap1\n      div\n      0xff\n      and\n      dup2\n      0x00\n      add\n      exp(0x0100, 0x00)\n      dup2\n      sload\n      dup2\n      0xff\n      mul\n      not\n      and\n      swap1\n      dup4\n      iszero\n      iszero\n      mul\n      or\n      swap1\n      sstore\n      pop\n      0x00\n      dup3\n      add\n      0x01\n      swap1\n      sload\n      swap1\n      0x0100\n      exp\n      swap1\n      div\n      0xff\n      and\n      dup2\n      0x00\n      add\n      exp(0x0100, 0x01)\n      dup2\n      sload\n      dup2\n      0xff\n      mul\n      not\n      and\n      swap1\n      dup4\n      iszero\n      iszero\n      mul\n      or\n      swap1\n      sstore\n      pop\n      0x00\n      dup3\n      add\n      0x02\n      swap1\n      sload\n      swap1\n      0x0100\n      exp\n      swap1\n      div\n      0xffffffffffffffffffffffffffffffffffffffff\n      and\n      dup2\n      0x00\n      add\n      exp(0x0100, 0x02)\n      dup2\n      sload\n      dup2\n      0xffffffffffffffffffffffffffffffffffffffff\n      mul\n      not\n      and\n      swap1\n      dup4\n      0xffffffffffffffffffffffffffffffffffffffff\n      and\n      mul\n      or\n      swap1\n      sstore\n      pop\n      pop\n      pop\n        /* \"contracts/BusinessConsensus2.sol\":6036:6604  if(keccak256(bytes(response)) == keccak256(bytes(\"i disapprove\"))){\r... */\n      jump(tag_138)\n    tag_131:\n        /* \"contracts/BusinessConsensus2.sol\":6455:6459  true */\n      0x01\n        /* \"contracts/BusinessConsensus2.sol\":6412:6422  voter_maps */\n      dup1\n        /* \"contracts/BusinessConsensus2.sol\":6423:6433  _messageID */\n      dup4\n      dup4\n        /* \"contracts/BusinessConsensus2.sol\":6412:6434  voter_maps[_messageID] */\n      mload(0x40)\n      tag_139\n      swap3\n      swap2\n      swap1\n      tag_107\n      jump\t// in\n    tag_139:\n      swap1\n      dup2\n      mstore\n      0x20\n      add\n      mload(0x40)\n      dup1\n      swap2\n      sub\n      swap1\n      keccak256\n        /* \"contracts/BusinessConsensus2.sol\":6412:6446  voter_maps[_messageID][msg.sender] */\n      0x00\n        /* \"contracts/BusinessConsensus2.sol\":6435:6445  msg.sender */\n      caller\n        /* \"contracts/BusinessConsensus2.sol\":6412:6446  voter_maps[_messageID][msg.sender] */\n      0xffffffffffffffffffffffffffffffffffffffff\n      and\n      0xffffffffffffffffffffffffffffffffffffffff\n      and\n      dup2\n      mstore\n      0x20\n      add\n      swap1\n      dup2\n      mstore\n      0x20\n      add\n      0x00\n      keccak256\n        /* \"contracts/BusinessConsensus2.sol\":6412:6452  voter_maps[_messageID][msg.sender].voted */\n      0x00\n      add\n      0x00\n        /* \"contracts/BusinessConsensus2.sol\":6412:6459  voter_maps[_messageID][msg.sender].voted = true */\n      0x0100\n      exp\n      dup2\n      sload\n      dup2\n      0xff\n      mul\n      not\n      and\n      swap1\n      dup4\n      iszero\n      iszero\n      mul\n      or\n      swap1\n      sstore\n      pop\n        /* \"contracts/BusinessConsensus2.sol\":6517:6518  1 */\n      0x01\n        /* \"contracts/BusinessConsensus2.sol\":6474:6491  businessProposals */\n      0x00\n        /* \"contracts/BusinessConsensus2.sol\":6492:6502  _messageID */\n      dup4\n      dup4\n        /* \"contracts/BusinessConsensus2.sol\":6474:6503  businessProposals[_messageID] */\n      mload(0x40)\n      tag_140\n      swap3\n      swap2\n      swap1\n      tag_107\n      jump\t// in\n    tag_140:\n      swap1\n      dup2\n      mstore\n      0x20\n      add\n      mload(0x40)\n      dup1\n      swap2\n      sub\n      swap1\n      keccak256\n        /* \"contracts/BusinessConsensus2.sol\":6474:6513  businessProposals[_messageID].voteCount */\n      0x03\n      add\n      0x00\n        /* \"contracts/BusinessConsensus2.sol\":6474:6518  businessProposals[_messageID].voteCount += 1 */\n      dup3\n      dup3\n      sload\n      tag_141\n      swap2\n      swap1\n      tag_124\n      jump\t// in\n    tag_141:\n      swap3\n      pop\n      pop\n      dup2\n      swap1\n      sstore\n      pop\n        /* \"contracts/BusinessConsensus2.sol\":6533:6539  Voters */\n      0x02\n        /* \"contracts/BusinessConsensus2.sol\":6540:6550  _messageID */\n      dup3\n      dup3\n        /* \"contracts/BusinessConsensus2.sol\":6533:6551  Voters[_messageID] */\n      mload(0x40)\n      tag_142\n      swap3\n      swap2\n      swap1\n      tag_107\n      jump\t// in\n    tag_142:\n      swap1\n      dup2\n      mstore\n      0x20\n      add\n      mload(0x40)\n      dup1\n      swap2\n      sub\n      swap1\n      keccak256\n        /* \"contracts/BusinessConsensus2.sol\":6557:6567  voter_maps */\n      0x01\n        /* \"contracts/BusinessConsensus2.sol\":6568:6578  _messageID */\n      dup4\n      dup4\n        /* \"contracts/BusinessConsensus2.sol\":6557:6579  voter_maps[_messageID] */\n      mload(0x40)\n      tag_143\n      swap3\n      swap2\n      swap1\n      tag_107\n      jump\t// in\n    tag_143:\n      swap1\n      dup2\n      mstore\n      0x20\n      add\n      mload(0x40)\n      dup1\n      swap2\n      sub\n      swap1\n      keccak256\n        /* \"contracts/BusinessConsensus2.sol\":6557:6591  voter_maps[_messageID][msg.sender] */\n      0x00\n        /* \"contracts/BusinessConsensus2.sol\":6580:6590  msg.sender */\n      caller\n        /* \"contracts/BusinessConsensus2.sol\":6557:6591  voter_maps[_messageID][msg.sender] */\n      0xffffffffffffffffffffffffffffffffffffffff\n      and\n      0xffffffffffffffffffffffffffffffffffffffff\n      and\n      dup2\n      mstore\n      0x20\n      add\n      swap1\n      dup2\n      mstore\n      0x20\n      add\n      0x00\n      keccak256\n        /* \"contracts/BusinessConsensus2.sol\":6533:6592  Voters[_messageID].push(voter_maps[_messageID][msg.sender]) */\n      swap1\n      dup1\n      0x01\n      dup2\n      sload\n      add\n      dup1\n      dup3\n      sstore\n      dup1\n      swap2\n      pop\n      pop\n      0x01\n      swap1\n      sub\n      swap1\n      0x00\n      mstore\n      keccak256(0x00, 0x20)\n      add\n      0x00\n      swap1\n      swap2\n      swap1\n      swap2\n      swap1\n      swap2\n      pop\n      0x00\n      dup3\n      add\n      0x00\n      swap1\n      sload\n      swap1\n      0x0100\n      exp\n      swap1\n      div\n      0xff\n      and\n      dup2\n      0x00\n      add\n      exp(0x0100, 0x00)\n      dup2\n      sload\n      dup2\n      0xff\n      mul\n      not\n      and\n      swap1\n      dup4\n      iszero\n      iszero\n      mul\n      or\n      swap1\n      sstore\n      pop\n      0x00\n      dup3\n      add\n      0x01\n      swap1\n      sload\n      swap1\n      0x0100\n      exp\n      swap1\n      div\n      0xff\n      and\n      dup2\n      0x00\n      add\n      exp(0x0100, 0x01)\n      dup2\n      sload\n      dup2\n      0xff\n      mul\n      not\n      and\n      swap1\n      dup4\n      iszero\n      iszero\n      mul\n      or\n      swap1\n      sstore\n      pop\n      0x00\n      dup3\n      add\n      0x02\n      swap1\n      sload\n      swap1\n      0x0100\n      exp\n      swap1\n      div\n      0xffffffffffffffffffffffffffffffffffffffff\n      and\n      dup2\n      0x00\n      add\n      exp(0x0100, 0x02)\n      dup2\n      sload\n      dup2\n      0xffffffffffffffffffffffffffffffffffffffff\n      mul\n      not\n      and\n      swap1\n      dup4\n      0xffffffffffffffffffffffffffffffffffffffff\n      and\n      mul\n      or\n      swap1\n      sstore\n      pop\n      pop\n      pop\n        /* \"contracts/BusinessConsensus2.sol\":6036:6604  if(keccak256(bytes(response)) == keccak256(bytes(\"i disapprove\"))){\r... */\n    tag_138:\n        /* \"contracts/BusinessConsensus2.sol\":5626:6604  if(keccak256(bytes(response)) == keccak256(bytes(\"i approve\"))){\r... */\n    tag_130:\n        /* \"contracts/BusinessConsensus2.sol\":5230:6621  function Vote(string memory response,string calldata _messageID) external {\r... */\n      pop\n      pop\n      pop\n      jump\t// out\n        /* \"contracts/BusinessConsensus2.sol\":1040:1098  mapping(string=>mapping(address=>Voter)) public voter_maps */\n    tag_37:\n      0x01\n      dup3\n      dup1\n      mload\n      0x20\n      dup2\n      add\n      dup3\n      add\n      dup1\n      mload\n      dup5\n      dup3\n      mstore\n      0x20\n      dup4\n      add\n      0x20\n      dup6\n      add\n      keccak256\n      dup2\n      dup4\n      mstore\n      dup1\n      swap6\n      pop\n      pop\n      pop\n      pop\n      pop\n      pop\n      0x20\n      mstore\n      dup1\n      0x00\n      mstore\n      keccak256(0x00, 0x40)\n      0x00\n      swap2\n      pop\n      swap2\n      pop\n      pop\n      dup1\n      0x00\n      add\n      0x00\n      swap1\n      sload\n      swap1\n      0x0100\n      exp\n      swap1\n      div\n      0xff\n      and\n      swap1\n      dup1\n      0x00\n      add\n      0x01\n      swap1\n      sload\n      swap1\n      0x0100\n      exp\n      swap1\n      div\n      0xff\n      and\n      swap1\n      dup1\n      0x00\n      add\n      0x02\n      swap1\n      sload\n      swap1\n      0x0100\n      exp\n      swap1\n      div\n      0xffffffffffffffffffffffffffffffffffffffff\n      and\n      swap1\n      pop\n      dup4\n      jump\t// out\n        /* \"contracts/BusinessConsensus2.sol\":7752:8311  function retrieve_bundle(string calldata _messageID) external view returns (bytes32, string memory, uint256, Voter[] memory){\r... */\n    tag_43:\n        /* \"contracts/BusinessConsensus2.sol\":7828:7835  bytes32 */\n      0x00\n        /* \"contracts/BusinessConsensus2.sol\":7837:7850  string memory */\n      0x60\n        /* \"contracts/BusinessConsensus2.sol\":7852:7859  uint256 */\n      0x00\n        /* \"contracts/BusinessConsensus2.sol\":7861:7875  Voter[] memory */\n      0x60\n        /* \"contracts/BusinessConsensus2.sol\":7914:7931  businessProposals */\n      0x00\n        /* \"contracts/BusinessConsensus2.sol\":7932:7942  _messageID */\n      dup7\n      dup7\n        /* \"contracts/BusinessConsensus2.sol\":7914:7943  businessProposals[_messageID] */\n      mload(0x40)\n      tag_146\n      swap3\n      swap2\n      swap1\n      tag_107\n      jump\t// in\n    tag_146:\n      swap1\n      dup2\n      mstore\n      0x20\n      add\n      mload(0x40)\n      dup1\n      swap2\n      sub\n      swap1\n      keccak256\n        /* \"contracts/BusinessConsensus2.sol\":7914:7954  businessProposals[_messageID].expiryDate */\n      0x04\n      add\n      sload\n        /* \"contracts/BusinessConsensus2.sol\":7895:7910  block.timestamp */\n      timestamp\n        /* \"contracts/BusinessConsensus2.sol\":7895:7954  block.timestamp >= businessProposals[_messageID].expiryDate */\n      lt\n      iszero\n        /* \"contracts/BusinessConsensus2.sol\":7887:7991  require(block.timestamp >= businessProposals[_messageID].expiryDate, \"Verdict has not been reached yet\") */\n      tag_147\n      jumpi\n      mload(0x40)\n      0x08c379a000000000000000000000000000000000000000000000000000000000\n      dup2\n      mstore\n      0x04\n      add\n      tag_148\n      swap1\n      tag_149\n      jump\t// in\n    tag_148:\n      mload(0x40)\n      dup1\n      swap2\n      sub\n      swap1\n      revert\n    tag_147:\n        /* \"contracts/BusinessConsensus2.sol\":8002:8023  Voter[] memory voters */\n      0x00\n        /* \"contracts/BusinessConsensus2.sol\":8026:8032  Voters */\n      0x02\n        /* \"contracts/BusinessConsensus2.sol\":8033:8043  _messageID */\n      dup8\n      dup8\n        /* \"contracts/BusinessConsensus2.sol\":8026:8044  Voters[_messageID] */\n      mload(0x40)\n      tag_150\n      swap3\n      swap2\n      swap1\n      tag_107\n      jump\t// in\n    tag_150:\n      swap1\n      dup2\n      mstore\n      0x20\n      add\n      mload(0x40)\n      dup1\n      swap2\n      sub\n      swap1\n      keccak256\n        /* \"contracts/BusinessConsensus2.sol\":8002:8044  Voter[] memory voters = Voters[_messageID] */\n      dup1\n      sload\n      dup1\n      0x20\n      mul\n      0x20\n      add\n      mload(0x40)\n      swap1\n      dup2\n      add\n      0x40\n      mstore\n      dup1\n      swap3\n      swap2\n      swap1\n      dup2\n      dup2\n      mstore\n      0x20\n      add\n      0x00\n      swap1\n    tag_151:\n      dup3\n      dup3\n      lt\n      iszero\n      tag_152\n      jumpi\n      dup4\n      dup3\n      swap1\n      0x00\n      mstore\n      keccak256(0x00, 0x20)\n      add\n      mload(0x40)\n      dup1\n      0x60\n      add\n      0x40\n      mstore\n      swap1\n      dup2\n      0x00\n      dup3\n      add\n      0x00\n      swap1\n      sload\n      swap1\n      0x0100\n      exp\n      swap1\n      div\n      0xff\n      and\n      iszero\n      iszero\n      iszero\n      iszero\n      dup2\n      mstore\n      0x20\n      add\n      0x00\n      dup3\n      add\n      0x01\n      swap1\n      sload\n      swap1\n      0x0100\n      exp\n      swap1\n      div\n      0xff\n      and\n      iszero\n      iszero\n      iszero\n      iszero\n      dup2\n      mstore\n      0x20\n      add\n      0x00\n      dup3\n      add\n      0x02\n      swap1\n      sload\n      swap1\n      0x0100\n      exp\n      swap1\n      div\n      0xffffffffffffffffffffffffffffffffffffffff\n      and\n      0xffffffffffffffffffffffffffffffffffffffff\n      and\n      0xffffffffffffffffffffffffffffffffffffffff\n      and\n      dup2\n      mstore\n      pop\n      pop\n      dup2\n      mstore\n      0x20\n      add\n      swap1\n      0x01\n      add\n      swap1\n      jump(tag_151)\n    tag_152:\n      pop\n      pop\n      pop\n      pop\n      swap1\n      pop\n        /* \"contracts/BusinessConsensus2.sol\":8055:8071  string memory ID */\n      0x00\n        /* \"contracts/BusinessConsensus2.sol\":8074:8091  businessProposals */\n      dup1\n        /* \"contracts/BusinessConsensus2.sol\":8092:8102  _messageID */\n      dup9\n      dup9\n        /* \"contracts/BusinessConsensus2.sol\":8074:8103  businessProposals[_messageID] */\n      mload(0x40)\n      tag_154\n      swap3\n      swap2\n      swap1\n      tag_107\n      jump\t// in\n    tag_154:\n      swap1\n      dup2\n      mstore\n      0x20\n      add\n      mload(0x40)\n      dup1\n      swap2\n      sub\n      swap1\n      keccak256\n        /* \"contracts/BusinessConsensus2.sol\":8074:8113  businessProposals[_messageID].messageID */\n      0x00\n      add\n        /* \"contracts/BusinessConsensus2.sol\":8055:8113  string memory ID = businessProposals[_messageID].messageID */\n      dup1\n      sload\n      tag_155\n      swap1\n      tag_85\n      jump\t// in\n    tag_155:\n      dup1\n      0x1f\n      add\n      0x20\n      dup1\n      swap2\n      div\n      mul\n      0x20\n      add\n      mload(0x40)\n      swap1\n      dup2\n      add\n      0x40\n      mstore\n      dup1\n      swap3\n      swap2\n      swap1\n      dup2\n      dup2\n      mstore\n      0x20\n      add\n      dup3\n      dup1\n      sload\n      tag_156\n      swap1\n      tag_85\n      jump\t// in\n    tag_156:\n      dup1\n      iszero\n      tag_157\n      jumpi\n      dup1\n      0x1f\n      lt\n      tag_158\n      jumpi\n      0x0100\n      dup1\n      dup4\n      sload\n      div\n      mul\n      dup4\n      mstore\n      swap2\n      0x20\n      add\n      swap2\n      jump(tag_157)\n    tag_158:\n      dup3\n      add\n      swap2\n      swap1\n      0x00\n      mstore\n      keccak256(0x00, 0x20)\n      swap1\n    tag_159:\n      dup2\n      sload\n      dup2\n      mstore\n      swap1\n      0x01\n      add\n      swap1\n      0x20\n      add\n      dup1\n      dup4\n      gt\n      tag_159\n      jumpi\n      dup3\n      swap1\n      sub\n      0x1f\n      and\n      dup3\n      add\n      swap2\n    tag_157:\n      pop\n      pop\n      pop\n      pop\n      pop\n      swap1\n      pop\n        /* \"contracts/BusinessConsensus2.sol\":8124:8139  bytes32 verdict */\n      0x00\n        /* \"contracts/BusinessConsensus2.sol\":8142:8159  businessProposals */\n      dup1\n        /* \"contracts/BusinessConsensus2.sol\":8160:8170  _messageID */\n      dup10\n      dup10\n        /* \"contracts/BusinessConsensus2.sol\":8142:8171  businessProposals[_messageID] */\n      mload(0x40)\n      tag_160\n      swap3\n      swap2\n      swap1\n      tag_107\n      jump\t// in\n    tag_160:\n      swap1\n      dup2\n      mstore\n      0x20\n      add\n      mload(0x40)\n      dup1\n      swap2\n      sub\n      swap1\n      keccak256\n        /* \"contracts/BusinessConsensus2.sol\":8142:8184  businessProposals[_messageID].finalVerdict */\n      0x08\n      add\n      sload\n        /* \"contracts/BusinessConsensus2.sol\":8124:8184  bytes32 verdict = businessProposals[_messageID].finalVerdict */\n      swap1\n      pop\n        /* \"contracts/BusinessConsensus2.sol\":8195:8208  uint256 count */\n      0x00\n        /* \"contracts/BusinessConsensus2.sol\":8211:8228  businessProposals */\n      dup1\n        /* \"contracts/BusinessConsensus2.sol\":8229:8239  _messageID */\n      dup11\n      dup11\n        /* \"contracts/BusinessConsensus2.sol\":8211:8240  businessProposals[_messageID] */\n      mload(0x40)\n      tag_161\n      swap3\n      swap2\n      swap1\n      tag_107\n      jump\t// in\n    tag_161:\n      swap1\n      dup2\n      mstore\n      0x20\n      add\n      mload(0x40)\n      dup1\n      swap2\n      sub\n      swap1\n      keccak256\n        /* \"contracts/BusinessConsensus2.sol\":8211:8250  businessProposals[_messageID].voteCount */\n      0x03\n      add\n      sload\n        /* \"contracts/BusinessConsensus2.sol\":8195:8250  uint256 count = businessProposals[_messageID].voteCount */\n      swap1\n      pop\n        /* \"contracts/BusinessConsensus2.sol\":8269:8276  verdict */\n      dup2\n        /* \"contracts/BusinessConsensus2.sol\":8277:8279  ID */\n      dup4\n        /* \"contracts/BusinessConsensus2.sol\":8280:8285  count */\n      dup3\n        /* \"contracts/BusinessConsensus2.sol\":8286:8292  voters */\n      dup7\n        /* \"contracts/BusinessConsensus2.sol\":8261:8293  return (verdict,ID,count,voters) */\n      swap8\n      pop\n      swap8\n      pop\n      swap8\n      pop\n      swap8\n      pop\n      pop\n      pop\n      pop\n      pop\n        /* \"contracts/BusinessConsensus2.sol\":7752:8311  function retrieve_bundle(string calldata _messageID) external view returns (bytes32, string memory, uint256, Voter[] memory){\r... */\n      swap3\n      swap6\n      swap2\n      swap5\n      pop\n      swap3\n      pop\n      jump\t// out\n        /* \"contracts/BusinessConsensus2.sol\":4425:5222  function RegisterVoter(address voter,string calldata _messageID) external {\r... */\n    tag_49:\n        /* \"contracts/BusinessConsensus2.sol\":4620:4637  businessProposals */\n      0x00\n        /* \"contracts/BusinessConsensus2.sol\":4638:4648  _messageID */\n      dup3\n      dup3\n        /* \"contracts/BusinessConsensus2.sol\":4620:4649  businessProposals[_messageID] */\n      mload(0x40)\n      tag_163\n      swap3\n      swap2\n      swap1\n      tag_107\n      jump\t// in\n    tag_163:\n      swap1\n      dup2\n      mstore\n      0x20\n      add\n      mload(0x40)\n      dup1\n      swap2\n      sub\n      swap1\n      keccak256\n        /* \"contracts/BusinessConsensus2.sol\":4620:4659  businessProposals[_messageID].initiator */\n      0x01\n      add\n      0x00\n      swap1\n      sload\n      swap1\n      0x0100\n      exp\n      swap1\n      div\n      0xffffffffffffffffffffffffffffffffffffffff\n      and\n        /* \"contracts/BusinessConsensus2.sol\":4606:4659  msg.sender == businessProposals[_messageID].initiator */\n      0xffffffffffffffffffffffffffffffffffffffff\n      and\n        /* \"contracts/BusinessConsensus2.sol\":4606:4616  msg.sender */\n      caller\n        /* \"contracts/BusinessConsensus2.sol\":4606:4659  msg.sender == businessProposals[_messageID].initiator */\n      0xffffffffffffffffffffffffffffffffffffffff\n      and\n      eq\n        /* \"contracts/BusinessConsensus2.sol\":4584:4727  require(\r... */\n      tag_164\n      jumpi\n      mload(0x40)\n      0x08c379a000000000000000000000000000000000000000000000000000000000\n      dup2\n      mstore\n      0x04\n      add\n      tag_165\n      swap1\n      tag_166\n      jump\t// in\n    tag_165:\n      mload(0x40)\n      dup1\n      swap2\n      sub\n      swap1\n      revert\n    tag_164:\n        /* \"contracts/BusinessConsensus2.sol\":4755:4772  businessProposals */\n      0x00\n        /* \"contracts/BusinessConsensus2.sol\":4773:4783  _messageID */\n      dup3\n      dup3\n        /* \"contracts/BusinessConsensus2.sol\":4755:4784  businessProposals[_messageID] */\n      mload(0x40)\n      tag_167\n      swap3\n      swap2\n      swap1\n      tag_107\n      jump\t// in\n    tag_167:\n      swap1\n      dup2\n      mstore\n      0x20\n      add\n      mload(0x40)\n      dup1\n      swap2\n      sub\n      swap1\n      keccak256\n        /* \"contracts/BusinessConsensus2.sol\":4755:4794  businessProposals[_messageID].initiator */\n      0x01\n      add\n      0x00\n      swap1\n      sload\n      swap1\n      0x0100\n      exp\n      swap1\n      div\n      0xffffffffffffffffffffffffffffffffffffffff\n      and\n        /* \"contracts/BusinessConsensus2.sol\":4746:4794  voter != businessProposals[_messageID].initiator */\n      0xffffffffffffffffffffffffffffffffffffffff\n      and\n        /* \"contracts/BusinessConsensus2.sol\":4746:4751  voter */\n      dup4\n        /* \"contracts/BusinessConsensus2.sol\":4746:4794  voter != businessProposals[_messageID].initiator */\n      0xffffffffffffffffffffffffffffffffffffffff\n      and\n      eq\n      iszero\n        /* \"contracts/BusinessConsensus2.sol\":4738:4820  require(voter != businessProposals[_messageID].initiator, \"Initiator can't vote!\") */\n      tag_168\n      jumpi\n      mload(0x40)\n      0x08c379a000000000000000000000000000000000000000000000000000000000\n      dup2\n      mstore\n      0x04\n      add\n      tag_169\n      swap1\n      tag_170\n      jump\t// in\n    tag_169:\n      mload(0x40)\n      dup1\n      swap2\n      sub\n      swap1\n      revert\n    tag_168:\n        /* \"contracts/BusinessConsensus2.sol\":4892:4893  0 */\n      0x00\n        /* \"contracts/BusinessConsensus2.sol\":4841:4894  voter_maps[_messageID][voter].recipient == address(0) */\n      0xffffffffffffffffffffffffffffffffffffffff\n      and\n        /* \"contracts/BusinessConsensus2.sol\":4841:4851  voter_maps */\n      0x01\n        /* \"contracts/BusinessConsensus2.sol\":4852:4862  _messageID */\n      dup4\n      dup4\n        /* \"contracts/BusinessConsensus2.sol\":4841:4863  voter_maps[_messageID] */\n      mload(0x40)\n      tag_171\n      swap3\n      swap2\n      swap1\n      tag_107\n      jump\t// in\n    tag_171:\n      swap1\n      dup2\n      mstore\n      0x20\n      add\n      mload(0x40)\n      dup1\n      swap2\n      sub\n      swap1\n      keccak256\n        /* \"contracts/BusinessConsensus2.sol\":4841:4870  voter_maps[_messageID][voter] */\n      0x00\n        /* \"contracts/BusinessConsensus2.sol\":4864:4869  voter */\n      dup6\n        /* \"contracts/BusinessConsensus2.sol\":4841:4870  voter_maps[_messageID][voter] */\n      0xffffffffffffffffffffffffffffffffffffffff\n      and\n      0xffffffffffffffffffffffffffffffffffffffff\n      and\n      dup2\n      mstore\n      0x20\n      add\n      swap1\n      dup2\n      mstore\n      0x20\n      add\n      0x00\n      keccak256\n        /* \"contracts/BusinessConsensus2.sol\":4841:4880  voter_maps[_messageID][voter].recipient */\n      0x00\n      add\n      0x02\n      swap1\n      sload\n      swap1\n      0x0100\n      exp\n      swap1\n      div\n      0xffffffffffffffffffffffffffffffffffffffff\n      and\n        /* \"contracts/BusinessConsensus2.sol\":4841:4894  voter_maps[_messageID][voter].recipient == address(0) */\n      0xffffffffffffffffffffffffffffffffffffffff\n      and\n      eq\n        /* \"contracts/BusinessConsensus2.sol\":4833:4930  require(voter_maps[_messageID][voter].recipient == address(0), \"Recipient is already registered\") */\n      tag_172\n      jumpi\n      mload(0x40)\n      0x08c379a000000000000000000000000000000000000000000000000000000000\n      dup2\n      mstore\n      0x04\n      add\n      tag_173\n      swap1\n      tag_174\n      jump\t// in\n    tag_173:\n      mload(0x40)\n      dup1\n      swap2\n      sub\n      swap1\n      revert\n    tag_172:\n        /* \"contracts/BusinessConsensus2.sol\":4969:4986  businessProposals */\n      0x00\n        /* \"contracts/BusinessConsensus2.sol\":4987:4997  _messageID */\n      dup3\n      dup3\n        /* \"contracts/BusinessConsensus2.sol\":4969:4998  businessProposals[_messageID] */\n      mload(0x40)\n      tag_175\n      swap3\n      swap2\n      swap1\n      tag_107\n      jump\t// in\n    tag_175:\n      swap1\n      dup2\n      mstore\n      0x20\n      add\n      mload(0x40)\n      dup1\n      swap2\n      sub\n      swap1\n      keccak256\n        /* \"contracts/BusinessConsensus2.sol\":4969:5009  businessProposals[_messageID].expiryDate */\n      0x04\n      add\n      sload\n        /* \"contracts/BusinessConsensus2.sol\":4951:4966  block.timestamp */\n      timestamp\n        /* \"contracts/BusinessConsensus2.sol\":4951:5009  block.timestamp < businessProposals[_messageID].expiryDate */\n      lt\n        /* \"contracts/BusinessConsensus2.sol\":4943:5050  require(block.timestamp < businessProposals[_messageID].expiryDate, \"Proposal has reached its expiry date\") */\n      tag_176\n      jumpi\n      mload(0x40)\n      0x08c379a000000000000000000000000000000000000000000000000000000000\n      dup2\n      mstore\n      0x04\n      add\n      tag_177\n      swap1\n      tag_178\n      jump\t// in\n    tag_177:\n      mload(0x40)\n      dup1\n      swap2\n      sub\n      swap1\n      revert\n    tag_176:\n        /* \"contracts/BusinessConsensus2.sol\":5063:5077  Voter memory x */\n      0x00\n        /* \"contracts/BusinessConsensus2.sol\":5080:5131  Voter({voted: false,recipient: voter, vote: false}) */\n      mload(0x40)\n      dup1\n      0x60\n      add\n      0x40\n      mstore\n      dup1\n        /* \"contracts/BusinessConsensus2.sol\":5094:5099  false */\n      0x00\n        /* \"contracts/BusinessConsensus2.sol\":5080:5131  Voter({voted: false,recipient: voter, vote: false}) */\n      iszero\n      iszero\n      dup2\n      mstore\n      0x20\n      add\n        /* \"contracts/BusinessConsensus2.sol\":5124:5129  false */\n      0x00\n        /* \"contracts/BusinessConsensus2.sol\":5080:5131  Voter({voted: false,recipient: voter, vote: false}) */\n      iszero\n      iszero\n      dup2\n      mstore\n      0x20\n      add\n        /* \"contracts/BusinessConsensus2.sol\":5111:5116  voter */\n      dup6\n        /* \"contracts/BusinessConsensus2.sol\":5080:5131  Voter({voted: false,recipient: voter, vote: false}) */\n      0xffffffffffffffffffffffffffffffffffffffff\n      and\n      dup2\n      mstore\n      pop\n        /* \"contracts/BusinessConsensus2.sol\":5063:5131  Voter memory x = Voter({voted: false,recipient: voter, vote: false}) */\n      swap1\n      pop\n        /* \"contracts/BusinessConsensus2.sol\":5174:5175  x */\n      dup1\n        /* \"contracts/BusinessConsensus2.sol\":5142:5152  voter_maps */\n      0x01\n        /* \"contracts/BusinessConsensus2.sol\":5153:5163  _messageID */\n      dup5\n      dup5\n        /* \"contracts/BusinessConsensus2.sol\":5142:5164  voter_maps[_messageID] */\n      mload(0x40)\n      tag_179\n      swap3\n      swap2\n      swap1\n      tag_107\n      jump\t// in\n    tag_179:\n      swap1\n      dup2\n      mstore\n      0x20\n      add\n      mload(0x40)\n      dup1\n      swap2\n      sub\n      swap1\n      keccak256\n        /* \"contracts/BusinessConsensus2.sol\":5142:5171  voter_maps[_messageID][voter] */\n      0x00\n        /* \"contracts/BusinessConsensus2.sol\":5165:5170  voter */\n      dup7\n        /* \"contracts/BusinessConsensus2.sol\":5142:5171  voter_maps[_messageID][voter] */\n      0xffffffffffffffffffffffffffffffffffffffff\n      and\n      0xffffffffffffffffffffffffffffffffffffffff\n      and\n      dup2\n      mstore\n      0x20\n      add\n      swap1\n      dup2\n      mstore\n      0x20\n      add\n      0x00\n      keccak256\n        /* \"contracts/BusinessConsensus2.sol\":5142:5175  voter_maps[_messageID][voter] = x */\n      0x00\n      dup3\n      add\n      mload\n      dup2\n      0x00\n      add\n      exp(0x0100, 0x00)\n      dup2\n      sload\n      dup2\n      0xff\n      mul\n      not\n      and\n      swap1\n      dup4\n      iszero\n      iszero\n      mul\n      or\n      swap1\n      sstore\n      pop\n      0x20\n      dup3\n      add\n      mload\n      dup2\n      0x00\n      add\n      exp(0x0100, 0x01)\n      dup2\n      sload\n      dup2\n      0xff\n      mul\n      not\n      and\n      swap1\n      dup4\n      iszero\n      iszero\n      mul\n      or\n      swap1\n      sstore\n      pop\n      0x40\n      dup3\n      add\n      mload\n      dup2\n      0x00\n      add\n      exp(0x0100, 0x02)\n      dup2\n      sload\n      dup2\n      0xffffffffffffffffffffffffffffffffffffffff\n      mul\n      not\n      and\n      swap1\n      dup4\n      0xffffffffffffffffffffffffffffffffffffffff\n      and\n      mul\n      or\n      swap1\n      sstore\n      pop\n      swap1\n      pop\n      pop\n        /* \"contracts/BusinessConsensus2.sol\":5186:5190  keys */\n      0x03\n        /* \"contracts/BusinessConsensus2.sol\":5191:5201  _messageID */\n      dup4\n      dup4\n        /* \"contracts/BusinessConsensus2.sol\":5186:5202  keys[_messageID] */\n      mload(0x40)\n      tag_180\n      swap3\n      swap2\n      swap1\n      tag_107\n      jump\t// in\n    tag_180:\n      swap1\n      dup2\n      mstore\n      0x20\n      add\n      mload(0x40)\n      dup1\n      swap2\n      sub\n      swap1\n      keccak256\n        /* \"contracts/BusinessConsensus2.sol\":5208:5213  voter */\n      dup5\n        /* \"contracts/BusinessConsensus2.sol\":5186:5214  keys[_messageID].push(voter) */\n      swap1\n      dup1\n      0x01\n      dup2\n      sload\n      add\n      dup1\n      dup3\n      sstore\n      dup1\n      swap2\n      pop\n      pop\n      0x01\n      swap1\n      sub\n      swap1\n      0x00\n      mstore\n      keccak256(0x00, 0x20)\n      add\n      0x00\n      swap1\n      swap2\n      swap1\n      swap2\n      swap1\n      swap2\n      0x0100\n      exp\n      dup2\n      sload\n      dup2\n      0xffffffffffffffffffffffffffffffffffffffff\n      mul\n      not\n      and\n      swap1\n      dup4\n      0xffffffffffffffffffffffffffffffffffffffff\n      and\n      mul\n      or\n      swap1\n      sstore\n      pop\n        /* \"contracts/BusinessConsensus2.sol\":4499:5222  {\r... */\n      pop\n        /* \"contracts/BusinessConsensus2.sol\":4425:5222  function RegisterVoter(address voter,string calldata _messageID) external {\r... */\n      pop\n      pop\n      pop\n      jump\t// out\n        /* \"contracts/BusinessConsensus2.sol\":2555:3513  function checkConsistency(string memory _subject, uint256 _businessRequirement, uint256 _expiry, string memory _contents) public view returns(bool, bool, bool){\r... */\n    tag_53:\n        /* \"contracts/BusinessConsensus2.sol\":2697:2701  bool */\n      0x00\n        /* \"contracts/BusinessConsensus2.sol\":2703:2707  bool */\n      dup1\n        /* \"contracts/BusinessConsensus2.sol\":2709:2713  bool */\n      0x00\n        /* \"contracts/BusinessConsensus2.sol\":2747:2764  businessProposals */\n      dup1\n        /* \"contracts/BusinessConsensus2.sol\":2765:2773  _subject */\n      dup8\n        /* \"contracts/BusinessConsensus2.sol\":2747:2774  businessProposals[_subject] */\n      mload(0x40)\n      tag_183\n      swap2\n      swap1\n      tag_184\n      jump\t// in\n    tag_183:\n      swap1\n      dup2\n      mstore\n      0x20\n      add\n      mload(0x40)\n      dup1\n      swap2\n      sub\n      swap1\n      keccak256\n        /* \"contracts/BusinessConsensus2.sol\":2747:2784  businessProposals[_subject].initiator */\n      0x01\n      add\n      0x00\n      swap1\n      sload\n      swap1\n      0x0100\n      exp\n      swap1\n      div\n      0xffffffffffffffffffffffffffffffffffffffff\n      and\n        /* \"contracts/BusinessConsensus2.sol\":2733:2784  msg.sender == businessProposals[_subject].initiator */\n      0xffffffffffffffffffffffffffffffffffffffff\n      and\n        /* \"contracts/BusinessConsensus2.sol\":2733:2743  msg.sender */\n      caller\n        /* \"contracts/BusinessConsensus2.sol\":2733:2784  msg.sender == businessProposals[_subject].initiator */\n      0xffffffffffffffffffffffffffffffffffffffff\n      and\n      eq\n        /* \"contracts/BusinessConsensus2.sol\":2725:2809  require(msg.sender == businessProposals[_subject].initiator, \"You aren't Initiator\") */\n      tag_185\n      jumpi\n      mload(0x40)\n      0x08c379a000000000000000000000000000000000000000000000000000000000\n      dup2\n      mstore\n      0x04\n      add\n      tag_186\n      swap1\n      tag_187\n      jump\t// in\n    tag_186:\n      mload(0x40)\n      dup1\n      swap2\n      sub\n      swap1\n      revert\n    tag_185:\n        /* \"contracts/BusinessConsensus2.sol\":2820:2831  bool value1 */\n      0x00\n        /* \"contracts/BusinessConsensus2.sol\":2834:2838  true */\n      0x01\n        /* \"contracts/BusinessConsensus2.sol\":2820:2838  bool value1 = true */\n      swap1\n      pop\n        /* \"contracts/BusinessConsensus2.sol\":2849:2860  bool value2 */\n      0x00\n        /* \"contracts/BusinessConsensus2.sol\":2863:2867  true */\n      0x01\n        /* \"contracts/BusinessConsensus2.sol\":2849:2867  bool value2 = true */\n      swap1\n      pop\n        /* \"contracts/BusinessConsensus2.sol\":2878:2889  bool value3 */\n      0x00\n        /* \"contracts/BusinessConsensus2.sol\":2892:2896  true */\n      0x01\n        /* \"contracts/BusinessConsensus2.sol\":2878:2896  bool value3 = true */\n      swap1\n      pop\n        /* \"contracts/BusinessConsensus2.sol\":2959:2960  0 */\n      0x00\n        /* \"contracts/BusinessConsensus2.sol\":2910:2961  businessProposals[_subject].initiator == address(0) */\n      0xffffffffffffffffffffffffffffffffffffffff\n      and\n        /* \"contracts/BusinessConsensus2.sol\":2910:2927  businessProposals */\n      0x00\n        /* \"contracts/BusinessConsensus2.sol\":2928:2936  _subject */\n      dup12\n        /* \"contracts/BusinessConsensus2.sol\":2910:2937  businessProposals[_subject] */\n      mload(0x40)\n      tag_188\n      swap2\n      swap1\n      tag_184\n      jump\t// in\n    tag_188:\n      swap1\n      dup2\n      mstore\n      0x20\n      add\n      mload(0x40)\n      dup1\n      swap2\n      sub\n      swap1\n      keccak256\n        /* \"contracts/BusinessConsensus2.sol\":2910:2947  businessProposals[_subject].initiator */\n      0x01\n      add\n      0x00\n      swap1\n      sload\n      swap1\n      0x0100\n      exp\n      swap1\n      div\n      0xffffffffffffffffffffffffffffffffffffffff\n      and\n        /* \"contracts/BusinessConsensus2.sol\":2910:2961  businessProposals[_subject].initiator == address(0) */\n      0xffffffffffffffffffffffffffffffffffffffff\n      and\n      eq\n        /* \"contracts/BusinessConsensus2.sol\":2907:3506  if(businessProposals[_subject].initiator == address(0)){\r... */\n      iszero\n      tag_189\n      jumpi\n        /* \"contracts/BusinessConsensus2.sol\":2985:2989  true */\n      0x01\n        /* \"contracts/BusinessConsensus2.sol\":2991:2995  true */\n      dup1\n        /* \"contracts/BusinessConsensus2.sol\":2997:3001  true */\n      0x01\n        /* \"contracts/BusinessConsensus2.sol\":2977:3002  return (true, true, true) */\n      swap6\n      pop\n      swap6\n      pop\n      swap6\n      pop\n      pop\n      pop\n      pop\n      jump(tag_182)\n        /* \"contracts/BusinessConsensus2.sol\":2907:3506  if(businessProposals[_subject].initiator == address(0)){\r... */\n    tag_189:\n        /* \"contracts/BusinessConsensus2.sol\":3070:3087  businessProposals */\n      0x00\n        /* \"contracts/BusinessConsensus2.sol\":3088:3096  _subject */\n      dup11\n        /* \"contracts/BusinessConsensus2.sol\":3070:3097  businessProposals[_subject] */\n      mload(0x40)\n      tag_191\n      swap2\n      swap1\n      tag_184\n      jump\t// in\n    tag_191:\n      swap1\n      dup2\n      mstore\n      0x20\n      add\n      mload(0x40)\n      dup1\n      swap2\n      sub\n      swap1\n      keccak256\n        /* \"contracts/BusinessConsensus2.sol\":3070:3117  businessProposals[_subject].BusinessRequirement */\n      0x05\n      add\n      sload\n        /* \"contracts/BusinessConsensus2.sol\":3046:3066  _businessRequirement */\n      dup10\n        /* \"contracts/BusinessConsensus2.sol\":3046:3117  _businessRequirement != businessProposals[_subject].BusinessRequirement */\n      eq\n        /* \"contracts/BusinessConsensus2.sol\":3043:3167  if(_businessRequirement != businessProposals[_subject].BusinessRequirement){\r... */\n      tag_192\n      jumpi\n        /* \"contracts/BusinessConsensus2.sol\":3146:3151  false */\n      0x00\n        /* \"contracts/BusinessConsensus2.sol\":3137:3151  value1 = false */\n      swap3\n      pop\n        /* \"contracts/BusinessConsensus2.sol\":3043:3167  if(_businessRequirement != businessProposals[_subject].BusinessRequirement){\r... */\n    tag_192:\n        /* \"contracts/BusinessConsensus2.sol\":3231:3248  businessProposals */\n      0x00\n        /* \"contracts/BusinessConsensus2.sol\":3249:3257  _subject */\n      dup11\n        /* \"contracts/BusinessConsensus2.sol\":3231:3258  businessProposals[_subject] */\n      mload(0x40)\n      tag_193\n      swap2\n      swap1\n      tag_184\n      jump\t// in\n    tag_193:\n      swap1\n      dup2\n      mstore\n      0x20\n      add\n      mload(0x40)\n      dup1\n      swap2\n      sub\n      swap1\n      keccak256\n        /* \"contracts/BusinessConsensus2.sol\":3231:3267  businessProposals[_subject].contents */\n      0x0b\n      add\n        /* \"contracts/BusinessConsensus2.sol\":3215:3269  keccak256(bytes(businessProposals[_subject].contents)) */\n      mload(0x40)\n      tag_194\n      swap2\n      swap1\n      tag_195\n      jump\t// in\n    tag_194:\n      mload(0x40)\n      dup1\n      swap2\n      sub\n      swap1\n      keccak256\n        /* \"contracts/BusinessConsensus2.sol\":3200:3209  _contents */\n      dup8\n        /* \"contracts/BusinessConsensus2.sol\":3184:3211  keccak256(bytes(_contents)) */\n      dup1\n      mload\n      swap1\n      0x20\n      add\n      keccak256\n        /* \"contracts/BusinessConsensus2.sol\":3184:3269  keccak256(bytes(_contents)) != keccak256(bytes(businessProposals[_subject].contents)) */\n      eq\n        /* \"contracts/BusinessConsensus2.sol\":3181:3319  if(keccak256(bytes(_contents)) != keccak256(bytes(businessProposals[_subject].contents))){\r... */\n      tag_196\n      jumpi\n        /* \"contracts/BusinessConsensus2.sol\":3298:3303  false */\n      0x00\n        /* \"contracts/BusinessConsensus2.sol\":3289:3303  value2 = false */\n      swap2\n      pop\n        /* \"contracts/BusinessConsensus2.sol\":3181:3319  if(keccak256(bytes(_contents)) != keccak256(bytes(businessProposals[_subject].contents))){\r... */\n    tag_196:\n        /* \"contracts/BusinessConsensus2.sol\":3397:3404  _expiry */\n      dup8\n        /* \"contracts/BusinessConsensus2.sol\":3379:3394  block.timestamp */\n      timestamp\n        /* \"contracts/BusinessConsensus2.sol\":3379:3404  block.timestamp + _expiry */\n      tag_197\n      swap2\n      swap1\n      tag_124\n      jump\t// in\n    tag_197:\n        /* \"contracts/BusinessConsensus2.sol\":3336:3353  businessProposals */\n      0x00\n        /* \"contracts/BusinessConsensus2.sol\":3354:3362  _subject */\n      dup12\n        /* \"contracts/BusinessConsensus2.sol\":3336:3363  businessProposals[_subject] */\n      mload(0x40)\n      tag_198\n      swap2\n      swap1\n      tag_184\n      jump\t// in\n    tag_198:\n      swap1\n      dup2\n      mstore\n      0x20\n      add\n      mload(0x40)\n      dup1\n      swap2\n      sub\n      swap1\n      keccak256\n        /* \"contracts/BusinessConsensus2.sol\":3336:3374  businessProposals[_subject].expiryDate */\n      0x04\n      add\n      sload\n        /* \"contracts/BusinessConsensus2.sol\":3336:3405  businessProposals[_subject].expiryDate != (block.timestamp + _expiry) */\n      eq\n        /* \"contracts/BusinessConsensus2.sol\":3333:3455  if(businessProposals[_subject].expiryDate != (block.timestamp + _expiry)){\r... */\n      tag_199\n      jumpi\n        /* \"contracts/BusinessConsensus2.sol\":3434:3439  false */\n      0x00\n        /* \"contracts/BusinessConsensus2.sol\":3425:3439  value3 = false */\n      swap1\n      pop\n        /* \"contracts/BusinessConsensus2.sol\":3333:3455  if(businessProposals[_subject].expiryDate != (block.timestamp + _expiry)){\r... */\n    tag_199:\n        /* \"contracts/BusinessConsensus2.sol\":3473:3479  value1 */\n      dup3\n        /* \"contracts/BusinessConsensus2.sol\":3480:3486  value2 */\n      dup3\n        /* \"contracts/BusinessConsensus2.sol\":3487:3493  value3 */\n      dup3\n        /* \"contracts/BusinessConsensus2.sol\":3465:3494  return (value1,value2,value3) */\n      swap6\n      pop\n      swap6\n      pop\n      swap6\n      pop\n      pop\n      pop\n      pop\n        /* \"contracts/BusinessConsensus2.sol\":2555:3513  function checkConsistency(string memory _subject, uint256 _businessRequirement, uint256 _expiry, string memory _contents) public view returns(bool, bool, bool){\r... */\n    tag_182:\n      swap5\n      pop\n      swap5\n      pop\n      swap5\n      swap2\n      pop\n      pop\n      jump\t// out\n        /* \"contracts/BusinessConsensus2.sol\":6685:7744  function Consensus(string calldata _messageID) external {\r... */\n    tag_58:\n        /* \"contracts/BusinessConsensus2.sol\":6779:6796  businessProposals */\n      0x00\n        /* \"contracts/BusinessConsensus2.sol\":6797:6807  _messageID */\n      dup3\n      dup3\n        /* \"contracts/BusinessConsensus2.sol\":6779:6808  businessProposals[_messageID] */\n      mload(0x40)\n      tag_201\n      swap3\n      swap2\n      swap1\n      tag_107\n      jump\t// in\n    tag_201:\n      swap1\n      dup2\n      mstore\n      0x20\n      add\n      mload(0x40)\n      dup1\n      swap2\n      sub\n      swap1\n      keccak256\n        /* \"contracts/BusinessConsensus2.sol\":6779:6819  businessProposals[_messageID].expiryDate */\n      0x04\n      add\n      sload\n        /* \"contracts/BusinessConsensus2.sol\":6760:6775  block.timestamp */\n      timestamp\n        /* \"contracts/BusinessConsensus2.sol\":6760:6819  block.timestamp >= businessProposals[_messageID].expiryDate */\n      lt\n      iszero\n        /* \"contracts/BusinessConsensus2.sol\":6752:6856  require(block.timestamp >= businessProposals[_messageID].expiryDate, \"Verdict has not been reached yet\") */\n      tag_202\n      jumpi\n      mload(0x40)\n      0x08c379a000000000000000000000000000000000000000000000000000000000\n      dup2\n      mstore\n      0x04\n      add\n      tag_203\n      swap1\n      tag_149\n      jump\t// in\n    tag_203:\n      mload(0x40)\n      dup1\n      swap2\n      sub\n      swap1\n      revert\n    tag_202:\n        /* \"contracts/BusinessConsensus2.sol\":6919:6924  false */\n      0x00\n        /* \"contracts/BusinessConsensus2.sol\":6875:6924  businessProposals[_messageID].isCompiled == false */\n      iszero\n      iszero\n        /* \"contracts/BusinessConsensus2.sol\":6875:6892  businessProposals */\n      0x00\n        /* \"contracts/BusinessConsensus2.sol\":6893:6903  _messageID */\n      dup4\n      dup4\n        /* \"contracts/BusinessConsensus2.sol\":6875:6904  businessProposals[_messageID] */\n      mload(0x40)\n      tag_204\n      swap3\n      swap2\n      swap1\n      tag_107\n      jump\t// in\n    tag_204:\n      swap1\n      dup2\n      mstore\n      0x20\n      add\n      mload(0x40)\n      dup1\n      swap2\n      sub\n      swap1\n      keccak256\n        /* \"contracts/BusinessConsensus2.sol\":6875:6915  businessProposals[_messageID].isCompiled */\n      0x07\n      add\n      0x00\n      swap1\n      sload\n      swap1\n      0x0100\n      exp\n      swap1\n      div\n      0xff\n      and\n        /* \"contracts/BusinessConsensus2.sol\":6875:6924  businessProposals[_messageID].isCompiled == false */\n      iszero\n      iszero\n      eq\n        /* \"contracts/BusinessConsensus2.sol\":6867:6966  require(businessProposals[_messageID].isCompiled == false, \"Consensus has already been calculated\") */\n      tag_205\n      jumpi\n      mload(0x40)\n      0x08c379a000000000000000000000000000000000000000000000000000000000\n      dup2\n      mstore\n      0x04\n      add\n      tag_206\n      swap1\n      tag_207\n      jump\t// in\n    tag_206:\n      mload(0x40)\n      dup1\n      swap2\n      sub\n      swap1\n      revert\n    tag_205:\n        /* \"contracts/BusinessConsensus2.sol\":6999:7016  businessProposals */\n      0x00\n        /* \"contracts/BusinessConsensus2.sol\":7017:7027  _messageID */\n      dup3\n      dup3\n        /* \"contracts/BusinessConsensus2.sol\":6999:7028  businessProposals[_messageID] */\n      mload(0x40)\n      tag_208\n      swap3\n      swap2\n      swap1\n      tag_107\n      jump\t// in\n    tag_208:\n      swap1\n      dup2\n      mstore\n      0x20\n      add\n      mload(0x40)\n      dup1\n      swap2\n      sub\n      swap1\n      keccak256\n        /* \"contracts/BusinessConsensus2.sol\":6999:7038  businessProposals[_messageID].initiator */\n      0x01\n      add\n      0x00\n      swap1\n      sload\n      swap1\n      0x0100\n      exp\n      swap1\n      div\n      0xffffffffffffffffffffffffffffffffffffffff\n      and\n        /* \"contracts/BusinessConsensus2.sol\":6985:7038  msg.sender == businessProposals[_messageID].initiator */\n      0xffffffffffffffffffffffffffffffffffffffff\n      and\n        /* \"contracts/BusinessConsensus2.sol\":6985:6995  msg.sender */\n      caller\n        /* \"contracts/BusinessConsensus2.sol\":6985:7038  msg.sender == businessProposals[_messageID].initiator */\n      0xffffffffffffffffffffffffffffffffffffffff\n      and\n      eq\n        /* \"contracts/BusinessConsensus2.sol\":6985:7102  msg.sender == businessProposals[_messageID].initiator || voter_maps[_messageID][msg.sender].recipient != address(0x0) */\n      dup1\n      tag_209\n      jumpi\n      pop\n        /* \"contracts/BusinessConsensus2.sol\":7098:7101  0x0 */\n      0x00\n        /* \"contracts/BusinessConsensus2.sol\":7042:7102  voter_maps[_messageID][msg.sender].recipient != address(0x0) */\n      0xffffffffffffffffffffffffffffffffffffffff\n      and\n        /* \"contracts/BusinessConsensus2.sol\":7042:7052  voter_maps */\n      0x01\n        /* \"contracts/BusinessConsensus2.sol\":7053:7063  _messageID */\n      dup4\n      dup4\n        /* \"contracts/BusinessConsensus2.sol\":7042:7064  voter_maps[_messageID] */\n      mload(0x40)\n      tag_210\n      swap3\n      swap2\n      swap1\n      tag_107\n      jump\t// in\n    tag_210:\n      swap1\n      dup2\n      mstore\n      0x20\n      add\n      mload(0x40)\n      dup1\n      swap2\n      sub\n      swap1\n      keccak256\n        /* \"contracts/BusinessConsensus2.sol\":7042:7076  voter_maps[_messageID][msg.sender] */\n      0x00\n        /* \"contracts/BusinessConsensus2.sol\":7065:7075  msg.sender */\n      caller\n        /* \"contracts/BusinessConsensus2.sol\":7042:7076  voter_maps[_messageID][msg.sender] */\n      0xffffffffffffffffffffffffffffffffffffffff\n      and\n      0xffffffffffffffffffffffffffffffffffffffff\n      and\n      dup2\n      mstore\n      0x20\n      add\n      swap1\n      dup2\n      mstore\n      0x20\n      add\n      0x00\n      keccak256\n        /* \"contracts/BusinessConsensus2.sol\":7042:7086  voter_maps[_messageID][msg.sender].recipient */\n      0x00\n      add\n      0x02\n      swap1\n      sload\n      swap1\n      0x0100\n      exp\n      swap1\n      div\n      0xffffffffffffffffffffffffffffffffffffffff\n      and\n        /* \"contracts/BusinessConsensus2.sol\":7042:7102  voter_maps[_messageID][msg.sender].recipient != address(0x0) */\n      0xffffffffffffffffffffffffffffffffffffffff\n      and\n      eq\n      iszero\n        /* \"contracts/BusinessConsensus2.sol\":6985:7102  msg.sender == businessProposals[_messageID].initiator || voter_maps[_messageID][msg.sender].recipient != address(0x0) */\n    tag_209:\n        /* \"contracts/BusinessConsensus2.sol\":6977:7145  require(msg.sender == businessProposals[_messageID].initiator || voter_maps[_messageID][msg.sender].recipient != address(0x0), \"You aren't authorize to compile Bundle\") */\n      tag_211\n      jumpi\n      mload(0x40)\n      0x08c379a000000000000000000000000000000000000000000000000000000000\n      dup2\n      mstore\n      0x04\n      add\n      tag_212\n      swap1\n      tag_213\n      jump\t// in\n    tag_212:\n      mload(0x40)\n      dup1\n      swap2\n      sub\n      swap1\n      revert\n    tag_211:\n        /* \"contracts/BusinessConsensus2.sol\":7156:7185  uint256 AccumulatedPercentage */\n      0x00\n        /* \"contracts/BusinessConsensus2.sol\":7257:7260  100 */\n      0x64\n        /* \"contracts/BusinessConsensus2.sol\":7232:7236  keys */\n      0x03\n        /* \"contracts/BusinessConsensus2.sol\":7237:7247  _messageID */\n      dup5\n      dup5\n        /* \"contracts/BusinessConsensus2.sol\":7232:7248  keys[_messageID] */\n      mload(0x40)\n      tag_214\n      swap3\n      swap2\n      swap1\n      tag_107\n      jump\t// in\n    tag_214:\n      swap1\n      dup2\n      mstore\n      0x20\n      add\n      mload(0x40)\n      dup1\n      swap2\n      sub\n      swap1\n      keccak256\n        /* \"contracts/BusinessConsensus2.sol\":7232:7255  keys[_messageID].length */\n      dup1\n      sload\n      swap1\n      pop\n        /* \"contracts/BusinessConsensus2.sol\":7189:7206  businessProposals */\n      0x00\n        /* \"contracts/BusinessConsensus2.sol\":7207:7217  _messageID */\n      dup6\n      dup6\n        /* \"contracts/BusinessConsensus2.sol\":7189:7218  businessProposals[_messageID] */\n      mload(0x40)\n      tag_215\n      swap3\n      swap2\n      swap1\n      tag_107\n      jump\t// in\n    tag_215:\n      swap1\n      dup2\n      mstore\n      0x20\n      add\n      mload(0x40)\n      dup1\n      swap2\n      sub\n      swap1\n      keccak256\n        /* \"contracts/BusinessConsensus2.sol\":7189:7231  businessProposals[_messageID].numApprovals */\n      0x06\n      add\n      sload\n        /* \"contracts/BusinessConsensus2.sol\":7189:7255  businessProposals[_messageID].numApprovals/keys[_messageID].length */\n      tag_216\n      swap2\n      swap1\n      tag_217\n      jump\t// in\n    tag_216:\n        /* \"contracts/BusinessConsensus2.sol\":7188:7260  (businessProposals[_messageID].numApprovals/keys[_messageID].length)*100 */\n      tag_218\n      swap2\n      swap1\n      tag_219\n      jump\t// in\n    tag_218:\n        /* \"contracts/BusinessConsensus2.sol\":7156:7260  uint256 AccumulatedPercentage = (businessProposals[_messageID].numApprovals/keys[_messageID].length)*100 */\n      swap1\n      pop\n        /* \"contracts/BusinessConsensus2.sol\":7299:7316  businessProposals */\n      0x00\n        /* \"contracts/BusinessConsensus2.sol\":7317:7327  _messageID */\n      dup4\n      dup4\n        /* \"contracts/BusinessConsensus2.sol\":7299:7328  businessProposals[_messageID] */\n      mload(0x40)\n      tag_220\n      swap3\n      swap2\n      swap1\n      tag_107\n      jump\t// in\n    tag_220:\n      swap1\n      dup2\n      mstore\n      0x20\n      add\n      mload(0x40)\n      dup1\n      swap2\n      sub\n      swap1\n      keccak256\n        /* \"contracts/BusinessConsensus2.sol\":7299:7348  businessProposals[_messageID].BusinessRequirement */\n      0x05\n      add\n      sload\n        /* \"contracts/BusinessConsensus2.sol\":7274:7295  AccumulatedPercentage */\n      dup2\n        /* \"contracts/BusinessConsensus2.sol\":7274:7348  AccumulatedPercentage >= businessProposals[_messageID].BusinessRequirement */\n      lt\n        /* \"contracts/BusinessConsensus2.sol\":7271:7431  if(AccumulatedPercentage >= businessProposals[_messageID].BusinessRequirement){\r... */\n      tag_221\n      jumpi\n        /* \"contracts/BusinessConsensus2.sol\":7364:7419  businessProposals[_messageID].finalVerdict = \"Accepted\" */\n      0x4163636570746564000000000000000000000000000000000000000000000000\n        /* \"contracts/BusinessConsensus2.sol\":7364:7381  businessProposals */\n      0x00\n        /* \"contracts/BusinessConsensus2.sol\":7382:7392  _messageID */\n      dup5\n      dup5\n        /* \"contracts/BusinessConsensus2.sol\":7364:7393  businessProposals[_messageID] */\n      mload(0x40)\n      tag_222\n      swap3\n      swap2\n      swap1\n      tag_107\n      jump\t// in\n    tag_222:\n      swap1\n      dup2\n      mstore\n      0x20\n      add\n      mload(0x40)\n      dup1\n      swap2\n      sub\n      swap1\n      keccak256\n        /* \"contracts/BusinessConsensus2.sol\":7364:7406  businessProposals[_messageID].finalVerdict */\n      0x08\n      add\n        /* \"contracts/BusinessConsensus2.sol\":7364:7419  businessProposals[_messageID].finalVerdict = \"Accepted\" */\n      dup2\n      swap1\n      sstore\n      pop\n        /* \"contracts/BusinessConsensus2.sol\":7271:7431  if(AccumulatedPercentage >= businessProposals[_messageID].BusinessRequirement){\r... */\n    tag_221:\n        /* \"contracts/BusinessConsensus2.sol\":7445:7452  uint8 i */\n      0x00\n        /* \"contracts/BusinessConsensus2.sol\":7441:7679  for(uint8 i=0; i< keys[_messageID].length; i++){\r... */\n    tag_223:\n        /* \"contracts/BusinessConsensus2.sol\":7459:7463  keys */\n      0x03\n        /* \"contracts/BusinessConsensus2.sol\":7464:7474  _messageID */\n      dup5\n      dup5\n        /* \"contracts/BusinessConsensus2.sol\":7459:7475  keys[_messageID] */\n      mload(0x40)\n      tag_226\n      swap3\n      swap2\n      swap1\n      tag_107\n      jump\t// in\n    tag_226:\n      swap1\n      dup2\n      mstore\n      0x20\n      add\n      mload(0x40)\n      dup1\n      swap2\n      sub\n      swap1\n      keccak256\n        /* \"contracts/BusinessConsensus2.sol\":7459:7482  keys[_messageID].length */\n      dup1\n      sload\n      swap1\n      pop\n        /* \"contracts/BusinessConsensus2.sol\":7456:7457  i */\n      dup2\n        /* \"contracts/BusinessConsensus2.sol\":7456:7482  i< keys[_messageID].length */\n      0xff\n      and\n      lt\n        /* \"contracts/BusinessConsensus2.sol\":7441:7679  for(uint8 i=0; i< keys[_messageID].length; i++){\r... */\n      iszero\n      tag_224\n      jumpi\n        /* \"contracts/BusinessConsensus2.sol\":7559:7564  false */\n      0x00\n        /* \"contracts/BusinessConsensus2.sol\":7506:7564  voter_maps[_messageID][keys[_messageID][i]].voted == false */\n      iszero\n      iszero\n        /* \"contracts/BusinessConsensus2.sol\":7506:7516  voter_maps */\n      0x01\n        /* \"contracts/BusinessConsensus2.sol\":7517:7527  _messageID */\n      dup6\n      dup6\n        /* \"contracts/BusinessConsensus2.sol\":7506:7528  voter_maps[_messageID] */\n      mload(0x40)\n      tag_227\n      swap3\n      swap2\n      swap1\n      tag_107\n      jump\t// in\n    tag_227:\n      swap1\n      dup2\n      mstore\n      0x20\n      add\n      mload(0x40)\n      dup1\n      swap2\n      sub\n      swap1\n      keccak256\n        /* \"contracts/BusinessConsensus2.sol\":7506:7549  voter_maps[_messageID][keys[_messageID][i]] */\n      0x00\n        /* \"contracts/BusinessConsensus2.sol\":7529:7533  keys */\n      0x03\n        /* \"contracts/BusinessConsensus2.sol\":7534:7544  _messageID */\n      dup8\n      dup8\n        /* \"contracts/BusinessConsensus2.sol\":7529:7545  keys[_messageID] */\n      mload(0x40)\n      tag_228\n      swap3\n      swap2\n      swap1\n      tag_107\n      jump\t// in\n    tag_228:\n      swap1\n      dup2\n      mstore\n      0x20\n      add\n      mload(0x40)\n      dup1\n      swap2\n      sub\n      swap1\n      keccak256\n        /* \"contracts/BusinessConsensus2.sol\":7546:7547  i */\n      dup5\n        /* \"contracts/BusinessConsensus2.sol\":7529:7548  keys[_messageID][i] */\n      0xff\n      and\n      dup2\n      sload\n      dup2\n      lt\n      tag_229\n      jumpi\n      tag_230\n      tag_231\n      jump\t// in\n    tag_230:\n    tag_229:\n      swap1\n      0x00\n      mstore\n      keccak256(0x00, 0x20)\n      add\n      0x00\n      swap1\n      sload\n      swap1\n      0x0100\n      exp\n      swap1\n      div\n      0xffffffffffffffffffffffffffffffffffffffff\n      and\n        /* \"contracts/BusinessConsensus2.sol\":7506:7549  voter_maps[_messageID][keys[_messageID][i]] */\n      0xffffffffffffffffffffffffffffffffffffffff\n      and\n      0xffffffffffffffffffffffffffffffffffffffff\n      and\n      dup2\n      mstore\n      0x20\n      add\n      swap1\n      dup2\n      mstore\n      0x20\n      add\n      0x00\n      keccak256\n        /* \"contracts/BusinessConsensus2.sol\":7506:7555  voter_maps[_messageID][keys[_messageID][i]].voted */\n      0x00\n      add\n      0x00\n      swap1\n      sload\n      swap1\n      0x0100\n      exp\n      swap1\n      div\n      0xff\n      and\n        /* \"contracts/BusinessConsensus2.sol\":7506:7564  voter_maps[_messageID][keys[_messageID][i]].voted == false */\n      iszero\n      iszero\n      eq\n        /* \"contracts/BusinessConsensus2.sol\":7503:7668  if(voter_maps[_messageID][keys[_messageID][i]].voted == false){\r... */\n      iszero\n      tag_233\n      jumpi\n        /* \"contracts/BusinessConsensus2.sol\":7584:7590  Voters */\n      0x02\n        /* \"contracts/BusinessConsensus2.sol\":7591:7601  _messageID */\n      dup5\n      dup5\n        /* \"contracts/BusinessConsensus2.sol\":7584:7602  Voters[_messageID] */\n      mload(0x40)\n      tag_234\n      swap3\n      swap2\n      swap1\n      tag_107\n      jump\t// in\n    tag_234:\n      swap1\n      dup2\n      mstore\n      0x20\n      add\n      mload(0x40)\n      dup1\n      swap2\n      sub\n      swap1\n      keccak256\n        /* \"contracts/BusinessConsensus2.sol\":7608:7618  voter_maps */\n      0x01\n        /* \"contracts/BusinessConsensus2.sol\":7619:7629  _messageID */\n      dup6\n      dup6\n        /* \"contracts/BusinessConsensus2.sol\":7608:7630  voter_maps[_messageID] */\n      mload(0x40)\n      tag_235\n      swap3\n      swap2\n      swap1\n      tag_107\n      jump\t// in\n    tag_235:\n      swap1\n      dup2\n      mstore\n      0x20\n      add\n      mload(0x40)\n      dup1\n      swap2\n      sub\n      swap1\n      keccak256\n        /* \"contracts/BusinessConsensus2.sol\":7608:7651  voter_maps[_messageID][keys[_messageID][i]] */\n      0x00\n        /* \"contracts/BusinessConsensus2.sol\":7631:7635  keys */\n      0x03\n        /* \"contracts/BusinessConsensus2.sol\":7636:7646  _messageID */\n      dup8\n      dup8\n        /* \"contracts/BusinessConsensus2.sol\":7631:7647  keys[_messageID] */\n      mload(0x40)\n      tag_236\n      swap3\n      swap2\n      swap1\n      tag_107\n      jump\t// in\n    tag_236:\n      swap1\n      dup2\n      mstore\n      0x20\n      add\n      mload(0x40)\n      dup1\n      swap2\n      sub\n      swap1\n      keccak256\n        /* \"contracts/BusinessConsensus2.sol\":7648:7649  i */\n      dup5\n        /* \"contracts/BusinessConsensus2.sol\":7631:7650  keys[_messageID][i] */\n      0xff\n      and\n      dup2\n      sload\n      dup2\n      lt\n      tag_237\n      jumpi\n      tag_238\n      tag_231\n      jump\t// in\n    tag_238:\n    tag_237:\n      swap1\n      0x00\n      mstore\n      keccak256(0x00, 0x20)\n      add\n      0x00\n      swap1\n      sload\n      swap1\n      0x0100\n      exp\n      swap1\n      div\n      0xffffffffffffffffffffffffffffffffffffffff\n      and\n        /* \"contracts/BusinessConsensus2.sol\":7608:7651  voter_maps[_messageID][keys[_messageID][i]] */\n      0xffffffffffffffffffffffffffffffffffffffff\n      and\n      0xffffffffffffffffffffffffffffffffffffffff\n      and\n      dup2\n      mstore\n      0x20\n      add\n      swap1\n      dup2\n      mstore\n      0x20\n      add\n      0x00\n      keccak256\n        /* \"contracts/BusinessConsensus2.sol\":7584:7652  Voters[_messageID].push(voter_maps[_messageID][keys[_messageID][i]]) */\n      swap1\n      dup1\n      0x01\n      dup2\n      sload\n      add\n      dup1\n      dup3\n      sstore\n      dup1\n      swap2\n      pop\n      pop\n      0x01\n      swap1\n      sub\n      swap1\n      0x00\n      mstore\n      keccak256(0x00, 0x20)\n      add\n      0x00\n      swap1\n      swap2\n      swap1\n      swap2\n      swap1\n      swap2\n      pop\n      0x00\n      dup3\n      add\n      0x00\n      swap1\n      sload\n      swap1\n      0x0100\n      exp\n      swap1\n      div\n      0xff\n      and\n      dup2\n      0x00\n      add\n      exp(0x0100, 0x00)\n      dup2\n      sload\n      dup2\n      0xff\n      mul\n      not\n      and\n      swap1\n      dup4\n      iszero\n      iszero\n      mul\n      or\n      swap1\n      sstore\n      pop\n      0x00\n      dup3\n      add\n      0x01\n      swap1\n      sload\n      swap1\n      0x0100\n      exp\n      swap1\n      div\n      0xff\n      and\n      dup2\n      0x00\n      add\n      exp(0x0100, 0x01)\n      dup2\n      sload\n      dup2\n      0xff\n      mul\n      not\n      and\n      swap1\n      dup4\n      iszero\n      iszero\n      mul\n      or\n      swap1\n      sstore\n      pop\n      0x00\n      dup3\n      add\n      0x02\n      swap1\n      sload\n      swap1\n      0x0100\n      exp\n      swap1\n      div\n      0xffffffffffffffffffffffffffffffffffffffff\n      and\n      dup2\n      0x00\n      add\n      exp(0x0100, 0x02)\n      dup2\n      sload\n      dup2\n      0xffffffffffffffffffffffffffffffffffffffff\n      mul\n      not\n      and\n      swap1\n      dup4\n      0xffffffffffffffffffffffffffffffffffffffff\n      and\n      mul\n      or\n      swap1\n      sstore\n      pop\n      pop\n      pop\n        /* \"contracts/BusinessConsensus2.sol\":7503:7668  if(voter_maps[_messageID][keys[_messageID][i]].voted == false){\r... */\n    tag_233:\n        /* \"contracts/BusinessConsensus2.sol\":7484:7487  i++ */\n      dup1\n      dup1\n      tag_241\n      swap1\n      tag_242\n      jump\t// in\n    tag_241:\n      swap2\n      pop\n      pop\n        /* \"contracts/BusinessConsensus2.sol\":7441:7679  for(uint8 i=0; i< keys[_messageID].length; i++){\r... */\n      jump(tag_223)\n    tag_224:\n      pop\n        /* \"contracts/BusinessConsensus2.sol\":7732:7736  true */\n      0x01\n        /* \"contracts/BusinessConsensus2.sol\":7689:7706  businessProposals */\n      0x00\n        /* \"contracts/BusinessConsensus2.sol\":7707:7717  _messageID */\n      dup5\n      dup5\n        /* \"contracts/BusinessConsensus2.sol\":7689:7718  businessProposals[_messageID] */\n      mload(0x40)\n      tag_243\n      swap3\n      swap2\n      swap1\n      tag_107\n      jump\t// in\n    tag_243:\n      swap1\n      dup2\n      mstore\n      0x20\n      add\n      mload(0x40)\n      dup1\n      swap2\n      sub\n      swap1\n      keccak256\n        /* \"contracts/BusinessConsensus2.sol\":7689:7729  businessProposals[_messageID].isCompiled */\n      0x07\n      add\n      0x00\n        /* \"contracts/BusinessConsensus2.sol\":7689:7736  businessProposals[_messageID].isCompiled = true */\n      0x0100\n      exp\n      dup2\n      sload\n      dup2\n      0xff\n      mul\n      not\n      and\n      swap1\n      dup4\n      iszero\n      iszero\n      mul\n      or\n      swap1\n      sstore\n      pop\n        /* \"contracts/BusinessConsensus2.sol\":6741:7744  {\r... */\n      pop\n        /* \"contracts/BusinessConsensus2.sol\":6685:7744  function Consensus(string calldata _messageID) external {\r... */\n      pop\n      pop\n      jump\t// out\n        /* \"contracts/BusinessConsensus2.sol\":1201:2247  function createContract(string memory _messageID, uint256 expiry, uint256 requiredPercentage,string memory contents,string memory subject,string memory _messageDate) external{\r... */\n    tag_62:\n        /* \"contracts/BusinessConsensus2.sol\":1530:1531  0 */\n      0x00\n        /* \"contracts/BusinessConsensus2.sol\":1479:1532  businessProposals[_messageID].initiator == address(0) */\n      0xffffffffffffffffffffffffffffffffffffffff\n      and\n        /* \"contracts/BusinessConsensus2.sol\":1479:1496  businessProposals */\n      0x00\n        /* \"contracts/BusinessConsensus2.sol\":1497:1507  _messageID */\n      dup8\n        /* \"contracts/BusinessConsensus2.sol\":1479:1508  businessProposals[_messageID] */\n      mload(0x40)\n      tag_245\n      swap2\n      swap1\n      tag_184\n      jump\t// in\n    tag_245:\n      swap1\n      dup2\n      mstore\n      0x20\n      add\n      mload(0x40)\n      dup1\n      swap2\n      sub\n      swap1\n      keccak256\n        /* \"contracts/BusinessConsensus2.sol\":1479:1518  businessProposals[_messageID].initiator */\n      0x01\n      add\n      0x00\n      swap1\n      sload\n      swap1\n      0x0100\n      exp\n      swap1\n      div\n      0xffffffffffffffffffffffffffffffffffffffff\n      and\n        /* \"contracts/BusinessConsensus2.sol\":1479:1532  businessProposals[_messageID].initiator == address(0) */\n      0xffffffffffffffffffffffffffffffffffffffff\n      and\n      eq\n        /* \"contracts/BusinessConsensus2.sol\":1471:1561  require(businessProposals[_messageID].initiator == address(0),\"Proposal already created!\") */\n      tag_246\n      jumpi\n      mload(0x40)\n      0x08c379a000000000000000000000000000000000000000000000000000000000\n      dup2\n      mstore\n      0x04\n      add\n      tag_247\n      swap1\n      tag_248\n      jump\t// in\n    tag_247:\n      mload(0x40)\n      dup1\n      swap2\n      sub\n      swap1\n      revert\n    tag_246:\n        /* \"contracts/BusinessConsensus2.sol\":1572:1596  Proposal memory proposal */\n      0x00\n        /* \"contracts/BusinessConsensus2.sol\":1599:2132  Proposal({\r... */\n      mload(0x40)\n      dup1\n      0x0180\n      add\n      0x40\n      mstore\n      dup1\n        /* \"contracts/BusinessConsensus2.sol\":1669:1679  _messageID */\n      dup9\n        /* \"contracts/BusinessConsensus2.sol\":1599:2132  Proposal({\r... */\n      dup2\n      mstore\n      0x20\n      add\n        /* \"contracts/BusinessConsensus2.sol\":1841:1851  msg.sender */\n      caller\n        /* \"contracts/BusinessConsensus2.sol\":1599:2132  Proposal({\r... */\n      0xffffffffffffffffffffffffffffffffffffffff\n      and\n      dup2\n      mstore\n      0x20\n      add\n        /* \"contracts/BusinessConsensus2.sol\":1724:1728  this */\n      address\n        /* \"contracts/BusinessConsensus2.sol\":1599:2132  Proposal({\r... */\n      0xffffffffffffffffffffffffffffffffffffffff\n      and\n      dup2\n      mstore\n      0x20\n      add\n        /* \"contracts/BusinessConsensus2.sol\":1638:1639  0 */\n      0x00\n        /* \"contracts/BusinessConsensus2.sol\":1599:2132  Proposal({\r... */\n      dup2\n      mstore\n      0x20\n      add\n        /* \"contracts/BusinessConsensus2.sol\":1901:1907  expiry */\n      dup8\n        /* \"contracts/BusinessConsensus2.sol\":1883:1898  block.timestamp */\n      timestamp\n        /* \"contracts/BusinessConsensus2.sol\":1883:1907  block.timestamp + expiry */\n      tag_249\n      swap2\n      swap1\n      tag_124\n      jump\t// in\n    tag_249:\n        /* \"contracts/BusinessConsensus2.sol\":1599:2132  Proposal({\r... */\n      dup2\n      mstore\n      0x20\n      add\n        /* \"contracts/BusinessConsensus2.sol\":1948:1966  requiredPercentage */\n      dup7\n        /* \"contracts/BusinessConsensus2.sol\":1599:2132  Proposal({\r... */\n      dup2\n      mstore\n      0x20\n      add\n        /* \"contracts/BusinessConsensus2.sol\":2000:2001  0 */\n      0x00\n        /* \"contracts/BusinessConsensus2.sol\":1599:2132  Proposal({\r... */\n      dup2\n      mstore\n      0x20\n      add\n        /* \"contracts/BusinessConsensus2.sol\":1805:1810  false */\n      0x00\n        /* \"contracts/BusinessConsensus2.sol\":1599:2132  Proposal({\r... */\n      iszero\n      iszero\n      dup2\n      mstore\n      0x20\n      add\n      0x52656a6563746564000000000000000000000000000000000000000000000000\n      dup2\n      mstore\n      0x20\n      add\n        /* \"contracts/BusinessConsensus2.sol\":2032:2044  _messageDate */\n      dup4\n        /* \"contracts/BusinessConsensus2.sol\":1599:2132  Proposal({\r... */\n      dup2\n      mstore\n      0x20\n      add\n        /* \"contracts/BusinessConsensus2.sol\":2072:2079  subject */\n      dup5\n        /* \"contracts/BusinessConsensus2.sol\":1599:2132  Proposal({\r... */\n      dup2\n      mstore\n      0x20\n      add\n        /* \"contracts/BusinessConsensus2.sol\":2108:2116  contents */\n      dup6\n        /* \"contracts/BusinessConsensus2.sol\":1599:2132  Proposal({\r... */\n      dup2\n      mstore\n      pop\n        /* \"contracts/BusinessConsensus2.sol\":1572:2132  Proposal memory proposal = Proposal({\r... */\n      swap1\n      pop\n        /* \"contracts/BusinessConsensus2.sol\":2179:2187  proposal */\n      dup1\n        /* \"contracts/BusinessConsensus2.sol\":2147:2164  businessProposals */\n      0x00\n        /* \"contracts/BusinessConsensus2.sol\":2165:2175  _messageID */\n      dup9\n        /* \"contracts/BusinessConsensus2.sol\":2147:2176  businessProposals[_messageID] */\n      mload(0x40)\n      tag_250\n      swap2\n      swap1\n      tag_184\n      jump\t// in\n    tag_250:\n      swap1\n      dup2\n      mstore\n      0x20\n      add\n      mload(0x40)\n      dup1\n      swap2\n      sub\n      swap1\n      keccak256\n        /* \"contracts/BusinessConsensus2.sol\":2147:2187  businessProposals[_messageID] = proposal */\n      0x00\n      dup3\n      add\n      mload\n      dup2\n      0x00\n      add\n      swap1\n      dup1\n      mload\n      swap1\n      0x20\n      add\n      swap1\n      tag_251\n      swap3\n      swap2\n      swap1\n      tag_252\n      jump\t// in\n    tag_251:\n      pop\n      0x20\n      dup3\n      add\n      mload\n      dup2\n      0x01\n      add\n      exp(0x0100, 0x00)\n      dup2\n      sload\n      dup2\n      0xffffffffffffffffffffffffffffffffffffffff\n      mul\n      not\n      and\n      swap1\n      dup4\n      0xffffffffffffffffffffffffffffffffffffffff\n      and\n      mul\n      or\n      swap1\n      sstore\n      pop\n      0x40\n      dup3\n      add\n      mload\n      dup2\n      0x02\n      add\n      exp(0x0100, 0x00)\n      dup2\n      sload\n      dup2\n      0xffffffffffffffffffffffffffffffffffffffff\n      mul\n      not\n      and\n      swap1\n      dup4\n      0xffffffffffffffffffffffffffffffffffffffff\n      and\n      mul\n      or\n      swap1\n      sstore\n      pop\n      0x60\n      dup3\n      add\n      mload\n      dup2\n      0x03\n      add\n      sstore\n      0x80\n      dup3\n      add\n      mload\n      dup2\n      0x04\n      add\n      sstore\n      0xa0\n      dup3\n      add\n      mload\n      dup2\n      0x05\n      add\n      sstore\n      0xc0\n      dup3\n      add\n      mload\n      dup2\n      0x06\n      add\n      sstore\n      0xe0\n      dup3\n      add\n      mload\n      dup2\n      0x07\n      add\n      exp(0x0100, 0x00)\n      dup2\n      sload\n      dup2\n      0xff\n      mul\n      not\n      and\n      swap1\n      dup4\n      iszero\n      iszero\n      mul\n      or\n      swap1\n      sstore\n      pop\n      0x0100\n      dup3\n      add\n      mload\n      dup2\n      0x08\n      add\n      sstore\n      0x0120\n      dup3\n      add\n      mload\n      dup2\n      0x09\n      add\n      swap1\n      dup1\n      mload\n      swap1\n      0x20\n      add\n      swap1\n      tag_253\n      swap3\n      swap2\n      swap1\n      tag_252\n      jump\t// in\n    tag_253:\n      pop\n      0x0140\n      dup3\n      add\n      mload\n      dup2\n      0x0a\n      add\n      swap1\n      dup1\n      mload\n      swap1\n      0x20\n      add\n      swap1\n      tag_254\n      swap3\n      swap2\n      swap1\n      tag_252\n      jump\t// in\n    tag_254:\n      pop\n      0x0160\n      dup3\n      add\n      mload\n      dup2\n      0x0b\n      add\n      swap1\n      dup1\n      mload\n      swap1\n      0x20\n      add\n      swap1\n      tag_255\n      swap3\n      swap2\n      swap1\n      tag_252\n      jump\t// in\n    tag_255:\n      pop\n      swap1\n      pop\n      pop\n        /* \"contracts/BusinessConsensus2.sol\":2231:2239  proposal */\n      dup1\n        /* \"contracts/BusinessConsensus2.sol\":2202:2219  businessProposals */\n      0x00\n        /* \"contracts/BusinessConsensus2.sol\":2220:2227  subject */\n      dup5\n        /* \"contracts/BusinessConsensus2.sol\":2202:2228  businessProposals[subject] */\n      mload(0x40)\n      tag_256\n      swap2\n      swap1\n      tag_184\n      jump\t// in\n    tag_256:\n      swap1\n      dup2\n      mstore\n      0x20\n      add\n      mload(0x40)\n      dup1\n      swap2\n      sub\n      swap1\n      keccak256\n        /* \"contracts/BusinessConsensus2.sol\":2202:2239  businessProposals[subject] = proposal */\n      0x00\n      dup3\n      add\n      mload\n      dup2\n      0x00\n      add\n      swap1\n      dup1\n      mload\n      swap1\n      0x20\n      add\n      swap1\n      tag_257\n      swap3\n      swap2\n      swap1\n      tag_252\n      jump\t// in\n    tag_257:\n      pop\n      0x20\n      dup3\n      add\n      mload\n      dup2\n      0x01\n      add\n      exp(0x0100, 0x00)\n      dup2\n      sload\n      dup2\n      0xffffffffffffffffffffffffffffffffffffffff\n      mul\n      not\n      and\n      swap1\n      dup4\n      0xffffffffffffffffffffffffffffffffffffffff\n      and\n      mul\n      or\n      swap1\n      sstore\n      pop\n      0x40\n      dup3\n      add\n      mload\n      dup2\n      0x02\n      add\n      exp(0x0100, 0x00)\n      dup2\n      sload\n      dup2\n      0xffffffffffffffffffffffffffffffffffffffff\n      mul\n      not\n      and\n      swap1\n      dup4\n      0xffffffffffffffffffffffffffffffffffffffff\n      and\n      mul\n      or\n      swap1\n      sstore\n      pop\n      0x60\n      dup3\n      add\n      mload\n      dup2\n      0x03\n      add\n      sstore\n      0x80\n      dup3\n      add\n      mload\n      dup2\n      0x04\n      add\n      sstore\n      0xa0\n      dup3\n      add\n      mload\n      dup2\n      0x05\n      add\n      sstore\n      0xc0\n      dup3\n      add\n      mload\n      dup2\n      0x06\n      add\n      sstore\n      0xe0\n      dup3\n      add\n      mload\n      dup2\n      0x07\n      add\n      exp(0x0100, 0x00)\n      dup2\n      sload\n      dup2\n      0xff\n      mul\n      not\n      and\n      swap1\n      dup4\n      iszero\n      iszero\n      mul\n      or\n      swap1\n      sstore\n      pop\n      0x0100\n      dup3\n      add\n      mload\n      dup2\n      0x08\n      add\n      sstore\n      0x0120\n      dup3\n      add\n      mload\n      dup2\n      0x09\n      add\n      swap1\n      dup1\n      mload\n      swap1\n      0x20\n      add\n      swap1\n      tag_258\n      swap3\n      swap2\n      swap1\n      tag_252\n      jump\t// in\n    tag_258:\n      pop\n      0x0140\n      dup3\n      add\n      mload\n      dup2\n      0x0a\n      add\n      swap1\n      dup1\n      mload\n      swap1\n      0x20\n      add\n      swap1\n      tag_259\n      swap3\n      swap2\n      swap1\n      tag_252\n      jump\t// in\n    tag_259:\n      pop\n      0x0160\n      dup3\n      add\n      mload\n      dup2\n      0x0b\n      add\n      swap1\n      dup1\n      mload\n      swap1\n      0x20\n      add\n      swap1\n      tag_260\n      swap3\n      swap2\n      swap1\n      tag_252\n      jump\t// in\n    tag_260:\n      pop\n      swap1\n      pop\n      pop\n        /* \"contracts/BusinessConsensus2.sol\":1375:2247  {\r... */\n      pop\n        /* \"contracts/BusinessConsensus2.sol\":1201:2247  function createContract(string memory _messageID, uint256 expiry, uint256 requiredPercentage,string memory contents,string memory subject,string memory _messageDate) external{\r... */\n      pop\n      pop\n      pop\n      pop\n      pop\n      pop\n      jump\t// out\n        /* \"contracts/BusinessConsensus2.sol\":1105:1143  mapping(string=>Voter[]) public Voters */\n    tag_65:\n      0x02\n      dup3\n      dup1\n      mload\n      0x20\n      dup2\n      add\n      dup3\n      add\n      dup1\n      mload\n      dup5\n      dup3\n      mstore\n      0x20\n      dup4\n      add\n      0x20\n      dup6\n      add\n      keccak256\n      dup2\n      dup4\n      mstore\n      dup1\n      swap6\n      pop\n      pop\n      pop\n      pop\n      pop\n      pop\n      dup2\n      dup2\n      sload\n      dup2\n      lt\n      tag_261\n      jumpi\n      0x00\n      dup1\n      revert\n    tag_261:\n      swap1\n      0x00\n      mstore\n      keccak256(0x00, 0x20)\n      add\n      0x00\n      swap2\n      pop\n      swap2\n      pop\n      pop\n      dup1\n      0x00\n      add\n      0x00\n      swap1\n      sload\n      swap1\n      0x0100\n      exp\n      swap1\n      div\n      0xff\n      and\n      swap1\n      dup1\n      0x00\n      add\n      0x01\n      swap1\n      sload\n      swap1\n      0x0100\n      exp\n      swap1\n      div\n      0xff\n      and\n      swap1\n      dup1\n      0x00\n      add\n      0x02\n      swap1\n      sload\n      swap1\n      0x0100\n      exp\n      swap1\n      div\n      0xffffffffffffffffffffffffffffffffffffffff\n      and\n      swap1\n      pop\n      dup4\n      jump\t// out\n        /* \"contracts/BusinessConsensus2.sol\":2253:2400  function getValues(string calldata _messageID) public view returns (string memory){\r... */\n    tag_69:\n        /* \"contracts/BusinessConsensus2.sol\":2321:2334  string memory */\n      0x60\n        /* \"contracts/BusinessConsensus2.sol\":2353:2370  businessProposals */\n      0x00\n        /* \"contracts/BusinessConsensus2.sol\":2371:2381  _messageID */\n      dup4\n      dup4\n        /* \"contracts/BusinessConsensus2.sol\":2353:2382  businessProposals[_messageID] */\n      mload(0x40)\n      tag_264\n      swap3\n      swap2\n      swap1\n      tag_107\n      jump\t// in\n    tag_264:\n      swap1\n      dup2\n      mstore\n      0x20\n      add\n      mload(0x40)\n      dup1\n      swap2\n      sub\n      swap1\n      keccak256\n        /* \"contracts/BusinessConsensus2.sol\":2353:2392  businessProposals[_messageID].messageID */\n      0x00\n      add\n        /* \"contracts/BusinessConsensus2.sol\":2346:2392  return businessProposals[_messageID].messageID */\n      dup1\n      sload\n      tag_265\n      swap1\n      tag_85\n      jump\t// in\n    tag_265:\n      dup1\n      0x1f\n      add\n      0x20\n      dup1\n      swap2\n      div\n      mul\n      0x20\n      add\n      mload(0x40)\n      swap1\n      dup2\n      add\n      0x40\n      mstore\n      dup1\n      swap3\n      swap2\n      swap1\n      dup2\n      dup2\n      mstore\n      0x20\n      add\n      dup3\n      dup1\n      sload\n      tag_266\n      swap1\n      tag_85\n      jump\t// in\n    tag_266:\n      dup1\n      iszero\n      tag_267\n      jumpi\n      dup1\n      0x1f\n      lt\n      tag_268\n      jumpi\n      0x0100\n      dup1\n      dup4\n      sload\n      div\n      mul\n      dup4\n      mstore\n      swap2\n      0x20\n      add\n      swap2\n      jump(tag_267)\n    tag_268:\n      dup3\n      add\n      swap2\n      swap1\n      0x00\n      mstore\n      keccak256(0x00, 0x20)\n      swap1\n    tag_269:\n      dup2\n      sload\n      dup2\n      mstore\n      swap1\n      0x01\n      add\n      swap1\n      0x20\n      add\n      dup1\n      dup4\n      gt\n      tag_269\n      jumpi\n      dup3\n      swap1\n      sub\n      0x1f\n      and\n      dup3\n      add\n      swap2\n    tag_267:\n      pop\n      pop\n      pop\n      pop\n      pop\n      swap1\n      pop\n        /* \"contracts/BusinessConsensus2.sol\":2253:2400  function getValues(string calldata _messageID) public view returns (string memory){\r... */\n      swap3\n      swap2\n      pop\n      pop\n      jump\t// out\n        /* \"contracts/BusinessConsensus2.sol\":3519:3655  function getIsCreated(string calldata subject) public view returns (Proposal memory){\r... */\n    tag_74:\n        /* \"contracts/BusinessConsensus2.sol\":3587:3602  Proposal memory */\n      tag_270\n      tag_271\n      jump\t// in\n    tag_270:\n        /* \"contracts/BusinessConsensus2.sol\":3621:3638  businessProposals */\n      0x00\n        /* \"contracts/BusinessConsensus2.sol\":3639:3646  subject */\n      dup4\n      dup4\n        /* \"contracts/BusinessConsensus2.sol\":3621:3647  businessProposals[subject] */\n      mload(0x40)\n      tag_273\n      swap3\n      swap2\n      swap1\n      tag_107\n      jump\t// in\n    tag_273:\n      swap1\n      dup2\n      mstore\n      0x20\n      add\n      mload(0x40)\n      dup1\n      swap2\n      sub\n      swap1\n      keccak256\n        /* \"contracts/BusinessConsensus2.sol\":3614:3647  return businessProposals[subject] */\n      mload(0x40)\n      dup1\n      0x0180\n      add\n      0x40\n      mstore\n      swap1\n      dup2\n      0x00\n      dup3\n      add\n      dup1\n      sload\n      tag_274\n      swap1\n      tag_85\n      jump\t// in\n    tag_274:\n      dup1\n      0x1f\n      add\n      0x20\n      dup1\n      swap2\n      div\n      mul\n      0x20\n      add\n      mload(0x40)\n      swap1\n      dup2\n      add\n      0x40\n      mstore\n      dup1\n      swap3\n      swap2\n      swap1\n      dup2\n      dup2\n      mstore\n      0x20\n      add\n      dup3\n      dup1\n      sload\n      tag_275\n      swap1\n      tag_85\n      jump\t// in\n    tag_275:\n      dup1\n      iszero\n      tag_276\n      jumpi\n      dup1\n      0x1f\n      lt\n      tag_277\n      jumpi\n      0x0100\n      dup1\n      dup4\n      sload\n      div\n      mul\n      dup4\n      mstore\n      swap2\n      0x20\n      add\n      swap2\n      jump(tag_276)\n    tag_277:\n      dup3\n      add\n      swap2\n      swap1\n      0x00\n      mstore\n      keccak256(0x00, 0x20)\n      swap1\n    tag_278:\n      dup2\n      sload\n      dup2\n      mstore\n      swap1\n      0x01\n      add\n      swap1\n      0x20\n      add\n      dup1\n      dup4\n      gt\n      tag_278\n      jumpi\n      dup3\n      swap1\n      sub\n      0x1f\n      and\n      dup3\n      add\n      swap2\n    tag_276:\n      pop\n      pop\n      pop\n      pop\n      pop\n      dup2\n      mstore\n      0x20\n      add\n      0x01\n      dup3\n      add\n      0x00\n      swap1\n      sload\n      swap1\n      0x0100\n      exp\n      swap1\n      div\n      0xffffffffffffffffffffffffffffffffffffffff\n      and\n      0xffffffffffffffffffffffffffffffffffffffff\n      and\n      0xffffffffffffffffffffffffffffffffffffffff\n      and\n      dup2\n      mstore\n      0x20\n      add\n      0x02\n      dup3\n      add\n      0x00\n      swap1\n      sload\n      swap1\n      0x0100\n      exp\n      swap1\n      div\n      0xffffffffffffffffffffffffffffffffffffffff\n      and\n      0xffffffffffffffffffffffffffffffffffffffff\n      and\n      0xffffffffffffffffffffffffffffffffffffffff\n      and\n      dup2\n      mstore\n      0x20\n      add\n      0x03\n      dup3\n      add\n      sload\n      dup2\n      mstore\n      0x20\n      add\n      0x04\n      dup3\n      add\n      sload\n      dup2\n      mstore\n      0x20\n      add\n      0x05\n      dup3\n      add\n      sload\n      dup2\n      mstore\n      0x20\n      add\n      0x06\n      dup3\n      add\n      sload\n      dup2\n      mstore\n      0x20\n      add\n      0x07\n      dup3\n      add\n      0x00\n      swap1\n      sload\n      swap1\n      0x0100\n      exp\n      swap1\n      div\n      0xff\n      and\n      iszero\n      iszero\n      iszero\n      iszero\n      dup2\n      mstore\n      0x20\n      add\n      0x08\n      dup3\n      add\n      sload\n      dup2\n      mstore\n      0x20\n      add\n      0x09\n      dup3\n      add\n      dup1\n      sload\n      tag_279\n      swap1\n      tag_85\n      jump\t// in\n    tag_279:\n      dup1\n      0x1f\n      add\n      0x20\n      dup1\n      swap2\n      div\n      mul\n      0x20\n      add\n      mload(0x40)\n      swap1\n      dup2\n      add\n      0x40\n      mstore\n      dup1\n      swap3\n      swap2\n      swap1\n      dup2\n      dup2\n      mstore\n      0x20\n      add\n      dup3\n      dup1\n      sload\n      tag_280\n      swap1\n      tag_85\n      jump\t// in\n    tag_280:\n      dup1\n      iszero\n      tag_281\n      jumpi\n      dup1\n      0x1f\n      lt\n      tag_282\n      jumpi\n      0x0100\n      dup1\n      dup4\n      sload\n      div\n      mul\n      dup4\n      mstore\n      swap2\n      0x20\n      add\n      swap2\n      jump(tag_281)\n    tag_282:\n      dup3\n      add\n      swap2\n      swap1\n      0x00\n      mstore\n      keccak256(0x00, 0x20)\n      swap1\n    tag_283:\n      dup2\n      sload\n      dup2\n      mstore\n      swap1\n      0x01\n      add\n      swap1\n      0x20\n      add\n      dup1\n      dup4\n      gt\n      tag_283\n      jumpi\n      dup3\n      swap1\n      sub\n      0x1f\n      and\n      dup3\n      add\n      swap2\n    tag_281:\n      pop\n      pop\n      pop\n      pop\n      pop\n      dup2\n      mstore\n      0x20\n      add\n      0x0a\n      dup3\n      add\n      dup1\n      sload\n      tag_284\n      swap1\n      tag_85\n      jump\t// in\n    tag_284:\n      dup1\n      0x1f\n      add\n      0x20\n      dup1\n      swap2\n      div\n      mul\n      0x20\n      add\n      mload(0x40)\n      swap1\n      dup2\n      add\n      0x40\n      mstore\n      dup1\n      swap3\n      swap2\n      swap1\n      dup2\n      dup2\n      mstore\n      0x20\n      add\n      dup3\n      dup1\n      sload\n      tag_285\n      swap1\n      tag_85\n      jump\t// in\n    tag_285:\n      dup1\n      iszero\n      tag_286\n      jumpi\n      dup1\n      0x1f\n      lt\n      tag_287\n      jumpi\n      0x0100\n      dup1\n      dup4\n      sload\n      div\n      mul\n      dup4\n      mstore\n      swap2\n      0x20\n      add\n      swap2\n      jump(tag_286)\n    tag_287:\n      dup3\n      add\n      swap2\n      swap1\n      0x00\n      mstore\n      keccak256(0x00, 0x20)\n      swap1\n    tag_288:\n      dup2\n      sload\n      dup2\n      mstore\n      swap1\n      0x01\n      add\n      swap1\n      0x20\n      add\n      dup1\n      dup4\n      gt\n      tag_288\n      jumpi\n      dup3\n      swap1\n      sub\n      0x1f\n      and\n      dup3\n      add\n      swap2\n    tag_286:\n      pop\n      pop\n      pop\n      pop\n      pop\n      dup2\n      mstore\n      0x20\n      add\n      0x0b\n      dup3\n      add\n      dup1\n      sload\n      tag_289\n      swap1\n      tag_85\n      jump\t// in\n    tag_289:\n      dup1\n      0x1f\n      add\n      0x20\n      dup1\n      swap2\n      div\n      mul\n      0x20\n      add\n      mload(0x40)\n      swap1\n      dup2\n      add\n      0x40\n      mstore\n      dup1\n      swap3\n      swap2\n      swap1\n      dup2\n      dup2\n      mstore\n      0x20\n      add\n      dup3\n      dup1\n      sload\n      tag_290\n      swap1\n      tag_85\n      jump\t// in\n    tag_290:\n      dup1\n      iszero\n      tag_291\n      jumpi\n      dup1\n      0x1f\n      lt\n      tag_292\n      jumpi\n      0x0100\n      dup1\n      dup4\n      sload\n      div\n      mul\n      dup4\n      mstore\n      swap2\n      0x20\n      add\n      swap2\n      jump(tag_291)\n    tag_292:\n      dup3\n      add\n      swap2\n      swap1\n      0x00\n      mstore\n      keccak256(0x00, 0x20)\n      swap1\n    tag_293:\n      dup2\n      sload\n      dup2\n      mstore\n      swap1\n      0x01\n      add\n      swap1\n      0x20\n      add\n      dup1\n      dup4\n      gt\n      tag_293\n      jumpi\n      dup3\n      swap1\n      sub\n      0x1f\n      and\n      dup3\n      add\n      swap2\n    tag_291:\n      pop\n      pop\n      pop\n      pop\n      pop\n      dup2\n      mstore\n      pop\n      pop\n      swap1\n      pop\n        /* \"contracts/BusinessConsensus2.sol\":3519:3655  function getIsCreated(string calldata subject) public view returns (Proposal memory){\r... */\n      swap3\n      swap2\n      pop\n      pop\n      jump\t// out\n        /* \"contracts/BusinessConsensus2.sol\":2406:2549  function getIsCompiled(string calldata _messageID) public view returns (bool){\r... */\n    tag_79:\n        /* \"contracts/BusinessConsensus2.sol\":2478:2482  bool */\n      0x00\n        /* \"contracts/BusinessConsensus2.sol\":2501:2518  businessProposals */\n      dup1\n        /* \"contracts/BusinessConsensus2.sol\":2519:2529  _messageID */\n      dup4\n      dup4\n        /* \"contracts/BusinessConsensus2.sol\":2501:2530  businessProposals[_messageID] */\n      mload(0x40)\n      tag_295\n      swap3\n      swap2\n      swap1\n      tag_107\n      jump\t// in\n    tag_295:\n      swap1\n      dup2\n      mstore\n      0x20\n      add\n      mload(0x40)\n      dup1\n      swap2\n      sub\n      swap1\n      keccak256\n        /* \"contracts/BusinessConsensus2.sol\":2501:2541  businessProposals[_messageID].isCompiled */\n      0x07\n      add\n      0x00\n      swap1\n      sload\n      swap1\n      0x0100\n      exp\n      swap1\n      div\n      0xff\n      and\n        /* \"contracts/BusinessConsensus2.sol\":2494:2541  return businessProposals[_messageID].isCompiled */\n      swap1\n      pop\n        /* \"contracts/BusinessConsensus2.sol\":2406:2549  function getIsCompiled(string calldata _messageID) public view returns (bool){\r... */\n      swap3\n      swap2\n      pop\n      pop\n      jump\t// out\n    tag_252:\n      dup3\n      dup1\n      sload\n      tag_296\n      swap1\n      tag_85\n      jump\t// in\n    tag_296:\n      swap1\n      0x00\n      mstore\n      keccak256(0x00, 0x20)\n      swap1\n      0x1f\n      add\n      0x20\n      swap1\n      div\n      dup2\n      add\n      swap3\n      dup3\n      tag_298\n      jumpi\n      0x00\n      dup6\n      sstore\n      jump(tag_297)\n    tag_298:\n      dup3\n      0x1f\n      lt\n      tag_299\n      jumpi\n      dup1\n      mload\n      not(0xff)\n      and\n      dup4\n      dup1\n      add\n      or\n      dup6\n      sstore\n      jump(tag_297)\n    tag_299:\n      dup3\n      dup1\n      add\n      0x01\n      add\n      dup6\n      sstore\n      dup3\n      iszero\n      tag_297\n      jumpi\n      swap2\n      dup3\n      add\n    tag_300:\n      dup3\n      dup2\n      gt\n      iszero\n      tag_301\n      jumpi\n      dup3\n      mload\n      dup3\n      sstore\n      swap2\n      0x20\n      add\n      swap2\n      swap1\n      0x01\n      add\n      swap1\n      jump(tag_300)\n    tag_301:\n    tag_297:\n      pop\n      swap1\n      pop\n      tag_302\n      swap2\n      swap1\n      tag_303\n      jump\t// in\n    tag_302:\n      pop\n      swap1\n      jump\t// out\n    tag_271:\n      mload(0x40)\n      dup1\n      0x0180\n      add\n      0x40\n      mstore\n      dup1\n      0x60\n      dup2\n      mstore\n      0x20\n      add\n      and(0xffffffffffffffffffffffffffffffffffffffff, 0x00)\n      dup2\n      mstore\n      0x20\n      add\n      and(0xffffffffffffffffffffffffffffffffffffffff, 0x00)\n      dup2\n      mstore\n      0x20\n      add\n      0x00\n      dup2\n      mstore\n      0x20\n      add\n      0x00\n      dup2\n      mstore\n      0x20\n      add\n      0x00\n      dup2\n      mstore\n      0x20\n      add\n      0x00\n      dup2\n      mstore\n      0x20\n      add\n      iszero(iszero(0x00))\n      dup2\n      mstore\n      0x20\n      add\n      0x00\n      dup1\n      not\n      and\n      dup2\n      mstore\n      0x20\n      add\n      0x60\n      dup2\n      mstore\n      0x20\n      add\n      0x60\n      dup2\n      mstore\n      0x20\n      add\n      0x60\n      dup2\n      mstore\n      pop\n      swap1\n      jump\t// out\n    tag_303:\n    tag_304:\n      dup1\n      dup3\n      gt\n      iszero\n      tag_305\n      jumpi\n      0x00\n      dup2\n      0x00\n      swap1\n      sstore\n      pop\n      0x01\n      add\n      jump(tag_304)\n    tag_305:\n      pop\n      swap1\n      jump\t// out\n        /* \"#utility.yul\":7:419   */\n    tag_307:\n        /* \"#utility.yul\":85:90   */\n      0x00\n        /* \"#utility.yul\":110:176   */\n      tag_309\n        /* \"#utility.yul\":126:175   */\n      tag_310\n        /* \"#utility.yul\":168:174   */\n      dup5\n        /* \"#utility.yul\":126:175   */\n      tag_311\n      jump\t// in\n    tag_310:\n        /* \"#utility.yul\":110:176   */\n      tag_312\n      jump\t// in\n    tag_309:\n        /* \"#utility.yul\":101:176   */\n      swap1\n      pop\n        /* \"#utility.yul\":199:205   */\n      dup3\n        /* \"#utility.yul\":192:197   */\n      dup2\n        /* \"#utility.yul\":185:206   */\n      mstore\n        /* \"#utility.yul\":237:241   */\n      0x20\n        /* \"#utility.yul\":230:235   */\n      dup2\n        /* \"#utility.yul\":226:242   */\n      add\n        /* \"#utility.yul\":275:278   */\n      dup5\n        /* \"#utility.yul\":266:272   */\n      dup5\n        /* \"#utility.yul\":261:264   */\n      dup5\n        /* \"#utility.yul\":257:273   */\n      add\n        /* \"#utility.yul\":254:279   */\n      gt\n        /* \"#utility.yul\":251:363   */\n      iszero\n      tag_313\n      jumpi\n        /* \"#utility.yul\":282:361   */\n      tag_314\n      tag_315\n      jump\t// in\n    tag_314:\n        /* \"#utility.yul\":251:363   */\n    tag_313:\n        /* \"#utility.yul\":372:413   */\n      tag_316\n        /* \"#utility.yul\":406:412   */\n      dup5\n        /* \"#utility.yul\":401:404   */\n      dup3\n        /* \"#utility.yul\":396:399   */\n      dup6\n        /* \"#utility.yul\":372:413   */\n      tag_317\n      jump\t// in\n    tag_316:\n        /* \"#utility.yul\":91:419   */\n      pop\n        /* \"#utility.yul\":7:419   */\n      swap4\n      swap3\n      pop\n      pop\n      pop\n      jump\t// out\n        /* \"#utility.yul\":425:564   */\n    tag_318:\n        /* \"#utility.yul\":471:476   */\n      0x00\n        /* \"#utility.yul\":509:515   */\n      dup2\n        /* \"#utility.yul\":496:516   */\n      calldataload\n        /* \"#utility.yul\":487:516   */\n      swap1\n      pop\n        /* \"#utility.yul\":525:558   */\n      tag_320\n        /* \"#utility.yul\":552:557   */\n      dup2\n        /* \"#utility.yul\":525:558   */\n      tag_321\n      jump\t// in\n    tag_320:\n        /* \"#utility.yul\":425:564   */\n      swap3\n      swap2\n      pop\n      pop\n      jump\t// out\n        /* \"#utility.yul\":584:1137   */\n    tag_322:\n        /* \"#utility.yul\":642:650   */\n      0x00\n        /* \"#utility.yul\":652:658   */\n      dup1\n        /* \"#utility.yul\":702:705   */\n      dup4\n        /* \"#utility.yul\":695:699   */\n      0x1f\n        /* \"#utility.yul\":687:693   */\n      dup5\n        /* \"#utility.yul\":683:700   */\n      add\n        /* \"#utility.yul\":679:706   */\n      slt\n        /* \"#utility.yul\":669:791   */\n      tag_324\n      jumpi\n        /* \"#utility.yul\":710:789   */\n      tag_325\n      tag_326\n      jump\t// in\n    tag_325:\n        /* \"#utility.yul\":669:791   */\n    tag_324:\n        /* \"#utility.yul\":823:829   */\n      dup3\n        /* \"#utility.yul\":810:830   */\n      calldataload\n        /* \"#utility.yul\":800:830   */\n      swap1\n      pop\n        /* \"#utility.yul\":853:871   */\n      0xffffffffffffffff\n        /* \"#utility.yul\":845:851   */\n      dup2\n        /* \"#utility.yul\":842:872   */\n      gt\n        /* \"#utility.yul\":839:956   */\n      iszero\n      tag_327\n      jumpi\n        /* \"#utility.yul\":875:954   */\n      tag_328\n      tag_329\n      jump\t// in\n    tag_328:\n        /* \"#utility.yul\":839:956   */\n    tag_327:\n        /* \"#utility.yul\":989:993   */\n      0x20\n        /* \"#utility.yul\":981:987   */\n      dup4\n        /* \"#utility.yul\":977:994   */\n      add\n        /* \"#utility.yul\":965:994   */\n      swap2\n      pop\n        /* \"#utility.yul\":1043:1046   */\n      dup4\n        /* \"#utility.yul\":1035:1039   */\n      0x01\n        /* \"#utility.yul\":1027:1033   */\n      dup3\n        /* \"#utility.yul\":1023:1040   */\n      mul\n        /* \"#utility.yul\":1013:1021   */\n      dup4\n        /* \"#utility.yul\":1009:1041   */\n      add\n        /* \"#utility.yul\":1006:1047   */\n      gt\n        /* \"#utility.yul\":1003:1131   */\n      iszero\n      tag_330\n      jumpi\n        /* \"#utility.yul\":1050:1129   */\n      tag_331\n      tag_332\n      jump\t// in\n    tag_331:\n        /* \"#utility.yul\":1003:1131   */\n    tag_330:\n        /* \"#utility.yul\":584:1137   */\n      swap3\n      pop\n      swap3\n      swap1\n      pop\n      jump\t// out\n        /* \"#utility.yul\":1157:1497   */\n    tag_333:\n        /* \"#utility.yul\":1213:1218   */\n      0x00\n        /* \"#utility.yul\":1262:1265   */\n      dup3\n        /* \"#utility.yul\":1255:1259   */\n      0x1f\n        /* \"#utility.yul\":1247:1253   */\n      dup4\n        /* \"#utility.yul\":1243:1260   */\n      add\n        /* \"#utility.yul\":1239:1266   */\n      slt\n        /* \"#utility.yul\":1229:1351   */\n      tag_335\n      jumpi\n        /* \"#utility.yul\":1270:1349   */\n      tag_336\n      tag_326\n      jump\t// in\n    tag_336:\n        /* \"#utility.yul\":1229:1351   */\n    tag_335:\n        /* \"#utility.yul\":1387:1393   */\n      dup2\n        /* \"#utility.yul\":1374:1394   */\n      calldataload\n        /* \"#utility.yul\":1412:1491   */\n      tag_337\n        /* \"#utility.yul\":1487:1490   */\n      dup5\n        /* \"#utility.yul\":1479:1485   */\n      dup3\n        /* \"#utility.yul\":1472:1476   */\n      0x20\n        /* \"#utility.yul\":1464:1470   */\n      dup7\n        /* \"#utility.yul\":1460:1477   */\n      add\n        /* \"#utility.yul\":1412:1491   */\n      tag_307\n      jump\t// in\n    tag_337:\n        /* \"#utility.yul\":1403:1491   */\n      swap2\n      pop\n        /* \"#utility.yul\":1219:1497   */\n      pop\n        /* \"#utility.yul\":1157:1497   */\n      swap3\n      swap2\n      pop\n      pop\n      jump\t// out\n        /* \"#utility.yul\":1503:1642   */\n    tag_338:\n        /* \"#utility.yul\":1549:1554   */\n      0x00\n        /* \"#utility.yul\":1587:1593   */\n      dup2\n        /* \"#utility.yul\":1574:1594   */\n      calldataload\n        /* \"#utility.yul\":1565:1594   */\n      swap1\n      pop\n        /* \"#utility.yul\":1603:1636   */\n      tag_340\n        /* \"#utility.yul\":1630:1635   */\n      dup2\n        /* \"#utility.yul\":1603:1636   */\n      tag_341\n      jump\t// in\n    tag_340:\n        /* \"#utility.yul\":1503:1642   */\n      swap3\n      swap2\n      pop\n      pop\n      jump\t// out\n        /* \"#utility.yul\":1648:2322   */\n    tag_48:\n        /* \"#utility.yul\":1728:1734   */\n      0x00\n        /* \"#utility.yul\":1736:1742   */\n      dup1\n        /* \"#utility.yul\":1744:1750   */\n      0x00\n        /* \"#utility.yul\":1793:1795   */\n      0x40\n        /* \"#utility.yul\":1781:1790   */\n      dup5\n        /* \"#utility.yul\":1772:1779   */\n      dup7\n        /* \"#utility.yul\":1768:1791   */\n      sub\n        /* \"#utility.yul\":1764:1796   */\n      slt\n        /* \"#utility.yul\":1761:1880   */\n      iszero\n      tag_343\n      jumpi\n        /* \"#utility.yul\":1799:1878   */\n      tag_344\n      tag_345\n      jump\t// in\n    tag_344:\n        /* \"#utility.yul\":1761:1880   */\n    tag_343:\n        /* \"#utility.yul\":1919:1920   */\n      0x00\n        /* \"#utility.yul\":1944:1997   */\n      tag_346\n        /* \"#utility.yul\":1989:1996   */\n      dup7\n        /* \"#utility.yul\":1980:1986   */\n      dup3\n        /* \"#utility.yul\":1969:1978   */\n      dup8\n        /* \"#utility.yul\":1965:1987   */\n      add\n        /* \"#utility.yul\":1944:1997   */\n      tag_318\n      jump\t// in\n    tag_346:\n        /* \"#utility.yul\":1934:1997   */\n      swap4\n      pop\n        /* \"#utility.yul\":1890:2007   */\n      pop\n        /* \"#utility.yul\":2074:2076   */\n      0x20\n        /* \"#utility.yul\":2063:2072   */\n      dup5\n        /* \"#utility.yul\":2059:2077   */\n      add\n        /* \"#utility.yul\":2046:2078   */\n      calldataload\n        /* \"#utility.yul\":2105:2123   */\n      0xffffffffffffffff\n        /* \"#utility.yul\":2097:2103   */\n      dup2\n        /* \"#utility.yul\":2094:2124   */\n      gt\n        /* \"#utility.yul\":2091:2208   */\n      iszero\n      tag_347\n      jumpi\n        /* \"#utility.yul\":2127:2206   */\n      tag_348\n      tag_349\n      jump\t// in\n    tag_348:\n        /* \"#utility.yul\":2091:2208   */\n    tag_347:\n        /* \"#utility.yul\":2240:2305   */\n      tag_350\n        /* \"#utility.yul\":2297:2304   */\n      dup7\n        /* \"#utility.yul\":2288:2294   */\n      dup3\n        /* \"#utility.yul\":2277:2286   */\n      dup8\n        /* \"#utility.yul\":2273:2295   */\n      add\n        /* \"#utility.yul\":2240:2305   */\n      tag_322\n      jump\t// in\n    tag_350:\n        /* \"#utility.yul\":2222:2305   */\n      swap3\n      pop\n      swap3\n      pop\n        /* \"#utility.yul\":2017:2315   */\n      pop\n        /* \"#utility.yul\":1648:2322   */\n      swap3\n      pop\n      swap3\n      pop\n      swap3\n      jump\t// out\n        /* \"#utility.yul\":2328:2857   */\n    tag_42:\n        /* \"#utility.yul\":2399:2405   */\n      0x00\n        /* \"#utility.yul\":2407:2413   */\n      dup1\n        /* \"#utility.yul\":2456:2458   */\n      0x20\n        /* \"#utility.yul\":2444:2453   */\n      dup4\n        /* \"#utility.yul\":2435:2442   */\n      dup6\n        /* \"#utility.yul\":2431:2454   */\n      sub\n        /* \"#utility.yul\":2427:2459   */\n      slt\n        /* \"#utility.yul\":2424:2543   */\n      iszero\n      tag_352\n      jumpi\n        /* \"#utility.yul\":2462:2541   */\n      tag_353\n      tag_345\n      jump\t// in\n    tag_353:\n        /* \"#utility.yul\":2424:2543   */\n    tag_352:\n        /* \"#utility.yul\":2610:2611   */\n      0x00\n        /* \"#utility.yul\":2599:2608   */\n      dup4\n        /* \"#utility.yul\":2595:2612   */\n      add\n        /* \"#utility.yul\":2582:2613   */\n      calldataload\n        /* \"#utility.yul\":2640:2658   */\n      0xffffffffffffffff\n        /* \"#utility.yul\":2632:2638   */\n      dup2\n        /* \"#utility.yul\":2629:2659   */\n      gt\n        /* \"#utility.yul\":2626:2743   */\n      iszero\n      tag_354\n      jumpi\n        /* \"#utility.yul\":2662:2741   */\n      tag_355\n      tag_349\n      jump\t// in\n    tag_355:\n        /* \"#utility.yul\":2626:2743   */\n    tag_354:\n        /* \"#utility.yul\":2775:2840   */\n      tag_356\n        /* \"#utility.yul\":2832:2839   */\n      dup6\n        /* \"#utility.yul\":2823:2829   */\n      dup3\n        /* \"#utility.yul\":2812:2821   */\n      dup7\n        /* \"#utility.yul\":2808:2830   */\n      add\n        /* \"#utility.yul\":2775:2840   */\n      tag_322\n      jump\t// in\n    tag_356:\n        /* \"#utility.yul\":2757:2840   */\n      swap3\n      pop\n      swap3\n      pop\n        /* \"#utility.yul\":2553:2850   */\n      pop\n        /* \"#utility.yul\":2328:2857   */\n      swap3\n      pop\n      swap3\n      swap1\n      pop\n      jump\t// out\n        /* \"#utility.yul\":2863:3372   */\n    tag_26:\n        /* \"#utility.yul\":2932:2938   */\n      0x00\n        /* \"#utility.yul\":2981:2983   */\n      0x20\n        /* \"#utility.yul\":2969:2978   */\n      dup3\n        /* \"#utility.yul\":2960:2967   */\n      dup5\n        /* \"#utility.yul\":2956:2979   */\n      sub\n        /* \"#utility.yul\":2952:2984   */\n      slt\n        /* \"#utility.yul\":2949:3068   */\n      iszero\n      tag_358\n      jumpi\n        /* \"#utility.yul\":2987:3066   */\n      tag_359\n      tag_345\n      jump\t// in\n    tag_359:\n        /* \"#utility.yul\":2949:3068   */\n    tag_358:\n        /* \"#utility.yul\":3135:3136   */\n      0x00\n        /* \"#utility.yul\":3124:3133   */\n      dup3\n        /* \"#utility.yul\":3120:3137   */\n      add\n        /* \"#utility.yul\":3107:3138   */\n      calldataload\n        /* \"#utility.yul\":3165:3183   */\n      0xffffffffffffffff\n        /* \"#utility.yul\":3157:3163   */\n      dup2\n        /* \"#utility.yul\":3154:3184   */\n      gt\n        /* \"#utility.yul\":3151:3268   */\n      iszero\n      tag_360\n      jumpi\n        /* \"#utility.yul\":3187:3266   */\n      tag_361\n      tag_349\n      jump\t// in\n    tag_361:\n        /* \"#utility.yul\":3151:3268   */\n    tag_360:\n        /* \"#utility.yul\":3292:3355   */\n      tag_362\n        /* \"#utility.yul\":3347:3354   */\n      dup5\n        /* \"#utility.yul\":3338:3344   */\n      dup3\n        /* \"#utility.yul\":3327:3336   */\n      dup6\n        /* \"#utility.yul\":3323:3345   */\n      add\n        /* \"#utility.yul\":3292:3355   */\n      tag_333\n      jump\t// in\n    tag_362:\n        /* \"#utility.yul\":3282:3355   */\n      swap2\n      pop\n        /* \"#utility.yul\":3078:3365   */\n      pop\n        /* \"#utility.yul\":2863:3372   */\n      swap3\n      swap2\n      pop\n      pop\n      jump\t// out\n        /* \"#utility.yul\":3378:4032   */\n    tag_36:\n        /* \"#utility.yul\":3456:3462   */\n      0x00\n        /* \"#utility.yul\":3464:3470   */\n      dup1\n        /* \"#utility.yul\":3513:3515   */\n      0x40\n        /* \"#utility.yul\":3501:3510   */\n      dup4\n        /* \"#utility.yul\":3492:3499   */\n      dup6\n        /* \"#utility.yul\":3488:3511   */\n      sub\n        /* \"#utility.yul\":3484:3516   */\n      slt\n        /* \"#utility.yul\":3481:3600   */\n      iszero\n      tag_364\n      jumpi\n        /* \"#utility.yul\":3519:3598   */\n      tag_365\n      tag_345\n      jump\t// in\n    tag_365:\n        /* \"#utility.yul\":3481:3600   */\n    tag_364:\n        /* \"#utility.yul\":3667:3668   */\n      0x00\n        /* \"#utility.yul\":3656:3665   */\n      dup4\n        /* \"#utility.yul\":3652:3669   */\n      add\n        /* \"#utility.yul\":3639:3670   */\n      calldataload\n        /* \"#utility.yul\":3697:3715   */\n      0xffffffffffffffff\n        /* \"#utility.yul\":3689:3695   */\n      dup2\n        /* \"#utility.yul\":3686:3716   */\n      gt\n        /* \"#utility.yul\":3683:3800   */\n      iszero\n      tag_366\n      jumpi\n        /* \"#utility.yul\":3719:3798   */\n      tag_367\n      tag_349\n      jump\t// in\n    tag_367:\n        /* \"#utility.yul\":3683:3800   */\n    tag_366:\n        /* \"#utility.yul\":3824:3887   */\n      tag_368\n        /* \"#utility.yul\":3879:3886   */\n      dup6\n        /* \"#utility.yul\":3870:3876   */\n      dup3\n        /* \"#utility.yul\":3859:3868   */\n      dup7\n        /* \"#utility.yul\":3855:3877   */\n      add\n        /* \"#utility.yul\":3824:3887   */\n      tag_333\n      jump\t// in\n    tag_368:\n        /* \"#utility.yul\":3814:3887   */\n      swap3\n      pop\n        /* \"#utility.yul\":3610:3897   */\n      pop\n        /* \"#utility.yul\":3936:3938   */\n      0x20\n        /* \"#utility.yul\":3962:4015   */\n      tag_369\n        /* \"#utility.yul\":4007:4014   */\n      dup6\n        /* \"#utility.yul\":3998:4004   */\n      dup3\n        /* \"#utility.yul\":3987:3996   */\n      dup7\n        /* \"#utility.yul\":3983:4005   */\n      add\n        /* \"#utility.yul\":3962:4015   */\n      tag_318\n      jump\t// in\n    tag_369:\n        /* \"#utility.yul\":3952:4015   */\n      swap2\n      pop\n        /* \"#utility.yul\":3907:4025   */\n      pop\n        /* \"#utility.yul\":3378:4032   */\n      swap3\n      pop\n      swap3\n      swap1\n      pop\n      jump\t// out\n        /* \"#utility.yul\":4038:4892   */\n    tag_32:\n        /* \"#utility.yul\":4128:4134   */\n      0x00\n        /* \"#utility.yul\":4136:4142   */\n      dup1\n        /* \"#utility.yul\":4144:4150   */\n      0x00\n        /* \"#utility.yul\":4193:4195   */\n      0x40\n        /* \"#utility.yul\":4181:4190   */\n      dup5\n        /* \"#utility.yul\":4172:4179   */\n      dup7\n        /* \"#utility.yul\":4168:4191   */\n      sub\n        /* \"#utility.yul\":4164:4196   */\n      slt\n        /* \"#utility.yul\":4161:4280   */\n      iszero\n      tag_371\n      jumpi\n        /* \"#utility.yul\":4199:4278   */\n      tag_372\n      tag_345\n      jump\t// in\n    tag_372:\n        /* \"#utility.yul\":4161:4280   */\n    tag_371:\n        /* \"#utility.yul\":4347:4348   */\n      0x00\n        /* \"#utility.yul\":4336:4345   */\n      dup5\n        /* \"#utility.yul\":4332:4349   */\n      add\n        /* \"#utility.yul\":4319:4350   */\n      calldataload\n        /* \"#utility.yul\":4377:4395   */\n      0xffffffffffffffff\n        /* \"#utility.yul\":4369:4375   */\n      dup2\n        /* \"#utility.yul\":4366:4396   */\n      gt\n        /* \"#utility.yul\":4363:4480   */\n      iszero\n      tag_373\n      jumpi\n        /* \"#utility.yul\":4399:4478   */\n      tag_374\n      tag_349\n      jump\t// in\n    tag_374:\n        /* \"#utility.yul\":4363:4480   */\n    tag_373:\n        /* \"#utility.yul\":4504:4567   */\n      tag_375\n        /* \"#utility.yul\":4559:4566   */\n      dup7\n        /* \"#utility.yul\":4550:4556   */\n      dup3\n        /* \"#utility.yul\":4539:4548   */\n      dup8\n        /* \"#utility.yul\":4535:4557   */\n      add\n        /* \"#utility.yul\":4504:4567   */\n      tag_333\n      jump\t// in\n    tag_375:\n        /* \"#utility.yul\":4494:4567   */\n      swap4\n      pop\n        /* \"#utility.yul\":4290:4577   */\n      pop\n        /* \"#utility.yul\":4644:4646   */\n      0x20\n        /* \"#utility.yul\":4633:4642   */\n      dup5\n        /* \"#utility.yul\":4629:4647   */\n      add\n        /* \"#utility.yul\":4616:4648   */\n      calldataload\n        /* \"#utility.yul\":4675:4693   */\n      0xffffffffffffffff\n        /* \"#utility.yul\":4667:4673   */\n      dup2\n        /* \"#utility.yul\":4664:4694   */\n      gt\n        /* \"#utility.yul\":4661:4778   */\n      iszero\n      tag_376\n      jumpi\n        /* \"#utility.yul\":4697:4776   */\n      tag_377\n      tag_349\n      jump\t// in\n    tag_377:\n        /* \"#utility.yul\":4661:4778   */\n    tag_376:\n        /* \"#utility.yul\":4810:4875   */\n      tag_378\n        /* \"#utility.yul\":4867:4874   */\n      dup7\n        /* \"#utility.yul\":4858:4864   */\n      dup3\n        /* \"#utility.yul\":4847:4856   */\n      dup8\n        /* \"#utility.yul\":4843:4865   */\n      add\n        /* \"#utility.yul\":4810:4875   */\n      tag_322\n      jump\t// in\n    tag_378:\n        /* \"#utility.yul\":4792:4875   */\n      swap3\n      pop\n      swap3\n      pop\n        /* \"#utility.yul\":4587:4885   */\n      pop\n        /* \"#utility.yul\":4038:4892   */\n      swap3\n      pop\n      swap3\n      pop\n      swap3\n      jump\t// out\n        /* \"#utility.yul\":4898:5552   */\n    tag_20:\n        /* \"#utility.yul\":4976:4982   */\n      0x00\n        /* \"#utility.yul\":4984:4990   */\n      dup1\n        /* \"#utility.yul\":5033:5035   */\n      0x40\n        /* \"#utility.yul\":5021:5030   */\n      dup4\n        /* \"#utility.yul\":5012:5019   */\n      dup6\n        /* \"#utility.yul\":5008:5031   */\n      sub\n        /* \"#utility.yul\":5004:5036   */\n      slt\n        /* \"#utility.yul\":5001:5120   */\n      iszero\n      tag_380\n      jumpi\n        /* \"#utility.yul\":5039:5118   */\n      tag_381\n      tag_345\n      jump\t// in\n    tag_381:\n        /* \"#utility.yul\":5001:5120   */\n    tag_380:\n        /* \"#utility.yul\":5187:5188   */\n      0x00\n        /* \"#utility.yul\":5176:5185   */\n      dup4\n        /* \"#utility.yul\":5172:5189   */\n      add\n        /* \"#utility.yul\":5159:5190   */\n      calldataload\n        /* \"#utility.yul\":5217:5235   */\n      0xffffffffffffffff\n        /* \"#utility.yul\":5209:5215   */\n      dup2\n        /* \"#utility.yul\":5206:5236   */\n      gt\n        /* \"#utility.yul\":5203:5320   */\n      iszero\n      tag_382\n      jumpi\n        /* \"#utility.yul\":5239:5318   */\n      tag_383\n      tag_349\n      jump\t// in\n    tag_383:\n        /* \"#utility.yul\":5203:5320   */\n    tag_382:\n        /* \"#utility.yul\":5344:5407   */\n      tag_384\n        /* \"#utility.yul\":5399:5406   */\n      dup6\n        /* \"#utility.yul\":5390:5396   */\n      dup3\n        /* \"#utility.yul\":5379:5388   */\n      dup7\n        /* \"#utility.yul\":5375:5397   */\n      add\n        /* \"#utility.yul\":5344:5407   */\n      tag_333\n      jump\t// in\n    tag_384:\n        /* \"#utility.yul\":5334:5407   */\n      swap3\n      pop\n        /* \"#utility.yul\":5130:5417   */\n      pop\n        /* \"#utility.yul\":5456:5458   */\n      0x20\n        /* \"#utility.yul\":5482:5535   */\n      tag_385\n        /* \"#utility.yul\":5527:5534   */\n      dup6\n        /* \"#utility.yul\":5518:5524   */\n      dup3\n        /* \"#utility.yul\":5507:5516   */\n      dup7\n        /* \"#utility.yul\":5503:5525   */\n      add\n        /* \"#utility.yul\":5482:5535   */\n      tag_338\n      jump\t// in\n    tag_385:\n        /* \"#utility.yul\":5472:5535   */\n      swap2\n      pop\n        /* \"#utility.yul\":5427:5545   */\n      pop\n        /* \"#utility.yul\":4898:5552   */\n      swap3\n      pop\n      swap3\n      swap1\n      pop\n      jump\t// out\n        /* \"#utility.yul\":5558:6683   */\n    tag_52:\n        /* \"#utility.yul\":5664:5670   */\n      0x00\n        /* \"#utility.yul\":5672:5678   */\n      dup1\n        /* \"#utility.yul\":5680:5686   */\n      0x00\n        /* \"#utility.yul\":5688:5694   */\n      dup1\n        /* \"#utility.yul\":5737:5740   */\n      0x80\n        /* \"#utility.yul\":5725:5734   */\n      dup6\n        /* \"#utility.yul\":5716:5723   */\n      dup8\n        /* \"#utility.yul\":5712:5735   */\n      sub\n        /* \"#utility.yul\":5708:5741   */\n      slt\n        /* \"#utility.yul\":5705:5825   */\n      iszero\n      tag_387\n      jumpi\n        /* \"#utility.yul\":5744:5823   */\n      tag_388\n      tag_345\n      jump\t// in\n    tag_388:\n        /* \"#utility.yul\":5705:5825   */\n    tag_387:\n        /* \"#utility.yul\":5892:5893   */\n      0x00\n        /* \"#utility.yul\":5881:5890   */\n      dup6\n        /* \"#utility.yul\":5877:5894   */\n      add\n        /* \"#utility.yul\":5864:5895   */\n      calldataload\n        /* \"#utility.yul\":5922:5940   */\n      0xffffffffffffffff\n        /* \"#utility.yul\":5914:5920   */\n      dup2\n        /* \"#utility.yul\":5911:5941   */\n      gt\n        /* \"#utility.yul\":5908:6025   */\n      iszero\n      tag_389\n      jumpi\n        /* \"#utility.yul\":5944:6023   */\n      tag_390\n      tag_349\n      jump\t// in\n    tag_390:\n        /* \"#utility.yul\":5908:6025   */\n    tag_389:\n        /* \"#utility.yul\":6049:6112   */\n      tag_391\n        /* \"#utility.yul\":6104:6111   */\n      dup8\n        /* \"#utility.yul\":6095:6101   */\n      dup3\n        /* \"#utility.yul\":6084:6093   */\n      dup9\n        /* \"#utility.yul\":6080:6102   */\n      add\n        /* \"#utility.yul\":6049:6112   */\n      tag_333\n      jump\t// in\n    tag_391:\n        /* \"#utility.yul\":6039:6112   */\n      swap5\n      pop\n        /* \"#utility.yul\":5835:6122   */\n      pop\n        /* \"#utility.yul\":6161:6163   */\n      0x20\n        /* \"#utility.yul\":6187:6240   */\n      tag_392\n        /* \"#utility.yul\":6232:6239   */\n      dup8\n        /* \"#utility.yul\":6223:6229   */\n      dup3\n        /* \"#utility.yul\":6212:6221   */\n      dup9\n        /* \"#utility.yul\":6208:6230   */\n      add\n        /* \"#utility.yul\":6187:6240   */\n      tag_338\n      jump\t// in\n    tag_392:\n        /* \"#utility.yul\":6177:6240   */\n      swap4\n      pop\n        /* \"#utility.yul\":6132:6250   */\n      pop\n        /* \"#utility.yul\":6289:6291   */\n      0x40\n        /* \"#utility.yul\":6315:6368   */\n      tag_393\n        /* \"#utility.yul\":6360:6367   */\n      dup8\n        /* \"#utility.yul\":6351:6357   */\n      dup3\n        /* \"#utility.yul\":6340:6349   */\n      dup9\n        /* \"#utility.yul\":6336:6358   */\n      add\n        /* \"#utility.yul\":6315:6368   */\n      tag_338\n      jump\t// in\n    tag_393:\n        /* \"#utility.yul\":6305:6368   */\n      swap3\n      pop\n        /* \"#utility.yul\":6260:6378   */\n      pop\n        /* \"#utility.yul\":6445:6447   */\n      0x60\n        /* \"#utility.yul\":6434:6443   */\n      dup6\n        /* \"#utility.yul\":6430:6448   */\n      add\n        /* \"#utility.yul\":6417:6449   */\n      calldataload\n        /* \"#utility.yul\":6476:6494   */\n      0xffffffffffffffff\n        /* \"#utility.yul\":6468:6474   */\n      dup2\n        /* \"#utility.yul\":6465:6495   */\n      gt\n        /* \"#utility.yul\":6462:6579   */\n      iszero\n      tag_394\n      jumpi\n        /* \"#utility.yul\":6498:6577   */\n      tag_395\n      tag_349\n      jump\t// in\n    tag_395:\n        /* \"#utility.yul\":6462:6579   */\n    tag_394:\n        /* \"#utility.yul\":6603:6666   */\n      tag_396\n        /* \"#utility.yul\":6658:6665   */\n      dup8\n        /* \"#utility.yul\":6649:6655   */\n      dup3\n        /* \"#utility.yul\":6638:6647   */\n      dup9\n        /* \"#utility.yul\":6634:6656   */\n      add\n        /* \"#utility.yul\":6603:6666   */\n      tag_333\n      jump\t// in\n    tag_396:\n        /* \"#utility.yul\":6593:6666   */\n      swap2\n      pop\n        /* \"#utility.yul\":6388:6676   */\n      pop\n        /* \"#utility.yul\":5558:6683   */\n      swap3\n      swap6\n      swap2\n      swap5\n      pop\n      swap3\n      pop\n      jump\t// out\n        /* \"#utility.yul\":6689:8466   */\n    tag_61:\n        /* \"#utility.yul\":6833:6839   */\n      0x00\n        /* \"#utility.yul\":6841:6847   */\n      dup1\n        /* \"#utility.yul\":6849:6855   */\n      0x00\n        /* \"#utility.yul\":6857:6863   */\n      dup1\n        /* \"#utility.yul\":6865:6871   */\n      0x00\n        /* \"#utility.yul\":6873:6879   */\n      dup1\n        /* \"#utility.yul\":6922:6925   */\n      0xc0\n        /* \"#utility.yul\":6910:6919   */\n      dup8\n        /* \"#utility.yul\":6901:6908   */\n      dup10\n        /* \"#utility.yul\":6897:6920   */\n      sub\n        /* \"#utility.yul\":6893:6926   */\n      slt\n        /* \"#utility.yul\":6890:7010   */\n      iszero\n      tag_398\n      jumpi\n        /* \"#utility.yul\":6929:7008   */\n      tag_399\n      tag_345\n      jump\t// in\n    tag_399:\n        /* \"#utility.yul\":6890:7010   */\n    tag_398:\n        /* \"#utility.yul\":7077:7078   */\n      0x00\n        /* \"#utility.yul\":7066:7075   */\n      dup8\n        /* \"#utility.yul\":7062:7079   */\n      add\n        /* \"#utility.yul\":7049:7080   */\n      calldataload\n        /* \"#utility.yul\":7107:7125   */\n      0xffffffffffffffff\n        /* \"#utility.yul\":7099:7105   */\n      dup2\n        /* \"#utility.yul\":7096:7126   */\n      gt\n        /* \"#utility.yul\":7093:7210   */\n      iszero\n      tag_400\n      jumpi\n        /* \"#utility.yul\":7129:7208   */\n      tag_401\n      tag_349\n      jump\t// in\n    tag_401:\n        /* \"#utility.yul\":7093:7210   */\n    tag_400:\n        /* \"#utility.yul\":7234:7297   */\n      tag_402\n        /* \"#utility.yul\":7289:7296   */\n      dup10\n        /* \"#utility.yul\":7280:7286   */\n      dup3\n        /* \"#utility.yul\":7269:7278   */\n      dup11\n        /* \"#utility.yul\":7265:7287   */\n      add\n        /* \"#utility.yul\":7234:7297   */\n      tag_333\n      jump\t// in\n    tag_402:\n        /* \"#utility.yul\":7224:7297   */\n      swap7\n      pop\n        /* \"#utility.yul\":7020:7307   */\n      pop\n        /* \"#utility.yul\":7346:7348   */\n      0x20\n        /* \"#utility.yul\":7372:7425   */\n      tag_403\n        /* \"#utility.yul\":7417:7424   */\n      dup10\n        /* \"#utility.yul\":7408:7414   */\n      dup3\n        /* \"#utility.yul\":7397:7406   */\n      dup11\n        /* \"#utility.yul\":7393:7415   */\n      add\n        /* \"#utility.yul\":7372:7425   */\n      tag_338\n      jump\t// in\n    tag_403:\n        /* \"#utility.yul\":7362:7425   */\n      swap6\n      pop\n        /* \"#utility.yul\":7317:7435   */\n      pop\n        /* \"#utility.yul\":7474:7476   */\n      0x40\n        /* \"#utility.yul\":7500:7553   */\n      tag_404\n        /* \"#utility.yul\":7545:7552   */\n      dup10\n        /* \"#utility.yul\":7536:7542   */\n      dup3\n        /* \"#utility.yul\":7525:7534   */\n      dup11\n        /* \"#utility.yul\":7521:7543   */\n      add\n        /* \"#utility.yul\":7500:7553   */\n      tag_338\n      jump\t// in\n    tag_404:\n        /* \"#utility.yul\":7490:7553   */\n      swap5\n      pop\n        /* \"#utility.yul\":7445:7563   */\n      pop\n        /* \"#utility.yul\":7630:7632   */\n      0x60\n        /* \"#utility.yul\":7619:7628   */\n      dup8\n        /* \"#utility.yul\":7615:7633   */\n      add\n        /* \"#utility.yul\":7602:7634   */\n      calldataload\n        /* \"#utility.yul\":7661:7679   */\n      0xffffffffffffffff\n        /* \"#utility.yul\":7653:7659   */\n      dup2\n        /* \"#utility.yul\":7650:7680   */\n      gt\n        /* \"#utility.yul\":7647:7764   */\n      iszero\n      tag_405\n      jumpi\n        /* \"#utility.yul\":7683:7762   */\n      tag_406\n      tag_349\n      jump\t// in\n    tag_406:\n        /* \"#utility.yul\":7647:7764   */\n    tag_405:\n        /* \"#utility.yul\":7788:7851   */\n      tag_407\n        /* \"#utility.yul\":7843:7850   */\n      dup10\n        /* \"#utility.yul\":7834:7840   */\n      dup3\n        /* \"#utility.yul\":7823:7832   */\n      dup11\n        /* \"#utility.yul\":7819:7841   */\n      add\n        /* \"#utility.yul\":7788:7851   */\n      tag_333\n      jump\t// in\n    tag_407:\n        /* \"#utility.yul\":7778:7851   */\n      swap4\n      pop\n        /* \"#utility.yul\":7573:7861   */\n      pop\n        /* \"#utility.yul\":7928:7931   */\n      0x80\n        /* \"#utility.yul\":7917:7926   */\n      dup8\n        /* \"#utility.yul\":7913:7932   */\n      add\n        /* \"#utility.yul\":7900:7933   */\n      calldataload\n        /* \"#utility.yul\":7960:7978   */\n      0xffffffffffffffff\n        /* \"#utility.yul\":7952:7958   */\n      dup2\n        /* \"#utility.yul\":7949:7979   */\n      gt\n        /* \"#utility.yul\":7946:8063   */\n      iszero\n      tag_408\n      jumpi\n        /* \"#utility.yul\":7982:8061   */\n      tag_409\n      tag_349\n      jump\t// in\n    tag_409:\n        /* \"#utility.yul\":7946:8063   */\n    tag_408:\n        /* \"#utility.yul\":8087:8150   */\n      tag_410\n        /* \"#utility.yul\":8142:8149   */\n      dup10\n        /* \"#utility.yul\":8133:8139   */\n      dup3\n        /* \"#utility.yul\":8122:8131   */\n      dup11\n        /* \"#utility.yul\":8118:8140   */\n      add\n        /* \"#utility.yul\":8087:8150   */\n      tag_333\n      jump\t// in\n    tag_410:\n        /* \"#utility.yul\":8077:8150   */\n      swap3\n      pop\n        /* \"#utility.yul\":7871:8160   */\n      pop\n        /* \"#utility.yul\":8227:8230   */\n      0xa0\n        /* \"#utility.yul\":8216:8225   */\n      dup8\n        /* \"#utility.yul\":8212:8231   */\n      add\n        /* \"#utility.yul\":8199:8232   */\n      calldataload\n        /* \"#utility.yul\":8259:8277   */\n      0xffffffffffffffff\n        /* \"#utility.yul\":8251:8257   */\n      dup2\n        /* \"#utility.yul\":8248:8278   */\n      gt\n        /* \"#utility.yul\":8245:8362   */\n      iszero\n      tag_411\n      jumpi\n        /* \"#utility.yul\":8281:8360   */\n      tag_412\n      tag_349\n      jump\t// in\n    tag_412:\n        /* \"#utility.yul\":8245:8362   */\n    tag_411:\n        /* \"#utility.yul\":8386:8449   */\n      tag_413\n        /* \"#utility.yul\":8441:8448   */\n      dup10\n        /* \"#utility.yul\":8432:8438   */\n      dup3\n        /* \"#utility.yul\":8421:8430   */\n      dup11\n        /* \"#utility.yul\":8417:8439   */\n      add\n        /* \"#utility.yul\":8386:8449   */\n      tag_333\n      jump\t// in\n    tag_413:\n        /* \"#utility.yul\":8376:8449   */\n      swap2\n      pop\n        /* \"#utility.yul\":8170:8459   */\n      pop\n        /* \"#utility.yul\":6689:8466   */\n      swap3\n      swap6\n      pop\n      swap3\n      swap6\n      pop\n      swap3\n      swap6\n      jump\t// out\n        /* \"#utility.yul\":8472:8731   */\n    tag_414:\n        /* \"#utility.yul\":8581:8591   */\n      0x00\n        /* \"#utility.yul\":8602:8688   */\n      tag_416\n        /* \"#utility.yul\":8684:8687   */\n      dup4\n        /* \"#utility.yul\":8676:8682   */\n      dup4\n        /* \"#utility.yul\":8602:8688   */\n      tag_417\n      jump\t// in\n    tag_416:\n        /* \"#utility.yul\":8720:8724   */\n      0x60\n        /* \"#utility.yul\":8715:8718   */\n      dup4\n        /* \"#utility.yul\":8711:8725   */\n      add\n        /* \"#utility.yul\":8697:8725   */\n      swap1\n      pop\n        /* \"#utility.yul\":8472:8731   */\n      swap3\n      swap2\n      pop\n      pop\n      jump\t// out\n        /* \"#utility.yul\":8737:8845   */\n    tag_418:\n        /* \"#utility.yul\":8814:8838   */\n      tag_420\n        /* \"#utility.yul\":8832:8837   */\n      dup2\n        /* \"#utility.yul\":8814:8838   */\n      tag_421\n      jump\t// in\n    tag_420:\n        /* \"#utility.yul\":8809:8812   */\n      dup3\n        /* \"#utility.yul\":8802:8839   */\n      mstore\n        /* \"#utility.yul\":8737:8845   */\n      pop\n      pop\n      jump\t// out\n        /* \"#utility.yul\":8851:8969   */\n    tag_422:\n        /* \"#utility.yul\":8938:8962   */\n      tag_424\n        /* \"#utility.yul\":8956:8961   */\n      dup2\n        /* \"#utility.yul\":8938:8962   */\n      tag_421\n      jump\t// in\n    tag_424:\n        /* \"#utility.yul\":8933:8936   */\n      dup3\n        /* \"#utility.yul\":8926:8963   */\n      mstore\n        /* \"#utility.yul\":8851:8969   */\n      pop\n      pop\n      jump\t// out\n        /* \"#utility.yul\":9053:9945   */\n    tag_425:\n        /* \"#utility.yul\":9212:9215   */\n      0x00\n        /* \"#utility.yul\":9241:9315   */\n      tag_427\n        /* \"#utility.yul\":9309:9314   */\n      dup3\n        /* \"#utility.yul\":9241:9315   */\n      tag_428\n      jump\t// in\n    tag_427:\n        /* \"#utility.yul\":9331:9437   */\n      tag_429\n        /* \"#utility.yul\":9430:9436   */\n      dup2\n        /* \"#utility.yul\":9425:9428   */\n      dup6\n        /* \"#utility.yul\":9331:9437   */\n      tag_430\n      jump\t// in\n    tag_429:\n        /* \"#utility.yul\":9324:9437   */\n      swap4\n      pop\n        /* \"#utility.yul\":9461:9537   */\n      tag_431\n        /* \"#utility.yul\":9531:9536   */\n      dup4\n        /* \"#utility.yul\":9461:9537   */\n      tag_432\n      jump\t// in\n    tag_431:\n        /* \"#utility.yul\":9560:9567   */\n      dup1\n        /* \"#utility.yul\":9591:9592   */\n      0x00\n        /* \"#utility.yul\":9576:9920   */\n    tag_433:\n        /* \"#utility.yul\":9601:9607   */\n      dup4\n        /* \"#utility.yul\":9598:9599   */\n      dup2\n        /* \"#utility.yul\":9595:9608   */\n      lt\n        /* \"#utility.yul\":9576:9920   */\n      iszero\n      tag_435\n      jumpi\n        /* \"#utility.yul\":9677:9683   */\n      dup2\n        /* \"#utility.yul\":9671:9684   */\n      mload\n        /* \"#utility.yul\":9704:9807   */\n      tag_436\n        /* \"#utility.yul\":9803:9806   */\n      dup9\n        /* \"#utility.yul\":9788:9801   */\n      dup3\n        /* \"#utility.yul\":9704:9807   */\n      tag_414\n      jump\t// in\n    tag_436:\n        /* \"#utility.yul\":9697:9807   */\n      swap8\n      pop\n        /* \"#utility.yul\":9830:9910   */\n      tag_437\n        /* \"#utility.yul\":9903:9909   */\n      dup4\n        /* \"#utility.yul\":9830:9910   */\n      tag_438\n      jump\t// in\n    tag_437:\n        /* \"#utility.yul\":9820:9910   */\n      swap3\n      pop\n        /* \"#utility.yul\":9636:9920   */\n      pop\n        /* \"#utility.yul\":9623:9624   */\n      0x01\n        /* \"#utility.yul\":9620:9621   */\n      dup2\n        /* \"#utility.yul\":9616:9625   */\n      add\n        /* \"#utility.yul\":9611:9625   */\n      swap1\n      pop\n        /* \"#utility.yul\":9576:9920   */\n      jump(tag_433)\n    tag_435:\n        /* \"#utility.yul\":9580:9594   */\n      pop\n        /* \"#utility.yul\":9936:9939   */\n      dup6\n        /* \"#utility.yul\":9929:9939   */\n      swap4\n      pop\n        /* \"#utility.yul\":9217:9945   */\n      pop\n      pop\n      pop\n        /* \"#utility.yul\":9053:9945   */\n      swap3\n      swap2\n      pop\n      pop\n      jump\t// out\n        /* \"#utility.yul\":9951:10050   */\n    tag_439:\n        /* \"#utility.yul\":10022:10043   */\n      tag_441\n        /* \"#utility.yul\":10037:10042   */\n      dup2\n        /* \"#utility.yul\":10022:10043   */\n      tag_442\n      jump\t// in\n    tag_441:\n        /* \"#utility.yul\":10017:10020   */\n      dup3\n        /* \"#utility.yul\":10010:10044   */\n      mstore\n        /* \"#utility.yul\":9951:10050   */\n      pop\n      pop\n      jump\t// out\n        /* \"#utility.yul\":10056:10165   */\n    tag_443:\n        /* \"#utility.yul\":10137:10158   */\n      tag_445\n        /* \"#utility.yul\":10152:10157   */\n      dup2\n        /* \"#utility.yul\":10137:10158   */\n      tag_442\n      jump\t// in\n    tag_445:\n        /* \"#utility.yul\":10132:10135   */\n      dup3\n        /* \"#utility.yul\":10125:10159   */\n      mstore\n        /* \"#utility.yul\":10056:10165   */\n      pop\n      pop\n      jump\t// out\n        /* \"#utility.yul\":10171:10279   */\n    tag_446:\n        /* \"#utility.yul\":10248:10272   */\n      tag_448\n        /* \"#utility.yul\":10266:10271   */\n      dup2\n        /* \"#utility.yul\":10248:10272   */\n      tag_449\n      jump\t// in\n    tag_448:\n        /* \"#utility.yul\":10243:10246   */\n      dup3\n        /* \"#utility.yul\":10236:10273   */\n      mstore\n        /* \"#utility.yul\":10171:10279   */\n      pop\n      pop\n      jump\t// out\n        /* \"#utility.yul\":10285:10403   */\n    tag_450:\n        /* \"#utility.yul\":10372:10396   */\n      tag_452\n        /* \"#utility.yul\":10390:10395   */\n      dup2\n        /* \"#utility.yul\":10372:10396   */\n      tag_449\n      jump\t// in\n    tag_452:\n        /* \"#utility.yul\":10367:10370   */\n      dup3\n        /* \"#utility.yul\":10360:10397   */\n      mstore\n        /* \"#utility.yul\":10285:10403   */\n      pop\n      pop\n      jump\t// out\n        /* \"#utility.yul\":10431:11280   */\n    tag_453:\n        /* \"#utility.yul\":10536:10539   */\n      0x00\n        /* \"#utility.yul\":10573:10578   */\n      dup2\n        /* \"#utility.yul\":10567:10579   */\n      sload\n        /* \"#utility.yul\":10602:10638   */\n      tag_455\n        /* \"#utility.yul\":10628:10637   */\n      dup2\n        /* \"#utility.yul\":10602:10638   */\n      tag_85\n      jump\t// in\n    tag_455:\n        /* \"#utility.yul\":10654:10742   */\n      tag_456\n        /* \"#utility.yul\":10735:10741   */\n      dup2\n        /* \"#utility.yul\":10730:10733   */\n      dup7\n        /* \"#utility.yul\":10654:10742   */\n      tag_457\n      jump\t// in\n    tag_456:\n        /* \"#utility.yul\":10647:10742   */\n      swap5\n      pop\n        /* \"#utility.yul\":10773:10774   */\n      0x01\n        /* \"#utility.yul\":10762:10771   */\n      dup3\n        /* \"#utility.yul\":10758:10775   */\n      and\n        /* \"#utility.yul\":10789:10790   */\n      0x00\n        /* \"#utility.yul\":10784:10921   */\n      dup2\n      eq\n      tag_459\n      jumpi\n        /* \"#utility.yul\":10935:10936   */\n      0x01\n        /* \"#utility.yul\":10930:11274   */\n      dup2\n      eq\n      tag_460\n      jumpi\n        /* \"#utility.yul\":10751:11274   */\n      jump(tag_458)\n        /* \"#utility.yul\":10784:10921   */\n    tag_459:\n        /* \"#utility.yul\":10868:10872   */\n      0xff\n        /* \"#utility.yul\":10864:10873   */\n      not\n        /* \"#utility.yul\":10853:10862   */\n      dup4\n        /* \"#utility.yul\":10849:10874   */\n      and\n        /* \"#utility.yul\":10844:10847   */\n      dup7\n        /* \"#utility.yul\":10837:10875   */\n      mstore\n        /* \"#utility.yul\":10904:10910   */\n      dup2\n        /* \"#utility.yul\":10899:10902   */\n      dup7\n        /* \"#utility.yul\":10895:10911   */\n      add\n        /* \"#utility.yul\":10888:10911   */\n      swap4\n      pop\n        /* \"#utility.yul\":10784:10921   */\n      jump(tag_458)\n        /* \"#utility.yul\":10930:11274   */\n    tag_460:\n        /* \"#utility.yul\":10997:11038   */\n      tag_461\n        /* \"#utility.yul\":11032:11037   */\n      dup6\n        /* \"#utility.yul\":10997:11038   */\n      tag_462\n      jump\t// in\n    tag_461:\n        /* \"#utility.yul\":11060:11061   */\n      0x00\n        /* \"#utility.yul\":11074:11228   */\n    tag_463:\n        /* \"#utility.yul\":11088:11094   */\n      dup4\n        /* \"#utility.yul\":11085:11086   */\n      dup2\n        /* \"#utility.yul\":11082:11095   */\n      lt\n        /* \"#utility.yul\":11074:11228   */\n      iszero\n      tag_465\n      jumpi\n        /* \"#utility.yul\":11162:11169   */\n      dup2\n        /* \"#utility.yul\":11156:11170   */\n      sload\n        /* \"#utility.yul\":11152:11153   */\n      dup2\n        /* \"#utility.yul\":11147:11150   */\n      dup10\n        /* \"#utility.yul\":11143:11154   */\n      add\n        /* \"#utility.yul\":11136:11171   */\n      mstore\n        /* \"#utility.yul\":11212:11213   */\n      0x01\n        /* \"#utility.yul\":11203:11210   */\n      dup3\n        /* \"#utility.yul\":11199:11214   */\n      add\n        /* \"#utility.yul\":11188:11214   */\n      swap2\n      pop\n        /* \"#utility.yul\":11110:11114   */\n      0x20\n        /* \"#utility.yul\":11107:11108   */\n      dup2\n        /* \"#utility.yul\":11103:11115   */\n      add\n        /* \"#utility.yul\":11098:11115   */\n      swap1\n      pop\n        /* \"#utility.yul\":11074:11228   */\n      jump(tag_463)\n    tag_465:\n        /* \"#utility.yul\":11257:11263   */\n      dup4\n        /* \"#utility.yul\":11252:11255   */\n      dup9\n        /* \"#utility.yul\":11248:11264   */\n      add\n        /* \"#utility.yul\":11241:11264   */\n      swap6\n      pop\n        /* \"#utility.yul\":10937:11274   */\n      pop\n      pop\n        /* \"#utility.yul\":10751:11274   */\n    tag_458:\n      pop\n        /* \"#utility.yul\":10540:11280   */\n      pop\n      pop\n        /* \"#utility.yul\":10431:11280   */\n      swap3\n      swap2\n      pop\n      pop\n      jump\t// out\n        /* \"#utility.yul\":11310:11627   */\n    tag_466:\n        /* \"#utility.yul\":11426:11429   */\n      0x00\n        /* \"#utility.yul\":11447:11536   */\n      tag_468\n        /* \"#utility.yul\":11529:11535   */\n      dup4\n        /* \"#utility.yul\":11524:11527   */\n      dup6\n        /* \"#utility.yul\":11447:11536   */\n      tag_469\n      jump\t// in\n    tag_468:\n        /* \"#utility.yul\":11440:11536   */\n      swap4\n      pop\n        /* \"#utility.yul\":11546:11589   */\n      tag_470\n        /* \"#utility.yul\":11582:11588   */\n      dup4\n        /* \"#utility.yul\":11577:11580   */\n      dup6\n        /* \"#utility.yul\":11570:11575   */\n      dup5\n        /* \"#utility.yul\":11546:11589   */\n      tag_317\n      jump\t// in\n    tag_470:\n        /* \"#utility.yul\":11614:11620   */\n      dup3\n        /* \"#utility.yul\":11609:11612   */\n      dup5\n        /* \"#utility.yul\":11605:11621   */\n      add\n        /* \"#utility.yul\":11598:11621   */\n      swap1\n      pop\n        /* \"#utility.yul\":11310:11627   */\n      swap4\n      swap3\n      pop\n      pop\n      pop\n      jump\t// out\n        /* \"#utility.yul\":11633:11977   */\n    tag_471:\n        /* \"#utility.yul\":11711:11714   */\n      0x00\n        /* \"#utility.yul\":11739:11778   */\n      tag_473\n        /* \"#utility.yul\":11772:11777   */\n      dup3\n        /* \"#utility.yul\":11739:11778   */\n      tag_474\n      jump\t// in\n    tag_473:\n        /* \"#utility.yul\":11794:11855   */\n      tag_475\n        /* \"#utility.yul\":11848:11854   */\n      dup2\n        /* \"#utility.yul\":11843:11846   */\n      dup6\n        /* \"#utility.yul\":11794:11855   */\n      tag_476\n      jump\t// in\n    tag_475:\n        /* \"#utility.yul\":11787:11855   */\n      swap4\n      pop\n        /* \"#utility.yul\":11864:11916   */\n      tag_477\n        /* \"#utility.yul\":11909:11915   */\n      dup2\n        /* \"#utility.yul\":11904:11907   */\n      dup6\n        /* \"#utility.yul\":11897:11901   */\n      0x20\n        /* \"#utility.yul\":11890:11895   */\n      dup7\n        /* \"#utility.yul\":11886:11902   */\n      add\n        /* \"#utility.yul\":11864:11916   */\n      tag_478\n      jump\t// in\n    tag_477:\n        /* \"#utility.yul\":11941:11970   */\n      tag_479\n        /* \"#utility.yul\":11963:11969   */\n      dup2\n        /* \"#utility.yul\":11941:11970   */\n      tag_480\n      jump\t// in\n    tag_479:\n        /* \"#utility.yul\":11936:11939   */\n      dup5\n        /* \"#utility.yul\":11932:11971   */\n      add\n        /* \"#utility.yul\":11925:11971   */\n      swap2\n      pop\n        /* \"#utility.yul\":11715:11977   */\n      pop\n        /* \"#utility.yul\":11633:11977   */\n      swap3\n      swap2\n      pop\n      pop\n      jump\t// out\n        /* \"#utility.yul\":11983:12347   */\n    tag_481:\n        /* \"#utility.yul\":12071:12074   */\n      0x00\n        /* \"#utility.yul\":12099:12138   */\n      tag_483\n        /* \"#utility.yul\":12132:12137   */\n      dup3\n        /* \"#utility.yul\":12099:12138   */\n      tag_474\n      jump\t// in\n    tag_483:\n        /* \"#utility.yul\":12154:12225   */\n      tag_484\n        /* \"#utility.yul\":12218:12224   */\n      dup2\n        /* \"#utility.yul\":12213:12216   */\n      dup6\n        /* \"#utility.yul\":12154:12225   */\n      tag_485\n      jump\t// in\n    tag_484:\n        /* \"#utility.yul\":12147:12225   */\n      swap4\n      pop\n        /* \"#utility.yul\":12234:12286   */\n      tag_486\n        /* \"#utility.yul\":12279:12285   */\n      dup2\n        /* \"#utility.yul\":12274:12277   */\n      dup6\n        /* \"#utility.yul\":12267:12271   */\n      0x20\n        /* \"#utility.yul\":12260:12265   */\n      dup7\n        /* \"#utility.yul\":12256:12272   */\n      add\n        /* \"#utility.yul\":12234:12286   */\n      tag_478\n      jump\t// in\n    tag_486:\n        /* \"#utility.yul\":12311:12340   */\n      tag_487\n        /* \"#utility.yul\":12333:12339   */\n      dup2\n        /* \"#utility.yul\":12311:12340   */\n      tag_480\n      jump\t// in\n    tag_487:\n        /* \"#utility.yul\":12306:12309   */\n      dup5\n        /* \"#utility.yul\":12302:12341   */\n      add\n        /* \"#utility.yul\":12295:12341   */\n      swap2\n      pop\n        /* \"#utility.yul\":12075:12347   */\n      pop\n        /* \"#utility.yul\":11983:12347   */\n      swap3\n      swap2\n      pop\n      pop\n      jump\t// out\n        /* \"#utility.yul\":12353:12730   */\n    tag_488:\n        /* \"#utility.yul\":12459:12462   */\n      0x00\n        /* \"#utility.yul\":12487:12526   */\n      tag_490\n        /* \"#utility.yul\":12520:12525   */\n      dup3\n        /* \"#utility.yul\":12487:12526   */\n      tag_474\n      jump\t// in\n    tag_490:\n        /* \"#utility.yul\":12542:12631   */\n      tag_491\n        /* \"#utility.yul\":12624:12630   */\n      dup2\n        /* \"#utility.yul\":12619:12622   */\n      dup6\n        /* \"#utility.yul\":12542:12631   */\n      tag_469\n      jump\t// in\n    tag_491:\n        /* \"#utility.yul\":12535:12631   */\n      swap4\n      pop\n        /* \"#utility.yul\":12640:12692   */\n      tag_492\n        /* \"#utility.yul\":12685:12691   */\n      dup2\n        /* \"#utility.yul\":12680:12683   */\n      dup6\n        /* \"#utility.yul\":12673:12677   */\n      0x20\n        /* \"#utility.yul\":12666:12671   */\n      dup7\n        /* \"#utility.yul\":12662:12678   */\n      add\n        /* \"#utility.yul\":12640:12692   */\n      tag_478\n      jump\t// in\n    tag_492:\n        /* \"#utility.yul\":12717:12723   */\n      dup1\n        /* \"#utility.yul\":12712:12715   */\n      dup5\n        /* \"#utility.yul\":12708:12724   */\n      add\n        /* \"#utility.yul\":12701:12724   */\n      swap2\n      pop\n        /* \"#utility.yul\":12463:12730   */\n      pop\n        /* \"#utility.yul\":12353:12730   */\n      swap3\n      swap2\n      pop\n      pop\n      jump\t// out\n        /* \"#utility.yul\":12736:13102   */\n    tag_493:\n        /* \"#utility.yul\":12878:12881   */\n      0x00\n        /* \"#utility.yul\":12899:12966   */\n      tag_495\n        /* \"#utility.yul\":12963:12965   */\n      0x1f\n        /* \"#utility.yul\":12958:12961   */\n      dup4\n        /* \"#utility.yul\":12899:12966   */\n      tag_485\n      jump\t// in\n    tag_495:\n        /* \"#utility.yul\":12892:12966   */\n      swap2\n      pop\n        /* \"#utility.yul\":12975:13068   */\n      tag_496\n        /* \"#utility.yul\":13064:13067   */\n      dup3\n        /* \"#utility.yul\":12975:13068   */\n      tag_497\n      jump\t// in\n    tag_496:\n        /* \"#utility.yul\":13093:13095   */\n      0x20\n        /* \"#utility.yul\":13088:13091   */\n      dup3\n        /* \"#utility.yul\":13084:13096   */\n      add\n        /* \"#utility.yul\":13077:13096   */\n      swap1\n      pop\n        /* \"#utility.yul\":12736:13102   */\n      swap2\n      swap1\n      pop\n      jump\t// out\n        /* \"#utility.yul\":13108:13474   */\n    tag_498:\n        /* \"#utility.yul\":13250:13253   */\n      0x00\n        /* \"#utility.yul\":13271:13338   */\n      tag_500\n        /* \"#utility.yul\":13335:13337   */\n      0x19\n        /* \"#utility.yul\":13330:13333   */\n      dup4\n        /* \"#utility.yul\":13271:13338   */\n      tag_485\n      jump\t// in\n    tag_500:\n        /* \"#utility.yul\":13264:13338   */\n      swap2\n      pop\n        /* \"#utility.yul\":13347:13440   */\n      tag_501\n        /* \"#utility.yul\":13436:13439   */\n      dup3\n        /* \"#utility.yul\":13347:13440   */\n      tag_502\n      jump\t// in\n    tag_501:\n        /* \"#utility.yul\":13465:13467   */\n      0x20\n        /* \"#utility.yul\":13460:13463   */\n      dup3\n        /* \"#utility.yul\":13456:13468   */\n      add\n        /* \"#utility.yul\":13449:13468   */\n      swap1\n      pop\n        /* \"#utility.yul\":13108:13474   */\n      swap2\n      swap1\n      pop\n      jump\t// out\n        /* \"#utility.yul\":13480:13846   */\n    tag_503:\n        /* \"#utility.yul\":13622:13625   */\n      0x00\n        /* \"#utility.yul\":13643:13710   */\n      tag_505\n        /* \"#utility.yul\":13707:13709   */\n      0x26\n        /* \"#utility.yul\":13702:13705   */\n      dup4\n        /* \"#utility.yul\":13643:13710   */\n      tag_485\n      jump\t// in\n    tag_505:\n        /* \"#utility.yul\":13636:13710   */\n      swap2\n      pop\n        /* \"#utility.yul\":13719:13812   */\n      tag_506\n        /* \"#utility.yul\":13808:13811   */\n      dup3\n        /* \"#utility.yul\":13719:13812   */\n      tag_507\n      jump\t// in\n    tag_506:\n        /* \"#utility.yul\":13837:13839   */\n      0x40\n        /* \"#utility.yul\":13832:13835   */\n      dup3\n        /* \"#utility.yul\":13828:13840   */\n      add\n        /* \"#utility.yul\":13821:13840   */\n      swap1\n      pop\n        /* \"#utility.yul\":13480:13846   */\n      swap2\n      swap1\n      pop\n      jump\t// out\n        /* \"#utility.yul\":13852:14218   */\n    tag_508:\n        /* \"#utility.yul\":13994:13997   */\n      0x00\n        /* \"#utility.yul\":14015:14082   */\n      tag_510\n        /* \"#utility.yul\":14079:14081   */\n      0x1c\n        /* \"#utility.yul\":14074:14077   */\n      dup4\n        /* \"#utility.yul\":14015:14082   */\n      tag_485\n      jump\t// in\n    tag_510:\n        /* \"#utility.yul\":14008:14082   */\n      swap2\n      pop\n        /* \"#utility.yul\":14091:14184   */\n      tag_511\n        /* \"#utility.yul\":14180:14183   */\n      dup3\n        /* \"#utility.yul\":14091:14184   */\n      tag_512\n      jump\t// in\n    tag_511:\n        /* \"#utility.yul\":14209:14211   */\n      0x20\n        /* \"#utility.yul\":14204:14207   */\n      dup3\n        /* \"#utility.yul\":14200:14212   */\n      add\n        /* \"#utility.yul\":14193:14212   */\n      swap1\n      pop\n        /* \"#utility.yul\":13852:14218   */\n      swap2\n      swap1\n      pop\n      jump\t// out\n        /* \"#utility.yul\":14224:14590   */\n    tag_513:\n        /* \"#utility.yul\":14366:14369   */\n      0x00\n        /* \"#utility.yul\":14387:14454   */\n      tag_515\n        /* \"#utility.yul\":14451:14453   */\n      0x15\n        /* \"#utility.yul\":14446:14449   */\n      dup4\n        /* \"#utility.yul\":14387:14454   */\n      tag_485\n      jump\t// in\n    tag_515:\n        /* \"#utility.yul\":14380:14454   */\n      swap2\n      pop\n        /* \"#utility.yul\":14463:14556   */\n      tag_516\n        /* \"#utility.yul\":14552:14555   */\n      dup3\n        /* \"#utility.yul\":14463:14556   */\n      tag_517\n      jump\t// in\n    tag_516:\n        /* \"#utility.yul\":14581:14583   */\n      0x20\n        /* \"#utility.yul\":14576:14579   */\n      dup3\n        /* \"#utility.yul\":14572:14584   */\n      add\n        /* \"#utility.yul\":14565:14584   */\n      swap1\n      pop\n        /* \"#utility.yul\":14224:14590   */\n      swap2\n      swap1\n      pop\n      jump\t// out\n        /* \"#utility.yul\":14596:14962   */\n    tag_518:\n        /* \"#utility.yul\":14738:14741   */\n      0x00\n        /* \"#utility.yul\":14759:14826   */\n      tag_520\n        /* \"#utility.yul\":14823:14825   */\n      0x1e\n        /* \"#utility.yul\":14818:14821   */\n      dup4\n        /* \"#utility.yul\":14759:14826   */\n      tag_485\n      jump\t// in\n    tag_520:\n        /* \"#utility.yul\":14752:14826   */\n      swap2\n      pop\n        /* \"#utility.yul\":14835:14928   */\n      tag_521\n        /* \"#utility.yul\":14924:14927   */\n      dup3\n        /* \"#utility.yul\":14835:14928   */\n      tag_522\n      jump\t// in\n    tag_521:\n        /* \"#utility.yul\":14953:14955   */\n      0x20\n        /* \"#utility.yul\":14948:14951   */\n      dup3\n        /* \"#utility.yul\":14944:14956   */\n      add\n        /* \"#utility.yul\":14937:14956   */\n      swap1\n      pop\n        /* \"#utility.yul\":14596:14962   */\n      swap2\n      swap1\n      pop\n      jump\t// out\n        /* \"#utility.yul\":14968:15334   */\n    tag_523:\n        /* \"#utility.yul\":15110:15113   */\n      0x00\n        /* \"#utility.yul\":15131:15198   */\n      tag_525\n        /* \"#utility.yul\":15195:15197   */\n      0x24\n        /* \"#utility.yul\":15190:15193   */\n      dup4\n        /* \"#utility.yul\":15131:15198   */\n      tag_485\n      jump\t// in\n    tag_525:\n        /* \"#utility.yul\":15124:15198   */\n      swap2\n      pop\n        /* \"#utility.yul\":15207:15300   */\n      tag_526\n        /* \"#utility.yul\":15296:15299   */\n      dup3\n        /* \"#utility.yul\":15207:15300   */\n      tag_527\n      jump\t// in\n    tag_526:\n        /* \"#utility.yul\":15325:15327   */\n      0x40\n        /* \"#utility.yul\":15320:15323   */\n      dup3\n        /* \"#utility.yul\":15316:15328   */\n      add\n        /* \"#utility.yul\":15309:15328   */\n      swap1\n      pop\n        /* \"#utility.yul\":14968:15334   */\n      swap2\n      swap1\n      pop\n      jump\t// out\n        /* \"#utility.yul\":15340:15706   */\n    tag_528:\n        /* \"#utility.yul\":15482:15485   */\n      0x00\n        /* \"#utility.yul\":15503:15570   */\n      tag_530\n        /* \"#utility.yul\":15567:15569   */\n      0x28\n        /* \"#utility.yul\":15562:15565   */\n      dup4\n        /* \"#utility.yul\":15503:15570   */\n      tag_485\n      jump\t// in\n    tag_530:\n        /* \"#utility.yul\":15496:15570   */\n      swap2\n      pop\n        /* \"#utility.yul\":15579:15672   */\n      tag_531\n        /* \"#utility.yul\":15668:15671   */\n      dup3\n        /* \"#utility.yul\":15579:15672   */\n      tag_532\n      jump\t// in\n    tag_531:\n        /* \"#utility.yul\":15697:15699   */\n      0x40\n        /* \"#utility.yul\":15692:15695   */\n      dup3\n        /* \"#utility.yul\":15688:15700   */\n      add\n        /* \"#utility.yul\":15681:15700   */\n      swap1\n      pop\n        /* \"#utility.yul\":15340:15706   */\n      swap2\n      swap1\n      pop\n      jump\t// out\n        /* \"#utility.yul\":15712:16078   */\n    tag_533:\n        /* \"#utility.yul\":15854:15857   */\n      0x00\n        /* \"#utility.yul\":15875:15942   */\n      tag_535\n        /* \"#utility.yul\":15939:15941   */\n      0x14\n        /* \"#utility.yul\":15934:15937   */\n      dup4\n        /* \"#utility.yul\":15875:15942   */\n      tag_485\n      jump\t// in\n    tag_535:\n        /* \"#utility.yul\":15868:15942   */\n      swap2\n      pop\n        /* \"#utility.yul\":15951:16044   */\n      tag_536\n        /* \"#utility.yul\":16040:16043   */\n      dup3\n        /* \"#utility.yul\":15951:16044   */\n      tag_537\n      jump\t// in\n    tag_536:\n        /* \"#utility.yul\":16069:16071   */\n      0x20\n        /* \"#utility.yul\":16064:16067   */\n      dup3\n        /* \"#utility.yul\":16060:16072   */\n      add\n        /* \"#utility.yul\":16053:16072   */\n      swap1\n      pop\n        /* \"#utility.yul\":15712:16078   */\n      swap2\n      swap1\n      pop\n      jump\t// out\n        /* \"#utility.yul\":16084:16450   */\n    tag_538:\n        /* \"#utility.yul\":16226:16229   */\n      0x00\n        /* \"#utility.yul\":16247:16314   */\n      tag_540\n        /* \"#utility.yul\":16311:16313   */\n      0x20\n        /* \"#utility.yul\":16306:16309   */\n      dup4\n        /* \"#utility.yul\":16247:16314   */\n      tag_485\n      jump\t// in\n    tag_540:\n        /* \"#utility.yul\":16240:16314   */\n      swap2\n      pop\n        /* \"#utility.yul\":16323:16416   */\n      tag_541\n        /* \"#utility.yul\":16412:16415   */\n      dup3\n        /* \"#utility.yul\":16323:16416   */\n      tag_542\n      jump\t// in\n    tag_541:\n        /* \"#utility.yul\":16441:16443   */\n      0x20\n        /* \"#utility.yul\":16436:16439   */\n      dup3\n        /* \"#utility.yul\":16432:16444   */\n      add\n        /* \"#utility.yul\":16425:16444   */\n      swap1\n      pop\n        /* \"#utility.yul\":16084:16450   */\n      swap2\n      swap1\n      pop\n      jump\t// out\n        /* \"#utility.yul\":16456:16822   */\n    tag_543:\n        /* \"#utility.yul\":16598:16601   */\n      0x00\n        /* \"#utility.yul\":16619:16686   */\n      tag_545\n        /* \"#utility.yul\":16683:16685   */\n      0x12\n        /* \"#utility.yul\":16678:16681   */\n      dup4\n        /* \"#utility.yul\":16619:16686   */\n      tag_485\n      jump\t// in\n    tag_545:\n        /* \"#utility.yul\":16612:16686   */\n      swap2\n      pop\n        /* \"#utility.yul\":16695:16788   */\n      tag_546\n        /* \"#utility.yul\":16784:16787   */\n      dup3\n        /* \"#utility.yul\":16695:16788   */\n      tag_547\n      jump\t// in\n    tag_546:\n        /* \"#utility.yul\":16813:16815   */\n      0x20\n        /* \"#utility.yul\":16808:16811   */\n      dup3\n        /* \"#utility.yul\":16804:16816   */\n      add\n        /* \"#utility.yul\":16797:16816   */\n      swap1\n      pop\n        /* \"#utility.yul\":16456:16822   */\n      swap2\n      swap1\n      pop\n      jump\t// out\n        /* \"#utility.yul\":16828:17194   */\n    tag_548:\n        /* \"#utility.yul\":16970:16973   */\n      0x00\n        /* \"#utility.yul\":16991:17058   */\n      tag_550\n        /* \"#utility.yul\":17055:17057   */\n      0x25\n        /* \"#utility.yul\":17050:17053   */\n      dup4\n        /* \"#utility.yul\":16991:17058   */\n      tag_485\n      jump\t// in\n    tag_550:\n        /* \"#utility.yul\":16984:17058   */\n      swap2\n      pop\n        /* \"#utility.yul\":17067:17160   */\n      tag_551\n        /* \"#utility.yul\":17156:17159   */\n      dup3\n        /* \"#utility.yul\":17067:17160   */\n      tag_552\n      jump\t// in\n    tag_551:\n        /* \"#utility.yul\":17185:17187   */\n      0x40\n        /* \"#utility.yul\":17180:17183   */\n      dup3\n        /* \"#utility.yul\":17176:17188   */\n      add\n        /* \"#utility.yul\":17169:17188   */\n      swap1\n      pop\n        /* \"#utility.yul\":16828:17194   */\n      swap2\n      swap1\n      pop\n      jump\t// out\n        /* \"#utility.yul\":17280:19932   */\n    tag_553:\n        /* \"#utility.yul\":17397:17400   */\n      0x00\n        /* \"#utility.yul\":17433:17439   */\n      0x0180\n        /* \"#utility.yul\":17428:17431   */\n      dup4\n        /* \"#utility.yul\":17424:17440   */\n      add\n        /* \"#utility.yul\":17527:17531   */\n      0x00\n        /* \"#utility.yul\":17520:17525   */\n      dup4\n        /* \"#utility.yul\":17516:17532   */\n      add\n        /* \"#utility.yul\":17510:17533   */\n      mload\n        /* \"#utility.yul\":17580:17583   */\n      dup5\n        /* \"#utility.yul\":17574:17578   */\n      dup3\n        /* \"#utility.yul\":17570:17584   */\n      sub\n        /* \"#utility.yul\":17563:17567   */\n      0x00\n        /* \"#utility.yul\":17558:17561   */\n      dup7\n        /* \"#utility.yul\":17554:17568   */\n      add\n        /* \"#utility.yul\":17547:17585   */\n      mstore\n        /* \"#utility.yul\":17606:17679   */\n      tag_555\n        /* \"#utility.yul\":17674:17678   */\n      dup3\n        /* \"#utility.yul\":17660:17672   */\n      dup3\n        /* \"#utility.yul\":17606:17679   */\n      tag_471\n      jump\t// in\n    tag_555:\n        /* \"#utility.yul\":17598:17679   */\n      swap2\n      pop\n        /* \"#utility.yul\":17450:17690   */\n      pop\n        /* \"#utility.yul\":17777:17781   */\n      0x20\n        /* \"#utility.yul\":17770:17775   */\n      dup4\n        /* \"#utility.yul\":17766:17782   */\n      add\n        /* \"#utility.yul\":17760:17783   */\n      mload\n        /* \"#utility.yul\":17796:17859   */\n      tag_556\n        /* \"#utility.yul\":17853:17857   */\n      0x20\n        /* \"#utility.yul\":17848:17851   */\n      dup7\n        /* \"#utility.yul\":17844:17858   */\n      add\n        /* \"#utility.yul\":17830:17842   */\n      dup3\n        /* \"#utility.yul\":17796:17859   */\n      tag_418\n      jump\t// in\n    tag_556:\n        /* \"#utility.yul\":17700:17869   */\n      pop\n        /* \"#utility.yul\":17962:17966   */\n      0x40\n        /* \"#utility.yul\":17955:17960   */\n      dup4\n        /* \"#utility.yul\":17951:17967   */\n      add\n        /* \"#utility.yul\":17945:17968   */\n      mload\n        /* \"#utility.yul\":17981:18044   */\n      tag_557\n        /* \"#utility.yul\":18038:18042   */\n      0x40\n        /* \"#utility.yul\":18033:18036   */\n      dup7\n        /* \"#utility.yul\":18029:18043   */\n      add\n        /* \"#utility.yul\":18015:18027   */\n      dup3\n        /* \"#utility.yul\":17981:18044   */\n      tag_418\n      jump\t// in\n    tag_557:\n        /* \"#utility.yul\":17879:18054   */\n      pop\n        /* \"#utility.yul\":18141:18145   */\n      0x60\n        /* \"#utility.yul\":18134:18139   */\n      dup4\n        /* \"#utility.yul\":18130:18146   */\n      add\n        /* \"#utility.yul\":18124:18147   */\n      mload\n        /* \"#utility.yul\":18160:18223   */\n      tag_558\n        /* \"#utility.yul\":18217:18221   */\n      0x60\n        /* \"#utility.yul\":18212:18215   */\n      dup7\n        /* \"#utility.yul\":18208:18222   */\n      add\n        /* \"#utility.yul\":18194:18206   */\n      dup3\n        /* \"#utility.yul\":18160:18223   */\n      tag_559\n      jump\t// in\n    tag_558:\n        /* \"#utility.yul\":18064:18233   */\n      pop\n        /* \"#utility.yul\":18321:18325   */\n      0x80\n        /* \"#utility.yul\":18314:18319   */\n      dup4\n        /* \"#utility.yul\":18310:18326   */\n      add\n        /* \"#utility.yul\":18304:18327   */\n      mload\n        /* \"#utility.yul\":18340:18403   */\n      tag_560\n        /* \"#utility.yul\":18397:18401   */\n      0x80\n        /* \"#utility.yul\":18392:18395   */\n      dup7\n        /* \"#utility.yul\":18388:18402   */\n      add\n        /* \"#utility.yul\":18374:18386   */\n      dup3\n        /* \"#utility.yul\":18340:18403   */\n      tag_559\n      jump\t// in\n    tag_560:\n        /* \"#utility.yul\":18243:18413   */\n      pop\n        /* \"#utility.yul\":18510:18514   */\n      0xa0\n        /* \"#utility.yul\":18503:18508   */\n      dup4\n        /* \"#utility.yul\":18499:18515   */\n      add\n        /* \"#utility.yul\":18493:18516   */\n      mload\n        /* \"#utility.yul\":18529:18592   */\n      tag_561\n        /* \"#utility.yul\":18586:18590   */\n      0xa0\n        /* \"#utility.yul\":18581:18584   */\n      dup7\n        /* \"#utility.yul\":18577:18591   */\n      add\n        /* \"#utility.yul\":18563:18575   */\n      dup3\n        /* \"#utility.yul\":18529:18592   */\n      tag_559\n      jump\t// in\n    tag_561:\n        /* \"#utility.yul\":18423:18602   */\n      pop\n        /* \"#utility.yul\":18692:18696   */\n      0xc0\n        /* \"#utility.yul\":18685:18690   */\n      dup4\n        /* \"#utility.yul\":18681:18697   */\n      add\n        /* \"#utility.yul\":18675:18698   */\n      mload\n        /* \"#utility.yul\":18711:18774   */\n      tag_562\n        /* \"#utility.yul\":18768:18772   */\n      0xc0\n        /* \"#utility.yul\":18763:18766   */\n      dup7\n        /* \"#utility.yul\":18759:18773   */\n      add\n        /* \"#utility.yul\":18745:18757   */\n      dup3\n        /* \"#utility.yul\":18711:18774   */\n      tag_559\n      jump\t// in\n    tag_562:\n        /* \"#utility.yul\":18612:18784   */\n      pop\n        /* \"#utility.yul\":18872:18876   */\n      0xe0\n        /* \"#utility.yul\":18865:18870   */\n      dup4\n        /* \"#utility.yul\":18861:18877   */\n      add\n        /* \"#utility.yul\":18855:18878   */\n      mload\n        /* \"#utility.yul\":18891:18948   */\n      tag_563\n        /* \"#utility.yul\":18942:18946   */\n      0xe0\n        /* \"#utility.yul\":18937:18940   */\n      dup7\n        /* \"#utility.yul\":18933:18947   */\n      add\n        /* \"#utility.yul\":18919:18931   */\n      dup3\n        /* \"#utility.yul\":18891:18948   */\n      tag_439\n      jump\t// in\n    tag_563:\n        /* \"#utility.yul\":18794:18958   */\n      pop\n        /* \"#utility.yul\":19048:19054   */\n      0x0100\n        /* \"#utility.yul\":19041:19046   */\n      dup4\n        /* \"#utility.yul\":19037:19055   */\n      add\n        /* \"#utility.yul\":19031:19056   */\n      mload\n        /* \"#utility.yul\":19069:19134   */\n      tag_564\n        /* \"#utility.yul\":19126:19132   */\n      0x0100\n        /* \"#utility.yul\":19121:19124   */\n      dup7\n        /* \"#utility.yul\":19117:19133   */\n      add\n        /* \"#utility.yul\":19103:19115   */\n      dup3\n        /* \"#utility.yul\":19069:19134   */\n      tag_446\n      jump\t// in\n    tag_564:\n        /* \"#utility.yul\":18968:19144   */\n      pop\n        /* \"#utility.yul\":19233:19239   */\n      0x0120\n        /* \"#utility.yul\":19226:19231   */\n      dup4\n        /* \"#utility.yul\":19222:19240   */\n      add\n        /* \"#utility.yul\":19216:19241   */\n      mload\n        /* \"#utility.yul\":19290:19293   */\n      dup5\n        /* \"#utility.yul\":19284:19288   */\n      dup3\n        /* \"#utility.yul\":19280:19294   */\n      sub\n        /* \"#utility.yul\":19271:19277   */\n      0x0120\n        /* \"#utility.yul\":19266:19269   */\n      dup7\n        /* \"#utility.yul\":19262:19278   */\n      add\n        /* \"#utility.yul\":19255:19295   */\n      mstore\n        /* \"#utility.yul\":19316:19389   */\n      tag_565\n        /* \"#utility.yul\":19384:19388   */\n      dup3\n        /* \"#utility.yul\":19370:19382   */\n      dup3\n        /* \"#utility.yul\":19316:19389   */\n      tag_471\n      jump\t// in\n    tag_565:\n        /* \"#utility.yul\":19308:19389   */\n      swap2\n      pop\n        /* \"#utility.yul\":19154:19400   */\n      pop\n        /* \"#utility.yul\":19485:19491   */\n      0x0140\n        /* \"#utility.yul\":19478:19483   */\n      dup4\n        /* \"#utility.yul\":19474:19492   */\n      add\n        /* \"#utility.yul\":19468:19493   */\n      mload\n        /* \"#utility.yul\":19542:19545   */\n      dup5\n        /* \"#utility.yul\":19536:19540   */\n      dup3\n        /* \"#utility.yul\":19532:19546   */\n      sub\n        /* \"#utility.yul\":19523:19529   */\n      0x0140\n        /* \"#utility.yul\":19518:19521   */\n      dup7\n        /* \"#utility.yul\":19514:19530   */\n      add\n        /* \"#utility.yul\":19507:19547   */\n      mstore\n        /* \"#utility.yul\":19568:19641   */\n      tag_566\n        /* \"#utility.yul\":19636:19640   */\n      dup3\n        /* \"#utility.yul\":19622:19634   */\n      dup3\n        /* \"#utility.yul\":19568:19641   */\n      tag_471\n      jump\t// in\n    tag_566:\n        /* \"#utility.yul\":19560:19641   */\n      swap2\n      pop\n        /* \"#utility.yul\":19410:19652   */\n      pop\n        /* \"#utility.yul\":19738:19744   */\n      0x0160\n        /* \"#utility.yul\":19731:19736   */\n      dup4\n        /* \"#utility.yul\":19727:19745   */\n      add\n        /* \"#utility.yul\":19721:19746   */\n      mload\n        /* \"#utility.yul\":19795:19798   */\n      dup5\n        /* \"#utility.yul\":19789:19793   */\n      dup3\n        /* \"#utility.yul\":19785:19799   */\n      sub\n        /* \"#utility.yul\":19776:19782   */\n      0x0160\n        /* \"#utility.yul\":19771:19774   */\n      dup7\n        /* \"#utility.yul\":19767:19783   */\n      add\n        /* \"#utility.yul\":19760:19800   */\n      mstore\n        /* \"#utility.yul\":19821:19894   */\n      tag_567\n        /* \"#utility.yul\":19889:19893   */\n      dup3\n        /* \"#utility.yul\":19875:19887   */\n      dup3\n        /* \"#utility.yul\":19821:19894   */\n      tag_471\n      jump\t// in\n    tag_567:\n        /* \"#utility.yul\":19813:19894   */\n      swap2\n      pop\n        /* \"#utility.yul\":19662:19905   */\n      pop\n        /* \"#utility.yul\":19922:19926   */\n      dup1\n        /* \"#utility.yul\":19915:19926   */\n      swap2\n      pop\n        /* \"#utility.yul\":17402:19932   */\n      pop\n        /* \"#utility.yul\":17280:19932   */\n      swap3\n      swap2\n      pop\n      pop\n      jump\t// out\n        /* \"#utility.yul\":20012:20667   */\n    tag_417:\n        /* \"#utility.yul\":20139:20143   */\n      0x60\n        /* \"#utility.yul\":20134:20137   */\n      dup3\n        /* \"#utility.yul\":20130:20144   */\n      add\n        /* \"#utility.yul\":20227:20231   */\n      0x00\n        /* \"#utility.yul\":20220:20225   */\n      dup3\n        /* \"#utility.yul\":20216:20232   */\n      add\n        /* \"#utility.yul\":20210:20233   */\n      mload\n        /* \"#utility.yul\":20246:20303   */\n      tag_569\n        /* \"#utility.yul\":20297:20301   */\n      0x00\n        /* \"#utility.yul\":20292:20295   */\n      dup6\n        /* \"#utility.yul\":20288:20302   */\n      add\n        /* \"#utility.yul\":20274:20286   */\n      dup3\n        /* \"#utility.yul\":20246:20303   */\n      tag_439\n      jump\t// in\n    tag_569:\n        /* \"#utility.yul\":20154:20313   */\n      pop\n        /* \"#utility.yul\":20395:20399   */\n      0x20\n        /* \"#utility.yul\":20388:20393   */\n      dup3\n        /* \"#utility.yul\":20384:20400   */\n      add\n        /* \"#utility.yul\":20378:20401   */\n      mload\n        /* \"#utility.yul\":20414:20471   */\n      tag_570\n        /* \"#utility.yul\":20465:20469   */\n      0x20\n        /* \"#utility.yul\":20460:20463   */\n      dup6\n        /* \"#utility.yul\":20456:20470   */\n      add\n        /* \"#utility.yul\":20442:20454   */\n      dup3\n        /* \"#utility.yul\":20414:20471   */\n      tag_439\n      jump\t// in\n    tag_570:\n        /* \"#utility.yul\":20323:20481   */\n      pop\n        /* \"#utility.yul\":20568:20572   */\n      0x40\n        /* \"#utility.yul\":20561:20566   */\n      dup3\n        /* \"#utility.yul\":20557:20573   */\n      add\n        /* \"#utility.yul\":20551:20574   */\n      mload\n        /* \"#utility.yul\":20587:20650   */\n      tag_571\n        /* \"#utility.yul\":20644:20648   */\n      0x40\n        /* \"#utility.yul\":20639:20642   */\n      dup6\n        /* \"#utility.yul\":20635:20649   */\n      add\n        /* \"#utility.yul\":20621:20633   */\n      dup3\n        /* \"#utility.yul\":20587:20650   */\n      tag_418\n      jump\t// in\n    tag_571:\n        /* \"#utility.yul\":20491:20660   */\n      pop\n        /* \"#utility.yul\":20108:20667   */\n      pop\n        /* \"#utility.yul\":20012:20667   */\n      pop\n      pop\n      jump\t// out\n        /* \"#utility.yul\":20673:20781   */\n    tag_559:\n        /* \"#utility.yul\":20750:20774   */\n      tag_573\n        /* \"#utility.yul\":20768:20773   */\n      dup2\n        /* \"#utility.yul\":20750:20774   */\n      tag_574\n      jump\t// in\n    tag_573:\n        /* \"#utility.yul\":20745:20748   */\n      dup3\n        /* \"#utility.yul\":20738:20775   */\n      mstore\n        /* \"#utility.yul\":20673:20781   */\n      pop\n      pop\n      jump\t// out\n        /* \"#utility.yul\":20787:20905   */\n    tag_575:\n        /* \"#utility.yul\":20874:20898   */\n      tag_577\n        /* \"#utility.yul\":20892:20897   */\n      dup2\n        /* \"#utility.yul\":20874:20898   */\n      tag_574\n      jump\t// in\n    tag_577:\n        /* \"#utility.yul\":20869:20872   */\n      dup3\n        /* \"#utility.yul\":20862:20899   */\n      mstore\n        /* \"#utility.yul\":20787:20905   */\n      pop\n      pop\n      jump\t// out\n        /* \"#utility.yul\":20911:21184   */\n    tag_195:\n        /* \"#utility.yul\":21042:21045   */\n      0x00\n        /* \"#utility.yul\":21064:21158   */\n      tag_579\n        /* \"#utility.yul\":21154:21157   */\n      dup3\n        /* \"#utility.yul\":21145:21151   */\n      dup5\n        /* \"#utility.yul\":21064:21158   */\n      tag_453\n      jump\t// in\n    tag_579:\n        /* \"#utility.yul\":21057:21158   */\n      swap2\n      pop\n        /* \"#utility.yul\":21175:21178   */\n      dup2\n        /* \"#utility.yul\":21168:21178   */\n      swap1\n      pop\n        /* \"#utility.yul\":20911:21184   */\n      swap3\n      swap2\n      pop\n      pop\n      jump\t// out\n        /* \"#utility.yul\":21190:21485   */\n    tag_107:\n        /* \"#utility.yul\":21332:21335   */\n      0x00\n        /* \"#utility.yul\":21354:21459   */\n      tag_581\n        /* \"#utility.yul\":21455:21458   */\n      dup3\n        /* \"#utility.yul\":21446:21452   */\n      dup5\n        /* \"#utility.yul\":21438:21444   */\n      dup7\n        /* \"#utility.yul\":21354:21459   */\n      tag_466\n      jump\t// in\n    tag_581:\n        /* \"#utility.yul\":21347:21459   */\n      swap2\n      pop\n        /* \"#utility.yul\":21476:21479   */\n      dup2\n        /* \"#utility.yul\":21469:21479   */\n      swap1\n      pop\n        /* \"#utility.yul\":21190:21485   */\n      swap4\n      swap3\n      pop\n      pop\n      pop\n      jump\t// out\n        /* \"#utility.yul\":21491:21766   */\n    tag_184:\n        /* \"#utility.yul\":21623:21626   */\n      0x00\n        /* \"#utility.yul\":21645:21740   */\n      tag_583\n        /* \"#utility.yul\":21736:21739   */\n      dup3\n        /* \"#utility.yul\":21727:21733   */\n      dup5\n        /* \"#utility.yul\":21645:21740   */\n      tag_488\n      jump\t// in\n    tag_583:\n        /* \"#utility.yul\":21638:21740   */\n      swap2\n      pop\n        /* \"#utility.yul\":21757:21760   */\n      dup2\n        /* \"#utility.yul\":21750:21760   */\n      swap1\n      pop\n        /* \"#utility.yul\":21491:21766   */\n      swap3\n      swap2\n      pop\n      pop\n      jump\t// out\n        /* \"#utility.yul\":21772:21994   */\n    tag_23:\n        /* \"#utility.yul\":21865:21869   */\n      0x00\n        /* \"#utility.yul\":21903:21905   */\n      0x20\n        /* \"#utility.yul\":21892:21901   */\n      dup3\n        /* \"#utility.yul\":21888:21906   */\n      add\n        /* \"#utility.yul\":21880:21906   */\n      swap1\n      pop\n        /* \"#utility.yul\":21916:21987   */\n      tag_585\n        /* \"#utility.yul\":21984:21985   */\n      0x00\n        /* \"#utility.yul\":21973:21982   */\n      dup4\n        /* \"#utility.yul\":21969:21986   */\n      add\n        /* \"#utility.yul\":21960:21966   */\n      dup5\n        /* \"#utility.yul\":21916:21987   */\n      tag_422\n      jump\t// in\n    tag_585:\n        /* \"#utility.yul\":21772:21994   */\n      swap3\n      swap2\n      pop\n      pop\n      jump\t// out\n        /* \"#utility.yul\":22000:22210   */\n    tag_81:\n        /* \"#utility.yul\":22087:22091   */\n      0x00\n        /* \"#utility.yul\":22125:22127   */\n      0x20\n        /* \"#utility.yul\":22114:22123   */\n      dup3\n        /* \"#utility.yul\":22110:22128   */\n      add\n        /* \"#utility.yul\":22102:22128   */\n      swap1\n      pop\n        /* \"#utility.yul\":22138:22203   */\n      tag_587\n        /* \"#utility.yul\":22200:22201   */\n      0x00\n        /* \"#utility.yul\":22189:22198   */\n      dup4\n        /* \"#utility.yul\":22185:22202   */\n      add\n        /* \"#utility.yul\":22176:22182   */\n      dup5\n        /* \"#utility.yul\":22138:22203   */\n      tag_443\n      jump\t// in\n    tag_587:\n        /* \"#utility.yul\":22000:22210   */\n      swap3\n      swap2\n      pop\n      pop\n      jump\t// out\n        /* \"#utility.yul\":22216:22634   */\n    tag_39:\n        /* \"#utility.yul\":22353:22357   */\n      0x00\n        /* \"#utility.yul\":22391:22393   */\n      0x60\n        /* \"#utility.yul\":22380:22389   */\n      dup3\n        /* \"#utility.yul\":22376:22394   */\n      add\n        /* \"#utility.yul\":22368:22394   */\n      swap1\n      pop\n        /* \"#utility.yul\":22404:22469   */\n      tag_589\n        /* \"#utility.yul\":22466:22467   */\n      0x00\n        /* \"#utility.yul\":22455:22464   */\n      dup4\n        /* \"#utility.yul\":22451:22468   */\n      add\n        /* \"#utility.yul\":22442:22448   */\n      dup7\n        /* \"#utility.yul\":22404:22469   */\n      tag_443\n      jump\t// in\n    tag_589:\n        /* \"#utility.yul\":22479:22545   */\n      tag_590\n        /* \"#utility.yul\":22541:22543   */\n      0x20\n        /* \"#utility.yul\":22530:22539   */\n      dup4\n        /* \"#utility.yul\":22526:22544   */\n      add\n        /* \"#utility.yul\":22517:22523   */\n      dup6\n        /* \"#utility.yul\":22479:22545   */\n      tag_443\n      jump\t// in\n    tag_590:\n        /* \"#utility.yul\":22555:22627   */\n      tag_591\n        /* \"#utility.yul\":22623:22625   */\n      0x40\n        /* \"#utility.yul\":22612:22621   */\n      dup4\n        /* \"#utility.yul\":22608:22626   */\n      add\n        /* \"#utility.yul\":22599:22605   */\n      dup5\n        /* \"#utility.yul\":22555:22627   */\n      tag_422\n      jump\t// in\n    tag_591:\n        /* \"#utility.yul\":22216:22634   */\n      swap5\n      swap4\n      pop\n      pop\n      pop\n      pop\n      jump\t// out\n        /* \"#utility.yul\":22640:23046   */\n    tag_55:\n        /* \"#utility.yul\":22771:22775   */\n      0x00\n        /* \"#utility.yul\":22809:22811   */\n      0x60\n        /* \"#utility.yul\":22798:22807   */\n      dup3\n        /* \"#utility.yul\":22794:22812   */\n      add\n        /* \"#utility.yul\":22786:22812   */\n      swap1\n      pop\n        /* \"#utility.yul\":22822:22887   */\n      tag_593\n        /* \"#utility.yul\":22884:22885   */\n      0x00\n        /* \"#utility.yul\":22873:22882   */\n      dup4\n        /* \"#utility.yul\":22869:22886   */\n      add\n        /* \"#utility.yul\":22860:22866   */\n      dup7\n        /* \"#utility.yul\":22822:22887   */\n      tag_443\n      jump\t// in\n    tag_593:\n        /* \"#utility.yul\":22897:22963   */\n      tag_594\n        /* \"#utility.yul\":22959:22961   */\n      0x20\n        /* \"#utility.yul\":22948:22957   */\n      dup4\n        /* \"#utility.yul\":22944:22962   */\n      add\n        /* \"#utility.yul\":22935:22941   */\n      dup6\n        /* \"#utility.yul\":22897:22963   */\n      tag_443\n      jump\t// in\n    tag_594:\n        /* \"#utility.yul\":22973:23039   */\n      tag_595\n        /* \"#utility.yul\":23035:23037   */\n      0x40\n        /* \"#utility.yul\":23024:23033   */\n      dup4\n        /* \"#utility.yul\":23020:23038   */\n      add\n        /* \"#utility.yul\":23011:23017   */\n      dup5\n        /* \"#utility.yul\":22973:23039   */\n      tag_443\n      jump\t// in\n    tag_595:\n        /* \"#utility.yul\":22640:23046   */\n      swap5\n      swap4\n      pop\n      pop\n      pop\n      pop\n      jump\t// out\n        /* \"#utility.yul\":23052:23927   */\n    tag_45:\n        /* \"#utility.yul\":23339:23343   */\n      0x00\n        /* \"#utility.yul\":23377:23380   */\n      0x80\n        /* \"#utility.yul\":23366:23375   */\n      dup3\n        /* \"#utility.yul\":23362:23381   */\n      add\n        /* \"#utility.yul\":23354:23381   */\n      swap1\n      pop\n        /* \"#utility.yul\":23391:23462   */\n      tag_597\n        /* \"#utility.yul\":23459:23460   */\n      0x00\n        /* \"#utility.yul\":23448:23457   */\n      dup4\n        /* \"#utility.yul\":23444:23461   */\n      add\n        /* \"#utility.yul\":23435:23441   */\n      dup8\n        /* \"#utility.yul\":23391:23462   */\n      tag_450\n      jump\t// in\n    tag_597:\n        /* \"#utility.yul\":23509:23518   */\n      dup2\n        /* \"#utility.yul\":23503:23507   */\n      dup2\n        /* \"#utility.yul\":23499:23519   */\n      sub\n        /* \"#utility.yul\":23494:23496   */\n      0x20\n        /* \"#utility.yul\":23483:23492   */\n      dup4\n        /* \"#utility.yul\":23479:23497   */\n      add\n        /* \"#utility.yul\":23472:23520   */\n      mstore\n        /* \"#utility.yul\":23537:23615   */\n      tag_598\n        /* \"#utility.yul\":23610:23614   */\n      dup2\n        /* \"#utility.yul\":23601:23607   */\n      dup7\n        /* \"#utility.yul\":23537:23615   */\n      tag_481\n      jump\t// in\n    tag_598:\n        /* \"#utility.yul\":23529:23615   */\n      swap1\n      pop\n        /* \"#utility.yul\":23625:23697   */\n      tag_599\n        /* \"#utility.yul\":23693:23695   */\n      0x40\n        /* \"#utility.yul\":23682:23691   */\n      dup4\n        /* \"#utility.yul\":23678:23696   */\n      add\n        /* \"#utility.yul\":23669:23675   */\n      dup6\n        /* \"#utility.yul\":23625:23697   */\n      tag_575\n      jump\t// in\n    tag_599:\n        /* \"#utility.yul\":23744:23753   */\n      dup2\n        /* \"#utility.yul\":23738:23742   */\n      dup2\n        /* \"#utility.yul\":23734:23754   */\n      sub\n        /* \"#utility.yul\":23729:23731   */\n      0x60\n        /* \"#utility.yul\":23718:23727   */\n      dup4\n        /* \"#utility.yul\":23714:23732   */\n      add\n        /* \"#utility.yul\":23707:23755   */\n      mstore\n        /* \"#utility.yul\":23772:23920   */\n      tag_600\n        /* \"#utility.yul\":23915:23919   */\n      dup2\n        /* \"#utility.yul\":23906:23912   */\n      dup5\n        /* \"#utility.yul\":23772:23920   */\n      tag_425\n      jump\t// in\n    tag_600:\n        /* \"#utility.yul\":23764:23920   */\n      swap1\n      pop\n        /* \"#utility.yul\":23052:23927   */\n      swap6\n      swap5\n      pop\n      pop\n      pop\n      pop\n      pop\n      jump\t// out\n        /* \"#utility.yul\":23933:24246   */\n    tag_71:\n        /* \"#utility.yul\":24046:24050   */\n      0x00\n        /* \"#utility.yul\":24084:24086   */\n      0x20\n        /* \"#utility.yul\":24073:24082   */\n      dup3\n        /* \"#utility.yul\":24069:24087   */\n      add\n        /* \"#utility.yul\":24061:24087   */\n      swap1\n      pop\n        /* \"#utility.yul\":24133:24142   */\n      dup2\n        /* \"#utility.yul\":24127:24131   */\n      dup2\n        /* \"#utility.yul\":24123:24143   */\n      sub\n        /* \"#utility.yul\":24119:24120   */\n      0x00\n        /* \"#utility.yul\":24108:24117   */\n      dup4\n        /* \"#utility.yul\":24104:24121   */\n      add\n        /* \"#utility.yul\":24097:24144   */\n      mstore\n        /* \"#utility.yul\":24161:24239   */\n      tag_602\n        /* \"#utility.yul\":24234:24238   */\n      dup2\n        /* \"#utility.yul\":24225:24231   */\n      dup5\n        /* \"#utility.yul\":24161:24239   */\n      tag_481\n      jump\t// in\n    tag_602:\n        /* \"#utility.yul\":24153:24239   */\n      swap1\n      pop\n        /* \"#utility.yul\":23933:24246   */\n      swap3\n      swap2\n      pop\n      pop\n      jump\t// out\n        /* \"#utility.yul\":24252:26049   */\n    tag_29:\n        /* \"#utility.yul\":24729:24733   */\n      0x00\n        /* \"#utility.yul\":24767:24770   */\n      0x0180\n        /* \"#utility.yul\":24756:24765   */\n      dup3\n        /* \"#utility.yul\":24752:24771   */\n      add\n        /* \"#utility.yul\":24744:24771   */\n      swap1\n      pop\n        /* \"#utility.yul\":24817:24826   */\n      dup2\n        /* \"#utility.yul\":24811:24815   */\n      dup2\n        /* \"#utility.yul\":24807:24827   */\n      sub\n        /* \"#utility.yul\":24803:24804   */\n      0x00\n        /* \"#utility.yul\":24792:24801   */\n      dup4\n        /* \"#utility.yul\":24788:24805   */\n      add\n        /* \"#utility.yul\":24781:24828   */\n      mstore\n        /* \"#utility.yul\":24845:24923   */\n      tag_604\n        /* \"#utility.yul\":24918:24922   */\n      dup2\n        /* \"#utility.yul\":24909:24915   */\n      dup16\n        /* \"#utility.yul\":24845:24923   */\n      tag_481\n      jump\t// in\n    tag_604:\n        /* \"#utility.yul\":24837:24923   */\n      swap1\n      pop\n        /* \"#utility.yul\":24933:25005   */\n      tag_605\n        /* \"#utility.yul\":25001:25003   */\n      0x20\n        /* \"#utility.yul\":24990:24999   */\n      dup4\n        /* \"#utility.yul\":24986:25004   */\n      add\n        /* \"#utility.yul\":24977:24983   */\n      dup15\n        /* \"#utility.yul\":24933:25005   */\n      tag_422\n      jump\t// in\n    tag_605:\n        /* \"#utility.yul\":25015:25087   */\n      tag_606\n        /* \"#utility.yul\":25083:25085   */\n      0x40\n        /* \"#utility.yul\":25072:25081   */\n      dup4\n        /* \"#utility.yul\":25068:25086   */\n      add\n        /* \"#utility.yul\":25059:25065   */\n      dup14\n        /* \"#utility.yul\":25015:25087   */\n      tag_422\n      jump\t// in\n    tag_606:\n        /* \"#utility.yul\":25097:25169   */\n      tag_607\n        /* \"#utility.yul\":25165:25167   */\n      0x60\n        /* \"#utility.yul\":25154:25163   */\n      dup4\n        /* \"#utility.yul\":25150:25168   */\n      add\n        /* \"#utility.yul\":25141:25147   */\n      dup13\n        /* \"#utility.yul\":25097:25169   */\n      tag_575\n      jump\t// in\n    tag_607:\n        /* \"#utility.yul\":25179:25252   */\n      tag_608\n        /* \"#utility.yul\":25247:25250   */\n      0x80\n        /* \"#utility.yul\":25236:25245   */\n      dup4\n        /* \"#utility.yul\":25232:25251   */\n      add\n        /* \"#utility.yul\":25223:25229   */\n      dup12\n        /* \"#utility.yul\":25179:25252   */\n      tag_575\n      jump\t// in\n    tag_608:\n        /* \"#utility.yul\":25262:25335   */\n      tag_609\n        /* \"#utility.yul\":25330:25333   */\n      0xa0\n        /* \"#utility.yul\":25319:25328   */\n      dup4\n        /* \"#utility.yul\":25315:25334   */\n      add\n        /* \"#utility.yul\":25306:25312   */\n      dup11\n        /* \"#utility.yul\":25262:25335   */\n      tag_575\n      jump\t// in\n    tag_609:\n        /* \"#utility.yul\":25345:25418   */\n      tag_610\n        /* \"#utility.yul\":25413:25416   */\n      0xc0\n        /* \"#utility.yul\":25402:25411   */\n      dup4\n        /* \"#utility.yul\":25398:25417   */\n      add\n        /* \"#utility.yul\":25389:25395   */\n      dup10\n        /* \"#utility.yul\":25345:25418   */\n      tag_575\n      jump\t// in\n    tag_610:\n        /* \"#utility.yul\":25428:25495   */\n      tag_611\n        /* \"#utility.yul\":25490:25493   */\n      0xe0\n        /* \"#utility.yul\":25479:25488   */\n      dup4\n        /* \"#utility.yul\":25475:25494   */\n      add\n        /* \"#utility.yul\":25466:25472   */\n      dup9\n        /* \"#utility.yul\":25428:25495   */\n      tag_443\n      jump\t// in\n    tag_611:\n        /* \"#utility.yul\":25505:25578   */\n      tag_612\n        /* \"#utility.yul\":25573:25576   */\n      0x0100\n        /* \"#utility.yul\":25562:25571   */\n      dup4\n        /* \"#utility.yul\":25558:25577   */\n      add\n        /* \"#utility.yul\":25549:25555   */\n      dup8\n        /* \"#utility.yul\":25505:25578   */\n      tag_450\n      jump\t// in\n    tag_612:\n        /* \"#utility.yul\":25626:25635   */\n      dup2\n        /* \"#utility.yul\":25620:25624   */\n      dup2\n        /* \"#utility.yul\":25616:25636   */\n      sub\n        /* \"#utility.yul\":25610:25613   */\n      0x0120\n        /* \"#utility.yul\":25599:25608   */\n      dup4\n        /* \"#utility.yul\":25595:25614   */\n      add\n        /* \"#utility.yul\":25588:25637   */\n      mstore\n        /* \"#utility.yul\":25654:25732   */\n      tag_613\n        /* \"#utility.yul\":25727:25731   */\n      dup2\n        /* \"#utility.yul\":25718:25724   */\n      dup7\n        /* \"#utility.yul\":25654:25732   */\n      tag_481\n      jump\t// in\n    tag_613:\n        /* \"#utility.yul\":25646:25732   */\n      swap1\n      pop\n        /* \"#utility.yul\":25780:25789   */\n      dup2\n        /* \"#utility.yul\":25774:25778   */\n      dup2\n        /* \"#utility.yul\":25770:25790   */\n      sub\n        /* \"#utility.yul\":25764:25767   */\n      0x0140\n        /* \"#utility.yul\":25753:25762   */\n      dup4\n        /* \"#utility.yul\":25749:25768   */\n      add\n        /* \"#utility.yul\":25742:25791   */\n      mstore\n        /* \"#utility.yul\":25808:25887   */\n      tag_614\n        /* \"#utility.yul\":25882:25886   */\n      dup2\n        /* \"#utility.yul\":25872:25879   */\n      dup6\n        /* \"#utility.yul\":25808:25887   */\n      tag_481\n      jump\t// in\n    tag_614:\n        /* \"#utility.yul\":25800:25887   */\n      swap1\n      pop\n        /* \"#utility.yul\":25935:25944   */\n      dup2\n        /* \"#utility.yul\":25929:25933   */\n      dup2\n        /* \"#utility.yul\":25925:25945   */\n      sub\n        /* \"#utility.yul\":25919:25922   */\n      0x0160\n        /* \"#utility.yul\":25908:25917   */\n      dup4\n        /* \"#utility.yul\":25904:25923   */\n      add\n        /* \"#utility.yul\":25897:25946   */\n      mstore\n        /* \"#utility.yul\":25963:26042   */\n      tag_615\n        /* \"#utility.yul\":26037:26041   */\n      dup2\n        /* \"#utility.yul\":26027:26034   */\n      dup5\n        /* \"#utility.yul\":25963:26042   */\n      tag_481\n      jump\t// in\n    tag_615:\n        /* \"#utility.yul\":25955:26042   */\n      swap1\n      pop\n        /* \"#utility.yul\":24252:26049   */\n      swap14\n      swap13\n      pop\n      pop\n      pop\n      pop\n      pop\n      pop\n      pop\n      pop\n      pop\n      pop\n      pop\n      pop\n      pop\n      jump\t// out\n        /* \"#utility.yul\":26055:26474   */\n    tag_174:\n        /* \"#utility.yul\":26221:26225   */\n      0x00\n        /* \"#utility.yul\":26259:26261   */\n      0x20\n        /* \"#utility.yul\":26248:26257   */\n      dup3\n        /* \"#utility.yul\":26244:26262   */\n      add\n        /* \"#utility.yul\":26236:26262   */\n      swap1\n      pop\n        /* \"#utility.yul\":26308:26317   */\n      dup2\n        /* \"#utility.yul\":26302:26306   */\n      dup2\n        /* \"#utility.yul\":26298:26318   */\n      sub\n        /* \"#utility.yul\":26294:26295   */\n      0x00\n        /* \"#utility.yul\":26283:26292   */\n      dup4\n        /* \"#utility.yul\":26279:26296   */\n      add\n        /* \"#utility.yul\":26272:26319   */\n      mstore\n        /* \"#utility.yul\":26336:26467   */\n      tag_617\n        /* \"#utility.yul\":26462:26466   */\n      dup2\n        /* \"#utility.yul\":26336:26467   */\n      tag_493\n      jump\t// in\n    tag_617:\n        /* \"#utility.yul\":26328:26467   */\n      swap1\n      pop\n        /* \"#utility.yul\":26055:26474   */\n      swap2\n      swap1\n      pop\n      jump\t// out\n        /* \"#utility.yul\":26480:26899   */\n    tag_248:\n        /* \"#utility.yul\":26646:26650   */\n      0x00\n        /* \"#utility.yul\":26684:26686   */\n      0x20\n        /* \"#utility.yul\":26673:26682   */\n      dup3\n        /* \"#utility.yul\":26669:26687   */\n      add\n        /* \"#utility.yul\":26661:26687   */\n      swap1\n      pop\n        /* \"#utility.yul\":26733:26742   */\n      dup2\n        /* \"#utility.yul\":26727:26731   */\n      dup2\n        /* \"#utility.yul\":26723:26743   */\n      sub\n        /* \"#utility.yul\":26719:26720   */\n      0x00\n        /* \"#utility.yul\":26708:26717   */\n      dup4\n        /* \"#utility.yul\":26704:26721   */\n      add\n        /* \"#utility.yul\":26697:26744   */\n      mstore\n        /* \"#utility.yul\":26761:26892   */\n      tag_619\n        /* \"#utility.yul\":26887:26891   */\n      dup2\n        /* \"#utility.yul\":26761:26892   */\n      tag_498\n      jump\t// in\n    tag_619:\n        /* \"#utility.yul\":26753:26892   */\n      swap1\n      pop\n        /* \"#utility.yul\":26480:26899   */\n      swap2\n      swap1\n      pop\n      jump\t// out\n        /* \"#utility.yul\":26905:27324   */\n    tag_213:\n        /* \"#utility.yul\":27071:27075   */\n      0x00\n        /* \"#utility.yul\":27109:27111   */\n      0x20\n        /* \"#utility.yul\":27098:27107   */\n      dup3\n        /* \"#utility.yul\":27094:27112   */\n      add\n        /* \"#utility.yul\":27086:27112   */\n      swap1\n      pop\n        /* \"#utility.yul\":27158:27167   */\n      dup2\n        /* \"#utility.yul\":27152:27156   */\n      dup2\n        /* \"#utility.yul\":27148:27168   */\n      sub\n        /* \"#utility.yul\":27144:27145   */\n      0x00\n        /* \"#utility.yul\":27133:27142   */\n      dup4\n        /* \"#utility.yul\":27129:27146   */\n      add\n        /* \"#utility.yul\":27122:27169   */\n      mstore\n        /* \"#utility.yul\":27186:27317   */\n      tag_621\n        /* \"#utility.yul\":27312:27316   */\n      dup2\n        /* \"#utility.yul\":27186:27317   */\n      tag_503\n      jump\t// in\n    tag_621:\n        /* \"#utility.yul\":27178:27317   */\n      swap1\n      pop\n        /* \"#utility.yul\":26905:27324   */\n      swap2\n      swap1\n      pop\n      jump\t// out\n        /* \"#utility.yul\":27330:27749   */\n    tag_118:\n        /* \"#utility.yul\":27496:27500   */\n      0x00\n        /* \"#utility.yul\":27534:27536   */\n      0x20\n        /* \"#utility.yul\":27523:27532   */\n      dup3\n        /* \"#utility.yul\":27519:27537   */\n      add\n        /* \"#utility.yul\":27511:27537   */\n      swap1\n      pop\n        /* \"#utility.yul\":27583:27592   */\n      dup2\n        /* \"#utility.yul\":27577:27581   */\n      dup2\n        /* \"#utility.yul\":27573:27593   */\n      sub\n        /* \"#utility.yul\":27569:27570   */\n      0x00\n        /* \"#utility.yul\":27558:27567   */\n      dup4\n        /* \"#utility.yul\":27554:27571   */\n      add\n        /* \"#utility.yul\":27547:27594   */\n      mstore\n        /* \"#utility.yul\":27611:27742   */\n      tag_623\n        /* \"#utility.yul\":27737:27741   */\n      dup2\n        /* \"#utility.yul\":27611:27742   */\n      tag_508\n      jump\t// in\n    tag_623:\n        /* \"#utility.yul\":27603:27742   */\n      swap1\n      pop\n        /* \"#utility.yul\":27330:27749   */\n      swap2\n      swap1\n      pop\n      jump\t// out\n        /* \"#utility.yul\":27755:28174   */\n    tag_170:\n        /* \"#utility.yul\":27921:27925   */\n      0x00\n        /* \"#utility.yul\":27959:27961   */\n      0x20\n        /* \"#utility.yul\":27948:27957   */\n      dup3\n        /* \"#utility.yul\":27944:27962   */\n      add\n        /* \"#utility.yul\":27936:27962   */\n      swap1\n      pop\n        /* \"#utility.yul\":28008:28017   */\n      dup2\n        /* \"#utility.yul\":28002:28006   */\n      dup2\n        /* \"#utility.yul\":27998:28018   */\n      sub\n        /* \"#utility.yul\":27994:27995   */\n      0x00\n        /* \"#utility.yul\":27983:27992   */\n      dup4\n        /* \"#utility.yul\":27979:27996   */\n      add\n        /* \"#utility.yul\":27972:28019   */\n      mstore\n        /* \"#utility.yul\":28036:28167   */\n      tag_625\n        /* \"#utility.yul\":28162:28166   */\n      dup2\n        /* \"#utility.yul\":28036:28167   */\n      tag_513\n      jump\t// in\n    tag_625:\n        /* \"#utility.yul\":28028:28167   */\n      swap1\n      pop\n        /* \"#utility.yul\":27755:28174   */\n      swap2\n      swap1\n      pop\n      jump\t// out\n        /* \"#utility.yul\":28180:28599   */\n    tag_114:\n        /* \"#utility.yul\":28346:28350   */\n      0x00\n        /* \"#utility.yul\":28384:28386   */\n      0x20\n        /* \"#utility.yul\":28373:28382   */\n      dup3\n        /* \"#utility.yul\":28369:28387   */\n      add\n        /* \"#utility.yul\":28361:28387   */\n      swap1\n      pop\n        /* \"#utility.yul\":28433:28442   */\n      dup2\n        /* \"#utility.yul\":28427:28431   */\n      dup2\n        /* \"#utility.yul\":28423:28443   */\n      sub\n        /* \"#utility.yul\":28419:28420   */\n      0x00\n        /* \"#utility.yul\":28408:28417   */\n      dup4\n        /* \"#utility.yul\":28404:28421   */\n      add\n        /* \"#utility.yul\":28397:28444   */\n      mstore\n        /* \"#utility.yul\":28461:28592   */\n      tag_627\n        /* \"#utility.yul\":28587:28591   */\n      dup2\n        /* \"#utility.yul\":28461:28592   */\n      tag_518\n      jump\t// in\n    tag_627:\n        /* \"#utility.yul\":28453:28592   */\n      swap1\n      pop\n        /* \"#utility.yul\":28180:28599   */\n      swap2\n      swap1\n      pop\n      jump\t// out\n        /* \"#utility.yul\":28605:29024   */\n    tag_178:\n        /* \"#utility.yul\":28771:28775   */\n      0x00\n        /* \"#utility.yul\":28809:28811   */\n      0x20\n        /* \"#utility.yul\":28798:28807   */\n      dup3\n        /* \"#utility.yul\":28794:28812   */\n      add\n        /* \"#utility.yul\":28786:28812   */\n      swap1\n      pop\n        /* \"#utility.yul\":28858:28867   */\n      dup2\n        /* \"#utility.yul\":28852:28856   */\n      dup2\n        /* \"#utility.yul\":28848:28868   */\n      sub\n        /* \"#utility.yul\":28844:28845   */\n      0x00\n        /* \"#utility.yul\":28833:28842   */\n      dup4\n        /* \"#utility.yul\":28829:28846   */\n      add\n        /* \"#utility.yul\":28822:28869   */\n      mstore\n        /* \"#utility.yul\":28886:29017   */\n      tag_629\n        /* \"#utility.yul\":29012:29016   */\n      dup2\n        /* \"#utility.yul\":28886:29017   */\n      tag_523\n      jump\t// in\n    tag_629:\n        /* \"#utility.yul\":28878:29017   */\n      swap1\n      pop\n        /* \"#utility.yul\":28605:29024   */\n      swap2\n      swap1\n      pop\n      jump\t// out\n        /* \"#utility.yul\":29030:29449   */\n    tag_166:\n        /* \"#utility.yul\":29196:29200   */\n      0x00\n        /* \"#utility.yul\":29234:29236   */\n      0x20\n        /* \"#utility.yul\":29223:29232   */\n      dup3\n        /* \"#utility.yul\":29219:29237   */\n      add\n        /* \"#utility.yul\":29211:29237   */\n      swap1\n      pop\n        /* \"#utility.yul\":29283:29292   */\n      dup2\n        /* \"#utility.yul\":29277:29281   */\n      dup2\n        /* \"#utility.yul\":29273:29293   */\n      sub\n        /* \"#utility.yul\":29269:29270   */\n      0x00\n        /* \"#utility.yul\":29258:29267   */\n      dup4\n        /* \"#utility.yul\":29254:29271   */\n      add\n        /* \"#utility.yul\":29247:29294   */\n      mstore\n        /* \"#utility.yul\":29311:29442   */\n      tag_631\n        /* \"#utility.yul\":29437:29441   */\n      dup2\n        /* \"#utility.yul\":29311:29442   */\n      tag_528\n      jump\t// in\n    tag_631:\n        /* \"#utility.yul\":29303:29442   */\n      swap1\n      pop\n        /* \"#utility.yul\":29030:29449   */\n      swap2\n      swap1\n      pop\n      jump\t// out\n        /* \"#utility.yul\":29455:29874   */\n    tag_187:\n        /* \"#utility.yul\":29621:29625   */\n      0x00\n        /* \"#utility.yul\":29659:29661   */\n      0x20\n        /* \"#utility.yul\":29648:29657   */\n      dup3\n        /* \"#utility.yul\":29644:29662   */\n      add\n        /* \"#utility.yul\":29636:29662   */\n      swap1\n      pop\n        /* \"#utility.yul\":29708:29717   */\n      dup2\n        /* \"#utility.yul\":29702:29706   */\n      dup2\n        /* \"#utility.yul\":29698:29718   */\n      sub\n        /* \"#utility.yul\":29694:29695   */\n      0x00\n        /* \"#utility.yul\":29683:29692   */\n      dup4\n        /* \"#utility.yul\":29679:29696   */\n      add\n        /* \"#utility.yul\":29672:29719   */\n      mstore\n        /* \"#utility.yul\":29736:29867   */\n      tag_633\n        /* \"#utility.yul\":29862:29866   */\n      dup2\n        /* \"#utility.yul\":29736:29867   */\n      tag_533\n      jump\t// in\n    tag_633:\n        /* \"#utility.yul\":29728:29867   */\n      swap1\n      pop\n        /* \"#utility.yul\":29455:29874   */\n      swap2\n      swap1\n      pop\n      jump\t// out\n        /* \"#utility.yul\":29880:30299   */\n    tag_149:\n        /* \"#utility.yul\":30046:30050   */\n      0x00\n        /* \"#utility.yul\":30084:30086   */\n      0x20\n        /* \"#utility.yul\":30073:30082   */\n      dup3\n        /* \"#utility.yul\":30069:30087   */\n      add\n        /* \"#utility.yul\":30061:30087   */\n      swap1\n      pop\n        /* \"#utility.yul\":30133:30142   */\n      dup2\n        /* \"#utility.yul\":30127:30131   */\n      dup2\n        /* \"#utility.yul\":30123:30143   */\n      sub\n        /* \"#utility.yul\":30119:30120   */\n      0x00\n        /* \"#utility.yul\":30108:30117   */\n      dup4\n        /* \"#utility.yul\":30104:30121   */\n      add\n        /* \"#utility.yul\":30097:30144   */\n      mstore\n        /* \"#utility.yul\":30161:30292   */\n      tag_635\n        /* \"#utility.yul\":30287:30291   */\n      dup2\n        /* \"#utility.yul\":30161:30292   */\n      tag_538\n      jump\t// in\n    tag_635:\n        /* \"#utility.yul\":30153:30292   */\n      swap1\n      pop\n        /* \"#utility.yul\":29880:30299   */\n      swap2\n      swap1\n      pop\n      jump\t// out\n        /* \"#utility.yul\":30305:30724   */\n    tag_110:\n        /* \"#utility.yul\":30471:30475   */\n      0x00\n        /* \"#utility.yul\":30509:30511   */\n      0x20\n        /* \"#utility.yul\":30498:30507   */\n      dup3\n        /* \"#utility.yul\":30494:30512   */\n      add\n        /* \"#utility.yul\":30486:30512   */\n      swap1\n      pop\n        /* \"#utility.yul\":30558:30567   */\n      dup2\n        /* \"#utility.yul\":30552:30556   */\n      dup2\n        /* \"#utility.yul\":30548:30568   */\n      sub\n        /* \"#utility.yul\":30544:30545   */\n      0x00\n        /* \"#utility.yul\":30533:30542   */\n      dup4\n        /* \"#utility.yul\":30529:30546   */\n      add\n        /* \"#utility.yul\":30522:30569   */\n      mstore\n        /* \"#utility.yul\":30586:30717   */\n      tag_637\n        /* \"#utility.yul\":30712:30716   */\n      dup2\n        /* \"#utility.yul\":30586:30717   */\n      tag_543\n      jump\t// in\n    tag_637:\n        /* \"#utility.yul\":30578:30717   */\n      swap1\n      pop\n        /* \"#utility.yul\":30305:30724   */\n      swap2\n      swap1\n      pop\n      jump\t// out\n        /* \"#utility.yul\":30730:31149   */\n    tag_207:\n        /* \"#utility.yul\":30896:30900   */\n      0x00\n        /* \"#utility.yul\":30934:30936   */\n      0x20\n        /* \"#utility.yul\":30923:30932   */\n      dup3\n        /* \"#utility.yul\":30919:30937   */\n      add\n        /* \"#utility.yul\":30911:30937   */\n      swap1\n      pop\n        /* \"#utility.yul\":30983:30992   */\n      dup2\n        /* \"#utility.yul\":30977:30981   */\n      dup2\n        /* \"#utility.yul\":30973:30993   */\n      sub\n        /* \"#utility.yul\":30969:30970   */\n      0x00\n        /* \"#utility.yul\":30958:30967   */\n      dup4\n        /* \"#utility.yul\":30954:30971   */\n      add\n        /* \"#utility.yul\":30947:30994   */\n      mstore\n        /* \"#utility.yul\":31011:31142   */\n      tag_639\n        /* \"#utility.yul\":31137:31141   */\n      dup2\n        /* \"#utility.yul\":31011:31142   */\n      tag_548\n      jump\t// in\n    tag_639:\n        /* \"#utility.yul\":31003:31142   */\n      swap1\n      pop\n        /* \"#utility.yul\":30730:31149   */\n      swap2\n      swap1\n      pop\n      jump\t// out\n        /* \"#utility.yul\":31155:31524   */\n    tag_76:\n        /* \"#utility.yul\":31296:31300   */\n      0x00\n        /* \"#utility.yul\":31334:31336   */\n      0x20\n        /* \"#utility.yul\":31323:31332   */\n      dup3\n        /* \"#utility.yul\":31319:31337   */\n      add\n        /* \"#utility.yul\":31311:31337   */\n      swap1\n      pop\n        /* \"#utility.yul\":31383:31392   */\n      dup2\n        /* \"#utility.yul\":31377:31381   */\n      dup2\n        /* \"#utility.yul\":31373:31393   */\n      sub\n        /* \"#utility.yul\":31369:31370   */\n      0x00\n        /* \"#utility.yul\":31358:31367   */\n      dup4\n        /* \"#utility.yul\":31354:31371   */\n      add\n        /* \"#utility.yul\":31347:31394   */\n      mstore\n        /* \"#utility.yul\":31411:31517   */\n      tag_641\n        /* \"#utility.yul\":31512:31516   */\n      dup2\n        /* \"#utility.yul\":31503:31509   */\n      dup5\n        /* \"#utility.yul\":31411:31517   */\n      tag_553\n      jump\t// in\n    tag_641:\n        /* \"#utility.yul\":31403:31517   */\n      swap1\n      pop\n        /* \"#utility.yul\":31155:31524   */\n      swap3\n      swap2\n      pop\n      pop\n      jump\t// out\n        /* \"#utility.yul\":31530:31659   */\n    tag_312:\n        /* \"#utility.yul\":31564:31570   */\n      0x00\n        /* \"#utility.yul\":31591:31611   */\n      tag_643\n      tag_644\n      jump\t// in\n    tag_643:\n        /* \"#utility.yul\":31581:31611   */\n      swap1\n      pop\n        /* \"#utility.yul\":31620:31653   */\n      tag_645\n        /* \"#utility.yul\":31648:31652   */\n      dup3\n        /* \"#utility.yul\":31640:31646   */\n      dup3\n        /* \"#utility.yul\":31620:31653   */\n      tag_646\n      jump\t// in\n    tag_645:\n        /* \"#utility.yul\":31530:31659   */\n      swap2\n      swap1\n      pop\n      jump\t// out\n        /* \"#utility.yul\":31665:31740   */\n    tag_644:\n        /* \"#utility.yul\":31698:31704   */\n      0x00\n        /* \"#utility.yul\":31731:31733   */\n      0x40\n        /* \"#utility.yul\":31725:31734   */\n      mload\n        /* \"#utility.yul\":31715:31734   */\n      swap1\n      pop\n        /* \"#utility.yul\":31665:31740   */\n      swap1\n      jump\t// out\n        /* \"#utility.yul\":31746:32054   */\n    tag_311:\n        /* \"#utility.yul\":31808:31812   */\n      0x00\n        /* \"#utility.yul\":31898:31916   */\n      0xffffffffffffffff\n        /* \"#utility.yul\":31890:31896   */\n      dup3\n        /* \"#utility.yul\":31887:31917   */\n      gt\n        /* \"#utility.yul\":31884:31940   */\n      iszero\n      tag_649\n      jumpi\n        /* \"#utility.yul\":31920:31938   */\n      tag_650\n      tag_651\n      jump\t// in\n    tag_650:\n        /* \"#utility.yul\":31884:31940   */\n    tag_649:\n        /* \"#utility.yul\":31958:31987   */\n      tag_652\n        /* \"#utility.yul\":31980:31986   */\n      dup3\n        /* \"#utility.yul\":31958:31987   */\n      tag_480\n      jump\t// in\n    tag_652:\n        /* \"#utility.yul\":31950:31987   */\n      swap1\n      pop\n        /* \"#utility.yul\":32042:32046   */\n      0x20\n        /* \"#utility.yul\":32036:32040   */\n      dup2\n        /* \"#utility.yul\":32032:32047   */\n      add\n        /* \"#utility.yul\":32024:32047   */\n      swap1\n      pop\n        /* \"#utility.yul\":31746:32054   */\n      swap2\n      swap1\n      pop\n      jump\t// out\n        /* \"#utility.yul\":32060:32212   */\n    tag_432:\n        /* \"#utility.yul\":32147:32151   */\n      0x00\n        /* \"#utility.yul\":32170:32173   */\n      dup2\n        /* \"#utility.yul\":32162:32173   */\n      swap1\n      pop\n        /* \"#utility.yul\":32200:32204   */\n      0x20\n        /* \"#utility.yul\":32195:32198   */\n      dup3\n        /* \"#utility.yul\":32191:32205   */\n      add\n        /* \"#utility.yul\":32183:32205   */\n      swap1\n      pop\n        /* \"#utility.yul\":32060:32212   */\n      swap2\n      swap1\n      pop\n      jump\t// out\n        /* \"#utility.yul\":32218:32362   */\n    tag_462:\n        /* \"#utility.yul\":32270:32274   */\n      0x00\n        /* \"#utility.yul\":32293:32296   */\n      dup2\n        /* \"#utility.yul\":32285:32296   */\n      swap1\n      pop\n        /* \"#utility.yul\":32316:32319   */\n      dup2\n        /* \"#utility.yul\":32313:32314   */\n      0x00\n        /* \"#utility.yul\":32306:32320   */\n      mstore\n        /* \"#utility.yul\":32350:32354   */\n      0x20\n        /* \"#utility.yul\":32347:32348   */\n      0x00\n        /* \"#utility.yul\":32337:32355   */\n      keccak256\n        /* \"#utility.yul\":32329:32355   */\n      swap1\n      pop\n        /* \"#utility.yul\":32218:32362   */\n      swap2\n      swap1\n      pop\n      jump\t// out\n        /* \"#utility.yul\":32368:32502   */\n    tag_428:\n        /* \"#utility.yul\":32455:32461   */\n      0x00\n        /* \"#utility.yul\":32489:32494   */\n      dup2\n        /* \"#utility.yul\":32483:32495   */\n      mload\n        /* \"#utility.yul\":32473:32495   */\n      swap1\n      pop\n        /* \"#utility.yul\":32368:32502   */\n      swap2\n      swap1\n      pop\n      jump\t// out\n        /* \"#utility.yul\":32508:32607   */\n    tag_474:\n        /* \"#utility.yul\":32560:32566   */\n      0x00\n        /* \"#utility.yul\":32594:32599   */\n      dup2\n        /* \"#utility.yul\":32588:32600   */\n      mload\n        /* \"#utility.yul\":32578:32600   */\n      swap1\n      pop\n        /* \"#utility.yul\":32508:32607   */\n      swap2\n      swap1\n      pop\n      jump\t// out\n        /* \"#utility.yul\":32613:32746   */\n    tag_438:\n        /* \"#utility.yul\":32703:32707   */\n      0x00\n        /* \"#utility.yul\":32735:32739   */\n      0x20\n        /* \"#utility.yul\":32730:32733   */\n      dup3\n        /* \"#utility.yul\":32726:32740   */\n      add\n        /* \"#utility.yul\":32718:32740   */\n      swap1\n      pop\n        /* \"#utility.yul\":32613:32746   */\n      swap2\n      swap1\n      pop\n      jump\t// out\n        /* \"#utility.yul\":32752:32956   */\n    tag_430:\n        /* \"#utility.yul\":32871:32882   */\n      0x00\n        /* \"#utility.yul\":32905:32911   */\n      dup3\n        /* \"#utility.yul\":32900:32903   */\n      dup3\n        /* \"#utility.yul\":32893:32912   */\n      mstore\n        /* \"#utility.yul\":32945:32949   */\n      0x20\n        /* \"#utility.yul\":32940:32943   */\n      dup3\n        /* \"#utility.yul\":32936:32950   */\n      add\n        /* \"#utility.yul\":32921:32950   */\n      swap1\n      pop\n        /* \"#utility.yul\":32752:32956   */\n      swap3\n      swap2\n      pop\n      pop\n      jump\t// out\n        /* \"#utility.yul\":32962:33109   */\n    tag_457:\n        /* \"#utility.yul\":33063:33074   */\n      0x00\n        /* \"#utility.yul\":33100:33103   */\n      dup2\n        /* \"#utility.yul\":33085:33103   */\n      swap1\n      pop\n        /* \"#utility.yul\":32962:33109   */\n      swap3\n      swap2\n      pop\n      pop\n      jump\t// out\n        /* \"#utility.yul\":33115:33274   */\n    tag_476:\n        /* \"#utility.yul\":33189:33200   */\n      0x00\n        /* \"#utility.yul\":33223:33229   */\n      dup3\n        /* \"#utility.yul\":33218:33221   */\n      dup3\n        /* \"#utility.yul\":33211:33230   */\n      mstore\n        /* \"#utility.yul\":33263:33267   */\n      0x20\n        /* \"#utility.yul\":33258:33261   */\n      dup3\n        /* \"#utility.yul\":33254:33268   */\n      add\n        /* \"#utility.yul\":33239:33268   */\n      swap1\n      pop\n        /* \"#utility.yul\":33115:33274   */\n      swap3\n      swap2\n      pop\n      pop\n      jump\t// out\n        /* \"#utility.yul\":33280:33449   */\n    tag_485:\n        /* \"#utility.yul\":33364:33375   */\n      0x00\n        /* \"#utility.yul\":33398:33404   */\n      dup3\n        /* \"#utility.yul\":33393:33396   */\n      dup3\n        /* \"#utility.yul\":33386:33405   */\n      mstore\n        /* \"#utility.yul\":33438:33442   */\n      0x20\n        /* \"#utility.yul\":33433:33436   */\n      dup3\n        /* \"#utility.yul\":33429:33443   */\n      add\n        /* \"#utility.yul\":33414:33443   */\n      swap1\n      pop\n        /* \"#utility.yul\":33280:33449   */\n      swap3\n      swap2\n      pop\n      pop\n      jump\t// out\n        /* \"#utility.yul\":33455:33603   */\n    tag_469:\n        /* \"#utility.yul\":33557:33568   */\n      0x00\n        /* \"#utility.yul\":33594:33597   */\n      dup2\n        /* \"#utility.yul\":33579:33597   */\n      swap1\n      pop\n        /* \"#utility.yul\":33455:33603   */\n      swap3\n      swap2\n      pop\n      pop\n      jump\t// out\n        /* \"#utility.yul\":33609:33914   */\n    tag_124:\n        /* \"#utility.yul\":33649:33652   */\n      0x00\n        /* \"#utility.yul\":33668:33688   */\n      tag_664\n        /* \"#utility.yul\":33686:33687   */\n      dup3\n        /* \"#utility.yul\":33668:33688   */\n      tag_574\n      jump\t// in\n    tag_664:\n        /* \"#utility.yul\":33663:33688   */\n      swap2\n      pop\n        /* \"#utility.yul\":33702:33722   */\n      tag_665\n        /* \"#utility.yul\":33720:33721   */\n      dup4\n        /* \"#utility.yul\":33702:33722   */\n      tag_574\n      jump\t// in\n    tag_665:\n        /* \"#utility.yul\":33697:33722   */\n      swap3\n      pop\n        /* \"#utility.yul\":33856:33857   */\n      dup3\n        /* \"#utility.yul\":33788:33854   */\n      0xffffffffffffffffffffffffffffffffffffffffffffffffffffffffffffffff\n        /* \"#utility.yul\":33784:33858   */\n      sub\n        /* \"#utility.yul\":33781:33782   */\n      dup3\n        /* \"#utility.yul\":33778:33859   */\n      gt\n        /* \"#utility.yul\":33775:33882   */\n      iszero\n      tag_666\n      jumpi\n        /* \"#utility.yul\":33862:33880   */\n      tag_667\n      tag_668\n      jump\t// in\n    tag_667:\n        /* \"#utility.yul\":33775:33882   */\n    tag_666:\n        /* \"#utility.yul\":33906:33907   */\n      dup3\n        /* \"#utility.yul\":33903:33904   */\n      dup3\n        /* \"#utility.yul\":33899:33908   */\n      add\n        /* \"#utility.yul\":33892:33908   */\n      swap1\n      pop\n        /* \"#utility.yul\":33609:33914   */\n      swap3\n      swap2\n      pop\n      pop\n      jump\t// out\n        /* \"#utility.yul\":33920:34105   */\n    tag_217:\n        /* \"#utility.yul\":33960:33961   */\n      0x00\n        /* \"#utility.yul\":33977:33997   */\n      tag_670\n        /* \"#utility.yul\":33995:33996   */\n      dup3\n        /* \"#utility.yul\":33977:33997   */\n      tag_574\n      jump\t// in\n    tag_670:\n        /* \"#utility.yul\":33972:33997   */\n      swap2\n      pop\n        /* \"#utility.yul\":34011:34031   */\n      tag_671\n        /* \"#utility.yul\":34029:34030   */\n      dup4\n        /* \"#utility.yul\":34011:34031   */\n      tag_574\n      jump\t// in\n    tag_671:\n        /* \"#utility.yul\":34006:34031   */\n      swap3\n      pop\n        /* \"#utility.yul\":34050:34051   */\n      dup3\n        /* \"#utility.yul\":34040:34075   */\n      tag_672\n      jumpi\n        /* \"#utility.yul\":34055:34073   */\n      tag_673\n      tag_674\n      jump\t// in\n    tag_673:\n        /* \"#utility.yul\":34040:34075   */\n    tag_672:\n        /* \"#utility.yul\":34097:34098   */\n      dup3\n        /* \"#utility.yul\":34094:34095   */\n      dup3\n        /* \"#utility.yul\":34090:34099   */\n      div\n        /* \"#utility.yul\":34085:34099   */\n      swap1\n      pop\n        /* \"#utility.yul\":33920:34105   */\n      swap3\n      swap2\n      pop\n      pop\n      jump\t// out\n        /* \"#utility.yul\":34111:34459   */\n    tag_219:\n        /* \"#utility.yul\":34151:34158   */\n      0x00\n        /* \"#utility.yul\":34174:34194   */\n      tag_676\n        /* \"#utility.yul\":34192:34193   */\n      dup3\n        /* \"#utility.yul\":34174:34194   */\n      tag_574\n      jump\t// in\n    tag_676:\n        /* \"#utility.yul\":34169:34194   */\n      swap2\n      pop\n        /* \"#utility.yul\":34208:34228   */\n      tag_677\n        /* \"#utility.yul\":34226:34227   */\n      dup4\n        /* \"#utility.yul\":34208:34228   */\n      tag_574\n      jump\t// in\n    tag_677:\n        /* \"#utility.yul\":34203:34228   */\n      swap3\n      pop\n        /* \"#utility.yul\":34396:34397   */\n      dup2\n        /* \"#utility.yul\":34328:34394   */\n      0xffffffffffffffffffffffffffffffffffffffffffffffffffffffffffffffff\n        /* \"#utility.yul\":34324:34398   */\n      div\n        /* \"#utility.yul\":34321:34322   */\n      dup4\n        /* \"#utility.yul\":34318:34399   */\n      gt\n        /* \"#utility.yul\":34313:34314   */\n      dup3\n        /* \"#utility.yul\":34306:34315   */\n      iszero\n        /* \"#utility.yul\":34299:34316   */\n      iszero\n        /* \"#utility.yul\":34295:34400   */\n      and\n        /* \"#utility.yul\":34292:34423   */\n      iszero\n      tag_678\n      jumpi\n        /* \"#utility.yul\":34403:34421   */\n      tag_679\n      tag_668\n      jump\t// in\n    tag_679:\n        /* \"#utility.yul\":34292:34423   */\n    tag_678:\n        /* \"#utility.yul\":34451:34452   */\n      dup3\n        /* \"#utility.yul\":34448:34449   */\n      dup3\n        /* \"#utility.yul\":34444:34453   */\n      mul\n        /* \"#utility.yul\":34433:34453   */\n      swap1\n      pop\n        /* \"#utility.yul\":34111:34459   */\n      swap3\n      swap2\n      pop\n      pop\n      jump\t// out\n        /* \"#utility.yul\":34465:34561   */\n    tag_421:\n        /* \"#utility.yul\":34502:34509   */\n      0x00\n        /* \"#utility.yul\":34531:34555   */\n      tag_681\n        /* \"#utility.yul\":34549:34554   */\n      dup3\n        /* \"#utility.yul\":34531:34555   */\n      tag_682\n      jump\t// in\n    tag_681:\n        /* \"#utility.yul\":34520:34555   */\n      swap1\n      pop\n        /* \"#utility.yul\":34465:34561   */\n      swap2\n      swap1\n      pop\n      jump\t// out\n        /* \"#utility.yul\":34567:34657   */\n    tag_442:\n        /* \"#utility.yul\":34601:34608   */\n      0x00\n        /* \"#utility.yul\":34644:34649   */\n      dup2\n        /* \"#utility.yul\":34637:34650   */\n      iszero\n        /* \"#utility.yul\":34630:34651   */\n      iszero\n        /* \"#utility.yul\":34619:34651   */\n      swap1\n      pop\n        /* \"#utility.yul\":34567:34657   */\n      swap2\n      swap1\n      pop\n      jump\t// out\n        /* \"#utility.yul\":34663:34740   */\n    tag_449:\n        /* \"#utility.yul\":34700:34707   */\n      0x00\n        /* \"#utility.yul\":34729:34734   */\n      dup2\n        /* \"#utility.yul\":34718:34734   */\n      swap1\n      pop\n        /* \"#utility.yul\":34663:34740   */\n      swap2\n      swap1\n      pop\n      jump\t// out\n        /* \"#utility.yul\":34746:34872   */\n    tag_682:\n        /* \"#utility.yul\":34783:34790   */\n      0x00\n        /* \"#utility.yul\":34823:34865   */\n      0xffffffffffffffffffffffffffffffffffffffff\n        /* \"#utility.yul\":34816:34821   */\n      dup3\n        /* \"#utility.yul\":34812:34866   */\n      and\n        /* \"#utility.yul\":34801:34866   */\n      swap1\n      pop\n        /* \"#utility.yul\":34746:34872   */\n      swap2\n      swap1\n      pop\n      jump\t// out\n        /* \"#utility.yul\":34878:34955   */\n    tag_574:\n        /* \"#utility.yul\":34915:34922   */\n      0x00\n        /* \"#utility.yul\":34944:34949   */\n      dup2\n        /* \"#utility.yul\":34933:34949   */\n      swap1\n      pop\n        /* \"#utility.yul\":34878:34955   */\n      swap2\n      swap1\n      pop\n      jump\t// out\n        /* \"#utility.yul\":34961:35047   */\n    tag_687:\n        /* \"#utility.yul\":34996:35003   */\n      0x00\n        /* \"#utility.yul\":35036:35040   */\n      0xff\n        /* \"#utility.yul\":35029:35034   */\n      dup3\n        /* \"#utility.yul\":35025:35041   */\n      and\n        /* \"#utility.yul\":35014:35041   */\n      swap1\n      pop\n        /* \"#utility.yul\":34961:35047   */\n      swap2\n      swap1\n      pop\n      jump\t// out\n        /* \"#utility.yul\":35053:35207   */\n    tag_317:\n        /* \"#utility.yul\":35137:35143   */\n      dup3\n        /* \"#utility.yul\":35132:35135   */\n      dup2\n        /* \"#utility.yul\":35127:35130   */\n      dup4\n        /* \"#utility.yul\":35114:35144   */\n      calldatacopy\n        /* \"#utility.yul\":35199:35200   */\n      0x00\n        /* \"#utility.yul\":35190:35196   */\n      dup4\n        /* \"#utility.yul\":35185:35188   */\n      dup4\n        /* \"#utility.yul\":35181:35197   */\n      add\n        /* \"#utility.yul\":35174:35201   */\n      mstore\n        /* \"#utility.yul\":35053:35207   */\n      pop\n      pop\n      pop\n      jump\t// out\n        /* \"#utility.yul\":35213:35520   */\n    tag_478:\n        /* \"#utility.yul\":35281:35282   */\n      0x00\n        /* \"#utility.yul\":35291:35404   */\n    tag_691:\n        /* \"#utility.yul\":35305:35311   */\n      dup4\n        /* \"#utility.yul\":35302:35303   */\n      dup2\n        /* \"#utility.yul\":35299:35312   */\n      lt\n        /* \"#utility.yul\":35291:35404   */\n      iszero\n      tag_693\n      jumpi\n        /* \"#utility.yul\":35390:35391   */\n      dup1\n        /* \"#utility.yul\":35385:35388   */\n      dup3\n        /* \"#utility.yul\":35381:35392   */\n      add\n        /* \"#utility.yul\":35375:35393   */\n      mload\n        /* \"#utility.yul\":35371:35372   */\n      dup2\n        /* \"#utility.yul\":35366:35369   */\n      dup5\n        /* \"#utility.yul\":35362:35373   */\n      add\n        /* \"#utility.yul\":35355:35394   */\n      mstore\n        /* \"#utility.yul\":35327:35329   */\n      0x20\n        /* \"#utility.yul\":35324:35325   */\n      dup2\n        /* \"#utility.yul\":35320:35330   */\n      add\n        /* \"#utility.yul\":35315:35330   */\n      swap1\n      pop\n        /* \"#utility.yul\":35291:35404   */\n      jump(tag_691)\n    tag_693:\n        /* \"#utility.yul\":35422:35428   */\n      dup4\n        /* \"#utility.yul\":35419:35420   */\n      dup2\n        /* \"#utility.yul\":35416:35429   */\n      gt\n        /* \"#utility.yul\":35413:35514   */\n      iszero\n      tag_694\n      jumpi\n        /* \"#utility.yul\":35502:35503   */\n      0x00\n        /* \"#utility.yul\":35493:35499   */\n      dup5\n        /* \"#utility.yul\":35488:35491   */\n      dup5\n        /* \"#utility.yul\":35484:35500   */\n      add\n        /* \"#utility.yul\":35477:35504   */\n      mstore\n        /* \"#utility.yul\":35413:35514   */\n    tag_694:\n        /* \"#utility.yul\":35262:35520   */\n      pop\n        /* \"#utility.yul\":35213:35520   */\n      pop\n      pop\n      pop\n      jump\t// out\n        /* \"#utility.yul\":35526:35846   */\n    tag_85:\n        /* \"#utility.yul\":35570:35576   */\n      0x00\n        /* \"#utility.yul\":35607:35608   */\n      0x02\n        /* \"#utility.yul\":35601:35605   */\n      dup3\n        /* \"#utility.yul\":35597:35609   */\n      div\n        /* \"#utility.yul\":35587:35609   */\n      swap1\n      pop\n        /* \"#utility.yul\":35654:35655   */\n      0x01\n        /* \"#utility.yul\":35648:35652   */\n      dup3\n        /* \"#utility.yul\":35644:35656   */\n      and\n        /* \"#utility.yul\":35675:35693   */\n      dup1\n        /* \"#utility.yul\":35665:35746   */\n      tag_696\n      jumpi\n        /* \"#utility.yul\":35731:35735   */\n      0x7f\n        /* \"#utility.yul\":35723:35729   */\n      dup3\n        /* \"#utility.yul\":35719:35736   */\n      and\n        /* \"#utility.yul\":35709:35736   */\n      swap2\n      pop\n        /* \"#utility.yul\":35665:35746   */\n    tag_696:\n        /* \"#utility.yul\":35793:35795   */\n      0x20\n        /* \"#utility.yul\":35785:35791   */\n      dup3\n        /* \"#utility.yul\":35782:35796   */\n      lt\n        /* \"#utility.yul\":35762:35780   */\n      dup2\n        /* \"#utility.yul\":35759:35797   */\n      eq\n        /* \"#utility.yul\":35756:35840   */\n      iszero\n      tag_697\n      jumpi\n        /* \"#utility.yul\":35812:35830   */\n      tag_698\n      tag_699\n      jump\t// in\n    tag_698:\n        /* \"#utility.yul\":35756:35840   */\n    tag_697:\n        /* \"#utility.yul\":35577:35846   */\n      pop\n        /* \"#utility.yul\":35526:35846   */\n      swap2\n      swap1\n      pop\n      jump\t// out\n        /* \"#utility.yul\":35852:36133   */\n    tag_646:\n        /* \"#utility.yul\":35935:35962   */\n      tag_701\n        /* \"#utility.yul\":35957:35961   */\n      dup3\n        /* \"#utility.yul\":35935:35962   */\n      tag_480\n      jump\t// in\n    tag_701:\n        /* \"#utility.yul\":35927:35933   */\n      dup2\n        /* \"#utility.yul\":35923:35963   */\n      add\n        /* \"#utility.yul\":36065:36071   */\n      dup2\n        /* \"#utility.yul\":36053:36063   */\n      dup2\n        /* \"#utility.yul\":36050:36072   */\n      lt\n        /* \"#utility.yul\":36029:36047   */\n      0xffffffffffffffff\n        /* \"#utility.yul\":36017:36027   */\n      dup3\n        /* \"#utility.yul\":36014:36048   */\n      gt\n        /* \"#utility.yul\":36011:36073   */\n      or\n        /* \"#utility.yul\":36008:36096   */\n      iszero\n      tag_702\n      jumpi\n        /* \"#utility.yul\":36076:36094   */\n      tag_703\n      tag_651\n      jump\t// in\n    tag_703:\n        /* \"#utility.yul\":36008:36096   */\n    tag_702:\n        /* \"#utility.yul\":36116:36126   */\n      dup1\n        /* \"#utility.yul\":36112:36114   */\n      0x40\n        /* \"#utility.yul\":36105:36127   */\n      mstore\n        /* \"#utility.yul\":35895:36133   */\n      pop\n        /* \"#utility.yul\":35852:36133   */\n      pop\n      pop\n      jump\t// out\n        /* \"#utility.yul\":36139:36306   */\n    tag_242:\n        /* \"#utility.yul\":36176:36179   */\n      0x00\n        /* \"#utility.yul\":36199:36221   */\n      tag_705\n        /* \"#utility.yul\":36215:36220   */\n      dup3\n        /* \"#utility.yul\":36199:36221   */\n      tag_687\n      jump\t// in\n    tag_705:\n        /* \"#utility.yul\":36190:36221   */\n      swap2\n      pop\n        /* \"#utility.yul\":36243:36247   */\n      0xff\n        /* \"#utility.yul\":36236:36241   */\n      dup3\n        /* \"#utility.yul\":36233:36248   */\n      eq\n        /* \"#utility.yul\":36230:36271   */\n      iszero\n      tag_706\n      jumpi\n        /* \"#utility.yul\":36251:36269   */\n      tag_707\n      tag_668\n      jump\t// in\n    tag_707:\n        /* \"#utility.yul\":36230:36271   */\n    tag_706:\n        /* \"#utility.yul\":36298:36299   */\n      0x01\n        /* \"#utility.yul\":36291:36296   */\n      dup3\n        /* \"#utility.yul\":36287:36300   */\n      add\n        /* \"#utility.yul\":36280:36300   */\n      swap1\n      pop\n        /* \"#utility.yul\":36139:36306   */\n      swap2\n      swap1\n      pop\n      jump\t// out\n        /* \"#utility.yul\":36312:36492   */\n    tag_668:\n        /* \"#utility.yul\":36360:36437   */\n      0x4e487b7100000000000000000000000000000000000000000000000000000000\n        /* \"#utility.yul\":36357:36358   */\n      0x00\n        /* \"#utility.yul\":36350:36438   */\n      mstore\n        /* \"#utility.yul\":36457:36461   */\n      0x11\n        /* \"#utility.yul\":36454:36455   */\n      0x04\n        /* \"#utility.yul\":36447:36462   */\n      mstore\n        /* \"#utility.yul\":36481:36485   */\n      0x24\n        /* \"#utility.yul\":36478:36479   */\n      0x00\n        /* \"#utility.yul\":36471:36486   */\n      revert\n        /* \"#utility.yul\":36498:36678   */\n    tag_674:\n        /* \"#utility.yul\":36546:36623   */\n      0x4e487b7100000000000000000000000000000000000000000000000000000000\n        /* \"#utility.yul\":36543:36544   */\n      0x00\n        /* \"#utility.yul\":36536:36624   */\n      mstore\n        /* \"#utility.yul\":36643:36647   */\n      0x12\n        /* \"#utility.yul\":36640:36641   */\n      0x04\n        /* \"#utility.yul\":36633:36648   */\n      mstore\n        /* \"#utility.yul\":36667:36671   */\n      0x24\n        /* \"#utility.yul\":36664:36665   */\n      0x00\n        /* \"#utility.yul\":36657:36672   */\n      revert\n        /* \"#utility.yul\":36684:36864   */\n    tag_699:\n        /* \"#utility.yul\":36732:36809   */\n      0x4e487b7100000000000000000000000000000000000000000000000000000000\n        /* \"#utility.yul\":36729:36730   */\n      0x00\n        /* \"#utility.yul\":36722:36810   */\n      mstore\n        /* \"#utility.yul\":36829:36833   */\n      0x22\n        /* \"#utility.yul\":36826:36827   */\n      0x04\n        /* \"#utility.yul\":36819:36834   */\n      mstore\n        /* \"#utility.yul\":36853:36857   */\n      0x24\n        /* \"#utility.yul\":36850:36851   */\n      0x00\n        /* \"#utility.yul\":36843:36858   */\n      revert\n        /* \"#utility.yul\":36870:37050   */\n    tag_231:\n        /* \"#utility.yul\":36918:36995   */\n      0x4e487b7100000000000000000000000000000000000000000000000000000000\n        /* \"#utility.yul\":36915:36916   */\n      0x00\n        /* \"#utility.yul\":36908:36996   */\n      mstore\n        /* \"#utility.yul\":37015:37019   */\n      0x32\n        /* \"#utility.yul\":37012:37013   */\n      0x04\n        /* \"#utility.yul\":37005:37020   */\n      mstore\n        /* \"#utility.yul\":37039:37043   */\n      0x24\n        /* \"#utility.yul\":37036:37037   */\n      0x00\n        /* \"#utility.yul\":37029:37044   */\n      revert\n        /* \"#utility.yul\":37056:37236   */\n    tag_651:\n        /* \"#utility.yul\":37104:37181   */\n      0x4e487b7100000000000000000000000000000000000000000000000000000000\n        /* \"#utility.yul\":37101:37102   */\n      0x00\n        /* \"#utility.yul\":37094:37182   */\n      mstore\n        /* \"#utility.yul\":37201:37205   */\n      0x41\n        /* \"#utility.yul\":37198:37199   */\n      0x04\n        /* \"#utility.yul\":37191:37206   */\n      mstore\n        /* \"#utility.yul\":37225:37229   */\n      0x24\n        /* \"#utility.yul\":37222:37223   */\n      0x00\n        /* \"#utility.yul\":37215:37230   */\n      revert\n        /* \"#utility.yul\":37242:37359   */\n    tag_329:\n        /* \"#utility.yul\":37351:37352   */\n      0x00\n        /* \"#utility.yul\":37348:37349   */\n      dup1\n        /* \"#utility.yul\":37341:37353   */\n      revert\n        /* \"#utility.yul\":37365:37482   */\n    tag_326:\n        /* \"#utility.yul\":37474:37475   */\n      0x00\n        /* \"#utility.yul\":37471:37472   */\n      dup1\n        /* \"#utility.yul\":37464:37476   */\n      revert\n        /* \"#utility.yul\":37488:37605   */\n    tag_332:\n        /* \"#utility.yul\":37597:37598   */\n      0x00\n        /* \"#utility.yul\":37594:37595   */\n      dup1\n        /* \"#utility.yul\":37587:37599   */\n      revert\n        /* \"#utility.yul\":37611:37728   */\n    tag_315:\n        /* \"#utility.yul\":37720:37721   */\n      0x00\n        /* \"#utility.yul\":37717:37718   */\n      dup1\n        /* \"#utility.yul\":37710:37722   */\n      revert\n        /* \"#utility.yul\":37734:37851   */\n    tag_349:\n        /* \"#utility.yul\":37843:37844   */\n      0x00\n        /* \"#utility.yul\":37840:37841   */\n      dup1\n        /* \"#utility.yul\":37833:37845   */\n      revert\n        /* \"#utility.yul\":37857:37974   */\n    tag_345:\n        /* \"#utility.yul\":37966:37967   */\n      0x00\n        /* \"#utility.yul\":37963:37964   */\n      dup1\n        /* \"#utility.yul\":37956:37968   */\n      revert\n        /* \"#utility.yul\":37980:38082   */\n    tag_480:\n        /* \"#utility.yul\":38021:38027   */\n      0x00\n        /* \"#utility.yul\":38072:38074   */\n      0x1f\n        /* \"#utility.yul\":38068:38075   */\n      not\n        /* \"#utility.yul\":38063:38065   */\n      0x1f\n        /* \"#utility.yul\":38056:38061   */\n      dup4\n        /* \"#utility.yul\":38052:38066   */\n      add\n        /* \"#utility.yul\":38048:38076   */\n      and\n        /* \"#utility.yul\":38038:38076   */\n      swap1\n      pop\n        /* \"#utility.yul\":37980:38082   */\n      swap2\n      swap1\n      pop\n      jump\t// out\n        /* \"#utility.yul\":38088:38269   */\n    tag_497:\n        /* \"#utility.yul\":38228:38261   */\n      0x526563697069656e7420697320616c7265616479207265676973746572656400\n        /* \"#utility.yul\":38224:38225   */\n      0x00\n        /* \"#utility.yul\":38216:38222   */\n      dup3\n        /* \"#utility.yul\":38212:38226   */\n      add\n        /* \"#utility.yul\":38205:38262   */\n      mstore\n        /* \"#utility.yul\":38088:38269   */\n      pop\n      jump\t// out\n        /* \"#utility.yul\":38275:38450   */\n    tag_502:\n        /* \"#utility.yul\":38415:38442   */\n      0x50726f706f73616c20616c726561647920637265617465642100000000000000\n        /* \"#utility.yul\":38411:38412   */\n      0x00\n        /* \"#utility.yul\":38403:38409   */\n      dup3\n        /* \"#utility.yul\":38399:38413   */\n      add\n        /* \"#utility.yul\":38392:38443   */\n      mstore\n        /* \"#utility.yul\":38275:38450   */\n      pop\n      jump\t// out\n        /* \"#utility.yul\":38456:38681   */\n    tag_507:\n        /* \"#utility.yul\":38596:38630   */\n      0x596f75206172656e277420617574686f72697a6520746f20636f6d70696c6520\n        /* \"#utility.yul\":38592:38593   */\n      0x00\n        /* \"#utility.yul\":38584:38590   */\n      dup3\n        /* \"#utility.yul\":38580:38594   */\n      add\n        /* \"#utility.yul\":38573:38631   */\n      mstore\n        /* \"#utility.yul\":38665:38673   */\n      0x42756e646c650000000000000000000000000000000000000000000000000000\n        /* \"#utility.yul\":38660:38662   */\n      0x20\n        /* \"#utility.yul\":38652:38658   */\n      dup3\n        /* \"#utility.yul\":38648:38663   */\n      add\n        /* \"#utility.yul\":38641:38674   */\n      mstore\n        /* \"#utility.yul\":38456:38681   */\n      pop\n      jump\t// out\n        /* \"#utility.yul\":38687:38865   */\n    tag_512:\n        /* \"#utility.yul\":38827:38857   */\n      0x596f7520616c72656164792073656e74206120726573706f6e73652e00000000\n        /* \"#utility.yul\":38823:38824   */\n      0x00\n        /* \"#utility.yul\":38815:38821   */\n      dup3\n        /* \"#utility.yul\":38811:38825   */\n      add\n        /* \"#utility.yul\":38804:38858   */\n      mstore\n        /* \"#utility.yul\":38687:38865   */\n      pop\n      jump\t// out\n        /* \"#utility.yul\":38871:39042   */\n    tag_517:\n        /* \"#utility.yul\":39011:39034   */\n      0x496e69746961746f722063616e277420766f7465210000000000000000000000\n        /* \"#utility.yul\":39007:39008   */\n      0x00\n        /* \"#utility.yul\":38999:39005   */\n      dup3\n        /* \"#utility.yul\":38995:39009   */\n      add\n        /* \"#utility.yul\":38988:39035   */\n      mstore\n        /* \"#utility.yul\":38871:39042   */\n      pop\n      jump\t// out\n        /* \"#utility.yul\":39048:39228   */\n    tag_522:\n        /* \"#utility.yul\":39188:39220   */\n      0x596f7520617265206e6f74207265676973746572656420746f20766f74650000\n        /* \"#utility.yul\":39184:39185   */\n      0x00\n        /* \"#utility.yul\":39176:39182   */\n      dup3\n        /* \"#utility.yul\":39172:39186   */\n      add\n        /* \"#utility.yul\":39165:39221   */\n      mstore\n        /* \"#utility.yul\":39048:39228   */\n      pop\n      jump\t// out\n        /* \"#utility.yul\":39234:39457   */\n    tag_527:\n        /* \"#utility.yul\":39374:39408   */\n      0x50726f706f73616c206861732072656163686564206974732065787069727920\n        /* \"#utility.yul\":39370:39371   */\n      0x00\n        /* \"#utility.yul\":39362:39368   */\n      dup3\n        /* \"#utility.yul\":39358:39372   */\n      add\n        /* \"#utility.yul\":39351:39409   */\n      mstore\n        /* \"#utility.yul\":39443:39449   */\n      0x6461746500000000000000000000000000000000000000000000000000000000\n        /* \"#utility.yul\":39438:39440   */\n      0x20\n        /* \"#utility.yul\":39430:39436   */\n      dup3\n        /* \"#utility.yul\":39426:39441   */\n      add\n        /* \"#utility.yul\":39419:39450   */\n      mstore\n        /* \"#utility.yul\":39234:39457   */\n      pop\n      jump\t// out\n        /* \"#utility.yul\":39463:39690   */\n    tag_532:\n        /* \"#utility.yul\":39603:39637   */\n      0x4f6e6c7920696e69746961746f722063616e2072656769737465722061207265\n        /* \"#utility.yul\":39599:39600   */\n      0x00\n        /* \"#utility.yul\":39591:39597   */\n      dup3\n        /* \"#utility.yul\":39587:39601   */\n      add\n        /* \"#utility.yul\":39580:39638   */\n      mstore\n        /* \"#utility.yul\":39672:39682   */\n      0x63697069656e742e000000000000000000000000000000000000000000000000\n        /* \"#utility.yul\":39667:39669   */\n      0x20\n        /* \"#utility.yul\":39659:39665   */\n      dup3\n        /* \"#utility.yul\":39655:39670   */\n      add\n        /* \"#utility.yul\":39648:39683   */\n      mstore\n        /* \"#utility.yul\":39463:39690   */\n      pop\n      jump\t// out\n        /* \"#utility.yul\":39696:39866   */\n    tag_537:\n        /* \"#utility.yul\":39836:39858   */\n      0x596f75206172656e277420496e69746961746f72000000000000000000000000\n        /* \"#utility.yul\":39832:39833   */\n      0x00\n        /* \"#utility.yul\":39824:39830   */\n      dup3\n        /* \"#utility.yul\":39820:39834   */\n      add\n        /* \"#utility.yul\":39813:39859   */\n      mstore\n        /* \"#utility.yul\":39696:39866   */\n      pop\n      jump\t// out\n        /* \"#utility.yul\":39872:40054   */\n    tag_542:\n        /* \"#utility.yul\":40012:40046   */\n      0x5665726469637420686173206e6f74206265656e207265616368656420796574\n        /* \"#utility.yul\":40008:40009   */\n      0x00\n        /* \"#utility.yul\":40000:40006   */\n      dup3\n        /* \"#utility.yul\":39996:40010   */\n      add\n        /* \"#utility.yul\":39989:40047   */\n      mstore\n        /* \"#utility.yul\":39872:40054   */\n      pop\n      jump\t// out\n        /* \"#utility.yul\":40060:40228   */\n    tag_547:\n        /* \"#utility.yul\":40200:40220   */\n      0x566f74696e672068617320657870697265640000000000000000000000000000\n        /* \"#utility.yul\":40196:40197   */\n      0x00\n        /* \"#utility.yul\":40188:40194   */\n      dup3\n        /* \"#utility.yul\":40184:40198   */\n      add\n        /* \"#utility.yul\":40177:40221   */\n      mstore\n        /* \"#utility.yul\":40060:40228   */\n      pop\n      jump\t// out\n        /* \"#utility.yul\":40234:40458   */\n    tag_552:\n        /* \"#utility.yul\":40374:40408   */\n      0x436f6e73656e7375732068617320616c7265616479206265656e2063616c6375\n        /* \"#utility.yul\":40370:40371   */\n      0x00\n        /* \"#utility.yul\":40362:40368   */\n      dup3\n        /* \"#utility.yul\":40358:40372   */\n      add\n        /* \"#utility.yul\":40351:40409   */\n      mstore\n        /* \"#utility.yul\":40443:40450   */\n      0x6c61746564000000000000000000000000000000000000000000000000000000\n        /* \"#utility.yul\":40438:40440   */\n      0x20\n        /* \"#utility.yul\":40430:40436   */\n      dup3\n        /* \"#utility.yul\":40426:40441   */\n      add\n        /* \"#utility.yul\":40419:40451   */\n      mstore\n        /* \"#utility.yul\":40234:40458   */\n      pop\n      jump\t// out\n        /* \"#utility.yul\":40464:40586   */\n    tag_321:\n        /* \"#utility.yul\":40537:40561   */\n      tag_733\n        /* \"#utility.yul\":40555:40560   */\n      dup2\n        /* \"#utility.yul\":40537:40561   */\n      tag_421\n      jump\t// in\n    tag_733:\n        /* \"#utility.yul\":40530:40535   */\n      dup2\n        /* \"#utility.yul\":40527:40562   */\n      eq\n        /* \"#utility.yul\":40517:40580   */\n      tag_734\n      jumpi\n        /* \"#utility.yul\":40576:40577   */\n      0x00\n        /* \"#utility.yul\":40573:40574   */\n      dup1\n        /* \"#utility.yul\":40566:40578   */\n      revert\n        /* \"#utility.yul\":40517:40580   */\n    tag_734:\n        /* \"#utility.yul\":40464:40586   */\n      pop\n      jump\t// out\n        /* \"#utility.yul\":40592:40714   */\n    tag_341:\n        /* \"#utility.yul\":40665:40689   */\n      tag_736\n        /* \"#utility.yul\":40683:40688   */\n      dup2\n        /* \"#utility.yul\":40665:40689   */\n      tag_574\n      jump\t// in\n    tag_736:\n        /* \"#utility.yul\":40658:40663   */\n      dup2\n        /* \"#utility.yul\":40655:40690   */\n      eq\n        /* \"#utility.yul\":40645:40708   */\n      tag_737\n      jumpi\n        /* \"#utility.yul\":40704:40705   */\n      0x00\n        /* \"#utility.yul\":40701:40702   */\n      dup1\n        /* \"#utility.yul\":40694:40706   */\n      revert\n        /* \"#utility.yul\":40645:40708   */\n    tag_737:\n        /* \"#utility.yul\":40592:40714   */\n      pop\n      jump\t// out\n\n    auxdata: 0xa2646970667358221220c673608637b39ca964eaaadc7fb2cee3681df4dcbaf9a1ac10ee68571e75900164736f6c63430008070033\n}\n",
				"bytecode": {
					"linkReferences": {},
					"object": "608060405234801561001057600080fd5b50613f01806100206000396000f3fe608060405234801561001057600080fd5b50600436106100cf5760003560e01c8063706e21051161008c5780638f6a35b7116100665780638f6a35b714610246578063c99ba89614610278578063c9bc42ed146102a8578063ec548680146102d8576100cf565b8063706e2105146101dc578063883a96731461020e5780638b5f41fb1461022a576100cf565b806306699b01146100d4578063089a4c601461010457806317072d6b1461013f57806333a0b0ab1461015b57806337f2e1901461018d5780633d63af0e146101c0575b600080fd5b6100ee60048036038101906100e99190612d05565b610308565b6040516100fb9190613478565b60405180910390f35b61011e60048036038101906101199190612be4565b61036c565b6040516101369c9b9a99989796959493929190613591565b60405180910390f35b61015960048036038101906101549190612c89565b61064f565b005b61017560048036038101906101709190612c2d565b610ff4565b604051610184939291906134ae565b60405180910390f35b6101a760048036038101906101a29190612b97565b61107b565b6040516101b7949392919061351c565b60405180910390f35b6101da60048036038101906101d59190612b37565b611301565b005b6101f660048036038101906101f19190612d61565b611762565b604051610205939291906134e5565b60405180910390f35b61022860048036038101906102239190612b97565b611974565b005b610244600480360381019061023f9190612e00565b611fb3565b005b610260600480360381019061025b9190612d05565b612412565b60405161026f939291906134ae565b60405180910390f35b610292600480360381019061028d9190612b97565b6124a5565b60405161029f919061356f565b60405180910390f35b6102c260048036038101906102bd9190612b97565b61255b565b6040516102cf91906137e7565b60405180910390f35b6102f260048036038101906102ed9190612b97565b6128d8565b6040516102ff9190613493565b60405180910390f35b600382805160208101820180518482526020830160208501208183528095505050505050818154811061033a57600080fd5b906000526020600020016000915091509054906101000a900473ffffffffffffffffffffffffffffffffffffffff1681565b6000818051602081018201805184825260208301602085012081835280955050505050506000915090508060000180546103a590613a72565b80601f01602080910402602001604051908101604052809291908181526020018280546103d190613a72565b801561041e5780601f106103f35761010080835404028352916020019161041e565b820191906000526020600020905b81548152906001019060200180831161040157829003601f168201915b5050505050908060010160009054906101000a900473ffffffffffffffffffffffffffffffffffffffff16908060020160009054906101000a900473ffffffffffffffffffffffffffffffffffffffff16908060030154908060040154908060050154908060060154908060070160009054906101000a900460ff16908060080154908060090180546104b090613a72565b80601f01602080910402602001604051908101604052809291908181526020018280546104dc90613a72565b80156105295780601f106104fe57610100808354040283529160200191610529565b820191906000526020600020905b81548152906001019060200180831161050c57829003601f168201915b50505050509080600a01805461053e90613a72565b80601f016020809104026020016040519081016040528092919081815260200182805461056a90613a72565b80156105b75780601f1061058c576101008083540402835291602001916105b7565b820191906000526020600020905b81548152906001019060200180831161059a57829003601f168201915b50505050509080600b0180546105cc90613a72565b80601f01602080910402602001604051908101604052809291908181526020018280546105f890613a72565b80156106455780601f1061061a57610100808354040283529160200191610645565b820191906000526020600020905b81548152906001019060200180831161062857829003601f168201915b505050505090508c565b60008282604051610661929190613448565b90815260200160405180910390206004015442106106b4576040517f08c379a00000000000000000000000000000000000000000000000000000000081526004016106ab906137a7565b60405180910390fd5b600073ffffffffffffffffffffffffffffffffffffffff16600183836040516106de929190613448565b908152602001604051809103902060003373ffffffffffffffffffffffffffffffffffffffff1673ffffffffffffffffffffffffffffffffffffffff16815260200190815260200160002060000160029054906101000a900473ffffffffffffffffffffffffffffffffffffffff1673ffffffffffffffffffffffffffffffffffffffff1614156107a4576040517f08c379a000000000000000000000000000000000000000000000000000000000815260040161079b90613707565b60405180910390fd5b600182826040516107b6929190613448565b908152602001604051809103902060003373ffffffffffffffffffffffffffffffffffffffff1673ffffffffffffffffffffffffffffffffffffffff16815260200190815260200160002060000160009054906101000a900460ff1615610852576040517f08c379a0000000000000000000000000000000000000000000000000000000008152600401610849906136c7565b60405180910390fd5b6040518060400160405280600981526020017f6920617070726f766500000000000000000000000000000000000000000000008152508051906020012083805190602001201415610b6d5760018083836040516108b0929190613448565b908152602001604051809103902060003373ffffffffffffffffffffffffffffffffffffffff1673ffffffffffffffffffffffffffffffffffffffff16815260200190815260200160002060000160006101000a81548160ff0219169083151502179055506001808383604051610928929190613448565b908152602001604051809103902060003373ffffffffffffffffffffffffffffffffffffffff1673ffffffffffffffffffffffffffffffffffffffff16815260200190815260200160002060000160016101000a81548160ff0219169083151502179055506001600083836040516109a1929190613448565b908152602001604051809103902060060160008282546109c191906138f0565b925050819055506001600083836040516109dc929190613448565b908152602001604051809103902060030160008282546109fc91906138f0565b9250508190555060028282604051610a15929190613448565b908152602001604051809103902060018383604051610a35929190613448565b908152602001604051809103902060003373ffffffffffffffffffffffffffffffffffffffff1673ffffffffffffffffffffffffffffffffffffffff168152602001908152602001600020908060018154018082558091505060019003906000526020600020016000909190919091506000820160009054906101000a900460ff168160000160006101000a81548160ff0219169083151502179055506000820160019054906101000a900460ff168160000160016101000a81548160ff0219169083151502179055506000820160029054906101000a900473ffffffffffffffffffffffffffffffffffffffff168160000160026101000a81548173ffffffffffffffffffffffffffffffffffffffff021916908373ffffffffffffffffffffffffffffffffffffffff1602179055505050610fef565b6040518060400160405280600c81526020017f6920646973617070726f766500000000000000000000000000000000000000008152508051906020012083805190602001201415610dd5576001808383604051610bcb929190613448565b908152602001604051809103902060003373ffffffffffffffffffffffffffffffffffffffff1673ffffffffffffffffffffffffffffffffffffffff16815260200190815260200160002060000160006101000a81548160ff021916908315150217905550600160008383604051610c44929190613448565b90815260200160405180910390206003016000828254610c6491906138f0565b9250508190555060028282604051610c7d929190613448565b908152602001604051809103902060018383604051610c9d929190613448565b908152602001604051809103902060003373ffffffffffffffffffffffffffffffffffffffff1673ffffffffffffffffffffffffffffffffffffffff168152602001908152602001600020908060018154018082558091505060019003906000526020600020016000909190919091506000820160009054906101000a900460ff168160000160006101000a81548160ff0219169083151502179055506000820160019054906101000a900460ff168160000160016101000a81548160ff0219169083151502179055506000820160029054906101000a900473ffffffffffffffffffffffffffffffffffffffff168160000160026101000a81548173ffffffffffffffffffffffffffffffffffffffff021916908373ffffffffffffffffffffffffffffffffffffffff1602179055505050610fee565b6001808383604051610de8929190613448565b908152602001604051809103902060003373ffffffffffffffffffffffffffffffffffffffff1673ffffffffffffffffffffffffffffffffffffffff16815260200190815260200160002060000160006101000a81548160ff021916908315150217905550600160008383604051610e61929190613448565b90815260200160405180910390206003016000828254610e8191906138f0565b9250508190555060028282604051610e9a929190613448565b908152602001604051809103902060018383604051610eba929190613448565b908152602001604051809103902060003373ffffffffffffffffffffffffffffffffffffffff1673ffffffffffffffffffffffffffffffffffffffff168152602001908152602001600020908060018154018082558091505060019003906000526020600020016000909190919091506000820160009054906101000a900460ff168160000160006101000a81548160ff0219169083151502179055506000820160019054906101000a900460ff168160000160016101000a81548160ff0219169083151502179055506000820160029054906101000a900473ffffffffffffffffffffffffffffffffffffffff168160000160026101000a81548173ffffffffffffffffffffffffffffffffffffffff021916908373ffffffffffffffffffffffffffffffffffffffff16021790555050505b5b505050565b600182805160208101820180518482526020830160208501208183528095505050505050602052806000526040600020600091509150508060000160009054906101000a900460ff16908060000160019054906101000a900460ff16908060000160029054906101000a900473ffffffffffffffffffffffffffffffffffffffff16905083565b600060606000606060008686604051611095929190613448565b9081526020016040518091039020600401544210156110e9576040517f08c379a00000000000000000000000000000000000000000000000000000000081526004016110e090613787565b60405180910390fd5b6000600287876040516110fd929190613448565b9081526020016040518091039020805480602002602001604051908101604052809291908181526020016000905b828210156111e5578382906000526020600020016040518060600160405290816000820160009054906101000a900460ff161515151581526020016000820160019054906101000a900460ff161515151581526020016000820160029054906101000a900473ffffffffffffffffffffffffffffffffffffffff1673ffffffffffffffffffffffffffffffffffffffff1673ffffffffffffffffffffffffffffffffffffffff16815250508152602001906001019061112b565b50505050905060008088886040516111fe929190613448565b9081526020016040518091039020600001805461121a90613a72565b80601f016020809104026020016040519081016040528092919081815260200182805461124690613a72565b80156112935780601f1061126857610100808354040283529160200191611293565b820191906000526020600020905b81548152906001019060200180831161127657829003601f168201915b5050505050905060008089896040516112ad929190613448565b90815260200160405180910390206008015490506000808a8a6040516112d4929190613448565b90815260200160405180910390206003015490508183828697509750975097505050505092959194509250565b60008282604051611313929190613448565b908152602001604051809103902060010160009054906101000a900473ffffffffffffffffffffffffffffffffffffffff1673ffffffffffffffffffffffffffffffffffffffff163373ffffffffffffffffffffffffffffffffffffffff16146113b2576040517f08c379a00000000000000000000000000000000000000000000000000000000081526004016113a990613747565b60405180910390fd5b600082826040516113c4929190613448565b908152602001604051809103902060010160009054906101000a900473ffffffffffffffffffffffffffffffffffffffff1673ffffffffffffffffffffffffffffffffffffffff168373ffffffffffffffffffffffffffffffffffffffff161415611464576040517f08c379a000000000000000000000000000000000000000000000000000000000815260040161145b906136e7565b60405180910390fd5b600073ffffffffffffffffffffffffffffffffffffffff166001838360405161148e929190613448565b908152602001604051809103902060008573ffffffffffffffffffffffffffffffffffffffff1673ffffffffffffffffffffffffffffffffffffffff16815260200190815260200160002060000160029054906101000a900473ffffffffffffffffffffffffffffffffffffffff1673ffffffffffffffffffffffffffffffffffffffff1614611553576040517f08c379a000000000000000000000000000000000000000000000000000000000815260040161154a90613667565b60405180910390fd5b60008282604051611565929190613448565b90815260200160405180910390206004015442106115b8576040517f08c379a00000000000000000000000000000000000000000000000000000000081526004016115af90613727565b60405180910390fd5b600060405180606001604052806000151581526020016000151581526020018573ffffffffffffffffffffffffffffffffffffffff1681525090508060018484604051611606929190613448565b908152602001604051809103902060008673ffffffffffffffffffffffffffffffffffffffff1673ffffffffffffffffffffffffffffffffffffffff16815260200190815260200160002060008201518160000160006101000a81548160ff02191690831515021790555060208201518160000160016101000a81548160ff02191690831515021790555060408201518160000160026101000a81548173ffffffffffffffffffffffffffffffffffffffff021916908373ffffffffffffffffffffffffffffffffffffffff160217905550905050600383836040516116ed929190613448565b9081526020016040518091039020849080600181540180825580915050600190039060005260206000200160009091909190916101000a81548173ffffffffffffffffffffffffffffffffffffffff021916908373ffffffffffffffffffffffffffffffffffffffff16021790555050505050565b600080600080876040516117769190613461565b908152602001604051809103902060010160009054906101000a900473ffffffffffffffffffffffffffffffffffffffff1673ffffffffffffffffffffffffffffffffffffffff163373ffffffffffffffffffffffffffffffffffffffff1614611815576040517f08c379a000000000000000000000000000000000000000000000000000000000815260040161180c90613767565b60405180910390fd5b600060019050600060019050600060019050600073ffffffffffffffffffffffffffffffffffffffff1660008b60405161184f9190613461565b908152602001604051809103902060010160009054906101000a900473ffffffffffffffffffffffffffffffffffffffff1673ffffffffffffffffffffffffffffffffffffffff1614156118b057600180600195509550955050505061196a565b60008a6040516118c09190613461565b90815260200160405180910390206005015489146118dd57600092505b60008a6040516118ed9190613461565b9081526020016040518091039020600b0160405161190b9190613431565b604051809103902087805190602001201461192557600091505b874261193191906138f0565b60008b6040516119419190613461565b9081526020016040518091039020600401541461195d57600090505b8282829550955095505050505b9450945094915050565b60008282604051611986929190613448565b9081526020016040518091039020600401544210156119da576040517f08c379a00000000000000000000000000000000000000000000000000000000081526004016119d190613787565b60405180910390fd5b60001515600083836040516119f0929190613448565b908152602001604051809103902060070160009054906101000a900460ff16151514611a51576040517f08c379a0000000000000000000000000000000000000000000000000000000008152600401611a48906137c7565b60405180910390fd5b60008282604051611a63929190613448565b908152602001604051809103902060010160009054906101000a900473ffffffffffffffffffffffffffffffffffffffff1673ffffffffffffffffffffffffffffffffffffffff163373ffffffffffffffffffffffffffffffffffffffff161480611b7b5750600073ffffffffffffffffffffffffffffffffffffffff1660018383604051611af3929190613448565b908152602001604051809103902060003373ffffffffffffffffffffffffffffffffffffffff1673ffffffffffffffffffffffffffffffffffffffff16815260200190815260200160002060000160029054906101000a900473ffffffffffffffffffffffffffffffffffffffff1673ffffffffffffffffffffffffffffffffffffffff1614155b611bba576040517f08c379a0000000000000000000000000000000000000000000000000000000008152600401611bb1906136a7565b60405180910390fd5b6000606460038484604051611bd0929190613448565b90815260200160405180910390208054905060008585604051611bf4929190613448565b908152602001604051809103902060060154611c109190613946565b611c1a9190613977565b905060008383604051611c2e929190613448565b9081526020016040518091039020600501548110611c8f577f416363657074656400000000000000000000000000000000000000000000000060008484604051611c79929190613448565b9081526020016040518091039020600801819055505b60005b60038484604051611ca4929190613448565b9081526020016040518091039020805490508160ff161015611f71576000151560018585604051611cd6929190613448565b9081526020016040518091039020600060038787604051611cf8929190613448565b90815260200160405180910390208460ff1681548110611d1b57611d1a613b8c565b5b9060005260206000200160009054906101000a900473ffffffffffffffffffffffffffffffffffffffff1673ffffffffffffffffffffffffffffffffffffffff1673ffffffffffffffffffffffffffffffffffffffff16815260200190815260200160002060000160009054906101000a900460ff1615151415611f5e5760028484604051611dab929190613448565b908152602001604051809103902060018585604051611dcb929190613448565b9081526020016040518091039020600060038787604051611ded929190613448565b90815260200160405180910390208460ff1681548110611e1057611e0f613b8c565b5b9060005260206000200160009054906101000a900473ffffffffffffffffffffffffffffffffffffffff1673ffffffffffffffffffffffffffffffffffffffff1673ffffffffffffffffffffffffffffffffffffffff168152602001908152602001600020908060018154018082558091505060019003906000526020600020016000909190919091506000820160009054906101000a900460ff168160000160006101000a81548160ff0219169083151502179055506000820160019054906101000a900460ff168160000160016101000a81548160ff0219169083151502179055506000820160029054906101000a900473ffffffffffffffffffffffffffffffffffffffff168160000160026101000a81548173ffffffffffffffffffffffffffffffffffffffff021916908373ffffffffffffffffffffffffffffffffffffffff16021790555050505b8080611f6990613ad5565b915050611c92565b50600160008484604051611f86929190613448565b908152602001604051809103902060070160006101000a81548160ff021916908315150217905550505050565b600073ffffffffffffffffffffffffffffffffffffffff16600087604051611fdb9190613461565b908152602001604051809103902060010160009054906101000a900473ffffffffffffffffffffffffffffffffffffffff1673ffffffffffffffffffffffffffffffffffffffff1614612063576040517f08c379a000000000000000000000000000000000000000000000000000000000815260040161205a90613687565b60405180910390fd5b60006040518061018001604052808881526020013373ffffffffffffffffffffffffffffffffffffffff1681526020013073ffffffffffffffffffffffffffffffffffffffff1681526020016000815260200187426120c291906138f0565b8152602001868152602001600081526020016000151581526020017f52656a65637465640000000000000000000000000000000000000000000000008152602001838152602001848152602001858152509050806000886040516121269190613461565b90815260200160405180910390206000820151816000019080519060200190612150929190612912565b5060208201518160010160006101000a81548173ffffffffffffffffffffffffffffffffffffffff021916908373ffffffffffffffffffffffffffffffffffffffff16021790555060408201518160020160006101000a81548173ffffffffffffffffffffffffffffffffffffffff021916908373ffffffffffffffffffffffffffffffffffffffff160217905550606082015181600301556080820151816004015560a0820151816005015560c0820151816006015560e08201518160070160006101000a81548160ff021916908315150217905550610100820151816008015561012082015181600901908051906020019061224f929190612912565b5061014082015181600a01908051906020019061226d929190612912565b5061016082015181600b01908051906020019061228b929190612912565b50905050806000846040516122a09190613461565b908152602001604051809103902060008201518160000190805190602001906122ca929190612912565b5060208201518160010160006101000a81548173ffffffffffffffffffffffffffffffffffffffff021916908373ffffffffffffffffffffffffffffffffffffffff16021790555060408201518160020160006101000a81548173ffffffffffffffffffffffffffffffffffffffff021916908373ffffffffffffffffffffffffffffffffffffffff160217905550606082015181600301556080820151816004015560a0820151816005015560c0820151816006015560e08201518160070160006101000a81548160ff02191690831515021790555061010082015181600801556101208201518160090190805190602001906123c9929190612912565b5061014082015181600a0190805190602001906123e7929190612912565b5061016082015181600b019080519060200190612405929190612912565b5090505050505050505050565b600282805160208101820180518482526020830160208501208183528095505050505050818154811061244457600080fd5b90600052602060002001600091509150508060000160009054906101000a900460ff16908060000160019054906101000a900460ff16908060000160029054906101000a900473ffffffffffffffffffffffffffffffffffffffff16905083565b6060600083836040516124b9929190613448565b908152602001604051809103902060000180546124d590613a72565b80601f016020809104026020016040519081016040528092919081815260200182805461250190613a72565b801561254e5780601f106125235761010080835404028352916020019161254e565b820191906000526020600020905b81548152906001019060200180831161253157829003601f168201915b5050505050905092915050565b612563612998565b60008383604051612575929190613448565b90815260200160405180910390206040518061018001604052908160008201805461259f90613a72565b80601f01602080910402602001604051908101604052809291908181526020018280546125cb90613a72565b80156126185780601f106125ed57610100808354040283529160200191612618565b820191906000526020600020905b8154815290600101906020018083116125fb57829003601f168201915b505050505081526020016001820160009054906101000a900473ffffffffffffffffffffffffffffffffffffffff1673ffffffffffffffffffffffffffffffffffffffff1673ffffffffffffffffffffffffffffffffffffffff1681526020016002820160009054906101000a900473ffffffffffffffffffffffffffffffffffffffff1673ffffffffffffffffffffffffffffffffffffffff1673ffffffffffffffffffffffffffffffffffffffff168152602001600382015481526020016004820154815260200160058201548152602001600682015481526020016007820160009054906101000a900460ff161515151581526020016008820154815260200160098201805461272a90613a72565b80601f016020809104026020016040519081016040528092919081815260200182805461275690613a72565b80156127a35780601f10612778576101008083540402835291602001916127a3565b820191906000526020600020905b81548152906001019060200180831161278657829003601f168201915b50505050508152602001600a820180546127bc90613a72565b80601f01602080910402602001604051908101604052809291908181526020018280546127e890613a72565b80156128355780601f1061280a57610100808354040283529160200191612835565b820191906000526020600020905b81548152906001019060200180831161281857829003601f168201915b50505050508152602001600b8201805461284e90613a72565b80601f016020809104026020016040519081016040528092919081815260200182805461287a90613a72565b80156128c75780601f1061289c576101008083540402835291602001916128c7565b820191906000526020600020905b8154815290600101906020018083116128aa57829003601f168201915b505050505081525050905092915050565b60008083836040516128eb929190613448565b908152602001604051809103902060070160009054906101000a900460ff16905092915050565b82805461291e90613a72565b90600052602060002090601f0160209004810192826129405760008555612987565b82601f1061295957805160ff1916838001178555612987565b82800160010185558215612987579182015b8281111561298657825182559160200191906001019061296b565b5b5090506129949190612a2a565b5090565b60405180610180016040528060608152602001600073ffffffffffffffffffffffffffffffffffffffff168152602001600073ffffffffffffffffffffffffffffffffffffffff16815260200160008152602001600081526020016000815260200160008152602001600015158152602001600080191681526020016060815260200160608152602001606081525090565b5b80821115612a43576000816000905550600101612a2b565b5090565b6000612a5a612a558461382e565b613809565b905082815260208101848484011115612a7657612a75613bf9565b5b612a81848285613a30565b509392505050565b600081359050612a9881613e9d565b92915050565b60008083601f840112612ab457612ab3613bef565b5b8235905067ffffffffffffffff811115612ad157612ad0613bea565b5b602083019150836001820283011115612aed57612aec613bf4565b5b9250929050565b600082601f830112612b0957612b08613bef565b5b8135612b19848260208601612a47565b91505092915050565b600081359050612b3181613eb4565b92915050565b600080600060408486031215612b5057612b4f613c03565b5b6000612b5e86828701612a89565b935050602084013567ffffffffffffffff811115612b7f57612b7e613bfe565b5b612b8b86828701612a9e565b92509250509250925092565b60008060208385031215612bae57612bad613c03565b5b600083013567ffffffffffffffff811115612bcc57612bcb613bfe565b5b612bd885828601612a9e565b92509250509250929050565b600060208284031215612bfa57612bf9613c03565b5b600082013567ffffffffffffffff811115612c1857612c17613bfe565b5b612c2484828501612af4565b91505092915050565b60008060408385031215612c4457612c43613c03565b5b600083013567ffffffffffffffff811115612c6257612c61613bfe565b5b612c6e85828601612af4565b9250506020612c7f85828601612a89565b9150509250929050565b600080600060408486031215612ca257612ca1613c03565b5b600084013567ffffffffffffffff811115612cc057612cbf613bfe565b5b612ccc86828701612af4565b935050602084013567ffffffffffffffff811115612ced57612cec613bfe565b5b612cf986828701612a9e565b92509250509250925092565b60008060408385031215612d1c57612d1b613c03565b5b600083013567ffffffffffffffff811115612d3a57612d39613bfe565b5b612d4685828601612af4565b9250506020612d5785828601612b22565b9150509250929050565b60008060008060808587031215612d7b57612d7a613c03565b5b600085013567ffffffffffffffff811115612d9957612d98613bfe565b5b612da587828801612af4565b9450506020612db687828801612b22565b9350506040612dc787828801612b22565b925050606085013567ffffffffffffffff811115612de857612de7613bfe565b5b612df487828801612af4565b91505092959194509250565b60008060008060008060c08789031215612e1d57612e1c613c03565b5b600087013567ffffffffffffffff811115612e3b57612e3a613bfe565b5b612e4789828a01612af4565b9650506020612e5889828a01612b22565b9550506040612e6989828a01612b22565b945050606087013567ffffffffffffffff811115612e8a57612e89613bfe565b5b612e9689828a01612af4565b935050608087013567ffffffffffffffff811115612eb757612eb6613bfe565b5b612ec389828a01612af4565b92505060a087013567ffffffffffffffff811115612ee457612ee3613bfe565b5b612ef089828a01612af4565b9150509295509295509295565b6000612f0983836133d1565b60608301905092915050565b612f1e816139d1565b82525050565b612f2d816139d1565b82525050565b6000612f3e82613884565b612f4881856138a7565b9350612f538361385f565b8060005b83811015612f84578151612f6b8882612efd565b9750612f768361389a565b925050600181019050612f57565b5085935050505092915050565b612f9a816139e3565b82525050565b612fa9816139e3565b82525050565b612fb8816139ef565b82525050565b612fc7816139ef565b82525050565b60008154612fda81613a72565b612fe481866138b8565b94506001821660008114612fff576001811461301057613043565b60ff19831686528186019350613043565b6130198561386f565b60005b8381101561303b5781548189015260018201915060208101905061301c565b838801955050505b50505092915050565b600061305883856138e5565b9350613065838584613a30565b82840190509392505050565b600061307c8261388f565b61308681856138c3565b9350613096818560208601613a3f565b61309f81613c08565b840191505092915050565b60006130b58261388f565b6130bf81856138d4565b93506130cf818560208601613a3f565b6130d881613c08565b840191505092915050565b60006130ee8261388f565b6130f881856138e5565b9350613108818560208601613a3f565b80840191505092915050565b6000613121601f836138d4565b915061312c82613c19565b602082019050919050565b60006131446019836138d4565b915061314f82613c42565b602082019050919050565b60006131676026836138d4565b915061317282613c6b565b604082019050919050565b600061318a601c836138d4565b915061319582613cba565b602082019050919050565b60006131ad6015836138d4565b91506131b882613ce3565b602082019050919050565b60006131d0601e836138d4565b91506131db82613d0c565b602082019050919050565b60006131f36024836138d4565b91506131fe82613d35565b604082019050919050565b60006132166028836138d4565b915061322182613d84565b604082019050919050565b60006132396014836138d4565b915061324482613dd3565b602082019050919050565b600061325c6020836138d4565b915061326782613dfc565b602082019050919050565b600061327f6012836138d4565b915061328a82613e25565b602082019050919050565b60006132a26025836138d4565b91506132ad82613e4e565b604082019050919050565b60006101808301600083015184820360008601526132d68282613071565b91505060208301516132eb6020860182612f15565b5060408301516132fe6040860182612f15565b5060608301516133116060860182613413565b5060808301516133246080860182613413565b5060a083015161333760a0860182613413565b5060c083015161334a60c0860182613413565b5060e083015161335d60e0860182612f91565b50610100830151613372610100860182612faf565b5061012083015184820361012086015261338c8282613071565b9150506101408301518482036101408601526133a88282613071565b9150506101608301518482036101608601526133c48282613071565b9150508091505092915050565b6060820160008201516133e76000850182612f91565b5060208201516133fa6020850182612f91565b50604082015161340d6040850182612f15565b50505050565b61341c81613a19565b82525050565b61342b81613a19565b82525050565b600061343d8284612fcd565b915081905092915050565b600061345582848661304c565b91508190509392505050565b600061346d82846130e3565b915081905092915050565b600060208201905061348d6000830184612f24565b92915050565b60006020820190506134a86000830184612fa0565b92915050565b60006060820190506134c36000830186612fa0565b6134d06020830185612fa0565b6134dd6040830184612f24565b949350505050565b60006060820190506134fa6000830186612fa0565b6135076020830185612fa0565b6135146040830184612fa0565b949350505050565b60006080820190506135316000830187612fbe565b818103602083015261354381866130aa565b90506135526040830185613422565b81810360608301526135648184612f33565b905095945050505050565b6000602082019050818103600083015261358981846130aa565b905092915050565b60006101808201905081810360008301526135ac818f6130aa565b90506135bb602083018e612f24565b6135c8604083018d612f24565b6135d5606083018c613422565b6135e2608083018b613422565b6135ef60a083018a613422565b6135fc60c0830189613422565b61360960e0830188612fa0565b613617610100830187612fbe565b81810361012083015261362a81866130aa565b905081810361014083015261363f81856130aa565b905081810361016083015261365481846130aa565b90509d9c50505050505050505050505050565b6000602082019050818103600083015261368081613114565b9050919050565b600060208201905081810360008301526136a081613137565b9050919050565b600060208201905081810360008301526136c08161315a565b9050919050565b600060208201905081810360008301526136e08161317d565b9050919050565b60006020820190508181036000830152613700816131a0565b9050919050565b60006020820190508181036000830152613720816131c3565b9050919050565b60006020820190508181036000830152613740816131e6565b9050919050565b6000602082019050818103600083015261376081613209565b9050919050565b600060208201905081810360008301526137808161322c565b9050919050565b600060208201905081810360008301526137a08161324f565b9050919050565b600060208201905081810360008301526137c081613272565b9050919050565b600060208201905081810360008301526137e081613295565b9050919050565b6000602082019050818103600083015261380181846132b8565b905092915050565b6000613813613824565b905061381f8282613aa4565b919050565b6000604051905090565b600067ffffffffffffffff82111561384957613848613bbb565b5b61385282613c08565b9050602081019050919050565b6000819050602082019050919050565b60008190508160005260206000209050919050565b600081519050919050565b600081519050919050565b6000602082019050919050565b600082825260208201905092915050565b600081905092915050565b600082825260208201905092915050565b600082825260208201905092915050565b600081905092915050565b60006138fb82613a19565b915061390683613a19565b9250827fffffffffffffffffffffffffffffffffffffffffffffffffffffffffffffffff0382111561393b5761393a613aff565b5b828201905092915050565b600061395182613a19565b915061395c83613a19565b92508261396c5761396b613b2e565b5b828204905092915050565b600061398282613a19565b915061398d83613a19565b9250817fffffffffffffffffffffffffffffffffffffffffffffffffffffffffffffffff04831182151516156139c6576139c5613aff565b5b828202905092915050565b60006139dc826139f9565b9050919050565b60008115159050919050565b6000819050919050565b600073ffffffffffffffffffffffffffffffffffffffff82169050919050565b6000819050919050565b600060ff82169050919050565b82818337600083830152505050565b60005b83811015613a5d578082015181840152602081019050613a42565b83811115613a6c576000848401525b50505050565b60006002820490506001821680613a8a57607f821691505b60208210811415613a9e57613a9d613b5d565b5b50919050565b613aad82613c08565b810181811067ffffffffffffffff82111715613acc57613acb613bbb565b5b80604052505050565b6000613ae082613a23565b915060ff821415613af457613af3613aff565b5b600182019050919050565b7f4e487b7100000000000000000000000000000000000000000000000000000000600052601160045260246000fd5b7f4e487b7100000000000000000000000000000000000000000000000000000000600052601260045260246000fd5b7f4e487b7100000000000000000000000000000000000000000000000000000000600052602260045260246000fd5b7f4e487b7100000000000000000000000000000000000000000000000000000000600052603260045260246000fd5b7f4e487b7100000000000000000000000000000000000000000000000000000000600052604160045260246000fd5b600080fd5b600080fd5b600080fd5b600080fd5b600080fd5b600080fd5b6000601f19601f8301169050919050565b7f526563697069656e7420697320616c7265616479207265676973746572656400600082015250565b7f50726f706f73616c20616c726561647920637265617465642100000000000000600082015250565b7f596f75206172656e277420617574686f72697a6520746f20636f6d70696c652060008201527f42756e646c650000000000000000000000000000000000000000000000000000602082015250565b7f596f7520616c72656164792073656e74206120726573706f6e73652e00000000600082015250565b7f496e69746961746f722063616e277420766f7465210000000000000000000000600082015250565b7f596f7520617265206e6f74207265676973746572656420746f20766f74650000600082015250565b7f50726f706f73616c20686173207265616368656420697473206578706972792060008201527f6461746500000000000000000000000000000000000000000000000000000000602082015250565b7f4f6e6c7920696e69746961746f722063616e207265676973746572206120726560008201527f63697069656e742e000000000000000000000000000000000000000000000000602082015250565b7f596f75206172656e277420496e69746961746f72000000000000000000000000600082015250565b7f5665726469637420686173206e6f74206265656e207265616368656420796574600082015250565b7f566f74696e672068617320657870697265640000000000000000000000000000600082015250565b7f436f6e73656e7375732068617320616c7265616479206265656e2063616c637560008201527f6c61746564000000000000000000000000000000000000000000000000000000602082015250565b613ea6816139d1565b8114613eb157600080fd5b50565b613ebd81613a19565b8114613ec857600080fd5b5056fea2646970667358221220c673608637b39ca964eaaadc7fb2cee3681df4dcbaf9a1ac10ee68571e75900164736f6c63430008070033",
					"opcodes": "PUSH1 0x80 PUSH1 0x40 MSTORE CALLVALUE DUP1 ISZERO PUSH2 0x10 JUMPI PUSH1 0x0 DUP1 REVERT JUMPDEST POP PUSH2 0x3F01 DUP1 PUSH2 0x20 PUSH1 0x0 CODECOPY PUSH1 0x0 RETURN INVALID PUSH1 0x80 PUSH1 0x40 MSTORE CALLVALUE DUP1 ISZERO PUSH2 0x10 JUMPI PUSH1 0x0 DUP1 REVERT JUMPDEST POP PUSH1 0x4 CALLDATASIZE LT PUSH2 0xCF JUMPI PUSH1 0x0 CALLDATALOAD PUSH1 0xE0 SHR DUP1 PUSH4 0x706E2105 GT PUSH2 0x8C JUMPI DUP1 PUSH4 0x8F6A35B7 GT PUSH2 0x66 JUMPI DUP1 PUSH4 0x8F6A35B7 EQ PUSH2 0x246 JUMPI DUP1 PUSH4 0xC99BA896 EQ PUSH2 0x278 JUMPI DUP1 PUSH4 0xC9BC42ED EQ PUSH2 0x2A8 JUMPI DUP1 PUSH4 0xEC548680 EQ PUSH2 0x2D8 JUMPI PUSH2 0xCF JUMP JUMPDEST DUP1 PUSH4 0x706E2105 EQ PUSH2 0x1DC JUMPI DUP1 PUSH4 0x883A9673 EQ PUSH2 0x20E JUMPI DUP1 PUSH4 0x8B5F41FB EQ PUSH2 0x22A JUMPI PUSH2 0xCF JUMP JUMPDEST DUP1 PUSH4 0x6699B01 EQ PUSH2 0xD4 JUMPI DUP1 PUSH4 0x89A4C60 EQ PUSH2 0x104 JUMPI DUP1 PUSH4 0x17072D6B EQ PUSH2 0x13F JUMPI DUP1 PUSH4 0x33A0B0AB EQ PUSH2 0x15B JUMPI DUP1 PUSH4 0x37F2E190 EQ PUSH2 0x18D JUMPI DUP1 PUSH4 0x3D63AF0E EQ PUSH2 0x1C0 JUMPI JUMPDEST PUSH1 0x0 DUP1 REVERT JUMPDEST PUSH2 0xEE PUSH1 0x4 DUP1 CALLDATASIZE SUB DUP2 ADD SWAP1 PUSH2 0xE9 SWAP2 SWAP1 PUSH2 0x2D05 JUMP JUMPDEST PUSH2 0x308 JUMP JUMPDEST PUSH1 0x40 MLOAD PUSH2 0xFB SWAP2 SWAP1 PUSH2 0x3478 JUMP JUMPDEST PUSH1 0x40 MLOAD DUP1 SWAP2 SUB SWAP1 RETURN JUMPDEST PUSH2 0x11E PUSH1 0x4 DUP1 CALLDATASIZE SUB DUP2 ADD SWAP1 PUSH2 0x119 SWAP2 SWAP1 PUSH2 0x2BE4 JUMP JUMPDEST PUSH2 0x36C JUMP JUMPDEST PUSH1 0x40 MLOAD PUSH2 0x136 SWAP13 SWAP12 SWAP11 SWAP10 SWAP9 SWAP8 SWAP7 SWAP6 SWAP5 SWAP4 SWAP3 SWAP2 SWAP1 PUSH2 0x3591 JUMP JUMPDEST PUSH1 0x40 MLOAD DUP1 SWAP2 SUB SWAP1 RETURN JUMPDEST PUSH2 0x159 PUSH1 0x4 DUP1 CALLDATASIZE SUB DUP2 ADD SWAP1 PUSH2 0x154 SWAP2 SWAP1 PUSH2 0x2C89 JUMP JUMPDEST PUSH2 0x64F JUMP JUMPDEST STOP JUMPDEST PUSH2 0x175 PUSH1 0x4 DUP1 CALLDATASIZE SUB DUP2 ADD SWAP1 PUSH2 0x170 SWAP2 SWAP1 PUSH2 0x2C2D JUMP JUMPDEST PUSH2 0xFF4 JUMP JUMPDEST PUSH1 0x40 MLOAD PUSH2 0x184 SWAP4 SWAP3 SWAP2 SWAP1 PUSH2 0x34AE JUMP JUMPDEST PUSH1 0x40 MLOAD DUP1 SWAP2 SUB SWAP1 RETURN JUMPDEST PUSH2 0x1A7 PUSH1 0x4 DUP1 CALLDATASIZE SUB DUP2 ADD SWAP1 PUSH2 0x1A2 SWAP2 SWAP1 PUSH2 0x2B97 JUMP JUMPDEST PUSH2 0x107B JUMP JUMPDEST PUSH1 0x40 MLOAD PUSH2 0x1B7 SWAP5 SWAP4 SWAP3 SWAP2 SWAP1 PUSH2 0x351C JUMP JUMPDEST PUSH1 0x40 MLOAD DUP1 SWAP2 SUB SWAP1 RETURN JUMPDEST PUSH2 0x1DA PUSH1 0x4 DUP1 CALLDATASIZE SUB DUP2 ADD SWAP1 PUSH2 0x1D5 SWAP2 SWAP1 PUSH2 0x2B37 JUMP JUMPDEST PUSH2 0x1301 JUMP JUMPDEST STOP JUMPDEST PUSH2 0x1F6 PUSH1 0x4 DUP1 CALLDATASIZE SUB DUP2 ADD SWAP1 PUSH2 0x1F1 SWAP2 SWAP1 PUSH2 0x2D61 JUMP JUMPDEST PUSH2 0x1762 JUMP JUMPDEST PUSH1 0x40 MLOAD PUSH2 0x205 SWAP4 SWAP3 SWAP2 SWAP1 PUSH2 0x34E5 JUMP JUMPDEST PUSH1 0x40 MLOAD DUP1 SWAP2 SUB SWAP1 RETURN JUMPDEST PUSH2 0x228 PUSH1 0x4 DUP1 CALLDATASIZE SUB DUP2 ADD SWAP1 PUSH2 0x223 SWAP2 SWAP1 PUSH2 0x2B97 JUMP JUMPDEST PUSH2 0x1974 JUMP JUMPDEST STOP JUMPDEST PUSH2 0x244 PUSH1 0x4 DUP1 CALLDATASIZE SUB DUP2 ADD SWAP1 PUSH2 0x23F SWAP2 SWAP1 PUSH2 0x2E00 JUMP JUMPDEST PUSH2 0x1FB3 JUMP JUMPDEST STOP JUMPDEST PUSH2 0x260 PUSH1 0x4 DUP1 CALLDATASIZE SUB DUP2 ADD SWAP1 PUSH2 0x25B SWAP2 SWAP1 PUSH2 0x2D05 JUMP JUMPDEST PUSH2 0x2412 JUMP JUMPDEST PUSH1 0x40 MLOAD PUSH2 0x26F SWAP4 SWAP3 SWAP2 SWAP1 PUSH2 0x34AE JUMP JUMPDEST PUSH1 0x40 MLOAD DUP1 SWAP2 SUB SWAP1 RETURN JUMPDEST PUSH2 0x292 PUSH1 0x4 DUP1 CALLDATASIZE SUB DUP2 ADD SWAP1 PUSH2 0x28D SWAP2 SWAP1 PUSH2 0x2B97 JUMP JUMPDEST PUSH2 0x24A5 JUMP JUMPDEST PUSH1 0x40 MLOAD PUSH2 0x29F SWAP2 SWAP1 PUSH2 0x356F JUMP JUMPDEST PUSH1 0x40 MLOAD DUP1 SWAP2 SUB SWAP1 RETURN JUMPDEST PUSH2 0x2C2 PUSH1 0x4 DUP1 CALLDATASIZE SUB DUP2 ADD SWAP1 PUSH2 0x2BD SWAP2 SWAP1 PUSH2 0x2B97 JUMP JUMPDEST PUSH2 0x255B JUMP JUMPDEST PUSH1 0x40 MLOAD PUSH2 0x2CF SWAP2 SWAP1 PUSH2 0x37E7 JUMP JUMPDEST PUSH1 0x40 MLOAD DUP1 SWAP2 SUB SWAP1 RETURN JUMPDEST PUSH2 0x2F2 PUSH1 0x4 DUP1 CALLDATASIZE SUB DUP2 ADD SWAP1 PUSH2 0x2ED SWAP2 SWAP1 PUSH2 0x2B97 JUMP JUMPDEST PUSH2 0x28D8 JUMP JUMPDEST PUSH1 0x40 MLOAD PUSH2 0x2FF SWAP2 SWAP1 PUSH2 0x3493 JUMP JUMPDEST PUSH1 0x40 MLOAD DUP1 SWAP2 SUB SWAP1 RETURN JUMPDEST PUSH1 0x3 DUP3 DUP1 MLOAD PUSH1 0x20 DUP2 ADD DUP3 ADD DUP1 MLOAD DUP5 DUP3 MSTORE PUSH1 0x20 DUP4 ADD PUSH1 0x20 DUP6 ADD KECCAK256 DUP2 DUP4 MSTORE DUP1 SWAP6 POP POP POP POP POP POP DUP2 DUP2 SLOAD DUP2 LT PUSH2 0x33A JUMPI PUSH1 0x0 DUP1 REVERT JUMPDEST SWAP1 PUSH1 0x0 MSTORE PUSH1 0x20 PUSH1 0x0 KECCAK256 ADD PUSH1 0x0 SWAP2 POP SWAP2 POP SWAP1 SLOAD SWAP1 PUSH2 0x100 EXP SWAP1 DIV PUSH20 0xFFFFFFFFFFFFFFFFFFFFFFFFFFFFFFFFFFFFFFFF AND DUP2 JUMP JUMPDEST PUSH1 0x0 DUP2 DUP1 MLOAD PUSH1 0x20 DUP2 ADD DUP3 ADD DUP1 MLOAD DUP5 DUP3 MSTORE PUSH1 0x20 DUP4 ADD PUSH1 0x20 DUP6 ADD KECCAK256 DUP2 DUP4 MSTORE DUP1 SWAP6 POP POP POP POP POP POP PUSH1 0x0 SWAP2 POP SWAP1 POP DUP1 PUSH1 0x0 ADD DUP1 SLOAD PUSH2 0x3A5 SWAP1 PUSH2 0x3A72 JUMP JUMPDEST DUP1 PUSH1 0x1F ADD PUSH1 0x20 DUP1 SWAP2 DIV MUL PUSH1 0x20 ADD PUSH1 0x40 MLOAD SWAP1 DUP2 ADD PUSH1 0x40 MSTORE DUP1 SWAP3 SWAP2 SWAP1 DUP2 DUP2 MSTORE PUSH1 0x20 ADD DUP3 DUP1 SLOAD PUSH2 0x3D1 SWAP1 PUSH2 0x3A72 JUMP JUMPDEST DUP1 ISZERO PUSH2 0x41E JUMPI DUP1 PUSH1 0x1F LT PUSH2 0x3F3 JUMPI PUSH2 0x100 DUP1 DUP4 SLOAD DIV MUL DUP4 MSTORE SWAP2 PUSH1 0x20 ADD SWAP2 PUSH2 0x41E JUMP JUMPDEST DUP3 ADD SWAP2 SWAP1 PUSH1 0x0 MSTORE PUSH1 0x20 PUSH1 0x0 KECCAK256 SWAP1 JUMPDEST DUP2 SLOAD DUP2 MSTORE SWAP1 PUSH1 0x1 ADD SWAP1 PUSH1 0x20 ADD DUP1 DUP4 GT PUSH2 0x401 JUMPI DUP3 SWAP1 SUB PUSH1 0x1F AND DUP3 ADD SWAP2 JUMPDEST POP POP POP POP POP SWAP1 DUP1 PUSH1 0x1 ADD PUSH1 0x0 SWAP1 SLOAD SWAP1 PUSH2 0x100 EXP SWAP1 DIV PUSH20 0xFFFFFFFFFFFFFFFFFFFFFFFFFFFFFFFFFFFFFFFF AND SWAP1 DUP1 PUSH1 0x2 ADD PUSH1 0x0 SWAP1 SLOAD SWAP1 PUSH2 0x100 EXP SWAP1 DIV PUSH20 0xFFFFFFFFFFFFFFFFFFFFFFFFFFFFFFFFFFFFFFFF AND SWAP1 DUP1 PUSH1 0x3 ADD SLOAD SWAP1 DUP1 PUSH1 0x4 ADD SLOAD SWAP1 DUP1 PUSH1 0x5 ADD SLOAD SWAP1 DUP1 PUSH1 0x6 ADD SLOAD SWAP1 DUP1 PUSH1 0x7 ADD PUSH1 0x0 SWAP1 SLOAD SWAP1 PUSH2 0x100 EXP SWAP1 DIV PUSH1 0xFF AND SWAP1 DUP1 PUSH1 0x8 ADD SLOAD SWAP1 DUP1 PUSH1 0x9 ADD DUP1 SLOAD PUSH2 0x4B0 SWAP1 PUSH2 0x3A72 JUMP JUMPDEST DUP1 PUSH1 0x1F ADD PUSH1 0x20 DUP1 SWAP2 DIV MUL PUSH1 0x20 ADD PUSH1 0x40 MLOAD SWAP1 DUP2 ADD PUSH1 0x40 MSTORE DUP1 SWAP3 SWAP2 SWAP1 DUP2 DUP2 MSTORE PUSH1 0x20 ADD DUP3 DUP1 SLOAD PUSH2 0x4DC SWAP1 PUSH2 0x3A72 JUMP JUMPDEST DUP1 ISZERO PUSH2 0x529 JUMPI DUP1 PUSH1 0x1F LT PUSH2 0x4FE JUMPI PUSH2 0x100 DUP1 DUP4 SLOAD DIV MUL DUP4 MSTORE SWAP2 PUSH1 0x20 ADD SWAP2 PUSH2 0x529 JUMP JUMPDEST DUP3 ADD SWAP2 SWAP1 PUSH1 0x0 MSTORE PUSH1 0x20 PUSH1 0x0 KECCAK256 SWAP1 JUMPDEST DUP2 SLOAD DUP2 MSTORE SWAP1 PUSH1 0x1 ADD SWAP1 PUSH1 0x20 ADD DUP1 DUP4 GT PUSH2 0x50C JUMPI DUP3 SWAP1 SUB PUSH1 0x1F AND DUP3 ADD SWAP2 JUMPDEST POP POP POP POP POP SWAP1 DUP1 PUSH1 0xA ADD DUP1 SLOAD PUSH2 0x53E SWAP1 PUSH2 0x3A72 JUMP JUMPDEST DUP1 PUSH1 0x1F ADD PUSH1 0x20 DUP1 SWAP2 DIV MUL PUSH1 0x20 ADD PUSH1 0x40 MLOAD SWAP1 DUP2 ADD PUSH1 0x40 MSTORE DUP1 SWAP3 SWAP2 SWAP1 DUP2 DUP2 MSTORE PUSH1 0x20 ADD DUP3 DUP1 SLOAD PUSH2 0x56A SWAP1 PUSH2 0x3A72 JUMP JUMPDEST DUP1 ISZERO PUSH2 0x5B7 JUMPI DUP1 PUSH1 0x1F LT PUSH2 0x58C JUMPI PUSH2 0x100 DUP1 DUP4 SLOAD DIV MUL DUP4 MSTORE SWAP2 PUSH1 0x20 ADD SWAP2 PUSH2 0x5B7 JUMP JUMPDEST DUP3 ADD SWAP2 SWAP1 PUSH1 0x0 MSTORE PUSH1 0x20 PUSH1 0x0 KECCAK256 SWAP1 JUMPDEST DUP2 SLOAD DUP2 MSTORE SWAP1 PUSH1 0x1 ADD SWAP1 PUSH1 0x20 ADD DUP1 DUP4 GT PUSH2 0x59A JUMPI DUP3 SWAP1 SUB PUSH1 0x1F AND DUP3 ADD SWAP2 JUMPDEST POP POP POP POP POP SWAP1 DUP1 PUSH1 0xB ADD DUP1 SLOAD PUSH2 0x5CC SWAP1 PUSH2 0x3A72 JUMP JUMPDEST DUP1 PUSH1 0x1F ADD PUSH1 0x20 DUP1 SWAP2 DIV MUL PUSH1 0x20 ADD PUSH1 0x40 MLOAD SWAP1 DUP2 ADD PUSH1 0x40 MSTORE DUP1 SWAP3 SWAP2 SWAP1 DUP2 DUP2 MSTORE PUSH1 0x20 ADD DUP3 DUP1 SLOAD PUSH2 0x5F8 SWAP1 PUSH2 0x3A72 JUMP JUMPDEST DUP1 ISZERO PUSH2 0x645 JUMPI DUP1 PUSH1 0x1F LT PUSH2 0x61A JUMPI PUSH2 0x100 DUP1 DUP4 SLOAD DIV MUL DUP4 MSTORE SWAP2 PUSH1 0x20 ADD SWAP2 PUSH2 0x645 JUMP JUMPDEST DUP3 ADD SWAP2 SWAP1 PUSH1 0x0 MSTORE PUSH1 0x20 PUSH1 0x0 KECCAK256 SWAP1 JUMPDEST DUP2 SLOAD DUP2 MSTORE SWAP1 PUSH1 0x1 ADD SWAP1 PUSH1 0x20 ADD DUP1 DUP4 GT PUSH2 0x628 JUMPI DUP3 SWAP1 SUB PUSH1 0x1F AND DUP3 ADD SWAP2 JUMPDEST POP POP POP POP POP SWAP1 POP DUP13 JUMP JUMPDEST PUSH1 0x0 DUP3 DUP3 PUSH1 0x40 MLOAD PUSH2 0x661 SWAP3 SWAP2 SWAP1 PUSH2 0x3448 JUMP JUMPDEST SWAP1 DUP2 MSTORE PUSH1 0x20 ADD PUSH1 0x40 MLOAD DUP1 SWAP2 SUB SWAP1 KECCAK256 PUSH1 0x4 ADD SLOAD TIMESTAMP LT PUSH2 0x6B4 JUMPI PUSH1 0x40 MLOAD PUSH32 0x8C379A000000000000000000000000000000000000000000000000000000000 DUP2 MSTORE PUSH1 0x4 ADD PUSH2 0x6AB SWAP1 PUSH2 0x37A7 JUMP JUMPDEST PUSH1 0x40 MLOAD DUP1 SWAP2 SUB SWAP1 REVERT JUMPDEST PUSH1 0x0 PUSH20 0xFFFFFFFFFFFFFFFFFFFFFFFFFFFFFFFFFFFFFFFF AND PUSH1 0x1 DUP4 DUP4 PUSH1 0x40 MLOAD PUSH2 0x6DE SWAP3 SWAP2 SWAP1 PUSH2 0x3448 JUMP JUMPDEST SWAP1 DUP2 MSTORE PUSH1 0x20 ADD PUSH1 0x40 MLOAD DUP1 SWAP2 SUB SWAP1 KECCAK256 PUSH1 0x0 CALLER PUSH20 0xFFFFFFFFFFFFFFFFFFFFFFFFFFFFFFFFFFFFFFFF AND PUSH20 0xFFFFFFFFFFFFFFFFFFFFFFFFFFFFFFFFFFFFFFFF AND DUP2 MSTORE PUSH1 0x20 ADD SWAP1 DUP2 MSTORE PUSH1 0x20 ADD PUSH1 0x0 KECCAK256 PUSH1 0x0 ADD PUSH1 0x2 SWAP1 SLOAD SWAP1 PUSH2 0x100 EXP SWAP1 DIV PUSH20 0xFFFFFFFFFFFFFFFFFFFFFFFFFFFFFFFFFFFFFFFF AND PUSH20 0xFFFFFFFFFFFFFFFFFFFFFFFFFFFFFFFFFFFFFFFF AND EQ ISZERO PUSH2 0x7A4 JUMPI PUSH1 0x40 MLOAD PUSH32 0x8C379A000000000000000000000000000000000000000000000000000000000 DUP2 MSTORE PUSH1 0x4 ADD PUSH2 0x79B SWAP1 PUSH2 0x3707 JUMP JUMPDEST PUSH1 0x40 MLOAD DUP1 SWAP2 SUB SWAP1 REVERT JUMPDEST PUSH1 0x1 DUP3 DUP3 PUSH1 0x40 MLOAD PUSH2 0x7B6 SWAP3 SWAP2 SWAP1 PUSH2 0x3448 JUMP JUMPDEST SWAP1 DUP2 MSTORE PUSH1 0x20 ADD PUSH1 0x40 MLOAD DUP1 SWAP2 SUB SWAP1 KECCAK256 PUSH1 0x0 CALLER PUSH20 0xFFFFFFFFFFFFFFFFFFFFFFFFFFFFFFFFFFFFFFFF AND PUSH20 0xFFFFFFFFFFFFFFFFFFFFFFFFFFFFFFFFFFFFFFFF AND DUP2 MSTORE PUSH1 0x20 ADD SWAP1 DUP2 MSTORE PUSH1 0x20 ADD PUSH1 0x0 KECCAK256 PUSH1 0x0 ADD PUSH1 0x0 SWAP1 SLOAD SWAP1 PUSH2 0x100 EXP SWAP1 DIV PUSH1 0xFF AND ISZERO PUSH2 0x852 JUMPI PUSH1 0x40 MLOAD PUSH32 0x8C379A000000000000000000000000000000000000000000000000000000000 DUP2 MSTORE PUSH1 0x4 ADD PUSH2 0x849 SWAP1 PUSH2 0x36C7 JUMP JUMPDEST PUSH1 0x40 MLOAD DUP1 SWAP2 SUB SWAP1 REVERT JUMPDEST PUSH1 0x40 MLOAD DUP1 PUSH1 0x40 ADD PUSH1 0x40 MSTORE DUP1 PUSH1 0x9 DUP2 MSTORE PUSH1 0x20 ADD PUSH32 0x6920617070726F76650000000000000000000000000000000000000000000000 DUP2 MSTORE POP DUP1 MLOAD SWAP1 PUSH1 0x20 ADD KECCAK256 DUP4 DUP1 MLOAD SWAP1 PUSH1 0x20 ADD KECCAK256 EQ ISZERO PUSH2 0xB6D JUMPI PUSH1 0x1 DUP1 DUP4 DUP4 PUSH1 0x40 MLOAD PUSH2 0x8B0 SWAP3 SWAP2 SWAP1 PUSH2 0x3448 JUMP JUMPDEST SWAP1 DUP2 MSTORE PUSH1 0x20 ADD PUSH1 0x40 MLOAD DUP1 SWAP2 SUB SWAP1 KECCAK256 PUSH1 0x0 CALLER PUSH20 0xFFFFFFFFFFFFFFFFFFFFFFFFFFFFFFFFFFFFFFFF AND PUSH20 0xFFFFFFFFFFFFFFFFFFFFFFFFFFFFFFFFFFFFFFFF AND DUP2 MSTORE PUSH1 0x20 ADD SWAP1 DUP2 MSTORE PUSH1 0x20 ADD PUSH1 0x0 KECCAK256 PUSH1 0x0 ADD PUSH1 0x0 PUSH2 0x100 EXP DUP2 SLOAD DUP2 PUSH1 0xFF MUL NOT AND SWAP1 DUP4 ISZERO ISZERO MUL OR SWAP1 SSTORE POP PUSH1 0x1 DUP1 DUP4 DUP4 PUSH1 0x40 MLOAD PUSH2 0x928 SWAP3 SWAP2 SWAP1 PUSH2 0x3448 JUMP JUMPDEST SWAP1 DUP2 MSTORE PUSH1 0x20 ADD PUSH1 0x40 MLOAD DUP1 SWAP2 SUB SWAP1 KECCAK256 PUSH1 0x0 CALLER PUSH20 0xFFFFFFFFFFFFFFFFFFFFFFFFFFFFFFFFFFFFFFFF AND PUSH20 0xFFFFFFFFFFFFFFFFFFFFFFFFFFFFFFFFFFFFFFFF AND DUP2 MSTORE PUSH1 0x20 ADD SWAP1 DUP2 MSTORE PUSH1 0x20 ADD PUSH1 0x0 KECCAK256 PUSH1 0x0 ADD PUSH1 0x1 PUSH2 0x100 EXP DUP2 SLOAD DUP2 PUSH1 0xFF MUL NOT AND SWAP1 DUP4 ISZERO ISZERO MUL OR SWAP1 SSTORE POP PUSH1 0x1 PUSH1 0x0 DUP4 DUP4 PUSH1 0x40 MLOAD PUSH2 0x9A1 SWAP3 SWAP2 SWAP1 PUSH2 0x3448 JUMP JUMPDEST SWAP1 DUP2 MSTORE PUSH1 0x20 ADD PUSH1 0x40 MLOAD DUP1 SWAP2 SUB SWAP1 KECCAK256 PUSH1 0x6 ADD PUSH1 0x0 DUP3 DUP3 SLOAD PUSH2 0x9C1 SWAP2 SWAP1 PUSH2 0x38F0 JUMP JUMPDEST SWAP3 POP POP DUP2 SWAP1 SSTORE POP PUSH1 0x1 PUSH1 0x0 DUP4 DUP4 PUSH1 0x40 MLOAD PUSH2 0x9DC SWAP3 SWAP2 SWAP1 PUSH2 0x3448 JUMP JUMPDEST SWAP1 DUP2 MSTORE PUSH1 0x20 ADD PUSH1 0x40 MLOAD DUP1 SWAP2 SUB SWAP1 KECCAK256 PUSH1 0x3 ADD PUSH1 0x0 DUP3 DUP3 SLOAD PUSH2 0x9FC SWAP2 SWAP1 PUSH2 0x38F0 JUMP JUMPDEST SWAP3 POP POP DUP2 SWAP1 SSTORE POP PUSH1 0x2 DUP3 DUP3 PUSH1 0x40 MLOAD PUSH2 0xA15 SWAP3 SWAP2 SWAP1 PUSH2 0x3448 JUMP JUMPDEST SWAP1 DUP2 MSTORE PUSH1 0x20 ADD PUSH1 0x40 MLOAD DUP1 SWAP2 SUB SWAP1 KECCAK256 PUSH1 0x1 DUP4 DUP4 PUSH1 0x40 MLOAD PUSH2 0xA35 SWAP3 SWAP2 SWAP1 PUSH2 0x3448 JUMP JUMPDEST SWAP1 DUP2 MSTORE PUSH1 0x20 ADD PUSH1 0x40 MLOAD DUP1 SWAP2 SUB SWAP1 KECCAK256 PUSH1 0x0 CALLER PUSH20 0xFFFFFFFFFFFFFFFFFFFFFFFFFFFFFFFFFFFFFFFF AND PUSH20 0xFFFFFFFFFFFFFFFFFFFFFFFFFFFFFFFFFFFFFFFF AND DUP2 MSTORE PUSH1 0x20 ADD SWAP1 DUP2 MSTORE PUSH1 0x20 ADD PUSH1 0x0 KECCAK256 SWAP1 DUP1 PUSH1 0x1 DUP2 SLOAD ADD DUP1 DUP3 SSTORE DUP1 SWAP2 POP POP PUSH1 0x1 SWAP1 SUB SWAP1 PUSH1 0x0 MSTORE PUSH1 0x20 PUSH1 0x0 KECCAK256 ADD PUSH1 0x0 SWAP1 SWAP2 SWAP1 SWAP2 SWAP1 SWAP2 POP PUSH1 0x0 DUP3 ADD PUSH1 0x0 SWAP1 SLOAD SWAP1 PUSH2 0x100 EXP SWAP1 DIV PUSH1 0xFF AND DUP2 PUSH1 0x0 ADD PUSH1 0x0 PUSH2 0x100 EXP DUP2 SLOAD DUP2 PUSH1 0xFF MUL NOT AND SWAP1 DUP4 ISZERO ISZERO MUL OR SWAP1 SSTORE POP PUSH1 0x0 DUP3 ADD PUSH1 0x1 SWAP1 SLOAD SWAP1 PUSH2 0x100 EXP SWAP1 DIV PUSH1 0xFF AND DUP2 PUSH1 0x0 ADD PUSH1 0x1 PUSH2 0x100 EXP DUP2 SLOAD DUP2 PUSH1 0xFF MUL NOT AND SWAP1 DUP4 ISZERO ISZERO MUL OR SWAP1 SSTORE POP PUSH1 0x0 DUP3 ADD PUSH1 0x2 SWAP1 SLOAD SWAP1 PUSH2 0x100 EXP SWAP1 DIV PUSH20 0xFFFFFFFFFFFFFFFFFFFFFFFFFFFFFFFFFFFFFFFF AND DUP2 PUSH1 0x0 ADD PUSH1 0x2 PUSH2 0x100 EXP DUP2 SLOAD DUP2 PUSH20 0xFFFFFFFFFFFFFFFFFFFFFFFFFFFFFFFFFFFFFFFF MUL NOT AND SWAP1 DUP4 PUSH20 0xFFFFFFFFFFFFFFFFFFFFFFFFFFFFFFFFFFFFFFFF AND MUL OR SWAP1 SSTORE POP POP POP PUSH2 0xFEF JUMP JUMPDEST PUSH1 0x40 MLOAD DUP1 PUSH1 0x40 ADD PUSH1 0x40 MSTORE DUP1 PUSH1 0xC DUP2 MSTORE PUSH1 0x20 ADD PUSH32 0x6920646973617070726F76650000000000000000000000000000000000000000 DUP2 MSTORE POP DUP1 MLOAD SWAP1 PUSH1 0x20 ADD KECCAK256 DUP4 DUP1 MLOAD SWAP1 PUSH1 0x20 ADD KECCAK256 EQ ISZERO PUSH2 0xDD5 JUMPI PUSH1 0x1 DUP1 DUP4 DUP4 PUSH1 0x40 MLOAD PUSH2 0xBCB SWAP3 SWAP2 SWAP1 PUSH2 0x3448 JUMP JUMPDEST SWAP1 DUP2 MSTORE PUSH1 0x20 ADD PUSH1 0x40 MLOAD DUP1 SWAP2 SUB SWAP1 KECCAK256 PUSH1 0x0 CALLER PUSH20 0xFFFFFFFFFFFFFFFFFFFFFFFFFFFFFFFFFFFFFFFF AND PUSH20 0xFFFFFFFFFFFFFFFFFFFFFFFFFFFFFFFFFFFFFFFF AND DUP2 MSTORE PUSH1 0x20 ADD SWAP1 DUP2 MSTORE PUSH1 0x20 ADD PUSH1 0x0 KECCAK256 PUSH1 0x0 ADD PUSH1 0x0 PUSH2 0x100 EXP DUP2 SLOAD DUP2 PUSH1 0xFF MUL NOT AND SWAP1 DUP4 ISZERO ISZERO MUL OR SWAP1 SSTORE POP PUSH1 0x1 PUSH1 0x0 DUP4 DUP4 PUSH1 0x40 MLOAD PUSH2 0xC44 SWAP3 SWAP2 SWAP1 PUSH2 0x3448 JUMP JUMPDEST SWAP1 DUP2 MSTORE PUSH1 0x20 ADD PUSH1 0x40 MLOAD DUP1 SWAP2 SUB SWAP1 KECCAK256 PUSH1 0x3 ADD PUSH1 0x0 DUP3 DUP3 SLOAD PUSH2 0xC64 SWAP2 SWAP1 PUSH2 0x38F0 JUMP JUMPDEST SWAP3 POP POP DUP2 SWAP1 SSTORE POP PUSH1 0x2 DUP3 DUP3 PUSH1 0x40 MLOAD PUSH2 0xC7D SWAP3 SWAP2 SWAP1 PUSH2 0x3448 JUMP JUMPDEST SWAP1 DUP2 MSTORE PUSH1 0x20 ADD PUSH1 0x40 MLOAD DUP1 SWAP2 SUB SWAP1 KECCAK256 PUSH1 0x1 DUP4 DUP4 PUSH1 0x40 MLOAD PUSH2 0xC9D SWAP3 SWAP2 SWAP1 PUSH2 0x3448 JUMP JUMPDEST SWAP1 DUP2 MSTORE PUSH1 0x20 ADD PUSH1 0x40 MLOAD DUP1 SWAP2 SUB SWAP1 KECCAK256 PUSH1 0x0 CALLER PUSH20 0xFFFFFFFFFFFFFFFFFFFFFFFFFFFFFFFFFFFFFFFF AND PUSH20 0xFFFFFFFFFFFFFFFFFFFFFFFFFFFFFFFFFFFFFFFF AND DUP2 MSTORE PUSH1 0x20 ADD SWAP1 DUP2 MSTORE PUSH1 0x20 ADD PUSH1 0x0 KECCAK256 SWAP1 DUP1 PUSH1 0x1 DUP2 SLOAD ADD DUP1 DUP3 SSTORE DUP1 SWAP2 POP POP PUSH1 0x1 SWAP1 SUB SWAP1 PUSH1 0x0 MSTORE PUSH1 0x20 PUSH1 0x0 KECCAK256 ADD PUSH1 0x0 SWAP1 SWAP2 SWAP1 SWAP2 SWAP1 SWAP2 POP PUSH1 0x0 DUP3 ADD PUSH1 0x0 SWAP1 SLOAD SWAP1 PUSH2 0x100 EXP SWAP1 DIV PUSH1 0xFF AND DUP2 PUSH1 0x0 ADD PUSH1 0x0 PUSH2 0x100 EXP DUP2 SLOAD DUP2 PUSH1 0xFF MUL NOT AND SWAP1 DUP4 ISZERO ISZERO MUL OR SWAP1 SSTORE POP PUSH1 0x0 DUP3 ADD PUSH1 0x1 SWAP1 SLOAD SWAP1 PUSH2 0x100 EXP SWAP1 DIV PUSH1 0xFF AND DUP2 PUSH1 0x0 ADD PUSH1 0x1 PUSH2 0x100 EXP DUP2 SLOAD DUP2 PUSH1 0xFF MUL NOT AND SWAP1 DUP4 ISZERO ISZERO MUL OR SWAP1 SSTORE POP PUSH1 0x0 DUP3 ADD PUSH1 0x2 SWAP1 SLOAD SWAP1 PUSH2 0x100 EXP SWAP1 DIV PUSH20 0xFFFFFFFFFFFFFFFFFFFFFFFFFFFFFFFFFFFFFFFF AND DUP2 PUSH1 0x0 ADD PUSH1 0x2 PUSH2 0x100 EXP DUP2 SLOAD DUP2 PUSH20 0xFFFFFFFFFFFFFFFFFFFFFFFFFFFFFFFFFFFFFFFF MUL NOT AND SWAP1 DUP4 PUSH20 0xFFFFFFFFFFFFFFFFFFFFFFFFFFFFFFFFFFFFFFFF AND MUL OR SWAP1 SSTORE POP POP POP PUSH2 0xFEE JUMP JUMPDEST PUSH1 0x1 DUP1 DUP4 DUP4 PUSH1 0x40 MLOAD PUSH2 0xDE8 SWAP3 SWAP2 SWAP1 PUSH2 0x3448 JUMP JUMPDEST SWAP1 DUP2 MSTORE PUSH1 0x20 ADD PUSH1 0x40 MLOAD DUP1 SWAP2 SUB SWAP1 KECCAK256 PUSH1 0x0 CALLER PUSH20 0xFFFFFFFFFFFFFFFFFFFFFFFFFFFFFFFFFFFFFFFF AND PUSH20 0xFFFFFFFFFFFFFFFFFFFFFFFFFFFFFFFFFFFFFFFF AND DUP2 MSTORE PUSH1 0x20 ADD SWAP1 DUP2 MSTORE PUSH1 0x20 ADD PUSH1 0x0 KECCAK256 PUSH1 0x0 ADD PUSH1 0x0 PUSH2 0x100 EXP DUP2 SLOAD DUP2 PUSH1 0xFF MUL NOT AND SWAP1 DUP4 ISZERO ISZERO MUL OR SWAP1 SSTORE POP PUSH1 0x1 PUSH1 0x0 DUP4 DUP4 PUSH1 0x40 MLOAD PUSH2 0xE61 SWAP3 SWAP2 SWAP1 PUSH2 0x3448 JUMP JUMPDEST SWAP1 DUP2 MSTORE PUSH1 0x20 ADD PUSH1 0x40 MLOAD DUP1 SWAP2 SUB SWAP1 KECCAK256 PUSH1 0x3 ADD PUSH1 0x0 DUP3 DUP3 SLOAD PUSH2 0xE81 SWAP2 SWAP1 PUSH2 0x38F0 JUMP JUMPDEST SWAP3 POP POP DUP2 SWAP1 SSTORE POP PUSH1 0x2 DUP3 DUP3 PUSH1 0x40 MLOAD PUSH2 0xE9A SWAP3 SWAP2 SWAP1 PUSH2 0x3448 JUMP JUMPDEST SWAP1 DUP2 MSTORE PUSH1 0x20 ADD PUSH1 0x40 MLOAD DUP1 SWAP2 SUB SWAP1 KECCAK256 PUSH1 0x1 DUP4 DUP4 PUSH1 0x40 MLOAD PUSH2 0xEBA SWAP3 SWAP2 SWAP1 PUSH2 0x3448 JUMP JUMPDEST SWAP1 DUP2 MSTORE PUSH1 0x20 ADD PUSH1 0x40 MLOAD DUP1 SWAP2 SUB SWAP1 KECCAK256 PUSH1 0x0 CALLER PUSH20 0xFFFFFFFFFFFFFFFFFFFFFFFFFFFFFFFFFFFFFFFF AND PUSH20 0xFFFFFFFFFFFFFFFFFFFFFFFFFFFFFFFFFFFFFFFF AND DUP2 MSTORE PUSH1 0x20 ADD SWAP1 DUP2 MSTORE PUSH1 0x20 ADD PUSH1 0x0 KECCAK256 SWAP1 DUP1 PUSH1 0x1 DUP2 SLOAD ADD DUP1 DUP3 SSTORE DUP1 SWAP2 POP POP PUSH1 0x1 SWAP1 SUB SWAP1 PUSH1 0x0 MSTORE PUSH1 0x20 PUSH1 0x0 KECCAK256 ADD PUSH1 0x0 SWAP1 SWAP2 SWAP1 SWAP2 SWAP1 SWAP2 POP PUSH1 0x0 DUP3 ADD PUSH1 0x0 SWAP1 SLOAD SWAP1 PUSH2 0x100 EXP SWAP1 DIV PUSH1 0xFF AND DUP2 PUSH1 0x0 ADD PUSH1 0x0 PUSH2 0x100 EXP DUP2 SLOAD DUP2 PUSH1 0xFF MUL NOT AND SWAP1 DUP4 ISZERO ISZERO MUL OR SWAP1 SSTORE POP PUSH1 0x0 DUP3 ADD PUSH1 0x1 SWAP1 SLOAD SWAP1 PUSH2 0x100 EXP SWAP1 DIV PUSH1 0xFF AND DUP2 PUSH1 0x0 ADD PUSH1 0x1 PUSH2 0x100 EXP DUP2 SLOAD DUP2 PUSH1 0xFF MUL NOT AND SWAP1 DUP4 ISZERO ISZERO MUL OR SWAP1 SSTORE POP PUSH1 0x0 DUP3 ADD PUSH1 0x2 SWAP1 SLOAD SWAP1 PUSH2 0x100 EXP SWAP1 DIV PUSH20 0xFFFFFFFFFFFFFFFFFFFFFFFFFFFFFFFFFFFFFFFF AND DUP2 PUSH1 0x0 ADD PUSH1 0x2 PUSH2 0x100 EXP DUP2 SLOAD DUP2 PUSH20 0xFFFFFFFFFFFFFFFFFFFFFFFFFFFFFFFFFFFFFFFF MUL NOT AND SWAP1 DUP4 PUSH20 0xFFFFFFFFFFFFFFFFFFFFFFFFFFFFFFFFFFFFFFFF AND MUL OR SWAP1 SSTORE POP POP POP JUMPDEST JUMPDEST POP POP POP JUMP JUMPDEST PUSH1 0x1 DUP3 DUP1 MLOAD PUSH1 0x20 DUP2 ADD DUP3 ADD DUP1 MLOAD DUP5 DUP3 MSTORE PUSH1 0x20 DUP4 ADD PUSH1 0x20 DUP6 ADD KECCAK256 DUP2 DUP4 MSTORE DUP1 SWAP6 POP POP POP POP POP POP PUSH1 0x20 MSTORE DUP1 PUSH1 0x0 MSTORE PUSH1 0x40 PUSH1 0x0 KECCAK256 PUSH1 0x0 SWAP2 POP SWAP2 POP POP DUP1 PUSH1 0x0 ADD PUSH1 0x0 SWAP1 SLOAD SWAP1 PUSH2 0x100 EXP SWAP1 DIV PUSH1 0xFF AND SWAP1 DUP1 PUSH1 0x0 ADD PUSH1 0x1 SWAP1 SLOAD SWAP1 PUSH2 0x100 EXP SWAP1 DIV PUSH1 0xFF AND SWAP1 DUP1 PUSH1 0x0 ADD PUSH1 0x2 SWAP1 SLOAD SWAP1 PUSH2 0x100 EXP SWAP1 DIV PUSH20 0xFFFFFFFFFFFFFFFFFFFFFFFFFFFFFFFFFFFFFFFF AND SWAP1 POP DUP4 JUMP JUMPDEST PUSH1 0x0 PUSH1 0x60 PUSH1 0x0 PUSH1 0x60 PUSH1 0x0 DUP7 DUP7 PUSH1 0x40 MLOAD PUSH2 0x1095 SWAP3 SWAP2 SWAP1 PUSH2 0x3448 JUMP JUMPDEST SWAP1 DUP2 MSTORE PUSH1 0x20 ADD PUSH1 0x40 MLOAD DUP1 SWAP2 SUB SWAP1 KECCAK256 PUSH1 0x4 ADD SLOAD TIMESTAMP LT ISZERO PUSH2 0x10E9 JUMPI PUSH1 0x40 MLOAD PUSH32 0x8C379A000000000000000000000000000000000000000000000000000000000 DUP2 MSTORE PUSH1 0x4 ADD PUSH2 0x10E0 SWAP1 PUSH2 0x3787 JUMP JUMPDEST PUSH1 0x40 MLOAD DUP1 SWAP2 SUB SWAP1 REVERT JUMPDEST PUSH1 0x0 PUSH1 0x2 DUP8 DUP8 PUSH1 0x40 MLOAD PUSH2 0x10FD SWAP3 SWAP2 SWAP1 PUSH2 0x3448 JUMP JUMPDEST SWAP1 DUP2 MSTORE PUSH1 0x20 ADD PUSH1 0x40 MLOAD DUP1 SWAP2 SUB SWAP1 KECCAK256 DUP1 SLOAD DUP1 PUSH1 0x20 MUL PUSH1 0x20 ADD PUSH1 0x40 MLOAD SWAP1 DUP2 ADD PUSH1 0x40 MSTORE DUP1 SWAP3 SWAP2 SWAP1 DUP2 DUP2 MSTORE PUSH1 0x20 ADD PUSH1 0x0 SWAP1 JUMPDEST DUP3 DUP3 LT ISZERO PUSH2 0x11E5 JUMPI DUP4 DUP3 SWAP1 PUSH1 0x0 MSTORE PUSH1 0x20 PUSH1 0x0 KECCAK256 ADD PUSH1 0x40 MLOAD DUP1 PUSH1 0x60 ADD PUSH1 0x40 MSTORE SWAP1 DUP2 PUSH1 0x0 DUP3 ADD PUSH1 0x0 SWAP1 SLOAD SWAP1 PUSH2 0x100 EXP SWAP1 DIV PUSH1 0xFF AND ISZERO ISZERO ISZERO ISZERO DUP2 MSTORE PUSH1 0x20 ADD PUSH1 0x0 DUP3 ADD PUSH1 0x1 SWAP1 SLOAD SWAP1 PUSH2 0x100 EXP SWAP1 DIV PUSH1 0xFF AND ISZERO ISZERO ISZERO ISZERO DUP2 MSTORE PUSH1 0x20 ADD PUSH1 0x0 DUP3 ADD PUSH1 0x2 SWAP1 SLOAD SWAP1 PUSH2 0x100 EXP SWAP1 DIV PUSH20 0xFFFFFFFFFFFFFFFFFFFFFFFFFFFFFFFFFFFFFFFF AND PUSH20 0xFFFFFFFFFFFFFFFFFFFFFFFFFFFFFFFFFFFFFFFF AND PUSH20 0xFFFFFFFFFFFFFFFFFFFFFFFFFFFFFFFFFFFFFFFF AND DUP2 MSTORE POP POP DUP2 MSTORE PUSH1 0x20 ADD SWAP1 PUSH1 0x1 ADD SWAP1 PUSH2 0x112B JUMP JUMPDEST POP POP POP POP SWAP1 POP PUSH1 0x0 DUP1 DUP9 DUP9 PUSH1 0x40 MLOAD PUSH2 0x11FE SWAP3 SWAP2 SWAP1 PUSH2 0x3448 JUMP JUMPDEST SWAP1 DUP2 MSTORE PUSH1 0x20 ADD PUSH1 0x40 MLOAD DUP1 SWAP2 SUB SWAP1 KECCAK256 PUSH1 0x0 ADD DUP1 SLOAD PUSH2 0x121A SWAP1 PUSH2 0x3A72 JUMP JUMPDEST DUP1 PUSH1 0x1F ADD PUSH1 0x20 DUP1 SWAP2 DIV MUL PUSH1 0x20 ADD PUSH1 0x40 MLOAD SWAP1 DUP2 ADD PUSH1 0x40 MSTORE DUP1 SWAP3 SWAP2 SWAP1 DUP2 DUP2 MSTORE PUSH1 0x20 ADD DUP3 DUP1 SLOAD PUSH2 0x1246 SWAP1 PUSH2 0x3A72 JUMP JUMPDEST DUP1 ISZERO PUSH2 0x1293 JUMPI DUP1 PUSH1 0x1F LT PUSH2 0x1268 JUMPI PUSH2 0x100 DUP1 DUP4 SLOAD DIV MUL DUP4 MSTORE SWAP2 PUSH1 0x20 ADD SWAP2 PUSH2 0x1293 JUMP JUMPDEST DUP3 ADD SWAP2 SWAP1 PUSH1 0x0 MSTORE PUSH1 0x20 PUSH1 0x0 KECCAK256 SWAP1 JUMPDEST DUP2 SLOAD DUP2 MSTORE SWAP1 PUSH1 0x1 ADD SWAP1 PUSH1 0x20 ADD DUP1 DUP4 GT PUSH2 0x1276 JUMPI DUP3 SWAP1 SUB PUSH1 0x1F AND DUP3 ADD SWAP2 JUMPDEST POP POP POP POP POP SWAP1 POP PUSH1 0x0 DUP1 DUP10 DUP10 PUSH1 0x40 MLOAD PUSH2 0x12AD SWAP3 SWAP2 SWAP1 PUSH2 0x3448 JUMP JUMPDEST SWAP1 DUP2 MSTORE PUSH1 0x20 ADD PUSH1 0x40 MLOAD DUP1 SWAP2 SUB SWAP1 KECCAK256 PUSH1 0x8 ADD SLOAD SWAP1 POP PUSH1 0x0 DUP1 DUP11 DUP11 PUSH1 0x40 MLOAD PUSH2 0x12D4 SWAP3 SWAP2 SWAP1 PUSH2 0x3448 JUMP JUMPDEST SWAP1 DUP2 MSTORE PUSH1 0x20 ADD PUSH1 0x40 MLOAD DUP1 SWAP2 SUB SWAP1 KECCAK256 PUSH1 0x3 ADD SLOAD SWAP1 POP DUP2 DUP4 DUP3 DUP7 SWAP8 POP SWAP8 POP SWAP8 POP SWAP8 POP POP POP POP POP SWAP3 SWAP6 SWAP2 SWAP5 POP SWAP3 POP JUMP JUMPDEST PUSH1 0x0 DUP3 DUP3 PUSH1 0x40 MLOAD PUSH2 0x1313 SWAP3 SWAP2 SWAP1 PUSH2 0x3448 JUMP JUMPDEST SWAP1 DUP2 MSTORE PUSH1 0x20 ADD PUSH1 0x40 MLOAD DUP1 SWAP2 SUB SWAP1 KECCAK256 PUSH1 0x1 ADD PUSH1 0x0 SWAP1 SLOAD SWAP1 PUSH2 0x100 EXP SWAP1 DIV PUSH20 0xFFFFFFFFFFFFFFFFFFFFFFFFFFFFFFFFFFFFFFFF AND PUSH20 0xFFFFFFFFFFFFFFFFFFFFFFFFFFFFFFFFFFFFFFFF AND CALLER PUSH20 0xFFFFFFFFFFFFFFFFFFFFFFFFFFFFFFFFFFFFFFFF AND EQ PUSH2 0x13B2 JUMPI PUSH1 0x40 MLOAD PUSH32 0x8C379A000000000000000000000000000000000000000000000000000000000 DUP2 MSTORE PUSH1 0x4 ADD PUSH2 0x13A9 SWAP1 PUSH2 0x3747 JUMP JUMPDEST PUSH1 0x40 MLOAD DUP1 SWAP2 SUB SWAP1 REVERT JUMPDEST PUSH1 0x0 DUP3 DUP3 PUSH1 0x40 MLOAD PUSH2 0x13C4 SWAP3 SWAP2 SWAP1 PUSH2 0x3448 JUMP JUMPDEST SWAP1 DUP2 MSTORE PUSH1 0x20 ADD PUSH1 0x40 MLOAD DUP1 SWAP2 SUB SWAP1 KECCAK256 PUSH1 0x1 ADD PUSH1 0x0 SWAP1 SLOAD SWAP1 PUSH2 0x100 EXP SWAP1 DIV PUSH20 0xFFFFFFFFFFFFFFFFFFFFFFFFFFFFFFFFFFFFFFFF AND PUSH20 0xFFFFFFFFFFFFFFFFFFFFFFFFFFFFFFFFFFFFFFFF AND DUP4 PUSH20 0xFFFFFFFFFFFFFFFFFFFFFFFFFFFFFFFFFFFFFFFF AND EQ ISZERO PUSH2 0x1464 JUMPI PUSH1 0x40 MLOAD PUSH32 0x8C379A000000000000000000000000000000000000000000000000000000000 DUP2 MSTORE PUSH1 0x4 ADD PUSH2 0x145B SWAP1 PUSH2 0x36E7 JUMP JUMPDEST PUSH1 0x40 MLOAD DUP1 SWAP2 SUB SWAP1 REVERT JUMPDEST PUSH1 0x0 PUSH20 0xFFFFFFFFFFFFFFFFFFFFFFFFFFFFFFFFFFFFFFFF AND PUSH1 0x1 DUP4 DUP4 PUSH1 0x40 MLOAD PUSH2 0x148E SWAP3 SWAP2 SWAP1 PUSH2 0x3448 JUMP JUMPDEST SWAP1 DUP2 MSTORE PUSH1 0x20 ADD PUSH1 0x40 MLOAD DUP1 SWAP2 SUB SWAP1 KECCAK256 PUSH1 0x0 DUP6 PUSH20 0xFFFFFFFFFFFFFFFFFFFFFFFFFFFFFFFFFFFFFFFF AND PUSH20 0xFFFFFFFFFFFFFFFFFFFFFFFFFFFFFFFFFFFFFFFF AND DUP2 MSTORE PUSH1 0x20 ADD SWAP1 DUP2 MSTORE PUSH1 0x20 ADD PUSH1 0x0 KECCAK256 PUSH1 0x0 ADD PUSH1 0x2 SWAP1 SLOAD SWAP1 PUSH2 0x100 EXP SWAP1 DIV PUSH20 0xFFFFFFFFFFFFFFFFFFFFFFFFFFFFFFFFFFFFFFFF AND PUSH20 0xFFFFFFFFFFFFFFFFFFFFFFFFFFFFFFFFFFFFFFFF AND EQ PUSH2 0x1553 JUMPI PUSH1 0x40 MLOAD PUSH32 0x8C379A000000000000000000000000000000000000000000000000000000000 DUP2 MSTORE PUSH1 0x4 ADD PUSH2 0x154A SWAP1 PUSH2 0x3667 JUMP JUMPDEST PUSH1 0x40 MLOAD DUP1 SWAP2 SUB SWAP1 REVERT JUMPDEST PUSH1 0x0 DUP3 DUP3 PUSH1 0x40 MLOAD PUSH2 0x1565 SWAP3 SWAP2 SWAP1 PUSH2 0x3448 JUMP JUMPDEST SWAP1 DUP2 MSTORE PUSH1 0x20 ADD PUSH1 0x40 MLOAD DUP1 SWAP2 SUB SWAP1 KECCAK256 PUSH1 0x4 ADD SLOAD TIMESTAMP LT PUSH2 0x15B8 JUMPI PUSH1 0x40 MLOAD PUSH32 0x8C379A000000000000000000000000000000000000000000000000000000000 DUP2 MSTORE PUSH1 0x4 ADD PUSH2 0x15AF SWAP1 PUSH2 0x3727 JUMP JUMPDEST PUSH1 0x40 MLOAD DUP1 SWAP2 SUB SWAP1 REVERT JUMPDEST PUSH1 0x0 PUSH1 0x40 MLOAD DUP1 PUSH1 0x60 ADD PUSH1 0x40 MSTORE DUP1 PUSH1 0x0 ISZERO ISZERO DUP2 MSTORE PUSH1 0x20 ADD PUSH1 0x0 ISZERO ISZERO DUP2 MSTORE PUSH1 0x20 ADD DUP6 PUSH20 0xFFFFFFFFFFFFFFFFFFFFFFFFFFFFFFFFFFFFFFFF AND DUP2 MSTORE POP SWAP1 POP DUP1 PUSH1 0x1 DUP5 DUP5 PUSH1 0x40 MLOAD PUSH2 0x1606 SWAP3 SWAP2 SWAP1 PUSH2 0x3448 JUMP JUMPDEST SWAP1 DUP2 MSTORE PUSH1 0x20 ADD PUSH1 0x40 MLOAD DUP1 SWAP2 SUB SWAP1 KECCAK256 PUSH1 0x0 DUP7 PUSH20 0xFFFFFFFFFFFFFFFFFFFFFFFFFFFFFFFFFFFFFFFF AND PUSH20 0xFFFFFFFFFFFFFFFFFFFFFFFFFFFFFFFFFFFFFFFF AND DUP2 MSTORE PUSH1 0x20 ADD SWAP1 DUP2 MSTORE PUSH1 0x20 ADD PUSH1 0x0 KECCAK256 PUSH1 0x0 DUP3 ADD MLOAD DUP2 PUSH1 0x0 ADD PUSH1 0x0 PUSH2 0x100 EXP DUP2 SLOAD DUP2 PUSH1 0xFF MUL NOT AND SWAP1 DUP4 ISZERO ISZERO MUL OR SWAP1 SSTORE POP PUSH1 0x20 DUP3 ADD MLOAD DUP2 PUSH1 0x0 ADD PUSH1 0x1 PUSH2 0x100 EXP DUP2 SLOAD DUP2 PUSH1 0xFF MUL NOT AND SWAP1 DUP4 ISZERO ISZERO MUL OR SWAP1 SSTORE POP PUSH1 0x40 DUP3 ADD MLOAD DUP2 PUSH1 0x0 ADD PUSH1 0x2 PUSH2 0x100 EXP DUP2 SLOAD DUP2 PUSH20 0xFFFFFFFFFFFFFFFFFFFFFFFFFFFFFFFFFFFFFFFF MUL NOT AND SWAP1 DUP4 PUSH20 0xFFFFFFFFFFFFFFFFFFFFFFFFFFFFFFFFFFFFFFFF AND MUL OR SWAP1 SSTORE POP SWAP1 POP POP PUSH1 0x3 DUP4 DUP4 PUSH1 0x40 MLOAD PUSH2 0x16ED SWAP3 SWAP2 SWAP1 PUSH2 0x3448 JUMP JUMPDEST SWAP1 DUP2 MSTORE PUSH1 0x20 ADD PUSH1 0x40 MLOAD DUP1 SWAP2 SUB SWAP1 KECCAK256 DUP5 SWAP1 DUP1 PUSH1 0x1 DUP2 SLOAD ADD DUP1 DUP3 SSTORE DUP1 SWAP2 POP POP PUSH1 0x1 SWAP1 SUB SWAP1 PUSH1 0x0 MSTORE PUSH1 0x20 PUSH1 0x0 KECCAK256 ADD PUSH1 0x0 SWAP1 SWAP2 SWAP1 SWAP2 SWAP1 SWAP2 PUSH2 0x100 EXP DUP2 SLOAD DUP2 PUSH20 0xFFFFFFFFFFFFFFFFFFFFFFFFFFFFFFFFFFFFFFFF MUL NOT AND SWAP1 DUP4 PUSH20 0xFFFFFFFFFFFFFFFFFFFFFFFFFFFFFFFFFFFFFFFF AND MUL OR SWAP1 SSTORE POP POP POP POP POP JUMP JUMPDEST PUSH1 0x0 DUP1 PUSH1 0x0 DUP1 DUP8 PUSH1 0x40 MLOAD PUSH2 0x1776 SWAP2 SWAP1 PUSH2 0x3461 JUMP JUMPDEST SWAP1 DUP2 MSTORE PUSH1 0x20 ADD PUSH1 0x40 MLOAD DUP1 SWAP2 SUB SWAP1 KECCAK256 PUSH1 0x1 ADD PUSH1 0x0 SWAP1 SLOAD SWAP1 PUSH2 0x100 EXP SWAP1 DIV PUSH20 0xFFFFFFFFFFFFFFFFFFFFFFFFFFFFFFFFFFFFFFFF AND PUSH20 0xFFFFFFFFFFFFFFFFFFFFFFFFFFFFFFFFFFFFFFFF AND CALLER PUSH20 0xFFFFFFFFFFFFFFFFFFFFFFFFFFFFFFFFFFFFFFFF AND EQ PUSH2 0x1815 JUMPI PUSH1 0x40 MLOAD PUSH32 0x8C379A000000000000000000000000000000000000000000000000000000000 DUP2 MSTORE PUSH1 0x4 ADD PUSH2 0x180C SWAP1 PUSH2 0x3767 JUMP JUMPDEST PUSH1 0x40 MLOAD DUP1 SWAP2 SUB SWAP1 REVERT JUMPDEST PUSH1 0x0 PUSH1 0x1 SWAP1 POP PUSH1 0x0 PUSH1 0x1 SWAP1 POP PUSH1 0x0 PUSH1 0x1 SWAP1 POP PUSH1 0x0 PUSH20 0xFFFFFFFFFFFFFFFFFFFFFFFFFFFFFFFFFFFFFFFF AND PUSH1 0x0 DUP12 PUSH1 0x40 MLOAD PUSH2 0x184F SWAP2 SWAP1 PUSH2 0x3461 JUMP JUMPDEST SWAP1 DUP2 MSTORE PUSH1 0x20 ADD PUSH1 0x40 MLOAD DUP1 SWAP2 SUB SWAP1 KECCAK256 PUSH1 0x1 ADD PUSH1 0x0 SWAP1 SLOAD SWAP1 PUSH2 0x100 EXP SWAP1 DIV PUSH20 0xFFFFFFFFFFFFFFFFFFFFFFFFFFFFFFFFFFFFFFFF AND PUSH20 0xFFFFFFFFFFFFFFFFFFFFFFFFFFFFFFFFFFFFFFFF AND EQ ISZERO PUSH2 0x18B0 JUMPI PUSH1 0x1 DUP1 PUSH1 0x1 SWAP6 POP SWAP6 POP SWAP6 POP POP POP POP PUSH2 0x196A JUMP JUMPDEST PUSH1 0x0 DUP11 PUSH1 0x40 MLOAD PUSH2 0x18C0 SWAP2 SWAP1 PUSH2 0x3461 JUMP JUMPDEST SWAP1 DUP2 MSTORE PUSH1 0x20 ADD PUSH1 0x40 MLOAD DUP1 SWAP2 SUB SWAP1 KECCAK256 PUSH1 0x5 ADD SLOAD DUP10 EQ PUSH2 0x18DD JUMPI PUSH1 0x0 SWAP3 POP JUMPDEST PUSH1 0x0 DUP11 PUSH1 0x40 MLOAD PUSH2 0x18ED SWAP2 SWAP1 PUSH2 0x3461 JUMP JUMPDEST SWAP1 DUP2 MSTORE PUSH1 0x20 ADD PUSH1 0x40 MLOAD DUP1 SWAP2 SUB SWAP1 KECCAK256 PUSH1 0xB ADD PUSH1 0x40 MLOAD PUSH2 0x190B SWAP2 SWAP1 PUSH2 0x3431 JUMP JUMPDEST PUSH1 0x40 MLOAD DUP1 SWAP2 SUB SWAP1 KECCAK256 DUP8 DUP1 MLOAD SWAP1 PUSH1 0x20 ADD KECCAK256 EQ PUSH2 0x1925 JUMPI PUSH1 0x0 SWAP2 POP JUMPDEST DUP8 TIMESTAMP PUSH2 0x1931 SWAP2 SWAP1 PUSH2 0x38F0 JUMP JUMPDEST PUSH1 0x0 DUP12 PUSH1 0x40 MLOAD PUSH2 0x1941 SWAP2 SWAP1 PUSH2 0x3461 JUMP JUMPDEST SWAP1 DUP2 MSTORE PUSH1 0x20 ADD PUSH1 0x40 MLOAD DUP1 SWAP2 SUB SWAP1 KECCAK256 PUSH1 0x4 ADD SLOAD EQ PUSH2 0x195D JUMPI PUSH1 0x0 SWAP1 POP JUMPDEST DUP3 DUP3 DUP3 SWAP6 POP SWAP6 POP SWAP6 POP POP POP POP JUMPDEST SWAP5 POP SWAP5 POP SWAP5 SWAP2 POP POP JUMP JUMPDEST PUSH1 0x0 DUP3 DUP3 PUSH1 0x40 MLOAD PUSH2 0x1986 SWAP3 SWAP2 SWAP1 PUSH2 0x3448 JUMP JUMPDEST SWAP1 DUP2 MSTORE PUSH1 0x20 ADD PUSH1 0x40 MLOAD DUP1 SWAP2 SUB SWAP1 KECCAK256 PUSH1 0x4 ADD SLOAD TIMESTAMP LT ISZERO PUSH2 0x19DA JUMPI PUSH1 0x40 MLOAD PUSH32 0x8C379A000000000000000000000000000000000000000000000000000000000 DUP2 MSTORE PUSH1 0x4 ADD PUSH2 0x19D1 SWAP1 PUSH2 0x3787 JUMP JUMPDEST PUSH1 0x40 MLOAD DUP1 SWAP2 SUB SWAP1 REVERT JUMPDEST PUSH1 0x0 ISZERO ISZERO PUSH1 0x0 DUP4 DUP4 PUSH1 0x40 MLOAD PUSH2 0x19F0 SWAP3 SWAP2 SWAP1 PUSH2 0x3448 JUMP JUMPDEST SWAP1 DUP2 MSTORE PUSH1 0x20 ADD PUSH1 0x40 MLOAD DUP1 SWAP2 SUB SWAP1 KECCAK256 PUSH1 0x7 ADD PUSH1 0x0 SWAP1 SLOAD SWAP1 PUSH2 0x100 EXP SWAP1 DIV PUSH1 0xFF AND ISZERO ISZERO EQ PUSH2 0x1A51 JUMPI PUSH1 0x40 MLOAD PUSH32 0x8C379A000000000000000000000000000000000000000000000000000000000 DUP2 MSTORE PUSH1 0x4 ADD PUSH2 0x1A48 SWAP1 PUSH2 0x37C7 JUMP JUMPDEST PUSH1 0x40 MLOAD DUP1 SWAP2 SUB SWAP1 REVERT JUMPDEST PUSH1 0x0 DUP3 DUP3 PUSH1 0x40 MLOAD PUSH2 0x1A63 SWAP3 SWAP2 SWAP1 PUSH2 0x3448 JUMP JUMPDEST SWAP1 DUP2 MSTORE PUSH1 0x20 ADD PUSH1 0x40 MLOAD DUP1 SWAP2 SUB SWAP1 KECCAK256 PUSH1 0x1 ADD PUSH1 0x0 SWAP1 SLOAD SWAP1 PUSH2 0x100 EXP SWAP1 DIV PUSH20 0xFFFFFFFFFFFFFFFFFFFFFFFFFFFFFFFFFFFFFFFF AND PUSH20 0xFFFFFFFFFFFFFFFFFFFFFFFFFFFFFFFFFFFFFFFF AND CALLER PUSH20 0xFFFFFFFFFFFFFFFFFFFFFFFFFFFFFFFFFFFFFFFF AND EQ DUP1 PUSH2 0x1B7B JUMPI POP PUSH1 0x0 PUSH20 0xFFFFFFFFFFFFFFFFFFFFFFFFFFFFFFFFFFFFFFFF AND PUSH1 0x1 DUP4 DUP4 PUSH1 0x40 MLOAD PUSH2 0x1AF3 SWAP3 SWAP2 SWAP1 PUSH2 0x3448 JUMP JUMPDEST SWAP1 DUP2 MSTORE PUSH1 0x20 ADD PUSH1 0x40 MLOAD DUP1 SWAP2 SUB SWAP1 KECCAK256 PUSH1 0x0 CALLER PUSH20 0xFFFFFFFFFFFFFFFFFFFFFFFFFFFFFFFFFFFFFFFF AND PUSH20 0xFFFFFFFFFFFFFFFFFFFFFFFFFFFFFFFFFFFFFFFF AND DUP2 MSTORE PUSH1 0x20 ADD SWAP1 DUP2 MSTORE PUSH1 0x20 ADD PUSH1 0x0 KECCAK256 PUSH1 0x0 ADD PUSH1 0x2 SWAP1 SLOAD SWAP1 PUSH2 0x100 EXP SWAP1 DIV PUSH20 0xFFFFFFFFFFFFFFFFFFFFFFFFFFFFFFFFFFFFFFFF AND PUSH20 0xFFFFFFFFFFFFFFFFFFFFFFFFFFFFFFFFFFFFFFFF AND EQ ISZERO JUMPDEST PUSH2 0x1BBA JUMPI PUSH1 0x40 MLOAD PUSH32 0x8C379A000000000000000000000000000000000000000000000000000000000 DUP2 MSTORE PUSH1 0x4 ADD PUSH2 0x1BB1 SWAP1 PUSH2 0x36A7 JUMP JUMPDEST PUSH1 0x40 MLOAD DUP1 SWAP2 SUB SWAP1 REVERT JUMPDEST PUSH1 0x0 PUSH1 0x64 PUSH1 0x3 DUP5 DUP5 PUSH1 0x40 MLOAD PUSH2 0x1BD0 SWAP3 SWAP2 SWAP1 PUSH2 0x3448 JUMP JUMPDEST SWAP1 DUP2 MSTORE PUSH1 0x20 ADD PUSH1 0x40 MLOAD DUP1 SWAP2 SUB SWAP1 KECCAK256 DUP1 SLOAD SWAP1 POP PUSH1 0x0 DUP6 DUP6 PUSH1 0x40 MLOAD PUSH2 0x1BF4 SWAP3 SWAP2 SWAP1 PUSH2 0x3448 JUMP JUMPDEST SWAP1 DUP2 MSTORE PUSH1 0x20 ADD PUSH1 0x40 MLOAD DUP1 SWAP2 SUB SWAP1 KECCAK256 PUSH1 0x6 ADD SLOAD PUSH2 0x1C10 SWAP2 SWAP1 PUSH2 0x3946 JUMP JUMPDEST PUSH2 0x1C1A SWAP2 SWAP1 PUSH2 0x3977 JUMP JUMPDEST SWAP1 POP PUSH1 0x0 DUP4 DUP4 PUSH1 0x40 MLOAD PUSH2 0x1C2E SWAP3 SWAP2 SWAP1 PUSH2 0x3448 JUMP JUMPDEST SWAP1 DUP2 MSTORE PUSH1 0x20 ADD PUSH1 0x40 MLOAD DUP1 SWAP2 SUB SWAP1 KECCAK256 PUSH1 0x5 ADD SLOAD DUP2 LT PUSH2 0x1C8F JUMPI PUSH32 0x4163636570746564000000000000000000000000000000000000000000000000 PUSH1 0x0 DUP5 DUP5 PUSH1 0x40 MLOAD PUSH2 0x1C79 SWAP3 SWAP2 SWAP1 PUSH2 0x3448 JUMP JUMPDEST SWAP1 DUP2 MSTORE PUSH1 0x20 ADD PUSH1 0x40 MLOAD DUP1 SWAP2 SUB SWAP1 KECCAK256 PUSH1 0x8 ADD DUP2 SWAP1 SSTORE POP JUMPDEST PUSH1 0x0 JUMPDEST PUSH1 0x3 DUP5 DUP5 PUSH1 0x40 MLOAD PUSH2 0x1CA4 SWAP3 SWAP2 SWAP1 PUSH2 0x3448 JUMP JUMPDEST SWAP1 DUP2 MSTORE PUSH1 0x20 ADD PUSH1 0x40 MLOAD DUP1 SWAP2 SUB SWAP1 KECCAK256 DUP1 SLOAD SWAP1 POP DUP2 PUSH1 0xFF AND LT ISZERO PUSH2 0x1F71 JUMPI PUSH1 0x0 ISZERO ISZERO PUSH1 0x1 DUP6 DUP6 PUSH1 0x40 MLOAD PUSH2 0x1CD6 SWAP3 SWAP2 SWAP1 PUSH2 0x3448 JUMP JUMPDEST SWAP1 DUP2 MSTORE PUSH1 0x20 ADD PUSH1 0x40 MLOAD DUP1 SWAP2 SUB SWAP1 KECCAK256 PUSH1 0x0 PUSH1 0x3 DUP8 DUP8 PUSH1 0x40 MLOAD PUSH2 0x1CF8 SWAP3 SWAP2 SWAP1 PUSH2 0x3448 JUMP JUMPDEST SWAP1 DUP2 MSTORE PUSH1 0x20 ADD PUSH1 0x40 MLOAD DUP1 SWAP2 SUB SWAP1 KECCAK256 DUP5 PUSH1 0xFF AND DUP2 SLOAD DUP2 LT PUSH2 0x1D1B JUMPI PUSH2 0x1D1A PUSH2 0x3B8C JUMP JUMPDEST JUMPDEST SWAP1 PUSH1 0x0 MSTORE PUSH1 0x20 PUSH1 0x0 KECCAK256 ADD PUSH1 0x0 SWAP1 SLOAD SWAP1 PUSH2 0x100 EXP SWAP1 DIV PUSH20 0xFFFFFFFFFFFFFFFFFFFFFFFFFFFFFFFFFFFFFFFF AND PUSH20 0xFFFFFFFFFFFFFFFFFFFFFFFFFFFFFFFFFFFFFFFF AND PUSH20 0xFFFFFFFFFFFFFFFFFFFFFFFFFFFFFFFFFFFFFFFF AND DUP2 MSTORE PUSH1 0x20 ADD SWAP1 DUP2 MSTORE PUSH1 0x20 ADD PUSH1 0x0 KECCAK256 PUSH1 0x0 ADD PUSH1 0x0 SWAP1 SLOAD SWAP1 PUSH2 0x100 EXP SWAP1 DIV PUSH1 0xFF AND ISZERO ISZERO EQ ISZERO PUSH2 0x1F5E JUMPI PUSH1 0x2 DUP5 DUP5 PUSH1 0x40 MLOAD PUSH2 0x1DAB SWAP3 SWAP2 SWAP1 PUSH2 0x3448 JUMP JUMPDEST SWAP1 DUP2 MSTORE PUSH1 0x20 ADD PUSH1 0x40 MLOAD DUP1 SWAP2 SUB SWAP1 KECCAK256 PUSH1 0x1 DUP6 DUP6 PUSH1 0x40 MLOAD PUSH2 0x1DCB SWAP3 SWAP2 SWAP1 PUSH2 0x3448 JUMP JUMPDEST SWAP1 DUP2 MSTORE PUSH1 0x20 ADD PUSH1 0x40 MLOAD DUP1 SWAP2 SUB SWAP1 KECCAK256 PUSH1 0x0 PUSH1 0x3 DUP8 DUP8 PUSH1 0x40 MLOAD PUSH2 0x1DED SWAP3 SWAP2 SWAP1 PUSH2 0x3448 JUMP JUMPDEST SWAP1 DUP2 MSTORE PUSH1 0x20 ADD PUSH1 0x40 MLOAD DUP1 SWAP2 SUB SWAP1 KECCAK256 DUP5 PUSH1 0xFF AND DUP2 SLOAD DUP2 LT PUSH2 0x1E10 JUMPI PUSH2 0x1E0F PUSH2 0x3B8C JUMP JUMPDEST JUMPDEST SWAP1 PUSH1 0x0 MSTORE PUSH1 0x20 PUSH1 0x0 KECCAK256 ADD PUSH1 0x0 SWAP1 SLOAD SWAP1 PUSH2 0x100 EXP SWAP1 DIV PUSH20 0xFFFFFFFFFFFFFFFFFFFFFFFFFFFFFFFFFFFFFFFF AND PUSH20 0xFFFFFFFFFFFFFFFFFFFFFFFFFFFFFFFFFFFFFFFF AND PUSH20 0xFFFFFFFFFFFFFFFFFFFFFFFFFFFFFFFFFFFFFFFF AND DUP2 MSTORE PUSH1 0x20 ADD SWAP1 DUP2 MSTORE PUSH1 0x20 ADD PUSH1 0x0 KECCAK256 SWAP1 DUP1 PUSH1 0x1 DUP2 SLOAD ADD DUP1 DUP3 SSTORE DUP1 SWAP2 POP POP PUSH1 0x1 SWAP1 SUB SWAP1 PUSH1 0x0 MSTORE PUSH1 0x20 PUSH1 0x0 KECCAK256 ADD PUSH1 0x0 SWAP1 SWAP2 SWAP1 SWAP2 SWAP1 SWAP2 POP PUSH1 0x0 DUP3 ADD PUSH1 0x0 SWAP1 SLOAD SWAP1 PUSH2 0x100 EXP SWAP1 DIV PUSH1 0xFF AND DUP2 PUSH1 0x0 ADD PUSH1 0x0 PUSH2 0x100 EXP DUP2 SLOAD DUP2 PUSH1 0xFF MUL NOT AND SWAP1 DUP4 ISZERO ISZERO MUL OR SWAP1 SSTORE POP PUSH1 0x0 DUP3 ADD PUSH1 0x1 SWAP1 SLOAD SWAP1 PUSH2 0x100 EXP SWAP1 DIV PUSH1 0xFF AND DUP2 PUSH1 0x0 ADD PUSH1 0x1 PUSH2 0x100 EXP DUP2 SLOAD DUP2 PUSH1 0xFF MUL NOT AND SWAP1 DUP4 ISZERO ISZERO MUL OR SWAP1 SSTORE POP PUSH1 0x0 DUP3 ADD PUSH1 0x2 SWAP1 SLOAD SWAP1 PUSH2 0x100 EXP SWAP1 DIV PUSH20 0xFFFFFFFFFFFFFFFFFFFFFFFFFFFFFFFFFFFFFFFF AND DUP2 PUSH1 0x0 ADD PUSH1 0x2 PUSH2 0x100 EXP DUP2 SLOAD DUP2 PUSH20 0xFFFFFFFFFFFFFFFFFFFFFFFFFFFFFFFFFFFFFFFF MUL NOT AND SWAP1 DUP4 PUSH20 0xFFFFFFFFFFFFFFFFFFFFFFFFFFFFFFFFFFFFFFFF AND MUL OR SWAP1 SSTORE POP POP POP JUMPDEST DUP1 DUP1 PUSH2 0x1F69 SWAP1 PUSH2 0x3AD5 JUMP JUMPDEST SWAP2 POP POP PUSH2 0x1C92 JUMP JUMPDEST POP PUSH1 0x1 PUSH1 0x0 DUP5 DUP5 PUSH1 0x40 MLOAD PUSH2 0x1F86 SWAP3 SWAP2 SWAP1 PUSH2 0x3448 JUMP JUMPDEST SWAP1 DUP2 MSTORE PUSH1 0x20 ADD PUSH1 0x40 MLOAD DUP1 SWAP2 SUB SWAP1 KECCAK256 PUSH1 0x7 ADD PUSH1 0x0 PUSH2 0x100 EXP DUP2 SLOAD DUP2 PUSH1 0xFF MUL NOT AND SWAP1 DUP4 ISZERO ISZERO MUL OR SWAP1 SSTORE POP POP POP POP JUMP JUMPDEST PUSH1 0x0 PUSH20 0xFFFFFFFFFFFFFFFFFFFFFFFFFFFFFFFFFFFFFFFF AND PUSH1 0x0 DUP8 PUSH1 0x40 MLOAD PUSH2 0x1FDB SWAP2 SWAP1 PUSH2 0x3461 JUMP JUMPDEST SWAP1 DUP2 MSTORE PUSH1 0x20 ADD PUSH1 0x40 MLOAD DUP1 SWAP2 SUB SWAP1 KECCAK256 PUSH1 0x1 ADD PUSH1 0x0 SWAP1 SLOAD SWAP1 PUSH2 0x100 EXP SWAP1 DIV PUSH20 0xFFFFFFFFFFFFFFFFFFFFFFFFFFFFFFFFFFFFFFFF AND PUSH20 0xFFFFFFFFFFFFFFFFFFFFFFFFFFFFFFFFFFFFFFFF AND EQ PUSH2 0x2063 JUMPI PUSH1 0x40 MLOAD PUSH32 0x8C379A000000000000000000000000000000000000000000000000000000000 DUP2 MSTORE PUSH1 0x4 ADD PUSH2 0x205A SWAP1 PUSH2 0x3687 JUMP JUMPDEST PUSH1 0x40 MLOAD DUP1 SWAP2 SUB SWAP1 REVERT JUMPDEST PUSH1 0x0 PUSH1 0x40 MLOAD DUP1 PUSH2 0x180 ADD PUSH1 0x40 MSTORE DUP1 DUP9 DUP2 MSTORE PUSH1 0x20 ADD CALLER PUSH20 0xFFFFFFFFFFFFFFFFFFFFFFFFFFFFFFFFFFFFFFFF AND DUP2 MSTORE PUSH1 0x20 ADD ADDRESS PUSH20 0xFFFFFFFFFFFFFFFFFFFFFFFFFFFFFFFFFFFFFFFF AND DUP2 MSTORE PUSH1 0x20 ADD PUSH1 0x0 DUP2 MSTORE PUSH1 0x20 ADD DUP8 TIMESTAMP PUSH2 0x20C2 SWAP2 SWAP1 PUSH2 0x38F0 JUMP JUMPDEST DUP2 MSTORE PUSH1 0x20 ADD DUP7 DUP2 MSTORE PUSH1 0x20 ADD PUSH1 0x0 DUP2 MSTORE PUSH1 0x20 ADD PUSH1 0x0 ISZERO ISZERO DUP2 MSTORE PUSH1 0x20 ADD PUSH32 0x52656A6563746564000000000000000000000000000000000000000000000000 DUP2 MSTORE PUSH1 0x20 ADD DUP4 DUP2 MSTORE PUSH1 0x20 ADD DUP5 DUP2 MSTORE PUSH1 0x20 ADD DUP6 DUP2 MSTORE POP SWAP1 POP DUP1 PUSH1 0x0 DUP9 PUSH1 0x40 MLOAD PUSH2 0x2126 SWAP2 SWAP1 PUSH2 0x3461 JUMP JUMPDEST SWAP1 DUP2 MSTORE PUSH1 0x20 ADD PUSH1 0x40 MLOAD DUP1 SWAP2 SUB SWAP1 KECCAK256 PUSH1 0x0 DUP3 ADD MLOAD DUP2 PUSH1 0x0 ADD SWAP1 DUP1 MLOAD SWAP1 PUSH1 0x20 ADD SWAP1 PUSH2 0x2150 SWAP3 SWAP2 SWAP1 PUSH2 0x2912 JUMP JUMPDEST POP PUSH1 0x20 DUP3 ADD MLOAD DUP2 PUSH1 0x1 ADD PUSH1 0x0 PUSH2 0x100 EXP DUP2 SLOAD DUP2 PUSH20 0xFFFFFFFFFFFFFFFFFFFFFFFFFFFFFFFFFFFFFFFF MUL NOT AND SWAP1 DUP4 PUSH20 0xFFFFFFFFFFFFFFFFFFFFFFFFFFFFFFFFFFFFFFFF AND MUL OR SWAP1 SSTORE POP PUSH1 0x40 DUP3 ADD MLOAD DUP2 PUSH1 0x2 ADD PUSH1 0x0 PUSH2 0x100 EXP DUP2 SLOAD DUP2 PUSH20 0xFFFFFFFFFFFFFFFFFFFFFFFFFFFFFFFFFFFFFFFF MUL NOT AND SWAP1 DUP4 PUSH20 0xFFFFFFFFFFFFFFFFFFFFFFFFFFFFFFFFFFFFFFFF AND MUL OR SWAP1 SSTORE POP PUSH1 0x60 DUP3 ADD MLOAD DUP2 PUSH1 0x3 ADD SSTORE PUSH1 0x80 DUP3 ADD MLOAD DUP2 PUSH1 0x4 ADD SSTORE PUSH1 0xA0 DUP3 ADD MLOAD DUP2 PUSH1 0x5 ADD SSTORE PUSH1 0xC0 DUP3 ADD MLOAD DUP2 PUSH1 0x6 ADD SSTORE PUSH1 0xE0 DUP3 ADD MLOAD DUP2 PUSH1 0x7 ADD PUSH1 0x0 PUSH2 0x100 EXP DUP2 SLOAD DUP2 PUSH1 0xFF MUL NOT AND SWAP1 DUP4 ISZERO ISZERO MUL OR SWAP1 SSTORE POP PUSH2 0x100 DUP3 ADD MLOAD DUP2 PUSH1 0x8 ADD SSTORE PUSH2 0x120 DUP3 ADD MLOAD DUP2 PUSH1 0x9 ADD SWAP1 DUP1 MLOAD SWAP1 PUSH1 0x20 ADD SWAP1 PUSH2 0x224F SWAP3 SWAP2 SWAP1 PUSH2 0x2912 JUMP JUMPDEST POP PUSH2 0x140 DUP3 ADD MLOAD DUP2 PUSH1 0xA ADD SWAP1 DUP1 MLOAD SWAP1 PUSH1 0x20 ADD SWAP1 PUSH2 0x226D SWAP3 SWAP2 SWAP1 PUSH2 0x2912 JUMP JUMPDEST POP PUSH2 0x160 DUP3 ADD MLOAD DUP2 PUSH1 0xB ADD SWAP1 DUP1 MLOAD SWAP1 PUSH1 0x20 ADD SWAP1 PUSH2 0x228B SWAP3 SWAP2 SWAP1 PUSH2 0x2912 JUMP JUMPDEST POP SWAP1 POP POP DUP1 PUSH1 0x0 DUP5 PUSH1 0x40 MLOAD PUSH2 0x22A0 SWAP2 SWAP1 PUSH2 0x3461 JUMP JUMPDEST SWAP1 DUP2 MSTORE PUSH1 0x20 ADD PUSH1 0x40 MLOAD DUP1 SWAP2 SUB SWAP1 KECCAK256 PUSH1 0x0 DUP3 ADD MLOAD DUP2 PUSH1 0x0 ADD SWAP1 DUP1 MLOAD SWAP1 PUSH1 0x20 ADD SWAP1 PUSH2 0x22CA SWAP3 SWAP2 SWAP1 PUSH2 0x2912 JUMP JUMPDEST POP PUSH1 0x20 DUP3 ADD MLOAD DUP2 PUSH1 0x1 ADD PUSH1 0x0 PUSH2 0x100 EXP DUP2 SLOAD DUP2 PUSH20 0xFFFFFFFFFFFFFFFFFFFFFFFFFFFFFFFFFFFFFFFF MUL NOT AND SWAP1 DUP4 PUSH20 0xFFFFFFFFFFFFFFFFFFFFFFFFFFFFFFFFFFFFFFFF AND MUL OR SWAP1 SSTORE POP PUSH1 0x40 DUP3 ADD MLOAD DUP2 PUSH1 0x2 ADD PUSH1 0x0 PUSH2 0x100 EXP DUP2 SLOAD DUP2 PUSH20 0xFFFFFFFFFFFFFFFFFFFFFFFFFFFFFFFFFFFFFFFF MUL NOT AND SWAP1 DUP4 PUSH20 0xFFFFFFFFFFFFFFFFFFFFFFFFFFFFFFFFFFFFFFFF AND MUL OR SWAP1 SSTORE POP PUSH1 0x60 DUP3 ADD MLOAD DUP2 PUSH1 0x3 ADD SSTORE PUSH1 0x80 DUP3 ADD MLOAD DUP2 PUSH1 0x4 ADD SSTORE PUSH1 0xA0 DUP3 ADD MLOAD DUP2 PUSH1 0x5 ADD SSTORE PUSH1 0xC0 DUP3 ADD MLOAD DUP2 PUSH1 0x6 ADD SSTORE PUSH1 0xE0 DUP3 ADD MLOAD DUP2 PUSH1 0x7 ADD PUSH1 0x0 PUSH2 0x100 EXP DUP2 SLOAD DUP2 PUSH1 0xFF MUL NOT AND SWAP1 DUP4 ISZERO ISZERO MUL OR SWAP1 SSTORE POP PUSH2 0x100 DUP3 ADD MLOAD DUP2 PUSH1 0x8 ADD SSTORE PUSH2 0x120 DUP3 ADD MLOAD DUP2 PUSH1 0x9 ADD SWAP1 DUP1 MLOAD SWAP1 PUSH1 0x20 ADD SWAP1 PUSH2 0x23C9 SWAP3 SWAP2 SWAP1 PUSH2 0x2912 JUMP JUMPDEST POP PUSH2 0x140 DUP3 ADD MLOAD DUP2 PUSH1 0xA ADD SWAP1 DUP1 MLOAD SWAP1 PUSH1 0x20 ADD SWAP1 PUSH2 0x23E7 SWAP3 SWAP2 SWAP1 PUSH2 0x2912 JUMP JUMPDEST POP PUSH2 0x160 DUP3 ADD MLOAD DUP2 PUSH1 0xB ADD SWAP1 DUP1 MLOAD SWAP1 PUSH1 0x20 ADD SWAP1 PUSH2 0x2405 SWAP3 SWAP2 SWAP1 PUSH2 0x2912 JUMP JUMPDEST POP SWAP1 POP POP POP POP POP POP POP POP POP JUMP JUMPDEST PUSH1 0x2 DUP3 DUP1 MLOAD PUSH1 0x20 DUP2 ADD DUP3 ADD DUP1 MLOAD DUP5 DUP3 MSTORE PUSH1 0x20 DUP4 ADD PUSH1 0x20 DUP6 ADD KECCAK256 DUP2 DUP4 MSTORE DUP1 SWAP6 POP POP POP POP POP POP DUP2 DUP2 SLOAD DUP2 LT PUSH2 0x2444 JUMPI PUSH1 0x0 DUP1 REVERT JUMPDEST SWAP1 PUSH1 0x0 MSTORE PUSH1 0x20 PUSH1 0x0 KECCAK256 ADD PUSH1 0x0 SWAP2 POP SWAP2 POP POP DUP1 PUSH1 0x0 ADD PUSH1 0x0 SWAP1 SLOAD SWAP1 PUSH2 0x100 EXP SWAP1 DIV PUSH1 0xFF AND SWAP1 DUP1 PUSH1 0x0 ADD PUSH1 0x1 SWAP1 SLOAD SWAP1 PUSH2 0x100 EXP SWAP1 DIV PUSH1 0xFF AND SWAP1 DUP1 PUSH1 0x0 ADD PUSH1 0x2 SWAP1 SLOAD SWAP1 PUSH2 0x100 EXP SWAP1 DIV PUSH20 0xFFFFFFFFFFFFFFFFFFFFFFFFFFFFFFFFFFFFFFFF AND SWAP1 POP DUP4 JUMP JUMPDEST PUSH1 0x60 PUSH1 0x0 DUP4 DUP4 PUSH1 0x40 MLOAD PUSH2 0x24B9 SWAP3 SWAP2 SWAP1 PUSH2 0x3448 JUMP JUMPDEST SWAP1 DUP2 MSTORE PUSH1 0x20 ADD PUSH1 0x40 MLOAD DUP1 SWAP2 SUB SWAP1 KECCAK256 PUSH1 0x0 ADD DUP1 SLOAD PUSH2 0x24D5 SWAP1 PUSH2 0x3A72 JUMP JUMPDEST DUP1 PUSH1 0x1F ADD PUSH1 0x20 DUP1 SWAP2 DIV MUL PUSH1 0x20 ADD PUSH1 0x40 MLOAD SWAP1 DUP2 ADD PUSH1 0x40 MSTORE DUP1 SWAP3 SWAP2 SWAP1 DUP2 DUP2 MSTORE PUSH1 0x20 ADD DUP3 DUP1 SLOAD PUSH2 0x2501 SWAP1 PUSH2 0x3A72 JUMP JUMPDEST DUP1 ISZERO PUSH2 0x254E JUMPI DUP1 PUSH1 0x1F LT PUSH2 0x2523 JUMPI PUSH2 0x100 DUP1 DUP4 SLOAD DIV MUL DUP4 MSTORE SWAP2 PUSH1 0x20 ADD SWAP2 PUSH2 0x254E JUMP JUMPDEST DUP3 ADD SWAP2 SWAP1 PUSH1 0x0 MSTORE PUSH1 0x20 PUSH1 0x0 KECCAK256 SWAP1 JUMPDEST DUP2 SLOAD DUP2 MSTORE SWAP1 PUSH1 0x1 ADD SWAP1 PUSH1 0x20 ADD DUP1 DUP4 GT PUSH2 0x2531 JUMPI DUP3 SWAP1 SUB PUSH1 0x1F AND DUP3 ADD SWAP2 JUMPDEST POP POP POP POP POP SWAP1 POP SWAP3 SWAP2 POP POP JUMP JUMPDEST PUSH2 0x2563 PUSH2 0x2998 JUMP JUMPDEST PUSH1 0x0 DUP4 DUP4 PUSH1 0x40 MLOAD PUSH2 0x2575 SWAP3 SWAP2 SWAP1 PUSH2 0x3448 JUMP JUMPDEST SWAP1 DUP2 MSTORE PUSH1 0x20 ADD PUSH1 0x40 MLOAD DUP1 SWAP2 SUB SWAP1 KECCAK256 PUSH1 0x40 MLOAD DUP1 PUSH2 0x180 ADD PUSH1 0x40 MSTORE SWAP1 DUP2 PUSH1 0x0 DUP3 ADD DUP1 SLOAD PUSH2 0x259F SWAP1 PUSH2 0x3A72 JUMP JUMPDEST DUP1 PUSH1 0x1F ADD PUSH1 0x20 DUP1 SWAP2 DIV MUL PUSH1 0x20 ADD PUSH1 0x40 MLOAD SWAP1 DUP2 ADD PUSH1 0x40 MSTORE DUP1 SWAP3 SWAP2 SWAP1 DUP2 DUP2 MSTORE PUSH1 0x20 ADD DUP3 DUP1 SLOAD PUSH2 0x25CB SWAP1 PUSH2 0x3A72 JUMP JUMPDEST DUP1 ISZERO PUSH2 0x2618 JUMPI DUP1 PUSH1 0x1F LT PUSH2 0x25ED JUMPI PUSH2 0x100 DUP1 DUP4 SLOAD DIV MUL DUP4 MSTORE SWAP2 PUSH1 0x20 ADD SWAP2 PUSH2 0x2618 JUMP JUMPDEST DUP3 ADD SWAP2 SWAP1 PUSH1 0x0 MSTORE PUSH1 0x20 PUSH1 0x0 KECCAK256 SWAP1 JUMPDEST DUP2 SLOAD DUP2 MSTORE SWAP1 PUSH1 0x1 ADD SWAP1 PUSH1 0x20 ADD DUP1 DUP4 GT PUSH2 0x25FB JUMPI DUP3 SWAP1 SUB PUSH1 0x1F AND DUP3 ADD SWAP2 JUMPDEST POP POP POP POP POP DUP2 MSTORE PUSH1 0x20 ADD PUSH1 0x1 DUP3 ADD PUSH1 0x0 SWAP1 SLOAD SWAP1 PUSH2 0x100 EXP SWAP1 DIV PUSH20 0xFFFFFFFFFFFFFFFFFFFFFFFFFFFFFFFFFFFFFFFF AND PUSH20 0xFFFFFFFFFFFFFFFFFFFFFFFFFFFFFFFFFFFFFFFF AND PUSH20 0xFFFFFFFFFFFFFFFFFFFFFFFFFFFFFFFFFFFFFFFF AND DUP2 MSTORE PUSH1 0x20 ADD PUSH1 0x2 DUP3 ADD PUSH1 0x0 SWAP1 SLOAD SWAP1 PUSH2 0x100 EXP SWAP1 DIV PUSH20 0xFFFFFFFFFFFFFFFFFFFFFFFFFFFFFFFFFFFFFFFF AND PUSH20 0xFFFFFFFFFFFFFFFFFFFFFFFFFFFFFFFFFFFFFFFF AND PUSH20 0xFFFFFFFFFFFFFFFFFFFFFFFFFFFFFFFFFFFFFFFF AND DUP2 MSTORE PUSH1 0x20 ADD PUSH1 0x3 DUP3 ADD SLOAD DUP2 MSTORE PUSH1 0x20 ADD PUSH1 0x4 DUP3 ADD SLOAD DUP2 MSTORE PUSH1 0x20 ADD PUSH1 0x5 DUP3 ADD SLOAD DUP2 MSTORE PUSH1 0x20 ADD PUSH1 0x6 DUP3 ADD SLOAD DUP2 MSTORE PUSH1 0x20 ADD PUSH1 0x7 DUP3 ADD PUSH1 0x0 SWAP1 SLOAD SWAP1 PUSH2 0x100 EXP SWAP1 DIV PUSH1 0xFF AND ISZERO ISZERO ISZERO ISZERO DUP2 MSTORE PUSH1 0x20 ADD PUSH1 0x8 DUP3 ADD SLOAD DUP2 MSTORE PUSH1 0x20 ADD PUSH1 0x9 DUP3 ADD DUP1 SLOAD PUSH2 0x272A SWAP1 PUSH2 0x3A72 JUMP JUMPDEST DUP1 PUSH1 0x1F ADD PUSH1 0x20 DUP1 SWAP2 DIV MUL PUSH1 0x20 ADD PUSH1 0x40 MLOAD SWAP1 DUP2 ADD PUSH1 0x40 MSTORE DUP1 SWAP3 SWAP2 SWAP1 DUP2 DUP2 MSTORE PUSH1 0x20 ADD DUP3 DUP1 SLOAD PUSH2 0x2756 SWAP1 PUSH2 0x3A72 JUMP JUMPDEST DUP1 ISZERO PUSH2 0x27A3 JUMPI DUP1 PUSH1 0x1F LT PUSH2 0x2778 JUMPI PUSH2 0x100 DUP1 DUP4 SLOAD DIV MUL DUP4 MSTORE SWAP2 PUSH1 0x20 ADD SWAP2 PUSH2 0x27A3 JUMP JUMPDEST DUP3 ADD SWAP2 SWAP1 PUSH1 0x0 MSTORE PUSH1 0x20 PUSH1 0x0 KECCAK256 SWAP1 JUMPDEST DUP2 SLOAD DUP2 MSTORE SWAP1 PUSH1 0x1 ADD SWAP1 PUSH1 0x20 ADD DUP1 DUP4 GT PUSH2 0x2786 JUMPI DUP3 SWAP1 SUB PUSH1 0x1F AND DUP3 ADD SWAP2 JUMPDEST POP POP POP POP POP DUP2 MSTORE PUSH1 0x20 ADD PUSH1 0xA DUP3 ADD DUP1 SLOAD PUSH2 0x27BC SWAP1 PUSH2 0x3A72 JUMP JUMPDEST DUP1 PUSH1 0x1F ADD PUSH1 0x20 DUP1 SWAP2 DIV MUL PUSH1 0x20 ADD PUSH1 0x40 MLOAD SWAP1 DUP2 ADD PUSH1 0x40 MSTORE DUP1 SWAP3 SWAP2 SWAP1 DUP2 DUP2 MSTORE PUSH1 0x20 ADD DUP3 DUP1 SLOAD PUSH2 0x27E8 SWAP1 PUSH2 0x3A72 JUMP JUMPDEST DUP1 ISZERO PUSH2 0x2835 JUMPI DUP1 PUSH1 0x1F LT PUSH2 0x280A JUMPI PUSH2 0x100 DUP1 DUP4 SLOAD DIV MUL DUP4 MSTORE SWAP2 PUSH1 0x20 ADD SWAP2 PUSH2 0x2835 JUMP JUMPDEST DUP3 ADD SWAP2 SWAP1 PUSH1 0x0 MSTORE PUSH1 0x20 PUSH1 0x0 KECCAK256 SWAP1 JUMPDEST DUP2 SLOAD DUP2 MSTORE SWAP1 PUSH1 0x1 ADD SWAP1 PUSH1 0x20 ADD DUP1 DUP4 GT PUSH2 0x2818 JUMPI DUP3 SWAP1 SUB PUSH1 0x1F AND DUP3 ADD SWAP2 JUMPDEST POP POP POP POP POP DUP2 MSTORE PUSH1 0x20 ADD PUSH1 0xB DUP3 ADD DUP1 SLOAD PUSH2 0x284E SWAP1 PUSH2 0x3A72 JUMP JUMPDEST DUP1 PUSH1 0x1F ADD PUSH1 0x20 DUP1 SWAP2 DIV MUL PUSH1 0x20 ADD PUSH1 0x40 MLOAD SWAP1 DUP2 ADD PUSH1 0x40 MSTORE DUP1 SWAP3 SWAP2 SWAP1 DUP2 DUP2 MSTORE PUSH1 0x20 ADD DUP3 DUP1 SLOAD PUSH2 0x287A SWAP1 PUSH2 0x3A72 JUMP JUMPDEST DUP1 ISZERO PUSH2 0x28C7 JUMPI DUP1 PUSH1 0x1F LT PUSH2 0x289C JUMPI PUSH2 0x100 DUP1 DUP4 SLOAD DIV MUL DUP4 MSTORE SWAP2 PUSH1 0x20 ADD SWAP2 PUSH2 0x28C7 JUMP JUMPDEST DUP3 ADD SWAP2 SWAP1 PUSH1 0x0 MSTORE PUSH1 0x20 PUSH1 0x0 KECCAK256 SWAP1 JUMPDEST DUP2 SLOAD DUP2 MSTORE SWAP1 PUSH1 0x1 ADD SWAP1 PUSH1 0x20 ADD DUP1 DUP4 GT PUSH2 0x28AA JUMPI DUP3 SWAP1 SUB PUSH1 0x1F AND DUP3 ADD SWAP2 JUMPDEST POP POP POP POP POP DUP2 MSTORE POP POP SWAP1 POP SWAP3 SWAP2 POP POP JUMP JUMPDEST PUSH1 0x0 DUP1 DUP4 DUP4 PUSH1 0x40 MLOAD PUSH2 0x28EB SWAP3 SWAP2 SWAP1 PUSH2 0x3448 JUMP JUMPDEST SWAP1 DUP2 MSTORE PUSH1 0x20 ADD PUSH1 0x40 MLOAD DUP1 SWAP2 SUB SWAP1 KECCAK256 PUSH1 0x7 ADD PUSH1 0x0 SWAP1 SLOAD SWAP1 PUSH2 0x100 EXP SWAP1 DIV PUSH1 0xFF AND SWAP1 POP SWAP3 SWAP2 POP POP JUMP JUMPDEST DUP3 DUP1 SLOAD PUSH2 0x291E SWAP1 PUSH2 0x3A72 JUMP JUMPDEST SWAP1 PUSH1 0x0 MSTORE PUSH1 0x20 PUSH1 0x0 KECCAK256 SWAP1 PUSH1 0x1F ADD PUSH1 0x20 SWAP1 DIV DUP2 ADD SWAP3 DUP3 PUSH2 0x2940 JUMPI PUSH1 0x0 DUP6 SSTORE PUSH2 0x2987 JUMP JUMPDEST DUP3 PUSH1 0x1F LT PUSH2 0x2959 JUMPI DUP1 MLOAD PUSH1 0xFF NOT AND DUP4 DUP1 ADD OR DUP6 SSTORE PUSH2 0x2987 JUMP JUMPDEST DUP3 DUP1 ADD PUSH1 0x1 ADD DUP6 SSTORE DUP3 ISZERO PUSH2 0x2987 JUMPI SWAP2 DUP3 ADD JUMPDEST DUP3 DUP2 GT ISZERO PUSH2 0x2986 JUMPI DUP3 MLOAD DUP3 SSTORE SWAP2 PUSH1 0x20 ADD SWAP2 SWAP1 PUSH1 0x1 ADD SWAP1 PUSH2 0x296B JUMP JUMPDEST JUMPDEST POP SWAP1 POP PUSH2 0x2994 SWAP2 SWAP1 PUSH2 0x2A2A JUMP JUMPDEST POP SWAP1 JUMP JUMPDEST PUSH1 0x40 MLOAD DUP1 PUSH2 0x180 ADD PUSH1 0x40 MSTORE DUP1 PUSH1 0x60 DUP2 MSTORE PUSH1 0x20 ADD PUSH1 0x0 PUSH20 0xFFFFFFFFFFFFFFFFFFFFFFFFFFFFFFFFFFFFFFFF AND DUP2 MSTORE PUSH1 0x20 ADD PUSH1 0x0 PUSH20 0xFFFFFFFFFFFFFFFFFFFFFFFFFFFFFFFFFFFFFFFF AND DUP2 MSTORE PUSH1 0x20 ADD PUSH1 0x0 DUP2 MSTORE PUSH1 0x20 ADD PUSH1 0x0 DUP2 MSTORE PUSH1 0x20 ADD PUSH1 0x0 DUP2 MSTORE PUSH1 0x20 ADD PUSH1 0x0 DUP2 MSTORE PUSH1 0x20 ADD PUSH1 0x0 ISZERO ISZERO DUP2 MSTORE PUSH1 0x20 ADD PUSH1 0x0 DUP1 NOT AND DUP2 MSTORE PUSH1 0x20 ADD PUSH1 0x60 DUP2 MSTORE PUSH1 0x20 ADD PUSH1 0x60 DUP2 MSTORE PUSH1 0x20 ADD PUSH1 0x60 DUP2 MSTORE POP SWAP1 JUMP JUMPDEST JUMPDEST DUP1 DUP3 GT ISZERO PUSH2 0x2A43 JUMPI PUSH1 0x0 DUP2 PUSH1 0x0 SWAP1 SSTORE POP PUSH1 0x1 ADD PUSH2 0x2A2B JUMP JUMPDEST POP SWAP1 JUMP JUMPDEST PUSH1 0x0 PUSH2 0x2A5A PUSH2 0x2A55 DUP5 PUSH2 0x382E JUMP JUMPDEST PUSH2 0x3809 JUMP JUMPDEST SWAP1 POP DUP3 DUP2 MSTORE PUSH1 0x20 DUP2 ADD DUP5 DUP5 DUP5 ADD GT ISZERO PUSH2 0x2A76 JUMPI PUSH2 0x2A75 PUSH2 0x3BF9 JUMP JUMPDEST JUMPDEST PUSH2 0x2A81 DUP5 DUP3 DUP6 PUSH2 0x3A30 JUMP JUMPDEST POP SWAP4 SWAP3 POP POP POP JUMP JUMPDEST PUSH1 0x0 DUP2 CALLDATALOAD SWAP1 POP PUSH2 0x2A98 DUP2 PUSH2 0x3E9D JUMP JUMPDEST SWAP3 SWAP2 POP POP JUMP JUMPDEST PUSH1 0x0 DUP1 DUP4 PUSH1 0x1F DUP5 ADD SLT PUSH2 0x2AB4 JUMPI PUSH2 0x2AB3 PUSH2 0x3BEF JUMP JUMPDEST JUMPDEST DUP3 CALLDATALOAD SWAP1 POP PUSH8 0xFFFFFFFFFFFFFFFF DUP2 GT ISZERO PUSH2 0x2AD1 JUMPI PUSH2 0x2AD0 PUSH2 0x3BEA JUMP JUMPDEST JUMPDEST PUSH1 0x20 DUP4 ADD SWAP2 POP DUP4 PUSH1 0x1 DUP3 MUL DUP4 ADD GT ISZERO PUSH2 0x2AED JUMPI PUSH2 0x2AEC PUSH2 0x3BF4 JUMP JUMPDEST JUMPDEST SWAP3 POP SWAP3 SWAP1 POP JUMP JUMPDEST PUSH1 0x0 DUP3 PUSH1 0x1F DUP4 ADD SLT PUSH2 0x2B09 JUMPI PUSH2 0x2B08 PUSH2 0x3BEF JUMP JUMPDEST JUMPDEST DUP2 CALLDATALOAD PUSH2 0x2B19 DUP5 DUP3 PUSH1 0x20 DUP7 ADD PUSH2 0x2A47 JUMP JUMPDEST SWAP2 POP POP SWAP3 SWAP2 POP POP JUMP JUMPDEST PUSH1 0x0 DUP2 CALLDATALOAD SWAP1 POP PUSH2 0x2B31 DUP2 PUSH2 0x3EB4 JUMP JUMPDEST SWAP3 SWAP2 POP POP JUMP JUMPDEST PUSH1 0x0 DUP1 PUSH1 0x0 PUSH1 0x40 DUP5 DUP7 SUB SLT ISZERO PUSH2 0x2B50 JUMPI PUSH2 0x2B4F PUSH2 0x3C03 JUMP JUMPDEST JUMPDEST PUSH1 0x0 PUSH2 0x2B5E DUP7 DUP3 DUP8 ADD PUSH2 0x2A89 JUMP JUMPDEST SWAP4 POP POP PUSH1 0x20 DUP5 ADD CALLDATALOAD PUSH8 0xFFFFFFFFFFFFFFFF DUP2 GT ISZERO PUSH2 0x2B7F JUMPI PUSH2 0x2B7E PUSH2 0x3BFE JUMP JUMPDEST JUMPDEST PUSH2 0x2B8B DUP7 DUP3 DUP8 ADD PUSH2 0x2A9E JUMP JUMPDEST SWAP3 POP SWAP3 POP POP SWAP3 POP SWAP3 POP SWAP3 JUMP JUMPDEST PUSH1 0x0 DUP1 PUSH1 0x20 DUP4 DUP6 SUB SLT ISZERO PUSH2 0x2BAE JUMPI PUSH2 0x2BAD PUSH2 0x3C03 JUMP JUMPDEST JUMPDEST PUSH1 0x0 DUP4 ADD CALLDATALOAD PUSH8 0xFFFFFFFFFFFFFFFF DUP2 GT ISZERO PUSH2 0x2BCC JUMPI PUSH2 0x2BCB PUSH2 0x3BFE JUMP JUMPDEST JUMPDEST PUSH2 0x2BD8 DUP6 DUP3 DUP7 ADD PUSH2 0x2A9E JUMP JUMPDEST SWAP3 POP SWAP3 POP POP SWAP3 POP SWAP3 SWAP1 POP JUMP JUMPDEST PUSH1 0x0 PUSH1 0x20 DUP3 DUP5 SUB SLT ISZERO PUSH2 0x2BFA JUMPI PUSH2 0x2BF9 PUSH2 0x3C03 JUMP JUMPDEST JUMPDEST PUSH1 0x0 DUP3 ADD CALLDATALOAD PUSH8 0xFFFFFFFFFFFFFFFF DUP2 GT ISZERO PUSH2 0x2C18 JUMPI PUSH2 0x2C17 PUSH2 0x3BFE JUMP JUMPDEST JUMPDEST PUSH2 0x2C24 DUP5 DUP3 DUP6 ADD PUSH2 0x2AF4 JUMP JUMPDEST SWAP2 POP POP SWAP3 SWAP2 POP POP JUMP JUMPDEST PUSH1 0x0 DUP1 PUSH1 0x40 DUP4 DUP6 SUB SLT ISZERO PUSH2 0x2C44 JUMPI PUSH2 0x2C43 PUSH2 0x3C03 JUMP JUMPDEST JUMPDEST PUSH1 0x0 DUP4 ADD CALLDATALOAD PUSH8 0xFFFFFFFFFFFFFFFF DUP2 GT ISZERO PUSH2 0x2C62 JUMPI PUSH2 0x2C61 PUSH2 0x3BFE JUMP JUMPDEST JUMPDEST PUSH2 0x2C6E DUP6 DUP3 DUP7 ADD PUSH2 0x2AF4 JUMP JUMPDEST SWAP3 POP POP PUSH1 0x20 PUSH2 0x2C7F DUP6 DUP3 DUP7 ADD PUSH2 0x2A89 JUMP JUMPDEST SWAP2 POP POP SWAP3 POP SWAP3 SWAP1 POP JUMP JUMPDEST PUSH1 0x0 DUP1 PUSH1 0x0 PUSH1 0x40 DUP5 DUP7 SUB SLT ISZERO PUSH2 0x2CA2 JUMPI PUSH2 0x2CA1 PUSH2 0x3C03 JUMP JUMPDEST JUMPDEST PUSH1 0x0 DUP5 ADD CALLDATALOAD PUSH8 0xFFFFFFFFFFFFFFFF DUP2 GT ISZERO PUSH2 0x2CC0 JUMPI PUSH2 0x2CBF PUSH2 0x3BFE JUMP JUMPDEST JUMPDEST PUSH2 0x2CCC DUP7 DUP3 DUP8 ADD PUSH2 0x2AF4 JUMP JUMPDEST SWAP4 POP POP PUSH1 0x20 DUP5 ADD CALLDATALOAD PUSH8 0xFFFFFFFFFFFFFFFF DUP2 GT ISZERO PUSH2 0x2CED JUMPI PUSH2 0x2CEC PUSH2 0x3BFE JUMP JUMPDEST JUMPDEST PUSH2 0x2CF9 DUP7 DUP3 DUP8 ADD PUSH2 0x2A9E JUMP JUMPDEST SWAP3 POP SWAP3 POP POP SWAP3 POP SWAP3 POP SWAP3 JUMP JUMPDEST PUSH1 0x0 DUP1 PUSH1 0x40 DUP4 DUP6 SUB SLT ISZERO PUSH2 0x2D1C JUMPI PUSH2 0x2D1B PUSH2 0x3C03 JUMP JUMPDEST JUMPDEST PUSH1 0x0 DUP4 ADD CALLDATALOAD PUSH8 0xFFFFFFFFFFFFFFFF DUP2 GT ISZERO PUSH2 0x2D3A JUMPI PUSH2 0x2D39 PUSH2 0x3BFE JUMP JUMPDEST JUMPDEST PUSH2 0x2D46 DUP6 DUP3 DUP7 ADD PUSH2 0x2AF4 JUMP JUMPDEST SWAP3 POP POP PUSH1 0x20 PUSH2 0x2D57 DUP6 DUP3 DUP7 ADD PUSH2 0x2B22 JUMP JUMPDEST SWAP2 POP POP SWAP3 POP SWAP3 SWAP1 POP JUMP JUMPDEST PUSH1 0x0 DUP1 PUSH1 0x0 DUP1 PUSH1 0x80 DUP6 DUP8 SUB SLT ISZERO PUSH2 0x2D7B JUMPI PUSH2 0x2D7A PUSH2 0x3C03 JUMP JUMPDEST JUMPDEST PUSH1 0x0 DUP6 ADD CALLDATALOAD PUSH8 0xFFFFFFFFFFFFFFFF DUP2 GT ISZERO PUSH2 0x2D99 JUMPI PUSH2 0x2D98 PUSH2 0x3BFE JUMP JUMPDEST JUMPDEST PUSH2 0x2DA5 DUP8 DUP3 DUP9 ADD PUSH2 0x2AF4 JUMP JUMPDEST SWAP5 POP POP PUSH1 0x20 PUSH2 0x2DB6 DUP8 DUP3 DUP9 ADD PUSH2 0x2B22 JUMP JUMPDEST SWAP4 POP POP PUSH1 0x40 PUSH2 0x2DC7 DUP8 DUP3 DUP9 ADD PUSH2 0x2B22 JUMP JUMPDEST SWAP3 POP POP PUSH1 0x60 DUP6 ADD CALLDATALOAD PUSH8 0xFFFFFFFFFFFFFFFF DUP2 GT ISZERO PUSH2 0x2DE8 JUMPI PUSH2 0x2DE7 PUSH2 0x3BFE JUMP JUMPDEST JUMPDEST PUSH2 0x2DF4 DUP8 DUP3 DUP9 ADD PUSH2 0x2AF4 JUMP JUMPDEST SWAP2 POP POP SWAP3 SWAP6 SWAP2 SWAP5 POP SWAP3 POP JUMP JUMPDEST PUSH1 0x0 DUP1 PUSH1 0x0 DUP1 PUSH1 0x0 DUP1 PUSH1 0xC0 DUP8 DUP10 SUB SLT ISZERO PUSH2 0x2E1D JUMPI PUSH2 0x2E1C PUSH2 0x3C03 JUMP JUMPDEST JUMPDEST PUSH1 0x0 DUP8 ADD CALLDATALOAD PUSH8 0xFFFFFFFFFFFFFFFF DUP2 GT ISZERO PUSH2 0x2E3B JUMPI PUSH2 0x2E3A PUSH2 0x3BFE JUMP JUMPDEST JUMPDEST PUSH2 0x2E47 DUP10 DUP3 DUP11 ADD PUSH2 0x2AF4 JUMP JUMPDEST SWAP7 POP POP PUSH1 0x20 PUSH2 0x2E58 DUP10 DUP3 DUP11 ADD PUSH2 0x2B22 JUMP JUMPDEST SWAP6 POP POP PUSH1 0x40 PUSH2 0x2E69 DUP10 DUP3 DUP11 ADD PUSH2 0x2B22 JUMP JUMPDEST SWAP5 POP POP PUSH1 0x60 DUP8 ADD CALLDATALOAD PUSH8 0xFFFFFFFFFFFFFFFF DUP2 GT ISZERO PUSH2 0x2E8A JUMPI PUSH2 0x2E89 PUSH2 0x3BFE JUMP JUMPDEST JUMPDEST PUSH2 0x2E96 DUP10 DUP3 DUP11 ADD PUSH2 0x2AF4 JUMP JUMPDEST SWAP4 POP POP PUSH1 0x80 DUP8 ADD CALLDATALOAD PUSH8 0xFFFFFFFFFFFFFFFF DUP2 GT ISZERO PUSH2 0x2EB7 JUMPI PUSH2 0x2EB6 PUSH2 0x3BFE JUMP JUMPDEST JUMPDEST PUSH2 0x2EC3 DUP10 DUP3 DUP11 ADD PUSH2 0x2AF4 JUMP JUMPDEST SWAP3 POP POP PUSH1 0xA0 DUP8 ADD CALLDATALOAD PUSH8 0xFFFFFFFFFFFFFFFF DUP2 GT ISZERO PUSH2 0x2EE4 JUMPI PUSH2 0x2EE3 PUSH2 0x3BFE JUMP JUMPDEST JUMPDEST PUSH2 0x2EF0 DUP10 DUP3 DUP11 ADD PUSH2 0x2AF4 JUMP JUMPDEST SWAP2 POP POP SWAP3 SWAP6 POP SWAP3 SWAP6 POP SWAP3 SWAP6 JUMP JUMPDEST PUSH1 0x0 PUSH2 0x2F09 DUP4 DUP4 PUSH2 0x33D1 JUMP JUMPDEST PUSH1 0x60 DUP4 ADD SWAP1 POP SWAP3 SWAP2 POP POP JUMP JUMPDEST PUSH2 0x2F1E DUP2 PUSH2 0x39D1 JUMP JUMPDEST DUP3 MSTORE POP POP JUMP JUMPDEST PUSH2 0x2F2D DUP2 PUSH2 0x39D1 JUMP JUMPDEST DUP3 MSTORE POP POP JUMP JUMPDEST PUSH1 0x0 PUSH2 0x2F3E DUP3 PUSH2 0x3884 JUMP JUMPDEST PUSH2 0x2F48 DUP2 DUP6 PUSH2 0x38A7 JUMP JUMPDEST SWAP4 POP PUSH2 0x2F53 DUP4 PUSH2 0x385F JUMP JUMPDEST DUP1 PUSH1 0x0 JUMPDEST DUP4 DUP2 LT ISZERO PUSH2 0x2F84 JUMPI DUP2 MLOAD PUSH2 0x2F6B DUP9 DUP3 PUSH2 0x2EFD JUMP JUMPDEST SWAP8 POP PUSH2 0x2F76 DUP4 PUSH2 0x389A JUMP JUMPDEST SWAP3 POP POP PUSH1 0x1 DUP2 ADD SWAP1 POP PUSH2 0x2F57 JUMP JUMPDEST POP DUP6 SWAP4 POP POP POP POP SWAP3 SWAP2 POP POP JUMP JUMPDEST PUSH2 0x2F9A DUP2 PUSH2 0x39E3 JUMP JUMPDEST DUP3 MSTORE POP POP JUMP JUMPDEST PUSH2 0x2FA9 DUP2 PUSH2 0x39E3 JUMP JUMPDEST DUP3 MSTORE POP POP JUMP JUMPDEST PUSH2 0x2FB8 DUP2 PUSH2 0x39EF JUMP JUMPDEST DUP3 MSTORE POP POP JUMP JUMPDEST PUSH2 0x2FC7 DUP2 PUSH2 0x39EF JUMP JUMPDEST DUP3 MSTORE POP POP JUMP JUMPDEST PUSH1 0x0 DUP2 SLOAD PUSH2 0x2FDA DUP2 PUSH2 0x3A72 JUMP JUMPDEST PUSH2 0x2FE4 DUP2 DUP7 PUSH2 0x38B8 JUMP JUMPDEST SWAP5 POP PUSH1 0x1 DUP3 AND PUSH1 0x0 DUP2 EQ PUSH2 0x2FFF JUMPI PUSH1 0x1 DUP2 EQ PUSH2 0x3010 JUMPI PUSH2 0x3043 JUMP JUMPDEST PUSH1 0xFF NOT DUP4 AND DUP7 MSTORE DUP2 DUP7 ADD SWAP4 POP PUSH2 0x3043 JUMP JUMPDEST PUSH2 0x3019 DUP6 PUSH2 0x386F JUMP JUMPDEST PUSH1 0x0 JUMPDEST DUP4 DUP2 LT ISZERO PUSH2 0x303B JUMPI DUP2 SLOAD DUP2 DUP10 ADD MSTORE PUSH1 0x1 DUP3 ADD SWAP2 POP PUSH1 0x20 DUP2 ADD SWAP1 POP PUSH2 0x301C JUMP JUMPDEST DUP4 DUP9 ADD SWAP6 POP POP POP JUMPDEST POP POP POP SWAP3 SWAP2 POP POP JUMP JUMPDEST PUSH1 0x0 PUSH2 0x3058 DUP4 DUP6 PUSH2 0x38E5 JUMP JUMPDEST SWAP4 POP PUSH2 0x3065 DUP4 DUP6 DUP5 PUSH2 0x3A30 JUMP JUMPDEST DUP3 DUP5 ADD SWAP1 POP SWAP4 SWAP3 POP POP POP JUMP JUMPDEST PUSH1 0x0 PUSH2 0x307C DUP3 PUSH2 0x388F JUMP JUMPDEST PUSH2 0x3086 DUP2 DUP6 PUSH2 0x38C3 JUMP JUMPDEST SWAP4 POP PUSH2 0x3096 DUP2 DUP6 PUSH1 0x20 DUP7 ADD PUSH2 0x3A3F JUMP JUMPDEST PUSH2 0x309F DUP2 PUSH2 0x3C08 JUMP JUMPDEST DUP5 ADD SWAP2 POP POP SWAP3 SWAP2 POP POP JUMP JUMPDEST PUSH1 0x0 PUSH2 0x30B5 DUP3 PUSH2 0x388F JUMP JUMPDEST PUSH2 0x30BF DUP2 DUP6 PUSH2 0x38D4 JUMP JUMPDEST SWAP4 POP PUSH2 0x30CF DUP2 DUP6 PUSH1 0x20 DUP7 ADD PUSH2 0x3A3F JUMP JUMPDEST PUSH2 0x30D8 DUP2 PUSH2 0x3C08 JUMP JUMPDEST DUP5 ADD SWAP2 POP POP SWAP3 SWAP2 POP POP JUMP JUMPDEST PUSH1 0x0 PUSH2 0x30EE DUP3 PUSH2 0x388F JUMP JUMPDEST PUSH2 0x30F8 DUP2 DUP6 PUSH2 0x38E5 JUMP JUMPDEST SWAP4 POP PUSH2 0x3108 DUP2 DUP6 PUSH1 0x20 DUP7 ADD PUSH2 0x3A3F JUMP JUMPDEST DUP1 DUP5 ADD SWAP2 POP POP SWAP3 SWAP2 POP POP JUMP JUMPDEST PUSH1 0x0 PUSH2 0x3121 PUSH1 0x1F DUP4 PUSH2 0x38D4 JUMP JUMPDEST SWAP2 POP PUSH2 0x312C DUP3 PUSH2 0x3C19 JUMP JUMPDEST PUSH1 0x20 DUP3 ADD SWAP1 POP SWAP2 SWAP1 POP JUMP JUMPDEST PUSH1 0x0 PUSH2 0x3144 PUSH1 0x19 DUP4 PUSH2 0x38D4 JUMP JUMPDEST SWAP2 POP PUSH2 0x314F DUP3 PUSH2 0x3C42 JUMP JUMPDEST PUSH1 0x20 DUP3 ADD SWAP1 POP SWAP2 SWAP1 POP JUMP JUMPDEST PUSH1 0x0 PUSH2 0x3167 PUSH1 0x26 DUP4 PUSH2 0x38D4 JUMP JUMPDEST SWAP2 POP PUSH2 0x3172 DUP3 PUSH2 0x3C6B JUMP JUMPDEST PUSH1 0x40 DUP3 ADD SWAP1 POP SWAP2 SWAP1 POP JUMP JUMPDEST PUSH1 0x0 PUSH2 0x318A PUSH1 0x1C DUP4 PUSH2 0x38D4 JUMP JUMPDEST SWAP2 POP PUSH2 0x3195 DUP3 PUSH2 0x3CBA JUMP JUMPDEST PUSH1 0x20 DUP3 ADD SWAP1 POP SWAP2 SWAP1 POP JUMP JUMPDEST PUSH1 0x0 PUSH2 0x31AD PUSH1 0x15 DUP4 PUSH2 0x38D4 JUMP JUMPDEST SWAP2 POP PUSH2 0x31B8 DUP3 PUSH2 0x3CE3 JUMP JUMPDEST PUSH1 0x20 DUP3 ADD SWAP1 POP SWAP2 SWAP1 POP JUMP JUMPDEST PUSH1 0x0 PUSH2 0x31D0 PUSH1 0x1E DUP4 PUSH2 0x38D4 JUMP JUMPDEST SWAP2 POP PUSH2 0x31DB DUP3 PUSH2 0x3D0C JUMP JUMPDEST PUSH1 0x20 DUP3 ADD SWAP1 POP SWAP2 SWAP1 POP JUMP JUMPDEST PUSH1 0x0 PUSH2 0x31F3 PUSH1 0x24 DUP4 PUSH2 0x38D4 JUMP JUMPDEST SWAP2 POP PUSH2 0x31FE DUP3 PUSH2 0x3D35 JUMP JUMPDEST PUSH1 0x40 DUP3 ADD SWAP1 POP SWAP2 SWAP1 POP JUMP JUMPDEST PUSH1 0x0 PUSH2 0x3216 PUSH1 0x28 DUP4 PUSH2 0x38D4 JUMP JUMPDEST SWAP2 POP PUSH2 0x3221 DUP3 PUSH2 0x3D84 JUMP JUMPDEST PUSH1 0x40 DUP3 ADD SWAP1 POP SWAP2 SWAP1 POP JUMP JUMPDEST PUSH1 0x0 PUSH2 0x3239 PUSH1 0x14 DUP4 PUSH2 0x38D4 JUMP JUMPDEST SWAP2 POP PUSH2 0x3244 DUP3 PUSH2 0x3DD3 JUMP JUMPDEST PUSH1 0x20 DUP3 ADD SWAP1 POP SWAP2 SWAP1 POP JUMP JUMPDEST PUSH1 0x0 PUSH2 0x325C PUSH1 0x20 DUP4 PUSH2 0x38D4 JUMP JUMPDEST SWAP2 POP PUSH2 0x3267 DUP3 PUSH2 0x3DFC JUMP JUMPDEST PUSH1 0x20 DUP3 ADD SWAP1 POP SWAP2 SWAP1 POP JUMP JUMPDEST PUSH1 0x0 PUSH2 0x327F PUSH1 0x12 DUP4 PUSH2 0x38D4 JUMP JUMPDEST SWAP2 POP PUSH2 0x328A DUP3 PUSH2 0x3E25 JUMP JUMPDEST PUSH1 0x20 DUP3 ADD SWAP1 POP SWAP2 SWAP1 POP JUMP JUMPDEST PUSH1 0x0 PUSH2 0x32A2 PUSH1 0x25 DUP4 PUSH2 0x38D4 JUMP JUMPDEST SWAP2 POP PUSH2 0x32AD DUP3 PUSH2 0x3E4E JUMP JUMPDEST PUSH1 0x40 DUP3 ADD SWAP1 POP SWAP2 SWAP1 POP JUMP JUMPDEST PUSH1 0x0 PUSH2 0x180 DUP4 ADD PUSH1 0x0 DUP4 ADD MLOAD DUP5 DUP3 SUB PUSH1 0x0 DUP7 ADD MSTORE PUSH2 0x32D6 DUP3 DUP3 PUSH2 0x3071 JUMP JUMPDEST SWAP2 POP POP PUSH1 0x20 DUP4 ADD MLOAD PUSH2 0x32EB PUSH1 0x20 DUP7 ADD DUP3 PUSH2 0x2F15 JUMP JUMPDEST POP PUSH1 0x40 DUP4 ADD MLOAD PUSH2 0x32FE PUSH1 0x40 DUP7 ADD DUP3 PUSH2 0x2F15 JUMP JUMPDEST POP PUSH1 0x60 DUP4 ADD MLOAD PUSH2 0x3311 PUSH1 0x60 DUP7 ADD DUP3 PUSH2 0x3413 JUMP JUMPDEST POP PUSH1 0x80 DUP4 ADD MLOAD PUSH2 0x3324 PUSH1 0x80 DUP7 ADD DUP3 PUSH2 0x3413 JUMP JUMPDEST POP PUSH1 0xA0 DUP4 ADD MLOAD PUSH2 0x3337 PUSH1 0xA0 DUP7 ADD DUP3 PUSH2 0x3413 JUMP JUMPDEST POP PUSH1 0xC0 DUP4 ADD MLOAD PUSH2 0x334A PUSH1 0xC0 DUP7 ADD DUP3 PUSH2 0x3413 JUMP JUMPDEST POP PUSH1 0xE0 DUP4 ADD MLOAD PUSH2 0x335D PUSH1 0xE0 DUP7 ADD DUP3 PUSH2 0x2F91 JUMP JUMPDEST POP PUSH2 0x100 DUP4 ADD MLOAD PUSH2 0x3372 PUSH2 0x100 DUP7 ADD DUP3 PUSH2 0x2FAF JUMP JUMPDEST POP PUSH2 0x120 DUP4 ADD MLOAD DUP5 DUP3 SUB PUSH2 0x120 DUP7 ADD MSTORE PUSH2 0x338C DUP3 DUP3 PUSH2 0x3071 JUMP JUMPDEST SWAP2 POP POP PUSH2 0x140 DUP4 ADD MLOAD DUP5 DUP3 SUB PUSH2 0x140 DUP7 ADD MSTORE PUSH2 0x33A8 DUP3 DUP3 PUSH2 0x3071 JUMP JUMPDEST SWAP2 POP POP PUSH2 0x160 DUP4 ADD MLOAD DUP5 DUP3 SUB PUSH2 0x160 DUP7 ADD MSTORE PUSH2 0x33C4 DUP3 DUP3 PUSH2 0x3071 JUMP JUMPDEST SWAP2 POP POP DUP1 SWAP2 POP POP SWAP3 SWAP2 POP POP JUMP JUMPDEST PUSH1 0x60 DUP3 ADD PUSH1 0x0 DUP3 ADD MLOAD PUSH2 0x33E7 PUSH1 0x0 DUP6 ADD DUP3 PUSH2 0x2F91 JUMP JUMPDEST POP PUSH1 0x20 DUP3 ADD MLOAD PUSH2 0x33FA PUSH1 0x20 DUP6 ADD DUP3 PUSH2 0x2F91 JUMP JUMPDEST POP PUSH1 0x40 DUP3 ADD MLOAD PUSH2 0x340D PUSH1 0x40 DUP6 ADD DUP3 PUSH2 0x2F15 JUMP JUMPDEST POP POP POP POP JUMP JUMPDEST PUSH2 0x341C DUP2 PUSH2 0x3A19 JUMP JUMPDEST DUP3 MSTORE POP POP JUMP JUMPDEST PUSH2 0x342B DUP2 PUSH2 0x3A19 JUMP JUMPDEST DUP3 MSTORE POP POP JUMP JUMPDEST PUSH1 0x0 PUSH2 0x343D DUP3 DUP5 PUSH2 0x2FCD JUMP JUMPDEST SWAP2 POP DUP2 SWAP1 POP SWAP3 SWAP2 POP POP JUMP JUMPDEST PUSH1 0x0 PUSH2 0x3455 DUP3 DUP5 DUP7 PUSH2 0x304C JUMP JUMPDEST SWAP2 POP DUP2 SWAP1 POP SWAP4 SWAP3 POP POP POP JUMP JUMPDEST PUSH1 0x0 PUSH2 0x346D DUP3 DUP5 PUSH2 0x30E3 JUMP JUMPDEST SWAP2 POP DUP2 SWAP1 POP SWAP3 SWAP2 POP POP JUMP JUMPDEST PUSH1 0x0 PUSH1 0x20 DUP3 ADD SWAP1 POP PUSH2 0x348D PUSH1 0x0 DUP4 ADD DUP5 PUSH2 0x2F24 JUMP JUMPDEST SWAP3 SWAP2 POP POP JUMP JUMPDEST PUSH1 0x0 PUSH1 0x20 DUP3 ADD SWAP1 POP PUSH2 0x34A8 PUSH1 0x0 DUP4 ADD DUP5 PUSH2 0x2FA0 JUMP JUMPDEST SWAP3 SWAP2 POP POP JUMP JUMPDEST PUSH1 0x0 PUSH1 0x60 DUP3 ADD SWAP1 POP PUSH2 0x34C3 PUSH1 0x0 DUP4 ADD DUP7 PUSH2 0x2FA0 JUMP JUMPDEST PUSH2 0x34D0 PUSH1 0x20 DUP4 ADD DUP6 PUSH2 0x2FA0 JUMP JUMPDEST PUSH2 0x34DD PUSH1 0x40 DUP4 ADD DUP5 PUSH2 0x2F24 JUMP JUMPDEST SWAP5 SWAP4 POP POP POP POP JUMP JUMPDEST PUSH1 0x0 PUSH1 0x60 DUP3 ADD SWAP1 POP PUSH2 0x34FA PUSH1 0x0 DUP4 ADD DUP7 PUSH2 0x2FA0 JUMP JUMPDEST PUSH2 0x3507 PUSH1 0x20 DUP4 ADD DUP6 PUSH2 0x2FA0 JUMP JUMPDEST PUSH2 0x3514 PUSH1 0x40 DUP4 ADD DUP5 PUSH2 0x2FA0 JUMP JUMPDEST SWAP5 SWAP4 POP POP POP POP JUMP JUMPDEST PUSH1 0x0 PUSH1 0x80 DUP3 ADD SWAP1 POP PUSH2 0x3531 PUSH1 0x0 DUP4 ADD DUP8 PUSH2 0x2FBE JUMP JUMPDEST DUP2 DUP2 SUB PUSH1 0x20 DUP4 ADD MSTORE PUSH2 0x3543 DUP2 DUP7 PUSH2 0x30AA JUMP JUMPDEST SWAP1 POP PUSH2 0x3552 PUSH1 0x40 DUP4 ADD DUP6 PUSH2 0x3422 JUMP JUMPDEST DUP2 DUP2 SUB PUSH1 0x60 DUP4 ADD MSTORE PUSH2 0x3564 DUP2 DUP5 PUSH2 0x2F33 JUMP JUMPDEST SWAP1 POP SWAP6 SWAP5 POP POP POP POP POP JUMP JUMPDEST PUSH1 0x0 PUSH1 0x20 DUP3 ADD SWAP1 POP DUP2 DUP2 SUB PUSH1 0x0 DUP4 ADD MSTORE PUSH2 0x3589 DUP2 DUP5 PUSH2 0x30AA JUMP JUMPDEST SWAP1 POP SWAP3 SWAP2 POP POP JUMP JUMPDEST PUSH1 0x0 PUSH2 0x180 DUP3 ADD SWAP1 POP DUP2 DUP2 SUB PUSH1 0x0 DUP4 ADD MSTORE PUSH2 0x35AC DUP2 DUP16 PUSH2 0x30AA JUMP JUMPDEST SWAP1 POP PUSH2 0x35BB PUSH1 0x20 DUP4 ADD DUP15 PUSH2 0x2F24 JUMP JUMPDEST PUSH2 0x35C8 PUSH1 0x40 DUP4 ADD DUP14 PUSH2 0x2F24 JUMP JUMPDEST PUSH2 0x35D5 PUSH1 0x60 DUP4 ADD DUP13 PUSH2 0x3422 JUMP JUMPDEST PUSH2 0x35E2 PUSH1 0x80 DUP4 ADD DUP12 PUSH2 0x3422 JUMP JUMPDEST PUSH2 0x35EF PUSH1 0xA0 DUP4 ADD DUP11 PUSH2 0x3422 JUMP JUMPDEST PUSH2 0x35FC PUSH1 0xC0 DUP4 ADD DUP10 PUSH2 0x3422 JUMP JUMPDEST PUSH2 0x3609 PUSH1 0xE0 DUP4 ADD DUP9 PUSH2 0x2FA0 JUMP JUMPDEST PUSH2 0x3617 PUSH2 0x100 DUP4 ADD DUP8 PUSH2 0x2FBE JUMP JUMPDEST DUP2 DUP2 SUB PUSH2 0x120 DUP4 ADD MSTORE PUSH2 0x362A DUP2 DUP7 PUSH2 0x30AA JUMP JUMPDEST SWAP1 POP DUP2 DUP2 SUB PUSH2 0x140 DUP4 ADD MSTORE PUSH2 0x363F DUP2 DUP6 PUSH2 0x30AA JUMP JUMPDEST SWAP1 POP DUP2 DUP2 SUB PUSH2 0x160 DUP4 ADD MSTORE PUSH2 0x3654 DUP2 DUP5 PUSH2 0x30AA JUMP JUMPDEST SWAP1 POP SWAP14 SWAP13 POP POP POP POP POP POP POP POP POP POP POP POP POP JUMP JUMPDEST PUSH1 0x0 PUSH1 0x20 DUP3 ADD SWAP1 POP DUP2 DUP2 SUB PUSH1 0x0 DUP4 ADD MSTORE PUSH2 0x3680 DUP2 PUSH2 0x3114 JUMP JUMPDEST SWAP1 POP SWAP2 SWAP1 POP JUMP JUMPDEST PUSH1 0x0 PUSH1 0x20 DUP3 ADD SWAP1 POP DUP2 DUP2 SUB PUSH1 0x0 DUP4 ADD MSTORE PUSH2 0x36A0 DUP2 PUSH2 0x3137 JUMP JUMPDEST SWAP1 POP SWAP2 SWAP1 POP JUMP JUMPDEST PUSH1 0x0 PUSH1 0x20 DUP3 ADD SWAP1 POP DUP2 DUP2 SUB PUSH1 0x0 DUP4 ADD MSTORE PUSH2 0x36C0 DUP2 PUSH2 0x315A JUMP JUMPDEST SWAP1 POP SWAP2 SWAP1 POP JUMP JUMPDEST PUSH1 0x0 PUSH1 0x20 DUP3 ADD SWAP1 POP DUP2 DUP2 SUB PUSH1 0x0 DUP4 ADD MSTORE PUSH2 0x36E0 DUP2 PUSH2 0x317D JUMP JUMPDEST SWAP1 POP SWAP2 SWAP1 POP JUMP JUMPDEST PUSH1 0x0 PUSH1 0x20 DUP3 ADD SWAP1 POP DUP2 DUP2 SUB PUSH1 0x0 DUP4 ADD MSTORE PUSH2 0x3700 DUP2 PUSH2 0x31A0 JUMP JUMPDEST SWAP1 POP SWAP2 SWAP1 POP JUMP JUMPDEST PUSH1 0x0 PUSH1 0x20 DUP3 ADD SWAP1 POP DUP2 DUP2 SUB PUSH1 0x0 DUP4 ADD MSTORE PUSH2 0x3720 DUP2 PUSH2 0x31C3 JUMP JUMPDEST SWAP1 POP SWAP2 SWAP1 POP JUMP JUMPDEST PUSH1 0x0 PUSH1 0x20 DUP3 ADD SWAP1 POP DUP2 DUP2 SUB PUSH1 0x0 DUP4 ADD MSTORE PUSH2 0x3740 DUP2 PUSH2 0x31E6 JUMP JUMPDEST SWAP1 POP SWAP2 SWAP1 POP JUMP JUMPDEST PUSH1 0x0 PUSH1 0x20 DUP3 ADD SWAP1 POP DUP2 DUP2 SUB PUSH1 0x0 DUP4 ADD MSTORE PUSH2 0x3760 DUP2 PUSH2 0x3209 JUMP JUMPDEST SWAP1 POP SWAP2 SWAP1 POP JUMP JUMPDEST PUSH1 0x0 PUSH1 0x20 DUP3 ADD SWAP1 POP DUP2 DUP2 SUB PUSH1 0x0 DUP4 ADD MSTORE PUSH2 0x3780 DUP2 PUSH2 0x322C JUMP JUMPDEST SWAP1 POP SWAP2 SWAP1 POP JUMP JUMPDEST PUSH1 0x0 PUSH1 0x20 DUP3 ADD SWAP1 POP DUP2 DUP2 SUB PUSH1 0x0 DUP4 ADD MSTORE PUSH2 0x37A0 DUP2 PUSH2 0x324F JUMP JUMPDEST SWAP1 POP SWAP2 SWAP1 POP JUMP JUMPDEST PUSH1 0x0 PUSH1 0x20 DUP3 ADD SWAP1 POP DUP2 DUP2 SUB PUSH1 0x0 DUP4 ADD MSTORE PUSH2 0x37C0 DUP2 PUSH2 0x3272 JUMP JUMPDEST SWAP1 POP SWAP2 SWAP1 POP JUMP JUMPDEST PUSH1 0x0 PUSH1 0x20 DUP3 ADD SWAP1 POP DUP2 DUP2 SUB PUSH1 0x0 DUP4 ADD MSTORE PUSH2 0x37E0 DUP2 PUSH2 0x3295 JUMP JUMPDEST SWAP1 POP SWAP2 SWAP1 POP JUMP JUMPDEST PUSH1 0x0 PUSH1 0x20 DUP3 ADD SWAP1 POP DUP2 DUP2 SUB PUSH1 0x0 DUP4 ADD MSTORE PUSH2 0x3801 DUP2 DUP5 PUSH2 0x32B8 JUMP JUMPDEST SWAP1 POP SWAP3 SWAP2 POP POP JUMP JUMPDEST PUSH1 0x0 PUSH2 0x3813 PUSH2 0x3824 JUMP JUMPDEST SWAP1 POP PUSH2 0x381F DUP3 DUP3 PUSH2 0x3AA4 JUMP JUMPDEST SWAP2 SWAP1 POP JUMP JUMPDEST PUSH1 0x0 PUSH1 0x40 MLOAD SWAP1 POP SWAP1 JUMP JUMPDEST PUSH1 0x0 PUSH8 0xFFFFFFFFFFFFFFFF DUP3 GT ISZERO PUSH2 0x3849 JUMPI PUSH2 0x3848 PUSH2 0x3BBB JUMP JUMPDEST JUMPDEST PUSH2 0x3852 DUP3 PUSH2 0x3C08 JUMP JUMPDEST SWAP1 POP PUSH1 0x20 DUP2 ADD SWAP1 POP SWAP2 SWAP1 POP JUMP JUMPDEST PUSH1 0x0 DUP2 SWAP1 POP PUSH1 0x20 DUP3 ADD SWAP1 POP SWAP2 SWAP1 POP JUMP JUMPDEST PUSH1 0x0 DUP2 SWAP1 POP DUP2 PUSH1 0x0 MSTORE PUSH1 0x20 PUSH1 0x0 KECCAK256 SWAP1 POP SWAP2 SWAP1 POP JUMP JUMPDEST PUSH1 0x0 DUP2 MLOAD SWAP1 POP SWAP2 SWAP1 POP JUMP JUMPDEST PUSH1 0x0 DUP2 MLOAD SWAP1 POP SWAP2 SWAP1 POP JUMP JUMPDEST PUSH1 0x0 PUSH1 0x20 DUP3 ADD SWAP1 POP SWAP2 SWAP1 POP JUMP JUMPDEST PUSH1 0x0 DUP3 DUP3 MSTORE PUSH1 0x20 DUP3 ADD SWAP1 POP SWAP3 SWAP2 POP POP JUMP JUMPDEST PUSH1 0x0 DUP2 SWAP1 POP SWAP3 SWAP2 POP POP JUMP JUMPDEST PUSH1 0x0 DUP3 DUP3 MSTORE PUSH1 0x20 DUP3 ADD SWAP1 POP SWAP3 SWAP2 POP POP JUMP JUMPDEST PUSH1 0x0 DUP3 DUP3 MSTORE PUSH1 0x20 DUP3 ADD SWAP1 POP SWAP3 SWAP2 POP POP JUMP JUMPDEST PUSH1 0x0 DUP2 SWAP1 POP SWAP3 SWAP2 POP POP JUMP JUMPDEST PUSH1 0x0 PUSH2 0x38FB DUP3 PUSH2 0x3A19 JUMP JUMPDEST SWAP2 POP PUSH2 0x3906 DUP4 PUSH2 0x3A19 JUMP JUMPDEST SWAP3 POP DUP3 PUSH32 0xFFFFFFFFFFFFFFFFFFFFFFFFFFFFFFFFFFFFFFFFFFFFFFFFFFFFFFFFFFFFFFFF SUB DUP3 GT ISZERO PUSH2 0x393B JUMPI PUSH2 0x393A PUSH2 0x3AFF JUMP JUMPDEST JUMPDEST DUP3 DUP3 ADD SWAP1 POP SWAP3 SWAP2 POP POP JUMP JUMPDEST PUSH1 0x0 PUSH2 0x3951 DUP3 PUSH2 0x3A19 JUMP JUMPDEST SWAP2 POP PUSH2 0x395C DUP4 PUSH2 0x3A19 JUMP JUMPDEST SWAP3 POP DUP3 PUSH2 0x396C JUMPI PUSH2 0x396B PUSH2 0x3B2E JUMP JUMPDEST JUMPDEST DUP3 DUP3 DIV SWAP1 POP SWAP3 SWAP2 POP POP JUMP JUMPDEST PUSH1 0x0 PUSH2 0x3982 DUP3 PUSH2 0x3A19 JUMP JUMPDEST SWAP2 POP PUSH2 0x398D DUP4 PUSH2 0x3A19 JUMP JUMPDEST SWAP3 POP DUP2 PUSH32 0xFFFFFFFFFFFFFFFFFFFFFFFFFFFFFFFFFFFFFFFFFFFFFFFFFFFFFFFFFFFFFFFF DIV DUP4 GT DUP3 ISZERO ISZERO AND ISZERO PUSH2 0x39C6 JUMPI PUSH2 0x39C5 PUSH2 0x3AFF JUMP JUMPDEST JUMPDEST DUP3 DUP3 MUL SWAP1 POP SWAP3 SWAP2 POP POP JUMP JUMPDEST PUSH1 0x0 PUSH2 0x39DC DUP3 PUSH2 0x39F9 JUMP JUMPDEST SWAP1 POP SWAP2 SWAP1 POP JUMP JUMPDEST PUSH1 0x0 DUP2 ISZERO ISZERO SWAP1 POP SWAP2 SWAP1 POP JUMP JUMPDEST PUSH1 0x0 DUP2 SWAP1 POP SWAP2 SWAP1 POP JUMP JUMPDEST PUSH1 0x0 PUSH20 0xFFFFFFFFFFFFFFFFFFFFFFFFFFFFFFFFFFFFFFFF DUP3 AND SWAP1 POP SWAP2 SWAP1 POP JUMP JUMPDEST PUSH1 0x0 DUP2 SWAP1 POP SWAP2 SWAP1 POP JUMP JUMPDEST PUSH1 0x0 PUSH1 0xFF DUP3 AND SWAP1 POP SWAP2 SWAP1 POP JUMP JUMPDEST DUP3 DUP2 DUP4 CALLDATACOPY PUSH1 0x0 DUP4 DUP4 ADD MSTORE POP POP POP JUMP JUMPDEST PUSH1 0x0 JUMPDEST DUP4 DUP2 LT ISZERO PUSH2 0x3A5D JUMPI DUP1 DUP3 ADD MLOAD DUP2 DUP5 ADD MSTORE PUSH1 0x20 DUP2 ADD SWAP1 POP PUSH2 0x3A42 JUMP JUMPDEST DUP4 DUP2 GT ISZERO PUSH2 0x3A6C JUMPI PUSH1 0x0 DUP5 DUP5 ADD MSTORE JUMPDEST POP POP POP POP JUMP JUMPDEST PUSH1 0x0 PUSH1 0x2 DUP3 DIV SWAP1 POP PUSH1 0x1 DUP3 AND DUP1 PUSH2 0x3A8A JUMPI PUSH1 0x7F DUP3 AND SWAP2 POP JUMPDEST PUSH1 0x20 DUP3 LT DUP2 EQ ISZERO PUSH2 0x3A9E JUMPI PUSH2 0x3A9D PUSH2 0x3B5D JUMP JUMPDEST JUMPDEST POP SWAP2 SWAP1 POP JUMP JUMPDEST PUSH2 0x3AAD DUP3 PUSH2 0x3C08 JUMP JUMPDEST DUP2 ADD DUP2 DUP2 LT PUSH8 0xFFFFFFFFFFFFFFFF DUP3 GT OR ISZERO PUSH2 0x3ACC JUMPI PUSH2 0x3ACB PUSH2 0x3BBB JUMP JUMPDEST JUMPDEST DUP1 PUSH1 0x40 MSTORE POP POP POP JUMP JUMPDEST PUSH1 0x0 PUSH2 0x3AE0 DUP3 PUSH2 0x3A23 JUMP JUMPDEST SWAP2 POP PUSH1 0xFF DUP3 EQ ISZERO PUSH2 0x3AF4 JUMPI PUSH2 0x3AF3 PUSH2 0x3AFF JUMP JUMPDEST JUMPDEST PUSH1 0x1 DUP3 ADD SWAP1 POP SWAP2 SWAP1 POP JUMP JUMPDEST PUSH32 0x4E487B7100000000000000000000000000000000000000000000000000000000 PUSH1 0x0 MSTORE PUSH1 0x11 PUSH1 0x4 MSTORE PUSH1 0x24 PUSH1 0x0 REVERT JUMPDEST PUSH32 0x4E487B7100000000000000000000000000000000000000000000000000000000 PUSH1 0x0 MSTORE PUSH1 0x12 PUSH1 0x4 MSTORE PUSH1 0x24 PUSH1 0x0 REVERT JUMPDEST PUSH32 0x4E487B7100000000000000000000000000000000000000000000000000000000 PUSH1 0x0 MSTORE PUSH1 0x22 PUSH1 0x4 MSTORE PUSH1 0x24 PUSH1 0x0 REVERT JUMPDEST PUSH32 0x4E487B7100000000000000000000000000000000000000000000000000000000 PUSH1 0x0 MSTORE PUSH1 0x32 PUSH1 0x4 MSTORE PUSH1 0x24 PUSH1 0x0 REVERT JUMPDEST PUSH32 0x4E487B7100000000000000000000000000000000000000000000000000000000 PUSH1 0x0 MSTORE PUSH1 0x41 PUSH1 0x4 MSTORE PUSH1 0x24 PUSH1 0x0 REVERT JUMPDEST PUSH1 0x0 DUP1 REVERT JUMPDEST PUSH1 0x0 DUP1 REVERT JUMPDEST PUSH1 0x0 DUP1 REVERT JUMPDEST PUSH1 0x0 DUP1 REVERT JUMPDEST PUSH1 0x0 DUP1 REVERT JUMPDEST PUSH1 0x0 DUP1 REVERT JUMPDEST PUSH1 0x0 PUSH1 0x1F NOT PUSH1 0x1F DUP4 ADD AND SWAP1 POP SWAP2 SWAP1 POP JUMP JUMPDEST PUSH32 0x526563697069656E7420697320616C7265616479207265676973746572656400 PUSH1 0x0 DUP3 ADD MSTORE POP JUMP JUMPDEST PUSH32 0x50726F706F73616C20616C726561647920637265617465642100000000000000 PUSH1 0x0 DUP3 ADD MSTORE POP JUMP JUMPDEST PUSH32 0x596F75206172656E277420617574686F72697A6520746F20636F6D70696C6520 PUSH1 0x0 DUP3 ADD MSTORE PUSH32 0x42756E646C650000000000000000000000000000000000000000000000000000 PUSH1 0x20 DUP3 ADD MSTORE POP JUMP JUMPDEST PUSH32 0x596F7520616C72656164792073656E74206120726573706F6E73652E00000000 PUSH1 0x0 DUP3 ADD MSTORE POP JUMP JUMPDEST PUSH32 0x496E69746961746F722063616E277420766F7465210000000000000000000000 PUSH1 0x0 DUP3 ADD MSTORE POP JUMP JUMPDEST PUSH32 0x596F7520617265206E6F74207265676973746572656420746F20766F74650000 PUSH1 0x0 DUP3 ADD MSTORE POP JUMP JUMPDEST PUSH32 0x50726F706F73616C206861732072656163686564206974732065787069727920 PUSH1 0x0 DUP3 ADD MSTORE PUSH32 0x6461746500000000000000000000000000000000000000000000000000000000 PUSH1 0x20 DUP3 ADD MSTORE POP JUMP JUMPDEST PUSH32 0x4F6E6C7920696E69746961746F722063616E2072656769737465722061207265 PUSH1 0x0 DUP3 ADD MSTORE PUSH32 0x63697069656E742E000000000000000000000000000000000000000000000000 PUSH1 0x20 DUP3 ADD MSTORE POP JUMP JUMPDEST PUSH32 0x596F75206172656E277420496E69746961746F72000000000000000000000000 PUSH1 0x0 DUP3 ADD MSTORE POP JUMP JUMPDEST PUSH32 0x5665726469637420686173206E6F74206265656E207265616368656420796574 PUSH1 0x0 DUP3 ADD MSTORE POP JUMP JUMPDEST PUSH32 0x566F74696E672068617320657870697265640000000000000000000000000000 PUSH1 0x0 DUP3 ADD MSTORE POP JUMP JUMPDEST PUSH32 0x436F6E73656E7375732068617320616C7265616479206265656E2063616C6375 PUSH1 0x0 DUP3 ADD MSTORE PUSH32 0x6C61746564000000000000000000000000000000000000000000000000000000 PUSH1 0x20 DUP3 ADD MSTORE POP JUMP JUMPDEST PUSH2 0x3EA6 DUP2 PUSH2 0x39D1 JUMP JUMPDEST DUP2 EQ PUSH2 0x3EB1 JUMPI PUSH1 0x0 DUP1 REVERT JUMPDEST POP JUMP JUMPDEST PUSH2 0x3EBD DUP2 PUSH2 0x3A19 JUMP JUMPDEST DUP2 EQ PUSH2 0x3EC8 JUMPI PUSH1 0x0 DUP1 REVERT JUMPDEST POP JUMP INVALID LOG2 PUSH5 0x6970667358 0x22 SLT KECCAK256 0xC6 PUSH20 0x608637B39CA964EAAADC7FB2CEE3681DF4DCBAF9 LOG1 0xAC LT 0xEE PUSH9 0x571E75900164736F6C PUSH4 0x43000807 STOP CALLER "
				},
				"gasEstimates": {
					"creation": {
						"codeDepositCost": "3225800",
						"executionCost": "3579",
						"totalCost": "3229379"
					},
					"external": {
						"Consensus(string)": "infinite",
						"RegisterVoter(address,string)": "infinite",
						"Vote(string,string)": "infinite",
						"Voters(string,uint256)": "infinite",
						"businessProposals(string)": "infinite",
						"checkConsistency(string,uint256,uint256,string)": "infinite",
						"createContract(string,uint256,uint256,string,string,string)": "infinite",
						"getIsCompiled(string)": "infinite",
						"getIsCreated(string)": "infinite",
						"getValues(string)": "infinite",
						"keys(string,uint256)": "infinite",
						"retrieve_bundle(string)": "infinite",
						"voter_maps(string,address)": "infinite"
					}
				},
				"methodIdentifiers": {
					"Consensus(string)": "883a9673",
					"RegisterVoter(address,string)": "3d63af0e",
					"Vote(string,string)": "17072d6b",
					"Voters(string,uint256)": "8f6a35b7",
					"businessProposals(string)": "089a4c60",
					"checkConsistency(string,uint256,uint256,string)": "706e2105",
					"createContract(string,uint256,uint256,string,string,string)": "8b5f41fb",
					"getIsCompiled(string)": "ec548680",
					"getIsCreated(string)": "c9bc42ed",
					"getValues(string)": "c99ba896",
					"keys(string,uint256)": "06699b01",
					"retrieve_bundle(string)": "37f2e190",
					"voter_maps(string,address)": "33a0b0ab"
				}
			},
			"storageLayout": {
				"storage": [
					{
						"astId": 38,
						"contract": "contracts/BusinessConsensus2.sol:BusinessConsensus2",
						"label": "businessProposals",
						"offset": 0,
						"slot": "0",
						"type": "t_mapping(t_string_memory_ptr,t_struct(Proposal)33_storage)"
					},
					{
						"astId": 45,
						"contract": "contracts/BusinessConsensus2.sol:BusinessConsensus2",
						"label": "voter_maps",
						"offset": 0,
						"slot": "1",
						"type": "t_mapping(t_string_memory_ptr,t_mapping(t_address,t_struct(Voter)8_storage))"
					},
					{
						"astId": 51,
						"contract": "contracts/BusinessConsensus2.sol:BusinessConsensus2",
						"label": "Voters",
						"offset": 0,
						"slot": "2",
						"type": "t_mapping(t_string_memory_ptr,t_array(t_struct(Voter)8_storage)dyn_storage)"
					},
					{
						"astId": 56,
						"contract": "contracts/BusinessConsensus2.sol:BusinessConsensus2",
						"label": "keys",
						"offset": 0,
						"slot": "3",
						"type": "t_mapping(t_string_memory_ptr,t_array(t_address)dyn_storage)"
					}
				],
				"types": {
					"t_address": {
						"encoding": "inplace",
						"label": "address",
						"numberOfBytes": "20"
					},
					"t_array(t_address)dyn_storage": {
						"base": "t_address",
						"encoding": "dynamic_array",
						"label": "address[]",
						"numberOfBytes": "32"
					},
					"t_array(t_struct(Voter)8_storage)dyn_storage": {
						"base": "t_struct(Voter)8_storage",
						"encoding": "dynamic_array",
						"label": "struct BusinessConsensus2.Voter[]",
						"numberOfBytes": "32"
					},
					"t_bool": {
						"encoding": "inplace",
						"label": "bool",
						"numberOfBytes": "1"
					},
					"t_bytes32": {
						"encoding": "inplace",
						"label": "bytes32",
						"numberOfBytes": "32"
					},
					"t_mapping(t_address,t_struct(Voter)8_storage)": {
						"encoding": "mapping",
						"key": "t_address",
						"label": "mapping(address => struct BusinessConsensus2.Voter)",
						"numberOfBytes": "32",
						"value": "t_struct(Voter)8_storage"
					},
					"t_mapping(t_string_memory_ptr,t_array(t_address)dyn_storage)": {
						"encoding": "mapping",
						"key": "t_string_memory_ptr",
						"label": "mapping(string => address[])",
						"numberOfBytes": "32",
						"value": "t_array(t_address)dyn_storage"
					},
					"t_mapping(t_string_memory_ptr,t_array(t_struct(Voter)8_storage)dyn_storage)": {
						"encoding": "mapping",
						"key": "t_string_memory_ptr",
						"label": "mapping(string => struct BusinessConsensus2.Voter[])",
						"numberOfBytes": "32",
						"value": "t_array(t_struct(Voter)8_storage)dyn_storage"
					},
					"t_mapping(t_string_memory_ptr,t_mapping(t_address,t_struct(Voter)8_storage))": {
						"encoding": "mapping",
						"key": "t_string_memory_ptr",
						"label": "mapping(string => mapping(address => struct BusinessConsensus2.Voter))",
						"numberOfBytes": "32",
						"value": "t_mapping(t_address,t_struct(Voter)8_storage)"
					},
					"t_mapping(t_string_memory_ptr,t_struct(Proposal)33_storage)": {
						"encoding": "mapping",
						"key": "t_string_memory_ptr",
						"label": "mapping(string => struct BusinessConsensus2.Proposal)",
						"numberOfBytes": "32",
						"value": "t_struct(Proposal)33_storage"
					},
					"t_string_memory_ptr": {
						"encoding": "bytes",
						"label": "string",
						"numberOfBytes": "32"
					},
					"t_string_storage": {
						"encoding": "bytes",
						"label": "string",
						"numberOfBytes": "32"
					},
					"t_struct(Proposal)33_storage": {
						"encoding": "inplace",
						"label": "struct BusinessConsensus2.Proposal",
						"members": [
							{
								"astId": 10,
								"contract": "contracts/BusinessConsensus2.sol:BusinessConsensus2",
								"label": "messageID",
								"offset": 0,
								"slot": "0",
								"type": "t_string_storage"
							},
							{
								"astId": 12,
								"contract": "contracts/BusinessConsensus2.sol:BusinessConsensus2",
								"label": "initiator",
								"offset": 0,
								"slot": "1",
								"type": "t_address"
							},
							{
								"astId": 14,
								"contract": "contracts/BusinessConsensus2.sol:BusinessConsensus2",
								"label": "contractAddress",
								"offset": 0,
								"slot": "2",
								"type": "t_address"
							},
							{
								"astId": 16,
								"contract": "contracts/BusinessConsensus2.sol:BusinessConsensus2",
								"label": "voteCount",
								"offset": 0,
								"slot": "3",
								"type": "t_uint256"
							},
							{
								"astId": 18,
								"contract": "contracts/BusinessConsensus2.sol:BusinessConsensus2",
								"label": "expiryDate",
								"offset": 0,
								"slot": "4",
								"type": "t_uint256"
							},
							{
								"astId": 20,
								"contract": "contracts/BusinessConsensus2.sol:BusinessConsensus2",
								"label": "BusinessRequirement",
								"offset": 0,
								"slot": "5",
								"type": "t_uint256"
							},
							{
								"astId": 22,
								"contract": "contracts/BusinessConsensus2.sol:BusinessConsensus2",
								"label": "numApprovals",
								"offset": 0,
								"slot": "6",
								"type": "t_uint256"
							},
							{
								"astId": 24,
								"contract": "contracts/BusinessConsensus2.sol:BusinessConsensus2",
								"label": "isCompiled",
								"offset": 0,
								"slot": "7",
								"type": "t_bool"
							},
							{
								"astId": 26,
								"contract": "contracts/BusinessConsensus2.sol:BusinessConsensus2",
								"label": "finalVerdict",
								"offset": 0,
								"slot": "8",
								"type": "t_bytes32"
							},
							{
								"astId": 28,
								"contract": "contracts/BusinessConsensus2.sol:BusinessConsensus2",
								"label": "messageDate",
								"offset": 0,
								"slot": "9",
								"type": "t_string_storage"
							},
							{
								"astId": 30,
								"contract": "contracts/BusinessConsensus2.sol:BusinessConsensus2",
								"label": "subject",
								"offset": 0,
								"slot": "10",
								"type": "t_string_storage"
							},
							{
								"astId": 32,
								"contract": "contracts/BusinessConsensus2.sol:BusinessConsensus2",
								"label": "contents",
								"offset": 0,
								"slot": "11",
								"type": "t_string_storage"
							}
						],
						"numberOfBytes": "384"
					},
					"t_struct(Voter)8_storage": {
						"encoding": "inplace",
						"label": "struct BusinessConsensus2.Voter",
						"members": [
							{
								"astId": 3,
								"contract": "contracts/BusinessConsensus2.sol:BusinessConsensus2",
								"label": "voted",
								"offset": 0,
								"slot": "0",
								"type": "t_bool"
							},
							{
								"astId": 5,
								"contract": "contracts/BusinessConsensus2.sol:BusinessConsensus2",
								"label": "vote",
								"offset": 1,
								"slot": "0",
								"type": "t_bool"
							},
							{
								"astId": 7,
								"contract": "contracts/BusinessConsensus2.sol:BusinessConsensus2",
								"label": "recipient",
								"offset": 2,
								"slot": "0",
								"type": "t_address"
							}
						],
						"numberOfBytes": "32"
					},
					"t_uint256": {
						"encoding": "inplace",
						"label": "uint256",
						"numberOfBytes": "32"
					}
				}
			},
			"userdoc": {
				"kind": "user",
				"methods": {
					"Consensus(string)": {
						"notice": "compile all relevant information into a Bundle"
					}
				},
				"version": 1
			}
		}
	}
}