{
	"contracts/BusinessConsensus2.sol": {
		"BusinessConsensus2": {
			"abi": [
				{
					"inputs": [
						{
							"internalType": "string",
							"name": "_messageID",
							"type": "string"
						}
					],
					"name": "Consensus",
					"outputs": [],
					"stateMutability": "nonpayable",
					"type": "function"
				},
				{
					"inputs": [
						{
							"internalType": "address",
							"name": "voter",
							"type": "address"
						},
						{
							"internalType": "string",
							"name": "_messageID",
							"type": "string"
						}
					],
					"name": "RegisterVoter",
					"outputs": [],
					"stateMutability": "nonpayable",
					"type": "function"
				},
				{
					"inputs": [
						{
							"internalType": "string",
							"name": "response",
							"type": "string"
						},
						{
							"internalType": "string",
							"name": "_messageID",
							"type": "string"
						}
					],
					"name": "Vote",
					"outputs": [],
					"stateMutability": "nonpayable",
					"type": "function"
				},
				{
					"inputs": [
						{
							"internalType": "string",
							"name": "",
							"type": "string"
						},
						{
							"internalType": "uint256",
							"name": "",
							"type": "uint256"
						}
					],
					"name": "Voters",
					"outputs": [
						{
							"internalType": "bool",
							"name": "voted",
							"type": "bool"
						},
						{
							"internalType": "bool",
							"name": "vote",
							"type": "bool"
						},
						{
							"internalType": "address",
							"name": "recipient",
							"type": "address"
						}
					],
					"stateMutability": "view",
					"type": "function"
				},
				{
					"inputs": [
						{
							"internalType": "string",
							"name": "",
							"type": "string"
						}
					],
					"name": "businessProposals",
					"outputs": [
						{
							"internalType": "string",
							"name": "messageID",
							"type": "string"
						},
						{
							"internalType": "address",
							"name": "initiator",
							"type": "address"
						},
						{
							"internalType": "uint256",
							"name": "voteCount",
							"type": "uint256"
						},
						{
							"internalType": "uint256",
							"name": "expiryDate",
							"type": "uint256"
						},
						{
							"internalType": "uint256",
							"name": "BusinessRequirement",
							"type": "uint256"
						},
						{
							"internalType": "uint256",
							"name": "numApprovals",
							"type": "uint256"
						},
						{
							"internalType": "bool",
							"name": "isCompiled",
							"type": "bool"
						},
						{
							"internalType": "bytes32",
							"name": "finalVerdict",
							"type": "bytes32"
						},
						{
							"internalType": "string",
							"name": "messageDate",
							"type": "string"
						},
						{
							"internalType": "string",
							"name": "subject",
							"type": "string"
						},
						{
							"internalType": "bytes32",
							"name": "contents",
							"type": "bytes32"
						},
						{
							"internalType": "uint256",
							"name": "expiryLength",
							"type": "uint256"
						}
					],
					"stateMutability": "view",
					"type": "function"
				},
				{
					"inputs": [
						{
							"internalType": "string",
							"name": "_subject",
							"type": "string"
						},
						{
							"internalType": "uint256",
							"name": "_businessRequirement",
							"type": "uint256"
						},
						{
							"internalType": "uint256",
							"name": "_expiryLength",
							"type": "uint256"
						},
						{
							"internalType": "bytes32",
							"name": "_contents",
							"type": "bytes32"
						}
					],
					"name": "checkConsistency",
					"outputs": [
						{
							"internalType": "bool",
							"name": "",
							"type": "bool"
						},
						{
							"internalType": "bool",
							"name": "",
							"type": "bool"
						},
						{
							"internalType": "bool",
							"name": "",
							"type": "bool"
						}
					],
					"stateMutability": "view",
					"type": "function"
				},
				{
					"inputs": [
						{
							"internalType": "string",
							"name": "_messageID",
							"type": "string"
						},
						{
							"internalType": "uint256",
							"name": "expiry",
							"type": "uint256"
						},
						{
							"internalType": "uint256",
							"name": "requiredPercentage",
							"type": "uint256"
						},
						{
							"internalType": "bytes32",
							"name": "contents",
							"type": "bytes32"
						},
						{
							"internalType": "string",
							"name": "subject",
							"type": "string"
						},
						{
							"internalType": "string",
							"name": "_messageDate",
							"type": "string"
						}
					],
					"name": "createContract",
					"outputs": [],
					"stateMutability": "nonpayable",
					"type": "function"
				},
				{
					"inputs": [
						{
							"internalType": "string",
							"name": "_messageID",
							"type": "string"
						}
					],
					"name": "getIsCompiled",
					"outputs": [
						{
							"internalType": "bool",
							"name": "",
							"type": "bool"
						}
					],
					"stateMutability": "view",
					"type": "function"
				},
				{
					"inputs": [
						{
							"internalType": "string",
							"name": "subject",
							"type": "string"
						}
					],
					"name": "getIsCreated",
					"outputs": [
						{
							"components": [
								{
									"internalType": "string",
									"name": "messageID",
									"type": "string"
								},
								{
									"internalType": "address",
									"name": "initiator",
									"type": "address"
								},
								{
									"internalType": "uint256",
									"name": "voteCount",
									"type": "uint256"
								},
								{
									"internalType": "uint256",
									"name": "expiryDate",
									"type": "uint256"
								},
								{
									"internalType": "uint256",
									"name": "BusinessRequirement",
									"type": "uint256"
								},
								{
									"internalType": "uint256",
									"name": "numApprovals",
									"type": "uint256"
								},
								{
									"internalType": "bool",
									"name": "isCompiled",
									"type": "bool"
								},
								{
									"internalType": "bytes32",
									"name": "finalVerdict",
									"type": "bytes32"
								},
								{
									"internalType": "string",
									"name": "messageDate",
									"type": "string"
								},
								{
									"internalType": "string",
									"name": "subject",
									"type": "string"
								},
								{
									"internalType": "bytes32",
									"name": "contents",
									"type": "bytes32"
								},
								{
									"internalType": "uint256",
									"name": "expiryLength",
									"type": "uint256"
								}
							],
							"internalType": "struct BusinessConsensus2.Proposal",
							"name": "",
							"type": "tuple"
						}
					],
					"stateMutability": "view",
					"type": "function"
				},
				{
					"inputs": [
						{
							"internalType": "string",
							"name": "_messageID",
							"type": "string"
						}
					],
					"name": "getValues",
					"outputs": [
						{
							"internalType": "string",
							"name": "",
							"type": "string"
						}
					],
					"stateMutability": "view",
					"type": "function"
				},
				{
					"inputs": [
						{
							"internalType": "string",
							"name": "",
							"type": "string"
						},
						{
							"internalType": "uint256",
							"name": "",
							"type": "uint256"
						}
					],
					"name": "keys",
					"outputs": [
						{
							"internalType": "address",
							"name": "",
							"type": "address"
						}
					],
					"stateMutability": "view",
					"type": "function"
				},
				{
					"inputs": [
						{
							"internalType": "string",
							"name": "_messageID",
							"type": "string"
						}
					],
					"name": "retrieve_bundle",
					"outputs": [
						{
							"internalType": "bytes32",
							"name": "",
							"type": "bytes32"
						},
						{
							"internalType": "string",
							"name": "",
							"type": "string"
						},
						{
							"internalType": "uint256",
							"name": "",
							"type": "uint256"
						},
						{
							"components": [
								{
									"internalType": "bool",
									"name": "voted",
									"type": "bool"
								},
								{
									"internalType": "bool",
									"name": "vote",
									"type": "bool"
								},
								{
									"internalType": "address",
									"name": "recipient",
									"type": "address"
								}
							],
							"internalType": "struct BusinessConsensus2.Voter[]",
							"name": "",
							"type": "tuple[]"
						}
					],
					"stateMutability": "view",
					"type": "function"
				},
				{
					"inputs": [
						{
							"internalType": "string",
							"name": "",
							"type": "string"
						},
						{
							"internalType": "address",
							"name": "",
							"type": "address"
						}
					],
					"name": "voter_maps",
					"outputs": [
						{
							"internalType": "bool",
							"name": "voted",
							"type": "bool"
						},
						{
							"internalType": "bool",
							"name": "vote",
							"type": "bool"
						},
						{
							"internalType": "address",
							"name": "recipient",
							"type": "address"
						}
					],
					"stateMutability": "view",
					"type": "function"
				}
			],
			"devdoc": {
				"kind": "dev",
				"methods": {},
				"version": 1
			},
			"evm": {
				"assembly": "    /* \"contracts/BusinessConsensus2.sol\":33:8248  contract BusinessConsensus2{\r... */\n  mstore(0x40, 0x80)\n  callvalue\n  dup1\n  iszero\n  tag_1\n  jumpi\n  0x00\n  dup1\n  revert\ntag_1:\n  pop\n  dataSize(sub_0)\n  dup1\n  dataOffset(sub_0)\n  0x00\n  codecopy\n  0x00\n  return\nstop\n\nsub_0: assembly {\n        /* \"contracts/BusinessConsensus2.sol\":33:8248  contract BusinessConsensus2{\r... */\n      mstore(0x40, 0x80)\n      callvalue\n      dup1\n      iszero\n      tag_1\n      jumpi\n      0x00\n      dup1\n      revert\n    tag_1:\n      pop\n      jumpi(tag_2, lt(calldatasize, 0x04))\n      shr(0xe0, calldataload(0x00))\n      dup1\n      0x7aa18f88\n      gt\n      tag_16\n      jumpi\n      dup1\n      0x9d6a3125\n      gt\n      tag_17\n      jumpi\n      dup1\n      0x9d6a3125\n      eq\n      tag_12\n      jumpi\n      dup1\n      0xc99ba896\n      eq\n      tag_13\n      jumpi\n      dup1\n      0xc9bc42ed\n      eq\n      tag_14\n      jumpi\n      dup1\n      0xec548680\n      eq\n      tag_15\n      jumpi\n      jump(tag_2)\n    tag_17:\n      dup1\n      0x7aa18f88\n      eq\n      tag_9\n      jumpi\n      dup1\n      0x883a9673\n      eq\n      tag_10\n      jumpi\n      dup1\n      0x8f6a35b7\n      eq\n      tag_11\n      jumpi\n      jump(tag_2)\n    tag_16:\n      dup1\n      0x06699b01\n      eq\n      tag_3\n      jumpi\n      dup1\n      0x089a4c60\n      eq\n      tag_4\n      jumpi\n      dup1\n      0x17072d6b\n      eq\n      tag_5\n      jumpi\n      dup1\n      0x33a0b0ab\n      eq\n      tag_6\n      jumpi\n      dup1\n      0x37f2e190\n      eq\n      tag_7\n      jumpi\n      dup1\n      0x3d63af0e\n      eq\n      tag_8\n      jumpi\n    tag_2:\n      0x00\n      dup1\n      revert\n        /* \"contracts/BusinessConsensus2.sol\":1148:1186  mapping(string=>address[]) public keys */\n    tag_3:\n      tag_18\n      0x04\n      dup1\n      calldatasize\n      sub\n      dup2\n      add\n      swap1\n      tag_19\n      swap2\n      swap1\n      tag_20\n      jump\t// in\n    tag_19:\n      tag_21\n      jump\t// in\n    tag_18:\n      mload(0x40)\n      tag_22\n      swap2\n      swap1\n      tag_23\n      jump\t// in\n    tag_22:\n      mload(0x40)\n      dup1\n      swap2\n      sub\n      swap1\n      return\n        /* \"contracts/BusinessConsensus2.sol\":981:1031  mapping(string=>Proposal) public businessProposals */\n    tag_4:\n      tag_24\n      0x04\n      dup1\n      calldatasize\n      sub\n      dup2\n      add\n      swap1\n      tag_25\n      swap2\n      swap1\n      tag_26\n      jump\t// in\n    tag_25:\n      tag_27\n      jump\t// in\n    tag_24:\n      mload(0x40)\n      tag_28\n      swap13\n      swap12\n      swap11\n      swap10\n      swap9\n      swap8\n      swap7\n      swap6\n      swap5\n      swap4\n      swap3\n      swap2\n      swap1\n      tag_29\n      jump\t// in\n    tag_28:\n      mload(0x40)\n      dup1\n      swap2\n      sub\n      swap1\n      return\n        /* \"contracts/BusinessConsensus2.sol\":5162:6553  function Vote(string memory response,string calldata _messageID) external {\r... */\n    tag_5:\n      tag_30\n      0x04\n      dup1\n      calldatasize\n      sub\n      dup2\n      add\n      swap1\n      tag_31\n      swap2\n      swap1\n      tag_32\n      jump\t// in\n    tag_31:\n      tag_33\n      jump\t// in\n    tag_30:\n      stop\n        /* \"contracts/BusinessConsensus2.sol\":1038:1096  mapping(string=>mapping(address=>Voter)) public voter_maps */\n    tag_6:\n      tag_34\n      0x04\n      dup1\n      calldatasize\n      sub\n      dup2\n      add\n      swap1\n      tag_35\n      swap2\n      swap1\n      tag_36\n      jump\t// in\n    tag_35:\n      tag_37\n      jump\t// in\n    tag_34:\n      mload(0x40)\n      tag_38\n      swap4\n      swap3\n      swap2\n      swap1\n      tag_39\n      jump\t// in\n    tag_38:\n      mload(0x40)\n      dup1\n      swap2\n      sub\n      swap1\n      return\n        /* \"contracts/BusinessConsensus2.sol\":7684:8243  function retrieve_bundle(string calldata _messageID) external view returns (bytes32, string memory, uint256, Voter[] memory){\r... */\n    tag_7:\n      tag_40\n      0x04\n      dup1\n      calldatasize\n      sub\n      dup2\n      add\n      swap1\n      tag_41\n      swap2\n      swap1\n      tag_42\n      jump\t// in\n    tag_41:\n      tag_43\n      jump\t// in\n    tag_40:\n      mload(0x40)\n      tag_44\n      swap5\n      swap4\n      swap3\n      swap2\n      swap1\n      tag_45\n      jump\t// in\n    tag_44:\n      mload(0x40)\n      dup1\n      swap2\n      sub\n      swap1\n      return\n        /* \"contracts/BusinessConsensus2.sol\":4357:5154  function RegisterVoter(address voter,string calldata _messageID) external {\r... */\n    tag_8:\n      tag_46\n      0x04\n      dup1\n      calldatasize\n      sub\n      dup2\n      add\n      swap1\n      tag_47\n      swap2\n      swap1\n      tag_48\n      jump\t// in\n    tag_47:\n      tag_49\n      jump\t// in\n    tag_46:\n      stop\n        /* \"contracts/BusinessConsensus2.sol\":1199:2227  function createContract(string memory _messageID, uint256 expiry, uint256 requiredPercentage,bytes32 contents,string memory subject,string memory _messageDate) external{\r... */\n    tag_9:\n      tag_50\n      0x04\n      dup1\n      calldatasize\n      sub\n      dup2\n      add\n      swap1\n      tag_51\n      swap2\n      swap1\n      tag_52\n      jump\t// in\n    tag_51:\n      tag_53\n      jump\t// in\n    tag_50:\n      stop\n        /* \"contracts/BusinessConsensus2.sol\":6617:7676  function Consensus(string calldata _messageID) external {\r... */\n    tag_10:\n      tag_54\n      0x04\n      dup1\n      calldatasize\n      sub\n      dup2\n      add\n      swap1\n      tag_55\n      swap2\n      swap1\n      tag_42\n      jump\t// in\n    tag_55:\n      tag_56\n      jump\t// in\n    tag_54:\n      stop\n        /* \"contracts/BusinessConsensus2.sol\":1103:1141  mapping(string=>Voter[]) public Voters */\n    tag_11:\n      tag_57\n      0x04\n      dup1\n      calldatasize\n      sub\n      dup2\n      add\n      swap1\n      tag_58\n      swap2\n      swap1\n      tag_20\n      jump\t// in\n    tag_58:\n      tag_59\n      jump\t// in\n    tag_57:\n      mload(0x40)\n      tag_60\n      swap4\n      swap3\n      swap2\n      swap1\n      tag_39\n      jump\t// in\n    tag_60:\n      mload(0x40)\n      dup1\n      swap2\n      sub\n      swap1\n      return\n        /* \"contracts/BusinessConsensus2.sol\":2535:3445  function checkConsistency(string memory _subject, uint256 _businessRequirement, uint256 _expiryLength, bytes32 _contents) public view returns(bool, bool, bool){\r... */\n    tag_12:\n      tag_61\n      0x04\n      dup1\n      calldatasize\n      sub\n      dup2\n      add\n      swap1\n      tag_62\n      swap2\n      swap1\n      tag_63\n      jump\t// in\n    tag_62:\n      tag_64\n      jump\t// in\n    tag_61:\n      mload(0x40)\n      tag_65\n      swap4\n      swap3\n      swap2\n      swap1\n      tag_66\n      jump\t// in\n    tag_65:\n      mload(0x40)\n      dup1\n      swap2\n      sub\n      swap1\n      return\n        /* \"contracts/BusinessConsensus2.sol\":2233:2380  function getValues(string calldata _messageID) public view returns (string memory){\r... */\n    tag_13:\n      tag_67\n      0x04\n      dup1\n      calldatasize\n      sub\n      dup2\n      add\n      swap1\n      tag_68\n      swap2\n      swap1\n      tag_42\n      jump\t// in\n    tag_68:\n      tag_69\n      jump\t// in\n    tag_67:\n      mload(0x40)\n      tag_70\n      swap2\n      swap1\n      tag_71\n      jump\t// in\n    tag_70:\n      mload(0x40)\n      dup1\n      swap2\n      sub\n      swap1\n      return\n        /* \"contracts/BusinessConsensus2.sol\":3451:3587  function getIsCreated(string calldata subject) public view returns (Proposal memory){\r... */\n    tag_14:\n      tag_72\n      0x04\n      dup1\n      calldatasize\n      sub\n      dup2\n      add\n      swap1\n      tag_73\n      swap2\n      swap1\n      tag_42\n      jump\t// in\n    tag_73:\n      tag_74\n      jump\t// in\n    tag_72:\n      mload(0x40)\n      tag_75\n      swap2\n      swap1\n      tag_76\n      jump\t// in\n    tag_75:\n      mload(0x40)\n      dup1\n      swap2\n      sub\n      swap1\n      return\n        /* \"contracts/BusinessConsensus2.sol\":2386:2529  function getIsCompiled(string calldata _messageID) public view returns (bool){\r... */\n    tag_15:\n      tag_77\n      0x04\n      dup1\n      calldatasize\n      sub\n      dup2\n      add\n      swap1\n      tag_78\n      swap2\n      swap1\n      tag_42\n      jump\t// in\n    tag_78:\n      tag_79\n      jump\t// in\n    tag_77:\n      mload(0x40)\n      tag_80\n      swap2\n      swap1\n      tag_81\n      jump\t// in\n    tag_80:\n      mload(0x40)\n      dup1\n      swap2\n      sub\n      swap1\n      return\n        /* \"contracts/BusinessConsensus2.sol\":1148:1186  mapping(string=>address[]) public keys */\n    tag_21:\n      0x03\n      dup3\n      dup1\n      mload\n      0x20\n      dup2\n      add\n      dup3\n      add\n      dup1\n      mload\n      dup5\n      dup3\n      mstore\n      0x20\n      dup4\n      add\n      0x20\n      dup6\n      add\n      keccak256\n      dup2\n      dup4\n      mstore\n      dup1\n      swap6\n      pop\n      pop\n      pop\n      pop\n      pop\n      pop\n      dup2\n      dup2\n      sload\n      dup2\n      lt\n      tag_82\n      jumpi\n      0x00\n      dup1\n      revert\n    tag_82:\n      swap1\n      0x00\n      mstore\n      keccak256(0x00, 0x20)\n      add\n      0x00\n      swap2\n      pop\n      swap2\n      pop\n      swap1\n      sload\n      swap1\n      0x0100\n      exp\n      swap1\n      div\n      0xffffffffffffffffffffffffffffffffffffffff\n      and\n      dup2\n      jump\t// out\n        /* \"contracts/BusinessConsensus2.sol\":981:1031  mapping(string=>Proposal) public businessProposals */\n    tag_27:\n      0x00\n      dup2\n      dup1\n      mload\n      0x20\n      dup2\n      add\n      dup3\n      add\n      dup1\n      mload\n      dup5\n      dup3\n      mstore\n      0x20\n      dup4\n      add\n      0x20\n      dup6\n      add\n      keccak256\n      dup2\n      dup4\n      mstore\n      dup1\n      swap6\n      pop\n      pop\n      pop\n      pop\n      pop\n      pop\n      0x00\n      swap2\n      pop\n      swap1\n      pop\n      dup1\n      0x00\n      add\n      dup1\n      sload\n      tag_84\n      swap1\n      tag_85\n      jump\t// in\n    tag_84:\n      dup1\n      0x1f\n      add\n      0x20\n      dup1\n      swap2\n      div\n      mul\n      0x20\n      add\n      mload(0x40)\n      swap1\n      dup2\n      add\n      0x40\n      mstore\n      dup1\n      swap3\n      swap2\n      swap1\n      dup2\n      dup2\n      mstore\n      0x20\n      add\n      dup3\n      dup1\n      sload\n      tag_86\n      swap1\n      tag_85\n      jump\t// in\n    tag_86:\n      dup1\n      iszero\n      tag_87\n      jumpi\n      dup1\n      0x1f\n      lt\n      tag_88\n      jumpi\n      0x0100\n      dup1\n      dup4\n      sload\n      div\n      mul\n      dup4\n      mstore\n      swap2\n      0x20\n      add\n      swap2\n      jump(tag_87)\n    tag_88:\n      dup3\n      add\n      swap2\n      swap1\n      0x00\n      mstore\n      keccak256(0x00, 0x20)\n      swap1\n    tag_89:\n      dup2\n      sload\n      dup2\n      mstore\n      swap1\n      0x01\n      add\n      swap1\n      0x20\n      add\n      dup1\n      dup4\n      gt\n      tag_89\n      jumpi\n      dup3\n      swap1\n      sub\n      0x1f\n      and\n      dup3\n      add\n      swap2\n    tag_87:\n      pop\n      pop\n      pop\n      pop\n      pop\n      swap1\n      dup1\n      0x01\n      add\n      0x00\n      swap1\n      sload\n      swap1\n      0x0100\n      exp\n      swap1\n      div\n      0xffffffffffffffffffffffffffffffffffffffff\n      and\n      swap1\n      dup1\n      0x02\n      add\n      sload\n      swap1\n      dup1\n      0x03\n      add\n      sload\n      swap1\n      dup1\n      0x04\n      add\n      sload\n      swap1\n      dup1\n      0x05\n      add\n      sload\n      swap1\n      dup1\n      0x06\n      add\n      0x00\n      swap1\n      sload\n      swap1\n      0x0100\n      exp\n      swap1\n      div\n      0xff\n      and\n      swap1\n      dup1\n      0x07\n      add\n      sload\n      swap1\n      dup1\n      0x08\n      add\n      dup1\n      sload\n      tag_90\n      swap1\n      tag_85\n      jump\t// in\n    tag_90:\n      dup1\n      0x1f\n      add\n      0x20\n      dup1\n      swap2\n      div\n      mul\n      0x20\n      add\n      mload(0x40)\n      swap1\n      dup2\n      add\n      0x40\n      mstore\n      dup1\n      swap3\n      swap2\n      swap1\n      dup2\n      dup2\n      mstore\n      0x20\n      add\n      dup3\n      dup1\n      sload\n      tag_91\n      swap1\n      tag_85\n      jump\t// in\n    tag_91:\n      dup1\n      iszero\n      tag_92\n      jumpi\n      dup1\n      0x1f\n      lt\n      tag_93\n      jumpi\n      0x0100\n      dup1\n      dup4\n      sload\n      div\n      mul\n      dup4\n      mstore\n      swap2\n      0x20\n      add\n      swap2\n      jump(tag_92)\n    tag_93:\n      dup3\n      add\n      swap2\n      swap1\n      0x00\n      mstore\n      keccak256(0x00, 0x20)\n      swap1\n    tag_94:\n      dup2\n      sload\n      dup2\n      mstore\n      swap1\n      0x01\n      add\n      swap1\n      0x20\n      add\n      dup1\n      dup4\n      gt\n      tag_94\n      jumpi\n      dup3\n      swap1\n      sub\n      0x1f\n      and\n      dup3\n      add\n      swap2\n    tag_92:\n      pop\n      pop\n      pop\n      pop\n      pop\n      swap1\n      dup1\n      0x09\n      add\n      dup1\n      sload\n      tag_95\n      swap1\n      tag_85\n      jump\t// in\n    tag_95:\n      dup1\n      0x1f\n      add\n      0x20\n      dup1\n      swap2\n      div\n      mul\n      0x20\n      add\n      mload(0x40)\n      swap1\n      dup2\n      add\n      0x40\n      mstore\n      dup1\n      swap3\n      swap2\n      swap1\n      dup2\n      dup2\n      mstore\n      0x20\n      add\n      dup3\n      dup1\n      sload\n      tag_96\n      swap1\n      tag_85\n      jump\t// in\n    tag_96:\n      dup1\n      iszero\n      tag_97\n      jumpi\n      dup1\n      0x1f\n      lt\n      tag_98\n      jumpi\n      0x0100\n      dup1\n      dup4\n      sload\n      div\n      mul\n      dup4\n      mstore\n      swap2\n      0x20\n      add\n      swap2\n      jump(tag_97)\n    tag_98:\n      dup3\n      add\n      swap2\n      swap1\n      0x00\n      mstore\n      keccak256(0x00, 0x20)\n      swap1\n    tag_99:\n      dup2\n      sload\n      dup2\n      mstore\n      swap1\n      0x01\n      add\n      swap1\n      0x20\n      add\n      dup1\n      dup4\n      gt\n      tag_99\n      jumpi\n      dup3\n      swap1\n      sub\n      0x1f\n      and\n      dup3\n      add\n      swap2\n    tag_97:\n      pop\n      pop\n      pop\n      pop\n      pop\n      swap1\n      dup1\n      0x0a\n      add\n      sload\n      swap1\n      dup1\n      0x0b\n      add\n      sload\n      swap1\n      pop\n      dup13\n      jump\t// out\n        /* \"contracts/BusinessConsensus2.sol\":5162:6553  function Vote(string memory response,string calldata _messageID) external {\r... */\n    tag_33:\n        /* \"contracts/BusinessConsensus2.sol\":5275:5292  businessProposals */\n      0x00\n        /* \"contracts/BusinessConsensus2.sol\":5293:5303  _messageID */\n      dup3\n      dup3\n        /* \"contracts/BusinessConsensus2.sol\":5275:5304  businessProposals[_messageID] */\n      mload(0x40)\n      tag_101\n      swap3\n      swap2\n      swap1\n      tag_102\n      jump\t// in\n    tag_101:\n      swap1\n      dup2\n      mstore\n      0x20\n      add\n      mload(0x40)\n      dup1\n      swap2\n      sub\n      swap1\n      keccak256\n        /* \"contracts/BusinessConsensus2.sol\":5275:5315  businessProposals[_messageID].expiryDate */\n      0x03\n      add\n      sload\n        /* \"contracts/BusinessConsensus2.sol\":5257:5272  block.timestamp */\n      timestamp\n        /* \"contracts/BusinessConsensus2.sol\":5257:5315  block.timestamp < businessProposals[_messageID].expiryDate */\n      lt\n        /* \"contracts/BusinessConsensus2.sol\":5249:5338  require(block.timestamp < businessProposals[_messageID].expiryDate, \"Voting has expired\") */\n      tag_103\n      jumpi\n      mload(0x40)\n      0x08c379a000000000000000000000000000000000000000000000000000000000\n      dup2\n      mstore\n      0x04\n      add\n      tag_104\n      swap1\n      tag_105\n      jump\t// in\n    tag_104:\n      mload(0x40)\n      dup1\n      swap2\n      sub\n      swap1\n      revert\n    tag_103:\n        /* \"contracts/BusinessConsensus2.sol\":5413:5416  0x0 */\n      0x00\n        /* \"contracts/BusinessConsensus2.sol\":5357:5417  voter_maps[_messageID][msg.sender].recipient != address(0x0) */\n      0xffffffffffffffffffffffffffffffffffffffff\n      and\n        /* \"contracts/BusinessConsensus2.sol\":5357:5367  voter_maps */\n      0x01\n        /* \"contracts/BusinessConsensus2.sol\":5368:5378  _messageID */\n      dup4\n      dup4\n        /* \"contracts/BusinessConsensus2.sol\":5357:5379  voter_maps[_messageID] */\n      mload(0x40)\n      tag_106\n      swap3\n      swap2\n      swap1\n      tag_102\n      jump\t// in\n    tag_106:\n      swap1\n      dup2\n      mstore\n      0x20\n      add\n      mload(0x40)\n      dup1\n      swap2\n      sub\n      swap1\n      keccak256\n        /* \"contracts/BusinessConsensus2.sol\":5357:5391  voter_maps[_messageID][msg.sender] */\n      0x00\n        /* \"contracts/BusinessConsensus2.sol\":5380:5390  msg.sender */\n      caller\n        /* \"contracts/BusinessConsensus2.sol\":5357:5391  voter_maps[_messageID][msg.sender] */\n      0xffffffffffffffffffffffffffffffffffffffff\n      and\n      0xffffffffffffffffffffffffffffffffffffffff\n      and\n      dup2\n      mstore\n      0x20\n      add\n      swap1\n      dup2\n      mstore\n      0x20\n      add\n      0x00\n      keccak256\n        /* \"contracts/BusinessConsensus2.sol\":5357:5401  voter_maps[_messageID][msg.sender].recipient */\n      0x00\n      add\n      0x02\n      swap1\n      sload\n      swap1\n      0x0100\n      exp\n      swap1\n      div\n      0xffffffffffffffffffffffffffffffffffffffff\n      and\n        /* \"contracts/BusinessConsensus2.sol\":5357:5417  voter_maps[_messageID][msg.sender].recipient != address(0x0) */\n      0xffffffffffffffffffffffffffffffffffffffff\n      and\n      eq\n      iszero\n        /* \"contracts/BusinessConsensus2.sol\":5349:5452  require(voter_maps[_messageID][msg.sender].recipient != address(0x0), \"You are not registered to vote\") */\n      tag_107\n      jumpi\n      mload(0x40)\n      0x08c379a000000000000000000000000000000000000000000000000000000000\n      dup2\n      mstore\n      0x04\n      add\n      tag_108\n      swap1\n      tag_109\n      jump\t// in\n    tag_108:\n      mload(0x40)\n      dup1\n      swap2\n      sub\n      swap1\n      revert\n    tag_107:\n        /* \"contracts/BusinessConsensus2.sol\":5472:5482  voter_maps */\n      0x01\n        /* \"contracts/BusinessConsensus2.sol\":5483:5493  _messageID */\n      dup3\n      dup3\n        /* \"contracts/BusinessConsensus2.sol\":5472:5494  voter_maps[_messageID] */\n      mload(0x40)\n      tag_110\n      swap3\n      swap2\n      swap1\n      tag_102\n      jump\t// in\n    tag_110:\n      swap1\n      dup2\n      mstore\n      0x20\n      add\n      mload(0x40)\n      dup1\n      swap2\n      sub\n      swap1\n      keccak256\n        /* \"contracts/BusinessConsensus2.sol\":5472:5506  voter_maps[_messageID][msg.sender] */\n      0x00\n        /* \"contracts/BusinessConsensus2.sol\":5495:5505  msg.sender */\n      caller\n        /* \"contracts/BusinessConsensus2.sol\":5472:5506  voter_maps[_messageID][msg.sender] */\n      0xffffffffffffffffffffffffffffffffffffffff\n      and\n      0xffffffffffffffffffffffffffffffffffffffff\n      and\n      dup2\n      mstore\n      0x20\n      add\n      swap1\n      dup2\n      mstore\n      0x20\n      add\n      0x00\n      keccak256\n        /* \"contracts/BusinessConsensus2.sol\":5472:5512  voter_maps[_messageID][msg.sender].voted */\n      0x00\n      add\n      0x00\n      swap1\n      sload\n      swap1\n      0x0100\n      exp\n      swap1\n      div\n      0xff\n      and\n        /* \"contracts/BusinessConsensus2.sol\":5471:5512  !voter_maps[_messageID][msg.sender].voted */\n      iszero\n        /* \"contracts/BusinessConsensus2.sol\":5463:5545  require(!voter_maps[_messageID][msg.sender].voted, \"You already sent a response.\") */\n      tag_111\n      jumpi\n      mload(0x40)\n      0x08c379a000000000000000000000000000000000000000000000000000000000\n      dup2\n      mstore\n      0x04\n      add\n      tag_112\n      swap1\n      tag_113\n      jump\t// in\n    tag_112:\n      mload(0x40)\n      dup1\n      swap2\n      sub\n      swap1\n      revert\n    tag_111:\n        /* \"contracts/BusinessConsensus2.sol\":5601:5619  bytes(\"i approve\") */\n      mload(0x40)\n      dup1\n      0x40\n      add\n      0x40\n      mstore\n      dup1\n      0x09\n      dup2\n      mstore\n      0x20\n      add\n      0x6920617070726f76650000000000000000000000000000000000000000000000\n      dup2\n      mstore\n      pop\n        /* \"contracts/BusinessConsensus2.sol\":5591:5620  keccak256(bytes(\"i approve\")) */\n      dup1\n      mload\n      swap1\n      0x20\n      add\n      keccak256\n        /* \"contracts/BusinessConsensus2.sol\":5577:5585  response */\n      dup4\n        /* \"contracts/BusinessConsensus2.sol\":5561:5587  keccak256(bytes(response)) */\n      dup1\n      mload\n      swap1\n      0x20\n      add\n      keccak256\n        /* \"contracts/BusinessConsensus2.sol\":5561:5620  keccak256(bytes(response)) == keccak256(bytes(\"i approve\")) */\n      eq\n        /* \"contracts/BusinessConsensus2.sol\":5558:6536  if(keccak256(bytes(response)) == keccak256(bytes(\"i approve\"))){\r... */\n      iszero\n      tag_114\n      jumpi\n        /* \"contracts/BusinessConsensus2.sol\":5679:5683  true */\n      0x01\n        /* \"contracts/BusinessConsensus2.sol\":5636:5646  voter_maps */\n      dup1\n        /* \"contracts/BusinessConsensus2.sol\":5647:5657  _messageID */\n      dup4\n      dup4\n        /* \"contracts/BusinessConsensus2.sol\":5636:5658  voter_maps[_messageID] */\n      mload(0x40)\n      tag_115\n      swap3\n      swap2\n      swap1\n      tag_102\n      jump\t// in\n    tag_115:\n      swap1\n      dup2\n      mstore\n      0x20\n      add\n      mload(0x40)\n      dup1\n      swap2\n      sub\n      swap1\n      keccak256\n        /* \"contracts/BusinessConsensus2.sol\":5636:5670  voter_maps[_messageID][msg.sender] */\n      0x00\n        /* \"contracts/BusinessConsensus2.sol\":5659:5669  msg.sender */\n      caller\n        /* \"contracts/BusinessConsensus2.sol\":5636:5670  voter_maps[_messageID][msg.sender] */\n      0xffffffffffffffffffffffffffffffffffffffff\n      and\n      0xffffffffffffffffffffffffffffffffffffffff\n      and\n      dup2\n      mstore\n      0x20\n      add\n      swap1\n      dup2\n      mstore\n      0x20\n      add\n      0x00\n      keccak256\n        /* \"contracts/BusinessConsensus2.sol\":5636:5676  voter_maps[_messageID][msg.sender].voted */\n      0x00\n      add\n      0x00\n        /* \"contracts/BusinessConsensus2.sol\":5636:5683  voter_maps[_messageID][msg.sender].voted = true */\n      0x0100\n      exp\n      dup2\n      sload\n      dup2\n      0xff\n      mul\n      not\n      and\n      swap1\n      dup4\n      iszero\n      iszero\n      mul\n      or\n      swap1\n      sstore\n      pop\n        /* \"contracts/BusinessConsensus2.sol\":5740:5744  true */\n      0x01\n        /* \"contracts/BusinessConsensus2.sol\":5698:5708  voter_maps */\n      dup1\n        /* \"contracts/BusinessConsensus2.sol\":5709:5719  _messageID */\n      dup4\n      dup4\n        /* \"contracts/BusinessConsensus2.sol\":5698:5720  voter_maps[_messageID] */\n      mload(0x40)\n      tag_116\n      swap3\n      swap2\n      swap1\n      tag_102\n      jump\t// in\n    tag_116:\n      swap1\n      dup2\n      mstore\n      0x20\n      add\n      mload(0x40)\n      dup1\n      swap2\n      sub\n      swap1\n      keccak256\n        /* \"contracts/BusinessConsensus2.sol\":5698:5732  voter_maps[_messageID][msg.sender] */\n      0x00\n        /* \"contracts/BusinessConsensus2.sol\":5721:5731  msg.sender */\n      caller\n        /* \"contracts/BusinessConsensus2.sol\":5698:5732  voter_maps[_messageID][msg.sender] */\n      0xffffffffffffffffffffffffffffffffffffffff\n      and\n      0xffffffffffffffffffffffffffffffffffffffff\n      and\n      dup2\n      mstore\n      0x20\n      add\n      swap1\n      dup2\n      mstore\n      0x20\n      add\n      0x00\n      keccak256\n        /* \"contracts/BusinessConsensus2.sol\":5698:5737  voter_maps[_messageID][msg.sender].vote */\n      0x00\n      add\n      0x01\n        /* \"contracts/BusinessConsensus2.sol\":5698:5744  voter_maps[_messageID][msg.sender].vote = true */\n      0x0100\n      exp\n      dup2\n      sload\n      dup2\n      0xff\n      mul\n      not\n      and\n      swap1\n      dup4\n      iszero\n      iszero\n      mul\n      or\n      swap1\n      sstore\n      pop\n        /* \"contracts/BusinessConsensus2.sol\":5805:5806  1 */\n      0x01\n        /* \"contracts/BusinessConsensus2.sol\":5759:5776  businessProposals */\n      0x00\n        /* \"contracts/BusinessConsensus2.sol\":5777:5787  _messageID */\n      dup4\n      dup4\n        /* \"contracts/BusinessConsensus2.sol\":5759:5788  businessProposals[_messageID] */\n      mload(0x40)\n      tag_117\n      swap3\n      swap2\n      swap1\n      tag_102\n      jump\t// in\n    tag_117:\n      swap1\n      dup2\n      mstore\n      0x20\n      add\n      mload(0x40)\n      dup1\n      swap2\n      sub\n      swap1\n      keccak256\n        /* \"contracts/BusinessConsensus2.sol\":5759:5801  businessProposals[_messageID].numApprovals */\n      0x05\n      add\n      0x00\n        /* \"contracts/BusinessConsensus2.sol\":5759:5806  businessProposals[_messageID].numApprovals += 1 */\n      dup3\n      dup3\n      sload\n      tag_118\n      swap2\n      swap1\n      tag_119\n      jump\t// in\n    tag_118:\n      swap3\n      pop\n      pop\n      dup2\n      swap1\n      sstore\n      pop\n        /* \"contracts/BusinessConsensus2.sol\":5864:5865  1 */\n      0x01\n        /* \"contracts/BusinessConsensus2.sol\":5821:5838  businessProposals */\n      0x00\n        /* \"contracts/BusinessConsensus2.sol\":5839:5849  _messageID */\n      dup4\n      dup4\n        /* \"contracts/BusinessConsensus2.sol\":5821:5850  businessProposals[_messageID] */\n      mload(0x40)\n      tag_120\n      swap3\n      swap2\n      swap1\n      tag_102\n      jump\t// in\n    tag_120:\n      swap1\n      dup2\n      mstore\n      0x20\n      add\n      mload(0x40)\n      dup1\n      swap2\n      sub\n      swap1\n      keccak256\n        /* \"contracts/BusinessConsensus2.sol\":5821:5860  businessProposals[_messageID].voteCount */\n      0x02\n      add\n      0x00\n        /* \"contracts/BusinessConsensus2.sol\":5821:5865  businessProposals[_messageID].voteCount += 1 */\n      dup3\n      dup3\n      sload\n      tag_121\n      swap2\n      swap1\n      tag_119\n      jump\t// in\n    tag_121:\n      swap3\n      pop\n      pop\n      dup2\n      swap1\n      sstore\n      pop\n        /* \"contracts/BusinessConsensus2.sol\":5880:5886  Voters */\n      0x02\n        /* \"contracts/BusinessConsensus2.sol\":5887:5897  _messageID */\n      dup3\n      dup3\n        /* \"contracts/BusinessConsensus2.sol\":5880:5898  Voters[_messageID] */\n      mload(0x40)\n      tag_122\n      swap3\n      swap2\n      swap1\n      tag_102\n      jump\t// in\n    tag_122:\n      swap1\n      dup2\n      mstore\n      0x20\n      add\n      mload(0x40)\n      dup1\n      swap2\n      sub\n      swap1\n      keccak256\n        /* \"contracts/BusinessConsensus2.sol\":5904:5914  voter_maps */\n      0x01\n        /* \"contracts/BusinessConsensus2.sol\":5915:5925  _messageID */\n      dup4\n      dup4\n        /* \"contracts/BusinessConsensus2.sol\":5904:5926  voter_maps[_messageID] */\n      mload(0x40)\n      tag_123\n      swap3\n      swap2\n      swap1\n      tag_102\n      jump\t// in\n    tag_123:\n      swap1\n      dup2\n      mstore\n      0x20\n      add\n      mload(0x40)\n      dup1\n      swap2\n      sub\n      swap1\n      keccak256\n        /* \"contracts/BusinessConsensus2.sol\":5904:5938  voter_maps[_messageID][msg.sender] */\n      0x00\n        /* \"contracts/BusinessConsensus2.sol\":5927:5937  msg.sender */\n      caller\n        /* \"contracts/BusinessConsensus2.sol\":5904:5938  voter_maps[_messageID][msg.sender] */\n      0xffffffffffffffffffffffffffffffffffffffff\n      and\n      0xffffffffffffffffffffffffffffffffffffffff\n      and\n      dup2\n      mstore\n      0x20\n      add\n      swap1\n      dup2\n      mstore\n      0x20\n      add\n      0x00\n      keccak256\n        /* \"contracts/BusinessConsensus2.sol\":5880:5939  Voters[_messageID].push(voter_maps[_messageID][msg.sender]) */\n      swap1\n      dup1\n      0x01\n      dup2\n      sload\n      add\n      dup1\n      dup3\n      sstore\n      dup1\n      swap2\n      pop\n      pop\n      0x01\n      swap1\n      sub\n      swap1\n      0x00\n      mstore\n      keccak256(0x00, 0x20)\n      add\n      0x00\n      swap1\n      swap2\n      swap1\n      swap2\n      swap1\n      swap2\n      pop\n      0x00\n      dup3\n      add\n      0x00\n      swap1\n      sload\n      swap1\n      0x0100\n      exp\n      swap1\n      div\n      0xff\n      and\n      dup2\n      0x00\n      add\n      exp(0x0100, 0x00)\n      dup2\n      sload\n      dup2\n      0xff\n      mul\n      not\n      and\n      swap1\n      dup4\n      iszero\n      iszero\n      mul\n      or\n      swap1\n      sstore\n      pop\n      0x00\n      dup3\n      add\n      0x01\n      swap1\n      sload\n      swap1\n      0x0100\n      exp\n      swap1\n      div\n      0xff\n      and\n      dup2\n      0x00\n      add\n      exp(0x0100, 0x01)\n      dup2\n      sload\n      dup2\n      0xff\n      mul\n      not\n      and\n      swap1\n      dup4\n      iszero\n      iszero\n      mul\n      or\n      swap1\n      sstore\n      pop\n      0x00\n      dup3\n      add\n      0x02\n      swap1\n      sload\n      swap1\n      0x0100\n      exp\n      swap1\n      div\n      0xffffffffffffffffffffffffffffffffffffffff\n      and\n      dup2\n      0x00\n      add\n      exp(0x0100, 0x02)\n      dup2\n      sload\n      dup2\n      0xffffffffffffffffffffffffffffffffffffffff\n      mul\n      not\n      and\n      swap1\n      dup4\n      0xffffffffffffffffffffffffffffffffffffffff\n      and\n      mul\n      or\n      swap1\n      sstore\n      pop\n      pop\n      pop\n        /* \"contracts/BusinessConsensus2.sol\":5558:6536  if(keccak256(bytes(response)) == keccak256(bytes(\"i approve\"))){\r... */\n      jump(tag_125)\n    tag_114:\n        /* \"contracts/BusinessConsensus2.sol\":6011:6032  bytes(\"i disapprove\") */\n      mload(0x40)\n      dup1\n      0x40\n      add\n      0x40\n      mstore\n      dup1\n      0x0c\n      dup2\n      mstore\n      0x20\n      add\n      0x6920646973617070726f76650000000000000000000000000000000000000000\n      dup2\n      mstore\n      pop\n        /* \"contracts/BusinessConsensus2.sol\":6001:6033  keccak256(bytes(\"i disapprove\")) */\n      dup1\n      mload\n      swap1\n      0x20\n      add\n      keccak256\n        /* \"contracts/BusinessConsensus2.sol\":5987:5995  response */\n      dup4\n        /* \"contracts/BusinessConsensus2.sol\":5971:5997  keccak256(bytes(response)) */\n      dup1\n      mload\n      swap1\n      0x20\n      add\n      keccak256\n        /* \"contracts/BusinessConsensus2.sol\":5971:6033  keccak256(bytes(response)) == keccak256(bytes(\"i disapprove\")) */\n      eq\n        /* \"contracts/BusinessConsensus2.sol\":5968:6536  if(keccak256(bytes(response)) == keccak256(bytes(\"i disapprove\"))){\r... */\n      iszero\n      tag_126\n      jumpi\n        /* \"contracts/BusinessConsensus2.sol\":6092:6096  true */\n      0x01\n        /* \"contracts/BusinessConsensus2.sol\":6049:6059  voter_maps */\n      dup1\n        /* \"contracts/BusinessConsensus2.sol\":6060:6070  _messageID */\n      dup4\n      dup4\n        /* \"contracts/BusinessConsensus2.sol\":6049:6071  voter_maps[_messageID] */\n      mload(0x40)\n      tag_127\n      swap3\n      swap2\n      swap1\n      tag_102\n      jump\t// in\n    tag_127:\n      swap1\n      dup2\n      mstore\n      0x20\n      add\n      mload(0x40)\n      dup1\n      swap2\n      sub\n      swap1\n      keccak256\n        /* \"contracts/BusinessConsensus2.sol\":6049:6083  voter_maps[_messageID][msg.sender] */\n      0x00\n        /* \"contracts/BusinessConsensus2.sol\":6072:6082  msg.sender */\n      caller\n        /* \"contracts/BusinessConsensus2.sol\":6049:6083  voter_maps[_messageID][msg.sender] */\n      0xffffffffffffffffffffffffffffffffffffffff\n      and\n      0xffffffffffffffffffffffffffffffffffffffff\n      and\n      dup2\n      mstore\n      0x20\n      add\n      swap1\n      dup2\n      mstore\n      0x20\n      add\n      0x00\n      keccak256\n        /* \"contracts/BusinessConsensus2.sol\":6049:6089  voter_maps[_messageID][msg.sender].voted */\n      0x00\n      add\n      0x00\n        /* \"contracts/BusinessConsensus2.sol\":6049:6096  voter_maps[_messageID][msg.sender].voted = true */\n      0x0100\n      exp\n      dup2\n      sload\n      dup2\n      0xff\n      mul\n      not\n      and\n      swap1\n      dup4\n      iszero\n      iszero\n      mul\n      or\n      swap1\n      sstore\n      pop\n        /* \"contracts/BusinessConsensus2.sol\":6154:6155  1 */\n      0x01\n        /* \"contracts/BusinessConsensus2.sol\":6111:6128  businessProposals */\n      0x00\n        /* \"contracts/BusinessConsensus2.sol\":6129:6139  _messageID */\n      dup4\n      dup4\n        /* \"contracts/BusinessConsensus2.sol\":6111:6140  businessProposals[_messageID] */\n      mload(0x40)\n      tag_128\n      swap3\n      swap2\n      swap1\n      tag_102\n      jump\t// in\n    tag_128:\n      swap1\n      dup2\n      mstore\n      0x20\n      add\n      mload(0x40)\n      dup1\n      swap2\n      sub\n      swap1\n      keccak256\n        /* \"contracts/BusinessConsensus2.sol\":6111:6150  businessProposals[_messageID].voteCount */\n      0x02\n      add\n      0x00\n        /* \"contracts/BusinessConsensus2.sol\":6111:6155  businessProposals[_messageID].voteCount += 1 */\n      dup3\n      dup3\n      sload\n      tag_129\n      swap2\n      swap1\n      tag_119\n      jump\t// in\n    tag_129:\n      swap3\n      pop\n      pop\n      dup2\n      swap1\n      sstore\n      pop\n        /* \"contracts/BusinessConsensus2.sol\":6170:6176  Voters */\n      0x02\n        /* \"contracts/BusinessConsensus2.sol\":6177:6187  _messageID */\n      dup3\n      dup3\n        /* \"contracts/BusinessConsensus2.sol\":6170:6188  Voters[_messageID] */\n      mload(0x40)\n      tag_130\n      swap3\n      swap2\n      swap1\n      tag_102\n      jump\t// in\n    tag_130:\n      swap1\n      dup2\n      mstore\n      0x20\n      add\n      mload(0x40)\n      dup1\n      swap2\n      sub\n      swap1\n      keccak256\n        /* \"contracts/BusinessConsensus2.sol\":6194:6204  voter_maps */\n      0x01\n        /* \"contracts/BusinessConsensus2.sol\":6205:6215  _messageID */\n      dup4\n      dup4\n        /* \"contracts/BusinessConsensus2.sol\":6194:6216  voter_maps[_messageID] */\n      mload(0x40)\n      tag_131\n      swap3\n      swap2\n      swap1\n      tag_102\n      jump\t// in\n    tag_131:\n      swap1\n      dup2\n      mstore\n      0x20\n      add\n      mload(0x40)\n      dup1\n      swap2\n      sub\n      swap1\n      keccak256\n        /* \"contracts/BusinessConsensus2.sol\":6194:6228  voter_maps[_messageID][msg.sender] */\n      0x00\n        /* \"contracts/BusinessConsensus2.sol\":6217:6227  msg.sender */\n      caller\n        /* \"contracts/BusinessConsensus2.sol\":6194:6228  voter_maps[_messageID][msg.sender] */\n      0xffffffffffffffffffffffffffffffffffffffff\n      and\n      0xffffffffffffffffffffffffffffffffffffffff\n      and\n      dup2\n      mstore\n      0x20\n      add\n      swap1\n      dup2\n      mstore\n      0x20\n      add\n      0x00\n      keccak256\n        /* \"contracts/BusinessConsensus2.sol\":6170:6229  Voters[_messageID].push(voter_maps[_messageID][msg.sender]) */\n      swap1\n      dup1\n      0x01\n      dup2\n      sload\n      add\n      dup1\n      dup3\n      sstore\n      dup1\n      swap2\n      pop\n      pop\n      0x01\n      swap1\n      sub\n      swap1\n      0x00\n      mstore\n      keccak256(0x00, 0x20)\n      add\n      0x00\n      swap1\n      swap2\n      swap1\n      swap2\n      swap1\n      swap2\n      pop\n      0x00\n      dup3\n      add\n      0x00\n      swap1\n      sload\n      swap1\n      0x0100\n      exp\n      swap1\n      div\n      0xff\n      and\n      dup2\n      0x00\n      add\n      exp(0x0100, 0x00)\n      dup2\n      sload\n      dup2\n      0xff\n      mul\n      not\n      and\n      swap1\n      dup4\n      iszero\n      iszero\n      mul\n      or\n      swap1\n      sstore\n      pop\n      0x00\n      dup3\n      add\n      0x01\n      swap1\n      sload\n      swap1\n      0x0100\n      exp\n      swap1\n      div\n      0xff\n      and\n      dup2\n      0x00\n      add\n      exp(0x0100, 0x01)\n      dup2\n      sload\n      dup2\n      0xff\n      mul\n      not\n      and\n      swap1\n      dup4\n      iszero\n      iszero\n      mul\n      or\n      swap1\n      sstore\n      pop\n      0x00\n      dup3\n      add\n      0x02\n      swap1\n      sload\n      swap1\n      0x0100\n      exp\n      swap1\n      div\n      0xffffffffffffffffffffffffffffffffffffffff\n      and\n      dup2\n      0x00\n      add\n      exp(0x0100, 0x02)\n      dup2\n      sload\n      dup2\n      0xffffffffffffffffffffffffffffffffffffffff\n      mul\n      not\n      and\n      swap1\n      dup4\n      0xffffffffffffffffffffffffffffffffffffffff\n      and\n      mul\n      or\n      swap1\n      sstore\n      pop\n      pop\n      pop\n        /* \"contracts/BusinessConsensus2.sol\":5968:6536  if(keccak256(bytes(response)) == keccak256(bytes(\"i disapprove\"))){\r... */\n      jump(tag_133)\n    tag_126:\n        /* \"contracts/BusinessConsensus2.sol\":6387:6391  true */\n      0x01\n        /* \"contracts/BusinessConsensus2.sol\":6344:6354  voter_maps */\n      dup1\n        /* \"contracts/BusinessConsensus2.sol\":6355:6365  _messageID */\n      dup4\n      dup4\n        /* \"contracts/BusinessConsensus2.sol\":6344:6366  voter_maps[_messageID] */\n      mload(0x40)\n      tag_134\n      swap3\n      swap2\n      swap1\n      tag_102\n      jump\t// in\n    tag_134:\n      swap1\n      dup2\n      mstore\n      0x20\n      add\n      mload(0x40)\n      dup1\n      swap2\n      sub\n      swap1\n      keccak256\n        /* \"contracts/BusinessConsensus2.sol\":6344:6378  voter_maps[_messageID][msg.sender] */\n      0x00\n        /* \"contracts/BusinessConsensus2.sol\":6367:6377  msg.sender */\n      caller\n        /* \"contracts/BusinessConsensus2.sol\":6344:6378  voter_maps[_messageID][msg.sender] */\n      0xffffffffffffffffffffffffffffffffffffffff\n      and\n      0xffffffffffffffffffffffffffffffffffffffff\n      and\n      dup2\n      mstore\n      0x20\n      add\n      swap1\n      dup2\n      mstore\n      0x20\n      add\n      0x00\n      keccak256\n        /* \"contracts/BusinessConsensus2.sol\":6344:6384  voter_maps[_messageID][msg.sender].voted */\n      0x00\n      add\n      0x00\n        /* \"contracts/BusinessConsensus2.sol\":6344:6391  voter_maps[_messageID][msg.sender].voted = true */\n      0x0100\n      exp\n      dup2\n      sload\n      dup2\n      0xff\n      mul\n      not\n      and\n      swap1\n      dup4\n      iszero\n      iszero\n      mul\n      or\n      swap1\n      sstore\n      pop\n        /* \"contracts/BusinessConsensus2.sol\":6449:6450  1 */\n      0x01\n        /* \"contracts/BusinessConsensus2.sol\":6406:6423  businessProposals */\n      0x00\n        /* \"contracts/BusinessConsensus2.sol\":6424:6434  _messageID */\n      dup4\n      dup4\n        /* \"contracts/BusinessConsensus2.sol\":6406:6435  businessProposals[_messageID] */\n      mload(0x40)\n      tag_135\n      swap3\n      swap2\n      swap1\n      tag_102\n      jump\t// in\n    tag_135:\n      swap1\n      dup2\n      mstore\n      0x20\n      add\n      mload(0x40)\n      dup1\n      swap2\n      sub\n      swap1\n      keccak256\n        /* \"contracts/BusinessConsensus2.sol\":6406:6445  businessProposals[_messageID].voteCount */\n      0x02\n      add\n      0x00\n        /* \"contracts/BusinessConsensus2.sol\":6406:6450  businessProposals[_messageID].voteCount += 1 */\n      dup3\n      dup3\n      sload\n      tag_136\n      swap2\n      swap1\n      tag_119\n      jump\t// in\n    tag_136:\n      swap3\n      pop\n      pop\n      dup2\n      swap1\n      sstore\n      pop\n        /* \"contracts/BusinessConsensus2.sol\":6465:6471  Voters */\n      0x02\n        /* \"contracts/BusinessConsensus2.sol\":6472:6482  _messageID */\n      dup3\n      dup3\n        /* \"contracts/BusinessConsensus2.sol\":6465:6483  Voters[_messageID] */\n      mload(0x40)\n      tag_137\n      swap3\n      swap2\n      swap1\n      tag_102\n      jump\t// in\n    tag_137:\n      swap1\n      dup2\n      mstore\n      0x20\n      add\n      mload(0x40)\n      dup1\n      swap2\n      sub\n      swap1\n      keccak256\n        /* \"contracts/BusinessConsensus2.sol\":6489:6499  voter_maps */\n      0x01\n        /* \"contracts/BusinessConsensus2.sol\":6500:6510  _messageID */\n      dup4\n      dup4\n        /* \"contracts/BusinessConsensus2.sol\":6489:6511  voter_maps[_messageID] */\n      mload(0x40)\n      tag_138\n      swap3\n      swap2\n      swap1\n      tag_102\n      jump\t// in\n    tag_138:\n      swap1\n      dup2\n      mstore\n      0x20\n      add\n      mload(0x40)\n      dup1\n      swap2\n      sub\n      swap1\n      keccak256\n        /* \"contracts/BusinessConsensus2.sol\":6489:6523  voter_maps[_messageID][msg.sender] */\n      0x00\n        /* \"contracts/BusinessConsensus2.sol\":6512:6522  msg.sender */\n      caller\n        /* \"contracts/BusinessConsensus2.sol\":6489:6523  voter_maps[_messageID][msg.sender] */\n      0xffffffffffffffffffffffffffffffffffffffff\n      and\n      0xffffffffffffffffffffffffffffffffffffffff\n      and\n      dup2\n      mstore\n      0x20\n      add\n      swap1\n      dup2\n      mstore\n      0x20\n      add\n      0x00\n      keccak256\n        /* \"contracts/BusinessConsensus2.sol\":6465:6524  Voters[_messageID].push(voter_maps[_messageID][msg.sender]) */\n      swap1\n      dup1\n      0x01\n      dup2\n      sload\n      add\n      dup1\n      dup3\n      sstore\n      dup1\n      swap2\n      pop\n      pop\n      0x01\n      swap1\n      sub\n      swap1\n      0x00\n      mstore\n      keccak256(0x00, 0x20)\n      add\n      0x00\n      swap1\n      swap2\n      swap1\n      swap2\n      swap1\n      swap2\n      pop\n      0x00\n      dup3\n      add\n      0x00\n      swap1\n      sload\n      swap1\n      0x0100\n      exp\n      swap1\n      div\n      0xff\n      and\n      dup2\n      0x00\n      add\n      exp(0x0100, 0x00)\n      dup2\n      sload\n      dup2\n      0xff\n      mul\n      not\n      and\n      swap1\n      dup4\n      iszero\n      iszero\n      mul\n      or\n      swap1\n      sstore\n      pop\n      0x00\n      dup3\n      add\n      0x01\n      swap1\n      sload\n      swap1\n      0x0100\n      exp\n      swap1\n      div\n      0xff\n      and\n      dup2\n      0x00\n      add\n      exp(0x0100, 0x01)\n      dup2\n      sload\n      dup2\n      0xff\n      mul\n      not\n      and\n      swap1\n      dup4\n      iszero\n      iszero\n      mul\n      or\n      swap1\n      sstore\n      pop\n      0x00\n      dup3\n      add\n      0x02\n      swap1\n      sload\n      swap1\n      0x0100\n      exp\n      swap1\n      div\n      0xffffffffffffffffffffffffffffffffffffffff\n      and\n      dup2\n      0x00\n      add\n      exp(0x0100, 0x02)\n      dup2\n      sload\n      dup2\n      0xffffffffffffffffffffffffffffffffffffffff\n      mul\n      not\n      and\n      swap1\n      dup4\n      0xffffffffffffffffffffffffffffffffffffffff\n      and\n      mul\n      or\n      swap1\n      sstore\n      pop\n      pop\n      pop\n        /* \"contracts/BusinessConsensus2.sol\":5968:6536  if(keccak256(bytes(response)) == keccak256(bytes(\"i disapprove\"))){\r... */\n    tag_133:\n        /* \"contracts/BusinessConsensus2.sol\":5558:6536  if(keccak256(bytes(response)) == keccak256(bytes(\"i approve\"))){\r... */\n    tag_125:\n        /* \"contracts/BusinessConsensus2.sol\":5162:6553  function Vote(string memory response,string calldata _messageID) external {\r... */\n      pop\n      pop\n      pop\n      jump\t// out\n        /* \"contracts/BusinessConsensus2.sol\":1038:1096  mapping(string=>mapping(address=>Voter)) public voter_maps */\n    tag_37:\n      0x01\n      dup3\n      dup1\n      mload\n      0x20\n      dup2\n      add\n      dup3\n      add\n      dup1\n      mload\n      dup5\n      dup3\n      mstore\n      0x20\n      dup4\n      add\n      0x20\n      dup6\n      add\n      keccak256\n      dup2\n      dup4\n      mstore\n      dup1\n      swap6\n      pop\n      pop\n      pop\n      pop\n      pop\n      pop\n      0x20\n      mstore\n      dup1\n      0x00\n      mstore\n      keccak256(0x00, 0x40)\n      0x00\n      swap2\n      pop\n      swap2\n      pop\n      pop\n      dup1\n      0x00\n      add\n      0x00\n      swap1\n      sload\n      swap1\n      0x0100\n      exp\n      swap1\n      div\n      0xff\n      and\n      swap1\n      dup1\n      0x00\n      add\n      0x01\n      swap1\n      sload\n      swap1\n      0x0100\n      exp\n      swap1\n      div\n      0xff\n      and\n      swap1\n      dup1\n      0x00\n      add\n      0x02\n      swap1\n      sload\n      swap1\n      0x0100\n      exp\n      swap1\n      div\n      0xffffffffffffffffffffffffffffffffffffffff\n      and\n      swap1\n      pop\n      dup4\n      jump\t// out\n        /* \"contracts/BusinessConsensus2.sol\":7684:8243  function retrieve_bundle(string calldata _messageID) external view returns (bytes32, string memory, uint256, Voter[] memory){\r... */\n    tag_43:\n        /* \"contracts/BusinessConsensus2.sol\":7760:7767  bytes32 */\n      0x00\n        /* \"contracts/BusinessConsensus2.sol\":7769:7782  string memory */\n      0x60\n        /* \"contracts/BusinessConsensus2.sol\":7784:7791  uint256 */\n      0x00\n        /* \"contracts/BusinessConsensus2.sol\":7793:7807  Voter[] memory */\n      0x60\n        /* \"contracts/BusinessConsensus2.sol\":7846:7863  businessProposals */\n      0x00\n        /* \"contracts/BusinessConsensus2.sol\":7864:7874  _messageID */\n      dup7\n      dup7\n        /* \"contracts/BusinessConsensus2.sol\":7846:7875  businessProposals[_messageID] */\n      mload(0x40)\n      tag_141\n      swap3\n      swap2\n      swap1\n      tag_102\n      jump\t// in\n    tag_141:\n      swap1\n      dup2\n      mstore\n      0x20\n      add\n      mload(0x40)\n      dup1\n      swap2\n      sub\n      swap1\n      keccak256\n        /* \"contracts/BusinessConsensus2.sol\":7846:7886  businessProposals[_messageID].expiryDate */\n      0x03\n      add\n      sload\n        /* \"contracts/BusinessConsensus2.sol\":7827:7842  block.timestamp */\n      timestamp\n        /* \"contracts/BusinessConsensus2.sol\":7827:7886  block.timestamp >= businessProposals[_messageID].expiryDate */\n      lt\n      iszero\n        /* \"contracts/BusinessConsensus2.sol\":7819:7923  require(block.timestamp >= businessProposals[_messageID].expiryDate, \"Verdict has not been reached yet\") */\n      tag_142\n      jumpi\n      mload(0x40)\n      0x08c379a000000000000000000000000000000000000000000000000000000000\n      dup2\n      mstore\n      0x04\n      add\n      tag_143\n      swap1\n      tag_144\n      jump\t// in\n    tag_143:\n      mload(0x40)\n      dup1\n      swap2\n      sub\n      swap1\n      revert\n    tag_142:\n        /* \"contracts/BusinessConsensus2.sol\":7934:7955  Voter[] memory voters */\n      0x00\n        /* \"contracts/BusinessConsensus2.sol\":7958:7964  Voters */\n      0x02\n        /* \"contracts/BusinessConsensus2.sol\":7965:7975  _messageID */\n      dup8\n      dup8\n        /* \"contracts/BusinessConsensus2.sol\":7958:7976  Voters[_messageID] */\n      mload(0x40)\n      tag_145\n      swap3\n      swap2\n      swap1\n      tag_102\n      jump\t// in\n    tag_145:\n      swap1\n      dup2\n      mstore\n      0x20\n      add\n      mload(0x40)\n      dup1\n      swap2\n      sub\n      swap1\n      keccak256\n        /* \"contracts/BusinessConsensus2.sol\":7934:7976  Voter[] memory voters = Voters[_messageID] */\n      dup1\n      sload\n      dup1\n      0x20\n      mul\n      0x20\n      add\n      mload(0x40)\n      swap1\n      dup2\n      add\n      0x40\n      mstore\n      dup1\n      swap3\n      swap2\n      swap1\n      dup2\n      dup2\n      mstore\n      0x20\n      add\n      0x00\n      swap1\n    tag_146:\n      dup3\n      dup3\n      lt\n      iszero\n      tag_147\n      jumpi\n      dup4\n      dup3\n      swap1\n      0x00\n      mstore\n      keccak256(0x00, 0x20)\n      add\n      mload(0x40)\n      dup1\n      0x60\n      add\n      0x40\n      mstore\n      swap1\n      dup2\n      0x00\n      dup3\n      add\n      0x00\n      swap1\n      sload\n      swap1\n      0x0100\n      exp\n      swap1\n      div\n      0xff\n      and\n      iszero\n      iszero\n      iszero\n      iszero\n      dup2\n      mstore\n      0x20\n      add\n      0x00\n      dup3\n      add\n      0x01\n      swap1\n      sload\n      swap1\n      0x0100\n      exp\n      swap1\n      div\n      0xff\n      and\n      iszero\n      iszero\n      iszero\n      iszero\n      dup2\n      mstore\n      0x20\n      add\n      0x00\n      dup3\n      add\n      0x02\n      swap1\n      sload\n      swap1\n      0x0100\n      exp\n      swap1\n      div\n      0xffffffffffffffffffffffffffffffffffffffff\n      and\n      0xffffffffffffffffffffffffffffffffffffffff\n      and\n      0xffffffffffffffffffffffffffffffffffffffff\n      and\n      dup2\n      mstore\n      pop\n      pop\n      dup2\n      mstore\n      0x20\n      add\n      swap1\n      0x01\n      add\n      swap1\n      jump(tag_146)\n    tag_147:\n      pop\n      pop\n      pop\n      pop\n      swap1\n      pop\n        /* \"contracts/BusinessConsensus2.sol\":7987:8003  string memory ID */\n      0x00\n        /* \"contracts/BusinessConsensus2.sol\":8006:8023  businessProposals */\n      dup1\n        /* \"contracts/BusinessConsensus2.sol\":8024:8034  _messageID */\n      dup9\n      dup9\n        /* \"contracts/BusinessConsensus2.sol\":8006:8035  businessProposals[_messageID] */\n      mload(0x40)\n      tag_149\n      swap3\n      swap2\n      swap1\n      tag_102\n      jump\t// in\n    tag_149:\n      swap1\n      dup2\n      mstore\n      0x20\n      add\n      mload(0x40)\n      dup1\n      swap2\n      sub\n      swap1\n      keccak256\n        /* \"contracts/BusinessConsensus2.sol\":8006:8045  businessProposals[_messageID].messageID */\n      0x00\n      add\n        /* \"contracts/BusinessConsensus2.sol\":7987:8045  string memory ID = businessProposals[_messageID].messageID */\n      dup1\n      sload\n      tag_150\n      swap1\n      tag_85\n      jump\t// in\n    tag_150:\n      dup1\n      0x1f\n      add\n      0x20\n      dup1\n      swap2\n      div\n      mul\n      0x20\n      add\n      mload(0x40)\n      swap1\n      dup2\n      add\n      0x40\n      mstore\n      dup1\n      swap3\n      swap2\n      swap1\n      dup2\n      dup2\n      mstore\n      0x20\n      add\n      dup3\n      dup1\n      sload\n      tag_151\n      swap1\n      tag_85\n      jump\t// in\n    tag_151:\n      dup1\n      iszero\n      tag_152\n      jumpi\n      dup1\n      0x1f\n      lt\n      tag_153\n      jumpi\n      0x0100\n      dup1\n      dup4\n      sload\n      div\n      mul\n      dup4\n      mstore\n      swap2\n      0x20\n      add\n      swap2\n      jump(tag_152)\n    tag_153:\n      dup3\n      add\n      swap2\n      swap1\n      0x00\n      mstore\n      keccak256(0x00, 0x20)\n      swap1\n    tag_154:\n      dup2\n      sload\n      dup2\n      mstore\n      swap1\n      0x01\n      add\n      swap1\n      0x20\n      add\n      dup1\n      dup4\n      gt\n      tag_154\n      jumpi\n      dup3\n      swap1\n      sub\n      0x1f\n      and\n      dup3\n      add\n      swap2\n    tag_152:\n      pop\n      pop\n      pop\n      pop\n      pop\n      swap1\n      pop\n        /* \"contracts/BusinessConsensus2.sol\":8056:8071  bytes32 verdict */\n      0x00\n        /* \"contracts/BusinessConsensus2.sol\":8074:8091  businessProposals */\n      dup1\n        /* \"contracts/BusinessConsensus2.sol\":8092:8102  _messageID */\n      dup10\n      dup10\n        /* \"contracts/BusinessConsensus2.sol\":8074:8103  businessProposals[_messageID] */\n      mload(0x40)\n      tag_155\n      swap3\n      swap2\n      swap1\n      tag_102\n      jump\t// in\n    tag_155:\n      swap1\n      dup2\n      mstore\n      0x20\n      add\n      mload(0x40)\n      dup1\n      swap2\n      sub\n      swap1\n      keccak256\n        /* \"contracts/BusinessConsensus2.sol\":8074:8116  businessProposals[_messageID].finalVerdict */\n      0x07\n      add\n      sload\n        /* \"contracts/BusinessConsensus2.sol\":8056:8116  bytes32 verdict = businessProposals[_messageID].finalVerdict */\n      swap1\n      pop\n        /* \"contracts/BusinessConsensus2.sol\":8127:8140  uint256 count */\n      0x00\n        /* \"contracts/BusinessConsensus2.sol\":8143:8160  businessProposals */\n      dup1\n        /* \"contracts/BusinessConsensus2.sol\":8161:8171  _messageID */\n      dup11\n      dup11\n        /* \"contracts/BusinessConsensus2.sol\":8143:8172  businessProposals[_messageID] */\n      mload(0x40)\n      tag_156\n      swap3\n      swap2\n      swap1\n      tag_102\n      jump\t// in\n    tag_156:\n      swap1\n      dup2\n      mstore\n      0x20\n      add\n      mload(0x40)\n      dup1\n      swap2\n      sub\n      swap1\n      keccak256\n        /* \"contracts/BusinessConsensus2.sol\":8143:8182  businessProposals[_messageID].voteCount */\n      0x02\n      add\n      sload\n        /* \"contracts/BusinessConsensus2.sol\":8127:8182  uint256 count = businessProposals[_messageID].voteCount */\n      swap1\n      pop\n        /* \"contracts/BusinessConsensus2.sol\":8201:8208  verdict */\n      dup2\n        /* \"contracts/BusinessConsensus2.sol\":8209:8211  ID */\n      dup4\n        /* \"contracts/BusinessConsensus2.sol\":8212:8217  count */\n      dup3\n        /* \"contracts/BusinessConsensus2.sol\":8218:8224  voters */\n      dup7\n        /* \"contracts/BusinessConsensus2.sol\":8193:8225  return (verdict,ID,count,voters) */\n      swap8\n      pop\n      swap8\n      pop\n      swap8\n      pop\n      swap8\n      pop\n      pop\n      pop\n      pop\n      pop\n        /* \"contracts/BusinessConsensus2.sol\":7684:8243  function retrieve_bundle(string calldata _messageID) external view returns (bytes32, string memory, uint256, Voter[] memory){\r... */\n      swap3\n      swap6\n      swap2\n      swap5\n      pop\n      swap3\n      pop\n      jump\t// out\n        /* \"contracts/BusinessConsensus2.sol\":4357:5154  function RegisterVoter(address voter,string calldata _messageID) external {\r... */\n    tag_49:\n        /* \"contracts/BusinessConsensus2.sol\":4552:4569  businessProposals */\n      0x00\n        /* \"contracts/BusinessConsensus2.sol\":4570:4580  _messageID */\n      dup3\n      dup3\n        /* \"contracts/BusinessConsensus2.sol\":4552:4581  businessProposals[_messageID] */\n      mload(0x40)\n      tag_158\n      swap3\n      swap2\n      swap1\n      tag_102\n      jump\t// in\n    tag_158:\n      swap1\n      dup2\n      mstore\n      0x20\n      add\n      mload(0x40)\n      dup1\n      swap2\n      sub\n      swap1\n      keccak256\n        /* \"contracts/BusinessConsensus2.sol\":4552:4591  businessProposals[_messageID].initiator */\n      0x01\n      add\n      0x00\n      swap1\n      sload\n      swap1\n      0x0100\n      exp\n      swap1\n      div\n      0xffffffffffffffffffffffffffffffffffffffff\n      and\n        /* \"contracts/BusinessConsensus2.sol\":4538:4591  msg.sender == businessProposals[_messageID].initiator */\n      0xffffffffffffffffffffffffffffffffffffffff\n      and\n        /* \"contracts/BusinessConsensus2.sol\":4538:4548  msg.sender */\n      caller\n        /* \"contracts/BusinessConsensus2.sol\":4538:4591  msg.sender == businessProposals[_messageID].initiator */\n      0xffffffffffffffffffffffffffffffffffffffff\n      and\n      eq\n        /* \"contracts/BusinessConsensus2.sol\":4516:4659  require(\r... */\n      tag_159\n      jumpi\n      mload(0x40)\n      0x08c379a000000000000000000000000000000000000000000000000000000000\n      dup2\n      mstore\n      0x04\n      add\n      tag_160\n      swap1\n      tag_161\n      jump\t// in\n    tag_160:\n      mload(0x40)\n      dup1\n      swap2\n      sub\n      swap1\n      revert\n    tag_159:\n        /* \"contracts/BusinessConsensus2.sol\":4687:4704  businessProposals */\n      0x00\n        /* \"contracts/BusinessConsensus2.sol\":4705:4715  _messageID */\n      dup3\n      dup3\n        /* \"contracts/BusinessConsensus2.sol\":4687:4716  businessProposals[_messageID] */\n      mload(0x40)\n      tag_162\n      swap3\n      swap2\n      swap1\n      tag_102\n      jump\t// in\n    tag_162:\n      swap1\n      dup2\n      mstore\n      0x20\n      add\n      mload(0x40)\n      dup1\n      swap2\n      sub\n      swap1\n      keccak256\n        /* \"contracts/BusinessConsensus2.sol\":4687:4726  businessProposals[_messageID].initiator */\n      0x01\n      add\n      0x00\n      swap1\n      sload\n      swap1\n      0x0100\n      exp\n      swap1\n      div\n      0xffffffffffffffffffffffffffffffffffffffff\n      and\n        /* \"contracts/BusinessConsensus2.sol\":4678:4726  voter != businessProposals[_messageID].initiator */\n      0xffffffffffffffffffffffffffffffffffffffff\n      and\n        /* \"contracts/BusinessConsensus2.sol\":4678:4683  voter */\n      dup4\n        /* \"contracts/BusinessConsensus2.sol\":4678:4726  voter != businessProposals[_messageID].initiator */\n      0xffffffffffffffffffffffffffffffffffffffff\n      and\n      eq\n      iszero\n        /* \"contracts/BusinessConsensus2.sol\":4670:4752  require(voter != businessProposals[_messageID].initiator, \"Initiator can't vote!\") */\n      tag_163\n      jumpi\n      mload(0x40)\n      0x08c379a000000000000000000000000000000000000000000000000000000000\n      dup2\n      mstore\n      0x04\n      add\n      tag_164\n      swap1\n      tag_165\n      jump\t// in\n    tag_164:\n      mload(0x40)\n      dup1\n      swap2\n      sub\n      swap1\n      revert\n    tag_163:\n        /* \"contracts/BusinessConsensus2.sol\":4824:4825  0 */\n      0x00\n        /* \"contracts/BusinessConsensus2.sol\":4773:4826  voter_maps[_messageID][voter].recipient == address(0) */\n      0xffffffffffffffffffffffffffffffffffffffff\n      and\n        /* \"contracts/BusinessConsensus2.sol\":4773:4783  voter_maps */\n      0x01\n        /* \"contracts/BusinessConsensus2.sol\":4784:4794  _messageID */\n      dup4\n      dup4\n        /* \"contracts/BusinessConsensus2.sol\":4773:4795  voter_maps[_messageID] */\n      mload(0x40)\n      tag_166\n      swap3\n      swap2\n      swap1\n      tag_102\n      jump\t// in\n    tag_166:\n      swap1\n      dup2\n      mstore\n      0x20\n      add\n      mload(0x40)\n      dup1\n      swap2\n      sub\n      swap1\n      keccak256\n        /* \"contracts/BusinessConsensus2.sol\":4773:4802  voter_maps[_messageID][voter] */\n      0x00\n        /* \"contracts/BusinessConsensus2.sol\":4796:4801  voter */\n      dup6\n        /* \"contracts/BusinessConsensus2.sol\":4773:4802  voter_maps[_messageID][voter] */\n      0xffffffffffffffffffffffffffffffffffffffff\n      and\n      0xffffffffffffffffffffffffffffffffffffffff\n      and\n      dup2\n      mstore\n      0x20\n      add\n      swap1\n      dup2\n      mstore\n      0x20\n      add\n      0x00\n      keccak256\n        /* \"contracts/BusinessConsensus2.sol\":4773:4812  voter_maps[_messageID][voter].recipient */\n      0x00\n      add\n      0x02\n      swap1\n      sload\n      swap1\n      0x0100\n      exp\n      swap1\n      div\n      0xffffffffffffffffffffffffffffffffffffffff\n      and\n        /* \"contracts/BusinessConsensus2.sol\":4773:4826  voter_maps[_messageID][voter].recipient == address(0) */\n      0xffffffffffffffffffffffffffffffffffffffff\n      and\n      eq\n        /* \"contracts/BusinessConsensus2.sol\":4765:4862  require(voter_maps[_messageID][voter].recipient == address(0), \"Recipient is already registered\") */\n      tag_167\n      jumpi\n      mload(0x40)\n      0x08c379a000000000000000000000000000000000000000000000000000000000\n      dup2\n      mstore\n      0x04\n      add\n      tag_168\n      swap1\n      tag_169\n      jump\t// in\n    tag_168:\n      mload(0x40)\n      dup1\n      swap2\n      sub\n      swap1\n      revert\n    tag_167:\n        /* \"contracts/BusinessConsensus2.sol\":4901:4918  businessProposals */\n      0x00\n        /* \"contracts/BusinessConsensus2.sol\":4919:4929  _messageID */\n      dup3\n      dup3\n        /* \"contracts/BusinessConsensus2.sol\":4901:4930  businessProposals[_messageID] */\n      mload(0x40)\n      tag_170\n      swap3\n      swap2\n      swap1\n      tag_102\n      jump\t// in\n    tag_170:\n      swap1\n      dup2\n      mstore\n      0x20\n      add\n      mload(0x40)\n      dup1\n      swap2\n      sub\n      swap1\n      keccak256\n        /* \"contracts/BusinessConsensus2.sol\":4901:4941  businessProposals[_messageID].expiryDate */\n      0x03\n      add\n      sload\n        /* \"contracts/BusinessConsensus2.sol\":4883:4898  block.timestamp */\n      timestamp\n        /* \"contracts/BusinessConsensus2.sol\":4883:4941  block.timestamp < businessProposals[_messageID].expiryDate */\n      lt\n        /* \"contracts/BusinessConsensus2.sol\":4875:4982  require(block.timestamp < businessProposals[_messageID].expiryDate, \"Proposal has reached its expiry date\") */\n      tag_171\n      jumpi\n      mload(0x40)\n      0x08c379a000000000000000000000000000000000000000000000000000000000\n      dup2\n      mstore\n      0x04\n      add\n      tag_172\n      swap1\n      tag_173\n      jump\t// in\n    tag_172:\n      mload(0x40)\n      dup1\n      swap2\n      sub\n      swap1\n      revert\n    tag_171:\n        /* \"contracts/BusinessConsensus2.sol\":4995:5009  Voter memory x */\n      0x00\n        /* \"contracts/BusinessConsensus2.sol\":5012:5063  Voter({voted: false,recipient: voter, vote: false}) */\n      mload(0x40)\n      dup1\n      0x60\n      add\n      0x40\n      mstore\n      dup1\n        /* \"contracts/BusinessConsensus2.sol\":5026:5031  false */\n      0x00\n        /* \"contracts/BusinessConsensus2.sol\":5012:5063  Voter({voted: false,recipient: voter, vote: false}) */\n      iszero\n      iszero\n      dup2\n      mstore\n      0x20\n      add\n        /* \"contracts/BusinessConsensus2.sol\":5056:5061  false */\n      0x00\n        /* \"contracts/BusinessConsensus2.sol\":5012:5063  Voter({voted: false,recipient: voter, vote: false}) */\n      iszero\n      iszero\n      dup2\n      mstore\n      0x20\n      add\n        /* \"contracts/BusinessConsensus2.sol\":5043:5048  voter */\n      dup6\n        /* \"contracts/BusinessConsensus2.sol\":5012:5063  Voter({voted: false,recipient: voter, vote: false}) */\n      0xffffffffffffffffffffffffffffffffffffffff\n      and\n      dup2\n      mstore\n      pop\n        /* \"contracts/BusinessConsensus2.sol\":4995:5063  Voter memory x = Voter({voted: false,recipient: voter, vote: false}) */\n      swap1\n      pop\n        /* \"contracts/BusinessConsensus2.sol\":5106:5107  x */\n      dup1\n        /* \"contracts/BusinessConsensus2.sol\":5074:5084  voter_maps */\n      0x01\n        /* \"contracts/BusinessConsensus2.sol\":5085:5095  _messageID */\n      dup5\n      dup5\n        /* \"contracts/BusinessConsensus2.sol\":5074:5096  voter_maps[_messageID] */\n      mload(0x40)\n      tag_174\n      swap3\n      swap2\n      swap1\n      tag_102\n      jump\t// in\n    tag_174:\n      swap1\n      dup2\n      mstore\n      0x20\n      add\n      mload(0x40)\n      dup1\n      swap2\n      sub\n      swap1\n      keccak256\n        /* \"contracts/BusinessConsensus2.sol\":5074:5103  voter_maps[_messageID][voter] */\n      0x00\n        /* \"contracts/BusinessConsensus2.sol\":5097:5102  voter */\n      dup7\n        /* \"contracts/BusinessConsensus2.sol\":5074:5103  voter_maps[_messageID][voter] */\n      0xffffffffffffffffffffffffffffffffffffffff\n      and\n      0xffffffffffffffffffffffffffffffffffffffff\n      and\n      dup2\n      mstore\n      0x20\n      add\n      swap1\n      dup2\n      mstore\n      0x20\n      add\n      0x00\n      keccak256\n        /* \"contracts/BusinessConsensus2.sol\":5074:5107  voter_maps[_messageID][voter] = x */\n      0x00\n      dup3\n      add\n      mload\n      dup2\n      0x00\n      add\n      exp(0x0100, 0x00)\n      dup2\n      sload\n      dup2\n      0xff\n      mul\n      not\n      and\n      swap1\n      dup4\n      iszero\n      iszero\n      mul\n      or\n      swap1\n      sstore\n      pop\n      0x20\n      dup3\n      add\n      mload\n      dup2\n      0x00\n      add\n      exp(0x0100, 0x01)\n      dup2\n      sload\n      dup2\n      0xff\n      mul\n      not\n      and\n      swap1\n      dup4\n      iszero\n      iszero\n      mul\n      or\n      swap1\n      sstore\n      pop\n      0x40\n      dup3\n      add\n      mload\n      dup2\n      0x00\n      add\n      exp(0x0100, 0x02)\n      dup2\n      sload\n      dup2\n      0xffffffffffffffffffffffffffffffffffffffff\n      mul\n      not\n      and\n      swap1\n      dup4\n      0xffffffffffffffffffffffffffffffffffffffff\n      and\n      mul\n      or\n      swap1\n      sstore\n      pop\n      swap1\n      pop\n      pop\n        /* \"contracts/BusinessConsensus2.sol\":5118:5122  keys */\n      0x03\n        /* \"contracts/BusinessConsensus2.sol\":5123:5133  _messageID */\n      dup4\n      dup4\n        /* \"contracts/BusinessConsensus2.sol\":5118:5134  keys[_messageID] */\n      mload(0x40)\n      tag_175\n      swap3\n      swap2\n      swap1\n      tag_102\n      jump\t// in\n    tag_175:\n      swap1\n      dup2\n      mstore\n      0x20\n      add\n      mload(0x40)\n      dup1\n      swap2\n      sub\n      swap1\n      keccak256\n        /* \"contracts/BusinessConsensus2.sol\":5140:5145  voter */\n      dup5\n        /* \"contracts/BusinessConsensus2.sol\":5118:5146  keys[_messageID].push(voter) */\n      swap1\n      dup1\n      0x01\n      dup2\n      sload\n      add\n      dup1\n      dup3\n      sstore\n      dup1\n      swap2\n      pop\n      pop\n      0x01\n      swap1\n      sub\n      swap1\n      0x00\n      mstore\n      keccak256(0x00, 0x20)\n      add\n      0x00\n      swap1\n      swap2\n      swap1\n      swap2\n      swap1\n      swap2\n      0x0100\n      exp\n      dup2\n      sload\n      dup2\n      0xffffffffffffffffffffffffffffffffffffffff\n      mul\n      not\n      and\n      swap1\n      dup4\n      0xffffffffffffffffffffffffffffffffffffffff\n      and\n      mul\n      or\n      swap1\n      sstore\n      pop\n        /* \"contracts/BusinessConsensus2.sol\":4431:5154  {\r... */\n      pop\n        /* \"contracts/BusinessConsensus2.sol\":4357:5154  function RegisterVoter(address voter,string calldata _messageID) external {\r... */\n      pop\n      pop\n      pop\n      jump\t// out\n        /* \"contracts/BusinessConsensus2.sol\":1199:2227  function createContract(string memory _messageID, uint256 expiry, uint256 requiredPercentage,bytes32 contents,string memory subject,string memory _messageDate) external{\r... */\n    tag_53:\n        /* \"contracts/BusinessConsensus2.sol\":1522:1523  0 */\n      0x00\n        /* \"contracts/BusinessConsensus2.sol\":1471:1524  businessProposals[_messageID].initiator == address(0) */\n      0xffffffffffffffffffffffffffffffffffffffff\n      and\n        /* \"contracts/BusinessConsensus2.sol\":1471:1488  businessProposals */\n      0x00\n        /* \"contracts/BusinessConsensus2.sol\":1489:1499  _messageID */\n      dup8\n        /* \"contracts/BusinessConsensus2.sol\":1471:1500  businessProposals[_messageID] */\n      mload(0x40)\n      tag_178\n      swap2\n      swap1\n      tag_179\n      jump\t// in\n    tag_178:\n      swap1\n      dup2\n      mstore\n      0x20\n      add\n      mload(0x40)\n      dup1\n      swap2\n      sub\n      swap1\n      keccak256\n        /* \"contracts/BusinessConsensus2.sol\":1471:1510  businessProposals[_messageID].initiator */\n      0x01\n      add\n      0x00\n      swap1\n      sload\n      swap1\n      0x0100\n      exp\n      swap1\n      div\n      0xffffffffffffffffffffffffffffffffffffffff\n      and\n        /* \"contracts/BusinessConsensus2.sol\":1471:1524  businessProposals[_messageID].initiator == address(0) */\n      0xffffffffffffffffffffffffffffffffffffffff\n      and\n      eq\n        /* \"contracts/BusinessConsensus2.sol\":1463:1553  require(businessProposals[_messageID].initiator == address(0),\"Proposal already created!\") */\n      tag_180\n      jumpi\n      mload(0x40)\n      0x08c379a000000000000000000000000000000000000000000000000000000000\n      dup2\n      mstore\n      0x04\n      add\n      tag_181\n      swap1\n      tag_182\n      jump\t// in\n    tag_181:\n      mload(0x40)\n      dup1\n      swap2\n      sub\n      swap1\n      revert\n    tag_180:\n        /* \"contracts/BusinessConsensus2.sol\":1564:1588  Proposal memory proposal */\n      0x00\n        /* \"contracts/BusinessConsensus2.sol\":1591:2112  Proposal({\r... */\n      mload(0x40)\n      dup1\n      0x0180\n      add\n      0x40\n      mstore\n      dup1\n        /* \"contracts/BusinessConsensus2.sol\":1661:1671  _messageID */\n      dup9\n        /* \"contracts/BusinessConsensus2.sol\":1591:2112  Proposal({\r... */\n      dup2\n      mstore\n      0x20\n      add\n        /* \"contracts/BusinessConsensus2.sol\":1783:1793  msg.sender */\n      caller\n        /* \"contracts/BusinessConsensus2.sol\":1591:2112  Proposal({\r... */\n      0xffffffffffffffffffffffffffffffffffffffff\n      and\n      dup2\n      mstore\n      0x20\n      add\n        /* \"contracts/BusinessConsensus2.sol\":1630:1631  0 */\n      0x00\n        /* \"contracts/BusinessConsensus2.sol\":1591:2112  Proposal({\r... */\n      dup2\n      mstore\n      0x20\n      add\n        /* \"contracts/BusinessConsensus2.sol\":1843:1849  expiry */\n      dup8\n        /* \"contracts/BusinessConsensus2.sol\":1825:1840  block.timestamp */\n      timestamp\n        /* \"contracts/BusinessConsensus2.sol\":1825:1849  block.timestamp + expiry */\n      tag_183\n      swap2\n      swap1\n      tag_119\n      jump\t// in\n    tag_183:\n        /* \"contracts/BusinessConsensus2.sol\":1591:2112  Proposal({\r... */\n      dup2\n      mstore\n      0x20\n      add\n        /* \"contracts/BusinessConsensus2.sol\":1890:1908  requiredPercentage */\n      dup7\n        /* \"contracts/BusinessConsensus2.sol\":1591:2112  Proposal({\r... */\n      dup2\n      mstore\n      0x20\n      add\n        /* \"contracts/BusinessConsensus2.sol\":1942:1943  0 */\n      0x00\n        /* \"contracts/BusinessConsensus2.sol\":1591:2112  Proposal({\r... */\n      dup2\n      mstore\n      0x20\n      add\n        /* \"contracts/BusinessConsensus2.sol\":1747:1752  false */\n      0x00\n        /* \"contracts/BusinessConsensus2.sol\":1591:2112  Proposal({\r... */\n      iszero\n      iszero\n      dup2\n      mstore\n      0x20\n      add\n      0x52656a6563746564000000000000000000000000000000000000000000000000\n      dup2\n      mstore\n      0x20\n      add\n        /* \"contracts/BusinessConsensus2.sol\":1974:1986  _messageDate */\n      dup4\n        /* \"contracts/BusinessConsensus2.sol\":1591:2112  Proposal({\r... */\n      dup2\n      mstore\n      0x20\n      add\n        /* \"contracts/BusinessConsensus2.sol\":2014:2021  subject */\n      dup5\n        /* \"contracts/BusinessConsensus2.sol\":1591:2112  Proposal({\r... */\n      dup2\n      mstore\n      0x20\n      add\n        /* \"contracts/BusinessConsensus2.sol\":2050:2058  contents */\n      dup6\n        /* \"contracts/BusinessConsensus2.sol\":1591:2112  Proposal({\r... */\n      dup2\n      mstore\n      0x20\n      add\n        /* \"contracts/BusinessConsensus2.sol\":2090:2096  expiry */\n      dup8\n        /* \"contracts/BusinessConsensus2.sol\":1591:2112  Proposal({\r... */\n      dup2\n      mstore\n      pop\n        /* \"contracts/BusinessConsensus2.sol\":1564:2112  Proposal memory proposal = Proposal({\r... */\n      swap1\n      pop\n        /* \"contracts/BusinessConsensus2.sol\":2159:2167  proposal */\n      dup1\n        /* \"contracts/BusinessConsensus2.sol\":2127:2144  businessProposals */\n      0x00\n        /* \"contracts/BusinessConsensus2.sol\":2145:2155  _messageID */\n      dup9\n        /* \"contracts/BusinessConsensus2.sol\":2127:2156  businessProposals[_messageID] */\n      mload(0x40)\n      tag_184\n      swap2\n      swap1\n      tag_179\n      jump\t// in\n    tag_184:\n      swap1\n      dup2\n      mstore\n      0x20\n      add\n      mload(0x40)\n      dup1\n      swap2\n      sub\n      swap1\n      keccak256\n        /* \"contracts/BusinessConsensus2.sol\":2127:2167  businessProposals[_messageID] = proposal */\n      0x00\n      dup3\n      add\n      mload\n      dup2\n      0x00\n      add\n      swap1\n      dup1\n      mload\n      swap1\n      0x20\n      add\n      swap1\n      tag_185\n      swap3\n      swap2\n      swap1\n      tag_186\n      jump\t// in\n    tag_185:\n      pop\n      0x20\n      dup3\n      add\n      mload\n      dup2\n      0x01\n      add\n      exp(0x0100, 0x00)\n      dup2\n      sload\n      dup2\n      0xffffffffffffffffffffffffffffffffffffffff\n      mul\n      not\n      and\n      swap1\n      dup4\n      0xffffffffffffffffffffffffffffffffffffffff\n      and\n      mul\n      or\n      swap1\n      sstore\n      pop\n      0x40\n      dup3\n      add\n      mload\n      dup2\n      0x02\n      add\n      sstore\n      0x60\n      dup3\n      add\n      mload\n      dup2\n      0x03\n      add\n      sstore\n      0x80\n      dup3\n      add\n      mload\n      dup2\n      0x04\n      add\n      sstore\n      0xa0\n      dup3\n      add\n      mload\n      dup2\n      0x05\n      add\n      sstore\n      0xc0\n      dup3\n      add\n      mload\n      dup2\n      0x06\n      add\n      exp(0x0100, 0x00)\n      dup2\n      sload\n      dup2\n      0xff\n      mul\n      not\n      and\n      swap1\n      dup4\n      iszero\n      iszero\n      mul\n      or\n      swap1\n      sstore\n      pop\n      0xe0\n      dup3\n      add\n      mload\n      dup2\n      0x07\n      add\n      sstore\n      0x0100\n      dup3\n      add\n      mload\n      dup2\n      0x08\n      add\n      swap1\n      dup1\n      mload\n      swap1\n      0x20\n      add\n      swap1\n      tag_187\n      swap3\n      swap2\n      swap1\n      tag_186\n      jump\t// in\n    tag_187:\n      pop\n      0x0120\n      dup3\n      add\n      mload\n      dup2\n      0x09\n      add\n      swap1\n      dup1\n      mload\n      swap1\n      0x20\n      add\n      swap1\n      tag_188\n      swap3\n      swap2\n      swap1\n      tag_186\n      jump\t// in\n    tag_188:\n      pop\n      0x0140\n      dup3\n      add\n      mload\n      dup2\n      0x0a\n      add\n      sstore\n      0x0160\n      dup3\n      add\n      mload\n      dup2\n      0x0b\n      add\n      sstore\n      swap1\n      pop\n      pop\n        /* \"contracts/BusinessConsensus2.sol\":2211:2219  proposal */\n      dup1\n        /* \"contracts/BusinessConsensus2.sol\":2182:2199  businessProposals */\n      0x00\n        /* \"contracts/BusinessConsensus2.sol\":2200:2207  subject */\n      dup5\n        /* \"contracts/BusinessConsensus2.sol\":2182:2208  businessProposals[subject] */\n      mload(0x40)\n      tag_189\n      swap2\n      swap1\n      tag_179\n      jump\t// in\n    tag_189:\n      swap1\n      dup2\n      mstore\n      0x20\n      add\n      mload(0x40)\n      dup1\n      swap2\n      sub\n      swap1\n      keccak256\n        /* \"contracts/BusinessConsensus2.sol\":2182:2219  businessProposals[subject] = proposal */\n      0x00\n      dup3\n      add\n      mload\n      dup2\n      0x00\n      add\n      swap1\n      dup1\n      mload\n      swap1\n      0x20\n      add\n      swap1\n      tag_190\n      swap3\n      swap2\n      swap1\n      tag_186\n      jump\t// in\n    tag_190:\n      pop\n      0x20\n      dup3\n      add\n      mload\n      dup2\n      0x01\n      add\n      exp(0x0100, 0x00)\n      dup2\n      sload\n      dup2\n      0xffffffffffffffffffffffffffffffffffffffff\n      mul\n      not\n      and\n      swap1\n      dup4\n      0xffffffffffffffffffffffffffffffffffffffff\n      and\n      mul\n      or\n      swap1\n      sstore\n      pop\n      0x40\n      dup3\n      add\n      mload\n      dup2\n      0x02\n      add\n      sstore\n      0x60\n      dup3\n      add\n      mload\n      dup2\n      0x03\n      add\n      sstore\n      0x80\n      dup3\n      add\n      mload\n      dup2\n      0x04\n      add\n      sstore\n      0xa0\n      dup3\n      add\n      mload\n      dup2\n      0x05\n      add\n      sstore\n      0xc0\n      dup3\n      add\n      mload\n      dup2\n      0x06\n      add\n      exp(0x0100, 0x00)\n      dup2\n      sload\n      dup2\n      0xff\n      mul\n      not\n      and\n      swap1\n      dup4\n      iszero\n      iszero\n      mul\n      or\n      swap1\n      sstore\n      pop\n      0xe0\n      dup3\n      add\n      mload\n      dup2\n      0x07\n      add\n      sstore\n      0x0100\n      dup3\n      add\n      mload\n      dup2\n      0x08\n      add\n      swap1\n      dup1\n      mload\n      swap1\n      0x20\n      add\n      swap1\n      tag_191\n      swap3\n      swap2\n      swap1\n      tag_186\n      jump\t// in\n    tag_191:\n      pop\n      0x0120\n      dup3\n      add\n      mload\n      dup2\n      0x09\n      add\n      swap1\n      dup1\n      mload\n      swap1\n      0x20\n      add\n      swap1\n      tag_192\n      swap3\n      swap2\n      swap1\n      tag_186\n      jump\t// in\n    tag_192:\n      pop\n      0x0140\n      dup3\n      add\n      mload\n      dup2\n      0x0a\n      add\n      sstore\n      0x0160\n      dup3\n      add\n      mload\n      dup2\n      0x0b\n      add\n      sstore\n      swap1\n      pop\n      pop\n        /* \"contracts/BusinessConsensus2.sol\":1367:2227  {\r... */\n      pop\n        /* \"contracts/BusinessConsensus2.sol\":1199:2227  function createContract(string memory _messageID, uint256 expiry, uint256 requiredPercentage,bytes32 contents,string memory subject,string memory _messageDate) external{\r... */\n      pop\n      pop\n      pop\n      pop\n      pop\n      pop\n      jump\t// out\n        /* \"contracts/BusinessConsensus2.sol\":6617:7676  function Consensus(string calldata _messageID) external {\r... */\n    tag_56:\n        /* \"contracts/BusinessConsensus2.sol\":6711:6728  businessProposals */\n      0x00\n        /* \"contracts/BusinessConsensus2.sol\":6729:6739  _messageID */\n      dup3\n      dup3\n        /* \"contracts/BusinessConsensus2.sol\":6711:6740  businessProposals[_messageID] */\n      mload(0x40)\n      tag_194\n      swap3\n      swap2\n      swap1\n      tag_102\n      jump\t// in\n    tag_194:\n      swap1\n      dup2\n      mstore\n      0x20\n      add\n      mload(0x40)\n      dup1\n      swap2\n      sub\n      swap1\n      keccak256\n        /* \"contracts/BusinessConsensus2.sol\":6711:6751  businessProposals[_messageID].expiryDate */\n      0x03\n      add\n      sload\n        /* \"contracts/BusinessConsensus2.sol\":6692:6707  block.timestamp */\n      timestamp\n        /* \"contracts/BusinessConsensus2.sol\":6692:6751  block.timestamp >= businessProposals[_messageID].expiryDate */\n      lt\n      iszero\n        /* \"contracts/BusinessConsensus2.sol\":6684:6788  require(block.timestamp >= businessProposals[_messageID].expiryDate, \"Verdict has not been reached yet\") */\n      tag_195\n      jumpi\n      mload(0x40)\n      0x08c379a000000000000000000000000000000000000000000000000000000000\n      dup2\n      mstore\n      0x04\n      add\n      tag_196\n      swap1\n      tag_144\n      jump\t// in\n    tag_196:\n      mload(0x40)\n      dup1\n      swap2\n      sub\n      swap1\n      revert\n    tag_195:\n        /* \"contracts/BusinessConsensus2.sol\":6851:6856  false */\n      0x00\n        /* \"contracts/BusinessConsensus2.sol\":6807:6856  businessProposals[_messageID].isCompiled == false */\n      iszero\n      iszero\n        /* \"contracts/BusinessConsensus2.sol\":6807:6824  businessProposals */\n      0x00\n        /* \"contracts/BusinessConsensus2.sol\":6825:6835  _messageID */\n      dup4\n      dup4\n        /* \"contracts/BusinessConsensus2.sol\":6807:6836  businessProposals[_messageID] */\n      mload(0x40)\n      tag_197\n      swap3\n      swap2\n      swap1\n      tag_102\n      jump\t// in\n    tag_197:\n      swap1\n      dup2\n      mstore\n      0x20\n      add\n      mload(0x40)\n      dup1\n      swap2\n      sub\n      swap1\n      keccak256\n        /* \"contracts/BusinessConsensus2.sol\":6807:6847  businessProposals[_messageID].isCompiled */\n      0x06\n      add\n      0x00\n      swap1\n      sload\n      swap1\n      0x0100\n      exp\n      swap1\n      div\n      0xff\n      and\n        /* \"contracts/BusinessConsensus2.sol\":6807:6856  businessProposals[_messageID].isCompiled == false */\n      iszero\n      iszero\n      eq\n        /* \"contracts/BusinessConsensus2.sol\":6799:6898  require(businessProposals[_messageID].isCompiled == false, \"Consensus has already been calculated\") */\n      tag_198\n      jumpi\n      mload(0x40)\n      0x08c379a000000000000000000000000000000000000000000000000000000000\n      dup2\n      mstore\n      0x04\n      add\n      tag_199\n      swap1\n      tag_200\n      jump\t// in\n    tag_199:\n      mload(0x40)\n      dup1\n      swap2\n      sub\n      swap1\n      revert\n    tag_198:\n        /* \"contracts/BusinessConsensus2.sol\":6931:6948  businessProposals */\n      0x00\n        /* \"contracts/BusinessConsensus2.sol\":6949:6959  _messageID */\n      dup3\n      dup3\n        /* \"contracts/BusinessConsensus2.sol\":6931:6960  businessProposals[_messageID] */\n      mload(0x40)\n      tag_201\n      swap3\n      swap2\n      swap1\n      tag_102\n      jump\t// in\n    tag_201:\n      swap1\n      dup2\n      mstore\n      0x20\n      add\n      mload(0x40)\n      dup1\n      swap2\n      sub\n      swap1\n      keccak256\n        /* \"contracts/BusinessConsensus2.sol\":6931:6970  businessProposals[_messageID].initiator */\n      0x01\n      add\n      0x00\n      swap1\n      sload\n      swap1\n      0x0100\n      exp\n      swap1\n      div\n      0xffffffffffffffffffffffffffffffffffffffff\n      and\n        /* \"contracts/BusinessConsensus2.sol\":6917:6970  msg.sender == businessProposals[_messageID].initiator */\n      0xffffffffffffffffffffffffffffffffffffffff\n      and\n        /* \"contracts/BusinessConsensus2.sol\":6917:6927  msg.sender */\n      caller\n        /* \"contracts/BusinessConsensus2.sol\":6917:6970  msg.sender == businessProposals[_messageID].initiator */\n      0xffffffffffffffffffffffffffffffffffffffff\n      and\n      eq\n        /* \"contracts/BusinessConsensus2.sol\":6917:7034  msg.sender == businessProposals[_messageID].initiator || voter_maps[_messageID][msg.sender].recipient != address(0x0) */\n      dup1\n      tag_202\n      jumpi\n      pop\n        /* \"contracts/BusinessConsensus2.sol\":7030:7033  0x0 */\n      0x00\n        /* \"contracts/BusinessConsensus2.sol\":6974:7034  voter_maps[_messageID][msg.sender].recipient != address(0x0) */\n      0xffffffffffffffffffffffffffffffffffffffff\n      and\n        /* \"contracts/BusinessConsensus2.sol\":6974:6984  voter_maps */\n      0x01\n        /* \"contracts/BusinessConsensus2.sol\":6985:6995  _messageID */\n      dup4\n      dup4\n        /* \"contracts/BusinessConsensus2.sol\":6974:6996  voter_maps[_messageID] */\n      mload(0x40)\n      tag_203\n      swap3\n      swap2\n      swap1\n      tag_102\n      jump\t// in\n    tag_203:\n      swap1\n      dup2\n      mstore\n      0x20\n      add\n      mload(0x40)\n      dup1\n      swap2\n      sub\n      swap1\n      keccak256\n        /* \"contracts/BusinessConsensus2.sol\":6974:7008  voter_maps[_messageID][msg.sender] */\n      0x00\n        /* \"contracts/BusinessConsensus2.sol\":6997:7007  msg.sender */\n      caller\n        /* \"contracts/BusinessConsensus2.sol\":6974:7008  voter_maps[_messageID][msg.sender] */\n      0xffffffffffffffffffffffffffffffffffffffff\n      and\n      0xffffffffffffffffffffffffffffffffffffffff\n      and\n      dup2\n      mstore\n      0x20\n      add\n      swap1\n      dup2\n      mstore\n      0x20\n      add\n      0x00\n      keccak256\n        /* \"contracts/BusinessConsensus2.sol\":6974:7018  voter_maps[_messageID][msg.sender].recipient */\n      0x00\n      add\n      0x02\n      swap1\n      sload\n      swap1\n      0x0100\n      exp\n      swap1\n      div\n      0xffffffffffffffffffffffffffffffffffffffff\n      and\n        /* \"contracts/BusinessConsensus2.sol\":6974:7034  voter_maps[_messageID][msg.sender].recipient != address(0x0) */\n      0xffffffffffffffffffffffffffffffffffffffff\n      and\n      eq\n      iszero\n        /* \"contracts/BusinessConsensus2.sol\":6917:7034  msg.sender == businessProposals[_messageID].initiator || voter_maps[_messageID][msg.sender].recipient != address(0x0) */\n    tag_202:\n        /* \"contracts/BusinessConsensus2.sol\":6909:7077  require(msg.sender == businessProposals[_messageID].initiator || voter_maps[_messageID][msg.sender].recipient != address(0x0), \"You aren't authorize to compile Bundle\") */\n      tag_204\n      jumpi\n      mload(0x40)\n      0x08c379a000000000000000000000000000000000000000000000000000000000\n      dup2\n      mstore\n      0x04\n      add\n      tag_205\n      swap1\n      tag_206\n      jump\t// in\n    tag_205:\n      mload(0x40)\n      dup1\n      swap2\n      sub\n      swap1\n      revert\n    tag_204:\n        /* \"contracts/BusinessConsensus2.sol\":7088:7117  uint256 AccumulatedPercentage */\n      0x00\n        /* \"contracts/BusinessConsensus2.sol\":7189:7192  100 */\n      0x64\n        /* \"contracts/BusinessConsensus2.sol\":7164:7168  keys */\n      0x03\n        /* \"contracts/BusinessConsensus2.sol\":7169:7179  _messageID */\n      dup5\n      dup5\n        /* \"contracts/BusinessConsensus2.sol\":7164:7180  keys[_messageID] */\n      mload(0x40)\n      tag_207\n      swap3\n      swap2\n      swap1\n      tag_102\n      jump\t// in\n    tag_207:\n      swap1\n      dup2\n      mstore\n      0x20\n      add\n      mload(0x40)\n      dup1\n      swap2\n      sub\n      swap1\n      keccak256\n        /* \"contracts/BusinessConsensus2.sol\":7164:7187  keys[_messageID].length */\n      dup1\n      sload\n      swap1\n      pop\n        /* \"contracts/BusinessConsensus2.sol\":7121:7138  businessProposals */\n      0x00\n        /* \"contracts/BusinessConsensus2.sol\":7139:7149  _messageID */\n      dup6\n      dup6\n        /* \"contracts/BusinessConsensus2.sol\":7121:7150  businessProposals[_messageID] */\n      mload(0x40)\n      tag_208\n      swap3\n      swap2\n      swap1\n      tag_102\n      jump\t// in\n    tag_208:\n      swap1\n      dup2\n      mstore\n      0x20\n      add\n      mload(0x40)\n      dup1\n      swap2\n      sub\n      swap1\n      keccak256\n        /* \"contracts/BusinessConsensus2.sol\":7121:7163  businessProposals[_messageID].numApprovals */\n      0x05\n      add\n      sload\n        /* \"contracts/BusinessConsensus2.sol\":7121:7187  businessProposals[_messageID].numApprovals/keys[_messageID].length */\n      tag_209\n      swap2\n      swap1\n      tag_210\n      jump\t// in\n    tag_209:\n        /* \"contracts/BusinessConsensus2.sol\":7120:7192  (businessProposals[_messageID].numApprovals/keys[_messageID].length)*100 */\n      tag_211\n      swap2\n      swap1\n      tag_212\n      jump\t// in\n    tag_211:\n        /* \"contracts/BusinessConsensus2.sol\":7088:7192  uint256 AccumulatedPercentage = (businessProposals[_messageID].numApprovals/keys[_messageID].length)*100 */\n      swap1\n      pop\n        /* \"contracts/BusinessConsensus2.sol\":7231:7248  businessProposals */\n      0x00\n        /* \"contracts/BusinessConsensus2.sol\":7249:7259  _messageID */\n      dup4\n      dup4\n        /* \"contracts/BusinessConsensus2.sol\":7231:7260  businessProposals[_messageID] */\n      mload(0x40)\n      tag_213\n      swap3\n      swap2\n      swap1\n      tag_102\n      jump\t// in\n    tag_213:\n      swap1\n      dup2\n      mstore\n      0x20\n      add\n      mload(0x40)\n      dup1\n      swap2\n      sub\n      swap1\n      keccak256\n        /* \"contracts/BusinessConsensus2.sol\":7231:7280  businessProposals[_messageID].BusinessRequirement */\n      0x04\n      add\n      sload\n        /* \"contracts/BusinessConsensus2.sol\":7206:7227  AccumulatedPercentage */\n      dup2\n        /* \"contracts/BusinessConsensus2.sol\":7206:7280  AccumulatedPercentage >= businessProposals[_messageID].BusinessRequirement */\n      lt\n        /* \"contracts/BusinessConsensus2.sol\":7203:7363  if(AccumulatedPercentage >= businessProposals[_messageID].BusinessRequirement){\r... */\n      tag_214\n      jumpi\n        /* \"contracts/BusinessConsensus2.sol\":7296:7351  businessProposals[_messageID].finalVerdict = \"Accepted\" */\n      0x4163636570746564000000000000000000000000000000000000000000000000\n        /* \"contracts/BusinessConsensus2.sol\":7296:7313  businessProposals */\n      0x00\n        /* \"contracts/BusinessConsensus2.sol\":7314:7324  _messageID */\n      dup5\n      dup5\n        /* \"contracts/BusinessConsensus2.sol\":7296:7325  businessProposals[_messageID] */\n      mload(0x40)\n      tag_215\n      swap3\n      swap2\n      swap1\n      tag_102\n      jump\t// in\n    tag_215:\n      swap1\n      dup2\n      mstore\n      0x20\n      add\n      mload(0x40)\n      dup1\n      swap2\n      sub\n      swap1\n      keccak256\n        /* \"contracts/BusinessConsensus2.sol\":7296:7338  businessProposals[_messageID].finalVerdict */\n      0x07\n      add\n        /* \"contracts/BusinessConsensus2.sol\":7296:7351  businessProposals[_messageID].finalVerdict = \"Accepted\" */\n      dup2\n      swap1\n      sstore\n      pop\n        /* \"contracts/BusinessConsensus2.sol\":7203:7363  if(AccumulatedPercentage >= businessProposals[_messageID].BusinessRequirement){\r... */\n    tag_214:\n        /* \"contracts/BusinessConsensus2.sol\":7377:7384  uint8 i */\n      0x00\n        /* \"contracts/BusinessConsensus2.sol\":7373:7611  for(uint8 i=0; i< keys[_messageID].length; i++){\r... */\n    tag_216:\n        /* \"contracts/BusinessConsensus2.sol\":7391:7395  keys */\n      0x03\n        /* \"contracts/BusinessConsensus2.sol\":7396:7406  _messageID */\n      dup5\n      dup5\n        /* \"contracts/BusinessConsensus2.sol\":7391:7407  keys[_messageID] */\n      mload(0x40)\n      tag_219\n      swap3\n      swap2\n      swap1\n      tag_102\n      jump\t// in\n    tag_219:\n      swap1\n      dup2\n      mstore\n      0x20\n      add\n      mload(0x40)\n      dup1\n      swap2\n      sub\n      swap1\n      keccak256\n        /* \"contracts/BusinessConsensus2.sol\":7391:7414  keys[_messageID].length */\n      dup1\n      sload\n      swap1\n      pop\n        /* \"contracts/BusinessConsensus2.sol\":7388:7389  i */\n      dup2\n        /* \"contracts/BusinessConsensus2.sol\":7388:7414  i< keys[_messageID].length */\n      0xff\n      and\n      lt\n        /* \"contracts/BusinessConsensus2.sol\":7373:7611  for(uint8 i=0; i< keys[_messageID].length; i++){\r... */\n      iszero\n      tag_217\n      jumpi\n        /* \"contracts/BusinessConsensus2.sol\":7491:7496  false */\n      0x00\n        /* \"contracts/BusinessConsensus2.sol\":7438:7496  voter_maps[_messageID][keys[_messageID][i]].voted == false */\n      iszero\n      iszero\n        /* \"contracts/BusinessConsensus2.sol\":7438:7448  voter_maps */\n      0x01\n        /* \"contracts/BusinessConsensus2.sol\":7449:7459  _messageID */\n      dup6\n      dup6\n        /* \"contracts/BusinessConsensus2.sol\":7438:7460  voter_maps[_messageID] */\n      mload(0x40)\n      tag_220\n      swap3\n      swap2\n      swap1\n      tag_102\n      jump\t// in\n    tag_220:\n      swap1\n      dup2\n      mstore\n      0x20\n      add\n      mload(0x40)\n      dup1\n      swap2\n      sub\n      swap1\n      keccak256\n        /* \"contracts/BusinessConsensus2.sol\":7438:7481  voter_maps[_messageID][keys[_messageID][i]] */\n      0x00\n        /* \"contracts/BusinessConsensus2.sol\":7461:7465  keys */\n      0x03\n        /* \"contracts/BusinessConsensus2.sol\":7466:7476  _messageID */\n      dup8\n      dup8\n        /* \"contracts/BusinessConsensus2.sol\":7461:7477  keys[_messageID] */\n      mload(0x40)\n      tag_221\n      swap3\n      swap2\n      swap1\n      tag_102\n      jump\t// in\n    tag_221:\n      swap1\n      dup2\n      mstore\n      0x20\n      add\n      mload(0x40)\n      dup1\n      swap2\n      sub\n      swap1\n      keccak256\n        /* \"contracts/BusinessConsensus2.sol\":7478:7479  i */\n      dup5\n        /* \"contracts/BusinessConsensus2.sol\":7461:7480  keys[_messageID][i] */\n      0xff\n      and\n      dup2\n      sload\n      dup2\n      lt\n      tag_222\n      jumpi\n      tag_223\n      tag_224\n      jump\t// in\n    tag_223:\n    tag_222:\n      swap1\n      0x00\n      mstore\n      keccak256(0x00, 0x20)\n      add\n      0x00\n      swap1\n      sload\n      swap1\n      0x0100\n      exp\n      swap1\n      div\n      0xffffffffffffffffffffffffffffffffffffffff\n      and\n        /* \"contracts/BusinessConsensus2.sol\":7438:7481  voter_maps[_messageID][keys[_messageID][i]] */\n      0xffffffffffffffffffffffffffffffffffffffff\n      and\n      0xffffffffffffffffffffffffffffffffffffffff\n      and\n      dup2\n      mstore\n      0x20\n      add\n      swap1\n      dup2\n      mstore\n      0x20\n      add\n      0x00\n      keccak256\n        /* \"contracts/BusinessConsensus2.sol\":7438:7487  voter_maps[_messageID][keys[_messageID][i]].voted */\n      0x00\n      add\n      0x00\n      swap1\n      sload\n      swap1\n      0x0100\n      exp\n      swap1\n      div\n      0xff\n      and\n        /* \"contracts/BusinessConsensus2.sol\":7438:7496  voter_maps[_messageID][keys[_messageID][i]].voted == false */\n      iszero\n      iszero\n      eq\n        /* \"contracts/BusinessConsensus2.sol\":7435:7600  if(voter_maps[_messageID][keys[_messageID][i]].voted == false){\r... */\n      iszero\n      tag_226\n      jumpi\n        /* \"contracts/BusinessConsensus2.sol\":7516:7522  Voters */\n      0x02\n        /* \"contracts/BusinessConsensus2.sol\":7523:7533  _messageID */\n      dup5\n      dup5\n        /* \"contracts/BusinessConsensus2.sol\":7516:7534  Voters[_messageID] */\n      mload(0x40)\n      tag_227\n      swap3\n      swap2\n      swap1\n      tag_102\n      jump\t// in\n    tag_227:\n      swap1\n      dup2\n      mstore\n      0x20\n      add\n      mload(0x40)\n      dup1\n      swap2\n      sub\n      swap1\n      keccak256\n        /* \"contracts/BusinessConsensus2.sol\":7540:7550  voter_maps */\n      0x01\n        /* \"contracts/BusinessConsensus2.sol\":7551:7561  _messageID */\n      dup6\n      dup6\n        /* \"contracts/BusinessConsensus2.sol\":7540:7562  voter_maps[_messageID] */\n      mload(0x40)\n      tag_228\n      swap3\n      swap2\n      swap1\n      tag_102\n      jump\t// in\n    tag_228:\n      swap1\n      dup2\n      mstore\n      0x20\n      add\n      mload(0x40)\n      dup1\n      swap2\n      sub\n      swap1\n      keccak256\n        /* \"contracts/BusinessConsensus2.sol\":7540:7583  voter_maps[_messageID][keys[_messageID][i]] */\n      0x00\n        /* \"contracts/BusinessConsensus2.sol\":7563:7567  keys */\n      0x03\n        /* \"contracts/BusinessConsensus2.sol\":7568:7578  _messageID */\n      dup8\n      dup8\n        /* \"contracts/BusinessConsensus2.sol\":7563:7579  keys[_messageID] */\n      mload(0x40)\n      tag_229\n      swap3\n      swap2\n      swap1\n      tag_102\n      jump\t// in\n    tag_229:\n      swap1\n      dup2\n      mstore\n      0x20\n      add\n      mload(0x40)\n      dup1\n      swap2\n      sub\n      swap1\n      keccak256\n        /* \"contracts/BusinessConsensus2.sol\":7580:7581  i */\n      dup5\n        /* \"contracts/BusinessConsensus2.sol\":7563:7582  keys[_messageID][i] */\n      0xff\n      and\n      dup2\n      sload\n      dup2\n      lt\n      tag_230\n      jumpi\n      tag_231\n      tag_224\n      jump\t// in\n    tag_231:\n    tag_230:\n      swap1\n      0x00\n      mstore\n      keccak256(0x00, 0x20)\n      add\n      0x00\n      swap1\n      sload\n      swap1\n      0x0100\n      exp\n      swap1\n      div\n      0xffffffffffffffffffffffffffffffffffffffff\n      and\n        /* \"contracts/BusinessConsensus2.sol\":7540:7583  voter_maps[_messageID][keys[_messageID][i]] */\n      0xffffffffffffffffffffffffffffffffffffffff\n      and\n      0xffffffffffffffffffffffffffffffffffffffff\n      and\n      dup2\n      mstore\n      0x20\n      add\n      swap1\n      dup2\n      mstore\n      0x20\n      add\n      0x00\n      keccak256\n        /* \"contracts/BusinessConsensus2.sol\":7516:7584  Voters[_messageID].push(voter_maps[_messageID][keys[_messageID][i]]) */\n      swap1\n      dup1\n      0x01\n      dup2\n      sload\n      add\n      dup1\n      dup3\n      sstore\n      dup1\n      swap2\n      pop\n      pop\n      0x01\n      swap1\n      sub\n      swap1\n      0x00\n      mstore\n      keccak256(0x00, 0x20)\n      add\n      0x00\n      swap1\n      swap2\n      swap1\n      swap2\n      swap1\n      swap2\n      pop\n      0x00\n      dup3\n      add\n      0x00\n      swap1\n      sload\n      swap1\n      0x0100\n      exp\n      swap1\n      div\n      0xff\n      and\n      dup2\n      0x00\n      add\n      exp(0x0100, 0x00)\n      dup2\n      sload\n      dup2\n      0xff\n      mul\n      not\n      and\n      swap1\n      dup4\n      iszero\n      iszero\n      mul\n      or\n      swap1\n      sstore\n      pop\n      0x00\n      dup3\n      add\n      0x01\n      swap1\n      sload\n      swap1\n      0x0100\n      exp\n      swap1\n      div\n      0xff\n      and\n      dup2\n      0x00\n      add\n      exp(0x0100, 0x01)\n      dup2\n      sload\n      dup2\n      0xff\n      mul\n      not\n      and\n      swap1\n      dup4\n      iszero\n      iszero\n      mul\n      or\n      swap1\n      sstore\n      pop\n      0x00\n      dup3\n      add\n      0x02\n      swap1\n      sload\n      swap1\n      0x0100\n      exp\n      swap1\n      div\n      0xffffffffffffffffffffffffffffffffffffffff\n      and\n      dup2\n      0x00\n      add\n      exp(0x0100, 0x02)\n      dup2\n      sload\n      dup2\n      0xffffffffffffffffffffffffffffffffffffffff\n      mul\n      not\n      and\n      swap1\n      dup4\n      0xffffffffffffffffffffffffffffffffffffffff\n      and\n      mul\n      or\n      swap1\n      sstore\n      pop\n      pop\n      pop\n        /* \"contracts/BusinessConsensus2.sol\":7435:7600  if(voter_maps[_messageID][keys[_messageID][i]].voted == false){\r... */\n    tag_226:\n        /* \"contracts/BusinessConsensus2.sol\":7416:7419  i++ */\n      dup1\n      dup1\n      tag_234\n      swap1\n      tag_235\n      jump\t// in\n    tag_234:\n      swap2\n      pop\n      pop\n        /* \"contracts/BusinessConsensus2.sol\":7373:7611  for(uint8 i=0; i< keys[_messageID].length; i++){\r... */\n      jump(tag_216)\n    tag_217:\n      pop\n        /* \"contracts/BusinessConsensus2.sol\":7664:7668  true */\n      0x01\n        /* \"contracts/BusinessConsensus2.sol\":7621:7638  businessProposals */\n      0x00\n        /* \"contracts/BusinessConsensus2.sol\":7639:7649  _messageID */\n      dup5\n      dup5\n        /* \"contracts/BusinessConsensus2.sol\":7621:7650  businessProposals[_messageID] */\n      mload(0x40)\n      tag_236\n      swap3\n      swap2\n      swap1\n      tag_102\n      jump\t// in\n    tag_236:\n      swap1\n      dup2\n      mstore\n      0x20\n      add\n      mload(0x40)\n      dup1\n      swap2\n      sub\n      swap1\n      keccak256\n        /* \"contracts/BusinessConsensus2.sol\":7621:7661  businessProposals[_messageID].isCompiled */\n      0x06\n      add\n      0x00\n        /* \"contracts/BusinessConsensus2.sol\":7621:7668  businessProposals[_messageID].isCompiled = true */\n      0x0100\n      exp\n      dup2\n      sload\n      dup2\n      0xff\n      mul\n      not\n      and\n      swap1\n      dup4\n      iszero\n      iszero\n      mul\n      or\n      swap1\n      sstore\n      pop\n        /* \"contracts/BusinessConsensus2.sol\":6673:7676  {\r... */\n      pop\n        /* \"contracts/BusinessConsensus2.sol\":6617:7676  function Consensus(string calldata _messageID) external {\r... */\n      pop\n      pop\n      jump\t// out\n        /* \"contracts/BusinessConsensus2.sol\":1103:1141  mapping(string=>Voter[]) public Voters */\n    tag_59:\n      0x02\n      dup3\n      dup1\n      mload\n      0x20\n      dup2\n      add\n      dup3\n      add\n      dup1\n      mload\n      dup5\n      dup3\n      mstore\n      0x20\n      dup4\n      add\n      0x20\n      dup6\n      add\n      keccak256\n      dup2\n      dup4\n      mstore\n      dup1\n      swap6\n      pop\n      pop\n      pop\n      pop\n      pop\n      pop\n      dup2\n      dup2\n      sload\n      dup2\n      lt\n      tag_237\n      jumpi\n      0x00\n      dup1\n      revert\n    tag_237:\n      swap1\n      0x00\n      mstore\n      keccak256(0x00, 0x20)\n      add\n      0x00\n      swap2\n      pop\n      swap2\n      pop\n      pop\n      dup1\n      0x00\n      add\n      0x00\n      swap1\n      sload\n      swap1\n      0x0100\n      exp\n      swap1\n      div\n      0xff\n      and\n      swap1\n      dup1\n      0x00\n      add\n      0x01\n      swap1\n      sload\n      swap1\n      0x0100\n      exp\n      swap1\n      div\n      0xff\n      and\n      swap1\n      dup1\n      0x00\n      add\n      0x02\n      swap1\n      sload\n      swap1\n      0x0100\n      exp\n      swap1\n      div\n      0xffffffffffffffffffffffffffffffffffffffff\n      and\n      swap1\n      pop\n      dup4\n      jump\t// out\n        /* \"contracts/BusinessConsensus2.sol\":2535:3445  function checkConsistency(string memory _subject, uint256 _businessRequirement, uint256 _expiryLength, bytes32 _contents) public view returns(bool, bool, bool){\r... */\n    tag_64:\n        /* \"contracts/BusinessConsensus2.sol\":2677:2681  bool */\n      0x00\n        /* \"contracts/BusinessConsensus2.sol\":2683:2687  bool */\n      dup1\n        /* \"contracts/BusinessConsensus2.sol\":2689:2693  bool */\n      0x00\n        /* \"contracts/BusinessConsensus2.sol\":2727:2744  businessProposals */\n      dup1\n        /* \"contracts/BusinessConsensus2.sol\":2745:2753  _subject */\n      dup8\n        /* \"contracts/BusinessConsensus2.sol\":2727:2754  businessProposals[_subject] */\n      mload(0x40)\n      tag_240\n      swap2\n      swap1\n      tag_179\n      jump\t// in\n    tag_240:\n      swap1\n      dup2\n      mstore\n      0x20\n      add\n      mload(0x40)\n      dup1\n      swap2\n      sub\n      swap1\n      keccak256\n        /* \"contracts/BusinessConsensus2.sol\":2727:2764  businessProposals[_subject].initiator */\n      0x01\n      add\n      0x00\n      swap1\n      sload\n      swap1\n      0x0100\n      exp\n      swap1\n      div\n      0xffffffffffffffffffffffffffffffffffffffff\n      and\n        /* \"contracts/BusinessConsensus2.sol\":2713:2764  msg.sender == businessProposals[_subject].initiator */\n      0xffffffffffffffffffffffffffffffffffffffff\n      and\n        /* \"contracts/BusinessConsensus2.sol\":2713:2723  msg.sender */\n      caller\n        /* \"contracts/BusinessConsensus2.sol\":2713:2764  msg.sender == businessProposals[_subject].initiator */\n      0xffffffffffffffffffffffffffffffffffffffff\n      and\n      eq\n        /* \"contracts/BusinessConsensus2.sol\":2705:2789  require(msg.sender == businessProposals[_subject].initiator, \"You aren't Initiator\") */\n      tag_241\n      jumpi\n      mload(0x40)\n      0x08c379a000000000000000000000000000000000000000000000000000000000\n      dup2\n      mstore\n      0x04\n      add\n      tag_242\n      swap1\n      tag_243\n      jump\t// in\n    tag_242:\n      mload(0x40)\n      dup1\n      swap2\n      sub\n      swap1\n      revert\n    tag_241:\n        /* \"contracts/BusinessConsensus2.sol\":2800:2811  bool value1 */\n      0x00\n        /* \"contracts/BusinessConsensus2.sol\":2814:2818  true */\n      0x01\n        /* \"contracts/BusinessConsensus2.sol\":2800:2818  bool value1 = true */\n      swap1\n      pop\n        /* \"contracts/BusinessConsensus2.sol\":2829:2840  bool value2 */\n      0x00\n        /* \"contracts/BusinessConsensus2.sol\":2843:2847  true */\n      0x01\n        /* \"contracts/BusinessConsensus2.sol\":2829:2847  bool value2 = true */\n      swap1\n      pop\n        /* \"contracts/BusinessConsensus2.sol\":2858:2869  bool value3 */\n      0x00\n        /* \"contracts/BusinessConsensus2.sol\":2872:2876  true */\n      0x01\n        /* \"contracts/BusinessConsensus2.sol\":2858:2876  bool value3 = true */\n      swap1\n      pop\n        /* \"contracts/BusinessConsensus2.sol\":2939:2940  0 */\n      0x00\n        /* \"contracts/BusinessConsensus2.sol\":2890:2941  businessProposals[_subject].initiator == address(0) */\n      0xffffffffffffffffffffffffffffffffffffffff\n      and\n        /* \"contracts/BusinessConsensus2.sol\":2890:2907  businessProposals */\n      0x00\n        /* \"contracts/BusinessConsensus2.sol\":2908:2916  _subject */\n      dup12\n        /* \"contracts/BusinessConsensus2.sol\":2890:2917  businessProposals[_subject] */\n      mload(0x40)\n      tag_244\n      swap2\n      swap1\n      tag_179\n      jump\t// in\n    tag_244:\n      swap1\n      dup2\n      mstore\n      0x20\n      add\n      mload(0x40)\n      dup1\n      swap2\n      sub\n      swap1\n      keccak256\n        /* \"contracts/BusinessConsensus2.sol\":2890:2927  businessProposals[_subject].initiator */\n      0x01\n      add\n      0x00\n      swap1\n      sload\n      swap1\n      0x0100\n      exp\n      swap1\n      div\n      0xffffffffffffffffffffffffffffffffffffffff\n      and\n        /* \"contracts/BusinessConsensus2.sol\":2890:2941  businessProposals[_subject].initiator == address(0) */\n      0xffffffffffffffffffffffffffffffffffffffff\n      and\n      eq\n        /* \"contracts/BusinessConsensus2.sol\":2887:3438  if(businessProposals[_subject].initiator == address(0)){\r... */\n      iszero\n      tag_245\n      jumpi\n        /* \"contracts/BusinessConsensus2.sol\":2965:2969  true */\n      0x01\n        /* \"contracts/BusinessConsensus2.sol\":2971:2975  true */\n      dup1\n        /* \"contracts/BusinessConsensus2.sol\":2977:2981  true */\n      0x01\n        /* \"contracts/BusinessConsensus2.sol\":2957:2982  return (true, true, true) */\n      swap6\n      pop\n      swap6\n      pop\n      swap6\n      pop\n      pop\n      pop\n      pop\n      jump(tag_239)\n        /* \"contracts/BusinessConsensus2.sol\":2887:3438  if(businessProposals[_subject].initiator == address(0)){\r... */\n    tag_245:\n        /* \"contracts/BusinessConsensus2.sol\":3050:3067  businessProposals */\n      0x00\n        /* \"contracts/BusinessConsensus2.sol\":3068:3076  _subject */\n      dup11\n        /* \"contracts/BusinessConsensus2.sol\":3050:3077  businessProposals[_subject] */\n      mload(0x40)\n      tag_247\n      swap2\n      swap1\n      tag_179\n      jump\t// in\n    tag_247:\n      swap1\n      dup2\n      mstore\n      0x20\n      add\n      mload(0x40)\n      dup1\n      swap2\n      sub\n      swap1\n      keccak256\n        /* \"contracts/BusinessConsensus2.sol\":3050:3097  businessProposals[_subject].BusinessRequirement */\n      0x04\n      add\n      sload\n        /* \"contracts/BusinessConsensus2.sol\":3026:3046  _businessRequirement */\n      dup10\n        /* \"contracts/BusinessConsensus2.sol\":3026:3097  _businessRequirement != businessProposals[_subject].BusinessRequirement */\n      eq\n        /* \"contracts/BusinessConsensus2.sol\":3023:3147  if(_businessRequirement != businessProposals[_subject].BusinessRequirement){\r... */\n      tag_248\n      jumpi\n        /* \"contracts/BusinessConsensus2.sol\":3126:3131  false */\n      0x00\n        /* \"contracts/BusinessConsensus2.sol\":3117:3131  value1 = false */\n      swap3\n      pop\n        /* \"contracts/BusinessConsensus2.sol\":3023:3147  if(_businessRequirement != businessProposals[_subject].BusinessRequirement){\r... */\n    tag_248:\n        /* \"contracts/BusinessConsensus2.sol\":3177:3194  businessProposals */\n      0x00\n        /* \"contracts/BusinessConsensus2.sol\":3195:3203  _subject */\n      dup11\n        /* \"contracts/BusinessConsensus2.sol\":3177:3204  businessProposals[_subject] */\n      mload(0x40)\n      tag_249\n      swap2\n      swap1\n      tag_179\n      jump\t// in\n    tag_249:\n      swap1\n      dup2\n      mstore\n      0x20\n      add\n      mload(0x40)\n      dup1\n      swap2\n      sub\n      swap1\n      keccak256\n        /* \"contracts/BusinessConsensus2.sol\":3177:3213  businessProposals[_subject].contents */\n      0x0a\n      add\n      sload\n        /* \"contracts/BusinessConsensus2.sol\":3164:3173  _contents */\n      dup8\n        /* \"contracts/BusinessConsensus2.sol\":3164:3213  _contents != businessProposals[_subject].contents */\n      eq\n        /* \"contracts/BusinessConsensus2.sol\":3161:3263  if(_contents != businessProposals[_subject].contents){\r... */\n      tag_250\n      jumpi\n        /* \"contracts/BusinessConsensus2.sol\":3242:3247  false */\n      0x00\n        /* \"contracts/BusinessConsensus2.sol\":3233:3247  value2 = false */\n      swap2\n      pop\n        /* \"contracts/BusinessConsensus2.sol\":3161:3263  if(_contents != businessProposals[_subject].contents){\r... */\n    tag_250:\n        /* \"contracts/BusinessConsensus2.sol\":3324:3337  _expiryLength */\n      dup8\n        /* \"contracts/BusinessConsensus2.sol\":3280:3297  businessProposals */\n      0x00\n        /* \"contracts/BusinessConsensus2.sol\":3298:3306  _subject */\n      dup12\n        /* \"contracts/BusinessConsensus2.sol\":3280:3307  businessProposals[_subject] */\n      mload(0x40)\n      tag_251\n      swap2\n      swap1\n      tag_179\n      jump\t// in\n    tag_251:\n      swap1\n      dup2\n      mstore\n      0x20\n      add\n      mload(0x40)\n      dup1\n      swap2\n      sub\n      swap1\n      keccak256\n        /* \"contracts/BusinessConsensus2.sol\":3280:3320  businessProposals[_subject].expiryLength */\n      0x0b\n      add\n      sload\n        /* \"contracts/BusinessConsensus2.sol\":3280:3337  businessProposals[_subject].expiryLength != _expiryLength */\n      eq\n        /* \"contracts/BusinessConsensus2.sol\":3277:3387  if(businessProposals[_subject].expiryLength != _expiryLength){\r... */\n      tag_252\n      jumpi\n        /* \"contracts/BusinessConsensus2.sol\":3366:3371  false */\n      0x00\n        /* \"contracts/BusinessConsensus2.sol\":3357:3371  value3 = false */\n      swap1\n      pop\n        /* \"contracts/BusinessConsensus2.sol\":3277:3387  if(businessProposals[_subject].expiryLength != _expiryLength){\r... */\n    tag_252:\n        /* \"contracts/BusinessConsensus2.sol\":3405:3411  value1 */\n      dup3\n        /* \"contracts/BusinessConsensus2.sol\":3412:3418  value2 */\n      dup3\n        /* \"contracts/BusinessConsensus2.sol\":3419:3425  value3 */\n      dup3\n        /* \"contracts/BusinessConsensus2.sol\":3397:3426  return (value1,value2,value3) */\n      swap6\n      pop\n      swap6\n      pop\n      swap6\n      pop\n      pop\n      pop\n      pop\n        /* \"contracts/BusinessConsensus2.sol\":2535:3445  function checkConsistency(string memory _subject, uint256 _businessRequirement, uint256 _expiryLength, bytes32 _contents) public view returns(bool, bool, bool){\r... */\n    tag_239:\n      swap5\n      pop\n      swap5\n      pop\n      swap5\n      swap2\n      pop\n      pop\n      jump\t// out\n        /* \"contracts/BusinessConsensus2.sol\":2233:2380  function getValues(string calldata _messageID) public view returns (string memory){\r... */\n    tag_69:\n        /* \"contracts/BusinessConsensus2.sol\":2301:2314  string memory */\n      0x60\n        /* \"contracts/BusinessConsensus2.sol\":2333:2350  businessProposals */\n      0x00\n        /* \"contracts/BusinessConsensus2.sol\":2351:2361  _messageID */\n      dup4\n      dup4\n        /* \"contracts/BusinessConsensus2.sol\":2333:2362  businessProposals[_messageID] */\n      mload(0x40)\n      tag_254\n      swap3\n      swap2\n      swap1\n      tag_102\n      jump\t// in\n    tag_254:\n      swap1\n      dup2\n      mstore\n      0x20\n      add\n      mload(0x40)\n      dup1\n      swap2\n      sub\n      swap1\n      keccak256\n        /* \"contracts/BusinessConsensus2.sol\":2333:2372  businessProposals[_messageID].messageID */\n      0x00\n      add\n        /* \"contracts/BusinessConsensus2.sol\":2326:2372  return businessProposals[_messageID].messageID */\n      dup1\n      sload\n      tag_255\n      swap1\n      tag_85\n      jump\t// in\n    tag_255:\n      dup1\n      0x1f\n      add\n      0x20\n      dup1\n      swap2\n      div\n      mul\n      0x20\n      add\n      mload(0x40)\n      swap1\n      dup2\n      add\n      0x40\n      mstore\n      dup1\n      swap3\n      swap2\n      swap1\n      dup2\n      dup2\n      mstore\n      0x20\n      add\n      dup3\n      dup1\n      sload\n      tag_256\n      swap1\n      tag_85\n      jump\t// in\n    tag_256:\n      dup1\n      iszero\n      tag_257\n      jumpi\n      dup1\n      0x1f\n      lt\n      tag_258\n      jumpi\n      0x0100\n      dup1\n      dup4\n      sload\n      div\n      mul\n      dup4\n      mstore\n      swap2\n      0x20\n      add\n      swap2\n      jump(tag_257)\n    tag_258:\n      dup3\n      add\n      swap2\n      swap1\n      0x00\n      mstore\n      keccak256(0x00, 0x20)\n      swap1\n    tag_259:\n      dup2\n      sload\n      dup2\n      mstore\n      swap1\n      0x01\n      add\n      swap1\n      0x20\n      add\n      dup1\n      dup4\n      gt\n      tag_259\n      jumpi\n      dup3\n      swap1\n      sub\n      0x1f\n      and\n      dup3\n      add\n      swap2\n    tag_257:\n      pop\n      pop\n      pop\n      pop\n      pop\n      swap1\n      pop\n        /* \"contracts/BusinessConsensus2.sol\":2233:2380  function getValues(string calldata _messageID) public view returns (string memory){\r... */\n      swap3\n      swap2\n      pop\n      pop\n      jump\t// out\n        /* \"contracts/BusinessConsensus2.sol\":3451:3587  function getIsCreated(string calldata subject) public view returns (Proposal memory){\r... */\n    tag_74:\n        /* \"contracts/BusinessConsensus2.sol\":3519:3534  Proposal memory */\n      tag_260\n      tag_261\n      jump\t// in\n    tag_260:\n        /* \"contracts/BusinessConsensus2.sol\":3553:3570  businessProposals */\n      0x00\n        /* \"contracts/BusinessConsensus2.sol\":3571:3578  subject */\n      dup4\n      dup4\n        /* \"contracts/BusinessConsensus2.sol\":3553:3579  businessProposals[subject] */\n      mload(0x40)\n      tag_263\n      swap3\n      swap2\n      swap1\n      tag_102\n      jump\t// in\n    tag_263:\n      swap1\n      dup2\n      mstore\n      0x20\n      add\n      mload(0x40)\n      dup1\n      swap2\n      sub\n      swap1\n      keccak256\n        /* \"contracts/BusinessConsensus2.sol\":3546:3579  return businessProposals[subject] */\n      mload(0x40)\n      dup1\n      0x0180\n      add\n      0x40\n      mstore\n      swap1\n      dup2\n      0x00\n      dup3\n      add\n      dup1\n      sload\n      tag_264\n      swap1\n      tag_85\n      jump\t// in\n    tag_264:\n      dup1\n      0x1f\n      add\n      0x20\n      dup1\n      swap2\n      div\n      mul\n      0x20\n      add\n      mload(0x40)\n      swap1\n      dup2\n      add\n      0x40\n      mstore\n      dup1\n      swap3\n      swap2\n      swap1\n      dup2\n      dup2\n      mstore\n      0x20\n      add\n      dup3\n      dup1\n      sload\n      tag_265\n      swap1\n      tag_85\n      jump\t// in\n    tag_265:\n      dup1\n      iszero\n      tag_266\n      jumpi\n      dup1\n      0x1f\n      lt\n      tag_267\n      jumpi\n      0x0100\n      dup1\n      dup4\n      sload\n      div\n      mul\n      dup4\n      mstore\n      swap2\n      0x20\n      add\n      swap2\n      jump(tag_266)\n    tag_267:\n      dup3\n      add\n      swap2\n      swap1\n      0x00\n      mstore\n      keccak256(0x00, 0x20)\n      swap1\n    tag_268:\n      dup2\n      sload\n      dup2\n      mstore\n      swap1\n      0x01\n      add\n      swap1\n      0x20\n      add\n      dup1\n      dup4\n      gt\n      tag_268\n      jumpi\n      dup3\n      swap1\n      sub\n      0x1f\n      and\n      dup3\n      add\n      swap2\n    tag_266:\n      pop\n      pop\n      pop\n      pop\n      pop\n      dup2\n      mstore\n      0x20\n      add\n      0x01\n      dup3\n      add\n      0x00\n      swap1\n      sload\n      swap1\n      0x0100\n      exp\n      swap1\n      div\n      0xffffffffffffffffffffffffffffffffffffffff\n      and\n      0xffffffffffffffffffffffffffffffffffffffff\n      and\n      0xffffffffffffffffffffffffffffffffffffffff\n      and\n      dup2\n      mstore\n      0x20\n      add\n      0x02\n      dup3\n      add\n      sload\n      dup2\n      mstore\n      0x20\n      add\n      0x03\n      dup3\n      add\n      sload\n      dup2\n      mstore\n      0x20\n      add\n      0x04\n      dup3\n      add\n      sload\n      dup2\n      mstore\n      0x20\n      add\n      0x05\n      dup3\n      add\n      sload\n      dup2\n      mstore\n      0x20\n      add\n      0x06\n      dup3\n      add\n      0x00\n      swap1\n      sload\n      swap1\n      0x0100\n      exp\n      swap1\n      div\n      0xff\n      and\n      iszero\n      iszero\n      iszero\n      iszero\n      dup2\n      mstore\n      0x20\n      add\n      0x07\n      dup3\n      add\n      sload\n      dup2\n      mstore\n      0x20\n      add\n      0x08\n      dup3\n      add\n      dup1\n      sload\n      tag_269\n      swap1\n      tag_85\n      jump\t// in\n    tag_269:\n      dup1\n      0x1f\n      add\n      0x20\n      dup1\n      swap2\n      div\n      mul\n      0x20\n      add\n      mload(0x40)\n      swap1\n      dup2\n      add\n      0x40\n      mstore\n      dup1\n      swap3\n      swap2\n      swap1\n      dup2\n      dup2\n      mstore\n      0x20\n      add\n      dup3\n      dup1\n      sload\n      tag_270\n      swap1\n      tag_85\n      jump\t// in\n    tag_270:\n      dup1\n      iszero\n      tag_271\n      jumpi\n      dup1\n      0x1f\n      lt\n      tag_272\n      jumpi\n      0x0100\n      dup1\n      dup4\n      sload\n      div\n      mul\n      dup4\n      mstore\n      swap2\n      0x20\n      add\n      swap2\n      jump(tag_271)\n    tag_272:\n      dup3\n      add\n      swap2\n      swap1\n      0x00\n      mstore\n      keccak256(0x00, 0x20)\n      swap1\n    tag_273:\n      dup2\n      sload\n      dup2\n      mstore\n      swap1\n      0x01\n      add\n      swap1\n      0x20\n      add\n      dup1\n      dup4\n      gt\n      tag_273\n      jumpi\n      dup3\n      swap1\n      sub\n      0x1f\n      and\n      dup3\n      add\n      swap2\n    tag_271:\n      pop\n      pop\n      pop\n      pop\n      pop\n      dup2\n      mstore\n      0x20\n      add\n      0x09\n      dup3\n      add\n      dup1\n      sload\n      tag_274\n      swap1\n      tag_85\n      jump\t// in\n    tag_274:\n      dup1\n      0x1f\n      add\n      0x20\n      dup1\n      swap2\n      div\n      mul\n      0x20\n      add\n      mload(0x40)\n      swap1\n      dup2\n      add\n      0x40\n      mstore\n      dup1\n      swap3\n      swap2\n      swap1\n      dup2\n      dup2\n      mstore\n      0x20\n      add\n      dup3\n      dup1\n      sload\n      tag_275\n      swap1\n      tag_85\n      jump\t// in\n    tag_275:\n      dup1\n      iszero\n      tag_276\n      jumpi\n      dup1\n      0x1f\n      lt\n      tag_277\n      jumpi\n      0x0100\n      dup1\n      dup4\n      sload\n      div\n      mul\n      dup4\n      mstore\n      swap2\n      0x20\n      add\n      swap2\n      jump(tag_276)\n    tag_277:\n      dup3\n      add\n      swap2\n      swap1\n      0x00\n      mstore\n      keccak256(0x00, 0x20)\n      swap1\n    tag_278:\n      dup2\n      sload\n      dup2\n      mstore\n      swap1\n      0x01\n      add\n      swap1\n      0x20\n      add\n      dup1\n      dup4\n      gt\n      tag_278\n      jumpi\n      dup3\n      swap1\n      sub\n      0x1f\n      and\n      dup3\n      add\n      swap2\n    tag_276:\n      pop\n      pop\n      pop\n      pop\n      pop\n      dup2\n      mstore\n      0x20\n      add\n      0x0a\n      dup3\n      add\n      sload\n      dup2\n      mstore\n      0x20\n      add\n      0x0b\n      dup3\n      add\n      sload\n      dup2\n      mstore\n      pop\n      pop\n      swap1\n      pop\n        /* \"contracts/BusinessConsensus2.sol\":3451:3587  function getIsCreated(string calldata subject) public view returns (Proposal memory){\r... */\n      swap3\n      swap2\n      pop\n      pop\n      jump\t// out\n        /* \"contracts/BusinessConsensus2.sol\":2386:2529  function getIsCompiled(string calldata _messageID) public view returns (bool){\r... */\n    tag_79:\n        /* \"contracts/BusinessConsensus2.sol\":2458:2462  bool */\n      0x00\n        /* \"contracts/BusinessConsensus2.sol\":2481:2498  businessProposals */\n      dup1\n        /* \"contracts/BusinessConsensus2.sol\":2499:2509  _messageID */\n      dup4\n      dup4\n        /* \"contracts/BusinessConsensus2.sol\":2481:2510  businessProposals[_messageID] */\n      mload(0x40)\n      tag_280\n      swap3\n      swap2\n      swap1\n      tag_102\n      jump\t// in\n    tag_280:\n      swap1\n      dup2\n      mstore\n      0x20\n      add\n      mload(0x40)\n      dup1\n      swap2\n      sub\n      swap1\n      keccak256\n        /* \"contracts/BusinessConsensus2.sol\":2481:2521  businessProposals[_messageID].isCompiled */\n      0x06\n      add\n      0x00\n      swap1\n      sload\n      swap1\n      0x0100\n      exp\n      swap1\n      div\n      0xff\n      and\n        /* \"contracts/BusinessConsensus2.sol\":2474:2521  return businessProposals[_messageID].isCompiled */\n      swap1\n      pop\n        /* \"contracts/BusinessConsensus2.sol\":2386:2529  function getIsCompiled(string calldata _messageID) public view returns (bool){\r... */\n      swap3\n      swap2\n      pop\n      pop\n      jump\t// out\n    tag_186:\n      dup3\n      dup1\n      sload\n      tag_281\n      swap1\n      tag_85\n      jump\t// in\n    tag_281:\n      swap1\n      0x00\n      mstore\n      keccak256(0x00, 0x20)\n      swap1\n      0x1f\n      add\n      0x20\n      swap1\n      div\n      dup2\n      add\n      swap3\n      dup3\n      tag_283\n      jumpi\n      0x00\n      dup6\n      sstore\n      jump(tag_282)\n    tag_283:\n      dup3\n      0x1f\n      lt\n      tag_284\n      jumpi\n      dup1\n      mload\n      not(0xff)\n      and\n      dup4\n      dup1\n      add\n      or\n      dup6\n      sstore\n      jump(tag_282)\n    tag_284:\n      dup3\n      dup1\n      add\n      0x01\n      add\n      dup6\n      sstore\n      dup3\n      iszero\n      tag_282\n      jumpi\n      swap2\n      dup3\n      add\n    tag_285:\n      dup3\n      dup2\n      gt\n      iszero\n      tag_286\n      jumpi\n      dup3\n      mload\n      dup3\n      sstore\n      swap2\n      0x20\n      add\n      swap2\n      swap1\n      0x01\n      add\n      swap1\n      jump(tag_285)\n    tag_286:\n    tag_282:\n      pop\n      swap1\n      pop\n      tag_287\n      swap2\n      swap1\n      tag_288\n      jump\t// in\n    tag_287:\n      pop\n      swap1\n      jump\t// out\n    tag_261:\n      mload(0x40)\n      dup1\n      0x0180\n      add\n      0x40\n      mstore\n      dup1\n      0x60\n      dup2\n      mstore\n      0x20\n      add\n      and(0xffffffffffffffffffffffffffffffffffffffff, 0x00)\n      dup2\n      mstore\n      0x20\n      add\n      0x00\n      dup2\n      mstore\n      0x20\n      add\n      0x00\n      dup2\n      mstore\n      0x20\n      add\n      0x00\n      dup2\n      mstore\n      0x20\n      add\n      0x00\n      dup2\n      mstore\n      0x20\n      add\n      iszero(iszero(0x00))\n      dup2\n      mstore\n      0x20\n      add\n      0x00\n      dup1\n      not\n      and\n      dup2\n      mstore\n      0x20\n      add\n      0x60\n      dup2\n      mstore\n      0x20\n      add\n      0x60\n      dup2\n      mstore\n      0x20\n      add\n      0x00\n      dup1\n      not\n      and\n      dup2\n      mstore\n      0x20\n      add\n      0x00\n      dup2\n      mstore\n      pop\n      swap1\n      jump\t// out\n    tag_288:\n    tag_289:\n      dup1\n      dup3\n      gt\n      iszero\n      tag_290\n      jumpi\n      0x00\n      dup2\n      0x00\n      swap1\n      sstore\n      pop\n      0x01\n      add\n      jump(tag_289)\n    tag_290:\n      pop\n      swap1\n      jump\t// out\n        /* \"#utility.yul\":7:419   */\n    tag_292:\n        /* \"#utility.yul\":85:90   */\n      0x00\n        /* \"#utility.yul\":110:176   */\n      tag_294\n        /* \"#utility.yul\":126:175   */\n      tag_295\n        /* \"#utility.yul\":168:174   */\n      dup5\n        /* \"#utility.yul\":126:175   */\n      tag_296\n      jump\t// in\n    tag_295:\n        /* \"#utility.yul\":110:176   */\n      tag_297\n      jump\t// in\n    tag_294:\n        /* \"#utility.yul\":101:176   */\n      swap1\n      pop\n        /* \"#utility.yul\":199:205   */\n      dup3\n        /* \"#utility.yul\":192:197   */\n      dup2\n        /* \"#utility.yul\":185:206   */\n      mstore\n        /* \"#utility.yul\":237:241   */\n      0x20\n        /* \"#utility.yul\":230:235   */\n      dup2\n        /* \"#utility.yul\":226:242   */\n      add\n        /* \"#utility.yul\":275:278   */\n      dup5\n        /* \"#utility.yul\":266:272   */\n      dup5\n        /* \"#utility.yul\":261:264   */\n      dup5\n        /* \"#utility.yul\":257:273   */\n      add\n        /* \"#utility.yul\":254:279   */\n      gt\n        /* \"#utility.yul\":251:363   */\n      iszero\n      tag_298\n      jumpi\n        /* \"#utility.yul\":282:361   */\n      tag_299\n      tag_300\n      jump\t// in\n    tag_299:\n        /* \"#utility.yul\":251:363   */\n    tag_298:\n        /* \"#utility.yul\":372:413   */\n      tag_301\n        /* \"#utility.yul\":406:412   */\n      dup5\n        /* \"#utility.yul\":401:404   */\n      dup3\n        /* \"#utility.yul\":396:399   */\n      dup6\n        /* \"#utility.yul\":372:413   */\n      tag_302\n      jump\t// in\n    tag_301:\n        /* \"#utility.yul\":91:419   */\n      pop\n        /* \"#utility.yul\":7:419   */\n      swap4\n      swap3\n      pop\n      pop\n      pop\n      jump\t// out\n        /* \"#utility.yul\":425:564   */\n    tag_303:\n        /* \"#utility.yul\":471:476   */\n      0x00\n        /* \"#utility.yul\":509:515   */\n      dup2\n        /* \"#utility.yul\":496:516   */\n      calldataload\n        /* \"#utility.yul\":487:516   */\n      swap1\n      pop\n        /* \"#utility.yul\":525:558   */\n      tag_305\n        /* \"#utility.yul\":552:557   */\n      dup2\n        /* \"#utility.yul\":525:558   */\n      tag_306\n      jump\t// in\n    tag_305:\n        /* \"#utility.yul\":425:564   */\n      swap3\n      swap2\n      pop\n      pop\n      jump\t// out\n        /* \"#utility.yul\":570:709   */\n    tag_307:\n        /* \"#utility.yul\":616:621   */\n      0x00\n        /* \"#utility.yul\":654:660   */\n      dup2\n        /* \"#utility.yul\":641:661   */\n      calldataload\n        /* \"#utility.yul\":632:661   */\n      swap1\n      pop\n        /* \"#utility.yul\":670:703   */\n      tag_309\n        /* \"#utility.yul\":697:702   */\n      dup2\n        /* \"#utility.yul\":670:703   */\n      tag_310\n      jump\t// in\n    tag_309:\n        /* \"#utility.yul\":570:709   */\n      swap3\n      swap2\n      pop\n      pop\n      jump\t// out\n        /* \"#utility.yul\":729:1282   */\n    tag_311:\n        /* \"#utility.yul\":787:795   */\n      0x00\n        /* \"#utility.yul\":797:803   */\n      dup1\n        /* \"#utility.yul\":847:850   */\n      dup4\n        /* \"#utility.yul\":840:844   */\n      0x1f\n        /* \"#utility.yul\":832:838   */\n      dup5\n        /* \"#utility.yul\":828:845   */\n      add\n        /* \"#utility.yul\":824:851   */\n      slt\n        /* \"#utility.yul\":814:936   */\n      tag_313\n      jumpi\n        /* \"#utility.yul\":855:934   */\n      tag_314\n      tag_315\n      jump\t// in\n    tag_314:\n        /* \"#utility.yul\":814:936   */\n    tag_313:\n        /* \"#utility.yul\":968:974   */\n      dup3\n        /* \"#utility.yul\":955:975   */\n      calldataload\n        /* \"#utility.yul\":945:975   */\n      swap1\n      pop\n        /* \"#utility.yul\":998:1016   */\n      0xffffffffffffffff\n        /* \"#utility.yul\":990:996   */\n      dup2\n        /* \"#utility.yul\":987:1017   */\n      gt\n        /* \"#utility.yul\":984:1101   */\n      iszero\n      tag_316\n      jumpi\n        /* \"#utility.yul\":1020:1099   */\n      tag_317\n      tag_318\n      jump\t// in\n    tag_317:\n        /* \"#utility.yul\":984:1101   */\n    tag_316:\n        /* \"#utility.yul\":1134:1138   */\n      0x20\n        /* \"#utility.yul\":1126:1132   */\n      dup4\n        /* \"#utility.yul\":1122:1139   */\n      add\n        /* \"#utility.yul\":1110:1139   */\n      swap2\n      pop\n        /* \"#utility.yul\":1188:1191   */\n      dup4\n        /* \"#utility.yul\":1180:1184   */\n      0x01\n        /* \"#utility.yul\":1172:1178   */\n      dup3\n        /* \"#utility.yul\":1168:1185   */\n      mul\n        /* \"#utility.yul\":1158:1166   */\n      dup4\n        /* \"#utility.yul\":1154:1186   */\n      add\n        /* \"#utility.yul\":1151:1192   */\n      gt\n        /* \"#utility.yul\":1148:1276   */\n      iszero\n      tag_319\n      jumpi\n        /* \"#utility.yul\":1195:1274   */\n      tag_320\n      tag_321\n      jump\t// in\n    tag_320:\n        /* \"#utility.yul\":1148:1276   */\n    tag_319:\n        /* \"#utility.yul\":729:1282   */\n      swap3\n      pop\n      swap3\n      swap1\n      pop\n      jump\t// out\n        /* \"#utility.yul\":1302:1642   */\n    tag_322:\n        /* \"#utility.yul\":1358:1363   */\n      0x00\n        /* \"#utility.yul\":1407:1410   */\n      dup3\n        /* \"#utility.yul\":1400:1404   */\n      0x1f\n        /* \"#utility.yul\":1392:1398   */\n      dup4\n        /* \"#utility.yul\":1388:1405   */\n      add\n        /* \"#utility.yul\":1384:1411   */\n      slt\n        /* \"#utility.yul\":1374:1496   */\n      tag_324\n      jumpi\n        /* \"#utility.yul\":1415:1494   */\n      tag_325\n      tag_315\n      jump\t// in\n    tag_325:\n        /* \"#utility.yul\":1374:1496   */\n    tag_324:\n        /* \"#utility.yul\":1532:1538   */\n      dup2\n        /* \"#utility.yul\":1519:1539   */\n      calldataload\n        /* \"#utility.yul\":1557:1636   */\n      tag_326\n        /* \"#utility.yul\":1632:1635   */\n      dup5\n        /* \"#utility.yul\":1624:1630   */\n      dup3\n        /* \"#utility.yul\":1617:1621   */\n      0x20\n        /* \"#utility.yul\":1609:1615   */\n      dup7\n        /* \"#utility.yul\":1605:1622   */\n      add\n        /* \"#utility.yul\":1557:1636   */\n      tag_292\n      jump\t// in\n    tag_326:\n        /* \"#utility.yul\":1548:1636   */\n      swap2\n      pop\n        /* \"#utility.yul\":1364:1642   */\n      pop\n        /* \"#utility.yul\":1302:1642   */\n      swap3\n      swap2\n      pop\n      pop\n      jump\t// out\n        /* \"#utility.yul\":1648:1787   */\n    tag_327:\n        /* \"#utility.yul\":1694:1699   */\n      0x00\n        /* \"#utility.yul\":1732:1738   */\n      dup2\n        /* \"#utility.yul\":1719:1739   */\n      calldataload\n        /* \"#utility.yul\":1710:1739   */\n      swap1\n      pop\n        /* \"#utility.yul\":1748:1781   */\n      tag_329\n        /* \"#utility.yul\":1775:1780   */\n      dup2\n        /* \"#utility.yul\":1748:1781   */\n      tag_330\n      jump\t// in\n    tag_329:\n        /* \"#utility.yul\":1648:1787   */\n      swap3\n      swap2\n      pop\n      pop\n      jump\t// out\n        /* \"#utility.yul\":1793:2467   */\n    tag_48:\n        /* \"#utility.yul\":1873:1879   */\n      0x00\n        /* \"#utility.yul\":1881:1887   */\n      dup1\n        /* \"#utility.yul\":1889:1895   */\n      0x00\n        /* \"#utility.yul\":1938:1940   */\n      0x40\n        /* \"#utility.yul\":1926:1935   */\n      dup5\n        /* \"#utility.yul\":1917:1924   */\n      dup7\n        /* \"#utility.yul\":1913:1936   */\n      sub\n        /* \"#utility.yul\":1909:1941   */\n      slt\n        /* \"#utility.yul\":1906:2025   */\n      iszero\n      tag_332\n      jumpi\n        /* \"#utility.yul\":1944:2023   */\n      tag_333\n      tag_334\n      jump\t// in\n    tag_333:\n        /* \"#utility.yul\":1906:2025   */\n    tag_332:\n        /* \"#utility.yul\":2064:2065   */\n      0x00\n        /* \"#utility.yul\":2089:2142   */\n      tag_335\n        /* \"#utility.yul\":2134:2141   */\n      dup7\n        /* \"#utility.yul\":2125:2131   */\n      dup3\n        /* \"#utility.yul\":2114:2123   */\n      dup8\n        /* \"#utility.yul\":2110:2132   */\n      add\n        /* \"#utility.yul\":2089:2142   */\n      tag_303\n      jump\t// in\n    tag_335:\n        /* \"#utility.yul\":2079:2142   */\n      swap4\n      pop\n        /* \"#utility.yul\":2035:2152   */\n      pop\n        /* \"#utility.yul\":2219:2221   */\n      0x20\n        /* \"#utility.yul\":2208:2217   */\n      dup5\n        /* \"#utility.yul\":2204:2222   */\n      add\n        /* \"#utility.yul\":2191:2223   */\n      calldataload\n        /* \"#utility.yul\":2250:2268   */\n      0xffffffffffffffff\n        /* \"#utility.yul\":2242:2248   */\n      dup2\n        /* \"#utility.yul\":2239:2269   */\n      gt\n        /* \"#utility.yul\":2236:2353   */\n      iszero\n      tag_336\n      jumpi\n        /* \"#utility.yul\":2272:2351   */\n      tag_337\n      tag_338\n      jump\t// in\n    tag_337:\n        /* \"#utility.yul\":2236:2353   */\n    tag_336:\n        /* \"#utility.yul\":2385:2450   */\n      tag_339\n        /* \"#utility.yul\":2442:2449   */\n      dup7\n        /* \"#utility.yul\":2433:2439   */\n      dup3\n        /* \"#utility.yul\":2422:2431   */\n      dup8\n        /* \"#utility.yul\":2418:2440   */\n      add\n        /* \"#utility.yul\":2385:2450   */\n      tag_311\n      jump\t// in\n    tag_339:\n        /* \"#utility.yul\":2367:2450   */\n      swap3\n      pop\n      swap3\n      pop\n        /* \"#utility.yul\":2162:2460   */\n      pop\n        /* \"#utility.yul\":1793:2467   */\n      swap3\n      pop\n      swap3\n      pop\n      swap3\n      jump\t// out\n        /* \"#utility.yul\":2473:3002   */\n    tag_42:\n        /* \"#utility.yul\":2544:2550   */\n      0x00\n        /* \"#utility.yul\":2552:2558   */\n      dup1\n        /* \"#utility.yul\":2601:2603   */\n      0x20\n        /* \"#utility.yul\":2589:2598   */\n      dup4\n        /* \"#utility.yul\":2580:2587   */\n      dup6\n        /* \"#utility.yul\":2576:2599   */\n      sub\n        /* \"#utility.yul\":2572:2604   */\n      slt\n        /* \"#utility.yul\":2569:2688   */\n      iszero\n      tag_341\n      jumpi\n        /* \"#utility.yul\":2607:2686   */\n      tag_342\n      tag_334\n      jump\t// in\n    tag_342:\n        /* \"#utility.yul\":2569:2688   */\n    tag_341:\n        /* \"#utility.yul\":2755:2756   */\n      0x00\n        /* \"#utility.yul\":2744:2753   */\n      dup4\n        /* \"#utility.yul\":2740:2757   */\n      add\n        /* \"#utility.yul\":2727:2758   */\n      calldataload\n        /* \"#utility.yul\":2785:2803   */\n      0xffffffffffffffff\n        /* \"#utility.yul\":2777:2783   */\n      dup2\n        /* \"#utility.yul\":2774:2804   */\n      gt\n        /* \"#utility.yul\":2771:2888   */\n      iszero\n      tag_343\n      jumpi\n        /* \"#utility.yul\":2807:2886   */\n      tag_344\n      tag_338\n      jump\t// in\n    tag_344:\n        /* \"#utility.yul\":2771:2888   */\n    tag_343:\n        /* \"#utility.yul\":2920:2985   */\n      tag_345\n        /* \"#utility.yul\":2977:2984   */\n      dup6\n        /* \"#utility.yul\":2968:2974   */\n      dup3\n        /* \"#utility.yul\":2957:2966   */\n      dup7\n        /* \"#utility.yul\":2953:2975   */\n      add\n        /* \"#utility.yul\":2920:2985   */\n      tag_311\n      jump\t// in\n    tag_345:\n        /* \"#utility.yul\":2902:2985   */\n      swap3\n      pop\n      swap3\n      pop\n        /* \"#utility.yul\":2698:2995   */\n      pop\n        /* \"#utility.yul\":2473:3002   */\n      swap3\n      pop\n      swap3\n      swap1\n      pop\n      jump\t// out\n        /* \"#utility.yul\":3008:3517   */\n    tag_26:\n        /* \"#utility.yul\":3077:3083   */\n      0x00\n        /* \"#utility.yul\":3126:3128   */\n      0x20\n        /* \"#utility.yul\":3114:3123   */\n      dup3\n        /* \"#utility.yul\":3105:3112   */\n      dup5\n        /* \"#utility.yul\":3101:3124   */\n      sub\n        /* \"#utility.yul\":3097:3129   */\n      slt\n        /* \"#utility.yul\":3094:3213   */\n      iszero\n      tag_347\n      jumpi\n        /* \"#utility.yul\":3132:3211   */\n      tag_348\n      tag_334\n      jump\t// in\n    tag_348:\n        /* \"#utility.yul\":3094:3213   */\n    tag_347:\n        /* \"#utility.yul\":3280:3281   */\n      0x00\n        /* \"#utility.yul\":3269:3278   */\n      dup3\n        /* \"#utility.yul\":3265:3282   */\n      add\n        /* \"#utility.yul\":3252:3283   */\n      calldataload\n        /* \"#utility.yul\":3310:3328   */\n      0xffffffffffffffff\n        /* \"#utility.yul\":3302:3308   */\n      dup2\n        /* \"#utility.yul\":3299:3329   */\n      gt\n        /* \"#utility.yul\":3296:3413   */\n      iszero\n      tag_349\n      jumpi\n        /* \"#utility.yul\":3332:3411   */\n      tag_350\n      tag_338\n      jump\t// in\n    tag_350:\n        /* \"#utility.yul\":3296:3413   */\n    tag_349:\n        /* \"#utility.yul\":3437:3500   */\n      tag_351\n        /* \"#utility.yul\":3492:3499   */\n      dup5\n        /* \"#utility.yul\":3483:3489   */\n      dup3\n        /* \"#utility.yul\":3472:3481   */\n      dup6\n        /* \"#utility.yul\":3468:3490   */\n      add\n        /* \"#utility.yul\":3437:3500   */\n      tag_322\n      jump\t// in\n    tag_351:\n        /* \"#utility.yul\":3427:3500   */\n      swap2\n      pop\n        /* \"#utility.yul\":3223:3510   */\n      pop\n        /* \"#utility.yul\":3008:3517   */\n      swap3\n      swap2\n      pop\n      pop\n      jump\t// out\n        /* \"#utility.yul\":3523:4177   */\n    tag_36:\n        /* \"#utility.yul\":3601:3607   */\n      0x00\n        /* \"#utility.yul\":3609:3615   */\n      dup1\n        /* \"#utility.yul\":3658:3660   */\n      0x40\n        /* \"#utility.yul\":3646:3655   */\n      dup4\n        /* \"#utility.yul\":3637:3644   */\n      dup6\n        /* \"#utility.yul\":3633:3656   */\n      sub\n        /* \"#utility.yul\":3629:3661   */\n      slt\n        /* \"#utility.yul\":3626:3745   */\n      iszero\n      tag_353\n      jumpi\n        /* \"#utility.yul\":3664:3743   */\n      tag_354\n      tag_334\n      jump\t// in\n    tag_354:\n        /* \"#utility.yul\":3626:3745   */\n    tag_353:\n        /* \"#utility.yul\":3812:3813   */\n      0x00\n        /* \"#utility.yul\":3801:3810   */\n      dup4\n        /* \"#utility.yul\":3797:3814   */\n      add\n        /* \"#utility.yul\":3784:3815   */\n      calldataload\n        /* \"#utility.yul\":3842:3860   */\n      0xffffffffffffffff\n        /* \"#utility.yul\":3834:3840   */\n      dup2\n        /* \"#utility.yul\":3831:3861   */\n      gt\n        /* \"#utility.yul\":3828:3945   */\n      iszero\n      tag_355\n      jumpi\n        /* \"#utility.yul\":3864:3943   */\n      tag_356\n      tag_338\n      jump\t// in\n    tag_356:\n        /* \"#utility.yul\":3828:3945   */\n    tag_355:\n        /* \"#utility.yul\":3969:4032   */\n      tag_357\n        /* \"#utility.yul\":4024:4031   */\n      dup6\n        /* \"#utility.yul\":4015:4021   */\n      dup3\n        /* \"#utility.yul\":4004:4013   */\n      dup7\n        /* \"#utility.yul\":4000:4022   */\n      add\n        /* \"#utility.yul\":3969:4032   */\n      tag_322\n      jump\t// in\n    tag_357:\n        /* \"#utility.yul\":3959:4032   */\n      swap3\n      pop\n        /* \"#utility.yul\":3755:4042   */\n      pop\n        /* \"#utility.yul\":4081:4083   */\n      0x20\n        /* \"#utility.yul\":4107:4160   */\n      tag_358\n        /* \"#utility.yul\":4152:4159   */\n      dup6\n        /* \"#utility.yul\":4143:4149   */\n      dup3\n        /* \"#utility.yul\":4132:4141   */\n      dup7\n        /* \"#utility.yul\":4128:4150   */\n      add\n        /* \"#utility.yul\":4107:4160   */\n      tag_303\n      jump\t// in\n    tag_358:\n        /* \"#utility.yul\":4097:4160   */\n      swap2\n      pop\n        /* \"#utility.yul\":4052:4170   */\n      pop\n        /* \"#utility.yul\":3523:4177   */\n      swap3\n      pop\n      swap3\n      swap1\n      pop\n      jump\t// out\n        /* \"#utility.yul\":4183:5037   */\n    tag_32:\n        /* \"#utility.yul\":4273:4279   */\n      0x00\n        /* \"#utility.yul\":4281:4287   */\n      dup1\n        /* \"#utility.yul\":4289:4295   */\n      0x00\n        /* \"#utility.yul\":4338:4340   */\n      0x40\n        /* \"#utility.yul\":4326:4335   */\n      dup5\n        /* \"#utility.yul\":4317:4324   */\n      dup7\n        /* \"#utility.yul\":4313:4336   */\n      sub\n        /* \"#utility.yul\":4309:4341   */\n      slt\n        /* \"#utility.yul\":4306:4425   */\n      iszero\n      tag_360\n      jumpi\n        /* \"#utility.yul\":4344:4423   */\n      tag_361\n      tag_334\n      jump\t// in\n    tag_361:\n        /* \"#utility.yul\":4306:4425   */\n    tag_360:\n        /* \"#utility.yul\":4492:4493   */\n      0x00\n        /* \"#utility.yul\":4481:4490   */\n      dup5\n        /* \"#utility.yul\":4477:4494   */\n      add\n        /* \"#utility.yul\":4464:4495   */\n      calldataload\n        /* \"#utility.yul\":4522:4540   */\n      0xffffffffffffffff\n        /* \"#utility.yul\":4514:4520   */\n      dup2\n        /* \"#utility.yul\":4511:4541   */\n      gt\n        /* \"#utility.yul\":4508:4625   */\n      iszero\n      tag_362\n      jumpi\n        /* \"#utility.yul\":4544:4623   */\n      tag_363\n      tag_338\n      jump\t// in\n    tag_363:\n        /* \"#utility.yul\":4508:4625   */\n    tag_362:\n        /* \"#utility.yul\":4649:4712   */\n      tag_364\n        /* \"#utility.yul\":4704:4711   */\n      dup7\n        /* \"#utility.yul\":4695:4701   */\n      dup3\n        /* \"#utility.yul\":4684:4693   */\n      dup8\n        /* \"#utility.yul\":4680:4702   */\n      add\n        /* \"#utility.yul\":4649:4712   */\n      tag_322\n      jump\t// in\n    tag_364:\n        /* \"#utility.yul\":4639:4712   */\n      swap4\n      pop\n        /* \"#utility.yul\":4435:4722   */\n      pop\n        /* \"#utility.yul\":4789:4791   */\n      0x20\n        /* \"#utility.yul\":4778:4787   */\n      dup5\n        /* \"#utility.yul\":4774:4792   */\n      add\n        /* \"#utility.yul\":4761:4793   */\n      calldataload\n        /* \"#utility.yul\":4820:4838   */\n      0xffffffffffffffff\n        /* \"#utility.yul\":4812:4818   */\n      dup2\n        /* \"#utility.yul\":4809:4839   */\n      gt\n        /* \"#utility.yul\":4806:4923   */\n      iszero\n      tag_365\n      jumpi\n        /* \"#utility.yul\":4842:4921   */\n      tag_366\n      tag_338\n      jump\t// in\n    tag_366:\n        /* \"#utility.yul\":4806:4923   */\n    tag_365:\n        /* \"#utility.yul\":4955:5020   */\n      tag_367\n        /* \"#utility.yul\":5012:5019   */\n      dup7\n        /* \"#utility.yul\":5003:5009   */\n      dup3\n        /* \"#utility.yul\":4992:5001   */\n      dup8\n        /* \"#utility.yul\":4988:5010   */\n      add\n        /* \"#utility.yul\":4955:5020   */\n      tag_311\n      jump\t// in\n    tag_367:\n        /* \"#utility.yul\":4937:5020   */\n      swap3\n      pop\n      swap3\n      pop\n        /* \"#utility.yul\":4732:5030   */\n      pop\n        /* \"#utility.yul\":4183:5037   */\n      swap3\n      pop\n      swap3\n      pop\n      swap3\n      jump\t// out\n        /* \"#utility.yul\":5043:5697   */\n    tag_20:\n        /* \"#utility.yul\":5121:5127   */\n      0x00\n        /* \"#utility.yul\":5129:5135   */\n      dup1\n        /* \"#utility.yul\":5178:5180   */\n      0x40\n        /* \"#utility.yul\":5166:5175   */\n      dup4\n        /* \"#utility.yul\":5157:5164   */\n      dup6\n        /* \"#utility.yul\":5153:5176   */\n      sub\n        /* \"#utility.yul\":5149:5181   */\n      slt\n        /* \"#utility.yul\":5146:5265   */\n      iszero\n      tag_369\n      jumpi\n        /* \"#utility.yul\":5184:5263   */\n      tag_370\n      tag_334\n      jump\t// in\n    tag_370:\n        /* \"#utility.yul\":5146:5265   */\n    tag_369:\n        /* \"#utility.yul\":5332:5333   */\n      0x00\n        /* \"#utility.yul\":5321:5330   */\n      dup4\n        /* \"#utility.yul\":5317:5334   */\n      add\n        /* \"#utility.yul\":5304:5335   */\n      calldataload\n        /* \"#utility.yul\":5362:5380   */\n      0xffffffffffffffff\n        /* \"#utility.yul\":5354:5360   */\n      dup2\n        /* \"#utility.yul\":5351:5381   */\n      gt\n        /* \"#utility.yul\":5348:5465   */\n      iszero\n      tag_371\n      jumpi\n        /* \"#utility.yul\":5384:5463   */\n      tag_372\n      tag_338\n      jump\t// in\n    tag_372:\n        /* \"#utility.yul\":5348:5465   */\n    tag_371:\n        /* \"#utility.yul\":5489:5552   */\n      tag_373\n        /* \"#utility.yul\":5544:5551   */\n      dup6\n        /* \"#utility.yul\":5535:5541   */\n      dup3\n        /* \"#utility.yul\":5524:5533   */\n      dup7\n        /* \"#utility.yul\":5520:5542   */\n      add\n        /* \"#utility.yul\":5489:5552   */\n      tag_322\n      jump\t// in\n    tag_373:\n        /* \"#utility.yul\":5479:5552   */\n      swap3\n      pop\n        /* \"#utility.yul\":5275:5562   */\n      pop\n        /* \"#utility.yul\":5601:5603   */\n      0x20\n        /* \"#utility.yul\":5627:5680   */\n      tag_374\n        /* \"#utility.yul\":5672:5679   */\n      dup6\n        /* \"#utility.yul\":5663:5669   */\n      dup3\n        /* \"#utility.yul\":5652:5661   */\n      dup7\n        /* \"#utility.yul\":5648:5670   */\n      add\n        /* \"#utility.yul\":5627:5680   */\n      tag_327\n      jump\t// in\n    tag_374:\n        /* \"#utility.yul\":5617:5680   */\n      swap2\n      pop\n        /* \"#utility.yul\":5572:5690   */\n      pop\n        /* \"#utility.yul\":5043:5697   */\n      swap3\n      pop\n      swap3\n      swap1\n      pop\n      jump\t// out\n        /* \"#utility.yul\":5703:6648   */\n    tag_63:\n        /* \"#utility.yul\":5799:5805   */\n      0x00\n        /* \"#utility.yul\":5807:5813   */\n      dup1\n        /* \"#utility.yul\":5815:5821   */\n      0x00\n        /* \"#utility.yul\":5823:5829   */\n      dup1\n        /* \"#utility.yul\":5872:5875   */\n      0x80\n        /* \"#utility.yul\":5860:5869   */\n      dup6\n        /* \"#utility.yul\":5851:5858   */\n      dup8\n        /* \"#utility.yul\":5847:5870   */\n      sub\n        /* \"#utility.yul\":5843:5876   */\n      slt\n        /* \"#utility.yul\":5840:5960   */\n      iszero\n      tag_376\n      jumpi\n        /* \"#utility.yul\":5879:5958   */\n      tag_377\n      tag_334\n      jump\t// in\n    tag_377:\n        /* \"#utility.yul\":5840:5960   */\n    tag_376:\n        /* \"#utility.yul\":6027:6028   */\n      0x00\n        /* \"#utility.yul\":6016:6025   */\n      dup6\n        /* \"#utility.yul\":6012:6029   */\n      add\n        /* \"#utility.yul\":5999:6030   */\n      calldataload\n        /* \"#utility.yul\":6057:6075   */\n      0xffffffffffffffff\n        /* \"#utility.yul\":6049:6055   */\n      dup2\n        /* \"#utility.yul\":6046:6076   */\n      gt\n        /* \"#utility.yul\":6043:6160   */\n      iszero\n      tag_378\n      jumpi\n        /* \"#utility.yul\":6079:6158   */\n      tag_379\n      tag_338\n      jump\t// in\n    tag_379:\n        /* \"#utility.yul\":6043:6160   */\n    tag_378:\n        /* \"#utility.yul\":6184:6247   */\n      tag_380\n        /* \"#utility.yul\":6239:6246   */\n      dup8\n        /* \"#utility.yul\":6230:6236   */\n      dup3\n        /* \"#utility.yul\":6219:6228   */\n      dup9\n        /* \"#utility.yul\":6215:6237   */\n      add\n        /* \"#utility.yul\":6184:6247   */\n      tag_322\n      jump\t// in\n    tag_380:\n        /* \"#utility.yul\":6174:6247   */\n      swap5\n      pop\n        /* \"#utility.yul\":5970:6257   */\n      pop\n        /* \"#utility.yul\":6296:6298   */\n      0x20\n        /* \"#utility.yul\":6322:6375   */\n      tag_381\n        /* \"#utility.yul\":6367:6374   */\n      dup8\n        /* \"#utility.yul\":6358:6364   */\n      dup3\n        /* \"#utility.yul\":6347:6356   */\n      dup9\n        /* \"#utility.yul\":6343:6365   */\n      add\n        /* \"#utility.yul\":6322:6375   */\n      tag_327\n      jump\t// in\n    tag_381:\n        /* \"#utility.yul\":6312:6375   */\n      swap4\n      pop\n        /* \"#utility.yul\":6267:6385   */\n      pop\n        /* \"#utility.yul\":6424:6426   */\n      0x40\n        /* \"#utility.yul\":6450:6503   */\n      tag_382\n        /* \"#utility.yul\":6495:6502   */\n      dup8\n        /* \"#utility.yul\":6486:6492   */\n      dup3\n        /* \"#utility.yul\":6475:6484   */\n      dup9\n        /* \"#utility.yul\":6471:6493   */\n      add\n        /* \"#utility.yul\":6450:6503   */\n      tag_327\n      jump\t// in\n    tag_382:\n        /* \"#utility.yul\":6440:6503   */\n      swap3\n      pop\n        /* \"#utility.yul\":6395:6513   */\n      pop\n        /* \"#utility.yul\":6552:6554   */\n      0x60\n        /* \"#utility.yul\":6578:6631   */\n      tag_383\n        /* \"#utility.yul\":6623:6630   */\n      dup8\n        /* \"#utility.yul\":6614:6620   */\n      dup3\n        /* \"#utility.yul\":6603:6612   */\n      dup9\n        /* \"#utility.yul\":6599:6621   */\n      add\n        /* \"#utility.yul\":6578:6631   */\n      tag_307\n      jump\t// in\n    tag_383:\n        /* \"#utility.yul\":6568:6631   */\n      swap2\n      pop\n        /* \"#utility.yul\":6523:6641   */\n      pop\n        /* \"#utility.yul\":5703:6648   */\n      swap3\n      swap6\n      swap2\n      swap5\n      pop\n      swap3\n      pop\n      jump\t// out\n        /* \"#utility.yul\":6654:8251   */\n    tag_52:\n        /* \"#utility.yul\":6788:6794   */\n      0x00\n        /* \"#utility.yul\":6796:6802   */\n      dup1\n        /* \"#utility.yul\":6804:6810   */\n      0x00\n        /* \"#utility.yul\":6812:6818   */\n      dup1\n        /* \"#utility.yul\":6820:6826   */\n      0x00\n        /* \"#utility.yul\":6828:6834   */\n      dup1\n        /* \"#utility.yul\":6877:6880   */\n      0xc0\n        /* \"#utility.yul\":6865:6874   */\n      dup8\n        /* \"#utility.yul\":6856:6863   */\n      dup10\n        /* \"#utility.yul\":6852:6875   */\n      sub\n        /* \"#utility.yul\":6848:6881   */\n      slt\n        /* \"#utility.yul\":6845:6965   */\n      iszero\n      tag_385\n      jumpi\n        /* \"#utility.yul\":6884:6963   */\n      tag_386\n      tag_334\n      jump\t// in\n    tag_386:\n        /* \"#utility.yul\":6845:6965   */\n    tag_385:\n        /* \"#utility.yul\":7032:7033   */\n      0x00\n        /* \"#utility.yul\":7021:7030   */\n      dup8\n        /* \"#utility.yul\":7017:7034   */\n      add\n        /* \"#utility.yul\":7004:7035   */\n      calldataload\n        /* \"#utility.yul\":7062:7080   */\n      0xffffffffffffffff\n        /* \"#utility.yul\":7054:7060   */\n      dup2\n        /* \"#utility.yul\":7051:7081   */\n      gt\n        /* \"#utility.yul\":7048:7165   */\n      iszero\n      tag_387\n      jumpi\n        /* \"#utility.yul\":7084:7163   */\n      tag_388\n      tag_338\n      jump\t// in\n    tag_388:\n        /* \"#utility.yul\":7048:7165   */\n    tag_387:\n        /* \"#utility.yul\":7189:7252   */\n      tag_389\n        /* \"#utility.yul\":7244:7251   */\n      dup10\n        /* \"#utility.yul\":7235:7241   */\n      dup3\n        /* \"#utility.yul\":7224:7233   */\n      dup11\n        /* \"#utility.yul\":7220:7242   */\n      add\n        /* \"#utility.yul\":7189:7252   */\n      tag_322\n      jump\t// in\n    tag_389:\n        /* \"#utility.yul\":7179:7252   */\n      swap7\n      pop\n        /* \"#utility.yul\":6975:7262   */\n      pop\n        /* \"#utility.yul\":7301:7303   */\n      0x20\n        /* \"#utility.yul\":7327:7380   */\n      tag_390\n        /* \"#utility.yul\":7372:7379   */\n      dup10\n        /* \"#utility.yul\":7363:7369   */\n      dup3\n        /* \"#utility.yul\":7352:7361   */\n      dup11\n        /* \"#utility.yul\":7348:7370   */\n      add\n        /* \"#utility.yul\":7327:7380   */\n      tag_327\n      jump\t// in\n    tag_390:\n        /* \"#utility.yul\":7317:7380   */\n      swap6\n      pop\n        /* \"#utility.yul\":7272:7390   */\n      pop\n        /* \"#utility.yul\":7429:7431   */\n      0x40\n        /* \"#utility.yul\":7455:7508   */\n      tag_391\n        /* \"#utility.yul\":7500:7507   */\n      dup10\n        /* \"#utility.yul\":7491:7497   */\n      dup3\n        /* \"#utility.yul\":7480:7489   */\n      dup11\n        /* \"#utility.yul\":7476:7498   */\n      add\n        /* \"#utility.yul\":7455:7508   */\n      tag_327\n      jump\t// in\n    tag_391:\n        /* \"#utility.yul\":7445:7508   */\n      swap5\n      pop\n        /* \"#utility.yul\":7400:7518   */\n      pop\n        /* \"#utility.yul\":7557:7559   */\n      0x60\n        /* \"#utility.yul\":7583:7636   */\n      tag_392\n        /* \"#utility.yul\":7628:7635   */\n      dup10\n        /* \"#utility.yul\":7619:7625   */\n      dup3\n        /* \"#utility.yul\":7608:7617   */\n      dup11\n        /* \"#utility.yul\":7604:7626   */\n      add\n        /* \"#utility.yul\":7583:7636   */\n      tag_307\n      jump\t// in\n    tag_392:\n        /* \"#utility.yul\":7573:7636   */\n      swap4\n      pop\n        /* \"#utility.yul\":7528:7646   */\n      pop\n        /* \"#utility.yul\":7713:7716   */\n      0x80\n        /* \"#utility.yul\":7702:7711   */\n      dup8\n        /* \"#utility.yul\":7698:7717   */\n      add\n        /* \"#utility.yul\":7685:7718   */\n      calldataload\n        /* \"#utility.yul\":7745:7763   */\n      0xffffffffffffffff\n        /* \"#utility.yul\":7737:7743   */\n      dup2\n        /* \"#utility.yul\":7734:7764   */\n      gt\n        /* \"#utility.yul\":7731:7848   */\n      iszero\n      tag_393\n      jumpi\n        /* \"#utility.yul\":7767:7846   */\n      tag_394\n      tag_338\n      jump\t// in\n    tag_394:\n        /* \"#utility.yul\":7731:7848   */\n    tag_393:\n        /* \"#utility.yul\":7872:7935   */\n      tag_395\n        /* \"#utility.yul\":7927:7934   */\n      dup10\n        /* \"#utility.yul\":7918:7924   */\n      dup3\n        /* \"#utility.yul\":7907:7916   */\n      dup11\n        /* \"#utility.yul\":7903:7925   */\n      add\n        /* \"#utility.yul\":7872:7935   */\n      tag_322\n      jump\t// in\n    tag_395:\n        /* \"#utility.yul\":7862:7935   */\n      swap3\n      pop\n        /* \"#utility.yul\":7656:7945   */\n      pop\n        /* \"#utility.yul\":8012:8015   */\n      0xa0\n        /* \"#utility.yul\":8001:8010   */\n      dup8\n        /* \"#utility.yul\":7997:8016   */\n      add\n        /* \"#utility.yul\":7984:8017   */\n      calldataload\n        /* \"#utility.yul\":8044:8062   */\n      0xffffffffffffffff\n        /* \"#utility.yul\":8036:8042   */\n      dup2\n        /* \"#utility.yul\":8033:8063   */\n      gt\n        /* \"#utility.yul\":8030:8147   */\n      iszero\n      tag_396\n      jumpi\n        /* \"#utility.yul\":8066:8145   */\n      tag_397\n      tag_338\n      jump\t// in\n    tag_397:\n        /* \"#utility.yul\":8030:8147   */\n    tag_396:\n        /* \"#utility.yul\":8171:8234   */\n      tag_398\n        /* \"#utility.yul\":8226:8233   */\n      dup10\n        /* \"#utility.yul\":8217:8223   */\n      dup3\n        /* \"#utility.yul\":8206:8215   */\n      dup11\n        /* \"#utility.yul\":8202:8224   */\n      add\n        /* \"#utility.yul\":8171:8234   */\n      tag_322\n      jump\t// in\n    tag_398:\n        /* \"#utility.yul\":8161:8234   */\n      swap2\n      pop\n        /* \"#utility.yul\":7955:8244   */\n      pop\n        /* \"#utility.yul\":6654:8251   */\n      swap3\n      swap6\n      pop\n      swap3\n      swap6\n      pop\n      swap3\n      swap6\n      jump\t// out\n        /* \"#utility.yul\":8257:8516   */\n    tag_399:\n        /* \"#utility.yul\":8366:8376   */\n      0x00\n        /* \"#utility.yul\":8387:8473   */\n      tag_401\n        /* \"#utility.yul\":8469:8472   */\n      dup4\n        /* \"#utility.yul\":8461:8467   */\n      dup4\n        /* \"#utility.yul\":8387:8473   */\n      tag_402\n      jump\t// in\n    tag_401:\n        /* \"#utility.yul\":8505:8509   */\n      0x60\n        /* \"#utility.yul\":8500:8503   */\n      dup4\n        /* \"#utility.yul\":8496:8510   */\n      add\n        /* \"#utility.yul\":8482:8510   */\n      swap1\n      pop\n        /* \"#utility.yul\":8257:8516   */\n      swap3\n      swap2\n      pop\n      pop\n      jump\t// out\n        /* \"#utility.yul\":8522:8630   */\n    tag_403:\n        /* \"#utility.yul\":8599:8623   */\n      tag_405\n        /* \"#utility.yul\":8617:8622   */\n      dup2\n        /* \"#utility.yul\":8599:8623   */\n      tag_406\n      jump\t// in\n    tag_405:\n        /* \"#utility.yul\":8594:8597   */\n      dup3\n        /* \"#utility.yul\":8587:8624   */\n      mstore\n        /* \"#utility.yul\":8522:8630   */\n      pop\n      pop\n      jump\t// out\n        /* \"#utility.yul\":8636:8754   */\n    tag_407:\n        /* \"#utility.yul\":8723:8747   */\n      tag_409\n        /* \"#utility.yul\":8741:8746   */\n      dup2\n        /* \"#utility.yul\":8723:8747   */\n      tag_406\n      jump\t// in\n    tag_409:\n        /* \"#utility.yul\":8718:8721   */\n      dup3\n        /* \"#utility.yul\":8711:8748   */\n      mstore\n        /* \"#utility.yul\":8636:8754   */\n      pop\n      pop\n      jump\t// out\n        /* \"#utility.yul\":8838:9730   */\n    tag_410:\n        /* \"#utility.yul\":8997:9000   */\n      0x00\n        /* \"#utility.yul\":9026:9100   */\n      tag_412\n        /* \"#utility.yul\":9094:9099   */\n      dup3\n        /* \"#utility.yul\":9026:9100   */\n      tag_413\n      jump\t// in\n    tag_412:\n        /* \"#utility.yul\":9116:9222   */\n      tag_414\n        /* \"#utility.yul\":9215:9221   */\n      dup2\n        /* \"#utility.yul\":9210:9213   */\n      dup6\n        /* \"#utility.yul\":9116:9222   */\n      tag_415\n      jump\t// in\n    tag_414:\n        /* \"#utility.yul\":9109:9222   */\n      swap4\n      pop\n        /* \"#utility.yul\":9246:9322   */\n      tag_416\n        /* \"#utility.yul\":9316:9321   */\n      dup4\n        /* \"#utility.yul\":9246:9322   */\n      tag_417\n      jump\t// in\n    tag_416:\n        /* \"#utility.yul\":9345:9352   */\n      dup1\n        /* \"#utility.yul\":9376:9377   */\n      0x00\n        /* \"#utility.yul\":9361:9705   */\n    tag_418:\n        /* \"#utility.yul\":9386:9392   */\n      dup4\n        /* \"#utility.yul\":9383:9384   */\n      dup2\n        /* \"#utility.yul\":9380:9393   */\n      lt\n        /* \"#utility.yul\":9361:9705   */\n      iszero\n      tag_420\n      jumpi\n        /* \"#utility.yul\":9462:9468   */\n      dup2\n        /* \"#utility.yul\":9456:9469   */\n      mload\n        /* \"#utility.yul\":9489:9592   */\n      tag_421\n        /* \"#utility.yul\":9588:9591   */\n      dup9\n        /* \"#utility.yul\":9573:9586   */\n      dup3\n        /* \"#utility.yul\":9489:9592   */\n      tag_399\n      jump\t// in\n    tag_421:\n        /* \"#utility.yul\":9482:9592   */\n      swap8\n      pop\n        /* \"#utility.yul\":9615:9695   */\n      tag_422\n        /* \"#utility.yul\":9688:9694   */\n      dup4\n        /* \"#utility.yul\":9615:9695   */\n      tag_423\n      jump\t// in\n    tag_422:\n        /* \"#utility.yul\":9605:9695   */\n      swap3\n      pop\n        /* \"#utility.yul\":9421:9705   */\n      pop\n        /* \"#utility.yul\":9408:9409   */\n      0x01\n        /* \"#utility.yul\":9405:9406   */\n      dup2\n        /* \"#utility.yul\":9401:9410   */\n      add\n        /* \"#utility.yul\":9396:9410   */\n      swap1\n      pop\n        /* \"#utility.yul\":9361:9705   */\n      jump(tag_418)\n    tag_420:\n        /* \"#utility.yul\":9365:9379   */\n      pop\n        /* \"#utility.yul\":9721:9724   */\n      dup6\n        /* \"#utility.yul\":9714:9724   */\n      swap4\n      pop\n        /* \"#utility.yul\":9002:9730   */\n      pop\n      pop\n      pop\n        /* \"#utility.yul\":8838:9730   */\n      swap3\n      swap2\n      pop\n      pop\n      jump\t// out\n        /* \"#utility.yul\":9736:9835   */\n    tag_424:\n        /* \"#utility.yul\":9807:9828   */\n      tag_426\n        /* \"#utility.yul\":9822:9827   */\n      dup2\n        /* \"#utility.yul\":9807:9828   */\n      tag_427\n      jump\t// in\n    tag_426:\n        /* \"#utility.yul\":9802:9805   */\n      dup3\n        /* \"#utility.yul\":9795:9829   */\n      mstore\n        /* \"#utility.yul\":9736:9835   */\n      pop\n      pop\n      jump\t// out\n        /* \"#utility.yul\":9841:9950   */\n    tag_428:\n        /* \"#utility.yul\":9922:9943   */\n      tag_430\n        /* \"#utility.yul\":9937:9942   */\n      dup2\n        /* \"#utility.yul\":9922:9943   */\n      tag_427\n      jump\t// in\n    tag_430:\n        /* \"#utility.yul\":9917:9920   */\n      dup3\n        /* \"#utility.yul\":9910:9944   */\n      mstore\n        /* \"#utility.yul\":9841:9950   */\n      pop\n      pop\n      jump\t// out\n        /* \"#utility.yul\":9956:10064   */\n    tag_431:\n        /* \"#utility.yul\":10033:10057   */\n      tag_433\n        /* \"#utility.yul\":10051:10056   */\n      dup2\n        /* \"#utility.yul\":10033:10057   */\n      tag_434\n      jump\t// in\n    tag_433:\n        /* \"#utility.yul\":10028:10031   */\n      dup3\n        /* \"#utility.yul\":10021:10058   */\n      mstore\n        /* \"#utility.yul\":9956:10064   */\n      pop\n      pop\n      jump\t// out\n        /* \"#utility.yul\":10070:10188   */\n    tag_435:\n        /* \"#utility.yul\":10157:10181   */\n      tag_437\n        /* \"#utility.yul\":10175:10180   */\n      dup2\n        /* \"#utility.yul\":10157:10181   */\n      tag_434\n      jump\t// in\n    tag_437:\n        /* \"#utility.yul\":10152:10155   */\n      dup3\n        /* \"#utility.yul\":10145:10182   */\n      mstore\n        /* \"#utility.yul\":10070:10188   */\n      pop\n      pop\n      jump\t// out\n        /* \"#utility.yul\":10218:10535   */\n    tag_438:\n        /* \"#utility.yul\":10334:10337   */\n      0x00\n        /* \"#utility.yul\":10355:10444   */\n      tag_440\n        /* \"#utility.yul\":10437:10443   */\n      dup4\n        /* \"#utility.yul\":10432:10435   */\n      dup6\n        /* \"#utility.yul\":10355:10444   */\n      tag_441\n      jump\t// in\n    tag_440:\n        /* \"#utility.yul\":10348:10444   */\n      swap4\n      pop\n        /* \"#utility.yul\":10454:10497   */\n      tag_442\n        /* \"#utility.yul\":10490:10496   */\n      dup4\n        /* \"#utility.yul\":10485:10488   */\n      dup6\n        /* \"#utility.yul\":10478:10483   */\n      dup5\n        /* \"#utility.yul\":10454:10497   */\n      tag_302\n      jump\t// in\n    tag_442:\n        /* \"#utility.yul\":10522:10528   */\n      dup3\n        /* \"#utility.yul\":10517:10520   */\n      dup5\n        /* \"#utility.yul\":10513:10529   */\n      add\n        /* \"#utility.yul\":10506:10529   */\n      swap1\n      pop\n        /* \"#utility.yul\":10218:10535   */\n      swap4\n      swap3\n      pop\n      pop\n      pop\n      jump\t// out\n        /* \"#utility.yul\":10541:10885   */\n    tag_443:\n        /* \"#utility.yul\":10619:10622   */\n      0x00\n        /* \"#utility.yul\":10647:10686   */\n      tag_445\n        /* \"#utility.yul\":10680:10685   */\n      dup3\n        /* \"#utility.yul\":10647:10686   */\n      tag_446\n      jump\t// in\n    tag_445:\n        /* \"#utility.yul\":10702:10763   */\n      tag_447\n        /* \"#utility.yul\":10756:10762   */\n      dup2\n        /* \"#utility.yul\":10751:10754   */\n      dup6\n        /* \"#utility.yul\":10702:10763   */\n      tag_448\n      jump\t// in\n    tag_447:\n        /* \"#utility.yul\":10695:10763   */\n      swap4\n      pop\n        /* \"#utility.yul\":10772:10824   */\n      tag_449\n        /* \"#utility.yul\":10817:10823   */\n      dup2\n        /* \"#utility.yul\":10812:10815   */\n      dup6\n        /* \"#utility.yul\":10805:10809   */\n      0x20\n        /* \"#utility.yul\":10798:10803   */\n      dup7\n        /* \"#utility.yul\":10794:10810   */\n      add\n        /* \"#utility.yul\":10772:10824   */\n      tag_450\n      jump\t// in\n    tag_449:\n        /* \"#utility.yul\":10849:10878   */\n      tag_451\n        /* \"#utility.yul\":10871:10877   */\n      dup2\n        /* \"#utility.yul\":10849:10878   */\n      tag_452\n      jump\t// in\n    tag_451:\n        /* \"#utility.yul\":10844:10847   */\n      dup5\n        /* \"#utility.yul\":10840:10879   */\n      add\n        /* \"#utility.yul\":10833:10879   */\n      swap2\n      pop\n        /* \"#utility.yul\":10623:10885   */\n      pop\n        /* \"#utility.yul\":10541:10885   */\n      swap3\n      swap2\n      pop\n      pop\n      jump\t// out\n        /* \"#utility.yul\":10891:11255   */\n    tag_453:\n        /* \"#utility.yul\":10979:10982   */\n      0x00\n        /* \"#utility.yul\":11007:11046   */\n      tag_455\n        /* \"#utility.yul\":11040:11045   */\n      dup3\n        /* \"#utility.yul\":11007:11046   */\n      tag_446\n      jump\t// in\n    tag_455:\n        /* \"#utility.yul\":11062:11133   */\n      tag_456\n        /* \"#utility.yul\":11126:11132   */\n      dup2\n        /* \"#utility.yul\":11121:11124   */\n      dup6\n        /* \"#utility.yul\":11062:11133   */\n      tag_457\n      jump\t// in\n    tag_456:\n        /* \"#utility.yul\":11055:11133   */\n      swap4\n      pop\n        /* \"#utility.yul\":11142:11194   */\n      tag_458\n        /* \"#utility.yul\":11187:11193   */\n      dup2\n        /* \"#utility.yul\":11182:11185   */\n      dup6\n        /* \"#utility.yul\":11175:11179   */\n      0x20\n        /* \"#utility.yul\":11168:11173   */\n      dup7\n        /* \"#utility.yul\":11164:11180   */\n      add\n        /* \"#utility.yul\":11142:11194   */\n      tag_450\n      jump\t// in\n    tag_458:\n        /* \"#utility.yul\":11219:11248   */\n      tag_459\n        /* \"#utility.yul\":11241:11247   */\n      dup2\n        /* \"#utility.yul\":11219:11248   */\n      tag_452\n      jump\t// in\n    tag_459:\n        /* \"#utility.yul\":11214:11217   */\n      dup5\n        /* \"#utility.yul\":11210:11249   */\n      add\n        /* \"#utility.yul\":11203:11249   */\n      swap2\n      pop\n        /* \"#utility.yul\":10983:11255   */\n      pop\n        /* \"#utility.yul\":10891:11255   */\n      swap3\n      swap2\n      pop\n      pop\n      jump\t// out\n        /* \"#utility.yul\":11261:11638   */\n    tag_460:\n        /* \"#utility.yul\":11367:11370   */\n      0x00\n        /* \"#utility.yul\":11395:11434   */\n      tag_462\n        /* \"#utility.yul\":11428:11433   */\n      dup3\n        /* \"#utility.yul\":11395:11434   */\n      tag_446\n      jump\t// in\n    tag_462:\n        /* \"#utility.yul\":11450:11539   */\n      tag_463\n        /* \"#utility.yul\":11532:11538   */\n      dup2\n        /* \"#utility.yul\":11527:11530   */\n      dup6\n        /* \"#utility.yul\":11450:11539   */\n      tag_441\n      jump\t// in\n    tag_463:\n        /* \"#utility.yul\":11443:11539   */\n      swap4\n      pop\n        /* \"#utility.yul\":11548:11600   */\n      tag_464\n        /* \"#utility.yul\":11593:11599   */\n      dup2\n        /* \"#utility.yul\":11588:11591   */\n      dup6\n        /* \"#utility.yul\":11581:11585   */\n      0x20\n        /* \"#utility.yul\":11574:11579   */\n      dup7\n        /* \"#utility.yul\":11570:11586   */\n      add\n        /* \"#utility.yul\":11548:11600   */\n      tag_450\n      jump\t// in\n    tag_464:\n        /* \"#utility.yul\":11625:11631   */\n      dup1\n        /* \"#utility.yul\":11620:11623   */\n      dup5\n        /* \"#utility.yul\":11616:11632   */\n      add\n        /* \"#utility.yul\":11609:11632   */\n      swap2\n      pop\n        /* \"#utility.yul\":11371:11638   */\n      pop\n        /* \"#utility.yul\":11261:11638   */\n      swap3\n      swap2\n      pop\n      pop\n      jump\t// out\n        /* \"#utility.yul\":11644:12010   */\n    tag_465:\n        /* \"#utility.yul\":11786:11789   */\n      0x00\n        /* \"#utility.yul\":11807:11874   */\n      tag_467\n        /* \"#utility.yul\":11871:11873   */\n      0x1f\n        /* \"#utility.yul\":11866:11869   */\n      dup4\n        /* \"#utility.yul\":11807:11874   */\n      tag_457\n      jump\t// in\n    tag_467:\n        /* \"#utility.yul\":11800:11874   */\n      swap2\n      pop\n        /* \"#utility.yul\":11883:11976   */\n      tag_468\n        /* \"#utility.yul\":11972:11975   */\n      dup3\n        /* \"#utility.yul\":11883:11976   */\n      tag_469\n      jump\t// in\n    tag_468:\n        /* \"#utility.yul\":12001:12003   */\n      0x20\n        /* \"#utility.yul\":11996:11999   */\n      dup3\n        /* \"#utility.yul\":11992:12004   */\n      add\n        /* \"#utility.yul\":11985:12004   */\n      swap1\n      pop\n        /* \"#utility.yul\":11644:12010   */\n      swap2\n      swap1\n      pop\n      jump\t// out\n        /* \"#utility.yul\":12016:12382   */\n    tag_470:\n        /* \"#utility.yul\":12158:12161   */\n      0x00\n        /* \"#utility.yul\":12179:12246   */\n      tag_472\n        /* \"#utility.yul\":12243:12245   */\n      0x19\n        /* \"#utility.yul\":12238:12241   */\n      dup4\n        /* \"#utility.yul\":12179:12246   */\n      tag_457\n      jump\t// in\n    tag_472:\n        /* \"#utility.yul\":12172:12246   */\n      swap2\n      pop\n        /* \"#utility.yul\":12255:12348   */\n      tag_473\n        /* \"#utility.yul\":12344:12347   */\n      dup3\n        /* \"#utility.yul\":12255:12348   */\n      tag_474\n      jump\t// in\n    tag_473:\n        /* \"#utility.yul\":12373:12375   */\n      0x20\n        /* \"#utility.yul\":12368:12371   */\n      dup3\n        /* \"#utility.yul\":12364:12376   */\n      add\n        /* \"#utility.yul\":12357:12376   */\n      swap1\n      pop\n        /* \"#utility.yul\":12016:12382   */\n      swap2\n      swap1\n      pop\n      jump\t// out\n        /* \"#utility.yul\":12388:12754   */\n    tag_475:\n        /* \"#utility.yul\":12530:12533   */\n      0x00\n        /* \"#utility.yul\":12551:12618   */\n      tag_477\n        /* \"#utility.yul\":12615:12617   */\n      0x26\n        /* \"#utility.yul\":12610:12613   */\n      dup4\n        /* \"#utility.yul\":12551:12618   */\n      tag_457\n      jump\t// in\n    tag_477:\n        /* \"#utility.yul\":12544:12618   */\n      swap2\n      pop\n        /* \"#utility.yul\":12627:12720   */\n      tag_478\n        /* \"#utility.yul\":12716:12719   */\n      dup3\n        /* \"#utility.yul\":12627:12720   */\n      tag_479\n      jump\t// in\n    tag_478:\n        /* \"#utility.yul\":12745:12747   */\n      0x40\n        /* \"#utility.yul\":12740:12743   */\n      dup3\n        /* \"#utility.yul\":12736:12748   */\n      add\n        /* \"#utility.yul\":12729:12748   */\n      swap1\n      pop\n        /* \"#utility.yul\":12388:12754   */\n      swap2\n      swap1\n      pop\n      jump\t// out\n        /* \"#utility.yul\":12760:13126   */\n    tag_480:\n        /* \"#utility.yul\":12902:12905   */\n      0x00\n        /* \"#utility.yul\":12923:12990   */\n      tag_482\n        /* \"#utility.yul\":12987:12989   */\n      0x1c\n        /* \"#utility.yul\":12982:12985   */\n      dup4\n        /* \"#utility.yul\":12923:12990   */\n      tag_457\n      jump\t// in\n    tag_482:\n        /* \"#utility.yul\":12916:12990   */\n      swap2\n      pop\n        /* \"#utility.yul\":12999:13092   */\n      tag_483\n        /* \"#utility.yul\":13088:13091   */\n      dup3\n        /* \"#utility.yul\":12999:13092   */\n      tag_484\n      jump\t// in\n    tag_483:\n        /* \"#utility.yul\":13117:13119   */\n      0x20\n        /* \"#utility.yul\":13112:13115   */\n      dup3\n        /* \"#utility.yul\":13108:13120   */\n      add\n        /* \"#utility.yul\":13101:13120   */\n      swap1\n      pop\n        /* \"#utility.yul\":12760:13126   */\n      swap2\n      swap1\n      pop\n      jump\t// out\n        /* \"#utility.yul\":13132:13498   */\n    tag_485:\n        /* \"#utility.yul\":13274:13277   */\n      0x00\n        /* \"#utility.yul\":13295:13362   */\n      tag_487\n        /* \"#utility.yul\":13359:13361   */\n      0x15\n        /* \"#utility.yul\":13354:13357   */\n      dup4\n        /* \"#utility.yul\":13295:13362   */\n      tag_457\n      jump\t// in\n    tag_487:\n        /* \"#utility.yul\":13288:13362   */\n      swap2\n      pop\n        /* \"#utility.yul\":13371:13464   */\n      tag_488\n        /* \"#utility.yul\":13460:13463   */\n      dup3\n        /* \"#utility.yul\":13371:13464   */\n      tag_489\n      jump\t// in\n    tag_488:\n        /* \"#utility.yul\":13489:13491   */\n      0x20\n        /* \"#utility.yul\":13484:13487   */\n      dup3\n        /* \"#utility.yul\":13480:13492   */\n      add\n        /* \"#utility.yul\":13473:13492   */\n      swap1\n      pop\n        /* \"#utility.yul\":13132:13498   */\n      swap2\n      swap1\n      pop\n      jump\t// out\n        /* \"#utility.yul\":13504:13870   */\n    tag_490:\n        /* \"#utility.yul\":13646:13649   */\n      0x00\n        /* \"#utility.yul\":13667:13734   */\n      tag_492\n        /* \"#utility.yul\":13731:13733   */\n      0x1e\n        /* \"#utility.yul\":13726:13729   */\n      dup4\n        /* \"#utility.yul\":13667:13734   */\n      tag_457\n      jump\t// in\n    tag_492:\n        /* \"#utility.yul\":13660:13734   */\n      swap2\n      pop\n        /* \"#utility.yul\":13743:13836   */\n      tag_493\n        /* \"#utility.yul\":13832:13835   */\n      dup3\n        /* \"#utility.yul\":13743:13836   */\n      tag_494\n      jump\t// in\n    tag_493:\n        /* \"#utility.yul\":13861:13863   */\n      0x20\n        /* \"#utility.yul\":13856:13859   */\n      dup3\n        /* \"#utility.yul\":13852:13864   */\n      add\n        /* \"#utility.yul\":13845:13864   */\n      swap1\n      pop\n        /* \"#utility.yul\":13504:13870   */\n      swap2\n      swap1\n      pop\n      jump\t// out\n        /* \"#utility.yul\":13876:14242   */\n    tag_495:\n        /* \"#utility.yul\":14018:14021   */\n      0x00\n        /* \"#utility.yul\":14039:14106   */\n      tag_497\n        /* \"#utility.yul\":14103:14105   */\n      0x24\n        /* \"#utility.yul\":14098:14101   */\n      dup4\n        /* \"#utility.yul\":14039:14106   */\n      tag_457\n      jump\t// in\n    tag_497:\n        /* \"#utility.yul\":14032:14106   */\n      swap2\n      pop\n        /* \"#utility.yul\":14115:14208   */\n      tag_498\n        /* \"#utility.yul\":14204:14207   */\n      dup3\n        /* \"#utility.yul\":14115:14208   */\n      tag_499\n      jump\t// in\n    tag_498:\n        /* \"#utility.yul\":14233:14235   */\n      0x40\n        /* \"#utility.yul\":14228:14231   */\n      dup3\n        /* \"#utility.yul\":14224:14236   */\n      add\n        /* \"#utility.yul\":14217:14236   */\n      swap1\n      pop\n        /* \"#utility.yul\":13876:14242   */\n      swap2\n      swap1\n      pop\n      jump\t// out\n        /* \"#utility.yul\":14248:14614   */\n    tag_500:\n        /* \"#utility.yul\":14390:14393   */\n      0x00\n        /* \"#utility.yul\":14411:14478   */\n      tag_502\n        /* \"#utility.yul\":14475:14477   */\n      0x28\n        /* \"#utility.yul\":14470:14473   */\n      dup4\n        /* \"#utility.yul\":14411:14478   */\n      tag_457\n      jump\t// in\n    tag_502:\n        /* \"#utility.yul\":14404:14478   */\n      swap2\n      pop\n        /* \"#utility.yul\":14487:14580   */\n      tag_503\n        /* \"#utility.yul\":14576:14579   */\n      dup3\n        /* \"#utility.yul\":14487:14580   */\n      tag_504\n      jump\t// in\n    tag_503:\n        /* \"#utility.yul\":14605:14607   */\n      0x40\n        /* \"#utility.yul\":14600:14603   */\n      dup3\n        /* \"#utility.yul\":14596:14608   */\n      add\n        /* \"#utility.yul\":14589:14608   */\n      swap1\n      pop\n        /* \"#utility.yul\":14248:14614   */\n      swap2\n      swap1\n      pop\n      jump\t// out\n        /* \"#utility.yul\":14620:14986   */\n    tag_505:\n        /* \"#utility.yul\":14762:14765   */\n      0x00\n        /* \"#utility.yul\":14783:14850   */\n      tag_507\n        /* \"#utility.yul\":14847:14849   */\n      0x14\n        /* \"#utility.yul\":14842:14845   */\n      dup4\n        /* \"#utility.yul\":14783:14850   */\n      tag_457\n      jump\t// in\n    tag_507:\n        /* \"#utility.yul\":14776:14850   */\n      swap2\n      pop\n        /* \"#utility.yul\":14859:14952   */\n      tag_508\n        /* \"#utility.yul\":14948:14951   */\n      dup3\n        /* \"#utility.yul\":14859:14952   */\n      tag_509\n      jump\t// in\n    tag_508:\n        /* \"#utility.yul\":14977:14979   */\n      0x20\n        /* \"#utility.yul\":14972:14975   */\n      dup3\n        /* \"#utility.yul\":14968:14980   */\n      add\n        /* \"#utility.yul\":14961:14980   */\n      swap1\n      pop\n        /* \"#utility.yul\":14620:14986   */\n      swap2\n      swap1\n      pop\n      jump\t// out\n        /* \"#utility.yul\":14992:15358   */\n    tag_510:\n        /* \"#utility.yul\":15134:15137   */\n      0x00\n        /* \"#utility.yul\":15155:15222   */\n      tag_512\n        /* \"#utility.yul\":15219:15221   */\n      0x20\n        /* \"#utility.yul\":15214:15217   */\n      dup4\n        /* \"#utility.yul\":15155:15222   */\n      tag_457\n      jump\t// in\n    tag_512:\n        /* \"#utility.yul\":15148:15222   */\n      swap2\n      pop\n        /* \"#utility.yul\":15231:15324   */\n      tag_513\n        /* \"#utility.yul\":15320:15323   */\n      dup3\n        /* \"#utility.yul\":15231:15324   */\n      tag_514\n      jump\t// in\n    tag_513:\n        /* \"#utility.yul\":15349:15351   */\n      0x20\n        /* \"#utility.yul\":15344:15347   */\n      dup3\n        /* \"#utility.yul\":15340:15352   */\n      add\n        /* \"#utility.yul\":15333:15352   */\n      swap1\n      pop\n        /* \"#utility.yul\":14992:15358   */\n      swap2\n      swap1\n      pop\n      jump\t// out\n        /* \"#utility.yul\":15364:15730   */\n    tag_515:\n        /* \"#utility.yul\":15506:15509   */\n      0x00\n        /* \"#utility.yul\":15527:15594   */\n      tag_517\n        /* \"#utility.yul\":15591:15593   */\n      0x12\n        /* \"#utility.yul\":15586:15589   */\n      dup4\n        /* \"#utility.yul\":15527:15594   */\n      tag_457\n      jump\t// in\n    tag_517:\n        /* \"#utility.yul\":15520:15594   */\n      swap2\n      pop\n        /* \"#utility.yul\":15603:15696   */\n      tag_518\n        /* \"#utility.yul\":15692:15695   */\n      dup3\n        /* \"#utility.yul\":15603:15696   */\n      tag_519\n      jump\t// in\n    tag_518:\n        /* \"#utility.yul\":15721:15723   */\n      0x20\n        /* \"#utility.yul\":15716:15719   */\n      dup3\n        /* \"#utility.yul\":15712:15724   */\n      add\n        /* \"#utility.yul\":15705:15724   */\n      swap1\n      pop\n        /* \"#utility.yul\":15364:15730   */\n      swap2\n      swap1\n      pop\n      jump\t// out\n        /* \"#utility.yul\":15736:16102   */\n    tag_520:\n        /* \"#utility.yul\":15878:15881   */\n      0x00\n        /* \"#utility.yul\":15899:15966   */\n      tag_522\n        /* \"#utility.yul\":15963:15965   */\n      0x25\n        /* \"#utility.yul\":15958:15961   */\n      dup4\n        /* \"#utility.yul\":15899:15966   */\n      tag_457\n      jump\t// in\n    tag_522:\n        /* \"#utility.yul\":15892:15966   */\n      swap2\n      pop\n        /* \"#utility.yul\":15975:16068   */\n      tag_523\n        /* \"#utility.yul\":16064:16067   */\n      dup3\n        /* \"#utility.yul\":15975:16068   */\n      tag_524\n      jump\t// in\n    tag_523:\n        /* \"#utility.yul\":16093:16095   */\n      0x40\n        /* \"#utility.yul\":16088:16091   */\n      dup3\n        /* \"#utility.yul\":16084:16096   */\n      add\n        /* \"#utility.yul\":16077:16096   */\n      swap1\n      pop\n        /* \"#utility.yul\":15736:16102   */\n      swap2\n      swap1\n      pop\n      jump\t// out\n        /* \"#utility.yul\":16188:18766   */\n    tag_525:\n        /* \"#utility.yul\":16305:16308   */\n      0x00\n        /* \"#utility.yul\":16341:16347   */\n      0x0180\n        /* \"#utility.yul\":16336:16339   */\n      dup4\n        /* \"#utility.yul\":16332:16348   */\n      add\n        /* \"#utility.yul\":16435:16439   */\n      0x00\n        /* \"#utility.yul\":16428:16433   */\n      dup4\n        /* \"#utility.yul\":16424:16440   */\n      add\n        /* \"#utility.yul\":16418:16441   */\n      mload\n        /* \"#utility.yul\":16488:16491   */\n      dup5\n        /* \"#utility.yul\":16482:16486   */\n      dup3\n        /* \"#utility.yul\":16478:16492   */\n      sub\n        /* \"#utility.yul\":16471:16475   */\n      0x00\n        /* \"#utility.yul\":16466:16469   */\n      dup7\n        /* \"#utility.yul\":16462:16476   */\n      add\n        /* \"#utility.yul\":16455:16493   */\n      mstore\n        /* \"#utility.yul\":16514:16587   */\n      tag_527\n        /* \"#utility.yul\":16582:16586   */\n      dup3\n        /* \"#utility.yul\":16568:16580   */\n      dup3\n        /* \"#utility.yul\":16514:16587   */\n      tag_443\n      jump\t// in\n    tag_527:\n        /* \"#utility.yul\":16506:16587   */\n      swap2\n      pop\n        /* \"#utility.yul\":16358:16598   */\n      pop\n        /* \"#utility.yul\":16685:16689   */\n      0x20\n        /* \"#utility.yul\":16678:16683   */\n      dup4\n        /* \"#utility.yul\":16674:16690   */\n      add\n        /* \"#utility.yul\":16668:16691   */\n      mload\n        /* \"#utility.yul\":16704:16767   */\n      tag_528\n        /* \"#utility.yul\":16761:16765   */\n      0x20\n        /* \"#utility.yul\":16756:16759   */\n      dup7\n        /* \"#utility.yul\":16752:16766   */\n      add\n        /* \"#utility.yul\":16738:16750   */\n      dup3\n        /* \"#utility.yul\":16704:16767   */\n      tag_403\n      jump\t// in\n    tag_528:\n        /* \"#utility.yul\":16608:16777   */\n      pop\n        /* \"#utility.yul\":16864:16868   */\n      0x40\n        /* \"#utility.yul\":16857:16862   */\n      dup4\n        /* \"#utility.yul\":16853:16869   */\n      add\n        /* \"#utility.yul\":16847:16870   */\n      mload\n        /* \"#utility.yul\":16883:16946   */\n      tag_529\n        /* \"#utility.yul\":16940:16944   */\n      0x40\n        /* \"#utility.yul\":16935:16938   */\n      dup7\n        /* \"#utility.yul\":16931:16945   */\n      add\n        /* \"#utility.yul\":16917:16929   */\n      dup3\n        /* \"#utility.yul\":16883:16946   */\n      tag_530\n      jump\t// in\n    tag_529:\n        /* \"#utility.yul\":16787:16956   */\n      pop\n        /* \"#utility.yul\":17044:17048   */\n      0x60\n        /* \"#utility.yul\":17037:17042   */\n      dup4\n        /* \"#utility.yul\":17033:17049   */\n      add\n        /* \"#utility.yul\":17027:17050   */\n      mload\n        /* \"#utility.yul\":17063:17126   */\n      tag_531\n        /* \"#utility.yul\":17120:17124   */\n      0x60\n        /* \"#utility.yul\":17115:17118   */\n      dup7\n        /* \"#utility.yul\":17111:17125   */\n      add\n        /* \"#utility.yul\":17097:17109   */\n      dup3\n        /* \"#utility.yul\":17063:17126   */\n      tag_530\n      jump\t// in\n    tag_531:\n        /* \"#utility.yul\":16966:17136   */\n      pop\n        /* \"#utility.yul\":17233:17237   */\n      0x80\n        /* \"#utility.yul\":17226:17231   */\n      dup4\n        /* \"#utility.yul\":17222:17238   */\n      add\n        /* \"#utility.yul\":17216:17239   */\n      mload\n        /* \"#utility.yul\":17252:17315   */\n      tag_532\n        /* \"#utility.yul\":17309:17313   */\n      0x80\n        /* \"#utility.yul\":17304:17307   */\n      dup7\n        /* \"#utility.yul\":17300:17314   */\n      add\n        /* \"#utility.yul\":17286:17298   */\n      dup3\n        /* \"#utility.yul\":17252:17315   */\n      tag_530\n      jump\t// in\n    tag_532:\n        /* \"#utility.yul\":17146:17325   */\n      pop\n        /* \"#utility.yul\":17415:17419   */\n      0xa0\n        /* \"#utility.yul\":17408:17413   */\n      dup4\n        /* \"#utility.yul\":17404:17420   */\n      add\n        /* \"#utility.yul\":17398:17421   */\n      mload\n        /* \"#utility.yul\":17434:17497   */\n      tag_533\n        /* \"#utility.yul\":17491:17495   */\n      0xa0\n        /* \"#utility.yul\":17486:17489   */\n      dup7\n        /* \"#utility.yul\":17482:17496   */\n      add\n        /* \"#utility.yul\":17468:17480   */\n      dup3\n        /* \"#utility.yul\":17434:17497   */\n      tag_530\n      jump\t// in\n    tag_533:\n        /* \"#utility.yul\":17335:17507   */\n      pop\n        /* \"#utility.yul\":17595:17599   */\n      0xc0\n        /* \"#utility.yul\":17588:17593   */\n      dup4\n        /* \"#utility.yul\":17584:17600   */\n      add\n        /* \"#utility.yul\":17578:17601   */\n      mload\n        /* \"#utility.yul\":17614:17671   */\n      tag_534\n        /* \"#utility.yul\":17665:17669   */\n      0xc0\n        /* \"#utility.yul\":17660:17663   */\n      dup7\n        /* \"#utility.yul\":17656:17670   */\n      add\n        /* \"#utility.yul\":17642:17654   */\n      dup3\n        /* \"#utility.yul\":17614:17671   */\n      tag_424\n      jump\t// in\n    tag_534:\n        /* \"#utility.yul\":17517:17681   */\n      pop\n        /* \"#utility.yul\":17771:17775   */\n      0xe0\n        /* \"#utility.yul\":17764:17769   */\n      dup4\n        /* \"#utility.yul\":17760:17776   */\n      add\n        /* \"#utility.yul\":17754:17777   */\n      mload\n        /* \"#utility.yul\":17790:17853   */\n      tag_535\n        /* \"#utility.yul\":17847:17851   */\n      0xe0\n        /* \"#utility.yul\":17842:17845   */\n      dup7\n        /* \"#utility.yul\":17838:17852   */\n      add\n        /* \"#utility.yul\":17824:17836   */\n      dup3\n        /* \"#utility.yul\":17790:17853   */\n      tag_431\n      jump\t// in\n    tag_535:\n        /* \"#utility.yul\":17691:17863   */\n      pop\n        /* \"#utility.yul\":17952:17958   */\n      0x0100\n        /* \"#utility.yul\":17945:17950   */\n      dup4\n        /* \"#utility.yul\":17941:17959   */\n      add\n        /* \"#utility.yul\":17935:17960   */\n      mload\n        /* \"#utility.yul\":18009:18012   */\n      dup5\n        /* \"#utility.yul\":18003:18007   */\n      dup3\n        /* \"#utility.yul\":17999:18013   */\n      sub\n        /* \"#utility.yul\":17990:17996   */\n      0x0100\n        /* \"#utility.yul\":17985:17988   */\n      dup7\n        /* \"#utility.yul\":17981:17997   */\n      add\n        /* \"#utility.yul\":17974:18014   */\n      mstore\n        /* \"#utility.yul\":18035:18108   */\n      tag_536\n        /* \"#utility.yul\":18103:18107   */\n      dup3\n        /* \"#utility.yul\":18089:18101   */\n      dup3\n        /* \"#utility.yul\":18035:18108   */\n      tag_443\n      jump\t// in\n    tag_536:\n        /* \"#utility.yul\":18027:18108   */\n      swap2\n      pop\n        /* \"#utility.yul\":17873:18119   */\n      pop\n        /* \"#utility.yul\":18204:18210   */\n      0x0120\n        /* \"#utility.yul\":18197:18202   */\n      dup4\n        /* \"#utility.yul\":18193:18211   */\n      add\n        /* \"#utility.yul\":18187:18212   */\n      mload\n        /* \"#utility.yul\":18261:18264   */\n      dup5\n        /* \"#utility.yul\":18255:18259   */\n      dup3\n        /* \"#utility.yul\":18251:18265   */\n      sub\n        /* \"#utility.yul\":18242:18248   */\n      0x0120\n        /* \"#utility.yul\":18237:18240   */\n      dup7\n        /* \"#utility.yul\":18233:18249   */\n      add\n        /* \"#utility.yul\":18226:18266   */\n      mstore\n        /* \"#utility.yul\":18287:18360   */\n      tag_537\n        /* \"#utility.yul\":18355:18359   */\n      dup3\n        /* \"#utility.yul\":18341:18353   */\n      dup3\n        /* \"#utility.yul\":18287:18360   */\n      tag_443\n      jump\t// in\n    tag_537:\n        /* \"#utility.yul\":18279:18360   */\n      swap2\n      pop\n        /* \"#utility.yul\":18129:18371   */\n      pop\n        /* \"#utility.yul\":18457:18463   */\n      0x0140\n        /* \"#utility.yul\":18450:18455   */\n      dup4\n        /* \"#utility.yul\":18446:18464   */\n      add\n        /* \"#utility.yul\":18440:18465   */\n      mload\n        /* \"#utility.yul\":18478:18543   */\n      tag_538\n        /* \"#utility.yul\":18535:18541   */\n      0x0140\n        /* \"#utility.yul\":18530:18533   */\n      dup7\n        /* \"#utility.yul\":18526:18542   */\n      add\n        /* \"#utility.yul\":18512:18524   */\n      dup3\n        /* \"#utility.yul\":18478:18543   */\n      tag_431\n      jump\t// in\n    tag_538:\n        /* \"#utility.yul\":18381:18553   */\n      pop\n        /* \"#utility.yul\":18643:18649   */\n      0x0160\n        /* \"#utility.yul\":18636:18641   */\n      dup4\n        /* \"#utility.yul\":18632:18650   */\n      add\n        /* \"#utility.yul\":18626:18651   */\n      mload\n        /* \"#utility.yul\":18664:18729   */\n      tag_539\n        /* \"#utility.yul\":18721:18727   */\n      0x0160\n        /* \"#utility.yul\":18716:18719   */\n      dup7\n        /* \"#utility.yul\":18712:18728   */\n      add\n        /* \"#utility.yul\":18698:18710   */\n      dup3\n        /* \"#utility.yul\":18664:18729   */\n      tag_530\n      jump\t// in\n    tag_539:\n        /* \"#utility.yul\":18563:18739   */\n      pop\n        /* \"#utility.yul\":18756:18760   */\n      dup1\n        /* \"#utility.yul\":18749:18760   */\n      swap2\n      pop\n        /* \"#utility.yul\":16310:18766   */\n      pop\n        /* \"#utility.yul\":16188:18766   */\n      swap3\n      swap2\n      pop\n      pop\n      jump\t// out\n        /* \"#utility.yul\":18846:19501   */\n    tag_402:\n        /* \"#utility.yul\":18973:18977   */\n      0x60\n        /* \"#utility.yul\":18968:18971   */\n      dup3\n        /* \"#utility.yul\":18964:18978   */\n      add\n        /* \"#utility.yul\":19061:19065   */\n      0x00\n        /* \"#utility.yul\":19054:19059   */\n      dup3\n        /* \"#utility.yul\":19050:19066   */\n      add\n        /* \"#utility.yul\":19044:19067   */\n      mload\n        /* \"#utility.yul\":19080:19137   */\n      tag_541\n        /* \"#utility.yul\":19131:19135   */\n      0x00\n        /* \"#utility.yul\":19126:19129   */\n      dup6\n        /* \"#utility.yul\":19122:19136   */\n      add\n        /* \"#utility.yul\":19108:19120   */\n      dup3\n        /* \"#utility.yul\":19080:19137   */\n      tag_424\n      jump\t// in\n    tag_541:\n        /* \"#utility.yul\":18988:19147   */\n      pop\n        /* \"#utility.yul\":19229:19233   */\n      0x20\n        /* \"#utility.yul\":19222:19227   */\n      dup3\n        /* \"#utility.yul\":19218:19234   */\n      add\n        /* \"#utility.yul\":19212:19235   */\n      mload\n        /* \"#utility.yul\":19248:19305   */\n      tag_542\n        /* \"#utility.yul\":19299:19303   */\n      0x20\n        /* \"#utility.yul\":19294:19297   */\n      dup6\n        /* \"#utility.yul\":19290:19304   */\n      add\n        /* \"#utility.yul\":19276:19288   */\n      dup3\n        /* \"#utility.yul\":19248:19305   */\n      tag_424\n      jump\t// in\n    tag_542:\n        /* \"#utility.yul\":19157:19315   */\n      pop\n        /* \"#utility.yul\":19402:19406   */\n      0x40\n        /* \"#utility.yul\":19395:19400   */\n      dup3\n        /* \"#utility.yul\":19391:19407   */\n      add\n        /* \"#utility.yul\":19385:19408   */\n      mload\n        /* \"#utility.yul\":19421:19484   */\n      tag_543\n        /* \"#utility.yul\":19478:19482   */\n      0x40\n        /* \"#utility.yul\":19473:19476   */\n      dup6\n        /* \"#utility.yul\":19469:19483   */\n      add\n        /* \"#utility.yul\":19455:19467   */\n      dup3\n        /* \"#utility.yul\":19421:19484   */\n      tag_403\n      jump\t// in\n    tag_543:\n        /* \"#utility.yul\":19325:19494   */\n      pop\n        /* \"#utility.yul\":18942:19501   */\n      pop\n        /* \"#utility.yul\":18846:19501   */\n      pop\n      pop\n      jump\t// out\n        /* \"#utility.yul\":19507:19615   */\n    tag_530:\n        /* \"#utility.yul\":19584:19608   */\n      tag_545\n        /* \"#utility.yul\":19602:19607   */\n      dup2\n        /* \"#utility.yul\":19584:19608   */\n      tag_546\n      jump\t// in\n    tag_545:\n        /* \"#utility.yul\":19579:19582   */\n      dup3\n        /* \"#utility.yul\":19572:19609   */\n      mstore\n        /* \"#utility.yul\":19507:19615   */\n      pop\n      pop\n      jump\t// out\n        /* \"#utility.yul\":19621:19739   */\n    tag_547:\n        /* \"#utility.yul\":19708:19732   */\n      tag_549\n        /* \"#utility.yul\":19726:19731   */\n      dup2\n        /* \"#utility.yul\":19708:19732   */\n      tag_546\n      jump\t// in\n    tag_549:\n        /* \"#utility.yul\":19703:19706   */\n      dup3\n        /* \"#utility.yul\":19696:19733   */\n      mstore\n        /* \"#utility.yul\":19621:19739   */\n      pop\n      pop\n      jump\t// out\n        /* \"#utility.yul\":19745:20040   */\n    tag_102:\n        /* \"#utility.yul\":19887:19890   */\n      0x00\n        /* \"#utility.yul\":19909:20014   */\n      tag_551\n        /* \"#utility.yul\":20010:20013   */\n      dup3\n        /* \"#utility.yul\":20001:20007   */\n      dup5\n        /* \"#utility.yul\":19993:19999   */\n      dup7\n        /* \"#utility.yul\":19909:20014   */\n      tag_438\n      jump\t// in\n    tag_551:\n        /* \"#utility.yul\":19902:20014   */\n      swap2\n      pop\n        /* \"#utility.yul\":20031:20034   */\n      dup2\n        /* \"#utility.yul\":20024:20034   */\n      swap1\n      pop\n        /* \"#utility.yul\":19745:20040   */\n      swap4\n      swap3\n      pop\n      pop\n      pop\n      jump\t// out\n        /* \"#utility.yul\":20046:20321   */\n    tag_179:\n        /* \"#utility.yul\":20178:20181   */\n      0x00\n        /* \"#utility.yul\":20200:20295   */\n      tag_553\n        /* \"#utility.yul\":20291:20294   */\n      dup3\n        /* \"#utility.yul\":20282:20288   */\n      dup5\n        /* \"#utility.yul\":20200:20295   */\n      tag_460\n      jump\t// in\n    tag_553:\n        /* \"#utility.yul\":20193:20295   */\n      swap2\n      pop\n        /* \"#utility.yul\":20312:20315   */\n      dup2\n        /* \"#utility.yul\":20305:20315   */\n      swap1\n      pop\n        /* \"#utility.yul\":20046:20321   */\n      swap3\n      swap2\n      pop\n      pop\n      jump\t// out\n        /* \"#utility.yul\":20327:20549   */\n    tag_23:\n        /* \"#utility.yul\":20420:20424   */\n      0x00\n        /* \"#utility.yul\":20458:20460   */\n      0x20\n        /* \"#utility.yul\":20447:20456   */\n      dup3\n        /* \"#utility.yul\":20443:20461   */\n      add\n        /* \"#utility.yul\":20435:20461   */\n      swap1\n      pop\n        /* \"#utility.yul\":20471:20542   */\n      tag_555\n        /* \"#utility.yul\":20539:20540   */\n      0x00\n        /* \"#utility.yul\":20528:20537   */\n      dup4\n        /* \"#utility.yul\":20524:20541   */\n      add\n        /* \"#utility.yul\":20515:20521   */\n      dup5\n        /* \"#utility.yul\":20471:20542   */\n      tag_407\n      jump\t// in\n    tag_555:\n        /* \"#utility.yul\":20327:20549   */\n      swap3\n      swap2\n      pop\n      pop\n      jump\t// out\n        /* \"#utility.yul\":20555:20765   */\n    tag_81:\n        /* \"#utility.yul\":20642:20646   */\n      0x00\n        /* \"#utility.yul\":20680:20682   */\n      0x20\n        /* \"#utility.yul\":20669:20678   */\n      dup3\n        /* \"#utility.yul\":20665:20683   */\n      add\n        /* \"#utility.yul\":20657:20683   */\n      swap1\n      pop\n        /* \"#utility.yul\":20693:20758   */\n      tag_557\n        /* \"#utility.yul\":20755:20756   */\n      0x00\n        /* \"#utility.yul\":20744:20753   */\n      dup4\n        /* \"#utility.yul\":20740:20757   */\n      add\n        /* \"#utility.yul\":20731:20737   */\n      dup5\n        /* \"#utility.yul\":20693:20758   */\n      tag_428\n      jump\t// in\n    tag_557:\n        /* \"#utility.yul\":20555:20765   */\n      swap3\n      swap2\n      pop\n      pop\n      jump\t// out\n        /* \"#utility.yul\":20771:21189   */\n    tag_39:\n        /* \"#utility.yul\":20908:20912   */\n      0x00\n        /* \"#utility.yul\":20946:20948   */\n      0x60\n        /* \"#utility.yul\":20935:20944   */\n      dup3\n        /* \"#utility.yul\":20931:20949   */\n      add\n        /* \"#utility.yul\":20923:20949   */\n      swap1\n      pop\n        /* \"#utility.yul\":20959:21024   */\n      tag_559\n        /* \"#utility.yul\":21021:21022   */\n      0x00\n        /* \"#utility.yul\":21010:21019   */\n      dup4\n        /* \"#utility.yul\":21006:21023   */\n      add\n        /* \"#utility.yul\":20997:21003   */\n      dup7\n        /* \"#utility.yul\":20959:21024   */\n      tag_428\n      jump\t// in\n    tag_559:\n        /* \"#utility.yul\":21034:21100   */\n      tag_560\n        /* \"#utility.yul\":21096:21098   */\n      0x20\n        /* \"#utility.yul\":21085:21094   */\n      dup4\n        /* \"#utility.yul\":21081:21099   */\n      add\n        /* \"#utility.yul\":21072:21078   */\n      dup6\n        /* \"#utility.yul\":21034:21100   */\n      tag_428\n      jump\t// in\n    tag_560:\n        /* \"#utility.yul\":21110:21182   */\n      tag_561\n        /* \"#utility.yul\":21178:21180   */\n      0x40\n        /* \"#utility.yul\":21167:21176   */\n      dup4\n        /* \"#utility.yul\":21163:21181   */\n      add\n        /* \"#utility.yul\":21154:21160   */\n      dup5\n        /* \"#utility.yul\":21110:21182   */\n      tag_407\n      jump\t// in\n    tag_561:\n        /* \"#utility.yul\":20771:21189   */\n      swap5\n      swap4\n      pop\n      pop\n      pop\n      pop\n      jump\t// out\n        /* \"#utility.yul\":21195:21601   */\n    tag_66:\n        /* \"#utility.yul\":21326:21330   */\n      0x00\n        /* \"#utility.yul\":21364:21366   */\n      0x60\n        /* \"#utility.yul\":21353:21362   */\n      dup3\n        /* \"#utility.yul\":21349:21367   */\n      add\n        /* \"#utility.yul\":21341:21367   */\n      swap1\n      pop\n        /* \"#utility.yul\":21377:21442   */\n      tag_563\n        /* \"#utility.yul\":21439:21440   */\n      0x00\n        /* \"#utility.yul\":21428:21437   */\n      dup4\n        /* \"#utility.yul\":21424:21441   */\n      add\n        /* \"#utility.yul\":21415:21421   */\n      dup7\n        /* \"#utility.yul\":21377:21442   */\n      tag_428\n      jump\t// in\n    tag_563:\n        /* \"#utility.yul\":21452:21518   */\n      tag_564\n        /* \"#utility.yul\":21514:21516   */\n      0x20\n        /* \"#utility.yul\":21503:21512   */\n      dup4\n        /* \"#utility.yul\":21499:21517   */\n      add\n        /* \"#utility.yul\":21490:21496   */\n      dup6\n        /* \"#utility.yul\":21452:21518   */\n      tag_428\n      jump\t// in\n    tag_564:\n        /* \"#utility.yul\":21528:21594   */\n      tag_565\n        /* \"#utility.yul\":21590:21592   */\n      0x40\n        /* \"#utility.yul\":21579:21588   */\n      dup4\n        /* \"#utility.yul\":21575:21593   */\n      add\n        /* \"#utility.yul\":21566:21572   */\n      dup5\n        /* \"#utility.yul\":21528:21594   */\n      tag_428\n      jump\t// in\n    tag_565:\n        /* \"#utility.yul\":21195:21601   */\n      swap5\n      swap4\n      pop\n      pop\n      pop\n      pop\n      jump\t// out\n        /* \"#utility.yul\":21607:22482   */\n    tag_45:\n        /* \"#utility.yul\":21894:21898   */\n      0x00\n        /* \"#utility.yul\":21932:21935   */\n      0x80\n        /* \"#utility.yul\":21921:21930   */\n      dup3\n        /* \"#utility.yul\":21917:21936   */\n      add\n        /* \"#utility.yul\":21909:21936   */\n      swap1\n      pop\n        /* \"#utility.yul\":21946:22017   */\n      tag_567\n        /* \"#utility.yul\":22014:22015   */\n      0x00\n        /* \"#utility.yul\":22003:22012   */\n      dup4\n        /* \"#utility.yul\":21999:22016   */\n      add\n        /* \"#utility.yul\":21990:21996   */\n      dup8\n        /* \"#utility.yul\":21946:22017   */\n      tag_435\n      jump\t// in\n    tag_567:\n        /* \"#utility.yul\":22064:22073   */\n      dup2\n        /* \"#utility.yul\":22058:22062   */\n      dup2\n        /* \"#utility.yul\":22054:22074   */\n      sub\n        /* \"#utility.yul\":22049:22051   */\n      0x20\n        /* \"#utility.yul\":22038:22047   */\n      dup4\n        /* \"#utility.yul\":22034:22052   */\n      add\n        /* \"#utility.yul\":22027:22075   */\n      mstore\n        /* \"#utility.yul\":22092:22170   */\n      tag_568\n        /* \"#utility.yul\":22165:22169   */\n      dup2\n        /* \"#utility.yul\":22156:22162   */\n      dup7\n        /* \"#utility.yul\":22092:22170   */\n      tag_453\n      jump\t// in\n    tag_568:\n        /* \"#utility.yul\":22084:22170   */\n      swap1\n      pop\n        /* \"#utility.yul\":22180:22252   */\n      tag_569\n        /* \"#utility.yul\":22248:22250   */\n      0x40\n        /* \"#utility.yul\":22237:22246   */\n      dup4\n        /* \"#utility.yul\":22233:22251   */\n      add\n        /* \"#utility.yul\":22224:22230   */\n      dup6\n        /* \"#utility.yul\":22180:22252   */\n      tag_547\n      jump\t// in\n    tag_569:\n        /* \"#utility.yul\":22299:22308   */\n      dup2\n        /* \"#utility.yul\":22293:22297   */\n      dup2\n        /* \"#utility.yul\":22289:22309   */\n      sub\n        /* \"#utility.yul\":22284:22286   */\n      0x60\n        /* \"#utility.yul\":22273:22282   */\n      dup4\n        /* \"#utility.yul\":22269:22287   */\n      add\n        /* \"#utility.yul\":22262:22310   */\n      mstore\n        /* \"#utility.yul\":22327:22475   */\n      tag_570\n        /* \"#utility.yul\":22470:22474   */\n      dup2\n        /* \"#utility.yul\":22461:22467   */\n      dup5\n        /* \"#utility.yul\":22327:22475   */\n      tag_410\n      jump\t// in\n    tag_570:\n        /* \"#utility.yul\":22319:22475   */\n      swap1\n      pop\n        /* \"#utility.yul\":21607:22482   */\n      swap6\n      swap5\n      pop\n      pop\n      pop\n      pop\n      pop\n      jump\t// out\n        /* \"#utility.yul\":22488:22801   */\n    tag_71:\n        /* \"#utility.yul\":22601:22605   */\n      0x00\n        /* \"#utility.yul\":22639:22641   */\n      0x20\n        /* \"#utility.yul\":22628:22637   */\n      dup3\n        /* \"#utility.yul\":22624:22642   */\n      add\n        /* \"#utility.yul\":22616:22642   */\n      swap1\n      pop\n        /* \"#utility.yul\":22688:22697   */\n      dup2\n        /* \"#utility.yul\":22682:22686   */\n      dup2\n        /* \"#utility.yul\":22678:22698   */\n      sub\n        /* \"#utility.yul\":22674:22675   */\n      0x00\n        /* \"#utility.yul\":22663:22672   */\n      dup4\n        /* \"#utility.yul\":22659:22676   */\n      add\n        /* \"#utility.yul\":22652:22699   */\n      mstore\n        /* \"#utility.yul\":22716:22794   */\n      tag_572\n        /* \"#utility.yul\":22789:22793   */\n      dup2\n        /* \"#utility.yul\":22780:22786   */\n      dup5\n        /* \"#utility.yul\":22716:22794   */\n      tag_453\n      jump\t// in\n    tag_572:\n        /* \"#utility.yul\":22708:22794   */\n      swap1\n      pop\n        /* \"#utility.yul\":22488:22801   */\n      swap3\n      swap2\n      pop\n      pop\n      jump\t// out\n        /* \"#utility.yul\":22807:24513   */\n    tag_29:\n        /* \"#utility.yul\":23264:23268   */\n      0x00\n        /* \"#utility.yul\":23302:23305   */\n      0x0180\n        /* \"#utility.yul\":23291:23300   */\n      dup3\n        /* \"#utility.yul\":23287:23306   */\n      add\n        /* \"#utility.yul\":23279:23306   */\n      swap1\n      pop\n        /* \"#utility.yul\":23352:23361   */\n      dup2\n        /* \"#utility.yul\":23346:23350   */\n      dup2\n        /* \"#utility.yul\":23342:23362   */\n      sub\n        /* \"#utility.yul\":23338:23339   */\n      0x00\n        /* \"#utility.yul\":23327:23336   */\n      dup4\n        /* \"#utility.yul\":23323:23340   */\n      add\n        /* \"#utility.yul\":23316:23363   */\n      mstore\n        /* \"#utility.yul\":23380:23458   */\n      tag_574\n        /* \"#utility.yul\":23453:23457   */\n      dup2\n        /* \"#utility.yul\":23444:23450   */\n      dup16\n        /* \"#utility.yul\":23380:23458   */\n      tag_453\n      jump\t// in\n    tag_574:\n        /* \"#utility.yul\":23372:23458   */\n      swap1\n      pop\n        /* \"#utility.yul\":23468:23540   */\n      tag_575\n        /* \"#utility.yul\":23536:23538   */\n      0x20\n        /* \"#utility.yul\":23525:23534   */\n      dup4\n        /* \"#utility.yul\":23521:23539   */\n      add\n        /* \"#utility.yul\":23512:23518   */\n      dup15\n        /* \"#utility.yul\":23468:23540   */\n      tag_407\n      jump\t// in\n    tag_575:\n        /* \"#utility.yul\":23550:23622   */\n      tag_576\n        /* \"#utility.yul\":23618:23620   */\n      0x40\n        /* \"#utility.yul\":23607:23616   */\n      dup4\n        /* \"#utility.yul\":23603:23621   */\n      add\n        /* \"#utility.yul\":23594:23600   */\n      dup14\n        /* \"#utility.yul\":23550:23622   */\n      tag_547\n      jump\t// in\n    tag_576:\n        /* \"#utility.yul\":23632:23704   */\n      tag_577\n        /* \"#utility.yul\":23700:23702   */\n      0x60\n        /* \"#utility.yul\":23689:23698   */\n      dup4\n        /* \"#utility.yul\":23685:23703   */\n      add\n        /* \"#utility.yul\":23676:23682   */\n      dup13\n        /* \"#utility.yul\":23632:23704   */\n      tag_547\n      jump\t// in\n    tag_577:\n        /* \"#utility.yul\":23714:23787   */\n      tag_578\n        /* \"#utility.yul\":23782:23785   */\n      0x80\n        /* \"#utility.yul\":23771:23780   */\n      dup4\n        /* \"#utility.yul\":23767:23786   */\n      add\n        /* \"#utility.yul\":23758:23764   */\n      dup12\n        /* \"#utility.yul\":23714:23787   */\n      tag_547\n      jump\t// in\n    tag_578:\n        /* \"#utility.yul\":23797:23870   */\n      tag_579\n        /* \"#utility.yul\":23865:23868   */\n      0xa0\n        /* \"#utility.yul\":23854:23863   */\n      dup4\n        /* \"#utility.yul\":23850:23869   */\n      add\n        /* \"#utility.yul\":23841:23847   */\n      dup11\n        /* \"#utility.yul\":23797:23870   */\n      tag_547\n      jump\t// in\n    tag_579:\n        /* \"#utility.yul\":23880:23947   */\n      tag_580\n        /* \"#utility.yul\":23942:23945   */\n      0xc0\n        /* \"#utility.yul\":23931:23940   */\n      dup4\n        /* \"#utility.yul\":23927:23946   */\n      add\n        /* \"#utility.yul\":23918:23924   */\n      dup10\n        /* \"#utility.yul\":23880:23947   */\n      tag_428\n      jump\t// in\n    tag_580:\n        /* \"#utility.yul\":23957:24030   */\n      tag_581\n        /* \"#utility.yul\":24025:24028   */\n      0xe0\n        /* \"#utility.yul\":24014:24023   */\n      dup4\n        /* \"#utility.yul\":24010:24029   */\n      add\n        /* \"#utility.yul\":24001:24007   */\n      dup9\n        /* \"#utility.yul\":23957:24030   */\n      tag_435\n      jump\t// in\n    tag_581:\n        /* \"#utility.yul\":24078:24087   */\n      dup2\n        /* \"#utility.yul\":24072:24076   */\n      dup2\n        /* \"#utility.yul\":24068:24088   */\n      sub\n        /* \"#utility.yul\":24062:24065   */\n      0x0100\n        /* \"#utility.yul\":24051:24060   */\n      dup4\n        /* \"#utility.yul\":24047:24066   */\n      add\n        /* \"#utility.yul\":24040:24089   */\n      mstore\n        /* \"#utility.yul\":24106:24184   */\n      tag_582\n        /* \"#utility.yul\":24179:24183   */\n      dup2\n        /* \"#utility.yul\":24170:24176   */\n      dup8\n        /* \"#utility.yul\":24106:24184   */\n      tag_453\n      jump\t// in\n    tag_582:\n        /* \"#utility.yul\":24098:24184   */\n      swap1\n      pop\n        /* \"#utility.yul\":24232:24241   */\n      dup2\n        /* \"#utility.yul\":24226:24230   */\n      dup2\n        /* \"#utility.yul\":24222:24242   */\n      sub\n        /* \"#utility.yul\":24216:24219   */\n      0x0120\n        /* \"#utility.yul\":24205:24214   */\n      dup4\n        /* \"#utility.yul\":24201:24220   */\n      add\n        /* \"#utility.yul\":24194:24243   */\n      mstore\n        /* \"#utility.yul\":24260:24338   */\n      tag_583\n        /* \"#utility.yul\":24333:24337   */\n      dup2\n        /* \"#utility.yul\":24324:24330   */\n      dup7\n        /* \"#utility.yul\":24260:24338   */\n      tag_453\n      jump\t// in\n    tag_583:\n        /* \"#utility.yul\":24252:24338   */\n      swap1\n      pop\n        /* \"#utility.yul\":24348:24422   */\n      tag_584\n        /* \"#utility.yul\":24417:24420   */\n      0x0140\n        /* \"#utility.yul\":24406:24415   */\n      dup4\n        /* \"#utility.yul\":24402:24421   */\n      add\n        /* \"#utility.yul\":24392:24399   */\n      dup6\n        /* \"#utility.yul\":24348:24422   */\n      tag_435\n      jump\t// in\n    tag_584:\n        /* \"#utility.yul\":24432:24506   */\n      tag_585\n        /* \"#utility.yul\":24501:24504   */\n      0x0160\n        /* \"#utility.yul\":24490:24499   */\n      dup4\n        /* \"#utility.yul\":24486:24505   */\n      add\n        /* \"#utility.yul\":24476:24483   */\n      dup5\n        /* \"#utility.yul\":24432:24506   */\n      tag_547\n      jump\t// in\n    tag_585:\n        /* \"#utility.yul\":22807:24513   */\n      swap14\n      swap13\n      pop\n      pop\n      pop\n      pop\n      pop\n      pop\n      pop\n      pop\n      pop\n      pop\n      pop\n      pop\n      pop\n      jump\t// out\n        /* \"#utility.yul\":24519:24938   */\n    tag_169:\n        /* \"#utility.yul\":24685:24689   */\n      0x00\n        /* \"#utility.yul\":24723:24725   */\n      0x20\n        /* \"#utility.yul\":24712:24721   */\n      dup3\n        /* \"#utility.yul\":24708:24726   */\n      add\n        /* \"#utility.yul\":24700:24726   */\n      swap1\n      pop\n        /* \"#utility.yul\":24772:24781   */\n      dup2\n        /* \"#utility.yul\":24766:24770   */\n      dup2\n        /* \"#utility.yul\":24762:24782   */\n      sub\n        /* \"#utility.yul\":24758:24759   */\n      0x00\n        /* \"#utility.yul\":24747:24756   */\n      dup4\n        /* \"#utility.yul\":24743:24760   */\n      add\n        /* \"#utility.yul\":24736:24783   */\n      mstore\n        /* \"#utility.yul\":24800:24931   */\n      tag_587\n        /* \"#utility.yul\":24926:24930   */\n      dup2\n        /* \"#utility.yul\":24800:24931   */\n      tag_465\n      jump\t// in\n    tag_587:\n        /* \"#utility.yul\":24792:24931   */\n      swap1\n      pop\n        /* \"#utility.yul\":24519:24938   */\n      swap2\n      swap1\n      pop\n      jump\t// out\n        /* \"#utility.yul\":24944:25363   */\n    tag_182:\n        /* \"#utility.yul\":25110:25114   */\n      0x00\n        /* \"#utility.yul\":25148:25150   */\n      0x20\n        /* \"#utility.yul\":25137:25146   */\n      dup3\n        /* \"#utility.yul\":25133:25151   */\n      add\n        /* \"#utility.yul\":25125:25151   */\n      swap1\n      pop\n        /* \"#utility.yul\":25197:25206   */\n      dup2\n        /* \"#utility.yul\":25191:25195   */\n      dup2\n        /* \"#utility.yul\":25187:25207   */\n      sub\n        /* \"#utility.yul\":25183:25184   */\n      0x00\n        /* \"#utility.yul\":25172:25181   */\n      dup4\n        /* \"#utility.yul\":25168:25185   */\n      add\n        /* \"#utility.yul\":25161:25208   */\n      mstore\n        /* \"#utility.yul\":25225:25356   */\n      tag_589\n        /* \"#utility.yul\":25351:25355   */\n      dup2\n        /* \"#utility.yul\":25225:25356   */\n      tag_470\n      jump\t// in\n    tag_589:\n        /* \"#utility.yul\":25217:25356   */\n      swap1\n      pop\n        /* \"#utility.yul\":24944:25363   */\n      swap2\n      swap1\n      pop\n      jump\t// out\n        /* \"#utility.yul\":25369:25788   */\n    tag_206:\n        /* \"#utility.yul\":25535:25539   */\n      0x00\n        /* \"#utility.yul\":25573:25575   */\n      0x20\n        /* \"#utility.yul\":25562:25571   */\n      dup3\n        /* \"#utility.yul\":25558:25576   */\n      add\n        /* \"#utility.yul\":25550:25576   */\n      swap1\n      pop\n        /* \"#utility.yul\":25622:25631   */\n      dup2\n        /* \"#utility.yul\":25616:25620   */\n      dup2\n        /* \"#utility.yul\":25612:25632   */\n      sub\n        /* \"#utility.yul\":25608:25609   */\n      0x00\n        /* \"#utility.yul\":25597:25606   */\n      dup4\n        /* \"#utility.yul\":25593:25610   */\n      add\n        /* \"#utility.yul\":25586:25633   */\n      mstore\n        /* \"#utility.yul\":25650:25781   */\n      tag_591\n        /* \"#utility.yul\":25776:25780   */\n      dup2\n        /* \"#utility.yul\":25650:25781   */\n      tag_475\n      jump\t// in\n    tag_591:\n        /* \"#utility.yul\":25642:25781   */\n      swap1\n      pop\n        /* \"#utility.yul\":25369:25788   */\n      swap2\n      swap1\n      pop\n      jump\t// out\n        /* \"#utility.yul\":25794:26213   */\n    tag_113:\n        /* \"#utility.yul\":25960:25964   */\n      0x00\n        /* \"#utility.yul\":25998:26000   */\n      0x20\n        /* \"#utility.yul\":25987:25996   */\n      dup3\n        /* \"#utility.yul\":25983:26001   */\n      add\n        /* \"#utility.yul\":25975:26001   */\n      swap1\n      pop\n        /* \"#utility.yul\":26047:26056   */\n      dup2\n        /* \"#utility.yul\":26041:26045   */\n      dup2\n        /* \"#utility.yul\":26037:26057   */\n      sub\n        /* \"#utility.yul\":26033:26034   */\n      0x00\n        /* \"#utility.yul\":26022:26031   */\n      dup4\n        /* \"#utility.yul\":26018:26035   */\n      add\n        /* \"#utility.yul\":26011:26058   */\n      mstore\n        /* \"#utility.yul\":26075:26206   */\n      tag_593\n        /* \"#utility.yul\":26201:26205   */\n      dup2\n        /* \"#utility.yul\":26075:26206   */\n      tag_480\n      jump\t// in\n    tag_593:\n        /* \"#utility.yul\":26067:26206   */\n      swap1\n      pop\n        /* \"#utility.yul\":25794:26213   */\n      swap2\n      swap1\n      pop\n      jump\t// out\n        /* \"#utility.yul\":26219:26638   */\n    tag_165:\n        /* \"#utility.yul\":26385:26389   */\n      0x00\n        /* \"#utility.yul\":26423:26425   */\n      0x20\n        /* \"#utility.yul\":26412:26421   */\n      dup3\n        /* \"#utility.yul\":26408:26426   */\n      add\n        /* \"#utility.yul\":26400:26426   */\n      swap1\n      pop\n        /* \"#utility.yul\":26472:26481   */\n      dup2\n        /* \"#utility.yul\":26466:26470   */\n      dup2\n        /* \"#utility.yul\":26462:26482   */\n      sub\n        /* \"#utility.yul\":26458:26459   */\n      0x00\n        /* \"#utility.yul\":26447:26456   */\n      dup4\n        /* \"#utility.yul\":26443:26460   */\n      add\n        /* \"#utility.yul\":26436:26483   */\n      mstore\n        /* \"#utility.yul\":26500:26631   */\n      tag_595\n        /* \"#utility.yul\":26626:26630   */\n      dup2\n        /* \"#utility.yul\":26500:26631   */\n      tag_485\n      jump\t// in\n    tag_595:\n        /* \"#utility.yul\":26492:26631   */\n      swap1\n      pop\n        /* \"#utility.yul\":26219:26638   */\n      swap2\n      swap1\n      pop\n      jump\t// out\n        /* \"#utility.yul\":26644:27063   */\n    tag_109:\n        /* \"#utility.yul\":26810:26814   */\n      0x00\n        /* \"#utility.yul\":26848:26850   */\n      0x20\n        /* \"#utility.yul\":26837:26846   */\n      dup3\n        /* \"#utility.yul\":26833:26851   */\n      add\n        /* \"#utility.yul\":26825:26851   */\n      swap1\n      pop\n        /* \"#utility.yul\":26897:26906   */\n      dup2\n        /* \"#utility.yul\":26891:26895   */\n      dup2\n        /* \"#utility.yul\":26887:26907   */\n      sub\n        /* \"#utility.yul\":26883:26884   */\n      0x00\n        /* \"#utility.yul\":26872:26881   */\n      dup4\n        /* \"#utility.yul\":26868:26885   */\n      add\n        /* \"#utility.yul\":26861:26908   */\n      mstore\n        /* \"#utility.yul\":26925:27056   */\n      tag_597\n        /* \"#utility.yul\":27051:27055   */\n      dup2\n        /* \"#utility.yul\":26925:27056   */\n      tag_490\n      jump\t// in\n    tag_597:\n        /* \"#utility.yul\":26917:27056   */\n      swap1\n      pop\n        /* \"#utility.yul\":26644:27063   */\n      swap2\n      swap1\n      pop\n      jump\t// out\n        /* \"#utility.yul\":27069:27488   */\n    tag_173:\n        /* \"#utility.yul\":27235:27239   */\n      0x00\n        /* \"#utility.yul\":27273:27275   */\n      0x20\n        /* \"#utility.yul\":27262:27271   */\n      dup3\n        /* \"#utility.yul\":27258:27276   */\n      add\n        /* \"#utility.yul\":27250:27276   */\n      swap1\n      pop\n        /* \"#utility.yul\":27322:27331   */\n      dup2\n        /* \"#utility.yul\":27316:27320   */\n      dup2\n        /* \"#utility.yul\":27312:27332   */\n      sub\n        /* \"#utility.yul\":27308:27309   */\n      0x00\n        /* \"#utility.yul\":27297:27306   */\n      dup4\n        /* \"#utility.yul\":27293:27310   */\n      add\n        /* \"#utility.yul\":27286:27333   */\n      mstore\n        /* \"#utility.yul\":27350:27481   */\n      tag_599\n        /* \"#utility.yul\":27476:27480   */\n      dup2\n        /* \"#utility.yul\":27350:27481   */\n      tag_495\n      jump\t// in\n    tag_599:\n        /* \"#utility.yul\":27342:27481   */\n      swap1\n      pop\n        /* \"#utility.yul\":27069:27488   */\n      swap2\n      swap1\n      pop\n      jump\t// out\n        /* \"#utility.yul\":27494:27913   */\n    tag_161:\n        /* \"#utility.yul\":27660:27664   */\n      0x00\n        /* \"#utility.yul\":27698:27700   */\n      0x20\n        /* \"#utility.yul\":27687:27696   */\n      dup3\n        /* \"#utility.yul\":27683:27701   */\n      add\n        /* \"#utility.yul\":27675:27701   */\n      swap1\n      pop\n        /* \"#utility.yul\":27747:27756   */\n      dup2\n        /* \"#utility.yul\":27741:27745   */\n      dup2\n        /* \"#utility.yul\":27737:27757   */\n      sub\n        /* \"#utility.yul\":27733:27734   */\n      0x00\n        /* \"#utility.yul\":27722:27731   */\n      dup4\n        /* \"#utility.yul\":27718:27735   */\n      add\n        /* \"#utility.yul\":27711:27758   */\n      mstore\n        /* \"#utility.yul\":27775:27906   */\n      tag_601\n        /* \"#utility.yul\":27901:27905   */\n      dup2\n        /* \"#utility.yul\":27775:27906   */\n      tag_500\n      jump\t// in\n    tag_601:\n        /* \"#utility.yul\":27767:27906   */\n      swap1\n      pop\n        /* \"#utility.yul\":27494:27913   */\n      swap2\n      swap1\n      pop\n      jump\t// out\n        /* \"#utility.yul\":27919:28338   */\n    tag_243:\n        /* \"#utility.yul\":28085:28089   */\n      0x00\n        /* \"#utility.yul\":28123:28125   */\n      0x20\n        /* \"#utility.yul\":28112:28121   */\n      dup3\n        /* \"#utility.yul\":28108:28126   */\n      add\n        /* \"#utility.yul\":28100:28126   */\n      swap1\n      pop\n        /* \"#utility.yul\":28172:28181   */\n      dup2\n        /* \"#utility.yul\":28166:28170   */\n      dup2\n        /* \"#utility.yul\":28162:28182   */\n      sub\n        /* \"#utility.yul\":28158:28159   */\n      0x00\n        /* \"#utility.yul\":28147:28156   */\n      dup4\n        /* \"#utility.yul\":28143:28160   */\n      add\n        /* \"#utility.yul\":28136:28183   */\n      mstore\n        /* \"#utility.yul\":28200:28331   */\n      tag_603\n        /* \"#utility.yul\":28326:28330   */\n      dup2\n        /* \"#utility.yul\":28200:28331   */\n      tag_505\n      jump\t// in\n    tag_603:\n        /* \"#utility.yul\":28192:28331   */\n      swap1\n      pop\n        /* \"#utility.yul\":27919:28338   */\n      swap2\n      swap1\n      pop\n      jump\t// out\n        /* \"#utility.yul\":28344:28763   */\n    tag_144:\n        /* \"#utility.yul\":28510:28514   */\n      0x00\n        /* \"#utility.yul\":28548:28550   */\n      0x20\n        /* \"#utility.yul\":28537:28546   */\n      dup3\n        /* \"#utility.yul\":28533:28551   */\n      add\n        /* \"#utility.yul\":28525:28551   */\n      swap1\n      pop\n        /* \"#utility.yul\":28597:28606   */\n      dup2\n        /* \"#utility.yul\":28591:28595   */\n      dup2\n        /* \"#utility.yul\":28587:28607   */\n      sub\n        /* \"#utility.yul\":28583:28584   */\n      0x00\n        /* \"#utility.yul\":28572:28581   */\n      dup4\n        /* \"#utility.yul\":28568:28585   */\n      add\n        /* \"#utility.yul\":28561:28608   */\n      mstore\n        /* \"#utility.yul\":28625:28756   */\n      tag_605\n        /* \"#utility.yul\":28751:28755   */\n      dup2\n        /* \"#utility.yul\":28625:28756   */\n      tag_510\n      jump\t// in\n    tag_605:\n        /* \"#utility.yul\":28617:28756   */\n      swap1\n      pop\n        /* \"#utility.yul\":28344:28763   */\n      swap2\n      swap1\n      pop\n      jump\t// out\n        /* \"#utility.yul\":28769:29188   */\n    tag_105:\n        /* \"#utility.yul\":28935:28939   */\n      0x00\n        /* \"#utility.yul\":28973:28975   */\n      0x20\n        /* \"#utility.yul\":28962:28971   */\n      dup3\n        /* \"#utility.yul\":28958:28976   */\n      add\n        /* \"#utility.yul\":28950:28976   */\n      swap1\n      pop\n        /* \"#utility.yul\":29022:29031   */\n      dup2\n        /* \"#utility.yul\":29016:29020   */\n      dup2\n        /* \"#utility.yul\":29012:29032   */\n      sub\n        /* \"#utility.yul\":29008:29009   */\n      0x00\n        /* \"#utility.yul\":28997:29006   */\n      dup4\n        /* \"#utility.yul\":28993:29010   */\n      add\n        /* \"#utility.yul\":28986:29033   */\n      mstore\n        /* \"#utility.yul\":29050:29181   */\n      tag_607\n        /* \"#utility.yul\":29176:29180   */\n      dup2\n        /* \"#utility.yul\":29050:29181   */\n      tag_515\n      jump\t// in\n    tag_607:\n        /* \"#utility.yul\":29042:29181   */\n      swap1\n      pop\n        /* \"#utility.yul\":28769:29188   */\n      swap2\n      swap1\n      pop\n      jump\t// out\n        /* \"#utility.yul\":29194:29613   */\n    tag_200:\n        /* \"#utility.yul\":29360:29364   */\n      0x00\n        /* \"#utility.yul\":29398:29400   */\n      0x20\n        /* \"#utility.yul\":29387:29396   */\n      dup3\n        /* \"#utility.yul\":29383:29401   */\n      add\n        /* \"#utility.yul\":29375:29401   */\n      swap1\n      pop\n        /* \"#utility.yul\":29447:29456   */\n      dup2\n        /* \"#utility.yul\":29441:29445   */\n      dup2\n        /* \"#utility.yul\":29437:29457   */\n      sub\n        /* \"#utility.yul\":29433:29434   */\n      0x00\n        /* \"#utility.yul\":29422:29431   */\n      dup4\n        /* \"#utility.yul\":29418:29435   */\n      add\n        /* \"#utility.yul\":29411:29458   */\n      mstore\n        /* \"#utility.yul\":29475:29606   */\n      tag_609\n        /* \"#utility.yul\":29601:29605   */\n      dup2\n        /* \"#utility.yul\":29475:29606   */\n      tag_520\n      jump\t// in\n    tag_609:\n        /* \"#utility.yul\":29467:29606   */\n      swap1\n      pop\n        /* \"#utility.yul\":29194:29613   */\n      swap2\n      swap1\n      pop\n      jump\t// out\n        /* \"#utility.yul\":29619:29988   */\n    tag_76:\n        /* \"#utility.yul\":29760:29764   */\n      0x00\n        /* \"#utility.yul\":29798:29800   */\n      0x20\n        /* \"#utility.yul\":29787:29796   */\n      dup3\n        /* \"#utility.yul\":29783:29801   */\n      add\n        /* \"#utility.yul\":29775:29801   */\n      swap1\n      pop\n        /* \"#utility.yul\":29847:29856   */\n      dup2\n        /* \"#utility.yul\":29841:29845   */\n      dup2\n        /* \"#utility.yul\":29837:29857   */\n      sub\n        /* \"#utility.yul\":29833:29834   */\n      0x00\n        /* \"#utility.yul\":29822:29831   */\n      dup4\n        /* \"#utility.yul\":29818:29835   */\n      add\n        /* \"#utility.yul\":29811:29858   */\n      mstore\n        /* \"#utility.yul\":29875:29981   */\n      tag_611\n        /* \"#utility.yul\":29976:29980   */\n      dup2\n        /* \"#utility.yul\":29967:29973   */\n      dup5\n        /* \"#utility.yul\":29875:29981   */\n      tag_525\n      jump\t// in\n    tag_611:\n        /* \"#utility.yul\":29867:29981   */\n      swap1\n      pop\n        /* \"#utility.yul\":29619:29988   */\n      swap3\n      swap2\n      pop\n      pop\n      jump\t// out\n        /* \"#utility.yul\":29994:30123   */\n    tag_297:\n        /* \"#utility.yul\":30028:30034   */\n      0x00\n        /* \"#utility.yul\":30055:30075   */\n      tag_613\n      tag_614\n      jump\t// in\n    tag_613:\n        /* \"#utility.yul\":30045:30075   */\n      swap1\n      pop\n        /* \"#utility.yul\":30084:30117   */\n      tag_615\n        /* \"#utility.yul\":30112:30116   */\n      dup3\n        /* \"#utility.yul\":30104:30110   */\n      dup3\n        /* \"#utility.yul\":30084:30117   */\n      tag_616\n      jump\t// in\n    tag_615:\n        /* \"#utility.yul\":29994:30123   */\n      swap2\n      swap1\n      pop\n      jump\t// out\n        /* \"#utility.yul\":30129:30204   */\n    tag_614:\n        /* \"#utility.yul\":30162:30168   */\n      0x00\n        /* \"#utility.yul\":30195:30197   */\n      0x40\n        /* \"#utility.yul\":30189:30198   */\n      mload\n        /* \"#utility.yul\":30179:30198   */\n      swap1\n      pop\n        /* \"#utility.yul\":30129:30204   */\n      swap1\n      jump\t// out\n        /* \"#utility.yul\":30210:30518   */\n    tag_296:\n        /* \"#utility.yul\":30272:30276   */\n      0x00\n        /* \"#utility.yul\":30362:30380   */\n      0xffffffffffffffff\n        /* \"#utility.yul\":30354:30360   */\n      dup3\n        /* \"#utility.yul\":30351:30381   */\n      gt\n        /* \"#utility.yul\":30348:30404   */\n      iszero\n      tag_619\n      jumpi\n        /* \"#utility.yul\":30384:30402   */\n      tag_620\n      tag_621\n      jump\t// in\n    tag_620:\n        /* \"#utility.yul\":30348:30404   */\n    tag_619:\n        /* \"#utility.yul\":30422:30451   */\n      tag_622\n        /* \"#utility.yul\":30444:30450   */\n      dup3\n        /* \"#utility.yul\":30422:30451   */\n      tag_452\n      jump\t// in\n    tag_622:\n        /* \"#utility.yul\":30414:30451   */\n      swap1\n      pop\n        /* \"#utility.yul\":30506:30510   */\n      0x20\n        /* \"#utility.yul\":30500:30504   */\n      dup2\n        /* \"#utility.yul\":30496:30511   */\n      add\n        /* \"#utility.yul\":30488:30511   */\n      swap1\n      pop\n        /* \"#utility.yul\":30210:30518   */\n      swap2\n      swap1\n      pop\n      jump\t// out\n        /* \"#utility.yul\":30524:30676   */\n    tag_417:\n        /* \"#utility.yul\":30611:30615   */\n      0x00\n        /* \"#utility.yul\":30634:30637   */\n      dup2\n        /* \"#utility.yul\":30626:30637   */\n      swap1\n      pop\n        /* \"#utility.yul\":30664:30668   */\n      0x20\n        /* \"#utility.yul\":30659:30662   */\n      dup3\n        /* \"#utility.yul\":30655:30669   */\n      add\n        /* \"#utility.yul\":30647:30669   */\n      swap1\n      pop\n        /* \"#utility.yul\":30524:30676   */\n      swap2\n      swap1\n      pop\n      jump\t// out\n        /* \"#utility.yul\":30682:30816   */\n    tag_413:\n        /* \"#utility.yul\":30769:30775   */\n      0x00\n        /* \"#utility.yul\":30803:30808   */\n      dup2\n        /* \"#utility.yul\":30797:30809   */\n      mload\n        /* \"#utility.yul\":30787:30809   */\n      swap1\n      pop\n        /* \"#utility.yul\":30682:30816   */\n      swap2\n      swap1\n      pop\n      jump\t// out\n        /* \"#utility.yul\":30822:30921   */\n    tag_446:\n        /* \"#utility.yul\":30874:30880   */\n      0x00\n        /* \"#utility.yul\":30908:30913   */\n      dup2\n        /* \"#utility.yul\":30902:30914   */\n      mload\n        /* \"#utility.yul\":30892:30914   */\n      swap1\n      pop\n        /* \"#utility.yul\":30822:30921   */\n      swap2\n      swap1\n      pop\n      jump\t// out\n        /* \"#utility.yul\":30927:31060   */\n    tag_423:\n        /* \"#utility.yul\":31017:31021   */\n      0x00\n        /* \"#utility.yul\":31049:31053   */\n      0x20\n        /* \"#utility.yul\":31044:31047   */\n      dup3\n        /* \"#utility.yul\":31040:31054   */\n      add\n        /* \"#utility.yul\":31032:31054   */\n      swap1\n      pop\n        /* \"#utility.yul\":30927:31060   */\n      swap2\n      swap1\n      pop\n      jump\t// out\n        /* \"#utility.yul\":31066:31270   */\n    tag_415:\n        /* \"#utility.yul\":31185:31196   */\n      0x00\n        /* \"#utility.yul\":31219:31225   */\n      dup3\n        /* \"#utility.yul\":31214:31217   */\n      dup3\n        /* \"#utility.yul\":31207:31226   */\n      mstore\n        /* \"#utility.yul\":31259:31263   */\n      0x20\n        /* \"#utility.yul\":31254:31257   */\n      dup3\n        /* \"#utility.yul\":31250:31264   */\n      add\n        /* \"#utility.yul\":31235:31264   */\n      swap1\n      pop\n        /* \"#utility.yul\":31066:31270   */\n      swap3\n      swap2\n      pop\n      pop\n      jump\t// out\n        /* \"#utility.yul\":31276:31435   */\n    tag_448:\n        /* \"#utility.yul\":31350:31361   */\n      0x00\n        /* \"#utility.yul\":31384:31390   */\n      dup3\n        /* \"#utility.yul\":31379:31382   */\n      dup3\n        /* \"#utility.yul\":31372:31391   */\n      mstore\n        /* \"#utility.yul\":31424:31428   */\n      0x20\n        /* \"#utility.yul\":31419:31422   */\n      dup3\n        /* \"#utility.yul\":31415:31429   */\n      add\n        /* \"#utility.yul\":31400:31429   */\n      swap1\n      pop\n        /* \"#utility.yul\":31276:31435   */\n      swap3\n      swap2\n      pop\n      pop\n      jump\t// out\n        /* \"#utility.yul\":31441:31610   */\n    tag_457:\n        /* \"#utility.yul\":31525:31536   */\n      0x00\n        /* \"#utility.yul\":31559:31565   */\n      dup3\n        /* \"#utility.yul\":31554:31557   */\n      dup3\n        /* \"#utility.yul\":31547:31566   */\n      mstore\n        /* \"#utility.yul\":31599:31603   */\n      0x20\n        /* \"#utility.yul\":31594:31597   */\n      dup3\n        /* \"#utility.yul\":31590:31604   */\n      add\n        /* \"#utility.yul\":31575:31604   */\n      swap1\n      pop\n        /* \"#utility.yul\":31441:31610   */\n      swap3\n      swap2\n      pop\n      pop\n      jump\t// out\n        /* \"#utility.yul\":31616:31764   */\n    tag_441:\n        /* \"#utility.yul\":31718:31729   */\n      0x00\n        /* \"#utility.yul\":31755:31758   */\n      dup2\n        /* \"#utility.yul\":31740:31758   */\n      swap1\n      pop\n        /* \"#utility.yul\":31616:31764   */\n      swap3\n      swap2\n      pop\n      pop\n      jump\t// out\n        /* \"#utility.yul\":31770:32075   */\n    tag_119:\n        /* \"#utility.yul\":31810:31813   */\n      0x00\n        /* \"#utility.yul\":31829:31849   */\n      tag_632\n        /* \"#utility.yul\":31847:31848   */\n      dup3\n        /* \"#utility.yul\":31829:31849   */\n      tag_546\n      jump\t// in\n    tag_632:\n        /* \"#utility.yul\":31824:31849   */\n      swap2\n      pop\n        /* \"#utility.yul\":31863:31883   */\n      tag_633\n        /* \"#utility.yul\":31881:31882   */\n      dup4\n        /* \"#utility.yul\":31863:31883   */\n      tag_546\n      jump\t// in\n    tag_633:\n        /* \"#utility.yul\":31858:31883   */\n      swap3\n      pop\n        /* \"#utility.yul\":32017:32018   */\n      dup3\n        /* \"#utility.yul\":31949:32015   */\n      0xffffffffffffffffffffffffffffffffffffffffffffffffffffffffffffffff\n        /* \"#utility.yul\":31945:32019   */\n      sub\n        /* \"#utility.yul\":31942:31943   */\n      dup3\n        /* \"#utility.yul\":31939:32020   */\n      gt\n        /* \"#utility.yul\":31936:32043   */\n      iszero\n      tag_634\n      jumpi\n        /* \"#utility.yul\":32023:32041   */\n      tag_635\n      tag_636\n      jump\t// in\n    tag_635:\n        /* \"#utility.yul\":31936:32043   */\n    tag_634:\n        /* \"#utility.yul\":32067:32068   */\n      dup3\n        /* \"#utility.yul\":32064:32065   */\n      dup3\n        /* \"#utility.yul\":32060:32069   */\n      add\n        /* \"#utility.yul\":32053:32069   */\n      swap1\n      pop\n        /* \"#utility.yul\":31770:32075   */\n      swap3\n      swap2\n      pop\n      pop\n      jump\t// out\n        /* \"#utility.yul\":32081:32266   */\n    tag_210:\n        /* \"#utility.yul\":32121:32122   */\n      0x00\n        /* \"#utility.yul\":32138:32158   */\n      tag_638\n        /* \"#utility.yul\":32156:32157   */\n      dup3\n        /* \"#utility.yul\":32138:32158   */\n      tag_546\n      jump\t// in\n    tag_638:\n        /* \"#utility.yul\":32133:32158   */\n      swap2\n      pop\n        /* \"#utility.yul\":32172:32192   */\n      tag_639\n        /* \"#utility.yul\":32190:32191   */\n      dup4\n        /* \"#utility.yul\":32172:32192   */\n      tag_546\n      jump\t// in\n    tag_639:\n        /* \"#utility.yul\":32167:32192   */\n      swap3\n      pop\n        /* \"#utility.yul\":32211:32212   */\n      dup3\n        /* \"#utility.yul\":32201:32236   */\n      tag_640\n      jumpi\n        /* \"#utility.yul\":32216:32234   */\n      tag_641\n      tag_642\n      jump\t// in\n    tag_641:\n        /* \"#utility.yul\":32201:32236   */\n    tag_640:\n        /* \"#utility.yul\":32258:32259   */\n      dup3\n        /* \"#utility.yul\":32255:32256   */\n      dup3\n        /* \"#utility.yul\":32251:32260   */\n      div\n        /* \"#utility.yul\":32246:32260   */\n      swap1\n      pop\n        /* \"#utility.yul\":32081:32266   */\n      swap3\n      swap2\n      pop\n      pop\n      jump\t// out\n        /* \"#utility.yul\":32272:32620   */\n    tag_212:\n        /* \"#utility.yul\":32312:32319   */\n      0x00\n        /* \"#utility.yul\":32335:32355   */\n      tag_644\n        /* \"#utility.yul\":32353:32354   */\n      dup3\n        /* \"#utility.yul\":32335:32355   */\n      tag_546\n      jump\t// in\n    tag_644:\n        /* \"#utility.yul\":32330:32355   */\n      swap2\n      pop\n        /* \"#utility.yul\":32369:32389   */\n      tag_645\n        /* \"#utility.yul\":32387:32388   */\n      dup4\n        /* \"#utility.yul\":32369:32389   */\n      tag_546\n      jump\t// in\n    tag_645:\n        /* \"#utility.yul\":32364:32389   */\n      swap3\n      pop\n        /* \"#utility.yul\":32557:32558   */\n      dup2\n        /* \"#utility.yul\":32489:32555   */\n      0xffffffffffffffffffffffffffffffffffffffffffffffffffffffffffffffff\n        /* \"#utility.yul\":32485:32559   */\n      div\n        /* \"#utility.yul\":32482:32483   */\n      dup4\n        /* \"#utility.yul\":32479:32560   */\n      gt\n        /* \"#utility.yul\":32474:32475   */\n      dup3\n        /* \"#utility.yul\":32467:32476   */\n      iszero\n        /* \"#utility.yul\":32460:32477   */\n      iszero\n        /* \"#utility.yul\":32456:32561   */\n      and\n        /* \"#utility.yul\":32453:32584   */\n      iszero\n      tag_646\n      jumpi\n        /* \"#utility.yul\":32564:32582   */\n      tag_647\n      tag_636\n      jump\t// in\n    tag_647:\n        /* \"#utility.yul\":32453:32584   */\n    tag_646:\n        /* \"#utility.yul\":32612:32613   */\n      dup3\n        /* \"#utility.yul\":32609:32610   */\n      dup3\n        /* \"#utility.yul\":32605:32614   */\n      mul\n        /* \"#utility.yul\":32594:32614   */\n      swap1\n      pop\n        /* \"#utility.yul\":32272:32620   */\n      swap3\n      swap2\n      pop\n      pop\n      jump\t// out\n        /* \"#utility.yul\":32626:32722   */\n    tag_406:\n        /* \"#utility.yul\":32663:32670   */\n      0x00\n        /* \"#utility.yul\":32692:32716   */\n      tag_649\n        /* \"#utility.yul\":32710:32715   */\n      dup3\n        /* \"#utility.yul\":32692:32716   */\n      tag_650\n      jump\t// in\n    tag_649:\n        /* \"#utility.yul\":32681:32716   */\n      swap1\n      pop\n        /* \"#utility.yul\":32626:32722   */\n      swap2\n      swap1\n      pop\n      jump\t// out\n        /* \"#utility.yul\":32728:32818   */\n    tag_427:\n        /* \"#utility.yul\":32762:32769   */\n      0x00\n        /* \"#utility.yul\":32805:32810   */\n      dup2\n        /* \"#utility.yul\":32798:32811   */\n      iszero\n        /* \"#utility.yul\":32791:32812   */\n      iszero\n        /* \"#utility.yul\":32780:32812   */\n      swap1\n      pop\n        /* \"#utility.yul\":32728:32818   */\n      swap2\n      swap1\n      pop\n      jump\t// out\n        /* \"#utility.yul\":32824:32901   */\n    tag_434:\n        /* \"#utility.yul\":32861:32868   */\n      0x00\n        /* \"#utility.yul\":32890:32895   */\n      dup2\n        /* \"#utility.yul\":32879:32895   */\n      swap1\n      pop\n        /* \"#utility.yul\":32824:32901   */\n      swap2\n      swap1\n      pop\n      jump\t// out\n        /* \"#utility.yul\":32907:33033   */\n    tag_650:\n        /* \"#utility.yul\":32944:32951   */\n      0x00\n        /* \"#utility.yul\":32984:33026   */\n      0xffffffffffffffffffffffffffffffffffffffff\n        /* \"#utility.yul\":32977:32982   */\n      dup3\n        /* \"#utility.yul\":32973:33027   */\n      and\n        /* \"#utility.yul\":32962:33027   */\n      swap1\n      pop\n        /* \"#utility.yul\":32907:33033   */\n      swap2\n      swap1\n      pop\n      jump\t// out\n        /* \"#utility.yul\":33039:33116   */\n    tag_546:\n        /* \"#utility.yul\":33076:33083   */\n      0x00\n        /* \"#utility.yul\":33105:33110   */\n      dup2\n        /* \"#utility.yul\":33094:33110   */\n      swap1\n      pop\n        /* \"#utility.yul\":33039:33116   */\n      swap2\n      swap1\n      pop\n      jump\t// out\n        /* \"#utility.yul\":33122:33208   */\n    tag_655:\n        /* \"#utility.yul\":33157:33164   */\n      0x00\n        /* \"#utility.yul\":33197:33201   */\n      0xff\n        /* \"#utility.yul\":33190:33195   */\n      dup3\n        /* \"#utility.yul\":33186:33202   */\n      and\n        /* \"#utility.yul\":33175:33202   */\n      swap1\n      pop\n        /* \"#utility.yul\":33122:33208   */\n      swap2\n      swap1\n      pop\n      jump\t// out\n        /* \"#utility.yul\":33214:33368   */\n    tag_302:\n        /* \"#utility.yul\":33298:33304   */\n      dup3\n        /* \"#utility.yul\":33293:33296   */\n      dup2\n        /* \"#utility.yul\":33288:33291   */\n      dup4\n        /* \"#utility.yul\":33275:33305   */\n      calldatacopy\n        /* \"#utility.yul\":33360:33361   */\n      0x00\n        /* \"#utility.yul\":33351:33357   */\n      dup4\n        /* \"#utility.yul\":33346:33349   */\n      dup4\n        /* \"#utility.yul\":33342:33358   */\n      add\n        /* \"#utility.yul\":33335:33362   */\n      mstore\n        /* \"#utility.yul\":33214:33368   */\n      pop\n      pop\n      pop\n      jump\t// out\n        /* \"#utility.yul\":33374:33681   */\n    tag_450:\n        /* \"#utility.yul\":33442:33443   */\n      0x00\n        /* \"#utility.yul\":33452:33565   */\n    tag_659:\n        /* \"#utility.yul\":33466:33472   */\n      dup4\n        /* \"#utility.yul\":33463:33464   */\n      dup2\n        /* \"#utility.yul\":33460:33473   */\n      lt\n        /* \"#utility.yul\":33452:33565   */\n      iszero\n      tag_661\n      jumpi\n        /* \"#utility.yul\":33551:33552   */\n      dup1\n        /* \"#utility.yul\":33546:33549   */\n      dup3\n        /* \"#utility.yul\":33542:33553   */\n      add\n        /* \"#utility.yul\":33536:33554   */\n      mload\n        /* \"#utility.yul\":33532:33533   */\n      dup2\n        /* \"#utility.yul\":33527:33530   */\n      dup5\n        /* \"#utility.yul\":33523:33534   */\n      add\n        /* \"#utility.yul\":33516:33555   */\n      mstore\n        /* \"#utility.yul\":33488:33490   */\n      0x20\n        /* \"#utility.yul\":33485:33486   */\n      dup2\n        /* \"#utility.yul\":33481:33491   */\n      add\n        /* \"#utility.yul\":33476:33491   */\n      swap1\n      pop\n        /* \"#utility.yul\":33452:33565   */\n      jump(tag_659)\n    tag_661:\n        /* \"#utility.yul\":33583:33589   */\n      dup4\n        /* \"#utility.yul\":33580:33581   */\n      dup2\n        /* \"#utility.yul\":33577:33590   */\n      gt\n        /* \"#utility.yul\":33574:33675   */\n      iszero\n      tag_662\n      jumpi\n        /* \"#utility.yul\":33663:33664   */\n      0x00\n        /* \"#utility.yul\":33654:33660   */\n      dup5\n        /* \"#utility.yul\":33649:33652   */\n      dup5\n        /* \"#utility.yul\":33645:33661   */\n      add\n        /* \"#utility.yul\":33638:33665   */\n      mstore\n        /* \"#utility.yul\":33574:33675   */\n    tag_662:\n        /* \"#utility.yul\":33423:33681   */\n      pop\n        /* \"#utility.yul\":33374:33681   */\n      pop\n      pop\n      pop\n      jump\t// out\n        /* \"#utility.yul\":33687:34007   */\n    tag_85:\n        /* \"#utility.yul\":33731:33737   */\n      0x00\n        /* \"#utility.yul\":33768:33769   */\n      0x02\n        /* \"#utility.yul\":33762:33766   */\n      dup3\n        /* \"#utility.yul\":33758:33770   */\n      div\n        /* \"#utility.yul\":33748:33770   */\n      swap1\n      pop\n        /* \"#utility.yul\":33815:33816   */\n      0x01\n        /* \"#utility.yul\":33809:33813   */\n      dup3\n        /* \"#utility.yul\":33805:33817   */\n      and\n        /* \"#utility.yul\":33836:33854   */\n      dup1\n        /* \"#utility.yul\":33826:33907   */\n      tag_664\n      jumpi\n        /* \"#utility.yul\":33892:33896   */\n      0x7f\n        /* \"#utility.yul\":33884:33890   */\n      dup3\n        /* \"#utility.yul\":33880:33897   */\n      and\n        /* \"#utility.yul\":33870:33897   */\n      swap2\n      pop\n        /* \"#utility.yul\":33826:33907   */\n    tag_664:\n        /* \"#utility.yul\":33954:33956   */\n      0x20\n        /* \"#utility.yul\":33946:33952   */\n      dup3\n        /* \"#utility.yul\":33943:33957   */\n      lt\n        /* \"#utility.yul\":33923:33941   */\n      dup2\n        /* \"#utility.yul\":33920:33958   */\n      eq\n        /* \"#utility.yul\":33917:34001   */\n      iszero\n      tag_665\n      jumpi\n        /* \"#utility.yul\":33973:33991   */\n      tag_666\n      tag_667\n      jump\t// in\n    tag_666:\n        /* \"#utility.yul\":33917:34001   */\n    tag_665:\n        /* \"#utility.yul\":33738:34007   */\n      pop\n        /* \"#utility.yul\":33687:34007   */\n      swap2\n      swap1\n      pop\n      jump\t// out\n        /* \"#utility.yul\":34013:34294   */\n    tag_616:\n        /* \"#utility.yul\":34096:34123   */\n      tag_669\n        /* \"#utility.yul\":34118:34122   */\n      dup3\n        /* \"#utility.yul\":34096:34123   */\n      tag_452\n      jump\t// in\n    tag_669:\n        /* \"#utility.yul\":34088:34094   */\n      dup2\n        /* \"#utility.yul\":34084:34124   */\n      add\n        /* \"#utility.yul\":34226:34232   */\n      dup2\n        /* \"#utility.yul\":34214:34224   */\n      dup2\n        /* \"#utility.yul\":34211:34233   */\n      lt\n        /* \"#utility.yul\":34190:34208   */\n      0xffffffffffffffff\n        /* \"#utility.yul\":34178:34188   */\n      dup3\n        /* \"#utility.yul\":34175:34209   */\n      gt\n        /* \"#utility.yul\":34172:34234   */\n      or\n        /* \"#utility.yul\":34169:34257   */\n      iszero\n      tag_670\n      jumpi\n        /* \"#utility.yul\":34237:34255   */\n      tag_671\n      tag_621\n      jump\t// in\n    tag_671:\n        /* \"#utility.yul\":34169:34257   */\n    tag_670:\n        /* \"#utility.yul\":34277:34287   */\n      dup1\n        /* \"#utility.yul\":34273:34275   */\n      0x40\n        /* \"#utility.yul\":34266:34288   */\n      mstore\n        /* \"#utility.yul\":34056:34294   */\n      pop\n        /* \"#utility.yul\":34013:34294   */\n      pop\n      pop\n      jump\t// out\n        /* \"#utility.yul\":34300:34467   */\n    tag_235:\n        /* \"#utility.yul\":34337:34340   */\n      0x00\n        /* \"#utility.yul\":34360:34382   */\n      tag_673\n        /* \"#utility.yul\":34376:34381   */\n      dup3\n        /* \"#utility.yul\":34360:34382   */\n      tag_655\n      jump\t// in\n    tag_673:\n        /* \"#utility.yul\":34351:34382   */\n      swap2\n      pop\n        /* \"#utility.yul\":34404:34408   */\n      0xff\n        /* \"#utility.yul\":34397:34402   */\n      dup3\n        /* \"#utility.yul\":34394:34409   */\n      eq\n        /* \"#utility.yul\":34391:34432   */\n      iszero\n      tag_674\n      jumpi\n        /* \"#utility.yul\":34412:34430   */\n      tag_675\n      tag_636\n      jump\t// in\n    tag_675:\n        /* \"#utility.yul\":34391:34432   */\n    tag_674:\n        /* \"#utility.yul\":34459:34460   */\n      0x01\n        /* \"#utility.yul\":34452:34457   */\n      dup3\n        /* \"#utility.yul\":34448:34461   */\n      add\n        /* \"#utility.yul\":34441:34461   */\n      swap1\n      pop\n        /* \"#utility.yul\":34300:34467   */\n      swap2\n      swap1\n      pop\n      jump\t// out\n        /* \"#utility.yul\":34473:34653   */\n    tag_636:\n        /* \"#utility.yul\":34521:34598   */\n      0x4e487b7100000000000000000000000000000000000000000000000000000000\n        /* \"#utility.yul\":34518:34519   */\n      0x00\n        /* \"#utility.yul\":34511:34599   */\n      mstore\n        /* \"#utility.yul\":34618:34622   */\n      0x11\n        /* \"#utility.yul\":34615:34616   */\n      0x04\n        /* \"#utility.yul\":34608:34623   */\n      mstore\n        /* \"#utility.yul\":34642:34646   */\n      0x24\n        /* \"#utility.yul\":34639:34640   */\n      0x00\n        /* \"#utility.yul\":34632:34647   */\n      revert\n        /* \"#utility.yul\":34659:34839   */\n    tag_642:\n        /* \"#utility.yul\":34707:34784   */\n      0x4e487b7100000000000000000000000000000000000000000000000000000000\n        /* \"#utility.yul\":34704:34705   */\n      0x00\n        /* \"#utility.yul\":34697:34785   */\n      mstore\n        /* \"#utility.yul\":34804:34808   */\n      0x12\n        /* \"#utility.yul\":34801:34802   */\n      0x04\n        /* \"#utility.yul\":34794:34809   */\n      mstore\n        /* \"#utility.yul\":34828:34832   */\n      0x24\n        /* \"#utility.yul\":34825:34826   */\n      0x00\n        /* \"#utility.yul\":34818:34833   */\n      revert\n        /* \"#utility.yul\":34845:35025   */\n    tag_667:\n        /* \"#utility.yul\":34893:34970   */\n      0x4e487b7100000000000000000000000000000000000000000000000000000000\n        /* \"#utility.yul\":34890:34891   */\n      0x00\n        /* \"#utility.yul\":34883:34971   */\n      mstore\n        /* \"#utility.yul\":34990:34994   */\n      0x22\n        /* \"#utility.yul\":34987:34988   */\n      0x04\n        /* \"#utility.yul\":34980:34995   */\n      mstore\n        /* \"#utility.yul\":35014:35018   */\n      0x24\n        /* \"#utility.yul\":35011:35012   */\n      0x00\n        /* \"#utility.yul\":35004:35019   */\n      revert\n        /* \"#utility.yul\":35031:35211   */\n    tag_224:\n        /* \"#utility.yul\":35079:35156   */\n      0x4e487b7100000000000000000000000000000000000000000000000000000000\n        /* \"#utility.yul\":35076:35077   */\n      0x00\n        /* \"#utility.yul\":35069:35157   */\n      mstore\n        /* \"#utility.yul\":35176:35180   */\n      0x32\n        /* \"#utility.yul\":35173:35174   */\n      0x04\n        /* \"#utility.yul\":35166:35181   */\n      mstore\n        /* \"#utility.yul\":35200:35204   */\n      0x24\n        /* \"#utility.yul\":35197:35198   */\n      0x00\n        /* \"#utility.yul\":35190:35205   */\n      revert\n        /* \"#utility.yul\":35217:35397   */\n    tag_621:\n        /* \"#utility.yul\":35265:35342   */\n      0x4e487b7100000000000000000000000000000000000000000000000000000000\n        /* \"#utility.yul\":35262:35263   */\n      0x00\n        /* \"#utility.yul\":35255:35343   */\n      mstore\n        /* \"#utility.yul\":35362:35366   */\n      0x41\n        /* \"#utility.yul\":35359:35360   */\n      0x04\n        /* \"#utility.yul\":35352:35367   */\n      mstore\n        /* \"#utility.yul\":35386:35390   */\n      0x24\n        /* \"#utility.yul\":35383:35384   */\n      0x00\n        /* \"#utility.yul\":35376:35391   */\n      revert\n        /* \"#utility.yul\":35403:35520   */\n    tag_318:\n        /* \"#utility.yul\":35512:35513   */\n      0x00\n        /* \"#utility.yul\":35509:35510   */\n      dup1\n        /* \"#utility.yul\":35502:35514   */\n      revert\n        /* \"#utility.yul\":35526:35643   */\n    tag_315:\n        /* \"#utility.yul\":35635:35636   */\n      0x00\n        /* \"#utility.yul\":35632:35633   */\n      dup1\n        /* \"#utility.yul\":35625:35637   */\n      revert\n        /* \"#utility.yul\":35649:35766   */\n    tag_321:\n        /* \"#utility.yul\":35758:35759   */\n      0x00\n        /* \"#utility.yul\":35755:35756   */\n      dup1\n        /* \"#utility.yul\":35748:35760   */\n      revert\n        /* \"#utility.yul\":35772:35889   */\n    tag_300:\n        /* \"#utility.yul\":35881:35882   */\n      0x00\n        /* \"#utility.yul\":35878:35879   */\n      dup1\n        /* \"#utility.yul\":35871:35883   */\n      revert\n        /* \"#utility.yul\":35895:36012   */\n    tag_338:\n        /* \"#utility.yul\":36004:36005   */\n      0x00\n        /* \"#utility.yul\":36001:36002   */\n      dup1\n        /* \"#utility.yul\":35994:36006   */\n      revert\n        /* \"#utility.yul\":36018:36135   */\n    tag_334:\n        /* \"#utility.yul\":36127:36128   */\n      0x00\n        /* \"#utility.yul\":36124:36125   */\n      dup1\n        /* \"#utility.yul\":36117:36129   */\n      revert\n        /* \"#utility.yul\":36141:36243   */\n    tag_452:\n        /* \"#utility.yul\":36182:36188   */\n      0x00\n        /* \"#utility.yul\":36233:36235   */\n      0x1f\n        /* \"#utility.yul\":36229:36236   */\n      not\n        /* \"#utility.yul\":36224:36226   */\n      0x1f\n        /* \"#utility.yul\":36217:36222   */\n      dup4\n        /* \"#utility.yul\":36213:36227   */\n      add\n        /* \"#utility.yul\":36209:36237   */\n      and\n        /* \"#utility.yul\":36199:36237   */\n      swap1\n      pop\n        /* \"#utility.yul\":36141:36243   */\n      swap2\n      swap1\n      pop\n      jump\t// out\n        /* \"#utility.yul\":36249:36430   */\n    tag_469:\n        /* \"#utility.yul\":36389:36422   */\n      0x526563697069656e7420697320616c7265616479207265676973746572656400\n        /* \"#utility.yul\":36385:36386   */\n      0x00\n        /* \"#utility.yul\":36377:36383   */\n      dup3\n        /* \"#utility.yul\":36373:36387   */\n      add\n        /* \"#utility.yul\":36366:36423   */\n      mstore\n        /* \"#utility.yul\":36249:36430   */\n      pop\n      jump\t// out\n        /* \"#utility.yul\":36436:36611   */\n    tag_474:\n        /* \"#utility.yul\":36576:36603   */\n      0x50726f706f73616c20616c726561647920637265617465642100000000000000\n        /* \"#utility.yul\":36572:36573   */\n      0x00\n        /* \"#utility.yul\":36564:36570   */\n      dup3\n        /* \"#utility.yul\":36560:36574   */\n      add\n        /* \"#utility.yul\":36553:36604   */\n      mstore\n        /* \"#utility.yul\":36436:36611   */\n      pop\n      jump\t// out\n        /* \"#utility.yul\":36617:36842   */\n    tag_479:\n        /* \"#utility.yul\":36757:36791   */\n      0x596f75206172656e277420617574686f72697a6520746f20636f6d70696c6520\n        /* \"#utility.yul\":36753:36754   */\n      0x00\n        /* \"#utility.yul\":36745:36751   */\n      dup3\n        /* \"#utility.yul\":36741:36755   */\n      add\n        /* \"#utility.yul\":36734:36792   */\n      mstore\n        /* \"#utility.yul\":36826:36834   */\n      0x42756e646c650000000000000000000000000000000000000000000000000000\n        /* \"#utility.yul\":36821:36823   */\n      0x20\n        /* \"#utility.yul\":36813:36819   */\n      dup3\n        /* \"#utility.yul\":36809:36824   */\n      add\n        /* \"#utility.yul\":36802:36835   */\n      mstore\n        /* \"#utility.yul\":36617:36842   */\n      pop\n      jump\t// out\n        /* \"#utility.yul\":36848:37026   */\n    tag_484:\n        /* \"#utility.yul\":36988:37018   */\n      0x596f7520616c72656164792073656e74206120726573706f6e73652e00000000\n        /* \"#utility.yul\":36984:36985   */\n      0x00\n        /* \"#utility.yul\":36976:36982   */\n      dup3\n        /* \"#utility.yul\":36972:36986   */\n      add\n        /* \"#utility.yul\":36965:37019   */\n      mstore\n        /* \"#utility.yul\":36848:37026   */\n      pop\n      jump\t// out\n        /* \"#utility.yul\":37032:37203   */\n    tag_489:\n        /* \"#utility.yul\":37172:37195   */\n      0x496e69746961746f722063616e277420766f7465210000000000000000000000\n        /* \"#utility.yul\":37168:37169   */\n      0x00\n        /* \"#utility.yul\":37160:37166   */\n      dup3\n        /* \"#utility.yul\":37156:37170   */\n      add\n        /* \"#utility.yul\":37149:37196   */\n      mstore\n        /* \"#utility.yul\":37032:37203   */\n      pop\n      jump\t// out\n        /* \"#utility.yul\":37209:37389   */\n    tag_494:\n        /* \"#utility.yul\":37349:37381   */\n      0x596f7520617265206e6f74207265676973746572656420746f20766f74650000\n        /* \"#utility.yul\":37345:37346   */\n      0x00\n        /* \"#utility.yul\":37337:37343   */\n      dup3\n        /* \"#utility.yul\":37333:37347   */\n      add\n        /* \"#utility.yul\":37326:37382   */\n      mstore\n        /* \"#utility.yul\":37209:37389   */\n      pop\n      jump\t// out\n        /* \"#utility.yul\":37395:37618   */\n    tag_499:\n        /* \"#utility.yul\":37535:37569   */\n      0x50726f706f73616c206861732072656163686564206974732065787069727920\n        /* \"#utility.yul\":37531:37532   */\n      0x00\n        /* \"#utility.yul\":37523:37529   */\n      dup3\n        /* \"#utility.yul\":37519:37533   */\n      add\n        /* \"#utility.yul\":37512:37570   */\n      mstore\n        /* \"#utility.yul\":37604:37610   */\n      0x6461746500000000000000000000000000000000000000000000000000000000\n        /* \"#utility.yul\":37599:37601   */\n      0x20\n        /* \"#utility.yul\":37591:37597   */\n      dup3\n        /* \"#utility.yul\":37587:37602   */\n      add\n        /* \"#utility.yul\":37580:37611   */\n      mstore\n        /* \"#utility.yul\":37395:37618   */\n      pop\n      jump\t// out\n        /* \"#utility.yul\":37624:37851   */\n    tag_504:\n        /* \"#utility.yul\":37764:37798   */\n      0x4f6e6c7920696e69746961746f722063616e2072656769737465722061207265\n        /* \"#utility.yul\":37760:37761   */\n      0x00\n        /* \"#utility.yul\":37752:37758   */\n      dup3\n        /* \"#utility.yul\":37748:37762   */\n      add\n        /* \"#utility.yul\":37741:37799   */\n      mstore\n        /* \"#utility.yul\":37833:37843   */\n      0x63697069656e742e000000000000000000000000000000000000000000000000\n        /* \"#utility.yul\":37828:37830   */\n      0x20\n        /* \"#utility.yul\":37820:37826   */\n      dup3\n        /* \"#utility.yul\":37816:37831   */\n      add\n        /* \"#utility.yul\":37809:37844   */\n      mstore\n        /* \"#utility.yul\":37624:37851   */\n      pop\n      jump\t// out\n        /* \"#utility.yul\":37857:38027   */\n    tag_509:\n        /* \"#utility.yul\":37997:38019   */\n      0x596f75206172656e277420496e69746961746f72000000000000000000000000\n        /* \"#utility.yul\":37993:37994   */\n      0x00\n        /* \"#utility.yul\":37985:37991   */\n      dup3\n        /* \"#utility.yul\":37981:37995   */\n      add\n        /* \"#utility.yul\":37974:38020   */\n      mstore\n        /* \"#utility.yul\":37857:38027   */\n      pop\n      jump\t// out\n        /* \"#utility.yul\":38033:38215   */\n    tag_514:\n        /* \"#utility.yul\":38173:38207   */\n      0x5665726469637420686173206e6f74206265656e207265616368656420796574\n        /* \"#utility.yul\":38169:38170   */\n      0x00\n        /* \"#utility.yul\":38161:38167   */\n      dup3\n        /* \"#utility.yul\":38157:38171   */\n      add\n        /* \"#utility.yul\":38150:38208   */\n      mstore\n        /* \"#utility.yul\":38033:38215   */\n      pop\n      jump\t// out\n        /* \"#utility.yul\":38221:38389   */\n    tag_519:\n        /* \"#utility.yul\":38361:38381   */\n      0x566f74696e672068617320657870697265640000000000000000000000000000\n        /* \"#utility.yul\":38357:38358   */\n      0x00\n        /* \"#utility.yul\":38349:38355   */\n      dup3\n        /* \"#utility.yul\":38345:38359   */\n      add\n        /* \"#utility.yul\":38338:38382   */\n      mstore\n        /* \"#utility.yul\":38221:38389   */\n      pop\n      jump\t// out\n        /* \"#utility.yul\":38395:38619   */\n    tag_524:\n        /* \"#utility.yul\":38535:38569   */\n      0x436f6e73656e7375732068617320616c7265616479206265656e2063616c6375\n        /* \"#utility.yul\":38531:38532   */\n      0x00\n        /* \"#utility.yul\":38523:38529   */\n      dup3\n        /* \"#utility.yul\":38519:38533   */\n      add\n        /* \"#utility.yul\":38512:38570   */\n      mstore\n        /* \"#utility.yul\":38604:38611   */\n      0x6c61746564000000000000000000000000000000000000000000000000000000\n        /* \"#utility.yul\":38599:38601   */\n      0x20\n        /* \"#utility.yul\":38591:38597   */\n      dup3\n        /* \"#utility.yul\":38587:38602   */\n      add\n        /* \"#utility.yul\":38580:38612   */\n      mstore\n        /* \"#utility.yul\":38395:38619   */\n      pop\n      jump\t// out\n        /* \"#utility.yul\":38625:38747   */\n    tag_306:\n        /* \"#utility.yul\":38698:38722   */\n      tag_701\n        /* \"#utility.yul\":38716:38721   */\n      dup2\n        /* \"#utility.yul\":38698:38722   */\n      tag_406\n      jump\t// in\n    tag_701:\n        /* \"#utility.yul\":38691:38696   */\n      dup2\n        /* \"#utility.yul\":38688:38723   */\n      eq\n        /* \"#utility.yul\":38678:38741   */\n      tag_702\n      jumpi\n        /* \"#utility.yul\":38737:38738   */\n      0x00\n        /* \"#utility.yul\":38734:38735   */\n      dup1\n        /* \"#utility.yul\":38727:38739   */\n      revert\n        /* \"#utility.yul\":38678:38741   */\n    tag_702:\n        /* \"#utility.yul\":38625:38747   */\n      pop\n      jump\t// out\n        /* \"#utility.yul\":38753:38875   */\n    tag_310:\n        /* \"#utility.yul\":38826:38850   */\n      tag_704\n        /* \"#utility.yul\":38844:38849   */\n      dup2\n        /* \"#utility.yul\":38826:38850   */\n      tag_434\n      jump\t// in\n    tag_704:\n        /* \"#utility.yul\":38819:38824   */\n      dup2\n        /* \"#utility.yul\":38816:38851   */\n      eq\n        /* \"#utility.yul\":38806:38869   */\n      tag_705\n      jumpi\n        /* \"#utility.yul\":38865:38866   */\n      0x00\n        /* \"#utility.yul\":38862:38863   */\n      dup1\n        /* \"#utility.yul\":38855:38867   */\n      revert\n        /* \"#utility.yul\":38806:38869   */\n    tag_705:\n        /* \"#utility.yul\":38753:38875   */\n      pop\n      jump\t// out\n        /* \"#utility.yul\":38881:39003   */\n    tag_330:\n        /* \"#utility.yul\":38954:38978   */\n      tag_707\n        /* \"#utility.yul\":38972:38977   */\n      dup2\n        /* \"#utility.yul\":38954:38978   */\n      tag_546\n      jump\t// in\n    tag_707:\n        /* \"#utility.yul\":38947:38952   */\n      dup2\n        /* \"#utility.yul\":38944:38979   */\n      eq\n        /* \"#utility.yul\":38934:38997   */\n      tag_708\n      jumpi\n        /* \"#utility.yul\":38993:38994   */\n      0x00\n        /* \"#utility.yul\":38990:38991   */\n      dup1\n        /* \"#utility.yul\":38983:38995   */\n      revert\n        /* \"#utility.yul\":38934:38997   */\n    tag_708:\n        /* \"#utility.yul\":38881:39003   */\n      pop\n      jump\t// out\n\n    auxdata: 0xa2646970667358221220cedf8d64330d78d4cfc2d1b8100677927f3e8c3c835e964a15932674f1d7227f64736f6c63430008070033\n}\n",
				"bytecode": {
					"linkReferences": {},
					"object": "608060405234801561001057600080fd5b50613bc6806100206000396000f3fe608060405234801561001057600080fd5b50600436106100cf5760003560e01c80637aa18f881161008c5780639d6a3125116100665780639d6a312514610246578063c99ba89614610278578063c9bc42ed146102a8578063ec548680146102d8576100cf565b80637aa18f88146101dc578063883a9673146101f85780638f6a35b714610214576100cf565b806306699b01146100d4578063089a4c601461010457806317072d6b1461013f57806333a0b0ab1461015b57806337f2e1901461018d5780633d63af0e146101c0575b600080fd5b6100ee60048036038101906100e99190612aaf565b610308565b6040516100fb919061314d565b60405180910390f35b61011e6004803603810190610119919061298e565b61036c565b6040516101369c9b9a99989796959493929190613266565b60405180910390f35b61015960048036038101906101549190612a33565b6105a7565b005b610175600480360381019061017091906129d7565b610f4c565b60405161018493929190613183565b60405180910390f35b6101a760048036038101906101a29190612941565b610fd3565b6040516101b794939291906131f1565b60405180910390f35b6101da60048036038101906101d591906128e1565b611259565b005b6101f660048036038101906101f19190612b8e565b6116ba565b005b610212600480360381019061020d9190612941565b611a63565b005b61022e60048036038101906102299190612aaf565b6120a2565b60405161023d93929190613183565b60405180910390f35b610260600480360381019061025b9190612b0b565b612135565b60405161026f939291906131ba565b60405180910390f35b610292600480360381019061028d9190612941565b612321565b60405161029f9190613244565b60405180910390f35b6102c260048036038101906102bd9190612941565b6123d7565b6040516102cf91906134b5565b60405180910390f35b6102f260048036038101906102ed9190612941565b612680565b6040516102ff9190613168565b60405180910390f35b600382805160208101820180518482526020830160208501208183528095505050505050818154811061033a57600080fd5b906000526020600020016000915091509054906101000a900473ffffffffffffffffffffffffffffffffffffffff1681565b6000818051602081018201805184825260208301602085012081835280955050505050506000915090508060000180546103a590613720565b80601f01602080910402602001604051908101604052809291908181526020018280546103d190613720565b801561041e5780601f106103f35761010080835404028352916020019161041e565b820191906000526020600020905b81548152906001019060200180831161040157829003601f168201915b5050505050908060010160009054906101000a900473ffffffffffffffffffffffffffffffffffffffff16908060020154908060030154908060040154908060050154908060060160009054906101000a900460ff169080600701549080600801805461048a90613720565b80601f01602080910402602001604051908101604052809291908181526020018280546104b690613720565b80156105035780601f106104d857610100808354040283529160200191610503565b820191906000526020600020905b8154815290600101906020018083116104e657829003601f168201915b50505050509080600901805461051890613720565b80601f016020809104026020016040519081016040528092919081815260200182805461054490613720565b80156105915780601f1061056657610100808354040283529160200191610591565b820191906000526020600020905b81548152906001019060200180831161057457829003601f168201915b50505050509080600a01549080600b015490508c565b600082826040516105b992919061311d565b908152602001604051809103902060030154421061060c576040517f08c379a000000000000000000000000000000000000000000000000000000000815260040161060390613475565b60405180910390fd5b600073ffffffffffffffffffffffffffffffffffffffff166001838360405161063692919061311d565b908152602001604051809103902060003373ffffffffffffffffffffffffffffffffffffffff1673ffffffffffffffffffffffffffffffffffffffff16815260200190815260200160002060000160029054906101000a900473ffffffffffffffffffffffffffffffffffffffff1673ffffffffffffffffffffffffffffffffffffffff1614156106fc576040517f08c379a00000000000000000000000000000000000000000000000000000000081526004016106f3906133d5565b60405180910390fd5b6001828260405161070e92919061311d565b908152602001604051809103902060003373ffffffffffffffffffffffffffffffffffffffff1673ffffffffffffffffffffffffffffffffffffffff16815260200190815260200160002060000160009054906101000a900460ff16156107aa576040517f08c379a00000000000000000000000000000000000000000000000000000000081526004016107a190613395565b60405180910390fd5b6040518060400160405280600981526020017f6920617070726f766500000000000000000000000000000000000000000000008152508051906020012083805190602001201415610ac557600180838360405161080892919061311d565b908152602001604051809103902060003373ffffffffffffffffffffffffffffffffffffffff1673ffffffffffffffffffffffffffffffffffffffff16815260200190815260200160002060000160006101000a81548160ff021916908315150217905550600180838360405161088092919061311d565b908152602001604051809103902060003373ffffffffffffffffffffffffffffffffffffffff1673ffffffffffffffffffffffffffffffffffffffff16815260200190815260200160002060000160016101000a81548160ff0219169083151502179055506001600083836040516108f992919061311d565b90815260200160405180910390206005016000828254610919919061359e565b9250508190555060016000838360405161093492919061311d565b90815260200160405180910390206002016000828254610954919061359e565b925050819055506002828260405161096d92919061311d565b90815260200160405180910390206001838360405161098d92919061311d565b908152602001604051809103902060003373ffffffffffffffffffffffffffffffffffffffff1673ffffffffffffffffffffffffffffffffffffffff168152602001908152602001600020908060018154018082558091505060019003906000526020600020016000909190919091506000820160009054906101000a900460ff168160000160006101000a81548160ff0219169083151502179055506000820160019054906101000a900460ff168160000160016101000a81548160ff0219169083151502179055506000820160029054906101000a900473ffffffffffffffffffffffffffffffffffffffff168160000160026101000a81548173ffffffffffffffffffffffffffffffffffffffff021916908373ffffffffffffffffffffffffffffffffffffffff1602179055505050610f47565b6040518060400160405280600c81526020017f6920646973617070726f766500000000000000000000000000000000000000008152508051906020012083805190602001201415610d2d576001808383604051610b2392919061311d565b908152602001604051809103902060003373ffffffffffffffffffffffffffffffffffffffff1673ffffffffffffffffffffffffffffffffffffffff16815260200190815260200160002060000160006101000a81548160ff021916908315150217905550600160008383604051610b9c92919061311d565b90815260200160405180910390206002016000828254610bbc919061359e565b9250508190555060028282604051610bd592919061311d565b908152602001604051809103902060018383604051610bf592919061311d565b908152602001604051809103902060003373ffffffffffffffffffffffffffffffffffffffff1673ffffffffffffffffffffffffffffffffffffffff168152602001908152602001600020908060018154018082558091505060019003906000526020600020016000909190919091506000820160009054906101000a900460ff168160000160006101000a81548160ff0219169083151502179055506000820160019054906101000a900460ff168160000160016101000a81548160ff0219169083151502179055506000820160029054906101000a900473ffffffffffffffffffffffffffffffffffffffff168160000160026101000a81548173ffffffffffffffffffffffffffffffffffffffff021916908373ffffffffffffffffffffffffffffffffffffffff1602179055505050610f46565b6001808383604051610d4092919061311d565b908152602001604051809103902060003373ffffffffffffffffffffffffffffffffffffffff1673ffffffffffffffffffffffffffffffffffffffff16815260200190815260200160002060000160006101000a81548160ff021916908315150217905550600160008383604051610db992919061311d565b90815260200160405180910390206002016000828254610dd9919061359e565b9250508190555060028282604051610df292919061311d565b908152602001604051809103902060018383604051610e1292919061311d565b908152602001604051809103902060003373ffffffffffffffffffffffffffffffffffffffff1673ffffffffffffffffffffffffffffffffffffffff168152602001908152602001600020908060018154018082558091505060019003906000526020600020016000909190919091506000820160009054906101000a900460ff168160000160006101000a81548160ff0219169083151502179055506000820160019054906101000a900460ff168160000160016101000a81548160ff0219169083151502179055506000820160029054906101000a900473ffffffffffffffffffffffffffffffffffffffff168160000160026101000a81548173ffffffffffffffffffffffffffffffffffffffff021916908373ffffffffffffffffffffffffffffffffffffffff16021790555050505b5b505050565b600182805160208101820180518482526020830160208501208183528095505050505050602052806000526040600020600091509150508060000160009054906101000a900460ff16908060000160019054906101000a900460ff16908060000160029054906101000a900473ffffffffffffffffffffffffffffffffffffffff16905083565b600060606000606060008686604051610fed92919061311d565b908152602001604051809103902060030154421015611041576040517f08c379a000000000000000000000000000000000000000000000000000000000815260040161103890613455565b60405180910390fd5b60006002878760405161105592919061311d565b9081526020016040518091039020805480602002602001604051908101604052809291908181526020016000905b8282101561113d578382906000526020600020016040518060600160405290816000820160009054906101000a900460ff161515151581526020016000820160019054906101000a900460ff161515151581526020016000820160029054906101000a900473ffffffffffffffffffffffffffffffffffffffff1673ffffffffffffffffffffffffffffffffffffffff1673ffffffffffffffffffffffffffffffffffffffff168152505081526020019060010190611083565b505050509050600080888860405161115692919061311d565b9081526020016040518091039020600001805461117290613720565b80601f016020809104026020016040519081016040528092919081815260200182805461119e90613720565b80156111eb5780601f106111c0576101008083540402835291602001916111eb565b820191906000526020600020905b8154815290600101906020018083116111ce57829003601f168201915b50505050509050600080898960405161120592919061311d565b90815260200160405180910390206007015490506000808a8a60405161122c92919061311d565b90815260200160405180910390206002015490508183828697509750975097505050505092959194509250565b6000828260405161126b92919061311d565b908152602001604051809103902060010160009054906101000a900473ffffffffffffffffffffffffffffffffffffffff1673ffffffffffffffffffffffffffffffffffffffff163373ffffffffffffffffffffffffffffffffffffffff161461130a576040517f08c379a000000000000000000000000000000000000000000000000000000000815260040161130190613415565b60405180910390fd5b6000828260405161131c92919061311d565b908152602001604051809103902060010160009054906101000a900473ffffffffffffffffffffffffffffffffffffffff1673ffffffffffffffffffffffffffffffffffffffff168373ffffffffffffffffffffffffffffffffffffffff1614156113bc576040517f08c379a00000000000000000000000000000000000000000000000000000000081526004016113b3906133b5565b60405180910390fd5b600073ffffffffffffffffffffffffffffffffffffffff16600183836040516113e692919061311d565b908152602001604051809103902060008573ffffffffffffffffffffffffffffffffffffffff1673ffffffffffffffffffffffffffffffffffffffff16815260200190815260200160002060000160029054906101000a900473ffffffffffffffffffffffffffffffffffffffff1673ffffffffffffffffffffffffffffffffffffffff16146114ab576040517f08c379a00000000000000000000000000000000000000000000000000000000081526004016114a290613335565b60405180910390fd5b600082826040516114bd92919061311d565b9081526020016040518091039020600301544210611510576040517f08c379a0000000000000000000000000000000000000000000000000000000008152600401611507906133f5565b60405180910390fd5b600060405180606001604052806000151581526020016000151581526020018573ffffffffffffffffffffffffffffffffffffffff168152509050806001848460405161155e92919061311d565b908152602001604051809103902060008673ffffffffffffffffffffffffffffffffffffffff1673ffffffffffffffffffffffffffffffffffffffff16815260200190815260200160002060008201518160000160006101000a81548160ff02191690831515021790555060208201518160000160016101000a81548160ff02191690831515021790555060408201518160000160026101000a81548173ffffffffffffffffffffffffffffffffffffffff021916908373ffffffffffffffffffffffffffffffffffffffff1602179055509050506003838360405161164592919061311d565b9081526020016040518091039020849080600181540180825580915050600190039060005260206000200160009091909190916101000a81548173ffffffffffffffffffffffffffffffffffffffff021916908373ffffffffffffffffffffffffffffffffffffffff16021790555050505050565b600073ffffffffffffffffffffffffffffffffffffffff166000876040516116e29190613136565b908152602001604051809103902060010160009054906101000a900473ffffffffffffffffffffffffffffffffffffffff1673ffffffffffffffffffffffffffffffffffffffff161461176a576040517f08c379a000000000000000000000000000000000000000000000000000000000815260040161176190613355565b60405180910390fd5b60006040518061018001604052808881526020013373ffffffffffffffffffffffffffffffffffffffff1681526020016000815260200187426117ad919061359e565b8152602001868152602001600081526020016000151581526020017f52656a65637465640000000000000000000000000000000000000000000000008152602001838152602001848152602001858152602001878152509050806000886040516118179190613136565b908152602001604051809103902060008201518160000190805190602001906118419291906126ba565b5060208201518160010160006101000a81548173ffffffffffffffffffffffffffffffffffffffff021916908373ffffffffffffffffffffffffffffffffffffffff16021790555060408201518160020155606082015181600301556080820151816004015560a0820151816005015560c08201518160060160006101000a81548160ff02191690831515021790555060e082015181600701556101008201518160080190805190602001906118f89291906126ba565b506101208201518160090190805190602001906119169291906126ba565b5061014082015181600a015561016082015181600b0155905050806000846040516119419190613136565b9081526020016040518091039020600082015181600001908051906020019061196b9291906126ba565b5060208201518160010160006101000a81548173ffffffffffffffffffffffffffffffffffffffff021916908373ffffffffffffffffffffffffffffffffffffffff16021790555060408201518160020155606082015181600301556080820151816004015560a0820151816005015560c08201518160060160006101000a81548160ff02191690831515021790555060e08201518160070155610100820151816008019080519060200190611a229291906126ba565b50610120820151816009019080519060200190611a409291906126ba565b5061014082015181600a015561016082015181600b015590505050505050505050565b60008282604051611a7592919061311d565b908152602001604051809103902060030154421015611ac9576040517f08c379a0000000000000000000000000000000000000000000000000000000008152600401611ac090613455565b60405180910390fd5b6000151560008383604051611adf92919061311d565b908152602001604051809103902060060160009054906101000a900460ff16151514611b40576040517f08c379a0000000000000000000000000000000000000000000000000000000008152600401611b3790613495565b60405180910390fd5b60008282604051611b5292919061311d565b908152602001604051809103902060010160009054906101000a900473ffffffffffffffffffffffffffffffffffffffff1673ffffffffffffffffffffffffffffffffffffffff163373ffffffffffffffffffffffffffffffffffffffff161480611c6a5750600073ffffffffffffffffffffffffffffffffffffffff1660018383604051611be292919061311d565b908152602001604051809103902060003373ffffffffffffffffffffffffffffffffffffffff1673ffffffffffffffffffffffffffffffffffffffff16815260200190815260200160002060000160029054906101000a900473ffffffffffffffffffffffffffffffffffffffff1673ffffffffffffffffffffffffffffffffffffffff1614155b611ca9576040517f08c379a0000000000000000000000000000000000000000000000000000000008152600401611ca090613375565b60405180910390fd5b6000606460038484604051611cbf92919061311d565b90815260200160405180910390208054905060008585604051611ce392919061311d565b908152602001604051809103902060050154611cff91906135f4565b611d099190613625565b905060008383604051611d1d92919061311d565b9081526020016040518091039020600401548110611d7e577f416363657074656400000000000000000000000000000000000000000000000060008484604051611d6892919061311d565b9081526020016040518091039020600701819055505b60005b60038484604051611d9392919061311d565b9081526020016040518091039020805490508160ff161015612060576000151560018585604051611dc592919061311d565b9081526020016040518091039020600060038787604051611de792919061311d565b90815260200160405180910390208460ff1681548110611e0a57611e0961383a565b5b9060005260206000200160009054906101000a900473ffffffffffffffffffffffffffffffffffffffff1673ffffffffffffffffffffffffffffffffffffffff1673ffffffffffffffffffffffffffffffffffffffff16815260200190815260200160002060000160009054906101000a900460ff161515141561204d5760028484604051611e9a92919061311d565b908152602001604051809103902060018585604051611eba92919061311d565b9081526020016040518091039020600060038787604051611edc92919061311d565b90815260200160405180910390208460ff1681548110611eff57611efe61383a565b5b9060005260206000200160009054906101000a900473ffffffffffffffffffffffffffffffffffffffff1673ffffffffffffffffffffffffffffffffffffffff1673ffffffffffffffffffffffffffffffffffffffff168152602001908152602001600020908060018154018082558091505060019003906000526020600020016000909190919091506000820160009054906101000a900460ff168160000160006101000a81548160ff0219169083151502179055506000820160019054906101000a900460ff168160000160016101000a81548160ff0219169083151502179055506000820160029054906101000a900473ffffffffffffffffffffffffffffffffffffffff168160000160026101000a81548173ffffffffffffffffffffffffffffffffffffffff021916908373ffffffffffffffffffffffffffffffffffffffff16021790555050505b808061205890613783565b915050611d81565b5060016000848460405161207592919061311d565b908152602001604051809103902060060160006101000a81548160ff021916908315150217905550505050565b60028280516020810182018051848252602083016020850120818352809550505050505081815481106120d457600080fd5b90600052602060002001600091509150508060000160009054906101000a900460ff16908060000160019054906101000a900460ff16908060000160029054906101000a900473ffffffffffffffffffffffffffffffffffffffff16905083565b600080600080876040516121499190613136565b908152602001604051809103902060010160009054906101000a900473ffffffffffffffffffffffffffffffffffffffff1673ffffffffffffffffffffffffffffffffffffffff163373ffffffffffffffffffffffffffffffffffffffff16146121e8576040517f08c379a00000000000000000000000000000000000000000000000000000000081526004016121df90613435565b60405180910390fd5b600060019050600060019050600060019050600073ffffffffffffffffffffffffffffffffffffffff1660008b6040516122229190613136565b908152602001604051809103902060010160009054906101000a900473ffffffffffffffffffffffffffffffffffffffff1673ffffffffffffffffffffffffffffffffffffffff161415612283576001806001955095509550505050612317565b60008a6040516122939190613136565b90815260200160405180910390206004015489146122b057600092505b60008a6040516122c09190613136565b9081526020016040518091039020600a015487146122dd57600091505b8760008b6040516122ee9190613136565b9081526020016040518091039020600b01541461230a57600090505b8282829550955095505050505b9450945094915050565b60606000838360405161233592919061311d565b9081526020016040518091039020600001805461235190613720565b80601f016020809104026020016040519081016040528092919081815260200182805461237d90613720565b80156123ca5780601f1061239f576101008083540402835291602001916123ca565b820191906000526020600020905b8154815290600101906020018083116123ad57829003601f168201915b5050505050905092915050565b6123df612740565b600083836040516123f192919061311d565b90815260200160405180910390206040518061018001604052908160008201805461241b90613720565b80601f016020809104026020016040519081016040528092919081815260200182805461244790613720565b80156124945780601f1061246957610100808354040283529160200191612494565b820191906000526020600020905b81548152906001019060200180831161247757829003601f168201915b505050505081526020016001820160009054906101000a900473ffffffffffffffffffffffffffffffffffffffff1673ffffffffffffffffffffffffffffffffffffffff1673ffffffffffffffffffffffffffffffffffffffff168152602001600282015481526020016003820154815260200160048201548152602001600582015481526020016006820160009054906101000a900460ff161515151581526020016007820154815260200160088201805461255090613720565b80601f016020809104026020016040519081016040528092919081815260200182805461257c90613720565b80156125c95780601f1061259e576101008083540402835291602001916125c9565b820191906000526020600020905b8154815290600101906020018083116125ac57829003601f168201915b505050505081526020016009820180546125e290613720565b80601f016020809104026020016040519081016040528092919081815260200182805461260e90613720565b801561265b5780601f106126305761010080835404028352916020019161265b565b820191906000526020600020905b81548152906001019060200180831161263e57829003601f168201915b50505050508152602001600a8201548152602001600b82015481525050905092915050565b600080838360405161269392919061311d565b908152602001604051809103902060060160009054906101000a900460ff16905092915050565b8280546126c690613720565b90600052602060002090601f0160209004810192826126e8576000855561272f565b82601f1061270157805160ff191683800117855561272f565b8280016001018555821561272f579182015b8281111561272e578251825591602001919060010190612713565b5b50905061273c91906127bf565b5090565b60405180610180016040528060608152602001600073ffffffffffffffffffffffffffffffffffffffff1681526020016000815260200160008152602001600081526020016000815260200160001515815260200160008019168152602001606081526020016060815260200160008019168152602001600081525090565b5b808211156127d85760008160009055506001016127c0565b5090565b60006127ef6127ea846134fc565b6134d7565b90508281526020810184848401111561280b5761280a6138a7565b5b6128168482856136de565b509392505050565b60008135905061282d81613b4b565b92915050565b60008135905061284281613b62565b92915050565b60008083601f84011261285e5761285d61389d565b5b8235905067ffffffffffffffff81111561287b5761287a613898565b5b602083019150836001820283011115612897576128966138a2565b5b9250929050565b600082601f8301126128b3576128b261389d565b5b81356128c38482602086016127dc565b91505092915050565b6000813590506128db81613b79565b92915050565b6000806000604084860312156128fa576128f96138b1565b5b60006129088682870161281e565b935050602084013567ffffffffffffffff811115612929576129286138ac565b5b61293586828701612848565b92509250509250925092565b60008060208385031215612958576129576138b1565b5b600083013567ffffffffffffffff811115612976576129756138ac565b5b61298285828601612848565b92509250509250929050565b6000602082840312156129a4576129a36138b1565b5b600082013567ffffffffffffffff8111156129c2576129c16138ac565b5b6129ce8482850161289e565b91505092915050565b600080604083850312156129ee576129ed6138b1565b5b600083013567ffffffffffffffff811115612a0c57612a0b6138ac565b5b612a188582860161289e565b9250506020612a298582860161281e565b9150509250929050565b600080600060408486031215612a4c57612a4b6138b1565b5b600084013567ffffffffffffffff811115612a6a57612a696138ac565b5b612a768682870161289e565b935050602084013567ffffffffffffffff811115612a9757612a966138ac565b5b612aa386828701612848565b92509250509250925092565b60008060408385031215612ac657612ac56138b1565b5b600083013567ffffffffffffffff811115612ae457612ae36138ac565b5b612af08582860161289e565b9250506020612b01858286016128cc565b9150509250929050565b60008060008060808587031215612b2557612b246138b1565b5b600085013567ffffffffffffffff811115612b4357612b426138ac565b5b612b4f8782880161289e565b9450506020612b60878288016128cc565b9350506040612b71878288016128cc565b9250506060612b8287828801612833565b91505092959194509250565b60008060008060008060c08789031215612bab57612baa6138b1565b5b600087013567ffffffffffffffff811115612bc957612bc86138ac565b5b612bd589828a0161289e565b9650506020612be689828a016128cc565b9550506040612bf789828a016128cc565b9450506060612c0889828a01612833565b935050608087013567ffffffffffffffff811115612c2957612c286138ac565b5b612c3589828a0161289e565b92505060a087013567ffffffffffffffff811115612c5657612c556138ac565b5b612c6289828a0161289e565b9150509295509295509295565b6000612c7b83836130bd565b60608301905092915050565b612c908161367f565b82525050565b612c9f8161367f565b82525050565b6000612cb08261353d565b612cba8185613560565b9350612cc58361352d565b8060005b83811015612cf6578151612cdd8882612c6f565b9750612ce883613553565b925050600181019050612cc9565b5085935050505092915050565b612d0c81613691565b82525050565b612d1b81613691565b82525050565b612d2a8161369d565b82525050565b612d398161369d565b82525050565b6000612d4b8385613593565b9350612d588385846136de565b82840190509392505050565b6000612d6f82613548565b612d798185613571565b9350612d898185602086016136ed565b612d92816138b6565b840191505092915050565b6000612da882613548565b612db28185613582565b9350612dc28185602086016136ed565b612dcb816138b6565b840191505092915050565b6000612de182613548565b612deb8185613593565b9350612dfb8185602086016136ed565b80840191505092915050565b6000612e14601f83613582565b9150612e1f826138c7565b602082019050919050565b6000612e37601983613582565b9150612e42826138f0565b602082019050919050565b6000612e5a602683613582565b9150612e6582613919565b604082019050919050565b6000612e7d601c83613582565b9150612e8882613968565b602082019050919050565b6000612ea0601583613582565b9150612eab82613991565b602082019050919050565b6000612ec3601e83613582565b9150612ece826139ba565b602082019050919050565b6000612ee6602483613582565b9150612ef1826139e3565b604082019050919050565b6000612f09602883613582565b9150612f1482613a32565b604082019050919050565b6000612f2c601483613582565b9150612f3782613a81565b602082019050919050565b6000612f4f602083613582565b9150612f5a82613aaa565b602082019050919050565b6000612f72601283613582565b9150612f7d82613ad3565b602082019050919050565b6000612f95602583613582565b9150612fa082613afc565b604082019050919050565b6000610180830160008301518482036000860152612fc98282612d64565b9150506020830151612fde6020860182612c87565b506040830151612ff160408601826130ff565b50606083015161300460608601826130ff565b50608083015161301760808601826130ff565b5060a083015161302a60a08601826130ff565b5060c083015161303d60c0860182612d03565b5060e083015161305060e0860182612d21565b5061010083015184820361010086015261306a8282612d64565b9150506101208301518482036101208601526130868282612d64565b91505061014083015161309d610140860182612d21565b506101608301516130b26101608601826130ff565b508091505092915050565b6060820160008201516130d36000850182612d03565b5060208201516130e66020850182612d03565b5060408201516130f96040850182612c87565b50505050565b613108816136c7565b82525050565b613117816136c7565b82525050565b600061312a828486612d3f565b91508190509392505050565b60006131428284612dd6565b915081905092915050565b60006020820190506131626000830184612c96565b92915050565b600060208201905061317d6000830184612d12565b92915050565b60006060820190506131986000830186612d12565b6131a56020830185612d12565b6131b26040830184612c96565b949350505050565b60006060820190506131cf6000830186612d12565b6131dc6020830185612d12565b6131e96040830184612d12565b949350505050565b60006080820190506132066000830187612d30565b81810360208301526132188186612d9d565b9050613227604083018561310e565b81810360608301526132398184612ca5565b905095945050505050565b6000602082019050818103600083015261325e8184612d9d565b905092915050565b6000610180820190508181036000830152613281818f612d9d565b9050613290602083018e612c96565b61329d604083018d61310e565b6132aa606083018c61310e565b6132b7608083018b61310e565b6132c460a083018a61310e565b6132d160c0830189612d12565b6132de60e0830188612d30565b8181036101008301526132f18187612d9d565b90508181036101208301526133068186612d9d565b9050613316610140830185612d30565b61332461016083018461310e565b9d9c50505050505050505050505050565b6000602082019050818103600083015261334e81612e07565b9050919050565b6000602082019050818103600083015261336e81612e2a565b9050919050565b6000602082019050818103600083015261338e81612e4d565b9050919050565b600060208201905081810360008301526133ae81612e70565b9050919050565b600060208201905081810360008301526133ce81612e93565b9050919050565b600060208201905081810360008301526133ee81612eb6565b9050919050565b6000602082019050818103600083015261340e81612ed9565b9050919050565b6000602082019050818103600083015261342e81612efc565b9050919050565b6000602082019050818103600083015261344e81612f1f565b9050919050565b6000602082019050818103600083015261346e81612f42565b9050919050565b6000602082019050818103600083015261348e81612f65565b9050919050565b600060208201905081810360008301526134ae81612f88565b9050919050565b600060208201905081810360008301526134cf8184612fab565b905092915050565b60006134e16134f2565b90506134ed8282613752565b919050565b6000604051905090565b600067ffffffffffffffff82111561351757613516613869565b5b613520826138b6565b9050602081019050919050565b6000819050602082019050919050565b600081519050919050565b600081519050919050565b6000602082019050919050565b600082825260208201905092915050565b600082825260208201905092915050565b600082825260208201905092915050565b600081905092915050565b60006135a9826136c7565b91506135b4836136c7565b9250827fffffffffffffffffffffffffffffffffffffffffffffffffffffffffffffffff038211156135e9576135e86137ad565b5b828201905092915050565b60006135ff826136c7565b915061360a836136c7565b92508261361a576136196137dc565b5b828204905092915050565b6000613630826136c7565b915061363b836136c7565b9250817fffffffffffffffffffffffffffffffffffffffffffffffffffffffffffffffff0483118215151615613674576136736137ad565b5b828202905092915050565b600061368a826136a7565b9050919050565b60008115159050919050565b6000819050919050565b600073ffffffffffffffffffffffffffffffffffffffff82169050919050565b6000819050919050565b600060ff82169050919050565b82818337600083830152505050565b60005b8381101561370b5780820151818401526020810190506136f0565b8381111561371a576000848401525b50505050565b6000600282049050600182168061373857607f821691505b6020821081141561374c5761374b61380b565b5b50919050565b61375b826138b6565b810181811067ffffffffffffffff8211171561377a57613779613869565b5b80604052505050565b600061378e826136d1565b915060ff8214156137a2576137a16137ad565b5b600182019050919050565b7f4e487b7100000000000000000000000000000000000000000000000000000000600052601160045260246000fd5b7f4e487b7100000000000000000000000000000000000000000000000000000000600052601260045260246000fd5b7f4e487b7100000000000000000000000000000000000000000000000000000000600052602260045260246000fd5b7f4e487b7100000000000000000000000000000000000000000000000000000000600052603260045260246000fd5b7f4e487b7100000000000000000000000000000000000000000000000000000000600052604160045260246000fd5b600080fd5b600080fd5b600080fd5b600080fd5b600080fd5b600080fd5b6000601f19601f8301169050919050565b7f526563697069656e7420697320616c7265616479207265676973746572656400600082015250565b7f50726f706f73616c20616c726561647920637265617465642100000000000000600082015250565b7f596f75206172656e277420617574686f72697a6520746f20636f6d70696c652060008201527f42756e646c650000000000000000000000000000000000000000000000000000602082015250565b7f596f7520616c72656164792073656e74206120726573706f6e73652e00000000600082015250565b7f496e69746961746f722063616e277420766f7465210000000000000000000000600082015250565b7f596f7520617265206e6f74207265676973746572656420746f20766f74650000600082015250565b7f50726f706f73616c20686173207265616368656420697473206578706972792060008201527f6461746500000000000000000000000000000000000000000000000000000000602082015250565b7f4f6e6c7920696e69746961746f722063616e207265676973746572206120726560008201527f63697069656e742e000000000000000000000000000000000000000000000000602082015250565b7f596f75206172656e277420496e69746961746f72000000000000000000000000600082015250565b7f5665726469637420686173206e6f74206265656e207265616368656420796574600082015250565b7f566f74696e672068617320657870697265640000000000000000000000000000600082015250565b7f436f6e73656e7375732068617320616c7265616479206265656e2063616c637560008201527f6c61746564000000000000000000000000000000000000000000000000000000602082015250565b613b548161367f565b8114613b5f57600080fd5b50565b613b6b8161369d565b8114613b7657600080fd5b50565b613b82816136c7565b8114613b8d57600080fd5b5056fea2646970667358221220cedf8d64330d78d4cfc2d1b8100677927f3e8c3c835e964a15932674f1d7227f64736f6c63430008070033",
					"opcodes": "PUSH1 0x80 PUSH1 0x40 MSTORE CALLVALUE DUP1 ISZERO PUSH2 0x10 JUMPI PUSH1 0x0 DUP1 REVERT JUMPDEST POP PUSH2 0x3BC6 DUP1 PUSH2 0x20 PUSH1 0x0 CODECOPY PUSH1 0x0 RETURN INVALID PUSH1 0x80 PUSH1 0x40 MSTORE CALLVALUE DUP1 ISZERO PUSH2 0x10 JUMPI PUSH1 0x0 DUP1 REVERT JUMPDEST POP PUSH1 0x4 CALLDATASIZE LT PUSH2 0xCF JUMPI PUSH1 0x0 CALLDATALOAD PUSH1 0xE0 SHR DUP1 PUSH4 0x7AA18F88 GT PUSH2 0x8C JUMPI DUP1 PUSH4 0x9D6A3125 GT PUSH2 0x66 JUMPI DUP1 PUSH4 0x9D6A3125 EQ PUSH2 0x246 JUMPI DUP1 PUSH4 0xC99BA896 EQ PUSH2 0x278 JUMPI DUP1 PUSH4 0xC9BC42ED EQ PUSH2 0x2A8 JUMPI DUP1 PUSH4 0xEC548680 EQ PUSH2 0x2D8 JUMPI PUSH2 0xCF JUMP JUMPDEST DUP1 PUSH4 0x7AA18F88 EQ PUSH2 0x1DC JUMPI DUP1 PUSH4 0x883A9673 EQ PUSH2 0x1F8 JUMPI DUP1 PUSH4 0x8F6A35B7 EQ PUSH2 0x214 JUMPI PUSH2 0xCF JUMP JUMPDEST DUP1 PUSH4 0x6699B01 EQ PUSH2 0xD4 JUMPI DUP1 PUSH4 0x89A4C60 EQ PUSH2 0x104 JUMPI DUP1 PUSH4 0x17072D6B EQ PUSH2 0x13F JUMPI DUP1 PUSH4 0x33A0B0AB EQ PUSH2 0x15B JUMPI DUP1 PUSH4 0x37F2E190 EQ PUSH2 0x18D JUMPI DUP1 PUSH4 0x3D63AF0E EQ PUSH2 0x1C0 JUMPI JUMPDEST PUSH1 0x0 DUP1 REVERT JUMPDEST PUSH2 0xEE PUSH1 0x4 DUP1 CALLDATASIZE SUB DUP2 ADD SWAP1 PUSH2 0xE9 SWAP2 SWAP1 PUSH2 0x2AAF JUMP JUMPDEST PUSH2 0x308 JUMP JUMPDEST PUSH1 0x40 MLOAD PUSH2 0xFB SWAP2 SWAP1 PUSH2 0x314D JUMP JUMPDEST PUSH1 0x40 MLOAD DUP1 SWAP2 SUB SWAP1 RETURN JUMPDEST PUSH2 0x11E PUSH1 0x4 DUP1 CALLDATASIZE SUB DUP2 ADD SWAP1 PUSH2 0x119 SWAP2 SWAP1 PUSH2 0x298E JUMP JUMPDEST PUSH2 0x36C JUMP JUMPDEST PUSH1 0x40 MLOAD PUSH2 0x136 SWAP13 SWAP12 SWAP11 SWAP10 SWAP9 SWAP8 SWAP7 SWAP6 SWAP5 SWAP4 SWAP3 SWAP2 SWAP1 PUSH2 0x3266 JUMP JUMPDEST PUSH1 0x40 MLOAD DUP1 SWAP2 SUB SWAP1 RETURN JUMPDEST PUSH2 0x159 PUSH1 0x4 DUP1 CALLDATASIZE SUB DUP2 ADD SWAP1 PUSH2 0x154 SWAP2 SWAP1 PUSH2 0x2A33 JUMP JUMPDEST PUSH2 0x5A7 JUMP JUMPDEST STOP JUMPDEST PUSH2 0x175 PUSH1 0x4 DUP1 CALLDATASIZE SUB DUP2 ADD SWAP1 PUSH2 0x170 SWAP2 SWAP1 PUSH2 0x29D7 JUMP JUMPDEST PUSH2 0xF4C JUMP JUMPDEST PUSH1 0x40 MLOAD PUSH2 0x184 SWAP4 SWAP3 SWAP2 SWAP1 PUSH2 0x3183 JUMP JUMPDEST PUSH1 0x40 MLOAD DUP1 SWAP2 SUB SWAP1 RETURN JUMPDEST PUSH2 0x1A7 PUSH1 0x4 DUP1 CALLDATASIZE SUB DUP2 ADD SWAP1 PUSH2 0x1A2 SWAP2 SWAP1 PUSH2 0x2941 JUMP JUMPDEST PUSH2 0xFD3 JUMP JUMPDEST PUSH1 0x40 MLOAD PUSH2 0x1B7 SWAP5 SWAP4 SWAP3 SWAP2 SWAP1 PUSH2 0x31F1 JUMP JUMPDEST PUSH1 0x40 MLOAD DUP1 SWAP2 SUB SWAP1 RETURN JUMPDEST PUSH2 0x1DA PUSH1 0x4 DUP1 CALLDATASIZE SUB DUP2 ADD SWAP1 PUSH2 0x1D5 SWAP2 SWAP1 PUSH2 0x28E1 JUMP JUMPDEST PUSH2 0x1259 JUMP JUMPDEST STOP JUMPDEST PUSH2 0x1F6 PUSH1 0x4 DUP1 CALLDATASIZE SUB DUP2 ADD SWAP1 PUSH2 0x1F1 SWAP2 SWAP1 PUSH2 0x2B8E JUMP JUMPDEST PUSH2 0x16BA JUMP JUMPDEST STOP JUMPDEST PUSH2 0x212 PUSH1 0x4 DUP1 CALLDATASIZE SUB DUP2 ADD SWAP1 PUSH2 0x20D SWAP2 SWAP1 PUSH2 0x2941 JUMP JUMPDEST PUSH2 0x1A63 JUMP JUMPDEST STOP JUMPDEST PUSH2 0x22E PUSH1 0x4 DUP1 CALLDATASIZE SUB DUP2 ADD SWAP1 PUSH2 0x229 SWAP2 SWAP1 PUSH2 0x2AAF JUMP JUMPDEST PUSH2 0x20A2 JUMP JUMPDEST PUSH1 0x40 MLOAD PUSH2 0x23D SWAP4 SWAP3 SWAP2 SWAP1 PUSH2 0x3183 JUMP JUMPDEST PUSH1 0x40 MLOAD DUP1 SWAP2 SUB SWAP1 RETURN JUMPDEST PUSH2 0x260 PUSH1 0x4 DUP1 CALLDATASIZE SUB DUP2 ADD SWAP1 PUSH2 0x25B SWAP2 SWAP1 PUSH2 0x2B0B JUMP JUMPDEST PUSH2 0x2135 JUMP JUMPDEST PUSH1 0x40 MLOAD PUSH2 0x26F SWAP4 SWAP3 SWAP2 SWAP1 PUSH2 0x31BA JUMP JUMPDEST PUSH1 0x40 MLOAD DUP1 SWAP2 SUB SWAP1 RETURN JUMPDEST PUSH2 0x292 PUSH1 0x4 DUP1 CALLDATASIZE SUB DUP2 ADD SWAP1 PUSH2 0x28D SWAP2 SWAP1 PUSH2 0x2941 JUMP JUMPDEST PUSH2 0x2321 JUMP JUMPDEST PUSH1 0x40 MLOAD PUSH2 0x29F SWAP2 SWAP1 PUSH2 0x3244 JUMP JUMPDEST PUSH1 0x40 MLOAD DUP1 SWAP2 SUB SWAP1 RETURN JUMPDEST PUSH2 0x2C2 PUSH1 0x4 DUP1 CALLDATASIZE SUB DUP2 ADD SWAP1 PUSH2 0x2BD SWAP2 SWAP1 PUSH2 0x2941 JUMP JUMPDEST PUSH2 0x23D7 JUMP JUMPDEST PUSH1 0x40 MLOAD PUSH2 0x2CF SWAP2 SWAP1 PUSH2 0x34B5 JUMP JUMPDEST PUSH1 0x40 MLOAD DUP1 SWAP2 SUB SWAP1 RETURN JUMPDEST PUSH2 0x2F2 PUSH1 0x4 DUP1 CALLDATASIZE SUB DUP2 ADD SWAP1 PUSH2 0x2ED SWAP2 SWAP1 PUSH2 0x2941 JUMP JUMPDEST PUSH2 0x2680 JUMP JUMPDEST PUSH1 0x40 MLOAD PUSH2 0x2FF SWAP2 SWAP1 PUSH2 0x3168 JUMP JUMPDEST PUSH1 0x40 MLOAD DUP1 SWAP2 SUB SWAP1 RETURN JUMPDEST PUSH1 0x3 DUP3 DUP1 MLOAD PUSH1 0x20 DUP2 ADD DUP3 ADD DUP1 MLOAD DUP5 DUP3 MSTORE PUSH1 0x20 DUP4 ADD PUSH1 0x20 DUP6 ADD KECCAK256 DUP2 DUP4 MSTORE DUP1 SWAP6 POP POP POP POP POP POP DUP2 DUP2 SLOAD DUP2 LT PUSH2 0x33A JUMPI PUSH1 0x0 DUP1 REVERT JUMPDEST SWAP1 PUSH1 0x0 MSTORE PUSH1 0x20 PUSH1 0x0 KECCAK256 ADD PUSH1 0x0 SWAP2 POP SWAP2 POP SWAP1 SLOAD SWAP1 PUSH2 0x100 EXP SWAP1 DIV PUSH20 0xFFFFFFFFFFFFFFFFFFFFFFFFFFFFFFFFFFFFFFFF AND DUP2 JUMP JUMPDEST PUSH1 0x0 DUP2 DUP1 MLOAD PUSH1 0x20 DUP2 ADD DUP3 ADD DUP1 MLOAD DUP5 DUP3 MSTORE PUSH1 0x20 DUP4 ADD PUSH1 0x20 DUP6 ADD KECCAK256 DUP2 DUP4 MSTORE DUP1 SWAP6 POP POP POP POP POP POP PUSH1 0x0 SWAP2 POP SWAP1 POP DUP1 PUSH1 0x0 ADD DUP1 SLOAD PUSH2 0x3A5 SWAP1 PUSH2 0x3720 JUMP JUMPDEST DUP1 PUSH1 0x1F ADD PUSH1 0x20 DUP1 SWAP2 DIV MUL PUSH1 0x20 ADD PUSH1 0x40 MLOAD SWAP1 DUP2 ADD PUSH1 0x40 MSTORE DUP1 SWAP3 SWAP2 SWAP1 DUP2 DUP2 MSTORE PUSH1 0x20 ADD DUP3 DUP1 SLOAD PUSH2 0x3D1 SWAP1 PUSH2 0x3720 JUMP JUMPDEST DUP1 ISZERO PUSH2 0x41E JUMPI DUP1 PUSH1 0x1F LT PUSH2 0x3F3 JUMPI PUSH2 0x100 DUP1 DUP4 SLOAD DIV MUL DUP4 MSTORE SWAP2 PUSH1 0x20 ADD SWAP2 PUSH2 0x41E JUMP JUMPDEST DUP3 ADD SWAP2 SWAP1 PUSH1 0x0 MSTORE PUSH1 0x20 PUSH1 0x0 KECCAK256 SWAP1 JUMPDEST DUP2 SLOAD DUP2 MSTORE SWAP1 PUSH1 0x1 ADD SWAP1 PUSH1 0x20 ADD DUP1 DUP4 GT PUSH2 0x401 JUMPI DUP3 SWAP1 SUB PUSH1 0x1F AND DUP3 ADD SWAP2 JUMPDEST POP POP POP POP POP SWAP1 DUP1 PUSH1 0x1 ADD PUSH1 0x0 SWAP1 SLOAD SWAP1 PUSH2 0x100 EXP SWAP1 DIV PUSH20 0xFFFFFFFFFFFFFFFFFFFFFFFFFFFFFFFFFFFFFFFF AND SWAP1 DUP1 PUSH1 0x2 ADD SLOAD SWAP1 DUP1 PUSH1 0x3 ADD SLOAD SWAP1 DUP1 PUSH1 0x4 ADD SLOAD SWAP1 DUP1 PUSH1 0x5 ADD SLOAD SWAP1 DUP1 PUSH1 0x6 ADD PUSH1 0x0 SWAP1 SLOAD SWAP1 PUSH2 0x100 EXP SWAP1 DIV PUSH1 0xFF AND SWAP1 DUP1 PUSH1 0x7 ADD SLOAD SWAP1 DUP1 PUSH1 0x8 ADD DUP1 SLOAD PUSH2 0x48A SWAP1 PUSH2 0x3720 JUMP JUMPDEST DUP1 PUSH1 0x1F ADD PUSH1 0x20 DUP1 SWAP2 DIV MUL PUSH1 0x20 ADD PUSH1 0x40 MLOAD SWAP1 DUP2 ADD PUSH1 0x40 MSTORE DUP1 SWAP3 SWAP2 SWAP1 DUP2 DUP2 MSTORE PUSH1 0x20 ADD DUP3 DUP1 SLOAD PUSH2 0x4B6 SWAP1 PUSH2 0x3720 JUMP JUMPDEST DUP1 ISZERO PUSH2 0x503 JUMPI DUP1 PUSH1 0x1F LT PUSH2 0x4D8 JUMPI PUSH2 0x100 DUP1 DUP4 SLOAD DIV MUL DUP4 MSTORE SWAP2 PUSH1 0x20 ADD SWAP2 PUSH2 0x503 JUMP JUMPDEST DUP3 ADD SWAP2 SWAP1 PUSH1 0x0 MSTORE PUSH1 0x20 PUSH1 0x0 KECCAK256 SWAP1 JUMPDEST DUP2 SLOAD DUP2 MSTORE SWAP1 PUSH1 0x1 ADD SWAP1 PUSH1 0x20 ADD DUP1 DUP4 GT PUSH2 0x4E6 JUMPI DUP3 SWAP1 SUB PUSH1 0x1F AND DUP3 ADD SWAP2 JUMPDEST POP POP POP POP POP SWAP1 DUP1 PUSH1 0x9 ADD DUP1 SLOAD PUSH2 0x518 SWAP1 PUSH2 0x3720 JUMP JUMPDEST DUP1 PUSH1 0x1F ADD PUSH1 0x20 DUP1 SWAP2 DIV MUL PUSH1 0x20 ADD PUSH1 0x40 MLOAD SWAP1 DUP2 ADD PUSH1 0x40 MSTORE DUP1 SWAP3 SWAP2 SWAP1 DUP2 DUP2 MSTORE PUSH1 0x20 ADD DUP3 DUP1 SLOAD PUSH2 0x544 SWAP1 PUSH2 0x3720 JUMP JUMPDEST DUP1 ISZERO PUSH2 0x591 JUMPI DUP1 PUSH1 0x1F LT PUSH2 0x566 JUMPI PUSH2 0x100 DUP1 DUP4 SLOAD DIV MUL DUP4 MSTORE SWAP2 PUSH1 0x20 ADD SWAP2 PUSH2 0x591 JUMP JUMPDEST DUP3 ADD SWAP2 SWAP1 PUSH1 0x0 MSTORE PUSH1 0x20 PUSH1 0x0 KECCAK256 SWAP1 JUMPDEST DUP2 SLOAD DUP2 MSTORE SWAP1 PUSH1 0x1 ADD SWAP1 PUSH1 0x20 ADD DUP1 DUP4 GT PUSH2 0x574 JUMPI DUP3 SWAP1 SUB PUSH1 0x1F AND DUP3 ADD SWAP2 JUMPDEST POP POP POP POP POP SWAP1 DUP1 PUSH1 0xA ADD SLOAD SWAP1 DUP1 PUSH1 0xB ADD SLOAD SWAP1 POP DUP13 JUMP JUMPDEST PUSH1 0x0 DUP3 DUP3 PUSH1 0x40 MLOAD PUSH2 0x5B9 SWAP3 SWAP2 SWAP1 PUSH2 0x311D JUMP JUMPDEST SWAP1 DUP2 MSTORE PUSH1 0x20 ADD PUSH1 0x40 MLOAD DUP1 SWAP2 SUB SWAP1 KECCAK256 PUSH1 0x3 ADD SLOAD TIMESTAMP LT PUSH2 0x60C JUMPI PUSH1 0x40 MLOAD PUSH32 0x8C379A000000000000000000000000000000000000000000000000000000000 DUP2 MSTORE PUSH1 0x4 ADD PUSH2 0x603 SWAP1 PUSH2 0x3475 JUMP JUMPDEST PUSH1 0x40 MLOAD DUP1 SWAP2 SUB SWAP1 REVERT JUMPDEST PUSH1 0x0 PUSH20 0xFFFFFFFFFFFFFFFFFFFFFFFFFFFFFFFFFFFFFFFF AND PUSH1 0x1 DUP4 DUP4 PUSH1 0x40 MLOAD PUSH2 0x636 SWAP3 SWAP2 SWAP1 PUSH2 0x311D JUMP JUMPDEST SWAP1 DUP2 MSTORE PUSH1 0x20 ADD PUSH1 0x40 MLOAD DUP1 SWAP2 SUB SWAP1 KECCAK256 PUSH1 0x0 CALLER PUSH20 0xFFFFFFFFFFFFFFFFFFFFFFFFFFFFFFFFFFFFFFFF AND PUSH20 0xFFFFFFFFFFFFFFFFFFFFFFFFFFFFFFFFFFFFFFFF AND DUP2 MSTORE PUSH1 0x20 ADD SWAP1 DUP2 MSTORE PUSH1 0x20 ADD PUSH1 0x0 KECCAK256 PUSH1 0x0 ADD PUSH1 0x2 SWAP1 SLOAD SWAP1 PUSH2 0x100 EXP SWAP1 DIV PUSH20 0xFFFFFFFFFFFFFFFFFFFFFFFFFFFFFFFFFFFFFFFF AND PUSH20 0xFFFFFFFFFFFFFFFFFFFFFFFFFFFFFFFFFFFFFFFF AND EQ ISZERO PUSH2 0x6FC JUMPI PUSH1 0x40 MLOAD PUSH32 0x8C379A000000000000000000000000000000000000000000000000000000000 DUP2 MSTORE PUSH1 0x4 ADD PUSH2 0x6F3 SWAP1 PUSH2 0x33D5 JUMP JUMPDEST PUSH1 0x40 MLOAD DUP1 SWAP2 SUB SWAP1 REVERT JUMPDEST PUSH1 0x1 DUP3 DUP3 PUSH1 0x40 MLOAD PUSH2 0x70E SWAP3 SWAP2 SWAP1 PUSH2 0x311D JUMP JUMPDEST SWAP1 DUP2 MSTORE PUSH1 0x20 ADD PUSH1 0x40 MLOAD DUP1 SWAP2 SUB SWAP1 KECCAK256 PUSH1 0x0 CALLER PUSH20 0xFFFFFFFFFFFFFFFFFFFFFFFFFFFFFFFFFFFFFFFF AND PUSH20 0xFFFFFFFFFFFFFFFFFFFFFFFFFFFFFFFFFFFFFFFF AND DUP2 MSTORE PUSH1 0x20 ADD SWAP1 DUP2 MSTORE PUSH1 0x20 ADD PUSH1 0x0 KECCAK256 PUSH1 0x0 ADD PUSH1 0x0 SWAP1 SLOAD SWAP1 PUSH2 0x100 EXP SWAP1 DIV PUSH1 0xFF AND ISZERO PUSH2 0x7AA JUMPI PUSH1 0x40 MLOAD PUSH32 0x8C379A000000000000000000000000000000000000000000000000000000000 DUP2 MSTORE PUSH1 0x4 ADD PUSH2 0x7A1 SWAP1 PUSH2 0x3395 JUMP JUMPDEST PUSH1 0x40 MLOAD DUP1 SWAP2 SUB SWAP1 REVERT JUMPDEST PUSH1 0x40 MLOAD DUP1 PUSH1 0x40 ADD PUSH1 0x40 MSTORE DUP1 PUSH1 0x9 DUP2 MSTORE PUSH1 0x20 ADD PUSH32 0x6920617070726F76650000000000000000000000000000000000000000000000 DUP2 MSTORE POP DUP1 MLOAD SWAP1 PUSH1 0x20 ADD KECCAK256 DUP4 DUP1 MLOAD SWAP1 PUSH1 0x20 ADD KECCAK256 EQ ISZERO PUSH2 0xAC5 JUMPI PUSH1 0x1 DUP1 DUP4 DUP4 PUSH1 0x40 MLOAD PUSH2 0x808 SWAP3 SWAP2 SWAP1 PUSH2 0x311D JUMP JUMPDEST SWAP1 DUP2 MSTORE PUSH1 0x20 ADD PUSH1 0x40 MLOAD DUP1 SWAP2 SUB SWAP1 KECCAK256 PUSH1 0x0 CALLER PUSH20 0xFFFFFFFFFFFFFFFFFFFFFFFFFFFFFFFFFFFFFFFF AND PUSH20 0xFFFFFFFFFFFFFFFFFFFFFFFFFFFFFFFFFFFFFFFF AND DUP2 MSTORE PUSH1 0x20 ADD SWAP1 DUP2 MSTORE PUSH1 0x20 ADD PUSH1 0x0 KECCAK256 PUSH1 0x0 ADD PUSH1 0x0 PUSH2 0x100 EXP DUP2 SLOAD DUP2 PUSH1 0xFF MUL NOT AND SWAP1 DUP4 ISZERO ISZERO MUL OR SWAP1 SSTORE POP PUSH1 0x1 DUP1 DUP4 DUP4 PUSH1 0x40 MLOAD PUSH2 0x880 SWAP3 SWAP2 SWAP1 PUSH2 0x311D JUMP JUMPDEST SWAP1 DUP2 MSTORE PUSH1 0x20 ADD PUSH1 0x40 MLOAD DUP1 SWAP2 SUB SWAP1 KECCAK256 PUSH1 0x0 CALLER PUSH20 0xFFFFFFFFFFFFFFFFFFFFFFFFFFFFFFFFFFFFFFFF AND PUSH20 0xFFFFFFFFFFFFFFFFFFFFFFFFFFFFFFFFFFFFFFFF AND DUP2 MSTORE PUSH1 0x20 ADD SWAP1 DUP2 MSTORE PUSH1 0x20 ADD PUSH1 0x0 KECCAK256 PUSH1 0x0 ADD PUSH1 0x1 PUSH2 0x100 EXP DUP2 SLOAD DUP2 PUSH1 0xFF MUL NOT AND SWAP1 DUP4 ISZERO ISZERO MUL OR SWAP1 SSTORE POP PUSH1 0x1 PUSH1 0x0 DUP4 DUP4 PUSH1 0x40 MLOAD PUSH2 0x8F9 SWAP3 SWAP2 SWAP1 PUSH2 0x311D JUMP JUMPDEST SWAP1 DUP2 MSTORE PUSH1 0x20 ADD PUSH1 0x40 MLOAD DUP1 SWAP2 SUB SWAP1 KECCAK256 PUSH1 0x5 ADD PUSH1 0x0 DUP3 DUP3 SLOAD PUSH2 0x919 SWAP2 SWAP1 PUSH2 0x359E JUMP JUMPDEST SWAP3 POP POP DUP2 SWAP1 SSTORE POP PUSH1 0x1 PUSH1 0x0 DUP4 DUP4 PUSH1 0x40 MLOAD PUSH2 0x934 SWAP3 SWAP2 SWAP1 PUSH2 0x311D JUMP JUMPDEST SWAP1 DUP2 MSTORE PUSH1 0x20 ADD PUSH1 0x40 MLOAD DUP1 SWAP2 SUB SWAP1 KECCAK256 PUSH1 0x2 ADD PUSH1 0x0 DUP3 DUP3 SLOAD PUSH2 0x954 SWAP2 SWAP1 PUSH2 0x359E JUMP JUMPDEST SWAP3 POP POP DUP2 SWAP1 SSTORE POP PUSH1 0x2 DUP3 DUP3 PUSH1 0x40 MLOAD PUSH2 0x96D SWAP3 SWAP2 SWAP1 PUSH2 0x311D JUMP JUMPDEST SWAP1 DUP2 MSTORE PUSH1 0x20 ADD PUSH1 0x40 MLOAD DUP1 SWAP2 SUB SWAP1 KECCAK256 PUSH1 0x1 DUP4 DUP4 PUSH1 0x40 MLOAD PUSH2 0x98D SWAP3 SWAP2 SWAP1 PUSH2 0x311D JUMP JUMPDEST SWAP1 DUP2 MSTORE PUSH1 0x20 ADD PUSH1 0x40 MLOAD DUP1 SWAP2 SUB SWAP1 KECCAK256 PUSH1 0x0 CALLER PUSH20 0xFFFFFFFFFFFFFFFFFFFFFFFFFFFFFFFFFFFFFFFF AND PUSH20 0xFFFFFFFFFFFFFFFFFFFFFFFFFFFFFFFFFFFFFFFF AND DUP2 MSTORE PUSH1 0x20 ADD SWAP1 DUP2 MSTORE PUSH1 0x20 ADD PUSH1 0x0 KECCAK256 SWAP1 DUP1 PUSH1 0x1 DUP2 SLOAD ADD DUP1 DUP3 SSTORE DUP1 SWAP2 POP POP PUSH1 0x1 SWAP1 SUB SWAP1 PUSH1 0x0 MSTORE PUSH1 0x20 PUSH1 0x0 KECCAK256 ADD PUSH1 0x0 SWAP1 SWAP2 SWAP1 SWAP2 SWAP1 SWAP2 POP PUSH1 0x0 DUP3 ADD PUSH1 0x0 SWAP1 SLOAD SWAP1 PUSH2 0x100 EXP SWAP1 DIV PUSH1 0xFF AND DUP2 PUSH1 0x0 ADD PUSH1 0x0 PUSH2 0x100 EXP DUP2 SLOAD DUP2 PUSH1 0xFF MUL NOT AND SWAP1 DUP4 ISZERO ISZERO MUL OR SWAP1 SSTORE POP PUSH1 0x0 DUP3 ADD PUSH1 0x1 SWAP1 SLOAD SWAP1 PUSH2 0x100 EXP SWAP1 DIV PUSH1 0xFF AND DUP2 PUSH1 0x0 ADD PUSH1 0x1 PUSH2 0x100 EXP DUP2 SLOAD DUP2 PUSH1 0xFF MUL NOT AND SWAP1 DUP4 ISZERO ISZERO MUL OR SWAP1 SSTORE POP PUSH1 0x0 DUP3 ADD PUSH1 0x2 SWAP1 SLOAD SWAP1 PUSH2 0x100 EXP SWAP1 DIV PUSH20 0xFFFFFFFFFFFFFFFFFFFFFFFFFFFFFFFFFFFFFFFF AND DUP2 PUSH1 0x0 ADD PUSH1 0x2 PUSH2 0x100 EXP DUP2 SLOAD DUP2 PUSH20 0xFFFFFFFFFFFFFFFFFFFFFFFFFFFFFFFFFFFFFFFF MUL NOT AND SWAP1 DUP4 PUSH20 0xFFFFFFFFFFFFFFFFFFFFFFFFFFFFFFFFFFFFFFFF AND MUL OR SWAP1 SSTORE POP POP POP PUSH2 0xF47 JUMP JUMPDEST PUSH1 0x40 MLOAD DUP1 PUSH1 0x40 ADD PUSH1 0x40 MSTORE DUP1 PUSH1 0xC DUP2 MSTORE PUSH1 0x20 ADD PUSH32 0x6920646973617070726F76650000000000000000000000000000000000000000 DUP2 MSTORE POP DUP1 MLOAD SWAP1 PUSH1 0x20 ADD KECCAK256 DUP4 DUP1 MLOAD SWAP1 PUSH1 0x20 ADD KECCAK256 EQ ISZERO PUSH2 0xD2D JUMPI PUSH1 0x1 DUP1 DUP4 DUP4 PUSH1 0x40 MLOAD PUSH2 0xB23 SWAP3 SWAP2 SWAP1 PUSH2 0x311D JUMP JUMPDEST SWAP1 DUP2 MSTORE PUSH1 0x20 ADD PUSH1 0x40 MLOAD DUP1 SWAP2 SUB SWAP1 KECCAK256 PUSH1 0x0 CALLER PUSH20 0xFFFFFFFFFFFFFFFFFFFFFFFFFFFFFFFFFFFFFFFF AND PUSH20 0xFFFFFFFFFFFFFFFFFFFFFFFFFFFFFFFFFFFFFFFF AND DUP2 MSTORE PUSH1 0x20 ADD SWAP1 DUP2 MSTORE PUSH1 0x20 ADD PUSH1 0x0 KECCAK256 PUSH1 0x0 ADD PUSH1 0x0 PUSH2 0x100 EXP DUP2 SLOAD DUP2 PUSH1 0xFF MUL NOT AND SWAP1 DUP4 ISZERO ISZERO MUL OR SWAP1 SSTORE POP PUSH1 0x1 PUSH1 0x0 DUP4 DUP4 PUSH1 0x40 MLOAD PUSH2 0xB9C SWAP3 SWAP2 SWAP1 PUSH2 0x311D JUMP JUMPDEST SWAP1 DUP2 MSTORE PUSH1 0x20 ADD PUSH1 0x40 MLOAD DUP1 SWAP2 SUB SWAP1 KECCAK256 PUSH1 0x2 ADD PUSH1 0x0 DUP3 DUP3 SLOAD PUSH2 0xBBC SWAP2 SWAP1 PUSH2 0x359E JUMP JUMPDEST SWAP3 POP POP DUP2 SWAP1 SSTORE POP PUSH1 0x2 DUP3 DUP3 PUSH1 0x40 MLOAD PUSH2 0xBD5 SWAP3 SWAP2 SWAP1 PUSH2 0x311D JUMP JUMPDEST SWAP1 DUP2 MSTORE PUSH1 0x20 ADD PUSH1 0x40 MLOAD DUP1 SWAP2 SUB SWAP1 KECCAK256 PUSH1 0x1 DUP4 DUP4 PUSH1 0x40 MLOAD PUSH2 0xBF5 SWAP3 SWAP2 SWAP1 PUSH2 0x311D JUMP JUMPDEST SWAP1 DUP2 MSTORE PUSH1 0x20 ADD PUSH1 0x40 MLOAD DUP1 SWAP2 SUB SWAP1 KECCAK256 PUSH1 0x0 CALLER PUSH20 0xFFFFFFFFFFFFFFFFFFFFFFFFFFFFFFFFFFFFFFFF AND PUSH20 0xFFFFFFFFFFFFFFFFFFFFFFFFFFFFFFFFFFFFFFFF AND DUP2 MSTORE PUSH1 0x20 ADD SWAP1 DUP2 MSTORE PUSH1 0x20 ADD PUSH1 0x0 KECCAK256 SWAP1 DUP1 PUSH1 0x1 DUP2 SLOAD ADD DUP1 DUP3 SSTORE DUP1 SWAP2 POP POP PUSH1 0x1 SWAP1 SUB SWAP1 PUSH1 0x0 MSTORE PUSH1 0x20 PUSH1 0x0 KECCAK256 ADD PUSH1 0x0 SWAP1 SWAP2 SWAP1 SWAP2 SWAP1 SWAP2 POP PUSH1 0x0 DUP3 ADD PUSH1 0x0 SWAP1 SLOAD SWAP1 PUSH2 0x100 EXP SWAP1 DIV PUSH1 0xFF AND DUP2 PUSH1 0x0 ADD PUSH1 0x0 PUSH2 0x100 EXP DUP2 SLOAD DUP2 PUSH1 0xFF MUL NOT AND SWAP1 DUP4 ISZERO ISZERO MUL OR SWAP1 SSTORE POP PUSH1 0x0 DUP3 ADD PUSH1 0x1 SWAP1 SLOAD SWAP1 PUSH2 0x100 EXP SWAP1 DIV PUSH1 0xFF AND DUP2 PUSH1 0x0 ADD PUSH1 0x1 PUSH2 0x100 EXP DUP2 SLOAD DUP2 PUSH1 0xFF MUL NOT AND SWAP1 DUP4 ISZERO ISZERO MUL OR SWAP1 SSTORE POP PUSH1 0x0 DUP3 ADD PUSH1 0x2 SWAP1 SLOAD SWAP1 PUSH2 0x100 EXP SWAP1 DIV PUSH20 0xFFFFFFFFFFFFFFFFFFFFFFFFFFFFFFFFFFFFFFFF AND DUP2 PUSH1 0x0 ADD PUSH1 0x2 PUSH2 0x100 EXP DUP2 SLOAD DUP2 PUSH20 0xFFFFFFFFFFFFFFFFFFFFFFFFFFFFFFFFFFFFFFFF MUL NOT AND SWAP1 DUP4 PUSH20 0xFFFFFFFFFFFFFFFFFFFFFFFFFFFFFFFFFFFFFFFF AND MUL OR SWAP1 SSTORE POP POP POP PUSH2 0xF46 JUMP JUMPDEST PUSH1 0x1 DUP1 DUP4 DUP4 PUSH1 0x40 MLOAD PUSH2 0xD40 SWAP3 SWAP2 SWAP1 PUSH2 0x311D JUMP JUMPDEST SWAP1 DUP2 MSTORE PUSH1 0x20 ADD PUSH1 0x40 MLOAD DUP1 SWAP2 SUB SWAP1 KECCAK256 PUSH1 0x0 CALLER PUSH20 0xFFFFFFFFFFFFFFFFFFFFFFFFFFFFFFFFFFFFFFFF AND PUSH20 0xFFFFFFFFFFFFFFFFFFFFFFFFFFFFFFFFFFFFFFFF AND DUP2 MSTORE PUSH1 0x20 ADD SWAP1 DUP2 MSTORE PUSH1 0x20 ADD PUSH1 0x0 KECCAK256 PUSH1 0x0 ADD PUSH1 0x0 PUSH2 0x100 EXP DUP2 SLOAD DUP2 PUSH1 0xFF MUL NOT AND SWAP1 DUP4 ISZERO ISZERO MUL OR SWAP1 SSTORE POP PUSH1 0x1 PUSH1 0x0 DUP4 DUP4 PUSH1 0x40 MLOAD PUSH2 0xDB9 SWAP3 SWAP2 SWAP1 PUSH2 0x311D JUMP JUMPDEST SWAP1 DUP2 MSTORE PUSH1 0x20 ADD PUSH1 0x40 MLOAD DUP1 SWAP2 SUB SWAP1 KECCAK256 PUSH1 0x2 ADD PUSH1 0x0 DUP3 DUP3 SLOAD PUSH2 0xDD9 SWAP2 SWAP1 PUSH2 0x359E JUMP JUMPDEST SWAP3 POP POP DUP2 SWAP1 SSTORE POP PUSH1 0x2 DUP3 DUP3 PUSH1 0x40 MLOAD PUSH2 0xDF2 SWAP3 SWAP2 SWAP1 PUSH2 0x311D JUMP JUMPDEST SWAP1 DUP2 MSTORE PUSH1 0x20 ADD PUSH1 0x40 MLOAD DUP1 SWAP2 SUB SWAP1 KECCAK256 PUSH1 0x1 DUP4 DUP4 PUSH1 0x40 MLOAD PUSH2 0xE12 SWAP3 SWAP2 SWAP1 PUSH2 0x311D JUMP JUMPDEST SWAP1 DUP2 MSTORE PUSH1 0x20 ADD PUSH1 0x40 MLOAD DUP1 SWAP2 SUB SWAP1 KECCAK256 PUSH1 0x0 CALLER PUSH20 0xFFFFFFFFFFFFFFFFFFFFFFFFFFFFFFFFFFFFFFFF AND PUSH20 0xFFFFFFFFFFFFFFFFFFFFFFFFFFFFFFFFFFFFFFFF AND DUP2 MSTORE PUSH1 0x20 ADD SWAP1 DUP2 MSTORE PUSH1 0x20 ADD PUSH1 0x0 KECCAK256 SWAP1 DUP1 PUSH1 0x1 DUP2 SLOAD ADD DUP1 DUP3 SSTORE DUP1 SWAP2 POP POP PUSH1 0x1 SWAP1 SUB SWAP1 PUSH1 0x0 MSTORE PUSH1 0x20 PUSH1 0x0 KECCAK256 ADD PUSH1 0x0 SWAP1 SWAP2 SWAP1 SWAP2 SWAP1 SWAP2 POP PUSH1 0x0 DUP3 ADD PUSH1 0x0 SWAP1 SLOAD SWAP1 PUSH2 0x100 EXP SWAP1 DIV PUSH1 0xFF AND DUP2 PUSH1 0x0 ADD PUSH1 0x0 PUSH2 0x100 EXP DUP2 SLOAD DUP2 PUSH1 0xFF MUL NOT AND SWAP1 DUP4 ISZERO ISZERO MUL OR SWAP1 SSTORE POP PUSH1 0x0 DUP3 ADD PUSH1 0x1 SWAP1 SLOAD SWAP1 PUSH2 0x100 EXP SWAP1 DIV PUSH1 0xFF AND DUP2 PUSH1 0x0 ADD PUSH1 0x1 PUSH2 0x100 EXP DUP2 SLOAD DUP2 PUSH1 0xFF MUL NOT AND SWAP1 DUP4 ISZERO ISZERO MUL OR SWAP1 SSTORE POP PUSH1 0x0 DUP3 ADD PUSH1 0x2 SWAP1 SLOAD SWAP1 PUSH2 0x100 EXP SWAP1 DIV PUSH20 0xFFFFFFFFFFFFFFFFFFFFFFFFFFFFFFFFFFFFFFFF AND DUP2 PUSH1 0x0 ADD PUSH1 0x2 PUSH2 0x100 EXP DUP2 SLOAD DUP2 PUSH20 0xFFFFFFFFFFFFFFFFFFFFFFFFFFFFFFFFFFFFFFFF MUL NOT AND SWAP1 DUP4 PUSH20 0xFFFFFFFFFFFFFFFFFFFFFFFFFFFFFFFFFFFFFFFF AND MUL OR SWAP1 SSTORE POP POP POP JUMPDEST JUMPDEST POP POP POP JUMP JUMPDEST PUSH1 0x1 DUP3 DUP1 MLOAD PUSH1 0x20 DUP2 ADD DUP3 ADD DUP1 MLOAD DUP5 DUP3 MSTORE PUSH1 0x20 DUP4 ADD PUSH1 0x20 DUP6 ADD KECCAK256 DUP2 DUP4 MSTORE DUP1 SWAP6 POP POP POP POP POP POP PUSH1 0x20 MSTORE DUP1 PUSH1 0x0 MSTORE PUSH1 0x40 PUSH1 0x0 KECCAK256 PUSH1 0x0 SWAP2 POP SWAP2 POP POP DUP1 PUSH1 0x0 ADD PUSH1 0x0 SWAP1 SLOAD SWAP1 PUSH2 0x100 EXP SWAP1 DIV PUSH1 0xFF AND SWAP1 DUP1 PUSH1 0x0 ADD PUSH1 0x1 SWAP1 SLOAD SWAP1 PUSH2 0x100 EXP SWAP1 DIV PUSH1 0xFF AND SWAP1 DUP1 PUSH1 0x0 ADD PUSH1 0x2 SWAP1 SLOAD SWAP1 PUSH2 0x100 EXP SWAP1 DIV PUSH20 0xFFFFFFFFFFFFFFFFFFFFFFFFFFFFFFFFFFFFFFFF AND SWAP1 POP DUP4 JUMP JUMPDEST PUSH1 0x0 PUSH1 0x60 PUSH1 0x0 PUSH1 0x60 PUSH1 0x0 DUP7 DUP7 PUSH1 0x40 MLOAD PUSH2 0xFED SWAP3 SWAP2 SWAP1 PUSH2 0x311D JUMP JUMPDEST SWAP1 DUP2 MSTORE PUSH1 0x20 ADD PUSH1 0x40 MLOAD DUP1 SWAP2 SUB SWAP1 KECCAK256 PUSH1 0x3 ADD SLOAD TIMESTAMP LT ISZERO PUSH2 0x1041 JUMPI PUSH1 0x40 MLOAD PUSH32 0x8C379A000000000000000000000000000000000000000000000000000000000 DUP2 MSTORE PUSH1 0x4 ADD PUSH2 0x1038 SWAP1 PUSH2 0x3455 JUMP JUMPDEST PUSH1 0x40 MLOAD DUP1 SWAP2 SUB SWAP1 REVERT JUMPDEST PUSH1 0x0 PUSH1 0x2 DUP8 DUP8 PUSH1 0x40 MLOAD PUSH2 0x1055 SWAP3 SWAP2 SWAP1 PUSH2 0x311D JUMP JUMPDEST SWAP1 DUP2 MSTORE PUSH1 0x20 ADD PUSH1 0x40 MLOAD DUP1 SWAP2 SUB SWAP1 KECCAK256 DUP1 SLOAD DUP1 PUSH1 0x20 MUL PUSH1 0x20 ADD PUSH1 0x40 MLOAD SWAP1 DUP2 ADD PUSH1 0x40 MSTORE DUP1 SWAP3 SWAP2 SWAP1 DUP2 DUP2 MSTORE PUSH1 0x20 ADD PUSH1 0x0 SWAP1 JUMPDEST DUP3 DUP3 LT ISZERO PUSH2 0x113D JUMPI DUP4 DUP3 SWAP1 PUSH1 0x0 MSTORE PUSH1 0x20 PUSH1 0x0 KECCAK256 ADD PUSH1 0x40 MLOAD DUP1 PUSH1 0x60 ADD PUSH1 0x40 MSTORE SWAP1 DUP2 PUSH1 0x0 DUP3 ADD PUSH1 0x0 SWAP1 SLOAD SWAP1 PUSH2 0x100 EXP SWAP1 DIV PUSH1 0xFF AND ISZERO ISZERO ISZERO ISZERO DUP2 MSTORE PUSH1 0x20 ADD PUSH1 0x0 DUP3 ADD PUSH1 0x1 SWAP1 SLOAD SWAP1 PUSH2 0x100 EXP SWAP1 DIV PUSH1 0xFF AND ISZERO ISZERO ISZERO ISZERO DUP2 MSTORE PUSH1 0x20 ADD PUSH1 0x0 DUP3 ADD PUSH1 0x2 SWAP1 SLOAD SWAP1 PUSH2 0x100 EXP SWAP1 DIV PUSH20 0xFFFFFFFFFFFFFFFFFFFFFFFFFFFFFFFFFFFFFFFF AND PUSH20 0xFFFFFFFFFFFFFFFFFFFFFFFFFFFFFFFFFFFFFFFF AND PUSH20 0xFFFFFFFFFFFFFFFFFFFFFFFFFFFFFFFFFFFFFFFF AND DUP2 MSTORE POP POP DUP2 MSTORE PUSH1 0x20 ADD SWAP1 PUSH1 0x1 ADD SWAP1 PUSH2 0x1083 JUMP JUMPDEST POP POP POP POP SWAP1 POP PUSH1 0x0 DUP1 DUP9 DUP9 PUSH1 0x40 MLOAD PUSH2 0x1156 SWAP3 SWAP2 SWAP1 PUSH2 0x311D JUMP JUMPDEST SWAP1 DUP2 MSTORE PUSH1 0x20 ADD PUSH1 0x40 MLOAD DUP1 SWAP2 SUB SWAP1 KECCAK256 PUSH1 0x0 ADD DUP1 SLOAD PUSH2 0x1172 SWAP1 PUSH2 0x3720 JUMP JUMPDEST DUP1 PUSH1 0x1F ADD PUSH1 0x20 DUP1 SWAP2 DIV MUL PUSH1 0x20 ADD PUSH1 0x40 MLOAD SWAP1 DUP2 ADD PUSH1 0x40 MSTORE DUP1 SWAP3 SWAP2 SWAP1 DUP2 DUP2 MSTORE PUSH1 0x20 ADD DUP3 DUP1 SLOAD PUSH2 0x119E SWAP1 PUSH2 0x3720 JUMP JUMPDEST DUP1 ISZERO PUSH2 0x11EB JUMPI DUP1 PUSH1 0x1F LT PUSH2 0x11C0 JUMPI PUSH2 0x100 DUP1 DUP4 SLOAD DIV MUL DUP4 MSTORE SWAP2 PUSH1 0x20 ADD SWAP2 PUSH2 0x11EB JUMP JUMPDEST DUP3 ADD SWAP2 SWAP1 PUSH1 0x0 MSTORE PUSH1 0x20 PUSH1 0x0 KECCAK256 SWAP1 JUMPDEST DUP2 SLOAD DUP2 MSTORE SWAP1 PUSH1 0x1 ADD SWAP1 PUSH1 0x20 ADD DUP1 DUP4 GT PUSH2 0x11CE JUMPI DUP3 SWAP1 SUB PUSH1 0x1F AND DUP3 ADD SWAP2 JUMPDEST POP POP POP POP POP SWAP1 POP PUSH1 0x0 DUP1 DUP10 DUP10 PUSH1 0x40 MLOAD PUSH2 0x1205 SWAP3 SWAP2 SWAP1 PUSH2 0x311D JUMP JUMPDEST SWAP1 DUP2 MSTORE PUSH1 0x20 ADD PUSH1 0x40 MLOAD DUP1 SWAP2 SUB SWAP1 KECCAK256 PUSH1 0x7 ADD SLOAD SWAP1 POP PUSH1 0x0 DUP1 DUP11 DUP11 PUSH1 0x40 MLOAD PUSH2 0x122C SWAP3 SWAP2 SWAP1 PUSH2 0x311D JUMP JUMPDEST SWAP1 DUP2 MSTORE PUSH1 0x20 ADD PUSH1 0x40 MLOAD DUP1 SWAP2 SUB SWAP1 KECCAK256 PUSH1 0x2 ADD SLOAD SWAP1 POP DUP2 DUP4 DUP3 DUP7 SWAP8 POP SWAP8 POP SWAP8 POP SWAP8 POP POP POP POP POP SWAP3 SWAP6 SWAP2 SWAP5 POP SWAP3 POP JUMP JUMPDEST PUSH1 0x0 DUP3 DUP3 PUSH1 0x40 MLOAD PUSH2 0x126B SWAP3 SWAP2 SWAP1 PUSH2 0x311D JUMP JUMPDEST SWAP1 DUP2 MSTORE PUSH1 0x20 ADD PUSH1 0x40 MLOAD DUP1 SWAP2 SUB SWAP1 KECCAK256 PUSH1 0x1 ADD PUSH1 0x0 SWAP1 SLOAD SWAP1 PUSH2 0x100 EXP SWAP1 DIV PUSH20 0xFFFFFFFFFFFFFFFFFFFFFFFFFFFFFFFFFFFFFFFF AND PUSH20 0xFFFFFFFFFFFFFFFFFFFFFFFFFFFFFFFFFFFFFFFF AND CALLER PUSH20 0xFFFFFFFFFFFFFFFFFFFFFFFFFFFFFFFFFFFFFFFF AND EQ PUSH2 0x130A JUMPI PUSH1 0x40 MLOAD PUSH32 0x8C379A000000000000000000000000000000000000000000000000000000000 DUP2 MSTORE PUSH1 0x4 ADD PUSH2 0x1301 SWAP1 PUSH2 0x3415 JUMP JUMPDEST PUSH1 0x40 MLOAD DUP1 SWAP2 SUB SWAP1 REVERT JUMPDEST PUSH1 0x0 DUP3 DUP3 PUSH1 0x40 MLOAD PUSH2 0x131C SWAP3 SWAP2 SWAP1 PUSH2 0x311D JUMP JUMPDEST SWAP1 DUP2 MSTORE PUSH1 0x20 ADD PUSH1 0x40 MLOAD DUP1 SWAP2 SUB SWAP1 KECCAK256 PUSH1 0x1 ADD PUSH1 0x0 SWAP1 SLOAD SWAP1 PUSH2 0x100 EXP SWAP1 DIV PUSH20 0xFFFFFFFFFFFFFFFFFFFFFFFFFFFFFFFFFFFFFFFF AND PUSH20 0xFFFFFFFFFFFFFFFFFFFFFFFFFFFFFFFFFFFFFFFF AND DUP4 PUSH20 0xFFFFFFFFFFFFFFFFFFFFFFFFFFFFFFFFFFFFFFFF AND EQ ISZERO PUSH2 0x13BC JUMPI PUSH1 0x40 MLOAD PUSH32 0x8C379A000000000000000000000000000000000000000000000000000000000 DUP2 MSTORE PUSH1 0x4 ADD PUSH2 0x13B3 SWAP1 PUSH2 0x33B5 JUMP JUMPDEST PUSH1 0x40 MLOAD DUP1 SWAP2 SUB SWAP1 REVERT JUMPDEST PUSH1 0x0 PUSH20 0xFFFFFFFFFFFFFFFFFFFFFFFFFFFFFFFFFFFFFFFF AND PUSH1 0x1 DUP4 DUP4 PUSH1 0x40 MLOAD PUSH2 0x13E6 SWAP3 SWAP2 SWAP1 PUSH2 0x311D JUMP JUMPDEST SWAP1 DUP2 MSTORE PUSH1 0x20 ADD PUSH1 0x40 MLOAD DUP1 SWAP2 SUB SWAP1 KECCAK256 PUSH1 0x0 DUP6 PUSH20 0xFFFFFFFFFFFFFFFFFFFFFFFFFFFFFFFFFFFFFFFF AND PUSH20 0xFFFFFFFFFFFFFFFFFFFFFFFFFFFFFFFFFFFFFFFF AND DUP2 MSTORE PUSH1 0x20 ADD SWAP1 DUP2 MSTORE PUSH1 0x20 ADD PUSH1 0x0 KECCAK256 PUSH1 0x0 ADD PUSH1 0x2 SWAP1 SLOAD SWAP1 PUSH2 0x100 EXP SWAP1 DIV PUSH20 0xFFFFFFFFFFFFFFFFFFFFFFFFFFFFFFFFFFFFFFFF AND PUSH20 0xFFFFFFFFFFFFFFFFFFFFFFFFFFFFFFFFFFFFFFFF AND EQ PUSH2 0x14AB JUMPI PUSH1 0x40 MLOAD PUSH32 0x8C379A000000000000000000000000000000000000000000000000000000000 DUP2 MSTORE PUSH1 0x4 ADD PUSH2 0x14A2 SWAP1 PUSH2 0x3335 JUMP JUMPDEST PUSH1 0x40 MLOAD DUP1 SWAP2 SUB SWAP1 REVERT JUMPDEST PUSH1 0x0 DUP3 DUP3 PUSH1 0x40 MLOAD PUSH2 0x14BD SWAP3 SWAP2 SWAP1 PUSH2 0x311D JUMP JUMPDEST SWAP1 DUP2 MSTORE PUSH1 0x20 ADD PUSH1 0x40 MLOAD DUP1 SWAP2 SUB SWAP1 KECCAK256 PUSH1 0x3 ADD SLOAD TIMESTAMP LT PUSH2 0x1510 JUMPI PUSH1 0x40 MLOAD PUSH32 0x8C379A000000000000000000000000000000000000000000000000000000000 DUP2 MSTORE PUSH1 0x4 ADD PUSH2 0x1507 SWAP1 PUSH2 0x33F5 JUMP JUMPDEST PUSH1 0x40 MLOAD DUP1 SWAP2 SUB SWAP1 REVERT JUMPDEST PUSH1 0x0 PUSH1 0x40 MLOAD DUP1 PUSH1 0x60 ADD PUSH1 0x40 MSTORE DUP1 PUSH1 0x0 ISZERO ISZERO DUP2 MSTORE PUSH1 0x20 ADD PUSH1 0x0 ISZERO ISZERO DUP2 MSTORE PUSH1 0x20 ADD DUP6 PUSH20 0xFFFFFFFFFFFFFFFFFFFFFFFFFFFFFFFFFFFFFFFF AND DUP2 MSTORE POP SWAP1 POP DUP1 PUSH1 0x1 DUP5 DUP5 PUSH1 0x40 MLOAD PUSH2 0x155E SWAP3 SWAP2 SWAP1 PUSH2 0x311D JUMP JUMPDEST SWAP1 DUP2 MSTORE PUSH1 0x20 ADD PUSH1 0x40 MLOAD DUP1 SWAP2 SUB SWAP1 KECCAK256 PUSH1 0x0 DUP7 PUSH20 0xFFFFFFFFFFFFFFFFFFFFFFFFFFFFFFFFFFFFFFFF AND PUSH20 0xFFFFFFFFFFFFFFFFFFFFFFFFFFFFFFFFFFFFFFFF AND DUP2 MSTORE PUSH1 0x20 ADD SWAP1 DUP2 MSTORE PUSH1 0x20 ADD PUSH1 0x0 KECCAK256 PUSH1 0x0 DUP3 ADD MLOAD DUP2 PUSH1 0x0 ADD PUSH1 0x0 PUSH2 0x100 EXP DUP2 SLOAD DUP2 PUSH1 0xFF MUL NOT AND SWAP1 DUP4 ISZERO ISZERO MUL OR SWAP1 SSTORE POP PUSH1 0x20 DUP3 ADD MLOAD DUP2 PUSH1 0x0 ADD PUSH1 0x1 PUSH2 0x100 EXP DUP2 SLOAD DUP2 PUSH1 0xFF MUL NOT AND SWAP1 DUP4 ISZERO ISZERO MUL OR SWAP1 SSTORE POP PUSH1 0x40 DUP3 ADD MLOAD DUP2 PUSH1 0x0 ADD PUSH1 0x2 PUSH2 0x100 EXP DUP2 SLOAD DUP2 PUSH20 0xFFFFFFFFFFFFFFFFFFFFFFFFFFFFFFFFFFFFFFFF MUL NOT AND SWAP1 DUP4 PUSH20 0xFFFFFFFFFFFFFFFFFFFFFFFFFFFFFFFFFFFFFFFF AND MUL OR SWAP1 SSTORE POP SWAP1 POP POP PUSH1 0x3 DUP4 DUP4 PUSH1 0x40 MLOAD PUSH2 0x1645 SWAP3 SWAP2 SWAP1 PUSH2 0x311D JUMP JUMPDEST SWAP1 DUP2 MSTORE PUSH1 0x20 ADD PUSH1 0x40 MLOAD DUP1 SWAP2 SUB SWAP1 KECCAK256 DUP5 SWAP1 DUP1 PUSH1 0x1 DUP2 SLOAD ADD DUP1 DUP3 SSTORE DUP1 SWAP2 POP POP PUSH1 0x1 SWAP1 SUB SWAP1 PUSH1 0x0 MSTORE PUSH1 0x20 PUSH1 0x0 KECCAK256 ADD PUSH1 0x0 SWAP1 SWAP2 SWAP1 SWAP2 SWAP1 SWAP2 PUSH2 0x100 EXP DUP2 SLOAD DUP2 PUSH20 0xFFFFFFFFFFFFFFFFFFFFFFFFFFFFFFFFFFFFFFFF MUL NOT AND SWAP1 DUP4 PUSH20 0xFFFFFFFFFFFFFFFFFFFFFFFFFFFFFFFFFFFFFFFF AND MUL OR SWAP1 SSTORE POP POP POP POP POP JUMP JUMPDEST PUSH1 0x0 PUSH20 0xFFFFFFFFFFFFFFFFFFFFFFFFFFFFFFFFFFFFFFFF AND PUSH1 0x0 DUP8 PUSH1 0x40 MLOAD PUSH2 0x16E2 SWAP2 SWAP1 PUSH2 0x3136 JUMP JUMPDEST SWAP1 DUP2 MSTORE PUSH1 0x20 ADD PUSH1 0x40 MLOAD DUP1 SWAP2 SUB SWAP1 KECCAK256 PUSH1 0x1 ADD PUSH1 0x0 SWAP1 SLOAD SWAP1 PUSH2 0x100 EXP SWAP1 DIV PUSH20 0xFFFFFFFFFFFFFFFFFFFFFFFFFFFFFFFFFFFFFFFF AND PUSH20 0xFFFFFFFFFFFFFFFFFFFFFFFFFFFFFFFFFFFFFFFF AND EQ PUSH2 0x176A JUMPI PUSH1 0x40 MLOAD PUSH32 0x8C379A000000000000000000000000000000000000000000000000000000000 DUP2 MSTORE PUSH1 0x4 ADD PUSH2 0x1761 SWAP1 PUSH2 0x3355 JUMP JUMPDEST PUSH1 0x40 MLOAD DUP1 SWAP2 SUB SWAP1 REVERT JUMPDEST PUSH1 0x0 PUSH1 0x40 MLOAD DUP1 PUSH2 0x180 ADD PUSH1 0x40 MSTORE DUP1 DUP9 DUP2 MSTORE PUSH1 0x20 ADD CALLER PUSH20 0xFFFFFFFFFFFFFFFFFFFFFFFFFFFFFFFFFFFFFFFF AND DUP2 MSTORE PUSH1 0x20 ADD PUSH1 0x0 DUP2 MSTORE PUSH1 0x20 ADD DUP8 TIMESTAMP PUSH2 0x17AD SWAP2 SWAP1 PUSH2 0x359E JUMP JUMPDEST DUP2 MSTORE PUSH1 0x20 ADD DUP7 DUP2 MSTORE PUSH1 0x20 ADD PUSH1 0x0 DUP2 MSTORE PUSH1 0x20 ADD PUSH1 0x0 ISZERO ISZERO DUP2 MSTORE PUSH1 0x20 ADD PUSH32 0x52656A6563746564000000000000000000000000000000000000000000000000 DUP2 MSTORE PUSH1 0x20 ADD DUP4 DUP2 MSTORE PUSH1 0x20 ADD DUP5 DUP2 MSTORE PUSH1 0x20 ADD DUP6 DUP2 MSTORE PUSH1 0x20 ADD DUP8 DUP2 MSTORE POP SWAP1 POP DUP1 PUSH1 0x0 DUP9 PUSH1 0x40 MLOAD PUSH2 0x1817 SWAP2 SWAP1 PUSH2 0x3136 JUMP JUMPDEST SWAP1 DUP2 MSTORE PUSH1 0x20 ADD PUSH1 0x40 MLOAD DUP1 SWAP2 SUB SWAP1 KECCAK256 PUSH1 0x0 DUP3 ADD MLOAD DUP2 PUSH1 0x0 ADD SWAP1 DUP1 MLOAD SWAP1 PUSH1 0x20 ADD SWAP1 PUSH2 0x1841 SWAP3 SWAP2 SWAP1 PUSH2 0x26BA JUMP JUMPDEST POP PUSH1 0x20 DUP3 ADD MLOAD DUP2 PUSH1 0x1 ADD PUSH1 0x0 PUSH2 0x100 EXP DUP2 SLOAD DUP2 PUSH20 0xFFFFFFFFFFFFFFFFFFFFFFFFFFFFFFFFFFFFFFFF MUL NOT AND SWAP1 DUP4 PUSH20 0xFFFFFFFFFFFFFFFFFFFFFFFFFFFFFFFFFFFFFFFF AND MUL OR SWAP1 SSTORE POP PUSH1 0x40 DUP3 ADD MLOAD DUP2 PUSH1 0x2 ADD SSTORE PUSH1 0x60 DUP3 ADD MLOAD DUP2 PUSH1 0x3 ADD SSTORE PUSH1 0x80 DUP3 ADD MLOAD DUP2 PUSH1 0x4 ADD SSTORE PUSH1 0xA0 DUP3 ADD MLOAD DUP2 PUSH1 0x5 ADD SSTORE PUSH1 0xC0 DUP3 ADD MLOAD DUP2 PUSH1 0x6 ADD PUSH1 0x0 PUSH2 0x100 EXP DUP2 SLOAD DUP2 PUSH1 0xFF MUL NOT AND SWAP1 DUP4 ISZERO ISZERO MUL OR SWAP1 SSTORE POP PUSH1 0xE0 DUP3 ADD MLOAD DUP2 PUSH1 0x7 ADD SSTORE PUSH2 0x100 DUP3 ADD MLOAD DUP2 PUSH1 0x8 ADD SWAP1 DUP1 MLOAD SWAP1 PUSH1 0x20 ADD SWAP1 PUSH2 0x18F8 SWAP3 SWAP2 SWAP1 PUSH2 0x26BA JUMP JUMPDEST POP PUSH2 0x120 DUP3 ADD MLOAD DUP2 PUSH1 0x9 ADD SWAP1 DUP1 MLOAD SWAP1 PUSH1 0x20 ADD SWAP1 PUSH2 0x1916 SWAP3 SWAP2 SWAP1 PUSH2 0x26BA JUMP JUMPDEST POP PUSH2 0x140 DUP3 ADD MLOAD DUP2 PUSH1 0xA ADD SSTORE PUSH2 0x160 DUP3 ADD MLOAD DUP2 PUSH1 0xB ADD SSTORE SWAP1 POP POP DUP1 PUSH1 0x0 DUP5 PUSH1 0x40 MLOAD PUSH2 0x1941 SWAP2 SWAP1 PUSH2 0x3136 JUMP JUMPDEST SWAP1 DUP2 MSTORE PUSH1 0x20 ADD PUSH1 0x40 MLOAD DUP1 SWAP2 SUB SWAP1 KECCAK256 PUSH1 0x0 DUP3 ADD MLOAD DUP2 PUSH1 0x0 ADD SWAP1 DUP1 MLOAD SWAP1 PUSH1 0x20 ADD SWAP1 PUSH2 0x196B SWAP3 SWAP2 SWAP1 PUSH2 0x26BA JUMP JUMPDEST POP PUSH1 0x20 DUP3 ADD MLOAD DUP2 PUSH1 0x1 ADD PUSH1 0x0 PUSH2 0x100 EXP DUP2 SLOAD DUP2 PUSH20 0xFFFFFFFFFFFFFFFFFFFFFFFFFFFFFFFFFFFFFFFF MUL NOT AND SWAP1 DUP4 PUSH20 0xFFFFFFFFFFFFFFFFFFFFFFFFFFFFFFFFFFFFFFFF AND MUL OR SWAP1 SSTORE POP PUSH1 0x40 DUP3 ADD MLOAD DUP2 PUSH1 0x2 ADD SSTORE PUSH1 0x60 DUP3 ADD MLOAD DUP2 PUSH1 0x3 ADD SSTORE PUSH1 0x80 DUP3 ADD MLOAD DUP2 PUSH1 0x4 ADD SSTORE PUSH1 0xA0 DUP3 ADD MLOAD DUP2 PUSH1 0x5 ADD SSTORE PUSH1 0xC0 DUP3 ADD MLOAD DUP2 PUSH1 0x6 ADD PUSH1 0x0 PUSH2 0x100 EXP DUP2 SLOAD DUP2 PUSH1 0xFF MUL NOT AND SWAP1 DUP4 ISZERO ISZERO MUL OR SWAP1 SSTORE POP PUSH1 0xE0 DUP3 ADD MLOAD DUP2 PUSH1 0x7 ADD SSTORE PUSH2 0x100 DUP3 ADD MLOAD DUP2 PUSH1 0x8 ADD SWAP1 DUP1 MLOAD SWAP1 PUSH1 0x20 ADD SWAP1 PUSH2 0x1A22 SWAP3 SWAP2 SWAP1 PUSH2 0x26BA JUMP JUMPDEST POP PUSH2 0x120 DUP3 ADD MLOAD DUP2 PUSH1 0x9 ADD SWAP1 DUP1 MLOAD SWAP1 PUSH1 0x20 ADD SWAP1 PUSH2 0x1A40 SWAP3 SWAP2 SWAP1 PUSH2 0x26BA JUMP JUMPDEST POP PUSH2 0x140 DUP3 ADD MLOAD DUP2 PUSH1 0xA ADD SSTORE PUSH2 0x160 DUP3 ADD MLOAD DUP2 PUSH1 0xB ADD SSTORE SWAP1 POP POP POP POP POP POP POP POP POP JUMP JUMPDEST PUSH1 0x0 DUP3 DUP3 PUSH1 0x40 MLOAD PUSH2 0x1A75 SWAP3 SWAP2 SWAP1 PUSH2 0x311D JUMP JUMPDEST SWAP1 DUP2 MSTORE PUSH1 0x20 ADD PUSH1 0x40 MLOAD DUP1 SWAP2 SUB SWAP1 KECCAK256 PUSH1 0x3 ADD SLOAD TIMESTAMP LT ISZERO PUSH2 0x1AC9 JUMPI PUSH1 0x40 MLOAD PUSH32 0x8C379A000000000000000000000000000000000000000000000000000000000 DUP2 MSTORE PUSH1 0x4 ADD PUSH2 0x1AC0 SWAP1 PUSH2 0x3455 JUMP JUMPDEST PUSH1 0x40 MLOAD DUP1 SWAP2 SUB SWAP1 REVERT JUMPDEST PUSH1 0x0 ISZERO ISZERO PUSH1 0x0 DUP4 DUP4 PUSH1 0x40 MLOAD PUSH2 0x1ADF SWAP3 SWAP2 SWAP1 PUSH2 0x311D JUMP JUMPDEST SWAP1 DUP2 MSTORE PUSH1 0x20 ADD PUSH1 0x40 MLOAD DUP1 SWAP2 SUB SWAP1 KECCAK256 PUSH1 0x6 ADD PUSH1 0x0 SWAP1 SLOAD SWAP1 PUSH2 0x100 EXP SWAP1 DIV PUSH1 0xFF AND ISZERO ISZERO EQ PUSH2 0x1B40 JUMPI PUSH1 0x40 MLOAD PUSH32 0x8C379A000000000000000000000000000000000000000000000000000000000 DUP2 MSTORE PUSH1 0x4 ADD PUSH2 0x1B37 SWAP1 PUSH2 0x3495 JUMP JUMPDEST PUSH1 0x40 MLOAD DUP1 SWAP2 SUB SWAP1 REVERT JUMPDEST PUSH1 0x0 DUP3 DUP3 PUSH1 0x40 MLOAD PUSH2 0x1B52 SWAP3 SWAP2 SWAP1 PUSH2 0x311D JUMP JUMPDEST SWAP1 DUP2 MSTORE PUSH1 0x20 ADD PUSH1 0x40 MLOAD DUP1 SWAP2 SUB SWAP1 KECCAK256 PUSH1 0x1 ADD PUSH1 0x0 SWAP1 SLOAD SWAP1 PUSH2 0x100 EXP SWAP1 DIV PUSH20 0xFFFFFFFFFFFFFFFFFFFFFFFFFFFFFFFFFFFFFFFF AND PUSH20 0xFFFFFFFFFFFFFFFFFFFFFFFFFFFFFFFFFFFFFFFF AND CALLER PUSH20 0xFFFFFFFFFFFFFFFFFFFFFFFFFFFFFFFFFFFFFFFF AND EQ DUP1 PUSH2 0x1C6A JUMPI POP PUSH1 0x0 PUSH20 0xFFFFFFFFFFFFFFFFFFFFFFFFFFFFFFFFFFFFFFFF AND PUSH1 0x1 DUP4 DUP4 PUSH1 0x40 MLOAD PUSH2 0x1BE2 SWAP3 SWAP2 SWAP1 PUSH2 0x311D JUMP JUMPDEST SWAP1 DUP2 MSTORE PUSH1 0x20 ADD PUSH1 0x40 MLOAD DUP1 SWAP2 SUB SWAP1 KECCAK256 PUSH1 0x0 CALLER PUSH20 0xFFFFFFFFFFFFFFFFFFFFFFFFFFFFFFFFFFFFFFFF AND PUSH20 0xFFFFFFFFFFFFFFFFFFFFFFFFFFFFFFFFFFFFFFFF AND DUP2 MSTORE PUSH1 0x20 ADD SWAP1 DUP2 MSTORE PUSH1 0x20 ADD PUSH1 0x0 KECCAK256 PUSH1 0x0 ADD PUSH1 0x2 SWAP1 SLOAD SWAP1 PUSH2 0x100 EXP SWAP1 DIV PUSH20 0xFFFFFFFFFFFFFFFFFFFFFFFFFFFFFFFFFFFFFFFF AND PUSH20 0xFFFFFFFFFFFFFFFFFFFFFFFFFFFFFFFFFFFFFFFF AND EQ ISZERO JUMPDEST PUSH2 0x1CA9 JUMPI PUSH1 0x40 MLOAD PUSH32 0x8C379A000000000000000000000000000000000000000000000000000000000 DUP2 MSTORE PUSH1 0x4 ADD PUSH2 0x1CA0 SWAP1 PUSH2 0x3375 JUMP JUMPDEST PUSH1 0x40 MLOAD DUP1 SWAP2 SUB SWAP1 REVERT JUMPDEST PUSH1 0x0 PUSH1 0x64 PUSH1 0x3 DUP5 DUP5 PUSH1 0x40 MLOAD PUSH2 0x1CBF SWAP3 SWAP2 SWAP1 PUSH2 0x311D JUMP JUMPDEST SWAP1 DUP2 MSTORE PUSH1 0x20 ADD PUSH1 0x40 MLOAD DUP1 SWAP2 SUB SWAP1 KECCAK256 DUP1 SLOAD SWAP1 POP PUSH1 0x0 DUP6 DUP6 PUSH1 0x40 MLOAD PUSH2 0x1CE3 SWAP3 SWAP2 SWAP1 PUSH2 0x311D JUMP JUMPDEST SWAP1 DUP2 MSTORE PUSH1 0x20 ADD PUSH1 0x40 MLOAD DUP1 SWAP2 SUB SWAP1 KECCAK256 PUSH1 0x5 ADD SLOAD PUSH2 0x1CFF SWAP2 SWAP1 PUSH2 0x35F4 JUMP JUMPDEST PUSH2 0x1D09 SWAP2 SWAP1 PUSH2 0x3625 JUMP JUMPDEST SWAP1 POP PUSH1 0x0 DUP4 DUP4 PUSH1 0x40 MLOAD PUSH2 0x1D1D SWAP3 SWAP2 SWAP1 PUSH2 0x311D JUMP JUMPDEST SWAP1 DUP2 MSTORE PUSH1 0x20 ADD PUSH1 0x40 MLOAD DUP1 SWAP2 SUB SWAP1 KECCAK256 PUSH1 0x4 ADD SLOAD DUP2 LT PUSH2 0x1D7E JUMPI PUSH32 0x4163636570746564000000000000000000000000000000000000000000000000 PUSH1 0x0 DUP5 DUP5 PUSH1 0x40 MLOAD PUSH2 0x1D68 SWAP3 SWAP2 SWAP1 PUSH2 0x311D JUMP JUMPDEST SWAP1 DUP2 MSTORE PUSH1 0x20 ADD PUSH1 0x40 MLOAD DUP1 SWAP2 SUB SWAP1 KECCAK256 PUSH1 0x7 ADD DUP2 SWAP1 SSTORE POP JUMPDEST PUSH1 0x0 JUMPDEST PUSH1 0x3 DUP5 DUP5 PUSH1 0x40 MLOAD PUSH2 0x1D93 SWAP3 SWAP2 SWAP1 PUSH2 0x311D JUMP JUMPDEST SWAP1 DUP2 MSTORE PUSH1 0x20 ADD PUSH1 0x40 MLOAD DUP1 SWAP2 SUB SWAP1 KECCAK256 DUP1 SLOAD SWAP1 POP DUP2 PUSH1 0xFF AND LT ISZERO PUSH2 0x2060 JUMPI PUSH1 0x0 ISZERO ISZERO PUSH1 0x1 DUP6 DUP6 PUSH1 0x40 MLOAD PUSH2 0x1DC5 SWAP3 SWAP2 SWAP1 PUSH2 0x311D JUMP JUMPDEST SWAP1 DUP2 MSTORE PUSH1 0x20 ADD PUSH1 0x40 MLOAD DUP1 SWAP2 SUB SWAP1 KECCAK256 PUSH1 0x0 PUSH1 0x3 DUP8 DUP8 PUSH1 0x40 MLOAD PUSH2 0x1DE7 SWAP3 SWAP2 SWAP1 PUSH2 0x311D JUMP JUMPDEST SWAP1 DUP2 MSTORE PUSH1 0x20 ADD PUSH1 0x40 MLOAD DUP1 SWAP2 SUB SWAP1 KECCAK256 DUP5 PUSH1 0xFF AND DUP2 SLOAD DUP2 LT PUSH2 0x1E0A JUMPI PUSH2 0x1E09 PUSH2 0x383A JUMP JUMPDEST JUMPDEST SWAP1 PUSH1 0x0 MSTORE PUSH1 0x20 PUSH1 0x0 KECCAK256 ADD PUSH1 0x0 SWAP1 SLOAD SWAP1 PUSH2 0x100 EXP SWAP1 DIV PUSH20 0xFFFFFFFFFFFFFFFFFFFFFFFFFFFFFFFFFFFFFFFF AND PUSH20 0xFFFFFFFFFFFFFFFFFFFFFFFFFFFFFFFFFFFFFFFF AND PUSH20 0xFFFFFFFFFFFFFFFFFFFFFFFFFFFFFFFFFFFFFFFF AND DUP2 MSTORE PUSH1 0x20 ADD SWAP1 DUP2 MSTORE PUSH1 0x20 ADD PUSH1 0x0 KECCAK256 PUSH1 0x0 ADD PUSH1 0x0 SWAP1 SLOAD SWAP1 PUSH2 0x100 EXP SWAP1 DIV PUSH1 0xFF AND ISZERO ISZERO EQ ISZERO PUSH2 0x204D JUMPI PUSH1 0x2 DUP5 DUP5 PUSH1 0x40 MLOAD PUSH2 0x1E9A SWAP3 SWAP2 SWAP1 PUSH2 0x311D JUMP JUMPDEST SWAP1 DUP2 MSTORE PUSH1 0x20 ADD PUSH1 0x40 MLOAD DUP1 SWAP2 SUB SWAP1 KECCAK256 PUSH1 0x1 DUP6 DUP6 PUSH1 0x40 MLOAD PUSH2 0x1EBA SWAP3 SWAP2 SWAP1 PUSH2 0x311D JUMP JUMPDEST SWAP1 DUP2 MSTORE PUSH1 0x20 ADD PUSH1 0x40 MLOAD DUP1 SWAP2 SUB SWAP1 KECCAK256 PUSH1 0x0 PUSH1 0x3 DUP8 DUP8 PUSH1 0x40 MLOAD PUSH2 0x1EDC SWAP3 SWAP2 SWAP1 PUSH2 0x311D JUMP JUMPDEST SWAP1 DUP2 MSTORE PUSH1 0x20 ADD PUSH1 0x40 MLOAD DUP1 SWAP2 SUB SWAP1 KECCAK256 DUP5 PUSH1 0xFF AND DUP2 SLOAD DUP2 LT PUSH2 0x1EFF JUMPI PUSH2 0x1EFE PUSH2 0x383A JUMP JUMPDEST JUMPDEST SWAP1 PUSH1 0x0 MSTORE PUSH1 0x20 PUSH1 0x0 KECCAK256 ADD PUSH1 0x0 SWAP1 SLOAD SWAP1 PUSH2 0x100 EXP SWAP1 DIV PUSH20 0xFFFFFFFFFFFFFFFFFFFFFFFFFFFFFFFFFFFFFFFF AND PUSH20 0xFFFFFFFFFFFFFFFFFFFFFFFFFFFFFFFFFFFFFFFF AND PUSH20 0xFFFFFFFFFFFFFFFFFFFFFFFFFFFFFFFFFFFFFFFF AND DUP2 MSTORE PUSH1 0x20 ADD SWAP1 DUP2 MSTORE PUSH1 0x20 ADD PUSH1 0x0 KECCAK256 SWAP1 DUP1 PUSH1 0x1 DUP2 SLOAD ADD DUP1 DUP3 SSTORE DUP1 SWAP2 POP POP PUSH1 0x1 SWAP1 SUB SWAP1 PUSH1 0x0 MSTORE PUSH1 0x20 PUSH1 0x0 KECCAK256 ADD PUSH1 0x0 SWAP1 SWAP2 SWAP1 SWAP2 SWAP1 SWAP2 POP PUSH1 0x0 DUP3 ADD PUSH1 0x0 SWAP1 SLOAD SWAP1 PUSH2 0x100 EXP SWAP1 DIV PUSH1 0xFF AND DUP2 PUSH1 0x0 ADD PUSH1 0x0 PUSH2 0x100 EXP DUP2 SLOAD DUP2 PUSH1 0xFF MUL NOT AND SWAP1 DUP4 ISZERO ISZERO MUL OR SWAP1 SSTORE POP PUSH1 0x0 DUP3 ADD PUSH1 0x1 SWAP1 SLOAD SWAP1 PUSH2 0x100 EXP SWAP1 DIV PUSH1 0xFF AND DUP2 PUSH1 0x0 ADD PUSH1 0x1 PUSH2 0x100 EXP DUP2 SLOAD DUP2 PUSH1 0xFF MUL NOT AND SWAP1 DUP4 ISZERO ISZERO MUL OR SWAP1 SSTORE POP PUSH1 0x0 DUP3 ADD PUSH1 0x2 SWAP1 SLOAD SWAP1 PUSH2 0x100 EXP SWAP1 DIV PUSH20 0xFFFFFFFFFFFFFFFFFFFFFFFFFFFFFFFFFFFFFFFF AND DUP2 PUSH1 0x0 ADD PUSH1 0x2 PUSH2 0x100 EXP DUP2 SLOAD DUP2 PUSH20 0xFFFFFFFFFFFFFFFFFFFFFFFFFFFFFFFFFFFFFFFF MUL NOT AND SWAP1 DUP4 PUSH20 0xFFFFFFFFFFFFFFFFFFFFFFFFFFFFFFFFFFFFFFFF AND MUL OR SWAP1 SSTORE POP POP POP JUMPDEST DUP1 DUP1 PUSH2 0x2058 SWAP1 PUSH2 0x3783 JUMP JUMPDEST SWAP2 POP POP PUSH2 0x1D81 JUMP JUMPDEST POP PUSH1 0x1 PUSH1 0x0 DUP5 DUP5 PUSH1 0x40 MLOAD PUSH2 0x2075 SWAP3 SWAP2 SWAP1 PUSH2 0x311D JUMP JUMPDEST SWAP1 DUP2 MSTORE PUSH1 0x20 ADD PUSH1 0x40 MLOAD DUP1 SWAP2 SUB SWAP1 KECCAK256 PUSH1 0x6 ADD PUSH1 0x0 PUSH2 0x100 EXP DUP2 SLOAD DUP2 PUSH1 0xFF MUL NOT AND SWAP1 DUP4 ISZERO ISZERO MUL OR SWAP1 SSTORE POP POP POP POP JUMP JUMPDEST PUSH1 0x2 DUP3 DUP1 MLOAD PUSH1 0x20 DUP2 ADD DUP3 ADD DUP1 MLOAD DUP5 DUP3 MSTORE PUSH1 0x20 DUP4 ADD PUSH1 0x20 DUP6 ADD KECCAK256 DUP2 DUP4 MSTORE DUP1 SWAP6 POP POP POP POP POP POP DUP2 DUP2 SLOAD DUP2 LT PUSH2 0x20D4 JUMPI PUSH1 0x0 DUP1 REVERT JUMPDEST SWAP1 PUSH1 0x0 MSTORE PUSH1 0x20 PUSH1 0x0 KECCAK256 ADD PUSH1 0x0 SWAP2 POP SWAP2 POP POP DUP1 PUSH1 0x0 ADD PUSH1 0x0 SWAP1 SLOAD SWAP1 PUSH2 0x100 EXP SWAP1 DIV PUSH1 0xFF AND SWAP1 DUP1 PUSH1 0x0 ADD PUSH1 0x1 SWAP1 SLOAD SWAP1 PUSH2 0x100 EXP SWAP1 DIV PUSH1 0xFF AND SWAP1 DUP1 PUSH1 0x0 ADD PUSH1 0x2 SWAP1 SLOAD SWAP1 PUSH2 0x100 EXP SWAP1 DIV PUSH20 0xFFFFFFFFFFFFFFFFFFFFFFFFFFFFFFFFFFFFFFFF AND SWAP1 POP DUP4 JUMP JUMPDEST PUSH1 0x0 DUP1 PUSH1 0x0 DUP1 DUP8 PUSH1 0x40 MLOAD PUSH2 0x2149 SWAP2 SWAP1 PUSH2 0x3136 JUMP JUMPDEST SWAP1 DUP2 MSTORE PUSH1 0x20 ADD PUSH1 0x40 MLOAD DUP1 SWAP2 SUB SWAP1 KECCAK256 PUSH1 0x1 ADD PUSH1 0x0 SWAP1 SLOAD SWAP1 PUSH2 0x100 EXP SWAP1 DIV PUSH20 0xFFFFFFFFFFFFFFFFFFFFFFFFFFFFFFFFFFFFFFFF AND PUSH20 0xFFFFFFFFFFFFFFFFFFFFFFFFFFFFFFFFFFFFFFFF AND CALLER PUSH20 0xFFFFFFFFFFFFFFFFFFFFFFFFFFFFFFFFFFFFFFFF AND EQ PUSH2 0x21E8 JUMPI PUSH1 0x40 MLOAD PUSH32 0x8C379A000000000000000000000000000000000000000000000000000000000 DUP2 MSTORE PUSH1 0x4 ADD PUSH2 0x21DF SWAP1 PUSH2 0x3435 JUMP JUMPDEST PUSH1 0x40 MLOAD DUP1 SWAP2 SUB SWAP1 REVERT JUMPDEST PUSH1 0x0 PUSH1 0x1 SWAP1 POP PUSH1 0x0 PUSH1 0x1 SWAP1 POP PUSH1 0x0 PUSH1 0x1 SWAP1 POP PUSH1 0x0 PUSH20 0xFFFFFFFFFFFFFFFFFFFFFFFFFFFFFFFFFFFFFFFF AND PUSH1 0x0 DUP12 PUSH1 0x40 MLOAD PUSH2 0x2222 SWAP2 SWAP1 PUSH2 0x3136 JUMP JUMPDEST SWAP1 DUP2 MSTORE PUSH1 0x20 ADD PUSH1 0x40 MLOAD DUP1 SWAP2 SUB SWAP1 KECCAK256 PUSH1 0x1 ADD PUSH1 0x0 SWAP1 SLOAD SWAP1 PUSH2 0x100 EXP SWAP1 DIV PUSH20 0xFFFFFFFFFFFFFFFFFFFFFFFFFFFFFFFFFFFFFFFF AND PUSH20 0xFFFFFFFFFFFFFFFFFFFFFFFFFFFFFFFFFFFFFFFF AND EQ ISZERO PUSH2 0x2283 JUMPI PUSH1 0x1 DUP1 PUSH1 0x1 SWAP6 POP SWAP6 POP SWAP6 POP POP POP POP PUSH2 0x2317 JUMP JUMPDEST PUSH1 0x0 DUP11 PUSH1 0x40 MLOAD PUSH2 0x2293 SWAP2 SWAP1 PUSH2 0x3136 JUMP JUMPDEST SWAP1 DUP2 MSTORE PUSH1 0x20 ADD PUSH1 0x40 MLOAD DUP1 SWAP2 SUB SWAP1 KECCAK256 PUSH1 0x4 ADD SLOAD DUP10 EQ PUSH2 0x22B0 JUMPI PUSH1 0x0 SWAP3 POP JUMPDEST PUSH1 0x0 DUP11 PUSH1 0x40 MLOAD PUSH2 0x22C0 SWAP2 SWAP1 PUSH2 0x3136 JUMP JUMPDEST SWAP1 DUP2 MSTORE PUSH1 0x20 ADD PUSH1 0x40 MLOAD DUP1 SWAP2 SUB SWAP1 KECCAK256 PUSH1 0xA ADD SLOAD DUP8 EQ PUSH2 0x22DD JUMPI PUSH1 0x0 SWAP2 POP JUMPDEST DUP8 PUSH1 0x0 DUP12 PUSH1 0x40 MLOAD PUSH2 0x22EE SWAP2 SWAP1 PUSH2 0x3136 JUMP JUMPDEST SWAP1 DUP2 MSTORE PUSH1 0x20 ADD PUSH1 0x40 MLOAD DUP1 SWAP2 SUB SWAP1 KECCAK256 PUSH1 0xB ADD SLOAD EQ PUSH2 0x230A JUMPI PUSH1 0x0 SWAP1 POP JUMPDEST DUP3 DUP3 DUP3 SWAP6 POP SWAP6 POP SWAP6 POP POP POP POP JUMPDEST SWAP5 POP SWAP5 POP SWAP5 SWAP2 POP POP JUMP JUMPDEST PUSH1 0x60 PUSH1 0x0 DUP4 DUP4 PUSH1 0x40 MLOAD PUSH2 0x2335 SWAP3 SWAP2 SWAP1 PUSH2 0x311D JUMP JUMPDEST SWAP1 DUP2 MSTORE PUSH1 0x20 ADD PUSH1 0x40 MLOAD DUP1 SWAP2 SUB SWAP1 KECCAK256 PUSH1 0x0 ADD DUP1 SLOAD PUSH2 0x2351 SWAP1 PUSH2 0x3720 JUMP JUMPDEST DUP1 PUSH1 0x1F ADD PUSH1 0x20 DUP1 SWAP2 DIV MUL PUSH1 0x20 ADD PUSH1 0x40 MLOAD SWAP1 DUP2 ADD PUSH1 0x40 MSTORE DUP1 SWAP3 SWAP2 SWAP1 DUP2 DUP2 MSTORE PUSH1 0x20 ADD DUP3 DUP1 SLOAD PUSH2 0x237D SWAP1 PUSH2 0x3720 JUMP JUMPDEST DUP1 ISZERO PUSH2 0x23CA JUMPI DUP1 PUSH1 0x1F LT PUSH2 0x239F JUMPI PUSH2 0x100 DUP1 DUP4 SLOAD DIV MUL DUP4 MSTORE SWAP2 PUSH1 0x20 ADD SWAP2 PUSH2 0x23CA JUMP JUMPDEST DUP3 ADD SWAP2 SWAP1 PUSH1 0x0 MSTORE PUSH1 0x20 PUSH1 0x0 KECCAK256 SWAP1 JUMPDEST DUP2 SLOAD DUP2 MSTORE SWAP1 PUSH1 0x1 ADD SWAP1 PUSH1 0x20 ADD DUP1 DUP4 GT PUSH2 0x23AD JUMPI DUP3 SWAP1 SUB PUSH1 0x1F AND DUP3 ADD SWAP2 JUMPDEST POP POP POP POP POP SWAP1 POP SWAP3 SWAP2 POP POP JUMP JUMPDEST PUSH2 0x23DF PUSH2 0x2740 JUMP JUMPDEST PUSH1 0x0 DUP4 DUP4 PUSH1 0x40 MLOAD PUSH2 0x23F1 SWAP3 SWAP2 SWAP1 PUSH2 0x311D JUMP JUMPDEST SWAP1 DUP2 MSTORE PUSH1 0x20 ADD PUSH1 0x40 MLOAD DUP1 SWAP2 SUB SWAP1 KECCAK256 PUSH1 0x40 MLOAD DUP1 PUSH2 0x180 ADD PUSH1 0x40 MSTORE SWAP1 DUP2 PUSH1 0x0 DUP3 ADD DUP1 SLOAD PUSH2 0x241B SWAP1 PUSH2 0x3720 JUMP JUMPDEST DUP1 PUSH1 0x1F ADD PUSH1 0x20 DUP1 SWAP2 DIV MUL PUSH1 0x20 ADD PUSH1 0x40 MLOAD SWAP1 DUP2 ADD PUSH1 0x40 MSTORE DUP1 SWAP3 SWAP2 SWAP1 DUP2 DUP2 MSTORE PUSH1 0x20 ADD DUP3 DUP1 SLOAD PUSH2 0x2447 SWAP1 PUSH2 0x3720 JUMP JUMPDEST DUP1 ISZERO PUSH2 0x2494 JUMPI DUP1 PUSH1 0x1F LT PUSH2 0x2469 JUMPI PUSH2 0x100 DUP1 DUP4 SLOAD DIV MUL DUP4 MSTORE SWAP2 PUSH1 0x20 ADD SWAP2 PUSH2 0x2494 JUMP JUMPDEST DUP3 ADD SWAP2 SWAP1 PUSH1 0x0 MSTORE PUSH1 0x20 PUSH1 0x0 KECCAK256 SWAP1 JUMPDEST DUP2 SLOAD DUP2 MSTORE SWAP1 PUSH1 0x1 ADD SWAP1 PUSH1 0x20 ADD DUP1 DUP4 GT PUSH2 0x2477 JUMPI DUP3 SWAP1 SUB PUSH1 0x1F AND DUP3 ADD SWAP2 JUMPDEST POP POP POP POP POP DUP2 MSTORE PUSH1 0x20 ADD PUSH1 0x1 DUP3 ADD PUSH1 0x0 SWAP1 SLOAD SWAP1 PUSH2 0x100 EXP SWAP1 DIV PUSH20 0xFFFFFFFFFFFFFFFFFFFFFFFFFFFFFFFFFFFFFFFF AND PUSH20 0xFFFFFFFFFFFFFFFFFFFFFFFFFFFFFFFFFFFFFFFF AND PUSH20 0xFFFFFFFFFFFFFFFFFFFFFFFFFFFFFFFFFFFFFFFF AND DUP2 MSTORE PUSH1 0x20 ADD PUSH1 0x2 DUP3 ADD SLOAD DUP2 MSTORE PUSH1 0x20 ADD PUSH1 0x3 DUP3 ADD SLOAD DUP2 MSTORE PUSH1 0x20 ADD PUSH1 0x4 DUP3 ADD SLOAD DUP2 MSTORE PUSH1 0x20 ADD PUSH1 0x5 DUP3 ADD SLOAD DUP2 MSTORE PUSH1 0x20 ADD PUSH1 0x6 DUP3 ADD PUSH1 0x0 SWAP1 SLOAD SWAP1 PUSH2 0x100 EXP SWAP1 DIV PUSH1 0xFF AND ISZERO ISZERO ISZERO ISZERO DUP2 MSTORE PUSH1 0x20 ADD PUSH1 0x7 DUP3 ADD SLOAD DUP2 MSTORE PUSH1 0x20 ADD PUSH1 0x8 DUP3 ADD DUP1 SLOAD PUSH2 0x2550 SWAP1 PUSH2 0x3720 JUMP JUMPDEST DUP1 PUSH1 0x1F ADD PUSH1 0x20 DUP1 SWAP2 DIV MUL PUSH1 0x20 ADD PUSH1 0x40 MLOAD SWAP1 DUP2 ADD PUSH1 0x40 MSTORE DUP1 SWAP3 SWAP2 SWAP1 DUP2 DUP2 MSTORE PUSH1 0x20 ADD DUP3 DUP1 SLOAD PUSH2 0x257C SWAP1 PUSH2 0x3720 JUMP JUMPDEST DUP1 ISZERO PUSH2 0x25C9 JUMPI DUP1 PUSH1 0x1F LT PUSH2 0x259E JUMPI PUSH2 0x100 DUP1 DUP4 SLOAD DIV MUL DUP4 MSTORE SWAP2 PUSH1 0x20 ADD SWAP2 PUSH2 0x25C9 JUMP JUMPDEST DUP3 ADD SWAP2 SWAP1 PUSH1 0x0 MSTORE PUSH1 0x20 PUSH1 0x0 KECCAK256 SWAP1 JUMPDEST DUP2 SLOAD DUP2 MSTORE SWAP1 PUSH1 0x1 ADD SWAP1 PUSH1 0x20 ADD DUP1 DUP4 GT PUSH2 0x25AC JUMPI DUP3 SWAP1 SUB PUSH1 0x1F AND DUP3 ADD SWAP2 JUMPDEST POP POP POP POP POP DUP2 MSTORE PUSH1 0x20 ADD PUSH1 0x9 DUP3 ADD DUP1 SLOAD PUSH2 0x25E2 SWAP1 PUSH2 0x3720 JUMP JUMPDEST DUP1 PUSH1 0x1F ADD PUSH1 0x20 DUP1 SWAP2 DIV MUL PUSH1 0x20 ADD PUSH1 0x40 MLOAD SWAP1 DUP2 ADD PUSH1 0x40 MSTORE DUP1 SWAP3 SWAP2 SWAP1 DUP2 DUP2 MSTORE PUSH1 0x20 ADD DUP3 DUP1 SLOAD PUSH2 0x260E SWAP1 PUSH2 0x3720 JUMP JUMPDEST DUP1 ISZERO PUSH2 0x265B JUMPI DUP1 PUSH1 0x1F LT PUSH2 0x2630 JUMPI PUSH2 0x100 DUP1 DUP4 SLOAD DIV MUL DUP4 MSTORE SWAP2 PUSH1 0x20 ADD SWAP2 PUSH2 0x265B JUMP JUMPDEST DUP3 ADD SWAP2 SWAP1 PUSH1 0x0 MSTORE PUSH1 0x20 PUSH1 0x0 KECCAK256 SWAP1 JUMPDEST DUP2 SLOAD DUP2 MSTORE SWAP1 PUSH1 0x1 ADD SWAP1 PUSH1 0x20 ADD DUP1 DUP4 GT PUSH2 0x263E JUMPI DUP3 SWAP1 SUB PUSH1 0x1F AND DUP3 ADD SWAP2 JUMPDEST POP POP POP POP POP DUP2 MSTORE PUSH1 0x20 ADD PUSH1 0xA DUP3 ADD SLOAD DUP2 MSTORE PUSH1 0x20 ADD PUSH1 0xB DUP3 ADD SLOAD DUP2 MSTORE POP POP SWAP1 POP SWAP3 SWAP2 POP POP JUMP JUMPDEST PUSH1 0x0 DUP1 DUP4 DUP4 PUSH1 0x40 MLOAD PUSH2 0x2693 SWAP3 SWAP2 SWAP1 PUSH2 0x311D JUMP JUMPDEST SWAP1 DUP2 MSTORE PUSH1 0x20 ADD PUSH1 0x40 MLOAD DUP1 SWAP2 SUB SWAP1 KECCAK256 PUSH1 0x6 ADD PUSH1 0x0 SWAP1 SLOAD SWAP1 PUSH2 0x100 EXP SWAP1 DIV PUSH1 0xFF AND SWAP1 POP SWAP3 SWAP2 POP POP JUMP JUMPDEST DUP3 DUP1 SLOAD PUSH2 0x26C6 SWAP1 PUSH2 0x3720 JUMP JUMPDEST SWAP1 PUSH1 0x0 MSTORE PUSH1 0x20 PUSH1 0x0 KECCAK256 SWAP1 PUSH1 0x1F ADD PUSH1 0x20 SWAP1 DIV DUP2 ADD SWAP3 DUP3 PUSH2 0x26E8 JUMPI PUSH1 0x0 DUP6 SSTORE PUSH2 0x272F JUMP JUMPDEST DUP3 PUSH1 0x1F LT PUSH2 0x2701 JUMPI DUP1 MLOAD PUSH1 0xFF NOT AND DUP4 DUP1 ADD OR DUP6 SSTORE PUSH2 0x272F JUMP JUMPDEST DUP3 DUP1 ADD PUSH1 0x1 ADD DUP6 SSTORE DUP3 ISZERO PUSH2 0x272F JUMPI SWAP2 DUP3 ADD JUMPDEST DUP3 DUP2 GT ISZERO PUSH2 0x272E JUMPI DUP3 MLOAD DUP3 SSTORE SWAP2 PUSH1 0x20 ADD SWAP2 SWAP1 PUSH1 0x1 ADD SWAP1 PUSH2 0x2713 JUMP JUMPDEST JUMPDEST POP SWAP1 POP PUSH2 0x273C SWAP2 SWAP1 PUSH2 0x27BF JUMP JUMPDEST POP SWAP1 JUMP JUMPDEST PUSH1 0x40 MLOAD DUP1 PUSH2 0x180 ADD PUSH1 0x40 MSTORE DUP1 PUSH1 0x60 DUP2 MSTORE PUSH1 0x20 ADD PUSH1 0x0 PUSH20 0xFFFFFFFFFFFFFFFFFFFFFFFFFFFFFFFFFFFFFFFF AND DUP2 MSTORE PUSH1 0x20 ADD PUSH1 0x0 DUP2 MSTORE PUSH1 0x20 ADD PUSH1 0x0 DUP2 MSTORE PUSH1 0x20 ADD PUSH1 0x0 DUP2 MSTORE PUSH1 0x20 ADD PUSH1 0x0 DUP2 MSTORE PUSH1 0x20 ADD PUSH1 0x0 ISZERO ISZERO DUP2 MSTORE PUSH1 0x20 ADD PUSH1 0x0 DUP1 NOT AND DUP2 MSTORE PUSH1 0x20 ADD PUSH1 0x60 DUP2 MSTORE PUSH1 0x20 ADD PUSH1 0x60 DUP2 MSTORE PUSH1 0x20 ADD PUSH1 0x0 DUP1 NOT AND DUP2 MSTORE PUSH1 0x20 ADD PUSH1 0x0 DUP2 MSTORE POP SWAP1 JUMP JUMPDEST JUMPDEST DUP1 DUP3 GT ISZERO PUSH2 0x27D8 JUMPI PUSH1 0x0 DUP2 PUSH1 0x0 SWAP1 SSTORE POP PUSH1 0x1 ADD PUSH2 0x27C0 JUMP JUMPDEST POP SWAP1 JUMP JUMPDEST PUSH1 0x0 PUSH2 0x27EF PUSH2 0x27EA DUP5 PUSH2 0x34FC JUMP JUMPDEST PUSH2 0x34D7 JUMP JUMPDEST SWAP1 POP DUP3 DUP2 MSTORE PUSH1 0x20 DUP2 ADD DUP5 DUP5 DUP5 ADD GT ISZERO PUSH2 0x280B JUMPI PUSH2 0x280A PUSH2 0x38A7 JUMP JUMPDEST JUMPDEST PUSH2 0x2816 DUP5 DUP3 DUP6 PUSH2 0x36DE JUMP JUMPDEST POP SWAP4 SWAP3 POP POP POP JUMP JUMPDEST PUSH1 0x0 DUP2 CALLDATALOAD SWAP1 POP PUSH2 0x282D DUP2 PUSH2 0x3B4B JUMP JUMPDEST SWAP3 SWAP2 POP POP JUMP JUMPDEST PUSH1 0x0 DUP2 CALLDATALOAD SWAP1 POP PUSH2 0x2842 DUP2 PUSH2 0x3B62 JUMP JUMPDEST SWAP3 SWAP2 POP POP JUMP JUMPDEST PUSH1 0x0 DUP1 DUP4 PUSH1 0x1F DUP5 ADD SLT PUSH2 0x285E JUMPI PUSH2 0x285D PUSH2 0x389D JUMP JUMPDEST JUMPDEST DUP3 CALLDATALOAD SWAP1 POP PUSH8 0xFFFFFFFFFFFFFFFF DUP2 GT ISZERO PUSH2 0x287B JUMPI PUSH2 0x287A PUSH2 0x3898 JUMP JUMPDEST JUMPDEST PUSH1 0x20 DUP4 ADD SWAP2 POP DUP4 PUSH1 0x1 DUP3 MUL DUP4 ADD GT ISZERO PUSH2 0x2897 JUMPI PUSH2 0x2896 PUSH2 0x38A2 JUMP JUMPDEST JUMPDEST SWAP3 POP SWAP3 SWAP1 POP JUMP JUMPDEST PUSH1 0x0 DUP3 PUSH1 0x1F DUP4 ADD SLT PUSH2 0x28B3 JUMPI PUSH2 0x28B2 PUSH2 0x389D JUMP JUMPDEST JUMPDEST DUP2 CALLDATALOAD PUSH2 0x28C3 DUP5 DUP3 PUSH1 0x20 DUP7 ADD PUSH2 0x27DC JUMP JUMPDEST SWAP2 POP POP SWAP3 SWAP2 POP POP JUMP JUMPDEST PUSH1 0x0 DUP2 CALLDATALOAD SWAP1 POP PUSH2 0x28DB DUP2 PUSH2 0x3B79 JUMP JUMPDEST SWAP3 SWAP2 POP POP JUMP JUMPDEST PUSH1 0x0 DUP1 PUSH1 0x0 PUSH1 0x40 DUP5 DUP7 SUB SLT ISZERO PUSH2 0x28FA JUMPI PUSH2 0x28F9 PUSH2 0x38B1 JUMP JUMPDEST JUMPDEST PUSH1 0x0 PUSH2 0x2908 DUP7 DUP3 DUP8 ADD PUSH2 0x281E JUMP JUMPDEST SWAP4 POP POP PUSH1 0x20 DUP5 ADD CALLDATALOAD PUSH8 0xFFFFFFFFFFFFFFFF DUP2 GT ISZERO PUSH2 0x2929 JUMPI PUSH2 0x2928 PUSH2 0x38AC JUMP JUMPDEST JUMPDEST PUSH2 0x2935 DUP7 DUP3 DUP8 ADD PUSH2 0x2848 JUMP JUMPDEST SWAP3 POP SWAP3 POP POP SWAP3 POP SWAP3 POP SWAP3 JUMP JUMPDEST PUSH1 0x0 DUP1 PUSH1 0x20 DUP4 DUP6 SUB SLT ISZERO PUSH2 0x2958 JUMPI PUSH2 0x2957 PUSH2 0x38B1 JUMP JUMPDEST JUMPDEST PUSH1 0x0 DUP4 ADD CALLDATALOAD PUSH8 0xFFFFFFFFFFFFFFFF DUP2 GT ISZERO PUSH2 0x2976 JUMPI PUSH2 0x2975 PUSH2 0x38AC JUMP JUMPDEST JUMPDEST PUSH2 0x2982 DUP6 DUP3 DUP7 ADD PUSH2 0x2848 JUMP JUMPDEST SWAP3 POP SWAP3 POP POP SWAP3 POP SWAP3 SWAP1 POP JUMP JUMPDEST PUSH1 0x0 PUSH1 0x20 DUP3 DUP5 SUB SLT ISZERO PUSH2 0x29A4 JUMPI PUSH2 0x29A3 PUSH2 0x38B1 JUMP JUMPDEST JUMPDEST PUSH1 0x0 DUP3 ADD CALLDATALOAD PUSH8 0xFFFFFFFFFFFFFFFF DUP2 GT ISZERO PUSH2 0x29C2 JUMPI PUSH2 0x29C1 PUSH2 0x38AC JUMP JUMPDEST JUMPDEST PUSH2 0x29CE DUP5 DUP3 DUP6 ADD PUSH2 0x289E JUMP JUMPDEST SWAP2 POP POP SWAP3 SWAP2 POP POP JUMP JUMPDEST PUSH1 0x0 DUP1 PUSH1 0x40 DUP4 DUP6 SUB SLT ISZERO PUSH2 0x29EE JUMPI PUSH2 0x29ED PUSH2 0x38B1 JUMP JUMPDEST JUMPDEST PUSH1 0x0 DUP4 ADD CALLDATALOAD PUSH8 0xFFFFFFFFFFFFFFFF DUP2 GT ISZERO PUSH2 0x2A0C JUMPI PUSH2 0x2A0B PUSH2 0x38AC JUMP JUMPDEST JUMPDEST PUSH2 0x2A18 DUP6 DUP3 DUP7 ADD PUSH2 0x289E JUMP JUMPDEST SWAP3 POP POP PUSH1 0x20 PUSH2 0x2A29 DUP6 DUP3 DUP7 ADD PUSH2 0x281E JUMP JUMPDEST SWAP2 POP POP SWAP3 POP SWAP3 SWAP1 POP JUMP JUMPDEST PUSH1 0x0 DUP1 PUSH1 0x0 PUSH1 0x40 DUP5 DUP7 SUB SLT ISZERO PUSH2 0x2A4C JUMPI PUSH2 0x2A4B PUSH2 0x38B1 JUMP JUMPDEST JUMPDEST PUSH1 0x0 DUP5 ADD CALLDATALOAD PUSH8 0xFFFFFFFFFFFFFFFF DUP2 GT ISZERO PUSH2 0x2A6A JUMPI PUSH2 0x2A69 PUSH2 0x38AC JUMP JUMPDEST JUMPDEST PUSH2 0x2A76 DUP7 DUP3 DUP8 ADD PUSH2 0x289E JUMP JUMPDEST SWAP4 POP POP PUSH1 0x20 DUP5 ADD CALLDATALOAD PUSH8 0xFFFFFFFFFFFFFFFF DUP2 GT ISZERO PUSH2 0x2A97 JUMPI PUSH2 0x2A96 PUSH2 0x38AC JUMP JUMPDEST JUMPDEST PUSH2 0x2AA3 DUP7 DUP3 DUP8 ADD PUSH2 0x2848 JUMP JUMPDEST SWAP3 POP SWAP3 POP POP SWAP3 POP SWAP3 POP SWAP3 JUMP JUMPDEST PUSH1 0x0 DUP1 PUSH1 0x40 DUP4 DUP6 SUB SLT ISZERO PUSH2 0x2AC6 JUMPI PUSH2 0x2AC5 PUSH2 0x38B1 JUMP JUMPDEST JUMPDEST PUSH1 0x0 DUP4 ADD CALLDATALOAD PUSH8 0xFFFFFFFFFFFFFFFF DUP2 GT ISZERO PUSH2 0x2AE4 JUMPI PUSH2 0x2AE3 PUSH2 0x38AC JUMP JUMPDEST JUMPDEST PUSH2 0x2AF0 DUP6 DUP3 DUP7 ADD PUSH2 0x289E JUMP JUMPDEST SWAP3 POP POP PUSH1 0x20 PUSH2 0x2B01 DUP6 DUP3 DUP7 ADD PUSH2 0x28CC JUMP JUMPDEST SWAP2 POP POP SWAP3 POP SWAP3 SWAP1 POP JUMP JUMPDEST PUSH1 0x0 DUP1 PUSH1 0x0 DUP1 PUSH1 0x80 DUP6 DUP8 SUB SLT ISZERO PUSH2 0x2B25 JUMPI PUSH2 0x2B24 PUSH2 0x38B1 JUMP JUMPDEST JUMPDEST PUSH1 0x0 DUP6 ADD CALLDATALOAD PUSH8 0xFFFFFFFFFFFFFFFF DUP2 GT ISZERO PUSH2 0x2B43 JUMPI PUSH2 0x2B42 PUSH2 0x38AC JUMP JUMPDEST JUMPDEST PUSH2 0x2B4F DUP8 DUP3 DUP9 ADD PUSH2 0x289E JUMP JUMPDEST SWAP5 POP POP PUSH1 0x20 PUSH2 0x2B60 DUP8 DUP3 DUP9 ADD PUSH2 0x28CC JUMP JUMPDEST SWAP4 POP POP PUSH1 0x40 PUSH2 0x2B71 DUP8 DUP3 DUP9 ADD PUSH2 0x28CC JUMP JUMPDEST SWAP3 POP POP PUSH1 0x60 PUSH2 0x2B82 DUP8 DUP3 DUP9 ADD PUSH2 0x2833 JUMP JUMPDEST SWAP2 POP POP SWAP3 SWAP6 SWAP2 SWAP5 POP SWAP3 POP JUMP JUMPDEST PUSH1 0x0 DUP1 PUSH1 0x0 DUP1 PUSH1 0x0 DUP1 PUSH1 0xC0 DUP8 DUP10 SUB SLT ISZERO PUSH2 0x2BAB JUMPI PUSH2 0x2BAA PUSH2 0x38B1 JUMP JUMPDEST JUMPDEST PUSH1 0x0 DUP8 ADD CALLDATALOAD PUSH8 0xFFFFFFFFFFFFFFFF DUP2 GT ISZERO PUSH2 0x2BC9 JUMPI PUSH2 0x2BC8 PUSH2 0x38AC JUMP JUMPDEST JUMPDEST PUSH2 0x2BD5 DUP10 DUP3 DUP11 ADD PUSH2 0x289E JUMP JUMPDEST SWAP7 POP POP PUSH1 0x20 PUSH2 0x2BE6 DUP10 DUP3 DUP11 ADD PUSH2 0x28CC JUMP JUMPDEST SWAP6 POP POP PUSH1 0x40 PUSH2 0x2BF7 DUP10 DUP3 DUP11 ADD PUSH2 0x28CC JUMP JUMPDEST SWAP5 POP POP PUSH1 0x60 PUSH2 0x2C08 DUP10 DUP3 DUP11 ADD PUSH2 0x2833 JUMP JUMPDEST SWAP4 POP POP PUSH1 0x80 DUP8 ADD CALLDATALOAD PUSH8 0xFFFFFFFFFFFFFFFF DUP2 GT ISZERO PUSH2 0x2C29 JUMPI PUSH2 0x2C28 PUSH2 0x38AC JUMP JUMPDEST JUMPDEST PUSH2 0x2C35 DUP10 DUP3 DUP11 ADD PUSH2 0x289E JUMP JUMPDEST SWAP3 POP POP PUSH1 0xA0 DUP8 ADD CALLDATALOAD PUSH8 0xFFFFFFFFFFFFFFFF DUP2 GT ISZERO PUSH2 0x2C56 JUMPI PUSH2 0x2C55 PUSH2 0x38AC JUMP JUMPDEST JUMPDEST PUSH2 0x2C62 DUP10 DUP3 DUP11 ADD PUSH2 0x289E JUMP JUMPDEST SWAP2 POP POP SWAP3 SWAP6 POP SWAP3 SWAP6 POP SWAP3 SWAP6 JUMP JUMPDEST PUSH1 0x0 PUSH2 0x2C7B DUP4 DUP4 PUSH2 0x30BD JUMP JUMPDEST PUSH1 0x60 DUP4 ADD SWAP1 POP SWAP3 SWAP2 POP POP JUMP JUMPDEST PUSH2 0x2C90 DUP2 PUSH2 0x367F JUMP JUMPDEST DUP3 MSTORE POP POP JUMP JUMPDEST PUSH2 0x2C9F DUP2 PUSH2 0x367F JUMP JUMPDEST DUP3 MSTORE POP POP JUMP JUMPDEST PUSH1 0x0 PUSH2 0x2CB0 DUP3 PUSH2 0x353D JUMP JUMPDEST PUSH2 0x2CBA DUP2 DUP6 PUSH2 0x3560 JUMP JUMPDEST SWAP4 POP PUSH2 0x2CC5 DUP4 PUSH2 0x352D JUMP JUMPDEST DUP1 PUSH1 0x0 JUMPDEST DUP4 DUP2 LT ISZERO PUSH2 0x2CF6 JUMPI DUP2 MLOAD PUSH2 0x2CDD DUP9 DUP3 PUSH2 0x2C6F JUMP JUMPDEST SWAP8 POP PUSH2 0x2CE8 DUP4 PUSH2 0x3553 JUMP JUMPDEST SWAP3 POP POP PUSH1 0x1 DUP2 ADD SWAP1 POP PUSH2 0x2CC9 JUMP JUMPDEST POP DUP6 SWAP4 POP POP POP POP SWAP3 SWAP2 POP POP JUMP JUMPDEST PUSH2 0x2D0C DUP2 PUSH2 0x3691 JUMP JUMPDEST DUP3 MSTORE POP POP JUMP JUMPDEST PUSH2 0x2D1B DUP2 PUSH2 0x3691 JUMP JUMPDEST DUP3 MSTORE POP POP JUMP JUMPDEST PUSH2 0x2D2A DUP2 PUSH2 0x369D JUMP JUMPDEST DUP3 MSTORE POP POP JUMP JUMPDEST PUSH2 0x2D39 DUP2 PUSH2 0x369D JUMP JUMPDEST DUP3 MSTORE POP POP JUMP JUMPDEST PUSH1 0x0 PUSH2 0x2D4B DUP4 DUP6 PUSH2 0x3593 JUMP JUMPDEST SWAP4 POP PUSH2 0x2D58 DUP4 DUP6 DUP5 PUSH2 0x36DE JUMP JUMPDEST DUP3 DUP5 ADD SWAP1 POP SWAP4 SWAP3 POP POP POP JUMP JUMPDEST PUSH1 0x0 PUSH2 0x2D6F DUP3 PUSH2 0x3548 JUMP JUMPDEST PUSH2 0x2D79 DUP2 DUP6 PUSH2 0x3571 JUMP JUMPDEST SWAP4 POP PUSH2 0x2D89 DUP2 DUP6 PUSH1 0x20 DUP7 ADD PUSH2 0x36ED JUMP JUMPDEST PUSH2 0x2D92 DUP2 PUSH2 0x38B6 JUMP JUMPDEST DUP5 ADD SWAP2 POP POP SWAP3 SWAP2 POP POP JUMP JUMPDEST PUSH1 0x0 PUSH2 0x2DA8 DUP3 PUSH2 0x3548 JUMP JUMPDEST PUSH2 0x2DB2 DUP2 DUP6 PUSH2 0x3582 JUMP JUMPDEST SWAP4 POP PUSH2 0x2DC2 DUP2 DUP6 PUSH1 0x20 DUP7 ADD PUSH2 0x36ED JUMP JUMPDEST PUSH2 0x2DCB DUP2 PUSH2 0x38B6 JUMP JUMPDEST DUP5 ADD SWAP2 POP POP SWAP3 SWAP2 POP POP JUMP JUMPDEST PUSH1 0x0 PUSH2 0x2DE1 DUP3 PUSH2 0x3548 JUMP JUMPDEST PUSH2 0x2DEB DUP2 DUP6 PUSH2 0x3593 JUMP JUMPDEST SWAP4 POP PUSH2 0x2DFB DUP2 DUP6 PUSH1 0x20 DUP7 ADD PUSH2 0x36ED JUMP JUMPDEST DUP1 DUP5 ADD SWAP2 POP POP SWAP3 SWAP2 POP POP JUMP JUMPDEST PUSH1 0x0 PUSH2 0x2E14 PUSH1 0x1F DUP4 PUSH2 0x3582 JUMP JUMPDEST SWAP2 POP PUSH2 0x2E1F DUP3 PUSH2 0x38C7 JUMP JUMPDEST PUSH1 0x20 DUP3 ADD SWAP1 POP SWAP2 SWAP1 POP JUMP JUMPDEST PUSH1 0x0 PUSH2 0x2E37 PUSH1 0x19 DUP4 PUSH2 0x3582 JUMP JUMPDEST SWAP2 POP PUSH2 0x2E42 DUP3 PUSH2 0x38F0 JUMP JUMPDEST PUSH1 0x20 DUP3 ADD SWAP1 POP SWAP2 SWAP1 POP JUMP JUMPDEST PUSH1 0x0 PUSH2 0x2E5A PUSH1 0x26 DUP4 PUSH2 0x3582 JUMP JUMPDEST SWAP2 POP PUSH2 0x2E65 DUP3 PUSH2 0x3919 JUMP JUMPDEST PUSH1 0x40 DUP3 ADD SWAP1 POP SWAP2 SWAP1 POP JUMP JUMPDEST PUSH1 0x0 PUSH2 0x2E7D PUSH1 0x1C DUP4 PUSH2 0x3582 JUMP JUMPDEST SWAP2 POP PUSH2 0x2E88 DUP3 PUSH2 0x3968 JUMP JUMPDEST PUSH1 0x20 DUP3 ADD SWAP1 POP SWAP2 SWAP1 POP JUMP JUMPDEST PUSH1 0x0 PUSH2 0x2EA0 PUSH1 0x15 DUP4 PUSH2 0x3582 JUMP JUMPDEST SWAP2 POP PUSH2 0x2EAB DUP3 PUSH2 0x3991 JUMP JUMPDEST PUSH1 0x20 DUP3 ADD SWAP1 POP SWAP2 SWAP1 POP JUMP JUMPDEST PUSH1 0x0 PUSH2 0x2EC3 PUSH1 0x1E DUP4 PUSH2 0x3582 JUMP JUMPDEST SWAP2 POP PUSH2 0x2ECE DUP3 PUSH2 0x39BA JUMP JUMPDEST PUSH1 0x20 DUP3 ADD SWAP1 POP SWAP2 SWAP1 POP JUMP JUMPDEST PUSH1 0x0 PUSH2 0x2EE6 PUSH1 0x24 DUP4 PUSH2 0x3582 JUMP JUMPDEST SWAP2 POP PUSH2 0x2EF1 DUP3 PUSH2 0x39E3 JUMP JUMPDEST PUSH1 0x40 DUP3 ADD SWAP1 POP SWAP2 SWAP1 POP JUMP JUMPDEST PUSH1 0x0 PUSH2 0x2F09 PUSH1 0x28 DUP4 PUSH2 0x3582 JUMP JUMPDEST SWAP2 POP PUSH2 0x2F14 DUP3 PUSH2 0x3A32 JUMP JUMPDEST PUSH1 0x40 DUP3 ADD SWAP1 POP SWAP2 SWAP1 POP JUMP JUMPDEST PUSH1 0x0 PUSH2 0x2F2C PUSH1 0x14 DUP4 PUSH2 0x3582 JUMP JUMPDEST SWAP2 POP PUSH2 0x2F37 DUP3 PUSH2 0x3A81 JUMP JUMPDEST PUSH1 0x20 DUP3 ADD SWAP1 POP SWAP2 SWAP1 POP JUMP JUMPDEST PUSH1 0x0 PUSH2 0x2F4F PUSH1 0x20 DUP4 PUSH2 0x3582 JUMP JUMPDEST SWAP2 POP PUSH2 0x2F5A DUP3 PUSH2 0x3AAA JUMP JUMPDEST PUSH1 0x20 DUP3 ADD SWAP1 POP SWAP2 SWAP1 POP JUMP JUMPDEST PUSH1 0x0 PUSH2 0x2F72 PUSH1 0x12 DUP4 PUSH2 0x3582 JUMP JUMPDEST SWAP2 POP PUSH2 0x2F7D DUP3 PUSH2 0x3AD3 JUMP JUMPDEST PUSH1 0x20 DUP3 ADD SWAP1 POP SWAP2 SWAP1 POP JUMP JUMPDEST PUSH1 0x0 PUSH2 0x2F95 PUSH1 0x25 DUP4 PUSH2 0x3582 JUMP JUMPDEST SWAP2 POP PUSH2 0x2FA0 DUP3 PUSH2 0x3AFC JUMP JUMPDEST PUSH1 0x40 DUP3 ADD SWAP1 POP SWAP2 SWAP1 POP JUMP JUMPDEST PUSH1 0x0 PUSH2 0x180 DUP4 ADD PUSH1 0x0 DUP4 ADD MLOAD DUP5 DUP3 SUB PUSH1 0x0 DUP7 ADD MSTORE PUSH2 0x2FC9 DUP3 DUP3 PUSH2 0x2D64 JUMP JUMPDEST SWAP2 POP POP PUSH1 0x20 DUP4 ADD MLOAD PUSH2 0x2FDE PUSH1 0x20 DUP7 ADD DUP3 PUSH2 0x2C87 JUMP JUMPDEST POP PUSH1 0x40 DUP4 ADD MLOAD PUSH2 0x2FF1 PUSH1 0x40 DUP7 ADD DUP3 PUSH2 0x30FF JUMP JUMPDEST POP PUSH1 0x60 DUP4 ADD MLOAD PUSH2 0x3004 PUSH1 0x60 DUP7 ADD DUP3 PUSH2 0x30FF JUMP JUMPDEST POP PUSH1 0x80 DUP4 ADD MLOAD PUSH2 0x3017 PUSH1 0x80 DUP7 ADD DUP3 PUSH2 0x30FF JUMP JUMPDEST POP PUSH1 0xA0 DUP4 ADD MLOAD PUSH2 0x302A PUSH1 0xA0 DUP7 ADD DUP3 PUSH2 0x30FF JUMP JUMPDEST POP PUSH1 0xC0 DUP4 ADD MLOAD PUSH2 0x303D PUSH1 0xC0 DUP7 ADD DUP3 PUSH2 0x2D03 JUMP JUMPDEST POP PUSH1 0xE0 DUP4 ADD MLOAD PUSH2 0x3050 PUSH1 0xE0 DUP7 ADD DUP3 PUSH2 0x2D21 JUMP JUMPDEST POP PUSH2 0x100 DUP4 ADD MLOAD DUP5 DUP3 SUB PUSH2 0x100 DUP7 ADD MSTORE PUSH2 0x306A DUP3 DUP3 PUSH2 0x2D64 JUMP JUMPDEST SWAP2 POP POP PUSH2 0x120 DUP4 ADD MLOAD DUP5 DUP3 SUB PUSH2 0x120 DUP7 ADD MSTORE PUSH2 0x3086 DUP3 DUP3 PUSH2 0x2D64 JUMP JUMPDEST SWAP2 POP POP PUSH2 0x140 DUP4 ADD MLOAD PUSH2 0x309D PUSH2 0x140 DUP7 ADD DUP3 PUSH2 0x2D21 JUMP JUMPDEST POP PUSH2 0x160 DUP4 ADD MLOAD PUSH2 0x30B2 PUSH2 0x160 DUP7 ADD DUP3 PUSH2 0x30FF JUMP JUMPDEST POP DUP1 SWAP2 POP POP SWAP3 SWAP2 POP POP JUMP JUMPDEST PUSH1 0x60 DUP3 ADD PUSH1 0x0 DUP3 ADD MLOAD PUSH2 0x30D3 PUSH1 0x0 DUP6 ADD DUP3 PUSH2 0x2D03 JUMP JUMPDEST POP PUSH1 0x20 DUP3 ADD MLOAD PUSH2 0x30E6 PUSH1 0x20 DUP6 ADD DUP3 PUSH2 0x2D03 JUMP JUMPDEST POP PUSH1 0x40 DUP3 ADD MLOAD PUSH2 0x30F9 PUSH1 0x40 DUP6 ADD DUP3 PUSH2 0x2C87 JUMP JUMPDEST POP POP POP POP JUMP JUMPDEST PUSH2 0x3108 DUP2 PUSH2 0x36C7 JUMP JUMPDEST DUP3 MSTORE POP POP JUMP JUMPDEST PUSH2 0x3117 DUP2 PUSH2 0x36C7 JUMP JUMPDEST DUP3 MSTORE POP POP JUMP JUMPDEST PUSH1 0x0 PUSH2 0x312A DUP3 DUP5 DUP7 PUSH2 0x2D3F JUMP JUMPDEST SWAP2 POP DUP2 SWAP1 POP SWAP4 SWAP3 POP POP POP JUMP JUMPDEST PUSH1 0x0 PUSH2 0x3142 DUP3 DUP5 PUSH2 0x2DD6 JUMP JUMPDEST SWAP2 POP DUP2 SWAP1 POP SWAP3 SWAP2 POP POP JUMP JUMPDEST PUSH1 0x0 PUSH1 0x20 DUP3 ADD SWAP1 POP PUSH2 0x3162 PUSH1 0x0 DUP4 ADD DUP5 PUSH2 0x2C96 JUMP JUMPDEST SWAP3 SWAP2 POP POP JUMP JUMPDEST PUSH1 0x0 PUSH1 0x20 DUP3 ADD SWAP1 POP PUSH2 0x317D PUSH1 0x0 DUP4 ADD DUP5 PUSH2 0x2D12 JUMP JUMPDEST SWAP3 SWAP2 POP POP JUMP JUMPDEST PUSH1 0x0 PUSH1 0x60 DUP3 ADD SWAP1 POP PUSH2 0x3198 PUSH1 0x0 DUP4 ADD DUP7 PUSH2 0x2D12 JUMP JUMPDEST PUSH2 0x31A5 PUSH1 0x20 DUP4 ADD DUP6 PUSH2 0x2D12 JUMP JUMPDEST PUSH2 0x31B2 PUSH1 0x40 DUP4 ADD DUP5 PUSH2 0x2C96 JUMP JUMPDEST SWAP5 SWAP4 POP POP POP POP JUMP JUMPDEST PUSH1 0x0 PUSH1 0x60 DUP3 ADD SWAP1 POP PUSH2 0x31CF PUSH1 0x0 DUP4 ADD DUP7 PUSH2 0x2D12 JUMP JUMPDEST PUSH2 0x31DC PUSH1 0x20 DUP4 ADD DUP6 PUSH2 0x2D12 JUMP JUMPDEST PUSH2 0x31E9 PUSH1 0x40 DUP4 ADD DUP5 PUSH2 0x2D12 JUMP JUMPDEST SWAP5 SWAP4 POP POP POP POP JUMP JUMPDEST PUSH1 0x0 PUSH1 0x80 DUP3 ADD SWAP1 POP PUSH2 0x3206 PUSH1 0x0 DUP4 ADD DUP8 PUSH2 0x2D30 JUMP JUMPDEST DUP2 DUP2 SUB PUSH1 0x20 DUP4 ADD MSTORE PUSH2 0x3218 DUP2 DUP7 PUSH2 0x2D9D JUMP JUMPDEST SWAP1 POP PUSH2 0x3227 PUSH1 0x40 DUP4 ADD DUP6 PUSH2 0x310E JUMP JUMPDEST DUP2 DUP2 SUB PUSH1 0x60 DUP4 ADD MSTORE PUSH2 0x3239 DUP2 DUP5 PUSH2 0x2CA5 JUMP JUMPDEST SWAP1 POP SWAP6 SWAP5 POP POP POP POP POP JUMP JUMPDEST PUSH1 0x0 PUSH1 0x20 DUP3 ADD SWAP1 POP DUP2 DUP2 SUB PUSH1 0x0 DUP4 ADD MSTORE PUSH2 0x325E DUP2 DUP5 PUSH2 0x2D9D JUMP JUMPDEST SWAP1 POP SWAP3 SWAP2 POP POP JUMP JUMPDEST PUSH1 0x0 PUSH2 0x180 DUP3 ADD SWAP1 POP DUP2 DUP2 SUB PUSH1 0x0 DUP4 ADD MSTORE PUSH2 0x3281 DUP2 DUP16 PUSH2 0x2D9D JUMP JUMPDEST SWAP1 POP PUSH2 0x3290 PUSH1 0x20 DUP4 ADD DUP15 PUSH2 0x2C96 JUMP JUMPDEST PUSH2 0x329D PUSH1 0x40 DUP4 ADD DUP14 PUSH2 0x310E JUMP JUMPDEST PUSH2 0x32AA PUSH1 0x60 DUP4 ADD DUP13 PUSH2 0x310E JUMP JUMPDEST PUSH2 0x32B7 PUSH1 0x80 DUP4 ADD DUP12 PUSH2 0x310E JUMP JUMPDEST PUSH2 0x32C4 PUSH1 0xA0 DUP4 ADD DUP11 PUSH2 0x310E JUMP JUMPDEST PUSH2 0x32D1 PUSH1 0xC0 DUP4 ADD DUP10 PUSH2 0x2D12 JUMP JUMPDEST PUSH2 0x32DE PUSH1 0xE0 DUP4 ADD DUP9 PUSH2 0x2D30 JUMP JUMPDEST DUP2 DUP2 SUB PUSH2 0x100 DUP4 ADD MSTORE PUSH2 0x32F1 DUP2 DUP8 PUSH2 0x2D9D JUMP JUMPDEST SWAP1 POP DUP2 DUP2 SUB PUSH2 0x120 DUP4 ADD MSTORE PUSH2 0x3306 DUP2 DUP7 PUSH2 0x2D9D JUMP JUMPDEST SWAP1 POP PUSH2 0x3316 PUSH2 0x140 DUP4 ADD DUP6 PUSH2 0x2D30 JUMP JUMPDEST PUSH2 0x3324 PUSH2 0x160 DUP4 ADD DUP5 PUSH2 0x310E JUMP JUMPDEST SWAP14 SWAP13 POP POP POP POP POP POP POP POP POP POP POP POP POP JUMP JUMPDEST PUSH1 0x0 PUSH1 0x20 DUP3 ADD SWAP1 POP DUP2 DUP2 SUB PUSH1 0x0 DUP4 ADD MSTORE PUSH2 0x334E DUP2 PUSH2 0x2E07 JUMP JUMPDEST SWAP1 POP SWAP2 SWAP1 POP JUMP JUMPDEST PUSH1 0x0 PUSH1 0x20 DUP3 ADD SWAP1 POP DUP2 DUP2 SUB PUSH1 0x0 DUP4 ADD MSTORE PUSH2 0x336E DUP2 PUSH2 0x2E2A JUMP JUMPDEST SWAP1 POP SWAP2 SWAP1 POP JUMP JUMPDEST PUSH1 0x0 PUSH1 0x20 DUP3 ADD SWAP1 POP DUP2 DUP2 SUB PUSH1 0x0 DUP4 ADD MSTORE PUSH2 0x338E DUP2 PUSH2 0x2E4D JUMP JUMPDEST SWAP1 POP SWAP2 SWAP1 POP JUMP JUMPDEST PUSH1 0x0 PUSH1 0x20 DUP3 ADD SWAP1 POP DUP2 DUP2 SUB PUSH1 0x0 DUP4 ADD MSTORE PUSH2 0x33AE DUP2 PUSH2 0x2E70 JUMP JUMPDEST SWAP1 POP SWAP2 SWAP1 POP JUMP JUMPDEST PUSH1 0x0 PUSH1 0x20 DUP3 ADD SWAP1 POP DUP2 DUP2 SUB PUSH1 0x0 DUP4 ADD MSTORE PUSH2 0x33CE DUP2 PUSH2 0x2E93 JUMP JUMPDEST SWAP1 POP SWAP2 SWAP1 POP JUMP JUMPDEST PUSH1 0x0 PUSH1 0x20 DUP3 ADD SWAP1 POP DUP2 DUP2 SUB PUSH1 0x0 DUP4 ADD MSTORE PUSH2 0x33EE DUP2 PUSH2 0x2EB6 JUMP JUMPDEST SWAP1 POP SWAP2 SWAP1 POP JUMP JUMPDEST PUSH1 0x0 PUSH1 0x20 DUP3 ADD SWAP1 POP DUP2 DUP2 SUB PUSH1 0x0 DUP4 ADD MSTORE PUSH2 0x340E DUP2 PUSH2 0x2ED9 JUMP JUMPDEST SWAP1 POP SWAP2 SWAP1 POP JUMP JUMPDEST PUSH1 0x0 PUSH1 0x20 DUP3 ADD SWAP1 POP DUP2 DUP2 SUB PUSH1 0x0 DUP4 ADD MSTORE PUSH2 0x342E DUP2 PUSH2 0x2EFC JUMP JUMPDEST SWAP1 POP SWAP2 SWAP1 POP JUMP JUMPDEST PUSH1 0x0 PUSH1 0x20 DUP3 ADD SWAP1 POP DUP2 DUP2 SUB PUSH1 0x0 DUP4 ADD MSTORE PUSH2 0x344E DUP2 PUSH2 0x2F1F JUMP JUMPDEST SWAP1 POP SWAP2 SWAP1 POP JUMP JUMPDEST PUSH1 0x0 PUSH1 0x20 DUP3 ADD SWAP1 POP DUP2 DUP2 SUB PUSH1 0x0 DUP4 ADD MSTORE PUSH2 0x346E DUP2 PUSH2 0x2F42 JUMP JUMPDEST SWAP1 POP SWAP2 SWAP1 POP JUMP JUMPDEST PUSH1 0x0 PUSH1 0x20 DUP3 ADD SWAP1 POP DUP2 DUP2 SUB PUSH1 0x0 DUP4 ADD MSTORE PUSH2 0x348E DUP2 PUSH2 0x2F65 JUMP JUMPDEST SWAP1 POP SWAP2 SWAP1 POP JUMP JUMPDEST PUSH1 0x0 PUSH1 0x20 DUP3 ADD SWAP1 POP DUP2 DUP2 SUB PUSH1 0x0 DUP4 ADD MSTORE PUSH2 0x34AE DUP2 PUSH2 0x2F88 JUMP JUMPDEST SWAP1 POP SWAP2 SWAP1 POP JUMP JUMPDEST PUSH1 0x0 PUSH1 0x20 DUP3 ADD SWAP1 POP DUP2 DUP2 SUB PUSH1 0x0 DUP4 ADD MSTORE PUSH2 0x34CF DUP2 DUP5 PUSH2 0x2FAB JUMP JUMPDEST SWAP1 POP SWAP3 SWAP2 POP POP JUMP JUMPDEST PUSH1 0x0 PUSH2 0x34E1 PUSH2 0x34F2 JUMP JUMPDEST SWAP1 POP PUSH2 0x34ED DUP3 DUP3 PUSH2 0x3752 JUMP JUMPDEST SWAP2 SWAP1 POP JUMP JUMPDEST PUSH1 0x0 PUSH1 0x40 MLOAD SWAP1 POP SWAP1 JUMP JUMPDEST PUSH1 0x0 PUSH8 0xFFFFFFFFFFFFFFFF DUP3 GT ISZERO PUSH2 0x3517 JUMPI PUSH2 0x3516 PUSH2 0x3869 JUMP JUMPDEST JUMPDEST PUSH2 0x3520 DUP3 PUSH2 0x38B6 JUMP JUMPDEST SWAP1 POP PUSH1 0x20 DUP2 ADD SWAP1 POP SWAP2 SWAP1 POP JUMP JUMPDEST PUSH1 0x0 DUP2 SWAP1 POP PUSH1 0x20 DUP3 ADD SWAP1 POP SWAP2 SWAP1 POP JUMP JUMPDEST PUSH1 0x0 DUP2 MLOAD SWAP1 POP SWAP2 SWAP1 POP JUMP JUMPDEST PUSH1 0x0 DUP2 MLOAD SWAP1 POP SWAP2 SWAP1 POP JUMP JUMPDEST PUSH1 0x0 PUSH1 0x20 DUP3 ADD SWAP1 POP SWAP2 SWAP1 POP JUMP JUMPDEST PUSH1 0x0 DUP3 DUP3 MSTORE PUSH1 0x20 DUP3 ADD SWAP1 POP SWAP3 SWAP2 POP POP JUMP JUMPDEST PUSH1 0x0 DUP3 DUP3 MSTORE PUSH1 0x20 DUP3 ADD SWAP1 POP SWAP3 SWAP2 POP POP JUMP JUMPDEST PUSH1 0x0 DUP3 DUP3 MSTORE PUSH1 0x20 DUP3 ADD SWAP1 POP SWAP3 SWAP2 POP POP JUMP JUMPDEST PUSH1 0x0 DUP2 SWAP1 POP SWAP3 SWAP2 POP POP JUMP JUMPDEST PUSH1 0x0 PUSH2 0x35A9 DUP3 PUSH2 0x36C7 JUMP JUMPDEST SWAP2 POP PUSH2 0x35B4 DUP4 PUSH2 0x36C7 JUMP JUMPDEST SWAP3 POP DUP3 PUSH32 0xFFFFFFFFFFFFFFFFFFFFFFFFFFFFFFFFFFFFFFFFFFFFFFFFFFFFFFFFFFFFFFFF SUB DUP3 GT ISZERO PUSH2 0x35E9 JUMPI PUSH2 0x35E8 PUSH2 0x37AD JUMP JUMPDEST JUMPDEST DUP3 DUP3 ADD SWAP1 POP SWAP3 SWAP2 POP POP JUMP JUMPDEST PUSH1 0x0 PUSH2 0x35FF DUP3 PUSH2 0x36C7 JUMP JUMPDEST SWAP2 POP PUSH2 0x360A DUP4 PUSH2 0x36C7 JUMP JUMPDEST SWAP3 POP DUP3 PUSH2 0x361A JUMPI PUSH2 0x3619 PUSH2 0x37DC JUMP JUMPDEST JUMPDEST DUP3 DUP3 DIV SWAP1 POP SWAP3 SWAP2 POP POP JUMP JUMPDEST PUSH1 0x0 PUSH2 0x3630 DUP3 PUSH2 0x36C7 JUMP JUMPDEST SWAP2 POP PUSH2 0x363B DUP4 PUSH2 0x36C7 JUMP JUMPDEST SWAP3 POP DUP2 PUSH32 0xFFFFFFFFFFFFFFFFFFFFFFFFFFFFFFFFFFFFFFFFFFFFFFFFFFFFFFFFFFFFFFFF DIV DUP4 GT DUP3 ISZERO ISZERO AND ISZERO PUSH2 0x3674 JUMPI PUSH2 0x3673 PUSH2 0x37AD JUMP JUMPDEST JUMPDEST DUP3 DUP3 MUL SWAP1 POP SWAP3 SWAP2 POP POP JUMP JUMPDEST PUSH1 0x0 PUSH2 0x368A DUP3 PUSH2 0x36A7 JUMP JUMPDEST SWAP1 POP SWAP2 SWAP1 POP JUMP JUMPDEST PUSH1 0x0 DUP2 ISZERO ISZERO SWAP1 POP SWAP2 SWAP1 POP JUMP JUMPDEST PUSH1 0x0 DUP2 SWAP1 POP SWAP2 SWAP1 POP JUMP JUMPDEST PUSH1 0x0 PUSH20 0xFFFFFFFFFFFFFFFFFFFFFFFFFFFFFFFFFFFFFFFF DUP3 AND SWAP1 POP SWAP2 SWAP1 POP JUMP JUMPDEST PUSH1 0x0 DUP2 SWAP1 POP SWAP2 SWAP1 POP JUMP JUMPDEST PUSH1 0x0 PUSH1 0xFF DUP3 AND SWAP1 POP SWAP2 SWAP1 POP JUMP JUMPDEST DUP3 DUP2 DUP4 CALLDATACOPY PUSH1 0x0 DUP4 DUP4 ADD MSTORE POP POP POP JUMP JUMPDEST PUSH1 0x0 JUMPDEST DUP4 DUP2 LT ISZERO PUSH2 0x370B JUMPI DUP1 DUP3 ADD MLOAD DUP2 DUP5 ADD MSTORE PUSH1 0x20 DUP2 ADD SWAP1 POP PUSH2 0x36F0 JUMP JUMPDEST DUP4 DUP2 GT ISZERO PUSH2 0x371A JUMPI PUSH1 0x0 DUP5 DUP5 ADD MSTORE JUMPDEST POP POP POP POP JUMP JUMPDEST PUSH1 0x0 PUSH1 0x2 DUP3 DIV SWAP1 POP PUSH1 0x1 DUP3 AND DUP1 PUSH2 0x3738 JUMPI PUSH1 0x7F DUP3 AND SWAP2 POP JUMPDEST PUSH1 0x20 DUP3 LT DUP2 EQ ISZERO PUSH2 0x374C JUMPI PUSH2 0x374B PUSH2 0x380B JUMP JUMPDEST JUMPDEST POP SWAP2 SWAP1 POP JUMP JUMPDEST PUSH2 0x375B DUP3 PUSH2 0x38B6 JUMP JUMPDEST DUP2 ADD DUP2 DUP2 LT PUSH8 0xFFFFFFFFFFFFFFFF DUP3 GT OR ISZERO PUSH2 0x377A JUMPI PUSH2 0x3779 PUSH2 0x3869 JUMP JUMPDEST JUMPDEST DUP1 PUSH1 0x40 MSTORE POP POP POP JUMP JUMPDEST PUSH1 0x0 PUSH2 0x378E DUP3 PUSH2 0x36D1 JUMP JUMPDEST SWAP2 POP PUSH1 0xFF DUP3 EQ ISZERO PUSH2 0x37A2 JUMPI PUSH2 0x37A1 PUSH2 0x37AD JUMP JUMPDEST JUMPDEST PUSH1 0x1 DUP3 ADD SWAP1 POP SWAP2 SWAP1 POP JUMP JUMPDEST PUSH32 0x4E487B7100000000000000000000000000000000000000000000000000000000 PUSH1 0x0 MSTORE PUSH1 0x11 PUSH1 0x4 MSTORE PUSH1 0x24 PUSH1 0x0 REVERT JUMPDEST PUSH32 0x4E487B7100000000000000000000000000000000000000000000000000000000 PUSH1 0x0 MSTORE PUSH1 0x12 PUSH1 0x4 MSTORE PUSH1 0x24 PUSH1 0x0 REVERT JUMPDEST PUSH32 0x4E487B7100000000000000000000000000000000000000000000000000000000 PUSH1 0x0 MSTORE PUSH1 0x22 PUSH1 0x4 MSTORE PUSH1 0x24 PUSH1 0x0 REVERT JUMPDEST PUSH32 0x4E487B7100000000000000000000000000000000000000000000000000000000 PUSH1 0x0 MSTORE PUSH1 0x32 PUSH1 0x4 MSTORE PUSH1 0x24 PUSH1 0x0 REVERT JUMPDEST PUSH32 0x4E487B7100000000000000000000000000000000000000000000000000000000 PUSH1 0x0 MSTORE PUSH1 0x41 PUSH1 0x4 MSTORE PUSH1 0x24 PUSH1 0x0 REVERT JUMPDEST PUSH1 0x0 DUP1 REVERT JUMPDEST PUSH1 0x0 DUP1 REVERT JUMPDEST PUSH1 0x0 DUP1 REVERT JUMPDEST PUSH1 0x0 DUP1 REVERT JUMPDEST PUSH1 0x0 DUP1 REVERT JUMPDEST PUSH1 0x0 DUP1 REVERT JUMPDEST PUSH1 0x0 PUSH1 0x1F NOT PUSH1 0x1F DUP4 ADD AND SWAP1 POP SWAP2 SWAP1 POP JUMP JUMPDEST PUSH32 0x526563697069656E7420697320616C7265616479207265676973746572656400 PUSH1 0x0 DUP3 ADD MSTORE POP JUMP JUMPDEST PUSH32 0x50726F706F73616C20616C726561647920637265617465642100000000000000 PUSH1 0x0 DUP3 ADD MSTORE POP JUMP JUMPDEST PUSH32 0x596F75206172656E277420617574686F72697A6520746F20636F6D70696C6520 PUSH1 0x0 DUP3 ADD MSTORE PUSH32 0x42756E646C650000000000000000000000000000000000000000000000000000 PUSH1 0x20 DUP3 ADD MSTORE POP JUMP JUMPDEST PUSH32 0x596F7520616C72656164792073656E74206120726573706F6E73652E00000000 PUSH1 0x0 DUP3 ADD MSTORE POP JUMP JUMPDEST PUSH32 0x496E69746961746F722063616E277420766F7465210000000000000000000000 PUSH1 0x0 DUP3 ADD MSTORE POP JUMP JUMPDEST PUSH32 0x596F7520617265206E6F74207265676973746572656420746F20766F74650000 PUSH1 0x0 DUP3 ADD MSTORE POP JUMP JUMPDEST PUSH32 0x50726F706F73616C206861732072656163686564206974732065787069727920 PUSH1 0x0 DUP3 ADD MSTORE PUSH32 0x6461746500000000000000000000000000000000000000000000000000000000 PUSH1 0x20 DUP3 ADD MSTORE POP JUMP JUMPDEST PUSH32 0x4F6E6C7920696E69746961746F722063616E2072656769737465722061207265 PUSH1 0x0 DUP3 ADD MSTORE PUSH32 0x63697069656E742E000000000000000000000000000000000000000000000000 PUSH1 0x20 DUP3 ADD MSTORE POP JUMP JUMPDEST PUSH32 0x596F75206172656E277420496E69746961746F72000000000000000000000000 PUSH1 0x0 DUP3 ADD MSTORE POP JUMP JUMPDEST PUSH32 0x5665726469637420686173206E6F74206265656E207265616368656420796574 PUSH1 0x0 DUP3 ADD MSTORE POP JUMP JUMPDEST PUSH32 0x566F74696E672068617320657870697265640000000000000000000000000000 PUSH1 0x0 DUP3 ADD MSTORE POP JUMP JUMPDEST PUSH32 0x436F6E73656E7375732068617320616C7265616479206265656E2063616C6375 PUSH1 0x0 DUP3 ADD MSTORE PUSH32 0x6C61746564000000000000000000000000000000000000000000000000000000 PUSH1 0x20 DUP3 ADD MSTORE POP JUMP JUMPDEST PUSH2 0x3B54 DUP2 PUSH2 0x367F JUMP JUMPDEST DUP2 EQ PUSH2 0x3B5F JUMPI PUSH1 0x0 DUP1 REVERT JUMPDEST POP JUMP JUMPDEST PUSH2 0x3B6B DUP2 PUSH2 0x369D JUMP JUMPDEST DUP2 EQ PUSH2 0x3B76 JUMPI PUSH1 0x0 DUP1 REVERT JUMPDEST POP JUMP JUMPDEST PUSH2 0x3B82 DUP2 PUSH2 0x36C7 JUMP JUMPDEST DUP2 EQ PUSH2 0x3B8D JUMPI PUSH1 0x0 DUP1 REVERT JUMPDEST POP JUMP INVALID LOG2 PUSH5 0x6970667358 0x22 SLT KECCAK256 0xCE 0xDF DUP14 PUSH5 0x330D78D4CF 0xC2 0xD1 0xB8 LT MOD PUSH24 0x927F3E8C3C835E964A15932674F1D7227F64736F6C634300 ADDMOD SMOD STOP CALLER "
				},
				"gasEstimates": {
					"creation": {
						"codeDepositCost": "3060400",
						"executionCost": "3373",
						"totalCost": "3063773"
					},
					"external": {
						"Consensus(string)": "infinite",
						"RegisterVoter(address,string)": "infinite",
						"Vote(string,string)": "infinite",
						"Voters(string,uint256)": "infinite",
						"businessProposals(string)": "infinite",
						"checkConsistency(string,uint256,uint256,bytes32)": "infinite",
						"createContract(string,uint256,uint256,bytes32,string,string)": "infinite",
						"getIsCompiled(string)": "infinite",
						"getIsCreated(string)": "infinite",
						"getValues(string)": "infinite",
						"keys(string,uint256)": "infinite",
						"retrieve_bundle(string)": "infinite",
						"voter_maps(string,address)": "infinite"
					}
				},
				"methodIdentifiers": {
					"Consensus(string)": "883a9673",
					"RegisterVoter(address,string)": "3d63af0e",
					"Vote(string,string)": "17072d6b",
					"Voters(string,uint256)": "8f6a35b7",
					"businessProposals(string)": "089a4c60",
					"checkConsistency(string,uint256,uint256,bytes32)": "9d6a3125",
					"createContract(string,uint256,uint256,bytes32,string,string)": "7aa18f88",
					"getIsCompiled(string)": "ec548680",
					"getIsCreated(string)": "c9bc42ed",
					"getValues(string)": "c99ba896",
					"keys(string,uint256)": "06699b01",
					"retrieve_bundle(string)": "37f2e190",
					"voter_maps(string,address)": "33a0b0ab"
				}
			},
			"storageLayout": {
				"storage": [
					{
						"astId": 38,
						"contract": "contracts/BusinessConsensus2.sol:BusinessConsensus2",
						"label": "businessProposals",
						"offset": 0,
						"slot": "0",
						"type": "t_mapping(t_string_memory_ptr,t_struct(Proposal)33_storage)"
					},
					{
						"astId": 45,
						"contract": "contracts/BusinessConsensus2.sol:BusinessConsensus2",
						"label": "voter_maps",
						"offset": 0,
						"slot": "1",
						"type": "t_mapping(t_string_memory_ptr,t_mapping(t_address,t_struct(Voter)8_storage))"
					},
					{
						"astId": 51,
						"contract": "contracts/BusinessConsensus2.sol:BusinessConsensus2",
						"label": "Voters",
						"offset": 0,
						"slot": "2",
						"type": "t_mapping(t_string_memory_ptr,t_array(t_struct(Voter)8_storage)dyn_storage)"
					},
					{
						"astId": 56,
						"contract": "contracts/BusinessConsensus2.sol:BusinessConsensus2",
						"label": "keys",
						"offset": 0,
						"slot": "3",
						"type": "t_mapping(t_string_memory_ptr,t_array(t_address)dyn_storage)"
					}
				],
				"types": {
					"t_address": {
						"encoding": "inplace",
						"label": "address",
						"numberOfBytes": "20"
					},
					"t_array(t_address)dyn_storage": {
						"base": "t_address",
						"encoding": "dynamic_array",
						"label": "address[]",
						"numberOfBytes": "32"
					},
					"t_array(t_struct(Voter)8_storage)dyn_storage": {
						"base": "t_struct(Voter)8_storage",
						"encoding": "dynamic_array",
						"label": "struct BusinessConsensus2.Voter[]",
						"numberOfBytes": "32"
					},
					"t_bool": {
						"encoding": "inplace",
						"label": "bool",
						"numberOfBytes": "1"
					},
					"t_bytes32": {
						"encoding": "inplace",
						"label": "bytes32",
						"numberOfBytes": "32"
					},
					"t_mapping(t_address,t_struct(Voter)8_storage)": {
						"encoding": "mapping",
						"key": "t_address",
						"label": "mapping(address => struct BusinessConsensus2.Voter)",
						"numberOfBytes": "32",
						"value": "t_struct(Voter)8_storage"
					},
					"t_mapping(t_string_memory_ptr,t_array(t_address)dyn_storage)": {
						"encoding": "mapping",
						"key": "t_string_memory_ptr",
						"label": "mapping(string => address[])",
						"numberOfBytes": "32",
						"value": "t_array(t_address)dyn_storage"
					},
					"t_mapping(t_string_memory_ptr,t_array(t_struct(Voter)8_storage)dyn_storage)": {
						"encoding": "mapping",
						"key": "t_string_memory_ptr",
						"label": "mapping(string => struct BusinessConsensus2.Voter[])",
						"numberOfBytes": "32",
						"value": "t_array(t_struct(Voter)8_storage)dyn_storage"
					},
					"t_mapping(t_string_memory_ptr,t_mapping(t_address,t_struct(Voter)8_storage))": {
						"encoding": "mapping",
						"key": "t_string_memory_ptr",
						"label": "mapping(string => mapping(address => struct BusinessConsensus2.Voter))",
						"numberOfBytes": "32",
						"value": "t_mapping(t_address,t_struct(Voter)8_storage)"
					},
					"t_mapping(t_string_memory_ptr,t_struct(Proposal)33_storage)": {
						"encoding": "mapping",
						"key": "t_string_memory_ptr",
						"label": "mapping(string => struct BusinessConsensus2.Proposal)",
						"numberOfBytes": "32",
						"value": "t_struct(Proposal)33_storage"
					},
					"t_string_memory_ptr": {
						"encoding": "bytes",
						"label": "string",
						"numberOfBytes": "32"
					},
					"t_string_storage": {
						"encoding": "bytes",
						"label": "string",
						"numberOfBytes": "32"
					},
					"t_struct(Proposal)33_storage": {
						"encoding": "inplace",
						"label": "struct BusinessConsensus2.Proposal",
						"members": [
							{
								"astId": 10,
								"contract": "contracts/BusinessConsensus2.sol:BusinessConsensus2",
								"label": "messageID",
								"offset": 0,
								"slot": "0",
								"type": "t_string_storage"
							},
							{
								"astId": 12,
								"contract": "contracts/BusinessConsensus2.sol:BusinessConsensus2",
								"label": "initiator",
								"offset": 0,
								"slot": "1",
								"type": "t_address"
							},
							{
								"astId": 14,
								"contract": "contracts/BusinessConsensus2.sol:BusinessConsensus2",
								"label": "voteCount",
								"offset": 0,
								"slot": "2",
								"type": "t_uint256"
							},
							{
								"astId": 16,
								"contract": "contracts/BusinessConsensus2.sol:BusinessConsensus2",
								"label": "expiryDate",
								"offset": 0,
								"slot": "3",
								"type": "t_uint256"
							},
							{
								"astId": 18,
								"contract": "contracts/BusinessConsensus2.sol:BusinessConsensus2",
								"label": "BusinessRequirement",
								"offset": 0,
								"slot": "4",
								"type": "t_uint256"
							},
							{
								"astId": 20,
								"contract": "contracts/BusinessConsensus2.sol:BusinessConsensus2",
								"label": "numApprovals",
								"offset": 0,
								"slot": "5",
								"type": "t_uint256"
							},
							{
								"astId": 22,
								"contract": "contracts/BusinessConsensus2.sol:BusinessConsensus2",
								"label": "isCompiled",
								"offset": 0,
								"slot": "6",
								"type": "t_bool"
							},
							{
								"astId": 24,
								"contract": "contracts/BusinessConsensus2.sol:BusinessConsensus2",
								"label": "finalVerdict",
								"offset": 0,
								"slot": "7",
								"type": "t_bytes32"
							},
							{
								"astId": 26,
								"contract": "contracts/BusinessConsensus2.sol:BusinessConsensus2",
								"label": "messageDate",
								"offset": 0,
								"slot": "8",
								"type": "t_string_storage"
							},
							{
								"astId": 28,
								"contract": "contracts/BusinessConsensus2.sol:BusinessConsensus2",
								"label": "subject",
								"offset": 0,
								"slot": "9",
								"type": "t_string_storage"
							},
							{
								"astId": 30,
								"contract": "contracts/BusinessConsensus2.sol:BusinessConsensus2",
								"label": "contents",
								"offset": 0,
								"slot": "10",
								"type": "t_bytes32"
							},
							{
								"astId": 32,
								"contract": "contracts/BusinessConsensus2.sol:BusinessConsensus2",
								"label": "expiryLength",
								"offset": 0,
								"slot": "11",
								"type": "t_uint256"
							}
						],
						"numberOfBytes": "384"
					},
					"t_struct(Voter)8_storage": {
						"encoding": "inplace",
						"label": "struct BusinessConsensus2.Voter",
						"members": [
							{
								"astId": 3,
								"contract": "contracts/BusinessConsensus2.sol:BusinessConsensus2",
								"label": "voted",
								"offset": 0,
								"slot": "0",
								"type": "t_bool"
							},
							{
								"astId": 5,
								"contract": "contracts/BusinessConsensus2.sol:BusinessConsensus2",
								"label": "vote",
								"offset": 1,
								"slot": "0",
								"type": "t_bool"
							},
							{
								"astId": 7,
								"contract": "contracts/BusinessConsensus2.sol:BusinessConsensus2",
								"label": "recipient",
								"offset": 2,
								"slot": "0",
								"type": "t_address"
							}
						],
						"numberOfBytes": "32"
					},
					"t_uint256": {
						"encoding": "inplace",
						"label": "uint256",
						"numberOfBytes": "32"
					}
				}
			},
			"userdoc": {
				"kind": "user",
				"methods": {
					"Consensus(string)": {
						"notice": "compile all relevant information into a Bundle"
					}
				},
				"version": 1
			}
		}
	}
}