{
	"contracts/BusinessConsensus3.sol": {
		"BusinessConsensus3": {
			"abi": [
				{
					"inputs": [
						{
							"internalType": "string",
							"name": "_messageID",
							"type": "string"
						}
					],
					"name": "Consensus",
					"outputs": [],
					"stateMutability": "nonpayable",
					"type": "function"
				},
				{
					"inputs": [
						{
							"internalType": "string",
							"name": "",
							"type": "string"
						}
					],
					"name": "IDs",
					"outputs": [
						{
							"internalType": "string",
							"name": "",
							"type": "string"
						}
					],
					"stateMutability": "view",
					"type": "function"
				},
				{
					"inputs": [
						{
							"internalType": "address",
							"name": "voter",
							"type": "address"
						},
						{
							"internalType": "string",
							"name": "_messageID",
							"type": "string"
						}
					],
					"name": "RegisterVoter",
					"outputs": [],
					"stateMutability": "nonpayable",
					"type": "function"
				},
				{
					"inputs": [
						{
							"internalType": "string",
							"name": "response",
							"type": "string"
						},
						{
							"internalType": "string",
							"name": "_messageID",
							"type": "string"
						}
					],
					"name": "Vote",
					"outputs": [],
					"stateMutability": "nonpayable",
					"type": "function"
				},
				{
					"inputs": [
						{
							"internalType": "string",
							"name": "",
							"type": "string"
						},
						{
							"internalType": "uint256",
							"name": "",
							"type": "uint256"
						}
					],
					"name": "Voters",
					"outputs": [
						{
							"internalType": "bool",
							"name": "voted",
							"type": "bool"
						},
						{
							"internalType": "bool",
							"name": "vote",
							"type": "bool"
						},
						{
							"internalType": "address",
							"name": "recipient",
							"type": "address"
						}
					],
					"stateMutability": "view",
					"type": "function"
				},
				{
					"inputs": [
						{
							"internalType": "string",
							"name": "",
							"type": "string"
						}
					],
					"name": "businessRequirements",
					"outputs": [
						{
							"internalType": "uint256",
							"name": "",
							"type": "uint256"
						}
					],
					"stateMutability": "view",
					"type": "function"
				},
				{
					"inputs": [
						{
							"internalType": "string",
							"name": "_subject",
							"type": "string"
						},
						{
							"internalType": "uint256",
							"name": "_businessRequirement",
							"type": "uint256"
						},
						{
							"internalType": "uint256",
							"name": "_expiryLength",
							"type": "uint256"
						},
						{
							"internalType": "bytes32",
							"name": "_contents",
							"type": "bytes32"
						}
					],
					"name": "checkConsistency",
					"outputs": [
						{
							"internalType": "bool",
							"name": "",
							"type": "bool"
						},
						{
							"internalType": "bool",
							"name": "",
							"type": "bool"
						},
						{
							"internalType": "bool",
							"name": "",
							"type": "bool"
						}
					],
					"stateMutability": "view",
					"type": "function"
				},
				{
					"inputs": [
						{
							"internalType": "string",
							"name": "",
							"type": "string"
						}
					],
					"name": "contents",
					"outputs": [
						{
							"internalType": "bytes32",
							"name": "",
							"type": "bytes32"
						}
					],
					"stateMutability": "view",
					"type": "function"
				},
				{
					"inputs": [
						{
							"internalType": "string",
							"name": "_messageID",
							"type": "string"
						},
						{
							"internalType": "uint256",
							"name": "expiry",
							"type": "uint256"
						},
						{
							"internalType": "uint256",
							"name": "requiredPercentage",
							"type": "uint256"
						},
						{
							"internalType": "bytes32",
							"name": "_contents",
							"type": "bytes32"
						},
						{
							"internalType": "string",
							"name": "subject",
							"type": "string"
						},
						{
							"internalType": "string",
							"name": "_messageDate",
							"type": "string"
						}
					],
					"name": "createContract",
					"outputs": [],
					"stateMutability": "nonpayable",
					"type": "function"
				},
				{
					"inputs": [
						{
							"internalType": "string",
							"name": "",
							"type": "string"
						}
					],
					"name": "expiryDates",
					"outputs": [
						{
							"internalType": "uint256",
							"name": "",
							"type": "uint256"
						}
					],
					"stateMutability": "view",
					"type": "function"
				},
				{
					"inputs": [
						{
							"internalType": "string",
							"name": "",
							"type": "string"
						}
					],
					"name": "expiryLengths",
					"outputs": [
						{
							"internalType": "uint256",
							"name": "",
							"type": "uint256"
						}
					],
					"stateMutability": "view",
					"type": "function"
				},
				{
					"inputs": [
						{
							"internalType": "string",
							"name": "",
							"type": "string"
						}
					],
					"name": "finalVerdicts",
					"outputs": [
						{
							"internalType": "bool",
							"name": "",
							"type": "bool"
						}
					],
					"stateMutability": "view",
					"type": "function"
				},
				{
					"inputs": [
						{
							"internalType": "string",
							"name": "_messageID",
							"type": "string"
						}
					],
					"name": "getIsCompiled",
					"outputs": [
						{
							"internalType": "bool",
							"name": "",
							"type": "bool"
						}
					],
					"stateMutability": "view",
					"type": "function"
				},
				{
					"inputs": [
						{
							"internalType": "string",
							"name": "subject",
							"type": "string"
						}
					],
					"name": "getIsCreated",
					"outputs": [
						{
							"internalType": "string",
							"name": "",
							"type": "string"
						},
						{
							"internalType": "string",
							"name": "",
							"type": "string"
						}
					],
					"stateMutability": "view",
					"type": "function"
				},
				{
					"inputs": [
						{
							"internalType": "string",
							"name": "",
							"type": "string"
						}
					],
					"name": "initiators",
					"outputs": [
						{
							"internalType": "address",
							"name": "",
							"type": "address"
						}
					],
					"stateMutability": "view",
					"type": "function"
				},
				{
					"inputs": [
						{
							"internalType": "string",
							"name": "",
							"type": "string"
						}
					],
					"name": "isCompiled",
					"outputs": [
						{
							"internalType": "bool",
							"name": "",
							"type": "bool"
						}
					],
					"stateMutability": "view",
					"type": "function"
				},
				{
					"inputs": [
						{
							"internalType": "string",
							"name": "",
							"type": "string"
						},
						{
							"internalType": "uint256",
							"name": "",
							"type": "uint256"
						}
					],
					"name": "keys",
					"outputs": [
						{
							"internalType": "address",
							"name": "",
							"type": "address"
						}
					],
					"stateMutability": "view",
					"type": "function"
				},
				{
					"inputs": [
						{
							"internalType": "string",
							"name": "",
							"type": "string"
						}
					],
					"name": "messageDates",
					"outputs": [
						{
							"internalType": "string",
							"name": "",
							"type": "string"
						}
					],
					"stateMutability": "view",
					"type": "function"
				},
				{
					"inputs": [
						{
							"internalType": "string",
							"name": "",
							"type": "string"
						}
					],
					"name": "numApprovals",
					"outputs": [
						{
							"internalType": "uint256",
							"name": "",
							"type": "uint256"
						}
					],
					"stateMutability": "view",
					"type": "function"
				},
				{
					"inputs": [
						{
							"internalType": "string",
							"name": "_messageID",
							"type": "string"
						}
					],
					"name": "retrieve_bundle",
					"outputs": [
						{
							"internalType": "bool",
							"name": "",
							"type": "bool"
						},
						{
							"internalType": "string",
							"name": "",
							"type": "string"
						},
						{
							"internalType": "uint256",
							"name": "",
							"type": "uint256"
						},
						{
							"components": [
								{
									"internalType": "bool",
									"name": "voted",
									"type": "bool"
								},
								{
									"internalType": "bool",
									"name": "vote",
									"type": "bool"
								},
								{
									"internalType": "address",
									"name": "recipient",
									"type": "address"
								}
							],
							"internalType": "struct BusinessConsensus3.Voter[]",
							"name": "",
							"type": "tuple[]"
						}
					],
					"stateMutability": "view",
					"type": "function"
				},
				{
					"inputs": [
						{
							"internalType": "string",
							"name": "",
							"type": "string"
						}
					],
					"name": "subjects",
					"outputs": [
						{
							"internalType": "string",
							"name": "",
							"type": "string"
						}
					],
					"stateMutability": "view",
					"type": "function"
				},
				{
					"inputs": [
						{
							"internalType": "string",
							"name": "",
							"type": "string"
						}
					],
					"name": "voteCounts",
					"outputs": [
						{
							"internalType": "uint256",
							"name": "",
							"type": "uint256"
						}
					],
					"stateMutability": "view",
					"type": "function"
				},
				{
					"inputs": [
						{
							"internalType": "string",
							"name": "",
							"type": "string"
						},
						{
							"internalType": "address",
							"name": "",
							"type": "address"
						}
					],
					"name": "voter_maps",
					"outputs": [
						{
							"internalType": "bool",
							"name": "voted",
							"type": "bool"
						},
						{
							"internalType": "bool",
							"name": "vote",
							"type": "bool"
						},
						{
							"internalType": "address",
							"name": "recipient",
							"type": "address"
						}
					],
					"stateMutability": "view",
					"type": "function"
				}
			],
			"devdoc": {
				"kind": "dev",
				"methods": {},
				"version": 1
			},
			"evm": {
				"assembly": "    /* \"contracts/BusinessConsensus3.sol\":33:7057  contract BusinessConsensus3{\r... */\n  mstore(0x40, 0x80)\n  callvalue\n  dup1\n  iszero\n  tag_1\n  jumpi\n  0x00\n  dup1\n  revert\ntag_1:\n  pop\n  dataSize(sub_0)\n  dup1\n  dataOffset(sub_0)\n  0x00\n  codecopy\n  0x00\n  return\nstop\n\nsub_0: assembly {\n        /* \"contracts/BusinessConsensus3.sol\":33:7057  contract BusinessConsensus3{\r... */\n      mstore(0x40, 0x80)\n      callvalue\n      dup1\n      iszero\n      tag_1\n      jumpi\n      0x00\n      dup1\n      revert\n    tag_1:\n      pop\n      jumpi(tag_2, lt(calldatasize, 0x04))\n      shr(0xe0, calldataload(0x00))\n      dup1\n      0x883a9673\n      gt\n      tag_26\n      jumpi\n      dup1\n      0xbb9a31f3\n      gt\n      tag_27\n      jumpi\n      dup1\n      0xbb9a31f3\n      eq\n      tag_20\n      jumpi\n      dup1\n      0xc5539b03\n      eq\n      tag_21\n      jumpi\n      dup1\n      0xc9bc42ed\n      eq\n      tag_22\n      jumpi\n      dup1\n      0xe5c8d65f\n      eq\n      tag_23\n      jumpi\n      dup1\n      0xec548680\n      eq\n      tag_24\n      jumpi\n      dup1\n      0xfe290423\n      eq\n      tag_25\n      jumpi\n      jump(tag_2)\n    tag_27:\n      dup1\n      0x883a9673\n      eq\n      tag_14\n      jumpi\n      dup1\n      0x8a3b0d02\n      eq\n      tag_15\n      jumpi\n      dup1\n      0x8f6a35b7\n      eq\n      tag_16\n      jumpi\n      dup1\n      0x931da6b3\n      eq\n      tag_17\n      jumpi\n      dup1\n      0x9d6a3125\n      eq\n      tag_18\n      jumpi\n      dup1\n      0xa6acce35\n      eq\n      tag_19\n      jumpi\n      jump(tag_2)\n    tag_26:\n      dup1\n      0x33a0b0ab\n      gt\n      tag_28\n      jumpi\n      dup1\n      0x33a0b0ab\n      eq\n      tag_8\n      jumpi\n      dup1\n      0x37f2e190\n      eq\n      tag_9\n      jumpi\n      dup1\n      0x3d63af0e\n      eq\n      tag_10\n      jumpi\n      dup1\n      0x4205717d\n      eq\n      tag_11\n      jumpi\n      dup1\n      0x538b3cc6\n      eq\n      tag_12\n      jumpi\n      dup1\n      0x7aa18f88\n      eq\n      tag_13\n      jumpi\n      jump(tag_2)\n    tag_28:\n      dup1\n      0x06699b01\n      eq\n      tag_3\n      jumpi\n      dup1\n      0x11c2b413\n      eq\n      tag_4\n      jumpi\n      dup1\n      0x17072d6b\n      eq\n      tag_5\n      jumpi\n      dup1\n      0x233d0fa1\n      eq\n      tag_6\n      jumpi\n      dup1\n      0x31189fe2\n      eq\n      tag_7\n      jumpi\n    tag_2:\n      0x00\n      dup1\n      revert\n        /* \"contracts/BusinessConsensus3.sol\":1132:1170  mapping(string=>address[]) public keys */\n    tag_3:\n      tag_29\n      0x04\n      dup1\n      calldatasize\n      sub\n      dup2\n      add\n      swap1\n      tag_30\n      swap2\n      swap1\n      tag_31\n      jump\t// in\n    tag_30:\n      tag_32\n      jump\t// in\n    tag_29:\n      mload(0x40)\n      tag_33\n      swap2\n      swap1\n      tag_34\n      jump\t// in\n    tag_33:\n      mload(0x40)\n      dup1\n      swap2\n      sub\n      swap1\n      return\n        /* \"contracts/BusinessConsensus3.sol\":461:496  mapping(string =>string) public IDs */\n    tag_4:\n      tag_35\n      0x04\n      dup1\n      calldatasize\n      sub\n      dup2\n      add\n      swap1\n      tag_36\n      swap2\n      swap1\n      tag_37\n      jump\t// in\n    tag_36:\n      tag_38\n      jump\t// in\n    tag_35:\n      mload(0x40)\n      tag_39\n      swap2\n      swap1\n      tag_40\n      jump\t// in\n    tag_39:\n      mload(0x40)\n      dup1\n      swap2\n      sub\n      swap1\n      return\n        /* \"contracts/BusinessConsensus3.sol\":4293:5598  function Vote(string memory response,string calldata _messageID) external {\r... */\n    tag_5:\n      tag_41\n      0x04\n      dup1\n      calldatasize\n      sub\n      dup2\n      add\n      swap1\n      tag_42\n      swap2\n      swap1\n      tag_43\n      jump\t// in\n    tag_42:\n      tag_44\n      jump\t// in\n    tag_41:\n      stop\n        /* \"contracts/BusinessConsensus3.sol\":875:919  mapping(string => bool) public finalVerdicts */\n    tag_6:\n      tag_45\n      0x04\n      dup1\n      calldatasize\n      sub\n      dup2\n      add\n      swap1\n      tag_46\n      swap2\n      swap1\n      tag_37\n      jump\t// in\n    tag_46:\n      tag_47\n      jump\t// in\n    tag_45:\n      mload(0x40)\n      tag_48\n      swap2\n      swap1\n      tag_49\n      jump\t// in\n    tag_48:\n      mload(0x40)\n      dup1\n      swap2\n      sub\n      swap1\n      return\n        /* \"contracts/BusinessConsensus3.sol\":926:967  mapping(string => bool) public isCompiled */\n    tag_7:\n      tag_50\n      0x04\n      dup1\n      calldatasize\n      sub\n      dup2\n      add\n      swap1\n      tag_51\n      swap2\n      swap1\n      tag_37\n      jump\t// in\n    tag_51:\n      tag_52\n      jump\t// in\n    tag_50:\n      mload(0x40)\n      tag_53\n      swap2\n      swap1\n      tag_49\n      jump\t// in\n    tag_53:\n      mload(0x40)\n      dup1\n      swap2\n      sub\n      swap1\n      return\n        /* \"contracts/BusinessConsensus3.sol\":1022:1080  mapping(string=>mapping(address=>Voter)) public voter_maps */\n    tag_8:\n      tag_54\n      0x04\n      dup1\n      calldatasize\n      sub\n      dup2\n      add\n      swap1\n      tag_55\n      swap2\n      swap1\n      tag_56\n      jump\t// in\n    tag_55:\n      tag_57\n      jump\t// in\n    tag_54:\n      mload(0x40)\n      tag_58\n      swap4\n      swap3\n      swap2\n      swap1\n      tag_59\n      jump\t// in\n    tag_58:\n      mload(0x40)\n      dup1\n      swap2\n      sub\n      swap1\n      return\n        /* \"contracts/BusinessConsensus3.sol\":6611:7052  function retrieve_bundle(string calldata _messageID) external view returns (bool, string memory, uint256, Voter[] memory){\r... */\n    tag_9:\n      tag_60\n      0x04\n      dup1\n      calldatasize\n      sub\n      dup2\n      add\n      swap1\n      tag_61\n      swap2\n      swap1\n      tag_62\n      jump\t// in\n    tag_61:\n      tag_63\n      jump\t// in\n    tag_60:\n      mload(0x40)\n      tag_64\n      swap5\n      swap4\n      swap3\n      swap2\n      swap1\n      tag_65\n      jump\t// in\n    tag_64:\n      mload(0x40)\n      dup1\n      swap2\n      sub\n      swap1\n      return\n        /* \"contracts/BusinessConsensus3.sol\":3539:4285  function RegisterVoter(address voter,string calldata _messageID) external {\r... */\n    tag_10:\n      tag_66\n      0x04\n      dup1\n      calldatasize\n      sub\n      dup2\n      add\n      swap1\n      tag_67\n      swap2\n      swap1\n      tag_68\n      jump\t// in\n    tag_67:\n      tag_69\n      jump\t// in\n    tag_66:\n      stop\n        /* \"contracts/BusinessConsensus3.sol\":503:547  mapping(string => uint256) public voteCounts */\n    tag_11:\n      tag_70\n      0x04\n      dup1\n      calldatasize\n      sub\n      dup2\n      add\n      swap1\n      tag_71\n      swap2\n      swap1\n      tag_37\n      jump\t// in\n    tag_71:\n      tag_72\n      jump\t// in\n    tag_70:\n      mload(0x40)\n      tag_73\n      swap2\n      swap1\n      tag_74\n      jump\t// in\n    tag_73:\n      mload(0x40)\n      dup1\n      swap2\n      sub\n      swap1\n      return\n        /* \"contracts/BusinessConsensus3.sol\":608:653  mapping(string => uint256) public expiryDates */\n    tag_12:\n      tag_75\n      0x04\n      dup1\n      calldatasize\n      sub\n      dup2\n      add\n      swap1\n      tag_76\n      swap2\n      swap1\n      tag_37\n      jump\t// in\n    tag_76:\n      tag_77\n      jump\t// in\n    tag_75:\n      mload(0x40)\n      tag_78\n      swap2\n      swap1\n      tag_74\n      jump\t// in\n    tag_78:\n      mload(0x40)\n      dup1\n      swap2\n      sub\n      swap1\n      return\n        /* \"contracts/BusinessConsensus3.sol\":1183:2386  function createContract(string memory _messageID, uint256 expiry, uint256 requiredPercentage,bytes32 _contents,\r... */\n    tag_13:\n      tag_79\n      0x04\n      dup1\n      calldatasize\n      sub\n      dup2\n      add\n      swap1\n      tag_80\n      swap2\n      swap1\n      tag_81\n      jump\t// in\n    tag_80:\n      tag_82\n      jump\t// in\n    tag_79:\n      stop\n        /* \"contracts/BusinessConsensus3.sol\":5662:6603  function Consensus(string calldata _messageID) external {\r... */\n    tag_14:\n      tag_83\n      0x04\n      dup1\n      calldatasize\n      sub\n      dup2\n      add\n      swap1\n      tag_84\n      swap2\n      swap1\n      tag_62\n      jump\t// in\n    tag_84:\n      tag_85\n      jump\t// in\n    tag_83:\n      stop\n        /* \"contracts/BusinessConsensus3.sol\":823:868  mapping(string => string) public messageDates */\n    tag_15:\n      tag_86\n      0x04\n      dup1\n      calldatasize\n      sub\n      dup2\n      add\n      swap1\n      tag_87\n      swap2\n      swap1\n      tag_37\n      jump\t// in\n    tag_87:\n      tag_88\n      jump\t// in\n    tag_86:\n      mload(0x40)\n      tag_89\n      swap2\n      swap1\n      tag_40\n      jump\t// in\n    tag_89:\n      mload(0x40)\n      dup1\n      swap2\n      sub\n      swap1\n      return\n        /* \"contracts/BusinessConsensus3.sol\":1087:1125  mapping(string=>Voter[]) public Voters */\n    tag_16:\n      tag_90\n      0x04\n      dup1\n      calldatasize\n      sub\n      dup2\n      add\n      swap1\n      tag_91\n      swap2\n      swap1\n      tag_31\n      jump\t// in\n    tag_91:\n      tag_92\n      jump\t// in\n    tag_90:\n      mload(0x40)\n      tag_93\n      swap4\n      swap3\n      swap2\n      swap1\n      tag_59\n      jump\t// in\n    tag_93:\n      mload(0x40)\n      dup1\n      swap2\n      sub\n      swap1\n      return\n        /* \"contracts/BusinessConsensus3.sol\":709:755  mapping(string => uint256) public numApprovals */\n    tag_17:\n      tag_94\n      0x04\n      dup1\n      calldatasize\n      sub\n      dup2\n      add\n      swap1\n      tag_95\n      swap2\n      swap1\n      tag_37\n      jump\t// in\n    tag_95:\n      tag_96\n      jump\t// in\n    tag_94:\n      mload(0x40)\n      tag_97\n      swap2\n      swap1\n      tag_74\n      jump\t// in\n    tag_97:\n      mload(0x40)\n      dup1\n      swap2\n      sub\n      swap1\n      return\n        /* \"contracts/BusinessConsensus3.sol\":2523:3269  function checkConsistency(string memory _subject, uint256 _businessRequirement, uint256 _expiryLength, bytes32 _contents) public view returns(bool, bool, bool){\r... */\n    tag_18:\n      tag_98\n      0x04\n      dup1\n      calldatasize\n      sub\n      dup2\n      add\n      swap1\n      tag_99\n      swap2\n      swap1\n      tag_100\n      jump\t// in\n    tag_99:\n      tag_101\n      jump\t// in\n    tag_98:\n      mload(0x40)\n      tag_102\n      swap4\n      swap3\n      swap2\n      swap1\n      tag_103\n      jump\t// in\n    tag_102:\n      mload(0x40)\n      dup1\n      swap2\n      sub\n      swap1\n      return\n        /* \"contracts/BusinessConsensus3.sol\":660:702  mapping(string => bytes32) public contents */\n    tag_19:\n      tag_104\n      0x04\n      dup1\n      calldatasize\n      sub\n      dup2\n      add\n      swap1\n      tag_105\n      swap2\n      swap1\n      tag_37\n      jump\t// in\n    tag_105:\n      tag_106\n      jump\t// in\n    tag_104:\n      mload(0x40)\n      tag_107\n      swap2\n      swap1\n      tag_108\n      jump\t// in\n    tag_107:\n      mload(0x40)\n      dup1\n      swap2\n      sub\n      swap1\n      return\n        /* \"contracts/BusinessConsensus3.sol\":554:601  mapping(string => uint256) public expiryLengths */\n    tag_20:\n      tag_109\n      0x04\n      dup1\n      calldatasize\n      sub\n      dup2\n      add\n      swap1\n      tag_110\n      swap2\n      swap1\n      tag_37\n      jump\t// in\n    tag_110:\n      tag_111\n      jump\t// in\n    tag_109:\n      mload(0x40)\n      tag_112\n      swap2\n      swap1\n      tag_74\n      jump\t// in\n    tag_112:\n      mload(0x40)\n      dup1\n      swap2\n      sub\n      swap1\n      return\n        /* \"contracts/BusinessConsensus3.sol\":762:816  mapping(string => uint256) public businessRequirements */\n    tag_21:\n      tag_113\n      0x04\n      dup1\n      calldatasize\n      sub\n      dup2\n      add\n      swap1\n      tag_114\n      swap2\n      swap1\n      tag_37\n      jump\t// in\n    tag_114:\n      tag_115\n      jump\t// in\n    tag_113:\n      mload(0x40)\n      tag_116\n      swap2\n      swap1\n      tag_74\n      jump\t// in\n    tag_116:\n      mload(0x40)\n      dup1\n      swap2\n      sub\n      swap1\n      return\n        /* \"contracts/BusinessConsensus3.sol\":3275:3433  function getIsCreated(string calldata subject) public view returns (string memory,string memory){\r... */\n    tag_22:\n      tag_117\n      0x04\n      dup1\n      calldatasize\n      sub\n      dup2\n      add\n      swap1\n      tag_118\n      swap2\n      swap1\n      tag_62\n      jump\t// in\n    tag_118:\n      tag_119\n      jump\t// in\n    tag_117:\n      mload(0x40)\n      tag_120\n      swap3\n      swap2\n      swap1\n      tag_121\n      jump\t// in\n    tag_120:\n      mload(0x40)\n      dup1\n      swap2\n      sub\n      swap1\n      return\n        /* \"contracts/BusinessConsensus3.sol\":412:454  mapping(string=>address) public initiators */\n    tag_23:\n      tag_122\n      0x04\n      dup1\n      calldatasize\n      sub\n      dup2\n      add\n      swap1\n      tag_123\n      swap2\n      swap1\n      tag_37\n      jump\t// in\n    tag_123:\n      tag_124\n      jump\t// in\n    tag_122:\n      mload(0x40)\n      tag_125\n      swap2\n      swap1\n      tag_34\n      jump\t// in\n    tag_125:\n      mload(0x40)\n      dup1\n      swap2\n      sub\n      swap1\n      return\n        /* \"contracts/BusinessConsensus3.sol\":2392:2517  function getIsCompiled(string calldata _messageID) public view returns (bool){\r... */\n    tag_24:\n      tag_126\n      0x04\n      dup1\n      calldatasize\n      sub\n      dup2\n      add\n      swap1\n      tag_127\n      swap2\n      swap1\n      tag_62\n      jump\t// in\n    tag_127:\n      tag_128\n      jump\t// in\n    tag_126:\n      mload(0x40)\n      tag_129\n      swap2\n      swap1\n      tag_49\n      jump\t// in\n    tag_129:\n      mload(0x40)\n      dup1\n      swap2\n      sub\n      swap1\n      return\n        /* \"contracts/BusinessConsensus3.sol\":974:1015  mapping(string => string) public subjects */\n    tag_25:\n      tag_130\n      0x04\n      dup1\n      calldatasize\n      sub\n      dup2\n      add\n      swap1\n      tag_131\n      swap2\n      swap1\n      tag_37\n      jump\t// in\n    tag_131:\n      tag_132\n      jump\t// in\n    tag_130:\n      mload(0x40)\n      tag_133\n      swap2\n      swap1\n      tag_40\n      jump\t// in\n    tag_133:\n      mload(0x40)\n      dup1\n      swap2\n      sub\n      swap1\n      return\n        /* \"contracts/BusinessConsensus3.sol\":1132:1170  mapping(string=>address[]) public keys */\n    tag_32:\n      0x0e\n      dup3\n      dup1\n      mload\n      0x20\n      dup2\n      add\n      dup3\n      add\n      dup1\n      mload\n      dup5\n      dup3\n      mstore\n      0x20\n      dup4\n      add\n      0x20\n      dup6\n      add\n      keccak256\n      dup2\n      dup4\n      mstore\n      dup1\n      swap6\n      pop\n      pop\n      pop\n      pop\n      pop\n      pop\n      dup2\n      dup2\n      sload\n      dup2\n      lt\n      tag_134\n      jumpi\n      0x00\n      dup1\n      revert\n    tag_134:\n      swap1\n      0x00\n      mstore\n      keccak256(0x00, 0x20)\n      add\n      0x00\n      swap2\n      pop\n      swap2\n      pop\n      swap1\n      sload\n      swap1\n      0x0100\n      exp\n      swap1\n      div\n      0xffffffffffffffffffffffffffffffffffffffff\n      and\n      dup2\n      jump\t// out\n        /* \"contracts/BusinessConsensus3.sol\":461:496  mapping(string =>string) public IDs */\n    tag_38:\n      0x01\n      dup2\n      dup1\n      mload\n      0x20\n      dup2\n      add\n      dup3\n      add\n      dup1\n      mload\n      dup5\n      dup3\n      mstore\n      0x20\n      dup4\n      add\n      0x20\n      dup6\n      add\n      keccak256\n      dup2\n      dup4\n      mstore\n      dup1\n      swap6\n      pop\n      pop\n      pop\n      pop\n      pop\n      pop\n      0x00\n      swap2\n      pop\n      swap1\n      pop\n      dup1\n      sload\n      tag_136\n      swap1\n      tag_137\n      jump\t// in\n    tag_136:\n      dup1\n      0x1f\n      add\n      0x20\n      dup1\n      swap2\n      div\n      mul\n      0x20\n      add\n      mload(0x40)\n      swap1\n      dup2\n      add\n      0x40\n      mstore\n      dup1\n      swap3\n      swap2\n      swap1\n      dup2\n      dup2\n      mstore\n      0x20\n      add\n      dup3\n      dup1\n      sload\n      tag_138\n      swap1\n      tag_137\n      jump\t// in\n    tag_138:\n      dup1\n      iszero\n      tag_139\n      jumpi\n      dup1\n      0x1f\n      lt\n      tag_140\n      jumpi\n      0x0100\n      dup1\n      dup4\n      sload\n      div\n      mul\n      dup4\n      mstore\n      swap2\n      0x20\n      add\n      swap2\n      jump(tag_139)\n    tag_140:\n      dup3\n      add\n      swap2\n      swap1\n      0x00\n      mstore\n      keccak256(0x00, 0x20)\n      swap1\n    tag_141:\n      dup2\n      sload\n      dup2\n      mstore\n      swap1\n      0x01\n      add\n      swap1\n      0x20\n      add\n      dup1\n      dup4\n      gt\n      tag_141\n      jumpi\n      dup3\n      swap1\n      sub\n      0x1f\n      and\n      dup3\n      add\n      swap2\n    tag_139:\n      pop\n      pop\n      pop\n      pop\n      pop\n      dup2\n      jump\t// out\n        /* \"contracts/BusinessConsensus3.sol\":4293:5598  function Vote(string memory response,string calldata _messageID) external {\r... */\n    tag_44:\n        /* \"contracts/BusinessConsensus3.sol\":4406:4417  expiryDates */\n      0x04\n        /* \"contracts/BusinessConsensus3.sol\":4418:4428  _messageID */\n      dup3\n      dup3\n        /* \"contracts/BusinessConsensus3.sol\":4406:4429  expiryDates[_messageID] */\n      mload(0x40)\n      tag_143\n      swap3\n      swap2\n      swap1\n      tag_144\n      jump\t// in\n    tag_143:\n      swap1\n      dup2\n      mstore\n      0x20\n      add\n      mload(0x40)\n      dup1\n      swap2\n      sub\n      swap1\n      keccak256\n      sload\n        /* \"contracts/BusinessConsensus3.sol\":4388:4403  block.timestamp */\n      timestamp\n        /* \"contracts/BusinessConsensus3.sol\":4388:4429  block.timestamp < expiryDates[_messageID] */\n      lt\n        /* \"contracts/BusinessConsensus3.sol\":4380:4452  require(block.timestamp < expiryDates[_messageID], \"Voting has expired\") */\n      tag_145\n      jumpi\n      mload(0x40)\n      0x08c379a000000000000000000000000000000000000000000000000000000000\n      dup2\n      mstore\n      0x04\n      add\n      tag_146\n      swap1\n      tag_147\n      jump\t// in\n    tag_146:\n      mload(0x40)\n      dup1\n      swap2\n      sub\n      swap1\n      revert\n    tag_145:\n        /* \"contracts/BusinessConsensus3.sol\":4527:4530  0x0 */\n      0x00\n        /* \"contracts/BusinessConsensus3.sol\":4471:4531  voter_maps[_messageID][msg.sender].recipient != address(0x0) */\n      0xffffffffffffffffffffffffffffffffffffffff\n      and\n        /* \"contracts/BusinessConsensus3.sol\":4471:4481  voter_maps */\n      0x0c\n        /* \"contracts/BusinessConsensus3.sol\":4482:4492  _messageID */\n      dup4\n      dup4\n        /* \"contracts/BusinessConsensus3.sol\":4471:4493  voter_maps[_messageID] */\n      mload(0x40)\n      tag_148\n      swap3\n      swap2\n      swap1\n      tag_144\n      jump\t// in\n    tag_148:\n      swap1\n      dup2\n      mstore\n      0x20\n      add\n      mload(0x40)\n      dup1\n      swap2\n      sub\n      swap1\n      keccak256\n        /* \"contracts/BusinessConsensus3.sol\":4471:4505  voter_maps[_messageID][msg.sender] */\n      0x00\n        /* \"contracts/BusinessConsensus3.sol\":4494:4504  msg.sender */\n      caller\n        /* \"contracts/BusinessConsensus3.sol\":4471:4505  voter_maps[_messageID][msg.sender] */\n      0xffffffffffffffffffffffffffffffffffffffff\n      and\n      0xffffffffffffffffffffffffffffffffffffffff\n      and\n      dup2\n      mstore\n      0x20\n      add\n      swap1\n      dup2\n      mstore\n      0x20\n      add\n      0x00\n      keccak256\n        /* \"contracts/BusinessConsensus3.sol\":4471:4515  voter_maps[_messageID][msg.sender].recipient */\n      0x00\n      add\n      0x02\n      swap1\n      sload\n      swap1\n      0x0100\n      exp\n      swap1\n      div\n      0xffffffffffffffffffffffffffffffffffffffff\n      and\n        /* \"contracts/BusinessConsensus3.sol\":4471:4531  voter_maps[_messageID][msg.sender].recipient != address(0x0) */\n      0xffffffffffffffffffffffffffffffffffffffff\n      and\n      eq\n      iszero\n        /* \"contracts/BusinessConsensus3.sol\":4463:4566  require(voter_maps[_messageID][msg.sender].recipient != address(0x0), \"You are not registered to vote\") */\n      tag_149\n      jumpi\n      mload(0x40)\n      0x08c379a000000000000000000000000000000000000000000000000000000000\n      dup2\n      mstore\n      0x04\n      add\n      tag_150\n      swap1\n      tag_151\n      jump\t// in\n    tag_150:\n      mload(0x40)\n      dup1\n      swap2\n      sub\n      swap1\n      revert\n    tag_149:\n        /* \"contracts/BusinessConsensus3.sol\":4586:4596  voter_maps */\n      0x0c\n        /* \"contracts/BusinessConsensus3.sol\":4597:4607  _messageID */\n      dup3\n      dup3\n        /* \"contracts/BusinessConsensus3.sol\":4586:4608  voter_maps[_messageID] */\n      mload(0x40)\n      tag_152\n      swap3\n      swap2\n      swap1\n      tag_144\n      jump\t// in\n    tag_152:\n      swap1\n      dup2\n      mstore\n      0x20\n      add\n      mload(0x40)\n      dup1\n      swap2\n      sub\n      swap1\n      keccak256\n        /* \"contracts/BusinessConsensus3.sol\":4586:4620  voter_maps[_messageID][msg.sender] */\n      0x00\n        /* \"contracts/BusinessConsensus3.sol\":4609:4619  msg.sender */\n      caller\n        /* \"contracts/BusinessConsensus3.sol\":4586:4620  voter_maps[_messageID][msg.sender] */\n      0xffffffffffffffffffffffffffffffffffffffff\n      and\n      0xffffffffffffffffffffffffffffffffffffffff\n      and\n      dup2\n      mstore\n      0x20\n      add\n      swap1\n      dup2\n      mstore\n      0x20\n      add\n      0x00\n      keccak256\n        /* \"contracts/BusinessConsensus3.sol\":4586:4626  voter_maps[_messageID][msg.sender].voted */\n      0x00\n      add\n      0x00\n      swap1\n      sload\n      swap1\n      0x0100\n      exp\n      swap1\n      div\n      0xff\n      and\n        /* \"contracts/BusinessConsensus3.sol\":4585:4626  !voter_maps[_messageID][msg.sender].voted */\n      iszero\n        /* \"contracts/BusinessConsensus3.sol\":4577:4659  require(!voter_maps[_messageID][msg.sender].voted, \"You already sent a response.\") */\n      tag_153\n      jumpi\n      mload(0x40)\n      0x08c379a000000000000000000000000000000000000000000000000000000000\n      dup2\n      mstore\n      0x04\n      add\n      tag_154\n      swap1\n      tag_155\n      jump\t// in\n    tag_154:\n      mload(0x40)\n      dup1\n      swap2\n      sub\n      swap1\n      revert\n    tag_153:\n        /* \"contracts/BusinessConsensus3.sol\":4715:4733  bytes(\"i approve\") */\n      mload(0x40)\n      dup1\n      0x40\n      add\n      0x40\n      mstore\n      dup1\n      0x09\n      dup2\n      mstore\n      0x20\n      add\n      0x6920617070726f76650000000000000000000000000000000000000000000000\n      dup2\n      mstore\n      pop\n        /* \"contracts/BusinessConsensus3.sol\":4705:4734  keccak256(bytes(\"i approve\")) */\n      dup1\n      mload\n      swap1\n      0x20\n      add\n      keccak256\n        /* \"contracts/BusinessConsensus3.sol\":4691:4699  response */\n      dup4\n        /* \"contracts/BusinessConsensus3.sol\":4675:4701  keccak256(bytes(response)) */\n      dup1\n      mload\n      swap1\n      0x20\n      add\n      keccak256\n        /* \"contracts/BusinessConsensus3.sol\":4675:4734  keccak256(bytes(response)) == keccak256(bytes(\"i approve\")) */\n      eq\n        /* \"contracts/BusinessConsensus3.sol\":4672:5581  if(keccak256(bytes(response)) == keccak256(bytes(\"i approve\"))){\r... */\n      iszero\n      tag_156\n      jumpi\n        /* \"contracts/BusinessConsensus3.sol\":4793:4797  true */\n      0x01\n        /* \"contracts/BusinessConsensus3.sol\":4750:4760  voter_maps */\n      0x0c\n        /* \"contracts/BusinessConsensus3.sol\":4761:4771  _messageID */\n      dup4\n      dup4\n        /* \"contracts/BusinessConsensus3.sol\":4750:4772  voter_maps[_messageID] */\n      mload(0x40)\n      tag_157\n      swap3\n      swap2\n      swap1\n      tag_144\n      jump\t// in\n    tag_157:\n      swap1\n      dup2\n      mstore\n      0x20\n      add\n      mload(0x40)\n      dup1\n      swap2\n      sub\n      swap1\n      keccak256\n        /* \"contracts/BusinessConsensus3.sol\":4750:4784  voter_maps[_messageID][msg.sender] */\n      0x00\n        /* \"contracts/BusinessConsensus3.sol\":4773:4783  msg.sender */\n      caller\n        /* \"contracts/BusinessConsensus3.sol\":4750:4784  voter_maps[_messageID][msg.sender] */\n      0xffffffffffffffffffffffffffffffffffffffff\n      and\n      0xffffffffffffffffffffffffffffffffffffffff\n      and\n      dup2\n      mstore\n      0x20\n      add\n      swap1\n      dup2\n      mstore\n      0x20\n      add\n      0x00\n      keccak256\n        /* \"contracts/BusinessConsensus3.sol\":4750:4790  voter_maps[_messageID][msg.sender].voted */\n      0x00\n      add\n      0x00\n        /* \"contracts/BusinessConsensus3.sol\":4750:4797  voter_maps[_messageID][msg.sender].voted = true */\n      0x0100\n      exp\n      dup2\n      sload\n      dup2\n      0xff\n      mul\n      not\n      and\n      swap1\n      dup4\n      iszero\n      iszero\n      mul\n      or\n      swap1\n      sstore\n      pop\n        /* \"contracts/BusinessConsensus3.sol\":4854:4858  true */\n      0x01\n        /* \"contracts/BusinessConsensus3.sol\":4812:4822  voter_maps */\n      0x0c\n        /* \"contracts/BusinessConsensus3.sol\":4823:4833  _messageID */\n      dup4\n      dup4\n        /* \"contracts/BusinessConsensus3.sol\":4812:4834  voter_maps[_messageID] */\n      mload(0x40)\n      tag_158\n      swap3\n      swap2\n      swap1\n      tag_144\n      jump\t// in\n    tag_158:\n      swap1\n      dup2\n      mstore\n      0x20\n      add\n      mload(0x40)\n      dup1\n      swap2\n      sub\n      swap1\n      keccak256\n        /* \"contracts/BusinessConsensus3.sol\":4812:4846  voter_maps[_messageID][msg.sender] */\n      0x00\n        /* \"contracts/BusinessConsensus3.sol\":4835:4845  msg.sender */\n      caller\n        /* \"contracts/BusinessConsensus3.sol\":4812:4846  voter_maps[_messageID][msg.sender] */\n      0xffffffffffffffffffffffffffffffffffffffff\n      and\n      0xffffffffffffffffffffffffffffffffffffffff\n      and\n      dup2\n      mstore\n      0x20\n      add\n      swap1\n      dup2\n      mstore\n      0x20\n      add\n      0x00\n      keccak256\n        /* \"contracts/BusinessConsensus3.sol\":4812:4851  voter_maps[_messageID][msg.sender].vote */\n      0x00\n      add\n      0x01\n        /* \"contracts/BusinessConsensus3.sol\":4812:4858  voter_maps[_messageID][msg.sender].vote = true */\n      0x0100\n      exp\n      dup2\n      sload\n      dup2\n      0xff\n      mul\n      not\n      and\n      swap1\n      dup4\n      iszero\n      iszero\n      mul\n      or\n      swap1\n      sstore\n      pop\n        /* \"contracts/BusinessConsensus3.sol\":4901:4902  1 */\n      0x01\n        /* \"contracts/BusinessConsensus3.sol\":4873:4885  numApprovals */\n      0x06\n        /* \"contracts/BusinessConsensus3.sol\":4886:4896  _messageID */\n      dup4\n      dup4\n        /* \"contracts/BusinessConsensus3.sol\":4873:4897  numApprovals[_messageID] */\n      mload(0x40)\n      tag_159\n      swap3\n      swap2\n      swap1\n      tag_144\n      jump\t// in\n    tag_159:\n      swap1\n      dup2\n      mstore\n      0x20\n      add\n      mload(0x40)\n      dup1\n      swap2\n      sub\n      swap1\n      keccak256\n      0x00\n        /* \"contracts/BusinessConsensus3.sol\":4873:4902  numApprovals[_messageID] += 1 */\n      dup3\n      dup3\n      sload\n      tag_160\n      swap2\n      swap1\n      tag_161\n      jump\t// in\n    tag_160:\n      swap3\n      pop\n      pop\n      dup2\n      swap1\n      sstore\n      pop\n        /* \"contracts/BusinessConsensus3.sol\":4943:4944  1 */\n      0x01\n        /* \"contracts/BusinessConsensus3.sol\":4917:4927  voteCounts */\n      0x02\n        /* \"contracts/BusinessConsensus3.sol\":4928:4938  _messageID */\n      dup4\n      dup4\n        /* \"contracts/BusinessConsensus3.sol\":4917:4939  voteCounts[_messageID] */\n      mload(0x40)\n      tag_162\n      swap3\n      swap2\n      swap1\n      tag_144\n      jump\t// in\n    tag_162:\n      swap1\n      dup2\n      mstore\n      0x20\n      add\n      mload(0x40)\n      dup1\n      swap2\n      sub\n      swap1\n      keccak256\n      0x00\n        /* \"contracts/BusinessConsensus3.sol\":4917:4944  voteCounts[_messageID] += 1 */\n      dup3\n      dup3\n      sload\n      tag_163\n      swap2\n      swap1\n      tag_161\n      jump\t// in\n    tag_163:\n      swap3\n      pop\n      pop\n      dup2\n      swap1\n      sstore\n      pop\n        /* \"contracts/BusinessConsensus3.sol\":4959:4965  Voters */\n      0x0d\n        /* \"contracts/BusinessConsensus3.sol\":4966:4976  _messageID */\n      dup3\n      dup3\n        /* \"contracts/BusinessConsensus3.sol\":4959:4977  Voters[_messageID] */\n      mload(0x40)\n      tag_164\n      swap3\n      swap2\n      swap1\n      tag_144\n      jump\t// in\n    tag_164:\n      swap1\n      dup2\n      mstore\n      0x20\n      add\n      mload(0x40)\n      dup1\n      swap2\n      sub\n      swap1\n      keccak256\n        /* \"contracts/BusinessConsensus3.sol\":4983:4993  voter_maps */\n      0x0c\n        /* \"contracts/BusinessConsensus3.sol\":4994:5004  _messageID */\n      dup4\n      dup4\n        /* \"contracts/BusinessConsensus3.sol\":4983:5005  voter_maps[_messageID] */\n      mload(0x40)\n      tag_165\n      swap3\n      swap2\n      swap1\n      tag_144\n      jump\t// in\n    tag_165:\n      swap1\n      dup2\n      mstore\n      0x20\n      add\n      mload(0x40)\n      dup1\n      swap2\n      sub\n      swap1\n      keccak256\n        /* \"contracts/BusinessConsensus3.sol\":4983:5017  voter_maps[_messageID][msg.sender] */\n      0x00\n        /* \"contracts/BusinessConsensus3.sol\":5006:5016  msg.sender */\n      caller\n        /* \"contracts/BusinessConsensus3.sol\":4983:5017  voter_maps[_messageID][msg.sender] */\n      0xffffffffffffffffffffffffffffffffffffffff\n      and\n      0xffffffffffffffffffffffffffffffffffffffff\n      and\n      dup2\n      mstore\n      0x20\n      add\n      swap1\n      dup2\n      mstore\n      0x20\n      add\n      0x00\n      keccak256\n        /* \"contracts/BusinessConsensus3.sol\":4959:5018  Voters[_messageID].push(voter_maps[_messageID][msg.sender]) */\n      swap1\n      dup1\n      0x01\n      dup2\n      sload\n      add\n      dup1\n      dup3\n      sstore\n      dup1\n      swap2\n      pop\n      pop\n      0x01\n      swap1\n      sub\n      swap1\n      0x00\n      mstore\n      keccak256(0x00, 0x20)\n      add\n      0x00\n      swap1\n      swap2\n      swap1\n      swap2\n      swap1\n      swap2\n      pop\n      0x00\n      dup3\n      add\n      0x00\n      swap1\n      sload\n      swap1\n      0x0100\n      exp\n      swap1\n      div\n      0xff\n      and\n      dup2\n      0x00\n      add\n      exp(0x0100, 0x00)\n      dup2\n      sload\n      dup2\n      0xff\n      mul\n      not\n      and\n      swap1\n      dup4\n      iszero\n      iszero\n      mul\n      or\n      swap1\n      sstore\n      pop\n      0x00\n      dup3\n      add\n      0x01\n      swap1\n      sload\n      swap1\n      0x0100\n      exp\n      swap1\n      div\n      0xff\n      and\n      dup2\n      0x00\n      add\n      exp(0x0100, 0x01)\n      dup2\n      sload\n      dup2\n      0xff\n      mul\n      not\n      and\n      swap1\n      dup4\n      iszero\n      iszero\n      mul\n      or\n      swap1\n      sstore\n      pop\n      0x00\n      dup3\n      add\n      0x02\n      swap1\n      sload\n      swap1\n      0x0100\n      exp\n      swap1\n      div\n      0xffffffffffffffffffffffffffffffffffffffff\n      and\n      dup2\n      0x00\n      add\n      exp(0x0100, 0x02)\n      dup2\n      sload\n      dup2\n      0xffffffffffffffffffffffffffffffffffffffff\n      mul\n      not\n      and\n      swap1\n      dup4\n      0xffffffffffffffffffffffffffffffffffffffff\n      and\n      mul\n      or\n      swap1\n      sstore\n      pop\n      pop\n      pop\n        /* \"contracts/BusinessConsensus3.sol\":4672:5581  if(keccak256(bytes(response)) == keccak256(bytes(\"i approve\"))){\r... */\n      jump(tag_167)\n    tag_156:\n        /* \"contracts/BusinessConsensus3.sol\":5090:5111  bytes(\"i disapprove\") */\n      mload(0x40)\n      dup1\n      0x40\n      add\n      0x40\n      mstore\n      dup1\n      0x0c\n      dup2\n      mstore\n      0x20\n      add\n      0x6920646973617070726f76650000000000000000000000000000000000000000\n      dup2\n      mstore\n      pop\n        /* \"contracts/BusinessConsensus3.sol\":5080:5112  keccak256(bytes(\"i disapprove\")) */\n      dup1\n      mload\n      swap1\n      0x20\n      add\n      keccak256\n        /* \"contracts/BusinessConsensus3.sol\":5066:5074  response */\n      dup4\n        /* \"contracts/BusinessConsensus3.sol\":5050:5076  keccak256(bytes(response)) */\n      dup1\n      mload\n      swap1\n      0x20\n      add\n      keccak256\n        /* \"contracts/BusinessConsensus3.sol\":5050:5112  keccak256(bytes(response)) == keccak256(bytes(\"i disapprove\")) */\n      eq\n        /* \"contracts/BusinessConsensus3.sol\":5047:5581  if(keccak256(bytes(response)) == keccak256(bytes(\"i disapprove\"))){\r... */\n      iszero\n      tag_168\n      jumpi\n        /* \"contracts/BusinessConsensus3.sol\":5171:5175  true */\n      0x01\n        /* \"contracts/BusinessConsensus3.sol\":5128:5138  voter_maps */\n      0x0c\n        /* \"contracts/BusinessConsensus3.sol\":5139:5149  _messageID */\n      dup4\n      dup4\n        /* \"contracts/BusinessConsensus3.sol\":5128:5150  voter_maps[_messageID] */\n      mload(0x40)\n      tag_169\n      swap3\n      swap2\n      swap1\n      tag_144\n      jump\t// in\n    tag_169:\n      swap1\n      dup2\n      mstore\n      0x20\n      add\n      mload(0x40)\n      dup1\n      swap2\n      sub\n      swap1\n      keccak256\n        /* \"contracts/BusinessConsensus3.sol\":5128:5162  voter_maps[_messageID][msg.sender] */\n      0x00\n        /* \"contracts/BusinessConsensus3.sol\":5151:5161  msg.sender */\n      caller\n        /* \"contracts/BusinessConsensus3.sol\":5128:5162  voter_maps[_messageID][msg.sender] */\n      0xffffffffffffffffffffffffffffffffffffffff\n      and\n      0xffffffffffffffffffffffffffffffffffffffff\n      and\n      dup2\n      mstore\n      0x20\n      add\n      swap1\n      dup2\n      mstore\n      0x20\n      add\n      0x00\n      keccak256\n        /* \"contracts/BusinessConsensus3.sol\":5128:5168  voter_maps[_messageID][msg.sender].voted */\n      0x00\n      add\n      0x00\n        /* \"contracts/BusinessConsensus3.sol\":5128:5175  voter_maps[_messageID][msg.sender].voted = true */\n      0x0100\n      exp\n      dup2\n      sload\n      dup2\n      0xff\n      mul\n      not\n      and\n      swap1\n      dup4\n      iszero\n      iszero\n      mul\n      or\n      swap1\n      sstore\n      pop\n        /* \"contracts/BusinessConsensus3.sol\":5216:5217  1 */\n      0x01\n        /* \"contracts/BusinessConsensus3.sol\":5190:5200  voteCounts */\n      0x02\n        /* \"contracts/BusinessConsensus3.sol\":5201:5211  _messageID */\n      dup4\n      dup4\n        /* \"contracts/BusinessConsensus3.sol\":5190:5212  voteCounts[_messageID] */\n      mload(0x40)\n      tag_170\n      swap3\n      swap2\n      swap1\n      tag_144\n      jump\t// in\n    tag_170:\n      swap1\n      dup2\n      mstore\n      0x20\n      add\n      mload(0x40)\n      dup1\n      swap2\n      sub\n      swap1\n      keccak256\n      0x00\n        /* \"contracts/BusinessConsensus3.sol\":5190:5217  voteCounts[_messageID] += 1 */\n      dup3\n      dup3\n      sload\n      tag_171\n      swap2\n      swap1\n      tag_161\n      jump\t// in\n    tag_171:\n      swap3\n      pop\n      pop\n      dup2\n      swap1\n      sstore\n      pop\n        /* \"contracts/BusinessConsensus3.sol\":5232:5238  Voters */\n      0x0d\n        /* \"contracts/BusinessConsensus3.sol\":5239:5249  _messageID */\n      dup3\n      dup3\n        /* \"contracts/BusinessConsensus3.sol\":5232:5250  Voters[_messageID] */\n      mload(0x40)\n      tag_172\n      swap3\n      swap2\n      swap1\n      tag_144\n      jump\t// in\n    tag_172:\n      swap1\n      dup2\n      mstore\n      0x20\n      add\n      mload(0x40)\n      dup1\n      swap2\n      sub\n      swap1\n      keccak256\n        /* \"contracts/BusinessConsensus3.sol\":5256:5266  voter_maps */\n      0x0c\n        /* \"contracts/BusinessConsensus3.sol\":5267:5277  _messageID */\n      dup4\n      dup4\n        /* \"contracts/BusinessConsensus3.sol\":5256:5278  voter_maps[_messageID] */\n      mload(0x40)\n      tag_173\n      swap3\n      swap2\n      swap1\n      tag_144\n      jump\t// in\n    tag_173:\n      swap1\n      dup2\n      mstore\n      0x20\n      add\n      mload(0x40)\n      dup1\n      swap2\n      sub\n      swap1\n      keccak256\n        /* \"contracts/BusinessConsensus3.sol\":5256:5290  voter_maps[_messageID][msg.sender] */\n      0x00\n        /* \"contracts/BusinessConsensus3.sol\":5279:5289  msg.sender */\n      caller\n        /* \"contracts/BusinessConsensus3.sol\":5256:5290  voter_maps[_messageID][msg.sender] */\n      0xffffffffffffffffffffffffffffffffffffffff\n      and\n      0xffffffffffffffffffffffffffffffffffffffff\n      and\n      dup2\n      mstore\n      0x20\n      add\n      swap1\n      dup2\n      mstore\n      0x20\n      add\n      0x00\n      keccak256\n        /* \"contracts/BusinessConsensus3.sol\":5232:5291  Voters[_messageID].push(voter_maps[_messageID][msg.sender]) */\n      swap1\n      dup1\n      0x01\n      dup2\n      sload\n      add\n      dup1\n      dup3\n      sstore\n      dup1\n      swap2\n      pop\n      pop\n      0x01\n      swap1\n      sub\n      swap1\n      0x00\n      mstore\n      keccak256(0x00, 0x20)\n      add\n      0x00\n      swap1\n      swap2\n      swap1\n      swap2\n      swap1\n      swap2\n      pop\n      0x00\n      dup3\n      add\n      0x00\n      swap1\n      sload\n      swap1\n      0x0100\n      exp\n      swap1\n      div\n      0xff\n      and\n      dup2\n      0x00\n      add\n      exp(0x0100, 0x00)\n      dup2\n      sload\n      dup2\n      0xff\n      mul\n      not\n      and\n      swap1\n      dup4\n      iszero\n      iszero\n      mul\n      or\n      swap1\n      sstore\n      pop\n      0x00\n      dup3\n      add\n      0x01\n      swap1\n      sload\n      swap1\n      0x0100\n      exp\n      swap1\n      div\n      0xff\n      and\n      dup2\n      0x00\n      add\n      exp(0x0100, 0x01)\n      dup2\n      sload\n      dup2\n      0xff\n      mul\n      not\n      and\n      swap1\n      dup4\n      iszero\n      iszero\n      mul\n      or\n      swap1\n      sstore\n      pop\n      0x00\n      dup3\n      add\n      0x02\n      swap1\n      sload\n      swap1\n      0x0100\n      exp\n      swap1\n      div\n      0xffffffffffffffffffffffffffffffffffffffff\n      and\n      dup2\n      0x00\n      add\n      exp(0x0100, 0x02)\n      dup2\n      sload\n      dup2\n      0xffffffffffffffffffffffffffffffffffffffff\n      mul\n      not\n      and\n      swap1\n      dup4\n      0xffffffffffffffffffffffffffffffffffffffff\n      and\n      mul\n      or\n      swap1\n      sstore\n      pop\n      pop\n      pop\n        /* \"contracts/BusinessConsensus3.sol\":5047:5581  if(keccak256(bytes(response)) == keccak256(bytes(\"i disapprove\"))){\r... */\n      jump(tag_175)\n    tag_168:\n        /* \"contracts/BusinessConsensus3.sol\":5449:5453  true */\n      0x01\n        /* \"contracts/BusinessConsensus3.sol\":5406:5416  voter_maps */\n      0x0c\n        /* \"contracts/BusinessConsensus3.sol\":5417:5427  _messageID */\n      dup4\n      dup4\n        /* \"contracts/BusinessConsensus3.sol\":5406:5428  voter_maps[_messageID] */\n      mload(0x40)\n      tag_176\n      swap3\n      swap2\n      swap1\n      tag_144\n      jump\t// in\n    tag_176:\n      swap1\n      dup2\n      mstore\n      0x20\n      add\n      mload(0x40)\n      dup1\n      swap2\n      sub\n      swap1\n      keccak256\n        /* \"contracts/BusinessConsensus3.sol\":5406:5440  voter_maps[_messageID][msg.sender] */\n      0x00\n        /* \"contracts/BusinessConsensus3.sol\":5429:5439  msg.sender */\n      caller\n        /* \"contracts/BusinessConsensus3.sol\":5406:5440  voter_maps[_messageID][msg.sender] */\n      0xffffffffffffffffffffffffffffffffffffffff\n      and\n      0xffffffffffffffffffffffffffffffffffffffff\n      and\n      dup2\n      mstore\n      0x20\n      add\n      swap1\n      dup2\n      mstore\n      0x20\n      add\n      0x00\n      keccak256\n        /* \"contracts/BusinessConsensus3.sol\":5406:5446  voter_maps[_messageID][msg.sender].voted */\n      0x00\n      add\n      0x00\n        /* \"contracts/BusinessConsensus3.sol\":5406:5453  voter_maps[_messageID][msg.sender].voted = true */\n      0x0100\n      exp\n      dup2\n      sload\n      dup2\n      0xff\n      mul\n      not\n      and\n      swap1\n      dup4\n      iszero\n      iszero\n      mul\n      or\n      swap1\n      sstore\n      pop\n        /* \"contracts/BusinessConsensus3.sol\":5494:5495  1 */\n      0x01\n        /* \"contracts/BusinessConsensus3.sol\":5468:5478  voteCounts */\n      0x02\n        /* \"contracts/BusinessConsensus3.sol\":5479:5489  _messageID */\n      dup4\n      dup4\n        /* \"contracts/BusinessConsensus3.sol\":5468:5490  voteCounts[_messageID] */\n      mload(0x40)\n      tag_177\n      swap3\n      swap2\n      swap1\n      tag_144\n      jump\t// in\n    tag_177:\n      swap1\n      dup2\n      mstore\n      0x20\n      add\n      mload(0x40)\n      dup1\n      swap2\n      sub\n      swap1\n      keccak256\n      0x00\n        /* \"contracts/BusinessConsensus3.sol\":5468:5495  voteCounts[_messageID] += 1 */\n      dup3\n      dup3\n      sload\n      tag_178\n      swap2\n      swap1\n      tag_161\n      jump\t// in\n    tag_178:\n      swap3\n      pop\n      pop\n      dup2\n      swap1\n      sstore\n      pop\n        /* \"contracts/BusinessConsensus3.sol\":5510:5516  Voters */\n      0x0d\n        /* \"contracts/BusinessConsensus3.sol\":5517:5527  _messageID */\n      dup3\n      dup3\n        /* \"contracts/BusinessConsensus3.sol\":5510:5528  Voters[_messageID] */\n      mload(0x40)\n      tag_179\n      swap3\n      swap2\n      swap1\n      tag_144\n      jump\t// in\n    tag_179:\n      swap1\n      dup2\n      mstore\n      0x20\n      add\n      mload(0x40)\n      dup1\n      swap2\n      sub\n      swap1\n      keccak256\n        /* \"contracts/BusinessConsensus3.sol\":5534:5544  voter_maps */\n      0x0c\n        /* \"contracts/BusinessConsensus3.sol\":5545:5555  _messageID */\n      dup4\n      dup4\n        /* \"contracts/BusinessConsensus3.sol\":5534:5556  voter_maps[_messageID] */\n      mload(0x40)\n      tag_180\n      swap3\n      swap2\n      swap1\n      tag_144\n      jump\t// in\n    tag_180:\n      swap1\n      dup2\n      mstore\n      0x20\n      add\n      mload(0x40)\n      dup1\n      swap2\n      sub\n      swap1\n      keccak256\n        /* \"contracts/BusinessConsensus3.sol\":5534:5568  voter_maps[_messageID][msg.sender] */\n      0x00\n        /* \"contracts/BusinessConsensus3.sol\":5557:5567  msg.sender */\n      caller\n        /* \"contracts/BusinessConsensus3.sol\":5534:5568  voter_maps[_messageID][msg.sender] */\n      0xffffffffffffffffffffffffffffffffffffffff\n      and\n      0xffffffffffffffffffffffffffffffffffffffff\n      and\n      dup2\n      mstore\n      0x20\n      add\n      swap1\n      dup2\n      mstore\n      0x20\n      add\n      0x00\n      keccak256\n        /* \"contracts/BusinessConsensus3.sol\":5510:5569  Voters[_messageID].push(voter_maps[_messageID][msg.sender]) */\n      swap1\n      dup1\n      0x01\n      dup2\n      sload\n      add\n      dup1\n      dup3\n      sstore\n      dup1\n      swap2\n      pop\n      pop\n      0x01\n      swap1\n      sub\n      swap1\n      0x00\n      mstore\n      keccak256(0x00, 0x20)\n      add\n      0x00\n      swap1\n      swap2\n      swap1\n      swap2\n      swap1\n      swap2\n      pop\n      0x00\n      dup3\n      add\n      0x00\n      swap1\n      sload\n      swap1\n      0x0100\n      exp\n      swap1\n      div\n      0xff\n      and\n      dup2\n      0x00\n      add\n      exp(0x0100, 0x00)\n      dup2\n      sload\n      dup2\n      0xff\n      mul\n      not\n      and\n      swap1\n      dup4\n      iszero\n      iszero\n      mul\n      or\n      swap1\n      sstore\n      pop\n      0x00\n      dup3\n      add\n      0x01\n      swap1\n      sload\n      swap1\n      0x0100\n      exp\n      swap1\n      div\n      0xff\n      and\n      dup2\n      0x00\n      add\n      exp(0x0100, 0x01)\n      dup2\n      sload\n      dup2\n      0xff\n      mul\n      not\n      and\n      swap1\n      dup4\n      iszero\n      iszero\n      mul\n      or\n      swap1\n      sstore\n      pop\n      0x00\n      dup3\n      add\n      0x02\n      swap1\n      sload\n      swap1\n      0x0100\n      exp\n      swap1\n      div\n      0xffffffffffffffffffffffffffffffffffffffff\n      and\n      dup2\n      0x00\n      add\n      exp(0x0100, 0x02)\n      dup2\n      sload\n      dup2\n      0xffffffffffffffffffffffffffffffffffffffff\n      mul\n      not\n      and\n      swap1\n      dup4\n      0xffffffffffffffffffffffffffffffffffffffff\n      and\n      mul\n      or\n      swap1\n      sstore\n      pop\n      pop\n      pop\n        /* \"contracts/BusinessConsensus3.sol\":5047:5581  if(keccak256(bytes(response)) == keccak256(bytes(\"i disapprove\"))){\r... */\n    tag_175:\n        /* \"contracts/BusinessConsensus3.sol\":4672:5581  if(keccak256(bytes(response)) == keccak256(bytes(\"i approve\"))){\r... */\n    tag_167:\n        /* \"contracts/BusinessConsensus3.sol\":4293:5598  function Vote(string memory response,string calldata _messageID) external {\r... */\n      pop\n      pop\n      pop\n      jump\t// out\n        /* \"contracts/BusinessConsensus3.sol\":875:919  mapping(string => bool) public finalVerdicts */\n    tag_47:\n      0x09\n      dup2\n      dup1\n      mload\n      0x20\n      dup2\n      add\n      dup3\n      add\n      dup1\n      mload\n      dup5\n      dup3\n      mstore\n      0x20\n      dup4\n      add\n      0x20\n      dup6\n      add\n      keccak256\n      dup2\n      dup4\n      mstore\n      dup1\n      swap6\n      pop\n      pop\n      pop\n      pop\n      pop\n      pop\n      0x00\n      swap2\n      pop\n      sload\n      swap1\n      0x0100\n      exp\n      swap1\n      div\n      0xff\n      and\n      dup2\n      jump\t// out\n        /* \"contracts/BusinessConsensus3.sol\":926:967  mapping(string => bool) public isCompiled */\n    tag_52:\n      0x0a\n      dup2\n      dup1\n      mload\n      0x20\n      dup2\n      add\n      dup3\n      add\n      dup1\n      mload\n      dup5\n      dup3\n      mstore\n      0x20\n      dup4\n      add\n      0x20\n      dup6\n      add\n      keccak256\n      dup2\n      dup4\n      mstore\n      dup1\n      swap6\n      pop\n      pop\n      pop\n      pop\n      pop\n      pop\n      0x00\n      swap2\n      pop\n      sload\n      swap1\n      0x0100\n      exp\n      swap1\n      div\n      0xff\n      and\n      dup2\n      jump\t// out\n        /* \"contracts/BusinessConsensus3.sol\":1022:1080  mapping(string=>mapping(address=>Voter)) public voter_maps */\n    tag_57:\n      0x0c\n      dup3\n      dup1\n      mload\n      0x20\n      dup2\n      add\n      dup3\n      add\n      dup1\n      mload\n      dup5\n      dup3\n      mstore\n      0x20\n      dup4\n      add\n      0x20\n      dup6\n      add\n      keccak256\n      dup2\n      dup4\n      mstore\n      dup1\n      swap6\n      pop\n      pop\n      pop\n      pop\n      pop\n      pop\n      0x20\n      mstore\n      dup1\n      0x00\n      mstore\n      keccak256(0x00, 0x40)\n      0x00\n      swap2\n      pop\n      swap2\n      pop\n      pop\n      dup1\n      0x00\n      add\n      0x00\n      swap1\n      sload\n      swap1\n      0x0100\n      exp\n      swap1\n      div\n      0xff\n      and\n      swap1\n      dup1\n      0x00\n      add\n      0x01\n      swap1\n      sload\n      swap1\n      0x0100\n      exp\n      swap1\n      div\n      0xff\n      and\n      swap1\n      dup1\n      0x00\n      add\n      0x02\n      swap1\n      sload\n      swap1\n      0x0100\n      exp\n      swap1\n      div\n      0xffffffffffffffffffffffffffffffffffffffff\n      and\n      swap1\n      pop\n      dup4\n      jump\t// out\n        /* \"contracts/BusinessConsensus3.sol\":6611:7052  function retrieve_bundle(string calldata _messageID) external view returns (bool, string memory, uint256, Voter[] memory){\r... */\n    tag_63:\n        /* \"contracts/BusinessConsensus3.sol\":6687:6691  bool */\n      0x00\n        /* \"contracts/BusinessConsensus3.sol\":6693:6706  string memory */\n      0x60\n        /* \"contracts/BusinessConsensus3.sol\":6708:6715  uint256 */\n      0x00\n        /* \"contracts/BusinessConsensus3.sol\":6717:6731  Voter[] memory */\n      0x60\n        /* \"contracts/BusinessConsensus3.sol\":6770:6781  expiryDates */\n      0x04\n        /* \"contracts/BusinessConsensus3.sol\":6782:6792  _messageID */\n      dup7\n      dup7\n        /* \"contracts/BusinessConsensus3.sol\":6770:6793  expiryDates[_messageID] */\n      mload(0x40)\n      tag_183\n      swap3\n      swap2\n      swap1\n      tag_144\n      jump\t// in\n    tag_183:\n      swap1\n      dup2\n      mstore\n      0x20\n      add\n      mload(0x40)\n      dup1\n      swap2\n      sub\n      swap1\n      keccak256\n      sload\n        /* \"contracts/BusinessConsensus3.sol\":6751:6766  block.timestamp */\n      timestamp\n        /* \"contracts/BusinessConsensus3.sol\":6751:6793  block.timestamp >= expiryDates[_messageID] */\n      lt\n      iszero\n        /* \"contracts/BusinessConsensus3.sol\":6743:6830  require(block.timestamp >= expiryDates[_messageID], \"Verdict has not been reached yet\") */\n      tag_184\n      jumpi\n      mload(0x40)\n      0x08c379a000000000000000000000000000000000000000000000000000000000\n      dup2\n      mstore\n      0x04\n      add\n      tag_185\n      swap1\n      tag_186\n      jump\t// in\n    tag_185:\n      mload(0x40)\n      dup1\n      swap2\n      sub\n      swap1\n      revert\n    tag_184:\n        /* \"contracts/BusinessConsensus3.sol\":6841:6862  Voter[] memory voters */\n      0x00\n        /* \"contracts/BusinessConsensus3.sol\":6865:6871  Voters */\n      0x0d\n        /* \"contracts/BusinessConsensus3.sol\":6872:6882  _messageID */\n      dup8\n      dup8\n        /* \"contracts/BusinessConsensus3.sol\":6865:6883  Voters[_messageID] */\n      mload(0x40)\n      tag_187\n      swap3\n      swap2\n      swap1\n      tag_144\n      jump\t// in\n    tag_187:\n      swap1\n      dup2\n      mstore\n      0x20\n      add\n      mload(0x40)\n      dup1\n      swap2\n      sub\n      swap1\n      keccak256\n        /* \"contracts/BusinessConsensus3.sol\":6841:6883  Voter[] memory voters = Voters[_messageID] */\n      dup1\n      sload\n      dup1\n      0x20\n      mul\n      0x20\n      add\n      mload(0x40)\n      swap1\n      dup2\n      add\n      0x40\n      mstore\n      dup1\n      swap3\n      swap2\n      swap1\n      dup2\n      dup2\n      mstore\n      0x20\n      add\n      0x00\n      swap1\n    tag_188:\n      dup3\n      dup3\n      lt\n      iszero\n      tag_189\n      jumpi\n      dup4\n      dup3\n      swap1\n      0x00\n      mstore\n      keccak256(0x00, 0x20)\n      add\n      mload(0x40)\n      dup1\n      0x60\n      add\n      0x40\n      mstore\n      swap1\n      dup2\n      0x00\n      dup3\n      add\n      0x00\n      swap1\n      sload\n      swap1\n      0x0100\n      exp\n      swap1\n      div\n      0xff\n      and\n      iszero\n      iszero\n      iszero\n      iszero\n      dup2\n      mstore\n      0x20\n      add\n      0x00\n      dup3\n      add\n      0x01\n      swap1\n      sload\n      swap1\n      0x0100\n      exp\n      swap1\n      div\n      0xff\n      and\n      iszero\n      iszero\n      iszero\n      iszero\n      dup2\n      mstore\n      0x20\n      add\n      0x00\n      dup3\n      add\n      0x02\n      swap1\n      sload\n      swap1\n      0x0100\n      exp\n      swap1\n      div\n      0xffffffffffffffffffffffffffffffffffffffff\n      and\n      0xffffffffffffffffffffffffffffffffffffffff\n      and\n      0xffffffffffffffffffffffffffffffffffffffff\n      and\n      dup2\n      mstore\n      pop\n      pop\n      dup2\n      mstore\n      0x20\n      add\n      swap1\n      0x01\n      add\n      swap1\n      jump(tag_188)\n    tag_189:\n      pop\n      pop\n      pop\n      pop\n      swap1\n      pop\n        /* \"contracts/BusinessConsensus3.sol\":6894:6906  bool verdict */\n      0x00\n        /* \"contracts/BusinessConsensus3.sol\":6909:6922  finalVerdicts */\n      0x09\n        /* \"contracts/BusinessConsensus3.sol\":6923:6933  _messageID */\n      dup9\n      dup9\n        /* \"contracts/BusinessConsensus3.sol\":6909:6934  finalVerdicts[_messageID] */\n      mload(0x40)\n      tag_191\n      swap3\n      swap2\n      swap1\n      tag_144\n      jump\t// in\n    tag_191:\n      swap1\n      dup2\n      mstore\n      0x20\n      add\n      mload(0x40)\n      dup1\n      swap2\n      sub\n      swap1\n      keccak256\n      0x00\n      swap1\n      sload\n      swap1\n      0x0100\n      exp\n      swap1\n      div\n      0xff\n      and\n        /* \"contracts/BusinessConsensus3.sol\":6894:6934  bool verdict = finalVerdicts[_messageID] */\n      swap1\n      pop\n        /* \"contracts/BusinessConsensus3.sol\":6945:6958  uint256 count */\n      0x00\n        /* \"contracts/BusinessConsensus3.sol\":6961:6971  voteCounts */\n      0x02\n        /* \"contracts/BusinessConsensus3.sol\":6972:6982  _messageID */\n      dup10\n      dup10\n        /* \"contracts/BusinessConsensus3.sol\":6961:6983  voteCounts[_messageID] */\n      mload(0x40)\n      tag_192\n      swap3\n      swap2\n      swap1\n      tag_144\n      jump\t// in\n    tag_192:\n      swap1\n      dup2\n      mstore\n      0x20\n      add\n      mload(0x40)\n      dup1\n      swap2\n      sub\n      swap1\n      keccak256\n      sload\n        /* \"contracts/BusinessConsensus3.sol\":6945:6983  uint256 count = voteCounts[_messageID] */\n      swap1\n      pop\n        /* \"contracts/BusinessConsensus3.sol\":7002:7009  verdict */\n      dup2\n        /* \"contracts/BusinessConsensus3.sol\":7010:7020  _messageID */\n      dup10\n      dup10\n        /* \"contracts/BusinessConsensus3.sol\":7021:7026  count */\n      dup4\n        /* \"contracts/BusinessConsensus3.sol\":7027:7033  voters */\n      dup7\n        /* \"contracts/BusinessConsensus3.sol\":6994:7034  return (verdict,_messageID,count,voters) */\n      dup4\n      dup4\n      dup1\n      dup1\n      0x1f\n      add\n      0x20\n      dup1\n      swap2\n      div\n      mul\n      0x20\n      add\n      mload(0x40)\n      swap1\n      dup2\n      add\n      0x40\n      mstore\n      dup1\n      swap4\n      swap3\n      swap2\n      swap1\n      dup2\n      dup2\n      mstore\n      0x20\n      add\n      dup4\n      dup4\n      dup1\n      dup3\n      dup5\n      calldatacopy\n      0x00\n      dup2\n      dup5\n      add\n      mstore\n      not(0x1f)\n      0x1f\n      dup3\n      add\n      and\n      swap1\n      pop\n      dup1\n      dup4\n      add\n      swap3\n      pop\n      pop\n      pop\n      pop\n      pop\n      pop\n      pop\n      swap3\n      pop\n      swap1\n      swap2\n      swap3\n      pop\n      swap7\n      pop\n      swap7\n      pop\n      swap7\n      pop\n      swap7\n      pop\n      pop\n      pop\n      pop\n        /* \"contracts/BusinessConsensus3.sol\":6611:7052  function retrieve_bundle(string calldata _messageID) external view returns (bool, string memory, uint256, Voter[] memory){\r... */\n      swap3\n      swap6\n      swap2\n      swap5\n      pop\n      swap3\n      pop\n      jump\t// out\n        /* \"contracts/BusinessConsensus3.sol\":3539:4285  function RegisterVoter(address voter,string calldata _messageID) external {\r... */\n    tag_69:\n        /* \"contracts/BusinessConsensus3.sol\":3734:3744  initiators */\n      0x00\n        /* \"contracts/BusinessConsensus3.sol\":3745:3755  _messageID */\n      dup3\n      dup3\n        /* \"contracts/BusinessConsensus3.sol\":3734:3756  initiators[_messageID] */\n      mload(0x40)\n      tag_194\n      swap3\n      swap2\n      swap1\n      tag_144\n      jump\t// in\n    tag_194:\n      swap1\n      dup2\n      mstore\n      0x20\n      add\n      mload(0x40)\n      dup1\n      swap2\n      sub\n      swap1\n      keccak256\n      0x00\n      swap1\n      sload\n      swap1\n      0x0100\n      exp\n      swap1\n      div\n      0xffffffffffffffffffffffffffffffffffffffff\n      and\n        /* \"contracts/BusinessConsensus3.sol\":3720:3756  msg.sender == initiators[_messageID] */\n      0xffffffffffffffffffffffffffffffffffffffff\n      and\n        /* \"contracts/BusinessConsensus3.sol\":3720:3730  msg.sender */\n      caller\n        /* \"contracts/BusinessConsensus3.sol\":3720:3756  msg.sender == initiators[_messageID] */\n      0xffffffffffffffffffffffffffffffffffffffff\n      and\n      eq\n        /* \"contracts/BusinessConsensus3.sol\":3698:3824  require(\r... */\n      tag_195\n      jumpi\n      mload(0x40)\n      0x08c379a000000000000000000000000000000000000000000000000000000000\n      dup2\n      mstore\n      0x04\n      add\n      tag_196\n      swap1\n      tag_197\n      jump\t// in\n    tag_196:\n      mload(0x40)\n      dup1\n      swap2\n      sub\n      swap1\n      revert\n    tag_195:\n        /* \"contracts/BusinessConsensus3.sol\":3852:3862  initiators */\n      0x00\n        /* \"contracts/BusinessConsensus3.sol\":3863:3873  _messageID */\n      dup3\n      dup3\n        /* \"contracts/BusinessConsensus3.sol\":3852:3874  initiators[_messageID] */\n      mload(0x40)\n      tag_198\n      swap3\n      swap2\n      swap1\n      tag_144\n      jump\t// in\n    tag_198:\n      swap1\n      dup2\n      mstore\n      0x20\n      add\n      mload(0x40)\n      dup1\n      swap2\n      sub\n      swap1\n      keccak256\n      0x00\n      swap1\n      sload\n      swap1\n      0x0100\n      exp\n      swap1\n      div\n      0xffffffffffffffffffffffffffffffffffffffff\n      and\n        /* \"contracts/BusinessConsensus3.sol\":3843:3874  voter != initiators[_messageID] */\n      0xffffffffffffffffffffffffffffffffffffffff\n      and\n        /* \"contracts/BusinessConsensus3.sol\":3843:3848  voter */\n      dup4\n        /* \"contracts/BusinessConsensus3.sol\":3843:3874  voter != initiators[_messageID] */\n      0xffffffffffffffffffffffffffffffffffffffff\n      and\n      eq\n      iszero\n        /* \"contracts/BusinessConsensus3.sol\":3835:3900  require(voter != initiators[_messageID], \"Initiator can't vote!\") */\n      tag_199\n      jumpi\n      mload(0x40)\n      0x08c379a000000000000000000000000000000000000000000000000000000000\n      dup2\n      mstore\n      0x04\n      add\n      tag_200\n      swap1\n      tag_201\n      jump\t// in\n    tag_200:\n      mload(0x40)\n      dup1\n      swap2\n      sub\n      swap1\n      revert\n    tag_199:\n        /* \"contracts/BusinessConsensus3.sol\":3972:3973  0 */\n      0x00\n        /* \"contracts/BusinessConsensus3.sol\":3921:3974  voter_maps[_messageID][voter].recipient == address(0) */\n      0xffffffffffffffffffffffffffffffffffffffff\n      and\n        /* \"contracts/BusinessConsensus3.sol\":3921:3931  voter_maps */\n      0x0c\n        /* \"contracts/BusinessConsensus3.sol\":3932:3942  _messageID */\n      dup4\n      dup4\n        /* \"contracts/BusinessConsensus3.sol\":3921:3943  voter_maps[_messageID] */\n      mload(0x40)\n      tag_202\n      swap3\n      swap2\n      swap1\n      tag_144\n      jump\t// in\n    tag_202:\n      swap1\n      dup2\n      mstore\n      0x20\n      add\n      mload(0x40)\n      dup1\n      swap2\n      sub\n      swap1\n      keccak256\n        /* \"contracts/BusinessConsensus3.sol\":3921:3950  voter_maps[_messageID][voter] */\n      0x00\n        /* \"contracts/BusinessConsensus3.sol\":3944:3949  voter */\n      dup6\n        /* \"contracts/BusinessConsensus3.sol\":3921:3950  voter_maps[_messageID][voter] */\n      0xffffffffffffffffffffffffffffffffffffffff\n      and\n      0xffffffffffffffffffffffffffffffffffffffff\n      and\n      dup2\n      mstore\n      0x20\n      add\n      swap1\n      dup2\n      mstore\n      0x20\n      add\n      0x00\n      keccak256\n        /* \"contracts/BusinessConsensus3.sol\":3921:3960  voter_maps[_messageID][voter].recipient */\n      0x00\n      add\n      0x02\n      swap1\n      sload\n      swap1\n      0x0100\n      exp\n      swap1\n      div\n      0xffffffffffffffffffffffffffffffffffffffff\n      and\n        /* \"contracts/BusinessConsensus3.sol\":3921:3974  voter_maps[_messageID][voter].recipient == address(0) */\n      0xffffffffffffffffffffffffffffffffffffffff\n      and\n      eq\n        /* \"contracts/BusinessConsensus3.sol\":3913:4010  require(voter_maps[_messageID][voter].recipient == address(0), \"Recipient is already registered\") */\n      tag_203\n      jumpi\n      mload(0x40)\n      0x08c379a000000000000000000000000000000000000000000000000000000000\n      dup2\n      mstore\n      0x04\n      add\n      tag_204\n      swap1\n      tag_205\n      jump\t// in\n    tag_204:\n      mload(0x40)\n      dup1\n      swap2\n      sub\n      swap1\n      revert\n    tag_203:\n        /* \"contracts/BusinessConsensus3.sol\":4049:4060  expiryDates */\n      0x04\n        /* \"contracts/BusinessConsensus3.sol\":4061:4071  _messageID */\n      dup3\n      dup3\n        /* \"contracts/BusinessConsensus3.sol\":4049:4072  expiryDates[_messageID] */\n      mload(0x40)\n      tag_206\n      swap3\n      swap2\n      swap1\n      tag_144\n      jump\t// in\n    tag_206:\n      swap1\n      dup2\n      mstore\n      0x20\n      add\n      mload(0x40)\n      dup1\n      swap2\n      sub\n      swap1\n      keccak256\n      sload\n        /* \"contracts/BusinessConsensus3.sol\":4031:4046  block.timestamp */\n      timestamp\n        /* \"contracts/BusinessConsensus3.sol\":4031:4072  block.timestamp < expiryDates[_messageID] */\n      lt\n        /* \"contracts/BusinessConsensus3.sol\":4023:4113  require(block.timestamp < expiryDates[_messageID], \"Proposal has reached its expiry date\") */\n      tag_207\n      jumpi\n      mload(0x40)\n      0x08c379a000000000000000000000000000000000000000000000000000000000\n      dup2\n      mstore\n      0x04\n      add\n      tag_208\n      swap1\n      tag_209\n      jump\t// in\n    tag_208:\n      mload(0x40)\n      dup1\n      swap2\n      sub\n      swap1\n      revert\n    tag_207:\n        /* \"contracts/BusinessConsensus3.sol\":4126:4140  Voter memory x */\n      0x00\n        /* \"contracts/BusinessConsensus3.sol\":4143:4194  Voter({voted: false,recipient: voter, vote: false}) */\n      mload(0x40)\n      dup1\n      0x60\n      add\n      0x40\n      mstore\n      dup1\n        /* \"contracts/BusinessConsensus3.sol\":4157:4162  false */\n      0x00\n        /* \"contracts/BusinessConsensus3.sol\":4143:4194  Voter({voted: false,recipient: voter, vote: false}) */\n      iszero\n      iszero\n      dup2\n      mstore\n      0x20\n      add\n        /* \"contracts/BusinessConsensus3.sol\":4187:4192  false */\n      0x00\n        /* \"contracts/BusinessConsensus3.sol\":4143:4194  Voter({voted: false,recipient: voter, vote: false}) */\n      iszero\n      iszero\n      dup2\n      mstore\n      0x20\n      add\n        /* \"contracts/BusinessConsensus3.sol\":4174:4179  voter */\n      dup6\n        /* \"contracts/BusinessConsensus3.sol\":4143:4194  Voter({voted: false,recipient: voter, vote: false}) */\n      0xffffffffffffffffffffffffffffffffffffffff\n      and\n      dup2\n      mstore\n      pop\n        /* \"contracts/BusinessConsensus3.sol\":4126:4194  Voter memory x = Voter({voted: false,recipient: voter, vote: false}) */\n      swap1\n      pop\n        /* \"contracts/BusinessConsensus3.sol\":4237:4238  x */\n      dup1\n        /* \"contracts/BusinessConsensus3.sol\":4205:4215  voter_maps */\n      0x0c\n        /* \"contracts/BusinessConsensus3.sol\":4216:4226  _messageID */\n      dup5\n      dup5\n        /* \"contracts/BusinessConsensus3.sol\":4205:4227  voter_maps[_messageID] */\n      mload(0x40)\n      tag_210\n      swap3\n      swap2\n      swap1\n      tag_144\n      jump\t// in\n    tag_210:\n      swap1\n      dup2\n      mstore\n      0x20\n      add\n      mload(0x40)\n      dup1\n      swap2\n      sub\n      swap1\n      keccak256\n        /* \"contracts/BusinessConsensus3.sol\":4205:4234  voter_maps[_messageID][voter] */\n      0x00\n        /* \"contracts/BusinessConsensus3.sol\":4228:4233  voter */\n      dup7\n        /* \"contracts/BusinessConsensus3.sol\":4205:4234  voter_maps[_messageID][voter] */\n      0xffffffffffffffffffffffffffffffffffffffff\n      and\n      0xffffffffffffffffffffffffffffffffffffffff\n      and\n      dup2\n      mstore\n      0x20\n      add\n      swap1\n      dup2\n      mstore\n      0x20\n      add\n      0x00\n      keccak256\n        /* \"contracts/BusinessConsensus3.sol\":4205:4238  voter_maps[_messageID][voter] = x */\n      0x00\n      dup3\n      add\n      mload\n      dup2\n      0x00\n      add\n      exp(0x0100, 0x00)\n      dup2\n      sload\n      dup2\n      0xff\n      mul\n      not\n      and\n      swap1\n      dup4\n      iszero\n      iszero\n      mul\n      or\n      swap1\n      sstore\n      pop\n      0x20\n      dup3\n      add\n      mload\n      dup2\n      0x00\n      add\n      exp(0x0100, 0x01)\n      dup2\n      sload\n      dup2\n      0xff\n      mul\n      not\n      and\n      swap1\n      dup4\n      iszero\n      iszero\n      mul\n      or\n      swap1\n      sstore\n      pop\n      0x40\n      dup3\n      add\n      mload\n      dup2\n      0x00\n      add\n      exp(0x0100, 0x02)\n      dup2\n      sload\n      dup2\n      0xffffffffffffffffffffffffffffffffffffffff\n      mul\n      not\n      and\n      swap1\n      dup4\n      0xffffffffffffffffffffffffffffffffffffffff\n      and\n      mul\n      or\n      swap1\n      sstore\n      pop\n      swap1\n      pop\n      pop\n        /* \"contracts/BusinessConsensus3.sol\":4249:4253  keys */\n      0x0e\n        /* \"contracts/BusinessConsensus3.sol\":4254:4264  _messageID */\n      dup4\n      dup4\n        /* \"contracts/BusinessConsensus3.sol\":4249:4265  keys[_messageID] */\n      mload(0x40)\n      tag_211\n      swap3\n      swap2\n      swap1\n      tag_144\n      jump\t// in\n    tag_211:\n      swap1\n      dup2\n      mstore\n      0x20\n      add\n      mload(0x40)\n      dup1\n      swap2\n      sub\n      swap1\n      keccak256\n        /* \"contracts/BusinessConsensus3.sol\":4271:4276  voter */\n      dup5\n        /* \"contracts/BusinessConsensus3.sol\":4249:4277  keys[_messageID].push(voter) */\n      swap1\n      dup1\n      0x01\n      dup2\n      sload\n      add\n      dup1\n      dup3\n      sstore\n      dup1\n      swap2\n      pop\n      pop\n      0x01\n      swap1\n      sub\n      swap1\n      0x00\n      mstore\n      keccak256(0x00, 0x20)\n      add\n      0x00\n      swap1\n      swap2\n      swap1\n      swap2\n      swap1\n      swap2\n      0x0100\n      exp\n      dup2\n      sload\n      dup2\n      0xffffffffffffffffffffffffffffffffffffffff\n      mul\n      not\n      and\n      swap1\n      dup4\n      0xffffffffffffffffffffffffffffffffffffffff\n      and\n      mul\n      or\n      swap1\n      sstore\n      pop\n        /* \"contracts/BusinessConsensus3.sol\":3613:4285  {\r... */\n      pop\n        /* \"contracts/BusinessConsensus3.sol\":3539:4285  function RegisterVoter(address voter,string calldata _messageID) external {\r... */\n      pop\n      pop\n      pop\n      jump\t// out\n        /* \"contracts/BusinessConsensus3.sol\":503:547  mapping(string => uint256) public voteCounts */\n    tag_72:\n      0x02\n      dup2\n      dup1\n      mload\n      0x20\n      dup2\n      add\n      dup3\n      add\n      dup1\n      mload\n      dup5\n      dup3\n      mstore\n      0x20\n      dup4\n      add\n      0x20\n      dup6\n      add\n      keccak256\n      dup2\n      dup4\n      mstore\n      dup1\n      swap6\n      pop\n      pop\n      pop\n      pop\n      pop\n      pop\n      0x00\n      swap2\n      pop\n      swap1\n      pop\n      sload\n      dup2\n      jump\t// out\n        /* \"contracts/BusinessConsensus3.sol\":608:653  mapping(string => uint256) public expiryDates */\n    tag_77:\n      0x04\n      dup2\n      dup1\n      mload\n      0x20\n      dup2\n      add\n      dup3\n      add\n      dup1\n      mload\n      dup5\n      dup3\n      mstore\n      0x20\n      dup4\n      add\n      0x20\n      dup6\n      add\n      keccak256\n      dup2\n      dup4\n      mstore\n      dup1\n      swap6\n      pop\n      pop\n      pop\n      pop\n      pop\n      pop\n      0x00\n      swap2\n      pop\n      swap1\n      pop\n      sload\n      dup2\n      jump\t// out\n        /* \"contracts/BusinessConsensus3.sol\":1183:2386  function createContract(string memory _messageID, uint256 expiry, uint256 requiredPercentage,bytes32 _contents,\r... */\n    tag_82:\n        /* \"contracts/BusinessConsensus3.sol\":1496:1497  0 */\n      0x00\n        /* \"contracts/BusinessConsensus3.sol\":1462:1498  initiators[_messageID] == address(0) */\n      0xffffffffffffffffffffffffffffffffffffffff\n      and\n        /* \"contracts/BusinessConsensus3.sol\":1462:1472  initiators */\n      0x00\n        /* \"contracts/BusinessConsensus3.sol\":1473:1483  _messageID */\n      dup8\n        /* \"contracts/BusinessConsensus3.sol\":1462:1484  initiators[_messageID] */\n      mload(0x40)\n      tag_214\n      swap2\n      swap1\n      tag_215\n      jump\t// in\n    tag_214:\n      swap1\n      dup2\n      mstore\n      0x20\n      add\n      mload(0x40)\n      dup1\n      swap2\n      sub\n      swap1\n      keccak256\n      0x00\n      swap1\n      sload\n      swap1\n      0x0100\n      exp\n      swap1\n      div\n      0xffffffffffffffffffffffffffffffffffffffff\n      and\n        /* \"contracts/BusinessConsensus3.sol\":1462:1498  initiators[_messageID] == address(0) */\n      0xffffffffffffffffffffffffffffffffffffffff\n      and\n      eq\n        /* \"contracts/BusinessConsensus3.sol\":1454:1527  require(initiators[_messageID] == address(0),\"Proposal already created!\") */\n      tag_216\n      jumpi\n      mload(0x40)\n      0x08c379a000000000000000000000000000000000000000000000000000000000\n      dup2\n      mstore\n      0x04\n      add\n      tag_217\n      swap1\n      tag_218\n      jump\t// in\n    tag_217:\n      mload(0x40)\n      dup1\n      swap2\n      sub\n      swap1\n      revert\n    tag_216:\n        /* \"contracts/BusinessConsensus3.sol\":1567:1568  0 */\n      0x00\n        /* \"contracts/BusinessConsensus3.sol\":1542:1552  voteCounts */\n      0x02\n        /* \"contracts/BusinessConsensus3.sol\":1553:1563  _messageID */\n      dup8\n        /* \"contracts/BusinessConsensus3.sol\":1542:1564  voteCounts[_messageID] */\n      mload(0x40)\n      tag_219\n      swap2\n      swap1\n      tag_215\n      jump\t// in\n    tag_219:\n      swap1\n      dup2\n      mstore\n      0x20\n      add\n      mload(0x40)\n      dup1\n      swap2\n      sub\n      swap1\n      keccak256\n        /* \"contracts/BusinessConsensus3.sol\":1542:1568  voteCounts[_messageID] = 0 */\n      dup2\n      swap1\n      sstore\n      pop\n        /* \"contracts/BusinessConsensus3.sol\":1628:1634  expiry */\n      dup5\n        /* \"contracts/BusinessConsensus3.sol\":1610:1625  block.timestamp */\n      timestamp\n        /* \"contracts/BusinessConsensus3.sol\":1610:1634  block.timestamp + expiry */\n      tag_220\n      swap2\n      swap1\n      tag_161\n      jump\t// in\n    tag_220:\n        /* \"contracts/BusinessConsensus3.sol\":1583:1594  expiryDates */\n      0x04\n        /* \"contracts/BusinessConsensus3.sol\":1595:1605  _messageID */\n      dup8\n        /* \"contracts/BusinessConsensus3.sol\":1583:1606  expiryDates[_messageID] */\n      mload(0x40)\n      tag_221\n      swap2\n      swap1\n      tag_215\n      jump\t// in\n    tag_221:\n      swap1\n      dup2\n      mstore\n      0x20\n      add\n      mload(0x40)\n      dup1\n      swap2\n      sub\n      swap1\n      keccak256\n        /* \"contracts/BusinessConsensus3.sol\":1583:1634  expiryDates[_messageID] =  block.timestamp + expiry */\n      dup2\n      swap1\n      sstore\n      pop\n        /* \"contracts/BusinessConsensus3.sol\":1664:1674  _messageID */\n      dup6\n        /* \"contracts/BusinessConsensus3.sol\":1649:1652  IDs */\n      0x01\n        /* \"contracts/BusinessConsensus3.sol\":1653:1660  subject */\n      dup4\n        /* \"contracts/BusinessConsensus3.sol\":1649:1661  IDs[subject] */\n      mload(0x40)\n      tag_222\n      swap2\n      swap1\n      tag_215\n      jump\t// in\n    tag_222:\n      swap1\n      dup2\n      mstore\n      0x20\n      add\n      mload(0x40)\n      dup1\n      swap2\n      sub\n      swap1\n      keccak256\n        /* \"contracts/BusinessConsensus3.sol\":1649:1674  IDs[subject] = _messageID */\n      swap1\n      dup1\n      mload\n      swap1\n      0x20\n      add\n      swap1\n      tag_223\n      swap3\n      swap2\n      swap1\n      tag_224\n      jump\t// in\n    tag_223:\n      pop\n        /* \"contracts/BusinessConsensus3.sol\":1714:1719  false */\n      0x00\n        /* \"contracts/BusinessConsensus3.sol\":1689:1699  isCompiled */\n      0x0a\n        /* \"contracts/BusinessConsensus3.sol\":1700:1710  _messageID */\n      dup8\n        /* \"contracts/BusinessConsensus3.sol\":1689:1711  isCompiled[_messageID] */\n      mload(0x40)\n      tag_225\n      swap2\n      swap1\n      tag_215\n      jump\t// in\n    tag_225:\n      swap1\n      dup2\n      mstore\n      0x20\n      add\n      mload(0x40)\n      dup1\n      swap2\n      sub\n      swap1\n      keccak256\n      0x00\n        /* \"contracts/BusinessConsensus3.sol\":1689:1719  isCompiled[_messageID] = false */\n      0x0100\n      exp\n      dup2\n      sload\n      dup2\n      0xff\n      mul\n      not\n      and\n      swap1\n      dup4\n      iszero\n      iszero\n      mul\n      or\n      swap1\n      sstore\n      pop\n        /* \"contracts/BusinessConsensus3.sol\":1769:1787  requiredPercentage */\n      dup4\n        /* \"contracts/BusinessConsensus3.sol\":1734:1754  businessRequirements */\n      0x07\n        /* \"contracts/BusinessConsensus3.sol\":1755:1765  _messageID */\n      dup8\n        /* \"contracts/BusinessConsensus3.sol\":1734:1766  businessRequirements[_messageID] */\n      mload(0x40)\n      tag_226\n      swap2\n      swap1\n      tag_215\n      jump\t// in\n    tag_226:\n      swap1\n      dup2\n      mstore\n      0x20\n      add\n      mload(0x40)\n      dup1\n      swap2\n      sub\n      swap1\n      keccak256\n        /* \"contracts/BusinessConsensus3.sol\":1734:1787  businessRequirements[_messageID] = requiredPercentage */\n      dup2\n      swap1\n      sstore\n      pop\n        /* \"contracts/BusinessConsensus3.sol\":1834:1852  requiredPercentage */\n      dup4\n        /* \"contracts/BusinessConsensus3.sol\":1802:1822  businessRequirements */\n      0x07\n        /* \"contracts/BusinessConsensus3.sol\":1823:1830  subject */\n      dup4\n        /* \"contracts/BusinessConsensus3.sol\":1802:1831  businessRequirements[subject] */\n      mload(0x40)\n      tag_227\n      swap2\n      swap1\n      tag_215\n      jump\t// in\n    tag_227:\n      swap1\n      dup2\n      mstore\n      0x20\n      add\n      mload(0x40)\n      dup1\n      swap2\n      sub\n      swap1\n      keccak256\n        /* \"contracts/BusinessConsensus3.sol\":1802:1852  businessRequirements[subject] = requiredPercentage */\n      dup2\n      swap1\n      sstore\n      pop\n        /* \"contracts/BusinessConsensus3.sol\":1895:1900  false */\n      0x00\n        /* \"contracts/BusinessConsensus3.sol\":1867:1880  finalVerdicts */\n      0x09\n        /* \"contracts/BusinessConsensus3.sol\":1881:1891  _messageID */\n      dup8\n        /* \"contracts/BusinessConsensus3.sol\":1867:1892  finalVerdicts[_messageID] */\n      mload(0x40)\n      tag_228\n      swap2\n      swap1\n      tag_215\n      jump\t// in\n    tag_228:\n      swap1\n      dup2\n      mstore\n      0x20\n      add\n      mload(0x40)\n      dup1\n      swap2\n      sub\n      swap1\n      keccak256\n      0x00\n        /* \"contracts/BusinessConsensus3.sol\":1867:1900  finalVerdicts[_messageID] = false */\n      0x0100\n      exp\n      dup2\n      sload\n      dup2\n      0xff\n      mul\n      not\n      and\n      swap1\n      dup4\n      iszero\n      iszero\n      mul\n      or\n      swap1\n      sstore\n      pop\n        /* \"contracts/BusinessConsensus3.sol\":1943:1949  expiry */\n      dup5\n        /* \"contracts/BusinessConsensus3.sol\":1915:1928  expiryLengths */\n      0x03\n        /* \"contracts/BusinessConsensus3.sol\":1929:1939  _messageID */\n      dup8\n        /* \"contracts/BusinessConsensus3.sol\":1915:1940  expiryLengths[_messageID] */\n      mload(0x40)\n      tag_229\n      swap2\n      swap1\n      tag_215\n      jump\t// in\n    tag_229:\n      swap1\n      dup2\n      mstore\n      0x20\n      add\n      mload(0x40)\n      dup1\n      swap2\n      sub\n      swap1\n      keccak256\n        /* \"contracts/BusinessConsensus3.sol\":1915:1949  expiryLengths[_messageID] = expiry */\n      dup2\n      swap1\n      sstore\n      pop\n        /* \"contracts/BusinessConsensus3.sol\":1989:1995  expiry */\n      dup5\n        /* \"contracts/BusinessConsensus3.sol\":1964:1977  expiryLengths */\n      0x03\n        /* \"contracts/BusinessConsensus3.sol\":1978:1985  subject */\n      dup4\n        /* \"contracts/BusinessConsensus3.sol\":1964:1986  expiryLengths[subject] */\n      mload(0x40)\n      tag_230\n      swap2\n      swap1\n      tag_215\n      jump\t// in\n    tag_230:\n      swap1\n      dup2\n      mstore\n      0x20\n      add\n      mload(0x40)\n      dup1\n      swap2\n      sub\n      swap1\n      keccak256\n        /* \"contracts/BusinessConsensus3.sol\":1964:1995  expiryLengths[subject] = expiry */\n      dup2\n      swap1\n      sstore\n      pop\n        /* \"contracts/BusinessConsensus3.sol\":2033:2042  _contents */\n      dup3\n        /* \"contracts/BusinessConsensus3.sol\":2010:2018  contents */\n      0x05\n        /* \"contracts/BusinessConsensus3.sol\":2019:2029  _messageID */\n      dup8\n        /* \"contracts/BusinessConsensus3.sol\":2010:2030  contents[_messageID] */\n      mload(0x40)\n      tag_231\n      swap2\n      swap1\n      tag_215\n      jump\t// in\n    tag_231:\n      swap1\n      dup2\n      mstore\n      0x20\n      add\n      mload(0x40)\n      dup1\n      swap2\n      sub\n      swap1\n      keccak256\n        /* \"contracts/BusinessConsensus3.sol\":2010:2042  contents[_messageID] = _contents */\n      dup2\n      swap1\n      sstore\n      pop\n        /* \"contracts/BusinessConsensus3.sol\":2077:2086  _contents */\n      dup3\n        /* \"contracts/BusinessConsensus3.sol\":2057:2065  contents */\n      0x05\n        /* \"contracts/BusinessConsensus3.sol\":2066:2073  subject */\n      dup4\n        /* \"contracts/BusinessConsensus3.sol\":2057:2074  contents[subject] */\n      mload(0x40)\n      tag_232\n      swap2\n      swap1\n      tag_215\n      jump\t// in\n    tag_232:\n      swap1\n      dup2\n      mstore\n      0x20\n      add\n      mload(0x40)\n      dup1\n      swap2\n      sub\n      swap1\n      keccak256\n        /* \"contracts/BusinessConsensus3.sol\":2057:2086  contents[subject] = _contents */\n      dup2\n      swap1\n      sstore\n      pop\n        /* \"contracts/BusinessConsensus3.sol\":2124:2131  subject */\n      dup2\n        /* \"contracts/BusinessConsensus3.sol\":2101:2109  subjects */\n      0x0b\n        /* \"contracts/BusinessConsensus3.sol\":2110:2120  _messageID */\n      dup8\n        /* \"contracts/BusinessConsensus3.sol\":2101:2121  subjects[_messageID] */\n      mload(0x40)\n      tag_233\n      swap2\n      swap1\n      tag_215\n      jump\t// in\n    tag_233:\n      swap1\n      dup2\n      mstore\n      0x20\n      add\n      mload(0x40)\n      dup1\n      swap2\n      sub\n      swap1\n      keccak256\n        /* \"contracts/BusinessConsensus3.sol\":2101:2131  subjects[_messageID] = subject */\n      swap1\n      dup1\n      mload\n      swap1\n      0x20\n      add\n      swap1\n      tag_234\n      swap3\n      swap2\n      swap1\n      tag_224\n      jump\t// in\n    tag_234:\n      pop\n        /* \"contracts/BusinessConsensus3.sol\":2173:2185  _messageDate */\n      dup1\n        /* \"contracts/BusinessConsensus3.sol\":2146:2158  messageDates */\n      0x08\n        /* \"contracts/BusinessConsensus3.sol\":2159:2169  _messageID */\n      dup8\n        /* \"contracts/BusinessConsensus3.sol\":2146:2170  messageDates[_messageID] */\n      mload(0x40)\n      tag_235\n      swap2\n      swap1\n      tag_215\n      jump\t// in\n    tag_235:\n      swap1\n      dup2\n      mstore\n      0x20\n      add\n      mload(0x40)\n      dup1\n      swap2\n      sub\n      swap1\n      keccak256\n        /* \"contracts/BusinessConsensus3.sol\":2146:2185  messageDates[_messageID] = _messageDate */\n      swap1\n      dup1\n      mload\n      swap1\n      0x20\n      add\n      swap1\n      tag_236\n      swap3\n      swap2\n      swap1\n      tag_224\n      jump\t// in\n    tag_236:\n      pop\n        /* \"contracts/BusinessConsensus3.sol\":2224:2236  _messageDate */\n      dup1\n        /* \"contracts/BusinessConsensus3.sol\":2200:2212  messageDates */\n      0x08\n        /* \"contracts/BusinessConsensus3.sol\":2213:2220  subject */\n      dup4\n        /* \"contracts/BusinessConsensus3.sol\":2200:2221  messageDates[subject] */\n      mload(0x40)\n      tag_237\n      swap2\n      swap1\n      tag_215\n      jump\t// in\n    tag_237:\n      swap1\n      dup2\n      mstore\n      0x20\n      add\n      mload(0x40)\n      dup1\n      swap2\n      sub\n      swap1\n      keccak256\n        /* \"contracts/BusinessConsensus3.sol\":2200:2236  messageDates[subject] = _messageDate */\n      swap1\n      dup1\n      mload\n      swap1\n      0x20\n      add\n      swap1\n      tag_238\n      swap3\n      swap2\n      swap1\n      tag_224\n      jump\t// in\n    tag_238:\n      pop\n        /* \"contracts/BusinessConsensus3.sol\":2278:2279  0 */\n      0x00\n        /* \"contracts/BusinessConsensus3.sol\":2251:2263  numApprovals */\n      0x06\n        /* \"contracts/BusinessConsensus3.sol\":2264:2274  _messageID */\n      dup8\n        /* \"contracts/BusinessConsensus3.sol\":2251:2275  numApprovals[_messageID] */\n      mload(0x40)\n      tag_239\n      swap2\n      swap1\n      tag_215\n      jump\t// in\n    tag_239:\n      swap1\n      dup2\n      mstore\n      0x20\n      add\n      mload(0x40)\n      dup1\n      swap2\n      sub\n      swap1\n      keccak256\n        /* \"contracts/BusinessConsensus3.sol\":2251:2279  numApprovals[_messageID] = 0 */\n      dup2\n      swap1\n      sstore\n      pop\n        /* \"contracts/BusinessConsensus3.sol\":2319:2329  msg.sender */\n      caller\n        /* \"contracts/BusinessConsensus3.sol\":2294:2304  initiators */\n      0x00\n        /* \"contracts/BusinessConsensus3.sol\":2305:2315  _messageID */\n      dup8\n        /* \"contracts/BusinessConsensus3.sol\":2294:2316  initiators[_messageID] */\n      mload(0x40)\n      tag_240\n      swap2\n      swap1\n      tag_215\n      jump\t// in\n    tag_240:\n      swap1\n      dup2\n      mstore\n      0x20\n      add\n      mload(0x40)\n      dup1\n      swap2\n      sub\n      swap1\n      keccak256\n      0x00\n        /* \"contracts/BusinessConsensus3.sol\":2294:2329  initiators[_messageID] = msg.sender */\n      0x0100\n      exp\n      dup2\n      sload\n      dup2\n      0xffffffffffffffffffffffffffffffffffffffff\n      mul\n      not\n      and\n      swap1\n      dup4\n      0xffffffffffffffffffffffffffffffffffffffff\n      and\n      mul\n      or\n      swap1\n      sstore\n      pop\n        /* \"contracts/BusinessConsensus3.sol\":2366:2376  msg.sender */\n      caller\n        /* \"contracts/BusinessConsensus3.sol\":2344:2354  initiators */\n      0x00\n        /* \"contracts/BusinessConsensus3.sol\":2355:2362  subject */\n      dup4\n        /* \"contracts/BusinessConsensus3.sol\":2344:2363  initiators[subject] */\n      mload(0x40)\n      tag_241\n      swap2\n      swap1\n      tag_215\n      jump\t// in\n    tag_241:\n      swap1\n      dup2\n      mstore\n      0x20\n      add\n      mload(0x40)\n      dup1\n      swap2\n      sub\n      swap1\n      keccak256\n      0x00\n        /* \"contracts/BusinessConsensus3.sol\":2344:2376  initiators[subject] = msg.sender */\n      0x0100\n      exp\n      dup2\n      sload\n      dup2\n      0xffffffffffffffffffffffffffffffffffffffff\n      mul\n      not\n      and\n      swap1\n      dup4\n      0xffffffffffffffffffffffffffffffffffffffff\n      and\n      mul\n      or\n      swap1\n      sstore\n      pop\n        /* \"contracts/BusinessConsensus3.sol\":1183:2386  function createContract(string memory _messageID, uint256 expiry, uint256 requiredPercentage,bytes32 _contents,\r... */\n      pop\n      pop\n      pop\n      pop\n      pop\n      pop\n      jump\t// out\n        /* \"contracts/BusinessConsensus3.sol\":5662:6603  function Consensus(string calldata _messageID) external {\r... */\n    tag_85:\n        /* \"contracts/BusinessConsensus3.sol\":5756:5767  expiryDates */\n      0x04\n        /* \"contracts/BusinessConsensus3.sol\":5768:5778  _messageID */\n      dup3\n      dup3\n        /* \"contracts/BusinessConsensus3.sol\":5756:5779  expiryDates[_messageID] */\n      mload(0x40)\n      tag_243\n      swap3\n      swap2\n      swap1\n      tag_144\n      jump\t// in\n    tag_243:\n      swap1\n      dup2\n      mstore\n      0x20\n      add\n      mload(0x40)\n      dup1\n      swap2\n      sub\n      swap1\n      keccak256\n      sload\n        /* \"contracts/BusinessConsensus3.sol\":5737:5752  block.timestamp */\n      timestamp\n        /* \"contracts/BusinessConsensus3.sol\":5737:5779  block.timestamp >= expiryDates[_messageID] */\n      lt\n      iszero\n        /* \"contracts/BusinessConsensus3.sol\":5729:5816  require(block.timestamp >= expiryDates[_messageID], \"Verdict has not been reached yet\") */\n      tag_244\n      jumpi\n      mload(0x40)\n      0x08c379a000000000000000000000000000000000000000000000000000000000\n      dup2\n      mstore\n      0x04\n      add\n      tag_245\n      swap1\n      tag_186\n      jump\t// in\n    tag_245:\n      mload(0x40)\n      dup1\n      swap2\n      sub\n      swap1\n      revert\n    tag_244:\n        /* \"contracts/BusinessConsensus3.sol\":5861:5866  false */\n      0x00\n        /* \"contracts/BusinessConsensus3.sol\":5835:5866  isCompiled[_messageID] == false */\n      iszero\n      iszero\n        /* \"contracts/BusinessConsensus3.sol\":5835:5845  isCompiled */\n      0x0a\n        /* \"contracts/BusinessConsensus3.sol\":5846:5856  _messageID */\n      dup4\n      dup4\n        /* \"contracts/BusinessConsensus3.sol\":5835:5857  isCompiled[_messageID] */\n      mload(0x40)\n      tag_246\n      swap3\n      swap2\n      swap1\n      tag_144\n      jump\t// in\n    tag_246:\n      swap1\n      dup2\n      mstore\n      0x20\n      add\n      mload(0x40)\n      dup1\n      swap2\n      sub\n      swap1\n      keccak256\n      0x00\n      swap1\n      sload\n      swap1\n      0x0100\n      exp\n      swap1\n      div\n      0xff\n      and\n        /* \"contracts/BusinessConsensus3.sol\":5835:5866  isCompiled[_messageID] == false */\n      iszero\n      iszero\n      eq\n        /* \"contracts/BusinessConsensus3.sol\":5827:5908  require(isCompiled[_messageID] == false, \"Consensus has already been calculated\") */\n      tag_247\n      jumpi\n      mload(0x40)\n      0x08c379a000000000000000000000000000000000000000000000000000000000\n      dup2\n      mstore\n      0x04\n      add\n      tag_248\n      swap1\n      tag_249\n      jump\t// in\n    tag_248:\n      mload(0x40)\n      dup1\n      swap2\n      sub\n      swap1\n      revert\n    tag_247:\n        /* \"contracts/BusinessConsensus3.sol\":5941:5951  initiators */\n      0x00\n        /* \"contracts/BusinessConsensus3.sol\":5952:5962  _messageID */\n      dup3\n      dup3\n        /* \"contracts/BusinessConsensus3.sol\":5941:5963  initiators[_messageID] */\n      mload(0x40)\n      tag_250\n      swap3\n      swap2\n      swap1\n      tag_144\n      jump\t// in\n    tag_250:\n      swap1\n      dup2\n      mstore\n      0x20\n      add\n      mload(0x40)\n      dup1\n      swap2\n      sub\n      swap1\n      keccak256\n      0x00\n      swap1\n      sload\n      swap1\n      0x0100\n      exp\n      swap1\n      div\n      0xffffffffffffffffffffffffffffffffffffffff\n      and\n        /* \"contracts/BusinessConsensus3.sol\":5927:5963  msg.sender == initiators[_messageID] */\n      0xffffffffffffffffffffffffffffffffffffffff\n      and\n        /* \"contracts/BusinessConsensus3.sol\":5927:5937  msg.sender */\n      caller\n        /* \"contracts/BusinessConsensus3.sol\":5927:5963  msg.sender == initiators[_messageID] */\n      0xffffffffffffffffffffffffffffffffffffffff\n      and\n      eq\n        /* \"contracts/BusinessConsensus3.sol\":5927:6027  msg.sender == initiators[_messageID] || voter_maps[_messageID][msg.sender].recipient != address(0x0) */\n      dup1\n      tag_251\n      jumpi\n      pop\n        /* \"contracts/BusinessConsensus3.sol\":6023:6026  0x0 */\n      0x00\n        /* \"contracts/BusinessConsensus3.sol\":5967:6027  voter_maps[_messageID][msg.sender].recipient != address(0x0) */\n      0xffffffffffffffffffffffffffffffffffffffff\n      and\n        /* \"contracts/BusinessConsensus3.sol\":5967:5977  voter_maps */\n      0x0c\n        /* \"contracts/BusinessConsensus3.sol\":5978:5988  _messageID */\n      dup4\n      dup4\n        /* \"contracts/BusinessConsensus3.sol\":5967:5989  voter_maps[_messageID] */\n      mload(0x40)\n      tag_252\n      swap3\n      swap2\n      swap1\n      tag_144\n      jump\t// in\n    tag_252:\n      swap1\n      dup2\n      mstore\n      0x20\n      add\n      mload(0x40)\n      dup1\n      swap2\n      sub\n      swap1\n      keccak256\n        /* \"contracts/BusinessConsensus3.sol\":5967:6001  voter_maps[_messageID][msg.sender] */\n      0x00\n        /* \"contracts/BusinessConsensus3.sol\":5990:6000  msg.sender */\n      caller\n        /* \"contracts/BusinessConsensus3.sol\":5967:6001  voter_maps[_messageID][msg.sender] */\n      0xffffffffffffffffffffffffffffffffffffffff\n      and\n      0xffffffffffffffffffffffffffffffffffffffff\n      and\n      dup2\n      mstore\n      0x20\n      add\n      swap1\n      dup2\n      mstore\n      0x20\n      add\n      0x00\n      keccak256\n        /* \"contracts/BusinessConsensus3.sol\":5967:6011  voter_maps[_messageID][msg.sender].recipient */\n      0x00\n      add\n      0x02\n      swap1\n      sload\n      swap1\n      0x0100\n      exp\n      swap1\n      div\n      0xffffffffffffffffffffffffffffffffffffffff\n      and\n        /* \"contracts/BusinessConsensus3.sol\":5967:6027  voter_maps[_messageID][msg.sender].recipient != address(0x0) */\n      0xffffffffffffffffffffffffffffffffffffffff\n      and\n      eq\n      iszero\n        /* \"contracts/BusinessConsensus3.sol\":5927:6027  msg.sender == initiators[_messageID] || voter_maps[_messageID][msg.sender].recipient != address(0x0) */\n    tag_251:\n        /* \"contracts/BusinessConsensus3.sol\":5919:6080  require(msg.sender == initiators[_messageID] || voter_maps[_messageID][msg.sender].recipient != address(0x0),\r... */\n      tag_253\n      jumpi\n      mload(0x40)\n      0x08c379a000000000000000000000000000000000000000000000000000000000\n      dup2\n      mstore\n      0x04\n      add\n      tag_254\n      swap1\n      tag_255\n      jump\t// in\n    tag_254:\n      mload(0x40)\n      dup1\n      swap2\n      sub\n      swap1\n      revert\n    tag_253:\n        /* \"contracts/BusinessConsensus3.sol\":6091:6120  uint256 AccumulatedPercentage */\n      0x00\n        /* \"contracts/BusinessConsensus3.sol\":6174:6177  100 */\n      0x64\n        /* \"contracts/BusinessConsensus3.sol\":6149:6153  keys */\n      0x0e\n        /* \"contracts/BusinessConsensus3.sol\":6154:6164  _messageID */\n      dup5\n      dup5\n        /* \"contracts/BusinessConsensus3.sol\":6149:6165  keys[_messageID] */\n      mload(0x40)\n      tag_256\n      swap3\n      swap2\n      swap1\n      tag_144\n      jump\t// in\n    tag_256:\n      swap1\n      dup2\n      mstore\n      0x20\n      add\n      mload(0x40)\n      dup1\n      swap2\n      sub\n      swap1\n      keccak256\n        /* \"contracts/BusinessConsensus3.sol\":6149:6172  keys[_messageID].length */\n      dup1\n      sload\n      swap1\n      pop\n        /* \"contracts/BusinessConsensus3.sol\":6124:6136  numApprovals */\n      0x06\n        /* \"contracts/BusinessConsensus3.sol\":6137:6147  _messageID */\n      dup6\n      dup6\n        /* \"contracts/BusinessConsensus3.sol\":6124:6148  numApprovals[_messageID] */\n      mload(0x40)\n      tag_257\n      swap3\n      swap2\n      swap1\n      tag_144\n      jump\t// in\n    tag_257:\n      swap1\n      dup2\n      mstore\n      0x20\n      add\n      mload(0x40)\n      dup1\n      swap2\n      sub\n      swap1\n      keccak256\n      sload\n        /* \"contracts/BusinessConsensus3.sol\":6124:6172  numApprovals[_messageID]/keys[_messageID].length */\n      tag_258\n      swap2\n      swap1\n      tag_259\n      jump\t// in\n    tag_258:\n        /* \"contracts/BusinessConsensus3.sol\":6123:6177  (numApprovals[_messageID]/keys[_messageID].length)*100 */\n      tag_260\n      swap2\n      swap1\n      tag_261\n      jump\t// in\n    tag_260:\n        /* \"contracts/BusinessConsensus3.sol\":6091:6177  uint256 AccumulatedPercentage = (numApprovals[_messageID]/keys[_messageID].length)*100 */\n      swap1\n      pop\n        /* \"contracts/BusinessConsensus3.sol\":6216:6236  businessRequirements */\n      0x07\n        /* \"contracts/BusinessConsensus3.sol\":6237:6247  _messageID */\n      dup4\n      dup4\n        /* \"contracts/BusinessConsensus3.sol\":6216:6248  businessRequirements[_messageID] */\n      mload(0x40)\n      tag_262\n      swap3\n      swap2\n      swap1\n      tag_144\n      jump\t// in\n    tag_262:\n      swap1\n      dup2\n      mstore\n      0x20\n      add\n      mload(0x40)\n      dup1\n      swap2\n      sub\n      swap1\n      keccak256\n      sload\n        /* \"contracts/BusinessConsensus3.sol\":6191:6212  AccumulatedPercentage */\n      dup2\n        /* \"contracts/BusinessConsensus3.sol\":6191:6248  AccumulatedPercentage >= businessRequirements[_messageID] */\n      lt\n        /* \"contracts/BusinessConsensus3.sol\":6188:6308  if(AccumulatedPercentage >= businessRequirements[_messageID]){\r... */\n      tag_263\n      jumpi\n        /* \"contracts/BusinessConsensus3.sol\":6292:6296  true */\n      0x01\n        /* \"contracts/BusinessConsensus3.sol\":6264:6277  finalVerdicts */\n      0x09\n        /* \"contracts/BusinessConsensus3.sol\":6278:6288  _messageID */\n      dup5\n      dup5\n        /* \"contracts/BusinessConsensus3.sol\":6264:6289  finalVerdicts[_messageID] */\n      mload(0x40)\n      tag_264\n      swap3\n      swap2\n      swap1\n      tag_144\n      jump\t// in\n    tag_264:\n      swap1\n      dup2\n      mstore\n      0x20\n      add\n      mload(0x40)\n      dup1\n      swap2\n      sub\n      swap1\n      keccak256\n      0x00\n        /* \"contracts/BusinessConsensus3.sol\":6264:6296  finalVerdicts[_messageID] = true */\n      0x0100\n      exp\n      dup2\n      sload\n      dup2\n      0xff\n      mul\n      not\n      and\n      swap1\n      dup4\n      iszero\n      iszero\n      mul\n      or\n      swap1\n      sstore\n      pop\n        /* \"contracts/BusinessConsensus3.sol\":6188:6308  if(AccumulatedPercentage >= businessRequirements[_messageID]){\r... */\n    tag_263:\n        /* \"contracts/BusinessConsensus3.sol\":6322:6329  uint8 i */\n      0x00\n        /* \"contracts/BusinessConsensus3.sol\":6318:6556  for(uint8 i=0; i< keys[_messageID].length; i++){\r... */\n    tag_265:\n        /* \"contracts/BusinessConsensus3.sol\":6336:6340  keys */\n      0x0e\n        /* \"contracts/BusinessConsensus3.sol\":6341:6351  _messageID */\n      dup5\n      dup5\n        /* \"contracts/BusinessConsensus3.sol\":6336:6352  keys[_messageID] */\n      mload(0x40)\n      tag_268\n      swap3\n      swap2\n      swap1\n      tag_144\n      jump\t// in\n    tag_268:\n      swap1\n      dup2\n      mstore\n      0x20\n      add\n      mload(0x40)\n      dup1\n      swap2\n      sub\n      swap1\n      keccak256\n        /* \"contracts/BusinessConsensus3.sol\":6336:6359  keys[_messageID].length */\n      dup1\n      sload\n      swap1\n      pop\n        /* \"contracts/BusinessConsensus3.sol\":6333:6334  i */\n      dup2\n        /* \"contracts/BusinessConsensus3.sol\":6333:6359  i< keys[_messageID].length */\n      0xff\n      and\n      lt\n        /* \"contracts/BusinessConsensus3.sol\":6318:6556  for(uint8 i=0; i< keys[_messageID].length; i++){\r... */\n      iszero\n      tag_266\n      jumpi\n        /* \"contracts/BusinessConsensus3.sol\":6436:6441  false */\n      0x00\n        /* \"contracts/BusinessConsensus3.sol\":6383:6441  voter_maps[_messageID][keys[_messageID][i]].voted == false */\n      iszero\n      iszero\n        /* \"contracts/BusinessConsensus3.sol\":6383:6393  voter_maps */\n      0x0c\n        /* \"contracts/BusinessConsensus3.sol\":6394:6404  _messageID */\n      dup6\n      dup6\n        /* \"contracts/BusinessConsensus3.sol\":6383:6405  voter_maps[_messageID] */\n      mload(0x40)\n      tag_269\n      swap3\n      swap2\n      swap1\n      tag_144\n      jump\t// in\n    tag_269:\n      swap1\n      dup2\n      mstore\n      0x20\n      add\n      mload(0x40)\n      dup1\n      swap2\n      sub\n      swap1\n      keccak256\n        /* \"contracts/BusinessConsensus3.sol\":6383:6426  voter_maps[_messageID][keys[_messageID][i]] */\n      0x00\n        /* \"contracts/BusinessConsensus3.sol\":6406:6410  keys */\n      0x0e\n        /* \"contracts/BusinessConsensus3.sol\":6411:6421  _messageID */\n      dup8\n      dup8\n        /* \"contracts/BusinessConsensus3.sol\":6406:6422  keys[_messageID] */\n      mload(0x40)\n      tag_270\n      swap3\n      swap2\n      swap1\n      tag_144\n      jump\t// in\n    tag_270:\n      swap1\n      dup2\n      mstore\n      0x20\n      add\n      mload(0x40)\n      dup1\n      swap2\n      sub\n      swap1\n      keccak256\n        /* \"contracts/BusinessConsensus3.sol\":6423:6424  i */\n      dup5\n        /* \"contracts/BusinessConsensus3.sol\":6406:6425  keys[_messageID][i] */\n      0xff\n      and\n      dup2\n      sload\n      dup2\n      lt\n      tag_271\n      jumpi\n      tag_272\n      tag_273\n      jump\t// in\n    tag_272:\n    tag_271:\n      swap1\n      0x00\n      mstore\n      keccak256(0x00, 0x20)\n      add\n      0x00\n      swap1\n      sload\n      swap1\n      0x0100\n      exp\n      swap1\n      div\n      0xffffffffffffffffffffffffffffffffffffffff\n      and\n        /* \"contracts/BusinessConsensus3.sol\":6383:6426  voter_maps[_messageID][keys[_messageID][i]] */\n      0xffffffffffffffffffffffffffffffffffffffff\n      and\n      0xffffffffffffffffffffffffffffffffffffffff\n      and\n      dup2\n      mstore\n      0x20\n      add\n      swap1\n      dup2\n      mstore\n      0x20\n      add\n      0x00\n      keccak256\n        /* \"contracts/BusinessConsensus3.sol\":6383:6432  voter_maps[_messageID][keys[_messageID][i]].voted */\n      0x00\n      add\n      0x00\n      swap1\n      sload\n      swap1\n      0x0100\n      exp\n      swap1\n      div\n      0xff\n      and\n        /* \"contracts/BusinessConsensus3.sol\":6383:6441  voter_maps[_messageID][keys[_messageID][i]].voted == false */\n      iszero\n      iszero\n      eq\n        /* \"contracts/BusinessConsensus3.sol\":6380:6545  if(voter_maps[_messageID][keys[_messageID][i]].voted == false){\r... */\n      iszero\n      tag_275\n      jumpi\n        /* \"contracts/BusinessConsensus3.sol\":6461:6467  Voters */\n      0x0d\n        /* \"contracts/BusinessConsensus3.sol\":6468:6478  _messageID */\n      dup5\n      dup5\n        /* \"contracts/BusinessConsensus3.sol\":6461:6479  Voters[_messageID] */\n      mload(0x40)\n      tag_276\n      swap3\n      swap2\n      swap1\n      tag_144\n      jump\t// in\n    tag_276:\n      swap1\n      dup2\n      mstore\n      0x20\n      add\n      mload(0x40)\n      dup1\n      swap2\n      sub\n      swap1\n      keccak256\n        /* \"contracts/BusinessConsensus3.sol\":6485:6495  voter_maps */\n      0x0c\n        /* \"contracts/BusinessConsensus3.sol\":6496:6506  _messageID */\n      dup6\n      dup6\n        /* \"contracts/BusinessConsensus3.sol\":6485:6507  voter_maps[_messageID] */\n      mload(0x40)\n      tag_277\n      swap3\n      swap2\n      swap1\n      tag_144\n      jump\t// in\n    tag_277:\n      swap1\n      dup2\n      mstore\n      0x20\n      add\n      mload(0x40)\n      dup1\n      swap2\n      sub\n      swap1\n      keccak256\n        /* \"contracts/BusinessConsensus3.sol\":6485:6528  voter_maps[_messageID][keys[_messageID][i]] */\n      0x00\n        /* \"contracts/BusinessConsensus3.sol\":6508:6512  keys */\n      0x0e\n        /* \"contracts/BusinessConsensus3.sol\":6513:6523  _messageID */\n      dup8\n      dup8\n        /* \"contracts/BusinessConsensus3.sol\":6508:6524  keys[_messageID] */\n      mload(0x40)\n      tag_278\n      swap3\n      swap2\n      swap1\n      tag_144\n      jump\t// in\n    tag_278:\n      swap1\n      dup2\n      mstore\n      0x20\n      add\n      mload(0x40)\n      dup1\n      swap2\n      sub\n      swap1\n      keccak256\n        /* \"contracts/BusinessConsensus3.sol\":6525:6526  i */\n      dup5\n        /* \"contracts/BusinessConsensus3.sol\":6508:6527  keys[_messageID][i] */\n      0xff\n      and\n      dup2\n      sload\n      dup2\n      lt\n      tag_279\n      jumpi\n      tag_280\n      tag_273\n      jump\t// in\n    tag_280:\n    tag_279:\n      swap1\n      0x00\n      mstore\n      keccak256(0x00, 0x20)\n      add\n      0x00\n      swap1\n      sload\n      swap1\n      0x0100\n      exp\n      swap1\n      div\n      0xffffffffffffffffffffffffffffffffffffffff\n      and\n        /* \"contracts/BusinessConsensus3.sol\":6485:6528  voter_maps[_messageID][keys[_messageID][i]] */\n      0xffffffffffffffffffffffffffffffffffffffff\n      and\n      0xffffffffffffffffffffffffffffffffffffffff\n      and\n      dup2\n      mstore\n      0x20\n      add\n      swap1\n      dup2\n      mstore\n      0x20\n      add\n      0x00\n      keccak256\n        /* \"contracts/BusinessConsensus3.sol\":6461:6529  Voters[_messageID].push(voter_maps[_messageID][keys[_messageID][i]]) */\n      swap1\n      dup1\n      0x01\n      dup2\n      sload\n      add\n      dup1\n      dup3\n      sstore\n      dup1\n      swap2\n      pop\n      pop\n      0x01\n      swap1\n      sub\n      swap1\n      0x00\n      mstore\n      keccak256(0x00, 0x20)\n      add\n      0x00\n      swap1\n      swap2\n      swap1\n      swap2\n      swap1\n      swap2\n      pop\n      0x00\n      dup3\n      add\n      0x00\n      swap1\n      sload\n      swap1\n      0x0100\n      exp\n      swap1\n      div\n      0xff\n      and\n      dup2\n      0x00\n      add\n      exp(0x0100, 0x00)\n      dup2\n      sload\n      dup2\n      0xff\n      mul\n      not\n      and\n      swap1\n      dup4\n      iszero\n      iszero\n      mul\n      or\n      swap1\n      sstore\n      pop\n      0x00\n      dup3\n      add\n      0x01\n      swap1\n      sload\n      swap1\n      0x0100\n      exp\n      swap1\n      div\n      0xff\n      and\n      dup2\n      0x00\n      add\n      exp(0x0100, 0x01)\n      dup2\n      sload\n      dup2\n      0xff\n      mul\n      not\n      and\n      swap1\n      dup4\n      iszero\n      iszero\n      mul\n      or\n      swap1\n      sstore\n      pop\n      0x00\n      dup3\n      add\n      0x02\n      swap1\n      sload\n      swap1\n      0x0100\n      exp\n      swap1\n      div\n      0xffffffffffffffffffffffffffffffffffffffff\n      and\n      dup2\n      0x00\n      add\n      exp(0x0100, 0x02)\n      dup2\n      sload\n      dup2\n      0xffffffffffffffffffffffffffffffffffffffff\n      mul\n      not\n      and\n      swap1\n      dup4\n      0xffffffffffffffffffffffffffffffffffffffff\n      and\n      mul\n      or\n      swap1\n      sstore\n      pop\n      pop\n      pop\n        /* \"contracts/BusinessConsensus3.sol\":6380:6545  if(voter_maps[_messageID][keys[_messageID][i]].voted == false){\r... */\n    tag_275:\n        /* \"contracts/BusinessConsensus3.sol\":6361:6364  i++ */\n      dup1\n      dup1\n      tag_283\n      swap1\n      tag_284\n      jump\t// in\n    tag_283:\n      swap2\n      pop\n      pop\n        /* \"contracts/BusinessConsensus3.sol\":6318:6556  for(uint8 i=0; i< keys[_messageID].length; i++){\r... */\n      jump(tag_265)\n    tag_266:\n      pop\n        /* \"contracts/BusinessConsensus3.sol\":6591:6595  true */\n      0x01\n        /* \"contracts/BusinessConsensus3.sol\":6566:6576  isCompiled */\n      0x0a\n        /* \"contracts/BusinessConsensus3.sol\":6577:6587  _messageID */\n      dup5\n      dup5\n        /* \"contracts/BusinessConsensus3.sol\":6566:6588  isCompiled[_messageID] */\n      mload(0x40)\n      tag_285\n      swap3\n      swap2\n      swap1\n      tag_144\n      jump\t// in\n    tag_285:\n      swap1\n      dup2\n      mstore\n      0x20\n      add\n      mload(0x40)\n      dup1\n      swap2\n      sub\n      swap1\n      keccak256\n      0x00\n        /* \"contracts/BusinessConsensus3.sol\":6566:6595  isCompiled[_messageID] = true */\n      0x0100\n      exp\n      dup2\n      sload\n      dup2\n      0xff\n      mul\n      not\n      and\n      swap1\n      dup4\n      iszero\n      iszero\n      mul\n      or\n      swap1\n      sstore\n      pop\n        /* \"contracts/BusinessConsensus3.sol\":5718:6603  {\r... */\n      pop\n        /* \"contracts/BusinessConsensus3.sol\":5662:6603  function Consensus(string calldata _messageID) external {\r... */\n      pop\n      pop\n      jump\t// out\n        /* \"contracts/BusinessConsensus3.sol\":823:868  mapping(string => string) public messageDates */\n    tag_88:\n      0x08\n      dup2\n      dup1\n      mload\n      0x20\n      dup2\n      add\n      dup3\n      add\n      dup1\n      mload\n      dup5\n      dup3\n      mstore\n      0x20\n      dup4\n      add\n      0x20\n      dup6\n      add\n      keccak256\n      dup2\n      dup4\n      mstore\n      dup1\n      swap6\n      pop\n      pop\n      pop\n      pop\n      pop\n      pop\n      0x00\n      swap2\n      pop\n      swap1\n      pop\n      dup1\n      sload\n      tag_286\n      swap1\n      tag_137\n      jump\t// in\n    tag_286:\n      dup1\n      0x1f\n      add\n      0x20\n      dup1\n      swap2\n      div\n      mul\n      0x20\n      add\n      mload(0x40)\n      swap1\n      dup2\n      add\n      0x40\n      mstore\n      dup1\n      swap3\n      swap2\n      swap1\n      dup2\n      dup2\n      mstore\n      0x20\n      add\n      dup3\n      dup1\n      sload\n      tag_287\n      swap1\n      tag_137\n      jump\t// in\n    tag_287:\n      dup1\n      iszero\n      tag_288\n      jumpi\n      dup1\n      0x1f\n      lt\n      tag_289\n      jumpi\n      0x0100\n      dup1\n      dup4\n      sload\n      div\n      mul\n      dup4\n      mstore\n      swap2\n      0x20\n      add\n      swap2\n      jump(tag_288)\n    tag_289:\n      dup3\n      add\n      swap2\n      swap1\n      0x00\n      mstore\n      keccak256(0x00, 0x20)\n      swap1\n    tag_290:\n      dup2\n      sload\n      dup2\n      mstore\n      swap1\n      0x01\n      add\n      swap1\n      0x20\n      add\n      dup1\n      dup4\n      gt\n      tag_290\n      jumpi\n      dup3\n      swap1\n      sub\n      0x1f\n      and\n      dup3\n      add\n      swap2\n    tag_288:\n      pop\n      pop\n      pop\n      pop\n      pop\n      dup2\n      jump\t// out\n        /* \"contracts/BusinessConsensus3.sol\":1087:1125  mapping(string=>Voter[]) public Voters */\n    tag_92:\n      0x0d\n      dup3\n      dup1\n      mload\n      0x20\n      dup2\n      add\n      dup3\n      add\n      dup1\n      mload\n      dup5\n      dup3\n      mstore\n      0x20\n      dup4\n      add\n      0x20\n      dup6\n      add\n      keccak256\n      dup2\n      dup4\n      mstore\n      dup1\n      swap6\n      pop\n      pop\n      pop\n      pop\n      pop\n      pop\n      dup2\n      dup2\n      sload\n      dup2\n      lt\n      tag_291\n      jumpi\n      0x00\n      dup1\n      revert\n    tag_291:\n      swap1\n      0x00\n      mstore\n      keccak256(0x00, 0x20)\n      add\n      0x00\n      swap2\n      pop\n      swap2\n      pop\n      pop\n      dup1\n      0x00\n      add\n      0x00\n      swap1\n      sload\n      swap1\n      0x0100\n      exp\n      swap1\n      div\n      0xff\n      and\n      swap1\n      dup1\n      0x00\n      add\n      0x01\n      swap1\n      sload\n      swap1\n      0x0100\n      exp\n      swap1\n      div\n      0xff\n      and\n      swap1\n      dup1\n      0x00\n      add\n      0x02\n      swap1\n      sload\n      swap1\n      0x0100\n      exp\n      swap1\n      div\n      0xffffffffffffffffffffffffffffffffffffffff\n      and\n      swap1\n      pop\n      dup4\n      jump\t// out\n        /* \"contracts/BusinessConsensus3.sol\":709:755  mapping(string => uint256) public numApprovals */\n    tag_96:\n      0x06\n      dup2\n      dup1\n      mload\n      0x20\n      dup2\n      add\n      dup3\n      add\n      dup1\n      mload\n      dup5\n      dup3\n      mstore\n      0x20\n      dup4\n      add\n      0x20\n      dup6\n      add\n      keccak256\n      dup2\n      dup4\n      mstore\n      dup1\n      swap6\n      pop\n      pop\n      pop\n      pop\n      pop\n      pop\n      0x00\n      swap2\n      pop\n      swap1\n      pop\n      sload\n      dup2\n      jump\t// out\n        /* \"contracts/BusinessConsensus3.sol\":2523:3269  function checkConsistency(string memory _subject, uint256 _businessRequirement, uint256 _expiryLength, bytes32 _contents) public view returns(bool, bool, bool){\r... */\n    tag_101:\n        /* \"contracts/BusinessConsensus3.sol\":2665:2669  bool */\n      0x00\n        /* \"contracts/BusinessConsensus3.sol\":2671:2675  bool */\n      dup1\n        /* \"contracts/BusinessConsensus3.sol\":2677:2681  bool */\n      0x00\n        /* \"contracts/BusinessConsensus3.sol\":2693:2704  bool value1 */\n      dup1\n        /* \"contracts/BusinessConsensus3.sol\":2707:2711  true */\n      0x01\n        /* \"contracts/BusinessConsensus3.sol\":2693:2711  bool value1 = true */\n      swap1\n      pop\n        /* \"contracts/BusinessConsensus3.sol\":2722:2733  bool value2 */\n      0x00\n        /* \"contracts/BusinessConsensus3.sol\":2736:2740  true */\n      0x01\n        /* \"contracts/BusinessConsensus3.sol\":2722:2740  bool value2 = true */\n      swap1\n      pop\n        /* \"contracts/BusinessConsensus3.sol\":2751:2762  bool value3 */\n      0x00\n        /* \"contracts/BusinessConsensus3.sol\":2765:2769  true */\n      0x01\n        /* \"contracts/BusinessConsensus3.sol\":2751:2769  bool value3 = true */\n      swap1\n      pop\n        /* \"contracts/BusinessConsensus3.sol\":2815:2816  0 */\n      0x00\n        /* \"contracts/BusinessConsensus3.sol\":2783:2817  initiators[_subject] == address(0) */\n      0xffffffffffffffffffffffffffffffffffffffff\n      and\n        /* \"contracts/BusinessConsensus3.sol\":2783:2793  initiators */\n      0x00\n        /* \"contracts/BusinessConsensus3.sol\":2794:2802  _subject */\n      dup12\n        /* \"contracts/BusinessConsensus3.sol\":2783:2803  initiators[_subject] */\n      mload(0x40)\n      tag_294\n      swap2\n      swap1\n      tag_215\n      jump\t// in\n    tag_294:\n      swap1\n      dup2\n      mstore\n      0x20\n      add\n      mload(0x40)\n      dup1\n      swap2\n      sub\n      swap1\n      keccak256\n      0x00\n      swap1\n      sload\n      swap1\n      0x0100\n      exp\n      swap1\n      div\n      0xffffffffffffffffffffffffffffffffffffffff\n      and\n        /* \"contracts/BusinessConsensus3.sol\":2783:2817  initiators[_subject] == address(0) */\n      0xffffffffffffffffffffffffffffffffffffffff\n      and\n      eq\n        /* \"contracts/BusinessConsensus3.sol\":2780:3262  if(initiators[_subject] == address(0)){\r... */\n      iszero\n      tag_295\n      jumpi\n        /* \"contracts/BusinessConsensus3.sol\":2841:2845  true */\n      0x01\n        /* \"contracts/BusinessConsensus3.sol\":2847:2851  true */\n      dup1\n        /* \"contracts/BusinessConsensus3.sol\":2853:2857  true */\n      0x01\n        /* \"contracts/BusinessConsensus3.sol\":2833:2858  return (true, true, true) */\n      swap6\n      pop\n      swap6\n      pop\n      swap6\n      pop\n      pop\n      pop\n      pop\n      jump(tag_293)\n        /* \"contracts/BusinessConsensus3.sol\":2780:3262  if(initiators[_subject] == address(0)){\r... */\n    tag_295:\n        /* \"contracts/BusinessConsensus3.sol\":2926:2946  businessRequirements */\n      0x07\n        /* \"contracts/BusinessConsensus3.sol\":2947:2955  _subject */\n      dup11\n        /* \"contracts/BusinessConsensus3.sol\":2926:2956  businessRequirements[_subject] */\n      mload(0x40)\n      tag_297\n      swap2\n      swap1\n      tag_215\n      jump\t// in\n    tag_297:\n      swap1\n      dup2\n      mstore\n      0x20\n      add\n      mload(0x40)\n      dup1\n      swap2\n      sub\n      swap1\n      keccak256\n      sload\n        /* \"contracts/BusinessConsensus3.sol\":2902:2922  _businessRequirement */\n      dup10\n        /* \"contracts/BusinessConsensus3.sol\":2902:2956  _businessRequirement != businessRequirements[_subject] */\n      eq\n        /* \"contracts/BusinessConsensus3.sol\":2899:3006  if(_businessRequirement != businessRequirements[_subject]){\r... */\n      tag_298\n      jumpi\n        /* \"contracts/BusinessConsensus3.sol\":2985:2990  false */\n      0x00\n        /* \"contracts/BusinessConsensus3.sol\":2976:2990  value1 = false */\n      swap3\n      pop\n        /* \"contracts/BusinessConsensus3.sol\":2899:3006  if(_businessRequirement != businessRequirements[_subject]){\r... */\n    tag_298:\n        /* \"contracts/BusinessConsensus3.sol\":3036:3044  contents */\n      0x05\n        /* \"contracts/BusinessConsensus3.sol\":3045:3053  _subject */\n      dup11\n        /* \"contracts/BusinessConsensus3.sol\":3036:3054  contents[_subject] */\n      mload(0x40)\n      tag_299\n      swap2\n      swap1\n      tag_215\n      jump\t// in\n    tag_299:\n      swap1\n      dup2\n      mstore\n      0x20\n      add\n      mload(0x40)\n      dup1\n      swap2\n      sub\n      swap1\n      keccak256\n      sload\n        /* \"contracts/BusinessConsensus3.sol\":3023:3032  _contents */\n      dup8\n        /* \"contracts/BusinessConsensus3.sol\":3023:3054  _contents != contents[_subject] */\n      eq\n        /* \"contracts/BusinessConsensus3.sol\":3020:3104  if(_contents != contents[_subject]){\r... */\n      tag_300\n      jumpi\n        /* \"contracts/BusinessConsensus3.sol\":3083:3088  false */\n      0x00\n        /* \"contracts/BusinessConsensus3.sol\":3074:3088  value2 = false */\n      swap2\n      pop\n        /* \"contracts/BusinessConsensus3.sol\":3020:3104  if(_contents != contents[_subject]){\r... */\n    tag_300:\n        /* \"contracts/BusinessConsensus3.sol\":3148:3161  _expiryLength */\n      dup8\n        /* \"contracts/BusinessConsensus3.sol\":3121:3134  expiryLengths */\n      0x03\n        /* \"contracts/BusinessConsensus3.sol\":3135:3143  _subject */\n      dup12\n        /* \"contracts/BusinessConsensus3.sol\":3121:3144  expiryLengths[_subject] */\n      mload(0x40)\n      tag_301\n      swap2\n      swap1\n      tag_215\n      jump\t// in\n    tag_301:\n      swap1\n      dup2\n      mstore\n      0x20\n      add\n      mload(0x40)\n      dup1\n      swap2\n      sub\n      swap1\n      keccak256\n      sload\n        /* \"contracts/BusinessConsensus3.sol\":3121:3161  expiryLengths[_subject] != _expiryLength */\n      eq\n        /* \"contracts/BusinessConsensus3.sol\":3118:3211  if(expiryLengths[_subject] != _expiryLength){\r... */\n      tag_302\n      jumpi\n        /* \"contracts/BusinessConsensus3.sol\":3190:3195  false */\n      0x00\n        /* \"contracts/BusinessConsensus3.sol\":3181:3195  value3 = false */\n      swap1\n      pop\n        /* \"contracts/BusinessConsensus3.sol\":3118:3211  if(expiryLengths[_subject] != _expiryLength){\r... */\n    tag_302:\n        /* \"contracts/BusinessConsensus3.sol\":3229:3235  value1 */\n      dup3\n        /* \"contracts/BusinessConsensus3.sol\":3236:3242  value2 */\n      dup3\n        /* \"contracts/BusinessConsensus3.sol\":3243:3249  value3 */\n      dup3\n        /* \"contracts/BusinessConsensus3.sol\":3221:3250  return (value1,value2,value3) */\n      swap6\n      pop\n      swap6\n      pop\n      swap6\n      pop\n      pop\n      pop\n      pop\n        /* \"contracts/BusinessConsensus3.sol\":2523:3269  function checkConsistency(string memory _subject, uint256 _businessRequirement, uint256 _expiryLength, bytes32 _contents) public view returns(bool, bool, bool){\r... */\n    tag_293:\n      swap5\n      pop\n      swap5\n      pop\n      swap5\n      swap2\n      pop\n      pop\n      jump\t// out\n        /* \"contracts/BusinessConsensus3.sol\":660:702  mapping(string => bytes32) public contents */\n    tag_106:\n      0x05\n      dup2\n      dup1\n      mload\n      0x20\n      dup2\n      add\n      dup3\n      add\n      dup1\n      mload\n      dup5\n      dup3\n      mstore\n      0x20\n      dup4\n      add\n      0x20\n      dup6\n      add\n      keccak256\n      dup2\n      dup4\n      mstore\n      dup1\n      swap6\n      pop\n      pop\n      pop\n      pop\n      pop\n      pop\n      0x00\n      swap2\n      pop\n      swap1\n      pop\n      sload\n      dup2\n      jump\t// out\n        /* \"contracts/BusinessConsensus3.sol\":554:601  mapping(string => uint256) public expiryLengths */\n    tag_111:\n      0x03\n      dup2\n      dup1\n      mload\n      0x20\n      dup2\n      add\n      dup3\n      add\n      dup1\n      mload\n      dup5\n      dup3\n      mstore\n      0x20\n      dup4\n      add\n      0x20\n      dup6\n      add\n      keccak256\n      dup2\n      dup4\n      mstore\n      dup1\n      swap6\n      pop\n      pop\n      pop\n      pop\n      pop\n      pop\n      0x00\n      swap2\n      pop\n      swap1\n      pop\n      sload\n      dup2\n      jump\t// out\n        /* \"contracts/BusinessConsensus3.sol\":762:816  mapping(string => uint256) public businessRequirements */\n    tag_115:\n      0x07\n      dup2\n      dup1\n      mload\n      0x20\n      dup2\n      add\n      dup3\n      add\n      dup1\n      mload\n      dup5\n      dup3\n      mstore\n      0x20\n      dup4\n      add\n      0x20\n      dup6\n      add\n      keccak256\n      dup2\n      dup4\n      mstore\n      dup1\n      swap6\n      pop\n      pop\n      pop\n      pop\n      pop\n      pop\n      0x00\n      swap2\n      pop\n      swap1\n      pop\n      sload\n      dup2\n      jump\t// out\n        /* \"contracts/BusinessConsensus3.sol\":3275:3433  function getIsCreated(string calldata subject) public view returns (string memory,string memory){\r... */\n    tag_119:\n        /* \"contracts/BusinessConsensus3.sol\":3343:3356  string memory */\n      0x60\n        /* \"contracts/BusinessConsensus3.sol\":3357:3370  string memory */\n      dup1\n        /* \"contracts/BusinessConsensus3.sol\":3390:3393  IDs */\n      0x01\n        /* \"contracts/BusinessConsensus3.sol\":3394:3401  subject */\n      dup5\n      dup5\n        /* \"contracts/BusinessConsensus3.sol\":3390:3402  IDs[subject] */\n      mload(0x40)\n      tag_304\n      swap3\n      swap2\n      swap1\n      tag_144\n      jump\t// in\n    tag_304:\n      swap1\n      dup2\n      mstore\n      0x20\n      add\n      mload(0x40)\n      dup1\n      swap2\n      sub\n      swap1\n      keccak256\n        /* \"contracts/BusinessConsensus3.sol\":3403:3415  messageDates */\n      0x08\n        /* \"contracts/BusinessConsensus3.sol\":3416:3423  subject */\n      dup6\n      dup6\n        /* \"contracts/BusinessConsensus3.sol\":3403:3424  messageDates[subject] */\n      mload(0x40)\n      tag_305\n      swap3\n      swap2\n      swap1\n      tag_144\n      jump\t// in\n    tag_305:\n      swap1\n      dup2\n      mstore\n      0x20\n      add\n      mload(0x40)\n      dup1\n      swap2\n      sub\n      swap1\n      keccak256\n        /* \"contracts/BusinessConsensus3.sol\":3382:3425  return (IDs[subject],messageDates[subject]) */\n      dup2\n      dup1\n      sload\n      tag_306\n      swap1\n      tag_137\n      jump\t// in\n    tag_306:\n      dup1\n      0x1f\n      add\n      0x20\n      dup1\n      swap2\n      div\n      mul\n      0x20\n      add\n      mload(0x40)\n      swap1\n      dup2\n      add\n      0x40\n      mstore\n      dup1\n      swap3\n      swap2\n      swap1\n      dup2\n      dup2\n      mstore\n      0x20\n      add\n      dup3\n      dup1\n      sload\n      tag_307\n      swap1\n      tag_137\n      jump\t// in\n    tag_307:\n      dup1\n      iszero\n      tag_308\n      jumpi\n      dup1\n      0x1f\n      lt\n      tag_309\n      jumpi\n      0x0100\n      dup1\n      dup4\n      sload\n      div\n      mul\n      dup4\n      mstore\n      swap2\n      0x20\n      add\n      swap2\n      jump(tag_308)\n    tag_309:\n      dup3\n      add\n      swap2\n      swap1\n      0x00\n      mstore\n      keccak256(0x00, 0x20)\n      swap1\n    tag_310:\n      dup2\n      sload\n      dup2\n      mstore\n      swap1\n      0x01\n      add\n      swap1\n      0x20\n      add\n      dup1\n      dup4\n      gt\n      tag_310\n      jumpi\n      dup3\n      swap1\n      sub\n      0x1f\n      and\n      dup3\n      add\n      swap2\n    tag_308:\n      pop\n      pop\n      pop\n      pop\n      pop\n      swap2\n      pop\n      dup1\n      dup1\n      sload\n      tag_311\n      swap1\n      tag_137\n      jump\t// in\n    tag_311:\n      dup1\n      0x1f\n      add\n      0x20\n      dup1\n      swap2\n      div\n      mul\n      0x20\n      add\n      mload(0x40)\n      swap1\n      dup2\n      add\n      0x40\n      mstore\n      dup1\n      swap3\n      swap2\n      swap1\n      dup2\n      dup2\n      mstore\n      0x20\n      add\n      dup3\n      dup1\n      sload\n      tag_312\n      swap1\n      tag_137\n      jump\t// in\n    tag_312:\n      dup1\n      iszero\n      tag_313\n      jumpi\n      dup1\n      0x1f\n      lt\n      tag_314\n      jumpi\n      0x0100\n      dup1\n      dup4\n      sload\n      div\n      mul\n      dup4\n      mstore\n      swap2\n      0x20\n      add\n      swap2\n      jump(tag_313)\n    tag_314:\n      dup3\n      add\n      swap2\n      swap1\n      0x00\n      mstore\n      keccak256(0x00, 0x20)\n      swap1\n    tag_315:\n      dup2\n      sload\n      dup2\n      mstore\n      swap1\n      0x01\n      add\n      swap1\n      0x20\n      add\n      dup1\n      dup4\n      gt\n      tag_315\n      jumpi\n      dup3\n      swap1\n      sub\n      0x1f\n      and\n      dup3\n      add\n      swap2\n    tag_313:\n      pop\n      pop\n      pop\n      pop\n      pop\n      swap1\n      pop\n      swap2\n      pop\n      swap2\n      pop\n        /* \"contracts/BusinessConsensus3.sol\":3275:3433  function getIsCreated(string calldata subject) public view returns (string memory,string memory){\r... */\n      swap3\n      pop\n      swap3\n      swap1\n      pop\n      jump\t// out\n        /* \"contracts/BusinessConsensus3.sol\":412:454  mapping(string=>address) public initiators */\n    tag_124:\n      0x00\n      dup2\n      dup1\n      mload\n      0x20\n      dup2\n      add\n      dup3\n      add\n      dup1\n      mload\n      dup5\n      dup3\n      mstore\n      0x20\n      dup4\n      add\n      0x20\n      dup6\n      add\n      keccak256\n      dup2\n      dup4\n      mstore\n      dup1\n      swap6\n      pop\n      pop\n      pop\n      pop\n      pop\n      pop\n      0x00\n      swap2\n      pop\n      sload\n      swap1\n      0x0100\n      exp\n      swap1\n      div\n      0xffffffffffffffffffffffffffffffffffffffff\n      and\n      dup2\n      jump\t// out\n        /* \"contracts/BusinessConsensus3.sol\":2392:2517  function getIsCompiled(string calldata _messageID) public view returns (bool){\r... */\n    tag_128:\n        /* \"contracts/BusinessConsensus3.sol\":2464:2468  bool */\n      0x00\n        /* \"contracts/BusinessConsensus3.sol\":2487:2497  isCompiled */\n      0x0a\n        /* \"contracts/BusinessConsensus3.sol\":2498:2508  _messageID */\n      dup4\n      dup4\n        /* \"contracts/BusinessConsensus3.sol\":2487:2509  isCompiled[_messageID] */\n      mload(0x40)\n      tag_317\n      swap3\n      swap2\n      swap1\n      tag_144\n      jump\t// in\n    tag_317:\n      swap1\n      dup2\n      mstore\n      0x20\n      add\n      mload(0x40)\n      dup1\n      swap2\n      sub\n      swap1\n      keccak256\n      0x00\n      swap1\n      sload\n      swap1\n      0x0100\n      exp\n      swap1\n      div\n      0xff\n      and\n        /* \"contracts/BusinessConsensus3.sol\":2480:2509  return isCompiled[_messageID] */\n      swap1\n      pop\n        /* \"contracts/BusinessConsensus3.sol\":2392:2517  function getIsCompiled(string calldata _messageID) public view returns (bool){\r... */\n      swap3\n      swap2\n      pop\n      pop\n      jump\t// out\n        /* \"contracts/BusinessConsensus3.sol\":974:1015  mapping(string => string) public subjects */\n    tag_132:\n      0x0b\n      dup2\n      dup1\n      mload\n      0x20\n      dup2\n      add\n      dup3\n      add\n      dup1\n      mload\n      dup5\n      dup3\n      mstore\n      0x20\n      dup4\n      add\n      0x20\n      dup6\n      add\n      keccak256\n      dup2\n      dup4\n      mstore\n      dup1\n      swap6\n      pop\n      pop\n      pop\n      pop\n      pop\n      pop\n      0x00\n      swap2\n      pop\n      swap1\n      pop\n      dup1\n      sload\n      tag_318\n      swap1\n      tag_137\n      jump\t// in\n    tag_318:\n      dup1\n      0x1f\n      add\n      0x20\n      dup1\n      swap2\n      div\n      mul\n      0x20\n      add\n      mload(0x40)\n      swap1\n      dup2\n      add\n      0x40\n      mstore\n      dup1\n      swap3\n      swap2\n      swap1\n      dup2\n      dup2\n      mstore\n      0x20\n      add\n      dup3\n      dup1\n      sload\n      tag_319\n      swap1\n      tag_137\n      jump\t// in\n    tag_319:\n      dup1\n      iszero\n      tag_320\n      jumpi\n      dup1\n      0x1f\n      lt\n      tag_321\n      jumpi\n      0x0100\n      dup1\n      dup4\n      sload\n      div\n      mul\n      dup4\n      mstore\n      swap2\n      0x20\n      add\n      swap2\n      jump(tag_320)\n    tag_321:\n      dup3\n      add\n      swap2\n      swap1\n      0x00\n      mstore\n      keccak256(0x00, 0x20)\n      swap1\n    tag_322:\n      dup2\n      sload\n      dup2\n      mstore\n      swap1\n      0x01\n      add\n      swap1\n      0x20\n      add\n      dup1\n      dup4\n      gt\n      tag_322\n      jumpi\n      dup3\n      swap1\n      sub\n      0x1f\n      and\n      dup3\n      add\n      swap2\n    tag_320:\n      pop\n      pop\n      pop\n      pop\n      pop\n      dup2\n      jump\t// out\n    tag_224:\n      dup3\n      dup1\n      sload\n      tag_323\n      swap1\n      tag_137\n      jump\t// in\n    tag_323:\n      swap1\n      0x00\n      mstore\n      keccak256(0x00, 0x20)\n      swap1\n      0x1f\n      add\n      0x20\n      swap1\n      div\n      dup2\n      add\n      swap3\n      dup3\n      tag_325\n      jumpi\n      0x00\n      dup6\n      sstore\n      jump(tag_324)\n    tag_325:\n      dup3\n      0x1f\n      lt\n      tag_326\n      jumpi\n      dup1\n      mload\n      not(0xff)\n      and\n      dup4\n      dup1\n      add\n      or\n      dup6\n      sstore\n      jump(tag_324)\n    tag_326:\n      dup3\n      dup1\n      add\n      0x01\n      add\n      dup6\n      sstore\n      dup3\n      iszero\n      tag_324\n      jumpi\n      swap2\n      dup3\n      add\n    tag_327:\n      dup3\n      dup2\n      gt\n      iszero\n      tag_328\n      jumpi\n      dup3\n      mload\n      dup3\n      sstore\n      swap2\n      0x20\n      add\n      swap2\n      swap1\n      0x01\n      add\n      swap1\n      jump(tag_327)\n    tag_328:\n    tag_324:\n      pop\n      swap1\n      pop\n      tag_329\n      swap2\n      swap1\n      tag_330\n      jump\t// in\n    tag_329:\n      pop\n      swap1\n      jump\t// out\n    tag_330:\n    tag_331:\n      dup1\n      dup3\n      gt\n      iszero\n      tag_332\n      jumpi\n      0x00\n      dup2\n      0x00\n      swap1\n      sstore\n      pop\n      0x01\n      add\n      jump(tag_331)\n    tag_332:\n      pop\n      swap1\n      jump\t// out\n        /* \"#utility.yul\":7:419   */\n    tag_334:\n        /* \"#utility.yul\":85:90   */\n      0x00\n        /* \"#utility.yul\":110:176   */\n      tag_336\n        /* \"#utility.yul\":126:175   */\n      tag_337\n        /* \"#utility.yul\":168:174   */\n      dup5\n        /* \"#utility.yul\":126:175   */\n      tag_338\n      jump\t// in\n    tag_337:\n        /* \"#utility.yul\":110:176   */\n      tag_339\n      jump\t// in\n    tag_336:\n        /* \"#utility.yul\":101:176   */\n      swap1\n      pop\n        /* \"#utility.yul\":199:205   */\n      dup3\n        /* \"#utility.yul\":192:197   */\n      dup2\n        /* \"#utility.yul\":185:206   */\n      mstore\n        /* \"#utility.yul\":237:241   */\n      0x20\n        /* \"#utility.yul\":230:235   */\n      dup2\n        /* \"#utility.yul\":226:242   */\n      add\n        /* \"#utility.yul\":275:278   */\n      dup5\n        /* \"#utility.yul\":266:272   */\n      dup5\n        /* \"#utility.yul\":261:264   */\n      dup5\n        /* \"#utility.yul\":257:273   */\n      add\n        /* \"#utility.yul\":254:279   */\n      gt\n        /* \"#utility.yul\":251:363   */\n      iszero\n      tag_340\n      jumpi\n        /* \"#utility.yul\":282:361   */\n      tag_341\n      tag_342\n      jump\t// in\n    tag_341:\n        /* \"#utility.yul\":251:363   */\n    tag_340:\n        /* \"#utility.yul\":372:413   */\n      tag_343\n        /* \"#utility.yul\":406:412   */\n      dup5\n        /* \"#utility.yul\":401:404   */\n      dup3\n        /* \"#utility.yul\":396:399   */\n      dup6\n        /* \"#utility.yul\":372:413   */\n      tag_344\n      jump\t// in\n    tag_343:\n        /* \"#utility.yul\":91:419   */\n      pop\n        /* \"#utility.yul\":7:419   */\n      swap4\n      swap3\n      pop\n      pop\n      pop\n      jump\t// out\n        /* \"#utility.yul\":425:564   */\n    tag_345:\n        /* \"#utility.yul\":471:476   */\n      0x00\n        /* \"#utility.yul\":509:515   */\n      dup2\n        /* \"#utility.yul\":496:516   */\n      calldataload\n        /* \"#utility.yul\":487:516   */\n      swap1\n      pop\n        /* \"#utility.yul\":525:558   */\n      tag_347\n        /* \"#utility.yul\":552:557   */\n      dup2\n        /* \"#utility.yul\":525:558   */\n      tag_348\n      jump\t// in\n    tag_347:\n        /* \"#utility.yul\":425:564   */\n      swap3\n      swap2\n      pop\n      pop\n      jump\t// out\n        /* \"#utility.yul\":570:709   */\n    tag_349:\n        /* \"#utility.yul\":616:621   */\n      0x00\n        /* \"#utility.yul\":654:660   */\n      dup2\n        /* \"#utility.yul\":641:661   */\n      calldataload\n        /* \"#utility.yul\":632:661   */\n      swap1\n      pop\n        /* \"#utility.yul\":670:703   */\n      tag_351\n        /* \"#utility.yul\":697:702   */\n      dup2\n        /* \"#utility.yul\":670:703   */\n      tag_352\n      jump\t// in\n    tag_351:\n        /* \"#utility.yul\":570:709   */\n      swap3\n      swap2\n      pop\n      pop\n      jump\t// out\n        /* \"#utility.yul\":729:1282   */\n    tag_353:\n        /* \"#utility.yul\":787:795   */\n      0x00\n        /* \"#utility.yul\":797:803   */\n      dup1\n        /* \"#utility.yul\":847:850   */\n      dup4\n        /* \"#utility.yul\":840:844   */\n      0x1f\n        /* \"#utility.yul\":832:838   */\n      dup5\n        /* \"#utility.yul\":828:845   */\n      add\n        /* \"#utility.yul\":824:851   */\n      slt\n        /* \"#utility.yul\":814:936   */\n      tag_355\n      jumpi\n        /* \"#utility.yul\":855:934   */\n      tag_356\n      tag_357\n      jump\t// in\n    tag_356:\n        /* \"#utility.yul\":814:936   */\n    tag_355:\n        /* \"#utility.yul\":968:974   */\n      dup3\n        /* \"#utility.yul\":955:975   */\n      calldataload\n        /* \"#utility.yul\":945:975   */\n      swap1\n      pop\n        /* \"#utility.yul\":998:1016   */\n      0xffffffffffffffff\n        /* \"#utility.yul\":990:996   */\n      dup2\n        /* \"#utility.yul\":987:1017   */\n      gt\n        /* \"#utility.yul\":984:1101   */\n      iszero\n      tag_358\n      jumpi\n        /* \"#utility.yul\":1020:1099   */\n      tag_359\n      tag_360\n      jump\t// in\n    tag_359:\n        /* \"#utility.yul\":984:1101   */\n    tag_358:\n        /* \"#utility.yul\":1134:1138   */\n      0x20\n        /* \"#utility.yul\":1126:1132   */\n      dup4\n        /* \"#utility.yul\":1122:1139   */\n      add\n        /* \"#utility.yul\":1110:1139   */\n      swap2\n      pop\n        /* \"#utility.yul\":1188:1191   */\n      dup4\n        /* \"#utility.yul\":1180:1184   */\n      0x01\n        /* \"#utility.yul\":1172:1178   */\n      dup3\n        /* \"#utility.yul\":1168:1185   */\n      mul\n        /* \"#utility.yul\":1158:1166   */\n      dup4\n        /* \"#utility.yul\":1154:1186   */\n      add\n        /* \"#utility.yul\":1151:1192   */\n      gt\n        /* \"#utility.yul\":1148:1276   */\n      iszero\n      tag_361\n      jumpi\n        /* \"#utility.yul\":1195:1274   */\n      tag_362\n      tag_363\n      jump\t// in\n    tag_362:\n        /* \"#utility.yul\":1148:1276   */\n    tag_361:\n        /* \"#utility.yul\":729:1282   */\n      swap3\n      pop\n      swap3\n      swap1\n      pop\n      jump\t// out\n        /* \"#utility.yul\":1302:1642   */\n    tag_364:\n        /* \"#utility.yul\":1358:1363   */\n      0x00\n        /* \"#utility.yul\":1407:1410   */\n      dup3\n        /* \"#utility.yul\":1400:1404   */\n      0x1f\n        /* \"#utility.yul\":1392:1398   */\n      dup4\n        /* \"#utility.yul\":1388:1405   */\n      add\n        /* \"#utility.yul\":1384:1411   */\n      slt\n        /* \"#utility.yul\":1374:1496   */\n      tag_366\n      jumpi\n        /* \"#utility.yul\":1415:1494   */\n      tag_367\n      tag_357\n      jump\t// in\n    tag_367:\n        /* \"#utility.yul\":1374:1496   */\n    tag_366:\n        /* \"#utility.yul\":1532:1538   */\n      dup2\n        /* \"#utility.yul\":1519:1539   */\n      calldataload\n        /* \"#utility.yul\":1557:1636   */\n      tag_368\n        /* \"#utility.yul\":1632:1635   */\n      dup5\n        /* \"#utility.yul\":1624:1630   */\n      dup3\n        /* \"#utility.yul\":1617:1621   */\n      0x20\n        /* \"#utility.yul\":1609:1615   */\n      dup7\n        /* \"#utility.yul\":1605:1622   */\n      add\n        /* \"#utility.yul\":1557:1636   */\n      tag_334\n      jump\t// in\n    tag_368:\n        /* \"#utility.yul\":1548:1636   */\n      swap2\n      pop\n        /* \"#utility.yul\":1364:1642   */\n      pop\n        /* \"#utility.yul\":1302:1642   */\n      swap3\n      swap2\n      pop\n      pop\n      jump\t// out\n        /* \"#utility.yul\":1648:1787   */\n    tag_369:\n        /* \"#utility.yul\":1694:1699   */\n      0x00\n        /* \"#utility.yul\":1732:1738   */\n      dup2\n        /* \"#utility.yul\":1719:1739   */\n      calldataload\n        /* \"#utility.yul\":1710:1739   */\n      swap1\n      pop\n        /* \"#utility.yul\":1748:1781   */\n      tag_371\n        /* \"#utility.yul\":1775:1780   */\n      dup2\n        /* \"#utility.yul\":1748:1781   */\n      tag_372\n      jump\t// in\n    tag_371:\n        /* \"#utility.yul\":1648:1787   */\n      swap3\n      swap2\n      pop\n      pop\n      jump\t// out\n        /* \"#utility.yul\":1793:2467   */\n    tag_68:\n        /* \"#utility.yul\":1873:1879   */\n      0x00\n        /* \"#utility.yul\":1881:1887   */\n      dup1\n        /* \"#utility.yul\":1889:1895   */\n      0x00\n        /* \"#utility.yul\":1938:1940   */\n      0x40\n        /* \"#utility.yul\":1926:1935   */\n      dup5\n        /* \"#utility.yul\":1917:1924   */\n      dup7\n        /* \"#utility.yul\":1913:1936   */\n      sub\n        /* \"#utility.yul\":1909:1941   */\n      slt\n        /* \"#utility.yul\":1906:2025   */\n      iszero\n      tag_374\n      jumpi\n        /* \"#utility.yul\":1944:2023   */\n      tag_375\n      tag_376\n      jump\t// in\n    tag_375:\n        /* \"#utility.yul\":1906:2025   */\n    tag_374:\n        /* \"#utility.yul\":2064:2065   */\n      0x00\n        /* \"#utility.yul\":2089:2142   */\n      tag_377\n        /* \"#utility.yul\":2134:2141   */\n      dup7\n        /* \"#utility.yul\":2125:2131   */\n      dup3\n        /* \"#utility.yul\":2114:2123   */\n      dup8\n        /* \"#utility.yul\":2110:2132   */\n      add\n        /* \"#utility.yul\":2089:2142   */\n      tag_345\n      jump\t// in\n    tag_377:\n        /* \"#utility.yul\":2079:2142   */\n      swap4\n      pop\n        /* \"#utility.yul\":2035:2152   */\n      pop\n        /* \"#utility.yul\":2219:2221   */\n      0x20\n        /* \"#utility.yul\":2208:2217   */\n      dup5\n        /* \"#utility.yul\":2204:2222   */\n      add\n        /* \"#utility.yul\":2191:2223   */\n      calldataload\n        /* \"#utility.yul\":2250:2268   */\n      0xffffffffffffffff\n        /* \"#utility.yul\":2242:2248   */\n      dup2\n        /* \"#utility.yul\":2239:2269   */\n      gt\n        /* \"#utility.yul\":2236:2353   */\n      iszero\n      tag_378\n      jumpi\n        /* \"#utility.yul\":2272:2351   */\n      tag_379\n      tag_380\n      jump\t// in\n    tag_379:\n        /* \"#utility.yul\":2236:2353   */\n    tag_378:\n        /* \"#utility.yul\":2385:2450   */\n      tag_381\n        /* \"#utility.yul\":2442:2449   */\n      dup7\n        /* \"#utility.yul\":2433:2439   */\n      dup3\n        /* \"#utility.yul\":2422:2431   */\n      dup8\n        /* \"#utility.yul\":2418:2440   */\n      add\n        /* \"#utility.yul\":2385:2450   */\n      tag_353\n      jump\t// in\n    tag_381:\n        /* \"#utility.yul\":2367:2450   */\n      swap3\n      pop\n      swap3\n      pop\n        /* \"#utility.yul\":2162:2460   */\n      pop\n        /* \"#utility.yul\":1793:2467   */\n      swap3\n      pop\n      swap3\n      pop\n      swap3\n      jump\t// out\n        /* \"#utility.yul\":2473:3002   */\n    tag_62:\n        /* \"#utility.yul\":2544:2550   */\n      0x00\n        /* \"#utility.yul\":2552:2558   */\n      dup1\n        /* \"#utility.yul\":2601:2603   */\n      0x20\n        /* \"#utility.yul\":2589:2598   */\n      dup4\n        /* \"#utility.yul\":2580:2587   */\n      dup6\n        /* \"#utility.yul\":2576:2599   */\n      sub\n        /* \"#utility.yul\":2572:2604   */\n      slt\n        /* \"#utility.yul\":2569:2688   */\n      iszero\n      tag_383\n      jumpi\n        /* \"#utility.yul\":2607:2686   */\n      tag_384\n      tag_376\n      jump\t// in\n    tag_384:\n        /* \"#utility.yul\":2569:2688   */\n    tag_383:\n        /* \"#utility.yul\":2755:2756   */\n      0x00\n        /* \"#utility.yul\":2744:2753   */\n      dup4\n        /* \"#utility.yul\":2740:2757   */\n      add\n        /* \"#utility.yul\":2727:2758   */\n      calldataload\n        /* \"#utility.yul\":2785:2803   */\n      0xffffffffffffffff\n        /* \"#utility.yul\":2777:2783   */\n      dup2\n        /* \"#utility.yul\":2774:2804   */\n      gt\n        /* \"#utility.yul\":2771:2888   */\n      iszero\n      tag_385\n      jumpi\n        /* \"#utility.yul\":2807:2886   */\n      tag_386\n      tag_380\n      jump\t// in\n    tag_386:\n        /* \"#utility.yul\":2771:2888   */\n    tag_385:\n        /* \"#utility.yul\":2920:2985   */\n      tag_387\n        /* \"#utility.yul\":2977:2984   */\n      dup6\n        /* \"#utility.yul\":2968:2974   */\n      dup3\n        /* \"#utility.yul\":2957:2966   */\n      dup7\n        /* \"#utility.yul\":2953:2975   */\n      add\n        /* \"#utility.yul\":2920:2985   */\n      tag_353\n      jump\t// in\n    tag_387:\n        /* \"#utility.yul\":2902:2985   */\n      swap3\n      pop\n      swap3\n      pop\n        /* \"#utility.yul\":2698:2995   */\n      pop\n        /* \"#utility.yul\":2473:3002   */\n      swap3\n      pop\n      swap3\n      swap1\n      pop\n      jump\t// out\n        /* \"#utility.yul\":3008:3517   */\n    tag_37:\n        /* \"#utility.yul\":3077:3083   */\n      0x00\n        /* \"#utility.yul\":3126:3128   */\n      0x20\n        /* \"#utility.yul\":3114:3123   */\n      dup3\n        /* \"#utility.yul\":3105:3112   */\n      dup5\n        /* \"#utility.yul\":3101:3124   */\n      sub\n        /* \"#utility.yul\":3097:3129   */\n      slt\n        /* \"#utility.yul\":3094:3213   */\n      iszero\n      tag_389\n      jumpi\n        /* \"#utility.yul\":3132:3211   */\n      tag_390\n      tag_376\n      jump\t// in\n    tag_390:\n        /* \"#utility.yul\":3094:3213   */\n    tag_389:\n        /* \"#utility.yul\":3280:3281   */\n      0x00\n        /* \"#utility.yul\":3269:3278   */\n      dup3\n        /* \"#utility.yul\":3265:3282   */\n      add\n        /* \"#utility.yul\":3252:3283   */\n      calldataload\n        /* \"#utility.yul\":3310:3328   */\n      0xffffffffffffffff\n        /* \"#utility.yul\":3302:3308   */\n      dup2\n        /* \"#utility.yul\":3299:3329   */\n      gt\n        /* \"#utility.yul\":3296:3413   */\n      iszero\n      tag_391\n      jumpi\n        /* \"#utility.yul\":3332:3411   */\n      tag_392\n      tag_380\n      jump\t// in\n    tag_392:\n        /* \"#utility.yul\":3296:3413   */\n    tag_391:\n        /* \"#utility.yul\":3437:3500   */\n      tag_393\n        /* \"#utility.yul\":3492:3499   */\n      dup5\n        /* \"#utility.yul\":3483:3489   */\n      dup3\n        /* \"#utility.yul\":3472:3481   */\n      dup6\n        /* \"#utility.yul\":3468:3490   */\n      add\n        /* \"#utility.yul\":3437:3500   */\n      tag_364\n      jump\t// in\n    tag_393:\n        /* \"#utility.yul\":3427:3500   */\n      swap2\n      pop\n        /* \"#utility.yul\":3223:3510   */\n      pop\n        /* \"#utility.yul\":3008:3517   */\n      swap3\n      swap2\n      pop\n      pop\n      jump\t// out\n        /* \"#utility.yul\":3523:4177   */\n    tag_56:\n        /* \"#utility.yul\":3601:3607   */\n      0x00\n        /* \"#utility.yul\":3609:3615   */\n      dup1\n        /* \"#utility.yul\":3658:3660   */\n      0x40\n        /* \"#utility.yul\":3646:3655   */\n      dup4\n        /* \"#utility.yul\":3637:3644   */\n      dup6\n        /* \"#utility.yul\":3633:3656   */\n      sub\n        /* \"#utility.yul\":3629:3661   */\n      slt\n        /* \"#utility.yul\":3626:3745   */\n      iszero\n      tag_395\n      jumpi\n        /* \"#utility.yul\":3664:3743   */\n      tag_396\n      tag_376\n      jump\t// in\n    tag_396:\n        /* \"#utility.yul\":3626:3745   */\n    tag_395:\n        /* \"#utility.yul\":3812:3813   */\n      0x00\n        /* \"#utility.yul\":3801:3810   */\n      dup4\n        /* \"#utility.yul\":3797:3814   */\n      add\n        /* \"#utility.yul\":3784:3815   */\n      calldataload\n        /* \"#utility.yul\":3842:3860   */\n      0xffffffffffffffff\n        /* \"#utility.yul\":3834:3840   */\n      dup2\n        /* \"#utility.yul\":3831:3861   */\n      gt\n        /* \"#utility.yul\":3828:3945   */\n      iszero\n      tag_397\n      jumpi\n        /* \"#utility.yul\":3864:3943   */\n      tag_398\n      tag_380\n      jump\t// in\n    tag_398:\n        /* \"#utility.yul\":3828:3945   */\n    tag_397:\n        /* \"#utility.yul\":3969:4032   */\n      tag_399\n        /* \"#utility.yul\":4024:4031   */\n      dup6\n        /* \"#utility.yul\":4015:4021   */\n      dup3\n        /* \"#utility.yul\":4004:4013   */\n      dup7\n        /* \"#utility.yul\":4000:4022   */\n      add\n        /* \"#utility.yul\":3969:4032   */\n      tag_364\n      jump\t// in\n    tag_399:\n        /* \"#utility.yul\":3959:4032   */\n      swap3\n      pop\n        /* \"#utility.yul\":3755:4042   */\n      pop\n        /* \"#utility.yul\":4081:4083   */\n      0x20\n        /* \"#utility.yul\":4107:4160   */\n      tag_400\n        /* \"#utility.yul\":4152:4159   */\n      dup6\n        /* \"#utility.yul\":4143:4149   */\n      dup3\n        /* \"#utility.yul\":4132:4141   */\n      dup7\n        /* \"#utility.yul\":4128:4150   */\n      add\n        /* \"#utility.yul\":4107:4160   */\n      tag_345\n      jump\t// in\n    tag_400:\n        /* \"#utility.yul\":4097:4160   */\n      swap2\n      pop\n        /* \"#utility.yul\":4052:4170   */\n      pop\n        /* \"#utility.yul\":3523:4177   */\n      swap3\n      pop\n      swap3\n      swap1\n      pop\n      jump\t// out\n        /* \"#utility.yul\":4183:5037   */\n    tag_43:\n        /* \"#utility.yul\":4273:4279   */\n      0x00\n        /* \"#utility.yul\":4281:4287   */\n      dup1\n        /* \"#utility.yul\":4289:4295   */\n      0x00\n        /* \"#utility.yul\":4338:4340   */\n      0x40\n        /* \"#utility.yul\":4326:4335   */\n      dup5\n        /* \"#utility.yul\":4317:4324   */\n      dup7\n        /* \"#utility.yul\":4313:4336   */\n      sub\n        /* \"#utility.yul\":4309:4341   */\n      slt\n        /* \"#utility.yul\":4306:4425   */\n      iszero\n      tag_402\n      jumpi\n        /* \"#utility.yul\":4344:4423   */\n      tag_403\n      tag_376\n      jump\t// in\n    tag_403:\n        /* \"#utility.yul\":4306:4425   */\n    tag_402:\n        /* \"#utility.yul\":4492:4493   */\n      0x00\n        /* \"#utility.yul\":4481:4490   */\n      dup5\n        /* \"#utility.yul\":4477:4494   */\n      add\n        /* \"#utility.yul\":4464:4495   */\n      calldataload\n        /* \"#utility.yul\":4522:4540   */\n      0xffffffffffffffff\n        /* \"#utility.yul\":4514:4520   */\n      dup2\n        /* \"#utility.yul\":4511:4541   */\n      gt\n        /* \"#utility.yul\":4508:4625   */\n      iszero\n      tag_404\n      jumpi\n        /* \"#utility.yul\":4544:4623   */\n      tag_405\n      tag_380\n      jump\t// in\n    tag_405:\n        /* \"#utility.yul\":4508:4625   */\n    tag_404:\n        /* \"#utility.yul\":4649:4712   */\n      tag_406\n        /* \"#utility.yul\":4704:4711   */\n      dup7\n        /* \"#utility.yul\":4695:4701   */\n      dup3\n        /* \"#utility.yul\":4684:4693   */\n      dup8\n        /* \"#utility.yul\":4680:4702   */\n      add\n        /* \"#utility.yul\":4649:4712   */\n      tag_364\n      jump\t// in\n    tag_406:\n        /* \"#utility.yul\":4639:4712   */\n      swap4\n      pop\n        /* \"#utility.yul\":4435:4722   */\n      pop\n        /* \"#utility.yul\":4789:4791   */\n      0x20\n        /* \"#utility.yul\":4778:4787   */\n      dup5\n        /* \"#utility.yul\":4774:4792   */\n      add\n        /* \"#utility.yul\":4761:4793   */\n      calldataload\n        /* \"#utility.yul\":4820:4838   */\n      0xffffffffffffffff\n        /* \"#utility.yul\":4812:4818   */\n      dup2\n        /* \"#utility.yul\":4809:4839   */\n      gt\n        /* \"#utility.yul\":4806:4923   */\n      iszero\n      tag_407\n      jumpi\n        /* \"#utility.yul\":4842:4921   */\n      tag_408\n      tag_380\n      jump\t// in\n    tag_408:\n        /* \"#utility.yul\":4806:4923   */\n    tag_407:\n        /* \"#utility.yul\":4955:5020   */\n      tag_409\n        /* \"#utility.yul\":5012:5019   */\n      dup7\n        /* \"#utility.yul\":5003:5009   */\n      dup3\n        /* \"#utility.yul\":4992:5001   */\n      dup8\n        /* \"#utility.yul\":4988:5010   */\n      add\n        /* \"#utility.yul\":4955:5020   */\n      tag_353\n      jump\t// in\n    tag_409:\n        /* \"#utility.yul\":4937:5020   */\n      swap3\n      pop\n      swap3\n      pop\n        /* \"#utility.yul\":4732:5030   */\n      pop\n        /* \"#utility.yul\":4183:5037   */\n      swap3\n      pop\n      swap3\n      pop\n      swap3\n      jump\t// out\n        /* \"#utility.yul\":5043:5697   */\n    tag_31:\n        /* \"#utility.yul\":5121:5127   */\n      0x00\n        /* \"#utility.yul\":5129:5135   */\n      dup1\n        /* \"#utility.yul\":5178:5180   */\n      0x40\n        /* \"#utility.yul\":5166:5175   */\n      dup4\n        /* \"#utility.yul\":5157:5164   */\n      dup6\n        /* \"#utility.yul\":5153:5176   */\n      sub\n        /* \"#utility.yul\":5149:5181   */\n      slt\n        /* \"#utility.yul\":5146:5265   */\n      iszero\n      tag_411\n      jumpi\n        /* \"#utility.yul\":5184:5263   */\n      tag_412\n      tag_376\n      jump\t// in\n    tag_412:\n        /* \"#utility.yul\":5146:5265   */\n    tag_411:\n        /* \"#utility.yul\":5332:5333   */\n      0x00\n        /* \"#utility.yul\":5321:5330   */\n      dup4\n        /* \"#utility.yul\":5317:5334   */\n      add\n        /* \"#utility.yul\":5304:5335   */\n      calldataload\n        /* \"#utility.yul\":5362:5380   */\n      0xffffffffffffffff\n        /* \"#utility.yul\":5354:5360   */\n      dup2\n        /* \"#utility.yul\":5351:5381   */\n      gt\n        /* \"#utility.yul\":5348:5465   */\n      iszero\n      tag_413\n      jumpi\n        /* \"#utility.yul\":5384:5463   */\n      tag_414\n      tag_380\n      jump\t// in\n    tag_414:\n        /* \"#utility.yul\":5348:5465   */\n    tag_413:\n        /* \"#utility.yul\":5489:5552   */\n      tag_415\n        /* \"#utility.yul\":5544:5551   */\n      dup6\n        /* \"#utility.yul\":5535:5541   */\n      dup3\n        /* \"#utility.yul\":5524:5533   */\n      dup7\n        /* \"#utility.yul\":5520:5542   */\n      add\n        /* \"#utility.yul\":5489:5552   */\n      tag_364\n      jump\t// in\n    tag_415:\n        /* \"#utility.yul\":5479:5552   */\n      swap3\n      pop\n        /* \"#utility.yul\":5275:5562   */\n      pop\n        /* \"#utility.yul\":5601:5603   */\n      0x20\n        /* \"#utility.yul\":5627:5680   */\n      tag_416\n        /* \"#utility.yul\":5672:5679   */\n      dup6\n        /* \"#utility.yul\":5663:5669   */\n      dup3\n        /* \"#utility.yul\":5652:5661   */\n      dup7\n        /* \"#utility.yul\":5648:5670   */\n      add\n        /* \"#utility.yul\":5627:5680   */\n      tag_369\n      jump\t// in\n    tag_416:\n        /* \"#utility.yul\":5617:5680   */\n      swap2\n      pop\n        /* \"#utility.yul\":5572:5690   */\n      pop\n        /* \"#utility.yul\":5043:5697   */\n      swap3\n      pop\n      swap3\n      swap1\n      pop\n      jump\t// out\n        /* \"#utility.yul\":5703:6648   */\n    tag_100:\n        /* \"#utility.yul\":5799:5805   */\n      0x00\n        /* \"#utility.yul\":5807:5813   */\n      dup1\n        /* \"#utility.yul\":5815:5821   */\n      0x00\n        /* \"#utility.yul\":5823:5829   */\n      dup1\n        /* \"#utility.yul\":5872:5875   */\n      0x80\n        /* \"#utility.yul\":5860:5869   */\n      dup6\n        /* \"#utility.yul\":5851:5858   */\n      dup8\n        /* \"#utility.yul\":5847:5870   */\n      sub\n        /* \"#utility.yul\":5843:5876   */\n      slt\n        /* \"#utility.yul\":5840:5960   */\n      iszero\n      tag_418\n      jumpi\n        /* \"#utility.yul\":5879:5958   */\n      tag_419\n      tag_376\n      jump\t// in\n    tag_419:\n        /* \"#utility.yul\":5840:5960   */\n    tag_418:\n        /* \"#utility.yul\":6027:6028   */\n      0x00\n        /* \"#utility.yul\":6016:6025   */\n      dup6\n        /* \"#utility.yul\":6012:6029   */\n      add\n        /* \"#utility.yul\":5999:6030   */\n      calldataload\n        /* \"#utility.yul\":6057:6075   */\n      0xffffffffffffffff\n        /* \"#utility.yul\":6049:6055   */\n      dup2\n        /* \"#utility.yul\":6046:6076   */\n      gt\n        /* \"#utility.yul\":6043:6160   */\n      iszero\n      tag_420\n      jumpi\n        /* \"#utility.yul\":6079:6158   */\n      tag_421\n      tag_380\n      jump\t// in\n    tag_421:\n        /* \"#utility.yul\":6043:6160   */\n    tag_420:\n        /* \"#utility.yul\":6184:6247   */\n      tag_422\n        /* \"#utility.yul\":6239:6246   */\n      dup8\n        /* \"#utility.yul\":6230:6236   */\n      dup3\n        /* \"#utility.yul\":6219:6228   */\n      dup9\n        /* \"#utility.yul\":6215:6237   */\n      add\n        /* \"#utility.yul\":6184:6247   */\n      tag_364\n      jump\t// in\n    tag_422:\n        /* \"#utility.yul\":6174:6247   */\n      swap5\n      pop\n        /* \"#utility.yul\":5970:6257   */\n      pop\n        /* \"#utility.yul\":6296:6298   */\n      0x20\n        /* \"#utility.yul\":6322:6375   */\n      tag_423\n        /* \"#utility.yul\":6367:6374   */\n      dup8\n        /* \"#utility.yul\":6358:6364   */\n      dup3\n        /* \"#utility.yul\":6347:6356   */\n      dup9\n        /* \"#utility.yul\":6343:6365   */\n      add\n        /* \"#utility.yul\":6322:6375   */\n      tag_369\n      jump\t// in\n    tag_423:\n        /* \"#utility.yul\":6312:6375   */\n      swap4\n      pop\n        /* \"#utility.yul\":6267:6385   */\n      pop\n        /* \"#utility.yul\":6424:6426   */\n      0x40\n        /* \"#utility.yul\":6450:6503   */\n      tag_424\n        /* \"#utility.yul\":6495:6502   */\n      dup8\n        /* \"#utility.yul\":6486:6492   */\n      dup3\n        /* \"#utility.yul\":6475:6484   */\n      dup9\n        /* \"#utility.yul\":6471:6493   */\n      add\n        /* \"#utility.yul\":6450:6503   */\n      tag_369\n      jump\t// in\n    tag_424:\n        /* \"#utility.yul\":6440:6503   */\n      swap3\n      pop\n        /* \"#utility.yul\":6395:6513   */\n      pop\n        /* \"#utility.yul\":6552:6554   */\n      0x60\n        /* \"#utility.yul\":6578:6631   */\n      tag_425\n        /* \"#utility.yul\":6623:6630   */\n      dup8\n        /* \"#utility.yul\":6614:6620   */\n      dup3\n        /* \"#utility.yul\":6603:6612   */\n      dup9\n        /* \"#utility.yul\":6599:6621   */\n      add\n        /* \"#utility.yul\":6578:6631   */\n      tag_349\n      jump\t// in\n    tag_425:\n        /* \"#utility.yul\":6568:6631   */\n      swap2\n      pop\n        /* \"#utility.yul\":6523:6641   */\n      pop\n        /* \"#utility.yul\":5703:6648   */\n      swap3\n      swap6\n      swap2\n      swap5\n      pop\n      swap3\n      pop\n      jump\t// out\n        /* \"#utility.yul\":6654:8251   */\n    tag_81:\n        /* \"#utility.yul\":6788:6794   */\n      0x00\n        /* \"#utility.yul\":6796:6802   */\n      dup1\n        /* \"#utility.yul\":6804:6810   */\n      0x00\n        /* \"#utility.yul\":6812:6818   */\n      dup1\n        /* \"#utility.yul\":6820:6826   */\n      0x00\n        /* \"#utility.yul\":6828:6834   */\n      dup1\n        /* \"#utility.yul\":6877:6880   */\n      0xc0\n        /* \"#utility.yul\":6865:6874   */\n      dup8\n        /* \"#utility.yul\":6856:6863   */\n      dup10\n        /* \"#utility.yul\":6852:6875   */\n      sub\n        /* \"#utility.yul\":6848:6881   */\n      slt\n        /* \"#utility.yul\":6845:6965   */\n      iszero\n      tag_427\n      jumpi\n        /* \"#utility.yul\":6884:6963   */\n      tag_428\n      tag_376\n      jump\t// in\n    tag_428:\n        /* \"#utility.yul\":6845:6965   */\n    tag_427:\n        /* \"#utility.yul\":7032:7033   */\n      0x00\n        /* \"#utility.yul\":7021:7030   */\n      dup8\n        /* \"#utility.yul\":7017:7034   */\n      add\n        /* \"#utility.yul\":7004:7035   */\n      calldataload\n        /* \"#utility.yul\":7062:7080   */\n      0xffffffffffffffff\n        /* \"#utility.yul\":7054:7060   */\n      dup2\n        /* \"#utility.yul\":7051:7081   */\n      gt\n        /* \"#utility.yul\":7048:7165   */\n      iszero\n      tag_429\n      jumpi\n        /* \"#utility.yul\":7084:7163   */\n      tag_430\n      tag_380\n      jump\t// in\n    tag_430:\n        /* \"#utility.yul\":7048:7165   */\n    tag_429:\n        /* \"#utility.yul\":7189:7252   */\n      tag_431\n        /* \"#utility.yul\":7244:7251   */\n      dup10\n        /* \"#utility.yul\":7235:7241   */\n      dup3\n        /* \"#utility.yul\":7224:7233   */\n      dup11\n        /* \"#utility.yul\":7220:7242   */\n      add\n        /* \"#utility.yul\":7189:7252   */\n      tag_364\n      jump\t// in\n    tag_431:\n        /* \"#utility.yul\":7179:7252   */\n      swap7\n      pop\n        /* \"#utility.yul\":6975:7262   */\n      pop\n        /* \"#utility.yul\":7301:7303   */\n      0x20\n        /* \"#utility.yul\":7327:7380   */\n      tag_432\n        /* \"#utility.yul\":7372:7379   */\n      dup10\n        /* \"#utility.yul\":7363:7369   */\n      dup3\n        /* \"#utility.yul\":7352:7361   */\n      dup11\n        /* \"#utility.yul\":7348:7370   */\n      add\n        /* \"#utility.yul\":7327:7380   */\n      tag_369\n      jump\t// in\n    tag_432:\n        /* \"#utility.yul\":7317:7380   */\n      swap6\n      pop\n        /* \"#utility.yul\":7272:7390   */\n      pop\n        /* \"#utility.yul\":7429:7431   */\n      0x40\n        /* \"#utility.yul\":7455:7508   */\n      tag_433\n        /* \"#utility.yul\":7500:7507   */\n      dup10\n        /* \"#utility.yul\":7491:7497   */\n      dup3\n        /* \"#utility.yul\":7480:7489   */\n      dup11\n        /* \"#utility.yul\":7476:7498   */\n      add\n        /* \"#utility.yul\":7455:7508   */\n      tag_369\n      jump\t// in\n    tag_433:\n        /* \"#utility.yul\":7445:7508   */\n      swap5\n      pop\n        /* \"#utility.yul\":7400:7518   */\n      pop\n        /* \"#utility.yul\":7557:7559   */\n      0x60\n        /* \"#utility.yul\":7583:7636   */\n      tag_434\n        /* \"#utility.yul\":7628:7635   */\n      dup10\n        /* \"#utility.yul\":7619:7625   */\n      dup3\n        /* \"#utility.yul\":7608:7617   */\n      dup11\n        /* \"#utility.yul\":7604:7626   */\n      add\n        /* \"#utility.yul\":7583:7636   */\n      tag_349\n      jump\t// in\n    tag_434:\n        /* \"#utility.yul\":7573:7636   */\n      swap4\n      pop\n        /* \"#utility.yul\":7528:7646   */\n      pop\n        /* \"#utility.yul\":7713:7716   */\n      0x80\n        /* \"#utility.yul\":7702:7711   */\n      dup8\n        /* \"#utility.yul\":7698:7717   */\n      add\n        /* \"#utility.yul\":7685:7718   */\n      calldataload\n        /* \"#utility.yul\":7745:7763   */\n      0xffffffffffffffff\n        /* \"#utility.yul\":7737:7743   */\n      dup2\n        /* \"#utility.yul\":7734:7764   */\n      gt\n        /* \"#utility.yul\":7731:7848   */\n      iszero\n      tag_435\n      jumpi\n        /* \"#utility.yul\":7767:7846   */\n      tag_436\n      tag_380\n      jump\t// in\n    tag_436:\n        /* \"#utility.yul\":7731:7848   */\n    tag_435:\n        /* \"#utility.yul\":7872:7935   */\n      tag_437\n        /* \"#utility.yul\":7927:7934   */\n      dup10\n        /* \"#utility.yul\":7918:7924   */\n      dup3\n        /* \"#utility.yul\":7907:7916   */\n      dup11\n        /* \"#utility.yul\":7903:7925   */\n      add\n        /* \"#utility.yul\":7872:7935   */\n      tag_364\n      jump\t// in\n    tag_437:\n        /* \"#utility.yul\":7862:7935   */\n      swap3\n      pop\n        /* \"#utility.yul\":7656:7945   */\n      pop\n        /* \"#utility.yul\":8012:8015   */\n      0xa0\n        /* \"#utility.yul\":8001:8010   */\n      dup8\n        /* \"#utility.yul\":7997:8016   */\n      add\n        /* \"#utility.yul\":7984:8017   */\n      calldataload\n        /* \"#utility.yul\":8044:8062   */\n      0xffffffffffffffff\n        /* \"#utility.yul\":8036:8042   */\n      dup2\n        /* \"#utility.yul\":8033:8063   */\n      gt\n        /* \"#utility.yul\":8030:8147   */\n      iszero\n      tag_438\n      jumpi\n        /* \"#utility.yul\":8066:8145   */\n      tag_439\n      tag_380\n      jump\t// in\n    tag_439:\n        /* \"#utility.yul\":8030:8147   */\n    tag_438:\n        /* \"#utility.yul\":8171:8234   */\n      tag_440\n        /* \"#utility.yul\":8226:8233   */\n      dup10\n        /* \"#utility.yul\":8217:8223   */\n      dup3\n        /* \"#utility.yul\":8206:8215   */\n      dup11\n        /* \"#utility.yul\":8202:8224   */\n      add\n        /* \"#utility.yul\":8171:8234   */\n      tag_364\n      jump\t// in\n    tag_440:\n        /* \"#utility.yul\":8161:8234   */\n      swap2\n      pop\n        /* \"#utility.yul\":7955:8244   */\n      pop\n        /* \"#utility.yul\":6654:8251   */\n      swap3\n      swap6\n      pop\n      swap3\n      swap6\n      pop\n      swap3\n      swap6\n      jump\t// out\n        /* \"#utility.yul\":8257:8516   */\n    tag_441:\n        /* \"#utility.yul\":8366:8376   */\n      0x00\n        /* \"#utility.yul\":8387:8473   */\n      tag_443\n        /* \"#utility.yul\":8469:8472   */\n      dup4\n        /* \"#utility.yul\":8461:8467   */\n      dup4\n        /* \"#utility.yul\":8387:8473   */\n      tag_444\n      jump\t// in\n    tag_443:\n        /* \"#utility.yul\":8505:8509   */\n      0x60\n        /* \"#utility.yul\":8500:8503   */\n      dup4\n        /* \"#utility.yul\":8496:8510   */\n      add\n        /* \"#utility.yul\":8482:8510   */\n      swap1\n      pop\n        /* \"#utility.yul\":8257:8516   */\n      swap3\n      swap2\n      pop\n      pop\n      jump\t// out\n        /* \"#utility.yul\":8522:8630   */\n    tag_445:\n        /* \"#utility.yul\":8599:8623   */\n      tag_447\n        /* \"#utility.yul\":8617:8622   */\n      dup2\n        /* \"#utility.yul\":8599:8623   */\n      tag_448\n      jump\t// in\n    tag_447:\n        /* \"#utility.yul\":8594:8597   */\n      dup3\n        /* \"#utility.yul\":8587:8624   */\n      mstore\n        /* \"#utility.yul\":8522:8630   */\n      pop\n      pop\n      jump\t// out\n        /* \"#utility.yul\":8636:8754   */\n    tag_449:\n        /* \"#utility.yul\":8723:8747   */\n      tag_451\n        /* \"#utility.yul\":8741:8746   */\n      dup2\n        /* \"#utility.yul\":8723:8747   */\n      tag_448\n      jump\t// in\n    tag_451:\n        /* \"#utility.yul\":8718:8721   */\n      dup3\n        /* \"#utility.yul\":8711:8748   */\n      mstore\n        /* \"#utility.yul\":8636:8754   */\n      pop\n      pop\n      jump\t// out\n        /* \"#utility.yul\":8838:9730   */\n    tag_452:\n        /* \"#utility.yul\":8997:9000   */\n      0x00\n        /* \"#utility.yul\":9026:9100   */\n      tag_454\n        /* \"#utility.yul\":9094:9099   */\n      dup3\n        /* \"#utility.yul\":9026:9100   */\n      tag_455\n      jump\t// in\n    tag_454:\n        /* \"#utility.yul\":9116:9222   */\n      tag_456\n        /* \"#utility.yul\":9215:9221   */\n      dup2\n        /* \"#utility.yul\":9210:9213   */\n      dup6\n        /* \"#utility.yul\":9116:9222   */\n      tag_457\n      jump\t// in\n    tag_456:\n        /* \"#utility.yul\":9109:9222   */\n      swap4\n      pop\n        /* \"#utility.yul\":9246:9322   */\n      tag_458\n        /* \"#utility.yul\":9316:9321   */\n      dup4\n        /* \"#utility.yul\":9246:9322   */\n      tag_459\n      jump\t// in\n    tag_458:\n        /* \"#utility.yul\":9345:9352   */\n      dup1\n        /* \"#utility.yul\":9376:9377   */\n      0x00\n        /* \"#utility.yul\":9361:9705   */\n    tag_460:\n        /* \"#utility.yul\":9386:9392   */\n      dup4\n        /* \"#utility.yul\":9383:9384   */\n      dup2\n        /* \"#utility.yul\":9380:9393   */\n      lt\n        /* \"#utility.yul\":9361:9705   */\n      iszero\n      tag_462\n      jumpi\n        /* \"#utility.yul\":9462:9468   */\n      dup2\n        /* \"#utility.yul\":9456:9469   */\n      mload\n        /* \"#utility.yul\":9489:9592   */\n      tag_463\n        /* \"#utility.yul\":9588:9591   */\n      dup9\n        /* \"#utility.yul\":9573:9586   */\n      dup3\n        /* \"#utility.yul\":9489:9592   */\n      tag_441\n      jump\t// in\n    tag_463:\n        /* \"#utility.yul\":9482:9592   */\n      swap8\n      pop\n        /* \"#utility.yul\":9615:9695   */\n      tag_464\n        /* \"#utility.yul\":9688:9694   */\n      dup4\n        /* \"#utility.yul\":9615:9695   */\n      tag_465\n      jump\t// in\n    tag_464:\n        /* \"#utility.yul\":9605:9695   */\n      swap3\n      pop\n        /* \"#utility.yul\":9421:9705   */\n      pop\n        /* \"#utility.yul\":9408:9409   */\n      0x01\n        /* \"#utility.yul\":9405:9406   */\n      dup2\n        /* \"#utility.yul\":9401:9410   */\n      add\n        /* \"#utility.yul\":9396:9410   */\n      swap1\n      pop\n        /* \"#utility.yul\":9361:9705   */\n      jump(tag_460)\n    tag_462:\n        /* \"#utility.yul\":9365:9379   */\n      pop\n        /* \"#utility.yul\":9721:9724   */\n      dup6\n        /* \"#utility.yul\":9714:9724   */\n      swap4\n      pop\n        /* \"#utility.yul\":9002:9730   */\n      pop\n      pop\n      pop\n        /* \"#utility.yul\":8838:9730   */\n      swap3\n      swap2\n      pop\n      pop\n      jump\t// out\n        /* \"#utility.yul\":9736:9835   */\n    tag_466:\n        /* \"#utility.yul\":9807:9828   */\n      tag_468\n        /* \"#utility.yul\":9822:9827   */\n      dup2\n        /* \"#utility.yul\":9807:9828   */\n      tag_469\n      jump\t// in\n    tag_468:\n        /* \"#utility.yul\":9802:9805   */\n      dup3\n        /* \"#utility.yul\":9795:9829   */\n      mstore\n        /* \"#utility.yul\":9736:9835   */\n      pop\n      pop\n      jump\t// out\n        /* \"#utility.yul\":9841:9950   */\n    tag_470:\n        /* \"#utility.yul\":9922:9943   */\n      tag_472\n        /* \"#utility.yul\":9937:9942   */\n      dup2\n        /* \"#utility.yul\":9922:9943   */\n      tag_469\n      jump\t// in\n    tag_472:\n        /* \"#utility.yul\":9917:9920   */\n      dup3\n        /* \"#utility.yul\":9910:9944   */\n      mstore\n        /* \"#utility.yul\":9841:9950   */\n      pop\n      pop\n      jump\t// out\n        /* \"#utility.yul\":9956:10074   */\n    tag_473:\n        /* \"#utility.yul\":10043:10067   */\n      tag_475\n        /* \"#utility.yul\":10061:10066   */\n      dup2\n        /* \"#utility.yul\":10043:10067   */\n      tag_476\n      jump\t// in\n    tag_475:\n        /* \"#utility.yul\":10038:10041   */\n      dup3\n        /* \"#utility.yul\":10031:10068   */\n      mstore\n        /* \"#utility.yul\":9956:10074   */\n      pop\n      pop\n      jump\t// out\n        /* \"#utility.yul\":10104:10421   */\n    tag_477:\n        /* \"#utility.yul\":10220:10223   */\n      0x00\n        /* \"#utility.yul\":10241:10330   */\n      tag_479\n        /* \"#utility.yul\":10323:10329   */\n      dup4\n        /* \"#utility.yul\":10318:10321   */\n      dup6\n        /* \"#utility.yul\":10241:10330   */\n      tag_480\n      jump\t// in\n    tag_479:\n        /* \"#utility.yul\":10234:10330   */\n      swap4\n      pop\n        /* \"#utility.yul\":10340:10383   */\n      tag_481\n        /* \"#utility.yul\":10376:10382   */\n      dup4\n        /* \"#utility.yul\":10371:10374   */\n      dup6\n        /* \"#utility.yul\":10364:10369   */\n      dup5\n        /* \"#utility.yul\":10340:10383   */\n      tag_344\n      jump\t// in\n    tag_481:\n        /* \"#utility.yul\":10408:10414   */\n      dup3\n        /* \"#utility.yul\":10403:10406   */\n      dup5\n        /* \"#utility.yul\":10399:10415   */\n      add\n        /* \"#utility.yul\":10392:10415   */\n      swap1\n      pop\n        /* \"#utility.yul\":10104:10421   */\n      swap4\n      swap3\n      pop\n      pop\n      pop\n      jump\t// out\n        /* \"#utility.yul\":10427:10791   */\n    tag_482:\n        /* \"#utility.yul\":10515:10518   */\n      0x00\n        /* \"#utility.yul\":10543:10582   */\n      tag_484\n        /* \"#utility.yul\":10576:10581   */\n      dup3\n        /* \"#utility.yul\":10543:10582   */\n      tag_485\n      jump\t// in\n    tag_484:\n        /* \"#utility.yul\":10598:10669   */\n      tag_486\n        /* \"#utility.yul\":10662:10668   */\n      dup2\n        /* \"#utility.yul\":10657:10660   */\n      dup6\n        /* \"#utility.yul\":10598:10669   */\n      tag_487\n      jump\t// in\n    tag_486:\n        /* \"#utility.yul\":10591:10669   */\n      swap4\n      pop\n        /* \"#utility.yul\":10678:10730   */\n      tag_488\n        /* \"#utility.yul\":10723:10729   */\n      dup2\n        /* \"#utility.yul\":10718:10721   */\n      dup6\n        /* \"#utility.yul\":10711:10715   */\n      0x20\n        /* \"#utility.yul\":10704:10709   */\n      dup7\n        /* \"#utility.yul\":10700:10716   */\n      add\n        /* \"#utility.yul\":10678:10730   */\n      tag_489\n      jump\t// in\n    tag_488:\n        /* \"#utility.yul\":10755:10784   */\n      tag_490\n        /* \"#utility.yul\":10777:10783   */\n      dup2\n        /* \"#utility.yul\":10755:10784   */\n      tag_491\n      jump\t// in\n    tag_490:\n        /* \"#utility.yul\":10750:10753   */\n      dup5\n        /* \"#utility.yul\":10746:10785   */\n      add\n        /* \"#utility.yul\":10739:10785   */\n      swap2\n      pop\n        /* \"#utility.yul\":10519:10791   */\n      pop\n        /* \"#utility.yul\":10427:10791   */\n      swap3\n      swap2\n      pop\n      pop\n      jump\t// out\n        /* \"#utility.yul\":10797:11174   */\n    tag_492:\n        /* \"#utility.yul\":10903:10906   */\n      0x00\n        /* \"#utility.yul\":10931:10970   */\n      tag_494\n        /* \"#utility.yul\":10964:10969   */\n      dup3\n        /* \"#utility.yul\":10931:10970   */\n      tag_485\n      jump\t// in\n    tag_494:\n        /* \"#utility.yul\":10986:11075   */\n      tag_495\n        /* \"#utility.yul\":11068:11074   */\n      dup2\n        /* \"#utility.yul\":11063:11066   */\n      dup6\n        /* \"#utility.yul\":10986:11075   */\n      tag_480\n      jump\t// in\n    tag_495:\n        /* \"#utility.yul\":10979:11075   */\n      swap4\n      pop\n        /* \"#utility.yul\":11084:11136   */\n      tag_496\n        /* \"#utility.yul\":11129:11135   */\n      dup2\n        /* \"#utility.yul\":11124:11127   */\n      dup6\n        /* \"#utility.yul\":11117:11121   */\n      0x20\n        /* \"#utility.yul\":11110:11115   */\n      dup7\n        /* \"#utility.yul\":11106:11122   */\n      add\n        /* \"#utility.yul\":11084:11136   */\n      tag_489\n      jump\t// in\n    tag_496:\n        /* \"#utility.yul\":11161:11167   */\n      dup1\n        /* \"#utility.yul\":11156:11159   */\n      dup5\n        /* \"#utility.yul\":11152:11168   */\n      add\n        /* \"#utility.yul\":11145:11168   */\n      swap2\n      pop\n        /* \"#utility.yul\":10907:11174   */\n      pop\n        /* \"#utility.yul\":10797:11174   */\n      swap3\n      swap2\n      pop\n      pop\n      jump\t// out\n        /* \"#utility.yul\":11180:11546   */\n    tag_497:\n        /* \"#utility.yul\":11322:11325   */\n      0x00\n        /* \"#utility.yul\":11343:11410   */\n      tag_499\n        /* \"#utility.yul\":11407:11409   */\n      0x1f\n        /* \"#utility.yul\":11402:11405   */\n      dup4\n        /* \"#utility.yul\":11343:11410   */\n      tag_487\n      jump\t// in\n    tag_499:\n        /* \"#utility.yul\":11336:11410   */\n      swap2\n      pop\n        /* \"#utility.yul\":11419:11512   */\n      tag_500\n        /* \"#utility.yul\":11508:11511   */\n      dup3\n        /* \"#utility.yul\":11419:11512   */\n      tag_501\n      jump\t// in\n    tag_500:\n        /* \"#utility.yul\":11537:11539   */\n      0x20\n        /* \"#utility.yul\":11532:11535   */\n      dup3\n        /* \"#utility.yul\":11528:11540   */\n      add\n        /* \"#utility.yul\":11521:11540   */\n      swap1\n      pop\n        /* \"#utility.yul\":11180:11546   */\n      swap2\n      swap1\n      pop\n      jump\t// out\n        /* \"#utility.yul\":11552:11918   */\n    tag_502:\n        /* \"#utility.yul\":11694:11697   */\n      0x00\n        /* \"#utility.yul\":11715:11782   */\n      tag_504\n        /* \"#utility.yul\":11779:11781   */\n      0x19\n        /* \"#utility.yul\":11774:11777   */\n      dup4\n        /* \"#utility.yul\":11715:11782   */\n      tag_487\n      jump\t// in\n    tag_504:\n        /* \"#utility.yul\":11708:11782   */\n      swap2\n      pop\n        /* \"#utility.yul\":11791:11884   */\n      tag_505\n        /* \"#utility.yul\":11880:11883   */\n      dup3\n        /* \"#utility.yul\":11791:11884   */\n      tag_506\n      jump\t// in\n    tag_505:\n        /* \"#utility.yul\":11909:11911   */\n      0x20\n        /* \"#utility.yul\":11904:11907   */\n      dup3\n        /* \"#utility.yul\":11900:11912   */\n      add\n        /* \"#utility.yul\":11893:11912   */\n      swap1\n      pop\n        /* \"#utility.yul\":11552:11918   */\n      swap2\n      swap1\n      pop\n      jump\t// out\n        /* \"#utility.yul\":11924:12290   */\n    tag_507:\n        /* \"#utility.yul\":12066:12069   */\n      0x00\n        /* \"#utility.yul\":12087:12154   */\n      tag_509\n        /* \"#utility.yul\":12151:12153   */\n      0x26\n        /* \"#utility.yul\":12146:12149   */\n      dup4\n        /* \"#utility.yul\":12087:12154   */\n      tag_487\n      jump\t// in\n    tag_509:\n        /* \"#utility.yul\":12080:12154   */\n      swap2\n      pop\n        /* \"#utility.yul\":12163:12256   */\n      tag_510\n        /* \"#utility.yul\":12252:12255   */\n      dup3\n        /* \"#utility.yul\":12163:12256   */\n      tag_511\n      jump\t// in\n    tag_510:\n        /* \"#utility.yul\":12281:12283   */\n      0x40\n        /* \"#utility.yul\":12276:12279   */\n      dup3\n        /* \"#utility.yul\":12272:12284   */\n      add\n        /* \"#utility.yul\":12265:12284   */\n      swap1\n      pop\n        /* \"#utility.yul\":11924:12290   */\n      swap2\n      swap1\n      pop\n      jump\t// out\n        /* \"#utility.yul\":12296:12662   */\n    tag_512:\n        /* \"#utility.yul\":12438:12441   */\n      0x00\n        /* \"#utility.yul\":12459:12526   */\n      tag_514\n        /* \"#utility.yul\":12523:12525   */\n      0x1c\n        /* \"#utility.yul\":12518:12521   */\n      dup4\n        /* \"#utility.yul\":12459:12526   */\n      tag_487\n      jump\t// in\n    tag_514:\n        /* \"#utility.yul\":12452:12526   */\n      swap2\n      pop\n        /* \"#utility.yul\":12535:12628   */\n      tag_515\n        /* \"#utility.yul\":12624:12627   */\n      dup3\n        /* \"#utility.yul\":12535:12628   */\n      tag_516\n      jump\t// in\n    tag_515:\n        /* \"#utility.yul\":12653:12655   */\n      0x20\n        /* \"#utility.yul\":12648:12651   */\n      dup3\n        /* \"#utility.yul\":12644:12656   */\n      add\n        /* \"#utility.yul\":12637:12656   */\n      swap1\n      pop\n        /* \"#utility.yul\":12296:12662   */\n      swap2\n      swap1\n      pop\n      jump\t// out\n        /* \"#utility.yul\":12668:13034   */\n    tag_517:\n        /* \"#utility.yul\":12810:12813   */\n      0x00\n        /* \"#utility.yul\":12831:12898   */\n      tag_519\n        /* \"#utility.yul\":12895:12897   */\n      0x15\n        /* \"#utility.yul\":12890:12893   */\n      dup4\n        /* \"#utility.yul\":12831:12898   */\n      tag_487\n      jump\t// in\n    tag_519:\n        /* \"#utility.yul\":12824:12898   */\n      swap2\n      pop\n        /* \"#utility.yul\":12907:13000   */\n      tag_520\n        /* \"#utility.yul\":12996:12999   */\n      dup3\n        /* \"#utility.yul\":12907:13000   */\n      tag_521\n      jump\t// in\n    tag_520:\n        /* \"#utility.yul\":13025:13027   */\n      0x20\n        /* \"#utility.yul\":13020:13023   */\n      dup3\n        /* \"#utility.yul\":13016:13028   */\n      add\n        /* \"#utility.yul\":13009:13028   */\n      swap1\n      pop\n        /* \"#utility.yul\":12668:13034   */\n      swap2\n      swap1\n      pop\n      jump\t// out\n        /* \"#utility.yul\":13040:13406   */\n    tag_522:\n        /* \"#utility.yul\":13182:13185   */\n      0x00\n        /* \"#utility.yul\":13203:13270   */\n      tag_524\n        /* \"#utility.yul\":13267:13269   */\n      0x1e\n        /* \"#utility.yul\":13262:13265   */\n      dup4\n        /* \"#utility.yul\":13203:13270   */\n      tag_487\n      jump\t// in\n    tag_524:\n        /* \"#utility.yul\":13196:13270   */\n      swap2\n      pop\n        /* \"#utility.yul\":13279:13372   */\n      tag_525\n        /* \"#utility.yul\":13368:13371   */\n      dup3\n        /* \"#utility.yul\":13279:13372   */\n      tag_526\n      jump\t// in\n    tag_525:\n        /* \"#utility.yul\":13397:13399   */\n      0x20\n        /* \"#utility.yul\":13392:13395   */\n      dup3\n        /* \"#utility.yul\":13388:13400   */\n      add\n        /* \"#utility.yul\":13381:13400   */\n      swap1\n      pop\n        /* \"#utility.yul\":13040:13406   */\n      swap2\n      swap1\n      pop\n      jump\t// out\n        /* \"#utility.yul\":13412:13778   */\n    tag_527:\n        /* \"#utility.yul\":13554:13557   */\n      0x00\n        /* \"#utility.yul\":13575:13642   */\n      tag_529\n        /* \"#utility.yul\":13639:13641   */\n      0x24\n        /* \"#utility.yul\":13634:13637   */\n      dup4\n        /* \"#utility.yul\":13575:13642   */\n      tag_487\n      jump\t// in\n    tag_529:\n        /* \"#utility.yul\":13568:13642   */\n      swap2\n      pop\n        /* \"#utility.yul\":13651:13744   */\n      tag_530\n        /* \"#utility.yul\":13740:13743   */\n      dup3\n        /* \"#utility.yul\":13651:13744   */\n      tag_531\n      jump\t// in\n    tag_530:\n        /* \"#utility.yul\":13769:13771   */\n      0x40\n        /* \"#utility.yul\":13764:13767   */\n      dup3\n        /* \"#utility.yul\":13760:13772   */\n      add\n        /* \"#utility.yul\":13753:13772   */\n      swap1\n      pop\n        /* \"#utility.yul\":13412:13778   */\n      swap2\n      swap1\n      pop\n      jump\t// out\n        /* \"#utility.yul\":13784:14150   */\n    tag_532:\n        /* \"#utility.yul\":13926:13929   */\n      0x00\n        /* \"#utility.yul\":13947:14014   */\n      tag_534\n        /* \"#utility.yul\":14011:14013   */\n      0x28\n        /* \"#utility.yul\":14006:14009   */\n      dup4\n        /* \"#utility.yul\":13947:14014   */\n      tag_487\n      jump\t// in\n    tag_534:\n        /* \"#utility.yul\":13940:14014   */\n      swap2\n      pop\n        /* \"#utility.yul\":14023:14116   */\n      tag_535\n        /* \"#utility.yul\":14112:14115   */\n      dup3\n        /* \"#utility.yul\":14023:14116   */\n      tag_536\n      jump\t// in\n    tag_535:\n        /* \"#utility.yul\":14141:14143   */\n      0x40\n        /* \"#utility.yul\":14136:14139   */\n      dup3\n        /* \"#utility.yul\":14132:14144   */\n      add\n        /* \"#utility.yul\":14125:14144   */\n      swap1\n      pop\n        /* \"#utility.yul\":13784:14150   */\n      swap2\n      swap1\n      pop\n      jump\t// out\n        /* \"#utility.yul\":14156:14522   */\n    tag_537:\n        /* \"#utility.yul\":14298:14301   */\n      0x00\n        /* \"#utility.yul\":14319:14386   */\n      tag_539\n        /* \"#utility.yul\":14383:14385   */\n      0x20\n        /* \"#utility.yul\":14378:14381   */\n      dup4\n        /* \"#utility.yul\":14319:14386   */\n      tag_487\n      jump\t// in\n    tag_539:\n        /* \"#utility.yul\":14312:14386   */\n      swap2\n      pop\n        /* \"#utility.yul\":14395:14488   */\n      tag_540\n        /* \"#utility.yul\":14484:14487   */\n      dup3\n        /* \"#utility.yul\":14395:14488   */\n      tag_541\n      jump\t// in\n    tag_540:\n        /* \"#utility.yul\":14513:14515   */\n      0x20\n        /* \"#utility.yul\":14508:14511   */\n      dup3\n        /* \"#utility.yul\":14504:14516   */\n      add\n        /* \"#utility.yul\":14497:14516   */\n      swap1\n      pop\n        /* \"#utility.yul\":14156:14522   */\n      swap2\n      swap1\n      pop\n      jump\t// out\n        /* \"#utility.yul\":14528:14894   */\n    tag_542:\n        /* \"#utility.yul\":14670:14673   */\n      0x00\n        /* \"#utility.yul\":14691:14758   */\n      tag_544\n        /* \"#utility.yul\":14755:14757   */\n      0x12\n        /* \"#utility.yul\":14750:14753   */\n      dup4\n        /* \"#utility.yul\":14691:14758   */\n      tag_487\n      jump\t// in\n    tag_544:\n        /* \"#utility.yul\":14684:14758   */\n      swap2\n      pop\n        /* \"#utility.yul\":14767:14860   */\n      tag_545\n        /* \"#utility.yul\":14856:14859   */\n      dup3\n        /* \"#utility.yul\":14767:14860   */\n      tag_546\n      jump\t// in\n    tag_545:\n        /* \"#utility.yul\":14885:14887   */\n      0x20\n        /* \"#utility.yul\":14880:14883   */\n      dup3\n        /* \"#utility.yul\":14876:14888   */\n      add\n        /* \"#utility.yul\":14869:14888   */\n      swap1\n      pop\n        /* \"#utility.yul\":14528:14894   */\n      swap2\n      swap1\n      pop\n      jump\t// out\n        /* \"#utility.yul\":14900:15266   */\n    tag_547:\n        /* \"#utility.yul\":15042:15045   */\n      0x00\n        /* \"#utility.yul\":15063:15130   */\n      tag_549\n        /* \"#utility.yul\":15127:15129   */\n      0x25\n        /* \"#utility.yul\":15122:15125   */\n      dup4\n        /* \"#utility.yul\":15063:15130   */\n      tag_487\n      jump\t// in\n    tag_549:\n        /* \"#utility.yul\":15056:15130   */\n      swap2\n      pop\n        /* \"#utility.yul\":15139:15232   */\n      tag_550\n        /* \"#utility.yul\":15228:15231   */\n      dup3\n        /* \"#utility.yul\":15139:15232   */\n      tag_551\n      jump\t// in\n    tag_550:\n        /* \"#utility.yul\":15257:15259   */\n      0x40\n        /* \"#utility.yul\":15252:15255   */\n      dup3\n        /* \"#utility.yul\":15248:15260   */\n      add\n        /* \"#utility.yul\":15241:15260   */\n      swap1\n      pop\n        /* \"#utility.yul\":14900:15266   */\n      swap2\n      swap1\n      pop\n      jump\t// out\n        /* \"#utility.yul\":15346:16001   */\n    tag_444:\n        /* \"#utility.yul\":15473:15477   */\n      0x60\n        /* \"#utility.yul\":15468:15471   */\n      dup3\n        /* \"#utility.yul\":15464:15478   */\n      add\n        /* \"#utility.yul\":15561:15565   */\n      0x00\n        /* \"#utility.yul\":15554:15559   */\n      dup3\n        /* \"#utility.yul\":15550:15566   */\n      add\n        /* \"#utility.yul\":15544:15567   */\n      mload\n        /* \"#utility.yul\":15580:15637   */\n      tag_553\n        /* \"#utility.yul\":15631:15635   */\n      0x00\n        /* \"#utility.yul\":15626:15629   */\n      dup6\n        /* \"#utility.yul\":15622:15636   */\n      add\n        /* \"#utility.yul\":15608:15620   */\n      dup3\n        /* \"#utility.yul\":15580:15637   */\n      tag_466\n      jump\t// in\n    tag_553:\n        /* \"#utility.yul\":15488:15647   */\n      pop\n        /* \"#utility.yul\":15729:15733   */\n      0x20\n        /* \"#utility.yul\":15722:15727   */\n      dup3\n        /* \"#utility.yul\":15718:15734   */\n      add\n        /* \"#utility.yul\":15712:15735   */\n      mload\n        /* \"#utility.yul\":15748:15805   */\n      tag_554\n        /* \"#utility.yul\":15799:15803   */\n      0x20\n        /* \"#utility.yul\":15794:15797   */\n      dup6\n        /* \"#utility.yul\":15790:15804   */\n      add\n        /* \"#utility.yul\":15776:15788   */\n      dup3\n        /* \"#utility.yul\":15748:15805   */\n      tag_466\n      jump\t// in\n    tag_554:\n        /* \"#utility.yul\":15657:15815   */\n      pop\n        /* \"#utility.yul\":15902:15906   */\n      0x40\n        /* \"#utility.yul\":15895:15900   */\n      dup3\n        /* \"#utility.yul\":15891:15907   */\n      add\n        /* \"#utility.yul\":15885:15908   */\n      mload\n        /* \"#utility.yul\":15921:15984   */\n      tag_555\n        /* \"#utility.yul\":15978:15982   */\n      0x40\n        /* \"#utility.yul\":15973:15976   */\n      dup6\n        /* \"#utility.yul\":15969:15983   */\n      add\n        /* \"#utility.yul\":15955:15967   */\n      dup3\n        /* \"#utility.yul\":15921:15984   */\n      tag_445\n      jump\t// in\n    tag_555:\n        /* \"#utility.yul\":15825:15994   */\n      pop\n        /* \"#utility.yul\":15442:16001   */\n      pop\n        /* \"#utility.yul\":15346:16001   */\n      pop\n      pop\n      jump\t// out\n        /* \"#utility.yul\":16007:16125   */\n    tag_556:\n        /* \"#utility.yul\":16094:16118   */\n      tag_558\n        /* \"#utility.yul\":16112:16117   */\n      dup2\n        /* \"#utility.yul\":16094:16118   */\n      tag_559\n      jump\t// in\n    tag_558:\n        /* \"#utility.yul\":16089:16092   */\n      dup3\n        /* \"#utility.yul\":16082:16119   */\n      mstore\n        /* \"#utility.yul\":16007:16125   */\n      pop\n      pop\n      jump\t// out\n        /* \"#utility.yul\":16131:16426   */\n    tag_144:\n        /* \"#utility.yul\":16273:16276   */\n      0x00\n        /* \"#utility.yul\":16295:16400   */\n      tag_561\n        /* \"#utility.yul\":16396:16399   */\n      dup3\n        /* \"#utility.yul\":16387:16393   */\n      dup5\n        /* \"#utility.yul\":16379:16385   */\n      dup7\n        /* \"#utility.yul\":16295:16400   */\n      tag_477\n      jump\t// in\n    tag_561:\n        /* \"#utility.yul\":16288:16400   */\n      swap2\n      pop\n        /* \"#utility.yul\":16417:16420   */\n      dup2\n        /* \"#utility.yul\":16410:16420   */\n      swap1\n      pop\n        /* \"#utility.yul\":16131:16426   */\n      swap4\n      swap3\n      pop\n      pop\n      pop\n      jump\t// out\n        /* \"#utility.yul\":16432:16707   */\n    tag_215:\n        /* \"#utility.yul\":16564:16567   */\n      0x00\n        /* \"#utility.yul\":16586:16681   */\n      tag_563\n        /* \"#utility.yul\":16677:16680   */\n      dup3\n        /* \"#utility.yul\":16668:16674   */\n      dup5\n        /* \"#utility.yul\":16586:16681   */\n      tag_492\n      jump\t// in\n    tag_563:\n        /* \"#utility.yul\":16579:16681   */\n      swap2\n      pop\n        /* \"#utility.yul\":16698:16701   */\n      dup2\n        /* \"#utility.yul\":16691:16701   */\n      swap1\n      pop\n        /* \"#utility.yul\":16432:16707   */\n      swap3\n      swap2\n      pop\n      pop\n      jump\t// out\n        /* \"#utility.yul\":16713:16935   */\n    tag_34:\n        /* \"#utility.yul\":16806:16810   */\n      0x00\n        /* \"#utility.yul\":16844:16846   */\n      0x20\n        /* \"#utility.yul\":16833:16842   */\n      dup3\n        /* \"#utility.yul\":16829:16847   */\n      add\n        /* \"#utility.yul\":16821:16847   */\n      swap1\n      pop\n        /* \"#utility.yul\":16857:16928   */\n      tag_565\n        /* \"#utility.yul\":16925:16926   */\n      0x00\n        /* \"#utility.yul\":16914:16923   */\n      dup4\n        /* \"#utility.yul\":16910:16927   */\n      add\n        /* \"#utility.yul\":16901:16907   */\n      dup5\n        /* \"#utility.yul\":16857:16928   */\n      tag_449\n      jump\t// in\n    tag_565:\n        /* \"#utility.yul\":16713:16935   */\n      swap3\n      swap2\n      pop\n      pop\n      jump\t// out\n        /* \"#utility.yul\":16941:17151   */\n    tag_49:\n        /* \"#utility.yul\":17028:17032   */\n      0x00\n        /* \"#utility.yul\":17066:17068   */\n      0x20\n        /* \"#utility.yul\":17055:17064   */\n      dup3\n        /* \"#utility.yul\":17051:17069   */\n      add\n        /* \"#utility.yul\":17043:17069   */\n      swap1\n      pop\n        /* \"#utility.yul\":17079:17144   */\n      tag_567\n        /* \"#utility.yul\":17141:17142   */\n      0x00\n        /* \"#utility.yul\":17130:17139   */\n      dup4\n        /* \"#utility.yul\":17126:17143   */\n      add\n        /* \"#utility.yul\":17117:17123   */\n      dup5\n        /* \"#utility.yul\":17079:17144   */\n      tag_470\n      jump\t// in\n    tag_567:\n        /* \"#utility.yul\":16941:17151   */\n      swap3\n      swap2\n      pop\n      pop\n      jump\t// out\n        /* \"#utility.yul\":17157:17575   */\n    tag_59:\n        /* \"#utility.yul\":17294:17298   */\n      0x00\n        /* \"#utility.yul\":17332:17334   */\n      0x60\n        /* \"#utility.yul\":17321:17330   */\n      dup3\n        /* \"#utility.yul\":17317:17335   */\n      add\n        /* \"#utility.yul\":17309:17335   */\n      swap1\n      pop\n        /* \"#utility.yul\":17345:17410   */\n      tag_569\n        /* \"#utility.yul\":17407:17408   */\n      0x00\n        /* \"#utility.yul\":17396:17405   */\n      dup4\n        /* \"#utility.yul\":17392:17409   */\n      add\n        /* \"#utility.yul\":17383:17389   */\n      dup7\n        /* \"#utility.yul\":17345:17410   */\n      tag_470\n      jump\t// in\n    tag_569:\n        /* \"#utility.yul\":17420:17486   */\n      tag_570\n        /* \"#utility.yul\":17482:17484   */\n      0x20\n        /* \"#utility.yul\":17471:17480   */\n      dup4\n        /* \"#utility.yul\":17467:17485   */\n      add\n        /* \"#utility.yul\":17458:17464   */\n      dup6\n        /* \"#utility.yul\":17420:17486   */\n      tag_470\n      jump\t// in\n    tag_570:\n        /* \"#utility.yul\":17496:17568   */\n      tag_571\n        /* \"#utility.yul\":17564:17566   */\n      0x40\n        /* \"#utility.yul\":17553:17562   */\n      dup4\n        /* \"#utility.yul\":17549:17567   */\n      add\n        /* \"#utility.yul\":17540:17546   */\n      dup5\n        /* \"#utility.yul\":17496:17568   */\n      tag_449\n      jump\t// in\n    tag_571:\n        /* \"#utility.yul\":17157:17575   */\n      swap5\n      swap4\n      pop\n      pop\n      pop\n      pop\n      jump\t// out\n        /* \"#utility.yul\":17581:17987   */\n    tag_103:\n        /* \"#utility.yul\":17712:17716   */\n      0x00\n        /* \"#utility.yul\":17750:17752   */\n      0x60\n        /* \"#utility.yul\":17739:17748   */\n      dup3\n        /* \"#utility.yul\":17735:17753   */\n      add\n        /* \"#utility.yul\":17727:17753   */\n      swap1\n      pop\n        /* \"#utility.yul\":17763:17828   */\n      tag_573\n        /* \"#utility.yul\":17825:17826   */\n      0x00\n        /* \"#utility.yul\":17814:17823   */\n      dup4\n        /* \"#utility.yul\":17810:17827   */\n      add\n        /* \"#utility.yul\":17801:17807   */\n      dup7\n        /* \"#utility.yul\":17763:17828   */\n      tag_470\n      jump\t// in\n    tag_573:\n        /* \"#utility.yul\":17838:17904   */\n      tag_574\n        /* \"#utility.yul\":17900:17902   */\n      0x20\n        /* \"#utility.yul\":17889:17898   */\n      dup4\n        /* \"#utility.yul\":17885:17903   */\n      add\n        /* \"#utility.yul\":17876:17882   */\n      dup6\n        /* \"#utility.yul\":17838:17904   */\n      tag_470\n      jump\t// in\n    tag_574:\n        /* \"#utility.yul\":17914:17980   */\n      tag_575\n        /* \"#utility.yul\":17976:17978   */\n      0x40\n        /* \"#utility.yul\":17965:17974   */\n      dup4\n        /* \"#utility.yul\":17961:17979   */\n      add\n        /* \"#utility.yul\":17952:17958   */\n      dup5\n        /* \"#utility.yul\":17914:17980   */\n      tag_470\n      jump\t// in\n    tag_575:\n        /* \"#utility.yul\":17581:17987   */\n      swap5\n      swap4\n      pop\n      pop\n      pop\n      pop\n      jump\t// out\n        /* \"#utility.yul\":17993:18856   */\n    tag_65:\n        /* \"#utility.yul\":18274:18278   */\n      0x00\n        /* \"#utility.yul\":18312:18315   */\n      0x80\n        /* \"#utility.yul\":18301:18310   */\n      dup3\n        /* \"#utility.yul\":18297:18316   */\n      add\n        /* \"#utility.yul\":18289:18316   */\n      swap1\n      pop\n        /* \"#utility.yul\":18326:18391   */\n      tag_577\n        /* \"#utility.yul\":18388:18389   */\n      0x00\n        /* \"#utility.yul\":18377:18386   */\n      dup4\n        /* \"#utility.yul\":18373:18390   */\n      add\n        /* \"#utility.yul\":18364:18370   */\n      dup8\n        /* \"#utility.yul\":18326:18391   */\n      tag_470\n      jump\t// in\n    tag_577:\n        /* \"#utility.yul\":18438:18447   */\n      dup2\n        /* \"#utility.yul\":18432:18436   */\n      dup2\n        /* \"#utility.yul\":18428:18448   */\n      sub\n        /* \"#utility.yul\":18423:18425   */\n      0x20\n        /* \"#utility.yul\":18412:18421   */\n      dup4\n        /* \"#utility.yul\":18408:18426   */\n      add\n        /* \"#utility.yul\":18401:18449   */\n      mstore\n        /* \"#utility.yul\":18466:18544   */\n      tag_578\n        /* \"#utility.yul\":18539:18543   */\n      dup2\n        /* \"#utility.yul\":18530:18536   */\n      dup7\n        /* \"#utility.yul\":18466:18544   */\n      tag_482\n      jump\t// in\n    tag_578:\n        /* \"#utility.yul\":18458:18544   */\n      swap1\n      pop\n        /* \"#utility.yul\":18554:18626   */\n      tag_579\n        /* \"#utility.yul\":18622:18624   */\n      0x40\n        /* \"#utility.yul\":18611:18620   */\n      dup4\n        /* \"#utility.yul\":18607:18625   */\n      add\n        /* \"#utility.yul\":18598:18604   */\n      dup6\n        /* \"#utility.yul\":18554:18626   */\n      tag_556\n      jump\t// in\n    tag_579:\n        /* \"#utility.yul\":18673:18682   */\n      dup2\n        /* \"#utility.yul\":18667:18671   */\n      dup2\n        /* \"#utility.yul\":18663:18683   */\n      sub\n        /* \"#utility.yul\":18658:18660   */\n      0x60\n        /* \"#utility.yul\":18647:18656   */\n      dup4\n        /* \"#utility.yul\":18643:18661   */\n      add\n        /* \"#utility.yul\":18636:18684   */\n      mstore\n        /* \"#utility.yul\":18701:18849   */\n      tag_580\n        /* \"#utility.yul\":18844:18848   */\n      dup2\n        /* \"#utility.yul\":18835:18841   */\n      dup5\n        /* \"#utility.yul\":18701:18849   */\n      tag_452\n      jump\t// in\n    tag_580:\n        /* \"#utility.yul\":18693:18849   */\n      swap1\n      pop\n        /* \"#utility.yul\":17993:18856   */\n      swap6\n      swap5\n      pop\n      pop\n      pop\n      pop\n      pop\n      jump\t// out\n        /* \"#utility.yul\":18862:19084   */\n    tag_108:\n        /* \"#utility.yul\":18955:18959   */\n      0x00\n        /* \"#utility.yul\":18993:18995   */\n      0x20\n        /* \"#utility.yul\":18982:18991   */\n      dup3\n        /* \"#utility.yul\":18978:18996   */\n      add\n        /* \"#utility.yul\":18970:18996   */\n      swap1\n      pop\n        /* \"#utility.yul\":19006:19077   */\n      tag_582\n        /* \"#utility.yul\":19074:19075   */\n      0x00\n        /* \"#utility.yul\":19063:19072   */\n      dup4\n        /* \"#utility.yul\":19059:19076   */\n      add\n        /* \"#utility.yul\":19050:19056   */\n      dup5\n        /* \"#utility.yul\":19006:19077   */\n      tag_473\n      jump\t// in\n    tag_582:\n        /* \"#utility.yul\":18862:19084   */\n      swap3\n      swap2\n      pop\n      pop\n      jump\t// out\n        /* \"#utility.yul\":19090:19403   */\n    tag_40:\n        /* \"#utility.yul\":19203:19207   */\n      0x00\n        /* \"#utility.yul\":19241:19243   */\n      0x20\n        /* \"#utility.yul\":19230:19239   */\n      dup3\n        /* \"#utility.yul\":19226:19244   */\n      add\n        /* \"#utility.yul\":19218:19244   */\n      swap1\n      pop\n        /* \"#utility.yul\":19290:19299   */\n      dup2\n        /* \"#utility.yul\":19284:19288   */\n      dup2\n        /* \"#utility.yul\":19280:19300   */\n      sub\n        /* \"#utility.yul\":19276:19277   */\n      0x00\n        /* \"#utility.yul\":19265:19274   */\n      dup4\n        /* \"#utility.yul\":19261:19278   */\n      add\n        /* \"#utility.yul\":19254:19301   */\n      mstore\n        /* \"#utility.yul\":19318:19396   */\n      tag_584\n        /* \"#utility.yul\":19391:19395   */\n      dup2\n        /* \"#utility.yul\":19382:19388   */\n      dup5\n        /* \"#utility.yul\":19318:19396   */\n      tag_482\n      jump\t// in\n    tag_584:\n        /* \"#utility.yul\":19310:19396   */\n      swap1\n      pop\n        /* \"#utility.yul\":19090:19403   */\n      swap3\n      swap2\n      pop\n      pop\n      jump\t// out\n        /* \"#utility.yul\":19409:19923   */\n    tag_121:\n        /* \"#utility.yul\":19570:19574   */\n      0x00\n        /* \"#utility.yul\":19608:19610   */\n      0x40\n        /* \"#utility.yul\":19597:19606   */\n      dup3\n        /* \"#utility.yul\":19593:19611   */\n      add\n        /* \"#utility.yul\":19585:19611   */\n      swap1\n      pop\n        /* \"#utility.yul\":19657:19666   */\n      dup2\n        /* \"#utility.yul\":19651:19655   */\n      dup2\n        /* \"#utility.yul\":19647:19667   */\n      sub\n        /* \"#utility.yul\":19643:19644   */\n      0x00\n        /* \"#utility.yul\":19632:19641   */\n      dup4\n        /* \"#utility.yul\":19628:19645   */\n      add\n        /* \"#utility.yul\":19621:19668   */\n      mstore\n        /* \"#utility.yul\":19685:19763   */\n      tag_586\n        /* \"#utility.yul\":19758:19762   */\n      dup2\n        /* \"#utility.yul\":19749:19755   */\n      dup6\n        /* \"#utility.yul\":19685:19763   */\n      tag_482\n      jump\t// in\n    tag_586:\n        /* \"#utility.yul\":19677:19763   */\n      swap1\n      pop\n        /* \"#utility.yul\":19810:19819   */\n      dup2\n        /* \"#utility.yul\":19804:19808   */\n      dup2\n        /* \"#utility.yul\":19800:19820   */\n      sub\n        /* \"#utility.yul\":19795:19797   */\n      0x20\n        /* \"#utility.yul\":19784:19793   */\n      dup4\n        /* \"#utility.yul\":19780:19798   */\n      add\n        /* \"#utility.yul\":19773:19821   */\n      mstore\n        /* \"#utility.yul\":19838:19916   */\n      tag_587\n        /* \"#utility.yul\":19911:19915   */\n      dup2\n        /* \"#utility.yul\":19902:19908   */\n      dup5\n        /* \"#utility.yul\":19838:19916   */\n      tag_482\n      jump\t// in\n    tag_587:\n        /* \"#utility.yul\":19830:19916   */\n      swap1\n      pop\n        /* \"#utility.yul\":19409:19923   */\n      swap4\n      swap3\n      pop\n      pop\n      pop\n      jump\t// out\n        /* \"#utility.yul\":19929:20348   */\n    tag_205:\n        /* \"#utility.yul\":20095:20099   */\n      0x00\n        /* \"#utility.yul\":20133:20135   */\n      0x20\n        /* \"#utility.yul\":20122:20131   */\n      dup3\n        /* \"#utility.yul\":20118:20136   */\n      add\n        /* \"#utility.yul\":20110:20136   */\n      swap1\n      pop\n        /* \"#utility.yul\":20182:20191   */\n      dup2\n        /* \"#utility.yul\":20176:20180   */\n      dup2\n        /* \"#utility.yul\":20172:20192   */\n      sub\n        /* \"#utility.yul\":20168:20169   */\n      0x00\n        /* \"#utility.yul\":20157:20166   */\n      dup4\n        /* \"#utility.yul\":20153:20170   */\n      add\n        /* \"#utility.yul\":20146:20193   */\n      mstore\n        /* \"#utility.yul\":20210:20341   */\n      tag_589\n        /* \"#utility.yul\":20336:20340   */\n      dup2\n        /* \"#utility.yul\":20210:20341   */\n      tag_497\n      jump\t// in\n    tag_589:\n        /* \"#utility.yul\":20202:20341   */\n      swap1\n      pop\n        /* \"#utility.yul\":19929:20348   */\n      swap2\n      swap1\n      pop\n      jump\t// out\n        /* \"#utility.yul\":20354:20773   */\n    tag_218:\n        /* \"#utility.yul\":20520:20524   */\n      0x00\n        /* \"#utility.yul\":20558:20560   */\n      0x20\n        /* \"#utility.yul\":20547:20556   */\n      dup3\n        /* \"#utility.yul\":20543:20561   */\n      add\n        /* \"#utility.yul\":20535:20561   */\n      swap1\n      pop\n        /* \"#utility.yul\":20607:20616   */\n      dup2\n        /* \"#utility.yul\":20601:20605   */\n      dup2\n        /* \"#utility.yul\":20597:20617   */\n      sub\n        /* \"#utility.yul\":20593:20594   */\n      0x00\n        /* \"#utility.yul\":20582:20591   */\n      dup4\n        /* \"#utility.yul\":20578:20595   */\n      add\n        /* \"#utility.yul\":20571:20618   */\n      mstore\n        /* \"#utility.yul\":20635:20766   */\n      tag_591\n        /* \"#utility.yul\":20761:20765   */\n      dup2\n        /* \"#utility.yul\":20635:20766   */\n      tag_502\n      jump\t// in\n    tag_591:\n        /* \"#utility.yul\":20627:20766   */\n      swap1\n      pop\n        /* \"#utility.yul\":20354:20773   */\n      swap2\n      swap1\n      pop\n      jump\t// out\n        /* \"#utility.yul\":20779:21198   */\n    tag_255:\n        /* \"#utility.yul\":20945:20949   */\n      0x00\n        /* \"#utility.yul\":20983:20985   */\n      0x20\n        /* \"#utility.yul\":20972:20981   */\n      dup3\n        /* \"#utility.yul\":20968:20986   */\n      add\n        /* \"#utility.yul\":20960:20986   */\n      swap1\n      pop\n        /* \"#utility.yul\":21032:21041   */\n      dup2\n        /* \"#utility.yul\":21026:21030   */\n      dup2\n        /* \"#utility.yul\":21022:21042   */\n      sub\n        /* \"#utility.yul\":21018:21019   */\n      0x00\n        /* \"#utility.yul\":21007:21016   */\n      dup4\n        /* \"#utility.yul\":21003:21020   */\n      add\n        /* \"#utility.yul\":20996:21043   */\n      mstore\n        /* \"#utility.yul\":21060:21191   */\n      tag_593\n        /* \"#utility.yul\":21186:21190   */\n      dup2\n        /* \"#utility.yul\":21060:21191   */\n      tag_507\n      jump\t// in\n    tag_593:\n        /* \"#utility.yul\":21052:21191   */\n      swap1\n      pop\n        /* \"#utility.yul\":20779:21198   */\n      swap2\n      swap1\n      pop\n      jump\t// out\n        /* \"#utility.yul\":21204:21623   */\n    tag_155:\n        /* \"#utility.yul\":21370:21374   */\n      0x00\n        /* \"#utility.yul\":21408:21410   */\n      0x20\n        /* \"#utility.yul\":21397:21406   */\n      dup3\n        /* \"#utility.yul\":21393:21411   */\n      add\n        /* \"#utility.yul\":21385:21411   */\n      swap1\n      pop\n        /* \"#utility.yul\":21457:21466   */\n      dup2\n        /* \"#utility.yul\":21451:21455   */\n      dup2\n        /* \"#utility.yul\":21447:21467   */\n      sub\n        /* \"#utility.yul\":21443:21444   */\n      0x00\n        /* \"#utility.yul\":21432:21441   */\n      dup4\n        /* \"#utility.yul\":21428:21445   */\n      add\n        /* \"#utility.yul\":21421:21468   */\n      mstore\n        /* \"#utility.yul\":21485:21616   */\n      tag_595\n        /* \"#utility.yul\":21611:21615   */\n      dup2\n        /* \"#utility.yul\":21485:21616   */\n      tag_512\n      jump\t// in\n    tag_595:\n        /* \"#utility.yul\":21477:21616   */\n      swap1\n      pop\n        /* \"#utility.yul\":21204:21623   */\n      swap2\n      swap1\n      pop\n      jump\t// out\n        /* \"#utility.yul\":21629:22048   */\n    tag_201:\n        /* \"#utility.yul\":21795:21799   */\n      0x00\n        /* \"#utility.yul\":21833:21835   */\n      0x20\n        /* \"#utility.yul\":21822:21831   */\n      dup3\n        /* \"#utility.yul\":21818:21836   */\n      add\n        /* \"#utility.yul\":21810:21836   */\n      swap1\n      pop\n        /* \"#utility.yul\":21882:21891   */\n      dup2\n        /* \"#utility.yul\":21876:21880   */\n      dup2\n        /* \"#utility.yul\":21872:21892   */\n      sub\n        /* \"#utility.yul\":21868:21869   */\n      0x00\n        /* \"#utility.yul\":21857:21866   */\n      dup4\n        /* \"#utility.yul\":21853:21870   */\n      add\n        /* \"#utility.yul\":21846:21893   */\n      mstore\n        /* \"#utility.yul\":21910:22041   */\n      tag_597\n        /* \"#utility.yul\":22036:22040   */\n      dup2\n        /* \"#utility.yul\":21910:22041   */\n      tag_517\n      jump\t// in\n    tag_597:\n        /* \"#utility.yul\":21902:22041   */\n      swap1\n      pop\n        /* \"#utility.yul\":21629:22048   */\n      swap2\n      swap1\n      pop\n      jump\t// out\n        /* \"#utility.yul\":22054:22473   */\n    tag_151:\n        /* \"#utility.yul\":22220:22224   */\n      0x00\n        /* \"#utility.yul\":22258:22260   */\n      0x20\n        /* \"#utility.yul\":22247:22256   */\n      dup3\n        /* \"#utility.yul\":22243:22261   */\n      add\n        /* \"#utility.yul\":22235:22261   */\n      swap1\n      pop\n        /* \"#utility.yul\":22307:22316   */\n      dup2\n        /* \"#utility.yul\":22301:22305   */\n      dup2\n        /* \"#utility.yul\":22297:22317   */\n      sub\n        /* \"#utility.yul\":22293:22294   */\n      0x00\n        /* \"#utility.yul\":22282:22291   */\n      dup4\n        /* \"#utility.yul\":22278:22295   */\n      add\n        /* \"#utility.yul\":22271:22318   */\n      mstore\n        /* \"#utility.yul\":22335:22466   */\n      tag_599\n        /* \"#utility.yul\":22461:22465   */\n      dup2\n        /* \"#utility.yul\":22335:22466   */\n      tag_522\n      jump\t// in\n    tag_599:\n        /* \"#utility.yul\":22327:22466   */\n      swap1\n      pop\n        /* \"#utility.yul\":22054:22473   */\n      swap2\n      swap1\n      pop\n      jump\t// out\n        /* \"#utility.yul\":22479:22898   */\n    tag_209:\n        /* \"#utility.yul\":22645:22649   */\n      0x00\n        /* \"#utility.yul\":22683:22685   */\n      0x20\n        /* \"#utility.yul\":22672:22681   */\n      dup3\n        /* \"#utility.yul\":22668:22686   */\n      add\n        /* \"#utility.yul\":22660:22686   */\n      swap1\n      pop\n        /* \"#utility.yul\":22732:22741   */\n      dup2\n        /* \"#utility.yul\":22726:22730   */\n      dup2\n        /* \"#utility.yul\":22722:22742   */\n      sub\n        /* \"#utility.yul\":22718:22719   */\n      0x00\n        /* \"#utility.yul\":22707:22716   */\n      dup4\n        /* \"#utility.yul\":22703:22720   */\n      add\n        /* \"#utility.yul\":22696:22743   */\n      mstore\n        /* \"#utility.yul\":22760:22891   */\n      tag_601\n        /* \"#utility.yul\":22886:22890   */\n      dup2\n        /* \"#utility.yul\":22760:22891   */\n      tag_527\n      jump\t// in\n    tag_601:\n        /* \"#utility.yul\":22752:22891   */\n      swap1\n      pop\n        /* \"#utility.yul\":22479:22898   */\n      swap2\n      swap1\n      pop\n      jump\t// out\n        /* \"#utility.yul\":22904:23323   */\n    tag_197:\n        /* \"#utility.yul\":23070:23074   */\n      0x00\n        /* \"#utility.yul\":23108:23110   */\n      0x20\n        /* \"#utility.yul\":23097:23106   */\n      dup3\n        /* \"#utility.yul\":23093:23111   */\n      add\n        /* \"#utility.yul\":23085:23111   */\n      swap1\n      pop\n        /* \"#utility.yul\":23157:23166   */\n      dup2\n        /* \"#utility.yul\":23151:23155   */\n      dup2\n        /* \"#utility.yul\":23147:23167   */\n      sub\n        /* \"#utility.yul\":23143:23144   */\n      0x00\n        /* \"#utility.yul\":23132:23141   */\n      dup4\n        /* \"#utility.yul\":23128:23145   */\n      add\n        /* \"#utility.yul\":23121:23168   */\n      mstore\n        /* \"#utility.yul\":23185:23316   */\n      tag_603\n        /* \"#utility.yul\":23311:23315   */\n      dup2\n        /* \"#utility.yul\":23185:23316   */\n      tag_532\n      jump\t// in\n    tag_603:\n        /* \"#utility.yul\":23177:23316   */\n      swap1\n      pop\n        /* \"#utility.yul\":22904:23323   */\n      swap2\n      swap1\n      pop\n      jump\t// out\n        /* \"#utility.yul\":23329:23748   */\n    tag_186:\n        /* \"#utility.yul\":23495:23499   */\n      0x00\n        /* \"#utility.yul\":23533:23535   */\n      0x20\n        /* \"#utility.yul\":23522:23531   */\n      dup3\n        /* \"#utility.yul\":23518:23536   */\n      add\n        /* \"#utility.yul\":23510:23536   */\n      swap1\n      pop\n        /* \"#utility.yul\":23582:23591   */\n      dup2\n        /* \"#utility.yul\":23576:23580   */\n      dup2\n        /* \"#utility.yul\":23572:23592   */\n      sub\n        /* \"#utility.yul\":23568:23569   */\n      0x00\n        /* \"#utility.yul\":23557:23566   */\n      dup4\n        /* \"#utility.yul\":23553:23570   */\n      add\n        /* \"#utility.yul\":23546:23593   */\n      mstore\n        /* \"#utility.yul\":23610:23741   */\n      tag_605\n        /* \"#utility.yul\":23736:23740   */\n      dup2\n        /* \"#utility.yul\":23610:23741   */\n      tag_537\n      jump\t// in\n    tag_605:\n        /* \"#utility.yul\":23602:23741   */\n      swap1\n      pop\n        /* \"#utility.yul\":23329:23748   */\n      swap2\n      swap1\n      pop\n      jump\t// out\n        /* \"#utility.yul\":23754:24173   */\n    tag_147:\n        /* \"#utility.yul\":23920:23924   */\n      0x00\n        /* \"#utility.yul\":23958:23960   */\n      0x20\n        /* \"#utility.yul\":23947:23956   */\n      dup3\n        /* \"#utility.yul\":23943:23961   */\n      add\n        /* \"#utility.yul\":23935:23961   */\n      swap1\n      pop\n        /* \"#utility.yul\":24007:24016   */\n      dup2\n        /* \"#utility.yul\":24001:24005   */\n      dup2\n        /* \"#utility.yul\":23997:24017   */\n      sub\n        /* \"#utility.yul\":23993:23994   */\n      0x00\n        /* \"#utility.yul\":23982:23991   */\n      dup4\n        /* \"#utility.yul\":23978:23995   */\n      add\n        /* \"#utility.yul\":23971:24018   */\n      mstore\n        /* \"#utility.yul\":24035:24166   */\n      tag_607\n        /* \"#utility.yul\":24161:24165   */\n      dup2\n        /* \"#utility.yul\":24035:24166   */\n      tag_542\n      jump\t// in\n    tag_607:\n        /* \"#utility.yul\":24027:24166   */\n      swap1\n      pop\n        /* \"#utility.yul\":23754:24173   */\n      swap2\n      swap1\n      pop\n      jump\t// out\n        /* \"#utility.yul\":24179:24598   */\n    tag_249:\n        /* \"#utility.yul\":24345:24349   */\n      0x00\n        /* \"#utility.yul\":24383:24385   */\n      0x20\n        /* \"#utility.yul\":24372:24381   */\n      dup3\n        /* \"#utility.yul\":24368:24386   */\n      add\n        /* \"#utility.yul\":24360:24386   */\n      swap1\n      pop\n        /* \"#utility.yul\":24432:24441   */\n      dup2\n        /* \"#utility.yul\":24426:24430   */\n      dup2\n        /* \"#utility.yul\":24422:24442   */\n      sub\n        /* \"#utility.yul\":24418:24419   */\n      0x00\n        /* \"#utility.yul\":24407:24416   */\n      dup4\n        /* \"#utility.yul\":24403:24420   */\n      add\n        /* \"#utility.yul\":24396:24443   */\n      mstore\n        /* \"#utility.yul\":24460:24591   */\n      tag_609\n        /* \"#utility.yul\":24586:24590   */\n      dup2\n        /* \"#utility.yul\":24460:24591   */\n      tag_547\n      jump\t// in\n    tag_609:\n        /* \"#utility.yul\":24452:24591   */\n      swap1\n      pop\n        /* \"#utility.yul\":24179:24598   */\n      swap2\n      swap1\n      pop\n      jump\t// out\n        /* \"#utility.yul\":24604:24826   */\n    tag_74:\n        /* \"#utility.yul\":24697:24701   */\n      0x00\n        /* \"#utility.yul\":24735:24737   */\n      0x20\n        /* \"#utility.yul\":24724:24733   */\n      dup3\n        /* \"#utility.yul\":24720:24738   */\n      add\n        /* \"#utility.yul\":24712:24738   */\n      swap1\n      pop\n        /* \"#utility.yul\":24748:24819   */\n      tag_611\n        /* \"#utility.yul\":24816:24817   */\n      0x00\n        /* \"#utility.yul\":24805:24814   */\n      dup4\n        /* \"#utility.yul\":24801:24818   */\n      add\n        /* \"#utility.yul\":24792:24798   */\n      dup5\n        /* \"#utility.yul\":24748:24819   */\n      tag_556\n      jump\t// in\n    tag_611:\n        /* \"#utility.yul\":24604:24826   */\n      swap3\n      swap2\n      pop\n      pop\n      jump\t// out\n        /* \"#utility.yul\":24832:24961   */\n    tag_339:\n        /* \"#utility.yul\":24866:24872   */\n      0x00\n        /* \"#utility.yul\":24893:24913   */\n      tag_613\n      tag_614\n      jump\t// in\n    tag_613:\n        /* \"#utility.yul\":24883:24913   */\n      swap1\n      pop\n        /* \"#utility.yul\":24922:24955   */\n      tag_615\n        /* \"#utility.yul\":24950:24954   */\n      dup3\n        /* \"#utility.yul\":24942:24948   */\n      dup3\n        /* \"#utility.yul\":24922:24955   */\n      tag_616\n      jump\t// in\n    tag_615:\n        /* \"#utility.yul\":24832:24961   */\n      swap2\n      swap1\n      pop\n      jump\t// out\n        /* \"#utility.yul\":24967:25042   */\n    tag_614:\n        /* \"#utility.yul\":25000:25006   */\n      0x00\n        /* \"#utility.yul\":25033:25035   */\n      0x40\n        /* \"#utility.yul\":25027:25036   */\n      mload\n        /* \"#utility.yul\":25017:25036   */\n      swap1\n      pop\n        /* \"#utility.yul\":24967:25042   */\n      swap1\n      jump\t// out\n        /* \"#utility.yul\":25048:25356   */\n    tag_338:\n        /* \"#utility.yul\":25110:25114   */\n      0x00\n        /* \"#utility.yul\":25200:25218   */\n      0xffffffffffffffff\n        /* \"#utility.yul\":25192:25198   */\n      dup3\n        /* \"#utility.yul\":25189:25219   */\n      gt\n        /* \"#utility.yul\":25186:25242   */\n      iszero\n      tag_619\n      jumpi\n        /* \"#utility.yul\":25222:25240   */\n      tag_620\n      tag_621\n      jump\t// in\n    tag_620:\n        /* \"#utility.yul\":25186:25242   */\n    tag_619:\n        /* \"#utility.yul\":25260:25289   */\n      tag_622\n        /* \"#utility.yul\":25282:25288   */\n      dup3\n        /* \"#utility.yul\":25260:25289   */\n      tag_491\n      jump\t// in\n    tag_622:\n        /* \"#utility.yul\":25252:25289   */\n      swap1\n      pop\n        /* \"#utility.yul\":25344:25348   */\n      0x20\n        /* \"#utility.yul\":25338:25342   */\n      dup2\n        /* \"#utility.yul\":25334:25349   */\n      add\n        /* \"#utility.yul\":25326:25349   */\n      swap1\n      pop\n        /* \"#utility.yul\":25048:25356   */\n      swap2\n      swap1\n      pop\n      jump\t// out\n        /* \"#utility.yul\":25362:25514   */\n    tag_459:\n        /* \"#utility.yul\":25449:25453   */\n      0x00\n        /* \"#utility.yul\":25472:25475   */\n      dup2\n        /* \"#utility.yul\":25464:25475   */\n      swap1\n      pop\n        /* \"#utility.yul\":25502:25506   */\n      0x20\n        /* \"#utility.yul\":25497:25500   */\n      dup3\n        /* \"#utility.yul\":25493:25507   */\n      add\n        /* \"#utility.yul\":25485:25507   */\n      swap1\n      pop\n        /* \"#utility.yul\":25362:25514   */\n      swap2\n      swap1\n      pop\n      jump\t// out\n        /* \"#utility.yul\":25520:25654   */\n    tag_455:\n        /* \"#utility.yul\":25607:25613   */\n      0x00\n        /* \"#utility.yul\":25641:25646   */\n      dup2\n        /* \"#utility.yul\":25635:25647   */\n      mload\n        /* \"#utility.yul\":25625:25647   */\n      swap1\n      pop\n        /* \"#utility.yul\":25520:25654   */\n      swap2\n      swap1\n      pop\n      jump\t// out\n        /* \"#utility.yul\":25660:25759   */\n    tag_485:\n        /* \"#utility.yul\":25712:25718   */\n      0x00\n        /* \"#utility.yul\":25746:25751   */\n      dup2\n        /* \"#utility.yul\":25740:25752   */\n      mload\n        /* \"#utility.yul\":25730:25752   */\n      swap1\n      pop\n        /* \"#utility.yul\":25660:25759   */\n      swap2\n      swap1\n      pop\n      jump\t// out\n        /* \"#utility.yul\":25765:25898   */\n    tag_465:\n        /* \"#utility.yul\":25855:25859   */\n      0x00\n        /* \"#utility.yul\":25887:25891   */\n      0x20\n        /* \"#utility.yul\":25882:25885   */\n      dup3\n        /* \"#utility.yul\":25878:25892   */\n      add\n        /* \"#utility.yul\":25870:25892   */\n      swap1\n      pop\n        /* \"#utility.yul\":25765:25898   */\n      swap2\n      swap1\n      pop\n      jump\t// out\n        /* \"#utility.yul\":25904:26108   */\n    tag_457:\n        /* \"#utility.yul\":26023:26034   */\n      0x00\n        /* \"#utility.yul\":26057:26063   */\n      dup3\n        /* \"#utility.yul\":26052:26055   */\n      dup3\n        /* \"#utility.yul\":26045:26064   */\n      mstore\n        /* \"#utility.yul\":26097:26101   */\n      0x20\n        /* \"#utility.yul\":26092:26095   */\n      dup3\n        /* \"#utility.yul\":26088:26102   */\n      add\n        /* \"#utility.yul\":26073:26102   */\n      swap1\n      pop\n        /* \"#utility.yul\":25904:26108   */\n      swap3\n      swap2\n      pop\n      pop\n      jump\t// out\n        /* \"#utility.yul\":26114:26283   */\n    tag_487:\n        /* \"#utility.yul\":26198:26209   */\n      0x00\n        /* \"#utility.yul\":26232:26238   */\n      dup3\n        /* \"#utility.yul\":26227:26230   */\n      dup3\n        /* \"#utility.yul\":26220:26239   */\n      mstore\n        /* \"#utility.yul\":26272:26276   */\n      0x20\n        /* \"#utility.yul\":26267:26270   */\n      dup3\n        /* \"#utility.yul\":26263:26277   */\n      add\n        /* \"#utility.yul\":26248:26277   */\n      swap1\n      pop\n        /* \"#utility.yul\":26114:26283   */\n      swap3\n      swap2\n      pop\n      pop\n      jump\t// out\n        /* \"#utility.yul\":26289:26437   */\n    tag_480:\n        /* \"#utility.yul\":26391:26402   */\n      0x00\n        /* \"#utility.yul\":26428:26431   */\n      dup2\n        /* \"#utility.yul\":26413:26431   */\n      swap1\n      pop\n        /* \"#utility.yul\":26289:26437   */\n      swap3\n      swap2\n      pop\n      pop\n      jump\t// out\n        /* \"#utility.yul\":26443:26748   */\n    tag_161:\n        /* \"#utility.yul\":26483:26486   */\n      0x00\n        /* \"#utility.yul\":26502:26522   */\n      tag_631\n        /* \"#utility.yul\":26520:26521   */\n      dup3\n        /* \"#utility.yul\":26502:26522   */\n      tag_559\n      jump\t// in\n    tag_631:\n        /* \"#utility.yul\":26497:26522   */\n      swap2\n      pop\n        /* \"#utility.yul\":26536:26556   */\n      tag_632\n        /* \"#utility.yul\":26554:26555   */\n      dup4\n        /* \"#utility.yul\":26536:26556   */\n      tag_559\n      jump\t// in\n    tag_632:\n        /* \"#utility.yul\":26531:26556   */\n      swap3\n      pop\n        /* \"#utility.yul\":26690:26691   */\n      dup3\n        /* \"#utility.yul\":26622:26688   */\n      0xffffffffffffffffffffffffffffffffffffffffffffffffffffffffffffffff\n        /* \"#utility.yul\":26618:26692   */\n      sub\n        /* \"#utility.yul\":26615:26616   */\n      dup3\n        /* \"#utility.yul\":26612:26693   */\n      gt\n        /* \"#utility.yul\":26609:26716   */\n      iszero\n      tag_633\n      jumpi\n        /* \"#utility.yul\":26696:26714   */\n      tag_634\n      tag_635\n      jump\t// in\n    tag_634:\n        /* \"#utility.yul\":26609:26716   */\n    tag_633:\n        /* \"#utility.yul\":26740:26741   */\n      dup3\n        /* \"#utility.yul\":26737:26738   */\n      dup3\n        /* \"#utility.yul\":26733:26742   */\n      add\n        /* \"#utility.yul\":26726:26742   */\n      swap1\n      pop\n        /* \"#utility.yul\":26443:26748   */\n      swap3\n      swap2\n      pop\n      pop\n      jump\t// out\n        /* \"#utility.yul\":26754:26939   */\n    tag_259:\n        /* \"#utility.yul\":26794:26795   */\n      0x00\n        /* \"#utility.yul\":26811:26831   */\n      tag_637\n        /* \"#utility.yul\":26829:26830   */\n      dup3\n        /* \"#utility.yul\":26811:26831   */\n      tag_559\n      jump\t// in\n    tag_637:\n        /* \"#utility.yul\":26806:26831   */\n      swap2\n      pop\n        /* \"#utility.yul\":26845:26865   */\n      tag_638\n        /* \"#utility.yul\":26863:26864   */\n      dup4\n        /* \"#utility.yul\":26845:26865   */\n      tag_559\n      jump\t// in\n    tag_638:\n        /* \"#utility.yul\":26840:26865   */\n      swap3\n      pop\n        /* \"#utility.yul\":26884:26885   */\n      dup3\n        /* \"#utility.yul\":26874:26909   */\n      tag_639\n      jumpi\n        /* \"#utility.yul\":26889:26907   */\n      tag_640\n      tag_641\n      jump\t// in\n    tag_640:\n        /* \"#utility.yul\":26874:26909   */\n    tag_639:\n        /* \"#utility.yul\":26931:26932   */\n      dup3\n        /* \"#utility.yul\":26928:26929   */\n      dup3\n        /* \"#utility.yul\":26924:26933   */\n      div\n        /* \"#utility.yul\":26919:26933   */\n      swap1\n      pop\n        /* \"#utility.yul\":26754:26939   */\n      swap3\n      swap2\n      pop\n      pop\n      jump\t// out\n        /* \"#utility.yul\":26945:27293   */\n    tag_261:\n        /* \"#utility.yul\":26985:26992   */\n      0x00\n        /* \"#utility.yul\":27008:27028   */\n      tag_643\n        /* \"#utility.yul\":27026:27027   */\n      dup3\n        /* \"#utility.yul\":27008:27028   */\n      tag_559\n      jump\t// in\n    tag_643:\n        /* \"#utility.yul\":27003:27028   */\n      swap2\n      pop\n        /* \"#utility.yul\":27042:27062   */\n      tag_644\n        /* \"#utility.yul\":27060:27061   */\n      dup4\n        /* \"#utility.yul\":27042:27062   */\n      tag_559\n      jump\t// in\n    tag_644:\n        /* \"#utility.yul\":27037:27062   */\n      swap3\n      pop\n        /* \"#utility.yul\":27230:27231   */\n      dup2\n        /* \"#utility.yul\":27162:27228   */\n      0xffffffffffffffffffffffffffffffffffffffffffffffffffffffffffffffff\n        /* \"#utility.yul\":27158:27232   */\n      div\n        /* \"#utility.yul\":27155:27156   */\n      dup4\n        /* \"#utility.yul\":27152:27233   */\n      gt\n        /* \"#utility.yul\":27147:27148   */\n      dup3\n        /* \"#utility.yul\":27140:27149   */\n      iszero\n        /* \"#utility.yul\":27133:27150   */\n      iszero\n        /* \"#utility.yul\":27129:27234   */\n      and\n        /* \"#utility.yul\":27126:27257   */\n      iszero\n      tag_645\n      jumpi\n        /* \"#utility.yul\":27237:27255   */\n      tag_646\n      tag_635\n      jump\t// in\n    tag_646:\n        /* \"#utility.yul\":27126:27257   */\n    tag_645:\n        /* \"#utility.yul\":27285:27286   */\n      dup3\n        /* \"#utility.yul\":27282:27283   */\n      dup3\n        /* \"#utility.yul\":27278:27287   */\n      mul\n        /* \"#utility.yul\":27267:27287   */\n      swap1\n      pop\n        /* \"#utility.yul\":26945:27293   */\n      swap3\n      swap2\n      pop\n      pop\n      jump\t// out\n        /* \"#utility.yul\":27299:27395   */\n    tag_448:\n        /* \"#utility.yul\":27336:27343   */\n      0x00\n        /* \"#utility.yul\":27365:27389   */\n      tag_648\n        /* \"#utility.yul\":27383:27388   */\n      dup3\n        /* \"#utility.yul\":27365:27389   */\n      tag_649\n      jump\t// in\n    tag_648:\n        /* \"#utility.yul\":27354:27389   */\n      swap1\n      pop\n        /* \"#utility.yul\":27299:27395   */\n      swap2\n      swap1\n      pop\n      jump\t// out\n        /* \"#utility.yul\":27401:27491   */\n    tag_469:\n        /* \"#utility.yul\":27435:27442   */\n      0x00\n        /* \"#utility.yul\":27478:27483   */\n      dup2\n        /* \"#utility.yul\":27471:27484   */\n      iszero\n        /* \"#utility.yul\":27464:27485   */\n      iszero\n        /* \"#utility.yul\":27453:27485   */\n      swap1\n      pop\n        /* \"#utility.yul\":27401:27491   */\n      swap2\n      swap1\n      pop\n      jump\t// out\n        /* \"#utility.yul\":27497:27574   */\n    tag_476:\n        /* \"#utility.yul\":27534:27541   */\n      0x00\n        /* \"#utility.yul\":27563:27568   */\n      dup2\n        /* \"#utility.yul\":27552:27568   */\n      swap1\n      pop\n        /* \"#utility.yul\":27497:27574   */\n      swap2\n      swap1\n      pop\n      jump\t// out\n        /* \"#utility.yul\":27580:27706   */\n    tag_649:\n        /* \"#utility.yul\":27617:27624   */\n      0x00\n        /* \"#utility.yul\":27657:27699   */\n      0xffffffffffffffffffffffffffffffffffffffff\n        /* \"#utility.yul\":27650:27655   */\n      dup3\n        /* \"#utility.yul\":27646:27700   */\n      and\n        /* \"#utility.yul\":27635:27700   */\n      swap1\n      pop\n        /* \"#utility.yul\":27580:27706   */\n      swap2\n      swap1\n      pop\n      jump\t// out\n        /* \"#utility.yul\":27712:27789   */\n    tag_559:\n        /* \"#utility.yul\":27749:27756   */\n      0x00\n        /* \"#utility.yul\":27778:27783   */\n      dup2\n        /* \"#utility.yul\":27767:27783   */\n      swap1\n      pop\n        /* \"#utility.yul\":27712:27789   */\n      swap2\n      swap1\n      pop\n      jump\t// out\n        /* \"#utility.yul\":27795:27881   */\n    tag_654:\n        /* \"#utility.yul\":27830:27837   */\n      0x00\n        /* \"#utility.yul\":27870:27874   */\n      0xff\n        /* \"#utility.yul\":27863:27868   */\n      dup3\n        /* \"#utility.yul\":27859:27875   */\n      and\n        /* \"#utility.yul\":27848:27875   */\n      swap1\n      pop\n        /* \"#utility.yul\":27795:27881   */\n      swap2\n      swap1\n      pop\n      jump\t// out\n        /* \"#utility.yul\":27887:28041   */\n    tag_344:\n        /* \"#utility.yul\":27971:27977   */\n      dup3\n        /* \"#utility.yul\":27966:27969   */\n      dup2\n        /* \"#utility.yul\":27961:27964   */\n      dup4\n        /* \"#utility.yul\":27948:27978   */\n      calldatacopy\n        /* \"#utility.yul\":28033:28034   */\n      0x00\n        /* \"#utility.yul\":28024:28030   */\n      dup4\n        /* \"#utility.yul\":28019:28022   */\n      dup4\n        /* \"#utility.yul\":28015:28031   */\n      add\n        /* \"#utility.yul\":28008:28035   */\n      mstore\n        /* \"#utility.yul\":27887:28041   */\n      pop\n      pop\n      pop\n      jump\t// out\n        /* \"#utility.yul\":28047:28354   */\n    tag_489:\n        /* \"#utility.yul\":28115:28116   */\n      0x00\n        /* \"#utility.yul\":28125:28238   */\n    tag_658:\n        /* \"#utility.yul\":28139:28145   */\n      dup4\n        /* \"#utility.yul\":28136:28137   */\n      dup2\n        /* \"#utility.yul\":28133:28146   */\n      lt\n        /* \"#utility.yul\":28125:28238   */\n      iszero\n      tag_660\n      jumpi\n        /* \"#utility.yul\":28224:28225   */\n      dup1\n        /* \"#utility.yul\":28219:28222   */\n      dup3\n        /* \"#utility.yul\":28215:28226   */\n      add\n        /* \"#utility.yul\":28209:28227   */\n      mload\n        /* \"#utility.yul\":28205:28206   */\n      dup2\n        /* \"#utility.yul\":28200:28203   */\n      dup5\n        /* \"#utility.yul\":28196:28207   */\n      add\n        /* \"#utility.yul\":28189:28228   */\n      mstore\n        /* \"#utility.yul\":28161:28163   */\n      0x20\n        /* \"#utility.yul\":28158:28159   */\n      dup2\n        /* \"#utility.yul\":28154:28164   */\n      add\n        /* \"#utility.yul\":28149:28164   */\n      swap1\n      pop\n        /* \"#utility.yul\":28125:28238   */\n      jump(tag_658)\n    tag_660:\n        /* \"#utility.yul\":28256:28262   */\n      dup4\n        /* \"#utility.yul\":28253:28254   */\n      dup2\n        /* \"#utility.yul\":28250:28263   */\n      gt\n        /* \"#utility.yul\":28247:28348   */\n      iszero\n      tag_661\n      jumpi\n        /* \"#utility.yul\":28336:28337   */\n      0x00\n        /* \"#utility.yul\":28327:28333   */\n      dup5\n        /* \"#utility.yul\":28322:28325   */\n      dup5\n        /* \"#utility.yul\":28318:28334   */\n      add\n        /* \"#utility.yul\":28311:28338   */\n      mstore\n        /* \"#utility.yul\":28247:28348   */\n    tag_661:\n        /* \"#utility.yul\":28096:28354   */\n      pop\n        /* \"#utility.yul\":28047:28354   */\n      pop\n      pop\n      pop\n      jump\t// out\n        /* \"#utility.yul\":28360:28680   */\n    tag_137:\n        /* \"#utility.yul\":28404:28410   */\n      0x00\n        /* \"#utility.yul\":28441:28442   */\n      0x02\n        /* \"#utility.yul\":28435:28439   */\n      dup3\n        /* \"#utility.yul\":28431:28443   */\n      div\n        /* \"#utility.yul\":28421:28443   */\n      swap1\n      pop\n        /* \"#utility.yul\":28488:28489   */\n      0x01\n        /* \"#utility.yul\":28482:28486   */\n      dup3\n        /* \"#utility.yul\":28478:28490   */\n      and\n        /* \"#utility.yul\":28509:28527   */\n      dup1\n        /* \"#utility.yul\":28499:28580   */\n      tag_663\n      jumpi\n        /* \"#utility.yul\":28565:28569   */\n      0x7f\n        /* \"#utility.yul\":28557:28563   */\n      dup3\n        /* \"#utility.yul\":28553:28570   */\n      and\n        /* \"#utility.yul\":28543:28570   */\n      swap2\n      pop\n        /* \"#utility.yul\":28499:28580   */\n    tag_663:\n        /* \"#utility.yul\":28627:28629   */\n      0x20\n        /* \"#utility.yul\":28619:28625   */\n      dup3\n        /* \"#utility.yul\":28616:28630   */\n      lt\n        /* \"#utility.yul\":28596:28614   */\n      dup2\n        /* \"#utility.yul\":28593:28631   */\n      eq\n        /* \"#utility.yul\":28590:28674   */\n      iszero\n      tag_664\n      jumpi\n        /* \"#utility.yul\":28646:28664   */\n      tag_665\n      tag_666\n      jump\t// in\n    tag_665:\n        /* \"#utility.yul\":28590:28674   */\n    tag_664:\n        /* \"#utility.yul\":28411:28680   */\n      pop\n        /* \"#utility.yul\":28360:28680   */\n      swap2\n      swap1\n      pop\n      jump\t// out\n        /* \"#utility.yul\":28686:28967   */\n    tag_616:\n        /* \"#utility.yul\":28769:28796   */\n      tag_668\n        /* \"#utility.yul\":28791:28795   */\n      dup3\n        /* \"#utility.yul\":28769:28796   */\n      tag_491\n      jump\t// in\n    tag_668:\n        /* \"#utility.yul\":28761:28767   */\n      dup2\n        /* \"#utility.yul\":28757:28797   */\n      add\n        /* \"#utility.yul\":28899:28905   */\n      dup2\n        /* \"#utility.yul\":28887:28897   */\n      dup2\n        /* \"#utility.yul\":28884:28906   */\n      lt\n        /* \"#utility.yul\":28863:28881   */\n      0xffffffffffffffff\n        /* \"#utility.yul\":28851:28861   */\n      dup3\n        /* \"#utility.yul\":28848:28882   */\n      gt\n        /* \"#utility.yul\":28845:28907   */\n      or\n        /* \"#utility.yul\":28842:28930   */\n      iszero\n      tag_669\n      jumpi\n        /* \"#utility.yul\":28910:28928   */\n      tag_670\n      tag_621\n      jump\t// in\n    tag_670:\n        /* \"#utility.yul\":28842:28930   */\n    tag_669:\n        /* \"#utility.yul\":28950:28960   */\n      dup1\n        /* \"#utility.yul\":28946:28948   */\n      0x40\n        /* \"#utility.yul\":28939:28961   */\n      mstore\n        /* \"#utility.yul\":28729:28967   */\n      pop\n        /* \"#utility.yul\":28686:28967   */\n      pop\n      pop\n      jump\t// out\n        /* \"#utility.yul\":28973:29140   */\n    tag_284:\n        /* \"#utility.yul\":29010:29013   */\n      0x00\n        /* \"#utility.yul\":29033:29055   */\n      tag_672\n        /* \"#utility.yul\":29049:29054   */\n      dup3\n        /* \"#utility.yul\":29033:29055   */\n      tag_654\n      jump\t// in\n    tag_672:\n        /* \"#utility.yul\":29024:29055   */\n      swap2\n      pop\n        /* \"#utility.yul\":29077:29081   */\n      0xff\n        /* \"#utility.yul\":29070:29075   */\n      dup3\n        /* \"#utility.yul\":29067:29082   */\n      eq\n        /* \"#utility.yul\":29064:29105   */\n      iszero\n      tag_673\n      jumpi\n        /* \"#utility.yul\":29085:29103   */\n      tag_674\n      tag_635\n      jump\t// in\n    tag_674:\n        /* \"#utility.yul\":29064:29105   */\n    tag_673:\n        /* \"#utility.yul\":29132:29133   */\n      0x01\n        /* \"#utility.yul\":29125:29130   */\n      dup3\n        /* \"#utility.yul\":29121:29134   */\n      add\n        /* \"#utility.yul\":29114:29134   */\n      swap1\n      pop\n        /* \"#utility.yul\":28973:29140   */\n      swap2\n      swap1\n      pop\n      jump\t// out\n        /* \"#utility.yul\":29146:29326   */\n    tag_635:\n        /* \"#utility.yul\":29194:29271   */\n      0x4e487b7100000000000000000000000000000000000000000000000000000000\n        /* \"#utility.yul\":29191:29192   */\n      0x00\n        /* \"#utility.yul\":29184:29272   */\n      mstore\n        /* \"#utility.yul\":29291:29295   */\n      0x11\n        /* \"#utility.yul\":29288:29289   */\n      0x04\n        /* \"#utility.yul\":29281:29296   */\n      mstore\n        /* \"#utility.yul\":29315:29319   */\n      0x24\n        /* \"#utility.yul\":29312:29313   */\n      0x00\n        /* \"#utility.yul\":29305:29320   */\n      revert\n        /* \"#utility.yul\":29332:29512   */\n    tag_641:\n        /* \"#utility.yul\":29380:29457   */\n      0x4e487b7100000000000000000000000000000000000000000000000000000000\n        /* \"#utility.yul\":29377:29378   */\n      0x00\n        /* \"#utility.yul\":29370:29458   */\n      mstore\n        /* \"#utility.yul\":29477:29481   */\n      0x12\n        /* \"#utility.yul\":29474:29475   */\n      0x04\n        /* \"#utility.yul\":29467:29482   */\n      mstore\n        /* \"#utility.yul\":29501:29505   */\n      0x24\n        /* \"#utility.yul\":29498:29499   */\n      0x00\n        /* \"#utility.yul\":29491:29506   */\n      revert\n        /* \"#utility.yul\":29518:29698   */\n    tag_666:\n        /* \"#utility.yul\":29566:29643   */\n      0x4e487b7100000000000000000000000000000000000000000000000000000000\n        /* \"#utility.yul\":29563:29564   */\n      0x00\n        /* \"#utility.yul\":29556:29644   */\n      mstore\n        /* \"#utility.yul\":29663:29667   */\n      0x22\n        /* \"#utility.yul\":29660:29661   */\n      0x04\n        /* \"#utility.yul\":29653:29668   */\n      mstore\n        /* \"#utility.yul\":29687:29691   */\n      0x24\n        /* \"#utility.yul\":29684:29685   */\n      0x00\n        /* \"#utility.yul\":29677:29692   */\n      revert\n        /* \"#utility.yul\":29704:29884   */\n    tag_273:\n        /* \"#utility.yul\":29752:29829   */\n      0x4e487b7100000000000000000000000000000000000000000000000000000000\n        /* \"#utility.yul\":29749:29750   */\n      0x00\n        /* \"#utility.yul\":29742:29830   */\n      mstore\n        /* \"#utility.yul\":29849:29853   */\n      0x32\n        /* \"#utility.yul\":29846:29847   */\n      0x04\n        /* \"#utility.yul\":29839:29854   */\n      mstore\n        /* \"#utility.yul\":29873:29877   */\n      0x24\n        /* \"#utility.yul\":29870:29871   */\n      0x00\n        /* \"#utility.yul\":29863:29878   */\n      revert\n        /* \"#utility.yul\":29890:30070   */\n    tag_621:\n        /* \"#utility.yul\":29938:30015   */\n      0x4e487b7100000000000000000000000000000000000000000000000000000000\n        /* \"#utility.yul\":29935:29936   */\n      0x00\n        /* \"#utility.yul\":29928:30016   */\n      mstore\n        /* \"#utility.yul\":30035:30039   */\n      0x41\n        /* \"#utility.yul\":30032:30033   */\n      0x04\n        /* \"#utility.yul\":30025:30040   */\n      mstore\n        /* \"#utility.yul\":30059:30063   */\n      0x24\n        /* \"#utility.yul\":30056:30057   */\n      0x00\n        /* \"#utility.yul\":30049:30064   */\n      revert\n        /* \"#utility.yul\":30076:30193   */\n    tag_360:\n        /* \"#utility.yul\":30185:30186   */\n      0x00\n        /* \"#utility.yul\":30182:30183   */\n      dup1\n        /* \"#utility.yul\":30175:30187   */\n      revert\n        /* \"#utility.yul\":30199:30316   */\n    tag_357:\n        /* \"#utility.yul\":30308:30309   */\n      0x00\n        /* \"#utility.yul\":30305:30306   */\n      dup1\n        /* \"#utility.yul\":30298:30310   */\n      revert\n        /* \"#utility.yul\":30322:30439   */\n    tag_363:\n        /* \"#utility.yul\":30431:30432   */\n      0x00\n        /* \"#utility.yul\":30428:30429   */\n      dup1\n        /* \"#utility.yul\":30421:30433   */\n      revert\n        /* \"#utility.yul\":30445:30562   */\n    tag_342:\n        /* \"#utility.yul\":30554:30555   */\n      0x00\n        /* \"#utility.yul\":30551:30552   */\n      dup1\n        /* \"#utility.yul\":30544:30556   */\n      revert\n        /* \"#utility.yul\":30568:30685   */\n    tag_380:\n        /* \"#utility.yul\":30677:30678   */\n      0x00\n        /* \"#utility.yul\":30674:30675   */\n      dup1\n        /* \"#utility.yul\":30667:30679   */\n      revert\n        /* \"#utility.yul\":30691:30808   */\n    tag_376:\n        /* \"#utility.yul\":30800:30801   */\n      0x00\n        /* \"#utility.yul\":30797:30798   */\n      dup1\n        /* \"#utility.yul\":30790:30802   */\n      revert\n        /* \"#utility.yul\":30814:30916   */\n    tag_491:\n        /* \"#utility.yul\":30855:30861   */\n      0x00\n        /* \"#utility.yul\":30906:30908   */\n      0x1f\n        /* \"#utility.yul\":30902:30909   */\n      not\n        /* \"#utility.yul\":30897:30899   */\n      0x1f\n        /* \"#utility.yul\":30890:30895   */\n      dup4\n        /* \"#utility.yul\":30886:30900   */\n      add\n        /* \"#utility.yul\":30882:30910   */\n      and\n        /* \"#utility.yul\":30872:30910   */\n      swap1\n      pop\n        /* \"#utility.yul\":30814:30916   */\n      swap2\n      swap1\n      pop\n      jump\t// out\n        /* \"#utility.yul\":30922:31103   */\n    tag_501:\n        /* \"#utility.yul\":31062:31095   */\n      0x526563697069656e7420697320616c7265616479207265676973746572656400\n        /* \"#utility.yul\":31058:31059   */\n      0x00\n        /* \"#utility.yul\":31050:31056   */\n      dup3\n        /* \"#utility.yul\":31046:31060   */\n      add\n        /* \"#utility.yul\":31039:31096   */\n      mstore\n        /* \"#utility.yul\":30922:31103   */\n      pop\n      jump\t// out\n        /* \"#utility.yul\":31109:31284   */\n    tag_506:\n        /* \"#utility.yul\":31249:31276   */\n      0x50726f706f73616c20616c726561647920637265617465642100000000000000\n        /* \"#utility.yul\":31245:31246   */\n      0x00\n        /* \"#utility.yul\":31237:31243   */\n      dup3\n        /* \"#utility.yul\":31233:31247   */\n      add\n        /* \"#utility.yul\":31226:31277   */\n      mstore\n        /* \"#utility.yul\":31109:31284   */\n      pop\n      jump\t// out\n        /* \"#utility.yul\":31290:31515   */\n    tag_511:\n        /* \"#utility.yul\":31430:31464   */\n      0x596f75206172656e277420617574686f72697a6520746f20636f6d70696c6520\n        /* \"#utility.yul\":31426:31427   */\n      0x00\n        /* \"#utility.yul\":31418:31424   */\n      dup3\n        /* \"#utility.yul\":31414:31428   */\n      add\n        /* \"#utility.yul\":31407:31465   */\n      mstore\n        /* \"#utility.yul\":31499:31507   */\n      0x42756e646c650000000000000000000000000000000000000000000000000000\n        /* \"#utility.yul\":31494:31496   */\n      0x20\n        /* \"#utility.yul\":31486:31492   */\n      dup3\n        /* \"#utility.yul\":31482:31497   */\n      add\n        /* \"#utility.yul\":31475:31508   */\n      mstore\n        /* \"#utility.yul\":31290:31515   */\n      pop\n      jump\t// out\n        /* \"#utility.yul\":31521:31699   */\n    tag_516:\n        /* \"#utility.yul\":31661:31691   */\n      0x596f7520616c72656164792073656e74206120726573706f6e73652e00000000\n        /* \"#utility.yul\":31657:31658   */\n      0x00\n        /* \"#utility.yul\":31649:31655   */\n      dup3\n        /* \"#utility.yul\":31645:31659   */\n      add\n        /* \"#utility.yul\":31638:31692   */\n      mstore\n        /* \"#utility.yul\":31521:31699   */\n      pop\n      jump\t// out\n        /* \"#utility.yul\":31705:31876   */\n    tag_521:\n        /* \"#utility.yul\":31845:31868   */\n      0x496e69746961746f722063616e277420766f7465210000000000000000000000\n        /* \"#utility.yul\":31841:31842   */\n      0x00\n        /* \"#utility.yul\":31833:31839   */\n      dup3\n        /* \"#utility.yul\":31829:31843   */\n      add\n        /* \"#utility.yul\":31822:31869   */\n      mstore\n        /* \"#utility.yul\":31705:31876   */\n      pop\n      jump\t// out\n        /* \"#utility.yul\":31882:32062   */\n    tag_526:\n        /* \"#utility.yul\":32022:32054   */\n      0x596f7520617265206e6f74207265676973746572656420746f20766f74650000\n        /* \"#utility.yul\":32018:32019   */\n      0x00\n        /* \"#utility.yul\":32010:32016   */\n      dup3\n        /* \"#utility.yul\":32006:32020   */\n      add\n        /* \"#utility.yul\":31999:32055   */\n      mstore\n        /* \"#utility.yul\":31882:32062   */\n      pop\n      jump\t// out\n        /* \"#utility.yul\":32068:32291   */\n    tag_531:\n        /* \"#utility.yul\":32208:32242   */\n      0x50726f706f73616c206861732072656163686564206974732065787069727920\n        /* \"#utility.yul\":32204:32205   */\n      0x00\n        /* \"#utility.yul\":32196:32202   */\n      dup3\n        /* \"#utility.yul\":32192:32206   */\n      add\n        /* \"#utility.yul\":32185:32243   */\n      mstore\n        /* \"#utility.yul\":32277:32283   */\n      0x6461746500000000000000000000000000000000000000000000000000000000\n        /* \"#utility.yul\":32272:32274   */\n      0x20\n        /* \"#utility.yul\":32264:32270   */\n      dup3\n        /* \"#utility.yul\":32260:32275   */\n      add\n        /* \"#utility.yul\":32253:32284   */\n      mstore\n        /* \"#utility.yul\":32068:32291   */\n      pop\n      jump\t// out\n        /* \"#utility.yul\":32297:32524   */\n    tag_536:\n        /* \"#utility.yul\":32437:32471   */\n      0x4f6e6c7920696e69746961746f722063616e2072656769737465722061207265\n        /* \"#utility.yul\":32433:32434   */\n      0x00\n        /* \"#utility.yul\":32425:32431   */\n      dup3\n        /* \"#utility.yul\":32421:32435   */\n      add\n        /* \"#utility.yul\":32414:32472   */\n      mstore\n        /* \"#utility.yul\":32506:32516   */\n      0x63697069656e742e000000000000000000000000000000000000000000000000\n        /* \"#utility.yul\":32501:32503   */\n      0x20\n        /* \"#utility.yul\":32493:32499   */\n      dup3\n        /* \"#utility.yul\":32489:32504   */\n      add\n        /* \"#utility.yul\":32482:32517   */\n      mstore\n        /* \"#utility.yul\":32297:32524   */\n      pop\n      jump\t// out\n        /* \"#utility.yul\":32530:32712   */\n    tag_541:\n        /* \"#utility.yul\":32670:32704   */\n      0x5665726469637420686173206e6f74206265656e207265616368656420796574\n        /* \"#utility.yul\":32666:32667   */\n      0x00\n        /* \"#utility.yul\":32658:32664   */\n      dup3\n        /* \"#utility.yul\":32654:32668   */\n      add\n        /* \"#utility.yul\":32647:32705   */\n      mstore\n        /* \"#utility.yul\":32530:32712   */\n      pop\n      jump\t// out\n        /* \"#utility.yul\":32718:32886   */\n    tag_546:\n        /* \"#utility.yul\":32858:32878   */\n      0x566f74696e672068617320657870697265640000000000000000000000000000\n        /* \"#utility.yul\":32854:32855   */\n      0x00\n        /* \"#utility.yul\":32846:32852   */\n      dup3\n        /* \"#utility.yul\":32842:32856   */\n      add\n        /* \"#utility.yul\":32835:32879   */\n      mstore\n        /* \"#utility.yul\":32718:32886   */\n      pop\n      jump\t// out\n        /* \"#utility.yul\":32892:33116   */\n    tag_551:\n        /* \"#utility.yul\":33032:33066   */\n      0x436f6e73656e7375732068617320616c7265616479206265656e2063616c6375\n        /* \"#utility.yul\":33028:33029   */\n      0x00\n        /* \"#utility.yul\":33020:33026   */\n      dup3\n        /* \"#utility.yul\":33016:33030   */\n      add\n        /* \"#utility.yul\":33009:33067   */\n      mstore\n        /* \"#utility.yul\":33101:33108   */\n      0x6c61746564000000000000000000000000000000000000000000000000000000\n        /* \"#utility.yul\":33096:33098   */\n      0x20\n        /* \"#utility.yul\":33088:33094   */\n      dup3\n        /* \"#utility.yul\":33084:33099   */\n      add\n        /* \"#utility.yul\":33077:33109   */\n      mstore\n        /* \"#utility.yul\":32892:33116   */\n      pop\n      jump\t// out\n        /* \"#utility.yul\":33122:33244   */\n    tag_348:\n        /* \"#utility.yul\":33195:33219   */\n      tag_699\n        /* \"#utility.yul\":33213:33218   */\n      dup2\n        /* \"#utility.yul\":33195:33219   */\n      tag_448\n      jump\t// in\n    tag_699:\n        /* \"#utility.yul\":33188:33193   */\n      dup2\n        /* \"#utility.yul\":33185:33220   */\n      eq\n        /* \"#utility.yul\":33175:33238   */\n      tag_700\n      jumpi\n        /* \"#utility.yul\":33234:33235   */\n      0x00\n        /* \"#utility.yul\":33231:33232   */\n      dup1\n        /* \"#utility.yul\":33224:33236   */\n      revert\n        /* \"#utility.yul\":33175:33238   */\n    tag_700:\n        /* \"#utility.yul\":33122:33244   */\n      pop\n      jump\t// out\n        /* \"#utility.yul\":33250:33372   */\n    tag_352:\n        /* \"#utility.yul\":33323:33347   */\n      tag_702\n        /* \"#utility.yul\":33341:33346   */\n      dup2\n        /* \"#utility.yul\":33323:33347   */\n      tag_476\n      jump\t// in\n    tag_702:\n        /* \"#utility.yul\":33316:33321   */\n      dup2\n        /* \"#utility.yul\":33313:33348   */\n      eq\n        /* \"#utility.yul\":33303:33366   */\n      tag_703\n      jumpi\n        /* \"#utility.yul\":33362:33363   */\n      0x00\n        /* \"#utility.yul\":33359:33360   */\n      dup1\n        /* \"#utility.yul\":33352:33364   */\n      revert\n        /* \"#utility.yul\":33303:33366   */\n    tag_703:\n        /* \"#utility.yul\":33250:33372   */\n      pop\n      jump\t// out\n        /* \"#utility.yul\":33378:33500   */\n    tag_372:\n        /* \"#utility.yul\":33451:33475   */\n      tag_705\n        /* \"#utility.yul\":33469:33474   */\n      dup2\n        /* \"#utility.yul\":33451:33475   */\n      tag_559\n      jump\t// in\n    tag_705:\n        /* \"#utility.yul\":33444:33449   */\n      dup2\n        /* \"#utility.yul\":33441:33476   */\n      eq\n        /* \"#utility.yul\":33431:33494   */\n      tag_706\n      jumpi\n        /* \"#utility.yul\":33490:33491   */\n      0x00\n        /* \"#utility.yul\":33487:33488   */\n      dup1\n        /* \"#utility.yul\":33480:33492   */\n      revert\n        /* \"#utility.yul\":33431:33494   */\n    tag_706:\n        /* \"#utility.yul\":33378:33500   */\n      pop\n      jump\t// out\n\n    auxdata: 0xa2646970667358221220425999f70108b81bcc6f85e3ee7074eee0a6a5700b56ff68080975b73d21b22c64736f6c63430008070033\n}\n",
				"bytecode": {
					"linkReferences": {},
					"object": "608060405234801561001057600080fd5b506139e0806100206000396000f3fe608060405234801561001057600080fd5b506004361061014d5760003560e01c8063883a9673116100c3578063bb9a31f31161007c578063bb9a31f31461043b578063c5539b031461046b578063c9bc42ed1461049b578063e5c8d65f146104cc578063ec548680146104fc578063fe2904231461052c5761014d565b8063883a96731461032b5780638a3b0d02146103475780638f6a35b714610377578063931da6b3146103a95780639d6a3125146103d9578063a6acce351461040b5761014d565b806333a0b0ab1161011557806333a0b0ab1461022e57806337f2e190146102605780633d63af0e146102935780634205717d146102af578063538b3cc6146102df5780637aa18f881461030f5761014d565b806306699b011461015257806311c2b4131461018257806317072d6b146101b2578063233d0fa1146101ce57806331189fe2146101fe575b600080fd5b61016c60048036038101906101679190612b33565b61055c565b6040516101799190613045565b60405180910390f35b61019c60048036038101906101979190612a12565b6105c0565b6040516101a99190613157565b60405180910390f35b6101cc60048036038101906101c79190612ab7565b610676565b005b6101e860048036038101906101e39190612a12565b611010565b6040516101f59190613060565b60405180910390f35b61021860048036038101906102139190612a12565b611046565b6040516102259190613060565b60405180910390f35b61024860048036038101906102439190612a5b565b61107c565b6040516102579392919061307b565b60405180910390f35b61027a600480360381019061027591906129c5565b611103565b60405161028a94939291906130e9565b60405180910390f35b6102ad60048036038101906102a89190612965565b61132b565b005b6102c960048036038101906102c49190612a12565b611783565b6040516102d69190613310565b60405180910390f35b6102f960048036038101906102f49190612a12565b6117b1565b6040516103069190613310565b60405180910390f35b61032960048036038101906103249190612c12565b6117df565b005b610345600480360381019061034091906129c5565b611bd0565b005b610361600480360381019061035c9190612a12565b6121ee565b60405161036e9190613157565b60405180910390f35b610391600480360381019061038c9190612b33565b6122a4565b6040516103a09392919061307b565b60405180910390f35b6103c360048036038101906103be9190612a12565b612337565b6040516103d09190613310565b60405180910390f35b6103f360048036038101906103ee9190612b8f565b612365565b604051610402939291906130b2565b60405180910390f35b61042560048036038101906104209190612a12565b612496565b604051610432919061313c565b60405180910390f35b61045560048036038101906104509190612a12565b6124c4565b6040516104629190613310565b60405180910390f35b61048560048036038101906104809190612a12565b6124f2565b6040516104929190613310565b60405180910390f35b6104b560048036038101906104b091906129c5565b612520565b6040516104c3929190613179565b60405180910390f35b6104e660048036038101906104e19190612a12565b612686565b6040516104f39190613045565b60405180910390f35b610516600480360381019061051191906129c5565b6126cf565b6040516105239190613060565b60405180910390f35b61054660048036038101906105419190612a12565b612707565b6040516105539190613157565b60405180910390f35b600e82805160208101820180518482526020830160208501208183528095505050505050818154811061058e57600080fd5b906000526020600020016000915091509054906101000a900473ffffffffffffffffffffffffffffffffffffffff1681565b60018180516020810182018051848252602083016020850120818352809550505050505060009150905080546105f590613563565b80601f016020809104026020016040519081016040528092919081815260200182805461062190613563565b801561066e5780601f106106435761010080835404028352916020019161066e565b820191906000526020600020905b81548152906001019060200180831161065157829003601f168201915b505050505081565b60048282604051610688929190613015565b90815260200160405180910390205442106106d8576040517f08c379a00000000000000000000000000000000000000000000000000000000081526004016106cf906132d0565b60405180910390fd5b600073ffffffffffffffffffffffffffffffffffffffff16600c8383604051610702929190613015565b908152602001604051809103902060003373ffffffffffffffffffffffffffffffffffffffff1673ffffffffffffffffffffffffffffffffffffffff16815260200190815260200160002060000160029054906101000a900473ffffffffffffffffffffffffffffffffffffffff1673ffffffffffffffffffffffffffffffffffffffff1614156107c8576040517f08c379a00000000000000000000000000000000000000000000000000000000081526004016107bf90613250565b60405180910390fd5b600c82826040516107da929190613015565b908152602001604051809103902060003373ffffffffffffffffffffffffffffffffffffffff1673ffffffffffffffffffffffffffffffffffffffff16815260200190815260200160002060000160009054906101000a900460ff1615610876576040517f08c379a000000000000000000000000000000000000000000000000000000000815260040161086d90613210565b60405180910390fd5b6040518060400160405280600981526020017f6920617070726f766500000000000000000000000000000000000000000000008152508051906020012083805190602001201415610b8d576001600c83836040516108d5929190613015565b908152602001604051809103902060003373ffffffffffffffffffffffffffffffffffffffff1673ffffffffffffffffffffffffffffffffffffffff16815260200190815260200160002060000160006101000a81548160ff0219169083151502179055506001600c838360405161094e929190613015565b908152602001604051809103902060003373ffffffffffffffffffffffffffffffffffffffff1673ffffffffffffffffffffffffffffffffffffffff16815260200190815260200160002060000160016101000a81548160ff0219169083151502179055506001600683836040516109c7929190613015565b908152602001604051809103902060008282546109e491906133e1565b925050819055506001600283836040516109ff929190613015565b90815260200160405180910390206000828254610a1c91906133e1565b92505081905550600d8282604051610a35929190613015565b9081526020016040518091039020600c8383604051610a55929190613015565b908152602001604051809103902060003373ffffffffffffffffffffffffffffffffffffffff1673ffffffffffffffffffffffffffffffffffffffff168152602001908152602001600020908060018154018082558091505060019003906000526020600020016000909190919091506000820160009054906101000a900460ff168160000160006101000a81548160ff0219169083151502179055506000820160019054906101000a900460ff168160000160016101000a81548160ff0219169083151502179055506000820160029054906101000a900473ffffffffffffffffffffffffffffffffffffffff168160000160026101000a81548173ffffffffffffffffffffffffffffffffffffffff021916908373ffffffffffffffffffffffffffffffffffffffff160217905550505061100b565b6040518060400160405280600c81526020017f6920646973617070726f766500000000000000000000000000000000000000008152508051906020012083805190602001201415610df3576001600c8383604051610bec929190613015565b908152602001604051809103902060003373ffffffffffffffffffffffffffffffffffffffff1673ffffffffffffffffffffffffffffffffffffffff16815260200190815260200160002060000160006101000a81548160ff021916908315150217905550600160028383604051610c65929190613015565b90815260200160405180910390206000828254610c8291906133e1565b92505081905550600d8282604051610c9b929190613015565b9081526020016040518091039020600c8383604051610cbb929190613015565b908152602001604051809103902060003373ffffffffffffffffffffffffffffffffffffffff1673ffffffffffffffffffffffffffffffffffffffff168152602001908152602001600020908060018154018082558091505060019003906000526020600020016000909190919091506000820160009054906101000a900460ff168160000160006101000a81548160ff0219169083151502179055506000820160019054906101000a900460ff168160000160016101000a81548160ff0219169083151502179055506000820160029054906101000a900473ffffffffffffffffffffffffffffffffffffffff168160000160026101000a81548173ffffffffffffffffffffffffffffffffffffffff021916908373ffffffffffffffffffffffffffffffffffffffff160217905550505061100a565b6001600c8383604051610e07929190613015565b908152602001604051809103902060003373ffffffffffffffffffffffffffffffffffffffff1673ffffffffffffffffffffffffffffffffffffffff16815260200190815260200160002060000160006101000a81548160ff021916908315150217905550600160028383604051610e80929190613015565b90815260200160405180910390206000828254610e9d91906133e1565b92505081905550600d8282604051610eb6929190613015565b9081526020016040518091039020600c8383604051610ed6929190613015565b908152602001604051809103902060003373ffffffffffffffffffffffffffffffffffffffff1673ffffffffffffffffffffffffffffffffffffffff168152602001908152602001600020908060018154018082558091505060019003906000526020600020016000909190919091506000820160009054906101000a900460ff168160000160006101000a81548160ff0219169083151502179055506000820160019054906101000a900460ff168160000160016101000a81548160ff0219169083151502179055506000820160029054906101000a900473ffffffffffffffffffffffffffffffffffffffff168160000160026101000a81548173ffffffffffffffffffffffffffffffffffffffff021916908373ffffffffffffffffffffffffffffffffffffffff16021790555050505b5b505050565b6009818051602081018201805184825260208301602085012081835280955050505050506000915054906101000a900460ff1681565b600a818051602081018201805184825260208301602085012081835280955050505050506000915054906101000a900460ff1681565b600c82805160208101820180518482526020830160208501208183528095505050505050602052806000526040600020600091509150508060000160009054906101000a900460ff16908060000160019054906101000a900460ff16908060000160029054906101000a900473ffffffffffffffffffffffffffffffffffffffff16905083565b60006060600060606004868660405161111d929190613015565b90815260200160405180910390205442101561116e576040517f08c379a0000000000000000000000000000000000000000000000000000000008152600401611165906132b0565b60405180910390fd5b6000600d8787604051611182929190613015565b9081526020016040518091039020805480602002602001604051908101604052809291908181526020016000905b8282101561126a578382906000526020600020016040518060600160405290816000820160009054906101000a900460ff161515151581526020016000820160019054906101000a900460ff161515151581526020016000820160029054906101000a900473ffffffffffffffffffffffffffffffffffffffff1673ffffffffffffffffffffffffffffffffffffffff1673ffffffffffffffffffffffffffffffffffffffff1681525050815260200190600101906111b0565b505050509050600060098888604051611284929190613015565b908152602001604051809103902060009054906101000a900460ff1690506000600289896040516112b6929190613015565b9081526020016040518091039020549050818989838683838080601f016020809104026020016040519081016040528093929190818152602001838380828437600081840152601f19601f82011690508083019250505050505050925090919250965096509650965050505092959194509250565b6000828260405161133d929190613015565b908152602001604051809103902060009054906101000a900473ffffffffffffffffffffffffffffffffffffffff1673ffffffffffffffffffffffffffffffffffffffff163373ffffffffffffffffffffffffffffffffffffffff16146113d9576040517f08c379a00000000000000000000000000000000000000000000000000000000081526004016113d090613290565b60405180910390fd5b600082826040516113eb929190613015565b908152602001604051809103902060009054906101000a900473ffffffffffffffffffffffffffffffffffffffff1673ffffffffffffffffffffffffffffffffffffffff168373ffffffffffffffffffffffffffffffffffffffff161415611488576040517f08c379a000000000000000000000000000000000000000000000000000000000815260040161147f90613230565b60405180910390fd5b600073ffffffffffffffffffffffffffffffffffffffff16600c83836040516114b2929190613015565b908152602001604051809103902060008573ffffffffffffffffffffffffffffffffffffffff1673ffffffffffffffffffffffffffffffffffffffff16815260200190815260200160002060000160029054906101000a900473ffffffffffffffffffffffffffffffffffffffff1673ffffffffffffffffffffffffffffffffffffffff1614611577576040517f08c379a000000000000000000000000000000000000000000000000000000000815260040161156e906131b0565b60405180910390fd5b60048282604051611589929190613015565b90815260200160405180910390205442106115d9576040517f08c379a00000000000000000000000000000000000000000000000000000000081526004016115d090613270565b60405180910390fd5b600060405180606001604052806000151581526020016000151581526020018573ffffffffffffffffffffffffffffffffffffffff16815250905080600c8484604051611627929190613015565b908152602001604051809103902060008673ffffffffffffffffffffffffffffffffffffffff1673ffffffffffffffffffffffffffffffffffffffff16815260200190815260200160002060008201518160000160006101000a81548160ff02191690831515021790555060208201518160000160016101000a81548160ff02191690831515021790555060408201518160000160026101000a81548173ffffffffffffffffffffffffffffffffffffffff021916908373ffffffffffffffffffffffffffffffffffffffff160217905550905050600e838360405161170e929190613015565b9081526020016040518091039020849080600181540180825580915050600190039060005260206000200160009091909190916101000a81548173ffffffffffffffffffffffffffffffffffffffff021916908373ffffffffffffffffffffffffffffffffffffffff16021790555050505050565b6002818051602081018201805184825260208301602085012081835280955050505050506000915090505481565b6004818051602081018201805184825260208301602085012081835280955050505050506000915090505481565b600073ffffffffffffffffffffffffffffffffffffffff16600087604051611807919061302e565b908152602001604051809103902060009054906101000a900473ffffffffffffffffffffffffffffffffffffffff1673ffffffffffffffffffffffffffffffffffffffff161461188c576040517f08c379a0000000000000000000000000000000000000000000000000000000008152600401611883906131d0565b60405180910390fd5b600060028760405161189e919061302e565b90815260200160405180910390208190555084426118bc91906133e1565b6004876040516118cc919061302e565b908152602001604051809103902081905550856001836040516118ef919061302e565b908152602001604051809103902090805190602001906119109291906127bd565b506000600a87604051611923919061302e565b908152602001604051809103902060006101000a81548160ff02191690831515021790555083600787604051611959919061302e565b9081526020016040518091039020819055508360078360405161197c919061302e565b90815260200160405180910390208190555060006009876040516119a0919061302e565b908152602001604051809103902060006101000a81548160ff021916908315150217905550846003876040516119d6919061302e565b908152602001604051809103902081905550846003836040516119f9919061302e565b90815260200160405180910390208190555082600587604051611a1c919061302e565b90815260200160405180910390208190555082600583604051611a3f919061302e565b90815260200160405180910390208190555081600b87604051611a62919061302e565b90815260200160405180910390209080519060200190611a839291906127bd565b5080600887604051611a95919061302e565b90815260200160405180910390209080519060200190611ab69291906127bd565b5080600883604051611ac8919061302e565b90815260200160405180910390209080519060200190611ae99291906127bd565b506000600687604051611afc919061302e565b90815260200160405180910390208190555033600087604051611b1f919061302e565b908152602001604051809103902060006101000a81548173ffffffffffffffffffffffffffffffffffffffff021916908373ffffffffffffffffffffffffffffffffffffffff16021790555033600083604051611b7c919061302e565b908152602001604051809103902060006101000a81548173ffffffffffffffffffffffffffffffffffffffff021916908373ffffffffffffffffffffffffffffffffffffffff160217905550505050505050565b60048282604051611be2929190613015565b908152602001604051809103902054421015611c33576040517f08c379a0000000000000000000000000000000000000000000000000000000008152600401611c2a906132b0565b60405180910390fd5b60001515600a8383604051611c49929190613015565b908152602001604051809103902060009054906101000a900460ff16151514611ca7576040517f08c379a0000000000000000000000000000000000000000000000000000000008152600401611c9e906132f0565b60405180910390fd5b60008282604051611cb9929190613015565b908152602001604051809103902060009054906101000a900473ffffffffffffffffffffffffffffffffffffffff1673ffffffffffffffffffffffffffffffffffffffff163373ffffffffffffffffffffffffffffffffffffffff161480611dce5750600073ffffffffffffffffffffffffffffffffffffffff16600c8383604051611d46929190613015565b908152602001604051809103902060003373ffffffffffffffffffffffffffffffffffffffff1673ffffffffffffffffffffffffffffffffffffffff16815260200190815260200160002060000160029054906101000a900473ffffffffffffffffffffffffffffffffffffffff1673ffffffffffffffffffffffffffffffffffffffff1614155b611e0d576040517f08c379a0000000000000000000000000000000000000000000000000000000008152600401611e04906131f0565b60405180910390fd5b60006064600e8484604051611e23929190613015565b90815260200160405180910390208054905060068585604051611e47929190613015565b908152602001604051809103902054611e609190613437565b611e6a9190613468565b905060078383604051611e7e929190613015565b9081526020016040518091039020548110611ecd57600160098484604051611ea7929190613015565b908152602001604051809103902060006101000a81548160ff0219169083151502179055505b60005b600e8484604051611ee2929190613015565b9081526020016040518091039020805490508160ff1610156121af5760001515600c8585604051611f14929190613015565b90815260200160405180910390206000600e8787604051611f36929190613015565b90815260200160405180910390208460ff1681548110611f5957611f5861367d565b5b9060005260206000200160009054906101000a900473ffffffffffffffffffffffffffffffffffffffff1673ffffffffffffffffffffffffffffffffffffffff1673ffffffffffffffffffffffffffffffffffffffff16815260200190815260200160002060000160009054906101000a900460ff161515141561219c57600d8484604051611fe9929190613015565b9081526020016040518091039020600c8585604051612009929190613015565b90815260200160405180910390206000600e878760405161202b929190613015565b90815260200160405180910390208460ff168154811061204e5761204d61367d565b5b9060005260206000200160009054906101000a900473ffffffffffffffffffffffffffffffffffffffff1673ffffffffffffffffffffffffffffffffffffffff1673ffffffffffffffffffffffffffffffffffffffff168152602001908152602001600020908060018154018082558091505060019003906000526020600020016000909190919091506000820160009054906101000a900460ff168160000160006101000a81548160ff0219169083151502179055506000820160019054906101000a900460ff168160000160016101000a81548160ff0219169083151502179055506000820160029054906101000a900473ffffffffffffffffffffffffffffffffffffffff168160000160026101000a81548173ffffffffffffffffffffffffffffffffffffffff021916908373ffffffffffffffffffffffffffffffffffffffff16021790555050505b80806121a7906135c6565b915050611ed0565b506001600a84846040516121c4929190613015565b908152602001604051809103902060006101000a81548160ff021916908315150217905550505050565b600881805160208101820180518482526020830160208501208183528095505050505050600091509050805461222390613563565b80601f016020809104026020016040519081016040528092919081815260200182805461224f90613563565b801561229c5780601f106122715761010080835404028352916020019161229c565b820191906000526020600020905b81548152906001019060200180831161227f57829003601f168201915b505050505081565b600d8280516020810182018051848252602083016020850120818352809550505050505081815481106122d657600080fd5b90600052602060002001600091509150508060000160009054906101000a900460ff16908060000160019054906101000a900460ff16908060000160029054906101000a900473ffffffffffffffffffffffffffffffffffffffff16905083565b6006818051602081018201805184825260208301602085012081835280955050505050506000915090505481565b60008060008060019050600060019050600060019050600073ffffffffffffffffffffffffffffffffffffffff1660008b6040516123a3919061302e565b908152602001604051809103902060009054906101000a900473ffffffffffffffffffffffffffffffffffffffff1673ffffffffffffffffffffffffffffffffffffffff16141561240157600180600195509550955050505061248c565b60078a604051612411919061302e565b908152602001604051809103902054891461242b57600092505b60058a60405161243b919061302e565b908152602001604051809103902054871461245557600091505b8760038b604051612466919061302e565b9081526020016040518091039020541461247f57600090505b8282829550955095505050505b9450945094915050565b6005818051602081018201805184825260208301602085012081835280955050505050506000915090505481565b6003818051602081018201805184825260208301602085012081835280955050505050506000915090505481565b6007818051602081018201805184825260208301602085012081835280955050505050506000915090505481565b60608060018484604051612535929190613015565b908152602001604051809103902060088585604051612555929190613015565b908152602001604051809103902081805461256f90613563565b80601f016020809104026020016040519081016040528092919081815260200182805461259b90613563565b80156125e85780601f106125bd576101008083540402835291602001916125e8565b820191906000526020600020905b8154815290600101906020018083116125cb57829003601f168201915b505050505091508080546125fb90613563565b80601f016020809104026020016040519081016040528092919081815260200182805461262790613563565b80156126745780601f1061264957610100808354040283529160200191612674565b820191906000526020600020905b81548152906001019060200180831161265757829003601f168201915b50505050509050915091509250929050565b6000818051602081018201805184825260208301602085012081835280955050505050506000915054906101000a900473ffffffffffffffffffffffffffffffffffffffff1681565b6000600a83836040516126e3929190613015565b908152602001604051809103902060009054906101000a900460ff16905092915050565b600b81805160208101820180518482526020830160208501208183528095505050505050600091509050805461273c90613563565b80601f016020809104026020016040519081016040528092919081815260200182805461276890613563565b80156127b55780601f1061278a576101008083540402835291602001916127b5565b820191906000526020600020905b81548152906001019060200180831161279857829003601f168201915b505050505081565b8280546127c990613563565b90600052602060002090601f0160209004810192826127eb5760008555612832565b82601f1061280457805160ff1916838001178555612832565b82800160010185558215612832579182015b82811115612831578251825591602001919060010190612816565b5b50905061283f9190612843565b5090565b5b8082111561285c576000816000905550600101612844565b5090565b600061287361286e84613350565b61332b565b90508281526020810184848401111561288f5761288e6136ea565b5b61289a848285613521565b509392505050565b6000813590506128b181613965565b92915050565b6000813590506128c68161397c565b92915050565b60008083601f8401126128e2576128e16136e0565b5b8235905067ffffffffffffffff8111156128ff576128fe6136db565b5b60208301915083600182028301111561291b5761291a6136e5565b5b9250929050565b600082601f830112612937576129366136e0565b5b8135612947848260208601612860565b91505092915050565b60008135905061295f81613993565b92915050565b60008060006040848603121561297e5761297d6136f4565b5b600061298c868287016128a2565b935050602084013567ffffffffffffffff8111156129ad576129ac6136ef565b5b6129b9868287016128cc565b92509250509250925092565b600080602083850312156129dc576129db6136f4565b5b600083013567ffffffffffffffff8111156129fa576129f96136ef565b5b612a06858286016128cc565b92509250509250929050565b600060208284031215612a2857612a276136f4565b5b600082013567ffffffffffffffff811115612a4657612a456136ef565b5b612a5284828501612922565b91505092915050565b60008060408385031215612a7257612a716136f4565b5b600083013567ffffffffffffffff811115612a9057612a8f6136ef565b5b612a9c85828601612922565b9250506020612aad858286016128a2565b9150509250929050565b600080600060408486031215612ad057612acf6136f4565b5b600084013567ffffffffffffffff811115612aee57612aed6136ef565b5b612afa86828701612922565b935050602084013567ffffffffffffffff811115612b1b57612b1a6136ef565b5b612b27868287016128cc565b92509250509250925092565b60008060408385031215612b4a57612b496136f4565b5b600083013567ffffffffffffffff811115612b6857612b676136ef565b5b612b7485828601612922565b9250506020612b8585828601612950565b9150509250929050565b60008060008060808587031215612ba957612ba86136f4565b5b600085013567ffffffffffffffff811115612bc757612bc66136ef565b5b612bd387828801612922565b9450506020612be487828801612950565b9350506040612bf587828801612950565b9250506060612c06878288016128b7565b91505092959194509250565b60008060008060008060c08789031215612c2f57612c2e6136f4565b5b600087013567ffffffffffffffff811115612c4d57612c4c6136ef565b5b612c5989828a01612922565b9650506020612c6a89828a01612950565b9550506040612c7b89828a01612950565b9450506060612c8c89828a016128b7565b935050608087013567ffffffffffffffff811115612cad57612cac6136ef565b5b612cb989828a01612922565b92505060a087013567ffffffffffffffff811115612cda57612cd96136ef565b5b612ce689828a01612922565b9150509295509295509295565b6000612cff8383612fc4565b60608301905092915050565b612d14816134c2565b82525050565b612d23816134c2565b82525050565b6000612d3482613391565b612d3e81856133b4565b9350612d4983613381565b8060005b83811015612d7a578151612d618882612cf3565b9750612d6c836133a7565b925050600181019050612d4d565b5085935050505092915050565b612d90816134d4565b82525050565b612d9f816134d4565b82525050565b612dae816134e0565b82525050565b6000612dc083856133d6565b9350612dcd838584613521565b82840190509392505050565b6000612de48261339c565b612dee81856133c5565b9350612dfe818560208601613530565b612e07816136f9565b840191505092915050565b6000612e1d8261339c565b612e2781856133d6565b9350612e37818560208601613530565b80840191505092915050565b6000612e50601f836133c5565b9150612e5b8261370a565b602082019050919050565b6000612e736019836133c5565b9150612e7e82613733565b602082019050919050565b6000612e966026836133c5565b9150612ea18261375c565b604082019050919050565b6000612eb9601c836133c5565b9150612ec4826137ab565b602082019050919050565b6000612edc6015836133c5565b9150612ee7826137d4565b602082019050919050565b6000612eff601e836133c5565b9150612f0a826137fd565b602082019050919050565b6000612f226024836133c5565b9150612f2d82613826565b604082019050919050565b6000612f456028836133c5565b9150612f5082613875565b604082019050919050565b6000612f686020836133c5565b9150612f73826138c4565b602082019050919050565b6000612f8b6012836133c5565b9150612f96826138ed565b602082019050919050565b6000612fae6025836133c5565b9150612fb982613916565b604082019050919050565b606082016000820151612fda6000850182612d87565b506020820151612fed6020850182612d87565b5060408201516130006040850182612d0b565b50505050565b61300f8161350a565b82525050565b6000613022828486612db4565b91508190509392505050565b600061303a8284612e12565b915081905092915050565b600060208201905061305a6000830184612d1a565b92915050565b60006020820190506130756000830184612d96565b92915050565b60006060820190506130906000830186612d96565b61309d6020830185612d96565b6130aa6040830184612d1a565b949350505050565b60006060820190506130c76000830186612d96565b6130d46020830185612d96565b6130e16040830184612d96565b949350505050565b60006080820190506130fe6000830187612d96565b81810360208301526131108186612dd9565b905061311f6040830185613006565b81810360608301526131318184612d29565b905095945050505050565b60006020820190506131516000830184612da5565b92915050565b600060208201905081810360008301526131718184612dd9565b905092915050565b600060408201905081810360008301526131938185612dd9565b905081810360208301526131a78184612dd9565b90509392505050565b600060208201905081810360008301526131c981612e43565b9050919050565b600060208201905081810360008301526131e981612e66565b9050919050565b6000602082019050818103600083015261320981612e89565b9050919050565b6000602082019050818103600083015261322981612eac565b9050919050565b6000602082019050818103600083015261324981612ecf565b9050919050565b6000602082019050818103600083015261326981612ef2565b9050919050565b6000602082019050818103600083015261328981612f15565b9050919050565b600060208201905081810360008301526132a981612f38565b9050919050565b600060208201905081810360008301526132c981612f5b565b9050919050565b600060208201905081810360008301526132e981612f7e565b9050919050565b6000602082019050818103600083015261330981612fa1565b9050919050565b60006020820190506133256000830184613006565b92915050565b6000613335613346565b90506133418282613595565b919050565b6000604051905090565b600067ffffffffffffffff82111561336b5761336a6136ac565b5b613374826136f9565b9050602081019050919050565b6000819050602082019050919050565b600081519050919050565b600081519050919050565b6000602082019050919050565b600082825260208201905092915050565b600082825260208201905092915050565b600081905092915050565b60006133ec8261350a565b91506133f78361350a565b9250827fffffffffffffffffffffffffffffffffffffffffffffffffffffffffffffffff0382111561342c5761342b6135f0565b5b828201905092915050565b60006134428261350a565b915061344d8361350a565b92508261345d5761345c61361f565b5b828204905092915050565b60006134738261350a565b915061347e8361350a565b9250817fffffffffffffffffffffffffffffffffffffffffffffffffffffffffffffffff04831182151516156134b7576134b66135f0565b5b828202905092915050565b60006134cd826134ea565b9050919050565b60008115159050919050565b6000819050919050565b600073ffffffffffffffffffffffffffffffffffffffff82169050919050565b6000819050919050565b600060ff82169050919050565b82818337600083830152505050565b60005b8381101561354e578082015181840152602081019050613533565b8381111561355d576000848401525b50505050565b6000600282049050600182168061357b57607f821691505b6020821081141561358f5761358e61364e565b5b50919050565b61359e826136f9565b810181811067ffffffffffffffff821117156135bd576135bc6136ac565b5b80604052505050565b60006135d182613514565b915060ff8214156135e5576135e46135f0565b5b600182019050919050565b7f4e487b7100000000000000000000000000000000000000000000000000000000600052601160045260246000fd5b7f4e487b7100000000000000000000000000000000000000000000000000000000600052601260045260246000fd5b7f4e487b7100000000000000000000000000000000000000000000000000000000600052602260045260246000fd5b7f4e487b7100000000000000000000000000000000000000000000000000000000600052603260045260246000fd5b7f4e487b7100000000000000000000000000000000000000000000000000000000600052604160045260246000fd5b600080fd5b600080fd5b600080fd5b600080fd5b600080fd5b600080fd5b6000601f19601f8301169050919050565b7f526563697069656e7420697320616c7265616479207265676973746572656400600082015250565b7f50726f706f73616c20616c726561647920637265617465642100000000000000600082015250565b7f596f75206172656e277420617574686f72697a6520746f20636f6d70696c652060008201527f42756e646c650000000000000000000000000000000000000000000000000000602082015250565b7f596f7520616c72656164792073656e74206120726573706f6e73652e00000000600082015250565b7f496e69746961746f722063616e277420766f7465210000000000000000000000600082015250565b7f596f7520617265206e6f74207265676973746572656420746f20766f74650000600082015250565b7f50726f706f73616c20686173207265616368656420697473206578706972792060008201527f6461746500000000000000000000000000000000000000000000000000000000602082015250565b7f4f6e6c7920696e69746961746f722063616e207265676973746572206120726560008201527f63697069656e742e000000000000000000000000000000000000000000000000602082015250565b7f5665726469637420686173206e6f74206265656e207265616368656420796574600082015250565b7f566f74696e672068617320657870697265640000000000000000000000000000600082015250565b7f436f6e73656e7375732068617320616c7265616479206265656e2063616c637560008201527f6c61746564000000000000000000000000000000000000000000000000000000602082015250565b61396e816134c2565b811461397957600080fd5b50565b613985816134e0565b811461399057600080fd5b50565b61399c8161350a565b81146139a757600080fd5b5056fea2646970667358221220425999f70108b81bcc6f85e3ee7074eee0a6a5700b56ff68080975b73d21b22c64736f6c63430008070033",
					"opcodes": "PUSH1 0x80 PUSH1 0x40 MSTORE CALLVALUE DUP1 ISZERO PUSH2 0x10 JUMPI PUSH1 0x0 DUP1 REVERT JUMPDEST POP PUSH2 0x39E0 DUP1 PUSH2 0x20 PUSH1 0x0 CODECOPY PUSH1 0x0 RETURN INVALID PUSH1 0x80 PUSH1 0x40 MSTORE CALLVALUE DUP1 ISZERO PUSH2 0x10 JUMPI PUSH1 0x0 DUP1 REVERT JUMPDEST POP PUSH1 0x4 CALLDATASIZE LT PUSH2 0x14D JUMPI PUSH1 0x0 CALLDATALOAD PUSH1 0xE0 SHR DUP1 PUSH4 0x883A9673 GT PUSH2 0xC3 JUMPI DUP1 PUSH4 0xBB9A31F3 GT PUSH2 0x7C JUMPI DUP1 PUSH4 0xBB9A31F3 EQ PUSH2 0x43B JUMPI DUP1 PUSH4 0xC5539B03 EQ PUSH2 0x46B JUMPI DUP1 PUSH4 0xC9BC42ED EQ PUSH2 0x49B JUMPI DUP1 PUSH4 0xE5C8D65F EQ PUSH2 0x4CC JUMPI DUP1 PUSH4 0xEC548680 EQ PUSH2 0x4FC JUMPI DUP1 PUSH4 0xFE290423 EQ PUSH2 0x52C JUMPI PUSH2 0x14D JUMP JUMPDEST DUP1 PUSH4 0x883A9673 EQ PUSH2 0x32B JUMPI DUP1 PUSH4 0x8A3B0D02 EQ PUSH2 0x347 JUMPI DUP1 PUSH4 0x8F6A35B7 EQ PUSH2 0x377 JUMPI DUP1 PUSH4 0x931DA6B3 EQ PUSH2 0x3A9 JUMPI DUP1 PUSH4 0x9D6A3125 EQ PUSH2 0x3D9 JUMPI DUP1 PUSH4 0xA6ACCE35 EQ PUSH2 0x40B JUMPI PUSH2 0x14D JUMP JUMPDEST DUP1 PUSH4 0x33A0B0AB GT PUSH2 0x115 JUMPI DUP1 PUSH4 0x33A0B0AB EQ PUSH2 0x22E JUMPI DUP1 PUSH4 0x37F2E190 EQ PUSH2 0x260 JUMPI DUP1 PUSH4 0x3D63AF0E EQ PUSH2 0x293 JUMPI DUP1 PUSH4 0x4205717D EQ PUSH2 0x2AF JUMPI DUP1 PUSH4 0x538B3CC6 EQ PUSH2 0x2DF JUMPI DUP1 PUSH4 0x7AA18F88 EQ PUSH2 0x30F JUMPI PUSH2 0x14D JUMP JUMPDEST DUP1 PUSH4 0x6699B01 EQ PUSH2 0x152 JUMPI DUP1 PUSH4 0x11C2B413 EQ PUSH2 0x182 JUMPI DUP1 PUSH4 0x17072D6B EQ PUSH2 0x1B2 JUMPI DUP1 PUSH4 0x233D0FA1 EQ PUSH2 0x1CE JUMPI DUP1 PUSH4 0x31189FE2 EQ PUSH2 0x1FE JUMPI JUMPDEST PUSH1 0x0 DUP1 REVERT JUMPDEST PUSH2 0x16C PUSH1 0x4 DUP1 CALLDATASIZE SUB DUP2 ADD SWAP1 PUSH2 0x167 SWAP2 SWAP1 PUSH2 0x2B33 JUMP JUMPDEST PUSH2 0x55C JUMP JUMPDEST PUSH1 0x40 MLOAD PUSH2 0x179 SWAP2 SWAP1 PUSH2 0x3045 JUMP JUMPDEST PUSH1 0x40 MLOAD DUP1 SWAP2 SUB SWAP1 RETURN JUMPDEST PUSH2 0x19C PUSH1 0x4 DUP1 CALLDATASIZE SUB DUP2 ADD SWAP1 PUSH2 0x197 SWAP2 SWAP1 PUSH2 0x2A12 JUMP JUMPDEST PUSH2 0x5C0 JUMP JUMPDEST PUSH1 0x40 MLOAD PUSH2 0x1A9 SWAP2 SWAP1 PUSH2 0x3157 JUMP JUMPDEST PUSH1 0x40 MLOAD DUP1 SWAP2 SUB SWAP1 RETURN JUMPDEST PUSH2 0x1CC PUSH1 0x4 DUP1 CALLDATASIZE SUB DUP2 ADD SWAP1 PUSH2 0x1C7 SWAP2 SWAP1 PUSH2 0x2AB7 JUMP JUMPDEST PUSH2 0x676 JUMP JUMPDEST STOP JUMPDEST PUSH2 0x1E8 PUSH1 0x4 DUP1 CALLDATASIZE SUB DUP2 ADD SWAP1 PUSH2 0x1E3 SWAP2 SWAP1 PUSH2 0x2A12 JUMP JUMPDEST PUSH2 0x1010 JUMP JUMPDEST PUSH1 0x40 MLOAD PUSH2 0x1F5 SWAP2 SWAP1 PUSH2 0x3060 JUMP JUMPDEST PUSH1 0x40 MLOAD DUP1 SWAP2 SUB SWAP1 RETURN JUMPDEST PUSH2 0x218 PUSH1 0x4 DUP1 CALLDATASIZE SUB DUP2 ADD SWAP1 PUSH2 0x213 SWAP2 SWAP1 PUSH2 0x2A12 JUMP JUMPDEST PUSH2 0x1046 JUMP JUMPDEST PUSH1 0x40 MLOAD PUSH2 0x225 SWAP2 SWAP1 PUSH2 0x3060 JUMP JUMPDEST PUSH1 0x40 MLOAD DUP1 SWAP2 SUB SWAP1 RETURN JUMPDEST PUSH2 0x248 PUSH1 0x4 DUP1 CALLDATASIZE SUB DUP2 ADD SWAP1 PUSH2 0x243 SWAP2 SWAP1 PUSH2 0x2A5B JUMP JUMPDEST PUSH2 0x107C JUMP JUMPDEST PUSH1 0x40 MLOAD PUSH2 0x257 SWAP4 SWAP3 SWAP2 SWAP1 PUSH2 0x307B JUMP JUMPDEST PUSH1 0x40 MLOAD DUP1 SWAP2 SUB SWAP1 RETURN JUMPDEST PUSH2 0x27A PUSH1 0x4 DUP1 CALLDATASIZE SUB DUP2 ADD SWAP1 PUSH2 0x275 SWAP2 SWAP1 PUSH2 0x29C5 JUMP JUMPDEST PUSH2 0x1103 JUMP JUMPDEST PUSH1 0x40 MLOAD PUSH2 0x28A SWAP5 SWAP4 SWAP3 SWAP2 SWAP1 PUSH2 0x30E9 JUMP JUMPDEST PUSH1 0x40 MLOAD DUP1 SWAP2 SUB SWAP1 RETURN JUMPDEST PUSH2 0x2AD PUSH1 0x4 DUP1 CALLDATASIZE SUB DUP2 ADD SWAP1 PUSH2 0x2A8 SWAP2 SWAP1 PUSH2 0x2965 JUMP JUMPDEST PUSH2 0x132B JUMP JUMPDEST STOP JUMPDEST PUSH2 0x2C9 PUSH1 0x4 DUP1 CALLDATASIZE SUB DUP2 ADD SWAP1 PUSH2 0x2C4 SWAP2 SWAP1 PUSH2 0x2A12 JUMP JUMPDEST PUSH2 0x1783 JUMP JUMPDEST PUSH1 0x40 MLOAD PUSH2 0x2D6 SWAP2 SWAP1 PUSH2 0x3310 JUMP JUMPDEST PUSH1 0x40 MLOAD DUP1 SWAP2 SUB SWAP1 RETURN JUMPDEST PUSH2 0x2F9 PUSH1 0x4 DUP1 CALLDATASIZE SUB DUP2 ADD SWAP1 PUSH2 0x2F4 SWAP2 SWAP1 PUSH2 0x2A12 JUMP JUMPDEST PUSH2 0x17B1 JUMP JUMPDEST PUSH1 0x40 MLOAD PUSH2 0x306 SWAP2 SWAP1 PUSH2 0x3310 JUMP JUMPDEST PUSH1 0x40 MLOAD DUP1 SWAP2 SUB SWAP1 RETURN JUMPDEST PUSH2 0x329 PUSH1 0x4 DUP1 CALLDATASIZE SUB DUP2 ADD SWAP1 PUSH2 0x324 SWAP2 SWAP1 PUSH2 0x2C12 JUMP JUMPDEST PUSH2 0x17DF JUMP JUMPDEST STOP JUMPDEST PUSH2 0x345 PUSH1 0x4 DUP1 CALLDATASIZE SUB DUP2 ADD SWAP1 PUSH2 0x340 SWAP2 SWAP1 PUSH2 0x29C5 JUMP JUMPDEST PUSH2 0x1BD0 JUMP JUMPDEST STOP JUMPDEST PUSH2 0x361 PUSH1 0x4 DUP1 CALLDATASIZE SUB DUP2 ADD SWAP1 PUSH2 0x35C SWAP2 SWAP1 PUSH2 0x2A12 JUMP JUMPDEST PUSH2 0x21EE JUMP JUMPDEST PUSH1 0x40 MLOAD PUSH2 0x36E SWAP2 SWAP1 PUSH2 0x3157 JUMP JUMPDEST PUSH1 0x40 MLOAD DUP1 SWAP2 SUB SWAP1 RETURN JUMPDEST PUSH2 0x391 PUSH1 0x4 DUP1 CALLDATASIZE SUB DUP2 ADD SWAP1 PUSH2 0x38C SWAP2 SWAP1 PUSH2 0x2B33 JUMP JUMPDEST PUSH2 0x22A4 JUMP JUMPDEST PUSH1 0x40 MLOAD PUSH2 0x3A0 SWAP4 SWAP3 SWAP2 SWAP1 PUSH2 0x307B JUMP JUMPDEST PUSH1 0x40 MLOAD DUP1 SWAP2 SUB SWAP1 RETURN JUMPDEST PUSH2 0x3C3 PUSH1 0x4 DUP1 CALLDATASIZE SUB DUP2 ADD SWAP1 PUSH2 0x3BE SWAP2 SWAP1 PUSH2 0x2A12 JUMP JUMPDEST PUSH2 0x2337 JUMP JUMPDEST PUSH1 0x40 MLOAD PUSH2 0x3D0 SWAP2 SWAP1 PUSH2 0x3310 JUMP JUMPDEST PUSH1 0x40 MLOAD DUP1 SWAP2 SUB SWAP1 RETURN JUMPDEST PUSH2 0x3F3 PUSH1 0x4 DUP1 CALLDATASIZE SUB DUP2 ADD SWAP1 PUSH2 0x3EE SWAP2 SWAP1 PUSH2 0x2B8F JUMP JUMPDEST PUSH2 0x2365 JUMP JUMPDEST PUSH1 0x40 MLOAD PUSH2 0x402 SWAP4 SWAP3 SWAP2 SWAP1 PUSH2 0x30B2 JUMP JUMPDEST PUSH1 0x40 MLOAD DUP1 SWAP2 SUB SWAP1 RETURN JUMPDEST PUSH2 0x425 PUSH1 0x4 DUP1 CALLDATASIZE SUB DUP2 ADD SWAP1 PUSH2 0x420 SWAP2 SWAP1 PUSH2 0x2A12 JUMP JUMPDEST PUSH2 0x2496 JUMP JUMPDEST PUSH1 0x40 MLOAD PUSH2 0x432 SWAP2 SWAP1 PUSH2 0x313C JUMP JUMPDEST PUSH1 0x40 MLOAD DUP1 SWAP2 SUB SWAP1 RETURN JUMPDEST PUSH2 0x455 PUSH1 0x4 DUP1 CALLDATASIZE SUB DUP2 ADD SWAP1 PUSH2 0x450 SWAP2 SWAP1 PUSH2 0x2A12 JUMP JUMPDEST PUSH2 0x24C4 JUMP JUMPDEST PUSH1 0x40 MLOAD PUSH2 0x462 SWAP2 SWAP1 PUSH2 0x3310 JUMP JUMPDEST PUSH1 0x40 MLOAD DUP1 SWAP2 SUB SWAP1 RETURN JUMPDEST PUSH2 0x485 PUSH1 0x4 DUP1 CALLDATASIZE SUB DUP2 ADD SWAP1 PUSH2 0x480 SWAP2 SWAP1 PUSH2 0x2A12 JUMP JUMPDEST PUSH2 0x24F2 JUMP JUMPDEST PUSH1 0x40 MLOAD PUSH2 0x492 SWAP2 SWAP1 PUSH2 0x3310 JUMP JUMPDEST PUSH1 0x40 MLOAD DUP1 SWAP2 SUB SWAP1 RETURN JUMPDEST PUSH2 0x4B5 PUSH1 0x4 DUP1 CALLDATASIZE SUB DUP2 ADD SWAP1 PUSH2 0x4B0 SWAP2 SWAP1 PUSH2 0x29C5 JUMP JUMPDEST PUSH2 0x2520 JUMP JUMPDEST PUSH1 0x40 MLOAD PUSH2 0x4C3 SWAP3 SWAP2 SWAP1 PUSH2 0x3179 JUMP JUMPDEST PUSH1 0x40 MLOAD DUP1 SWAP2 SUB SWAP1 RETURN JUMPDEST PUSH2 0x4E6 PUSH1 0x4 DUP1 CALLDATASIZE SUB DUP2 ADD SWAP1 PUSH2 0x4E1 SWAP2 SWAP1 PUSH2 0x2A12 JUMP JUMPDEST PUSH2 0x2686 JUMP JUMPDEST PUSH1 0x40 MLOAD PUSH2 0x4F3 SWAP2 SWAP1 PUSH2 0x3045 JUMP JUMPDEST PUSH1 0x40 MLOAD DUP1 SWAP2 SUB SWAP1 RETURN JUMPDEST PUSH2 0x516 PUSH1 0x4 DUP1 CALLDATASIZE SUB DUP2 ADD SWAP1 PUSH2 0x511 SWAP2 SWAP1 PUSH2 0x29C5 JUMP JUMPDEST PUSH2 0x26CF JUMP JUMPDEST PUSH1 0x40 MLOAD PUSH2 0x523 SWAP2 SWAP1 PUSH2 0x3060 JUMP JUMPDEST PUSH1 0x40 MLOAD DUP1 SWAP2 SUB SWAP1 RETURN JUMPDEST PUSH2 0x546 PUSH1 0x4 DUP1 CALLDATASIZE SUB DUP2 ADD SWAP1 PUSH2 0x541 SWAP2 SWAP1 PUSH2 0x2A12 JUMP JUMPDEST PUSH2 0x2707 JUMP JUMPDEST PUSH1 0x40 MLOAD PUSH2 0x553 SWAP2 SWAP1 PUSH2 0x3157 JUMP JUMPDEST PUSH1 0x40 MLOAD DUP1 SWAP2 SUB SWAP1 RETURN JUMPDEST PUSH1 0xE DUP3 DUP1 MLOAD PUSH1 0x20 DUP2 ADD DUP3 ADD DUP1 MLOAD DUP5 DUP3 MSTORE PUSH1 0x20 DUP4 ADD PUSH1 0x20 DUP6 ADD KECCAK256 DUP2 DUP4 MSTORE DUP1 SWAP6 POP POP POP POP POP POP DUP2 DUP2 SLOAD DUP2 LT PUSH2 0x58E JUMPI PUSH1 0x0 DUP1 REVERT JUMPDEST SWAP1 PUSH1 0x0 MSTORE PUSH1 0x20 PUSH1 0x0 KECCAK256 ADD PUSH1 0x0 SWAP2 POP SWAP2 POP SWAP1 SLOAD SWAP1 PUSH2 0x100 EXP SWAP1 DIV PUSH20 0xFFFFFFFFFFFFFFFFFFFFFFFFFFFFFFFFFFFFFFFF AND DUP2 JUMP JUMPDEST PUSH1 0x1 DUP2 DUP1 MLOAD PUSH1 0x20 DUP2 ADD DUP3 ADD DUP1 MLOAD DUP5 DUP3 MSTORE PUSH1 0x20 DUP4 ADD PUSH1 0x20 DUP6 ADD KECCAK256 DUP2 DUP4 MSTORE DUP1 SWAP6 POP POP POP POP POP POP PUSH1 0x0 SWAP2 POP SWAP1 POP DUP1 SLOAD PUSH2 0x5F5 SWAP1 PUSH2 0x3563 JUMP JUMPDEST DUP1 PUSH1 0x1F ADD PUSH1 0x20 DUP1 SWAP2 DIV MUL PUSH1 0x20 ADD PUSH1 0x40 MLOAD SWAP1 DUP2 ADD PUSH1 0x40 MSTORE DUP1 SWAP3 SWAP2 SWAP1 DUP2 DUP2 MSTORE PUSH1 0x20 ADD DUP3 DUP1 SLOAD PUSH2 0x621 SWAP1 PUSH2 0x3563 JUMP JUMPDEST DUP1 ISZERO PUSH2 0x66E JUMPI DUP1 PUSH1 0x1F LT PUSH2 0x643 JUMPI PUSH2 0x100 DUP1 DUP4 SLOAD DIV MUL DUP4 MSTORE SWAP2 PUSH1 0x20 ADD SWAP2 PUSH2 0x66E JUMP JUMPDEST DUP3 ADD SWAP2 SWAP1 PUSH1 0x0 MSTORE PUSH1 0x20 PUSH1 0x0 KECCAK256 SWAP1 JUMPDEST DUP2 SLOAD DUP2 MSTORE SWAP1 PUSH1 0x1 ADD SWAP1 PUSH1 0x20 ADD DUP1 DUP4 GT PUSH2 0x651 JUMPI DUP3 SWAP1 SUB PUSH1 0x1F AND DUP3 ADD SWAP2 JUMPDEST POP POP POP POP POP DUP2 JUMP JUMPDEST PUSH1 0x4 DUP3 DUP3 PUSH1 0x40 MLOAD PUSH2 0x688 SWAP3 SWAP2 SWAP1 PUSH2 0x3015 JUMP JUMPDEST SWAP1 DUP2 MSTORE PUSH1 0x20 ADD PUSH1 0x40 MLOAD DUP1 SWAP2 SUB SWAP1 KECCAK256 SLOAD TIMESTAMP LT PUSH2 0x6D8 JUMPI PUSH1 0x40 MLOAD PUSH32 0x8C379A000000000000000000000000000000000000000000000000000000000 DUP2 MSTORE PUSH1 0x4 ADD PUSH2 0x6CF SWAP1 PUSH2 0x32D0 JUMP JUMPDEST PUSH1 0x40 MLOAD DUP1 SWAP2 SUB SWAP1 REVERT JUMPDEST PUSH1 0x0 PUSH20 0xFFFFFFFFFFFFFFFFFFFFFFFFFFFFFFFFFFFFFFFF AND PUSH1 0xC DUP4 DUP4 PUSH1 0x40 MLOAD PUSH2 0x702 SWAP3 SWAP2 SWAP1 PUSH2 0x3015 JUMP JUMPDEST SWAP1 DUP2 MSTORE PUSH1 0x20 ADD PUSH1 0x40 MLOAD DUP1 SWAP2 SUB SWAP1 KECCAK256 PUSH1 0x0 CALLER PUSH20 0xFFFFFFFFFFFFFFFFFFFFFFFFFFFFFFFFFFFFFFFF AND PUSH20 0xFFFFFFFFFFFFFFFFFFFFFFFFFFFFFFFFFFFFFFFF AND DUP2 MSTORE PUSH1 0x20 ADD SWAP1 DUP2 MSTORE PUSH1 0x20 ADD PUSH1 0x0 KECCAK256 PUSH1 0x0 ADD PUSH1 0x2 SWAP1 SLOAD SWAP1 PUSH2 0x100 EXP SWAP1 DIV PUSH20 0xFFFFFFFFFFFFFFFFFFFFFFFFFFFFFFFFFFFFFFFF AND PUSH20 0xFFFFFFFFFFFFFFFFFFFFFFFFFFFFFFFFFFFFFFFF AND EQ ISZERO PUSH2 0x7C8 JUMPI PUSH1 0x40 MLOAD PUSH32 0x8C379A000000000000000000000000000000000000000000000000000000000 DUP2 MSTORE PUSH1 0x4 ADD PUSH2 0x7BF SWAP1 PUSH2 0x3250 JUMP JUMPDEST PUSH1 0x40 MLOAD DUP1 SWAP2 SUB SWAP1 REVERT JUMPDEST PUSH1 0xC DUP3 DUP3 PUSH1 0x40 MLOAD PUSH2 0x7DA SWAP3 SWAP2 SWAP1 PUSH2 0x3015 JUMP JUMPDEST SWAP1 DUP2 MSTORE PUSH1 0x20 ADD PUSH1 0x40 MLOAD DUP1 SWAP2 SUB SWAP1 KECCAK256 PUSH1 0x0 CALLER PUSH20 0xFFFFFFFFFFFFFFFFFFFFFFFFFFFFFFFFFFFFFFFF AND PUSH20 0xFFFFFFFFFFFFFFFFFFFFFFFFFFFFFFFFFFFFFFFF AND DUP2 MSTORE PUSH1 0x20 ADD SWAP1 DUP2 MSTORE PUSH1 0x20 ADD PUSH1 0x0 KECCAK256 PUSH1 0x0 ADD PUSH1 0x0 SWAP1 SLOAD SWAP1 PUSH2 0x100 EXP SWAP1 DIV PUSH1 0xFF AND ISZERO PUSH2 0x876 JUMPI PUSH1 0x40 MLOAD PUSH32 0x8C379A000000000000000000000000000000000000000000000000000000000 DUP2 MSTORE PUSH1 0x4 ADD PUSH2 0x86D SWAP1 PUSH2 0x3210 JUMP JUMPDEST PUSH1 0x40 MLOAD DUP1 SWAP2 SUB SWAP1 REVERT JUMPDEST PUSH1 0x40 MLOAD DUP1 PUSH1 0x40 ADD PUSH1 0x40 MSTORE DUP1 PUSH1 0x9 DUP2 MSTORE PUSH1 0x20 ADD PUSH32 0x6920617070726F76650000000000000000000000000000000000000000000000 DUP2 MSTORE POP DUP1 MLOAD SWAP1 PUSH1 0x20 ADD KECCAK256 DUP4 DUP1 MLOAD SWAP1 PUSH1 0x20 ADD KECCAK256 EQ ISZERO PUSH2 0xB8D JUMPI PUSH1 0x1 PUSH1 0xC DUP4 DUP4 PUSH1 0x40 MLOAD PUSH2 0x8D5 SWAP3 SWAP2 SWAP1 PUSH2 0x3015 JUMP JUMPDEST SWAP1 DUP2 MSTORE PUSH1 0x20 ADD PUSH1 0x40 MLOAD DUP1 SWAP2 SUB SWAP1 KECCAK256 PUSH1 0x0 CALLER PUSH20 0xFFFFFFFFFFFFFFFFFFFFFFFFFFFFFFFFFFFFFFFF AND PUSH20 0xFFFFFFFFFFFFFFFFFFFFFFFFFFFFFFFFFFFFFFFF AND DUP2 MSTORE PUSH1 0x20 ADD SWAP1 DUP2 MSTORE PUSH1 0x20 ADD PUSH1 0x0 KECCAK256 PUSH1 0x0 ADD PUSH1 0x0 PUSH2 0x100 EXP DUP2 SLOAD DUP2 PUSH1 0xFF MUL NOT AND SWAP1 DUP4 ISZERO ISZERO MUL OR SWAP1 SSTORE POP PUSH1 0x1 PUSH1 0xC DUP4 DUP4 PUSH1 0x40 MLOAD PUSH2 0x94E SWAP3 SWAP2 SWAP1 PUSH2 0x3015 JUMP JUMPDEST SWAP1 DUP2 MSTORE PUSH1 0x20 ADD PUSH1 0x40 MLOAD DUP1 SWAP2 SUB SWAP1 KECCAK256 PUSH1 0x0 CALLER PUSH20 0xFFFFFFFFFFFFFFFFFFFFFFFFFFFFFFFFFFFFFFFF AND PUSH20 0xFFFFFFFFFFFFFFFFFFFFFFFFFFFFFFFFFFFFFFFF AND DUP2 MSTORE PUSH1 0x20 ADD SWAP1 DUP2 MSTORE PUSH1 0x20 ADD PUSH1 0x0 KECCAK256 PUSH1 0x0 ADD PUSH1 0x1 PUSH2 0x100 EXP DUP2 SLOAD DUP2 PUSH1 0xFF MUL NOT AND SWAP1 DUP4 ISZERO ISZERO MUL OR SWAP1 SSTORE POP PUSH1 0x1 PUSH1 0x6 DUP4 DUP4 PUSH1 0x40 MLOAD PUSH2 0x9C7 SWAP3 SWAP2 SWAP1 PUSH2 0x3015 JUMP JUMPDEST SWAP1 DUP2 MSTORE PUSH1 0x20 ADD PUSH1 0x40 MLOAD DUP1 SWAP2 SUB SWAP1 KECCAK256 PUSH1 0x0 DUP3 DUP3 SLOAD PUSH2 0x9E4 SWAP2 SWAP1 PUSH2 0x33E1 JUMP JUMPDEST SWAP3 POP POP DUP2 SWAP1 SSTORE POP PUSH1 0x1 PUSH1 0x2 DUP4 DUP4 PUSH1 0x40 MLOAD PUSH2 0x9FF SWAP3 SWAP2 SWAP1 PUSH2 0x3015 JUMP JUMPDEST SWAP1 DUP2 MSTORE PUSH1 0x20 ADD PUSH1 0x40 MLOAD DUP1 SWAP2 SUB SWAP1 KECCAK256 PUSH1 0x0 DUP3 DUP3 SLOAD PUSH2 0xA1C SWAP2 SWAP1 PUSH2 0x33E1 JUMP JUMPDEST SWAP3 POP POP DUP2 SWAP1 SSTORE POP PUSH1 0xD DUP3 DUP3 PUSH1 0x40 MLOAD PUSH2 0xA35 SWAP3 SWAP2 SWAP1 PUSH2 0x3015 JUMP JUMPDEST SWAP1 DUP2 MSTORE PUSH1 0x20 ADD PUSH1 0x40 MLOAD DUP1 SWAP2 SUB SWAP1 KECCAK256 PUSH1 0xC DUP4 DUP4 PUSH1 0x40 MLOAD PUSH2 0xA55 SWAP3 SWAP2 SWAP1 PUSH2 0x3015 JUMP JUMPDEST SWAP1 DUP2 MSTORE PUSH1 0x20 ADD PUSH1 0x40 MLOAD DUP1 SWAP2 SUB SWAP1 KECCAK256 PUSH1 0x0 CALLER PUSH20 0xFFFFFFFFFFFFFFFFFFFFFFFFFFFFFFFFFFFFFFFF AND PUSH20 0xFFFFFFFFFFFFFFFFFFFFFFFFFFFFFFFFFFFFFFFF AND DUP2 MSTORE PUSH1 0x20 ADD SWAP1 DUP2 MSTORE PUSH1 0x20 ADD PUSH1 0x0 KECCAK256 SWAP1 DUP1 PUSH1 0x1 DUP2 SLOAD ADD DUP1 DUP3 SSTORE DUP1 SWAP2 POP POP PUSH1 0x1 SWAP1 SUB SWAP1 PUSH1 0x0 MSTORE PUSH1 0x20 PUSH1 0x0 KECCAK256 ADD PUSH1 0x0 SWAP1 SWAP2 SWAP1 SWAP2 SWAP1 SWAP2 POP PUSH1 0x0 DUP3 ADD PUSH1 0x0 SWAP1 SLOAD SWAP1 PUSH2 0x100 EXP SWAP1 DIV PUSH1 0xFF AND DUP2 PUSH1 0x0 ADD PUSH1 0x0 PUSH2 0x100 EXP DUP2 SLOAD DUP2 PUSH1 0xFF MUL NOT AND SWAP1 DUP4 ISZERO ISZERO MUL OR SWAP1 SSTORE POP PUSH1 0x0 DUP3 ADD PUSH1 0x1 SWAP1 SLOAD SWAP1 PUSH2 0x100 EXP SWAP1 DIV PUSH1 0xFF AND DUP2 PUSH1 0x0 ADD PUSH1 0x1 PUSH2 0x100 EXP DUP2 SLOAD DUP2 PUSH1 0xFF MUL NOT AND SWAP1 DUP4 ISZERO ISZERO MUL OR SWAP1 SSTORE POP PUSH1 0x0 DUP3 ADD PUSH1 0x2 SWAP1 SLOAD SWAP1 PUSH2 0x100 EXP SWAP1 DIV PUSH20 0xFFFFFFFFFFFFFFFFFFFFFFFFFFFFFFFFFFFFFFFF AND DUP2 PUSH1 0x0 ADD PUSH1 0x2 PUSH2 0x100 EXP DUP2 SLOAD DUP2 PUSH20 0xFFFFFFFFFFFFFFFFFFFFFFFFFFFFFFFFFFFFFFFF MUL NOT AND SWAP1 DUP4 PUSH20 0xFFFFFFFFFFFFFFFFFFFFFFFFFFFFFFFFFFFFFFFF AND MUL OR SWAP1 SSTORE POP POP POP PUSH2 0x100B JUMP JUMPDEST PUSH1 0x40 MLOAD DUP1 PUSH1 0x40 ADD PUSH1 0x40 MSTORE DUP1 PUSH1 0xC DUP2 MSTORE PUSH1 0x20 ADD PUSH32 0x6920646973617070726F76650000000000000000000000000000000000000000 DUP2 MSTORE POP DUP1 MLOAD SWAP1 PUSH1 0x20 ADD KECCAK256 DUP4 DUP1 MLOAD SWAP1 PUSH1 0x20 ADD KECCAK256 EQ ISZERO PUSH2 0xDF3 JUMPI PUSH1 0x1 PUSH1 0xC DUP4 DUP4 PUSH1 0x40 MLOAD PUSH2 0xBEC SWAP3 SWAP2 SWAP1 PUSH2 0x3015 JUMP JUMPDEST SWAP1 DUP2 MSTORE PUSH1 0x20 ADD PUSH1 0x40 MLOAD DUP1 SWAP2 SUB SWAP1 KECCAK256 PUSH1 0x0 CALLER PUSH20 0xFFFFFFFFFFFFFFFFFFFFFFFFFFFFFFFFFFFFFFFF AND PUSH20 0xFFFFFFFFFFFFFFFFFFFFFFFFFFFFFFFFFFFFFFFF AND DUP2 MSTORE PUSH1 0x20 ADD SWAP1 DUP2 MSTORE PUSH1 0x20 ADD PUSH1 0x0 KECCAK256 PUSH1 0x0 ADD PUSH1 0x0 PUSH2 0x100 EXP DUP2 SLOAD DUP2 PUSH1 0xFF MUL NOT AND SWAP1 DUP4 ISZERO ISZERO MUL OR SWAP1 SSTORE POP PUSH1 0x1 PUSH1 0x2 DUP4 DUP4 PUSH1 0x40 MLOAD PUSH2 0xC65 SWAP3 SWAP2 SWAP1 PUSH2 0x3015 JUMP JUMPDEST SWAP1 DUP2 MSTORE PUSH1 0x20 ADD PUSH1 0x40 MLOAD DUP1 SWAP2 SUB SWAP1 KECCAK256 PUSH1 0x0 DUP3 DUP3 SLOAD PUSH2 0xC82 SWAP2 SWAP1 PUSH2 0x33E1 JUMP JUMPDEST SWAP3 POP POP DUP2 SWAP1 SSTORE POP PUSH1 0xD DUP3 DUP3 PUSH1 0x40 MLOAD PUSH2 0xC9B SWAP3 SWAP2 SWAP1 PUSH2 0x3015 JUMP JUMPDEST SWAP1 DUP2 MSTORE PUSH1 0x20 ADD PUSH1 0x40 MLOAD DUP1 SWAP2 SUB SWAP1 KECCAK256 PUSH1 0xC DUP4 DUP4 PUSH1 0x40 MLOAD PUSH2 0xCBB SWAP3 SWAP2 SWAP1 PUSH2 0x3015 JUMP JUMPDEST SWAP1 DUP2 MSTORE PUSH1 0x20 ADD PUSH1 0x40 MLOAD DUP1 SWAP2 SUB SWAP1 KECCAK256 PUSH1 0x0 CALLER PUSH20 0xFFFFFFFFFFFFFFFFFFFFFFFFFFFFFFFFFFFFFFFF AND PUSH20 0xFFFFFFFFFFFFFFFFFFFFFFFFFFFFFFFFFFFFFFFF AND DUP2 MSTORE PUSH1 0x20 ADD SWAP1 DUP2 MSTORE PUSH1 0x20 ADD PUSH1 0x0 KECCAK256 SWAP1 DUP1 PUSH1 0x1 DUP2 SLOAD ADD DUP1 DUP3 SSTORE DUP1 SWAP2 POP POP PUSH1 0x1 SWAP1 SUB SWAP1 PUSH1 0x0 MSTORE PUSH1 0x20 PUSH1 0x0 KECCAK256 ADD PUSH1 0x0 SWAP1 SWAP2 SWAP1 SWAP2 SWAP1 SWAP2 POP PUSH1 0x0 DUP3 ADD PUSH1 0x0 SWAP1 SLOAD SWAP1 PUSH2 0x100 EXP SWAP1 DIV PUSH1 0xFF AND DUP2 PUSH1 0x0 ADD PUSH1 0x0 PUSH2 0x100 EXP DUP2 SLOAD DUP2 PUSH1 0xFF MUL NOT AND SWAP1 DUP4 ISZERO ISZERO MUL OR SWAP1 SSTORE POP PUSH1 0x0 DUP3 ADD PUSH1 0x1 SWAP1 SLOAD SWAP1 PUSH2 0x100 EXP SWAP1 DIV PUSH1 0xFF AND DUP2 PUSH1 0x0 ADD PUSH1 0x1 PUSH2 0x100 EXP DUP2 SLOAD DUP2 PUSH1 0xFF MUL NOT AND SWAP1 DUP4 ISZERO ISZERO MUL OR SWAP1 SSTORE POP PUSH1 0x0 DUP3 ADD PUSH1 0x2 SWAP1 SLOAD SWAP1 PUSH2 0x100 EXP SWAP1 DIV PUSH20 0xFFFFFFFFFFFFFFFFFFFFFFFFFFFFFFFFFFFFFFFF AND DUP2 PUSH1 0x0 ADD PUSH1 0x2 PUSH2 0x100 EXP DUP2 SLOAD DUP2 PUSH20 0xFFFFFFFFFFFFFFFFFFFFFFFFFFFFFFFFFFFFFFFF MUL NOT AND SWAP1 DUP4 PUSH20 0xFFFFFFFFFFFFFFFFFFFFFFFFFFFFFFFFFFFFFFFF AND MUL OR SWAP1 SSTORE POP POP POP PUSH2 0x100A JUMP JUMPDEST PUSH1 0x1 PUSH1 0xC DUP4 DUP4 PUSH1 0x40 MLOAD PUSH2 0xE07 SWAP3 SWAP2 SWAP1 PUSH2 0x3015 JUMP JUMPDEST SWAP1 DUP2 MSTORE PUSH1 0x20 ADD PUSH1 0x40 MLOAD DUP1 SWAP2 SUB SWAP1 KECCAK256 PUSH1 0x0 CALLER PUSH20 0xFFFFFFFFFFFFFFFFFFFFFFFFFFFFFFFFFFFFFFFF AND PUSH20 0xFFFFFFFFFFFFFFFFFFFFFFFFFFFFFFFFFFFFFFFF AND DUP2 MSTORE PUSH1 0x20 ADD SWAP1 DUP2 MSTORE PUSH1 0x20 ADD PUSH1 0x0 KECCAK256 PUSH1 0x0 ADD PUSH1 0x0 PUSH2 0x100 EXP DUP2 SLOAD DUP2 PUSH1 0xFF MUL NOT AND SWAP1 DUP4 ISZERO ISZERO MUL OR SWAP1 SSTORE POP PUSH1 0x1 PUSH1 0x2 DUP4 DUP4 PUSH1 0x40 MLOAD PUSH2 0xE80 SWAP3 SWAP2 SWAP1 PUSH2 0x3015 JUMP JUMPDEST SWAP1 DUP2 MSTORE PUSH1 0x20 ADD PUSH1 0x40 MLOAD DUP1 SWAP2 SUB SWAP1 KECCAK256 PUSH1 0x0 DUP3 DUP3 SLOAD PUSH2 0xE9D SWAP2 SWAP1 PUSH2 0x33E1 JUMP JUMPDEST SWAP3 POP POP DUP2 SWAP1 SSTORE POP PUSH1 0xD DUP3 DUP3 PUSH1 0x40 MLOAD PUSH2 0xEB6 SWAP3 SWAP2 SWAP1 PUSH2 0x3015 JUMP JUMPDEST SWAP1 DUP2 MSTORE PUSH1 0x20 ADD PUSH1 0x40 MLOAD DUP1 SWAP2 SUB SWAP1 KECCAK256 PUSH1 0xC DUP4 DUP4 PUSH1 0x40 MLOAD PUSH2 0xED6 SWAP3 SWAP2 SWAP1 PUSH2 0x3015 JUMP JUMPDEST SWAP1 DUP2 MSTORE PUSH1 0x20 ADD PUSH1 0x40 MLOAD DUP1 SWAP2 SUB SWAP1 KECCAK256 PUSH1 0x0 CALLER PUSH20 0xFFFFFFFFFFFFFFFFFFFFFFFFFFFFFFFFFFFFFFFF AND PUSH20 0xFFFFFFFFFFFFFFFFFFFFFFFFFFFFFFFFFFFFFFFF AND DUP2 MSTORE PUSH1 0x20 ADD SWAP1 DUP2 MSTORE PUSH1 0x20 ADD PUSH1 0x0 KECCAK256 SWAP1 DUP1 PUSH1 0x1 DUP2 SLOAD ADD DUP1 DUP3 SSTORE DUP1 SWAP2 POP POP PUSH1 0x1 SWAP1 SUB SWAP1 PUSH1 0x0 MSTORE PUSH1 0x20 PUSH1 0x0 KECCAK256 ADD PUSH1 0x0 SWAP1 SWAP2 SWAP1 SWAP2 SWAP1 SWAP2 POP PUSH1 0x0 DUP3 ADD PUSH1 0x0 SWAP1 SLOAD SWAP1 PUSH2 0x100 EXP SWAP1 DIV PUSH1 0xFF AND DUP2 PUSH1 0x0 ADD PUSH1 0x0 PUSH2 0x100 EXP DUP2 SLOAD DUP2 PUSH1 0xFF MUL NOT AND SWAP1 DUP4 ISZERO ISZERO MUL OR SWAP1 SSTORE POP PUSH1 0x0 DUP3 ADD PUSH1 0x1 SWAP1 SLOAD SWAP1 PUSH2 0x100 EXP SWAP1 DIV PUSH1 0xFF AND DUP2 PUSH1 0x0 ADD PUSH1 0x1 PUSH2 0x100 EXP DUP2 SLOAD DUP2 PUSH1 0xFF MUL NOT AND SWAP1 DUP4 ISZERO ISZERO MUL OR SWAP1 SSTORE POP PUSH1 0x0 DUP3 ADD PUSH1 0x2 SWAP1 SLOAD SWAP1 PUSH2 0x100 EXP SWAP1 DIV PUSH20 0xFFFFFFFFFFFFFFFFFFFFFFFFFFFFFFFFFFFFFFFF AND DUP2 PUSH1 0x0 ADD PUSH1 0x2 PUSH2 0x100 EXP DUP2 SLOAD DUP2 PUSH20 0xFFFFFFFFFFFFFFFFFFFFFFFFFFFFFFFFFFFFFFFF MUL NOT AND SWAP1 DUP4 PUSH20 0xFFFFFFFFFFFFFFFFFFFFFFFFFFFFFFFFFFFFFFFF AND MUL OR SWAP1 SSTORE POP POP POP JUMPDEST JUMPDEST POP POP POP JUMP JUMPDEST PUSH1 0x9 DUP2 DUP1 MLOAD PUSH1 0x20 DUP2 ADD DUP3 ADD DUP1 MLOAD DUP5 DUP3 MSTORE PUSH1 0x20 DUP4 ADD PUSH1 0x20 DUP6 ADD KECCAK256 DUP2 DUP4 MSTORE DUP1 SWAP6 POP POP POP POP POP POP PUSH1 0x0 SWAP2 POP SLOAD SWAP1 PUSH2 0x100 EXP SWAP1 DIV PUSH1 0xFF AND DUP2 JUMP JUMPDEST PUSH1 0xA DUP2 DUP1 MLOAD PUSH1 0x20 DUP2 ADD DUP3 ADD DUP1 MLOAD DUP5 DUP3 MSTORE PUSH1 0x20 DUP4 ADD PUSH1 0x20 DUP6 ADD KECCAK256 DUP2 DUP4 MSTORE DUP1 SWAP6 POP POP POP POP POP POP PUSH1 0x0 SWAP2 POP SLOAD SWAP1 PUSH2 0x100 EXP SWAP1 DIV PUSH1 0xFF AND DUP2 JUMP JUMPDEST PUSH1 0xC DUP3 DUP1 MLOAD PUSH1 0x20 DUP2 ADD DUP3 ADD DUP1 MLOAD DUP5 DUP3 MSTORE PUSH1 0x20 DUP4 ADD PUSH1 0x20 DUP6 ADD KECCAK256 DUP2 DUP4 MSTORE DUP1 SWAP6 POP POP POP POP POP POP PUSH1 0x20 MSTORE DUP1 PUSH1 0x0 MSTORE PUSH1 0x40 PUSH1 0x0 KECCAK256 PUSH1 0x0 SWAP2 POP SWAP2 POP POP DUP1 PUSH1 0x0 ADD PUSH1 0x0 SWAP1 SLOAD SWAP1 PUSH2 0x100 EXP SWAP1 DIV PUSH1 0xFF AND SWAP1 DUP1 PUSH1 0x0 ADD PUSH1 0x1 SWAP1 SLOAD SWAP1 PUSH2 0x100 EXP SWAP1 DIV PUSH1 0xFF AND SWAP1 DUP1 PUSH1 0x0 ADD PUSH1 0x2 SWAP1 SLOAD SWAP1 PUSH2 0x100 EXP SWAP1 DIV PUSH20 0xFFFFFFFFFFFFFFFFFFFFFFFFFFFFFFFFFFFFFFFF AND SWAP1 POP DUP4 JUMP JUMPDEST PUSH1 0x0 PUSH1 0x60 PUSH1 0x0 PUSH1 0x60 PUSH1 0x4 DUP7 DUP7 PUSH1 0x40 MLOAD PUSH2 0x111D SWAP3 SWAP2 SWAP1 PUSH2 0x3015 JUMP JUMPDEST SWAP1 DUP2 MSTORE PUSH1 0x20 ADD PUSH1 0x40 MLOAD DUP1 SWAP2 SUB SWAP1 KECCAK256 SLOAD TIMESTAMP LT ISZERO PUSH2 0x116E JUMPI PUSH1 0x40 MLOAD PUSH32 0x8C379A000000000000000000000000000000000000000000000000000000000 DUP2 MSTORE PUSH1 0x4 ADD PUSH2 0x1165 SWAP1 PUSH2 0x32B0 JUMP JUMPDEST PUSH1 0x40 MLOAD DUP1 SWAP2 SUB SWAP1 REVERT JUMPDEST PUSH1 0x0 PUSH1 0xD DUP8 DUP8 PUSH1 0x40 MLOAD PUSH2 0x1182 SWAP3 SWAP2 SWAP1 PUSH2 0x3015 JUMP JUMPDEST SWAP1 DUP2 MSTORE PUSH1 0x20 ADD PUSH1 0x40 MLOAD DUP1 SWAP2 SUB SWAP1 KECCAK256 DUP1 SLOAD DUP1 PUSH1 0x20 MUL PUSH1 0x20 ADD PUSH1 0x40 MLOAD SWAP1 DUP2 ADD PUSH1 0x40 MSTORE DUP1 SWAP3 SWAP2 SWAP1 DUP2 DUP2 MSTORE PUSH1 0x20 ADD PUSH1 0x0 SWAP1 JUMPDEST DUP3 DUP3 LT ISZERO PUSH2 0x126A JUMPI DUP4 DUP3 SWAP1 PUSH1 0x0 MSTORE PUSH1 0x20 PUSH1 0x0 KECCAK256 ADD PUSH1 0x40 MLOAD DUP1 PUSH1 0x60 ADD PUSH1 0x40 MSTORE SWAP1 DUP2 PUSH1 0x0 DUP3 ADD PUSH1 0x0 SWAP1 SLOAD SWAP1 PUSH2 0x100 EXP SWAP1 DIV PUSH1 0xFF AND ISZERO ISZERO ISZERO ISZERO DUP2 MSTORE PUSH1 0x20 ADD PUSH1 0x0 DUP3 ADD PUSH1 0x1 SWAP1 SLOAD SWAP1 PUSH2 0x100 EXP SWAP1 DIV PUSH1 0xFF AND ISZERO ISZERO ISZERO ISZERO DUP2 MSTORE PUSH1 0x20 ADD PUSH1 0x0 DUP3 ADD PUSH1 0x2 SWAP1 SLOAD SWAP1 PUSH2 0x100 EXP SWAP1 DIV PUSH20 0xFFFFFFFFFFFFFFFFFFFFFFFFFFFFFFFFFFFFFFFF AND PUSH20 0xFFFFFFFFFFFFFFFFFFFFFFFFFFFFFFFFFFFFFFFF AND PUSH20 0xFFFFFFFFFFFFFFFFFFFFFFFFFFFFFFFFFFFFFFFF AND DUP2 MSTORE POP POP DUP2 MSTORE PUSH1 0x20 ADD SWAP1 PUSH1 0x1 ADD SWAP1 PUSH2 0x11B0 JUMP JUMPDEST POP POP POP POP SWAP1 POP PUSH1 0x0 PUSH1 0x9 DUP9 DUP9 PUSH1 0x40 MLOAD PUSH2 0x1284 SWAP3 SWAP2 SWAP1 PUSH2 0x3015 JUMP JUMPDEST SWAP1 DUP2 MSTORE PUSH1 0x20 ADD PUSH1 0x40 MLOAD DUP1 SWAP2 SUB SWAP1 KECCAK256 PUSH1 0x0 SWAP1 SLOAD SWAP1 PUSH2 0x100 EXP SWAP1 DIV PUSH1 0xFF AND SWAP1 POP PUSH1 0x0 PUSH1 0x2 DUP10 DUP10 PUSH1 0x40 MLOAD PUSH2 0x12B6 SWAP3 SWAP2 SWAP1 PUSH2 0x3015 JUMP JUMPDEST SWAP1 DUP2 MSTORE PUSH1 0x20 ADD PUSH1 0x40 MLOAD DUP1 SWAP2 SUB SWAP1 KECCAK256 SLOAD SWAP1 POP DUP2 DUP10 DUP10 DUP4 DUP7 DUP4 DUP4 DUP1 DUP1 PUSH1 0x1F ADD PUSH1 0x20 DUP1 SWAP2 DIV MUL PUSH1 0x20 ADD PUSH1 0x40 MLOAD SWAP1 DUP2 ADD PUSH1 0x40 MSTORE DUP1 SWAP4 SWAP3 SWAP2 SWAP1 DUP2 DUP2 MSTORE PUSH1 0x20 ADD DUP4 DUP4 DUP1 DUP3 DUP5 CALLDATACOPY PUSH1 0x0 DUP2 DUP5 ADD MSTORE PUSH1 0x1F NOT PUSH1 0x1F DUP3 ADD AND SWAP1 POP DUP1 DUP4 ADD SWAP3 POP POP POP POP POP POP POP SWAP3 POP SWAP1 SWAP2 SWAP3 POP SWAP7 POP SWAP7 POP SWAP7 POP SWAP7 POP POP POP POP SWAP3 SWAP6 SWAP2 SWAP5 POP SWAP3 POP JUMP JUMPDEST PUSH1 0x0 DUP3 DUP3 PUSH1 0x40 MLOAD PUSH2 0x133D SWAP3 SWAP2 SWAP1 PUSH2 0x3015 JUMP JUMPDEST SWAP1 DUP2 MSTORE PUSH1 0x20 ADD PUSH1 0x40 MLOAD DUP1 SWAP2 SUB SWAP1 KECCAK256 PUSH1 0x0 SWAP1 SLOAD SWAP1 PUSH2 0x100 EXP SWAP1 DIV PUSH20 0xFFFFFFFFFFFFFFFFFFFFFFFFFFFFFFFFFFFFFFFF AND PUSH20 0xFFFFFFFFFFFFFFFFFFFFFFFFFFFFFFFFFFFFFFFF AND CALLER PUSH20 0xFFFFFFFFFFFFFFFFFFFFFFFFFFFFFFFFFFFFFFFF AND EQ PUSH2 0x13D9 JUMPI PUSH1 0x40 MLOAD PUSH32 0x8C379A000000000000000000000000000000000000000000000000000000000 DUP2 MSTORE PUSH1 0x4 ADD PUSH2 0x13D0 SWAP1 PUSH2 0x3290 JUMP JUMPDEST PUSH1 0x40 MLOAD DUP1 SWAP2 SUB SWAP1 REVERT JUMPDEST PUSH1 0x0 DUP3 DUP3 PUSH1 0x40 MLOAD PUSH2 0x13EB SWAP3 SWAP2 SWAP1 PUSH2 0x3015 JUMP JUMPDEST SWAP1 DUP2 MSTORE PUSH1 0x20 ADD PUSH1 0x40 MLOAD DUP1 SWAP2 SUB SWAP1 KECCAK256 PUSH1 0x0 SWAP1 SLOAD SWAP1 PUSH2 0x100 EXP SWAP1 DIV PUSH20 0xFFFFFFFFFFFFFFFFFFFFFFFFFFFFFFFFFFFFFFFF AND PUSH20 0xFFFFFFFFFFFFFFFFFFFFFFFFFFFFFFFFFFFFFFFF AND DUP4 PUSH20 0xFFFFFFFFFFFFFFFFFFFFFFFFFFFFFFFFFFFFFFFF AND EQ ISZERO PUSH2 0x1488 JUMPI PUSH1 0x40 MLOAD PUSH32 0x8C379A000000000000000000000000000000000000000000000000000000000 DUP2 MSTORE PUSH1 0x4 ADD PUSH2 0x147F SWAP1 PUSH2 0x3230 JUMP JUMPDEST PUSH1 0x40 MLOAD DUP1 SWAP2 SUB SWAP1 REVERT JUMPDEST PUSH1 0x0 PUSH20 0xFFFFFFFFFFFFFFFFFFFFFFFFFFFFFFFFFFFFFFFF AND PUSH1 0xC DUP4 DUP4 PUSH1 0x40 MLOAD PUSH2 0x14B2 SWAP3 SWAP2 SWAP1 PUSH2 0x3015 JUMP JUMPDEST SWAP1 DUP2 MSTORE PUSH1 0x20 ADD PUSH1 0x40 MLOAD DUP1 SWAP2 SUB SWAP1 KECCAK256 PUSH1 0x0 DUP6 PUSH20 0xFFFFFFFFFFFFFFFFFFFFFFFFFFFFFFFFFFFFFFFF AND PUSH20 0xFFFFFFFFFFFFFFFFFFFFFFFFFFFFFFFFFFFFFFFF AND DUP2 MSTORE PUSH1 0x20 ADD SWAP1 DUP2 MSTORE PUSH1 0x20 ADD PUSH1 0x0 KECCAK256 PUSH1 0x0 ADD PUSH1 0x2 SWAP1 SLOAD SWAP1 PUSH2 0x100 EXP SWAP1 DIV PUSH20 0xFFFFFFFFFFFFFFFFFFFFFFFFFFFFFFFFFFFFFFFF AND PUSH20 0xFFFFFFFFFFFFFFFFFFFFFFFFFFFFFFFFFFFFFFFF AND EQ PUSH2 0x1577 JUMPI PUSH1 0x40 MLOAD PUSH32 0x8C379A000000000000000000000000000000000000000000000000000000000 DUP2 MSTORE PUSH1 0x4 ADD PUSH2 0x156E SWAP1 PUSH2 0x31B0 JUMP JUMPDEST PUSH1 0x40 MLOAD DUP1 SWAP2 SUB SWAP1 REVERT JUMPDEST PUSH1 0x4 DUP3 DUP3 PUSH1 0x40 MLOAD PUSH2 0x1589 SWAP3 SWAP2 SWAP1 PUSH2 0x3015 JUMP JUMPDEST SWAP1 DUP2 MSTORE PUSH1 0x20 ADD PUSH1 0x40 MLOAD DUP1 SWAP2 SUB SWAP1 KECCAK256 SLOAD TIMESTAMP LT PUSH2 0x15D9 JUMPI PUSH1 0x40 MLOAD PUSH32 0x8C379A000000000000000000000000000000000000000000000000000000000 DUP2 MSTORE PUSH1 0x4 ADD PUSH2 0x15D0 SWAP1 PUSH2 0x3270 JUMP JUMPDEST PUSH1 0x40 MLOAD DUP1 SWAP2 SUB SWAP1 REVERT JUMPDEST PUSH1 0x0 PUSH1 0x40 MLOAD DUP1 PUSH1 0x60 ADD PUSH1 0x40 MSTORE DUP1 PUSH1 0x0 ISZERO ISZERO DUP2 MSTORE PUSH1 0x20 ADD PUSH1 0x0 ISZERO ISZERO DUP2 MSTORE PUSH1 0x20 ADD DUP6 PUSH20 0xFFFFFFFFFFFFFFFFFFFFFFFFFFFFFFFFFFFFFFFF AND DUP2 MSTORE POP SWAP1 POP DUP1 PUSH1 0xC DUP5 DUP5 PUSH1 0x40 MLOAD PUSH2 0x1627 SWAP3 SWAP2 SWAP1 PUSH2 0x3015 JUMP JUMPDEST SWAP1 DUP2 MSTORE PUSH1 0x20 ADD PUSH1 0x40 MLOAD DUP1 SWAP2 SUB SWAP1 KECCAK256 PUSH1 0x0 DUP7 PUSH20 0xFFFFFFFFFFFFFFFFFFFFFFFFFFFFFFFFFFFFFFFF AND PUSH20 0xFFFFFFFFFFFFFFFFFFFFFFFFFFFFFFFFFFFFFFFF AND DUP2 MSTORE PUSH1 0x20 ADD SWAP1 DUP2 MSTORE PUSH1 0x20 ADD PUSH1 0x0 KECCAK256 PUSH1 0x0 DUP3 ADD MLOAD DUP2 PUSH1 0x0 ADD PUSH1 0x0 PUSH2 0x100 EXP DUP2 SLOAD DUP2 PUSH1 0xFF MUL NOT AND SWAP1 DUP4 ISZERO ISZERO MUL OR SWAP1 SSTORE POP PUSH1 0x20 DUP3 ADD MLOAD DUP2 PUSH1 0x0 ADD PUSH1 0x1 PUSH2 0x100 EXP DUP2 SLOAD DUP2 PUSH1 0xFF MUL NOT AND SWAP1 DUP4 ISZERO ISZERO MUL OR SWAP1 SSTORE POP PUSH1 0x40 DUP3 ADD MLOAD DUP2 PUSH1 0x0 ADD PUSH1 0x2 PUSH2 0x100 EXP DUP2 SLOAD DUP2 PUSH20 0xFFFFFFFFFFFFFFFFFFFFFFFFFFFFFFFFFFFFFFFF MUL NOT AND SWAP1 DUP4 PUSH20 0xFFFFFFFFFFFFFFFFFFFFFFFFFFFFFFFFFFFFFFFF AND MUL OR SWAP1 SSTORE POP SWAP1 POP POP PUSH1 0xE DUP4 DUP4 PUSH1 0x40 MLOAD PUSH2 0x170E SWAP3 SWAP2 SWAP1 PUSH2 0x3015 JUMP JUMPDEST SWAP1 DUP2 MSTORE PUSH1 0x20 ADD PUSH1 0x40 MLOAD DUP1 SWAP2 SUB SWAP1 KECCAK256 DUP5 SWAP1 DUP1 PUSH1 0x1 DUP2 SLOAD ADD DUP1 DUP3 SSTORE DUP1 SWAP2 POP POP PUSH1 0x1 SWAP1 SUB SWAP1 PUSH1 0x0 MSTORE PUSH1 0x20 PUSH1 0x0 KECCAK256 ADD PUSH1 0x0 SWAP1 SWAP2 SWAP1 SWAP2 SWAP1 SWAP2 PUSH2 0x100 EXP DUP2 SLOAD DUP2 PUSH20 0xFFFFFFFFFFFFFFFFFFFFFFFFFFFFFFFFFFFFFFFF MUL NOT AND SWAP1 DUP4 PUSH20 0xFFFFFFFFFFFFFFFFFFFFFFFFFFFFFFFFFFFFFFFF AND MUL OR SWAP1 SSTORE POP POP POP POP POP JUMP JUMPDEST PUSH1 0x2 DUP2 DUP1 MLOAD PUSH1 0x20 DUP2 ADD DUP3 ADD DUP1 MLOAD DUP5 DUP3 MSTORE PUSH1 0x20 DUP4 ADD PUSH1 0x20 DUP6 ADD KECCAK256 DUP2 DUP4 MSTORE DUP1 SWAP6 POP POP POP POP POP POP PUSH1 0x0 SWAP2 POP SWAP1 POP SLOAD DUP2 JUMP JUMPDEST PUSH1 0x4 DUP2 DUP1 MLOAD PUSH1 0x20 DUP2 ADD DUP3 ADD DUP1 MLOAD DUP5 DUP3 MSTORE PUSH1 0x20 DUP4 ADD PUSH1 0x20 DUP6 ADD KECCAK256 DUP2 DUP4 MSTORE DUP1 SWAP6 POP POP POP POP POP POP PUSH1 0x0 SWAP2 POP SWAP1 POP SLOAD DUP2 JUMP JUMPDEST PUSH1 0x0 PUSH20 0xFFFFFFFFFFFFFFFFFFFFFFFFFFFFFFFFFFFFFFFF AND PUSH1 0x0 DUP8 PUSH1 0x40 MLOAD PUSH2 0x1807 SWAP2 SWAP1 PUSH2 0x302E JUMP JUMPDEST SWAP1 DUP2 MSTORE PUSH1 0x20 ADD PUSH1 0x40 MLOAD DUP1 SWAP2 SUB SWAP1 KECCAK256 PUSH1 0x0 SWAP1 SLOAD SWAP1 PUSH2 0x100 EXP SWAP1 DIV PUSH20 0xFFFFFFFFFFFFFFFFFFFFFFFFFFFFFFFFFFFFFFFF AND PUSH20 0xFFFFFFFFFFFFFFFFFFFFFFFFFFFFFFFFFFFFFFFF AND EQ PUSH2 0x188C JUMPI PUSH1 0x40 MLOAD PUSH32 0x8C379A000000000000000000000000000000000000000000000000000000000 DUP2 MSTORE PUSH1 0x4 ADD PUSH2 0x1883 SWAP1 PUSH2 0x31D0 JUMP JUMPDEST PUSH1 0x40 MLOAD DUP1 SWAP2 SUB SWAP1 REVERT JUMPDEST PUSH1 0x0 PUSH1 0x2 DUP8 PUSH1 0x40 MLOAD PUSH2 0x189E SWAP2 SWAP1 PUSH2 0x302E JUMP JUMPDEST SWAP1 DUP2 MSTORE PUSH1 0x20 ADD PUSH1 0x40 MLOAD DUP1 SWAP2 SUB SWAP1 KECCAK256 DUP2 SWAP1 SSTORE POP DUP5 TIMESTAMP PUSH2 0x18BC SWAP2 SWAP1 PUSH2 0x33E1 JUMP JUMPDEST PUSH1 0x4 DUP8 PUSH1 0x40 MLOAD PUSH2 0x18CC SWAP2 SWAP1 PUSH2 0x302E JUMP JUMPDEST SWAP1 DUP2 MSTORE PUSH1 0x20 ADD PUSH1 0x40 MLOAD DUP1 SWAP2 SUB SWAP1 KECCAK256 DUP2 SWAP1 SSTORE POP DUP6 PUSH1 0x1 DUP4 PUSH1 0x40 MLOAD PUSH2 0x18EF SWAP2 SWAP1 PUSH2 0x302E JUMP JUMPDEST SWAP1 DUP2 MSTORE PUSH1 0x20 ADD PUSH1 0x40 MLOAD DUP1 SWAP2 SUB SWAP1 KECCAK256 SWAP1 DUP1 MLOAD SWAP1 PUSH1 0x20 ADD SWAP1 PUSH2 0x1910 SWAP3 SWAP2 SWAP1 PUSH2 0x27BD JUMP JUMPDEST POP PUSH1 0x0 PUSH1 0xA DUP8 PUSH1 0x40 MLOAD PUSH2 0x1923 SWAP2 SWAP1 PUSH2 0x302E JUMP JUMPDEST SWAP1 DUP2 MSTORE PUSH1 0x20 ADD PUSH1 0x40 MLOAD DUP1 SWAP2 SUB SWAP1 KECCAK256 PUSH1 0x0 PUSH2 0x100 EXP DUP2 SLOAD DUP2 PUSH1 0xFF MUL NOT AND SWAP1 DUP4 ISZERO ISZERO MUL OR SWAP1 SSTORE POP DUP4 PUSH1 0x7 DUP8 PUSH1 0x40 MLOAD PUSH2 0x1959 SWAP2 SWAP1 PUSH2 0x302E JUMP JUMPDEST SWAP1 DUP2 MSTORE PUSH1 0x20 ADD PUSH1 0x40 MLOAD DUP1 SWAP2 SUB SWAP1 KECCAK256 DUP2 SWAP1 SSTORE POP DUP4 PUSH1 0x7 DUP4 PUSH1 0x40 MLOAD PUSH2 0x197C SWAP2 SWAP1 PUSH2 0x302E JUMP JUMPDEST SWAP1 DUP2 MSTORE PUSH1 0x20 ADD PUSH1 0x40 MLOAD DUP1 SWAP2 SUB SWAP1 KECCAK256 DUP2 SWAP1 SSTORE POP PUSH1 0x0 PUSH1 0x9 DUP8 PUSH1 0x40 MLOAD PUSH2 0x19A0 SWAP2 SWAP1 PUSH2 0x302E JUMP JUMPDEST SWAP1 DUP2 MSTORE PUSH1 0x20 ADD PUSH1 0x40 MLOAD DUP1 SWAP2 SUB SWAP1 KECCAK256 PUSH1 0x0 PUSH2 0x100 EXP DUP2 SLOAD DUP2 PUSH1 0xFF MUL NOT AND SWAP1 DUP4 ISZERO ISZERO MUL OR SWAP1 SSTORE POP DUP5 PUSH1 0x3 DUP8 PUSH1 0x40 MLOAD PUSH2 0x19D6 SWAP2 SWAP1 PUSH2 0x302E JUMP JUMPDEST SWAP1 DUP2 MSTORE PUSH1 0x20 ADD PUSH1 0x40 MLOAD DUP1 SWAP2 SUB SWAP1 KECCAK256 DUP2 SWAP1 SSTORE POP DUP5 PUSH1 0x3 DUP4 PUSH1 0x40 MLOAD PUSH2 0x19F9 SWAP2 SWAP1 PUSH2 0x302E JUMP JUMPDEST SWAP1 DUP2 MSTORE PUSH1 0x20 ADD PUSH1 0x40 MLOAD DUP1 SWAP2 SUB SWAP1 KECCAK256 DUP2 SWAP1 SSTORE POP DUP3 PUSH1 0x5 DUP8 PUSH1 0x40 MLOAD PUSH2 0x1A1C SWAP2 SWAP1 PUSH2 0x302E JUMP JUMPDEST SWAP1 DUP2 MSTORE PUSH1 0x20 ADD PUSH1 0x40 MLOAD DUP1 SWAP2 SUB SWAP1 KECCAK256 DUP2 SWAP1 SSTORE POP DUP3 PUSH1 0x5 DUP4 PUSH1 0x40 MLOAD PUSH2 0x1A3F SWAP2 SWAP1 PUSH2 0x302E JUMP JUMPDEST SWAP1 DUP2 MSTORE PUSH1 0x20 ADD PUSH1 0x40 MLOAD DUP1 SWAP2 SUB SWAP1 KECCAK256 DUP2 SWAP1 SSTORE POP DUP2 PUSH1 0xB DUP8 PUSH1 0x40 MLOAD PUSH2 0x1A62 SWAP2 SWAP1 PUSH2 0x302E JUMP JUMPDEST SWAP1 DUP2 MSTORE PUSH1 0x20 ADD PUSH1 0x40 MLOAD DUP1 SWAP2 SUB SWAP1 KECCAK256 SWAP1 DUP1 MLOAD SWAP1 PUSH1 0x20 ADD SWAP1 PUSH2 0x1A83 SWAP3 SWAP2 SWAP1 PUSH2 0x27BD JUMP JUMPDEST POP DUP1 PUSH1 0x8 DUP8 PUSH1 0x40 MLOAD PUSH2 0x1A95 SWAP2 SWAP1 PUSH2 0x302E JUMP JUMPDEST SWAP1 DUP2 MSTORE PUSH1 0x20 ADD PUSH1 0x40 MLOAD DUP1 SWAP2 SUB SWAP1 KECCAK256 SWAP1 DUP1 MLOAD SWAP1 PUSH1 0x20 ADD SWAP1 PUSH2 0x1AB6 SWAP3 SWAP2 SWAP1 PUSH2 0x27BD JUMP JUMPDEST POP DUP1 PUSH1 0x8 DUP4 PUSH1 0x40 MLOAD PUSH2 0x1AC8 SWAP2 SWAP1 PUSH2 0x302E JUMP JUMPDEST SWAP1 DUP2 MSTORE PUSH1 0x20 ADD PUSH1 0x40 MLOAD DUP1 SWAP2 SUB SWAP1 KECCAK256 SWAP1 DUP1 MLOAD SWAP1 PUSH1 0x20 ADD SWAP1 PUSH2 0x1AE9 SWAP3 SWAP2 SWAP1 PUSH2 0x27BD JUMP JUMPDEST POP PUSH1 0x0 PUSH1 0x6 DUP8 PUSH1 0x40 MLOAD PUSH2 0x1AFC SWAP2 SWAP1 PUSH2 0x302E JUMP JUMPDEST SWAP1 DUP2 MSTORE PUSH1 0x20 ADD PUSH1 0x40 MLOAD DUP1 SWAP2 SUB SWAP1 KECCAK256 DUP2 SWAP1 SSTORE POP CALLER PUSH1 0x0 DUP8 PUSH1 0x40 MLOAD PUSH2 0x1B1F SWAP2 SWAP1 PUSH2 0x302E JUMP JUMPDEST SWAP1 DUP2 MSTORE PUSH1 0x20 ADD PUSH1 0x40 MLOAD DUP1 SWAP2 SUB SWAP1 KECCAK256 PUSH1 0x0 PUSH2 0x100 EXP DUP2 SLOAD DUP2 PUSH20 0xFFFFFFFFFFFFFFFFFFFFFFFFFFFFFFFFFFFFFFFF MUL NOT AND SWAP1 DUP4 PUSH20 0xFFFFFFFFFFFFFFFFFFFFFFFFFFFFFFFFFFFFFFFF AND MUL OR SWAP1 SSTORE POP CALLER PUSH1 0x0 DUP4 PUSH1 0x40 MLOAD PUSH2 0x1B7C SWAP2 SWAP1 PUSH2 0x302E JUMP JUMPDEST SWAP1 DUP2 MSTORE PUSH1 0x20 ADD PUSH1 0x40 MLOAD DUP1 SWAP2 SUB SWAP1 KECCAK256 PUSH1 0x0 PUSH2 0x100 EXP DUP2 SLOAD DUP2 PUSH20 0xFFFFFFFFFFFFFFFFFFFFFFFFFFFFFFFFFFFFFFFF MUL NOT AND SWAP1 DUP4 PUSH20 0xFFFFFFFFFFFFFFFFFFFFFFFFFFFFFFFFFFFFFFFF AND MUL OR SWAP1 SSTORE POP POP POP POP POP POP POP JUMP JUMPDEST PUSH1 0x4 DUP3 DUP3 PUSH1 0x40 MLOAD PUSH2 0x1BE2 SWAP3 SWAP2 SWAP1 PUSH2 0x3015 JUMP JUMPDEST SWAP1 DUP2 MSTORE PUSH1 0x20 ADD PUSH1 0x40 MLOAD DUP1 SWAP2 SUB SWAP1 KECCAK256 SLOAD TIMESTAMP LT ISZERO PUSH2 0x1C33 JUMPI PUSH1 0x40 MLOAD PUSH32 0x8C379A000000000000000000000000000000000000000000000000000000000 DUP2 MSTORE PUSH1 0x4 ADD PUSH2 0x1C2A SWAP1 PUSH2 0x32B0 JUMP JUMPDEST PUSH1 0x40 MLOAD DUP1 SWAP2 SUB SWAP1 REVERT JUMPDEST PUSH1 0x0 ISZERO ISZERO PUSH1 0xA DUP4 DUP4 PUSH1 0x40 MLOAD PUSH2 0x1C49 SWAP3 SWAP2 SWAP1 PUSH2 0x3015 JUMP JUMPDEST SWAP1 DUP2 MSTORE PUSH1 0x20 ADD PUSH1 0x40 MLOAD DUP1 SWAP2 SUB SWAP1 KECCAK256 PUSH1 0x0 SWAP1 SLOAD SWAP1 PUSH2 0x100 EXP SWAP1 DIV PUSH1 0xFF AND ISZERO ISZERO EQ PUSH2 0x1CA7 JUMPI PUSH1 0x40 MLOAD PUSH32 0x8C379A000000000000000000000000000000000000000000000000000000000 DUP2 MSTORE PUSH1 0x4 ADD PUSH2 0x1C9E SWAP1 PUSH2 0x32F0 JUMP JUMPDEST PUSH1 0x40 MLOAD DUP1 SWAP2 SUB SWAP1 REVERT JUMPDEST PUSH1 0x0 DUP3 DUP3 PUSH1 0x40 MLOAD PUSH2 0x1CB9 SWAP3 SWAP2 SWAP1 PUSH2 0x3015 JUMP JUMPDEST SWAP1 DUP2 MSTORE PUSH1 0x20 ADD PUSH1 0x40 MLOAD DUP1 SWAP2 SUB SWAP1 KECCAK256 PUSH1 0x0 SWAP1 SLOAD SWAP1 PUSH2 0x100 EXP SWAP1 DIV PUSH20 0xFFFFFFFFFFFFFFFFFFFFFFFFFFFFFFFFFFFFFFFF AND PUSH20 0xFFFFFFFFFFFFFFFFFFFFFFFFFFFFFFFFFFFFFFFF AND CALLER PUSH20 0xFFFFFFFFFFFFFFFFFFFFFFFFFFFFFFFFFFFFFFFF AND EQ DUP1 PUSH2 0x1DCE JUMPI POP PUSH1 0x0 PUSH20 0xFFFFFFFFFFFFFFFFFFFFFFFFFFFFFFFFFFFFFFFF AND PUSH1 0xC DUP4 DUP4 PUSH1 0x40 MLOAD PUSH2 0x1D46 SWAP3 SWAP2 SWAP1 PUSH2 0x3015 JUMP JUMPDEST SWAP1 DUP2 MSTORE PUSH1 0x20 ADD PUSH1 0x40 MLOAD DUP1 SWAP2 SUB SWAP1 KECCAK256 PUSH1 0x0 CALLER PUSH20 0xFFFFFFFFFFFFFFFFFFFFFFFFFFFFFFFFFFFFFFFF AND PUSH20 0xFFFFFFFFFFFFFFFFFFFFFFFFFFFFFFFFFFFFFFFF AND DUP2 MSTORE PUSH1 0x20 ADD SWAP1 DUP2 MSTORE PUSH1 0x20 ADD PUSH1 0x0 KECCAK256 PUSH1 0x0 ADD PUSH1 0x2 SWAP1 SLOAD SWAP1 PUSH2 0x100 EXP SWAP1 DIV PUSH20 0xFFFFFFFFFFFFFFFFFFFFFFFFFFFFFFFFFFFFFFFF AND PUSH20 0xFFFFFFFFFFFFFFFFFFFFFFFFFFFFFFFFFFFFFFFF AND EQ ISZERO JUMPDEST PUSH2 0x1E0D JUMPI PUSH1 0x40 MLOAD PUSH32 0x8C379A000000000000000000000000000000000000000000000000000000000 DUP2 MSTORE PUSH1 0x4 ADD PUSH2 0x1E04 SWAP1 PUSH2 0x31F0 JUMP JUMPDEST PUSH1 0x40 MLOAD DUP1 SWAP2 SUB SWAP1 REVERT JUMPDEST PUSH1 0x0 PUSH1 0x64 PUSH1 0xE DUP5 DUP5 PUSH1 0x40 MLOAD PUSH2 0x1E23 SWAP3 SWAP2 SWAP1 PUSH2 0x3015 JUMP JUMPDEST SWAP1 DUP2 MSTORE PUSH1 0x20 ADD PUSH1 0x40 MLOAD DUP1 SWAP2 SUB SWAP1 KECCAK256 DUP1 SLOAD SWAP1 POP PUSH1 0x6 DUP6 DUP6 PUSH1 0x40 MLOAD PUSH2 0x1E47 SWAP3 SWAP2 SWAP1 PUSH2 0x3015 JUMP JUMPDEST SWAP1 DUP2 MSTORE PUSH1 0x20 ADD PUSH1 0x40 MLOAD DUP1 SWAP2 SUB SWAP1 KECCAK256 SLOAD PUSH2 0x1E60 SWAP2 SWAP1 PUSH2 0x3437 JUMP JUMPDEST PUSH2 0x1E6A SWAP2 SWAP1 PUSH2 0x3468 JUMP JUMPDEST SWAP1 POP PUSH1 0x7 DUP4 DUP4 PUSH1 0x40 MLOAD PUSH2 0x1E7E SWAP3 SWAP2 SWAP1 PUSH2 0x3015 JUMP JUMPDEST SWAP1 DUP2 MSTORE PUSH1 0x20 ADD PUSH1 0x40 MLOAD DUP1 SWAP2 SUB SWAP1 KECCAK256 SLOAD DUP2 LT PUSH2 0x1ECD JUMPI PUSH1 0x1 PUSH1 0x9 DUP5 DUP5 PUSH1 0x40 MLOAD PUSH2 0x1EA7 SWAP3 SWAP2 SWAP1 PUSH2 0x3015 JUMP JUMPDEST SWAP1 DUP2 MSTORE PUSH1 0x20 ADD PUSH1 0x40 MLOAD DUP1 SWAP2 SUB SWAP1 KECCAK256 PUSH1 0x0 PUSH2 0x100 EXP DUP2 SLOAD DUP2 PUSH1 0xFF MUL NOT AND SWAP1 DUP4 ISZERO ISZERO MUL OR SWAP1 SSTORE POP JUMPDEST PUSH1 0x0 JUMPDEST PUSH1 0xE DUP5 DUP5 PUSH1 0x40 MLOAD PUSH2 0x1EE2 SWAP3 SWAP2 SWAP1 PUSH2 0x3015 JUMP JUMPDEST SWAP1 DUP2 MSTORE PUSH1 0x20 ADD PUSH1 0x40 MLOAD DUP1 SWAP2 SUB SWAP1 KECCAK256 DUP1 SLOAD SWAP1 POP DUP2 PUSH1 0xFF AND LT ISZERO PUSH2 0x21AF JUMPI PUSH1 0x0 ISZERO ISZERO PUSH1 0xC DUP6 DUP6 PUSH1 0x40 MLOAD PUSH2 0x1F14 SWAP3 SWAP2 SWAP1 PUSH2 0x3015 JUMP JUMPDEST SWAP1 DUP2 MSTORE PUSH1 0x20 ADD PUSH1 0x40 MLOAD DUP1 SWAP2 SUB SWAP1 KECCAK256 PUSH1 0x0 PUSH1 0xE DUP8 DUP8 PUSH1 0x40 MLOAD PUSH2 0x1F36 SWAP3 SWAP2 SWAP1 PUSH2 0x3015 JUMP JUMPDEST SWAP1 DUP2 MSTORE PUSH1 0x20 ADD PUSH1 0x40 MLOAD DUP1 SWAP2 SUB SWAP1 KECCAK256 DUP5 PUSH1 0xFF AND DUP2 SLOAD DUP2 LT PUSH2 0x1F59 JUMPI PUSH2 0x1F58 PUSH2 0x367D JUMP JUMPDEST JUMPDEST SWAP1 PUSH1 0x0 MSTORE PUSH1 0x20 PUSH1 0x0 KECCAK256 ADD PUSH1 0x0 SWAP1 SLOAD SWAP1 PUSH2 0x100 EXP SWAP1 DIV PUSH20 0xFFFFFFFFFFFFFFFFFFFFFFFFFFFFFFFFFFFFFFFF AND PUSH20 0xFFFFFFFFFFFFFFFFFFFFFFFFFFFFFFFFFFFFFFFF AND PUSH20 0xFFFFFFFFFFFFFFFFFFFFFFFFFFFFFFFFFFFFFFFF AND DUP2 MSTORE PUSH1 0x20 ADD SWAP1 DUP2 MSTORE PUSH1 0x20 ADD PUSH1 0x0 KECCAK256 PUSH1 0x0 ADD PUSH1 0x0 SWAP1 SLOAD SWAP1 PUSH2 0x100 EXP SWAP1 DIV PUSH1 0xFF AND ISZERO ISZERO EQ ISZERO PUSH2 0x219C JUMPI PUSH1 0xD DUP5 DUP5 PUSH1 0x40 MLOAD PUSH2 0x1FE9 SWAP3 SWAP2 SWAP1 PUSH2 0x3015 JUMP JUMPDEST SWAP1 DUP2 MSTORE PUSH1 0x20 ADD PUSH1 0x40 MLOAD DUP1 SWAP2 SUB SWAP1 KECCAK256 PUSH1 0xC DUP6 DUP6 PUSH1 0x40 MLOAD PUSH2 0x2009 SWAP3 SWAP2 SWAP1 PUSH2 0x3015 JUMP JUMPDEST SWAP1 DUP2 MSTORE PUSH1 0x20 ADD PUSH1 0x40 MLOAD DUP1 SWAP2 SUB SWAP1 KECCAK256 PUSH1 0x0 PUSH1 0xE DUP8 DUP8 PUSH1 0x40 MLOAD PUSH2 0x202B SWAP3 SWAP2 SWAP1 PUSH2 0x3015 JUMP JUMPDEST SWAP1 DUP2 MSTORE PUSH1 0x20 ADD PUSH1 0x40 MLOAD DUP1 SWAP2 SUB SWAP1 KECCAK256 DUP5 PUSH1 0xFF AND DUP2 SLOAD DUP2 LT PUSH2 0x204E JUMPI PUSH2 0x204D PUSH2 0x367D JUMP JUMPDEST JUMPDEST SWAP1 PUSH1 0x0 MSTORE PUSH1 0x20 PUSH1 0x0 KECCAK256 ADD PUSH1 0x0 SWAP1 SLOAD SWAP1 PUSH2 0x100 EXP SWAP1 DIV PUSH20 0xFFFFFFFFFFFFFFFFFFFFFFFFFFFFFFFFFFFFFFFF AND PUSH20 0xFFFFFFFFFFFFFFFFFFFFFFFFFFFFFFFFFFFFFFFF AND PUSH20 0xFFFFFFFFFFFFFFFFFFFFFFFFFFFFFFFFFFFFFFFF AND DUP2 MSTORE PUSH1 0x20 ADD SWAP1 DUP2 MSTORE PUSH1 0x20 ADD PUSH1 0x0 KECCAK256 SWAP1 DUP1 PUSH1 0x1 DUP2 SLOAD ADD DUP1 DUP3 SSTORE DUP1 SWAP2 POP POP PUSH1 0x1 SWAP1 SUB SWAP1 PUSH1 0x0 MSTORE PUSH1 0x20 PUSH1 0x0 KECCAK256 ADD PUSH1 0x0 SWAP1 SWAP2 SWAP1 SWAP2 SWAP1 SWAP2 POP PUSH1 0x0 DUP3 ADD PUSH1 0x0 SWAP1 SLOAD SWAP1 PUSH2 0x100 EXP SWAP1 DIV PUSH1 0xFF AND DUP2 PUSH1 0x0 ADD PUSH1 0x0 PUSH2 0x100 EXP DUP2 SLOAD DUP2 PUSH1 0xFF MUL NOT AND SWAP1 DUP4 ISZERO ISZERO MUL OR SWAP1 SSTORE POP PUSH1 0x0 DUP3 ADD PUSH1 0x1 SWAP1 SLOAD SWAP1 PUSH2 0x100 EXP SWAP1 DIV PUSH1 0xFF AND DUP2 PUSH1 0x0 ADD PUSH1 0x1 PUSH2 0x100 EXP DUP2 SLOAD DUP2 PUSH1 0xFF MUL NOT AND SWAP1 DUP4 ISZERO ISZERO MUL OR SWAP1 SSTORE POP PUSH1 0x0 DUP3 ADD PUSH1 0x2 SWAP1 SLOAD SWAP1 PUSH2 0x100 EXP SWAP1 DIV PUSH20 0xFFFFFFFFFFFFFFFFFFFFFFFFFFFFFFFFFFFFFFFF AND DUP2 PUSH1 0x0 ADD PUSH1 0x2 PUSH2 0x100 EXP DUP2 SLOAD DUP2 PUSH20 0xFFFFFFFFFFFFFFFFFFFFFFFFFFFFFFFFFFFFFFFF MUL NOT AND SWAP1 DUP4 PUSH20 0xFFFFFFFFFFFFFFFFFFFFFFFFFFFFFFFFFFFFFFFF AND MUL OR SWAP1 SSTORE POP POP POP JUMPDEST DUP1 DUP1 PUSH2 0x21A7 SWAP1 PUSH2 0x35C6 JUMP JUMPDEST SWAP2 POP POP PUSH2 0x1ED0 JUMP JUMPDEST POP PUSH1 0x1 PUSH1 0xA DUP5 DUP5 PUSH1 0x40 MLOAD PUSH2 0x21C4 SWAP3 SWAP2 SWAP1 PUSH2 0x3015 JUMP JUMPDEST SWAP1 DUP2 MSTORE PUSH1 0x20 ADD PUSH1 0x40 MLOAD DUP1 SWAP2 SUB SWAP1 KECCAK256 PUSH1 0x0 PUSH2 0x100 EXP DUP2 SLOAD DUP2 PUSH1 0xFF MUL NOT AND SWAP1 DUP4 ISZERO ISZERO MUL OR SWAP1 SSTORE POP POP POP POP JUMP JUMPDEST PUSH1 0x8 DUP2 DUP1 MLOAD PUSH1 0x20 DUP2 ADD DUP3 ADD DUP1 MLOAD DUP5 DUP3 MSTORE PUSH1 0x20 DUP4 ADD PUSH1 0x20 DUP6 ADD KECCAK256 DUP2 DUP4 MSTORE DUP1 SWAP6 POP POP POP POP POP POP PUSH1 0x0 SWAP2 POP SWAP1 POP DUP1 SLOAD PUSH2 0x2223 SWAP1 PUSH2 0x3563 JUMP JUMPDEST DUP1 PUSH1 0x1F ADD PUSH1 0x20 DUP1 SWAP2 DIV MUL PUSH1 0x20 ADD PUSH1 0x40 MLOAD SWAP1 DUP2 ADD PUSH1 0x40 MSTORE DUP1 SWAP3 SWAP2 SWAP1 DUP2 DUP2 MSTORE PUSH1 0x20 ADD DUP3 DUP1 SLOAD PUSH2 0x224F SWAP1 PUSH2 0x3563 JUMP JUMPDEST DUP1 ISZERO PUSH2 0x229C JUMPI DUP1 PUSH1 0x1F LT PUSH2 0x2271 JUMPI PUSH2 0x100 DUP1 DUP4 SLOAD DIV MUL DUP4 MSTORE SWAP2 PUSH1 0x20 ADD SWAP2 PUSH2 0x229C JUMP JUMPDEST DUP3 ADD SWAP2 SWAP1 PUSH1 0x0 MSTORE PUSH1 0x20 PUSH1 0x0 KECCAK256 SWAP1 JUMPDEST DUP2 SLOAD DUP2 MSTORE SWAP1 PUSH1 0x1 ADD SWAP1 PUSH1 0x20 ADD DUP1 DUP4 GT PUSH2 0x227F JUMPI DUP3 SWAP1 SUB PUSH1 0x1F AND DUP3 ADD SWAP2 JUMPDEST POP POP POP POP POP DUP2 JUMP JUMPDEST PUSH1 0xD DUP3 DUP1 MLOAD PUSH1 0x20 DUP2 ADD DUP3 ADD DUP1 MLOAD DUP5 DUP3 MSTORE PUSH1 0x20 DUP4 ADD PUSH1 0x20 DUP6 ADD KECCAK256 DUP2 DUP4 MSTORE DUP1 SWAP6 POP POP POP POP POP POP DUP2 DUP2 SLOAD DUP2 LT PUSH2 0x22D6 JUMPI PUSH1 0x0 DUP1 REVERT JUMPDEST SWAP1 PUSH1 0x0 MSTORE PUSH1 0x20 PUSH1 0x0 KECCAK256 ADD PUSH1 0x0 SWAP2 POP SWAP2 POP POP DUP1 PUSH1 0x0 ADD PUSH1 0x0 SWAP1 SLOAD SWAP1 PUSH2 0x100 EXP SWAP1 DIV PUSH1 0xFF AND SWAP1 DUP1 PUSH1 0x0 ADD PUSH1 0x1 SWAP1 SLOAD SWAP1 PUSH2 0x100 EXP SWAP1 DIV PUSH1 0xFF AND SWAP1 DUP1 PUSH1 0x0 ADD PUSH1 0x2 SWAP1 SLOAD SWAP1 PUSH2 0x100 EXP SWAP1 DIV PUSH20 0xFFFFFFFFFFFFFFFFFFFFFFFFFFFFFFFFFFFFFFFF AND SWAP1 POP DUP4 JUMP JUMPDEST PUSH1 0x6 DUP2 DUP1 MLOAD PUSH1 0x20 DUP2 ADD DUP3 ADD DUP1 MLOAD DUP5 DUP3 MSTORE PUSH1 0x20 DUP4 ADD PUSH1 0x20 DUP6 ADD KECCAK256 DUP2 DUP4 MSTORE DUP1 SWAP6 POP POP POP POP POP POP PUSH1 0x0 SWAP2 POP SWAP1 POP SLOAD DUP2 JUMP JUMPDEST PUSH1 0x0 DUP1 PUSH1 0x0 DUP1 PUSH1 0x1 SWAP1 POP PUSH1 0x0 PUSH1 0x1 SWAP1 POP PUSH1 0x0 PUSH1 0x1 SWAP1 POP PUSH1 0x0 PUSH20 0xFFFFFFFFFFFFFFFFFFFFFFFFFFFFFFFFFFFFFFFF AND PUSH1 0x0 DUP12 PUSH1 0x40 MLOAD PUSH2 0x23A3 SWAP2 SWAP1 PUSH2 0x302E JUMP JUMPDEST SWAP1 DUP2 MSTORE PUSH1 0x20 ADD PUSH1 0x40 MLOAD DUP1 SWAP2 SUB SWAP1 KECCAK256 PUSH1 0x0 SWAP1 SLOAD SWAP1 PUSH2 0x100 EXP SWAP1 DIV PUSH20 0xFFFFFFFFFFFFFFFFFFFFFFFFFFFFFFFFFFFFFFFF AND PUSH20 0xFFFFFFFFFFFFFFFFFFFFFFFFFFFFFFFFFFFFFFFF AND EQ ISZERO PUSH2 0x2401 JUMPI PUSH1 0x1 DUP1 PUSH1 0x1 SWAP6 POP SWAP6 POP SWAP6 POP POP POP POP PUSH2 0x248C JUMP JUMPDEST PUSH1 0x7 DUP11 PUSH1 0x40 MLOAD PUSH2 0x2411 SWAP2 SWAP1 PUSH2 0x302E JUMP JUMPDEST SWAP1 DUP2 MSTORE PUSH1 0x20 ADD PUSH1 0x40 MLOAD DUP1 SWAP2 SUB SWAP1 KECCAK256 SLOAD DUP10 EQ PUSH2 0x242B JUMPI PUSH1 0x0 SWAP3 POP JUMPDEST PUSH1 0x5 DUP11 PUSH1 0x40 MLOAD PUSH2 0x243B SWAP2 SWAP1 PUSH2 0x302E JUMP JUMPDEST SWAP1 DUP2 MSTORE PUSH1 0x20 ADD PUSH1 0x40 MLOAD DUP1 SWAP2 SUB SWAP1 KECCAK256 SLOAD DUP8 EQ PUSH2 0x2455 JUMPI PUSH1 0x0 SWAP2 POP JUMPDEST DUP8 PUSH1 0x3 DUP12 PUSH1 0x40 MLOAD PUSH2 0x2466 SWAP2 SWAP1 PUSH2 0x302E JUMP JUMPDEST SWAP1 DUP2 MSTORE PUSH1 0x20 ADD PUSH1 0x40 MLOAD DUP1 SWAP2 SUB SWAP1 KECCAK256 SLOAD EQ PUSH2 0x247F JUMPI PUSH1 0x0 SWAP1 POP JUMPDEST DUP3 DUP3 DUP3 SWAP6 POP SWAP6 POP SWAP6 POP POP POP POP JUMPDEST SWAP5 POP SWAP5 POP SWAP5 SWAP2 POP POP JUMP JUMPDEST PUSH1 0x5 DUP2 DUP1 MLOAD PUSH1 0x20 DUP2 ADD DUP3 ADD DUP1 MLOAD DUP5 DUP3 MSTORE PUSH1 0x20 DUP4 ADD PUSH1 0x20 DUP6 ADD KECCAK256 DUP2 DUP4 MSTORE DUP1 SWAP6 POP POP POP POP POP POP PUSH1 0x0 SWAP2 POP SWAP1 POP SLOAD DUP2 JUMP JUMPDEST PUSH1 0x3 DUP2 DUP1 MLOAD PUSH1 0x20 DUP2 ADD DUP3 ADD DUP1 MLOAD DUP5 DUP3 MSTORE PUSH1 0x20 DUP4 ADD PUSH1 0x20 DUP6 ADD KECCAK256 DUP2 DUP4 MSTORE DUP1 SWAP6 POP POP POP POP POP POP PUSH1 0x0 SWAP2 POP SWAP1 POP SLOAD DUP2 JUMP JUMPDEST PUSH1 0x7 DUP2 DUP1 MLOAD PUSH1 0x20 DUP2 ADD DUP3 ADD DUP1 MLOAD DUP5 DUP3 MSTORE PUSH1 0x20 DUP4 ADD PUSH1 0x20 DUP6 ADD KECCAK256 DUP2 DUP4 MSTORE DUP1 SWAP6 POP POP POP POP POP POP PUSH1 0x0 SWAP2 POP SWAP1 POP SLOAD DUP2 JUMP JUMPDEST PUSH1 0x60 DUP1 PUSH1 0x1 DUP5 DUP5 PUSH1 0x40 MLOAD PUSH2 0x2535 SWAP3 SWAP2 SWAP1 PUSH2 0x3015 JUMP JUMPDEST SWAP1 DUP2 MSTORE PUSH1 0x20 ADD PUSH1 0x40 MLOAD DUP1 SWAP2 SUB SWAP1 KECCAK256 PUSH1 0x8 DUP6 DUP6 PUSH1 0x40 MLOAD PUSH2 0x2555 SWAP3 SWAP2 SWAP1 PUSH2 0x3015 JUMP JUMPDEST SWAP1 DUP2 MSTORE PUSH1 0x20 ADD PUSH1 0x40 MLOAD DUP1 SWAP2 SUB SWAP1 KECCAK256 DUP2 DUP1 SLOAD PUSH2 0x256F SWAP1 PUSH2 0x3563 JUMP JUMPDEST DUP1 PUSH1 0x1F ADD PUSH1 0x20 DUP1 SWAP2 DIV MUL PUSH1 0x20 ADD PUSH1 0x40 MLOAD SWAP1 DUP2 ADD PUSH1 0x40 MSTORE DUP1 SWAP3 SWAP2 SWAP1 DUP2 DUP2 MSTORE PUSH1 0x20 ADD DUP3 DUP1 SLOAD PUSH2 0x259B SWAP1 PUSH2 0x3563 JUMP JUMPDEST DUP1 ISZERO PUSH2 0x25E8 JUMPI DUP1 PUSH1 0x1F LT PUSH2 0x25BD JUMPI PUSH2 0x100 DUP1 DUP4 SLOAD DIV MUL DUP4 MSTORE SWAP2 PUSH1 0x20 ADD SWAP2 PUSH2 0x25E8 JUMP JUMPDEST DUP3 ADD SWAP2 SWAP1 PUSH1 0x0 MSTORE PUSH1 0x20 PUSH1 0x0 KECCAK256 SWAP1 JUMPDEST DUP2 SLOAD DUP2 MSTORE SWAP1 PUSH1 0x1 ADD SWAP1 PUSH1 0x20 ADD DUP1 DUP4 GT PUSH2 0x25CB JUMPI DUP3 SWAP1 SUB PUSH1 0x1F AND DUP3 ADD SWAP2 JUMPDEST POP POP POP POP POP SWAP2 POP DUP1 DUP1 SLOAD PUSH2 0x25FB SWAP1 PUSH2 0x3563 JUMP JUMPDEST DUP1 PUSH1 0x1F ADD PUSH1 0x20 DUP1 SWAP2 DIV MUL PUSH1 0x20 ADD PUSH1 0x40 MLOAD SWAP1 DUP2 ADD PUSH1 0x40 MSTORE DUP1 SWAP3 SWAP2 SWAP1 DUP2 DUP2 MSTORE PUSH1 0x20 ADD DUP3 DUP1 SLOAD PUSH2 0x2627 SWAP1 PUSH2 0x3563 JUMP JUMPDEST DUP1 ISZERO PUSH2 0x2674 JUMPI DUP1 PUSH1 0x1F LT PUSH2 0x2649 JUMPI PUSH2 0x100 DUP1 DUP4 SLOAD DIV MUL DUP4 MSTORE SWAP2 PUSH1 0x20 ADD SWAP2 PUSH2 0x2674 JUMP JUMPDEST DUP3 ADD SWAP2 SWAP1 PUSH1 0x0 MSTORE PUSH1 0x20 PUSH1 0x0 KECCAK256 SWAP1 JUMPDEST DUP2 SLOAD DUP2 MSTORE SWAP1 PUSH1 0x1 ADD SWAP1 PUSH1 0x20 ADD DUP1 DUP4 GT PUSH2 0x2657 JUMPI DUP3 SWAP1 SUB PUSH1 0x1F AND DUP3 ADD SWAP2 JUMPDEST POP POP POP POP POP SWAP1 POP SWAP2 POP SWAP2 POP SWAP3 POP SWAP3 SWAP1 POP JUMP JUMPDEST PUSH1 0x0 DUP2 DUP1 MLOAD PUSH1 0x20 DUP2 ADD DUP3 ADD DUP1 MLOAD DUP5 DUP3 MSTORE PUSH1 0x20 DUP4 ADD PUSH1 0x20 DUP6 ADD KECCAK256 DUP2 DUP4 MSTORE DUP1 SWAP6 POP POP POP POP POP POP PUSH1 0x0 SWAP2 POP SLOAD SWAP1 PUSH2 0x100 EXP SWAP1 DIV PUSH20 0xFFFFFFFFFFFFFFFFFFFFFFFFFFFFFFFFFFFFFFFF AND DUP2 JUMP JUMPDEST PUSH1 0x0 PUSH1 0xA DUP4 DUP4 PUSH1 0x40 MLOAD PUSH2 0x26E3 SWAP3 SWAP2 SWAP1 PUSH2 0x3015 JUMP JUMPDEST SWAP1 DUP2 MSTORE PUSH1 0x20 ADD PUSH1 0x40 MLOAD DUP1 SWAP2 SUB SWAP1 KECCAK256 PUSH1 0x0 SWAP1 SLOAD SWAP1 PUSH2 0x100 EXP SWAP1 DIV PUSH1 0xFF AND SWAP1 POP SWAP3 SWAP2 POP POP JUMP JUMPDEST PUSH1 0xB DUP2 DUP1 MLOAD PUSH1 0x20 DUP2 ADD DUP3 ADD DUP1 MLOAD DUP5 DUP3 MSTORE PUSH1 0x20 DUP4 ADD PUSH1 0x20 DUP6 ADD KECCAK256 DUP2 DUP4 MSTORE DUP1 SWAP6 POP POP POP POP POP POP PUSH1 0x0 SWAP2 POP SWAP1 POP DUP1 SLOAD PUSH2 0x273C SWAP1 PUSH2 0x3563 JUMP JUMPDEST DUP1 PUSH1 0x1F ADD PUSH1 0x20 DUP1 SWAP2 DIV MUL PUSH1 0x20 ADD PUSH1 0x40 MLOAD SWAP1 DUP2 ADD PUSH1 0x40 MSTORE DUP1 SWAP3 SWAP2 SWAP1 DUP2 DUP2 MSTORE PUSH1 0x20 ADD DUP3 DUP1 SLOAD PUSH2 0x2768 SWAP1 PUSH2 0x3563 JUMP JUMPDEST DUP1 ISZERO PUSH2 0x27B5 JUMPI DUP1 PUSH1 0x1F LT PUSH2 0x278A JUMPI PUSH2 0x100 DUP1 DUP4 SLOAD DIV MUL DUP4 MSTORE SWAP2 PUSH1 0x20 ADD SWAP2 PUSH2 0x27B5 JUMP JUMPDEST DUP3 ADD SWAP2 SWAP1 PUSH1 0x0 MSTORE PUSH1 0x20 PUSH1 0x0 KECCAK256 SWAP1 JUMPDEST DUP2 SLOAD DUP2 MSTORE SWAP1 PUSH1 0x1 ADD SWAP1 PUSH1 0x20 ADD DUP1 DUP4 GT PUSH2 0x2798 JUMPI DUP3 SWAP1 SUB PUSH1 0x1F AND DUP3 ADD SWAP2 JUMPDEST POP POP POP POP POP DUP2 JUMP JUMPDEST DUP3 DUP1 SLOAD PUSH2 0x27C9 SWAP1 PUSH2 0x3563 JUMP JUMPDEST SWAP1 PUSH1 0x0 MSTORE PUSH1 0x20 PUSH1 0x0 KECCAK256 SWAP1 PUSH1 0x1F ADD PUSH1 0x20 SWAP1 DIV DUP2 ADD SWAP3 DUP3 PUSH2 0x27EB JUMPI PUSH1 0x0 DUP6 SSTORE PUSH2 0x2832 JUMP JUMPDEST DUP3 PUSH1 0x1F LT PUSH2 0x2804 JUMPI DUP1 MLOAD PUSH1 0xFF NOT AND DUP4 DUP1 ADD OR DUP6 SSTORE PUSH2 0x2832 JUMP JUMPDEST DUP3 DUP1 ADD PUSH1 0x1 ADD DUP6 SSTORE DUP3 ISZERO PUSH2 0x2832 JUMPI SWAP2 DUP3 ADD JUMPDEST DUP3 DUP2 GT ISZERO PUSH2 0x2831 JUMPI DUP3 MLOAD DUP3 SSTORE SWAP2 PUSH1 0x20 ADD SWAP2 SWAP1 PUSH1 0x1 ADD SWAP1 PUSH2 0x2816 JUMP JUMPDEST JUMPDEST POP SWAP1 POP PUSH2 0x283F SWAP2 SWAP1 PUSH2 0x2843 JUMP JUMPDEST POP SWAP1 JUMP JUMPDEST JUMPDEST DUP1 DUP3 GT ISZERO PUSH2 0x285C JUMPI PUSH1 0x0 DUP2 PUSH1 0x0 SWAP1 SSTORE POP PUSH1 0x1 ADD PUSH2 0x2844 JUMP JUMPDEST POP SWAP1 JUMP JUMPDEST PUSH1 0x0 PUSH2 0x2873 PUSH2 0x286E DUP5 PUSH2 0x3350 JUMP JUMPDEST PUSH2 0x332B JUMP JUMPDEST SWAP1 POP DUP3 DUP2 MSTORE PUSH1 0x20 DUP2 ADD DUP5 DUP5 DUP5 ADD GT ISZERO PUSH2 0x288F JUMPI PUSH2 0x288E PUSH2 0x36EA JUMP JUMPDEST JUMPDEST PUSH2 0x289A DUP5 DUP3 DUP6 PUSH2 0x3521 JUMP JUMPDEST POP SWAP4 SWAP3 POP POP POP JUMP JUMPDEST PUSH1 0x0 DUP2 CALLDATALOAD SWAP1 POP PUSH2 0x28B1 DUP2 PUSH2 0x3965 JUMP JUMPDEST SWAP3 SWAP2 POP POP JUMP JUMPDEST PUSH1 0x0 DUP2 CALLDATALOAD SWAP1 POP PUSH2 0x28C6 DUP2 PUSH2 0x397C JUMP JUMPDEST SWAP3 SWAP2 POP POP JUMP JUMPDEST PUSH1 0x0 DUP1 DUP4 PUSH1 0x1F DUP5 ADD SLT PUSH2 0x28E2 JUMPI PUSH2 0x28E1 PUSH2 0x36E0 JUMP JUMPDEST JUMPDEST DUP3 CALLDATALOAD SWAP1 POP PUSH8 0xFFFFFFFFFFFFFFFF DUP2 GT ISZERO PUSH2 0x28FF JUMPI PUSH2 0x28FE PUSH2 0x36DB JUMP JUMPDEST JUMPDEST PUSH1 0x20 DUP4 ADD SWAP2 POP DUP4 PUSH1 0x1 DUP3 MUL DUP4 ADD GT ISZERO PUSH2 0x291B JUMPI PUSH2 0x291A PUSH2 0x36E5 JUMP JUMPDEST JUMPDEST SWAP3 POP SWAP3 SWAP1 POP JUMP JUMPDEST PUSH1 0x0 DUP3 PUSH1 0x1F DUP4 ADD SLT PUSH2 0x2937 JUMPI PUSH2 0x2936 PUSH2 0x36E0 JUMP JUMPDEST JUMPDEST DUP2 CALLDATALOAD PUSH2 0x2947 DUP5 DUP3 PUSH1 0x20 DUP7 ADD PUSH2 0x2860 JUMP JUMPDEST SWAP2 POP POP SWAP3 SWAP2 POP POP JUMP JUMPDEST PUSH1 0x0 DUP2 CALLDATALOAD SWAP1 POP PUSH2 0x295F DUP2 PUSH2 0x3993 JUMP JUMPDEST SWAP3 SWAP2 POP POP JUMP JUMPDEST PUSH1 0x0 DUP1 PUSH1 0x0 PUSH1 0x40 DUP5 DUP7 SUB SLT ISZERO PUSH2 0x297E JUMPI PUSH2 0x297D PUSH2 0x36F4 JUMP JUMPDEST JUMPDEST PUSH1 0x0 PUSH2 0x298C DUP7 DUP3 DUP8 ADD PUSH2 0x28A2 JUMP JUMPDEST SWAP4 POP POP PUSH1 0x20 DUP5 ADD CALLDATALOAD PUSH8 0xFFFFFFFFFFFFFFFF DUP2 GT ISZERO PUSH2 0x29AD JUMPI PUSH2 0x29AC PUSH2 0x36EF JUMP JUMPDEST JUMPDEST PUSH2 0x29B9 DUP7 DUP3 DUP8 ADD PUSH2 0x28CC JUMP JUMPDEST SWAP3 POP SWAP3 POP POP SWAP3 POP SWAP3 POP SWAP3 JUMP JUMPDEST PUSH1 0x0 DUP1 PUSH1 0x20 DUP4 DUP6 SUB SLT ISZERO PUSH2 0x29DC JUMPI PUSH2 0x29DB PUSH2 0x36F4 JUMP JUMPDEST JUMPDEST PUSH1 0x0 DUP4 ADD CALLDATALOAD PUSH8 0xFFFFFFFFFFFFFFFF DUP2 GT ISZERO PUSH2 0x29FA JUMPI PUSH2 0x29F9 PUSH2 0x36EF JUMP JUMPDEST JUMPDEST PUSH2 0x2A06 DUP6 DUP3 DUP7 ADD PUSH2 0x28CC JUMP JUMPDEST SWAP3 POP SWAP3 POP POP SWAP3 POP SWAP3 SWAP1 POP JUMP JUMPDEST PUSH1 0x0 PUSH1 0x20 DUP3 DUP5 SUB SLT ISZERO PUSH2 0x2A28 JUMPI PUSH2 0x2A27 PUSH2 0x36F4 JUMP JUMPDEST JUMPDEST PUSH1 0x0 DUP3 ADD CALLDATALOAD PUSH8 0xFFFFFFFFFFFFFFFF DUP2 GT ISZERO PUSH2 0x2A46 JUMPI PUSH2 0x2A45 PUSH2 0x36EF JUMP JUMPDEST JUMPDEST PUSH2 0x2A52 DUP5 DUP3 DUP6 ADD PUSH2 0x2922 JUMP JUMPDEST SWAP2 POP POP SWAP3 SWAP2 POP POP JUMP JUMPDEST PUSH1 0x0 DUP1 PUSH1 0x40 DUP4 DUP6 SUB SLT ISZERO PUSH2 0x2A72 JUMPI PUSH2 0x2A71 PUSH2 0x36F4 JUMP JUMPDEST JUMPDEST PUSH1 0x0 DUP4 ADD CALLDATALOAD PUSH8 0xFFFFFFFFFFFFFFFF DUP2 GT ISZERO PUSH2 0x2A90 JUMPI PUSH2 0x2A8F PUSH2 0x36EF JUMP JUMPDEST JUMPDEST PUSH2 0x2A9C DUP6 DUP3 DUP7 ADD PUSH2 0x2922 JUMP JUMPDEST SWAP3 POP POP PUSH1 0x20 PUSH2 0x2AAD DUP6 DUP3 DUP7 ADD PUSH2 0x28A2 JUMP JUMPDEST SWAP2 POP POP SWAP3 POP SWAP3 SWAP1 POP JUMP JUMPDEST PUSH1 0x0 DUP1 PUSH1 0x0 PUSH1 0x40 DUP5 DUP7 SUB SLT ISZERO PUSH2 0x2AD0 JUMPI PUSH2 0x2ACF PUSH2 0x36F4 JUMP JUMPDEST JUMPDEST PUSH1 0x0 DUP5 ADD CALLDATALOAD PUSH8 0xFFFFFFFFFFFFFFFF DUP2 GT ISZERO PUSH2 0x2AEE JUMPI PUSH2 0x2AED PUSH2 0x36EF JUMP JUMPDEST JUMPDEST PUSH2 0x2AFA DUP7 DUP3 DUP8 ADD PUSH2 0x2922 JUMP JUMPDEST SWAP4 POP POP PUSH1 0x20 DUP5 ADD CALLDATALOAD PUSH8 0xFFFFFFFFFFFFFFFF DUP2 GT ISZERO PUSH2 0x2B1B JUMPI PUSH2 0x2B1A PUSH2 0x36EF JUMP JUMPDEST JUMPDEST PUSH2 0x2B27 DUP7 DUP3 DUP8 ADD PUSH2 0x28CC JUMP JUMPDEST SWAP3 POP SWAP3 POP POP SWAP3 POP SWAP3 POP SWAP3 JUMP JUMPDEST PUSH1 0x0 DUP1 PUSH1 0x40 DUP4 DUP6 SUB SLT ISZERO PUSH2 0x2B4A JUMPI PUSH2 0x2B49 PUSH2 0x36F4 JUMP JUMPDEST JUMPDEST PUSH1 0x0 DUP4 ADD CALLDATALOAD PUSH8 0xFFFFFFFFFFFFFFFF DUP2 GT ISZERO PUSH2 0x2B68 JUMPI PUSH2 0x2B67 PUSH2 0x36EF JUMP JUMPDEST JUMPDEST PUSH2 0x2B74 DUP6 DUP3 DUP7 ADD PUSH2 0x2922 JUMP JUMPDEST SWAP3 POP POP PUSH1 0x20 PUSH2 0x2B85 DUP6 DUP3 DUP7 ADD PUSH2 0x2950 JUMP JUMPDEST SWAP2 POP POP SWAP3 POP SWAP3 SWAP1 POP JUMP JUMPDEST PUSH1 0x0 DUP1 PUSH1 0x0 DUP1 PUSH1 0x80 DUP6 DUP8 SUB SLT ISZERO PUSH2 0x2BA9 JUMPI PUSH2 0x2BA8 PUSH2 0x36F4 JUMP JUMPDEST JUMPDEST PUSH1 0x0 DUP6 ADD CALLDATALOAD PUSH8 0xFFFFFFFFFFFFFFFF DUP2 GT ISZERO PUSH2 0x2BC7 JUMPI PUSH2 0x2BC6 PUSH2 0x36EF JUMP JUMPDEST JUMPDEST PUSH2 0x2BD3 DUP8 DUP3 DUP9 ADD PUSH2 0x2922 JUMP JUMPDEST SWAP5 POP POP PUSH1 0x20 PUSH2 0x2BE4 DUP8 DUP3 DUP9 ADD PUSH2 0x2950 JUMP JUMPDEST SWAP4 POP POP PUSH1 0x40 PUSH2 0x2BF5 DUP8 DUP3 DUP9 ADD PUSH2 0x2950 JUMP JUMPDEST SWAP3 POP POP PUSH1 0x60 PUSH2 0x2C06 DUP8 DUP3 DUP9 ADD PUSH2 0x28B7 JUMP JUMPDEST SWAP2 POP POP SWAP3 SWAP6 SWAP2 SWAP5 POP SWAP3 POP JUMP JUMPDEST PUSH1 0x0 DUP1 PUSH1 0x0 DUP1 PUSH1 0x0 DUP1 PUSH1 0xC0 DUP8 DUP10 SUB SLT ISZERO PUSH2 0x2C2F JUMPI PUSH2 0x2C2E PUSH2 0x36F4 JUMP JUMPDEST JUMPDEST PUSH1 0x0 DUP8 ADD CALLDATALOAD PUSH8 0xFFFFFFFFFFFFFFFF DUP2 GT ISZERO PUSH2 0x2C4D JUMPI PUSH2 0x2C4C PUSH2 0x36EF JUMP JUMPDEST JUMPDEST PUSH2 0x2C59 DUP10 DUP3 DUP11 ADD PUSH2 0x2922 JUMP JUMPDEST SWAP7 POP POP PUSH1 0x20 PUSH2 0x2C6A DUP10 DUP3 DUP11 ADD PUSH2 0x2950 JUMP JUMPDEST SWAP6 POP POP PUSH1 0x40 PUSH2 0x2C7B DUP10 DUP3 DUP11 ADD PUSH2 0x2950 JUMP JUMPDEST SWAP5 POP POP PUSH1 0x60 PUSH2 0x2C8C DUP10 DUP3 DUP11 ADD PUSH2 0x28B7 JUMP JUMPDEST SWAP4 POP POP PUSH1 0x80 DUP8 ADD CALLDATALOAD PUSH8 0xFFFFFFFFFFFFFFFF DUP2 GT ISZERO PUSH2 0x2CAD JUMPI PUSH2 0x2CAC PUSH2 0x36EF JUMP JUMPDEST JUMPDEST PUSH2 0x2CB9 DUP10 DUP3 DUP11 ADD PUSH2 0x2922 JUMP JUMPDEST SWAP3 POP POP PUSH1 0xA0 DUP8 ADD CALLDATALOAD PUSH8 0xFFFFFFFFFFFFFFFF DUP2 GT ISZERO PUSH2 0x2CDA JUMPI PUSH2 0x2CD9 PUSH2 0x36EF JUMP JUMPDEST JUMPDEST PUSH2 0x2CE6 DUP10 DUP3 DUP11 ADD PUSH2 0x2922 JUMP JUMPDEST SWAP2 POP POP SWAP3 SWAP6 POP SWAP3 SWAP6 POP SWAP3 SWAP6 JUMP JUMPDEST PUSH1 0x0 PUSH2 0x2CFF DUP4 DUP4 PUSH2 0x2FC4 JUMP JUMPDEST PUSH1 0x60 DUP4 ADD SWAP1 POP SWAP3 SWAP2 POP POP JUMP JUMPDEST PUSH2 0x2D14 DUP2 PUSH2 0x34C2 JUMP JUMPDEST DUP3 MSTORE POP POP JUMP JUMPDEST PUSH2 0x2D23 DUP2 PUSH2 0x34C2 JUMP JUMPDEST DUP3 MSTORE POP POP JUMP JUMPDEST PUSH1 0x0 PUSH2 0x2D34 DUP3 PUSH2 0x3391 JUMP JUMPDEST PUSH2 0x2D3E DUP2 DUP6 PUSH2 0x33B4 JUMP JUMPDEST SWAP4 POP PUSH2 0x2D49 DUP4 PUSH2 0x3381 JUMP JUMPDEST DUP1 PUSH1 0x0 JUMPDEST DUP4 DUP2 LT ISZERO PUSH2 0x2D7A JUMPI DUP2 MLOAD PUSH2 0x2D61 DUP9 DUP3 PUSH2 0x2CF3 JUMP JUMPDEST SWAP8 POP PUSH2 0x2D6C DUP4 PUSH2 0x33A7 JUMP JUMPDEST SWAP3 POP POP PUSH1 0x1 DUP2 ADD SWAP1 POP PUSH2 0x2D4D JUMP JUMPDEST POP DUP6 SWAP4 POP POP POP POP SWAP3 SWAP2 POP POP JUMP JUMPDEST PUSH2 0x2D90 DUP2 PUSH2 0x34D4 JUMP JUMPDEST DUP3 MSTORE POP POP JUMP JUMPDEST PUSH2 0x2D9F DUP2 PUSH2 0x34D4 JUMP JUMPDEST DUP3 MSTORE POP POP JUMP JUMPDEST PUSH2 0x2DAE DUP2 PUSH2 0x34E0 JUMP JUMPDEST DUP3 MSTORE POP POP JUMP JUMPDEST PUSH1 0x0 PUSH2 0x2DC0 DUP4 DUP6 PUSH2 0x33D6 JUMP JUMPDEST SWAP4 POP PUSH2 0x2DCD DUP4 DUP6 DUP5 PUSH2 0x3521 JUMP JUMPDEST DUP3 DUP5 ADD SWAP1 POP SWAP4 SWAP3 POP POP POP JUMP JUMPDEST PUSH1 0x0 PUSH2 0x2DE4 DUP3 PUSH2 0x339C JUMP JUMPDEST PUSH2 0x2DEE DUP2 DUP6 PUSH2 0x33C5 JUMP JUMPDEST SWAP4 POP PUSH2 0x2DFE DUP2 DUP6 PUSH1 0x20 DUP7 ADD PUSH2 0x3530 JUMP JUMPDEST PUSH2 0x2E07 DUP2 PUSH2 0x36F9 JUMP JUMPDEST DUP5 ADD SWAP2 POP POP SWAP3 SWAP2 POP POP JUMP JUMPDEST PUSH1 0x0 PUSH2 0x2E1D DUP3 PUSH2 0x339C JUMP JUMPDEST PUSH2 0x2E27 DUP2 DUP6 PUSH2 0x33D6 JUMP JUMPDEST SWAP4 POP PUSH2 0x2E37 DUP2 DUP6 PUSH1 0x20 DUP7 ADD PUSH2 0x3530 JUMP JUMPDEST DUP1 DUP5 ADD SWAP2 POP POP SWAP3 SWAP2 POP POP JUMP JUMPDEST PUSH1 0x0 PUSH2 0x2E50 PUSH1 0x1F DUP4 PUSH2 0x33C5 JUMP JUMPDEST SWAP2 POP PUSH2 0x2E5B DUP3 PUSH2 0x370A JUMP JUMPDEST PUSH1 0x20 DUP3 ADD SWAP1 POP SWAP2 SWAP1 POP JUMP JUMPDEST PUSH1 0x0 PUSH2 0x2E73 PUSH1 0x19 DUP4 PUSH2 0x33C5 JUMP JUMPDEST SWAP2 POP PUSH2 0x2E7E DUP3 PUSH2 0x3733 JUMP JUMPDEST PUSH1 0x20 DUP3 ADD SWAP1 POP SWAP2 SWAP1 POP JUMP JUMPDEST PUSH1 0x0 PUSH2 0x2E96 PUSH1 0x26 DUP4 PUSH2 0x33C5 JUMP JUMPDEST SWAP2 POP PUSH2 0x2EA1 DUP3 PUSH2 0x375C JUMP JUMPDEST PUSH1 0x40 DUP3 ADD SWAP1 POP SWAP2 SWAP1 POP JUMP JUMPDEST PUSH1 0x0 PUSH2 0x2EB9 PUSH1 0x1C DUP4 PUSH2 0x33C5 JUMP JUMPDEST SWAP2 POP PUSH2 0x2EC4 DUP3 PUSH2 0x37AB JUMP JUMPDEST PUSH1 0x20 DUP3 ADD SWAP1 POP SWAP2 SWAP1 POP JUMP JUMPDEST PUSH1 0x0 PUSH2 0x2EDC PUSH1 0x15 DUP4 PUSH2 0x33C5 JUMP JUMPDEST SWAP2 POP PUSH2 0x2EE7 DUP3 PUSH2 0x37D4 JUMP JUMPDEST PUSH1 0x20 DUP3 ADD SWAP1 POP SWAP2 SWAP1 POP JUMP JUMPDEST PUSH1 0x0 PUSH2 0x2EFF PUSH1 0x1E DUP4 PUSH2 0x33C5 JUMP JUMPDEST SWAP2 POP PUSH2 0x2F0A DUP3 PUSH2 0x37FD JUMP JUMPDEST PUSH1 0x20 DUP3 ADD SWAP1 POP SWAP2 SWAP1 POP JUMP JUMPDEST PUSH1 0x0 PUSH2 0x2F22 PUSH1 0x24 DUP4 PUSH2 0x33C5 JUMP JUMPDEST SWAP2 POP PUSH2 0x2F2D DUP3 PUSH2 0x3826 JUMP JUMPDEST PUSH1 0x40 DUP3 ADD SWAP1 POP SWAP2 SWAP1 POP JUMP JUMPDEST PUSH1 0x0 PUSH2 0x2F45 PUSH1 0x28 DUP4 PUSH2 0x33C5 JUMP JUMPDEST SWAP2 POP PUSH2 0x2F50 DUP3 PUSH2 0x3875 JUMP JUMPDEST PUSH1 0x40 DUP3 ADD SWAP1 POP SWAP2 SWAP1 POP JUMP JUMPDEST PUSH1 0x0 PUSH2 0x2F68 PUSH1 0x20 DUP4 PUSH2 0x33C5 JUMP JUMPDEST SWAP2 POP PUSH2 0x2F73 DUP3 PUSH2 0x38C4 JUMP JUMPDEST PUSH1 0x20 DUP3 ADD SWAP1 POP SWAP2 SWAP1 POP JUMP JUMPDEST PUSH1 0x0 PUSH2 0x2F8B PUSH1 0x12 DUP4 PUSH2 0x33C5 JUMP JUMPDEST SWAP2 POP PUSH2 0x2F96 DUP3 PUSH2 0x38ED JUMP JUMPDEST PUSH1 0x20 DUP3 ADD SWAP1 POP SWAP2 SWAP1 POP JUMP JUMPDEST PUSH1 0x0 PUSH2 0x2FAE PUSH1 0x25 DUP4 PUSH2 0x33C5 JUMP JUMPDEST SWAP2 POP PUSH2 0x2FB9 DUP3 PUSH2 0x3916 JUMP JUMPDEST PUSH1 0x40 DUP3 ADD SWAP1 POP SWAP2 SWAP1 POP JUMP JUMPDEST PUSH1 0x60 DUP3 ADD PUSH1 0x0 DUP3 ADD MLOAD PUSH2 0x2FDA PUSH1 0x0 DUP6 ADD DUP3 PUSH2 0x2D87 JUMP JUMPDEST POP PUSH1 0x20 DUP3 ADD MLOAD PUSH2 0x2FED PUSH1 0x20 DUP6 ADD DUP3 PUSH2 0x2D87 JUMP JUMPDEST POP PUSH1 0x40 DUP3 ADD MLOAD PUSH2 0x3000 PUSH1 0x40 DUP6 ADD DUP3 PUSH2 0x2D0B JUMP JUMPDEST POP POP POP POP JUMP JUMPDEST PUSH2 0x300F DUP2 PUSH2 0x350A JUMP JUMPDEST DUP3 MSTORE POP POP JUMP JUMPDEST PUSH1 0x0 PUSH2 0x3022 DUP3 DUP5 DUP7 PUSH2 0x2DB4 JUMP JUMPDEST SWAP2 POP DUP2 SWAP1 POP SWAP4 SWAP3 POP POP POP JUMP JUMPDEST PUSH1 0x0 PUSH2 0x303A DUP3 DUP5 PUSH2 0x2E12 JUMP JUMPDEST SWAP2 POP DUP2 SWAP1 POP SWAP3 SWAP2 POP POP JUMP JUMPDEST PUSH1 0x0 PUSH1 0x20 DUP3 ADD SWAP1 POP PUSH2 0x305A PUSH1 0x0 DUP4 ADD DUP5 PUSH2 0x2D1A JUMP JUMPDEST SWAP3 SWAP2 POP POP JUMP JUMPDEST PUSH1 0x0 PUSH1 0x20 DUP3 ADD SWAP1 POP PUSH2 0x3075 PUSH1 0x0 DUP4 ADD DUP5 PUSH2 0x2D96 JUMP JUMPDEST SWAP3 SWAP2 POP POP JUMP JUMPDEST PUSH1 0x0 PUSH1 0x60 DUP3 ADD SWAP1 POP PUSH2 0x3090 PUSH1 0x0 DUP4 ADD DUP7 PUSH2 0x2D96 JUMP JUMPDEST PUSH2 0x309D PUSH1 0x20 DUP4 ADD DUP6 PUSH2 0x2D96 JUMP JUMPDEST PUSH2 0x30AA PUSH1 0x40 DUP4 ADD DUP5 PUSH2 0x2D1A JUMP JUMPDEST SWAP5 SWAP4 POP POP POP POP JUMP JUMPDEST PUSH1 0x0 PUSH1 0x60 DUP3 ADD SWAP1 POP PUSH2 0x30C7 PUSH1 0x0 DUP4 ADD DUP7 PUSH2 0x2D96 JUMP JUMPDEST PUSH2 0x30D4 PUSH1 0x20 DUP4 ADD DUP6 PUSH2 0x2D96 JUMP JUMPDEST PUSH2 0x30E1 PUSH1 0x40 DUP4 ADD DUP5 PUSH2 0x2D96 JUMP JUMPDEST SWAP5 SWAP4 POP POP POP POP JUMP JUMPDEST PUSH1 0x0 PUSH1 0x80 DUP3 ADD SWAP1 POP PUSH2 0x30FE PUSH1 0x0 DUP4 ADD DUP8 PUSH2 0x2D96 JUMP JUMPDEST DUP2 DUP2 SUB PUSH1 0x20 DUP4 ADD MSTORE PUSH2 0x3110 DUP2 DUP7 PUSH2 0x2DD9 JUMP JUMPDEST SWAP1 POP PUSH2 0x311F PUSH1 0x40 DUP4 ADD DUP6 PUSH2 0x3006 JUMP JUMPDEST DUP2 DUP2 SUB PUSH1 0x60 DUP4 ADD MSTORE PUSH2 0x3131 DUP2 DUP5 PUSH2 0x2D29 JUMP JUMPDEST SWAP1 POP SWAP6 SWAP5 POP POP POP POP POP JUMP JUMPDEST PUSH1 0x0 PUSH1 0x20 DUP3 ADD SWAP1 POP PUSH2 0x3151 PUSH1 0x0 DUP4 ADD DUP5 PUSH2 0x2DA5 JUMP JUMPDEST SWAP3 SWAP2 POP POP JUMP JUMPDEST PUSH1 0x0 PUSH1 0x20 DUP3 ADD SWAP1 POP DUP2 DUP2 SUB PUSH1 0x0 DUP4 ADD MSTORE PUSH2 0x3171 DUP2 DUP5 PUSH2 0x2DD9 JUMP JUMPDEST SWAP1 POP SWAP3 SWAP2 POP POP JUMP JUMPDEST PUSH1 0x0 PUSH1 0x40 DUP3 ADD SWAP1 POP DUP2 DUP2 SUB PUSH1 0x0 DUP4 ADD MSTORE PUSH2 0x3193 DUP2 DUP6 PUSH2 0x2DD9 JUMP JUMPDEST SWAP1 POP DUP2 DUP2 SUB PUSH1 0x20 DUP4 ADD MSTORE PUSH2 0x31A7 DUP2 DUP5 PUSH2 0x2DD9 JUMP JUMPDEST SWAP1 POP SWAP4 SWAP3 POP POP POP JUMP JUMPDEST PUSH1 0x0 PUSH1 0x20 DUP3 ADD SWAP1 POP DUP2 DUP2 SUB PUSH1 0x0 DUP4 ADD MSTORE PUSH2 0x31C9 DUP2 PUSH2 0x2E43 JUMP JUMPDEST SWAP1 POP SWAP2 SWAP1 POP JUMP JUMPDEST PUSH1 0x0 PUSH1 0x20 DUP3 ADD SWAP1 POP DUP2 DUP2 SUB PUSH1 0x0 DUP4 ADD MSTORE PUSH2 0x31E9 DUP2 PUSH2 0x2E66 JUMP JUMPDEST SWAP1 POP SWAP2 SWAP1 POP JUMP JUMPDEST PUSH1 0x0 PUSH1 0x20 DUP3 ADD SWAP1 POP DUP2 DUP2 SUB PUSH1 0x0 DUP4 ADD MSTORE PUSH2 0x3209 DUP2 PUSH2 0x2E89 JUMP JUMPDEST SWAP1 POP SWAP2 SWAP1 POP JUMP JUMPDEST PUSH1 0x0 PUSH1 0x20 DUP3 ADD SWAP1 POP DUP2 DUP2 SUB PUSH1 0x0 DUP4 ADD MSTORE PUSH2 0x3229 DUP2 PUSH2 0x2EAC JUMP JUMPDEST SWAP1 POP SWAP2 SWAP1 POP JUMP JUMPDEST PUSH1 0x0 PUSH1 0x20 DUP3 ADD SWAP1 POP DUP2 DUP2 SUB PUSH1 0x0 DUP4 ADD MSTORE PUSH2 0x3249 DUP2 PUSH2 0x2ECF JUMP JUMPDEST SWAP1 POP SWAP2 SWAP1 POP JUMP JUMPDEST PUSH1 0x0 PUSH1 0x20 DUP3 ADD SWAP1 POP DUP2 DUP2 SUB PUSH1 0x0 DUP4 ADD MSTORE PUSH2 0x3269 DUP2 PUSH2 0x2EF2 JUMP JUMPDEST SWAP1 POP SWAP2 SWAP1 POP JUMP JUMPDEST PUSH1 0x0 PUSH1 0x20 DUP3 ADD SWAP1 POP DUP2 DUP2 SUB PUSH1 0x0 DUP4 ADD MSTORE PUSH2 0x3289 DUP2 PUSH2 0x2F15 JUMP JUMPDEST SWAP1 POP SWAP2 SWAP1 POP JUMP JUMPDEST PUSH1 0x0 PUSH1 0x20 DUP3 ADD SWAP1 POP DUP2 DUP2 SUB PUSH1 0x0 DUP4 ADD MSTORE PUSH2 0x32A9 DUP2 PUSH2 0x2F38 JUMP JUMPDEST SWAP1 POP SWAP2 SWAP1 POP JUMP JUMPDEST PUSH1 0x0 PUSH1 0x20 DUP3 ADD SWAP1 POP DUP2 DUP2 SUB PUSH1 0x0 DUP4 ADD MSTORE PUSH2 0x32C9 DUP2 PUSH2 0x2F5B JUMP JUMPDEST SWAP1 POP SWAP2 SWAP1 POP JUMP JUMPDEST PUSH1 0x0 PUSH1 0x20 DUP3 ADD SWAP1 POP DUP2 DUP2 SUB PUSH1 0x0 DUP4 ADD MSTORE PUSH2 0x32E9 DUP2 PUSH2 0x2F7E JUMP JUMPDEST SWAP1 POP SWAP2 SWAP1 POP JUMP JUMPDEST PUSH1 0x0 PUSH1 0x20 DUP3 ADD SWAP1 POP DUP2 DUP2 SUB PUSH1 0x0 DUP4 ADD MSTORE PUSH2 0x3309 DUP2 PUSH2 0x2FA1 JUMP JUMPDEST SWAP1 POP SWAP2 SWAP1 POP JUMP JUMPDEST PUSH1 0x0 PUSH1 0x20 DUP3 ADD SWAP1 POP PUSH2 0x3325 PUSH1 0x0 DUP4 ADD DUP5 PUSH2 0x3006 JUMP JUMPDEST SWAP3 SWAP2 POP POP JUMP JUMPDEST PUSH1 0x0 PUSH2 0x3335 PUSH2 0x3346 JUMP JUMPDEST SWAP1 POP PUSH2 0x3341 DUP3 DUP3 PUSH2 0x3595 JUMP JUMPDEST SWAP2 SWAP1 POP JUMP JUMPDEST PUSH1 0x0 PUSH1 0x40 MLOAD SWAP1 POP SWAP1 JUMP JUMPDEST PUSH1 0x0 PUSH8 0xFFFFFFFFFFFFFFFF DUP3 GT ISZERO PUSH2 0x336B JUMPI PUSH2 0x336A PUSH2 0x36AC JUMP JUMPDEST JUMPDEST PUSH2 0x3374 DUP3 PUSH2 0x36F9 JUMP JUMPDEST SWAP1 POP PUSH1 0x20 DUP2 ADD SWAP1 POP SWAP2 SWAP1 POP JUMP JUMPDEST PUSH1 0x0 DUP2 SWAP1 POP PUSH1 0x20 DUP3 ADD SWAP1 POP SWAP2 SWAP1 POP JUMP JUMPDEST PUSH1 0x0 DUP2 MLOAD SWAP1 POP SWAP2 SWAP1 POP JUMP JUMPDEST PUSH1 0x0 DUP2 MLOAD SWAP1 POP SWAP2 SWAP1 POP JUMP JUMPDEST PUSH1 0x0 PUSH1 0x20 DUP3 ADD SWAP1 POP SWAP2 SWAP1 POP JUMP JUMPDEST PUSH1 0x0 DUP3 DUP3 MSTORE PUSH1 0x20 DUP3 ADD SWAP1 POP SWAP3 SWAP2 POP POP JUMP JUMPDEST PUSH1 0x0 DUP3 DUP3 MSTORE PUSH1 0x20 DUP3 ADD SWAP1 POP SWAP3 SWAP2 POP POP JUMP JUMPDEST PUSH1 0x0 DUP2 SWAP1 POP SWAP3 SWAP2 POP POP JUMP JUMPDEST PUSH1 0x0 PUSH2 0x33EC DUP3 PUSH2 0x350A JUMP JUMPDEST SWAP2 POP PUSH2 0x33F7 DUP4 PUSH2 0x350A JUMP JUMPDEST SWAP3 POP DUP3 PUSH32 0xFFFFFFFFFFFFFFFFFFFFFFFFFFFFFFFFFFFFFFFFFFFFFFFFFFFFFFFFFFFFFFFF SUB DUP3 GT ISZERO PUSH2 0x342C JUMPI PUSH2 0x342B PUSH2 0x35F0 JUMP JUMPDEST JUMPDEST DUP3 DUP3 ADD SWAP1 POP SWAP3 SWAP2 POP POP JUMP JUMPDEST PUSH1 0x0 PUSH2 0x3442 DUP3 PUSH2 0x350A JUMP JUMPDEST SWAP2 POP PUSH2 0x344D DUP4 PUSH2 0x350A JUMP JUMPDEST SWAP3 POP DUP3 PUSH2 0x345D JUMPI PUSH2 0x345C PUSH2 0x361F JUMP JUMPDEST JUMPDEST DUP3 DUP3 DIV SWAP1 POP SWAP3 SWAP2 POP POP JUMP JUMPDEST PUSH1 0x0 PUSH2 0x3473 DUP3 PUSH2 0x350A JUMP JUMPDEST SWAP2 POP PUSH2 0x347E DUP4 PUSH2 0x350A JUMP JUMPDEST SWAP3 POP DUP2 PUSH32 0xFFFFFFFFFFFFFFFFFFFFFFFFFFFFFFFFFFFFFFFFFFFFFFFFFFFFFFFFFFFFFFFF DIV DUP4 GT DUP3 ISZERO ISZERO AND ISZERO PUSH2 0x34B7 JUMPI PUSH2 0x34B6 PUSH2 0x35F0 JUMP JUMPDEST JUMPDEST DUP3 DUP3 MUL SWAP1 POP SWAP3 SWAP2 POP POP JUMP JUMPDEST PUSH1 0x0 PUSH2 0x34CD DUP3 PUSH2 0x34EA JUMP JUMPDEST SWAP1 POP SWAP2 SWAP1 POP JUMP JUMPDEST PUSH1 0x0 DUP2 ISZERO ISZERO SWAP1 POP SWAP2 SWAP1 POP JUMP JUMPDEST PUSH1 0x0 DUP2 SWAP1 POP SWAP2 SWAP1 POP JUMP JUMPDEST PUSH1 0x0 PUSH20 0xFFFFFFFFFFFFFFFFFFFFFFFFFFFFFFFFFFFFFFFF DUP3 AND SWAP1 POP SWAP2 SWAP1 POP JUMP JUMPDEST PUSH1 0x0 DUP2 SWAP1 POP SWAP2 SWAP1 POP JUMP JUMPDEST PUSH1 0x0 PUSH1 0xFF DUP3 AND SWAP1 POP SWAP2 SWAP1 POP JUMP JUMPDEST DUP3 DUP2 DUP4 CALLDATACOPY PUSH1 0x0 DUP4 DUP4 ADD MSTORE POP POP POP JUMP JUMPDEST PUSH1 0x0 JUMPDEST DUP4 DUP2 LT ISZERO PUSH2 0x354E JUMPI DUP1 DUP3 ADD MLOAD DUP2 DUP5 ADD MSTORE PUSH1 0x20 DUP2 ADD SWAP1 POP PUSH2 0x3533 JUMP JUMPDEST DUP4 DUP2 GT ISZERO PUSH2 0x355D JUMPI PUSH1 0x0 DUP5 DUP5 ADD MSTORE JUMPDEST POP POP POP POP JUMP JUMPDEST PUSH1 0x0 PUSH1 0x2 DUP3 DIV SWAP1 POP PUSH1 0x1 DUP3 AND DUP1 PUSH2 0x357B JUMPI PUSH1 0x7F DUP3 AND SWAP2 POP JUMPDEST PUSH1 0x20 DUP3 LT DUP2 EQ ISZERO PUSH2 0x358F JUMPI PUSH2 0x358E PUSH2 0x364E JUMP JUMPDEST JUMPDEST POP SWAP2 SWAP1 POP JUMP JUMPDEST PUSH2 0x359E DUP3 PUSH2 0x36F9 JUMP JUMPDEST DUP2 ADD DUP2 DUP2 LT PUSH8 0xFFFFFFFFFFFFFFFF DUP3 GT OR ISZERO PUSH2 0x35BD JUMPI PUSH2 0x35BC PUSH2 0x36AC JUMP JUMPDEST JUMPDEST DUP1 PUSH1 0x40 MSTORE POP POP POP JUMP JUMPDEST PUSH1 0x0 PUSH2 0x35D1 DUP3 PUSH2 0x3514 JUMP JUMPDEST SWAP2 POP PUSH1 0xFF DUP3 EQ ISZERO PUSH2 0x35E5 JUMPI PUSH2 0x35E4 PUSH2 0x35F0 JUMP JUMPDEST JUMPDEST PUSH1 0x1 DUP3 ADD SWAP1 POP SWAP2 SWAP1 POP JUMP JUMPDEST PUSH32 0x4E487B7100000000000000000000000000000000000000000000000000000000 PUSH1 0x0 MSTORE PUSH1 0x11 PUSH1 0x4 MSTORE PUSH1 0x24 PUSH1 0x0 REVERT JUMPDEST PUSH32 0x4E487B7100000000000000000000000000000000000000000000000000000000 PUSH1 0x0 MSTORE PUSH1 0x12 PUSH1 0x4 MSTORE PUSH1 0x24 PUSH1 0x0 REVERT JUMPDEST PUSH32 0x4E487B7100000000000000000000000000000000000000000000000000000000 PUSH1 0x0 MSTORE PUSH1 0x22 PUSH1 0x4 MSTORE PUSH1 0x24 PUSH1 0x0 REVERT JUMPDEST PUSH32 0x4E487B7100000000000000000000000000000000000000000000000000000000 PUSH1 0x0 MSTORE PUSH1 0x32 PUSH1 0x4 MSTORE PUSH1 0x24 PUSH1 0x0 REVERT JUMPDEST PUSH32 0x4E487B7100000000000000000000000000000000000000000000000000000000 PUSH1 0x0 MSTORE PUSH1 0x41 PUSH1 0x4 MSTORE PUSH1 0x24 PUSH1 0x0 REVERT JUMPDEST PUSH1 0x0 DUP1 REVERT JUMPDEST PUSH1 0x0 DUP1 REVERT JUMPDEST PUSH1 0x0 DUP1 REVERT JUMPDEST PUSH1 0x0 DUP1 REVERT JUMPDEST PUSH1 0x0 DUP1 REVERT JUMPDEST PUSH1 0x0 DUP1 REVERT JUMPDEST PUSH1 0x0 PUSH1 0x1F NOT PUSH1 0x1F DUP4 ADD AND SWAP1 POP SWAP2 SWAP1 POP JUMP JUMPDEST PUSH32 0x526563697069656E7420697320616C7265616479207265676973746572656400 PUSH1 0x0 DUP3 ADD MSTORE POP JUMP JUMPDEST PUSH32 0x50726F706F73616C20616C726561647920637265617465642100000000000000 PUSH1 0x0 DUP3 ADD MSTORE POP JUMP JUMPDEST PUSH32 0x596F75206172656E277420617574686F72697A6520746F20636F6D70696C6520 PUSH1 0x0 DUP3 ADD MSTORE PUSH32 0x42756E646C650000000000000000000000000000000000000000000000000000 PUSH1 0x20 DUP3 ADD MSTORE POP JUMP JUMPDEST PUSH32 0x596F7520616C72656164792073656E74206120726573706F6E73652E00000000 PUSH1 0x0 DUP3 ADD MSTORE POP JUMP JUMPDEST PUSH32 0x496E69746961746F722063616E277420766F7465210000000000000000000000 PUSH1 0x0 DUP3 ADD MSTORE POP JUMP JUMPDEST PUSH32 0x596F7520617265206E6F74207265676973746572656420746F20766F74650000 PUSH1 0x0 DUP3 ADD MSTORE POP JUMP JUMPDEST PUSH32 0x50726F706F73616C206861732072656163686564206974732065787069727920 PUSH1 0x0 DUP3 ADD MSTORE PUSH32 0x6461746500000000000000000000000000000000000000000000000000000000 PUSH1 0x20 DUP3 ADD MSTORE POP JUMP JUMPDEST PUSH32 0x4F6E6C7920696E69746961746F722063616E2072656769737465722061207265 PUSH1 0x0 DUP3 ADD MSTORE PUSH32 0x63697069656E742E000000000000000000000000000000000000000000000000 PUSH1 0x20 DUP3 ADD MSTORE POP JUMP JUMPDEST PUSH32 0x5665726469637420686173206E6F74206265656E207265616368656420796574 PUSH1 0x0 DUP3 ADD MSTORE POP JUMP JUMPDEST PUSH32 0x566F74696E672068617320657870697265640000000000000000000000000000 PUSH1 0x0 DUP3 ADD MSTORE POP JUMP JUMPDEST PUSH32 0x436F6E73656E7375732068617320616C7265616479206265656E2063616C6375 PUSH1 0x0 DUP3 ADD MSTORE PUSH32 0x6C61746564000000000000000000000000000000000000000000000000000000 PUSH1 0x20 DUP3 ADD MSTORE POP JUMP JUMPDEST PUSH2 0x396E DUP2 PUSH2 0x34C2 JUMP JUMPDEST DUP2 EQ PUSH2 0x3979 JUMPI PUSH1 0x0 DUP1 REVERT JUMPDEST POP JUMP JUMPDEST PUSH2 0x3985 DUP2 PUSH2 0x34E0 JUMP JUMPDEST DUP2 EQ PUSH2 0x3990 JUMPI PUSH1 0x0 DUP1 REVERT JUMPDEST POP JUMP JUMPDEST PUSH2 0x399C DUP2 PUSH2 0x350A JUMP JUMPDEST DUP2 EQ PUSH2 0x39A7 JUMPI PUSH1 0x0 DUP1 REVERT JUMPDEST POP JUMP INVALID LOG2 PUSH5 0x6970667358 0x22 SLT KECCAK256 TIMESTAMP MSIZE SWAP10 0xF7 ADD ADDMOD 0xB8 SHL 0xCC PUSH16 0x85E3EE7074EEE0A6A5700B56FF680809 PUSH22 0xB73D21B22C64736F6C63430008070033000000000000 "
				},
				"gasEstimates": {
					"creation": {
						"codeDepositCost": "2963200",
						"executionCost": "3247",
						"totalCost": "2966447"
					},
					"external": {
						"Consensus(string)": "infinite",
						"IDs(string)": "infinite",
						"RegisterVoter(address,string)": "infinite",
						"Vote(string,string)": "infinite",
						"Voters(string,uint256)": "infinite",
						"businessRequirements(string)": "infinite",
						"checkConsistency(string,uint256,uint256,bytes32)": "infinite",
						"contents(string)": "infinite",
						"createContract(string,uint256,uint256,bytes32,string,string)": "infinite",
						"expiryDates(string)": "infinite",
						"expiryLengths(string)": "infinite",
						"finalVerdicts(string)": "infinite",
						"getIsCompiled(string)": "infinite",
						"getIsCreated(string)": "infinite",
						"initiators(string)": "infinite",
						"isCompiled(string)": "infinite",
						"keys(string,uint256)": "infinite",
						"messageDates(string)": "infinite",
						"numApprovals(string)": "infinite",
						"retrieve_bundle(string)": "infinite",
						"subjects(string)": "infinite",
						"voteCounts(string)": "infinite",
						"voter_maps(string,address)": "infinite"
					}
				},
				"methodIdentifiers": {
					"Consensus(string)": "883a9673",
					"IDs(string)": "11c2b413",
					"RegisterVoter(address,string)": "3d63af0e",
					"Vote(string,string)": "17072d6b",
					"Voters(string,uint256)": "8f6a35b7",
					"businessRequirements(string)": "c5539b03",
					"checkConsistency(string,uint256,uint256,bytes32)": "9d6a3125",
					"contents(string)": "a6acce35",
					"createContract(string,uint256,uint256,bytes32,string,string)": "7aa18f88",
					"expiryDates(string)": "538b3cc6",
					"expiryLengths(string)": "bb9a31f3",
					"finalVerdicts(string)": "233d0fa1",
					"getIsCompiled(string)": "ec548680",
					"getIsCreated(string)": "c9bc42ed",
					"initiators(string)": "e5c8d65f",
					"isCompiled(string)": "31189fe2",
					"keys(string,uint256)": "06699b01",
					"messageDates(string)": "8a3b0d02",
					"numApprovals(string)": "931da6b3",
					"retrieve_bundle(string)": "37f2e190",
					"subjects(string)": "fe290423",
					"voteCounts(string)": "4205717d",
					"voter_maps(string,address)": "33a0b0ab"
				}
			},
			"storageLayout": {
				"storage": [
					{
						"astId": 12,
						"contract": "contracts/BusinessConsensus3.sol:BusinessConsensus3",
						"label": "initiators",
						"offset": 0,
						"slot": "0",
						"type": "t_mapping(t_string_memory_ptr,t_address)"
					},
					{
						"astId": 16,
						"contract": "contracts/BusinessConsensus3.sol:BusinessConsensus3",
						"label": "IDs",
						"offset": 0,
						"slot": "1",
						"type": "t_mapping(t_string_memory_ptr,t_string_storage)"
					},
					{
						"astId": 20,
						"contract": "contracts/BusinessConsensus3.sol:BusinessConsensus3",
						"label": "voteCounts",
						"offset": 0,
						"slot": "2",
						"type": "t_mapping(t_string_memory_ptr,t_uint256)"
					},
					{
						"astId": 24,
						"contract": "contracts/BusinessConsensus3.sol:BusinessConsensus3",
						"label": "expiryLengths",
						"offset": 0,
						"slot": "3",
						"type": "t_mapping(t_string_memory_ptr,t_uint256)"
					},
					{
						"astId": 28,
						"contract": "contracts/BusinessConsensus3.sol:BusinessConsensus3",
						"label": "expiryDates",
						"offset": 0,
						"slot": "4",
						"type": "t_mapping(t_string_memory_ptr,t_uint256)"
					},
					{
						"astId": 32,
						"contract": "contracts/BusinessConsensus3.sol:BusinessConsensus3",
						"label": "contents",
						"offset": 0,
						"slot": "5",
						"type": "t_mapping(t_string_memory_ptr,t_bytes32)"
					},
					{
						"astId": 36,
						"contract": "contracts/BusinessConsensus3.sol:BusinessConsensus3",
						"label": "numApprovals",
						"offset": 0,
						"slot": "6",
						"type": "t_mapping(t_string_memory_ptr,t_uint256)"
					},
					{
						"astId": 40,
						"contract": "contracts/BusinessConsensus3.sol:BusinessConsensus3",
						"label": "businessRequirements",
						"offset": 0,
						"slot": "7",
						"type": "t_mapping(t_string_memory_ptr,t_uint256)"
					},
					{
						"astId": 44,
						"contract": "contracts/BusinessConsensus3.sol:BusinessConsensus3",
						"label": "messageDates",
						"offset": 0,
						"slot": "8",
						"type": "t_mapping(t_string_memory_ptr,t_string_storage)"
					},
					{
						"astId": 48,
						"contract": "contracts/BusinessConsensus3.sol:BusinessConsensus3",
						"label": "finalVerdicts",
						"offset": 0,
						"slot": "9",
						"type": "t_mapping(t_string_memory_ptr,t_bool)"
					},
					{
						"astId": 52,
						"contract": "contracts/BusinessConsensus3.sol:BusinessConsensus3",
						"label": "isCompiled",
						"offset": 0,
						"slot": "10",
						"type": "t_mapping(t_string_memory_ptr,t_bool)"
					},
					{
						"astId": 56,
						"contract": "contracts/BusinessConsensus3.sol:BusinessConsensus3",
						"label": "subjects",
						"offset": 0,
						"slot": "11",
						"type": "t_mapping(t_string_memory_ptr,t_string_storage)"
					},
					{
						"astId": 63,
						"contract": "contracts/BusinessConsensus3.sol:BusinessConsensus3",
						"label": "voter_maps",
						"offset": 0,
						"slot": "12",
						"type": "t_mapping(t_string_memory_ptr,t_mapping(t_address,t_struct(Voter)8_storage))"
					},
					{
						"astId": 69,
						"contract": "contracts/BusinessConsensus3.sol:BusinessConsensus3",
						"label": "Voters",
						"offset": 0,
						"slot": "13",
						"type": "t_mapping(t_string_memory_ptr,t_array(t_struct(Voter)8_storage)dyn_storage)"
					},
					{
						"astId": 74,
						"contract": "contracts/BusinessConsensus3.sol:BusinessConsensus3",
						"label": "keys",
						"offset": 0,
						"slot": "14",
						"type": "t_mapping(t_string_memory_ptr,t_array(t_address)dyn_storage)"
					}
				],
				"types": {
					"t_address": {
						"encoding": "inplace",
						"label": "address",
						"numberOfBytes": "20"
					},
					"t_array(t_address)dyn_storage": {
						"base": "t_address",
						"encoding": "dynamic_array",
						"label": "address[]",
						"numberOfBytes": "32"
					},
					"t_array(t_struct(Voter)8_storage)dyn_storage": {
						"base": "t_struct(Voter)8_storage",
						"encoding": "dynamic_array",
						"label": "struct BusinessConsensus3.Voter[]",
						"numberOfBytes": "32"
					},
					"t_bool": {
						"encoding": "inplace",
						"label": "bool",
						"numberOfBytes": "1"
					},
					"t_bytes32": {
						"encoding": "inplace",
						"label": "bytes32",
						"numberOfBytes": "32"
					},
					"t_mapping(t_address,t_struct(Voter)8_storage)": {
						"encoding": "mapping",
						"key": "t_address",
						"label": "mapping(address => struct BusinessConsensus3.Voter)",
						"numberOfBytes": "32",
						"value": "t_struct(Voter)8_storage"
					},
					"t_mapping(t_string_memory_ptr,t_address)": {
						"encoding": "mapping",
						"key": "t_string_memory_ptr",
						"label": "mapping(string => address)",
						"numberOfBytes": "32",
						"value": "t_address"
					},
					"t_mapping(t_string_memory_ptr,t_array(t_address)dyn_storage)": {
						"encoding": "mapping",
						"key": "t_string_memory_ptr",
						"label": "mapping(string => address[])",
						"numberOfBytes": "32",
						"value": "t_array(t_address)dyn_storage"
					},
					"t_mapping(t_string_memory_ptr,t_array(t_struct(Voter)8_storage)dyn_storage)": {
						"encoding": "mapping",
						"key": "t_string_memory_ptr",
						"label": "mapping(string => struct BusinessConsensus3.Voter[])",
						"numberOfBytes": "32",
						"value": "t_array(t_struct(Voter)8_storage)dyn_storage"
					},
					"t_mapping(t_string_memory_ptr,t_bool)": {
						"encoding": "mapping",
						"key": "t_string_memory_ptr",
						"label": "mapping(string => bool)",
						"numberOfBytes": "32",
						"value": "t_bool"
					},
					"t_mapping(t_string_memory_ptr,t_bytes32)": {
						"encoding": "mapping",
						"key": "t_string_memory_ptr",
						"label": "mapping(string => bytes32)",
						"numberOfBytes": "32",
						"value": "t_bytes32"
					},
					"t_mapping(t_string_memory_ptr,t_mapping(t_address,t_struct(Voter)8_storage))": {
						"encoding": "mapping",
						"key": "t_string_memory_ptr",
						"label": "mapping(string => mapping(address => struct BusinessConsensus3.Voter))",
						"numberOfBytes": "32",
						"value": "t_mapping(t_address,t_struct(Voter)8_storage)"
					},
					"t_mapping(t_string_memory_ptr,t_string_storage)": {
						"encoding": "mapping",
						"key": "t_string_memory_ptr",
						"label": "mapping(string => string)",
						"numberOfBytes": "32",
						"value": "t_string_storage"
					},
					"t_mapping(t_string_memory_ptr,t_uint256)": {
						"encoding": "mapping",
						"key": "t_string_memory_ptr",
						"label": "mapping(string => uint256)",
						"numberOfBytes": "32",
						"value": "t_uint256"
					},
					"t_string_memory_ptr": {
						"encoding": "bytes",
						"label": "string",
						"numberOfBytes": "32"
					},
					"t_string_storage": {
						"encoding": "bytes",
						"label": "string",
						"numberOfBytes": "32"
					},
					"t_struct(Voter)8_storage": {
						"encoding": "inplace",
						"label": "struct BusinessConsensus3.Voter",
						"members": [
							{
								"astId": 3,
								"contract": "contracts/BusinessConsensus3.sol:BusinessConsensus3",
								"label": "voted",
								"offset": 0,
								"slot": "0",
								"type": "t_bool"
							},
							{
								"astId": 5,
								"contract": "contracts/BusinessConsensus3.sol:BusinessConsensus3",
								"label": "vote",
								"offset": 1,
								"slot": "0",
								"type": "t_bool"
							},
							{
								"astId": 7,
								"contract": "contracts/BusinessConsensus3.sol:BusinessConsensus3",
								"label": "recipient",
								"offset": 2,
								"slot": "0",
								"type": "t_address"
							}
						],
						"numberOfBytes": "32"
					},
					"t_uint256": {
						"encoding": "inplace",
						"label": "uint256",
						"numberOfBytes": "32"
					}
				}
			},
			"userdoc": {
				"kind": "user",
				"methods": {
					"Consensus(string)": {
						"notice": "compile all relevant information into a Bundle"
					}
				},
				"version": 1
			}
		}
	}
}