{
	"contracts/1_Storage.sol": {
		"BusinessConsensus4": {
			"abi": [
				{
					"inputs": [
						{
							"internalType": "bytes32",
							"name": "_messageID",
							"type": "bytes32"
						}
					],
					"name": "Consensus",
					"outputs": [],
					"stateMutability": "nonpayable",
					"type": "function"
				},
				{
					"inputs": [
						{
							"internalType": "bytes32",
							"name": "",
							"type": "bytes32"
						}
					],
					"name": "IDs",
					"outputs": [
						{
							"internalType": "bytes32",
							"name": "",
							"type": "bytes32"
						}
					],
					"stateMutability": "view",
					"type": "function"
				},
				{
					"inputs": [
						{
							"internalType": "address",
							"name": "voter",
							"type": "address"
						},
						{
							"internalType": "bytes32",
							"name": "_messageID",
							"type": "bytes32"
						}
					],
					"name": "RegisterVoter",
					"outputs": [],
					"stateMutability": "nonpayable",
					"type": "function"
				},
				{
					"inputs": [
						{
							"internalType": "string",
							"name": "response",
							"type": "string"
						},
						{
							"internalType": "bytes32",
							"name": "_messageID",
							"type": "bytes32"
						}
					],
					"name": "Vote",
					"outputs": [],
					"stateMutability": "nonpayable",
					"type": "function"
				},
				{
					"inputs": [
						{
							"internalType": "bytes32",
							"name": "",
							"type": "bytes32"
						},
						{
							"internalType": "uint256",
							"name": "",
							"type": "uint256"
						}
					],
					"name": "Voters",
					"outputs": [
						{
							"internalType": "bool",
							"name": "voted",
							"type": "bool"
						},
						{
							"internalType": "bool",
							"name": "vote",
							"type": "bool"
						},
						{
							"internalType": "address",
							"name": "recipient",
							"type": "address"
						}
					],
					"stateMutability": "view",
					"type": "function"
				},
				{
					"inputs": [
						{
							"internalType": "bytes32",
							"name": "",
							"type": "bytes32"
						}
					],
					"name": "businessRequirements",
					"outputs": [
						{
							"internalType": "uint256",
							"name": "",
							"type": "uint256"
						}
					],
					"stateMutability": "view",
					"type": "function"
				},
				{
					"inputs": [
						{
							"internalType": "bytes32",
							"name": "_keyID",
							"type": "bytes32"
						},
						{
							"internalType": "uint256",
							"name": "_businessRequirement",
							"type": "uint256"
						},
						{
							"internalType": "uint256",
							"name": "_expiryLength",
							"type": "uint256"
						},
						{
							"internalType": "bytes32",
							"name": "_contents",
							"type": "bytes32"
						}
					],
					"name": "checkConsistency",
					"outputs": [
						{
							"internalType": "bool",
							"name": "",
							"type": "bool"
						},
						{
							"internalType": "bool",
							"name": "",
							"type": "bool"
						},
						{
							"internalType": "bool",
							"name": "",
							"type": "bool"
						}
					],
					"stateMutability": "view",
					"type": "function"
				},
				{
					"inputs": [
						{
							"internalType": "bytes32",
							"name": "",
							"type": "bytes32"
						}
					],
					"name": "contents",
					"outputs": [
						{
							"internalType": "bytes32",
							"name": "",
							"type": "bytes32"
						}
					],
					"stateMutability": "view",
					"type": "function"
				},
				{
					"inputs": [
						{
							"internalType": "bytes32",
							"name": "_messageID",
							"type": "bytes32"
						},
						{
							"internalType": "uint256",
							"name": "expiry",
							"type": "uint256"
						},
						{
							"internalType": "uint256",
							"name": "requiredPercentage",
							"type": "uint256"
						},
						{
							"internalType": "bytes32",
							"name": "_contents",
							"type": "bytes32"
						},
						{
							"internalType": "string",
							"name": "_messageDate",
							"type": "string"
						},
						{
							"internalType": "bytes32",
							"name": "_keyID",
							"type": "bytes32"
						}
					],
					"name": "createContract",
					"outputs": [],
					"stateMutability": "nonpayable",
					"type": "function"
				},
				{
					"inputs": [
						{
							"internalType": "bytes32",
							"name": "",
							"type": "bytes32"
						}
					],
					"name": "expiryDates",
					"outputs": [
						{
							"internalType": "uint256",
							"name": "",
							"type": "uint256"
						}
					],
					"stateMutability": "view",
					"type": "function"
				},
				{
					"inputs": [
						{
							"internalType": "bytes32",
							"name": "",
							"type": "bytes32"
						}
					],
					"name": "expiryLengths",
					"outputs": [
						{
							"internalType": "uint256",
							"name": "",
							"type": "uint256"
						}
					],
					"stateMutability": "view",
					"type": "function"
				},
				{
					"inputs": [
						{
							"internalType": "bytes32",
							"name": "",
							"type": "bytes32"
						}
					],
					"name": "finalVerdicts",
					"outputs": [
						{
							"internalType": "bool",
							"name": "",
							"type": "bool"
						}
					],
					"stateMutability": "view",
					"type": "function"
				},
				{
					"inputs": [
						{
							"internalType": "bytes32",
							"name": "_messageID",
							"type": "bytes32"
						}
					],
					"name": "getIsCompiled",
					"outputs": [
						{
							"internalType": "bool",
							"name": "",
							"type": "bool"
						}
					],
					"stateMutability": "view",
					"type": "function"
				},
				{
					"inputs": [
						{
							"internalType": "bytes32",
							"name": "_keyID",
							"type": "bytes32"
						}
					],
					"name": "getIsCreated",
					"outputs": [
						{
							"internalType": "bytes32",
							"name": "",
							"type": "bytes32"
						},
						{
							"internalType": "string",
							"name": "",
							"type": "string"
						}
					],
					"stateMutability": "view",
					"type": "function"
				},
				{
					"inputs": [
						{
							"internalType": "bytes32",
							"name": "",
							"type": "bytes32"
						}
					],
					"name": "initiators",
					"outputs": [
						{
							"internalType": "address",
							"name": "",
							"type": "address"
						}
					],
					"stateMutability": "view",
					"type": "function"
				},
				{
					"inputs": [
						{
							"internalType": "bytes32",
							"name": "",
							"type": "bytes32"
						}
					],
					"name": "isCompiled",
					"outputs": [
						{
							"internalType": "bool",
							"name": "",
							"type": "bool"
						}
					],
					"stateMutability": "view",
					"type": "function"
				},
				{
					"inputs": [
						{
							"internalType": "bytes32",
							"name": "",
							"type": "bytes32"
						},
						{
							"internalType": "uint256",
							"name": "",
							"type": "uint256"
						}
					],
					"name": "keys",
					"outputs": [
						{
							"internalType": "address",
							"name": "",
							"type": "address"
						}
					],
					"stateMutability": "view",
					"type": "function"
				},
				{
					"inputs": [
						{
							"internalType": "bytes32",
							"name": "",
							"type": "bytes32"
						}
					],
					"name": "messageDates",
					"outputs": [
						{
							"internalType": "string",
							"name": "",
							"type": "string"
						}
					],
					"stateMutability": "view",
					"type": "function"
				},
				{
					"inputs": [
						{
							"internalType": "bytes32",
							"name": "",
							"type": "bytes32"
						}
					],
					"name": "numApprovals",
					"outputs": [
						{
							"internalType": "uint256",
							"name": "",
							"type": "uint256"
						}
					],
					"stateMutability": "view",
					"type": "function"
				},
				{
					"inputs": [
						{
							"internalType": "bytes32",
							"name": "_messageID",
							"type": "bytes32"
						}
					],
					"name": "retrieve_bundle",
					"outputs": [
						{
							"internalType": "bool",
							"name": "",
							"type": "bool"
						},
						{
							"internalType": "bytes32",
							"name": "",
							"type": "bytes32"
						},
						{
							"internalType": "uint256",
							"name": "",
							"type": "uint256"
						},
						{
							"components": [
								{
									"internalType": "bool",
									"name": "voted",
									"type": "bool"
								},
								{
									"internalType": "bool",
									"name": "vote",
									"type": "bool"
								},
								{
									"internalType": "address",
									"name": "recipient",
									"type": "address"
								}
							],
							"internalType": "struct BusinessConsensus4.Voter[]",
							"name": "",
							"type": "tuple[]"
						}
					],
					"stateMutability": "view",
					"type": "function"
				},
				{
					"inputs": [
						{
							"internalType": "bytes32",
							"name": "",
							"type": "bytes32"
						}
					],
					"name": "voteCounts",
					"outputs": [
						{
							"internalType": "uint256",
							"name": "",
							"type": "uint256"
						}
					],
					"stateMutability": "view",
					"type": "function"
				},
				{
					"inputs": [
						{
							"internalType": "bytes32",
							"name": "",
							"type": "bytes32"
						},
						{
							"internalType": "address",
							"name": "",
							"type": "address"
						}
					],
					"name": "voter_maps",
					"outputs": [
						{
							"internalType": "bool",
							"name": "voted",
							"type": "bool"
						},
						{
							"internalType": "bool",
							"name": "vote",
							"type": "bool"
						},
						{
							"internalType": "address",
							"name": "recipient",
							"type": "address"
						}
					],
					"stateMutability": "view",
					"type": "function"
				}
			],
			"devdoc": {
				"kind": "dev",
				"methods": {},
				"version": 1
			},
			"evm": {
				"assembly": "    /* \"contracts/1_Storage.sol\":32:6384  contract BusinessConsensus4{... */\n  mstore(0x40, 0x80)\n  callvalue\n  dup1\n  iszero\n  tag_1\n  jumpi\n  0x00\n  dup1\n  revert\ntag_1:\n  pop\n  dataSize(sub_0)\n  dup1\n  dataOffset(sub_0)\n  0x00\n  codecopy\n  0x00\n  return\nstop\n\nsub_0: assembly {\n        /* \"contracts/1_Storage.sol\":32:6384  contract BusinessConsensus4{... */\n      mstore(0x40, 0x80)\n      callvalue\n      dup1\n      iszero\n      tag_1\n      jumpi\n      0x00\n      dup1\n      revert\n    tag_1:\n      pop\n      jumpi(tag_2, lt(calldatasize, 0x04))\n      shr(0xe0, calldataload(0x00))\n      dup1\n      0x823a6366\n      gt\n      tag_25\n      jumpi\n      dup1\n      0xa88361c6\n      gt\n      tag_26\n      jumpi\n      dup1\n      0xa88361c6\n      eq\n      tag_19\n      jumpi\n      dup1\n      0xd443560a\n      eq\n      tag_20\n      jumpi\n      dup1\n      0xd468f983\n      eq\n      tag_21\n      jumpi\n      dup1\n      0xe463eaee\n      eq\n      tag_22\n      jumpi\n      dup1\n      0xe5d009bf\n      eq\n      tag_23\n      jumpi\n      dup1\n      0xf20ca12c\n      eq\n      tag_24\n      jumpi\n      jump(tag_2)\n    tag_26:\n      dup1\n      0x823a6366\n      eq\n      tag_14\n      jumpi\n      dup1\n      0x8acc0d10\n      eq\n      tag_15\n      jumpi\n      dup1\n      0x97299e99\n      eq\n      tag_16\n      jumpi\n      dup1\n      0xa4a8f426\n      eq\n      tag_17\n      jumpi\n      dup1\n      0xa784ef74\n      eq\n      tag_18\n      jumpi\n      jump(tag_2)\n    tag_25:\n      dup1\n      0x5273bc48\n      gt\n      tag_27\n      jumpi\n      dup1\n      0x5273bc48\n      eq\n      tag_8\n      jumpi\n      dup1\n      0x56c583d8\n      eq\n      tag_9\n      jumpi\n      dup1\n      0x7a099c6a\n      eq\n      tag_10\n      jumpi\n      dup1\n      0x7d6c570a\n      eq\n      tag_11\n      jumpi\n      dup1\n      0x7ff4c389\n      eq\n      tag_12\n      jumpi\n      dup1\n      0x81d0e37b\n      eq\n      tag_13\n      jumpi\n      jump(tag_2)\n    tag_27:\n      dup1\n      0x13191ade\n      eq\n      tag_3\n      jumpi\n      dup1\n      0x27f0ae92\n      eq\n      tag_4\n      jumpi\n      dup1\n      0x33dfd126\n      eq\n      tag_5\n      jumpi\n      dup1\n      0x38c20a9e\n      eq\n      tag_6\n      jumpi\n      dup1\n      0x4fd3b445\n      eq\n      tag_7\n      jumpi\n    tag_2:\n      0x00\n      dup1\n      revert\n        /* \"contracts/1_Storage.sol\":544:592  mapping(bytes32 => uint256) public expiryLengths */\n    tag_3:\n      tag_28\n      0x04\n      dup1\n      calldatasize\n      sub\n      dup2\n      add\n      swap1\n      tag_29\n      swap2\n      swap1\n      tag_30\n      jump\t// in\n    tag_29:\n      tag_31\n      jump\t// in\n    tag_28:\n      mload(0x40)\n      tag_32\n      swap2\n      swap1\n      tag_33\n      jump\t// in\n    tag_32:\n      mload(0x40)\n      dup1\n      swap2\n      sub\n      swap1\n      return\n        /* \"contracts/1_Storage.sol\":5961:6381  function retrieve_bundle(bytes32 _messageID) external view returns (bool, bytes32, uint256, Voter[] memory){... */\n    tag_4:\n      tag_34\n      0x04\n      dup1\n      calldatasize\n      sub\n      dup2\n      add\n      swap1\n      tag_35\n      swap2\n      swap1\n      tag_30\n      jump\t// in\n    tag_35:\n      tag_36\n      jump\t// in\n    tag_34:\n      mload(0x40)\n      tag_37\n      swap5\n      swap4\n      swap3\n      swap2\n      swap1\n      tag_38\n      jump\t// in\n    tag_37:\n      mload(0x40)\n      dup1\n      swap2\n      sub\n      swap1\n      return\n        /* \"contracts/1_Storage.sol\":2176:2729  function checkConsistency(bytes32 _keyID, uint256 _businessRequirement, uint256 _expiryLength, bytes32 _contents) public view returns(bool, bool, bool){... */\n    tag_5:\n      tag_39\n      0x04\n      dup1\n      calldatasize\n      sub\n      dup2\n      add\n      swap1\n      tag_40\n      swap2\n      swap1\n      tag_41\n      jump\t// in\n    tag_40:\n      tag_42\n      jump\t// in\n    tag_39:\n      mload(0x40)\n      tag_43\n      swap4\n      swap3\n      swap2\n      swap1\n      tag_44\n      jump\t// in\n    tag_43:\n      mload(0x40)\n      dup1\n      swap2\n      sub\n      swap1\n      return\n        /* \"contracts/1_Storage.sol\":865:910  mapping(bytes32 => bool) public finalVerdicts */\n    tag_6:\n      tag_45\n      0x04\n      dup1\n      calldatasize\n      sub\n      dup2\n      add\n      swap1\n      tag_46\n      swap2\n      swap1\n      tag_30\n      jump\t// in\n    tag_46:\n      tag_47\n      jump\t// in\n    tag_45:\n      mload(0x40)\n      tag_48\n      swap2\n      swap1\n      tag_49\n      jump\t// in\n    tag_48:\n      mload(0x40)\n      dup1\n      swap2\n      sub\n      swap1\n      return\n        /* \"contracts/1_Storage.sol\":1029:1068  mapping(bytes32=>Voter[]) public Voters */\n    tag_7:\n      tag_50\n      0x04\n      dup1\n      calldatasize\n      sub\n      dup2\n      add\n      swap1\n      tag_51\n      swap2\n      swap1\n      tag_52\n      jump\t// in\n    tag_51:\n      tag_53\n      jump\t// in\n    tag_50:\n      mload(0x40)\n      tag_54\n      swap4\n      swap3\n      swap2\n      swap1\n      tag_55\n      jump\t// in\n    tag_54:\n      mload(0x40)\n      dup1\n      swap2\n      sub\n      swap1\n      return\n        /* \"contracts/1_Storage.sol\":2056:2171  function getIsCompiled(bytes32 _messageID) public view returns (bool){... */\n    tag_8:\n      tag_56\n      0x04\n      dup1\n      calldatasize\n      sub\n      dup2\n      add\n      swap1\n      tag_57\n      swap2\n      swap1\n      tag_30\n      jump\t// in\n    tag_57:\n      tag_58\n      jump\t// in\n    tag_56:\n      mload(0x40)\n      tag_59\n      swap2\n      swap1\n      tag_49\n      jump\t// in\n    tag_59:\n      mload(0x40)\n      dup1\n      swap2\n      sub\n      swap1\n      return\n        /* \"contracts/1_Storage.sol\":598:644  mapping(bytes32 => uint256) public expiryDates */\n    tag_9:\n      tag_60\n      0x04\n      dup1\n      calldatasize\n      sub\n      dup2\n      add\n      swap1\n      tag_61\n      swap2\n      swap1\n      tag_30\n      jump\t// in\n    tag_61:\n      tag_62\n      jump\t// in\n    tag_60:\n      mload(0x40)\n      tag_63\n      swap2\n      swap1\n      tag_33\n      jump\t// in\n    tag_63:\n      mload(0x40)\n      dup1\n      swap2\n      sub\n      swap1\n      return\n        /* \"contracts/1_Storage.sol\":752:807  mapping(bytes32 => uint256) public businessRequirements */\n    tag_10:\n      tag_64\n      0x04\n      dup1\n      calldatasize\n      sub\n      dup2\n      add\n      swap1\n      tag_65\n      swap2\n      swap1\n      tag_30\n      jump\t// in\n    tag_65:\n      tag_66\n      jump\t// in\n    tag_64:\n      mload(0x40)\n      tag_67\n      swap2\n      swap1\n      tag_33\n      jump\t// in\n    tag_67:\n      mload(0x40)\n      dup1\n      swap2\n      sub\n      swap1\n      return\n        /* \"contracts/1_Storage.sol\":5037:5955  function Consensus(bytes32 _messageID) external {... */\n    tag_11:\n      tag_68\n      0x04\n      dup1\n      calldatasize\n      sub\n      dup2\n      add\n      swap1\n      tag_69\n      swap2\n      swap1\n      tag_30\n      jump\t// in\n    tag_69:\n      tag_70\n      jump\t// in\n    tag_68:\n      stop\n        /* \"contracts/1_Storage.sol\":1074:1113  mapping(bytes32=>address[]) public keys */\n    tag_12:\n      tag_71\n      0x04\n      dup1\n      calldatasize\n      sub\n      dup2\n      add\n      swap1\n      tag_72\n      swap2\n      swap1\n      tag_52\n      jump\t// in\n    tag_72:\n      tag_73\n      jump\t// in\n    tag_71:\n      mload(0x40)\n      tag_74\n      swap2\n      swap1\n      tag_75\n      jump\t// in\n    tag_74:\n      mload(0x40)\n      dup1\n      swap2\n      sub\n      swap1\n      return\n        /* \"contracts/1_Storage.sol\":493:538  mapping(bytes32 => uint256) public voteCounts */\n    tag_13:\n      tag_76\n      0x04\n      dup1\n      calldatasize\n      sub\n      dup2\n      add\n      swap1\n      tag_77\n      swap2\n      swap1\n      tag_30\n      jump\t// in\n    tag_77:\n      tag_78\n      jump\t// in\n    tag_76:\n      mload(0x40)\n      tag_79\n      swap2\n      swap1\n      tag_33\n      jump\t// in\n    tag_79:\n      mload(0x40)\n      dup1\n      swap2\n      sub\n      swap1\n      return\n        /* \"contracts/1_Storage.sol\":916:958  mapping(bytes32 => bool) public isCompiled */\n    tag_14:\n      tag_80\n      0x04\n      dup1\n      calldatasize\n      sub\n      dup2\n      add\n      swap1\n      tag_81\n      swap2\n      swap1\n      tag_30\n      jump\t// in\n    tag_81:\n      tag_82\n      jump\t// in\n    tag_80:\n      mload(0x40)\n      tag_83\n      swap2\n      swap1\n      tag_49\n      jump\t// in\n    tag_83:\n      mload(0x40)\n      dup1\n      swap2\n      sub\n      swap1\n      return\n        /* \"contracts/1_Storage.sol\":3705:4976  function Vote(string memory response,bytes32 _messageID) external {... */\n    tag_15:\n      tag_84\n      0x04\n      dup1\n      calldatasize\n      sub\n      dup2\n      add\n      swap1\n      tag_85\n      swap2\n      swap1\n      tag_86\n      jump\t// in\n    tag_85:\n      tag_87\n      jump\t// in\n    tag_84:\n      stop\n        /* \"contracts/1_Storage.sol\":2734:2873  function getIsCreated(bytes32 _keyID) public view returns (bytes32,string memory){... */\n    tag_16:\n      tag_88\n      0x04\n      dup1\n      calldatasize\n      sub\n      dup2\n      add\n      swap1\n      tag_89\n      swap2\n      swap1\n      tag_30\n      jump\t// in\n    tag_89:\n      tag_90\n      jump\t// in\n    tag_88:\n      mload(0x40)\n      tag_91\n      swap3\n      swap2\n      swap1\n      tag_92\n      jump\t// in\n    tag_91:\n      mload(0x40)\n      dup1\n      swap2\n      sub\n      swap1\n      return\n        /* \"contracts/1_Storage.sol\":813:859  mapping(bytes32 => string) public messageDates */\n    tag_17:\n      tag_93\n      0x04\n      dup1\n      calldatasize\n      sub\n      dup2\n      add\n      swap1\n      tag_94\n      swap2\n      swap1\n      tag_30\n      jump\t// in\n    tag_94:\n      tag_95\n      jump\t// in\n    tag_93:\n      mload(0x40)\n      tag_96\n      swap2\n      swap1\n      tag_97\n      jump\t// in\n    tag_96:\n      mload(0x40)\n      dup1\n      swap2\n      sub\n      swap1\n      return\n        /* \"contracts/1_Storage.sol\":964:1023  mapping(bytes32=>mapping(address=>Voter)) public voter_maps */\n    tag_18:\n      tag_98\n      0x04\n      dup1\n      calldatasize\n      sub\n      dup2\n      add\n      swap1\n      tag_99\n      swap2\n      swap1\n      tag_100\n      jump\t// in\n    tag_99:\n      tag_101\n      jump\t// in\n    tag_98:\n      mload(0x40)\n      tag_102\n      swap4\n      swap3\n      swap2\n      swap1\n      tag_55\n      jump\t// in\n    tag_102:\n      mload(0x40)\n      dup1\n      swap2\n      sub\n      swap1\n      return\n        /* \"contracts/1_Storage.sol\":1124:2051  function createContract(bytes32 _messageID, uint256 expiry, uint256 requiredPercentage,bytes32 _contents,... */\n    tag_19:\n      tag_103\n      0x04\n      dup1\n      calldatasize\n      sub\n      dup2\n      add\n      swap1\n      tag_104\n      swap2\n      swap1\n      tag_105\n      jump\t// in\n    tag_104:\n      tag_106\n      jump\t// in\n    tag_103:\n      stop\n        /* \"contracts/1_Storage.sol\":401:444  mapping(bytes32=>address) public initiators */\n    tag_20:\n      tag_107\n      0x04\n      dup1\n      calldatasize\n      sub\n      dup2\n      add\n      swap1\n      tag_108\n      swap2\n      swap1\n      tag_30\n      jump\t// in\n    tag_108:\n      tag_109\n      jump\t// in\n    tag_107:\n      mload(0x40)\n      tag_110\n      swap2\n      swap1\n      tag_75\n      jump\t// in\n    tag_110:\n      mload(0x40)\n      dup1\n      swap2\n      sub\n      swap1\n      return\n        /* \"contracts/1_Storage.sol\":2976:3699  function RegisterVoter(address voter,bytes32 _messageID) external {... */\n    tag_21:\n      tag_111\n      0x04\n      dup1\n      calldatasize\n      sub\n      dup2\n      add\n      swap1\n      tag_112\n      swap2\n      swap1\n      tag_113\n      jump\t// in\n    tag_112:\n      tag_114\n      jump\t// in\n    tag_111:\n      stop\n        /* \"contracts/1_Storage.sol\":699:746  mapping(bytes32 => uint256) public numApprovals */\n    tag_22:\n      tag_115\n      0x04\n      dup1\n      calldatasize\n      sub\n      dup2\n      add\n      swap1\n      tag_116\n      swap2\n      swap1\n      tag_30\n      jump\t// in\n    tag_116:\n      tag_117\n      jump\t// in\n    tag_115:\n      mload(0x40)\n      tag_118\n      swap2\n      swap1\n      tag_33\n      jump\t// in\n    tag_118:\n      mload(0x40)\n      dup1\n      swap2\n      sub\n      swap1\n      return\n        /* \"contracts/1_Storage.sol\":450:487  mapping(bytes32 =>bytes32) public IDs */\n    tag_23:\n      tag_119\n      0x04\n      dup1\n      calldatasize\n      sub\n      dup2\n      add\n      swap1\n      tag_120\n      swap2\n      swap1\n      tag_30\n      jump\t// in\n    tag_120:\n      tag_121\n      jump\t// in\n    tag_119:\n      mload(0x40)\n      tag_122\n      swap2\n      swap1\n      tag_123\n      jump\t// in\n    tag_122:\n      mload(0x40)\n      dup1\n      swap2\n      sub\n      swap1\n      return\n        /* \"contracts/1_Storage.sol\":650:693  mapping(bytes32 => bytes32) public contents */\n    tag_24:\n      tag_124\n      0x04\n      dup1\n      calldatasize\n      sub\n      dup2\n      add\n      swap1\n      tag_125\n      swap2\n      swap1\n      tag_30\n      jump\t// in\n    tag_125:\n      tag_126\n      jump\t// in\n    tag_124:\n      mload(0x40)\n      tag_127\n      swap2\n      swap1\n      tag_123\n      jump\t// in\n    tag_127:\n      mload(0x40)\n      dup1\n      swap2\n      sub\n      swap1\n      return\n        /* \"contracts/1_Storage.sol\":544:592  mapping(bytes32 => uint256) public expiryLengths */\n    tag_31:\n      mstore(0x20, 0x03)\n      dup1\n      0x00\n      mstore\n      keccak256(0x00, 0x40)\n      0x00\n      swap2\n      pop\n      swap1\n      pop\n      sload\n      dup2\n      jump\t// out\n        /* \"contracts/1_Storage.sol\":5961:6381  function retrieve_bundle(bytes32 _messageID) external view returns (bool, bytes32, uint256, Voter[] memory){... */\n    tag_36:\n        /* \"contracts/1_Storage.sol\":6029:6033  bool */\n      0x00\n        /* \"contracts/1_Storage.sol\":6035:6042  bytes32 */\n      dup1\n        /* \"contracts/1_Storage.sol\":6044:6051  uint256 */\n      0x00\n        /* \"contracts/1_Storage.sol\":6053:6067  Voter[] memory */\n      0x60\n        /* \"contracts/1_Storage.sol\":6105:6116  expiryDates */\n      0x04\n        /* \"contracts/1_Storage.sol\":6105:6128  expiryDates[_messageID] */\n      0x00\n        /* \"contracts/1_Storage.sol\":6117:6127  _messageID */\n      dup7\n        /* \"contracts/1_Storage.sol\":6105:6128  expiryDates[_messageID] */\n      dup2\n      mstore\n      0x20\n      add\n      swap1\n      dup2\n      mstore\n      0x20\n      add\n      0x00\n      keccak256\n      sload\n        /* \"contracts/1_Storage.sol\":6086:6101  block.timestamp */\n      timestamp\n        /* \"contracts/1_Storage.sol\":6086:6128  block.timestamp >= expiryDates[_messageID] */\n      lt\n      iszero\n        /* \"contracts/1_Storage.sol\":6078:6165  require(block.timestamp >= expiryDates[_messageID], \"Verdict has not been reached yet\") */\n      tag_129\n      jumpi\n      mload(0x40)\n      0x08c379a000000000000000000000000000000000000000000000000000000000\n      dup2\n      mstore\n      0x04\n      add\n      tag_130\n      swap1\n      tag_131\n      jump\t// in\n    tag_130:\n      mload(0x40)\n      dup1\n      swap2\n      sub\n      swap1\n      revert\n    tag_129:\n        /* \"contracts/1_Storage.sol\":6175:6196  Voter[] memory voters */\n      0x00\n        /* \"contracts/1_Storage.sol\":6199:6205  Voters */\n      0x0c\n        /* \"contracts/1_Storage.sol\":6199:6217  Voters[_messageID] */\n      0x00\n        /* \"contracts/1_Storage.sol\":6206:6216  _messageID */\n      dup8\n        /* \"contracts/1_Storage.sol\":6199:6217  Voters[_messageID] */\n      dup2\n      mstore\n      0x20\n      add\n      swap1\n      dup2\n      mstore\n      0x20\n      add\n      0x00\n      keccak256\n        /* \"contracts/1_Storage.sol\":6175:6217  Voter[] memory voters = Voters[_messageID] */\n      dup1\n      sload\n      dup1\n      0x20\n      mul\n      0x20\n      add\n      mload(0x40)\n      swap1\n      dup2\n      add\n      0x40\n      mstore\n      dup1\n      swap3\n      swap2\n      swap1\n      dup2\n      dup2\n      mstore\n      0x20\n      add\n      0x00\n      swap1\n    tag_132:\n      dup3\n      dup3\n      lt\n      iszero\n      tag_133\n      jumpi\n      dup4\n      dup3\n      swap1\n      0x00\n      mstore\n      keccak256(0x00, 0x20)\n      add\n      mload(0x40)\n      dup1\n      0x60\n      add\n      0x40\n      mstore\n      swap1\n      dup2\n      0x00\n      dup3\n      add\n      0x00\n      swap1\n      sload\n      swap1\n      0x0100\n      exp\n      swap1\n      div\n      0xff\n      and\n      iszero\n      iszero\n      iszero\n      iszero\n      dup2\n      mstore\n      0x20\n      add\n      0x00\n      dup3\n      add\n      0x01\n      swap1\n      sload\n      swap1\n      0x0100\n      exp\n      swap1\n      div\n      0xff\n      and\n      iszero\n      iszero\n      iszero\n      iszero\n      dup2\n      mstore\n      0x20\n      add\n      0x00\n      dup3\n      add\n      0x02\n      swap1\n      sload\n      swap1\n      0x0100\n      exp\n      swap1\n      div\n      0xffffffffffffffffffffffffffffffffffffffff\n      and\n      0xffffffffffffffffffffffffffffffffffffffff\n      and\n      0xffffffffffffffffffffffffffffffffffffffff\n      and\n      dup2\n      mstore\n      pop\n      pop\n      dup2\n      mstore\n      0x20\n      add\n      swap1\n      0x01\n      add\n      swap1\n      jump(tag_132)\n    tag_133:\n      pop\n      pop\n      pop\n      pop\n      swap1\n      pop\n        /* \"contracts/1_Storage.sol\":6227:6239  bool verdict */\n      0x00\n        /* \"contracts/1_Storage.sol\":6242:6255  finalVerdicts */\n      0x09\n        /* \"contracts/1_Storage.sol\":6242:6267  finalVerdicts[_messageID] */\n      0x00\n        /* \"contracts/1_Storage.sol\":6256:6266  _messageID */\n      dup9\n        /* \"contracts/1_Storage.sol\":6242:6267  finalVerdicts[_messageID] */\n      dup2\n      mstore\n      0x20\n      add\n      swap1\n      dup2\n      mstore\n      0x20\n      add\n      0x00\n      keccak256\n      0x00\n      swap1\n      sload\n      swap1\n      0x0100\n      exp\n      swap1\n      div\n      0xff\n      and\n        /* \"contracts/1_Storage.sol\":6227:6267  bool verdict = finalVerdicts[_messageID] */\n      swap1\n      pop\n        /* \"contracts/1_Storage.sol\":6277:6290  uint256 count */\n      0x00\n        /* \"contracts/1_Storage.sol\":6293:6303  voteCounts */\n      0x02\n        /* \"contracts/1_Storage.sol\":6293:6315  voteCounts[_messageID] */\n      0x00\n        /* \"contracts/1_Storage.sol\":6304:6314  _messageID */\n      dup10\n        /* \"contracts/1_Storage.sol\":6293:6315  voteCounts[_messageID] */\n      dup2\n      mstore\n      0x20\n      add\n      swap1\n      dup2\n      mstore\n      0x20\n      add\n      0x00\n      keccak256\n      sload\n        /* \"contracts/1_Storage.sol\":6277:6315  uint256 count = voteCounts[_messageID] */\n      swap1\n      pop\n        /* \"contracts/1_Storage.sol\":6333:6340  verdict */\n      dup2\n        /* \"contracts/1_Storage.sol\":6341:6351  _messageID */\n      dup9\n        /* \"contracts/1_Storage.sol\":6352:6357  count */\n      dup3\n        /* \"contracts/1_Storage.sol\":6358:6364  voters */\n      dup6\n        /* \"contracts/1_Storage.sol\":6325:6365  return (verdict,_messageID,count,voters) */\n      swap7\n      pop\n      swap7\n      pop\n      swap7\n      pop\n      swap7\n      pop\n      pop\n      pop\n      pop\n        /* \"contracts/1_Storage.sol\":5961:6381  function retrieve_bundle(bytes32 _messageID) external view returns (bool, bytes32, uint256, Voter[] memory){... */\n      swap2\n      swap4\n      pop\n      swap2\n      swap4\n      jump\t// out\n        /* \"contracts/1_Storage.sol\":2176:2729  function checkConsistency(bytes32 _keyID, uint256 _businessRequirement, uint256 _expiryLength, bytes32 _contents) public view returns(bool, bool, bool){... */\n    tag_42:\n        /* \"contracts/1_Storage.sol\":2310:2314  bool */\n      0x00\n        /* \"contracts/1_Storage.sol\":2316:2320  bool */\n      dup1\n        /* \"contracts/1_Storage.sol\":2322:2326  bool */\n      0x00\n        /* \"contracts/1_Storage.sol\":2337:2348  bool value1 */\n      dup1\n        /* \"contracts/1_Storage.sol\":2351:2355  true */\n      0x01\n        /* \"contracts/1_Storage.sol\":2337:2355  bool value1 = true */\n      swap1\n      pop\n        /* \"contracts/1_Storage.sol\":2365:2376  bool value2 */\n      0x00\n        /* \"contracts/1_Storage.sol\":2379:2383  true */\n      0x01\n        /* \"contracts/1_Storage.sol\":2365:2383  bool value2 = true */\n      swap1\n      pop\n        /* \"contracts/1_Storage.sol\":2393:2404  bool value3 */\n      0x00\n        /* \"contracts/1_Storage.sol\":2407:2411  true */\n      0x01\n        /* \"contracts/1_Storage.sol\":2393:2411  bool value3 = true */\n      swap1\n      pop\n        /* \"contracts/1_Storage.sol\":2448:2468  businessRequirements */\n      0x07\n        /* \"contracts/1_Storage.sol\":2448:2476  businessRequirements[_keyID] */\n      0x00\n        /* \"contracts/1_Storage.sol\":2469:2475  _keyID */\n      dup12\n        /* \"contracts/1_Storage.sol\":2448:2476  businessRequirements[_keyID] */\n      dup2\n      mstore\n      0x20\n      add\n      swap1\n      dup2\n      mstore\n      0x20\n      add\n      0x00\n      keccak256\n      sload\n        /* \"contracts/1_Storage.sol\":2424:2444  _businessRequirement */\n      dup10\n        /* \"contracts/1_Storage.sol\":2424:2476  _businessRequirement != businessRequirements[_keyID] */\n      eq\n        /* \"contracts/1_Storage.sol\":2421:2516  if(_businessRequirement != businessRequirements[_keyID]){... */\n      tag_136\n      jumpi\n        /* \"contracts/1_Storage.sol\":2500:2505  false */\n      0x00\n        /* \"contracts/1_Storage.sol\":2491:2505  value1 = false */\n      swap3\n      pop\n        /* \"contracts/1_Storage.sol\":2421:2516  if(_businessRequirement != businessRequirements[_keyID]){... */\n    tag_136:\n        /* \"contracts/1_Storage.sol\":2541:2549  contents */\n      0x05\n        /* \"contracts/1_Storage.sol\":2541:2557  contents[_keyID] */\n      0x00\n        /* \"contracts/1_Storage.sol\":2550:2556  _keyID */\n      dup12\n        /* \"contracts/1_Storage.sol\":2541:2557  contents[_keyID] */\n      dup2\n      mstore\n      0x20\n      add\n      swap1\n      dup2\n      mstore\n      0x20\n      add\n      0x00\n      keccak256\n      sload\n        /* \"contracts/1_Storage.sol\":2528:2537  _contents */\n      dup8\n        /* \"contracts/1_Storage.sol\":2528:2557  _contents != contents[_keyID] */\n      eq\n        /* \"contracts/1_Storage.sol\":2525:2597  if(_contents != contents[_keyID]){... */\n      tag_137\n      jumpi\n        /* \"contracts/1_Storage.sol\":2581:2586  false */\n      0x00\n        /* \"contracts/1_Storage.sol\":2572:2586  value2 = false */\n      swap2\n      pop\n        /* \"contracts/1_Storage.sol\":2525:2597  if(_contents != contents[_keyID]){... */\n    tag_137:\n        /* \"contracts/1_Storage.sol\":2634:2647  _expiryLength */\n      dup8\n        /* \"contracts/1_Storage.sol\":2609:2622  expiryLengths */\n      0x03\n        /* \"contracts/1_Storage.sol\":2609:2630  expiryLengths[_keyID] */\n      0x00\n        /* \"contracts/1_Storage.sol\":2623:2629  _keyID */\n      dup13\n        /* \"contracts/1_Storage.sol\":2609:2630  expiryLengths[_keyID] */\n      dup2\n      mstore\n      0x20\n      add\n      swap1\n      dup2\n      mstore\n      0x20\n      add\n      0x00\n      keccak256\n      sload\n        /* \"contracts/1_Storage.sol\":2609:2647  expiryLengths[_keyID] != _expiryLength */\n      eq\n        /* \"contracts/1_Storage.sol\":2606:2687  if(expiryLengths[_keyID] != _expiryLength){... */\n      tag_138\n      jumpi\n        /* \"contracts/1_Storage.sol\":2671:2676  false */\n      0x00\n        /* \"contracts/1_Storage.sol\":2662:2676  value3 = false */\n      swap1\n      pop\n        /* \"contracts/1_Storage.sol\":2606:2687  if(expiryLengths[_keyID] != _expiryLength){... */\n    tag_138:\n        /* \"contracts/1_Storage.sol\":2700:2706  value1 */\n      dup3\n        /* \"contracts/1_Storage.sol\":2707:2713  value2 */\n      dup3\n        /* \"contracts/1_Storage.sol\":2714:2720  value3 */\n      dup3\n        /* \"contracts/1_Storage.sol\":2692:2721  return (value1,value2,value3) */\n      swap6\n      pop\n      swap6\n      pop\n      swap6\n      pop\n      pop\n      pop\n      pop\n        /* \"contracts/1_Storage.sol\":2176:2729  function checkConsistency(bytes32 _keyID, uint256 _businessRequirement, uint256 _expiryLength, bytes32 _contents) public view returns(bool, bool, bool){... */\n      swap5\n      pop\n      swap5\n      pop\n      swap5\n      swap2\n      pop\n      pop\n      jump\t// out\n        /* \"contracts/1_Storage.sol\":865:910  mapping(bytes32 => bool) public finalVerdicts */\n    tag_47:\n      mstore(0x20, 0x09)\n      dup1\n      0x00\n      mstore\n      keccak256(0x00, 0x40)\n      0x00\n      swap2\n      pop\n      sload\n      swap1\n      0x0100\n      exp\n      swap1\n      div\n      0xff\n      and\n      dup2\n      jump\t// out\n        /* \"contracts/1_Storage.sol\":1029:1068  mapping(bytes32=>Voter[]) public Voters */\n    tag_53:\n      mstore(0x20, 0x0c)\n      dup2\n      0x00\n      mstore\n      keccak256(0x00, 0x40)\n      dup2\n      dup2\n      sload\n      dup2\n      lt\n      tag_139\n      jumpi\n      0x00\n      dup1\n      revert\n    tag_139:\n      swap1\n      0x00\n      mstore\n      keccak256(0x00, 0x20)\n      add\n      0x00\n      swap2\n      pop\n      swap2\n      pop\n      pop\n      dup1\n      0x00\n      add\n      0x00\n      swap1\n      sload\n      swap1\n      0x0100\n      exp\n      swap1\n      div\n      0xff\n      and\n      swap1\n      dup1\n      0x00\n      add\n      0x01\n      swap1\n      sload\n      swap1\n      0x0100\n      exp\n      swap1\n      div\n      0xff\n      and\n      swap1\n      dup1\n      0x00\n      add\n      0x02\n      swap1\n      sload\n      swap1\n      0x0100\n      exp\n      swap1\n      div\n      0xffffffffffffffffffffffffffffffffffffffff\n      and\n      swap1\n      pop\n      dup4\n      jump\t// out\n        /* \"contracts/1_Storage.sol\":2056:2171  function getIsCompiled(bytes32 _messageID) public view returns (bool){... */\n    tag_58:\n        /* \"contracts/1_Storage.sol\":2120:2124  bool */\n      0x00\n        /* \"contracts/1_Storage.sol\":2142:2152  isCompiled */\n      0x0a\n        /* \"contracts/1_Storage.sol\":2142:2164  isCompiled[_messageID] */\n      0x00\n        /* \"contracts/1_Storage.sol\":2153:2163  _messageID */\n      dup4\n        /* \"contracts/1_Storage.sol\":2142:2164  isCompiled[_messageID] */\n      dup2\n      mstore\n      0x20\n      add\n      swap1\n      dup2\n      mstore\n      0x20\n      add\n      0x00\n      keccak256\n      0x00\n      swap1\n      sload\n      swap1\n      0x0100\n      exp\n      swap1\n      div\n      0xff\n      and\n        /* \"contracts/1_Storage.sol\":2135:2164  return isCompiled[_messageID] */\n      swap1\n      pop\n        /* \"contracts/1_Storage.sol\":2056:2171  function getIsCompiled(bytes32 _messageID) public view returns (bool){... */\n      swap2\n      swap1\n      pop\n      jump\t// out\n        /* \"contracts/1_Storage.sol\":598:644  mapping(bytes32 => uint256) public expiryDates */\n    tag_62:\n      mstore(0x20, 0x04)\n      dup1\n      0x00\n      mstore\n      keccak256(0x00, 0x40)\n      0x00\n      swap2\n      pop\n      swap1\n      pop\n      sload\n      dup2\n      jump\t// out\n        /* \"contracts/1_Storage.sol\":752:807  mapping(bytes32 => uint256) public businessRequirements */\n    tag_66:\n      mstore(0x20, 0x07)\n      dup1\n      0x00\n      mstore\n      keccak256(0x00, 0x40)\n      0x00\n      swap2\n      pop\n      swap1\n      pop\n      sload\n      dup2\n      jump\t// out\n        /* \"contracts/1_Storage.sol\":5037:5955  function Consensus(bytes32 _messageID) external {... */\n    tag_70:\n        /* \"contracts/1_Storage.sol\":5122:5133  expiryDates */\n      0x04\n        /* \"contracts/1_Storage.sol\":5122:5145  expiryDates[_messageID] */\n      0x00\n        /* \"contracts/1_Storage.sol\":5134:5144  _messageID */\n      dup3\n        /* \"contracts/1_Storage.sol\":5122:5145  expiryDates[_messageID] */\n      dup2\n      mstore\n      0x20\n      add\n      swap1\n      dup2\n      mstore\n      0x20\n      add\n      0x00\n      keccak256\n      sload\n        /* \"contracts/1_Storage.sol\":5103:5118  block.timestamp */\n      timestamp\n        /* \"contracts/1_Storage.sol\":5103:5145  block.timestamp >= expiryDates[_messageID] */\n      lt\n      iszero\n        /* \"contracts/1_Storage.sol\":5095:5182  require(block.timestamp >= expiryDates[_messageID], \"Verdict has not been reached yet\") */\n      tag_143\n      jumpi\n      mload(0x40)\n      0x08c379a000000000000000000000000000000000000000000000000000000000\n      dup2\n      mstore\n      0x04\n      add\n      tag_144\n      swap1\n      tag_131\n      jump\t// in\n    tag_144:\n      mload(0x40)\n      dup1\n      swap2\n      sub\n      swap1\n      revert\n    tag_143:\n        /* \"contracts/1_Storage.sol\":5226:5231  false */\n      0x00\n        /* \"contracts/1_Storage.sol\":5200:5231  isCompiled[_messageID] == false */\n      iszero\n      iszero\n        /* \"contracts/1_Storage.sol\":5200:5210  isCompiled */\n      0x0a\n        /* \"contracts/1_Storage.sol\":5200:5222  isCompiled[_messageID] */\n      0x00\n        /* \"contracts/1_Storage.sol\":5211:5221  _messageID */\n      dup4\n        /* \"contracts/1_Storage.sol\":5200:5222  isCompiled[_messageID] */\n      dup2\n      mstore\n      0x20\n      add\n      swap1\n      dup2\n      mstore\n      0x20\n      add\n      0x00\n      keccak256\n      0x00\n      swap1\n      sload\n      swap1\n      0x0100\n      exp\n      swap1\n      div\n      0xff\n      and\n        /* \"contracts/1_Storage.sol\":5200:5231  isCompiled[_messageID] == false */\n      iszero\n      iszero\n      eq\n        /* \"contracts/1_Storage.sol\":5192:5273  require(isCompiled[_messageID] == false, \"Consensus has already been calculated\") */\n      tag_145\n      jumpi\n      mload(0x40)\n      0x08c379a000000000000000000000000000000000000000000000000000000000\n      dup2\n      mstore\n      0x04\n      add\n      tag_146\n      swap1\n      tag_147\n      jump\t// in\n    tag_146:\n      mload(0x40)\n      dup1\n      swap2\n      sub\n      swap1\n      revert\n    tag_145:\n        /* \"contracts/1_Storage.sol\":5305:5315  initiators */\n      0x00\n        /* \"contracts/1_Storage.sol\":5305:5327  initiators[_messageID] */\n      dup1\n        /* \"contracts/1_Storage.sol\":5316:5326  _messageID */\n      dup3\n        /* \"contracts/1_Storage.sol\":5305:5327  initiators[_messageID] */\n      dup2\n      mstore\n      0x20\n      add\n      swap1\n      dup2\n      mstore\n      0x20\n      add\n      0x00\n      keccak256\n      0x00\n      swap1\n      sload\n      swap1\n      0x0100\n      exp\n      swap1\n      div\n      0xffffffffffffffffffffffffffffffffffffffff\n      and\n        /* \"contracts/1_Storage.sol\":5291:5327  msg.sender == initiators[_messageID] */\n      0xffffffffffffffffffffffffffffffffffffffff\n      and\n        /* \"contracts/1_Storage.sol\":5291:5301  msg.sender */\n      caller\n        /* \"contracts/1_Storage.sol\":5291:5327  msg.sender == initiators[_messageID] */\n      0xffffffffffffffffffffffffffffffffffffffff\n      and\n      eq\n        /* \"contracts/1_Storage.sol\":5291:5391  msg.sender == initiators[_messageID] || voter_maps[_messageID][msg.sender].recipient != address(0x0) */\n      dup1\n      tag_148\n      jumpi\n      pop\n        /* \"contracts/1_Storage.sol\":5387:5390  0x0 */\n      0x00\n        /* \"contracts/1_Storage.sol\":5331:5391  voter_maps[_messageID][msg.sender].recipient != address(0x0) */\n      0xffffffffffffffffffffffffffffffffffffffff\n      and\n        /* \"contracts/1_Storage.sol\":5331:5341  voter_maps */\n      0x0b\n        /* \"contracts/1_Storage.sol\":5331:5353  voter_maps[_messageID] */\n      0x00\n        /* \"contracts/1_Storage.sol\":5342:5352  _messageID */\n      dup4\n        /* \"contracts/1_Storage.sol\":5331:5353  voter_maps[_messageID] */\n      dup2\n      mstore\n      0x20\n      add\n      swap1\n      dup2\n      mstore\n      0x20\n      add\n      0x00\n      keccak256\n        /* \"contracts/1_Storage.sol\":5331:5365  voter_maps[_messageID][msg.sender] */\n      0x00\n        /* \"contracts/1_Storage.sol\":5354:5364  msg.sender */\n      caller\n        /* \"contracts/1_Storage.sol\":5331:5365  voter_maps[_messageID][msg.sender] */\n      0xffffffffffffffffffffffffffffffffffffffff\n      and\n      0xffffffffffffffffffffffffffffffffffffffff\n      and\n      dup2\n      mstore\n      0x20\n      add\n      swap1\n      dup2\n      mstore\n      0x20\n      add\n      0x00\n      keccak256\n        /* \"contracts/1_Storage.sol\":5331:5375  voter_maps[_messageID][msg.sender].recipient */\n      0x00\n      add\n      0x02\n      swap1\n      sload\n      swap1\n      0x0100\n      exp\n      swap1\n      div\n      0xffffffffffffffffffffffffffffffffffffffff\n      and\n        /* \"contracts/1_Storage.sol\":5331:5391  voter_maps[_messageID][msg.sender].recipient != address(0x0) */\n      0xffffffffffffffffffffffffffffffffffffffff\n      and\n      eq\n      iszero\n        /* \"contracts/1_Storage.sol\":5291:5391  msg.sender == initiators[_messageID] || voter_maps[_messageID][msg.sender].recipient != address(0x0) */\n    tag_148:\n        /* \"contracts/1_Storage.sol\":5283:5443  require(msg.sender == initiators[_messageID] || voter_maps[_messageID][msg.sender].recipient != address(0x0),... */\n      tag_149\n      jumpi\n      mload(0x40)\n      0x08c379a000000000000000000000000000000000000000000000000000000000\n      dup2\n      mstore\n      0x04\n      add\n      tag_150\n      swap1\n      tag_151\n      jump\t// in\n    tag_150:\n      mload(0x40)\n      dup1\n      swap2\n      sub\n      swap1\n      revert\n    tag_149:\n        /* \"contracts/1_Storage.sol\":5453:5482  uint256 AccumulatedPercentage */\n      0x00\n        /* \"contracts/1_Storage.sol\":5536:5539  100 */\n      0x64\n        /* \"contracts/1_Storage.sol\":5511:5515  keys */\n      0x0d\n        /* \"contracts/1_Storage.sol\":5511:5527  keys[_messageID] */\n      0x00\n        /* \"contracts/1_Storage.sol\":5516:5526  _messageID */\n      dup5\n        /* \"contracts/1_Storage.sol\":5511:5527  keys[_messageID] */\n      dup2\n      mstore\n      0x20\n      add\n      swap1\n      dup2\n      mstore\n      0x20\n      add\n      0x00\n      keccak256\n        /* \"contracts/1_Storage.sol\":5511:5534  keys[_messageID].length */\n      dup1\n      sload\n      swap1\n      pop\n        /* \"contracts/1_Storage.sol\":5486:5498  numApprovals */\n      0x06\n        /* \"contracts/1_Storage.sol\":5486:5510  numApprovals[_messageID] */\n      0x00\n        /* \"contracts/1_Storage.sol\":5499:5509  _messageID */\n      dup6\n        /* \"contracts/1_Storage.sol\":5486:5510  numApprovals[_messageID] */\n      dup2\n      mstore\n      0x20\n      add\n      swap1\n      dup2\n      mstore\n      0x20\n      add\n      0x00\n      keccak256\n      sload\n        /* \"contracts/1_Storage.sol\":5486:5534  numApprovals[_messageID]/keys[_messageID].length */\n      tag_152\n      swap2\n      swap1\n      tag_153\n      jump\t// in\n    tag_152:\n        /* \"contracts/1_Storage.sol\":5485:5539  (numApprovals[_messageID]/keys[_messageID].length)*100 */\n      tag_154\n      swap2\n      swap1\n      tag_155\n      jump\t// in\n    tag_154:\n        /* \"contracts/1_Storage.sol\":5453:5539  uint256 AccumulatedPercentage = (numApprovals[_messageID]/keys[_messageID].length)*100 */\n      swap1\n      pop\n        /* \"contracts/1_Storage.sol\":5577:5597  businessRequirements */\n      0x07\n        /* \"contracts/1_Storage.sol\":5577:5609  businessRequirements[_messageID] */\n      0x00\n        /* \"contracts/1_Storage.sol\":5598:5608  _messageID */\n      dup4\n        /* \"contracts/1_Storage.sol\":5577:5609  businessRequirements[_messageID] */\n      dup2\n      mstore\n      0x20\n      add\n      swap1\n      dup2\n      mstore\n      0x20\n      add\n      0x00\n      keccak256\n      sload\n        /* \"contracts/1_Storage.sol\":5552:5573  AccumulatedPercentage */\n      dup2\n        /* \"contracts/1_Storage.sol\":5552:5609  AccumulatedPercentage >= businessRequirements[_messageID] */\n      lt\n        /* \"contracts/1_Storage.sol\":5549:5667  if(AccumulatedPercentage >= businessRequirements[_messageID]){... */\n      tag_156\n      jumpi\n        /* \"contracts/1_Storage.sol\":5652:5656  true */\n      0x01\n        /* \"contracts/1_Storage.sol\":5624:5637  finalVerdicts */\n      0x09\n        /* \"contracts/1_Storage.sol\":5624:5649  finalVerdicts[_messageID] */\n      0x00\n        /* \"contracts/1_Storage.sol\":5638:5648  _messageID */\n      dup5\n        /* \"contracts/1_Storage.sol\":5624:5649  finalVerdicts[_messageID] */\n      dup2\n      mstore\n      0x20\n      add\n      swap1\n      dup2\n      mstore\n      0x20\n      add\n      0x00\n      keccak256\n      0x00\n        /* \"contracts/1_Storage.sol\":5624:5656  finalVerdicts[_messageID] = true */\n      0x0100\n      exp\n      dup2\n      sload\n      dup2\n      0xff\n      mul\n      not\n      and\n      swap1\n      dup4\n      iszero\n      iszero\n      mul\n      or\n      swap1\n      sstore\n      pop\n        /* \"contracts/1_Storage.sol\":5549:5667  if(AccumulatedPercentage >= businessRequirements[_messageID]){... */\n    tag_156:\n        /* \"contracts/1_Storage.sol\":5680:5687  uint8 i */\n      0x00\n        /* \"contracts/1_Storage.sol\":5676:5910  for(uint8 i=0; i< keys[_messageID].length; i++){... */\n    tag_157:\n        /* \"contracts/1_Storage.sol\":5694:5698  keys */\n      0x0d\n        /* \"contracts/1_Storage.sol\":5694:5710  keys[_messageID] */\n      0x00\n        /* \"contracts/1_Storage.sol\":5699:5709  _messageID */\n      dup5\n        /* \"contracts/1_Storage.sol\":5694:5710  keys[_messageID] */\n      dup2\n      mstore\n      0x20\n      add\n      swap1\n      dup2\n      mstore\n      0x20\n      add\n      0x00\n      keccak256\n        /* \"contracts/1_Storage.sol\":5694:5717  keys[_messageID].length */\n      dup1\n      sload\n      swap1\n      pop\n        /* \"contracts/1_Storage.sol\":5691:5692  i */\n      dup2\n        /* \"contracts/1_Storage.sol\":5691:5717  i< keys[_messageID].length */\n      0xff\n      and\n      lt\n        /* \"contracts/1_Storage.sol\":5676:5910  for(uint8 i=0; i< keys[_messageID].length; i++){... */\n      iszero\n      tag_158\n      jumpi\n        /* \"contracts/1_Storage.sol\":5793:5798  false */\n      0x00\n        /* \"contracts/1_Storage.sol\":5740:5798  voter_maps[_messageID][keys[_messageID][i]].voted == false */\n      iszero\n      iszero\n        /* \"contracts/1_Storage.sol\":5740:5750  voter_maps */\n      0x0b\n        /* \"contracts/1_Storage.sol\":5740:5762  voter_maps[_messageID] */\n      0x00\n        /* \"contracts/1_Storage.sol\":5751:5761  _messageID */\n      dup6\n        /* \"contracts/1_Storage.sol\":5740:5762  voter_maps[_messageID] */\n      dup2\n      mstore\n      0x20\n      add\n      swap1\n      dup2\n      mstore\n      0x20\n      add\n      0x00\n      keccak256\n        /* \"contracts/1_Storage.sol\":5740:5783  voter_maps[_messageID][keys[_messageID][i]] */\n      0x00\n        /* \"contracts/1_Storage.sol\":5763:5767  keys */\n      0x0d\n        /* \"contracts/1_Storage.sol\":5763:5779  keys[_messageID] */\n      0x00\n        /* \"contracts/1_Storage.sol\":5768:5778  _messageID */\n      dup8\n        /* \"contracts/1_Storage.sol\":5763:5779  keys[_messageID] */\n      dup2\n      mstore\n      0x20\n      add\n      swap1\n      dup2\n      mstore\n      0x20\n      add\n      0x00\n      keccak256\n        /* \"contracts/1_Storage.sol\":5780:5781  i */\n      dup5\n        /* \"contracts/1_Storage.sol\":5763:5782  keys[_messageID][i] */\n      0xff\n      and\n      dup2\n      sload\n      dup2\n      lt\n      tag_160\n      jumpi\n      tag_161\n      tag_162\n      jump\t// in\n    tag_161:\n    tag_160:\n      swap1\n      0x00\n      mstore\n      keccak256(0x00, 0x20)\n      add\n      0x00\n      swap1\n      sload\n      swap1\n      0x0100\n      exp\n      swap1\n      div\n      0xffffffffffffffffffffffffffffffffffffffff\n      and\n        /* \"contracts/1_Storage.sol\":5740:5783  voter_maps[_messageID][keys[_messageID][i]] */\n      0xffffffffffffffffffffffffffffffffffffffff\n      and\n      0xffffffffffffffffffffffffffffffffffffffff\n      and\n      dup2\n      mstore\n      0x20\n      add\n      swap1\n      dup2\n      mstore\n      0x20\n      add\n      0x00\n      keccak256\n        /* \"contracts/1_Storage.sol\":5740:5789  voter_maps[_messageID][keys[_messageID][i]].voted */\n      0x00\n      add\n      0x00\n      swap1\n      sload\n      swap1\n      0x0100\n      exp\n      swap1\n      div\n      0xff\n      and\n        /* \"contracts/1_Storage.sol\":5740:5798  voter_maps[_messageID][keys[_messageID][i]].voted == false */\n      iszero\n      iszero\n      eq\n        /* \"contracts/1_Storage.sol\":5737:5900  if(voter_maps[_messageID][keys[_messageID][i]].voted == false){... */\n      iszero\n      tag_164\n      jumpi\n        /* \"contracts/1_Storage.sol\":5817:5823  Voters */\n      0x0c\n        /* \"contracts/1_Storage.sol\":5817:5835  Voters[_messageID] */\n      0x00\n        /* \"contracts/1_Storage.sol\":5824:5834  _messageID */\n      dup5\n        /* \"contracts/1_Storage.sol\":5817:5835  Voters[_messageID] */\n      dup2\n      mstore\n      0x20\n      add\n      swap1\n      dup2\n      mstore\n      0x20\n      add\n      0x00\n      keccak256\n        /* \"contracts/1_Storage.sol\":5841:5851  voter_maps */\n      0x0b\n        /* \"contracts/1_Storage.sol\":5841:5863  voter_maps[_messageID] */\n      0x00\n        /* \"contracts/1_Storage.sol\":5852:5862  _messageID */\n      dup6\n        /* \"contracts/1_Storage.sol\":5841:5863  voter_maps[_messageID] */\n      dup2\n      mstore\n      0x20\n      add\n      swap1\n      dup2\n      mstore\n      0x20\n      add\n      0x00\n      keccak256\n        /* \"contracts/1_Storage.sol\":5841:5884  voter_maps[_messageID][keys[_messageID][i]] */\n      0x00\n        /* \"contracts/1_Storage.sol\":5864:5868  keys */\n      0x0d\n        /* \"contracts/1_Storage.sol\":5864:5880  keys[_messageID] */\n      0x00\n        /* \"contracts/1_Storage.sol\":5869:5879  _messageID */\n      dup8\n        /* \"contracts/1_Storage.sol\":5864:5880  keys[_messageID] */\n      dup2\n      mstore\n      0x20\n      add\n      swap1\n      dup2\n      mstore\n      0x20\n      add\n      0x00\n      keccak256\n        /* \"contracts/1_Storage.sol\":5881:5882  i */\n      dup5\n        /* \"contracts/1_Storage.sol\":5864:5883  keys[_messageID][i] */\n      0xff\n      and\n      dup2\n      sload\n      dup2\n      lt\n      tag_165\n      jumpi\n      tag_166\n      tag_162\n      jump\t// in\n    tag_166:\n    tag_165:\n      swap1\n      0x00\n      mstore\n      keccak256(0x00, 0x20)\n      add\n      0x00\n      swap1\n      sload\n      swap1\n      0x0100\n      exp\n      swap1\n      div\n      0xffffffffffffffffffffffffffffffffffffffff\n      and\n        /* \"contracts/1_Storage.sol\":5841:5884  voter_maps[_messageID][keys[_messageID][i]] */\n      0xffffffffffffffffffffffffffffffffffffffff\n      and\n      0xffffffffffffffffffffffffffffffffffffffff\n      and\n      dup2\n      mstore\n      0x20\n      add\n      swap1\n      dup2\n      mstore\n      0x20\n      add\n      0x00\n      keccak256\n        /* \"contracts/1_Storage.sol\":5817:5885  Voters[_messageID].push(voter_maps[_messageID][keys[_messageID][i]]) */\n      swap1\n      dup1\n      0x01\n      dup2\n      sload\n      add\n      dup1\n      dup3\n      sstore\n      dup1\n      swap2\n      pop\n      pop\n      0x01\n      swap1\n      sub\n      swap1\n      0x00\n      mstore\n      keccak256(0x00, 0x20)\n      add\n      0x00\n      swap1\n      swap2\n      swap1\n      swap2\n      swap1\n      swap2\n      pop\n      0x00\n      dup3\n      add\n      0x00\n      swap1\n      sload\n      swap1\n      0x0100\n      exp\n      swap1\n      div\n      0xff\n      and\n      dup2\n      0x00\n      add\n      exp(0x0100, 0x00)\n      dup2\n      sload\n      dup2\n      0xff\n      mul\n      not\n      and\n      swap1\n      dup4\n      iszero\n      iszero\n      mul\n      or\n      swap1\n      sstore\n      pop\n      0x00\n      dup3\n      add\n      0x01\n      swap1\n      sload\n      swap1\n      0x0100\n      exp\n      swap1\n      div\n      0xff\n      and\n      dup2\n      0x00\n      add\n      exp(0x0100, 0x01)\n      dup2\n      sload\n      dup2\n      0xff\n      mul\n      not\n      and\n      swap1\n      dup4\n      iszero\n      iszero\n      mul\n      or\n      swap1\n      sstore\n      pop\n      0x00\n      dup3\n      add\n      0x02\n      swap1\n      sload\n      swap1\n      0x0100\n      exp\n      swap1\n      div\n      0xffffffffffffffffffffffffffffffffffffffff\n      and\n      dup2\n      0x00\n      add\n      exp(0x0100, 0x02)\n      dup2\n      sload\n      dup2\n      0xffffffffffffffffffffffffffffffffffffffff\n      mul\n      not\n      and\n      swap1\n      dup4\n      0xffffffffffffffffffffffffffffffffffffffff\n      and\n      mul\n      or\n      swap1\n      sstore\n      pop\n      pop\n      pop\n        /* \"contracts/1_Storage.sol\":5737:5900  if(voter_maps[_messageID][keys[_messageID][i]].voted == false){... */\n    tag_164:\n        /* \"contracts/1_Storage.sol\":5719:5722  i++ */\n      dup1\n      dup1\n      tag_169\n      swap1\n      tag_170\n      jump\t// in\n    tag_169:\n      swap2\n      pop\n      pop\n        /* \"contracts/1_Storage.sol\":5676:5910  for(uint8 i=0; i< keys[_messageID].length; i++){... */\n      jump(tag_157)\n    tag_158:\n      pop\n        /* \"contracts/1_Storage.sol\":5944:5948  true */\n      0x01\n        /* \"contracts/1_Storage.sol\":5919:5929  isCompiled */\n      0x0a\n        /* \"contracts/1_Storage.sol\":5919:5941  isCompiled[_messageID] */\n      0x00\n        /* \"contracts/1_Storage.sol\":5930:5940  _messageID */\n      dup5\n        /* \"contracts/1_Storage.sol\":5919:5941  isCompiled[_messageID] */\n      dup2\n      mstore\n      0x20\n      add\n      swap1\n      dup2\n      mstore\n      0x20\n      add\n      0x00\n      keccak256\n      0x00\n        /* \"contracts/1_Storage.sol\":5919:5948  isCompiled[_messageID] = true */\n      0x0100\n      exp\n      dup2\n      sload\n      dup2\n      0xff\n      mul\n      not\n      and\n      swap1\n      dup4\n      iszero\n      iszero\n      mul\n      or\n      swap1\n      sstore\n      pop\n        /* \"contracts/1_Storage.sol\":5085:5955  {... */\n      pop\n        /* \"contracts/1_Storage.sol\":5037:5955  function Consensus(bytes32 _messageID) external {... */\n      pop\n      jump\t// out\n        /* \"contracts/1_Storage.sol\":1074:1113  mapping(bytes32=>address[]) public keys */\n    tag_73:\n      mstore(0x20, 0x0d)\n      dup2\n      0x00\n      mstore\n      keccak256(0x00, 0x40)\n      dup2\n      dup2\n      sload\n      dup2\n      lt\n      tag_171\n      jumpi\n      0x00\n      dup1\n      revert\n    tag_171:\n      swap1\n      0x00\n      mstore\n      keccak256(0x00, 0x20)\n      add\n      0x00\n      swap2\n      pop\n      swap2\n      pop\n      swap1\n      sload\n      swap1\n      0x0100\n      exp\n      swap1\n      div\n      0xffffffffffffffffffffffffffffffffffffffff\n      and\n      dup2\n      jump\t// out\n        /* \"contracts/1_Storage.sol\":493:538  mapping(bytes32 => uint256) public voteCounts */\n    tag_78:\n      mstore(0x20, 0x02)\n      dup1\n      0x00\n      mstore\n      keccak256(0x00, 0x40)\n      0x00\n      swap2\n      pop\n      swap1\n      pop\n      sload\n      dup2\n      jump\t// out\n        /* \"contracts/1_Storage.sol\":916:958  mapping(bytes32 => bool) public isCompiled */\n    tag_82:\n      mstore(0x20, 0x0a)\n      dup1\n      0x00\n      mstore\n      keccak256(0x00, 0x40)\n      0x00\n      swap2\n      pop\n      sload\n      swap1\n      0x0100\n      exp\n      swap1\n      div\n      0xff\n      and\n      dup2\n      jump\t// out\n        /* \"contracts/1_Storage.sol\":3705:4976  function Vote(string memory response,bytes32 _messageID) external {... */\n    tag_87:\n        /* \"contracts/1_Storage.sol\":3808:3819  expiryDates */\n      0x04\n        /* \"contracts/1_Storage.sol\":3808:3831  expiryDates[_messageID] */\n      0x00\n        /* \"contracts/1_Storage.sol\":3820:3830  _messageID */\n      dup3\n        /* \"contracts/1_Storage.sol\":3808:3831  expiryDates[_messageID] */\n      dup2\n      mstore\n      0x20\n      add\n      swap1\n      dup2\n      mstore\n      0x20\n      add\n      0x00\n      keccak256\n      sload\n        /* \"contracts/1_Storage.sol\":3790:3805  block.timestamp */\n      timestamp\n        /* \"contracts/1_Storage.sol\":3790:3831  block.timestamp < expiryDates[_messageID] */\n      lt\n        /* \"contracts/1_Storage.sol\":3782:3854  require(block.timestamp < expiryDates[_messageID], \"Voting has expired\") */\n      tag_174\n      jumpi\n      mload(0x40)\n      0x08c379a000000000000000000000000000000000000000000000000000000000\n      dup2\n      mstore\n      0x04\n      add\n      tag_175\n      swap1\n      tag_176\n      jump\t// in\n    tag_175:\n      mload(0x40)\n      dup1\n      swap2\n      sub\n      swap1\n      revert\n    tag_174:\n        /* \"contracts/1_Storage.sol\":3928:3931  0x0 */\n      0x00\n        /* \"contracts/1_Storage.sol\":3872:3932  voter_maps[_messageID][msg.sender].recipient != address(0x0) */\n      0xffffffffffffffffffffffffffffffffffffffff\n      and\n        /* \"contracts/1_Storage.sol\":3872:3882  voter_maps */\n      0x0b\n        /* \"contracts/1_Storage.sol\":3872:3894  voter_maps[_messageID] */\n      0x00\n        /* \"contracts/1_Storage.sol\":3883:3893  _messageID */\n      dup4\n        /* \"contracts/1_Storage.sol\":3872:3894  voter_maps[_messageID] */\n      dup2\n      mstore\n      0x20\n      add\n      swap1\n      dup2\n      mstore\n      0x20\n      add\n      0x00\n      keccak256\n        /* \"contracts/1_Storage.sol\":3872:3906  voter_maps[_messageID][msg.sender] */\n      0x00\n        /* \"contracts/1_Storage.sol\":3895:3905  msg.sender */\n      caller\n        /* \"contracts/1_Storage.sol\":3872:3906  voter_maps[_messageID][msg.sender] */\n      0xffffffffffffffffffffffffffffffffffffffff\n      and\n      0xffffffffffffffffffffffffffffffffffffffff\n      and\n      dup2\n      mstore\n      0x20\n      add\n      swap1\n      dup2\n      mstore\n      0x20\n      add\n      0x00\n      keccak256\n        /* \"contracts/1_Storage.sol\":3872:3916  voter_maps[_messageID][msg.sender].recipient */\n      0x00\n      add\n      0x02\n      swap1\n      sload\n      swap1\n      0x0100\n      exp\n      swap1\n      div\n      0xffffffffffffffffffffffffffffffffffffffff\n      and\n        /* \"contracts/1_Storage.sol\":3872:3932  voter_maps[_messageID][msg.sender].recipient != address(0x0) */\n      0xffffffffffffffffffffffffffffffffffffffff\n      and\n      eq\n      iszero\n        /* \"contracts/1_Storage.sol\":3864:3967  require(voter_maps[_messageID][msg.sender].recipient != address(0x0), \"You are not registered to vote\") */\n      tag_177\n      jumpi\n      mload(0x40)\n      0x08c379a000000000000000000000000000000000000000000000000000000000\n      dup2\n      mstore\n      0x04\n      add\n      tag_178\n      swap1\n      tag_179\n      jump\t// in\n    tag_178:\n      mload(0x40)\n      dup1\n      swap2\n      sub\n      swap1\n      revert\n    tag_177:\n        /* \"contracts/1_Storage.sol\":3986:3996  voter_maps */\n      0x0b\n        /* \"contracts/1_Storage.sol\":3986:4008  voter_maps[_messageID] */\n      0x00\n        /* \"contracts/1_Storage.sol\":3997:4007  _messageID */\n      dup3\n        /* \"contracts/1_Storage.sol\":3986:4008  voter_maps[_messageID] */\n      dup2\n      mstore\n      0x20\n      add\n      swap1\n      dup2\n      mstore\n      0x20\n      add\n      0x00\n      keccak256\n        /* \"contracts/1_Storage.sol\":3986:4020  voter_maps[_messageID][msg.sender] */\n      0x00\n        /* \"contracts/1_Storage.sol\":4009:4019  msg.sender */\n      caller\n        /* \"contracts/1_Storage.sol\":3986:4020  voter_maps[_messageID][msg.sender] */\n      0xffffffffffffffffffffffffffffffffffffffff\n      and\n      0xffffffffffffffffffffffffffffffffffffffff\n      and\n      dup2\n      mstore\n      0x20\n      add\n      swap1\n      dup2\n      mstore\n      0x20\n      add\n      0x00\n      keccak256\n        /* \"contracts/1_Storage.sol\":3986:4026  voter_maps[_messageID][msg.sender].voted */\n      0x00\n      add\n      0x00\n      swap1\n      sload\n      swap1\n      0x0100\n      exp\n      swap1\n      div\n      0xff\n      and\n        /* \"contracts/1_Storage.sol\":3985:4026  !voter_maps[_messageID][msg.sender].voted */\n      iszero\n        /* \"contracts/1_Storage.sol\":3977:4059  require(!voter_maps[_messageID][msg.sender].voted, \"You already sent a response.\") */\n      tag_180\n      jumpi\n      mload(0x40)\n      0x08c379a000000000000000000000000000000000000000000000000000000000\n      dup2\n      mstore\n      0x04\n      add\n      tag_181\n      swap1\n      tag_182\n      jump\t// in\n    tag_181:\n      mload(0x40)\n      dup1\n      swap2\n      sub\n      swap1\n      revert\n    tag_180:\n        /* \"contracts/1_Storage.sol\":4113:4131  bytes(\"i approve\") */\n      mload(0x40)\n      dup1\n      0x40\n      add\n      0x40\n      mstore\n      dup1\n      0x09\n      dup2\n      mstore\n      0x20\n      add\n      0x6920617070726f76650000000000000000000000000000000000000000000000\n      dup2\n      mstore\n      pop\n        /* \"contracts/1_Storage.sol\":4103:4132  keccak256(bytes(\"i approve\")) */\n      dup1\n      mload\n      swap1\n      0x20\n      add\n      keccak256\n        /* \"contracts/1_Storage.sol\":4089:4097  response */\n      dup3\n        /* \"contracts/1_Storage.sol\":4073:4099  keccak256(bytes(response)) */\n      dup1\n      mload\n      swap1\n      0x20\n      add\n      keccak256\n        /* \"contracts/1_Storage.sol\":4073:4132  keccak256(bytes(response)) == keccak256(bytes(\"i approve\")) */\n      eq\n        /* \"contracts/1_Storage.sol\":4070:4961  if(keccak256(bytes(response)) == keccak256(bytes(\"i approve\"))){... */\n      iszero\n      tag_183\n      jumpi\n        /* \"contracts/1_Storage.sol\":4190:4194  true */\n      0x01\n        /* \"contracts/1_Storage.sol\":4147:4157  voter_maps */\n      0x0b\n        /* \"contracts/1_Storage.sol\":4147:4169  voter_maps[_messageID] */\n      0x00\n        /* \"contracts/1_Storage.sol\":4158:4168  _messageID */\n      dup4\n        /* \"contracts/1_Storage.sol\":4147:4169  voter_maps[_messageID] */\n      dup2\n      mstore\n      0x20\n      add\n      swap1\n      dup2\n      mstore\n      0x20\n      add\n      0x00\n      keccak256\n        /* \"contracts/1_Storage.sol\":4147:4181  voter_maps[_messageID][msg.sender] */\n      0x00\n        /* \"contracts/1_Storage.sol\":4170:4180  msg.sender */\n      caller\n        /* \"contracts/1_Storage.sol\":4147:4181  voter_maps[_messageID][msg.sender] */\n      0xffffffffffffffffffffffffffffffffffffffff\n      and\n      0xffffffffffffffffffffffffffffffffffffffff\n      and\n      dup2\n      mstore\n      0x20\n      add\n      swap1\n      dup2\n      mstore\n      0x20\n      add\n      0x00\n      keccak256\n        /* \"contracts/1_Storage.sol\":4147:4187  voter_maps[_messageID][msg.sender].voted */\n      0x00\n      add\n      0x00\n        /* \"contracts/1_Storage.sol\":4147:4194  voter_maps[_messageID][msg.sender].voted = true */\n      0x0100\n      exp\n      dup2\n      sload\n      dup2\n      0xff\n      mul\n      not\n      and\n      swap1\n      dup4\n      iszero\n      iszero\n      mul\n      or\n      swap1\n      sstore\n      pop\n        /* \"contracts/1_Storage.sol\":4250:4254  true */\n      0x01\n        /* \"contracts/1_Storage.sol\":4208:4218  voter_maps */\n      0x0b\n        /* \"contracts/1_Storage.sol\":4208:4230  voter_maps[_messageID] */\n      0x00\n        /* \"contracts/1_Storage.sol\":4219:4229  _messageID */\n      dup4\n        /* \"contracts/1_Storage.sol\":4208:4230  voter_maps[_messageID] */\n      dup2\n      mstore\n      0x20\n      add\n      swap1\n      dup2\n      mstore\n      0x20\n      add\n      0x00\n      keccak256\n        /* \"contracts/1_Storage.sol\":4208:4242  voter_maps[_messageID][msg.sender] */\n      0x00\n        /* \"contracts/1_Storage.sol\":4231:4241  msg.sender */\n      caller\n        /* \"contracts/1_Storage.sol\":4208:4242  voter_maps[_messageID][msg.sender] */\n      0xffffffffffffffffffffffffffffffffffffffff\n      and\n      0xffffffffffffffffffffffffffffffffffffffff\n      and\n      dup2\n      mstore\n      0x20\n      add\n      swap1\n      dup2\n      mstore\n      0x20\n      add\n      0x00\n      keccak256\n        /* \"contracts/1_Storage.sol\":4208:4247  voter_maps[_messageID][msg.sender].vote */\n      0x00\n      add\n      0x01\n        /* \"contracts/1_Storage.sol\":4208:4254  voter_maps[_messageID][msg.sender].vote = true */\n      0x0100\n      exp\n      dup2\n      sload\n      dup2\n      0xff\n      mul\n      not\n      and\n      swap1\n      dup4\n      iszero\n      iszero\n      mul\n      or\n      swap1\n      sstore\n      pop\n        /* \"contracts/1_Storage.sol\":4296:4297  1 */\n      0x01\n        /* \"contracts/1_Storage.sol\":4268:4280  numApprovals */\n      0x06\n        /* \"contracts/1_Storage.sol\":4268:4292  numApprovals[_messageID] */\n      0x00\n        /* \"contracts/1_Storage.sol\":4281:4291  _messageID */\n      dup4\n        /* \"contracts/1_Storage.sol\":4268:4292  numApprovals[_messageID] */\n      dup2\n      mstore\n      0x20\n      add\n      swap1\n      dup2\n      mstore\n      0x20\n      add\n      0x00\n      keccak256\n      0x00\n        /* \"contracts/1_Storage.sol\":4268:4297  numApprovals[_messageID] += 1 */\n      dup3\n      dup3\n      sload\n      tag_184\n      swap2\n      swap1\n      tag_185\n      jump\t// in\n    tag_184:\n      swap3\n      pop\n      pop\n      dup2\n      swap1\n      sstore\n      pop\n        /* \"contracts/1_Storage.sol\":4337:4338  1 */\n      0x01\n        /* \"contracts/1_Storage.sol\":4311:4321  voteCounts */\n      0x02\n        /* \"contracts/1_Storage.sol\":4311:4333  voteCounts[_messageID] */\n      0x00\n        /* \"contracts/1_Storage.sol\":4322:4332  _messageID */\n      dup4\n        /* \"contracts/1_Storage.sol\":4311:4333  voteCounts[_messageID] */\n      dup2\n      mstore\n      0x20\n      add\n      swap1\n      dup2\n      mstore\n      0x20\n      add\n      0x00\n      keccak256\n      0x00\n        /* \"contracts/1_Storage.sol\":4311:4338  voteCounts[_messageID] += 1 */\n      dup3\n      dup3\n      sload\n      tag_186\n      swap2\n      swap1\n      tag_185\n      jump\t// in\n    tag_186:\n      swap3\n      pop\n      pop\n      dup2\n      swap1\n      sstore\n      pop\n        /* \"contracts/1_Storage.sol\":4352:4358  Voters */\n      0x0c\n        /* \"contracts/1_Storage.sol\":4352:4370  Voters[_messageID] */\n      0x00\n        /* \"contracts/1_Storage.sol\":4359:4369  _messageID */\n      dup3\n        /* \"contracts/1_Storage.sol\":4352:4370  Voters[_messageID] */\n      dup2\n      mstore\n      0x20\n      add\n      swap1\n      dup2\n      mstore\n      0x20\n      add\n      0x00\n      keccak256\n        /* \"contracts/1_Storage.sol\":4376:4386  voter_maps */\n      0x0b\n        /* \"contracts/1_Storage.sol\":4376:4398  voter_maps[_messageID] */\n      0x00\n        /* \"contracts/1_Storage.sol\":4387:4397  _messageID */\n      dup4\n        /* \"contracts/1_Storage.sol\":4376:4398  voter_maps[_messageID] */\n      dup2\n      mstore\n      0x20\n      add\n      swap1\n      dup2\n      mstore\n      0x20\n      add\n      0x00\n      keccak256\n        /* \"contracts/1_Storage.sol\":4376:4410  voter_maps[_messageID][msg.sender] */\n      0x00\n        /* \"contracts/1_Storage.sol\":4399:4409  msg.sender */\n      caller\n        /* \"contracts/1_Storage.sol\":4376:4410  voter_maps[_messageID][msg.sender] */\n      0xffffffffffffffffffffffffffffffffffffffff\n      and\n      0xffffffffffffffffffffffffffffffffffffffff\n      and\n      dup2\n      mstore\n      0x20\n      add\n      swap1\n      dup2\n      mstore\n      0x20\n      add\n      0x00\n      keccak256\n        /* \"contracts/1_Storage.sol\":4352:4411  Voters[_messageID].push(voter_maps[_messageID][msg.sender]) */\n      swap1\n      dup1\n      0x01\n      dup2\n      sload\n      add\n      dup1\n      dup3\n      sstore\n      dup1\n      swap2\n      pop\n      pop\n      0x01\n      swap1\n      sub\n      swap1\n      0x00\n      mstore\n      keccak256(0x00, 0x20)\n      add\n      0x00\n      swap1\n      swap2\n      swap1\n      swap2\n      swap1\n      swap2\n      pop\n      0x00\n      dup3\n      add\n      0x00\n      swap1\n      sload\n      swap1\n      0x0100\n      exp\n      swap1\n      div\n      0xff\n      and\n      dup2\n      0x00\n      add\n      exp(0x0100, 0x00)\n      dup2\n      sload\n      dup2\n      0xff\n      mul\n      not\n      and\n      swap1\n      dup4\n      iszero\n      iszero\n      mul\n      or\n      swap1\n      sstore\n      pop\n      0x00\n      dup3\n      add\n      0x01\n      swap1\n      sload\n      swap1\n      0x0100\n      exp\n      swap1\n      div\n      0xff\n      and\n      dup2\n      0x00\n      add\n      exp(0x0100, 0x01)\n      dup2\n      sload\n      dup2\n      0xff\n      mul\n      not\n      and\n      swap1\n      dup4\n      iszero\n      iszero\n      mul\n      or\n      swap1\n      sstore\n      pop\n      0x00\n      dup3\n      add\n      0x02\n      swap1\n      sload\n      swap1\n      0x0100\n      exp\n      swap1\n      div\n      0xffffffffffffffffffffffffffffffffffffffff\n      and\n      dup2\n      0x00\n      add\n      exp(0x0100, 0x02)\n      dup2\n      sload\n      dup2\n      0xffffffffffffffffffffffffffffffffffffffff\n      mul\n      not\n      and\n      swap1\n      dup4\n      0xffffffffffffffffffffffffffffffffffffffff\n      and\n      mul\n      or\n      swap1\n      sstore\n      pop\n      pop\n      pop\n        /* \"contracts/1_Storage.sol\":4070:4961  if(keccak256(bytes(response)) == keccak256(bytes(\"i approve\"))){... */\n      jump(tag_188)\n    tag_183:\n        /* \"contracts/1_Storage.sol\":4480:4501  bytes(\"i disapprove\") */\n      mload(0x40)\n      dup1\n      0x40\n      add\n      0x40\n      mstore\n      dup1\n      0x0c\n      dup2\n      mstore\n      0x20\n      add\n      0x6920646973617070726f76650000000000000000000000000000000000000000\n      dup2\n      mstore\n      pop\n        /* \"contracts/1_Storage.sol\":4470:4502  keccak256(bytes(\"i disapprove\")) */\n      dup1\n      mload\n      swap1\n      0x20\n      add\n      keccak256\n        /* \"contracts/1_Storage.sol\":4456:4464  response */\n      dup3\n        /* \"contracts/1_Storage.sol\":4440:4466  keccak256(bytes(response)) */\n      dup1\n      mload\n      swap1\n      0x20\n      add\n      keccak256\n        /* \"contracts/1_Storage.sol\":4440:4502  keccak256(bytes(response)) == keccak256(bytes(\"i disapprove\")) */\n      eq\n        /* \"contracts/1_Storage.sol\":4437:4961  if(keccak256(bytes(response)) == keccak256(bytes(\"i disapprove\"))){... */\n      iszero\n      tag_189\n      jumpi\n        /* \"contracts/1_Storage.sol\":4560:4564  true */\n      0x01\n        /* \"contracts/1_Storage.sol\":4517:4527  voter_maps */\n      0x0b\n        /* \"contracts/1_Storage.sol\":4517:4539  voter_maps[_messageID] */\n      0x00\n        /* \"contracts/1_Storage.sol\":4528:4538  _messageID */\n      dup4\n        /* \"contracts/1_Storage.sol\":4517:4539  voter_maps[_messageID] */\n      dup2\n      mstore\n      0x20\n      add\n      swap1\n      dup2\n      mstore\n      0x20\n      add\n      0x00\n      keccak256\n        /* \"contracts/1_Storage.sol\":4517:4551  voter_maps[_messageID][msg.sender] */\n      0x00\n        /* \"contracts/1_Storage.sol\":4540:4550  msg.sender */\n      caller\n        /* \"contracts/1_Storage.sol\":4517:4551  voter_maps[_messageID][msg.sender] */\n      0xffffffffffffffffffffffffffffffffffffffff\n      and\n      0xffffffffffffffffffffffffffffffffffffffff\n      and\n      dup2\n      mstore\n      0x20\n      add\n      swap1\n      dup2\n      mstore\n      0x20\n      add\n      0x00\n      keccak256\n        /* \"contracts/1_Storage.sol\":4517:4557  voter_maps[_messageID][msg.sender].voted */\n      0x00\n      add\n      0x00\n        /* \"contracts/1_Storage.sol\":4517:4564  voter_maps[_messageID][msg.sender].voted = true */\n      0x0100\n      exp\n      dup2\n      sload\n      dup2\n      0xff\n      mul\n      not\n      and\n      swap1\n      dup4\n      iszero\n      iszero\n      mul\n      or\n      swap1\n      sstore\n      pop\n        /* \"contracts/1_Storage.sol\":4604:4605  1 */\n      0x01\n        /* \"contracts/1_Storage.sol\":4578:4588  voteCounts */\n      0x02\n        /* \"contracts/1_Storage.sol\":4578:4600  voteCounts[_messageID] */\n      0x00\n        /* \"contracts/1_Storage.sol\":4589:4599  _messageID */\n      dup4\n        /* \"contracts/1_Storage.sol\":4578:4600  voteCounts[_messageID] */\n      dup2\n      mstore\n      0x20\n      add\n      swap1\n      dup2\n      mstore\n      0x20\n      add\n      0x00\n      keccak256\n      0x00\n        /* \"contracts/1_Storage.sol\":4578:4605  voteCounts[_messageID] += 1 */\n      dup3\n      dup3\n      sload\n      tag_190\n      swap2\n      swap1\n      tag_185\n      jump\t// in\n    tag_190:\n      swap3\n      pop\n      pop\n      dup2\n      swap1\n      sstore\n      pop\n        /* \"contracts/1_Storage.sol\":4619:4625  Voters */\n      0x0c\n        /* \"contracts/1_Storage.sol\":4619:4637  Voters[_messageID] */\n      0x00\n        /* \"contracts/1_Storage.sol\":4626:4636  _messageID */\n      dup3\n        /* \"contracts/1_Storage.sol\":4619:4637  Voters[_messageID] */\n      dup2\n      mstore\n      0x20\n      add\n      swap1\n      dup2\n      mstore\n      0x20\n      add\n      0x00\n      keccak256\n        /* \"contracts/1_Storage.sol\":4643:4653  voter_maps */\n      0x0b\n        /* \"contracts/1_Storage.sol\":4643:4665  voter_maps[_messageID] */\n      0x00\n        /* \"contracts/1_Storage.sol\":4654:4664  _messageID */\n      dup4\n        /* \"contracts/1_Storage.sol\":4643:4665  voter_maps[_messageID] */\n      dup2\n      mstore\n      0x20\n      add\n      swap1\n      dup2\n      mstore\n      0x20\n      add\n      0x00\n      keccak256\n        /* \"contracts/1_Storage.sol\":4643:4677  voter_maps[_messageID][msg.sender] */\n      0x00\n        /* \"contracts/1_Storage.sol\":4666:4676  msg.sender */\n      caller\n        /* \"contracts/1_Storage.sol\":4643:4677  voter_maps[_messageID][msg.sender] */\n      0xffffffffffffffffffffffffffffffffffffffff\n      and\n      0xffffffffffffffffffffffffffffffffffffffff\n      and\n      dup2\n      mstore\n      0x20\n      add\n      swap1\n      dup2\n      mstore\n      0x20\n      add\n      0x00\n      keccak256\n        /* \"contracts/1_Storage.sol\":4619:4678  Voters[_messageID].push(voter_maps[_messageID][msg.sender]) */\n      swap1\n      dup1\n      0x01\n      dup2\n      sload\n      add\n      dup1\n      dup3\n      sstore\n      dup1\n      swap2\n      pop\n      pop\n      0x01\n      swap1\n      sub\n      swap1\n      0x00\n      mstore\n      keccak256(0x00, 0x20)\n      add\n      0x00\n      swap1\n      swap2\n      swap1\n      swap2\n      swap1\n      swap2\n      pop\n      0x00\n      dup3\n      add\n      0x00\n      swap1\n      sload\n      swap1\n      0x0100\n      exp\n      swap1\n      div\n      0xff\n      and\n      dup2\n      0x00\n      add\n      exp(0x0100, 0x00)\n      dup2\n      sload\n      dup2\n      0xff\n      mul\n      not\n      and\n      swap1\n      dup4\n      iszero\n      iszero\n      mul\n      or\n      swap1\n      sstore\n      pop\n      0x00\n      dup3\n      add\n      0x01\n      swap1\n      sload\n      swap1\n      0x0100\n      exp\n      swap1\n      div\n      0xff\n      and\n      dup2\n      0x00\n      add\n      exp(0x0100, 0x01)\n      dup2\n      sload\n      dup2\n      0xff\n      mul\n      not\n      and\n      swap1\n      dup4\n      iszero\n      iszero\n      mul\n      or\n      swap1\n      sstore\n      pop\n      0x00\n      dup3\n      add\n      0x02\n      swap1\n      sload\n      swap1\n      0x0100\n      exp\n      swap1\n      div\n      0xffffffffffffffffffffffffffffffffffffffff\n      and\n      dup2\n      0x00\n      add\n      exp(0x0100, 0x02)\n      dup2\n      sload\n      dup2\n      0xffffffffffffffffffffffffffffffffffffffff\n      mul\n      not\n      and\n      swap1\n      dup4\n      0xffffffffffffffffffffffffffffffffffffffff\n      and\n      mul\n      or\n      swap1\n      sstore\n      pop\n      pop\n      pop\n        /* \"contracts/1_Storage.sol\":4437:4961  if(keccak256(bytes(response)) == keccak256(bytes(\"i disapprove\"))){... */\n      jump(tag_192)\n    tag_189:\n        /* \"contracts/1_Storage.sol\":4832:4836  true */\n      0x01\n        /* \"contracts/1_Storage.sol\":4789:4799  voter_maps */\n      0x0b\n        /* \"contracts/1_Storage.sol\":4789:4811  voter_maps[_messageID] */\n      0x00\n        /* \"contracts/1_Storage.sol\":4800:4810  _messageID */\n      dup4\n        /* \"contracts/1_Storage.sol\":4789:4811  voter_maps[_messageID] */\n      dup2\n      mstore\n      0x20\n      add\n      swap1\n      dup2\n      mstore\n      0x20\n      add\n      0x00\n      keccak256\n        /* \"contracts/1_Storage.sol\":4789:4823  voter_maps[_messageID][msg.sender] */\n      0x00\n        /* \"contracts/1_Storage.sol\":4812:4822  msg.sender */\n      caller\n        /* \"contracts/1_Storage.sol\":4789:4823  voter_maps[_messageID][msg.sender] */\n      0xffffffffffffffffffffffffffffffffffffffff\n      and\n      0xffffffffffffffffffffffffffffffffffffffff\n      and\n      dup2\n      mstore\n      0x20\n      add\n      swap1\n      dup2\n      mstore\n      0x20\n      add\n      0x00\n      keccak256\n        /* \"contracts/1_Storage.sol\":4789:4829  voter_maps[_messageID][msg.sender].voted */\n      0x00\n      add\n      0x00\n        /* \"contracts/1_Storage.sol\":4789:4836  voter_maps[_messageID][msg.sender].voted = true */\n      0x0100\n      exp\n      dup2\n      sload\n      dup2\n      0xff\n      mul\n      not\n      and\n      swap1\n      dup4\n      iszero\n      iszero\n      mul\n      or\n      swap1\n      sstore\n      pop\n        /* \"contracts/1_Storage.sol\":4876:4877  1 */\n      0x01\n        /* \"contracts/1_Storage.sol\":4850:4860  voteCounts */\n      0x02\n        /* \"contracts/1_Storage.sol\":4850:4872  voteCounts[_messageID] */\n      0x00\n        /* \"contracts/1_Storage.sol\":4861:4871  _messageID */\n      dup4\n        /* \"contracts/1_Storage.sol\":4850:4872  voteCounts[_messageID] */\n      dup2\n      mstore\n      0x20\n      add\n      swap1\n      dup2\n      mstore\n      0x20\n      add\n      0x00\n      keccak256\n      0x00\n        /* \"contracts/1_Storage.sol\":4850:4877  voteCounts[_messageID] += 1 */\n      dup3\n      dup3\n      sload\n      tag_193\n      swap2\n      swap1\n      tag_185\n      jump\t// in\n    tag_193:\n      swap3\n      pop\n      pop\n      dup2\n      swap1\n      sstore\n      pop\n        /* \"contracts/1_Storage.sol\":4891:4897  Voters */\n      0x0c\n        /* \"contracts/1_Storage.sol\":4891:4909  Voters[_messageID] */\n      0x00\n        /* \"contracts/1_Storage.sol\":4898:4908  _messageID */\n      dup3\n        /* \"contracts/1_Storage.sol\":4891:4909  Voters[_messageID] */\n      dup2\n      mstore\n      0x20\n      add\n      swap1\n      dup2\n      mstore\n      0x20\n      add\n      0x00\n      keccak256\n        /* \"contracts/1_Storage.sol\":4915:4925  voter_maps */\n      0x0b\n        /* \"contracts/1_Storage.sol\":4915:4937  voter_maps[_messageID] */\n      0x00\n        /* \"contracts/1_Storage.sol\":4926:4936  _messageID */\n      dup4\n        /* \"contracts/1_Storage.sol\":4915:4937  voter_maps[_messageID] */\n      dup2\n      mstore\n      0x20\n      add\n      swap1\n      dup2\n      mstore\n      0x20\n      add\n      0x00\n      keccak256\n        /* \"contracts/1_Storage.sol\":4915:4949  voter_maps[_messageID][msg.sender] */\n      0x00\n        /* \"contracts/1_Storage.sol\":4938:4948  msg.sender */\n      caller\n        /* \"contracts/1_Storage.sol\":4915:4949  voter_maps[_messageID][msg.sender] */\n      0xffffffffffffffffffffffffffffffffffffffff\n      and\n      0xffffffffffffffffffffffffffffffffffffffff\n      and\n      dup2\n      mstore\n      0x20\n      add\n      swap1\n      dup2\n      mstore\n      0x20\n      add\n      0x00\n      keccak256\n        /* \"contracts/1_Storage.sol\":4891:4950  Voters[_messageID].push(voter_maps[_messageID][msg.sender]) */\n      swap1\n      dup1\n      0x01\n      dup2\n      sload\n      add\n      dup1\n      dup3\n      sstore\n      dup1\n      swap2\n      pop\n      pop\n      0x01\n      swap1\n      sub\n      swap1\n      0x00\n      mstore\n      keccak256(0x00, 0x20)\n      add\n      0x00\n      swap1\n      swap2\n      swap1\n      swap2\n      swap1\n      swap2\n      pop\n      0x00\n      dup3\n      add\n      0x00\n      swap1\n      sload\n      swap1\n      0x0100\n      exp\n      swap1\n      div\n      0xff\n      and\n      dup2\n      0x00\n      add\n      exp(0x0100, 0x00)\n      dup2\n      sload\n      dup2\n      0xff\n      mul\n      not\n      and\n      swap1\n      dup4\n      iszero\n      iszero\n      mul\n      or\n      swap1\n      sstore\n      pop\n      0x00\n      dup3\n      add\n      0x01\n      swap1\n      sload\n      swap1\n      0x0100\n      exp\n      swap1\n      div\n      0xff\n      and\n      dup2\n      0x00\n      add\n      exp(0x0100, 0x01)\n      dup2\n      sload\n      dup2\n      0xff\n      mul\n      not\n      and\n      swap1\n      dup4\n      iszero\n      iszero\n      mul\n      or\n      swap1\n      sstore\n      pop\n      0x00\n      dup3\n      add\n      0x02\n      swap1\n      sload\n      swap1\n      0x0100\n      exp\n      swap1\n      div\n      0xffffffffffffffffffffffffffffffffffffffff\n      and\n      dup2\n      0x00\n      add\n      exp(0x0100, 0x02)\n      dup2\n      sload\n      dup2\n      0xffffffffffffffffffffffffffffffffffffffff\n      mul\n      not\n      and\n      swap1\n      dup4\n      0xffffffffffffffffffffffffffffffffffffffff\n      and\n      mul\n      or\n      swap1\n      sstore\n      pop\n      pop\n      pop\n        /* \"contracts/1_Storage.sol\":4437:4961  if(keccak256(bytes(response)) == keccak256(bytes(\"i disapprove\"))){... */\n    tag_192:\n        /* \"contracts/1_Storage.sol\":4070:4961  if(keccak256(bytes(response)) == keccak256(bytes(\"i approve\"))){... */\n    tag_188:\n        /* \"contracts/1_Storage.sol\":3705:4976  function Vote(string memory response,bytes32 _messageID) external {... */\n      pop\n      pop\n      jump\t// out\n        /* \"contracts/1_Storage.sol\":2734:2873  function getIsCreated(bytes32 _keyID) public view returns (bytes32,string memory){... */\n    tag_90:\n        /* \"contracts/1_Storage.sol\":2793:2800  bytes32 */\n      0x00\n        /* \"contracts/1_Storage.sol\":2801:2814  string memory */\n      0x60\n        /* \"contracts/1_Storage.sol\":2833:2836  IDs */\n      0x01\n        /* \"contracts/1_Storage.sol\":2833:2844  IDs[_keyID] */\n      0x00\n        /* \"contracts/1_Storage.sol\":2837:2843  _keyID */\n      dup5\n        /* \"contracts/1_Storage.sol\":2833:2844  IDs[_keyID] */\n      dup2\n      mstore\n      0x20\n      add\n      swap1\n      dup2\n      mstore\n      0x20\n      add\n      0x00\n      keccak256\n      sload\n        /* \"contracts/1_Storage.sol\":2845:2857  messageDates */\n      0x08\n        /* \"contracts/1_Storage.sol\":2845:2865  messageDates[_keyID] */\n      0x00\n        /* \"contracts/1_Storage.sol\":2858:2864  _keyID */\n      dup6\n        /* \"contracts/1_Storage.sol\":2845:2865  messageDates[_keyID] */\n      dup2\n      mstore\n      0x20\n      add\n      swap1\n      dup2\n      mstore\n      0x20\n      add\n      0x00\n      keccak256\n        /* \"contracts/1_Storage.sol\":2825:2866  return (IDs[_keyID],messageDates[_keyID]) */\n      dup1\n      dup1\n      sload\n      tag_196\n      swap1\n      tag_197\n      jump\t// in\n    tag_196:\n      dup1\n      0x1f\n      add\n      0x20\n      dup1\n      swap2\n      div\n      mul\n      0x20\n      add\n      mload(0x40)\n      swap1\n      dup2\n      add\n      0x40\n      mstore\n      dup1\n      swap3\n      swap2\n      swap1\n      dup2\n      dup2\n      mstore\n      0x20\n      add\n      dup3\n      dup1\n      sload\n      tag_198\n      swap1\n      tag_197\n      jump\t// in\n    tag_198:\n      dup1\n      iszero\n      tag_199\n      jumpi\n      dup1\n      0x1f\n      lt\n      tag_200\n      jumpi\n      0x0100\n      dup1\n      dup4\n      sload\n      div\n      mul\n      dup4\n      mstore\n      swap2\n      0x20\n      add\n      swap2\n      jump(tag_199)\n    tag_200:\n      dup3\n      add\n      swap2\n      swap1\n      0x00\n      mstore\n      keccak256(0x00, 0x20)\n      swap1\n    tag_201:\n      dup2\n      sload\n      dup2\n      mstore\n      swap1\n      0x01\n      add\n      swap1\n      0x20\n      add\n      dup1\n      dup4\n      gt\n      tag_201\n      jumpi\n      dup3\n      swap1\n      sub\n      0x1f\n      and\n      dup3\n      add\n      swap2\n    tag_199:\n      pop\n      pop\n      pop\n      pop\n      pop\n      swap1\n      pop\n      swap2\n      pop\n      swap2\n      pop\n        /* \"contracts/1_Storage.sol\":2734:2873  function getIsCreated(bytes32 _keyID) public view returns (bytes32,string memory){... */\n      swap2\n      pop\n      swap2\n      jump\t// out\n        /* \"contracts/1_Storage.sol\":813:859  mapping(bytes32 => string) public messageDates */\n    tag_95:\n      mstore(0x20, 0x08)\n      dup1\n      0x00\n      mstore\n      keccak256(0x00, 0x40)\n      0x00\n      swap2\n      pop\n      swap1\n      pop\n      dup1\n      sload\n      tag_202\n      swap1\n      tag_197\n      jump\t// in\n    tag_202:\n      dup1\n      0x1f\n      add\n      0x20\n      dup1\n      swap2\n      div\n      mul\n      0x20\n      add\n      mload(0x40)\n      swap1\n      dup2\n      add\n      0x40\n      mstore\n      dup1\n      swap3\n      swap2\n      swap1\n      dup2\n      dup2\n      mstore\n      0x20\n      add\n      dup3\n      dup1\n      sload\n      tag_203\n      swap1\n      tag_197\n      jump\t// in\n    tag_203:\n      dup1\n      iszero\n      tag_204\n      jumpi\n      dup1\n      0x1f\n      lt\n      tag_205\n      jumpi\n      0x0100\n      dup1\n      dup4\n      sload\n      div\n      mul\n      dup4\n      mstore\n      swap2\n      0x20\n      add\n      swap2\n      jump(tag_204)\n    tag_205:\n      dup3\n      add\n      swap2\n      swap1\n      0x00\n      mstore\n      keccak256(0x00, 0x20)\n      swap1\n    tag_206:\n      dup2\n      sload\n      dup2\n      mstore\n      swap1\n      0x01\n      add\n      swap1\n      0x20\n      add\n      dup1\n      dup4\n      gt\n      tag_206\n      jumpi\n      dup3\n      swap1\n      sub\n      0x1f\n      and\n      dup3\n      add\n      swap2\n    tag_204:\n      pop\n      pop\n      pop\n      pop\n      pop\n      dup2\n      jump\t// out\n        /* \"contracts/1_Storage.sol\":964:1023  mapping(bytes32=>mapping(address=>Voter)) public voter_maps */\n    tag_101:\n      mstore(0x20, 0x0b)\n      dup2\n      0x00\n      mstore\n      mstore(0x20, keccak256(0x00, 0x40))\n      dup1\n      0x00\n      mstore\n      keccak256(0x00, 0x40)\n      0x00\n      swap2\n      pop\n      swap2\n      pop\n      pop\n      dup1\n      0x00\n      add\n      0x00\n      swap1\n      sload\n      swap1\n      0x0100\n      exp\n      swap1\n      div\n      0xff\n      and\n      swap1\n      dup1\n      0x00\n      add\n      0x01\n      swap1\n      sload\n      swap1\n      0x0100\n      exp\n      swap1\n      div\n      0xff\n      and\n      swap1\n      dup1\n      0x00\n      add\n      0x02\n      swap1\n      sload\n      swap1\n      0x0100\n      exp\n      swap1\n      div\n      0xffffffffffffffffffffffffffffffffffffffff\n      and\n      swap1\n      pop\n      dup4\n      jump\t// out\n        /* \"contracts/1_Storage.sol\":1124:2051  function createContract(bytes32 _messageID, uint256 expiry, uint256 requiredPercentage,bytes32 _contents,... */\n    tag_106:\n        /* \"contracts/1_Storage.sol\":1422:1423  0 */\n      0x00\n        /* \"contracts/1_Storage.sol\":1388:1424  initiators[_messageID] == address(0) */\n      0xffffffffffffffffffffffffffffffffffffffff\n      and\n        /* \"contracts/1_Storage.sol\":1388:1398  initiators */\n      0x00\n        /* \"contracts/1_Storage.sol\":1388:1410  initiators[_messageID] */\n      dup1\n        /* \"contracts/1_Storage.sol\":1399:1409  _messageID */\n      dup9\n        /* \"contracts/1_Storage.sol\":1388:1410  initiators[_messageID] */\n      dup2\n      mstore\n      0x20\n      add\n      swap1\n      dup2\n      mstore\n      0x20\n      add\n      0x00\n      keccak256\n      0x00\n      swap1\n      sload\n      swap1\n      0x0100\n      exp\n      swap1\n      div\n      0xffffffffffffffffffffffffffffffffffffffff\n      and\n        /* \"contracts/1_Storage.sol\":1388:1424  initiators[_messageID] == address(0) */\n      0xffffffffffffffffffffffffffffffffffffffff\n      and\n      eq\n        /* \"contracts/1_Storage.sol\":1380:1453  require(initiators[_messageID] == address(0),\"Proposal already created!\") */\n      tag_208\n      jumpi\n      mload(0x40)\n      0x08c379a000000000000000000000000000000000000000000000000000000000\n      dup2\n      mstore\n      0x04\n      add\n      tag_209\n      swap1\n      tag_210\n      jump\t// in\n    tag_209:\n      mload(0x40)\n      dup1\n      swap2\n      sub\n      swap1\n      revert\n    tag_208:\n        /* \"contracts/1_Storage.sol\":1492:1493  0 */\n      0x00\n        /* \"contracts/1_Storage.sol\":1467:1477  voteCounts */\n      0x02\n        /* \"contracts/1_Storage.sol\":1467:1489  voteCounts[_messageID] */\n      0x00\n        /* \"contracts/1_Storage.sol\":1478:1488  _messageID */\n      dup9\n        /* \"contracts/1_Storage.sol\":1467:1489  voteCounts[_messageID] */\n      dup2\n      mstore\n      0x20\n      add\n      swap1\n      dup2\n      mstore\n      0x20\n      add\n      0x00\n      keccak256\n        /* \"contracts/1_Storage.sol\":1467:1493  voteCounts[_messageID] = 0 */\n      dup2\n      swap1\n      sstore\n      pop\n        /* \"contracts/1_Storage.sol\":1552:1558  expiry */\n      dup5\n        /* \"contracts/1_Storage.sol\":1534:1549  block.timestamp */\n      timestamp\n        /* \"contracts/1_Storage.sol\":1534:1558  block.timestamp + expiry */\n      tag_211\n      swap2\n      swap1\n      tag_185\n      jump\t// in\n    tag_211:\n        /* \"contracts/1_Storage.sol\":1507:1518  expiryDates */\n      0x04\n        /* \"contracts/1_Storage.sol\":1507:1530  expiryDates[_messageID] */\n      0x00\n        /* \"contracts/1_Storage.sol\":1519:1529  _messageID */\n      dup9\n        /* \"contracts/1_Storage.sol\":1507:1530  expiryDates[_messageID] */\n      dup2\n      mstore\n      0x20\n      add\n      swap1\n      dup2\n      mstore\n      0x20\n      add\n      0x00\n      keccak256\n        /* \"contracts/1_Storage.sol\":1507:1558  expiryDates[_messageID] =  block.timestamp + expiry */\n      dup2\n      swap1\n      sstore\n      pop\n        /* \"contracts/1_Storage.sol\":1586:1596  _messageID */\n      dup6\n        /* \"contracts/1_Storage.sol\":1572:1575  IDs */\n      0x01\n        /* \"contracts/1_Storage.sol\":1572:1583  IDs[_keyID] */\n      0x00\n        /* \"contracts/1_Storage.sol\":1576:1582  _keyID */\n      dup4\n        /* \"contracts/1_Storage.sol\":1572:1583  IDs[_keyID] */\n      dup2\n      mstore\n      0x20\n      add\n      swap1\n      dup2\n      mstore\n      0x20\n      add\n      0x00\n      keccak256\n        /* \"contracts/1_Storage.sol\":1572:1596  IDs[_keyID] = _messageID */\n      dup2\n      swap1\n      sstore\n      pop\n        /* \"contracts/1_Storage.sol\":1635:1640  false */\n      0x00\n        /* \"contracts/1_Storage.sol\":1610:1620  isCompiled */\n      0x0a\n        /* \"contracts/1_Storage.sol\":1610:1632  isCompiled[_messageID] */\n      0x00\n        /* \"contracts/1_Storage.sol\":1621:1631  _messageID */\n      dup9\n        /* \"contracts/1_Storage.sol\":1610:1632  isCompiled[_messageID] */\n      dup2\n      mstore\n      0x20\n      add\n      swap1\n      dup2\n      mstore\n      0x20\n      add\n      0x00\n      keccak256\n      0x00\n        /* \"contracts/1_Storage.sol\":1610:1640  isCompiled[_messageID] = false */\n      0x0100\n      exp\n      dup2\n      sload\n      dup2\n      0xff\n      mul\n      not\n      and\n      swap1\n      dup4\n      iszero\n      iszero\n      mul\n      or\n      swap1\n      sstore\n      pop\n        /* \"contracts/1_Storage.sol\":1689:1707  requiredPercentage */\n      dup4\n        /* \"contracts/1_Storage.sol\":1654:1674  businessRequirements */\n      0x07\n        /* \"contracts/1_Storage.sol\":1654:1686  businessRequirements[_messageID] */\n      0x00\n        /* \"contracts/1_Storage.sol\":1675:1685  _messageID */\n      dup9\n        /* \"contracts/1_Storage.sol\":1654:1686  businessRequirements[_messageID] */\n      dup2\n      mstore\n      0x20\n      add\n      swap1\n      dup2\n      mstore\n      0x20\n      add\n      0x00\n      keccak256\n        /* \"contracts/1_Storage.sol\":1654:1707  businessRequirements[_messageID] = requiredPercentage */\n      dup2\n      swap1\n      sstore\n      pop\n        /* \"contracts/1_Storage.sol\":1752:1770  requiredPercentage */\n      dup4\n        /* \"contracts/1_Storage.sol\":1721:1741  businessRequirements */\n      0x07\n        /* \"contracts/1_Storage.sol\":1721:1749  businessRequirements[_keyID] */\n      0x00\n        /* \"contracts/1_Storage.sol\":1742:1748  _keyID */\n      dup4\n        /* \"contracts/1_Storage.sol\":1721:1749  businessRequirements[_keyID] */\n      dup2\n      mstore\n      0x20\n      add\n      swap1\n      dup2\n      mstore\n      0x20\n      add\n      0x00\n      keccak256\n        /* \"contracts/1_Storage.sol\":1721:1770  businessRequirements[_keyID] = requiredPercentage */\n      dup2\n      swap1\n      sstore\n      pop\n        /* \"contracts/1_Storage.sol\":1812:1817  false */\n      0x00\n        /* \"contracts/1_Storage.sol\":1784:1797  finalVerdicts */\n      0x09\n        /* \"contracts/1_Storage.sol\":1784:1809  finalVerdicts[_messageID] */\n      0x00\n        /* \"contracts/1_Storage.sol\":1798:1808  _messageID */\n      dup9\n        /* \"contracts/1_Storage.sol\":1784:1809  finalVerdicts[_messageID] */\n      dup2\n      mstore\n      0x20\n      add\n      swap1\n      dup2\n      mstore\n      0x20\n      add\n      0x00\n      keccak256\n      0x00\n        /* \"contracts/1_Storage.sol\":1784:1817  finalVerdicts[_messageID] = false */\n      0x0100\n      exp\n      dup2\n      sload\n      dup2\n      0xff\n      mul\n      not\n      and\n      swap1\n      dup4\n      iszero\n      iszero\n      mul\n      or\n      swap1\n      sstore\n      pop\n        /* \"contracts/1_Storage.sol\":1855:1861  expiry */\n      dup5\n        /* \"contracts/1_Storage.sol\":1831:1844  expiryLengths */\n      0x03\n        /* \"contracts/1_Storage.sol\":1831:1852  expiryLengths[_keyID] */\n      0x00\n        /* \"contracts/1_Storage.sol\":1845:1851  _keyID */\n      dup4\n        /* \"contracts/1_Storage.sol\":1831:1852  expiryLengths[_keyID] */\n      dup2\n      mstore\n      0x20\n      add\n      swap1\n      dup2\n      mstore\n      0x20\n      add\n      0x00\n      keccak256\n        /* \"contracts/1_Storage.sol\":1831:1861  expiryLengths[_keyID] = expiry */\n      dup2\n      swap1\n      sstore\n      pop\n        /* \"contracts/1_Storage.sol\":1894:1903  _contents */\n      dup3\n        /* \"contracts/1_Storage.sol\":1875:1883  contents */\n      0x05\n        /* \"contracts/1_Storage.sol\":1875:1891  contents[_keyID] */\n      0x00\n        /* \"contracts/1_Storage.sol\":1884:1890  _keyID */\n      dup4\n        /* \"contracts/1_Storage.sol\":1875:1891  contents[_keyID] */\n      dup2\n      mstore\n      0x20\n      add\n      swap1\n      dup2\n      mstore\n      0x20\n      add\n      0x00\n      keccak256\n        /* \"contracts/1_Storage.sol\":1875:1903  contents[_keyID] = _contents */\n      dup2\n      swap1\n      sstore\n      pop\n        /* \"contracts/1_Storage.sol\":1940:1952  _messageDate */\n      dup2\n        /* \"contracts/1_Storage.sol\":1917:1929  messageDates */\n      0x08\n        /* \"contracts/1_Storage.sol\":1917:1937  messageDates[_keyID] */\n      0x00\n        /* \"contracts/1_Storage.sol\":1930:1936  _keyID */\n      dup4\n        /* \"contracts/1_Storage.sol\":1917:1937  messageDates[_keyID] */\n      dup2\n      mstore\n      0x20\n      add\n      swap1\n      dup2\n      mstore\n      0x20\n      add\n      0x00\n      keccak256\n        /* \"contracts/1_Storage.sol\":1917:1952  messageDates[_keyID] = _messageDate */\n      swap1\n      dup1\n      mload\n      swap1\n      0x20\n      add\n      swap1\n      tag_212\n      swap3\n      swap2\n      swap1\n      tag_213\n      jump\t// in\n    tag_212:\n      pop\n        /* \"contracts/1_Storage.sol\":1993:1994  0 */\n      0x00\n        /* \"contracts/1_Storage.sol\":1966:1978  numApprovals */\n      0x06\n        /* \"contracts/1_Storage.sol\":1966:1990  numApprovals[_messageID] */\n      0x00\n        /* \"contracts/1_Storage.sol\":1979:1989  _messageID */\n      dup9\n        /* \"contracts/1_Storage.sol\":1966:1990  numApprovals[_messageID] */\n      dup2\n      mstore\n      0x20\n      add\n      swap1\n      dup2\n      mstore\n      0x20\n      add\n      0x00\n      keccak256\n        /* \"contracts/1_Storage.sol\":1966:1994  numApprovals[_messageID] = 0 */\n      dup2\n      swap1\n      sstore\n      pop\n        /* \"contracts/1_Storage.sol\":2033:2043  msg.sender */\n      caller\n        /* \"contracts/1_Storage.sol\":2008:2018  initiators */\n      0x00\n        /* \"contracts/1_Storage.sol\":2008:2030  initiators[_messageID] */\n      dup1\n        /* \"contracts/1_Storage.sol\":2019:2029  _messageID */\n      dup9\n        /* \"contracts/1_Storage.sol\":2008:2030  initiators[_messageID] */\n      dup2\n      mstore\n      0x20\n      add\n      swap1\n      dup2\n      mstore\n      0x20\n      add\n      0x00\n      keccak256\n      0x00\n        /* \"contracts/1_Storage.sol\":2008:2043  initiators[_messageID] = msg.sender */\n      0x0100\n      exp\n      dup2\n      sload\n      dup2\n      0xffffffffffffffffffffffffffffffffffffffff\n      mul\n      not\n      and\n      swap1\n      dup4\n      0xffffffffffffffffffffffffffffffffffffffff\n      and\n      mul\n      or\n      swap1\n      sstore\n      pop\n        /* \"contracts/1_Storage.sol\":1124:2051  function createContract(bytes32 _messageID, uint256 expiry, uint256 requiredPercentage,bytes32 _contents,... */\n      pop\n      pop\n      pop\n      pop\n      pop\n      pop\n      jump\t// out\n        /* \"contracts/1_Storage.sol\":401:444  mapping(bytes32=>address) public initiators */\n    tag_109:\n      mstore(0x20, 0x00)\n      dup1\n      0x00\n      mstore\n      keccak256(0x00, 0x40)\n      0x00\n      swap2\n      pop\n      sload\n      swap1\n      0x0100\n      exp\n      swap1\n      div\n      0xffffffffffffffffffffffffffffffffffffffff\n      and\n      dup2\n      jump\t// out\n        /* \"contracts/1_Storage.sol\":2976:3699  function RegisterVoter(address voter,bytes32 _messageID) external {... */\n    tag_114:\n        /* \"contracts/1_Storage.sol\":3160:3170  initiators */\n      0x00\n        /* \"contracts/1_Storage.sol\":3160:3182  initiators[_messageID] */\n      dup1\n        /* \"contracts/1_Storage.sol\":3171:3181  _messageID */\n      dup3\n        /* \"contracts/1_Storage.sol\":3160:3182  initiators[_messageID] */\n      dup2\n      mstore\n      0x20\n      add\n      swap1\n      dup2\n      mstore\n      0x20\n      add\n      0x00\n      keccak256\n      0x00\n      swap1\n      sload\n      swap1\n      0x0100\n      exp\n      swap1\n      div\n      0xffffffffffffffffffffffffffffffffffffffff\n      and\n        /* \"contracts/1_Storage.sol\":3146:3182  msg.sender == initiators[_messageID] */\n      0xffffffffffffffffffffffffffffffffffffffff\n      and\n        /* \"contracts/1_Storage.sol\":3146:3156  msg.sender */\n      caller\n        /* \"contracts/1_Storage.sol\":3146:3182  msg.sender == initiators[_messageID] */\n      0xffffffffffffffffffffffffffffffffffffffff\n      and\n      eq\n        /* \"contracts/1_Storage.sol\":3125:3248  require(... */\n      tag_215\n      jumpi\n      mload(0x40)\n      0x08c379a000000000000000000000000000000000000000000000000000000000\n      dup2\n      mstore\n      0x04\n      add\n      tag_216\n      swap1\n      tag_217\n      jump\t// in\n    tag_216:\n      mload(0x40)\n      dup1\n      swap2\n      sub\n      swap1\n      revert\n    tag_215:\n        /* \"contracts/1_Storage.sol\":3275:3285  initiators */\n      0x00\n        /* \"contracts/1_Storage.sol\":3275:3297  initiators[_messageID] */\n      dup1\n        /* \"contracts/1_Storage.sol\":3286:3296  _messageID */\n      dup3\n        /* \"contracts/1_Storage.sol\":3275:3297  initiators[_messageID] */\n      dup2\n      mstore\n      0x20\n      add\n      swap1\n      dup2\n      mstore\n      0x20\n      add\n      0x00\n      keccak256\n      0x00\n      swap1\n      sload\n      swap1\n      0x0100\n      exp\n      swap1\n      div\n      0xffffffffffffffffffffffffffffffffffffffff\n      and\n        /* \"contracts/1_Storage.sol\":3266:3297  voter != initiators[_messageID] */\n      0xffffffffffffffffffffffffffffffffffffffff\n      and\n        /* \"contracts/1_Storage.sol\":3266:3271  voter */\n      dup3\n        /* \"contracts/1_Storage.sol\":3266:3297  voter != initiators[_messageID] */\n      0xffffffffffffffffffffffffffffffffffffffff\n      and\n      eq\n      iszero\n        /* \"contracts/1_Storage.sol\":3258:3323  require(voter != initiators[_messageID], \"Initiator can't vote!\") */\n      tag_218\n      jumpi\n      mload(0x40)\n      0x08c379a000000000000000000000000000000000000000000000000000000000\n      dup2\n      mstore\n      0x04\n      add\n      tag_219\n      swap1\n      tag_220\n      jump\t// in\n    tag_219:\n      mload(0x40)\n      dup1\n      swap2\n      sub\n      swap1\n      revert\n    tag_218:\n        /* \"contracts/1_Storage.sol\":3393:3394  0 */\n      0x00\n        /* \"contracts/1_Storage.sol\":3342:3395  voter_maps[_messageID][voter].recipient == address(0) */\n      0xffffffffffffffffffffffffffffffffffffffff\n      and\n        /* \"contracts/1_Storage.sol\":3342:3352  voter_maps */\n      0x0b\n        /* \"contracts/1_Storage.sol\":3342:3364  voter_maps[_messageID] */\n      0x00\n        /* \"contracts/1_Storage.sol\":3353:3363  _messageID */\n      dup4\n        /* \"contracts/1_Storage.sol\":3342:3364  voter_maps[_messageID] */\n      dup2\n      mstore\n      0x20\n      add\n      swap1\n      dup2\n      mstore\n      0x20\n      add\n      0x00\n      keccak256\n        /* \"contracts/1_Storage.sol\":3342:3371  voter_maps[_messageID][voter] */\n      0x00\n        /* \"contracts/1_Storage.sol\":3365:3370  voter */\n      dup5\n        /* \"contracts/1_Storage.sol\":3342:3371  voter_maps[_messageID][voter] */\n      0xffffffffffffffffffffffffffffffffffffffff\n      and\n      0xffffffffffffffffffffffffffffffffffffffff\n      and\n      dup2\n      mstore\n      0x20\n      add\n      swap1\n      dup2\n      mstore\n      0x20\n      add\n      0x00\n      keccak256\n        /* \"contracts/1_Storage.sol\":3342:3381  voter_maps[_messageID][voter].recipient */\n      0x00\n      add\n      0x02\n      swap1\n      sload\n      swap1\n      0x0100\n      exp\n      swap1\n      div\n      0xffffffffffffffffffffffffffffffffffffffff\n      and\n        /* \"contracts/1_Storage.sol\":3342:3395  voter_maps[_messageID][voter].recipient == address(0) */\n      0xffffffffffffffffffffffffffffffffffffffff\n      and\n      eq\n        /* \"contracts/1_Storage.sol\":3334:3431  require(voter_maps[_messageID][voter].recipient == address(0), \"Recipient is already registered\") */\n      tag_221\n      jumpi\n      mload(0x40)\n      0x08c379a000000000000000000000000000000000000000000000000000000000\n      dup2\n      mstore\n      0x04\n      add\n      tag_222\n      swap1\n      tag_223\n      jump\t// in\n    tag_222:\n      mload(0x40)\n      dup1\n      swap2\n      sub\n      swap1\n      revert\n    tag_221:\n        /* \"contracts/1_Storage.sol\":3468:3479  expiryDates */\n      0x04\n        /* \"contracts/1_Storage.sol\":3468:3491  expiryDates[_messageID] */\n      0x00\n        /* \"contracts/1_Storage.sol\":3480:3490  _messageID */\n      dup3\n        /* \"contracts/1_Storage.sol\":3468:3491  expiryDates[_messageID] */\n      dup2\n      mstore\n      0x20\n      add\n      swap1\n      dup2\n      mstore\n      0x20\n      add\n      0x00\n      keccak256\n      sload\n        /* \"contracts/1_Storage.sol\":3450:3465  block.timestamp */\n      timestamp\n        /* \"contracts/1_Storage.sol\":3450:3491  block.timestamp < expiryDates[_messageID] */\n      lt\n        /* \"contracts/1_Storage.sol\":3442:3532  require(block.timestamp < expiryDates[_messageID], \"Proposal has reached its expiry date\") */\n      tag_224\n      jumpi\n      mload(0x40)\n      0x08c379a000000000000000000000000000000000000000000000000000000000\n      dup2\n      mstore\n      0x04\n      add\n      tag_225\n      swap1\n      tag_226\n      jump\t// in\n    tag_225:\n      mload(0x40)\n      dup1\n      swap2\n      sub\n      swap1\n      revert\n    tag_224:\n        /* \"contracts/1_Storage.sol\":3543:3557  Voter memory x */\n      0x00\n        /* \"contracts/1_Storage.sol\":3560:3611  Voter({voted: false,recipient: voter, vote: false}) */\n      mload(0x40)\n      dup1\n      0x60\n      add\n      0x40\n      mstore\n      dup1\n        /* \"contracts/1_Storage.sol\":3574:3579  false */\n      0x00\n        /* \"contracts/1_Storage.sol\":3560:3611  Voter({voted: false,recipient: voter, vote: false}) */\n      iszero\n      iszero\n      dup2\n      mstore\n      0x20\n      add\n        /* \"contracts/1_Storage.sol\":3604:3609  false */\n      0x00\n        /* \"contracts/1_Storage.sol\":3560:3611  Voter({voted: false,recipient: voter, vote: false}) */\n      iszero\n      iszero\n      dup2\n      mstore\n      0x20\n      add\n        /* \"contracts/1_Storage.sol\":3591:3596  voter */\n      dup5\n        /* \"contracts/1_Storage.sol\":3560:3611  Voter({voted: false,recipient: voter, vote: false}) */\n      0xffffffffffffffffffffffffffffffffffffffff\n      and\n      dup2\n      mstore\n      pop\n        /* \"contracts/1_Storage.sol\":3543:3611  Voter memory x = Voter({voted: false,recipient: voter, vote: false}) */\n      swap1\n      pop\n        /* \"contracts/1_Storage.sol\":3653:3654  x */\n      dup1\n        /* \"contracts/1_Storage.sol\":3621:3631  voter_maps */\n      0x0b\n        /* \"contracts/1_Storage.sol\":3621:3643  voter_maps[_messageID] */\n      0x00\n        /* \"contracts/1_Storage.sol\":3632:3642  _messageID */\n      dup5\n        /* \"contracts/1_Storage.sol\":3621:3643  voter_maps[_messageID] */\n      dup2\n      mstore\n      0x20\n      add\n      swap1\n      dup2\n      mstore\n      0x20\n      add\n      0x00\n      keccak256\n        /* \"contracts/1_Storage.sol\":3621:3650  voter_maps[_messageID][voter] */\n      0x00\n        /* \"contracts/1_Storage.sol\":3644:3649  voter */\n      dup6\n        /* \"contracts/1_Storage.sol\":3621:3650  voter_maps[_messageID][voter] */\n      0xffffffffffffffffffffffffffffffffffffffff\n      and\n      0xffffffffffffffffffffffffffffffffffffffff\n      and\n      dup2\n      mstore\n      0x20\n      add\n      swap1\n      dup2\n      mstore\n      0x20\n      add\n      0x00\n      keccak256\n        /* \"contracts/1_Storage.sol\":3621:3654  voter_maps[_messageID][voter] = x */\n      0x00\n      dup3\n      add\n      mload\n      dup2\n      0x00\n      add\n      exp(0x0100, 0x00)\n      dup2\n      sload\n      dup2\n      0xff\n      mul\n      not\n      and\n      swap1\n      dup4\n      iszero\n      iszero\n      mul\n      or\n      swap1\n      sstore\n      pop\n      0x20\n      dup3\n      add\n      mload\n      dup2\n      0x00\n      add\n      exp(0x0100, 0x01)\n      dup2\n      sload\n      dup2\n      0xff\n      mul\n      not\n      and\n      swap1\n      dup4\n      iszero\n      iszero\n      mul\n      or\n      swap1\n      sstore\n      pop\n      0x40\n      dup3\n      add\n      mload\n      dup2\n      0x00\n      add\n      exp(0x0100, 0x02)\n      dup2\n      sload\n      dup2\n      0xffffffffffffffffffffffffffffffffffffffff\n      mul\n      not\n      and\n      swap1\n      dup4\n      0xffffffffffffffffffffffffffffffffffffffff\n      and\n      mul\n      or\n      swap1\n      sstore\n      pop\n      swap1\n      pop\n      pop\n        /* \"contracts/1_Storage.sol\":3664:3668  keys */\n      0x0d\n        /* \"contracts/1_Storage.sol\":3664:3680  keys[_messageID] */\n      0x00\n        /* \"contracts/1_Storage.sol\":3669:3679  _messageID */\n      dup4\n        /* \"contracts/1_Storage.sol\":3664:3680  keys[_messageID] */\n      dup2\n      mstore\n      0x20\n      add\n      swap1\n      dup2\n      mstore\n      0x20\n      add\n      0x00\n      keccak256\n        /* \"contracts/1_Storage.sol\":3686:3691  voter */\n      dup4\n        /* \"contracts/1_Storage.sol\":3664:3692  keys[_messageID].push(voter) */\n      swap1\n      dup1\n      0x01\n      dup2\n      sload\n      add\n      dup1\n      dup3\n      sstore\n      dup1\n      swap2\n      pop\n      pop\n      0x01\n      swap1\n      sub\n      swap1\n      0x00\n      mstore\n      keccak256(0x00, 0x20)\n      add\n      0x00\n      swap1\n      swap2\n      swap1\n      swap2\n      swap1\n      swap2\n      0x0100\n      exp\n      dup2\n      sload\n      dup2\n      0xffffffffffffffffffffffffffffffffffffffff\n      mul\n      not\n      and\n      swap1\n      dup4\n      0xffffffffffffffffffffffffffffffffffffffff\n      and\n      mul\n      or\n      swap1\n      sstore\n      pop\n        /* \"contracts/1_Storage.sol\":3042:3699  {... */\n      pop\n        /* \"contracts/1_Storage.sol\":2976:3699  function RegisterVoter(address voter,bytes32 _messageID) external {... */\n      pop\n      pop\n      jump\t// out\n        /* \"contracts/1_Storage.sol\":699:746  mapping(bytes32 => uint256) public numApprovals */\n    tag_117:\n      mstore(0x20, 0x06)\n      dup1\n      0x00\n      mstore\n      keccak256(0x00, 0x40)\n      0x00\n      swap2\n      pop\n      swap1\n      pop\n      sload\n      dup2\n      jump\t// out\n        /* \"contracts/1_Storage.sol\":450:487  mapping(bytes32 =>bytes32) public IDs */\n    tag_121:\n      mstore(0x20, 0x01)\n      dup1\n      0x00\n      mstore\n      keccak256(0x00, 0x40)\n      0x00\n      swap2\n      pop\n      swap1\n      pop\n      sload\n      dup2\n      jump\t// out\n        /* \"contracts/1_Storage.sol\":650:693  mapping(bytes32 => bytes32) public contents */\n    tag_126:\n      mstore(0x20, 0x05)\n      dup1\n      0x00\n      mstore\n      keccak256(0x00, 0x40)\n      0x00\n      swap2\n      pop\n      swap1\n      pop\n      sload\n      dup2\n      jump\t// out\n    tag_213:\n      dup3\n      dup1\n      sload\n      tag_228\n      swap1\n      tag_197\n      jump\t// in\n    tag_228:\n      swap1\n      0x00\n      mstore\n      keccak256(0x00, 0x20)\n      swap1\n      0x1f\n      add\n      0x20\n      swap1\n      div\n      dup2\n      add\n      swap3\n      dup3\n      tag_230\n      jumpi\n      0x00\n      dup6\n      sstore\n      jump(tag_229)\n    tag_230:\n      dup3\n      0x1f\n      lt\n      tag_231\n      jumpi\n      dup1\n      mload\n      not(0xff)\n      and\n      dup4\n      dup1\n      add\n      or\n      dup6\n      sstore\n      jump(tag_229)\n    tag_231:\n      dup3\n      dup1\n      add\n      0x01\n      add\n      dup6\n      sstore\n      dup3\n      iszero\n      tag_229\n      jumpi\n      swap2\n      dup3\n      add\n    tag_232:\n      dup3\n      dup2\n      gt\n      iszero\n      tag_233\n      jumpi\n      dup3\n      mload\n      dup3\n      sstore\n      swap2\n      0x20\n      add\n      swap2\n      swap1\n      0x01\n      add\n      swap1\n      jump(tag_232)\n    tag_233:\n    tag_229:\n      pop\n      swap1\n      pop\n      tag_234\n      swap2\n      swap1\n      tag_235\n      jump\t// in\n    tag_234:\n      pop\n      swap1\n      jump\t// out\n    tag_235:\n    tag_236:\n      dup1\n      dup3\n      gt\n      iszero\n      tag_237\n      jumpi\n      0x00\n      dup2\n      0x00\n      swap1\n      sstore\n      pop\n      0x01\n      add\n      jump(tag_236)\n    tag_237:\n      pop\n      swap1\n      jump\t// out\n        /* \"#utility.yul\":7:419   */\n    tag_239:\n        /* \"#utility.yul\":85:90   */\n      0x00\n        /* \"#utility.yul\":110:176   */\n      tag_241\n        /* \"#utility.yul\":126:175   */\n      tag_242\n        /* \"#utility.yul\":168:174   */\n      dup5\n        /* \"#utility.yul\":126:175   */\n      tag_243\n      jump\t// in\n    tag_242:\n        /* \"#utility.yul\":110:176   */\n      tag_244\n      jump\t// in\n    tag_241:\n        /* \"#utility.yul\":101:176   */\n      swap1\n      pop\n        /* \"#utility.yul\":199:205   */\n      dup3\n        /* \"#utility.yul\":192:197   */\n      dup2\n        /* \"#utility.yul\":185:206   */\n      mstore\n        /* \"#utility.yul\":237:241   */\n      0x20\n        /* \"#utility.yul\":230:235   */\n      dup2\n        /* \"#utility.yul\":226:242   */\n      add\n        /* \"#utility.yul\":275:278   */\n      dup5\n        /* \"#utility.yul\":266:272   */\n      dup5\n        /* \"#utility.yul\":261:264   */\n      dup5\n        /* \"#utility.yul\":257:273   */\n      add\n        /* \"#utility.yul\":254:279   */\n      gt\n        /* \"#utility.yul\":251:363   */\n      iszero\n      tag_245\n      jumpi\n        /* \"#utility.yul\":282:361   */\n      tag_246\n      tag_247\n      jump\t// in\n    tag_246:\n        /* \"#utility.yul\":251:363   */\n    tag_245:\n        /* \"#utility.yul\":372:413   */\n      tag_248\n        /* \"#utility.yul\":406:412   */\n      dup5\n        /* \"#utility.yul\":401:404   */\n      dup3\n        /* \"#utility.yul\":396:399   */\n      dup6\n        /* \"#utility.yul\":372:413   */\n      tag_249\n      jump\t// in\n    tag_248:\n        /* \"#utility.yul\":91:419   */\n      pop\n        /* \"#utility.yul\":7:419   */\n      swap4\n      swap3\n      pop\n      pop\n      pop\n      jump\t// out\n        /* \"#utility.yul\":425:564   */\n    tag_250:\n        /* \"#utility.yul\":471:476   */\n      0x00\n        /* \"#utility.yul\":509:515   */\n      dup2\n        /* \"#utility.yul\":496:516   */\n      calldataload\n        /* \"#utility.yul\":487:516   */\n      swap1\n      pop\n        /* \"#utility.yul\":525:558   */\n      tag_252\n        /* \"#utility.yul\":552:557   */\n      dup2\n        /* \"#utility.yul\":525:558   */\n      tag_253\n      jump\t// in\n    tag_252:\n        /* \"#utility.yul\":425:564   */\n      swap3\n      swap2\n      pop\n      pop\n      jump\t// out\n        /* \"#utility.yul\":570:709   */\n    tag_254:\n        /* \"#utility.yul\":616:621   */\n      0x00\n        /* \"#utility.yul\":654:660   */\n      dup2\n        /* \"#utility.yul\":641:661   */\n      calldataload\n        /* \"#utility.yul\":632:661   */\n      swap1\n      pop\n        /* \"#utility.yul\":670:703   */\n      tag_256\n        /* \"#utility.yul\":697:702   */\n      dup2\n        /* \"#utility.yul\":670:703   */\n      tag_257\n      jump\t// in\n    tag_256:\n        /* \"#utility.yul\":570:709   */\n      swap3\n      swap2\n      pop\n      pop\n      jump\t// out\n        /* \"#utility.yul\":729:1069   */\n    tag_258:\n        /* \"#utility.yul\":785:790   */\n      0x00\n        /* \"#utility.yul\":834:837   */\n      dup3\n        /* \"#utility.yul\":827:831   */\n      0x1f\n        /* \"#utility.yul\":819:825   */\n      dup4\n        /* \"#utility.yul\":815:832   */\n      add\n        /* \"#utility.yul\":811:838   */\n      slt\n        /* \"#utility.yul\":801:923   */\n      tag_260\n      jumpi\n        /* \"#utility.yul\":842:921   */\n      tag_261\n      tag_262\n      jump\t// in\n    tag_261:\n        /* \"#utility.yul\":801:923   */\n    tag_260:\n        /* \"#utility.yul\":959:965   */\n      dup2\n        /* \"#utility.yul\":946:966   */\n      calldataload\n        /* \"#utility.yul\":984:1063   */\n      tag_263\n        /* \"#utility.yul\":1059:1062   */\n      dup5\n        /* \"#utility.yul\":1051:1057   */\n      dup3\n        /* \"#utility.yul\":1044:1048   */\n      0x20\n        /* \"#utility.yul\":1036:1042   */\n      dup7\n        /* \"#utility.yul\":1032:1049   */\n      add\n        /* \"#utility.yul\":984:1063   */\n      tag_239\n      jump\t// in\n    tag_263:\n        /* \"#utility.yul\":975:1063   */\n      swap2\n      pop\n        /* \"#utility.yul\":791:1069   */\n      pop\n        /* \"#utility.yul\":729:1069   */\n      swap3\n      swap2\n      pop\n      pop\n      jump\t// out\n        /* \"#utility.yul\":1075:1214   */\n    tag_264:\n        /* \"#utility.yul\":1121:1126   */\n      0x00\n        /* \"#utility.yul\":1159:1165   */\n      dup2\n        /* \"#utility.yul\":1146:1166   */\n      calldataload\n        /* \"#utility.yul\":1137:1166   */\n      swap1\n      pop\n        /* \"#utility.yul\":1175:1208   */\n      tag_266\n        /* \"#utility.yul\":1202:1207   */\n      dup2\n        /* \"#utility.yul\":1175:1208   */\n      tag_267\n      jump\t// in\n    tag_266:\n        /* \"#utility.yul\":1075:1214   */\n      swap3\n      swap2\n      pop\n      pop\n      jump\t// out\n        /* \"#utility.yul\":1220:1694   */\n    tag_113:\n        /* \"#utility.yul\":1288:1294   */\n      0x00\n        /* \"#utility.yul\":1296:1302   */\n      dup1\n        /* \"#utility.yul\":1345:1347   */\n      0x40\n        /* \"#utility.yul\":1333:1342   */\n      dup4\n        /* \"#utility.yul\":1324:1331   */\n      dup6\n        /* \"#utility.yul\":1320:1343   */\n      sub\n        /* \"#utility.yul\":1316:1348   */\n      slt\n        /* \"#utility.yul\":1313:1432   */\n      iszero\n      tag_269\n      jumpi\n        /* \"#utility.yul\":1351:1430   */\n      tag_270\n      tag_271\n      jump\t// in\n    tag_270:\n        /* \"#utility.yul\":1313:1432   */\n    tag_269:\n        /* \"#utility.yul\":1471:1472   */\n      0x00\n        /* \"#utility.yul\":1496:1549   */\n      tag_272\n        /* \"#utility.yul\":1541:1548   */\n      dup6\n        /* \"#utility.yul\":1532:1538   */\n      dup3\n        /* \"#utility.yul\":1521:1530   */\n      dup7\n        /* \"#utility.yul\":1517:1539   */\n      add\n        /* \"#utility.yul\":1496:1549   */\n      tag_250\n      jump\t// in\n    tag_272:\n        /* \"#utility.yul\":1486:1549   */\n      swap3\n      pop\n        /* \"#utility.yul\":1442:1559   */\n      pop\n        /* \"#utility.yul\":1598:1600   */\n      0x20\n        /* \"#utility.yul\":1624:1677   */\n      tag_273\n        /* \"#utility.yul\":1669:1676   */\n      dup6\n        /* \"#utility.yul\":1660:1666   */\n      dup3\n        /* \"#utility.yul\":1649:1658   */\n      dup7\n        /* \"#utility.yul\":1645:1667   */\n      add\n        /* \"#utility.yul\":1624:1677   */\n      tag_254\n      jump\t// in\n    tag_273:\n        /* \"#utility.yul\":1614:1677   */\n      swap2\n      pop\n        /* \"#utility.yul\":1569:1687   */\n      pop\n        /* \"#utility.yul\":1220:1694   */\n      swap3\n      pop\n      swap3\n      swap1\n      pop\n      jump\t// out\n        /* \"#utility.yul\":1700:2029   */\n    tag_30:\n        /* \"#utility.yul\":1759:1765   */\n      0x00\n        /* \"#utility.yul\":1808:1810   */\n      0x20\n        /* \"#utility.yul\":1796:1805   */\n      dup3\n        /* \"#utility.yul\":1787:1794   */\n      dup5\n        /* \"#utility.yul\":1783:1806   */\n      sub\n        /* \"#utility.yul\":1779:1811   */\n      slt\n        /* \"#utility.yul\":1776:1895   */\n      iszero\n      tag_275\n      jumpi\n        /* \"#utility.yul\":1814:1893   */\n      tag_276\n      tag_271\n      jump\t// in\n    tag_276:\n        /* \"#utility.yul\":1776:1895   */\n    tag_275:\n        /* \"#utility.yul\":1934:1935   */\n      0x00\n        /* \"#utility.yul\":1959:2012   */\n      tag_277\n        /* \"#utility.yul\":2004:2011   */\n      dup5\n        /* \"#utility.yul\":1995:2001   */\n      dup3\n        /* \"#utility.yul\":1984:1993   */\n      dup6\n        /* \"#utility.yul\":1980:2002   */\n      add\n        /* \"#utility.yul\":1959:2012   */\n      tag_254\n      jump\t// in\n    tag_277:\n        /* \"#utility.yul\":1949:2012   */\n      swap2\n      pop\n        /* \"#utility.yul\":1905:2022   */\n      pop\n        /* \"#utility.yul\":1700:2029   */\n      swap3\n      swap2\n      pop\n      pop\n      jump\t// out\n        /* \"#utility.yul\":2035:2509   */\n    tag_100:\n        /* \"#utility.yul\":2103:2109   */\n      0x00\n        /* \"#utility.yul\":2111:2117   */\n      dup1\n        /* \"#utility.yul\":2160:2162   */\n      0x40\n        /* \"#utility.yul\":2148:2157   */\n      dup4\n        /* \"#utility.yul\":2139:2146   */\n      dup6\n        /* \"#utility.yul\":2135:2158   */\n      sub\n        /* \"#utility.yul\":2131:2163   */\n      slt\n        /* \"#utility.yul\":2128:2247   */\n      iszero\n      tag_279\n      jumpi\n        /* \"#utility.yul\":2166:2245   */\n      tag_280\n      tag_271\n      jump\t// in\n    tag_280:\n        /* \"#utility.yul\":2128:2247   */\n    tag_279:\n        /* \"#utility.yul\":2286:2287   */\n      0x00\n        /* \"#utility.yul\":2311:2364   */\n      tag_281\n        /* \"#utility.yul\":2356:2363   */\n      dup6\n        /* \"#utility.yul\":2347:2353   */\n      dup3\n        /* \"#utility.yul\":2336:2345   */\n      dup7\n        /* \"#utility.yul\":2332:2354   */\n      add\n        /* \"#utility.yul\":2311:2364   */\n      tag_254\n      jump\t// in\n    tag_281:\n        /* \"#utility.yul\":2301:2364   */\n      swap3\n      pop\n        /* \"#utility.yul\":2257:2374   */\n      pop\n        /* \"#utility.yul\":2413:2415   */\n      0x20\n        /* \"#utility.yul\":2439:2492   */\n      tag_282\n        /* \"#utility.yul\":2484:2491   */\n      dup6\n        /* \"#utility.yul\":2475:2481   */\n      dup3\n        /* \"#utility.yul\":2464:2473   */\n      dup7\n        /* \"#utility.yul\":2460:2482   */\n      add\n        /* \"#utility.yul\":2439:2492   */\n      tag_250\n      jump\t// in\n    tag_282:\n        /* \"#utility.yul\":2429:2492   */\n      swap2\n      pop\n        /* \"#utility.yul\":2384:2502   */\n      pop\n        /* \"#utility.yul\":2035:2509   */\n      swap3\n      pop\n      swap3\n      swap1\n      pop\n      jump\t// out\n        /* \"#utility.yul\":2515:2989   */\n    tag_52:\n        /* \"#utility.yul\":2583:2589   */\n      0x00\n        /* \"#utility.yul\":2591:2597   */\n      dup1\n        /* \"#utility.yul\":2640:2642   */\n      0x40\n        /* \"#utility.yul\":2628:2637   */\n      dup4\n        /* \"#utility.yul\":2619:2626   */\n      dup6\n        /* \"#utility.yul\":2615:2638   */\n      sub\n        /* \"#utility.yul\":2611:2643   */\n      slt\n        /* \"#utility.yul\":2608:2727   */\n      iszero\n      tag_284\n      jumpi\n        /* \"#utility.yul\":2646:2725   */\n      tag_285\n      tag_271\n      jump\t// in\n    tag_285:\n        /* \"#utility.yul\":2608:2727   */\n    tag_284:\n        /* \"#utility.yul\":2766:2767   */\n      0x00\n        /* \"#utility.yul\":2791:2844   */\n      tag_286\n        /* \"#utility.yul\":2836:2843   */\n      dup6\n        /* \"#utility.yul\":2827:2833   */\n      dup3\n        /* \"#utility.yul\":2816:2825   */\n      dup7\n        /* \"#utility.yul\":2812:2834   */\n      add\n        /* \"#utility.yul\":2791:2844   */\n      tag_254\n      jump\t// in\n    tag_286:\n        /* \"#utility.yul\":2781:2844   */\n      swap3\n      pop\n        /* \"#utility.yul\":2737:2854   */\n      pop\n        /* \"#utility.yul\":2893:2895   */\n      0x20\n        /* \"#utility.yul\":2919:2972   */\n      tag_287\n        /* \"#utility.yul\":2964:2971   */\n      dup6\n        /* \"#utility.yul\":2955:2961   */\n      dup3\n        /* \"#utility.yul\":2944:2953   */\n      dup7\n        /* \"#utility.yul\":2940:2962   */\n      add\n        /* \"#utility.yul\":2919:2972   */\n      tag_264\n      jump\t// in\n    tag_287:\n        /* \"#utility.yul\":2909:2972   */\n      swap2\n      pop\n        /* \"#utility.yul\":2864:2982   */\n      pop\n        /* \"#utility.yul\":2515:2989   */\n      swap3\n      pop\n      swap3\n      swap1\n      pop\n      jump\t// out\n        /* \"#utility.yul\":2995:3760   */\n    tag_41:\n        /* \"#utility.yul\":3081:3087   */\n      0x00\n        /* \"#utility.yul\":3089:3095   */\n      dup1\n        /* \"#utility.yul\":3097:3103   */\n      0x00\n        /* \"#utility.yul\":3105:3111   */\n      dup1\n        /* \"#utility.yul\":3154:3157   */\n      0x80\n        /* \"#utility.yul\":3142:3151   */\n      dup6\n        /* \"#utility.yul\":3133:3140   */\n      dup8\n        /* \"#utility.yul\":3129:3152   */\n      sub\n        /* \"#utility.yul\":3125:3158   */\n      slt\n        /* \"#utility.yul\":3122:3242   */\n      iszero\n      tag_289\n      jumpi\n        /* \"#utility.yul\":3161:3240   */\n      tag_290\n      tag_271\n      jump\t// in\n    tag_290:\n        /* \"#utility.yul\":3122:3242   */\n    tag_289:\n        /* \"#utility.yul\":3281:3282   */\n      0x00\n        /* \"#utility.yul\":3306:3359   */\n      tag_291\n        /* \"#utility.yul\":3351:3358   */\n      dup8\n        /* \"#utility.yul\":3342:3348   */\n      dup3\n        /* \"#utility.yul\":3331:3340   */\n      dup9\n        /* \"#utility.yul\":3327:3349   */\n      add\n        /* \"#utility.yul\":3306:3359   */\n      tag_254\n      jump\t// in\n    tag_291:\n        /* \"#utility.yul\":3296:3359   */\n      swap5\n      pop\n        /* \"#utility.yul\":3252:3369   */\n      pop\n        /* \"#utility.yul\":3408:3410   */\n      0x20\n        /* \"#utility.yul\":3434:3487   */\n      tag_292\n        /* \"#utility.yul\":3479:3486   */\n      dup8\n        /* \"#utility.yul\":3470:3476   */\n      dup3\n        /* \"#utility.yul\":3459:3468   */\n      dup9\n        /* \"#utility.yul\":3455:3477   */\n      add\n        /* \"#utility.yul\":3434:3487   */\n      tag_264\n      jump\t// in\n    tag_292:\n        /* \"#utility.yul\":3424:3487   */\n      swap4\n      pop\n        /* \"#utility.yul\":3379:3497   */\n      pop\n        /* \"#utility.yul\":3536:3538   */\n      0x40\n        /* \"#utility.yul\":3562:3615   */\n      tag_293\n        /* \"#utility.yul\":3607:3614   */\n      dup8\n        /* \"#utility.yul\":3598:3604   */\n      dup3\n        /* \"#utility.yul\":3587:3596   */\n      dup9\n        /* \"#utility.yul\":3583:3605   */\n      add\n        /* \"#utility.yul\":3562:3615   */\n      tag_264\n      jump\t// in\n    tag_293:\n        /* \"#utility.yul\":3552:3615   */\n      swap3\n      pop\n        /* \"#utility.yul\":3507:3625   */\n      pop\n        /* \"#utility.yul\":3664:3666   */\n      0x60\n        /* \"#utility.yul\":3690:3743   */\n      tag_294\n        /* \"#utility.yul\":3735:3742   */\n      dup8\n        /* \"#utility.yul\":3726:3732   */\n      dup3\n        /* \"#utility.yul\":3715:3724   */\n      dup9\n        /* \"#utility.yul\":3711:3733   */\n      add\n        /* \"#utility.yul\":3690:3743   */\n      tag_254\n      jump\t// in\n    tag_294:\n        /* \"#utility.yul\":3680:3743   */\n      swap2\n      pop\n        /* \"#utility.yul\":3635:3753   */\n      pop\n        /* \"#utility.yul\":2995:3760   */\n      swap3\n      swap6\n      swap2\n      swap5\n      pop\n      swap3\n      pop\n      jump\t// out\n        /* \"#utility.yul\":3766:5003   */\n    tag_105:\n        /* \"#utility.yul\":3880:3886   */\n      0x00\n        /* \"#utility.yul\":3888:3894   */\n      dup1\n        /* \"#utility.yul\":3896:3902   */\n      0x00\n        /* \"#utility.yul\":3904:3910   */\n      dup1\n        /* \"#utility.yul\":3912:3918   */\n      0x00\n        /* \"#utility.yul\":3920:3926   */\n      dup1\n        /* \"#utility.yul\":3969:3972   */\n      0xc0\n        /* \"#utility.yul\":3957:3966   */\n      dup8\n        /* \"#utility.yul\":3948:3955   */\n      dup10\n        /* \"#utility.yul\":3944:3967   */\n      sub\n        /* \"#utility.yul\":3940:3973   */\n      slt\n        /* \"#utility.yul\":3937:4057   */\n      iszero\n      tag_296\n      jumpi\n        /* \"#utility.yul\":3976:4055   */\n      tag_297\n      tag_271\n      jump\t// in\n    tag_297:\n        /* \"#utility.yul\":3937:4057   */\n    tag_296:\n        /* \"#utility.yul\":4096:4097   */\n      0x00\n        /* \"#utility.yul\":4121:4174   */\n      tag_298\n        /* \"#utility.yul\":4166:4173   */\n      dup10\n        /* \"#utility.yul\":4157:4163   */\n      dup3\n        /* \"#utility.yul\":4146:4155   */\n      dup11\n        /* \"#utility.yul\":4142:4164   */\n      add\n        /* \"#utility.yul\":4121:4174   */\n      tag_254\n      jump\t// in\n    tag_298:\n        /* \"#utility.yul\":4111:4174   */\n      swap7\n      pop\n        /* \"#utility.yul\":4067:4184   */\n      pop\n        /* \"#utility.yul\":4223:4225   */\n      0x20\n        /* \"#utility.yul\":4249:4302   */\n      tag_299\n        /* \"#utility.yul\":4294:4301   */\n      dup10\n        /* \"#utility.yul\":4285:4291   */\n      dup3\n        /* \"#utility.yul\":4274:4283   */\n      dup11\n        /* \"#utility.yul\":4270:4292   */\n      add\n        /* \"#utility.yul\":4249:4302   */\n      tag_264\n      jump\t// in\n    tag_299:\n        /* \"#utility.yul\":4239:4302   */\n      swap6\n      pop\n        /* \"#utility.yul\":4194:4312   */\n      pop\n        /* \"#utility.yul\":4351:4353   */\n      0x40\n        /* \"#utility.yul\":4377:4430   */\n      tag_300\n        /* \"#utility.yul\":4422:4429   */\n      dup10\n        /* \"#utility.yul\":4413:4419   */\n      dup3\n        /* \"#utility.yul\":4402:4411   */\n      dup11\n        /* \"#utility.yul\":4398:4420   */\n      add\n        /* \"#utility.yul\":4377:4430   */\n      tag_264\n      jump\t// in\n    tag_300:\n        /* \"#utility.yul\":4367:4430   */\n      swap5\n      pop\n        /* \"#utility.yul\":4322:4440   */\n      pop\n        /* \"#utility.yul\":4479:4481   */\n      0x60\n        /* \"#utility.yul\":4505:4558   */\n      tag_301\n        /* \"#utility.yul\":4550:4557   */\n      dup10\n        /* \"#utility.yul\":4541:4547   */\n      dup3\n        /* \"#utility.yul\":4530:4539   */\n      dup11\n        /* \"#utility.yul\":4526:4548   */\n      add\n        /* \"#utility.yul\":4505:4558   */\n      tag_254\n      jump\t// in\n    tag_301:\n        /* \"#utility.yul\":4495:4558   */\n      swap4\n      pop\n        /* \"#utility.yul\":4450:4568   */\n      pop\n        /* \"#utility.yul\":4635:4638   */\n      0x80\n        /* \"#utility.yul\":4624:4633   */\n      dup8\n        /* \"#utility.yul\":4620:4639   */\n      add\n        /* \"#utility.yul\":4607:4640   */\n      calldataload\n        /* \"#utility.yul\":4667:4685   */\n      0xffffffffffffffff\n        /* \"#utility.yul\":4659:4665   */\n      dup2\n        /* \"#utility.yul\":4656:4686   */\n      gt\n        /* \"#utility.yul\":4653:4770   */\n      iszero\n      tag_302\n      jumpi\n        /* \"#utility.yul\":4689:4768   */\n      tag_303\n      tag_304\n      jump\t// in\n    tag_303:\n        /* \"#utility.yul\":4653:4770   */\n    tag_302:\n        /* \"#utility.yul\":4794:4857   */\n      tag_305\n        /* \"#utility.yul\":4849:4856   */\n      dup10\n        /* \"#utility.yul\":4840:4846   */\n      dup3\n        /* \"#utility.yul\":4829:4838   */\n      dup11\n        /* \"#utility.yul\":4825:4847   */\n      add\n        /* \"#utility.yul\":4794:4857   */\n      tag_258\n      jump\t// in\n    tag_305:\n        /* \"#utility.yul\":4784:4857   */\n      swap3\n      pop\n        /* \"#utility.yul\":4578:4867   */\n      pop\n        /* \"#utility.yul\":4906:4909   */\n      0xa0\n        /* \"#utility.yul\":4933:4986   */\n      tag_306\n        /* \"#utility.yul\":4978:4985   */\n      dup10\n        /* \"#utility.yul\":4969:4975   */\n      dup3\n        /* \"#utility.yul\":4958:4967   */\n      dup11\n        /* \"#utility.yul\":4954:4976   */\n      add\n        /* \"#utility.yul\":4933:4986   */\n      tag_254\n      jump\t// in\n    tag_306:\n        /* \"#utility.yul\":4923:4986   */\n      swap2\n      pop\n        /* \"#utility.yul\":4877:4996   */\n      pop\n        /* \"#utility.yul\":3766:5003   */\n      swap3\n      swap6\n      pop\n      swap3\n      swap6\n      pop\n      swap3\n      swap6\n      jump\t// out\n        /* \"#utility.yul\":5009:5663   */\n    tag_86:\n        /* \"#utility.yul\":5087:5093   */\n      0x00\n        /* \"#utility.yul\":5095:5101   */\n      dup1\n        /* \"#utility.yul\":5144:5146   */\n      0x40\n        /* \"#utility.yul\":5132:5141   */\n      dup4\n        /* \"#utility.yul\":5123:5130   */\n      dup6\n        /* \"#utility.yul\":5119:5142   */\n      sub\n        /* \"#utility.yul\":5115:5147   */\n      slt\n        /* \"#utility.yul\":5112:5231   */\n      iszero\n      tag_308\n      jumpi\n        /* \"#utility.yul\":5150:5229   */\n      tag_309\n      tag_271\n      jump\t// in\n    tag_309:\n        /* \"#utility.yul\":5112:5231   */\n    tag_308:\n        /* \"#utility.yul\":5298:5299   */\n      0x00\n        /* \"#utility.yul\":5287:5296   */\n      dup4\n        /* \"#utility.yul\":5283:5300   */\n      add\n        /* \"#utility.yul\":5270:5301   */\n      calldataload\n        /* \"#utility.yul\":5328:5346   */\n      0xffffffffffffffff\n        /* \"#utility.yul\":5320:5326   */\n      dup2\n        /* \"#utility.yul\":5317:5347   */\n      gt\n        /* \"#utility.yul\":5314:5431   */\n      iszero\n      tag_310\n      jumpi\n        /* \"#utility.yul\":5350:5429   */\n      tag_311\n      tag_304\n      jump\t// in\n    tag_311:\n        /* \"#utility.yul\":5314:5431   */\n    tag_310:\n        /* \"#utility.yul\":5455:5518   */\n      tag_312\n        /* \"#utility.yul\":5510:5517   */\n      dup6\n        /* \"#utility.yul\":5501:5507   */\n      dup3\n        /* \"#utility.yul\":5490:5499   */\n      dup7\n        /* \"#utility.yul\":5486:5508   */\n      add\n        /* \"#utility.yul\":5455:5518   */\n      tag_258\n      jump\t// in\n    tag_312:\n        /* \"#utility.yul\":5445:5518   */\n      swap3\n      pop\n        /* \"#utility.yul\":5241:5528   */\n      pop\n        /* \"#utility.yul\":5567:5569   */\n      0x20\n        /* \"#utility.yul\":5593:5646   */\n      tag_313\n        /* \"#utility.yul\":5638:5645   */\n      dup6\n        /* \"#utility.yul\":5629:5635   */\n      dup3\n        /* \"#utility.yul\":5618:5627   */\n      dup7\n        /* \"#utility.yul\":5614:5636   */\n      add\n        /* \"#utility.yul\":5593:5646   */\n      tag_254\n      jump\t// in\n    tag_313:\n        /* \"#utility.yul\":5583:5646   */\n      swap2\n      pop\n        /* \"#utility.yul\":5538:5656   */\n      pop\n        /* \"#utility.yul\":5009:5663   */\n      swap3\n      pop\n      swap3\n      swap1\n      pop\n      jump\t// out\n        /* \"#utility.yul\":5669:5928   */\n    tag_314:\n        /* \"#utility.yul\":5778:5788   */\n      0x00\n        /* \"#utility.yul\":5799:5885   */\n      tag_316\n        /* \"#utility.yul\":5881:5884   */\n      dup4\n        /* \"#utility.yul\":5873:5879   */\n      dup4\n        /* \"#utility.yul\":5799:5885   */\n      tag_317\n      jump\t// in\n    tag_316:\n        /* \"#utility.yul\":5917:5921   */\n      0x60\n        /* \"#utility.yul\":5912:5915   */\n      dup4\n        /* \"#utility.yul\":5908:5922   */\n      add\n        /* \"#utility.yul\":5894:5922   */\n      swap1\n      pop\n        /* \"#utility.yul\":5669:5928   */\n      swap3\n      swap2\n      pop\n      pop\n      jump\t// out\n        /* \"#utility.yul\":5934:6042   */\n    tag_318:\n        /* \"#utility.yul\":6011:6035   */\n      tag_320\n        /* \"#utility.yul\":6029:6034   */\n      dup2\n        /* \"#utility.yul\":6011:6035   */\n      tag_321\n      jump\t// in\n    tag_320:\n        /* \"#utility.yul\":6006:6009   */\n      dup3\n        /* \"#utility.yul\":5999:6036   */\n      mstore\n        /* \"#utility.yul\":5934:6042   */\n      pop\n      pop\n      jump\t// out\n        /* \"#utility.yul\":6048:6166   */\n    tag_322:\n        /* \"#utility.yul\":6135:6159   */\n      tag_324\n        /* \"#utility.yul\":6153:6158   */\n      dup2\n        /* \"#utility.yul\":6135:6159   */\n      tag_321\n      jump\t// in\n    tag_324:\n        /* \"#utility.yul\":6130:6133   */\n      dup3\n        /* \"#utility.yul\":6123:6160   */\n      mstore\n        /* \"#utility.yul\":6048:6166   */\n      pop\n      pop\n      jump\t// out\n        /* \"#utility.yul\":6250:7142   */\n    tag_325:\n        /* \"#utility.yul\":6409:6412   */\n      0x00\n        /* \"#utility.yul\":6438:6512   */\n      tag_327\n        /* \"#utility.yul\":6506:6511   */\n      dup3\n        /* \"#utility.yul\":6438:6512   */\n      tag_328\n      jump\t// in\n    tag_327:\n        /* \"#utility.yul\":6528:6634   */\n      tag_329\n        /* \"#utility.yul\":6627:6633   */\n      dup2\n        /* \"#utility.yul\":6622:6625   */\n      dup6\n        /* \"#utility.yul\":6528:6634   */\n      tag_330\n      jump\t// in\n    tag_329:\n        /* \"#utility.yul\":6521:6634   */\n      swap4\n      pop\n        /* \"#utility.yul\":6658:6734   */\n      tag_331\n        /* \"#utility.yul\":6728:6733   */\n      dup4\n        /* \"#utility.yul\":6658:6734   */\n      tag_332\n      jump\t// in\n    tag_331:\n        /* \"#utility.yul\":6757:6764   */\n      dup1\n        /* \"#utility.yul\":6788:6789   */\n      0x00\n        /* \"#utility.yul\":6773:7117   */\n    tag_333:\n        /* \"#utility.yul\":6798:6804   */\n      dup4\n        /* \"#utility.yul\":6795:6796   */\n      dup2\n        /* \"#utility.yul\":6792:6805   */\n      lt\n        /* \"#utility.yul\":6773:7117   */\n      iszero\n      tag_335\n      jumpi\n        /* \"#utility.yul\":6874:6880   */\n      dup2\n        /* \"#utility.yul\":6868:6881   */\n      mload\n        /* \"#utility.yul\":6901:7004   */\n      tag_336\n        /* \"#utility.yul\":7000:7003   */\n      dup9\n        /* \"#utility.yul\":6985:6998   */\n      dup3\n        /* \"#utility.yul\":6901:7004   */\n      tag_314\n      jump\t// in\n    tag_336:\n        /* \"#utility.yul\":6894:7004   */\n      swap8\n      pop\n        /* \"#utility.yul\":7027:7107   */\n      tag_337\n        /* \"#utility.yul\":7100:7106   */\n      dup4\n        /* \"#utility.yul\":7027:7107   */\n      tag_338\n      jump\t// in\n    tag_337:\n        /* \"#utility.yul\":7017:7107   */\n      swap3\n      pop\n        /* \"#utility.yul\":6833:7117   */\n      pop\n        /* \"#utility.yul\":6820:6821   */\n      0x01\n        /* \"#utility.yul\":6817:6818   */\n      dup2\n        /* \"#utility.yul\":6813:6822   */\n      add\n        /* \"#utility.yul\":6808:6822   */\n      swap1\n      pop\n        /* \"#utility.yul\":6773:7117   */\n      jump(tag_333)\n    tag_335:\n        /* \"#utility.yul\":6777:6791   */\n      pop\n        /* \"#utility.yul\":7133:7136   */\n      dup6\n        /* \"#utility.yul\":7126:7136   */\n      swap4\n      pop\n        /* \"#utility.yul\":6414:7142   */\n      pop\n      pop\n      pop\n        /* \"#utility.yul\":6250:7142   */\n      swap3\n      swap2\n      pop\n      pop\n      jump\t// out\n        /* \"#utility.yul\":7148:7247   */\n    tag_339:\n        /* \"#utility.yul\":7219:7240   */\n      tag_341\n        /* \"#utility.yul\":7234:7239   */\n      dup2\n        /* \"#utility.yul\":7219:7240   */\n      tag_342\n      jump\t// in\n    tag_341:\n        /* \"#utility.yul\":7214:7217   */\n      dup3\n        /* \"#utility.yul\":7207:7241   */\n      mstore\n        /* \"#utility.yul\":7148:7247   */\n      pop\n      pop\n      jump\t// out\n        /* \"#utility.yul\":7253:7362   */\n    tag_343:\n        /* \"#utility.yul\":7334:7355   */\n      tag_345\n        /* \"#utility.yul\":7349:7354   */\n      dup2\n        /* \"#utility.yul\":7334:7355   */\n      tag_342\n      jump\t// in\n    tag_345:\n        /* \"#utility.yul\":7329:7332   */\n      dup3\n        /* \"#utility.yul\":7322:7356   */\n      mstore\n        /* \"#utility.yul\":7253:7362   */\n      pop\n      pop\n      jump\t// out\n        /* \"#utility.yul\":7368:7486   */\n    tag_346:\n        /* \"#utility.yul\":7455:7479   */\n      tag_348\n        /* \"#utility.yul\":7473:7478   */\n      dup2\n        /* \"#utility.yul\":7455:7479   */\n      tag_349\n      jump\t// in\n    tag_348:\n        /* \"#utility.yul\":7450:7453   */\n      dup3\n        /* \"#utility.yul\":7443:7480   */\n      mstore\n        /* \"#utility.yul\":7368:7486   */\n      pop\n      pop\n      jump\t// out\n        /* \"#utility.yul\":7492:7856   */\n    tag_350:\n        /* \"#utility.yul\":7580:7583   */\n      0x00\n        /* \"#utility.yul\":7608:7647   */\n      tag_352\n        /* \"#utility.yul\":7641:7646   */\n      dup3\n        /* \"#utility.yul\":7608:7647   */\n      tag_353\n      jump\t// in\n    tag_352:\n        /* \"#utility.yul\":7663:7734   */\n      tag_354\n        /* \"#utility.yul\":7727:7733   */\n      dup2\n        /* \"#utility.yul\":7722:7725   */\n      dup6\n        /* \"#utility.yul\":7663:7734   */\n      tag_355\n      jump\t// in\n    tag_354:\n        /* \"#utility.yul\":7656:7734   */\n      swap4\n      pop\n        /* \"#utility.yul\":7743:7795   */\n      tag_356\n        /* \"#utility.yul\":7788:7794   */\n      dup2\n        /* \"#utility.yul\":7783:7786   */\n      dup6\n        /* \"#utility.yul\":7776:7780   */\n      0x20\n        /* \"#utility.yul\":7769:7774   */\n      dup7\n        /* \"#utility.yul\":7765:7781   */\n      add\n        /* \"#utility.yul\":7743:7795   */\n      tag_357\n      jump\t// in\n    tag_356:\n        /* \"#utility.yul\":7820:7849   */\n      tag_358\n        /* \"#utility.yul\":7842:7848   */\n      dup2\n        /* \"#utility.yul\":7820:7849   */\n      tag_359\n      jump\t// in\n    tag_358:\n        /* \"#utility.yul\":7815:7818   */\n      dup5\n        /* \"#utility.yul\":7811:7850   */\n      add\n        /* \"#utility.yul\":7804:7850   */\n      swap2\n      pop\n        /* \"#utility.yul\":7584:7856   */\n      pop\n        /* \"#utility.yul\":7492:7856   */\n      swap3\n      swap2\n      pop\n      pop\n      jump\t// out\n        /* \"#utility.yul\":7862:8228   */\n    tag_360:\n        /* \"#utility.yul\":8004:8007   */\n      0x00\n        /* \"#utility.yul\":8025:8092   */\n      tag_362\n        /* \"#utility.yul\":8089:8091   */\n      0x1f\n        /* \"#utility.yul\":8084:8087   */\n      dup4\n        /* \"#utility.yul\":8025:8092   */\n      tag_355\n      jump\t// in\n    tag_362:\n        /* \"#utility.yul\":8018:8092   */\n      swap2\n      pop\n        /* \"#utility.yul\":8101:8194   */\n      tag_363\n        /* \"#utility.yul\":8190:8193   */\n      dup3\n        /* \"#utility.yul\":8101:8194   */\n      tag_364\n      jump\t// in\n    tag_363:\n        /* \"#utility.yul\":8219:8221   */\n      0x20\n        /* \"#utility.yul\":8214:8217   */\n      dup3\n        /* \"#utility.yul\":8210:8222   */\n      add\n        /* \"#utility.yul\":8203:8222   */\n      swap1\n      pop\n        /* \"#utility.yul\":7862:8228   */\n      swap2\n      swap1\n      pop\n      jump\t// out\n        /* \"#utility.yul\":8234:8600   */\n    tag_365:\n        /* \"#utility.yul\":8376:8379   */\n      0x00\n        /* \"#utility.yul\":8397:8464   */\n      tag_367\n        /* \"#utility.yul\":8461:8463   */\n      0x19\n        /* \"#utility.yul\":8456:8459   */\n      dup4\n        /* \"#utility.yul\":8397:8464   */\n      tag_355\n      jump\t// in\n    tag_367:\n        /* \"#utility.yul\":8390:8464   */\n      swap2\n      pop\n        /* \"#utility.yul\":8473:8566   */\n      tag_368\n        /* \"#utility.yul\":8562:8565   */\n      dup3\n        /* \"#utility.yul\":8473:8566   */\n      tag_369\n      jump\t// in\n    tag_368:\n        /* \"#utility.yul\":8591:8593   */\n      0x20\n        /* \"#utility.yul\":8586:8589   */\n      dup3\n        /* \"#utility.yul\":8582:8594   */\n      add\n        /* \"#utility.yul\":8575:8594   */\n      swap1\n      pop\n        /* \"#utility.yul\":8234:8600   */\n      swap2\n      swap1\n      pop\n      jump\t// out\n        /* \"#utility.yul\":8606:8972   */\n    tag_370:\n        /* \"#utility.yul\":8748:8751   */\n      0x00\n        /* \"#utility.yul\":8769:8836   */\n      tag_372\n        /* \"#utility.yul\":8833:8835   */\n      0x26\n        /* \"#utility.yul\":8828:8831   */\n      dup4\n        /* \"#utility.yul\":8769:8836   */\n      tag_355\n      jump\t// in\n    tag_372:\n        /* \"#utility.yul\":8762:8836   */\n      swap2\n      pop\n        /* \"#utility.yul\":8845:8938   */\n      tag_373\n        /* \"#utility.yul\":8934:8937   */\n      dup3\n        /* \"#utility.yul\":8845:8938   */\n      tag_374\n      jump\t// in\n    tag_373:\n        /* \"#utility.yul\":8963:8965   */\n      0x40\n        /* \"#utility.yul\":8958:8961   */\n      dup3\n        /* \"#utility.yul\":8954:8966   */\n      add\n        /* \"#utility.yul\":8947:8966   */\n      swap1\n      pop\n        /* \"#utility.yul\":8606:8972   */\n      swap2\n      swap1\n      pop\n      jump\t// out\n        /* \"#utility.yul\":8978:9344   */\n    tag_375:\n        /* \"#utility.yul\":9120:9123   */\n      0x00\n        /* \"#utility.yul\":9141:9208   */\n      tag_377\n        /* \"#utility.yul\":9205:9207   */\n      0x1c\n        /* \"#utility.yul\":9200:9203   */\n      dup4\n        /* \"#utility.yul\":9141:9208   */\n      tag_355\n      jump\t// in\n    tag_377:\n        /* \"#utility.yul\":9134:9208   */\n      swap2\n      pop\n        /* \"#utility.yul\":9217:9310   */\n      tag_378\n        /* \"#utility.yul\":9306:9309   */\n      dup3\n        /* \"#utility.yul\":9217:9310   */\n      tag_379\n      jump\t// in\n    tag_378:\n        /* \"#utility.yul\":9335:9337   */\n      0x20\n        /* \"#utility.yul\":9330:9333   */\n      dup3\n        /* \"#utility.yul\":9326:9338   */\n      add\n        /* \"#utility.yul\":9319:9338   */\n      swap1\n      pop\n        /* \"#utility.yul\":8978:9344   */\n      swap2\n      swap1\n      pop\n      jump\t// out\n        /* \"#utility.yul\":9350:9716   */\n    tag_380:\n        /* \"#utility.yul\":9492:9495   */\n      0x00\n        /* \"#utility.yul\":9513:9580   */\n      tag_382\n        /* \"#utility.yul\":9577:9579   */\n      0x15\n        /* \"#utility.yul\":9572:9575   */\n      dup4\n        /* \"#utility.yul\":9513:9580   */\n      tag_355\n      jump\t// in\n    tag_382:\n        /* \"#utility.yul\":9506:9580   */\n      swap2\n      pop\n        /* \"#utility.yul\":9589:9682   */\n      tag_383\n        /* \"#utility.yul\":9678:9681   */\n      dup3\n        /* \"#utility.yul\":9589:9682   */\n      tag_384\n      jump\t// in\n    tag_383:\n        /* \"#utility.yul\":9707:9709   */\n      0x20\n        /* \"#utility.yul\":9702:9705   */\n      dup3\n        /* \"#utility.yul\":9698:9710   */\n      add\n        /* \"#utility.yul\":9691:9710   */\n      swap1\n      pop\n        /* \"#utility.yul\":9350:9716   */\n      swap2\n      swap1\n      pop\n      jump\t// out\n        /* \"#utility.yul\":9722:10088   */\n    tag_385:\n        /* \"#utility.yul\":9864:9867   */\n      0x00\n        /* \"#utility.yul\":9885:9952   */\n      tag_387\n        /* \"#utility.yul\":9949:9951   */\n      0x1e\n        /* \"#utility.yul\":9944:9947   */\n      dup4\n        /* \"#utility.yul\":9885:9952   */\n      tag_355\n      jump\t// in\n    tag_387:\n        /* \"#utility.yul\":9878:9952   */\n      swap2\n      pop\n        /* \"#utility.yul\":9961:10054   */\n      tag_388\n        /* \"#utility.yul\":10050:10053   */\n      dup3\n        /* \"#utility.yul\":9961:10054   */\n      tag_389\n      jump\t// in\n    tag_388:\n        /* \"#utility.yul\":10079:10081   */\n      0x20\n        /* \"#utility.yul\":10074:10077   */\n      dup3\n        /* \"#utility.yul\":10070:10082   */\n      add\n        /* \"#utility.yul\":10063:10082   */\n      swap1\n      pop\n        /* \"#utility.yul\":9722:10088   */\n      swap2\n      swap1\n      pop\n      jump\t// out\n        /* \"#utility.yul\":10094:10460   */\n    tag_390:\n        /* \"#utility.yul\":10236:10239   */\n      0x00\n        /* \"#utility.yul\":10257:10324   */\n      tag_392\n        /* \"#utility.yul\":10321:10323   */\n      0x24\n        /* \"#utility.yul\":10316:10319   */\n      dup4\n        /* \"#utility.yul\":10257:10324   */\n      tag_355\n      jump\t// in\n    tag_392:\n        /* \"#utility.yul\":10250:10324   */\n      swap2\n      pop\n        /* \"#utility.yul\":10333:10426   */\n      tag_393\n        /* \"#utility.yul\":10422:10425   */\n      dup3\n        /* \"#utility.yul\":10333:10426   */\n      tag_394\n      jump\t// in\n    tag_393:\n        /* \"#utility.yul\":10451:10453   */\n      0x40\n        /* \"#utility.yul\":10446:10449   */\n      dup3\n        /* \"#utility.yul\":10442:10454   */\n      add\n        /* \"#utility.yul\":10435:10454   */\n      swap1\n      pop\n        /* \"#utility.yul\":10094:10460   */\n      swap2\n      swap1\n      pop\n      jump\t// out\n        /* \"#utility.yul\":10466:10832   */\n    tag_395:\n        /* \"#utility.yul\":10608:10611   */\n      0x00\n        /* \"#utility.yul\":10629:10696   */\n      tag_397\n        /* \"#utility.yul\":10693:10695   */\n      0x28\n        /* \"#utility.yul\":10688:10691   */\n      dup4\n        /* \"#utility.yul\":10629:10696   */\n      tag_355\n      jump\t// in\n    tag_397:\n        /* \"#utility.yul\":10622:10696   */\n      swap2\n      pop\n        /* \"#utility.yul\":10705:10798   */\n      tag_398\n        /* \"#utility.yul\":10794:10797   */\n      dup3\n        /* \"#utility.yul\":10705:10798   */\n      tag_399\n      jump\t// in\n    tag_398:\n        /* \"#utility.yul\":10823:10825   */\n      0x40\n        /* \"#utility.yul\":10818:10821   */\n      dup3\n        /* \"#utility.yul\":10814:10826   */\n      add\n        /* \"#utility.yul\":10807:10826   */\n      swap1\n      pop\n        /* \"#utility.yul\":10466:10832   */\n      swap2\n      swap1\n      pop\n      jump\t// out\n        /* \"#utility.yul\":10838:11204   */\n    tag_400:\n        /* \"#utility.yul\":10980:10983   */\n      0x00\n        /* \"#utility.yul\":11001:11068   */\n      tag_402\n        /* \"#utility.yul\":11065:11067   */\n      0x20\n        /* \"#utility.yul\":11060:11063   */\n      dup4\n        /* \"#utility.yul\":11001:11068   */\n      tag_355\n      jump\t// in\n    tag_402:\n        /* \"#utility.yul\":10994:11068   */\n      swap2\n      pop\n        /* \"#utility.yul\":11077:11170   */\n      tag_403\n        /* \"#utility.yul\":11166:11169   */\n      dup3\n        /* \"#utility.yul\":11077:11170   */\n      tag_404\n      jump\t// in\n    tag_403:\n        /* \"#utility.yul\":11195:11197   */\n      0x20\n        /* \"#utility.yul\":11190:11193   */\n      dup3\n        /* \"#utility.yul\":11186:11198   */\n      add\n        /* \"#utility.yul\":11179:11198   */\n      swap1\n      pop\n        /* \"#utility.yul\":10838:11204   */\n      swap2\n      swap1\n      pop\n      jump\t// out\n        /* \"#utility.yul\":11210:11576   */\n    tag_405:\n        /* \"#utility.yul\":11352:11355   */\n      0x00\n        /* \"#utility.yul\":11373:11440   */\n      tag_407\n        /* \"#utility.yul\":11437:11439   */\n      0x12\n        /* \"#utility.yul\":11432:11435   */\n      dup4\n        /* \"#utility.yul\":11373:11440   */\n      tag_355\n      jump\t// in\n    tag_407:\n        /* \"#utility.yul\":11366:11440   */\n      swap2\n      pop\n        /* \"#utility.yul\":11449:11542   */\n      tag_408\n        /* \"#utility.yul\":11538:11541   */\n      dup3\n        /* \"#utility.yul\":11449:11542   */\n      tag_409\n      jump\t// in\n    tag_408:\n        /* \"#utility.yul\":11567:11569   */\n      0x20\n        /* \"#utility.yul\":11562:11565   */\n      dup3\n        /* \"#utility.yul\":11558:11570   */\n      add\n        /* \"#utility.yul\":11551:11570   */\n      swap1\n      pop\n        /* \"#utility.yul\":11210:11576   */\n      swap2\n      swap1\n      pop\n      jump\t// out\n        /* \"#utility.yul\":11582:11948   */\n    tag_410:\n        /* \"#utility.yul\":11724:11727   */\n      0x00\n        /* \"#utility.yul\":11745:11812   */\n      tag_412\n        /* \"#utility.yul\":11809:11811   */\n      0x25\n        /* \"#utility.yul\":11804:11807   */\n      dup4\n        /* \"#utility.yul\":11745:11812   */\n      tag_355\n      jump\t// in\n    tag_412:\n        /* \"#utility.yul\":11738:11812   */\n      swap2\n      pop\n        /* \"#utility.yul\":11821:11914   */\n      tag_413\n        /* \"#utility.yul\":11910:11913   */\n      dup3\n        /* \"#utility.yul\":11821:11914   */\n      tag_414\n      jump\t// in\n    tag_413:\n        /* \"#utility.yul\":11939:11941   */\n      0x40\n        /* \"#utility.yul\":11934:11937   */\n      dup3\n        /* \"#utility.yul\":11930:11942   */\n      add\n        /* \"#utility.yul\":11923:11942   */\n      swap1\n      pop\n        /* \"#utility.yul\":11582:11948   */\n      swap2\n      swap1\n      pop\n      jump\t// out\n        /* \"#utility.yul\":12028:12683   */\n    tag_317:\n        /* \"#utility.yul\":12155:12159   */\n      0x60\n        /* \"#utility.yul\":12150:12153   */\n      dup3\n        /* \"#utility.yul\":12146:12160   */\n      add\n        /* \"#utility.yul\":12243:12247   */\n      0x00\n        /* \"#utility.yul\":12236:12241   */\n      dup3\n        /* \"#utility.yul\":12232:12248   */\n      add\n        /* \"#utility.yul\":12226:12249   */\n      mload\n        /* \"#utility.yul\":12262:12319   */\n      tag_416\n        /* \"#utility.yul\":12313:12317   */\n      0x00\n        /* \"#utility.yul\":12308:12311   */\n      dup6\n        /* \"#utility.yul\":12304:12318   */\n      add\n        /* \"#utility.yul\":12290:12302   */\n      dup3\n        /* \"#utility.yul\":12262:12319   */\n      tag_339\n      jump\t// in\n    tag_416:\n        /* \"#utility.yul\":12170:12329   */\n      pop\n        /* \"#utility.yul\":12411:12415   */\n      0x20\n        /* \"#utility.yul\":12404:12409   */\n      dup3\n        /* \"#utility.yul\":12400:12416   */\n      add\n        /* \"#utility.yul\":12394:12417   */\n      mload\n        /* \"#utility.yul\":12430:12487   */\n      tag_417\n        /* \"#utility.yul\":12481:12485   */\n      0x20\n        /* \"#utility.yul\":12476:12479   */\n      dup6\n        /* \"#utility.yul\":12472:12486   */\n      add\n        /* \"#utility.yul\":12458:12470   */\n      dup3\n        /* \"#utility.yul\":12430:12487   */\n      tag_339\n      jump\t// in\n    tag_417:\n        /* \"#utility.yul\":12339:12497   */\n      pop\n        /* \"#utility.yul\":12584:12588   */\n      0x40\n        /* \"#utility.yul\":12577:12582   */\n      dup3\n        /* \"#utility.yul\":12573:12589   */\n      add\n        /* \"#utility.yul\":12567:12590   */\n      mload\n        /* \"#utility.yul\":12603:12666   */\n      tag_418\n        /* \"#utility.yul\":12660:12664   */\n      0x40\n        /* \"#utility.yul\":12655:12658   */\n      dup6\n        /* \"#utility.yul\":12651:12665   */\n      add\n        /* \"#utility.yul\":12637:12649   */\n      dup3\n        /* \"#utility.yul\":12603:12666   */\n      tag_318\n      jump\t// in\n    tag_418:\n        /* \"#utility.yul\":12507:12676   */\n      pop\n        /* \"#utility.yul\":12124:12683   */\n      pop\n        /* \"#utility.yul\":12028:12683   */\n      pop\n      pop\n      jump\t// out\n        /* \"#utility.yul\":12689:12807   */\n    tag_419:\n        /* \"#utility.yul\":12776:12800   */\n      tag_421\n        /* \"#utility.yul\":12794:12799   */\n      dup2\n        /* \"#utility.yul\":12776:12800   */\n      tag_422\n      jump\t// in\n    tag_421:\n        /* \"#utility.yul\":12771:12774   */\n      dup3\n        /* \"#utility.yul\":12764:12801   */\n      mstore\n        /* \"#utility.yul\":12689:12807   */\n      pop\n      pop\n      jump\t// out\n        /* \"#utility.yul\":12813:13035   */\n    tag_75:\n        /* \"#utility.yul\":12906:12910   */\n      0x00\n        /* \"#utility.yul\":12944:12946   */\n      0x20\n        /* \"#utility.yul\":12933:12942   */\n      dup3\n        /* \"#utility.yul\":12929:12947   */\n      add\n        /* \"#utility.yul\":12921:12947   */\n      swap1\n      pop\n        /* \"#utility.yul\":12957:13028   */\n      tag_424\n        /* \"#utility.yul\":13025:13026   */\n      0x00\n        /* \"#utility.yul\":13014:13023   */\n      dup4\n        /* \"#utility.yul\":13010:13027   */\n      add\n        /* \"#utility.yul\":13001:13007   */\n      dup5\n        /* \"#utility.yul\":12957:13028   */\n      tag_322\n      jump\t// in\n    tag_424:\n        /* \"#utility.yul\":12813:13035   */\n      swap3\n      swap2\n      pop\n      pop\n      jump\t// out\n        /* \"#utility.yul\":13041:13251   */\n    tag_49:\n        /* \"#utility.yul\":13128:13132   */\n      0x00\n        /* \"#utility.yul\":13166:13168   */\n      0x20\n        /* \"#utility.yul\":13155:13164   */\n      dup3\n        /* \"#utility.yul\":13151:13169   */\n      add\n        /* \"#utility.yul\":13143:13169   */\n      swap1\n      pop\n        /* \"#utility.yul\":13179:13244   */\n      tag_426\n        /* \"#utility.yul\":13241:13242   */\n      0x00\n        /* \"#utility.yul\":13230:13239   */\n      dup4\n        /* \"#utility.yul\":13226:13243   */\n      add\n        /* \"#utility.yul\":13217:13223   */\n      dup5\n        /* \"#utility.yul\":13179:13244   */\n      tag_343\n      jump\t// in\n    tag_426:\n        /* \"#utility.yul\":13041:13251   */\n      swap3\n      swap2\n      pop\n      pop\n      jump\t// out\n        /* \"#utility.yul\":13257:13675   */\n    tag_55:\n        /* \"#utility.yul\":13394:13398   */\n      0x00\n        /* \"#utility.yul\":13432:13434   */\n      0x60\n        /* \"#utility.yul\":13421:13430   */\n      dup3\n        /* \"#utility.yul\":13417:13435   */\n      add\n        /* \"#utility.yul\":13409:13435   */\n      swap1\n      pop\n        /* \"#utility.yul\":13445:13510   */\n      tag_428\n        /* \"#utility.yul\":13507:13508   */\n      0x00\n        /* \"#utility.yul\":13496:13505   */\n      dup4\n        /* \"#utility.yul\":13492:13509   */\n      add\n        /* \"#utility.yul\":13483:13489   */\n      dup7\n        /* \"#utility.yul\":13445:13510   */\n      tag_343\n      jump\t// in\n    tag_428:\n        /* \"#utility.yul\":13520:13586   */\n      tag_429\n        /* \"#utility.yul\":13582:13584   */\n      0x20\n        /* \"#utility.yul\":13571:13580   */\n      dup4\n        /* \"#utility.yul\":13567:13585   */\n      add\n        /* \"#utility.yul\":13558:13564   */\n      dup6\n        /* \"#utility.yul\":13520:13586   */\n      tag_343\n      jump\t// in\n    tag_429:\n        /* \"#utility.yul\":13596:13668   */\n      tag_430\n        /* \"#utility.yul\":13664:13666   */\n      0x40\n        /* \"#utility.yul\":13653:13662   */\n      dup4\n        /* \"#utility.yul\":13649:13667   */\n      add\n        /* \"#utility.yul\":13640:13646   */\n      dup5\n        /* \"#utility.yul\":13596:13668   */\n      tag_322\n      jump\t// in\n    tag_430:\n        /* \"#utility.yul\":13257:13675   */\n      swap5\n      swap4\n      pop\n      pop\n      pop\n      pop\n      jump\t// out\n        /* \"#utility.yul\":13681:14087   */\n    tag_44:\n        /* \"#utility.yul\":13812:13816   */\n      0x00\n        /* \"#utility.yul\":13850:13852   */\n      0x60\n        /* \"#utility.yul\":13839:13848   */\n      dup3\n        /* \"#utility.yul\":13835:13853   */\n      add\n        /* \"#utility.yul\":13827:13853   */\n      swap1\n      pop\n        /* \"#utility.yul\":13863:13928   */\n      tag_432\n        /* \"#utility.yul\":13925:13926   */\n      0x00\n        /* \"#utility.yul\":13914:13923   */\n      dup4\n        /* \"#utility.yul\":13910:13927   */\n      add\n        /* \"#utility.yul\":13901:13907   */\n      dup7\n        /* \"#utility.yul\":13863:13928   */\n      tag_343\n      jump\t// in\n    tag_432:\n        /* \"#utility.yul\":13938:14004   */\n      tag_433\n        /* \"#utility.yul\":14000:14002   */\n      0x20\n        /* \"#utility.yul\":13989:13998   */\n      dup4\n        /* \"#utility.yul\":13985:14003   */\n      add\n        /* \"#utility.yul\":13976:13982   */\n      dup6\n        /* \"#utility.yul\":13938:14004   */\n      tag_343\n      jump\t// in\n    tag_433:\n        /* \"#utility.yul\":14014:14080   */\n      tag_434\n        /* \"#utility.yul\":14076:14078   */\n      0x40\n        /* \"#utility.yul\":14065:14074   */\n      dup4\n        /* \"#utility.yul\":14061:14079   */\n      add\n        /* \"#utility.yul\":14052:14058   */\n      dup5\n        /* \"#utility.yul\":14014:14080   */\n      tag_343\n      jump\t// in\n    tag_434:\n        /* \"#utility.yul\":13681:14087   */\n      swap5\n      swap4\n      pop\n      pop\n      pop\n      pop\n      jump\t// out\n        /* \"#utility.yul\":14093:14865   */\n    tag_38:\n        /* \"#utility.yul\":14354:14358   */\n      0x00\n        /* \"#utility.yul\":14392:14395   */\n      0x80\n        /* \"#utility.yul\":14381:14390   */\n      dup3\n        /* \"#utility.yul\":14377:14396   */\n      add\n        /* \"#utility.yul\":14369:14396   */\n      swap1\n      pop\n        /* \"#utility.yul\":14406:14471   */\n      tag_436\n        /* \"#utility.yul\":14468:14469   */\n      0x00\n        /* \"#utility.yul\":14457:14466   */\n      dup4\n        /* \"#utility.yul\":14453:14470   */\n      add\n        /* \"#utility.yul\":14444:14450   */\n      dup8\n        /* \"#utility.yul\":14406:14471   */\n      tag_343\n      jump\t// in\n    tag_436:\n        /* \"#utility.yul\":14481:14553   */\n      tag_437\n        /* \"#utility.yul\":14549:14551   */\n      0x20\n        /* \"#utility.yul\":14538:14547   */\n      dup4\n        /* \"#utility.yul\":14534:14552   */\n      add\n        /* \"#utility.yul\":14525:14531   */\n      dup7\n        /* \"#utility.yul\":14481:14553   */\n      tag_346\n      jump\t// in\n    tag_437:\n        /* \"#utility.yul\":14563:14635   */\n      tag_438\n        /* \"#utility.yul\":14631:14633   */\n      0x40\n        /* \"#utility.yul\":14620:14629   */\n      dup4\n        /* \"#utility.yul\":14616:14634   */\n      add\n        /* \"#utility.yul\":14607:14613   */\n      dup6\n        /* \"#utility.yul\":14563:14635   */\n      tag_419\n      jump\t// in\n    tag_438:\n        /* \"#utility.yul\":14682:14691   */\n      dup2\n        /* \"#utility.yul\":14676:14680   */\n      dup2\n        /* \"#utility.yul\":14672:14692   */\n      sub\n        /* \"#utility.yul\":14667:14669   */\n      0x60\n        /* \"#utility.yul\":14656:14665   */\n      dup4\n        /* \"#utility.yul\":14652:14670   */\n      add\n        /* \"#utility.yul\":14645:14693   */\n      mstore\n        /* \"#utility.yul\":14710:14858   */\n      tag_439\n        /* \"#utility.yul\":14853:14857   */\n      dup2\n        /* \"#utility.yul\":14844:14850   */\n      dup5\n        /* \"#utility.yul\":14710:14858   */\n      tag_325\n      jump\t// in\n    tag_439:\n        /* \"#utility.yul\":14702:14858   */\n      swap1\n      pop\n        /* \"#utility.yul\":14093:14865   */\n      swap6\n      swap5\n      pop\n      pop\n      pop\n      pop\n      pop\n      jump\t// out\n        /* \"#utility.yul\":14871:15093   */\n    tag_123:\n        /* \"#utility.yul\":14964:14968   */\n      0x00\n        /* \"#utility.yul\":15002:15004   */\n      0x20\n        /* \"#utility.yul\":14991:15000   */\n      dup3\n        /* \"#utility.yul\":14987:15005   */\n      add\n        /* \"#utility.yul\":14979:15005   */\n      swap1\n      pop\n        /* \"#utility.yul\":15015:15086   */\n      tag_441\n        /* \"#utility.yul\":15083:15084   */\n      0x00\n        /* \"#utility.yul\":15072:15081   */\n      dup4\n        /* \"#utility.yul\":15068:15085   */\n      add\n        /* \"#utility.yul\":15059:15065   */\n      dup5\n        /* \"#utility.yul\":15015:15086   */\n      tag_346\n      jump\t// in\n    tag_441:\n        /* \"#utility.yul\":14871:15093   */\n      swap3\n      swap2\n      pop\n      pop\n      jump\t// out\n        /* \"#utility.yul\":15099:15522   */\n    tag_92:\n        /* \"#utility.yul\":15240:15244   */\n      0x00\n        /* \"#utility.yul\":15278:15280   */\n      0x40\n        /* \"#utility.yul\":15267:15276   */\n      dup3\n        /* \"#utility.yul\":15263:15281   */\n      add\n        /* \"#utility.yul\":15255:15281   */\n      swap1\n      pop\n        /* \"#utility.yul\":15291:15362   */\n      tag_443\n        /* \"#utility.yul\":15359:15360   */\n      0x00\n        /* \"#utility.yul\":15348:15357   */\n      dup4\n        /* \"#utility.yul\":15344:15361   */\n      add\n        /* \"#utility.yul\":15335:15341   */\n      dup6\n        /* \"#utility.yul\":15291:15362   */\n      tag_346\n      jump\t// in\n    tag_443:\n        /* \"#utility.yul\":15409:15418   */\n      dup2\n        /* \"#utility.yul\":15403:15407   */\n      dup2\n        /* \"#utility.yul\":15399:15419   */\n      sub\n        /* \"#utility.yul\":15394:15396   */\n      0x20\n        /* \"#utility.yul\":15383:15392   */\n      dup4\n        /* \"#utility.yul\":15379:15397   */\n      add\n        /* \"#utility.yul\":15372:15420   */\n      mstore\n        /* \"#utility.yul\":15437:15515   */\n      tag_444\n        /* \"#utility.yul\":15510:15514   */\n      dup2\n        /* \"#utility.yul\":15501:15507   */\n      dup5\n        /* \"#utility.yul\":15437:15515   */\n      tag_350\n      jump\t// in\n    tag_444:\n        /* \"#utility.yul\":15429:15515   */\n      swap1\n      pop\n        /* \"#utility.yul\":15099:15522   */\n      swap4\n      swap3\n      pop\n      pop\n      pop\n      jump\t// out\n        /* \"#utility.yul\":15528:15841   */\n    tag_97:\n        /* \"#utility.yul\":15641:15645   */\n      0x00\n        /* \"#utility.yul\":15679:15681   */\n      0x20\n        /* \"#utility.yul\":15668:15677   */\n      dup3\n        /* \"#utility.yul\":15664:15682   */\n      add\n        /* \"#utility.yul\":15656:15682   */\n      swap1\n      pop\n        /* \"#utility.yul\":15728:15737   */\n      dup2\n        /* \"#utility.yul\":15722:15726   */\n      dup2\n        /* \"#utility.yul\":15718:15738   */\n      sub\n        /* \"#utility.yul\":15714:15715   */\n      0x00\n        /* \"#utility.yul\":15703:15712   */\n      dup4\n        /* \"#utility.yul\":15699:15716   */\n      add\n        /* \"#utility.yul\":15692:15739   */\n      mstore\n        /* \"#utility.yul\":15756:15834   */\n      tag_446\n        /* \"#utility.yul\":15829:15833   */\n      dup2\n        /* \"#utility.yul\":15820:15826   */\n      dup5\n        /* \"#utility.yul\":15756:15834   */\n      tag_350\n      jump\t// in\n    tag_446:\n        /* \"#utility.yul\":15748:15834   */\n      swap1\n      pop\n        /* \"#utility.yul\":15528:15841   */\n      swap3\n      swap2\n      pop\n      pop\n      jump\t// out\n        /* \"#utility.yul\":15847:16266   */\n    tag_223:\n        /* \"#utility.yul\":16013:16017   */\n      0x00\n        /* \"#utility.yul\":16051:16053   */\n      0x20\n        /* \"#utility.yul\":16040:16049   */\n      dup3\n        /* \"#utility.yul\":16036:16054   */\n      add\n        /* \"#utility.yul\":16028:16054   */\n      swap1\n      pop\n        /* \"#utility.yul\":16100:16109   */\n      dup2\n        /* \"#utility.yul\":16094:16098   */\n      dup2\n        /* \"#utility.yul\":16090:16110   */\n      sub\n        /* \"#utility.yul\":16086:16087   */\n      0x00\n        /* \"#utility.yul\":16075:16084   */\n      dup4\n        /* \"#utility.yul\":16071:16088   */\n      add\n        /* \"#utility.yul\":16064:16111   */\n      mstore\n        /* \"#utility.yul\":16128:16259   */\n      tag_448\n        /* \"#utility.yul\":16254:16258   */\n      dup2\n        /* \"#utility.yul\":16128:16259   */\n      tag_360\n      jump\t// in\n    tag_448:\n        /* \"#utility.yul\":16120:16259   */\n      swap1\n      pop\n        /* \"#utility.yul\":15847:16266   */\n      swap2\n      swap1\n      pop\n      jump\t// out\n        /* \"#utility.yul\":16272:16691   */\n    tag_210:\n        /* \"#utility.yul\":16438:16442   */\n      0x00\n        /* \"#utility.yul\":16476:16478   */\n      0x20\n        /* \"#utility.yul\":16465:16474   */\n      dup3\n        /* \"#utility.yul\":16461:16479   */\n      add\n        /* \"#utility.yul\":16453:16479   */\n      swap1\n      pop\n        /* \"#utility.yul\":16525:16534   */\n      dup2\n        /* \"#utility.yul\":16519:16523   */\n      dup2\n        /* \"#utility.yul\":16515:16535   */\n      sub\n        /* \"#utility.yul\":16511:16512   */\n      0x00\n        /* \"#utility.yul\":16500:16509   */\n      dup4\n        /* \"#utility.yul\":16496:16513   */\n      add\n        /* \"#utility.yul\":16489:16536   */\n      mstore\n        /* \"#utility.yul\":16553:16684   */\n      tag_450\n        /* \"#utility.yul\":16679:16683   */\n      dup2\n        /* \"#utility.yul\":16553:16684   */\n      tag_365\n      jump\t// in\n    tag_450:\n        /* \"#utility.yul\":16545:16684   */\n      swap1\n      pop\n        /* \"#utility.yul\":16272:16691   */\n      swap2\n      swap1\n      pop\n      jump\t// out\n        /* \"#utility.yul\":16697:17116   */\n    tag_151:\n        /* \"#utility.yul\":16863:16867   */\n      0x00\n        /* \"#utility.yul\":16901:16903   */\n      0x20\n        /* \"#utility.yul\":16890:16899   */\n      dup3\n        /* \"#utility.yul\":16886:16904   */\n      add\n        /* \"#utility.yul\":16878:16904   */\n      swap1\n      pop\n        /* \"#utility.yul\":16950:16959   */\n      dup2\n        /* \"#utility.yul\":16944:16948   */\n      dup2\n        /* \"#utility.yul\":16940:16960   */\n      sub\n        /* \"#utility.yul\":16936:16937   */\n      0x00\n        /* \"#utility.yul\":16925:16934   */\n      dup4\n        /* \"#utility.yul\":16921:16938   */\n      add\n        /* \"#utility.yul\":16914:16961   */\n      mstore\n        /* \"#utility.yul\":16978:17109   */\n      tag_452\n        /* \"#utility.yul\":17104:17108   */\n      dup2\n        /* \"#utility.yul\":16978:17109   */\n      tag_370\n      jump\t// in\n    tag_452:\n        /* \"#utility.yul\":16970:17109   */\n      swap1\n      pop\n        /* \"#utility.yul\":16697:17116   */\n      swap2\n      swap1\n      pop\n      jump\t// out\n        /* \"#utility.yul\":17122:17541   */\n    tag_182:\n        /* \"#utility.yul\":17288:17292   */\n      0x00\n        /* \"#utility.yul\":17326:17328   */\n      0x20\n        /* \"#utility.yul\":17315:17324   */\n      dup3\n        /* \"#utility.yul\":17311:17329   */\n      add\n        /* \"#utility.yul\":17303:17329   */\n      swap1\n      pop\n        /* \"#utility.yul\":17375:17384   */\n      dup2\n        /* \"#utility.yul\":17369:17373   */\n      dup2\n        /* \"#utility.yul\":17365:17385   */\n      sub\n        /* \"#utility.yul\":17361:17362   */\n      0x00\n        /* \"#utility.yul\":17350:17359   */\n      dup4\n        /* \"#utility.yul\":17346:17363   */\n      add\n        /* \"#utility.yul\":17339:17386   */\n      mstore\n        /* \"#utility.yul\":17403:17534   */\n      tag_454\n        /* \"#utility.yul\":17529:17533   */\n      dup2\n        /* \"#utility.yul\":17403:17534   */\n      tag_375\n      jump\t// in\n    tag_454:\n        /* \"#utility.yul\":17395:17534   */\n      swap1\n      pop\n        /* \"#utility.yul\":17122:17541   */\n      swap2\n      swap1\n      pop\n      jump\t// out\n        /* \"#utility.yul\":17547:17966   */\n    tag_220:\n        /* \"#utility.yul\":17713:17717   */\n      0x00\n        /* \"#utility.yul\":17751:17753   */\n      0x20\n        /* \"#utility.yul\":17740:17749   */\n      dup3\n        /* \"#utility.yul\":17736:17754   */\n      add\n        /* \"#utility.yul\":17728:17754   */\n      swap1\n      pop\n        /* \"#utility.yul\":17800:17809   */\n      dup2\n        /* \"#utility.yul\":17794:17798   */\n      dup2\n        /* \"#utility.yul\":17790:17810   */\n      sub\n        /* \"#utility.yul\":17786:17787   */\n      0x00\n        /* \"#utility.yul\":17775:17784   */\n      dup4\n        /* \"#utility.yul\":17771:17788   */\n      add\n        /* \"#utility.yul\":17764:17811   */\n      mstore\n        /* \"#utility.yul\":17828:17959   */\n      tag_456\n        /* \"#utility.yul\":17954:17958   */\n      dup2\n        /* \"#utility.yul\":17828:17959   */\n      tag_380\n      jump\t// in\n    tag_456:\n        /* \"#utility.yul\":17820:17959   */\n      swap1\n      pop\n        /* \"#utility.yul\":17547:17966   */\n      swap2\n      swap1\n      pop\n      jump\t// out\n        /* \"#utility.yul\":17972:18391   */\n    tag_179:\n        /* \"#utility.yul\":18138:18142   */\n      0x00\n        /* \"#utility.yul\":18176:18178   */\n      0x20\n        /* \"#utility.yul\":18165:18174   */\n      dup3\n        /* \"#utility.yul\":18161:18179   */\n      add\n        /* \"#utility.yul\":18153:18179   */\n      swap1\n      pop\n        /* \"#utility.yul\":18225:18234   */\n      dup2\n        /* \"#utility.yul\":18219:18223   */\n      dup2\n        /* \"#utility.yul\":18215:18235   */\n      sub\n        /* \"#utility.yul\":18211:18212   */\n      0x00\n        /* \"#utility.yul\":18200:18209   */\n      dup4\n        /* \"#utility.yul\":18196:18213   */\n      add\n        /* \"#utility.yul\":18189:18236   */\n      mstore\n        /* \"#utility.yul\":18253:18384   */\n      tag_458\n        /* \"#utility.yul\":18379:18383   */\n      dup2\n        /* \"#utility.yul\":18253:18384   */\n      tag_385\n      jump\t// in\n    tag_458:\n        /* \"#utility.yul\":18245:18384   */\n      swap1\n      pop\n        /* \"#utility.yul\":17972:18391   */\n      swap2\n      swap1\n      pop\n      jump\t// out\n        /* \"#utility.yul\":18397:18816   */\n    tag_226:\n        /* \"#utility.yul\":18563:18567   */\n      0x00\n        /* \"#utility.yul\":18601:18603   */\n      0x20\n        /* \"#utility.yul\":18590:18599   */\n      dup3\n        /* \"#utility.yul\":18586:18604   */\n      add\n        /* \"#utility.yul\":18578:18604   */\n      swap1\n      pop\n        /* \"#utility.yul\":18650:18659   */\n      dup2\n        /* \"#utility.yul\":18644:18648   */\n      dup2\n        /* \"#utility.yul\":18640:18660   */\n      sub\n        /* \"#utility.yul\":18636:18637   */\n      0x00\n        /* \"#utility.yul\":18625:18634   */\n      dup4\n        /* \"#utility.yul\":18621:18638   */\n      add\n        /* \"#utility.yul\":18614:18661   */\n      mstore\n        /* \"#utility.yul\":18678:18809   */\n      tag_460\n        /* \"#utility.yul\":18804:18808   */\n      dup2\n        /* \"#utility.yul\":18678:18809   */\n      tag_390\n      jump\t// in\n    tag_460:\n        /* \"#utility.yul\":18670:18809   */\n      swap1\n      pop\n        /* \"#utility.yul\":18397:18816   */\n      swap2\n      swap1\n      pop\n      jump\t// out\n        /* \"#utility.yul\":18822:19241   */\n    tag_217:\n        /* \"#utility.yul\":18988:18992   */\n      0x00\n        /* \"#utility.yul\":19026:19028   */\n      0x20\n        /* \"#utility.yul\":19015:19024   */\n      dup3\n        /* \"#utility.yul\":19011:19029   */\n      add\n        /* \"#utility.yul\":19003:19029   */\n      swap1\n      pop\n        /* \"#utility.yul\":19075:19084   */\n      dup2\n        /* \"#utility.yul\":19069:19073   */\n      dup2\n        /* \"#utility.yul\":19065:19085   */\n      sub\n        /* \"#utility.yul\":19061:19062   */\n      0x00\n        /* \"#utility.yul\":19050:19059   */\n      dup4\n        /* \"#utility.yul\":19046:19063   */\n      add\n        /* \"#utility.yul\":19039:19086   */\n      mstore\n        /* \"#utility.yul\":19103:19234   */\n      tag_462\n        /* \"#utility.yul\":19229:19233   */\n      dup2\n        /* \"#utility.yul\":19103:19234   */\n      tag_395\n      jump\t// in\n    tag_462:\n        /* \"#utility.yul\":19095:19234   */\n      swap1\n      pop\n        /* \"#utility.yul\":18822:19241   */\n      swap2\n      swap1\n      pop\n      jump\t// out\n        /* \"#utility.yul\":19247:19666   */\n    tag_131:\n        /* \"#utility.yul\":19413:19417   */\n      0x00\n        /* \"#utility.yul\":19451:19453   */\n      0x20\n        /* \"#utility.yul\":19440:19449   */\n      dup3\n        /* \"#utility.yul\":19436:19454   */\n      add\n        /* \"#utility.yul\":19428:19454   */\n      swap1\n      pop\n        /* \"#utility.yul\":19500:19509   */\n      dup2\n        /* \"#utility.yul\":19494:19498   */\n      dup2\n        /* \"#utility.yul\":19490:19510   */\n      sub\n        /* \"#utility.yul\":19486:19487   */\n      0x00\n        /* \"#utility.yul\":19475:19484   */\n      dup4\n        /* \"#utility.yul\":19471:19488   */\n      add\n        /* \"#utility.yul\":19464:19511   */\n      mstore\n        /* \"#utility.yul\":19528:19659   */\n      tag_464\n        /* \"#utility.yul\":19654:19658   */\n      dup2\n        /* \"#utility.yul\":19528:19659   */\n      tag_400\n      jump\t// in\n    tag_464:\n        /* \"#utility.yul\":19520:19659   */\n      swap1\n      pop\n        /* \"#utility.yul\":19247:19666   */\n      swap2\n      swap1\n      pop\n      jump\t// out\n        /* \"#utility.yul\":19672:20091   */\n    tag_176:\n        /* \"#utility.yul\":19838:19842   */\n      0x00\n        /* \"#utility.yul\":19876:19878   */\n      0x20\n        /* \"#utility.yul\":19865:19874   */\n      dup3\n        /* \"#utility.yul\":19861:19879   */\n      add\n        /* \"#utility.yul\":19853:19879   */\n      swap1\n      pop\n        /* \"#utility.yul\":19925:19934   */\n      dup2\n        /* \"#utility.yul\":19919:19923   */\n      dup2\n        /* \"#utility.yul\":19915:19935   */\n      sub\n        /* \"#utility.yul\":19911:19912   */\n      0x00\n        /* \"#utility.yul\":19900:19909   */\n      dup4\n        /* \"#utility.yul\":19896:19913   */\n      add\n        /* \"#utility.yul\":19889:19936   */\n      mstore\n        /* \"#utility.yul\":19953:20084   */\n      tag_466\n        /* \"#utility.yul\":20079:20083   */\n      dup2\n        /* \"#utility.yul\":19953:20084   */\n      tag_405\n      jump\t// in\n    tag_466:\n        /* \"#utility.yul\":19945:20084   */\n      swap1\n      pop\n        /* \"#utility.yul\":19672:20091   */\n      swap2\n      swap1\n      pop\n      jump\t// out\n        /* \"#utility.yul\":20097:20516   */\n    tag_147:\n        /* \"#utility.yul\":20263:20267   */\n      0x00\n        /* \"#utility.yul\":20301:20303   */\n      0x20\n        /* \"#utility.yul\":20290:20299   */\n      dup3\n        /* \"#utility.yul\":20286:20304   */\n      add\n        /* \"#utility.yul\":20278:20304   */\n      swap1\n      pop\n        /* \"#utility.yul\":20350:20359   */\n      dup2\n        /* \"#utility.yul\":20344:20348   */\n      dup2\n        /* \"#utility.yul\":20340:20360   */\n      sub\n        /* \"#utility.yul\":20336:20337   */\n      0x00\n        /* \"#utility.yul\":20325:20334   */\n      dup4\n        /* \"#utility.yul\":20321:20338   */\n      add\n        /* \"#utility.yul\":20314:20361   */\n      mstore\n        /* \"#utility.yul\":20378:20509   */\n      tag_468\n        /* \"#utility.yul\":20504:20508   */\n      dup2\n        /* \"#utility.yul\":20378:20509   */\n      tag_410\n      jump\t// in\n    tag_468:\n        /* \"#utility.yul\":20370:20509   */\n      swap1\n      pop\n        /* \"#utility.yul\":20097:20516   */\n      swap2\n      swap1\n      pop\n      jump\t// out\n        /* \"#utility.yul\":20522:20744   */\n    tag_33:\n        /* \"#utility.yul\":20615:20619   */\n      0x00\n        /* \"#utility.yul\":20653:20655   */\n      0x20\n        /* \"#utility.yul\":20642:20651   */\n      dup3\n        /* \"#utility.yul\":20638:20656   */\n      add\n        /* \"#utility.yul\":20630:20656   */\n      swap1\n      pop\n        /* \"#utility.yul\":20666:20737   */\n      tag_470\n        /* \"#utility.yul\":20734:20735   */\n      0x00\n        /* \"#utility.yul\":20723:20732   */\n      dup4\n        /* \"#utility.yul\":20719:20736   */\n      add\n        /* \"#utility.yul\":20710:20716   */\n      dup5\n        /* \"#utility.yul\":20666:20737   */\n      tag_419\n      jump\t// in\n    tag_470:\n        /* \"#utility.yul\":20522:20744   */\n      swap3\n      swap2\n      pop\n      pop\n      jump\t// out\n        /* \"#utility.yul\":20750:20879   */\n    tag_244:\n        /* \"#utility.yul\":20784:20790   */\n      0x00\n        /* \"#utility.yul\":20811:20831   */\n      tag_472\n      tag_473\n      jump\t// in\n    tag_472:\n        /* \"#utility.yul\":20801:20831   */\n      swap1\n      pop\n        /* \"#utility.yul\":20840:20873   */\n      tag_474\n        /* \"#utility.yul\":20868:20872   */\n      dup3\n        /* \"#utility.yul\":20860:20866   */\n      dup3\n        /* \"#utility.yul\":20840:20873   */\n      tag_475\n      jump\t// in\n    tag_474:\n        /* \"#utility.yul\":20750:20879   */\n      swap2\n      swap1\n      pop\n      jump\t// out\n        /* \"#utility.yul\":20885:20960   */\n    tag_473:\n        /* \"#utility.yul\":20918:20924   */\n      0x00\n        /* \"#utility.yul\":20951:20953   */\n      0x40\n        /* \"#utility.yul\":20945:20954   */\n      mload\n        /* \"#utility.yul\":20935:20954   */\n      swap1\n      pop\n        /* \"#utility.yul\":20885:20960   */\n      swap1\n      jump\t// out\n        /* \"#utility.yul\":20966:21274   */\n    tag_243:\n        /* \"#utility.yul\":21028:21032   */\n      0x00\n        /* \"#utility.yul\":21118:21136   */\n      0xffffffffffffffff\n        /* \"#utility.yul\":21110:21116   */\n      dup3\n        /* \"#utility.yul\":21107:21137   */\n      gt\n        /* \"#utility.yul\":21104:21160   */\n      iszero\n      tag_478\n      jumpi\n        /* \"#utility.yul\":21140:21158   */\n      tag_479\n      tag_480\n      jump\t// in\n    tag_479:\n        /* \"#utility.yul\":21104:21160   */\n    tag_478:\n        /* \"#utility.yul\":21178:21207   */\n      tag_481\n        /* \"#utility.yul\":21200:21206   */\n      dup3\n        /* \"#utility.yul\":21178:21207   */\n      tag_359\n      jump\t// in\n    tag_481:\n        /* \"#utility.yul\":21170:21207   */\n      swap1\n      pop\n        /* \"#utility.yul\":21262:21266   */\n      0x20\n        /* \"#utility.yul\":21256:21260   */\n      dup2\n        /* \"#utility.yul\":21252:21267   */\n      add\n        /* \"#utility.yul\":21244:21267   */\n      swap1\n      pop\n        /* \"#utility.yul\":20966:21274   */\n      swap2\n      swap1\n      pop\n      jump\t// out\n        /* \"#utility.yul\":21280:21432   */\n    tag_332:\n        /* \"#utility.yul\":21367:21371   */\n      0x00\n        /* \"#utility.yul\":21390:21393   */\n      dup2\n        /* \"#utility.yul\":21382:21393   */\n      swap1\n      pop\n        /* \"#utility.yul\":21420:21424   */\n      0x20\n        /* \"#utility.yul\":21415:21418   */\n      dup3\n        /* \"#utility.yul\":21411:21425   */\n      add\n        /* \"#utility.yul\":21403:21425   */\n      swap1\n      pop\n        /* \"#utility.yul\":21280:21432   */\n      swap2\n      swap1\n      pop\n      jump\t// out\n        /* \"#utility.yul\":21438:21572   */\n    tag_328:\n        /* \"#utility.yul\":21525:21531   */\n      0x00\n        /* \"#utility.yul\":21559:21564   */\n      dup2\n        /* \"#utility.yul\":21553:21565   */\n      mload\n        /* \"#utility.yul\":21543:21565   */\n      swap1\n      pop\n        /* \"#utility.yul\":21438:21572   */\n      swap2\n      swap1\n      pop\n      jump\t// out\n        /* \"#utility.yul\":21578:21677   */\n    tag_353:\n        /* \"#utility.yul\":21630:21636   */\n      0x00\n        /* \"#utility.yul\":21664:21669   */\n      dup2\n        /* \"#utility.yul\":21658:21670   */\n      mload\n        /* \"#utility.yul\":21648:21670   */\n      swap1\n      pop\n        /* \"#utility.yul\":21578:21677   */\n      swap2\n      swap1\n      pop\n      jump\t// out\n        /* \"#utility.yul\":21683:21816   */\n    tag_338:\n        /* \"#utility.yul\":21773:21777   */\n      0x00\n        /* \"#utility.yul\":21805:21809   */\n      0x20\n        /* \"#utility.yul\":21800:21803   */\n      dup3\n        /* \"#utility.yul\":21796:21810   */\n      add\n        /* \"#utility.yul\":21788:21810   */\n      swap1\n      pop\n        /* \"#utility.yul\":21683:21816   */\n      swap2\n      swap1\n      pop\n      jump\t// out\n        /* \"#utility.yul\":21822:22026   */\n    tag_330:\n        /* \"#utility.yul\":21941:21952   */\n      0x00\n        /* \"#utility.yul\":21975:21981   */\n      dup3\n        /* \"#utility.yul\":21970:21973   */\n      dup3\n        /* \"#utility.yul\":21963:21982   */\n      mstore\n        /* \"#utility.yul\":22015:22019   */\n      0x20\n        /* \"#utility.yul\":22010:22013   */\n      dup3\n        /* \"#utility.yul\":22006:22020   */\n      add\n        /* \"#utility.yul\":21991:22020   */\n      swap1\n      pop\n        /* \"#utility.yul\":21822:22026   */\n      swap3\n      swap2\n      pop\n      pop\n      jump\t// out\n        /* \"#utility.yul\":22032:22201   */\n    tag_355:\n        /* \"#utility.yul\":22116:22127   */\n      0x00\n        /* \"#utility.yul\":22150:22156   */\n      dup3\n        /* \"#utility.yul\":22145:22148   */\n      dup3\n        /* \"#utility.yul\":22138:22157   */\n      mstore\n        /* \"#utility.yul\":22190:22194   */\n      0x20\n        /* \"#utility.yul\":22185:22188   */\n      dup3\n        /* \"#utility.yul\":22181:22195   */\n      add\n        /* \"#utility.yul\":22166:22195   */\n      swap1\n      pop\n        /* \"#utility.yul\":22032:22201   */\n      swap3\n      swap2\n      pop\n      pop\n      jump\t// out\n        /* \"#utility.yul\":22207:22512   */\n    tag_185:\n        /* \"#utility.yul\":22247:22250   */\n      0x00\n        /* \"#utility.yul\":22266:22286   */\n      tag_489\n        /* \"#utility.yul\":22284:22285   */\n      dup3\n        /* \"#utility.yul\":22266:22286   */\n      tag_422\n      jump\t// in\n    tag_489:\n        /* \"#utility.yul\":22261:22286   */\n      swap2\n      pop\n        /* \"#utility.yul\":22300:22320   */\n      tag_490\n        /* \"#utility.yul\":22318:22319   */\n      dup4\n        /* \"#utility.yul\":22300:22320   */\n      tag_422\n      jump\t// in\n    tag_490:\n        /* \"#utility.yul\":22295:22320   */\n      swap3\n      pop\n        /* \"#utility.yul\":22454:22455   */\n      dup3\n        /* \"#utility.yul\":22386:22452   */\n      0xffffffffffffffffffffffffffffffffffffffffffffffffffffffffffffffff\n        /* \"#utility.yul\":22382:22456   */\n      sub\n        /* \"#utility.yul\":22379:22380   */\n      dup3\n        /* \"#utility.yul\":22376:22457   */\n      gt\n        /* \"#utility.yul\":22373:22480   */\n      iszero\n      tag_491\n      jumpi\n        /* \"#utility.yul\":22460:22478   */\n      tag_492\n      tag_493\n      jump\t// in\n    tag_492:\n        /* \"#utility.yul\":22373:22480   */\n    tag_491:\n        /* \"#utility.yul\":22504:22505   */\n      dup3\n        /* \"#utility.yul\":22501:22502   */\n      dup3\n        /* \"#utility.yul\":22497:22506   */\n      add\n        /* \"#utility.yul\":22490:22506   */\n      swap1\n      pop\n        /* \"#utility.yul\":22207:22512   */\n      swap3\n      swap2\n      pop\n      pop\n      jump\t// out\n        /* \"#utility.yul\":22518:22703   */\n    tag_153:\n        /* \"#utility.yul\":22558:22559   */\n      0x00\n        /* \"#utility.yul\":22575:22595   */\n      tag_495\n        /* \"#utility.yul\":22593:22594   */\n      dup3\n        /* \"#utility.yul\":22575:22595   */\n      tag_422\n      jump\t// in\n    tag_495:\n        /* \"#utility.yul\":22570:22595   */\n      swap2\n      pop\n        /* \"#utility.yul\":22609:22629   */\n      tag_496\n        /* \"#utility.yul\":22627:22628   */\n      dup4\n        /* \"#utility.yul\":22609:22629   */\n      tag_422\n      jump\t// in\n    tag_496:\n        /* \"#utility.yul\":22604:22629   */\n      swap3\n      pop\n        /* \"#utility.yul\":22648:22649   */\n      dup3\n        /* \"#utility.yul\":22638:22673   */\n      tag_497\n      jumpi\n        /* \"#utility.yul\":22653:22671   */\n      tag_498\n      tag_499\n      jump\t// in\n    tag_498:\n        /* \"#utility.yul\":22638:22673   */\n    tag_497:\n        /* \"#utility.yul\":22695:22696   */\n      dup3\n        /* \"#utility.yul\":22692:22693   */\n      dup3\n        /* \"#utility.yul\":22688:22697   */\n      div\n        /* \"#utility.yul\":22683:22697   */\n      swap1\n      pop\n        /* \"#utility.yul\":22518:22703   */\n      swap3\n      swap2\n      pop\n      pop\n      jump\t// out\n        /* \"#utility.yul\":22709:23057   */\n    tag_155:\n        /* \"#utility.yul\":22749:22756   */\n      0x00\n        /* \"#utility.yul\":22772:22792   */\n      tag_501\n        /* \"#utility.yul\":22790:22791   */\n      dup3\n        /* \"#utility.yul\":22772:22792   */\n      tag_422\n      jump\t// in\n    tag_501:\n        /* \"#utility.yul\":22767:22792   */\n      swap2\n      pop\n        /* \"#utility.yul\":22806:22826   */\n      tag_502\n        /* \"#utility.yul\":22824:22825   */\n      dup4\n        /* \"#utility.yul\":22806:22826   */\n      tag_422\n      jump\t// in\n    tag_502:\n        /* \"#utility.yul\":22801:22826   */\n      swap3\n      pop\n        /* \"#utility.yul\":22994:22995   */\n      dup2\n        /* \"#utility.yul\":22926:22992   */\n      0xffffffffffffffffffffffffffffffffffffffffffffffffffffffffffffffff\n        /* \"#utility.yul\":22922:22996   */\n      div\n        /* \"#utility.yul\":22919:22920   */\n      dup4\n        /* \"#utility.yul\":22916:22997   */\n      gt\n        /* \"#utility.yul\":22911:22912   */\n      dup3\n        /* \"#utility.yul\":22904:22913   */\n      iszero\n        /* \"#utility.yul\":22897:22914   */\n      iszero\n        /* \"#utility.yul\":22893:22998   */\n      and\n        /* \"#utility.yul\":22890:23021   */\n      iszero\n      tag_503\n      jumpi\n        /* \"#utility.yul\":23001:23019   */\n      tag_504\n      tag_493\n      jump\t// in\n    tag_504:\n        /* \"#utility.yul\":22890:23021   */\n    tag_503:\n        /* \"#utility.yul\":23049:23050   */\n      dup3\n        /* \"#utility.yul\":23046:23047   */\n      dup3\n        /* \"#utility.yul\":23042:23051   */\n      mul\n        /* \"#utility.yul\":23031:23051   */\n      swap1\n      pop\n        /* \"#utility.yul\":22709:23057   */\n      swap3\n      swap2\n      pop\n      pop\n      jump\t// out\n        /* \"#utility.yul\":23063:23159   */\n    tag_321:\n        /* \"#utility.yul\":23100:23107   */\n      0x00\n        /* \"#utility.yul\":23129:23153   */\n      tag_506\n        /* \"#utility.yul\":23147:23152   */\n      dup3\n        /* \"#utility.yul\":23129:23153   */\n      tag_507\n      jump\t// in\n    tag_506:\n        /* \"#utility.yul\":23118:23153   */\n      swap1\n      pop\n        /* \"#utility.yul\":23063:23159   */\n      swap2\n      swap1\n      pop\n      jump\t// out\n        /* \"#utility.yul\":23165:23255   */\n    tag_342:\n        /* \"#utility.yul\":23199:23206   */\n      0x00\n        /* \"#utility.yul\":23242:23247   */\n      dup2\n        /* \"#utility.yul\":23235:23248   */\n      iszero\n        /* \"#utility.yul\":23228:23249   */\n      iszero\n        /* \"#utility.yul\":23217:23249   */\n      swap1\n      pop\n        /* \"#utility.yul\":23165:23255   */\n      swap2\n      swap1\n      pop\n      jump\t// out\n        /* \"#utility.yul\":23261:23338   */\n    tag_349:\n        /* \"#utility.yul\":23298:23305   */\n      0x00\n        /* \"#utility.yul\":23327:23332   */\n      dup2\n        /* \"#utility.yul\":23316:23332   */\n      swap1\n      pop\n        /* \"#utility.yul\":23261:23338   */\n      swap2\n      swap1\n      pop\n      jump\t// out\n        /* \"#utility.yul\":23344:23470   */\n    tag_507:\n        /* \"#utility.yul\":23381:23388   */\n      0x00\n        /* \"#utility.yul\":23421:23463   */\n      0xffffffffffffffffffffffffffffffffffffffff\n        /* \"#utility.yul\":23414:23419   */\n      dup3\n        /* \"#utility.yul\":23410:23464   */\n      and\n        /* \"#utility.yul\":23399:23464   */\n      swap1\n      pop\n        /* \"#utility.yul\":23344:23470   */\n      swap2\n      swap1\n      pop\n      jump\t// out\n        /* \"#utility.yul\":23476:23553   */\n    tag_422:\n        /* \"#utility.yul\":23513:23520   */\n      0x00\n        /* \"#utility.yul\":23542:23547   */\n      dup2\n        /* \"#utility.yul\":23531:23547   */\n      swap1\n      pop\n        /* \"#utility.yul\":23476:23553   */\n      swap2\n      swap1\n      pop\n      jump\t// out\n        /* \"#utility.yul\":23559:23645   */\n    tag_512:\n        /* \"#utility.yul\":23594:23601   */\n      0x00\n        /* \"#utility.yul\":23634:23638   */\n      0xff\n        /* \"#utility.yul\":23627:23632   */\n      dup3\n        /* \"#utility.yul\":23623:23639   */\n      and\n        /* \"#utility.yul\":23612:23639   */\n      swap1\n      pop\n        /* \"#utility.yul\":23559:23645   */\n      swap2\n      swap1\n      pop\n      jump\t// out\n        /* \"#utility.yul\":23651:23805   */\n    tag_249:\n        /* \"#utility.yul\":23735:23741   */\n      dup3\n        /* \"#utility.yul\":23730:23733   */\n      dup2\n        /* \"#utility.yul\":23725:23728   */\n      dup4\n        /* \"#utility.yul\":23712:23742   */\n      calldatacopy\n        /* \"#utility.yul\":23797:23798   */\n      0x00\n        /* \"#utility.yul\":23788:23794   */\n      dup4\n        /* \"#utility.yul\":23783:23786   */\n      dup4\n        /* \"#utility.yul\":23779:23795   */\n      add\n        /* \"#utility.yul\":23772:23799   */\n      mstore\n        /* \"#utility.yul\":23651:23805   */\n      pop\n      pop\n      pop\n      jump\t// out\n        /* \"#utility.yul\":23811:24118   */\n    tag_357:\n        /* \"#utility.yul\":23879:23880   */\n      0x00\n        /* \"#utility.yul\":23889:24002   */\n    tag_516:\n        /* \"#utility.yul\":23903:23909   */\n      dup4\n        /* \"#utility.yul\":23900:23901   */\n      dup2\n        /* \"#utility.yul\":23897:23910   */\n      lt\n        /* \"#utility.yul\":23889:24002   */\n      iszero\n      tag_518\n      jumpi\n        /* \"#utility.yul\":23988:23989   */\n      dup1\n        /* \"#utility.yul\":23983:23986   */\n      dup3\n        /* \"#utility.yul\":23979:23990   */\n      add\n        /* \"#utility.yul\":23973:23991   */\n      mload\n        /* \"#utility.yul\":23969:23970   */\n      dup2\n        /* \"#utility.yul\":23964:23967   */\n      dup5\n        /* \"#utility.yul\":23960:23971   */\n      add\n        /* \"#utility.yul\":23953:23992   */\n      mstore\n        /* \"#utility.yul\":23925:23927   */\n      0x20\n        /* \"#utility.yul\":23922:23923   */\n      dup2\n        /* \"#utility.yul\":23918:23928   */\n      add\n        /* \"#utility.yul\":23913:23928   */\n      swap1\n      pop\n        /* \"#utility.yul\":23889:24002   */\n      jump(tag_516)\n    tag_518:\n        /* \"#utility.yul\":24020:24026   */\n      dup4\n        /* \"#utility.yul\":24017:24018   */\n      dup2\n        /* \"#utility.yul\":24014:24027   */\n      gt\n        /* \"#utility.yul\":24011:24112   */\n      iszero\n      tag_519\n      jumpi\n        /* \"#utility.yul\":24100:24101   */\n      0x00\n        /* \"#utility.yul\":24091:24097   */\n      dup5\n        /* \"#utility.yul\":24086:24089   */\n      dup5\n        /* \"#utility.yul\":24082:24098   */\n      add\n        /* \"#utility.yul\":24075:24102   */\n      mstore\n        /* \"#utility.yul\":24011:24112   */\n    tag_519:\n        /* \"#utility.yul\":23860:24118   */\n      pop\n        /* \"#utility.yul\":23811:24118   */\n      pop\n      pop\n      pop\n      jump\t// out\n        /* \"#utility.yul\":24124:24444   */\n    tag_197:\n        /* \"#utility.yul\":24168:24174   */\n      0x00\n        /* \"#utility.yul\":24205:24206   */\n      0x02\n        /* \"#utility.yul\":24199:24203   */\n      dup3\n        /* \"#utility.yul\":24195:24207   */\n      div\n        /* \"#utility.yul\":24185:24207   */\n      swap1\n      pop\n        /* \"#utility.yul\":24252:24253   */\n      0x01\n        /* \"#utility.yul\":24246:24250   */\n      dup3\n        /* \"#utility.yul\":24242:24254   */\n      and\n        /* \"#utility.yul\":24273:24291   */\n      dup1\n        /* \"#utility.yul\":24263:24344   */\n      tag_521\n      jumpi\n        /* \"#utility.yul\":24329:24333   */\n      0x7f\n        /* \"#utility.yul\":24321:24327   */\n      dup3\n        /* \"#utility.yul\":24317:24334   */\n      and\n        /* \"#utility.yul\":24307:24334   */\n      swap2\n      pop\n        /* \"#utility.yul\":24263:24344   */\n    tag_521:\n        /* \"#utility.yul\":24391:24393   */\n      0x20\n        /* \"#utility.yul\":24383:24389   */\n      dup3\n        /* \"#utility.yul\":24380:24394   */\n      lt\n        /* \"#utility.yul\":24360:24378   */\n      dup2\n        /* \"#utility.yul\":24357:24395   */\n      eq\n        /* \"#utility.yul\":24354:24438   */\n      iszero\n      tag_522\n      jumpi\n        /* \"#utility.yul\":24410:24428   */\n      tag_523\n      tag_524\n      jump\t// in\n    tag_523:\n        /* \"#utility.yul\":24354:24438   */\n    tag_522:\n        /* \"#utility.yul\":24175:24444   */\n      pop\n        /* \"#utility.yul\":24124:24444   */\n      swap2\n      swap1\n      pop\n      jump\t// out\n        /* \"#utility.yul\":24450:24731   */\n    tag_475:\n        /* \"#utility.yul\":24533:24560   */\n      tag_526\n        /* \"#utility.yul\":24555:24559   */\n      dup3\n        /* \"#utility.yul\":24533:24560   */\n      tag_359\n      jump\t// in\n    tag_526:\n        /* \"#utility.yul\":24525:24531   */\n      dup2\n        /* \"#utility.yul\":24521:24561   */\n      add\n        /* \"#utility.yul\":24663:24669   */\n      dup2\n        /* \"#utility.yul\":24651:24661   */\n      dup2\n        /* \"#utility.yul\":24648:24670   */\n      lt\n        /* \"#utility.yul\":24627:24645   */\n      0xffffffffffffffff\n        /* \"#utility.yul\":24615:24625   */\n      dup3\n        /* \"#utility.yul\":24612:24646   */\n      gt\n        /* \"#utility.yul\":24609:24671   */\n      or\n        /* \"#utility.yul\":24606:24694   */\n      iszero\n      tag_527\n      jumpi\n        /* \"#utility.yul\":24674:24692   */\n      tag_528\n      tag_480\n      jump\t// in\n    tag_528:\n        /* \"#utility.yul\":24606:24694   */\n    tag_527:\n        /* \"#utility.yul\":24714:24724   */\n      dup1\n        /* \"#utility.yul\":24710:24712   */\n      0x40\n        /* \"#utility.yul\":24703:24725   */\n      mstore\n        /* \"#utility.yul\":24493:24731   */\n      pop\n        /* \"#utility.yul\":24450:24731   */\n      pop\n      pop\n      jump\t// out\n        /* \"#utility.yul\":24737:24904   */\n    tag_170:\n        /* \"#utility.yul\":24774:24777   */\n      0x00\n        /* \"#utility.yul\":24797:24819   */\n      tag_530\n        /* \"#utility.yul\":24813:24818   */\n      dup3\n        /* \"#utility.yul\":24797:24819   */\n      tag_512\n      jump\t// in\n    tag_530:\n        /* \"#utility.yul\":24788:24819   */\n      swap2\n      pop\n        /* \"#utility.yul\":24841:24845   */\n      0xff\n        /* \"#utility.yul\":24834:24839   */\n      dup3\n        /* \"#utility.yul\":24831:24846   */\n      eq\n        /* \"#utility.yul\":24828:24869   */\n      iszero\n      tag_531\n      jumpi\n        /* \"#utility.yul\":24849:24867   */\n      tag_532\n      tag_493\n      jump\t// in\n    tag_532:\n        /* \"#utility.yul\":24828:24869   */\n    tag_531:\n        /* \"#utility.yul\":24896:24897   */\n      0x01\n        /* \"#utility.yul\":24889:24894   */\n      dup3\n        /* \"#utility.yul\":24885:24898   */\n      add\n        /* \"#utility.yul\":24878:24898   */\n      swap1\n      pop\n        /* \"#utility.yul\":24737:24904   */\n      swap2\n      swap1\n      pop\n      jump\t// out\n        /* \"#utility.yul\":24910:25090   */\n    tag_493:\n        /* \"#utility.yul\":24958:25035   */\n      0x4e487b7100000000000000000000000000000000000000000000000000000000\n        /* \"#utility.yul\":24955:24956   */\n      0x00\n        /* \"#utility.yul\":24948:25036   */\n      mstore\n        /* \"#utility.yul\":25055:25059   */\n      0x11\n        /* \"#utility.yul\":25052:25053   */\n      0x04\n        /* \"#utility.yul\":25045:25060   */\n      mstore\n        /* \"#utility.yul\":25079:25083   */\n      0x24\n        /* \"#utility.yul\":25076:25077   */\n      0x00\n        /* \"#utility.yul\":25069:25084   */\n      revert\n        /* \"#utility.yul\":25096:25276   */\n    tag_499:\n        /* \"#utility.yul\":25144:25221   */\n      0x4e487b7100000000000000000000000000000000000000000000000000000000\n        /* \"#utility.yul\":25141:25142   */\n      0x00\n        /* \"#utility.yul\":25134:25222   */\n      mstore\n        /* \"#utility.yul\":25241:25245   */\n      0x12\n        /* \"#utility.yul\":25238:25239   */\n      0x04\n        /* \"#utility.yul\":25231:25246   */\n      mstore\n        /* \"#utility.yul\":25265:25269   */\n      0x24\n        /* \"#utility.yul\":25262:25263   */\n      0x00\n        /* \"#utility.yul\":25255:25270   */\n      revert\n        /* \"#utility.yul\":25282:25462   */\n    tag_524:\n        /* \"#utility.yul\":25330:25407   */\n      0x4e487b7100000000000000000000000000000000000000000000000000000000\n        /* \"#utility.yul\":25327:25328   */\n      0x00\n        /* \"#utility.yul\":25320:25408   */\n      mstore\n        /* \"#utility.yul\":25427:25431   */\n      0x22\n        /* \"#utility.yul\":25424:25425   */\n      0x04\n        /* \"#utility.yul\":25417:25432   */\n      mstore\n        /* \"#utility.yul\":25451:25455   */\n      0x24\n        /* \"#utility.yul\":25448:25449   */\n      0x00\n        /* \"#utility.yul\":25441:25456   */\n      revert\n        /* \"#utility.yul\":25468:25648   */\n    tag_162:\n        /* \"#utility.yul\":25516:25593   */\n      0x4e487b7100000000000000000000000000000000000000000000000000000000\n        /* \"#utility.yul\":25513:25514   */\n      0x00\n        /* \"#utility.yul\":25506:25594   */\n      mstore\n        /* \"#utility.yul\":25613:25617   */\n      0x32\n        /* \"#utility.yul\":25610:25611   */\n      0x04\n        /* \"#utility.yul\":25603:25618   */\n      mstore\n        /* \"#utility.yul\":25637:25641   */\n      0x24\n        /* \"#utility.yul\":25634:25635   */\n      0x00\n        /* \"#utility.yul\":25627:25642   */\n      revert\n        /* \"#utility.yul\":25654:25834   */\n    tag_480:\n        /* \"#utility.yul\":25702:25779   */\n      0x4e487b7100000000000000000000000000000000000000000000000000000000\n        /* \"#utility.yul\":25699:25700   */\n      0x00\n        /* \"#utility.yul\":25692:25780   */\n      mstore\n        /* \"#utility.yul\":25799:25803   */\n      0x41\n        /* \"#utility.yul\":25796:25797   */\n      0x04\n        /* \"#utility.yul\":25789:25804   */\n      mstore\n        /* \"#utility.yul\":25823:25827   */\n      0x24\n        /* \"#utility.yul\":25820:25821   */\n      0x00\n        /* \"#utility.yul\":25813:25828   */\n      revert\n        /* \"#utility.yul\":25840:25957   */\n    tag_262:\n        /* \"#utility.yul\":25949:25950   */\n      0x00\n        /* \"#utility.yul\":25946:25947   */\n      dup1\n        /* \"#utility.yul\":25939:25951   */\n      revert\n        /* \"#utility.yul\":25963:26080   */\n    tag_247:\n        /* \"#utility.yul\":26072:26073   */\n      0x00\n        /* \"#utility.yul\":26069:26070   */\n      dup1\n        /* \"#utility.yul\":26062:26074   */\n      revert\n        /* \"#utility.yul\":26086:26203   */\n    tag_304:\n        /* \"#utility.yul\":26195:26196   */\n      0x00\n        /* \"#utility.yul\":26192:26193   */\n      dup1\n        /* \"#utility.yul\":26185:26197   */\n      revert\n        /* \"#utility.yul\":26209:26326   */\n    tag_271:\n        /* \"#utility.yul\":26318:26319   */\n      0x00\n        /* \"#utility.yul\":26315:26316   */\n      dup1\n        /* \"#utility.yul\":26308:26320   */\n      revert\n        /* \"#utility.yul\":26332:26434   */\n    tag_359:\n        /* \"#utility.yul\":26373:26379   */\n      0x00\n        /* \"#utility.yul\":26424:26426   */\n      0x1f\n        /* \"#utility.yul\":26420:26427   */\n      not\n        /* \"#utility.yul\":26415:26417   */\n      0x1f\n        /* \"#utility.yul\":26408:26413   */\n      dup4\n        /* \"#utility.yul\":26404:26418   */\n      add\n        /* \"#utility.yul\":26400:26428   */\n      and\n        /* \"#utility.yul\":26390:26428   */\n      swap1\n      pop\n        /* \"#utility.yul\":26332:26434   */\n      swap2\n      swap1\n      pop\n      jump\t// out\n        /* \"#utility.yul\":26440:26621   */\n    tag_364:\n        /* \"#utility.yul\":26580:26613   */\n      0x526563697069656e7420697320616c7265616479207265676973746572656400\n        /* \"#utility.yul\":26576:26577   */\n      0x00\n        /* \"#utility.yul\":26568:26574   */\n      dup3\n        /* \"#utility.yul\":26564:26578   */\n      add\n        /* \"#utility.yul\":26557:26614   */\n      mstore\n        /* \"#utility.yul\":26440:26621   */\n      pop\n      jump\t// out\n        /* \"#utility.yul\":26627:26802   */\n    tag_369:\n        /* \"#utility.yul\":26767:26794   */\n      0x50726f706f73616c20616c726561647920637265617465642100000000000000\n        /* \"#utility.yul\":26763:26764   */\n      0x00\n        /* \"#utility.yul\":26755:26761   */\n      dup3\n        /* \"#utility.yul\":26751:26765   */\n      add\n        /* \"#utility.yul\":26744:26795   */\n      mstore\n        /* \"#utility.yul\":26627:26802   */\n      pop\n      jump\t// out\n        /* \"#utility.yul\":26808:27033   */\n    tag_374:\n        /* \"#utility.yul\":26948:26982   */\n      0x596f75206172656e277420617574686f72697a6520746f20636f6d70696c6520\n        /* \"#utility.yul\":26944:26945   */\n      0x00\n        /* \"#utility.yul\":26936:26942   */\n      dup3\n        /* \"#utility.yul\":26932:26946   */\n      add\n        /* \"#utility.yul\":26925:26983   */\n      mstore\n        /* \"#utility.yul\":27017:27025   */\n      0x42756e646c650000000000000000000000000000000000000000000000000000\n        /* \"#utility.yul\":27012:27014   */\n      0x20\n        /* \"#utility.yul\":27004:27010   */\n      dup3\n        /* \"#utility.yul\":27000:27015   */\n      add\n        /* \"#utility.yul\":26993:27026   */\n      mstore\n        /* \"#utility.yul\":26808:27033   */\n      pop\n      jump\t// out\n        /* \"#utility.yul\":27039:27217   */\n    tag_379:\n        /* \"#utility.yul\":27179:27209   */\n      0x596f7520616c72656164792073656e74206120726573706f6e73652e00000000\n        /* \"#utility.yul\":27175:27176   */\n      0x00\n        /* \"#utility.yul\":27167:27173   */\n      dup3\n        /* \"#utility.yul\":27163:27177   */\n      add\n        /* \"#utility.yul\":27156:27210   */\n      mstore\n        /* \"#utility.yul\":27039:27217   */\n      pop\n      jump\t// out\n        /* \"#utility.yul\":27223:27394   */\n    tag_384:\n        /* \"#utility.yul\":27363:27386   */\n      0x496e69746961746f722063616e277420766f7465210000000000000000000000\n        /* \"#utility.yul\":27359:27360   */\n      0x00\n        /* \"#utility.yul\":27351:27357   */\n      dup3\n        /* \"#utility.yul\":27347:27361   */\n      add\n        /* \"#utility.yul\":27340:27387   */\n      mstore\n        /* \"#utility.yul\":27223:27394   */\n      pop\n      jump\t// out\n        /* \"#utility.yul\":27400:27580   */\n    tag_389:\n        /* \"#utility.yul\":27540:27572   */\n      0x596f7520617265206e6f74207265676973746572656420746f20766f74650000\n        /* \"#utility.yul\":27536:27537   */\n      0x00\n        /* \"#utility.yul\":27528:27534   */\n      dup3\n        /* \"#utility.yul\":27524:27538   */\n      add\n        /* \"#utility.yul\":27517:27573   */\n      mstore\n        /* \"#utility.yul\":27400:27580   */\n      pop\n      jump\t// out\n        /* \"#utility.yul\":27586:27809   */\n    tag_394:\n        /* \"#utility.yul\":27726:27760   */\n      0x50726f706f73616c206861732072656163686564206974732065787069727920\n        /* \"#utility.yul\":27722:27723   */\n      0x00\n        /* \"#utility.yul\":27714:27720   */\n      dup3\n        /* \"#utility.yul\":27710:27724   */\n      add\n        /* \"#utility.yul\":27703:27761   */\n      mstore\n        /* \"#utility.yul\":27795:27801   */\n      0x6461746500000000000000000000000000000000000000000000000000000000\n        /* \"#utility.yul\":27790:27792   */\n      0x20\n        /* \"#utility.yul\":27782:27788   */\n      dup3\n        /* \"#utility.yul\":27778:27793   */\n      add\n        /* \"#utility.yul\":27771:27802   */\n      mstore\n        /* \"#utility.yul\":27586:27809   */\n      pop\n      jump\t// out\n        /* \"#utility.yul\":27815:28042   */\n    tag_399:\n        /* \"#utility.yul\":27955:27989   */\n      0x4f6e6c7920696e69746961746f722063616e2072656769737465722061207265\n        /* \"#utility.yul\":27951:27952   */\n      0x00\n        /* \"#utility.yul\":27943:27949   */\n      dup3\n        /* \"#utility.yul\":27939:27953   */\n      add\n        /* \"#utility.yul\":27932:27990   */\n      mstore\n        /* \"#utility.yul\":28024:28034   */\n      0x63697069656e742e000000000000000000000000000000000000000000000000\n        /* \"#utility.yul\":28019:28021   */\n      0x20\n        /* \"#utility.yul\":28011:28017   */\n      dup3\n        /* \"#utility.yul\":28007:28022   */\n      add\n        /* \"#utility.yul\":28000:28035   */\n      mstore\n        /* \"#utility.yul\":27815:28042   */\n      pop\n      jump\t// out\n        /* \"#utility.yul\":28048:28230   */\n    tag_404:\n        /* \"#utility.yul\":28188:28222   */\n      0x5665726469637420686173206e6f74206265656e207265616368656420796574\n        /* \"#utility.yul\":28184:28185   */\n      0x00\n        /* \"#utility.yul\":28176:28182   */\n      dup3\n        /* \"#utility.yul\":28172:28186   */\n      add\n        /* \"#utility.yul\":28165:28223   */\n      mstore\n        /* \"#utility.yul\":28048:28230   */\n      pop\n      jump\t// out\n        /* \"#utility.yul\":28236:28404   */\n    tag_409:\n        /* \"#utility.yul\":28376:28396   */\n      0x566f74696e672068617320657870697265640000000000000000000000000000\n        /* \"#utility.yul\":28372:28373   */\n      0x00\n        /* \"#utility.yul\":28364:28370   */\n      dup3\n        /* \"#utility.yul\":28360:28374   */\n      add\n        /* \"#utility.yul\":28353:28397   */\n      mstore\n        /* \"#utility.yul\":28236:28404   */\n      pop\n      jump\t// out\n        /* \"#utility.yul\":28410:28634   */\n    tag_414:\n        /* \"#utility.yul\":28550:28584   */\n      0x436f6e73656e7375732068617320616c7265616479206265656e2063616c6375\n        /* \"#utility.yul\":28546:28547   */\n      0x00\n        /* \"#utility.yul\":28538:28544   */\n      dup3\n        /* \"#utility.yul\":28534:28548   */\n      add\n        /* \"#utility.yul\":28527:28585   */\n      mstore\n        /* \"#utility.yul\":28619:28626   */\n      0x6c61746564000000000000000000000000000000000000000000000000000000\n        /* \"#utility.yul\":28614:28616   */\n      0x20\n        /* \"#utility.yul\":28606:28612   */\n      dup3\n        /* \"#utility.yul\":28602:28617   */\n      add\n        /* \"#utility.yul\":28595:28627   */\n      mstore\n        /* \"#utility.yul\":28410:28634   */\n      pop\n      jump\t// out\n        /* \"#utility.yul\":28640:28762   */\n    tag_253:\n        /* \"#utility.yul\":28713:28737   */\n      tag_555\n        /* \"#utility.yul\":28731:28736   */\n      dup2\n        /* \"#utility.yul\":28713:28737   */\n      tag_321\n      jump\t// in\n    tag_555:\n        /* \"#utility.yul\":28706:28711   */\n      dup2\n        /* \"#utility.yul\":28703:28738   */\n      eq\n        /* \"#utility.yul\":28693:28756   */\n      tag_556\n      jumpi\n        /* \"#utility.yul\":28752:28753   */\n      0x00\n        /* \"#utility.yul\":28749:28750   */\n      dup1\n        /* \"#utility.yul\":28742:28754   */\n      revert\n        /* \"#utility.yul\":28693:28756   */\n    tag_556:\n        /* \"#utility.yul\":28640:28762   */\n      pop\n      jump\t// out\n        /* \"#utility.yul\":28768:28890   */\n    tag_257:\n        /* \"#utility.yul\":28841:28865   */\n      tag_558\n        /* \"#utility.yul\":28859:28864   */\n      dup2\n        /* \"#utility.yul\":28841:28865   */\n      tag_349\n      jump\t// in\n    tag_558:\n        /* \"#utility.yul\":28834:28839   */\n      dup2\n        /* \"#utility.yul\":28831:28866   */\n      eq\n        /* \"#utility.yul\":28821:28884   */\n      tag_559\n      jumpi\n        /* \"#utility.yul\":28880:28881   */\n      0x00\n        /* \"#utility.yul\":28877:28878   */\n      dup1\n        /* \"#utility.yul\":28870:28882   */\n      revert\n        /* \"#utility.yul\":28821:28884   */\n    tag_559:\n        /* \"#utility.yul\":28768:28890   */\n      pop\n      jump\t// out\n        /* \"#utility.yul\":28896:29018   */\n    tag_267:\n        /* \"#utility.yul\":28969:28993   */\n      tag_561\n        /* \"#utility.yul\":28987:28992   */\n      dup2\n        /* \"#utility.yul\":28969:28993   */\n      tag_422\n      jump\t// in\n    tag_561:\n        /* \"#utility.yul\":28962:28967   */\n      dup2\n        /* \"#utility.yul\":28959:28994   */\n      eq\n        /* \"#utility.yul\":28949:29012   */\n      tag_562\n      jumpi\n        /* \"#utility.yul\":29008:29009   */\n      0x00\n        /* \"#utility.yul\":29005:29006   */\n      dup1\n        /* \"#utility.yul\":28998:29010   */\n      revert\n        /* \"#utility.yul\":28949:29012   */\n    tag_562:\n        /* \"#utility.yul\":28896:29018   */\n      pop\n      jump\t// out\n\n    auxdata: 0xa264697066735822122091ec723a75de22ac50982251801ae39d1ba1e407a2a881b8118683b6a3b9b75d64736f6c63430008070033\n}\n",
				"bytecode": {
					"linkReferences": {},
					"object": "608060405234801561001057600080fd5b50612f82806100206000396000f3fe608060405234801561001057600080fd5b50600436106101425760003560e01c8063823a6366116100b8578063a88361c61161007c578063a88361c614610429578063d443560a14610445578063d468f98314610475578063e463eaee14610491578063e5d009bf146104c1578063f20ca12c146104f157610142565b8063823a63661461034a5780638acc0d101461037a57806397299e9914610396578063a4a8f426146103c7578063a784ef74146103f757610142565b80635273bc481161010a5780635273bc481461023e57806356c583d81461026e5780637a099c6a1461029e5780637d6c570a146102ce5780637ff4c389146102ea57806381d0e37b1461031a57610142565b806313191ade1461014757806327f0ae921461017757806333dfd126146101aa57806338c20a9e146101dc5780634fd3b4451461020c575b600080fd5b610161600480360381019061015c9190612125565b610521565b60405161016e91906128c7565b60405180910390f35b610191600480360381019061018c9190612125565b610539565b6040516101a194939291906126ae565b60405180910390f35b6101c460048036038101906101bf91906121d2565b6106de565b6040516101d393929190612677565b60405180910390f35b6101f660048036038101906101f19190612125565b610767565b6040516102039190612625565b60405180910390f35b61022660048036038101906102219190612192565b610787565b60405161023593929190612640565b60405180910390f35b61025860048036038101906102539190612125565b610804565b6040516102659190612625565b60405180910390f35b61028860048036038101906102839190612125565b61082e565b60405161029591906128c7565b60405180910390f35b6102b860048036038101906102b39190612125565b610846565b6040516102c591906128c7565b60405180910390f35b6102e860048036038101906102e39190612125565b61085e565b005b61030460048036038101906102ff9190612192565b610db7565b604051610311919061260a565b60405180910390f35b610334600480360381019061032f9190612125565b610e05565b60405161034191906128c7565b60405180910390f35b610364600480360381019061035f9190612125565b610e1d565b6040516103719190612625565b60405180910390f35b610394600480360381019061038f91906122e2565b610e3d565b005b6103b060048036038101906103ab9190612125565b6116f9565b6040516103be929190612715565b60405180910390f35b6103e160048036038101906103dc9190612125565b6117b9565b6040516103ee9190612745565b60405180910390f35b610411600480360381019061040c9190612152565b611859565b60405161042093929190612640565b60405180910390f35b610443600480360381019061043e9190612239565b6118ca565b005b61045f600480360381019061045a9190612125565b611b11565b60405161046c919061260a565b60405180910390f35b61048f600480360381019061048a91906120e5565b611b44565b005b6104ab60048036038101906104a69190612125565b611f4b565b6040516104b891906128c7565b60405180910390f35b6104db60048036038101906104d69190612125565b611f63565b6040516104e891906126fa565b60405180910390f35b61050b60048036038101906105069190612125565b611f7b565b60405161051891906126fa565b60405180910390f35b60036020528060005260406000206000915090505481565b600080600060606004600086815260200190815260200160002054421015610596576040517f08c379a000000000000000000000000000000000000000000000000000000000815260040161058d90612867565b60405180910390fd5b6000600c6000878152602001908152602001600020805480602002602001604051908101604052809291908181526020016000905b82821015610685578382906000526020600020016040518060600160405290816000820160009054906101000a900460ff161515151581526020016000820160019054906101000a900460ff161515151581526020016000820160029054906101000a900473ffffffffffffffffffffffffffffffffffffffff1673ffffffffffffffffffffffffffffffffffffffff1673ffffffffffffffffffffffffffffffffffffffff1681525050815260200190600101906105cb565b50505050905060006009600088815260200190815260200160002060009054906101000a900460ff1690506000600260008981526020019081526020016000205490508188828596509650965096505050509193509193565b60008060008060019050600060019050600060019050600760008b815260200190815260200160002054891461071357600092505b600560008b815260200190815260200160002054871461073257600091505b87600360008c8152602001908152602001600020541461075157600090505b8282829550955095505050509450945094915050565b60096020528060005260406000206000915054906101000a900460ff1681565b600c60205281600052604060002081815481106107a357600080fd5b90600052602060002001600091509150508060000160009054906101000a900460ff16908060000160019054906101000a900460ff16908060000160029054906101000a900473ffffffffffffffffffffffffffffffffffffffff16905083565b6000600a600083815260200190815260200160002060009054906101000a900460ff169050919050565b60046020528060005260406000206000915090505481565b60076020528060005260406000206000915090505481565b60046000828152602001908152602001600020544210156108b4576040517f08c379a00000000000000000000000000000000000000000000000000000000081526004016108ab90612867565b60405180910390fd5b60001515600a600083815260200190815260200160002060009054906101000a900460ff1615151461091b576040517f08c379a0000000000000000000000000000000000000000000000000000000008152600401610912906128a7565b60405180910390fd5b60008082815260200190815260200160002060009054906101000a900473ffffffffffffffffffffffffffffffffffffffff1673ffffffffffffffffffffffffffffffffffffffff163373ffffffffffffffffffffffffffffffffffffffff161480610a275750600073ffffffffffffffffffffffffffffffffffffffff16600b600083815260200190815260200160002060003373ffffffffffffffffffffffffffffffffffffffff1673ffffffffffffffffffffffffffffffffffffffff16815260200190815260200160002060000160029054906101000a900473ffffffffffffffffffffffffffffffffffffffff1673ffffffffffffffffffffffffffffffffffffffff1614155b610a66576040517f08c379a0000000000000000000000000000000000000000000000000000000008152600401610a5d906127a7565b60405180910390fd5b60006064600d6000848152602001908152602001600020805490506006600085815260200190815260200160002054610a9f91906129e3565b610aa99190612a14565b905060076000838152602001908152602001600020548110610af25760016009600084815260200190815260200160002060006101000a81548160ff0219169083151502179055505b60005b600d6000848152602001908152602001600020805490508160ff161015610d865760001515600b60008581526020019081526020016000206000600d60008781526020019081526020016000208460ff1681548110610b5757610b56612c29565b5b9060005260206000200160009054906101000a900473ffffffffffffffffffffffffffffffffffffffff1673ffffffffffffffffffffffffffffffffffffffff1673ffffffffffffffffffffffffffffffffffffffff16815260200190815260200160002060000160009054906101000a900460ff1615151415610d7357600c6000848152602001908152602001600020600b60008581526020019081526020016000206000600d60008781526020019081526020016000208460ff1681548110610c2557610c24612c29565b5b9060005260206000200160009054906101000a900473ffffffffffffffffffffffffffffffffffffffff1673ffffffffffffffffffffffffffffffffffffffff1673ffffffffffffffffffffffffffffffffffffffff168152602001908152602001600020908060018154018082558091505060019003906000526020600020016000909190919091506000820160009054906101000a900460ff168160000160006101000a81548160ff0219169083151502179055506000820160019054906101000a900460ff168160000160016101000a81548160ff0219169083151502179055506000820160029054906101000a900473ffffffffffffffffffffffffffffffffffffffff168160000160026101000a81548173ffffffffffffffffffffffffffffffffffffffff021916908373ffffffffffffffffffffffffffffffffffffffff16021790555050505b8080610d7e90612b72565b915050610af5565b506001600a600084815260200190815260200160002060006101000a81548160ff0219169083151502179055505050565b600d6020528160005260406000208181548110610dd357600080fd5b906000526020600020016000915091509054906101000a900473ffffffffffffffffffffffffffffffffffffffff1681565b60026020528060005260406000206000915090505481565b600a6020528060005260406000206000915054906101000a900460ff1681565b60046000828152602001908152602001600020544210610e92576040517f08c379a0000000000000000000000000000000000000000000000000000000008152600401610e8990612887565b60405180910390fd5b600073ffffffffffffffffffffffffffffffffffffffff16600b600083815260200190815260200160002060003373ffffffffffffffffffffffffffffffffffffffff1673ffffffffffffffffffffffffffffffffffffffff16815260200190815260200160002060000160029054906101000a900473ffffffffffffffffffffffffffffffffffffffff1673ffffffffffffffffffffffffffffffffffffffff161415610f75576040517f08c379a0000000000000000000000000000000000000000000000000000000008152600401610f6c90612807565b60405180910390fd5b600b600082815260200190815260200160002060003373ffffffffffffffffffffffffffffffffffffffff1673ffffffffffffffffffffffffffffffffffffffff16815260200190815260200160002060000160009054906101000a900460ff1615611016576040517f08c379a000000000000000000000000000000000000000000000000000000000815260040161100d906127c7565b60405180910390fd5b6040518060400160405280600981526020017f6920617070726f7665000000000000000000000000000000000000000000000081525080519060200120828051906020012014156112df576001600b600083815260200190815260200160002060003373ffffffffffffffffffffffffffffffffffffffff1673ffffffffffffffffffffffffffffffffffffffff16815260200190815260200160002060000160006101000a81548160ff0219169083151502179055506001600b600083815260200190815260200160002060003373ffffffffffffffffffffffffffffffffffffffff1673ffffffffffffffffffffffffffffffffffffffff16815260200190815260200160002060000160016101000a81548160ff021916908315150217905550600160066000838152602001908152602001600020600082825461115d919061298d565b925050819055506001600260008381526020019081526020016000206000828254611188919061298d565b92505081905550600c6000828152602001908152602001600020600b600083815260200190815260200160002060003373ffffffffffffffffffffffffffffffffffffffff1673ffffffffffffffffffffffffffffffffffffffff168152602001908152602001600020908060018154018082558091505060019003906000526020600020016000909190919091506000820160009054906101000a900460ff168160000160006101000a81548160ff0219169083151502179055506000820160019054906101000a900460ff168160000160016101000a81548160ff0219169083151502179055506000820160029054906101000a900473ffffffffffffffffffffffffffffffffffffffff168160000160026101000a81548173ffffffffffffffffffffffffffffffffffffffff021916908373ffffffffffffffffffffffffffffffffffffffff16021790555050506116f5565b6040518060400160405280600c81526020017f6920646973617070726f766500000000000000000000000000000000000000008152508051906020012082805190602001201415611511576001600b600083815260200190815260200160002060003373ffffffffffffffffffffffffffffffffffffffff1673ffffffffffffffffffffffffffffffffffffffff16815260200190815260200160002060000160006101000a81548160ff02191690831515021790555060016002600083815260200190815260200160002060008282546113ba919061298d565b92505081905550600c6000828152602001908152602001600020600b600083815260200190815260200160002060003373ffffffffffffffffffffffffffffffffffffffff1673ffffffffffffffffffffffffffffffffffffffff168152602001908152602001600020908060018154018082558091505060019003906000526020600020016000909190919091506000820160009054906101000a900460ff168160000160006101000a81548160ff0219169083151502179055506000820160019054906101000a900460ff168160000160016101000a81548160ff0219169083151502179055506000820160029054906101000a900473ffffffffffffffffffffffffffffffffffffffff168160000160026101000a81548173ffffffffffffffffffffffffffffffffffffffff021916908373ffffffffffffffffffffffffffffffffffffffff16021790555050506116f4565b6001600b600083815260200190815260200160002060003373ffffffffffffffffffffffffffffffffffffffff1673ffffffffffffffffffffffffffffffffffffffff16815260200190815260200160002060000160006101000a81548160ff02191690831515021790555060016002600083815260200190815260200160002060008282546115a1919061298d565b92505081905550600c6000828152602001908152602001600020600b600083815260200190815260200160002060003373ffffffffffffffffffffffffffffffffffffffff1673ffffffffffffffffffffffffffffffffffffffff168152602001908152602001600020908060018154018082558091505060019003906000526020600020016000909190919091506000820160009054906101000a900460ff168160000160006101000a81548160ff0219169083151502179055506000820160019054906101000a900460ff168160000160016101000a81548160ff0219169083151502179055506000820160029054906101000a900473ffffffffffffffffffffffffffffffffffffffff168160000160026101000a81548173ffffffffffffffffffffffffffffffffffffffff021916908373ffffffffffffffffffffffffffffffffffffffff16021790555050505b5b5050565b6000606060016000848152602001908152602001600020546008600085815260200190815260200160002080805461173090612b0f565b80601f016020809104026020016040519081016040528092919081815260200182805461175c90612b0f565b80156117a95780601f1061177e576101008083540402835291602001916117a9565b820191906000526020600020905b81548152906001019060200180831161178c57829003601f168201915b5050505050905091509150915091565b600860205280600052604060002060009150905080546117d890612b0f565b80601f016020809104026020016040519081016040528092919081815260200182805461180490612b0f565b80156118515780601f1061182657610100808354040283529160200191611851565b820191906000526020600020905b81548152906001019060200180831161183457829003601f168201915b505050505081565b600b602052816000526040600020602052806000526040600020600091509150508060000160009054906101000a900460ff16908060000160019054906101000a900460ff16908060000160029054906101000a900473ffffffffffffffffffffffffffffffffffffffff16905083565b600073ffffffffffffffffffffffffffffffffffffffff1660008088815260200190815260200160002060009054906101000a900473ffffffffffffffffffffffffffffffffffffffff1673ffffffffffffffffffffffffffffffffffffffff161461196b576040517f08c379a000000000000000000000000000000000000000000000000000000000815260040161196290612787565b60405180910390fd5b600060026000888152602001908152602001600020819055508442611990919061298d565b60046000888152602001908152602001600020819055508560016000838152602001908152602001600020819055506000600a600088815260200190815260200160002060006101000a81548160ff02191690831515021790555083600760008881526020019081526020016000208190555083600760008381526020019081526020016000208190555060006009600088815260200190815260200160002060006101000a81548160ff02191690831515021790555084600360008381526020019081526020016000208190555082600560008381526020019081526020016000208190555081600860008381526020019081526020016000209080519060200190611a9e929190611f93565b50600060066000888152602001908152602001600020819055503360008088815260200190815260200160002060006101000a81548173ffffffffffffffffffffffffffffffffffffffff021916908373ffffffffffffffffffffffffffffffffffffffff160217905550505050505050565b60006020528060005260406000206000915054906101000a900473ffffffffffffffffffffffffffffffffffffffff1681565b60008082815260200190815260200160002060009054906101000a900473ffffffffffffffffffffffffffffffffffffffff1673ffffffffffffffffffffffffffffffffffffffff163373ffffffffffffffffffffffffffffffffffffffff1614611be4576040517f08c379a0000000000000000000000000000000000000000000000000000000008152600401611bdb90612847565b60405180910390fd5b60008082815260200190815260200160002060009054906101000a900473ffffffffffffffffffffffffffffffffffffffff1673ffffffffffffffffffffffffffffffffffffffff168273ffffffffffffffffffffffffffffffffffffffff161415611c85576040517f08c379a0000000000000000000000000000000000000000000000000000000008152600401611c7c906127e7565b60405180910390fd5b600073ffffffffffffffffffffffffffffffffffffffff16600b600083815260200190815260200160002060008473ffffffffffffffffffffffffffffffffffffffff1673ffffffffffffffffffffffffffffffffffffffff16815260200190815260200160002060000160029054906101000a900473ffffffffffffffffffffffffffffffffffffffff1673ffffffffffffffffffffffffffffffffffffffff1614611d67576040517f08c379a0000000000000000000000000000000000000000000000000000000008152600401611d5e90612767565b60405180910390fd5b60046000828152602001908152602001600020544210611dbc576040517f08c379a0000000000000000000000000000000000000000000000000000000008152600401611db390612827565b60405180910390fd5b600060405180606001604052806000151581526020016000151581526020018473ffffffffffffffffffffffffffffffffffffffff16815250905080600b600084815260200190815260200160002060008573ffffffffffffffffffffffffffffffffffffffff1673ffffffffffffffffffffffffffffffffffffffff16815260200190815260200160002060008201518160000160006101000a81548160ff02191690831515021790555060208201518160000160016101000a81548160ff02191690831515021790555060408201518160000160026101000a81548173ffffffffffffffffffffffffffffffffffffffff021916908373ffffffffffffffffffffffffffffffffffffffff160217905550905050600d6000838152602001908152602001600020839080600181540180825580915050600190039060005260206000200160009091909190916101000a81548173ffffffffffffffffffffffffffffffffffffffff021916908373ffffffffffffffffffffffffffffffffffffffff160217905550505050565b60066020528060005260406000206000915090505481565b60016020528060005260406000206000915090505481565b60056020528060005260406000206000915090505481565b828054611f9f90612b0f565b90600052602060002090601f016020900481019282611fc15760008555612008565b82601f10611fda57805160ff1916838001178555612008565b82800160010185558215612008579182015b82811115612007578251825591602001919060010190611fec565b5b5090506120159190612019565b5090565b5b8082111561203257600081600090555060010161201a565b5090565b600061204961204484612907565b6128e2565b90508281526020810184848401111561206557612064612c8c565b5b612070848285612acd565b509392505050565b60008135905061208781612f07565b92915050565b60008135905061209c81612f1e565b92915050565b600082601f8301126120b7576120b6612c87565b5b81356120c7848260208601612036565b91505092915050565b6000813590506120df81612f35565b92915050565b600080604083850312156120fc576120fb612c96565b5b600061210a85828601612078565b925050602061211b8582860161208d565b9150509250929050565b60006020828403121561213b5761213a612c96565b5b60006121498482850161208d565b91505092915050565b6000806040838503121561216957612168612c96565b5b60006121778582860161208d565b925050602061218885828601612078565b9150509250929050565b600080604083850312156121a9576121a8612c96565b5b60006121b78582860161208d565b92505060206121c8858286016120d0565b9150509250929050565b600080600080608085870312156121ec576121eb612c96565b5b60006121fa8782880161208d565b945050602061220b878288016120d0565b935050604061221c878288016120d0565b925050606061222d8782880161208d565b91505092959194509250565b60008060008060008060c0878903121561225657612255612c96565b5b600061226489828a0161208d565b965050602061227589828a016120d0565b955050604061228689828a016120d0565b945050606061229789828a0161208d565b935050608087013567ffffffffffffffff8111156122b8576122b7612c91565b5b6122c489828a016120a2565b92505060a06122d589828a0161208d565b9150509295509295509295565b600080604083850312156122f9576122f8612c96565b5b600083013567ffffffffffffffff81111561231757612316612c91565b5b612323858286016120a2565b92505060206123348582860161208d565b9150509250929050565b600061234a83836125b9565b60608301905092915050565b61235f81612a6e565b82525050565b61236e81612a6e565b82525050565b600061237f82612948565b612389818561296b565b935061239483612938565b8060005b838110156123c55781516123ac888261233e565b97506123b78361295e565b925050600181019050612398565b5085935050505092915050565b6123db81612a80565b82525050565b6123ea81612a80565b82525050565b6123f981612a8c565b82525050565b600061240a82612953565b612414818561297c565b9350612424818560208601612adc565b61242d81612c9b565b840191505092915050565b6000612445601f8361297c565b915061245082612cac565b602082019050919050565b600061246860198361297c565b915061247382612cd5565b602082019050919050565b600061248b60268361297c565b915061249682612cfe565b604082019050919050565b60006124ae601c8361297c565b91506124b982612d4d565b602082019050919050565b60006124d160158361297c565b91506124dc82612d76565b602082019050919050565b60006124f4601e8361297c565b91506124ff82612d9f565b602082019050919050565b600061251760248361297c565b915061252282612dc8565b604082019050919050565b600061253a60288361297c565b915061254582612e17565b604082019050919050565b600061255d60208361297c565b915061256882612e66565b602082019050919050565b600061258060128361297c565b915061258b82612e8f565b602082019050919050565b60006125a360258361297c565b91506125ae82612eb8565b604082019050919050565b6060820160008201516125cf60008501826123d2565b5060208201516125e260208501826123d2565b5060408201516125f56040850182612356565b50505050565b61260481612ab6565b82525050565b600060208201905061261f6000830184612365565b92915050565b600060208201905061263a60008301846123e1565b92915050565b600060608201905061265560008301866123e1565b61266260208301856123e1565b61266f6040830184612365565b949350505050565b600060608201905061268c60008301866123e1565b61269960208301856123e1565b6126a660408301846123e1565b949350505050565b60006080820190506126c360008301876123e1565b6126d060208301866123f0565b6126dd60408301856125fb565b81810360608301526126ef8184612374565b905095945050505050565b600060208201905061270f60008301846123f0565b92915050565b600060408201905061272a60008301856123f0565b818103602083015261273c81846123ff565b90509392505050565b6000602082019050818103600083015261275f81846123ff565b905092915050565b6000602082019050818103600083015261278081612438565b9050919050565b600060208201905081810360008301526127a08161245b565b9050919050565b600060208201905081810360008301526127c08161247e565b9050919050565b600060208201905081810360008301526127e0816124a1565b9050919050565b60006020820190508181036000830152612800816124c4565b9050919050565b60006020820190508181036000830152612820816124e7565b9050919050565b600060208201905081810360008301526128408161250a565b9050919050565b600060208201905081810360008301526128608161252d565b9050919050565b6000602082019050818103600083015261288081612550565b9050919050565b600060208201905081810360008301526128a081612573565b9050919050565b600060208201905081810360008301526128c081612596565b9050919050565b60006020820190506128dc60008301846125fb565b92915050565b60006128ec6128fd565b90506128f88282612b41565b919050565b6000604051905090565b600067ffffffffffffffff82111561292257612921612c58565b5b61292b82612c9b565b9050602081019050919050565b6000819050602082019050919050565b600081519050919050565b600081519050919050565b6000602082019050919050565b600082825260208201905092915050565b600082825260208201905092915050565b600061299882612ab6565b91506129a383612ab6565b9250827fffffffffffffffffffffffffffffffffffffffffffffffffffffffffffffffff038211156129d8576129d7612b9c565b5b828201905092915050565b60006129ee82612ab6565b91506129f983612ab6565b925082612a0957612a08612bcb565b5b828204905092915050565b6000612a1f82612ab6565b9150612a2a83612ab6565b9250817fffffffffffffffffffffffffffffffffffffffffffffffffffffffffffffffff0483118215151615612a6357612a62612b9c565b5b828202905092915050565b6000612a7982612a96565b9050919050565b60008115159050919050565b6000819050919050565b600073ffffffffffffffffffffffffffffffffffffffff82169050919050565b6000819050919050565b600060ff82169050919050565b82818337600083830152505050565b60005b83811015612afa578082015181840152602081019050612adf565b83811115612b09576000848401525b50505050565b60006002820490506001821680612b2757607f821691505b60208210811415612b3b57612b3a612bfa565b5b50919050565b612b4a82612c9b565b810181811067ffffffffffffffff82111715612b6957612b68612c58565b5b80604052505050565b6000612b7d82612ac0565b915060ff821415612b9157612b90612b9c565b5b600182019050919050565b7f4e487b7100000000000000000000000000000000000000000000000000000000600052601160045260246000fd5b7f4e487b7100000000000000000000000000000000000000000000000000000000600052601260045260246000fd5b7f4e487b7100000000000000000000000000000000000000000000000000000000600052602260045260246000fd5b7f4e487b7100000000000000000000000000000000000000000000000000000000600052603260045260246000fd5b7f4e487b7100000000000000000000000000000000000000000000000000000000600052604160045260246000fd5b600080fd5b600080fd5b600080fd5b600080fd5b6000601f19601f8301169050919050565b7f526563697069656e7420697320616c7265616479207265676973746572656400600082015250565b7f50726f706f73616c20616c726561647920637265617465642100000000000000600082015250565b7f596f75206172656e277420617574686f72697a6520746f20636f6d70696c652060008201527f42756e646c650000000000000000000000000000000000000000000000000000602082015250565b7f596f7520616c72656164792073656e74206120726573706f6e73652e00000000600082015250565b7f496e69746961746f722063616e277420766f7465210000000000000000000000600082015250565b7f596f7520617265206e6f74207265676973746572656420746f20766f74650000600082015250565b7f50726f706f73616c20686173207265616368656420697473206578706972792060008201527f6461746500000000000000000000000000000000000000000000000000000000602082015250565b7f4f6e6c7920696e69746961746f722063616e207265676973746572206120726560008201527f63697069656e742e000000000000000000000000000000000000000000000000602082015250565b7f5665726469637420686173206e6f74206265656e207265616368656420796574600082015250565b7f566f74696e672068617320657870697265640000000000000000000000000000600082015250565b7f436f6e73656e7375732068617320616c7265616479206265656e2063616c637560008201527f6c61746564000000000000000000000000000000000000000000000000000000602082015250565b612f1081612a6e565b8114612f1b57600080fd5b50565b612f2781612a8c565b8114612f3257600080fd5b50565b612f3e81612ab6565b8114612f4957600080fd5b5056fea264697066735822122091ec723a75de22ac50982251801ae39d1ba1e407a2a881b8118683b6a3b9b75d64736f6c63430008070033",
					"opcodes": "PUSH1 0x80 PUSH1 0x40 MSTORE CALLVALUE DUP1 ISZERO PUSH2 0x10 JUMPI PUSH1 0x0 DUP1 REVERT JUMPDEST POP PUSH2 0x2F82 DUP1 PUSH2 0x20 PUSH1 0x0 CODECOPY PUSH1 0x0 RETURN INVALID PUSH1 0x80 PUSH1 0x40 MSTORE CALLVALUE DUP1 ISZERO PUSH2 0x10 JUMPI PUSH1 0x0 DUP1 REVERT JUMPDEST POP PUSH1 0x4 CALLDATASIZE LT PUSH2 0x142 JUMPI PUSH1 0x0 CALLDATALOAD PUSH1 0xE0 SHR DUP1 PUSH4 0x823A6366 GT PUSH2 0xB8 JUMPI DUP1 PUSH4 0xA88361C6 GT PUSH2 0x7C JUMPI DUP1 PUSH4 0xA88361C6 EQ PUSH2 0x429 JUMPI DUP1 PUSH4 0xD443560A EQ PUSH2 0x445 JUMPI DUP1 PUSH4 0xD468F983 EQ PUSH2 0x475 JUMPI DUP1 PUSH4 0xE463EAEE EQ PUSH2 0x491 JUMPI DUP1 PUSH4 0xE5D009BF EQ PUSH2 0x4C1 JUMPI DUP1 PUSH4 0xF20CA12C EQ PUSH2 0x4F1 JUMPI PUSH2 0x142 JUMP JUMPDEST DUP1 PUSH4 0x823A6366 EQ PUSH2 0x34A JUMPI DUP1 PUSH4 0x8ACC0D10 EQ PUSH2 0x37A JUMPI DUP1 PUSH4 0x97299E99 EQ PUSH2 0x396 JUMPI DUP1 PUSH4 0xA4A8F426 EQ PUSH2 0x3C7 JUMPI DUP1 PUSH4 0xA784EF74 EQ PUSH2 0x3F7 JUMPI PUSH2 0x142 JUMP JUMPDEST DUP1 PUSH4 0x5273BC48 GT PUSH2 0x10A JUMPI DUP1 PUSH4 0x5273BC48 EQ PUSH2 0x23E JUMPI DUP1 PUSH4 0x56C583D8 EQ PUSH2 0x26E JUMPI DUP1 PUSH4 0x7A099C6A EQ PUSH2 0x29E JUMPI DUP1 PUSH4 0x7D6C570A EQ PUSH2 0x2CE JUMPI DUP1 PUSH4 0x7FF4C389 EQ PUSH2 0x2EA JUMPI DUP1 PUSH4 0x81D0E37B EQ PUSH2 0x31A JUMPI PUSH2 0x142 JUMP JUMPDEST DUP1 PUSH4 0x13191ADE EQ PUSH2 0x147 JUMPI DUP1 PUSH4 0x27F0AE92 EQ PUSH2 0x177 JUMPI DUP1 PUSH4 0x33DFD126 EQ PUSH2 0x1AA JUMPI DUP1 PUSH4 0x38C20A9E EQ PUSH2 0x1DC JUMPI DUP1 PUSH4 0x4FD3B445 EQ PUSH2 0x20C JUMPI JUMPDEST PUSH1 0x0 DUP1 REVERT JUMPDEST PUSH2 0x161 PUSH1 0x4 DUP1 CALLDATASIZE SUB DUP2 ADD SWAP1 PUSH2 0x15C SWAP2 SWAP1 PUSH2 0x2125 JUMP JUMPDEST PUSH2 0x521 JUMP JUMPDEST PUSH1 0x40 MLOAD PUSH2 0x16E SWAP2 SWAP1 PUSH2 0x28C7 JUMP JUMPDEST PUSH1 0x40 MLOAD DUP1 SWAP2 SUB SWAP1 RETURN JUMPDEST PUSH2 0x191 PUSH1 0x4 DUP1 CALLDATASIZE SUB DUP2 ADD SWAP1 PUSH2 0x18C SWAP2 SWAP1 PUSH2 0x2125 JUMP JUMPDEST PUSH2 0x539 JUMP JUMPDEST PUSH1 0x40 MLOAD PUSH2 0x1A1 SWAP5 SWAP4 SWAP3 SWAP2 SWAP1 PUSH2 0x26AE JUMP JUMPDEST PUSH1 0x40 MLOAD DUP1 SWAP2 SUB SWAP1 RETURN JUMPDEST PUSH2 0x1C4 PUSH1 0x4 DUP1 CALLDATASIZE SUB DUP2 ADD SWAP1 PUSH2 0x1BF SWAP2 SWAP1 PUSH2 0x21D2 JUMP JUMPDEST PUSH2 0x6DE JUMP JUMPDEST PUSH1 0x40 MLOAD PUSH2 0x1D3 SWAP4 SWAP3 SWAP2 SWAP1 PUSH2 0x2677 JUMP JUMPDEST PUSH1 0x40 MLOAD DUP1 SWAP2 SUB SWAP1 RETURN JUMPDEST PUSH2 0x1F6 PUSH1 0x4 DUP1 CALLDATASIZE SUB DUP2 ADD SWAP1 PUSH2 0x1F1 SWAP2 SWAP1 PUSH2 0x2125 JUMP JUMPDEST PUSH2 0x767 JUMP JUMPDEST PUSH1 0x40 MLOAD PUSH2 0x203 SWAP2 SWAP1 PUSH2 0x2625 JUMP JUMPDEST PUSH1 0x40 MLOAD DUP1 SWAP2 SUB SWAP1 RETURN JUMPDEST PUSH2 0x226 PUSH1 0x4 DUP1 CALLDATASIZE SUB DUP2 ADD SWAP1 PUSH2 0x221 SWAP2 SWAP1 PUSH2 0x2192 JUMP JUMPDEST PUSH2 0x787 JUMP JUMPDEST PUSH1 0x40 MLOAD PUSH2 0x235 SWAP4 SWAP3 SWAP2 SWAP1 PUSH2 0x2640 JUMP JUMPDEST PUSH1 0x40 MLOAD DUP1 SWAP2 SUB SWAP1 RETURN JUMPDEST PUSH2 0x258 PUSH1 0x4 DUP1 CALLDATASIZE SUB DUP2 ADD SWAP1 PUSH2 0x253 SWAP2 SWAP1 PUSH2 0x2125 JUMP JUMPDEST PUSH2 0x804 JUMP JUMPDEST PUSH1 0x40 MLOAD PUSH2 0x265 SWAP2 SWAP1 PUSH2 0x2625 JUMP JUMPDEST PUSH1 0x40 MLOAD DUP1 SWAP2 SUB SWAP1 RETURN JUMPDEST PUSH2 0x288 PUSH1 0x4 DUP1 CALLDATASIZE SUB DUP2 ADD SWAP1 PUSH2 0x283 SWAP2 SWAP1 PUSH2 0x2125 JUMP JUMPDEST PUSH2 0x82E JUMP JUMPDEST PUSH1 0x40 MLOAD PUSH2 0x295 SWAP2 SWAP1 PUSH2 0x28C7 JUMP JUMPDEST PUSH1 0x40 MLOAD DUP1 SWAP2 SUB SWAP1 RETURN JUMPDEST PUSH2 0x2B8 PUSH1 0x4 DUP1 CALLDATASIZE SUB DUP2 ADD SWAP1 PUSH2 0x2B3 SWAP2 SWAP1 PUSH2 0x2125 JUMP JUMPDEST PUSH2 0x846 JUMP JUMPDEST PUSH1 0x40 MLOAD PUSH2 0x2C5 SWAP2 SWAP1 PUSH2 0x28C7 JUMP JUMPDEST PUSH1 0x40 MLOAD DUP1 SWAP2 SUB SWAP1 RETURN JUMPDEST PUSH2 0x2E8 PUSH1 0x4 DUP1 CALLDATASIZE SUB DUP2 ADD SWAP1 PUSH2 0x2E3 SWAP2 SWAP1 PUSH2 0x2125 JUMP JUMPDEST PUSH2 0x85E JUMP JUMPDEST STOP JUMPDEST PUSH2 0x304 PUSH1 0x4 DUP1 CALLDATASIZE SUB DUP2 ADD SWAP1 PUSH2 0x2FF SWAP2 SWAP1 PUSH2 0x2192 JUMP JUMPDEST PUSH2 0xDB7 JUMP JUMPDEST PUSH1 0x40 MLOAD PUSH2 0x311 SWAP2 SWAP1 PUSH2 0x260A JUMP JUMPDEST PUSH1 0x40 MLOAD DUP1 SWAP2 SUB SWAP1 RETURN JUMPDEST PUSH2 0x334 PUSH1 0x4 DUP1 CALLDATASIZE SUB DUP2 ADD SWAP1 PUSH2 0x32F SWAP2 SWAP1 PUSH2 0x2125 JUMP JUMPDEST PUSH2 0xE05 JUMP JUMPDEST PUSH1 0x40 MLOAD PUSH2 0x341 SWAP2 SWAP1 PUSH2 0x28C7 JUMP JUMPDEST PUSH1 0x40 MLOAD DUP1 SWAP2 SUB SWAP1 RETURN JUMPDEST PUSH2 0x364 PUSH1 0x4 DUP1 CALLDATASIZE SUB DUP2 ADD SWAP1 PUSH2 0x35F SWAP2 SWAP1 PUSH2 0x2125 JUMP JUMPDEST PUSH2 0xE1D JUMP JUMPDEST PUSH1 0x40 MLOAD PUSH2 0x371 SWAP2 SWAP1 PUSH2 0x2625 JUMP JUMPDEST PUSH1 0x40 MLOAD DUP1 SWAP2 SUB SWAP1 RETURN JUMPDEST PUSH2 0x394 PUSH1 0x4 DUP1 CALLDATASIZE SUB DUP2 ADD SWAP1 PUSH2 0x38F SWAP2 SWAP1 PUSH2 0x22E2 JUMP JUMPDEST PUSH2 0xE3D JUMP JUMPDEST STOP JUMPDEST PUSH2 0x3B0 PUSH1 0x4 DUP1 CALLDATASIZE SUB DUP2 ADD SWAP1 PUSH2 0x3AB SWAP2 SWAP1 PUSH2 0x2125 JUMP JUMPDEST PUSH2 0x16F9 JUMP JUMPDEST PUSH1 0x40 MLOAD PUSH2 0x3BE SWAP3 SWAP2 SWAP1 PUSH2 0x2715 JUMP JUMPDEST PUSH1 0x40 MLOAD DUP1 SWAP2 SUB SWAP1 RETURN JUMPDEST PUSH2 0x3E1 PUSH1 0x4 DUP1 CALLDATASIZE SUB DUP2 ADD SWAP1 PUSH2 0x3DC SWAP2 SWAP1 PUSH2 0x2125 JUMP JUMPDEST PUSH2 0x17B9 JUMP JUMPDEST PUSH1 0x40 MLOAD PUSH2 0x3EE SWAP2 SWAP1 PUSH2 0x2745 JUMP JUMPDEST PUSH1 0x40 MLOAD DUP1 SWAP2 SUB SWAP1 RETURN JUMPDEST PUSH2 0x411 PUSH1 0x4 DUP1 CALLDATASIZE SUB DUP2 ADD SWAP1 PUSH2 0x40C SWAP2 SWAP1 PUSH2 0x2152 JUMP JUMPDEST PUSH2 0x1859 JUMP JUMPDEST PUSH1 0x40 MLOAD PUSH2 0x420 SWAP4 SWAP3 SWAP2 SWAP1 PUSH2 0x2640 JUMP JUMPDEST PUSH1 0x40 MLOAD DUP1 SWAP2 SUB SWAP1 RETURN JUMPDEST PUSH2 0x443 PUSH1 0x4 DUP1 CALLDATASIZE SUB DUP2 ADD SWAP1 PUSH2 0x43E SWAP2 SWAP1 PUSH2 0x2239 JUMP JUMPDEST PUSH2 0x18CA JUMP JUMPDEST STOP JUMPDEST PUSH2 0x45F PUSH1 0x4 DUP1 CALLDATASIZE SUB DUP2 ADD SWAP1 PUSH2 0x45A SWAP2 SWAP1 PUSH2 0x2125 JUMP JUMPDEST PUSH2 0x1B11 JUMP JUMPDEST PUSH1 0x40 MLOAD PUSH2 0x46C SWAP2 SWAP1 PUSH2 0x260A JUMP JUMPDEST PUSH1 0x40 MLOAD DUP1 SWAP2 SUB SWAP1 RETURN JUMPDEST PUSH2 0x48F PUSH1 0x4 DUP1 CALLDATASIZE SUB DUP2 ADD SWAP1 PUSH2 0x48A SWAP2 SWAP1 PUSH2 0x20E5 JUMP JUMPDEST PUSH2 0x1B44 JUMP JUMPDEST STOP JUMPDEST PUSH2 0x4AB PUSH1 0x4 DUP1 CALLDATASIZE SUB DUP2 ADD SWAP1 PUSH2 0x4A6 SWAP2 SWAP1 PUSH2 0x2125 JUMP JUMPDEST PUSH2 0x1F4B JUMP JUMPDEST PUSH1 0x40 MLOAD PUSH2 0x4B8 SWAP2 SWAP1 PUSH2 0x28C7 JUMP JUMPDEST PUSH1 0x40 MLOAD DUP1 SWAP2 SUB SWAP1 RETURN JUMPDEST PUSH2 0x4DB PUSH1 0x4 DUP1 CALLDATASIZE SUB DUP2 ADD SWAP1 PUSH2 0x4D6 SWAP2 SWAP1 PUSH2 0x2125 JUMP JUMPDEST PUSH2 0x1F63 JUMP JUMPDEST PUSH1 0x40 MLOAD PUSH2 0x4E8 SWAP2 SWAP1 PUSH2 0x26FA JUMP JUMPDEST PUSH1 0x40 MLOAD DUP1 SWAP2 SUB SWAP1 RETURN JUMPDEST PUSH2 0x50B PUSH1 0x4 DUP1 CALLDATASIZE SUB DUP2 ADD SWAP1 PUSH2 0x506 SWAP2 SWAP1 PUSH2 0x2125 JUMP JUMPDEST PUSH2 0x1F7B JUMP JUMPDEST PUSH1 0x40 MLOAD PUSH2 0x518 SWAP2 SWAP1 PUSH2 0x26FA JUMP JUMPDEST PUSH1 0x40 MLOAD DUP1 SWAP2 SUB SWAP1 RETURN JUMPDEST PUSH1 0x3 PUSH1 0x20 MSTORE DUP1 PUSH1 0x0 MSTORE PUSH1 0x40 PUSH1 0x0 KECCAK256 PUSH1 0x0 SWAP2 POP SWAP1 POP SLOAD DUP2 JUMP JUMPDEST PUSH1 0x0 DUP1 PUSH1 0x0 PUSH1 0x60 PUSH1 0x4 PUSH1 0x0 DUP7 DUP2 MSTORE PUSH1 0x20 ADD SWAP1 DUP2 MSTORE PUSH1 0x20 ADD PUSH1 0x0 KECCAK256 SLOAD TIMESTAMP LT ISZERO PUSH2 0x596 JUMPI PUSH1 0x40 MLOAD PUSH32 0x8C379A000000000000000000000000000000000000000000000000000000000 DUP2 MSTORE PUSH1 0x4 ADD PUSH2 0x58D SWAP1 PUSH2 0x2867 JUMP JUMPDEST PUSH1 0x40 MLOAD DUP1 SWAP2 SUB SWAP1 REVERT JUMPDEST PUSH1 0x0 PUSH1 0xC PUSH1 0x0 DUP8 DUP2 MSTORE PUSH1 0x20 ADD SWAP1 DUP2 MSTORE PUSH1 0x20 ADD PUSH1 0x0 KECCAK256 DUP1 SLOAD DUP1 PUSH1 0x20 MUL PUSH1 0x20 ADD PUSH1 0x40 MLOAD SWAP1 DUP2 ADD PUSH1 0x40 MSTORE DUP1 SWAP3 SWAP2 SWAP1 DUP2 DUP2 MSTORE PUSH1 0x20 ADD PUSH1 0x0 SWAP1 JUMPDEST DUP3 DUP3 LT ISZERO PUSH2 0x685 JUMPI DUP4 DUP3 SWAP1 PUSH1 0x0 MSTORE PUSH1 0x20 PUSH1 0x0 KECCAK256 ADD PUSH1 0x40 MLOAD DUP1 PUSH1 0x60 ADD PUSH1 0x40 MSTORE SWAP1 DUP2 PUSH1 0x0 DUP3 ADD PUSH1 0x0 SWAP1 SLOAD SWAP1 PUSH2 0x100 EXP SWAP1 DIV PUSH1 0xFF AND ISZERO ISZERO ISZERO ISZERO DUP2 MSTORE PUSH1 0x20 ADD PUSH1 0x0 DUP3 ADD PUSH1 0x1 SWAP1 SLOAD SWAP1 PUSH2 0x100 EXP SWAP1 DIV PUSH1 0xFF AND ISZERO ISZERO ISZERO ISZERO DUP2 MSTORE PUSH1 0x20 ADD PUSH1 0x0 DUP3 ADD PUSH1 0x2 SWAP1 SLOAD SWAP1 PUSH2 0x100 EXP SWAP1 DIV PUSH20 0xFFFFFFFFFFFFFFFFFFFFFFFFFFFFFFFFFFFFFFFF AND PUSH20 0xFFFFFFFFFFFFFFFFFFFFFFFFFFFFFFFFFFFFFFFF AND PUSH20 0xFFFFFFFFFFFFFFFFFFFFFFFFFFFFFFFFFFFFFFFF AND DUP2 MSTORE POP POP DUP2 MSTORE PUSH1 0x20 ADD SWAP1 PUSH1 0x1 ADD SWAP1 PUSH2 0x5CB JUMP JUMPDEST POP POP POP POP SWAP1 POP PUSH1 0x0 PUSH1 0x9 PUSH1 0x0 DUP9 DUP2 MSTORE PUSH1 0x20 ADD SWAP1 DUP2 MSTORE PUSH1 0x20 ADD PUSH1 0x0 KECCAK256 PUSH1 0x0 SWAP1 SLOAD SWAP1 PUSH2 0x100 EXP SWAP1 DIV PUSH1 0xFF AND SWAP1 POP PUSH1 0x0 PUSH1 0x2 PUSH1 0x0 DUP10 DUP2 MSTORE PUSH1 0x20 ADD SWAP1 DUP2 MSTORE PUSH1 0x20 ADD PUSH1 0x0 KECCAK256 SLOAD SWAP1 POP DUP2 DUP9 DUP3 DUP6 SWAP7 POP SWAP7 POP SWAP7 POP SWAP7 POP POP POP POP SWAP2 SWAP4 POP SWAP2 SWAP4 JUMP JUMPDEST PUSH1 0x0 DUP1 PUSH1 0x0 DUP1 PUSH1 0x1 SWAP1 POP PUSH1 0x0 PUSH1 0x1 SWAP1 POP PUSH1 0x0 PUSH1 0x1 SWAP1 POP PUSH1 0x7 PUSH1 0x0 DUP12 DUP2 MSTORE PUSH1 0x20 ADD SWAP1 DUP2 MSTORE PUSH1 0x20 ADD PUSH1 0x0 KECCAK256 SLOAD DUP10 EQ PUSH2 0x713 JUMPI PUSH1 0x0 SWAP3 POP JUMPDEST PUSH1 0x5 PUSH1 0x0 DUP12 DUP2 MSTORE PUSH1 0x20 ADD SWAP1 DUP2 MSTORE PUSH1 0x20 ADD PUSH1 0x0 KECCAK256 SLOAD DUP8 EQ PUSH2 0x732 JUMPI PUSH1 0x0 SWAP2 POP JUMPDEST DUP8 PUSH1 0x3 PUSH1 0x0 DUP13 DUP2 MSTORE PUSH1 0x20 ADD SWAP1 DUP2 MSTORE PUSH1 0x20 ADD PUSH1 0x0 KECCAK256 SLOAD EQ PUSH2 0x751 JUMPI PUSH1 0x0 SWAP1 POP JUMPDEST DUP3 DUP3 DUP3 SWAP6 POP SWAP6 POP SWAP6 POP POP POP POP SWAP5 POP SWAP5 POP SWAP5 SWAP2 POP POP JUMP JUMPDEST PUSH1 0x9 PUSH1 0x20 MSTORE DUP1 PUSH1 0x0 MSTORE PUSH1 0x40 PUSH1 0x0 KECCAK256 PUSH1 0x0 SWAP2 POP SLOAD SWAP1 PUSH2 0x100 EXP SWAP1 DIV PUSH1 0xFF AND DUP2 JUMP JUMPDEST PUSH1 0xC PUSH1 0x20 MSTORE DUP2 PUSH1 0x0 MSTORE PUSH1 0x40 PUSH1 0x0 KECCAK256 DUP2 DUP2 SLOAD DUP2 LT PUSH2 0x7A3 JUMPI PUSH1 0x0 DUP1 REVERT JUMPDEST SWAP1 PUSH1 0x0 MSTORE PUSH1 0x20 PUSH1 0x0 KECCAK256 ADD PUSH1 0x0 SWAP2 POP SWAP2 POP POP DUP1 PUSH1 0x0 ADD PUSH1 0x0 SWAP1 SLOAD SWAP1 PUSH2 0x100 EXP SWAP1 DIV PUSH1 0xFF AND SWAP1 DUP1 PUSH1 0x0 ADD PUSH1 0x1 SWAP1 SLOAD SWAP1 PUSH2 0x100 EXP SWAP1 DIV PUSH1 0xFF AND SWAP1 DUP1 PUSH1 0x0 ADD PUSH1 0x2 SWAP1 SLOAD SWAP1 PUSH2 0x100 EXP SWAP1 DIV PUSH20 0xFFFFFFFFFFFFFFFFFFFFFFFFFFFFFFFFFFFFFFFF AND SWAP1 POP DUP4 JUMP JUMPDEST PUSH1 0x0 PUSH1 0xA PUSH1 0x0 DUP4 DUP2 MSTORE PUSH1 0x20 ADD SWAP1 DUP2 MSTORE PUSH1 0x20 ADD PUSH1 0x0 KECCAK256 PUSH1 0x0 SWAP1 SLOAD SWAP1 PUSH2 0x100 EXP SWAP1 DIV PUSH1 0xFF AND SWAP1 POP SWAP2 SWAP1 POP JUMP JUMPDEST PUSH1 0x4 PUSH1 0x20 MSTORE DUP1 PUSH1 0x0 MSTORE PUSH1 0x40 PUSH1 0x0 KECCAK256 PUSH1 0x0 SWAP2 POP SWAP1 POP SLOAD DUP2 JUMP JUMPDEST PUSH1 0x7 PUSH1 0x20 MSTORE DUP1 PUSH1 0x0 MSTORE PUSH1 0x40 PUSH1 0x0 KECCAK256 PUSH1 0x0 SWAP2 POP SWAP1 POP SLOAD DUP2 JUMP JUMPDEST PUSH1 0x4 PUSH1 0x0 DUP3 DUP2 MSTORE PUSH1 0x20 ADD SWAP1 DUP2 MSTORE PUSH1 0x20 ADD PUSH1 0x0 KECCAK256 SLOAD TIMESTAMP LT ISZERO PUSH2 0x8B4 JUMPI PUSH1 0x40 MLOAD PUSH32 0x8C379A000000000000000000000000000000000000000000000000000000000 DUP2 MSTORE PUSH1 0x4 ADD PUSH2 0x8AB SWAP1 PUSH2 0x2867 JUMP JUMPDEST PUSH1 0x40 MLOAD DUP1 SWAP2 SUB SWAP1 REVERT JUMPDEST PUSH1 0x0 ISZERO ISZERO PUSH1 0xA PUSH1 0x0 DUP4 DUP2 MSTORE PUSH1 0x20 ADD SWAP1 DUP2 MSTORE PUSH1 0x20 ADD PUSH1 0x0 KECCAK256 PUSH1 0x0 SWAP1 SLOAD SWAP1 PUSH2 0x100 EXP SWAP1 DIV PUSH1 0xFF AND ISZERO ISZERO EQ PUSH2 0x91B JUMPI PUSH1 0x40 MLOAD PUSH32 0x8C379A000000000000000000000000000000000000000000000000000000000 DUP2 MSTORE PUSH1 0x4 ADD PUSH2 0x912 SWAP1 PUSH2 0x28A7 JUMP JUMPDEST PUSH1 0x40 MLOAD DUP1 SWAP2 SUB SWAP1 REVERT JUMPDEST PUSH1 0x0 DUP1 DUP3 DUP2 MSTORE PUSH1 0x20 ADD SWAP1 DUP2 MSTORE PUSH1 0x20 ADD PUSH1 0x0 KECCAK256 PUSH1 0x0 SWAP1 SLOAD SWAP1 PUSH2 0x100 EXP SWAP1 DIV PUSH20 0xFFFFFFFFFFFFFFFFFFFFFFFFFFFFFFFFFFFFFFFF AND PUSH20 0xFFFFFFFFFFFFFFFFFFFFFFFFFFFFFFFFFFFFFFFF AND CALLER PUSH20 0xFFFFFFFFFFFFFFFFFFFFFFFFFFFFFFFFFFFFFFFF AND EQ DUP1 PUSH2 0xA27 JUMPI POP PUSH1 0x0 PUSH20 0xFFFFFFFFFFFFFFFFFFFFFFFFFFFFFFFFFFFFFFFF AND PUSH1 0xB PUSH1 0x0 DUP4 DUP2 MSTORE PUSH1 0x20 ADD SWAP1 DUP2 MSTORE PUSH1 0x20 ADD PUSH1 0x0 KECCAK256 PUSH1 0x0 CALLER PUSH20 0xFFFFFFFFFFFFFFFFFFFFFFFFFFFFFFFFFFFFFFFF AND PUSH20 0xFFFFFFFFFFFFFFFFFFFFFFFFFFFFFFFFFFFFFFFF AND DUP2 MSTORE PUSH1 0x20 ADD SWAP1 DUP2 MSTORE PUSH1 0x20 ADD PUSH1 0x0 KECCAK256 PUSH1 0x0 ADD PUSH1 0x2 SWAP1 SLOAD SWAP1 PUSH2 0x100 EXP SWAP1 DIV PUSH20 0xFFFFFFFFFFFFFFFFFFFFFFFFFFFFFFFFFFFFFFFF AND PUSH20 0xFFFFFFFFFFFFFFFFFFFFFFFFFFFFFFFFFFFFFFFF AND EQ ISZERO JUMPDEST PUSH2 0xA66 JUMPI PUSH1 0x40 MLOAD PUSH32 0x8C379A000000000000000000000000000000000000000000000000000000000 DUP2 MSTORE PUSH1 0x4 ADD PUSH2 0xA5D SWAP1 PUSH2 0x27A7 JUMP JUMPDEST PUSH1 0x40 MLOAD DUP1 SWAP2 SUB SWAP1 REVERT JUMPDEST PUSH1 0x0 PUSH1 0x64 PUSH1 0xD PUSH1 0x0 DUP5 DUP2 MSTORE PUSH1 0x20 ADD SWAP1 DUP2 MSTORE PUSH1 0x20 ADD PUSH1 0x0 KECCAK256 DUP1 SLOAD SWAP1 POP PUSH1 0x6 PUSH1 0x0 DUP6 DUP2 MSTORE PUSH1 0x20 ADD SWAP1 DUP2 MSTORE PUSH1 0x20 ADD PUSH1 0x0 KECCAK256 SLOAD PUSH2 0xA9F SWAP2 SWAP1 PUSH2 0x29E3 JUMP JUMPDEST PUSH2 0xAA9 SWAP2 SWAP1 PUSH2 0x2A14 JUMP JUMPDEST SWAP1 POP PUSH1 0x7 PUSH1 0x0 DUP4 DUP2 MSTORE PUSH1 0x20 ADD SWAP1 DUP2 MSTORE PUSH1 0x20 ADD PUSH1 0x0 KECCAK256 SLOAD DUP2 LT PUSH2 0xAF2 JUMPI PUSH1 0x1 PUSH1 0x9 PUSH1 0x0 DUP5 DUP2 MSTORE PUSH1 0x20 ADD SWAP1 DUP2 MSTORE PUSH1 0x20 ADD PUSH1 0x0 KECCAK256 PUSH1 0x0 PUSH2 0x100 EXP DUP2 SLOAD DUP2 PUSH1 0xFF MUL NOT AND SWAP1 DUP4 ISZERO ISZERO MUL OR SWAP1 SSTORE POP JUMPDEST PUSH1 0x0 JUMPDEST PUSH1 0xD PUSH1 0x0 DUP5 DUP2 MSTORE PUSH1 0x20 ADD SWAP1 DUP2 MSTORE PUSH1 0x20 ADD PUSH1 0x0 KECCAK256 DUP1 SLOAD SWAP1 POP DUP2 PUSH1 0xFF AND LT ISZERO PUSH2 0xD86 JUMPI PUSH1 0x0 ISZERO ISZERO PUSH1 0xB PUSH1 0x0 DUP6 DUP2 MSTORE PUSH1 0x20 ADD SWAP1 DUP2 MSTORE PUSH1 0x20 ADD PUSH1 0x0 KECCAK256 PUSH1 0x0 PUSH1 0xD PUSH1 0x0 DUP8 DUP2 MSTORE PUSH1 0x20 ADD SWAP1 DUP2 MSTORE PUSH1 0x20 ADD PUSH1 0x0 KECCAK256 DUP5 PUSH1 0xFF AND DUP2 SLOAD DUP2 LT PUSH2 0xB57 JUMPI PUSH2 0xB56 PUSH2 0x2C29 JUMP JUMPDEST JUMPDEST SWAP1 PUSH1 0x0 MSTORE PUSH1 0x20 PUSH1 0x0 KECCAK256 ADD PUSH1 0x0 SWAP1 SLOAD SWAP1 PUSH2 0x100 EXP SWAP1 DIV PUSH20 0xFFFFFFFFFFFFFFFFFFFFFFFFFFFFFFFFFFFFFFFF AND PUSH20 0xFFFFFFFFFFFFFFFFFFFFFFFFFFFFFFFFFFFFFFFF AND PUSH20 0xFFFFFFFFFFFFFFFFFFFFFFFFFFFFFFFFFFFFFFFF AND DUP2 MSTORE PUSH1 0x20 ADD SWAP1 DUP2 MSTORE PUSH1 0x20 ADD PUSH1 0x0 KECCAK256 PUSH1 0x0 ADD PUSH1 0x0 SWAP1 SLOAD SWAP1 PUSH2 0x100 EXP SWAP1 DIV PUSH1 0xFF AND ISZERO ISZERO EQ ISZERO PUSH2 0xD73 JUMPI PUSH1 0xC PUSH1 0x0 DUP5 DUP2 MSTORE PUSH1 0x20 ADD SWAP1 DUP2 MSTORE PUSH1 0x20 ADD PUSH1 0x0 KECCAK256 PUSH1 0xB PUSH1 0x0 DUP6 DUP2 MSTORE PUSH1 0x20 ADD SWAP1 DUP2 MSTORE PUSH1 0x20 ADD PUSH1 0x0 KECCAK256 PUSH1 0x0 PUSH1 0xD PUSH1 0x0 DUP8 DUP2 MSTORE PUSH1 0x20 ADD SWAP1 DUP2 MSTORE PUSH1 0x20 ADD PUSH1 0x0 KECCAK256 DUP5 PUSH1 0xFF AND DUP2 SLOAD DUP2 LT PUSH2 0xC25 JUMPI PUSH2 0xC24 PUSH2 0x2C29 JUMP JUMPDEST JUMPDEST SWAP1 PUSH1 0x0 MSTORE PUSH1 0x20 PUSH1 0x0 KECCAK256 ADD PUSH1 0x0 SWAP1 SLOAD SWAP1 PUSH2 0x100 EXP SWAP1 DIV PUSH20 0xFFFFFFFFFFFFFFFFFFFFFFFFFFFFFFFFFFFFFFFF AND PUSH20 0xFFFFFFFFFFFFFFFFFFFFFFFFFFFFFFFFFFFFFFFF AND PUSH20 0xFFFFFFFFFFFFFFFFFFFFFFFFFFFFFFFFFFFFFFFF AND DUP2 MSTORE PUSH1 0x20 ADD SWAP1 DUP2 MSTORE PUSH1 0x20 ADD PUSH1 0x0 KECCAK256 SWAP1 DUP1 PUSH1 0x1 DUP2 SLOAD ADD DUP1 DUP3 SSTORE DUP1 SWAP2 POP POP PUSH1 0x1 SWAP1 SUB SWAP1 PUSH1 0x0 MSTORE PUSH1 0x20 PUSH1 0x0 KECCAK256 ADD PUSH1 0x0 SWAP1 SWAP2 SWAP1 SWAP2 SWAP1 SWAP2 POP PUSH1 0x0 DUP3 ADD PUSH1 0x0 SWAP1 SLOAD SWAP1 PUSH2 0x100 EXP SWAP1 DIV PUSH1 0xFF AND DUP2 PUSH1 0x0 ADD PUSH1 0x0 PUSH2 0x100 EXP DUP2 SLOAD DUP2 PUSH1 0xFF MUL NOT AND SWAP1 DUP4 ISZERO ISZERO MUL OR SWAP1 SSTORE POP PUSH1 0x0 DUP3 ADD PUSH1 0x1 SWAP1 SLOAD SWAP1 PUSH2 0x100 EXP SWAP1 DIV PUSH1 0xFF AND DUP2 PUSH1 0x0 ADD PUSH1 0x1 PUSH2 0x100 EXP DUP2 SLOAD DUP2 PUSH1 0xFF MUL NOT AND SWAP1 DUP4 ISZERO ISZERO MUL OR SWAP1 SSTORE POP PUSH1 0x0 DUP3 ADD PUSH1 0x2 SWAP1 SLOAD SWAP1 PUSH2 0x100 EXP SWAP1 DIV PUSH20 0xFFFFFFFFFFFFFFFFFFFFFFFFFFFFFFFFFFFFFFFF AND DUP2 PUSH1 0x0 ADD PUSH1 0x2 PUSH2 0x100 EXP DUP2 SLOAD DUP2 PUSH20 0xFFFFFFFFFFFFFFFFFFFFFFFFFFFFFFFFFFFFFFFF MUL NOT AND SWAP1 DUP4 PUSH20 0xFFFFFFFFFFFFFFFFFFFFFFFFFFFFFFFFFFFFFFFF AND MUL OR SWAP1 SSTORE POP POP POP JUMPDEST DUP1 DUP1 PUSH2 0xD7E SWAP1 PUSH2 0x2B72 JUMP JUMPDEST SWAP2 POP POP PUSH2 0xAF5 JUMP JUMPDEST POP PUSH1 0x1 PUSH1 0xA PUSH1 0x0 DUP5 DUP2 MSTORE PUSH1 0x20 ADD SWAP1 DUP2 MSTORE PUSH1 0x20 ADD PUSH1 0x0 KECCAK256 PUSH1 0x0 PUSH2 0x100 EXP DUP2 SLOAD DUP2 PUSH1 0xFF MUL NOT AND SWAP1 DUP4 ISZERO ISZERO MUL OR SWAP1 SSTORE POP POP POP JUMP JUMPDEST PUSH1 0xD PUSH1 0x20 MSTORE DUP2 PUSH1 0x0 MSTORE PUSH1 0x40 PUSH1 0x0 KECCAK256 DUP2 DUP2 SLOAD DUP2 LT PUSH2 0xDD3 JUMPI PUSH1 0x0 DUP1 REVERT JUMPDEST SWAP1 PUSH1 0x0 MSTORE PUSH1 0x20 PUSH1 0x0 KECCAK256 ADD PUSH1 0x0 SWAP2 POP SWAP2 POP SWAP1 SLOAD SWAP1 PUSH2 0x100 EXP SWAP1 DIV PUSH20 0xFFFFFFFFFFFFFFFFFFFFFFFFFFFFFFFFFFFFFFFF AND DUP2 JUMP JUMPDEST PUSH1 0x2 PUSH1 0x20 MSTORE DUP1 PUSH1 0x0 MSTORE PUSH1 0x40 PUSH1 0x0 KECCAK256 PUSH1 0x0 SWAP2 POP SWAP1 POP SLOAD DUP2 JUMP JUMPDEST PUSH1 0xA PUSH1 0x20 MSTORE DUP1 PUSH1 0x0 MSTORE PUSH1 0x40 PUSH1 0x0 KECCAK256 PUSH1 0x0 SWAP2 POP SLOAD SWAP1 PUSH2 0x100 EXP SWAP1 DIV PUSH1 0xFF AND DUP2 JUMP JUMPDEST PUSH1 0x4 PUSH1 0x0 DUP3 DUP2 MSTORE PUSH1 0x20 ADD SWAP1 DUP2 MSTORE PUSH1 0x20 ADD PUSH1 0x0 KECCAK256 SLOAD TIMESTAMP LT PUSH2 0xE92 JUMPI PUSH1 0x40 MLOAD PUSH32 0x8C379A000000000000000000000000000000000000000000000000000000000 DUP2 MSTORE PUSH1 0x4 ADD PUSH2 0xE89 SWAP1 PUSH2 0x2887 JUMP JUMPDEST PUSH1 0x40 MLOAD DUP1 SWAP2 SUB SWAP1 REVERT JUMPDEST PUSH1 0x0 PUSH20 0xFFFFFFFFFFFFFFFFFFFFFFFFFFFFFFFFFFFFFFFF AND PUSH1 0xB PUSH1 0x0 DUP4 DUP2 MSTORE PUSH1 0x20 ADD SWAP1 DUP2 MSTORE PUSH1 0x20 ADD PUSH1 0x0 KECCAK256 PUSH1 0x0 CALLER PUSH20 0xFFFFFFFFFFFFFFFFFFFFFFFFFFFFFFFFFFFFFFFF AND PUSH20 0xFFFFFFFFFFFFFFFFFFFFFFFFFFFFFFFFFFFFFFFF AND DUP2 MSTORE PUSH1 0x20 ADD SWAP1 DUP2 MSTORE PUSH1 0x20 ADD PUSH1 0x0 KECCAK256 PUSH1 0x0 ADD PUSH1 0x2 SWAP1 SLOAD SWAP1 PUSH2 0x100 EXP SWAP1 DIV PUSH20 0xFFFFFFFFFFFFFFFFFFFFFFFFFFFFFFFFFFFFFFFF AND PUSH20 0xFFFFFFFFFFFFFFFFFFFFFFFFFFFFFFFFFFFFFFFF AND EQ ISZERO PUSH2 0xF75 JUMPI PUSH1 0x40 MLOAD PUSH32 0x8C379A000000000000000000000000000000000000000000000000000000000 DUP2 MSTORE PUSH1 0x4 ADD PUSH2 0xF6C SWAP1 PUSH2 0x2807 JUMP JUMPDEST PUSH1 0x40 MLOAD DUP1 SWAP2 SUB SWAP1 REVERT JUMPDEST PUSH1 0xB PUSH1 0x0 DUP3 DUP2 MSTORE PUSH1 0x20 ADD SWAP1 DUP2 MSTORE PUSH1 0x20 ADD PUSH1 0x0 KECCAK256 PUSH1 0x0 CALLER PUSH20 0xFFFFFFFFFFFFFFFFFFFFFFFFFFFFFFFFFFFFFFFF AND PUSH20 0xFFFFFFFFFFFFFFFFFFFFFFFFFFFFFFFFFFFFFFFF AND DUP2 MSTORE PUSH1 0x20 ADD SWAP1 DUP2 MSTORE PUSH1 0x20 ADD PUSH1 0x0 KECCAK256 PUSH1 0x0 ADD PUSH1 0x0 SWAP1 SLOAD SWAP1 PUSH2 0x100 EXP SWAP1 DIV PUSH1 0xFF AND ISZERO PUSH2 0x1016 JUMPI PUSH1 0x40 MLOAD PUSH32 0x8C379A000000000000000000000000000000000000000000000000000000000 DUP2 MSTORE PUSH1 0x4 ADD PUSH2 0x100D SWAP1 PUSH2 0x27C7 JUMP JUMPDEST PUSH1 0x40 MLOAD DUP1 SWAP2 SUB SWAP1 REVERT JUMPDEST PUSH1 0x40 MLOAD DUP1 PUSH1 0x40 ADD PUSH1 0x40 MSTORE DUP1 PUSH1 0x9 DUP2 MSTORE PUSH1 0x20 ADD PUSH32 0x6920617070726F76650000000000000000000000000000000000000000000000 DUP2 MSTORE POP DUP1 MLOAD SWAP1 PUSH1 0x20 ADD KECCAK256 DUP3 DUP1 MLOAD SWAP1 PUSH1 0x20 ADD KECCAK256 EQ ISZERO PUSH2 0x12DF JUMPI PUSH1 0x1 PUSH1 0xB PUSH1 0x0 DUP4 DUP2 MSTORE PUSH1 0x20 ADD SWAP1 DUP2 MSTORE PUSH1 0x20 ADD PUSH1 0x0 KECCAK256 PUSH1 0x0 CALLER PUSH20 0xFFFFFFFFFFFFFFFFFFFFFFFFFFFFFFFFFFFFFFFF AND PUSH20 0xFFFFFFFFFFFFFFFFFFFFFFFFFFFFFFFFFFFFFFFF AND DUP2 MSTORE PUSH1 0x20 ADD SWAP1 DUP2 MSTORE PUSH1 0x20 ADD PUSH1 0x0 KECCAK256 PUSH1 0x0 ADD PUSH1 0x0 PUSH2 0x100 EXP DUP2 SLOAD DUP2 PUSH1 0xFF MUL NOT AND SWAP1 DUP4 ISZERO ISZERO MUL OR SWAP1 SSTORE POP PUSH1 0x1 PUSH1 0xB PUSH1 0x0 DUP4 DUP2 MSTORE PUSH1 0x20 ADD SWAP1 DUP2 MSTORE PUSH1 0x20 ADD PUSH1 0x0 KECCAK256 PUSH1 0x0 CALLER PUSH20 0xFFFFFFFFFFFFFFFFFFFFFFFFFFFFFFFFFFFFFFFF AND PUSH20 0xFFFFFFFFFFFFFFFFFFFFFFFFFFFFFFFFFFFFFFFF AND DUP2 MSTORE PUSH1 0x20 ADD SWAP1 DUP2 MSTORE PUSH1 0x20 ADD PUSH1 0x0 KECCAK256 PUSH1 0x0 ADD PUSH1 0x1 PUSH2 0x100 EXP DUP2 SLOAD DUP2 PUSH1 0xFF MUL NOT AND SWAP1 DUP4 ISZERO ISZERO MUL OR SWAP1 SSTORE POP PUSH1 0x1 PUSH1 0x6 PUSH1 0x0 DUP4 DUP2 MSTORE PUSH1 0x20 ADD SWAP1 DUP2 MSTORE PUSH1 0x20 ADD PUSH1 0x0 KECCAK256 PUSH1 0x0 DUP3 DUP3 SLOAD PUSH2 0x115D SWAP2 SWAP1 PUSH2 0x298D JUMP JUMPDEST SWAP3 POP POP DUP2 SWAP1 SSTORE POP PUSH1 0x1 PUSH1 0x2 PUSH1 0x0 DUP4 DUP2 MSTORE PUSH1 0x20 ADD SWAP1 DUP2 MSTORE PUSH1 0x20 ADD PUSH1 0x0 KECCAK256 PUSH1 0x0 DUP3 DUP3 SLOAD PUSH2 0x1188 SWAP2 SWAP1 PUSH2 0x298D JUMP JUMPDEST SWAP3 POP POP DUP2 SWAP1 SSTORE POP PUSH1 0xC PUSH1 0x0 DUP3 DUP2 MSTORE PUSH1 0x20 ADD SWAP1 DUP2 MSTORE PUSH1 0x20 ADD PUSH1 0x0 KECCAK256 PUSH1 0xB PUSH1 0x0 DUP4 DUP2 MSTORE PUSH1 0x20 ADD SWAP1 DUP2 MSTORE PUSH1 0x20 ADD PUSH1 0x0 KECCAK256 PUSH1 0x0 CALLER PUSH20 0xFFFFFFFFFFFFFFFFFFFFFFFFFFFFFFFFFFFFFFFF AND PUSH20 0xFFFFFFFFFFFFFFFFFFFFFFFFFFFFFFFFFFFFFFFF AND DUP2 MSTORE PUSH1 0x20 ADD SWAP1 DUP2 MSTORE PUSH1 0x20 ADD PUSH1 0x0 KECCAK256 SWAP1 DUP1 PUSH1 0x1 DUP2 SLOAD ADD DUP1 DUP3 SSTORE DUP1 SWAP2 POP POP PUSH1 0x1 SWAP1 SUB SWAP1 PUSH1 0x0 MSTORE PUSH1 0x20 PUSH1 0x0 KECCAK256 ADD PUSH1 0x0 SWAP1 SWAP2 SWAP1 SWAP2 SWAP1 SWAP2 POP PUSH1 0x0 DUP3 ADD PUSH1 0x0 SWAP1 SLOAD SWAP1 PUSH2 0x100 EXP SWAP1 DIV PUSH1 0xFF AND DUP2 PUSH1 0x0 ADD PUSH1 0x0 PUSH2 0x100 EXP DUP2 SLOAD DUP2 PUSH1 0xFF MUL NOT AND SWAP1 DUP4 ISZERO ISZERO MUL OR SWAP1 SSTORE POP PUSH1 0x0 DUP3 ADD PUSH1 0x1 SWAP1 SLOAD SWAP1 PUSH2 0x100 EXP SWAP1 DIV PUSH1 0xFF AND DUP2 PUSH1 0x0 ADD PUSH1 0x1 PUSH2 0x100 EXP DUP2 SLOAD DUP2 PUSH1 0xFF MUL NOT AND SWAP1 DUP4 ISZERO ISZERO MUL OR SWAP1 SSTORE POP PUSH1 0x0 DUP3 ADD PUSH1 0x2 SWAP1 SLOAD SWAP1 PUSH2 0x100 EXP SWAP1 DIV PUSH20 0xFFFFFFFFFFFFFFFFFFFFFFFFFFFFFFFFFFFFFFFF AND DUP2 PUSH1 0x0 ADD PUSH1 0x2 PUSH2 0x100 EXP DUP2 SLOAD DUP2 PUSH20 0xFFFFFFFFFFFFFFFFFFFFFFFFFFFFFFFFFFFFFFFF MUL NOT AND SWAP1 DUP4 PUSH20 0xFFFFFFFFFFFFFFFFFFFFFFFFFFFFFFFFFFFFFFFF AND MUL OR SWAP1 SSTORE POP POP POP PUSH2 0x16F5 JUMP JUMPDEST PUSH1 0x40 MLOAD DUP1 PUSH1 0x40 ADD PUSH1 0x40 MSTORE DUP1 PUSH1 0xC DUP2 MSTORE PUSH1 0x20 ADD PUSH32 0x6920646973617070726F76650000000000000000000000000000000000000000 DUP2 MSTORE POP DUP1 MLOAD SWAP1 PUSH1 0x20 ADD KECCAK256 DUP3 DUP1 MLOAD SWAP1 PUSH1 0x20 ADD KECCAK256 EQ ISZERO PUSH2 0x1511 JUMPI PUSH1 0x1 PUSH1 0xB PUSH1 0x0 DUP4 DUP2 MSTORE PUSH1 0x20 ADD SWAP1 DUP2 MSTORE PUSH1 0x20 ADD PUSH1 0x0 KECCAK256 PUSH1 0x0 CALLER PUSH20 0xFFFFFFFFFFFFFFFFFFFFFFFFFFFFFFFFFFFFFFFF AND PUSH20 0xFFFFFFFFFFFFFFFFFFFFFFFFFFFFFFFFFFFFFFFF AND DUP2 MSTORE PUSH1 0x20 ADD SWAP1 DUP2 MSTORE PUSH1 0x20 ADD PUSH1 0x0 KECCAK256 PUSH1 0x0 ADD PUSH1 0x0 PUSH2 0x100 EXP DUP2 SLOAD DUP2 PUSH1 0xFF MUL NOT AND SWAP1 DUP4 ISZERO ISZERO MUL OR SWAP1 SSTORE POP PUSH1 0x1 PUSH1 0x2 PUSH1 0x0 DUP4 DUP2 MSTORE PUSH1 0x20 ADD SWAP1 DUP2 MSTORE PUSH1 0x20 ADD PUSH1 0x0 KECCAK256 PUSH1 0x0 DUP3 DUP3 SLOAD PUSH2 0x13BA SWAP2 SWAP1 PUSH2 0x298D JUMP JUMPDEST SWAP3 POP POP DUP2 SWAP1 SSTORE POP PUSH1 0xC PUSH1 0x0 DUP3 DUP2 MSTORE PUSH1 0x20 ADD SWAP1 DUP2 MSTORE PUSH1 0x20 ADD PUSH1 0x0 KECCAK256 PUSH1 0xB PUSH1 0x0 DUP4 DUP2 MSTORE PUSH1 0x20 ADD SWAP1 DUP2 MSTORE PUSH1 0x20 ADD PUSH1 0x0 KECCAK256 PUSH1 0x0 CALLER PUSH20 0xFFFFFFFFFFFFFFFFFFFFFFFFFFFFFFFFFFFFFFFF AND PUSH20 0xFFFFFFFFFFFFFFFFFFFFFFFFFFFFFFFFFFFFFFFF AND DUP2 MSTORE PUSH1 0x20 ADD SWAP1 DUP2 MSTORE PUSH1 0x20 ADD PUSH1 0x0 KECCAK256 SWAP1 DUP1 PUSH1 0x1 DUP2 SLOAD ADD DUP1 DUP3 SSTORE DUP1 SWAP2 POP POP PUSH1 0x1 SWAP1 SUB SWAP1 PUSH1 0x0 MSTORE PUSH1 0x20 PUSH1 0x0 KECCAK256 ADD PUSH1 0x0 SWAP1 SWAP2 SWAP1 SWAP2 SWAP1 SWAP2 POP PUSH1 0x0 DUP3 ADD PUSH1 0x0 SWAP1 SLOAD SWAP1 PUSH2 0x100 EXP SWAP1 DIV PUSH1 0xFF AND DUP2 PUSH1 0x0 ADD PUSH1 0x0 PUSH2 0x100 EXP DUP2 SLOAD DUP2 PUSH1 0xFF MUL NOT AND SWAP1 DUP4 ISZERO ISZERO MUL OR SWAP1 SSTORE POP PUSH1 0x0 DUP3 ADD PUSH1 0x1 SWAP1 SLOAD SWAP1 PUSH2 0x100 EXP SWAP1 DIV PUSH1 0xFF AND DUP2 PUSH1 0x0 ADD PUSH1 0x1 PUSH2 0x100 EXP DUP2 SLOAD DUP2 PUSH1 0xFF MUL NOT AND SWAP1 DUP4 ISZERO ISZERO MUL OR SWAP1 SSTORE POP PUSH1 0x0 DUP3 ADD PUSH1 0x2 SWAP1 SLOAD SWAP1 PUSH2 0x100 EXP SWAP1 DIV PUSH20 0xFFFFFFFFFFFFFFFFFFFFFFFFFFFFFFFFFFFFFFFF AND DUP2 PUSH1 0x0 ADD PUSH1 0x2 PUSH2 0x100 EXP DUP2 SLOAD DUP2 PUSH20 0xFFFFFFFFFFFFFFFFFFFFFFFFFFFFFFFFFFFFFFFF MUL NOT AND SWAP1 DUP4 PUSH20 0xFFFFFFFFFFFFFFFFFFFFFFFFFFFFFFFFFFFFFFFF AND MUL OR SWAP1 SSTORE POP POP POP PUSH2 0x16F4 JUMP JUMPDEST PUSH1 0x1 PUSH1 0xB PUSH1 0x0 DUP4 DUP2 MSTORE PUSH1 0x20 ADD SWAP1 DUP2 MSTORE PUSH1 0x20 ADD PUSH1 0x0 KECCAK256 PUSH1 0x0 CALLER PUSH20 0xFFFFFFFFFFFFFFFFFFFFFFFFFFFFFFFFFFFFFFFF AND PUSH20 0xFFFFFFFFFFFFFFFFFFFFFFFFFFFFFFFFFFFFFFFF AND DUP2 MSTORE PUSH1 0x20 ADD SWAP1 DUP2 MSTORE PUSH1 0x20 ADD PUSH1 0x0 KECCAK256 PUSH1 0x0 ADD PUSH1 0x0 PUSH2 0x100 EXP DUP2 SLOAD DUP2 PUSH1 0xFF MUL NOT AND SWAP1 DUP4 ISZERO ISZERO MUL OR SWAP1 SSTORE POP PUSH1 0x1 PUSH1 0x2 PUSH1 0x0 DUP4 DUP2 MSTORE PUSH1 0x20 ADD SWAP1 DUP2 MSTORE PUSH1 0x20 ADD PUSH1 0x0 KECCAK256 PUSH1 0x0 DUP3 DUP3 SLOAD PUSH2 0x15A1 SWAP2 SWAP1 PUSH2 0x298D JUMP JUMPDEST SWAP3 POP POP DUP2 SWAP1 SSTORE POP PUSH1 0xC PUSH1 0x0 DUP3 DUP2 MSTORE PUSH1 0x20 ADD SWAP1 DUP2 MSTORE PUSH1 0x20 ADD PUSH1 0x0 KECCAK256 PUSH1 0xB PUSH1 0x0 DUP4 DUP2 MSTORE PUSH1 0x20 ADD SWAP1 DUP2 MSTORE PUSH1 0x20 ADD PUSH1 0x0 KECCAK256 PUSH1 0x0 CALLER PUSH20 0xFFFFFFFFFFFFFFFFFFFFFFFFFFFFFFFFFFFFFFFF AND PUSH20 0xFFFFFFFFFFFFFFFFFFFFFFFFFFFFFFFFFFFFFFFF AND DUP2 MSTORE PUSH1 0x20 ADD SWAP1 DUP2 MSTORE PUSH1 0x20 ADD PUSH1 0x0 KECCAK256 SWAP1 DUP1 PUSH1 0x1 DUP2 SLOAD ADD DUP1 DUP3 SSTORE DUP1 SWAP2 POP POP PUSH1 0x1 SWAP1 SUB SWAP1 PUSH1 0x0 MSTORE PUSH1 0x20 PUSH1 0x0 KECCAK256 ADD PUSH1 0x0 SWAP1 SWAP2 SWAP1 SWAP2 SWAP1 SWAP2 POP PUSH1 0x0 DUP3 ADD PUSH1 0x0 SWAP1 SLOAD SWAP1 PUSH2 0x100 EXP SWAP1 DIV PUSH1 0xFF AND DUP2 PUSH1 0x0 ADD PUSH1 0x0 PUSH2 0x100 EXP DUP2 SLOAD DUP2 PUSH1 0xFF MUL NOT AND SWAP1 DUP4 ISZERO ISZERO MUL OR SWAP1 SSTORE POP PUSH1 0x0 DUP3 ADD PUSH1 0x1 SWAP1 SLOAD SWAP1 PUSH2 0x100 EXP SWAP1 DIV PUSH1 0xFF AND DUP2 PUSH1 0x0 ADD PUSH1 0x1 PUSH2 0x100 EXP DUP2 SLOAD DUP2 PUSH1 0xFF MUL NOT AND SWAP1 DUP4 ISZERO ISZERO MUL OR SWAP1 SSTORE POP PUSH1 0x0 DUP3 ADD PUSH1 0x2 SWAP1 SLOAD SWAP1 PUSH2 0x100 EXP SWAP1 DIV PUSH20 0xFFFFFFFFFFFFFFFFFFFFFFFFFFFFFFFFFFFFFFFF AND DUP2 PUSH1 0x0 ADD PUSH1 0x2 PUSH2 0x100 EXP DUP2 SLOAD DUP2 PUSH20 0xFFFFFFFFFFFFFFFFFFFFFFFFFFFFFFFFFFFFFFFF MUL NOT AND SWAP1 DUP4 PUSH20 0xFFFFFFFFFFFFFFFFFFFFFFFFFFFFFFFFFFFFFFFF AND MUL OR SWAP1 SSTORE POP POP POP JUMPDEST JUMPDEST POP POP JUMP JUMPDEST PUSH1 0x0 PUSH1 0x60 PUSH1 0x1 PUSH1 0x0 DUP5 DUP2 MSTORE PUSH1 0x20 ADD SWAP1 DUP2 MSTORE PUSH1 0x20 ADD PUSH1 0x0 KECCAK256 SLOAD PUSH1 0x8 PUSH1 0x0 DUP6 DUP2 MSTORE PUSH1 0x20 ADD SWAP1 DUP2 MSTORE PUSH1 0x20 ADD PUSH1 0x0 KECCAK256 DUP1 DUP1 SLOAD PUSH2 0x1730 SWAP1 PUSH2 0x2B0F JUMP JUMPDEST DUP1 PUSH1 0x1F ADD PUSH1 0x20 DUP1 SWAP2 DIV MUL PUSH1 0x20 ADD PUSH1 0x40 MLOAD SWAP1 DUP2 ADD PUSH1 0x40 MSTORE DUP1 SWAP3 SWAP2 SWAP1 DUP2 DUP2 MSTORE PUSH1 0x20 ADD DUP3 DUP1 SLOAD PUSH2 0x175C SWAP1 PUSH2 0x2B0F JUMP JUMPDEST DUP1 ISZERO PUSH2 0x17A9 JUMPI DUP1 PUSH1 0x1F LT PUSH2 0x177E JUMPI PUSH2 0x100 DUP1 DUP4 SLOAD DIV MUL DUP4 MSTORE SWAP2 PUSH1 0x20 ADD SWAP2 PUSH2 0x17A9 JUMP JUMPDEST DUP3 ADD SWAP2 SWAP1 PUSH1 0x0 MSTORE PUSH1 0x20 PUSH1 0x0 KECCAK256 SWAP1 JUMPDEST DUP2 SLOAD DUP2 MSTORE SWAP1 PUSH1 0x1 ADD SWAP1 PUSH1 0x20 ADD DUP1 DUP4 GT PUSH2 0x178C JUMPI DUP3 SWAP1 SUB PUSH1 0x1F AND DUP3 ADD SWAP2 JUMPDEST POP POP POP POP POP SWAP1 POP SWAP2 POP SWAP2 POP SWAP2 POP SWAP2 JUMP JUMPDEST PUSH1 0x8 PUSH1 0x20 MSTORE DUP1 PUSH1 0x0 MSTORE PUSH1 0x40 PUSH1 0x0 KECCAK256 PUSH1 0x0 SWAP2 POP SWAP1 POP DUP1 SLOAD PUSH2 0x17D8 SWAP1 PUSH2 0x2B0F JUMP JUMPDEST DUP1 PUSH1 0x1F ADD PUSH1 0x20 DUP1 SWAP2 DIV MUL PUSH1 0x20 ADD PUSH1 0x40 MLOAD SWAP1 DUP2 ADD PUSH1 0x40 MSTORE DUP1 SWAP3 SWAP2 SWAP1 DUP2 DUP2 MSTORE PUSH1 0x20 ADD DUP3 DUP1 SLOAD PUSH2 0x1804 SWAP1 PUSH2 0x2B0F JUMP JUMPDEST DUP1 ISZERO PUSH2 0x1851 JUMPI DUP1 PUSH1 0x1F LT PUSH2 0x1826 JUMPI PUSH2 0x100 DUP1 DUP4 SLOAD DIV MUL DUP4 MSTORE SWAP2 PUSH1 0x20 ADD SWAP2 PUSH2 0x1851 JUMP JUMPDEST DUP3 ADD SWAP2 SWAP1 PUSH1 0x0 MSTORE PUSH1 0x20 PUSH1 0x0 KECCAK256 SWAP1 JUMPDEST DUP2 SLOAD DUP2 MSTORE SWAP1 PUSH1 0x1 ADD SWAP1 PUSH1 0x20 ADD DUP1 DUP4 GT PUSH2 0x1834 JUMPI DUP3 SWAP1 SUB PUSH1 0x1F AND DUP3 ADD SWAP2 JUMPDEST POP POP POP POP POP DUP2 JUMP JUMPDEST PUSH1 0xB PUSH1 0x20 MSTORE DUP2 PUSH1 0x0 MSTORE PUSH1 0x40 PUSH1 0x0 KECCAK256 PUSH1 0x20 MSTORE DUP1 PUSH1 0x0 MSTORE PUSH1 0x40 PUSH1 0x0 KECCAK256 PUSH1 0x0 SWAP2 POP SWAP2 POP POP DUP1 PUSH1 0x0 ADD PUSH1 0x0 SWAP1 SLOAD SWAP1 PUSH2 0x100 EXP SWAP1 DIV PUSH1 0xFF AND SWAP1 DUP1 PUSH1 0x0 ADD PUSH1 0x1 SWAP1 SLOAD SWAP1 PUSH2 0x100 EXP SWAP1 DIV PUSH1 0xFF AND SWAP1 DUP1 PUSH1 0x0 ADD PUSH1 0x2 SWAP1 SLOAD SWAP1 PUSH2 0x100 EXP SWAP1 DIV PUSH20 0xFFFFFFFFFFFFFFFFFFFFFFFFFFFFFFFFFFFFFFFF AND SWAP1 POP DUP4 JUMP JUMPDEST PUSH1 0x0 PUSH20 0xFFFFFFFFFFFFFFFFFFFFFFFFFFFFFFFFFFFFFFFF AND PUSH1 0x0 DUP1 DUP9 DUP2 MSTORE PUSH1 0x20 ADD SWAP1 DUP2 MSTORE PUSH1 0x20 ADD PUSH1 0x0 KECCAK256 PUSH1 0x0 SWAP1 SLOAD SWAP1 PUSH2 0x100 EXP SWAP1 DIV PUSH20 0xFFFFFFFFFFFFFFFFFFFFFFFFFFFFFFFFFFFFFFFF AND PUSH20 0xFFFFFFFFFFFFFFFFFFFFFFFFFFFFFFFFFFFFFFFF AND EQ PUSH2 0x196B JUMPI PUSH1 0x40 MLOAD PUSH32 0x8C379A000000000000000000000000000000000000000000000000000000000 DUP2 MSTORE PUSH1 0x4 ADD PUSH2 0x1962 SWAP1 PUSH2 0x2787 JUMP JUMPDEST PUSH1 0x40 MLOAD DUP1 SWAP2 SUB SWAP1 REVERT JUMPDEST PUSH1 0x0 PUSH1 0x2 PUSH1 0x0 DUP9 DUP2 MSTORE PUSH1 0x20 ADD SWAP1 DUP2 MSTORE PUSH1 0x20 ADD PUSH1 0x0 KECCAK256 DUP2 SWAP1 SSTORE POP DUP5 TIMESTAMP PUSH2 0x1990 SWAP2 SWAP1 PUSH2 0x298D JUMP JUMPDEST PUSH1 0x4 PUSH1 0x0 DUP9 DUP2 MSTORE PUSH1 0x20 ADD SWAP1 DUP2 MSTORE PUSH1 0x20 ADD PUSH1 0x0 KECCAK256 DUP2 SWAP1 SSTORE POP DUP6 PUSH1 0x1 PUSH1 0x0 DUP4 DUP2 MSTORE PUSH1 0x20 ADD SWAP1 DUP2 MSTORE PUSH1 0x20 ADD PUSH1 0x0 KECCAK256 DUP2 SWAP1 SSTORE POP PUSH1 0x0 PUSH1 0xA PUSH1 0x0 DUP9 DUP2 MSTORE PUSH1 0x20 ADD SWAP1 DUP2 MSTORE PUSH1 0x20 ADD PUSH1 0x0 KECCAK256 PUSH1 0x0 PUSH2 0x100 EXP DUP2 SLOAD DUP2 PUSH1 0xFF MUL NOT AND SWAP1 DUP4 ISZERO ISZERO MUL OR SWAP1 SSTORE POP DUP4 PUSH1 0x7 PUSH1 0x0 DUP9 DUP2 MSTORE PUSH1 0x20 ADD SWAP1 DUP2 MSTORE PUSH1 0x20 ADD PUSH1 0x0 KECCAK256 DUP2 SWAP1 SSTORE POP DUP4 PUSH1 0x7 PUSH1 0x0 DUP4 DUP2 MSTORE PUSH1 0x20 ADD SWAP1 DUP2 MSTORE PUSH1 0x20 ADD PUSH1 0x0 KECCAK256 DUP2 SWAP1 SSTORE POP PUSH1 0x0 PUSH1 0x9 PUSH1 0x0 DUP9 DUP2 MSTORE PUSH1 0x20 ADD SWAP1 DUP2 MSTORE PUSH1 0x20 ADD PUSH1 0x0 KECCAK256 PUSH1 0x0 PUSH2 0x100 EXP DUP2 SLOAD DUP2 PUSH1 0xFF MUL NOT AND SWAP1 DUP4 ISZERO ISZERO MUL OR SWAP1 SSTORE POP DUP5 PUSH1 0x3 PUSH1 0x0 DUP4 DUP2 MSTORE PUSH1 0x20 ADD SWAP1 DUP2 MSTORE PUSH1 0x20 ADD PUSH1 0x0 KECCAK256 DUP2 SWAP1 SSTORE POP DUP3 PUSH1 0x5 PUSH1 0x0 DUP4 DUP2 MSTORE PUSH1 0x20 ADD SWAP1 DUP2 MSTORE PUSH1 0x20 ADD PUSH1 0x0 KECCAK256 DUP2 SWAP1 SSTORE POP DUP2 PUSH1 0x8 PUSH1 0x0 DUP4 DUP2 MSTORE PUSH1 0x20 ADD SWAP1 DUP2 MSTORE PUSH1 0x20 ADD PUSH1 0x0 KECCAK256 SWAP1 DUP1 MLOAD SWAP1 PUSH1 0x20 ADD SWAP1 PUSH2 0x1A9E SWAP3 SWAP2 SWAP1 PUSH2 0x1F93 JUMP JUMPDEST POP PUSH1 0x0 PUSH1 0x6 PUSH1 0x0 DUP9 DUP2 MSTORE PUSH1 0x20 ADD SWAP1 DUP2 MSTORE PUSH1 0x20 ADD PUSH1 0x0 KECCAK256 DUP2 SWAP1 SSTORE POP CALLER PUSH1 0x0 DUP1 DUP9 DUP2 MSTORE PUSH1 0x20 ADD SWAP1 DUP2 MSTORE PUSH1 0x20 ADD PUSH1 0x0 KECCAK256 PUSH1 0x0 PUSH2 0x100 EXP DUP2 SLOAD DUP2 PUSH20 0xFFFFFFFFFFFFFFFFFFFFFFFFFFFFFFFFFFFFFFFF MUL NOT AND SWAP1 DUP4 PUSH20 0xFFFFFFFFFFFFFFFFFFFFFFFFFFFFFFFFFFFFFFFF AND MUL OR SWAP1 SSTORE POP POP POP POP POP POP POP JUMP JUMPDEST PUSH1 0x0 PUSH1 0x20 MSTORE DUP1 PUSH1 0x0 MSTORE PUSH1 0x40 PUSH1 0x0 KECCAK256 PUSH1 0x0 SWAP2 POP SLOAD SWAP1 PUSH2 0x100 EXP SWAP1 DIV PUSH20 0xFFFFFFFFFFFFFFFFFFFFFFFFFFFFFFFFFFFFFFFF AND DUP2 JUMP JUMPDEST PUSH1 0x0 DUP1 DUP3 DUP2 MSTORE PUSH1 0x20 ADD SWAP1 DUP2 MSTORE PUSH1 0x20 ADD PUSH1 0x0 KECCAK256 PUSH1 0x0 SWAP1 SLOAD SWAP1 PUSH2 0x100 EXP SWAP1 DIV PUSH20 0xFFFFFFFFFFFFFFFFFFFFFFFFFFFFFFFFFFFFFFFF AND PUSH20 0xFFFFFFFFFFFFFFFFFFFFFFFFFFFFFFFFFFFFFFFF AND CALLER PUSH20 0xFFFFFFFFFFFFFFFFFFFFFFFFFFFFFFFFFFFFFFFF AND EQ PUSH2 0x1BE4 JUMPI PUSH1 0x40 MLOAD PUSH32 0x8C379A000000000000000000000000000000000000000000000000000000000 DUP2 MSTORE PUSH1 0x4 ADD PUSH2 0x1BDB SWAP1 PUSH2 0x2847 JUMP JUMPDEST PUSH1 0x40 MLOAD DUP1 SWAP2 SUB SWAP1 REVERT JUMPDEST PUSH1 0x0 DUP1 DUP3 DUP2 MSTORE PUSH1 0x20 ADD SWAP1 DUP2 MSTORE PUSH1 0x20 ADD PUSH1 0x0 KECCAK256 PUSH1 0x0 SWAP1 SLOAD SWAP1 PUSH2 0x100 EXP SWAP1 DIV PUSH20 0xFFFFFFFFFFFFFFFFFFFFFFFFFFFFFFFFFFFFFFFF AND PUSH20 0xFFFFFFFFFFFFFFFFFFFFFFFFFFFFFFFFFFFFFFFF AND DUP3 PUSH20 0xFFFFFFFFFFFFFFFFFFFFFFFFFFFFFFFFFFFFFFFF AND EQ ISZERO PUSH2 0x1C85 JUMPI PUSH1 0x40 MLOAD PUSH32 0x8C379A000000000000000000000000000000000000000000000000000000000 DUP2 MSTORE PUSH1 0x4 ADD PUSH2 0x1C7C SWAP1 PUSH2 0x27E7 JUMP JUMPDEST PUSH1 0x40 MLOAD DUP1 SWAP2 SUB SWAP1 REVERT JUMPDEST PUSH1 0x0 PUSH20 0xFFFFFFFFFFFFFFFFFFFFFFFFFFFFFFFFFFFFFFFF AND PUSH1 0xB PUSH1 0x0 DUP4 DUP2 MSTORE PUSH1 0x20 ADD SWAP1 DUP2 MSTORE PUSH1 0x20 ADD PUSH1 0x0 KECCAK256 PUSH1 0x0 DUP5 PUSH20 0xFFFFFFFFFFFFFFFFFFFFFFFFFFFFFFFFFFFFFFFF AND PUSH20 0xFFFFFFFFFFFFFFFFFFFFFFFFFFFFFFFFFFFFFFFF AND DUP2 MSTORE PUSH1 0x20 ADD SWAP1 DUP2 MSTORE PUSH1 0x20 ADD PUSH1 0x0 KECCAK256 PUSH1 0x0 ADD PUSH1 0x2 SWAP1 SLOAD SWAP1 PUSH2 0x100 EXP SWAP1 DIV PUSH20 0xFFFFFFFFFFFFFFFFFFFFFFFFFFFFFFFFFFFFFFFF AND PUSH20 0xFFFFFFFFFFFFFFFFFFFFFFFFFFFFFFFFFFFFFFFF AND EQ PUSH2 0x1D67 JUMPI PUSH1 0x40 MLOAD PUSH32 0x8C379A000000000000000000000000000000000000000000000000000000000 DUP2 MSTORE PUSH1 0x4 ADD PUSH2 0x1D5E SWAP1 PUSH2 0x2767 JUMP JUMPDEST PUSH1 0x40 MLOAD DUP1 SWAP2 SUB SWAP1 REVERT JUMPDEST PUSH1 0x4 PUSH1 0x0 DUP3 DUP2 MSTORE PUSH1 0x20 ADD SWAP1 DUP2 MSTORE PUSH1 0x20 ADD PUSH1 0x0 KECCAK256 SLOAD TIMESTAMP LT PUSH2 0x1DBC JUMPI PUSH1 0x40 MLOAD PUSH32 0x8C379A000000000000000000000000000000000000000000000000000000000 DUP2 MSTORE PUSH1 0x4 ADD PUSH2 0x1DB3 SWAP1 PUSH2 0x2827 JUMP JUMPDEST PUSH1 0x40 MLOAD DUP1 SWAP2 SUB SWAP1 REVERT JUMPDEST PUSH1 0x0 PUSH1 0x40 MLOAD DUP1 PUSH1 0x60 ADD PUSH1 0x40 MSTORE DUP1 PUSH1 0x0 ISZERO ISZERO DUP2 MSTORE PUSH1 0x20 ADD PUSH1 0x0 ISZERO ISZERO DUP2 MSTORE PUSH1 0x20 ADD DUP5 PUSH20 0xFFFFFFFFFFFFFFFFFFFFFFFFFFFFFFFFFFFFFFFF AND DUP2 MSTORE POP SWAP1 POP DUP1 PUSH1 0xB PUSH1 0x0 DUP5 DUP2 MSTORE PUSH1 0x20 ADD SWAP1 DUP2 MSTORE PUSH1 0x20 ADD PUSH1 0x0 KECCAK256 PUSH1 0x0 DUP6 PUSH20 0xFFFFFFFFFFFFFFFFFFFFFFFFFFFFFFFFFFFFFFFF AND PUSH20 0xFFFFFFFFFFFFFFFFFFFFFFFFFFFFFFFFFFFFFFFF AND DUP2 MSTORE PUSH1 0x20 ADD SWAP1 DUP2 MSTORE PUSH1 0x20 ADD PUSH1 0x0 KECCAK256 PUSH1 0x0 DUP3 ADD MLOAD DUP2 PUSH1 0x0 ADD PUSH1 0x0 PUSH2 0x100 EXP DUP2 SLOAD DUP2 PUSH1 0xFF MUL NOT AND SWAP1 DUP4 ISZERO ISZERO MUL OR SWAP1 SSTORE POP PUSH1 0x20 DUP3 ADD MLOAD DUP2 PUSH1 0x0 ADD PUSH1 0x1 PUSH2 0x100 EXP DUP2 SLOAD DUP2 PUSH1 0xFF MUL NOT AND SWAP1 DUP4 ISZERO ISZERO MUL OR SWAP1 SSTORE POP PUSH1 0x40 DUP3 ADD MLOAD DUP2 PUSH1 0x0 ADD PUSH1 0x2 PUSH2 0x100 EXP DUP2 SLOAD DUP2 PUSH20 0xFFFFFFFFFFFFFFFFFFFFFFFFFFFFFFFFFFFFFFFF MUL NOT AND SWAP1 DUP4 PUSH20 0xFFFFFFFFFFFFFFFFFFFFFFFFFFFFFFFFFFFFFFFF AND MUL OR SWAP1 SSTORE POP SWAP1 POP POP PUSH1 0xD PUSH1 0x0 DUP4 DUP2 MSTORE PUSH1 0x20 ADD SWAP1 DUP2 MSTORE PUSH1 0x20 ADD PUSH1 0x0 KECCAK256 DUP4 SWAP1 DUP1 PUSH1 0x1 DUP2 SLOAD ADD DUP1 DUP3 SSTORE DUP1 SWAP2 POP POP PUSH1 0x1 SWAP1 SUB SWAP1 PUSH1 0x0 MSTORE PUSH1 0x20 PUSH1 0x0 KECCAK256 ADD PUSH1 0x0 SWAP1 SWAP2 SWAP1 SWAP2 SWAP1 SWAP2 PUSH2 0x100 EXP DUP2 SLOAD DUP2 PUSH20 0xFFFFFFFFFFFFFFFFFFFFFFFFFFFFFFFFFFFFFFFF MUL NOT AND SWAP1 DUP4 PUSH20 0xFFFFFFFFFFFFFFFFFFFFFFFFFFFFFFFFFFFFFFFF AND MUL OR SWAP1 SSTORE POP POP POP POP JUMP JUMPDEST PUSH1 0x6 PUSH1 0x20 MSTORE DUP1 PUSH1 0x0 MSTORE PUSH1 0x40 PUSH1 0x0 KECCAK256 PUSH1 0x0 SWAP2 POP SWAP1 POP SLOAD DUP2 JUMP JUMPDEST PUSH1 0x1 PUSH1 0x20 MSTORE DUP1 PUSH1 0x0 MSTORE PUSH1 0x40 PUSH1 0x0 KECCAK256 PUSH1 0x0 SWAP2 POP SWAP1 POP SLOAD DUP2 JUMP JUMPDEST PUSH1 0x5 PUSH1 0x20 MSTORE DUP1 PUSH1 0x0 MSTORE PUSH1 0x40 PUSH1 0x0 KECCAK256 PUSH1 0x0 SWAP2 POP SWAP1 POP SLOAD DUP2 JUMP JUMPDEST DUP3 DUP1 SLOAD PUSH2 0x1F9F SWAP1 PUSH2 0x2B0F JUMP JUMPDEST SWAP1 PUSH1 0x0 MSTORE PUSH1 0x20 PUSH1 0x0 KECCAK256 SWAP1 PUSH1 0x1F ADD PUSH1 0x20 SWAP1 DIV DUP2 ADD SWAP3 DUP3 PUSH2 0x1FC1 JUMPI PUSH1 0x0 DUP6 SSTORE PUSH2 0x2008 JUMP JUMPDEST DUP3 PUSH1 0x1F LT PUSH2 0x1FDA JUMPI DUP1 MLOAD PUSH1 0xFF NOT AND DUP4 DUP1 ADD OR DUP6 SSTORE PUSH2 0x2008 JUMP JUMPDEST DUP3 DUP1 ADD PUSH1 0x1 ADD DUP6 SSTORE DUP3 ISZERO PUSH2 0x2008 JUMPI SWAP2 DUP3 ADD JUMPDEST DUP3 DUP2 GT ISZERO PUSH2 0x2007 JUMPI DUP3 MLOAD DUP3 SSTORE SWAP2 PUSH1 0x20 ADD SWAP2 SWAP1 PUSH1 0x1 ADD SWAP1 PUSH2 0x1FEC JUMP JUMPDEST JUMPDEST POP SWAP1 POP PUSH2 0x2015 SWAP2 SWAP1 PUSH2 0x2019 JUMP JUMPDEST POP SWAP1 JUMP JUMPDEST JUMPDEST DUP1 DUP3 GT ISZERO PUSH2 0x2032 JUMPI PUSH1 0x0 DUP2 PUSH1 0x0 SWAP1 SSTORE POP PUSH1 0x1 ADD PUSH2 0x201A JUMP JUMPDEST POP SWAP1 JUMP JUMPDEST PUSH1 0x0 PUSH2 0x2049 PUSH2 0x2044 DUP5 PUSH2 0x2907 JUMP JUMPDEST PUSH2 0x28E2 JUMP JUMPDEST SWAP1 POP DUP3 DUP2 MSTORE PUSH1 0x20 DUP2 ADD DUP5 DUP5 DUP5 ADD GT ISZERO PUSH2 0x2065 JUMPI PUSH2 0x2064 PUSH2 0x2C8C JUMP JUMPDEST JUMPDEST PUSH2 0x2070 DUP5 DUP3 DUP6 PUSH2 0x2ACD JUMP JUMPDEST POP SWAP4 SWAP3 POP POP POP JUMP JUMPDEST PUSH1 0x0 DUP2 CALLDATALOAD SWAP1 POP PUSH2 0x2087 DUP2 PUSH2 0x2F07 JUMP JUMPDEST SWAP3 SWAP2 POP POP JUMP JUMPDEST PUSH1 0x0 DUP2 CALLDATALOAD SWAP1 POP PUSH2 0x209C DUP2 PUSH2 0x2F1E JUMP JUMPDEST SWAP3 SWAP2 POP POP JUMP JUMPDEST PUSH1 0x0 DUP3 PUSH1 0x1F DUP4 ADD SLT PUSH2 0x20B7 JUMPI PUSH2 0x20B6 PUSH2 0x2C87 JUMP JUMPDEST JUMPDEST DUP2 CALLDATALOAD PUSH2 0x20C7 DUP5 DUP3 PUSH1 0x20 DUP7 ADD PUSH2 0x2036 JUMP JUMPDEST SWAP2 POP POP SWAP3 SWAP2 POP POP JUMP JUMPDEST PUSH1 0x0 DUP2 CALLDATALOAD SWAP1 POP PUSH2 0x20DF DUP2 PUSH2 0x2F35 JUMP JUMPDEST SWAP3 SWAP2 POP POP JUMP JUMPDEST PUSH1 0x0 DUP1 PUSH1 0x40 DUP4 DUP6 SUB SLT ISZERO PUSH2 0x20FC JUMPI PUSH2 0x20FB PUSH2 0x2C96 JUMP JUMPDEST JUMPDEST PUSH1 0x0 PUSH2 0x210A DUP6 DUP3 DUP7 ADD PUSH2 0x2078 JUMP JUMPDEST SWAP3 POP POP PUSH1 0x20 PUSH2 0x211B DUP6 DUP3 DUP7 ADD PUSH2 0x208D JUMP JUMPDEST SWAP2 POP POP SWAP3 POP SWAP3 SWAP1 POP JUMP JUMPDEST PUSH1 0x0 PUSH1 0x20 DUP3 DUP5 SUB SLT ISZERO PUSH2 0x213B JUMPI PUSH2 0x213A PUSH2 0x2C96 JUMP JUMPDEST JUMPDEST PUSH1 0x0 PUSH2 0x2149 DUP5 DUP3 DUP6 ADD PUSH2 0x208D JUMP JUMPDEST SWAP2 POP POP SWAP3 SWAP2 POP POP JUMP JUMPDEST PUSH1 0x0 DUP1 PUSH1 0x40 DUP4 DUP6 SUB SLT ISZERO PUSH2 0x2169 JUMPI PUSH2 0x2168 PUSH2 0x2C96 JUMP JUMPDEST JUMPDEST PUSH1 0x0 PUSH2 0x2177 DUP6 DUP3 DUP7 ADD PUSH2 0x208D JUMP JUMPDEST SWAP3 POP POP PUSH1 0x20 PUSH2 0x2188 DUP6 DUP3 DUP7 ADD PUSH2 0x2078 JUMP JUMPDEST SWAP2 POP POP SWAP3 POP SWAP3 SWAP1 POP JUMP JUMPDEST PUSH1 0x0 DUP1 PUSH1 0x40 DUP4 DUP6 SUB SLT ISZERO PUSH2 0x21A9 JUMPI PUSH2 0x21A8 PUSH2 0x2C96 JUMP JUMPDEST JUMPDEST PUSH1 0x0 PUSH2 0x21B7 DUP6 DUP3 DUP7 ADD PUSH2 0x208D JUMP JUMPDEST SWAP3 POP POP PUSH1 0x20 PUSH2 0x21C8 DUP6 DUP3 DUP7 ADD PUSH2 0x20D0 JUMP JUMPDEST SWAP2 POP POP SWAP3 POP SWAP3 SWAP1 POP JUMP JUMPDEST PUSH1 0x0 DUP1 PUSH1 0x0 DUP1 PUSH1 0x80 DUP6 DUP8 SUB SLT ISZERO PUSH2 0x21EC JUMPI PUSH2 0x21EB PUSH2 0x2C96 JUMP JUMPDEST JUMPDEST PUSH1 0x0 PUSH2 0x21FA DUP8 DUP3 DUP9 ADD PUSH2 0x208D JUMP JUMPDEST SWAP5 POP POP PUSH1 0x20 PUSH2 0x220B DUP8 DUP3 DUP9 ADD PUSH2 0x20D0 JUMP JUMPDEST SWAP4 POP POP PUSH1 0x40 PUSH2 0x221C DUP8 DUP3 DUP9 ADD PUSH2 0x20D0 JUMP JUMPDEST SWAP3 POP POP PUSH1 0x60 PUSH2 0x222D DUP8 DUP3 DUP9 ADD PUSH2 0x208D JUMP JUMPDEST SWAP2 POP POP SWAP3 SWAP6 SWAP2 SWAP5 POP SWAP3 POP JUMP JUMPDEST PUSH1 0x0 DUP1 PUSH1 0x0 DUP1 PUSH1 0x0 DUP1 PUSH1 0xC0 DUP8 DUP10 SUB SLT ISZERO PUSH2 0x2256 JUMPI PUSH2 0x2255 PUSH2 0x2C96 JUMP JUMPDEST JUMPDEST PUSH1 0x0 PUSH2 0x2264 DUP10 DUP3 DUP11 ADD PUSH2 0x208D JUMP JUMPDEST SWAP7 POP POP PUSH1 0x20 PUSH2 0x2275 DUP10 DUP3 DUP11 ADD PUSH2 0x20D0 JUMP JUMPDEST SWAP6 POP POP PUSH1 0x40 PUSH2 0x2286 DUP10 DUP3 DUP11 ADD PUSH2 0x20D0 JUMP JUMPDEST SWAP5 POP POP PUSH1 0x60 PUSH2 0x2297 DUP10 DUP3 DUP11 ADD PUSH2 0x208D JUMP JUMPDEST SWAP4 POP POP PUSH1 0x80 DUP8 ADD CALLDATALOAD PUSH8 0xFFFFFFFFFFFFFFFF DUP2 GT ISZERO PUSH2 0x22B8 JUMPI PUSH2 0x22B7 PUSH2 0x2C91 JUMP JUMPDEST JUMPDEST PUSH2 0x22C4 DUP10 DUP3 DUP11 ADD PUSH2 0x20A2 JUMP JUMPDEST SWAP3 POP POP PUSH1 0xA0 PUSH2 0x22D5 DUP10 DUP3 DUP11 ADD PUSH2 0x208D JUMP JUMPDEST SWAP2 POP POP SWAP3 SWAP6 POP SWAP3 SWAP6 POP SWAP3 SWAP6 JUMP JUMPDEST PUSH1 0x0 DUP1 PUSH1 0x40 DUP4 DUP6 SUB SLT ISZERO PUSH2 0x22F9 JUMPI PUSH2 0x22F8 PUSH2 0x2C96 JUMP JUMPDEST JUMPDEST PUSH1 0x0 DUP4 ADD CALLDATALOAD PUSH8 0xFFFFFFFFFFFFFFFF DUP2 GT ISZERO PUSH2 0x2317 JUMPI PUSH2 0x2316 PUSH2 0x2C91 JUMP JUMPDEST JUMPDEST PUSH2 0x2323 DUP6 DUP3 DUP7 ADD PUSH2 0x20A2 JUMP JUMPDEST SWAP3 POP POP PUSH1 0x20 PUSH2 0x2334 DUP6 DUP3 DUP7 ADD PUSH2 0x208D JUMP JUMPDEST SWAP2 POP POP SWAP3 POP SWAP3 SWAP1 POP JUMP JUMPDEST PUSH1 0x0 PUSH2 0x234A DUP4 DUP4 PUSH2 0x25B9 JUMP JUMPDEST PUSH1 0x60 DUP4 ADD SWAP1 POP SWAP3 SWAP2 POP POP JUMP JUMPDEST PUSH2 0x235F DUP2 PUSH2 0x2A6E JUMP JUMPDEST DUP3 MSTORE POP POP JUMP JUMPDEST PUSH2 0x236E DUP2 PUSH2 0x2A6E JUMP JUMPDEST DUP3 MSTORE POP POP JUMP JUMPDEST PUSH1 0x0 PUSH2 0x237F DUP3 PUSH2 0x2948 JUMP JUMPDEST PUSH2 0x2389 DUP2 DUP6 PUSH2 0x296B JUMP JUMPDEST SWAP4 POP PUSH2 0x2394 DUP4 PUSH2 0x2938 JUMP JUMPDEST DUP1 PUSH1 0x0 JUMPDEST DUP4 DUP2 LT ISZERO PUSH2 0x23C5 JUMPI DUP2 MLOAD PUSH2 0x23AC DUP9 DUP3 PUSH2 0x233E JUMP JUMPDEST SWAP8 POP PUSH2 0x23B7 DUP4 PUSH2 0x295E JUMP JUMPDEST SWAP3 POP POP PUSH1 0x1 DUP2 ADD SWAP1 POP PUSH2 0x2398 JUMP JUMPDEST POP DUP6 SWAP4 POP POP POP POP SWAP3 SWAP2 POP POP JUMP JUMPDEST PUSH2 0x23DB DUP2 PUSH2 0x2A80 JUMP JUMPDEST DUP3 MSTORE POP POP JUMP JUMPDEST PUSH2 0x23EA DUP2 PUSH2 0x2A80 JUMP JUMPDEST DUP3 MSTORE POP POP JUMP JUMPDEST PUSH2 0x23F9 DUP2 PUSH2 0x2A8C JUMP JUMPDEST DUP3 MSTORE POP POP JUMP JUMPDEST PUSH1 0x0 PUSH2 0x240A DUP3 PUSH2 0x2953 JUMP JUMPDEST PUSH2 0x2414 DUP2 DUP6 PUSH2 0x297C JUMP JUMPDEST SWAP4 POP PUSH2 0x2424 DUP2 DUP6 PUSH1 0x20 DUP7 ADD PUSH2 0x2ADC JUMP JUMPDEST PUSH2 0x242D DUP2 PUSH2 0x2C9B JUMP JUMPDEST DUP5 ADD SWAP2 POP POP SWAP3 SWAP2 POP POP JUMP JUMPDEST PUSH1 0x0 PUSH2 0x2445 PUSH1 0x1F DUP4 PUSH2 0x297C JUMP JUMPDEST SWAP2 POP PUSH2 0x2450 DUP3 PUSH2 0x2CAC JUMP JUMPDEST PUSH1 0x20 DUP3 ADD SWAP1 POP SWAP2 SWAP1 POP JUMP JUMPDEST PUSH1 0x0 PUSH2 0x2468 PUSH1 0x19 DUP4 PUSH2 0x297C JUMP JUMPDEST SWAP2 POP PUSH2 0x2473 DUP3 PUSH2 0x2CD5 JUMP JUMPDEST PUSH1 0x20 DUP3 ADD SWAP1 POP SWAP2 SWAP1 POP JUMP JUMPDEST PUSH1 0x0 PUSH2 0x248B PUSH1 0x26 DUP4 PUSH2 0x297C JUMP JUMPDEST SWAP2 POP PUSH2 0x2496 DUP3 PUSH2 0x2CFE JUMP JUMPDEST PUSH1 0x40 DUP3 ADD SWAP1 POP SWAP2 SWAP1 POP JUMP JUMPDEST PUSH1 0x0 PUSH2 0x24AE PUSH1 0x1C DUP4 PUSH2 0x297C JUMP JUMPDEST SWAP2 POP PUSH2 0x24B9 DUP3 PUSH2 0x2D4D JUMP JUMPDEST PUSH1 0x20 DUP3 ADD SWAP1 POP SWAP2 SWAP1 POP JUMP JUMPDEST PUSH1 0x0 PUSH2 0x24D1 PUSH1 0x15 DUP4 PUSH2 0x297C JUMP JUMPDEST SWAP2 POP PUSH2 0x24DC DUP3 PUSH2 0x2D76 JUMP JUMPDEST PUSH1 0x20 DUP3 ADD SWAP1 POP SWAP2 SWAP1 POP JUMP JUMPDEST PUSH1 0x0 PUSH2 0x24F4 PUSH1 0x1E DUP4 PUSH2 0x297C JUMP JUMPDEST SWAP2 POP PUSH2 0x24FF DUP3 PUSH2 0x2D9F JUMP JUMPDEST PUSH1 0x20 DUP3 ADD SWAP1 POP SWAP2 SWAP1 POP JUMP JUMPDEST PUSH1 0x0 PUSH2 0x2517 PUSH1 0x24 DUP4 PUSH2 0x297C JUMP JUMPDEST SWAP2 POP PUSH2 0x2522 DUP3 PUSH2 0x2DC8 JUMP JUMPDEST PUSH1 0x40 DUP3 ADD SWAP1 POP SWAP2 SWAP1 POP JUMP JUMPDEST PUSH1 0x0 PUSH2 0x253A PUSH1 0x28 DUP4 PUSH2 0x297C JUMP JUMPDEST SWAP2 POP PUSH2 0x2545 DUP3 PUSH2 0x2E17 JUMP JUMPDEST PUSH1 0x40 DUP3 ADD SWAP1 POP SWAP2 SWAP1 POP JUMP JUMPDEST PUSH1 0x0 PUSH2 0x255D PUSH1 0x20 DUP4 PUSH2 0x297C JUMP JUMPDEST SWAP2 POP PUSH2 0x2568 DUP3 PUSH2 0x2E66 JUMP JUMPDEST PUSH1 0x20 DUP3 ADD SWAP1 POP SWAP2 SWAP1 POP JUMP JUMPDEST PUSH1 0x0 PUSH2 0x2580 PUSH1 0x12 DUP4 PUSH2 0x297C JUMP JUMPDEST SWAP2 POP PUSH2 0x258B DUP3 PUSH2 0x2E8F JUMP JUMPDEST PUSH1 0x20 DUP3 ADD SWAP1 POP SWAP2 SWAP1 POP JUMP JUMPDEST PUSH1 0x0 PUSH2 0x25A3 PUSH1 0x25 DUP4 PUSH2 0x297C JUMP JUMPDEST SWAP2 POP PUSH2 0x25AE DUP3 PUSH2 0x2EB8 JUMP JUMPDEST PUSH1 0x40 DUP3 ADD SWAP1 POP SWAP2 SWAP1 POP JUMP JUMPDEST PUSH1 0x60 DUP3 ADD PUSH1 0x0 DUP3 ADD MLOAD PUSH2 0x25CF PUSH1 0x0 DUP6 ADD DUP3 PUSH2 0x23D2 JUMP JUMPDEST POP PUSH1 0x20 DUP3 ADD MLOAD PUSH2 0x25E2 PUSH1 0x20 DUP6 ADD DUP3 PUSH2 0x23D2 JUMP JUMPDEST POP PUSH1 0x40 DUP3 ADD MLOAD PUSH2 0x25F5 PUSH1 0x40 DUP6 ADD DUP3 PUSH2 0x2356 JUMP JUMPDEST POP POP POP POP JUMP JUMPDEST PUSH2 0x2604 DUP2 PUSH2 0x2AB6 JUMP JUMPDEST DUP3 MSTORE POP POP JUMP JUMPDEST PUSH1 0x0 PUSH1 0x20 DUP3 ADD SWAP1 POP PUSH2 0x261F PUSH1 0x0 DUP4 ADD DUP5 PUSH2 0x2365 JUMP JUMPDEST SWAP3 SWAP2 POP POP JUMP JUMPDEST PUSH1 0x0 PUSH1 0x20 DUP3 ADD SWAP1 POP PUSH2 0x263A PUSH1 0x0 DUP4 ADD DUP5 PUSH2 0x23E1 JUMP JUMPDEST SWAP3 SWAP2 POP POP JUMP JUMPDEST PUSH1 0x0 PUSH1 0x60 DUP3 ADD SWAP1 POP PUSH2 0x2655 PUSH1 0x0 DUP4 ADD DUP7 PUSH2 0x23E1 JUMP JUMPDEST PUSH2 0x2662 PUSH1 0x20 DUP4 ADD DUP6 PUSH2 0x23E1 JUMP JUMPDEST PUSH2 0x266F PUSH1 0x40 DUP4 ADD DUP5 PUSH2 0x2365 JUMP JUMPDEST SWAP5 SWAP4 POP POP POP POP JUMP JUMPDEST PUSH1 0x0 PUSH1 0x60 DUP3 ADD SWAP1 POP PUSH2 0x268C PUSH1 0x0 DUP4 ADD DUP7 PUSH2 0x23E1 JUMP JUMPDEST PUSH2 0x2699 PUSH1 0x20 DUP4 ADD DUP6 PUSH2 0x23E1 JUMP JUMPDEST PUSH2 0x26A6 PUSH1 0x40 DUP4 ADD DUP5 PUSH2 0x23E1 JUMP JUMPDEST SWAP5 SWAP4 POP POP POP POP JUMP JUMPDEST PUSH1 0x0 PUSH1 0x80 DUP3 ADD SWAP1 POP PUSH2 0x26C3 PUSH1 0x0 DUP4 ADD DUP8 PUSH2 0x23E1 JUMP JUMPDEST PUSH2 0x26D0 PUSH1 0x20 DUP4 ADD DUP7 PUSH2 0x23F0 JUMP JUMPDEST PUSH2 0x26DD PUSH1 0x40 DUP4 ADD DUP6 PUSH2 0x25FB JUMP JUMPDEST DUP2 DUP2 SUB PUSH1 0x60 DUP4 ADD MSTORE PUSH2 0x26EF DUP2 DUP5 PUSH2 0x2374 JUMP JUMPDEST SWAP1 POP SWAP6 SWAP5 POP POP POP POP POP JUMP JUMPDEST PUSH1 0x0 PUSH1 0x20 DUP3 ADD SWAP1 POP PUSH2 0x270F PUSH1 0x0 DUP4 ADD DUP5 PUSH2 0x23F0 JUMP JUMPDEST SWAP3 SWAP2 POP POP JUMP JUMPDEST PUSH1 0x0 PUSH1 0x40 DUP3 ADD SWAP1 POP PUSH2 0x272A PUSH1 0x0 DUP4 ADD DUP6 PUSH2 0x23F0 JUMP JUMPDEST DUP2 DUP2 SUB PUSH1 0x20 DUP4 ADD MSTORE PUSH2 0x273C DUP2 DUP5 PUSH2 0x23FF JUMP JUMPDEST SWAP1 POP SWAP4 SWAP3 POP POP POP JUMP JUMPDEST PUSH1 0x0 PUSH1 0x20 DUP3 ADD SWAP1 POP DUP2 DUP2 SUB PUSH1 0x0 DUP4 ADD MSTORE PUSH2 0x275F DUP2 DUP5 PUSH2 0x23FF JUMP JUMPDEST SWAP1 POP SWAP3 SWAP2 POP POP JUMP JUMPDEST PUSH1 0x0 PUSH1 0x20 DUP3 ADD SWAP1 POP DUP2 DUP2 SUB PUSH1 0x0 DUP4 ADD MSTORE PUSH2 0x2780 DUP2 PUSH2 0x2438 JUMP JUMPDEST SWAP1 POP SWAP2 SWAP1 POP JUMP JUMPDEST PUSH1 0x0 PUSH1 0x20 DUP3 ADD SWAP1 POP DUP2 DUP2 SUB PUSH1 0x0 DUP4 ADD MSTORE PUSH2 0x27A0 DUP2 PUSH2 0x245B JUMP JUMPDEST SWAP1 POP SWAP2 SWAP1 POP JUMP JUMPDEST PUSH1 0x0 PUSH1 0x20 DUP3 ADD SWAP1 POP DUP2 DUP2 SUB PUSH1 0x0 DUP4 ADD MSTORE PUSH2 0x27C0 DUP2 PUSH2 0x247E JUMP JUMPDEST SWAP1 POP SWAP2 SWAP1 POP JUMP JUMPDEST PUSH1 0x0 PUSH1 0x20 DUP3 ADD SWAP1 POP DUP2 DUP2 SUB PUSH1 0x0 DUP4 ADD MSTORE PUSH2 0x27E0 DUP2 PUSH2 0x24A1 JUMP JUMPDEST SWAP1 POP SWAP2 SWAP1 POP JUMP JUMPDEST PUSH1 0x0 PUSH1 0x20 DUP3 ADD SWAP1 POP DUP2 DUP2 SUB PUSH1 0x0 DUP4 ADD MSTORE PUSH2 0x2800 DUP2 PUSH2 0x24C4 JUMP JUMPDEST SWAP1 POP SWAP2 SWAP1 POP JUMP JUMPDEST PUSH1 0x0 PUSH1 0x20 DUP3 ADD SWAP1 POP DUP2 DUP2 SUB PUSH1 0x0 DUP4 ADD MSTORE PUSH2 0x2820 DUP2 PUSH2 0x24E7 JUMP JUMPDEST SWAP1 POP SWAP2 SWAP1 POP JUMP JUMPDEST PUSH1 0x0 PUSH1 0x20 DUP3 ADD SWAP1 POP DUP2 DUP2 SUB PUSH1 0x0 DUP4 ADD MSTORE PUSH2 0x2840 DUP2 PUSH2 0x250A JUMP JUMPDEST SWAP1 POP SWAP2 SWAP1 POP JUMP JUMPDEST PUSH1 0x0 PUSH1 0x20 DUP3 ADD SWAP1 POP DUP2 DUP2 SUB PUSH1 0x0 DUP4 ADD MSTORE PUSH2 0x2860 DUP2 PUSH2 0x252D JUMP JUMPDEST SWAP1 POP SWAP2 SWAP1 POP JUMP JUMPDEST PUSH1 0x0 PUSH1 0x20 DUP3 ADD SWAP1 POP DUP2 DUP2 SUB PUSH1 0x0 DUP4 ADD MSTORE PUSH2 0x2880 DUP2 PUSH2 0x2550 JUMP JUMPDEST SWAP1 POP SWAP2 SWAP1 POP JUMP JUMPDEST PUSH1 0x0 PUSH1 0x20 DUP3 ADD SWAP1 POP DUP2 DUP2 SUB PUSH1 0x0 DUP4 ADD MSTORE PUSH2 0x28A0 DUP2 PUSH2 0x2573 JUMP JUMPDEST SWAP1 POP SWAP2 SWAP1 POP JUMP JUMPDEST PUSH1 0x0 PUSH1 0x20 DUP3 ADD SWAP1 POP DUP2 DUP2 SUB PUSH1 0x0 DUP4 ADD MSTORE PUSH2 0x28C0 DUP2 PUSH2 0x2596 JUMP JUMPDEST SWAP1 POP SWAP2 SWAP1 POP JUMP JUMPDEST PUSH1 0x0 PUSH1 0x20 DUP3 ADD SWAP1 POP PUSH2 0x28DC PUSH1 0x0 DUP4 ADD DUP5 PUSH2 0x25FB JUMP JUMPDEST SWAP3 SWAP2 POP POP JUMP JUMPDEST PUSH1 0x0 PUSH2 0x28EC PUSH2 0x28FD JUMP JUMPDEST SWAP1 POP PUSH2 0x28F8 DUP3 DUP3 PUSH2 0x2B41 JUMP JUMPDEST SWAP2 SWAP1 POP JUMP JUMPDEST PUSH1 0x0 PUSH1 0x40 MLOAD SWAP1 POP SWAP1 JUMP JUMPDEST PUSH1 0x0 PUSH8 0xFFFFFFFFFFFFFFFF DUP3 GT ISZERO PUSH2 0x2922 JUMPI PUSH2 0x2921 PUSH2 0x2C58 JUMP JUMPDEST JUMPDEST PUSH2 0x292B DUP3 PUSH2 0x2C9B JUMP JUMPDEST SWAP1 POP PUSH1 0x20 DUP2 ADD SWAP1 POP SWAP2 SWAP1 POP JUMP JUMPDEST PUSH1 0x0 DUP2 SWAP1 POP PUSH1 0x20 DUP3 ADD SWAP1 POP SWAP2 SWAP1 POP JUMP JUMPDEST PUSH1 0x0 DUP2 MLOAD SWAP1 POP SWAP2 SWAP1 POP JUMP JUMPDEST PUSH1 0x0 DUP2 MLOAD SWAP1 POP SWAP2 SWAP1 POP JUMP JUMPDEST PUSH1 0x0 PUSH1 0x20 DUP3 ADD SWAP1 POP SWAP2 SWAP1 POP JUMP JUMPDEST PUSH1 0x0 DUP3 DUP3 MSTORE PUSH1 0x20 DUP3 ADD SWAP1 POP SWAP3 SWAP2 POP POP JUMP JUMPDEST PUSH1 0x0 DUP3 DUP3 MSTORE PUSH1 0x20 DUP3 ADD SWAP1 POP SWAP3 SWAP2 POP POP JUMP JUMPDEST PUSH1 0x0 PUSH2 0x2998 DUP3 PUSH2 0x2AB6 JUMP JUMPDEST SWAP2 POP PUSH2 0x29A3 DUP4 PUSH2 0x2AB6 JUMP JUMPDEST SWAP3 POP DUP3 PUSH32 0xFFFFFFFFFFFFFFFFFFFFFFFFFFFFFFFFFFFFFFFFFFFFFFFFFFFFFFFFFFFFFFFF SUB DUP3 GT ISZERO PUSH2 0x29D8 JUMPI PUSH2 0x29D7 PUSH2 0x2B9C JUMP JUMPDEST JUMPDEST DUP3 DUP3 ADD SWAP1 POP SWAP3 SWAP2 POP POP JUMP JUMPDEST PUSH1 0x0 PUSH2 0x29EE DUP3 PUSH2 0x2AB6 JUMP JUMPDEST SWAP2 POP PUSH2 0x29F9 DUP4 PUSH2 0x2AB6 JUMP JUMPDEST SWAP3 POP DUP3 PUSH2 0x2A09 JUMPI PUSH2 0x2A08 PUSH2 0x2BCB JUMP JUMPDEST JUMPDEST DUP3 DUP3 DIV SWAP1 POP SWAP3 SWAP2 POP POP JUMP JUMPDEST PUSH1 0x0 PUSH2 0x2A1F DUP3 PUSH2 0x2AB6 JUMP JUMPDEST SWAP2 POP PUSH2 0x2A2A DUP4 PUSH2 0x2AB6 JUMP JUMPDEST SWAP3 POP DUP2 PUSH32 0xFFFFFFFFFFFFFFFFFFFFFFFFFFFFFFFFFFFFFFFFFFFFFFFFFFFFFFFFFFFFFFFF DIV DUP4 GT DUP3 ISZERO ISZERO AND ISZERO PUSH2 0x2A63 JUMPI PUSH2 0x2A62 PUSH2 0x2B9C JUMP JUMPDEST JUMPDEST DUP3 DUP3 MUL SWAP1 POP SWAP3 SWAP2 POP POP JUMP JUMPDEST PUSH1 0x0 PUSH2 0x2A79 DUP3 PUSH2 0x2A96 JUMP JUMPDEST SWAP1 POP SWAP2 SWAP1 POP JUMP JUMPDEST PUSH1 0x0 DUP2 ISZERO ISZERO SWAP1 POP SWAP2 SWAP1 POP JUMP JUMPDEST PUSH1 0x0 DUP2 SWAP1 POP SWAP2 SWAP1 POP JUMP JUMPDEST PUSH1 0x0 PUSH20 0xFFFFFFFFFFFFFFFFFFFFFFFFFFFFFFFFFFFFFFFF DUP3 AND SWAP1 POP SWAP2 SWAP1 POP JUMP JUMPDEST PUSH1 0x0 DUP2 SWAP1 POP SWAP2 SWAP1 POP JUMP JUMPDEST PUSH1 0x0 PUSH1 0xFF DUP3 AND SWAP1 POP SWAP2 SWAP1 POP JUMP JUMPDEST DUP3 DUP2 DUP4 CALLDATACOPY PUSH1 0x0 DUP4 DUP4 ADD MSTORE POP POP POP JUMP JUMPDEST PUSH1 0x0 JUMPDEST DUP4 DUP2 LT ISZERO PUSH2 0x2AFA JUMPI DUP1 DUP3 ADD MLOAD DUP2 DUP5 ADD MSTORE PUSH1 0x20 DUP2 ADD SWAP1 POP PUSH2 0x2ADF JUMP JUMPDEST DUP4 DUP2 GT ISZERO PUSH2 0x2B09 JUMPI PUSH1 0x0 DUP5 DUP5 ADD MSTORE JUMPDEST POP POP POP POP JUMP JUMPDEST PUSH1 0x0 PUSH1 0x2 DUP3 DIV SWAP1 POP PUSH1 0x1 DUP3 AND DUP1 PUSH2 0x2B27 JUMPI PUSH1 0x7F DUP3 AND SWAP2 POP JUMPDEST PUSH1 0x20 DUP3 LT DUP2 EQ ISZERO PUSH2 0x2B3B JUMPI PUSH2 0x2B3A PUSH2 0x2BFA JUMP JUMPDEST JUMPDEST POP SWAP2 SWAP1 POP JUMP JUMPDEST PUSH2 0x2B4A DUP3 PUSH2 0x2C9B JUMP JUMPDEST DUP2 ADD DUP2 DUP2 LT PUSH8 0xFFFFFFFFFFFFFFFF DUP3 GT OR ISZERO PUSH2 0x2B69 JUMPI PUSH2 0x2B68 PUSH2 0x2C58 JUMP JUMPDEST JUMPDEST DUP1 PUSH1 0x40 MSTORE POP POP POP JUMP JUMPDEST PUSH1 0x0 PUSH2 0x2B7D DUP3 PUSH2 0x2AC0 JUMP JUMPDEST SWAP2 POP PUSH1 0xFF DUP3 EQ ISZERO PUSH2 0x2B91 JUMPI PUSH2 0x2B90 PUSH2 0x2B9C JUMP JUMPDEST JUMPDEST PUSH1 0x1 DUP3 ADD SWAP1 POP SWAP2 SWAP1 POP JUMP JUMPDEST PUSH32 0x4E487B7100000000000000000000000000000000000000000000000000000000 PUSH1 0x0 MSTORE PUSH1 0x11 PUSH1 0x4 MSTORE PUSH1 0x24 PUSH1 0x0 REVERT JUMPDEST PUSH32 0x4E487B7100000000000000000000000000000000000000000000000000000000 PUSH1 0x0 MSTORE PUSH1 0x12 PUSH1 0x4 MSTORE PUSH1 0x24 PUSH1 0x0 REVERT JUMPDEST PUSH32 0x4E487B7100000000000000000000000000000000000000000000000000000000 PUSH1 0x0 MSTORE PUSH1 0x22 PUSH1 0x4 MSTORE PUSH1 0x24 PUSH1 0x0 REVERT JUMPDEST PUSH32 0x4E487B7100000000000000000000000000000000000000000000000000000000 PUSH1 0x0 MSTORE PUSH1 0x32 PUSH1 0x4 MSTORE PUSH1 0x24 PUSH1 0x0 REVERT JUMPDEST PUSH32 0x4E487B7100000000000000000000000000000000000000000000000000000000 PUSH1 0x0 MSTORE PUSH1 0x41 PUSH1 0x4 MSTORE PUSH1 0x24 PUSH1 0x0 REVERT JUMPDEST PUSH1 0x0 DUP1 REVERT JUMPDEST PUSH1 0x0 DUP1 REVERT JUMPDEST PUSH1 0x0 DUP1 REVERT JUMPDEST PUSH1 0x0 DUP1 REVERT JUMPDEST PUSH1 0x0 PUSH1 0x1F NOT PUSH1 0x1F DUP4 ADD AND SWAP1 POP SWAP2 SWAP1 POP JUMP JUMPDEST PUSH32 0x526563697069656E7420697320616C7265616479207265676973746572656400 PUSH1 0x0 DUP3 ADD MSTORE POP JUMP JUMPDEST PUSH32 0x50726F706F73616C20616C726561647920637265617465642100000000000000 PUSH1 0x0 DUP3 ADD MSTORE POP JUMP JUMPDEST PUSH32 0x596F75206172656E277420617574686F72697A6520746F20636F6D70696C6520 PUSH1 0x0 DUP3 ADD MSTORE PUSH32 0x42756E646C650000000000000000000000000000000000000000000000000000 PUSH1 0x20 DUP3 ADD MSTORE POP JUMP JUMPDEST PUSH32 0x596F7520616C72656164792073656E74206120726573706F6E73652E00000000 PUSH1 0x0 DUP3 ADD MSTORE POP JUMP JUMPDEST PUSH32 0x496E69746961746F722063616E277420766F7465210000000000000000000000 PUSH1 0x0 DUP3 ADD MSTORE POP JUMP JUMPDEST PUSH32 0x596F7520617265206E6F74207265676973746572656420746F20766F74650000 PUSH1 0x0 DUP3 ADD MSTORE POP JUMP JUMPDEST PUSH32 0x50726F706F73616C206861732072656163686564206974732065787069727920 PUSH1 0x0 DUP3 ADD MSTORE PUSH32 0x6461746500000000000000000000000000000000000000000000000000000000 PUSH1 0x20 DUP3 ADD MSTORE POP JUMP JUMPDEST PUSH32 0x4F6E6C7920696E69746961746F722063616E2072656769737465722061207265 PUSH1 0x0 DUP3 ADD MSTORE PUSH32 0x63697069656E742E000000000000000000000000000000000000000000000000 PUSH1 0x20 DUP3 ADD MSTORE POP JUMP JUMPDEST PUSH32 0x5665726469637420686173206E6F74206265656E207265616368656420796574 PUSH1 0x0 DUP3 ADD MSTORE POP JUMP JUMPDEST PUSH32 0x566F74696E672068617320657870697265640000000000000000000000000000 PUSH1 0x0 DUP3 ADD MSTORE POP JUMP JUMPDEST PUSH32 0x436F6E73656E7375732068617320616C7265616479206265656E2063616C6375 PUSH1 0x0 DUP3 ADD MSTORE PUSH32 0x6C61746564000000000000000000000000000000000000000000000000000000 PUSH1 0x20 DUP3 ADD MSTORE POP JUMP JUMPDEST PUSH2 0x2F10 DUP2 PUSH2 0x2A6E JUMP JUMPDEST DUP2 EQ PUSH2 0x2F1B JUMPI PUSH1 0x0 DUP1 REVERT JUMPDEST POP JUMP JUMPDEST PUSH2 0x2F27 DUP2 PUSH2 0x2A8C JUMP JUMPDEST DUP2 EQ PUSH2 0x2F32 JUMPI PUSH1 0x0 DUP1 REVERT JUMPDEST POP JUMP JUMPDEST PUSH2 0x2F3E DUP2 PUSH2 0x2AB6 JUMP JUMPDEST DUP2 EQ PUSH2 0x2F49 JUMPI PUSH1 0x0 DUP1 REVERT JUMPDEST POP JUMP INVALID LOG2 PUSH5 0x6970667358 0x22 SLT KECCAK256 SWAP2 0xEC PUSH19 0x3A75DE22AC50982251801AE39D1BA1E407A2A8 DUP2 0xB8 GT DUP7 DUP4 0xB6 LOG3 0xB9 0xB7 0x5D PUSH5 0x736F6C6343 STOP ADDMOD SMOD STOP CALLER "
				},
				"gasEstimates": {
					"creation": {
						"codeDepositCost": "2432400",
						"executionCost": "2620",
						"totalCost": "2435020"
					},
					"external": {
						"Consensus(bytes32)": "infinite",
						"IDs(bytes32)": "infinite",
						"RegisterVoter(address,bytes32)": "131678",
						"Vote(string,bytes32)": "infinite",
						"Voters(bytes32,uint256)": "infinite",
						"businessRequirements(bytes32)": "2832",
						"checkConsistency(bytes32,uint256,uint256,bytes32)": "infinite",
						"contents(bytes32)": "infinite",
						"createContract(bytes32,uint256,uint256,bytes32,string,bytes32)": "infinite",
						"expiryDates(bytes32)": "2810",
						"expiryLengths(bytes32)": "2789",
						"finalVerdicts(bytes32)": "2886",
						"getIsCompiled(bytes32)": "2845",
						"getIsCreated(bytes32)": "infinite",
						"initiators(bytes32)": "2883",
						"isCompiled(bytes32)": "2819",
						"keys(bytes32,uint256)": "5309",
						"messageDates(bytes32)": "infinite",
						"numApprovals(bytes32)": "2853",
						"retrieve_bundle(bytes32)": "infinite",
						"voteCounts(bytes32)": "2898",
						"voter_maps(bytes32,address)": "infinite"
					}
				},
				"methodIdentifiers": {
					"Consensus(bytes32)": "7d6c570a",
					"IDs(bytes32)": "e5d009bf",
					"RegisterVoter(address,bytes32)": "d468f983",
					"Vote(string,bytes32)": "8acc0d10",
					"Voters(bytes32,uint256)": "4fd3b445",
					"businessRequirements(bytes32)": "7a099c6a",
					"checkConsistency(bytes32,uint256,uint256,bytes32)": "33dfd126",
					"contents(bytes32)": "f20ca12c",
					"createContract(bytes32,uint256,uint256,bytes32,string,bytes32)": "a88361c6",
					"expiryDates(bytes32)": "56c583d8",
					"expiryLengths(bytes32)": "13191ade",
					"finalVerdicts(bytes32)": "38c20a9e",
					"getIsCompiled(bytes32)": "5273bc48",
					"getIsCreated(bytes32)": "97299e99",
					"initiators(bytes32)": "d443560a",
					"isCompiled(bytes32)": "823a6366",
					"keys(bytes32,uint256)": "7ff4c389",
					"messageDates(bytes32)": "a4a8f426",
					"numApprovals(bytes32)": "e463eaee",
					"retrieve_bundle(bytes32)": "27f0ae92",
					"voteCounts(bytes32)": "81d0e37b",
					"voter_maps(bytes32,address)": "a784ef74"
				}
			},
			"storageLayout": {
				"storage": [
					{
						"astId": 12,
						"contract": "contracts/1_Storage.sol:BusinessConsensus4",
						"label": "initiators",
						"offset": 0,
						"slot": "0",
						"type": "t_mapping(t_bytes32,t_address)"
					},
					{
						"astId": 16,
						"contract": "contracts/1_Storage.sol:BusinessConsensus4",
						"label": "IDs",
						"offset": 0,
						"slot": "1",
						"type": "t_mapping(t_bytes32,t_bytes32)"
					},
					{
						"astId": 20,
						"contract": "contracts/1_Storage.sol:BusinessConsensus4",
						"label": "voteCounts",
						"offset": 0,
						"slot": "2",
						"type": "t_mapping(t_bytes32,t_uint256)"
					},
					{
						"astId": 24,
						"contract": "contracts/1_Storage.sol:BusinessConsensus4",
						"label": "expiryLengths",
						"offset": 0,
						"slot": "3",
						"type": "t_mapping(t_bytes32,t_uint256)"
					},
					{
						"astId": 28,
						"contract": "contracts/1_Storage.sol:BusinessConsensus4",
						"label": "expiryDates",
						"offset": 0,
						"slot": "4",
						"type": "t_mapping(t_bytes32,t_uint256)"
					},
					{
						"astId": 32,
						"contract": "contracts/1_Storage.sol:BusinessConsensus4",
						"label": "contents",
						"offset": 0,
						"slot": "5",
						"type": "t_mapping(t_bytes32,t_bytes32)"
					},
					{
						"astId": 36,
						"contract": "contracts/1_Storage.sol:BusinessConsensus4",
						"label": "numApprovals",
						"offset": 0,
						"slot": "6",
						"type": "t_mapping(t_bytes32,t_uint256)"
					},
					{
						"astId": 40,
						"contract": "contracts/1_Storage.sol:BusinessConsensus4",
						"label": "businessRequirements",
						"offset": 0,
						"slot": "7",
						"type": "t_mapping(t_bytes32,t_uint256)"
					},
					{
						"astId": 44,
						"contract": "contracts/1_Storage.sol:BusinessConsensus4",
						"label": "messageDates",
						"offset": 0,
						"slot": "8",
						"type": "t_mapping(t_bytes32,t_string_storage)"
					},
					{
						"astId": 48,
						"contract": "contracts/1_Storage.sol:BusinessConsensus4",
						"label": "finalVerdicts",
						"offset": 0,
						"slot": "9",
						"type": "t_mapping(t_bytes32,t_bool)"
					},
					{
						"astId": 52,
						"contract": "contracts/1_Storage.sol:BusinessConsensus4",
						"label": "isCompiled",
						"offset": 0,
						"slot": "10",
						"type": "t_mapping(t_bytes32,t_bool)"
					},
					{
						"astId": 59,
						"contract": "contracts/1_Storage.sol:BusinessConsensus4",
						"label": "voter_maps",
						"offset": 0,
						"slot": "11",
						"type": "t_mapping(t_bytes32,t_mapping(t_address,t_struct(Voter)8_storage))"
					},
					{
						"astId": 65,
						"contract": "contracts/1_Storage.sol:BusinessConsensus4",
						"label": "Voters",
						"offset": 0,
						"slot": "12",
						"type": "t_mapping(t_bytes32,t_array(t_struct(Voter)8_storage)dyn_storage)"
					},
					{
						"astId": 70,
						"contract": "contracts/1_Storage.sol:BusinessConsensus4",
						"label": "keys",
						"offset": 0,
						"slot": "13",
						"type": "t_mapping(t_bytes32,t_array(t_address)dyn_storage)"
					}
				],
				"types": {
					"t_address": {
						"encoding": "inplace",
						"label": "address",
						"numberOfBytes": "20"
					},
					"t_array(t_address)dyn_storage": {
						"base": "t_address",
						"encoding": "dynamic_array",
						"label": "address[]",
						"numberOfBytes": "32"
					},
					"t_array(t_struct(Voter)8_storage)dyn_storage": {
						"base": "t_struct(Voter)8_storage",
						"encoding": "dynamic_array",
						"label": "struct BusinessConsensus4.Voter[]",
						"numberOfBytes": "32"
					},
					"t_bool": {
						"encoding": "inplace",
						"label": "bool",
						"numberOfBytes": "1"
					},
					"t_bytes32": {
						"encoding": "inplace",
						"label": "bytes32",
						"numberOfBytes": "32"
					},
					"t_mapping(t_address,t_struct(Voter)8_storage)": {
						"encoding": "mapping",
						"key": "t_address",
						"label": "mapping(address => struct BusinessConsensus4.Voter)",
						"numberOfBytes": "32",
						"value": "t_struct(Voter)8_storage"
					},
					"t_mapping(t_bytes32,t_address)": {
						"encoding": "mapping",
						"key": "t_bytes32",
						"label": "mapping(bytes32 => address)",
						"numberOfBytes": "32",
						"value": "t_address"
					},
					"t_mapping(t_bytes32,t_array(t_address)dyn_storage)": {
						"encoding": "mapping",
						"key": "t_bytes32",
						"label": "mapping(bytes32 => address[])",
						"numberOfBytes": "32",
						"value": "t_array(t_address)dyn_storage"
					},
					"t_mapping(t_bytes32,t_array(t_struct(Voter)8_storage)dyn_storage)": {
						"encoding": "mapping",
						"key": "t_bytes32",
						"label": "mapping(bytes32 => struct BusinessConsensus4.Voter[])",
						"numberOfBytes": "32",
						"value": "t_array(t_struct(Voter)8_storage)dyn_storage"
					},
					"t_mapping(t_bytes32,t_bool)": {
						"encoding": "mapping",
						"key": "t_bytes32",
						"label": "mapping(bytes32 => bool)",
						"numberOfBytes": "32",
						"value": "t_bool"
					},
					"t_mapping(t_bytes32,t_bytes32)": {
						"encoding": "mapping",
						"key": "t_bytes32",
						"label": "mapping(bytes32 => bytes32)",
						"numberOfBytes": "32",
						"value": "t_bytes32"
					},
					"t_mapping(t_bytes32,t_mapping(t_address,t_struct(Voter)8_storage))": {
						"encoding": "mapping",
						"key": "t_bytes32",
						"label": "mapping(bytes32 => mapping(address => struct BusinessConsensus4.Voter))",
						"numberOfBytes": "32",
						"value": "t_mapping(t_address,t_struct(Voter)8_storage)"
					},
					"t_mapping(t_bytes32,t_string_storage)": {
						"encoding": "mapping",
						"key": "t_bytes32",
						"label": "mapping(bytes32 => string)",
						"numberOfBytes": "32",
						"value": "t_string_storage"
					},
					"t_mapping(t_bytes32,t_uint256)": {
						"encoding": "mapping",
						"key": "t_bytes32",
						"label": "mapping(bytes32 => uint256)",
						"numberOfBytes": "32",
						"value": "t_uint256"
					},
					"t_string_storage": {
						"encoding": "bytes",
						"label": "string",
						"numberOfBytes": "32"
					},
					"t_struct(Voter)8_storage": {
						"encoding": "inplace",
						"label": "struct BusinessConsensus4.Voter",
						"members": [
							{
								"astId": 3,
								"contract": "contracts/1_Storage.sol:BusinessConsensus4",
								"label": "voted",
								"offset": 0,
								"slot": "0",
								"type": "t_bool"
							},
							{
								"astId": 5,
								"contract": "contracts/1_Storage.sol:BusinessConsensus4",
								"label": "vote",
								"offset": 1,
								"slot": "0",
								"type": "t_bool"
							},
							{
								"astId": 7,
								"contract": "contracts/1_Storage.sol:BusinessConsensus4",
								"label": "recipient",
								"offset": 2,
								"slot": "0",
								"type": "t_address"
							}
						],
						"numberOfBytes": "32"
					},
					"t_uint256": {
						"encoding": "inplace",
						"label": "uint256",
						"numberOfBytes": "32"
					}
				}
			},
			"userdoc": {
				"kind": "user",
				"methods": {
					"Consensus(bytes32)": {
						"notice": "compile all relevant information into a Bundle"
					}
				},
				"version": 1
			}
		}
	}
}