{
	"contracts/1_Storage.sol": {
		"BusinessConsensus4": {
			"abi": [
				{
					"inputs": [
						{
							"internalType": "bytes32",
							"name": "_messageID",
							"type": "bytes32"
						}
					],
					"name": "Consensus",
					"outputs": [],
					"stateMutability": "nonpayable",
					"type": "function"
				},
				{
					"inputs": [
						{
							"internalType": "bytes32",
							"name": "",
							"type": "bytes32"
						}
					],
					"name": "IDs",
					"outputs": [
						{
							"internalType": "bytes32",
							"name": "",
							"type": "bytes32"
						}
					],
					"stateMutability": "view",
					"type": "function"
				},
				{
					"inputs": [
						{
							"internalType": "address",
							"name": "voter",
							"type": "address"
						},
						{
							"internalType": "bytes32",
							"name": "_messageID",
							"type": "bytes32"
						}
					],
					"name": "RegisterVoter",
					"outputs": [],
					"stateMutability": "nonpayable",
					"type": "function"
				},
				{
					"inputs": [
						{
							"internalType": "string",
							"name": "response",
							"type": "string"
						},
						{
							"internalType": "bytes32",
							"name": "_messageID",
							"type": "bytes32"
						}
					],
					"name": "Vote",
					"outputs": [],
					"stateMutability": "nonpayable",
					"type": "function"
				},
				{
					"inputs": [
						{
							"internalType": "bytes32",
							"name": "",
							"type": "bytes32"
						},
						{
							"internalType": "uint256",
							"name": "",
							"type": "uint256"
						}
					],
					"name": "Voters",
					"outputs": [
						{
							"internalType": "bool",
							"name": "voted",
							"type": "bool"
						},
						{
							"internalType": "bool",
							"name": "vote",
							"type": "bool"
						},
						{
							"internalType": "address",
							"name": "recipient",
							"type": "address"
						}
					],
					"stateMutability": "view",
					"type": "function"
				},
				{
					"inputs": [
						{
							"internalType": "bytes32",
							"name": "",
							"type": "bytes32"
						}
					],
					"name": "businessRequirements",
					"outputs": [
						{
							"internalType": "uint256",
							"name": "",
							"type": "uint256"
						}
					],
					"stateMutability": "view",
					"type": "function"
				},
				{
					"inputs": [
						{
							"internalType": "bytes32",
							"name": "_keyID",
							"type": "bytes32"
						},
						{
							"internalType": "uint256",
							"name": "_businessRequirement",
							"type": "uint256"
						},
						{
							"internalType": "uint256",
							"name": "_expiryLength",
							"type": "uint256"
						},
						{
							"internalType": "bytes32",
							"name": "_contents",
							"type": "bytes32"
						}
					],
					"name": "checkConsistency",
					"outputs": [
						{
							"internalType": "bool",
							"name": "",
							"type": "bool"
						},
						{
							"internalType": "bool",
							"name": "",
							"type": "bool"
						},
						{
							"internalType": "bool",
							"name": "",
							"type": "bool"
						}
					],
					"stateMutability": "view",
					"type": "function"
				},
				{
					"inputs": [
						{
							"internalType": "bytes32",
							"name": "",
							"type": "bytes32"
						}
					],
					"name": "contents",
					"outputs": [
						{
							"internalType": "bytes32",
							"name": "",
							"type": "bytes32"
						}
					],
					"stateMutability": "view",
					"type": "function"
				},
				{
					"inputs": [
						{
							"internalType": "bytes32",
							"name": "_messageID",
							"type": "bytes32"
						},
						{
							"internalType": "uint256",
							"name": "expiry",
							"type": "uint256"
						},
						{
							"internalType": "uint256",
							"name": "requiredPercentage",
							"type": "uint256"
						},
						{
							"internalType": "bytes32",
							"name": "_contents",
							"type": "bytes32"
						},
						{
							"internalType": "string",
							"name": "_messageDate",
							"type": "string"
						},
						{
							"internalType": "bytes32",
							"name": "_keyID",
							"type": "bytes32"
						}
					],
					"name": "createContract",
					"outputs": [],
					"stateMutability": "nonpayable",
					"type": "function"
				},
				{
					"inputs": [
						{
							"internalType": "bytes32",
							"name": "",
							"type": "bytes32"
						}
					],
					"name": "expiryDates",
					"outputs": [
						{
							"internalType": "uint256",
							"name": "",
							"type": "uint256"
						}
					],
					"stateMutability": "view",
					"type": "function"
				},
				{
					"inputs": [
						{
							"internalType": "bytes32",
							"name": "",
							"type": "bytes32"
						}
					],
					"name": "expiryLengths",
					"outputs": [
						{
							"internalType": "uint256",
							"name": "",
							"type": "uint256"
						}
					],
					"stateMutability": "view",
					"type": "function"
				},
				{
					"inputs": [
						{
							"internalType": "bytes32",
							"name": "",
							"type": "bytes32"
						}
					],
					"name": "finalVerdicts",
					"outputs": [
						{
							"internalType": "bool",
							"name": "",
							"type": "bool"
						}
					],
					"stateMutability": "view",
					"type": "function"
				},
				{
					"inputs": [
						{
							"internalType": "bytes32",
							"name": "_messageID",
							"type": "bytes32"
						}
					],
					"name": "getIsCompiled",
					"outputs": [
						{
							"internalType": "bool",
							"name": "",
							"type": "bool"
						}
					],
					"stateMutability": "view",
					"type": "function"
				},
				{
					"inputs": [
						{
							"internalType": "bytes32",
							"name": "_keyID",
							"type": "bytes32"
						}
					],
					"name": "getIsCreated",
					"outputs": [
						{
							"internalType": "bytes32",
							"name": "",
							"type": "bytes32"
						},
						{
							"internalType": "string",
							"name": "",
							"type": "string"
						}
					],
					"stateMutability": "view",
					"type": "function"
				},
				{
					"inputs": [
						{
							"internalType": "bytes32",
							"name": "",
							"type": "bytes32"
						}
					],
					"name": "initiators",
					"outputs": [
						{
							"internalType": "address",
							"name": "",
							"type": "address"
						}
					],
					"stateMutability": "view",
					"type": "function"
				},
				{
					"inputs": [
						{
							"internalType": "bytes32",
							"name": "",
							"type": "bytes32"
						}
					],
					"name": "isCompiled",
					"outputs": [
						{
							"internalType": "bool",
							"name": "",
							"type": "bool"
						}
					],
					"stateMutability": "view",
					"type": "function"
				},
				{
					"inputs": [
						{
							"internalType": "bytes32",
							"name": "",
							"type": "bytes32"
						},
						{
							"internalType": "uint256",
							"name": "",
							"type": "uint256"
						}
					],
					"name": "keys",
					"outputs": [
						{
							"internalType": "address",
							"name": "",
							"type": "address"
						}
					],
					"stateMutability": "view",
					"type": "function"
				},
				{
					"inputs": [
						{
							"internalType": "bytes32",
							"name": "",
							"type": "bytes32"
						}
					],
					"name": "messageDates",
					"outputs": [
						{
							"internalType": "string",
							"name": "",
							"type": "string"
						}
					],
					"stateMutability": "view",
					"type": "function"
				},
				{
					"inputs": [
						{
							"internalType": "bytes32",
							"name": "",
							"type": "bytes32"
						}
					],
					"name": "numApprovals",
					"outputs": [
						{
							"internalType": "uint256",
							"name": "",
							"type": "uint256"
						}
					],
					"stateMutability": "view",
					"type": "function"
				},
				{
					"inputs": [
						{
							"internalType": "bytes32",
							"name": "_messageID",
							"type": "bytes32"
						}
					],
					"name": "retrieve_bundle",
					"outputs": [
						{
							"internalType": "bool",
							"name": "",
							"type": "bool"
						},
						{
							"internalType": "bytes32",
							"name": "",
							"type": "bytes32"
						},
						{
							"internalType": "uint256",
							"name": "",
							"type": "uint256"
						},
						{
							"components": [
								{
									"internalType": "bool",
									"name": "voted",
									"type": "bool"
								},
								{
									"internalType": "bool",
									"name": "vote",
									"type": "bool"
								},
								{
									"internalType": "address",
									"name": "recipient",
									"type": "address"
								}
							],
							"internalType": "struct BusinessConsensus4.Voter[]",
							"name": "",
							"type": "tuple[]"
						}
					],
					"stateMutability": "view",
					"type": "function"
				},
				{
					"inputs": [
						{
							"internalType": "bytes32",
							"name": "",
							"type": "bytes32"
						}
					],
					"name": "voteCounts",
					"outputs": [
						{
							"internalType": "uint256",
							"name": "",
							"type": "uint256"
						}
					],
					"stateMutability": "view",
					"type": "function"
				},
				{
					"inputs": [
						{
							"internalType": "bytes32",
							"name": "",
							"type": "bytes32"
						},
						{
							"internalType": "address",
							"name": "",
							"type": "address"
						}
					],
					"name": "voter_maps",
					"outputs": [
						{
							"internalType": "bool",
							"name": "voted",
							"type": "bool"
						},
						{
							"internalType": "bool",
							"name": "vote",
							"type": "bool"
						},
						{
							"internalType": "address",
							"name": "recipient",
							"type": "address"
						}
					],
					"stateMutability": "view",
					"type": "function"
				}
			],
			"devdoc": {
				"kind": "dev",
				"methods": {},
				"version": 1
			},
			"evm": {
				"assembly": "    /* \"contracts/1_Storage.sol\":32:6096  contract BusinessConsensus4{... */\n  mstore(0x40, 0x80)\n  callvalue\n  dup1\n  iszero\n  tag_1\n  jumpi\n  0x00\n  dup1\n  revert\ntag_1:\n  pop\n  dataSize(sub_0)\n  dup1\n  dataOffset(sub_0)\n  0x00\n  codecopy\n  0x00\n  return\nstop\n\nsub_0: assembly {\n        /* \"contracts/1_Storage.sol\":32:6096  contract BusinessConsensus4{... */\n      mstore(0x40, 0x80)\n      callvalue\n      dup1\n      iszero\n      tag_1\n      jumpi\n      0x00\n      dup1\n      revert\n    tag_1:\n      pop\n      jumpi(tag_2, lt(calldatasize, 0x04))\n      shr(0xe0, calldataload(0x00))\n      dup1\n      0x823a6366\n      gt\n      tag_25\n      jumpi\n      dup1\n      0xa88361c6\n      gt\n      tag_26\n      jumpi\n      dup1\n      0xa88361c6\n      eq\n      tag_19\n      jumpi\n      dup1\n      0xd443560a\n      eq\n      tag_20\n      jumpi\n      dup1\n      0xd468f983\n      eq\n      tag_21\n      jumpi\n      dup1\n      0xe463eaee\n      eq\n      tag_22\n      jumpi\n      dup1\n      0xe5d009bf\n      eq\n      tag_23\n      jumpi\n      dup1\n      0xf20ca12c\n      eq\n      tag_24\n      jumpi\n      jump(tag_2)\n    tag_26:\n      dup1\n      0x823a6366\n      eq\n      tag_14\n      jumpi\n      dup1\n      0x8acc0d10\n      eq\n      tag_15\n      jumpi\n      dup1\n      0x97299e99\n      eq\n      tag_16\n      jumpi\n      dup1\n      0xa4a8f426\n      eq\n      tag_17\n      jumpi\n      dup1\n      0xa784ef74\n      eq\n      tag_18\n      jumpi\n      jump(tag_2)\n    tag_25:\n      dup1\n      0x5273bc48\n      gt\n      tag_27\n      jumpi\n      dup1\n      0x5273bc48\n      eq\n      tag_8\n      jumpi\n      dup1\n      0x56c583d8\n      eq\n      tag_9\n      jumpi\n      dup1\n      0x7a099c6a\n      eq\n      tag_10\n      jumpi\n      dup1\n      0x7d6c570a\n      eq\n      tag_11\n      jumpi\n      dup1\n      0x7ff4c389\n      eq\n      tag_12\n      jumpi\n      dup1\n      0x81d0e37b\n      eq\n      tag_13\n      jumpi\n      jump(tag_2)\n    tag_27:\n      dup1\n      0x13191ade\n      eq\n      tag_3\n      jumpi\n      dup1\n      0x27f0ae92\n      eq\n      tag_4\n      jumpi\n      dup1\n      0x33dfd126\n      eq\n      tag_5\n      jumpi\n      dup1\n      0x38c20a9e\n      eq\n      tag_6\n      jumpi\n      dup1\n      0x4fd3b445\n      eq\n      tag_7\n      jumpi\n    tag_2:\n      0x00\n      dup1\n      revert\n        /* \"contracts/1_Storage.sol\":544:592  mapping(bytes32 => uint256) public expiryLengths */\n    tag_3:\n      tag_28\n      0x04\n      dup1\n      calldatasize\n      sub\n      dup2\n      add\n      swap1\n      tag_29\n      swap2\n      swap1\n      tag_30\n      jump\t// in\n    tag_29:\n      tag_31\n      jump\t// in\n    tag_28:\n      mload(0x40)\n      tag_32\n      swap2\n      swap1\n      tag_33\n      jump\t// in\n    tag_32:\n      mload(0x40)\n      dup1\n      swap2\n      sub\n      swap1\n      return\n        /* \"contracts/1_Storage.sol\":5673:6093  function retrieve_bundle(bytes32 _messageID) external view returns (bool, bytes32, uint256, Voter[] memory){... */\n    tag_4:\n      tag_34\n      0x04\n      dup1\n      calldatasize\n      sub\n      dup2\n      add\n      swap1\n      tag_35\n      swap2\n      swap1\n      tag_30\n      jump\t// in\n    tag_35:\n      tag_36\n      jump\t// in\n    tag_34:\n      mload(0x40)\n      tag_37\n      swap5\n      swap4\n      swap3\n      swap2\n      swap1\n      tag_38\n      jump\t// in\n    tag_37:\n      mload(0x40)\n      dup1\n      swap2\n      sub\n      swap1\n      return\n        /* \"contracts/1_Storage.sol\":2176:2729  function checkConsistency(bytes32 _keyID, uint256 _businessRequirement, uint256 _expiryLength, bytes32 _contents) public view returns(bool, bool, bool){... */\n    tag_5:\n      tag_39\n      0x04\n      dup1\n      calldatasize\n      sub\n      dup2\n      add\n      swap1\n      tag_40\n      swap2\n      swap1\n      tag_41\n      jump\t// in\n    tag_40:\n      tag_42\n      jump\t// in\n    tag_39:\n      mload(0x40)\n      tag_43\n      swap4\n      swap3\n      swap2\n      swap1\n      tag_44\n      jump\t// in\n    tag_43:\n      mload(0x40)\n      dup1\n      swap2\n      sub\n      swap1\n      return\n        /* \"contracts/1_Storage.sol\":865:910  mapping(bytes32 => bool) public finalVerdicts */\n    tag_6:\n      tag_45\n      0x04\n      dup1\n      calldatasize\n      sub\n      dup2\n      add\n      swap1\n      tag_46\n      swap2\n      swap1\n      tag_30\n      jump\t// in\n    tag_46:\n      tag_47\n      jump\t// in\n    tag_45:\n      mload(0x40)\n      tag_48\n      swap2\n      swap1\n      tag_49\n      jump\t// in\n    tag_48:\n      mload(0x40)\n      dup1\n      swap2\n      sub\n      swap1\n      return\n        /* \"contracts/1_Storage.sol\":1029:1068  mapping(bytes32=>Voter[]) public Voters */\n    tag_7:\n      tag_50\n      0x04\n      dup1\n      calldatasize\n      sub\n      dup2\n      add\n      swap1\n      tag_51\n      swap2\n      swap1\n      tag_52\n      jump\t// in\n    tag_51:\n      tag_53\n      jump\t// in\n    tag_50:\n      mload(0x40)\n      tag_54\n      swap4\n      swap3\n      swap2\n      swap1\n      tag_55\n      jump\t// in\n    tag_54:\n      mload(0x40)\n      dup1\n      swap2\n      sub\n      swap1\n      return\n        /* \"contracts/1_Storage.sol\":2056:2171  function getIsCompiled(bytes32 _messageID) public view returns (bool){... */\n    tag_8:\n      tag_56\n      0x04\n      dup1\n      calldatasize\n      sub\n      dup2\n      add\n      swap1\n      tag_57\n      swap2\n      swap1\n      tag_30\n      jump\t// in\n    tag_57:\n      tag_58\n      jump\t// in\n    tag_56:\n      mload(0x40)\n      tag_59\n      swap2\n      swap1\n      tag_49\n      jump\t// in\n    tag_59:\n      mload(0x40)\n      dup1\n      swap2\n      sub\n      swap1\n      return\n        /* \"contracts/1_Storage.sol\":598:644  mapping(bytes32 => uint256) public expiryDates */\n    tag_9:\n      tag_60\n      0x04\n      dup1\n      calldatasize\n      sub\n      dup2\n      add\n      swap1\n      tag_61\n      swap2\n      swap1\n      tag_30\n      jump\t// in\n    tag_61:\n      tag_62\n      jump\t// in\n    tag_60:\n      mload(0x40)\n      tag_63\n      swap2\n      swap1\n      tag_33\n      jump\t// in\n    tag_63:\n      mload(0x40)\n      dup1\n      swap2\n      sub\n      swap1\n      return\n        /* \"contracts/1_Storage.sol\":752:807  mapping(bytes32 => uint256) public businessRequirements */\n    tag_10:\n      tag_64\n      0x04\n      dup1\n      calldatasize\n      sub\n      dup2\n      add\n      swap1\n      tag_65\n      swap2\n      swap1\n      tag_30\n      jump\t// in\n    tag_65:\n      tag_66\n      jump\t// in\n    tag_64:\n      mload(0x40)\n      tag_67\n      swap2\n      swap1\n      tag_33\n      jump\t// in\n    tag_67:\n      mload(0x40)\n      dup1\n      swap2\n      sub\n      swap1\n      return\n        /* \"contracts/1_Storage.sol\":4749:5667  function Consensus(bytes32 _messageID) external {... */\n    tag_11:\n      tag_68\n      0x04\n      dup1\n      calldatasize\n      sub\n      dup2\n      add\n      swap1\n      tag_69\n      swap2\n      swap1\n      tag_30\n      jump\t// in\n    tag_69:\n      tag_70\n      jump\t// in\n    tag_68:\n      stop\n        /* \"contracts/1_Storage.sol\":1074:1113  mapping(bytes32=>address[]) public keys */\n    tag_12:\n      tag_71\n      0x04\n      dup1\n      calldatasize\n      sub\n      dup2\n      add\n      swap1\n      tag_72\n      swap2\n      swap1\n      tag_52\n      jump\t// in\n    tag_72:\n      tag_73\n      jump\t// in\n    tag_71:\n      mload(0x40)\n      tag_74\n      swap2\n      swap1\n      tag_75\n      jump\t// in\n    tag_74:\n      mload(0x40)\n      dup1\n      swap2\n      sub\n      swap1\n      return\n        /* \"contracts/1_Storage.sol\":493:538  mapping(bytes32 => uint256) public voteCounts */\n    tag_13:\n      tag_76\n      0x04\n      dup1\n      calldatasize\n      sub\n      dup2\n      add\n      swap1\n      tag_77\n      swap2\n      swap1\n      tag_30\n      jump\t// in\n    tag_77:\n      tag_78\n      jump\t// in\n    tag_76:\n      mload(0x40)\n      tag_79\n      swap2\n      swap1\n      tag_33\n      jump\t// in\n    tag_79:\n      mload(0x40)\n      dup1\n      swap2\n      sub\n      swap1\n      return\n        /* \"contracts/1_Storage.sol\":916:958  mapping(bytes32 => bool) public isCompiled */\n    tag_14:\n      tag_80\n      0x04\n      dup1\n      calldatasize\n      sub\n      dup2\n      add\n      swap1\n      tag_81\n      swap2\n      swap1\n      tag_30\n      jump\t// in\n    tag_81:\n      tag_82\n      jump\t// in\n    tag_80:\n      mload(0x40)\n      tag_83\n      swap2\n      swap1\n      tag_49\n      jump\t// in\n    tag_83:\n      mload(0x40)\n      dup1\n      swap2\n      sub\n      swap1\n      return\n        /* \"contracts/1_Storage.sol\":3705:4688  function Vote(string memory response,bytes32 _messageID) external {... */\n    tag_15:\n      tag_84\n      0x04\n      dup1\n      calldatasize\n      sub\n      dup2\n      add\n      swap1\n      tag_85\n      swap2\n      swap1\n      tag_86\n      jump\t// in\n    tag_85:\n      tag_87\n      jump\t// in\n    tag_84:\n      stop\n        /* \"contracts/1_Storage.sol\":2734:2873  function getIsCreated(bytes32 _keyID) public view returns (bytes32,string memory){... */\n    tag_16:\n      tag_88\n      0x04\n      dup1\n      calldatasize\n      sub\n      dup2\n      add\n      swap1\n      tag_89\n      swap2\n      swap1\n      tag_30\n      jump\t// in\n    tag_89:\n      tag_90\n      jump\t// in\n    tag_88:\n      mload(0x40)\n      tag_91\n      swap3\n      swap2\n      swap1\n      tag_92\n      jump\t// in\n    tag_91:\n      mload(0x40)\n      dup1\n      swap2\n      sub\n      swap1\n      return\n        /* \"contracts/1_Storage.sol\":813:859  mapping(bytes32 => string) public messageDates */\n    tag_17:\n      tag_93\n      0x04\n      dup1\n      calldatasize\n      sub\n      dup2\n      add\n      swap1\n      tag_94\n      swap2\n      swap1\n      tag_30\n      jump\t// in\n    tag_94:\n      tag_95\n      jump\t// in\n    tag_93:\n      mload(0x40)\n      tag_96\n      swap2\n      swap1\n      tag_97\n      jump\t// in\n    tag_96:\n      mload(0x40)\n      dup1\n      swap2\n      sub\n      swap1\n      return\n        /* \"contracts/1_Storage.sol\":964:1023  mapping(bytes32=>mapping(address=>Voter)) public voter_maps */\n    tag_18:\n      tag_98\n      0x04\n      dup1\n      calldatasize\n      sub\n      dup2\n      add\n      swap1\n      tag_99\n      swap2\n      swap1\n      tag_100\n      jump\t// in\n    tag_99:\n      tag_101\n      jump\t// in\n    tag_98:\n      mload(0x40)\n      tag_102\n      swap4\n      swap3\n      swap2\n      swap1\n      tag_55\n      jump\t// in\n    tag_102:\n      mload(0x40)\n      dup1\n      swap2\n      sub\n      swap1\n      return\n        /* \"contracts/1_Storage.sol\":1124:2051  function createContract(bytes32 _messageID, uint256 expiry, uint256 requiredPercentage,bytes32 _contents,... */\n    tag_19:\n      tag_103\n      0x04\n      dup1\n      calldatasize\n      sub\n      dup2\n      add\n      swap1\n      tag_104\n      swap2\n      swap1\n      tag_105\n      jump\t// in\n    tag_104:\n      tag_106\n      jump\t// in\n    tag_103:\n      stop\n        /* \"contracts/1_Storage.sol\":401:444  mapping(bytes32=>address) public initiators */\n    tag_20:\n      tag_107\n      0x04\n      dup1\n      calldatasize\n      sub\n      dup2\n      add\n      swap1\n      tag_108\n      swap2\n      swap1\n      tag_30\n      jump\t// in\n    tag_108:\n      tag_109\n      jump\t// in\n    tag_107:\n      mload(0x40)\n      tag_110\n      swap2\n      swap1\n      tag_75\n      jump\t// in\n    tag_110:\n      mload(0x40)\n      dup1\n      swap2\n      sub\n      swap1\n      return\n        /* \"contracts/1_Storage.sol\":2976:3699  function RegisterVoter(address voter,bytes32 _messageID) external {... */\n    tag_21:\n      tag_111\n      0x04\n      dup1\n      calldatasize\n      sub\n      dup2\n      add\n      swap1\n      tag_112\n      swap2\n      swap1\n      tag_113\n      jump\t// in\n    tag_112:\n      tag_114\n      jump\t// in\n    tag_111:\n      stop\n        /* \"contracts/1_Storage.sol\":699:746  mapping(bytes32 => uint256) public numApprovals */\n    tag_22:\n      tag_115\n      0x04\n      dup1\n      calldatasize\n      sub\n      dup2\n      add\n      swap1\n      tag_116\n      swap2\n      swap1\n      tag_30\n      jump\t// in\n    tag_116:\n      tag_117\n      jump\t// in\n    tag_115:\n      mload(0x40)\n      tag_118\n      swap2\n      swap1\n      tag_33\n      jump\t// in\n    tag_118:\n      mload(0x40)\n      dup1\n      swap2\n      sub\n      swap1\n      return\n        /* \"contracts/1_Storage.sol\":450:487  mapping(bytes32 =>bytes32) public IDs */\n    tag_23:\n      tag_119\n      0x04\n      dup1\n      calldatasize\n      sub\n      dup2\n      add\n      swap1\n      tag_120\n      swap2\n      swap1\n      tag_30\n      jump\t// in\n    tag_120:\n      tag_121\n      jump\t// in\n    tag_119:\n      mload(0x40)\n      tag_122\n      swap2\n      swap1\n      tag_123\n      jump\t// in\n    tag_122:\n      mload(0x40)\n      dup1\n      swap2\n      sub\n      swap1\n      return\n        /* \"contracts/1_Storage.sol\":650:693  mapping(bytes32 => bytes32) public contents */\n    tag_24:\n      tag_124\n      0x04\n      dup1\n      calldatasize\n      sub\n      dup2\n      add\n      swap1\n      tag_125\n      swap2\n      swap1\n      tag_30\n      jump\t// in\n    tag_125:\n      tag_126\n      jump\t// in\n    tag_124:\n      mload(0x40)\n      tag_127\n      swap2\n      swap1\n      tag_123\n      jump\t// in\n    tag_127:\n      mload(0x40)\n      dup1\n      swap2\n      sub\n      swap1\n      return\n        /* \"contracts/1_Storage.sol\":544:592  mapping(bytes32 => uint256) public expiryLengths */\n    tag_31:\n      mstore(0x20, 0x03)\n      dup1\n      0x00\n      mstore\n      keccak256(0x00, 0x40)\n      0x00\n      swap2\n      pop\n      swap1\n      pop\n      sload\n      dup2\n      jump\t// out\n        /* \"contracts/1_Storage.sol\":5673:6093  function retrieve_bundle(bytes32 _messageID) external view returns (bool, bytes32, uint256, Voter[] memory){... */\n    tag_36:\n        /* \"contracts/1_Storage.sol\":5741:5745  bool */\n      0x00\n        /* \"contracts/1_Storage.sol\":5747:5754  bytes32 */\n      dup1\n        /* \"contracts/1_Storage.sol\":5756:5763  uint256 */\n      0x00\n        /* \"contracts/1_Storage.sol\":5765:5779  Voter[] memory */\n      0x60\n        /* \"contracts/1_Storage.sol\":5817:5828  expiryDates */\n      0x04\n        /* \"contracts/1_Storage.sol\":5817:5840  expiryDates[_messageID] */\n      0x00\n        /* \"contracts/1_Storage.sol\":5829:5839  _messageID */\n      dup7\n        /* \"contracts/1_Storage.sol\":5817:5840  expiryDates[_messageID] */\n      dup2\n      mstore\n      0x20\n      add\n      swap1\n      dup2\n      mstore\n      0x20\n      add\n      0x00\n      keccak256\n      sload\n        /* \"contracts/1_Storage.sol\":5798:5813  block.timestamp */\n      timestamp\n        /* \"contracts/1_Storage.sol\":5798:5840  block.timestamp >= expiryDates[_messageID] */\n      lt\n      iszero\n        /* \"contracts/1_Storage.sol\":5790:5877  require(block.timestamp >= expiryDates[_messageID], \"Verdict has not been reached yet\") */\n      tag_129\n      jumpi\n      mload(0x40)\n      0x08c379a000000000000000000000000000000000000000000000000000000000\n      dup2\n      mstore\n      0x04\n      add\n      tag_130\n      swap1\n      tag_131\n      jump\t// in\n    tag_130:\n      mload(0x40)\n      dup1\n      swap2\n      sub\n      swap1\n      revert\n    tag_129:\n        /* \"contracts/1_Storage.sol\":5887:5908  Voter[] memory voters */\n      0x00\n        /* \"contracts/1_Storage.sol\":5911:5917  Voters */\n      0x0c\n        /* \"contracts/1_Storage.sol\":5911:5929  Voters[_messageID] */\n      0x00\n        /* \"contracts/1_Storage.sol\":5918:5928  _messageID */\n      dup8\n        /* \"contracts/1_Storage.sol\":5911:5929  Voters[_messageID] */\n      dup2\n      mstore\n      0x20\n      add\n      swap1\n      dup2\n      mstore\n      0x20\n      add\n      0x00\n      keccak256\n        /* \"contracts/1_Storage.sol\":5887:5929  Voter[] memory voters = Voters[_messageID] */\n      dup1\n      sload\n      dup1\n      0x20\n      mul\n      0x20\n      add\n      mload(0x40)\n      swap1\n      dup2\n      add\n      0x40\n      mstore\n      dup1\n      swap3\n      swap2\n      swap1\n      dup2\n      dup2\n      mstore\n      0x20\n      add\n      0x00\n      swap1\n    tag_132:\n      dup3\n      dup3\n      lt\n      iszero\n      tag_133\n      jumpi\n      dup4\n      dup3\n      swap1\n      0x00\n      mstore\n      keccak256(0x00, 0x20)\n      add\n      mload(0x40)\n      dup1\n      0x60\n      add\n      0x40\n      mstore\n      swap1\n      dup2\n      0x00\n      dup3\n      add\n      0x00\n      swap1\n      sload\n      swap1\n      0x0100\n      exp\n      swap1\n      div\n      0xff\n      and\n      iszero\n      iszero\n      iszero\n      iszero\n      dup2\n      mstore\n      0x20\n      add\n      0x00\n      dup3\n      add\n      0x01\n      swap1\n      sload\n      swap1\n      0x0100\n      exp\n      swap1\n      div\n      0xff\n      and\n      iszero\n      iszero\n      iszero\n      iszero\n      dup2\n      mstore\n      0x20\n      add\n      0x00\n      dup3\n      add\n      0x02\n      swap1\n      sload\n      swap1\n      0x0100\n      exp\n      swap1\n      div\n      0xffffffffffffffffffffffffffffffffffffffff\n      and\n      0xffffffffffffffffffffffffffffffffffffffff\n      and\n      0xffffffffffffffffffffffffffffffffffffffff\n      and\n      dup2\n      mstore\n      pop\n      pop\n      dup2\n      mstore\n      0x20\n      add\n      swap1\n      0x01\n      add\n      swap1\n      jump(tag_132)\n    tag_133:\n      pop\n      pop\n      pop\n      pop\n      swap1\n      pop\n        /* \"contracts/1_Storage.sol\":5939:5951  bool verdict */\n      0x00\n        /* \"contracts/1_Storage.sol\":5954:5967  finalVerdicts */\n      0x09\n        /* \"contracts/1_Storage.sol\":5954:5979  finalVerdicts[_messageID] */\n      0x00\n        /* \"contracts/1_Storage.sol\":5968:5978  _messageID */\n      dup9\n        /* \"contracts/1_Storage.sol\":5954:5979  finalVerdicts[_messageID] */\n      dup2\n      mstore\n      0x20\n      add\n      swap1\n      dup2\n      mstore\n      0x20\n      add\n      0x00\n      keccak256\n      0x00\n      swap1\n      sload\n      swap1\n      0x0100\n      exp\n      swap1\n      div\n      0xff\n      and\n        /* \"contracts/1_Storage.sol\":5939:5979  bool verdict = finalVerdicts[_messageID] */\n      swap1\n      pop\n        /* \"contracts/1_Storage.sol\":5989:6002  uint256 count */\n      0x00\n        /* \"contracts/1_Storage.sol\":6005:6015  voteCounts */\n      0x02\n        /* \"contracts/1_Storage.sol\":6005:6027  voteCounts[_messageID] */\n      0x00\n        /* \"contracts/1_Storage.sol\":6016:6026  _messageID */\n      dup10\n        /* \"contracts/1_Storage.sol\":6005:6027  voteCounts[_messageID] */\n      dup2\n      mstore\n      0x20\n      add\n      swap1\n      dup2\n      mstore\n      0x20\n      add\n      0x00\n      keccak256\n      sload\n        /* \"contracts/1_Storage.sol\":5989:6027  uint256 count = voteCounts[_messageID] */\n      swap1\n      pop\n        /* \"contracts/1_Storage.sol\":6045:6052  verdict */\n      dup2\n        /* \"contracts/1_Storage.sol\":6053:6063  _messageID */\n      dup9\n        /* \"contracts/1_Storage.sol\":6064:6069  count */\n      dup3\n        /* \"contracts/1_Storage.sol\":6070:6076  voters */\n      dup6\n        /* \"contracts/1_Storage.sol\":6037:6077  return (verdict,_messageID,count,voters) */\n      swap7\n      pop\n      swap7\n      pop\n      swap7\n      pop\n      swap7\n      pop\n      pop\n      pop\n      pop\n        /* \"contracts/1_Storage.sol\":5673:6093  function retrieve_bundle(bytes32 _messageID) external view returns (bool, bytes32, uint256, Voter[] memory){... */\n      swap2\n      swap4\n      pop\n      swap2\n      swap4\n      jump\t// out\n        /* \"contracts/1_Storage.sol\":2176:2729  function checkConsistency(bytes32 _keyID, uint256 _businessRequirement, uint256 _expiryLength, bytes32 _contents) public view returns(bool, bool, bool){... */\n    tag_42:\n        /* \"contracts/1_Storage.sol\":2310:2314  bool */\n      0x00\n        /* \"contracts/1_Storage.sol\":2316:2320  bool */\n      dup1\n        /* \"contracts/1_Storage.sol\":2322:2326  bool */\n      0x00\n        /* \"contracts/1_Storage.sol\":2337:2348  bool value1 */\n      dup1\n        /* \"contracts/1_Storage.sol\":2351:2355  true */\n      0x01\n        /* \"contracts/1_Storage.sol\":2337:2355  bool value1 = true */\n      swap1\n      pop\n        /* \"contracts/1_Storage.sol\":2365:2376  bool value2 */\n      0x00\n        /* \"contracts/1_Storage.sol\":2379:2383  true */\n      0x01\n        /* \"contracts/1_Storage.sol\":2365:2383  bool value2 = true */\n      swap1\n      pop\n        /* \"contracts/1_Storage.sol\":2393:2404  bool value3 */\n      0x00\n        /* \"contracts/1_Storage.sol\":2407:2411  true */\n      0x01\n        /* \"contracts/1_Storage.sol\":2393:2411  bool value3 = true */\n      swap1\n      pop\n        /* \"contracts/1_Storage.sol\":2448:2468  businessRequirements */\n      0x07\n        /* \"contracts/1_Storage.sol\":2448:2476  businessRequirements[_keyID] */\n      0x00\n        /* \"contracts/1_Storage.sol\":2469:2475  _keyID */\n      dup12\n        /* \"contracts/1_Storage.sol\":2448:2476  businessRequirements[_keyID] */\n      dup2\n      mstore\n      0x20\n      add\n      swap1\n      dup2\n      mstore\n      0x20\n      add\n      0x00\n      keccak256\n      sload\n        /* \"contracts/1_Storage.sol\":2424:2444  _businessRequirement */\n      dup10\n        /* \"contracts/1_Storage.sol\":2424:2476  _businessRequirement != businessRequirements[_keyID] */\n      eq\n        /* \"contracts/1_Storage.sol\":2421:2516  if(_businessRequirement != businessRequirements[_keyID]){... */\n      tag_136\n      jumpi\n        /* \"contracts/1_Storage.sol\":2500:2505  false */\n      0x00\n        /* \"contracts/1_Storage.sol\":2491:2505  value1 = false */\n      swap3\n      pop\n        /* \"contracts/1_Storage.sol\":2421:2516  if(_businessRequirement != businessRequirements[_keyID]){... */\n    tag_136:\n        /* \"contracts/1_Storage.sol\":2541:2549  contents */\n      0x05\n        /* \"contracts/1_Storage.sol\":2541:2557  contents[_keyID] */\n      0x00\n        /* \"contracts/1_Storage.sol\":2550:2556  _keyID */\n      dup12\n        /* \"contracts/1_Storage.sol\":2541:2557  contents[_keyID] */\n      dup2\n      mstore\n      0x20\n      add\n      swap1\n      dup2\n      mstore\n      0x20\n      add\n      0x00\n      keccak256\n      sload\n        /* \"contracts/1_Storage.sol\":2528:2537  _contents */\n      dup8\n        /* \"contracts/1_Storage.sol\":2528:2557  _contents != contents[_keyID] */\n      eq\n        /* \"contracts/1_Storage.sol\":2525:2597  if(_contents != contents[_keyID]){... */\n      tag_137\n      jumpi\n        /* \"contracts/1_Storage.sol\":2581:2586  false */\n      0x00\n        /* \"contracts/1_Storage.sol\":2572:2586  value2 = false */\n      swap2\n      pop\n        /* \"contracts/1_Storage.sol\":2525:2597  if(_contents != contents[_keyID]){... */\n    tag_137:\n        /* \"contracts/1_Storage.sol\":2634:2647  _expiryLength */\n      dup8\n        /* \"contracts/1_Storage.sol\":2609:2622  expiryLengths */\n      0x03\n        /* \"contracts/1_Storage.sol\":2609:2630  expiryLengths[_keyID] */\n      0x00\n        /* \"contracts/1_Storage.sol\":2623:2629  _keyID */\n      dup13\n        /* \"contracts/1_Storage.sol\":2609:2630  expiryLengths[_keyID] */\n      dup2\n      mstore\n      0x20\n      add\n      swap1\n      dup2\n      mstore\n      0x20\n      add\n      0x00\n      keccak256\n      sload\n        /* \"contracts/1_Storage.sol\":2609:2647  expiryLengths[_keyID] != _expiryLength */\n      eq\n        /* \"contracts/1_Storage.sol\":2606:2687  if(expiryLengths[_keyID] != _expiryLength){... */\n      tag_138\n      jumpi\n        /* \"contracts/1_Storage.sol\":2671:2676  false */\n      0x00\n        /* \"contracts/1_Storage.sol\":2662:2676  value3 = false */\n      swap1\n      pop\n        /* \"contracts/1_Storage.sol\":2606:2687  if(expiryLengths[_keyID] != _expiryLength){... */\n    tag_138:\n        /* \"contracts/1_Storage.sol\":2700:2706  value1 */\n      dup3\n        /* \"contracts/1_Storage.sol\":2707:2713  value2 */\n      dup3\n        /* \"contracts/1_Storage.sol\":2714:2720  value3 */\n      dup3\n        /* \"contracts/1_Storage.sol\":2692:2721  return (value1,value2,value3) */\n      swap6\n      pop\n      swap6\n      pop\n      swap6\n      pop\n      pop\n      pop\n      pop\n        /* \"contracts/1_Storage.sol\":2176:2729  function checkConsistency(bytes32 _keyID, uint256 _businessRequirement, uint256 _expiryLength, bytes32 _contents) public view returns(bool, bool, bool){... */\n      swap5\n      pop\n      swap5\n      pop\n      swap5\n      swap2\n      pop\n      pop\n      jump\t// out\n        /* \"contracts/1_Storage.sol\":865:910  mapping(bytes32 => bool) public finalVerdicts */\n    tag_47:\n      mstore(0x20, 0x09)\n      dup1\n      0x00\n      mstore\n      keccak256(0x00, 0x40)\n      0x00\n      swap2\n      pop\n      sload\n      swap1\n      0x0100\n      exp\n      swap1\n      div\n      0xff\n      and\n      dup2\n      jump\t// out\n        /* \"contracts/1_Storage.sol\":1029:1068  mapping(bytes32=>Voter[]) public Voters */\n    tag_53:\n      mstore(0x20, 0x0c)\n      dup2\n      0x00\n      mstore\n      keccak256(0x00, 0x40)\n      dup2\n      dup2\n      sload\n      dup2\n      lt\n      tag_139\n      jumpi\n      0x00\n      dup1\n      revert\n    tag_139:\n      swap1\n      0x00\n      mstore\n      keccak256(0x00, 0x20)\n      add\n      0x00\n      swap2\n      pop\n      swap2\n      pop\n      pop\n      dup1\n      0x00\n      add\n      0x00\n      swap1\n      sload\n      swap1\n      0x0100\n      exp\n      swap1\n      div\n      0xff\n      and\n      swap1\n      dup1\n      0x00\n      add\n      0x01\n      swap1\n      sload\n      swap1\n      0x0100\n      exp\n      swap1\n      div\n      0xff\n      and\n      swap1\n      dup1\n      0x00\n      add\n      0x02\n      swap1\n      sload\n      swap1\n      0x0100\n      exp\n      swap1\n      div\n      0xffffffffffffffffffffffffffffffffffffffff\n      and\n      swap1\n      pop\n      dup4\n      jump\t// out\n        /* \"contracts/1_Storage.sol\":2056:2171  function getIsCompiled(bytes32 _messageID) public view returns (bool){... */\n    tag_58:\n        /* \"contracts/1_Storage.sol\":2120:2124  bool */\n      0x00\n        /* \"contracts/1_Storage.sol\":2142:2152  isCompiled */\n      0x0a\n        /* \"contracts/1_Storage.sol\":2142:2164  isCompiled[_messageID] */\n      0x00\n        /* \"contracts/1_Storage.sol\":2153:2163  _messageID */\n      dup4\n        /* \"contracts/1_Storage.sol\":2142:2164  isCompiled[_messageID] */\n      dup2\n      mstore\n      0x20\n      add\n      swap1\n      dup2\n      mstore\n      0x20\n      add\n      0x00\n      keccak256\n      0x00\n      swap1\n      sload\n      swap1\n      0x0100\n      exp\n      swap1\n      div\n      0xff\n      and\n        /* \"contracts/1_Storage.sol\":2135:2164  return isCompiled[_messageID] */\n      swap1\n      pop\n        /* \"contracts/1_Storage.sol\":2056:2171  function getIsCompiled(bytes32 _messageID) public view returns (bool){... */\n      swap2\n      swap1\n      pop\n      jump\t// out\n        /* \"contracts/1_Storage.sol\":598:644  mapping(bytes32 => uint256) public expiryDates */\n    tag_62:\n      mstore(0x20, 0x04)\n      dup1\n      0x00\n      mstore\n      keccak256(0x00, 0x40)\n      0x00\n      swap2\n      pop\n      swap1\n      pop\n      sload\n      dup2\n      jump\t// out\n        /* \"contracts/1_Storage.sol\":752:807  mapping(bytes32 => uint256) public businessRequirements */\n    tag_66:\n      mstore(0x20, 0x07)\n      dup1\n      0x00\n      mstore\n      keccak256(0x00, 0x40)\n      0x00\n      swap2\n      pop\n      swap1\n      pop\n      sload\n      dup2\n      jump\t// out\n        /* \"contracts/1_Storage.sol\":4749:5667  function Consensus(bytes32 _messageID) external {... */\n    tag_70:\n        /* \"contracts/1_Storage.sol\":4834:4845  expiryDates */\n      0x04\n        /* \"contracts/1_Storage.sol\":4834:4857  expiryDates[_messageID] */\n      0x00\n        /* \"contracts/1_Storage.sol\":4846:4856  _messageID */\n      dup3\n        /* \"contracts/1_Storage.sol\":4834:4857  expiryDates[_messageID] */\n      dup2\n      mstore\n      0x20\n      add\n      swap1\n      dup2\n      mstore\n      0x20\n      add\n      0x00\n      keccak256\n      sload\n        /* \"contracts/1_Storage.sol\":4815:4830  block.timestamp */\n      timestamp\n        /* \"contracts/1_Storage.sol\":4815:4857  block.timestamp >= expiryDates[_messageID] */\n      lt\n      iszero\n        /* \"contracts/1_Storage.sol\":4807:4894  require(block.timestamp >= expiryDates[_messageID], \"Verdict has not been reached yet\") */\n      tag_143\n      jumpi\n      mload(0x40)\n      0x08c379a000000000000000000000000000000000000000000000000000000000\n      dup2\n      mstore\n      0x04\n      add\n      tag_144\n      swap1\n      tag_131\n      jump\t// in\n    tag_144:\n      mload(0x40)\n      dup1\n      swap2\n      sub\n      swap1\n      revert\n    tag_143:\n        /* \"contracts/1_Storage.sol\":4938:4943  false */\n      0x00\n        /* \"contracts/1_Storage.sol\":4912:4943  isCompiled[_messageID] == false */\n      iszero\n      iszero\n        /* \"contracts/1_Storage.sol\":4912:4922  isCompiled */\n      0x0a\n        /* \"contracts/1_Storage.sol\":4912:4934  isCompiled[_messageID] */\n      0x00\n        /* \"contracts/1_Storage.sol\":4923:4933  _messageID */\n      dup4\n        /* \"contracts/1_Storage.sol\":4912:4934  isCompiled[_messageID] */\n      dup2\n      mstore\n      0x20\n      add\n      swap1\n      dup2\n      mstore\n      0x20\n      add\n      0x00\n      keccak256\n      0x00\n      swap1\n      sload\n      swap1\n      0x0100\n      exp\n      swap1\n      div\n      0xff\n      and\n        /* \"contracts/1_Storage.sol\":4912:4943  isCompiled[_messageID] == false */\n      iszero\n      iszero\n      eq\n        /* \"contracts/1_Storage.sol\":4904:4985  require(isCompiled[_messageID] == false, \"Consensus has already been calculated\") */\n      tag_145\n      jumpi\n      mload(0x40)\n      0x08c379a000000000000000000000000000000000000000000000000000000000\n      dup2\n      mstore\n      0x04\n      add\n      tag_146\n      swap1\n      tag_147\n      jump\t// in\n    tag_146:\n      mload(0x40)\n      dup1\n      swap2\n      sub\n      swap1\n      revert\n    tag_145:\n        /* \"contracts/1_Storage.sol\":5017:5027  initiators */\n      0x00\n        /* \"contracts/1_Storage.sol\":5017:5039  initiators[_messageID] */\n      dup1\n        /* \"contracts/1_Storage.sol\":5028:5038  _messageID */\n      dup3\n        /* \"contracts/1_Storage.sol\":5017:5039  initiators[_messageID] */\n      dup2\n      mstore\n      0x20\n      add\n      swap1\n      dup2\n      mstore\n      0x20\n      add\n      0x00\n      keccak256\n      0x00\n      swap1\n      sload\n      swap1\n      0x0100\n      exp\n      swap1\n      div\n      0xffffffffffffffffffffffffffffffffffffffff\n      and\n        /* \"contracts/1_Storage.sol\":5003:5039  msg.sender == initiators[_messageID] */\n      0xffffffffffffffffffffffffffffffffffffffff\n      and\n        /* \"contracts/1_Storage.sol\":5003:5013  msg.sender */\n      caller\n        /* \"contracts/1_Storage.sol\":5003:5039  msg.sender == initiators[_messageID] */\n      0xffffffffffffffffffffffffffffffffffffffff\n      and\n      eq\n        /* \"contracts/1_Storage.sol\":5003:5103  msg.sender == initiators[_messageID] || voter_maps[_messageID][msg.sender].recipient != address(0x0) */\n      dup1\n      tag_148\n      jumpi\n      pop\n        /* \"contracts/1_Storage.sol\":5099:5102  0x0 */\n      0x00\n        /* \"contracts/1_Storage.sol\":5043:5103  voter_maps[_messageID][msg.sender].recipient != address(0x0) */\n      0xffffffffffffffffffffffffffffffffffffffff\n      and\n        /* \"contracts/1_Storage.sol\":5043:5053  voter_maps */\n      0x0b\n        /* \"contracts/1_Storage.sol\":5043:5065  voter_maps[_messageID] */\n      0x00\n        /* \"contracts/1_Storage.sol\":5054:5064  _messageID */\n      dup4\n        /* \"contracts/1_Storage.sol\":5043:5065  voter_maps[_messageID] */\n      dup2\n      mstore\n      0x20\n      add\n      swap1\n      dup2\n      mstore\n      0x20\n      add\n      0x00\n      keccak256\n        /* \"contracts/1_Storage.sol\":5043:5077  voter_maps[_messageID][msg.sender] */\n      0x00\n        /* \"contracts/1_Storage.sol\":5066:5076  msg.sender */\n      caller\n        /* \"contracts/1_Storage.sol\":5043:5077  voter_maps[_messageID][msg.sender] */\n      0xffffffffffffffffffffffffffffffffffffffff\n      and\n      0xffffffffffffffffffffffffffffffffffffffff\n      and\n      dup2\n      mstore\n      0x20\n      add\n      swap1\n      dup2\n      mstore\n      0x20\n      add\n      0x00\n      keccak256\n        /* \"contracts/1_Storage.sol\":5043:5087  voter_maps[_messageID][msg.sender].recipient */\n      0x00\n      add\n      0x02\n      swap1\n      sload\n      swap1\n      0x0100\n      exp\n      swap1\n      div\n      0xffffffffffffffffffffffffffffffffffffffff\n      and\n        /* \"contracts/1_Storage.sol\":5043:5103  voter_maps[_messageID][msg.sender].recipient != address(0x0) */\n      0xffffffffffffffffffffffffffffffffffffffff\n      and\n      eq\n      iszero\n        /* \"contracts/1_Storage.sol\":5003:5103  msg.sender == initiators[_messageID] || voter_maps[_messageID][msg.sender].recipient != address(0x0) */\n    tag_148:\n        /* \"contracts/1_Storage.sol\":4995:5155  require(msg.sender == initiators[_messageID] || voter_maps[_messageID][msg.sender].recipient != address(0x0),... */\n      tag_149\n      jumpi\n      mload(0x40)\n      0x08c379a000000000000000000000000000000000000000000000000000000000\n      dup2\n      mstore\n      0x04\n      add\n      tag_150\n      swap1\n      tag_151\n      jump\t// in\n    tag_150:\n      mload(0x40)\n      dup1\n      swap2\n      sub\n      swap1\n      revert\n    tag_149:\n        /* \"contracts/1_Storage.sol\":5165:5194  uint256 AccumulatedPercentage */\n      0x00\n        /* \"contracts/1_Storage.sol\":5248:5251  100 */\n      0x64\n        /* \"contracts/1_Storage.sol\":5223:5227  keys */\n      0x0d\n        /* \"contracts/1_Storage.sol\":5223:5239  keys[_messageID] */\n      0x00\n        /* \"contracts/1_Storage.sol\":5228:5238  _messageID */\n      dup5\n        /* \"contracts/1_Storage.sol\":5223:5239  keys[_messageID] */\n      dup2\n      mstore\n      0x20\n      add\n      swap1\n      dup2\n      mstore\n      0x20\n      add\n      0x00\n      keccak256\n        /* \"contracts/1_Storage.sol\":5223:5246  keys[_messageID].length */\n      dup1\n      sload\n      swap1\n      pop\n        /* \"contracts/1_Storage.sol\":5198:5210  numApprovals */\n      0x06\n        /* \"contracts/1_Storage.sol\":5198:5222  numApprovals[_messageID] */\n      0x00\n        /* \"contracts/1_Storage.sol\":5211:5221  _messageID */\n      dup6\n        /* \"contracts/1_Storage.sol\":5198:5222  numApprovals[_messageID] */\n      dup2\n      mstore\n      0x20\n      add\n      swap1\n      dup2\n      mstore\n      0x20\n      add\n      0x00\n      keccak256\n      sload\n        /* \"contracts/1_Storage.sol\":5198:5246  numApprovals[_messageID]/keys[_messageID].length */\n      tag_152\n      swap2\n      swap1\n      tag_153\n      jump\t// in\n    tag_152:\n        /* \"contracts/1_Storage.sol\":5197:5251  (numApprovals[_messageID]/keys[_messageID].length)*100 */\n      tag_154\n      swap2\n      swap1\n      tag_155\n      jump\t// in\n    tag_154:\n        /* \"contracts/1_Storage.sol\":5165:5251  uint256 AccumulatedPercentage = (numApprovals[_messageID]/keys[_messageID].length)*100 */\n      swap1\n      pop\n        /* \"contracts/1_Storage.sol\":5289:5309  businessRequirements */\n      0x07\n        /* \"contracts/1_Storage.sol\":5289:5321  businessRequirements[_messageID] */\n      0x00\n        /* \"contracts/1_Storage.sol\":5310:5320  _messageID */\n      dup4\n        /* \"contracts/1_Storage.sol\":5289:5321  businessRequirements[_messageID] */\n      dup2\n      mstore\n      0x20\n      add\n      swap1\n      dup2\n      mstore\n      0x20\n      add\n      0x00\n      keccak256\n      sload\n        /* \"contracts/1_Storage.sol\":5264:5285  AccumulatedPercentage */\n      dup2\n        /* \"contracts/1_Storage.sol\":5264:5321  AccumulatedPercentage >= businessRequirements[_messageID] */\n      lt\n        /* \"contracts/1_Storage.sol\":5261:5379  if(AccumulatedPercentage >= businessRequirements[_messageID]){... */\n      tag_156\n      jumpi\n        /* \"contracts/1_Storage.sol\":5364:5368  true */\n      0x01\n        /* \"contracts/1_Storage.sol\":5336:5349  finalVerdicts */\n      0x09\n        /* \"contracts/1_Storage.sol\":5336:5361  finalVerdicts[_messageID] */\n      0x00\n        /* \"contracts/1_Storage.sol\":5350:5360  _messageID */\n      dup5\n        /* \"contracts/1_Storage.sol\":5336:5361  finalVerdicts[_messageID] */\n      dup2\n      mstore\n      0x20\n      add\n      swap1\n      dup2\n      mstore\n      0x20\n      add\n      0x00\n      keccak256\n      0x00\n        /* \"contracts/1_Storage.sol\":5336:5368  finalVerdicts[_messageID] = true */\n      0x0100\n      exp\n      dup2\n      sload\n      dup2\n      0xff\n      mul\n      not\n      and\n      swap1\n      dup4\n      iszero\n      iszero\n      mul\n      or\n      swap1\n      sstore\n      pop\n        /* \"contracts/1_Storage.sol\":5261:5379  if(AccumulatedPercentage >= businessRequirements[_messageID]){... */\n    tag_156:\n        /* \"contracts/1_Storage.sol\":5392:5399  uint8 i */\n      0x00\n        /* \"contracts/1_Storage.sol\":5388:5622  for(uint8 i=0; i< keys[_messageID].length; i++){... */\n    tag_157:\n        /* \"contracts/1_Storage.sol\":5406:5410  keys */\n      0x0d\n        /* \"contracts/1_Storage.sol\":5406:5422  keys[_messageID] */\n      0x00\n        /* \"contracts/1_Storage.sol\":5411:5421  _messageID */\n      dup5\n        /* \"contracts/1_Storage.sol\":5406:5422  keys[_messageID] */\n      dup2\n      mstore\n      0x20\n      add\n      swap1\n      dup2\n      mstore\n      0x20\n      add\n      0x00\n      keccak256\n        /* \"contracts/1_Storage.sol\":5406:5429  keys[_messageID].length */\n      dup1\n      sload\n      swap1\n      pop\n        /* \"contracts/1_Storage.sol\":5403:5404  i */\n      dup2\n        /* \"contracts/1_Storage.sol\":5403:5429  i< keys[_messageID].length */\n      0xff\n      and\n      lt\n        /* \"contracts/1_Storage.sol\":5388:5622  for(uint8 i=0; i< keys[_messageID].length; i++){... */\n      iszero\n      tag_158\n      jumpi\n        /* \"contracts/1_Storage.sol\":5505:5510  false */\n      0x00\n        /* \"contracts/1_Storage.sol\":5452:5510  voter_maps[_messageID][keys[_messageID][i]].voted == false */\n      iszero\n      iszero\n        /* \"contracts/1_Storage.sol\":5452:5462  voter_maps */\n      0x0b\n        /* \"contracts/1_Storage.sol\":5452:5474  voter_maps[_messageID] */\n      0x00\n        /* \"contracts/1_Storage.sol\":5463:5473  _messageID */\n      dup6\n        /* \"contracts/1_Storage.sol\":5452:5474  voter_maps[_messageID] */\n      dup2\n      mstore\n      0x20\n      add\n      swap1\n      dup2\n      mstore\n      0x20\n      add\n      0x00\n      keccak256\n        /* \"contracts/1_Storage.sol\":5452:5495  voter_maps[_messageID][keys[_messageID][i]] */\n      0x00\n        /* \"contracts/1_Storage.sol\":5475:5479  keys */\n      0x0d\n        /* \"contracts/1_Storage.sol\":5475:5491  keys[_messageID] */\n      0x00\n        /* \"contracts/1_Storage.sol\":5480:5490  _messageID */\n      dup8\n        /* \"contracts/1_Storage.sol\":5475:5491  keys[_messageID] */\n      dup2\n      mstore\n      0x20\n      add\n      swap1\n      dup2\n      mstore\n      0x20\n      add\n      0x00\n      keccak256\n        /* \"contracts/1_Storage.sol\":5492:5493  i */\n      dup5\n        /* \"contracts/1_Storage.sol\":5475:5494  keys[_messageID][i] */\n      0xff\n      and\n      dup2\n      sload\n      dup2\n      lt\n      tag_160\n      jumpi\n      tag_161\n      tag_162\n      jump\t// in\n    tag_161:\n    tag_160:\n      swap1\n      0x00\n      mstore\n      keccak256(0x00, 0x20)\n      add\n      0x00\n      swap1\n      sload\n      swap1\n      0x0100\n      exp\n      swap1\n      div\n      0xffffffffffffffffffffffffffffffffffffffff\n      and\n        /* \"contracts/1_Storage.sol\":5452:5495  voter_maps[_messageID][keys[_messageID][i]] */\n      0xffffffffffffffffffffffffffffffffffffffff\n      and\n      0xffffffffffffffffffffffffffffffffffffffff\n      and\n      dup2\n      mstore\n      0x20\n      add\n      swap1\n      dup2\n      mstore\n      0x20\n      add\n      0x00\n      keccak256\n        /* \"contracts/1_Storage.sol\":5452:5501  voter_maps[_messageID][keys[_messageID][i]].voted */\n      0x00\n      add\n      0x00\n      swap1\n      sload\n      swap1\n      0x0100\n      exp\n      swap1\n      div\n      0xff\n      and\n        /* \"contracts/1_Storage.sol\":5452:5510  voter_maps[_messageID][keys[_messageID][i]].voted == false */\n      iszero\n      iszero\n      eq\n        /* \"contracts/1_Storage.sol\":5449:5612  if(voter_maps[_messageID][keys[_messageID][i]].voted == false){... */\n      iszero\n      tag_164\n      jumpi\n        /* \"contracts/1_Storage.sol\":5529:5535  Voters */\n      0x0c\n        /* \"contracts/1_Storage.sol\":5529:5547  Voters[_messageID] */\n      0x00\n        /* \"contracts/1_Storage.sol\":5536:5546  _messageID */\n      dup5\n        /* \"contracts/1_Storage.sol\":5529:5547  Voters[_messageID] */\n      dup2\n      mstore\n      0x20\n      add\n      swap1\n      dup2\n      mstore\n      0x20\n      add\n      0x00\n      keccak256\n        /* \"contracts/1_Storage.sol\":5553:5563  voter_maps */\n      0x0b\n        /* \"contracts/1_Storage.sol\":5553:5575  voter_maps[_messageID] */\n      0x00\n        /* \"contracts/1_Storage.sol\":5564:5574  _messageID */\n      dup6\n        /* \"contracts/1_Storage.sol\":5553:5575  voter_maps[_messageID] */\n      dup2\n      mstore\n      0x20\n      add\n      swap1\n      dup2\n      mstore\n      0x20\n      add\n      0x00\n      keccak256\n        /* \"contracts/1_Storage.sol\":5553:5596  voter_maps[_messageID][keys[_messageID][i]] */\n      0x00\n        /* \"contracts/1_Storage.sol\":5576:5580  keys */\n      0x0d\n        /* \"contracts/1_Storage.sol\":5576:5592  keys[_messageID] */\n      0x00\n        /* \"contracts/1_Storage.sol\":5581:5591  _messageID */\n      dup8\n        /* \"contracts/1_Storage.sol\":5576:5592  keys[_messageID] */\n      dup2\n      mstore\n      0x20\n      add\n      swap1\n      dup2\n      mstore\n      0x20\n      add\n      0x00\n      keccak256\n        /* \"contracts/1_Storage.sol\":5593:5594  i */\n      dup5\n        /* \"contracts/1_Storage.sol\":5576:5595  keys[_messageID][i] */\n      0xff\n      and\n      dup2\n      sload\n      dup2\n      lt\n      tag_165\n      jumpi\n      tag_166\n      tag_162\n      jump\t// in\n    tag_166:\n    tag_165:\n      swap1\n      0x00\n      mstore\n      keccak256(0x00, 0x20)\n      add\n      0x00\n      swap1\n      sload\n      swap1\n      0x0100\n      exp\n      swap1\n      div\n      0xffffffffffffffffffffffffffffffffffffffff\n      and\n        /* \"contracts/1_Storage.sol\":5553:5596  voter_maps[_messageID][keys[_messageID][i]] */\n      0xffffffffffffffffffffffffffffffffffffffff\n      and\n      0xffffffffffffffffffffffffffffffffffffffff\n      and\n      dup2\n      mstore\n      0x20\n      add\n      swap1\n      dup2\n      mstore\n      0x20\n      add\n      0x00\n      keccak256\n        /* \"contracts/1_Storage.sol\":5529:5597  Voters[_messageID].push(voter_maps[_messageID][keys[_messageID][i]]) */\n      swap1\n      dup1\n      0x01\n      dup2\n      sload\n      add\n      dup1\n      dup3\n      sstore\n      dup1\n      swap2\n      pop\n      pop\n      0x01\n      swap1\n      sub\n      swap1\n      0x00\n      mstore\n      keccak256(0x00, 0x20)\n      add\n      0x00\n      swap1\n      swap2\n      swap1\n      swap2\n      swap1\n      swap2\n      pop\n      0x00\n      dup3\n      add\n      0x00\n      swap1\n      sload\n      swap1\n      0x0100\n      exp\n      swap1\n      div\n      0xff\n      and\n      dup2\n      0x00\n      add\n      exp(0x0100, 0x00)\n      dup2\n      sload\n      dup2\n      0xff\n      mul\n      not\n      and\n      swap1\n      dup4\n      iszero\n      iszero\n      mul\n      or\n      swap1\n      sstore\n      pop\n      0x00\n      dup3\n      add\n      0x01\n      swap1\n      sload\n      swap1\n      0x0100\n      exp\n      swap1\n      div\n      0xff\n      and\n      dup2\n      0x00\n      add\n      exp(0x0100, 0x01)\n      dup2\n      sload\n      dup2\n      0xff\n      mul\n      not\n      and\n      swap1\n      dup4\n      iszero\n      iszero\n      mul\n      or\n      swap1\n      sstore\n      pop\n      0x00\n      dup3\n      add\n      0x02\n      swap1\n      sload\n      swap1\n      0x0100\n      exp\n      swap1\n      div\n      0xffffffffffffffffffffffffffffffffffffffff\n      and\n      dup2\n      0x00\n      add\n      exp(0x0100, 0x02)\n      dup2\n      sload\n      dup2\n      0xffffffffffffffffffffffffffffffffffffffff\n      mul\n      not\n      and\n      swap1\n      dup4\n      0xffffffffffffffffffffffffffffffffffffffff\n      and\n      mul\n      or\n      swap1\n      sstore\n      pop\n      pop\n      pop\n        /* \"contracts/1_Storage.sol\":5449:5612  if(voter_maps[_messageID][keys[_messageID][i]].voted == false){... */\n    tag_164:\n        /* \"contracts/1_Storage.sol\":5431:5434  i++ */\n      dup1\n      dup1\n      tag_169\n      swap1\n      tag_170\n      jump\t// in\n    tag_169:\n      swap2\n      pop\n      pop\n        /* \"contracts/1_Storage.sol\":5388:5622  for(uint8 i=0; i< keys[_messageID].length; i++){... */\n      jump(tag_157)\n    tag_158:\n      pop\n        /* \"contracts/1_Storage.sol\":5656:5660  true */\n      0x01\n        /* \"contracts/1_Storage.sol\":5631:5641  isCompiled */\n      0x0a\n        /* \"contracts/1_Storage.sol\":5631:5653  isCompiled[_messageID] */\n      0x00\n        /* \"contracts/1_Storage.sol\":5642:5652  _messageID */\n      dup5\n        /* \"contracts/1_Storage.sol\":5631:5653  isCompiled[_messageID] */\n      dup2\n      mstore\n      0x20\n      add\n      swap1\n      dup2\n      mstore\n      0x20\n      add\n      0x00\n      keccak256\n      0x00\n        /* \"contracts/1_Storage.sol\":5631:5660  isCompiled[_messageID] = true */\n      0x0100\n      exp\n      dup2\n      sload\n      dup2\n      0xff\n      mul\n      not\n      and\n      swap1\n      dup4\n      iszero\n      iszero\n      mul\n      or\n      swap1\n      sstore\n      pop\n        /* \"contracts/1_Storage.sol\":4797:5667  {... */\n      pop\n        /* \"contracts/1_Storage.sol\":4749:5667  function Consensus(bytes32 _messageID) external {... */\n      pop\n      jump\t// out\n        /* \"contracts/1_Storage.sol\":1074:1113  mapping(bytes32=>address[]) public keys */\n    tag_73:\n      mstore(0x20, 0x0d)\n      dup2\n      0x00\n      mstore\n      keccak256(0x00, 0x40)\n      dup2\n      dup2\n      sload\n      dup2\n      lt\n      tag_171\n      jumpi\n      0x00\n      dup1\n      revert\n    tag_171:\n      swap1\n      0x00\n      mstore\n      keccak256(0x00, 0x20)\n      add\n      0x00\n      swap2\n      pop\n      swap2\n      pop\n      swap1\n      sload\n      swap1\n      0x0100\n      exp\n      swap1\n      div\n      0xffffffffffffffffffffffffffffffffffffffff\n      and\n      dup2\n      jump\t// out\n        /* \"contracts/1_Storage.sol\":493:538  mapping(bytes32 => uint256) public voteCounts */\n    tag_78:\n      mstore(0x20, 0x02)\n      dup1\n      0x00\n      mstore\n      keccak256(0x00, 0x40)\n      0x00\n      swap2\n      pop\n      swap1\n      pop\n      sload\n      dup2\n      jump\t// out\n        /* \"contracts/1_Storage.sol\":916:958  mapping(bytes32 => bool) public isCompiled */\n    tag_82:\n      mstore(0x20, 0x0a)\n      dup1\n      0x00\n      mstore\n      keccak256(0x00, 0x40)\n      0x00\n      swap2\n      pop\n      sload\n      swap1\n      0x0100\n      exp\n      swap1\n      div\n      0xff\n      and\n      dup2\n      jump\t// out\n        /* \"contracts/1_Storage.sol\":3705:4688  function Vote(string memory response,bytes32 _messageID) external {... */\n    tag_87:\n        /* \"contracts/1_Storage.sol\":3825:3843  bytes(\"i approve\") */\n      mload(0x40)\n      dup1\n      0x40\n      add\n      0x40\n      mstore\n      dup1\n      0x09\n      dup2\n      mstore\n      0x20\n      add\n      0x6920617070726f76650000000000000000000000000000000000000000000000\n      dup2\n      mstore\n      pop\n        /* \"contracts/1_Storage.sol\":3815:3844  keccak256(bytes(\"i approve\")) */\n      dup1\n      mload\n      swap1\n      0x20\n      add\n      keccak256\n        /* \"contracts/1_Storage.sol\":3801:3809  response */\n      dup3\n        /* \"contracts/1_Storage.sol\":3785:3811  keccak256(bytes(response)) */\n      dup1\n      mload\n      swap1\n      0x20\n      add\n      keccak256\n        /* \"contracts/1_Storage.sol\":3785:3844  keccak256(bytes(response)) == keccak256(bytes(\"i approve\")) */\n      eq\n        /* \"contracts/1_Storage.sol\":3782:4673  if(keccak256(bytes(response)) == keccak256(bytes(\"i approve\"))){... */\n      iszero\n      tag_174\n      jumpi\n        /* \"contracts/1_Storage.sol\":3902:3906  true */\n      0x01\n        /* \"contracts/1_Storage.sol\":3859:3869  voter_maps */\n      0x0b\n        /* \"contracts/1_Storage.sol\":3859:3881  voter_maps[_messageID] */\n      0x00\n        /* \"contracts/1_Storage.sol\":3870:3880  _messageID */\n      dup4\n        /* \"contracts/1_Storage.sol\":3859:3881  voter_maps[_messageID] */\n      dup2\n      mstore\n      0x20\n      add\n      swap1\n      dup2\n      mstore\n      0x20\n      add\n      0x00\n      keccak256\n        /* \"contracts/1_Storage.sol\":3859:3893  voter_maps[_messageID][msg.sender] */\n      0x00\n        /* \"contracts/1_Storage.sol\":3882:3892  msg.sender */\n      caller\n        /* \"contracts/1_Storage.sol\":3859:3893  voter_maps[_messageID][msg.sender] */\n      0xffffffffffffffffffffffffffffffffffffffff\n      and\n      0xffffffffffffffffffffffffffffffffffffffff\n      and\n      dup2\n      mstore\n      0x20\n      add\n      swap1\n      dup2\n      mstore\n      0x20\n      add\n      0x00\n      keccak256\n        /* \"contracts/1_Storage.sol\":3859:3899  voter_maps[_messageID][msg.sender].voted */\n      0x00\n      add\n      0x00\n        /* \"contracts/1_Storage.sol\":3859:3906  voter_maps[_messageID][msg.sender].voted = true */\n      0x0100\n      exp\n      dup2\n      sload\n      dup2\n      0xff\n      mul\n      not\n      and\n      swap1\n      dup4\n      iszero\n      iszero\n      mul\n      or\n      swap1\n      sstore\n      pop\n        /* \"contracts/1_Storage.sol\":3962:3966  true */\n      0x01\n        /* \"contracts/1_Storage.sol\":3920:3930  voter_maps */\n      0x0b\n        /* \"contracts/1_Storage.sol\":3920:3942  voter_maps[_messageID] */\n      0x00\n        /* \"contracts/1_Storage.sol\":3931:3941  _messageID */\n      dup4\n        /* \"contracts/1_Storage.sol\":3920:3942  voter_maps[_messageID] */\n      dup2\n      mstore\n      0x20\n      add\n      swap1\n      dup2\n      mstore\n      0x20\n      add\n      0x00\n      keccak256\n        /* \"contracts/1_Storage.sol\":3920:3954  voter_maps[_messageID][msg.sender] */\n      0x00\n        /* \"contracts/1_Storage.sol\":3943:3953  msg.sender */\n      caller\n        /* \"contracts/1_Storage.sol\":3920:3954  voter_maps[_messageID][msg.sender] */\n      0xffffffffffffffffffffffffffffffffffffffff\n      and\n      0xffffffffffffffffffffffffffffffffffffffff\n      and\n      dup2\n      mstore\n      0x20\n      add\n      swap1\n      dup2\n      mstore\n      0x20\n      add\n      0x00\n      keccak256\n        /* \"contracts/1_Storage.sol\":3920:3959  voter_maps[_messageID][msg.sender].vote */\n      0x00\n      add\n      0x01\n        /* \"contracts/1_Storage.sol\":3920:3966  voter_maps[_messageID][msg.sender].vote = true */\n      0x0100\n      exp\n      dup2\n      sload\n      dup2\n      0xff\n      mul\n      not\n      and\n      swap1\n      dup4\n      iszero\n      iszero\n      mul\n      or\n      swap1\n      sstore\n      pop\n        /* \"contracts/1_Storage.sol\":4008:4009  1 */\n      0x01\n        /* \"contracts/1_Storage.sol\":3980:3992  numApprovals */\n      0x06\n        /* \"contracts/1_Storage.sol\":3980:4004  numApprovals[_messageID] */\n      0x00\n        /* \"contracts/1_Storage.sol\":3993:4003  _messageID */\n      dup4\n        /* \"contracts/1_Storage.sol\":3980:4004  numApprovals[_messageID] */\n      dup2\n      mstore\n      0x20\n      add\n      swap1\n      dup2\n      mstore\n      0x20\n      add\n      0x00\n      keccak256\n      0x00\n        /* \"contracts/1_Storage.sol\":3980:4009  numApprovals[_messageID] += 1 */\n      dup3\n      dup3\n      sload\n      tag_175\n      swap2\n      swap1\n      tag_176\n      jump\t// in\n    tag_175:\n      swap3\n      pop\n      pop\n      dup2\n      swap1\n      sstore\n      pop\n        /* \"contracts/1_Storage.sol\":4049:4050  1 */\n      0x01\n        /* \"contracts/1_Storage.sol\":4023:4033  voteCounts */\n      0x02\n        /* \"contracts/1_Storage.sol\":4023:4045  voteCounts[_messageID] */\n      0x00\n        /* \"contracts/1_Storage.sol\":4034:4044  _messageID */\n      dup4\n        /* \"contracts/1_Storage.sol\":4023:4045  voteCounts[_messageID] */\n      dup2\n      mstore\n      0x20\n      add\n      swap1\n      dup2\n      mstore\n      0x20\n      add\n      0x00\n      keccak256\n      0x00\n        /* \"contracts/1_Storage.sol\":4023:4050  voteCounts[_messageID] += 1 */\n      dup3\n      dup3\n      sload\n      tag_177\n      swap2\n      swap1\n      tag_176\n      jump\t// in\n    tag_177:\n      swap3\n      pop\n      pop\n      dup2\n      swap1\n      sstore\n      pop\n        /* \"contracts/1_Storage.sol\":4064:4070  Voters */\n      0x0c\n        /* \"contracts/1_Storage.sol\":4064:4082  Voters[_messageID] */\n      0x00\n        /* \"contracts/1_Storage.sol\":4071:4081  _messageID */\n      dup3\n        /* \"contracts/1_Storage.sol\":4064:4082  Voters[_messageID] */\n      dup2\n      mstore\n      0x20\n      add\n      swap1\n      dup2\n      mstore\n      0x20\n      add\n      0x00\n      keccak256\n        /* \"contracts/1_Storage.sol\":4088:4098  voter_maps */\n      0x0b\n        /* \"contracts/1_Storage.sol\":4088:4110  voter_maps[_messageID] */\n      0x00\n        /* \"contracts/1_Storage.sol\":4099:4109  _messageID */\n      dup4\n        /* \"contracts/1_Storage.sol\":4088:4110  voter_maps[_messageID] */\n      dup2\n      mstore\n      0x20\n      add\n      swap1\n      dup2\n      mstore\n      0x20\n      add\n      0x00\n      keccak256\n        /* \"contracts/1_Storage.sol\":4088:4122  voter_maps[_messageID][msg.sender] */\n      0x00\n        /* \"contracts/1_Storage.sol\":4111:4121  msg.sender */\n      caller\n        /* \"contracts/1_Storage.sol\":4088:4122  voter_maps[_messageID][msg.sender] */\n      0xffffffffffffffffffffffffffffffffffffffff\n      and\n      0xffffffffffffffffffffffffffffffffffffffff\n      and\n      dup2\n      mstore\n      0x20\n      add\n      swap1\n      dup2\n      mstore\n      0x20\n      add\n      0x00\n      keccak256\n        /* \"contracts/1_Storage.sol\":4064:4123  Voters[_messageID].push(voter_maps[_messageID][msg.sender]) */\n      swap1\n      dup1\n      0x01\n      dup2\n      sload\n      add\n      dup1\n      dup3\n      sstore\n      dup1\n      swap2\n      pop\n      pop\n      0x01\n      swap1\n      sub\n      swap1\n      0x00\n      mstore\n      keccak256(0x00, 0x20)\n      add\n      0x00\n      swap1\n      swap2\n      swap1\n      swap2\n      swap1\n      swap2\n      pop\n      0x00\n      dup3\n      add\n      0x00\n      swap1\n      sload\n      swap1\n      0x0100\n      exp\n      swap1\n      div\n      0xff\n      and\n      dup2\n      0x00\n      add\n      exp(0x0100, 0x00)\n      dup2\n      sload\n      dup2\n      0xff\n      mul\n      not\n      and\n      swap1\n      dup4\n      iszero\n      iszero\n      mul\n      or\n      swap1\n      sstore\n      pop\n      0x00\n      dup3\n      add\n      0x01\n      swap1\n      sload\n      swap1\n      0x0100\n      exp\n      swap1\n      div\n      0xff\n      and\n      dup2\n      0x00\n      add\n      exp(0x0100, 0x01)\n      dup2\n      sload\n      dup2\n      0xff\n      mul\n      not\n      and\n      swap1\n      dup4\n      iszero\n      iszero\n      mul\n      or\n      swap1\n      sstore\n      pop\n      0x00\n      dup3\n      add\n      0x02\n      swap1\n      sload\n      swap1\n      0x0100\n      exp\n      swap1\n      div\n      0xffffffffffffffffffffffffffffffffffffffff\n      and\n      dup2\n      0x00\n      add\n      exp(0x0100, 0x02)\n      dup2\n      sload\n      dup2\n      0xffffffffffffffffffffffffffffffffffffffff\n      mul\n      not\n      and\n      swap1\n      dup4\n      0xffffffffffffffffffffffffffffffffffffffff\n      and\n      mul\n      or\n      swap1\n      sstore\n      pop\n      pop\n      pop\n        /* \"contracts/1_Storage.sol\":3782:4673  if(keccak256(bytes(response)) == keccak256(bytes(\"i approve\"))){... */\n      jump(tag_179)\n    tag_174:\n        /* \"contracts/1_Storage.sol\":4192:4213  bytes(\"i disapprove\") */\n      mload(0x40)\n      dup1\n      0x40\n      add\n      0x40\n      mstore\n      dup1\n      0x0c\n      dup2\n      mstore\n      0x20\n      add\n      0x6920646973617070726f76650000000000000000000000000000000000000000\n      dup2\n      mstore\n      pop\n        /* \"contracts/1_Storage.sol\":4182:4214  keccak256(bytes(\"i disapprove\")) */\n      dup1\n      mload\n      swap1\n      0x20\n      add\n      keccak256\n        /* \"contracts/1_Storage.sol\":4168:4176  response */\n      dup3\n        /* \"contracts/1_Storage.sol\":4152:4178  keccak256(bytes(response)) */\n      dup1\n      mload\n      swap1\n      0x20\n      add\n      keccak256\n        /* \"contracts/1_Storage.sol\":4152:4214  keccak256(bytes(response)) == keccak256(bytes(\"i disapprove\")) */\n      eq\n        /* \"contracts/1_Storage.sol\":4149:4673  if(keccak256(bytes(response)) == keccak256(bytes(\"i disapprove\"))){... */\n      iszero\n      tag_180\n      jumpi\n        /* \"contracts/1_Storage.sol\":4272:4276  true */\n      0x01\n        /* \"contracts/1_Storage.sol\":4229:4239  voter_maps */\n      0x0b\n        /* \"contracts/1_Storage.sol\":4229:4251  voter_maps[_messageID] */\n      0x00\n        /* \"contracts/1_Storage.sol\":4240:4250  _messageID */\n      dup4\n        /* \"contracts/1_Storage.sol\":4229:4251  voter_maps[_messageID] */\n      dup2\n      mstore\n      0x20\n      add\n      swap1\n      dup2\n      mstore\n      0x20\n      add\n      0x00\n      keccak256\n        /* \"contracts/1_Storage.sol\":4229:4263  voter_maps[_messageID][msg.sender] */\n      0x00\n        /* \"contracts/1_Storage.sol\":4252:4262  msg.sender */\n      caller\n        /* \"contracts/1_Storage.sol\":4229:4263  voter_maps[_messageID][msg.sender] */\n      0xffffffffffffffffffffffffffffffffffffffff\n      and\n      0xffffffffffffffffffffffffffffffffffffffff\n      and\n      dup2\n      mstore\n      0x20\n      add\n      swap1\n      dup2\n      mstore\n      0x20\n      add\n      0x00\n      keccak256\n        /* \"contracts/1_Storage.sol\":4229:4269  voter_maps[_messageID][msg.sender].voted */\n      0x00\n      add\n      0x00\n        /* \"contracts/1_Storage.sol\":4229:4276  voter_maps[_messageID][msg.sender].voted = true */\n      0x0100\n      exp\n      dup2\n      sload\n      dup2\n      0xff\n      mul\n      not\n      and\n      swap1\n      dup4\n      iszero\n      iszero\n      mul\n      or\n      swap1\n      sstore\n      pop\n        /* \"contracts/1_Storage.sol\":4316:4317  1 */\n      0x01\n        /* \"contracts/1_Storage.sol\":4290:4300  voteCounts */\n      0x02\n        /* \"contracts/1_Storage.sol\":4290:4312  voteCounts[_messageID] */\n      0x00\n        /* \"contracts/1_Storage.sol\":4301:4311  _messageID */\n      dup4\n        /* \"contracts/1_Storage.sol\":4290:4312  voteCounts[_messageID] */\n      dup2\n      mstore\n      0x20\n      add\n      swap1\n      dup2\n      mstore\n      0x20\n      add\n      0x00\n      keccak256\n      0x00\n        /* \"contracts/1_Storage.sol\":4290:4317  voteCounts[_messageID] += 1 */\n      dup3\n      dup3\n      sload\n      tag_181\n      swap2\n      swap1\n      tag_176\n      jump\t// in\n    tag_181:\n      swap3\n      pop\n      pop\n      dup2\n      swap1\n      sstore\n      pop\n        /* \"contracts/1_Storage.sol\":4331:4337  Voters */\n      0x0c\n        /* \"contracts/1_Storage.sol\":4331:4349  Voters[_messageID] */\n      0x00\n        /* \"contracts/1_Storage.sol\":4338:4348  _messageID */\n      dup3\n        /* \"contracts/1_Storage.sol\":4331:4349  Voters[_messageID] */\n      dup2\n      mstore\n      0x20\n      add\n      swap1\n      dup2\n      mstore\n      0x20\n      add\n      0x00\n      keccak256\n        /* \"contracts/1_Storage.sol\":4355:4365  voter_maps */\n      0x0b\n        /* \"contracts/1_Storage.sol\":4355:4377  voter_maps[_messageID] */\n      0x00\n        /* \"contracts/1_Storage.sol\":4366:4376  _messageID */\n      dup4\n        /* \"contracts/1_Storage.sol\":4355:4377  voter_maps[_messageID] */\n      dup2\n      mstore\n      0x20\n      add\n      swap1\n      dup2\n      mstore\n      0x20\n      add\n      0x00\n      keccak256\n        /* \"contracts/1_Storage.sol\":4355:4389  voter_maps[_messageID][msg.sender] */\n      0x00\n        /* \"contracts/1_Storage.sol\":4378:4388  msg.sender */\n      caller\n        /* \"contracts/1_Storage.sol\":4355:4389  voter_maps[_messageID][msg.sender] */\n      0xffffffffffffffffffffffffffffffffffffffff\n      and\n      0xffffffffffffffffffffffffffffffffffffffff\n      and\n      dup2\n      mstore\n      0x20\n      add\n      swap1\n      dup2\n      mstore\n      0x20\n      add\n      0x00\n      keccak256\n        /* \"contracts/1_Storage.sol\":4331:4390  Voters[_messageID].push(voter_maps[_messageID][msg.sender]) */\n      swap1\n      dup1\n      0x01\n      dup2\n      sload\n      add\n      dup1\n      dup3\n      sstore\n      dup1\n      swap2\n      pop\n      pop\n      0x01\n      swap1\n      sub\n      swap1\n      0x00\n      mstore\n      keccak256(0x00, 0x20)\n      add\n      0x00\n      swap1\n      swap2\n      swap1\n      swap2\n      swap1\n      swap2\n      pop\n      0x00\n      dup3\n      add\n      0x00\n      swap1\n      sload\n      swap1\n      0x0100\n      exp\n      swap1\n      div\n      0xff\n      and\n      dup2\n      0x00\n      add\n      exp(0x0100, 0x00)\n      dup2\n      sload\n      dup2\n      0xff\n      mul\n      not\n      and\n      swap1\n      dup4\n      iszero\n      iszero\n      mul\n      or\n      swap1\n      sstore\n      pop\n      0x00\n      dup3\n      add\n      0x01\n      swap1\n      sload\n      swap1\n      0x0100\n      exp\n      swap1\n      div\n      0xff\n      and\n      dup2\n      0x00\n      add\n      exp(0x0100, 0x01)\n      dup2\n      sload\n      dup2\n      0xff\n      mul\n      not\n      and\n      swap1\n      dup4\n      iszero\n      iszero\n      mul\n      or\n      swap1\n      sstore\n      pop\n      0x00\n      dup3\n      add\n      0x02\n      swap1\n      sload\n      swap1\n      0x0100\n      exp\n      swap1\n      div\n      0xffffffffffffffffffffffffffffffffffffffff\n      and\n      dup2\n      0x00\n      add\n      exp(0x0100, 0x02)\n      dup2\n      sload\n      dup2\n      0xffffffffffffffffffffffffffffffffffffffff\n      mul\n      not\n      and\n      swap1\n      dup4\n      0xffffffffffffffffffffffffffffffffffffffff\n      and\n      mul\n      or\n      swap1\n      sstore\n      pop\n      pop\n      pop\n        /* \"contracts/1_Storage.sol\":4149:4673  if(keccak256(bytes(response)) == keccak256(bytes(\"i disapprove\"))){... */\n      jump(tag_183)\n    tag_180:\n        /* \"contracts/1_Storage.sol\":4544:4548  true */\n      0x01\n        /* \"contracts/1_Storage.sol\":4501:4511  voter_maps */\n      0x0b\n        /* \"contracts/1_Storage.sol\":4501:4523  voter_maps[_messageID] */\n      0x00\n        /* \"contracts/1_Storage.sol\":4512:4522  _messageID */\n      dup4\n        /* \"contracts/1_Storage.sol\":4501:4523  voter_maps[_messageID] */\n      dup2\n      mstore\n      0x20\n      add\n      swap1\n      dup2\n      mstore\n      0x20\n      add\n      0x00\n      keccak256\n        /* \"contracts/1_Storage.sol\":4501:4535  voter_maps[_messageID][msg.sender] */\n      0x00\n        /* \"contracts/1_Storage.sol\":4524:4534  msg.sender */\n      caller\n        /* \"contracts/1_Storage.sol\":4501:4535  voter_maps[_messageID][msg.sender] */\n      0xffffffffffffffffffffffffffffffffffffffff\n      and\n      0xffffffffffffffffffffffffffffffffffffffff\n      and\n      dup2\n      mstore\n      0x20\n      add\n      swap1\n      dup2\n      mstore\n      0x20\n      add\n      0x00\n      keccak256\n        /* \"contracts/1_Storage.sol\":4501:4541  voter_maps[_messageID][msg.sender].voted */\n      0x00\n      add\n      0x00\n        /* \"contracts/1_Storage.sol\":4501:4548  voter_maps[_messageID][msg.sender].voted = true */\n      0x0100\n      exp\n      dup2\n      sload\n      dup2\n      0xff\n      mul\n      not\n      and\n      swap1\n      dup4\n      iszero\n      iszero\n      mul\n      or\n      swap1\n      sstore\n      pop\n        /* \"contracts/1_Storage.sol\":4588:4589  1 */\n      0x01\n        /* \"contracts/1_Storage.sol\":4562:4572  voteCounts */\n      0x02\n        /* \"contracts/1_Storage.sol\":4562:4584  voteCounts[_messageID] */\n      0x00\n        /* \"contracts/1_Storage.sol\":4573:4583  _messageID */\n      dup4\n        /* \"contracts/1_Storage.sol\":4562:4584  voteCounts[_messageID] */\n      dup2\n      mstore\n      0x20\n      add\n      swap1\n      dup2\n      mstore\n      0x20\n      add\n      0x00\n      keccak256\n      0x00\n        /* \"contracts/1_Storage.sol\":4562:4589  voteCounts[_messageID] += 1 */\n      dup3\n      dup3\n      sload\n      tag_184\n      swap2\n      swap1\n      tag_176\n      jump\t// in\n    tag_184:\n      swap3\n      pop\n      pop\n      dup2\n      swap1\n      sstore\n      pop\n        /* \"contracts/1_Storage.sol\":4603:4609  Voters */\n      0x0c\n        /* \"contracts/1_Storage.sol\":4603:4621  Voters[_messageID] */\n      0x00\n        /* \"contracts/1_Storage.sol\":4610:4620  _messageID */\n      dup3\n        /* \"contracts/1_Storage.sol\":4603:4621  Voters[_messageID] */\n      dup2\n      mstore\n      0x20\n      add\n      swap1\n      dup2\n      mstore\n      0x20\n      add\n      0x00\n      keccak256\n        /* \"contracts/1_Storage.sol\":4627:4637  voter_maps */\n      0x0b\n        /* \"contracts/1_Storage.sol\":4627:4649  voter_maps[_messageID] */\n      0x00\n        /* \"contracts/1_Storage.sol\":4638:4648  _messageID */\n      dup4\n        /* \"contracts/1_Storage.sol\":4627:4649  voter_maps[_messageID] */\n      dup2\n      mstore\n      0x20\n      add\n      swap1\n      dup2\n      mstore\n      0x20\n      add\n      0x00\n      keccak256\n        /* \"contracts/1_Storage.sol\":4627:4661  voter_maps[_messageID][msg.sender] */\n      0x00\n        /* \"contracts/1_Storage.sol\":4650:4660  msg.sender */\n      caller\n        /* \"contracts/1_Storage.sol\":4627:4661  voter_maps[_messageID][msg.sender] */\n      0xffffffffffffffffffffffffffffffffffffffff\n      and\n      0xffffffffffffffffffffffffffffffffffffffff\n      and\n      dup2\n      mstore\n      0x20\n      add\n      swap1\n      dup2\n      mstore\n      0x20\n      add\n      0x00\n      keccak256\n        /* \"contracts/1_Storage.sol\":4603:4662  Voters[_messageID].push(voter_maps[_messageID][msg.sender]) */\n      swap1\n      dup1\n      0x01\n      dup2\n      sload\n      add\n      dup1\n      dup3\n      sstore\n      dup1\n      swap2\n      pop\n      pop\n      0x01\n      swap1\n      sub\n      swap1\n      0x00\n      mstore\n      keccak256(0x00, 0x20)\n      add\n      0x00\n      swap1\n      swap2\n      swap1\n      swap2\n      swap1\n      swap2\n      pop\n      0x00\n      dup3\n      add\n      0x00\n      swap1\n      sload\n      swap1\n      0x0100\n      exp\n      swap1\n      div\n      0xff\n      and\n      dup2\n      0x00\n      add\n      exp(0x0100, 0x00)\n      dup2\n      sload\n      dup2\n      0xff\n      mul\n      not\n      and\n      swap1\n      dup4\n      iszero\n      iszero\n      mul\n      or\n      swap1\n      sstore\n      pop\n      0x00\n      dup3\n      add\n      0x01\n      swap1\n      sload\n      swap1\n      0x0100\n      exp\n      swap1\n      div\n      0xff\n      and\n      dup2\n      0x00\n      add\n      exp(0x0100, 0x01)\n      dup2\n      sload\n      dup2\n      0xff\n      mul\n      not\n      and\n      swap1\n      dup4\n      iszero\n      iszero\n      mul\n      or\n      swap1\n      sstore\n      pop\n      0x00\n      dup3\n      add\n      0x02\n      swap1\n      sload\n      swap1\n      0x0100\n      exp\n      swap1\n      div\n      0xffffffffffffffffffffffffffffffffffffffff\n      and\n      dup2\n      0x00\n      add\n      exp(0x0100, 0x02)\n      dup2\n      sload\n      dup2\n      0xffffffffffffffffffffffffffffffffffffffff\n      mul\n      not\n      and\n      swap1\n      dup4\n      0xffffffffffffffffffffffffffffffffffffffff\n      and\n      mul\n      or\n      swap1\n      sstore\n      pop\n      pop\n      pop\n        /* \"contracts/1_Storage.sol\":4149:4673  if(keccak256(bytes(response)) == keccak256(bytes(\"i disapprove\"))){... */\n    tag_183:\n        /* \"contracts/1_Storage.sol\":3782:4673  if(keccak256(bytes(response)) == keccak256(bytes(\"i approve\"))){... */\n    tag_179:\n        /* \"contracts/1_Storage.sol\":3705:4688  function Vote(string memory response,bytes32 _messageID) external {... */\n      pop\n      pop\n      jump\t// out\n        /* \"contracts/1_Storage.sol\":2734:2873  function getIsCreated(bytes32 _keyID) public view returns (bytes32,string memory){... */\n    tag_90:\n        /* \"contracts/1_Storage.sol\":2793:2800  bytes32 */\n      0x00\n        /* \"contracts/1_Storage.sol\":2801:2814  string memory */\n      0x60\n        /* \"contracts/1_Storage.sol\":2833:2836  IDs */\n      0x01\n        /* \"contracts/1_Storage.sol\":2833:2844  IDs[_keyID] */\n      0x00\n        /* \"contracts/1_Storage.sol\":2837:2843  _keyID */\n      dup5\n        /* \"contracts/1_Storage.sol\":2833:2844  IDs[_keyID] */\n      dup2\n      mstore\n      0x20\n      add\n      swap1\n      dup2\n      mstore\n      0x20\n      add\n      0x00\n      keccak256\n      sload\n        /* \"contracts/1_Storage.sol\":2845:2857  messageDates */\n      0x08\n        /* \"contracts/1_Storage.sol\":2845:2865  messageDates[_keyID] */\n      0x00\n        /* \"contracts/1_Storage.sol\":2858:2864  _keyID */\n      dup6\n        /* \"contracts/1_Storage.sol\":2845:2865  messageDates[_keyID] */\n      dup2\n      mstore\n      0x20\n      add\n      swap1\n      dup2\n      mstore\n      0x20\n      add\n      0x00\n      keccak256\n        /* \"contracts/1_Storage.sol\":2825:2866  return (IDs[_keyID],messageDates[_keyID]) */\n      dup1\n      dup1\n      sload\n      tag_187\n      swap1\n      tag_188\n      jump\t// in\n    tag_187:\n      dup1\n      0x1f\n      add\n      0x20\n      dup1\n      swap2\n      div\n      mul\n      0x20\n      add\n      mload(0x40)\n      swap1\n      dup2\n      add\n      0x40\n      mstore\n      dup1\n      swap3\n      swap2\n      swap1\n      dup2\n      dup2\n      mstore\n      0x20\n      add\n      dup3\n      dup1\n      sload\n      tag_189\n      swap1\n      tag_188\n      jump\t// in\n    tag_189:\n      dup1\n      iszero\n      tag_190\n      jumpi\n      dup1\n      0x1f\n      lt\n      tag_191\n      jumpi\n      0x0100\n      dup1\n      dup4\n      sload\n      div\n      mul\n      dup4\n      mstore\n      swap2\n      0x20\n      add\n      swap2\n      jump(tag_190)\n    tag_191:\n      dup3\n      add\n      swap2\n      swap1\n      0x00\n      mstore\n      keccak256(0x00, 0x20)\n      swap1\n    tag_192:\n      dup2\n      sload\n      dup2\n      mstore\n      swap1\n      0x01\n      add\n      swap1\n      0x20\n      add\n      dup1\n      dup4\n      gt\n      tag_192\n      jumpi\n      dup3\n      swap1\n      sub\n      0x1f\n      and\n      dup3\n      add\n      swap2\n    tag_190:\n      pop\n      pop\n      pop\n      pop\n      pop\n      swap1\n      pop\n      swap2\n      pop\n      swap2\n      pop\n        /* \"contracts/1_Storage.sol\":2734:2873  function getIsCreated(bytes32 _keyID) public view returns (bytes32,string memory){... */\n      swap2\n      pop\n      swap2\n      jump\t// out\n        /* \"contracts/1_Storage.sol\":813:859  mapping(bytes32 => string) public messageDates */\n    tag_95:\n      mstore(0x20, 0x08)\n      dup1\n      0x00\n      mstore\n      keccak256(0x00, 0x40)\n      0x00\n      swap2\n      pop\n      swap1\n      pop\n      dup1\n      sload\n      tag_193\n      swap1\n      tag_188\n      jump\t// in\n    tag_193:\n      dup1\n      0x1f\n      add\n      0x20\n      dup1\n      swap2\n      div\n      mul\n      0x20\n      add\n      mload(0x40)\n      swap1\n      dup2\n      add\n      0x40\n      mstore\n      dup1\n      swap3\n      swap2\n      swap1\n      dup2\n      dup2\n      mstore\n      0x20\n      add\n      dup3\n      dup1\n      sload\n      tag_194\n      swap1\n      tag_188\n      jump\t// in\n    tag_194:\n      dup1\n      iszero\n      tag_195\n      jumpi\n      dup1\n      0x1f\n      lt\n      tag_196\n      jumpi\n      0x0100\n      dup1\n      dup4\n      sload\n      div\n      mul\n      dup4\n      mstore\n      swap2\n      0x20\n      add\n      swap2\n      jump(tag_195)\n    tag_196:\n      dup3\n      add\n      swap2\n      swap1\n      0x00\n      mstore\n      keccak256(0x00, 0x20)\n      swap1\n    tag_197:\n      dup2\n      sload\n      dup2\n      mstore\n      swap1\n      0x01\n      add\n      swap1\n      0x20\n      add\n      dup1\n      dup4\n      gt\n      tag_197\n      jumpi\n      dup3\n      swap1\n      sub\n      0x1f\n      and\n      dup3\n      add\n      swap2\n    tag_195:\n      pop\n      pop\n      pop\n      pop\n      pop\n      dup2\n      jump\t// out\n        /* \"contracts/1_Storage.sol\":964:1023  mapping(bytes32=>mapping(address=>Voter)) public voter_maps */\n    tag_101:\n      mstore(0x20, 0x0b)\n      dup2\n      0x00\n      mstore\n      mstore(0x20, keccak256(0x00, 0x40))\n      dup1\n      0x00\n      mstore\n      keccak256(0x00, 0x40)\n      0x00\n      swap2\n      pop\n      swap2\n      pop\n      pop\n      dup1\n      0x00\n      add\n      0x00\n      swap1\n      sload\n      swap1\n      0x0100\n      exp\n      swap1\n      div\n      0xff\n      and\n      swap1\n      dup1\n      0x00\n      add\n      0x01\n      swap1\n      sload\n      swap1\n      0x0100\n      exp\n      swap1\n      div\n      0xff\n      and\n      swap1\n      dup1\n      0x00\n      add\n      0x02\n      swap1\n      sload\n      swap1\n      0x0100\n      exp\n      swap1\n      div\n      0xffffffffffffffffffffffffffffffffffffffff\n      and\n      swap1\n      pop\n      dup4\n      jump\t// out\n        /* \"contracts/1_Storage.sol\":1124:2051  function createContract(bytes32 _messageID, uint256 expiry, uint256 requiredPercentage,bytes32 _contents,... */\n    tag_106:\n        /* \"contracts/1_Storage.sol\":1422:1423  0 */\n      0x00\n        /* \"contracts/1_Storage.sol\":1388:1424  initiators[_messageID] == address(0) */\n      0xffffffffffffffffffffffffffffffffffffffff\n      and\n        /* \"contracts/1_Storage.sol\":1388:1398  initiators */\n      0x00\n        /* \"contracts/1_Storage.sol\":1388:1410  initiators[_messageID] */\n      dup1\n        /* \"contracts/1_Storage.sol\":1399:1409  _messageID */\n      dup9\n        /* \"contracts/1_Storage.sol\":1388:1410  initiators[_messageID] */\n      dup2\n      mstore\n      0x20\n      add\n      swap1\n      dup2\n      mstore\n      0x20\n      add\n      0x00\n      keccak256\n      0x00\n      swap1\n      sload\n      swap1\n      0x0100\n      exp\n      swap1\n      div\n      0xffffffffffffffffffffffffffffffffffffffff\n      and\n        /* \"contracts/1_Storage.sol\":1388:1424  initiators[_messageID] == address(0) */\n      0xffffffffffffffffffffffffffffffffffffffff\n      and\n      eq\n        /* \"contracts/1_Storage.sol\":1380:1453  require(initiators[_messageID] == address(0),\"Proposal already created!\") */\n      tag_199\n      jumpi\n      mload(0x40)\n      0x08c379a000000000000000000000000000000000000000000000000000000000\n      dup2\n      mstore\n      0x04\n      add\n      tag_200\n      swap1\n      tag_201\n      jump\t// in\n    tag_200:\n      mload(0x40)\n      dup1\n      swap2\n      sub\n      swap1\n      revert\n    tag_199:\n        /* \"contracts/1_Storage.sol\":1492:1493  0 */\n      0x00\n        /* \"contracts/1_Storage.sol\":1467:1477  voteCounts */\n      0x02\n        /* \"contracts/1_Storage.sol\":1467:1489  voteCounts[_messageID] */\n      0x00\n        /* \"contracts/1_Storage.sol\":1478:1488  _messageID */\n      dup9\n        /* \"contracts/1_Storage.sol\":1467:1489  voteCounts[_messageID] */\n      dup2\n      mstore\n      0x20\n      add\n      swap1\n      dup2\n      mstore\n      0x20\n      add\n      0x00\n      keccak256\n        /* \"contracts/1_Storage.sol\":1467:1493  voteCounts[_messageID] = 0 */\n      dup2\n      swap1\n      sstore\n      pop\n        /* \"contracts/1_Storage.sol\":1552:1558  expiry */\n      dup5\n        /* \"contracts/1_Storage.sol\":1534:1549  block.timestamp */\n      timestamp\n        /* \"contracts/1_Storage.sol\":1534:1558  block.timestamp + expiry */\n      tag_202\n      swap2\n      swap1\n      tag_176\n      jump\t// in\n    tag_202:\n        /* \"contracts/1_Storage.sol\":1507:1518  expiryDates */\n      0x04\n        /* \"contracts/1_Storage.sol\":1507:1530  expiryDates[_messageID] */\n      0x00\n        /* \"contracts/1_Storage.sol\":1519:1529  _messageID */\n      dup9\n        /* \"contracts/1_Storage.sol\":1507:1530  expiryDates[_messageID] */\n      dup2\n      mstore\n      0x20\n      add\n      swap1\n      dup2\n      mstore\n      0x20\n      add\n      0x00\n      keccak256\n        /* \"contracts/1_Storage.sol\":1507:1558  expiryDates[_messageID] =  block.timestamp + expiry */\n      dup2\n      swap1\n      sstore\n      pop\n        /* \"contracts/1_Storage.sol\":1586:1596  _messageID */\n      dup6\n        /* \"contracts/1_Storage.sol\":1572:1575  IDs */\n      0x01\n        /* \"contracts/1_Storage.sol\":1572:1583  IDs[_keyID] */\n      0x00\n        /* \"contracts/1_Storage.sol\":1576:1582  _keyID */\n      dup4\n        /* \"contracts/1_Storage.sol\":1572:1583  IDs[_keyID] */\n      dup2\n      mstore\n      0x20\n      add\n      swap1\n      dup2\n      mstore\n      0x20\n      add\n      0x00\n      keccak256\n        /* \"contracts/1_Storage.sol\":1572:1596  IDs[_keyID] = _messageID */\n      dup2\n      swap1\n      sstore\n      pop\n        /* \"contracts/1_Storage.sol\":1635:1640  false */\n      0x00\n        /* \"contracts/1_Storage.sol\":1610:1620  isCompiled */\n      0x0a\n        /* \"contracts/1_Storage.sol\":1610:1632  isCompiled[_messageID] */\n      0x00\n        /* \"contracts/1_Storage.sol\":1621:1631  _messageID */\n      dup9\n        /* \"contracts/1_Storage.sol\":1610:1632  isCompiled[_messageID] */\n      dup2\n      mstore\n      0x20\n      add\n      swap1\n      dup2\n      mstore\n      0x20\n      add\n      0x00\n      keccak256\n      0x00\n        /* \"contracts/1_Storage.sol\":1610:1640  isCompiled[_messageID] = false */\n      0x0100\n      exp\n      dup2\n      sload\n      dup2\n      0xff\n      mul\n      not\n      and\n      swap1\n      dup4\n      iszero\n      iszero\n      mul\n      or\n      swap1\n      sstore\n      pop\n        /* \"contracts/1_Storage.sol\":1689:1707  requiredPercentage */\n      dup4\n        /* \"contracts/1_Storage.sol\":1654:1674  businessRequirements */\n      0x07\n        /* \"contracts/1_Storage.sol\":1654:1686  businessRequirements[_messageID] */\n      0x00\n        /* \"contracts/1_Storage.sol\":1675:1685  _messageID */\n      dup9\n        /* \"contracts/1_Storage.sol\":1654:1686  businessRequirements[_messageID] */\n      dup2\n      mstore\n      0x20\n      add\n      swap1\n      dup2\n      mstore\n      0x20\n      add\n      0x00\n      keccak256\n        /* \"contracts/1_Storage.sol\":1654:1707  businessRequirements[_messageID] = requiredPercentage */\n      dup2\n      swap1\n      sstore\n      pop\n        /* \"contracts/1_Storage.sol\":1752:1770  requiredPercentage */\n      dup4\n        /* \"contracts/1_Storage.sol\":1721:1741  businessRequirements */\n      0x07\n        /* \"contracts/1_Storage.sol\":1721:1749  businessRequirements[_keyID] */\n      0x00\n        /* \"contracts/1_Storage.sol\":1742:1748  _keyID */\n      dup4\n        /* \"contracts/1_Storage.sol\":1721:1749  businessRequirements[_keyID] */\n      dup2\n      mstore\n      0x20\n      add\n      swap1\n      dup2\n      mstore\n      0x20\n      add\n      0x00\n      keccak256\n        /* \"contracts/1_Storage.sol\":1721:1770  businessRequirements[_keyID] = requiredPercentage */\n      dup2\n      swap1\n      sstore\n      pop\n        /* \"contracts/1_Storage.sol\":1812:1817  false */\n      0x00\n        /* \"contracts/1_Storage.sol\":1784:1797  finalVerdicts */\n      0x09\n        /* \"contracts/1_Storage.sol\":1784:1809  finalVerdicts[_messageID] */\n      0x00\n        /* \"contracts/1_Storage.sol\":1798:1808  _messageID */\n      dup9\n        /* \"contracts/1_Storage.sol\":1784:1809  finalVerdicts[_messageID] */\n      dup2\n      mstore\n      0x20\n      add\n      swap1\n      dup2\n      mstore\n      0x20\n      add\n      0x00\n      keccak256\n      0x00\n        /* \"contracts/1_Storage.sol\":1784:1817  finalVerdicts[_messageID] = false */\n      0x0100\n      exp\n      dup2\n      sload\n      dup2\n      0xff\n      mul\n      not\n      and\n      swap1\n      dup4\n      iszero\n      iszero\n      mul\n      or\n      swap1\n      sstore\n      pop\n        /* \"contracts/1_Storage.sol\":1855:1861  expiry */\n      dup5\n        /* \"contracts/1_Storage.sol\":1831:1844  expiryLengths */\n      0x03\n        /* \"contracts/1_Storage.sol\":1831:1852  expiryLengths[_keyID] */\n      0x00\n        /* \"contracts/1_Storage.sol\":1845:1851  _keyID */\n      dup4\n        /* \"contracts/1_Storage.sol\":1831:1852  expiryLengths[_keyID] */\n      dup2\n      mstore\n      0x20\n      add\n      swap1\n      dup2\n      mstore\n      0x20\n      add\n      0x00\n      keccak256\n        /* \"contracts/1_Storage.sol\":1831:1861  expiryLengths[_keyID] = expiry */\n      dup2\n      swap1\n      sstore\n      pop\n        /* \"contracts/1_Storage.sol\":1894:1903  _contents */\n      dup3\n        /* \"contracts/1_Storage.sol\":1875:1883  contents */\n      0x05\n        /* \"contracts/1_Storage.sol\":1875:1891  contents[_keyID] */\n      0x00\n        /* \"contracts/1_Storage.sol\":1884:1890  _keyID */\n      dup4\n        /* \"contracts/1_Storage.sol\":1875:1891  contents[_keyID] */\n      dup2\n      mstore\n      0x20\n      add\n      swap1\n      dup2\n      mstore\n      0x20\n      add\n      0x00\n      keccak256\n        /* \"contracts/1_Storage.sol\":1875:1903  contents[_keyID] = _contents */\n      dup2\n      swap1\n      sstore\n      pop\n        /* \"contracts/1_Storage.sol\":1940:1952  _messageDate */\n      dup2\n        /* \"contracts/1_Storage.sol\":1917:1929  messageDates */\n      0x08\n        /* \"contracts/1_Storage.sol\":1917:1937  messageDates[_keyID] */\n      0x00\n        /* \"contracts/1_Storage.sol\":1930:1936  _keyID */\n      dup4\n        /* \"contracts/1_Storage.sol\":1917:1937  messageDates[_keyID] */\n      dup2\n      mstore\n      0x20\n      add\n      swap1\n      dup2\n      mstore\n      0x20\n      add\n      0x00\n      keccak256\n        /* \"contracts/1_Storage.sol\":1917:1952  messageDates[_keyID] = _messageDate */\n      swap1\n      dup1\n      mload\n      swap1\n      0x20\n      add\n      swap1\n      tag_203\n      swap3\n      swap2\n      swap1\n      tag_204\n      jump\t// in\n    tag_203:\n      pop\n        /* \"contracts/1_Storage.sol\":1993:1994  0 */\n      0x00\n        /* \"contracts/1_Storage.sol\":1966:1978  numApprovals */\n      0x06\n        /* \"contracts/1_Storage.sol\":1966:1990  numApprovals[_messageID] */\n      0x00\n        /* \"contracts/1_Storage.sol\":1979:1989  _messageID */\n      dup9\n        /* \"contracts/1_Storage.sol\":1966:1990  numApprovals[_messageID] */\n      dup2\n      mstore\n      0x20\n      add\n      swap1\n      dup2\n      mstore\n      0x20\n      add\n      0x00\n      keccak256\n        /* \"contracts/1_Storage.sol\":1966:1994  numApprovals[_messageID] = 0 */\n      dup2\n      swap1\n      sstore\n      pop\n        /* \"contracts/1_Storage.sol\":2033:2043  msg.sender */\n      caller\n        /* \"contracts/1_Storage.sol\":2008:2018  initiators */\n      0x00\n        /* \"contracts/1_Storage.sol\":2008:2030  initiators[_messageID] */\n      dup1\n        /* \"contracts/1_Storage.sol\":2019:2029  _messageID */\n      dup9\n        /* \"contracts/1_Storage.sol\":2008:2030  initiators[_messageID] */\n      dup2\n      mstore\n      0x20\n      add\n      swap1\n      dup2\n      mstore\n      0x20\n      add\n      0x00\n      keccak256\n      0x00\n        /* \"contracts/1_Storage.sol\":2008:2043  initiators[_messageID] = msg.sender */\n      0x0100\n      exp\n      dup2\n      sload\n      dup2\n      0xffffffffffffffffffffffffffffffffffffffff\n      mul\n      not\n      and\n      swap1\n      dup4\n      0xffffffffffffffffffffffffffffffffffffffff\n      and\n      mul\n      or\n      swap1\n      sstore\n      pop\n        /* \"contracts/1_Storage.sol\":1124:2051  function createContract(bytes32 _messageID, uint256 expiry, uint256 requiredPercentage,bytes32 _contents,... */\n      pop\n      pop\n      pop\n      pop\n      pop\n      pop\n      jump\t// out\n        /* \"contracts/1_Storage.sol\":401:444  mapping(bytes32=>address) public initiators */\n    tag_109:\n      mstore(0x20, 0x00)\n      dup1\n      0x00\n      mstore\n      keccak256(0x00, 0x40)\n      0x00\n      swap2\n      pop\n      sload\n      swap1\n      0x0100\n      exp\n      swap1\n      div\n      0xffffffffffffffffffffffffffffffffffffffff\n      and\n      dup2\n      jump\t// out\n        /* \"contracts/1_Storage.sol\":2976:3699  function RegisterVoter(address voter,bytes32 _messageID) external {... */\n    tag_114:\n        /* \"contracts/1_Storage.sol\":3160:3170  initiators */\n      0x00\n        /* \"contracts/1_Storage.sol\":3160:3182  initiators[_messageID] */\n      dup1\n        /* \"contracts/1_Storage.sol\":3171:3181  _messageID */\n      dup3\n        /* \"contracts/1_Storage.sol\":3160:3182  initiators[_messageID] */\n      dup2\n      mstore\n      0x20\n      add\n      swap1\n      dup2\n      mstore\n      0x20\n      add\n      0x00\n      keccak256\n      0x00\n      swap1\n      sload\n      swap1\n      0x0100\n      exp\n      swap1\n      div\n      0xffffffffffffffffffffffffffffffffffffffff\n      and\n        /* \"contracts/1_Storage.sol\":3146:3182  msg.sender == initiators[_messageID] */\n      0xffffffffffffffffffffffffffffffffffffffff\n      and\n        /* \"contracts/1_Storage.sol\":3146:3156  msg.sender */\n      caller\n        /* \"contracts/1_Storage.sol\":3146:3182  msg.sender == initiators[_messageID] */\n      0xffffffffffffffffffffffffffffffffffffffff\n      and\n      eq\n        /* \"contracts/1_Storage.sol\":3125:3248  require(... */\n      tag_206\n      jumpi\n      mload(0x40)\n      0x08c379a000000000000000000000000000000000000000000000000000000000\n      dup2\n      mstore\n      0x04\n      add\n      tag_207\n      swap1\n      tag_208\n      jump\t// in\n    tag_207:\n      mload(0x40)\n      dup1\n      swap2\n      sub\n      swap1\n      revert\n    tag_206:\n        /* \"contracts/1_Storage.sol\":3275:3285  initiators */\n      0x00\n        /* \"contracts/1_Storage.sol\":3275:3297  initiators[_messageID] */\n      dup1\n        /* \"contracts/1_Storage.sol\":3286:3296  _messageID */\n      dup3\n        /* \"contracts/1_Storage.sol\":3275:3297  initiators[_messageID] */\n      dup2\n      mstore\n      0x20\n      add\n      swap1\n      dup2\n      mstore\n      0x20\n      add\n      0x00\n      keccak256\n      0x00\n      swap1\n      sload\n      swap1\n      0x0100\n      exp\n      swap1\n      div\n      0xffffffffffffffffffffffffffffffffffffffff\n      and\n        /* \"contracts/1_Storage.sol\":3266:3297  voter != initiators[_messageID] */\n      0xffffffffffffffffffffffffffffffffffffffff\n      and\n        /* \"contracts/1_Storage.sol\":3266:3271  voter */\n      dup3\n        /* \"contracts/1_Storage.sol\":3266:3297  voter != initiators[_messageID] */\n      0xffffffffffffffffffffffffffffffffffffffff\n      and\n      eq\n      iszero\n        /* \"contracts/1_Storage.sol\":3258:3323  require(voter != initiators[_messageID], \"Initiator can't vote!\") */\n      tag_209\n      jumpi\n      mload(0x40)\n      0x08c379a000000000000000000000000000000000000000000000000000000000\n      dup2\n      mstore\n      0x04\n      add\n      tag_210\n      swap1\n      tag_211\n      jump\t// in\n    tag_210:\n      mload(0x40)\n      dup1\n      swap2\n      sub\n      swap1\n      revert\n    tag_209:\n        /* \"contracts/1_Storage.sol\":3393:3394  0 */\n      0x00\n        /* \"contracts/1_Storage.sol\":3342:3395  voter_maps[_messageID][voter].recipient == address(0) */\n      0xffffffffffffffffffffffffffffffffffffffff\n      and\n        /* \"contracts/1_Storage.sol\":3342:3352  voter_maps */\n      0x0b\n        /* \"contracts/1_Storage.sol\":3342:3364  voter_maps[_messageID] */\n      0x00\n        /* \"contracts/1_Storage.sol\":3353:3363  _messageID */\n      dup4\n        /* \"contracts/1_Storage.sol\":3342:3364  voter_maps[_messageID] */\n      dup2\n      mstore\n      0x20\n      add\n      swap1\n      dup2\n      mstore\n      0x20\n      add\n      0x00\n      keccak256\n        /* \"contracts/1_Storage.sol\":3342:3371  voter_maps[_messageID][voter] */\n      0x00\n        /* \"contracts/1_Storage.sol\":3365:3370  voter */\n      dup5\n        /* \"contracts/1_Storage.sol\":3342:3371  voter_maps[_messageID][voter] */\n      0xffffffffffffffffffffffffffffffffffffffff\n      and\n      0xffffffffffffffffffffffffffffffffffffffff\n      and\n      dup2\n      mstore\n      0x20\n      add\n      swap1\n      dup2\n      mstore\n      0x20\n      add\n      0x00\n      keccak256\n        /* \"contracts/1_Storage.sol\":3342:3381  voter_maps[_messageID][voter].recipient */\n      0x00\n      add\n      0x02\n      swap1\n      sload\n      swap1\n      0x0100\n      exp\n      swap1\n      div\n      0xffffffffffffffffffffffffffffffffffffffff\n      and\n        /* \"contracts/1_Storage.sol\":3342:3395  voter_maps[_messageID][voter].recipient == address(0) */\n      0xffffffffffffffffffffffffffffffffffffffff\n      and\n      eq\n        /* \"contracts/1_Storage.sol\":3334:3431  require(voter_maps[_messageID][voter].recipient == address(0), \"Recipient is already registered\") */\n      tag_212\n      jumpi\n      mload(0x40)\n      0x08c379a000000000000000000000000000000000000000000000000000000000\n      dup2\n      mstore\n      0x04\n      add\n      tag_213\n      swap1\n      tag_214\n      jump\t// in\n    tag_213:\n      mload(0x40)\n      dup1\n      swap2\n      sub\n      swap1\n      revert\n    tag_212:\n        /* \"contracts/1_Storage.sol\":3468:3479  expiryDates */\n      0x04\n        /* \"contracts/1_Storage.sol\":3468:3491  expiryDates[_messageID] */\n      0x00\n        /* \"contracts/1_Storage.sol\":3480:3490  _messageID */\n      dup3\n        /* \"contracts/1_Storage.sol\":3468:3491  expiryDates[_messageID] */\n      dup2\n      mstore\n      0x20\n      add\n      swap1\n      dup2\n      mstore\n      0x20\n      add\n      0x00\n      keccak256\n      sload\n        /* \"contracts/1_Storage.sol\":3450:3465  block.timestamp */\n      timestamp\n        /* \"contracts/1_Storage.sol\":3450:3491  block.timestamp < expiryDates[_messageID] */\n      lt\n        /* \"contracts/1_Storage.sol\":3442:3532  require(block.timestamp < expiryDates[_messageID], \"Proposal has reached its expiry date\") */\n      tag_215\n      jumpi\n      mload(0x40)\n      0x08c379a000000000000000000000000000000000000000000000000000000000\n      dup2\n      mstore\n      0x04\n      add\n      tag_216\n      swap1\n      tag_217\n      jump\t// in\n    tag_216:\n      mload(0x40)\n      dup1\n      swap2\n      sub\n      swap1\n      revert\n    tag_215:\n        /* \"contracts/1_Storage.sol\":3543:3557  Voter memory x */\n      0x00\n        /* \"contracts/1_Storage.sol\":3560:3611  Voter({voted: false,recipient: voter, vote: false}) */\n      mload(0x40)\n      dup1\n      0x60\n      add\n      0x40\n      mstore\n      dup1\n        /* \"contracts/1_Storage.sol\":3574:3579  false */\n      0x00\n        /* \"contracts/1_Storage.sol\":3560:3611  Voter({voted: false,recipient: voter, vote: false}) */\n      iszero\n      iszero\n      dup2\n      mstore\n      0x20\n      add\n        /* \"contracts/1_Storage.sol\":3604:3609  false */\n      0x00\n        /* \"contracts/1_Storage.sol\":3560:3611  Voter({voted: false,recipient: voter, vote: false}) */\n      iszero\n      iszero\n      dup2\n      mstore\n      0x20\n      add\n        /* \"contracts/1_Storage.sol\":3591:3596  voter */\n      dup5\n        /* \"contracts/1_Storage.sol\":3560:3611  Voter({voted: false,recipient: voter, vote: false}) */\n      0xffffffffffffffffffffffffffffffffffffffff\n      and\n      dup2\n      mstore\n      pop\n        /* \"contracts/1_Storage.sol\":3543:3611  Voter memory x = Voter({voted: false,recipient: voter, vote: false}) */\n      swap1\n      pop\n        /* \"contracts/1_Storage.sol\":3653:3654  x */\n      dup1\n        /* \"contracts/1_Storage.sol\":3621:3631  voter_maps */\n      0x0b\n        /* \"contracts/1_Storage.sol\":3621:3643  voter_maps[_messageID] */\n      0x00\n        /* \"contracts/1_Storage.sol\":3632:3642  _messageID */\n      dup5\n        /* \"contracts/1_Storage.sol\":3621:3643  voter_maps[_messageID] */\n      dup2\n      mstore\n      0x20\n      add\n      swap1\n      dup2\n      mstore\n      0x20\n      add\n      0x00\n      keccak256\n        /* \"contracts/1_Storage.sol\":3621:3650  voter_maps[_messageID][voter] */\n      0x00\n        /* \"contracts/1_Storage.sol\":3644:3649  voter */\n      dup6\n        /* \"contracts/1_Storage.sol\":3621:3650  voter_maps[_messageID][voter] */\n      0xffffffffffffffffffffffffffffffffffffffff\n      and\n      0xffffffffffffffffffffffffffffffffffffffff\n      and\n      dup2\n      mstore\n      0x20\n      add\n      swap1\n      dup2\n      mstore\n      0x20\n      add\n      0x00\n      keccak256\n        /* \"contracts/1_Storage.sol\":3621:3654  voter_maps[_messageID][voter] = x */\n      0x00\n      dup3\n      add\n      mload\n      dup2\n      0x00\n      add\n      exp(0x0100, 0x00)\n      dup2\n      sload\n      dup2\n      0xff\n      mul\n      not\n      and\n      swap1\n      dup4\n      iszero\n      iszero\n      mul\n      or\n      swap1\n      sstore\n      pop\n      0x20\n      dup3\n      add\n      mload\n      dup2\n      0x00\n      add\n      exp(0x0100, 0x01)\n      dup2\n      sload\n      dup2\n      0xff\n      mul\n      not\n      and\n      swap1\n      dup4\n      iszero\n      iszero\n      mul\n      or\n      swap1\n      sstore\n      pop\n      0x40\n      dup3\n      add\n      mload\n      dup2\n      0x00\n      add\n      exp(0x0100, 0x02)\n      dup2\n      sload\n      dup2\n      0xffffffffffffffffffffffffffffffffffffffff\n      mul\n      not\n      and\n      swap1\n      dup4\n      0xffffffffffffffffffffffffffffffffffffffff\n      and\n      mul\n      or\n      swap1\n      sstore\n      pop\n      swap1\n      pop\n      pop\n        /* \"contracts/1_Storage.sol\":3664:3668  keys */\n      0x0d\n        /* \"contracts/1_Storage.sol\":3664:3680  keys[_messageID] */\n      0x00\n        /* \"contracts/1_Storage.sol\":3669:3679  _messageID */\n      dup4\n        /* \"contracts/1_Storage.sol\":3664:3680  keys[_messageID] */\n      dup2\n      mstore\n      0x20\n      add\n      swap1\n      dup2\n      mstore\n      0x20\n      add\n      0x00\n      keccak256\n        /* \"contracts/1_Storage.sol\":3686:3691  voter */\n      dup4\n        /* \"contracts/1_Storage.sol\":3664:3692  keys[_messageID].push(voter) */\n      swap1\n      dup1\n      0x01\n      dup2\n      sload\n      add\n      dup1\n      dup3\n      sstore\n      dup1\n      swap2\n      pop\n      pop\n      0x01\n      swap1\n      sub\n      swap1\n      0x00\n      mstore\n      keccak256(0x00, 0x20)\n      add\n      0x00\n      swap1\n      swap2\n      swap1\n      swap2\n      swap1\n      swap2\n      0x0100\n      exp\n      dup2\n      sload\n      dup2\n      0xffffffffffffffffffffffffffffffffffffffff\n      mul\n      not\n      and\n      swap1\n      dup4\n      0xffffffffffffffffffffffffffffffffffffffff\n      and\n      mul\n      or\n      swap1\n      sstore\n      pop\n        /* \"contracts/1_Storage.sol\":3042:3699  {... */\n      pop\n        /* \"contracts/1_Storage.sol\":2976:3699  function RegisterVoter(address voter,bytes32 _messageID) external {... */\n      pop\n      pop\n      jump\t// out\n        /* \"contracts/1_Storage.sol\":699:746  mapping(bytes32 => uint256) public numApprovals */\n    tag_117:\n      mstore(0x20, 0x06)\n      dup1\n      0x00\n      mstore\n      keccak256(0x00, 0x40)\n      0x00\n      swap2\n      pop\n      swap1\n      pop\n      sload\n      dup2\n      jump\t// out\n        /* \"contracts/1_Storage.sol\":450:487  mapping(bytes32 =>bytes32) public IDs */\n    tag_121:\n      mstore(0x20, 0x01)\n      dup1\n      0x00\n      mstore\n      keccak256(0x00, 0x40)\n      0x00\n      swap2\n      pop\n      swap1\n      pop\n      sload\n      dup2\n      jump\t// out\n        /* \"contracts/1_Storage.sol\":650:693  mapping(bytes32 => bytes32) public contents */\n    tag_126:\n      mstore(0x20, 0x05)\n      dup1\n      0x00\n      mstore\n      keccak256(0x00, 0x40)\n      0x00\n      swap2\n      pop\n      swap1\n      pop\n      sload\n      dup2\n      jump\t// out\n    tag_204:\n      dup3\n      dup1\n      sload\n      tag_219\n      swap1\n      tag_188\n      jump\t// in\n    tag_219:\n      swap1\n      0x00\n      mstore\n      keccak256(0x00, 0x20)\n      swap1\n      0x1f\n      add\n      0x20\n      swap1\n      div\n      dup2\n      add\n      swap3\n      dup3\n      tag_221\n      jumpi\n      0x00\n      dup6\n      sstore\n      jump(tag_220)\n    tag_221:\n      dup3\n      0x1f\n      lt\n      tag_222\n      jumpi\n      dup1\n      mload\n      not(0xff)\n      and\n      dup4\n      dup1\n      add\n      or\n      dup6\n      sstore\n      jump(tag_220)\n    tag_222:\n      dup3\n      dup1\n      add\n      0x01\n      add\n      dup6\n      sstore\n      dup3\n      iszero\n      tag_220\n      jumpi\n      swap2\n      dup3\n      add\n    tag_223:\n      dup3\n      dup2\n      gt\n      iszero\n      tag_224\n      jumpi\n      dup3\n      mload\n      dup3\n      sstore\n      swap2\n      0x20\n      add\n      swap2\n      swap1\n      0x01\n      add\n      swap1\n      jump(tag_223)\n    tag_224:\n    tag_220:\n      pop\n      swap1\n      pop\n      tag_225\n      swap2\n      swap1\n      tag_226\n      jump\t// in\n    tag_225:\n      pop\n      swap1\n      jump\t// out\n    tag_226:\n    tag_227:\n      dup1\n      dup3\n      gt\n      iszero\n      tag_228\n      jumpi\n      0x00\n      dup2\n      0x00\n      swap1\n      sstore\n      pop\n      0x01\n      add\n      jump(tag_227)\n    tag_228:\n      pop\n      swap1\n      jump\t// out\n        /* \"#utility.yul\":7:419   */\n    tag_230:\n        /* \"#utility.yul\":85:90   */\n      0x00\n        /* \"#utility.yul\":110:176   */\n      tag_232\n        /* \"#utility.yul\":126:175   */\n      tag_233\n        /* \"#utility.yul\":168:174   */\n      dup5\n        /* \"#utility.yul\":126:175   */\n      tag_234\n      jump\t// in\n    tag_233:\n        /* \"#utility.yul\":110:176   */\n      tag_235\n      jump\t// in\n    tag_232:\n        /* \"#utility.yul\":101:176   */\n      swap1\n      pop\n        /* \"#utility.yul\":199:205   */\n      dup3\n        /* \"#utility.yul\":192:197   */\n      dup2\n        /* \"#utility.yul\":185:206   */\n      mstore\n        /* \"#utility.yul\":237:241   */\n      0x20\n        /* \"#utility.yul\":230:235   */\n      dup2\n        /* \"#utility.yul\":226:242   */\n      add\n        /* \"#utility.yul\":275:278   */\n      dup5\n        /* \"#utility.yul\":266:272   */\n      dup5\n        /* \"#utility.yul\":261:264   */\n      dup5\n        /* \"#utility.yul\":257:273   */\n      add\n        /* \"#utility.yul\":254:279   */\n      gt\n        /* \"#utility.yul\":251:363   */\n      iszero\n      tag_236\n      jumpi\n        /* \"#utility.yul\":282:361   */\n      tag_237\n      tag_238\n      jump\t// in\n    tag_237:\n        /* \"#utility.yul\":251:363   */\n    tag_236:\n        /* \"#utility.yul\":372:413   */\n      tag_239\n        /* \"#utility.yul\":406:412   */\n      dup5\n        /* \"#utility.yul\":401:404   */\n      dup3\n        /* \"#utility.yul\":396:399   */\n      dup6\n        /* \"#utility.yul\":372:413   */\n      tag_240\n      jump\t// in\n    tag_239:\n        /* \"#utility.yul\":91:419   */\n      pop\n        /* \"#utility.yul\":7:419   */\n      swap4\n      swap3\n      pop\n      pop\n      pop\n      jump\t// out\n        /* \"#utility.yul\":425:564   */\n    tag_241:\n        /* \"#utility.yul\":471:476   */\n      0x00\n        /* \"#utility.yul\":509:515   */\n      dup2\n        /* \"#utility.yul\":496:516   */\n      calldataload\n        /* \"#utility.yul\":487:516   */\n      swap1\n      pop\n        /* \"#utility.yul\":525:558   */\n      tag_243\n        /* \"#utility.yul\":552:557   */\n      dup2\n        /* \"#utility.yul\":525:558   */\n      tag_244\n      jump\t// in\n    tag_243:\n        /* \"#utility.yul\":425:564   */\n      swap3\n      swap2\n      pop\n      pop\n      jump\t// out\n        /* \"#utility.yul\":570:709   */\n    tag_245:\n        /* \"#utility.yul\":616:621   */\n      0x00\n        /* \"#utility.yul\":654:660   */\n      dup2\n        /* \"#utility.yul\":641:661   */\n      calldataload\n        /* \"#utility.yul\":632:661   */\n      swap1\n      pop\n        /* \"#utility.yul\":670:703   */\n      tag_247\n        /* \"#utility.yul\":697:702   */\n      dup2\n        /* \"#utility.yul\":670:703   */\n      tag_248\n      jump\t// in\n    tag_247:\n        /* \"#utility.yul\":570:709   */\n      swap3\n      swap2\n      pop\n      pop\n      jump\t// out\n        /* \"#utility.yul\":729:1069   */\n    tag_249:\n        /* \"#utility.yul\":785:790   */\n      0x00\n        /* \"#utility.yul\":834:837   */\n      dup3\n        /* \"#utility.yul\":827:831   */\n      0x1f\n        /* \"#utility.yul\":819:825   */\n      dup4\n        /* \"#utility.yul\":815:832   */\n      add\n        /* \"#utility.yul\":811:838   */\n      slt\n        /* \"#utility.yul\":801:923   */\n      tag_251\n      jumpi\n        /* \"#utility.yul\":842:921   */\n      tag_252\n      tag_253\n      jump\t// in\n    tag_252:\n        /* \"#utility.yul\":801:923   */\n    tag_251:\n        /* \"#utility.yul\":959:965   */\n      dup2\n        /* \"#utility.yul\":946:966   */\n      calldataload\n        /* \"#utility.yul\":984:1063   */\n      tag_254\n        /* \"#utility.yul\":1059:1062   */\n      dup5\n        /* \"#utility.yul\":1051:1057   */\n      dup3\n        /* \"#utility.yul\":1044:1048   */\n      0x20\n        /* \"#utility.yul\":1036:1042   */\n      dup7\n        /* \"#utility.yul\":1032:1049   */\n      add\n        /* \"#utility.yul\":984:1063   */\n      tag_230\n      jump\t// in\n    tag_254:\n        /* \"#utility.yul\":975:1063   */\n      swap2\n      pop\n        /* \"#utility.yul\":791:1069   */\n      pop\n        /* \"#utility.yul\":729:1069   */\n      swap3\n      swap2\n      pop\n      pop\n      jump\t// out\n        /* \"#utility.yul\":1075:1214   */\n    tag_255:\n        /* \"#utility.yul\":1121:1126   */\n      0x00\n        /* \"#utility.yul\":1159:1165   */\n      dup2\n        /* \"#utility.yul\":1146:1166   */\n      calldataload\n        /* \"#utility.yul\":1137:1166   */\n      swap1\n      pop\n        /* \"#utility.yul\":1175:1208   */\n      tag_257\n        /* \"#utility.yul\":1202:1207   */\n      dup2\n        /* \"#utility.yul\":1175:1208   */\n      tag_258\n      jump\t// in\n    tag_257:\n        /* \"#utility.yul\":1075:1214   */\n      swap3\n      swap2\n      pop\n      pop\n      jump\t// out\n        /* \"#utility.yul\":1220:1694   */\n    tag_113:\n        /* \"#utility.yul\":1288:1294   */\n      0x00\n        /* \"#utility.yul\":1296:1302   */\n      dup1\n        /* \"#utility.yul\":1345:1347   */\n      0x40\n        /* \"#utility.yul\":1333:1342   */\n      dup4\n        /* \"#utility.yul\":1324:1331   */\n      dup6\n        /* \"#utility.yul\":1320:1343   */\n      sub\n        /* \"#utility.yul\":1316:1348   */\n      slt\n        /* \"#utility.yul\":1313:1432   */\n      iszero\n      tag_260\n      jumpi\n        /* \"#utility.yul\":1351:1430   */\n      tag_261\n      tag_262\n      jump\t// in\n    tag_261:\n        /* \"#utility.yul\":1313:1432   */\n    tag_260:\n        /* \"#utility.yul\":1471:1472   */\n      0x00\n        /* \"#utility.yul\":1496:1549   */\n      tag_263\n        /* \"#utility.yul\":1541:1548   */\n      dup6\n        /* \"#utility.yul\":1532:1538   */\n      dup3\n        /* \"#utility.yul\":1521:1530   */\n      dup7\n        /* \"#utility.yul\":1517:1539   */\n      add\n        /* \"#utility.yul\":1496:1549   */\n      tag_241\n      jump\t// in\n    tag_263:\n        /* \"#utility.yul\":1486:1549   */\n      swap3\n      pop\n        /* \"#utility.yul\":1442:1559   */\n      pop\n        /* \"#utility.yul\":1598:1600   */\n      0x20\n        /* \"#utility.yul\":1624:1677   */\n      tag_264\n        /* \"#utility.yul\":1669:1676   */\n      dup6\n        /* \"#utility.yul\":1660:1666   */\n      dup3\n        /* \"#utility.yul\":1649:1658   */\n      dup7\n        /* \"#utility.yul\":1645:1667   */\n      add\n        /* \"#utility.yul\":1624:1677   */\n      tag_245\n      jump\t// in\n    tag_264:\n        /* \"#utility.yul\":1614:1677   */\n      swap2\n      pop\n        /* \"#utility.yul\":1569:1687   */\n      pop\n        /* \"#utility.yul\":1220:1694   */\n      swap3\n      pop\n      swap3\n      swap1\n      pop\n      jump\t// out\n        /* \"#utility.yul\":1700:2029   */\n    tag_30:\n        /* \"#utility.yul\":1759:1765   */\n      0x00\n        /* \"#utility.yul\":1808:1810   */\n      0x20\n        /* \"#utility.yul\":1796:1805   */\n      dup3\n        /* \"#utility.yul\":1787:1794   */\n      dup5\n        /* \"#utility.yul\":1783:1806   */\n      sub\n        /* \"#utility.yul\":1779:1811   */\n      slt\n        /* \"#utility.yul\":1776:1895   */\n      iszero\n      tag_266\n      jumpi\n        /* \"#utility.yul\":1814:1893   */\n      tag_267\n      tag_262\n      jump\t// in\n    tag_267:\n        /* \"#utility.yul\":1776:1895   */\n    tag_266:\n        /* \"#utility.yul\":1934:1935   */\n      0x00\n        /* \"#utility.yul\":1959:2012   */\n      tag_268\n        /* \"#utility.yul\":2004:2011   */\n      dup5\n        /* \"#utility.yul\":1995:2001   */\n      dup3\n        /* \"#utility.yul\":1984:1993   */\n      dup6\n        /* \"#utility.yul\":1980:2002   */\n      add\n        /* \"#utility.yul\":1959:2012   */\n      tag_245\n      jump\t// in\n    tag_268:\n        /* \"#utility.yul\":1949:2012   */\n      swap2\n      pop\n        /* \"#utility.yul\":1905:2022   */\n      pop\n        /* \"#utility.yul\":1700:2029   */\n      swap3\n      swap2\n      pop\n      pop\n      jump\t// out\n        /* \"#utility.yul\":2035:2509   */\n    tag_100:\n        /* \"#utility.yul\":2103:2109   */\n      0x00\n        /* \"#utility.yul\":2111:2117   */\n      dup1\n        /* \"#utility.yul\":2160:2162   */\n      0x40\n        /* \"#utility.yul\":2148:2157   */\n      dup4\n        /* \"#utility.yul\":2139:2146   */\n      dup6\n        /* \"#utility.yul\":2135:2158   */\n      sub\n        /* \"#utility.yul\":2131:2163   */\n      slt\n        /* \"#utility.yul\":2128:2247   */\n      iszero\n      tag_270\n      jumpi\n        /* \"#utility.yul\":2166:2245   */\n      tag_271\n      tag_262\n      jump\t// in\n    tag_271:\n        /* \"#utility.yul\":2128:2247   */\n    tag_270:\n        /* \"#utility.yul\":2286:2287   */\n      0x00\n        /* \"#utility.yul\":2311:2364   */\n      tag_272\n        /* \"#utility.yul\":2356:2363   */\n      dup6\n        /* \"#utility.yul\":2347:2353   */\n      dup3\n        /* \"#utility.yul\":2336:2345   */\n      dup7\n        /* \"#utility.yul\":2332:2354   */\n      add\n        /* \"#utility.yul\":2311:2364   */\n      tag_245\n      jump\t// in\n    tag_272:\n        /* \"#utility.yul\":2301:2364   */\n      swap3\n      pop\n        /* \"#utility.yul\":2257:2374   */\n      pop\n        /* \"#utility.yul\":2413:2415   */\n      0x20\n        /* \"#utility.yul\":2439:2492   */\n      tag_273\n        /* \"#utility.yul\":2484:2491   */\n      dup6\n        /* \"#utility.yul\":2475:2481   */\n      dup3\n        /* \"#utility.yul\":2464:2473   */\n      dup7\n        /* \"#utility.yul\":2460:2482   */\n      add\n        /* \"#utility.yul\":2439:2492   */\n      tag_241\n      jump\t// in\n    tag_273:\n        /* \"#utility.yul\":2429:2492   */\n      swap2\n      pop\n        /* \"#utility.yul\":2384:2502   */\n      pop\n        /* \"#utility.yul\":2035:2509   */\n      swap3\n      pop\n      swap3\n      swap1\n      pop\n      jump\t// out\n        /* \"#utility.yul\":2515:2989   */\n    tag_52:\n        /* \"#utility.yul\":2583:2589   */\n      0x00\n        /* \"#utility.yul\":2591:2597   */\n      dup1\n        /* \"#utility.yul\":2640:2642   */\n      0x40\n        /* \"#utility.yul\":2628:2637   */\n      dup4\n        /* \"#utility.yul\":2619:2626   */\n      dup6\n        /* \"#utility.yul\":2615:2638   */\n      sub\n        /* \"#utility.yul\":2611:2643   */\n      slt\n        /* \"#utility.yul\":2608:2727   */\n      iszero\n      tag_275\n      jumpi\n        /* \"#utility.yul\":2646:2725   */\n      tag_276\n      tag_262\n      jump\t// in\n    tag_276:\n        /* \"#utility.yul\":2608:2727   */\n    tag_275:\n        /* \"#utility.yul\":2766:2767   */\n      0x00\n        /* \"#utility.yul\":2791:2844   */\n      tag_277\n        /* \"#utility.yul\":2836:2843   */\n      dup6\n        /* \"#utility.yul\":2827:2833   */\n      dup3\n        /* \"#utility.yul\":2816:2825   */\n      dup7\n        /* \"#utility.yul\":2812:2834   */\n      add\n        /* \"#utility.yul\":2791:2844   */\n      tag_245\n      jump\t// in\n    tag_277:\n        /* \"#utility.yul\":2781:2844   */\n      swap3\n      pop\n        /* \"#utility.yul\":2737:2854   */\n      pop\n        /* \"#utility.yul\":2893:2895   */\n      0x20\n        /* \"#utility.yul\":2919:2972   */\n      tag_278\n        /* \"#utility.yul\":2964:2971   */\n      dup6\n        /* \"#utility.yul\":2955:2961   */\n      dup3\n        /* \"#utility.yul\":2944:2953   */\n      dup7\n        /* \"#utility.yul\":2940:2962   */\n      add\n        /* \"#utility.yul\":2919:2972   */\n      tag_255\n      jump\t// in\n    tag_278:\n        /* \"#utility.yul\":2909:2972   */\n      swap2\n      pop\n        /* \"#utility.yul\":2864:2982   */\n      pop\n        /* \"#utility.yul\":2515:2989   */\n      swap3\n      pop\n      swap3\n      swap1\n      pop\n      jump\t// out\n        /* \"#utility.yul\":2995:3760   */\n    tag_41:\n        /* \"#utility.yul\":3081:3087   */\n      0x00\n        /* \"#utility.yul\":3089:3095   */\n      dup1\n        /* \"#utility.yul\":3097:3103   */\n      0x00\n        /* \"#utility.yul\":3105:3111   */\n      dup1\n        /* \"#utility.yul\":3154:3157   */\n      0x80\n        /* \"#utility.yul\":3142:3151   */\n      dup6\n        /* \"#utility.yul\":3133:3140   */\n      dup8\n        /* \"#utility.yul\":3129:3152   */\n      sub\n        /* \"#utility.yul\":3125:3158   */\n      slt\n        /* \"#utility.yul\":3122:3242   */\n      iszero\n      tag_280\n      jumpi\n        /* \"#utility.yul\":3161:3240   */\n      tag_281\n      tag_262\n      jump\t// in\n    tag_281:\n        /* \"#utility.yul\":3122:3242   */\n    tag_280:\n        /* \"#utility.yul\":3281:3282   */\n      0x00\n        /* \"#utility.yul\":3306:3359   */\n      tag_282\n        /* \"#utility.yul\":3351:3358   */\n      dup8\n        /* \"#utility.yul\":3342:3348   */\n      dup3\n        /* \"#utility.yul\":3331:3340   */\n      dup9\n        /* \"#utility.yul\":3327:3349   */\n      add\n        /* \"#utility.yul\":3306:3359   */\n      tag_245\n      jump\t// in\n    tag_282:\n        /* \"#utility.yul\":3296:3359   */\n      swap5\n      pop\n        /* \"#utility.yul\":3252:3369   */\n      pop\n        /* \"#utility.yul\":3408:3410   */\n      0x20\n        /* \"#utility.yul\":3434:3487   */\n      tag_283\n        /* \"#utility.yul\":3479:3486   */\n      dup8\n        /* \"#utility.yul\":3470:3476   */\n      dup3\n        /* \"#utility.yul\":3459:3468   */\n      dup9\n        /* \"#utility.yul\":3455:3477   */\n      add\n        /* \"#utility.yul\":3434:3487   */\n      tag_255\n      jump\t// in\n    tag_283:\n        /* \"#utility.yul\":3424:3487   */\n      swap4\n      pop\n        /* \"#utility.yul\":3379:3497   */\n      pop\n        /* \"#utility.yul\":3536:3538   */\n      0x40\n        /* \"#utility.yul\":3562:3615   */\n      tag_284\n        /* \"#utility.yul\":3607:3614   */\n      dup8\n        /* \"#utility.yul\":3598:3604   */\n      dup3\n        /* \"#utility.yul\":3587:3596   */\n      dup9\n        /* \"#utility.yul\":3583:3605   */\n      add\n        /* \"#utility.yul\":3562:3615   */\n      tag_255\n      jump\t// in\n    tag_284:\n        /* \"#utility.yul\":3552:3615   */\n      swap3\n      pop\n        /* \"#utility.yul\":3507:3625   */\n      pop\n        /* \"#utility.yul\":3664:3666   */\n      0x60\n        /* \"#utility.yul\":3690:3743   */\n      tag_285\n        /* \"#utility.yul\":3735:3742   */\n      dup8\n        /* \"#utility.yul\":3726:3732   */\n      dup3\n        /* \"#utility.yul\":3715:3724   */\n      dup9\n        /* \"#utility.yul\":3711:3733   */\n      add\n        /* \"#utility.yul\":3690:3743   */\n      tag_245\n      jump\t// in\n    tag_285:\n        /* \"#utility.yul\":3680:3743   */\n      swap2\n      pop\n        /* \"#utility.yul\":3635:3753   */\n      pop\n        /* \"#utility.yul\":2995:3760   */\n      swap3\n      swap6\n      swap2\n      swap5\n      pop\n      swap3\n      pop\n      jump\t// out\n        /* \"#utility.yul\":3766:5003   */\n    tag_105:\n        /* \"#utility.yul\":3880:3886   */\n      0x00\n        /* \"#utility.yul\":3888:3894   */\n      dup1\n        /* \"#utility.yul\":3896:3902   */\n      0x00\n        /* \"#utility.yul\":3904:3910   */\n      dup1\n        /* \"#utility.yul\":3912:3918   */\n      0x00\n        /* \"#utility.yul\":3920:3926   */\n      dup1\n        /* \"#utility.yul\":3969:3972   */\n      0xc0\n        /* \"#utility.yul\":3957:3966   */\n      dup8\n        /* \"#utility.yul\":3948:3955   */\n      dup10\n        /* \"#utility.yul\":3944:3967   */\n      sub\n        /* \"#utility.yul\":3940:3973   */\n      slt\n        /* \"#utility.yul\":3937:4057   */\n      iszero\n      tag_287\n      jumpi\n        /* \"#utility.yul\":3976:4055   */\n      tag_288\n      tag_262\n      jump\t// in\n    tag_288:\n        /* \"#utility.yul\":3937:4057   */\n    tag_287:\n        /* \"#utility.yul\":4096:4097   */\n      0x00\n        /* \"#utility.yul\":4121:4174   */\n      tag_289\n        /* \"#utility.yul\":4166:4173   */\n      dup10\n        /* \"#utility.yul\":4157:4163   */\n      dup3\n        /* \"#utility.yul\":4146:4155   */\n      dup11\n        /* \"#utility.yul\":4142:4164   */\n      add\n        /* \"#utility.yul\":4121:4174   */\n      tag_245\n      jump\t// in\n    tag_289:\n        /* \"#utility.yul\":4111:4174   */\n      swap7\n      pop\n        /* \"#utility.yul\":4067:4184   */\n      pop\n        /* \"#utility.yul\":4223:4225   */\n      0x20\n        /* \"#utility.yul\":4249:4302   */\n      tag_290\n        /* \"#utility.yul\":4294:4301   */\n      dup10\n        /* \"#utility.yul\":4285:4291   */\n      dup3\n        /* \"#utility.yul\":4274:4283   */\n      dup11\n        /* \"#utility.yul\":4270:4292   */\n      add\n        /* \"#utility.yul\":4249:4302   */\n      tag_255\n      jump\t// in\n    tag_290:\n        /* \"#utility.yul\":4239:4302   */\n      swap6\n      pop\n        /* \"#utility.yul\":4194:4312   */\n      pop\n        /* \"#utility.yul\":4351:4353   */\n      0x40\n        /* \"#utility.yul\":4377:4430   */\n      tag_291\n        /* \"#utility.yul\":4422:4429   */\n      dup10\n        /* \"#utility.yul\":4413:4419   */\n      dup3\n        /* \"#utility.yul\":4402:4411   */\n      dup11\n        /* \"#utility.yul\":4398:4420   */\n      add\n        /* \"#utility.yul\":4377:4430   */\n      tag_255\n      jump\t// in\n    tag_291:\n        /* \"#utility.yul\":4367:4430   */\n      swap5\n      pop\n        /* \"#utility.yul\":4322:4440   */\n      pop\n        /* \"#utility.yul\":4479:4481   */\n      0x60\n        /* \"#utility.yul\":4505:4558   */\n      tag_292\n        /* \"#utility.yul\":4550:4557   */\n      dup10\n        /* \"#utility.yul\":4541:4547   */\n      dup3\n        /* \"#utility.yul\":4530:4539   */\n      dup11\n        /* \"#utility.yul\":4526:4548   */\n      add\n        /* \"#utility.yul\":4505:4558   */\n      tag_245\n      jump\t// in\n    tag_292:\n        /* \"#utility.yul\":4495:4558   */\n      swap4\n      pop\n        /* \"#utility.yul\":4450:4568   */\n      pop\n        /* \"#utility.yul\":4635:4638   */\n      0x80\n        /* \"#utility.yul\":4624:4633   */\n      dup8\n        /* \"#utility.yul\":4620:4639   */\n      add\n        /* \"#utility.yul\":4607:4640   */\n      calldataload\n        /* \"#utility.yul\":4667:4685   */\n      0xffffffffffffffff\n        /* \"#utility.yul\":4659:4665   */\n      dup2\n        /* \"#utility.yul\":4656:4686   */\n      gt\n        /* \"#utility.yul\":4653:4770   */\n      iszero\n      tag_293\n      jumpi\n        /* \"#utility.yul\":4689:4768   */\n      tag_294\n      tag_295\n      jump\t// in\n    tag_294:\n        /* \"#utility.yul\":4653:4770   */\n    tag_293:\n        /* \"#utility.yul\":4794:4857   */\n      tag_296\n        /* \"#utility.yul\":4849:4856   */\n      dup10\n        /* \"#utility.yul\":4840:4846   */\n      dup3\n        /* \"#utility.yul\":4829:4838   */\n      dup11\n        /* \"#utility.yul\":4825:4847   */\n      add\n        /* \"#utility.yul\":4794:4857   */\n      tag_249\n      jump\t// in\n    tag_296:\n        /* \"#utility.yul\":4784:4857   */\n      swap3\n      pop\n        /* \"#utility.yul\":4578:4867   */\n      pop\n        /* \"#utility.yul\":4906:4909   */\n      0xa0\n        /* \"#utility.yul\":4933:4986   */\n      tag_297\n        /* \"#utility.yul\":4978:4985   */\n      dup10\n        /* \"#utility.yul\":4969:4975   */\n      dup3\n        /* \"#utility.yul\":4958:4967   */\n      dup11\n        /* \"#utility.yul\":4954:4976   */\n      add\n        /* \"#utility.yul\":4933:4986   */\n      tag_245\n      jump\t// in\n    tag_297:\n        /* \"#utility.yul\":4923:4986   */\n      swap2\n      pop\n        /* \"#utility.yul\":4877:4996   */\n      pop\n        /* \"#utility.yul\":3766:5003   */\n      swap3\n      swap6\n      pop\n      swap3\n      swap6\n      pop\n      swap3\n      swap6\n      jump\t// out\n        /* \"#utility.yul\":5009:5663   */\n    tag_86:\n        /* \"#utility.yul\":5087:5093   */\n      0x00\n        /* \"#utility.yul\":5095:5101   */\n      dup1\n        /* \"#utility.yul\":5144:5146   */\n      0x40\n        /* \"#utility.yul\":5132:5141   */\n      dup4\n        /* \"#utility.yul\":5123:5130   */\n      dup6\n        /* \"#utility.yul\":5119:5142   */\n      sub\n        /* \"#utility.yul\":5115:5147   */\n      slt\n        /* \"#utility.yul\":5112:5231   */\n      iszero\n      tag_299\n      jumpi\n        /* \"#utility.yul\":5150:5229   */\n      tag_300\n      tag_262\n      jump\t// in\n    tag_300:\n        /* \"#utility.yul\":5112:5231   */\n    tag_299:\n        /* \"#utility.yul\":5298:5299   */\n      0x00\n        /* \"#utility.yul\":5287:5296   */\n      dup4\n        /* \"#utility.yul\":5283:5300   */\n      add\n        /* \"#utility.yul\":5270:5301   */\n      calldataload\n        /* \"#utility.yul\":5328:5346   */\n      0xffffffffffffffff\n        /* \"#utility.yul\":5320:5326   */\n      dup2\n        /* \"#utility.yul\":5317:5347   */\n      gt\n        /* \"#utility.yul\":5314:5431   */\n      iszero\n      tag_301\n      jumpi\n        /* \"#utility.yul\":5350:5429   */\n      tag_302\n      tag_295\n      jump\t// in\n    tag_302:\n        /* \"#utility.yul\":5314:5431   */\n    tag_301:\n        /* \"#utility.yul\":5455:5518   */\n      tag_303\n        /* \"#utility.yul\":5510:5517   */\n      dup6\n        /* \"#utility.yul\":5501:5507   */\n      dup3\n        /* \"#utility.yul\":5490:5499   */\n      dup7\n        /* \"#utility.yul\":5486:5508   */\n      add\n        /* \"#utility.yul\":5455:5518   */\n      tag_249\n      jump\t// in\n    tag_303:\n        /* \"#utility.yul\":5445:5518   */\n      swap3\n      pop\n        /* \"#utility.yul\":5241:5528   */\n      pop\n        /* \"#utility.yul\":5567:5569   */\n      0x20\n        /* \"#utility.yul\":5593:5646   */\n      tag_304\n        /* \"#utility.yul\":5638:5645   */\n      dup6\n        /* \"#utility.yul\":5629:5635   */\n      dup3\n        /* \"#utility.yul\":5618:5627   */\n      dup7\n        /* \"#utility.yul\":5614:5636   */\n      add\n        /* \"#utility.yul\":5593:5646   */\n      tag_245\n      jump\t// in\n    tag_304:\n        /* \"#utility.yul\":5583:5646   */\n      swap2\n      pop\n        /* \"#utility.yul\":5538:5656   */\n      pop\n        /* \"#utility.yul\":5009:5663   */\n      swap3\n      pop\n      swap3\n      swap1\n      pop\n      jump\t// out\n        /* \"#utility.yul\":5669:5928   */\n    tag_305:\n        /* \"#utility.yul\":5778:5788   */\n      0x00\n        /* \"#utility.yul\":5799:5885   */\n      tag_307\n        /* \"#utility.yul\":5881:5884   */\n      dup4\n        /* \"#utility.yul\":5873:5879   */\n      dup4\n        /* \"#utility.yul\":5799:5885   */\n      tag_308\n      jump\t// in\n    tag_307:\n        /* \"#utility.yul\":5917:5921   */\n      0x60\n        /* \"#utility.yul\":5912:5915   */\n      dup4\n        /* \"#utility.yul\":5908:5922   */\n      add\n        /* \"#utility.yul\":5894:5922   */\n      swap1\n      pop\n        /* \"#utility.yul\":5669:5928   */\n      swap3\n      swap2\n      pop\n      pop\n      jump\t// out\n        /* \"#utility.yul\":5934:6042   */\n    tag_309:\n        /* \"#utility.yul\":6011:6035   */\n      tag_311\n        /* \"#utility.yul\":6029:6034   */\n      dup2\n        /* \"#utility.yul\":6011:6035   */\n      tag_312\n      jump\t// in\n    tag_311:\n        /* \"#utility.yul\":6006:6009   */\n      dup3\n        /* \"#utility.yul\":5999:6036   */\n      mstore\n        /* \"#utility.yul\":5934:6042   */\n      pop\n      pop\n      jump\t// out\n        /* \"#utility.yul\":6048:6166   */\n    tag_313:\n        /* \"#utility.yul\":6135:6159   */\n      tag_315\n        /* \"#utility.yul\":6153:6158   */\n      dup2\n        /* \"#utility.yul\":6135:6159   */\n      tag_312\n      jump\t// in\n    tag_315:\n        /* \"#utility.yul\":6130:6133   */\n      dup3\n        /* \"#utility.yul\":6123:6160   */\n      mstore\n        /* \"#utility.yul\":6048:6166   */\n      pop\n      pop\n      jump\t// out\n        /* \"#utility.yul\":6250:7142   */\n    tag_316:\n        /* \"#utility.yul\":6409:6412   */\n      0x00\n        /* \"#utility.yul\":6438:6512   */\n      tag_318\n        /* \"#utility.yul\":6506:6511   */\n      dup3\n        /* \"#utility.yul\":6438:6512   */\n      tag_319\n      jump\t// in\n    tag_318:\n        /* \"#utility.yul\":6528:6634   */\n      tag_320\n        /* \"#utility.yul\":6627:6633   */\n      dup2\n        /* \"#utility.yul\":6622:6625   */\n      dup6\n        /* \"#utility.yul\":6528:6634   */\n      tag_321\n      jump\t// in\n    tag_320:\n        /* \"#utility.yul\":6521:6634   */\n      swap4\n      pop\n        /* \"#utility.yul\":6658:6734   */\n      tag_322\n        /* \"#utility.yul\":6728:6733   */\n      dup4\n        /* \"#utility.yul\":6658:6734   */\n      tag_323\n      jump\t// in\n    tag_322:\n        /* \"#utility.yul\":6757:6764   */\n      dup1\n        /* \"#utility.yul\":6788:6789   */\n      0x00\n        /* \"#utility.yul\":6773:7117   */\n    tag_324:\n        /* \"#utility.yul\":6798:6804   */\n      dup4\n        /* \"#utility.yul\":6795:6796   */\n      dup2\n        /* \"#utility.yul\":6792:6805   */\n      lt\n        /* \"#utility.yul\":6773:7117   */\n      iszero\n      tag_326\n      jumpi\n        /* \"#utility.yul\":6874:6880   */\n      dup2\n        /* \"#utility.yul\":6868:6881   */\n      mload\n        /* \"#utility.yul\":6901:7004   */\n      tag_327\n        /* \"#utility.yul\":7000:7003   */\n      dup9\n        /* \"#utility.yul\":6985:6998   */\n      dup3\n        /* \"#utility.yul\":6901:7004   */\n      tag_305\n      jump\t// in\n    tag_327:\n        /* \"#utility.yul\":6894:7004   */\n      swap8\n      pop\n        /* \"#utility.yul\":7027:7107   */\n      tag_328\n        /* \"#utility.yul\":7100:7106   */\n      dup4\n        /* \"#utility.yul\":7027:7107   */\n      tag_329\n      jump\t// in\n    tag_328:\n        /* \"#utility.yul\":7017:7107   */\n      swap3\n      pop\n        /* \"#utility.yul\":6833:7117   */\n      pop\n        /* \"#utility.yul\":6820:6821   */\n      0x01\n        /* \"#utility.yul\":6817:6818   */\n      dup2\n        /* \"#utility.yul\":6813:6822   */\n      add\n        /* \"#utility.yul\":6808:6822   */\n      swap1\n      pop\n        /* \"#utility.yul\":6773:7117   */\n      jump(tag_324)\n    tag_326:\n        /* \"#utility.yul\":6777:6791   */\n      pop\n        /* \"#utility.yul\":7133:7136   */\n      dup6\n        /* \"#utility.yul\":7126:7136   */\n      swap4\n      pop\n        /* \"#utility.yul\":6414:7142   */\n      pop\n      pop\n      pop\n        /* \"#utility.yul\":6250:7142   */\n      swap3\n      swap2\n      pop\n      pop\n      jump\t// out\n        /* \"#utility.yul\":7148:7247   */\n    tag_330:\n        /* \"#utility.yul\":7219:7240   */\n      tag_332\n        /* \"#utility.yul\":7234:7239   */\n      dup2\n        /* \"#utility.yul\":7219:7240   */\n      tag_333\n      jump\t// in\n    tag_332:\n        /* \"#utility.yul\":7214:7217   */\n      dup3\n        /* \"#utility.yul\":7207:7241   */\n      mstore\n        /* \"#utility.yul\":7148:7247   */\n      pop\n      pop\n      jump\t// out\n        /* \"#utility.yul\":7253:7362   */\n    tag_334:\n        /* \"#utility.yul\":7334:7355   */\n      tag_336\n        /* \"#utility.yul\":7349:7354   */\n      dup2\n        /* \"#utility.yul\":7334:7355   */\n      tag_333\n      jump\t// in\n    tag_336:\n        /* \"#utility.yul\":7329:7332   */\n      dup3\n        /* \"#utility.yul\":7322:7356   */\n      mstore\n        /* \"#utility.yul\":7253:7362   */\n      pop\n      pop\n      jump\t// out\n        /* \"#utility.yul\":7368:7486   */\n    tag_337:\n        /* \"#utility.yul\":7455:7479   */\n      tag_339\n        /* \"#utility.yul\":7473:7478   */\n      dup2\n        /* \"#utility.yul\":7455:7479   */\n      tag_340\n      jump\t// in\n    tag_339:\n        /* \"#utility.yul\":7450:7453   */\n      dup3\n        /* \"#utility.yul\":7443:7480   */\n      mstore\n        /* \"#utility.yul\":7368:7486   */\n      pop\n      pop\n      jump\t// out\n        /* \"#utility.yul\":7492:7856   */\n    tag_341:\n        /* \"#utility.yul\":7580:7583   */\n      0x00\n        /* \"#utility.yul\":7608:7647   */\n      tag_343\n        /* \"#utility.yul\":7641:7646   */\n      dup3\n        /* \"#utility.yul\":7608:7647   */\n      tag_344\n      jump\t// in\n    tag_343:\n        /* \"#utility.yul\":7663:7734   */\n      tag_345\n        /* \"#utility.yul\":7727:7733   */\n      dup2\n        /* \"#utility.yul\":7722:7725   */\n      dup6\n        /* \"#utility.yul\":7663:7734   */\n      tag_346\n      jump\t// in\n    tag_345:\n        /* \"#utility.yul\":7656:7734   */\n      swap4\n      pop\n        /* \"#utility.yul\":7743:7795   */\n      tag_347\n        /* \"#utility.yul\":7788:7794   */\n      dup2\n        /* \"#utility.yul\":7783:7786   */\n      dup6\n        /* \"#utility.yul\":7776:7780   */\n      0x20\n        /* \"#utility.yul\":7769:7774   */\n      dup7\n        /* \"#utility.yul\":7765:7781   */\n      add\n        /* \"#utility.yul\":7743:7795   */\n      tag_348\n      jump\t// in\n    tag_347:\n        /* \"#utility.yul\":7820:7849   */\n      tag_349\n        /* \"#utility.yul\":7842:7848   */\n      dup2\n        /* \"#utility.yul\":7820:7849   */\n      tag_350\n      jump\t// in\n    tag_349:\n        /* \"#utility.yul\":7815:7818   */\n      dup5\n        /* \"#utility.yul\":7811:7850   */\n      add\n        /* \"#utility.yul\":7804:7850   */\n      swap2\n      pop\n        /* \"#utility.yul\":7584:7856   */\n      pop\n        /* \"#utility.yul\":7492:7856   */\n      swap3\n      swap2\n      pop\n      pop\n      jump\t// out\n        /* \"#utility.yul\":7862:8228   */\n    tag_351:\n        /* \"#utility.yul\":8004:8007   */\n      0x00\n        /* \"#utility.yul\":8025:8092   */\n      tag_353\n        /* \"#utility.yul\":8089:8091   */\n      0x1f\n        /* \"#utility.yul\":8084:8087   */\n      dup4\n        /* \"#utility.yul\":8025:8092   */\n      tag_346\n      jump\t// in\n    tag_353:\n        /* \"#utility.yul\":8018:8092   */\n      swap2\n      pop\n        /* \"#utility.yul\":8101:8194   */\n      tag_354\n        /* \"#utility.yul\":8190:8193   */\n      dup3\n        /* \"#utility.yul\":8101:8194   */\n      tag_355\n      jump\t// in\n    tag_354:\n        /* \"#utility.yul\":8219:8221   */\n      0x20\n        /* \"#utility.yul\":8214:8217   */\n      dup3\n        /* \"#utility.yul\":8210:8222   */\n      add\n        /* \"#utility.yul\":8203:8222   */\n      swap1\n      pop\n        /* \"#utility.yul\":7862:8228   */\n      swap2\n      swap1\n      pop\n      jump\t// out\n        /* \"#utility.yul\":8234:8600   */\n    tag_356:\n        /* \"#utility.yul\":8376:8379   */\n      0x00\n        /* \"#utility.yul\":8397:8464   */\n      tag_358\n        /* \"#utility.yul\":8461:8463   */\n      0x19\n        /* \"#utility.yul\":8456:8459   */\n      dup4\n        /* \"#utility.yul\":8397:8464   */\n      tag_346\n      jump\t// in\n    tag_358:\n        /* \"#utility.yul\":8390:8464   */\n      swap2\n      pop\n        /* \"#utility.yul\":8473:8566   */\n      tag_359\n        /* \"#utility.yul\":8562:8565   */\n      dup3\n        /* \"#utility.yul\":8473:8566   */\n      tag_360\n      jump\t// in\n    tag_359:\n        /* \"#utility.yul\":8591:8593   */\n      0x20\n        /* \"#utility.yul\":8586:8589   */\n      dup3\n        /* \"#utility.yul\":8582:8594   */\n      add\n        /* \"#utility.yul\":8575:8594   */\n      swap1\n      pop\n        /* \"#utility.yul\":8234:8600   */\n      swap2\n      swap1\n      pop\n      jump\t// out\n        /* \"#utility.yul\":8606:8972   */\n    tag_361:\n        /* \"#utility.yul\":8748:8751   */\n      0x00\n        /* \"#utility.yul\":8769:8836   */\n      tag_363\n        /* \"#utility.yul\":8833:8835   */\n      0x26\n        /* \"#utility.yul\":8828:8831   */\n      dup4\n        /* \"#utility.yul\":8769:8836   */\n      tag_346\n      jump\t// in\n    tag_363:\n        /* \"#utility.yul\":8762:8836   */\n      swap2\n      pop\n        /* \"#utility.yul\":8845:8938   */\n      tag_364\n        /* \"#utility.yul\":8934:8937   */\n      dup3\n        /* \"#utility.yul\":8845:8938   */\n      tag_365\n      jump\t// in\n    tag_364:\n        /* \"#utility.yul\":8963:8965   */\n      0x40\n        /* \"#utility.yul\":8958:8961   */\n      dup3\n        /* \"#utility.yul\":8954:8966   */\n      add\n        /* \"#utility.yul\":8947:8966   */\n      swap1\n      pop\n        /* \"#utility.yul\":8606:8972   */\n      swap2\n      swap1\n      pop\n      jump\t// out\n        /* \"#utility.yul\":8978:9344   */\n    tag_366:\n        /* \"#utility.yul\":9120:9123   */\n      0x00\n        /* \"#utility.yul\":9141:9208   */\n      tag_368\n        /* \"#utility.yul\":9205:9207   */\n      0x15\n        /* \"#utility.yul\":9200:9203   */\n      dup4\n        /* \"#utility.yul\":9141:9208   */\n      tag_346\n      jump\t// in\n    tag_368:\n        /* \"#utility.yul\":9134:9208   */\n      swap2\n      pop\n        /* \"#utility.yul\":9217:9310   */\n      tag_369\n        /* \"#utility.yul\":9306:9309   */\n      dup3\n        /* \"#utility.yul\":9217:9310   */\n      tag_370\n      jump\t// in\n    tag_369:\n        /* \"#utility.yul\":9335:9337   */\n      0x20\n        /* \"#utility.yul\":9330:9333   */\n      dup3\n        /* \"#utility.yul\":9326:9338   */\n      add\n        /* \"#utility.yul\":9319:9338   */\n      swap1\n      pop\n        /* \"#utility.yul\":8978:9344   */\n      swap2\n      swap1\n      pop\n      jump\t// out\n        /* \"#utility.yul\":9350:9716   */\n    tag_371:\n        /* \"#utility.yul\":9492:9495   */\n      0x00\n        /* \"#utility.yul\":9513:9580   */\n      tag_373\n        /* \"#utility.yul\":9577:9579   */\n      0x24\n        /* \"#utility.yul\":9572:9575   */\n      dup4\n        /* \"#utility.yul\":9513:9580   */\n      tag_346\n      jump\t// in\n    tag_373:\n        /* \"#utility.yul\":9506:9580   */\n      swap2\n      pop\n        /* \"#utility.yul\":9589:9682   */\n      tag_374\n        /* \"#utility.yul\":9678:9681   */\n      dup3\n        /* \"#utility.yul\":9589:9682   */\n      tag_375\n      jump\t// in\n    tag_374:\n        /* \"#utility.yul\":9707:9709   */\n      0x40\n        /* \"#utility.yul\":9702:9705   */\n      dup3\n        /* \"#utility.yul\":9698:9710   */\n      add\n        /* \"#utility.yul\":9691:9710   */\n      swap1\n      pop\n        /* \"#utility.yul\":9350:9716   */\n      swap2\n      swap1\n      pop\n      jump\t// out\n        /* \"#utility.yul\":9722:10088   */\n    tag_376:\n        /* \"#utility.yul\":9864:9867   */\n      0x00\n        /* \"#utility.yul\":9885:9952   */\n      tag_378\n        /* \"#utility.yul\":9949:9951   */\n      0x28\n        /* \"#utility.yul\":9944:9947   */\n      dup4\n        /* \"#utility.yul\":9885:9952   */\n      tag_346\n      jump\t// in\n    tag_378:\n        /* \"#utility.yul\":9878:9952   */\n      swap2\n      pop\n        /* \"#utility.yul\":9961:10054   */\n      tag_379\n        /* \"#utility.yul\":10050:10053   */\n      dup3\n        /* \"#utility.yul\":9961:10054   */\n      tag_380\n      jump\t// in\n    tag_379:\n        /* \"#utility.yul\":10079:10081   */\n      0x40\n        /* \"#utility.yul\":10074:10077   */\n      dup3\n        /* \"#utility.yul\":10070:10082   */\n      add\n        /* \"#utility.yul\":10063:10082   */\n      swap1\n      pop\n        /* \"#utility.yul\":9722:10088   */\n      swap2\n      swap1\n      pop\n      jump\t// out\n        /* \"#utility.yul\":10094:10460   */\n    tag_381:\n        /* \"#utility.yul\":10236:10239   */\n      0x00\n        /* \"#utility.yul\":10257:10324   */\n      tag_383\n        /* \"#utility.yul\":10321:10323   */\n      0x20\n        /* \"#utility.yul\":10316:10319   */\n      dup4\n        /* \"#utility.yul\":10257:10324   */\n      tag_346\n      jump\t// in\n    tag_383:\n        /* \"#utility.yul\":10250:10324   */\n      swap2\n      pop\n        /* \"#utility.yul\":10333:10426   */\n      tag_384\n        /* \"#utility.yul\":10422:10425   */\n      dup3\n        /* \"#utility.yul\":10333:10426   */\n      tag_385\n      jump\t// in\n    tag_384:\n        /* \"#utility.yul\":10451:10453   */\n      0x20\n        /* \"#utility.yul\":10446:10449   */\n      dup3\n        /* \"#utility.yul\":10442:10454   */\n      add\n        /* \"#utility.yul\":10435:10454   */\n      swap1\n      pop\n        /* \"#utility.yul\":10094:10460   */\n      swap2\n      swap1\n      pop\n      jump\t// out\n        /* \"#utility.yul\":10466:10832   */\n    tag_386:\n        /* \"#utility.yul\":10608:10611   */\n      0x00\n        /* \"#utility.yul\":10629:10696   */\n      tag_388\n        /* \"#utility.yul\":10693:10695   */\n      0x25\n        /* \"#utility.yul\":10688:10691   */\n      dup4\n        /* \"#utility.yul\":10629:10696   */\n      tag_346\n      jump\t// in\n    tag_388:\n        /* \"#utility.yul\":10622:10696   */\n      swap2\n      pop\n        /* \"#utility.yul\":10705:10798   */\n      tag_389\n        /* \"#utility.yul\":10794:10797   */\n      dup3\n        /* \"#utility.yul\":10705:10798   */\n      tag_390\n      jump\t// in\n    tag_389:\n        /* \"#utility.yul\":10823:10825   */\n      0x40\n        /* \"#utility.yul\":10818:10821   */\n      dup3\n        /* \"#utility.yul\":10814:10826   */\n      add\n        /* \"#utility.yul\":10807:10826   */\n      swap1\n      pop\n        /* \"#utility.yul\":10466:10832   */\n      swap2\n      swap1\n      pop\n      jump\t// out\n        /* \"#utility.yul\":10912:11567   */\n    tag_308:\n        /* \"#utility.yul\":11039:11043   */\n      0x60\n        /* \"#utility.yul\":11034:11037   */\n      dup3\n        /* \"#utility.yul\":11030:11044   */\n      add\n        /* \"#utility.yul\":11127:11131   */\n      0x00\n        /* \"#utility.yul\":11120:11125   */\n      dup3\n        /* \"#utility.yul\":11116:11132   */\n      add\n        /* \"#utility.yul\":11110:11133   */\n      mload\n        /* \"#utility.yul\":11146:11203   */\n      tag_392\n        /* \"#utility.yul\":11197:11201   */\n      0x00\n        /* \"#utility.yul\":11192:11195   */\n      dup6\n        /* \"#utility.yul\":11188:11202   */\n      add\n        /* \"#utility.yul\":11174:11186   */\n      dup3\n        /* \"#utility.yul\":11146:11203   */\n      tag_330\n      jump\t// in\n    tag_392:\n        /* \"#utility.yul\":11054:11213   */\n      pop\n        /* \"#utility.yul\":11295:11299   */\n      0x20\n        /* \"#utility.yul\":11288:11293   */\n      dup3\n        /* \"#utility.yul\":11284:11300   */\n      add\n        /* \"#utility.yul\":11278:11301   */\n      mload\n        /* \"#utility.yul\":11314:11371   */\n      tag_393\n        /* \"#utility.yul\":11365:11369   */\n      0x20\n        /* \"#utility.yul\":11360:11363   */\n      dup6\n        /* \"#utility.yul\":11356:11370   */\n      add\n        /* \"#utility.yul\":11342:11354   */\n      dup3\n        /* \"#utility.yul\":11314:11371   */\n      tag_330\n      jump\t// in\n    tag_393:\n        /* \"#utility.yul\":11223:11381   */\n      pop\n        /* \"#utility.yul\":11468:11472   */\n      0x40\n        /* \"#utility.yul\":11461:11466   */\n      dup3\n        /* \"#utility.yul\":11457:11473   */\n      add\n        /* \"#utility.yul\":11451:11474   */\n      mload\n        /* \"#utility.yul\":11487:11550   */\n      tag_394\n        /* \"#utility.yul\":11544:11548   */\n      0x40\n        /* \"#utility.yul\":11539:11542   */\n      dup6\n        /* \"#utility.yul\":11535:11549   */\n      add\n        /* \"#utility.yul\":11521:11533   */\n      dup3\n        /* \"#utility.yul\":11487:11550   */\n      tag_309\n      jump\t// in\n    tag_394:\n        /* \"#utility.yul\":11391:11560   */\n      pop\n        /* \"#utility.yul\":11008:11567   */\n      pop\n        /* \"#utility.yul\":10912:11567   */\n      pop\n      pop\n      jump\t// out\n        /* \"#utility.yul\":11573:11691   */\n    tag_395:\n        /* \"#utility.yul\":11660:11684   */\n      tag_397\n        /* \"#utility.yul\":11678:11683   */\n      dup2\n        /* \"#utility.yul\":11660:11684   */\n      tag_398\n      jump\t// in\n    tag_397:\n        /* \"#utility.yul\":11655:11658   */\n      dup3\n        /* \"#utility.yul\":11648:11685   */\n      mstore\n        /* \"#utility.yul\":11573:11691   */\n      pop\n      pop\n      jump\t// out\n        /* \"#utility.yul\":11697:11919   */\n    tag_75:\n        /* \"#utility.yul\":11790:11794   */\n      0x00\n        /* \"#utility.yul\":11828:11830   */\n      0x20\n        /* \"#utility.yul\":11817:11826   */\n      dup3\n        /* \"#utility.yul\":11813:11831   */\n      add\n        /* \"#utility.yul\":11805:11831   */\n      swap1\n      pop\n        /* \"#utility.yul\":11841:11912   */\n      tag_400\n        /* \"#utility.yul\":11909:11910   */\n      0x00\n        /* \"#utility.yul\":11898:11907   */\n      dup4\n        /* \"#utility.yul\":11894:11911   */\n      add\n        /* \"#utility.yul\":11885:11891   */\n      dup5\n        /* \"#utility.yul\":11841:11912   */\n      tag_313\n      jump\t// in\n    tag_400:\n        /* \"#utility.yul\":11697:11919   */\n      swap3\n      swap2\n      pop\n      pop\n      jump\t// out\n        /* \"#utility.yul\":11925:12135   */\n    tag_49:\n        /* \"#utility.yul\":12012:12016   */\n      0x00\n        /* \"#utility.yul\":12050:12052   */\n      0x20\n        /* \"#utility.yul\":12039:12048   */\n      dup3\n        /* \"#utility.yul\":12035:12053   */\n      add\n        /* \"#utility.yul\":12027:12053   */\n      swap1\n      pop\n        /* \"#utility.yul\":12063:12128   */\n      tag_402\n        /* \"#utility.yul\":12125:12126   */\n      0x00\n        /* \"#utility.yul\":12114:12123   */\n      dup4\n        /* \"#utility.yul\":12110:12127   */\n      add\n        /* \"#utility.yul\":12101:12107   */\n      dup5\n        /* \"#utility.yul\":12063:12128   */\n      tag_334\n      jump\t// in\n    tag_402:\n        /* \"#utility.yul\":11925:12135   */\n      swap3\n      swap2\n      pop\n      pop\n      jump\t// out\n        /* \"#utility.yul\":12141:12559   */\n    tag_55:\n        /* \"#utility.yul\":12278:12282   */\n      0x00\n        /* \"#utility.yul\":12316:12318   */\n      0x60\n        /* \"#utility.yul\":12305:12314   */\n      dup3\n        /* \"#utility.yul\":12301:12319   */\n      add\n        /* \"#utility.yul\":12293:12319   */\n      swap1\n      pop\n        /* \"#utility.yul\":12329:12394   */\n      tag_404\n        /* \"#utility.yul\":12391:12392   */\n      0x00\n        /* \"#utility.yul\":12380:12389   */\n      dup4\n        /* \"#utility.yul\":12376:12393   */\n      add\n        /* \"#utility.yul\":12367:12373   */\n      dup7\n        /* \"#utility.yul\":12329:12394   */\n      tag_334\n      jump\t// in\n    tag_404:\n        /* \"#utility.yul\":12404:12470   */\n      tag_405\n        /* \"#utility.yul\":12466:12468   */\n      0x20\n        /* \"#utility.yul\":12455:12464   */\n      dup4\n        /* \"#utility.yul\":12451:12469   */\n      add\n        /* \"#utility.yul\":12442:12448   */\n      dup6\n        /* \"#utility.yul\":12404:12470   */\n      tag_334\n      jump\t// in\n    tag_405:\n        /* \"#utility.yul\":12480:12552   */\n      tag_406\n        /* \"#utility.yul\":12548:12550   */\n      0x40\n        /* \"#utility.yul\":12537:12546   */\n      dup4\n        /* \"#utility.yul\":12533:12551   */\n      add\n        /* \"#utility.yul\":12524:12530   */\n      dup5\n        /* \"#utility.yul\":12480:12552   */\n      tag_313\n      jump\t// in\n    tag_406:\n        /* \"#utility.yul\":12141:12559   */\n      swap5\n      swap4\n      pop\n      pop\n      pop\n      pop\n      jump\t// out\n        /* \"#utility.yul\":12565:12971   */\n    tag_44:\n        /* \"#utility.yul\":12696:12700   */\n      0x00\n        /* \"#utility.yul\":12734:12736   */\n      0x60\n        /* \"#utility.yul\":12723:12732   */\n      dup3\n        /* \"#utility.yul\":12719:12737   */\n      add\n        /* \"#utility.yul\":12711:12737   */\n      swap1\n      pop\n        /* \"#utility.yul\":12747:12812   */\n      tag_408\n        /* \"#utility.yul\":12809:12810   */\n      0x00\n        /* \"#utility.yul\":12798:12807   */\n      dup4\n        /* \"#utility.yul\":12794:12811   */\n      add\n        /* \"#utility.yul\":12785:12791   */\n      dup7\n        /* \"#utility.yul\":12747:12812   */\n      tag_334\n      jump\t// in\n    tag_408:\n        /* \"#utility.yul\":12822:12888   */\n      tag_409\n        /* \"#utility.yul\":12884:12886   */\n      0x20\n        /* \"#utility.yul\":12873:12882   */\n      dup4\n        /* \"#utility.yul\":12869:12887   */\n      add\n        /* \"#utility.yul\":12860:12866   */\n      dup6\n        /* \"#utility.yul\":12822:12888   */\n      tag_334\n      jump\t// in\n    tag_409:\n        /* \"#utility.yul\":12898:12964   */\n      tag_410\n        /* \"#utility.yul\":12960:12962   */\n      0x40\n        /* \"#utility.yul\":12949:12958   */\n      dup4\n        /* \"#utility.yul\":12945:12963   */\n      add\n        /* \"#utility.yul\":12936:12942   */\n      dup5\n        /* \"#utility.yul\":12898:12964   */\n      tag_334\n      jump\t// in\n    tag_410:\n        /* \"#utility.yul\":12565:12971   */\n      swap5\n      swap4\n      pop\n      pop\n      pop\n      pop\n      jump\t// out\n        /* \"#utility.yul\":12977:13749   */\n    tag_38:\n        /* \"#utility.yul\":13238:13242   */\n      0x00\n        /* \"#utility.yul\":13276:13279   */\n      0x80\n        /* \"#utility.yul\":13265:13274   */\n      dup3\n        /* \"#utility.yul\":13261:13280   */\n      add\n        /* \"#utility.yul\":13253:13280   */\n      swap1\n      pop\n        /* \"#utility.yul\":13290:13355   */\n      tag_412\n        /* \"#utility.yul\":13352:13353   */\n      0x00\n        /* \"#utility.yul\":13341:13350   */\n      dup4\n        /* \"#utility.yul\":13337:13354   */\n      add\n        /* \"#utility.yul\":13328:13334   */\n      dup8\n        /* \"#utility.yul\":13290:13355   */\n      tag_334\n      jump\t// in\n    tag_412:\n        /* \"#utility.yul\":13365:13437   */\n      tag_413\n        /* \"#utility.yul\":13433:13435   */\n      0x20\n        /* \"#utility.yul\":13422:13431   */\n      dup4\n        /* \"#utility.yul\":13418:13436   */\n      add\n        /* \"#utility.yul\":13409:13415   */\n      dup7\n        /* \"#utility.yul\":13365:13437   */\n      tag_337\n      jump\t// in\n    tag_413:\n        /* \"#utility.yul\":13447:13519   */\n      tag_414\n        /* \"#utility.yul\":13515:13517   */\n      0x40\n        /* \"#utility.yul\":13504:13513   */\n      dup4\n        /* \"#utility.yul\":13500:13518   */\n      add\n        /* \"#utility.yul\":13491:13497   */\n      dup6\n        /* \"#utility.yul\":13447:13519   */\n      tag_395\n      jump\t// in\n    tag_414:\n        /* \"#utility.yul\":13566:13575   */\n      dup2\n        /* \"#utility.yul\":13560:13564   */\n      dup2\n        /* \"#utility.yul\":13556:13576   */\n      sub\n        /* \"#utility.yul\":13551:13553   */\n      0x60\n        /* \"#utility.yul\":13540:13549   */\n      dup4\n        /* \"#utility.yul\":13536:13554   */\n      add\n        /* \"#utility.yul\":13529:13577   */\n      mstore\n        /* \"#utility.yul\":13594:13742   */\n      tag_415\n        /* \"#utility.yul\":13737:13741   */\n      dup2\n        /* \"#utility.yul\":13728:13734   */\n      dup5\n        /* \"#utility.yul\":13594:13742   */\n      tag_316\n      jump\t// in\n    tag_415:\n        /* \"#utility.yul\":13586:13742   */\n      swap1\n      pop\n        /* \"#utility.yul\":12977:13749   */\n      swap6\n      swap5\n      pop\n      pop\n      pop\n      pop\n      pop\n      jump\t// out\n        /* \"#utility.yul\":13755:13977   */\n    tag_123:\n        /* \"#utility.yul\":13848:13852   */\n      0x00\n        /* \"#utility.yul\":13886:13888   */\n      0x20\n        /* \"#utility.yul\":13875:13884   */\n      dup3\n        /* \"#utility.yul\":13871:13889   */\n      add\n        /* \"#utility.yul\":13863:13889   */\n      swap1\n      pop\n        /* \"#utility.yul\":13899:13970   */\n      tag_417\n        /* \"#utility.yul\":13967:13968   */\n      0x00\n        /* \"#utility.yul\":13956:13965   */\n      dup4\n        /* \"#utility.yul\":13952:13969   */\n      add\n        /* \"#utility.yul\":13943:13949   */\n      dup5\n        /* \"#utility.yul\":13899:13970   */\n      tag_337\n      jump\t// in\n    tag_417:\n        /* \"#utility.yul\":13755:13977   */\n      swap3\n      swap2\n      pop\n      pop\n      jump\t// out\n        /* \"#utility.yul\":13983:14406   */\n    tag_92:\n        /* \"#utility.yul\":14124:14128   */\n      0x00\n        /* \"#utility.yul\":14162:14164   */\n      0x40\n        /* \"#utility.yul\":14151:14160   */\n      dup3\n        /* \"#utility.yul\":14147:14165   */\n      add\n        /* \"#utility.yul\":14139:14165   */\n      swap1\n      pop\n        /* \"#utility.yul\":14175:14246   */\n      tag_419\n        /* \"#utility.yul\":14243:14244   */\n      0x00\n        /* \"#utility.yul\":14232:14241   */\n      dup4\n        /* \"#utility.yul\":14228:14245   */\n      add\n        /* \"#utility.yul\":14219:14225   */\n      dup6\n        /* \"#utility.yul\":14175:14246   */\n      tag_337\n      jump\t// in\n    tag_419:\n        /* \"#utility.yul\":14293:14302   */\n      dup2\n        /* \"#utility.yul\":14287:14291   */\n      dup2\n        /* \"#utility.yul\":14283:14303   */\n      sub\n        /* \"#utility.yul\":14278:14280   */\n      0x20\n        /* \"#utility.yul\":14267:14276   */\n      dup4\n        /* \"#utility.yul\":14263:14281   */\n      add\n        /* \"#utility.yul\":14256:14304   */\n      mstore\n        /* \"#utility.yul\":14321:14399   */\n      tag_420\n        /* \"#utility.yul\":14394:14398   */\n      dup2\n        /* \"#utility.yul\":14385:14391   */\n      dup5\n        /* \"#utility.yul\":14321:14399   */\n      tag_341\n      jump\t// in\n    tag_420:\n        /* \"#utility.yul\":14313:14399   */\n      swap1\n      pop\n        /* \"#utility.yul\":13983:14406   */\n      swap4\n      swap3\n      pop\n      pop\n      pop\n      jump\t// out\n        /* \"#utility.yul\":14412:14725   */\n    tag_97:\n        /* \"#utility.yul\":14525:14529   */\n      0x00\n        /* \"#utility.yul\":14563:14565   */\n      0x20\n        /* \"#utility.yul\":14552:14561   */\n      dup3\n        /* \"#utility.yul\":14548:14566   */\n      add\n        /* \"#utility.yul\":14540:14566   */\n      swap1\n      pop\n        /* \"#utility.yul\":14612:14621   */\n      dup2\n        /* \"#utility.yul\":14606:14610   */\n      dup2\n        /* \"#utility.yul\":14602:14622   */\n      sub\n        /* \"#utility.yul\":14598:14599   */\n      0x00\n        /* \"#utility.yul\":14587:14596   */\n      dup4\n        /* \"#utility.yul\":14583:14600   */\n      add\n        /* \"#utility.yul\":14576:14623   */\n      mstore\n        /* \"#utility.yul\":14640:14718   */\n      tag_422\n        /* \"#utility.yul\":14713:14717   */\n      dup2\n        /* \"#utility.yul\":14704:14710   */\n      dup5\n        /* \"#utility.yul\":14640:14718   */\n      tag_341\n      jump\t// in\n    tag_422:\n        /* \"#utility.yul\":14632:14718   */\n      swap1\n      pop\n        /* \"#utility.yul\":14412:14725   */\n      swap3\n      swap2\n      pop\n      pop\n      jump\t// out\n        /* \"#utility.yul\":14731:15150   */\n    tag_214:\n        /* \"#utility.yul\":14897:14901   */\n      0x00\n        /* \"#utility.yul\":14935:14937   */\n      0x20\n        /* \"#utility.yul\":14924:14933   */\n      dup3\n        /* \"#utility.yul\":14920:14938   */\n      add\n        /* \"#utility.yul\":14912:14938   */\n      swap1\n      pop\n        /* \"#utility.yul\":14984:14993   */\n      dup2\n        /* \"#utility.yul\":14978:14982   */\n      dup2\n        /* \"#utility.yul\":14974:14994   */\n      sub\n        /* \"#utility.yul\":14970:14971   */\n      0x00\n        /* \"#utility.yul\":14959:14968   */\n      dup4\n        /* \"#utility.yul\":14955:14972   */\n      add\n        /* \"#utility.yul\":14948:14995   */\n      mstore\n        /* \"#utility.yul\":15012:15143   */\n      tag_424\n        /* \"#utility.yul\":15138:15142   */\n      dup2\n        /* \"#utility.yul\":15012:15143   */\n      tag_351\n      jump\t// in\n    tag_424:\n        /* \"#utility.yul\":15004:15143   */\n      swap1\n      pop\n        /* \"#utility.yul\":14731:15150   */\n      swap2\n      swap1\n      pop\n      jump\t// out\n        /* \"#utility.yul\":15156:15575   */\n    tag_201:\n        /* \"#utility.yul\":15322:15326   */\n      0x00\n        /* \"#utility.yul\":15360:15362   */\n      0x20\n        /* \"#utility.yul\":15349:15358   */\n      dup3\n        /* \"#utility.yul\":15345:15363   */\n      add\n        /* \"#utility.yul\":15337:15363   */\n      swap1\n      pop\n        /* \"#utility.yul\":15409:15418   */\n      dup2\n        /* \"#utility.yul\":15403:15407   */\n      dup2\n        /* \"#utility.yul\":15399:15419   */\n      sub\n        /* \"#utility.yul\":15395:15396   */\n      0x00\n        /* \"#utility.yul\":15384:15393   */\n      dup4\n        /* \"#utility.yul\":15380:15397   */\n      add\n        /* \"#utility.yul\":15373:15420   */\n      mstore\n        /* \"#utility.yul\":15437:15568   */\n      tag_426\n        /* \"#utility.yul\":15563:15567   */\n      dup2\n        /* \"#utility.yul\":15437:15568   */\n      tag_356\n      jump\t// in\n    tag_426:\n        /* \"#utility.yul\":15429:15568   */\n      swap1\n      pop\n        /* \"#utility.yul\":15156:15575   */\n      swap2\n      swap1\n      pop\n      jump\t// out\n        /* \"#utility.yul\":15581:16000   */\n    tag_151:\n        /* \"#utility.yul\":15747:15751   */\n      0x00\n        /* \"#utility.yul\":15785:15787   */\n      0x20\n        /* \"#utility.yul\":15774:15783   */\n      dup3\n        /* \"#utility.yul\":15770:15788   */\n      add\n        /* \"#utility.yul\":15762:15788   */\n      swap1\n      pop\n        /* \"#utility.yul\":15834:15843   */\n      dup2\n        /* \"#utility.yul\":15828:15832   */\n      dup2\n        /* \"#utility.yul\":15824:15844   */\n      sub\n        /* \"#utility.yul\":15820:15821   */\n      0x00\n        /* \"#utility.yul\":15809:15818   */\n      dup4\n        /* \"#utility.yul\":15805:15822   */\n      add\n        /* \"#utility.yul\":15798:15845   */\n      mstore\n        /* \"#utility.yul\":15862:15993   */\n      tag_428\n        /* \"#utility.yul\":15988:15992   */\n      dup2\n        /* \"#utility.yul\":15862:15993   */\n      tag_361\n      jump\t// in\n    tag_428:\n        /* \"#utility.yul\":15854:15993   */\n      swap1\n      pop\n        /* \"#utility.yul\":15581:16000   */\n      swap2\n      swap1\n      pop\n      jump\t// out\n        /* \"#utility.yul\":16006:16425   */\n    tag_211:\n        /* \"#utility.yul\":16172:16176   */\n      0x00\n        /* \"#utility.yul\":16210:16212   */\n      0x20\n        /* \"#utility.yul\":16199:16208   */\n      dup3\n        /* \"#utility.yul\":16195:16213   */\n      add\n        /* \"#utility.yul\":16187:16213   */\n      swap1\n      pop\n        /* \"#utility.yul\":16259:16268   */\n      dup2\n        /* \"#utility.yul\":16253:16257   */\n      dup2\n        /* \"#utility.yul\":16249:16269   */\n      sub\n        /* \"#utility.yul\":16245:16246   */\n      0x00\n        /* \"#utility.yul\":16234:16243   */\n      dup4\n        /* \"#utility.yul\":16230:16247   */\n      add\n        /* \"#utility.yul\":16223:16270   */\n      mstore\n        /* \"#utility.yul\":16287:16418   */\n      tag_430\n        /* \"#utility.yul\":16413:16417   */\n      dup2\n        /* \"#utility.yul\":16287:16418   */\n      tag_366\n      jump\t// in\n    tag_430:\n        /* \"#utility.yul\":16279:16418   */\n      swap1\n      pop\n        /* \"#utility.yul\":16006:16425   */\n      swap2\n      swap1\n      pop\n      jump\t// out\n        /* \"#utility.yul\":16431:16850   */\n    tag_217:\n        /* \"#utility.yul\":16597:16601   */\n      0x00\n        /* \"#utility.yul\":16635:16637   */\n      0x20\n        /* \"#utility.yul\":16624:16633   */\n      dup3\n        /* \"#utility.yul\":16620:16638   */\n      add\n        /* \"#utility.yul\":16612:16638   */\n      swap1\n      pop\n        /* \"#utility.yul\":16684:16693   */\n      dup2\n        /* \"#utility.yul\":16678:16682   */\n      dup2\n        /* \"#utility.yul\":16674:16694   */\n      sub\n        /* \"#utility.yul\":16670:16671   */\n      0x00\n        /* \"#utility.yul\":16659:16668   */\n      dup4\n        /* \"#utility.yul\":16655:16672   */\n      add\n        /* \"#utility.yul\":16648:16695   */\n      mstore\n        /* \"#utility.yul\":16712:16843   */\n      tag_432\n        /* \"#utility.yul\":16838:16842   */\n      dup2\n        /* \"#utility.yul\":16712:16843   */\n      tag_371\n      jump\t// in\n    tag_432:\n        /* \"#utility.yul\":16704:16843   */\n      swap1\n      pop\n        /* \"#utility.yul\":16431:16850   */\n      swap2\n      swap1\n      pop\n      jump\t// out\n        /* \"#utility.yul\":16856:17275   */\n    tag_208:\n        /* \"#utility.yul\":17022:17026   */\n      0x00\n        /* \"#utility.yul\":17060:17062   */\n      0x20\n        /* \"#utility.yul\":17049:17058   */\n      dup3\n        /* \"#utility.yul\":17045:17063   */\n      add\n        /* \"#utility.yul\":17037:17063   */\n      swap1\n      pop\n        /* \"#utility.yul\":17109:17118   */\n      dup2\n        /* \"#utility.yul\":17103:17107   */\n      dup2\n        /* \"#utility.yul\":17099:17119   */\n      sub\n        /* \"#utility.yul\":17095:17096   */\n      0x00\n        /* \"#utility.yul\":17084:17093   */\n      dup4\n        /* \"#utility.yul\":17080:17097   */\n      add\n        /* \"#utility.yul\":17073:17120   */\n      mstore\n        /* \"#utility.yul\":17137:17268   */\n      tag_434\n        /* \"#utility.yul\":17263:17267   */\n      dup2\n        /* \"#utility.yul\":17137:17268   */\n      tag_376\n      jump\t// in\n    tag_434:\n        /* \"#utility.yul\":17129:17268   */\n      swap1\n      pop\n        /* \"#utility.yul\":16856:17275   */\n      swap2\n      swap1\n      pop\n      jump\t// out\n        /* \"#utility.yul\":17281:17700   */\n    tag_131:\n        /* \"#utility.yul\":17447:17451   */\n      0x00\n        /* \"#utility.yul\":17485:17487   */\n      0x20\n        /* \"#utility.yul\":17474:17483   */\n      dup3\n        /* \"#utility.yul\":17470:17488   */\n      add\n        /* \"#utility.yul\":17462:17488   */\n      swap1\n      pop\n        /* \"#utility.yul\":17534:17543   */\n      dup2\n        /* \"#utility.yul\":17528:17532   */\n      dup2\n        /* \"#utility.yul\":17524:17544   */\n      sub\n        /* \"#utility.yul\":17520:17521   */\n      0x00\n        /* \"#utility.yul\":17509:17518   */\n      dup4\n        /* \"#utility.yul\":17505:17522   */\n      add\n        /* \"#utility.yul\":17498:17545   */\n      mstore\n        /* \"#utility.yul\":17562:17693   */\n      tag_436\n        /* \"#utility.yul\":17688:17692   */\n      dup2\n        /* \"#utility.yul\":17562:17693   */\n      tag_381\n      jump\t// in\n    tag_436:\n        /* \"#utility.yul\":17554:17693   */\n      swap1\n      pop\n        /* \"#utility.yul\":17281:17700   */\n      swap2\n      swap1\n      pop\n      jump\t// out\n        /* \"#utility.yul\":17706:18125   */\n    tag_147:\n        /* \"#utility.yul\":17872:17876   */\n      0x00\n        /* \"#utility.yul\":17910:17912   */\n      0x20\n        /* \"#utility.yul\":17899:17908   */\n      dup3\n        /* \"#utility.yul\":17895:17913   */\n      add\n        /* \"#utility.yul\":17887:17913   */\n      swap1\n      pop\n        /* \"#utility.yul\":17959:17968   */\n      dup2\n        /* \"#utility.yul\":17953:17957   */\n      dup2\n        /* \"#utility.yul\":17949:17969   */\n      sub\n        /* \"#utility.yul\":17945:17946   */\n      0x00\n        /* \"#utility.yul\":17934:17943   */\n      dup4\n        /* \"#utility.yul\":17930:17947   */\n      add\n        /* \"#utility.yul\":17923:17970   */\n      mstore\n        /* \"#utility.yul\":17987:18118   */\n      tag_438\n        /* \"#utility.yul\":18113:18117   */\n      dup2\n        /* \"#utility.yul\":17987:18118   */\n      tag_386\n      jump\t// in\n    tag_438:\n        /* \"#utility.yul\":17979:18118   */\n      swap1\n      pop\n        /* \"#utility.yul\":17706:18125   */\n      swap2\n      swap1\n      pop\n      jump\t// out\n        /* \"#utility.yul\":18131:18353   */\n    tag_33:\n        /* \"#utility.yul\":18224:18228   */\n      0x00\n        /* \"#utility.yul\":18262:18264   */\n      0x20\n        /* \"#utility.yul\":18251:18260   */\n      dup3\n        /* \"#utility.yul\":18247:18265   */\n      add\n        /* \"#utility.yul\":18239:18265   */\n      swap1\n      pop\n        /* \"#utility.yul\":18275:18346   */\n      tag_440\n        /* \"#utility.yul\":18343:18344   */\n      0x00\n        /* \"#utility.yul\":18332:18341   */\n      dup4\n        /* \"#utility.yul\":18328:18345   */\n      add\n        /* \"#utility.yul\":18319:18325   */\n      dup5\n        /* \"#utility.yul\":18275:18346   */\n      tag_395\n      jump\t// in\n    tag_440:\n        /* \"#utility.yul\":18131:18353   */\n      swap3\n      swap2\n      pop\n      pop\n      jump\t// out\n        /* \"#utility.yul\":18359:18488   */\n    tag_235:\n        /* \"#utility.yul\":18393:18399   */\n      0x00\n        /* \"#utility.yul\":18420:18440   */\n      tag_442\n      tag_443\n      jump\t// in\n    tag_442:\n        /* \"#utility.yul\":18410:18440   */\n      swap1\n      pop\n        /* \"#utility.yul\":18449:18482   */\n      tag_444\n        /* \"#utility.yul\":18477:18481   */\n      dup3\n        /* \"#utility.yul\":18469:18475   */\n      dup3\n        /* \"#utility.yul\":18449:18482   */\n      tag_445\n      jump\t// in\n    tag_444:\n        /* \"#utility.yul\":18359:18488   */\n      swap2\n      swap1\n      pop\n      jump\t// out\n        /* \"#utility.yul\":18494:18569   */\n    tag_443:\n        /* \"#utility.yul\":18527:18533   */\n      0x00\n        /* \"#utility.yul\":18560:18562   */\n      0x40\n        /* \"#utility.yul\":18554:18563   */\n      mload\n        /* \"#utility.yul\":18544:18563   */\n      swap1\n      pop\n        /* \"#utility.yul\":18494:18569   */\n      swap1\n      jump\t// out\n        /* \"#utility.yul\":18575:18883   */\n    tag_234:\n        /* \"#utility.yul\":18637:18641   */\n      0x00\n        /* \"#utility.yul\":18727:18745   */\n      0xffffffffffffffff\n        /* \"#utility.yul\":18719:18725   */\n      dup3\n        /* \"#utility.yul\":18716:18746   */\n      gt\n        /* \"#utility.yul\":18713:18769   */\n      iszero\n      tag_448\n      jumpi\n        /* \"#utility.yul\":18749:18767   */\n      tag_449\n      tag_450\n      jump\t// in\n    tag_449:\n        /* \"#utility.yul\":18713:18769   */\n    tag_448:\n        /* \"#utility.yul\":18787:18816   */\n      tag_451\n        /* \"#utility.yul\":18809:18815   */\n      dup3\n        /* \"#utility.yul\":18787:18816   */\n      tag_350\n      jump\t// in\n    tag_451:\n        /* \"#utility.yul\":18779:18816   */\n      swap1\n      pop\n        /* \"#utility.yul\":18871:18875   */\n      0x20\n        /* \"#utility.yul\":18865:18869   */\n      dup2\n        /* \"#utility.yul\":18861:18876   */\n      add\n        /* \"#utility.yul\":18853:18876   */\n      swap1\n      pop\n        /* \"#utility.yul\":18575:18883   */\n      swap2\n      swap1\n      pop\n      jump\t// out\n        /* \"#utility.yul\":18889:19041   */\n    tag_323:\n        /* \"#utility.yul\":18976:18980   */\n      0x00\n        /* \"#utility.yul\":18999:19002   */\n      dup2\n        /* \"#utility.yul\":18991:19002   */\n      swap1\n      pop\n        /* \"#utility.yul\":19029:19033   */\n      0x20\n        /* \"#utility.yul\":19024:19027   */\n      dup3\n        /* \"#utility.yul\":19020:19034   */\n      add\n        /* \"#utility.yul\":19012:19034   */\n      swap1\n      pop\n        /* \"#utility.yul\":18889:19041   */\n      swap2\n      swap1\n      pop\n      jump\t// out\n        /* \"#utility.yul\":19047:19181   */\n    tag_319:\n        /* \"#utility.yul\":19134:19140   */\n      0x00\n        /* \"#utility.yul\":19168:19173   */\n      dup2\n        /* \"#utility.yul\":19162:19174   */\n      mload\n        /* \"#utility.yul\":19152:19174   */\n      swap1\n      pop\n        /* \"#utility.yul\":19047:19181   */\n      swap2\n      swap1\n      pop\n      jump\t// out\n        /* \"#utility.yul\":19187:19286   */\n    tag_344:\n        /* \"#utility.yul\":19239:19245   */\n      0x00\n        /* \"#utility.yul\":19273:19278   */\n      dup2\n        /* \"#utility.yul\":19267:19279   */\n      mload\n        /* \"#utility.yul\":19257:19279   */\n      swap1\n      pop\n        /* \"#utility.yul\":19187:19286   */\n      swap2\n      swap1\n      pop\n      jump\t// out\n        /* \"#utility.yul\":19292:19425   */\n    tag_329:\n        /* \"#utility.yul\":19382:19386   */\n      0x00\n        /* \"#utility.yul\":19414:19418   */\n      0x20\n        /* \"#utility.yul\":19409:19412   */\n      dup3\n        /* \"#utility.yul\":19405:19419   */\n      add\n        /* \"#utility.yul\":19397:19419   */\n      swap1\n      pop\n        /* \"#utility.yul\":19292:19425   */\n      swap2\n      swap1\n      pop\n      jump\t// out\n        /* \"#utility.yul\":19431:19635   */\n    tag_321:\n        /* \"#utility.yul\":19550:19561   */\n      0x00\n        /* \"#utility.yul\":19584:19590   */\n      dup3\n        /* \"#utility.yul\":19579:19582   */\n      dup3\n        /* \"#utility.yul\":19572:19591   */\n      mstore\n        /* \"#utility.yul\":19624:19628   */\n      0x20\n        /* \"#utility.yul\":19619:19622   */\n      dup3\n        /* \"#utility.yul\":19615:19629   */\n      add\n        /* \"#utility.yul\":19600:19629   */\n      swap1\n      pop\n        /* \"#utility.yul\":19431:19635   */\n      swap3\n      swap2\n      pop\n      pop\n      jump\t// out\n        /* \"#utility.yul\":19641:19810   */\n    tag_346:\n        /* \"#utility.yul\":19725:19736   */\n      0x00\n        /* \"#utility.yul\":19759:19765   */\n      dup3\n        /* \"#utility.yul\":19754:19757   */\n      dup3\n        /* \"#utility.yul\":19747:19766   */\n      mstore\n        /* \"#utility.yul\":19799:19803   */\n      0x20\n        /* \"#utility.yul\":19794:19797   */\n      dup3\n        /* \"#utility.yul\":19790:19804   */\n      add\n        /* \"#utility.yul\":19775:19804   */\n      swap1\n      pop\n        /* \"#utility.yul\":19641:19810   */\n      swap3\n      swap2\n      pop\n      pop\n      jump\t// out\n        /* \"#utility.yul\":19816:20121   */\n    tag_176:\n        /* \"#utility.yul\":19856:19859   */\n      0x00\n        /* \"#utility.yul\":19875:19895   */\n      tag_459\n        /* \"#utility.yul\":19893:19894   */\n      dup3\n        /* \"#utility.yul\":19875:19895   */\n      tag_398\n      jump\t// in\n    tag_459:\n        /* \"#utility.yul\":19870:19895   */\n      swap2\n      pop\n        /* \"#utility.yul\":19909:19929   */\n      tag_460\n        /* \"#utility.yul\":19927:19928   */\n      dup4\n        /* \"#utility.yul\":19909:19929   */\n      tag_398\n      jump\t// in\n    tag_460:\n        /* \"#utility.yul\":19904:19929   */\n      swap3\n      pop\n        /* \"#utility.yul\":20063:20064   */\n      dup3\n        /* \"#utility.yul\":19995:20061   */\n      0xffffffffffffffffffffffffffffffffffffffffffffffffffffffffffffffff\n        /* \"#utility.yul\":19991:20065   */\n      sub\n        /* \"#utility.yul\":19988:19989   */\n      dup3\n        /* \"#utility.yul\":19985:20066   */\n      gt\n        /* \"#utility.yul\":19982:20089   */\n      iszero\n      tag_461\n      jumpi\n        /* \"#utility.yul\":20069:20087   */\n      tag_462\n      tag_463\n      jump\t// in\n    tag_462:\n        /* \"#utility.yul\":19982:20089   */\n    tag_461:\n        /* \"#utility.yul\":20113:20114   */\n      dup3\n        /* \"#utility.yul\":20110:20111   */\n      dup3\n        /* \"#utility.yul\":20106:20115   */\n      add\n        /* \"#utility.yul\":20099:20115   */\n      swap1\n      pop\n        /* \"#utility.yul\":19816:20121   */\n      swap3\n      swap2\n      pop\n      pop\n      jump\t// out\n        /* \"#utility.yul\":20127:20312   */\n    tag_153:\n        /* \"#utility.yul\":20167:20168   */\n      0x00\n        /* \"#utility.yul\":20184:20204   */\n      tag_465\n        /* \"#utility.yul\":20202:20203   */\n      dup3\n        /* \"#utility.yul\":20184:20204   */\n      tag_398\n      jump\t// in\n    tag_465:\n        /* \"#utility.yul\":20179:20204   */\n      swap2\n      pop\n        /* \"#utility.yul\":20218:20238   */\n      tag_466\n        /* \"#utility.yul\":20236:20237   */\n      dup4\n        /* \"#utility.yul\":20218:20238   */\n      tag_398\n      jump\t// in\n    tag_466:\n        /* \"#utility.yul\":20213:20238   */\n      swap3\n      pop\n        /* \"#utility.yul\":20257:20258   */\n      dup3\n        /* \"#utility.yul\":20247:20282   */\n      tag_467\n      jumpi\n        /* \"#utility.yul\":20262:20280   */\n      tag_468\n      tag_469\n      jump\t// in\n    tag_468:\n        /* \"#utility.yul\":20247:20282   */\n    tag_467:\n        /* \"#utility.yul\":20304:20305   */\n      dup3\n        /* \"#utility.yul\":20301:20302   */\n      dup3\n        /* \"#utility.yul\":20297:20306   */\n      div\n        /* \"#utility.yul\":20292:20306   */\n      swap1\n      pop\n        /* \"#utility.yul\":20127:20312   */\n      swap3\n      swap2\n      pop\n      pop\n      jump\t// out\n        /* \"#utility.yul\":20318:20666   */\n    tag_155:\n        /* \"#utility.yul\":20358:20365   */\n      0x00\n        /* \"#utility.yul\":20381:20401   */\n      tag_471\n        /* \"#utility.yul\":20399:20400   */\n      dup3\n        /* \"#utility.yul\":20381:20401   */\n      tag_398\n      jump\t// in\n    tag_471:\n        /* \"#utility.yul\":20376:20401   */\n      swap2\n      pop\n        /* \"#utility.yul\":20415:20435   */\n      tag_472\n        /* \"#utility.yul\":20433:20434   */\n      dup4\n        /* \"#utility.yul\":20415:20435   */\n      tag_398\n      jump\t// in\n    tag_472:\n        /* \"#utility.yul\":20410:20435   */\n      swap3\n      pop\n        /* \"#utility.yul\":20603:20604   */\n      dup2\n        /* \"#utility.yul\":20535:20601   */\n      0xffffffffffffffffffffffffffffffffffffffffffffffffffffffffffffffff\n        /* \"#utility.yul\":20531:20605   */\n      div\n        /* \"#utility.yul\":20528:20529   */\n      dup4\n        /* \"#utility.yul\":20525:20606   */\n      gt\n        /* \"#utility.yul\":20520:20521   */\n      dup3\n        /* \"#utility.yul\":20513:20522   */\n      iszero\n        /* \"#utility.yul\":20506:20523   */\n      iszero\n        /* \"#utility.yul\":20502:20607   */\n      and\n        /* \"#utility.yul\":20499:20630   */\n      iszero\n      tag_473\n      jumpi\n        /* \"#utility.yul\":20610:20628   */\n      tag_474\n      tag_463\n      jump\t// in\n    tag_474:\n        /* \"#utility.yul\":20499:20630   */\n    tag_473:\n        /* \"#utility.yul\":20658:20659   */\n      dup3\n        /* \"#utility.yul\":20655:20656   */\n      dup3\n        /* \"#utility.yul\":20651:20660   */\n      mul\n        /* \"#utility.yul\":20640:20660   */\n      swap1\n      pop\n        /* \"#utility.yul\":20318:20666   */\n      swap3\n      swap2\n      pop\n      pop\n      jump\t// out\n        /* \"#utility.yul\":20672:20768   */\n    tag_312:\n        /* \"#utility.yul\":20709:20716   */\n      0x00\n        /* \"#utility.yul\":20738:20762   */\n      tag_476\n        /* \"#utility.yul\":20756:20761   */\n      dup3\n        /* \"#utility.yul\":20738:20762   */\n      tag_477\n      jump\t// in\n    tag_476:\n        /* \"#utility.yul\":20727:20762   */\n      swap1\n      pop\n        /* \"#utility.yul\":20672:20768   */\n      swap2\n      swap1\n      pop\n      jump\t// out\n        /* \"#utility.yul\":20774:20864   */\n    tag_333:\n        /* \"#utility.yul\":20808:20815   */\n      0x00\n        /* \"#utility.yul\":20851:20856   */\n      dup2\n        /* \"#utility.yul\":20844:20857   */\n      iszero\n        /* \"#utility.yul\":20837:20858   */\n      iszero\n        /* \"#utility.yul\":20826:20858   */\n      swap1\n      pop\n        /* \"#utility.yul\":20774:20864   */\n      swap2\n      swap1\n      pop\n      jump\t// out\n        /* \"#utility.yul\":20870:20947   */\n    tag_340:\n        /* \"#utility.yul\":20907:20914   */\n      0x00\n        /* \"#utility.yul\":20936:20941   */\n      dup2\n        /* \"#utility.yul\":20925:20941   */\n      swap1\n      pop\n        /* \"#utility.yul\":20870:20947   */\n      swap2\n      swap1\n      pop\n      jump\t// out\n        /* \"#utility.yul\":20953:21079   */\n    tag_477:\n        /* \"#utility.yul\":20990:20997   */\n      0x00\n        /* \"#utility.yul\":21030:21072   */\n      0xffffffffffffffffffffffffffffffffffffffff\n        /* \"#utility.yul\":21023:21028   */\n      dup3\n        /* \"#utility.yul\":21019:21073   */\n      and\n        /* \"#utility.yul\":21008:21073   */\n      swap1\n      pop\n        /* \"#utility.yul\":20953:21079   */\n      swap2\n      swap1\n      pop\n      jump\t// out\n        /* \"#utility.yul\":21085:21162   */\n    tag_398:\n        /* \"#utility.yul\":21122:21129   */\n      0x00\n        /* \"#utility.yul\":21151:21156   */\n      dup2\n        /* \"#utility.yul\":21140:21156   */\n      swap1\n      pop\n        /* \"#utility.yul\":21085:21162   */\n      swap2\n      swap1\n      pop\n      jump\t// out\n        /* \"#utility.yul\":21168:21254   */\n    tag_482:\n        /* \"#utility.yul\":21203:21210   */\n      0x00\n        /* \"#utility.yul\":21243:21247   */\n      0xff\n        /* \"#utility.yul\":21236:21241   */\n      dup3\n        /* \"#utility.yul\":21232:21248   */\n      and\n        /* \"#utility.yul\":21221:21248   */\n      swap1\n      pop\n        /* \"#utility.yul\":21168:21254   */\n      swap2\n      swap1\n      pop\n      jump\t// out\n        /* \"#utility.yul\":21260:21414   */\n    tag_240:\n        /* \"#utility.yul\":21344:21350   */\n      dup3\n        /* \"#utility.yul\":21339:21342   */\n      dup2\n        /* \"#utility.yul\":21334:21337   */\n      dup4\n        /* \"#utility.yul\":21321:21351   */\n      calldatacopy\n        /* \"#utility.yul\":21406:21407   */\n      0x00\n        /* \"#utility.yul\":21397:21403   */\n      dup4\n        /* \"#utility.yul\":21392:21395   */\n      dup4\n        /* \"#utility.yul\":21388:21404   */\n      add\n        /* \"#utility.yul\":21381:21408   */\n      mstore\n        /* \"#utility.yul\":21260:21414   */\n      pop\n      pop\n      pop\n      jump\t// out\n        /* \"#utility.yul\":21420:21727   */\n    tag_348:\n        /* \"#utility.yul\":21488:21489   */\n      0x00\n        /* \"#utility.yul\":21498:21611   */\n    tag_486:\n        /* \"#utility.yul\":21512:21518   */\n      dup4\n        /* \"#utility.yul\":21509:21510   */\n      dup2\n        /* \"#utility.yul\":21506:21519   */\n      lt\n        /* \"#utility.yul\":21498:21611   */\n      iszero\n      tag_488\n      jumpi\n        /* \"#utility.yul\":21597:21598   */\n      dup1\n        /* \"#utility.yul\":21592:21595   */\n      dup3\n        /* \"#utility.yul\":21588:21599   */\n      add\n        /* \"#utility.yul\":21582:21600   */\n      mload\n        /* \"#utility.yul\":21578:21579   */\n      dup2\n        /* \"#utility.yul\":21573:21576   */\n      dup5\n        /* \"#utility.yul\":21569:21580   */\n      add\n        /* \"#utility.yul\":21562:21601   */\n      mstore\n        /* \"#utility.yul\":21534:21536   */\n      0x20\n        /* \"#utility.yul\":21531:21532   */\n      dup2\n        /* \"#utility.yul\":21527:21537   */\n      add\n        /* \"#utility.yul\":21522:21537   */\n      swap1\n      pop\n        /* \"#utility.yul\":21498:21611   */\n      jump(tag_486)\n    tag_488:\n        /* \"#utility.yul\":21629:21635   */\n      dup4\n        /* \"#utility.yul\":21626:21627   */\n      dup2\n        /* \"#utility.yul\":21623:21636   */\n      gt\n        /* \"#utility.yul\":21620:21721   */\n      iszero\n      tag_489\n      jumpi\n        /* \"#utility.yul\":21709:21710   */\n      0x00\n        /* \"#utility.yul\":21700:21706   */\n      dup5\n        /* \"#utility.yul\":21695:21698   */\n      dup5\n        /* \"#utility.yul\":21691:21707   */\n      add\n        /* \"#utility.yul\":21684:21711   */\n      mstore\n        /* \"#utility.yul\":21620:21721   */\n    tag_489:\n        /* \"#utility.yul\":21469:21727   */\n      pop\n        /* \"#utility.yul\":21420:21727   */\n      pop\n      pop\n      pop\n      jump\t// out\n        /* \"#utility.yul\":21733:22053   */\n    tag_188:\n        /* \"#utility.yul\":21777:21783   */\n      0x00\n        /* \"#utility.yul\":21814:21815   */\n      0x02\n        /* \"#utility.yul\":21808:21812   */\n      dup3\n        /* \"#utility.yul\":21804:21816   */\n      div\n        /* \"#utility.yul\":21794:21816   */\n      swap1\n      pop\n        /* \"#utility.yul\":21861:21862   */\n      0x01\n        /* \"#utility.yul\":21855:21859   */\n      dup3\n        /* \"#utility.yul\":21851:21863   */\n      and\n        /* \"#utility.yul\":21882:21900   */\n      dup1\n        /* \"#utility.yul\":21872:21953   */\n      tag_491\n      jumpi\n        /* \"#utility.yul\":21938:21942   */\n      0x7f\n        /* \"#utility.yul\":21930:21936   */\n      dup3\n        /* \"#utility.yul\":21926:21943   */\n      and\n        /* \"#utility.yul\":21916:21943   */\n      swap2\n      pop\n        /* \"#utility.yul\":21872:21953   */\n    tag_491:\n        /* \"#utility.yul\":22000:22002   */\n      0x20\n        /* \"#utility.yul\":21992:21998   */\n      dup3\n        /* \"#utility.yul\":21989:22003   */\n      lt\n        /* \"#utility.yul\":21969:21987   */\n      dup2\n        /* \"#utility.yul\":21966:22004   */\n      eq\n        /* \"#utility.yul\":21963:22047   */\n      iszero\n      tag_492\n      jumpi\n        /* \"#utility.yul\":22019:22037   */\n      tag_493\n      tag_494\n      jump\t// in\n    tag_493:\n        /* \"#utility.yul\":21963:22047   */\n    tag_492:\n        /* \"#utility.yul\":21784:22053   */\n      pop\n        /* \"#utility.yul\":21733:22053   */\n      swap2\n      swap1\n      pop\n      jump\t// out\n        /* \"#utility.yul\":22059:22340   */\n    tag_445:\n        /* \"#utility.yul\":22142:22169   */\n      tag_496\n        /* \"#utility.yul\":22164:22168   */\n      dup3\n        /* \"#utility.yul\":22142:22169   */\n      tag_350\n      jump\t// in\n    tag_496:\n        /* \"#utility.yul\":22134:22140   */\n      dup2\n        /* \"#utility.yul\":22130:22170   */\n      add\n        /* \"#utility.yul\":22272:22278   */\n      dup2\n        /* \"#utility.yul\":22260:22270   */\n      dup2\n        /* \"#utility.yul\":22257:22279   */\n      lt\n        /* \"#utility.yul\":22236:22254   */\n      0xffffffffffffffff\n        /* \"#utility.yul\":22224:22234   */\n      dup3\n        /* \"#utility.yul\":22221:22255   */\n      gt\n        /* \"#utility.yul\":22218:22280   */\n      or\n        /* \"#utility.yul\":22215:22303   */\n      iszero\n      tag_497\n      jumpi\n        /* \"#utility.yul\":22283:22301   */\n      tag_498\n      tag_450\n      jump\t// in\n    tag_498:\n        /* \"#utility.yul\":22215:22303   */\n    tag_497:\n        /* \"#utility.yul\":22323:22333   */\n      dup1\n        /* \"#utility.yul\":22319:22321   */\n      0x40\n        /* \"#utility.yul\":22312:22334   */\n      mstore\n        /* \"#utility.yul\":22102:22340   */\n      pop\n        /* \"#utility.yul\":22059:22340   */\n      pop\n      pop\n      jump\t// out\n        /* \"#utility.yul\":22346:22513   */\n    tag_170:\n        /* \"#utility.yul\":22383:22386   */\n      0x00\n        /* \"#utility.yul\":22406:22428   */\n      tag_500\n        /* \"#utility.yul\":22422:22427   */\n      dup3\n        /* \"#utility.yul\":22406:22428   */\n      tag_482\n      jump\t// in\n    tag_500:\n        /* \"#utility.yul\":22397:22428   */\n      swap2\n      pop\n        /* \"#utility.yul\":22450:22454   */\n      0xff\n        /* \"#utility.yul\":22443:22448   */\n      dup3\n        /* \"#utility.yul\":22440:22455   */\n      eq\n        /* \"#utility.yul\":22437:22478   */\n      iszero\n      tag_501\n      jumpi\n        /* \"#utility.yul\":22458:22476   */\n      tag_502\n      tag_463\n      jump\t// in\n    tag_502:\n        /* \"#utility.yul\":22437:22478   */\n    tag_501:\n        /* \"#utility.yul\":22505:22506   */\n      0x01\n        /* \"#utility.yul\":22498:22503   */\n      dup3\n        /* \"#utility.yul\":22494:22507   */\n      add\n        /* \"#utility.yul\":22487:22507   */\n      swap1\n      pop\n        /* \"#utility.yul\":22346:22513   */\n      swap2\n      swap1\n      pop\n      jump\t// out\n        /* \"#utility.yul\":22519:22699   */\n    tag_463:\n        /* \"#utility.yul\":22567:22644   */\n      0x4e487b7100000000000000000000000000000000000000000000000000000000\n        /* \"#utility.yul\":22564:22565   */\n      0x00\n        /* \"#utility.yul\":22557:22645   */\n      mstore\n        /* \"#utility.yul\":22664:22668   */\n      0x11\n        /* \"#utility.yul\":22661:22662   */\n      0x04\n        /* \"#utility.yul\":22654:22669   */\n      mstore\n        /* \"#utility.yul\":22688:22692   */\n      0x24\n        /* \"#utility.yul\":22685:22686   */\n      0x00\n        /* \"#utility.yul\":22678:22693   */\n      revert\n        /* \"#utility.yul\":22705:22885   */\n    tag_469:\n        /* \"#utility.yul\":22753:22830   */\n      0x4e487b7100000000000000000000000000000000000000000000000000000000\n        /* \"#utility.yul\":22750:22751   */\n      0x00\n        /* \"#utility.yul\":22743:22831   */\n      mstore\n        /* \"#utility.yul\":22850:22854   */\n      0x12\n        /* \"#utility.yul\":22847:22848   */\n      0x04\n        /* \"#utility.yul\":22840:22855   */\n      mstore\n        /* \"#utility.yul\":22874:22878   */\n      0x24\n        /* \"#utility.yul\":22871:22872   */\n      0x00\n        /* \"#utility.yul\":22864:22879   */\n      revert\n        /* \"#utility.yul\":22891:23071   */\n    tag_494:\n        /* \"#utility.yul\":22939:23016   */\n      0x4e487b7100000000000000000000000000000000000000000000000000000000\n        /* \"#utility.yul\":22936:22937   */\n      0x00\n        /* \"#utility.yul\":22929:23017   */\n      mstore\n        /* \"#utility.yul\":23036:23040   */\n      0x22\n        /* \"#utility.yul\":23033:23034   */\n      0x04\n        /* \"#utility.yul\":23026:23041   */\n      mstore\n        /* \"#utility.yul\":23060:23064   */\n      0x24\n        /* \"#utility.yul\":23057:23058   */\n      0x00\n        /* \"#utility.yul\":23050:23065   */\n      revert\n        /* \"#utility.yul\":23077:23257   */\n    tag_162:\n        /* \"#utility.yul\":23125:23202   */\n      0x4e487b7100000000000000000000000000000000000000000000000000000000\n        /* \"#utility.yul\":23122:23123   */\n      0x00\n        /* \"#utility.yul\":23115:23203   */\n      mstore\n        /* \"#utility.yul\":23222:23226   */\n      0x32\n        /* \"#utility.yul\":23219:23220   */\n      0x04\n        /* \"#utility.yul\":23212:23227   */\n      mstore\n        /* \"#utility.yul\":23246:23250   */\n      0x24\n        /* \"#utility.yul\":23243:23244   */\n      0x00\n        /* \"#utility.yul\":23236:23251   */\n      revert\n        /* \"#utility.yul\":23263:23443   */\n    tag_450:\n        /* \"#utility.yul\":23311:23388   */\n      0x4e487b7100000000000000000000000000000000000000000000000000000000\n        /* \"#utility.yul\":23308:23309   */\n      0x00\n        /* \"#utility.yul\":23301:23389   */\n      mstore\n        /* \"#utility.yul\":23408:23412   */\n      0x41\n        /* \"#utility.yul\":23405:23406   */\n      0x04\n        /* \"#utility.yul\":23398:23413   */\n      mstore\n        /* \"#utility.yul\":23432:23436   */\n      0x24\n        /* \"#utility.yul\":23429:23430   */\n      0x00\n        /* \"#utility.yul\":23422:23437   */\n      revert\n        /* \"#utility.yul\":23449:23566   */\n    tag_253:\n        /* \"#utility.yul\":23558:23559   */\n      0x00\n        /* \"#utility.yul\":23555:23556   */\n      dup1\n        /* \"#utility.yul\":23548:23560   */\n      revert\n        /* \"#utility.yul\":23572:23689   */\n    tag_238:\n        /* \"#utility.yul\":23681:23682   */\n      0x00\n        /* \"#utility.yul\":23678:23679   */\n      dup1\n        /* \"#utility.yul\":23671:23683   */\n      revert\n        /* \"#utility.yul\":23695:23812   */\n    tag_295:\n        /* \"#utility.yul\":23804:23805   */\n      0x00\n        /* \"#utility.yul\":23801:23802   */\n      dup1\n        /* \"#utility.yul\":23794:23806   */\n      revert\n        /* \"#utility.yul\":23818:23935   */\n    tag_262:\n        /* \"#utility.yul\":23927:23928   */\n      0x00\n        /* \"#utility.yul\":23924:23925   */\n      dup1\n        /* \"#utility.yul\":23917:23929   */\n      revert\n        /* \"#utility.yul\":23941:24043   */\n    tag_350:\n        /* \"#utility.yul\":23982:23988   */\n      0x00\n        /* \"#utility.yul\":24033:24035   */\n      0x1f\n        /* \"#utility.yul\":24029:24036   */\n      not\n        /* \"#utility.yul\":24024:24026   */\n      0x1f\n        /* \"#utility.yul\":24017:24022   */\n      dup4\n        /* \"#utility.yul\":24013:24027   */\n      add\n        /* \"#utility.yul\":24009:24037   */\n      and\n        /* \"#utility.yul\":23999:24037   */\n      swap1\n      pop\n        /* \"#utility.yul\":23941:24043   */\n      swap2\n      swap1\n      pop\n      jump\t// out\n        /* \"#utility.yul\":24049:24230   */\n    tag_355:\n        /* \"#utility.yul\":24189:24222   */\n      0x526563697069656e7420697320616c7265616479207265676973746572656400\n        /* \"#utility.yul\":24185:24186   */\n      0x00\n        /* \"#utility.yul\":24177:24183   */\n      dup3\n        /* \"#utility.yul\":24173:24187   */\n      add\n        /* \"#utility.yul\":24166:24223   */\n      mstore\n        /* \"#utility.yul\":24049:24230   */\n      pop\n      jump\t// out\n        /* \"#utility.yul\":24236:24411   */\n    tag_360:\n        /* \"#utility.yul\":24376:24403   */\n      0x50726f706f73616c20616c726561647920637265617465642100000000000000\n        /* \"#utility.yul\":24372:24373   */\n      0x00\n        /* \"#utility.yul\":24364:24370   */\n      dup3\n        /* \"#utility.yul\":24360:24374   */\n      add\n        /* \"#utility.yul\":24353:24404   */\n      mstore\n        /* \"#utility.yul\":24236:24411   */\n      pop\n      jump\t// out\n        /* \"#utility.yul\":24417:24642   */\n    tag_365:\n        /* \"#utility.yul\":24557:24591   */\n      0x596f75206172656e277420617574686f72697a6520746f20636f6d70696c6520\n        /* \"#utility.yul\":24553:24554   */\n      0x00\n        /* \"#utility.yul\":24545:24551   */\n      dup3\n        /* \"#utility.yul\":24541:24555   */\n      add\n        /* \"#utility.yul\":24534:24592   */\n      mstore\n        /* \"#utility.yul\":24626:24634   */\n      0x42756e646c650000000000000000000000000000000000000000000000000000\n        /* \"#utility.yul\":24621:24623   */\n      0x20\n        /* \"#utility.yul\":24613:24619   */\n      dup3\n        /* \"#utility.yul\":24609:24624   */\n      add\n        /* \"#utility.yul\":24602:24635   */\n      mstore\n        /* \"#utility.yul\":24417:24642   */\n      pop\n      jump\t// out\n        /* \"#utility.yul\":24648:24819   */\n    tag_370:\n        /* \"#utility.yul\":24788:24811   */\n      0x496e69746961746f722063616e277420766f7465210000000000000000000000\n        /* \"#utility.yul\":24784:24785   */\n      0x00\n        /* \"#utility.yul\":24776:24782   */\n      dup3\n        /* \"#utility.yul\":24772:24786   */\n      add\n        /* \"#utility.yul\":24765:24812   */\n      mstore\n        /* \"#utility.yul\":24648:24819   */\n      pop\n      jump\t// out\n        /* \"#utility.yul\":24825:25048   */\n    tag_375:\n        /* \"#utility.yul\":24965:24999   */\n      0x50726f706f73616c206861732072656163686564206974732065787069727920\n        /* \"#utility.yul\":24961:24962   */\n      0x00\n        /* \"#utility.yul\":24953:24959   */\n      dup3\n        /* \"#utility.yul\":24949:24963   */\n      add\n        /* \"#utility.yul\":24942:25000   */\n      mstore\n        /* \"#utility.yul\":25034:25040   */\n      0x6461746500000000000000000000000000000000000000000000000000000000\n        /* \"#utility.yul\":25029:25031   */\n      0x20\n        /* \"#utility.yul\":25021:25027   */\n      dup3\n        /* \"#utility.yul\":25017:25032   */\n      add\n        /* \"#utility.yul\":25010:25041   */\n      mstore\n        /* \"#utility.yul\":24825:25048   */\n      pop\n      jump\t// out\n        /* \"#utility.yul\":25054:25281   */\n    tag_380:\n        /* \"#utility.yul\":25194:25228   */\n      0x4f6e6c7920696e69746961746f722063616e2072656769737465722061207265\n        /* \"#utility.yul\":25190:25191   */\n      0x00\n        /* \"#utility.yul\":25182:25188   */\n      dup3\n        /* \"#utility.yul\":25178:25192   */\n      add\n        /* \"#utility.yul\":25171:25229   */\n      mstore\n        /* \"#utility.yul\":25263:25273   */\n      0x63697069656e742e000000000000000000000000000000000000000000000000\n        /* \"#utility.yul\":25258:25260   */\n      0x20\n        /* \"#utility.yul\":25250:25256   */\n      dup3\n        /* \"#utility.yul\":25246:25261   */\n      add\n        /* \"#utility.yul\":25239:25274   */\n      mstore\n        /* \"#utility.yul\":25054:25281   */\n      pop\n      jump\t// out\n        /* \"#utility.yul\":25287:25469   */\n    tag_385:\n        /* \"#utility.yul\":25427:25461   */\n      0x5665726469637420686173206e6f74206265656e207265616368656420796574\n        /* \"#utility.yul\":25423:25424   */\n      0x00\n        /* \"#utility.yul\":25415:25421   */\n      dup3\n        /* \"#utility.yul\":25411:25425   */\n      add\n        /* \"#utility.yul\":25404:25462   */\n      mstore\n        /* \"#utility.yul\":25287:25469   */\n      pop\n      jump\t// out\n        /* \"#utility.yul\":25475:25699   */\n    tag_390:\n        /* \"#utility.yul\":25615:25649   */\n      0x436f6e73656e7375732068617320616c7265616479206265656e2063616c6375\n        /* \"#utility.yul\":25611:25612   */\n      0x00\n        /* \"#utility.yul\":25603:25609   */\n      dup3\n        /* \"#utility.yul\":25599:25613   */\n      add\n        /* \"#utility.yul\":25592:25650   */\n      mstore\n        /* \"#utility.yul\":25684:25691   */\n      0x6c61746564000000000000000000000000000000000000000000000000000000\n        /* \"#utility.yul\":25679:25681   */\n      0x20\n        /* \"#utility.yul\":25671:25677   */\n      dup3\n        /* \"#utility.yul\":25667:25682   */\n      add\n        /* \"#utility.yul\":25660:25692   */\n      mstore\n        /* \"#utility.yul\":25475:25699   */\n      pop\n      jump\t// out\n        /* \"#utility.yul\":25705:25827   */\n    tag_244:\n        /* \"#utility.yul\":25778:25802   */\n      tag_522\n        /* \"#utility.yul\":25796:25801   */\n      dup2\n        /* \"#utility.yul\":25778:25802   */\n      tag_312\n      jump\t// in\n    tag_522:\n        /* \"#utility.yul\":25771:25776   */\n      dup2\n        /* \"#utility.yul\":25768:25803   */\n      eq\n        /* \"#utility.yul\":25758:25821   */\n      tag_523\n      jumpi\n        /* \"#utility.yul\":25817:25818   */\n      0x00\n        /* \"#utility.yul\":25814:25815   */\n      dup1\n        /* \"#utility.yul\":25807:25819   */\n      revert\n        /* \"#utility.yul\":25758:25821   */\n    tag_523:\n        /* \"#utility.yul\":25705:25827   */\n      pop\n      jump\t// out\n        /* \"#utility.yul\":25833:25955   */\n    tag_248:\n        /* \"#utility.yul\":25906:25930   */\n      tag_525\n        /* \"#utility.yul\":25924:25929   */\n      dup2\n        /* \"#utility.yul\":25906:25930   */\n      tag_340\n      jump\t// in\n    tag_525:\n        /* \"#utility.yul\":25899:25904   */\n      dup2\n        /* \"#utility.yul\":25896:25931   */\n      eq\n        /* \"#utility.yul\":25886:25949   */\n      tag_526\n      jumpi\n        /* \"#utility.yul\":25945:25946   */\n      0x00\n        /* \"#utility.yul\":25942:25943   */\n      dup1\n        /* \"#utility.yul\":25935:25947   */\n      revert\n        /* \"#utility.yul\":25886:25949   */\n    tag_526:\n        /* \"#utility.yul\":25833:25955   */\n      pop\n      jump\t// out\n        /* \"#utility.yul\":25961:26083   */\n    tag_258:\n        /* \"#utility.yul\":26034:26058   */\n      tag_528\n        /* \"#utility.yul\":26052:26057   */\n      dup2\n        /* \"#utility.yul\":26034:26058   */\n      tag_398\n      jump\t// in\n    tag_528:\n        /* \"#utility.yul\":26027:26032   */\n      dup2\n        /* \"#utility.yul\":26024:26059   */\n      eq\n        /* \"#utility.yul\":26014:26077   */\n      tag_529\n      jumpi\n        /* \"#utility.yul\":26073:26074   */\n      0x00\n        /* \"#utility.yul\":26070:26071   */\n      dup1\n        /* \"#utility.yul\":26063:26075   */\n      revert\n        /* \"#utility.yul\":26014:26077   */\n    tag_529:\n        /* \"#utility.yul\":25961:26083   */\n      pop\n      jump\t// out\n\n    auxdata: 0xa264697066735822122068e54245c1844cd81b303d2c8d8a0e0ec89e93c22fc5ea8818dd4a7b8b77157f64736f6c63430008070033\n}\n",
				"bytecode": {
					"linkReferences": {},
					"object": "608060405234801561001057600080fd5b50612c65806100206000396000f3fe608060405234801561001057600080fd5b50600436106101425760003560e01c8063823a6366116100b8578063a88361c61161007c578063a88361c614610429578063d443560a14610445578063d468f98314610475578063e463eaee14610491578063e5d009bf146104c1578063f20ca12c146104f157610142565b8063823a63661461034a5780638acc0d101461037a57806397299e9914610396578063a4a8f426146103c7578063a784ef74146103f757610142565b80635273bc481161010a5780635273bc481461023e57806356c583d81461026e5780637a099c6a1461029e5780637d6c570a146102ce5780637ff4c389146102ea57806381d0e37b1461031a57610142565b806313191ade1461014757806327f0ae921461017757806333dfd126146101aa57806338c20a9e146101dc5780634fd3b4451461020c575b600080fd5b610161600480360381019061015c9190611f4c565b610521565b60405161016e9190612625565b60405180910390f35b610191600480360381019061018c9190611f4c565b610539565b6040516101a1949392919061246c565b60405180910390f35b6101c460048036038101906101bf9190611ff9565b6106de565b6040516101d393929190612435565b60405180910390f35b6101f660048036038101906101f19190611f4c565b610767565b60405161020391906123e3565b60405180910390f35b61022660048036038101906102219190611fb9565b610787565b604051610235939291906123fe565b60405180910390f35b61025860048036038101906102539190611f4c565b610804565b60405161026591906123e3565b60405180910390f35b61028860048036038101906102839190611f4c565b61082e565b6040516102959190612625565b60405180910390f35b6102b860048036038101906102b39190611f4c565b610846565b6040516102c59190612625565b60405180910390f35b6102e860048036038101906102e39190611f4c565b61085e565b005b61030460048036038101906102ff9190611fb9565b610db7565b60405161031191906123c8565b60405180910390f35b610334600480360381019061032f9190611f4c565b610e05565b6040516103419190612625565b60405180910390f35b610364600480360381019061035f9190611f4c565b610e1d565b60405161037191906123e3565b60405180910390f35b610394600480360381019061038f9190612109565b610e3d565b005b6103b060048036038101906103ab9190611f4c565b611520565b6040516103be9291906124d3565b60405180910390f35b6103e160048036038101906103dc9190611f4c565b6115e0565b6040516103ee9190612503565b60405180910390f35b610411600480360381019061040c9190611f79565b611680565b604051610420939291906123fe565b60405180910390f35b610443600480360381019061043e9190612060565b6116f1565b005b61045f600480360381019061045a9190611f4c565b611938565b60405161046c91906123c8565b60405180910390f35b61048f600480360381019061048a9190611f0c565b61196b565b005b6104ab60048036038101906104a69190611f4c565b611d72565b6040516104b89190612625565b60405180910390f35b6104db60048036038101906104d69190611f4c565b611d8a565b6040516104e891906124b8565b60405180910390f35b61050b60048036038101906105069190611f4c565b611da2565b60405161051891906124b8565b60405180910390f35b60036020528060005260406000206000915090505481565b600080600060606004600086815260200190815260200160002054421015610596576040517f08c379a000000000000000000000000000000000000000000000000000000000815260040161058d906125e5565b60405180910390fd5b6000600c6000878152602001908152602001600020805480602002602001604051908101604052809291908181526020016000905b82821015610685578382906000526020600020016040518060600160405290816000820160009054906101000a900460ff161515151581526020016000820160019054906101000a900460ff161515151581526020016000820160029054906101000a900473ffffffffffffffffffffffffffffffffffffffff1673ffffffffffffffffffffffffffffffffffffffff1673ffffffffffffffffffffffffffffffffffffffff1681525050815260200190600101906105cb565b50505050905060006009600088815260200190815260200160002060009054906101000a900460ff1690506000600260008981526020019081526020016000205490508188828596509650965096505050509193509193565b60008060008060019050600060019050600060019050600760008b815260200190815260200160002054891461071357600092505b600560008b815260200190815260200160002054871461073257600091505b87600360008c8152602001908152602001600020541461075157600090505b8282829550955095505050509450945094915050565b60096020528060005260406000206000915054906101000a900460ff1681565b600c60205281600052604060002081815481106107a357600080fd5b90600052602060002001600091509150508060000160009054906101000a900460ff16908060000160019054906101000a900460ff16908060000160029054906101000a900473ffffffffffffffffffffffffffffffffffffffff16905083565b6000600a600083815260200190815260200160002060009054906101000a900460ff169050919050565b60046020528060005260406000206000915090505481565b60076020528060005260406000206000915090505481565b60046000828152602001908152602001600020544210156108b4576040517f08c379a00000000000000000000000000000000000000000000000000000000081526004016108ab906125e5565b60405180910390fd5b60001515600a600083815260200190815260200160002060009054906101000a900460ff1615151461091b576040517f08c379a000000000000000000000000000000000000000000000000000000000815260040161091290612605565b60405180910390fd5b60008082815260200190815260200160002060009054906101000a900473ffffffffffffffffffffffffffffffffffffffff1673ffffffffffffffffffffffffffffffffffffffff163373ffffffffffffffffffffffffffffffffffffffff161480610a275750600073ffffffffffffffffffffffffffffffffffffffff16600b600083815260200190815260200160002060003373ffffffffffffffffffffffffffffffffffffffff1673ffffffffffffffffffffffffffffffffffffffff16815260200190815260200160002060000160029054906101000a900473ffffffffffffffffffffffffffffffffffffffff1673ffffffffffffffffffffffffffffffffffffffff1614155b610a66576040517f08c379a0000000000000000000000000000000000000000000000000000000008152600401610a5d90612565565b60405180910390fd5b60006064600d6000848152602001908152602001600020805490506006600085815260200190815260200160002054610a9f9190612741565b610aa99190612772565b905060076000838152602001908152602001600020548110610af25760016009600084815260200190815260200160002060006101000a81548160ff0219169083151502179055505b60005b600d6000848152602001908152602001600020805490508160ff161015610d865760001515600b60008581526020019081526020016000206000600d60008781526020019081526020016000208460ff1681548110610b5757610b56612987565b5b9060005260206000200160009054906101000a900473ffffffffffffffffffffffffffffffffffffffff1673ffffffffffffffffffffffffffffffffffffffff1673ffffffffffffffffffffffffffffffffffffffff16815260200190815260200160002060000160009054906101000a900460ff1615151415610d7357600c6000848152602001908152602001600020600b60008581526020019081526020016000206000600d60008781526020019081526020016000208460ff1681548110610c2557610c24612987565b5b9060005260206000200160009054906101000a900473ffffffffffffffffffffffffffffffffffffffff1673ffffffffffffffffffffffffffffffffffffffff1673ffffffffffffffffffffffffffffffffffffffff168152602001908152602001600020908060018154018082558091505060019003906000526020600020016000909190919091506000820160009054906101000a900460ff168160000160006101000a81548160ff0219169083151502179055506000820160019054906101000a900460ff168160000160016101000a81548160ff0219169083151502179055506000820160029054906101000a900473ffffffffffffffffffffffffffffffffffffffff168160000160026101000a81548173ffffffffffffffffffffffffffffffffffffffff021916908373ffffffffffffffffffffffffffffffffffffffff16021790555050505b8080610d7e906128d0565b915050610af5565b506001600a600084815260200190815260200160002060006101000a81548160ff0219169083151502179055505050565b600d6020528160005260406000208181548110610dd357600080fd5b906000526020600020016000915091509054906101000a900473ffffffffffffffffffffffffffffffffffffffff1681565b60026020528060005260406000206000915090505481565b600a6020528060005260406000206000915054906101000a900460ff1681565b6040518060400160405280600981526020017f6920617070726f766500000000000000000000000000000000000000000000008152508051906020012082805190602001201415611106576001600b600083815260200190815260200160002060003373ffffffffffffffffffffffffffffffffffffffff1673ffffffffffffffffffffffffffffffffffffffff16815260200190815260200160002060000160006101000a81548160ff0219169083151502179055506001600b600083815260200190815260200160002060003373ffffffffffffffffffffffffffffffffffffffff1673ffffffffffffffffffffffffffffffffffffffff16815260200190815260200160002060000160016101000a81548160ff0219169083151502179055506001600660008381526020019081526020016000206000828254610f8491906126eb565b925050819055506001600260008381526020019081526020016000206000828254610faf91906126eb565b92505081905550600c6000828152602001908152602001600020600b600083815260200190815260200160002060003373ffffffffffffffffffffffffffffffffffffffff1673ffffffffffffffffffffffffffffffffffffffff168152602001908152602001600020908060018154018082558091505060019003906000526020600020016000909190919091506000820160009054906101000a900460ff168160000160006101000a81548160ff0219169083151502179055506000820160019054906101000a900460ff168160000160016101000a81548160ff0219169083151502179055506000820160029054906101000a900473ffffffffffffffffffffffffffffffffffffffff168160000160026101000a81548173ffffffffffffffffffffffffffffffffffffffff021916908373ffffffffffffffffffffffffffffffffffffffff160217905550505061151c565b6040518060400160405280600c81526020017f6920646973617070726f766500000000000000000000000000000000000000008152508051906020012082805190602001201415611338576001600b600083815260200190815260200160002060003373ffffffffffffffffffffffffffffffffffffffff1673ffffffffffffffffffffffffffffffffffffffff16815260200190815260200160002060000160006101000a81548160ff02191690831515021790555060016002600083815260200190815260200160002060008282546111e191906126eb565b92505081905550600c6000828152602001908152602001600020600b600083815260200190815260200160002060003373ffffffffffffffffffffffffffffffffffffffff1673ffffffffffffffffffffffffffffffffffffffff168152602001908152602001600020908060018154018082558091505060019003906000526020600020016000909190919091506000820160009054906101000a900460ff168160000160006101000a81548160ff0219169083151502179055506000820160019054906101000a900460ff168160000160016101000a81548160ff0219169083151502179055506000820160029054906101000a900473ffffffffffffffffffffffffffffffffffffffff168160000160026101000a81548173ffffffffffffffffffffffffffffffffffffffff021916908373ffffffffffffffffffffffffffffffffffffffff160217905550505061151b565b6001600b600083815260200190815260200160002060003373ffffffffffffffffffffffffffffffffffffffff1673ffffffffffffffffffffffffffffffffffffffff16815260200190815260200160002060000160006101000a81548160ff02191690831515021790555060016002600083815260200190815260200160002060008282546113c891906126eb565b92505081905550600c6000828152602001908152602001600020600b600083815260200190815260200160002060003373ffffffffffffffffffffffffffffffffffffffff1673ffffffffffffffffffffffffffffffffffffffff168152602001908152602001600020908060018154018082558091505060019003906000526020600020016000909190919091506000820160009054906101000a900460ff168160000160006101000a81548160ff0219169083151502179055506000820160019054906101000a900460ff168160000160016101000a81548160ff0219169083151502179055506000820160029054906101000a900473ffffffffffffffffffffffffffffffffffffffff168160000160026101000a81548173ffffffffffffffffffffffffffffffffffffffff021916908373ffffffffffffffffffffffffffffffffffffffff16021790555050505b5b5050565b600060606001600084815260200190815260200160002054600860008581526020019081526020016000208080546115579061286d565b80601f01602080910402602001604051908101604052809291908181526020018280546115839061286d565b80156115d05780601f106115a5576101008083540402835291602001916115d0565b820191906000526020600020905b8154815290600101906020018083116115b357829003601f168201915b5050505050905091509150915091565b600860205280600052604060002060009150905080546115ff9061286d565b80601f016020809104026020016040519081016040528092919081815260200182805461162b9061286d565b80156116785780601f1061164d57610100808354040283529160200191611678565b820191906000526020600020905b81548152906001019060200180831161165b57829003601f168201915b505050505081565b600b602052816000526040600020602052806000526040600020600091509150508060000160009054906101000a900460ff16908060000160019054906101000a900460ff16908060000160029054906101000a900473ffffffffffffffffffffffffffffffffffffffff16905083565b600073ffffffffffffffffffffffffffffffffffffffff1660008088815260200190815260200160002060009054906101000a900473ffffffffffffffffffffffffffffffffffffffff1673ffffffffffffffffffffffffffffffffffffffff1614611792576040517f08c379a000000000000000000000000000000000000000000000000000000000815260040161178990612545565b60405180910390fd5b6000600260008881526020019081526020016000208190555084426117b791906126eb565b60046000888152602001908152602001600020819055508560016000838152602001908152602001600020819055506000600a600088815260200190815260200160002060006101000a81548160ff02191690831515021790555083600760008881526020019081526020016000208190555083600760008381526020019081526020016000208190555060006009600088815260200190815260200160002060006101000a81548160ff021916908315150217905550846003600083815260200190815260200160002081905550826005600083815260200190815260200160002081905550816008600083815260200190815260200160002090805190602001906118c5929190611dba565b50600060066000888152602001908152602001600020819055503360008088815260200190815260200160002060006101000a81548173ffffffffffffffffffffffffffffffffffffffff021916908373ffffffffffffffffffffffffffffffffffffffff160217905550505050505050565b60006020528060005260406000206000915054906101000a900473ffffffffffffffffffffffffffffffffffffffff1681565b60008082815260200190815260200160002060009054906101000a900473ffffffffffffffffffffffffffffffffffffffff1673ffffffffffffffffffffffffffffffffffffffff163373ffffffffffffffffffffffffffffffffffffffff1614611a0b576040517f08c379a0000000000000000000000000000000000000000000000000000000008152600401611a02906125c5565b60405180910390fd5b60008082815260200190815260200160002060009054906101000a900473ffffffffffffffffffffffffffffffffffffffff1673ffffffffffffffffffffffffffffffffffffffff168273ffffffffffffffffffffffffffffffffffffffff161415611aac576040517f08c379a0000000000000000000000000000000000000000000000000000000008152600401611aa390612585565b60405180910390fd5b600073ffffffffffffffffffffffffffffffffffffffff16600b600083815260200190815260200160002060008473ffffffffffffffffffffffffffffffffffffffff1673ffffffffffffffffffffffffffffffffffffffff16815260200190815260200160002060000160029054906101000a900473ffffffffffffffffffffffffffffffffffffffff1673ffffffffffffffffffffffffffffffffffffffff1614611b8e576040517f08c379a0000000000000000000000000000000000000000000000000000000008152600401611b8590612525565b60405180910390fd5b60046000828152602001908152602001600020544210611be3576040517f08c379a0000000000000000000000000000000000000000000000000000000008152600401611bda906125a5565b60405180910390fd5b600060405180606001604052806000151581526020016000151581526020018473ffffffffffffffffffffffffffffffffffffffff16815250905080600b600084815260200190815260200160002060008573ffffffffffffffffffffffffffffffffffffffff1673ffffffffffffffffffffffffffffffffffffffff16815260200190815260200160002060008201518160000160006101000a81548160ff02191690831515021790555060208201518160000160016101000a81548160ff02191690831515021790555060408201518160000160026101000a81548173ffffffffffffffffffffffffffffffffffffffff021916908373ffffffffffffffffffffffffffffffffffffffff160217905550905050600d6000838152602001908152602001600020839080600181540180825580915050600190039060005260206000200160009091909190916101000a81548173ffffffffffffffffffffffffffffffffffffffff021916908373ffffffffffffffffffffffffffffffffffffffff160217905550505050565b60066020528060005260406000206000915090505481565b60016020528060005260406000206000915090505481565b60056020528060005260406000206000915090505481565b828054611dc69061286d565b90600052602060002090601f016020900481019282611de85760008555611e2f565b82601f10611e0157805160ff1916838001178555611e2f565b82800160010185558215611e2f579182015b82811115611e2e578251825591602001919060010190611e13565b5b509050611e3c9190611e40565b5090565b5b80821115611e59576000816000905550600101611e41565b5090565b6000611e70611e6b84612665565b612640565b905082815260208101848484011115611e8c57611e8b6129ea565b5b611e9784828561282b565b509392505050565b600081359050611eae81612bea565b92915050565b600081359050611ec381612c01565b92915050565b600082601f830112611ede57611edd6129e5565b5b8135611eee848260208601611e5d565b91505092915050565b600081359050611f0681612c18565b92915050565b60008060408385031215611f2357611f226129f4565b5b6000611f3185828601611e9f565b9250506020611f4285828601611eb4565b9150509250929050565b600060208284031215611f6257611f616129f4565b5b6000611f7084828501611eb4565b91505092915050565b60008060408385031215611f9057611f8f6129f4565b5b6000611f9e85828601611eb4565b9250506020611faf85828601611e9f565b9150509250929050565b60008060408385031215611fd057611fcf6129f4565b5b6000611fde85828601611eb4565b9250506020611fef85828601611ef7565b9150509250929050565b60008060008060808587031215612013576120126129f4565b5b600061202187828801611eb4565b945050602061203287828801611ef7565b935050604061204387828801611ef7565b925050606061205487828801611eb4565b91505092959194509250565b60008060008060008060c0878903121561207d5761207c6129f4565b5b600061208b89828a01611eb4565b965050602061209c89828a01611ef7565b95505060406120ad89828a01611ef7565b94505060606120be89828a01611eb4565b935050608087013567ffffffffffffffff8111156120df576120de6129ef565b5b6120eb89828a01611ec9565b92505060a06120fc89828a01611eb4565b9150509295509295509295565b600080604083850312156121205761211f6129f4565b5b600083013567ffffffffffffffff81111561213e5761213d6129ef565b5b61214a85828601611ec9565b925050602061215b85828601611eb4565b9150509250929050565b60006121718383612377565b60608301905092915050565b612186816127cc565b82525050565b612195816127cc565b82525050565b60006121a6826126a6565b6121b081856126c9565b93506121bb83612696565b8060005b838110156121ec5781516121d38882612165565b97506121de836126bc565b9250506001810190506121bf565b5085935050505092915050565b612202816127de565b82525050565b612211816127de565b82525050565b612220816127ea565b82525050565b6000612231826126b1565b61223b81856126da565b935061224b81856020860161283a565b612254816129f9565b840191505092915050565b600061226c601f836126da565b915061227782612a0a565b602082019050919050565b600061228f6019836126da565b915061229a82612a33565b602082019050919050565b60006122b26026836126da565b91506122bd82612a5c565b604082019050919050565b60006122d56015836126da565b91506122e082612aab565b602082019050919050565b60006122f86024836126da565b915061230382612ad4565b604082019050919050565b600061231b6028836126da565b915061232682612b23565b604082019050919050565b600061233e6020836126da565b915061234982612b72565b602082019050919050565b60006123616025836126da565b915061236c82612b9b565b604082019050919050565b60608201600082015161238d60008501826121f9565b5060208201516123a060208501826121f9565b5060408201516123b3604085018261217d565b50505050565b6123c281612814565b82525050565b60006020820190506123dd600083018461218c565b92915050565b60006020820190506123f86000830184612208565b92915050565b60006060820190506124136000830186612208565b6124206020830185612208565b61242d604083018461218c565b949350505050565b600060608201905061244a6000830186612208565b6124576020830185612208565b6124646040830184612208565b949350505050565b60006080820190506124816000830187612208565b61248e6020830186612217565b61249b60408301856123b9565b81810360608301526124ad818461219b565b905095945050505050565b60006020820190506124cd6000830184612217565b92915050565b60006040820190506124e86000830185612217565b81810360208301526124fa8184612226565b90509392505050565b6000602082019050818103600083015261251d8184612226565b905092915050565b6000602082019050818103600083015261253e8161225f565b9050919050565b6000602082019050818103600083015261255e81612282565b9050919050565b6000602082019050818103600083015261257e816122a5565b9050919050565b6000602082019050818103600083015261259e816122c8565b9050919050565b600060208201905081810360008301526125be816122eb565b9050919050565b600060208201905081810360008301526125de8161230e565b9050919050565b600060208201905081810360008301526125fe81612331565b9050919050565b6000602082019050818103600083015261261e81612354565b9050919050565b600060208201905061263a60008301846123b9565b92915050565b600061264a61265b565b9050612656828261289f565b919050565b6000604051905090565b600067ffffffffffffffff8211156126805761267f6129b6565b5b612689826129f9565b9050602081019050919050565b6000819050602082019050919050565b600081519050919050565b600081519050919050565b6000602082019050919050565b600082825260208201905092915050565b600082825260208201905092915050565b60006126f682612814565b915061270183612814565b9250827fffffffffffffffffffffffffffffffffffffffffffffffffffffffffffffffff03821115612736576127356128fa565b5b828201905092915050565b600061274c82612814565b915061275783612814565b92508261276757612766612929565b5b828204905092915050565b600061277d82612814565b915061278883612814565b9250817fffffffffffffffffffffffffffffffffffffffffffffffffffffffffffffffff04831182151516156127c1576127c06128fa565b5b828202905092915050565b60006127d7826127f4565b9050919050565b60008115159050919050565b6000819050919050565b600073ffffffffffffffffffffffffffffffffffffffff82169050919050565b6000819050919050565b600060ff82169050919050565b82818337600083830152505050565b60005b8381101561285857808201518184015260208101905061283d565b83811115612867576000848401525b50505050565b6000600282049050600182168061288557607f821691505b6020821081141561289957612898612958565b5b50919050565b6128a8826129f9565b810181811067ffffffffffffffff821117156128c7576128c66129b6565b5b80604052505050565b60006128db8261281e565b915060ff8214156128ef576128ee6128fa565b5b600182019050919050565b7f4e487b7100000000000000000000000000000000000000000000000000000000600052601160045260246000fd5b7f4e487b7100000000000000000000000000000000000000000000000000000000600052601260045260246000fd5b7f4e487b7100000000000000000000000000000000000000000000000000000000600052602260045260246000fd5b7f4e487b7100000000000000000000000000000000000000000000000000000000600052603260045260246000fd5b7f4e487b7100000000000000000000000000000000000000000000000000000000600052604160045260246000fd5b600080fd5b600080fd5b600080fd5b600080fd5b6000601f19601f8301169050919050565b7f526563697069656e7420697320616c7265616479207265676973746572656400600082015250565b7f50726f706f73616c20616c726561647920637265617465642100000000000000600082015250565b7f596f75206172656e277420617574686f72697a6520746f20636f6d70696c652060008201527f42756e646c650000000000000000000000000000000000000000000000000000602082015250565b7f496e69746961746f722063616e277420766f7465210000000000000000000000600082015250565b7f50726f706f73616c20686173207265616368656420697473206578706972792060008201527f6461746500000000000000000000000000000000000000000000000000000000602082015250565b7f4f6e6c7920696e69746961746f722063616e207265676973746572206120726560008201527f63697069656e742e000000000000000000000000000000000000000000000000602082015250565b7f5665726469637420686173206e6f74206265656e207265616368656420796574600082015250565b7f436f6e73656e7375732068617320616c7265616479206265656e2063616c637560008201527f6c61746564000000000000000000000000000000000000000000000000000000602082015250565b612bf3816127cc565b8114612bfe57600080fd5b50565b612c0a816127ea565b8114612c1557600080fd5b50565b612c2181612814565b8114612c2c57600080fd5b5056fea264697066735822122068e54245c1844cd81b303d2c8d8a0e0ec89e93c22fc5ea8818dd4a7b8b77157f64736f6c63430008070033",
					"opcodes": "PUSH1 0x80 PUSH1 0x40 MSTORE CALLVALUE DUP1 ISZERO PUSH2 0x10 JUMPI PUSH1 0x0 DUP1 REVERT JUMPDEST POP PUSH2 0x2C65 DUP1 PUSH2 0x20 PUSH1 0x0 CODECOPY PUSH1 0x0 RETURN INVALID PUSH1 0x80 PUSH1 0x40 MSTORE CALLVALUE DUP1 ISZERO PUSH2 0x10 JUMPI PUSH1 0x0 DUP1 REVERT JUMPDEST POP PUSH1 0x4 CALLDATASIZE LT PUSH2 0x142 JUMPI PUSH1 0x0 CALLDATALOAD PUSH1 0xE0 SHR DUP1 PUSH4 0x823A6366 GT PUSH2 0xB8 JUMPI DUP1 PUSH4 0xA88361C6 GT PUSH2 0x7C JUMPI DUP1 PUSH4 0xA88361C6 EQ PUSH2 0x429 JUMPI DUP1 PUSH4 0xD443560A EQ PUSH2 0x445 JUMPI DUP1 PUSH4 0xD468F983 EQ PUSH2 0x475 JUMPI DUP1 PUSH4 0xE463EAEE EQ PUSH2 0x491 JUMPI DUP1 PUSH4 0xE5D009BF EQ PUSH2 0x4C1 JUMPI DUP1 PUSH4 0xF20CA12C EQ PUSH2 0x4F1 JUMPI PUSH2 0x142 JUMP JUMPDEST DUP1 PUSH4 0x823A6366 EQ PUSH2 0x34A JUMPI DUP1 PUSH4 0x8ACC0D10 EQ PUSH2 0x37A JUMPI DUP1 PUSH4 0x97299E99 EQ PUSH2 0x396 JUMPI DUP1 PUSH4 0xA4A8F426 EQ PUSH2 0x3C7 JUMPI DUP1 PUSH4 0xA784EF74 EQ PUSH2 0x3F7 JUMPI PUSH2 0x142 JUMP JUMPDEST DUP1 PUSH4 0x5273BC48 GT PUSH2 0x10A JUMPI DUP1 PUSH4 0x5273BC48 EQ PUSH2 0x23E JUMPI DUP1 PUSH4 0x56C583D8 EQ PUSH2 0x26E JUMPI DUP1 PUSH4 0x7A099C6A EQ PUSH2 0x29E JUMPI DUP1 PUSH4 0x7D6C570A EQ PUSH2 0x2CE JUMPI DUP1 PUSH4 0x7FF4C389 EQ PUSH2 0x2EA JUMPI DUP1 PUSH4 0x81D0E37B EQ PUSH2 0x31A JUMPI PUSH2 0x142 JUMP JUMPDEST DUP1 PUSH4 0x13191ADE EQ PUSH2 0x147 JUMPI DUP1 PUSH4 0x27F0AE92 EQ PUSH2 0x177 JUMPI DUP1 PUSH4 0x33DFD126 EQ PUSH2 0x1AA JUMPI DUP1 PUSH4 0x38C20A9E EQ PUSH2 0x1DC JUMPI DUP1 PUSH4 0x4FD3B445 EQ PUSH2 0x20C JUMPI JUMPDEST PUSH1 0x0 DUP1 REVERT JUMPDEST PUSH2 0x161 PUSH1 0x4 DUP1 CALLDATASIZE SUB DUP2 ADD SWAP1 PUSH2 0x15C SWAP2 SWAP1 PUSH2 0x1F4C JUMP JUMPDEST PUSH2 0x521 JUMP JUMPDEST PUSH1 0x40 MLOAD PUSH2 0x16E SWAP2 SWAP1 PUSH2 0x2625 JUMP JUMPDEST PUSH1 0x40 MLOAD DUP1 SWAP2 SUB SWAP1 RETURN JUMPDEST PUSH2 0x191 PUSH1 0x4 DUP1 CALLDATASIZE SUB DUP2 ADD SWAP1 PUSH2 0x18C SWAP2 SWAP1 PUSH2 0x1F4C JUMP JUMPDEST PUSH2 0x539 JUMP JUMPDEST PUSH1 0x40 MLOAD PUSH2 0x1A1 SWAP5 SWAP4 SWAP3 SWAP2 SWAP1 PUSH2 0x246C JUMP JUMPDEST PUSH1 0x40 MLOAD DUP1 SWAP2 SUB SWAP1 RETURN JUMPDEST PUSH2 0x1C4 PUSH1 0x4 DUP1 CALLDATASIZE SUB DUP2 ADD SWAP1 PUSH2 0x1BF SWAP2 SWAP1 PUSH2 0x1FF9 JUMP JUMPDEST PUSH2 0x6DE JUMP JUMPDEST PUSH1 0x40 MLOAD PUSH2 0x1D3 SWAP4 SWAP3 SWAP2 SWAP1 PUSH2 0x2435 JUMP JUMPDEST PUSH1 0x40 MLOAD DUP1 SWAP2 SUB SWAP1 RETURN JUMPDEST PUSH2 0x1F6 PUSH1 0x4 DUP1 CALLDATASIZE SUB DUP2 ADD SWAP1 PUSH2 0x1F1 SWAP2 SWAP1 PUSH2 0x1F4C JUMP JUMPDEST PUSH2 0x767 JUMP JUMPDEST PUSH1 0x40 MLOAD PUSH2 0x203 SWAP2 SWAP1 PUSH2 0x23E3 JUMP JUMPDEST PUSH1 0x40 MLOAD DUP1 SWAP2 SUB SWAP1 RETURN JUMPDEST PUSH2 0x226 PUSH1 0x4 DUP1 CALLDATASIZE SUB DUP2 ADD SWAP1 PUSH2 0x221 SWAP2 SWAP1 PUSH2 0x1FB9 JUMP JUMPDEST PUSH2 0x787 JUMP JUMPDEST PUSH1 0x40 MLOAD PUSH2 0x235 SWAP4 SWAP3 SWAP2 SWAP1 PUSH2 0x23FE JUMP JUMPDEST PUSH1 0x40 MLOAD DUP1 SWAP2 SUB SWAP1 RETURN JUMPDEST PUSH2 0x258 PUSH1 0x4 DUP1 CALLDATASIZE SUB DUP2 ADD SWAP1 PUSH2 0x253 SWAP2 SWAP1 PUSH2 0x1F4C JUMP JUMPDEST PUSH2 0x804 JUMP JUMPDEST PUSH1 0x40 MLOAD PUSH2 0x265 SWAP2 SWAP1 PUSH2 0x23E3 JUMP JUMPDEST PUSH1 0x40 MLOAD DUP1 SWAP2 SUB SWAP1 RETURN JUMPDEST PUSH2 0x288 PUSH1 0x4 DUP1 CALLDATASIZE SUB DUP2 ADD SWAP1 PUSH2 0x283 SWAP2 SWAP1 PUSH2 0x1F4C JUMP JUMPDEST PUSH2 0x82E JUMP JUMPDEST PUSH1 0x40 MLOAD PUSH2 0x295 SWAP2 SWAP1 PUSH2 0x2625 JUMP JUMPDEST PUSH1 0x40 MLOAD DUP1 SWAP2 SUB SWAP1 RETURN JUMPDEST PUSH2 0x2B8 PUSH1 0x4 DUP1 CALLDATASIZE SUB DUP2 ADD SWAP1 PUSH2 0x2B3 SWAP2 SWAP1 PUSH2 0x1F4C JUMP JUMPDEST PUSH2 0x846 JUMP JUMPDEST PUSH1 0x40 MLOAD PUSH2 0x2C5 SWAP2 SWAP1 PUSH2 0x2625 JUMP JUMPDEST PUSH1 0x40 MLOAD DUP1 SWAP2 SUB SWAP1 RETURN JUMPDEST PUSH2 0x2E8 PUSH1 0x4 DUP1 CALLDATASIZE SUB DUP2 ADD SWAP1 PUSH2 0x2E3 SWAP2 SWAP1 PUSH2 0x1F4C JUMP JUMPDEST PUSH2 0x85E JUMP JUMPDEST STOP JUMPDEST PUSH2 0x304 PUSH1 0x4 DUP1 CALLDATASIZE SUB DUP2 ADD SWAP1 PUSH2 0x2FF SWAP2 SWAP1 PUSH2 0x1FB9 JUMP JUMPDEST PUSH2 0xDB7 JUMP JUMPDEST PUSH1 0x40 MLOAD PUSH2 0x311 SWAP2 SWAP1 PUSH2 0x23C8 JUMP JUMPDEST PUSH1 0x40 MLOAD DUP1 SWAP2 SUB SWAP1 RETURN JUMPDEST PUSH2 0x334 PUSH1 0x4 DUP1 CALLDATASIZE SUB DUP2 ADD SWAP1 PUSH2 0x32F SWAP2 SWAP1 PUSH2 0x1F4C JUMP JUMPDEST PUSH2 0xE05 JUMP JUMPDEST PUSH1 0x40 MLOAD PUSH2 0x341 SWAP2 SWAP1 PUSH2 0x2625 JUMP JUMPDEST PUSH1 0x40 MLOAD DUP1 SWAP2 SUB SWAP1 RETURN JUMPDEST PUSH2 0x364 PUSH1 0x4 DUP1 CALLDATASIZE SUB DUP2 ADD SWAP1 PUSH2 0x35F SWAP2 SWAP1 PUSH2 0x1F4C JUMP JUMPDEST PUSH2 0xE1D JUMP JUMPDEST PUSH1 0x40 MLOAD PUSH2 0x371 SWAP2 SWAP1 PUSH2 0x23E3 JUMP JUMPDEST PUSH1 0x40 MLOAD DUP1 SWAP2 SUB SWAP1 RETURN JUMPDEST PUSH2 0x394 PUSH1 0x4 DUP1 CALLDATASIZE SUB DUP2 ADD SWAP1 PUSH2 0x38F SWAP2 SWAP1 PUSH2 0x2109 JUMP JUMPDEST PUSH2 0xE3D JUMP JUMPDEST STOP JUMPDEST PUSH2 0x3B0 PUSH1 0x4 DUP1 CALLDATASIZE SUB DUP2 ADD SWAP1 PUSH2 0x3AB SWAP2 SWAP1 PUSH2 0x1F4C JUMP JUMPDEST PUSH2 0x1520 JUMP JUMPDEST PUSH1 0x40 MLOAD PUSH2 0x3BE SWAP3 SWAP2 SWAP1 PUSH2 0x24D3 JUMP JUMPDEST PUSH1 0x40 MLOAD DUP1 SWAP2 SUB SWAP1 RETURN JUMPDEST PUSH2 0x3E1 PUSH1 0x4 DUP1 CALLDATASIZE SUB DUP2 ADD SWAP1 PUSH2 0x3DC SWAP2 SWAP1 PUSH2 0x1F4C JUMP JUMPDEST PUSH2 0x15E0 JUMP JUMPDEST PUSH1 0x40 MLOAD PUSH2 0x3EE SWAP2 SWAP1 PUSH2 0x2503 JUMP JUMPDEST PUSH1 0x40 MLOAD DUP1 SWAP2 SUB SWAP1 RETURN JUMPDEST PUSH2 0x411 PUSH1 0x4 DUP1 CALLDATASIZE SUB DUP2 ADD SWAP1 PUSH2 0x40C SWAP2 SWAP1 PUSH2 0x1F79 JUMP JUMPDEST PUSH2 0x1680 JUMP JUMPDEST PUSH1 0x40 MLOAD PUSH2 0x420 SWAP4 SWAP3 SWAP2 SWAP1 PUSH2 0x23FE JUMP JUMPDEST PUSH1 0x40 MLOAD DUP1 SWAP2 SUB SWAP1 RETURN JUMPDEST PUSH2 0x443 PUSH1 0x4 DUP1 CALLDATASIZE SUB DUP2 ADD SWAP1 PUSH2 0x43E SWAP2 SWAP1 PUSH2 0x2060 JUMP JUMPDEST PUSH2 0x16F1 JUMP JUMPDEST STOP JUMPDEST PUSH2 0x45F PUSH1 0x4 DUP1 CALLDATASIZE SUB DUP2 ADD SWAP1 PUSH2 0x45A SWAP2 SWAP1 PUSH2 0x1F4C JUMP JUMPDEST PUSH2 0x1938 JUMP JUMPDEST PUSH1 0x40 MLOAD PUSH2 0x46C SWAP2 SWAP1 PUSH2 0x23C8 JUMP JUMPDEST PUSH1 0x40 MLOAD DUP1 SWAP2 SUB SWAP1 RETURN JUMPDEST PUSH2 0x48F PUSH1 0x4 DUP1 CALLDATASIZE SUB DUP2 ADD SWAP1 PUSH2 0x48A SWAP2 SWAP1 PUSH2 0x1F0C JUMP JUMPDEST PUSH2 0x196B JUMP JUMPDEST STOP JUMPDEST PUSH2 0x4AB PUSH1 0x4 DUP1 CALLDATASIZE SUB DUP2 ADD SWAP1 PUSH2 0x4A6 SWAP2 SWAP1 PUSH2 0x1F4C JUMP JUMPDEST PUSH2 0x1D72 JUMP JUMPDEST PUSH1 0x40 MLOAD PUSH2 0x4B8 SWAP2 SWAP1 PUSH2 0x2625 JUMP JUMPDEST PUSH1 0x40 MLOAD DUP1 SWAP2 SUB SWAP1 RETURN JUMPDEST PUSH2 0x4DB PUSH1 0x4 DUP1 CALLDATASIZE SUB DUP2 ADD SWAP1 PUSH2 0x4D6 SWAP2 SWAP1 PUSH2 0x1F4C JUMP JUMPDEST PUSH2 0x1D8A JUMP JUMPDEST PUSH1 0x40 MLOAD PUSH2 0x4E8 SWAP2 SWAP1 PUSH2 0x24B8 JUMP JUMPDEST PUSH1 0x40 MLOAD DUP1 SWAP2 SUB SWAP1 RETURN JUMPDEST PUSH2 0x50B PUSH1 0x4 DUP1 CALLDATASIZE SUB DUP2 ADD SWAP1 PUSH2 0x506 SWAP2 SWAP1 PUSH2 0x1F4C JUMP JUMPDEST PUSH2 0x1DA2 JUMP JUMPDEST PUSH1 0x40 MLOAD PUSH2 0x518 SWAP2 SWAP1 PUSH2 0x24B8 JUMP JUMPDEST PUSH1 0x40 MLOAD DUP1 SWAP2 SUB SWAP1 RETURN JUMPDEST PUSH1 0x3 PUSH1 0x20 MSTORE DUP1 PUSH1 0x0 MSTORE PUSH1 0x40 PUSH1 0x0 KECCAK256 PUSH1 0x0 SWAP2 POP SWAP1 POP SLOAD DUP2 JUMP JUMPDEST PUSH1 0x0 DUP1 PUSH1 0x0 PUSH1 0x60 PUSH1 0x4 PUSH1 0x0 DUP7 DUP2 MSTORE PUSH1 0x20 ADD SWAP1 DUP2 MSTORE PUSH1 0x20 ADD PUSH1 0x0 KECCAK256 SLOAD TIMESTAMP LT ISZERO PUSH2 0x596 JUMPI PUSH1 0x40 MLOAD PUSH32 0x8C379A000000000000000000000000000000000000000000000000000000000 DUP2 MSTORE PUSH1 0x4 ADD PUSH2 0x58D SWAP1 PUSH2 0x25E5 JUMP JUMPDEST PUSH1 0x40 MLOAD DUP1 SWAP2 SUB SWAP1 REVERT JUMPDEST PUSH1 0x0 PUSH1 0xC PUSH1 0x0 DUP8 DUP2 MSTORE PUSH1 0x20 ADD SWAP1 DUP2 MSTORE PUSH1 0x20 ADD PUSH1 0x0 KECCAK256 DUP1 SLOAD DUP1 PUSH1 0x20 MUL PUSH1 0x20 ADD PUSH1 0x40 MLOAD SWAP1 DUP2 ADD PUSH1 0x40 MSTORE DUP1 SWAP3 SWAP2 SWAP1 DUP2 DUP2 MSTORE PUSH1 0x20 ADD PUSH1 0x0 SWAP1 JUMPDEST DUP3 DUP3 LT ISZERO PUSH2 0x685 JUMPI DUP4 DUP3 SWAP1 PUSH1 0x0 MSTORE PUSH1 0x20 PUSH1 0x0 KECCAK256 ADD PUSH1 0x40 MLOAD DUP1 PUSH1 0x60 ADD PUSH1 0x40 MSTORE SWAP1 DUP2 PUSH1 0x0 DUP3 ADD PUSH1 0x0 SWAP1 SLOAD SWAP1 PUSH2 0x100 EXP SWAP1 DIV PUSH1 0xFF AND ISZERO ISZERO ISZERO ISZERO DUP2 MSTORE PUSH1 0x20 ADD PUSH1 0x0 DUP3 ADD PUSH1 0x1 SWAP1 SLOAD SWAP1 PUSH2 0x100 EXP SWAP1 DIV PUSH1 0xFF AND ISZERO ISZERO ISZERO ISZERO DUP2 MSTORE PUSH1 0x20 ADD PUSH1 0x0 DUP3 ADD PUSH1 0x2 SWAP1 SLOAD SWAP1 PUSH2 0x100 EXP SWAP1 DIV PUSH20 0xFFFFFFFFFFFFFFFFFFFFFFFFFFFFFFFFFFFFFFFF AND PUSH20 0xFFFFFFFFFFFFFFFFFFFFFFFFFFFFFFFFFFFFFFFF AND PUSH20 0xFFFFFFFFFFFFFFFFFFFFFFFFFFFFFFFFFFFFFFFF AND DUP2 MSTORE POP POP DUP2 MSTORE PUSH1 0x20 ADD SWAP1 PUSH1 0x1 ADD SWAP1 PUSH2 0x5CB JUMP JUMPDEST POP POP POP POP SWAP1 POP PUSH1 0x0 PUSH1 0x9 PUSH1 0x0 DUP9 DUP2 MSTORE PUSH1 0x20 ADD SWAP1 DUP2 MSTORE PUSH1 0x20 ADD PUSH1 0x0 KECCAK256 PUSH1 0x0 SWAP1 SLOAD SWAP1 PUSH2 0x100 EXP SWAP1 DIV PUSH1 0xFF AND SWAP1 POP PUSH1 0x0 PUSH1 0x2 PUSH1 0x0 DUP10 DUP2 MSTORE PUSH1 0x20 ADD SWAP1 DUP2 MSTORE PUSH1 0x20 ADD PUSH1 0x0 KECCAK256 SLOAD SWAP1 POP DUP2 DUP9 DUP3 DUP6 SWAP7 POP SWAP7 POP SWAP7 POP SWAP7 POP POP POP POP SWAP2 SWAP4 POP SWAP2 SWAP4 JUMP JUMPDEST PUSH1 0x0 DUP1 PUSH1 0x0 DUP1 PUSH1 0x1 SWAP1 POP PUSH1 0x0 PUSH1 0x1 SWAP1 POP PUSH1 0x0 PUSH1 0x1 SWAP1 POP PUSH1 0x7 PUSH1 0x0 DUP12 DUP2 MSTORE PUSH1 0x20 ADD SWAP1 DUP2 MSTORE PUSH1 0x20 ADD PUSH1 0x0 KECCAK256 SLOAD DUP10 EQ PUSH2 0x713 JUMPI PUSH1 0x0 SWAP3 POP JUMPDEST PUSH1 0x5 PUSH1 0x0 DUP12 DUP2 MSTORE PUSH1 0x20 ADD SWAP1 DUP2 MSTORE PUSH1 0x20 ADD PUSH1 0x0 KECCAK256 SLOAD DUP8 EQ PUSH2 0x732 JUMPI PUSH1 0x0 SWAP2 POP JUMPDEST DUP8 PUSH1 0x3 PUSH1 0x0 DUP13 DUP2 MSTORE PUSH1 0x20 ADD SWAP1 DUP2 MSTORE PUSH1 0x20 ADD PUSH1 0x0 KECCAK256 SLOAD EQ PUSH2 0x751 JUMPI PUSH1 0x0 SWAP1 POP JUMPDEST DUP3 DUP3 DUP3 SWAP6 POP SWAP6 POP SWAP6 POP POP POP POP SWAP5 POP SWAP5 POP SWAP5 SWAP2 POP POP JUMP JUMPDEST PUSH1 0x9 PUSH1 0x20 MSTORE DUP1 PUSH1 0x0 MSTORE PUSH1 0x40 PUSH1 0x0 KECCAK256 PUSH1 0x0 SWAP2 POP SLOAD SWAP1 PUSH2 0x100 EXP SWAP1 DIV PUSH1 0xFF AND DUP2 JUMP JUMPDEST PUSH1 0xC PUSH1 0x20 MSTORE DUP2 PUSH1 0x0 MSTORE PUSH1 0x40 PUSH1 0x0 KECCAK256 DUP2 DUP2 SLOAD DUP2 LT PUSH2 0x7A3 JUMPI PUSH1 0x0 DUP1 REVERT JUMPDEST SWAP1 PUSH1 0x0 MSTORE PUSH1 0x20 PUSH1 0x0 KECCAK256 ADD PUSH1 0x0 SWAP2 POP SWAP2 POP POP DUP1 PUSH1 0x0 ADD PUSH1 0x0 SWAP1 SLOAD SWAP1 PUSH2 0x100 EXP SWAP1 DIV PUSH1 0xFF AND SWAP1 DUP1 PUSH1 0x0 ADD PUSH1 0x1 SWAP1 SLOAD SWAP1 PUSH2 0x100 EXP SWAP1 DIV PUSH1 0xFF AND SWAP1 DUP1 PUSH1 0x0 ADD PUSH1 0x2 SWAP1 SLOAD SWAP1 PUSH2 0x100 EXP SWAP1 DIV PUSH20 0xFFFFFFFFFFFFFFFFFFFFFFFFFFFFFFFFFFFFFFFF AND SWAP1 POP DUP4 JUMP JUMPDEST PUSH1 0x0 PUSH1 0xA PUSH1 0x0 DUP4 DUP2 MSTORE PUSH1 0x20 ADD SWAP1 DUP2 MSTORE PUSH1 0x20 ADD PUSH1 0x0 KECCAK256 PUSH1 0x0 SWAP1 SLOAD SWAP1 PUSH2 0x100 EXP SWAP1 DIV PUSH1 0xFF AND SWAP1 POP SWAP2 SWAP1 POP JUMP JUMPDEST PUSH1 0x4 PUSH1 0x20 MSTORE DUP1 PUSH1 0x0 MSTORE PUSH1 0x40 PUSH1 0x0 KECCAK256 PUSH1 0x0 SWAP2 POP SWAP1 POP SLOAD DUP2 JUMP JUMPDEST PUSH1 0x7 PUSH1 0x20 MSTORE DUP1 PUSH1 0x0 MSTORE PUSH1 0x40 PUSH1 0x0 KECCAK256 PUSH1 0x0 SWAP2 POP SWAP1 POP SLOAD DUP2 JUMP JUMPDEST PUSH1 0x4 PUSH1 0x0 DUP3 DUP2 MSTORE PUSH1 0x20 ADD SWAP1 DUP2 MSTORE PUSH1 0x20 ADD PUSH1 0x0 KECCAK256 SLOAD TIMESTAMP LT ISZERO PUSH2 0x8B4 JUMPI PUSH1 0x40 MLOAD PUSH32 0x8C379A000000000000000000000000000000000000000000000000000000000 DUP2 MSTORE PUSH1 0x4 ADD PUSH2 0x8AB SWAP1 PUSH2 0x25E5 JUMP JUMPDEST PUSH1 0x40 MLOAD DUP1 SWAP2 SUB SWAP1 REVERT JUMPDEST PUSH1 0x0 ISZERO ISZERO PUSH1 0xA PUSH1 0x0 DUP4 DUP2 MSTORE PUSH1 0x20 ADD SWAP1 DUP2 MSTORE PUSH1 0x20 ADD PUSH1 0x0 KECCAK256 PUSH1 0x0 SWAP1 SLOAD SWAP1 PUSH2 0x100 EXP SWAP1 DIV PUSH1 0xFF AND ISZERO ISZERO EQ PUSH2 0x91B JUMPI PUSH1 0x40 MLOAD PUSH32 0x8C379A000000000000000000000000000000000000000000000000000000000 DUP2 MSTORE PUSH1 0x4 ADD PUSH2 0x912 SWAP1 PUSH2 0x2605 JUMP JUMPDEST PUSH1 0x40 MLOAD DUP1 SWAP2 SUB SWAP1 REVERT JUMPDEST PUSH1 0x0 DUP1 DUP3 DUP2 MSTORE PUSH1 0x20 ADD SWAP1 DUP2 MSTORE PUSH1 0x20 ADD PUSH1 0x0 KECCAK256 PUSH1 0x0 SWAP1 SLOAD SWAP1 PUSH2 0x100 EXP SWAP1 DIV PUSH20 0xFFFFFFFFFFFFFFFFFFFFFFFFFFFFFFFFFFFFFFFF AND PUSH20 0xFFFFFFFFFFFFFFFFFFFFFFFFFFFFFFFFFFFFFFFF AND CALLER PUSH20 0xFFFFFFFFFFFFFFFFFFFFFFFFFFFFFFFFFFFFFFFF AND EQ DUP1 PUSH2 0xA27 JUMPI POP PUSH1 0x0 PUSH20 0xFFFFFFFFFFFFFFFFFFFFFFFFFFFFFFFFFFFFFFFF AND PUSH1 0xB PUSH1 0x0 DUP4 DUP2 MSTORE PUSH1 0x20 ADD SWAP1 DUP2 MSTORE PUSH1 0x20 ADD PUSH1 0x0 KECCAK256 PUSH1 0x0 CALLER PUSH20 0xFFFFFFFFFFFFFFFFFFFFFFFFFFFFFFFFFFFFFFFF AND PUSH20 0xFFFFFFFFFFFFFFFFFFFFFFFFFFFFFFFFFFFFFFFF AND DUP2 MSTORE PUSH1 0x20 ADD SWAP1 DUP2 MSTORE PUSH1 0x20 ADD PUSH1 0x0 KECCAK256 PUSH1 0x0 ADD PUSH1 0x2 SWAP1 SLOAD SWAP1 PUSH2 0x100 EXP SWAP1 DIV PUSH20 0xFFFFFFFFFFFFFFFFFFFFFFFFFFFFFFFFFFFFFFFF AND PUSH20 0xFFFFFFFFFFFFFFFFFFFFFFFFFFFFFFFFFFFFFFFF AND EQ ISZERO JUMPDEST PUSH2 0xA66 JUMPI PUSH1 0x40 MLOAD PUSH32 0x8C379A000000000000000000000000000000000000000000000000000000000 DUP2 MSTORE PUSH1 0x4 ADD PUSH2 0xA5D SWAP1 PUSH2 0x2565 JUMP JUMPDEST PUSH1 0x40 MLOAD DUP1 SWAP2 SUB SWAP1 REVERT JUMPDEST PUSH1 0x0 PUSH1 0x64 PUSH1 0xD PUSH1 0x0 DUP5 DUP2 MSTORE PUSH1 0x20 ADD SWAP1 DUP2 MSTORE PUSH1 0x20 ADD PUSH1 0x0 KECCAK256 DUP1 SLOAD SWAP1 POP PUSH1 0x6 PUSH1 0x0 DUP6 DUP2 MSTORE PUSH1 0x20 ADD SWAP1 DUP2 MSTORE PUSH1 0x20 ADD PUSH1 0x0 KECCAK256 SLOAD PUSH2 0xA9F SWAP2 SWAP1 PUSH2 0x2741 JUMP JUMPDEST PUSH2 0xAA9 SWAP2 SWAP1 PUSH2 0x2772 JUMP JUMPDEST SWAP1 POP PUSH1 0x7 PUSH1 0x0 DUP4 DUP2 MSTORE PUSH1 0x20 ADD SWAP1 DUP2 MSTORE PUSH1 0x20 ADD PUSH1 0x0 KECCAK256 SLOAD DUP2 LT PUSH2 0xAF2 JUMPI PUSH1 0x1 PUSH1 0x9 PUSH1 0x0 DUP5 DUP2 MSTORE PUSH1 0x20 ADD SWAP1 DUP2 MSTORE PUSH1 0x20 ADD PUSH1 0x0 KECCAK256 PUSH1 0x0 PUSH2 0x100 EXP DUP2 SLOAD DUP2 PUSH1 0xFF MUL NOT AND SWAP1 DUP4 ISZERO ISZERO MUL OR SWAP1 SSTORE POP JUMPDEST PUSH1 0x0 JUMPDEST PUSH1 0xD PUSH1 0x0 DUP5 DUP2 MSTORE PUSH1 0x20 ADD SWAP1 DUP2 MSTORE PUSH1 0x20 ADD PUSH1 0x0 KECCAK256 DUP1 SLOAD SWAP1 POP DUP2 PUSH1 0xFF AND LT ISZERO PUSH2 0xD86 JUMPI PUSH1 0x0 ISZERO ISZERO PUSH1 0xB PUSH1 0x0 DUP6 DUP2 MSTORE PUSH1 0x20 ADD SWAP1 DUP2 MSTORE PUSH1 0x20 ADD PUSH1 0x0 KECCAK256 PUSH1 0x0 PUSH1 0xD PUSH1 0x0 DUP8 DUP2 MSTORE PUSH1 0x20 ADD SWAP1 DUP2 MSTORE PUSH1 0x20 ADD PUSH1 0x0 KECCAK256 DUP5 PUSH1 0xFF AND DUP2 SLOAD DUP2 LT PUSH2 0xB57 JUMPI PUSH2 0xB56 PUSH2 0x2987 JUMP JUMPDEST JUMPDEST SWAP1 PUSH1 0x0 MSTORE PUSH1 0x20 PUSH1 0x0 KECCAK256 ADD PUSH1 0x0 SWAP1 SLOAD SWAP1 PUSH2 0x100 EXP SWAP1 DIV PUSH20 0xFFFFFFFFFFFFFFFFFFFFFFFFFFFFFFFFFFFFFFFF AND PUSH20 0xFFFFFFFFFFFFFFFFFFFFFFFFFFFFFFFFFFFFFFFF AND PUSH20 0xFFFFFFFFFFFFFFFFFFFFFFFFFFFFFFFFFFFFFFFF AND DUP2 MSTORE PUSH1 0x20 ADD SWAP1 DUP2 MSTORE PUSH1 0x20 ADD PUSH1 0x0 KECCAK256 PUSH1 0x0 ADD PUSH1 0x0 SWAP1 SLOAD SWAP1 PUSH2 0x100 EXP SWAP1 DIV PUSH1 0xFF AND ISZERO ISZERO EQ ISZERO PUSH2 0xD73 JUMPI PUSH1 0xC PUSH1 0x0 DUP5 DUP2 MSTORE PUSH1 0x20 ADD SWAP1 DUP2 MSTORE PUSH1 0x20 ADD PUSH1 0x0 KECCAK256 PUSH1 0xB PUSH1 0x0 DUP6 DUP2 MSTORE PUSH1 0x20 ADD SWAP1 DUP2 MSTORE PUSH1 0x20 ADD PUSH1 0x0 KECCAK256 PUSH1 0x0 PUSH1 0xD PUSH1 0x0 DUP8 DUP2 MSTORE PUSH1 0x20 ADD SWAP1 DUP2 MSTORE PUSH1 0x20 ADD PUSH1 0x0 KECCAK256 DUP5 PUSH1 0xFF AND DUP2 SLOAD DUP2 LT PUSH2 0xC25 JUMPI PUSH2 0xC24 PUSH2 0x2987 JUMP JUMPDEST JUMPDEST SWAP1 PUSH1 0x0 MSTORE PUSH1 0x20 PUSH1 0x0 KECCAK256 ADD PUSH1 0x0 SWAP1 SLOAD SWAP1 PUSH2 0x100 EXP SWAP1 DIV PUSH20 0xFFFFFFFFFFFFFFFFFFFFFFFFFFFFFFFFFFFFFFFF AND PUSH20 0xFFFFFFFFFFFFFFFFFFFFFFFFFFFFFFFFFFFFFFFF AND PUSH20 0xFFFFFFFFFFFFFFFFFFFFFFFFFFFFFFFFFFFFFFFF AND DUP2 MSTORE PUSH1 0x20 ADD SWAP1 DUP2 MSTORE PUSH1 0x20 ADD PUSH1 0x0 KECCAK256 SWAP1 DUP1 PUSH1 0x1 DUP2 SLOAD ADD DUP1 DUP3 SSTORE DUP1 SWAP2 POP POP PUSH1 0x1 SWAP1 SUB SWAP1 PUSH1 0x0 MSTORE PUSH1 0x20 PUSH1 0x0 KECCAK256 ADD PUSH1 0x0 SWAP1 SWAP2 SWAP1 SWAP2 SWAP1 SWAP2 POP PUSH1 0x0 DUP3 ADD PUSH1 0x0 SWAP1 SLOAD SWAP1 PUSH2 0x100 EXP SWAP1 DIV PUSH1 0xFF AND DUP2 PUSH1 0x0 ADD PUSH1 0x0 PUSH2 0x100 EXP DUP2 SLOAD DUP2 PUSH1 0xFF MUL NOT AND SWAP1 DUP4 ISZERO ISZERO MUL OR SWAP1 SSTORE POP PUSH1 0x0 DUP3 ADD PUSH1 0x1 SWAP1 SLOAD SWAP1 PUSH2 0x100 EXP SWAP1 DIV PUSH1 0xFF AND DUP2 PUSH1 0x0 ADD PUSH1 0x1 PUSH2 0x100 EXP DUP2 SLOAD DUP2 PUSH1 0xFF MUL NOT AND SWAP1 DUP4 ISZERO ISZERO MUL OR SWAP1 SSTORE POP PUSH1 0x0 DUP3 ADD PUSH1 0x2 SWAP1 SLOAD SWAP1 PUSH2 0x100 EXP SWAP1 DIV PUSH20 0xFFFFFFFFFFFFFFFFFFFFFFFFFFFFFFFFFFFFFFFF AND DUP2 PUSH1 0x0 ADD PUSH1 0x2 PUSH2 0x100 EXP DUP2 SLOAD DUP2 PUSH20 0xFFFFFFFFFFFFFFFFFFFFFFFFFFFFFFFFFFFFFFFF MUL NOT AND SWAP1 DUP4 PUSH20 0xFFFFFFFFFFFFFFFFFFFFFFFFFFFFFFFFFFFFFFFF AND MUL OR SWAP1 SSTORE POP POP POP JUMPDEST DUP1 DUP1 PUSH2 0xD7E SWAP1 PUSH2 0x28D0 JUMP JUMPDEST SWAP2 POP POP PUSH2 0xAF5 JUMP JUMPDEST POP PUSH1 0x1 PUSH1 0xA PUSH1 0x0 DUP5 DUP2 MSTORE PUSH1 0x20 ADD SWAP1 DUP2 MSTORE PUSH1 0x20 ADD PUSH1 0x0 KECCAK256 PUSH1 0x0 PUSH2 0x100 EXP DUP2 SLOAD DUP2 PUSH1 0xFF MUL NOT AND SWAP1 DUP4 ISZERO ISZERO MUL OR SWAP1 SSTORE POP POP POP JUMP JUMPDEST PUSH1 0xD PUSH1 0x20 MSTORE DUP2 PUSH1 0x0 MSTORE PUSH1 0x40 PUSH1 0x0 KECCAK256 DUP2 DUP2 SLOAD DUP2 LT PUSH2 0xDD3 JUMPI PUSH1 0x0 DUP1 REVERT JUMPDEST SWAP1 PUSH1 0x0 MSTORE PUSH1 0x20 PUSH1 0x0 KECCAK256 ADD PUSH1 0x0 SWAP2 POP SWAP2 POP SWAP1 SLOAD SWAP1 PUSH2 0x100 EXP SWAP1 DIV PUSH20 0xFFFFFFFFFFFFFFFFFFFFFFFFFFFFFFFFFFFFFFFF AND DUP2 JUMP JUMPDEST PUSH1 0x2 PUSH1 0x20 MSTORE DUP1 PUSH1 0x0 MSTORE PUSH1 0x40 PUSH1 0x0 KECCAK256 PUSH1 0x0 SWAP2 POP SWAP1 POP SLOAD DUP2 JUMP JUMPDEST PUSH1 0xA PUSH1 0x20 MSTORE DUP1 PUSH1 0x0 MSTORE PUSH1 0x40 PUSH1 0x0 KECCAK256 PUSH1 0x0 SWAP2 POP SLOAD SWAP1 PUSH2 0x100 EXP SWAP1 DIV PUSH1 0xFF AND DUP2 JUMP JUMPDEST PUSH1 0x40 MLOAD DUP1 PUSH1 0x40 ADD PUSH1 0x40 MSTORE DUP1 PUSH1 0x9 DUP2 MSTORE PUSH1 0x20 ADD PUSH32 0x6920617070726F76650000000000000000000000000000000000000000000000 DUP2 MSTORE POP DUP1 MLOAD SWAP1 PUSH1 0x20 ADD KECCAK256 DUP3 DUP1 MLOAD SWAP1 PUSH1 0x20 ADD KECCAK256 EQ ISZERO PUSH2 0x1106 JUMPI PUSH1 0x1 PUSH1 0xB PUSH1 0x0 DUP4 DUP2 MSTORE PUSH1 0x20 ADD SWAP1 DUP2 MSTORE PUSH1 0x20 ADD PUSH1 0x0 KECCAK256 PUSH1 0x0 CALLER PUSH20 0xFFFFFFFFFFFFFFFFFFFFFFFFFFFFFFFFFFFFFFFF AND PUSH20 0xFFFFFFFFFFFFFFFFFFFFFFFFFFFFFFFFFFFFFFFF AND DUP2 MSTORE PUSH1 0x20 ADD SWAP1 DUP2 MSTORE PUSH1 0x20 ADD PUSH1 0x0 KECCAK256 PUSH1 0x0 ADD PUSH1 0x0 PUSH2 0x100 EXP DUP2 SLOAD DUP2 PUSH1 0xFF MUL NOT AND SWAP1 DUP4 ISZERO ISZERO MUL OR SWAP1 SSTORE POP PUSH1 0x1 PUSH1 0xB PUSH1 0x0 DUP4 DUP2 MSTORE PUSH1 0x20 ADD SWAP1 DUP2 MSTORE PUSH1 0x20 ADD PUSH1 0x0 KECCAK256 PUSH1 0x0 CALLER PUSH20 0xFFFFFFFFFFFFFFFFFFFFFFFFFFFFFFFFFFFFFFFF AND PUSH20 0xFFFFFFFFFFFFFFFFFFFFFFFFFFFFFFFFFFFFFFFF AND DUP2 MSTORE PUSH1 0x20 ADD SWAP1 DUP2 MSTORE PUSH1 0x20 ADD PUSH1 0x0 KECCAK256 PUSH1 0x0 ADD PUSH1 0x1 PUSH2 0x100 EXP DUP2 SLOAD DUP2 PUSH1 0xFF MUL NOT AND SWAP1 DUP4 ISZERO ISZERO MUL OR SWAP1 SSTORE POP PUSH1 0x1 PUSH1 0x6 PUSH1 0x0 DUP4 DUP2 MSTORE PUSH1 0x20 ADD SWAP1 DUP2 MSTORE PUSH1 0x20 ADD PUSH1 0x0 KECCAK256 PUSH1 0x0 DUP3 DUP3 SLOAD PUSH2 0xF84 SWAP2 SWAP1 PUSH2 0x26EB JUMP JUMPDEST SWAP3 POP POP DUP2 SWAP1 SSTORE POP PUSH1 0x1 PUSH1 0x2 PUSH1 0x0 DUP4 DUP2 MSTORE PUSH1 0x20 ADD SWAP1 DUP2 MSTORE PUSH1 0x20 ADD PUSH1 0x0 KECCAK256 PUSH1 0x0 DUP3 DUP3 SLOAD PUSH2 0xFAF SWAP2 SWAP1 PUSH2 0x26EB JUMP JUMPDEST SWAP3 POP POP DUP2 SWAP1 SSTORE POP PUSH1 0xC PUSH1 0x0 DUP3 DUP2 MSTORE PUSH1 0x20 ADD SWAP1 DUP2 MSTORE PUSH1 0x20 ADD PUSH1 0x0 KECCAK256 PUSH1 0xB PUSH1 0x0 DUP4 DUP2 MSTORE PUSH1 0x20 ADD SWAP1 DUP2 MSTORE PUSH1 0x20 ADD PUSH1 0x0 KECCAK256 PUSH1 0x0 CALLER PUSH20 0xFFFFFFFFFFFFFFFFFFFFFFFFFFFFFFFFFFFFFFFF AND PUSH20 0xFFFFFFFFFFFFFFFFFFFFFFFFFFFFFFFFFFFFFFFF AND DUP2 MSTORE PUSH1 0x20 ADD SWAP1 DUP2 MSTORE PUSH1 0x20 ADD PUSH1 0x0 KECCAK256 SWAP1 DUP1 PUSH1 0x1 DUP2 SLOAD ADD DUP1 DUP3 SSTORE DUP1 SWAP2 POP POP PUSH1 0x1 SWAP1 SUB SWAP1 PUSH1 0x0 MSTORE PUSH1 0x20 PUSH1 0x0 KECCAK256 ADD PUSH1 0x0 SWAP1 SWAP2 SWAP1 SWAP2 SWAP1 SWAP2 POP PUSH1 0x0 DUP3 ADD PUSH1 0x0 SWAP1 SLOAD SWAP1 PUSH2 0x100 EXP SWAP1 DIV PUSH1 0xFF AND DUP2 PUSH1 0x0 ADD PUSH1 0x0 PUSH2 0x100 EXP DUP2 SLOAD DUP2 PUSH1 0xFF MUL NOT AND SWAP1 DUP4 ISZERO ISZERO MUL OR SWAP1 SSTORE POP PUSH1 0x0 DUP3 ADD PUSH1 0x1 SWAP1 SLOAD SWAP1 PUSH2 0x100 EXP SWAP1 DIV PUSH1 0xFF AND DUP2 PUSH1 0x0 ADD PUSH1 0x1 PUSH2 0x100 EXP DUP2 SLOAD DUP2 PUSH1 0xFF MUL NOT AND SWAP1 DUP4 ISZERO ISZERO MUL OR SWAP1 SSTORE POP PUSH1 0x0 DUP3 ADD PUSH1 0x2 SWAP1 SLOAD SWAP1 PUSH2 0x100 EXP SWAP1 DIV PUSH20 0xFFFFFFFFFFFFFFFFFFFFFFFFFFFFFFFFFFFFFFFF AND DUP2 PUSH1 0x0 ADD PUSH1 0x2 PUSH2 0x100 EXP DUP2 SLOAD DUP2 PUSH20 0xFFFFFFFFFFFFFFFFFFFFFFFFFFFFFFFFFFFFFFFF MUL NOT AND SWAP1 DUP4 PUSH20 0xFFFFFFFFFFFFFFFFFFFFFFFFFFFFFFFFFFFFFFFF AND MUL OR SWAP1 SSTORE POP POP POP PUSH2 0x151C JUMP JUMPDEST PUSH1 0x40 MLOAD DUP1 PUSH1 0x40 ADD PUSH1 0x40 MSTORE DUP1 PUSH1 0xC DUP2 MSTORE PUSH1 0x20 ADD PUSH32 0x6920646973617070726F76650000000000000000000000000000000000000000 DUP2 MSTORE POP DUP1 MLOAD SWAP1 PUSH1 0x20 ADD KECCAK256 DUP3 DUP1 MLOAD SWAP1 PUSH1 0x20 ADD KECCAK256 EQ ISZERO PUSH2 0x1338 JUMPI PUSH1 0x1 PUSH1 0xB PUSH1 0x0 DUP4 DUP2 MSTORE PUSH1 0x20 ADD SWAP1 DUP2 MSTORE PUSH1 0x20 ADD PUSH1 0x0 KECCAK256 PUSH1 0x0 CALLER PUSH20 0xFFFFFFFFFFFFFFFFFFFFFFFFFFFFFFFFFFFFFFFF AND PUSH20 0xFFFFFFFFFFFFFFFFFFFFFFFFFFFFFFFFFFFFFFFF AND DUP2 MSTORE PUSH1 0x20 ADD SWAP1 DUP2 MSTORE PUSH1 0x20 ADD PUSH1 0x0 KECCAK256 PUSH1 0x0 ADD PUSH1 0x0 PUSH2 0x100 EXP DUP2 SLOAD DUP2 PUSH1 0xFF MUL NOT AND SWAP1 DUP4 ISZERO ISZERO MUL OR SWAP1 SSTORE POP PUSH1 0x1 PUSH1 0x2 PUSH1 0x0 DUP4 DUP2 MSTORE PUSH1 0x20 ADD SWAP1 DUP2 MSTORE PUSH1 0x20 ADD PUSH1 0x0 KECCAK256 PUSH1 0x0 DUP3 DUP3 SLOAD PUSH2 0x11E1 SWAP2 SWAP1 PUSH2 0x26EB JUMP JUMPDEST SWAP3 POP POP DUP2 SWAP1 SSTORE POP PUSH1 0xC PUSH1 0x0 DUP3 DUP2 MSTORE PUSH1 0x20 ADD SWAP1 DUP2 MSTORE PUSH1 0x20 ADD PUSH1 0x0 KECCAK256 PUSH1 0xB PUSH1 0x0 DUP4 DUP2 MSTORE PUSH1 0x20 ADD SWAP1 DUP2 MSTORE PUSH1 0x20 ADD PUSH1 0x0 KECCAK256 PUSH1 0x0 CALLER PUSH20 0xFFFFFFFFFFFFFFFFFFFFFFFFFFFFFFFFFFFFFFFF AND PUSH20 0xFFFFFFFFFFFFFFFFFFFFFFFFFFFFFFFFFFFFFFFF AND DUP2 MSTORE PUSH1 0x20 ADD SWAP1 DUP2 MSTORE PUSH1 0x20 ADD PUSH1 0x0 KECCAK256 SWAP1 DUP1 PUSH1 0x1 DUP2 SLOAD ADD DUP1 DUP3 SSTORE DUP1 SWAP2 POP POP PUSH1 0x1 SWAP1 SUB SWAP1 PUSH1 0x0 MSTORE PUSH1 0x20 PUSH1 0x0 KECCAK256 ADD PUSH1 0x0 SWAP1 SWAP2 SWAP1 SWAP2 SWAP1 SWAP2 POP PUSH1 0x0 DUP3 ADD PUSH1 0x0 SWAP1 SLOAD SWAP1 PUSH2 0x100 EXP SWAP1 DIV PUSH1 0xFF AND DUP2 PUSH1 0x0 ADD PUSH1 0x0 PUSH2 0x100 EXP DUP2 SLOAD DUP2 PUSH1 0xFF MUL NOT AND SWAP1 DUP4 ISZERO ISZERO MUL OR SWAP1 SSTORE POP PUSH1 0x0 DUP3 ADD PUSH1 0x1 SWAP1 SLOAD SWAP1 PUSH2 0x100 EXP SWAP1 DIV PUSH1 0xFF AND DUP2 PUSH1 0x0 ADD PUSH1 0x1 PUSH2 0x100 EXP DUP2 SLOAD DUP2 PUSH1 0xFF MUL NOT AND SWAP1 DUP4 ISZERO ISZERO MUL OR SWAP1 SSTORE POP PUSH1 0x0 DUP3 ADD PUSH1 0x2 SWAP1 SLOAD SWAP1 PUSH2 0x100 EXP SWAP1 DIV PUSH20 0xFFFFFFFFFFFFFFFFFFFFFFFFFFFFFFFFFFFFFFFF AND DUP2 PUSH1 0x0 ADD PUSH1 0x2 PUSH2 0x100 EXP DUP2 SLOAD DUP2 PUSH20 0xFFFFFFFFFFFFFFFFFFFFFFFFFFFFFFFFFFFFFFFF MUL NOT AND SWAP1 DUP4 PUSH20 0xFFFFFFFFFFFFFFFFFFFFFFFFFFFFFFFFFFFFFFFF AND MUL OR SWAP1 SSTORE POP POP POP PUSH2 0x151B JUMP JUMPDEST PUSH1 0x1 PUSH1 0xB PUSH1 0x0 DUP4 DUP2 MSTORE PUSH1 0x20 ADD SWAP1 DUP2 MSTORE PUSH1 0x20 ADD PUSH1 0x0 KECCAK256 PUSH1 0x0 CALLER PUSH20 0xFFFFFFFFFFFFFFFFFFFFFFFFFFFFFFFFFFFFFFFF AND PUSH20 0xFFFFFFFFFFFFFFFFFFFFFFFFFFFFFFFFFFFFFFFF AND DUP2 MSTORE PUSH1 0x20 ADD SWAP1 DUP2 MSTORE PUSH1 0x20 ADD PUSH1 0x0 KECCAK256 PUSH1 0x0 ADD PUSH1 0x0 PUSH2 0x100 EXP DUP2 SLOAD DUP2 PUSH1 0xFF MUL NOT AND SWAP1 DUP4 ISZERO ISZERO MUL OR SWAP1 SSTORE POP PUSH1 0x1 PUSH1 0x2 PUSH1 0x0 DUP4 DUP2 MSTORE PUSH1 0x20 ADD SWAP1 DUP2 MSTORE PUSH1 0x20 ADD PUSH1 0x0 KECCAK256 PUSH1 0x0 DUP3 DUP3 SLOAD PUSH2 0x13C8 SWAP2 SWAP1 PUSH2 0x26EB JUMP JUMPDEST SWAP3 POP POP DUP2 SWAP1 SSTORE POP PUSH1 0xC PUSH1 0x0 DUP3 DUP2 MSTORE PUSH1 0x20 ADD SWAP1 DUP2 MSTORE PUSH1 0x20 ADD PUSH1 0x0 KECCAK256 PUSH1 0xB PUSH1 0x0 DUP4 DUP2 MSTORE PUSH1 0x20 ADD SWAP1 DUP2 MSTORE PUSH1 0x20 ADD PUSH1 0x0 KECCAK256 PUSH1 0x0 CALLER PUSH20 0xFFFFFFFFFFFFFFFFFFFFFFFFFFFFFFFFFFFFFFFF AND PUSH20 0xFFFFFFFFFFFFFFFFFFFFFFFFFFFFFFFFFFFFFFFF AND DUP2 MSTORE PUSH1 0x20 ADD SWAP1 DUP2 MSTORE PUSH1 0x20 ADD PUSH1 0x0 KECCAK256 SWAP1 DUP1 PUSH1 0x1 DUP2 SLOAD ADD DUP1 DUP3 SSTORE DUP1 SWAP2 POP POP PUSH1 0x1 SWAP1 SUB SWAP1 PUSH1 0x0 MSTORE PUSH1 0x20 PUSH1 0x0 KECCAK256 ADD PUSH1 0x0 SWAP1 SWAP2 SWAP1 SWAP2 SWAP1 SWAP2 POP PUSH1 0x0 DUP3 ADD PUSH1 0x0 SWAP1 SLOAD SWAP1 PUSH2 0x100 EXP SWAP1 DIV PUSH1 0xFF AND DUP2 PUSH1 0x0 ADD PUSH1 0x0 PUSH2 0x100 EXP DUP2 SLOAD DUP2 PUSH1 0xFF MUL NOT AND SWAP1 DUP4 ISZERO ISZERO MUL OR SWAP1 SSTORE POP PUSH1 0x0 DUP3 ADD PUSH1 0x1 SWAP1 SLOAD SWAP1 PUSH2 0x100 EXP SWAP1 DIV PUSH1 0xFF AND DUP2 PUSH1 0x0 ADD PUSH1 0x1 PUSH2 0x100 EXP DUP2 SLOAD DUP2 PUSH1 0xFF MUL NOT AND SWAP1 DUP4 ISZERO ISZERO MUL OR SWAP1 SSTORE POP PUSH1 0x0 DUP3 ADD PUSH1 0x2 SWAP1 SLOAD SWAP1 PUSH2 0x100 EXP SWAP1 DIV PUSH20 0xFFFFFFFFFFFFFFFFFFFFFFFFFFFFFFFFFFFFFFFF AND DUP2 PUSH1 0x0 ADD PUSH1 0x2 PUSH2 0x100 EXP DUP2 SLOAD DUP2 PUSH20 0xFFFFFFFFFFFFFFFFFFFFFFFFFFFFFFFFFFFFFFFF MUL NOT AND SWAP1 DUP4 PUSH20 0xFFFFFFFFFFFFFFFFFFFFFFFFFFFFFFFFFFFFFFFF AND MUL OR SWAP1 SSTORE POP POP POP JUMPDEST JUMPDEST POP POP JUMP JUMPDEST PUSH1 0x0 PUSH1 0x60 PUSH1 0x1 PUSH1 0x0 DUP5 DUP2 MSTORE PUSH1 0x20 ADD SWAP1 DUP2 MSTORE PUSH1 0x20 ADD PUSH1 0x0 KECCAK256 SLOAD PUSH1 0x8 PUSH1 0x0 DUP6 DUP2 MSTORE PUSH1 0x20 ADD SWAP1 DUP2 MSTORE PUSH1 0x20 ADD PUSH1 0x0 KECCAK256 DUP1 DUP1 SLOAD PUSH2 0x1557 SWAP1 PUSH2 0x286D JUMP JUMPDEST DUP1 PUSH1 0x1F ADD PUSH1 0x20 DUP1 SWAP2 DIV MUL PUSH1 0x20 ADD PUSH1 0x40 MLOAD SWAP1 DUP2 ADD PUSH1 0x40 MSTORE DUP1 SWAP3 SWAP2 SWAP1 DUP2 DUP2 MSTORE PUSH1 0x20 ADD DUP3 DUP1 SLOAD PUSH2 0x1583 SWAP1 PUSH2 0x286D JUMP JUMPDEST DUP1 ISZERO PUSH2 0x15D0 JUMPI DUP1 PUSH1 0x1F LT PUSH2 0x15A5 JUMPI PUSH2 0x100 DUP1 DUP4 SLOAD DIV MUL DUP4 MSTORE SWAP2 PUSH1 0x20 ADD SWAP2 PUSH2 0x15D0 JUMP JUMPDEST DUP3 ADD SWAP2 SWAP1 PUSH1 0x0 MSTORE PUSH1 0x20 PUSH1 0x0 KECCAK256 SWAP1 JUMPDEST DUP2 SLOAD DUP2 MSTORE SWAP1 PUSH1 0x1 ADD SWAP1 PUSH1 0x20 ADD DUP1 DUP4 GT PUSH2 0x15B3 JUMPI DUP3 SWAP1 SUB PUSH1 0x1F AND DUP3 ADD SWAP2 JUMPDEST POP POP POP POP POP SWAP1 POP SWAP2 POP SWAP2 POP SWAP2 POP SWAP2 JUMP JUMPDEST PUSH1 0x8 PUSH1 0x20 MSTORE DUP1 PUSH1 0x0 MSTORE PUSH1 0x40 PUSH1 0x0 KECCAK256 PUSH1 0x0 SWAP2 POP SWAP1 POP DUP1 SLOAD PUSH2 0x15FF SWAP1 PUSH2 0x286D JUMP JUMPDEST DUP1 PUSH1 0x1F ADD PUSH1 0x20 DUP1 SWAP2 DIV MUL PUSH1 0x20 ADD PUSH1 0x40 MLOAD SWAP1 DUP2 ADD PUSH1 0x40 MSTORE DUP1 SWAP3 SWAP2 SWAP1 DUP2 DUP2 MSTORE PUSH1 0x20 ADD DUP3 DUP1 SLOAD PUSH2 0x162B SWAP1 PUSH2 0x286D JUMP JUMPDEST DUP1 ISZERO PUSH2 0x1678 JUMPI DUP1 PUSH1 0x1F LT PUSH2 0x164D JUMPI PUSH2 0x100 DUP1 DUP4 SLOAD DIV MUL DUP4 MSTORE SWAP2 PUSH1 0x20 ADD SWAP2 PUSH2 0x1678 JUMP JUMPDEST DUP3 ADD SWAP2 SWAP1 PUSH1 0x0 MSTORE PUSH1 0x20 PUSH1 0x0 KECCAK256 SWAP1 JUMPDEST DUP2 SLOAD DUP2 MSTORE SWAP1 PUSH1 0x1 ADD SWAP1 PUSH1 0x20 ADD DUP1 DUP4 GT PUSH2 0x165B JUMPI DUP3 SWAP1 SUB PUSH1 0x1F AND DUP3 ADD SWAP2 JUMPDEST POP POP POP POP POP DUP2 JUMP JUMPDEST PUSH1 0xB PUSH1 0x20 MSTORE DUP2 PUSH1 0x0 MSTORE PUSH1 0x40 PUSH1 0x0 KECCAK256 PUSH1 0x20 MSTORE DUP1 PUSH1 0x0 MSTORE PUSH1 0x40 PUSH1 0x0 KECCAK256 PUSH1 0x0 SWAP2 POP SWAP2 POP POP DUP1 PUSH1 0x0 ADD PUSH1 0x0 SWAP1 SLOAD SWAP1 PUSH2 0x100 EXP SWAP1 DIV PUSH1 0xFF AND SWAP1 DUP1 PUSH1 0x0 ADD PUSH1 0x1 SWAP1 SLOAD SWAP1 PUSH2 0x100 EXP SWAP1 DIV PUSH1 0xFF AND SWAP1 DUP1 PUSH1 0x0 ADD PUSH1 0x2 SWAP1 SLOAD SWAP1 PUSH2 0x100 EXP SWAP1 DIV PUSH20 0xFFFFFFFFFFFFFFFFFFFFFFFFFFFFFFFFFFFFFFFF AND SWAP1 POP DUP4 JUMP JUMPDEST PUSH1 0x0 PUSH20 0xFFFFFFFFFFFFFFFFFFFFFFFFFFFFFFFFFFFFFFFF AND PUSH1 0x0 DUP1 DUP9 DUP2 MSTORE PUSH1 0x20 ADD SWAP1 DUP2 MSTORE PUSH1 0x20 ADD PUSH1 0x0 KECCAK256 PUSH1 0x0 SWAP1 SLOAD SWAP1 PUSH2 0x100 EXP SWAP1 DIV PUSH20 0xFFFFFFFFFFFFFFFFFFFFFFFFFFFFFFFFFFFFFFFF AND PUSH20 0xFFFFFFFFFFFFFFFFFFFFFFFFFFFFFFFFFFFFFFFF AND EQ PUSH2 0x1792 JUMPI PUSH1 0x40 MLOAD PUSH32 0x8C379A000000000000000000000000000000000000000000000000000000000 DUP2 MSTORE PUSH1 0x4 ADD PUSH2 0x1789 SWAP1 PUSH2 0x2545 JUMP JUMPDEST PUSH1 0x40 MLOAD DUP1 SWAP2 SUB SWAP1 REVERT JUMPDEST PUSH1 0x0 PUSH1 0x2 PUSH1 0x0 DUP9 DUP2 MSTORE PUSH1 0x20 ADD SWAP1 DUP2 MSTORE PUSH1 0x20 ADD PUSH1 0x0 KECCAK256 DUP2 SWAP1 SSTORE POP DUP5 TIMESTAMP PUSH2 0x17B7 SWAP2 SWAP1 PUSH2 0x26EB JUMP JUMPDEST PUSH1 0x4 PUSH1 0x0 DUP9 DUP2 MSTORE PUSH1 0x20 ADD SWAP1 DUP2 MSTORE PUSH1 0x20 ADD PUSH1 0x0 KECCAK256 DUP2 SWAP1 SSTORE POP DUP6 PUSH1 0x1 PUSH1 0x0 DUP4 DUP2 MSTORE PUSH1 0x20 ADD SWAP1 DUP2 MSTORE PUSH1 0x20 ADD PUSH1 0x0 KECCAK256 DUP2 SWAP1 SSTORE POP PUSH1 0x0 PUSH1 0xA PUSH1 0x0 DUP9 DUP2 MSTORE PUSH1 0x20 ADD SWAP1 DUP2 MSTORE PUSH1 0x20 ADD PUSH1 0x0 KECCAK256 PUSH1 0x0 PUSH2 0x100 EXP DUP2 SLOAD DUP2 PUSH1 0xFF MUL NOT AND SWAP1 DUP4 ISZERO ISZERO MUL OR SWAP1 SSTORE POP DUP4 PUSH1 0x7 PUSH1 0x0 DUP9 DUP2 MSTORE PUSH1 0x20 ADD SWAP1 DUP2 MSTORE PUSH1 0x20 ADD PUSH1 0x0 KECCAK256 DUP2 SWAP1 SSTORE POP DUP4 PUSH1 0x7 PUSH1 0x0 DUP4 DUP2 MSTORE PUSH1 0x20 ADD SWAP1 DUP2 MSTORE PUSH1 0x20 ADD PUSH1 0x0 KECCAK256 DUP2 SWAP1 SSTORE POP PUSH1 0x0 PUSH1 0x9 PUSH1 0x0 DUP9 DUP2 MSTORE PUSH1 0x20 ADD SWAP1 DUP2 MSTORE PUSH1 0x20 ADD PUSH1 0x0 KECCAK256 PUSH1 0x0 PUSH2 0x100 EXP DUP2 SLOAD DUP2 PUSH1 0xFF MUL NOT AND SWAP1 DUP4 ISZERO ISZERO MUL OR SWAP1 SSTORE POP DUP5 PUSH1 0x3 PUSH1 0x0 DUP4 DUP2 MSTORE PUSH1 0x20 ADD SWAP1 DUP2 MSTORE PUSH1 0x20 ADD PUSH1 0x0 KECCAK256 DUP2 SWAP1 SSTORE POP DUP3 PUSH1 0x5 PUSH1 0x0 DUP4 DUP2 MSTORE PUSH1 0x20 ADD SWAP1 DUP2 MSTORE PUSH1 0x20 ADD PUSH1 0x0 KECCAK256 DUP2 SWAP1 SSTORE POP DUP2 PUSH1 0x8 PUSH1 0x0 DUP4 DUP2 MSTORE PUSH1 0x20 ADD SWAP1 DUP2 MSTORE PUSH1 0x20 ADD PUSH1 0x0 KECCAK256 SWAP1 DUP1 MLOAD SWAP1 PUSH1 0x20 ADD SWAP1 PUSH2 0x18C5 SWAP3 SWAP2 SWAP1 PUSH2 0x1DBA JUMP JUMPDEST POP PUSH1 0x0 PUSH1 0x6 PUSH1 0x0 DUP9 DUP2 MSTORE PUSH1 0x20 ADD SWAP1 DUP2 MSTORE PUSH1 0x20 ADD PUSH1 0x0 KECCAK256 DUP2 SWAP1 SSTORE POP CALLER PUSH1 0x0 DUP1 DUP9 DUP2 MSTORE PUSH1 0x20 ADD SWAP1 DUP2 MSTORE PUSH1 0x20 ADD PUSH1 0x0 KECCAK256 PUSH1 0x0 PUSH2 0x100 EXP DUP2 SLOAD DUP2 PUSH20 0xFFFFFFFFFFFFFFFFFFFFFFFFFFFFFFFFFFFFFFFF MUL NOT AND SWAP1 DUP4 PUSH20 0xFFFFFFFFFFFFFFFFFFFFFFFFFFFFFFFFFFFFFFFF AND MUL OR SWAP1 SSTORE POP POP POP POP POP POP POP JUMP JUMPDEST PUSH1 0x0 PUSH1 0x20 MSTORE DUP1 PUSH1 0x0 MSTORE PUSH1 0x40 PUSH1 0x0 KECCAK256 PUSH1 0x0 SWAP2 POP SLOAD SWAP1 PUSH2 0x100 EXP SWAP1 DIV PUSH20 0xFFFFFFFFFFFFFFFFFFFFFFFFFFFFFFFFFFFFFFFF AND DUP2 JUMP JUMPDEST PUSH1 0x0 DUP1 DUP3 DUP2 MSTORE PUSH1 0x20 ADD SWAP1 DUP2 MSTORE PUSH1 0x20 ADD PUSH1 0x0 KECCAK256 PUSH1 0x0 SWAP1 SLOAD SWAP1 PUSH2 0x100 EXP SWAP1 DIV PUSH20 0xFFFFFFFFFFFFFFFFFFFFFFFFFFFFFFFFFFFFFFFF AND PUSH20 0xFFFFFFFFFFFFFFFFFFFFFFFFFFFFFFFFFFFFFFFF AND CALLER PUSH20 0xFFFFFFFFFFFFFFFFFFFFFFFFFFFFFFFFFFFFFFFF AND EQ PUSH2 0x1A0B JUMPI PUSH1 0x40 MLOAD PUSH32 0x8C379A000000000000000000000000000000000000000000000000000000000 DUP2 MSTORE PUSH1 0x4 ADD PUSH2 0x1A02 SWAP1 PUSH2 0x25C5 JUMP JUMPDEST PUSH1 0x40 MLOAD DUP1 SWAP2 SUB SWAP1 REVERT JUMPDEST PUSH1 0x0 DUP1 DUP3 DUP2 MSTORE PUSH1 0x20 ADD SWAP1 DUP2 MSTORE PUSH1 0x20 ADD PUSH1 0x0 KECCAK256 PUSH1 0x0 SWAP1 SLOAD SWAP1 PUSH2 0x100 EXP SWAP1 DIV PUSH20 0xFFFFFFFFFFFFFFFFFFFFFFFFFFFFFFFFFFFFFFFF AND PUSH20 0xFFFFFFFFFFFFFFFFFFFFFFFFFFFFFFFFFFFFFFFF AND DUP3 PUSH20 0xFFFFFFFFFFFFFFFFFFFFFFFFFFFFFFFFFFFFFFFF AND EQ ISZERO PUSH2 0x1AAC JUMPI PUSH1 0x40 MLOAD PUSH32 0x8C379A000000000000000000000000000000000000000000000000000000000 DUP2 MSTORE PUSH1 0x4 ADD PUSH2 0x1AA3 SWAP1 PUSH2 0x2585 JUMP JUMPDEST PUSH1 0x40 MLOAD DUP1 SWAP2 SUB SWAP1 REVERT JUMPDEST PUSH1 0x0 PUSH20 0xFFFFFFFFFFFFFFFFFFFFFFFFFFFFFFFFFFFFFFFF AND PUSH1 0xB PUSH1 0x0 DUP4 DUP2 MSTORE PUSH1 0x20 ADD SWAP1 DUP2 MSTORE PUSH1 0x20 ADD PUSH1 0x0 KECCAK256 PUSH1 0x0 DUP5 PUSH20 0xFFFFFFFFFFFFFFFFFFFFFFFFFFFFFFFFFFFFFFFF AND PUSH20 0xFFFFFFFFFFFFFFFFFFFFFFFFFFFFFFFFFFFFFFFF AND DUP2 MSTORE PUSH1 0x20 ADD SWAP1 DUP2 MSTORE PUSH1 0x20 ADD PUSH1 0x0 KECCAK256 PUSH1 0x0 ADD PUSH1 0x2 SWAP1 SLOAD SWAP1 PUSH2 0x100 EXP SWAP1 DIV PUSH20 0xFFFFFFFFFFFFFFFFFFFFFFFFFFFFFFFFFFFFFFFF AND PUSH20 0xFFFFFFFFFFFFFFFFFFFFFFFFFFFFFFFFFFFFFFFF AND EQ PUSH2 0x1B8E JUMPI PUSH1 0x40 MLOAD PUSH32 0x8C379A000000000000000000000000000000000000000000000000000000000 DUP2 MSTORE PUSH1 0x4 ADD PUSH2 0x1B85 SWAP1 PUSH2 0x2525 JUMP JUMPDEST PUSH1 0x40 MLOAD DUP1 SWAP2 SUB SWAP1 REVERT JUMPDEST PUSH1 0x4 PUSH1 0x0 DUP3 DUP2 MSTORE PUSH1 0x20 ADD SWAP1 DUP2 MSTORE PUSH1 0x20 ADD PUSH1 0x0 KECCAK256 SLOAD TIMESTAMP LT PUSH2 0x1BE3 JUMPI PUSH1 0x40 MLOAD PUSH32 0x8C379A000000000000000000000000000000000000000000000000000000000 DUP2 MSTORE PUSH1 0x4 ADD PUSH2 0x1BDA SWAP1 PUSH2 0x25A5 JUMP JUMPDEST PUSH1 0x40 MLOAD DUP1 SWAP2 SUB SWAP1 REVERT JUMPDEST PUSH1 0x0 PUSH1 0x40 MLOAD DUP1 PUSH1 0x60 ADD PUSH1 0x40 MSTORE DUP1 PUSH1 0x0 ISZERO ISZERO DUP2 MSTORE PUSH1 0x20 ADD PUSH1 0x0 ISZERO ISZERO DUP2 MSTORE PUSH1 0x20 ADD DUP5 PUSH20 0xFFFFFFFFFFFFFFFFFFFFFFFFFFFFFFFFFFFFFFFF AND DUP2 MSTORE POP SWAP1 POP DUP1 PUSH1 0xB PUSH1 0x0 DUP5 DUP2 MSTORE PUSH1 0x20 ADD SWAP1 DUP2 MSTORE PUSH1 0x20 ADD PUSH1 0x0 KECCAK256 PUSH1 0x0 DUP6 PUSH20 0xFFFFFFFFFFFFFFFFFFFFFFFFFFFFFFFFFFFFFFFF AND PUSH20 0xFFFFFFFFFFFFFFFFFFFFFFFFFFFFFFFFFFFFFFFF AND DUP2 MSTORE PUSH1 0x20 ADD SWAP1 DUP2 MSTORE PUSH1 0x20 ADD PUSH1 0x0 KECCAK256 PUSH1 0x0 DUP3 ADD MLOAD DUP2 PUSH1 0x0 ADD PUSH1 0x0 PUSH2 0x100 EXP DUP2 SLOAD DUP2 PUSH1 0xFF MUL NOT AND SWAP1 DUP4 ISZERO ISZERO MUL OR SWAP1 SSTORE POP PUSH1 0x20 DUP3 ADD MLOAD DUP2 PUSH1 0x0 ADD PUSH1 0x1 PUSH2 0x100 EXP DUP2 SLOAD DUP2 PUSH1 0xFF MUL NOT AND SWAP1 DUP4 ISZERO ISZERO MUL OR SWAP1 SSTORE POP PUSH1 0x40 DUP3 ADD MLOAD DUP2 PUSH1 0x0 ADD PUSH1 0x2 PUSH2 0x100 EXP DUP2 SLOAD DUP2 PUSH20 0xFFFFFFFFFFFFFFFFFFFFFFFFFFFFFFFFFFFFFFFF MUL NOT AND SWAP1 DUP4 PUSH20 0xFFFFFFFFFFFFFFFFFFFFFFFFFFFFFFFFFFFFFFFF AND MUL OR SWAP1 SSTORE POP SWAP1 POP POP PUSH1 0xD PUSH1 0x0 DUP4 DUP2 MSTORE PUSH1 0x20 ADD SWAP1 DUP2 MSTORE PUSH1 0x20 ADD PUSH1 0x0 KECCAK256 DUP4 SWAP1 DUP1 PUSH1 0x1 DUP2 SLOAD ADD DUP1 DUP3 SSTORE DUP1 SWAP2 POP POP PUSH1 0x1 SWAP1 SUB SWAP1 PUSH1 0x0 MSTORE PUSH1 0x20 PUSH1 0x0 KECCAK256 ADD PUSH1 0x0 SWAP1 SWAP2 SWAP1 SWAP2 SWAP1 SWAP2 PUSH2 0x100 EXP DUP2 SLOAD DUP2 PUSH20 0xFFFFFFFFFFFFFFFFFFFFFFFFFFFFFFFFFFFFFFFF MUL NOT AND SWAP1 DUP4 PUSH20 0xFFFFFFFFFFFFFFFFFFFFFFFFFFFFFFFFFFFFFFFF AND MUL OR SWAP1 SSTORE POP POP POP POP JUMP JUMPDEST PUSH1 0x6 PUSH1 0x20 MSTORE DUP1 PUSH1 0x0 MSTORE PUSH1 0x40 PUSH1 0x0 KECCAK256 PUSH1 0x0 SWAP2 POP SWAP1 POP SLOAD DUP2 JUMP JUMPDEST PUSH1 0x1 PUSH1 0x20 MSTORE DUP1 PUSH1 0x0 MSTORE PUSH1 0x40 PUSH1 0x0 KECCAK256 PUSH1 0x0 SWAP2 POP SWAP1 POP SLOAD DUP2 JUMP JUMPDEST PUSH1 0x5 PUSH1 0x20 MSTORE DUP1 PUSH1 0x0 MSTORE PUSH1 0x40 PUSH1 0x0 KECCAK256 PUSH1 0x0 SWAP2 POP SWAP1 POP SLOAD DUP2 JUMP JUMPDEST DUP3 DUP1 SLOAD PUSH2 0x1DC6 SWAP1 PUSH2 0x286D JUMP JUMPDEST SWAP1 PUSH1 0x0 MSTORE PUSH1 0x20 PUSH1 0x0 KECCAK256 SWAP1 PUSH1 0x1F ADD PUSH1 0x20 SWAP1 DIV DUP2 ADD SWAP3 DUP3 PUSH2 0x1DE8 JUMPI PUSH1 0x0 DUP6 SSTORE PUSH2 0x1E2F JUMP JUMPDEST DUP3 PUSH1 0x1F LT PUSH2 0x1E01 JUMPI DUP1 MLOAD PUSH1 0xFF NOT AND DUP4 DUP1 ADD OR DUP6 SSTORE PUSH2 0x1E2F JUMP JUMPDEST DUP3 DUP1 ADD PUSH1 0x1 ADD DUP6 SSTORE DUP3 ISZERO PUSH2 0x1E2F JUMPI SWAP2 DUP3 ADD JUMPDEST DUP3 DUP2 GT ISZERO PUSH2 0x1E2E JUMPI DUP3 MLOAD DUP3 SSTORE SWAP2 PUSH1 0x20 ADD SWAP2 SWAP1 PUSH1 0x1 ADD SWAP1 PUSH2 0x1E13 JUMP JUMPDEST JUMPDEST POP SWAP1 POP PUSH2 0x1E3C SWAP2 SWAP1 PUSH2 0x1E40 JUMP JUMPDEST POP SWAP1 JUMP JUMPDEST JUMPDEST DUP1 DUP3 GT ISZERO PUSH2 0x1E59 JUMPI PUSH1 0x0 DUP2 PUSH1 0x0 SWAP1 SSTORE POP PUSH1 0x1 ADD PUSH2 0x1E41 JUMP JUMPDEST POP SWAP1 JUMP JUMPDEST PUSH1 0x0 PUSH2 0x1E70 PUSH2 0x1E6B DUP5 PUSH2 0x2665 JUMP JUMPDEST PUSH2 0x2640 JUMP JUMPDEST SWAP1 POP DUP3 DUP2 MSTORE PUSH1 0x20 DUP2 ADD DUP5 DUP5 DUP5 ADD GT ISZERO PUSH2 0x1E8C JUMPI PUSH2 0x1E8B PUSH2 0x29EA JUMP JUMPDEST JUMPDEST PUSH2 0x1E97 DUP5 DUP3 DUP6 PUSH2 0x282B JUMP JUMPDEST POP SWAP4 SWAP3 POP POP POP JUMP JUMPDEST PUSH1 0x0 DUP2 CALLDATALOAD SWAP1 POP PUSH2 0x1EAE DUP2 PUSH2 0x2BEA JUMP JUMPDEST SWAP3 SWAP2 POP POP JUMP JUMPDEST PUSH1 0x0 DUP2 CALLDATALOAD SWAP1 POP PUSH2 0x1EC3 DUP2 PUSH2 0x2C01 JUMP JUMPDEST SWAP3 SWAP2 POP POP JUMP JUMPDEST PUSH1 0x0 DUP3 PUSH1 0x1F DUP4 ADD SLT PUSH2 0x1EDE JUMPI PUSH2 0x1EDD PUSH2 0x29E5 JUMP JUMPDEST JUMPDEST DUP2 CALLDATALOAD PUSH2 0x1EEE DUP5 DUP3 PUSH1 0x20 DUP7 ADD PUSH2 0x1E5D JUMP JUMPDEST SWAP2 POP POP SWAP3 SWAP2 POP POP JUMP JUMPDEST PUSH1 0x0 DUP2 CALLDATALOAD SWAP1 POP PUSH2 0x1F06 DUP2 PUSH2 0x2C18 JUMP JUMPDEST SWAP3 SWAP2 POP POP JUMP JUMPDEST PUSH1 0x0 DUP1 PUSH1 0x40 DUP4 DUP6 SUB SLT ISZERO PUSH2 0x1F23 JUMPI PUSH2 0x1F22 PUSH2 0x29F4 JUMP JUMPDEST JUMPDEST PUSH1 0x0 PUSH2 0x1F31 DUP6 DUP3 DUP7 ADD PUSH2 0x1E9F JUMP JUMPDEST SWAP3 POP POP PUSH1 0x20 PUSH2 0x1F42 DUP6 DUP3 DUP7 ADD PUSH2 0x1EB4 JUMP JUMPDEST SWAP2 POP POP SWAP3 POP SWAP3 SWAP1 POP JUMP JUMPDEST PUSH1 0x0 PUSH1 0x20 DUP3 DUP5 SUB SLT ISZERO PUSH2 0x1F62 JUMPI PUSH2 0x1F61 PUSH2 0x29F4 JUMP JUMPDEST JUMPDEST PUSH1 0x0 PUSH2 0x1F70 DUP5 DUP3 DUP6 ADD PUSH2 0x1EB4 JUMP JUMPDEST SWAP2 POP POP SWAP3 SWAP2 POP POP JUMP JUMPDEST PUSH1 0x0 DUP1 PUSH1 0x40 DUP4 DUP6 SUB SLT ISZERO PUSH2 0x1F90 JUMPI PUSH2 0x1F8F PUSH2 0x29F4 JUMP JUMPDEST JUMPDEST PUSH1 0x0 PUSH2 0x1F9E DUP6 DUP3 DUP7 ADD PUSH2 0x1EB4 JUMP JUMPDEST SWAP3 POP POP PUSH1 0x20 PUSH2 0x1FAF DUP6 DUP3 DUP7 ADD PUSH2 0x1E9F JUMP JUMPDEST SWAP2 POP POP SWAP3 POP SWAP3 SWAP1 POP JUMP JUMPDEST PUSH1 0x0 DUP1 PUSH1 0x40 DUP4 DUP6 SUB SLT ISZERO PUSH2 0x1FD0 JUMPI PUSH2 0x1FCF PUSH2 0x29F4 JUMP JUMPDEST JUMPDEST PUSH1 0x0 PUSH2 0x1FDE DUP6 DUP3 DUP7 ADD PUSH2 0x1EB4 JUMP JUMPDEST SWAP3 POP POP PUSH1 0x20 PUSH2 0x1FEF DUP6 DUP3 DUP7 ADD PUSH2 0x1EF7 JUMP JUMPDEST SWAP2 POP POP SWAP3 POP SWAP3 SWAP1 POP JUMP JUMPDEST PUSH1 0x0 DUP1 PUSH1 0x0 DUP1 PUSH1 0x80 DUP6 DUP8 SUB SLT ISZERO PUSH2 0x2013 JUMPI PUSH2 0x2012 PUSH2 0x29F4 JUMP JUMPDEST JUMPDEST PUSH1 0x0 PUSH2 0x2021 DUP8 DUP3 DUP9 ADD PUSH2 0x1EB4 JUMP JUMPDEST SWAP5 POP POP PUSH1 0x20 PUSH2 0x2032 DUP8 DUP3 DUP9 ADD PUSH2 0x1EF7 JUMP JUMPDEST SWAP4 POP POP PUSH1 0x40 PUSH2 0x2043 DUP8 DUP3 DUP9 ADD PUSH2 0x1EF7 JUMP JUMPDEST SWAP3 POP POP PUSH1 0x60 PUSH2 0x2054 DUP8 DUP3 DUP9 ADD PUSH2 0x1EB4 JUMP JUMPDEST SWAP2 POP POP SWAP3 SWAP6 SWAP2 SWAP5 POP SWAP3 POP JUMP JUMPDEST PUSH1 0x0 DUP1 PUSH1 0x0 DUP1 PUSH1 0x0 DUP1 PUSH1 0xC0 DUP8 DUP10 SUB SLT ISZERO PUSH2 0x207D JUMPI PUSH2 0x207C PUSH2 0x29F4 JUMP JUMPDEST JUMPDEST PUSH1 0x0 PUSH2 0x208B DUP10 DUP3 DUP11 ADD PUSH2 0x1EB4 JUMP JUMPDEST SWAP7 POP POP PUSH1 0x20 PUSH2 0x209C DUP10 DUP3 DUP11 ADD PUSH2 0x1EF7 JUMP JUMPDEST SWAP6 POP POP PUSH1 0x40 PUSH2 0x20AD DUP10 DUP3 DUP11 ADD PUSH2 0x1EF7 JUMP JUMPDEST SWAP5 POP POP PUSH1 0x60 PUSH2 0x20BE DUP10 DUP3 DUP11 ADD PUSH2 0x1EB4 JUMP JUMPDEST SWAP4 POP POP PUSH1 0x80 DUP8 ADD CALLDATALOAD PUSH8 0xFFFFFFFFFFFFFFFF DUP2 GT ISZERO PUSH2 0x20DF JUMPI PUSH2 0x20DE PUSH2 0x29EF JUMP JUMPDEST JUMPDEST PUSH2 0x20EB DUP10 DUP3 DUP11 ADD PUSH2 0x1EC9 JUMP JUMPDEST SWAP3 POP POP PUSH1 0xA0 PUSH2 0x20FC DUP10 DUP3 DUP11 ADD PUSH2 0x1EB4 JUMP JUMPDEST SWAP2 POP POP SWAP3 SWAP6 POP SWAP3 SWAP6 POP SWAP3 SWAP6 JUMP JUMPDEST PUSH1 0x0 DUP1 PUSH1 0x40 DUP4 DUP6 SUB SLT ISZERO PUSH2 0x2120 JUMPI PUSH2 0x211F PUSH2 0x29F4 JUMP JUMPDEST JUMPDEST PUSH1 0x0 DUP4 ADD CALLDATALOAD PUSH8 0xFFFFFFFFFFFFFFFF DUP2 GT ISZERO PUSH2 0x213E JUMPI PUSH2 0x213D PUSH2 0x29EF JUMP JUMPDEST JUMPDEST PUSH2 0x214A DUP6 DUP3 DUP7 ADD PUSH2 0x1EC9 JUMP JUMPDEST SWAP3 POP POP PUSH1 0x20 PUSH2 0x215B DUP6 DUP3 DUP7 ADD PUSH2 0x1EB4 JUMP JUMPDEST SWAP2 POP POP SWAP3 POP SWAP3 SWAP1 POP JUMP JUMPDEST PUSH1 0x0 PUSH2 0x2171 DUP4 DUP4 PUSH2 0x2377 JUMP JUMPDEST PUSH1 0x60 DUP4 ADD SWAP1 POP SWAP3 SWAP2 POP POP JUMP JUMPDEST PUSH2 0x2186 DUP2 PUSH2 0x27CC JUMP JUMPDEST DUP3 MSTORE POP POP JUMP JUMPDEST PUSH2 0x2195 DUP2 PUSH2 0x27CC JUMP JUMPDEST DUP3 MSTORE POP POP JUMP JUMPDEST PUSH1 0x0 PUSH2 0x21A6 DUP3 PUSH2 0x26A6 JUMP JUMPDEST PUSH2 0x21B0 DUP2 DUP6 PUSH2 0x26C9 JUMP JUMPDEST SWAP4 POP PUSH2 0x21BB DUP4 PUSH2 0x2696 JUMP JUMPDEST DUP1 PUSH1 0x0 JUMPDEST DUP4 DUP2 LT ISZERO PUSH2 0x21EC JUMPI DUP2 MLOAD PUSH2 0x21D3 DUP9 DUP3 PUSH2 0x2165 JUMP JUMPDEST SWAP8 POP PUSH2 0x21DE DUP4 PUSH2 0x26BC JUMP JUMPDEST SWAP3 POP POP PUSH1 0x1 DUP2 ADD SWAP1 POP PUSH2 0x21BF JUMP JUMPDEST POP DUP6 SWAP4 POP POP POP POP SWAP3 SWAP2 POP POP JUMP JUMPDEST PUSH2 0x2202 DUP2 PUSH2 0x27DE JUMP JUMPDEST DUP3 MSTORE POP POP JUMP JUMPDEST PUSH2 0x2211 DUP2 PUSH2 0x27DE JUMP JUMPDEST DUP3 MSTORE POP POP JUMP JUMPDEST PUSH2 0x2220 DUP2 PUSH2 0x27EA JUMP JUMPDEST DUP3 MSTORE POP POP JUMP JUMPDEST PUSH1 0x0 PUSH2 0x2231 DUP3 PUSH2 0x26B1 JUMP JUMPDEST PUSH2 0x223B DUP2 DUP6 PUSH2 0x26DA JUMP JUMPDEST SWAP4 POP PUSH2 0x224B DUP2 DUP6 PUSH1 0x20 DUP7 ADD PUSH2 0x283A JUMP JUMPDEST PUSH2 0x2254 DUP2 PUSH2 0x29F9 JUMP JUMPDEST DUP5 ADD SWAP2 POP POP SWAP3 SWAP2 POP POP JUMP JUMPDEST PUSH1 0x0 PUSH2 0x226C PUSH1 0x1F DUP4 PUSH2 0x26DA JUMP JUMPDEST SWAP2 POP PUSH2 0x2277 DUP3 PUSH2 0x2A0A JUMP JUMPDEST PUSH1 0x20 DUP3 ADD SWAP1 POP SWAP2 SWAP1 POP JUMP JUMPDEST PUSH1 0x0 PUSH2 0x228F PUSH1 0x19 DUP4 PUSH2 0x26DA JUMP JUMPDEST SWAP2 POP PUSH2 0x229A DUP3 PUSH2 0x2A33 JUMP JUMPDEST PUSH1 0x20 DUP3 ADD SWAP1 POP SWAP2 SWAP1 POP JUMP JUMPDEST PUSH1 0x0 PUSH2 0x22B2 PUSH1 0x26 DUP4 PUSH2 0x26DA JUMP JUMPDEST SWAP2 POP PUSH2 0x22BD DUP3 PUSH2 0x2A5C JUMP JUMPDEST PUSH1 0x40 DUP3 ADD SWAP1 POP SWAP2 SWAP1 POP JUMP JUMPDEST PUSH1 0x0 PUSH2 0x22D5 PUSH1 0x15 DUP4 PUSH2 0x26DA JUMP JUMPDEST SWAP2 POP PUSH2 0x22E0 DUP3 PUSH2 0x2AAB JUMP JUMPDEST PUSH1 0x20 DUP3 ADD SWAP1 POP SWAP2 SWAP1 POP JUMP JUMPDEST PUSH1 0x0 PUSH2 0x22F8 PUSH1 0x24 DUP4 PUSH2 0x26DA JUMP JUMPDEST SWAP2 POP PUSH2 0x2303 DUP3 PUSH2 0x2AD4 JUMP JUMPDEST PUSH1 0x40 DUP3 ADD SWAP1 POP SWAP2 SWAP1 POP JUMP JUMPDEST PUSH1 0x0 PUSH2 0x231B PUSH1 0x28 DUP4 PUSH2 0x26DA JUMP JUMPDEST SWAP2 POP PUSH2 0x2326 DUP3 PUSH2 0x2B23 JUMP JUMPDEST PUSH1 0x40 DUP3 ADD SWAP1 POP SWAP2 SWAP1 POP JUMP JUMPDEST PUSH1 0x0 PUSH2 0x233E PUSH1 0x20 DUP4 PUSH2 0x26DA JUMP JUMPDEST SWAP2 POP PUSH2 0x2349 DUP3 PUSH2 0x2B72 JUMP JUMPDEST PUSH1 0x20 DUP3 ADD SWAP1 POP SWAP2 SWAP1 POP JUMP JUMPDEST PUSH1 0x0 PUSH2 0x2361 PUSH1 0x25 DUP4 PUSH2 0x26DA JUMP JUMPDEST SWAP2 POP PUSH2 0x236C DUP3 PUSH2 0x2B9B JUMP JUMPDEST PUSH1 0x40 DUP3 ADD SWAP1 POP SWAP2 SWAP1 POP JUMP JUMPDEST PUSH1 0x60 DUP3 ADD PUSH1 0x0 DUP3 ADD MLOAD PUSH2 0x238D PUSH1 0x0 DUP6 ADD DUP3 PUSH2 0x21F9 JUMP JUMPDEST POP PUSH1 0x20 DUP3 ADD MLOAD PUSH2 0x23A0 PUSH1 0x20 DUP6 ADD DUP3 PUSH2 0x21F9 JUMP JUMPDEST POP PUSH1 0x40 DUP3 ADD MLOAD PUSH2 0x23B3 PUSH1 0x40 DUP6 ADD DUP3 PUSH2 0x217D JUMP JUMPDEST POP POP POP POP JUMP JUMPDEST PUSH2 0x23C2 DUP2 PUSH2 0x2814 JUMP JUMPDEST DUP3 MSTORE POP POP JUMP JUMPDEST PUSH1 0x0 PUSH1 0x20 DUP3 ADD SWAP1 POP PUSH2 0x23DD PUSH1 0x0 DUP4 ADD DUP5 PUSH2 0x218C JUMP JUMPDEST SWAP3 SWAP2 POP POP JUMP JUMPDEST PUSH1 0x0 PUSH1 0x20 DUP3 ADD SWAP1 POP PUSH2 0x23F8 PUSH1 0x0 DUP4 ADD DUP5 PUSH2 0x2208 JUMP JUMPDEST SWAP3 SWAP2 POP POP JUMP JUMPDEST PUSH1 0x0 PUSH1 0x60 DUP3 ADD SWAP1 POP PUSH2 0x2413 PUSH1 0x0 DUP4 ADD DUP7 PUSH2 0x2208 JUMP JUMPDEST PUSH2 0x2420 PUSH1 0x20 DUP4 ADD DUP6 PUSH2 0x2208 JUMP JUMPDEST PUSH2 0x242D PUSH1 0x40 DUP4 ADD DUP5 PUSH2 0x218C JUMP JUMPDEST SWAP5 SWAP4 POP POP POP POP JUMP JUMPDEST PUSH1 0x0 PUSH1 0x60 DUP3 ADD SWAP1 POP PUSH2 0x244A PUSH1 0x0 DUP4 ADD DUP7 PUSH2 0x2208 JUMP JUMPDEST PUSH2 0x2457 PUSH1 0x20 DUP4 ADD DUP6 PUSH2 0x2208 JUMP JUMPDEST PUSH2 0x2464 PUSH1 0x40 DUP4 ADD DUP5 PUSH2 0x2208 JUMP JUMPDEST SWAP5 SWAP4 POP POP POP POP JUMP JUMPDEST PUSH1 0x0 PUSH1 0x80 DUP3 ADD SWAP1 POP PUSH2 0x2481 PUSH1 0x0 DUP4 ADD DUP8 PUSH2 0x2208 JUMP JUMPDEST PUSH2 0x248E PUSH1 0x20 DUP4 ADD DUP7 PUSH2 0x2217 JUMP JUMPDEST PUSH2 0x249B PUSH1 0x40 DUP4 ADD DUP6 PUSH2 0x23B9 JUMP JUMPDEST DUP2 DUP2 SUB PUSH1 0x60 DUP4 ADD MSTORE PUSH2 0x24AD DUP2 DUP5 PUSH2 0x219B JUMP JUMPDEST SWAP1 POP SWAP6 SWAP5 POP POP POP POP POP JUMP JUMPDEST PUSH1 0x0 PUSH1 0x20 DUP3 ADD SWAP1 POP PUSH2 0x24CD PUSH1 0x0 DUP4 ADD DUP5 PUSH2 0x2217 JUMP JUMPDEST SWAP3 SWAP2 POP POP JUMP JUMPDEST PUSH1 0x0 PUSH1 0x40 DUP3 ADD SWAP1 POP PUSH2 0x24E8 PUSH1 0x0 DUP4 ADD DUP6 PUSH2 0x2217 JUMP JUMPDEST DUP2 DUP2 SUB PUSH1 0x20 DUP4 ADD MSTORE PUSH2 0x24FA DUP2 DUP5 PUSH2 0x2226 JUMP JUMPDEST SWAP1 POP SWAP4 SWAP3 POP POP POP JUMP JUMPDEST PUSH1 0x0 PUSH1 0x20 DUP3 ADD SWAP1 POP DUP2 DUP2 SUB PUSH1 0x0 DUP4 ADD MSTORE PUSH2 0x251D DUP2 DUP5 PUSH2 0x2226 JUMP JUMPDEST SWAP1 POP SWAP3 SWAP2 POP POP JUMP JUMPDEST PUSH1 0x0 PUSH1 0x20 DUP3 ADD SWAP1 POP DUP2 DUP2 SUB PUSH1 0x0 DUP4 ADD MSTORE PUSH2 0x253E DUP2 PUSH2 0x225F JUMP JUMPDEST SWAP1 POP SWAP2 SWAP1 POP JUMP JUMPDEST PUSH1 0x0 PUSH1 0x20 DUP3 ADD SWAP1 POP DUP2 DUP2 SUB PUSH1 0x0 DUP4 ADD MSTORE PUSH2 0x255E DUP2 PUSH2 0x2282 JUMP JUMPDEST SWAP1 POP SWAP2 SWAP1 POP JUMP JUMPDEST PUSH1 0x0 PUSH1 0x20 DUP3 ADD SWAP1 POP DUP2 DUP2 SUB PUSH1 0x0 DUP4 ADD MSTORE PUSH2 0x257E DUP2 PUSH2 0x22A5 JUMP JUMPDEST SWAP1 POP SWAP2 SWAP1 POP JUMP JUMPDEST PUSH1 0x0 PUSH1 0x20 DUP3 ADD SWAP1 POP DUP2 DUP2 SUB PUSH1 0x0 DUP4 ADD MSTORE PUSH2 0x259E DUP2 PUSH2 0x22C8 JUMP JUMPDEST SWAP1 POP SWAP2 SWAP1 POP JUMP JUMPDEST PUSH1 0x0 PUSH1 0x20 DUP3 ADD SWAP1 POP DUP2 DUP2 SUB PUSH1 0x0 DUP4 ADD MSTORE PUSH2 0x25BE DUP2 PUSH2 0x22EB JUMP JUMPDEST SWAP1 POP SWAP2 SWAP1 POP JUMP JUMPDEST PUSH1 0x0 PUSH1 0x20 DUP3 ADD SWAP1 POP DUP2 DUP2 SUB PUSH1 0x0 DUP4 ADD MSTORE PUSH2 0x25DE DUP2 PUSH2 0x230E JUMP JUMPDEST SWAP1 POP SWAP2 SWAP1 POP JUMP JUMPDEST PUSH1 0x0 PUSH1 0x20 DUP3 ADD SWAP1 POP DUP2 DUP2 SUB PUSH1 0x0 DUP4 ADD MSTORE PUSH2 0x25FE DUP2 PUSH2 0x2331 JUMP JUMPDEST SWAP1 POP SWAP2 SWAP1 POP JUMP JUMPDEST PUSH1 0x0 PUSH1 0x20 DUP3 ADD SWAP1 POP DUP2 DUP2 SUB PUSH1 0x0 DUP4 ADD MSTORE PUSH2 0x261E DUP2 PUSH2 0x2354 JUMP JUMPDEST SWAP1 POP SWAP2 SWAP1 POP JUMP JUMPDEST PUSH1 0x0 PUSH1 0x20 DUP3 ADD SWAP1 POP PUSH2 0x263A PUSH1 0x0 DUP4 ADD DUP5 PUSH2 0x23B9 JUMP JUMPDEST SWAP3 SWAP2 POP POP JUMP JUMPDEST PUSH1 0x0 PUSH2 0x264A PUSH2 0x265B JUMP JUMPDEST SWAP1 POP PUSH2 0x2656 DUP3 DUP3 PUSH2 0x289F JUMP JUMPDEST SWAP2 SWAP1 POP JUMP JUMPDEST PUSH1 0x0 PUSH1 0x40 MLOAD SWAP1 POP SWAP1 JUMP JUMPDEST PUSH1 0x0 PUSH8 0xFFFFFFFFFFFFFFFF DUP3 GT ISZERO PUSH2 0x2680 JUMPI PUSH2 0x267F PUSH2 0x29B6 JUMP JUMPDEST JUMPDEST PUSH2 0x2689 DUP3 PUSH2 0x29F9 JUMP JUMPDEST SWAP1 POP PUSH1 0x20 DUP2 ADD SWAP1 POP SWAP2 SWAP1 POP JUMP JUMPDEST PUSH1 0x0 DUP2 SWAP1 POP PUSH1 0x20 DUP3 ADD SWAP1 POP SWAP2 SWAP1 POP JUMP JUMPDEST PUSH1 0x0 DUP2 MLOAD SWAP1 POP SWAP2 SWAP1 POP JUMP JUMPDEST PUSH1 0x0 DUP2 MLOAD SWAP1 POP SWAP2 SWAP1 POP JUMP JUMPDEST PUSH1 0x0 PUSH1 0x20 DUP3 ADD SWAP1 POP SWAP2 SWAP1 POP JUMP JUMPDEST PUSH1 0x0 DUP3 DUP3 MSTORE PUSH1 0x20 DUP3 ADD SWAP1 POP SWAP3 SWAP2 POP POP JUMP JUMPDEST PUSH1 0x0 DUP3 DUP3 MSTORE PUSH1 0x20 DUP3 ADD SWAP1 POP SWAP3 SWAP2 POP POP JUMP JUMPDEST PUSH1 0x0 PUSH2 0x26F6 DUP3 PUSH2 0x2814 JUMP JUMPDEST SWAP2 POP PUSH2 0x2701 DUP4 PUSH2 0x2814 JUMP JUMPDEST SWAP3 POP DUP3 PUSH32 0xFFFFFFFFFFFFFFFFFFFFFFFFFFFFFFFFFFFFFFFFFFFFFFFFFFFFFFFFFFFFFFFF SUB DUP3 GT ISZERO PUSH2 0x2736 JUMPI PUSH2 0x2735 PUSH2 0x28FA JUMP JUMPDEST JUMPDEST DUP3 DUP3 ADD SWAP1 POP SWAP3 SWAP2 POP POP JUMP JUMPDEST PUSH1 0x0 PUSH2 0x274C DUP3 PUSH2 0x2814 JUMP JUMPDEST SWAP2 POP PUSH2 0x2757 DUP4 PUSH2 0x2814 JUMP JUMPDEST SWAP3 POP DUP3 PUSH2 0x2767 JUMPI PUSH2 0x2766 PUSH2 0x2929 JUMP JUMPDEST JUMPDEST DUP3 DUP3 DIV SWAP1 POP SWAP3 SWAP2 POP POP JUMP JUMPDEST PUSH1 0x0 PUSH2 0x277D DUP3 PUSH2 0x2814 JUMP JUMPDEST SWAP2 POP PUSH2 0x2788 DUP4 PUSH2 0x2814 JUMP JUMPDEST SWAP3 POP DUP2 PUSH32 0xFFFFFFFFFFFFFFFFFFFFFFFFFFFFFFFFFFFFFFFFFFFFFFFFFFFFFFFFFFFFFFFF DIV DUP4 GT DUP3 ISZERO ISZERO AND ISZERO PUSH2 0x27C1 JUMPI PUSH2 0x27C0 PUSH2 0x28FA JUMP JUMPDEST JUMPDEST DUP3 DUP3 MUL SWAP1 POP SWAP3 SWAP2 POP POP JUMP JUMPDEST PUSH1 0x0 PUSH2 0x27D7 DUP3 PUSH2 0x27F4 JUMP JUMPDEST SWAP1 POP SWAP2 SWAP1 POP JUMP JUMPDEST PUSH1 0x0 DUP2 ISZERO ISZERO SWAP1 POP SWAP2 SWAP1 POP JUMP JUMPDEST PUSH1 0x0 DUP2 SWAP1 POP SWAP2 SWAP1 POP JUMP JUMPDEST PUSH1 0x0 PUSH20 0xFFFFFFFFFFFFFFFFFFFFFFFFFFFFFFFFFFFFFFFF DUP3 AND SWAP1 POP SWAP2 SWAP1 POP JUMP JUMPDEST PUSH1 0x0 DUP2 SWAP1 POP SWAP2 SWAP1 POP JUMP JUMPDEST PUSH1 0x0 PUSH1 0xFF DUP3 AND SWAP1 POP SWAP2 SWAP1 POP JUMP JUMPDEST DUP3 DUP2 DUP4 CALLDATACOPY PUSH1 0x0 DUP4 DUP4 ADD MSTORE POP POP POP JUMP JUMPDEST PUSH1 0x0 JUMPDEST DUP4 DUP2 LT ISZERO PUSH2 0x2858 JUMPI DUP1 DUP3 ADD MLOAD DUP2 DUP5 ADD MSTORE PUSH1 0x20 DUP2 ADD SWAP1 POP PUSH2 0x283D JUMP JUMPDEST DUP4 DUP2 GT ISZERO PUSH2 0x2867 JUMPI PUSH1 0x0 DUP5 DUP5 ADD MSTORE JUMPDEST POP POP POP POP JUMP JUMPDEST PUSH1 0x0 PUSH1 0x2 DUP3 DIV SWAP1 POP PUSH1 0x1 DUP3 AND DUP1 PUSH2 0x2885 JUMPI PUSH1 0x7F DUP3 AND SWAP2 POP JUMPDEST PUSH1 0x20 DUP3 LT DUP2 EQ ISZERO PUSH2 0x2899 JUMPI PUSH2 0x2898 PUSH2 0x2958 JUMP JUMPDEST JUMPDEST POP SWAP2 SWAP1 POP JUMP JUMPDEST PUSH2 0x28A8 DUP3 PUSH2 0x29F9 JUMP JUMPDEST DUP2 ADD DUP2 DUP2 LT PUSH8 0xFFFFFFFFFFFFFFFF DUP3 GT OR ISZERO PUSH2 0x28C7 JUMPI PUSH2 0x28C6 PUSH2 0x29B6 JUMP JUMPDEST JUMPDEST DUP1 PUSH1 0x40 MSTORE POP POP POP JUMP JUMPDEST PUSH1 0x0 PUSH2 0x28DB DUP3 PUSH2 0x281E JUMP JUMPDEST SWAP2 POP PUSH1 0xFF DUP3 EQ ISZERO PUSH2 0x28EF JUMPI PUSH2 0x28EE PUSH2 0x28FA JUMP JUMPDEST JUMPDEST PUSH1 0x1 DUP3 ADD SWAP1 POP SWAP2 SWAP1 POP JUMP JUMPDEST PUSH32 0x4E487B7100000000000000000000000000000000000000000000000000000000 PUSH1 0x0 MSTORE PUSH1 0x11 PUSH1 0x4 MSTORE PUSH1 0x24 PUSH1 0x0 REVERT JUMPDEST PUSH32 0x4E487B7100000000000000000000000000000000000000000000000000000000 PUSH1 0x0 MSTORE PUSH1 0x12 PUSH1 0x4 MSTORE PUSH1 0x24 PUSH1 0x0 REVERT JUMPDEST PUSH32 0x4E487B7100000000000000000000000000000000000000000000000000000000 PUSH1 0x0 MSTORE PUSH1 0x22 PUSH1 0x4 MSTORE PUSH1 0x24 PUSH1 0x0 REVERT JUMPDEST PUSH32 0x4E487B7100000000000000000000000000000000000000000000000000000000 PUSH1 0x0 MSTORE PUSH1 0x32 PUSH1 0x4 MSTORE PUSH1 0x24 PUSH1 0x0 REVERT JUMPDEST PUSH32 0x4E487B7100000000000000000000000000000000000000000000000000000000 PUSH1 0x0 MSTORE PUSH1 0x41 PUSH1 0x4 MSTORE PUSH1 0x24 PUSH1 0x0 REVERT JUMPDEST PUSH1 0x0 DUP1 REVERT JUMPDEST PUSH1 0x0 DUP1 REVERT JUMPDEST PUSH1 0x0 DUP1 REVERT JUMPDEST PUSH1 0x0 DUP1 REVERT JUMPDEST PUSH1 0x0 PUSH1 0x1F NOT PUSH1 0x1F DUP4 ADD AND SWAP1 POP SWAP2 SWAP1 POP JUMP JUMPDEST PUSH32 0x526563697069656E7420697320616C7265616479207265676973746572656400 PUSH1 0x0 DUP3 ADD MSTORE POP JUMP JUMPDEST PUSH32 0x50726F706F73616C20616C726561647920637265617465642100000000000000 PUSH1 0x0 DUP3 ADD MSTORE POP JUMP JUMPDEST PUSH32 0x596F75206172656E277420617574686F72697A6520746F20636F6D70696C6520 PUSH1 0x0 DUP3 ADD MSTORE PUSH32 0x42756E646C650000000000000000000000000000000000000000000000000000 PUSH1 0x20 DUP3 ADD MSTORE POP JUMP JUMPDEST PUSH32 0x496E69746961746F722063616E277420766F7465210000000000000000000000 PUSH1 0x0 DUP3 ADD MSTORE POP JUMP JUMPDEST PUSH32 0x50726F706F73616C206861732072656163686564206974732065787069727920 PUSH1 0x0 DUP3 ADD MSTORE PUSH32 0x6461746500000000000000000000000000000000000000000000000000000000 PUSH1 0x20 DUP3 ADD MSTORE POP JUMP JUMPDEST PUSH32 0x4F6E6C7920696E69746961746F722063616E2072656769737465722061207265 PUSH1 0x0 DUP3 ADD MSTORE PUSH32 0x63697069656E742E000000000000000000000000000000000000000000000000 PUSH1 0x20 DUP3 ADD MSTORE POP JUMP JUMPDEST PUSH32 0x5665726469637420686173206E6F74206265656E207265616368656420796574 PUSH1 0x0 DUP3 ADD MSTORE POP JUMP JUMPDEST PUSH32 0x436F6E73656E7375732068617320616C7265616479206265656E2063616C6375 PUSH1 0x0 DUP3 ADD MSTORE PUSH32 0x6C61746564000000000000000000000000000000000000000000000000000000 PUSH1 0x20 DUP3 ADD MSTORE POP JUMP JUMPDEST PUSH2 0x2BF3 DUP2 PUSH2 0x27CC JUMP JUMPDEST DUP2 EQ PUSH2 0x2BFE JUMPI PUSH1 0x0 DUP1 REVERT JUMPDEST POP JUMP JUMPDEST PUSH2 0x2C0A DUP2 PUSH2 0x27EA JUMP JUMPDEST DUP2 EQ PUSH2 0x2C15 JUMPI PUSH1 0x0 DUP1 REVERT JUMPDEST POP JUMP JUMPDEST PUSH2 0x2C21 DUP2 PUSH2 0x2814 JUMP JUMPDEST DUP2 EQ PUSH2 0x2C2C JUMPI PUSH1 0x0 DUP1 REVERT JUMPDEST POP JUMP INVALID LOG2 PUSH5 0x6970667358 0x22 SLT KECCAK256 PUSH9 0xE54245C1844CD81B30 RETURNDATASIZE 0x2C DUP14 DUP11 0xE 0xE 0xC8 SWAP15 SWAP4 0xC2 0x2F 0xC5 0xEA DUP9 XOR 0xDD 0x4A PUSH28 0x8B77157F64736F6C6343000807003300000000000000000000000000 "
				},
				"gasEstimates": {
					"creation": {
						"codeDepositCost": "2273000",
						"executionCost": "2434",
						"totalCost": "2275434"
					},
					"external": {
						"Consensus(bytes32)": "infinite",
						"IDs(bytes32)": "infinite",
						"RegisterVoter(address,bytes32)": "131678",
						"Vote(string,bytes32)": "infinite",
						"Voters(bytes32,uint256)": "infinite",
						"businessRequirements(bytes32)": "2832",
						"checkConsistency(bytes32,uint256,uint256,bytes32)": "infinite",
						"contents(bytes32)": "infinite",
						"createContract(bytes32,uint256,uint256,bytes32,string,bytes32)": "infinite",
						"expiryDates(bytes32)": "2810",
						"expiryLengths(bytes32)": "2789",
						"finalVerdicts(bytes32)": "2886",
						"getIsCompiled(bytes32)": "2845",
						"getIsCreated(bytes32)": "infinite",
						"initiators(bytes32)": "2883",
						"isCompiled(bytes32)": "2819",
						"keys(bytes32,uint256)": "5309",
						"messageDates(bytes32)": "infinite",
						"numApprovals(bytes32)": "2853",
						"retrieve_bundle(bytes32)": "infinite",
						"voteCounts(bytes32)": "2898",
						"voter_maps(bytes32,address)": "infinite"
					}
				},
				"methodIdentifiers": {
					"Consensus(bytes32)": "7d6c570a",
					"IDs(bytes32)": "e5d009bf",
					"RegisterVoter(address,bytes32)": "d468f983",
					"Vote(string,bytes32)": "8acc0d10",
					"Voters(bytes32,uint256)": "4fd3b445",
					"businessRequirements(bytes32)": "7a099c6a",
					"checkConsistency(bytes32,uint256,uint256,bytes32)": "33dfd126",
					"contents(bytes32)": "f20ca12c",
					"createContract(bytes32,uint256,uint256,bytes32,string,bytes32)": "a88361c6",
					"expiryDates(bytes32)": "56c583d8",
					"expiryLengths(bytes32)": "13191ade",
					"finalVerdicts(bytes32)": "38c20a9e",
					"getIsCompiled(bytes32)": "5273bc48",
					"getIsCreated(bytes32)": "97299e99",
					"initiators(bytes32)": "d443560a",
					"isCompiled(bytes32)": "823a6366",
					"keys(bytes32,uint256)": "7ff4c389",
					"messageDates(bytes32)": "a4a8f426",
					"numApprovals(bytes32)": "e463eaee",
					"retrieve_bundle(bytes32)": "27f0ae92",
					"voteCounts(bytes32)": "81d0e37b",
					"voter_maps(bytes32,address)": "a784ef74"
				}
			},
			"storageLayout": {
				"storage": [
					{
						"astId": 12,
						"contract": "contracts/1_Storage.sol:BusinessConsensus4",
						"label": "initiators",
						"offset": 0,
						"slot": "0",
						"type": "t_mapping(t_bytes32,t_address)"
					},
					{
						"astId": 16,
						"contract": "contracts/1_Storage.sol:BusinessConsensus4",
						"label": "IDs",
						"offset": 0,
						"slot": "1",
						"type": "t_mapping(t_bytes32,t_bytes32)"
					},
					{
						"astId": 20,
						"contract": "contracts/1_Storage.sol:BusinessConsensus4",
						"label": "voteCounts",
						"offset": 0,
						"slot": "2",
						"type": "t_mapping(t_bytes32,t_uint256)"
					},
					{
						"astId": 24,
						"contract": "contracts/1_Storage.sol:BusinessConsensus4",
						"label": "expiryLengths",
						"offset": 0,
						"slot": "3",
						"type": "t_mapping(t_bytes32,t_uint256)"
					},
					{
						"astId": 28,
						"contract": "contracts/1_Storage.sol:BusinessConsensus4",
						"label": "expiryDates",
						"offset": 0,
						"slot": "4",
						"type": "t_mapping(t_bytes32,t_uint256)"
					},
					{
						"astId": 32,
						"contract": "contracts/1_Storage.sol:BusinessConsensus4",
						"label": "contents",
						"offset": 0,
						"slot": "5",
						"type": "t_mapping(t_bytes32,t_bytes32)"
					},
					{
						"astId": 36,
						"contract": "contracts/1_Storage.sol:BusinessConsensus4",
						"label": "numApprovals",
						"offset": 0,
						"slot": "6",
						"type": "t_mapping(t_bytes32,t_uint256)"
					},
					{
						"astId": 40,
						"contract": "contracts/1_Storage.sol:BusinessConsensus4",
						"label": "businessRequirements",
						"offset": 0,
						"slot": "7",
						"type": "t_mapping(t_bytes32,t_uint256)"
					},
					{
						"astId": 44,
						"contract": "contracts/1_Storage.sol:BusinessConsensus4",
						"label": "messageDates",
						"offset": 0,
						"slot": "8",
						"type": "t_mapping(t_bytes32,t_string_storage)"
					},
					{
						"astId": 48,
						"contract": "contracts/1_Storage.sol:BusinessConsensus4",
						"label": "finalVerdicts",
						"offset": 0,
						"slot": "9",
						"type": "t_mapping(t_bytes32,t_bool)"
					},
					{
						"astId": 52,
						"contract": "contracts/1_Storage.sol:BusinessConsensus4",
						"label": "isCompiled",
						"offset": 0,
						"slot": "10",
						"type": "t_mapping(t_bytes32,t_bool)"
					},
					{
						"astId": 59,
						"contract": "contracts/1_Storage.sol:BusinessConsensus4",
						"label": "voter_maps",
						"offset": 0,
						"slot": "11",
						"type": "t_mapping(t_bytes32,t_mapping(t_address,t_struct(Voter)8_storage))"
					},
					{
						"astId": 65,
						"contract": "contracts/1_Storage.sol:BusinessConsensus4",
						"label": "Voters",
						"offset": 0,
						"slot": "12",
						"type": "t_mapping(t_bytes32,t_array(t_struct(Voter)8_storage)dyn_storage)"
					},
					{
						"astId": 70,
						"contract": "contracts/1_Storage.sol:BusinessConsensus4",
						"label": "keys",
						"offset": 0,
						"slot": "13",
						"type": "t_mapping(t_bytes32,t_array(t_address)dyn_storage)"
					}
				],
				"types": {
					"t_address": {
						"encoding": "inplace",
						"label": "address",
						"numberOfBytes": "20"
					},
					"t_array(t_address)dyn_storage": {
						"base": "t_address",
						"encoding": "dynamic_array",
						"label": "address[]",
						"numberOfBytes": "32"
					},
					"t_array(t_struct(Voter)8_storage)dyn_storage": {
						"base": "t_struct(Voter)8_storage",
						"encoding": "dynamic_array",
						"label": "struct BusinessConsensus4.Voter[]",
						"numberOfBytes": "32"
					},
					"t_bool": {
						"encoding": "inplace",
						"label": "bool",
						"numberOfBytes": "1"
					},
					"t_bytes32": {
						"encoding": "inplace",
						"label": "bytes32",
						"numberOfBytes": "32"
					},
					"t_mapping(t_address,t_struct(Voter)8_storage)": {
						"encoding": "mapping",
						"key": "t_address",
						"label": "mapping(address => struct BusinessConsensus4.Voter)",
						"numberOfBytes": "32",
						"value": "t_struct(Voter)8_storage"
					},
					"t_mapping(t_bytes32,t_address)": {
						"encoding": "mapping",
						"key": "t_bytes32",
						"label": "mapping(bytes32 => address)",
						"numberOfBytes": "32",
						"value": "t_address"
					},
					"t_mapping(t_bytes32,t_array(t_address)dyn_storage)": {
						"encoding": "mapping",
						"key": "t_bytes32",
						"label": "mapping(bytes32 => address[])",
						"numberOfBytes": "32",
						"value": "t_array(t_address)dyn_storage"
					},
					"t_mapping(t_bytes32,t_array(t_struct(Voter)8_storage)dyn_storage)": {
						"encoding": "mapping",
						"key": "t_bytes32",
						"label": "mapping(bytes32 => struct BusinessConsensus4.Voter[])",
						"numberOfBytes": "32",
						"value": "t_array(t_struct(Voter)8_storage)dyn_storage"
					},
					"t_mapping(t_bytes32,t_bool)": {
						"encoding": "mapping",
						"key": "t_bytes32",
						"label": "mapping(bytes32 => bool)",
						"numberOfBytes": "32",
						"value": "t_bool"
					},
					"t_mapping(t_bytes32,t_bytes32)": {
						"encoding": "mapping",
						"key": "t_bytes32",
						"label": "mapping(bytes32 => bytes32)",
						"numberOfBytes": "32",
						"value": "t_bytes32"
					},
					"t_mapping(t_bytes32,t_mapping(t_address,t_struct(Voter)8_storage))": {
						"encoding": "mapping",
						"key": "t_bytes32",
						"label": "mapping(bytes32 => mapping(address => struct BusinessConsensus4.Voter))",
						"numberOfBytes": "32",
						"value": "t_mapping(t_address,t_struct(Voter)8_storage)"
					},
					"t_mapping(t_bytes32,t_string_storage)": {
						"encoding": "mapping",
						"key": "t_bytes32",
						"label": "mapping(bytes32 => string)",
						"numberOfBytes": "32",
						"value": "t_string_storage"
					},
					"t_mapping(t_bytes32,t_uint256)": {
						"encoding": "mapping",
						"key": "t_bytes32",
						"label": "mapping(bytes32 => uint256)",
						"numberOfBytes": "32",
						"value": "t_uint256"
					},
					"t_string_storage": {
						"encoding": "bytes",
						"label": "string",
						"numberOfBytes": "32"
					},
					"t_struct(Voter)8_storage": {
						"encoding": "inplace",
						"label": "struct BusinessConsensus4.Voter",
						"members": [
							{
								"astId": 3,
								"contract": "contracts/1_Storage.sol:BusinessConsensus4",
								"label": "voted",
								"offset": 0,
								"slot": "0",
								"type": "t_bool"
							},
							{
								"astId": 5,
								"contract": "contracts/1_Storage.sol:BusinessConsensus4",
								"label": "vote",
								"offset": 1,
								"slot": "0",
								"type": "t_bool"
							},
							{
								"astId": 7,
								"contract": "contracts/1_Storage.sol:BusinessConsensus4",
								"label": "recipient",
								"offset": 2,
								"slot": "0",
								"type": "t_address"
							}
						],
						"numberOfBytes": "32"
					},
					"t_uint256": {
						"encoding": "inplace",
						"label": "uint256",
						"numberOfBytes": "32"
					}
				}
			},
			"userdoc": {
				"kind": "user",
				"methods": {
					"Consensus(bytes32)": {
						"notice": "compile all relevant information into a Bundle"
					}
				},
				"version": 1
			}
		}
	}
}