{
	"contracts/BusinessConsensus.sol": {
		"BusinessConsensus": {
			"abi": [
				{
					"inputs": [
						{
							"internalType": "string",
							"name": "_messageID",
							"type": "string"
						},
						{
							"internalType": "uint256",
							"name": "expiry",
							"type": "uint256"
						},
						{
							"internalType": "uint256",
							"name": "requiredPercentage",
							"type": "uint256"
						},
						{
							"internalType": "bytes32",
							"name": "contents",
							"type": "bytes32"
						},
						{
							"internalType": "string",
							"name": "subject",
							"type": "string"
						},
						{
							"internalType": "string",
							"name": "_messageDate",
							"type": "string"
						}
					],
					"stateMutability": "nonpayable",
					"type": "constructor"
				},
				{
					"inputs": [],
					"name": "BusinessRequirement",
					"outputs": [
						{
							"internalType": "uint256",
							"name": "",
							"type": "uint256"
						}
					],
					"stateMutability": "view",
					"type": "function"
				},
				{
					"inputs": [],
					"name": "Consensus",
					"outputs": [],
					"stateMutability": "nonpayable",
					"type": "function"
				},
				{
					"inputs": [
						{
							"internalType": "address",
							"name": "voter",
							"type": "address"
						}
					],
					"name": "RegisterVoter",
					"outputs": [],
					"stateMutability": "nonpayable",
					"type": "function"
				},
				{
					"inputs": [
						{
							"internalType": "string",
							"name": "response",
							"type": "string"
						}
					],
					"name": "Vote",
					"outputs": [],
					"stateMutability": "nonpayable",
					"type": "function"
				},
				{
					"inputs": [],
					"name": "contractAddress",
					"outputs": [
						{
							"internalType": "address",
							"name": "",
							"type": "address"
						}
					],
					"stateMutability": "view",
					"type": "function"
				},
				{
					"inputs": [],
					"name": "getIsCompiled",
					"outputs": [
						{
							"internalType": "bool",
							"name": "",
							"type": "bool"
						}
					],
					"stateMutability": "view",
					"type": "function"
				},
				{
					"inputs": [],
					"name": "getParameters",
					"outputs": [
						{
							"internalType": "bytes32",
							"name": "",
							"type": "bytes32"
						},
						{
							"internalType": "uint256",
							"name": "",
							"type": "uint256"
						},
						{
							"internalType": "uint256",
							"name": "",
							"type": "uint256"
						}
					],
					"stateMutability": "view",
					"type": "function"
				},
				{
					"inputs": [
						{
							"internalType": "address",
							"name": "test_address",
							"type": "address"
						}
					],
					"name": "getParameters2",
					"outputs": [
						{
							"internalType": "bool",
							"name": "",
							"type": "bool"
						},
						{
							"internalType": "bool",
							"name": "",
							"type": "bool"
						},
						{
							"internalType": "address",
							"name": "",
							"type": "address"
						}
					],
					"stateMutability": "view",
					"type": "function"
				},
				{
					"inputs": [],
					"name": "getValues",
					"outputs": [
						{
							"internalType": "string",
							"name": "",
							"type": "string"
						}
					],
					"stateMutability": "view",
					"type": "function"
				},
				{
					"inputs": [],
					"name": "initiator",
					"outputs": [
						{
							"internalType": "address",
							"name": "",
							"type": "address"
						}
					],
					"stateMutability": "view",
					"type": "function"
				},
				{
					"inputs": [
						{
							"internalType": "uint256",
							"name": "",
							"type": "uint256"
						}
					],
					"name": "keys",
					"outputs": [
						{
							"internalType": "address",
							"name": "",
							"type": "address"
						}
					],
					"stateMutability": "view",
					"type": "function"
				},
				{
					"inputs": [],
					"name": "numApprovals",
					"outputs": [
						{
							"internalType": "uint256",
							"name": "",
							"type": "uint256"
						}
					],
					"stateMutability": "view",
					"type": "function"
				},
				{
					"inputs": [],
					"name": "proposal",
					"outputs": [
						{
							"internalType": "uint256",
							"name": "voteCount",
							"type": "uint256"
						},
						{
							"internalType": "string",
							"name": "messageID",
							"type": "string"
						},
						{
							"internalType": "string",
							"name": "messageDate",
							"type": "string"
						},
						{
							"internalType": "string",
							"name": "subject",
							"type": "string"
						},
						{
							"internalType": "bytes32",
							"name": "contents",
							"type": "bytes32"
						},
						{
							"internalType": "uint256",
							"name": "expiryLength",
							"type": "uint256"
						}
					],
					"stateMutability": "view",
					"type": "function"
				},
				{
					"inputs": [],
					"name": "retrieve_bundle",
					"outputs": [
						{
							"internalType": "bytes32",
							"name": "",
							"type": "bytes32"
						},
						{
							"components": [
								{
									"internalType": "uint256",
									"name": "voteCount",
									"type": "uint256"
								},
								{
									"internalType": "string",
									"name": "messageID",
									"type": "string"
								},
								{
									"internalType": "string",
									"name": "messageDate",
									"type": "string"
								},
								{
									"internalType": "string",
									"name": "subject",
									"type": "string"
								},
								{
									"internalType": "bytes32",
									"name": "contents",
									"type": "bytes32"
								},
								{
									"internalType": "uint256",
									"name": "expiryLength",
									"type": "uint256"
								}
							],
							"internalType": "struct BusinessConsensus.Proposal",
							"name": "",
							"type": "tuple"
						},
						{
							"components": [
								{
									"internalType": "bool",
									"name": "voted",
									"type": "bool"
								},
								{
									"internalType": "bool",
									"name": "vote",
									"type": "bool"
								},
								{
									"internalType": "address",
									"name": "recipient",
									"type": "address"
								}
							],
							"internalType": "struct BusinessConsensus.Voter[]",
							"name": "",
							"type": "tuple[]"
						}
					],
					"stateMutability": "view",
					"type": "function"
				},
				{
					"inputs": [
						{
							"internalType": "uint256",
							"name": "",
							"type": "uint256"
						}
					],
					"name": "voters",
					"outputs": [
						{
							"internalType": "bool",
							"name": "voted",
							"type": "bool"
						},
						{
							"internalType": "bool",
							"name": "vote",
							"type": "bool"
						},
						{
							"internalType": "address",
							"name": "recipient",
							"type": "address"
						}
					],
					"stateMutability": "view",
					"type": "function"
				},
				{
					"inputs": [
						{
							"internalType": "address",
							"name": "",
							"type": "address"
						}
					],
					"name": "voters_map",
					"outputs": [
						{
							"internalType": "bool",
							"name": "voted",
							"type": "bool"
						},
						{
							"internalType": "bool",
							"name": "vote",
							"type": "bool"
						},
						{
							"internalType": "address",
							"name": "recipient",
							"type": "address"
						}
					],
					"stateMutability": "view",
					"type": "function"
				}
			],
			"devdoc": {
				"kind": "dev",
				"methods": {},
				"version": 1
			},
			"evm": {
				"assembly": "    /* \"contracts/BusinessConsensus.sol\":33:5510  contract BusinessConsensus{\r... */\n  mstore(0x40, 0x80)\n    /* \"contracts/BusinessConsensus.sol\":1251:2028  constructor(string memory _messageID, uint256 expiry, uint256 requiredPercentage,bytes32 contents,string memory subject,string memory _messageDate){\r... */\n  callvalue\n  dup1\n  iszero\n  tag_1\n  jumpi\n  0x00\n  dup1\n  revert\ntag_1:\n  pop\n  mload(0x40)\n  sub(codesize, bytecodeSize)\n  dup1\n  bytecodeSize\n  dup4\n  codecopy\n  dup2\n  dup2\n  add\n  0x40\n  mstore\n  dup2\n  add\n  swap1\n  tag_2\n  swap2\n  swap1\n  tag_3\n  jump\t// in\ntag_2:\n    /* \"contracts/BusinessConsensus.sol\":1421:1431  msg.sender */\n  caller\n    /* \"contracts/BusinessConsensus.sol\":1409:1418  initiator */\n  0x01\n  0x00\n    /* \"contracts/BusinessConsensus.sol\":1409:1431  initiator = msg.sender */\n  0x0100\n  exp\n  dup2\n  sload\n  dup2\n  0xffffffffffffffffffffffffffffffffffffffff\n  mul\n  not\n  and\n  swap1\n  dup4\n  0xffffffffffffffffffffffffffffffffffffffff\n  and\n  mul\n  or\n  swap1\n  sstore\n  pop\n    /* \"contracts/BusinessConsensus.sol\":1473:1479  expiry */\n  dup5\n    /* \"contracts/BusinessConsensus.sol\":1455:1470  block.timestamp */\n  timestamp\n    /* \"contracts/BusinessConsensus.sol\":1455:1479  block.timestamp + expiry */\n  tag_6\n  swap2\n  swap1\n  tag_7\n  jump\t// in\ntag_6:\n    /* \"contracts/BusinessConsensus.sol\":1442:1452  expiryDate */\n  0x03\n    /* \"contracts/BusinessConsensus.sol\":1442:1479  expiryDate = block.timestamp + expiry */\n  dup2\n  swap1\n  sstore\n  pop\n    /* \"contracts/BusinessConsensus.sol\":1512:1530  requiredPercentage */\n  dup4\n    /* \"contracts/BusinessConsensus.sol\":1490:1509  BusinessRequirement */\n  0x04\n    /* \"contracts/BusinessConsensus.sol\":1490:1530  BusinessRequirement = requiredPercentage */\n  dup2\n  swap1\n  sstore\n  pop\n    /* \"contracts/BusinessConsensus.sol\":1556:1557  0 */\n  0x00\n    /* \"contracts/BusinessConsensus.sol\":1541:1553  numApprovals */\n  0x05\n    /* \"contracts/BusinessConsensus.sol\":1541:1557  numApprovals = 0 */\n  dup2\n  swap1\n  sstore\n  pop\n    /* \"contracts/BusinessConsensus.sol\":1581:1586  false */\n  0x00\n    /* \"contracts/BusinessConsensus.sol\":1568:1578  isCompiled */\n  0x06\n  0x00\n    /* \"contracts/BusinessConsensus.sol\":1568:1586  isCompiled = false */\n  0x0100\n  exp\n  dup2\n  sload\n  dup2\n  0xff\n  mul\n  not\n  and\n  swap1\n  dup4\n  iszero\n  iszero\n  mul\n  or\n  swap1\n  sstore\n  pop\n    /* \"contracts/BusinessConsensus.sol\":1597:1622  finalVerdict = \"Rejected\" */\n  0x52656a6563746564000000000000000000000000000000000000000000000000\n    /* \"contracts/BusinessConsensus.sol\":1597:1609  finalVerdict */\n  0x07\n    /* \"contracts/BusinessConsensus.sol\":1597:1622  finalVerdict = \"Rejected\" */\n  dup2\n  swap1\n  sstore\n  pop\n    /* \"contracts/BusinessConsensus.sol\":1659:1663  this */\n  address\n    /* \"contracts/BusinessConsensus.sol\":1633:1648  contractAddress */\n  0x00\n  dup1\n    /* \"contracts/BusinessConsensus.sol\":1633:1664  contractAddress = address(this) */\n  0x0100\n  exp\n  dup2\n  sload\n  dup2\n  0xffffffffffffffffffffffffffffffffffffffff\n  mul\n  not\n  and\n  swap1\n  dup4\n  0xffffffffffffffffffffffffffffffffffffffff\n  and\n  mul\n  or\n  swap1\n  sstore\n  pop\n    /* \"contracts/BusinessConsensus.sol\":1771:2020  Proposal({\r... */\n  mload(0x40)\n  dup1\n  0xc0\n  add\n  0x40\n  mstore\n  dup1\n    /* \"contracts/BusinessConsensus.sol\":1810:1811  0 */\n  0x00\n    /* \"contracts/BusinessConsensus.sol\":1771:2020  Proposal({\r... */\n  dup2\n  mstore\n  0x20\n  add\n    /* \"contracts/BusinessConsensus.sol\":1841:1851  _messageID */\n  dup8\n    /* \"contracts/BusinessConsensus.sol\":1771:2020  Proposal({\r... */\n  dup2\n  mstore\n  0x20\n  add\n    /* \"contracts/BusinessConsensus.sol\":1882:1894  _messageDate */\n  dup3\n    /* \"contracts/BusinessConsensus.sol\":1771:2020  Proposal({\r... */\n  dup2\n  mstore\n  0x20\n  add\n    /* \"contracts/BusinessConsensus.sol\":1922:1929  subject */\n  dup4\n    /* \"contracts/BusinessConsensus.sol\":1771:2020  Proposal({\r... */\n  dup2\n  mstore\n  0x20\n  add\n    /* \"contracts/BusinessConsensus.sol\":1958:1966  contents */\n  dup5\n    /* \"contracts/BusinessConsensus.sol\":1771:2020  Proposal({\r... */\n  dup2\n  mstore\n  0x20\n  add\n    /* \"contracts/BusinessConsensus.sol\":1998:2004  expiry */\n  dup7\n    /* \"contracts/BusinessConsensus.sol\":1771:2020  Proposal({\r... */\n  dup2\n  mstore\n  pop\n    /* \"contracts/BusinessConsensus.sol\":1760:1768  proposal */\n  0x0a\n    /* \"contracts/BusinessConsensus.sol\":1760:2020  proposal = Proposal({\r... */\n  0x00\n  dup3\n  add\n  mload\n  dup2\n  0x00\n  add\n  sstore\n  0x20\n  dup3\n  add\n  mload\n  dup2\n  0x01\n  add\n  swap1\n  dup1\n  mload\n  swap1\n  0x20\n  add\n  swap1\n  tag_8\n  swap3\n  swap2\n  swap1\n  tag_9\n  jump\t// in\ntag_8:\n  pop\n  0x40\n  dup3\n  add\n  mload\n  dup2\n  0x02\n  add\n  swap1\n  dup1\n  mload\n  swap1\n  0x20\n  add\n  swap1\n  tag_10\n  swap3\n  swap2\n  swap1\n  tag_9\n  jump\t// in\ntag_10:\n  pop\n  0x60\n  dup3\n  add\n  mload\n  dup2\n  0x03\n  add\n  swap1\n  dup1\n  mload\n  swap1\n  0x20\n  add\n  swap1\n  tag_11\n  swap3\n  swap2\n  swap1\n  tag_9\n  jump\t// in\ntag_11:\n  pop\n  0x80\n  dup3\n  add\n  mload\n  dup2\n  0x04\n  add\n  sstore\n  0xa0\n  dup3\n  add\n  mload\n  dup2\n  0x05\n  add\n  sstore\n  swap1\n  pop\n  pop\n    /* \"contracts/BusinessConsensus.sol\":1251:2028  constructor(string memory _messageID, uint256 expiry, uint256 requiredPercentage,bytes32 contents,string memory subject,string memory _messageDate){\r... */\n  pop\n  pop\n  pop\n  pop\n  pop\n  pop\n    /* \"contracts/BusinessConsensus.sol\":33:5510  contract BusinessConsensus{\r... */\n  jump(tag_12)\ntag_9:\n  dup3\n  dup1\n  sload\n  tag_13\n  swap1\n  tag_14\n  jump\t// in\ntag_13:\n  swap1\n  0x00\n  mstore\n  keccak256(0x00, 0x20)\n  swap1\n  0x1f\n  add\n  0x20\n  swap1\n  div\n  dup2\n  add\n  swap3\n  dup3\n  tag_16\n  jumpi\n  0x00\n  dup6\n  sstore\n  jump(tag_15)\ntag_16:\n  dup3\n  0x1f\n  lt\n  tag_17\n  jumpi\n  dup1\n  mload\n  not(0xff)\n  and\n  dup4\n  dup1\n  add\n  or\n  dup6\n  sstore\n  jump(tag_15)\ntag_17:\n  dup3\n  dup1\n  add\n  0x01\n  add\n  dup6\n  sstore\n  dup3\n  iszero\n  tag_15\n  jumpi\n  swap2\n  dup3\n  add\ntag_18:\n  dup3\n  dup2\n  gt\n  iszero\n  tag_19\n  jumpi\n  dup3\n  mload\n  dup3\n  sstore\n  swap2\n  0x20\n  add\n  swap2\n  swap1\n  0x01\n  add\n  swap1\n  jump(tag_18)\ntag_19:\ntag_15:\n  pop\n  swap1\n  pop\n  tag_20\n  swap2\n  swap1\n  tag_21\n  jump\t// in\ntag_20:\n  pop\n  swap1\n  jump\t// out\ntag_21:\ntag_22:\n  dup1\n  dup3\n  gt\n  iszero\n  tag_23\n  jumpi\n  0x00\n  dup2\n  0x00\n  swap1\n  sstore\n  pop\n  0x01\n  add\n  jump(tag_22)\ntag_23:\n  pop\n  swap1\n  jump\t// out\n    /* \"#utility.yul\":7:428   */\ntag_25:\n    /* \"#utility.yul\":96:101   */\n  0x00\n    /* \"#utility.yul\":121:187   */\n  tag_27\n    /* \"#utility.yul\":137:186   */\n  tag_28\n    /* \"#utility.yul\":179:185   */\n  dup5\n    /* \"#utility.yul\":137:186   */\n  tag_29\n  jump\t// in\ntag_28:\n    /* \"#utility.yul\":121:187   */\n  tag_30\n  jump\t// in\ntag_27:\n    /* \"#utility.yul\":112:187   */\n  swap1\n  pop\n    /* \"#utility.yul\":210:216   */\n  dup3\n    /* \"#utility.yul\":203:208   */\n  dup2\n    /* \"#utility.yul\":196:217   */\n  mstore\n    /* \"#utility.yul\":248:252   */\n  0x20\n    /* \"#utility.yul\":241:246   */\n  dup2\n    /* \"#utility.yul\":237:253   */\n  add\n    /* \"#utility.yul\":286:289   */\n  dup5\n    /* \"#utility.yul\":277:283   */\n  dup5\n    /* \"#utility.yul\":272:275   */\n  dup5\n    /* \"#utility.yul\":268:284   */\n  add\n    /* \"#utility.yul\":265:290   */\n  gt\n    /* \"#utility.yul\":262:374   */\n  iszero\n  tag_31\n  jumpi\n    /* \"#utility.yul\":293:372   */\n  tag_32\n  tag_33\n  jump\t// in\ntag_32:\n    /* \"#utility.yul\":262:374   */\ntag_31:\n    /* \"#utility.yul\":383:422   */\n  tag_34\n    /* \"#utility.yul\":415:421   */\n  dup5\n    /* \"#utility.yul\":410:413   */\n  dup3\n    /* \"#utility.yul\":405:408   */\n  dup6\n    /* \"#utility.yul\":383:422   */\n  tag_35\n  jump\t// in\ntag_34:\n    /* \"#utility.yul\":102:428   */\n  pop\n    /* \"#utility.yul\":7:428   */\n  swap4\n  swap3\n  pop\n  pop\n  pop\n  jump\t// out\n    /* \"#utility.yul\":434:577   */\ntag_36:\n    /* \"#utility.yul\":491:496   */\n  0x00\n    /* \"#utility.yul\":522:528   */\n  dup2\n    /* \"#utility.yul\":516:529   */\n  mload\n    /* \"#utility.yul\":507:529   */\n  swap1\n  pop\n    /* \"#utility.yul\":538:571   */\n  tag_38\n    /* \"#utility.yul\":565:570   */\n  dup2\n    /* \"#utility.yul\":538:571   */\n  tag_39\n  jump\t// in\ntag_38:\n    /* \"#utility.yul\":434:577   */\n  swap3\n  swap2\n  pop\n  pop\n  jump\t// out\n    /* \"#utility.yul\":597:952   */\ntag_40:\n    /* \"#utility.yul\":664:669   */\n  0x00\n    /* \"#utility.yul\":713:716   */\n  dup3\n    /* \"#utility.yul\":706:710   */\n  0x1f\n    /* \"#utility.yul\":698:704   */\n  dup4\n    /* \"#utility.yul\":694:711   */\n  add\n    /* \"#utility.yul\":690:717   */\n  slt\n    /* \"#utility.yul\":680:802   */\n  tag_42\n  jumpi\n    /* \"#utility.yul\":721:800   */\n  tag_43\n  tag_44\n  jump\t// in\ntag_43:\n    /* \"#utility.yul\":680:802   */\ntag_42:\n    /* \"#utility.yul\":831:837   */\n  dup2\n    /* \"#utility.yul\":825:838   */\n  mload\n    /* \"#utility.yul\":856:946   */\n  tag_45\n    /* \"#utility.yul\":942:945   */\n  dup5\n    /* \"#utility.yul\":934:940   */\n  dup3\n    /* \"#utility.yul\":927:931   */\n  0x20\n    /* \"#utility.yul\":919:925   */\n  dup7\n    /* \"#utility.yul\":915:932   */\n  add\n    /* \"#utility.yul\":856:946   */\n  tag_25\n  jump\t// in\ntag_45:\n    /* \"#utility.yul\":847:946   */\n  swap2\n  pop\n    /* \"#utility.yul\":670:952   */\n  pop\n    /* \"#utility.yul\":597:952   */\n  swap3\n  swap2\n  pop\n  pop\n  jump\t// out\n    /* \"#utility.yul\":958:1101   */\ntag_46:\n    /* \"#utility.yul\":1015:1020   */\n  0x00\n    /* \"#utility.yul\":1046:1052   */\n  dup2\n    /* \"#utility.yul\":1040:1053   */\n  mload\n    /* \"#utility.yul\":1031:1053   */\n  swap1\n  pop\n    /* \"#utility.yul\":1062:1095   */\n  tag_48\n    /* \"#utility.yul\":1089:1094   */\n  dup2\n    /* \"#utility.yul\":1062:1095   */\n  tag_49\n  jump\t// in\ntag_48:\n    /* \"#utility.yul\":958:1101   */\n  swap3\n  swap2\n  pop\n  pop\n  jump\t// out\n    /* \"#utility.yul\":1107:2760   */\ntag_3:\n    /* \"#utility.yul\":1252:1258   */\n  0x00\n    /* \"#utility.yul\":1260:1266   */\n  dup1\n    /* \"#utility.yul\":1268:1274   */\n  0x00\n    /* \"#utility.yul\":1276:1282   */\n  dup1\n    /* \"#utility.yul\":1284:1290   */\n  0x00\n    /* \"#utility.yul\":1292:1298   */\n  dup1\n    /* \"#utility.yul\":1341:1344   */\n  0xc0\n    /* \"#utility.yul\":1329:1338   */\n  dup8\n    /* \"#utility.yul\":1320:1327   */\n  dup10\n    /* \"#utility.yul\":1316:1339   */\n  sub\n    /* \"#utility.yul\":1312:1345   */\n  slt\n    /* \"#utility.yul\":1309:1429   */\n  iszero\n  tag_51\n  jumpi\n    /* \"#utility.yul\":1348:1427   */\n  tag_52\n  tag_53\n  jump\t// in\ntag_52:\n    /* \"#utility.yul\":1309:1429   */\ntag_51:\n    /* \"#utility.yul\":1489:1490   */\n  0x00\n    /* \"#utility.yul\":1478:1487   */\n  dup8\n    /* \"#utility.yul\":1474:1491   */\n  add\n    /* \"#utility.yul\":1468:1492   */\n  mload\n    /* \"#utility.yul\":1519:1537   */\n  0xffffffffffffffff\n    /* \"#utility.yul\":1511:1517   */\n  dup2\n    /* \"#utility.yul\":1508:1538   */\n  gt\n    /* \"#utility.yul\":1505:1622   */\n  iszero\n  tag_54\n  jumpi\n    /* \"#utility.yul\":1541:1620   */\n  tag_55\n  tag_56\n  jump\t// in\ntag_55:\n    /* \"#utility.yul\":1505:1622   */\ntag_54:\n    /* \"#utility.yul\":1646:1720   */\n  tag_57\n    /* \"#utility.yul\":1712:1719   */\n  dup10\n    /* \"#utility.yul\":1703:1709   */\n  dup3\n    /* \"#utility.yul\":1692:1701   */\n  dup11\n    /* \"#utility.yul\":1688:1710   */\n  add\n    /* \"#utility.yul\":1646:1720   */\n  tag_40\n  jump\t// in\ntag_57:\n    /* \"#utility.yul\":1636:1720   */\n  swap7\n  pop\n    /* \"#utility.yul\":1439:1730   */\n  pop\n    /* \"#utility.yul\":1769:1771   */\n  0x20\n    /* \"#utility.yul\":1795:1859   */\n  tag_58\n    /* \"#utility.yul\":1851:1858   */\n  dup10\n    /* \"#utility.yul\":1842:1848   */\n  dup3\n    /* \"#utility.yul\":1831:1840   */\n  dup11\n    /* \"#utility.yul\":1827:1849   */\n  add\n    /* \"#utility.yul\":1795:1859   */\n  tag_46\n  jump\t// in\ntag_58:\n    /* \"#utility.yul\":1785:1859   */\n  swap6\n  pop\n    /* \"#utility.yul\":1740:1869   */\n  pop\n    /* \"#utility.yul\":1908:1910   */\n  0x40\n    /* \"#utility.yul\":1934:1998   */\n  tag_59\n    /* \"#utility.yul\":1990:1997   */\n  dup10\n    /* \"#utility.yul\":1981:1987   */\n  dup3\n    /* \"#utility.yul\":1970:1979   */\n  dup11\n    /* \"#utility.yul\":1966:1988   */\n  add\n    /* \"#utility.yul\":1934:1998   */\n  tag_46\n  jump\t// in\ntag_59:\n    /* \"#utility.yul\":1924:1998   */\n  swap5\n  pop\n    /* \"#utility.yul\":1879:2008   */\n  pop\n    /* \"#utility.yul\":2047:2049   */\n  0x60\n    /* \"#utility.yul\":2073:2137   */\n  tag_60\n    /* \"#utility.yul\":2129:2136   */\n  dup10\n    /* \"#utility.yul\":2120:2126   */\n  dup3\n    /* \"#utility.yul\":2109:2118   */\n  dup11\n    /* \"#utility.yul\":2105:2127   */\n  add\n    /* \"#utility.yul\":2073:2137   */\n  tag_36\n  jump\t// in\ntag_60:\n    /* \"#utility.yul\":2063:2137   */\n  swap4\n  pop\n    /* \"#utility.yul\":2018:2147   */\n  pop\n    /* \"#utility.yul\":2207:2210   */\n  0x80\n    /* \"#utility.yul\":2196:2205   */\n  dup8\n    /* \"#utility.yul\":2192:2211   */\n  add\n    /* \"#utility.yul\":2186:2212   */\n  mload\n    /* \"#utility.yul\":2239:2257   */\n  0xffffffffffffffff\n    /* \"#utility.yul\":2231:2237   */\n  dup2\n    /* \"#utility.yul\":2228:2258   */\n  gt\n    /* \"#utility.yul\":2225:2342   */\n  iszero\n  tag_61\n  jumpi\n    /* \"#utility.yul\":2261:2340   */\n  tag_62\n  tag_56\n  jump\t// in\ntag_62:\n    /* \"#utility.yul\":2225:2342   */\ntag_61:\n    /* \"#utility.yul\":2366:2440   */\n  tag_63\n    /* \"#utility.yul\":2432:2439   */\n  dup10\n    /* \"#utility.yul\":2423:2429   */\n  dup3\n    /* \"#utility.yul\":2412:2421   */\n  dup11\n    /* \"#utility.yul\":2408:2430   */\n  add\n    /* \"#utility.yul\":2366:2440   */\n  tag_40\n  jump\t// in\ntag_63:\n    /* \"#utility.yul\":2356:2440   */\n  swap3\n  pop\n    /* \"#utility.yul\":2157:2450   */\n  pop\n    /* \"#utility.yul\":2510:2513   */\n  0xa0\n    /* \"#utility.yul\":2499:2508   */\n  dup8\n    /* \"#utility.yul\":2495:2514   */\n  add\n    /* \"#utility.yul\":2489:2515   */\n  mload\n    /* \"#utility.yul\":2542:2560   */\n  0xffffffffffffffff\n    /* \"#utility.yul\":2534:2540   */\n  dup2\n    /* \"#utility.yul\":2531:2561   */\n  gt\n    /* \"#utility.yul\":2528:2645   */\n  iszero\n  tag_64\n  jumpi\n    /* \"#utility.yul\":2564:2643   */\n  tag_65\n  tag_56\n  jump\t// in\ntag_65:\n    /* \"#utility.yul\":2528:2645   */\ntag_64:\n    /* \"#utility.yul\":2669:2743   */\n  tag_66\n    /* \"#utility.yul\":2735:2742   */\n  dup10\n    /* \"#utility.yul\":2726:2732   */\n  dup3\n    /* \"#utility.yul\":2715:2724   */\n  dup11\n    /* \"#utility.yul\":2711:2733   */\n  add\n    /* \"#utility.yul\":2669:2743   */\n  tag_40\n  jump\t// in\ntag_66:\n    /* \"#utility.yul\":2659:2743   */\n  swap2\n  pop\n    /* \"#utility.yul\":2460:2753   */\n  pop\n    /* \"#utility.yul\":1107:2760   */\n  swap3\n  swap6\n  pop\n  swap3\n  swap6\n  pop\n  swap3\n  swap6\n  jump\t// out\n    /* \"#utility.yul\":2766:2895   */\ntag_30:\n    /* \"#utility.yul\":2800:2806   */\n  0x00\n    /* \"#utility.yul\":2827:2847   */\n  tag_68\n  tag_69\n  jump\t// in\ntag_68:\n    /* \"#utility.yul\":2817:2847   */\n  swap1\n  pop\n    /* \"#utility.yul\":2856:2889   */\n  tag_70\n    /* \"#utility.yul\":2884:2888   */\n  dup3\n    /* \"#utility.yul\":2876:2882   */\n  dup3\n    /* \"#utility.yul\":2856:2889   */\n  tag_71\n  jump\t// in\ntag_70:\n    /* \"#utility.yul\":2766:2895   */\n  swap2\n  swap1\n  pop\n  jump\t// out\n    /* \"#utility.yul\":2901:2976   */\ntag_69:\n    /* \"#utility.yul\":2934:2940   */\n  0x00\n    /* \"#utility.yul\":2967:2969   */\n  0x40\n    /* \"#utility.yul\":2961:2970   */\n  mload\n    /* \"#utility.yul\":2951:2970   */\n  swap1\n  pop\n    /* \"#utility.yul\":2901:2976   */\n  swap1\n  jump\t// out\n    /* \"#utility.yul\":2982:3290   */\ntag_29:\n    /* \"#utility.yul\":3044:3048   */\n  0x00\n    /* \"#utility.yul\":3134:3152   */\n  0xffffffffffffffff\n    /* \"#utility.yul\":3126:3132   */\n  dup3\n    /* \"#utility.yul\":3123:3153   */\n  gt\n    /* \"#utility.yul\":3120:3176   */\n  iszero\n  tag_74\n  jumpi\n    /* \"#utility.yul\":3156:3174   */\n  tag_75\n  tag_76\n  jump\t// in\ntag_75:\n    /* \"#utility.yul\":3120:3176   */\ntag_74:\n    /* \"#utility.yul\":3194:3223   */\n  tag_77\n    /* \"#utility.yul\":3216:3222   */\n  dup3\n    /* \"#utility.yul\":3194:3223   */\n  tag_78\n  jump\t// in\ntag_77:\n    /* \"#utility.yul\":3186:3223   */\n  swap1\n  pop\n    /* \"#utility.yul\":3278:3282   */\n  0x20\n    /* \"#utility.yul\":3272:3276   */\n  dup2\n    /* \"#utility.yul\":3268:3283   */\n  add\n    /* \"#utility.yul\":3260:3283   */\n  swap1\n  pop\n    /* \"#utility.yul\":2982:3290   */\n  swap2\n  swap1\n  pop\n  jump\t// out\n    /* \"#utility.yul\":3296:3601   */\ntag_7:\n    /* \"#utility.yul\":3336:3339   */\n  0x00\n    /* \"#utility.yul\":3355:3375   */\n  tag_80\n    /* \"#utility.yul\":3373:3374   */\n  dup3\n    /* \"#utility.yul\":3355:3375   */\n  tag_81\n  jump\t// in\ntag_80:\n    /* \"#utility.yul\":3350:3375   */\n  swap2\n  pop\n    /* \"#utility.yul\":3389:3409   */\n  tag_82\n    /* \"#utility.yul\":3407:3408   */\n  dup4\n    /* \"#utility.yul\":3389:3409   */\n  tag_81\n  jump\t// in\ntag_82:\n    /* \"#utility.yul\":3384:3409   */\n  swap3\n  pop\n    /* \"#utility.yul\":3543:3544   */\n  dup3\n    /* \"#utility.yul\":3475:3541   */\n  0xffffffffffffffffffffffffffffffffffffffffffffffffffffffffffffffff\n    /* \"#utility.yul\":3471:3545   */\n  sub\n    /* \"#utility.yul\":3468:3469   */\n  dup3\n    /* \"#utility.yul\":3465:3546   */\n  gt\n    /* \"#utility.yul\":3462:3569   */\n  iszero\n  tag_83\n  jumpi\n    /* \"#utility.yul\":3549:3567   */\n  tag_84\n  tag_85\n  jump\t// in\ntag_84:\n    /* \"#utility.yul\":3462:3569   */\ntag_83:\n    /* \"#utility.yul\":3593:3594   */\n  dup3\n    /* \"#utility.yul\":3590:3591   */\n  dup3\n    /* \"#utility.yul\":3586:3595   */\n  add\n    /* \"#utility.yul\":3579:3595   */\n  swap1\n  pop\n    /* \"#utility.yul\":3296:3601   */\n  swap3\n  swap2\n  pop\n  pop\n  jump\t// out\n    /* \"#utility.yul\":3607:3684   */\ntag_86:\n    /* \"#utility.yul\":3644:3651   */\n  0x00\n    /* \"#utility.yul\":3673:3678   */\n  dup2\n    /* \"#utility.yul\":3662:3678   */\n  swap1\n  pop\n    /* \"#utility.yul\":3607:3684   */\n  swap2\n  swap1\n  pop\n  jump\t// out\n    /* \"#utility.yul\":3690:3767   */\ntag_81:\n    /* \"#utility.yul\":3727:3734   */\n  0x00\n    /* \"#utility.yul\":3756:3761   */\n  dup2\n    /* \"#utility.yul\":3745:3761   */\n  swap1\n  pop\n    /* \"#utility.yul\":3690:3767   */\n  swap2\n  swap1\n  pop\n  jump\t// out\n    /* \"#utility.yul\":3773:4080   */\ntag_35:\n    /* \"#utility.yul\":3841:3842   */\n  0x00\n    /* \"#utility.yul\":3851:3964   */\ntag_90:\n    /* \"#utility.yul\":3865:3871   */\n  dup4\n    /* \"#utility.yul\":3862:3863   */\n  dup2\n    /* \"#utility.yul\":3859:3872   */\n  lt\n    /* \"#utility.yul\":3851:3964   */\n  iszero\n  tag_92\n  jumpi\n    /* \"#utility.yul\":3950:3951   */\n  dup1\n    /* \"#utility.yul\":3945:3948   */\n  dup3\n    /* \"#utility.yul\":3941:3952   */\n  add\n    /* \"#utility.yul\":3935:3953   */\n  mload\n    /* \"#utility.yul\":3931:3932   */\n  dup2\n    /* \"#utility.yul\":3926:3929   */\n  dup5\n    /* \"#utility.yul\":3922:3933   */\n  add\n    /* \"#utility.yul\":3915:3954   */\n  mstore\n    /* \"#utility.yul\":3887:3889   */\n  0x20\n    /* \"#utility.yul\":3884:3885   */\n  dup2\n    /* \"#utility.yul\":3880:3890   */\n  add\n    /* \"#utility.yul\":3875:3890   */\n  swap1\n  pop\n    /* \"#utility.yul\":3851:3964   */\n  jump(tag_90)\ntag_92:\n    /* \"#utility.yul\":3982:3988   */\n  dup4\n    /* \"#utility.yul\":3979:3980   */\n  dup2\n    /* \"#utility.yul\":3976:3989   */\n  gt\n    /* \"#utility.yul\":3973:4074   */\n  iszero\n  tag_93\n  jumpi\n    /* \"#utility.yul\":4062:4063   */\n  0x00\n    /* \"#utility.yul\":4053:4059   */\n  dup5\n    /* \"#utility.yul\":4048:4051   */\n  dup5\n    /* \"#utility.yul\":4044:4060   */\n  add\n    /* \"#utility.yul\":4037:4064   */\n  mstore\n    /* \"#utility.yul\":3973:4074   */\ntag_93:\n    /* \"#utility.yul\":3822:4080   */\n  pop\n    /* \"#utility.yul\":3773:4080   */\n  pop\n  pop\n  pop\n  jump\t// out\n    /* \"#utility.yul\":4086:4406   */\ntag_14:\n    /* \"#utility.yul\":4130:4136   */\n  0x00\n    /* \"#utility.yul\":4167:4168   */\n  0x02\n    /* \"#utility.yul\":4161:4165   */\n  dup3\n    /* \"#utility.yul\":4157:4169   */\n  div\n    /* \"#utility.yul\":4147:4169   */\n  swap1\n  pop\n    /* \"#utility.yul\":4214:4215   */\n  0x01\n    /* \"#utility.yul\":4208:4212   */\n  dup3\n    /* \"#utility.yul\":4204:4216   */\n  and\n    /* \"#utility.yul\":4235:4253   */\n  dup1\n    /* \"#utility.yul\":4225:4306   */\n  tag_95\n  jumpi\n    /* \"#utility.yul\":4291:4295   */\n  0x7f\n    /* \"#utility.yul\":4283:4289   */\n  dup3\n    /* \"#utility.yul\":4279:4296   */\n  and\n    /* \"#utility.yul\":4269:4296   */\n  swap2\n  pop\n    /* \"#utility.yul\":4225:4306   */\ntag_95:\n    /* \"#utility.yul\":4353:4355   */\n  0x20\n    /* \"#utility.yul\":4345:4351   */\n  dup3\n    /* \"#utility.yul\":4342:4356   */\n  lt\n    /* \"#utility.yul\":4322:4340   */\n  dup2\n    /* \"#utility.yul\":4319:4357   */\n  eq\n    /* \"#utility.yul\":4316:4400   */\n  iszero\n  tag_96\n  jumpi\n    /* \"#utility.yul\":4372:4390   */\n  tag_97\n  tag_98\n  jump\t// in\ntag_97:\n    /* \"#utility.yul\":4316:4400   */\ntag_96:\n    /* \"#utility.yul\":4137:4406   */\n  pop\n    /* \"#utility.yul\":4086:4406   */\n  swap2\n  swap1\n  pop\n  jump\t// out\n    /* \"#utility.yul\":4412:4693   */\ntag_71:\n    /* \"#utility.yul\":4495:4522   */\n  tag_100\n    /* \"#utility.yul\":4517:4521   */\n  dup3\n    /* \"#utility.yul\":4495:4522   */\n  tag_78\n  jump\t// in\ntag_100:\n    /* \"#utility.yul\":4487:4493   */\n  dup2\n    /* \"#utility.yul\":4483:4523   */\n  add\n    /* \"#utility.yul\":4625:4631   */\n  dup2\n    /* \"#utility.yul\":4613:4623   */\n  dup2\n    /* \"#utility.yul\":4610:4632   */\n  lt\n    /* \"#utility.yul\":4589:4607   */\n  0xffffffffffffffff\n    /* \"#utility.yul\":4577:4587   */\n  dup3\n    /* \"#utility.yul\":4574:4608   */\n  gt\n    /* \"#utility.yul\":4571:4633   */\n  or\n    /* \"#utility.yul\":4568:4656   */\n  iszero\n  tag_101\n  jumpi\n    /* \"#utility.yul\":4636:4654   */\n  tag_102\n  tag_76\n  jump\t// in\ntag_102:\n    /* \"#utility.yul\":4568:4656   */\ntag_101:\n    /* \"#utility.yul\":4676:4686   */\n  dup1\n    /* \"#utility.yul\":4672:4674   */\n  0x40\n    /* \"#utility.yul\":4665:4687   */\n  mstore\n    /* \"#utility.yul\":4455:4693   */\n  pop\n    /* \"#utility.yul\":4412:4693   */\n  pop\n  pop\n  jump\t// out\n    /* \"#utility.yul\":4699:4879   */\ntag_85:\n    /* \"#utility.yul\":4747:4824   */\n  0x4e487b7100000000000000000000000000000000000000000000000000000000\n    /* \"#utility.yul\":4744:4745   */\n  0x00\n    /* \"#utility.yul\":4737:4825   */\n  mstore\n    /* \"#utility.yul\":4844:4848   */\n  0x11\n    /* \"#utility.yul\":4841:4842   */\n  0x04\n    /* \"#utility.yul\":4834:4849   */\n  mstore\n    /* \"#utility.yul\":4868:4872   */\n  0x24\n    /* \"#utility.yul\":4865:4866   */\n  0x00\n    /* \"#utility.yul\":4858:4873   */\n  revert\n    /* \"#utility.yul\":4885:5065   */\ntag_98:\n    /* \"#utility.yul\":4933:5010   */\n  0x4e487b7100000000000000000000000000000000000000000000000000000000\n    /* \"#utility.yul\":4930:4931   */\n  0x00\n    /* \"#utility.yul\":4923:5011   */\n  mstore\n    /* \"#utility.yul\":5030:5034   */\n  0x22\n    /* \"#utility.yul\":5027:5028   */\n  0x04\n    /* \"#utility.yul\":5020:5035   */\n  mstore\n    /* \"#utility.yul\":5054:5058   */\n  0x24\n    /* \"#utility.yul\":5051:5052   */\n  0x00\n    /* \"#utility.yul\":5044:5059   */\n  revert\n    /* \"#utility.yul\":5071:5251   */\ntag_76:\n    /* \"#utility.yul\":5119:5196   */\n  0x4e487b7100000000000000000000000000000000000000000000000000000000\n    /* \"#utility.yul\":5116:5117   */\n  0x00\n    /* \"#utility.yul\":5109:5197   */\n  mstore\n    /* \"#utility.yul\":5216:5220   */\n  0x41\n    /* \"#utility.yul\":5213:5214   */\n  0x04\n    /* \"#utility.yul\":5206:5221   */\n  mstore\n    /* \"#utility.yul\":5240:5244   */\n  0x24\n    /* \"#utility.yul\":5237:5238   */\n  0x00\n    /* \"#utility.yul\":5230:5245   */\n  revert\n    /* \"#utility.yul\":5257:5374   */\ntag_44:\n    /* \"#utility.yul\":5366:5367   */\n  0x00\n    /* \"#utility.yul\":5363:5364   */\n  dup1\n    /* \"#utility.yul\":5356:5368   */\n  revert\n    /* \"#utility.yul\":5380:5497   */\ntag_33:\n    /* \"#utility.yul\":5489:5490   */\n  0x00\n    /* \"#utility.yul\":5486:5487   */\n  dup1\n    /* \"#utility.yul\":5479:5491   */\n  revert\n    /* \"#utility.yul\":5503:5620   */\ntag_56:\n    /* \"#utility.yul\":5612:5613   */\n  0x00\n    /* \"#utility.yul\":5609:5610   */\n  dup1\n    /* \"#utility.yul\":5602:5614   */\n  revert\n    /* \"#utility.yul\":5626:5743   */\ntag_53:\n    /* \"#utility.yul\":5735:5736   */\n  0x00\n    /* \"#utility.yul\":5732:5733   */\n  dup1\n    /* \"#utility.yul\":5725:5737   */\n  revert\n    /* \"#utility.yul\":5749:5851   */\ntag_78:\n    /* \"#utility.yul\":5790:5796   */\n  0x00\n    /* \"#utility.yul\":5841:5843   */\n  0x1f\n    /* \"#utility.yul\":5837:5844   */\n  not\n    /* \"#utility.yul\":5832:5834   */\n  0x1f\n    /* \"#utility.yul\":5825:5830   */\n  dup4\n    /* \"#utility.yul\":5821:5835   */\n  add\n    /* \"#utility.yul\":5817:5845   */\n  and\n    /* \"#utility.yul\":5807:5845   */\n  swap1\n  pop\n    /* \"#utility.yul\":5749:5851   */\n  swap2\n  swap1\n  pop\n  jump\t// out\n    /* \"#utility.yul\":5857:5979   */\ntag_39:\n    /* \"#utility.yul\":5930:5954   */\n  tag_112\n    /* \"#utility.yul\":5948:5953   */\n  dup2\n    /* \"#utility.yul\":5930:5954   */\n  tag_86\n  jump\t// in\ntag_112:\n    /* \"#utility.yul\":5923:5928   */\n  dup2\n    /* \"#utility.yul\":5920:5955   */\n  eq\n    /* \"#utility.yul\":5910:5973   */\n  tag_113\n  jumpi\n    /* \"#utility.yul\":5969:5970   */\n  0x00\n    /* \"#utility.yul\":5966:5967   */\n  dup1\n    /* \"#utility.yul\":5959:5971   */\n  revert\n    /* \"#utility.yul\":5910:5973   */\ntag_113:\n    /* \"#utility.yul\":5857:5979   */\n  pop\n  jump\t// out\n    /* \"#utility.yul\":5985:6107   */\ntag_49:\n    /* \"#utility.yul\":6058:6082   */\n  tag_115\n    /* \"#utility.yul\":6076:6081   */\n  dup2\n    /* \"#utility.yul\":6058:6082   */\n  tag_81\n  jump\t// in\ntag_115:\n    /* \"#utility.yul\":6051:6056   */\n  dup2\n    /* \"#utility.yul\":6048:6083   */\n  eq\n    /* \"#utility.yul\":6038:6101   */\n  tag_116\n  jumpi\n    /* \"#utility.yul\":6097:6098   */\n  0x00\n    /* \"#utility.yul\":6094:6095   */\n  dup1\n    /* \"#utility.yul\":6087:6099   */\n  revert\n    /* \"#utility.yul\":6038:6101   */\ntag_116:\n    /* \"#utility.yul\":5985:6107   */\n  pop\n  jump\t// out\n    /* \"contracts/BusinessConsensus.sol\":33:5510  contract BusinessConsensus{\r... */\ntag_12:\n  dataSize(sub_0)\n  dup1\n  dataOffset(sub_0)\n  0x00\n  codecopy\n  0x00\n  return\nstop\n\nsub_0: assembly {\n        /* \"contracts/BusinessConsensus.sol\":33:5510  contract BusinessConsensus{\r... */\n      mstore(0x40, 0x80)\n      callvalue\n      dup1\n      iszero\n      tag_1\n      jumpi\n      0x00\n      dup1\n      revert\n    tag_1:\n      pop\n      jumpi(tag_2, lt(calldatasize, 0x04))\n      shr(0xe0, calldataload(0x00))\n      dup1\n      0x760297e9\n      gt\n      tag_19\n      jumpi\n      dup1\n      0xa5ea11da\n      gt\n      tag_20\n      jumpi\n      dup1\n      0xa5ea11da\n      eq\n      tag_15\n      jumpi\n      dup1\n      0xd77aa749\n      eq\n      tag_16\n      jumpi\n      dup1\n      0xda58c7d9\n      eq\n      tag_17\n      jumpi\n      dup1\n      0xf6b4dfb4\n      eq\n      tag_18\n      jumpi\n      jump(tag_2)\n    tag_20:\n      dup1\n      0x760297e9\n      eq\n      tag_11\n      jumpi\n      dup1\n      0x82316745\n      eq\n      tag_12\n      jumpi\n      dup1\n      0x95b02dfa\n      eq\n      tag_13\n      jumpi\n      dup1\n      0x9aa4bbdd\n      eq\n      tag_14\n      jumpi\n      jump(tag_2)\n    tag_19:\n      dup1\n      0x5361a0ea\n      gt\n      tag_21\n      jumpi\n      dup1\n      0x5361a0ea\n      eq\n      tag_7\n      jumpi\n      dup1\n      0x5c39fcc1\n      eq\n      tag_8\n      jumpi\n      dup1\n      0x7403c5e5\n      eq\n      tag_9\n      jumpi\n      dup1\n      0x753ec103\n      eq\n      tag_10\n      jumpi\n      jump(tag_2)\n    tag_21:\n      dup1\n      0x0cb6aaf1\n      eq\n      tag_3\n      jumpi\n      dup1\n      0x15fe6f1b\n      eq\n      tag_4\n      jumpi\n      dup1\n      0x19eb4a90\n      eq\n      tag_5\n      jumpi\n      dup1\n      0x323082d7\n      eq\n      tag_6\n      jumpi\n    tag_2:\n      0x00\n      dup1\n      revert\n        /* \"contracts/BusinessConsensus.sol\":841:862  address[] public keys */\n    tag_3:\n      tag_22\n      0x04\n      dup1\n      calldatasize\n      sub\n      dup2\n      add\n      swap1\n      tag_23\n      swap2\n      swap1\n      tag_24\n      jump\t// in\n    tag_23:\n      tag_25\n      jump\t// in\n    tag_22:\n      mload(0x40)\n      tag_26\n      swap2\n      swap1\n      tag_27\n      jump\t// in\n    tag_26:\n      mload(0x40)\n      dup1\n      swap2\n      sub\n      swap1\n      return\n        /* \"contracts/BusinessConsensus.sol\":2715:3359  function RegisterVoter(address voter) external {\r... */\n    tag_4:\n      tag_28\n      0x04\n      dup1\n      calldatasize\n      sub\n      dup2\n      add\n      swap1\n      tag_29\n      swap2\n      swap1\n      tag_30\n      jump\t// in\n    tag_29:\n      tag_31\n      jump\t// in\n    tag_28:\n      stop\n        /* \"contracts/BusinessConsensus.sol\":2034:2134  function getValues() public view returns (string memory){\r... */\n    tag_5:\n      tag_32\n      tag_33\n      jump\t// in\n    tag_32:\n      mload(0x40)\n      tag_34\n      swap2\n      swap1\n      tag_35\n      jump\t// in\n    tag_34:\n      mload(0x40)\n      dup1\n      swap2\n      sub\n      swap1\n      return\n        /* \"contracts/BusinessConsensus.sol\":3367:4464  function Vote(string memory response) external {\r... */\n    tag_6:\n      tag_36\n      0x04\n      dup1\n      calldatasize\n      sub\n      dup2\n      add\n      swap1\n      tag_37\n      swap2\n      swap1\n      tag_38\n      jump\t// in\n    tag_37:\n      tag_39\n      jump\t// in\n    tag_36:\n      stop\n        /* \"contracts/BusinessConsensus.sol\":2395:2609  function getParameters2(address test_address) external view returns (bool, bool, address){\r... */\n    tag_7:\n      tag_40\n      0x04\n      dup1\n      calldatasize\n      sub\n      dup2\n      add\n      swap1\n      tag_41\n      swap2\n      swap1\n      tag_30\n      jump\t// in\n    tag_41:\n      tag_42\n      jump\t// in\n    tag_40:\n      mload(0x40)\n      tag_43\n      swap4\n      swap3\n      swap2\n      swap1\n      tag_44\n      jump\t// in\n    tag_43:\n      mload(0x40)\n      dup1\n      swap2\n      sub\n      swap1\n      return\n        /* \"contracts/BusinessConsensus.sol\":808:832  address public initiator */\n    tag_8:\n      tag_45\n      tag_46\n      jump\t// in\n    tag_45:\n      mload(0x40)\n      tag_47\n      swap2\n      swap1\n      tag_27\n      jump\t// in\n    tag_47:\n      mload(0x40)\n      dup1\n      swap2\n      sub\n      swap1\n      return\n        /* \"contracts/BusinessConsensus.sol\":958:985  uint256 public numApprovals */\n    tag_9:\n      tag_48\n      tag_49\n      jump\t// in\n    tag_48:\n      mload(0x40)\n      tag_50\n      swap2\n      swap1\n      tag_51\n      jump\t// in\n    tag_50:\n      mload(0x40)\n      dup1\n      swap2\n      sub\n      swap1\n      return\n        /* \"contracts/BusinessConsensus.sol\":1218:1242  Proposal public proposal */\n    tag_10:\n      tag_52\n      tag_53\n      jump\t// in\n    tag_52:\n      mload(0x40)\n      tag_54\n      swap7\n      swap6\n      swap5\n      swap4\n      swap3\n      swap2\n      swap1\n      tag_55\n      jump\t// in\n    tag_54:\n      mload(0x40)\n      dup1\n      swap2\n      sub\n      swap1\n      return\n        /* \"contracts/BusinessConsensus.sol\":2140:2227  function getIsCompiled() public view returns (bool){\r... */\n    tag_11:\n      tag_56\n      tag_57\n      jump\t// in\n    tag_56:\n      mload(0x40)\n      tag_58\n      swap2\n      swap1\n      tag_59\n      jump\t// in\n    tag_58:\n      mload(0x40)\n      dup1\n      swap2\n      sub\n      swap1\n      return\n        /* \"contracts/BusinessConsensus.sol\":5263:5505  function retrieve_bundle() external view returns (bytes32, Proposal memory, Voter[] memory){\r... */\n    tag_12:\n      tag_60\n      tag_61\n      jump\t// in\n    tag_60:\n      mload(0x40)\n      tag_62\n      swap4\n      swap3\n      swap2\n      swap1\n      tag_63\n      jump\t// in\n    tag_62:\n      mload(0x40)\n      dup1\n      swap2\n      sub\n      swap1\n      return\n        /* \"contracts/BusinessConsensus.sol\":4528:5255  function Consensus() external {\r... */\n    tag_13:\n      tag_64\n      tag_65\n      jump\t// in\n    tag_64:\n      stop\n        /* \"contracts/BusinessConsensus.sol\":1098:1141  mapping(address => Voter) public voters_map */\n    tag_14:\n      tag_66\n      0x04\n      dup1\n      calldatasize\n      sub\n      dup2\n      add\n      swap1\n      tag_67\n      swap2\n      swap1\n      tag_30\n      jump\t// in\n    tag_67:\n      tag_68\n      jump\t// in\n    tag_66:\n      mload(0x40)\n      tag_69\n      swap4\n      swap3\n      swap2\n      swap1\n      tag_44\n      jump\t// in\n    tag_69:\n      mload(0x40)\n      dup1\n      swap2\n      sub\n      swap1\n      return\n        /* \"contracts/BusinessConsensus.sol\":2233:2389  function getParameters() external view returns (bytes32, uint , uint){\r... */\n    tag_15:\n      tag_70\n      tag_71\n      jump\t// in\n    tag_70:\n      mload(0x40)\n      tag_72\n      swap4\n      swap3\n      swap2\n      swap1\n      tag_73\n      jump\t// in\n    tag_72:\n      mload(0x40)\n      dup1\n      swap2\n      sub\n      swap1\n      return\n        /* \"contracts/BusinessConsensus.sol\":917:951  uint256 public BusinessRequirement */\n    tag_16:\n      tag_74\n      tag_75\n      jump\t// in\n    tag_74:\n      mload(0x40)\n      tag_76\n      swap2\n      swap1\n      tag_51\n      jump\t// in\n    tag_76:\n      mload(0x40)\n      dup1\n      swap2\n      sub\n      swap1\n      return\n        /* \"contracts/BusinessConsensus.sol\":1068:1089  Voter[] public voters */\n    tag_17:\n      tag_77\n      0x04\n      dup1\n      calldatasize\n      sub\n      dup2\n      add\n      swap1\n      tag_78\n      swap2\n      swap1\n      tag_24\n      jump\t// in\n    tag_78:\n      tag_79\n      jump\t// in\n    tag_77:\n      mload(0x40)\n      tag_80\n      swap4\n      swap3\n      swap2\n      swap1\n      tag_44\n      jump\t// in\n    tag_80:\n      mload(0x40)\n      dup1\n      swap2\n      sub\n      swap1\n      return\n        /* \"contracts/BusinessConsensus.sol\":708:738  address public contractAddress */\n    tag_18:\n      tag_81\n      tag_82\n      jump\t// in\n    tag_81:\n      mload(0x40)\n      tag_83\n      swap2\n      swap1\n      tag_27\n      jump\t// in\n    tag_83:\n      mload(0x40)\n      dup1\n      swap2\n      sub\n      swap1\n      return\n        /* \"contracts/BusinessConsensus.sol\":841:862  address[] public keys */\n    tag_25:\n      0x02\n      dup2\n      dup2\n      sload\n      dup2\n      lt\n      tag_84\n      jumpi\n      0x00\n      dup1\n      revert\n    tag_84:\n      swap1\n      0x00\n      mstore\n      keccak256(0x00, 0x20)\n      add\n      0x00\n      swap2\n      pop\n      sload\n      swap1\n      0x0100\n      exp\n      swap1\n      div\n      0xffffffffffffffffffffffffffffffffffffffff\n      and\n      dup2\n      jump\t// out\n        /* \"contracts/BusinessConsensus.sol\":2715:3359  function RegisterVoter(address voter) external {\r... */\n    tag_31:\n        /* \"contracts/BusinessConsensus.sol\":2883:2892  initiator */\n      0x01\n      0x00\n      swap1\n      sload\n      swap1\n      0x0100\n      exp\n      swap1\n      div\n      0xffffffffffffffffffffffffffffffffffffffff\n      and\n        /* \"contracts/BusinessConsensus.sol\":2869:2892  msg.sender == initiator */\n      0xffffffffffffffffffffffffffffffffffffffff\n      and\n        /* \"contracts/BusinessConsensus.sol\":2869:2879  msg.sender */\n      caller\n        /* \"contracts/BusinessConsensus.sol\":2869:2892  msg.sender == initiator */\n      0xffffffffffffffffffffffffffffffffffffffff\n      and\n      eq\n        /* \"contracts/BusinessConsensus.sol\":2847:2960  require(\r... */\n      tag_87\n      jumpi\n      mload(0x40)\n      0x08c379a000000000000000000000000000000000000000000000000000000000\n      dup2\n      mstore\n      0x04\n      add\n      tag_88\n      swap1\n      tag_89\n      jump\t// in\n    tag_88:\n      mload(0x40)\n      dup1\n      swap2\n      sub\n      swap1\n      revert\n    tag_87:\n        /* \"contracts/BusinessConsensus.sol\":2988:2997  initiator */\n      0x01\n      0x00\n      swap1\n      sload\n      swap1\n      0x0100\n      exp\n      swap1\n      div\n      0xffffffffffffffffffffffffffffffffffffffff\n      and\n        /* \"contracts/BusinessConsensus.sol\":2979:2997  voter != initiator */\n      0xffffffffffffffffffffffffffffffffffffffff\n      and\n        /* \"contracts/BusinessConsensus.sol\":2979:2984  voter */\n      dup2\n        /* \"contracts/BusinessConsensus.sol\":2979:2997  voter != initiator */\n      0xffffffffffffffffffffffffffffffffffffffff\n      and\n      eq\n      iszero\n        /* \"contracts/BusinessConsensus.sol\":2971:3023  require(voter != initiator, \"Initiator can't vote!\") */\n      tag_90\n      jumpi\n      mload(0x40)\n      0x08c379a000000000000000000000000000000000000000000000000000000000\n      dup2\n      mstore\n      0x04\n      add\n      tag_91\n      swap1\n      tag_92\n      jump\t// in\n    tag_91:\n      mload(0x40)\n      dup1\n      swap2\n      sub\n      swap1\n      revert\n    tag_90:\n        /* \"contracts/BusinessConsensus.sol\":3083:3084  0 */\n      0x00\n        /* \"contracts/BusinessConsensus.sol\":3044:3085  voters_map[voter].recipient == address(0) */\n      0xffffffffffffffffffffffffffffffffffffffff\n      and\n        /* \"contracts/BusinessConsensus.sol\":3044:3054  voters_map */\n      0x09\n        /* \"contracts/BusinessConsensus.sol\":3044:3061  voters_map[voter] */\n      0x00\n        /* \"contracts/BusinessConsensus.sol\":3055:3060  voter */\n      dup4\n        /* \"contracts/BusinessConsensus.sol\":3044:3061  voters_map[voter] */\n      0xffffffffffffffffffffffffffffffffffffffff\n      and\n      0xffffffffffffffffffffffffffffffffffffffff\n      and\n      dup2\n      mstore\n      0x20\n      add\n      swap1\n      dup2\n      mstore\n      0x20\n      add\n      0x00\n      keccak256\n        /* \"contracts/BusinessConsensus.sol\":3044:3071  voters_map[voter].recipient */\n      0x00\n      add\n      0x02\n      swap1\n      sload\n      swap1\n      0x0100\n      exp\n      swap1\n      div\n      0xffffffffffffffffffffffffffffffffffffffff\n      and\n        /* \"contracts/BusinessConsensus.sol\":3044:3085  voters_map[voter].recipient == address(0) */\n      0xffffffffffffffffffffffffffffffffffffffff\n      and\n      eq\n        /* \"contracts/BusinessConsensus.sol\":3036:3121  require(voters_map[voter].recipient == address(0), \"Recipient is already registered\") */\n      tag_93\n      jumpi\n      mload(0x40)\n      0x08c379a000000000000000000000000000000000000000000000000000000000\n      dup2\n      mstore\n      0x04\n      add\n      tag_94\n      swap1\n      tag_95\n      jump\t// in\n    tag_94:\n      mload(0x40)\n      dup1\n      swap2\n      sub\n      swap1\n      revert\n    tag_93:\n        /* \"contracts/BusinessConsensus.sol\":3160:3170  expiryDate */\n      sload(0x03)\n        /* \"contracts/BusinessConsensus.sol\":3142:3157  block.timestamp */\n      timestamp\n        /* \"contracts/BusinessConsensus.sol\":3142:3170  block.timestamp < expiryDate */\n      lt\n        /* \"contracts/BusinessConsensus.sol\":3134:3211  require(block.timestamp < expiryDate, \"Proposal has reached its expiry date\") */\n      tag_96\n      jumpi\n      mload(0x40)\n      0x08c379a000000000000000000000000000000000000000000000000000000000\n      dup2\n      mstore\n      0x04\n      add\n      tag_97\n      swap1\n      tag_98\n      jump\t// in\n    tag_97:\n      mload(0x40)\n      dup1\n      swap2\n      sub\n      swap1\n      revert\n    tag_96:\n        /* \"contracts/BusinessConsensus.sol\":3224:3238  Voter memory x */\n      0x00\n        /* \"contracts/BusinessConsensus.sol\":3241:3292  Voter({voted: false,recipient: voter, vote: false}) */\n      mload(0x40)\n      dup1\n      0x60\n      add\n      0x40\n      mstore\n      dup1\n        /* \"contracts/BusinessConsensus.sol\":3255:3260  false */\n      0x00\n        /* \"contracts/BusinessConsensus.sol\":3241:3292  Voter({voted: false,recipient: voter, vote: false}) */\n      iszero\n      iszero\n      dup2\n      mstore\n      0x20\n      add\n        /* \"contracts/BusinessConsensus.sol\":3285:3290  false */\n      0x00\n        /* \"contracts/BusinessConsensus.sol\":3241:3292  Voter({voted: false,recipient: voter, vote: false}) */\n      iszero\n      iszero\n      dup2\n      mstore\n      0x20\n      add\n        /* \"contracts/BusinessConsensus.sol\":3272:3277  voter */\n      dup4\n        /* \"contracts/BusinessConsensus.sol\":3241:3292  Voter({voted: false,recipient: voter, vote: false}) */\n      0xffffffffffffffffffffffffffffffffffffffff\n      and\n      dup2\n      mstore\n      pop\n        /* \"contracts/BusinessConsensus.sol\":3224:3292  Voter memory x = Voter({voted: false,recipient: voter, vote: false}) */\n      swap1\n      pop\n        /* \"contracts/BusinessConsensus.sol\":3323:3324  x */\n      dup1\n        /* \"contracts/BusinessConsensus.sol\":3303:3313  voters_map */\n      0x09\n        /* \"contracts/BusinessConsensus.sol\":3303:3320  voters_map[voter] */\n      0x00\n        /* \"contracts/BusinessConsensus.sol\":3314:3319  voter */\n      dup5\n        /* \"contracts/BusinessConsensus.sol\":3303:3320  voters_map[voter] */\n      0xffffffffffffffffffffffffffffffffffffffff\n      and\n      0xffffffffffffffffffffffffffffffffffffffff\n      and\n      dup2\n      mstore\n      0x20\n      add\n      swap1\n      dup2\n      mstore\n      0x20\n      add\n      0x00\n      keccak256\n        /* \"contracts/BusinessConsensus.sol\":3303:3324  voters_map[voter] = x */\n      0x00\n      dup3\n      add\n      mload\n      dup2\n      0x00\n      add\n      exp(0x0100, 0x00)\n      dup2\n      sload\n      dup2\n      0xff\n      mul\n      not\n      and\n      swap1\n      dup4\n      iszero\n      iszero\n      mul\n      or\n      swap1\n      sstore\n      pop\n      0x20\n      dup3\n      add\n      mload\n      dup2\n      0x00\n      add\n      exp(0x0100, 0x01)\n      dup2\n      sload\n      dup2\n      0xff\n      mul\n      not\n      and\n      swap1\n      dup4\n      iszero\n      iszero\n      mul\n      or\n      swap1\n      sstore\n      pop\n      0x40\n      dup3\n      add\n      mload\n      dup2\n      0x00\n      add\n      exp(0x0100, 0x02)\n      dup2\n      sload\n      dup2\n      0xffffffffffffffffffffffffffffffffffffffff\n      mul\n      not\n      and\n      swap1\n      dup4\n      0xffffffffffffffffffffffffffffffffffffffff\n      and\n      mul\n      or\n      swap1\n      sstore\n      pop\n      swap1\n      pop\n      pop\n        /* \"contracts/BusinessConsensus.sol\":3335:3339  keys */\n      0x02\n        /* \"contracts/BusinessConsensus.sol\":3345:3350  voter */\n      dup3\n        /* \"contracts/BusinessConsensus.sol\":3335:3351  keys.push(voter) */\n      swap1\n      dup1\n      0x01\n      dup2\n      sload\n      add\n      dup1\n      dup3\n      sstore\n      dup1\n      swap2\n      pop\n      pop\n      0x01\n      swap1\n      sub\n      swap1\n      0x00\n      mstore\n      keccak256(0x00, 0x20)\n      add\n      0x00\n      swap1\n      swap2\n      swap1\n      swap2\n      swap1\n      swap2\n      0x0100\n      exp\n      dup2\n      sload\n      dup2\n      0xffffffffffffffffffffffffffffffffffffffff\n      mul\n      not\n      and\n      swap1\n      dup4\n      0xffffffffffffffffffffffffffffffffffffffff\n      and\n      mul\n      or\n      swap1\n      sstore\n      pop\n        /* \"contracts/BusinessConsensus.sol\":2762:3359  {\r... */\n      pop\n        /* \"contracts/BusinessConsensus.sol\":2715:3359  function RegisterVoter(address voter) external {\r... */\n      pop\n      jump\t// out\n        /* \"contracts/BusinessConsensus.sol\":2034:2134  function getValues() public view returns (string memory){\r... */\n    tag_33:\n        /* \"contracts/BusinessConsensus.sol\":2076:2089  string memory */\n      0x60\n        /* \"contracts/BusinessConsensus.sol\":2108:2116  proposal */\n      0x0a\n        /* \"contracts/BusinessConsensus.sol\":2108:2126  proposal.messageID */\n      0x01\n      add\n        /* \"contracts/BusinessConsensus.sol\":2101:2126  return proposal.messageID */\n      dup1\n      sload\n      tag_101\n      swap1\n      tag_102\n      jump\t// in\n    tag_101:\n      dup1\n      0x1f\n      add\n      0x20\n      dup1\n      swap2\n      div\n      mul\n      0x20\n      add\n      mload(0x40)\n      swap1\n      dup2\n      add\n      0x40\n      mstore\n      dup1\n      swap3\n      swap2\n      swap1\n      dup2\n      dup2\n      mstore\n      0x20\n      add\n      dup3\n      dup1\n      sload\n      tag_103\n      swap1\n      tag_102\n      jump\t// in\n    tag_103:\n      dup1\n      iszero\n      tag_104\n      jumpi\n      dup1\n      0x1f\n      lt\n      tag_105\n      jumpi\n      0x0100\n      dup1\n      dup4\n      sload\n      div\n      mul\n      dup4\n      mstore\n      swap2\n      0x20\n      add\n      swap2\n      jump(tag_104)\n    tag_105:\n      dup3\n      add\n      swap2\n      swap1\n      0x00\n      mstore\n      keccak256(0x00, 0x20)\n      swap1\n    tag_106:\n      dup2\n      sload\n      dup2\n      mstore\n      swap1\n      0x01\n      add\n      swap1\n      0x20\n      add\n      dup1\n      dup4\n      gt\n      tag_106\n      jumpi\n      dup3\n      swap1\n      sub\n      0x1f\n      and\n      dup3\n      add\n      swap2\n    tag_104:\n      pop\n      pop\n      pop\n      pop\n      pop\n      swap1\n      pop\n        /* \"contracts/BusinessConsensus.sol\":2034:2134  function getValues() public view returns (string memory){\r... */\n      swap1\n      jump\t// out\n        /* \"contracts/BusinessConsensus.sol\":3367:4464  function Vote(string memory response) external {\r... */\n    tag_39:\n        /* \"contracts/BusinessConsensus.sol\":3453:3463  expiryDate */\n      sload(0x03)\n        /* \"contracts/BusinessConsensus.sol\":3435:3450  block.timestamp */\n      timestamp\n        /* \"contracts/BusinessConsensus.sol\":3435:3463  block.timestamp < expiryDate */\n      lt\n        /* \"contracts/BusinessConsensus.sol\":3427:3486  require(block.timestamp < expiryDate, \"Voting has expired\") */\n      tag_108\n      jumpi\n      mload(0x40)\n      0x08c379a000000000000000000000000000000000000000000000000000000000\n      dup2\n      mstore\n      0x04\n      add\n      tag_109\n      swap1\n      tag_110\n      jump\t// in\n    tag_109:\n      mload(0x40)\n      dup1\n      swap2\n      sub\n      swap1\n      revert\n    tag_108:\n        /* \"contracts/BusinessConsensus.sol\":3549:3552  0x0 */\n      0x00\n        /* \"contracts/BusinessConsensus.sol\":3505:3553  voters_map[msg.sender].recipient != address(0x0) */\n      0xffffffffffffffffffffffffffffffffffffffff\n      and\n        /* \"contracts/BusinessConsensus.sol\":3505:3515  voters_map */\n      0x09\n        /* \"contracts/BusinessConsensus.sol\":3505:3527  voters_map[msg.sender] */\n      0x00\n        /* \"contracts/BusinessConsensus.sol\":3516:3526  msg.sender */\n      caller\n        /* \"contracts/BusinessConsensus.sol\":3505:3527  voters_map[msg.sender] */\n      0xffffffffffffffffffffffffffffffffffffffff\n      and\n      0xffffffffffffffffffffffffffffffffffffffff\n      and\n      dup2\n      mstore\n      0x20\n      add\n      swap1\n      dup2\n      mstore\n      0x20\n      add\n      0x00\n      keccak256\n        /* \"contracts/BusinessConsensus.sol\":3505:3537  voters_map[msg.sender].recipient */\n      0x00\n      add\n      0x02\n      swap1\n      sload\n      swap1\n      0x0100\n      exp\n      swap1\n      div\n      0xffffffffffffffffffffffffffffffffffffffff\n      and\n        /* \"contracts/BusinessConsensus.sol\":3505:3553  voters_map[msg.sender].recipient != address(0x0) */\n      0xffffffffffffffffffffffffffffffffffffffff\n      and\n      eq\n      iszero\n        /* \"contracts/BusinessConsensus.sol\":3497:3588  require(voters_map[msg.sender].recipient != address(0x0), \"You are not registered to vote\") */\n      tag_111\n      jumpi\n      mload(0x40)\n      0x08c379a000000000000000000000000000000000000000000000000000000000\n      dup2\n      mstore\n      0x04\n      add\n      tag_112\n      swap1\n      tag_113\n      jump\t// in\n    tag_112:\n      mload(0x40)\n      dup1\n      swap2\n      sub\n      swap1\n      revert\n    tag_111:\n        /* \"contracts/BusinessConsensus.sol\":3608:3618  voters_map */\n      0x09\n        /* \"contracts/BusinessConsensus.sol\":3608:3630  voters_map[msg.sender] */\n      0x00\n        /* \"contracts/BusinessConsensus.sol\":3619:3629  msg.sender */\n      caller\n        /* \"contracts/BusinessConsensus.sol\":3608:3630  voters_map[msg.sender] */\n      0xffffffffffffffffffffffffffffffffffffffff\n      and\n      0xffffffffffffffffffffffffffffffffffffffff\n      and\n      dup2\n      mstore\n      0x20\n      add\n      swap1\n      dup2\n      mstore\n      0x20\n      add\n      0x00\n      keccak256\n        /* \"contracts/BusinessConsensus.sol\":3608:3636  voters_map[msg.sender].voted */\n      0x00\n      add\n      0x00\n      swap1\n      sload\n      swap1\n      0x0100\n      exp\n      swap1\n      div\n      0xff\n      and\n        /* \"contracts/BusinessConsensus.sol\":3607:3636  !voters_map[msg.sender].voted */\n      iszero\n        /* \"contracts/BusinessConsensus.sol\":3599:3669  require(!voters_map[msg.sender].voted, \"You already sent a response.\") */\n      tag_114\n      jumpi\n      mload(0x40)\n      0x08c379a000000000000000000000000000000000000000000000000000000000\n      dup2\n      mstore\n      0x04\n      add\n      tag_115\n      swap1\n      tag_116\n      jump\t// in\n    tag_115:\n      mload(0x40)\n      dup1\n      swap2\n      sub\n      swap1\n      revert\n    tag_114:\n        /* \"contracts/BusinessConsensus.sol\":3725:3743  bytes(\"i approve\") */\n      mload(0x40)\n      dup1\n      0x40\n      add\n      0x40\n      mstore\n      dup1\n      0x09\n      dup2\n      mstore\n      0x20\n      add\n      0x6920617070726f76650000000000000000000000000000000000000000000000\n      dup2\n      mstore\n      pop\n        /* \"contracts/BusinessConsensus.sol\":3715:3744  keccak256(bytes(\"i approve\")) */\n      dup1\n      mload\n      swap1\n      0x20\n      add\n      keccak256\n        /* \"contracts/BusinessConsensus.sol\":3701:3709  response */\n      dup2\n        /* \"contracts/BusinessConsensus.sol\":3685:3711  keccak256(bytes(response)) */\n      dup1\n      mload\n      swap1\n      0x20\n      add\n      keccak256\n        /* \"contracts/BusinessConsensus.sol\":3685:3744  keccak256(bytes(response)) == keccak256(bytes(\"i approve\")) */\n      eq\n        /* \"contracts/BusinessConsensus.sol\":3682:4447  if(keccak256(bytes(response)) == keccak256(bytes(\"i approve\"))){\r... */\n      iszero\n      tag_117\n      jumpi\n        /* \"contracts/BusinessConsensus.sol\":3791:3795  true */\n      0x01\n        /* \"contracts/BusinessConsensus.sol\":3760:3770  voters_map */\n      0x09\n        /* \"contracts/BusinessConsensus.sol\":3760:3782  voters_map[msg.sender] */\n      0x00\n        /* \"contracts/BusinessConsensus.sol\":3771:3781  msg.sender */\n      caller\n        /* \"contracts/BusinessConsensus.sol\":3760:3782  voters_map[msg.sender] */\n      0xffffffffffffffffffffffffffffffffffffffff\n      and\n      0xffffffffffffffffffffffffffffffffffffffff\n      and\n      dup2\n      mstore\n      0x20\n      add\n      swap1\n      dup2\n      mstore\n      0x20\n      add\n      0x00\n      keccak256\n        /* \"contracts/BusinessConsensus.sol\":3760:3788  voters_map[msg.sender].voted */\n      0x00\n      add\n      0x00\n        /* \"contracts/BusinessConsensus.sol\":3760:3795  voters_map[msg.sender].voted = true */\n      0x0100\n      exp\n      dup2\n      sload\n      dup2\n      0xff\n      mul\n      not\n      and\n      swap1\n      dup4\n      iszero\n      iszero\n      mul\n      or\n      swap1\n      sstore\n      pop\n        /* \"contracts/BusinessConsensus.sol\":3840:3844  true */\n      0x01\n        /* \"contracts/BusinessConsensus.sol\":3810:3820  voters_map */\n      0x09\n        /* \"contracts/BusinessConsensus.sol\":3810:3832  voters_map[msg.sender] */\n      0x00\n        /* \"contracts/BusinessConsensus.sol\":3821:3831  msg.sender */\n      caller\n        /* \"contracts/BusinessConsensus.sol\":3810:3832  voters_map[msg.sender] */\n      0xffffffffffffffffffffffffffffffffffffffff\n      and\n      0xffffffffffffffffffffffffffffffffffffffff\n      and\n      dup2\n      mstore\n      0x20\n      add\n      swap1\n      dup2\n      mstore\n      0x20\n      add\n      0x00\n      keccak256\n        /* \"contracts/BusinessConsensus.sol\":3810:3837  voters_map[msg.sender].vote */\n      0x00\n      add\n      0x01\n        /* \"contracts/BusinessConsensus.sol\":3810:3844  voters_map[msg.sender].vote = true */\n      0x0100\n      exp\n      dup2\n      sload\n      dup2\n      0xff\n      mul\n      not\n      and\n      swap1\n      dup4\n      iszero\n      iszero\n      mul\n      or\n      swap1\n      sstore\n      pop\n        /* \"contracts/BusinessConsensus.sol\":3875:3876  1 */\n      0x01\n        /* \"contracts/BusinessConsensus.sol\":3859:3871  numApprovals */\n      0x05\n      0x00\n        /* \"contracts/BusinessConsensus.sol\":3859:3876  numApprovals += 1 */\n      dup3\n      dup3\n      sload\n      tag_118\n      swap2\n      swap1\n      tag_119\n      jump\t// in\n    tag_118:\n      swap3\n      pop\n      pop\n      dup2\n      swap1\n      sstore\n      pop\n        /* \"contracts/BusinessConsensus.sol\":3913:3914  1 */\n      0x01\n        /* \"contracts/BusinessConsensus.sol\":3891:3899  proposal */\n      0x0a\n        /* \"contracts/BusinessConsensus.sol\":3891:3909  proposal.voteCount */\n      0x00\n      add\n      0x00\n        /* \"contracts/BusinessConsensus.sol\":3891:3914  proposal.voteCount += 1 */\n      dup3\n      dup3\n      sload\n      tag_120\n      swap2\n      swap1\n      tag_119\n      jump\t// in\n    tag_120:\n      swap3\n      pop\n      pop\n      dup2\n      swap1\n      sstore\n      pop\n        /* \"contracts/BusinessConsensus.sol\":3929:3935  voters */\n      0x08\n        /* \"contracts/BusinessConsensus.sol\":3941:3951  voters_map */\n      0x09\n        /* \"contracts/BusinessConsensus.sol\":3941:3963  voters_map[msg.sender] */\n      0x00\n        /* \"contracts/BusinessConsensus.sol\":3952:3962  msg.sender */\n      caller\n        /* \"contracts/BusinessConsensus.sol\":3941:3963  voters_map[msg.sender] */\n      0xffffffffffffffffffffffffffffffffffffffff\n      and\n      0xffffffffffffffffffffffffffffffffffffffff\n      and\n      dup2\n      mstore\n      0x20\n      add\n      swap1\n      dup2\n      mstore\n      0x20\n      add\n      0x00\n      keccak256\n        /* \"contracts/BusinessConsensus.sol\":3929:3964  voters.push(voters_map[msg.sender]) */\n      swap1\n      dup1\n      0x01\n      dup2\n      sload\n      add\n      dup1\n      dup3\n      sstore\n      dup1\n      swap2\n      pop\n      pop\n      0x01\n      swap1\n      sub\n      swap1\n      0x00\n      mstore\n      keccak256(0x00, 0x20)\n      add\n      0x00\n      swap1\n      swap2\n      swap1\n      swap2\n      swap1\n      swap2\n      pop\n      0x00\n      dup3\n      add\n      0x00\n      swap1\n      sload\n      swap1\n      0x0100\n      exp\n      swap1\n      div\n      0xff\n      and\n      dup2\n      0x00\n      add\n      exp(0x0100, 0x00)\n      dup2\n      sload\n      dup2\n      0xff\n      mul\n      not\n      and\n      swap1\n      dup4\n      iszero\n      iszero\n      mul\n      or\n      swap1\n      sstore\n      pop\n      0x00\n      dup3\n      add\n      0x01\n      swap1\n      sload\n      swap1\n      0x0100\n      exp\n      swap1\n      div\n      0xff\n      and\n      dup2\n      0x00\n      add\n      exp(0x0100, 0x01)\n      dup2\n      sload\n      dup2\n      0xff\n      mul\n      not\n      and\n      swap1\n      dup4\n      iszero\n      iszero\n      mul\n      or\n      swap1\n      sstore\n      pop\n      0x00\n      dup3\n      add\n      0x02\n      swap1\n      sload\n      swap1\n      0x0100\n      exp\n      swap1\n      div\n      0xffffffffffffffffffffffffffffffffffffffff\n      and\n      dup2\n      0x00\n      add\n      exp(0x0100, 0x02)\n      dup2\n      sload\n      dup2\n      0xffffffffffffffffffffffffffffffffffffffff\n      mul\n      not\n      and\n      swap1\n      dup4\n      0xffffffffffffffffffffffffffffffffffffffff\n      and\n      mul\n      or\n      swap1\n      sstore\n      pop\n      pop\n      pop\n        /* \"contracts/BusinessConsensus.sol\":3682:4447  if(keccak256(bytes(response)) == keccak256(bytes(\"i approve\"))){\r... */\n      jump(tag_122)\n    tag_117:\n        /* \"contracts/BusinessConsensus.sol\":4036:4057  bytes(\"i disapprove\") */\n      mload(0x40)\n      dup1\n      0x40\n      add\n      0x40\n      mstore\n      dup1\n      0x0c\n      dup2\n      mstore\n      0x20\n      add\n      0x6920646973617070726f76650000000000000000000000000000000000000000\n      dup2\n      mstore\n      pop\n        /* \"contracts/BusinessConsensus.sol\":4026:4058  keccak256(bytes(\"i disapprove\")) */\n      dup1\n      mload\n      swap1\n      0x20\n      add\n      keccak256\n        /* \"contracts/BusinessConsensus.sol\":4012:4020  response */\n      dup2\n        /* \"contracts/BusinessConsensus.sol\":3996:4022  keccak256(bytes(response)) */\n      dup1\n      mload\n      swap1\n      0x20\n      add\n      keccak256\n        /* \"contracts/BusinessConsensus.sol\":3996:4058  keccak256(bytes(response)) == keccak256(bytes(\"i disapprove\")) */\n      eq\n        /* \"contracts/BusinessConsensus.sol\":3993:4447  if(keccak256(bytes(response)) == keccak256(bytes(\"i disapprove\"))){\r... */\n      iszero\n      tag_123\n      jumpi\n        /* \"contracts/BusinessConsensus.sol\":4105:4109  true */\n      0x01\n        /* \"contracts/BusinessConsensus.sol\":4074:4084  voters_map */\n      0x09\n        /* \"contracts/BusinessConsensus.sol\":4074:4096  voters_map[msg.sender] */\n      0x00\n        /* \"contracts/BusinessConsensus.sol\":4085:4095  msg.sender */\n      caller\n        /* \"contracts/BusinessConsensus.sol\":4074:4096  voters_map[msg.sender] */\n      0xffffffffffffffffffffffffffffffffffffffff\n      and\n      0xffffffffffffffffffffffffffffffffffffffff\n      and\n      dup2\n      mstore\n      0x20\n      add\n      swap1\n      dup2\n      mstore\n      0x20\n      add\n      0x00\n      keccak256\n        /* \"contracts/BusinessConsensus.sol\":4074:4102  voters_map[msg.sender].voted */\n      0x00\n      add\n      0x00\n        /* \"contracts/BusinessConsensus.sol\":4074:4109  voters_map[msg.sender].voted = true */\n      0x0100\n      exp\n      dup2\n      sload\n      dup2\n      0xff\n      mul\n      not\n      and\n      swap1\n      dup4\n      iszero\n      iszero\n      mul\n      or\n      swap1\n      sstore\n      pop\n        /* \"contracts/BusinessConsensus.sol\":4146:4147  1 */\n      0x01\n        /* \"contracts/BusinessConsensus.sol\":4124:4132  proposal */\n      0x0a\n        /* \"contracts/BusinessConsensus.sol\":4124:4142  proposal.voteCount */\n      0x00\n      add\n      0x00\n        /* \"contracts/BusinessConsensus.sol\":4124:4147  proposal.voteCount += 1 */\n      dup3\n      dup3\n      sload\n      tag_124\n      swap2\n      swap1\n      tag_119\n      jump\t// in\n    tag_124:\n      swap3\n      pop\n      pop\n      dup2\n      swap1\n      sstore\n      pop\n        /* \"contracts/BusinessConsensus.sol\":4162:4168  voters */\n      0x08\n        /* \"contracts/BusinessConsensus.sol\":4174:4184  voters_map */\n      0x09\n        /* \"contracts/BusinessConsensus.sol\":4174:4196  voters_map[msg.sender] */\n      0x00\n        /* \"contracts/BusinessConsensus.sol\":4185:4195  msg.sender */\n      caller\n        /* \"contracts/BusinessConsensus.sol\":4174:4196  voters_map[msg.sender] */\n      0xffffffffffffffffffffffffffffffffffffffff\n      and\n      0xffffffffffffffffffffffffffffffffffffffff\n      and\n      dup2\n      mstore\n      0x20\n      add\n      swap1\n      dup2\n      mstore\n      0x20\n      add\n      0x00\n      keccak256\n        /* \"contracts/BusinessConsensus.sol\":4162:4197  voters.push(voters_map[msg.sender]) */\n      swap1\n      dup1\n      0x01\n      dup2\n      sload\n      add\n      dup1\n      dup3\n      sstore\n      dup1\n      swap2\n      pop\n      pop\n      0x01\n      swap1\n      sub\n      swap1\n      0x00\n      mstore\n      keccak256(0x00, 0x20)\n      add\n      0x00\n      swap1\n      swap2\n      swap1\n      swap2\n      swap1\n      swap2\n      pop\n      0x00\n      dup3\n      add\n      0x00\n      swap1\n      sload\n      swap1\n      0x0100\n      exp\n      swap1\n      div\n      0xff\n      and\n      dup2\n      0x00\n      add\n      exp(0x0100, 0x00)\n      dup2\n      sload\n      dup2\n      0xff\n      mul\n      not\n      and\n      swap1\n      dup4\n      iszero\n      iszero\n      mul\n      or\n      swap1\n      sstore\n      pop\n      0x00\n      dup3\n      add\n      0x01\n      swap1\n      sload\n      swap1\n      0x0100\n      exp\n      swap1\n      div\n      0xff\n      and\n      dup2\n      0x00\n      add\n      exp(0x0100, 0x01)\n      dup2\n      sload\n      dup2\n      0xff\n      mul\n      not\n      and\n      swap1\n      dup4\n      iszero\n      iszero\n      mul\n      or\n      swap1\n      sstore\n      pop\n      0x00\n      dup3\n      add\n      0x02\n      swap1\n      sload\n      swap1\n      0x0100\n      exp\n      swap1\n      div\n      0xffffffffffffffffffffffffffffffffffffffff\n      and\n      dup2\n      0x00\n      add\n      exp(0x0100, 0x02)\n      dup2\n      sload\n      dup2\n      0xffffffffffffffffffffffffffffffffffffffff\n      mul\n      not\n      and\n      swap1\n      dup4\n      0xffffffffffffffffffffffffffffffffffffffff\n      and\n      mul\n      or\n      swap1\n      sstore\n      pop\n      pop\n      pop\n        /* \"contracts/BusinessConsensus.sol\":3993:4447  if(keccak256(bytes(response)) == keccak256(bytes(\"i disapprove\"))){\r... */\n      jump(tag_126)\n    tag_123:\n        /* \"contracts/BusinessConsensus.sol\":4343:4347  true */\n      0x01\n        /* \"contracts/BusinessConsensus.sol\":4312:4322  voters_map */\n      0x09\n        /* \"contracts/BusinessConsensus.sol\":4312:4334  voters_map[msg.sender] */\n      0x00\n        /* \"contracts/BusinessConsensus.sol\":4323:4333  msg.sender */\n      caller\n        /* \"contracts/BusinessConsensus.sol\":4312:4334  voters_map[msg.sender] */\n      0xffffffffffffffffffffffffffffffffffffffff\n      and\n      0xffffffffffffffffffffffffffffffffffffffff\n      and\n      dup2\n      mstore\n      0x20\n      add\n      swap1\n      dup2\n      mstore\n      0x20\n      add\n      0x00\n      keccak256\n        /* \"contracts/BusinessConsensus.sol\":4312:4340  voters_map[msg.sender].voted */\n      0x00\n      add\n      0x00\n        /* \"contracts/BusinessConsensus.sol\":4312:4347  voters_map[msg.sender].voted = true */\n      0x0100\n      exp\n      dup2\n      sload\n      dup2\n      0xff\n      mul\n      not\n      and\n      swap1\n      dup4\n      iszero\n      iszero\n      mul\n      or\n      swap1\n      sstore\n      pop\n        /* \"contracts/BusinessConsensus.sol\":4384:4385  1 */\n      0x01\n        /* \"contracts/BusinessConsensus.sol\":4362:4370  proposal */\n      0x0a\n        /* \"contracts/BusinessConsensus.sol\":4362:4380  proposal.voteCount */\n      0x00\n      add\n      0x00\n        /* \"contracts/BusinessConsensus.sol\":4362:4385  proposal.voteCount += 1 */\n      dup3\n      dup3\n      sload\n      tag_127\n      swap2\n      swap1\n      tag_119\n      jump\t// in\n    tag_127:\n      swap3\n      pop\n      pop\n      dup2\n      swap1\n      sstore\n      pop\n        /* \"contracts/BusinessConsensus.sol\":4400:4406  voters */\n      0x08\n        /* \"contracts/BusinessConsensus.sol\":4412:4422  voters_map */\n      0x09\n        /* \"contracts/BusinessConsensus.sol\":4412:4434  voters_map[msg.sender] */\n      0x00\n        /* \"contracts/BusinessConsensus.sol\":4423:4433  msg.sender */\n      caller\n        /* \"contracts/BusinessConsensus.sol\":4412:4434  voters_map[msg.sender] */\n      0xffffffffffffffffffffffffffffffffffffffff\n      and\n      0xffffffffffffffffffffffffffffffffffffffff\n      and\n      dup2\n      mstore\n      0x20\n      add\n      swap1\n      dup2\n      mstore\n      0x20\n      add\n      0x00\n      keccak256\n        /* \"contracts/BusinessConsensus.sol\":4400:4435  voters.push(voters_map[msg.sender]) */\n      swap1\n      dup1\n      0x01\n      dup2\n      sload\n      add\n      dup1\n      dup3\n      sstore\n      dup1\n      swap2\n      pop\n      pop\n      0x01\n      swap1\n      sub\n      swap1\n      0x00\n      mstore\n      keccak256(0x00, 0x20)\n      add\n      0x00\n      swap1\n      swap2\n      swap1\n      swap2\n      swap1\n      swap2\n      pop\n      0x00\n      dup3\n      add\n      0x00\n      swap1\n      sload\n      swap1\n      0x0100\n      exp\n      swap1\n      div\n      0xff\n      and\n      dup2\n      0x00\n      add\n      exp(0x0100, 0x00)\n      dup2\n      sload\n      dup2\n      0xff\n      mul\n      not\n      and\n      swap1\n      dup4\n      iszero\n      iszero\n      mul\n      or\n      swap1\n      sstore\n      pop\n      0x00\n      dup3\n      add\n      0x01\n      swap1\n      sload\n      swap1\n      0x0100\n      exp\n      swap1\n      div\n      0xff\n      and\n      dup2\n      0x00\n      add\n      exp(0x0100, 0x01)\n      dup2\n      sload\n      dup2\n      0xff\n      mul\n      not\n      and\n      swap1\n      dup4\n      iszero\n      iszero\n      mul\n      or\n      swap1\n      sstore\n      pop\n      0x00\n      dup3\n      add\n      0x02\n      swap1\n      sload\n      swap1\n      0x0100\n      exp\n      swap1\n      div\n      0xffffffffffffffffffffffffffffffffffffffff\n      and\n      dup2\n      0x00\n      add\n      exp(0x0100, 0x02)\n      dup2\n      sload\n      dup2\n      0xffffffffffffffffffffffffffffffffffffffff\n      mul\n      not\n      and\n      swap1\n      dup4\n      0xffffffffffffffffffffffffffffffffffffffff\n      and\n      mul\n      or\n      swap1\n      sstore\n      pop\n      pop\n      pop\n        /* \"contracts/BusinessConsensus.sol\":3993:4447  if(keccak256(bytes(response)) == keccak256(bytes(\"i disapprove\"))){\r... */\n    tag_126:\n        /* \"contracts/BusinessConsensus.sol\":3682:4447  if(keccak256(bytes(response)) == keccak256(bytes(\"i approve\"))){\r... */\n    tag_122:\n        /* \"contracts/BusinessConsensus.sol\":3367:4464  function Vote(string memory response) external {\r... */\n      pop\n      jump\t// out\n        /* \"contracts/BusinessConsensus.sol\":2395:2609  function getParameters2(address test_address) external view returns (bool, bool, address){\r... */\n    tag_42:\n        /* \"contracts/BusinessConsensus.sol\":2464:2468  bool */\n      0x00\n        /* \"contracts/BusinessConsensus.sol\":2470:2474  bool */\n      dup1\n        /* \"contracts/BusinessConsensus.sol\":2476:2483  address */\n      0x00\n        /* \"contracts/BusinessConsensus.sol\":2503:2513  voters_map */\n      0x09\n        /* \"contracts/BusinessConsensus.sol\":2503:2527  voters_map[test_address] */\n      0x00\n        /* \"contracts/BusinessConsensus.sol\":2514:2526  test_address */\n      dup6\n        /* \"contracts/BusinessConsensus.sol\":2503:2527  voters_map[test_address] */\n      0xffffffffffffffffffffffffffffffffffffffff\n      and\n      0xffffffffffffffffffffffffffffffffffffffff\n      and\n      dup2\n      mstore\n      0x20\n      add\n      swap1\n      dup2\n      mstore\n      0x20\n      add\n      0x00\n      keccak256\n        /* \"contracts/BusinessConsensus.sol\":2503:2532  voters_map[test_address].vote */\n      0x00\n      add\n      0x01\n      swap1\n      sload\n      swap1\n      0x0100\n      exp\n      swap1\n      div\n      0xff\n      and\n        /* \"contracts/BusinessConsensus.sol\":2534:2544  voters_map */\n      0x09\n        /* \"contracts/BusinessConsensus.sol\":2534:2558  voters_map[test_address] */\n      0x00\n        /* \"contracts/BusinessConsensus.sol\":2545:2557  test_address */\n      dup7\n        /* \"contracts/BusinessConsensus.sol\":2534:2558  voters_map[test_address] */\n      0xffffffffffffffffffffffffffffffffffffffff\n      and\n      0xffffffffffffffffffffffffffffffffffffffff\n      and\n      dup2\n      mstore\n      0x20\n      add\n      swap1\n      dup2\n      mstore\n      0x20\n      add\n      0x00\n      keccak256\n        /* \"contracts/BusinessConsensus.sol\":2534:2564  voters_map[test_address].voted */\n      0x00\n      add\n      0x00\n      swap1\n      sload\n      swap1\n      0x0100\n      exp\n      swap1\n      div\n      0xff\n      and\n        /* \"contracts/BusinessConsensus.sol\":2566:2576  voters_map */\n      0x09\n        /* \"contracts/BusinessConsensus.sol\":2566:2590  voters_map[test_address] */\n      0x00\n        /* \"contracts/BusinessConsensus.sol\":2577:2589  test_address */\n      dup8\n        /* \"contracts/BusinessConsensus.sol\":2566:2590  voters_map[test_address] */\n      0xffffffffffffffffffffffffffffffffffffffff\n      and\n      0xffffffffffffffffffffffffffffffffffffffff\n      and\n      dup2\n      mstore\n      0x20\n      add\n      swap1\n      dup2\n      mstore\n      0x20\n      add\n      0x00\n      keccak256\n        /* \"contracts/BusinessConsensus.sol\":2566:2600  voters_map[test_address].recipient */\n      0x00\n      add\n      0x02\n      swap1\n      sload\n      swap1\n      0x0100\n      exp\n      swap1\n      div\n      0xffffffffffffffffffffffffffffffffffffffff\n      and\n        /* \"contracts/BusinessConsensus.sol\":2495:2601  return (voters_map[test_address].vote, voters_map[test_address].voted, voters_map[test_address].recipient) */\n      swap3\n      pop\n      swap3\n      pop\n      swap3\n      pop\n        /* \"contracts/BusinessConsensus.sol\":2395:2609  function getParameters2(address test_address) external view returns (bool, bool, address){\r... */\n      swap2\n      swap4\n      swap1\n      swap3\n      pop\n      jump\t// out\n        /* \"contracts/BusinessConsensus.sol\":808:832  address public initiator */\n    tag_46:\n      0x01\n      0x00\n      swap1\n      sload\n      swap1\n      0x0100\n      exp\n      swap1\n      div\n      0xffffffffffffffffffffffffffffffffffffffff\n      and\n      dup2\n      jump\t// out\n        /* \"contracts/BusinessConsensus.sol\":958:985  uint256 public numApprovals */\n    tag_49:\n      sload(0x05)\n      dup2\n      jump\t// out\n        /* \"contracts/BusinessConsensus.sol\":1218:1242  Proposal public proposal */\n    tag_53:\n      0x0a\n      dup1\n      0x00\n      add\n      sload\n      swap1\n      dup1\n      0x01\n      add\n      dup1\n      sload\n      tag_130\n      swap1\n      tag_102\n      jump\t// in\n    tag_130:\n      dup1\n      0x1f\n      add\n      0x20\n      dup1\n      swap2\n      div\n      mul\n      0x20\n      add\n      mload(0x40)\n      swap1\n      dup2\n      add\n      0x40\n      mstore\n      dup1\n      swap3\n      swap2\n      swap1\n      dup2\n      dup2\n      mstore\n      0x20\n      add\n      dup3\n      dup1\n      sload\n      tag_131\n      swap1\n      tag_102\n      jump\t// in\n    tag_131:\n      dup1\n      iszero\n      tag_132\n      jumpi\n      dup1\n      0x1f\n      lt\n      tag_133\n      jumpi\n      0x0100\n      dup1\n      dup4\n      sload\n      div\n      mul\n      dup4\n      mstore\n      swap2\n      0x20\n      add\n      swap2\n      jump(tag_132)\n    tag_133:\n      dup3\n      add\n      swap2\n      swap1\n      0x00\n      mstore\n      keccak256(0x00, 0x20)\n      swap1\n    tag_134:\n      dup2\n      sload\n      dup2\n      mstore\n      swap1\n      0x01\n      add\n      swap1\n      0x20\n      add\n      dup1\n      dup4\n      gt\n      tag_134\n      jumpi\n      dup3\n      swap1\n      sub\n      0x1f\n      and\n      dup3\n      add\n      swap2\n    tag_132:\n      pop\n      pop\n      pop\n      pop\n      pop\n      swap1\n      dup1\n      0x02\n      add\n      dup1\n      sload\n      tag_135\n      swap1\n      tag_102\n      jump\t// in\n    tag_135:\n      dup1\n      0x1f\n      add\n      0x20\n      dup1\n      swap2\n      div\n      mul\n      0x20\n      add\n      mload(0x40)\n      swap1\n      dup2\n      add\n      0x40\n      mstore\n      dup1\n      swap3\n      swap2\n      swap1\n      dup2\n      dup2\n      mstore\n      0x20\n      add\n      dup3\n      dup1\n      sload\n      tag_136\n      swap1\n      tag_102\n      jump\t// in\n    tag_136:\n      dup1\n      iszero\n      tag_137\n      jumpi\n      dup1\n      0x1f\n      lt\n      tag_138\n      jumpi\n      0x0100\n      dup1\n      dup4\n      sload\n      div\n      mul\n      dup4\n      mstore\n      swap2\n      0x20\n      add\n      swap2\n      jump(tag_137)\n    tag_138:\n      dup3\n      add\n      swap2\n      swap1\n      0x00\n      mstore\n      keccak256(0x00, 0x20)\n      swap1\n    tag_139:\n      dup2\n      sload\n      dup2\n      mstore\n      swap1\n      0x01\n      add\n      swap1\n      0x20\n      add\n      dup1\n      dup4\n      gt\n      tag_139\n      jumpi\n      dup3\n      swap1\n      sub\n      0x1f\n      and\n      dup3\n      add\n      swap2\n    tag_137:\n      pop\n      pop\n      pop\n      pop\n      pop\n      swap1\n      dup1\n      0x03\n      add\n      dup1\n      sload\n      tag_140\n      swap1\n      tag_102\n      jump\t// in\n    tag_140:\n      dup1\n      0x1f\n      add\n      0x20\n      dup1\n      swap2\n      div\n      mul\n      0x20\n      add\n      mload(0x40)\n      swap1\n      dup2\n      add\n      0x40\n      mstore\n      dup1\n      swap3\n      swap2\n      swap1\n      dup2\n      dup2\n      mstore\n      0x20\n      add\n      dup3\n      dup1\n      sload\n      tag_141\n      swap1\n      tag_102\n      jump\t// in\n    tag_141:\n      dup1\n      iszero\n      tag_142\n      jumpi\n      dup1\n      0x1f\n      lt\n      tag_143\n      jumpi\n      0x0100\n      dup1\n      dup4\n      sload\n      div\n      mul\n      dup4\n      mstore\n      swap2\n      0x20\n      add\n      swap2\n      jump(tag_142)\n    tag_143:\n      dup3\n      add\n      swap2\n      swap1\n      0x00\n      mstore\n      keccak256(0x00, 0x20)\n      swap1\n    tag_144:\n      dup2\n      sload\n      dup2\n      mstore\n      swap1\n      0x01\n      add\n      swap1\n      0x20\n      add\n      dup1\n      dup4\n      gt\n      tag_144\n      jumpi\n      dup3\n      swap1\n      sub\n      0x1f\n      and\n      dup3\n      add\n      swap2\n    tag_142:\n      pop\n      pop\n      pop\n      pop\n      pop\n      swap1\n      dup1\n      0x04\n      add\n      sload\n      swap1\n      dup1\n      0x05\n      add\n      sload\n      swap1\n      pop\n      dup7\n      jump\t// out\n        /* \"contracts/BusinessConsensus.sol\":2140:2227  function getIsCompiled() public view returns (bool){\r... */\n    tag_57:\n        /* \"contracts/BusinessConsensus.sol\":2186:2190  bool */\n      0x00\n        /* \"contracts/BusinessConsensus.sol\":2209:2219  isCompiled */\n      0x06\n      0x00\n      swap1\n      sload\n      swap1\n      0x0100\n      exp\n      swap1\n      div\n      0xff\n      and\n        /* \"contracts/BusinessConsensus.sol\":2202:2219  return isCompiled */\n      swap1\n      pop\n        /* \"contracts/BusinessConsensus.sol\":2140:2227  function getIsCompiled() public view returns (bool){\r... */\n      swap1\n      jump\t// out\n        /* \"contracts/BusinessConsensus.sol\":5263:5505  function retrieve_bundle() external view returns (bytes32, Proposal memory, Voter[] memory){\r... */\n    tag_61:\n        /* \"contracts/BusinessConsensus.sol\":5313:5320  bytes32 */\n      0x00\n        /* \"contracts/BusinessConsensus.sol\":5322:5337  Proposal memory */\n      tag_146\n      tag_147\n      jump\t// in\n    tag_146:\n        /* \"contracts/BusinessConsensus.sol\":5339:5353  Voter[] memory */\n      0x60\n        /* \"contracts/BusinessConsensus.sol\":5392:5402  expiryDate */\n      sload(0x03)\n        /* \"contracts/BusinessConsensus.sol\":5373:5388  block.timestamp */\n      timestamp\n        /* \"contracts/BusinessConsensus.sol\":5373:5402  block.timestamp >= expiryDate */\n      lt\n      iszero\n        /* \"contracts/BusinessConsensus.sol\":5365:5439  require(block.timestamp >= expiryDate, \"Verdict has not been reached yet\") */\n      tag_149\n      jumpi\n      mload(0x40)\n      0x08c379a000000000000000000000000000000000000000000000000000000000\n      dup2\n      mstore\n      0x04\n      add\n      tag_150\n      swap1\n      tag_151\n      jump\t// in\n    tag_150:\n      mload(0x40)\n      dup1\n      swap2\n      sub\n      swap1\n      revert\n    tag_149:\n        /* \"contracts/BusinessConsensus.sol\":5458:5470  finalVerdict */\n      sload(0x07)\n        /* \"contracts/BusinessConsensus.sol\":5471:5479  proposal */\n      0x0a\n        /* \"contracts/BusinessConsensus.sol\":5480:5486  voters */\n      0x08\n        /* \"contracts/BusinessConsensus.sol\":5450:5487  return (finalVerdict,proposal,voters) */\n      dup2\n      mload(0x40)\n      dup1\n      0xc0\n      add\n      0x40\n      mstore\n      swap1\n      dup2\n      0x00\n      dup3\n      add\n      sload\n      dup2\n      mstore\n      0x20\n      add\n      0x01\n      dup3\n      add\n      dup1\n      sload\n      tag_152\n      swap1\n      tag_102\n      jump\t// in\n    tag_152:\n      dup1\n      0x1f\n      add\n      0x20\n      dup1\n      swap2\n      div\n      mul\n      0x20\n      add\n      mload(0x40)\n      swap1\n      dup2\n      add\n      0x40\n      mstore\n      dup1\n      swap3\n      swap2\n      swap1\n      dup2\n      dup2\n      mstore\n      0x20\n      add\n      dup3\n      dup1\n      sload\n      tag_153\n      swap1\n      tag_102\n      jump\t// in\n    tag_153:\n      dup1\n      iszero\n      tag_154\n      jumpi\n      dup1\n      0x1f\n      lt\n      tag_155\n      jumpi\n      0x0100\n      dup1\n      dup4\n      sload\n      div\n      mul\n      dup4\n      mstore\n      swap2\n      0x20\n      add\n      swap2\n      jump(tag_154)\n    tag_155:\n      dup3\n      add\n      swap2\n      swap1\n      0x00\n      mstore\n      keccak256(0x00, 0x20)\n      swap1\n    tag_156:\n      dup2\n      sload\n      dup2\n      mstore\n      swap1\n      0x01\n      add\n      swap1\n      0x20\n      add\n      dup1\n      dup4\n      gt\n      tag_156\n      jumpi\n      dup3\n      swap1\n      sub\n      0x1f\n      and\n      dup3\n      add\n      swap2\n    tag_154:\n      pop\n      pop\n      pop\n      pop\n      pop\n      dup2\n      mstore\n      0x20\n      add\n      0x02\n      dup3\n      add\n      dup1\n      sload\n      tag_157\n      swap1\n      tag_102\n      jump\t// in\n    tag_157:\n      dup1\n      0x1f\n      add\n      0x20\n      dup1\n      swap2\n      div\n      mul\n      0x20\n      add\n      mload(0x40)\n      swap1\n      dup2\n      add\n      0x40\n      mstore\n      dup1\n      swap3\n      swap2\n      swap1\n      dup2\n      dup2\n      mstore\n      0x20\n      add\n      dup3\n      dup1\n      sload\n      tag_158\n      swap1\n      tag_102\n      jump\t// in\n    tag_158:\n      dup1\n      iszero\n      tag_159\n      jumpi\n      dup1\n      0x1f\n      lt\n      tag_160\n      jumpi\n      0x0100\n      dup1\n      dup4\n      sload\n      div\n      mul\n      dup4\n      mstore\n      swap2\n      0x20\n      add\n      swap2\n      jump(tag_159)\n    tag_160:\n      dup3\n      add\n      swap2\n      swap1\n      0x00\n      mstore\n      keccak256(0x00, 0x20)\n      swap1\n    tag_161:\n      dup2\n      sload\n      dup2\n      mstore\n      swap1\n      0x01\n      add\n      swap1\n      0x20\n      add\n      dup1\n      dup4\n      gt\n      tag_161\n      jumpi\n      dup3\n      swap1\n      sub\n      0x1f\n      and\n      dup3\n      add\n      swap2\n    tag_159:\n      pop\n      pop\n      pop\n      pop\n      pop\n      dup2\n      mstore\n      0x20\n      add\n      0x03\n      dup3\n      add\n      dup1\n      sload\n      tag_162\n      swap1\n      tag_102\n      jump\t// in\n    tag_162:\n      dup1\n      0x1f\n      add\n      0x20\n      dup1\n      swap2\n      div\n      mul\n      0x20\n      add\n      mload(0x40)\n      swap1\n      dup2\n      add\n      0x40\n      mstore\n      dup1\n      swap3\n      swap2\n      swap1\n      dup2\n      dup2\n      mstore\n      0x20\n      add\n      dup3\n      dup1\n      sload\n      tag_163\n      swap1\n      tag_102\n      jump\t// in\n    tag_163:\n      dup1\n      iszero\n      tag_164\n      jumpi\n      dup1\n      0x1f\n      lt\n      tag_165\n      jumpi\n      0x0100\n      dup1\n      dup4\n      sload\n      div\n      mul\n      dup4\n      mstore\n      swap2\n      0x20\n      add\n      swap2\n      jump(tag_164)\n    tag_165:\n      dup3\n      add\n      swap2\n      swap1\n      0x00\n      mstore\n      keccak256(0x00, 0x20)\n      swap1\n    tag_166:\n      dup2\n      sload\n      dup2\n      mstore\n      swap1\n      0x01\n      add\n      swap1\n      0x20\n      add\n      dup1\n      dup4\n      gt\n      tag_166\n      jumpi\n      dup3\n      swap1\n      sub\n      0x1f\n      and\n      dup3\n      add\n      swap2\n    tag_164:\n      pop\n      pop\n      pop\n      pop\n      pop\n      dup2\n      mstore\n      0x20\n      add\n      0x04\n      dup3\n      add\n      sload\n      dup2\n      mstore\n      0x20\n      add\n      0x05\n      dup3\n      add\n      sload\n      dup2\n      mstore\n      pop\n      pop\n      swap2\n      pop\n      dup1\n      dup1\n      sload\n      dup1\n      0x20\n      mul\n      0x20\n      add\n      mload(0x40)\n      swap1\n      dup2\n      add\n      0x40\n      mstore\n      dup1\n      swap3\n      swap2\n      swap1\n      dup2\n      dup2\n      mstore\n      0x20\n      add\n      0x00\n      swap1\n    tag_167:\n      dup3\n      dup3\n      lt\n      iszero\n      tag_168\n      jumpi\n      dup4\n      dup3\n      swap1\n      0x00\n      mstore\n      keccak256(0x00, 0x20)\n      add\n      mload(0x40)\n      dup1\n      0x60\n      add\n      0x40\n      mstore\n      swap1\n      dup2\n      0x00\n      dup3\n      add\n      0x00\n      swap1\n      sload\n      swap1\n      0x0100\n      exp\n      swap1\n      div\n      0xff\n      and\n      iszero\n      iszero\n      iszero\n      iszero\n      dup2\n      mstore\n      0x20\n      add\n      0x00\n      dup3\n      add\n      0x01\n      swap1\n      sload\n      swap1\n      0x0100\n      exp\n      swap1\n      div\n      0xff\n      and\n      iszero\n      iszero\n      iszero\n      iszero\n      dup2\n      mstore\n      0x20\n      add\n      0x00\n      dup3\n      add\n      0x02\n      swap1\n      sload\n      swap1\n      0x0100\n      exp\n      swap1\n      div\n      0xffffffffffffffffffffffffffffffffffffffff\n      and\n      0xffffffffffffffffffffffffffffffffffffffff\n      and\n      0xffffffffffffffffffffffffffffffffffffffff\n      and\n      dup2\n      mstore\n      pop\n      pop\n      dup2\n      mstore\n      0x20\n      add\n      swap1\n      0x01\n      add\n      swap1\n      jump(tag_167)\n    tag_168:\n      pop\n      pop\n      pop\n      pop\n      swap1\n      pop\n      swap3\n      pop\n      swap3\n      pop\n      swap3\n      pop\n        /* \"contracts/BusinessConsensus.sol\":5263:5505  function retrieve_bundle() external view returns (bytes32, Proposal memory, Voter[] memory){\r... */\n      swap1\n      swap2\n      swap3\n      jump\t// out\n        /* \"contracts/BusinessConsensus.sol\":4528:5255  function Consensus() external {\r... */\n    tag_65:\n        /* \"contracts/BusinessConsensus.sol\":4596:4606  expiryDate */\n      sload(0x03)\n        /* \"contracts/BusinessConsensus.sol\":4577:4592  block.timestamp */\n      timestamp\n        /* \"contracts/BusinessConsensus.sol\":4577:4606  block.timestamp >= expiryDate */\n      lt\n      iszero\n        /* \"contracts/BusinessConsensus.sol\":4569:4643  require(block.timestamp >= expiryDate, \"Verdict has not been reached yet\") */\n      tag_171\n      jumpi\n      mload(0x40)\n      0x08c379a000000000000000000000000000000000000000000000000000000000\n      dup2\n      mstore\n      0x04\n      add\n      tag_172\n      swap1\n      tag_151\n      jump\t// in\n    tag_172:\n      mload(0x40)\n      dup1\n      swap2\n      sub\n      swap1\n      revert\n    tag_171:\n        /* \"contracts/BusinessConsensus.sol\":4676:4681  false */\n      0x00\n        /* \"contracts/BusinessConsensus.sol\":4662:4681  isCompiled == false */\n      iszero\n      iszero\n        /* \"contracts/BusinessConsensus.sol\":4662:4672  isCompiled */\n      0x06\n      0x00\n      swap1\n      sload\n      swap1\n      0x0100\n      exp\n      swap1\n      div\n      0xff\n      and\n        /* \"contracts/BusinessConsensus.sol\":4662:4681  isCompiled == false */\n      iszero\n      iszero\n      eq\n        /* \"contracts/BusinessConsensus.sol\":4654:4723  require(isCompiled == false, \"Consensus has already been calculated\") */\n      tag_173\n      jumpi\n      mload(0x40)\n      0x08c379a000000000000000000000000000000000000000000000000000000000\n      dup2\n      mstore\n      0x04\n      add\n      tag_174\n      swap1\n      tag_175\n      jump\t// in\n    tag_174:\n      mload(0x40)\n      dup1\n      swap2\n      sub\n      swap1\n      revert\n    tag_173:\n        /* \"contracts/BusinessConsensus.sol\":4756:4765  initiator */\n      0x01\n      0x00\n      swap1\n      sload\n      swap1\n      0x0100\n      exp\n      swap1\n      div\n      0xffffffffffffffffffffffffffffffffffffffff\n      and\n        /* \"contracts/BusinessConsensus.sol\":4742:4765  msg.sender == initiator */\n      0xffffffffffffffffffffffffffffffffffffffff\n      and\n        /* \"contracts/BusinessConsensus.sol\":4742:4752  msg.sender */\n      caller\n        /* \"contracts/BusinessConsensus.sol\":4742:4765  msg.sender == initiator */\n      0xffffffffffffffffffffffffffffffffffffffff\n      and\n      eq\n        /* \"contracts/BusinessConsensus.sol\":4742:4817  msg.sender == initiator || voters_map[msg.sender].recipient != address(0x0) */\n      dup1\n      tag_176\n      jumpi\n      pop\n        /* \"contracts/BusinessConsensus.sol\":4813:4816  0x0 */\n      0x00\n        /* \"contracts/BusinessConsensus.sol\":4769:4817  voters_map[msg.sender].recipient != address(0x0) */\n      0xffffffffffffffffffffffffffffffffffffffff\n      and\n        /* \"contracts/BusinessConsensus.sol\":4769:4779  voters_map */\n      0x09\n        /* \"contracts/BusinessConsensus.sol\":4769:4791  voters_map[msg.sender] */\n      0x00\n        /* \"contracts/BusinessConsensus.sol\":4780:4790  msg.sender */\n      caller\n        /* \"contracts/BusinessConsensus.sol\":4769:4791  voters_map[msg.sender] */\n      0xffffffffffffffffffffffffffffffffffffffff\n      and\n      0xffffffffffffffffffffffffffffffffffffffff\n      and\n      dup2\n      mstore\n      0x20\n      add\n      swap1\n      dup2\n      mstore\n      0x20\n      add\n      0x00\n      keccak256\n        /* \"contracts/BusinessConsensus.sol\":4769:4801  voters_map[msg.sender].recipient */\n      0x00\n      add\n      0x02\n      swap1\n      sload\n      swap1\n      0x0100\n      exp\n      swap1\n      div\n      0xffffffffffffffffffffffffffffffffffffffff\n      and\n        /* \"contracts/BusinessConsensus.sol\":4769:4817  voters_map[msg.sender].recipient != address(0x0) */\n      0xffffffffffffffffffffffffffffffffffffffff\n      and\n      eq\n      iszero\n        /* \"contracts/BusinessConsensus.sol\":4742:4817  msg.sender == initiator || voters_map[msg.sender].recipient != address(0x0) */\n    tag_176:\n        /* \"contracts/BusinessConsensus.sol\":4734:4860  require(msg.sender == initiator || voters_map[msg.sender].recipient != address(0x0), \"You aren't authorize to compile Bundle\") */\n      tag_177\n      jumpi\n      mload(0x40)\n      0x08c379a000000000000000000000000000000000000000000000000000000000\n      dup2\n      mstore\n      0x04\n      add\n      tag_178\n      swap1\n      tag_179\n      jump\t// in\n    tag_178:\n      mload(0x40)\n      dup1\n      swap2\n      sub\n      swap1\n      revert\n    tag_177:\n        /* \"contracts/BusinessConsensus.sol\":4871:4900  uint256 AccumulatedPercentage */\n      0x00\n        /* \"contracts/BusinessConsensus.sol\":4930:4933  100 */\n      0x64\n        /* \"contracts/BusinessConsensus.sol\":4917:4921  keys */\n      0x02\n        /* \"contracts/BusinessConsensus.sol\":4917:4928  keys.length */\n      dup1\n      sload\n      swap1\n      pop\n        /* \"contracts/BusinessConsensus.sol\":4904:4916  numApprovals */\n      sload(0x05)\n        /* \"contracts/BusinessConsensus.sol\":4904:4928  numApprovals/keys.length */\n      tag_180\n      swap2\n      swap1\n      tag_181\n      jump\t// in\n    tag_180:\n        /* \"contracts/BusinessConsensus.sol\":4903:4933  (numApprovals/keys.length)*100 */\n      tag_182\n      swap2\n      swap1\n      tag_183\n      jump\t// in\n    tag_182:\n        /* \"contracts/BusinessConsensus.sol\":4871:4933  uint256 AccumulatedPercentage = (numApprovals/keys.length)*100 */\n      swap1\n      pop\n        /* \"contracts/BusinessConsensus.sol\":4972:4991  BusinessRequirement */\n      sload(0x04)\n        /* \"contracts/BusinessConsensus.sol\":4947:4968  AccumulatedPercentage */\n      dup2\n        /* \"contracts/BusinessConsensus.sol\":4947:4991  AccumulatedPercentage >= BusinessRequirement */\n      lt\n        /* \"contracts/BusinessConsensus.sol\":4944:5044  if(AccumulatedPercentage >= BusinessRequirement){\r... */\n      tag_184\n      jumpi\n        /* \"contracts/BusinessConsensus.sol\":5007:5032  finalVerdict = \"Accepted\" */\n      0x4163636570746564000000000000000000000000000000000000000000000000\n        /* \"contracts/BusinessConsensus.sol\":5007:5019  finalVerdict */\n      0x07\n        /* \"contracts/BusinessConsensus.sol\":5007:5032  finalVerdict = \"Accepted\" */\n      dup2\n      swap1\n      sstore\n      pop\n        /* \"contracts/BusinessConsensus.sol\":4944:5044  if(AccumulatedPercentage >= BusinessRequirement){\r... */\n    tag_184:\n        /* \"contracts/BusinessConsensus.sol\":5058:5065  uint8 i */\n      0x00\n        /* \"contracts/BusinessConsensus.sol\":5054:5220  for(uint8 i=0; i< keys.length; i++){\r... */\n    tag_185:\n        /* \"contracts/BusinessConsensus.sol\":5072:5076  keys */\n      0x02\n        /* \"contracts/BusinessConsensus.sol\":5072:5083  keys.length */\n      dup1\n      sload\n      swap1\n      pop\n        /* \"contracts/BusinessConsensus.sol\":5069:5070  i */\n      dup2\n        /* \"contracts/BusinessConsensus.sol\":5069:5083  i< keys.length */\n      0xff\n      and\n      lt\n        /* \"contracts/BusinessConsensus.sol\":5054:5220  for(uint8 i=0; i< keys.length; i++){\r... */\n      iszero\n      tag_186\n      jumpi\n        /* \"contracts/BusinessConsensus.sol\":5136:5141  false */\n      0x00\n        /* \"contracts/BusinessConsensus.sol\":5107:5141  voters_map[keys[i]].voted == false */\n      iszero\n      iszero\n        /* \"contracts/BusinessConsensus.sol\":5107:5117  voters_map */\n      0x09\n        /* \"contracts/BusinessConsensus.sol\":5107:5126  voters_map[keys[i]] */\n      0x00\n        /* \"contracts/BusinessConsensus.sol\":5118:5122  keys */\n      0x02\n        /* \"contracts/BusinessConsensus.sol\":5123:5124  i */\n      dup5\n        /* \"contracts/BusinessConsensus.sol\":5118:5125  keys[i] */\n      0xff\n      and\n      dup2\n      sload\n      dup2\n      lt\n      tag_188\n      jumpi\n      tag_189\n      tag_190\n      jump\t// in\n    tag_189:\n    tag_188:\n      swap1\n      0x00\n      mstore\n      keccak256(0x00, 0x20)\n      add\n      0x00\n      swap1\n      sload\n      swap1\n      0x0100\n      exp\n      swap1\n      div\n      0xffffffffffffffffffffffffffffffffffffffff\n      and\n        /* \"contracts/BusinessConsensus.sol\":5107:5126  voters_map[keys[i]] */\n      0xffffffffffffffffffffffffffffffffffffffff\n      and\n      0xffffffffffffffffffffffffffffffffffffffff\n      and\n      dup2\n      mstore\n      0x20\n      add\n      swap1\n      dup2\n      mstore\n      0x20\n      add\n      0x00\n      keccak256\n        /* \"contracts/BusinessConsensus.sol\":5107:5132  voters_map[keys[i]].voted */\n      0x00\n      add\n      0x00\n      swap1\n      sload\n      swap1\n      0x0100\n      exp\n      swap1\n      div\n      0xff\n      and\n        /* \"contracts/BusinessConsensus.sol\":5107:5141  voters_map[keys[i]].voted == false */\n      iszero\n      iszero\n      eq\n        /* \"contracts/BusinessConsensus.sol\":5104:5209  if(voters_map[keys[i]].voted == false){\r... */\n      iszero\n      tag_192\n      jumpi\n        /* \"contracts/BusinessConsensus.sol\":5161:5167  voters */\n      0x08\n        /* \"contracts/BusinessConsensus.sol\":5173:5183  voters_map */\n      0x09\n        /* \"contracts/BusinessConsensus.sol\":5173:5192  voters_map[keys[i]] */\n      0x00\n        /* \"contracts/BusinessConsensus.sol\":5184:5188  keys */\n      0x02\n        /* \"contracts/BusinessConsensus.sol\":5189:5190  i */\n      dup5\n        /* \"contracts/BusinessConsensus.sol\":5184:5191  keys[i] */\n      0xff\n      and\n      dup2\n      sload\n      dup2\n      lt\n      tag_193\n      jumpi\n      tag_194\n      tag_190\n      jump\t// in\n    tag_194:\n    tag_193:\n      swap1\n      0x00\n      mstore\n      keccak256(0x00, 0x20)\n      add\n      0x00\n      swap1\n      sload\n      swap1\n      0x0100\n      exp\n      swap1\n      div\n      0xffffffffffffffffffffffffffffffffffffffff\n      and\n        /* \"contracts/BusinessConsensus.sol\":5173:5192  voters_map[keys[i]] */\n      0xffffffffffffffffffffffffffffffffffffffff\n      and\n      0xffffffffffffffffffffffffffffffffffffffff\n      and\n      dup2\n      mstore\n      0x20\n      add\n      swap1\n      dup2\n      mstore\n      0x20\n      add\n      0x00\n      keccak256\n        /* \"contracts/BusinessConsensus.sol\":5161:5193  voters.push(voters_map[keys[i]]) */\n      swap1\n      dup1\n      0x01\n      dup2\n      sload\n      add\n      dup1\n      dup3\n      sstore\n      dup1\n      swap2\n      pop\n      pop\n      0x01\n      swap1\n      sub\n      swap1\n      0x00\n      mstore\n      keccak256(0x00, 0x20)\n      add\n      0x00\n      swap1\n      swap2\n      swap1\n      swap2\n      swap1\n      swap2\n      pop\n      0x00\n      dup3\n      add\n      0x00\n      swap1\n      sload\n      swap1\n      0x0100\n      exp\n      swap1\n      div\n      0xff\n      and\n      dup2\n      0x00\n      add\n      exp(0x0100, 0x00)\n      dup2\n      sload\n      dup2\n      0xff\n      mul\n      not\n      and\n      swap1\n      dup4\n      iszero\n      iszero\n      mul\n      or\n      swap1\n      sstore\n      pop\n      0x00\n      dup3\n      add\n      0x01\n      swap1\n      sload\n      swap1\n      0x0100\n      exp\n      swap1\n      div\n      0xff\n      and\n      dup2\n      0x00\n      add\n      exp(0x0100, 0x01)\n      dup2\n      sload\n      dup2\n      0xff\n      mul\n      not\n      and\n      swap1\n      dup4\n      iszero\n      iszero\n      mul\n      or\n      swap1\n      sstore\n      pop\n      0x00\n      dup3\n      add\n      0x02\n      swap1\n      sload\n      swap1\n      0x0100\n      exp\n      swap1\n      div\n      0xffffffffffffffffffffffffffffffffffffffff\n      and\n      dup2\n      0x00\n      add\n      exp(0x0100, 0x02)\n      dup2\n      sload\n      dup2\n      0xffffffffffffffffffffffffffffffffffffffff\n      mul\n      not\n      and\n      swap1\n      dup4\n      0xffffffffffffffffffffffffffffffffffffffff\n      and\n      mul\n      or\n      swap1\n      sstore\n      pop\n      pop\n      pop\n        /* \"contracts/BusinessConsensus.sol\":5104:5209  if(voters_map[keys[i]].voted == false){\r... */\n    tag_192:\n        /* \"contracts/BusinessConsensus.sol\":5085:5088  i++ */\n      dup1\n      dup1\n      tag_197\n      swap1\n      tag_198\n      jump\t// in\n    tag_197:\n      swap2\n      pop\n      pop\n        /* \"contracts/BusinessConsensus.sol\":5054:5220  for(uint8 i=0; i< keys.length; i++){\r... */\n      jump(tag_185)\n    tag_186:\n      pop\n        /* \"contracts/BusinessConsensus.sol\":5243:5247  true */\n      0x01\n        /* \"contracts/BusinessConsensus.sol\":5230:5240  isCompiled */\n      0x06\n      0x00\n        /* \"contracts/BusinessConsensus.sol\":5230:5247  isCompiled = true */\n      0x0100\n      exp\n      dup2\n      sload\n      dup2\n      0xff\n      mul\n      not\n      and\n      swap1\n      dup4\n      iszero\n      iszero\n      mul\n      or\n      swap1\n      sstore\n      pop\n        /* \"contracts/BusinessConsensus.sol\":4558:5255  {\r... */\n      pop\n        /* \"contracts/BusinessConsensus.sol\":4528:5255  function Consensus() external {\r... */\n      jump\t// out\n        /* \"contracts/BusinessConsensus.sol\":1098:1141  mapping(address => Voter) public voters_map */\n    tag_68:\n      mstore(0x20, 0x09)\n      dup1\n      0x00\n      mstore\n      keccak256(0x00, 0x40)\n      0x00\n      swap2\n      pop\n      swap1\n      pop\n      dup1\n      0x00\n      add\n      0x00\n      swap1\n      sload\n      swap1\n      0x0100\n      exp\n      swap1\n      div\n      0xff\n      and\n      swap1\n      dup1\n      0x00\n      add\n      0x01\n      swap1\n      sload\n      swap1\n      0x0100\n      exp\n      swap1\n      div\n      0xff\n      and\n      swap1\n      dup1\n      0x00\n      add\n      0x02\n      swap1\n      sload\n      swap1\n      0x0100\n      exp\n      swap1\n      div\n      0xffffffffffffffffffffffffffffffffffffffff\n      and\n      swap1\n      pop\n      dup4\n      jump\t// out\n        /* \"contracts/BusinessConsensus.sol\":2233:2389  function getParameters() external view returns (bytes32, uint , uint){\r... */\n    tag_71:\n        /* \"contracts/BusinessConsensus.sol\":2281:2288  bytes32 */\n      0x00\n        /* \"contracts/BusinessConsensus.sol\":2290:2294  uint */\n      dup1\n        /* \"contracts/BusinessConsensus.sol\":2297:2301  uint */\n      0x00\n        /* \"contracts/BusinessConsensus.sol\":2321:2329  proposal */\n      0x0a\n        /* \"contracts/BusinessConsensus.sol\":2321:2338  proposal.contents */\n      0x04\n      add\n      sload\n        /* \"contracts/BusinessConsensus.sol\":2339:2347  proposal */\n      0x0a\n        /* \"contracts/BusinessConsensus.sol\":2339:2360  proposal.expiryLength */\n      0x05\n      add\n      sload\n        /* \"contracts/BusinessConsensus.sol\":2361:2380  BusinessRequirement */\n      sload(0x04)\n        /* \"contracts/BusinessConsensus.sol\":2313:2381  return (proposal.contents,proposal.expiryLength,BusinessRequirement) */\n      swap3\n      pop\n      swap3\n      pop\n      swap3\n      pop\n        /* \"contracts/BusinessConsensus.sol\":2233:2389  function getParameters() external view returns (bytes32, uint , uint){\r... */\n      swap1\n      swap2\n      swap3\n      jump\t// out\n        /* \"contracts/BusinessConsensus.sol\":917:951  uint256 public BusinessRequirement */\n    tag_75:\n      sload(0x04)\n      dup2\n      jump\t// out\n        /* \"contracts/BusinessConsensus.sol\":1068:1089  Voter[] public voters */\n    tag_79:\n      0x08\n      dup2\n      dup2\n      sload\n      dup2\n      lt\n      tag_200\n      jumpi\n      0x00\n      dup1\n      revert\n    tag_200:\n      swap1\n      0x00\n      mstore\n      keccak256(0x00, 0x20)\n      add\n      0x00\n      swap2\n      pop\n      swap1\n      pop\n      dup1\n      0x00\n      add\n      0x00\n      swap1\n      sload\n      swap1\n      0x0100\n      exp\n      swap1\n      div\n      0xff\n      and\n      swap1\n      dup1\n      0x00\n      add\n      0x01\n      swap1\n      sload\n      swap1\n      0x0100\n      exp\n      swap1\n      div\n      0xff\n      and\n      swap1\n      dup1\n      0x00\n      add\n      0x02\n      swap1\n      sload\n      swap1\n      0x0100\n      exp\n      swap1\n      div\n      0xffffffffffffffffffffffffffffffffffffffff\n      and\n      swap1\n      pop\n      dup4\n      jump\t// out\n        /* \"contracts/BusinessConsensus.sol\":708:738  address public contractAddress */\n    tag_82:\n      0x00\n      dup1\n      sload\n      swap1\n      0x0100\n      exp\n      swap1\n      div\n      0xffffffffffffffffffffffffffffffffffffffff\n      and\n      dup2\n      jump\t// out\n    tag_147:\n      mload(0x40)\n      dup1\n      0xc0\n      add\n      0x40\n      mstore\n      dup1\n      0x00\n      dup2\n      mstore\n      0x20\n      add\n      0x60\n      dup2\n      mstore\n      0x20\n      add\n      0x60\n      dup2\n      mstore\n      0x20\n      add\n      0x60\n      dup2\n      mstore\n      0x20\n      add\n      0x00\n      dup1\n      not\n      and\n      dup2\n      mstore\n      0x20\n      add\n      0x00\n      dup2\n      mstore\n      pop\n      swap1\n      jump\t// out\n        /* \"#utility.yul\":7:419   */\n    tag_203:\n        /* \"#utility.yul\":85:90   */\n      0x00\n        /* \"#utility.yul\":110:176   */\n      tag_205\n        /* \"#utility.yul\":126:175   */\n      tag_206\n        /* \"#utility.yul\":168:174   */\n      dup5\n        /* \"#utility.yul\":126:175   */\n      tag_207\n      jump\t// in\n    tag_206:\n        /* \"#utility.yul\":110:176   */\n      tag_208\n      jump\t// in\n    tag_205:\n        /* \"#utility.yul\":101:176   */\n      swap1\n      pop\n        /* \"#utility.yul\":199:205   */\n      dup3\n        /* \"#utility.yul\":192:197   */\n      dup2\n        /* \"#utility.yul\":185:206   */\n      mstore\n        /* \"#utility.yul\":237:241   */\n      0x20\n        /* \"#utility.yul\":230:235   */\n      dup2\n        /* \"#utility.yul\":226:242   */\n      add\n        /* \"#utility.yul\":275:278   */\n      dup5\n        /* \"#utility.yul\":266:272   */\n      dup5\n        /* \"#utility.yul\":261:264   */\n      dup5\n        /* \"#utility.yul\":257:273   */\n      add\n        /* \"#utility.yul\":254:279   */\n      gt\n        /* \"#utility.yul\":251:363   */\n      iszero\n      tag_209\n      jumpi\n        /* \"#utility.yul\":282:361   */\n      tag_210\n      tag_211\n      jump\t// in\n    tag_210:\n        /* \"#utility.yul\":251:363   */\n    tag_209:\n        /* \"#utility.yul\":372:413   */\n      tag_212\n        /* \"#utility.yul\":406:412   */\n      dup5\n        /* \"#utility.yul\":401:404   */\n      dup3\n        /* \"#utility.yul\":396:399   */\n      dup6\n        /* \"#utility.yul\":372:413   */\n      tag_213\n      jump\t// in\n    tag_212:\n        /* \"#utility.yul\":91:419   */\n      pop\n        /* \"#utility.yul\":7:419   */\n      swap4\n      swap3\n      pop\n      pop\n      pop\n      jump\t// out\n        /* \"#utility.yul\":425:564   */\n    tag_214:\n        /* \"#utility.yul\":471:476   */\n      0x00\n        /* \"#utility.yul\":509:515   */\n      dup2\n        /* \"#utility.yul\":496:516   */\n      calldataload\n        /* \"#utility.yul\":487:516   */\n      swap1\n      pop\n        /* \"#utility.yul\":525:558   */\n      tag_216\n        /* \"#utility.yul\":552:557   */\n      dup2\n        /* \"#utility.yul\":525:558   */\n      tag_217\n      jump\t// in\n    tag_216:\n        /* \"#utility.yul\":425:564   */\n      swap3\n      swap2\n      pop\n      pop\n      jump\t// out\n        /* \"#utility.yul\":584:924   */\n    tag_218:\n        /* \"#utility.yul\":640:645   */\n      0x00\n        /* \"#utility.yul\":689:692   */\n      dup3\n        /* \"#utility.yul\":682:686   */\n      0x1f\n        /* \"#utility.yul\":674:680   */\n      dup4\n        /* \"#utility.yul\":670:687   */\n      add\n        /* \"#utility.yul\":666:693   */\n      slt\n        /* \"#utility.yul\":656:778   */\n      tag_220\n      jumpi\n        /* \"#utility.yul\":697:776   */\n      tag_221\n      tag_222\n      jump\t// in\n    tag_221:\n        /* \"#utility.yul\":656:778   */\n    tag_220:\n        /* \"#utility.yul\":814:820   */\n      dup2\n        /* \"#utility.yul\":801:821   */\n      calldataload\n        /* \"#utility.yul\":839:918   */\n      tag_223\n        /* \"#utility.yul\":914:917   */\n      dup5\n        /* \"#utility.yul\":906:912   */\n      dup3\n        /* \"#utility.yul\":899:903   */\n      0x20\n        /* \"#utility.yul\":891:897   */\n      dup7\n        /* \"#utility.yul\":887:904   */\n      add\n        /* \"#utility.yul\":839:918   */\n      tag_203\n      jump\t// in\n    tag_223:\n        /* \"#utility.yul\":830:918   */\n      swap2\n      pop\n        /* \"#utility.yul\":646:924   */\n      pop\n        /* \"#utility.yul\":584:924   */\n      swap3\n      swap2\n      pop\n      pop\n      jump\t// out\n        /* \"#utility.yul\":930:1069   */\n    tag_224:\n        /* \"#utility.yul\":976:981   */\n      0x00\n        /* \"#utility.yul\":1014:1020   */\n      dup2\n        /* \"#utility.yul\":1001:1021   */\n      calldataload\n        /* \"#utility.yul\":992:1021   */\n      swap1\n      pop\n        /* \"#utility.yul\":1030:1063   */\n      tag_226\n        /* \"#utility.yul\":1057:1062   */\n      dup2\n        /* \"#utility.yul\":1030:1063   */\n      tag_227\n      jump\t// in\n    tag_226:\n        /* \"#utility.yul\":930:1069   */\n      swap3\n      swap2\n      pop\n      pop\n      jump\t// out\n        /* \"#utility.yul\":1075:1404   */\n    tag_30:\n        /* \"#utility.yul\":1134:1140   */\n      0x00\n        /* \"#utility.yul\":1183:1185   */\n      0x20\n        /* \"#utility.yul\":1171:1180   */\n      dup3\n        /* \"#utility.yul\":1162:1169   */\n      dup5\n        /* \"#utility.yul\":1158:1181   */\n      sub\n        /* \"#utility.yul\":1154:1186   */\n      slt\n        /* \"#utility.yul\":1151:1270   */\n      iszero\n      tag_229\n      jumpi\n        /* \"#utility.yul\":1189:1268   */\n      tag_230\n      tag_231\n      jump\t// in\n    tag_230:\n        /* \"#utility.yul\":1151:1270   */\n    tag_229:\n        /* \"#utility.yul\":1309:1310   */\n      0x00\n        /* \"#utility.yul\":1334:1387   */\n      tag_232\n        /* \"#utility.yul\":1379:1386   */\n      dup5\n        /* \"#utility.yul\":1370:1376   */\n      dup3\n        /* \"#utility.yul\":1359:1368   */\n      dup6\n        /* \"#utility.yul\":1355:1377   */\n      add\n        /* \"#utility.yul\":1334:1387   */\n      tag_214\n      jump\t// in\n    tag_232:\n        /* \"#utility.yul\":1324:1387   */\n      swap2\n      pop\n        /* \"#utility.yul\":1280:1397   */\n      pop\n        /* \"#utility.yul\":1075:1404   */\n      swap3\n      swap2\n      pop\n      pop\n      jump\t// out\n        /* \"#utility.yul\":1410:1919   */\n    tag_38:\n        /* \"#utility.yul\":1479:1485   */\n      0x00\n        /* \"#utility.yul\":1528:1530   */\n      0x20\n        /* \"#utility.yul\":1516:1525   */\n      dup3\n        /* \"#utility.yul\":1507:1514   */\n      dup5\n        /* \"#utility.yul\":1503:1526   */\n      sub\n        /* \"#utility.yul\":1499:1531   */\n      slt\n        /* \"#utility.yul\":1496:1615   */\n      iszero\n      tag_234\n      jumpi\n        /* \"#utility.yul\":1534:1613   */\n      tag_235\n      tag_231\n      jump\t// in\n    tag_235:\n        /* \"#utility.yul\":1496:1615   */\n    tag_234:\n        /* \"#utility.yul\":1682:1683   */\n      0x00\n        /* \"#utility.yul\":1671:1680   */\n      dup3\n        /* \"#utility.yul\":1667:1684   */\n      add\n        /* \"#utility.yul\":1654:1685   */\n      calldataload\n        /* \"#utility.yul\":1712:1730   */\n      0xffffffffffffffff\n        /* \"#utility.yul\":1704:1710   */\n      dup2\n        /* \"#utility.yul\":1701:1731   */\n      gt\n        /* \"#utility.yul\":1698:1815   */\n      iszero\n      tag_236\n      jumpi\n        /* \"#utility.yul\":1734:1813   */\n      tag_237\n      tag_238\n      jump\t// in\n    tag_237:\n        /* \"#utility.yul\":1698:1815   */\n    tag_236:\n        /* \"#utility.yul\":1839:1902   */\n      tag_239\n        /* \"#utility.yul\":1894:1901   */\n      dup5\n        /* \"#utility.yul\":1885:1891   */\n      dup3\n        /* \"#utility.yul\":1874:1883   */\n      dup6\n        /* \"#utility.yul\":1870:1892   */\n      add\n        /* \"#utility.yul\":1839:1902   */\n      tag_218\n      jump\t// in\n    tag_239:\n        /* \"#utility.yul\":1829:1902   */\n      swap2\n      pop\n        /* \"#utility.yul\":1625:1912   */\n      pop\n        /* \"#utility.yul\":1410:1919   */\n      swap3\n      swap2\n      pop\n      pop\n      jump\t// out\n        /* \"#utility.yul\":1925:2254   */\n    tag_24:\n        /* \"#utility.yul\":1984:1990   */\n      0x00\n        /* \"#utility.yul\":2033:2035   */\n      0x20\n        /* \"#utility.yul\":2021:2030   */\n      dup3\n        /* \"#utility.yul\":2012:2019   */\n      dup5\n        /* \"#utility.yul\":2008:2031   */\n      sub\n        /* \"#utility.yul\":2004:2036   */\n      slt\n        /* \"#utility.yul\":2001:2120   */\n      iszero\n      tag_241\n      jumpi\n        /* \"#utility.yul\":2039:2118   */\n      tag_242\n      tag_231\n      jump\t// in\n    tag_242:\n        /* \"#utility.yul\":2001:2120   */\n    tag_241:\n        /* \"#utility.yul\":2159:2160   */\n      0x00\n        /* \"#utility.yul\":2184:2237   */\n      tag_243\n        /* \"#utility.yul\":2229:2236   */\n      dup5\n        /* \"#utility.yul\":2220:2226   */\n      dup3\n        /* \"#utility.yul\":2209:2218   */\n      dup6\n        /* \"#utility.yul\":2205:2227   */\n      add\n        /* \"#utility.yul\":2184:2237   */\n      tag_224\n      jump\t// in\n    tag_243:\n        /* \"#utility.yul\":2174:2237   */\n      swap2\n      pop\n        /* \"#utility.yul\":2130:2247   */\n      pop\n        /* \"#utility.yul\":1925:2254   */\n      swap3\n      swap2\n      pop\n      pop\n      jump\t// out\n        /* \"#utility.yul\":2260:2519   */\n    tag_244:\n        /* \"#utility.yul\":2369:2379   */\n      0x00\n        /* \"#utility.yul\":2390:2476   */\n      tag_246\n        /* \"#utility.yul\":2472:2475   */\n      dup4\n        /* \"#utility.yul\":2464:2470   */\n      dup4\n        /* \"#utility.yul\":2390:2476   */\n      tag_247\n      jump\t// in\n    tag_246:\n        /* \"#utility.yul\":2508:2512   */\n      0x60\n        /* \"#utility.yul\":2503:2506   */\n      dup4\n        /* \"#utility.yul\":2499:2513   */\n      add\n        /* \"#utility.yul\":2485:2513   */\n      swap1\n      pop\n        /* \"#utility.yul\":2260:2519   */\n      swap3\n      swap2\n      pop\n      pop\n      jump\t// out\n        /* \"#utility.yul\":2525:2633   */\n    tag_248:\n        /* \"#utility.yul\":2602:2626   */\n      tag_250\n        /* \"#utility.yul\":2620:2625   */\n      dup2\n        /* \"#utility.yul\":2602:2626   */\n      tag_251\n      jump\t// in\n    tag_250:\n        /* \"#utility.yul\":2597:2600   */\n      dup3\n        /* \"#utility.yul\":2590:2627   */\n      mstore\n        /* \"#utility.yul\":2525:2633   */\n      pop\n      pop\n      jump\t// out\n        /* \"#utility.yul\":2639:2757   */\n    tag_252:\n        /* \"#utility.yul\":2726:2750   */\n      tag_254\n        /* \"#utility.yul\":2744:2749   */\n      dup2\n        /* \"#utility.yul\":2726:2750   */\n      tag_251\n      jump\t// in\n    tag_254:\n        /* \"#utility.yul\":2721:2724   */\n      dup3\n        /* \"#utility.yul\":2714:2751   */\n      mstore\n        /* \"#utility.yul\":2639:2757   */\n      pop\n      pop\n      jump\t// out\n        /* \"#utility.yul\":2839:3731   */\n    tag_255:\n        /* \"#utility.yul\":2998:3001   */\n      0x00\n        /* \"#utility.yul\":3027:3101   */\n      tag_257\n        /* \"#utility.yul\":3095:3100   */\n      dup3\n        /* \"#utility.yul\":3027:3101   */\n      tag_258\n      jump\t// in\n    tag_257:\n        /* \"#utility.yul\":3117:3223   */\n      tag_259\n        /* \"#utility.yul\":3216:3222   */\n      dup2\n        /* \"#utility.yul\":3211:3214   */\n      dup6\n        /* \"#utility.yul\":3117:3223   */\n      tag_260\n      jump\t// in\n    tag_259:\n        /* \"#utility.yul\":3110:3223   */\n      swap4\n      pop\n        /* \"#utility.yul\":3247:3323   */\n      tag_261\n        /* \"#utility.yul\":3317:3322   */\n      dup4\n        /* \"#utility.yul\":3247:3323   */\n      tag_262\n      jump\t// in\n    tag_261:\n        /* \"#utility.yul\":3346:3353   */\n      dup1\n        /* \"#utility.yul\":3377:3378   */\n      0x00\n        /* \"#utility.yul\":3362:3706   */\n    tag_263:\n        /* \"#utility.yul\":3387:3393   */\n      dup4\n        /* \"#utility.yul\":3384:3385   */\n      dup2\n        /* \"#utility.yul\":3381:3394   */\n      lt\n        /* \"#utility.yul\":3362:3706   */\n      iszero\n      tag_265\n      jumpi\n        /* \"#utility.yul\":3463:3469   */\n      dup2\n        /* \"#utility.yul\":3457:3470   */\n      mload\n        /* \"#utility.yul\":3490:3593   */\n      tag_266\n        /* \"#utility.yul\":3589:3592   */\n      dup9\n        /* \"#utility.yul\":3574:3587   */\n      dup3\n        /* \"#utility.yul\":3490:3593   */\n      tag_244\n      jump\t// in\n    tag_266:\n        /* \"#utility.yul\":3483:3593   */\n      swap8\n      pop\n        /* \"#utility.yul\":3616:3696   */\n      tag_267\n        /* \"#utility.yul\":3689:3695   */\n      dup4\n        /* \"#utility.yul\":3616:3696   */\n      tag_268\n      jump\t// in\n    tag_267:\n        /* \"#utility.yul\":3606:3696   */\n      swap3\n      pop\n        /* \"#utility.yul\":3422:3706   */\n      pop\n        /* \"#utility.yul\":3409:3410   */\n      0x01\n        /* \"#utility.yul\":3406:3407   */\n      dup2\n        /* \"#utility.yul\":3402:3411   */\n      add\n        /* \"#utility.yul\":3397:3411   */\n      swap1\n      pop\n        /* \"#utility.yul\":3362:3706   */\n      jump(tag_263)\n    tag_265:\n        /* \"#utility.yul\":3366:3380   */\n      pop\n        /* \"#utility.yul\":3722:3725   */\n      dup6\n        /* \"#utility.yul\":3715:3725   */\n      swap4\n      pop\n        /* \"#utility.yul\":3003:3731   */\n      pop\n      pop\n      pop\n        /* \"#utility.yul\":2839:3731   */\n      swap3\n      swap2\n      pop\n      pop\n      jump\t// out\n        /* \"#utility.yul\":3737:3836   */\n    tag_269:\n        /* \"#utility.yul\":3808:3829   */\n      tag_271\n        /* \"#utility.yul\":3823:3828   */\n      dup2\n        /* \"#utility.yul\":3808:3829   */\n      tag_272\n      jump\t// in\n    tag_271:\n        /* \"#utility.yul\":3803:3806   */\n      dup3\n        /* \"#utility.yul\":3796:3830   */\n      mstore\n        /* \"#utility.yul\":3737:3836   */\n      pop\n      pop\n      jump\t// out\n        /* \"#utility.yul\":3842:3951   */\n    tag_273:\n        /* \"#utility.yul\":3923:3944   */\n      tag_275\n        /* \"#utility.yul\":3938:3943   */\n      dup2\n        /* \"#utility.yul\":3923:3944   */\n      tag_272\n      jump\t// in\n    tag_275:\n        /* \"#utility.yul\":3918:3921   */\n      dup3\n        /* \"#utility.yul\":3911:3945   */\n      mstore\n        /* \"#utility.yul\":3842:3951   */\n      pop\n      pop\n      jump\t// out\n        /* \"#utility.yul\":3957:4065   */\n    tag_276:\n        /* \"#utility.yul\":4034:4058   */\n      tag_278\n        /* \"#utility.yul\":4052:4057   */\n      dup2\n        /* \"#utility.yul\":4034:4058   */\n      tag_279\n      jump\t// in\n    tag_278:\n        /* \"#utility.yul\":4029:4032   */\n      dup3\n        /* \"#utility.yul\":4022:4059   */\n      mstore\n        /* \"#utility.yul\":3957:4065   */\n      pop\n      pop\n      jump\t// out\n        /* \"#utility.yul\":4071:4189   */\n    tag_280:\n        /* \"#utility.yul\":4158:4182   */\n      tag_282\n        /* \"#utility.yul\":4176:4181   */\n      dup2\n        /* \"#utility.yul\":4158:4182   */\n      tag_279\n      jump\t// in\n    tag_282:\n        /* \"#utility.yul\":4153:4156   */\n      dup3\n        /* \"#utility.yul\":4146:4183   */\n      mstore\n        /* \"#utility.yul\":4071:4189   */\n      pop\n      pop\n      jump\t// out\n        /* \"#utility.yul\":4195:4539   */\n    tag_283:\n        /* \"#utility.yul\":4273:4276   */\n      0x00\n        /* \"#utility.yul\":4301:4340   */\n      tag_285\n        /* \"#utility.yul\":4334:4339   */\n      dup3\n        /* \"#utility.yul\":4301:4340   */\n      tag_286\n      jump\t// in\n    tag_285:\n        /* \"#utility.yul\":4356:4417   */\n      tag_287\n        /* \"#utility.yul\":4410:4416   */\n      dup2\n        /* \"#utility.yul\":4405:4408   */\n      dup6\n        /* \"#utility.yul\":4356:4417   */\n      tag_288\n      jump\t// in\n    tag_287:\n        /* \"#utility.yul\":4349:4417   */\n      swap4\n      pop\n        /* \"#utility.yul\":4426:4478   */\n      tag_289\n        /* \"#utility.yul\":4471:4477   */\n      dup2\n        /* \"#utility.yul\":4466:4469   */\n      dup6\n        /* \"#utility.yul\":4459:4463   */\n      0x20\n        /* \"#utility.yul\":4452:4457   */\n      dup7\n        /* \"#utility.yul\":4448:4464   */\n      add\n        /* \"#utility.yul\":4426:4478   */\n      tag_290\n      jump\t// in\n    tag_289:\n        /* \"#utility.yul\":4503:4532   */\n      tag_291\n        /* \"#utility.yul\":4525:4531   */\n      dup2\n        /* \"#utility.yul\":4503:4532   */\n      tag_292\n      jump\t// in\n    tag_291:\n        /* \"#utility.yul\":4498:4501   */\n      dup5\n        /* \"#utility.yul\":4494:4533   */\n      add\n        /* \"#utility.yul\":4487:4533   */\n      swap2\n      pop\n        /* \"#utility.yul\":4277:4539   */\n      pop\n        /* \"#utility.yul\":4195:4539   */\n      swap3\n      swap2\n      pop\n      pop\n      jump\t// out\n        /* \"#utility.yul\":4545:4909   */\n    tag_293:\n        /* \"#utility.yul\":4633:4636   */\n      0x00\n        /* \"#utility.yul\":4661:4700   */\n      tag_295\n        /* \"#utility.yul\":4694:4699   */\n      dup3\n        /* \"#utility.yul\":4661:4700   */\n      tag_286\n      jump\t// in\n    tag_295:\n        /* \"#utility.yul\":4716:4787   */\n      tag_296\n        /* \"#utility.yul\":4780:4786   */\n      dup2\n        /* \"#utility.yul\":4775:4778   */\n      dup6\n        /* \"#utility.yul\":4716:4787   */\n      tag_297\n      jump\t// in\n    tag_296:\n        /* \"#utility.yul\":4709:4787   */\n      swap4\n      pop\n        /* \"#utility.yul\":4796:4848   */\n      tag_298\n        /* \"#utility.yul\":4841:4847   */\n      dup2\n        /* \"#utility.yul\":4836:4839   */\n      dup6\n        /* \"#utility.yul\":4829:4833   */\n      0x20\n        /* \"#utility.yul\":4822:4827   */\n      dup7\n        /* \"#utility.yul\":4818:4834   */\n      add\n        /* \"#utility.yul\":4796:4848   */\n      tag_290\n      jump\t// in\n    tag_298:\n        /* \"#utility.yul\":4873:4902   */\n      tag_299\n        /* \"#utility.yul\":4895:4901   */\n      dup2\n        /* \"#utility.yul\":4873:4902   */\n      tag_292\n      jump\t// in\n    tag_299:\n        /* \"#utility.yul\":4868:4871   */\n      dup5\n        /* \"#utility.yul\":4864:4903   */\n      add\n        /* \"#utility.yul\":4857:4903   */\n      swap2\n      pop\n        /* \"#utility.yul\":4637:4909   */\n      pop\n        /* \"#utility.yul\":4545:4909   */\n      swap3\n      swap2\n      pop\n      pop\n      jump\t// out\n        /* \"#utility.yul\":4915:5281   */\n    tag_300:\n        /* \"#utility.yul\":5057:5060   */\n      0x00\n        /* \"#utility.yul\":5078:5145   */\n      tag_302\n        /* \"#utility.yul\":5142:5144   */\n      0x1f\n        /* \"#utility.yul\":5137:5140   */\n      dup4\n        /* \"#utility.yul\":5078:5145   */\n      tag_297\n      jump\t// in\n    tag_302:\n        /* \"#utility.yul\":5071:5145   */\n      swap2\n      pop\n        /* \"#utility.yul\":5154:5247   */\n      tag_303\n        /* \"#utility.yul\":5243:5246   */\n      dup3\n        /* \"#utility.yul\":5154:5247   */\n      tag_304\n      jump\t// in\n    tag_303:\n        /* \"#utility.yul\":5272:5274   */\n      0x20\n        /* \"#utility.yul\":5267:5270   */\n      dup3\n        /* \"#utility.yul\":5263:5275   */\n      add\n        /* \"#utility.yul\":5256:5275   */\n      swap1\n      pop\n        /* \"#utility.yul\":4915:5281   */\n      swap2\n      swap1\n      pop\n      jump\t// out\n        /* \"#utility.yul\":5287:5653   */\n    tag_305:\n        /* \"#utility.yul\":5429:5432   */\n      0x00\n        /* \"#utility.yul\":5450:5517   */\n      tag_307\n        /* \"#utility.yul\":5514:5516   */\n      0x26\n        /* \"#utility.yul\":5509:5512   */\n      dup4\n        /* \"#utility.yul\":5450:5517   */\n      tag_297\n      jump\t// in\n    tag_307:\n        /* \"#utility.yul\":5443:5517   */\n      swap2\n      pop\n        /* \"#utility.yul\":5526:5619   */\n      tag_308\n        /* \"#utility.yul\":5615:5618   */\n      dup3\n        /* \"#utility.yul\":5526:5619   */\n      tag_309\n      jump\t// in\n    tag_308:\n        /* \"#utility.yul\":5644:5646   */\n      0x40\n        /* \"#utility.yul\":5639:5642   */\n      dup3\n        /* \"#utility.yul\":5635:5647   */\n      add\n        /* \"#utility.yul\":5628:5647   */\n      swap1\n      pop\n        /* \"#utility.yul\":5287:5653   */\n      swap2\n      swap1\n      pop\n      jump\t// out\n        /* \"#utility.yul\":5659:6025   */\n    tag_310:\n        /* \"#utility.yul\":5801:5804   */\n      0x00\n        /* \"#utility.yul\":5822:5889   */\n      tag_312\n        /* \"#utility.yul\":5886:5888   */\n      0x1c\n        /* \"#utility.yul\":5881:5884   */\n      dup4\n        /* \"#utility.yul\":5822:5889   */\n      tag_297\n      jump\t// in\n    tag_312:\n        /* \"#utility.yul\":5815:5889   */\n      swap2\n      pop\n        /* \"#utility.yul\":5898:5991   */\n      tag_313\n        /* \"#utility.yul\":5987:5990   */\n      dup3\n        /* \"#utility.yul\":5898:5991   */\n      tag_314\n      jump\t// in\n    tag_313:\n        /* \"#utility.yul\":6016:6018   */\n      0x20\n        /* \"#utility.yul\":6011:6014   */\n      dup3\n        /* \"#utility.yul\":6007:6019   */\n      add\n        /* \"#utility.yul\":6000:6019   */\n      swap1\n      pop\n        /* \"#utility.yul\":5659:6025   */\n      swap2\n      swap1\n      pop\n      jump\t// out\n        /* \"#utility.yul\":6031:6397   */\n    tag_315:\n        /* \"#utility.yul\":6173:6176   */\n      0x00\n        /* \"#utility.yul\":6194:6261   */\n      tag_317\n        /* \"#utility.yul\":6258:6260   */\n      0x15\n        /* \"#utility.yul\":6253:6256   */\n      dup4\n        /* \"#utility.yul\":6194:6261   */\n      tag_297\n      jump\t// in\n    tag_317:\n        /* \"#utility.yul\":6187:6261   */\n      swap2\n      pop\n        /* \"#utility.yul\":6270:6363   */\n      tag_318\n        /* \"#utility.yul\":6359:6362   */\n      dup3\n        /* \"#utility.yul\":6270:6363   */\n      tag_319\n      jump\t// in\n    tag_318:\n        /* \"#utility.yul\":6388:6390   */\n      0x20\n        /* \"#utility.yul\":6383:6386   */\n      dup3\n        /* \"#utility.yul\":6379:6391   */\n      add\n        /* \"#utility.yul\":6372:6391   */\n      swap1\n      pop\n        /* \"#utility.yul\":6031:6397   */\n      swap2\n      swap1\n      pop\n      jump\t// out\n        /* \"#utility.yul\":6403:6769   */\n    tag_320:\n        /* \"#utility.yul\":6545:6548   */\n      0x00\n        /* \"#utility.yul\":6566:6633   */\n      tag_322\n        /* \"#utility.yul\":6630:6632   */\n      0x1e\n        /* \"#utility.yul\":6625:6628   */\n      dup4\n        /* \"#utility.yul\":6566:6633   */\n      tag_297\n      jump\t// in\n    tag_322:\n        /* \"#utility.yul\":6559:6633   */\n      swap2\n      pop\n        /* \"#utility.yul\":6642:6735   */\n      tag_323\n        /* \"#utility.yul\":6731:6734   */\n      dup3\n        /* \"#utility.yul\":6642:6735   */\n      tag_324\n      jump\t// in\n    tag_323:\n        /* \"#utility.yul\":6760:6762   */\n      0x20\n        /* \"#utility.yul\":6755:6758   */\n      dup3\n        /* \"#utility.yul\":6751:6763   */\n      add\n        /* \"#utility.yul\":6744:6763   */\n      swap1\n      pop\n        /* \"#utility.yul\":6403:6769   */\n      swap2\n      swap1\n      pop\n      jump\t// out\n        /* \"#utility.yul\":6775:7141   */\n    tag_325:\n        /* \"#utility.yul\":6917:6920   */\n      0x00\n        /* \"#utility.yul\":6938:7005   */\n      tag_327\n        /* \"#utility.yul\":7002:7004   */\n      0x24\n        /* \"#utility.yul\":6997:7000   */\n      dup4\n        /* \"#utility.yul\":6938:7005   */\n      tag_297\n      jump\t// in\n    tag_327:\n        /* \"#utility.yul\":6931:7005   */\n      swap2\n      pop\n        /* \"#utility.yul\":7014:7107   */\n      tag_328\n        /* \"#utility.yul\":7103:7106   */\n      dup3\n        /* \"#utility.yul\":7014:7107   */\n      tag_329\n      jump\t// in\n    tag_328:\n        /* \"#utility.yul\":7132:7134   */\n      0x40\n        /* \"#utility.yul\":7127:7130   */\n      dup3\n        /* \"#utility.yul\":7123:7135   */\n      add\n        /* \"#utility.yul\":7116:7135   */\n      swap1\n      pop\n        /* \"#utility.yul\":6775:7141   */\n      swap2\n      swap1\n      pop\n      jump\t// out\n        /* \"#utility.yul\":7147:7513   */\n    tag_330:\n        /* \"#utility.yul\":7289:7292   */\n      0x00\n        /* \"#utility.yul\":7310:7377   */\n      tag_332\n        /* \"#utility.yul\":7374:7376   */\n      0x28\n        /* \"#utility.yul\":7369:7372   */\n      dup4\n        /* \"#utility.yul\":7310:7377   */\n      tag_297\n      jump\t// in\n    tag_332:\n        /* \"#utility.yul\":7303:7377   */\n      swap2\n      pop\n        /* \"#utility.yul\":7386:7479   */\n      tag_333\n        /* \"#utility.yul\":7475:7478   */\n      dup3\n        /* \"#utility.yul\":7386:7479   */\n      tag_334\n      jump\t// in\n    tag_333:\n        /* \"#utility.yul\":7504:7506   */\n      0x40\n        /* \"#utility.yul\":7499:7502   */\n      dup3\n        /* \"#utility.yul\":7495:7507   */\n      add\n        /* \"#utility.yul\":7488:7507   */\n      swap1\n      pop\n        /* \"#utility.yul\":7147:7513   */\n      swap2\n      swap1\n      pop\n      jump\t// out\n        /* \"#utility.yul\":7519:7885   */\n    tag_335:\n        /* \"#utility.yul\":7661:7664   */\n      0x00\n        /* \"#utility.yul\":7682:7749   */\n      tag_337\n        /* \"#utility.yul\":7746:7748   */\n      0x20\n        /* \"#utility.yul\":7741:7744   */\n      dup4\n        /* \"#utility.yul\":7682:7749   */\n      tag_297\n      jump\t// in\n    tag_337:\n        /* \"#utility.yul\":7675:7749   */\n      swap2\n      pop\n        /* \"#utility.yul\":7758:7851   */\n      tag_338\n        /* \"#utility.yul\":7847:7850   */\n      dup3\n        /* \"#utility.yul\":7758:7851   */\n      tag_339\n      jump\t// in\n    tag_338:\n        /* \"#utility.yul\":7876:7878   */\n      0x20\n        /* \"#utility.yul\":7871:7874   */\n      dup3\n        /* \"#utility.yul\":7867:7879   */\n      add\n        /* \"#utility.yul\":7860:7879   */\n      swap1\n      pop\n        /* \"#utility.yul\":7519:7885   */\n      swap2\n      swap1\n      pop\n      jump\t// out\n        /* \"#utility.yul\":7891:8257   */\n    tag_340:\n        /* \"#utility.yul\":8033:8036   */\n      0x00\n        /* \"#utility.yul\":8054:8121   */\n      tag_342\n        /* \"#utility.yul\":8118:8120   */\n      0x12\n        /* \"#utility.yul\":8113:8116   */\n      dup4\n        /* \"#utility.yul\":8054:8121   */\n      tag_297\n      jump\t// in\n    tag_342:\n        /* \"#utility.yul\":8047:8121   */\n      swap2\n      pop\n        /* \"#utility.yul\":8130:8223   */\n      tag_343\n        /* \"#utility.yul\":8219:8222   */\n      dup3\n        /* \"#utility.yul\":8130:8223   */\n      tag_344\n      jump\t// in\n    tag_343:\n        /* \"#utility.yul\":8248:8250   */\n      0x20\n        /* \"#utility.yul\":8243:8246   */\n      dup3\n        /* \"#utility.yul\":8239:8251   */\n      add\n        /* \"#utility.yul\":8232:8251   */\n      swap1\n      pop\n        /* \"#utility.yul\":7891:8257   */\n      swap2\n      swap1\n      pop\n      jump\t// out\n        /* \"#utility.yul\":8263:8629   */\n    tag_345:\n        /* \"#utility.yul\":8405:8408   */\n      0x00\n        /* \"#utility.yul\":8426:8493   */\n      tag_347\n        /* \"#utility.yul\":8490:8492   */\n      0x25\n        /* \"#utility.yul\":8485:8488   */\n      dup4\n        /* \"#utility.yul\":8426:8493   */\n      tag_297\n      jump\t// in\n    tag_347:\n        /* \"#utility.yul\":8419:8493   */\n      swap2\n      pop\n        /* \"#utility.yul\":8502:8595   */\n      tag_348\n        /* \"#utility.yul\":8591:8594   */\n      dup3\n        /* \"#utility.yul\":8502:8595   */\n      tag_349\n      jump\t// in\n    tag_348:\n        /* \"#utility.yul\":8620:8622   */\n      0x40\n        /* \"#utility.yul\":8615:8618   */\n      dup3\n        /* \"#utility.yul\":8611:8623   */\n      add\n        /* \"#utility.yul\":8604:8623   */\n      swap1\n      pop\n        /* \"#utility.yul\":8263:8629   */\n      swap2\n      swap1\n      pop\n      jump\t// out\n        /* \"#utility.yul\":8713:10187   */\n    tag_350:\n        /* \"#utility.yul\":8830:8833   */\n      0x00\n        /* \"#utility.yul\":8866:8870   */\n      0xc0\n        /* \"#utility.yul\":8861:8864   */\n      dup4\n        /* \"#utility.yul\":8857:8871   */\n      add\n        /* \"#utility.yul\":8958:8962   */\n      0x00\n        /* \"#utility.yul\":8951:8956   */\n      dup4\n        /* \"#utility.yul\":8947:8963   */\n      add\n        /* \"#utility.yul\":8941:8964   */\n      mload\n        /* \"#utility.yul\":8977:9040   */\n      tag_352\n        /* \"#utility.yul\":9034:9038   */\n      0x00\n        /* \"#utility.yul\":9029:9032   */\n      dup7\n        /* \"#utility.yul\":9025:9039   */\n      add\n        /* \"#utility.yul\":9011:9023   */\n      dup3\n        /* \"#utility.yul\":8977:9040   */\n      tag_353\n      jump\t// in\n    tag_352:\n        /* \"#utility.yul\":8881:9050   */\n      pop\n        /* \"#utility.yul\":9137:9141   */\n      0x20\n        /* \"#utility.yul\":9130:9135   */\n      dup4\n        /* \"#utility.yul\":9126:9142   */\n      add\n        /* \"#utility.yul\":9120:9143   */\n      mload\n        /* \"#utility.yul\":9190:9193   */\n      dup5\n        /* \"#utility.yul\":9184:9188   */\n      dup3\n        /* \"#utility.yul\":9180:9194   */\n      sub\n        /* \"#utility.yul\":9173:9177   */\n      0x20\n        /* \"#utility.yul\":9168:9171   */\n      dup7\n        /* \"#utility.yul\":9164:9178   */\n      add\n        /* \"#utility.yul\":9157:9195   */\n      mstore\n        /* \"#utility.yul\":9216:9289   */\n      tag_354\n        /* \"#utility.yul\":9284:9288   */\n      dup3\n        /* \"#utility.yul\":9270:9282   */\n      dup3\n        /* \"#utility.yul\":9216:9289   */\n      tag_283\n      jump\t// in\n    tag_354:\n        /* \"#utility.yul\":9208:9289   */\n      swap2\n      pop\n        /* \"#utility.yul\":9060:9300   */\n      pop\n        /* \"#utility.yul\":9389:9393   */\n      0x40\n        /* \"#utility.yul\":9382:9387   */\n      dup4\n        /* \"#utility.yul\":9378:9394   */\n      add\n        /* \"#utility.yul\":9372:9395   */\n      mload\n        /* \"#utility.yul\":9442:9445   */\n      dup5\n        /* \"#utility.yul\":9436:9440   */\n      dup3\n        /* \"#utility.yul\":9432:9446   */\n      sub\n        /* \"#utility.yul\":9425:9429   */\n      0x40\n        /* \"#utility.yul\":9420:9423   */\n      dup7\n        /* \"#utility.yul\":9416:9430   */\n      add\n        /* \"#utility.yul\":9409:9447   */\n      mstore\n        /* \"#utility.yul\":9468:9541   */\n      tag_355\n        /* \"#utility.yul\":9536:9540   */\n      dup3\n        /* \"#utility.yul\":9522:9534   */\n      dup3\n        /* \"#utility.yul\":9468:9541   */\n      tag_283\n      jump\t// in\n    tag_355:\n        /* \"#utility.yul\":9460:9541   */\n      swap2\n      pop\n        /* \"#utility.yul\":9310:9552   */\n      pop\n        /* \"#utility.yul\":9637:9641   */\n      0x60\n        /* \"#utility.yul\":9630:9635   */\n      dup4\n        /* \"#utility.yul\":9626:9642   */\n      add\n        /* \"#utility.yul\":9620:9643   */\n      mload\n        /* \"#utility.yul\":9690:9693   */\n      dup5\n        /* \"#utility.yul\":9684:9688   */\n      dup3\n        /* \"#utility.yul\":9680:9694   */\n      sub\n        /* \"#utility.yul\":9673:9677   */\n      0x60\n        /* \"#utility.yul\":9668:9671   */\n      dup7\n        /* \"#utility.yul\":9664:9678   */\n      add\n        /* \"#utility.yul\":9657:9695   */\n      mstore\n        /* \"#utility.yul\":9716:9789   */\n      tag_356\n        /* \"#utility.yul\":9784:9788   */\n      dup3\n        /* \"#utility.yul\":9770:9782   */\n      dup3\n        /* \"#utility.yul\":9716:9789   */\n      tag_283\n      jump\t// in\n    tag_356:\n        /* \"#utility.yul\":9708:9789   */\n      swap2\n      pop\n        /* \"#utility.yul\":9562:9800   */\n      pop\n        /* \"#utility.yul\":9886:9890   */\n      0x80\n        /* \"#utility.yul\":9879:9884   */\n      dup4\n        /* \"#utility.yul\":9875:9891   */\n      add\n        /* \"#utility.yul\":9869:9892   */\n      mload\n        /* \"#utility.yul\":9905:9968   */\n      tag_357\n        /* \"#utility.yul\":9962:9966   */\n      0x80\n        /* \"#utility.yul\":9957:9960   */\n      dup7\n        /* \"#utility.yul\":9953:9967   */\n      add\n        /* \"#utility.yul\":9939:9951   */\n      dup3\n        /* \"#utility.yul\":9905:9968   */\n      tag_276\n      jump\t// in\n    tag_357:\n        /* \"#utility.yul\":9810:9978   */\n      pop\n        /* \"#utility.yul\":10068:10072   */\n      0xa0\n        /* \"#utility.yul\":10061:10066   */\n      dup4\n        /* \"#utility.yul\":10057:10073   */\n      add\n        /* \"#utility.yul\":10051:10074   */\n      mload\n        /* \"#utility.yul\":10087:10150   */\n      tag_358\n        /* \"#utility.yul\":10144:10148   */\n      0xa0\n        /* \"#utility.yul\":10139:10142   */\n      dup7\n        /* \"#utility.yul\":10135:10149   */\n      add\n        /* \"#utility.yul\":10121:10133   */\n      dup3\n        /* \"#utility.yul\":10087:10150   */\n      tag_353\n      jump\t// in\n    tag_358:\n        /* \"#utility.yul\":9988:10160   */\n      pop\n        /* \"#utility.yul\":10177:10181   */\n      dup1\n        /* \"#utility.yul\":10170:10181   */\n      swap2\n      pop\n        /* \"#utility.yul\":8835:10187   */\n      pop\n        /* \"#utility.yul\":8713:10187   */\n      swap3\n      swap2\n      pop\n      pop\n      jump\t// out\n        /* \"#utility.yul\":10265:10920   */\n    tag_247:\n        /* \"#utility.yul\":10392:10396   */\n      0x60\n        /* \"#utility.yul\":10387:10390   */\n      dup3\n        /* \"#utility.yul\":10383:10397   */\n      add\n        /* \"#utility.yul\":10480:10484   */\n      0x00\n        /* \"#utility.yul\":10473:10478   */\n      dup3\n        /* \"#utility.yul\":10469:10485   */\n      add\n        /* \"#utility.yul\":10463:10486   */\n      mload\n        /* \"#utility.yul\":10499:10556   */\n      tag_360\n        /* \"#utility.yul\":10550:10554   */\n      0x00\n        /* \"#utility.yul\":10545:10548   */\n      dup6\n        /* \"#utility.yul\":10541:10555   */\n      add\n        /* \"#utility.yul\":10527:10539   */\n      dup3\n        /* \"#utility.yul\":10499:10556   */\n      tag_269\n      jump\t// in\n    tag_360:\n        /* \"#utility.yul\":10407:10566   */\n      pop\n        /* \"#utility.yul\":10648:10652   */\n      0x20\n        /* \"#utility.yul\":10641:10646   */\n      dup3\n        /* \"#utility.yul\":10637:10653   */\n      add\n        /* \"#utility.yul\":10631:10654   */\n      mload\n        /* \"#utility.yul\":10667:10724   */\n      tag_361\n        /* \"#utility.yul\":10718:10722   */\n      0x20\n        /* \"#utility.yul\":10713:10716   */\n      dup6\n        /* \"#utility.yul\":10709:10723   */\n      add\n        /* \"#utility.yul\":10695:10707   */\n      dup3\n        /* \"#utility.yul\":10667:10724   */\n      tag_269\n      jump\t// in\n    tag_361:\n        /* \"#utility.yul\":10576:10734   */\n      pop\n        /* \"#utility.yul\":10821:10825   */\n      0x40\n        /* \"#utility.yul\":10814:10819   */\n      dup3\n        /* \"#utility.yul\":10810:10826   */\n      add\n        /* \"#utility.yul\":10804:10827   */\n      mload\n        /* \"#utility.yul\":10840:10903   */\n      tag_362\n        /* \"#utility.yul\":10897:10901   */\n      0x40\n        /* \"#utility.yul\":10892:10895   */\n      dup6\n        /* \"#utility.yul\":10888:10902   */\n      add\n        /* \"#utility.yul\":10874:10886   */\n      dup3\n        /* \"#utility.yul\":10840:10903   */\n      tag_248\n      jump\t// in\n    tag_362:\n        /* \"#utility.yul\":10744:10913   */\n      pop\n        /* \"#utility.yul\":10361:10920   */\n      pop\n        /* \"#utility.yul\":10265:10920   */\n      pop\n      pop\n      jump\t// out\n        /* \"#utility.yul\":10926:11034   */\n    tag_353:\n        /* \"#utility.yul\":11003:11027   */\n      tag_364\n        /* \"#utility.yul\":11021:11026   */\n      dup2\n        /* \"#utility.yul\":11003:11027   */\n      tag_365\n      jump\t// in\n    tag_364:\n        /* \"#utility.yul\":10998:11001   */\n      dup3\n        /* \"#utility.yul\":10991:11028   */\n      mstore\n        /* \"#utility.yul\":10926:11034   */\n      pop\n      pop\n      jump\t// out\n        /* \"#utility.yul\":11040:11158   */\n    tag_366:\n        /* \"#utility.yul\":11127:11151   */\n      tag_368\n        /* \"#utility.yul\":11145:11150   */\n      dup2\n        /* \"#utility.yul\":11127:11151   */\n      tag_365\n      jump\t// in\n    tag_368:\n        /* \"#utility.yul\":11122:11125   */\n      dup3\n        /* \"#utility.yul\":11115:11152   */\n      mstore\n        /* \"#utility.yul\":11040:11158   */\n      pop\n      pop\n      jump\t// out\n        /* \"#utility.yul\":11164:11386   */\n    tag_27:\n        /* \"#utility.yul\":11257:11261   */\n      0x00\n        /* \"#utility.yul\":11295:11297   */\n      0x20\n        /* \"#utility.yul\":11284:11293   */\n      dup3\n        /* \"#utility.yul\":11280:11298   */\n      add\n        /* \"#utility.yul\":11272:11298   */\n      swap1\n      pop\n        /* \"#utility.yul\":11308:11379   */\n      tag_370\n        /* \"#utility.yul\":11376:11377   */\n      0x00\n        /* \"#utility.yul\":11365:11374   */\n      dup4\n        /* \"#utility.yul\":11361:11378   */\n      add\n        /* \"#utility.yul\":11352:11358   */\n      dup5\n        /* \"#utility.yul\":11308:11379   */\n      tag_252\n      jump\t// in\n    tag_370:\n        /* \"#utility.yul\":11164:11386   */\n      swap3\n      swap2\n      pop\n      pop\n      jump\t// out\n        /* \"#utility.yul\":11392:11602   */\n    tag_59:\n        /* \"#utility.yul\":11479:11483   */\n      0x00\n        /* \"#utility.yul\":11517:11519   */\n      0x20\n        /* \"#utility.yul\":11506:11515   */\n      dup3\n        /* \"#utility.yul\":11502:11520   */\n      add\n        /* \"#utility.yul\":11494:11520   */\n      swap1\n      pop\n        /* \"#utility.yul\":11530:11595   */\n      tag_372\n        /* \"#utility.yul\":11592:11593   */\n      0x00\n        /* \"#utility.yul\":11581:11590   */\n      dup4\n        /* \"#utility.yul\":11577:11594   */\n      add\n        /* \"#utility.yul\":11568:11574   */\n      dup5\n        /* \"#utility.yul\":11530:11595   */\n      tag_273\n      jump\t// in\n    tag_372:\n        /* \"#utility.yul\":11392:11602   */\n      swap3\n      swap2\n      pop\n      pop\n      jump\t// out\n        /* \"#utility.yul\":11608:12026   */\n    tag_44:\n        /* \"#utility.yul\":11745:11749   */\n      0x00\n        /* \"#utility.yul\":11783:11785   */\n      0x60\n        /* \"#utility.yul\":11772:11781   */\n      dup3\n        /* \"#utility.yul\":11768:11786   */\n      add\n        /* \"#utility.yul\":11760:11786   */\n      swap1\n      pop\n        /* \"#utility.yul\":11796:11861   */\n      tag_374\n        /* \"#utility.yul\":11858:11859   */\n      0x00\n        /* \"#utility.yul\":11847:11856   */\n      dup4\n        /* \"#utility.yul\":11843:11860   */\n      add\n        /* \"#utility.yul\":11834:11840   */\n      dup7\n        /* \"#utility.yul\":11796:11861   */\n      tag_273\n      jump\t// in\n    tag_374:\n        /* \"#utility.yul\":11871:11937   */\n      tag_375\n        /* \"#utility.yul\":11933:11935   */\n      0x20\n        /* \"#utility.yul\":11922:11931   */\n      dup4\n        /* \"#utility.yul\":11918:11936   */\n      add\n        /* \"#utility.yul\":11909:11915   */\n      dup6\n        /* \"#utility.yul\":11871:11937   */\n      tag_273\n      jump\t// in\n    tag_375:\n        /* \"#utility.yul\":11947:12019   */\n      tag_376\n        /* \"#utility.yul\":12015:12017   */\n      0x40\n        /* \"#utility.yul\":12004:12013   */\n      dup4\n        /* \"#utility.yul\":12000:12018   */\n      add\n        /* \"#utility.yul\":11991:11997   */\n      dup5\n        /* \"#utility.yul\":11947:12019   */\n      tag_252\n      jump\t// in\n    tag_376:\n        /* \"#utility.yul\":11608:12026   */\n      swap5\n      swap4\n      pop\n      pop\n      pop\n      pop\n      jump\t// out\n        /* \"#utility.yul\":12032:12852   */\n    tag_63:\n        /* \"#utility.yul\":12319:12323   */\n      0x00\n        /* \"#utility.yul\":12357:12359   */\n      0x60\n        /* \"#utility.yul\":12346:12355   */\n      dup3\n        /* \"#utility.yul\":12342:12360   */\n      add\n        /* \"#utility.yul\":12334:12360   */\n      swap1\n      pop\n        /* \"#utility.yul\":12370:12441   */\n      tag_378\n        /* \"#utility.yul\":12438:12439   */\n      0x00\n        /* \"#utility.yul\":12427:12436   */\n      dup4\n        /* \"#utility.yul\":12423:12440   */\n      add\n        /* \"#utility.yul\":12414:12420   */\n      dup7\n        /* \"#utility.yul\":12370:12441   */\n      tag_280\n      jump\t// in\n    tag_378:\n        /* \"#utility.yul\":12488:12497   */\n      dup2\n        /* \"#utility.yul\":12482:12486   */\n      dup2\n        /* \"#utility.yul\":12478:12498   */\n      sub\n        /* \"#utility.yul\":12473:12475   */\n      0x20\n        /* \"#utility.yul\":12462:12471   */\n      dup4\n        /* \"#utility.yul\":12458:12476   */\n      add\n        /* \"#utility.yul\":12451:12499   */\n      mstore\n        /* \"#utility.yul\":12516:12622   */\n      tag_379\n        /* \"#utility.yul\":12617:12621   */\n      dup2\n        /* \"#utility.yul\":12608:12614   */\n      dup6\n        /* \"#utility.yul\":12516:12622   */\n      tag_350\n      jump\t// in\n    tag_379:\n        /* \"#utility.yul\":12508:12622   */\n      swap1\n      pop\n        /* \"#utility.yul\":12669:12678   */\n      dup2\n        /* \"#utility.yul\":12663:12667   */\n      dup2\n        /* \"#utility.yul\":12659:12679   */\n      sub\n        /* \"#utility.yul\":12654:12656   */\n      0x40\n        /* \"#utility.yul\":12643:12652   */\n      dup4\n        /* \"#utility.yul\":12639:12657   */\n      add\n        /* \"#utility.yul\":12632:12680   */\n      mstore\n        /* \"#utility.yul\":12697:12845   */\n      tag_380\n        /* \"#utility.yul\":12840:12844   */\n      dup2\n        /* \"#utility.yul\":12831:12837   */\n      dup5\n        /* \"#utility.yul\":12697:12845   */\n      tag_255\n      jump\t// in\n    tag_380:\n        /* \"#utility.yul\":12689:12845   */\n      swap1\n      pop\n        /* \"#utility.yul\":12032:12852   */\n      swap5\n      swap4\n      pop\n      pop\n      pop\n      pop\n      jump\t// out\n        /* \"#utility.yul\":12858:13300   */\n    tag_73:\n        /* \"#utility.yul\":13007:13011   */\n      0x00\n        /* \"#utility.yul\":13045:13047   */\n      0x60\n        /* \"#utility.yul\":13034:13043   */\n      dup3\n        /* \"#utility.yul\":13030:13048   */\n      add\n        /* \"#utility.yul\":13022:13048   */\n      swap1\n      pop\n        /* \"#utility.yul\":13058:13129   */\n      tag_382\n        /* \"#utility.yul\":13126:13127   */\n      0x00\n        /* \"#utility.yul\":13115:13124   */\n      dup4\n        /* \"#utility.yul\":13111:13128   */\n      add\n        /* \"#utility.yul\":13102:13108   */\n      dup7\n        /* \"#utility.yul\":13058:13129   */\n      tag_280\n      jump\t// in\n    tag_382:\n        /* \"#utility.yul\":13139:13211   */\n      tag_383\n        /* \"#utility.yul\":13207:13209   */\n      0x20\n        /* \"#utility.yul\":13196:13205   */\n      dup4\n        /* \"#utility.yul\":13192:13210   */\n      add\n        /* \"#utility.yul\":13183:13189   */\n      dup6\n        /* \"#utility.yul\":13139:13211   */\n      tag_366\n      jump\t// in\n    tag_383:\n        /* \"#utility.yul\":13221:13293   */\n      tag_384\n        /* \"#utility.yul\":13289:13291   */\n      0x40\n        /* \"#utility.yul\":13278:13287   */\n      dup4\n        /* \"#utility.yul\":13274:13292   */\n      add\n        /* \"#utility.yul\":13265:13271   */\n      dup5\n        /* \"#utility.yul\":13221:13293   */\n      tag_366\n      jump\t// in\n    tag_384:\n        /* \"#utility.yul\":12858:13300   */\n      swap5\n      swap4\n      pop\n      pop\n      pop\n      pop\n      jump\t// out\n        /* \"#utility.yul\":13306:13619   */\n    tag_35:\n        /* \"#utility.yul\":13419:13423   */\n      0x00\n        /* \"#utility.yul\":13457:13459   */\n      0x20\n        /* \"#utility.yul\":13446:13455   */\n      dup3\n        /* \"#utility.yul\":13442:13460   */\n      add\n        /* \"#utility.yul\":13434:13460   */\n      swap1\n      pop\n        /* \"#utility.yul\":13506:13515   */\n      dup2\n        /* \"#utility.yul\":13500:13504   */\n      dup2\n        /* \"#utility.yul\":13496:13516   */\n      sub\n        /* \"#utility.yul\":13492:13493   */\n      0x00\n        /* \"#utility.yul\":13481:13490   */\n      dup4\n        /* \"#utility.yul\":13477:13494   */\n      add\n        /* \"#utility.yul\":13470:13517   */\n      mstore\n        /* \"#utility.yul\":13534:13612   */\n      tag_386\n        /* \"#utility.yul\":13607:13611   */\n      dup2\n        /* \"#utility.yul\":13598:13604   */\n      dup5\n        /* \"#utility.yul\":13534:13612   */\n      tag_293\n      jump\t// in\n    tag_386:\n        /* \"#utility.yul\":13526:13612   */\n      swap1\n      pop\n        /* \"#utility.yul\":13306:13619   */\n      swap3\n      swap2\n      pop\n      pop\n      jump\t// out\n        /* \"#utility.yul\":13625:14044   */\n    tag_95:\n        /* \"#utility.yul\":13791:13795   */\n      0x00\n        /* \"#utility.yul\":13829:13831   */\n      0x20\n        /* \"#utility.yul\":13818:13827   */\n      dup3\n        /* \"#utility.yul\":13814:13832   */\n      add\n        /* \"#utility.yul\":13806:13832   */\n      swap1\n      pop\n        /* \"#utility.yul\":13878:13887   */\n      dup2\n        /* \"#utility.yul\":13872:13876   */\n      dup2\n        /* \"#utility.yul\":13868:13888   */\n      sub\n        /* \"#utility.yul\":13864:13865   */\n      0x00\n        /* \"#utility.yul\":13853:13862   */\n      dup4\n        /* \"#utility.yul\":13849:13866   */\n      add\n        /* \"#utility.yul\":13842:13889   */\n      mstore\n        /* \"#utility.yul\":13906:14037   */\n      tag_388\n        /* \"#utility.yul\":14032:14036   */\n      dup2\n        /* \"#utility.yul\":13906:14037   */\n      tag_300\n      jump\t// in\n    tag_388:\n        /* \"#utility.yul\":13898:14037   */\n      swap1\n      pop\n        /* \"#utility.yul\":13625:14044   */\n      swap2\n      swap1\n      pop\n      jump\t// out\n        /* \"#utility.yul\":14050:14469   */\n    tag_179:\n        /* \"#utility.yul\":14216:14220   */\n      0x00\n        /* \"#utility.yul\":14254:14256   */\n      0x20\n        /* \"#utility.yul\":14243:14252   */\n      dup3\n        /* \"#utility.yul\":14239:14257   */\n      add\n        /* \"#utility.yul\":14231:14257   */\n      swap1\n      pop\n        /* \"#utility.yul\":14303:14312   */\n      dup2\n        /* \"#utility.yul\":14297:14301   */\n      dup2\n        /* \"#utility.yul\":14293:14313   */\n      sub\n        /* \"#utility.yul\":14289:14290   */\n      0x00\n        /* \"#utility.yul\":14278:14287   */\n      dup4\n        /* \"#utility.yul\":14274:14291   */\n      add\n        /* \"#utility.yul\":14267:14314   */\n      mstore\n        /* \"#utility.yul\":14331:14462   */\n      tag_390\n        /* \"#utility.yul\":14457:14461   */\n      dup2\n        /* \"#utility.yul\":14331:14462   */\n      tag_305\n      jump\t// in\n    tag_390:\n        /* \"#utility.yul\":14323:14462   */\n      swap1\n      pop\n        /* \"#utility.yul\":14050:14469   */\n      swap2\n      swap1\n      pop\n      jump\t// out\n        /* \"#utility.yul\":14475:14894   */\n    tag_116:\n        /* \"#utility.yul\":14641:14645   */\n      0x00\n        /* \"#utility.yul\":14679:14681   */\n      0x20\n        /* \"#utility.yul\":14668:14677   */\n      dup3\n        /* \"#utility.yul\":14664:14682   */\n      add\n        /* \"#utility.yul\":14656:14682   */\n      swap1\n      pop\n        /* \"#utility.yul\":14728:14737   */\n      dup2\n        /* \"#utility.yul\":14722:14726   */\n      dup2\n        /* \"#utility.yul\":14718:14738   */\n      sub\n        /* \"#utility.yul\":14714:14715   */\n      0x00\n        /* \"#utility.yul\":14703:14712   */\n      dup4\n        /* \"#utility.yul\":14699:14716   */\n      add\n        /* \"#utility.yul\":14692:14739   */\n      mstore\n        /* \"#utility.yul\":14756:14887   */\n      tag_392\n        /* \"#utility.yul\":14882:14886   */\n      dup2\n        /* \"#utility.yul\":14756:14887   */\n      tag_310\n      jump\t// in\n    tag_392:\n        /* \"#utility.yul\":14748:14887   */\n      swap1\n      pop\n        /* \"#utility.yul\":14475:14894   */\n      swap2\n      swap1\n      pop\n      jump\t// out\n        /* \"#utility.yul\":14900:15319   */\n    tag_92:\n        /* \"#utility.yul\":15066:15070   */\n      0x00\n        /* \"#utility.yul\":15104:15106   */\n      0x20\n        /* \"#utility.yul\":15093:15102   */\n      dup3\n        /* \"#utility.yul\":15089:15107   */\n      add\n        /* \"#utility.yul\":15081:15107   */\n      swap1\n      pop\n        /* \"#utility.yul\":15153:15162   */\n      dup2\n        /* \"#utility.yul\":15147:15151   */\n      dup2\n        /* \"#utility.yul\":15143:15163   */\n      sub\n        /* \"#utility.yul\":15139:15140   */\n      0x00\n        /* \"#utility.yul\":15128:15137   */\n      dup4\n        /* \"#utility.yul\":15124:15141   */\n      add\n        /* \"#utility.yul\":15117:15164   */\n      mstore\n        /* \"#utility.yul\":15181:15312   */\n      tag_394\n        /* \"#utility.yul\":15307:15311   */\n      dup2\n        /* \"#utility.yul\":15181:15312   */\n      tag_315\n      jump\t// in\n    tag_394:\n        /* \"#utility.yul\":15173:15312   */\n      swap1\n      pop\n        /* \"#utility.yul\":14900:15319   */\n      swap2\n      swap1\n      pop\n      jump\t// out\n        /* \"#utility.yul\":15325:15744   */\n    tag_113:\n        /* \"#utility.yul\":15491:15495   */\n      0x00\n        /* \"#utility.yul\":15529:15531   */\n      0x20\n        /* \"#utility.yul\":15518:15527   */\n      dup3\n        /* \"#utility.yul\":15514:15532   */\n      add\n        /* \"#utility.yul\":15506:15532   */\n      swap1\n      pop\n        /* \"#utility.yul\":15578:15587   */\n      dup2\n        /* \"#utility.yul\":15572:15576   */\n      dup2\n        /* \"#utility.yul\":15568:15588   */\n      sub\n        /* \"#utility.yul\":15564:15565   */\n      0x00\n        /* \"#utility.yul\":15553:15562   */\n      dup4\n        /* \"#utility.yul\":15549:15566   */\n      add\n        /* \"#utility.yul\":15542:15589   */\n      mstore\n        /* \"#utility.yul\":15606:15737   */\n      tag_396\n        /* \"#utility.yul\":15732:15736   */\n      dup2\n        /* \"#utility.yul\":15606:15737   */\n      tag_320\n      jump\t// in\n    tag_396:\n        /* \"#utility.yul\":15598:15737   */\n      swap1\n      pop\n        /* \"#utility.yul\":15325:15744   */\n      swap2\n      swap1\n      pop\n      jump\t// out\n        /* \"#utility.yul\":15750:16169   */\n    tag_98:\n        /* \"#utility.yul\":15916:15920   */\n      0x00\n        /* \"#utility.yul\":15954:15956   */\n      0x20\n        /* \"#utility.yul\":15943:15952   */\n      dup3\n        /* \"#utility.yul\":15939:15957   */\n      add\n        /* \"#utility.yul\":15931:15957   */\n      swap1\n      pop\n        /* \"#utility.yul\":16003:16012   */\n      dup2\n        /* \"#utility.yul\":15997:16001   */\n      dup2\n        /* \"#utility.yul\":15993:16013   */\n      sub\n        /* \"#utility.yul\":15989:15990   */\n      0x00\n        /* \"#utility.yul\":15978:15987   */\n      dup4\n        /* \"#utility.yul\":15974:15991   */\n      add\n        /* \"#utility.yul\":15967:16014   */\n      mstore\n        /* \"#utility.yul\":16031:16162   */\n      tag_398\n        /* \"#utility.yul\":16157:16161   */\n      dup2\n        /* \"#utility.yul\":16031:16162   */\n      tag_325\n      jump\t// in\n    tag_398:\n        /* \"#utility.yul\":16023:16162   */\n      swap1\n      pop\n        /* \"#utility.yul\":15750:16169   */\n      swap2\n      swap1\n      pop\n      jump\t// out\n        /* \"#utility.yul\":16175:16594   */\n    tag_89:\n        /* \"#utility.yul\":16341:16345   */\n      0x00\n        /* \"#utility.yul\":16379:16381   */\n      0x20\n        /* \"#utility.yul\":16368:16377   */\n      dup3\n        /* \"#utility.yul\":16364:16382   */\n      add\n        /* \"#utility.yul\":16356:16382   */\n      swap1\n      pop\n        /* \"#utility.yul\":16428:16437   */\n      dup2\n        /* \"#utility.yul\":16422:16426   */\n      dup2\n        /* \"#utility.yul\":16418:16438   */\n      sub\n        /* \"#utility.yul\":16414:16415   */\n      0x00\n        /* \"#utility.yul\":16403:16412   */\n      dup4\n        /* \"#utility.yul\":16399:16416   */\n      add\n        /* \"#utility.yul\":16392:16439   */\n      mstore\n        /* \"#utility.yul\":16456:16587   */\n      tag_400\n        /* \"#utility.yul\":16582:16586   */\n      dup2\n        /* \"#utility.yul\":16456:16587   */\n      tag_330\n      jump\t// in\n    tag_400:\n        /* \"#utility.yul\":16448:16587   */\n      swap1\n      pop\n        /* \"#utility.yul\":16175:16594   */\n      swap2\n      swap1\n      pop\n      jump\t// out\n        /* \"#utility.yul\":16600:17019   */\n    tag_151:\n        /* \"#utility.yul\":16766:16770   */\n      0x00\n        /* \"#utility.yul\":16804:16806   */\n      0x20\n        /* \"#utility.yul\":16793:16802   */\n      dup3\n        /* \"#utility.yul\":16789:16807   */\n      add\n        /* \"#utility.yul\":16781:16807   */\n      swap1\n      pop\n        /* \"#utility.yul\":16853:16862   */\n      dup2\n        /* \"#utility.yul\":16847:16851   */\n      dup2\n        /* \"#utility.yul\":16843:16863   */\n      sub\n        /* \"#utility.yul\":16839:16840   */\n      0x00\n        /* \"#utility.yul\":16828:16837   */\n      dup4\n        /* \"#utility.yul\":16824:16841   */\n      add\n        /* \"#utility.yul\":16817:16864   */\n      mstore\n        /* \"#utility.yul\":16881:17012   */\n      tag_402\n        /* \"#utility.yul\":17007:17011   */\n      dup2\n        /* \"#utility.yul\":16881:17012   */\n      tag_335\n      jump\t// in\n    tag_402:\n        /* \"#utility.yul\":16873:17012   */\n      swap1\n      pop\n        /* \"#utility.yul\":16600:17019   */\n      swap2\n      swap1\n      pop\n      jump\t// out\n        /* \"#utility.yul\":17025:17444   */\n    tag_110:\n        /* \"#utility.yul\":17191:17195   */\n      0x00\n        /* \"#utility.yul\":17229:17231   */\n      0x20\n        /* \"#utility.yul\":17218:17227   */\n      dup3\n        /* \"#utility.yul\":17214:17232   */\n      add\n        /* \"#utility.yul\":17206:17232   */\n      swap1\n      pop\n        /* \"#utility.yul\":17278:17287   */\n      dup2\n        /* \"#utility.yul\":17272:17276   */\n      dup2\n        /* \"#utility.yul\":17268:17288   */\n      sub\n        /* \"#utility.yul\":17264:17265   */\n      0x00\n        /* \"#utility.yul\":17253:17262   */\n      dup4\n        /* \"#utility.yul\":17249:17266   */\n      add\n        /* \"#utility.yul\":17242:17289   */\n      mstore\n        /* \"#utility.yul\":17306:17437   */\n      tag_404\n        /* \"#utility.yul\":17432:17436   */\n      dup2\n        /* \"#utility.yul\":17306:17437   */\n      tag_340\n      jump\t// in\n    tag_404:\n        /* \"#utility.yul\":17298:17437   */\n      swap1\n      pop\n        /* \"#utility.yul\":17025:17444   */\n      swap2\n      swap1\n      pop\n      jump\t// out\n        /* \"#utility.yul\":17450:17869   */\n    tag_175:\n        /* \"#utility.yul\":17616:17620   */\n      0x00\n        /* \"#utility.yul\":17654:17656   */\n      0x20\n        /* \"#utility.yul\":17643:17652   */\n      dup3\n        /* \"#utility.yul\":17639:17657   */\n      add\n        /* \"#utility.yul\":17631:17657   */\n      swap1\n      pop\n        /* \"#utility.yul\":17703:17712   */\n      dup2\n        /* \"#utility.yul\":17697:17701   */\n      dup2\n        /* \"#utility.yul\":17693:17713   */\n      sub\n        /* \"#utility.yul\":17689:17690   */\n      0x00\n        /* \"#utility.yul\":17678:17687   */\n      dup4\n        /* \"#utility.yul\":17674:17691   */\n      add\n        /* \"#utility.yul\":17667:17714   */\n      mstore\n        /* \"#utility.yul\":17731:17862   */\n      tag_406\n        /* \"#utility.yul\":17857:17861   */\n      dup2\n        /* \"#utility.yul\":17731:17862   */\n      tag_345\n      jump\t// in\n    tag_406:\n        /* \"#utility.yul\":17723:17862   */\n      swap1\n      pop\n        /* \"#utility.yul\":17450:17869   */\n      swap2\n      swap1\n      pop\n      jump\t// out\n        /* \"#utility.yul\":17875:18097   */\n    tag_51:\n        /* \"#utility.yul\":17968:17972   */\n      0x00\n        /* \"#utility.yul\":18006:18008   */\n      0x20\n        /* \"#utility.yul\":17995:18004   */\n      dup3\n        /* \"#utility.yul\":17991:18009   */\n      add\n        /* \"#utility.yul\":17983:18009   */\n      swap1\n      pop\n        /* \"#utility.yul\":18019:18090   */\n      tag_408\n        /* \"#utility.yul\":18087:18088   */\n      0x00\n        /* \"#utility.yul\":18076:18085   */\n      dup4\n        /* \"#utility.yul\":18072:18089   */\n      add\n        /* \"#utility.yul\":18063:18069   */\n      dup5\n        /* \"#utility.yul\":18019:18090   */\n      tag_366\n      jump\t// in\n    tag_408:\n        /* \"#utility.yul\":17875:18097   */\n      swap3\n      swap2\n      pop\n      pop\n      jump\t// out\n        /* \"#utility.yul\":18103:19151   */\n    tag_55:\n        /* \"#utility.yul\":18396:18400   */\n      0x00\n        /* \"#utility.yul\":18434:18437   */\n      0xc0\n        /* \"#utility.yul\":18423:18432   */\n      dup3\n        /* \"#utility.yul\":18419:18438   */\n      add\n        /* \"#utility.yul\":18411:18438   */\n      swap1\n      pop\n        /* \"#utility.yul\":18448:18519   */\n      tag_410\n        /* \"#utility.yul\":18516:18517   */\n      0x00\n        /* \"#utility.yul\":18505:18514   */\n      dup4\n        /* \"#utility.yul\":18501:18518   */\n      add\n        /* \"#utility.yul\":18492:18498   */\n      dup10\n        /* \"#utility.yul\":18448:18519   */\n      tag_366\n      jump\t// in\n    tag_410:\n        /* \"#utility.yul\":18566:18575   */\n      dup2\n        /* \"#utility.yul\":18560:18564   */\n      dup2\n        /* \"#utility.yul\":18556:18576   */\n      sub\n        /* \"#utility.yul\":18551:18553   */\n      0x20\n        /* \"#utility.yul\":18540:18549   */\n      dup4\n        /* \"#utility.yul\":18536:18554   */\n      add\n        /* \"#utility.yul\":18529:18577   */\n      mstore\n        /* \"#utility.yul\":18594:18672   */\n      tag_411\n        /* \"#utility.yul\":18667:18671   */\n      dup2\n        /* \"#utility.yul\":18658:18664   */\n      dup9\n        /* \"#utility.yul\":18594:18672   */\n      tag_293\n      jump\t// in\n    tag_411:\n        /* \"#utility.yul\":18586:18672   */\n      swap1\n      pop\n        /* \"#utility.yul\":18719:18728   */\n      dup2\n        /* \"#utility.yul\":18713:18717   */\n      dup2\n        /* \"#utility.yul\":18709:18729   */\n      sub\n        /* \"#utility.yul\":18704:18706   */\n      0x40\n        /* \"#utility.yul\":18693:18702   */\n      dup4\n        /* \"#utility.yul\":18689:18707   */\n      add\n        /* \"#utility.yul\":18682:18730   */\n      mstore\n        /* \"#utility.yul\":18747:18825   */\n      tag_412\n        /* \"#utility.yul\":18820:18824   */\n      dup2\n        /* \"#utility.yul\":18811:18817   */\n      dup8\n        /* \"#utility.yul\":18747:18825   */\n      tag_293\n      jump\t// in\n    tag_412:\n        /* \"#utility.yul\":18739:18825   */\n      swap1\n      pop\n        /* \"#utility.yul\":18872:18881   */\n      dup2\n        /* \"#utility.yul\":18866:18870   */\n      dup2\n        /* \"#utility.yul\":18862:18882   */\n      sub\n        /* \"#utility.yul\":18857:18859   */\n      0x60\n        /* \"#utility.yul\":18846:18855   */\n      dup4\n        /* \"#utility.yul\":18842:18860   */\n      add\n        /* \"#utility.yul\":18835:18883   */\n      mstore\n        /* \"#utility.yul\":18900:18978   */\n      tag_413\n        /* \"#utility.yul\":18973:18977   */\n      dup2\n        /* \"#utility.yul\":18964:18970   */\n      dup7\n        /* \"#utility.yul\":18900:18978   */\n      tag_293\n      jump\t// in\n    tag_413:\n        /* \"#utility.yul\":18892:18978   */\n      swap1\n      pop\n        /* \"#utility.yul\":18988:19061   */\n      tag_414\n        /* \"#utility.yul\":19056:19059   */\n      0x80\n        /* \"#utility.yul\":19045:19054   */\n      dup4\n        /* \"#utility.yul\":19041:19060   */\n      add\n        /* \"#utility.yul\":19032:19038   */\n      dup6\n        /* \"#utility.yul\":18988:19061   */\n      tag_280\n      jump\t// in\n    tag_414:\n        /* \"#utility.yul\":19071:19144   */\n      tag_415\n        /* \"#utility.yul\":19139:19142   */\n      0xa0\n        /* \"#utility.yul\":19128:19137   */\n      dup4\n        /* \"#utility.yul\":19124:19143   */\n      add\n        /* \"#utility.yul\":19115:19121   */\n      dup5\n        /* \"#utility.yul\":19071:19144   */\n      tag_366\n      jump\t// in\n    tag_415:\n        /* \"#utility.yul\":18103:19151   */\n      swap8\n      swap7\n      pop\n      pop\n      pop\n      pop\n      pop\n      pop\n      pop\n      jump\t// out\n        /* \"#utility.yul\":19157:19286   */\n    tag_208:\n        /* \"#utility.yul\":19191:19197   */\n      0x00\n        /* \"#utility.yul\":19218:19238   */\n      tag_417\n      tag_418\n      jump\t// in\n    tag_417:\n        /* \"#utility.yul\":19208:19238   */\n      swap1\n      pop\n        /* \"#utility.yul\":19247:19280   */\n      tag_419\n        /* \"#utility.yul\":19275:19279   */\n      dup3\n        /* \"#utility.yul\":19267:19273   */\n      dup3\n        /* \"#utility.yul\":19247:19280   */\n      tag_420\n      jump\t// in\n    tag_419:\n        /* \"#utility.yul\":19157:19286   */\n      swap2\n      swap1\n      pop\n      jump\t// out\n        /* \"#utility.yul\":19292:19367   */\n    tag_418:\n        /* \"#utility.yul\":19325:19331   */\n      0x00\n        /* \"#utility.yul\":19358:19360   */\n      0x40\n        /* \"#utility.yul\":19352:19361   */\n      mload\n        /* \"#utility.yul\":19342:19361   */\n      swap1\n      pop\n        /* \"#utility.yul\":19292:19367   */\n      swap1\n      jump\t// out\n        /* \"#utility.yul\":19373:19681   */\n    tag_207:\n        /* \"#utility.yul\":19435:19439   */\n      0x00\n        /* \"#utility.yul\":19525:19543   */\n      0xffffffffffffffff\n        /* \"#utility.yul\":19517:19523   */\n      dup3\n        /* \"#utility.yul\":19514:19544   */\n      gt\n        /* \"#utility.yul\":19511:19567   */\n      iszero\n      tag_423\n      jumpi\n        /* \"#utility.yul\":19547:19565   */\n      tag_424\n      tag_425\n      jump\t// in\n    tag_424:\n        /* \"#utility.yul\":19511:19567   */\n    tag_423:\n        /* \"#utility.yul\":19585:19614   */\n      tag_426\n        /* \"#utility.yul\":19607:19613   */\n      dup3\n        /* \"#utility.yul\":19585:19614   */\n      tag_292\n      jump\t// in\n    tag_426:\n        /* \"#utility.yul\":19577:19614   */\n      swap1\n      pop\n        /* \"#utility.yul\":19669:19673   */\n      0x20\n        /* \"#utility.yul\":19663:19667   */\n      dup2\n        /* \"#utility.yul\":19659:19674   */\n      add\n        /* \"#utility.yul\":19651:19674   */\n      swap1\n      pop\n        /* \"#utility.yul\":19373:19681   */\n      swap2\n      swap1\n      pop\n      jump\t// out\n        /* \"#utility.yul\":19687:19839   */\n    tag_262:\n        /* \"#utility.yul\":19774:19778   */\n      0x00\n        /* \"#utility.yul\":19797:19800   */\n      dup2\n        /* \"#utility.yul\":19789:19800   */\n      swap1\n      pop\n        /* \"#utility.yul\":19827:19831   */\n      0x20\n        /* \"#utility.yul\":19822:19825   */\n      dup3\n        /* \"#utility.yul\":19818:19832   */\n      add\n        /* \"#utility.yul\":19810:19832   */\n      swap1\n      pop\n        /* \"#utility.yul\":19687:19839   */\n      swap2\n      swap1\n      pop\n      jump\t// out\n        /* \"#utility.yul\":19845:19979   */\n    tag_258:\n        /* \"#utility.yul\":19932:19938   */\n      0x00\n        /* \"#utility.yul\":19966:19971   */\n      dup2\n        /* \"#utility.yul\":19960:19972   */\n      mload\n        /* \"#utility.yul\":19950:19972   */\n      swap1\n      pop\n        /* \"#utility.yul\":19845:19979   */\n      swap2\n      swap1\n      pop\n      jump\t// out\n        /* \"#utility.yul\":19985:20084   */\n    tag_286:\n        /* \"#utility.yul\":20037:20043   */\n      0x00\n        /* \"#utility.yul\":20071:20076   */\n      dup2\n        /* \"#utility.yul\":20065:20077   */\n      mload\n        /* \"#utility.yul\":20055:20077   */\n      swap1\n      pop\n        /* \"#utility.yul\":19985:20084   */\n      swap2\n      swap1\n      pop\n      jump\t// out\n        /* \"#utility.yul\":20090:20223   */\n    tag_268:\n        /* \"#utility.yul\":20180:20184   */\n      0x00\n        /* \"#utility.yul\":20212:20216   */\n      0x20\n        /* \"#utility.yul\":20207:20210   */\n      dup3\n        /* \"#utility.yul\":20203:20217   */\n      add\n        /* \"#utility.yul\":20195:20217   */\n      swap1\n      pop\n        /* \"#utility.yul\":20090:20223   */\n      swap2\n      swap1\n      pop\n      jump\t// out\n        /* \"#utility.yul\":20229:20433   */\n    tag_260:\n        /* \"#utility.yul\":20348:20359   */\n      0x00\n        /* \"#utility.yul\":20382:20388   */\n      dup3\n        /* \"#utility.yul\":20377:20380   */\n      dup3\n        /* \"#utility.yul\":20370:20389   */\n      mstore\n        /* \"#utility.yul\":20422:20426   */\n      0x20\n        /* \"#utility.yul\":20417:20420   */\n      dup3\n        /* \"#utility.yul\":20413:20427   */\n      add\n        /* \"#utility.yul\":20398:20427   */\n      swap1\n      pop\n        /* \"#utility.yul\":20229:20433   */\n      swap3\n      swap2\n      pop\n      pop\n      jump\t// out\n        /* \"#utility.yul\":20439:20598   */\n    tag_288:\n        /* \"#utility.yul\":20513:20524   */\n      0x00\n        /* \"#utility.yul\":20547:20553   */\n      dup3\n        /* \"#utility.yul\":20542:20545   */\n      dup3\n        /* \"#utility.yul\":20535:20554   */\n      mstore\n        /* \"#utility.yul\":20587:20591   */\n      0x20\n        /* \"#utility.yul\":20582:20585   */\n      dup3\n        /* \"#utility.yul\":20578:20592   */\n      add\n        /* \"#utility.yul\":20563:20592   */\n      swap1\n      pop\n        /* \"#utility.yul\":20439:20598   */\n      swap3\n      swap2\n      pop\n      pop\n      jump\t// out\n        /* \"#utility.yul\":20604:20773   */\n    tag_297:\n        /* \"#utility.yul\":20688:20699   */\n      0x00\n        /* \"#utility.yul\":20722:20728   */\n      dup3\n        /* \"#utility.yul\":20717:20720   */\n      dup3\n        /* \"#utility.yul\":20710:20729   */\n      mstore\n        /* \"#utility.yul\":20762:20766   */\n      0x20\n        /* \"#utility.yul\":20757:20760   */\n      dup3\n        /* \"#utility.yul\":20753:20767   */\n      add\n        /* \"#utility.yul\":20738:20767   */\n      swap1\n      pop\n        /* \"#utility.yul\":20604:20773   */\n      swap3\n      swap2\n      pop\n      pop\n      jump\t// out\n        /* \"#utility.yul\":20779:21084   */\n    tag_119:\n        /* \"#utility.yul\":20819:20822   */\n      0x00\n        /* \"#utility.yul\":20838:20858   */\n      tag_435\n        /* \"#utility.yul\":20856:20857   */\n      dup3\n        /* \"#utility.yul\":20838:20858   */\n      tag_365\n      jump\t// in\n    tag_435:\n        /* \"#utility.yul\":20833:20858   */\n      swap2\n      pop\n        /* \"#utility.yul\":20872:20892   */\n      tag_436\n        /* \"#utility.yul\":20890:20891   */\n      dup4\n        /* \"#utility.yul\":20872:20892   */\n      tag_365\n      jump\t// in\n    tag_436:\n        /* \"#utility.yul\":20867:20892   */\n      swap3\n      pop\n        /* \"#utility.yul\":21026:21027   */\n      dup3\n        /* \"#utility.yul\":20958:21024   */\n      0xffffffffffffffffffffffffffffffffffffffffffffffffffffffffffffffff\n        /* \"#utility.yul\":20954:21028   */\n      sub\n        /* \"#utility.yul\":20951:20952   */\n      dup3\n        /* \"#utility.yul\":20948:21029   */\n      gt\n        /* \"#utility.yul\":20945:21052   */\n      iszero\n      tag_437\n      jumpi\n        /* \"#utility.yul\":21032:21050   */\n      tag_438\n      tag_439\n      jump\t// in\n    tag_438:\n        /* \"#utility.yul\":20945:21052   */\n    tag_437:\n        /* \"#utility.yul\":21076:21077   */\n      dup3\n        /* \"#utility.yul\":21073:21074   */\n      dup3\n        /* \"#utility.yul\":21069:21078   */\n      add\n        /* \"#utility.yul\":21062:21078   */\n      swap1\n      pop\n        /* \"#utility.yul\":20779:21084   */\n      swap3\n      swap2\n      pop\n      pop\n      jump\t// out\n        /* \"#utility.yul\":21090:21275   */\n    tag_181:\n        /* \"#utility.yul\":21130:21131   */\n      0x00\n        /* \"#utility.yul\":21147:21167   */\n      tag_441\n        /* \"#utility.yul\":21165:21166   */\n      dup3\n        /* \"#utility.yul\":21147:21167   */\n      tag_365\n      jump\t// in\n    tag_441:\n        /* \"#utility.yul\":21142:21167   */\n      swap2\n      pop\n        /* \"#utility.yul\":21181:21201   */\n      tag_442\n        /* \"#utility.yul\":21199:21200   */\n      dup4\n        /* \"#utility.yul\":21181:21201   */\n      tag_365\n      jump\t// in\n    tag_442:\n        /* \"#utility.yul\":21176:21201   */\n      swap3\n      pop\n        /* \"#utility.yul\":21220:21221   */\n      dup3\n        /* \"#utility.yul\":21210:21245   */\n      tag_443\n      jumpi\n        /* \"#utility.yul\":21225:21243   */\n      tag_444\n      tag_445\n      jump\t// in\n    tag_444:\n        /* \"#utility.yul\":21210:21245   */\n    tag_443:\n        /* \"#utility.yul\":21267:21268   */\n      dup3\n        /* \"#utility.yul\":21264:21265   */\n      dup3\n        /* \"#utility.yul\":21260:21269   */\n      div\n        /* \"#utility.yul\":21255:21269   */\n      swap1\n      pop\n        /* \"#utility.yul\":21090:21275   */\n      swap3\n      swap2\n      pop\n      pop\n      jump\t// out\n        /* \"#utility.yul\":21281:21629   */\n    tag_183:\n        /* \"#utility.yul\":21321:21328   */\n      0x00\n        /* \"#utility.yul\":21344:21364   */\n      tag_447\n        /* \"#utility.yul\":21362:21363   */\n      dup3\n        /* \"#utility.yul\":21344:21364   */\n      tag_365\n      jump\t// in\n    tag_447:\n        /* \"#utility.yul\":21339:21364   */\n      swap2\n      pop\n        /* \"#utility.yul\":21378:21398   */\n      tag_448\n        /* \"#utility.yul\":21396:21397   */\n      dup4\n        /* \"#utility.yul\":21378:21398   */\n      tag_365\n      jump\t// in\n    tag_448:\n        /* \"#utility.yul\":21373:21398   */\n      swap3\n      pop\n        /* \"#utility.yul\":21566:21567   */\n      dup2\n        /* \"#utility.yul\":21498:21564   */\n      0xffffffffffffffffffffffffffffffffffffffffffffffffffffffffffffffff\n        /* \"#utility.yul\":21494:21568   */\n      div\n        /* \"#utility.yul\":21491:21492   */\n      dup4\n        /* \"#utility.yul\":21488:21569   */\n      gt\n        /* \"#utility.yul\":21483:21484   */\n      dup3\n        /* \"#utility.yul\":21476:21485   */\n      iszero\n        /* \"#utility.yul\":21469:21486   */\n      iszero\n        /* \"#utility.yul\":21465:21570   */\n      and\n        /* \"#utility.yul\":21462:21593   */\n      iszero\n      tag_449\n      jumpi\n        /* \"#utility.yul\":21573:21591   */\n      tag_450\n      tag_439\n      jump\t// in\n    tag_450:\n        /* \"#utility.yul\":21462:21593   */\n    tag_449:\n        /* \"#utility.yul\":21621:21622   */\n      dup3\n        /* \"#utility.yul\":21618:21619   */\n      dup3\n        /* \"#utility.yul\":21614:21623   */\n      mul\n        /* \"#utility.yul\":21603:21623   */\n      swap1\n      pop\n        /* \"#utility.yul\":21281:21629   */\n      swap3\n      swap2\n      pop\n      pop\n      jump\t// out\n        /* \"#utility.yul\":21635:21731   */\n    tag_251:\n        /* \"#utility.yul\":21672:21679   */\n      0x00\n        /* \"#utility.yul\":21701:21725   */\n      tag_452\n        /* \"#utility.yul\":21719:21724   */\n      dup3\n        /* \"#utility.yul\":21701:21725   */\n      tag_453\n      jump\t// in\n    tag_452:\n        /* \"#utility.yul\":21690:21725   */\n      swap1\n      pop\n        /* \"#utility.yul\":21635:21731   */\n      swap2\n      swap1\n      pop\n      jump\t// out\n        /* \"#utility.yul\":21737:21827   */\n    tag_272:\n        /* \"#utility.yul\":21771:21778   */\n      0x00\n        /* \"#utility.yul\":21814:21819   */\n      dup2\n        /* \"#utility.yul\":21807:21820   */\n      iszero\n        /* \"#utility.yul\":21800:21821   */\n      iszero\n        /* \"#utility.yul\":21789:21821   */\n      swap1\n      pop\n        /* \"#utility.yul\":21737:21827   */\n      swap2\n      swap1\n      pop\n      jump\t// out\n        /* \"#utility.yul\":21833:21910   */\n    tag_279:\n        /* \"#utility.yul\":21870:21877   */\n      0x00\n        /* \"#utility.yul\":21899:21904   */\n      dup2\n        /* \"#utility.yul\":21888:21904   */\n      swap1\n      pop\n        /* \"#utility.yul\":21833:21910   */\n      swap2\n      swap1\n      pop\n      jump\t// out\n        /* \"#utility.yul\":21916:22042   */\n    tag_453:\n        /* \"#utility.yul\":21953:21960   */\n      0x00\n        /* \"#utility.yul\":21993:22035   */\n      0xffffffffffffffffffffffffffffffffffffffff\n        /* \"#utility.yul\":21986:21991   */\n      dup3\n        /* \"#utility.yul\":21982:22036   */\n      and\n        /* \"#utility.yul\":21971:22036   */\n      swap1\n      pop\n        /* \"#utility.yul\":21916:22042   */\n      swap2\n      swap1\n      pop\n      jump\t// out\n        /* \"#utility.yul\":22048:22125   */\n    tag_365:\n        /* \"#utility.yul\":22085:22092   */\n      0x00\n        /* \"#utility.yul\":22114:22119   */\n      dup2\n        /* \"#utility.yul\":22103:22119   */\n      swap1\n      pop\n        /* \"#utility.yul\":22048:22125   */\n      swap2\n      swap1\n      pop\n      jump\t// out\n        /* \"#utility.yul\":22131:22217   */\n    tag_458:\n        /* \"#utility.yul\":22166:22173   */\n      0x00\n        /* \"#utility.yul\":22206:22210   */\n      0xff\n        /* \"#utility.yul\":22199:22204   */\n      dup3\n        /* \"#utility.yul\":22195:22211   */\n      and\n        /* \"#utility.yul\":22184:22211   */\n      swap1\n      pop\n        /* \"#utility.yul\":22131:22217   */\n      swap2\n      swap1\n      pop\n      jump\t// out\n        /* \"#utility.yul\":22223:22377   */\n    tag_213:\n        /* \"#utility.yul\":22307:22313   */\n      dup3\n        /* \"#utility.yul\":22302:22305   */\n      dup2\n        /* \"#utility.yul\":22297:22300   */\n      dup4\n        /* \"#utility.yul\":22284:22314   */\n      calldatacopy\n        /* \"#utility.yul\":22369:22370   */\n      0x00\n        /* \"#utility.yul\":22360:22366   */\n      dup4\n        /* \"#utility.yul\":22355:22358   */\n      dup4\n        /* \"#utility.yul\":22351:22367   */\n      add\n        /* \"#utility.yul\":22344:22371   */\n      mstore\n        /* \"#utility.yul\":22223:22377   */\n      pop\n      pop\n      pop\n      jump\t// out\n        /* \"#utility.yul\":22383:22690   */\n    tag_290:\n        /* \"#utility.yul\":22451:22452   */\n      0x00\n        /* \"#utility.yul\":22461:22574   */\n    tag_462:\n        /* \"#utility.yul\":22475:22481   */\n      dup4\n        /* \"#utility.yul\":22472:22473   */\n      dup2\n        /* \"#utility.yul\":22469:22482   */\n      lt\n        /* \"#utility.yul\":22461:22574   */\n      iszero\n      tag_464\n      jumpi\n        /* \"#utility.yul\":22560:22561   */\n      dup1\n        /* \"#utility.yul\":22555:22558   */\n      dup3\n        /* \"#utility.yul\":22551:22562   */\n      add\n        /* \"#utility.yul\":22545:22563   */\n      mload\n        /* \"#utility.yul\":22541:22542   */\n      dup2\n        /* \"#utility.yul\":22536:22539   */\n      dup5\n        /* \"#utility.yul\":22532:22543   */\n      add\n        /* \"#utility.yul\":22525:22564   */\n      mstore\n        /* \"#utility.yul\":22497:22499   */\n      0x20\n        /* \"#utility.yul\":22494:22495   */\n      dup2\n        /* \"#utility.yul\":22490:22500   */\n      add\n        /* \"#utility.yul\":22485:22500   */\n      swap1\n      pop\n        /* \"#utility.yul\":22461:22574   */\n      jump(tag_462)\n    tag_464:\n        /* \"#utility.yul\":22592:22598   */\n      dup4\n        /* \"#utility.yul\":22589:22590   */\n      dup2\n        /* \"#utility.yul\":22586:22599   */\n      gt\n        /* \"#utility.yul\":22583:22684   */\n      iszero\n      tag_465\n      jumpi\n        /* \"#utility.yul\":22672:22673   */\n      0x00\n        /* \"#utility.yul\":22663:22669   */\n      dup5\n        /* \"#utility.yul\":22658:22661   */\n      dup5\n        /* \"#utility.yul\":22654:22670   */\n      add\n        /* \"#utility.yul\":22647:22674   */\n      mstore\n        /* \"#utility.yul\":22583:22684   */\n    tag_465:\n        /* \"#utility.yul\":22432:22690   */\n      pop\n        /* \"#utility.yul\":22383:22690   */\n      pop\n      pop\n      pop\n      jump\t// out\n        /* \"#utility.yul\":22696:23016   */\n    tag_102:\n        /* \"#utility.yul\":22740:22746   */\n      0x00\n        /* \"#utility.yul\":22777:22778   */\n      0x02\n        /* \"#utility.yul\":22771:22775   */\n      dup3\n        /* \"#utility.yul\":22767:22779   */\n      div\n        /* \"#utility.yul\":22757:22779   */\n      swap1\n      pop\n        /* \"#utility.yul\":22824:22825   */\n      0x01\n        /* \"#utility.yul\":22818:22822   */\n      dup3\n        /* \"#utility.yul\":22814:22826   */\n      and\n        /* \"#utility.yul\":22845:22863   */\n      dup1\n        /* \"#utility.yul\":22835:22916   */\n      tag_467\n      jumpi\n        /* \"#utility.yul\":22901:22905   */\n      0x7f\n        /* \"#utility.yul\":22893:22899   */\n      dup3\n        /* \"#utility.yul\":22889:22906   */\n      and\n        /* \"#utility.yul\":22879:22906   */\n      swap2\n      pop\n        /* \"#utility.yul\":22835:22916   */\n    tag_467:\n        /* \"#utility.yul\":22963:22965   */\n      0x20\n        /* \"#utility.yul\":22955:22961   */\n      dup3\n        /* \"#utility.yul\":22952:22966   */\n      lt\n        /* \"#utility.yul\":22932:22950   */\n      dup2\n        /* \"#utility.yul\":22929:22967   */\n      eq\n        /* \"#utility.yul\":22926:23010   */\n      iszero\n      tag_468\n      jumpi\n        /* \"#utility.yul\":22982:23000   */\n      tag_469\n      tag_470\n      jump\t// in\n    tag_469:\n        /* \"#utility.yul\":22926:23010   */\n    tag_468:\n        /* \"#utility.yul\":22747:23016   */\n      pop\n        /* \"#utility.yul\":22696:23016   */\n      swap2\n      swap1\n      pop\n      jump\t// out\n        /* \"#utility.yul\":23022:23303   */\n    tag_420:\n        /* \"#utility.yul\":23105:23132   */\n      tag_472\n        /* \"#utility.yul\":23127:23131   */\n      dup3\n        /* \"#utility.yul\":23105:23132   */\n      tag_292\n      jump\t// in\n    tag_472:\n        /* \"#utility.yul\":23097:23103   */\n      dup2\n        /* \"#utility.yul\":23093:23133   */\n      add\n        /* \"#utility.yul\":23235:23241   */\n      dup2\n        /* \"#utility.yul\":23223:23233   */\n      dup2\n        /* \"#utility.yul\":23220:23242   */\n      lt\n        /* \"#utility.yul\":23199:23217   */\n      0xffffffffffffffff\n        /* \"#utility.yul\":23187:23197   */\n      dup3\n        /* \"#utility.yul\":23184:23218   */\n      gt\n        /* \"#utility.yul\":23181:23243   */\n      or\n        /* \"#utility.yul\":23178:23266   */\n      iszero\n      tag_473\n      jumpi\n        /* \"#utility.yul\":23246:23264   */\n      tag_474\n      tag_425\n      jump\t// in\n    tag_474:\n        /* \"#utility.yul\":23178:23266   */\n    tag_473:\n        /* \"#utility.yul\":23286:23296   */\n      dup1\n        /* \"#utility.yul\":23282:23284   */\n      0x40\n        /* \"#utility.yul\":23275:23297   */\n      mstore\n        /* \"#utility.yul\":23065:23303   */\n      pop\n        /* \"#utility.yul\":23022:23303   */\n      pop\n      pop\n      jump\t// out\n        /* \"#utility.yul\":23309:23476   */\n    tag_198:\n        /* \"#utility.yul\":23346:23349   */\n      0x00\n        /* \"#utility.yul\":23369:23391   */\n      tag_476\n        /* \"#utility.yul\":23385:23390   */\n      dup3\n        /* \"#utility.yul\":23369:23391   */\n      tag_458\n      jump\t// in\n    tag_476:\n        /* \"#utility.yul\":23360:23391   */\n      swap2\n      pop\n        /* \"#utility.yul\":23413:23417   */\n      0xff\n        /* \"#utility.yul\":23406:23411   */\n      dup3\n        /* \"#utility.yul\":23403:23418   */\n      eq\n        /* \"#utility.yul\":23400:23441   */\n      iszero\n      tag_477\n      jumpi\n        /* \"#utility.yul\":23421:23439   */\n      tag_478\n      tag_439\n      jump\t// in\n    tag_478:\n        /* \"#utility.yul\":23400:23441   */\n    tag_477:\n        /* \"#utility.yul\":23468:23469   */\n      0x01\n        /* \"#utility.yul\":23461:23466   */\n      dup3\n        /* \"#utility.yul\":23457:23470   */\n      add\n        /* \"#utility.yul\":23450:23470   */\n      swap1\n      pop\n        /* \"#utility.yul\":23309:23476   */\n      swap2\n      swap1\n      pop\n      jump\t// out\n        /* \"#utility.yul\":23482:23662   */\n    tag_439:\n        /* \"#utility.yul\":23530:23607   */\n      0x4e487b7100000000000000000000000000000000000000000000000000000000\n        /* \"#utility.yul\":23527:23528   */\n      0x00\n        /* \"#utility.yul\":23520:23608   */\n      mstore\n        /* \"#utility.yul\":23627:23631   */\n      0x11\n        /* \"#utility.yul\":23624:23625   */\n      0x04\n        /* \"#utility.yul\":23617:23632   */\n      mstore\n        /* \"#utility.yul\":23651:23655   */\n      0x24\n        /* \"#utility.yul\":23648:23649   */\n      0x00\n        /* \"#utility.yul\":23641:23656   */\n      revert\n        /* \"#utility.yul\":23668:23848   */\n    tag_445:\n        /* \"#utility.yul\":23716:23793   */\n      0x4e487b7100000000000000000000000000000000000000000000000000000000\n        /* \"#utility.yul\":23713:23714   */\n      0x00\n        /* \"#utility.yul\":23706:23794   */\n      mstore\n        /* \"#utility.yul\":23813:23817   */\n      0x12\n        /* \"#utility.yul\":23810:23811   */\n      0x04\n        /* \"#utility.yul\":23803:23818   */\n      mstore\n        /* \"#utility.yul\":23837:23841   */\n      0x24\n        /* \"#utility.yul\":23834:23835   */\n      0x00\n        /* \"#utility.yul\":23827:23842   */\n      revert\n        /* \"#utility.yul\":23854:24034   */\n    tag_470:\n        /* \"#utility.yul\":23902:23979   */\n      0x4e487b7100000000000000000000000000000000000000000000000000000000\n        /* \"#utility.yul\":23899:23900   */\n      0x00\n        /* \"#utility.yul\":23892:23980   */\n      mstore\n        /* \"#utility.yul\":23999:24003   */\n      0x22\n        /* \"#utility.yul\":23996:23997   */\n      0x04\n        /* \"#utility.yul\":23989:24004   */\n      mstore\n        /* \"#utility.yul\":24023:24027   */\n      0x24\n        /* \"#utility.yul\":24020:24021   */\n      0x00\n        /* \"#utility.yul\":24013:24028   */\n      revert\n        /* \"#utility.yul\":24040:24220   */\n    tag_190:\n        /* \"#utility.yul\":24088:24165   */\n      0x4e487b7100000000000000000000000000000000000000000000000000000000\n        /* \"#utility.yul\":24085:24086   */\n      0x00\n        /* \"#utility.yul\":24078:24166   */\n      mstore\n        /* \"#utility.yul\":24185:24189   */\n      0x32\n        /* \"#utility.yul\":24182:24183   */\n      0x04\n        /* \"#utility.yul\":24175:24190   */\n      mstore\n        /* \"#utility.yul\":24209:24213   */\n      0x24\n        /* \"#utility.yul\":24206:24207   */\n      0x00\n        /* \"#utility.yul\":24199:24214   */\n      revert\n        /* \"#utility.yul\":24226:24406   */\n    tag_425:\n        /* \"#utility.yul\":24274:24351   */\n      0x4e487b7100000000000000000000000000000000000000000000000000000000\n        /* \"#utility.yul\":24271:24272   */\n      0x00\n        /* \"#utility.yul\":24264:24352   */\n      mstore\n        /* \"#utility.yul\":24371:24375   */\n      0x41\n        /* \"#utility.yul\":24368:24369   */\n      0x04\n        /* \"#utility.yul\":24361:24376   */\n      mstore\n        /* \"#utility.yul\":24395:24399   */\n      0x24\n        /* \"#utility.yul\":24392:24393   */\n      0x00\n        /* \"#utility.yul\":24385:24400   */\n      revert\n        /* \"#utility.yul\":24412:24529   */\n    tag_222:\n        /* \"#utility.yul\":24521:24522   */\n      0x00\n        /* \"#utility.yul\":24518:24519   */\n      dup1\n        /* \"#utility.yul\":24511:24523   */\n      revert\n        /* \"#utility.yul\":24535:24652   */\n    tag_211:\n        /* \"#utility.yul\":24644:24645   */\n      0x00\n        /* \"#utility.yul\":24641:24642   */\n      dup1\n        /* \"#utility.yul\":24634:24646   */\n      revert\n        /* \"#utility.yul\":24658:24775   */\n    tag_238:\n        /* \"#utility.yul\":24767:24768   */\n      0x00\n        /* \"#utility.yul\":24764:24765   */\n      dup1\n        /* \"#utility.yul\":24757:24769   */\n      revert\n        /* \"#utility.yul\":24781:24898   */\n    tag_231:\n        /* \"#utility.yul\":24890:24891   */\n      0x00\n        /* \"#utility.yul\":24887:24888   */\n      dup1\n        /* \"#utility.yul\":24880:24892   */\n      revert\n        /* \"#utility.yul\":24904:25006   */\n    tag_292:\n        /* \"#utility.yul\":24945:24951   */\n      0x00\n        /* \"#utility.yul\":24996:24998   */\n      0x1f\n        /* \"#utility.yul\":24992:24999   */\n      not\n        /* \"#utility.yul\":24987:24989   */\n      0x1f\n        /* \"#utility.yul\":24980:24985   */\n      dup4\n        /* \"#utility.yul\":24976:24990   */\n      add\n        /* \"#utility.yul\":24972:25000   */\n      and\n        /* \"#utility.yul\":24962:25000   */\n      swap1\n      pop\n        /* \"#utility.yul\":24904:25006   */\n      swap2\n      swap1\n      pop\n      jump\t// out\n        /* \"#utility.yul\":25012:25193   */\n    tag_304:\n        /* \"#utility.yul\":25152:25185   */\n      0x526563697069656e7420697320616c7265616479207265676973746572656400\n        /* \"#utility.yul\":25148:25149   */\n      0x00\n        /* \"#utility.yul\":25140:25146   */\n      dup3\n        /* \"#utility.yul\":25136:25150   */\n      add\n        /* \"#utility.yul\":25129:25186   */\n      mstore\n        /* \"#utility.yul\":25012:25193   */\n      pop\n      jump\t// out\n        /* \"#utility.yul\":25199:25424   */\n    tag_309:\n        /* \"#utility.yul\":25339:25373   */\n      0x596f75206172656e277420617574686f72697a6520746f20636f6d70696c6520\n        /* \"#utility.yul\":25335:25336   */\n      0x00\n        /* \"#utility.yul\":25327:25333   */\n      dup3\n        /* \"#utility.yul\":25323:25337   */\n      add\n        /* \"#utility.yul\":25316:25374   */\n      mstore\n        /* \"#utility.yul\":25408:25416   */\n      0x42756e646c650000000000000000000000000000000000000000000000000000\n        /* \"#utility.yul\":25403:25405   */\n      0x20\n        /* \"#utility.yul\":25395:25401   */\n      dup3\n        /* \"#utility.yul\":25391:25406   */\n      add\n        /* \"#utility.yul\":25384:25417   */\n      mstore\n        /* \"#utility.yul\":25199:25424   */\n      pop\n      jump\t// out\n        /* \"#utility.yul\":25430:25608   */\n    tag_314:\n        /* \"#utility.yul\":25570:25600   */\n      0x596f7520616c72656164792073656e74206120726573706f6e73652e00000000\n        /* \"#utility.yul\":25566:25567   */\n      0x00\n        /* \"#utility.yul\":25558:25564   */\n      dup3\n        /* \"#utility.yul\":25554:25568   */\n      add\n        /* \"#utility.yul\":25547:25601   */\n      mstore\n        /* \"#utility.yul\":25430:25608   */\n      pop\n      jump\t// out\n        /* \"#utility.yul\":25614:25785   */\n    tag_319:\n        /* \"#utility.yul\":25754:25777   */\n      0x496e69746961746f722063616e277420766f7465210000000000000000000000\n        /* \"#utility.yul\":25750:25751   */\n      0x00\n        /* \"#utility.yul\":25742:25748   */\n      dup3\n        /* \"#utility.yul\":25738:25752   */\n      add\n        /* \"#utility.yul\":25731:25778   */\n      mstore\n        /* \"#utility.yul\":25614:25785   */\n      pop\n      jump\t// out\n        /* \"#utility.yul\":25791:25971   */\n    tag_324:\n        /* \"#utility.yul\":25931:25963   */\n      0x596f7520617265206e6f74207265676973746572656420746f20766f74650000\n        /* \"#utility.yul\":25927:25928   */\n      0x00\n        /* \"#utility.yul\":25919:25925   */\n      dup3\n        /* \"#utility.yul\":25915:25929   */\n      add\n        /* \"#utility.yul\":25908:25964   */\n      mstore\n        /* \"#utility.yul\":25791:25971   */\n      pop\n      jump\t// out\n        /* \"#utility.yul\":25977:26200   */\n    tag_329:\n        /* \"#utility.yul\":26117:26151   */\n      0x50726f706f73616c206861732072656163686564206974732065787069727920\n        /* \"#utility.yul\":26113:26114   */\n      0x00\n        /* \"#utility.yul\":26105:26111   */\n      dup3\n        /* \"#utility.yul\":26101:26115   */\n      add\n        /* \"#utility.yul\":26094:26152   */\n      mstore\n        /* \"#utility.yul\":26186:26192   */\n      0x6461746500000000000000000000000000000000000000000000000000000000\n        /* \"#utility.yul\":26181:26183   */\n      0x20\n        /* \"#utility.yul\":26173:26179   */\n      dup3\n        /* \"#utility.yul\":26169:26184   */\n      add\n        /* \"#utility.yul\":26162:26193   */\n      mstore\n        /* \"#utility.yul\":25977:26200   */\n      pop\n      jump\t// out\n        /* \"#utility.yul\":26206:26433   */\n    tag_334:\n        /* \"#utility.yul\":26346:26380   */\n      0x4f6e6c7920696e69746961746f722063616e2072656769737465722061207265\n        /* \"#utility.yul\":26342:26343   */\n      0x00\n        /* \"#utility.yul\":26334:26340   */\n      dup3\n        /* \"#utility.yul\":26330:26344   */\n      add\n        /* \"#utility.yul\":26323:26381   */\n      mstore\n        /* \"#utility.yul\":26415:26425   */\n      0x63697069656e742e000000000000000000000000000000000000000000000000\n        /* \"#utility.yul\":26410:26412   */\n      0x20\n        /* \"#utility.yul\":26402:26408   */\n      dup3\n        /* \"#utility.yul\":26398:26413   */\n      add\n        /* \"#utility.yul\":26391:26426   */\n      mstore\n        /* \"#utility.yul\":26206:26433   */\n      pop\n      jump\t// out\n        /* \"#utility.yul\":26439:26621   */\n    tag_339:\n        /* \"#utility.yul\":26579:26613   */\n      0x5665726469637420686173206e6f74206265656e207265616368656420796574\n        /* \"#utility.yul\":26575:26576   */\n      0x00\n        /* \"#utility.yul\":26567:26573   */\n      dup3\n        /* \"#utility.yul\":26563:26577   */\n      add\n        /* \"#utility.yul\":26556:26614   */\n      mstore\n        /* \"#utility.yul\":26439:26621   */\n      pop\n      jump\t// out\n        /* \"#utility.yul\":26627:26795   */\n    tag_344:\n        /* \"#utility.yul\":26767:26787   */\n      0x566f74696e672068617320657870697265640000000000000000000000000000\n        /* \"#utility.yul\":26763:26764   */\n      0x00\n        /* \"#utility.yul\":26755:26761   */\n      dup3\n        /* \"#utility.yul\":26751:26765   */\n      add\n        /* \"#utility.yul\":26744:26788   */\n      mstore\n        /* \"#utility.yul\":26627:26795   */\n      pop\n      jump\t// out\n        /* \"#utility.yul\":26801:27025   */\n    tag_349:\n        /* \"#utility.yul\":26941:26975   */\n      0x436f6e73656e7375732068617320616c7265616479206265656e2063616c6375\n        /* \"#utility.yul\":26937:26938   */\n      0x00\n        /* \"#utility.yul\":26929:26935   */\n      dup3\n        /* \"#utility.yul\":26925:26939   */\n      add\n        /* \"#utility.yul\":26918:26976   */\n      mstore\n        /* \"#utility.yul\":27010:27017   */\n      0x6c61746564000000000000000000000000000000000000000000000000000000\n        /* \"#utility.yul\":27005:27007   */\n      0x20\n        /* \"#utility.yul\":26997:27003   */\n      dup3\n        /* \"#utility.yul\":26993:27008   */\n      add\n        /* \"#utility.yul\":26986:27018   */\n      mstore\n        /* \"#utility.yul\":26801:27025   */\n      pop\n      jump\t// out\n        /* \"#utility.yul\":27031:27153   */\n    tag_217:\n        /* \"#utility.yul\":27104:27128   */\n      tag_500\n        /* \"#utility.yul\":27122:27127   */\n      dup2\n        /* \"#utility.yul\":27104:27128   */\n      tag_251\n      jump\t// in\n    tag_500:\n        /* \"#utility.yul\":27097:27102   */\n      dup2\n        /* \"#utility.yul\":27094:27129   */\n      eq\n        /* \"#utility.yul\":27084:27147   */\n      tag_501\n      jumpi\n        /* \"#utility.yul\":27143:27144   */\n      0x00\n        /* \"#utility.yul\":27140:27141   */\n      dup1\n        /* \"#utility.yul\":27133:27145   */\n      revert\n        /* \"#utility.yul\":27084:27147   */\n    tag_501:\n        /* \"#utility.yul\":27031:27153   */\n      pop\n      jump\t// out\n        /* \"#utility.yul\":27159:27281   */\n    tag_227:\n        /* \"#utility.yul\":27232:27256   */\n      tag_503\n        /* \"#utility.yul\":27250:27255   */\n      dup2\n        /* \"#utility.yul\":27232:27256   */\n      tag_365\n      jump\t// in\n    tag_503:\n        /* \"#utility.yul\":27225:27230   */\n      dup2\n        /* \"#utility.yul\":27222:27257   */\n      eq\n        /* \"#utility.yul\":27212:27275   */\n      tag_504\n      jumpi\n        /* \"#utility.yul\":27271:27272   */\n      0x00\n        /* \"#utility.yul\":27268:27269   */\n      dup1\n        /* \"#utility.yul\":27261:27273   */\n      revert\n        /* \"#utility.yul\":27212:27275   */\n    tag_504:\n        /* \"#utility.yul\":27159:27281   */\n      pop\n      jump\t// out\n\n    auxdata: 0xa2646970667358221220606fa42d1c2a022df7a4ebebbcf3e8c0e6870e9806807044de5c7b7fd177107064736f6c63430008070033\n}\n",
				"bytecode": {
					"linkReferences": {},
					"object": "60806040523480156200001157600080fd5b5060405162002fee38038062002fee833981810160405281019062000037919062000333565b33600160006101000a81548173ffffffffffffffffffffffffffffffffffffffff021916908373ffffffffffffffffffffffffffffffffffffffff16021790555084426200008691906200048b565b6003819055508360048190555060006005819055506000600660006101000a81548160ff0219169083151502179055507f52656a6563746564000000000000000000000000000000000000000000000000600781905550306000806101000a81548173ffffffffffffffffffffffffffffffffffffffff021916908373ffffffffffffffffffffffffffffffffffffffff1602179055506040518060c001604052806000815260200187815260200182815260200183815260200184815260200186815250600a60008201518160000155602082015181600101908051906020019062000175929190620001d7565b50604082015181600201908051906020019062000194929190620001d7565b506060820151816003019080519060200190620001b3929190620001d7565b506080820151816004015560a0820151816005015590505050505050505062000684565b828054620001e59062000532565b90600052602060002090601f01602090048101928262000209576000855562000255565b82601f106200022457805160ff191683800117855562000255565b8280016001018555821562000255579182015b828111156200025457825182559160200191906001019062000237565b5b50905062000264919062000268565b5090565b5b808211156200028357600081600090555060010162000269565b5090565b60006200029e620002988462000455565b6200042c565b905082815260208101848484011115620002bd57620002bc62000630565b5b620002ca848285620004fc565b509392505050565b600081519050620002e38162000650565b92915050565b600082601f8301126200030157620003006200062b565b5b81516200031384826020860162000287565b91505092915050565b6000815190506200032d816200066a565b92915050565b60008060008060008060c087890312156200035357620003526200063a565b5b600087015167ffffffffffffffff81111562000374576200037362000635565b5b6200038289828a01620002e9565b96505060206200039589828a016200031c565b9550506040620003a889828a016200031c565b9450506060620003bb89828a01620002d2565b935050608087015167ffffffffffffffff811115620003df57620003de62000635565b5b620003ed89828a01620002e9565b92505060a087015167ffffffffffffffff81111562000411576200041062000635565b5b6200041f89828a01620002e9565b9150509295509295509295565b6000620004386200044b565b905062000446828262000568565b919050565b6000604051905090565b600067ffffffffffffffff821115620004735762000472620005fc565b5b6200047e826200063f565b9050602081019050919050565b60006200049882620004f2565b9150620004a583620004f2565b9250827fffffffffffffffffffffffffffffffffffffffffffffffffffffffffffffffff03821115620004dd57620004dc6200059e565b5b828201905092915050565b6000819050919050565b6000819050919050565b60005b838110156200051c578082015181840152602081019050620004ff565b838111156200052c576000848401525b50505050565b600060028204905060018216806200054b57607f821691505b60208210811415620005625762000561620005cd565b5b50919050565b62000573826200063f565b810181811067ffffffffffffffff82111715620005955762000594620005fc565b5b80604052505050565b7f4e487b7100000000000000000000000000000000000000000000000000000000600052601160045260246000fd5b7f4e487b7100000000000000000000000000000000000000000000000000000000600052602260045260246000fd5b7f4e487b7100000000000000000000000000000000000000000000000000000000600052604160045260246000fd5b600080fd5b600080fd5b600080fd5b600080fd5b6000601f19601f8301169050919050565b6200065b81620004e8565b81146200066757600080fd5b50565b6200067581620004f2565b81146200068157600080fd5b50565b61295a80620006946000396000f3fe608060405234801561001057600080fd5b50600436106101005760003560e01c8063760297e911610097578063a5ea11da11610066578063a5ea11da14610296578063d77aa749146102b6578063da58c7d9146102d4578063f6b4dfb41461030657610100565b8063760297e91461021c578063823167451461023a57806395b02dfa1461025a5780639aa4bbdd1461026457610100565b80635361a0ea116100d35780635361a0ea1461018b5780635c39fcc1146101bd5780637403c5e5146101db578063753ec103146101f957610100565b80630cb6aaf11461010557806315fe6f1b1461013557806319eb4a9014610151578063323082d71461016f575b600080fd5b61011f600480360381019061011a9190611c49565b610324565b60405161012c919061200d565b60405180910390f35b61014f600480360381019061014a9190611bd3565b610363565b005b610159610705565b60405161016691906120f6565b60405180910390f35b61018960048036038101906101849190611c00565b61079a565b005b6101a560048036038101906101a09190611bd3565b610f3d565b6040516101b493929190612043565b60405180910390f35b6101c5611052565b6040516101d2919061200d565b60405180910390f35b6101e3611078565b6040516101f09190612258565b60405180910390f35b61020161107e565b60405161021396959493929190612273565b60405180910390f35b610224611240565b6040516102319190612028565b60405180910390f35b610242611257565b6040516102519392919061207a565b60405180910390f35b61026261157d565b005b61027e60048036038101906102799190611bd3565b6119e3565b60405161028d93929190612043565b60405180910390f35b61029e611a47565b6040516102ad939291906120bf565b60405180910390f35b6102be611a66565b6040516102cb9190612258565b60405180910390f35b6102ee60048036038101906102e99190611c49565b611a6c565b6040516102fd93929190612043565b60405180910390f35b61030e611adc565b60405161031b919061200d565b60405180910390f35b6002818154811061033457600080fd5b906000526020600020016000915054906101000a900473ffffffffffffffffffffffffffffffffffffffff1681565b600160009054906101000a900473ffffffffffffffffffffffffffffffffffffffff1673ffffffffffffffffffffffffffffffffffffffff163373ffffffffffffffffffffffffffffffffffffffff16146103f3576040517f08c379a00000000000000000000000000000000000000000000000000000000081526004016103ea906121d8565b60405180910390fd5b600160009054906101000a900473ffffffffffffffffffffffffffffffffffffffff1673ffffffffffffffffffffffffffffffffffffffff168173ffffffffffffffffffffffffffffffffffffffff161415610484576040517f08c379a000000000000000000000000000000000000000000000000000000000815260040161047b90612178565b60405180910390fd5b600073ffffffffffffffffffffffffffffffffffffffff16600960008373ffffffffffffffffffffffffffffffffffffffff1673ffffffffffffffffffffffffffffffffffffffff16815260200190815260200160002060000160029054906101000a900473ffffffffffffffffffffffffffffffffffffffff1673ffffffffffffffffffffffffffffffffffffffff1614610555576040517f08c379a000000000000000000000000000000000000000000000000000000000815260040161054c90612118565b60405180910390fd5b6003544210610599576040517f08c379a0000000000000000000000000000000000000000000000000000000008152600401610590906121b8565b60405180910390fd5b600060405180606001604052806000151581526020016000151581526020018373ffffffffffffffffffffffffffffffffffffffff16815250905080600960008473ffffffffffffffffffffffffffffffffffffffff1673ffffffffffffffffffffffffffffffffffffffff16815260200190815260200160002060008201518160000160006101000a81548160ff02191690831515021790555060208201518160000160016101000a81548160ff02191690831515021790555060408201518160000160026101000a81548173ffffffffffffffffffffffffffffffffffffffff021916908373ffffffffffffffffffffffffffffffffffffffff1602179055509050506002829080600181540180825580915050600190039060005260206000200160009091909190916101000a81548173ffffffffffffffffffffffffffffffffffffffff021916908373ffffffffffffffffffffffffffffffffffffffff1602179055505050565b6060600a600101805461071790612527565b80601f016020809104026020016040519081016040528092919081815260200182805461074390612527565b80156107905780601f1061076557610100808354040283529160200191610790565b820191906000526020600020905b81548152906001019060200180831161077357829003601f168201915b5050505050905090565b60035442106107de576040517f08c379a00000000000000000000000000000000000000000000000000000000081526004016107d590612218565b60405180910390fd5b600073ffffffffffffffffffffffffffffffffffffffff16600960003373ffffffffffffffffffffffffffffffffffffffff1673ffffffffffffffffffffffffffffffffffffffff16815260200190815260200160002060000160029054906101000a900473ffffffffffffffffffffffffffffffffffffffff1673ffffffffffffffffffffffffffffffffffffffff1614156108b0576040517f08c379a00000000000000000000000000000000000000000000000000000000081526004016108a790612198565b60405180910390fd5b600960003373ffffffffffffffffffffffffffffffffffffffff1673ffffffffffffffffffffffffffffffffffffffff16815260200190815260200160002060000160009054906101000a900460ff1615610940576040517f08c379a000000000000000000000000000000000000000000000000000000000815260040161093790612158565b60405180910390fd5b6040518060400160405280600981526020017f6920617070726f766500000000000000000000000000000000000000000000008152508051906020012081805190602001201415610ba6576001600960003373ffffffffffffffffffffffffffffffffffffffff1673ffffffffffffffffffffffffffffffffffffffff16815260200190815260200160002060000160006101000a81548160ff0219169083151502179055506001600960003373ffffffffffffffffffffffffffffffffffffffff1673ffffffffffffffffffffffffffffffffffffffff16815260200190815260200160002060000160016101000a81548160ff021916908315150217905550600160056000828254610a5491906123a5565b925050819055506001600a6000016000828254610a7191906123a5565b925050819055506008600960003373ffffffffffffffffffffffffffffffffffffffff1673ffffffffffffffffffffffffffffffffffffffff168152602001908152602001600020908060018154018082558091505060019003906000526020600020016000909190919091506000820160009054906101000a900460ff168160000160006101000a81548160ff0219169083151502179055506000820160019054906101000a900460ff168160000160016101000a81548160ff0219169083151502179055506000820160029054906101000a900473ffffffffffffffffffffffffffffffffffffffff168160000160026101000a81548173ffffffffffffffffffffffffffffffffffffffff021916908373ffffffffffffffffffffffffffffffffffffffff1602179055505050610f3a565b6040518060400160405280600c81526020017f6920646973617070726f766500000000000000000000000000000000000000008152508051906020012081805190602001201415610d97576001600960003373ffffffffffffffffffffffffffffffffffffffff1673ffffffffffffffffffffffffffffffffffffffff16815260200190815260200160002060000160006101000a81548160ff0219169083151502179055506001600a6000016000828254610c6291906123a5565b925050819055506008600960003373ffffffffffffffffffffffffffffffffffffffff1673ffffffffffffffffffffffffffffffffffffffff168152602001908152602001600020908060018154018082558091505060019003906000526020600020016000909190919091506000820160009054906101000a900460ff168160000160006101000a81548160ff0219169083151502179055506000820160019054906101000a900460ff168160000160016101000a81548160ff0219169083151502179055506000820160029054906101000a900473ffffffffffffffffffffffffffffffffffffffff168160000160026101000a81548173ffffffffffffffffffffffffffffffffffffffff021916908373ffffffffffffffffffffffffffffffffffffffff1602179055505050610f39565b6001600960003373ffffffffffffffffffffffffffffffffffffffff1673ffffffffffffffffffffffffffffffffffffffff16815260200190815260200160002060000160006101000a81548160ff0219169083151502179055506001600a6000016000828254610e0891906123a5565b925050819055506008600960003373ffffffffffffffffffffffffffffffffffffffff1673ffffffffffffffffffffffffffffffffffffffff168152602001908152602001600020908060018154018082558091505060019003906000526020600020016000909190919091506000820160009054906101000a900460ff168160000160006101000a81548160ff0219169083151502179055506000820160019054906101000a900460ff168160000160016101000a81548160ff0219169083151502179055506000820160029054906101000a900473ffffffffffffffffffffffffffffffffffffffff168160000160026101000a81548173ffffffffffffffffffffffffffffffffffffffff021916908373ffffffffffffffffffffffffffffffffffffffff16021790555050505b5b50565b6000806000600960008573ffffffffffffffffffffffffffffffffffffffff1673ffffffffffffffffffffffffffffffffffffffff16815260200190815260200160002060000160019054906101000a900460ff16600960008673ffffffffffffffffffffffffffffffffffffffff1673ffffffffffffffffffffffffffffffffffffffff16815260200190815260200160002060000160009054906101000a900460ff16600960008773ffffffffffffffffffffffffffffffffffffffff1673ffffffffffffffffffffffffffffffffffffffff16815260200190815260200160002060000160029054906101000a900473ffffffffffffffffffffffffffffffffffffffff169250925092509193909250565b600160009054906101000a900473ffffffffffffffffffffffffffffffffffffffff1681565b60055481565b600a80600001549080600101805461109590612527565b80601f01602080910402602001604051908101604052809291908181526020018280546110c190612527565b801561110e5780601f106110e35761010080835404028352916020019161110e565b820191906000526020600020905b8154815290600101906020018083116110f157829003601f168201915b50505050509080600201805461112390612527565b80601f016020809104026020016040519081016040528092919081815260200182805461114f90612527565b801561119c5780601f106111715761010080835404028352916020019161119c565b820191906000526020600020905b81548152906001019060200180831161117f57829003601f168201915b5050505050908060030180546111b190612527565b80601f01602080910402602001604051908101604052809291908181526020018280546111dd90612527565b801561122a5780601f106111ff5761010080835404028352916020019161122a565b820191906000526020600020905b81548152906001019060200180831161120d57829003601f168201915b5050505050908060040154908060050154905086565b6000600660009054906101000a900460ff16905090565b6000611261611b00565b60606003544210156112a8576040517f08c379a000000000000000000000000000000000000000000000000000000000815260040161129f906121f8565b60405180910390fd5b600754600a6008816040518060c0016040529081600082015481526020016001820180546112d590612527565b80601f016020809104026020016040519081016040528092919081815260200182805461130190612527565b801561134e5780601f106113235761010080835404028352916020019161134e565b820191906000526020600020905b81548152906001019060200180831161133157829003601f168201915b5050505050815260200160028201805461136790612527565b80601f016020809104026020016040519081016040528092919081815260200182805461139390612527565b80156113e05780601f106113b5576101008083540402835291602001916113e0565b820191906000526020600020905b8154815290600101906020018083116113c357829003601f168201915b505050505081526020016003820180546113f990612527565b80601f016020809104026020016040519081016040528092919081815260200182805461142590612527565b80156114725780601f1061144757610100808354040283529160200191611472565b820191906000526020600020905b81548152906001019060200180831161145557829003601f168201915b5050505050815260200160048201548152602001600582015481525050915080805480602002602001604051908101604052809291908181526020016000905b8282101561156c578382906000526020600020016040518060600160405290816000820160009054906101000a900460ff161515151581526020016000820160019054906101000a900460ff161515151581526020016000820160029054906101000a900473ffffffffffffffffffffffffffffffffffffffff1673ffffffffffffffffffffffffffffffffffffffff1673ffffffffffffffffffffffffffffffffffffffff1681525050815260200190600101906114b2565b505050509050925092509250909192565b6003544210156115c2576040517f08c379a00000000000000000000000000000000000000000000000000000000081526004016115b9906121f8565b60405180910390fd5b60001515600660009054906101000a900460ff16151514611618576040517f08c379a000000000000000000000000000000000000000000000000000000000815260040161160f90612238565b60405180910390fd5b600160009054906101000a900473ffffffffffffffffffffffffffffffffffffffff1673ffffffffffffffffffffffffffffffffffffffff163373ffffffffffffffffffffffffffffffffffffffff1614806117035750600073ffffffffffffffffffffffffffffffffffffffff16600960003373ffffffffffffffffffffffffffffffffffffffff1673ffffffffffffffffffffffffffffffffffffffff16815260200190815260200160002060000160029054906101000a900473ffffffffffffffffffffffffffffffffffffffff1673ffffffffffffffffffffffffffffffffffffffff1614155b611742576040517f08c379a000000000000000000000000000000000000000000000000000000000815260040161173990612138565b60405180910390fd5b6000606460028054905060055461175991906123fb565b611763919061242c565b90506004548110611796577f41636365707465640000000000000000000000000000000000000000000000006007819055505b60005b6002805490508160ff1610156119c457600015156009600060028460ff16815481106117c8576117c7612641565b5b9060005260206000200160009054906101000a900473ffffffffffffffffffffffffffffffffffffffff1673ffffffffffffffffffffffffffffffffffffffff1673ffffffffffffffffffffffffffffffffffffffff16815260200190815260200160002060000160009054906101000a900460ff16151514156119b15760086009600060028460ff168154811061186357611862612641565b5b9060005260206000200160009054906101000a900473ffffffffffffffffffffffffffffffffffffffff1673ffffffffffffffffffffffffffffffffffffffff1673ffffffffffffffffffffffffffffffffffffffff168152602001908152602001600020908060018154018082558091505060019003906000526020600020016000909190919091506000820160009054906101000a900460ff168160000160006101000a81548160ff0219169083151502179055506000820160019054906101000a900460ff168160000160016101000a81548160ff0219169083151502179055506000820160029054906101000a900473ffffffffffffffffffffffffffffffffffffffff168160000160026101000a81548173ffffffffffffffffffffffffffffffffffffffff021916908373ffffffffffffffffffffffffffffffffffffffff16021790555050505b80806119bc9061258a565b915050611799565b506001600660006101000a81548160ff02191690831515021790555050565b60096020528060005260406000206000915090508060000160009054906101000a900460ff16908060000160019054906101000a900460ff16908060000160029054906101000a900473ffffffffffffffffffffffffffffffffffffffff16905083565b6000806000600a60040154600a60050154600454925092509250909192565b60045481565b60088181548110611a7c57600080fd5b906000526020600020016000915090508060000160009054906101000a900460ff16908060000160019054906101000a900460ff16908060000160029054906101000a900473ffffffffffffffffffffffffffffffffffffffff16905083565b60008054906101000a900473ffffffffffffffffffffffffffffffffffffffff1681565b6040518060c001604052806000815260200160608152602001606081526020016060815260200160008019168152602001600081525090565b6000611b4c611b478461230e565b6122e9565b905082815260208101848484011115611b6857611b676126a4565b5b611b738482856124e5565b509392505050565b600081359050611b8a816128f6565b92915050565b600082601f830112611ba557611ba461269f565b5b8135611bb5848260208601611b39565b91505092915050565b600081359050611bcd8161290d565b92915050565b600060208284031215611be957611be86126ae565b5b6000611bf784828501611b7b565b91505092915050565b600060208284031215611c1657611c156126ae565b5b600082013567ffffffffffffffff811115611c3457611c336126a9565b5b611c4084828501611b90565b91505092915050565b600060208284031215611c5f57611c5e6126ae565b5b6000611c6d84828501611bbe565b91505092915050565b6000611c828383611fad565b60608301905092915050565b611c9781612486565b82525050565b611ca681612486565b82525050565b6000611cb78261234f565b611cc18185612372565b9350611ccc8361233f565b8060005b83811015611cfd578151611ce48882611c76565b9750611cef83612365565b925050600181019050611cd0565b5085935050505092915050565b611d1381612498565b82525050565b611d2281612498565b82525050565b611d31816124a4565b82525050565b611d40816124a4565b82525050565b6000611d518261235a565b611d5b8185612383565b9350611d6b8185602086016124f4565b611d74816126b3565b840191505092915050565b6000611d8a8261235a565b611d948185612394565b9350611da48185602086016124f4565b611dad816126b3565b840191505092915050565b6000611dc5601f83612394565b9150611dd0826126c4565b602082019050919050565b6000611de8602683612394565b9150611df3826126ed565b604082019050919050565b6000611e0b601c83612394565b9150611e168261273c565b602082019050919050565b6000611e2e601583612394565b9150611e3982612765565b602082019050919050565b6000611e51601e83612394565b9150611e5c8261278e565b602082019050919050565b6000611e74602483612394565b9150611e7f826127b7565b604082019050919050565b6000611e97602883612394565b9150611ea282612806565b604082019050919050565b6000611eba602083612394565b9150611ec582612855565b602082019050919050565b6000611edd601283612394565b9150611ee88261287e565b602082019050919050565b6000611f00602583612394565b9150611f0b826128a7565b604082019050919050565b600060c083016000830151611f2e6000860182611fef565b5060208301518482036020860152611f468282611d46565b91505060408301518482036040860152611f608282611d46565b91505060608301518482036060860152611f7a8282611d46565b9150506080830151611f8f6080860182611d28565b5060a0830151611fa260a0860182611fef565b508091505092915050565b606082016000820151611fc36000850182611d0a565b506020820151611fd66020850182611d0a565b506040820151611fe96040850182611c8e565b50505050565b611ff8816124ce565b82525050565b612007816124ce565b82525050565b60006020820190506120226000830184611c9d565b92915050565b600060208201905061203d6000830184611d19565b92915050565b60006060820190506120586000830186611d19565b6120656020830185611d19565b6120726040830184611c9d565b949350505050565b600060608201905061208f6000830186611d37565b81810360208301526120a18185611f16565b905081810360408301526120b58184611cac565b9050949350505050565b60006060820190506120d46000830186611d37565b6120e16020830185611ffe565b6120ee6040830184611ffe565b949350505050565b600060208201905081810360008301526121108184611d7f565b905092915050565b6000602082019050818103600083015261213181611db8565b9050919050565b6000602082019050818103600083015261215181611ddb565b9050919050565b6000602082019050818103600083015261217181611dfe565b9050919050565b6000602082019050818103600083015261219181611e21565b9050919050565b600060208201905081810360008301526121b181611e44565b9050919050565b600060208201905081810360008301526121d181611e67565b9050919050565b600060208201905081810360008301526121f181611e8a565b9050919050565b6000602082019050818103600083015261221181611ead565b9050919050565b6000602082019050818103600083015261223181611ed0565b9050919050565b6000602082019050818103600083015261225181611ef3565b9050919050565b600060208201905061226d6000830184611ffe565b92915050565b600060c0820190506122886000830189611ffe565b818103602083015261229a8188611d7f565b905081810360408301526122ae8187611d7f565b905081810360608301526122c28186611d7f565b90506122d16080830185611d37565b6122de60a0830184611ffe565b979650505050505050565b60006122f3612304565b90506122ff8282612559565b919050565b6000604051905090565b600067ffffffffffffffff82111561232957612328612670565b5b612332826126b3565b9050602081019050919050565b6000819050602082019050919050565b600081519050919050565b600081519050919050565b6000602082019050919050565b600082825260208201905092915050565b600082825260208201905092915050565b600082825260208201905092915050565b60006123b0826124ce565b91506123bb836124ce565b9250827fffffffffffffffffffffffffffffffffffffffffffffffffffffffffffffffff038211156123f0576123ef6125b4565b5b828201905092915050565b6000612406826124ce565b9150612411836124ce565b925082612421576124206125e3565b5b828204905092915050565b6000612437826124ce565b9150612442836124ce565b9250817fffffffffffffffffffffffffffffffffffffffffffffffffffffffffffffffff048311821515161561247b5761247a6125b4565b5b828202905092915050565b6000612491826124ae565b9050919050565b60008115159050919050565b6000819050919050565b600073ffffffffffffffffffffffffffffffffffffffff82169050919050565b6000819050919050565b600060ff82169050919050565b82818337600083830152505050565b60005b838110156125125780820151818401526020810190506124f7565b83811115612521576000848401525b50505050565b6000600282049050600182168061253f57607f821691505b6020821081141561255357612552612612565b5b50919050565b612562826126b3565b810181811067ffffffffffffffff8211171561258157612580612670565b5b80604052505050565b6000612595826124d8565b915060ff8214156125a9576125a86125b4565b5b600182019050919050565b7f4e487b7100000000000000000000000000000000000000000000000000000000600052601160045260246000fd5b7f4e487b7100000000000000000000000000000000000000000000000000000000600052601260045260246000fd5b7f4e487b7100000000000000000000000000000000000000000000000000000000600052602260045260246000fd5b7f4e487b7100000000000000000000000000000000000000000000000000000000600052603260045260246000fd5b7f4e487b7100000000000000000000000000000000000000000000000000000000600052604160045260246000fd5b600080fd5b600080fd5b600080fd5b600080fd5b6000601f19601f8301169050919050565b7f526563697069656e7420697320616c7265616479207265676973746572656400600082015250565b7f596f75206172656e277420617574686f72697a6520746f20636f6d70696c652060008201527f42756e646c650000000000000000000000000000000000000000000000000000602082015250565b7f596f7520616c72656164792073656e74206120726573706f6e73652e00000000600082015250565b7f496e69746961746f722063616e277420766f7465210000000000000000000000600082015250565b7f596f7520617265206e6f74207265676973746572656420746f20766f74650000600082015250565b7f50726f706f73616c20686173207265616368656420697473206578706972792060008201527f6461746500000000000000000000000000000000000000000000000000000000602082015250565b7f4f6e6c7920696e69746961746f722063616e207265676973746572206120726560008201527f63697069656e742e000000000000000000000000000000000000000000000000602082015250565b7f5665726469637420686173206e6f74206265656e207265616368656420796574600082015250565b7f566f74696e672068617320657870697265640000000000000000000000000000600082015250565b7f436f6e73656e7375732068617320616c7265616479206265656e2063616c637560008201527f6c61746564000000000000000000000000000000000000000000000000000000602082015250565b6128ff81612486565b811461290a57600080fd5b50565b612916816124ce565b811461292157600080fd5b5056fea2646970667358221220606fa42d1c2a022df7a4ebebbcf3e8c0e6870e9806807044de5c7b7fd177107064736f6c63430008070033",
					"opcodes": "PUSH1 0x80 PUSH1 0x40 MSTORE CALLVALUE DUP1 ISZERO PUSH3 0x11 JUMPI PUSH1 0x0 DUP1 REVERT JUMPDEST POP PUSH1 0x40 MLOAD PUSH3 0x2FEE CODESIZE SUB DUP1 PUSH3 0x2FEE DUP4 CODECOPY DUP2 DUP2 ADD PUSH1 0x40 MSTORE DUP2 ADD SWAP1 PUSH3 0x37 SWAP2 SWAP1 PUSH3 0x333 JUMP JUMPDEST CALLER PUSH1 0x1 PUSH1 0x0 PUSH2 0x100 EXP DUP2 SLOAD DUP2 PUSH20 0xFFFFFFFFFFFFFFFFFFFFFFFFFFFFFFFFFFFFFFFF MUL NOT AND SWAP1 DUP4 PUSH20 0xFFFFFFFFFFFFFFFFFFFFFFFFFFFFFFFFFFFFFFFF AND MUL OR SWAP1 SSTORE POP DUP5 TIMESTAMP PUSH3 0x86 SWAP2 SWAP1 PUSH3 0x48B JUMP JUMPDEST PUSH1 0x3 DUP2 SWAP1 SSTORE POP DUP4 PUSH1 0x4 DUP2 SWAP1 SSTORE POP PUSH1 0x0 PUSH1 0x5 DUP2 SWAP1 SSTORE POP PUSH1 0x0 PUSH1 0x6 PUSH1 0x0 PUSH2 0x100 EXP DUP2 SLOAD DUP2 PUSH1 0xFF MUL NOT AND SWAP1 DUP4 ISZERO ISZERO MUL OR SWAP1 SSTORE POP PUSH32 0x52656A6563746564000000000000000000000000000000000000000000000000 PUSH1 0x7 DUP2 SWAP1 SSTORE POP ADDRESS PUSH1 0x0 DUP1 PUSH2 0x100 EXP DUP2 SLOAD DUP2 PUSH20 0xFFFFFFFFFFFFFFFFFFFFFFFFFFFFFFFFFFFFFFFF MUL NOT AND SWAP1 DUP4 PUSH20 0xFFFFFFFFFFFFFFFFFFFFFFFFFFFFFFFFFFFFFFFF AND MUL OR SWAP1 SSTORE POP PUSH1 0x40 MLOAD DUP1 PUSH1 0xC0 ADD PUSH1 0x40 MSTORE DUP1 PUSH1 0x0 DUP2 MSTORE PUSH1 0x20 ADD DUP8 DUP2 MSTORE PUSH1 0x20 ADD DUP3 DUP2 MSTORE PUSH1 0x20 ADD DUP4 DUP2 MSTORE PUSH1 0x20 ADD DUP5 DUP2 MSTORE PUSH1 0x20 ADD DUP7 DUP2 MSTORE POP PUSH1 0xA PUSH1 0x0 DUP3 ADD MLOAD DUP2 PUSH1 0x0 ADD SSTORE PUSH1 0x20 DUP3 ADD MLOAD DUP2 PUSH1 0x1 ADD SWAP1 DUP1 MLOAD SWAP1 PUSH1 0x20 ADD SWAP1 PUSH3 0x175 SWAP3 SWAP2 SWAP1 PUSH3 0x1D7 JUMP JUMPDEST POP PUSH1 0x40 DUP3 ADD MLOAD DUP2 PUSH1 0x2 ADD SWAP1 DUP1 MLOAD SWAP1 PUSH1 0x20 ADD SWAP1 PUSH3 0x194 SWAP3 SWAP2 SWAP1 PUSH3 0x1D7 JUMP JUMPDEST POP PUSH1 0x60 DUP3 ADD MLOAD DUP2 PUSH1 0x3 ADD SWAP1 DUP1 MLOAD SWAP1 PUSH1 0x20 ADD SWAP1 PUSH3 0x1B3 SWAP3 SWAP2 SWAP1 PUSH3 0x1D7 JUMP JUMPDEST POP PUSH1 0x80 DUP3 ADD MLOAD DUP2 PUSH1 0x4 ADD SSTORE PUSH1 0xA0 DUP3 ADD MLOAD DUP2 PUSH1 0x5 ADD SSTORE SWAP1 POP POP POP POP POP POP POP POP PUSH3 0x684 JUMP JUMPDEST DUP3 DUP1 SLOAD PUSH3 0x1E5 SWAP1 PUSH3 0x532 JUMP JUMPDEST SWAP1 PUSH1 0x0 MSTORE PUSH1 0x20 PUSH1 0x0 KECCAK256 SWAP1 PUSH1 0x1F ADD PUSH1 0x20 SWAP1 DIV DUP2 ADD SWAP3 DUP3 PUSH3 0x209 JUMPI PUSH1 0x0 DUP6 SSTORE PUSH3 0x255 JUMP JUMPDEST DUP3 PUSH1 0x1F LT PUSH3 0x224 JUMPI DUP1 MLOAD PUSH1 0xFF NOT AND DUP4 DUP1 ADD OR DUP6 SSTORE PUSH3 0x255 JUMP JUMPDEST DUP3 DUP1 ADD PUSH1 0x1 ADD DUP6 SSTORE DUP3 ISZERO PUSH3 0x255 JUMPI SWAP2 DUP3 ADD JUMPDEST DUP3 DUP2 GT ISZERO PUSH3 0x254 JUMPI DUP3 MLOAD DUP3 SSTORE SWAP2 PUSH1 0x20 ADD SWAP2 SWAP1 PUSH1 0x1 ADD SWAP1 PUSH3 0x237 JUMP JUMPDEST JUMPDEST POP SWAP1 POP PUSH3 0x264 SWAP2 SWAP1 PUSH3 0x268 JUMP JUMPDEST POP SWAP1 JUMP JUMPDEST JUMPDEST DUP1 DUP3 GT ISZERO PUSH3 0x283 JUMPI PUSH1 0x0 DUP2 PUSH1 0x0 SWAP1 SSTORE POP PUSH1 0x1 ADD PUSH3 0x269 JUMP JUMPDEST POP SWAP1 JUMP JUMPDEST PUSH1 0x0 PUSH3 0x29E PUSH3 0x298 DUP5 PUSH3 0x455 JUMP JUMPDEST PUSH3 0x42C JUMP JUMPDEST SWAP1 POP DUP3 DUP2 MSTORE PUSH1 0x20 DUP2 ADD DUP5 DUP5 DUP5 ADD GT ISZERO PUSH3 0x2BD JUMPI PUSH3 0x2BC PUSH3 0x630 JUMP JUMPDEST JUMPDEST PUSH3 0x2CA DUP5 DUP3 DUP6 PUSH3 0x4FC JUMP JUMPDEST POP SWAP4 SWAP3 POP POP POP JUMP JUMPDEST PUSH1 0x0 DUP2 MLOAD SWAP1 POP PUSH3 0x2E3 DUP2 PUSH3 0x650 JUMP JUMPDEST SWAP3 SWAP2 POP POP JUMP JUMPDEST PUSH1 0x0 DUP3 PUSH1 0x1F DUP4 ADD SLT PUSH3 0x301 JUMPI PUSH3 0x300 PUSH3 0x62B JUMP JUMPDEST JUMPDEST DUP2 MLOAD PUSH3 0x313 DUP5 DUP3 PUSH1 0x20 DUP7 ADD PUSH3 0x287 JUMP JUMPDEST SWAP2 POP POP SWAP3 SWAP2 POP POP JUMP JUMPDEST PUSH1 0x0 DUP2 MLOAD SWAP1 POP PUSH3 0x32D DUP2 PUSH3 0x66A JUMP JUMPDEST SWAP3 SWAP2 POP POP JUMP JUMPDEST PUSH1 0x0 DUP1 PUSH1 0x0 DUP1 PUSH1 0x0 DUP1 PUSH1 0xC0 DUP8 DUP10 SUB SLT ISZERO PUSH3 0x353 JUMPI PUSH3 0x352 PUSH3 0x63A JUMP JUMPDEST JUMPDEST PUSH1 0x0 DUP8 ADD MLOAD PUSH8 0xFFFFFFFFFFFFFFFF DUP2 GT ISZERO PUSH3 0x374 JUMPI PUSH3 0x373 PUSH3 0x635 JUMP JUMPDEST JUMPDEST PUSH3 0x382 DUP10 DUP3 DUP11 ADD PUSH3 0x2E9 JUMP JUMPDEST SWAP7 POP POP PUSH1 0x20 PUSH3 0x395 DUP10 DUP3 DUP11 ADD PUSH3 0x31C JUMP JUMPDEST SWAP6 POP POP PUSH1 0x40 PUSH3 0x3A8 DUP10 DUP3 DUP11 ADD PUSH3 0x31C JUMP JUMPDEST SWAP5 POP POP PUSH1 0x60 PUSH3 0x3BB DUP10 DUP3 DUP11 ADD PUSH3 0x2D2 JUMP JUMPDEST SWAP4 POP POP PUSH1 0x80 DUP8 ADD MLOAD PUSH8 0xFFFFFFFFFFFFFFFF DUP2 GT ISZERO PUSH3 0x3DF JUMPI PUSH3 0x3DE PUSH3 0x635 JUMP JUMPDEST JUMPDEST PUSH3 0x3ED DUP10 DUP3 DUP11 ADD PUSH3 0x2E9 JUMP JUMPDEST SWAP3 POP POP PUSH1 0xA0 DUP8 ADD MLOAD PUSH8 0xFFFFFFFFFFFFFFFF DUP2 GT ISZERO PUSH3 0x411 JUMPI PUSH3 0x410 PUSH3 0x635 JUMP JUMPDEST JUMPDEST PUSH3 0x41F DUP10 DUP3 DUP11 ADD PUSH3 0x2E9 JUMP JUMPDEST SWAP2 POP POP SWAP3 SWAP6 POP SWAP3 SWAP6 POP SWAP3 SWAP6 JUMP JUMPDEST PUSH1 0x0 PUSH3 0x438 PUSH3 0x44B JUMP JUMPDEST SWAP1 POP PUSH3 0x446 DUP3 DUP3 PUSH3 0x568 JUMP JUMPDEST SWAP2 SWAP1 POP JUMP JUMPDEST PUSH1 0x0 PUSH1 0x40 MLOAD SWAP1 POP SWAP1 JUMP JUMPDEST PUSH1 0x0 PUSH8 0xFFFFFFFFFFFFFFFF DUP3 GT ISZERO PUSH3 0x473 JUMPI PUSH3 0x472 PUSH3 0x5FC JUMP JUMPDEST JUMPDEST PUSH3 0x47E DUP3 PUSH3 0x63F JUMP JUMPDEST SWAP1 POP PUSH1 0x20 DUP2 ADD SWAP1 POP SWAP2 SWAP1 POP JUMP JUMPDEST PUSH1 0x0 PUSH3 0x498 DUP3 PUSH3 0x4F2 JUMP JUMPDEST SWAP2 POP PUSH3 0x4A5 DUP4 PUSH3 0x4F2 JUMP JUMPDEST SWAP3 POP DUP3 PUSH32 0xFFFFFFFFFFFFFFFFFFFFFFFFFFFFFFFFFFFFFFFFFFFFFFFFFFFFFFFFFFFFFFFF SUB DUP3 GT ISZERO PUSH3 0x4DD JUMPI PUSH3 0x4DC PUSH3 0x59E JUMP JUMPDEST JUMPDEST DUP3 DUP3 ADD SWAP1 POP SWAP3 SWAP2 POP POP JUMP JUMPDEST PUSH1 0x0 DUP2 SWAP1 POP SWAP2 SWAP1 POP JUMP JUMPDEST PUSH1 0x0 DUP2 SWAP1 POP SWAP2 SWAP1 POP JUMP JUMPDEST PUSH1 0x0 JUMPDEST DUP4 DUP2 LT ISZERO PUSH3 0x51C JUMPI DUP1 DUP3 ADD MLOAD DUP2 DUP5 ADD MSTORE PUSH1 0x20 DUP2 ADD SWAP1 POP PUSH3 0x4FF JUMP JUMPDEST DUP4 DUP2 GT ISZERO PUSH3 0x52C JUMPI PUSH1 0x0 DUP5 DUP5 ADD MSTORE JUMPDEST POP POP POP POP JUMP JUMPDEST PUSH1 0x0 PUSH1 0x2 DUP3 DIV SWAP1 POP PUSH1 0x1 DUP3 AND DUP1 PUSH3 0x54B JUMPI PUSH1 0x7F DUP3 AND SWAP2 POP JUMPDEST PUSH1 0x20 DUP3 LT DUP2 EQ ISZERO PUSH3 0x562 JUMPI PUSH3 0x561 PUSH3 0x5CD JUMP JUMPDEST JUMPDEST POP SWAP2 SWAP1 POP JUMP JUMPDEST PUSH3 0x573 DUP3 PUSH3 0x63F JUMP JUMPDEST DUP2 ADD DUP2 DUP2 LT PUSH8 0xFFFFFFFFFFFFFFFF DUP3 GT OR ISZERO PUSH3 0x595 JUMPI PUSH3 0x594 PUSH3 0x5FC JUMP JUMPDEST JUMPDEST DUP1 PUSH1 0x40 MSTORE POP POP POP JUMP JUMPDEST PUSH32 0x4E487B7100000000000000000000000000000000000000000000000000000000 PUSH1 0x0 MSTORE PUSH1 0x11 PUSH1 0x4 MSTORE PUSH1 0x24 PUSH1 0x0 REVERT JUMPDEST PUSH32 0x4E487B7100000000000000000000000000000000000000000000000000000000 PUSH1 0x0 MSTORE PUSH1 0x22 PUSH1 0x4 MSTORE PUSH1 0x24 PUSH1 0x0 REVERT JUMPDEST PUSH32 0x4E487B7100000000000000000000000000000000000000000000000000000000 PUSH1 0x0 MSTORE PUSH1 0x41 PUSH1 0x4 MSTORE PUSH1 0x24 PUSH1 0x0 REVERT JUMPDEST PUSH1 0x0 DUP1 REVERT JUMPDEST PUSH1 0x0 DUP1 REVERT JUMPDEST PUSH1 0x0 DUP1 REVERT JUMPDEST PUSH1 0x0 DUP1 REVERT JUMPDEST PUSH1 0x0 PUSH1 0x1F NOT PUSH1 0x1F DUP4 ADD AND SWAP1 POP SWAP2 SWAP1 POP JUMP JUMPDEST PUSH3 0x65B DUP2 PUSH3 0x4E8 JUMP JUMPDEST DUP2 EQ PUSH3 0x667 JUMPI PUSH1 0x0 DUP1 REVERT JUMPDEST POP JUMP JUMPDEST PUSH3 0x675 DUP2 PUSH3 0x4F2 JUMP JUMPDEST DUP2 EQ PUSH3 0x681 JUMPI PUSH1 0x0 DUP1 REVERT JUMPDEST POP JUMP JUMPDEST PUSH2 0x295A DUP1 PUSH3 0x694 PUSH1 0x0 CODECOPY PUSH1 0x0 RETURN INVALID PUSH1 0x80 PUSH1 0x40 MSTORE CALLVALUE DUP1 ISZERO PUSH2 0x10 JUMPI PUSH1 0x0 DUP1 REVERT JUMPDEST POP PUSH1 0x4 CALLDATASIZE LT PUSH2 0x100 JUMPI PUSH1 0x0 CALLDATALOAD PUSH1 0xE0 SHR DUP1 PUSH4 0x760297E9 GT PUSH2 0x97 JUMPI DUP1 PUSH4 0xA5EA11DA GT PUSH2 0x66 JUMPI DUP1 PUSH4 0xA5EA11DA EQ PUSH2 0x296 JUMPI DUP1 PUSH4 0xD77AA749 EQ PUSH2 0x2B6 JUMPI DUP1 PUSH4 0xDA58C7D9 EQ PUSH2 0x2D4 JUMPI DUP1 PUSH4 0xF6B4DFB4 EQ PUSH2 0x306 JUMPI PUSH2 0x100 JUMP JUMPDEST DUP1 PUSH4 0x760297E9 EQ PUSH2 0x21C JUMPI DUP1 PUSH4 0x82316745 EQ PUSH2 0x23A JUMPI DUP1 PUSH4 0x95B02DFA EQ PUSH2 0x25A JUMPI DUP1 PUSH4 0x9AA4BBDD EQ PUSH2 0x264 JUMPI PUSH2 0x100 JUMP JUMPDEST DUP1 PUSH4 0x5361A0EA GT PUSH2 0xD3 JUMPI DUP1 PUSH4 0x5361A0EA EQ PUSH2 0x18B JUMPI DUP1 PUSH4 0x5C39FCC1 EQ PUSH2 0x1BD JUMPI DUP1 PUSH4 0x7403C5E5 EQ PUSH2 0x1DB JUMPI DUP1 PUSH4 0x753EC103 EQ PUSH2 0x1F9 JUMPI PUSH2 0x100 JUMP JUMPDEST DUP1 PUSH4 0xCB6AAF1 EQ PUSH2 0x105 JUMPI DUP1 PUSH4 0x15FE6F1B EQ PUSH2 0x135 JUMPI DUP1 PUSH4 0x19EB4A90 EQ PUSH2 0x151 JUMPI DUP1 PUSH4 0x323082D7 EQ PUSH2 0x16F JUMPI JUMPDEST PUSH1 0x0 DUP1 REVERT JUMPDEST PUSH2 0x11F PUSH1 0x4 DUP1 CALLDATASIZE SUB DUP2 ADD SWAP1 PUSH2 0x11A SWAP2 SWAP1 PUSH2 0x1C49 JUMP JUMPDEST PUSH2 0x324 JUMP JUMPDEST PUSH1 0x40 MLOAD PUSH2 0x12C SWAP2 SWAP1 PUSH2 0x200D JUMP JUMPDEST PUSH1 0x40 MLOAD DUP1 SWAP2 SUB SWAP1 RETURN JUMPDEST PUSH2 0x14F PUSH1 0x4 DUP1 CALLDATASIZE SUB DUP2 ADD SWAP1 PUSH2 0x14A SWAP2 SWAP1 PUSH2 0x1BD3 JUMP JUMPDEST PUSH2 0x363 JUMP JUMPDEST STOP JUMPDEST PUSH2 0x159 PUSH2 0x705 JUMP JUMPDEST PUSH1 0x40 MLOAD PUSH2 0x166 SWAP2 SWAP1 PUSH2 0x20F6 JUMP JUMPDEST PUSH1 0x40 MLOAD DUP1 SWAP2 SUB SWAP1 RETURN JUMPDEST PUSH2 0x189 PUSH1 0x4 DUP1 CALLDATASIZE SUB DUP2 ADD SWAP1 PUSH2 0x184 SWAP2 SWAP1 PUSH2 0x1C00 JUMP JUMPDEST PUSH2 0x79A JUMP JUMPDEST STOP JUMPDEST PUSH2 0x1A5 PUSH1 0x4 DUP1 CALLDATASIZE SUB DUP2 ADD SWAP1 PUSH2 0x1A0 SWAP2 SWAP1 PUSH2 0x1BD3 JUMP JUMPDEST PUSH2 0xF3D JUMP JUMPDEST PUSH1 0x40 MLOAD PUSH2 0x1B4 SWAP4 SWAP3 SWAP2 SWAP1 PUSH2 0x2043 JUMP JUMPDEST PUSH1 0x40 MLOAD DUP1 SWAP2 SUB SWAP1 RETURN JUMPDEST PUSH2 0x1C5 PUSH2 0x1052 JUMP JUMPDEST PUSH1 0x40 MLOAD PUSH2 0x1D2 SWAP2 SWAP1 PUSH2 0x200D JUMP JUMPDEST PUSH1 0x40 MLOAD DUP1 SWAP2 SUB SWAP1 RETURN JUMPDEST PUSH2 0x1E3 PUSH2 0x1078 JUMP JUMPDEST PUSH1 0x40 MLOAD PUSH2 0x1F0 SWAP2 SWAP1 PUSH2 0x2258 JUMP JUMPDEST PUSH1 0x40 MLOAD DUP1 SWAP2 SUB SWAP1 RETURN JUMPDEST PUSH2 0x201 PUSH2 0x107E JUMP JUMPDEST PUSH1 0x40 MLOAD PUSH2 0x213 SWAP7 SWAP6 SWAP5 SWAP4 SWAP3 SWAP2 SWAP1 PUSH2 0x2273 JUMP JUMPDEST PUSH1 0x40 MLOAD DUP1 SWAP2 SUB SWAP1 RETURN JUMPDEST PUSH2 0x224 PUSH2 0x1240 JUMP JUMPDEST PUSH1 0x40 MLOAD PUSH2 0x231 SWAP2 SWAP1 PUSH2 0x2028 JUMP JUMPDEST PUSH1 0x40 MLOAD DUP1 SWAP2 SUB SWAP1 RETURN JUMPDEST PUSH2 0x242 PUSH2 0x1257 JUMP JUMPDEST PUSH1 0x40 MLOAD PUSH2 0x251 SWAP4 SWAP3 SWAP2 SWAP1 PUSH2 0x207A JUMP JUMPDEST PUSH1 0x40 MLOAD DUP1 SWAP2 SUB SWAP1 RETURN JUMPDEST PUSH2 0x262 PUSH2 0x157D JUMP JUMPDEST STOP JUMPDEST PUSH2 0x27E PUSH1 0x4 DUP1 CALLDATASIZE SUB DUP2 ADD SWAP1 PUSH2 0x279 SWAP2 SWAP1 PUSH2 0x1BD3 JUMP JUMPDEST PUSH2 0x19E3 JUMP JUMPDEST PUSH1 0x40 MLOAD PUSH2 0x28D SWAP4 SWAP3 SWAP2 SWAP1 PUSH2 0x2043 JUMP JUMPDEST PUSH1 0x40 MLOAD DUP1 SWAP2 SUB SWAP1 RETURN JUMPDEST PUSH2 0x29E PUSH2 0x1A47 JUMP JUMPDEST PUSH1 0x40 MLOAD PUSH2 0x2AD SWAP4 SWAP3 SWAP2 SWAP1 PUSH2 0x20BF JUMP JUMPDEST PUSH1 0x40 MLOAD DUP1 SWAP2 SUB SWAP1 RETURN JUMPDEST PUSH2 0x2BE PUSH2 0x1A66 JUMP JUMPDEST PUSH1 0x40 MLOAD PUSH2 0x2CB SWAP2 SWAP1 PUSH2 0x2258 JUMP JUMPDEST PUSH1 0x40 MLOAD DUP1 SWAP2 SUB SWAP1 RETURN JUMPDEST PUSH2 0x2EE PUSH1 0x4 DUP1 CALLDATASIZE SUB DUP2 ADD SWAP1 PUSH2 0x2E9 SWAP2 SWAP1 PUSH2 0x1C49 JUMP JUMPDEST PUSH2 0x1A6C JUMP JUMPDEST PUSH1 0x40 MLOAD PUSH2 0x2FD SWAP4 SWAP3 SWAP2 SWAP1 PUSH2 0x2043 JUMP JUMPDEST PUSH1 0x40 MLOAD DUP1 SWAP2 SUB SWAP1 RETURN JUMPDEST PUSH2 0x30E PUSH2 0x1ADC JUMP JUMPDEST PUSH1 0x40 MLOAD PUSH2 0x31B SWAP2 SWAP1 PUSH2 0x200D JUMP JUMPDEST PUSH1 0x40 MLOAD DUP1 SWAP2 SUB SWAP1 RETURN JUMPDEST PUSH1 0x2 DUP2 DUP2 SLOAD DUP2 LT PUSH2 0x334 JUMPI PUSH1 0x0 DUP1 REVERT JUMPDEST SWAP1 PUSH1 0x0 MSTORE PUSH1 0x20 PUSH1 0x0 KECCAK256 ADD PUSH1 0x0 SWAP2 POP SLOAD SWAP1 PUSH2 0x100 EXP SWAP1 DIV PUSH20 0xFFFFFFFFFFFFFFFFFFFFFFFFFFFFFFFFFFFFFFFF AND DUP2 JUMP JUMPDEST PUSH1 0x1 PUSH1 0x0 SWAP1 SLOAD SWAP1 PUSH2 0x100 EXP SWAP1 DIV PUSH20 0xFFFFFFFFFFFFFFFFFFFFFFFFFFFFFFFFFFFFFFFF AND PUSH20 0xFFFFFFFFFFFFFFFFFFFFFFFFFFFFFFFFFFFFFFFF AND CALLER PUSH20 0xFFFFFFFFFFFFFFFFFFFFFFFFFFFFFFFFFFFFFFFF AND EQ PUSH2 0x3F3 JUMPI PUSH1 0x40 MLOAD PUSH32 0x8C379A000000000000000000000000000000000000000000000000000000000 DUP2 MSTORE PUSH1 0x4 ADD PUSH2 0x3EA SWAP1 PUSH2 0x21D8 JUMP JUMPDEST PUSH1 0x40 MLOAD DUP1 SWAP2 SUB SWAP1 REVERT JUMPDEST PUSH1 0x1 PUSH1 0x0 SWAP1 SLOAD SWAP1 PUSH2 0x100 EXP SWAP1 DIV PUSH20 0xFFFFFFFFFFFFFFFFFFFFFFFFFFFFFFFFFFFFFFFF AND PUSH20 0xFFFFFFFFFFFFFFFFFFFFFFFFFFFFFFFFFFFFFFFF AND DUP2 PUSH20 0xFFFFFFFFFFFFFFFFFFFFFFFFFFFFFFFFFFFFFFFF AND EQ ISZERO PUSH2 0x484 JUMPI PUSH1 0x40 MLOAD PUSH32 0x8C379A000000000000000000000000000000000000000000000000000000000 DUP2 MSTORE PUSH1 0x4 ADD PUSH2 0x47B SWAP1 PUSH2 0x2178 JUMP JUMPDEST PUSH1 0x40 MLOAD DUP1 SWAP2 SUB SWAP1 REVERT JUMPDEST PUSH1 0x0 PUSH20 0xFFFFFFFFFFFFFFFFFFFFFFFFFFFFFFFFFFFFFFFF AND PUSH1 0x9 PUSH1 0x0 DUP4 PUSH20 0xFFFFFFFFFFFFFFFFFFFFFFFFFFFFFFFFFFFFFFFF AND PUSH20 0xFFFFFFFFFFFFFFFFFFFFFFFFFFFFFFFFFFFFFFFF AND DUP2 MSTORE PUSH1 0x20 ADD SWAP1 DUP2 MSTORE PUSH1 0x20 ADD PUSH1 0x0 KECCAK256 PUSH1 0x0 ADD PUSH1 0x2 SWAP1 SLOAD SWAP1 PUSH2 0x100 EXP SWAP1 DIV PUSH20 0xFFFFFFFFFFFFFFFFFFFFFFFFFFFFFFFFFFFFFFFF AND PUSH20 0xFFFFFFFFFFFFFFFFFFFFFFFFFFFFFFFFFFFFFFFF AND EQ PUSH2 0x555 JUMPI PUSH1 0x40 MLOAD PUSH32 0x8C379A000000000000000000000000000000000000000000000000000000000 DUP2 MSTORE PUSH1 0x4 ADD PUSH2 0x54C SWAP1 PUSH2 0x2118 JUMP JUMPDEST PUSH1 0x40 MLOAD DUP1 SWAP2 SUB SWAP1 REVERT JUMPDEST PUSH1 0x3 SLOAD TIMESTAMP LT PUSH2 0x599 JUMPI PUSH1 0x40 MLOAD PUSH32 0x8C379A000000000000000000000000000000000000000000000000000000000 DUP2 MSTORE PUSH1 0x4 ADD PUSH2 0x590 SWAP1 PUSH2 0x21B8 JUMP JUMPDEST PUSH1 0x40 MLOAD DUP1 SWAP2 SUB SWAP1 REVERT JUMPDEST PUSH1 0x0 PUSH1 0x40 MLOAD DUP1 PUSH1 0x60 ADD PUSH1 0x40 MSTORE DUP1 PUSH1 0x0 ISZERO ISZERO DUP2 MSTORE PUSH1 0x20 ADD PUSH1 0x0 ISZERO ISZERO DUP2 MSTORE PUSH1 0x20 ADD DUP4 PUSH20 0xFFFFFFFFFFFFFFFFFFFFFFFFFFFFFFFFFFFFFFFF AND DUP2 MSTORE POP SWAP1 POP DUP1 PUSH1 0x9 PUSH1 0x0 DUP5 PUSH20 0xFFFFFFFFFFFFFFFFFFFFFFFFFFFFFFFFFFFFFFFF AND PUSH20 0xFFFFFFFFFFFFFFFFFFFFFFFFFFFFFFFFFFFFFFFF AND DUP2 MSTORE PUSH1 0x20 ADD SWAP1 DUP2 MSTORE PUSH1 0x20 ADD PUSH1 0x0 KECCAK256 PUSH1 0x0 DUP3 ADD MLOAD DUP2 PUSH1 0x0 ADD PUSH1 0x0 PUSH2 0x100 EXP DUP2 SLOAD DUP2 PUSH1 0xFF MUL NOT AND SWAP1 DUP4 ISZERO ISZERO MUL OR SWAP1 SSTORE POP PUSH1 0x20 DUP3 ADD MLOAD DUP2 PUSH1 0x0 ADD PUSH1 0x1 PUSH2 0x100 EXP DUP2 SLOAD DUP2 PUSH1 0xFF MUL NOT AND SWAP1 DUP4 ISZERO ISZERO MUL OR SWAP1 SSTORE POP PUSH1 0x40 DUP3 ADD MLOAD DUP2 PUSH1 0x0 ADD PUSH1 0x2 PUSH2 0x100 EXP DUP2 SLOAD DUP2 PUSH20 0xFFFFFFFFFFFFFFFFFFFFFFFFFFFFFFFFFFFFFFFF MUL NOT AND SWAP1 DUP4 PUSH20 0xFFFFFFFFFFFFFFFFFFFFFFFFFFFFFFFFFFFFFFFF AND MUL OR SWAP1 SSTORE POP SWAP1 POP POP PUSH1 0x2 DUP3 SWAP1 DUP1 PUSH1 0x1 DUP2 SLOAD ADD DUP1 DUP3 SSTORE DUP1 SWAP2 POP POP PUSH1 0x1 SWAP1 SUB SWAP1 PUSH1 0x0 MSTORE PUSH1 0x20 PUSH1 0x0 KECCAK256 ADD PUSH1 0x0 SWAP1 SWAP2 SWAP1 SWAP2 SWAP1 SWAP2 PUSH2 0x100 EXP DUP2 SLOAD DUP2 PUSH20 0xFFFFFFFFFFFFFFFFFFFFFFFFFFFFFFFFFFFFFFFF MUL NOT AND SWAP1 DUP4 PUSH20 0xFFFFFFFFFFFFFFFFFFFFFFFFFFFFFFFFFFFFFFFF AND MUL OR SWAP1 SSTORE POP POP POP JUMP JUMPDEST PUSH1 0x60 PUSH1 0xA PUSH1 0x1 ADD DUP1 SLOAD PUSH2 0x717 SWAP1 PUSH2 0x2527 JUMP JUMPDEST DUP1 PUSH1 0x1F ADD PUSH1 0x20 DUP1 SWAP2 DIV MUL PUSH1 0x20 ADD PUSH1 0x40 MLOAD SWAP1 DUP2 ADD PUSH1 0x40 MSTORE DUP1 SWAP3 SWAP2 SWAP1 DUP2 DUP2 MSTORE PUSH1 0x20 ADD DUP3 DUP1 SLOAD PUSH2 0x743 SWAP1 PUSH2 0x2527 JUMP JUMPDEST DUP1 ISZERO PUSH2 0x790 JUMPI DUP1 PUSH1 0x1F LT PUSH2 0x765 JUMPI PUSH2 0x100 DUP1 DUP4 SLOAD DIV MUL DUP4 MSTORE SWAP2 PUSH1 0x20 ADD SWAP2 PUSH2 0x790 JUMP JUMPDEST DUP3 ADD SWAP2 SWAP1 PUSH1 0x0 MSTORE PUSH1 0x20 PUSH1 0x0 KECCAK256 SWAP1 JUMPDEST DUP2 SLOAD DUP2 MSTORE SWAP1 PUSH1 0x1 ADD SWAP1 PUSH1 0x20 ADD DUP1 DUP4 GT PUSH2 0x773 JUMPI DUP3 SWAP1 SUB PUSH1 0x1F AND DUP3 ADD SWAP2 JUMPDEST POP POP POP POP POP SWAP1 POP SWAP1 JUMP JUMPDEST PUSH1 0x3 SLOAD TIMESTAMP LT PUSH2 0x7DE JUMPI PUSH1 0x40 MLOAD PUSH32 0x8C379A000000000000000000000000000000000000000000000000000000000 DUP2 MSTORE PUSH1 0x4 ADD PUSH2 0x7D5 SWAP1 PUSH2 0x2218 JUMP JUMPDEST PUSH1 0x40 MLOAD DUP1 SWAP2 SUB SWAP1 REVERT JUMPDEST PUSH1 0x0 PUSH20 0xFFFFFFFFFFFFFFFFFFFFFFFFFFFFFFFFFFFFFFFF AND PUSH1 0x9 PUSH1 0x0 CALLER PUSH20 0xFFFFFFFFFFFFFFFFFFFFFFFFFFFFFFFFFFFFFFFF AND PUSH20 0xFFFFFFFFFFFFFFFFFFFFFFFFFFFFFFFFFFFFFFFF AND DUP2 MSTORE PUSH1 0x20 ADD SWAP1 DUP2 MSTORE PUSH1 0x20 ADD PUSH1 0x0 KECCAK256 PUSH1 0x0 ADD PUSH1 0x2 SWAP1 SLOAD SWAP1 PUSH2 0x100 EXP SWAP1 DIV PUSH20 0xFFFFFFFFFFFFFFFFFFFFFFFFFFFFFFFFFFFFFFFF AND PUSH20 0xFFFFFFFFFFFFFFFFFFFFFFFFFFFFFFFFFFFFFFFF AND EQ ISZERO PUSH2 0x8B0 JUMPI PUSH1 0x40 MLOAD PUSH32 0x8C379A000000000000000000000000000000000000000000000000000000000 DUP2 MSTORE PUSH1 0x4 ADD PUSH2 0x8A7 SWAP1 PUSH2 0x2198 JUMP JUMPDEST PUSH1 0x40 MLOAD DUP1 SWAP2 SUB SWAP1 REVERT JUMPDEST PUSH1 0x9 PUSH1 0x0 CALLER PUSH20 0xFFFFFFFFFFFFFFFFFFFFFFFFFFFFFFFFFFFFFFFF AND PUSH20 0xFFFFFFFFFFFFFFFFFFFFFFFFFFFFFFFFFFFFFFFF AND DUP2 MSTORE PUSH1 0x20 ADD SWAP1 DUP2 MSTORE PUSH1 0x20 ADD PUSH1 0x0 KECCAK256 PUSH1 0x0 ADD PUSH1 0x0 SWAP1 SLOAD SWAP1 PUSH2 0x100 EXP SWAP1 DIV PUSH1 0xFF AND ISZERO PUSH2 0x940 JUMPI PUSH1 0x40 MLOAD PUSH32 0x8C379A000000000000000000000000000000000000000000000000000000000 DUP2 MSTORE PUSH1 0x4 ADD PUSH2 0x937 SWAP1 PUSH2 0x2158 JUMP JUMPDEST PUSH1 0x40 MLOAD DUP1 SWAP2 SUB SWAP1 REVERT JUMPDEST PUSH1 0x40 MLOAD DUP1 PUSH1 0x40 ADD PUSH1 0x40 MSTORE DUP1 PUSH1 0x9 DUP2 MSTORE PUSH1 0x20 ADD PUSH32 0x6920617070726F76650000000000000000000000000000000000000000000000 DUP2 MSTORE POP DUP1 MLOAD SWAP1 PUSH1 0x20 ADD KECCAK256 DUP2 DUP1 MLOAD SWAP1 PUSH1 0x20 ADD KECCAK256 EQ ISZERO PUSH2 0xBA6 JUMPI PUSH1 0x1 PUSH1 0x9 PUSH1 0x0 CALLER PUSH20 0xFFFFFFFFFFFFFFFFFFFFFFFFFFFFFFFFFFFFFFFF AND PUSH20 0xFFFFFFFFFFFFFFFFFFFFFFFFFFFFFFFFFFFFFFFF AND DUP2 MSTORE PUSH1 0x20 ADD SWAP1 DUP2 MSTORE PUSH1 0x20 ADD PUSH1 0x0 KECCAK256 PUSH1 0x0 ADD PUSH1 0x0 PUSH2 0x100 EXP DUP2 SLOAD DUP2 PUSH1 0xFF MUL NOT AND SWAP1 DUP4 ISZERO ISZERO MUL OR SWAP1 SSTORE POP PUSH1 0x1 PUSH1 0x9 PUSH1 0x0 CALLER PUSH20 0xFFFFFFFFFFFFFFFFFFFFFFFFFFFFFFFFFFFFFFFF AND PUSH20 0xFFFFFFFFFFFFFFFFFFFFFFFFFFFFFFFFFFFFFFFF AND DUP2 MSTORE PUSH1 0x20 ADD SWAP1 DUP2 MSTORE PUSH1 0x20 ADD PUSH1 0x0 KECCAK256 PUSH1 0x0 ADD PUSH1 0x1 PUSH2 0x100 EXP DUP2 SLOAD DUP2 PUSH1 0xFF MUL NOT AND SWAP1 DUP4 ISZERO ISZERO MUL OR SWAP1 SSTORE POP PUSH1 0x1 PUSH1 0x5 PUSH1 0x0 DUP3 DUP3 SLOAD PUSH2 0xA54 SWAP2 SWAP1 PUSH2 0x23A5 JUMP JUMPDEST SWAP3 POP POP DUP2 SWAP1 SSTORE POP PUSH1 0x1 PUSH1 0xA PUSH1 0x0 ADD PUSH1 0x0 DUP3 DUP3 SLOAD PUSH2 0xA71 SWAP2 SWAP1 PUSH2 0x23A5 JUMP JUMPDEST SWAP3 POP POP DUP2 SWAP1 SSTORE POP PUSH1 0x8 PUSH1 0x9 PUSH1 0x0 CALLER PUSH20 0xFFFFFFFFFFFFFFFFFFFFFFFFFFFFFFFFFFFFFFFF AND PUSH20 0xFFFFFFFFFFFFFFFFFFFFFFFFFFFFFFFFFFFFFFFF AND DUP2 MSTORE PUSH1 0x20 ADD SWAP1 DUP2 MSTORE PUSH1 0x20 ADD PUSH1 0x0 KECCAK256 SWAP1 DUP1 PUSH1 0x1 DUP2 SLOAD ADD DUP1 DUP3 SSTORE DUP1 SWAP2 POP POP PUSH1 0x1 SWAP1 SUB SWAP1 PUSH1 0x0 MSTORE PUSH1 0x20 PUSH1 0x0 KECCAK256 ADD PUSH1 0x0 SWAP1 SWAP2 SWAP1 SWAP2 SWAP1 SWAP2 POP PUSH1 0x0 DUP3 ADD PUSH1 0x0 SWAP1 SLOAD SWAP1 PUSH2 0x100 EXP SWAP1 DIV PUSH1 0xFF AND DUP2 PUSH1 0x0 ADD PUSH1 0x0 PUSH2 0x100 EXP DUP2 SLOAD DUP2 PUSH1 0xFF MUL NOT AND SWAP1 DUP4 ISZERO ISZERO MUL OR SWAP1 SSTORE POP PUSH1 0x0 DUP3 ADD PUSH1 0x1 SWAP1 SLOAD SWAP1 PUSH2 0x100 EXP SWAP1 DIV PUSH1 0xFF AND DUP2 PUSH1 0x0 ADD PUSH1 0x1 PUSH2 0x100 EXP DUP2 SLOAD DUP2 PUSH1 0xFF MUL NOT AND SWAP1 DUP4 ISZERO ISZERO MUL OR SWAP1 SSTORE POP PUSH1 0x0 DUP3 ADD PUSH1 0x2 SWAP1 SLOAD SWAP1 PUSH2 0x100 EXP SWAP1 DIV PUSH20 0xFFFFFFFFFFFFFFFFFFFFFFFFFFFFFFFFFFFFFFFF AND DUP2 PUSH1 0x0 ADD PUSH1 0x2 PUSH2 0x100 EXP DUP2 SLOAD DUP2 PUSH20 0xFFFFFFFFFFFFFFFFFFFFFFFFFFFFFFFFFFFFFFFF MUL NOT AND SWAP1 DUP4 PUSH20 0xFFFFFFFFFFFFFFFFFFFFFFFFFFFFFFFFFFFFFFFF AND MUL OR SWAP1 SSTORE POP POP POP PUSH2 0xF3A JUMP JUMPDEST PUSH1 0x40 MLOAD DUP1 PUSH1 0x40 ADD PUSH1 0x40 MSTORE DUP1 PUSH1 0xC DUP2 MSTORE PUSH1 0x20 ADD PUSH32 0x6920646973617070726F76650000000000000000000000000000000000000000 DUP2 MSTORE POP DUP1 MLOAD SWAP1 PUSH1 0x20 ADD KECCAK256 DUP2 DUP1 MLOAD SWAP1 PUSH1 0x20 ADD KECCAK256 EQ ISZERO PUSH2 0xD97 JUMPI PUSH1 0x1 PUSH1 0x9 PUSH1 0x0 CALLER PUSH20 0xFFFFFFFFFFFFFFFFFFFFFFFFFFFFFFFFFFFFFFFF AND PUSH20 0xFFFFFFFFFFFFFFFFFFFFFFFFFFFFFFFFFFFFFFFF AND DUP2 MSTORE PUSH1 0x20 ADD SWAP1 DUP2 MSTORE PUSH1 0x20 ADD PUSH1 0x0 KECCAK256 PUSH1 0x0 ADD PUSH1 0x0 PUSH2 0x100 EXP DUP2 SLOAD DUP2 PUSH1 0xFF MUL NOT AND SWAP1 DUP4 ISZERO ISZERO MUL OR SWAP1 SSTORE POP PUSH1 0x1 PUSH1 0xA PUSH1 0x0 ADD PUSH1 0x0 DUP3 DUP3 SLOAD PUSH2 0xC62 SWAP2 SWAP1 PUSH2 0x23A5 JUMP JUMPDEST SWAP3 POP POP DUP2 SWAP1 SSTORE POP PUSH1 0x8 PUSH1 0x9 PUSH1 0x0 CALLER PUSH20 0xFFFFFFFFFFFFFFFFFFFFFFFFFFFFFFFFFFFFFFFF AND PUSH20 0xFFFFFFFFFFFFFFFFFFFFFFFFFFFFFFFFFFFFFFFF AND DUP2 MSTORE PUSH1 0x20 ADD SWAP1 DUP2 MSTORE PUSH1 0x20 ADD PUSH1 0x0 KECCAK256 SWAP1 DUP1 PUSH1 0x1 DUP2 SLOAD ADD DUP1 DUP3 SSTORE DUP1 SWAP2 POP POP PUSH1 0x1 SWAP1 SUB SWAP1 PUSH1 0x0 MSTORE PUSH1 0x20 PUSH1 0x0 KECCAK256 ADD PUSH1 0x0 SWAP1 SWAP2 SWAP1 SWAP2 SWAP1 SWAP2 POP PUSH1 0x0 DUP3 ADD PUSH1 0x0 SWAP1 SLOAD SWAP1 PUSH2 0x100 EXP SWAP1 DIV PUSH1 0xFF AND DUP2 PUSH1 0x0 ADD PUSH1 0x0 PUSH2 0x100 EXP DUP2 SLOAD DUP2 PUSH1 0xFF MUL NOT AND SWAP1 DUP4 ISZERO ISZERO MUL OR SWAP1 SSTORE POP PUSH1 0x0 DUP3 ADD PUSH1 0x1 SWAP1 SLOAD SWAP1 PUSH2 0x100 EXP SWAP1 DIV PUSH1 0xFF AND DUP2 PUSH1 0x0 ADD PUSH1 0x1 PUSH2 0x100 EXP DUP2 SLOAD DUP2 PUSH1 0xFF MUL NOT AND SWAP1 DUP4 ISZERO ISZERO MUL OR SWAP1 SSTORE POP PUSH1 0x0 DUP3 ADD PUSH1 0x2 SWAP1 SLOAD SWAP1 PUSH2 0x100 EXP SWAP1 DIV PUSH20 0xFFFFFFFFFFFFFFFFFFFFFFFFFFFFFFFFFFFFFFFF AND DUP2 PUSH1 0x0 ADD PUSH1 0x2 PUSH2 0x100 EXP DUP2 SLOAD DUP2 PUSH20 0xFFFFFFFFFFFFFFFFFFFFFFFFFFFFFFFFFFFFFFFF MUL NOT AND SWAP1 DUP4 PUSH20 0xFFFFFFFFFFFFFFFFFFFFFFFFFFFFFFFFFFFFFFFF AND MUL OR SWAP1 SSTORE POP POP POP PUSH2 0xF39 JUMP JUMPDEST PUSH1 0x1 PUSH1 0x9 PUSH1 0x0 CALLER PUSH20 0xFFFFFFFFFFFFFFFFFFFFFFFFFFFFFFFFFFFFFFFF AND PUSH20 0xFFFFFFFFFFFFFFFFFFFFFFFFFFFFFFFFFFFFFFFF AND DUP2 MSTORE PUSH1 0x20 ADD SWAP1 DUP2 MSTORE PUSH1 0x20 ADD PUSH1 0x0 KECCAK256 PUSH1 0x0 ADD PUSH1 0x0 PUSH2 0x100 EXP DUP2 SLOAD DUP2 PUSH1 0xFF MUL NOT AND SWAP1 DUP4 ISZERO ISZERO MUL OR SWAP1 SSTORE POP PUSH1 0x1 PUSH1 0xA PUSH1 0x0 ADD PUSH1 0x0 DUP3 DUP3 SLOAD PUSH2 0xE08 SWAP2 SWAP1 PUSH2 0x23A5 JUMP JUMPDEST SWAP3 POP POP DUP2 SWAP1 SSTORE POP PUSH1 0x8 PUSH1 0x9 PUSH1 0x0 CALLER PUSH20 0xFFFFFFFFFFFFFFFFFFFFFFFFFFFFFFFFFFFFFFFF AND PUSH20 0xFFFFFFFFFFFFFFFFFFFFFFFFFFFFFFFFFFFFFFFF AND DUP2 MSTORE PUSH1 0x20 ADD SWAP1 DUP2 MSTORE PUSH1 0x20 ADD PUSH1 0x0 KECCAK256 SWAP1 DUP1 PUSH1 0x1 DUP2 SLOAD ADD DUP1 DUP3 SSTORE DUP1 SWAP2 POP POP PUSH1 0x1 SWAP1 SUB SWAP1 PUSH1 0x0 MSTORE PUSH1 0x20 PUSH1 0x0 KECCAK256 ADD PUSH1 0x0 SWAP1 SWAP2 SWAP1 SWAP2 SWAP1 SWAP2 POP PUSH1 0x0 DUP3 ADD PUSH1 0x0 SWAP1 SLOAD SWAP1 PUSH2 0x100 EXP SWAP1 DIV PUSH1 0xFF AND DUP2 PUSH1 0x0 ADD PUSH1 0x0 PUSH2 0x100 EXP DUP2 SLOAD DUP2 PUSH1 0xFF MUL NOT AND SWAP1 DUP4 ISZERO ISZERO MUL OR SWAP1 SSTORE POP PUSH1 0x0 DUP3 ADD PUSH1 0x1 SWAP1 SLOAD SWAP1 PUSH2 0x100 EXP SWAP1 DIV PUSH1 0xFF AND DUP2 PUSH1 0x0 ADD PUSH1 0x1 PUSH2 0x100 EXP DUP2 SLOAD DUP2 PUSH1 0xFF MUL NOT AND SWAP1 DUP4 ISZERO ISZERO MUL OR SWAP1 SSTORE POP PUSH1 0x0 DUP3 ADD PUSH1 0x2 SWAP1 SLOAD SWAP1 PUSH2 0x100 EXP SWAP1 DIV PUSH20 0xFFFFFFFFFFFFFFFFFFFFFFFFFFFFFFFFFFFFFFFF AND DUP2 PUSH1 0x0 ADD PUSH1 0x2 PUSH2 0x100 EXP DUP2 SLOAD DUP2 PUSH20 0xFFFFFFFFFFFFFFFFFFFFFFFFFFFFFFFFFFFFFFFF MUL NOT AND SWAP1 DUP4 PUSH20 0xFFFFFFFFFFFFFFFFFFFFFFFFFFFFFFFFFFFFFFFF AND MUL OR SWAP1 SSTORE POP POP POP JUMPDEST JUMPDEST POP JUMP JUMPDEST PUSH1 0x0 DUP1 PUSH1 0x0 PUSH1 0x9 PUSH1 0x0 DUP6 PUSH20 0xFFFFFFFFFFFFFFFFFFFFFFFFFFFFFFFFFFFFFFFF AND PUSH20 0xFFFFFFFFFFFFFFFFFFFFFFFFFFFFFFFFFFFFFFFF AND DUP2 MSTORE PUSH1 0x20 ADD SWAP1 DUP2 MSTORE PUSH1 0x20 ADD PUSH1 0x0 KECCAK256 PUSH1 0x0 ADD PUSH1 0x1 SWAP1 SLOAD SWAP1 PUSH2 0x100 EXP SWAP1 DIV PUSH1 0xFF AND PUSH1 0x9 PUSH1 0x0 DUP7 PUSH20 0xFFFFFFFFFFFFFFFFFFFFFFFFFFFFFFFFFFFFFFFF AND PUSH20 0xFFFFFFFFFFFFFFFFFFFFFFFFFFFFFFFFFFFFFFFF AND DUP2 MSTORE PUSH1 0x20 ADD SWAP1 DUP2 MSTORE PUSH1 0x20 ADD PUSH1 0x0 KECCAK256 PUSH1 0x0 ADD PUSH1 0x0 SWAP1 SLOAD SWAP1 PUSH2 0x100 EXP SWAP1 DIV PUSH1 0xFF AND PUSH1 0x9 PUSH1 0x0 DUP8 PUSH20 0xFFFFFFFFFFFFFFFFFFFFFFFFFFFFFFFFFFFFFFFF AND PUSH20 0xFFFFFFFFFFFFFFFFFFFFFFFFFFFFFFFFFFFFFFFF AND DUP2 MSTORE PUSH1 0x20 ADD SWAP1 DUP2 MSTORE PUSH1 0x20 ADD PUSH1 0x0 KECCAK256 PUSH1 0x0 ADD PUSH1 0x2 SWAP1 SLOAD SWAP1 PUSH2 0x100 EXP SWAP1 DIV PUSH20 0xFFFFFFFFFFFFFFFFFFFFFFFFFFFFFFFFFFFFFFFF AND SWAP3 POP SWAP3 POP SWAP3 POP SWAP2 SWAP4 SWAP1 SWAP3 POP JUMP JUMPDEST PUSH1 0x1 PUSH1 0x0 SWAP1 SLOAD SWAP1 PUSH2 0x100 EXP SWAP1 DIV PUSH20 0xFFFFFFFFFFFFFFFFFFFFFFFFFFFFFFFFFFFFFFFF AND DUP2 JUMP JUMPDEST PUSH1 0x5 SLOAD DUP2 JUMP JUMPDEST PUSH1 0xA DUP1 PUSH1 0x0 ADD SLOAD SWAP1 DUP1 PUSH1 0x1 ADD DUP1 SLOAD PUSH2 0x1095 SWAP1 PUSH2 0x2527 JUMP JUMPDEST DUP1 PUSH1 0x1F ADD PUSH1 0x20 DUP1 SWAP2 DIV MUL PUSH1 0x20 ADD PUSH1 0x40 MLOAD SWAP1 DUP2 ADD PUSH1 0x40 MSTORE DUP1 SWAP3 SWAP2 SWAP1 DUP2 DUP2 MSTORE PUSH1 0x20 ADD DUP3 DUP1 SLOAD PUSH2 0x10C1 SWAP1 PUSH2 0x2527 JUMP JUMPDEST DUP1 ISZERO PUSH2 0x110E JUMPI DUP1 PUSH1 0x1F LT PUSH2 0x10E3 JUMPI PUSH2 0x100 DUP1 DUP4 SLOAD DIV MUL DUP4 MSTORE SWAP2 PUSH1 0x20 ADD SWAP2 PUSH2 0x110E JUMP JUMPDEST DUP3 ADD SWAP2 SWAP1 PUSH1 0x0 MSTORE PUSH1 0x20 PUSH1 0x0 KECCAK256 SWAP1 JUMPDEST DUP2 SLOAD DUP2 MSTORE SWAP1 PUSH1 0x1 ADD SWAP1 PUSH1 0x20 ADD DUP1 DUP4 GT PUSH2 0x10F1 JUMPI DUP3 SWAP1 SUB PUSH1 0x1F AND DUP3 ADD SWAP2 JUMPDEST POP POP POP POP POP SWAP1 DUP1 PUSH1 0x2 ADD DUP1 SLOAD PUSH2 0x1123 SWAP1 PUSH2 0x2527 JUMP JUMPDEST DUP1 PUSH1 0x1F ADD PUSH1 0x20 DUP1 SWAP2 DIV MUL PUSH1 0x20 ADD PUSH1 0x40 MLOAD SWAP1 DUP2 ADD PUSH1 0x40 MSTORE DUP1 SWAP3 SWAP2 SWAP1 DUP2 DUP2 MSTORE PUSH1 0x20 ADD DUP3 DUP1 SLOAD PUSH2 0x114F SWAP1 PUSH2 0x2527 JUMP JUMPDEST DUP1 ISZERO PUSH2 0x119C JUMPI DUP1 PUSH1 0x1F LT PUSH2 0x1171 JUMPI PUSH2 0x100 DUP1 DUP4 SLOAD DIV MUL DUP4 MSTORE SWAP2 PUSH1 0x20 ADD SWAP2 PUSH2 0x119C JUMP JUMPDEST DUP3 ADD SWAP2 SWAP1 PUSH1 0x0 MSTORE PUSH1 0x20 PUSH1 0x0 KECCAK256 SWAP1 JUMPDEST DUP2 SLOAD DUP2 MSTORE SWAP1 PUSH1 0x1 ADD SWAP1 PUSH1 0x20 ADD DUP1 DUP4 GT PUSH2 0x117F JUMPI DUP3 SWAP1 SUB PUSH1 0x1F AND DUP3 ADD SWAP2 JUMPDEST POP POP POP POP POP SWAP1 DUP1 PUSH1 0x3 ADD DUP1 SLOAD PUSH2 0x11B1 SWAP1 PUSH2 0x2527 JUMP JUMPDEST DUP1 PUSH1 0x1F ADD PUSH1 0x20 DUP1 SWAP2 DIV MUL PUSH1 0x20 ADD PUSH1 0x40 MLOAD SWAP1 DUP2 ADD PUSH1 0x40 MSTORE DUP1 SWAP3 SWAP2 SWAP1 DUP2 DUP2 MSTORE PUSH1 0x20 ADD DUP3 DUP1 SLOAD PUSH2 0x11DD SWAP1 PUSH2 0x2527 JUMP JUMPDEST DUP1 ISZERO PUSH2 0x122A JUMPI DUP1 PUSH1 0x1F LT PUSH2 0x11FF JUMPI PUSH2 0x100 DUP1 DUP4 SLOAD DIV MUL DUP4 MSTORE SWAP2 PUSH1 0x20 ADD SWAP2 PUSH2 0x122A JUMP JUMPDEST DUP3 ADD SWAP2 SWAP1 PUSH1 0x0 MSTORE PUSH1 0x20 PUSH1 0x0 KECCAK256 SWAP1 JUMPDEST DUP2 SLOAD DUP2 MSTORE SWAP1 PUSH1 0x1 ADD SWAP1 PUSH1 0x20 ADD DUP1 DUP4 GT PUSH2 0x120D JUMPI DUP3 SWAP1 SUB PUSH1 0x1F AND DUP3 ADD SWAP2 JUMPDEST POP POP POP POP POP SWAP1 DUP1 PUSH1 0x4 ADD SLOAD SWAP1 DUP1 PUSH1 0x5 ADD SLOAD SWAP1 POP DUP7 JUMP JUMPDEST PUSH1 0x0 PUSH1 0x6 PUSH1 0x0 SWAP1 SLOAD SWAP1 PUSH2 0x100 EXP SWAP1 DIV PUSH1 0xFF AND SWAP1 POP SWAP1 JUMP JUMPDEST PUSH1 0x0 PUSH2 0x1261 PUSH2 0x1B00 JUMP JUMPDEST PUSH1 0x60 PUSH1 0x3 SLOAD TIMESTAMP LT ISZERO PUSH2 0x12A8 JUMPI PUSH1 0x40 MLOAD PUSH32 0x8C379A000000000000000000000000000000000000000000000000000000000 DUP2 MSTORE PUSH1 0x4 ADD PUSH2 0x129F SWAP1 PUSH2 0x21F8 JUMP JUMPDEST PUSH1 0x40 MLOAD DUP1 SWAP2 SUB SWAP1 REVERT JUMPDEST PUSH1 0x7 SLOAD PUSH1 0xA PUSH1 0x8 DUP2 PUSH1 0x40 MLOAD DUP1 PUSH1 0xC0 ADD PUSH1 0x40 MSTORE SWAP1 DUP2 PUSH1 0x0 DUP3 ADD SLOAD DUP2 MSTORE PUSH1 0x20 ADD PUSH1 0x1 DUP3 ADD DUP1 SLOAD PUSH2 0x12D5 SWAP1 PUSH2 0x2527 JUMP JUMPDEST DUP1 PUSH1 0x1F ADD PUSH1 0x20 DUP1 SWAP2 DIV MUL PUSH1 0x20 ADD PUSH1 0x40 MLOAD SWAP1 DUP2 ADD PUSH1 0x40 MSTORE DUP1 SWAP3 SWAP2 SWAP1 DUP2 DUP2 MSTORE PUSH1 0x20 ADD DUP3 DUP1 SLOAD PUSH2 0x1301 SWAP1 PUSH2 0x2527 JUMP JUMPDEST DUP1 ISZERO PUSH2 0x134E JUMPI DUP1 PUSH1 0x1F LT PUSH2 0x1323 JUMPI PUSH2 0x100 DUP1 DUP4 SLOAD DIV MUL DUP4 MSTORE SWAP2 PUSH1 0x20 ADD SWAP2 PUSH2 0x134E JUMP JUMPDEST DUP3 ADD SWAP2 SWAP1 PUSH1 0x0 MSTORE PUSH1 0x20 PUSH1 0x0 KECCAK256 SWAP1 JUMPDEST DUP2 SLOAD DUP2 MSTORE SWAP1 PUSH1 0x1 ADD SWAP1 PUSH1 0x20 ADD DUP1 DUP4 GT PUSH2 0x1331 JUMPI DUP3 SWAP1 SUB PUSH1 0x1F AND DUP3 ADD SWAP2 JUMPDEST POP POP POP POP POP DUP2 MSTORE PUSH1 0x20 ADD PUSH1 0x2 DUP3 ADD DUP1 SLOAD PUSH2 0x1367 SWAP1 PUSH2 0x2527 JUMP JUMPDEST DUP1 PUSH1 0x1F ADD PUSH1 0x20 DUP1 SWAP2 DIV MUL PUSH1 0x20 ADD PUSH1 0x40 MLOAD SWAP1 DUP2 ADD PUSH1 0x40 MSTORE DUP1 SWAP3 SWAP2 SWAP1 DUP2 DUP2 MSTORE PUSH1 0x20 ADD DUP3 DUP1 SLOAD PUSH2 0x1393 SWAP1 PUSH2 0x2527 JUMP JUMPDEST DUP1 ISZERO PUSH2 0x13E0 JUMPI DUP1 PUSH1 0x1F LT PUSH2 0x13B5 JUMPI PUSH2 0x100 DUP1 DUP4 SLOAD DIV MUL DUP4 MSTORE SWAP2 PUSH1 0x20 ADD SWAP2 PUSH2 0x13E0 JUMP JUMPDEST DUP3 ADD SWAP2 SWAP1 PUSH1 0x0 MSTORE PUSH1 0x20 PUSH1 0x0 KECCAK256 SWAP1 JUMPDEST DUP2 SLOAD DUP2 MSTORE SWAP1 PUSH1 0x1 ADD SWAP1 PUSH1 0x20 ADD DUP1 DUP4 GT PUSH2 0x13C3 JUMPI DUP3 SWAP1 SUB PUSH1 0x1F AND DUP3 ADD SWAP2 JUMPDEST POP POP POP POP POP DUP2 MSTORE PUSH1 0x20 ADD PUSH1 0x3 DUP3 ADD DUP1 SLOAD PUSH2 0x13F9 SWAP1 PUSH2 0x2527 JUMP JUMPDEST DUP1 PUSH1 0x1F ADD PUSH1 0x20 DUP1 SWAP2 DIV MUL PUSH1 0x20 ADD PUSH1 0x40 MLOAD SWAP1 DUP2 ADD PUSH1 0x40 MSTORE DUP1 SWAP3 SWAP2 SWAP1 DUP2 DUP2 MSTORE PUSH1 0x20 ADD DUP3 DUP1 SLOAD PUSH2 0x1425 SWAP1 PUSH2 0x2527 JUMP JUMPDEST DUP1 ISZERO PUSH2 0x1472 JUMPI DUP1 PUSH1 0x1F LT PUSH2 0x1447 JUMPI PUSH2 0x100 DUP1 DUP4 SLOAD DIV MUL DUP4 MSTORE SWAP2 PUSH1 0x20 ADD SWAP2 PUSH2 0x1472 JUMP JUMPDEST DUP3 ADD SWAP2 SWAP1 PUSH1 0x0 MSTORE PUSH1 0x20 PUSH1 0x0 KECCAK256 SWAP1 JUMPDEST DUP2 SLOAD DUP2 MSTORE SWAP1 PUSH1 0x1 ADD SWAP1 PUSH1 0x20 ADD DUP1 DUP4 GT PUSH2 0x1455 JUMPI DUP3 SWAP1 SUB PUSH1 0x1F AND DUP3 ADD SWAP2 JUMPDEST POP POP POP POP POP DUP2 MSTORE PUSH1 0x20 ADD PUSH1 0x4 DUP3 ADD SLOAD DUP2 MSTORE PUSH1 0x20 ADD PUSH1 0x5 DUP3 ADD SLOAD DUP2 MSTORE POP POP SWAP2 POP DUP1 DUP1 SLOAD DUP1 PUSH1 0x20 MUL PUSH1 0x20 ADD PUSH1 0x40 MLOAD SWAP1 DUP2 ADD PUSH1 0x40 MSTORE DUP1 SWAP3 SWAP2 SWAP1 DUP2 DUP2 MSTORE PUSH1 0x20 ADD PUSH1 0x0 SWAP1 JUMPDEST DUP3 DUP3 LT ISZERO PUSH2 0x156C JUMPI DUP4 DUP3 SWAP1 PUSH1 0x0 MSTORE PUSH1 0x20 PUSH1 0x0 KECCAK256 ADD PUSH1 0x40 MLOAD DUP1 PUSH1 0x60 ADD PUSH1 0x40 MSTORE SWAP1 DUP2 PUSH1 0x0 DUP3 ADD PUSH1 0x0 SWAP1 SLOAD SWAP1 PUSH2 0x100 EXP SWAP1 DIV PUSH1 0xFF AND ISZERO ISZERO ISZERO ISZERO DUP2 MSTORE PUSH1 0x20 ADD PUSH1 0x0 DUP3 ADD PUSH1 0x1 SWAP1 SLOAD SWAP1 PUSH2 0x100 EXP SWAP1 DIV PUSH1 0xFF AND ISZERO ISZERO ISZERO ISZERO DUP2 MSTORE PUSH1 0x20 ADD PUSH1 0x0 DUP3 ADD PUSH1 0x2 SWAP1 SLOAD SWAP1 PUSH2 0x100 EXP SWAP1 DIV PUSH20 0xFFFFFFFFFFFFFFFFFFFFFFFFFFFFFFFFFFFFFFFF AND PUSH20 0xFFFFFFFFFFFFFFFFFFFFFFFFFFFFFFFFFFFFFFFF AND PUSH20 0xFFFFFFFFFFFFFFFFFFFFFFFFFFFFFFFFFFFFFFFF AND DUP2 MSTORE POP POP DUP2 MSTORE PUSH1 0x20 ADD SWAP1 PUSH1 0x1 ADD SWAP1 PUSH2 0x14B2 JUMP JUMPDEST POP POP POP POP SWAP1 POP SWAP3 POP SWAP3 POP SWAP3 POP SWAP1 SWAP2 SWAP3 JUMP JUMPDEST PUSH1 0x3 SLOAD TIMESTAMP LT ISZERO PUSH2 0x15C2 JUMPI PUSH1 0x40 MLOAD PUSH32 0x8C379A000000000000000000000000000000000000000000000000000000000 DUP2 MSTORE PUSH1 0x4 ADD PUSH2 0x15B9 SWAP1 PUSH2 0x21F8 JUMP JUMPDEST PUSH1 0x40 MLOAD DUP1 SWAP2 SUB SWAP1 REVERT JUMPDEST PUSH1 0x0 ISZERO ISZERO PUSH1 0x6 PUSH1 0x0 SWAP1 SLOAD SWAP1 PUSH2 0x100 EXP SWAP1 DIV PUSH1 0xFF AND ISZERO ISZERO EQ PUSH2 0x1618 JUMPI PUSH1 0x40 MLOAD PUSH32 0x8C379A000000000000000000000000000000000000000000000000000000000 DUP2 MSTORE PUSH1 0x4 ADD PUSH2 0x160F SWAP1 PUSH2 0x2238 JUMP JUMPDEST PUSH1 0x40 MLOAD DUP1 SWAP2 SUB SWAP1 REVERT JUMPDEST PUSH1 0x1 PUSH1 0x0 SWAP1 SLOAD SWAP1 PUSH2 0x100 EXP SWAP1 DIV PUSH20 0xFFFFFFFFFFFFFFFFFFFFFFFFFFFFFFFFFFFFFFFF AND PUSH20 0xFFFFFFFFFFFFFFFFFFFFFFFFFFFFFFFFFFFFFFFF AND CALLER PUSH20 0xFFFFFFFFFFFFFFFFFFFFFFFFFFFFFFFFFFFFFFFF AND EQ DUP1 PUSH2 0x1703 JUMPI POP PUSH1 0x0 PUSH20 0xFFFFFFFFFFFFFFFFFFFFFFFFFFFFFFFFFFFFFFFF AND PUSH1 0x9 PUSH1 0x0 CALLER PUSH20 0xFFFFFFFFFFFFFFFFFFFFFFFFFFFFFFFFFFFFFFFF AND PUSH20 0xFFFFFFFFFFFFFFFFFFFFFFFFFFFFFFFFFFFFFFFF AND DUP2 MSTORE PUSH1 0x20 ADD SWAP1 DUP2 MSTORE PUSH1 0x20 ADD PUSH1 0x0 KECCAK256 PUSH1 0x0 ADD PUSH1 0x2 SWAP1 SLOAD SWAP1 PUSH2 0x100 EXP SWAP1 DIV PUSH20 0xFFFFFFFFFFFFFFFFFFFFFFFFFFFFFFFFFFFFFFFF AND PUSH20 0xFFFFFFFFFFFFFFFFFFFFFFFFFFFFFFFFFFFFFFFF AND EQ ISZERO JUMPDEST PUSH2 0x1742 JUMPI PUSH1 0x40 MLOAD PUSH32 0x8C379A000000000000000000000000000000000000000000000000000000000 DUP2 MSTORE PUSH1 0x4 ADD PUSH2 0x1739 SWAP1 PUSH2 0x2138 JUMP JUMPDEST PUSH1 0x40 MLOAD DUP1 SWAP2 SUB SWAP1 REVERT JUMPDEST PUSH1 0x0 PUSH1 0x64 PUSH1 0x2 DUP1 SLOAD SWAP1 POP PUSH1 0x5 SLOAD PUSH2 0x1759 SWAP2 SWAP1 PUSH2 0x23FB JUMP JUMPDEST PUSH2 0x1763 SWAP2 SWAP1 PUSH2 0x242C JUMP JUMPDEST SWAP1 POP PUSH1 0x4 SLOAD DUP2 LT PUSH2 0x1796 JUMPI PUSH32 0x4163636570746564000000000000000000000000000000000000000000000000 PUSH1 0x7 DUP2 SWAP1 SSTORE POP JUMPDEST PUSH1 0x0 JUMPDEST PUSH1 0x2 DUP1 SLOAD SWAP1 POP DUP2 PUSH1 0xFF AND LT ISZERO PUSH2 0x19C4 JUMPI PUSH1 0x0 ISZERO ISZERO PUSH1 0x9 PUSH1 0x0 PUSH1 0x2 DUP5 PUSH1 0xFF AND DUP2 SLOAD DUP2 LT PUSH2 0x17C8 JUMPI PUSH2 0x17C7 PUSH2 0x2641 JUMP JUMPDEST JUMPDEST SWAP1 PUSH1 0x0 MSTORE PUSH1 0x20 PUSH1 0x0 KECCAK256 ADD PUSH1 0x0 SWAP1 SLOAD SWAP1 PUSH2 0x100 EXP SWAP1 DIV PUSH20 0xFFFFFFFFFFFFFFFFFFFFFFFFFFFFFFFFFFFFFFFF AND PUSH20 0xFFFFFFFFFFFFFFFFFFFFFFFFFFFFFFFFFFFFFFFF AND PUSH20 0xFFFFFFFFFFFFFFFFFFFFFFFFFFFFFFFFFFFFFFFF AND DUP2 MSTORE PUSH1 0x20 ADD SWAP1 DUP2 MSTORE PUSH1 0x20 ADD PUSH1 0x0 KECCAK256 PUSH1 0x0 ADD PUSH1 0x0 SWAP1 SLOAD SWAP1 PUSH2 0x100 EXP SWAP1 DIV PUSH1 0xFF AND ISZERO ISZERO EQ ISZERO PUSH2 0x19B1 JUMPI PUSH1 0x8 PUSH1 0x9 PUSH1 0x0 PUSH1 0x2 DUP5 PUSH1 0xFF AND DUP2 SLOAD DUP2 LT PUSH2 0x1863 JUMPI PUSH2 0x1862 PUSH2 0x2641 JUMP JUMPDEST JUMPDEST SWAP1 PUSH1 0x0 MSTORE PUSH1 0x20 PUSH1 0x0 KECCAK256 ADD PUSH1 0x0 SWAP1 SLOAD SWAP1 PUSH2 0x100 EXP SWAP1 DIV PUSH20 0xFFFFFFFFFFFFFFFFFFFFFFFFFFFFFFFFFFFFFFFF AND PUSH20 0xFFFFFFFFFFFFFFFFFFFFFFFFFFFFFFFFFFFFFFFF AND PUSH20 0xFFFFFFFFFFFFFFFFFFFFFFFFFFFFFFFFFFFFFFFF AND DUP2 MSTORE PUSH1 0x20 ADD SWAP1 DUP2 MSTORE PUSH1 0x20 ADD PUSH1 0x0 KECCAK256 SWAP1 DUP1 PUSH1 0x1 DUP2 SLOAD ADD DUP1 DUP3 SSTORE DUP1 SWAP2 POP POP PUSH1 0x1 SWAP1 SUB SWAP1 PUSH1 0x0 MSTORE PUSH1 0x20 PUSH1 0x0 KECCAK256 ADD PUSH1 0x0 SWAP1 SWAP2 SWAP1 SWAP2 SWAP1 SWAP2 POP PUSH1 0x0 DUP3 ADD PUSH1 0x0 SWAP1 SLOAD SWAP1 PUSH2 0x100 EXP SWAP1 DIV PUSH1 0xFF AND DUP2 PUSH1 0x0 ADD PUSH1 0x0 PUSH2 0x100 EXP DUP2 SLOAD DUP2 PUSH1 0xFF MUL NOT AND SWAP1 DUP4 ISZERO ISZERO MUL OR SWAP1 SSTORE POP PUSH1 0x0 DUP3 ADD PUSH1 0x1 SWAP1 SLOAD SWAP1 PUSH2 0x100 EXP SWAP1 DIV PUSH1 0xFF AND DUP2 PUSH1 0x0 ADD PUSH1 0x1 PUSH2 0x100 EXP DUP2 SLOAD DUP2 PUSH1 0xFF MUL NOT AND SWAP1 DUP4 ISZERO ISZERO MUL OR SWAP1 SSTORE POP PUSH1 0x0 DUP3 ADD PUSH1 0x2 SWAP1 SLOAD SWAP1 PUSH2 0x100 EXP SWAP1 DIV PUSH20 0xFFFFFFFFFFFFFFFFFFFFFFFFFFFFFFFFFFFFFFFF AND DUP2 PUSH1 0x0 ADD PUSH1 0x2 PUSH2 0x100 EXP DUP2 SLOAD DUP2 PUSH20 0xFFFFFFFFFFFFFFFFFFFFFFFFFFFFFFFFFFFFFFFF MUL NOT AND SWAP1 DUP4 PUSH20 0xFFFFFFFFFFFFFFFFFFFFFFFFFFFFFFFFFFFFFFFF AND MUL OR SWAP1 SSTORE POP POP POP JUMPDEST DUP1 DUP1 PUSH2 0x19BC SWAP1 PUSH2 0x258A JUMP JUMPDEST SWAP2 POP POP PUSH2 0x1799 JUMP JUMPDEST POP PUSH1 0x1 PUSH1 0x6 PUSH1 0x0 PUSH2 0x100 EXP DUP2 SLOAD DUP2 PUSH1 0xFF MUL NOT AND SWAP1 DUP4 ISZERO ISZERO MUL OR SWAP1 SSTORE POP POP JUMP JUMPDEST PUSH1 0x9 PUSH1 0x20 MSTORE DUP1 PUSH1 0x0 MSTORE PUSH1 0x40 PUSH1 0x0 KECCAK256 PUSH1 0x0 SWAP2 POP SWAP1 POP DUP1 PUSH1 0x0 ADD PUSH1 0x0 SWAP1 SLOAD SWAP1 PUSH2 0x100 EXP SWAP1 DIV PUSH1 0xFF AND SWAP1 DUP1 PUSH1 0x0 ADD PUSH1 0x1 SWAP1 SLOAD SWAP1 PUSH2 0x100 EXP SWAP1 DIV PUSH1 0xFF AND SWAP1 DUP1 PUSH1 0x0 ADD PUSH1 0x2 SWAP1 SLOAD SWAP1 PUSH2 0x100 EXP SWAP1 DIV PUSH20 0xFFFFFFFFFFFFFFFFFFFFFFFFFFFFFFFFFFFFFFFF AND SWAP1 POP DUP4 JUMP JUMPDEST PUSH1 0x0 DUP1 PUSH1 0x0 PUSH1 0xA PUSH1 0x4 ADD SLOAD PUSH1 0xA PUSH1 0x5 ADD SLOAD PUSH1 0x4 SLOAD SWAP3 POP SWAP3 POP SWAP3 POP SWAP1 SWAP2 SWAP3 JUMP JUMPDEST PUSH1 0x4 SLOAD DUP2 JUMP JUMPDEST PUSH1 0x8 DUP2 DUP2 SLOAD DUP2 LT PUSH2 0x1A7C JUMPI PUSH1 0x0 DUP1 REVERT JUMPDEST SWAP1 PUSH1 0x0 MSTORE PUSH1 0x20 PUSH1 0x0 KECCAK256 ADD PUSH1 0x0 SWAP2 POP SWAP1 POP DUP1 PUSH1 0x0 ADD PUSH1 0x0 SWAP1 SLOAD SWAP1 PUSH2 0x100 EXP SWAP1 DIV PUSH1 0xFF AND SWAP1 DUP1 PUSH1 0x0 ADD PUSH1 0x1 SWAP1 SLOAD SWAP1 PUSH2 0x100 EXP SWAP1 DIV PUSH1 0xFF AND SWAP1 DUP1 PUSH1 0x0 ADD PUSH1 0x2 SWAP1 SLOAD SWAP1 PUSH2 0x100 EXP SWAP1 DIV PUSH20 0xFFFFFFFFFFFFFFFFFFFFFFFFFFFFFFFFFFFFFFFF AND SWAP1 POP DUP4 JUMP JUMPDEST PUSH1 0x0 DUP1 SLOAD SWAP1 PUSH2 0x100 EXP SWAP1 DIV PUSH20 0xFFFFFFFFFFFFFFFFFFFFFFFFFFFFFFFFFFFFFFFF AND DUP2 JUMP JUMPDEST PUSH1 0x40 MLOAD DUP1 PUSH1 0xC0 ADD PUSH1 0x40 MSTORE DUP1 PUSH1 0x0 DUP2 MSTORE PUSH1 0x20 ADD PUSH1 0x60 DUP2 MSTORE PUSH1 0x20 ADD PUSH1 0x60 DUP2 MSTORE PUSH1 0x20 ADD PUSH1 0x60 DUP2 MSTORE PUSH1 0x20 ADD PUSH1 0x0 DUP1 NOT AND DUP2 MSTORE PUSH1 0x20 ADD PUSH1 0x0 DUP2 MSTORE POP SWAP1 JUMP JUMPDEST PUSH1 0x0 PUSH2 0x1B4C PUSH2 0x1B47 DUP5 PUSH2 0x230E JUMP JUMPDEST PUSH2 0x22E9 JUMP JUMPDEST SWAP1 POP DUP3 DUP2 MSTORE PUSH1 0x20 DUP2 ADD DUP5 DUP5 DUP5 ADD GT ISZERO PUSH2 0x1B68 JUMPI PUSH2 0x1B67 PUSH2 0x26A4 JUMP JUMPDEST JUMPDEST PUSH2 0x1B73 DUP5 DUP3 DUP6 PUSH2 0x24E5 JUMP JUMPDEST POP SWAP4 SWAP3 POP POP POP JUMP JUMPDEST PUSH1 0x0 DUP2 CALLDATALOAD SWAP1 POP PUSH2 0x1B8A DUP2 PUSH2 0x28F6 JUMP JUMPDEST SWAP3 SWAP2 POP POP JUMP JUMPDEST PUSH1 0x0 DUP3 PUSH1 0x1F DUP4 ADD SLT PUSH2 0x1BA5 JUMPI PUSH2 0x1BA4 PUSH2 0x269F JUMP JUMPDEST JUMPDEST DUP2 CALLDATALOAD PUSH2 0x1BB5 DUP5 DUP3 PUSH1 0x20 DUP7 ADD PUSH2 0x1B39 JUMP JUMPDEST SWAP2 POP POP SWAP3 SWAP2 POP POP JUMP JUMPDEST PUSH1 0x0 DUP2 CALLDATALOAD SWAP1 POP PUSH2 0x1BCD DUP2 PUSH2 0x290D JUMP JUMPDEST SWAP3 SWAP2 POP POP JUMP JUMPDEST PUSH1 0x0 PUSH1 0x20 DUP3 DUP5 SUB SLT ISZERO PUSH2 0x1BE9 JUMPI PUSH2 0x1BE8 PUSH2 0x26AE JUMP JUMPDEST JUMPDEST PUSH1 0x0 PUSH2 0x1BF7 DUP5 DUP3 DUP6 ADD PUSH2 0x1B7B JUMP JUMPDEST SWAP2 POP POP SWAP3 SWAP2 POP POP JUMP JUMPDEST PUSH1 0x0 PUSH1 0x20 DUP3 DUP5 SUB SLT ISZERO PUSH2 0x1C16 JUMPI PUSH2 0x1C15 PUSH2 0x26AE JUMP JUMPDEST JUMPDEST PUSH1 0x0 DUP3 ADD CALLDATALOAD PUSH8 0xFFFFFFFFFFFFFFFF DUP2 GT ISZERO PUSH2 0x1C34 JUMPI PUSH2 0x1C33 PUSH2 0x26A9 JUMP JUMPDEST JUMPDEST PUSH2 0x1C40 DUP5 DUP3 DUP6 ADD PUSH2 0x1B90 JUMP JUMPDEST SWAP2 POP POP SWAP3 SWAP2 POP POP JUMP JUMPDEST PUSH1 0x0 PUSH1 0x20 DUP3 DUP5 SUB SLT ISZERO PUSH2 0x1C5F JUMPI PUSH2 0x1C5E PUSH2 0x26AE JUMP JUMPDEST JUMPDEST PUSH1 0x0 PUSH2 0x1C6D DUP5 DUP3 DUP6 ADD PUSH2 0x1BBE JUMP JUMPDEST SWAP2 POP POP SWAP3 SWAP2 POP POP JUMP JUMPDEST PUSH1 0x0 PUSH2 0x1C82 DUP4 DUP4 PUSH2 0x1FAD JUMP JUMPDEST PUSH1 0x60 DUP4 ADD SWAP1 POP SWAP3 SWAP2 POP POP JUMP JUMPDEST PUSH2 0x1C97 DUP2 PUSH2 0x2486 JUMP JUMPDEST DUP3 MSTORE POP POP JUMP JUMPDEST PUSH2 0x1CA6 DUP2 PUSH2 0x2486 JUMP JUMPDEST DUP3 MSTORE POP POP JUMP JUMPDEST PUSH1 0x0 PUSH2 0x1CB7 DUP3 PUSH2 0x234F JUMP JUMPDEST PUSH2 0x1CC1 DUP2 DUP6 PUSH2 0x2372 JUMP JUMPDEST SWAP4 POP PUSH2 0x1CCC DUP4 PUSH2 0x233F JUMP JUMPDEST DUP1 PUSH1 0x0 JUMPDEST DUP4 DUP2 LT ISZERO PUSH2 0x1CFD JUMPI DUP2 MLOAD PUSH2 0x1CE4 DUP9 DUP3 PUSH2 0x1C76 JUMP JUMPDEST SWAP8 POP PUSH2 0x1CEF DUP4 PUSH2 0x2365 JUMP JUMPDEST SWAP3 POP POP PUSH1 0x1 DUP2 ADD SWAP1 POP PUSH2 0x1CD0 JUMP JUMPDEST POP DUP6 SWAP4 POP POP POP POP SWAP3 SWAP2 POP POP JUMP JUMPDEST PUSH2 0x1D13 DUP2 PUSH2 0x2498 JUMP JUMPDEST DUP3 MSTORE POP POP JUMP JUMPDEST PUSH2 0x1D22 DUP2 PUSH2 0x2498 JUMP JUMPDEST DUP3 MSTORE POP POP JUMP JUMPDEST PUSH2 0x1D31 DUP2 PUSH2 0x24A4 JUMP JUMPDEST DUP3 MSTORE POP POP JUMP JUMPDEST PUSH2 0x1D40 DUP2 PUSH2 0x24A4 JUMP JUMPDEST DUP3 MSTORE POP POP JUMP JUMPDEST PUSH1 0x0 PUSH2 0x1D51 DUP3 PUSH2 0x235A JUMP JUMPDEST PUSH2 0x1D5B DUP2 DUP6 PUSH2 0x2383 JUMP JUMPDEST SWAP4 POP PUSH2 0x1D6B DUP2 DUP6 PUSH1 0x20 DUP7 ADD PUSH2 0x24F4 JUMP JUMPDEST PUSH2 0x1D74 DUP2 PUSH2 0x26B3 JUMP JUMPDEST DUP5 ADD SWAP2 POP POP SWAP3 SWAP2 POP POP JUMP JUMPDEST PUSH1 0x0 PUSH2 0x1D8A DUP3 PUSH2 0x235A JUMP JUMPDEST PUSH2 0x1D94 DUP2 DUP6 PUSH2 0x2394 JUMP JUMPDEST SWAP4 POP PUSH2 0x1DA4 DUP2 DUP6 PUSH1 0x20 DUP7 ADD PUSH2 0x24F4 JUMP JUMPDEST PUSH2 0x1DAD DUP2 PUSH2 0x26B3 JUMP JUMPDEST DUP5 ADD SWAP2 POP POP SWAP3 SWAP2 POP POP JUMP JUMPDEST PUSH1 0x0 PUSH2 0x1DC5 PUSH1 0x1F DUP4 PUSH2 0x2394 JUMP JUMPDEST SWAP2 POP PUSH2 0x1DD0 DUP3 PUSH2 0x26C4 JUMP JUMPDEST PUSH1 0x20 DUP3 ADD SWAP1 POP SWAP2 SWAP1 POP JUMP JUMPDEST PUSH1 0x0 PUSH2 0x1DE8 PUSH1 0x26 DUP4 PUSH2 0x2394 JUMP JUMPDEST SWAP2 POP PUSH2 0x1DF3 DUP3 PUSH2 0x26ED JUMP JUMPDEST PUSH1 0x40 DUP3 ADD SWAP1 POP SWAP2 SWAP1 POP JUMP JUMPDEST PUSH1 0x0 PUSH2 0x1E0B PUSH1 0x1C DUP4 PUSH2 0x2394 JUMP JUMPDEST SWAP2 POP PUSH2 0x1E16 DUP3 PUSH2 0x273C JUMP JUMPDEST PUSH1 0x20 DUP3 ADD SWAP1 POP SWAP2 SWAP1 POP JUMP JUMPDEST PUSH1 0x0 PUSH2 0x1E2E PUSH1 0x15 DUP4 PUSH2 0x2394 JUMP JUMPDEST SWAP2 POP PUSH2 0x1E39 DUP3 PUSH2 0x2765 JUMP JUMPDEST PUSH1 0x20 DUP3 ADD SWAP1 POP SWAP2 SWAP1 POP JUMP JUMPDEST PUSH1 0x0 PUSH2 0x1E51 PUSH1 0x1E DUP4 PUSH2 0x2394 JUMP JUMPDEST SWAP2 POP PUSH2 0x1E5C DUP3 PUSH2 0x278E JUMP JUMPDEST PUSH1 0x20 DUP3 ADD SWAP1 POP SWAP2 SWAP1 POP JUMP JUMPDEST PUSH1 0x0 PUSH2 0x1E74 PUSH1 0x24 DUP4 PUSH2 0x2394 JUMP JUMPDEST SWAP2 POP PUSH2 0x1E7F DUP3 PUSH2 0x27B7 JUMP JUMPDEST PUSH1 0x40 DUP3 ADD SWAP1 POP SWAP2 SWAP1 POP JUMP JUMPDEST PUSH1 0x0 PUSH2 0x1E97 PUSH1 0x28 DUP4 PUSH2 0x2394 JUMP JUMPDEST SWAP2 POP PUSH2 0x1EA2 DUP3 PUSH2 0x2806 JUMP JUMPDEST PUSH1 0x40 DUP3 ADD SWAP1 POP SWAP2 SWAP1 POP JUMP JUMPDEST PUSH1 0x0 PUSH2 0x1EBA PUSH1 0x20 DUP4 PUSH2 0x2394 JUMP JUMPDEST SWAP2 POP PUSH2 0x1EC5 DUP3 PUSH2 0x2855 JUMP JUMPDEST PUSH1 0x20 DUP3 ADD SWAP1 POP SWAP2 SWAP1 POP JUMP JUMPDEST PUSH1 0x0 PUSH2 0x1EDD PUSH1 0x12 DUP4 PUSH2 0x2394 JUMP JUMPDEST SWAP2 POP PUSH2 0x1EE8 DUP3 PUSH2 0x287E JUMP JUMPDEST PUSH1 0x20 DUP3 ADD SWAP1 POP SWAP2 SWAP1 POP JUMP JUMPDEST PUSH1 0x0 PUSH2 0x1F00 PUSH1 0x25 DUP4 PUSH2 0x2394 JUMP JUMPDEST SWAP2 POP PUSH2 0x1F0B DUP3 PUSH2 0x28A7 JUMP JUMPDEST PUSH1 0x40 DUP3 ADD SWAP1 POP SWAP2 SWAP1 POP JUMP JUMPDEST PUSH1 0x0 PUSH1 0xC0 DUP4 ADD PUSH1 0x0 DUP4 ADD MLOAD PUSH2 0x1F2E PUSH1 0x0 DUP7 ADD DUP3 PUSH2 0x1FEF JUMP JUMPDEST POP PUSH1 0x20 DUP4 ADD MLOAD DUP5 DUP3 SUB PUSH1 0x20 DUP7 ADD MSTORE PUSH2 0x1F46 DUP3 DUP3 PUSH2 0x1D46 JUMP JUMPDEST SWAP2 POP POP PUSH1 0x40 DUP4 ADD MLOAD DUP5 DUP3 SUB PUSH1 0x40 DUP7 ADD MSTORE PUSH2 0x1F60 DUP3 DUP3 PUSH2 0x1D46 JUMP JUMPDEST SWAP2 POP POP PUSH1 0x60 DUP4 ADD MLOAD DUP5 DUP3 SUB PUSH1 0x60 DUP7 ADD MSTORE PUSH2 0x1F7A DUP3 DUP3 PUSH2 0x1D46 JUMP JUMPDEST SWAP2 POP POP PUSH1 0x80 DUP4 ADD MLOAD PUSH2 0x1F8F PUSH1 0x80 DUP7 ADD DUP3 PUSH2 0x1D28 JUMP JUMPDEST POP PUSH1 0xA0 DUP4 ADD MLOAD PUSH2 0x1FA2 PUSH1 0xA0 DUP7 ADD DUP3 PUSH2 0x1FEF JUMP JUMPDEST POP DUP1 SWAP2 POP POP SWAP3 SWAP2 POP POP JUMP JUMPDEST PUSH1 0x60 DUP3 ADD PUSH1 0x0 DUP3 ADD MLOAD PUSH2 0x1FC3 PUSH1 0x0 DUP6 ADD DUP3 PUSH2 0x1D0A JUMP JUMPDEST POP PUSH1 0x20 DUP3 ADD MLOAD PUSH2 0x1FD6 PUSH1 0x20 DUP6 ADD DUP3 PUSH2 0x1D0A JUMP JUMPDEST POP PUSH1 0x40 DUP3 ADD MLOAD PUSH2 0x1FE9 PUSH1 0x40 DUP6 ADD DUP3 PUSH2 0x1C8E JUMP JUMPDEST POP POP POP POP JUMP JUMPDEST PUSH2 0x1FF8 DUP2 PUSH2 0x24CE JUMP JUMPDEST DUP3 MSTORE POP POP JUMP JUMPDEST PUSH2 0x2007 DUP2 PUSH2 0x24CE JUMP JUMPDEST DUP3 MSTORE POP POP JUMP JUMPDEST PUSH1 0x0 PUSH1 0x20 DUP3 ADD SWAP1 POP PUSH2 0x2022 PUSH1 0x0 DUP4 ADD DUP5 PUSH2 0x1C9D JUMP JUMPDEST SWAP3 SWAP2 POP POP JUMP JUMPDEST PUSH1 0x0 PUSH1 0x20 DUP3 ADD SWAP1 POP PUSH2 0x203D PUSH1 0x0 DUP4 ADD DUP5 PUSH2 0x1D19 JUMP JUMPDEST SWAP3 SWAP2 POP POP JUMP JUMPDEST PUSH1 0x0 PUSH1 0x60 DUP3 ADD SWAP1 POP PUSH2 0x2058 PUSH1 0x0 DUP4 ADD DUP7 PUSH2 0x1D19 JUMP JUMPDEST PUSH2 0x2065 PUSH1 0x20 DUP4 ADD DUP6 PUSH2 0x1D19 JUMP JUMPDEST PUSH2 0x2072 PUSH1 0x40 DUP4 ADD DUP5 PUSH2 0x1C9D JUMP JUMPDEST SWAP5 SWAP4 POP POP POP POP JUMP JUMPDEST PUSH1 0x0 PUSH1 0x60 DUP3 ADD SWAP1 POP PUSH2 0x208F PUSH1 0x0 DUP4 ADD DUP7 PUSH2 0x1D37 JUMP JUMPDEST DUP2 DUP2 SUB PUSH1 0x20 DUP4 ADD MSTORE PUSH2 0x20A1 DUP2 DUP6 PUSH2 0x1F16 JUMP JUMPDEST SWAP1 POP DUP2 DUP2 SUB PUSH1 0x40 DUP4 ADD MSTORE PUSH2 0x20B5 DUP2 DUP5 PUSH2 0x1CAC JUMP JUMPDEST SWAP1 POP SWAP5 SWAP4 POP POP POP POP JUMP JUMPDEST PUSH1 0x0 PUSH1 0x60 DUP3 ADD SWAP1 POP PUSH2 0x20D4 PUSH1 0x0 DUP4 ADD DUP7 PUSH2 0x1D37 JUMP JUMPDEST PUSH2 0x20E1 PUSH1 0x20 DUP4 ADD DUP6 PUSH2 0x1FFE JUMP JUMPDEST PUSH2 0x20EE PUSH1 0x40 DUP4 ADD DUP5 PUSH2 0x1FFE JUMP JUMPDEST SWAP5 SWAP4 POP POP POP POP JUMP JUMPDEST PUSH1 0x0 PUSH1 0x20 DUP3 ADD SWAP1 POP DUP2 DUP2 SUB PUSH1 0x0 DUP4 ADD MSTORE PUSH2 0x2110 DUP2 DUP5 PUSH2 0x1D7F JUMP JUMPDEST SWAP1 POP SWAP3 SWAP2 POP POP JUMP JUMPDEST PUSH1 0x0 PUSH1 0x20 DUP3 ADD SWAP1 POP DUP2 DUP2 SUB PUSH1 0x0 DUP4 ADD MSTORE PUSH2 0x2131 DUP2 PUSH2 0x1DB8 JUMP JUMPDEST SWAP1 POP SWAP2 SWAP1 POP JUMP JUMPDEST PUSH1 0x0 PUSH1 0x20 DUP3 ADD SWAP1 POP DUP2 DUP2 SUB PUSH1 0x0 DUP4 ADD MSTORE PUSH2 0x2151 DUP2 PUSH2 0x1DDB JUMP JUMPDEST SWAP1 POP SWAP2 SWAP1 POP JUMP JUMPDEST PUSH1 0x0 PUSH1 0x20 DUP3 ADD SWAP1 POP DUP2 DUP2 SUB PUSH1 0x0 DUP4 ADD MSTORE PUSH2 0x2171 DUP2 PUSH2 0x1DFE JUMP JUMPDEST SWAP1 POP SWAP2 SWAP1 POP JUMP JUMPDEST PUSH1 0x0 PUSH1 0x20 DUP3 ADD SWAP1 POP DUP2 DUP2 SUB PUSH1 0x0 DUP4 ADD MSTORE PUSH2 0x2191 DUP2 PUSH2 0x1E21 JUMP JUMPDEST SWAP1 POP SWAP2 SWAP1 POP JUMP JUMPDEST PUSH1 0x0 PUSH1 0x20 DUP3 ADD SWAP1 POP DUP2 DUP2 SUB PUSH1 0x0 DUP4 ADD MSTORE PUSH2 0x21B1 DUP2 PUSH2 0x1E44 JUMP JUMPDEST SWAP1 POP SWAP2 SWAP1 POP JUMP JUMPDEST PUSH1 0x0 PUSH1 0x20 DUP3 ADD SWAP1 POP DUP2 DUP2 SUB PUSH1 0x0 DUP4 ADD MSTORE PUSH2 0x21D1 DUP2 PUSH2 0x1E67 JUMP JUMPDEST SWAP1 POP SWAP2 SWAP1 POP JUMP JUMPDEST PUSH1 0x0 PUSH1 0x20 DUP3 ADD SWAP1 POP DUP2 DUP2 SUB PUSH1 0x0 DUP4 ADD MSTORE PUSH2 0x21F1 DUP2 PUSH2 0x1E8A JUMP JUMPDEST SWAP1 POP SWAP2 SWAP1 POP JUMP JUMPDEST PUSH1 0x0 PUSH1 0x20 DUP3 ADD SWAP1 POP DUP2 DUP2 SUB PUSH1 0x0 DUP4 ADD MSTORE PUSH2 0x2211 DUP2 PUSH2 0x1EAD JUMP JUMPDEST SWAP1 POP SWAP2 SWAP1 POP JUMP JUMPDEST PUSH1 0x0 PUSH1 0x20 DUP3 ADD SWAP1 POP DUP2 DUP2 SUB PUSH1 0x0 DUP4 ADD MSTORE PUSH2 0x2231 DUP2 PUSH2 0x1ED0 JUMP JUMPDEST SWAP1 POP SWAP2 SWAP1 POP JUMP JUMPDEST PUSH1 0x0 PUSH1 0x20 DUP3 ADD SWAP1 POP DUP2 DUP2 SUB PUSH1 0x0 DUP4 ADD MSTORE PUSH2 0x2251 DUP2 PUSH2 0x1EF3 JUMP JUMPDEST SWAP1 POP SWAP2 SWAP1 POP JUMP JUMPDEST PUSH1 0x0 PUSH1 0x20 DUP3 ADD SWAP1 POP PUSH2 0x226D PUSH1 0x0 DUP4 ADD DUP5 PUSH2 0x1FFE JUMP JUMPDEST SWAP3 SWAP2 POP POP JUMP JUMPDEST PUSH1 0x0 PUSH1 0xC0 DUP3 ADD SWAP1 POP PUSH2 0x2288 PUSH1 0x0 DUP4 ADD DUP10 PUSH2 0x1FFE JUMP JUMPDEST DUP2 DUP2 SUB PUSH1 0x20 DUP4 ADD MSTORE PUSH2 0x229A DUP2 DUP9 PUSH2 0x1D7F JUMP JUMPDEST SWAP1 POP DUP2 DUP2 SUB PUSH1 0x40 DUP4 ADD MSTORE PUSH2 0x22AE DUP2 DUP8 PUSH2 0x1D7F JUMP JUMPDEST SWAP1 POP DUP2 DUP2 SUB PUSH1 0x60 DUP4 ADD MSTORE PUSH2 0x22C2 DUP2 DUP7 PUSH2 0x1D7F JUMP JUMPDEST SWAP1 POP PUSH2 0x22D1 PUSH1 0x80 DUP4 ADD DUP6 PUSH2 0x1D37 JUMP JUMPDEST PUSH2 0x22DE PUSH1 0xA0 DUP4 ADD DUP5 PUSH2 0x1FFE JUMP JUMPDEST SWAP8 SWAP7 POP POP POP POP POP POP POP JUMP JUMPDEST PUSH1 0x0 PUSH2 0x22F3 PUSH2 0x2304 JUMP JUMPDEST SWAP1 POP PUSH2 0x22FF DUP3 DUP3 PUSH2 0x2559 JUMP JUMPDEST SWAP2 SWAP1 POP JUMP JUMPDEST PUSH1 0x0 PUSH1 0x40 MLOAD SWAP1 POP SWAP1 JUMP JUMPDEST PUSH1 0x0 PUSH8 0xFFFFFFFFFFFFFFFF DUP3 GT ISZERO PUSH2 0x2329 JUMPI PUSH2 0x2328 PUSH2 0x2670 JUMP JUMPDEST JUMPDEST PUSH2 0x2332 DUP3 PUSH2 0x26B3 JUMP JUMPDEST SWAP1 POP PUSH1 0x20 DUP2 ADD SWAP1 POP SWAP2 SWAP1 POP JUMP JUMPDEST PUSH1 0x0 DUP2 SWAP1 POP PUSH1 0x20 DUP3 ADD SWAP1 POP SWAP2 SWAP1 POP JUMP JUMPDEST PUSH1 0x0 DUP2 MLOAD SWAP1 POP SWAP2 SWAP1 POP JUMP JUMPDEST PUSH1 0x0 DUP2 MLOAD SWAP1 POP SWAP2 SWAP1 POP JUMP JUMPDEST PUSH1 0x0 PUSH1 0x20 DUP3 ADD SWAP1 POP SWAP2 SWAP1 POP JUMP JUMPDEST PUSH1 0x0 DUP3 DUP3 MSTORE PUSH1 0x20 DUP3 ADD SWAP1 POP SWAP3 SWAP2 POP POP JUMP JUMPDEST PUSH1 0x0 DUP3 DUP3 MSTORE PUSH1 0x20 DUP3 ADD SWAP1 POP SWAP3 SWAP2 POP POP JUMP JUMPDEST PUSH1 0x0 DUP3 DUP3 MSTORE PUSH1 0x20 DUP3 ADD SWAP1 POP SWAP3 SWAP2 POP POP JUMP JUMPDEST PUSH1 0x0 PUSH2 0x23B0 DUP3 PUSH2 0x24CE JUMP JUMPDEST SWAP2 POP PUSH2 0x23BB DUP4 PUSH2 0x24CE JUMP JUMPDEST SWAP3 POP DUP3 PUSH32 0xFFFFFFFFFFFFFFFFFFFFFFFFFFFFFFFFFFFFFFFFFFFFFFFFFFFFFFFFFFFFFFFF SUB DUP3 GT ISZERO PUSH2 0x23F0 JUMPI PUSH2 0x23EF PUSH2 0x25B4 JUMP JUMPDEST JUMPDEST DUP3 DUP3 ADD SWAP1 POP SWAP3 SWAP2 POP POP JUMP JUMPDEST PUSH1 0x0 PUSH2 0x2406 DUP3 PUSH2 0x24CE JUMP JUMPDEST SWAP2 POP PUSH2 0x2411 DUP4 PUSH2 0x24CE JUMP JUMPDEST SWAP3 POP DUP3 PUSH2 0x2421 JUMPI PUSH2 0x2420 PUSH2 0x25E3 JUMP JUMPDEST JUMPDEST DUP3 DUP3 DIV SWAP1 POP SWAP3 SWAP2 POP POP JUMP JUMPDEST PUSH1 0x0 PUSH2 0x2437 DUP3 PUSH2 0x24CE JUMP JUMPDEST SWAP2 POP PUSH2 0x2442 DUP4 PUSH2 0x24CE JUMP JUMPDEST SWAP3 POP DUP2 PUSH32 0xFFFFFFFFFFFFFFFFFFFFFFFFFFFFFFFFFFFFFFFFFFFFFFFFFFFFFFFFFFFFFFFF DIV DUP4 GT DUP3 ISZERO ISZERO AND ISZERO PUSH2 0x247B JUMPI PUSH2 0x247A PUSH2 0x25B4 JUMP JUMPDEST JUMPDEST DUP3 DUP3 MUL SWAP1 POP SWAP3 SWAP2 POP POP JUMP JUMPDEST PUSH1 0x0 PUSH2 0x2491 DUP3 PUSH2 0x24AE JUMP JUMPDEST SWAP1 POP SWAP2 SWAP1 POP JUMP JUMPDEST PUSH1 0x0 DUP2 ISZERO ISZERO SWAP1 POP SWAP2 SWAP1 POP JUMP JUMPDEST PUSH1 0x0 DUP2 SWAP1 POP SWAP2 SWAP1 POP JUMP JUMPDEST PUSH1 0x0 PUSH20 0xFFFFFFFFFFFFFFFFFFFFFFFFFFFFFFFFFFFFFFFF DUP3 AND SWAP1 POP SWAP2 SWAP1 POP JUMP JUMPDEST PUSH1 0x0 DUP2 SWAP1 POP SWAP2 SWAP1 POP JUMP JUMPDEST PUSH1 0x0 PUSH1 0xFF DUP3 AND SWAP1 POP SWAP2 SWAP1 POP JUMP JUMPDEST DUP3 DUP2 DUP4 CALLDATACOPY PUSH1 0x0 DUP4 DUP4 ADD MSTORE POP POP POP JUMP JUMPDEST PUSH1 0x0 JUMPDEST DUP4 DUP2 LT ISZERO PUSH2 0x2512 JUMPI DUP1 DUP3 ADD MLOAD DUP2 DUP5 ADD MSTORE PUSH1 0x20 DUP2 ADD SWAP1 POP PUSH2 0x24F7 JUMP JUMPDEST DUP4 DUP2 GT ISZERO PUSH2 0x2521 JUMPI PUSH1 0x0 DUP5 DUP5 ADD MSTORE JUMPDEST POP POP POP POP JUMP JUMPDEST PUSH1 0x0 PUSH1 0x2 DUP3 DIV SWAP1 POP PUSH1 0x1 DUP3 AND DUP1 PUSH2 0x253F JUMPI PUSH1 0x7F DUP3 AND SWAP2 POP JUMPDEST PUSH1 0x20 DUP3 LT DUP2 EQ ISZERO PUSH2 0x2553 JUMPI PUSH2 0x2552 PUSH2 0x2612 JUMP JUMPDEST JUMPDEST POP SWAP2 SWAP1 POP JUMP JUMPDEST PUSH2 0x2562 DUP3 PUSH2 0x26B3 JUMP JUMPDEST DUP2 ADD DUP2 DUP2 LT PUSH8 0xFFFFFFFFFFFFFFFF DUP3 GT OR ISZERO PUSH2 0x2581 JUMPI PUSH2 0x2580 PUSH2 0x2670 JUMP JUMPDEST JUMPDEST DUP1 PUSH1 0x40 MSTORE POP POP POP JUMP JUMPDEST PUSH1 0x0 PUSH2 0x2595 DUP3 PUSH2 0x24D8 JUMP JUMPDEST SWAP2 POP PUSH1 0xFF DUP3 EQ ISZERO PUSH2 0x25A9 JUMPI PUSH2 0x25A8 PUSH2 0x25B4 JUMP JUMPDEST JUMPDEST PUSH1 0x1 DUP3 ADD SWAP1 POP SWAP2 SWAP1 POP JUMP JUMPDEST PUSH32 0x4E487B7100000000000000000000000000000000000000000000000000000000 PUSH1 0x0 MSTORE PUSH1 0x11 PUSH1 0x4 MSTORE PUSH1 0x24 PUSH1 0x0 REVERT JUMPDEST PUSH32 0x4E487B7100000000000000000000000000000000000000000000000000000000 PUSH1 0x0 MSTORE PUSH1 0x12 PUSH1 0x4 MSTORE PUSH1 0x24 PUSH1 0x0 REVERT JUMPDEST PUSH32 0x4E487B7100000000000000000000000000000000000000000000000000000000 PUSH1 0x0 MSTORE PUSH1 0x22 PUSH1 0x4 MSTORE PUSH1 0x24 PUSH1 0x0 REVERT JUMPDEST PUSH32 0x4E487B7100000000000000000000000000000000000000000000000000000000 PUSH1 0x0 MSTORE PUSH1 0x32 PUSH1 0x4 MSTORE PUSH1 0x24 PUSH1 0x0 REVERT JUMPDEST PUSH32 0x4E487B7100000000000000000000000000000000000000000000000000000000 PUSH1 0x0 MSTORE PUSH1 0x41 PUSH1 0x4 MSTORE PUSH1 0x24 PUSH1 0x0 REVERT JUMPDEST PUSH1 0x0 DUP1 REVERT JUMPDEST PUSH1 0x0 DUP1 REVERT JUMPDEST PUSH1 0x0 DUP1 REVERT JUMPDEST PUSH1 0x0 DUP1 REVERT JUMPDEST PUSH1 0x0 PUSH1 0x1F NOT PUSH1 0x1F DUP4 ADD AND SWAP1 POP SWAP2 SWAP1 POP JUMP JUMPDEST PUSH32 0x526563697069656E7420697320616C7265616479207265676973746572656400 PUSH1 0x0 DUP3 ADD MSTORE POP JUMP JUMPDEST PUSH32 0x596F75206172656E277420617574686F72697A6520746F20636F6D70696C6520 PUSH1 0x0 DUP3 ADD MSTORE PUSH32 0x42756E646C650000000000000000000000000000000000000000000000000000 PUSH1 0x20 DUP3 ADD MSTORE POP JUMP JUMPDEST PUSH32 0x596F7520616C72656164792073656E74206120726573706F6E73652E00000000 PUSH1 0x0 DUP3 ADD MSTORE POP JUMP JUMPDEST PUSH32 0x496E69746961746F722063616E277420766F7465210000000000000000000000 PUSH1 0x0 DUP3 ADD MSTORE POP JUMP JUMPDEST PUSH32 0x596F7520617265206E6F74207265676973746572656420746F20766F74650000 PUSH1 0x0 DUP3 ADD MSTORE POP JUMP JUMPDEST PUSH32 0x50726F706F73616C206861732072656163686564206974732065787069727920 PUSH1 0x0 DUP3 ADD MSTORE PUSH32 0x6461746500000000000000000000000000000000000000000000000000000000 PUSH1 0x20 DUP3 ADD MSTORE POP JUMP JUMPDEST PUSH32 0x4F6E6C7920696E69746961746F722063616E2072656769737465722061207265 PUSH1 0x0 DUP3 ADD MSTORE PUSH32 0x63697069656E742E000000000000000000000000000000000000000000000000 PUSH1 0x20 DUP3 ADD MSTORE POP JUMP JUMPDEST PUSH32 0x5665726469637420686173206E6F74206265656E207265616368656420796574 PUSH1 0x0 DUP3 ADD MSTORE POP JUMP JUMPDEST PUSH32 0x566F74696E672068617320657870697265640000000000000000000000000000 PUSH1 0x0 DUP3 ADD MSTORE POP JUMP JUMPDEST PUSH32 0x436F6E73656E7375732068617320616C7265616479206265656E2063616C6375 PUSH1 0x0 DUP3 ADD MSTORE PUSH32 0x6C61746564000000000000000000000000000000000000000000000000000000 PUSH1 0x20 DUP3 ADD MSTORE POP JUMP JUMPDEST PUSH2 0x28FF DUP2 PUSH2 0x2486 JUMP JUMPDEST DUP2 EQ PUSH2 0x290A JUMPI PUSH1 0x0 DUP1 REVERT JUMPDEST POP JUMP JUMPDEST PUSH2 0x2916 DUP2 PUSH2 0x24CE JUMP JUMPDEST DUP2 EQ PUSH2 0x2921 JUMPI PUSH1 0x0 DUP1 REVERT JUMPDEST POP JUMP INVALID LOG2 PUSH5 0x6970667358 0x22 SLT KECCAK256 PUSH1 0x6F LOG4 0x2D SHR 0x2A MUL 0x2D 0xF7 LOG4 0xEB 0xEB 0xBC RETURN 0xE8 0xC0 0xE6 DUP8 0xE SWAP9 MOD DUP1 PUSH17 0x44DE5C7B7FD177107064736F6C63430008 SMOD STOP CALLER "
				},
				"gasEstimates": {
					"creation": {
						"codeDepositCost": "2117200",
						"executionCost": "infinite",
						"totalCost": "infinite"
					},
					"external": {
						"BusinessRequirement()": "2473",
						"Consensus()": "infinite",
						"RegisterVoter(address)": "131017",
						"Vote(string)": "infinite",
						"contractAddress()": "2599",
						"getIsCompiled()": "2502",
						"getParameters()": "infinite",
						"getParameters2(address)": "infinite",
						"getValues()": "infinite",
						"initiator()": "2559",
						"keys(uint256)": "4980",
						"numApprovals()": "2496",
						"proposal()": "infinite",
						"retrieve_bundle()": "infinite",
						"voters(uint256)": "infinite",
						"voters_map(address)": "infinite"
					}
				},
				"methodIdentifiers": {
					"BusinessRequirement()": "d77aa749",
					"Consensus()": "95b02dfa",
					"RegisterVoter(address)": "15fe6f1b",
					"Vote(string)": "323082d7",
					"contractAddress()": "f6b4dfb4",
					"getIsCompiled()": "760297e9",
					"getParameters()": "a5ea11da",
					"getParameters2(address)": "5361a0ea",
					"getValues()": "19eb4a90",
					"initiator()": "5c39fcc1",
					"keys(uint256)": "0cb6aaf1",
					"numApprovals()": "7403c5e5",
					"proposal()": "753ec103",
					"retrieve_bundle()": "82316745",
					"voters(uint256)": "da58c7d9",
					"voters_map(address)": "9aa4bbdd"
				}
			},
			"storageLayout": {
				"storage": [
					{
						"astId": 23,
						"contract": "contracts/BusinessConsensus.sol:BusinessConsensus",
						"label": "contractAddress",
						"offset": 0,
						"slot": "0",
						"type": "t_address"
					},
					{
						"astId": 25,
						"contract": "contracts/BusinessConsensus.sol:BusinessConsensus",
						"label": "initiator",
						"offset": 0,
						"slot": "1",
						"type": "t_address"
					},
					{
						"astId": 28,
						"contract": "contracts/BusinessConsensus.sol:BusinessConsensus",
						"label": "keys",
						"offset": 0,
						"slot": "2",
						"type": "t_array(t_address)dyn_storage"
					},
					{
						"astId": 30,
						"contract": "contracts/BusinessConsensus.sol:BusinessConsensus",
						"label": "expiryDate",
						"offset": 0,
						"slot": "3",
						"type": "t_uint256"
					},
					{
						"astId": 32,
						"contract": "contracts/BusinessConsensus.sol:BusinessConsensus",
						"label": "BusinessRequirement",
						"offset": 0,
						"slot": "4",
						"type": "t_uint256"
					},
					{
						"astId": 34,
						"contract": "contracts/BusinessConsensus.sol:BusinessConsensus",
						"label": "numApprovals",
						"offset": 0,
						"slot": "5",
						"type": "t_uint256"
					},
					{
						"astId": 36,
						"contract": "contracts/BusinessConsensus.sol:BusinessConsensus",
						"label": "isCompiled",
						"offset": 0,
						"slot": "6",
						"type": "t_bool"
					},
					{
						"astId": 38,
						"contract": "contracts/BusinessConsensus.sol:BusinessConsensus",
						"label": "finalVerdict",
						"offset": 0,
						"slot": "7",
						"type": "t_bytes32"
					},
					{
						"astId": 42,
						"contract": "contracts/BusinessConsensus.sol:BusinessConsensus",
						"label": "voters",
						"offset": 0,
						"slot": "8",
						"type": "t_array(t_struct(Voter)8_storage)dyn_storage"
					},
					{
						"astId": 47,
						"contract": "contracts/BusinessConsensus.sol:BusinessConsensus",
						"label": "voters_map",
						"offset": 0,
						"slot": "9",
						"type": "t_mapping(t_address,t_struct(Voter)8_storage)"
					},
					{
						"astId": 50,
						"contract": "contracts/BusinessConsensus.sol:BusinessConsensus",
						"label": "proposal",
						"offset": 0,
						"slot": "10",
						"type": "t_struct(Proposal)21_storage"
					}
				],
				"types": {
					"t_address": {
						"encoding": "inplace",
						"label": "address",
						"numberOfBytes": "20"
					},
					"t_array(t_address)dyn_storage": {
						"base": "t_address",
						"encoding": "dynamic_array",
						"label": "address[]",
						"numberOfBytes": "32"
					},
					"t_array(t_struct(Voter)8_storage)dyn_storage": {
						"base": "t_struct(Voter)8_storage",
						"encoding": "dynamic_array",
						"label": "struct BusinessConsensus.Voter[]",
						"numberOfBytes": "32"
					},
					"t_bool": {
						"encoding": "inplace",
						"label": "bool",
						"numberOfBytes": "1"
					},
					"t_bytes32": {
						"encoding": "inplace",
						"label": "bytes32",
						"numberOfBytes": "32"
					},
					"t_mapping(t_address,t_struct(Voter)8_storage)": {
						"encoding": "mapping",
						"key": "t_address",
						"label": "mapping(address => struct BusinessConsensus.Voter)",
						"numberOfBytes": "32",
						"value": "t_struct(Voter)8_storage"
					},
					"t_string_storage": {
						"encoding": "bytes",
						"label": "string",
						"numberOfBytes": "32"
					},
					"t_struct(Proposal)21_storage": {
						"encoding": "inplace",
						"label": "struct BusinessConsensus.Proposal",
						"members": [
							{
								"astId": 10,
								"contract": "contracts/BusinessConsensus.sol:BusinessConsensus",
								"label": "voteCount",
								"offset": 0,
								"slot": "0",
								"type": "t_uint256"
							},
							{
								"astId": 12,
								"contract": "contracts/BusinessConsensus.sol:BusinessConsensus",
								"label": "messageID",
								"offset": 0,
								"slot": "1",
								"type": "t_string_storage"
							},
							{
								"astId": 14,
								"contract": "contracts/BusinessConsensus.sol:BusinessConsensus",
								"label": "messageDate",
								"offset": 0,
								"slot": "2",
								"type": "t_string_storage"
							},
							{
								"astId": 16,
								"contract": "contracts/BusinessConsensus.sol:BusinessConsensus",
								"label": "subject",
								"offset": 0,
								"slot": "3",
								"type": "t_string_storage"
							},
							{
								"astId": 18,
								"contract": "contracts/BusinessConsensus.sol:BusinessConsensus",
								"label": "contents",
								"offset": 0,
								"slot": "4",
								"type": "t_bytes32"
							},
							{
								"astId": 20,
								"contract": "contracts/BusinessConsensus.sol:BusinessConsensus",
								"label": "expiryLength",
								"offset": 0,
								"slot": "5",
								"type": "t_uint256"
							}
						],
						"numberOfBytes": "192"
					},
					"t_struct(Voter)8_storage": {
						"encoding": "inplace",
						"label": "struct BusinessConsensus.Voter",
						"members": [
							{
								"astId": 3,
								"contract": "contracts/BusinessConsensus.sol:BusinessConsensus",
								"label": "voted",
								"offset": 0,
								"slot": "0",
								"type": "t_bool"
							},
							{
								"astId": 5,
								"contract": "contracts/BusinessConsensus.sol:BusinessConsensus",
								"label": "vote",
								"offset": 1,
								"slot": "0",
								"type": "t_bool"
							},
							{
								"astId": 7,
								"contract": "contracts/BusinessConsensus.sol:BusinessConsensus",
								"label": "recipient",
								"offset": 2,
								"slot": "0",
								"type": "t_address"
							}
						],
						"numberOfBytes": "32"
					},
					"t_uint256": {
						"encoding": "inplace",
						"label": "uint256",
						"numberOfBytes": "32"
					}
				}
			},
			"userdoc": {
				"kind": "user",
				"methods": {
					"Consensus()": {
						"notice": "compile all relevant information into a Bundle"
					}
				},
				"version": 1
			}
		}
	}
}