{
	"contracts/BusinessConsensus.sol": {
		"BusinessConsensus": {
			"abi": [
				{
					"inputs": [
						{
							"internalType": "bytes32",
							"name": "_messageID",
							"type": "bytes32"
						}
					],
					"name": "Consensus",
					"outputs": [],
					"stateMutability": "nonpayable",
					"type": "function"
				},
				{
					"inputs": [
						{
							"internalType": "bytes32",
							"name": "",
							"type": "bytes32"
						}
					],
					"name": "IDs",
					"outputs": [
						{
							"internalType": "bytes32",
							"name": "",
							"type": "bytes32"
						}
					],
					"stateMutability": "view",
					"type": "function"
				},
				{
					"inputs": [
						{
							"internalType": "address",
							"name": "voter",
							"type": "address"
						},
						{
							"internalType": "bytes32",
							"name": "_messageID",
							"type": "bytes32"
						}
					],
					"name": "RegisterVoter",
					"outputs": [],
					"stateMutability": "nonpayable",
					"type": "function"
				},
				{
					"inputs": [
						{
							"internalType": "string",
							"name": "response",
							"type": "string"
						},
						{
							"internalType": "bytes32",
							"name": "_messageID",
							"type": "bytes32"
						}
					],
					"name": "Vote",
					"outputs": [],
					"stateMutability": "nonpayable",
					"type": "function"
				},
				{
					"inputs": [
						{
							"internalType": "bytes32",
							"name": "",
							"type": "bytes32"
						},
						{
							"internalType": "uint256",
							"name": "",
							"type": "uint256"
						}
					],
					"name": "Voters",
					"outputs": [
						{
							"internalType": "bool",
							"name": "voted",
							"type": "bool"
						},
						{
							"internalType": "bool",
							"name": "vote",
							"type": "bool"
						},
						{
							"internalType": "address",
							"name": "recipient",
							"type": "address"
						}
					],
					"stateMutability": "view",
					"type": "function"
				},
				{
					"inputs": [
						{
							"internalType": "bytes32",
							"name": "",
							"type": "bytes32"
						}
					],
					"name": "businessRequirements",
					"outputs": [
						{
							"internalType": "uint256",
							"name": "",
							"type": "uint256"
						}
					],
					"stateMutability": "view",
					"type": "function"
				},
				{
					"inputs": [
						{
							"internalType": "bytes32",
							"name": "_keyID",
							"type": "bytes32"
						},
						{
							"internalType": "uint256",
							"name": "_businessRequirement",
							"type": "uint256"
						},
						{
							"internalType": "uint256",
							"name": "_expiryLength",
							"type": "uint256"
						},
						{
							"internalType": "bytes32",
							"name": "_contents",
							"type": "bytes32"
						}
					],
					"name": "checkConsistency",
					"outputs": [
						{
							"internalType": "bool",
							"name": "",
							"type": "bool"
						},
						{
							"internalType": "bool",
							"name": "",
							"type": "bool"
						},
						{
							"internalType": "bool",
							"name": "",
							"type": "bool"
						}
					],
					"stateMutability": "view",
					"type": "function"
				},
				{
					"inputs": [
						{
							"internalType": "bytes32",
							"name": "",
							"type": "bytes32"
						}
					],
					"name": "contents",
					"outputs": [
						{
							"internalType": "bytes32",
							"name": "",
							"type": "bytes32"
						}
					],
					"stateMutability": "view",
					"type": "function"
				},
				{
					"inputs": [
						{
							"internalType": "bytes32",
							"name": "_messageID",
							"type": "bytes32"
						},
						{
							"internalType": "uint256",
							"name": "expiry",
							"type": "uint256"
						},
						{
							"internalType": "uint256",
							"name": "requiredPercentage",
							"type": "uint256"
						},
						{
							"internalType": "bytes32",
							"name": "_contents",
							"type": "bytes32"
						},
						{
							"internalType": "string",
							"name": "_messageDate",
							"type": "string"
						},
						{
							"internalType": "bytes32",
							"name": "_keyID",
							"type": "bytes32"
						}
					],
					"name": "createContract",
					"outputs": [],
					"stateMutability": "nonpayable",
					"type": "function"
				},
				{
					"inputs": [
						{
							"internalType": "bytes32",
							"name": "",
							"type": "bytes32"
						}
					],
					"name": "expiryDates",
					"outputs": [
						{
							"internalType": "uint256",
							"name": "",
							"type": "uint256"
						}
					],
					"stateMutability": "view",
					"type": "function"
				},
				{
					"inputs": [
						{
							"internalType": "bytes32",
							"name": "",
							"type": "bytes32"
						}
					],
					"name": "expiryLengths",
					"outputs": [
						{
							"internalType": "uint256",
							"name": "",
							"type": "uint256"
						}
					],
					"stateMutability": "view",
					"type": "function"
				},
				{
					"inputs": [
						{
							"internalType": "bytes32",
							"name": "",
							"type": "bytes32"
						}
					],
					"name": "finalVerdicts",
					"outputs": [
						{
							"internalType": "bool",
							"name": "",
							"type": "bool"
						}
					],
					"stateMutability": "view",
					"type": "function"
				},
				{
					"inputs": [
						{
							"internalType": "bytes32",
							"name": "_messageID",
							"type": "bytes32"
						}
					],
					"name": "getIsCompiled",
					"outputs": [
						{
							"internalType": "bool",
							"name": "",
							"type": "bool"
						}
					],
					"stateMutability": "view",
					"type": "function"
				},
				{
					"inputs": [
						{
							"internalType": "bytes32",
							"name": "_keyID",
							"type": "bytes32"
						}
					],
					"name": "getIsCreated",
					"outputs": [
						{
							"internalType": "bytes32",
							"name": "",
							"type": "bytes32"
						},
						{
							"internalType": "string",
							"name": "",
							"type": "string"
						}
					],
					"stateMutability": "view",
					"type": "function"
				},
				{
					"inputs": [
						{
							"internalType": "bytes32",
							"name": "",
							"type": "bytes32"
						}
					],
					"name": "initiators",
					"outputs": [
						{
							"internalType": "address",
							"name": "",
							"type": "address"
						}
					],
					"stateMutability": "view",
					"type": "function"
				},
				{
					"inputs": [
						{
							"internalType": "bytes32",
							"name": "",
							"type": "bytes32"
						}
					],
					"name": "isCompiled",
					"outputs": [
						{
							"internalType": "bool",
							"name": "",
							"type": "bool"
						}
					],
					"stateMutability": "view",
					"type": "function"
				},
				{
					"inputs": [
						{
							"internalType": "bytes32",
							"name": "",
							"type": "bytes32"
						},
						{
							"internalType": "uint256",
							"name": "",
							"type": "uint256"
						}
					],
					"name": "keys",
					"outputs": [
						{
							"internalType": "address",
							"name": "",
							"type": "address"
						}
					],
					"stateMutability": "view",
					"type": "function"
				},
				{
					"inputs": [
						{
							"internalType": "bytes32",
							"name": "",
							"type": "bytes32"
						}
					],
					"name": "messageDates",
					"outputs": [
						{
							"internalType": "string",
							"name": "",
							"type": "string"
						}
					],
					"stateMutability": "view",
					"type": "function"
				},
				{
					"inputs": [
						{
							"internalType": "bytes32",
							"name": "",
							"type": "bytes32"
						}
					],
					"name": "numApprovals",
					"outputs": [
						{
							"internalType": "uint256",
							"name": "",
							"type": "uint256"
						}
					],
					"stateMutability": "view",
					"type": "function"
				},
				{
					"inputs": [
						{
							"internalType": "bytes32",
							"name": "_messageID",
							"type": "bytes32"
						}
					],
					"name": "retrieve_bundle",
					"outputs": [
						{
							"internalType": "bool",
							"name": "",
							"type": "bool"
						},
						{
							"internalType": "bytes32",
							"name": "",
							"type": "bytes32"
						},
						{
							"internalType": "uint256",
							"name": "",
							"type": "uint256"
						},
						{
							"components": [
								{
									"internalType": "bool",
									"name": "voted",
									"type": "bool"
								},
								{
									"internalType": "bool",
									"name": "vote",
									"type": "bool"
								},
								{
									"internalType": "address",
									"name": "recipient",
									"type": "address"
								}
							],
							"internalType": "struct BusinessConsensus.Voter[]",
							"name": "",
							"type": "tuple[]"
						}
					],
					"stateMutability": "view",
					"type": "function"
				},
				{
					"inputs": [
						{
							"internalType": "bytes32",
							"name": "",
							"type": "bytes32"
						}
					],
					"name": "voteCounts",
					"outputs": [
						{
							"internalType": "uint256",
							"name": "",
							"type": "uint256"
						}
					],
					"stateMutability": "view",
					"type": "function"
				},
				{
					"inputs": [
						{
							"internalType": "bytes32",
							"name": "",
							"type": "bytes32"
						},
						{
							"internalType": "address",
							"name": "",
							"type": "address"
						}
					],
					"name": "voter_maps",
					"outputs": [
						{
							"internalType": "bool",
							"name": "voted",
							"type": "bool"
						},
						{
							"internalType": "bool",
							"name": "vote",
							"type": "bool"
						},
						{
							"internalType": "address",
							"name": "recipient",
							"type": "address"
						}
					],
					"stateMutability": "view",
					"type": "function"
				}
			],
			"devdoc": {
				"kind": "dev",
				"methods": {},
				"version": 1
			},
			"evm": {
				"assembly": "    /* \"contracts/BusinessConsensus.sol\":33:6523  contract BusinessConsensus{\r... */\n  mstore(0x40, 0x80)\n  callvalue\n  dup1\n  iszero\n  tag_1\n  jumpi\n  0x00\n  dup1\n  revert\ntag_1:\n  pop\n  dataSize(sub_0)\n  dup1\n  dataOffset(sub_0)\n  0x00\n  codecopy\n  0x00\n  return\nstop\n\nsub_0: assembly {\n        /* \"contracts/BusinessConsensus.sol\":33:6523  contract BusinessConsensus{\r... */\n      mstore(0x40, 0x80)\n      callvalue\n      dup1\n      iszero\n      tag_1\n      jumpi\n      0x00\n      dup1\n      revert\n    tag_1:\n      pop\n      jumpi(tag_2, lt(calldatasize, 0x04))\n      shr(0xe0, calldataload(0x00))\n      dup1\n      0x823a6366\n      gt\n      tag_25\n      jumpi\n      dup1\n      0xa88361c6\n      gt\n      tag_26\n      jumpi\n      dup1\n      0xa88361c6\n      eq\n      tag_19\n      jumpi\n      dup1\n      0xd443560a\n      eq\n      tag_20\n      jumpi\n      dup1\n      0xd468f983\n      eq\n      tag_21\n      jumpi\n      dup1\n      0xe463eaee\n      eq\n      tag_22\n      jumpi\n      dup1\n      0xe5d009bf\n      eq\n      tag_23\n      jumpi\n      dup1\n      0xf20ca12c\n      eq\n      tag_24\n      jumpi\n      jump(tag_2)\n    tag_26:\n      dup1\n      0x823a6366\n      eq\n      tag_14\n      jumpi\n      dup1\n      0x8acc0d10\n      eq\n      tag_15\n      jumpi\n      dup1\n      0x97299e99\n      eq\n      tag_16\n      jumpi\n      dup1\n      0xa4a8f426\n      eq\n      tag_17\n      jumpi\n      dup1\n      0xa784ef74\n      eq\n      tag_18\n      jumpi\n      jump(tag_2)\n    tag_25:\n      dup1\n      0x5273bc48\n      gt\n      tag_27\n      jumpi\n      dup1\n      0x5273bc48\n      eq\n      tag_8\n      jumpi\n      dup1\n      0x56c583d8\n      eq\n      tag_9\n      jumpi\n      dup1\n      0x7a099c6a\n      eq\n      tag_10\n      jumpi\n      dup1\n      0x7d6c570a\n      eq\n      tag_11\n      jumpi\n      dup1\n      0x7ff4c389\n      eq\n      tag_12\n      jumpi\n      dup1\n      0x81d0e37b\n      eq\n      tag_13\n      jumpi\n      jump(tag_2)\n    tag_27:\n      dup1\n      0x13191ade\n      eq\n      tag_3\n      jumpi\n      dup1\n      0x27f0ae92\n      eq\n      tag_4\n      jumpi\n      dup1\n      0x33dfd126\n      eq\n      tag_5\n      jumpi\n      dup1\n      0x38c20a9e\n      eq\n      tag_6\n      jumpi\n      dup1\n      0x4fd3b445\n      eq\n      tag_7\n      jumpi\n    tag_2:\n      0x00\n      dup1\n      revert\n        /* \"contracts/BusinessConsensus.sol\":557:605  mapping(bytes32 => uint256) public expiryLengths */\n    tag_3:\n      tag_28\n      0x04\n      dup1\n      calldatasize\n      sub\n      dup2\n      add\n      swap1\n      tag_29\n      swap2\n      swap1\n      tag_30\n      jump\t// in\n    tag_29:\n      tag_31\n      jump\t// in\n    tag_28:\n      mload(0x40)\n      tag_32\n      swap2\n      swap1\n      tag_33\n      jump\t// in\n    tag_32:\n      mload(0x40)\n      dup1\n      swap2\n      sub\n      swap1\n      return\n        /* \"contracts/BusinessConsensus.sol\":6091:6518  function retrieve_bundle(bytes32 _messageID) external view returns (bool, bytes32, uint256, Voter[] memory){\r... */\n    tag_4:\n      tag_34\n      0x04\n      dup1\n      calldatasize\n      sub\n      dup2\n      add\n      swap1\n      tag_35\n      swap2\n      swap1\n      tag_30\n      jump\t// in\n    tag_35:\n      tag_36\n      jump\t// in\n    tag_34:\n      mload(0x40)\n      tag_37\n      swap5\n      swap4\n      swap3\n      swap2\n      swap1\n      tag_38\n      jump\t// in\n    tag_37:\n      mload(0x40)\n      dup1\n      swap2\n      sub\n      swap1\n      return\n        /* \"contracts/BusinessConsensus.sol\":2222:2790  function checkConsistency(bytes32 _keyID, uint256 _businessRequirement, uint256 _expiryLength, bytes32 _contents) public view returns(bool, bool, bool){\r... */\n    tag_5:\n      tag_39\n      0x04\n      dup1\n      calldatasize\n      sub\n      dup2\n      add\n      swap1\n      tag_40\n      swap2\n      swap1\n      tag_41\n      jump\t// in\n    tag_40:\n      tag_42\n      jump\t// in\n    tag_39:\n      mload(0x40)\n      tag_43\n      swap4\n      swap3\n      swap2\n      swap1\n      tag_44\n      jump\t// in\n    tag_43:\n      mload(0x40)\n      dup1\n      swap2\n      sub\n      swap1\n      return\n        /* \"contracts/BusinessConsensus.sol\":884:929  mapping(bytes32 => bool) public finalVerdicts */\n    tag_6:\n      tag_45\n      0x04\n      dup1\n      calldatasize\n      sub\n      dup2\n      add\n      swap1\n      tag_46\n      swap2\n      swap1\n      tag_30\n      jump\t// in\n    tag_46:\n      tag_47\n      jump\t// in\n    tag_45:\n      mload(0x40)\n      tag_48\n      swap2\n      swap1\n      tag_49\n      jump\t// in\n    tag_48:\n      mload(0x40)\n      dup1\n      swap2\n      sub\n      swap1\n      return\n        /* \"contracts/BusinessConsensus.sol\":1051:1090  mapping(bytes32=>Voter[]) public Voters */\n    tag_7:\n      tag_50\n      0x04\n      dup1\n      calldatasize\n      sub\n      dup2\n      add\n      swap1\n      tag_51\n      swap2\n      swap1\n      tag_52\n      jump\t// in\n    tag_51:\n      tag_53\n      jump\t// in\n    tag_50:\n      mload(0x40)\n      tag_54\n      swap4\n      swap3\n      swap2\n      swap1\n      tag_55\n      jump\t// in\n    tag_54:\n      mload(0x40)\n      dup1\n      swap2\n      sub\n      swap1\n      return\n        /* \"contracts/BusinessConsensus.sol\":2099:2216  function getIsCompiled(bytes32 _messageID) public view returns (bool){\r... */\n    tag_8:\n      tag_56\n      0x04\n      dup1\n      calldatasize\n      sub\n      dup2\n      add\n      swap1\n      tag_57\n      swap2\n      swap1\n      tag_30\n      jump\t// in\n    tag_57:\n      tag_58\n      jump\t// in\n    tag_56:\n      mload(0x40)\n      tag_59\n      swap2\n      swap1\n      tag_49\n      jump\t// in\n    tag_59:\n      mload(0x40)\n      dup1\n      swap2\n      sub\n      swap1\n      return\n        /* \"contracts/BusinessConsensus.sol\":612:658  mapping(bytes32 => uint256) public expiryDates */\n    tag_9:\n      tag_60\n      0x04\n      dup1\n      calldatasize\n      sub\n      dup2\n      add\n      swap1\n      tag_61\n      swap2\n      swap1\n      tag_30\n      jump\t// in\n    tag_61:\n      tag_62\n      jump\t// in\n    tag_60:\n      mload(0x40)\n      tag_63\n      swap2\n      swap1\n      tag_33\n      jump\t// in\n    tag_63:\n      mload(0x40)\n      dup1\n      swap2\n      sub\n      swap1\n      return\n        /* \"contracts/BusinessConsensus.sol\":769:824  mapping(bytes32 => uint256) public businessRequirements */\n    tag_10:\n      tag_64\n      0x04\n      dup1\n      calldatasize\n      sub\n      dup2\n      add\n      swap1\n      tag_65\n      swap2\n      swap1\n      tag_30\n      jump\t// in\n    tag_65:\n      tag_66\n      jump\t// in\n    tag_64:\n      mload(0x40)\n      tag_67\n      swap2\n      swap1\n      tag_33\n      jump\t// in\n    tag_67:\n      mload(0x40)\n      dup1\n      swap2\n      sub\n      swap1\n      return\n        /* \"contracts/BusinessConsensus.sol\":5150:6083  function Consensus(bytes32 _messageID) external {\r... */\n    tag_11:\n      tag_68\n      0x04\n      dup1\n      calldatasize\n      sub\n      dup2\n      add\n      swap1\n      tag_69\n      swap2\n      swap1\n      tag_30\n      jump\t// in\n    tag_69:\n      tag_70\n      jump\t// in\n    tag_68:\n      stop\n        /* \"contracts/BusinessConsensus.sol\":1097:1136  mapping(bytes32=>address[]) public keys */\n    tag_12:\n      tag_71\n      0x04\n      dup1\n      calldatasize\n      sub\n      dup2\n      add\n      swap1\n      tag_72\n      swap2\n      swap1\n      tag_52\n      jump\t// in\n    tag_72:\n      tag_73\n      jump\t// in\n    tag_71:\n      mload(0x40)\n      tag_74\n      swap2\n      swap1\n      tag_75\n      jump\t// in\n    tag_74:\n      mload(0x40)\n      dup1\n      swap2\n      sub\n      swap1\n      return\n        /* \"contracts/BusinessConsensus.sol\":505:550  mapping(bytes32 => uint256) public voteCounts */\n    tag_13:\n      tag_76\n      0x04\n      dup1\n      calldatasize\n      sub\n      dup2\n      add\n      swap1\n      tag_77\n      swap2\n      swap1\n      tag_30\n      jump\t// in\n    tag_77:\n      tag_78\n      jump\t// in\n    tag_76:\n      mload(0x40)\n      tag_79\n      swap2\n      swap1\n      tag_33\n      jump\t// in\n    tag_79:\n      mload(0x40)\n      dup1\n      swap2\n      sub\n      swap1\n      return\n        /* \"contracts/BusinessConsensus.sol\":936:978  mapping(bytes32 => bool) public isCompiled */\n    tag_14:\n      tag_80\n      0x04\n      dup1\n      calldatasize\n      sub\n      dup2\n      add\n      swap1\n      tag_81\n      swap2\n      swap1\n      tag_30\n      jump\t// in\n    tag_81:\n      tag_82\n      jump\t// in\n    tag_80:\n      mload(0x40)\n      tag_83\n      swap2\n      swap1\n      tag_49\n      jump\t// in\n    tag_83:\n      mload(0x40)\n      dup1\n      swap2\n      sub\n      swap1\n      return\n        /* \"contracts/BusinessConsensus.sol\":3789:5086  function Vote(string memory response,bytes32 _messageID) external {\r... */\n    tag_15:\n      tag_84\n      0x04\n      dup1\n      calldatasize\n      sub\n      dup2\n      add\n      swap1\n      tag_85\n      swap2\n      swap1\n      tag_86\n      jump\t// in\n    tag_85:\n      tag_87\n      jump\t// in\n    tag_84:\n      stop\n        /* \"contracts/BusinessConsensus.sol\":2796:2937  function getIsCreated(bytes32 _keyID) public view returns (bytes32,string memory){\r... */\n    tag_16:\n      tag_88\n      0x04\n      dup1\n      calldatasize\n      sub\n      dup2\n      add\n      swap1\n      tag_89\n      swap2\n      swap1\n      tag_30\n      jump\t// in\n    tag_89:\n      tag_90\n      jump\t// in\n    tag_88:\n      mload(0x40)\n      tag_91\n      swap3\n      swap2\n      swap1\n      tag_92\n      jump\t// in\n    tag_91:\n      mload(0x40)\n      dup1\n      swap2\n      sub\n      swap1\n      return\n        /* \"contracts/BusinessConsensus.sol\":831:877  mapping(bytes32 => string) public messageDates */\n    tag_17:\n      tag_93\n      0x04\n      dup1\n      calldatasize\n      sub\n      dup2\n      add\n      swap1\n      tag_94\n      swap2\n      swap1\n      tag_30\n      jump\t// in\n    tag_94:\n      tag_95\n      jump\t// in\n    tag_93:\n      mload(0x40)\n      tag_96\n      swap2\n      swap1\n      tag_97\n      jump\t// in\n    tag_96:\n      mload(0x40)\n      dup1\n      swap2\n      sub\n      swap1\n      return\n        /* \"contracts/BusinessConsensus.sol\":985:1044  mapping(bytes32=>mapping(address=>Voter)) public voter_maps */\n    tag_18:\n      tag_98\n      0x04\n      dup1\n      calldatasize\n      sub\n      dup2\n      add\n      swap1\n      tag_99\n      swap2\n      swap1\n      tag_100\n      jump\t// in\n    tag_99:\n      tag_101\n      jump\t// in\n    tag_98:\n      mload(0x40)\n      tag_102\n      swap4\n      swap3\n      swap2\n      swap1\n      tag_55\n      jump\t// in\n    tag_102:\n      mload(0x40)\n      dup1\n      swap2\n      sub\n      swap1\n      return\n        /* \"contracts/BusinessConsensus.sol\":1149:2093  function createContract(bytes32 _messageID, uint256 expiry, uint256 requiredPercentage,bytes32 _contents,\r... */\n    tag_19:\n      tag_103\n      0x04\n      dup1\n      calldatasize\n      sub\n      dup2\n      add\n      swap1\n      tag_104\n      swap2\n      swap1\n      tag_105\n      jump\t// in\n    tag_104:\n      tag_106\n      jump\t// in\n    tag_103:\n      stop\n        /* \"contracts/BusinessConsensus.sol\":411:454  mapping(bytes32=>address) public initiators */\n    tag_20:\n      tag_107\n      0x04\n      dup1\n      calldatasize\n      sub\n      dup2\n      add\n      swap1\n      tag_108\n      swap2\n      swap1\n      tag_30\n      jump\t// in\n    tag_108:\n      tag_109\n      jump\t// in\n    tag_107:\n      mload(0x40)\n      tag_110\n      swap2\n      swap1\n      tag_75\n      jump\t// in\n    tag_110:\n      mload(0x40)\n      dup1\n      swap2\n      sub\n      swap1\n      return\n        /* \"contracts/BusinessConsensus.sol\":3043:3781  function RegisterVoter(address voter,bytes32 _messageID) external {\r... */\n    tag_21:\n      tag_111\n      0x04\n      dup1\n      calldatasize\n      sub\n      dup2\n      add\n      swap1\n      tag_112\n      swap2\n      swap1\n      tag_113\n      jump\t// in\n    tag_112:\n      tag_114\n      jump\t// in\n    tag_111:\n      stop\n        /* \"contracts/BusinessConsensus.sol\":715:762  mapping(bytes32 => uint256) public numApprovals */\n    tag_22:\n      tag_115\n      0x04\n      dup1\n      calldatasize\n      sub\n      dup2\n      add\n      swap1\n      tag_116\n      swap2\n      swap1\n      tag_30\n      jump\t// in\n    tag_116:\n      tag_117\n      jump\t// in\n    tag_115:\n      mload(0x40)\n      tag_118\n      swap2\n      swap1\n      tag_33\n      jump\t// in\n    tag_118:\n      mload(0x40)\n      dup1\n      swap2\n      sub\n      swap1\n      return\n        /* \"contracts/BusinessConsensus.sol\":461:498  mapping(bytes32 =>bytes32) public IDs */\n    tag_23:\n      tag_119\n      0x04\n      dup1\n      calldatasize\n      sub\n      dup2\n      add\n      swap1\n      tag_120\n      swap2\n      swap1\n      tag_30\n      jump\t// in\n    tag_120:\n      tag_121\n      jump\t// in\n    tag_119:\n      mload(0x40)\n      tag_122\n      swap2\n      swap1\n      tag_123\n      jump\t// in\n    tag_122:\n      mload(0x40)\n      dup1\n      swap2\n      sub\n      swap1\n      return\n        /* \"contracts/BusinessConsensus.sol\":665:708  mapping(bytes32 => bytes32) public contents */\n    tag_24:\n      tag_124\n      0x04\n      dup1\n      calldatasize\n      sub\n      dup2\n      add\n      swap1\n      tag_125\n      swap2\n      swap1\n      tag_30\n      jump\t// in\n    tag_125:\n      tag_126\n      jump\t// in\n    tag_124:\n      mload(0x40)\n      tag_127\n      swap2\n      swap1\n      tag_123\n      jump\t// in\n    tag_127:\n      mload(0x40)\n      dup1\n      swap2\n      sub\n      swap1\n      return\n        /* \"contracts/BusinessConsensus.sol\":557:605  mapping(bytes32 => uint256) public expiryLengths */\n    tag_31:\n      mstore(0x20, 0x03)\n      dup1\n      0x00\n      mstore\n      keccak256(0x00, 0x40)\n      0x00\n      swap2\n      pop\n      swap1\n      pop\n      sload\n      dup2\n      jump\t// out\n        /* \"contracts/BusinessConsensus.sol\":6091:6518  function retrieve_bundle(bytes32 _messageID) external view returns (bool, bytes32, uint256, Voter[] memory){\r... */\n    tag_36:\n        /* \"contracts/BusinessConsensus.sol\":6159:6163  bool */\n      0x00\n        /* \"contracts/BusinessConsensus.sol\":6165:6172  bytes32 */\n      dup1\n        /* \"contracts/BusinessConsensus.sol\":6174:6181  uint256 */\n      0x00\n        /* \"contracts/BusinessConsensus.sol\":6183:6197  Voter[] memory */\n      0x60\n        /* \"contracts/BusinessConsensus.sol\":6236:6247  expiryDates */\n      0x04\n        /* \"contracts/BusinessConsensus.sol\":6236:6259  expiryDates[_messageID] */\n      0x00\n        /* \"contracts/BusinessConsensus.sol\":6248:6258  _messageID */\n      dup7\n        /* \"contracts/BusinessConsensus.sol\":6236:6259  expiryDates[_messageID] */\n      dup2\n      mstore\n      0x20\n      add\n      swap1\n      dup2\n      mstore\n      0x20\n      add\n      0x00\n      keccak256\n      sload\n        /* \"contracts/BusinessConsensus.sol\":6217:6232  block.timestamp */\n      timestamp\n        /* \"contracts/BusinessConsensus.sol\":6217:6259  block.timestamp >= expiryDates[_messageID] */\n      lt\n      iszero\n        /* \"contracts/BusinessConsensus.sol\":6209:6296  require(block.timestamp >= expiryDates[_messageID], \"Verdict has not been reached yet\") */\n      tag_129\n      jumpi\n      mload(0x40)\n      0x08c379a000000000000000000000000000000000000000000000000000000000\n      dup2\n      mstore\n      0x04\n      add\n      tag_130\n      swap1\n      tag_131\n      jump\t// in\n    tag_130:\n      mload(0x40)\n      dup1\n      swap2\n      sub\n      swap1\n      revert\n    tag_129:\n        /* \"contracts/BusinessConsensus.sol\":6307:6328  Voter[] memory voters */\n      0x00\n        /* \"contracts/BusinessConsensus.sol\":6331:6337  Voters */\n      0x0c\n        /* \"contracts/BusinessConsensus.sol\":6331:6349  Voters[_messageID] */\n      0x00\n        /* \"contracts/BusinessConsensus.sol\":6338:6348  _messageID */\n      dup8\n        /* \"contracts/BusinessConsensus.sol\":6331:6349  Voters[_messageID] */\n      dup2\n      mstore\n      0x20\n      add\n      swap1\n      dup2\n      mstore\n      0x20\n      add\n      0x00\n      keccak256\n        /* \"contracts/BusinessConsensus.sol\":6307:6349  Voter[] memory voters = Voters[_messageID] */\n      dup1\n      sload\n      dup1\n      0x20\n      mul\n      0x20\n      add\n      mload(0x40)\n      swap1\n      dup2\n      add\n      0x40\n      mstore\n      dup1\n      swap3\n      swap2\n      swap1\n      dup2\n      dup2\n      mstore\n      0x20\n      add\n      0x00\n      swap1\n    tag_132:\n      dup3\n      dup3\n      lt\n      iszero\n      tag_133\n      jumpi\n      dup4\n      dup3\n      swap1\n      0x00\n      mstore\n      keccak256(0x00, 0x20)\n      add\n      mload(0x40)\n      dup1\n      0x60\n      add\n      0x40\n      mstore\n      swap1\n      dup2\n      0x00\n      dup3\n      add\n      0x00\n      swap1\n      sload\n      swap1\n      0x0100\n      exp\n      swap1\n      div\n      0xff\n      and\n      iszero\n      iszero\n      iszero\n      iszero\n      dup2\n      mstore\n      0x20\n      add\n      0x00\n      dup3\n      add\n      0x01\n      swap1\n      sload\n      swap1\n      0x0100\n      exp\n      swap1\n      div\n      0xff\n      and\n      iszero\n      iszero\n      iszero\n      iszero\n      dup2\n      mstore\n      0x20\n      add\n      0x00\n      dup3\n      add\n      0x02\n      swap1\n      sload\n      swap1\n      0x0100\n      exp\n      swap1\n      div\n      0xffffffffffffffffffffffffffffffffffffffff\n      and\n      0xffffffffffffffffffffffffffffffffffffffff\n      and\n      0xffffffffffffffffffffffffffffffffffffffff\n      and\n      dup2\n      mstore\n      pop\n      pop\n      dup2\n      mstore\n      0x20\n      add\n      swap1\n      0x01\n      add\n      swap1\n      jump(tag_132)\n    tag_133:\n      pop\n      pop\n      pop\n      pop\n      swap1\n      pop\n        /* \"contracts/BusinessConsensus.sol\":6360:6372  bool verdict */\n      0x00\n        /* \"contracts/BusinessConsensus.sol\":6375:6388  finalVerdicts */\n      0x09\n        /* \"contracts/BusinessConsensus.sol\":6375:6400  finalVerdicts[_messageID] */\n      0x00\n        /* \"contracts/BusinessConsensus.sol\":6389:6399  _messageID */\n      dup9\n        /* \"contracts/BusinessConsensus.sol\":6375:6400  finalVerdicts[_messageID] */\n      dup2\n      mstore\n      0x20\n      add\n      swap1\n      dup2\n      mstore\n      0x20\n      add\n      0x00\n      keccak256\n      0x00\n      swap1\n      sload\n      swap1\n      0x0100\n      exp\n      swap1\n      div\n      0xff\n      and\n        /* \"contracts/BusinessConsensus.sol\":6360:6400  bool verdict = finalVerdicts[_messageID] */\n      swap1\n      pop\n        /* \"contracts/BusinessConsensus.sol\":6411:6424  uint256 count */\n      0x00\n        /* \"contracts/BusinessConsensus.sol\":6427:6437  voteCounts */\n      0x02\n        /* \"contracts/BusinessConsensus.sol\":6427:6449  voteCounts[_messageID] */\n      0x00\n        /* \"contracts/BusinessConsensus.sol\":6438:6448  _messageID */\n      dup10\n        /* \"contracts/BusinessConsensus.sol\":6427:6449  voteCounts[_messageID] */\n      dup2\n      mstore\n      0x20\n      add\n      swap1\n      dup2\n      mstore\n      0x20\n      add\n      0x00\n      keccak256\n      sload\n        /* \"contracts/BusinessConsensus.sol\":6411:6449  uint256 count = voteCounts[_messageID] */\n      swap1\n      pop\n        /* \"contracts/BusinessConsensus.sol\":6468:6475  verdict */\n      dup2\n        /* \"contracts/BusinessConsensus.sol\":6476:6486  _messageID */\n      dup9\n        /* \"contracts/BusinessConsensus.sol\":6487:6492  count */\n      dup3\n        /* \"contracts/BusinessConsensus.sol\":6493:6499  voters */\n      dup6\n        /* \"contracts/BusinessConsensus.sol\":6460:6500  return (verdict,_messageID,count,voters) */\n      swap7\n      pop\n      swap7\n      pop\n      swap7\n      pop\n      swap7\n      pop\n      pop\n      pop\n      pop\n        /* \"contracts/BusinessConsensus.sol\":6091:6518  function retrieve_bundle(bytes32 _messageID) external view returns (bool, bytes32, uint256, Voter[] memory){\r... */\n      swap2\n      swap4\n      pop\n      swap2\n      swap4\n      jump\t// out\n        /* \"contracts/BusinessConsensus.sol\":2222:2790  function checkConsistency(bytes32 _keyID, uint256 _businessRequirement, uint256 _expiryLength, bytes32 _contents) public view returns(bool, bool, bool){\r... */\n    tag_42:\n        /* \"contracts/BusinessConsensus.sol\":2356:2360  bool */\n      0x00\n        /* \"contracts/BusinessConsensus.sol\":2362:2366  bool */\n      dup1\n        /* \"contracts/BusinessConsensus.sol\":2368:2372  bool */\n      0x00\n        /* \"contracts/BusinessConsensus.sol\":2384:2395  bool value1 */\n      dup1\n        /* \"contracts/BusinessConsensus.sol\":2398:2402  true */\n      0x01\n        /* \"contracts/BusinessConsensus.sol\":2384:2402  bool value1 = true */\n      swap1\n      pop\n        /* \"contracts/BusinessConsensus.sol\":2413:2424  bool value2 */\n      0x00\n        /* \"contracts/BusinessConsensus.sol\":2427:2431  true */\n      0x01\n        /* \"contracts/BusinessConsensus.sol\":2413:2431  bool value2 = true */\n      swap1\n      pop\n        /* \"contracts/BusinessConsensus.sol\":2442:2453  bool value3 */\n      0x00\n        /* \"contracts/BusinessConsensus.sol\":2456:2460  true */\n      0x01\n        /* \"contracts/BusinessConsensus.sol\":2442:2460  bool value3 = true */\n      swap1\n      pop\n        /* \"contracts/BusinessConsensus.sol\":2498:2518  businessRequirements */\n      0x07\n        /* \"contracts/BusinessConsensus.sol\":2498:2526  businessRequirements[_keyID] */\n      0x00\n        /* \"contracts/BusinessConsensus.sol\":2519:2525  _keyID */\n      dup12\n        /* \"contracts/BusinessConsensus.sol\":2498:2526  businessRequirements[_keyID] */\n      dup2\n      mstore\n      0x20\n      add\n      swap1\n      dup2\n      mstore\n      0x20\n      add\n      0x00\n      keccak256\n      sload\n        /* \"contracts/BusinessConsensus.sol\":2474:2494  _businessRequirement */\n      dup10\n        /* \"contracts/BusinessConsensus.sol\":2474:2526  _businessRequirement != businessRequirements[_keyID] */\n      eq\n        /* \"contracts/BusinessConsensus.sol\":2471:2568  if(_businessRequirement != businessRequirements[_keyID]){\r... */\n      tag_136\n      jumpi\n        /* \"contracts/BusinessConsensus.sol\":2551:2556  false */\n      0x00\n        /* \"contracts/BusinessConsensus.sol\":2542:2556  value1 = false */\n      swap3\n      pop\n        /* \"contracts/BusinessConsensus.sol\":2471:2568  if(_businessRequirement != businessRequirements[_keyID]){\r... */\n    tag_136:\n        /* \"contracts/BusinessConsensus.sol\":2594:2602  contents */\n      0x05\n        /* \"contracts/BusinessConsensus.sol\":2594:2610  contents[_keyID] */\n      0x00\n        /* \"contracts/BusinessConsensus.sol\":2603:2609  _keyID */\n      dup12\n        /* \"contracts/BusinessConsensus.sol\":2594:2610  contents[_keyID] */\n      dup2\n      mstore\n      0x20\n      add\n      swap1\n      dup2\n      mstore\n      0x20\n      add\n      0x00\n      keccak256\n      sload\n        /* \"contracts/BusinessConsensus.sol\":2581:2590  _contents */\n      dup8\n        /* \"contracts/BusinessConsensus.sol\":2581:2610  _contents != contents[_keyID] */\n      eq\n        /* \"contracts/BusinessConsensus.sol\":2578:2652  if(_contents != contents[_keyID]){\r... */\n      tag_137\n      jumpi\n        /* \"contracts/BusinessConsensus.sol\":2635:2640  false */\n      0x00\n        /* \"contracts/BusinessConsensus.sol\":2626:2640  value2 = false */\n      swap2\n      pop\n        /* \"contracts/BusinessConsensus.sol\":2578:2652  if(_contents != contents[_keyID]){\r... */\n    tag_137:\n        /* \"contracts/BusinessConsensus.sol\":2690:2703  _expiryLength */\n      dup8\n        /* \"contracts/BusinessConsensus.sol\":2665:2678  expiryLengths */\n      0x03\n        /* \"contracts/BusinessConsensus.sol\":2665:2686  expiryLengths[_keyID] */\n      0x00\n        /* \"contracts/BusinessConsensus.sol\":2679:2685  _keyID */\n      dup13\n        /* \"contracts/BusinessConsensus.sol\":2665:2686  expiryLengths[_keyID] */\n      dup2\n      mstore\n      0x20\n      add\n      swap1\n      dup2\n      mstore\n      0x20\n      add\n      0x00\n      keccak256\n      sload\n        /* \"contracts/BusinessConsensus.sol\":2665:2703  expiryLengths[_keyID] != _expiryLength */\n      eq\n        /* \"contracts/BusinessConsensus.sol\":2662:2745  if(expiryLengths[_keyID] != _expiryLength){\r... */\n      tag_138\n      jumpi\n        /* \"contracts/BusinessConsensus.sol\":2728:2733  false */\n      0x00\n        /* \"contracts/BusinessConsensus.sol\":2719:2733  value3 = false */\n      swap1\n      pop\n        /* \"contracts/BusinessConsensus.sol\":2662:2745  if(expiryLengths[_keyID] != _expiryLength){\r... */\n    tag_138:\n        /* \"contracts/BusinessConsensus.sol\":2759:2765  value1 */\n      dup3\n        /* \"contracts/BusinessConsensus.sol\":2766:2772  value2 */\n      dup3\n        /* \"contracts/BusinessConsensus.sol\":2773:2779  value3 */\n      dup3\n        /* \"contracts/BusinessConsensus.sol\":2751:2780  return (value1,value2,value3) */\n      swap6\n      pop\n      swap6\n      pop\n      swap6\n      pop\n      pop\n      pop\n      pop\n        /* \"contracts/BusinessConsensus.sol\":2222:2790  function checkConsistency(bytes32 _keyID, uint256 _businessRequirement, uint256 _expiryLength, bytes32 _contents) public view returns(bool, bool, bool){\r... */\n      swap5\n      pop\n      swap5\n      pop\n      swap5\n      swap2\n      pop\n      pop\n      jump\t// out\n        /* \"contracts/BusinessConsensus.sol\":884:929  mapping(bytes32 => bool) public finalVerdicts */\n    tag_47:\n      mstore(0x20, 0x09)\n      dup1\n      0x00\n      mstore\n      keccak256(0x00, 0x40)\n      0x00\n      swap2\n      pop\n      sload\n      swap1\n      0x0100\n      exp\n      swap1\n      div\n      0xff\n      and\n      dup2\n      jump\t// out\n        /* \"contracts/BusinessConsensus.sol\":1051:1090  mapping(bytes32=>Voter[]) public Voters */\n    tag_53:\n      mstore(0x20, 0x0c)\n      dup2\n      0x00\n      mstore\n      keccak256(0x00, 0x40)\n      dup2\n      dup2\n      sload\n      dup2\n      lt\n      tag_139\n      jumpi\n      0x00\n      dup1\n      revert\n    tag_139:\n      swap1\n      0x00\n      mstore\n      keccak256(0x00, 0x20)\n      add\n      0x00\n      swap2\n      pop\n      swap2\n      pop\n      pop\n      dup1\n      0x00\n      add\n      0x00\n      swap1\n      sload\n      swap1\n      0x0100\n      exp\n      swap1\n      div\n      0xff\n      and\n      swap1\n      dup1\n      0x00\n      add\n      0x01\n      swap1\n      sload\n      swap1\n      0x0100\n      exp\n      swap1\n      div\n      0xff\n      and\n      swap1\n      dup1\n      0x00\n      add\n      0x02\n      swap1\n      sload\n      swap1\n      0x0100\n      exp\n      swap1\n      div\n      0xffffffffffffffffffffffffffffffffffffffff\n      and\n      swap1\n      pop\n      dup4\n      jump\t// out\n        /* \"contracts/BusinessConsensus.sol\":2099:2216  function getIsCompiled(bytes32 _messageID) public view returns (bool){\r... */\n    tag_58:\n        /* \"contracts/BusinessConsensus.sol\":2163:2167  bool */\n      0x00\n        /* \"contracts/BusinessConsensus.sol\":2186:2196  isCompiled */\n      0x0a\n        /* \"contracts/BusinessConsensus.sol\":2186:2208  isCompiled[_messageID] */\n      0x00\n        /* \"contracts/BusinessConsensus.sol\":2197:2207  _messageID */\n      dup4\n        /* \"contracts/BusinessConsensus.sol\":2186:2208  isCompiled[_messageID] */\n      dup2\n      mstore\n      0x20\n      add\n      swap1\n      dup2\n      mstore\n      0x20\n      add\n      0x00\n      keccak256\n      0x00\n      swap1\n      sload\n      swap1\n      0x0100\n      exp\n      swap1\n      div\n      0xff\n      and\n        /* \"contracts/BusinessConsensus.sol\":2179:2208  return isCompiled[_messageID] */\n      swap1\n      pop\n        /* \"contracts/BusinessConsensus.sol\":2099:2216  function getIsCompiled(bytes32 _messageID) public view returns (bool){\r... */\n      swap2\n      swap1\n      pop\n      jump\t// out\n        /* \"contracts/BusinessConsensus.sol\":612:658  mapping(bytes32 => uint256) public expiryDates */\n    tag_62:\n      mstore(0x20, 0x04)\n      dup1\n      0x00\n      mstore\n      keccak256(0x00, 0x40)\n      0x00\n      swap2\n      pop\n      swap1\n      pop\n      sload\n      dup2\n      jump\t// out\n        /* \"contracts/BusinessConsensus.sol\":769:824  mapping(bytes32 => uint256) public businessRequirements */\n    tag_66:\n      mstore(0x20, 0x07)\n      dup1\n      0x00\n      mstore\n      keccak256(0x00, 0x40)\n      0x00\n      swap2\n      pop\n      swap1\n      pop\n      sload\n      dup2\n      jump\t// out\n        /* \"contracts/BusinessConsensus.sol\":5150:6083  function Consensus(bytes32 _messageID) external {\r... */\n    tag_70:\n        /* \"contracts/BusinessConsensus.sol\":5236:5247  expiryDates */\n      0x04\n        /* \"contracts/BusinessConsensus.sol\":5236:5259  expiryDates[_messageID] */\n      0x00\n        /* \"contracts/BusinessConsensus.sol\":5248:5258  _messageID */\n      dup3\n        /* \"contracts/BusinessConsensus.sol\":5236:5259  expiryDates[_messageID] */\n      dup2\n      mstore\n      0x20\n      add\n      swap1\n      dup2\n      mstore\n      0x20\n      add\n      0x00\n      keccak256\n      sload\n        /* \"contracts/BusinessConsensus.sol\":5217:5232  block.timestamp */\n      timestamp\n        /* \"contracts/BusinessConsensus.sol\":5217:5259  block.timestamp >= expiryDates[_messageID] */\n      lt\n      iszero\n        /* \"contracts/BusinessConsensus.sol\":5209:5296  require(block.timestamp >= expiryDates[_messageID], \"Verdict has not been reached yet\") */\n      tag_143\n      jumpi\n      mload(0x40)\n      0x08c379a000000000000000000000000000000000000000000000000000000000\n      dup2\n      mstore\n      0x04\n      add\n      tag_144\n      swap1\n      tag_131\n      jump\t// in\n    tag_144:\n      mload(0x40)\n      dup1\n      swap2\n      sub\n      swap1\n      revert\n    tag_143:\n        /* \"contracts/BusinessConsensus.sol\":5341:5346  false */\n      0x00\n        /* \"contracts/BusinessConsensus.sol\":5315:5346  isCompiled[_messageID] == false */\n      iszero\n      iszero\n        /* \"contracts/BusinessConsensus.sol\":5315:5325  isCompiled */\n      0x0a\n        /* \"contracts/BusinessConsensus.sol\":5315:5337  isCompiled[_messageID] */\n      0x00\n        /* \"contracts/BusinessConsensus.sol\":5326:5336  _messageID */\n      dup4\n        /* \"contracts/BusinessConsensus.sol\":5315:5337  isCompiled[_messageID] */\n      dup2\n      mstore\n      0x20\n      add\n      swap1\n      dup2\n      mstore\n      0x20\n      add\n      0x00\n      keccak256\n      0x00\n      swap1\n      sload\n      swap1\n      0x0100\n      exp\n      swap1\n      div\n      0xff\n      and\n        /* \"contracts/BusinessConsensus.sol\":5315:5346  isCompiled[_messageID] == false */\n      iszero\n      iszero\n      eq\n        /* \"contracts/BusinessConsensus.sol\":5307:5388  require(isCompiled[_messageID] == false, \"Consensus has already been calculated\") */\n      tag_145\n      jumpi\n      mload(0x40)\n      0x08c379a000000000000000000000000000000000000000000000000000000000\n      dup2\n      mstore\n      0x04\n      add\n      tag_146\n      swap1\n      tag_147\n      jump\t// in\n    tag_146:\n      mload(0x40)\n      dup1\n      swap2\n      sub\n      swap1\n      revert\n    tag_145:\n        /* \"contracts/BusinessConsensus.sol\":5421:5431  initiators */\n      0x00\n        /* \"contracts/BusinessConsensus.sol\":5421:5443  initiators[_messageID] */\n      dup1\n        /* \"contracts/BusinessConsensus.sol\":5432:5442  _messageID */\n      dup3\n        /* \"contracts/BusinessConsensus.sol\":5421:5443  initiators[_messageID] */\n      dup2\n      mstore\n      0x20\n      add\n      swap1\n      dup2\n      mstore\n      0x20\n      add\n      0x00\n      keccak256\n      0x00\n      swap1\n      sload\n      swap1\n      0x0100\n      exp\n      swap1\n      div\n      0xffffffffffffffffffffffffffffffffffffffff\n      and\n        /* \"contracts/BusinessConsensus.sol\":5407:5443  msg.sender == initiators[_messageID] */\n      0xffffffffffffffffffffffffffffffffffffffff\n      and\n        /* \"contracts/BusinessConsensus.sol\":5407:5417  msg.sender */\n      caller\n        /* \"contracts/BusinessConsensus.sol\":5407:5443  msg.sender == initiators[_messageID] */\n      0xffffffffffffffffffffffffffffffffffffffff\n      and\n      eq\n        /* \"contracts/BusinessConsensus.sol\":5407:5507  msg.sender == initiators[_messageID] || voter_maps[_messageID][msg.sender].recipient != address(0x0) */\n      dup1\n      tag_148\n      jumpi\n      pop\n        /* \"contracts/BusinessConsensus.sol\":5503:5506  0x0 */\n      0x00\n        /* \"contracts/BusinessConsensus.sol\":5447:5507  voter_maps[_messageID][msg.sender].recipient != address(0x0) */\n      0xffffffffffffffffffffffffffffffffffffffff\n      and\n        /* \"contracts/BusinessConsensus.sol\":5447:5457  voter_maps */\n      0x0b\n        /* \"contracts/BusinessConsensus.sol\":5447:5469  voter_maps[_messageID] */\n      0x00\n        /* \"contracts/BusinessConsensus.sol\":5458:5468  _messageID */\n      dup4\n        /* \"contracts/BusinessConsensus.sol\":5447:5469  voter_maps[_messageID] */\n      dup2\n      mstore\n      0x20\n      add\n      swap1\n      dup2\n      mstore\n      0x20\n      add\n      0x00\n      keccak256\n        /* \"contracts/BusinessConsensus.sol\":5447:5481  voter_maps[_messageID][msg.sender] */\n      0x00\n        /* \"contracts/BusinessConsensus.sol\":5470:5480  msg.sender */\n      caller\n        /* \"contracts/BusinessConsensus.sol\":5447:5481  voter_maps[_messageID][msg.sender] */\n      0xffffffffffffffffffffffffffffffffffffffff\n      and\n      0xffffffffffffffffffffffffffffffffffffffff\n      and\n      dup2\n      mstore\n      0x20\n      add\n      swap1\n      dup2\n      mstore\n      0x20\n      add\n      0x00\n      keccak256\n        /* \"contracts/BusinessConsensus.sol\":5447:5491  voter_maps[_messageID][msg.sender].recipient */\n      0x00\n      add\n      0x02\n      swap1\n      sload\n      swap1\n      0x0100\n      exp\n      swap1\n      div\n      0xffffffffffffffffffffffffffffffffffffffff\n      and\n        /* \"contracts/BusinessConsensus.sol\":5447:5507  voter_maps[_messageID][msg.sender].recipient != address(0x0) */\n      0xffffffffffffffffffffffffffffffffffffffff\n      and\n      eq\n      iszero\n        /* \"contracts/BusinessConsensus.sol\":5407:5507  msg.sender == initiators[_messageID] || voter_maps[_messageID][msg.sender].recipient != address(0x0) */\n    tag_148:\n        /* \"contracts/BusinessConsensus.sol\":5399:5560  require(msg.sender == initiators[_messageID] || voter_maps[_messageID][msg.sender].recipient != address(0x0),\r... */\n      tag_149\n      jumpi\n      mload(0x40)\n      0x08c379a000000000000000000000000000000000000000000000000000000000\n      dup2\n      mstore\n      0x04\n      add\n      tag_150\n      swap1\n      tag_151\n      jump\t// in\n    tag_150:\n      mload(0x40)\n      dup1\n      swap2\n      sub\n      swap1\n      revert\n    tag_149:\n        /* \"contracts/BusinessConsensus.sol\":5571:5600  uint256 AccumulatedPercentage */\n      0x00\n        /* \"contracts/BusinessConsensus.sol\":5654:5657  100 */\n      0x64\n        /* \"contracts/BusinessConsensus.sol\":5629:5633  keys */\n      0x0d\n        /* \"contracts/BusinessConsensus.sol\":5629:5645  keys[_messageID] */\n      0x00\n        /* \"contracts/BusinessConsensus.sol\":5634:5644  _messageID */\n      dup5\n        /* \"contracts/BusinessConsensus.sol\":5629:5645  keys[_messageID] */\n      dup2\n      mstore\n      0x20\n      add\n      swap1\n      dup2\n      mstore\n      0x20\n      add\n      0x00\n      keccak256\n        /* \"contracts/BusinessConsensus.sol\":5629:5652  keys[_messageID].length */\n      dup1\n      sload\n      swap1\n      pop\n        /* \"contracts/BusinessConsensus.sol\":5604:5616  numApprovals */\n      0x06\n        /* \"contracts/BusinessConsensus.sol\":5604:5628  numApprovals[_messageID] */\n      0x00\n        /* \"contracts/BusinessConsensus.sol\":5617:5627  _messageID */\n      dup6\n        /* \"contracts/BusinessConsensus.sol\":5604:5628  numApprovals[_messageID] */\n      dup2\n      mstore\n      0x20\n      add\n      swap1\n      dup2\n      mstore\n      0x20\n      add\n      0x00\n      keccak256\n      sload\n        /* \"contracts/BusinessConsensus.sol\":5604:5652  numApprovals[_messageID]/keys[_messageID].length */\n      tag_152\n      swap2\n      swap1\n      tag_153\n      jump\t// in\n    tag_152:\n        /* \"contracts/BusinessConsensus.sol\":5603:5657  (numApprovals[_messageID]/keys[_messageID].length)*100 */\n      tag_154\n      swap2\n      swap1\n      tag_155\n      jump\t// in\n    tag_154:\n        /* \"contracts/BusinessConsensus.sol\":5571:5657  uint256 AccumulatedPercentage = (numApprovals[_messageID]/keys[_messageID].length)*100 */\n      swap1\n      pop\n        /* \"contracts/BusinessConsensus.sol\":5696:5716  businessRequirements */\n      0x07\n        /* \"contracts/BusinessConsensus.sol\":5696:5728  businessRequirements[_messageID] */\n      0x00\n        /* \"contracts/BusinessConsensus.sol\":5717:5727  _messageID */\n      dup4\n        /* \"contracts/BusinessConsensus.sol\":5696:5728  businessRequirements[_messageID] */\n      dup2\n      mstore\n      0x20\n      add\n      swap1\n      dup2\n      mstore\n      0x20\n      add\n      0x00\n      keccak256\n      sload\n        /* \"contracts/BusinessConsensus.sol\":5671:5692  AccumulatedPercentage */\n      dup2\n        /* \"contracts/BusinessConsensus.sol\":5671:5728  AccumulatedPercentage >= businessRequirements[_messageID] */\n      lt\n        /* \"contracts/BusinessConsensus.sol\":5668:5788  if(AccumulatedPercentage >= businessRequirements[_messageID]){\r... */\n      tag_156\n      jumpi\n        /* \"contracts/BusinessConsensus.sol\":5772:5776  true */\n      0x01\n        /* \"contracts/BusinessConsensus.sol\":5744:5757  finalVerdicts */\n      0x09\n        /* \"contracts/BusinessConsensus.sol\":5744:5769  finalVerdicts[_messageID] */\n      0x00\n        /* \"contracts/BusinessConsensus.sol\":5758:5768  _messageID */\n      dup5\n        /* \"contracts/BusinessConsensus.sol\":5744:5769  finalVerdicts[_messageID] */\n      dup2\n      mstore\n      0x20\n      add\n      swap1\n      dup2\n      mstore\n      0x20\n      add\n      0x00\n      keccak256\n      0x00\n        /* \"contracts/BusinessConsensus.sol\":5744:5776  finalVerdicts[_messageID] = true */\n      0x0100\n      exp\n      dup2\n      sload\n      dup2\n      0xff\n      mul\n      not\n      and\n      swap1\n      dup4\n      iszero\n      iszero\n      mul\n      or\n      swap1\n      sstore\n      pop\n        /* \"contracts/BusinessConsensus.sol\":5668:5788  if(AccumulatedPercentage >= businessRequirements[_messageID]){\r... */\n    tag_156:\n        /* \"contracts/BusinessConsensus.sol\":5802:5809  uint8 i */\n      0x00\n        /* \"contracts/BusinessConsensus.sol\":5798:6036  for(uint8 i=0; i< keys[_messageID].length; i++){\r... */\n    tag_157:\n        /* \"contracts/BusinessConsensus.sol\":5816:5820  keys */\n      0x0d\n        /* \"contracts/BusinessConsensus.sol\":5816:5832  keys[_messageID] */\n      0x00\n        /* \"contracts/BusinessConsensus.sol\":5821:5831  _messageID */\n      dup5\n        /* \"contracts/BusinessConsensus.sol\":5816:5832  keys[_messageID] */\n      dup2\n      mstore\n      0x20\n      add\n      swap1\n      dup2\n      mstore\n      0x20\n      add\n      0x00\n      keccak256\n        /* \"contracts/BusinessConsensus.sol\":5816:5839  keys[_messageID].length */\n      dup1\n      sload\n      swap1\n      pop\n        /* \"contracts/BusinessConsensus.sol\":5813:5814  i */\n      dup2\n        /* \"contracts/BusinessConsensus.sol\":5813:5839  i< keys[_messageID].length */\n      0xff\n      and\n      lt\n        /* \"contracts/BusinessConsensus.sol\":5798:6036  for(uint8 i=0; i< keys[_messageID].length; i++){\r... */\n      iszero\n      tag_158\n      jumpi\n        /* \"contracts/BusinessConsensus.sol\":5916:5921  false */\n      0x00\n        /* \"contracts/BusinessConsensus.sol\":5863:5921  voter_maps[_messageID][keys[_messageID][i]].voted == false */\n      iszero\n      iszero\n        /* \"contracts/BusinessConsensus.sol\":5863:5873  voter_maps */\n      0x0b\n        /* \"contracts/BusinessConsensus.sol\":5863:5885  voter_maps[_messageID] */\n      0x00\n        /* \"contracts/BusinessConsensus.sol\":5874:5884  _messageID */\n      dup6\n        /* \"contracts/BusinessConsensus.sol\":5863:5885  voter_maps[_messageID] */\n      dup2\n      mstore\n      0x20\n      add\n      swap1\n      dup2\n      mstore\n      0x20\n      add\n      0x00\n      keccak256\n        /* \"contracts/BusinessConsensus.sol\":5863:5906  voter_maps[_messageID][keys[_messageID][i]] */\n      0x00\n        /* \"contracts/BusinessConsensus.sol\":5886:5890  keys */\n      0x0d\n        /* \"contracts/BusinessConsensus.sol\":5886:5902  keys[_messageID] */\n      0x00\n        /* \"contracts/BusinessConsensus.sol\":5891:5901  _messageID */\n      dup8\n        /* \"contracts/BusinessConsensus.sol\":5886:5902  keys[_messageID] */\n      dup2\n      mstore\n      0x20\n      add\n      swap1\n      dup2\n      mstore\n      0x20\n      add\n      0x00\n      keccak256\n        /* \"contracts/BusinessConsensus.sol\":5903:5904  i */\n      dup5\n        /* \"contracts/BusinessConsensus.sol\":5886:5905  keys[_messageID][i] */\n      0xff\n      and\n      dup2\n      sload\n      dup2\n      lt\n      tag_160\n      jumpi\n      tag_161\n      tag_162\n      jump\t// in\n    tag_161:\n    tag_160:\n      swap1\n      0x00\n      mstore\n      keccak256(0x00, 0x20)\n      add\n      0x00\n      swap1\n      sload\n      swap1\n      0x0100\n      exp\n      swap1\n      div\n      0xffffffffffffffffffffffffffffffffffffffff\n      and\n        /* \"contracts/BusinessConsensus.sol\":5863:5906  voter_maps[_messageID][keys[_messageID][i]] */\n      0xffffffffffffffffffffffffffffffffffffffff\n      and\n      0xffffffffffffffffffffffffffffffffffffffff\n      and\n      dup2\n      mstore\n      0x20\n      add\n      swap1\n      dup2\n      mstore\n      0x20\n      add\n      0x00\n      keccak256\n        /* \"contracts/BusinessConsensus.sol\":5863:5912  voter_maps[_messageID][keys[_messageID][i]].voted */\n      0x00\n      add\n      0x00\n      swap1\n      sload\n      swap1\n      0x0100\n      exp\n      swap1\n      div\n      0xff\n      and\n        /* \"contracts/BusinessConsensus.sol\":5863:5921  voter_maps[_messageID][keys[_messageID][i]].voted == false */\n      iszero\n      iszero\n      eq\n        /* \"contracts/BusinessConsensus.sol\":5860:6025  if(voter_maps[_messageID][keys[_messageID][i]].voted == false){\r... */\n      iszero\n      tag_164\n      jumpi\n        /* \"contracts/BusinessConsensus.sol\":5941:5947  Voters */\n      0x0c\n        /* \"contracts/BusinessConsensus.sol\":5941:5959  Voters[_messageID] */\n      0x00\n        /* \"contracts/BusinessConsensus.sol\":5948:5958  _messageID */\n      dup5\n        /* \"contracts/BusinessConsensus.sol\":5941:5959  Voters[_messageID] */\n      dup2\n      mstore\n      0x20\n      add\n      swap1\n      dup2\n      mstore\n      0x20\n      add\n      0x00\n      keccak256\n        /* \"contracts/BusinessConsensus.sol\":5965:5975  voter_maps */\n      0x0b\n        /* \"contracts/BusinessConsensus.sol\":5965:5987  voter_maps[_messageID] */\n      0x00\n        /* \"contracts/BusinessConsensus.sol\":5976:5986  _messageID */\n      dup6\n        /* \"contracts/BusinessConsensus.sol\":5965:5987  voter_maps[_messageID] */\n      dup2\n      mstore\n      0x20\n      add\n      swap1\n      dup2\n      mstore\n      0x20\n      add\n      0x00\n      keccak256\n        /* \"contracts/BusinessConsensus.sol\":5965:6008  voter_maps[_messageID][keys[_messageID][i]] */\n      0x00\n        /* \"contracts/BusinessConsensus.sol\":5988:5992  keys */\n      0x0d\n        /* \"contracts/BusinessConsensus.sol\":5988:6004  keys[_messageID] */\n      0x00\n        /* \"contracts/BusinessConsensus.sol\":5993:6003  _messageID */\n      dup8\n        /* \"contracts/BusinessConsensus.sol\":5988:6004  keys[_messageID] */\n      dup2\n      mstore\n      0x20\n      add\n      swap1\n      dup2\n      mstore\n      0x20\n      add\n      0x00\n      keccak256\n        /* \"contracts/BusinessConsensus.sol\":6005:6006  i */\n      dup5\n        /* \"contracts/BusinessConsensus.sol\":5988:6007  keys[_messageID][i] */\n      0xff\n      and\n      dup2\n      sload\n      dup2\n      lt\n      tag_165\n      jumpi\n      tag_166\n      tag_162\n      jump\t// in\n    tag_166:\n    tag_165:\n      swap1\n      0x00\n      mstore\n      keccak256(0x00, 0x20)\n      add\n      0x00\n      swap1\n      sload\n      swap1\n      0x0100\n      exp\n      swap1\n      div\n      0xffffffffffffffffffffffffffffffffffffffff\n      and\n        /* \"contracts/BusinessConsensus.sol\":5965:6008  voter_maps[_messageID][keys[_messageID][i]] */\n      0xffffffffffffffffffffffffffffffffffffffff\n      and\n      0xffffffffffffffffffffffffffffffffffffffff\n      and\n      dup2\n      mstore\n      0x20\n      add\n      swap1\n      dup2\n      mstore\n      0x20\n      add\n      0x00\n      keccak256\n        /* \"contracts/BusinessConsensus.sol\":5941:6009  Voters[_messageID].push(voter_maps[_messageID][keys[_messageID][i]]) */\n      swap1\n      dup1\n      0x01\n      dup2\n      sload\n      add\n      dup1\n      dup3\n      sstore\n      dup1\n      swap2\n      pop\n      pop\n      0x01\n      swap1\n      sub\n      swap1\n      0x00\n      mstore\n      keccak256(0x00, 0x20)\n      add\n      0x00\n      swap1\n      swap2\n      swap1\n      swap2\n      swap1\n      swap2\n      pop\n      0x00\n      dup3\n      add\n      0x00\n      swap1\n      sload\n      swap1\n      0x0100\n      exp\n      swap1\n      div\n      0xff\n      and\n      dup2\n      0x00\n      add\n      exp(0x0100, 0x00)\n      dup2\n      sload\n      dup2\n      0xff\n      mul\n      not\n      and\n      swap1\n      dup4\n      iszero\n      iszero\n      mul\n      or\n      swap1\n      sstore\n      pop\n      0x00\n      dup3\n      add\n      0x01\n      swap1\n      sload\n      swap1\n      0x0100\n      exp\n      swap1\n      div\n      0xff\n      and\n      dup2\n      0x00\n      add\n      exp(0x0100, 0x01)\n      dup2\n      sload\n      dup2\n      0xff\n      mul\n      not\n      and\n      swap1\n      dup4\n      iszero\n      iszero\n      mul\n      or\n      swap1\n      sstore\n      pop\n      0x00\n      dup3\n      add\n      0x02\n      swap1\n      sload\n      swap1\n      0x0100\n      exp\n      swap1\n      div\n      0xffffffffffffffffffffffffffffffffffffffff\n      and\n      dup2\n      0x00\n      add\n      exp(0x0100, 0x02)\n      dup2\n      sload\n      dup2\n      0xffffffffffffffffffffffffffffffffffffffff\n      mul\n      not\n      and\n      swap1\n      dup4\n      0xffffffffffffffffffffffffffffffffffffffff\n      and\n      mul\n      or\n      swap1\n      sstore\n      pop\n      pop\n      pop\n        /* \"contracts/BusinessConsensus.sol\":5860:6025  if(voter_maps[_messageID][keys[_messageID][i]].voted == false){\r... */\n    tag_164:\n        /* \"contracts/BusinessConsensus.sol\":5841:5844  i++ */\n      dup1\n      dup1\n      tag_169\n      swap1\n      tag_170\n      jump\t// in\n    tag_169:\n      swap2\n      pop\n      pop\n        /* \"contracts/BusinessConsensus.sol\":5798:6036  for(uint8 i=0; i< keys[_messageID].length; i++){\r... */\n      jump(tag_157)\n    tag_158:\n      pop\n        /* \"contracts/BusinessConsensus.sol\":6071:6075  true */\n      0x01\n        /* \"contracts/BusinessConsensus.sol\":6046:6056  isCompiled */\n      0x0a\n        /* \"contracts/BusinessConsensus.sol\":6046:6068  isCompiled[_messageID] */\n      0x00\n        /* \"contracts/BusinessConsensus.sol\":6057:6067  _messageID */\n      dup5\n        /* \"contracts/BusinessConsensus.sol\":6046:6068  isCompiled[_messageID] */\n      dup2\n      mstore\n      0x20\n      add\n      swap1\n      dup2\n      mstore\n      0x20\n      add\n      0x00\n      keccak256\n      0x00\n        /* \"contracts/BusinessConsensus.sol\":6046:6075  isCompiled[_messageID] = true */\n      0x0100\n      exp\n      dup2\n      sload\n      dup2\n      0xff\n      mul\n      not\n      and\n      swap1\n      dup4\n      iszero\n      iszero\n      mul\n      or\n      swap1\n      sstore\n      pop\n        /* \"contracts/BusinessConsensus.sol\":5198:6083  {\r... */\n      pop\n        /* \"contracts/BusinessConsensus.sol\":5150:6083  function Consensus(bytes32 _messageID) external {\r... */\n      pop\n      jump\t// out\n        /* \"contracts/BusinessConsensus.sol\":1097:1136  mapping(bytes32=>address[]) public keys */\n    tag_73:\n      mstore(0x20, 0x0d)\n      dup2\n      0x00\n      mstore\n      keccak256(0x00, 0x40)\n      dup2\n      dup2\n      sload\n      dup2\n      lt\n      tag_171\n      jumpi\n      0x00\n      dup1\n      revert\n    tag_171:\n      swap1\n      0x00\n      mstore\n      keccak256(0x00, 0x20)\n      add\n      0x00\n      swap2\n      pop\n      swap2\n      pop\n      swap1\n      sload\n      swap1\n      0x0100\n      exp\n      swap1\n      div\n      0xffffffffffffffffffffffffffffffffffffffff\n      and\n      dup2\n      jump\t// out\n        /* \"contracts/BusinessConsensus.sol\":505:550  mapping(bytes32 => uint256) public voteCounts */\n    tag_78:\n      mstore(0x20, 0x02)\n      dup1\n      0x00\n      mstore\n      keccak256(0x00, 0x40)\n      0x00\n      swap2\n      pop\n      swap1\n      pop\n      sload\n      dup2\n      jump\t// out\n        /* \"contracts/BusinessConsensus.sol\":936:978  mapping(bytes32 => bool) public isCompiled */\n    tag_82:\n      mstore(0x20, 0x0a)\n      dup1\n      0x00\n      mstore\n      keccak256(0x00, 0x40)\n      0x00\n      swap2\n      pop\n      sload\n      swap1\n      0x0100\n      exp\n      swap1\n      div\n      0xff\n      and\n      dup2\n      jump\t// out\n        /* \"contracts/BusinessConsensus.sol\":3789:5086  function Vote(string memory response,bytes32 _messageID) external {\r... */\n    tag_87:\n        /* \"contracts/BusinessConsensus.sol\":3894:3905  expiryDates */\n      0x04\n        /* \"contracts/BusinessConsensus.sol\":3894:3917  expiryDates[_messageID] */\n      0x00\n        /* \"contracts/BusinessConsensus.sol\":3906:3916  _messageID */\n      dup3\n        /* \"contracts/BusinessConsensus.sol\":3894:3917  expiryDates[_messageID] */\n      dup2\n      mstore\n      0x20\n      add\n      swap1\n      dup2\n      mstore\n      0x20\n      add\n      0x00\n      keccak256\n      sload\n        /* \"contracts/BusinessConsensus.sol\":3876:3891  block.timestamp */\n      timestamp\n        /* \"contracts/BusinessConsensus.sol\":3876:3917  block.timestamp < expiryDates[_messageID] */\n      lt\n        /* \"contracts/BusinessConsensus.sol\":3868:3940  require(block.timestamp < expiryDates[_messageID], \"Voting has expired\") */\n      tag_174\n      jumpi\n      mload(0x40)\n      0x08c379a000000000000000000000000000000000000000000000000000000000\n      dup2\n      mstore\n      0x04\n      add\n      tag_175\n      swap1\n      tag_176\n      jump\t// in\n    tag_175:\n      mload(0x40)\n      dup1\n      swap2\n      sub\n      swap1\n      revert\n    tag_174:\n        /* \"contracts/BusinessConsensus.sol\":4015:4018  0x0 */\n      0x00\n        /* \"contracts/BusinessConsensus.sol\":3959:4019  voter_maps[_messageID][msg.sender].recipient != address(0x0) */\n      0xffffffffffffffffffffffffffffffffffffffff\n      and\n        /* \"contracts/BusinessConsensus.sol\":3959:3969  voter_maps */\n      0x0b\n        /* \"contracts/BusinessConsensus.sol\":3959:3981  voter_maps[_messageID] */\n      0x00\n        /* \"contracts/BusinessConsensus.sol\":3970:3980  _messageID */\n      dup4\n        /* \"contracts/BusinessConsensus.sol\":3959:3981  voter_maps[_messageID] */\n      dup2\n      mstore\n      0x20\n      add\n      swap1\n      dup2\n      mstore\n      0x20\n      add\n      0x00\n      keccak256\n        /* \"contracts/BusinessConsensus.sol\":3959:3993  voter_maps[_messageID][msg.sender] */\n      0x00\n        /* \"contracts/BusinessConsensus.sol\":3982:3992  msg.sender */\n      caller\n        /* \"contracts/BusinessConsensus.sol\":3959:3993  voter_maps[_messageID][msg.sender] */\n      0xffffffffffffffffffffffffffffffffffffffff\n      and\n      0xffffffffffffffffffffffffffffffffffffffff\n      and\n      dup2\n      mstore\n      0x20\n      add\n      swap1\n      dup2\n      mstore\n      0x20\n      add\n      0x00\n      keccak256\n        /* \"contracts/BusinessConsensus.sol\":3959:4003  voter_maps[_messageID][msg.sender].recipient */\n      0x00\n      add\n      0x02\n      swap1\n      sload\n      swap1\n      0x0100\n      exp\n      swap1\n      div\n      0xffffffffffffffffffffffffffffffffffffffff\n      and\n        /* \"contracts/BusinessConsensus.sol\":3959:4019  voter_maps[_messageID][msg.sender].recipient != address(0x0) */\n      0xffffffffffffffffffffffffffffffffffffffff\n      and\n      eq\n      iszero\n        /* \"contracts/BusinessConsensus.sol\":3951:4054  require(voter_maps[_messageID][msg.sender].recipient != address(0x0), \"You are not registered to vote\") */\n      tag_177\n      jumpi\n      mload(0x40)\n      0x08c379a000000000000000000000000000000000000000000000000000000000\n      dup2\n      mstore\n      0x04\n      add\n      tag_178\n      swap1\n      tag_179\n      jump\t// in\n    tag_178:\n      mload(0x40)\n      dup1\n      swap2\n      sub\n      swap1\n      revert\n    tag_177:\n        /* \"contracts/BusinessConsensus.sol\":4074:4084  voter_maps */\n      0x0b\n        /* \"contracts/BusinessConsensus.sol\":4074:4096  voter_maps[_messageID] */\n      0x00\n        /* \"contracts/BusinessConsensus.sol\":4085:4095  _messageID */\n      dup3\n        /* \"contracts/BusinessConsensus.sol\":4074:4096  voter_maps[_messageID] */\n      dup2\n      mstore\n      0x20\n      add\n      swap1\n      dup2\n      mstore\n      0x20\n      add\n      0x00\n      keccak256\n        /* \"contracts/BusinessConsensus.sol\":4074:4108  voter_maps[_messageID][msg.sender] */\n      0x00\n        /* \"contracts/BusinessConsensus.sol\":4097:4107  msg.sender */\n      caller\n        /* \"contracts/BusinessConsensus.sol\":4074:4108  voter_maps[_messageID][msg.sender] */\n      0xffffffffffffffffffffffffffffffffffffffff\n      and\n      0xffffffffffffffffffffffffffffffffffffffff\n      and\n      dup2\n      mstore\n      0x20\n      add\n      swap1\n      dup2\n      mstore\n      0x20\n      add\n      0x00\n      keccak256\n        /* \"contracts/BusinessConsensus.sol\":4074:4114  voter_maps[_messageID][msg.sender].voted */\n      0x00\n      add\n      0x00\n      swap1\n      sload\n      swap1\n      0x0100\n      exp\n      swap1\n      div\n      0xff\n      and\n        /* \"contracts/BusinessConsensus.sol\":4073:4114  !voter_maps[_messageID][msg.sender].voted */\n      iszero\n        /* \"contracts/BusinessConsensus.sol\":4065:4147  require(!voter_maps[_messageID][msg.sender].voted, \"You already sent a response.\") */\n      tag_180\n      jumpi\n      mload(0x40)\n      0x08c379a000000000000000000000000000000000000000000000000000000000\n      dup2\n      mstore\n      0x04\n      add\n      tag_181\n      swap1\n      tag_182\n      jump\t// in\n    tag_181:\n      mload(0x40)\n      dup1\n      swap2\n      sub\n      swap1\n      revert\n    tag_180:\n        /* \"contracts/BusinessConsensus.sol\":4203:4221  bytes(\"i approve\") */\n      mload(0x40)\n      dup1\n      0x40\n      add\n      0x40\n      mstore\n      dup1\n      0x09\n      dup2\n      mstore\n      0x20\n      add\n      0x6920617070726f76650000000000000000000000000000000000000000000000\n      dup2\n      mstore\n      pop\n        /* \"contracts/BusinessConsensus.sol\":4193:4222  keccak256(bytes(\"i approve\")) */\n      dup1\n      mload\n      swap1\n      0x20\n      add\n      keccak256\n        /* \"contracts/BusinessConsensus.sol\":4179:4187  response */\n      dup3\n        /* \"contracts/BusinessConsensus.sol\":4163:4189  keccak256(bytes(response)) */\n      dup1\n      mload\n      swap1\n      0x20\n      add\n      keccak256\n        /* \"contracts/BusinessConsensus.sol\":4163:4222  keccak256(bytes(response)) == keccak256(bytes(\"i approve\")) */\n      eq\n        /* \"contracts/BusinessConsensus.sol\":4160:5069  if(keccak256(bytes(response)) == keccak256(bytes(\"i approve\"))){\r... */\n      iszero\n      tag_183\n      jumpi\n        /* \"contracts/BusinessConsensus.sol\":4281:4285  true */\n      0x01\n        /* \"contracts/BusinessConsensus.sol\":4238:4248  voter_maps */\n      0x0b\n        /* \"contracts/BusinessConsensus.sol\":4238:4260  voter_maps[_messageID] */\n      0x00\n        /* \"contracts/BusinessConsensus.sol\":4249:4259  _messageID */\n      dup4\n        /* \"contracts/BusinessConsensus.sol\":4238:4260  voter_maps[_messageID] */\n      dup2\n      mstore\n      0x20\n      add\n      swap1\n      dup2\n      mstore\n      0x20\n      add\n      0x00\n      keccak256\n        /* \"contracts/BusinessConsensus.sol\":4238:4272  voter_maps[_messageID][msg.sender] */\n      0x00\n        /* \"contracts/BusinessConsensus.sol\":4261:4271  msg.sender */\n      caller\n        /* \"contracts/BusinessConsensus.sol\":4238:4272  voter_maps[_messageID][msg.sender] */\n      0xffffffffffffffffffffffffffffffffffffffff\n      and\n      0xffffffffffffffffffffffffffffffffffffffff\n      and\n      dup2\n      mstore\n      0x20\n      add\n      swap1\n      dup2\n      mstore\n      0x20\n      add\n      0x00\n      keccak256\n        /* \"contracts/BusinessConsensus.sol\":4238:4278  voter_maps[_messageID][msg.sender].voted */\n      0x00\n      add\n      0x00\n        /* \"contracts/BusinessConsensus.sol\":4238:4285  voter_maps[_messageID][msg.sender].voted = true */\n      0x0100\n      exp\n      dup2\n      sload\n      dup2\n      0xff\n      mul\n      not\n      and\n      swap1\n      dup4\n      iszero\n      iszero\n      mul\n      or\n      swap1\n      sstore\n      pop\n        /* \"contracts/BusinessConsensus.sol\":4342:4346  true */\n      0x01\n        /* \"contracts/BusinessConsensus.sol\":4300:4310  voter_maps */\n      0x0b\n        /* \"contracts/BusinessConsensus.sol\":4300:4322  voter_maps[_messageID] */\n      0x00\n        /* \"contracts/BusinessConsensus.sol\":4311:4321  _messageID */\n      dup4\n        /* \"contracts/BusinessConsensus.sol\":4300:4322  voter_maps[_messageID] */\n      dup2\n      mstore\n      0x20\n      add\n      swap1\n      dup2\n      mstore\n      0x20\n      add\n      0x00\n      keccak256\n        /* \"contracts/BusinessConsensus.sol\":4300:4334  voter_maps[_messageID][msg.sender] */\n      0x00\n        /* \"contracts/BusinessConsensus.sol\":4323:4333  msg.sender */\n      caller\n        /* \"contracts/BusinessConsensus.sol\":4300:4334  voter_maps[_messageID][msg.sender] */\n      0xffffffffffffffffffffffffffffffffffffffff\n      and\n      0xffffffffffffffffffffffffffffffffffffffff\n      and\n      dup2\n      mstore\n      0x20\n      add\n      swap1\n      dup2\n      mstore\n      0x20\n      add\n      0x00\n      keccak256\n        /* \"contracts/BusinessConsensus.sol\":4300:4339  voter_maps[_messageID][msg.sender].vote */\n      0x00\n      add\n      0x01\n        /* \"contracts/BusinessConsensus.sol\":4300:4346  voter_maps[_messageID][msg.sender].vote = true */\n      0x0100\n      exp\n      dup2\n      sload\n      dup2\n      0xff\n      mul\n      not\n      and\n      swap1\n      dup4\n      iszero\n      iszero\n      mul\n      or\n      swap1\n      sstore\n      pop\n        /* \"contracts/BusinessConsensus.sol\":4389:4390  1 */\n      0x01\n        /* \"contracts/BusinessConsensus.sol\":4361:4373  numApprovals */\n      0x06\n        /* \"contracts/BusinessConsensus.sol\":4361:4385  numApprovals[_messageID] */\n      0x00\n        /* \"contracts/BusinessConsensus.sol\":4374:4384  _messageID */\n      dup4\n        /* \"contracts/BusinessConsensus.sol\":4361:4385  numApprovals[_messageID] */\n      dup2\n      mstore\n      0x20\n      add\n      swap1\n      dup2\n      mstore\n      0x20\n      add\n      0x00\n      keccak256\n      0x00\n        /* \"contracts/BusinessConsensus.sol\":4361:4390  numApprovals[_messageID] += 1 */\n      dup3\n      dup3\n      sload\n      tag_184\n      swap2\n      swap1\n      tag_185\n      jump\t// in\n    tag_184:\n      swap3\n      pop\n      pop\n      dup2\n      swap1\n      sstore\n      pop\n        /* \"contracts/BusinessConsensus.sol\":4431:4432  1 */\n      0x01\n        /* \"contracts/BusinessConsensus.sol\":4405:4415  voteCounts */\n      0x02\n        /* \"contracts/BusinessConsensus.sol\":4405:4427  voteCounts[_messageID] */\n      0x00\n        /* \"contracts/BusinessConsensus.sol\":4416:4426  _messageID */\n      dup4\n        /* \"contracts/BusinessConsensus.sol\":4405:4427  voteCounts[_messageID] */\n      dup2\n      mstore\n      0x20\n      add\n      swap1\n      dup2\n      mstore\n      0x20\n      add\n      0x00\n      keccak256\n      0x00\n        /* \"contracts/BusinessConsensus.sol\":4405:4432  voteCounts[_messageID] += 1 */\n      dup3\n      dup3\n      sload\n      tag_186\n      swap2\n      swap1\n      tag_185\n      jump\t// in\n    tag_186:\n      swap3\n      pop\n      pop\n      dup2\n      swap1\n      sstore\n      pop\n        /* \"contracts/BusinessConsensus.sol\":4447:4453  Voters */\n      0x0c\n        /* \"contracts/BusinessConsensus.sol\":4447:4465  Voters[_messageID] */\n      0x00\n        /* \"contracts/BusinessConsensus.sol\":4454:4464  _messageID */\n      dup3\n        /* \"contracts/BusinessConsensus.sol\":4447:4465  Voters[_messageID] */\n      dup2\n      mstore\n      0x20\n      add\n      swap1\n      dup2\n      mstore\n      0x20\n      add\n      0x00\n      keccak256\n        /* \"contracts/BusinessConsensus.sol\":4471:4481  voter_maps */\n      0x0b\n        /* \"contracts/BusinessConsensus.sol\":4471:4493  voter_maps[_messageID] */\n      0x00\n        /* \"contracts/BusinessConsensus.sol\":4482:4492  _messageID */\n      dup4\n        /* \"contracts/BusinessConsensus.sol\":4471:4493  voter_maps[_messageID] */\n      dup2\n      mstore\n      0x20\n      add\n      swap1\n      dup2\n      mstore\n      0x20\n      add\n      0x00\n      keccak256\n        /* \"contracts/BusinessConsensus.sol\":4471:4505  voter_maps[_messageID][msg.sender] */\n      0x00\n        /* \"contracts/BusinessConsensus.sol\":4494:4504  msg.sender */\n      caller\n        /* \"contracts/BusinessConsensus.sol\":4471:4505  voter_maps[_messageID][msg.sender] */\n      0xffffffffffffffffffffffffffffffffffffffff\n      and\n      0xffffffffffffffffffffffffffffffffffffffff\n      and\n      dup2\n      mstore\n      0x20\n      add\n      swap1\n      dup2\n      mstore\n      0x20\n      add\n      0x00\n      keccak256\n        /* \"contracts/BusinessConsensus.sol\":4447:4506  Voters[_messageID].push(voter_maps[_messageID][msg.sender]) */\n      swap1\n      dup1\n      0x01\n      dup2\n      sload\n      add\n      dup1\n      dup3\n      sstore\n      dup1\n      swap2\n      pop\n      pop\n      0x01\n      swap1\n      sub\n      swap1\n      0x00\n      mstore\n      keccak256(0x00, 0x20)\n      add\n      0x00\n      swap1\n      swap2\n      swap1\n      swap2\n      swap1\n      swap2\n      pop\n      0x00\n      dup3\n      add\n      0x00\n      swap1\n      sload\n      swap1\n      0x0100\n      exp\n      swap1\n      div\n      0xff\n      and\n      dup2\n      0x00\n      add\n      exp(0x0100, 0x00)\n      dup2\n      sload\n      dup2\n      0xff\n      mul\n      not\n      and\n      swap1\n      dup4\n      iszero\n      iszero\n      mul\n      or\n      swap1\n      sstore\n      pop\n      0x00\n      dup3\n      add\n      0x01\n      swap1\n      sload\n      swap1\n      0x0100\n      exp\n      swap1\n      div\n      0xff\n      and\n      dup2\n      0x00\n      add\n      exp(0x0100, 0x01)\n      dup2\n      sload\n      dup2\n      0xff\n      mul\n      not\n      and\n      swap1\n      dup4\n      iszero\n      iszero\n      mul\n      or\n      swap1\n      sstore\n      pop\n      0x00\n      dup3\n      add\n      0x02\n      swap1\n      sload\n      swap1\n      0x0100\n      exp\n      swap1\n      div\n      0xffffffffffffffffffffffffffffffffffffffff\n      and\n      dup2\n      0x00\n      add\n      exp(0x0100, 0x02)\n      dup2\n      sload\n      dup2\n      0xffffffffffffffffffffffffffffffffffffffff\n      mul\n      not\n      and\n      swap1\n      dup4\n      0xffffffffffffffffffffffffffffffffffffffff\n      and\n      mul\n      or\n      swap1\n      sstore\n      pop\n      pop\n      pop\n        /* \"contracts/BusinessConsensus.sol\":4160:5069  if(keccak256(bytes(response)) == keccak256(bytes(\"i approve\"))){\r... */\n      jump(tag_188)\n    tag_183:\n        /* \"contracts/BusinessConsensus.sol\":4578:4599  bytes(\"i disapprove\") */\n      mload(0x40)\n      dup1\n      0x40\n      add\n      0x40\n      mstore\n      dup1\n      0x0c\n      dup2\n      mstore\n      0x20\n      add\n      0x6920646973617070726f76650000000000000000000000000000000000000000\n      dup2\n      mstore\n      pop\n        /* \"contracts/BusinessConsensus.sol\":4568:4600  keccak256(bytes(\"i disapprove\")) */\n      dup1\n      mload\n      swap1\n      0x20\n      add\n      keccak256\n        /* \"contracts/BusinessConsensus.sol\":4554:4562  response */\n      dup3\n        /* \"contracts/BusinessConsensus.sol\":4538:4564  keccak256(bytes(response)) */\n      dup1\n      mload\n      swap1\n      0x20\n      add\n      keccak256\n        /* \"contracts/BusinessConsensus.sol\":4538:4600  keccak256(bytes(response)) == keccak256(bytes(\"i disapprove\")) */\n      eq\n        /* \"contracts/BusinessConsensus.sol\":4535:5069  if(keccak256(bytes(response)) == keccak256(bytes(\"i disapprove\"))){\r... */\n      iszero\n      tag_189\n      jumpi\n        /* \"contracts/BusinessConsensus.sol\":4659:4663  true */\n      0x01\n        /* \"contracts/BusinessConsensus.sol\":4616:4626  voter_maps */\n      0x0b\n        /* \"contracts/BusinessConsensus.sol\":4616:4638  voter_maps[_messageID] */\n      0x00\n        /* \"contracts/BusinessConsensus.sol\":4627:4637  _messageID */\n      dup4\n        /* \"contracts/BusinessConsensus.sol\":4616:4638  voter_maps[_messageID] */\n      dup2\n      mstore\n      0x20\n      add\n      swap1\n      dup2\n      mstore\n      0x20\n      add\n      0x00\n      keccak256\n        /* \"contracts/BusinessConsensus.sol\":4616:4650  voter_maps[_messageID][msg.sender] */\n      0x00\n        /* \"contracts/BusinessConsensus.sol\":4639:4649  msg.sender */\n      caller\n        /* \"contracts/BusinessConsensus.sol\":4616:4650  voter_maps[_messageID][msg.sender] */\n      0xffffffffffffffffffffffffffffffffffffffff\n      and\n      0xffffffffffffffffffffffffffffffffffffffff\n      and\n      dup2\n      mstore\n      0x20\n      add\n      swap1\n      dup2\n      mstore\n      0x20\n      add\n      0x00\n      keccak256\n        /* \"contracts/BusinessConsensus.sol\":4616:4656  voter_maps[_messageID][msg.sender].voted */\n      0x00\n      add\n      0x00\n        /* \"contracts/BusinessConsensus.sol\":4616:4663  voter_maps[_messageID][msg.sender].voted = true */\n      0x0100\n      exp\n      dup2\n      sload\n      dup2\n      0xff\n      mul\n      not\n      and\n      swap1\n      dup4\n      iszero\n      iszero\n      mul\n      or\n      swap1\n      sstore\n      pop\n        /* \"contracts/BusinessConsensus.sol\":4704:4705  1 */\n      0x01\n        /* \"contracts/BusinessConsensus.sol\":4678:4688  voteCounts */\n      0x02\n        /* \"contracts/BusinessConsensus.sol\":4678:4700  voteCounts[_messageID] */\n      0x00\n        /* \"contracts/BusinessConsensus.sol\":4689:4699  _messageID */\n      dup4\n        /* \"contracts/BusinessConsensus.sol\":4678:4700  voteCounts[_messageID] */\n      dup2\n      mstore\n      0x20\n      add\n      swap1\n      dup2\n      mstore\n      0x20\n      add\n      0x00\n      keccak256\n      0x00\n        /* \"contracts/BusinessConsensus.sol\":4678:4705  voteCounts[_messageID] += 1 */\n      dup3\n      dup3\n      sload\n      tag_190\n      swap2\n      swap1\n      tag_185\n      jump\t// in\n    tag_190:\n      swap3\n      pop\n      pop\n      dup2\n      swap1\n      sstore\n      pop\n        /* \"contracts/BusinessConsensus.sol\":4720:4726  Voters */\n      0x0c\n        /* \"contracts/BusinessConsensus.sol\":4720:4738  Voters[_messageID] */\n      0x00\n        /* \"contracts/BusinessConsensus.sol\":4727:4737  _messageID */\n      dup3\n        /* \"contracts/BusinessConsensus.sol\":4720:4738  Voters[_messageID] */\n      dup2\n      mstore\n      0x20\n      add\n      swap1\n      dup2\n      mstore\n      0x20\n      add\n      0x00\n      keccak256\n        /* \"contracts/BusinessConsensus.sol\":4744:4754  voter_maps */\n      0x0b\n        /* \"contracts/BusinessConsensus.sol\":4744:4766  voter_maps[_messageID] */\n      0x00\n        /* \"contracts/BusinessConsensus.sol\":4755:4765  _messageID */\n      dup4\n        /* \"contracts/BusinessConsensus.sol\":4744:4766  voter_maps[_messageID] */\n      dup2\n      mstore\n      0x20\n      add\n      swap1\n      dup2\n      mstore\n      0x20\n      add\n      0x00\n      keccak256\n        /* \"contracts/BusinessConsensus.sol\":4744:4778  voter_maps[_messageID][msg.sender] */\n      0x00\n        /* \"contracts/BusinessConsensus.sol\":4767:4777  msg.sender */\n      caller\n        /* \"contracts/BusinessConsensus.sol\":4744:4778  voter_maps[_messageID][msg.sender] */\n      0xffffffffffffffffffffffffffffffffffffffff\n      and\n      0xffffffffffffffffffffffffffffffffffffffff\n      and\n      dup2\n      mstore\n      0x20\n      add\n      swap1\n      dup2\n      mstore\n      0x20\n      add\n      0x00\n      keccak256\n        /* \"contracts/BusinessConsensus.sol\":4720:4779  Voters[_messageID].push(voter_maps[_messageID][msg.sender]) */\n      swap1\n      dup1\n      0x01\n      dup2\n      sload\n      add\n      dup1\n      dup3\n      sstore\n      dup1\n      swap2\n      pop\n      pop\n      0x01\n      swap1\n      sub\n      swap1\n      0x00\n      mstore\n      keccak256(0x00, 0x20)\n      add\n      0x00\n      swap1\n      swap2\n      swap1\n      swap2\n      swap1\n      swap2\n      pop\n      0x00\n      dup3\n      add\n      0x00\n      swap1\n      sload\n      swap1\n      0x0100\n      exp\n      swap1\n      div\n      0xff\n      and\n      dup2\n      0x00\n      add\n      exp(0x0100, 0x00)\n      dup2\n      sload\n      dup2\n      0xff\n      mul\n      not\n      and\n      swap1\n      dup4\n      iszero\n      iszero\n      mul\n      or\n      swap1\n      sstore\n      pop\n      0x00\n      dup3\n      add\n      0x01\n      swap1\n      sload\n      swap1\n      0x0100\n      exp\n      swap1\n      div\n      0xff\n      and\n      dup2\n      0x00\n      add\n      exp(0x0100, 0x01)\n      dup2\n      sload\n      dup2\n      0xff\n      mul\n      not\n      and\n      swap1\n      dup4\n      iszero\n      iszero\n      mul\n      or\n      swap1\n      sstore\n      pop\n      0x00\n      dup3\n      add\n      0x02\n      swap1\n      sload\n      swap1\n      0x0100\n      exp\n      swap1\n      div\n      0xffffffffffffffffffffffffffffffffffffffff\n      and\n      dup2\n      0x00\n      add\n      exp(0x0100, 0x02)\n      dup2\n      sload\n      dup2\n      0xffffffffffffffffffffffffffffffffffffffff\n      mul\n      not\n      and\n      swap1\n      dup4\n      0xffffffffffffffffffffffffffffffffffffffff\n      and\n      mul\n      or\n      swap1\n      sstore\n      pop\n      pop\n      pop\n        /* \"contracts/BusinessConsensus.sol\":4535:5069  if(keccak256(bytes(response)) == keccak256(bytes(\"i disapprove\"))){\r... */\n      jump(tag_192)\n    tag_189:\n        /* \"contracts/BusinessConsensus.sol\":4937:4941  true */\n      0x01\n        /* \"contracts/BusinessConsensus.sol\":4894:4904  voter_maps */\n      0x0b\n        /* \"contracts/BusinessConsensus.sol\":4894:4916  voter_maps[_messageID] */\n      0x00\n        /* \"contracts/BusinessConsensus.sol\":4905:4915  _messageID */\n      dup4\n        /* \"contracts/BusinessConsensus.sol\":4894:4916  voter_maps[_messageID] */\n      dup2\n      mstore\n      0x20\n      add\n      swap1\n      dup2\n      mstore\n      0x20\n      add\n      0x00\n      keccak256\n        /* \"contracts/BusinessConsensus.sol\":4894:4928  voter_maps[_messageID][msg.sender] */\n      0x00\n        /* \"contracts/BusinessConsensus.sol\":4917:4927  msg.sender */\n      caller\n        /* \"contracts/BusinessConsensus.sol\":4894:4928  voter_maps[_messageID][msg.sender] */\n      0xffffffffffffffffffffffffffffffffffffffff\n      and\n      0xffffffffffffffffffffffffffffffffffffffff\n      and\n      dup2\n      mstore\n      0x20\n      add\n      swap1\n      dup2\n      mstore\n      0x20\n      add\n      0x00\n      keccak256\n        /* \"contracts/BusinessConsensus.sol\":4894:4934  voter_maps[_messageID][msg.sender].voted */\n      0x00\n      add\n      0x00\n        /* \"contracts/BusinessConsensus.sol\":4894:4941  voter_maps[_messageID][msg.sender].voted = true */\n      0x0100\n      exp\n      dup2\n      sload\n      dup2\n      0xff\n      mul\n      not\n      and\n      swap1\n      dup4\n      iszero\n      iszero\n      mul\n      or\n      swap1\n      sstore\n      pop\n        /* \"contracts/BusinessConsensus.sol\":4982:4983  1 */\n      0x01\n        /* \"contracts/BusinessConsensus.sol\":4956:4966  voteCounts */\n      0x02\n        /* \"contracts/BusinessConsensus.sol\":4956:4978  voteCounts[_messageID] */\n      0x00\n        /* \"contracts/BusinessConsensus.sol\":4967:4977  _messageID */\n      dup4\n        /* \"contracts/BusinessConsensus.sol\":4956:4978  voteCounts[_messageID] */\n      dup2\n      mstore\n      0x20\n      add\n      swap1\n      dup2\n      mstore\n      0x20\n      add\n      0x00\n      keccak256\n      0x00\n        /* \"contracts/BusinessConsensus.sol\":4956:4983  voteCounts[_messageID] += 1 */\n      dup3\n      dup3\n      sload\n      tag_193\n      swap2\n      swap1\n      tag_185\n      jump\t// in\n    tag_193:\n      swap3\n      pop\n      pop\n      dup2\n      swap1\n      sstore\n      pop\n        /* \"contracts/BusinessConsensus.sol\":4998:5004  Voters */\n      0x0c\n        /* \"contracts/BusinessConsensus.sol\":4998:5016  Voters[_messageID] */\n      0x00\n        /* \"contracts/BusinessConsensus.sol\":5005:5015  _messageID */\n      dup3\n        /* \"contracts/BusinessConsensus.sol\":4998:5016  Voters[_messageID] */\n      dup2\n      mstore\n      0x20\n      add\n      swap1\n      dup2\n      mstore\n      0x20\n      add\n      0x00\n      keccak256\n        /* \"contracts/BusinessConsensus.sol\":5022:5032  voter_maps */\n      0x0b\n        /* \"contracts/BusinessConsensus.sol\":5022:5044  voter_maps[_messageID] */\n      0x00\n        /* \"contracts/BusinessConsensus.sol\":5033:5043  _messageID */\n      dup4\n        /* \"contracts/BusinessConsensus.sol\":5022:5044  voter_maps[_messageID] */\n      dup2\n      mstore\n      0x20\n      add\n      swap1\n      dup2\n      mstore\n      0x20\n      add\n      0x00\n      keccak256\n        /* \"contracts/BusinessConsensus.sol\":5022:5056  voter_maps[_messageID][msg.sender] */\n      0x00\n        /* \"contracts/BusinessConsensus.sol\":5045:5055  msg.sender */\n      caller\n        /* \"contracts/BusinessConsensus.sol\":5022:5056  voter_maps[_messageID][msg.sender] */\n      0xffffffffffffffffffffffffffffffffffffffff\n      and\n      0xffffffffffffffffffffffffffffffffffffffff\n      and\n      dup2\n      mstore\n      0x20\n      add\n      swap1\n      dup2\n      mstore\n      0x20\n      add\n      0x00\n      keccak256\n        /* \"contracts/BusinessConsensus.sol\":4998:5057  Voters[_messageID].push(voter_maps[_messageID][msg.sender]) */\n      swap1\n      dup1\n      0x01\n      dup2\n      sload\n      add\n      dup1\n      dup3\n      sstore\n      dup1\n      swap2\n      pop\n      pop\n      0x01\n      swap1\n      sub\n      swap1\n      0x00\n      mstore\n      keccak256(0x00, 0x20)\n      add\n      0x00\n      swap1\n      swap2\n      swap1\n      swap2\n      swap1\n      swap2\n      pop\n      0x00\n      dup3\n      add\n      0x00\n      swap1\n      sload\n      swap1\n      0x0100\n      exp\n      swap1\n      div\n      0xff\n      and\n      dup2\n      0x00\n      add\n      exp(0x0100, 0x00)\n      dup2\n      sload\n      dup2\n      0xff\n      mul\n      not\n      and\n      swap1\n      dup4\n      iszero\n      iszero\n      mul\n      or\n      swap1\n      sstore\n      pop\n      0x00\n      dup3\n      add\n      0x01\n      swap1\n      sload\n      swap1\n      0x0100\n      exp\n      swap1\n      div\n      0xff\n      and\n      dup2\n      0x00\n      add\n      exp(0x0100, 0x01)\n      dup2\n      sload\n      dup2\n      0xff\n      mul\n      not\n      and\n      swap1\n      dup4\n      iszero\n      iszero\n      mul\n      or\n      swap1\n      sstore\n      pop\n      0x00\n      dup3\n      add\n      0x02\n      swap1\n      sload\n      swap1\n      0x0100\n      exp\n      swap1\n      div\n      0xffffffffffffffffffffffffffffffffffffffff\n      and\n      dup2\n      0x00\n      add\n      exp(0x0100, 0x02)\n      dup2\n      sload\n      dup2\n      0xffffffffffffffffffffffffffffffffffffffff\n      mul\n      not\n      and\n      swap1\n      dup4\n      0xffffffffffffffffffffffffffffffffffffffff\n      and\n      mul\n      or\n      swap1\n      sstore\n      pop\n      pop\n      pop\n        /* \"contracts/BusinessConsensus.sol\":4535:5069  if(keccak256(bytes(response)) == keccak256(bytes(\"i disapprove\"))){\r... */\n    tag_192:\n        /* \"contracts/BusinessConsensus.sol\":4160:5069  if(keccak256(bytes(response)) == keccak256(bytes(\"i approve\"))){\r... */\n    tag_188:\n        /* \"contracts/BusinessConsensus.sol\":3789:5086  function Vote(string memory response,bytes32 _messageID) external {\r... */\n      pop\n      pop\n      jump\t// out\n        /* \"contracts/BusinessConsensus.sol\":2796:2937  function getIsCreated(bytes32 _keyID) public view returns (bytes32,string memory){\r... */\n    tag_90:\n        /* \"contracts/BusinessConsensus.sol\":2855:2862  bytes32 */\n      0x00\n        /* \"contracts/BusinessConsensus.sol\":2863:2876  string memory */\n      0x60\n        /* \"contracts/BusinessConsensus.sol\":2896:2899  IDs */\n      0x01\n        /* \"contracts/BusinessConsensus.sol\":2896:2907  IDs[_keyID] */\n      0x00\n        /* \"contracts/BusinessConsensus.sol\":2900:2906  _keyID */\n      dup5\n        /* \"contracts/BusinessConsensus.sol\":2896:2907  IDs[_keyID] */\n      dup2\n      mstore\n      0x20\n      add\n      swap1\n      dup2\n      mstore\n      0x20\n      add\n      0x00\n      keccak256\n      sload\n        /* \"contracts/BusinessConsensus.sol\":2908:2920  messageDates */\n      0x08\n        /* \"contracts/BusinessConsensus.sol\":2908:2928  messageDates[_keyID] */\n      0x00\n        /* \"contracts/BusinessConsensus.sol\":2921:2927  _keyID */\n      dup6\n        /* \"contracts/BusinessConsensus.sol\":2908:2928  messageDates[_keyID] */\n      dup2\n      mstore\n      0x20\n      add\n      swap1\n      dup2\n      mstore\n      0x20\n      add\n      0x00\n      keccak256\n        /* \"contracts/BusinessConsensus.sol\":2888:2929  return (IDs[_keyID],messageDates[_keyID]) */\n      dup1\n      dup1\n      sload\n      tag_196\n      swap1\n      tag_197\n      jump\t// in\n    tag_196:\n      dup1\n      0x1f\n      add\n      0x20\n      dup1\n      swap2\n      div\n      mul\n      0x20\n      add\n      mload(0x40)\n      swap1\n      dup2\n      add\n      0x40\n      mstore\n      dup1\n      swap3\n      swap2\n      swap1\n      dup2\n      dup2\n      mstore\n      0x20\n      add\n      dup3\n      dup1\n      sload\n      tag_198\n      swap1\n      tag_197\n      jump\t// in\n    tag_198:\n      dup1\n      iszero\n      tag_199\n      jumpi\n      dup1\n      0x1f\n      lt\n      tag_200\n      jumpi\n      0x0100\n      dup1\n      dup4\n      sload\n      div\n      mul\n      dup4\n      mstore\n      swap2\n      0x20\n      add\n      swap2\n      jump(tag_199)\n    tag_200:\n      dup3\n      add\n      swap2\n      swap1\n      0x00\n      mstore\n      keccak256(0x00, 0x20)\n      swap1\n    tag_201:\n      dup2\n      sload\n      dup2\n      mstore\n      swap1\n      0x01\n      add\n      swap1\n      0x20\n      add\n      dup1\n      dup4\n      gt\n      tag_201\n      jumpi\n      dup3\n      swap1\n      sub\n      0x1f\n      and\n      dup3\n      add\n      swap2\n    tag_199:\n      pop\n      pop\n      pop\n      pop\n      pop\n      swap1\n      pop\n      swap2\n      pop\n      swap2\n      pop\n        /* \"contracts/BusinessConsensus.sol\":2796:2937  function getIsCreated(bytes32 _keyID) public view returns (bytes32,string memory){\r... */\n      swap2\n      pop\n      swap2\n      jump\t// out\n        /* \"contracts/BusinessConsensus.sol\":831:877  mapping(bytes32 => string) public messageDates */\n    tag_95:\n      mstore(0x20, 0x08)\n      dup1\n      0x00\n      mstore\n      keccak256(0x00, 0x40)\n      0x00\n      swap2\n      pop\n      swap1\n      pop\n      dup1\n      sload\n      tag_202\n      swap1\n      tag_197\n      jump\t// in\n    tag_202:\n      dup1\n      0x1f\n      add\n      0x20\n      dup1\n      swap2\n      div\n      mul\n      0x20\n      add\n      mload(0x40)\n      swap1\n      dup2\n      add\n      0x40\n      mstore\n      dup1\n      swap3\n      swap2\n      swap1\n      dup2\n      dup2\n      mstore\n      0x20\n      add\n      dup3\n      dup1\n      sload\n      tag_203\n      swap1\n      tag_197\n      jump\t// in\n    tag_203:\n      dup1\n      iszero\n      tag_204\n      jumpi\n      dup1\n      0x1f\n      lt\n      tag_205\n      jumpi\n      0x0100\n      dup1\n      dup4\n      sload\n      div\n      mul\n      dup4\n      mstore\n      swap2\n      0x20\n      add\n      swap2\n      jump(tag_204)\n    tag_205:\n      dup3\n      add\n      swap2\n      swap1\n      0x00\n      mstore\n      keccak256(0x00, 0x20)\n      swap1\n    tag_206:\n      dup2\n      sload\n      dup2\n      mstore\n      swap1\n      0x01\n      add\n      swap1\n      0x20\n      add\n      dup1\n      dup4\n      gt\n      tag_206\n      jumpi\n      dup3\n      swap1\n      sub\n      0x1f\n      and\n      dup3\n      add\n      swap2\n    tag_204:\n      pop\n      pop\n      pop\n      pop\n      pop\n      dup2\n      jump\t// out\n        /* \"contracts/BusinessConsensus.sol\":985:1044  mapping(bytes32=>mapping(address=>Voter)) public voter_maps */\n    tag_101:\n      mstore(0x20, 0x0b)\n      dup2\n      0x00\n      mstore\n      mstore(0x20, keccak256(0x00, 0x40))\n      dup1\n      0x00\n      mstore\n      keccak256(0x00, 0x40)\n      0x00\n      swap2\n      pop\n      swap2\n      pop\n      pop\n      dup1\n      0x00\n      add\n      0x00\n      swap1\n      sload\n      swap1\n      0x0100\n      exp\n      swap1\n      div\n      0xff\n      and\n      swap1\n      dup1\n      0x00\n      add\n      0x01\n      swap1\n      sload\n      swap1\n      0x0100\n      exp\n      swap1\n      div\n      0xff\n      and\n      swap1\n      dup1\n      0x00\n      add\n      0x02\n      swap1\n      sload\n      swap1\n      0x0100\n      exp\n      swap1\n      div\n      0xffffffffffffffffffffffffffffffffffffffff\n      and\n      swap1\n      pop\n      dup4\n      jump\t// out\n        /* \"contracts/BusinessConsensus.sol\":1149:2093  function createContract(bytes32 _messageID, uint256 expiry, uint256 requiredPercentage,bytes32 _contents,\r... */\n    tag_106:\n        /* \"contracts/BusinessConsensus.sol\":1450:1451  0 */\n      0x00\n        /* \"contracts/BusinessConsensus.sol\":1416:1452  initiators[_messageID] == address(0) */\n      0xffffffffffffffffffffffffffffffffffffffff\n      and\n        /* \"contracts/BusinessConsensus.sol\":1416:1426  initiators */\n      0x00\n        /* \"contracts/BusinessConsensus.sol\":1416:1438  initiators[_messageID] */\n      dup1\n        /* \"contracts/BusinessConsensus.sol\":1427:1437  _messageID */\n      dup9\n        /* \"contracts/BusinessConsensus.sol\":1416:1438  initiators[_messageID] */\n      dup2\n      mstore\n      0x20\n      add\n      swap1\n      dup2\n      mstore\n      0x20\n      add\n      0x00\n      keccak256\n      0x00\n      swap1\n      sload\n      swap1\n      0x0100\n      exp\n      swap1\n      div\n      0xffffffffffffffffffffffffffffffffffffffff\n      and\n        /* \"contracts/BusinessConsensus.sol\":1416:1452  initiators[_messageID] == address(0) */\n      0xffffffffffffffffffffffffffffffffffffffff\n      and\n      eq\n        /* \"contracts/BusinessConsensus.sol\":1408:1481  require(initiators[_messageID] == address(0),\"Proposal already created!\") */\n      tag_208\n      jumpi\n      mload(0x40)\n      0x08c379a000000000000000000000000000000000000000000000000000000000\n      dup2\n      mstore\n      0x04\n      add\n      tag_209\n      swap1\n      tag_210\n      jump\t// in\n    tag_209:\n      mload(0x40)\n      dup1\n      swap2\n      sub\n      swap1\n      revert\n    tag_208:\n        /* \"contracts/BusinessConsensus.sol\":1521:1522  0 */\n      0x00\n        /* \"contracts/BusinessConsensus.sol\":1496:1506  voteCounts */\n      0x02\n        /* \"contracts/BusinessConsensus.sol\":1496:1518  voteCounts[_messageID] */\n      0x00\n        /* \"contracts/BusinessConsensus.sol\":1507:1517  _messageID */\n      dup9\n        /* \"contracts/BusinessConsensus.sol\":1496:1518  voteCounts[_messageID] */\n      dup2\n      mstore\n      0x20\n      add\n      swap1\n      dup2\n      mstore\n      0x20\n      add\n      0x00\n      keccak256\n        /* \"contracts/BusinessConsensus.sol\":1496:1522  voteCounts[_messageID] = 0 */\n      dup2\n      swap1\n      sstore\n      pop\n        /* \"contracts/BusinessConsensus.sol\":1582:1588  expiry */\n      dup5\n        /* \"contracts/BusinessConsensus.sol\":1564:1579  block.timestamp */\n      timestamp\n        /* \"contracts/BusinessConsensus.sol\":1564:1588  block.timestamp + expiry */\n      tag_211\n      swap2\n      swap1\n      tag_185\n      jump\t// in\n    tag_211:\n        /* \"contracts/BusinessConsensus.sol\":1537:1548  expiryDates */\n      0x04\n        /* \"contracts/BusinessConsensus.sol\":1537:1560  expiryDates[_messageID] */\n      0x00\n        /* \"contracts/BusinessConsensus.sol\":1549:1559  _messageID */\n      dup9\n        /* \"contracts/BusinessConsensus.sol\":1537:1560  expiryDates[_messageID] */\n      dup2\n      mstore\n      0x20\n      add\n      swap1\n      dup2\n      mstore\n      0x20\n      add\n      0x00\n      keccak256\n        /* \"contracts/BusinessConsensus.sol\":1537:1588  expiryDates[_messageID] =  block.timestamp + expiry */\n      dup2\n      swap1\n      sstore\n      pop\n        /* \"contracts/BusinessConsensus.sol\":1617:1627  _messageID */\n      dup6\n        /* \"contracts/BusinessConsensus.sol\":1603:1606  IDs */\n      0x01\n        /* \"contracts/BusinessConsensus.sol\":1603:1614  IDs[_keyID] */\n      0x00\n        /* \"contracts/BusinessConsensus.sol\":1607:1613  _keyID */\n      dup4\n        /* \"contracts/BusinessConsensus.sol\":1603:1614  IDs[_keyID] */\n      dup2\n      mstore\n      0x20\n      add\n      swap1\n      dup2\n      mstore\n      0x20\n      add\n      0x00\n      keccak256\n        /* \"contracts/BusinessConsensus.sol\":1603:1627  IDs[_keyID] = _messageID */\n      dup2\n      swap1\n      sstore\n      pop\n        /* \"contracts/BusinessConsensus.sol\":1667:1672  false */\n      0x00\n        /* \"contracts/BusinessConsensus.sol\":1642:1652  isCompiled */\n      0x0a\n        /* \"contracts/BusinessConsensus.sol\":1642:1664  isCompiled[_messageID] */\n      0x00\n        /* \"contracts/BusinessConsensus.sol\":1653:1663  _messageID */\n      dup9\n        /* \"contracts/BusinessConsensus.sol\":1642:1664  isCompiled[_messageID] */\n      dup2\n      mstore\n      0x20\n      add\n      swap1\n      dup2\n      mstore\n      0x20\n      add\n      0x00\n      keccak256\n      0x00\n        /* \"contracts/BusinessConsensus.sol\":1642:1672  isCompiled[_messageID] = false */\n      0x0100\n      exp\n      dup2\n      sload\n      dup2\n      0xff\n      mul\n      not\n      and\n      swap1\n      dup4\n      iszero\n      iszero\n      mul\n      or\n      swap1\n      sstore\n      pop\n        /* \"contracts/BusinessConsensus.sol\":1722:1740  requiredPercentage */\n      dup4\n        /* \"contracts/BusinessConsensus.sol\":1687:1707  businessRequirements */\n      0x07\n        /* \"contracts/BusinessConsensus.sol\":1687:1719  businessRequirements[_messageID] */\n      0x00\n        /* \"contracts/BusinessConsensus.sol\":1708:1718  _messageID */\n      dup9\n        /* \"contracts/BusinessConsensus.sol\":1687:1719  businessRequirements[_messageID] */\n      dup2\n      mstore\n      0x20\n      add\n      swap1\n      dup2\n      mstore\n      0x20\n      add\n      0x00\n      keccak256\n        /* \"contracts/BusinessConsensus.sol\":1687:1740  businessRequirements[_messageID] = requiredPercentage */\n      dup2\n      swap1\n      sstore\n      pop\n        /* \"contracts/BusinessConsensus.sol\":1786:1804  requiredPercentage */\n      dup4\n        /* \"contracts/BusinessConsensus.sol\":1755:1775  businessRequirements */\n      0x07\n        /* \"contracts/BusinessConsensus.sol\":1755:1783  businessRequirements[_keyID] */\n      0x00\n        /* \"contracts/BusinessConsensus.sol\":1776:1782  _keyID */\n      dup4\n        /* \"contracts/BusinessConsensus.sol\":1755:1783  businessRequirements[_keyID] */\n      dup2\n      mstore\n      0x20\n      add\n      swap1\n      dup2\n      mstore\n      0x20\n      add\n      0x00\n      keccak256\n        /* \"contracts/BusinessConsensus.sol\":1755:1804  businessRequirements[_keyID] = requiredPercentage */\n      dup2\n      swap1\n      sstore\n      pop\n        /* \"contracts/BusinessConsensus.sol\":1847:1852  false */\n      0x00\n        /* \"contracts/BusinessConsensus.sol\":1819:1832  finalVerdicts */\n      0x09\n        /* \"contracts/BusinessConsensus.sol\":1819:1844  finalVerdicts[_messageID] */\n      0x00\n        /* \"contracts/BusinessConsensus.sol\":1833:1843  _messageID */\n      dup9\n        /* \"contracts/BusinessConsensus.sol\":1819:1844  finalVerdicts[_messageID] */\n      dup2\n      mstore\n      0x20\n      add\n      swap1\n      dup2\n      mstore\n      0x20\n      add\n      0x00\n      keccak256\n      0x00\n        /* \"contracts/BusinessConsensus.sol\":1819:1852  finalVerdicts[_messageID] = false */\n      0x0100\n      exp\n      dup2\n      sload\n      dup2\n      0xff\n      mul\n      not\n      and\n      swap1\n      dup4\n      iszero\n      iszero\n      mul\n      or\n      swap1\n      sstore\n      pop\n        /* \"contracts/BusinessConsensus.sol\":1891:1897  expiry */\n      dup5\n        /* \"contracts/BusinessConsensus.sol\":1867:1880  expiryLengths */\n      0x03\n        /* \"contracts/BusinessConsensus.sol\":1867:1888  expiryLengths[_keyID] */\n      0x00\n        /* \"contracts/BusinessConsensus.sol\":1881:1887  _keyID */\n      dup4\n        /* \"contracts/BusinessConsensus.sol\":1867:1888  expiryLengths[_keyID] */\n      dup2\n      mstore\n      0x20\n      add\n      swap1\n      dup2\n      mstore\n      0x20\n      add\n      0x00\n      keccak256\n        /* \"contracts/BusinessConsensus.sol\":1867:1897  expiryLengths[_keyID] = expiry */\n      dup2\n      swap1\n      sstore\n      pop\n        /* \"contracts/BusinessConsensus.sol\":1931:1940  _contents */\n      dup3\n        /* \"contracts/BusinessConsensus.sol\":1912:1920  contents */\n      0x05\n        /* \"contracts/BusinessConsensus.sol\":1912:1928  contents[_keyID] */\n      0x00\n        /* \"contracts/BusinessConsensus.sol\":1921:1927  _keyID */\n      dup4\n        /* \"contracts/BusinessConsensus.sol\":1912:1928  contents[_keyID] */\n      dup2\n      mstore\n      0x20\n      add\n      swap1\n      dup2\n      mstore\n      0x20\n      add\n      0x00\n      keccak256\n        /* \"contracts/BusinessConsensus.sol\":1912:1940  contents[_keyID] = _contents */\n      dup2\n      swap1\n      sstore\n      pop\n        /* \"contracts/BusinessConsensus.sol\":1978:1990  _messageDate */\n      dup2\n        /* \"contracts/BusinessConsensus.sol\":1955:1967  messageDates */\n      0x08\n        /* \"contracts/BusinessConsensus.sol\":1955:1975  messageDates[_keyID] */\n      0x00\n        /* \"contracts/BusinessConsensus.sol\":1968:1974  _keyID */\n      dup4\n        /* \"contracts/BusinessConsensus.sol\":1955:1975  messageDates[_keyID] */\n      dup2\n      mstore\n      0x20\n      add\n      swap1\n      dup2\n      mstore\n      0x20\n      add\n      0x00\n      keccak256\n        /* \"contracts/BusinessConsensus.sol\":1955:1990  messageDates[_keyID] = _messageDate */\n      swap1\n      dup1\n      mload\n      swap1\n      0x20\n      add\n      swap1\n      tag_212\n      swap3\n      swap2\n      swap1\n      tag_213\n      jump\t// in\n    tag_212:\n      pop\n        /* \"contracts/BusinessConsensus.sol\":2032:2033  0 */\n      0x00\n        /* \"contracts/BusinessConsensus.sol\":2005:2017  numApprovals */\n      0x06\n        /* \"contracts/BusinessConsensus.sol\":2005:2029  numApprovals[_messageID] */\n      0x00\n        /* \"contracts/BusinessConsensus.sol\":2018:2028  _messageID */\n      dup9\n        /* \"contracts/BusinessConsensus.sol\":2005:2029  numApprovals[_messageID] */\n      dup2\n      mstore\n      0x20\n      add\n      swap1\n      dup2\n      mstore\n      0x20\n      add\n      0x00\n      keccak256\n        /* \"contracts/BusinessConsensus.sol\":2005:2033  numApprovals[_messageID] = 0 */\n      dup2\n      swap1\n      sstore\n      pop\n        /* \"contracts/BusinessConsensus.sol\":2073:2083  msg.sender */\n      caller\n        /* \"contracts/BusinessConsensus.sol\":2048:2058  initiators */\n      0x00\n        /* \"contracts/BusinessConsensus.sol\":2048:2070  initiators[_messageID] */\n      dup1\n        /* \"contracts/BusinessConsensus.sol\":2059:2069  _messageID */\n      dup9\n        /* \"contracts/BusinessConsensus.sol\":2048:2070  initiators[_messageID] */\n      dup2\n      mstore\n      0x20\n      add\n      swap1\n      dup2\n      mstore\n      0x20\n      add\n      0x00\n      keccak256\n      0x00\n        /* \"contracts/BusinessConsensus.sol\":2048:2083  initiators[_messageID] = msg.sender */\n      0x0100\n      exp\n      dup2\n      sload\n      dup2\n      0xffffffffffffffffffffffffffffffffffffffff\n      mul\n      not\n      and\n      swap1\n      dup4\n      0xffffffffffffffffffffffffffffffffffffffff\n      and\n      mul\n      or\n      swap1\n      sstore\n      pop\n        /* \"contracts/BusinessConsensus.sol\":1149:2093  function createContract(bytes32 _messageID, uint256 expiry, uint256 requiredPercentage,bytes32 _contents,\r... */\n      pop\n      pop\n      pop\n      pop\n      pop\n      pop\n      jump\t// out\n        /* \"contracts/BusinessConsensus.sol\":411:454  mapping(bytes32=>address) public initiators */\n    tag_109:\n      mstore(0x20, 0x00)\n      dup1\n      0x00\n      mstore\n      keccak256(0x00, 0x40)\n      0x00\n      swap2\n      pop\n      sload\n      swap1\n      0x0100\n      exp\n      swap1\n      div\n      0xffffffffffffffffffffffffffffffffffffffff\n      and\n      dup2\n      jump\t// out\n        /* \"contracts/BusinessConsensus.sol\":3043:3781  function RegisterVoter(address voter,bytes32 _messageID) external {\r... */\n    tag_114:\n        /* \"contracts/BusinessConsensus.sol\":3230:3240  initiators */\n      0x00\n        /* \"contracts/BusinessConsensus.sol\":3230:3252  initiators[_messageID] */\n      dup1\n        /* \"contracts/BusinessConsensus.sol\":3241:3251  _messageID */\n      dup3\n        /* \"contracts/BusinessConsensus.sol\":3230:3252  initiators[_messageID] */\n      dup2\n      mstore\n      0x20\n      add\n      swap1\n      dup2\n      mstore\n      0x20\n      add\n      0x00\n      keccak256\n      0x00\n      swap1\n      sload\n      swap1\n      0x0100\n      exp\n      swap1\n      div\n      0xffffffffffffffffffffffffffffffffffffffff\n      and\n        /* \"contracts/BusinessConsensus.sol\":3216:3252  msg.sender == initiators[_messageID] */\n      0xffffffffffffffffffffffffffffffffffffffff\n      and\n        /* \"contracts/BusinessConsensus.sol\":3216:3226  msg.sender */\n      caller\n        /* \"contracts/BusinessConsensus.sol\":3216:3252  msg.sender == initiators[_messageID] */\n      0xffffffffffffffffffffffffffffffffffffffff\n      and\n      eq\n        /* \"contracts/BusinessConsensus.sol\":3194:3320  require(\r... */\n      tag_215\n      jumpi\n      mload(0x40)\n      0x08c379a000000000000000000000000000000000000000000000000000000000\n      dup2\n      mstore\n      0x04\n      add\n      tag_216\n      swap1\n      tag_217\n      jump\t// in\n    tag_216:\n      mload(0x40)\n      dup1\n      swap2\n      sub\n      swap1\n      revert\n    tag_215:\n        /* \"contracts/BusinessConsensus.sol\":3348:3358  initiators */\n      0x00\n        /* \"contracts/BusinessConsensus.sol\":3348:3370  initiators[_messageID] */\n      dup1\n        /* \"contracts/BusinessConsensus.sol\":3359:3369  _messageID */\n      dup3\n        /* \"contracts/BusinessConsensus.sol\":3348:3370  initiators[_messageID] */\n      dup2\n      mstore\n      0x20\n      add\n      swap1\n      dup2\n      mstore\n      0x20\n      add\n      0x00\n      keccak256\n      0x00\n      swap1\n      sload\n      swap1\n      0x0100\n      exp\n      swap1\n      div\n      0xffffffffffffffffffffffffffffffffffffffff\n      and\n        /* \"contracts/BusinessConsensus.sol\":3339:3370  voter != initiators[_messageID] */\n      0xffffffffffffffffffffffffffffffffffffffff\n      and\n        /* \"contracts/BusinessConsensus.sol\":3339:3344  voter */\n      dup3\n        /* \"contracts/BusinessConsensus.sol\":3339:3370  voter != initiators[_messageID] */\n      0xffffffffffffffffffffffffffffffffffffffff\n      and\n      eq\n      iszero\n        /* \"contracts/BusinessConsensus.sol\":3331:3396  require(voter != initiators[_messageID], \"Initiator can't vote!\") */\n      tag_218\n      jumpi\n      mload(0x40)\n      0x08c379a000000000000000000000000000000000000000000000000000000000\n      dup2\n      mstore\n      0x04\n      add\n      tag_219\n      swap1\n      tag_220\n      jump\t// in\n    tag_219:\n      mload(0x40)\n      dup1\n      swap2\n      sub\n      swap1\n      revert\n    tag_218:\n        /* \"contracts/BusinessConsensus.sol\":3468:3469  0 */\n      0x00\n        /* \"contracts/BusinessConsensus.sol\":3417:3470  voter_maps[_messageID][voter].recipient == address(0) */\n      0xffffffffffffffffffffffffffffffffffffffff\n      and\n        /* \"contracts/BusinessConsensus.sol\":3417:3427  voter_maps */\n      0x0b\n        /* \"contracts/BusinessConsensus.sol\":3417:3439  voter_maps[_messageID] */\n      0x00\n        /* \"contracts/BusinessConsensus.sol\":3428:3438  _messageID */\n      dup4\n        /* \"contracts/BusinessConsensus.sol\":3417:3439  voter_maps[_messageID] */\n      dup2\n      mstore\n      0x20\n      add\n      swap1\n      dup2\n      mstore\n      0x20\n      add\n      0x00\n      keccak256\n        /* \"contracts/BusinessConsensus.sol\":3417:3446  voter_maps[_messageID][voter] */\n      0x00\n        /* \"contracts/BusinessConsensus.sol\":3440:3445  voter */\n      dup5\n        /* \"contracts/BusinessConsensus.sol\":3417:3446  voter_maps[_messageID][voter] */\n      0xffffffffffffffffffffffffffffffffffffffff\n      and\n      0xffffffffffffffffffffffffffffffffffffffff\n      and\n      dup2\n      mstore\n      0x20\n      add\n      swap1\n      dup2\n      mstore\n      0x20\n      add\n      0x00\n      keccak256\n        /* \"contracts/BusinessConsensus.sol\":3417:3456  voter_maps[_messageID][voter].recipient */\n      0x00\n      add\n      0x02\n      swap1\n      sload\n      swap1\n      0x0100\n      exp\n      swap1\n      div\n      0xffffffffffffffffffffffffffffffffffffffff\n      and\n        /* \"contracts/BusinessConsensus.sol\":3417:3470  voter_maps[_messageID][voter].recipient == address(0) */\n      0xffffffffffffffffffffffffffffffffffffffff\n      and\n      eq\n        /* \"contracts/BusinessConsensus.sol\":3409:3506  require(voter_maps[_messageID][voter].recipient == address(0), \"Recipient is already registered\") */\n      tag_221\n      jumpi\n      mload(0x40)\n      0x08c379a000000000000000000000000000000000000000000000000000000000\n      dup2\n      mstore\n      0x04\n      add\n      tag_222\n      swap1\n      tag_223\n      jump\t// in\n    tag_222:\n      mload(0x40)\n      dup1\n      swap2\n      sub\n      swap1\n      revert\n    tag_221:\n        /* \"contracts/BusinessConsensus.sol\":3545:3556  expiryDates */\n      0x04\n        /* \"contracts/BusinessConsensus.sol\":3545:3568  expiryDates[_messageID] */\n      0x00\n        /* \"contracts/BusinessConsensus.sol\":3557:3567  _messageID */\n      dup3\n        /* \"contracts/BusinessConsensus.sol\":3545:3568  expiryDates[_messageID] */\n      dup2\n      mstore\n      0x20\n      add\n      swap1\n      dup2\n      mstore\n      0x20\n      add\n      0x00\n      keccak256\n      sload\n        /* \"contracts/BusinessConsensus.sol\":3527:3542  block.timestamp */\n      timestamp\n        /* \"contracts/BusinessConsensus.sol\":3527:3568  block.timestamp < expiryDates[_messageID] */\n      lt\n        /* \"contracts/BusinessConsensus.sol\":3519:3609  require(block.timestamp < expiryDates[_messageID], \"Proposal has reached its expiry date\") */\n      tag_224\n      jumpi\n      mload(0x40)\n      0x08c379a000000000000000000000000000000000000000000000000000000000\n      dup2\n      mstore\n      0x04\n      add\n      tag_225\n      swap1\n      tag_226\n      jump\t// in\n    tag_225:\n      mload(0x40)\n      dup1\n      swap2\n      sub\n      swap1\n      revert\n    tag_224:\n        /* \"contracts/BusinessConsensus.sol\":3622:3636  Voter memory x */\n      0x00\n        /* \"contracts/BusinessConsensus.sol\":3639:3690  Voter({voted: false,recipient: voter, vote: false}) */\n      mload(0x40)\n      dup1\n      0x60\n      add\n      0x40\n      mstore\n      dup1\n        /* \"contracts/BusinessConsensus.sol\":3653:3658  false */\n      0x00\n        /* \"contracts/BusinessConsensus.sol\":3639:3690  Voter({voted: false,recipient: voter, vote: false}) */\n      iszero\n      iszero\n      dup2\n      mstore\n      0x20\n      add\n        /* \"contracts/BusinessConsensus.sol\":3683:3688  false */\n      0x00\n        /* \"contracts/BusinessConsensus.sol\":3639:3690  Voter({voted: false,recipient: voter, vote: false}) */\n      iszero\n      iszero\n      dup2\n      mstore\n      0x20\n      add\n        /* \"contracts/BusinessConsensus.sol\":3670:3675  voter */\n      dup5\n        /* \"contracts/BusinessConsensus.sol\":3639:3690  Voter({voted: false,recipient: voter, vote: false}) */\n      0xffffffffffffffffffffffffffffffffffffffff\n      and\n      dup2\n      mstore\n      pop\n        /* \"contracts/BusinessConsensus.sol\":3622:3690  Voter memory x = Voter({voted: false,recipient: voter, vote: false}) */\n      swap1\n      pop\n        /* \"contracts/BusinessConsensus.sol\":3733:3734  x */\n      dup1\n        /* \"contracts/BusinessConsensus.sol\":3701:3711  voter_maps */\n      0x0b\n        /* \"contracts/BusinessConsensus.sol\":3701:3723  voter_maps[_messageID] */\n      0x00\n        /* \"contracts/BusinessConsensus.sol\":3712:3722  _messageID */\n      dup5\n        /* \"contracts/BusinessConsensus.sol\":3701:3723  voter_maps[_messageID] */\n      dup2\n      mstore\n      0x20\n      add\n      swap1\n      dup2\n      mstore\n      0x20\n      add\n      0x00\n      keccak256\n        /* \"contracts/BusinessConsensus.sol\":3701:3730  voter_maps[_messageID][voter] */\n      0x00\n        /* \"contracts/BusinessConsensus.sol\":3724:3729  voter */\n      dup6\n        /* \"contracts/BusinessConsensus.sol\":3701:3730  voter_maps[_messageID][voter] */\n      0xffffffffffffffffffffffffffffffffffffffff\n      and\n      0xffffffffffffffffffffffffffffffffffffffff\n      and\n      dup2\n      mstore\n      0x20\n      add\n      swap1\n      dup2\n      mstore\n      0x20\n      add\n      0x00\n      keccak256\n        /* \"contracts/BusinessConsensus.sol\":3701:3734  voter_maps[_messageID][voter] = x */\n      0x00\n      dup3\n      add\n      mload\n      dup2\n      0x00\n      add\n      exp(0x0100, 0x00)\n      dup2\n      sload\n      dup2\n      0xff\n      mul\n      not\n      and\n      swap1\n      dup4\n      iszero\n      iszero\n      mul\n      or\n      swap1\n      sstore\n      pop\n      0x20\n      dup3\n      add\n      mload\n      dup2\n      0x00\n      add\n      exp(0x0100, 0x01)\n      dup2\n      sload\n      dup2\n      0xff\n      mul\n      not\n      and\n      swap1\n      dup4\n      iszero\n      iszero\n      mul\n      or\n      swap1\n      sstore\n      pop\n      0x40\n      dup3\n      add\n      mload\n      dup2\n      0x00\n      add\n      exp(0x0100, 0x02)\n      dup2\n      sload\n      dup2\n      0xffffffffffffffffffffffffffffffffffffffff\n      mul\n      not\n      and\n      swap1\n      dup4\n      0xffffffffffffffffffffffffffffffffffffffff\n      and\n      mul\n      or\n      swap1\n      sstore\n      pop\n      swap1\n      pop\n      pop\n        /* \"contracts/BusinessConsensus.sol\":3745:3749  keys */\n      0x0d\n        /* \"contracts/BusinessConsensus.sol\":3745:3761  keys[_messageID] */\n      0x00\n        /* \"contracts/BusinessConsensus.sol\":3750:3760  _messageID */\n      dup4\n        /* \"contracts/BusinessConsensus.sol\":3745:3761  keys[_messageID] */\n      dup2\n      mstore\n      0x20\n      add\n      swap1\n      dup2\n      mstore\n      0x20\n      add\n      0x00\n      keccak256\n        /* \"contracts/BusinessConsensus.sol\":3767:3772  voter */\n      dup4\n        /* \"contracts/BusinessConsensus.sol\":3745:3773  keys[_messageID].push(voter) */\n      swap1\n      dup1\n      0x01\n      dup2\n      sload\n      add\n      dup1\n      dup3\n      sstore\n      dup1\n      swap2\n      pop\n      pop\n      0x01\n      swap1\n      sub\n      swap1\n      0x00\n      mstore\n      keccak256(0x00, 0x20)\n      add\n      0x00\n      swap1\n      swap2\n      swap1\n      swap2\n      swap1\n      swap2\n      0x0100\n      exp\n      dup2\n      sload\n      dup2\n      0xffffffffffffffffffffffffffffffffffffffff\n      mul\n      not\n      and\n      swap1\n      dup4\n      0xffffffffffffffffffffffffffffffffffffffff\n      and\n      mul\n      or\n      swap1\n      sstore\n      pop\n        /* \"contracts/BusinessConsensus.sol\":3109:3781  {\r... */\n      pop\n        /* \"contracts/BusinessConsensus.sol\":3043:3781  function RegisterVoter(address voter,bytes32 _messageID) external {\r... */\n      pop\n      pop\n      jump\t// out\n        /* \"contracts/BusinessConsensus.sol\":715:762  mapping(bytes32 => uint256) public numApprovals */\n    tag_117:\n      mstore(0x20, 0x06)\n      dup1\n      0x00\n      mstore\n      keccak256(0x00, 0x40)\n      0x00\n      swap2\n      pop\n      swap1\n      pop\n      sload\n      dup2\n      jump\t// out\n        /* \"contracts/BusinessConsensus.sol\":461:498  mapping(bytes32 =>bytes32) public IDs */\n    tag_121:\n      mstore(0x20, 0x01)\n      dup1\n      0x00\n      mstore\n      keccak256(0x00, 0x40)\n      0x00\n      swap2\n      pop\n      swap1\n      pop\n      sload\n      dup2\n      jump\t// out\n        /* \"contracts/BusinessConsensus.sol\":665:708  mapping(bytes32 => bytes32) public contents */\n    tag_126:\n      mstore(0x20, 0x05)\n      dup1\n      0x00\n      mstore\n      keccak256(0x00, 0x40)\n      0x00\n      swap2\n      pop\n      swap1\n      pop\n      sload\n      dup2\n      jump\t// out\n    tag_213:\n      dup3\n      dup1\n      sload\n      tag_228\n      swap1\n      tag_197\n      jump\t// in\n    tag_228:\n      swap1\n      0x00\n      mstore\n      keccak256(0x00, 0x20)\n      swap1\n      0x1f\n      add\n      0x20\n      swap1\n      div\n      dup2\n      add\n      swap3\n      dup3\n      tag_230\n      jumpi\n      0x00\n      dup6\n      sstore\n      jump(tag_229)\n    tag_230:\n      dup3\n      0x1f\n      lt\n      tag_231\n      jumpi\n      dup1\n      mload\n      not(0xff)\n      and\n      dup4\n      dup1\n      add\n      or\n      dup6\n      sstore\n      jump(tag_229)\n    tag_231:\n      dup3\n      dup1\n      add\n      0x01\n      add\n      dup6\n      sstore\n      dup3\n      iszero\n      tag_229\n      jumpi\n      swap2\n      dup3\n      add\n    tag_232:\n      dup3\n      dup2\n      gt\n      iszero\n      tag_233\n      jumpi\n      dup3\n      mload\n      dup3\n      sstore\n      swap2\n      0x20\n      add\n      swap2\n      swap1\n      0x01\n      add\n      swap1\n      jump(tag_232)\n    tag_233:\n    tag_229:\n      pop\n      swap1\n      pop\n      tag_234\n      swap2\n      swap1\n      tag_235\n      jump\t// in\n    tag_234:\n      pop\n      swap1\n      jump\t// out\n    tag_235:\n    tag_236:\n      dup1\n      dup3\n      gt\n      iszero\n      tag_237\n      jumpi\n      0x00\n      dup2\n      0x00\n      swap1\n      sstore\n      pop\n      0x01\n      add\n      jump(tag_236)\n    tag_237:\n      pop\n      swap1\n      jump\t// out\n        /* \"#utility.yul\":7:419   */\n    tag_239:\n        /* \"#utility.yul\":85:90   */\n      0x00\n        /* \"#utility.yul\":110:176   */\n      tag_241\n        /* \"#utility.yul\":126:175   */\n      tag_242\n        /* \"#utility.yul\":168:174   */\n      dup5\n        /* \"#utility.yul\":126:175   */\n      tag_243\n      jump\t// in\n    tag_242:\n        /* \"#utility.yul\":110:176   */\n      tag_244\n      jump\t// in\n    tag_241:\n        /* \"#utility.yul\":101:176   */\n      swap1\n      pop\n        /* \"#utility.yul\":199:205   */\n      dup3\n        /* \"#utility.yul\":192:197   */\n      dup2\n        /* \"#utility.yul\":185:206   */\n      mstore\n        /* \"#utility.yul\":237:241   */\n      0x20\n        /* \"#utility.yul\":230:235   */\n      dup2\n        /* \"#utility.yul\":226:242   */\n      add\n        /* \"#utility.yul\":275:278   */\n      dup5\n        /* \"#utility.yul\":266:272   */\n      dup5\n        /* \"#utility.yul\":261:264   */\n      dup5\n        /* \"#utility.yul\":257:273   */\n      add\n        /* \"#utility.yul\":254:279   */\n      gt\n        /* \"#utility.yul\":251:363   */\n      iszero\n      tag_245\n      jumpi\n        /* \"#utility.yul\":282:361   */\n      tag_246\n      tag_247\n      jump\t// in\n    tag_246:\n        /* \"#utility.yul\":251:363   */\n    tag_245:\n        /* \"#utility.yul\":372:413   */\n      tag_248\n        /* \"#utility.yul\":406:412   */\n      dup5\n        /* \"#utility.yul\":401:404   */\n      dup3\n        /* \"#utility.yul\":396:399   */\n      dup6\n        /* \"#utility.yul\":372:413   */\n      tag_249\n      jump\t// in\n    tag_248:\n        /* \"#utility.yul\":91:419   */\n      pop\n        /* \"#utility.yul\":7:419   */\n      swap4\n      swap3\n      pop\n      pop\n      pop\n      jump\t// out\n        /* \"#utility.yul\":425:564   */\n    tag_250:\n        /* \"#utility.yul\":471:476   */\n      0x00\n        /* \"#utility.yul\":509:515   */\n      dup2\n        /* \"#utility.yul\":496:516   */\n      calldataload\n        /* \"#utility.yul\":487:516   */\n      swap1\n      pop\n        /* \"#utility.yul\":525:558   */\n      tag_252\n        /* \"#utility.yul\":552:557   */\n      dup2\n        /* \"#utility.yul\":525:558   */\n      tag_253\n      jump\t// in\n    tag_252:\n        /* \"#utility.yul\":425:564   */\n      swap3\n      swap2\n      pop\n      pop\n      jump\t// out\n        /* \"#utility.yul\":570:709   */\n    tag_254:\n        /* \"#utility.yul\":616:621   */\n      0x00\n        /* \"#utility.yul\":654:660   */\n      dup2\n        /* \"#utility.yul\":641:661   */\n      calldataload\n        /* \"#utility.yul\":632:661   */\n      swap1\n      pop\n        /* \"#utility.yul\":670:703   */\n      tag_256\n        /* \"#utility.yul\":697:702   */\n      dup2\n        /* \"#utility.yul\":670:703   */\n      tag_257\n      jump\t// in\n    tag_256:\n        /* \"#utility.yul\":570:709   */\n      swap3\n      swap2\n      pop\n      pop\n      jump\t// out\n        /* \"#utility.yul\":729:1069   */\n    tag_258:\n        /* \"#utility.yul\":785:790   */\n      0x00\n        /* \"#utility.yul\":834:837   */\n      dup3\n        /* \"#utility.yul\":827:831   */\n      0x1f\n        /* \"#utility.yul\":819:825   */\n      dup4\n        /* \"#utility.yul\":815:832   */\n      add\n        /* \"#utility.yul\":811:838   */\n      slt\n        /* \"#utility.yul\":801:923   */\n      tag_260\n      jumpi\n        /* \"#utility.yul\":842:921   */\n      tag_261\n      tag_262\n      jump\t// in\n    tag_261:\n        /* \"#utility.yul\":801:923   */\n    tag_260:\n        /* \"#utility.yul\":959:965   */\n      dup2\n        /* \"#utility.yul\":946:966   */\n      calldataload\n        /* \"#utility.yul\":984:1063   */\n      tag_263\n        /* \"#utility.yul\":1059:1062   */\n      dup5\n        /* \"#utility.yul\":1051:1057   */\n      dup3\n        /* \"#utility.yul\":1044:1048   */\n      0x20\n        /* \"#utility.yul\":1036:1042   */\n      dup7\n        /* \"#utility.yul\":1032:1049   */\n      add\n        /* \"#utility.yul\":984:1063   */\n      tag_239\n      jump\t// in\n    tag_263:\n        /* \"#utility.yul\":975:1063   */\n      swap2\n      pop\n        /* \"#utility.yul\":791:1069   */\n      pop\n        /* \"#utility.yul\":729:1069   */\n      swap3\n      swap2\n      pop\n      pop\n      jump\t// out\n        /* \"#utility.yul\":1075:1214   */\n    tag_264:\n        /* \"#utility.yul\":1121:1126   */\n      0x00\n        /* \"#utility.yul\":1159:1165   */\n      dup2\n        /* \"#utility.yul\":1146:1166   */\n      calldataload\n        /* \"#utility.yul\":1137:1166   */\n      swap1\n      pop\n        /* \"#utility.yul\":1175:1208   */\n      tag_266\n        /* \"#utility.yul\":1202:1207   */\n      dup2\n        /* \"#utility.yul\":1175:1208   */\n      tag_267\n      jump\t// in\n    tag_266:\n        /* \"#utility.yul\":1075:1214   */\n      swap3\n      swap2\n      pop\n      pop\n      jump\t// out\n        /* \"#utility.yul\":1220:1694   */\n    tag_113:\n        /* \"#utility.yul\":1288:1294   */\n      0x00\n        /* \"#utility.yul\":1296:1302   */\n      dup1\n        /* \"#utility.yul\":1345:1347   */\n      0x40\n        /* \"#utility.yul\":1333:1342   */\n      dup4\n        /* \"#utility.yul\":1324:1331   */\n      dup6\n        /* \"#utility.yul\":1320:1343   */\n      sub\n        /* \"#utility.yul\":1316:1348   */\n      slt\n        /* \"#utility.yul\":1313:1432   */\n      iszero\n      tag_269\n      jumpi\n        /* \"#utility.yul\":1351:1430   */\n      tag_270\n      tag_271\n      jump\t// in\n    tag_270:\n        /* \"#utility.yul\":1313:1432   */\n    tag_269:\n        /* \"#utility.yul\":1471:1472   */\n      0x00\n        /* \"#utility.yul\":1496:1549   */\n      tag_272\n        /* \"#utility.yul\":1541:1548   */\n      dup6\n        /* \"#utility.yul\":1532:1538   */\n      dup3\n        /* \"#utility.yul\":1521:1530   */\n      dup7\n        /* \"#utility.yul\":1517:1539   */\n      add\n        /* \"#utility.yul\":1496:1549   */\n      tag_250\n      jump\t// in\n    tag_272:\n        /* \"#utility.yul\":1486:1549   */\n      swap3\n      pop\n        /* \"#utility.yul\":1442:1559   */\n      pop\n        /* \"#utility.yul\":1598:1600   */\n      0x20\n        /* \"#utility.yul\":1624:1677   */\n      tag_273\n        /* \"#utility.yul\":1669:1676   */\n      dup6\n        /* \"#utility.yul\":1660:1666   */\n      dup3\n        /* \"#utility.yul\":1649:1658   */\n      dup7\n        /* \"#utility.yul\":1645:1667   */\n      add\n        /* \"#utility.yul\":1624:1677   */\n      tag_254\n      jump\t// in\n    tag_273:\n        /* \"#utility.yul\":1614:1677   */\n      swap2\n      pop\n        /* \"#utility.yul\":1569:1687   */\n      pop\n        /* \"#utility.yul\":1220:1694   */\n      swap3\n      pop\n      swap3\n      swap1\n      pop\n      jump\t// out\n        /* \"#utility.yul\":1700:2029   */\n    tag_30:\n        /* \"#utility.yul\":1759:1765   */\n      0x00\n        /* \"#utility.yul\":1808:1810   */\n      0x20\n        /* \"#utility.yul\":1796:1805   */\n      dup3\n        /* \"#utility.yul\":1787:1794   */\n      dup5\n        /* \"#utility.yul\":1783:1806   */\n      sub\n        /* \"#utility.yul\":1779:1811   */\n      slt\n        /* \"#utility.yul\":1776:1895   */\n      iszero\n      tag_275\n      jumpi\n        /* \"#utility.yul\":1814:1893   */\n      tag_276\n      tag_271\n      jump\t// in\n    tag_276:\n        /* \"#utility.yul\":1776:1895   */\n    tag_275:\n        /* \"#utility.yul\":1934:1935   */\n      0x00\n        /* \"#utility.yul\":1959:2012   */\n      tag_277\n        /* \"#utility.yul\":2004:2011   */\n      dup5\n        /* \"#utility.yul\":1995:2001   */\n      dup3\n        /* \"#utility.yul\":1984:1993   */\n      dup6\n        /* \"#utility.yul\":1980:2002   */\n      add\n        /* \"#utility.yul\":1959:2012   */\n      tag_254\n      jump\t// in\n    tag_277:\n        /* \"#utility.yul\":1949:2012   */\n      swap2\n      pop\n        /* \"#utility.yul\":1905:2022   */\n      pop\n        /* \"#utility.yul\":1700:2029   */\n      swap3\n      swap2\n      pop\n      pop\n      jump\t// out\n        /* \"#utility.yul\":2035:2509   */\n    tag_100:\n        /* \"#utility.yul\":2103:2109   */\n      0x00\n        /* \"#utility.yul\":2111:2117   */\n      dup1\n        /* \"#utility.yul\":2160:2162   */\n      0x40\n        /* \"#utility.yul\":2148:2157   */\n      dup4\n        /* \"#utility.yul\":2139:2146   */\n      dup6\n        /* \"#utility.yul\":2135:2158   */\n      sub\n        /* \"#utility.yul\":2131:2163   */\n      slt\n        /* \"#utility.yul\":2128:2247   */\n      iszero\n      tag_279\n      jumpi\n        /* \"#utility.yul\":2166:2245   */\n      tag_280\n      tag_271\n      jump\t// in\n    tag_280:\n        /* \"#utility.yul\":2128:2247   */\n    tag_279:\n        /* \"#utility.yul\":2286:2287   */\n      0x00\n        /* \"#utility.yul\":2311:2364   */\n      tag_281\n        /* \"#utility.yul\":2356:2363   */\n      dup6\n        /* \"#utility.yul\":2347:2353   */\n      dup3\n        /* \"#utility.yul\":2336:2345   */\n      dup7\n        /* \"#utility.yul\":2332:2354   */\n      add\n        /* \"#utility.yul\":2311:2364   */\n      tag_254\n      jump\t// in\n    tag_281:\n        /* \"#utility.yul\":2301:2364   */\n      swap3\n      pop\n        /* \"#utility.yul\":2257:2374   */\n      pop\n        /* \"#utility.yul\":2413:2415   */\n      0x20\n        /* \"#utility.yul\":2439:2492   */\n      tag_282\n        /* \"#utility.yul\":2484:2491   */\n      dup6\n        /* \"#utility.yul\":2475:2481   */\n      dup3\n        /* \"#utility.yul\":2464:2473   */\n      dup7\n        /* \"#utility.yul\":2460:2482   */\n      add\n        /* \"#utility.yul\":2439:2492   */\n      tag_250\n      jump\t// in\n    tag_282:\n        /* \"#utility.yul\":2429:2492   */\n      swap2\n      pop\n        /* \"#utility.yul\":2384:2502   */\n      pop\n        /* \"#utility.yul\":2035:2509   */\n      swap3\n      pop\n      swap3\n      swap1\n      pop\n      jump\t// out\n        /* \"#utility.yul\":2515:2989   */\n    tag_52:\n        /* \"#utility.yul\":2583:2589   */\n      0x00\n        /* \"#utility.yul\":2591:2597   */\n      dup1\n        /* \"#utility.yul\":2640:2642   */\n      0x40\n        /* \"#utility.yul\":2628:2637   */\n      dup4\n        /* \"#utility.yul\":2619:2626   */\n      dup6\n        /* \"#utility.yul\":2615:2638   */\n      sub\n        /* \"#utility.yul\":2611:2643   */\n      slt\n        /* \"#utility.yul\":2608:2727   */\n      iszero\n      tag_284\n      jumpi\n        /* \"#utility.yul\":2646:2725   */\n      tag_285\n      tag_271\n      jump\t// in\n    tag_285:\n        /* \"#utility.yul\":2608:2727   */\n    tag_284:\n        /* \"#utility.yul\":2766:2767   */\n      0x00\n        /* \"#utility.yul\":2791:2844   */\n      tag_286\n        /* \"#utility.yul\":2836:2843   */\n      dup6\n        /* \"#utility.yul\":2827:2833   */\n      dup3\n        /* \"#utility.yul\":2816:2825   */\n      dup7\n        /* \"#utility.yul\":2812:2834   */\n      add\n        /* \"#utility.yul\":2791:2844   */\n      tag_254\n      jump\t// in\n    tag_286:\n        /* \"#utility.yul\":2781:2844   */\n      swap3\n      pop\n        /* \"#utility.yul\":2737:2854   */\n      pop\n        /* \"#utility.yul\":2893:2895   */\n      0x20\n        /* \"#utility.yul\":2919:2972   */\n      tag_287\n        /* \"#utility.yul\":2964:2971   */\n      dup6\n        /* \"#utility.yul\":2955:2961   */\n      dup3\n        /* \"#utility.yul\":2944:2953   */\n      dup7\n        /* \"#utility.yul\":2940:2962   */\n      add\n        /* \"#utility.yul\":2919:2972   */\n      tag_264\n      jump\t// in\n    tag_287:\n        /* \"#utility.yul\":2909:2972   */\n      swap2\n      pop\n        /* \"#utility.yul\":2864:2982   */\n      pop\n        /* \"#utility.yul\":2515:2989   */\n      swap3\n      pop\n      swap3\n      swap1\n      pop\n      jump\t// out\n        /* \"#utility.yul\":2995:3760   */\n    tag_41:\n        /* \"#utility.yul\":3081:3087   */\n      0x00\n        /* \"#utility.yul\":3089:3095   */\n      dup1\n        /* \"#utility.yul\":3097:3103   */\n      0x00\n        /* \"#utility.yul\":3105:3111   */\n      dup1\n        /* \"#utility.yul\":3154:3157   */\n      0x80\n        /* \"#utility.yul\":3142:3151   */\n      dup6\n        /* \"#utility.yul\":3133:3140   */\n      dup8\n        /* \"#utility.yul\":3129:3152   */\n      sub\n        /* \"#utility.yul\":3125:3158   */\n      slt\n        /* \"#utility.yul\":3122:3242   */\n      iszero\n      tag_289\n      jumpi\n        /* \"#utility.yul\":3161:3240   */\n      tag_290\n      tag_271\n      jump\t// in\n    tag_290:\n        /* \"#utility.yul\":3122:3242   */\n    tag_289:\n        /* \"#utility.yul\":3281:3282   */\n      0x00\n        /* \"#utility.yul\":3306:3359   */\n      tag_291\n        /* \"#utility.yul\":3351:3358   */\n      dup8\n        /* \"#utility.yul\":3342:3348   */\n      dup3\n        /* \"#utility.yul\":3331:3340   */\n      dup9\n        /* \"#utility.yul\":3327:3349   */\n      add\n        /* \"#utility.yul\":3306:3359   */\n      tag_254\n      jump\t// in\n    tag_291:\n        /* \"#utility.yul\":3296:3359   */\n      swap5\n      pop\n        /* \"#utility.yul\":3252:3369   */\n      pop\n        /* \"#utility.yul\":3408:3410   */\n      0x20\n        /* \"#utility.yul\":3434:3487   */\n      tag_292\n        /* \"#utility.yul\":3479:3486   */\n      dup8\n        /* \"#utility.yul\":3470:3476   */\n      dup3\n        /* \"#utility.yul\":3459:3468   */\n      dup9\n        /* \"#utility.yul\":3455:3477   */\n      add\n        /* \"#utility.yul\":3434:3487   */\n      tag_264\n      jump\t// in\n    tag_292:\n        /* \"#utility.yul\":3424:3487   */\n      swap4\n      pop\n        /* \"#utility.yul\":3379:3497   */\n      pop\n        /* \"#utility.yul\":3536:3538   */\n      0x40\n        /* \"#utility.yul\":3562:3615   */\n      tag_293\n        /* \"#utility.yul\":3607:3614   */\n      dup8\n        /* \"#utility.yul\":3598:3604   */\n      dup3\n        /* \"#utility.yul\":3587:3596   */\n      dup9\n        /* \"#utility.yul\":3583:3605   */\n      add\n        /* \"#utility.yul\":3562:3615   */\n      tag_264\n      jump\t// in\n    tag_293:\n        /* \"#utility.yul\":3552:3615   */\n      swap3\n      pop\n        /* \"#utility.yul\":3507:3625   */\n      pop\n        /* \"#utility.yul\":3664:3666   */\n      0x60\n        /* \"#utility.yul\":3690:3743   */\n      tag_294\n        /* \"#utility.yul\":3735:3742   */\n      dup8\n        /* \"#utility.yul\":3726:3732   */\n      dup3\n        /* \"#utility.yul\":3715:3724   */\n      dup9\n        /* \"#utility.yul\":3711:3733   */\n      add\n        /* \"#utility.yul\":3690:3743   */\n      tag_254\n      jump\t// in\n    tag_294:\n        /* \"#utility.yul\":3680:3743   */\n      swap2\n      pop\n        /* \"#utility.yul\":3635:3753   */\n      pop\n        /* \"#utility.yul\":2995:3760   */\n      swap3\n      swap6\n      swap2\n      swap5\n      pop\n      swap3\n      pop\n      jump\t// out\n        /* \"#utility.yul\":3766:5003   */\n    tag_105:\n        /* \"#utility.yul\":3880:3886   */\n      0x00\n        /* \"#utility.yul\":3888:3894   */\n      dup1\n        /* \"#utility.yul\":3896:3902   */\n      0x00\n        /* \"#utility.yul\":3904:3910   */\n      dup1\n        /* \"#utility.yul\":3912:3918   */\n      0x00\n        /* \"#utility.yul\":3920:3926   */\n      dup1\n        /* \"#utility.yul\":3969:3972   */\n      0xc0\n        /* \"#utility.yul\":3957:3966   */\n      dup8\n        /* \"#utility.yul\":3948:3955   */\n      dup10\n        /* \"#utility.yul\":3944:3967   */\n      sub\n        /* \"#utility.yul\":3940:3973   */\n      slt\n        /* \"#utility.yul\":3937:4057   */\n      iszero\n      tag_296\n      jumpi\n        /* \"#utility.yul\":3976:4055   */\n      tag_297\n      tag_271\n      jump\t// in\n    tag_297:\n        /* \"#utility.yul\":3937:4057   */\n    tag_296:\n        /* \"#utility.yul\":4096:4097   */\n      0x00\n        /* \"#utility.yul\":4121:4174   */\n      tag_298\n        /* \"#utility.yul\":4166:4173   */\n      dup10\n        /* \"#utility.yul\":4157:4163   */\n      dup3\n        /* \"#utility.yul\":4146:4155   */\n      dup11\n        /* \"#utility.yul\":4142:4164   */\n      add\n        /* \"#utility.yul\":4121:4174   */\n      tag_254\n      jump\t// in\n    tag_298:\n        /* \"#utility.yul\":4111:4174   */\n      swap7\n      pop\n        /* \"#utility.yul\":4067:4184   */\n      pop\n        /* \"#utility.yul\":4223:4225   */\n      0x20\n        /* \"#utility.yul\":4249:4302   */\n      tag_299\n        /* \"#utility.yul\":4294:4301   */\n      dup10\n        /* \"#utility.yul\":4285:4291   */\n      dup3\n        /* \"#utility.yul\":4274:4283   */\n      dup11\n        /* \"#utility.yul\":4270:4292   */\n      add\n        /* \"#utility.yul\":4249:4302   */\n      tag_264\n      jump\t// in\n    tag_299:\n        /* \"#utility.yul\":4239:4302   */\n      swap6\n      pop\n        /* \"#utility.yul\":4194:4312   */\n      pop\n        /* \"#utility.yul\":4351:4353   */\n      0x40\n        /* \"#utility.yul\":4377:4430   */\n      tag_300\n        /* \"#utility.yul\":4422:4429   */\n      dup10\n        /* \"#utility.yul\":4413:4419   */\n      dup3\n        /* \"#utility.yul\":4402:4411   */\n      dup11\n        /* \"#utility.yul\":4398:4420   */\n      add\n        /* \"#utility.yul\":4377:4430   */\n      tag_264\n      jump\t// in\n    tag_300:\n        /* \"#utility.yul\":4367:4430   */\n      swap5\n      pop\n        /* \"#utility.yul\":4322:4440   */\n      pop\n        /* \"#utility.yul\":4479:4481   */\n      0x60\n        /* \"#utility.yul\":4505:4558   */\n      tag_301\n        /* \"#utility.yul\":4550:4557   */\n      dup10\n        /* \"#utility.yul\":4541:4547   */\n      dup3\n        /* \"#utility.yul\":4530:4539   */\n      dup11\n        /* \"#utility.yul\":4526:4548   */\n      add\n        /* \"#utility.yul\":4505:4558   */\n      tag_254\n      jump\t// in\n    tag_301:\n        /* \"#utility.yul\":4495:4558   */\n      swap4\n      pop\n        /* \"#utility.yul\":4450:4568   */\n      pop\n        /* \"#utility.yul\":4635:4638   */\n      0x80\n        /* \"#utility.yul\":4624:4633   */\n      dup8\n        /* \"#utility.yul\":4620:4639   */\n      add\n        /* \"#utility.yul\":4607:4640   */\n      calldataload\n        /* \"#utility.yul\":4667:4685   */\n      0xffffffffffffffff\n        /* \"#utility.yul\":4659:4665   */\n      dup2\n        /* \"#utility.yul\":4656:4686   */\n      gt\n        /* \"#utility.yul\":4653:4770   */\n      iszero\n      tag_302\n      jumpi\n        /* \"#utility.yul\":4689:4768   */\n      tag_303\n      tag_304\n      jump\t// in\n    tag_303:\n        /* \"#utility.yul\":4653:4770   */\n    tag_302:\n        /* \"#utility.yul\":4794:4857   */\n      tag_305\n        /* \"#utility.yul\":4849:4856   */\n      dup10\n        /* \"#utility.yul\":4840:4846   */\n      dup3\n        /* \"#utility.yul\":4829:4838   */\n      dup11\n        /* \"#utility.yul\":4825:4847   */\n      add\n        /* \"#utility.yul\":4794:4857   */\n      tag_258\n      jump\t// in\n    tag_305:\n        /* \"#utility.yul\":4784:4857   */\n      swap3\n      pop\n        /* \"#utility.yul\":4578:4867   */\n      pop\n        /* \"#utility.yul\":4906:4909   */\n      0xa0\n        /* \"#utility.yul\":4933:4986   */\n      tag_306\n        /* \"#utility.yul\":4978:4985   */\n      dup10\n        /* \"#utility.yul\":4969:4975   */\n      dup3\n        /* \"#utility.yul\":4958:4967   */\n      dup11\n        /* \"#utility.yul\":4954:4976   */\n      add\n        /* \"#utility.yul\":4933:4986   */\n      tag_254\n      jump\t// in\n    tag_306:\n        /* \"#utility.yul\":4923:4986   */\n      swap2\n      pop\n        /* \"#utility.yul\":4877:4996   */\n      pop\n        /* \"#utility.yul\":3766:5003   */\n      swap3\n      swap6\n      pop\n      swap3\n      swap6\n      pop\n      swap3\n      swap6\n      jump\t// out\n        /* \"#utility.yul\":5009:5663   */\n    tag_86:\n        /* \"#utility.yul\":5087:5093   */\n      0x00\n        /* \"#utility.yul\":5095:5101   */\n      dup1\n        /* \"#utility.yul\":5144:5146   */\n      0x40\n        /* \"#utility.yul\":5132:5141   */\n      dup4\n        /* \"#utility.yul\":5123:5130   */\n      dup6\n        /* \"#utility.yul\":5119:5142   */\n      sub\n        /* \"#utility.yul\":5115:5147   */\n      slt\n        /* \"#utility.yul\":5112:5231   */\n      iszero\n      tag_308\n      jumpi\n        /* \"#utility.yul\":5150:5229   */\n      tag_309\n      tag_271\n      jump\t// in\n    tag_309:\n        /* \"#utility.yul\":5112:5231   */\n    tag_308:\n        /* \"#utility.yul\":5298:5299   */\n      0x00\n        /* \"#utility.yul\":5287:5296   */\n      dup4\n        /* \"#utility.yul\":5283:5300   */\n      add\n        /* \"#utility.yul\":5270:5301   */\n      calldataload\n        /* \"#utility.yul\":5328:5346   */\n      0xffffffffffffffff\n        /* \"#utility.yul\":5320:5326   */\n      dup2\n        /* \"#utility.yul\":5317:5347   */\n      gt\n        /* \"#utility.yul\":5314:5431   */\n      iszero\n      tag_310\n      jumpi\n        /* \"#utility.yul\":5350:5429   */\n      tag_311\n      tag_304\n      jump\t// in\n    tag_311:\n        /* \"#utility.yul\":5314:5431   */\n    tag_310:\n        /* \"#utility.yul\":5455:5518   */\n      tag_312\n        /* \"#utility.yul\":5510:5517   */\n      dup6\n        /* \"#utility.yul\":5501:5507   */\n      dup3\n        /* \"#utility.yul\":5490:5499   */\n      dup7\n        /* \"#utility.yul\":5486:5508   */\n      add\n        /* \"#utility.yul\":5455:5518   */\n      tag_258\n      jump\t// in\n    tag_312:\n        /* \"#utility.yul\":5445:5518   */\n      swap3\n      pop\n        /* \"#utility.yul\":5241:5528   */\n      pop\n        /* \"#utility.yul\":5567:5569   */\n      0x20\n        /* \"#utility.yul\":5593:5646   */\n      tag_313\n        /* \"#utility.yul\":5638:5645   */\n      dup6\n        /* \"#utility.yul\":5629:5635   */\n      dup3\n        /* \"#utility.yul\":5618:5627   */\n      dup7\n        /* \"#utility.yul\":5614:5636   */\n      add\n        /* \"#utility.yul\":5593:5646   */\n      tag_254\n      jump\t// in\n    tag_313:\n        /* \"#utility.yul\":5583:5646   */\n      swap2\n      pop\n        /* \"#utility.yul\":5538:5656   */\n      pop\n        /* \"#utility.yul\":5009:5663   */\n      swap3\n      pop\n      swap3\n      swap1\n      pop\n      jump\t// out\n        /* \"#utility.yul\":5669:5928   */\n    tag_314:\n        /* \"#utility.yul\":5778:5788   */\n      0x00\n        /* \"#utility.yul\":5799:5885   */\n      tag_316\n        /* \"#utility.yul\":5881:5884   */\n      dup4\n        /* \"#utility.yul\":5873:5879   */\n      dup4\n        /* \"#utility.yul\":5799:5885   */\n      tag_317\n      jump\t// in\n    tag_316:\n        /* \"#utility.yul\":5917:5921   */\n      0x60\n        /* \"#utility.yul\":5912:5915   */\n      dup4\n        /* \"#utility.yul\":5908:5922   */\n      add\n        /* \"#utility.yul\":5894:5922   */\n      swap1\n      pop\n        /* \"#utility.yul\":5669:5928   */\n      swap3\n      swap2\n      pop\n      pop\n      jump\t// out\n        /* \"#utility.yul\":5934:6042   */\n    tag_318:\n        /* \"#utility.yul\":6011:6035   */\n      tag_320\n        /* \"#utility.yul\":6029:6034   */\n      dup2\n        /* \"#utility.yul\":6011:6035   */\n      tag_321\n      jump\t// in\n    tag_320:\n        /* \"#utility.yul\":6006:6009   */\n      dup3\n        /* \"#utility.yul\":5999:6036   */\n      mstore\n        /* \"#utility.yul\":5934:6042   */\n      pop\n      pop\n      jump\t// out\n        /* \"#utility.yul\":6048:6166   */\n    tag_322:\n        /* \"#utility.yul\":6135:6159   */\n      tag_324\n        /* \"#utility.yul\":6153:6158   */\n      dup2\n        /* \"#utility.yul\":6135:6159   */\n      tag_321\n      jump\t// in\n    tag_324:\n        /* \"#utility.yul\":6130:6133   */\n      dup3\n        /* \"#utility.yul\":6123:6160   */\n      mstore\n        /* \"#utility.yul\":6048:6166   */\n      pop\n      pop\n      jump\t// out\n        /* \"#utility.yul\":6248:7140   */\n    tag_325:\n        /* \"#utility.yul\":6407:6410   */\n      0x00\n        /* \"#utility.yul\":6436:6510   */\n      tag_327\n        /* \"#utility.yul\":6504:6509   */\n      dup3\n        /* \"#utility.yul\":6436:6510   */\n      tag_328\n      jump\t// in\n    tag_327:\n        /* \"#utility.yul\":6526:6632   */\n      tag_329\n        /* \"#utility.yul\":6625:6631   */\n      dup2\n        /* \"#utility.yul\":6620:6623   */\n      dup6\n        /* \"#utility.yul\":6526:6632   */\n      tag_330\n      jump\t// in\n    tag_329:\n        /* \"#utility.yul\":6519:6632   */\n      swap4\n      pop\n        /* \"#utility.yul\":6656:6732   */\n      tag_331\n        /* \"#utility.yul\":6726:6731   */\n      dup4\n        /* \"#utility.yul\":6656:6732   */\n      tag_332\n      jump\t// in\n    tag_331:\n        /* \"#utility.yul\":6755:6762   */\n      dup1\n        /* \"#utility.yul\":6786:6787   */\n      0x00\n        /* \"#utility.yul\":6771:7115   */\n    tag_333:\n        /* \"#utility.yul\":6796:6802   */\n      dup4\n        /* \"#utility.yul\":6793:6794   */\n      dup2\n        /* \"#utility.yul\":6790:6803   */\n      lt\n        /* \"#utility.yul\":6771:7115   */\n      iszero\n      tag_335\n      jumpi\n        /* \"#utility.yul\":6872:6878   */\n      dup2\n        /* \"#utility.yul\":6866:6879   */\n      mload\n        /* \"#utility.yul\":6899:7002   */\n      tag_336\n        /* \"#utility.yul\":6998:7001   */\n      dup9\n        /* \"#utility.yul\":6983:6996   */\n      dup3\n        /* \"#utility.yul\":6899:7002   */\n      tag_314\n      jump\t// in\n    tag_336:\n        /* \"#utility.yul\":6892:7002   */\n      swap8\n      pop\n        /* \"#utility.yul\":7025:7105   */\n      tag_337\n        /* \"#utility.yul\":7098:7104   */\n      dup4\n        /* \"#utility.yul\":7025:7105   */\n      tag_338\n      jump\t// in\n    tag_337:\n        /* \"#utility.yul\":7015:7105   */\n      swap3\n      pop\n        /* \"#utility.yul\":6831:7115   */\n      pop\n        /* \"#utility.yul\":6818:6819   */\n      0x01\n        /* \"#utility.yul\":6815:6816   */\n      dup2\n        /* \"#utility.yul\":6811:6820   */\n      add\n        /* \"#utility.yul\":6806:6820   */\n      swap1\n      pop\n        /* \"#utility.yul\":6771:7115   */\n      jump(tag_333)\n    tag_335:\n        /* \"#utility.yul\":6775:6789   */\n      pop\n        /* \"#utility.yul\":7131:7134   */\n      dup6\n        /* \"#utility.yul\":7124:7134   */\n      swap4\n      pop\n        /* \"#utility.yul\":6412:7140   */\n      pop\n      pop\n      pop\n        /* \"#utility.yul\":6248:7140   */\n      swap3\n      swap2\n      pop\n      pop\n      jump\t// out\n        /* \"#utility.yul\":7146:7245   */\n    tag_339:\n        /* \"#utility.yul\":7217:7238   */\n      tag_341\n        /* \"#utility.yul\":7232:7237   */\n      dup2\n        /* \"#utility.yul\":7217:7238   */\n      tag_342\n      jump\t// in\n    tag_341:\n        /* \"#utility.yul\":7212:7215   */\n      dup3\n        /* \"#utility.yul\":7205:7239   */\n      mstore\n        /* \"#utility.yul\":7146:7245   */\n      pop\n      pop\n      jump\t// out\n        /* \"#utility.yul\":7251:7360   */\n    tag_343:\n        /* \"#utility.yul\":7332:7353   */\n      tag_345\n        /* \"#utility.yul\":7347:7352   */\n      dup2\n        /* \"#utility.yul\":7332:7353   */\n      tag_342\n      jump\t// in\n    tag_345:\n        /* \"#utility.yul\":7327:7330   */\n      dup3\n        /* \"#utility.yul\":7320:7354   */\n      mstore\n        /* \"#utility.yul\":7251:7360   */\n      pop\n      pop\n      jump\t// out\n        /* \"#utility.yul\":7366:7484   */\n    tag_346:\n        /* \"#utility.yul\":7453:7477   */\n      tag_348\n        /* \"#utility.yul\":7471:7476   */\n      dup2\n        /* \"#utility.yul\":7453:7477   */\n      tag_349\n      jump\t// in\n    tag_348:\n        /* \"#utility.yul\":7448:7451   */\n      dup3\n        /* \"#utility.yul\":7441:7478   */\n      mstore\n        /* \"#utility.yul\":7366:7484   */\n      pop\n      pop\n      jump\t// out\n        /* \"#utility.yul\":7490:7854   */\n    tag_350:\n        /* \"#utility.yul\":7578:7581   */\n      0x00\n        /* \"#utility.yul\":7606:7645   */\n      tag_352\n        /* \"#utility.yul\":7639:7644   */\n      dup3\n        /* \"#utility.yul\":7606:7645   */\n      tag_353\n      jump\t// in\n    tag_352:\n        /* \"#utility.yul\":7661:7732   */\n      tag_354\n        /* \"#utility.yul\":7725:7731   */\n      dup2\n        /* \"#utility.yul\":7720:7723   */\n      dup6\n        /* \"#utility.yul\":7661:7732   */\n      tag_355\n      jump\t// in\n    tag_354:\n        /* \"#utility.yul\":7654:7732   */\n      swap4\n      pop\n        /* \"#utility.yul\":7741:7793   */\n      tag_356\n        /* \"#utility.yul\":7786:7792   */\n      dup2\n        /* \"#utility.yul\":7781:7784   */\n      dup6\n        /* \"#utility.yul\":7774:7778   */\n      0x20\n        /* \"#utility.yul\":7767:7772   */\n      dup7\n        /* \"#utility.yul\":7763:7779   */\n      add\n        /* \"#utility.yul\":7741:7793   */\n      tag_357\n      jump\t// in\n    tag_356:\n        /* \"#utility.yul\":7818:7847   */\n      tag_358\n        /* \"#utility.yul\":7840:7846   */\n      dup2\n        /* \"#utility.yul\":7818:7847   */\n      tag_359\n      jump\t// in\n    tag_358:\n        /* \"#utility.yul\":7813:7816   */\n      dup5\n        /* \"#utility.yul\":7809:7848   */\n      add\n        /* \"#utility.yul\":7802:7848   */\n      swap2\n      pop\n        /* \"#utility.yul\":7582:7854   */\n      pop\n        /* \"#utility.yul\":7490:7854   */\n      swap3\n      swap2\n      pop\n      pop\n      jump\t// out\n        /* \"#utility.yul\":7860:8226   */\n    tag_360:\n        /* \"#utility.yul\":8002:8005   */\n      0x00\n        /* \"#utility.yul\":8023:8090   */\n      tag_362\n        /* \"#utility.yul\":8087:8089   */\n      0x1f\n        /* \"#utility.yul\":8082:8085   */\n      dup4\n        /* \"#utility.yul\":8023:8090   */\n      tag_355\n      jump\t// in\n    tag_362:\n        /* \"#utility.yul\":8016:8090   */\n      swap2\n      pop\n        /* \"#utility.yul\":8099:8192   */\n      tag_363\n        /* \"#utility.yul\":8188:8191   */\n      dup3\n        /* \"#utility.yul\":8099:8192   */\n      tag_364\n      jump\t// in\n    tag_363:\n        /* \"#utility.yul\":8217:8219   */\n      0x20\n        /* \"#utility.yul\":8212:8215   */\n      dup3\n        /* \"#utility.yul\":8208:8220   */\n      add\n        /* \"#utility.yul\":8201:8220   */\n      swap1\n      pop\n        /* \"#utility.yul\":7860:8226   */\n      swap2\n      swap1\n      pop\n      jump\t// out\n        /* \"#utility.yul\":8232:8598   */\n    tag_365:\n        /* \"#utility.yul\":8374:8377   */\n      0x00\n        /* \"#utility.yul\":8395:8462   */\n      tag_367\n        /* \"#utility.yul\":8459:8461   */\n      0x19\n        /* \"#utility.yul\":8454:8457   */\n      dup4\n        /* \"#utility.yul\":8395:8462   */\n      tag_355\n      jump\t// in\n    tag_367:\n        /* \"#utility.yul\":8388:8462   */\n      swap2\n      pop\n        /* \"#utility.yul\":8471:8564   */\n      tag_368\n        /* \"#utility.yul\":8560:8563   */\n      dup3\n        /* \"#utility.yul\":8471:8564   */\n      tag_369\n      jump\t// in\n    tag_368:\n        /* \"#utility.yul\":8589:8591   */\n      0x20\n        /* \"#utility.yul\":8584:8587   */\n      dup3\n        /* \"#utility.yul\":8580:8592   */\n      add\n        /* \"#utility.yul\":8573:8592   */\n      swap1\n      pop\n        /* \"#utility.yul\":8232:8598   */\n      swap2\n      swap1\n      pop\n      jump\t// out\n        /* \"#utility.yul\":8604:8970   */\n    tag_370:\n        /* \"#utility.yul\":8746:8749   */\n      0x00\n        /* \"#utility.yul\":8767:8834   */\n      tag_372\n        /* \"#utility.yul\":8831:8833   */\n      0x26\n        /* \"#utility.yul\":8826:8829   */\n      dup4\n        /* \"#utility.yul\":8767:8834   */\n      tag_355\n      jump\t// in\n    tag_372:\n        /* \"#utility.yul\":8760:8834   */\n      swap2\n      pop\n        /* \"#utility.yul\":8843:8936   */\n      tag_373\n        /* \"#utility.yul\":8932:8935   */\n      dup3\n        /* \"#utility.yul\":8843:8936   */\n      tag_374\n      jump\t// in\n    tag_373:\n        /* \"#utility.yul\":8961:8963   */\n      0x40\n        /* \"#utility.yul\":8956:8959   */\n      dup3\n        /* \"#utility.yul\":8952:8964   */\n      add\n        /* \"#utility.yul\":8945:8964   */\n      swap1\n      pop\n        /* \"#utility.yul\":8604:8970   */\n      swap2\n      swap1\n      pop\n      jump\t// out\n        /* \"#utility.yul\":8976:9342   */\n    tag_375:\n        /* \"#utility.yul\":9118:9121   */\n      0x00\n        /* \"#utility.yul\":9139:9206   */\n      tag_377\n        /* \"#utility.yul\":9203:9205   */\n      0x1c\n        /* \"#utility.yul\":9198:9201   */\n      dup4\n        /* \"#utility.yul\":9139:9206   */\n      tag_355\n      jump\t// in\n    tag_377:\n        /* \"#utility.yul\":9132:9206   */\n      swap2\n      pop\n        /* \"#utility.yul\":9215:9308   */\n      tag_378\n        /* \"#utility.yul\":9304:9307   */\n      dup3\n        /* \"#utility.yul\":9215:9308   */\n      tag_379\n      jump\t// in\n    tag_378:\n        /* \"#utility.yul\":9333:9335   */\n      0x20\n        /* \"#utility.yul\":9328:9331   */\n      dup3\n        /* \"#utility.yul\":9324:9336   */\n      add\n        /* \"#utility.yul\":9317:9336   */\n      swap1\n      pop\n        /* \"#utility.yul\":8976:9342   */\n      swap2\n      swap1\n      pop\n      jump\t// out\n        /* \"#utility.yul\":9348:9714   */\n    tag_380:\n        /* \"#utility.yul\":9490:9493   */\n      0x00\n        /* \"#utility.yul\":9511:9578   */\n      tag_382\n        /* \"#utility.yul\":9575:9577   */\n      0x15\n        /* \"#utility.yul\":9570:9573   */\n      dup4\n        /* \"#utility.yul\":9511:9578   */\n      tag_355\n      jump\t// in\n    tag_382:\n        /* \"#utility.yul\":9504:9578   */\n      swap2\n      pop\n        /* \"#utility.yul\":9587:9680   */\n      tag_383\n        /* \"#utility.yul\":9676:9679   */\n      dup3\n        /* \"#utility.yul\":9587:9680   */\n      tag_384\n      jump\t// in\n    tag_383:\n        /* \"#utility.yul\":9705:9707   */\n      0x20\n        /* \"#utility.yul\":9700:9703   */\n      dup3\n        /* \"#utility.yul\":9696:9708   */\n      add\n        /* \"#utility.yul\":9689:9708   */\n      swap1\n      pop\n        /* \"#utility.yul\":9348:9714   */\n      swap2\n      swap1\n      pop\n      jump\t// out\n        /* \"#utility.yul\":9720:10086   */\n    tag_385:\n        /* \"#utility.yul\":9862:9865   */\n      0x00\n        /* \"#utility.yul\":9883:9950   */\n      tag_387\n        /* \"#utility.yul\":9947:9949   */\n      0x1e\n        /* \"#utility.yul\":9942:9945   */\n      dup4\n        /* \"#utility.yul\":9883:9950   */\n      tag_355\n      jump\t// in\n    tag_387:\n        /* \"#utility.yul\":9876:9950   */\n      swap2\n      pop\n        /* \"#utility.yul\":9959:10052   */\n      tag_388\n        /* \"#utility.yul\":10048:10051   */\n      dup3\n        /* \"#utility.yul\":9959:10052   */\n      tag_389\n      jump\t// in\n    tag_388:\n        /* \"#utility.yul\":10077:10079   */\n      0x20\n        /* \"#utility.yul\":10072:10075   */\n      dup3\n        /* \"#utility.yul\":10068:10080   */\n      add\n        /* \"#utility.yul\":10061:10080   */\n      swap1\n      pop\n        /* \"#utility.yul\":9720:10086   */\n      swap2\n      swap1\n      pop\n      jump\t// out\n        /* \"#utility.yul\":10092:10458   */\n    tag_390:\n        /* \"#utility.yul\":10234:10237   */\n      0x00\n        /* \"#utility.yul\":10255:10322   */\n      tag_392\n        /* \"#utility.yul\":10319:10321   */\n      0x24\n        /* \"#utility.yul\":10314:10317   */\n      dup4\n        /* \"#utility.yul\":10255:10322   */\n      tag_355\n      jump\t// in\n    tag_392:\n        /* \"#utility.yul\":10248:10322   */\n      swap2\n      pop\n        /* \"#utility.yul\":10331:10424   */\n      tag_393\n        /* \"#utility.yul\":10420:10423   */\n      dup3\n        /* \"#utility.yul\":10331:10424   */\n      tag_394\n      jump\t// in\n    tag_393:\n        /* \"#utility.yul\":10449:10451   */\n      0x40\n        /* \"#utility.yul\":10444:10447   */\n      dup3\n        /* \"#utility.yul\":10440:10452   */\n      add\n        /* \"#utility.yul\":10433:10452   */\n      swap1\n      pop\n        /* \"#utility.yul\":10092:10458   */\n      swap2\n      swap1\n      pop\n      jump\t// out\n        /* \"#utility.yul\":10464:10830   */\n    tag_395:\n        /* \"#utility.yul\":10606:10609   */\n      0x00\n        /* \"#utility.yul\":10627:10694   */\n      tag_397\n        /* \"#utility.yul\":10691:10693   */\n      0x28\n        /* \"#utility.yul\":10686:10689   */\n      dup4\n        /* \"#utility.yul\":10627:10694   */\n      tag_355\n      jump\t// in\n    tag_397:\n        /* \"#utility.yul\":10620:10694   */\n      swap2\n      pop\n        /* \"#utility.yul\":10703:10796   */\n      tag_398\n        /* \"#utility.yul\":10792:10795   */\n      dup3\n        /* \"#utility.yul\":10703:10796   */\n      tag_399\n      jump\t// in\n    tag_398:\n        /* \"#utility.yul\":10821:10823   */\n      0x40\n        /* \"#utility.yul\":10816:10819   */\n      dup3\n        /* \"#utility.yul\":10812:10824   */\n      add\n        /* \"#utility.yul\":10805:10824   */\n      swap1\n      pop\n        /* \"#utility.yul\":10464:10830   */\n      swap2\n      swap1\n      pop\n      jump\t// out\n        /* \"#utility.yul\":10836:11202   */\n    tag_400:\n        /* \"#utility.yul\":10978:10981   */\n      0x00\n        /* \"#utility.yul\":10999:11066   */\n      tag_402\n        /* \"#utility.yul\":11063:11065   */\n      0x20\n        /* \"#utility.yul\":11058:11061   */\n      dup4\n        /* \"#utility.yul\":10999:11066   */\n      tag_355\n      jump\t// in\n    tag_402:\n        /* \"#utility.yul\":10992:11066   */\n      swap2\n      pop\n        /* \"#utility.yul\":11075:11168   */\n      tag_403\n        /* \"#utility.yul\":11164:11167   */\n      dup3\n        /* \"#utility.yul\":11075:11168   */\n      tag_404\n      jump\t// in\n    tag_403:\n        /* \"#utility.yul\":11193:11195   */\n      0x20\n        /* \"#utility.yul\":11188:11191   */\n      dup3\n        /* \"#utility.yul\":11184:11196   */\n      add\n        /* \"#utility.yul\":11177:11196   */\n      swap1\n      pop\n        /* \"#utility.yul\":10836:11202   */\n      swap2\n      swap1\n      pop\n      jump\t// out\n        /* \"#utility.yul\":11208:11574   */\n    tag_405:\n        /* \"#utility.yul\":11350:11353   */\n      0x00\n        /* \"#utility.yul\":11371:11438   */\n      tag_407\n        /* \"#utility.yul\":11435:11437   */\n      0x12\n        /* \"#utility.yul\":11430:11433   */\n      dup4\n        /* \"#utility.yul\":11371:11438   */\n      tag_355\n      jump\t// in\n    tag_407:\n        /* \"#utility.yul\":11364:11438   */\n      swap2\n      pop\n        /* \"#utility.yul\":11447:11540   */\n      tag_408\n        /* \"#utility.yul\":11536:11539   */\n      dup3\n        /* \"#utility.yul\":11447:11540   */\n      tag_409\n      jump\t// in\n    tag_408:\n        /* \"#utility.yul\":11565:11567   */\n      0x20\n        /* \"#utility.yul\":11560:11563   */\n      dup3\n        /* \"#utility.yul\":11556:11568   */\n      add\n        /* \"#utility.yul\":11549:11568   */\n      swap1\n      pop\n        /* \"#utility.yul\":11208:11574   */\n      swap2\n      swap1\n      pop\n      jump\t// out\n        /* \"#utility.yul\":11580:11946   */\n    tag_410:\n        /* \"#utility.yul\":11722:11725   */\n      0x00\n        /* \"#utility.yul\":11743:11810   */\n      tag_412\n        /* \"#utility.yul\":11807:11809   */\n      0x25\n        /* \"#utility.yul\":11802:11805   */\n      dup4\n        /* \"#utility.yul\":11743:11810   */\n      tag_355\n      jump\t// in\n    tag_412:\n        /* \"#utility.yul\":11736:11810   */\n      swap2\n      pop\n        /* \"#utility.yul\":11819:11912   */\n      tag_413\n        /* \"#utility.yul\":11908:11911   */\n      dup3\n        /* \"#utility.yul\":11819:11912   */\n      tag_414\n      jump\t// in\n    tag_413:\n        /* \"#utility.yul\":11937:11939   */\n      0x40\n        /* \"#utility.yul\":11932:11935   */\n      dup3\n        /* \"#utility.yul\":11928:11940   */\n      add\n        /* \"#utility.yul\":11921:11940   */\n      swap1\n      pop\n        /* \"#utility.yul\":11580:11946   */\n      swap2\n      swap1\n      pop\n      jump\t// out\n        /* \"#utility.yul\":12024:12679   */\n    tag_317:\n        /* \"#utility.yul\":12151:12155   */\n      0x60\n        /* \"#utility.yul\":12146:12149   */\n      dup3\n        /* \"#utility.yul\":12142:12156   */\n      add\n        /* \"#utility.yul\":12239:12243   */\n      0x00\n        /* \"#utility.yul\":12232:12237   */\n      dup3\n        /* \"#utility.yul\":12228:12244   */\n      add\n        /* \"#utility.yul\":12222:12245   */\n      mload\n        /* \"#utility.yul\":12258:12315   */\n      tag_416\n        /* \"#utility.yul\":12309:12313   */\n      0x00\n        /* \"#utility.yul\":12304:12307   */\n      dup6\n        /* \"#utility.yul\":12300:12314   */\n      add\n        /* \"#utility.yul\":12286:12298   */\n      dup3\n        /* \"#utility.yul\":12258:12315   */\n      tag_339\n      jump\t// in\n    tag_416:\n        /* \"#utility.yul\":12166:12325   */\n      pop\n        /* \"#utility.yul\":12407:12411   */\n      0x20\n        /* \"#utility.yul\":12400:12405   */\n      dup3\n        /* \"#utility.yul\":12396:12412   */\n      add\n        /* \"#utility.yul\":12390:12413   */\n      mload\n        /* \"#utility.yul\":12426:12483   */\n      tag_417\n        /* \"#utility.yul\":12477:12481   */\n      0x20\n        /* \"#utility.yul\":12472:12475   */\n      dup6\n        /* \"#utility.yul\":12468:12482   */\n      add\n        /* \"#utility.yul\":12454:12466   */\n      dup3\n        /* \"#utility.yul\":12426:12483   */\n      tag_339\n      jump\t// in\n    tag_417:\n        /* \"#utility.yul\":12335:12493   */\n      pop\n        /* \"#utility.yul\":12580:12584   */\n      0x40\n        /* \"#utility.yul\":12573:12578   */\n      dup3\n        /* \"#utility.yul\":12569:12585   */\n      add\n        /* \"#utility.yul\":12563:12586   */\n      mload\n        /* \"#utility.yul\":12599:12662   */\n      tag_418\n        /* \"#utility.yul\":12656:12660   */\n      0x40\n        /* \"#utility.yul\":12651:12654   */\n      dup6\n        /* \"#utility.yul\":12647:12661   */\n      add\n        /* \"#utility.yul\":12633:12645   */\n      dup3\n        /* \"#utility.yul\":12599:12662   */\n      tag_318\n      jump\t// in\n    tag_418:\n        /* \"#utility.yul\":12503:12672   */\n      pop\n        /* \"#utility.yul\":12120:12679   */\n      pop\n        /* \"#utility.yul\":12024:12679   */\n      pop\n      pop\n      jump\t// out\n        /* \"#utility.yul\":12685:12803   */\n    tag_419:\n        /* \"#utility.yul\":12772:12796   */\n      tag_421\n        /* \"#utility.yul\":12790:12795   */\n      dup2\n        /* \"#utility.yul\":12772:12796   */\n      tag_422\n      jump\t// in\n    tag_421:\n        /* \"#utility.yul\":12767:12770   */\n      dup3\n        /* \"#utility.yul\":12760:12797   */\n      mstore\n        /* \"#utility.yul\":12685:12803   */\n      pop\n      pop\n      jump\t// out\n        /* \"#utility.yul\":12809:13031   */\n    tag_75:\n        /* \"#utility.yul\":12902:12906   */\n      0x00\n        /* \"#utility.yul\":12940:12942   */\n      0x20\n        /* \"#utility.yul\":12929:12938   */\n      dup3\n        /* \"#utility.yul\":12925:12943   */\n      add\n        /* \"#utility.yul\":12917:12943   */\n      swap1\n      pop\n        /* \"#utility.yul\":12953:13024   */\n      tag_424\n        /* \"#utility.yul\":13021:13022   */\n      0x00\n        /* \"#utility.yul\":13010:13019   */\n      dup4\n        /* \"#utility.yul\":13006:13023   */\n      add\n        /* \"#utility.yul\":12997:13003   */\n      dup5\n        /* \"#utility.yul\":12953:13024   */\n      tag_322\n      jump\t// in\n    tag_424:\n        /* \"#utility.yul\":12809:13031   */\n      swap3\n      swap2\n      pop\n      pop\n      jump\t// out\n        /* \"#utility.yul\":13037:13247   */\n    tag_49:\n        /* \"#utility.yul\":13124:13128   */\n      0x00\n        /* \"#utility.yul\":13162:13164   */\n      0x20\n        /* \"#utility.yul\":13151:13160   */\n      dup3\n        /* \"#utility.yul\":13147:13165   */\n      add\n        /* \"#utility.yul\":13139:13165   */\n      swap1\n      pop\n        /* \"#utility.yul\":13175:13240   */\n      tag_426\n        /* \"#utility.yul\":13237:13238   */\n      0x00\n        /* \"#utility.yul\":13226:13235   */\n      dup4\n        /* \"#utility.yul\":13222:13239   */\n      add\n        /* \"#utility.yul\":13213:13219   */\n      dup5\n        /* \"#utility.yul\":13175:13240   */\n      tag_343\n      jump\t// in\n    tag_426:\n        /* \"#utility.yul\":13037:13247   */\n      swap3\n      swap2\n      pop\n      pop\n      jump\t// out\n        /* \"#utility.yul\":13253:13671   */\n    tag_55:\n        /* \"#utility.yul\":13390:13394   */\n      0x00\n        /* \"#utility.yul\":13428:13430   */\n      0x60\n        /* \"#utility.yul\":13417:13426   */\n      dup3\n        /* \"#utility.yul\":13413:13431   */\n      add\n        /* \"#utility.yul\":13405:13431   */\n      swap1\n      pop\n        /* \"#utility.yul\":13441:13506   */\n      tag_428\n        /* \"#utility.yul\":13503:13504   */\n      0x00\n        /* \"#utility.yul\":13492:13501   */\n      dup4\n        /* \"#utility.yul\":13488:13505   */\n      add\n        /* \"#utility.yul\":13479:13485   */\n      dup7\n        /* \"#utility.yul\":13441:13506   */\n      tag_343\n      jump\t// in\n    tag_428:\n        /* \"#utility.yul\":13516:13582   */\n      tag_429\n        /* \"#utility.yul\":13578:13580   */\n      0x20\n        /* \"#utility.yul\":13567:13576   */\n      dup4\n        /* \"#utility.yul\":13563:13581   */\n      add\n        /* \"#utility.yul\":13554:13560   */\n      dup6\n        /* \"#utility.yul\":13516:13582   */\n      tag_343\n      jump\t// in\n    tag_429:\n        /* \"#utility.yul\":13592:13664   */\n      tag_430\n        /* \"#utility.yul\":13660:13662   */\n      0x40\n        /* \"#utility.yul\":13649:13658   */\n      dup4\n        /* \"#utility.yul\":13645:13663   */\n      add\n        /* \"#utility.yul\":13636:13642   */\n      dup5\n        /* \"#utility.yul\":13592:13664   */\n      tag_322\n      jump\t// in\n    tag_430:\n        /* \"#utility.yul\":13253:13671   */\n      swap5\n      swap4\n      pop\n      pop\n      pop\n      pop\n      jump\t// out\n        /* \"#utility.yul\":13677:14083   */\n    tag_44:\n        /* \"#utility.yul\":13808:13812   */\n      0x00\n        /* \"#utility.yul\":13846:13848   */\n      0x60\n        /* \"#utility.yul\":13835:13844   */\n      dup3\n        /* \"#utility.yul\":13831:13849   */\n      add\n        /* \"#utility.yul\":13823:13849   */\n      swap1\n      pop\n        /* \"#utility.yul\":13859:13924   */\n      tag_432\n        /* \"#utility.yul\":13921:13922   */\n      0x00\n        /* \"#utility.yul\":13910:13919   */\n      dup4\n        /* \"#utility.yul\":13906:13923   */\n      add\n        /* \"#utility.yul\":13897:13903   */\n      dup7\n        /* \"#utility.yul\":13859:13924   */\n      tag_343\n      jump\t// in\n    tag_432:\n        /* \"#utility.yul\":13934:14000   */\n      tag_433\n        /* \"#utility.yul\":13996:13998   */\n      0x20\n        /* \"#utility.yul\":13985:13994   */\n      dup4\n        /* \"#utility.yul\":13981:13999   */\n      add\n        /* \"#utility.yul\":13972:13978   */\n      dup6\n        /* \"#utility.yul\":13934:14000   */\n      tag_343\n      jump\t// in\n    tag_433:\n        /* \"#utility.yul\":14010:14076   */\n      tag_434\n        /* \"#utility.yul\":14072:14074   */\n      0x40\n        /* \"#utility.yul\":14061:14070   */\n      dup4\n        /* \"#utility.yul\":14057:14075   */\n      add\n        /* \"#utility.yul\":14048:14054   */\n      dup5\n        /* \"#utility.yul\":14010:14076   */\n      tag_343\n      jump\t// in\n    tag_434:\n        /* \"#utility.yul\":13677:14083   */\n      swap5\n      swap4\n      pop\n      pop\n      pop\n      pop\n      jump\t// out\n        /* \"#utility.yul\":14089:14861   */\n    tag_38:\n        /* \"#utility.yul\":14350:14354   */\n      0x00\n        /* \"#utility.yul\":14388:14391   */\n      0x80\n        /* \"#utility.yul\":14377:14386   */\n      dup3\n        /* \"#utility.yul\":14373:14392   */\n      add\n        /* \"#utility.yul\":14365:14392   */\n      swap1\n      pop\n        /* \"#utility.yul\":14402:14467   */\n      tag_436\n        /* \"#utility.yul\":14464:14465   */\n      0x00\n        /* \"#utility.yul\":14453:14462   */\n      dup4\n        /* \"#utility.yul\":14449:14466   */\n      add\n        /* \"#utility.yul\":14440:14446   */\n      dup8\n        /* \"#utility.yul\":14402:14467   */\n      tag_343\n      jump\t// in\n    tag_436:\n        /* \"#utility.yul\":14477:14549   */\n      tag_437\n        /* \"#utility.yul\":14545:14547   */\n      0x20\n        /* \"#utility.yul\":14534:14543   */\n      dup4\n        /* \"#utility.yul\":14530:14548   */\n      add\n        /* \"#utility.yul\":14521:14527   */\n      dup7\n        /* \"#utility.yul\":14477:14549   */\n      tag_346\n      jump\t// in\n    tag_437:\n        /* \"#utility.yul\":14559:14631   */\n      tag_438\n        /* \"#utility.yul\":14627:14629   */\n      0x40\n        /* \"#utility.yul\":14616:14625   */\n      dup4\n        /* \"#utility.yul\":14612:14630   */\n      add\n        /* \"#utility.yul\":14603:14609   */\n      dup6\n        /* \"#utility.yul\":14559:14631   */\n      tag_419\n      jump\t// in\n    tag_438:\n        /* \"#utility.yul\":14678:14687   */\n      dup2\n        /* \"#utility.yul\":14672:14676   */\n      dup2\n        /* \"#utility.yul\":14668:14688   */\n      sub\n        /* \"#utility.yul\":14663:14665   */\n      0x60\n        /* \"#utility.yul\":14652:14661   */\n      dup4\n        /* \"#utility.yul\":14648:14666   */\n      add\n        /* \"#utility.yul\":14641:14689   */\n      mstore\n        /* \"#utility.yul\":14706:14854   */\n      tag_439\n        /* \"#utility.yul\":14849:14853   */\n      dup2\n        /* \"#utility.yul\":14840:14846   */\n      dup5\n        /* \"#utility.yul\":14706:14854   */\n      tag_325\n      jump\t// in\n    tag_439:\n        /* \"#utility.yul\":14698:14854   */\n      swap1\n      pop\n        /* \"#utility.yul\":14089:14861   */\n      swap6\n      swap5\n      pop\n      pop\n      pop\n      pop\n      pop\n      jump\t// out\n        /* \"#utility.yul\":14867:15089   */\n    tag_123:\n        /* \"#utility.yul\":14960:14964   */\n      0x00\n        /* \"#utility.yul\":14998:15000   */\n      0x20\n        /* \"#utility.yul\":14987:14996   */\n      dup3\n        /* \"#utility.yul\":14983:15001   */\n      add\n        /* \"#utility.yul\":14975:15001   */\n      swap1\n      pop\n        /* \"#utility.yul\":15011:15082   */\n      tag_441\n        /* \"#utility.yul\":15079:15080   */\n      0x00\n        /* \"#utility.yul\":15068:15077   */\n      dup4\n        /* \"#utility.yul\":15064:15081   */\n      add\n        /* \"#utility.yul\":15055:15061   */\n      dup5\n        /* \"#utility.yul\":15011:15082   */\n      tag_346\n      jump\t// in\n    tag_441:\n        /* \"#utility.yul\":14867:15089   */\n      swap3\n      swap2\n      pop\n      pop\n      jump\t// out\n        /* \"#utility.yul\":15095:15518   */\n    tag_92:\n        /* \"#utility.yul\":15236:15240   */\n      0x00\n        /* \"#utility.yul\":15274:15276   */\n      0x40\n        /* \"#utility.yul\":15263:15272   */\n      dup3\n        /* \"#utility.yul\":15259:15277   */\n      add\n        /* \"#utility.yul\":15251:15277   */\n      swap1\n      pop\n        /* \"#utility.yul\":15287:15358   */\n      tag_443\n        /* \"#utility.yul\":15355:15356   */\n      0x00\n        /* \"#utility.yul\":15344:15353   */\n      dup4\n        /* \"#utility.yul\":15340:15357   */\n      add\n        /* \"#utility.yul\":15331:15337   */\n      dup6\n        /* \"#utility.yul\":15287:15358   */\n      tag_346\n      jump\t// in\n    tag_443:\n        /* \"#utility.yul\":15405:15414   */\n      dup2\n        /* \"#utility.yul\":15399:15403   */\n      dup2\n        /* \"#utility.yul\":15395:15415   */\n      sub\n        /* \"#utility.yul\":15390:15392   */\n      0x20\n        /* \"#utility.yul\":15379:15388   */\n      dup4\n        /* \"#utility.yul\":15375:15393   */\n      add\n        /* \"#utility.yul\":15368:15416   */\n      mstore\n        /* \"#utility.yul\":15433:15511   */\n      tag_444\n        /* \"#utility.yul\":15506:15510   */\n      dup2\n        /* \"#utility.yul\":15497:15503   */\n      dup5\n        /* \"#utility.yul\":15433:15511   */\n      tag_350\n      jump\t// in\n    tag_444:\n        /* \"#utility.yul\":15425:15511   */\n      swap1\n      pop\n        /* \"#utility.yul\":15095:15518   */\n      swap4\n      swap3\n      pop\n      pop\n      pop\n      jump\t// out\n        /* \"#utility.yul\":15524:15837   */\n    tag_97:\n        /* \"#utility.yul\":15637:15641   */\n      0x00\n        /* \"#utility.yul\":15675:15677   */\n      0x20\n        /* \"#utility.yul\":15664:15673   */\n      dup3\n        /* \"#utility.yul\":15660:15678   */\n      add\n        /* \"#utility.yul\":15652:15678   */\n      swap1\n      pop\n        /* \"#utility.yul\":15724:15733   */\n      dup2\n        /* \"#utility.yul\":15718:15722   */\n      dup2\n        /* \"#utility.yul\":15714:15734   */\n      sub\n        /* \"#utility.yul\":15710:15711   */\n      0x00\n        /* \"#utility.yul\":15699:15708   */\n      dup4\n        /* \"#utility.yul\":15695:15712   */\n      add\n        /* \"#utility.yul\":15688:15735   */\n      mstore\n        /* \"#utility.yul\":15752:15830   */\n      tag_446\n        /* \"#utility.yul\":15825:15829   */\n      dup2\n        /* \"#utility.yul\":15816:15822   */\n      dup5\n        /* \"#utility.yul\":15752:15830   */\n      tag_350\n      jump\t// in\n    tag_446:\n        /* \"#utility.yul\":15744:15830   */\n      swap1\n      pop\n        /* \"#utility.yul\":15524:15837   */\n      swap3\n      swap2\n      pop\n      pop\n      jump\t// out\n        /* \"#utility.yul\":15843:16262   */\n    tag_223:\n        /* \"#utility.yul\":16009:16013   */\n      0x00\n        /* \"#utility.yul\":16047:16049   */\n      0x20\n        /* \"#utility.yul\":16036:16045   */\n      dup3\n        /* \"#utility.yul\":16032:16050   */\n      add\n        /* \"#utility.yul\":16024:16050   */\n      swap1\n      pop\n        /* \"#utility.yul\":16096:16105   */\n      dup2\n        /* \"#utility.yul\":16090:16094   */\n      dup2\n        /* \"#utility.yul\":16086:16106   */\n      sub\n        /* \"#utility.yul\":16082:16083   */\n      0x00\n        /* \"#utility.yul\":16071:16080   */\n      dup4\n        /* \"#utility.yul\":16067:16084   */\n      add\n        /* \"#utility.yul\":16060:16107   */\n      mstore\n        /* \"#utility.yul\":16124:16255   */\n      tag_448\n        /* \"#utility.yul\":16250:16254   */\n      dup2\n        /* \"#utility.yul\":16124:16255   */\n      tag_360\n      jump\t// in\n    tag_448:\n        /* \"#utility.yul\":16116:16255   */\n      swap1\n      pop\n        /* \"#utility.yul\":15843:16262   */\n      swap2\n      swap1\n      pop\n      jump\t// out\n        /* \"#utility.yul\":16268:16687   */\n    tag_210:\n        /* \"#utility.yul\":16434:16438   */\n      0x00\n        /* \"#utility.yul\":16472:16474   */\n      0x20\n        /* \"#utility.yul\":16461:16470   */\n      dup3\n        /* \"#utility.yul\":16457:16475   */\n      add\n        /* \"#utility.yul\":16449:16475   */\n      swap1\n      pop\n        /* \"#utility.yul\":16521:16530   */\n      dup2\n        /* \"#utility.yul\":16515:16519   */\n      dup2\n        /* \"#utility.yul\":16511:16531   */\n      sub\n        /* \"#utility.yul\":16507:16508   */\n      0x00\n        /* \"#utility.yul\":16496:16505   */\n      dup4\n        /* \"#utility.yul\":16492:16509   */\n      add\n        /* \"#utility.yul\":16485:16532   */\n      mstore\n        /* \"#utility.yul\":16549:16680   */\n      tag_450\n        /* \"#utility.yul\":16675:16679   */\n      dup2\n        /* \"#utility.yul\":16549:16680   */\n      tag_365\n      jump\t// in\n    tag_450:\n        /* \"#utility.yul\":16541:16680   */\n      swap1\n      pop\n        /* \"#utility.yul\":16268:16687   */\n      swap2\n      swap1\n      pop\n      jump\t// out\n        /* \"#utility.yul\":16693:17112   */\n    tag_151:\n        /* \"#utility.yul\":16859:16863   */\n      0x00\n        /* \"#utility.yul\":16897:16899   */\n      0x20\n        /* \"#utility.yul\":16886:16895   */\n      dup3\n        /* \"#utility.yul\":16882:16900   */\n      add\n        /* \"#utility.yul\":16874:16900   */\n      swap1\n      pop\n        /* \"#utility.yul\":16946:16955   */\n      dup2\n        /* \"#utility.yul\":16940:16944   */\n      dup2\n        /* \"#utility.yul\":16936:16956   */\n      sub\n        /* \"#utility.yul\":16932:16933   */\n      0x00\n        /* \"#utility.yul\":16921:16930   */\n      dup4\n        /* \"#utility.yul\":16917:16934   */\n      add\n        /* \"#utility.yul\":16910:16957   */\n      mstore\n        /* \"#utility.yul\":16974:17105   */\n      tag_452\n        /* \"#utility.yul\":17100:17104   */\n      dup2\n        /* \"#utility.yul\":16974:17105   */\n      tag_370\n      jump\t// in\n    tag_452:\n        /* \"#utility.yul\":16966:17105   */\n      swap1\n      pop\n        /* \"#utility.yul\":16693:17112   */\n      swap2\n      swap1\n      pop\n      jump\t// out\n        /* \"#utility.yul\":17118:17537   */\n    tag_182:\n        /* \"#utility.yul\":17284:17288   */\n      0x00\n        /* \"#utility.yul\":17322:17324   */\n      0x20\n        /* \"#utility.yul\":17311:17320   */\n      dup3\n        /* \"#utility.yul\":17307:17325   */\n      add\n        /* \"#utility.yul\":17299:17325   */\n      swap1\n      pop\n        /* \"#utility.yul\":17371:17380   */\n      dup2\n        /* \"#utility.yul\":17365:17369   */\n      dup2\n        /* \"#utility.yul\":17361:17381   */\n      sub\n        /* \"#utility.yul\":17357:17358   */\n      0x00\n        /* \"#utility.yul\":17346:17355   */\n      dup4\n        /* \"#utility.yul\":17342:17359   */\n      add\n        /* \"#utility.yul\":17335:17382   */\n      mstore\n        /* \"#utility.yul\":17399:17530   */\n      tag_454\n        /* \"#utility.yul\":17525:17529   */\n      dup2\n        /* \"#utility.yul\":17399:17530   */\n      tag_375\n      jump\t// in\n    tag_454:\n        /* \"#utility.yul\":17391:17530   */\n      swap1\n      pop\n        /* \"#utility.yul\":17118:17537   */\n      swap2\n      swap1\n      pop\n      jump\t// out\n        /* \"#utility.yul\":17543:17962   */\n    tag_220:\n        /* \"#utility.yul\":17709:17713   */\n      0x00\n        /* \"#utility.yul\":17747:17749   */\n      0x20\n        /* \"#utility.yul\":17736:17745   */\n      dup3\n        /* \"#utility.yul\":17732:17750   */\n      add\n        /* \"#utility.yul\":17724:17750   */\n      swap1\n      pop\n        /* \"#utility.yul\":17796:17805   */\n      dup2\n        /* \"#utility.yul\":17790:17794   */\n      dup2\n        /* \"#utility.yul\":17786:17806   */\n      sub\n        /* \"#utility.yul\":17782:17783   */\n      0x00\n        /* \"#utility.yul\":17771:17780   */\n      dup4\n        /* \"#utility.yul\":17767:17784   */\n      add\n        /* \"#utility.yul\":17760:17807   */\n      mstore\n        /* \"#utility.yul\":17824:17955   */\n      tag_456\n        /* \"#utility.yul\":17950:17954   */\n      dup2\n        /* \"#utility.yul\":17824:17955   */\n      tag_380\n      jump\t// in\n    tag_456:\n        /* \"#utility.yul\":17816:17955   */\n      swap1\n      pop\n        /* \"#utility.yul\":17543:17962   */\n      swap2\n      swap1\n      pop\n      jump\t// out\n        /* \"#utility.yul\":17968:18387   */\n    tag_179:\n        /* \"#utility.yul\":18134:18138   */\n      0x00\n        /* \"#utility.yul\":18172:18174   */\n      0x20\n        /* \"#utility.yul\":18161:18170   */\n      dup3\n        /* \"#utility.yul\":18157:18175   */\n      add\n        /* \"#utility.yul\":18149:18175   */\n      swap1\n      pop\n        /* \"#utility.yul\":18221:18230   */\n      dup2\n        /* \"#utility.yul\":18215:18219   */\n      dup2\n        /* \"#utility.yul\":18211:18231   */\n      sub\n        /* \"#utility.yul\":18207:18208   */\n      0x00\n        /* \"#utility.yul\":18196:18205   */\n      dup4\n        /* \"#utility.yul\":18192:18209   */\n      add\n        /* \"#utility.yul\":18185:18232   */\n      mstore\n        /* \"#utility.yul\":18249:18380   */\n      tag_458\n        /* \"#utility.yul\":18375:18379   */\n      dup2\n        /* \"#utility.yul\":18249:18380   */\n      tag_385\n      jump\t// in\n    tag_458:\n        /* \"#utility.yul\":18241:18380   */\n      swap1\n      pop\n        /* \"#utility.yul\":17968:18387   */\n      swap2\n      swap1\n      pop\n      jump\t// out\n        /* \"#utility.yul\":18393:18812   */\n    tag_226:\n        /* \"#utility.yul\":18559:18563   */\n      0x00\n        /* \"#utility.yul\":18597:18599   */\n      0x20\n        /* \"#utility.yul\":18586:18595   */\n      dup3\n        /* \"#utility.yul\":18582:18600   */\n      add\n        /* \"#utility.yul\":18574:18600   */\n      swap1\n      pop\n        /* \"#utility.yul\":18646:18655   */\n      dup2\n        /* \"#utility.yul\":18640:18644   */\n      dup2\n        /* \"#utility.yul\":18636:18656   */\n      sub\n        /* \"#utility.yul\":18632:18633   */\n      0x00\n        /* \"#utility.yul\":18621:18630   */\n      dup4\n        /* \"#utility.yul\":18617:18634   */\n      add\n        /* \"#utility.yul\":18610:18657   */\n      mstore\n        /* \"#utility.yul\":18674:18805   */\n      tag_460\n        /* \"#utility.yul\":18800:18804   */\n      dup2\n        /* \"#utility.yul\":18674:18805   */\n      tag_390\n      jump\t// in\n    tag_460:\n        /* \"#utility.yul\":18666:18805   */\n      swap1\n      pop\n        /* \"#utility.yul\":18393:18812   */\n      swap2\n      swap1\n      pop\n      jump\t// out\n        /* \"#utility.yul\":18818:19237   */\n    tag_217:\n        /* \"#utility.yul\":18984:18988   */\n      0x00\n        /* \"#utility.yul\":19022:19024   */\n      0x20\n        /* \"#utility.yul\":19011:19020   */\n      dup3\n        /* \"#utility.yul\":19007:19025   */\n      add\n        /* \"#utility.yul\":18999:19025   */\n      swap1\n      pop\n        /* \"#utility.yul\":19071:19080   */\n      dup2\n        /* \"#utility.yul\":19065:19069   */\n      dup2\n        /* \"#utility.yul\":19061:19081   */\n      sub\n        /* \"#utility.yul\":19057:19058   */\n      0x00\n        /* \"#utility.yul\":19046:19055   */\n      dup4\n        /* \"#utility.yul\":19042:19059   */\n      add\n        /* \"#utility.yul\":19035:19082   */\n      mstore\n        /* \"#utility.yul\":19099:19230   */\n      tag_462\n        /* \"#utility.yul\":19225:19229   */\n      dup2\n        /* \"#utility.yul\":19099:19230   */\n      tag_395\n      jump\t// in\n    tag_462:\n        /* \"#utility.yul\":19091:19230   */\n      swap1\n      pop\n        /* \"#utility.yul\":18818:19237   */\n      swap2\n      swap1\n      pop\n      jump\t// out\n        /* \"#utility.yul\":19243:19662   */\n    tag_131:\n        /* \"#utility.yul\":19409:19413   */\n      0x00\n        /* \"#utility.yul\":19447:19449   */\n      0x20\n        /* \"#utility.yul\":19436:19445   */\n      dup3\n        /* \"#utility.yul\":19432:19450   */\n      add\n        /* \"#utility.yul\":19424:19450   */\n      swap1\n      pop\n        /* \"#utility.yul\":19496:19505   */\n      dup2\n        /* \"#utility.yul\":19490:19494   */\n      dup2\n        /* \"#utility.yul\":19486:19506   */\n      sub\n        /* \"#utility.yul\":19482:19483   */\n      0x00\n        /* \"#utility.yul\":19471:19480   */\n      dup4\n        /* \"#utility.yul\":19467:19484   */\n      add\n        /* \"#utility.yul\":19460:19507   */\n      mstore\n        /* \"#utility.yul\":19524:19655   */\n      tag_464\n        /* \"#utility.yul\":19650:19654   */\n      dup2\n        /* \"#utility.yul\":19524:19655   */\n      tag_400\n      jump\t// in\n    tag_464:\n        /* \"#utility.yul\":19516:19655   */\n      swap1\n      pop\n        /* \"#utility.yul\":19243:19662   */\n      swap2\n      swap1\n      pop\n      jump\t// out\n        /* \"#utility.yul\":19668:20087   */\n    tag_176:\n        /* \"#utility.yul\":19834:19838   */\n      0x00\n        /* \"#utility.yul\":19872:19874   */\n      0x20\n        /* \"#utility.yul\":19861:19870   */\n      dup3\n        /* \"#utility.yul\":19857:19875   */\n      add\n        /* \"#utility.yul\":19849:19875   */\n      swap1\n      pop\n        /* \"#utility.yul\":19921:19930   */\n      dup2\n        /* \"#utility.yul\":19915:19919   */\n      dup2\n        /* \"#utility.yul\":19911:19931   */\n      sub\n        /* \"#utility.yul\":19907:19908   */\n      0x00\n        /* \"#utility.yul\":19896:19905   */\n      dup4\n        /* \"#utility.yul\":19892:19909   */\n      add\n        /* \"#utility.yul\":19885:19932   */\n      mstore\n        /* \"#utility.yul\":19949:20080   */\n      tag_466\n        /* \"#utility.yul\":20075:20079   */\n      dup2\n        /* \"#utility.yul\":19949:20080   */\n      tag_405\n      jump\t// in\n    tag_466:\n        /* \"#utility.yul\":19941:20080   */\n      swap1\n      pop\n        /* \"#utility.yul\":19668:20087   */\n      swap2\n      swap1\n      pop\n      jump\t// out\n        /* \"#utility.yul\":20093:20512   */\n    tag_147:\n        /* \"#utility.yul\":20259:20263   */\n      0x00\n        /* \"#utility.yul\":20297:20299   */\n      0x20\n        /* \"#utility.yul\":20286:20295   */\n      dup3\n        /* \"#utility.yul\":20282:20300   */\n      add\n        /* \"#utility.yul\":20274:20300   */\n      swap1\n      pop\n        /* \"#utility.yul\":20346:20355   */\n      dup2\n        /* \"#utility.yul\":20340:20344   */\n      dup2\n        /* \"#utility.yul\":20336:20356   */\n      sub\n        /* \"#utility.yul\":20332:20333   */\n      0x00\n        /* \"#utility.yul\":20321:20330   */\n      dup4\n        /* \"#utility.yul\":20317:20334   */\n      add\n        /* \"#utility.yul\":20310:20357   */\n      mstore\n        /* \"#utility.yul\":20374:20505   */\n      tag_468\n        /* \"#utility.yul\":20500:20504   */\n      dup2\n        /* \"#utility.yul\":20374:20505   */\n      tag_410\n      jump\t// in\n    tag_468:\n        /* \"#utility.yul\":20366:20505   */\n      swap1\n      pop\n        /* \"#utility.yul\":20093:20512   */\n      swap2\n      swap1\n      pop\n      jump\t// out\n        /* \"#utility.yul\":20518:20740   */\n    tag_33:\n        /* \"#utility.yul\":20611:20615   */\n      0x00\n        /* \"#utility.yul\":20649:20651   */\n      0x20\n        /* \"#utility.yul\":20638:20647   */\n      dup3\n        /* \"#utility.yul\":20634:20652   */\n      add\n        /* \"#utility.yul\":20626:20652   */\n      swap1\n      pop\n        /* \"#utility.yul\":20662:20733   */\n      tag_470\n        /* \"#utility.yul\":20730:20731   */\n      0x00\n        /* \"#utility.yul\":20719:20728   */\n      dup4\n        /* \"#utility.yul\":20715:20732   */\n      add\n        /* \"#utility.yul\":20706:20712   */\n      dup5\n        /* \"#utility.yul\":20662:20733   */\n      tag_419\n      jump\t// in\n    tag_470:\n        /* \"#utility.yul\":20518:20740   */\n      swap3\n      swap2\n      pop\n      pop\n      jump\t// out\n        /* \"#utility.yul\":20746:20875   */\n    tag_244:\n        /* \"#utility.yul\":20780:20786   */\n      0x00\n        /* \"#utility.yul\":20807:20827   */\n      tag_472\n      tag_473\n      jump\t// in\n    tag_472:\n        /* \"#utility.yul\":20797:20827   */\n      swap1\n      pop\n        /* \"#utility.yul\":20836:20869   */\n      tag_474\n        /* \"#utility.yul\":20864:20868   */\n      dup3\n        /* \"#utility.yul\":20856:20862   */\n      dup3\n        /* \"#utility.yul\":20836:20869   */\n      tag_475\n      jump\t// in\n    tag_474:\n        /* \"#utility.yul\":20746:20875   */\n      swap2\n      swap1\n      pop\n      jump\t// out\n        /* \"#utility.yul\":20881:20956   */\n    tag_473:\n        /* \"#utility.yul\":20914:20920   */\n      0x00\n        /* \"#utility.yul\":20947:20949   */\n      0x40\n        /* \"#utility.yul\":20941:20950   */\n      mload\n        /* \"#utility.yul\":20931:20950   */\n      swap1\n      pop\n        /* \"#utility.yul\":20881:20956   */\n      swap1\n      jump\t// out\n        /* \"#utility.yul\":20962:21270   */\n    tag_243:\n        /* \"#utility.yul\":21024:21028   */\n      0x00\n        /* \"#utility.yul\":21114:21132   */\n      0xffffffffffffffff\n        /* \"#utility.yul\":21106:21112   */\n      dup3\n        /* \"#utility.yul\":21103:21133   */\n      gt\n        /* \"#utility.yul\":21100:21156   */\n      iszero\n      tag_478\n      jumpi\n        /* \"#utility.yul\":21136:21154   */\n      tag_479\n      tag_480\n      jump\t// in\n    tag_479:\n        /* \"#utility.yul\":21100:21156   */\n    tag_478:\n        /* \"#utility.yul\":21174:21203   */\n      tag_481\n        /* \"#utility.yul\":21196:21202   */\n      dup3\n        /* \"#utility.yul\":21174:21203   */\n      tag_359\n      jump\t// in\n    tag_481:\n        /* \"#utility.yul\":21166:21203   */\n      swap1\n      pop\n        /* \"#utility.yul\":21258:21262   */\n      0x20\n        /* \"#utility.yul\":21252:21256   */\n      dup2\n        /* \"#utility.yul\":21248:21263   */\n      add\n        /* \"#utility.yul\":21240:21263   */\n      swap1\n      pop\n        /* \"#utility.yul\":20962:21270   */\n      swap2\n      swap1\n      pop\n      jump\t// out\n        /* \"#utility.yul\":21276:21428   */\n    tag_332:\n        /* \"#utility.yul\":21363:21367   */\n      0x00\n        /* \"#utility.yul\":21386:21389   */\n      dup2\n        /* \"#utility.yul\":21378:21389   */\n      swap1\n      pop\n        /* \"#utility.yul\":21416:21420   */\n      0x20\n        /* \"#utility.yul\":21411:21414   */\n      dup3\n        /* \"#utility.yul\":21407:21421   */\n      add\n        /* \"#utility.yul\":21399:21421   */\n      swap1\n      pop\n        /* \"#utility.yul\":21276:21428   */\n      swap2\n      swap1\n      pop\n      jump\t// out\n        /* \"#utility.yul\":21434:21568   */\n    tag_328:\n        /* \"#utility.yul\":21521:21527   */\n      0x00\n        /* \"#utility.yul\":21555:21560   */\n      dup2\n        /* \"#utility.yul\":21549:21561   */\n      mload\n        /* \"#utility.yul\":21539:21561   */\n      swap1\n      pop\n        /* \"#utility.yul\":21434:21568   */\n      swap2\n      swap1\n      pop\n      jump\t// out\n        /* \"#utility.yul\":21574:21673   */\n    tag_353:\n        /* \"#utility.yul\":21626:21632   */\n      0x00\n        /* \"#utility.yul\":21660:21665   */\n      dup2\n        /* \"#utility.yul\":21654:21666   */\n      mload\n        /* \"#utility.yul\":21644:21666   */\n      swap1\n      pop\n        /* \"#utility.yul\":21574:21673   */\n      swap2\n      swap1\n      pop\n      jump\t// out\n        /* \"#utility.yul\":21679:21812   */\n    tag_338:\n        /* \"#utility.yul\":21769:21773   */\n      0x00\n        /* \"#utility.yul\":21801:21805   */\n      0x20\n        /* \"#utility.yul\":21796:21799   */\n      dup3\n        /* \"#utility.yul\":21792:21806   */\n      add\n        /* \"#utility.yul\":21784:21806   */\n      swap1\n      pop\n        /* \"#utility.yul\":21679:21812   */\n      swap2\n      swap1\n      pop\n      jump\t// out\n        /* \"#utility.yul\":21818:22022   */\n    tag_330:\n        /* \"#utility.yul\":21937:21948   */\n      0x00\n        /* \"#utility.yul\":21971:21977   */\n      dup3\n        /* \"#utility.yul\":21966:21969   */\n      dup3\n        /* \"#utility.yul\":21959:21978   */\n      mstore\n        /* \"#utility.yul\":22011:22015   */\n      0x20\n        /* \"#utility.yul\":22006:22009   */\n      dup3\n        /* \"#utility.yul\":22002:22016   */\n      add\n        /* \"#utility.yul\":21987:22016   */\n      swap1\n      pop\n        /* \"#utility.yul\":21818:22022   */\n      swap3\n      swap2\n      pop\n      pop\n      jump\t// out\n        /* \"#utility.yul\":22028:22197   */\n    tag_355:\n        /* \"#utility.yul\":22112:22123   */\n      0x00\n        /* \"#utility.yul\":22146:22152   */\n      dup3\n        /* \"#utility.yul\":22141:22144   */\n      dup3\n        /* \"#utility.yul\":22134:22153   */\n      mstore\n        /* \"#utility.yul\":22186:22190   */\n      0x20\n        /* \"#utility.yul\":22181:22184   */\n      dup3\n        /* \"#utility.yul\":22177:22191   */\n      add\n        /* \"#utility.yul\":22162:22191   */\n      swap1\n      pop\n        /* \"#utility.yul\":22028:22197   */\n      swap3\n      swap2\n      pop\n      pop\n      jump\t// out\n        /* \"#utility.yul\":22203:22508   */\n    tag_185:\n        /* \"#utility.yul\":22243:22246   */\n      0x00\n        /* \"#utility.yul\":22262:22282   */\n      tag_489\n        /* \"#utility.yul\":22280:22281   */\n      dup3\n        /* \"#utility.yul\":22262:22282   */\n      tag_422\n      jump\t// in\n    tag_489:\n        /* \"#utility.yul\":22257:22282   */\n      swap2\n      pop\n        /* \"#utility.yul\":22296:22316   */\n      tag_490\n        /* \"#utility.yul\":22314:22315   */\n      dup4\n        /* \"#utility.yul\":22296:22316   */\n      tag_422\n      jump\t// in\n    tag_490:\n        /* \"#utility.yul\":22291:22316   */\n      swap3\n      pop\n        /* \"#utility.yul\":22450:22451   */\n      dup3\n        /* \"#utility.yul\":22382:22448   */\n      0xffffffffffffffffffffffffffffffffffffffffffffffffffffffffffffffff\n        /* \"#utility.yul\":22378:22452   */\n      sub\n        /* \"#utility.yul\":22375:22376   */\n      dup3\n        /* \"#utility.yul\":22372:22453   */\n      gt\n        /* \"#utility.yul\":22369:22476   */\n      iszero\n      tag_491\n      jumpi\n        /* \"#utility.yul\":22456:22474   */\n      tag_492\n      tag_493\n      jump\t// in\n    tag_492:\n        /* \"#utility.yul\":22369:22476   */\n    tag_491:\n        /* \"#utility.yul\":22500:22501   */\n      dup3\n        /* \"#utility.yul\":22497:22498   */\n      dup3\n        /* \"#utility.yul\":22493:22502   */\n      add\n        /* \"#utility.yul\":22486:22502   */\n      swap1\n      pop\n        /* \"#utility.yul\":22203:22508   */\n      swap3\n      swap2\n      pop\n      pop\n      jump\t// out\n        /* \"#utility.yul\":22514:22699   */\n    tag_153:\n        /* \"#utility.yul\":22554:22555   */\n      0x00\n        /* \"#utility.yul\":22571:22591   */\n      tag_495\n        /* \"#utility.yul\":22589:22590   */\n      dup3\n        /* \"#utility.yul\":22571:22591   */\n      tag_422\n      jump\t// in\n    tag_495:\n        /* \"#utility.yul\":22566:22591   */\n      swap2\n      pop\n        /* \"#utility.yul\":22605:22625   */\n      tag_496\n        /* \"#utility.yul\":22623:22624   */\n      dup4\n        /* \"#utility.yul\":22605:22625   */\n      tag_422\n      jump\t// in\n    tag_496:\n        /* \"#utility.yul\":22600:22625   */\n      swap3\n      pop\n        /* \"#utility.yul\":22644:22645   */\n      dup3\n        /* \"#utility.yul\":22634:22669   */\n      tag_497\n      jumpi\n        /* \"#utility.yul\":22649:22667   */\n      tag_498\n      tag_499\n      jump\t// in\n    tag_498:\n        /* \"#utility.yul\":22634:22669   */\n    tag_497:\n        /* \"#utility.yul\":22691:22692   */\n      dup3\n        /* \"#utility.yul\":22688:22689   */\n      dup3\n        /* \"#utility.yul\":22684:22693   */\n      div\n        /* \"#utility.yul\":22679:22693   */\n      swap1\n      pop\n        /* \"#utility.yul\":22514:22699   */\n      swap3\n      swap2\n      pop\n      pop\n      jump\t// out\n        /* \"#utility.yul\":22705:23053   */\n    tag_155:\n        /* \"#utility.yul\":22745:22752   */\n      0x00\n        /* \"#utility.yul\":22768:22788   */\n      tag_501\n        /* \"#utility.yul\":22786:22787   */\n      dup3\n        /* \"#utility.yul\":22768:22788   */\n      tag_422\n      jump\t// in\n    tag_501:\n        /* \"#utility.yul\":22763:22788   */\n      swap2\n      pop\n        /* \"#utility.yul\":22802:22822   */\n      tag_502\n        /* \"#utility.yul\":22820:22821   */\n      dup4\n        /* \"#utility.yul\":22802:22822   */\n      tag_422\n      jump\t// in\n    tag_502:\n        /* \"#utility.yul\":22797:22822   */\n      swap3\n      pop\n        /* \"#utility.yul\":22990:22991   */\n      dup2\n        /* \"#utility.yul\":22922:22988   */\n      0xffffffffffffffffffffffffffffffffffffffffffffffffffffffffffffffff\n        /* \"#utility.yul\":22918:22992   */\n      div\n        /* \"#utility.yul\":22915:22916   */\n      dup4\n        /* \"#utility.yul\":22912:22993   */\n      gt\n        /* \"#utility.yul\":22907:22908   */\n      dup3\n        /* \"#utility.yul\":22900:22909   */\n      iszero\n        /* \"#utility.yul\":22893:22910   */\n      iszero\n        /* \"#utility.yul\":22889:22994   */\n      and\n        /* \"#utility.yul\":22886:23017   */\n      iszero\n      tag_503\n      jumpi\n        /* \"#utility.yul\":22997:23015   */\n      tag_504\n      tag_493\n      jump\t// in\n    tag_504:\n        /* \"#utility.yul\":22886:23017   */\n    tag_503:\n        /* \"#utility.yul\":23045:23046   */\n      dup3\n        /* \"#utility.yul\":23042:23043   */\n      dup3\n        /* \"#utility.yul\":23038:23047   */\n      mul\n        /* \"#utility.yul\":23027:23047   */\n      swap1\n      pop\n        /* \"#utility.yul\":22705:23053   */\n      swap3\n      swap2\n      pop\n      pop\n      jump\t// out\n        /* \"#utility.yul\":23059:23155   */\n    tag_321:\n        /* \"#utility.yul\":23096:23103   */\n      0x00\n        /* \"#utility.yul\":23125:23149   */\n      tag_506\n        /* \"#utility.yul\":23143:23148   */\n      dup3\n        /* \"#utility.yul\":23125:23149   */\n      tag_507\n      jump\t// in\n    tag_506:\n        /* \"#utility.yul\":23114:23149   */\n      swap1\n      pop\n        /* \"#utility.yul\":23059:23155   */\n      swap2\n      swap1\n      pop\n      jump\t// out\n        /* \"#utility.yul\":23161:23251   */\n    tag_342:\n        /* \"#utility.yul\":23195:23202   */\n      0x00\n        /* \"#utility.yul\":23238:23243   */\n      dup2\n        /* \"#utility.yul\":23231:23244   */\n      iszero\n        /* \"#utility.yul\":23224:23245   */\n      iszero\n        /* \"#utility.yul\":23213:23245   */\n      swap1\n      pop\n        /* \"#utility.yul\":23161:23251   */\n      swap2\n      swap1\n      pop\n      jump\t// out\n        /* \"#utility.yul\":23257:23334   */\n    tag_349:\n        /* \"#utility.yul\":23294:23301   */\n      0x00\n        /* \"#utility.yul\":23323:23328   */\n      dup2\n        /* \"#utility.yul\":23312:23328   */\n      swap1\n      pop\n        /* \"#utility.yul\":23257:23334   */\n      swap2\n      swap1\n      pop\n      jump\t// out\n        /* \"#utility.yul\":23340:23466   */\n    tag_507:\n        /* \"#utility.yul\":23377:23384   */\n      0x00\n        /* \"#utility.yul\":23417:23459   */\n      0xffffffffffffffffffffffffffffffffffffffff\n        /* \"#utility.yul\":23410:23415   */\n      dup3\n        /* \"#utility.yul\":23406:23460   */\n      and\n        /* \"#utility.yul\":23395:23460   */\n      swap1\n      pop\n        /* \"#utility.yul\":23340:23466   */\n      swap2\n      swap1\n      pop\n      jump\t// out\n        /* \"#utility.yul\":23472:23549   */\n    tag_422:\n        /* \"#utility.yul\":23509:23516   */\n      0x00\n        /* \"#utility.yul\":23538:23543   */\n      dup2\n        /* \"#utility.yul\":23527:23543   */\n      swap1\n      pop\n        /* \"#utility.yul\":23472:23549   */\n      swap2\n      swap1\n      pop\n      jump\t// out\n        /* \"#utility.yul\":23555:23641   */\n    tag_512:\n        /* \"#utility.yul\":23590:23597   */\n      0x00\n        /* \"#utility.yul\":23630:23634   */\n      0xff\n        /* \"#utility.yul\":23623:23628   */\n      dup3\n        /* \"#utility.yul\":23619:23635   */\n      and\n        /* \"#utility.yul\":23608:23635   */\n      swap1\n      pop\n        /* \"#utility.yul\":23555:23641   */\n      swap2\n      swap1\n      pop\n      jump\t// out\n        /* \"#utility.yul\":23647:23801   */\n    tag_249:\n        /* \"#utility.yul\":23731:23737   */\n      dup3\n        /* \"#utility.yul\":23726:23729   */\n      dup2\n        /* \"#utility.yul\":23721:23724   */\n      dup4\n        /* \"#utility.yul\":23708:23738   */\n      calldatacopy\n        /* \"#utility.yul\":23793:23794   */\n      0x00\n        /* \"#utility.yul\":23784:23790   */\n      dup4\n        /* \"#utility.yul\":23779:23782   */\n      dup4\n        /* \"#utility.yul\":23775:23791   */\n      add\n        /* \"#utility.yul\":23768:23795   */\n      mstore\n        /* \"#utility.yul\":23647:23801   */\n      pop\n      pop\n      pop\n      jump\t// out\n        /* \"#utility.yul\":23807:24114   */\n    tag_357:\n        /* \"#utility.yul\":23875:23876   */\n      0x00\n        /* \"#utility.yul\":23885:23998   */\n    tag_516:\n        /* \"#utility.yul\":23899:23905   */\n      dup4\n        /* \"#utility.yul\":23896:23897   */\n      dup2\n        /* \"#utility.yul\":23893:23906   */\n      lt\n        /* \"#utility.yul\":23885:23998   */\n      iszero\n      tag_518\n      jumpi\n        /* \"#utility.yul\":23984:23985   */\n      dup1\n        /* \"#utility.yul\":23979:23982   */\n      dup3\n        /* \"#utility.yul\":23975:23986   */\n      add\n        /* \"#utility.yul\":23969:23987   */\n      mload\n        /* \"#utility.yul\":23965:23966   */\n      dup2\n        /* \"#utility.yul\":23960:23963   */\n      dup5\n        /* \"#utility.yul\":23956:23967   */\n      add\n        /* \"#utility.yul\":23949:23988   */\n      mstore\n        /* \"#utility.yul\":23921:23923   */\n      0x20\n        /* \"#utility.yul\":23918:23919   */\n      dup2\n        /* \"#utility.yul\":23914:23924   */\n      add\n        /* \"#utility.yul\":23909:23924   */\n      swap1\n      pop\n        /* \"#utility.yul\":23885:23998   */\n      jump(tag_516)\n    tag_518:\n        /* \"#utility.yul\":24016:24022   */\n      dup4\n        /* \"#utility.yul\":24013:24014   */\n      dup2\n        /* \"#utility.yul\":24010:24023   */\n      gt\n        /* \"#utility.yul\":24007:24108   */\n      iszero\n      tag_519\n      jumpi\n        /* \"#utility.yul\":24096:24097   */\n      0x00\n        /* \"#utility.yul\":24087:24093   */\n      dup5\n        /* \"#utility.yul\":24082:24085   */\n      dup5\n        /* \"#utility.yul\":24078:24094   */\n      add\n        /* \"#utility.yul\":24071:24098   */\n      mstore\n        /* \"#utility.yul\":24007:24108   */\n    tag_519:\n        /* \"#utility.yul\":23856:24114   */\n      pop\n        /* \"#utility.yul\":23807:24114   */\n      pop\n      pop\n      pop\n      jump\t// out\n        /* \"#utility.yul\":24120:24440   */\n    tag_197:\n        /* \"#utility.yul\":24164:24170   */\n      0x00\n        /* \"#utility.yul\":24201:24202   */\n      0x02\n        /* \"#utility.yul\":24195:24199   */\n      dup3\n        /* \"#utility.yul\":24191:24203   */\n      div\n        /* \"#utility.yul\":24181:24203   */\n      swap1\n      pop\n        /* \"#utility.yul\":24248:24249   */\n      0x01\n        /* \"#utility.yul\":24242:24246   */\n      dup3\n        /* \"#utility.yul\":24238:24250   */\n      and\n        /* \"#utility.yul\":24269:24287   */\n      dup1\n        /* \"#utility.yul\":24259:24340   */\n      tag_521\n      jumpi\n        /* \"#utility.yul\":24325:24329   */\n      0x7f\n        /* \"#utility.yul\":24317:24323   */\n      dup3\n        /* \"#utility.yul\":24313:24330   */\n      and\n        /* \"#utility.yul\":24303:24330   */\n      swap2\n      pop\n        /* \"#utility.yul\":24259:24340   */\n    tag_521:\n        /* \"#utility.yul\":24387:24389   */\n      0x20\n        /* \"#utility.yul\":24379:24385   */\n      dup3\n        /* \"#utility.yul\":24376:24390   */\n      lt\n        /* \"#utility.yul\":24356:24374   */\n      dup2\n        /* \"#utility.yul\":24353:24391   */\n      eq\n        /* \"#utility.yul\":24350:24434   */\n      iszero\n      tag_522\n      jumpi\n        /* \"#utility.yul\":24406:24424   */\n      tag_523\n      tag_524\n      jump\t// in\n    tag_523:\n        /* \"#utility.yul\":24350:24434   */\n    tag_522:\n        /* \"#utility.yul\":24171:24440   */\n      pop\n        /* \"#utility.yul\":24120:24440   */\n      swap2\n      swap1\n      pop\n      jump\t// out\n        /* \"#utility.yul\":24446:24727   */\n    tag_475:\n        /* \"#utility.yul\":24529:24556   */\n      tag_526\n        /* \"#utility.yul\":24551:24555   */\n      dup3\n        /* \"#utility.yul\":24529:24556   */\n      tag_359\n      jump\t// in\n    tag_526:\n        /* \"#utility.yul\":24521:24527   */\n      dup2\n        /* \"#utility.yul\":24517:24557   */\n      add\n        /* \"#utility.yul\":24659:24665   */\n      dup2\n        /* \"#utility.yul\":24647:24657   */\n      dup2\n        /* \"#utility.yul\":24644:24666   */\n      lt\n        /* \"#utility.yul\":24623:24641   */\n      0xffffffffffffffff\n        /* \"#utility.yul\":24611:24621   */\n      dup3\n        /* \"#utility.yul\":24608:24642   */\n      gt\n        /* \"#utility.yul\":24605:24667   */\n      or\n        /* \"#utility.yul\":24602:24690   */\n      iszero\n      tag_527\n      jumpi\n        /* \"#utility.yul\":24670:24688   */\n      tag_528\n      tag_480\n      jump\t// in\n    tag_528:\n        /* \"#utility.yul\":24602:24690   */\n    tag_527:\n        /* \"#utility.yul\":24710:24720   */\n      dup1\n        /* \"#utility.yul\":24706:24708   */\n      0x40\n        /* \"#utility.yul\":24699:24721   */\n      mstore\n        /* \"#utility.yul\":24489:24727   */\n      pop\n        /* \"#utility.yul\":24446:24727   */\n      pop\n      pop\n      jump\t// out\n        /* \"#utility.yul\":24733:24900   */\n    tag_170:\n        /* \"#utility.yul\":24770:24773   */\n      0x00\n        /* \"#utility.yul\":24793:24815   */\n      tag_530\n        /* \"#utility.yul\":24809:24814   */\n      dup3\n        /* \"#utility.yul\":24793:24815   */\n      tag_512\n      jump\t// in\n    tag_530:\n        /* \"#utility.yul\":24784:24815   */\n      swap2\n      pop\n        /* \"#utility.yul\":24837:24841   */\n      0xff\n        /* \"#utility.yul\":24830:24835   */\n      dup3\n        /* \"#utility.yul\":24827:24842   */\n      eq\n        /* \"#utility.yul\":24824:24865   */\n      iszero\n      tag_531\n      jumpi\n        /* \"#utility.yul\":24845:24863   */\n      tag_532\n      tag_493\n      jump\t// in\n    tag_532:\n        /* \"#utility.yul\":24824:24865   */\n    tag_531:\n        /* \"#utility.yul\":24892:24893   */\n      0x01\n        /* \"#utility.yul\":24885:24890   */\n      dup3\n        /* \"#utility.yul\":24881:24894   */\n      add\n        /* \"#utility.yul\":24874:24894   */\n      swap1\n      pop\n        /* \"#utility.yul\":24733:24900   */\n      swap2\n      swap1\n      pop\n      jump\t// out\n        /* \"#utility.yul\":24906:25086   */\n    tag_493:\n        /* \"#utility.yul\":24954:25031   */\n      0x4e487b7100000000000000000000000000000000000000000000000000000000\n        /* \"#utility.yul\":24951:24952   */\n      0x00\n        /* \"#utility.yul\":24944:25032   */\n      mstore\n        /* \"#utility.yul\":25051:25055   */\n      0x11\n        /* \"#utility.yul\":25048:25049   */\n      0x04\n        /* \"#utility.yul\":25041:25056   */\n      mstore\n        /* \"#utility.yul\":25075:25079   */\n      0x24\n        /* \"#utility.yul\":25072:25073   */\n      0x00\n        /* \"#utility.yul\":25065:25080   */\n      revert\n        /* \"#utility.yul\":25092:25272   */\n    tag_499:\n        /* \"#utility.yul\":25140:25217   */\n      0x4e487b7100000000000000000000000000000000000000000000000000000000\n        /* \"#utility.yul\":25137:25138   */\n      0x00\n        /* \"#utility.yul\":25130:25218   */\n      mstore\n        /* \"#utility.yul\":25237:25241   */\n      0x12\n        /* \"#utility.yul\":25234:25235   */\n      0x04\n        /* \"#utility.yul\":25227:25242   */\n      mstore\n        /* \"#utility.yul\":25261:25265   */\n      0x24\n        /* \"#utility.yul\":25258:25259   */\n      0x00\n        /* \"#utility.yul\":25251:25266   */\n      revert\n        /* \"#utility.yul\":25278:25458   */\n    tag_524:\n        /* \"#utility.yul\":25326:25403   */\n      0x4e487b7100000000000000000000000000000000000000000000000000000000\n        /* \"#utility.yul\":25323:25324   */\n      0x00\n        /* \"#utility.yul\":25316:25404   */\n      mstore\n        /* \"#utility.yul\":25423:25427   */\n      0x22\n        /* \"#utility.yul\":25420:25421   */\n      0x04\n        /* \"#utility.yul\":25413:25428   */\n      mstore\n        /* \"#utility.yul\":25447:25451   */\n      0x24\n        /* \"#utility.yul\":25444:25445   */\n      0x00\n        /* \"#utility.yul\":25437:25452   */\n      revert\n        /* \"#utility.yul\":25464:25644   */\n    tag_162:\n        /* \"#utility.yul\":25512:25589   */\n      0x4e487b7100000000000000000000000000000000000000000000000000000000\n        /* \"#utility.yul\":25509:25510   */\n      0x00\n        /* \"#utility.yul\":25502:25590   */\n      mstore\n        /* \"#utility.yul\":25609:25613   */\n      0x32\n        /* \"#utility.yul\":25606:25607   */\n      0x04\n        /* \"#utility.yul\":25599:25614   */\n      mstore\n        /* \"#utility.yul\":25633:25637   */\n      0x24\n        /* \"#utility.yul\":25630:25631   */\n      0x00\n        /* \"#utility.yul\":25623:25638   */\n      revert\n        /* \"#utility.yul\":25650:25830   */\n    tag_480:\n        /* \"#utility.yul\":25698:25775   */\n      0x4e487b7100000000000000000000000000000000000000000000000000000000\n        /* \"#utility.yul\":25695:25696   */\n      0x00\n        /* \"#utility.yul\":25688:25776   */\n      mstore\n        /* \"#utility.yul\":25795:25799   */\n      0x41\n        /* \"#utility.yul\":25792:25793   */\n      0x04\n        /* \"#utility.yul\":25785:25800   */\n      mstore\n        /* \"#utility.yul\":25819:25823   */\n      0x24\n        /* \"#utility.yul\":25816:25817   */\n      0x00\n        /* \"#utility.yul\":25809:25824   */\n      revert\n        /* \"#utility.yul\":25836:25953   */\n    tag_262:\n        /* \"#utility.yul\":25945:25946   */\n      0x00\n        /* \"#utility.yul\":25942:25943   */\n      dup1\n        /* \"#utility.yul\":25935:25947   */\n      revert\n        /* \"#utility.yul\":25959:26076   */\n    tag_247:\n        /* \"#utility.yul\":26068:26069   */\n      0x00\n        /* \"#utility.yul\":26065:26066   */\n      dup1\n        /* \"#utility.yul\":26058:26070   */\n      revert\n        /* \"#utility.yul\":26082:26199   */\n    tag_304:\n        /* \"#utility.yul\":26191:26192   */\n      0x00\n        /* \"#utility.yul\":26188:26189   */\n      dup1\n        /* \"#utility.yul\":26181:26193   */\n      revert\n        /* \"#utility.yul\":26205:26322   */\n    tag_271:\n        /* \"#utility.yul\":26314:26315   */\n      0x00\n        /* \"#utility.yul\":26311:26312   */\n      dup1\n        /* \"#utility.yul\":26304:26316   */\n      revert\n        /* \"#utility.yul\":26328:26430   */\n    tag_359:\n        /* \"#utility.yul\":26369:26375   */\n      0x00\n        /* \"#utility.yul\":26420:26422   */\n      0x1f\n        /* \"#utility.yul\":26416:26423   */\n      not\n        /* \"#utility.yul\":26411:26413   */\n      0x1f\n        /* \"#utility.yul\":26404:26409   */\n      dup4\n        /* \"#utility.yul\":26400:26414   */\n      add\n        /* \"#utility.yul\":26396:26424   */\n      and\n        /* \"#utility.yul\":26386:26424   */\n      swap1\n      pop\n        /* \"#utility.yul\":26328:26430   */\n      swap2\n      swap1\n      pop\n      jump\t// out\n        /* \"#utility.yul\":26436:26617   */\n    tag_364:\n        /* \"#utility.yul\":26576:26609   */\n      0x526563697069656e7420697320616c7265616479207265676973746572656400\n        /* \"#utility.yul\":26572:26573   */\n      0x00\n        /* \"#utility.yul\":26564:26570   */\n      dup3\n        /* \"#utility.yul\":26560:26574   */\n      add\n        /* \"#utility.yul\":26553:26610   */\n      mstore\n        /* \"#utility.yul\":26436:26617   */\n      pop\n      jump\t// out\n        /* \"#utility.yul\":26623:26798   */\n    tag_369:\n        /* \"#utility.yul\":26763:26790   */\n      0x50726f706f73616c20616c726561647920637265617465642100000000000000\n        /* \"#utility.yul\":26759:26760   */\n      0x00\n        /* \"#utility.yul\":26751:26757   */\n      dup3\n        /* \"#utility.yul\":26747:26761   */\n      add\n        /* \"#utility.yul\":26740:26791   */\n      mstore\n        /* \"#utility.yul\":26623:26798   */\n      pop\n      jump\t// out\n        /* \"#utility.yul\":26804:27029   */\n    tag_374:\n        /* \"#utility.yul\":26944:26978   */\n      0x596f75206172656e277420617574686f72697a6520746f20636f6d70696c6520\n        /* \"#utility.yul\":26940:26941   */\n      0x00\n        /* \"#utility.yul\":26932:26938   */\n      dup3\n        /* \"#utility.yul\":26928:26942   */\n      add\n        /* \"#utility.yul\":26921:26979   */\n      mstore\n        /* \"#utility.yul\":27013:27021   */\n      0x42756e646c650000000000000000000000000000000000000000000000000000\n        /* \"#utility.yul\":27008:27010   */\n      0x20\n        /* \"#utility.yul\":27000:27006   */\n      dup3\n        /* \"#utility.yul\":26996:27011   */\n      add\n        /* \"#utility.yul\":26989:27022   */\n      mstore\n        /* \"#utility.yul\":26804:27029   */\n      pop\n      jump\t// out\n        /* \"#utility.yul\":27035:27213   */\n    tag_379:\n        /* \"#utility.yul\":27175:27205   */\n      0x596f7520616c72656164792073656e74206120726573706f6e73652e00000000\n        /* \"#utility.yul\":27171:27172   */\n      0x00\n        /* \"#utility.yul\":27163:27169   */\n      dup3\n        /* \"#utility.yul\":27159:27173   */\n      add\n        /* \"#utility.yul\":27152:27206   */\n      mstore\n        /* \"#utility.yul\":27035:27213   */\n      pop\n      jump\t// out\n        /* \"#utility.yul\":27219:27390   */\n    tag_384:\n        /* \"#utility.yul\":27359:27382   */\n      0x496e69746961746f722063616e277420766f7465210000000000000000000000\n        /* \"#utility.yul\":27355:27356   */\n      0x00\n        /* \"#utility.yul\":27347:27353   */\n      dup3\n        /* \"#utility.yul\":27343:27357   */\n      add\n        /* \"#utility.yul\":27336:27383   */\n      mstore\n        /* \"#utility.yul\":27219:27390   */\n      pop\n      jump\t// out\n        /* \"#utility.yul\":27396:27576   */\n    tag_389:\n        /* \"#utility.yul\":27536:27568   */\n      0x596f7520617265206e6f74207265676973746572656420746f20766f74650000\n        /* \"#utility.yul\":27532:27533   */\n      0x00\n        /* \"#utility.yul\":27524:27530   */\n      dup3\n        /* \"#utility.yul\":27520:27534   */\n      add\n        /* \"#utility.yul\":27513:27569   */\n      mstore\n        /* \"#utility.yul\":27396:27576   */\n      pop\n      jump\t// out\n        /* \"#utility.yul\":27582:27805   */\n    tag_394:\n        /* \"#utility.yul\":27722:27756   */\n      0x50726f706f73616c206861732072656163686564206974732065787069727920\n        /* \"#utility.yul\":27718:27719   */\n      0x00\n        /* \"#utility.yul\":27710:27716   */\n      dup3\n        /* \"#utility.yul\":27706:27720   */\n      add\n        /* \"#utility.yul\":27699:27757   */\n      mstore\n        /* \"#utility.yul\":27791:27797   */\n      0x6461746500000000000000000000000000000000000000000000000000000000\n        /* \"#utility.yul\":27786:27788   */\n      0x20\n        /* \"#utility.yul\":27778:27784   */\n      dup3\n        /* \"#utility.yul\":27774:27789   */\n      add\n        /* \"#utility.yul\":27767:27798   */\n      mstore\n        /* \"#utility.yul\":27582:27805   */\n      pop\n      jump\t// out\n        /* \"#utility.yul\":27811:28038   */\n    tag_399:\n        /* \"#utility.yul\":27951:27985   */\n      0x4f6e6c7920696e69746961746f722063616e2072656769737465722061207265\n        /* \"#utility.yul\":27947:27948   */\n      0x00\n        /* \"#utility.yul\":27939:27945   */\n      dup3\n        /* \"#utility.yul\":27935:27949   */\n      add\n        /* \"#utility.yul\":27928:27986   */\n      mstore\n        /* \"#utility.yul\":28020:28030   */\n      0x63697069656e742e000000000000000000000000000000000000000000000000\n        /* \"#utility.yul\":28015:28017   */\n      0x20\n        /* \"#utility.yul\":28007:28013   */\n      dup3\n        /* \"#utility.yul\":28003:28018   */\n      add\n        /* \"#utility.yul\":27996:28031   */\n      mstore\n        /* \"#utility.yul\":27811:28038   */\n      pop\n      jump\t// out\n        /* \"#utility.yul\":28044:28226   */\n    tag_404:\n        /* \"#utility.yul\":28184:28218   */\n      0x5665726469637420686173206e6f74206265656e207265616368656420796574\n        /* \"#utility.yul\":28180:28181   */\n      0x00\n        /* \"#utility.yul\":28172:28178   */\n      dup3\n        /* \"#utility.yul\":28168:28182   */\n      add\n        /* \"#utility.yul\":28161:28219   */\n      mstore\n        /* \"#utility.yul\":28044:28226   */\n      pop\n      jump\t// out\n        /* \"#utility.yul\":28232:28400   */\n    tag_409:\n        /* \"#utility.yul\":28372:28392   */\n      0x566f74696e672068617320657870697265640000000000000000000000000000\n        /* \"#utility.yul\":28368:28369   */\n      0x00\n        /* \"#utility.yul\":28360:28366   */\n      dup3\n        /* \"#utility.yul\":28356:28370   */\n      add\n        /* \"#utility.yul\":28349:28393   */\n      mstore\n        /* \"#utility.yul\":28232:28400   */\n      pop\n      jump\t// out\n        /* \"#utility.yul\":28406:28630   */\n    tag_414:\n        /* \"#utility.yul\":28546:28580   */\n      0x436f6e73656e7375732068617320616c7265616479206265656e2063616c6375\n        /* \"#utility.yul\":28542:28543   */\n      0x00\n        /* \"#utility.yul\":28534:28540   */\n      dup3\n        /* \"#utility.yul\":28530:28544   */\n      add\n        /* \"#utility.yul\":28523:28581   */\n      mstore\n        /* \"#utility.yul\":28615:28622   */\n      0x6c61746564000000000000000000000000000000000000000000000000000000\n        /* \"#utility.yul\":28610:28612   */\n      0x20\n        /* \"#utility.yul\":28602:28608   */\n      dup3\n        /* \"#utility.yul\":28598:28613   */\n      add\n        /* \"#utility.yul\":28591:28623   */\n      mstore\n        /* \"#utility.yul\":28406:28630   */\n      pop\n      jump\t// out\n        /* \"#utility.yul\":28636:28758   */\n    tag_253:\n        /* \"#utility.yul\":28709:28733   */\n      tag_555\n        /* \"#utility.yul\":28727:28732   */\n      dup2\n        /* \"#utility.yul\":28709:28733   */\n      tag_321\n      jump\t// in\n    tag_555:\n        /* \"#utility.yul\":28702:28707   */\n      dup2\n        /* \"#utility.yul\":28699:28734   */\n      eq\n        /* \"#utility.yul\":28689:28752   */\n      tag_556\n      jumpi\n        /* \"#utility.yul\":28748:28749   */\n      0x00\n        /* \"#utility.yul\":28745:28746   */\n      dup1\n        /* \"#utility.yul\":28738:28750   */\n      revert\n        /* \"#utility.yul\":28689:28752   */\n    tag_556:\n        /* \"#utility.yul\":28636:28758   */\n      pop\n      jump\t// out\n        /* \"#utility.yul\":28764:28886   */\n    tag_257:\n        /* \"#utility.yul\":28837:28861   */\n      tag_558\n        /* \"#utility.yul\":28855:28860   */\n      dup2\n        /* \"#utility.yul\":28837:28861   */\n      tag_349\n      jump\t// in\n    tag_558:\n        /* \"#utility.yul\":28830:28835   */\n      dup2\n        /* \"#utility.yul\":28827:28862   */\n      eq\n        /* \"#utility.yul\":28817:28880   */\n      tag_559\n      jumpi\n        /* \"#utility.yul\":28876:28877   */\n      0x00\n        /* \"#utility.yul\":28873:28874   */\n      dup1\n        /* \"#utility.yul\":28866:28878   */\n      revert\n        /* \"#utility.yul\":28817:28880   */\n    tag_559:\n        /* \"#utility.yul\":28764:28886   */\n      pop\n      jump\t// out\n        /* \"#utility.yul\":28892:29014   */\n    tag_267:\n        /* \"#utility.yul\":28965:28989   */\n      tag_561\n        /* \"#utility.yul\":28983:28988   */\n      dup2\n        /* \"#utility.yul\":28965:28989   */\n      tag_422\n      jump\t// in\n    tag_561:\n        /* \"#utility.yul\":28958:28963   */\n      dup2\n        /* \"#utility.yul\":28955:28990   */\n      eq\n        /* \"#utility.yul\":28945:29008   */\n      tag_562\n      jumpi\n        /* \"#utility.yul\":29004:29005   */\n      0x00\n        /* \"#utility.yul\":29001:29002   */\n      dup1\n        /* \"#utility.yul\":28994:29006   */\n      revert\n        /* \"#utility.yul\":28945:29008   */\n    tag_562:\n        /* \"#utility.yul\":28892:29014   */\n      pop\n      jump\t// out\n\n    auxdata: 0xa264697066735822122045f28f43b334e67fa0ab63b8ea94cbed2035e72493c78d7761f9f48fa02d4a8064736f6c63430008070033\n}\n",
				"bytecode": {
					"linkReferences": {},
					"object": "608060405234801561001057600080fd5b50612f82806100206000396000f3fe608060405234801561001057600080fd5b50600436106101425760003560e01c8063823a6366116100b8578063a88361c61161007c578063a88361c614610429578063d443560a14610445578063d468f98314610475578063e463eaee14610491578063e5d009bf146104c1578063f20ca12c146104f157610142565b8063823a63661461034a5780638acc0d101461037a57806397299e9914610396578063a4a8f426146103c7578063a784ef74146103f757610142565b80635273bc481161010a5780635273bc481461023e57806356c583d81461026e5780637a099c6a1461029e5780637d6c570a146102ce5780637ff4c389146102ea57806381d0e37b1461031a57610142565b806313191ade1461014757806327f0ae921461017757806333dfd126146101aa57806338c20a9e146101dc5780634fd3b4451461020c575b600080fd5b610161600480360381019061015c9190612125565b610521565b60405161016e91906128c7565b60405180910390f35b610191600480360381019061018c9190612125565b610539565b6040516101a194939291906126ae565b60405180910390f35b6101c460048036038101906101bf91906121d2565b6106de565b6040516101d393929190612677565b60405180910390f35b6101f660048036038101906101f19190612125565b610767565b6040516102039190612625565b60405180910390f35b61022660048036038101906102219190612192565b610787565b60405161023593929190612640565b60405180910390f35b61025860048036038101906102539190612125565b610804565b6040516102659190612625565b60405180910390f35b61028860048036038101906102839190612125565b61082e565b60405161029591906128c7565b60405180910390f35b6102b860048036038101906102b39190612125565b610846565b6040516102c591906128c7565b60405180910390f35b6102e860048036038101906102e39190612125565b61085e565b005b61030460048036038101906102ff9190612192565b610db7565b604051610311919061260a565b60405180910390f35b610334600480360381019061032f9190612125565b610e05565b60405161034191906128c7565b60405180910390f35b610364600480360381019061035f9190612125565b610e1d565b6040516103719190612625565b60405180910390f35b610394600480360381019061038f91906122e2565b610e3d565b005b6103b060048036038101906103ab9190612125565b6116f9565b6040516103be929190612715565b60405180910390f35b6103e160048036038101906103dc9190612125565b6117b9565b6040516103ee9190612745565b60405180910390f35b610411600480360381019061040c9190612152565b611859565b60405161042093929190612640565b60405180910390f35b610443600480360381019061043e9190612239565b6118ca565b005b61045f600480360381019061045a9190612125565b611b11565b60405161046c919061260a565b60405180910390f35b61048f600480360381019061048a91906120e5565b611b44565b005b6104ab60048036038101906104a69190612125565b611f4b565b6040516104b891906128c7565b60405180910390f35b6104db60048036038101906104d69190612125565b611f63565b6040516104e891906126fa565b60405180910390f35b61050b60048036038101906105069190612125565b611f7b565b60405161051891906126fa565b60405180910390f35b60036020528060005260406000206000915090505481565b600080600060606004600086815260200190815260200160002054421015610596576040517f08c379a000000000000000000000000000000000000000000000000000000000815260040161058d90612867565b60405180910390fd5b6000600c6000878152602001908152602001600020805480602002602001604051908101604052809291908181526020016000905b82821015610685578382906000526020600020016040518060600160405290816000820160009054906101000a900460ff161515151581526020016000820160019054906101000a900460ff161515151581526020016000820160029054906101000a900473ffffffffffffffffffffffffffffffffffffffff1673ffffffffffffffffffffffffffffffffffffffff1673ffffffffffffffffffffffffffffffffffffffff1681525050815260200190600101906105cb565b50505050905060006009600088815260200190815260200160002060009054906101000a900460ff1690506000600260008981526020019081526020016000205490508188828596509650965096505050509193509193565b60008060008060019050600060019050600060019050600760008b815260200190815260200160002054891461071357600092505b600560008b815260200190815260200160002054871461073257600091505b87600360008c8152602001908152602001600020541461075157600090505b8282829550955095505050509450945094915050565b60096020528060005260406000206000915054906101000a900460ff1681565b600c60205281600052604060002081815481106107a357600080fd5b90600052602060002001600091509150508060000160009054906101000a900460ff16908060000160019054906101000a900460ff16908060000160029054906101000a900473ffffffffffffffffffffffffffffffffffffffff16905083565b6000600a600083815260200190815260200160002060009054906101000a900460ff169050919050565b60046020528060005260406000206000915090505481565b60076020528060005260406000206000915090505481565b60046000828152602001908152602001600020544210156108b4576040517f08c379a00000000000000000000000000000000000000000000000000000000081526004016108ab90612867565b60405180910390fd5b60001515600a600083815260200190815260200160002060009054906101000a900460ff1615151461091b576040517f08c379a0000000000000000000000000000000000000000000000000000000008152600401610912906128a7565b60405180910390fd5b60008082815260200190815260200160002060009054906101000a900473ffffffffffffffffffffffffffffffffffffffff1673ffffffffffffffffffffffffffffffffffffffff163373ffffffffffffffffffffffffffffffffffffffff161480610a275750600073ffffffffffffffffffffffffffffffffffffffff16600b600083815260200190815260200160002060003373ffffffffffffffffffffffffffffffffffffffff1673ffffffffffffffffffffffffffffffffffffffff16815260200190815260200160002060000160029054906101000a900473ffffffffffffffffffffffffffffffffffffffff1673ffffffffffffffffffffffffffffffffffffffff1614155b610a66576040517f08c379a0000000000000000000000000000000000000000000000000000000008152600401610a5d906127a7565b60405180910390fd5b60006064600d6000848152602001908152602001600020805490506006600085815260200190815260200160002054610a9f91906129e3565b610aa99190612a14565b905060076000838152602001908152602001600020548110610af25760016009600084815260200190815260200160002060006101000a81548160ff0219169083151502179055505b60005b600d6000848152602001908152602001600020805490508160ff161015610d865760001515600b60008581526020019081526020016000206000600d60008781526020019081526020016000208460ff1681548110610b5757610b56612c29565b5b9060005260206000200160009054906101000a900473ffffffffffffffffffffffffffffffffffffffff1673ffffffffffffffffffffffffffffffffffffffff1673ffffffffffffffffffffffffffffffffffffffff16815260200190815260200160002060000160009054906101000a900460ff1615151415610d7357600c6000848152602001908152602001600020600b60008581526020019081526020016000206000600d60008781526020019081526020016000208460ff1681548110610c2557610c24612c29565b5b9060005260206000200160009054906101000a900473ffffffffffffffffffffffffffffffffffffffff1673ffffffffffffffffffffffffffffffffffffffff1673ffffffffffffffffffffffffffffffffffffffff168152602001908152602001600020908060018154018082558091505060019003906000526020600020016000909190919091506000820160009054906101000a900460ff168160000160006101000a81548160ff0219169083151502179055506000820160019054906101000a900460ff168160000160016101000a81548160ff0219169083151502179055506000820160029054906101000a900473ffffffffffffffffffffffffffffffffffffffff168160000160026101000a81548173ffffffffffffffffffffffffffffffffffffffff021916908373ffffffffffffffffffffffffffffffffffffffff16021790555050505b8080610d7e90612b72565b915050610af5565b506001600a600084815260200190815260200160002060006101000a81548160ff0219169083151502179055505050565b600d6020528160005260406000208181548110610dd357600080fd5b906000526020600020016000915091509054906101000a900473ffffffffffffffffffffffffffffffffffffffff1681565b60026020528060005260406000206000915090505481565b600a6020528060005260406000206000915054906101000a900460ff1681565b60046000828152602001908152602001600020544210610e92576040517f08c379a0000000000000000000000000000000000000000000000000000000008152600401610e8990612887565b60405180910390fd5b600073ffffffffffffffffffffffffffffffffffffffff16600b600083815260200190815260200160002060003373ffffffffffffffffffffffffffffffffffffffff1673ffffffffffffffffffffffffffffffffffffffff16815260200190815260200160002060000160029054906101000a900473ffffffffffffffffffffffffffffffffffffffff1673ffffffffffffffffffffffffffffffffffffffff161415610f75576040517f08c379a0000000000000000000000000000000000000000000000000000000008152600401610f6c90612807565b60405180910390fd5b600b600082815260200190815260200160002060003373ffffffffffffffffffffffffffffffffffffffff1673ffffffffffffffffffffffffffffffffffffffff16815260200190815260200160002060000160009054906101000a900460ff1615611016576040517f08c379a000000000000000000000000000000000000000000000000000000000815260040161100d906127c7565b60405180910390fd5b6040518060400160405280600981526020017f6920617070726f7665000000000000000000000000000000000000000000000081525080519060200120828051906020012014156112df576001600b600083815260200190815260200160002060003373ffffffffffffffffffffffffffffffffffffffff1673ffffffffffffffffffffffffffffffffffffffff16815260200190815260200160002060000160006101000a81548160ff0219169083151502179055506001600b600083815260200190815260200160002060003373ffffffffffffffffffffffffffffffffffffffff1673ffffffffffffffffffffffffffffffffffffffff16815260200190815260200160002060000160016101000a81548160ff021916908315150217905550600160066000838152602001908152602001600020600082825461115d919061298d565b925050819055506001600260008381526020019081526020016000206000828254611188919061298d565b92505081905550600c6000828152602001908152602001600020600b600083815260200190815260200160002060003373ffffffffffffffffffffffffffffffffffffffff1673ffffffffffffffffffffffffffffffffffffffff168152602001908152602001600020908060018154018082558091505060019003906000526020600020016000909190919091506000820160009054906101000a900460ff168160000160006101000a81548160ff0219169083151502179055506000820160019054906101000a900460ff168160000160016101000a81548160ff0219169083151502179055506000820160029054906101000a900473ffffffffffffffffffffffffffffffffffffffff168160000160026101000a81548173ffffffffffffffffffffffffffffffffffffffff021916908373ffffffffffffffffffffffffffffffffffffffff16021790555050506116f5565b6040518060400160405280600c81526020017f6920646973617070726f766500000000000000000000000000000000000000008152508051906020012082805190602001201415611511576001600b600083815260200190815260200160002060003373ffffffffffffffffffffffffffffffffffffffff1673ffffffffffffffffffffffffffffffffffffffff16815260200190815260200160002060000160006101000a81548160ff02191690831515021790555060016002600083815260200190815260200160002060008282546113ba919061298d565b92505081905550600c6000828152602001908152602001600020600b600083815260200190815260200160002060003373ffffffffffffffffffffffffffffffffffffffff1673ffffffffffffffffffffffffffffffffffffffff168152602001908152602001600020908060018154018082558091505060019003906000526020600020016000909190919091506000820160009054906101000a900460ff168160000160006101000a81548160ff0219169083151502179055506000820160019054906101000a900460ff168160000160016101000a81548160ff0219169083151502179055506000820160029054906101000a900473ffffffffffffffffffffffffffffffffffffffff168160000160026101000a81548173ffffffffffffffffffffffffffffffffffffffff021916908373ffffffffffffffffffffffffffffffffffffffff16021790555050506116f4565b6001600b600083815260200190815260200160002060003373ffffffffffffffffffffffffffffffffffffffff1673ffffffffffffffffffffffffffffffffffffffff16815260200190815260200160002060000160006101000a81548160ff02191690831515021790555060016002600083815260200190815260200160002060008282546115a1919061298d565b92505081905550600c6000828152602001908152602001600020600b600083815260200190815260200160002060003373ffffffffffffffffffffffffffffffffffffffff1673ffffffffffffffffffffffffffffffffffffffff168152602001908152602001600020908060018154018082558091505060019003906000526020600020016000909190919091506000820160009054906101000a900460ff168160000160006101000a81548160ff0219169083151502179055506000820160019054906101000a900460ff168160000160016101000a81548160ff0219169083151502179055506000820160029054906101000a900473ffffffffffffffffffffffffffffffffffffffff168160000160026101000a81548173ffffffffffffffffffffffffffffffffffffffff021916908373ffffffffffffffffffffffffffffffffffffffff16021790555050505b5b5050565b6000606060016000848152602001908152602001600020546008600085815260200190815260200160002080805461173090612b0f565b80601f016020809104026020016040519081016040528092919081815260200182805461175c90612b0f565b80156117a95780601f1061177e576101008083540402835291602001916117a9565b820191906000526020600020905b81548152906001019060200180831161178c57829003601f168201915b5050505050905091509150915091565b600860205280600052604060002060009150905080546117d890612b0f565b80601f016020809104026020016040519081016040528092919081815260200182805461180490612b0f565b80156118515780601f1061182657610100808354040283529160200191611851565b820191906000526020600020905b81548152906001019060200180831161183457829003601f168201915b505050505081565b600b602052816000526040600020602052806000526040600020600091509150508060000160009054906101000a900460ff16908060000160019054906101000a900460ff16908060000160029054906101000a900473ffffffffffffffffffffffffffffffffffffffff16905083565b600073ffffffffffffffffffffffffffffffffffffffff1660008088815260200190815260200160002060009054906101000a900473ffffffffffffffffffffffffffffffffffffffff1673ffffffffffffffffffffffffffffffffffffffff161461196b576040517f08c379a000000000000000000000000000000000000000000000000000000000815260040161196290612787565b60405180910390fd5b600060026000888152602001908152602001600020819055508442611990919061298d565b60046000888152602001908152602001600020819055508560016000838152602001908152602001600020819055506000600a600088815260200190815260200160002060006101000a81548160ff02191690831515021790555083600760008881526020019081526020016000208190555083600760008381526020019081526020016000208190555060006009600088815260200190815260200160002060006101000a81548160ff02191690831515021790555084600360008381526020019081526020016000208190555082600560008381526020019081526020016000208190555081600860008381526020019081526020016000209080519060200190611a9e929190611f93565b50600060066000888152602001908152602001600020819055503360008088815260200190815260200160002060006101000a81548173ffffffffffffffffffffffffffffffffffffffff021916908373ffffffffffffffffffffffffffffffffffffffff160217905550505050505050565b60006020528060005260406000206000915054906101000a900473ffffffffffffffffffffffffffffffffffffffff1681565b60008082815260200190815260200160002060009054906101000a900473ffffffffffffffffffffffffffffffffffffffff1673ffffffffffffffffffffffffffffffffffffffff163373ffffffffffffffffffffffffffffffffffffffff1614611be4576040517f08c379a0000000000000000000000000000000000000000000000000000000008152600401611bdb90612847565b60405180910390fd5b60008082815260200190815260200160002060009054906101000a900473ffffffffffffffffffffffffffffffffffffffff1673ffffffffffffffffffffffffffffffffffffffff168273ffffffffffffffffffffffffffffffffffffffff161415611c85576040517f08c379a0000000000000000000000000000000000000000000000000000000008152600401611c7c906127e7565b60405180910390fd5b600073ffffffffffffffffffffffffffffffffffffffff16600b600083815260200190815260200160002060008473ffffffffffffffffffffffffffffffffffffffff1673ffffffffffffffffffffffffffffffffffffffff16815260200190815260200160002060000160029054906101000a900473ffffffffffffffffffffffffffffffffffffffff1673ffffffffffffffffffffffffffffffffffffffff1614611d67576040517f08c379a0000000000000000000000000000000000000000000000000000000008152600401611d5e90612767565b60405180910390fd5b60046000828152602001908152602001600020544210611dbc576040517f08c379a0000000000000000000000000000000000000000000000000000000008152600401611db390612827565b60405180910390fd5b600060405180606001604052806000151581526020016000151581526020018473ffffffffffffffffffffffffffffffffffffffff16815250905080600b600084815260200190815260200160002060008573ffffffffffffffffffffffffffffffffffffffff1673ffffffffffffffffffffffffffffffffffffffff16815260200190815260200160002060008201518160000160006101000a81548160ff02191690831515021790555060208201518160000160016101000a81548160ff02191690831515021790555060408201518160000160026101000a81548173ffffffffffffffffffffffffffffffffffffffff021916908373ffffffffffffffffffffffffffffffffffffffff160217905550905050600d6000838152602001908152602001600020839080600181540180825580915050600190039060005260206000200160009091909190916101000a81548173ffffffffffffffffffffffffffffffffffffffff021916908373ffffffffffffffffffffffffffffffffffffffff160217905550505050565b60066020528060005260406000206000915090505481565b60016020528060005260406000206000915090505481565b60056020528060005260406000206000915090505481565b828054611f9f90612b0f565b90600052602060002090601f016020900481019282611fc15760008555612008565b82601f10611fda57805160ff1916838001178555612008565b82800160010185558215612008579182015b82811115612007578251825591602001919060010190611fec565b5b5090506120159190612019565b5090565b5b8082111561203257600081600090555060010161201a565b5090565b600061204961204484612907565b6128e2565b90508281526020810184848401111561206557612064612c8c565b5b612070848285612acd565b509392505050565b60008135905061208781612f07565b92915050565b60008135905061209c81612f1e565b92915050565b600082601f8301126120b7576120b6612c87565b5b81356120c7848260208601612036565b91505092915050565b6000813590506120df81612f35565b92915050565b600080604083850312156120fc576120fb612c96565b5b600061210a85828601612078565b925050602061211b8582860161208d565b9150509250929050565b60006020828403121561213b5761213a612c96565b5b60006121498482850161208d565b91505092915050565b6000806040838503121561216957612168612c96565b5b60006121778582860161208d565b925050602061218885828601612078565b9150509250929050565b600080604083850312156121a9576121a8612c96565b5b60006121b78582860161208d565b92505060206121c8858286016120d0565b9150509250929050565b600080600080608085870312156121ec576121eb612c96565b5b60006121fa8782880161208d565b945050602061220b878288016120d0565b935050604061221c878288016120d0565b925050606061222d8782880161208d565b91505092959194509250565b60008060008060008060c0878903121561225657612255612c96565b5b600061226489828a0161208d565b965050602061227589828a016120d0565b955050604061228689828a016120d0565b945050606061229789828a0161208d565b935050608087013567ffffffffffffffff8111156122b8576122b7612c91565b5b6122c489828a016120a2565b92505060a06122d589828a0161208d565b9150509295509295509295565b600080604083850312156122f9576122f8612c96565b5b600083013567ffffffffffffffff81111561231757612316612c91565b5b612323858286016120a2565b92505060206123348582860161208d565b9150509250929050565b600061234a83836125b9565b60608301905092915050565b61235f81612a6e565b82525050565b61236e81612a6e565b82525050565b600061237f82612948565b612389818561296b565b935061239483612938565b8060005b838110156123c55781516123ac888261233e565b97506123b78361295e565b925050600181019050612398565b5085935050505092915050565b6123db81612a80565b82525050565b6123ea81612a80565b82525050565b6123f981612a8c565b82525050565b600061240a82612953565b612414818561297c565b9350612424818560208601612adc565b61242d81612c9b565b840191505092915050565b6000612445601f8361297c565b915061245082612cac565b602082019050919050565b600061246860198361297c565b915061247382612cd5565b602082019050919050565b600061248b60268361297c565b915061249682612cfe565b604082019050919050565b60006124ae601c8361297c565b91506124b982612d4d565b602082019050919050565b60006124d160158361297c565b91506124dc82612d76565b602082019050919050565b60006124f4601e8361297c565b91506124ff82612d9f565b602082019050919050565b600061251760248361297c565b915061252282612dc8565b604082019050919050565b600061253a60288361297c565b915061254582612e17565b604082019050919050565b600061255d60208361297c565b915061256882612e66565b602082019050919050565b600061258060128361297c565b915061258b82612e8f565b602082019050919050565b60006125a360258361297c565b91506125ae82612eb8565b604082019050919050565b6060820160008201516125cf60008501826123d2565b5060208201516125e260208501826123d2565b5060408201516125f56040850182612356565b50505050565b61260481612ab6565b82525050565b600060208201905061261f6000830184612365565b92915050565b600060208201905061263a60008301846123e1565b92915050565b600060608201905061265560008301866123e1565b61266260208301856123e1565b61266f6040830184612365565b949350505050565b600060608201905061268c60008301866123e1565b61269960208301856123e1565b6126a660408301846123e1565b949350505050565b60006080820190506126c360008301876123e1565b6126d060208301866123f0565b6126dd60408301856125fb565b81810360608301526126ef8184612374565b905095945050505050565b600060208201905061270f60008301846123f0565b92915050565b600060408201905061272a60008301856123f0565b818103602083015261273c81846123ff565b90509392505050565b6000602082019050818103600083015261275f81846123ff565b905092915050565b6000602082019050818103600083015261278081612438565b9050919050565b600060208201905081810360008301526127a08161245b565b9050919050565b600060208201905081810360008301526127c08161247e565b9050919050565b600060208201905081810360008301526127e0816124a1565b9050919050565b60006020820190508181036000830152612800816124c4565b9050919050565b60006020820190508181036000830152612820816124e7565b9050919050565b600060208201905081810360008301526128408161250a565b9050919050565b600060208201905081810360008301526128608161252d565b9050919050565b6000602082019050818103600083015261288081612550565b9050919050565b600060208201905081810360008301526128a081612573565b9050919050565b600060208201905081810360008301526128c081612596565b9050919050565b60006020820190506128dc60008301846125fb565b92915050565b60006128ec6128fd565b90506128f88282612b41565b919050565b6000604051905090565b600067ffffffffffffffff82111561292257612921612c58565b5b61292b82612c9b565b9050602081019050919050565b6000819050602082019050919050565b600081519050919050565b600081519050919050565b6000602082019050919050565b600082825260208201905092915050565b600082825260208201905092915050565b600061299882612ab6565b91506129a383612ab6565b9250827fffffffffffffffffffffffffffffffffffffffffffffffffffffffffffffffff038211156129d8576129d7612b9c565b5b828201905092915050565b60006129ee82612ab6565b91506129f983612ab6565b925082612a0957612a08612bcb565b5b828204905092915050565b6000612a1f82612ab6565b9150612a2a83612ab6565b9250817fffffffffffffffffffffffffffffffffffffffffffffffffffffffffffffffff0483118215151615612a6357612a62612b9c565b5b828202905092915050565b6000612a7982612a96565b9050919050565b60008115159050919050565b6000819050919050565b600073ffffffffffffffffffffffffffffffffffffffff82169050919050565b6000819050919050565b600060ff82169050919050565b82818337600083830152505050565b60005b83811015612afa578082015181840152602081019050612adf565b83811115612b09576000848401525b50505050565b60006002820490506001821680612b2757607f821691505b60208210811415612b3b57612b3a612bfa565b5b50919050565b612b4a82612c9b565b810181811067ffffffffffffffff82111715612b6957612b68612c58565b5b80604052505050565b6000612b7d82612ac0565b915060ff821415612b9157612b90612b9c565b5b600182019050919050565b7f4e487b7100000000000000000000000000000000000000000000000000000000600052601160045260246000fd5b7f4e487b7100000000000000000000000000000000000000000000000000000000600052601260045260246000fd5b7f4e487b7100000000000000000000000000000000000000000000000000000000600052602260045260246000fd5b7f4e487b7100000000000000000000000000000000000000000000000000000000600052603260045260246000fd5b7f4e487b7100000000000000000000000000000000000000000000000000000000600052604160045260246000fd5b600080fd5b600080fd5b600080fd5b600080fd5b6000601f19601f8301169050919050565b7f526563697069656e7420697320616c7265616479207265676973746572656400600082015250565b7f50726f706f73616c20616c726561647920637265617465642100000000000000600082015250565b7f596f75206172656e277420617574686f72697a6520746f20636f6d70696c652060008201527f42756e646c650000000000000000000000000000000000000000000000000000602082015250565b7f596f7520616c72656164792073656e74206120726573706f6e73652e00000000600082015250565b7f496e69746961746f722063616e277420766f7465210000000000000000000000600082015250565b7f596f7520617265206e6f74207265676973746572656420746f20766f74650000600082015250565b7f50726f706f73616c20686173207265616368656420697473206578706972792060008201527f6461746500000000000000000000000000000000000000000000000000000000602082015250565b7f4f6e6c7920696e69746961746f722063616e207265676973746572206120726560008201527f63697069656e742e000000000000000000000000000000000000000000000000602082015250565b7f5665726469637420686173206e6f74206265656e207265616368656420796574600082015250565b7f566f74696e672068617320657870697265640000000000000000000000000000600082015250565b7f436f6e73656e7375732068617320616c7265616479206265656e2063616c637560008201527f6c61746564000000000000000000000000000000000000000000000000000000602082015250565b612f1081612a6e565b8114612f1b57600080fd5b50565b612f2781612a8c565b8114612f3257600080fd5b50565b612f3e81612ab6565b8114612f4957600080fd5b5056fea264697066735822122045f28f43b334e67fa0ab63b8ea94cbed2035e72493c78d7761f9f48fa02d4a8064736f6c63430008070033",
					"opcodes": "PUSH1 0x80 PUSH1 0x40 MSTORE CALLVALUE DUP1 ISZERO PUSH2 0x10 JUMPI PUSH1 0x0 DUP1 REVERT JUMPDEST POP PUSH2 0x2F82 DUP1 PUSH2 0x20 PUSH1 0x0 CODECOPY PUSH1 0x0 RETURN INVALID PUSH1 0x80 PUSH1 0x40 MSTORE CALLVALUE DUP1 ISZERO PUSH2 0x10 JUMPI PUSH1 0x0 DUP1 REVERT JUMPDEST POP PUSH1 0x4 CALLDATASIZE LT PUSH2 0x142 JUMPI PUSH1 0x0 CALLDATALOAD PUSH1 0xE0 SHR DUP1 PUSH4 0x823A6366 GT PUSH2 0xB8 JUMPI DUP1 PUSH4 0xA88361C6 GT PUSH2 0x7C JUMPI DUP1 PUSH4 0xA88361C6 EQ PUSH2 0x429 JUMPI DUP1 PUSH4 0xD443560A EQ PUSH2 0x445 JUMPI DUP1 PUSH4 0xD468F983 EQ PUSH2 0x475 JUMPI DUP1 PUSH4 0xE463EAEE EQ PUSH2 0x491 JUMPI DUP1 PUSH4 0xE5D009BF EQ PUSH2 0x4C1 JUMPI DUP1 PUSH4 0xF20CA12C EQ PUSH2 0x4F1 JUMPI PUSH2 0x142 JUMP JUMPDEST DUP1 PUSH4 0x823A6366 EQ PUSH2 0x34A JUMPI DUP1 PUSH4 0x8ACC0D10 EQ PUSH2 0x37A JUMPI DUP1 PUSH4 0x97299E99 EQ PUSH2 0x396 JUMPI DUP1 PUSH4 0xA4A8F426 EQ PUSH2 0x3C7 JUMPI DUP1 PUSH4 0xA784EF74 EQ PUSH2 0x3F7 JUMPI PUSH2 0x142 JUMP JUMPDEST DUP1 PUSH4 0x5273BC48 GT PUSH2 0x10A JUMPI DUP1 PUSH4 0x5273BC48 EQ PUSH2 0x23E JUMPI DUP1 PUSH4 0x56C583D8 EQ PUSH2 0x26E JUMPI DUP1 PUSH4 0x7A099C6A EQ PUSH2 0x29E JUMPI DUP1 PUSH4 0x7D6C570A EQ PUSH2 0x2CE JUMPI DUP1 PUSH4 0x7FF4C389 EQ PUSH2 0x2EA JUMPI DUP1 PUSH4 0x81D0E37B EQ PUSH2 0x31A JUMPI PUSH2 0x142 JUMP JUMPDEST DUP1 PUSH4 0x13191ADE EQ PUSH2 0x147 JUMPI DUP1 PUSH4 0x27F0AE92 EQ PUSH2 0x177 JUMPI DUP1 PUSH4 0x33DFD126 EQ PUSH2 0x1AA JUMPI DUP1 PUSH4 0x38C20A9E EQ PUSH2 0x1DC JUMPI DUP1 PUSH4 0x4FD3B445 EQ PUSH2 0x20C JUMPI JUMPDEST PUSH1 0x0 DUP1 REVERT JUMPDEST PUSH2 0x161 PUSH1 0x4 DUP1 CALLDATASIZE SUB DUP2 ADD SWAP1 PUSH2 0x15C SWAP2 SWAP1 PUSH2 0x2125 JUMP JUMPDEST PUSH2 0x521 JUMP JUMPDEST PUSH1 0x40 MLOAD PUSH2 0x16E SWAP2 SWAP1 PUSH2 0x28C7 JUMP JUMPDEST PUSH1 0x40 MLOAD DUP1 SWAP2 SUB SWAP1 RETURN JUMPDEST PUSH2 0x191 PUSH1 0x4 DUP1 CALLDATASIZE SUB DUP2 ADD SWAP1 PUSH2 0x18C SWAP2 SWAP1 PUSH2 0x2125 JUMP JUMPDEST PUSH2 0x539 JUMP JUMPDEST PUSH1 0x40 MLOAD PUSH2 0x1A1 SWAP5 SWAP4 SWAP3 SWAP2 SWAP1 PUSH2 0x26AE JUMP JUMPDEST PUSH1 0x40 MLOAD DUP1 SWAP2 SUB SWAP1 RETURN JUMPDEST PUSH2 0x1C4 PUSH1 0x4 DUP1 CALLDATASIZE SUB DUP2 ADD SWAP1 PUSH2 0x1BF SWAP2 SWAP1 PUSH2 0x21D2 JUMP JUMPDEST PUSH2 0x6DE JUMP JUMPDEST PUSH1 0x40 MLOAD PUSH2 0x1D3 SWAP4 SWAP3 SWAP2 SWAP1 PUSH2 0x2677 JUMP JUMPDEST PUSH1 0x40 MLOAD DUP1 SWAP2 SUB SWAP1 RETURN JUMPDEST PUSH2 0x1F6 PUSH1 0x4 DUP1 CALLDATASIZE SUB DUP2 ADD SWAP1 PUSH2 0x1F1 SWAP2 SWAP1 PUSH2 0x2125 JUMP JUMPDEST PUSH2 0x767 JUMP JUMPDEST PUSH1 0x40 MLOAD PUSH2 0x203 SWAP2 SWAP1 PUSH2 0x2625 JUMP JUMPDEST PUSH1 0x40 MLOAD DUP1 SWAP2 SUB SWAP1 RETURN JUMPDEST PUSH2 0x226 PUSH1 0x4 DUP1 CALLDATASIZE SUB DUP2 ADD SWAP1 PUSH2 0x221 SWAP2 SWAP1 PUSH2 0x2192 JUMP JUMPDEST PUSH2 0x787 JUMP JUMPDEST PUSH1 0x40 MLOAD PUSH2 0x235 SWAP4 SWAP3 SWAP2 SWAP1 PUSH2 0x2640 JUMP JUMPDEST PUSH1 0x40 MLOAD DUP1 SWAP2 SUB SWAP1 RETURN JUMPDEST PUSH2 0x258 PUSH1 0x4 DUP1 CALLDATASIZE SUB DUP2 ADD SWAP1 PUSH2 0x253 SWAP2 SWAP1 PUSH2 0x2125 JUMP JUMPDEST PUSH2 0x804 JUMP JUMPDEST PUSH1 0x40 MLOAD PUSH2 0x265 SWAP2 SWAP1 PUSH2 0x2625 JUMP JUMPDEST PUSH1 0x40 MLOAD DUP1 SWAP2 SUB SWAP1 RETURN JUMPDEST PUSH2 0x288 PUSH1 0x4 DUP1 CALLDATASIZE SUB DUP2 ADD SWAP1 PUSH2 0x283 SWAP2 SWAP1 PUSH2 0x2125 JUMP JUMPDEST PUSH2 0x82E JUMP JUMPDEST PUSH1 0x40 MLOAD PUSH2 0x295 SWAP2 SWAP1 PUSH2 0x28C7 JUMP JUMPDEST PUSH1 0x40 MLOAD DUP1 SWAP2 SUB SWAP1 RETURN JUMPDEST PUSH2 0x2B8 PUSH1 0x4 DUP1 CALLDATASIZE SUB DUP2 ADD SWAP1 PUSH2 0x2B3 SWAP2 SWAP1 PUSH2 0x2125 JUMP JUMPDEST PUSH2 0x846 JUMP JUMPDEST PUSH1 0x40 MLOAD PUSH2 0x2C5 SWAP2 SWAP1 PUSH2 0x28C7 JUMP JUMPDEST PUSH1 0x40 MLOAD DUP1 SWAP2 SUB SWAP1 RETURN JUMPDEST PUSH2 0x2E8 PUSH1 0x4 DUP1 CALLDATASIZE SUB DUP2 ADD SWAP1 PUSH2 0x2E3 SWAP2 SWAP1 PUSH2 0x2125 JUMP JUMPDEST PUSH2 0x85E JUMP JUMPDEST STOP JUMPDEST PUSH2 0x304 PUSH1 0x4 DUP1 CALLDATASIZE SUB DUP2 ADD SWAP1 PUSH2 0x2FF SWAP2 SWAP1 PUSH2 0x2192 JUMP JUMPDEST PUSH2 0xDB7 JUMP JUMPDEST PUSH1 0x40 MLOAD PUSH2 0x311 SWAP2 SWAP1 PUSH2 0x260A JUMP JUMPDEST PUSH1 0x40 MLOAD DUP1 SWAP2 SUB SWAP1 RETURN JUMPDEST PUSH2 0x334 PUSH1 0x4 DUP1 CALLDATASIZE SUB DUP2 ADD SWAP1 PUSH2 0x32F SWAP2 SWAP1 PUSH2 0x2125 JUMP JUMPDEST PUSH2 0xE05 JUMP JUMPDEST PUSH1 0x40 MLOAD PUSH2 0x341 SWAP2 SWAP1 PUSH2 0x28C7 JUMP JUMPDEST PUSH1 0x40 MLOAD DUP1 SWAP2 SUB SWAP1 RETURN JUMPDEST PUSH2 0x364 PUSH1 0x4 DUP1 CALLDATASIZE SUB DUP2 ADD SWAP1 PUSH2 0x35F SWAP2 SWAP1 PUSH2 0x2125 JUMP JUMPDEST PUSH2 0xE1D JUMP JUMPDEST PUSH1 0x40 MLOAD PUSH2 0x371 SWAP2 SWAP1 PUSH2 0x2625 JUMP JUMPDEST PUSH1 0x40 MLOAD DUP1 SWAP2 SUB SWAP1 RETURN JUMPDEST PUSH2 0x394 PUSH1 0x4 DUP1 CALLDATASIZE SUB DUP2 ADD SWAP1 PUSH2 0x38F SWAP2 SWAP1 PUSH2 0x22E2 JUMP JUMPDEST PUSH2 0xE3D JUMP JUMPDEST STOP JUMPDEST PUSH2 0x3B0 PUSH1 0x4 DUP1 CALLDATASIZE SUB DUP2 ADD SWAP1 PUSH2 0x3AB SWAP2 SWAP1 PUSH2 0x2125 JUMP JUMPDEST PUSH2 0x16F9 JUMP JUMPDEST PUSH1 0x40 MLOAD PUSH2 0x3BE SWAP3 SWAP2 SWAP1 PUSH2 0x2715 JUMP JUMPDEST PUSH1 0x40 MLOAD DUP1 SWAP2 SUB SWAP1 RETURN JUMPDEST PUSH2 0x3E1 PUSH1 0x4 DUP1 CALLDATASIZE SUB DUP2 ADD SWAP1 PUSH2 0x3DC SWAP2 SWAP1 PUSH2 0x2125 JUMP JUMPDEST PUSH2 0x17B9 JUMP JUMPDEST PUSH1 0x40 MLOAD PUSH2 0x3EE SWAP2 SWAP1 PUSH2 0x2745 JUMP JUMPDEST PUSH1 0x40 MLOAD DUP1 SWAP2 SUB SWAP1 RETURN JUMPDEST PUSH2 0x411 PUSH1 0x4 DUP1 CALLDATASIZE SUB DUP2 ADD SWAP1 PUSH2 0x40C SWAP2 SWAP1 PUSH2 0x2152 JUMP JUMPDEST PUSH2 0x1859 JUMP JUMPDEST PUSH1 0x40 MLOAD PUSH2 0x420 SWAP4 SWAP3 SWAP2 SWAP1 PUSH2 0x2640 JUMP JUMPDEST PUSH1 0x40 MLOAD DUP1 SWAP2 SUB SWAP1 RETURN JUMPDEST PUSH2 0x443 PUSH1 0x4 DUP1 CALLDATASIZE SUB DUP2 ADD SWAP1 PUSH2 0x43E SWAP2 SWAP1 PUSH2 0x2239 JUMP JUMPDEST PUSH2 0x18CA JUMP JUMPDEST STOP JUMPDEST PUSH2 0x45F PUSH1 0x4 DUP1 CALLDATASIZE SUB DUP2 ADD SWAP1 PUSH2 0x45A SWAP2 SWAP1 PUSH2 0x2125 JUMP JUMPDEST PUSH2 0x1B11 JUMP JUMPDEST PUSH1 0x40 MLOAD PUSH2 0x46C SWAP2 SWAP1 PUSH2 0x260A JUMP JUMPDEST PUSH1 0x40 MLOAD DUP1 SWAP2 SUB SWAP1 RETURN JUMPDEST PUSH2 0x48F PUSH1 0x4 DUP1 CALLDATASIZE SUB DUP2 ADD SWAP1 PUSH2 0x48A SWAP2 SWAP1 PUSH2 0x20E5 JUMP JUMPDEST PUSH2 0x1B44 JUMP JUMPDEST STOP JUMPDEST PUSH2 0x4AB PUSH1 0x4 DUP1 CALLDATASIZE SUB DUP2 ADD SWAP1 PUSH2 0x4A6 SWAP2 SWAP1 PUSH2 0x2125 JUMP JUMPDEST PUSH2 0x1F4B JUMP JUMPDEST PUSH1 0x40 MLOAD PUSH2 0x4B8 SWAP2 SWAP1 PUSH2 0x28C7 JUMP JUMPDEST PUSH1 0x40 MLOAD DUP1 SWAP2 SUB SWAP1 RETURN JUMPDEST PUSH2 0x4DB PUSH1 0x4 DUP1 CALLDATASIZE SUB DUP2 ADD SWAP1 PUSH2 0x4D6 SWAP2 SWAP1 PUSH2 0x2125 JUMP JUMPDEST PUSH2 0x1F63 JUMP JUMPDEST PUSH1 0x40 MLOAD PUSH2 0x4E8 SWAP2 SWAP1 PUSH2 0x26FA JUMP JUMPDEST PUSH1 0x40 MLOAD DUP1 SWAP2 SUB SWAP1 RETURN JUMPDEST PUSH2 0x50B PUSH1 0x4 DUP1 CALLDATASIZE SUB DUP2 ADD SWAP1 PUSH2 0x506 SWAP2 SWAP1 PUSH2 0x2125 JUMP JUMPDEST PUSH2 0x1F7B JUMP JUMPDEST PUSH1 0x40 MLOAD PUSH2 0x518 SWAP2 SWAP1 PUSH2 0x26FA JUMP JUMPDEST PUSH1 0x40 MLOAD DUP1 SWAP2 SUB SWAP1 RETURN JUMPDEST PUSH1 0x3 PUSH1 0x20 MSTORE DUP1 PUSH1 0x0 MSTORE PUSH1 0x40 PUSH1 0x0 KECCAK256 PUSH1 0x0 SWAP2 POP SWAP1 POP SLOAD DUP2 JUMP JUMPDEST PUSH1 0x0 DUP1 PUSH1 0x0 PUSH1 0x60 PUSH1 0x4 PUSH1 0x0 DUP7 DUP2 MSTORE PUSH1 0x20 ADD SWAP1 DUP2 MSTORE PUSH1 0x20 ADD PUSH1 0x0 KECCAK256 SLOAD TIMESTAMP LT ISZERO PUSH2 0x596 JUMPI PUSH1 0x40 MLOAD PUSH32 0x8C379A000000000000000000000000000000000000000000000000000000000 DUP2 MSTORE PUSH1 0x4 ADD PUSH2 0x58D SWAP1 PUSH2 0x2867 JUMP JUMPDEST PUSH1 0x40 MLOAD DUP1 SWAP2 SUB SWAP1 REVERT JUMPDEST PUSH1 0x0 PUSH1 0xC PUSH1 0x0 DUP8 DUP2 MSTORE PUSH1 0x20 ADD SWAP1 DUP2 MSTORE PUSH1 0x20 ADD PUSH1 0x0 KECCAK256 DUP1 SLOAD DUP1 PUSH1 0x20 MUL PUSH1 0x20 ADD PUSH1 0x40 MLOAD SWAP1 DUP2 ADD PUSH1 0x40 MSTORE DUP1 SWAP3 SWAP2 SWAP1 DUP2 DUP2 MSTORE PUSH1 0x20 ADD PUSH1 0x0 SWAP1 JUMPDEST DUP3 DUP3 LT ISZERO PUSH2 0x685 JUMPI DUP4 DUP3 SWAP1 PUSH1 0x0 MSTORE PUSH1 0x20 PUSH1 0x0 KECCAK256 ADD PUSH1 0x40 MLOAD DUP1 PUSH1 0x60 ADD PUSH1 0x40 MSTORE SWAP1 DUP2 PUSH1 0x0 DUP3 ADD PUSH1 0x0 SWAP1 SLOAD SWAP1 PUSH2 0x100 EXP SWAP1 DIV PUSH1 0xFF AND ISZERO ISZERO ISZERO ISZERO DUP2 MSTORE PUSH1 0x20 ADD PUSH1 0x0 DUP3 ADD PUSH1 0x1 SWAP1 SLOAD SWAP1 PUSH2 0x100 EXP SWAP1 DIV PUSH1 0xFF AND ISZERO ISZERO ISZERO ISZERO DUP2 MSTORE PUSH1 0x20 ADD PUSH1 0x0 DUP3 ADD PUSH1 0x2 SWAP1 SLOAD SWAP1 PUSH2 0x100 EXP SWAP1 DIV PUSH20 0xFFFFFFFFFFFFFFFFFFFFFFFFFFFFFFFFFFFFFFFF AND PUSH20 0xFFFFFFFFFFFFFFFFFFFFFFFFFFFFFFFFFFFFFFFF AND PUSH20 0xFFFFFFFFFFFFFFFFFFFFFFFFFFFFFFFFFFFFFFFF AND DUP2 MSTORE POP POP DUP2 MSTORE PUSH1 0x20 ADD SWAP1 PUSH1 0x1 ADD SWAP1 PUSH2 0x5CB JUMP JUMPDEST POP POP POP POP SWAP1 POP PUSH1 0x0 PUSH1 0x9 PUSH1 0x0 DUP9 DUP2 MSTORE PUSH1 0x20 ADD SWAP1 DUP2 MSTORE PUSH1 0x20 ADD PUSH1 0x0 KECCAK256 PUSH1 0x0 SWAP1 SLOAD SWAP1 PUSH2 0x100 EXP SWAP1 DIV PUSH1 0xFF AND SWAP1 POP PUSH1 0x0 PUSH1 0x2 PUSH1 0x0 DUP10 DUP2 MSTORE PUSH1 0x20 ADD SWAP1 DUP2 MSTORE PUSH1 0x20 ADD PUSH1 0x0 KECCAK256 SLOAD SWAP1 POP DUP2 DUP9 DUP3 DUP6 SWAP7 POP SWAP7 POP SWAP7 POP SWAP7 POP POP POP POP SWAP2 SWAP4 POP SWAP2 SWAP4 JUMP JUMPDEST PUSH1 0x0 DUP1 PUSH1 0x0 DUP1 PUSH1 0x1 SWAP1 POP PUSH1 0x0 PUSH1 0x1 SWAP1 POP PUSH1 0x0 PUSH1 0x1 SWAP1 POP PUSH1 0x7 PUSH1 0x0 DUP12 DUP2 MSTORE PUSH1 0x20 ADD SWAP1 DUP2 MSTORE PUSH1 0x20 ADD PUSH1 0x0 KECCAK256 SLOAD DUP10 EQ PUSH2 0x713 JUMPI PUSH1 0x0 SWAP3 POP JUMPDEST PUSH1 0x5 PUSH1 0x0 DUP12 DUP2 MSTORE PUSH1 0x20 ADD SWAP1 DUP2 MSTORE PUSH1 0x20 ADD PUSH1 0x0 KECCAK256 SLOAD DUP8 EQ PUSH2 0x732 JUMPI PUSH1 0x0 SWAP2 POP JUMPDEST DUP8 PUSH1 0x3 PUSH1 0x0 DUP13 DUP2 MSTORE PUSH1 0x20 ADD SWAP1 DUP2 MSTORE PUSH1 0x20 ADD PUSH1 0x0 KECCAK256 SLOAD EQ PUSH2 0x751 JUMPI PUSH1 0x0 SWAP1 POP JUMPDEST DUP3 DUP3 DUP3 SWAP6 POP SWAP6 POP SWAP6 POP POP POP POP SWAP5 POP SWAP5 POP SWAP5 SWAP2 POP POP JUMP JUMPDEST PUSH1 0x9 PUSH1 0x20 MSTORE DUP1 PUSH1 0x0 MSTORE PUSH1 0x40 PUSH1 0x0 KECCAK256 PUSH1 0x0 SWAP2 POP SLOAD SWAP1 PUSH2 0x100 EXP SWAP1 DIV PUSH1 0xFF AND DUP2 JUMP JUMPDEST PUSH1 0xC PUSH1 0x20 MSTORE DUP2 PUSH1 0x0 MSTORE PUSH1 0x40 PUSH1 0x0 KECCAK256 DUP2 DUP2 SLOAD DUP2 LT PUSH2 0x7A3 JUMPI PUSH1 0x0 DUP1 REVERT JUMPDEST SWAP1 PUSH1 0x0 MSTORE PUSH1 0x20 PUSH1 0x0 KECCAK256 ADD PUSH1 0x0 SWAP2 POP SWAP2 POP POP DUP1 PUSH1 0x0 ADD PUSH1 0x0 SWAP1 SLOAD SWAP1 PUSH2 0x100 EXP SWAP1 DIV PUSH1 0xFF AND SWAP1 DUP1 PUSH1 0x0 ADD PUSH1 0x1 SWAP1 SLOAD SWAP1 PUSH2 0x100 EXP SWAP1 DIV PUSH1 0xFF AND SWAP1 DUP1 PUSH1 0x0 ADD PUSH1 0x2 SWAP1 SLOAD SWAP1 PUSH2 0x100 EXP SWAP1 DIV PUSH20 0xFFFFFFFFFFFFFFFFFFFFFFFFFFFFFFFFFFFFFFFF AND SWAP1 POP DUP4 JUMP JUMPDEST PUSH1 0x0 PUSH1 0xA PUSH1 0x0 DUP4 DUP2 MSTORE PUSH1 0x20 ADD SWAP1 DUP2 MSTORE PUSH1 0x20 ADD PUSH1 0x0 KECCAK256 PUSH1 0x0 SWAP1 SLOAD SWAP1 PUSH2 0x100 EXP SWAP1 DIV PUSH1 0xFF AND SWAP1 POP SWAP2 SWAP1 POP JUMP JUMPDEST PUSH1 0x4 PUSH1 0x20 MSTORE DUP1 PUSH1 0x0 MSTORE PUSH1 0x40 PUSH1 0x0 KECCAK256 PUSH1 0x0 SWAP2 POP SWAP1 POP SLOAD DUP2 JUMP JUMPDEST PUSH1 0x7 PUSH1 0x20 MSTORE DUP1 PUSH1 0x0 MSTORE PUSH1 0x40 PUSH1 0x0 KECCAK256 PUSH1 0x0 SWAP2 POP SWAP1 POP SLOAD DUP2 JUMP JUMPDEST PUSH1 0x4 PUSH1 0x0 DUP3 DUP2 MSTORE PUSH1 0x20 ADD SWAP1 DUP2 MSTORE PUSH1 0x20 ADD PUSH1 0x0 KECCAK256 SLOAD TIMESTAMP LT ISZERO PUSH2 0x8B4 JUMPI PUSH1 0x40 MLOAD PUSH32 0x8C379A000000000000000000000000000000000000000000000000000000000 DUP2 MSTORE PUSH1 0x4 ADD PUSH2 0x8AB SWAP1 PUSH2 0x2867 JUMP JUMPDEST PUSH1 0x40 MLOAD DUP1 SWAP2 SUB SWAP1 REVERT JUMPDEST PUSH1 0x0 ISZERO ISZERO PUSH1 0xA PUSH1 0x0 DUP4 DUP2 MSTORE PUSH1 0x20 ADD SWAP1 DUP2 MSTORE PUSH1 0x20 ADD PUSH1 0x0 KECCAK256 PUSH1 0x0 SWAP1 SLOAD SWAP1 PUSH2 0x100 EXP SWAP1 DIV PUSH1 0xFF AND ISZERO ISZERO EQ PUSH2 0x91B JUMPI PUSH1 0x40 MLOAD PUSH32 0x8C379A000000000000000000000000000000000000000000000000000000000 DUP2 MSTORE PUSH1 0x4 ADD PUSH2 0x912 SWAP1 PUSH2 0x28A7 JUMP JUMPDEST PUSH1 0x40 MLOAD DUP1 SWAP2 SUB SWAP1 REVERT JUMPDEST PUSH1 0x0 DUP1 DUP3 DUP2 MSTORE PUSH1 0x20 ADD SWAP1 DUP2 MSTORE PUSH1 0x20 ADD PUSH1 0x0 KECCAK256 PUSH1 0x0 SWAP1 SLOAD SWAP1 PUSH2 0x100 EXP SWAP1 DIV PUSH20 0xFFFFFFFFFFFFFFFFFFFFFFFFFFFFFFFFFFFFFFFF AND PUSH20 0xFFFFFFFFFFFFFFFFFFFFFFFFFFFFFFFFFFFFFFFF AND CALLER PUSH20 0xFFFFFFFFFFFFFFFFFFFFFFFFFFFFFFFFFFFFFFFF AND EQ DUP1 PUSH2 0xA27 JUMPI POP PUSH1 0x0 PUSH20 0xFFFFFFFFFFFFFFFFFFFFFFFFFFFFFFFFFFFFFFFF AND PUSH1 0xB PUSH1 0x0 DUP4 DUP2 MSTORE PUSH1 0x20 ADD SWAP1 DUP2 MSTORE PUSH1 0x20 ADD PUSH1 0x0 KECCAK256 PUSH1 0x0 CALLER PUSH20 0xFFFFFFFFFFFFFFFFFFFFFFFFFFFFFFFFFFFFFFFF AND PUSH20 0xFFFFFFFFFFFFFFFFFFFFFFFFFFFFFFFFFFFFFFFF AND DUP2 MSTORE PUSH1 0x20 ADD SWAP1 DUP2 MSTORE PUSH1 0x20 ADD PUSH1 0x0 KECCAK256 PUSH1 0x0 ADD PUSH1 0x2 SWAP1 SLOAD SWAP1 PUSH2 0x100 EXP SWAP1 DIV PUSH20 0xFFFFFFFFFFFFFFFFFFFFFFFFFFFFFFFFFFFFFFFF AND PUSH20 0xFFFFFFFFFFFFFFFFFFFFFFFFFFFFFFFFFFFFFFFF AND EQ ISZERO JUMPDEST PUSH2 0xA66 JUMPI PUSH1 0x40 MLOAD PUSH32 0x8C379A000000000000000000000000000000000000000000000000000000000 DUP2 MSTORE PUSH1 0x4 ADD PUSH2 0xA5D SWAP1 PUSH2 0x27A7 JUMP JUMPDEST PUSH1 0x40 MLOAD DUP1 SWAP2 SUB SWAP1 REVERT JUMPDEST PUSH1 0x0 PUSH1 0x64 PUSH1 0xD PUSH1 0x0 DUP5 DUP2 MSTORE PUSH1 0x20 ADD SWAP1 DUP2 MSTORE PUSH1 0x20 ADD PUSH1 0x0 KECCAK256 DUP1 SLOAD SWAP1 POP PUSH1 0x6 PUSH1 0x0 DUP6 DUP2 MSTORE PUSH1 0x20 ADD SWAP1 DUP2 MSTORE PUSH1 0x20 ADD PUSH1 0x0 KECCAK256 SLOAD PUSH2 0xA9F SWAP2 SWAP1 PUSH2 0x29E3 JUMP JUMPDEST PUSH2 0xAA9 SWAP2 SWAP1 PUSH2 0x2A14 JUMP JUMPDEST SWAP1 POP PUSH1 0x7 PUSH1 0x0 DUP4 DUP2 MSTORE PUSH1 0x20 ADD SWAP1 DUP2 MSTORE PUSH1 0x20 ADD PUSH1 0x0 KECCAK256 SLOAD DUP2 LT PUSH2 0xAF2 JUMPI PUSH1 0x1 PUSH1 0x9 PUSH1 0x0 DUP5 DUP2 MSTORE PUSH1 0x20 ADD SWAP1 DUP2 MSTORE PUSH1 0x20 ADD PUSH1 0x0 KECCAK256 PUSH1 0x0 PUSH2 0x100 EXP DUP2 SLOAD DUP2 PUSH1 0xFF MUL NOT AND SWAP1 DUP4 ISZERO ISZERO MUL OR SWAP1 SSTORE POP JUMPDEST PUSH1 0x0 JUMPDEST PUSH1 0xD PUSH1 0x0 DUP5 DUP2 MSTORE PUSH1 0x20 ADD SWAP1 DUP2 MSTORE PUSH1 0x20 ADD PUSH1 0x0 KECCAK256 DUP1 SLOAD SWAP1 POP DUP2 PUSH1 0xFF AND LT ISZERO PUSH2 0xD86 JUMPI PUSH1 0x0 ISZERO ISZERO PUSH1 0xB PUSH1 0x0 DUP6 DUP2 MSTORE PUSH1 0x20 ADD SWAP1 DUP2 MSTORE PUSH1 0x20 ADD PUSH1 0x0 KECCAK256 PUSH1 0x0 PUSH1 0xD PUSH1 0x0 DUP8 DUP2 MSTORE PUSH1 0x20 ADD SWAP1 DUP2 MSTORE PUSH1 0x20 ADD PUSH1 0x0 KECCAK256 DUP5 PUSH1 0xFF AND DUP2 SLOAD DUP2 LT PUSH2 0xB57 JUMPI PUSH2 0xB56 PUSH2 0x2C29 JUMP JUMPDEST JUMPDEST SWAP1 PUSH1 0x0 MSTORE PUSH1 0x20 PUSH1 0x0 KECCAK256 ADD PUSH1 0x0 SWAP1 SLOAD SWAP1 PUSH2 0x100 EXP SWAP1 DIV PUSH20 0xFFFFFFFFFFFFFFFFFFFFFFFFFFFFFFFFFFFFFFFF AND PUSH20 0xFFFFFFFFFFFFFFFFFFFFFFFFFFFFFFFFFFFFFFFF AND PUSH20 0xFFFFFFFFFFFFFFFFFFFFFFFFFFFFFFFFFFFFFFFF AND DUP2 MSTORE PUSH1 0x20 ADD SWAP1 DUP2 MSTORE PUSH1 0x20 ADD PUSH1 0x0 KECCAK256 PUSH1 0x0 ADD PUSH1 0x0 SWAP1 SLOAD SWAP1 PUSH2 0x100 EXP SWAP1 DIV PUSH1 0xFF AND ISZERO ISZERO EQ ISZERO PUSH2 0xD73 JUMPI PUSH1 0xC PUSH1 0x0 DUP5 DUP2 MSTORE PUSH1 0x20 ADD SWAP1 DUP2 MSTORE PUSH1 0x20 ADD PUSH1 0x0 KECCAK256 PUSH1 0xB PUSH1 0x0 DUP6 DUP2 MSTORE PUSH1 0x20 ADD SWAP1 DUP2 MSTORE PUSH1 0x20 ADD PUSH1 0x0 KECCAK256 PUSH1 0x0 PUSH1 0xD PUSH1 0x0 DUP8 DUP2 MSTORE PUSH1 0x20 ADD SWAP1 DUP2 MSTORE PUSH1 0x20 ADD PUSH1 0x0 KECCAK256 DUP5 PUSH1 0xFF AND DUP2 SLOAD DUP2 LT PUSH2 0xC25 JUMPI PUSH2 0xC24 PUSH2 0x2C29 JUMP JUMPDEST JUMPDEST SWAP1 PUSH1 0x0 MSTORE PUSH1 0x20 PUSH1 0x0 KECCAK256 ADD PUSH1 0x0 SWAP1 SLOAD SWAP1 PUSH2 0x100 EXP SWAP1 DIV PUSH20 0xFFFFFFFFFFFFFFFFFFFFFFFFFFFFFFFFFFFFFFFF AND PUSH20 0xFFFFFFFFFFFFFFFFFFFFFFFFFFFFFFFFFFFFFFFF AND PUSH20 0xFFFFFFFFFFFFFFFFFFFFFFFFFFFFFFFFFFFFFFFF AND DUP2 MSTORE PUSH1 0x20 ADD SWAP1 DUP2 MSTORE PUSH1 0x20 ADD PUSH1 0x0 KECCAK256 SWAP1 DUP1 PUSH1 0x1 DUP2 SLOAD ADD DUP1 DUP3 SSTORE DUP1 SWAP2 POP POP PUSH1 0x1 SWAP1 SUB SWAP1 PUSH1 0x0 MSTORE PUSH1 0x20 PUSH1 0x0 KECCAK256 ADD PUSH1 0x0 SWAP1 SWAP2 SWAP1 SWAP2 SWAP1 SWAP2 POP PUSH1 0x0 DUP3 ADD PUSH1 0x0 SWAP1 SLOAD SWAP1 PUSH2 0x100 EXP SWAP1 DIV PUSH1 0xFF AND DUP2 PUSH1 0x0 ADD PUSH1 0x0 PUSH2 0x100 EXP DUP2 SLOAD DUP2 PUSH1 0xFF MUL NOT AND SWAP1 DUP4 ISZERO ISZERO MUL OR SWAP1 SSTORE POP PUSH1 0x0 DUP3 ADD PUSH1 0x1 SWAP1 SLOAD SWAP1 PUSH2 0x100 EXP SWAP1 DIV PUSH1 0xFF AND DUP2 PUSH1 0x0 ADD PUSH1 0x1 PUSH2 0x100 EXP DUP2 SLOAD DUP2 PUSH1 0xFF MUL NOT AND SWAP1 DUP4 ISZERO ISZERO MUL OR SWAP1 SSTORE POP PUSH1 0x0 DUP3 ADD PUSH1 0x2 SWAP1 SLOAD SWAP1 PUSH2 0x100 EXP SWAP1 DIV PUSH20 0xFFFFFFFFFFFFFFFFFFFFFFFFFFFFFFFFFFFFFFFF AND DUP2 PUSH1 0x0 ADD PUSH1 0x2 PUSH2 0x100 EXP DUP2 SLOAD DUP2 PUSH20 0xFFFFFFFFFFFFFFFFFFFFFFFFFFFFFFFFFFFFFFFF MUL NOT AND SWAP1 DUP4 PUSH20 0xFFFFFFFFFFFFFFFFFFFFFFFFFFFFFFFFFFFFFFFF AND MUL OR SWAP1 SSTORE POP POP POP JUMPDEST DUP1 DUP1 PUSH2 0xD7E SWAP1 PUSH2 0x2B72 JUMP JUMPDEST SWAP2 POP POP PUSH2 0xAF5 JUMP JUMPDEST POP PUSH1 0x1 PUSH1 0xA PUSH1 0x0 DUP5 DUP2 MSTORE PUSH1 0x20 ADD SWAP1 DUP2 MSTORE PUSH1 0x20 ADD PUSH1 0x0 KECCAK256 PUSH1 0x0 PUSH2 0x100 EXP DUP2 SLOAD DUP2 PUSH1 0xFF MUL NOT AND SWAP1 DUP4 ISZERO ISZERO MUL OR SWAP1 SSTORE POP POP POP JUMP JUMPDEST PUSH1 0xD PUSH1 0x20 MSTORE DUP2 PUSH1 0x0 MSTORE PUSH1 0x40 PUSH1 0x0 KECCAK256 DUP2 DUP2 SLOAD DUP2 LT PUSH2 0xDD3 JUMPI PUSH1 0x0 DUP1 REVERT JUMPDEST SWAP1 PUSH1 0x0 MSTORE PUSH1 0x20 PUSH1 0x0 KECCAK256 ADD PUSH1 0x0 SWAP2 POP SWAP2 POP SWAP1 SLOAD SWAP1 PUSH2 0x100 EXP SWAP1 DIV PUSH20 0xFFFFFFFFFFFFFFFFFFFFFFFFFFFFFFFFFFFFFFFF AND DUP2 JUMP JUMPDEST PUSH1 0x2 PUSH1 0x20 MSTORE DUP1 PUSH1 0x0 MSTORE PUSH1 0x40 PUSH1 0x0 KECCAK256 PUSH1 0x0 SWAP2 POP SWAP1 POP SLOAD DUP2 JUMP JUMPDEST PUSH1 0xA PUSH1 0x20 MSTORE DUP1 PUSH1 0x0 MSTORE PUSH1 0x40 PUSH1 0x0 KECCAK256 PUSH1 0x0 SWAP2 POP SLOAD SWAP1 PUSH2 0x100 EXP SWAP1 DIV PUSH1 0xFF AND DUP2 JUMP JUMPDEST PUSH1 0x4 PUSH1 0x0 DUP3 DUP2 MSTORE PUSH1 0x20 ADD SWAP1 DUP2 MSTORE PUSH1 0x20 ADD PUSH1 0x0 KECCAK256 SLOAD TIMESTAMP LT PUSH2 0xE92 JUMPI PUSH1 0x40 MLOAD PUSH32 0x8C379A000000000000000000000000000000000000000000000000000000000 DUP2 MSTORE PUSH1 0x4 ADD PUSH2 0xE89 SWAP1 PUSH2 0x2887 JUMP JUMPDEST PUSH1 0x40 MLOAD DUP1 SWAP2 SUB SWAP1 REVERT JUMPDEST PUSH1 0x0 PUSH20 0xFFFFFFFFFFFFFFFFFFFFFFFFFFFFFFFFFFFFFFFF AND PUSH1 0xB PUSH1 0x0 DUP4 DUP2 MSTORE PUSH1 0x20 ADD SWAP1 DUP2 MSTORE PUSH1 0x20 ADD PUSH1 0x0 KECCAK256 PUSH1 0x0 CALLER PUSH20 0xFFFFFFFFFFFFFFFFFFFFFFFFFFFFFFFFFFFFFFFF AND PUSH20 0xFFFFFFFFFFFFFFFFFFFFFFFFFFFFFFFFFFFFFFFF AND DUP2 MSTORE PUSH1 0x20 ADD SWAP1 DUP2 MSTORE PUSH1 0x20 ADD PUSH1 0x0 KECCAK256 PUSH1 0x0 ADD PUSH1 0x2 SWAP1 SLOAD SWAP1 PUSH2 0x100 EXP SWAP1 DIV PUSH20 0xFFFFFFFFFFFFFFFFFFFFFFFFFFFFFFFFFFFFFFFF AND PUSH20 0xFFFFFFFFFFFFFFFFFFFFFFFFFFFFFFFFFFFFFFFF AND EQ ISZERO PUSH2 0xF75 JUMPI PUSH1 0x40 MLOAD PUSH32 0x8C379A000000000000000000000000000000000000000000000000000000000 DUP2 MSTORE PUSH1 0x4 ADD PUSH2 0xF6C SWAP1 PUSH2 0x2807 JUMP JUMPDEST PUSH1 0x40 MLOAD DUP1 SWAP2 SUB SWAP1 REVERT JUMPDEST PUSH1 0xB PUSH1 0x0 DUP3 DUP2 MSTORE PUSH1 0x20 ADD SWAP1 DUP2 MSTORE PUSH1 0x20 ADD PUSH1 0x0 KECCAK256 PUSH1 0x0 CALLER PUSH20 0xFFFFFFFFFFFFFFFFFFFFFFFFFFFFFFFFFFFFFFFF AND PUSH20 0xFFFFFFFFFFFFFFFFFFFFFFFFFFFFFFFFFFFFFFFF AND DUP2 MSTORE PUSH1 0x20 ADD SWAP1 DUP2 MSTORE PUSH1 0x20 ADD PUSH1 0x0 KECCAK256 PUSH1 0x0 ADD PUSH1 0x0 SWAP1 SLOAD SWAP1 PUSH2 0x100 EXP SWAP1 DIV PUSH1 0xFF AND ISZERO PUSH2 0x1016 JUMPI PUSH1 0x40 MLOAD PUSH32 0x8C379A000000000000000000000000000000000000000000000000000000000 DUP2 MSTORE PUSH1 0x4 ADD PUSH2 0x100D SWAP1 PUSH2 0x27C7 JUMP JUMPDEST PUSH1 0x40 MLOAD DUP1 SWAP2 SUB SWAP1 REVERT JUMPDEST PUSH1 0x40 MLOAD DUP1 PUSH1 0x40 ADD PUSH1 0x40 MSTORE DUP1 PUSH1 0x9 DUP2 MSTORE PUSH1 0x20 ADD PUSH32 0x6920617070726F76650000000000000000000000000000000000000000000000 DUP2 MSTORE POP DUP1 MLOAD SWAP1 PUSH1 0x20 ADD KECCAK256 DUP3 DUP1 MLOAD SWAP1 PUSH1 0x20 ADD KECCAK256 EQ ISZERO PUSH2 0x12DF JUMPI PUSH1 0x1 PUSH1 0xB PUSH1 0x0 DUP4 DUP2 MSTORE PUSH1 0x20 ADD SWAP1 DUP2 MSTORE PUSH1 0x20 ADD PUSH1 0x0 KECCAK256 PUSH1 0x0 CALLER PUSH20 0xFFFFFFFFFFFFFFFFFFFFFFFFFFFFFFFFFFFFFFFF AND PUSH20 0xFFFFFFFFFFFFFFFFFFFFFFFFFFFFFFFFFFFFFFFF AND DUP2 MSTORE PUSH1 0x20 ADD SWAP1 DUP2 MSTORE PUSH1 0x20 ADD PUSH1 0x0 KECCAK256 PUSH1 0x0 ADD PUSH1 0x0 PUSH2 0x100 EXP DUP2 SLOAD DUP2 PUSH1 0xFF MUL NOT AND SWAP1 DUP4 ISZERO ISZERO MUL OR SWAP1 SSTORE POP PUSH1 0x1 PUSH1 0xB PUSH1 0x0 DUP4 DUP2 MSTORE PUSH1 0x20 ADD SWAP1 DUP2 MSTORE PUSH1 0x20 ADD PUSH1 0x0 KECCAK256 PUSH1 0x0 CALLER PUSH20 0xFFFFFFFFFFFFFFFFFFFFFFFFFFFFFFFFFFFFFFFF AND PUSH20 0xFFFFFFFFFFFFFFFFFFFFFFFFFFFFFFFFFFFFFFFF AND DUP2 MSTORE PUSH1 0x20 ADD SWAP1 DUP2 MSTORE PUSH1 0x20 ADD PUSH1 0x0 KECCAK256 PUSH1 0x0 ADD PUSH1 0x1 PUSH2 0x100 EXP DUP2 SLOAD DUP2 PUSH1 0xFF MUL NOT AND SWAP1 DUP4 ISZERO ISZERO MUL OR SWAP1 SSTORE POP PUSH1 0x1 PUSH1 0x6 PUSH1 0x0 DUP4 DUP2 MSTORE PUSH1 0x20 ADD SWAP1 DUP2 MSTORE PUSH1 0x20 ADD PUSH1 0x0 KECCAK256 PUSH1 0x0 DUP3 DUP3 SLOAD PUSH2 0x115D SWAP2 SWAP1 PUSH2 0x298D JUMP JUMPDEST SWAP3 POP POP DUP2 SWAP1 SSTORE POP PUSH1 0x1 PUSH1 0x2 PUSH1 0x0 DUP4 DUP2 MSTORE PUSH1 0x20 ADD SWAP1 DUP2 MSTORE PUSH1 0x20 ADD PUSH1 0x0 KECCAK256 PUSH1 0x0 DUP3 DUP3 SLOAD PUSH2 0x1188 SWAP2 SWAP1 PUSH2 0x298D JUMP JUMPDEST SWAP3 POP POP DUP2 SWAP1 SSTORE POP PUSH1 0xC PUSH1 0x0 DUP3 DUP2 MSTORE PUSH1 0x20 ADD SWAP1 DUP2 MSTORE PUSH1 0x20 ADD PUSH1 0x0 KECCAK256 PUSH1 0xB PUSH1 0x0 DUP4 DUP2 MSTORE PUSH1 0x20 ADD SWAP1 DUP2 MSTORE PUSH1 0x20 ADD PUSH1 0x0 KECCAK256 PUSH1 0x0 CALLER PUSH20 0xFFFFFFFFFFFFFFFFFFFFFFFFFFFFFFFFFFFFFFFF AND PUSH20 0xFFFFFFFFFFFFFFFFFFFFFFFFFFFFFFFFFFFFFFFF AND DUP2 MSTORE PUSH1 0x20 ADD SWAP1 DUP2 MSTORE PUSH1 0x20 ADD PUSH1 0x0 KECCAK256 SWAP1 DUP1 PUSH1 0x1 DUP2 SLOAD ADD DUP1 DUP3 SSTORE DUP1 SWAP2 POP POP PUSH1 0x1 SWAP1 SUB SWAP1 PUSH1 0x0 MSTORE PUSH1 0x20 PUSH1 0x0 KECCAK256 ADD PUSH1 0x0 SWAP1 SWAP2 SWAP1 SWAP2 SWAP1 SWAP2 POP PUSH1 0x0 DUP3 ADD PUSH1 0x0 SWAP1 SLOAD SWAP1 PUSH2 0x100 EXP SWAP1 DIV PUSH1 0xFF AND DUP2 PUSH1 0x0 ADD PUSH1 0x0 PUSH2 0x100 EXP DUP2 SLOAD DUP2 PUSH1 0xFF MUL NOT AND SWAP1 DUP4 ISZERO ISZERO MUL OR SWAP1 SSTORE POP PUSH1 0x0 DUP3 ADD PUSH1 0x1 SWAP1 SLOAD SWAP1 PUSH2 0x100 EXP SWAP1 DIV PUSH1 0xFF AND DUP2 PUSH1 0x0 ADD PUSH1 0x1 PUSH2 0x100 EXP DUP2 SLOAD DUP2 PUSH1 0xFF MUL NOT AND SWAP1 DUP4 ISZERO ISZERO MUL OR SWAP1 SSTORE POP PUSH1 0x0 DUP3 ADD PUSH1 0x2 SWAP1 SLOAD SWAP1 PUSH2 0x100 EXP SWAP1 DIV PUSH20 0xFFFFFFFFFFFFFFFFFFFFFFFFFFFFFFFFFFFFFFFF AND DUP2 PUSH1 0x0 ADD PUSH1 0x2 PUSH2 0x100 EXP DUP2 SLOAD DUP2 PUSH20 0xFFFFFFFFFFFFFFFFFFFFFFFFFFFFFFFFFFFFFFFF MUL NOT AND SWAP1 DUP4 PUSH20 0xFFFFFFFFFFFFFFFFFFFFFFFFFFFFFFFFFFFFFFFF AND MUL OR SWAP1 SSTORE POP POP POP PUSH2 0x16F5 JUMP JUMPDEST PUSH1 0x40 MLOAD DUP1 PUSH1 0x40 ADD PUSH1 0x40 MSTORE DUP1 PUSH1 0xC DUP2 MSTORE PUSH1 0x20 ADD PUSH32 0x6920646973617070726F76650000000000000000000000000000000000000000 DUP2 MSTORE POP DUP1 MLOAD SWAP1 PUSH1 0x20 ADD KECCAK256 DUP3 DUP1 MLOAD SWAP1 PUSH1 0x20 ADD KECCAK256 EQ ISZERO PUSH2 0x1511 JUMPI PUSH1 0x1 PUSH1 0xB PUSH1 0x0 DUP4 DUP2 MSTORE PUSH1 0x20 ADD SWAP1 DUP2 MSTORE PUSH1 0x20 ADD PUSH1 0x0 KECCAK256 PUSH1 0x0 CALLER PUSH20 0xFFFFFFFFFFFFFFFFFFFFFFFFFFFFFFFFFFFFFFFF AND PUSH20 0xFFFFFFFFFFFFFFFFFFFFFFFFFFFFFFFFFFFFFFFF AND DUP2 MSTORE PUSH1 0x20 ADD SWAP1 DUP2 MSTORE PUSH1 0x20 ADD PUSH1 0x0 KECCAK256 PUSH1 0x0 ADD PUSH1 0x0 PUSH2 0x100 EXP DUP2 SLOAD DUP2 PUSH1 0xFF MUL NOT AND SWAP1 DUP4 ISZERO ISZERO MUL OR SWAP1 SSTORE POP PUSH1 0x1 PUSH1 0x2 PUSH1 0x0 DUP4 DUP2 MSTORE PUSH1 0x20 ADD SWAP1 DUP2 MSTORE PUSH1 0x20 ADD PUSH1 0x0 KECCAK256 PUSH1 0x0 DUP3 DUP3 SLOAD PUSH2 0x13BA SWAP2 SWAP1 PUSH2 0x298D JUMP JUMPDEST SWAP3 POP POP DUP2 SWAP1 SSTORE POP PUSH1 0xC PUSH1 0x0 DUP3 DUP2 MSTORE PUSH1 0x20 ADD SWAP1 DUP2 MSTORE PUSH1 0x20 ADD PUSH1 0x0 KECCAK256 PUSH1 0xB PUSH1 0x0 DUP4 DUP2 MSTORE PUSH1 0x20 ADD SWAP1 DUP2 MSTORE PUSH1 0x20 ADD PUSH1 0x0 KECCAK256 PUSH1 0x0 CALLER PUSH20 0xFFFFFFFFFFFFFFFFFFFFFFFFFFFFFFFFFFFFFFFF AND PUSH20 0xFFFFFFFFFFFFFFFFFFFFFFFFFFFFFFFFFFFFFFFF AND DUP2 MSTORE PUSH1 0x20 ADD SWAP1 DUP2 MSTORE PUSH1 0x20 ADD PUSH1 0x0 KECCAK256 SWAP1 DUP1 PUSH1 0x1 DUP2 SLOAD ADD DUP1 DUP3 SSTORE DUP1 SWAP2 POP POP PUSH1 0x1 SWAP1 SUB SWAP1 PUSH1 0x0 MSTORE PUSH1 0x20 PUSH1 0x0 KECCAK256 ADD PUSH1 0x0 SWAP1 SWAP2 SWAP1 SWAP2 SWAP1 SWAP2 POP PUSH1 0x0 DUP3 ADD PUSH1 0x0 SWAP1 SLOAD SWAP1 PUSH2 0x100 EXP SWAP1 DIV PUSH1 0xFF AND DUP2 PUSH1 0x0 ADD PUSH1 0x0 PUSH2 0x100 EXP DUP2 SLOAD DUP2 PUSH1 0xFF MUL NOT AND SWAP1 DUP4 ISZERO ISZERO MUL OR SWAP1 SSTORE POP PUSH1 0x0 DUP3 ADD PUSH1 0x1 SWAP1 SLOAD SWAP1 PUSH2 0x100 EXP SWAP1 DIV PUSH1 0xFF AND DUP2 PUSH1 0x0 ADD PUSH1 0x1 PUSH2 0x100 EXP DUP2 SLOAD DUP2 PUSH1 0xFF MUL NOT AND SWAP1 DUP4 ISZERO ISZERO MUL OR SWAP1 SSTORE POP PUSH1 0x0 DUP3 ADD PUSH1 0x2 SWAP1 SLOAD SWAP1 PUSH2 0x100 EXP SWAP1 DIV PUSH20 0xFFFFFFFFFFFFFFFFFFFFFFFFFFFFFFFFFFFFFFFF AND DUP2 PUSH1 0x0 ADD PUSH1 0x2 PUSH2 0x100 EXP DUP2 SLOAD DUP2 PUSH20 0xFFFFFFFFFFFFFFFFFFFFFFFFFFFFFFFFFFFFFFFF MUL NOT AND SWAP1 DUP4 PUSH20 0xFFFFFFFFFFFFFFFFFFFFFFFFFFFFFFFFFFFFFFFF AND MUL OR SWAP1 SSTORE POP POP POP PUSH2 0x16F4 JUMP JUMPDEST PUSH1 0x1 PUSH1 0xB PUSH1 0x0 DUP4 DUP2 MSTORE PUSH1 0x20 ADD SWAP1 DUP2 MSTORE PUSH1 0x20 ADD PUSH1 0x0 KECCAK256 PUSH1 0x0 CALLER PUSH20 0xFFFFFFFFFFFFFFFFFFFFFFFFFFFFFFFFFFFFFFFF AND PUSH20 0xFFFFFFFFFFFFFFFFFFFFFFFFFFFFFFFFFFFFFFFF AND DUP2 MSTORE PUSH1 0x20 ADD SWAP1 DUP2 MSTORE PUSH1 0x20 ADD PUSH1 0x0 KECCAK256 PUSH1 0x0 ADD PUSH1 0x0 PUSH2 0x100 EXP DUP2 SLOAD DUP2 PUSH1 0xFF MUL NOT AND SWAP1 DUP4 ISZERO ISZERO MUL OR SWAP1 SSTORE POP PUSH1 0x1 PUSH1 0x2 PUSH1 0x0 DUP4 DUP2 MSTORE PUSH1 0x20 ADD SWAP1 DUP2 MSTORE PUSH1 0x20 ADD PUSH1 0x0 KECCAK256 PUSH1 0x0 DUP3 DUP3 SLOAD PUSH2 0x15A1 SWAP2 SWAP1 PUSH2 0x298D JUMP JUMPDEST SWAP3 POP POP DUP2 SWAP1 SSTORE POP PUSH1 0xC PUSH1 0x0 DUP3 DUP2 MSTORE PUSH1 0x20 ADD SWAP1 DUP2 MSTORE PUSH1 0x20 ADD PUSH1 0x0 KECCAK256 PUSH1 0xB PUSH1 0x0 DUP4 DUP2 MSTORE PUSH1 0x20 ADD SWAP1 DUP2 MSTORE PUSH1 0x20 ADD PUSH1 0x0 KECCAK256 PUSH1 0x0 CALLER PUSH20 0xFFFFFFFFFFFFFFFFFFFFFFFFFFFFFFFFFFFFFFFF AND PUSH20 0xFFFFFFFFFFFFFFFFFFFFFFFFFFFFFFFFFFFFFFFF AND DUP2 MSTORE PUSH1 0x20 ADD SWAP1 DUP2 MSTORE PUSH1 0x20 ADD PUSH1 0x0 KECCAK256 SWAP1 DUP1 PUSH1 0x1 DUP2 SLOAD ADD DUP1 DUP3 SSTORE DUP1 SWAP2 POP POP PUSH1 0x1 SWAP1 SUB SWAP1 PUSH1 0x0 MSTORE PUSH1 0x20 PUSH1 0x0 KECCAK256 ADD PUSH1 0x0 SWAP1 SWAP2 SWAP1 SWAP2 SWAP1 SWAP2 POP PUSH1 0x0 DUP3 ADD PUSH1 0x0 SWAP1 SLOAD SWAP1 PUSH2 0x100 EXP SWAP1 DIV PUSH1 0xFF AND DUP2 PUSH1 0x0 ADD PUSH1 0x0 PUSH2 0x100 EXP DUP2 SLOAD DUP2 PUSH1 0xFF MUL NOT AND SWAP1 DUP4 ISZERO ISZERO MUL OR SWAP1 SSTORE POP PUSH1 0x0 DUP3 ADD PUSH1 0x1 SWAP1 SLOAD SWAP1 PUSH2 0x100 EXP SWAP1 DIV PUSH1 0xFF AND DUP2 PUSH1 0x0 ADD PUSH1 0x1 PUSH2 0x100 EXP DUP2 SLOAD DUP2 PUSH1 0xFF MUL NOT AND SWAP1 DUP4 ISZERO ISZERO MUL OR SWAP1 SSTORE POP PUSH1 0x0 DUP3 ADD PUSH1 0x2 SWAP1 SLOAD SWAP1 PUSH2 0x100 EXP SWAP1 DIV PUSH20 0xFFFFFFFFFFFFFFFFFFFFFFFFFFFFFFFFFFFFFFFF AND DUP2 PUSH1 0x0 ADD PUSH1 0x2 PUSH2 0x100 EXP DUP2 SLOAD DUP2 PUSH20 0xFFFFFFFFFFFFFFFFFFFFFFFFFFFFFFFFFFFFFFFF MUL NOT AND SWAP1 DUP4 PUSH20 0xFFFFFFFFFFFFFFFFFFFFFFFFFFFFFFFFFFFFFFFF AND MUL OR SWAP1 SSTORE POP POP POP JUMPDEST JUMPDEST POP POP JUMP JUMPDEST PUSH1 0x0 PUSH1 0x60 PUSH1 0x1 PUSH1 0x0 DUP5 DUP2 MSTORE PUSH1 0x20 ADD SWAP1 DUP2 MSTORE PUSH1 0x20 ADD PUSH1 0x0 KECCAK256 SLOAD PUSH1 0x8 PUSH1 0x0 DUP6 DUP2 MSTORE PUSH1 0x20 ADD SWAP1 DUP2 MSTORE PUSH1 0x20 ADD PUSH1 0x0 KECCAK256 DUP1 DUP1 SLOAD PUSH2 0x1730 SWAP1 PUSH2 0x2B0F JUMP JUMPDEST DUP1 PUSH1 0x1F ADD PUSH1 0x20 DUP1 SWAP2 DIV MUL PUSH1 0x20 ADD PUSH1 0x40 MLOAD SWAP1 DUP2 ADD PUSH1 0x40 MSTORE DUP1 SWAP3 SWAP2 SWAP1 DUP2 DUP2 MSTORE PUSH1 0x20 ADD DUP3 DUP1 SLOAD PUSH2 0x175C SWAP1 PUSH2 0x2B0F JUMP JUMPDEST DUP1 ISZERO PUSH2 0x17A9 JUMPI DUP1 PUSH1 0x1F LT PUSH2 0x177E JUMPI PUSH2 0x100 DUP1 DUP4 SLOAD DIV MUL DUP4 MSTORE SWAP2 PUSH1 0x20 ADD SWAP2 PUSH2 0x17A9 JUMP JUMPDEST DUP3 ADD SWAP2 SWAP1 PUSH1 0x0 MSTORE PUSH1 0x20 PUSH1 0x0 KECCAK256 SWAP1 JUMPDEST DUP2 SLOAD DUP2 MSTORE SWAP1 PUSH1 0x1 ADD SWAP1 PUSH1 0x20 ADD DUP1 DUP4 GT PUSH2 0x178C JUMPI DUP3 SWAP1 SUB PUSH1 0x1F AND DUP3 ADD SWAP2 JUMPDEST POP POP POP POP POP SWAP1 POP SWAP2 POP SWAP2 POP SWAP2 POP SWAP2 JUMP JUMPDEST PUSH1 0x8 PUSH1 0x20 MSTORE DUP1 PUSH1 0x0 MSTORE PUSH1 0x40 PUSH1 0x0 KECCAK256 PUSH1 0x0 SWAP2 POP SWAP1 POP DUP1 SLOAD PUSH2 0x17D8 SWAP1 PUSH2 0x2B0F JUMP JUMPDEST DUP1 PUSH1 0x1F ADD PUSH1 0x20 DUP1 SWAP2 DIV MUL PUSH1 0x20 ADD PUSH1 0x40 MLOAD SWAP1 DUP2 ADD PUSH1 0x40 MSTORE DUP1 SWAP3 SWAP2 SWAP1 DUP2 DUP2 MSTORE PUSH1 0x20 ADD DUP3 DUP1 SLOAD PUSH2 0x1804 SWAP1 PUSH2 0x2B0F JUMP JUMPDEST DUP1 ISZERO PUSH2 0x1851 JUMPI DUP1 PUSH1 0x1F LT PUSH2 0x1826 JUMPI PUSH2 0x100 DUP1 DUP4 SLOAD DIV MUL DUP4 MSTORE SWAP2 PUSH1 0x20 ADD SWAP2 PUSH2 0x1851 JUMP JUMPDEST DUP3 ADD SWAP2 SWAP1 PUSH1 0x0 MSTORE PUSH1 0x20 PUSH1 0x0 KECCAK256 SWAP1 JUMPDEST DUP2 SLOAD DUP2 MSTORE SWAP1 PUSH1 0x1 ADD SWAP1 PUSH1 0x20 ADD DUP1 DUP4 GT PUSH2 0x1834 JUMPI DUP3 SWAP1 SUB PUSH1 0x1F AND DUP3 ADD SWAP2 JUMPDEST POP POP POP POP POP DUP2 JUMP JUMPDEST PUSH1 0xB PUSH1 0x20 MSTORE DUP2 PUSH1 0x0 MSTORE PUSH1 0x40 PUSH1 0x0 KECCAK256 PUSH1 0x20 MSTORE DUP1 PUSH1 0x0 MSTORE PUSH1 0x40 PUSH1 0x0 KECCAK256 PUSH1 0x0 SWAP2 POP SWAP2 POP POP DUP1 PUSH1 0x0 ADD PUSH1 0x0 SWAP1 SLOAD SWAP1 PUSH2 0x100 EXP SWAP1 DIV PUSH1 0xFF AND SWAP1 DUP1 PUSH1 0x0 ADD PUSH1 0x1 SWAP1 SLOAD SWAP1 PUSH2 0x100 EXP SWAP1 DIV PUSH1 0xFF AND SWAP1 DUP1 PUSH1 0x0 ADD PUSH1 0x2 SWAP1 SLOAD SWAP1 PUSH2 0x100 EXP SWAP1 DIV PUSH20 0xFFFFFFFFFFFFFFFFFFFFFFFFFFFFFFFFFFFFFFFF AND SWAP1 POP DUP4 JUMP JUMPDEST PUSH1 0x0 PUSH20 0xFFFFFFFFFFFFFFFFFFFFFFFFFFFFFFFFFFFFFFFF AND PUSH1 0x0 DUP1 DUP9 DUP2 MSTORE PUSH1 0x20 ADD SWAP1 DUP2 MSTORE PUSH1 0x20 ADD PUSH1 0x0 KECCAK256 PUSH1 0x0 SWAP1 SLOAD SWAP1 PUSH2 0x100 EXP SWAP1 DIV PUSH20 0xFFFFFFFFFFFFFFFFFFFFFFFFFFFFFFFFFFFFFFFF AND PUSH20 0xFFFFFFFFFFFFFFFFFFFFFFFFFFFFFFFFFFFFFFFF AND EQ PUSH2 0x196B JUMPI PUSH1 0x40 MLOAD PUSH32 0x8C379A000000000000000000000000000000000000000000000000000000000 DUP2 MSTORE PUSH1 0x4 ADD PUSH2 0x1962 SWAP1 PUSH2 0x2787 JUMP JUMPDEST PUSH1 0x40 MLOAD DUP1 SWAP2 SUB SWAP1 REVERT JUMPDEST PUSH1 0x0 PUSH1 0x2 PUSH1 0x0 DUP9 DUP2 MSTORE PUSH1 0x20 ADD SWAP1 DUP2 MSTORE PUSH1 0x20 ADD PUSH1 0x0 KECCAK256 DUP2 SWAP1 SSTORE POP DUP5 TIMESTAMP PUSH2 0x1990 SWAP2 SWAP1 PUSH2 0x298D JUMP JUMPDEST PUSH1 0x4 PUSH1 0x0 DUP9 DUP2 MSTORE PUSH1 0x20 ADD SWAP1 DUP2 MSTORE PUSH1 0x20 ADD PUSH1 0x0 KECCAK256 DUP2 SWAP1 SSTORE POP DUP6 PUSH1 0x1 PUSH1 0x0 DUP4 DUP2 MSTORE PUSH1 0x20 ADD SWAP1 DUP2 MSTORE PUSH1 0x20 ADD PUSH1 0x0 KECCAK256 DUP2 SWAP1 SSTORE POP PUSH1 0x0 PUSH1 0xA PUSH1 0x0 DUP9 DUP2 MSTORE PUSH1 0x20 ADD SWAP1 DUP2 MSTORE PUSH1 0x20 ADD PUSH1 0x0 KECCAK256 PUSH1 0x0 PUSH2 0x100 EXP DUP2 SLOAD DUP2 PUSH1 0xFF MUL NOT AND SWAP1 DUP4 ISZERO ISZERO MUL OR SWAP1 SSTORE POP DUP4 PUSH1 0x7 PUSH1 0x0 DUP9 DUP2 MSTORE PUSH1 0x20 ADD SWAP1 DUP2 MSTORE PUSH1 0x20 ADD PUSH1 0x0 KECCAK256 DUP2 SWAP1 SSTORE POP DUP4 PUSH1 0x7 PUSH1 0x0 DUP4 DUP2 MSTORE PUSH1 0x20 ADD SWAP1 DUP2 MSTORE PUSH1 0x20 ADD PUSH1 0x0 KECCAK256 DUP2 SWAP1 SSTORE POP PUSH1 0x0 PUSH1 0x9 PUSH1 0x0 DUP9 DUP2 MSTORE PUSH1 0x20 ADD SWAP1 DUP2 MSTORE PUSH1 0x20 ADD PUSH1 0x0 KECCAK256 PUSH1 0x0 PUSH2 0x100 EXP DUP2 SLOAD DUP2 PUSH1 0xFF MUL NOT AND SWAP1 DUP4 ISZERO ISZERO MUL OR SWAP1 SSTORE POP DUP5 PUSH1 0x3 PUSH1 0x0 DUP4 DUP2 MSTORE PUSH1 0x20 ADD SWAP1 DUP2 MSTORE PUSH1 0x20 ADD PUSH1 0x0 KECCAK256 DUP2 SWAP1 SSTORE POP DUP3 PUSH1 0x5 PUSH1 0x0 DUP4 DUP2 MSTORE PUSH1 0x20 ADD SWAP1 DUP2 MSTORE PUSH1 0x20 ADD PUSH1 0x0 KECCAK256 DUP2 SWAP1 SSTORE POP DUP2 PUSH1 0x8 PUSH1 0x0 DUP4 DUP2 MSTORE PUSH1 0x20 ADD SWAP1 DUP2 MSTORE PUSH1 0x20 ADD PUSH1 0x0 KECCAK256 SWAP1 DUP1 MLOAD SWAP1 PUSH1 0x20 ADD SWAP1 PUSH2 0x1A9E SWAP3 SWAP2 SWAP1 PUSH2 0x1F93 JUMP JUMPDEST POP PUSH1 0x0 PUSH1 0x6 PUSH1 0x0 DUP9 DUP2 MSTORE PUSH1 0x20 ADD SWAP1 DUP2 MSTORE PUSH1 0x20 ADD PUSH1 0x0 KECCAK256 DUP2 SWAP1 SSTORE POP CALLER PUSH1 0x0 DUP1 DUP9 DUP2 MSTORE PUSH1 0x20 ADD SWAP1 DUP2 MSTORE PUSH1 0x20 ADD PUSH1 0x0 KECCAK256 PUSH1 0x0 PUSH2 0x100 EXP DUP2 SLOAD DUP2 PUSH20 0xFFFFFFFFFFFFFFFFFFFFFFFFFFFFFFFFFFFFFFFF MUL NOT AND SWAP1 DUP4 PUSH20 0xFFFFFFFFFFFFFFFFFFFFFFFFFFFFFFFFFFFFFFFF AND MUL OR SWAP1 SSTORE POP POP POP POP POP POP POP JUMP JUMPDEST PUSH1 0x0 PUSH1 0x20 MSTORE DUP1 PUSH1 0x0 MSTORE PUSH1 0x40 PUSH1 0x0 KECCAK256 PUSH1 0x0 SWAP2 POP SLOAD SWAP1 PUSH2 0x100 EXP SWAP1 DIV PUSH20 0xFFFFFFFFFFFFFFFFFFFFFFFFFFFFFFFFFFFFFFFF AND DUP2 JUMP JUMPDEST PUSH1 0x0 DUP1 DUP3 DUP2 MSTORE PUSH1 0x20 ADD SWAP1 DUP2 MSTORE PUSH1 0x20 ADD PUSH1 0x0 KECCAK256 PUSH1 0x0 SWAP1 SLOAD SWAP1 PUSH2 0x100 EXP SWAP1 DIV PUSH20 0xFFFFFFFFFFFFFFFFFFFFFFFFFFFFFFFFFFFFFFFF AND PUSH20 0xFFFFFFFFFFFFFFFFFFFFFFFFFFFFFFFFFFFFFFFF AND CALLER PUSH20 0xFFFFFFFFFFFFFFFFFFFFFFFFFFFFFFFFFFFFFFFF AND EQ PUSH2 0x1BE4 JUMPI PUSH1 0x40 MLOAD PUSH32 0x8C379A000000000000000000000000000000000000000000000000000000000 DUP2 MSTORE PUSH1 0x4 ADD PUSH2 0x1BDB SWAP1 PUSH2 0x2847 JUMP JUMPDEST PUSH1 0x40 MLOAD DUP1 SWAP2 SUB SWAP1 REVERT JUMPDEST PUSH1 0x0 DUP1 DUP3 DUP2 MSTORE PUSH1 0x20 ADD SWAP1 DUP2 MSTORE PUSH1 0x20 ADD PUSH1 0x0 KECCAK256 PUSH1 0x0 SWAP1 SLOAD SWAP1 PUSH2 0x100 EXP SWAP1 DIV PUSH20 0xFFFFFFFFFFFFFFFFFFFFFFFFFFFFFFFFFFFFFFFF AND PUSH20 0xFFFFFFFFFFFFFFFFFFFFFFFFFFFFFFFFFFFFFFFF AND DUP3 PUSH20 0xFFFFFFFFFFFFFFFFFFFFFFFFFFFFFFFFFFFFFFFF AND EQ ISZERO PUSH2 0x1C85 JUMPI PUSH1 0x40 MLOAD PUSH32 0x8C379A000000000000000000000000000000000000000000000000000000000 DUP2 MSTORE PUSH1 0x4 ADD PUSH2 0x1C7C SWAP1 PUSH2 0x27E7 JUMP JUMPDEST PUSH1 0x40 MLOAD DUP1 SWAP2 SUB SWAP1 REVERT JUMPDEST PUSH1 0x0 PUSH20 0xFFFFFFFFFFFFFFFFFFFFFFFFFFFFFFFFFFFFFFFF AND PUSH1 0xB PUSH1 0x0 DUP4 DUP2 MSTORE PUSH1 0x20 ADD SWAP1 DUP2 MSTORE PUSH1 0x20 ADD PUSH1 0x0 KECCAK256 PUSH1 0x0 DUP5 PUSH20 0xFFFFFFFFFFFFFFFFFFFFFFFFFFFFFFFFFFFFFFFF AND PUSH20 0xFFFFFFFFFFFFFFFFFFFFFFFFFFFFFFFFFFFFFFFF AND DUP2 MSTORE PUSH1 0x20 ADD SWAP1 DUP2 MSTORE PUSH1 0x20 ADD PUSH1 0x0 KECCAK256 PUSH1 0x0 ADD PUSH1 0x2 SWAP1 SLOAD SWAP1 PUSH2 0x100 EXP SWAP1 DIV PUSH20 0xFFFFFFFFFFFFFFFFFFFFFFFFFFFFFFFFFFFFFFFF AND PUSH20 0xFFFFFFFFFFFFFFFFFFFFFFFFFFFFFFFFFFFFFFFF AND EQ PUSH2 0x1D67 JUMPI PUSH1 0x40 MLOAD PUSH32 0x8C379A000000000000000000000000000000000000000000000000000000000 DUP2 MSTORE PUSH1 0x4 ADD PUSH2 0x1D5E SWAP1 PUSH2 0x2767 JUMP JUMPDEST PUSH1 0x40 MLOAD DUP1 SWAP2 SUB SWAP1 REVERT JUMPDEST PUSH1 0x4 PUSH1 0x0 DUP3 DUP2 MSTORE PUSH1 0x20 ADD SWAP1 DUP2 MSTORE PUSH1 0x20 ADD PUSH1 0x0 KECCAK256 SLOAD TIMESTAMP LT PUSH2 0x1DBC JUMPI PUSH1 0x40 MLOAD PUSH32 0x8C379A000000000000000000000000000000000000000000000000000000000 DUP2 MSTORE PUSH1 0x4 ADD PUSH2 0x1DB3 SWAP1 PUSH2 0x2827 JUMP JUMPDEST PUSH1 0x40 MLOAD DUP1 SWAP2 SUB SWAP1 REVERT JUMPDEST PUSH1 0x0 PUSH1 0x40 MLOAD DUP1 PUSH1 0x60 ADD PUSH1 0x40 MSTORE DUP1 PUSH1 0x0 ISZERO ISZERO DUP2 MSTORE PUSH1 0x20 ADD PUSH1 0x0 ISZERO ISZERO DUP2 MSTORE PUSH1 0x20 ADD DUP5 PUSH20 0xFFFFFFFFFFFFFFFFFFFFFFFFFFFFFFFFFFFFFFFF AND DUP2 MSTORE POP SWAP1 POP DUP1 PUSH1 0xB PUSH1 0x0 DUP5 DUP2 MSTORE PUSH1 0x20 ADD SWAP1 DUP2 MSTORE PUSH1 0x20 ADD PUSH1 0x0 KECCAK256 PUSH1 0x0 DUP6 PUSH20 0xFFFFFFFFFFFFFFFFFFFFFFFFFFFFFFFFFFFFFFFF AND PUSH20 0xFFFFFFFFFFFFFFFFFFFFFFFFFFFFFFFFFFFFFFFF AND DUP2 MSTORE PUSH1 0x20 ADD SWAP1 DUP2 MSTORE PUSH1 0x20 ADD PUSH1 0x0 KECCAK256 PUSH1 0x0 DUP3 ADD MLOAD DUP2 PUSH1 0x0 ADD PUSH1 0x0 PUSH2 0x100 EXP DUP2 SLOAD DUP2 PUSH1 0xFF MUL NOT AND SWAP1 DUP4 ISZERO ISZERO MUL OR SWAP1 SSTORE POP PUSH1 0x20 DUP3 ADD MLOAD DUP2 PUSH1 0x0 ADD PUSH1 0x1 PUSH2 0x100 EXP DUP2 SLOAD DUP2 PUSH1 0xFF MUL NOT AND SWAP1 DUP4 ISZERO ISZERO MUL OR SWAP1 SSTORE POP PUSH1 0x40 DUP3 ADD MLOAD DUP2 PUSH1 0x0 ADD PUSH1 0x2 PUSH2 0x100 EXP DUP2 SLOAD DUP2 PUSH20 0xFFFFFFFFFFFFFFFFFFFFFFFFFFFFFFFFFFFFFFFF MUL NOT AND SWAP1 DUP4 PUSH20 0xFFFFFFFFFFFFFFFFFFFFFFFFFFFFFFFFFFFFFFFF AND MUL OR SWAP1 SSTORE POP SWAP1 POP POP PUSH1 0xD PUSH1 0x0 DUP4 DUP2 MSTORE PUSH1 0x20 ADD SWAP1 DUP2 MSTORE PUSH1 0x20 ADD PUSH1 0x0 KECCAK256 DUP4 SWAP1 DUP1 PUSH1 0x1 DUP2 SLOAD ADD DUP1 DUP3 SSTORE DUP1 SWAP2 POP POP PUSH1 0x1 SWAP1 SUB SWAP1 PUSH1 0x0 MSTORE PUSH1 0x20 PUSH1 0x0 KECCAK256 ADD PUSH1 0x0 SWAP1 SWAP2 SWAP1 SWAP2 SWAP1 SWAP2 PUSH2 0x100 EXP DUP2 SLOAD DUP2 PUSH20 0xFFFFFFFFFFFFFFFFFFFFFFFFFFFFFFFFFFFFFFFF MUL NOT AND SWAP1 DUP4 PUSH20 0xFFFFFFFFFFFFFFFFFFFFFFFFFFFFFFFFFFFFFFFF AND MUL OR SWAP1 SSTORE POP POP POP POP JUMP JUMPDEST PUSH1 0x6 PUSH1 0x20 MSTORE DUP1 PUSH1 0x0 MSTORE PUSH1 0x40 PUSH1 0x0 KECCAK256 PUSH1 0x0 SWAP2 POP SWAP1 POP SLOAD DUP2 JUMP JUMPDEST PUSH1 0x1 PUSH1 0x20 MSTORE DUP1 PUSH1 0x0 MSTORE PUSH1 0x40 PUSH1 0x0 KECCAK256 PUSH1 0x0 SWAP2 POP SWAP1 POP SLOAD DUP2 JUMP JUMPDEST PUSH1 0x5 PUSH1 0x20 MSTORE DUP1 PUSH1 0x0 MSTORE PUSH1 0x40 PUSH1 0x0 KECCAK256 PUSH1 0x0 SWAP2 POP SWAP1 POP SLOAD DUP2 JUMP JUMPDEST DUP3 DUP1 SLOAD PUSH2 0x1F9F SWAP1 PUSH2 0x2B0F JUMP JUMPDEST SWAP1 PUSH1 0x0 MSTORE PUSH1 0x20 PUSH1 0x0 KECCAK256 SWAP1 PUSH1 0x1F ADD PUSH1 0x20 SWAP1 DIV DUP2 ADD SWAP3 DUP3 PUSH2 0x1FC1 JUMPI PUSH1 0x0 DUP6 SSTORE PUSH2 0x2008 JUMP JUMPDEST DUP3 PUSH1 0x1F LT PUSH2 0x1FDA JUMPI DUP1 MLOAD PUSH1 0xFF NOT AND DUP4 DUP1 ADD OR DUP6 SSTORE PUSH2 0x2008 JUMP JUMPDEST DUP3 DUP1 ADD PUSH1 0x1 ADD DUP6 SSTORE DUP3 ISZERO PUSH2 0x2008 JUMPI SWAP2 DUP3 ADD JUMPDEST DUP3 DUP2 GT ISZERO PUSH2 0x2007 JUMPI DUP3 MLOAD DUP3 SSTORE SWAP2 PUSH1 0x20 ADD SWAP2 SWAP1 PUSH1 0x1 ADD SWAP1 PUSH2 0x1FEC JUMP JUMPDEST JUMPDEST POP SWAP1 POP PUSH2 0x2015 SWAP2 SWAP1 PUSH2 0x2019 JUMP JUMPDEST POP SWAP1 JUMP JUMPDEST JUMPDEST DUP1 DUP3 GT ISZERO PUSH2 0x2032 JUMPI PUSH1 0x0 DUP2 PUSH1 0x0 SWAP1 SSTORE POP PUSH1 0x1 ADD PUSH2 0x201A JUMP JUMPDEST POP SWAP1 JUMP JUMPDEST PUSH1 0x0 PUSH2 0x2049 PUSH2 0x2044 DUP5 PUSH2 0x2907 JUMP JUMPDEST PUSH2 0x28E2 JUMP JUMPDEST SWAP1 POP DUP3 DUP2 MSTORE PUSH1 0x20 DUP2 ADD DUP5 DUP5 DUP5 ADD GT ISZERO PUSH2 0x2065 JUMPI PUSH2 0x2064 PUSH2 0x2C8C JUMP JUMPDEST JUMPDEST PUSH2 0x2070 DUP5 DUP3 DUP6 PUSH2 0x2ACD JUMP JUMPDEST POP SWAP4 SWAP3 POP POP POP JUMP JUMPDEST PUSH1 0x0 DUP2 CALLDATALOAD SWAP1 POP PUSH2 0x2087 DUP2 PUSH2 0x2F07 JUMP JUMPDEST SWAP3 SWAP2 POP POP JUMP JUMPDEST PUSH1 0x0 DUP2 CALLDATALOAD SWAP1 POP PUSH2 0x209C DUP2 PUSH2 0x2F1E JUMP JUMPDEST SWAP3 SWAP2 POP POP JUMP JUMPDEST PUSH1 0x0 DUP3 PUSH1 0x1F DUP4 ADD SLT PUSH2 0x20B7 JUMPI PUSH2 0x20B6 PUSH2 0x2C87 JUMP JUMPDEST JUMPDEST DUP2 CALLDATALOAD PUSH2 0x20C7 DUP5 DUP3 PUSH1 0x20 DUP7 ADD PUSH2 0x2036 JUMP JUMPDEST SWAP2 POP POP SWAP3 SWAP2 POP POP JUMP JUMPDEST PUSH1 0x0 DUP2 CALLDATALOAD SWAP1 POP PUSH2 0x20DF DUP2 PUSH2 0x2F35 JUMP JUMPDEST SWAP3 SWAP2 POP POP JUMP JUMPDEST PUSH1 0x0 DUP1 PUSH1 0x40 DUP4 DUP6 SUB SLT ISZERO PUSH2 0x20FC JUMPI PUSH2 0x20FB PUSH2 0x2C96 JUMP JUMPDEST JUMPDEST PUSH1 0x0 PUSH2 0x210A DUP6 DUP3 DUP7 ADD PUSH2 0x2078 JUMP JUMPDEST SWAP3 POP POP PUSH1 0x20 PUSH2 0x211B DUP6 DUP3 DUP7 ADD PUSH2 0x208D JUMP JUMPDEST SWAP2 POP POP SWAP3 POP SWAP3 SWAP1 POP JUMP JUMPDEST PUSH1 0x0 PUSH1 0x20 DUP3 DUP5 SUB SLT ISZERO PUSH2 0x213B JUMPI PUSH2 0x213A PUSH2 0x2C96 JUMP JUMPDEST JUMPDEST PUSH1 0x0 PUSH2 0x2149 DUP5 DUP3 DUP6 ADD PUSH2 0x208D JUMP JUMPDEST SWAP2 POP POP SWAP3 SWAP2 POP POP JUMP JUMPDEST PUSH1 0x0 DUP1 PUSH1 0x40 DUP4 DUP6 SUB SLT ISZERO PUSH2 0x2169 JUMPI PUSH2 0x2168 PUSH2 0x2C96 JUMP JUMPDEST JUMPDEST PUSH1 0x0 PUSH2 0x2177 DUP6 DUP3 DUP7 ADD PUSH2 0x208D JUMP JUMPDEST SWAP3 POP POP PUSH1 0x20 PUSH2 0x2188 DUP6 DUP3 DUP7 ADD PUSH2 0x2078 JUMP JUMPDEST SWAP2 POP POP SWAP3 POP SWAP3 SWAP1 POP JUMP JUMPDEST PUSH1 0x0 DUP1 PUSH1 0x40 DUP4 DUP6 SUB SLT ISZERO PUSH2 0x21A9 JUMPI PUSH2 0x21A8 PUSH2 0x2C96 JUMP JUMPDEST JUMPDEST PUSH1 0x0 PUSH2 0x21B7 DUP6 DUP3 DUP7 ADD PUSH2 0x208D JUMP JUMPDEST SWAP3 POP POP PUSH1 0x20 PUSH2 0x21C8 DUP6 DUP3 DUP7 ADD PUSH2 0x20D0 JUMP JUMPDEST SWAP2 POP POP SWAP3 POP SWAP3 SWAP1 POP JUMP JUMPDEST PUSH1 0x0 DUP1 PUSH1 0x0 DUP1 PUSH1 0x80 DUP6 DUP8 SUB SLT ISZERO PUSH2 0x21EC JUMPI PUSH2 0x21EB PUSH2 0x2C96 JUMP JUMPDEST JUMPDEST PUSH1 0x0 PUSH2 0x21FA DUP8 DUP3 DUP9 ADD PUSH2 0x208D JUMP JUMPDEST SWAP5 POP POP PUSH1 0x20 PUSH2 0x220B DUP8 DUP3 DUP9 ADD PUSH2 0x20D0 JUMP JUMPDEST SWAP4 POP POP PUSH1 0x40 PUSH2 0x221C DUP8 DUP3 DUP9 ADD PUSH2 0x20D0 JUMP JUMPDEST SWAP3 POP POP PUSH1 0x60 PUSH2 0x222D DUP8 DUP3 DUP9 ADD PUSH2 0x208D JUMP JUMPDEST SWAP2 POP POP SWAP3 SWAP6 SWAP2 SWAP5 POP SWAP3 POP JUMP JUMPDEST PUSH1 0x0 DUP1 PUSH1 0x0 DUP1 PUSH1 0x0 DUP1 PUSH1 0xC0 DUP8 DUP10 SUB SLT ISZERO PUSH2 0x2256 JUMPI PUSH2 0x2255 PUSH2 0x2C96 JUMP JUMPDEST JUMPDEST PUSH1 0x0 PUSH2 0x2264 DUP10 DUP3 DUP11 ADD PUSH2 0x208D JUMP JUMPDEST SWAP7 POP POP PUSH1 0x20 PUSH2 0x2275 DUP10 DUP3 DUP11 ADD PUSH2 0x20D0 JUMP JUMPDEST SWAP6 POP POP PUSH1 0x40 PUSH2 0x2286 DUP10 DUP3 DUP11 ADD PUSH2 0x20D0 JUMP JUMPDEST SWAP5 POP POP PUSH1 0x60 PUSH2 0x2297 DUP10 DUP3 DUP11 ADD PUSH2 0x208D JUMP JUMPDEST SWAP4 POP POP PUSH1 0x80 DUP8 ADD CALLDATALOAD PUSH8 0xFFFFFFFFFFFFFFFF DUP2 GT ISZERO PUSH2 0x22B8 JUMPI PUSH2 0x22B7 PUSH2 0x2C91 JUMP JUMPDEST JUMPDEST PUSH2 0x22C4 DUP10 DUP3 DUP11 ADD PUSH2 0x20A2 JUMP JUMPDEST SWAP3 POP POP PUSH1 0xA0 PUSH2 0x22D5 DUP10 DUP3 DUP11 ADD PUSH2 0x208D JUMP JUMPDEST SWAP2 POP POP SWAP3 SWAP6 POP SWAP3 SWAP6 POP SWAP3 SWAP6 JUMP JUMPDEST PUSH1 0x0 DUP1 PUSH1 0x40 DUP4 DUP6 SUB SLT ISZERO PUSH2 0x22F9 JUMPI PUSH2 0x22F8 PUSH2 0x2C96 JUMP JUMPDEST JUMPDEST PUSH1 0x0 DUP4 ADD CALLDATALOAD PUSH8 0xFFFFFFFFFFFFFFFF DUP2 GT ISZERO PUSH2 0x2317 JUMPI PUSH2 0x2316 PUSH2 0x2C91 JUMP JUMPDEST JUMPDEST PUSH2 0x2323 DUP6 DUP3 DUP7 ADD PUSH2 0x20A2 JUMP JUMPDEST SWAP3 POP POP PUSH1 0x20 PUSH2 0x2334 DUP6 DUP3 DUP7 ADD PUSH2 0x208D JUMP JUMPDEST SWAP2 POP POP SWAP3 POP SWAP3 SWAP1 POP JUMP JUMPDEST PUSH1 0x0 PUSH2 0x234A DUP4 DUP4 PUSH2 0x25B9 JUMP JUMPDEST PUSH1 0x60 DUP4 ADD SWAP1 POP SWAP3 SWAP2 POP POP JUMP JUMPDEST PUSH2 0x235F DUP2 PUSH2 0x2A6E JUMP JUMPDEST DUP3 MSTORE POP POP JUMP JUMPDEST PUSH2 0x236E DUP2 PUSH2 0x2A6E JUMP JUMPDEST DUP3 MSTORE POP POP JUMP JUMPDEST PUSH1 0x0 PUSH2 0x237F DUP3 PUSH2 0x2948 JUMP JUMPDEST PUSH2 0x2389 DUP2 DUP6 PUSH2 0x296B JUMP JUMPDEST SWAP4 POP PUSH2 0x2394 DUP4 PUSH2 0x2938 JUMP JUMPDEST DUP1 PUSH1 0x0 JUMPDEST DUP4 DUP2 LT ISZERO PUSH2 0x23C5 JUMPI DUP2 MLOAD PUSH2 0x23AC DUP9 DUP3 PUSH2 0x233E JUMP JUMPDEST SWAP8 POP PUSH2 0x23B7 DUP4 PUSH2 0x295E JUMP JUMPDEST SWAP3 POP POP PUSH1 0x1 DUP2 ADD SWAP1 POP PUSH2 0x2398 JUMP JUMPDEST POP DUP6 SWAP4 POP POP POP POP SWAP3 SWAP2 POP POP JUMP JUMPDEST PUSH2 0x23DB DUP2 PUSH2 0x2A80 JUMP JUMPDEST DUP3 MSTORE POP POP JUMP JUMPDEST PUSH2 0x23EA DUP2 PUSH2 0x2A80 JUMP JUMPDEST DUP3 MSTORE POP POP JUMP JUMPDEST PUSH2 0x23F9 DUP2 PUSH2 0x2A8C JUMP JUMPDEST DUP3 MSTORE POP POP JUMP JUMPDEST PUSH1 0x0 PUSH2 0x240A DUP3 PUSH2 0x2953 JUMP JUMPDEST PUSH2 0x2414 DUP2 DUP6 PUSH2 0x297C JUMP JUMPDEST SWAP4 POP PUSH2 0x2424 DUP2 DUP6 PUSH1 0x20 DUP7 ADD PUSH2 0x2ADC JUMP JUMPDEST PUSH2 0x242D DUP2 PUSH2 0x2C9B JUMP JUMPDEST DUP5 ADD SWAP2 POP POP SWAP3 SWAP2 POP POP JUMP JUMPDEST PUSH1 0x0 PUSH2 0x2445 PUSH1 0x1F DUP4 PUSH2 0x297C JUMP JUMPDEST SWAP2 POP PUSH2 0x2450 DUP3 PUSH2 0x2CAC JUMP JUMPDEST PUSH1 0x20 DUP3 ADD SWAP1 POP SWAP2 SWAP1 POP JUMP JUMPDEST PUSH1 0x0 PUSH2 0x2468 PUSH1 0x19 DUP4 PUSH2 0x297C JUMP JUMPDEST SWAP2 POP PUSH2 0x2473 DUP3 PUSH2 0x2CD5 JUMP JUMPDEST PUSH1 0x20 DUP3 ADD SWAP1 POP SWAP2 SWAP1 POP JUMP JUMPDEST PUSH1 0x0 PUSH2 0x248B PUSH1 0x26 DUP4 PUSH2 0x297C JUMP JUMPDEST SWAP2 POP PUSH2 0x2496 DUP3 PUSH2 0x2CFE JUMP JUMPDEST PUSH1 0x40 DUP3 ADD SWAP1 POP SWAP2 SWAP1 POP JUMP JUMPDEST PUSH1 0x0 PUSH2 0x24AE PUSH1 0x1C DUP4 PUSH2 0x297C JUMP JUMPDEST SWAP2 POP PUSH2 0x24B9 DUP3 PUSH2 0x2D4D JUMP JUMPDEST PUSH1 0x20 DUP3 ADD SWAP1 POP SWAP2 SWAP1 POP JUMP JUMPDEST PUSH1 0x0 PUSH2 0x24D1 PUSH1 0x15 DUP4 PUSH2 0x297C JUMP JUMPDEST SWAP2 POP PUSH2 0x24DC DUP3 PUSH2 0x2D76 JUMP JUMPDEST PUSH1 0x20 DUP3 ADD SWAP1 POP SWAP2 SWAP1 POP JUMP JUMPDEST PUSH1 0x0 PUSH2 0x24F4 PUSH1 0x1E DUP4 PUSH2 0x297C JUMP JUMPDEST SWAP2 POP PUSH2 0x24FF DUP3 PUSH2 0x2D9F JUMP JUMPDEST PUSH1 0x20 DUP3 ADD SWAP1 POP SWAP2 SWAP1 POP JUMP JUMPDEST PUSH1 0x0 PUSH2 0x2517 PUSH1 0x24 DUP4 PUSH2 0x297C JUMP JUMPDEST SWAP2 POP PUSH2 0x2522 DUP3 PUSH2 0x2DC8 JUMP JUMPDEST PUSH1 0x40 DUP3 ADD SWAP1 POP SWAP2 SWAP1 POP JUMP JUMPDEST PUSH1 0x0 PUSH2 0x253A PUSH1 0x28 DUP4 PUSH2 0x297C JUMP JUMPDEST SWAP2 POP PUSH2 0x2545 DUP3 PUSH2 0x2E17 JUMP JUMPDEST PUSH1 0x40 DUP3 ADD SWAP1 POP SWAP2 SWAP1 POP JUMP JUMPDEST PUSH1 0x0 PUSH2 0x255D PUSH1 0x20 DUP4 PUSH2 0x297C JUMP JUMPDEST SWAP2 POP PUSH2 0x2568 DUP3 PUSH2 0x2E66 JUMP JUMPDEST PUSH1 0x20 DUP3 ADD SWAP1 POP SWAP2 SWAP1 POP JUMP JUMPDEST PUSH1 0x0 PUSH2 0x2580 PUSH1 0x12 DUP4 PUSH2 0x297C JUMP JUMPDEST SWAP2 POP PUSH2 0x258B DUP3 PUSH2 0x2E8F JUMP JUMPDEST PUSH1 0x20 DUP3 ADD SWAP1 POP SWAP2 SWAP1 POP JUMP JUMPDEST PUSH1 0x0 PUSH2 0x25A3 PUSH1 0x25 DUP4 PUSH2 0x297C JUMP JUMPDEST SWAP2 POP PUSH2 0x25AE DUP3 PUSH2 0x2EB8 JUMP JUMPDEST PUSH1 0x40 DUP3 ADD SWAP1 POP SWAP2 SWAP1 POP JUMP JUMPDEST PUSH1 0x60 DUP3 ADD PUSH1 0x0 DUP3 ADD MLOAD PUSH2 0x25CF PUSH1 0x0 DUP6 ADD DUP3 PUSH2 0x23D2 JUMP JUMPDEST POP PUSH1 0x20 DUP3 ADD MLOAD PUSH2 0x25E2 PUSH1 0x20 DUP6 ADD DUP3 PUSH2 0x23D2 JUMP JUMPDEST POP PUSH1 0x40 DUP3 ADD MLOAD PUSH2 0x25F5 PUSH1 0x40 DUP6 ADD DUP3 PUSH2 0x2356 JUMP JUMPDEST POP POP POP POP JUMP JUMPDEST PUSH2 0x2604 DUP2 PUSH2 0x2AB6 JUMP JUMPDEST DUP3 MSTORE POP POP JUMP JUMPDEST PUSH1 0x0 PUSH1 0x20 DUP3 ADD SWAP1 POP PUSH2 0x261F PUSH1 0x0 DUP4 ADD DUP5 PUSH2 0x2365 JUMP JUMPDEST SWAP3 SWAP2 POP POP JUMP JUMPDEST PUSH1 0x0 PUSH1 0x20 DUP3 ADD SWAP1 POP PUSH2 0x263A PUSH1 0x0 DUP4 ADD DUP5 PUSH2 0x23E1 JUMP JUMPDEST SWAP3 SWAP2 POP POP JUMP JUMPDEST PUSH1 0x0 PUSH1 0x60 DUP3 ADD SWAP1 POP PUSH2 0x2655 PUSH1 0x0 DUP4 ADD DUP7 PUSH2 0x23E1 JUMP JUMPDEST PUSH2 0x2662 PUSH1 0x20 DUP4 ADD DUP6 PUSH2 0x23E1 JUMP JUMPDEST PUSH2 0x266F PUSH1 0x40 DUP4 ADD DUP5 PUSH2 0x2365 JUMP JUMPDEST SWAP5 SWAP4 POP POP POP POP JUMP JUMPDEST PUSH1 0x0 PUSH1 0x60 DUP3 ADD SWAP1 POP PUSH2 0x268C PUSH1 0x0 DUP4 ADD DUP7 PUSH2 0x23E1 JUMP JUMPDEST PUSH2 0x2699 PUSH1 0x20 DUP4 ADD DUP6 PUSH2 0x23E1 JUMP JUMPDEST PUSH2 0x26A6 PUSH1 0x40 DUP4 ADD DUP5 PUSH2 0x23E1 JUMP JUMPDEST SWAP5 SWAP4 POP POP POP POP JUMP JUMPDEST PUSH1 0x0 PUSH1 0x80 DUP3 ADD SWAP1 POP PUSH2 0x26C3 PUSH1 0x0 DUP4 ADD DUP8 PUSH2 0x23E1 JUMP JUMPDEST PUSH2 0x26D0 PUSH1 0x20 DUP4 ADD DUP7 PUSH2 0x23F0 JUMP JUMPDEST PUSH2 0x26DD PUSH1 0x40 DUP4 ADD DUP6 PUSH2 0x25FB JUMP JUMPDEST DUP2 DUP2 SUB PUSH1 0x60 DUP4 ADD MSTORE PUSH2 0x26EF DUP2 DUP5 PUSH2 0x2374 JUMP JUMPDEST SWAP1 POP SWAP6 SWAP5 POP POP POP POP POP JUMP JUMPDEST PUSH1 0x0 PUSH1 0x20 DUP3 ADD SWAP1 POP PUSH2 0x270F PUSH1 0x0 DUP4 ADD DUP5 PUSH2 0x23F0 JUMP JUMPDEST SWAP3 SWAP2 POP POP JUMP JUMPDEST PUSH1 0x0 PUSH1 0x40 DUP3 ADD SWAP1 POP PUSH2 0x272A PUSH1 0x0 DUP4 ADD DUP6 PUSH2 0x23F0 JUMP JUMPDEST DUP2 DUP2 SUB PUSH1 0x20 DUP4 ADD MSTORE PUSH2 0x273C DUP2 DUP5 PUSH2 0x23FF JUMP JUMPDEST SWAP1 POP SWAP4 SWAP3 POP POP POP JUMP JUMPDEST PUSH1 0x0 PUSH1 0x20 DUP3 ADD SWAP1 POP DUP2 DUP2 SUB PUSH1 0x0 DUP4 ADD MSTORE PUSH2 0x275F DUP2 DUP5 PUSH2 0x23FF JUMP JUMPDEST SWAP1 POP SWAP3 SWAP2 POP POP JUMP JUMPDEST PUSH1 0x0 PUSH1 0x20 DUP3 ADD SWAP1 POP DUP2 DUP2 SUB PUSH1 0x0 DUP4 ADD MSTORE PUSH2 0x2780 DUP2 PUSH2 0x2438 JUMP JUMPDEST SWAP1 POP SWAP2 SWAP1 POP JUMP JUMPDEST PUSH1 0x0 PUSH1 0x20 DUP3 ADD SWAP1 POP DUP2 DUP2 SUB PUSH1 0x0 DUP4 ADD MSTORE PUSH2 0x27A0 DUP2 PUSH2 0x245B JUMP JUMPDEST SWAP1 POP SWAP2 SWAP1 POP JUMP JUMPDEST PUSH1 0x0 PUSH1 0x20 DUP3 ADD SWAP1 POP DUP2 DUP2 SUB PUSH1 0x0 DUP4 ADD MSTORE PUSH2 0x27C0 DUP2 PUSH2 0x247E JUMP JUMPDEST SWAP1 POP SWAP2 SWAP1 POP JUMP JUMPDEST PUSH1 0x0 PUSH1 0x20 DUP3 ADD SWAP1 POP DUP2 DUP2 SUB PUSH1 0x0 DUP4 ADD MSTORE PUSH2 0x27E0 DUP2 PUSH2 0x24A1 JUMP JUMPDEST SWAP1 POP SWAP2 SWAP1 POP JUMP JUMPDEST PUSH1 0x0 PUSH1 0x20 DUP3 ADD SWAP1 POP DUP2 DUP2 SUB PUSH1 0x0 DUP4 ADD MSTORE PUSH2 0x2800 DUP2 PUSH2 0x24C4 JUMP JUMPDEST SWAP1 POP SWAP2 SWAP1 POP JUMP JUMPDEST PUSH1 0x0 PUSH1 0x20 DUP3 ADD SWAP1 POP DUP2 DUP2 SUB PUSH1 0x0 DUP4 ADD MSTORE PUSH2 0x2820 DUP2 PUSH2 0x24E7 JUMP JUMPDEST SWAP1 POP SWAP2 SWAP1 POP JUMP JUMPDEST PUSH1 0x0 PUSH1 0x20 DUP3 ADD SWAP1 POP DUP2 DUP2 SUB PUSH1 0x0 DUP4 ADD MSTORE PUSH2 0x2840 DUP2 PUSH2 0x250A JUMP JUMPDEST SWAP1 POP SWAP2 SWAP1 POP JUMP JUMPDEST PUSH1 0x0 PUSH1 0x20 DUP3 ADD SWAP1 POP DUP2 DUP2 SUB PUSH1 0x0 DUP4 ADD MSTORE PUSH2 0x2860 DUP2 PUSH2 0x252D JUMP JUMPDEST SWAP1 POP SWAP2 SWAP1 POP JUMP JUMPDEST PUSH1 0x0 PUSH1 0x20 DUP3 ADD SWAP1 POP DUP2 DUP2 SUB PUSH1 0x0 DUP4 ADD MSTORE PUSH2 0x2880 DUP2 PUSH2 0x2550 JUMP JUMPDEST SWAP1 POP SWAP2 SWAP1 POP JUMP JUMPDEST PUSH1 0x0 PUSH1 0x20 DUP3 ADD SWAP1 POP DUP2 DUP2 SUB PUSH1 0x0 DUP4 ADD MSTORE PUSH2 0x28A0 DUP2 PUSH2 0x2573 JUMP JUMPDEST SWAP1 POP SWAP2 SWAP1 POP JUMP JUMPDEST PUSH1 0x0 PUSH1 0x20 DUP3 ADD SWAP1 POP DUP2 DUP2 SUB PUSH1 0x0 DUP4 ADD MSTORE PUSH2 0x28C0 DUP2 PUSH2 0x2596 JUMP JUMPDEST SWAP1 POP SWAP2 SWAP1 POP JUMP JUMPDEST PUSH1 0x0 PUSH1 0x20 DUP3 ADD SWAP1 POP PUSH2 0x28DC PUSH1 0x0 DUP4 ADD DUP5 PUSH2 0x25FB JUMP JUMPDEST SWAP3 SWAP2 POP POP JUMP JUMPDEST PUSH1 0x0 PUSH2 0x28EC PUSH2 0x28FD JUMP JUMPDEST SWAP1 POP PUSH2 0x28F8 DUP3 DUP3 PUSH2 0x2B41 JUMP JUMPDEST SWAP2 SWAP1 POP JUMP JUMPDEST PUSH1 0x0 PUSH1 0x40 MLOAD SWAP1 POP SWAP1 JUMP JUMPDEST PUSH1 0x0 PUSH8 0xFFFFFFFFFFFFFFFF DUP3 GT ISZERO PUSH2 0x2922 JUMPI PUSH2 0x2921 PUSH2 0x2C58 JUMP JUMPDEST JUMPDEST PUSH2 0x292B DUP3 PUSH2 0x2C9B JUMP JUMPDEST SWAP1 POP PUSH1 0x20 DUP2 ADD SWAP1 POP SWAP2 SWAP1 POP JUMP JUMPDEST PUSH1 0x0 DUP2 SWAP1 POP PUSH1 0x20 DUP3 ADD SWAP1 POP SWAP2 SWAP1 POP JUMP JUMPDEST PUSH1 0x0 DUP2 MLOAD SWAP1 POP SWAP2 SWAP1 POP JUMP JUMPDEST PUSH1 0x0 DUP2 MLOAD SWAP1 POP SWAP2 SWAP1 POP JUMP JUMPDEST PUSH1 0x0 PUSH1 0x20 DUP3 ADD SWAP1 POP SWAP2 SWAP1 POP JUMP JUMPDEST PUSH1 0x0 DUP3 DUP3 MSTORE PUSH1 0x20 DUP3 ADD SWAP1 POP SWAP3 SWAP2 POP POP JUMP JUMPDEST PUSH1 0x0 DUP3 DUP3 MSTORE PUSH1 0x20 DUP3 ADD SWAP1 POP SWAP3 SWAP2 POP POP JUMP JUMPDEST PUSH1 0x0 PUSH2 0x2998 DUP3 PUSH2 0x2AB6 JUMP JUMPDEST SWAP2 POP PUSH2 0x29A3 DUP4 PUSH2 0x2AB6 JUMP JUMPDEST SWAP3 POP DUP3 PUSH32 0xFFFFFFFFFFFFFFFFFFFFFFFFFFFFFFFFFFFFFFFFFFFFFFFFFFFFFFFFFFFFFFFF SUB DUP3 GT ISZERO PUSH2 0x29D8 JUMPI PUSH2 0x29D7 PUSH2 0x2B9C JUMP JUMPDEST JUMPDEST DUP3 DUP3 ADD SWAP1 POP SWAP3 SWAP2 POP POP JUMP JUMPDEST PUSH1 0x0 PUSH2 0x29EE DUP3 PUSH2 0x2AB6 JUMP JUMPDEST SWAP2 POP PUSH2 0x29F9 DUP4 PUSH2 0x2AB6 JUMP JUMPDEST SWAP3 POP DUP3 PUSH2 0x2A09 JUMPI PUSH2 0x2A08 PUSH2 0x2BCB JUMP JUMPDEST JUMPDEST DUP3 DUP3 DIV SWAP1 POP SWAP3 SWAP2 POP POP JUMP JUMPDEST PUSH1 0x0 PUSH2 0x2A1F DUP3 PUSH2 0x2AB6 JUMP JUMPDEST SWAP2 POP PUSH2 0x2A2A DUP4 PUSH2 0x2AB6 JUMP JUMPDEST SWAP3 POP DUP2 PUSH32 0xFFFFFFFFFFFFFFFFFFFFFFFFFFFFFFFFFFFFFFFFFFFFFFFFFFFFFFFFFFFFFFFF DIV DUP4 GT DUP3 ISZERO ISZERO AND ISZERO PUSH2 0x2A63 JUMPI PUSH2 0x2A62 PUSH2 0x2B9C JUMP JUMPDEST JUMPDEST DUP3 DUP3 MUL SWAP1 POP SWAP3 SWAP2 POP POP JUMP JUMPDEST PUSH1 0x0 PUSH2 0x2A79 DUP3 PUSH2 0x2A96 JUMP JUMPDEST SWAP1 POP SWAP2 SWAP1 POP JUMP JUMPDEST PUSH1 0x0 DUP2 ISZERO ISZERO SWAP1 POP SWAP2 SWAP1 POP JUMP JUMPDEST PUSH1 0x0 DUP2 SWAP1 POP SWAP2 SWAP1 POP JUMP JUMPDEST PUSH1 0x0 PUSH20 0xFFFFFFFFFFFFFFFFFFFFFFFFFFFFFFFFFFFFFFFF DUP3 AND SWAP1 POP SWAP2 SWAP1 POP JUMP JUMPDEST PUSH1 0x0 DUP2 SWAP1 POP SWAP2 SWAP1 POP JUMP JUMPDEST PUSH1 0x0 PUSH1 0xFF DUP3 AND SWAP1 POP SWAP2 SWAP1 POP JUMP JUMPDEST DUP3 DUP2 DUP4 CALLDATACOPY PUSH1 0x0 DUP4 DUP4 ADD MSTORE POP POP POP JUMP JUMPDEST PUSH1 0x0 JUMPDEST DUP4 DUP2 LT ISZERO PUSH2 0x2AFA JUMPI DUP1 DUP3 ADD MLOAD DUP2 DUP5 ADD MSTORE PUSH1 0x20 DUP2 ADD SWAP1 POP PUSH2 0x2ADF JUMP JUMPDEST DUP4 DUP2 GT ISZERO PUSH2 0x2B09 JUMPI PUSH1 0x0 DUP5 DUP5 ADD MSTORE JUMPDEST POP POP POP POP JUMP JUMPDEST PUSH1 0x0 PUSH1 0x2 DUP3 DIV SWAP1 POP PUSH1 0x1 DUP3 AND DUP1 PUSH2 0x2B27 JUMPI PUSH1 0x7F DUP3 AND SWAP2 POP JUMPDEST PUSH1 0x20 DUP3 LT DUP2 EQ ISZERO PUSH2 0x2B3B JUMPI PUSH2 0x2B3A PUSH2 0x2BFA JUMP JUMPDEST JUMPDEST POP SWAP2 SWAP1 POP JUMP JUMPDEST PUSH2 0x2B4A DUP3 PUSH2 0x2C9B JUMP JUMPDEST DUP2 ADD DUP2 DUP2 LT PUSH8 0xFFFFFFFFFFFFFFFF DUP3 GT OR ISZERO PUSH2 0x2B69 JUMPI PUSH2 0x2B68 PUSH2 0x2C58 JUMP JUMPDEST JUMPDEST DUP1 PUSH1 0x40 MSTORE POP POP POP JUMP JUMPDEST PUSH1 0x0 PUSH2 0x2B7D DUP3 PUSH2 0x2AC0 JUMP JUMPDEST SWAP2 POP PUSH1 0xFF DUP3 EQ ISZERO PUSH2 0x2B91 JUMPI PUSH2 0x2B90 PUSH2 0x2B9C JUMP JUMPDEST JUMPDEST PUSH1 0x1 DUP3 ADD SWAP1 POP SWAP2 SWAP1 POP JUMP JUMPDEST PUSH32 0x4E487B7100000000000000000000000000000000000000000000000000000000 PUSH1 0x0 MSTORE PUSH1 0x11 PUSH1 0x4 MSTORE PUSH1 0x24 PUSH1 0x0 REVERT JUMPDEST PUSH32 0x4E487B7100000000000000000000000000000000000000000000000000000000 PUSH1 0x0 MSTORE PUSH1 0x12 PUSH1 0x4 MSTORE PUSH1 0x24 PUSH1 0x0 REVERT JUMPDEST PUSH32 0x4E487B7100000000000000000000000000000000000000000000000000000000 PUSH1 0x0 MSTORE PUSH1 0x22 PUSH1 0x4 MSTORE PUSH1 0x24 PUSH1 0x0 REVERT JUMPDEST PUSH32 0x4E487B7100000000000000000000000000000000000000000000000000000000 PUSH1 0x0 MSTORE PUSH1 0x32 PUSH1 0x4 MSTORE PUSH1 0x24 PUSH1 0x0 REVERT JUMPDEST PUSH32 0x4E487B7100000000000000000000000000000000000000000000000000000000 PUSH1 0x0 MSTORE PUSH1 0x41 PUSH1 0x4 MSTORE PUSH1 0x24 PUSH1 0x0 REVERT JUMPDEST PUSH1 0x0 DUP1 REVERT JUMPDEST PUSH1 0x0 DUP1 REVERT JUMPDEST PUSH1 0x0 DUP1 REVERT JUMPDEST PUSH1 0x0 DUP1 REVERT JUMPDEST PUSH1 0x0 PUSH1 0x1F NOT PUSH1 0x1F DUP4 ADD AND SWAP1 POP SWAP2 SWAP1 POP JUMP JUMPDEST PUSH32 0x526563697069656E7420697320616C7265616479207265676973746572656400 PUSH1 0x0 DUP3 ADD MSTORE POP JUMP JUMPDEST PUSH32 0x50726F706F73616C20616C726561647920637265617465642100000000000000 PUSH1 0x0 DUP3 ADD MSTORE POP JUMP JUMPDEST PUSH32 0x596F75206172656E277420617574686F72697A6520746F20636F6D70696C6520 PUSH1 0x0 DUP3 ADD MSTORE PUSH32 0x42756E646C650000000000000000000000000000000000000000000000000000 PUSH1 0x20 DUP3 ADD MSTORE POP JUMP JUMPDEST PUSH32 0x596F7520616C72656164792073656E74206120726573706F6E73652E00000000 PUSH1 0x0 DUP3 ADD MSTORE POP JUMP JUMPDEST PUSH32 0x496E69746961746F722063616E277420766F7465210000000000000000000000 PUSH1 0x0 DUP3 ADD MSTORE POP JUMP JUMPDEST PUSH32 0x596F7520617265206E6F74207265676973746572656420746F20766F74650000 PUSH1 0x0 DUP3 ADD MSTORE POP JUMP JUMPDEST PUSH32 0x50726F706F73616C206861732072656163686564206974732065787069727920 PUSH1 0x0 DUP3 ADD MSTORE PUSH32 0x6461746500000000000000000000000000000000000000000000000000000000 PUSH1 0x20 DUP3 ADD MSTORE POP JUMP JUMPDEST PUSH32 0x4F6E6C7920696E69746961746F722063616E2072656769737465722061207265 PUSH1 0x0 DUP3 ADD MSTORE PUSH32 0x63697069656E742E000000000000000000000000000000000000000000000000 PUSH1 0x20 DUP3 ADD MSTORE POP JUMP JUMPDEST PUSH32 0x5665726469637420686173206E6F74206265656E207265616368656420796574 PUSH1 0x0 DUP3 ADD MSTORE POP JUMP JUMPDEST PUSH32 0x566F74696E672068617320657870697265640000000000000000000000000000 PUSH1 0x0 DUP3 ADD MSTORE POP JUMP JUMPDEST PUSH32 0x436F6E73656E7375732068617320616C7265616479206265656E2063616C6375 PUSH1 0x0 DUP3 ADD MSTORE PUSH32 0x6C61746564000000000000000000000000000000000000000000000000000000 PUSH1 0x20 DUP3 ADD MSTORE POP JUMP JUMPDEST PUSH2 0x2F10 DUP2 PUSH2 0x2A6E JUMP JUMPDEST DUP2 EQ PUSH2 0x2F1B JUMPI PUSH1 0x0 DUP1 REVERT JUMPDEST POP JUMP JUMPDEST PUSH2 0x2F27 DUP2 PUSH2 0x2A8C JUMP JUMPDEST DUP2 EQ PUSH2 0x2F32 JUMPI PUSH1 0x0 DUP1 REVERT JUMPDEST POP JUMP JUMPDEST PUSH2 0x2F3E DUP2 PUSH2 0x2AB6 JUMP JUMPDEST DUP2 EQ PUSH2 0x2F49 JUMPI PUSH1 0x0 DUP1 REVERT JUMPDEST POP JUMP INVALID LOG2 PUSH5 0x6970667358 0x22 SLT KECCAK256 GASLIMIT CALLCODE DUP16 NUMBER 0xB3 CALLVALUE 0xE6 PUSH32 0xA0AB63B8EA94CBED2035E72493C78D7761F9F48FA02D4A8064736F6C63430008 SMOD STOP CALLER "
				},
				"gasEstimates": {
					"creation": {
						"codeDepositCost": "2432400",
						"executionCost": "2620",
						"totalCost": "2435020"
					},
					"external": {
						"Consensus(bytes32)": "infinite",
						"IDs(bytes32)": "infinite",
						"RegisterVoter(address,bytes32)": "131678",
						"Vote(string,bytes32)": "infinite",
						"Voters(bytes32,uint256)": "infinite",
						"businessRequirements(bytes32)": "2832",
						"checkConsistency(bytes32,uint256,uint256,bytes32)": "infinite",
						"contents(bytes32)": "infinite",
						"createContract(bytes32,uint256,uint256,bytes32,string,bytes32)": "infinite",
						"expiryDates(bytes32)": "2810",
						"expiryLengths(bytes32)": "2789",
						"finalVerdicts(bytes32)": "2886",
						"getIsCompiled(bytes32)": "2845",
						"getIsCreated(bytes32)": "infinite",
						"initiators(bytes32)": "2883",
						"isCompiled(bytes32)": "2819",
						"keys(bytes32,uint256)": "5309",
						"messageDates(bytes32)": "infinite",
						"numApprovals(bytes32)": "2853",
						"retrieve_bundle(bytes32)": "infinite",
						"voteCounts(bytes32)": "2898",
						"voter_maps(bytes32,address)": "infinite"
					}
				},
				"methodIdentifiers": {
					"Consensus(bytes32)": "7d6c570a",
					"IDs(bytes32)": "e5d009bf",
					"RegisterVoter(address,bytes32)": "d468f983",
					"Vote(string,bytes32)": "8acc0d10",
					"Voters(bytes32,uint256)": "4fd3b445",
					"businessRequirements(bytes32)": "7a099c6a",
					"checkConsistency(bytes32,uint256,uint256,bytes32)": "33dfd126",
					"contents(bytes32)": "f20ca12c",
					"createContract(bytes32,uint256,uint256,bytes32,string,bytes32)": "a88361c6",
					"expiryDates(bytes32)": "56c583d8",
					"expiryLengths(bytes32)": "13191ade",
					"finalVerdicts(bytes32)": "38c20a9e",
					"getIsCompiled(bytes32)": "5273bc48",
					"getIsCreated(bytes32)": "97299e99",
					"initiators(bytes32)": "d443560a",
					"isCompiled(bytes32)": "823a6366",
					"keys(bytes32,uint256)": "7ff4c389",
					"messageDates(bytes32)": "a4a8f426",
					"numApprovals(bytes32)": "e463eaee",
					"retrieve_bundle(bytes32)": "27f0ae92",
					"voteCounts(bytes32)": "81d0e37b",
					"voter_maps(bytes32,address)": "a784ef74"
				}
			},
			"storageLayout": {
				"storage": [
					{
						"astId": 12,
						"contract": "contracts/BusinessConsensus.sol:BusinessConsensus",
						"label": "initiators",
						"offset": 0,
						"slot": "0",
						"type": "t_mapping(t_bytes32,t_address)"
					},
					{
						"astId": 16,
						"contract": "contracts/BusinessConsensus.sol:BusinessConsensus",
						"label": "IDs",
						"offset": 0,
						"slot": "1",
						"type": "t_mapping(t_bytes32,t_bytes32)"
					},
					{
						"astId": 20,
						"contract": "contracts/BusinessConsensus.sol:BusinessConsensus",
						"label": "voteCounts",
						"offset": 0,
						"slot": "2",
						"type": "t_mapping(t_bytes32,t_uint256)"
					},
					{
						"astId": 24,
						"contract": "contracts/BusinessConsensus.sol:BusinessConsensus",
						"label": "expiryLengths",
						"offset": 0,
						"slot": "3",
						"type": "t_mapping(t_bytes32,t_uint256)"
					},
					{
						"astId": 28,
						"contract": "contracts/BusinessConsensus.sol:BusinessConsensus",
						"label": "expiryDates",
						"offset": 0,
						"slot": "4",
						"type": "t_mapping(t_bytes32,t_uint256)"
					},
					{
						"astId": 32,
						"contract": "contracts/BusinessConsensus.sol:BusinessConsensus",
						"label": "contents",
						"offset": 0,
						"slot": "5",
						"type": "t_mapping(t_bytes32,t_bytes32)"
					},
					{
						"astId": 36,
						"contract": "contracts/BusinessConsensus.sol:BusinessConsensus",
						"label": "numApprovals",
						"offset": 0,
						"slot": "6",
						"type": "t_mapping(t_bytes32,t_uint256)"
					},
					{
						"astId": 40,
						"contract": "contracts/BusinessConsensus.sol:BusinessConsensus",
						"label": "businessRequirements",
						"offset": 0,
						"slot": "7",
						"type": "t_mapping(t_bytes32,t_uint256)"
					},
					{
						"astId": 44,
						"contract": "contracts/BusinessConsensus.sol:BusinessConsensus",
						"label": "messageDates",
						"offset": 0,
						"slot": "8",
						"type": "t_mapping(t_bytes32,t_string_storage)"
					},
					{
						"astId": 48,
						"contract": "contracts/BusinessConsensus.sol:BusinessConsensus",
						"label": "finalVerdicts",
						"offset": 0,
						"slot": "9",
						"type": "t_mapping(t_bytes32,t_bool)"
					},
					{
						"astId": 52,
						"contract": "contracts/BusinessConsensus.sol:BusinessConsensus",
						"label": "isCompiled",
						"offset": 0,
						"slot": "10",
						"type": "t_mapping(t_bytes32,t_bool)"
					},
					{
						"astId": 59,
						"contract": "contracts/BusinessConsensus.sol:BusinessConsensus",
						"label": "voter_maps",
						"offset": 0,
						"slot": "11",
						"type": "t_mapping(t_bytes32,t_mapping(t_address,t_struct(Voter)8_storage))"
					},
					{
						"astId": 65,
						"contract": "contracts/BusinessConsensus.sol:BusinessConsensus",
						"label": "Voters",
						"offset": 0,
						"slot": "12",
						"type": "t_mapping(t_bytes32,t_array(t_struct(Voter)8_storage)dyn_storage)"
					},
					{
						"astId": 70,
						"contract": "contracts/BusinessConsensus.sol:BusinessConsensus",
						"label": "keys",
						"offset": 0,
						"slot": "13",
						"type": "t_mapping(t_bytes32,t_array(t_address)dyn_storage)"
					}
				],
				"types": {
					"t_address": {
						"encoding": "inplace",
						"label": "address",
						"numberOfBytes": "20"
					},
					"t_array(t_address)dyn_storage": {
						"base": "t_address",
						"encoding": "dynamic_array",
						"label": "address[]",
						"numberOfBytes": "32"
					},
					"t_array(t_struct(Voter)8_storage)dyn_storage": {
						"base": "t_struct(Voter)8_storage",
						"encoding": "dynamic_array",
						"label": "struct BusinessConsensus.Voter[]",
						"numberOfBytes": "32"
					},
					"t_bool": {
						"encoding": "inplace",
						"label": "bool",
						"numberOfBytes": "1"
					},
					"t_bytes32": {
						"encoding": "inplace",
						"label": "bytes32",
						"numberOfBytes": "32"
					},
					"t_mapping(t_address,t_struct(Voter)8_storage)": {
						"encoding": "mapping",
						"key": "t_address",
						"label": "mapping(address => struct BusinessConsensus.Voter)",
						"numberOfBytes": "32",
						"value": "t_struct(Voter)8_storage"
					},
					"t_mapping(t_bytes32,t_address)": {
						"encoding": "mapping",
						"key": "t_bytes32",
						"label": "mapping(bytes32 => address)",
						"numberOfBytes": "32",
						"value": "t_address"
					},
					"t_mapping(t_bytes32,t_array(t_address)dyn_storage)": {
						"encoding": "mapping",
						"key": "t_bytes32",
						"label": "mapping(bytes32 => address[])",
						"numberOfBytes": "32",
						"value": "t_array(t_address)dyn_storage"
					},
					"t_mapping(t_bytes32,t_array(t_struct(Voter)8_storage)dyn_storage)": {
						"encoding": "mapping",
						"key": "t_bytes32",
						"label": "mapping(bytes32 => struct BusinessConsensus.Voter[])",
						"numberOfBytes": "32",
						"value": "t_array(t_struct(Voter)8_storage)dyn_storage"
					},
					"t_mapping(t_bytes32,t_bool)": {
						"encoding": "mapping",
						"key": "t_bytes32",
						"label": "mapping(bytes32 => bool)",
						"numberOfBytes": "32",
						"value": "t_bool"
					},
					"t_mapping(t_bytes32,t_bytes32)": {
						"encoding": "mapping",
						"key": "t_bytes32",
						"label": "mapping(bytes32 => bytes32)",
						"numberOfBytes": "32",
						"value": "t_bytes32"
					},
					"t_mapping(t_bytes32,t_mapping(t_address,t_struct(Voter)8_storage))": {
						"encoding": "mapping",
						"key": "t_bytes32",
						"label": "mapping(bytes32 => mapping(address => struct BusinessConsensus.Voter))",
						"numberOfBytes": "32",
						"value": "t_mapping(t_address,t_struct(Voter)8_storage)"
					},
					"t_mapping(t_bytes32,t_string_storage)": {
						"encoding": "mapping",
						"key": "t_bytes32",
						"label": "mapping(bytes32 => string)",
						"numberOfBytes": "32",
						"value": "t_string_storage"
					},
					"t_mapping(t_bytes32,t_uint256)": {
						"encoding": "mapping",
						"key": "t_bytes32",
						"label": "mapping(bytes32 => uint256)",
						"numberOfBytes": "32",
						"value": "t_uint256"
					},
					"t_string_storage": {
						"encoding": "bytes",
						"label": "string",
						"numberOfBytes": "32"
					},
					"t_struct(Voter)8_storage": {
						"encoding": "inplace",
						"label": "struct BusinessConsensus.Voter",
						"members": [
							{
								"astId": 3,
								"contract": "contracts/BusinessConsensus.sol:BusinessConsensus",
								"label": "voted",
								"offset": 0,
								"slot": "0",
								"type": "t_bool"
							},
							{
								"astId": 5,
								"contract": "contracts/BusinessConsensus.sol:BusinessConsensus",
								"label": "vote",
								"offset": 1,
								"slot": "0",
								"type": "t_bool"
							},
							{
								"astId": 7,
								"contract": "contracts/BusinessConsensus.sol:BusinessConsensus",
								"label": "recipient",
								"offset": 2,
								"slot": "0",
								"type": "t_address"
							}
						],
						"numberOfBytes": "32"
					},
					"t_uint256": {
						"encoding": "inplace",
						"label": "uint256",
						"numberOfBytes": "32"
					}
				}
			},
			"userdoc": {
				"kind": "user",
				"methods": {
					"Consensus(bytes32)": {
						"notice": "compile all relevant information into a Bundle"
					}
				},
				"version": 1
			}
		}
	}
}