{
	"contracts/BusinessConsensus.sol": {
		"BusinessConsensus": {
			"abi": [
				{
					"inputs": [
						{
							"internalType": "string",
							"name": "_messageID",
							"type": "string"
						},
						{
							"internalType": "uint256",
							"name": "expiry",
							"type": "uint256"
						},
						{
							"internalType": "uint256",
							"name": "requiredPercentage",
							"type": "uint256"
						}
					],
					"stateMutability": "nonpayable",
					"type": "constructor"
				},
				{
					"anonymous": false,
					"inputs": [],
					"name": "votingCompleted",
					"type": "event"
				},
				{
					"inputs": [],
					"name": "AccumulatedPercentage",
					"outputs": [
						{
							"internalType": "uint256",
							"name": "",
							"type": "uint256"
						}
					],
					"stateMutability": "view",
					"type": "function"
				},
				{
					"inputs": [],
					"name": "Bundle",
					"outputs": [
						{
							"internalType": "string",
							"name": "",
							"type": "string"
						},
						{
							"components": [
								{
									"internalType": "uint256",
									"name": "voteCount",
									"type": "uint256"
								},
								{
									"internalType": "string",
									"name": "messageID",
									"type": "string"
								}
							],
							"internalType": "struct BusinessConsensus.Proposal",
							"name": "",
							"type": "tuple"
						},
						{
							"components": [
								{
									"internalType": "bool",
									"name": "voted",
									"type": "bool"
								},
								{
									"internalType": "address",
									"name": "recipient",
									"type": "address"
								},
								{
									"internalType": "bool",
									"name": "vote",
									"type": "bool"
								}
							],
							"internalType": "struct BusinessConsensus.Voter[]",
							"name": "",
							"type": "tuple[]"
						}
					],
					"stateMutability": "view",
					"type": "function"
				},
				{
					"inputs": [],
					"name": "BusinessRequirement",
					"outputs": [
						{
							"internalType": "uint256",
							"name": "",
							"type": "uint256"
						}
					],
					"stateMutability": "view",
					"type": "function"
				},
				{
					"inputs": [],
					"name": "Consensus",
					"outputs": [],
					"stateMutability": "nonpayable",
					"type": "function"
				},
				{
					"inputs": [
						{
							"internalType": "address",
							"name": "voter",
							"type": "address"
						}
					],
					"name": "RegisterVoter",
					"outputs": [],
					"stateMutability": "nonpayable",
					"type": "function"
				},
				{
					"inputs": [
						{
							"internalType": "string",
							"name": "response",
							"type": "string"
						}
					],
					"name": "Vote",
					"outputs": [],
					"stateMutability": "nonpayable",
					"type": "function"
				},
				{
					"inputs": [],
					"name": "contractAddress",
					"outputs": [
						{
							"internalType": "address",
							"name": "",
							"type": "address"
						}
					],
					"stateMutability": "view",
					"type": "function"
				},
				{
					"inputs": [],
					"name": "getParameters",
					"outputs": [
						{
							"internalType": "uint256",
							"name": "",
							"type": "uint256"
						}
					],
					"stateMutability": "view",
					"type": "function"
				},
				{
					"inputs": [],
					"name": "getValues",
					"outputs": [
						{
							"internalType": "string",
							"name": "",
							"type": "string"
						}
					],
					"stateMutability": "view",
					"type": "function"
				},
				{
					"inputs": [
						{
							"internalType": "address",
							"name": "voter",
							"type": "address"
						}
					],
					"name": "getVote",
					"outputs": [
						{
							"internalType": "bool",
							"name": "",
							"type": "bool"
						}
					],
					"stateMutability": "view",
					"type": "function"
				},
				{
					"inputs": [
						{
							"internalType": "address",
							"name": "voter",
							"type": "address"
						}
					],
					"name": "getVoters",
					"outputs": [
						{
							"internalType": "bool",
							"name": "",
							"type": "bool"
						}
					],
					"stateMutability": "view",
					"type": "function"
				},
				{
					"inputs": [],
					"name": "initiator",
					"outputs": [
						{
							"internalType": "address",
							"name": "",
							"type": "address"
						}
					],
					"stateMutability": "view",
					"type": "function"
				},
				{
					"inputs": [
						{
							"internalType": "uint256",
							"name": "",
							"type": "uint256"
						}
					],
					"name": "keys",
					"outputs": [
						{
							"internalType": "address",
							"name": "",
							"type": "address"
						}
					],
					"stateMutability": "view",
					"type": "function"
				},
				{
					"inputs": [],
					"name": "numApprovals",
					"outputs": [
						{
							"internalType": "uint256",
							"name": "",
							"type": "uint256"
						}
					],
					"stateMutability": "view",
					"type": "function"
				},
				{
					"inputs": [],
					"name": "proposal",
					"outputs": [
						{
							"internalType": "uint256",
							"name": "voteCount",
							"type": "uint256"
						},
						{
							"internalType": "string",
							"name": "messageID",
							"type": "string"
						}
					],
					"stateMutability": "view",
					"type": "function"
				},
				{
					"inputs": [
						{
							"internalType": "uint256",
							"name": "",
							"type": "uint256"
						}
					],
					"name": "voters",
					"outputs": [
						{
							"internalType": "bool",
							"name": "voted",
							"type": "bool"
						},
						{
							"internalType": "address",
							"name": "recipient",
							"type": "address"
						},
						{
							"internalType": "bool",
							"name": "vote",
							"type": "bool"
						}
					],
					"stateMutability": "view",
					"type": "function"
				},
				{
					"inputs": [
						{
							"internalType": "address",
							"name": "",
							"type": "address"
						}
					],
					"name": "voters_map",
					"outputs": [
						{
							"internalType": "bool",
							"name": "voted",
							"type": "bool"
						},
						{
							"internalType": "address",
							"name": "recipient",
							"type": "address"
						},
						{
							"internalType": "bool",
							"name": "vote",
							"type": "bool"
						}
					],
					"stateMutability": "view",
					"type": "function"
				}
			],
			"devdoc": {
				"kind": "dev",
				"methods": {},
				"version": 1
			},
			"evm": {
				"assembly": "    /* \"contracts/BusinessConsensus.sol\":33:4691  contract BusinessConsensus{... */\n  mstore(0x40, 0x80)\n    /* \"contracts/BusinessConsensus.sol\":1217:1777  constructor(string memory _messageID, uint expiry, uint requiredPercentage) {... */\n  callvalue\n  dup1\n  iszero\n  tag_1\n  jumpi\n  0x00\n  dup1\n  revert\ntag_1:\n  pop\n  mload(0x40)\n  sub(codesize, bytecodeSize)\n  dup1\n  bytecodeSize\n  dup4\n  codecopy\n  dup2\n  dup2\n  add\n  0x40\n  mstore\n  dup2\n  add\n  swap1\n  tag_2\n  swap2\n  swap1\n  tag_3\n  jump\t// in\ntag_2:\n    /* \"contracts/BusinessConsensus.sol\":1316:1326  msg.sender */\n  caller\n    /* \"contracts/BusinessConsensus.sol\":1304:1313  initiator */\n  0x03\n  0x00\n    /* \"contracts/BusinessConsensus.sol\":1304:1326  initiator = msg.sender */\n  0x0100\n  exp\n  dup2\n  sload\n  dup2\n  0xffffffffffffffffffffffffffffffffffffffff\n  mul\n  not\n  and\n  swap1\n  dup4\n  0xffffffffffffffffffffffffffffffffffffffff\n  and\n  mul\n  or\n  swap1\n  sstore\n  pop\n    /* \"contracts/BusinessConsensus.sol\":1368:1374  expiry */\n  dup2\n    /* \"contracts/BusinessConsensus.sol\":1350:1365  block.timestamp */\n  timestamp\n    /* \"contracts/BusinessConsensus.sol\":1350:1374  block.timestamp + expiry */\n  tag_6\n  swap2\n  swap1\n  tag_7\n  jump\t// in\ntag_6:\n    /* \"contracts/BusinessConsensus.sol\":1337:1347  expiryDate */\n  0x01\n    /* \"contracts/BusinessConsensus.sol\":1337:1374  expiryDate = block.timestamp + expiry */\n  dup2\n  swap1\n  sstore\n  pop\n    /* \"contracts/BusinessConsensus.sol\":1407:1425  requiredPercentage */\n  dup1\n    /* \"contracts/BusinessConsensus.sol\":1385:1404  BusinessRequirement */\n  0x04\n    /* \"contracts/BusinessConsensus.sol\":1385:1425  BusinessRequirement = requiredPercentage */\n  dup2\n  swap1\n  sstore\n  pop\n    /* \"contracts/BusinessConsensus.sol\":1460:1461  0 */\n  0x00\n    /* \"contracts/BusinessConsensus.sol\":1436:1457  AccumulatedPercentage */\n  0x05\n    /* \"contracts/BusinessConsensus.sol\":1436:1461  AccumulatedPercentage = 0 */\n  dup2\n  swap1\n  sstore\n  pop\n    /* \"contracts/BusinessConsensus.sol\":1487:1488  0 */\n  0x00\n    /* \"contracts/BusinessConsensus.sol\":1472:1484  numApprovals */\n  0x06\n    /* \"contracts/BusinessConsensus.sol\":1472:1488  numApprovals = 0 */\n  dup2\n  swap1\n  sstore\n  pop\n    /* \"contracts/BusinessConsensus.sol\":1499:1524  finalVerdict = \"Rejected\" */\n  mload(0x40)\n  dup1\n  0x40\n  add\n  0x40\n  mstore\n  dup1\n  0x08\n  dup2\n  mstore\n  0x20\n  add\n  0x52656a6563746564000000000000000000000000000000000000000000000000\n  dup2\n  mstore\n  pop\n    /* \"contracts/BusinessConsensus.sol\":1499:1511  finalVerdict */\n  0x02\n    /* \"contracts/BusinessConsensus.sol\":1499:1524  finalVerdict = \"Rejected\" */\n  swap1\n  dup2\n  tag_8\n  swap2\n  swap1\n  tag_9\n  jump\t// in\ntag_8:\n  pop\n    /* \"contracts/BusinessConsensus.sol\":1561:1565  this */\n  address\n    /* \"contracts/BusinessConsensus.sol\":1535:1550  contractAddress */\n  0x00\n  dup1\n    /* \"contracts/BusinessConsensus.sol\":1535:1566  contractAddress = address(this) */\n  0x0100\n  exp\n  dup2\n  sload\n  dup2\n  0xffffffffffffffffffffffffffffffffffffffff\n  mul\n  not\n  and\n  swap1\n  dup4\n  0xffffffffffffffffffffffffffffffffffffffff\n  and\n  mul\n  or\n  swap1\n  sstore\n  pop\n    /* \"contracts/BusinessConsensus.sol\":1673:1769  Proposal({... */\n  mload(0x40)\n  dup1\n  0x40\n  add\n  0x40\n  mstore\n  dup1\n    /* \"contracts/BusinessConsensus.sol\":1712:1713  0 */\n  0x00\n    /* \"contracts/BusinessConsensus.sol\":1673:1769  Proposal({... */\n  dup2\n  mstore\n  0x20\n  add\n    /* \"contracts/BusinessConsensus.sol\":1743:1753  _messageID */\n  dup5\n    /* \"contracts/BusinessConsensus.sol\":1673:1769  Proposal({... */\n  dup2\n  mstore\n  pop\n    /* \"contracts/BusinessConsensus.sol\":1662:1670  proposal */\n  0x0a\n    /* \"contracts/BusinessConsensus.sol\":1662:1769  proposal = Proposal({... */\n  0x00\n  dup3\n  add\n  mload\n  dup2\n  0x00\n  add\n  sstore\n  0x20\n  dup3\n  add\n  mload\n  dup2\n  0x01\n  add\n  swap1\n  dup2\n  tag_10\n  swap2\n  swap1\n  tag_9\n  jump\t// in\ntag_10:\n  pop\n  swap1\n  pop\n  pop\n    /* \"contracts/BusinessConsensus.sol\":1217:1777  constructor(string memory _messageID, uint expiry, uint requiredPercentage) {... */\n  pop\n  pop\n  pop\n    /* \"contracts/BusinessConsensus.sol\":33:4691  contract BusinessConsensus{... */\n  jump(tag_11)\n    /* \"#utility.yul\":7:82   */\ntag_12:\n    /* \"#utility.yul\":40:46   */\n  0x00\n    /* \"#utility.yul\":73:75   */\n  0x40\n    /* \"#utility.yul\":67:76   */\n  mload\n    /* \"#utility.yul\":57:76   */\n  swap1\n  pop\n    /* \"#utility.yul\":7:82   */\n  swap1\n  jump\t// out\n    /* \"#utility.yul\":88:205   */\ntag_13:\n    /* \"#utility.yul\":197:198   */\n  0x00\n    /* \"#utility.yul\":194:195   */\n  dup1\n    /* \"#utility.yul\":187:199   */\n  revert\n    /* \"#utility.yul\":211:328   */\ntag_14:\n    /* \"#utility.yul\":320:321   */\n  0x00\n    /* \"#utility.yul\":317:318   */\n  dup1\n    /* \"#utility.yul\":310:322   */\n  revert\n    /* \"#utility.yul\":334:451   */\ntag_15:\n    /* \"#utility.yul\":443:444   */\n  0x00\n    /* \"#utility.yul\":440:441   */\n  dup1\n    /* \"#utility.yul\":433:445   */\n  revert\n    /* \"#utility.yul\":457:574   */\ntag_16:\n    /* \"#utility.yul\":566:567   */\n  0x00\n    /* \"#utility.yul\":563:564   */\n  dup1\n    /* \"#utility.yul\":556:568   */\n  revert\n    /* \"#utility.yul\":580:682   */\ntag_17:\n    /* \"#utility.yul\":621:627   */\n  0x00\n    /* \"#utility.yul\":672:674   */\n  0x1f\n    /* \"#utility.yul\":668:675   */\n  not\n    /* \"#utility.yul\":663:665   */\n  0x1f\n    /* \"#utility.yul\":656:661   */\n  dup4\n    /* \"#utility.yul\":652:666   */\n  add\n    /* \"#utility.yul\":648:676   */\n  and\n    /* \"#utility.yul\":638:676   */\n  swap1\n  pop\n    /* \"#utility.yul\":580:682   */\n  swap2\n  swap1\n  pop\n  jump\t// out\n    /* \"#utility.yul\":688:868   */\ntag_18:\n    /* \"#utility.yul\":736:813   */\n  0x4e487b7100000000000000000000000000000000000000000000000000000000\n    /* \"#utility.yul\":733:734   */\n  0x00\n    /* \"#utility.yul\":726:814   */\n  mstore\n    /* \"#utility.yul\":833:837   */\n  0x41\n    /* \"#utility.yul\":830:831   */\n  0x04\n    /* \"#utility.yul\":823:838   */\n  mstore\n    /* \"#utility.yul\":857:861   */\n  0x24\n    /* \"#utility.yul\":854:855   */\n  0x00\n    /* \"#utility.yul\":847:862   */\n  revert\n    /* \"#utility.yul\":874:1155   */\ntag_19:\n    /* \"#utility.yul\":957:984   */\n  tag_56\n    /* \"#utility.yul\":979:983   */\n  dup3\n    /* \"#utility.yul\":957:984   */\n  tag_17\n  jump\t// in\ntag_56:\n    /* \"#utility.yul\":949:955   */\n  dup2\n    /* \"#utility.yul\":945:985   */\n  add\n    /* \"#utility.yul\":1087:1093   */\n  dup2\n    /* \"#utility.yul\":1075:1085   */\n  dup2\n    /* \"#utility.yul\":1072:1094   */\n  lt\n    /* \"#utility.yul\":1051:1069   */\n  0xffffffffffffffff\n    /* \"#utility.yul\":1039:1049   */\n  dup3\n    /* \"#utility.yul\":1036:1070   */\n  gt\n    /* \"#utility.yul\":1033:1095   */\n  or\n    /* \"#utility.yul\":1030:1118   */\n  iszero\n  tag_57\n  jumpi\n    /* \"#utility.yul\":1098:1116   */\n  tag_58\n  tag_18\n  jump\t// in\ntag_58:\n    /* \"#utility.yul\":1030:1118   */\ntag_57:\n    /* \"#utility.yul\":1138:1148   */\n  dup1\n    /* \"#utility.yul\":1134:1136   */\n  0x40\n    /* \"#utility.yul\":1127:1149   */\n  mstore\n    /* \"#utility.yul\":917:1155   */\n  pop\n    /* \"#utility.yul\":874:1155   */\n  pop\n  pop\n  jump\t// out\n    /* \"#utility.yul\":1161:1290   */\ntag_20:\n    /* \"#utility.yul\":1195:1201   */\n  0x00\n    /* \"#utility.yul\":1222:1242   */\n  tag_60\n  tag_12\n  jump\t// in\ntag_60:\n    /* \"#utility.yul\":1212:1242   */\n  swap1\n  pop\n    /* \"#utility.yul\":1251:1284   */\n  tag_61\n    /* \"#utility.yul\":1279:1283   */\n  dup3\n    /* \"#utility.yul\":1271:1277   */\n  dup3\n    /* \"#utility.yul\":1251:1284   */\n  tag_19\n  jump\t// in\ntag_61:\n    /* \"#utility.yul\":1161:1290   */\n  swap2\n  swap1\n  pop\n  jump\t// out\n    /* \"#utility.yul\":1296:1604   */\ntag_21:\n    /* \"#utility.yul\":1358:1362   */\n  0x00\n    /* \"#utility.yul\":1448:1466   */\n  0xffffffffffffffff\n    /* \"#utility.yul\":1440:1446   */\n  dup3\n    /* \"#utility.yul\":1437:1467   */\n  gt\n    /* \"#utility.yul\":1434:1490   */\n  iszero\n  tag_63\n  jumpi\n    /* \"#utility.yul\":1470:1488   */\n  tag_64\n  tag_18\n  jump\t// in\ntag_64:\n    /* \"#utility.yul\":1434:1490   */\ntag_63:\n    /* \"#utility.yul\":1508:1537   */\n  tag_65\n    /* \"#utility.yul\":1530:1536   */\n  dup3\n    /* \"#utility.yul\":1508:1537   */\n  tag_17\n  jump\t// in\ntag_65:\n    /* \"#utility.yul\":1500:1537   */\n  swap1\n  pop\n    /* \"#utility.yul\":1592:1596   */\n  0x20\n    /* \"#utility.yul\":1586:1590   */\n  dup2\n    /* \"#utility.yul\":1582:1597   */\n  add\n    /* \"#utility.yul\":1574:1597   */\n  swap1\n  pop\n    /* \"#utility.yul\":1296:1604   */\n  swap2\n  swap1\n  pop\n  jump\t// out\n    /* \"#utility.yul\":1610:1917   */\ntag_22:\n    /* \"#utility.yul\":1678:1679   */\n  0x00\n    /* \"#utility.yul\":1688:1801   */\ntag_67:\n    /* \"#utility.yul\":1702:1708   */\n  dup4\n    /* \"#utility.yul\":1699:1700   */\n  dup2\n    /* \"#utility.yul\":1696:1709   */\n  lt\n    /* \"#utility.yul\":1688:1801   */\n  iszero\n  tag_69\n  jumpi\n    /* \"#utility.yul\":1787:1788   */\n  dup1\n    /* \"#utility.yul\":1782:1785   */\n  dup3\n    /* \"#utility.yul\":1778:1789   */\n  add\n    /* \"#utility.yul\":1772:1790   */\n  mload\n    /* \"#utility.yul\":1768:1769   */\n  dup2\n    /* \"#utility.yul\":1763:1766   */\n  dup5\n    /* \"#utility.yul\":1759:1770   */\n  add\n    /* \"#utility.yul\":1752:1791   */\n  mstore\n    /* \"#utility.yul\":1724:1726   */\n  0x20\n    /* \"#utility.yul\":1721:1722   */\n  dup2\n    /* \"#utility.yul\":1717:1727   */\n  add\n    /* \"#utility.yul\":1712:1727   */\n  swap1\n  pop\n    /* \"#utility.yul\":1688:1801   */\n  jump(tag_67)\ntag_69:\n    /* \"#utility.yul\":1819:1825   */\n  dup4\n    /* \"#utility.yul\":1816:1817   */\n  dup2\n    /* \"#utility.yul\":1813:1826   */\n  gt\n    /* \"#utility.yul\":1810:1911   */\n  iszero\n  tag_70\n  jumpi\n    /* \"#utility.yul\":1899:1900   */\n  0x00\n    /* \"#utility.yul\":1890:1896   */\n  dup5\n    /* \"#utility.yul\":1885:1888   */\n  dup5\n    /* \"#utility.yul\":1881:1897   */\n  add\n    /* \"#utility.yul\":1874:1901   */\n  mstore\n    /* \"#utility.yul\":1810:1911   */\ntag_70:\n    /* \"#utility.yul\":1659:1917   */\n  pop\n    /* \"#utility.yul\":1610:1917   */\n  pop\n  pop\n  pop\n  jump\t// out\n    /* \"#utility.yul\":1923:2344   */\ntag_23:\n    /* \"#utility.yul\":2012:2017   */\n  0x00\n    /* \"#utility.yul\":2037:2103   */\n  tag_72\n    /* \"#utility.yul\":2053:2102   */\n  tag_73\n    /* \"#utility.yul\":2095:2101   */\n  dup5\n    /* \"#utility.yul\":2053:2102   */\n  tag_21\n  jump\t// in\ntag_73:\n    /* \"#utility.yul\":2037:2103   */\n  tag_20\n  jump\t// in\ntag_72:\n    /* \"#utility.yul\":2028:2103   */\n  swap1\n  pop\n    /* \"#utility.yul\":2126:2132   */\n  dup3\n    /* \"#utility.yul\":2119:2124   */\n  dup2\n    /* \"#utility.yul\":2112:2133   */\n  mstore\n    /* \"#utility.yul\":2164:2168   */\n  0x20\n    /* \"#utility.yul\":2157:2162   */\n  dup2\n    /* \"#utility.yul\":2153:2169   */\n  add\n    /* \"#utility.yul\":2202:2205   */\n  dup5\n    /* \"#utility.yul\":2193:2199   */\n  dup5\n    /* \"#utility.yul\":2188:2191   */\n  dup5\n    /* \"#utility.yul\":2184:2200   */\n  add\n    /* \"#utility.yul\":2181:2206   */\n  gt\n    /* \"#utility.yul\":2178:2290   */\n  iszero\n  tag_74\n  jumpi\n    /* \"#utility.yul\":2209:2288   */\n  tag_75\n  tag_16\n  jump\t// in\ntag_75:\n    /* \"#utility.yul\":2178:2290   */\ntag_74:\n    /* \"#utility.yul\":2299:2338   */\n  tag_76\n    /* \"#utility.yul\":2331:2337   */\n  dup5\n    /* \"#utility.yul\":2326:2329   */\n  dup3\n    /* \"#utility.yul\":2321:2324   */\n  dup6\n    /* \"#utility.yul\":2299:2338   */\n  tag_22\n  jump\t// in\ntag_76:\n    /* \"#utility.yul\":2018:2344   */\n  pop\n    /* \"#utility.yul\":1923:2344   */\n  swap4\n  swap3\n  pop\n  pop\n  pop\n  jump\t// out\n    /* \"#utility.yul\":2364:2719   */\ntag_24:\n    /* \"#utility.yul\":2431:2436   */\n  0x00\n    /* \"#utility.yul\":2480:2483   */\n  dup3\n    /* \"#utility.yul\":2473:2477   */\n  0x1f\n    /* \"#utility.yul\":2465:2471   */\n  dup4\n    /* \"#utility.yul\":2461:2478   */\n  add\n    /* \"#utility.yul\":2457:2484   */\n  slt\n    /* \"#utility.yul\":2447:2569   */\n  tag_78\n  jumpi\n    /* \"#utility.yul\":2488:2567   */\n  tag_79\n  tag_15\n  jump\t// in\ntag_79:\n    /* \"#utility.yul\":2447:2569   */\ntag_78:\n    /* \"#utility.yul\":2598:2604   */\n  dup2\n    /* \"#utility.yul\":2592:2605   */\n  mload\n    /* \"#utility.yul\":2623:2713   */\n  tag_80\n    /* \"#utility.yul\":2709:2712   */\n  dup5\n    /* \"#utility.yul\":2701:2707   */\n  dup3\n    /* \"#utility.yul\":2694:2698   */\n  0x20\n    /* \"#utility.yul\":2686:2692   */\n  dup7\n    /* \"#utility.yul\":2682:2699   */\n  add\n    /* \"#utility.yul\":2623:2713   */\n  tag_23\n  jump\t// in\ntag_80:\n    /* \"#utility.yul\":2614:2713   */\n  swap2\n  pop\n    /* \"#utility.yul\":2437:2719   */\n  pop\n    /* \"#utility.yul\":2364:2719   */\n  swap3\n  swap2\n  pop\n  pop\n  jump\t// out\n    /* \"#utility.yul\":2725:2802   */\ntag_25:\n    /* \"#utility.yul\":2762:2769   */\n  0x00\n    /* \"#utility.yul\":2791:2796   */\n  dup2\n    /* \"#utility.yul\":2780:2796   */\n  swap1\n  pop\n    /* \"#utility.yul\":2725:2802   */\n  swap2\n  swap1\n  pop\n  jump\t// out\n    /* \"#utility.yul\":2808:2930   */\ntag_26:\n    /* \"#utility.yul\":2881:2905   */\n  tag_83\n    /* \"#utility.yul\":2899:2904   */\n  dup2\n    /* \"#utility.yul\":2881:2905   */\n  tag_25\n  jump\t// in\ntag_83:\n    /* \"#utility.yul\":2874:2879   */\n  dup2\n    /* \"#utility.yul\":2871:2906   */\n  eq\n    /* \"#utility.yul\":2861:2924   */\n  tag_84\n  jumpi\n    /* \"#utility.yul\":2920:2921   */\n  0x00\n    /* \"#utility.yul\":2917:2918   */\n  dup1\n    /* \"#utility.yul\":2910:2922   */\n  revert\n    /* \"#utility.yul\":2861:2924   */\ntag_84:\n    /* \"#utility.yul\":2808:2930   */\n  pop\n  jump\t// out\n    /* \"#utility.yul\":2936:3079   */\ntag_27:\n    /* \"#utility.yul\":2993:2998   */\n  0x00\n    /* \"#utility.yul\":3024:3030   */\n  dup2\n    /* \"#utility.yul\":3018:3031   */\n  mload\n    /* \"#utility.yul\":3009:3031   */\n  swap1\n  pop\n    /* \"#utility.yul\":3040:3073   */\n  tag_86\n    /* \"#utility.yul\":3067:3072   */\n  dup2\n    /* \"#utility.yul\":3040:3073   */\n  tag_26\n  jump\t// in\ntag_86:\n    /* \"#utility.yul\":2936:3079   */\n  swap3\n  swap2\n  pop\n  pop\n  jump\t// out\n    /* \"#utility.yul\":3085:3921   */\ntag_3:\n    /* \"#utility.yul\":3183:3189   */\n  0x00\n    /* \"#utility.yul\":3191:3197   */\n  dup1\n    /* \"#utility.yul\":3199:3205   */\n  0x00\n    /* \"#utility.yul\":3248:3250   */\n  0x60\n    /* \"#utility.yul\":3236:3245   */\n  dup5\n    /* \"#utility.yul\":3227:3234   */\n  dup7\n    /* \"#utility.yul\":3223:3246   */\n  sub\n    /* \"#utility.yul\":3219:3251   */\n  slt\n    /* \"#utility.yul\":3216:3335   */\n  iszero\n  tag_88\n  jumpi\n    /* \"#utility.yul\":3254:3333   */\n  tag_89\n  tag_13\n  jump\t// in\ntag_89:\n    /* \"#utility.yul\":3216:3335   */\ntag_88:\n    /* \"#utility.yul\":3395:3396   */\n  0x00\n    /* \"#utility.yul\":3384:3393   */\n  dup5\n    /* \"#utility.yul\":3380:3397   */\n  add\n    /* \"#utility.yul\":3374:3398   */\n  mload\n    /* \"#utility.yul\":3425:3443   */\n  0xffffffffffffffff\n    /* \"#utility.yul\":3417:3423   */\n  dup2\n    /* \"#utility.yul\":3414:3444   */\n  gt\n    /* \"#utility.yul\":3411:3528   */\n  iszero\n  tag_90\n  jumpi\n    /* \"#utility.yul\":3447:3526   */\n  tag_91\n  tag_14\n  jump\t// in\ntag_91:\n    /* \"#utility.yul\":3411:3528   */\ntag_90:\n    /* \"#utility.yul\":3552:3626   */\n  tag_92\n    /* \"#utility.yul\":3618:3625   */\n  dup7\n    /* \"#utility.yul\":3609:3615   */\n  dup3\n    /* \"#utility.yul\":3598:3607   */\n  dup8\n    /* \"#utility.yul\":3594:3616   */\n  add\n    /* \"#utility.yul\":3552:3626   */\n  tag_24\n  jump\t// in\ntag_92:\n    /* \"#utility.yul\":3542:3626   */\n  swap4\n  pop\n    /* \"#utility.yul\":3345:3636   */\n  pop\n    /* \"#utility.yul\":3675:3677   */\n  0x20\n    /* \"#utility.yul\":3701:3765   */\n  tag_93\n    /* \"#utility.yul\":3757:3764   */\n  dup7\n    /* \"#utility.yul\":3748:3754   */\n  dup3\n    /* \"#utility.yul\":3737:3746   */\n  dup8\n    /* \"#utility.yul\":3733:3755   */\n  add\n    /* \"#utility.yul\":3701:3765   */\n  tag_27\n  jump\t// in\ntag_93:\n    /* \"#utility.yul\":3691:3765   */\n  swap3\n  pop\n    /* \"#utility.yul\":3646:3775   */\n  pop\n    /* \"#utility.yul\":3814:3816   */\n  0x40\n    /* \"#utility.yul\":3840:3904   */\n  tag_94\n    /* \"#utility.yul\":3896:3903   */\n  dup7\n    /* \"#utility.yul\":3887:3893   */\n  dup3\n    /* \"#utility.yul\":3876:3885   */\n  dup8\n    /* \"#utility.yul\":3872:3894   */\n  add\n    /* \"#utility.yul\":3840:3904   */\n  tag_27\n  jump\t// in\ntag_94:\n    /* \"#utility.yul\":3830:3904   */\n  swap2\n  pop\n    /* \"#utility.yul\":3785:3914   */\n  pop\n    /* \"#utility.yul\":3085:3921   */\n  swap3\n  pop\n  swap3\n  pop\n  swap3\n  jump\t// out\n    /* \"#utility.yul\":3927:4107   */\ntag_28:\n    /* \"#utility.yul\":3975:4052   */\n  0x4e487b7100000000000000000000000000000000000000000000000000000000\n    /* \"#utility.yul\":3972:3973   */\n  0x00\n    /* \"#utility.yul\":3965:4053   */\n  mstore\n    /* \"#utility.yul\":4072:4076   */\n  0x11\n    /* \"#utility.yul\":4069:4070   */\n  0x04\n    /* \"#utility.yul\":4062:4077   */\n  mstore\n    /* \"#utility.yul\":4096:4100   */\n  0x24\n    /* \"#utility.yul\":4093:4094   */\n  0x00\n    /* \"#utility.yul\":4086:4101   */\n  revert\n    /* \"#utility.yul\":4113:4418   */\ntag_7:\n    /* \"#utility.yul\":4153:4156   */\n  0x00\n    /* \"#utility.yul\":4172:4192   */\n  tag_97\n    /* \"#utility.yul\":4190:4191   */\n  dup3\n    /* \"#utility.yul\":4172:4192   */\n  tag_25\n  jump\t// in\ntag_97:\n    /* \"#utility.yul\":4167:4192   */\n  swap2\n  pop\n    /* \"#utility.yul\":4206:4226   */\n  tag_98\n    /* \"#utility.yul\":4224:4225   */\n  dup4\n    /* \"#utility.yul\":4206:4226   */\n  tag_25\n  jump\t// in\ntag_98:\n    /* \"#utility.yul\":4201:4226   */\n  swap3\n  pop\n    /* \"#utility.yul\":4360:4361   */\n  dup3\n    /* \"#utility.yul\":4292:4358   */\n  0xffffffffffffffffffffffffffffffffffffffffffffffffffffffffffffffff\n    /* \"#utility.yul\":4288:4362   */\n  sub\n    /* \"#utility.yul\":4285:4286   */\n  dup3\n    /* \"#utility.yul\":4282:4363   */\n  gt\n    /* \"#utility.yul\":4279:4386   */\n  iszero\n  tag_99\n  jumpi\n    /* \"#utility.yul\":4366:4384   */\n  tag_100\n  tag_28\n  jump\t// in\ntag_100:\n    /* \"#utility.yul\":4279:4386   */\ntag_99:\n    /* \"#utility.yul\":4410:4411   */\n  dup3\n    /* \"#utility.yul\":4407:4408   */\n  dup3\n    /* \"#utility.yul\":4403:4412   */\n  add\n    /* \"#utility.yul\":4396:4412   */\n  swap1\n  pop\n    /* \"#utility.yul\":4113:4418   */\n  swap3\n  swap2\n  pop\n  pop\n  jump\t// out\n    /* \"#utility.yul\":4424:4523   */\ntag_29:\n    /* \"#utility.yul\":4476:4482   */\n  0x00\n    /* \"#utility.yul\":4510:4515   */\n  dup2\n    /* \"#utility.yul\":4504:4516   */\n  mload\n    /* \"#utility.yul\":4494:4516   */\n  swap1\n  pop\n    /* \"#utility.yul\":4424:4523   */\n  swap2\n  swap1\n  pop\n  jump\t// out\n    /* \"#utility.yul\":4529:4709   */\ntag_30:\n    /* \"#utility.yul\":4577:4654   */\n  0x4e487b7100000000000000000000000000000000000000000000000000000000\n    /* \"#utility.yul\":4574:4575   */\n  0x00\n    /* \"#utility.yul\":4567:4655   */\n  mstore\n    /* \"#utility.yul\":4674:4678   */\n  0x22\n    /* \"#utility.yul\":4671:4672   */\n  0x04\n    /* \"#utility.yul\":4664:4679   */\n  mstore\n    /* \"#utility.yul\":4698:4702   */\n  0x24\n    /* \"#utility.yul\":4695:4696   */\n  0x00\n    /* \"#utility.yul\":4688:4703   */\n  revert\n    /* \"#utility.yul\":4715:5035   */\ntag_31:\n    /* \"#utility.yul\":4759:4765   */\n  0x00\n    /* \"#utility.yul\":4796:4797   */\n  0x02\n    /* \"#utility.yul\":4790:4794   */\n  dup3\n    /* \"#utility.yul\":4786:4798   */\n  div\n    /* \"#utility.yul\":4776:4798   */\n  swap1\n  pop\n    /* \"#utility.yul\":4843:4844   */\n  0x01\n    /* \"#utility.yul\":4837:4841   */\n  dup3\n    /* \"#utility.yul\":4833:4845   */\n  and\n    /* \"#utility.yul\":4864:4882   */\n  dup1\n    /* \"#utility.yul\":4854:4935   */\n  tag_104\n  jumpi\n    /* \"#utility.yul\":4920:4924   */\n  0x7f\n    /* \"#utility.yul\":4912:4918   */\n  dup3\n    /* \"#utility.yul\":4908:4925   */\n  and\n    /* \"#utility.yul\":4898:4925   */\n  swap2\n  pop\n    /* \"#utility.yul\":4854:4935   */\ntag_104:\n    /* \"#utility.yul\":4982:4984   */\n  0x20\n    /* \"#utility.yul\":4974:4980   */\n  dup3\n    /* \"#utility.yul\":4971:4985   */\n  lt\n    /* \"#utility.yul\":4951:4969   */\n  dup2\n    /* \"#utility.yul\":4948:4986   */\n  sub\n    /* \"#utility.yul\":4945:5029   */\n  tag_105\n  jumpi\n    /* \"#utility.yul\":5001:5019   */\n  tag_106\n  tag_30\n  jump\t// in\ntag_106:\n    /* \"#utility.yul\":4945:5029   */\ntag_105:\n    /* \"#utility.yul\":4766:5035   */\n  pop\n    /* \"#utility.yul\":4715:5035   */\n  swap2\n  swap1\n  pop\n  jump\t// out\n    /* \"#utility.yul\":5041:5182   */\ntag_32:\n    /* \"#utility.yul\":5090:5094   */\n  0x00\n    /* \"#utility.yul\":5113:5116   */\n  dup2\n    /* \"#utility.yul\":5105:5116   */\n  swap1\n  pop\n    /* \"#utility.yul\":5136:5139   */\n  dup2\n    /* \"#utility.yul\":5133:5134   */\n  0x00\n    /* \"#utility.yul\":5126:5140   */\n  mstore\n    /* \"#utility.yul\":5170:5174   */\n  0x20\n    /* \"#utility.yul\":5167:5168   */\n  0x00\n    /* \"#utility.yul\":5157:5175   */\n  keccak256\n    /* \"#utility.yul\":5149:5175   */\n  swap1\n  pop\n    /* \"#utility.yul\":5041:5182   */\n  swap2\n  swap1\n  pop\n  jump\t// out\n    /* \"#utility.yul\":5188:5281   */\ntag_33:\n    /* \"#utility.yul\":5225:5231   */\n  0x00\n    /* \"#utility.yul\":5272:5274   */\n  0x20\n    /* \"#utility.yul\":5267:5269   */\n  0x1f\n    /* \"#utility.yul\":5260:5265   */\n  dup4\n    /* \"#utility.yul\":5256:5270   */\n  add\n    /* \"#utility.yul\":5252:5275   */\n  div\n    /* \"#utility.yul\":5242:5275   */\n  swap1\n  pop\n    /* \"#utility.yul\":5188:5281   */\n  swap2\n  swap1\n  pop\n  jump\t// out\n    /* \"#utility.yul\":5287:5394   */\ntag_34:\n    /* \"#utility.yul\":5331:5339   */\n  0x00\n    /* \"#utility.yul\":5381:5386   */\n  dup3\n    /* \"#utility.yul\":5375:5379   */\n  dup3\n    /* \"#utility.yul\":5371:5387   */\n  shl\n    /* \"#utility.yul\":5350:5387   */\n  swap1\n  pop\n    /* \"#utility.yul\":5287:5394   */\n  swap3\n  swap2\n  pop\n  pop\n  jump\t// out\n    /* \"#utility.yul\":5400:5793   */\ntag_35:\n    /* \"#utility.yul\":5469:5475   */\n  0x00\n    /* \"#utility.yul\":5519:5520   */\n  0x08\n    /* \"#utility.yul\":5507:5517   */\n  dup4\n    /* \"#utility.yul\":5503:5521   */\n  mul\n    /* \"#utility.yul\":5542:5639   */\n  tag_111\n    /* \"#utility.yul\":5572:5638   */\n  0xffffffffffffffffffffffffffffffffffffffffffffffffffffffffffffffff\n    /* \"#utility.yul\":5561:5570   */\n  dup3\n    /* \"#utility.yul\":5542:5639   */\n  tag_34\n  jump\t// in\ntag_111:\n    /* \"#utility.yul\":5660:5699   */\n  tag_112\n    /* \"#utility.yul\":5690:5698   */\n  dup7\n    /* \"#utility.yul\":5679:5688   */\n  dup4\n    /* \"#utility.yul\":5660:5699   */\n  tag_34\n  jump\t// in\ntag_112:\n    /* \"#utility.yul\":5648:5699   */\n  swap6\n  pop\n    /* \"#utility.yul\":5732:5736   */\n  dup1\n    /* \"#utility.yul\":5728:5737   */\n  not\n    /* \"#utility.yul\":5721:5726   */\n  dup5\n    /* \"#utility.yul\":5717:5738   */\n  and\n    /* \"#utility.yul\":5708:5738   */\n  swap4\n  pop\n    /* \"#utility.yul\":5781:5785   */\n  dup1\n    /* \"#utility.yul\":5771:5779   */\n  dup7\n    /* \"#utility.yul\":5767:5786   */\n  and\n    /* \"#utility.yul\":5760:5765   */\n  dup5\n    /* \"#utility.yul\":5757:5787   */\n  or\n    /* \"#utility.yul\":5747:5787   */\n  swap3\n  pop\n    /* \"#utility.yul\":5476:5793   */\n  pop\n  pop\n    /* \"#utility.yul\":5400:5793   */\n  swap4\n  swap3\n  pop\n  pop\n  pop\n  jump\t// out\n    /* \"#utility.yul\":5799:5859   */\ntag_36:\n    /* \"#utility.yul\":5827:5830   */\n  0x00\n    /* \"#utility.yul\":5848:5853   */\n  dup2\n    /* \"#utility.yul\":5841:5853   */\n  swap1\n  pop\n    /* \"#utility.yul\":5799:5859   */\n  swap2\n  swap1\n  pop\n  jump\t// out\n    /* \"#utility.yul\":5865:6007   */\ntag_37:\n    /* \"#utility.yul\":5915:5924   */\n  0x00\n    /* \"#utility.yul\":5948:6001   */\n  tag_115\n    /* \"#utility.yul\":5966:6000   */\n  tag_116\n    /* \"#utility.yul\":5975:5999   */\n  tag_117\n    /* \"#utility.yul\":5993:5998   */\n  dup5\n    /* \"#utility.yul\":5975:5999   */\n  tag_25\n  jump\t// in\ntag_117:\n    /* \"#utility.yul\":5966:6000   */\n  tag_36\n  jump\t// in\ntag_116:\n    /* \"#utility.yul\":5948:6001   */\n  tag_25\n  jump\t// in\ntag_115:\n    /* \"#utility.yul\":5935:6001   */\n  swap1\n  pop\n    /* \"#utility.yul\":5865:6007   */\n  swap2\n  swap1\n  pop\n  jump\t// out\n    /* \"#utility.yul\":6013:6088   */\ntag_38:\n    /* \"#utility.yul\":6056:6059   */\n  0x00\n    /* \"#utility.yul\":6077:6082   */\n  dup2\n    /* \"#utility.yul\":6070:6082   */\n  swap1\n  pop\n    /* \"#utility.yul\":6013:6088   */\n  swap2\n  swap1\n  pop\n  jump\t// out\n    /* \"#utility.yul\":6094:6363   */\ntag_39:\n    /* \"#utility.yul\":6204:6243   */\n  tag_120\n    /* \"#utility.yul\":6235:6242   */\n  dup4\n    /* \"#utility.yul\":6204:6243   */\n  tag_37\n  jump\t// in\ntag_120:\n    /* \"#utility.yul\":6265:6356   */\n  tag_121\n    /* \"#utility.yul\":6314:6355   */\n  tag_122\n    /* \"#utility.yul\":6338:6354   */\n  dup3\n    /* \"#utility.yul\":6314:6355   */\n  tag_38\n  jump\t// in\ntag_122:\n    /* \"#utility.yul\":6306:6312   */\n  dup5\n    /* \"#utility.yul\":6299:6303   */\n  dup5\n    /* \"#utility.yul\":6293:6304   */\n  sload\n    /* \"#utility.yul\":6265:6356   */\n  tag_35\n  jump\t// in\ntag_121:\n    /* \"#utility.yul\":6259:6263   */\n  dup3\n    /* \"#utility.yul\":6252:6357   */\n  sstore\n    /* \"#utility.yul\":6170:6363   */\n  pop\n    /* \"#utility.yul\":6094:6363   */\n  pop\n  pop\n  pop\n  jump\t// out\n    /* \"#utility.yul\":6369:6442   */\ntag_40:\n    /* \"#utility.yul\":6414:6417   */\n  0x00\n    /* \"#utility.yul\":6369:6442   */\n  swap1\n  jump\t// out\n    /* \"#utility.yul\":6448:6637   */\ntag_41:\n    /* \"#utility.yul\":6525:6557   */\n  tag_125\n  tag_40\n  jump\t// in\ntag_125:\n    /* \"#utility.yul\":6566:6631   */\n  tag_126\n    /* \"#utility.yul\":6624:6630   */\n  dup2\n    /* \"#utility.yul\":6616:6622   */\n  dup5\n    /* \"#utility.yul\":6610:6614   */\n  dup5\n    /* \"#utility.yul\":6566:6631   */\n  tag_39\n  jump\t// in\ntag_126:\n    /* \"#utility.yul\":6501:6637   */\n  pop\n    /* \"#utility.yul\":6448:6637   */\n  pop\n  pop\n  jump\t// out\n    /* \"#utility.yul\":6643:6829   */\ntag_42:\n    /* \"#utility.yul\":6703:6823   */\ntag_128:\n    /* \"#utility.yul\":6720:6723   */\n  dup2\n    /* \"#utility.yul\":6713:6718   */\n  dup2\n    /* \"#utility.yul\":6710:6724   */\n  lt\n    /* \"#utility.yul\":6703:6823   */\n  iszero\n  tag_130\n  jumpi\n    /* \"#utility.yul\":6774:6813   */\n  tag_131\n    /* \"#utility.yul\":6811:6812   */\n  0x00\n    /* \"#utility.yul\":6804:6809   */\n  dup3\n    /* \"#utility.yul\":6774:6813   */\n  tag_41\n  jump\t// in\ntag_131:\n    /* \"#utility.yul\":6747:6748   */\n  0x01\n    /* \"#utility.yul\":6740:6745   */\n  dup2\n    /* \"#utility.yul\":6736:6749   */\n  add\n    /* \"#utility.yul\":6727:6749   */\n  swap1\n  pop\n    /* \"#utility.yul\":6703:6823   */\n  jump(tag_128)\ntag_130:\n    /* \"#utility.yul\":6643:6829   */\n  pop\n  pop\n  jump\t// out\n    /* \"#utility.yul\":6835:7378   */\ntag_43:\n    /* \"#utility.yul\":6936:6938   */\n  0x1f\n    /* \"#utility.yul\":6931:6934   */\n  dup3\n    /* \"#utility.yul\":6928:6939   */\n  gt\n    /* \"#utility.yul\":6925:7371   */\n  iszero\n  tag_133\n  jumpi\n    /* \"#utility.yul\":6970:7008   */\n  tag_134\n    /* \"#utility.yul\":7002:7007   */\n  dup2\n    /* \"#utility.yul\":6970:7008   */\n  tag_32\n  jump\t// in\ntag_134:\n    /* \"#utility.yul\":7054:7083   */\n  tag_135\n    /* \"#utility.yul\":7072:7082   */\n  dup5\n    /* \"#utility.yul\":7054:7083   */\n  tag_33\n  jump\t// in\ntag_135:\n    /* \"#utility.yul\":7044:7052   */\n  dup2\n    /* \"#utility.yul\":7040:7084   */\n  add\n    /* \"#utility.yul\":7237:7239   */\n  0x20\n    /* \"#utility.yul\":7225:7235   */\n  dup6\n    /* \"#utility.yul\":7222:7240   */\n  lt\n    /* \"#utility.yul\":7219:7268   */\n  iszero\n  tag_136\n  jumpi\n    /* \"#utility.yul\":7258:7266   */\n  dup2\n    /* \"#utility.yul\":7243:7266   */\n  swap1\n  pop\n    /* \"#utility.yul\":7219:7268   */\ntag_136:\n    /* \"#utility.yul\":7281:7361   */\n  tag_137\n    /* \"#utility.yul\":7337:7359   */\n  tag_138\n    /* \"#utility.yul\":7355:7358   */\n  dup6\n    /* \"#utility.yul\":7337:7359   */\n  tag_33\n  jump\t// in\ntag_138:\n    /* \"#utility.yul\":7327:7335   */\n  dup4\n    /* \"#utility.yul\":7323:7360   */\n  add\n    /* \"#utility.yul\":7310:7321   */\n  dup3\n    /* \"#utility.yul\":7281:7361   */\n  tag_42\n  jump\t// in\ntag_137:\n    /* \"#utility.yul\":6940:7371   */\n  pop\n  pop\n    /* \"#utility.yul\":6925:7371   */\ntag_133:\n    /* \"#utility.yul\":6835:7378   */\n  pop\n  pop\n  pop\n  jump\t// out\n    /* \"#utility.yul\":7384:7501   */\ntag_44:\n    /* \"#utility.yul\":7438:7446   */\n  0x00\n    /* \"#utility.yul\":7488:7493   */\n  dup3\n    /* \"#utility.yul\":7482:7486   */\n  dup3\n    /* \"#utility.yul\":7478:7494   */\n  shr\n    /* \"#utility.yul\":7457:7494   */\n  swap1\n  pop\n    /* \"#utility.yul\":7384:7501   */\n  swap3\n  swap2\n  pop\n  pop\n  jump\t// out\n    /* \"#utility.yul\":7507:7676   */\ntag_45:\n    /* \"#utility.yul\":7551:7557   */\n  0x00\n    /* \"#utility.yul\":7584:7635   */\n  tag_141\n    /* \"#utility.yul\":7632:7633   */\n  0x00\n    /* \"#utility.yul\":7628:7634   */\n  not\n    /* \"#utility.yul\":7620:7625   */\n  dup5\n    /* \"#utility.yul\":7617:7618   */\n  0x08\n    /* \"#utility.yul\":7613:7626   */\n  mul\n    /* \"#utility.yul\":7584:7635   */\n  tag_44\n  jump\t// in\ntag_141:\n    /* \"#utility.yul\":7580:7636   */\n  not\n    /* \"#utility.yul\":7665:7669   */\n  dup1\n    /* \"#utility.yul\":7659:7663   */\n  dup4\n    /* \"#utility.yul\":7655:7670   */\n  and\n    /* \"#utility.yul\":7645:7670   */\n  swap2\n  pop\n    /* \"#utility.yul\":7558:7676   */\n  pop\n    /* \"#utility.yul\":7507:7676   */\n  swap3\n  swap2\n  pop\n  pop\n  jump\t// out\n    /* \"#utility.yul\":7681:7976   */\ntag_46:\n    /* \"#utility.yul\":7757:7761   */\n  0x00\n    /* \"#utility.yul\":7903:7932   */\n  tag_143\n    /* \"#utility.yul\":7928:7931   */\n  dup4\n    /* \"#utility.yul\":7922:7926   */\n  dup4\n    /* \"#utility.yul\":7903:7932   */\n  tag_45\n  jump\t// in\ntag_143:\n    /* \"#utility.yul\":7895:7932   */\n  swap2\n  pop\n    /* \"#utility.yul\":7965:7968   */\n  dup3\n    /* \"#utility.yul\":7962:7963   */\n  0x02\n    /* \"#utility.yul\":7958:7969   */\n  mul\n    /* \"#utility.yul\":7952:7956   */\n  dup3\n    /* \"#utility.yul\":7949:7970   */\n  or\n    /* \"#utility.yul\":7941:7970   */\n  swap1\n  pop\n    /* \"#utility.yul\":7681:7976   */\n  swap3\n  swap2\n  pop\n  pop\n  jump\t// out\n    /* \"#utility.yul\":7981:9376   */\ntag_9:\n    /* \"#utility.yul\":8098:8135   */\n  tag_145\n    /* \"#utility.yul\":8131:8134   */\n  dup3\n    /* \"#utility.yul\":8098:8135   */\n  tag_29\n  jump\t// in\ntag_145:\n    /* \"#utility.yul\":8200:8218   */\n  0xffffffffffffffff\n    /* \"#utility.yul\":8192:8198   */\n  dup2\n    /* \"#utility.yul\":8189:8219   */\n  gt\n    /* \"#utility.yul\":8186:8242   */\n  iszero\n  tag_146\n  jumpi\n    /* \"#utility.yul\":8222:8240   */\n  tag_147\n  tag_18\n  jump\t// in\ntag_147:\n    /* \"#utility.yul\":8186:8242   */\ntag_146:\n    /* \"#utility.yul\":8266:8304   */\n  tag_148\n    /* \"#utility.yul\":8298:8302   */\n  dup3\n    /* \"#utility.yul\":8292:8303   */\n  sload\n    /* \"#utility.yul\":8266:8304   */\n  tag_31\n  jump\t// in\ntag_148:\n    /* \"#utility.yul\":8351:8418   */\n  tag_149\n    /* \"#utility.yul\":8411:8417   */\n  dup3\n    /* \"#utility.yul\":8403:8409   */\n  dup3\n    /* \"#utility.yul\":8397:8401   */\n  dup6\n    /* \"#utility.yul\":8351:8418   */\n  tag_43\n  jump\t// in\ntag_149:\n    /* \"#utility.yul\":8445:8446   */\n  0x00\n    /* \"#utility.yul\":8469:8473   */\n  0x20\n    /* \"#utility.yul\":8456:8473   */\n  swap1\n  pop\n    /* \"#utility.yul\":8501:8503   */\n  0x1f\n    /* \"#utility.yul\":8493:8499   */\n  dup4\n    /* \"#utility.yul\":8490:8504   */\n  gt\n    /* \"#utility.yul\":8518:8519   */\n  0x01\n    /* \"#utility.yul\":8513:9131   */\n  dup2\n  eq\n  tag_151\n  jumpi\n    /* \"#utility.yul\":9175:9176   */\n  0x00\n    /* \"#utility.yul\":9192:9198   */\n  dup5\n    /* \"#utility.yul\":9189:9266   */\n  iszero\n  tag_152\n  jumpi\n    /* \"#utility.yul\":9241:9250   */\n  dup3\n    /* \"#utility.yul\":9236:9239   */\n  dup8\n    /* \"#utility.yul\":9232:9251   */\n  add\n    /* \"#utility.yul\":9226:9252   */\n  mload\n    /* \"#utility.yul\":9217:9252   */\n  swap1\n  pop\n    /* \"#utility.yul\":9189:9266   */\ntag_152:\n    /* \"#utility.yul\":9292:9359   */\n  tag_153\n    /* \"#utility.yul\":9352:9358   */\n  dup6\n    /* \"#utility.yul\":9345:9350   */\n  dup3\n    /* \"#utility.yul\":9292:9359   */\n  tag_46\n  jump\t// in\ntag_153:\n    /* \"#utility.yul\":9286:9290   */\n  dup7\n    /* \"#utility.yul\":9279:9360   */\n  sstore\n    /* \"#utility.yul\":9148:9370   */\n  pop\n    /* \"#utility.yul\":8483:9370   */\n  jump(tag_150)\n    /* \"#utility.yul\":8513:9131   */\ntag_151:\n    /* \"#utility.yul\":8565:8569   */\n  0x1f\n    /* \"#utility.yul\":8561:8570   */\n  not\n    /* \"#utility.yul\":8553:8559   */\n  dup5\n    /* \"#utility.yul\":8549:8571   */\n  and\n    /* \"#utility.yul\":8599:8636   */\n  tag_154\n    /* \"#utility.yul\":8631:8635   */\n  dup7\n    /* \"#utility.yul\":8599:8636   */\n  tag_32\n  jump\t// in\ntag_154:\n    /* \"#utility.yul\":8658:8659   */\n  0x00\n    /* \"#utility.yul\":8672:8880   */\ntag_155:\n    /* \"#utility.yul\":8686:8693   */\n  dup3\n    /* \"#utility.yul\":8683:8684   */\n  dup2\n    /* \"#utility.yul\":8680:8694   */\n  lt\n    /* \"#utility.yul\":8672:8880   */\n  iszero\n  tag_157\n  jumpi\n    /* \"#utility.yul\":8765:8774   */\n  dup5\n    /* \"#utility.yul\":8760:8763   */\n  dup10\n    /* \"#utility.yul\":8756:8775   */\n  add\n    /* \"#utility.yul\":8750:8776   */\n  mload\n    /* \"#utility.yul\":8742:8748   */\n  dup3\n    /* \"#utility.yul\":8735:8777   */\n  sstore\n    /* \"#utility.yul\":8816:8817   */\n  0x01\n    /* \"#utility.yul\":8808:8814   */\n  dup3\n    /* \"#utility.yul\":8804:8818   */\n  add\n    /* \"#utility.yul\":8794:8818   */\n  swap2\n  pop\n    /* \"#utility.yul\":8863:8865   */\n  0x20\n    /* \"#utility.yul\":8852:8861   */\n  dup6\n    /* \"#utility.yul\":8848:8866   */\n  add\n    /* \"#utility.yul\":8835:8866   */\n  swap5\n  pop\n    /* \"#utility.yul\":8709:8713   */\n  0x20\n    /* \"#utility.yul\":8706:8707   */\n  dup2\n    /* \"#utility.yul\":8702:8714   */\n  add\n    /* \"#utility.yul\":8697:8714   */\n  swap1\n  pop\n    /* \"#utility.yul\":8672:8880   */\n  jump(tag_155)\ntag_157:\n    /* \"#utility.yul\":8908:8914   */\n  dup7\n    /* \"#utility.yul\":8899:8906   */\n  dup4\n    /* \"#utility.yul\":8896:8915   */\n  lt\n    /* \"#utility.yul\":8893:9072   */\n  iszero\n  tag_158\n  jumpi\n    /* \"#utility.yul\":8966:8975   */\n  dup5\n    /* \"#utility.yul\":8961:8964   */\n  dup10\n    /* \"#utility.yul\":8957:8976   */\n  add\n    /* \"#utility.yul\":8951:8977   */\n  mload\n    /* \"#utility.yul\":9009:9057   */\n  tag_159\n    /* \"#utility.yul\":9051:9055   */\n  0x1f\n    /* \"#utility.yul\":9043:9049   */\n  dup10\n    /* \"#utility.yul\":9039:9056   */\n  and\n    /* \"#utility.yul\":9028:9037   */\n  dup3\n    /* \"#utility.yul\":9009:9057   */\n  tag_45\n  jump\t// in\ntag_159:\n    /* \"#utility.yul\":9001:9007   */\n  dup4\n    /* \"#utility.yul\":8994:9058   */\n  sstore\n    /* \"#utility.yul\":8916:9072   */\n  pop\n    /* \"#utility.yul\":8893:9072   */\ntag_158:\n    /* \"#utility.yul\":9118:9119   */\n  0x01\n    /* \"#utility.yul\":9114:9115   */\n  0x02\n    /* \"#utility.yul\":9106:9112   */\n  dup9\n    /* \"#utility.yul\":9102:9116   */\n  mul\n    /* \"#utility.yul\":9098:9120   */\n  add\n    /* \"#utility.yul\":9092:9096   */\n  dup9\n    /* \"#utility.yul\":9085:9121   */\n  sstore\n    /* \"#utility.yul\":8520:9131   */\n  pop\n  pop\n  pop\n    /* \"#utility.yul\":8483:9370   */\ntag_150:\n  pop\n    /* \"#utility.yul\":8073:9376   */\n  pop\n  pop\n  pop\n    /* \"#utility.yul\":7981:9376   */\n  pop\n  pop\n  jump\t// out\n    /* \"contracts/BusinessConsensus.sol\":33:4691  contract BusinessConsensus{... */\ntag_11:\n  dataSize(sub_0)\n  dup1\n  dataOffset(sub_0)\n  0x00\n  codecopy\n  0x00\n  return\nstop\n\nsub_0: assembly {\n        /* \"contracts/BusinessConsensus.sol\":33:4691  contract BusinessConsensus{... */\n      mstore(0x40, 0x80)\n      callvalue\n      dup1\n      iszero\n      tag_1\n      jumpi\n      0x00\n      dup1\n      revert\n    tag_1:\n      pop\n      jumpi(tag_2, lt(calldatasize, 0x04))\n      shr(0xe0, calldataload(0x00))\n      dup1\n      0x753ec103\n      gt\n      tag_20\n      jumpi\n      dup1\n      0xa5ea11da\n      gt\n      tag_21\n      jumpi\n      dup1\n      0xa5ea11da\n      eq\n      tag_15\n      jumpi\n      dup1\n      0xd77aa749\n      eq\n      tag_16\n      jumpi\n      dup1\n      0xda58c7d9\n      eq\n      tag_17\n      jumpi\n      dup1\n      0xf6b4dfb4\n      eq\n      tag_18\n      jumpi\n      dup1\n      0xfe8ff236\n      eq\n      tag_19\n      jumpi\n      jump(tag_2)\n    tag_21:\n      dup1\n      0x753ec103\n      eq\n      tag_11\n      jumpi\n      dup1\n      0x8d337b81\n      eq\n      tag_12\n      jumpi\n      dup1\n      0x95b02dfa\n      eq\n      tag_13\n      jumpi\n      dup1\n      0x9aa4bbdd\n      eq\n      tag_14\n      jumpi\n      jump(tag_2)\n    tag_20:\n      dup1\n      0x323082d7\n      gt\n      tag_22\n      jumpi\n      dup1\n      0x323082d7\n      eq\n      tag_7\n      jumpi\n      dup1\n      0x5c39fcc1\n      eq\n      tag_8\n      jumpi\n      dup1\n      0x604c8333\n      eq\n      tag_9\n      jumpi\n      dup1\n      0x7403c5e5\n      eq\n      tag_10\n      jumpi\n      jump(tag_2)\n    tag_22:\n      dup1\n      0x0cb6aaf1\n      eq\n      tag_3\n      jumpi\n      dup1\n      0x15fe6f1b\n      eq\n      tag_4\n      jumpi\n      dup1\n      0x19eb4a90\n      eq\n      tag_5\n      jumpi\n      dup1\n      0x2d15cc04\n      eq\n      tag_6\n      jumpi\n    tag_2:\n      0x00\n      dup1\n      revert\n        /* \"contracts/BusinessConsensus.sol\":1036:1057  address[] public keys */\n    tag_3:\n      tag_23\n      0x04\n      dup1\n      calldatasize\n      sub\n      dup2\n      add\n      swap1\n      tag_24\n      swap2\n      swap1\n      tag_25\n      jump\t// in\n    tag_24:\n      tag_26\n      jump\t// in\n    tag_23:\n      mload(0x40)\n      tag_27\n      swap2\n      swap1\n      tag_28\n      jump\t// in\n    tag_27:\n      mload(0x40)\n      dup1\n      swap2\n      sub\n      swap1\n      return\n        /* \"contracts/BusinessConsensus.sol\":2092:2673  function RegisterVoter(address voter) external {... */\n    tag_4:\n      tag_29\n      0x04\n      dup1\n      calldatasize\n      sub\n      dup2\n      add\n      swap1\n      tag_30\n      swap2\n      swap1\n      tag_31\n      jump\t// in\n    tag_30:\n      tag_32\n      jump\t// in\n    tag_29:\n      stop\n        /* \"contracts/BusinessConsensus.sol\":1783:1883  function getValues() public view returns (string memory){... */\n    tag_5:\n      tag_33\n      tag_34\n      jump\t// in\n    tag_33:\n      mload(0x40)\n      tag_35\n      swap2\n      swap1\n      tag_36\n      jump\t// in\n    tag_35:\n      mload(0x40)\n      dup1\n      swap2\n      sub\n      swap1\n      return\n        /* \"contracts/BusinessConsensus.sol\":2681:2789  function getVoters(address voter) public view returns(bool){... */\n    tag_6:\n      tag_37\n      0x04\n      dup1\n      calldatasize\n      sub\n      dup2\n      add\n      swap1\n      tag_38\n      swap2\n      swap1\n      tag_31\n      jump\t// in\n    tag_38:\n      tag_39\n      jump\t// in\n    tag_37:\n      mload(0x40)\n      tag_40\n      swap2\n      swap1\n      tag_41\n      jump\t// in\n    tag_40:\n      mload(0x40)\n      dup1\n      swap2\n      sub\n      swap1\n      return\n        /* \"contracts/BusinessConsensus.sol\":2957:3891  function Vote(string memory response) external {... */\n    tag_7:\n      tag_42\n      0x04\n      dup1\n      calldatasize\n      sub\n      dup2\n      add\n      swap1\n      tag_43\n      swap2\n      swap1\n      tag_44\n      jump\t// in\n    tag_43:\n      tag_45\n      jump\t// in\n    tag_42:\n      stop\n        /* \"contracts/BusinessConsensus.sol\":862:886  address public initiator */\n    tag_8:\n      tag_46\n      tag_47\n      jump\t// in\n    tag_46:\n      mload(0x40)\n      tag_48\n      swap2\n      swap1\n      tag_28\n      jump\t// in\n    tag_48:\n      mload(0x40)\n      dup1\n      swap2\n      sub\n      swap1\n      return\n        /* \"contracts/BusinessConsensus.sol\":935:968  uint public AccumulatedPercentage */\n    tag_9:\n      tag_49\n      tag_50\n      jump\t// in\n    tag_49:\n      mload(0x40)\n      tag_51\n      swap2\n      swap1\n      tag_52\n      jump\t// in\n    tag_51:\n      mload(0x40)\n      dup1\n      swap2\n      sub\n      swap1\n      return\n        /* \"contracts/BusinessConsensus.sol\":975:999  uint public numApprovals */\n    tag_10:\n      tag_53\n      tag_54\n      jump\t// in\n    tag_53:\n      mload(0x40)\n      tag_55\n      swap2\n      swap1\n      tag_52\n      jump\t// in\n    tag_55:\n      mload(0x40)\n      dup1\n      swap2\n      sub\n      swap1\n      return\n        /* \"contracts/BusinessConsensus.sol\":1184:1208  Proposal public proposal */\n    tag_11:\n      tag_56\n      tag_57\n      jump\t// in\n    tag_56:\n      mload(0x40)\n      tag_58\n      swap3\n      swap2\n      swap1\n      tag_59\n      jump\t// in\n    tag_58:\n      mload(0x40)\n      dup1\n      swap2\n      sub\n      swap1\n      return\n        /* \"contracts/BusinessConsensus.sol\":2797:2902  function getVote(address voter) public view returns(bool){... */\n    tag_12:\n      tag_60\n      0x04\n      dup1\n      calldatasize\n      sub\n      dup2\n      add\n      swap1\n      tag_61\n      swap2\n      swap1\n      tag_31\n      jump\t// in\n    tag_61:\n      tag_62\n      jump\t// in\n    tag_60:\n      mload(0x40)\n      tag_63\n      swap2\n      swap1\n      tag_41\n      jump\t// in\n    tag_63:\n      mload(0x40)\n      dup1\n      swap2\n      sub\n      swap1\n      return\n        /* \"contracts/BusinessConsensus.sol\":3955:4439  function Consensus() external {... */\n    tag_13:\n      tag_64\n      tag_65\n      jump\t// in\n    tag_64:\n      stop\n        /* \"contracts/BusinessConsensus.sol\":1064:1107  mapping(address => Voter) public voters_map */\n    tag_14:\n      tag_66\n      0x04\n      dup1\n      calldatasize\n      sub\n      dup2\n      add\n      swap1\n      tag_67\n      swap2\n      swap1\n      tag_31\n      jump\t// in\n    tag_67:\n      tag_68\n      jump\t// in\n    tag_66:\n      mload(0x40)\n      tag_69\n      swap4\n      swap3\n      swap2\n      swap1\n      tag_70\n      jump\t// in\n    tag_69:\n      mload(0x40)\n      dup1\n      swap2\n      sub\n      swap1\n      return\n        /* \"contracts/BusinessConsensus.sol\":1889:1986  function getParameters() public view returns (uint ){... */\n    tag_15:\n      tag_71\n      tag_72\n      jump\t// in\n    tag_71:\n      mload(0x40)\n      tag_73\n      swap2\n      swap1\n      tag_52\n      jump\t// in\n    tag_73:\n      mload(0x40)\n      dup1\n      swap2\n      sub\n      swap1\n      return\n        /* \"contracts/BusinessConsensus.sol\":897:928  uint public BusinessRequirement */\n    tag_16:\n      tag_74\n      tag_75\n      jump\t// in\n    tag_74:\n      mload(0x40)\n      tag_76\n      swap2\n      swap1\n      tag_52\n      jump\t// in\n    tag_76:\n      mload(0x40)\n      dup1\n      swap2\n      sub\n      swap1\n      return\n        /* \"contracts/BusinessConsensus.sol\":1008:1029  Voter[] public voters */\n    tag_17:\n      tag_77\n      0x04\n      dup1\n      calldatasize\n      sub\n      dup2\n      add\n      swap1\n      tag_78\n      swap2\n      swap1\n      tag_25\n      jump\t// in\n    tag_78:\n      tag_79\n      jump\t// in\n    tag_77:\n      mload(0x40)\n      tag_80\n      swap4\n      swap3\n      swap2\n      swap1\n      tag_70\n      jump\t// in\n    tag_80:\n      mload(0x40)\n      dup1\n      swap2\n      sub\n      swap1\n      return\n        /* \"contracts/BusinessConsensus.sol\":596:626  address public contractAddress */\n    tag_18:\n      tag_81\n      tag_82\n      jump\t// in\n    tag_81:\n      mload(0x40)\n      tag_83\n      swap2\n      swap1\n      tag_28\n      jump\t// in\n    tag_83:\n      mload(0x40)\n      dup1\n      swap2\n      sub\n      swap1\n      return\n        /* \"contracts/BusinessConsensus.sol\":4447:4686  function Bundle() public view returns (string memory, Proposal memory, Voter[] memory){... */\n    tag_19:\n      tag_84\n      tag_85\n      jump\t// in\n    tag_84:\n      mload(0x40)\n      tag_86\n      swap4\n      swap3\n      swap2\n      swap1\n      tag_87\n      jump\t// in\n    tag_86:\n      mload(0x40)\n      dup1\n      swap2\n      sub\n      swap1\n      return\n        /* \"contracts/BusinessConsensus.sol\":1036:1057  address[] public keys */\n    tag_26:\n      0x08\n      dup2\n      dup2\n      sload\n      dup2\n      lt\n      tag_88\n      jumpi\n      0x00\n      dup1\n      revert\n    tag_88:\n      swap1\n      0x00\n      mstore\n      keccak256(0x00, 0x20)\n      add\n      0x00\n      swap2\n      pop\n      sload\n      swap1\n      0x0100\n      exp\n      swap1\n      div\n      0xffffffffffffffffffffffffffffffffffffffff\n      and\n      dup2\n      jump\t// out\n        /* \"contracts/BusinessConsensus.sol\":2092:2673  function RegisterVoter(address voter) external {... */\n    tag_32:\n        /* \"contracts/BusinessConsensus.sol\":2260:2269  initiator */\n      0x03\n      0x00\n      swap1\n      sload\n      swap1\n      0x0100\n      exp\n      swap1\n      div\n      0xffffffffffffffffffffffffffffffffffffffff\n      and\n        /* \"contracts/BusinessConsensus.sol\":2246:2269  msg.sender == initiator */\n      0xffffffffffffffffffffffffffffffffffffffff\n      and\n        /* \"contracts/BusinessConsensus.sol\":2246:2256  msg.sender */\n      caller\n        /* \"contracts/BusinessConsensus.sol\":2246:2269  msg.sender == initiator */\n      0xffffffffffffffffffffffffffffffffffffffff\n      and\n      eq\n        /* \"contracts/BusinessConsensus.sol\":2224:2337  require(... */\n      tag_91\n      jumpi\n      mload(0x40)\n      0x08c379a000000000000000000000000000000000000000000000000000000000\n      dup2\n      mstore\n      0x04\n      add\n      tag_92\n      swap1\n      tag_93\n      jump\t// in\n    tag_92:\n      mload(0x40)\n      dup1\n      swap2\n      sub\n      swap1\n      revert\n    tag_91:\n        /* \"contracts/BusinessConsensus.sol\":2397:2398  0 */\n      0x00\n        /* \"contracts/BusinessConsensus.sol\":2358:2399  voters_map[voter].recipient == address(0) */\n      0xffffffffffffffffffffffffffffffffffffffff\n      and\n        /* \"contracts/BusinessConsensus.sol\":2358:2368  voters_map */\n      0x09\n        /* \"contracts/BusinessConsensus.sol\":2358:2375  voters_map[voter] */\n      0x00\n        /* \"contracts/BusinessConsensus.sol\":2369:2374  voter */\n      dup4\n        /* \"contracts/BusinessConsensus.sol\":2358:2375  voters_map[voter] */\n      0xffffffffffffffffffffffffffffffffffffffff\n      and\n      0xffffffffffffffffffffffffffffffffffffffff\n      and\n      dup2\n      mstore\n      0x20\n      add\n      swap1\n      dup2\n      mstore\n      0x20\n      add\n      0x00\n      keccak256\n        /* \"contracts/BusinessConsensus.sol\":2358:2385  voters_map[voter].recipient */\n      0x00\n      add\n      0x01\n      swap1\n      sload\n      swap1\n      0x0100\n      exp\n      swap1\n      div\n      0xffffffffffffffffffffffffffffffffffffffff\n      and\n        /* \"contracts/BusinessConsensus.sol\":2358:2399  voters_map[voter].recipient == address(0) */\n      0xffffffffffffffffffffffffffffffffffffffff\n      and\n      eq\n        /* \"contracts/BusinessConsensus.sol\":2350:2435  require(voters_map[voter].recipient == address(0), \"Recipient is already registered\") */\n      tag_94\n      jumpi\n      mload(0x40)\n      0x08c379a000000000000000000000000000000000000000000000000000000000\n      dup2\n      mstore\n      0x04\n      add\n      tag_95\n      swap1\n      tag_96\n      jump\t// in\n    tag_95:\n      mload(0x40)\n      dup1\n      swap2\n      sub\n      swap1\n      revert\n    tag_94:\n        /* \"contracts/BusinessConsensus.sol\":2474:2484  expiryDate */\n      sload(0x01)\n        /* \"contracts/BusinessConsensus.sol\":2456:2471  block.timestamp */\n      timestamp\n        /* \"contracts/BusinessConsensus.sol\":2456:2484  block.timestamp < expiryDate */\n      lt\n        /* \"contracts/BusinessConsensus.sol\":2448:2525  require(block.timestamp < expiryDate, \"Proposal has reached its expiry date\") */\n      tag_97\n      jumpi\n      mload(0x40)\n      0x08c379a000000000000000000000000000000000000000000000000000000000\n      dup2\n      mstore\n      0x04\n      add\n      tag_98\n      swap1\n      tag_99\n      jump\t// in\n    tag_98:\n      mload(0x40)\n      dup1\n      swap2\n      sub\n      swap1\n      revert\n    tag_97:\n        /* \"contracts/BusinessConsensus.sol\":2538:2552  Voter memory x */\n      0x00\n        /* \"contracts/BusinessConsensus.sol\":2555:2606  Voter({voted: false,recipient: voter, vote: false}) */\n      mload(0x40)\n      dup1\n      0x60\n      add\n      0x40\n      mstore\n      dup1\n        /* \"contracts/BusinessConsensus.sol\":2569:2574  false */\n      0x00\n        /* \"contracts/BusinessConsensus.sol\":2555:2606  Voter({voted: false,recipient: voter, vote: false}) */\n      iszero\n      iszero\n      dup2\n      mstore\n      0x20\n      add\n        /* \"contracts/BusinessConsensus.sol\":2586:2591  voter */\n      dup4\n        /* \"contracts/BusinessConsensus.sol\":2555:2606  Voter({voted: false,recipient: voter, vote: false}) */\n      0xffffffffffffffffffffffffffffffffffffffff\n      and\n      dup2\n      mstore\n      0x20\n      add\n        /* \"contracts/BusinessConsensus.sol\":2599:2604  false */\n      0x00\n        /* \"contracts/BusinessConsensus.sol\":2555:2606  Voter({voted: false,recipient: voter, vote: false}) */\n      iszero\n      iszero\n      dup2\n      mstore\n      pop\n        /* \"contracts/BusinessConsensus.sol\":2538:2606  Voter memory x = Voter({voted: false,recipient: voter, vote: false}) */\n      swap1\n      pop\n        /* \"contracts/BusinessConsensus.sol\":2637:2638  x */\n      dup1\n        /* \"contracts/BusinessConsensus.sol\":2617:2627  voters_map */\n      0x09\n        /* \"contracts/BusinessConsensus.sol\":2617:2634  voters_map[voter] */\n      0x00\n        /* \"contracts/BusinessConsensus.sol\":2628:2633  voter */\n      dup5\n        /* \"contracts/BusinessConsensus.sol\":2617:2634  voters_map[voter] */\n      0xffffffffffffffffffffffffffffffffffffffff\n      and\n      0xffffffffffffffffffffffffffffffffffffffff\n      and\n      dup2\n      mstore\n      0x20\n      add\n      swap1\n      dup2\n      mstore\n      0x20\n      add\n      0x00\n      keccak256\n        /* \"contracts/BusinessConsensus.sol\":2617:2638  voters_map[voter] = x */\n      0x00\n      dup3\n      add\n      mload\n      dup2\n      0x00\n      add\n      exp(0x0100, 0x00)\n      dup2\n      sload\n      dup2\n      0xff\n      mul\n      not\n      and\n      swap1\n      dup4\n      iszero\n      iszero\n      mul\n      or\n      swap1\n      sstore\n      pop\n      0x20\n      dup3\n      add\n      mload\n      dup2\n      0x00\n      add\n      exp(0x0100, 0x01)\n      dup2\n      sload\n      dup2\n      0xffffffffffffffffffffffffffffffffffffffff\n      mul\n      not\n      and\n      swap1\n      dup4\n      0xffffffffffffffffffffffffffffffffffffffff\n      and\n      mul\n      or\n      swap1\n      sstore\n      pop\n      0x40\n      dup3\n      add\n      mload\n      dup2\n      0x00\n      add\n      exp(0x0100, 0x15)\n      dup2\n      sload\n      dup2\n      0xff\n      mul\n      not\n      and\n      swap1\n      dup4\n      iszero\n      iszero\n      mul\n      or\n      swap1\n      sstore\n      pop\n      swap1\n      pop\n      pop\n        /* \"contracts/BusinessConsensus.sol\":2649:2653  keys */\n      0x08\n        /* \"contracts/BusinessConsensus.sol\":2659:2664  voter */\n      dup3\n        /* \"contracts/BusinessConsensus.sol\":2649:2665  keys.push(voter) */\n      swap1\n      dup1\n      0x01\n      dup2\n      sload\n      add\n      dup1\n      dup3\n      sstore\n      dup1\n      swap2\n      pop\n      pop\n      0x01\n      swap1\n      sub\n      swap1\n      0x00\n      mstore\n      keccak256(0x00, 0x20)\n      add\n      0x00\n      swap1\n      swap2\n      swap1\n      swap2\n      swap1\n      swap2\n      0x0100\n      exp\n      dup2\n      sload\n      dup2\n      0xffffffffffffffffffffffffffffffffffffffff\n      mul\n      not\n      and\n      swap1\n      dup4\n      0xffffffffffffffffffffffffffffffffffffffff\n      and\n      mul\n      or\n      swap1\n      sstore\n      pop\n        /* \"contracts/BusinessConsensus.sol\":2139:2673  {... */\n      pop\n        /* \"contracts/BusinessConsensus.sol\":2092:2673  function RegisterVoter(address voter) external {... */\n      pop\n      jump\t// out\n        /* \"contracts/BusinessConsensus.sol\":1783:1883  function getValues() public view returns (string memory){... */\n    tag_34:\n        /* \"contracts/BusinessConsensus.sol\":1825:1838  string memory */\n      0x60\n        /* \"contracts/BusinessConsensus.sol\":1857:1865  proposal */\n      0x0a\n        /* \"contracts/BusinessConsensus.sol\":1857:1875  proposal.messageID */\n      0x01\n      add\n        /* \"contracts/BusinessConsensus.sol\":1850:1875  return proposal.messageID */\n      dup1\n      sload\n      tag_102\n      swap1\n      tag_103\n      jump\t// in\n    tag_102:\n      dup1\n      0x1f\n      add\n      0x20\n      dup1\n      swap2\n      div\n      mul\n      0x20\n      add\n      mload(0x40)\n      swap1\n      dup2\n      add\n      0x40\n      mstore\n      dup1\n      swap3\n      swap2\n      swap1\n      dup2\n      dup2\n      mstore\n      0x20\n      add\n      dup3\n      dup1\n      sload\n      tag_104\n      swap1\n      tag_103\n      jump\t// in\n    tag_104:\n      dup1\n      iszero\n      tag_105\n      jumpi\n      dup1\n      0x1f\n      lt\n      tag_106\n      jumpi\n      0x0100\n      dup1\n      dup4\n      sload\n      div\n      mul\n      dup4\n      mstore\n      swap2\n      0x20\n      add\n      swap2\n      jump(tag_105)\n    tag_106:\n      dup3\n      add\n      swap2\n      swap1\n      0x00\n      mstore\n      keccak256(0x00, 0x20)\n      swap1\n    tag_107:\n      dup2\n      sload\n      dup2\n      mstore\n      swap1\n      0x01\n      add\n      swap1\n      0x20\n      add\n      dup1\n      dup4\n      gt\n      tag_107\n      jumpi\n      dup3\n      swap1\n      sub\n      0x1f\n      and\n      dup3\n      add\n      swap2\n    tag_105:\n      pop\n      pop\n      pop\n      pop\n      pop\n      swap1\n      pop\n        /* \"contracts/BusinessConsensus.sol\":1783:1883  function getValues() public view returns (string memory){... */\n      swap1\n      jump\t// out\n        /* \"contracts/BusinessConsensus.sol\":2681:2789  function getVoters(address voter) public view returns(bool){... */\n    tag_39:\n        /* \"contracts/BusinessConsensus.sol\":2735:2739  bool */\n      0x00\n        /* \"contracts/BusinessConsensus.sol\":2758:2768  voters_map */\n      0x09\n        /* \"contracts/BusinessConsensus.sol\":2758:2775  voters_map[voter] */\n      0x00\n        /* \"contracts/BusinessConsensus.sol\":2769:2774  voter */\n      dup4\n        /* \"contracts/BusinessConsensus.sol\":2758:2775  voters_map[voter] */\n      0xffffffffffffffffffffffffffffffffffffffff\n      and\n      0xffffffffffffffffffffffffffffffffffffffff\n      and\n      dup2\n      mstore\n      0x20\n      add\n      swap1\n      dup2\n      mstore\n      0x20\n      add\n      0x00\n      keccak256\n        /* \"contracts/BusinessConsensus.sol\":2758:2781  voters_map[voter].voted */\n      0x00\n      add\n      0x00\n      swap1\n      sload\n      swap1\n      0x0100\n      exp\n      swap1\n      div\n      0xff\n      and\n        /* \"contracts/BusinessConsensus.sol\":2751:2781  return voters_map[voter].voted */\n      swap1\n      pop\n        /* \"contracts/BusinessConsensus.sol\":2681:2789  function getVoters(address voter) public view returns(bool){... */\n      swap2\n      swap1\n      pop\n      jump\t// out\n        /* \"contracts/BusinessConsensus.sol\":2957:3891  function Vote(string memory response) external {... */\n    tag_45:\n        /* \"contracts/BusinessConsensus.sol\":3071:3081  expiryDate */\n      sload(0x01)\n        /* \"contracts/BusinessConsensus.sol\":3053:3068  block.timestamp */\n      timestamp\n        /* \"contracts/BusinessConsensus.sol\":3053:3081  block.timestamp < expiryDate */\n      lt\n        /* \"contracts/BusinessConsensus.sol\":3045:3104  require(block.timestamp < expiryDate, \"Voting has expired\") */\n      tag_110\n      jumpi\n      mload(0x40)\n      0x08c379a000000000000000000000000000000000000000000000000000000000\n      dup2\n      mstore\n      0x04\n      add\n      tag_111\n      swap1\n      tag_112\n      jump\t// in\n    tag_111:\n      mload(0x40)\n      dup1\n      swap2\n      sub\n      swap1\n      revert\n    tag_110:\n        /* \"contracts/BusinessConsensus.sol\":3115:3142  Voter memory recipientVoter */\n      0x00\n        /* \"contracts/BusinessConsensus.sol\":3145:3155  voters_map */\n      0x09\n        /* \"contracts/BusinessConsensus.sol\":3145:3167  voters_map[msg.sender] */\n      0x00\n        /* \"contracts/BusinessConsensus.sol\":3156:3166  msg.sender */\n      caller\n        /* \"contracts/BusinessConsensus.sol\":3145:3167  voters_map[msg.sender] */\n      0xffffffffffffffffffffffffffffffffffffffff\n      and\n      0xffffffffffffffffffffffffffffffffffffffff\n      and\n      dup2\n      mstore\n      0x20\n      add\n      swap1\n      dup2\n      mstore\n      0x20\n      add\n      0x00\n      keccak256\n        /* \"contracts/BusinessConsensus.sol\":3115:3167  Voter memory recipientVoter = voters_map[msg.sender] */\n      mload(0x40)\n      dup1\n      0x60\n      add\n      0x40\n      mstore\n      swap1\n      dup2\n      0x00\n      dup3\n      add\n      0x00\n      swap1\n      sload\n      swap1\n      0x0100\n      exp\n      swap1\n      div\n      0xff\n      and\n      iszero\n      iszero\n      iszero\n      iszero\n      dup2\n      mstore\n      0x20\n      add\n      0x00\n      dup3\n      add\n      0x01\n      swap1\n      sload\n      swap1\n      0x0100\n      exp\n      swap1\n      div\n      0xffffffffffffffffffffffffffffffffffffffff\n      and\n      0xffffffffffffffffffffffffffffffffffffffff\n      and\n      0xffffffffffffffffffffffffffffffffffffffff\n      and\n      dup2\n      mstore\n      0x20\n      add\n      0x00\n      dup3\n      add\n      0x15\n      swap1\n      sload\n      swap1\n      0x0100\n      exp\n      swap1\n      div\n      0xff\n      and\n      iszero\n      iszero\n      iszero\n      iszero\n      dup2\n      mstore\n      pop\n      pop\n      swap1\n      pop\n        /* \"contracts/BusinessConsensus.sol\":3222:3225  0x0 */\n      0x00\n        /* \"contracts/BusinessConsensus.sol\":3186:3226  recipientVoter.recipient != address(0x0) */\n      0xffffffffffffffffffffffffffffffffffffffff\n      and\n        /* \"contracts/BusinessConsensus.sol\":3186:3200  recipientVoter */\n      dup2\n        /* \"contracts/BusinessConsensus.sol\":3186:3210  recipientVoter.recipient */\n      0x20\n      add\n      mload\n        /* \"contracts/BusinessConsensus.sol\":3186:3226  recipientVoter.recipient != address(0x0) */\n      0xffffffffffffffffffffffffffffffffffffffff\n      and\n      sub\n        /* \"contracts/BusinessConsensus.sol\":3178:3261  require(recipientVoter.recipient != address(0x0), \"You are not registered to vote\") */\n      tag_113\n      jumpi\n      mload(0x40)\n      0x08c379a000000000000000000000000000000000000000000000000000000000\n      dup2\n      mstore\n      0x04\n      add\n      tag_114\n      swap1\n      tag_115\n      jump\t// in\n    tag_114:\n      mload(0x40)\n      dup1\n      swap2\n      sub\n      swap1\n      revert\n    tag_113:\n        /* \"contracts/BusinessConsensus.sol\":3281:3295  recipientVoter */\n      dup1\n        /* \"contracts/BusinessConsensus.sol\":3281:3301  recipientVoter.voted */\n      0x00\n      add\n      mload\n        /* \"contracts/BusinessConsensus.sol\":3280:3301  !recipientVoter.voted */\n      iszero\n        /* \"contracts/BusinessConsensus.sol\":3272:3334  require(!recipientVoter.voted, \"You already sent a response.\") */\n      tag_116\n      jumpi\n      mload(0x40)\n      0x08c379a000000000000000000000000000000000000000000000000000000000\n      dup2\n      mstore\n      0x04\n      add\n      tag_117\n      swap1\n      tag_118\n      jump\t// in\n    tag_117:\n      mload(0x40)\n      dup1\n      swap2\n      sub\n      swap1\n      revert\n    tag_116:\n        /* \"contracts/BusinessConsensus.sol\":3390:3408  bytes(\"i approve\") */\n      mload(0x40)\n      dup1\n      0x40\n      add\n      0x40\n      mstore\n      dup1\n      0x09\n      dup2\n      mstore\n      0x20\n      add\n      0x6920617070726f76650000000000000000000000000000000000000000000000\n      dup2\n      mstore\n      pop\n        /* \"contracts/BusinessConsensus.sol\":3380:3409  keccak256(bytes(\"i approve\")) */\n      dup1\n      mload\n      swap1\n      0x20\n      add\n      keccak256\n        /* \"contracts/BusinessConsensus.sol\":3366:3374  response */\n      dup3\n        /* \"contracts/BusinessConsensus.sol\":3350:3376  keccak256(bytes(response)) */\n      dup1\n      mload\n      swap1\n      0x20\n      add\n      keccak256\n        /* \"contracts/BusinessConsensus.sol\":3350:3409  keccak256(bytes(response)) == keccak256(bytes(\"i approve\")) */\n      sub\n        /* \"contracts/BusinessConsensus.sol\":3347:3874  if(keccak256(bytes(response)) == keccak256(bytes(\"i approve\"))){... */\n      tag_119\n      jumpi\n        /* \"contracts/BusinessConsensus.sol\":3456:3460  true */\n      0x01\n        /* \"contracts/BusinessConsensus.sol\":3425:3435  voters_map */\n      0x09\n        /* \"contracts/BusinessConsensus.sol\":3425:3447  voters_map[msg.sender] */\n      0x00\n        /* \"contracts/BusinessConsensus.sol\":3436:3446  msg.sender */\n      caller\n        /* \"contracts/BusinessConsensus.sol\":3425:3447  voters_map[msg.sender] */\n      0xffffffffffffffffffffffffffffffffffffffff\n      and\n      0xffffffffffffffffffffffffffffffffffffffff\n      and\n      dup2\n      mstore\n      0x20\n      add\n      swap1\n      dup2\n      mstore\n      0x20\n      add\n      0x00\n      keccak256\n        /* \"contracts/BusinessConsensus.sol\":3425:3453  voters_map[msg.sender].voted */\n      0x00\n      add\n      0x00\n        /* \"contracts/BusinessConsensus.sol\":3425:3460  voters_map[msg.sender].voted = true */\n      0x0100\n      exp\n      dup2\n      sload\n      dup2\n      0xff\n      mul\n      not\n      and\n      swap1\n      dup4\n      iszero\n      iszero\n      mul\n      or\n      swap1\n      sstore\n      pop\n        /* \"contracts/BusinessConsensus.sol\":3505:3509  true */\n      0x01\n        /* \"contracts/BusinessConsensus.sol\":3475:3485  voters_map */\n      0x09\n        /* \"contracts/BusinessConsensus.sol\":3475:3497  voters_map[msg.sender] */\n      0x00\n        /* \"contracts/BusinessConsensus.sol\":3486:3496  msg.sender */\n      caller\n        /* \"contracts/BusinessConsensus.sol\":3475:3497  voters_map[msg.sender] */\n      0xffffffffffffffffffffffffffffffffffffffff\n      and\n      0xffffffffffffffffffffffffffffffffffffffff\n      and\n      dup2\n      mstore\n      0x20\n      add\n      swap1\n      dup2\n      mstore\n      0x20\n      add\n      0x00\n      keccak256\n        /* \"contracts/BusinessConsensus.sol\":3475:3502  voters_map[msg.sender].vote */\n      0x00\n      add\n      0x15\n        /* \"contracts/BusinessConsensus.sol\":3475:3509  voters_map[msg.sender].vote = true */\n      0x0100\n      exp\n      dup2\n      sload\n      dup2\n      0xff\n      mul\n      not\n      and\n      swap1\n      dup4\n      iszero\n      iszero\n      mul\n      or\n      swap1\n      sstore\n      pop\n        /* \"contracts/BusinessConsensus.sol\":3540:3541  1 */\n      0x01\n        /* \"contracts/BusinessConsensus.sol\":3524:3536  numApprovals */\n      0x06\n      0x00\n        /* \"contracts/BusinessConsensus.sol\":3524:3541  numApprovals += 1 */\n      dup3\n      dup3\n      sload\n      tag_120\n      swap2\n      swap1\n      tag_121\n      jump\t// in\n    tag_120:\n      swap3\n      pop\n      pop\n      dup2\n      swap1\n      sstore\n      pop\n        /* \"contracts/BusinessConsensus.sol\":3578:3579  1 */\n      0x01\n        /* \"contracts/BusinessConsensus.sol\":3556:3564  proposal */\n      0x0a\n        /* \"contracts/BusinessConsensus.sol\":3556:3574  proposal.voteCount */\n      0x00\n      add\n      0x00\n        /* \"contracts/BusinessConsensus.sol\":3556:3579  proposal.voteCount += 1 */\n      dup3\n      dup3\n      sload\n      tag_122\n      swap2\n      swap1\n      tag_121\n      jump\t// in\n    tag_122:\n      swap3\n      pop\n      pop\n      dup2\n      swap1\n      sstore\n      pop\n        /* \"contracts/BusinessConsensus.sol\":3594:3600  voters */\n      0x07\n        /* \"contracts/BusinessConsensus.sol\":3606:3616  voters_map */\n      0x09\n        /* \"contracts/BusinessConsensus.sol\":3606:3628  voters_map[msg.sender] */\n      0x00\n        /* \"contracts/BusinessConsensus.sol\":3617:3627  msg.sender */\n      caller\n        /* \"contracts/BusinessConsensus.sol\":3606:3628  voters_map[msg.sender] */\n      0xffffffffffffffffffffffffffffffffffffffff\n      and\n      0xffffffffffffffffffffffffffffffffffffffff\n      and\n      dup2\n      mstore\n      0x20\n      add\n      swap1\n      dup2\n      mstore\n      0x20\n      add\n      0x00\n      keccak256\n        /* \"contracts/BusinessConsensus.sol\":3594:3629  voters.push(voters_map[msg.sender]) */\n      swap1\n      dup1\n      0x01\n      dup2\n      sload\n      add\n      dup1\n      dup3\n      sstore\n      dup1\n      swap2\n      pop\n      pop\n      0x01\n      swap1\n      sub\n      swap1\n      0x00\n      mstore\n      keccak256(0x00, 0x20)\n      add\n      0x00\n      swap1\n      swap2\n      swap1\n      swap2\n      swap1\n      swap2\n      pop\n      0x00\n      dup3\n      add\n      0x00\n      swap1\n      sload\n      swap1\n      0x0100\n      exp\n      swap1\n      div\n      0xff\n      and\n      dup2\n      0x00\n      add\n      exp(0x0100, 0x00)\n      dup2\n      sload\n      dup2\n      0xff\n      mul\n      not\n      and\n      swap1\n      dup4\n      iszero\n      iszero\n      mul\n      or\n      swap1\n      sstore\n      pop\n      0x00\n      dup3\n      add\n      0x01\n      swap1\n      sload\n      swap1\n      0x0100\n      exp\n      swap1\n      div\n      0xffffffffffffffffffffffffffffffffffffffff\n      and\n      dup2\n      0x00\n      add\n      exp(0x0100, 0x01)\n      dup2\n      sload\n      dup2\n      0xffffffffffffffffffffffffffffffffffffffff\n      mul\n      not\n      and\n      swap1\n      dup4\n      0xffffffffffffffffffffffffffffffffffffffff\n      and\n      mul\n      or\n      swap1\n      sstore\n      pop\n      0x00\n      dup3\n      add\n      0x15\n      swap1\n      sload\n      swap1\n      0x0100\n      exp\n      swap1\n      div\n      0xff\n      and\n      dup2\n      0x00\n      add\n      exp(0x0100, 0x15)\n      dup2\n      sload\n      dup2\n      0xff\n      mul\n      not\n      and\n      swap1\n      dup4\n      iszero\n      iszero\n      mul\n      or\n      swap1\n      sstore\n      pop\n      pop\n      pop\n        /* \"contracts/BusinessConsensus.sol\":3347:3874  if(keccak256(bytes(response)) == keccak256(bytes(\"i approve\"))){... */\n      jump(tag_124)\n    tag_119:\n        /* \"contracts/BusinessConsensus.sol\":3701:3722  bytes(\"i disapprove\") */\n      mload(0x40)\n      dup1\n      0x40\n      add\n      0x40\n      mstore\n      dup1\n      0x0c\n      dup2\n      mstore\n      0x20\n      add\n      0x6920646973617070726f76650000000000000000000000000000000000000000\n      dup2\n      mstore\n      pop\n        /* \"contracts/BusinessConsensus.sol\":3691:3723  keccak256(bytes(\"i disapprove\")) */\n      dup1\n      mload\n      swap1\n      0x20\n      add\n      keccak256\n        /* \"contracts/BusinessConsensus.sol\":3677:3685  response */\n      dup3\n        /* \"contracts/BusinessConsensus.sol\":3661:3687  keccak256(bytes(response)) */\n      dup1\n      mload\n      swap1\n      0x20\n      add\n      keccak256\n        /* \"contracts/BusinessConsensus.sol\":3661:3723  keccak256(bytes(response)) == keccak256(bytes(\"i disapprove\")) */\n      sub\n        /* \"contracts/BusinessConsensus.sol\":3658:3874  if(keccak256(bytes(response)) == keccak256(bytes(\"i disapprove\"))){... */\n      tag_125\n      jumpi\n        /* \"contracts/BusinessConsensus.sol\":3770:3774  true */\n      0x01\n        /* \"contracts/BusinessConsensus.sol\":3739:3749  voters_map */\n      0x09\n        /* \"contracts/BusinessConsensus.sol\":3739:3761  voters_map[msg.sender] */\n      0x00\n        /* \"contracts/BusinessConsensus.sol\":3750:3760  msg.sender */\n      caller\n        /* \"contracts/BusinessConsensus.sol\":3739:3761  voters_map[msg.sender] */\n      0xffffffffffffffffffffffffffffffffffffffff\n      and\n      0xffffffffffffffffffffffffffffffffffffffff\n      and\n      dup2\n      mstore\n      0x20\n      add\n      swap1\n      dup2\n      mstore\n      0x20\n      add\n      0x00\n      keccak256\n        /* \"contracts/BusinessConsensus.sol\":3739:3767  voters_map[msg.sender].voted */\n      0x00\n      add\n      0x00\n        /* \"contracts/BusinessConsensus.sol\":3739:3774  voters_map[msg.sender].voted = true */\n      0x0100\n      exp\n      dup2\n      sload\n      dup2\n      0xff\n      mul\n      not\n      and\n      swap1\n      dup4\n      iszero\n      iszero\n      mul\n      or\n      swap1\n      sstore\n      pop\n        /* \"contracts/BusinessConsensus.sol\":3811:3812  1 */\n      0x01\n        /* \"contracts/BusinessConsensus.sol\":3789:3797  proposal */\n      0x0a\n        /* \"contracts/BusinessConsensus.sol\":3789:3807  proposal.voteCount */\n      0x00\n      add\n      0x00\n        /* \"contracts/BusinessConsensus.sol\":3789:3812  proposal.voteCount += 1 */\n      dup3\n      dup3\n      sload\n      tag_126\n      swap2\n      swap1\n      tag_121\n      jump\t// in\n    tag_126:\n      swap3\n      pop\n      pop\n      dup2\n      swap1\n      sstore\n      pop\n        /* \"contracts/BusinessConsensus.sol\":3827:3833  voters */\n      0x07\n        /* \"contracts/BusinessConsensus.sol\":3839:3849  voters_map */\n      0x09\n        /* \"contracts/BusinessConsensus.sol\":3839:3861  voters_map[msg.sender] */\n      0x00\n        /* \"contracts/BusinessConsensus.sol\":3850:3860  msg.sender */\n      caller\n        /* \"contracts/BusinessConsensus.sol\":3839:3861  voters_map[msg.sender] */\n      0xffffffffffffffffffffffffffffffffffffffff\n      and\n      0xffffffffffffffffffffffffffffffffffffffff\n      and\n      dup2\n      mstore\n      0x20\n      add\n      swap1\n      dup2\n      mstore\n      0x20\n      add\n      0x00\n      keccak256\n        /* \"contracts/BusinessConsensus.sol\":3827:3862  voters.push(voters_map[msg.sender]) */\n      swap1\n      dup1\n      0x01\n      dup2\n      sload\n      add\n      dup1\n      dup3\n      sstore\n      dup1\n      swap2\n      pop\n      pop\n      0x01\n      swap1\n      sub\n      swap1\n      0x00\n      mstore\n      keccak256(0x00, 0x20)\n      add\n      0x00\n      swap1\n      swap2\n      swap1\n      swap2\n      swap1\n      swap2\n      pop\n      0x00\n      dup3\n      add\n      0x00\n      swap1\n      sload\n      swap1\n      0x0100\n      exp\n      swap1\n      div\n      0xff\n      and\n      dup2\n      0x00\n      add\n      exp(0x0100, 0x00)\n      dup2\n      sload\n      dup2\n      0xff\n      mul\n      not\n      and\n      swap1\n      dup4\n      iszero\n      iszero\n      mul\n      or\n      swap1\n      sstore\n      pop\n      0x00\n      dup3\n      add\n      0x01\n      swap1\n      sload\n      swap1\n      0x0100\n      exp\n      swap1\n      div\n      0xffffffffffffffffffffffffffffffffffffffff\n      and\n      dup2\n      0x00\n      add\n      exp(0x0100, 0x01)\n      dup2\n      sload\n      dup2\n      0xffffffffffffffffffffffffffffffffffffffff\n      mul\n      not\n      and\n      swap1\n      dup4\n      0xffffffffffffffffffffffffffffffffffffffff\n      and\n      mul\n      or\n      swap1\n      sstore\n      pop\n      0x00\n      dup3\n      add\n      0x15\n      swap1\n      sload\n      swap1\n      0x0100\n      exp\n      swap1\n      div\n      0xff\n      and\n      dup2\n      0x00\n      add\n      exp(0x0100, 0x15)\n      dup2\n      sload\n      dup2\n      0xff\n      mul\n      not\n      and\n      swap1\n      dup4\n      iszero\n      iszero\n      mul\n      or\n      swap1\n      sstore\n      pop\n      pop\n      pop\n        /* \"contracts/BusinessConsensus.sol\":3658:3874  if(keccak256(bytes(response)) == keccak256(bytes(\"i disapprove\"))){... */\n    tag_125:\n        /* \"contracts/BusinessConsensus.sol\":3347:3874  if(keccak256(bytes(response)) == keccak256(bytes(\"i approve\"))){... */\n    tag_124:\n        /* \"contracts/BusinessConsensus.sol\":3004:3891  {... */\n      pop\n        /* \"contracts/BusinessConsensus.sol\":2957:3891  function Vote(string memory response) external {... */\n      pop\n      jump\t// out\n        /* \"contracts/BusinessConsensus.sol\":862:886  address public initiator */\n    tag_47:\n      0x03\n      0x00\n      swap1\n      sload\n      swap1\n      0x0100\n      exp\n      swap1\n      div\n      0xffffffffffffffffffffffffffffffffffffffff\n      and\n      dup2\n      jump\t// out\n        /* \"contracts/BusinessConsensus.sol\":935:968  uint public AccumulatedPercentage */\n    tag_50:\n      sload(0x05)\n      dup2\n      jump\t// out\n        /* \"contracts/BusinessConsensus.sol\":975:999  uint public numApprovals */\n    tag_54:\n      sload(0x06)\n      dup2\n      jump\t// out\n        /* \"contracts/BusinessConsensus.sol\":1184:1208  Proposal public proposal */\n    tag_57:\n      0x0a\n      dup1\n      0x00\n      add\n      sload\n      swap1\n      dup1\n      0x01\n      add\n      dup1\n      sload\n      tag_128\n      swap1\n      tag_103\n      jump\t// in\n    tag_128:\n      dup1\n      0x1f\n      add\n      0x20\n      dup1\n      swap2\n      div\n      mul\n      0x20\n      add\n      mload(0x40)\n      swap1\n      dup2\n      add\n      0x40\n      mstore\n      dup1\n      swap3\n      swap2\n      swap1\n      dup2\n      dup2\n      mstore\n      0x20\n      add\n      dup3\n      dup1\n      sload\n      tag_129\n      swap1\n      tag_103\n      jump\t// in\n    tag_129:\n      dup1\n      iszero\n      tag_130\n      jumpi\n      dup1\n      0x1f\n      lt\n      tag_131\n      jumpi\n      0x0100\n      dup1\n      dup4\n      sload\n      div\n      mul\n      dup4\n      mstore\n      swap2\n      0x20\n      add\n      swap2\n      jump(tag_130)\n    tag_131:\n      dup3\n      add\n      swap2\n      swap1\n      0x00\n      mstore\n      keccak256(0x00, 0x20)\n      swap1\n    tag_132:\n      dup2\n      sload\n      dup2\n      mstore\n      swap1\n      0x01\n      add\n      swap1\n      0x20\n      add\n      dup1\n      dup4\n      gt\n      tag_132\n      jumpi\n      dup3\n      swap1\n      sub\n      0x1f\n      and\n      dup3\n      add\n      swap2\n    tag_130:\n      pop\n      pop\n      pop\n      pop\n      pop\n      swap1\n      pop\n      dup3\n      jump\t// out\n        /* \"contracts/BusinessConsensus.sol\":2797:2902  function getVote(address voter) public view returns(bool){... */\n    tag_62:\n        /* \"contracts/BusinessConsensus.sol\":2849:2853  bool */\n      0x00\n        /* \"contracts/BusinessConsensus.sol\":2872:2882  voters_map */\n      0x09\n        /* \"contracts/BusinessConsensus.sol\":2872:2889  voters_map[voter] */\n      0x00\n        /* \"contracts/BusinessConsensus.sol\":2883:2888  voter */\n      dup4\n        /* \"contracts/BusinessConsensus.sol\":2872:2889  voters_map[voter] */\n      0xffffffffffffffffffffffffffffffffffffffff\n      and\n      0xffffffffffffffffffffffffffffffffffffffff\n      and\n      dup2\n      mstore\n      0x20\n      add\n      swap1\n      dup2\n      mstore\n      0x20\n      add\n      0x00\n      keccak256\n        /* \"contracts/BusinessConsensus.sol\":2872:2894  voters_map[voter].vote */\n      0x00\n      add\n      0x15\n      swap1\n      sload\n      swap1\n      0x0100\n      exp\n      swap1\n      div\n      0xff\n      and\n        /* \"contracts/BusinessConsensus.sol\":2865:2894  return voters_map[voter].vote */\n      swap1\n      pop\n        /* \"contracts/BusinessConsensus.sol\":2797:2902  function getVote(address voter) public view returns(bool){... */\n      swap2\n      swap1\n      pop\n      jump\t// out\n        /* \"contracts/BusinessConsensus.sol\":3955:4439  function Consensus() external {... */\n    tag_65:\n        /* \"contracts/BusinessConsensus.sol\":4023:4033  expiryDate */\n      sload(0x01)\n        /* \"contracts/BusinessConsensus.sol\":4004:4019  block.timestamp */\n      timestamp\n        /* \"contracts/BusinessConsensus.sol\":4004:4033  block.timestamp >= expiryDate */\n      lt\n      iszero\n        /* \"contracts/BusinessConsensus.sol\":3996:4070  require(block.timestamp >= expiryDate, \"Verdict has not been reached yet\") */\n      tag_135\n      jumpi\n      mload(0x40)\n      0x08c379a000000000000000000000000000000000000000000000000000000000\n      dup2\n      mstore\n      0x04\n      add\n      tag_136\n      swap1\n      tag_137\n      jump\t// in\n    tag_136:\n      mload(0x40)\n      dup1\n      swap2\n      sub\n      swap1\n      revert\n    tag_135:\n        /* \"contracts/BusinessConsensus.sol\":4132:4135  100 */\n      0x64\n        /* \"contracts/BusinessConsensus.sol\":4119:4123  keys */\n      0x08\n        /* \"contracts/BusinessConsensus.sol\":4119:4130  keys.length */\n      dup1\n      sload\n      swap1\n      pop\n        /* \"contracts/BusinessConsensus.sol\":4106:4118  numApprovals */\n      sload(0x06)\n        /* \"contracts/BusinessConsensus.sol\":4106:4130  numApprovals/keys.length */\n      tag_138\n      swap2\n      swap1\n      tag_139\n      jump\t// in\n    tag_138:\n        /* \"contracts/BusinessConsensus.sol\":4105:4135  (numApprovals/keys.length)*100 */\n      tag_140\n      swap2\n      swap1\n      tag_141\n      jump\t// in\n    tag_140:\n        /* \"contracts/BusinessConsensus.sol\":4081:4102  AccumulatedPercentage */\n      0x05\n        /* \"contracts/BusinessConsensus.sol\":4081:4135  AccumulatedPercentage = (numApprovals/keys.length)*100 */\n      dup2\n      swap1\n      sstore\n      pop\n        /* \"contracts/BusinessConsensus.sol\":4174:4193  BusinessRequirement */\n      sload(0x04)\n        /* \"contracts/BusinessConsensus.sol\":4149:4170  AccumulatedPercentage */\n      sload(0x05)\n        /* \"contracts/BusinessConsensus.sol\":4149:4193  AccumulatedPercentage >= BusinessRequirement */\n      lt\n        /* \"contracts/BusinessConsensus.sol\":4146:4246  if(AccumulatedPercentage >= BusinessRequirement){... */\n      tag_142\n      jumpi\n        /* \"contracts/BusinessConsensus.sol\":4209:4234  finalVerdict = \"Accepted\" */\n      mload(0x40)\n      dup1\n      0x40\n      add\n      0x40\n      mstore\n      dup1\n      0x08\n      dup2\n      mstore\n      0x20\n      add\n      0x4163636570746564000000000000000000000000000000000000000000000000\n      dup2\n      mstore\n      pop\n        /* \"contracts/BusinessConsensus.sol\":4209:4221  finalVerdict */\n      0x02\n        /* \"contracts/BusinessConsensus.sol\":4209:4234  finalVerdict = \"Accepted\" */\n      swap1\n      dup2\n      tag_143\n      swap2\n      swap1\n      tag_144\n      jump\t// in\n    tag_143:\n      pop\n        /* \"contracts/BusinessConsensus.sol\":4146:4246  if(AccumulatedPercentage >= BusinessRequirement){... */\n    tag_142:\n        /* \"contracts/BusinessConsensus.sol\":4260:4267  uint8 i */\n      0x00\n        /* \"contracts/BusinessConsensus.sol\":4256:4422  for(uint8 i=0; i< keys.length; i++){... */\n    tag_145:\n        /* \"contracts/BusinessConsensus.sol\":4274:4278  keys */\n      0x08\n        /* \"contracts/BusinessConsensus.sol\":4274:4285  keys.length */\n      dup1\n      sload\n      swap1\n      pop\n        /* \"contracts/BusinessConsensus.sol\":4271:4272  i */\n      dup2\n        /* \"contracts/BusinessConsensus.sol\":4271:4285  i< keys.length */\n      0xff\n      and\n      lt\n        /* \"contracts/BusinessConsensus.sol\":4256:4422  for(uint8 i=0; i< keys.length; i++){... */\n      iszero\n      tag_146\n      jumpi\n        /* \"contracts/BusinessConsensus.sol\":4338:4343  false */\n      0x00\n        /* \"contracts/BusinessConsensus.sol\":4309:4343  voters_map[keys[i]].voted == false */\n      iszero\n      iszero\n        /* \"contracts/BusinessConsensus.sol\":4309:4319  voters_map */\n      0x09\n        /* \"contracts/BusinessConsensus.sol\":4309:4328  voters_map[keys[i]] */\n      0x00\n        /* \"contracts/BusinessConsensus.sol\":4320:4324  keys */\n      0x08\n        /* \"contracts/BusinessConsensus.sol\":4325:4326  i */\n      dup5\n        /* \"contracts/BusinessConsensus.sol\":4320:4327  keys[i] */\n      0xff\n      and\n      dup2\n      sload\n      dup2\n      lt\n      tag_148\n      jumpi\n      tag_149\n      tag_150\n      jump\t// in\n    tag_149:\n    tag_148:\n      swap1\n      0x00\n      mstore\n      keccak256(0x00, 0x20)\n      add\n      0x00\n      swap1\n      sload\n      swap1\n      0x0100\n      exp\n      swap1\n      div\n      0xffffffffffffffffffffffffffffffffffffffff\n      and\n        /* \"contracts/BusinessConsensus.sol\":4309:4328  voters_map[keys[i]] */\n      0xffffffffffffffffffffffffffffffffffffffff\n      and\n      0xffffffffffffffffffffffffffffffffffffffff\n      and\n      dup2\n      mstore\n      0x20\n      add\n      swap1\n      dup2\n      mstore\n      0x20\n      add\n      0x00\n      keccak256\n        /* \"contracts/BusinessConsensus.sol\":4309:4334  voters_map[keys[i]].voted */\n      0x00\n      add\n      0x00\n      swap1\n      sload\n      swap1\n      0x0100\n      exp\n      swap1\n      div\n      0xff\n      and\n        /* \"contracts/BusinessConsensus.sol\":4309:4343  voters_map[keys[i]].voted == false */\n      iszero\n      iszero\n      sub\n        /* \"contracts/BusinessConsensus.sol\":4306:4411  if(voters_map[keys[i]].voted == false){... */\n      tag_152\n      jumpi\n        /* \"contracts/BusinessConsensus.sol\":4363:4369  voters */\n      0x07\n        /* \"contracts/BusinessConsensus.sol\":4375:4385  voters_map */\n      0x09\n        /* \"contracts/BusinessConsensus.sol\":4375:4394  voters_map[keys[i]] */\n      0x00\n        /* \"contracts/BusinessConsensus.sol\":4386:4390  keys */\n      0x08\n        /* \"contracts/BusinessConsensus.sol\":4391:4392  i */\n      dup5\n        /* \"contracts/BusinessConsensus.sol\":4386:4393  keys[i] */\n      0xff\n      and\n      dup2\n      sload\n      dup2\n      lt\n      tag_153\n      jumpi\n      tag_154\n      tag_150\n      jump\t// in\n    tag_154:\n    tag_153:\n      swap1\n      0x00\n      mstore\n      keccak256(0x00, 0x20)\n      add\n      0x00\n      swap1\n      sload\n      swap1\n      0x0100\n      exp\n      swap1\n      div\n      0xffffffffffffffffffffffffffffffffffffffff\n      and\n        /* \"contracts/BusinessConsensus.sol\":4375:4394  voters_map[keys[i]] */\n      0xffffffffffffffffffffffffffffffffffffffff\n      and\n      0xffffffffffffffffffffffffffffffffffffffff\n      and\n      dup2\n      mstore\n      0x20\n      add\n      swap1\n      dup2\n      mstore\n      0x20\n      add\n      0x00\n      keccak256\n        /* \"contracts/BusinessConsensus.sol\":4363:4395  voters.push(voters_map[keys[i]]) */\n      swap1\n      dup1\n      0x01\n      dup2\n      sload\n      add\n      dup1\n      dup3\n      sstore\n      dup1\n      swap2\n      pop\n      pop\n      0x01\n      swap1\n      sub\n      swap1\n      0x00\n      mstore\n      keccak256(0x00, 0x20)\n      add\n      0x00\n      swap1\n      swap2\n      swap1\n      swap2\n      swap1\n      swap2\n      pop\n      0x00\n      dup3\n      add\n      0x00\n      swap1\n      sload\n      swap1\n      0x0100\n      exp\n      swap1\n      div\n      0xff\n      and\n      dup2\n      0x00\n      add\n      exp(0x0100, 0x00)\n      dup2\n      sload\n      dup2\n      0xff\n      mul\n      not\n      and\n      swap1\n      dup4\n      iszero\n      iszero\n      mul\n      or\n      swap1\n      sstore\n      pop\n      0x00\n      dup3\n      add\n      0x01\n      swap1\n      sload\n      swap1\n      0x0100\n      exp\n      swap1\n      div\n      0xffffffffffffffffffffffffffffffffffffffff\n      and\n      dup2\n      0x00\n      add\n      exp(0x0100, 0x01)\n      dup2\n      sload\n      dup2\n      0xffffffffffffffffffffffffffffffffffffffff\n      mul\n      not\n      and\n      swap1\n      dup4\n      0xffffffffffffffffffffffffffffffffffffffff\n      and\n      mul\n      or\n      swap1\n      sstore\n      pop\n      0x00\n      dup3\n      add\n      0x15\n      swap1\n      sload\n      swap1\n      0x0100\n      exp\n      swap1\n      div\n      0xff\n      and\n      dup2\n      0x00\n      add\n      exp(0x0100, 0x15)\n      dup2\n      sload\n      dup2\n      0xff\n      mul\n      not\n      and\n      swap1\n      dup4\n      iszero\n      iszero\n      mul\n      or\n      swap1\n      sstore\n      pop\n      pop\n      pop\n        /* \"contracts/BusinessConsensus.sol\":4306:4411  if(voters_map[keys[i]].voted == false){... */\n    tag_152:\n        /* \"contracts/BusinessConsensus.sol\":4287:4290  i++ */\n      dup1\n      dup1\n      tag_157\n      swap1\n      tag_158\n      jump\t// in\n    tag_157:\n      swap2\n      pop\n      pop\n        /* \"contracts/BusinessConsensus.sol\":4256:4422  for(uint8 i=0; i< keys.length; i++){... */\n      jump(tag_145)\n    tag_146:\n      pop\n        /* \"contracts/BusinessConsensus.sol\":3955:4439  function Consensus() external {... */\n      jump\t// out\n        /* \"contracts/BusinessConsensus.sol\":1064:1107  mapping(address => Voter) public voters_map */\n    tag_68:\n      mstore(0x20, 0x09)\n      dup1\n      0x00\n      mstore\n      keccak256(0x00, 0x40)\n      0x00\n      swap2\n      pop\n      swap1\n      pop\n      dup1\n      0x00\n      add\n      0x00\n      swap1\n      sload\n      swap1\n      0x0100\n      exp\n      swap1\n      div\n      0xff\n      and\n      swap1\n      dup1\n      0x00\n      add\n      0x01\n      swap1\n      sload\n      swap1\n      0x0100\n      exp\n      swap1\n      div\n      0xffffffffffffffffffffffffffffffffffffffff\n      and\n      swap1\n      dup1\n      0x00\n      add\n      0x15\n      swap1\n      sload\n      swap1\n      0x0100\n      exp\n      swap1\n      div\n      0xff\n      and\n      swap1\n      pop\n      dup4\n      jump\t// out\n        /* \"contracts/BusinessConsensus.sol\":1889:1986  function getParameters() public view returns (uint ){... */\n    tag_72:\n        /* \"contracts/BusinessConsensus.sol\":1935:1939  uint */\n      0x00\n        /* \"contracts/BusinessConsensus.sol\":1959:1978  BusinessRequirement */\n      sload(0x04)\n        /* \"contracts/BusinessConsensus.sol\":1952:1978  return BusinessRequirement */\n      swap1\n      pop\n        /* \"contracts/BusinessConsensus.sol\":1889:1986  function getParameters() public view returns (uint ){... */\n      swap1\n      jump\t// out\n        /* \"contracts/BusinessConsensus.sol\":897:928  uint public BusinessRequirement */\n    tag_75:\n      sload(0x04)\n      dup2\n      jump\t// out\n        /* \"contracts/BusinessConsensus.sol\":1008:1029  Voter[] public voters */\n    tag_79:\n      0x07\n      dup2\n      dup2\n      sload\n      dup2\n      lt\n      tag_160\n      jumpi\n      0x00\n      dup1\n      revert\n    tag_160:\n      swap1\n      0x00\n      mstore\n      keccak256(0x00, 0x20)\n      add\n      0x00\n      swap2\n      pop\n      swap1\n      pop\n      dup1\n      0x00\n      add\n      0x00\n      swap1\n      sload\n      swap1\n      0x0100\n      exp\n      swap1\n      div\n      0xff\n      and\n      swap1\n      dup1\n      0x00\n      add\n      0x01\n      swap1\n      sload\n      swap1\n      0x0100\n      exp\n      swap1\n      div\n      0xffffffffffffffffffffffffffffffffffffffff\n      and\n      swap1\n      dup1\n      0x00\n      add\n      0x15\n      swap1\n      sload\n      swap1\n      0x0100\n      exp\n      swap1\n      div\n      0xff\n      and\n      swap1\n      pop\n      dup4\n      jump\t// out\n        /* \"contracts/BusinessConsensus.sol\":596:626  address public contractAddress */\n    tag_82:\n      0x00\n      dup1\n      sload\n      swap1\n      0x0100\n      exp\n      swap1\n      div\n      0xffffffffffffffffffffffffffffffffffffffff\n      and\n      dup2\n      jump\t// out\n        /* \"contracts/BusinessConsensus.sol\":4447:4686  function Bundle() public view returns (string memory, Proposal memory, Voter[] memory){... */\n    tag_85:\n        /* \"contracts/BusinessConsensus.sol\":4486:4499  string memory */\n      0x60\n        /* \"contracts/BusinessConsensus.sol\":4501:4516  Proposal memory */\n      tag_162\n      tag_163\n      jump\t// in\n    tag_162:\n        /* \"contracts/BusinessConsensus.sol\":4518:4532  Voter[] memory */\n      0x60\n        /* \"contracts/BusinessConsensus.sol\":4571:4581  expiryDate */\n      sload(0x01)\n        /* \"contracts/BusinessConsensus.sol\":4552:4567  block.timestamp */\n      timestamp\n        /* \"contracts/BusinessConsensus.sol\":4552:4581  block.timestamp >= expiryDate */\n      lt\n      iszero\n        /* \"contracts/BusinessConsensus.sol\":4544:4618  require(block.timestamp >= expiryDate, \"Verdict has not been reached yet\") */\n      tag_165\n      jumpi\n      mload(0x40)\n      0x08c379a000000000000000000000000000000000000000000000000000000000\n      dup2\n      mstore\n      0x04\n      add\n      tag_166\n      swap1\n      tag_137\n      jump\t// in\n    tag_166:\n      mload(0x40)\n      dup1\n      swap2\n      sub\n      swap1\n      revert\n    tag_165:\n        /* \"contracts/BusinessConsensus.sol\":4637:4649  finalVerdict */\n      0x02\n        /* \"contracts/BusinessConsensus.sol\":4651:4659  proposal */\n      0x0a\n        /* \"contracts/BusinessConsensus.sol\":4661:4667  voters */\n      0x07\n        /* \"contracts/BusinessConsensus.sol\":4629:4668  return (finalVerdict, proposal, voters) */\n      dup3\n      dup1\n      sload\n      tag_167\n      swap1\n      tag_103\n      jump\t// in\n    tag_167:\n      dup1\n      0x1f\n      add\n      0x20\n      dup1\n      swap2\n      div\n      mul\n      0x20\n      add\n      mload(0x40)\n      swap1\n      dup2\n      add\n      0x40\n      mstore\n      dup1\n      swap3\n      swap2\n      swap1\n      dup2\n      dup2\n      mstore\n      0x20\n      add\n      dup3\n      dup1\n      sload\n      tag_168\n      swap1\n      tag_103\n      jump\t// in\n    tag_168:\n      dup1\n      iszero\n      tag_169\n      jumpi\n      dup1\n      0x1f\n      lt\n      tag_170\n      jumpi\n      0x0100\n      dup1\n      dup4\n      sload\n      div\n      mul\n      dup4\n      mstore\n      swap2\n      0x20\n      add\n      swap2\n      jump(tag_169)\n    tag_170:\n      dup3\n      add\n      swap2\n      swap1\n      0x00\n      mstore\n      keccak256(0x00, 0x20)\n      swap1\n    tag_171:\n      dup2\n      sload\n      dup2\n      mstore\n      swap1\n      0x01\n      add\n      swap1\n      0x20\n      add\n      dup1\n      dup4\n      gt\n      tag_171\n      jumpi\n      dup3\n      swap1\n      sub\n      0x1f\n      and\n      dup3\n      add\n      swap2\n    tag_169:\n      pop\n      pop\n      pop\n      pop\n      pop\n      swap3\n      pop\n      dup2\n      mload(0x40)\n      dup1\n      0x40\n      add\n      0x40\n      mstore\n      swap1\n      dup2\n      0x00\n      dup3\n      add\n      sload\n      dup2\n      mstore\n      0x20\n      add\n      0x01\n      dup3\n      add\n      dup1\n      sload\n      tag_172\n      swap1\n      tag_103\n      jump\t// in\n    tag_172:\n      dup1\n      0x1f\n      add\n      0x20\n      dup1\n      swap2\n      div\n      mul\n      0x20\n      add\n      mload(0x40)\n      swap1\n      dup2\n      add\n      0x40\n      mstore\n      dup1\n      swap3\n      swap2\n      swap1\n      dup2\n      dup2\n      mstore\n      0x20\n      add\n      dup3\n      dup1\n      sload\n      tag_173\n      swap1\n      tag_103\n      jump\t// in\n    tag_173:\n      dup1\n      iszero\n      tag_174\n      jumpi\n      dup1\n      0x1f\n      lt\n      tag_175\n      jumpi\n      0x0100\n      dup1\n      dup4\n      sload\n      div\n      mul\n      dup4\n      mstore\n      swap2\n      0x20\n      add\n      swap2\n      jump(tag_174)\n    tag_175:\n      dup3\n      add\n      swap2\n      swap1\n      0x00\n      mstore\n      keccak256(0x00, 0x20)\n      swap1\n    tag_176:\n      dup2\n      sload\n      dup2\n      mstore\n      swap1\n      0x01\n      add\n      swap1\n      0x20\n      add\n      dup1\n      dup4\n      gt\n      tag_176\n      jumpi\n      dup3\n      swap1\n      sub\n      0x1f\n      and\n      dup3\n      add\n      swap2\n    tag_174:\n      pop\n      pop\n      pop\n      pop\n      pop\n      dup2\n      mstore\n      pop\n      pop\n      swap2\n      pop\n      dup1\n      dup1\n      sload\n      dup1\n      0x20\n      mul\n      0x20\n      add\n      mload(0x40)\n      swap1\n      dup2\n      add\n      0x40\n      mstore\n      dup1\n      swap3\n      swap2\n      swap1\n      dup2\n      dup2\n      mstore\n      0x20\n      add\n      0x00\n      swap1\n    tag_177:\n      dup3\n      dup3\n      lt\n      iszero\n      tag_178\n      jumpi\n      dup4\n      dup3\n      swap1\n      0x00\n      mstore\n      keccak256(0x00, 0x20)\n      add\n      mload(0x40)\n      dup1\n      0x60\n      add\n      0x40\n      mstore\n      swap1\n      dup2\n      0x00\n      dup3\n      add\n      0x00\n      swap1\n      sload\n      swap1\n      0x0100\n      exp\n      swap1\n      div\n      0xff\n      and\n      iszero\n      iszero\n      iszero\n      iszero\n      dup2\n      mstore\n      0x20\n      add\n      0x00\n      dup3\n      add\n      0x01\n      swap1\n      sload\n      swap1\n      0x0100\n      exp\n      swap1\n      div\n      0xffffffffffffffffffffffffffffffffffffffff\n      and\n      0xffffffffffffffffffffffffffffffffffffffff\n      and\n      0xffffffffffffffffffffffffffffffffffffffff\n      and\n      dup2\n      mstore\n      0x20\n      add\n      0x00\n      dup3\n      add\n      0x15\n      swap1\n      sload\n      swap1\n      0x0100\n      exp\n      swap1\n      div\n      0xff\n      and\n      iszero\n      iszero\n      iszero\n      iszero\n      dup2\n      mstore\n      pop\n      pop\n      dup2\n      mstore\n      0x20\n      add\n      swap1\n      0x01\n      add\n      swap1\n      jump(tag_177)\n    tag_178:\n      pop\n      pop\n      pop\n      pop\n      swap1\n      pop\n      swap3\n      pop\n      swap3\n      pop\n      swap3\n      pop\n        /* \"contracts/BusinessConsensus.sol\":4447:4686  function Bundle() public view returns (string memory, Proposal memory, Voter[] memory){... */\n      swap1\n      swap2\n      swap3\n      jump\t// out\n    tag_163:\n      mload(0x40)\n      dup1\n      0x40\n      add\n      0x40\n      mstore\n      dup1\n      0x00\n      dup2\n      mstore\n      0x20\n      add\n      0x60\n      dup2\n      mstore\n      pop\n      swap1\n      jump\t// out\n        /* \"#utility.yul\":7:82   */\n    tag_180:\n        /* \"#utility.yul\":40:46   */\n      0x00\n        /* \"#utility.yul\":73:75   */\n      0x40\n        /* \"#utility.yul\":67:76   */\n      mload\n        /* \"#utility.yul\":57:76   */\n      swap1\n      pop\n        /* \"#utility.yul\":7:82   */\n      swap1\n      jump\t// out\n        /* \"#utility.yul\":88:205   */\n    tag_181:\n        /* \"#utility.yul\":197:198   */\n      0x00\n        /* \"#utility.yul\":194:195   */\n      dup1\n        /* \"#utility.yul\":187:199   */\n      revert\n        /* \"#utility.yul\":211:328   */\n    tag_182:\n        /* \"#utility.yul\":320:321   */\n      0x00\n        /* \"#utility.yul\":317:318   */\n      dup1\n        /* \"#utility.yul\":310:322   */\n      revert\n        /* \"#utility.yul\":334:411   */\n    tag_183:\n        /* \"#utility.yul\":371:378   */\n      0x00\n        /* \"#utility.yul\":400:405   */\n      dup2\n        /* \"#utility.yul\":389:405   */\n      swap1\n      pop\n        /* \"#utility.yul\":334:411   */\n      swap2\n      swap1\n      pop\n      jump\t// out\n        /* \"#utility.yul\":417:539   */\n    tag_184:\n        /* \"#utility.yul\":490:514   */\n      tag_260\n        /* \"#utility.yul\":508:513   */\n      dup2\n        /* \"#utility.yul\":490:514   */\n      tag_183\n      jump\t// in\n    tag_260:\n        /* \"#utility.yul\":483:488   */\n      dup2\n        /* \"#utility.yul\":480:515   */\n      eq\n        /* \"#utility.yul\":470:533   */\n      tag_261\n      jumpi\n        /* \"#utility.yul\":529:530   */\n      0x00\n        /* \"#utility.yul\":526:527   */\n      dup1\n        /* \"#utility.yul\":519:531   */\n      revert\n        /* \"#utility.yul\":470:533   */\n    tag_261:\n        /* \"#utility.yul\":417:539   */\n      pop\n      jump\t// out\n        /* \"#utility.yul\":545:684   */\n    tag_185:\n        /* \"#utility.yul\":591:596   */\n      0x00\n        /* \"#utility.yul\":629:635   */\n      dup2\n        /* \"#utility.yul\":616:636   */\n      calldataload\n        /* \"#utility.yul\":607:636   */\n      swap1\n      pop\n        /* \"#utility.yul\":645:678   */\n      tag_263\n        /* \"#utility.yul\":672:677   */\n      dup2\n        /* \"#utility.yul\":645:678   */\n      tag_184\n      jump\t// in\n    tag_263:\n        /* \"#utility.yul\":545:684   */\n      swap3\n      swap2\n      pop\n      pop\n      jump\t// out\n        /* \"#utility.yul\":690:1019   */\n    tag_25:\n        /* \"#utility.yul\":749:755   */\n      0x00\n        /* \"#utility.yul\":798:800   */\n      0x20\n        /* \"#utility.yul\":786:795   */\n      dup3\n        /* \"#utility.yul\":777:784   */\n      dup5\n        /* \"#utility.yul\":773:796   */\n      sub\n        /* \"#utility.yul\":769:801   */\n      slt\n        /* \"#utility.yul\":766:885   */\n      iszero\n      tag_265\n      jumpi\n        /* \"#utility.yul\":804:883   */\n      tag_266\n      tag_181\n      jump\t// in\n    tag_266:\n        /* \"#utility.yul\":766:885   */\n    tag_265:\n        /* \"#utility.yul\":924:925   */\n      0x00\n        /* \"#utility.yul\":949:1002   */\n      tag_267\n        /* \"#utility.yul\":994:1001   */\n      dup5\n        /* \"#utility.yul\":985:991   */\n      dup3\n        /* \"#utility.yul\":974:983   */\n      dup6\n        /* \"#utility.yul\":970:992   */\n      add\n        /* \"#utility.yul\":949:1002   */\n      tag_185\n      jump\t// in\n    tag_267:\n        /* \"#utility.yul\":939:1002   */\n      swap2\n      pop\n        /* \"#utility.yul\":895:1012   */\n      pop\n        /* \"#utility.yul\":690:1019   */\n      swap3\n      swap2\n      pop\n      pop\n      jump\t// out\n        /* \"#utility.yul\":1025:1151   */\n    tag_186:\n        /* \"#utility.yul\":1062:1069   */\n      0x00\n        /* \"#utility.yul\":1102:1144   */\n      0xffffffffffffffffffffffffffffffffffffffff\n        /* \"#utility.yul\":1095:1100   */\n      dup3\n        /* \"#utility.yul\":1091:1145   */\n      and\n        /* \"#utility.yul\":1080:1145   */\n      swap1\n      pop\n        /* \"#utility.yul\":1025:1151   */\n      swap2\n      swap1\n      pop\n      jump\t// out\n        /* \"#utility.yul\":1157:1253   */\n    tag_187:\n        /* \"#utility.yul\":1194:1201   */\n      0x00\n        /* \"#utility.yul\":1223:1247   */\n      tag_270\n        /* \"#utility.yul\":1241:1246   */\n      dup3\n        /* \"#utility.yul\":1223:1247   */\n      tag_186\n      jump\t// in\n    tag_270:\n        /* \"#utility.yul\":1212:1247   */\n      swap1\n      pop\n        /* \"#utility.yul\":1157:1253   */\n      swap2\n      swap1\n      pop\n      jump\t// out\n        /* \"#utility.yul\":1259:1377   */\n    tag_188:\n        /* \"#utility.yul\":1346:1370   */\n      tag_272\n        /* \"#utility.yul\":1364:1369   */\n      dup2\n        /* \"#utility.yul\":1346:1370   */\n      tag_187\n      jump\t// in\n    tag_272:\n        /* \"#utility.yul\":1341:1344   */\n      dup3\n        /* \"#utility.yul\":1334:1371   */\n      mstore\n        /* \"#utility.yul\":1259:1377   */\n      pop\n      pop\n      jump\t// out\n        /* \"#utility.yul\":1383:1605   */\n    tag_28:\n        /* \"#utility.yul\":1476:1480   */\n      0x00\n        /* \"#utility.yul\":1514:1516   */\n      0x20\n        /* \"#utility.yul\":1503:1512   */\n      dup3\n        /* \"#utility.yul\":1499:1517   */\n      add\n        /* \"#utility.yul\":1491:1517   */\n      swap1\n      pop\n        /* \"#utility.yul\":1527:1598   */\n      tag_274\n        /* \"#utility.yul\":1595:1596   */\n      0x00\n        /* \"#utility.yul\":1584:1593   */\n      dup4\n        /* \"#utility.yul\":1580:1597   */\n      add\n        /* \"#utility.yul\":1571:1577   */\n      dup5\n        /* \"#utility.yul\":1527:1598   */\n      tag_188\n      jump\t// in\n    tag_274:\n        /* \"#utility.yul\":1383:1605   */\n      swap3\n      swap2\n      pop\n      pop\n      jump\t// out\n        /* \"#utility.yul\":1611:1733   */\n    tag_189:\n        /* \"#utility.yul\":1684:1708   */\n      tag_276\n        /* \"#utility.yul\":1702:1707   */\n      dup2\n        /* \"#utility.yul\":1684:1708   */\n      tag_187\n      jump\t// in\n    tag_276:\n        /* \"#utility.yul\":1677:1682   */\n      dup2\n        /* \"#utility.yul\":1674:1709   */\n      eq\n        /* \"#utility.yul\":1664:1727   */\n      tag_277\n      jumpi\n        /* \"#utility.yul\":1723:1724   */\n      0x00\n        /* \"#utility.yul\":1720:1721   */\n      dup1\n        /* \"#utility.yul\":1713:1725   */\n      revert\n        /* \"#utility.yul\":1664:1727   */\n    tag_277:\n        /* \"#utility.yul\":1611:1733   */\n      pop\n      jump\t// out\n        /* \"#utility.yul\":1739:1878   */\n    tag_190:\n        /* \"#utility.yul\":1785:1790   */\n      0x00\n        /* \"#utility.yul\":1823:1829   */\n      dup2\n        /* \"#utility.yul\":1810:1830   */\n      calldataload\n        /* \"#utility.yul\":1801:1830   */\n      swap1\n      pop\n        /* \"#utility.yul\":1839:1872   */\n      tag_279\n        /* \"#utility.yul\":1866:1871   */\n      dup2\n        /* \"#utility.yul\":1839:1872   */\n      tag_189\n      jump\t// in\n    tag_279:\n        /* \"#utility.yul\":1739:1878   */\n      swap3\n      swap2\n      pop\n      pop\n      jump\t// out\n        /* \"#utility.yul\":1884:2213   */\n    tag_31:\n        /* \"#utility.yul\":1943:1949   */\n      0x00\n        /* \"#utility.yul\":1992:1994   */\n      0x20\n        /* \"#utility.yul\":1980:1989   */\n      dup3\n        /* \"#utility.yul\":1971:1978   */\n      dup5\n        /* \"#utility.yul\":1967:1990   */\n      sub\n        /* \"#utility.yul\":1963:1995   */\n      slt\n        /* \"#utility.yul\":1960:2079   */\n      iszero\n      tag_281\n      jumpi\n        /* \"#utility.yul\":1998:2077   */\n      tag_282\n      tag_181\n      jump\t// in\n    tag_282:\n        /* \"#utility.yul\":1960:2079   */\n    tag_281:\n        /* \"#utility.yul\":2118:2119   */\n      0x00\n        /* \"#utility.yul\":2143:2196   */\n      tag_283\n        /* \"#utility.yul\":2188:2195   */\n      dup5\n        /* \"#utility.yul\":2179:2185   */\n      dup3\n        /* \"#utility.yul\":2168:2177   */\n      dup6\n        /* \"#utility.yul\":2164:2186   */\n      add\n        /* \"#utility.yul\":2143:2196   */\n      tag_190\n      jump\t// in\n    tag_283:\n        /* \"#utility.yul\":2133:2196   */\n      swap2\n      pop\n        /* \"#utility.yul\":2089:2206   */\n      pop\n        /* \"#utility.yul\":1884:2213   */\n      swap3\n      swap2\n      pop\n      pop\n      jump\t// out\n        /* \"#utility.yul\":2219:2318   */\n    tag_191:\n        /* \"#utility.yul\":2271:2277   */\n      0x00\n        /* \"#utility.yul\":2305:2310   */\n      dup2\n        /* \"#utility.yul\":2299:2311   */\n      mload\n        /* \"#utility.yul\":2289:2311   */\n      swap1\n      pop\n        /* \"#utility.yul\":2219:2318   */\n      swap2\n      swap1\n      pop\n      jump\t// out\n        /* \"#utility.yul\":2324:2493   */\n    tag_192:\n        /* \"#utility.yul\":2408:2419   */\n      0x00\n        /* \"#utility.yul\":2442:2448   */\n      dup3\n        /* \"#utility.yul\":2437:2440   */\n      dup3\n        /* \"#utility.yul\":2430:2449   */\n      mstore\n        /* \"#utility.yul\":2482:2486   */\n      0x20\n        /* \"#utility.yul\":2477:2480   */\n      dup3\n        /* \"#utility.yul\":2473:2487   */\n      add\n        /* \"#utility.yul\":2458:2487   */\n      swap1\n      pop\n        /* \"#utility.yul\":2324:2493   */\n      swap3\n      swap2\n      pop\n      pop\n      jump\t// out\n        /* \"#utility.yul\":2499:2806   */\n    tag_193:\n        /* \"#utility.yul\":2567:2568   */\n      0x00\n        /* \"#utility.yul\":2577:2690   */\n    tag_287:\n        /* \"#utility.yul\":2591:2597   */\n      dup4\n        /* \"#utility.yul\":2588:2589   */\n      dup2\n        /* \"#utility.yul\":2585:2598   */\n      lt\n        /* \"#utility.yul\":2577:2690   */\n      iszero\n      tag_289\n      jumpi\n        /* \"#utility.yul\":2676:2677   */\n      dup1\n        /* \"#utility.yul\":2671:2674   */\n      dup3\n        /* \"#utility.yul\":2667:2678   */\n      add\n        /* \"#utility.yul\":2661:2679   */\n      mload\n        /* \"#utility.yul\":2657:2658   */\n      dup2\n        /* \"#utility.yul\":2652:2655   */\n      dup5\n        /* \"#utility.yul\":2648:2659   */\n      add\n        /* \"#utility.yul\":2641:2680   */\n      mstore\n        /* \"#utility.yul\":2613:2615   */\n      0x20\n        /* \"#utility.yul\":2610:2611   */\n      dup2\n        /* \"#utility.yul\":2606:2616   */\n      add\n        /* \"#utility.yul\":2601:2616   */\n      swap1\n      pop\n        /* \"#utility.yul\":2577:2690   */\n      jump(tag_287)\n    tag_289:\n        /* \"#utility.yul\":2708:2714   */\n      dup4\n        /* \"#utility.yul\":2705:2706   */\n      dup2\n        /* \"#utility.yul\":2702:2715   */\n      gt\n        /* \"#utility.yul\":2699:2800   */\n      iszero\n      tag_290\n      jumpi\n        /* \"#utility.yul\":2788:2789   */\n      0x00\n        /* \"#utility.yul\":2779:2785   */\n      dup5\n        /* \"#utility.yul\":2774:2777   */\n      dup5\n        /* \"#utility.yul\":2770:2786   */\n      add\n        /* \"#utility.yul\":2763:2790   */\n      mstore\n        /* \"#utility.yul\":2699:2800   */\n    tag_290:\n        /* \"#utility.yul\":2548:2806   */\n      pop\n        /* \"#utility.yul\":2499:2806   */\n      pop\n      pop\n      pop\n      jump\t// out\n        /* \"#utility.yul\":2812:2914   */\n    tag_194:\n        /* \"#utility.yul\":2853:2859   */\n      0x00\n        /* \"#utility.yul\":2904:2906   */\n      0x1f\n        /* \"#utility.yul\":2900:2907   */\n      not\n        /* \"#utility.yul\":2895:2897   */\n      0x1f\n        /* \"#utility.yul\":2888:2893   */\n      dup4\n        /* \"#utility.yul\":2884:2898   */\n      add\n        /* \"#utility.yul\":2880:2908   */\n      and\n        /* \"#utility.yul\":2870:2908   */\n      swap1\n      pop\n        /* \"#utility.yul\":2812:2914   */\n      swap2\n      swap1\n      pop\n      jump\t// out\n        /* \"#utility.yul\":2920:3284   */\n    tag_195:\n        /* \"#utility.yul\":3008:3011   */\n      0x00\n        /* \"#utility.yul\":3036:3075   */\n      tag_293\n        /* \"#utility.yul\":3069:3074   */\n      dup3\n        /* \"#utility.yul\":3036:3075   */\n      tag_191\n      jump\t// in\n    tag_293:\n        /* \"#utility.yul\":3091:3162   */\n      tag_294\n        /* \"#utility.yul\":3155:3161   */\n      dup2\n        /* \"#utility.yul\":3150:3153   */\n      dup6\n        /* \"#utility.yul\":3091:3162   */\n      tag_192\n      jump\t// in\n    tag_294:\n        /* \"#utility.yul\":3084:3162   */\n      swap4\n      pop\n        /* \"#utility.yul\":3171:3223   */\n      tag_295\n        /* \"#utility.yul\":3216:3222   */\n      dup2\n        /* \"#utility.yul\":3211:3214   */\n      dup6\n        /* \"#utility.yul\":3204:3208   */\n      0x20\n        /* \"#utility.yul\":3197:3202   */\n      dup7\n        /* \"#utility.yul\":3193:3209   */\n      add\n        /* \"#utility.yul\":3171:3223   */\n      tag_193\n      jump\t// in\n    tag_295:\n        /* \"#utility.yul\":3248:3277   */\n      tag_296\n        /* \"#utility.yul\":3270:3276   */\n      dup2\n        /* \"#utility.yul\":3248:3277   */\n      tag_194\n      jump\t// in\n    tag_296:\n        /* \"#utility.yul\":3243:3246   */\n      dup5\n        /* \"#utility.yul\":3239:3278   */\n      add\n        /* \"#utility.yul\":3232:3278   */\n      swap2\n      pop\n        /* \"#utility.yul\":3012:3284   */\n      pop\n        /* \"#utility.yul\":2920:3284   */\n      swap3\n      swap2\n      pop\n      pop\n      jump\t// out\n        /* \"#utility.yul\":3290:3603   */\n    tag_36:\n        /* \"#utility.yul\":3403:3407   */\n      0x00\n        /* \"#utility.yul\":3441:3443   */\n      0x20\n        /* \"#utility.yul\":3430:3439   */\n      dup3\n        /* \"#utility.yul\":3426:3444   */\n      add\n        /* \"#utility.yul\":3418:3444   */\n      swap1\n      pop\n        /* \"#utility.yul\":3490:3499   */\n      dup2\n        /* \"#utility.yul\":3484:3488   */\n      dup2\n        /* \"#utility.yul\":3480:3500   */\n      sub\n        /* \"#utility.yul\":3476:3477   */\n      0x00\n        /* \"#utility.yul\":3465:3474   */\n      dup4\n        /* \"#utility.yul\":3461:3478   */\n      add\n        /* \"#utility.yul\":3454:3501   */\n      mstore\n        /* \"#utility.yul\":3518:3596   */\n      tag_298\n        /* \"#utility.yul\":3591:3595   */\n      dup2\n        /* \"#utility.yul\":3582:3588   */\n      dup5\n        /* \"#utility.yul\":3518:3596   */\n      tag_195\n      jump\t// in\n    tag_298:\n        /* \"#utility.yul\":3510:3596   */\n      swap1\n      pop\n        /* \"#utility.yul\":3290:3603   */\n      swap3\n      swap2\n      pop\n      pop\n      jump\t// out\n        /* \"#utility.yul\":3609:3699   */\n    tag_196:\n        /* \"#utility.yul\":3643:3650   */\n      0x00\n        /* \"#utility.yul\":3686:3691   */\n      dup2\n        /* \"#utility.yul\":3679:3692   */\n      iszero\n        /* \"#utility.yul\":3672:3693   */\n      iszero\n        /* \"#utility.yul\":3661:3693   */\n      swap1\n      pop\n        /* \"#utility.yul\":3609:3699   */\n      swap2\n      swap1\n      pop\n      jump\t// out\n        /* \"#utility.yul\":3705:3814   */\n    tag_197:\n        /* \"#utility.yul\":3786:3807   */\n      tag_301\n        /* \"#utility.yul\":3801:3806   */\n      dup2\n        /* \"#utility.yul\":3786:3807   */\n      tag_196\n      jump\t// in\n    tag_301:\n        /* \"#utility.yul\":3781:3784   */\n      dup3\n        /* \"#utility.yul\":3774:3808   */\n      mstore\n        /* \"#utility.yul\":3705:3814   */\n      pop\n      pop\n      jump\t// out\n        /* \"#utility.yul\":3820:4030   */\n    tag_41:\n        /* \"#utility.yul\":3907:3911   */\n      0x00\n        /* \"#utility.yul\":3945:3947   */\n      0x20\n        /* \"#utility.yul\":3934:3943   */\n      dup3\n        /* \"#utility.yul\":3930:3948   */\n      add\n        /* \"#utility.yul\":3922:3948   */\n      swap1\n      pop\n        /* \"#utility.yul\":3958:4023   */\n      tag_303\n        /* \"#utility.yul\":4020:4021   */\n      0x00\n        /* \"#utility.yul\":4009:4018   */\n      dup4\n        /* \"#utility.yul\":4005:4022   */\n      add\n        /* \"#utility.yul\":3996:4002   */\n      dup5\n        /* \"#utility.yul\":3958:4023   */\n      tag_197\n      jump\t// in\n    tag_303:\n        /* \"#utility.yul\":3820:4030   */\n      swap3\n      swap2\n      pop\n      pop\n      jump\t// out\n        /* \"#utility.yul\":4036:4153   */\n    tag_198:\n        /* \"#utility.yul\":4145:4146   */\n      0x00\n        /* \"#utility.yul\":4142:4143   */\n      dup1\n        /* \"#utility.yul\":4135:4147   */\n      revert\n        /* \"#utility.yul\":4159:4276   */\n    tag_199:\n        /* \"#utility.yul\":4268:4269   */\n      0x00\n        /* \"#utility.yul\":4265:4266   */\n      dup1\n        /* \"#utility.yul\":4258:4270   */\n      revert\n        /* \"#utility.yul\":4282:4462   */\n    tag_200:\n        /* \"#utility.yul\":4330:4407   */\n      0x4e487b7100000000000000000000000000000000000000000000000000000000\n        /* \"#utility.yul\":4327:4328   */\n      0x00\n        /* \"#utility.yul\":4320:4408   */\n      mstore\n        /* \"#utility.yul\":4427:4431   */\n      0x41\n        /* \"#utility.yul\":4424:4425   */\n      0x04\n        /* \"#utility.yul\":4417:4432   */\n      mstore\n        /* \"#utility.yul\":4451:4455   */\n      0x24\n        /* \"#utility.yul\":4448:4449   */\n      0x00\n        /* \"#utility.yul\":4441:4456   */\n      revert\n        /* \"#utility.yul\":4468:4749   */\n    tag_201:\n        /* \"#utility.yul\":4551:4578   */\n      tag_308\n        /* \"#utility.yul\":4573:4577   */\n      dup3\n        /* \"#utility.yul\":4551:4578   */\n      tag_194\n      jump\t// in\n    tag_308:\n        /* \"#utility.yul\":4543:4549   */\n      dup2\n        /* \"#utility.yul\":4539:4579   */\n      add\n        /* \"#utility.yul\":4681:4687   */\n      dup2\n        /* \"#utility.yul\":4669:4679   */\n      dup2\n        /* \"#utility.yul\":4666:4688   */\n      lt\n        /* \"#utility.yul\":4645:4663   */\n      0xffffffffffffffff\n        /* \"#utility.yul\":4633:4643   */\n      dup3\n        /* \"#utility.yul\":4630:4664   */\n      gt\n        /* \"#utility.yul\":4627:4689   */\n      or\n        /* \"#utility.yul\":4624:4712   */\n      iszero\n      tag_309\n      jumpi\n        /* \"#utility.yul\":4692:4710   */\n      tag_310\n      tag_200\n      jump\t// in\n    tag_310:\n        /* \"#utility.yul\":4624:4712   */\n    tag_309:\n        /* \"#utility.yul\":4732:4742   */\n      dup1\n        /* \"#utility.yul\":4728:4730   */\n      0x40\n        /* \"#utility.yul\":4721:4743   */\n      mstore\n        /* \"#utility.yul\":4511:4749   */\n      pop\n        /* \"#utility.yul\":4468:4749   */\n      pop\n      pop\n      jump\t// out\n        /* \"#utility.yul\":4755:4884   */\n    tag_202:\n        /* \"#utility.yul\":4789:4795   */\n      0x00\n        /* \"#utility.yul\":4816:4836   */\n      tag_312\n      tag_180\n      jump\t// in\n    tag_312:\n        /* \"#utility.yul\":4806:4836   */\n      swap1\n      pop\n        /* \"#utility.yul\":4845:4878   */\n      tag_313\n        /* \"#utility.yul\":4873:4877   */\n      dup3\n        /* \"#utility.yul\":4865:4871   */\n      dup3\n        /* \"#utility.yul\":4845:4878   */\n      tag_201\n      jump\t// in\n    tag_313:\n        /* \"#utility.yul\":4755:4884   */\n      swap2\n      swap1\n      pop\n      jump\t// out\n        /* \"#utility.yul\":4890:5198   */\n    tag_203:\n        /* \"#utility.yul\":4952:4956   */\n      0x00\n        /* \"#utility.yul\":5042:5060   */\n      0xffffffffffffffff\n        /* \"#utility.yul\":5034:5040   */\n      dup3\n        /* \"#utility.yul\":5031:5061   */\n      gt\n        /* \"#utility.yul\":5028:5084   */\n      iszero\n      tag_315\n      jumpi\n        /* \"#utility.yul\":5064:5082   */\n      tag_316\n      tag_200\n      jump\t// in\n    tag_316:\n        /* \"#utility.yul\":5028:5084   */\n    tag_315:\n        /* \"#utility.yul\":5102:5131   */\n      tag_317\n        /* \"#utility.yul\":5124:5130   */\n      dup3\n        /* \"#utility.yul\":5102:5131   */\n      tag_194\n      jump\t// in\n    tag_317:\n        /* \"#utility.yul\":5094:5131   */\n      swap1\n      pop\n        /* \"#utility.yul\":5186:5190   */\n      0x20\n        /* \"#utility.yul\":5180:5184   */\n      dup2\n        /* \"#utility.yul\":5176:5191   */\n      add\n        /* \"#utility.yul\":5168:5191   */\n      swap1\n      pop\n        /* \"#utility.yul\":4890:5198   */\n      swap2\n      swap1\n      pop\n      jump\t// out\n        /* \"#utility.yul\":5204:5358   */\n    tag_204:\n        /* \"#utility.yul\":5288:5294   */\n      dup3\n        /* \"#utility.yul\":5283:5286   */\n      dup2\n        /* \"#utility.yul\":5278:5281   */\n      dup4\n        /* \"#utility.yul\":5265:5295   */\n      calldatacopy\n        /* \"#utility.yul\":5350:5351   */\n      0x00\n        /* \"#utility.yul\":5341:5347   */\n      dup4\n        /* \"#utility.yul\":5336:5339   */\n      dup4\n        /* \"#utility.yul\":5332:5348   */\n      add\n        /* \"#utility.yul\":5325:5352   */\n      mstore\n        /* \"#utility.yul\":5204:5358   */\n      pop\n      pop\n      pop\n      jump\t// out\n        /* \"#utility.yul\":5364:5776   */\n    tag_205:\n        /* \"#utility.yul\":5442:5447   */\n      0x00\n        /* \"#utility.yul\":5467:5533   */\n      tag_320\n        /* \"#utility.yul\":5483:5532   */\n      tag_321\n        /* \"#utility.yul\":5525:5531   */\n      dup5\n        /* \"#utility.yul\":5483:5532   */\n      tag_203\n      jump\t// in\n    tag_321:\n        /* \"#utility.yul\":5467:5533   */\n      tag_202\n      jump\t// in\n    tag_320:\n        /* \"#utility.yul\":5458:5533   */\n      swap1\n      pop\n        /* \"#utility.yul\":5556:5562   */\n      dup3\n        /* \"#utility.yul\":5549:5554   */\n      dup2\n        /* \"#utility.yul\":5542:5563   */\n      mstore\n        /* \"#utility.yul\":5594:5598   */\n      0x20\n        /* \"#utility.yul\":5587:5592   */\n      dup2\n        /* \"#utility.yul\":5583:5599   */\n      add\n        /* \"#utility.yul\":5632:5635   */\n      dup5\n        /* \"#utility.yul\":5623:5629   */\n      dup5\n        /* \"#utility.yul\":5618:5621   */\n      dup5\n        /* \"#utility.yul\":5614:5630   */\n      add\n        /* \"#utility.yul\":5611:5636   */\n      gt\n        /* \"#utility.yul\":5608:5720   */\n      iszero\n      tag_322\n      jumpi\n        /* \"#utility.yul\":5639:5718   */\n      tag_323\n      tag_199\n      jump\t// in\n    tag_323:\n        /* \"#utility.yul\":5608:5720   */\n    tag_322:\n        /* \"#utility.yul\":5729:5770   */\n      tag_324\n        /* \"#utility.yul\":5763:5769   */\n      dup5\n        /* \"#utility.yul\":5758:5761   */\n      dup3\n        /* \"#utility.yul\":5753:5756   */\n      dup6\n        /* \"#utility.yul\":5729:5770   */\n      tag_204\n      jump\t// in\n    tag_324:\n        /* \"#utility.yul\":5448:5776   */\n      pop\n        /* \"#utility.yul\":5364:5776   */\n      swap4\n      swap3\n      pop\n      pop\n      pop\n      jump\t// out\n        /* \"#utility.yul\":5796:6136   */\n    tag_206:\n        /* \"#utility.yul\":5852:5857   */\n      0x00\n        /* \"#utility.yul\":5901:5904   */\n      dup3\n        /* \"#utility.yul\":5894:5898   */\n      0x1f\n        /* \"#utility.yul\":5886:5892   */\n      dup4\n        /* \"#utility.yul\":5882:5899   */\n      add\n        /* \"#utility.yul\":5878:5905   */\n      slt\n        /* \"#utility.yul\":5868:5990   */\n      tag_326\n      jumpi\n        /* \"#utility.yul\":5909:5988   */\n      tag_327\n      tag_198\n      jump\t// in\n    tag_327:\n        /* \"#utility.yul\":5868:5990   */\n    tag_326:\n        /* \"#utility.yul\":6026:6032   */\n      dup2\n        /* \"#utility.yul\":6013:6033   */\n      calldataload\n        /* \"#utility.yul\":6051:6130   */\n      tag_328\n        /* \"#utility.yul\":6126:6129   */\n      dup5\n        /* \"#utility.yul\":6118:6124   */\n      dup3\n        /* \"#utility.yul\":6111:6115   */\n      0x20\n        /* \"#utility.yul\":6103:6109   */\n      dup7\n        /* \"#utility.yul\":6099:6116   */\n      add\n        /* \"#utility.yul\":6051:6130   */\n      tag_205\n      jump\t// in\n    tag_328:\n        /* \"#utility.yul\":6042:6130   */\n      swap2\n      pop\n        /* \"#utility.yul\":5858:6136   */\n      pop\n        /* \"#utility.yul\":5796:6136   */\n      swap3\n      swap2\n      pop\n      pop\n      jump\t// out\n        /* \"#utility.yul\":6142:6651   */\n    tag_44:\n        /* \"#utility.yul\":6211:6217   */\n      0x00\n        /* \"#utility.yul\":6260:6262   */\n      0x20\n        /* \"#utility.yul\":6248:6257   */\n      dup3\n        /* \"#utility.yul\":6239:6246   */\n      dup5\n        /* \"#utility.yul\":6235:6258   */\n      sub\n        /* \"#utility.yul\":6231:6263   */\n      slt\n        /* \"#utility.yul\":6228:6347   */\n      iszero\n      tag_330\n      jumpi\n        /* \"#utility.yul\":6266:6345   */\n      tag_331\n      tag_181\n      jump\t// in\n    tag_331:\n        /* \"#utility.yul\":6228:6347   */\n    tag_330:\n        /* \"#utility.yul\":6414:6415   */\n      0x00\n        /* \"#utility.yul\":6403:6412   */\n      dup3\n        /* \"#utility.yul\":6399:6416   */\n      add\n        /* \"#utility.yul\":6386:6417   */\n      calldataload\n        /* \"#utility.yul\":6444:6462   */\n      0xffffffffffffffff\n        /* \"#utility.yul\":6436:6442   */\n      dup2\n        /* \"#utility.yul\":6433:6463   */\n      gt\n        /* \"#utility.yul\":6430:6547   */\n      iszero\n      tag_332\n      jumpi\n        /* \"#utility.yul\":6466:6545   */\n      tag_333\n      tag_182\n      jump\t// in\n    tag_333:\n        /* \"#utility.yul\":6430:6547   */\n    tag_332:\n        /* \"#utility.yul\":6571:6634   */\n      tag_334\n        /* \"#utility.yul\":6626:6633   */\n      dup5\n        /* \"#utility.yul\":6617:6623   */\n      dup3\n        /* \"#utility.yul\":6606:6615   */\n      dup6\n        /* \"#utility.yul\":6602:6624   */\n      add\n        /* \"#utility.yul\":6571:6634   */\n      tag_206\n      jump\t// in\n    tag_334:\n        /* \"#utility.yul\":6561:6634   */\n      swap2\n      pop\n        /* \"#utility.yul\":6357:6644   */\n      pop\n        /* \"#utility.yul\":6142:6651   */\n      swap3\n      swap2\n      pop\n      pop\n      jump\t// out\n        /* \"#utility.yul\":6657:6775   */\n    tag_207:\n        /* \"#utility.yul\":6744:6768   */\n      tag_336\n        /* \"#utility.yul\":6762:6767   */\n      dup2\n        /* \"#utility.yul\":6744:6768   */\n      tag_183\n      jump\t// in\n    tag_336:\n        /* \"#utility.yul\":6739:6742   */\n      dup3\n        /* \"#utility.yul\":6732:6769   */\n      mstore\n        /* \"#utility.yul\":6657:6775   */\n      pop\n      pop\n      jump\t// out\n        /* \"#utility.yul\":6781:7003   */\n    tag_52:\n        /* \"#utility.yul\":6874:6878   */\n      0x00\n        /* \"#utility.yul\":6912:6914   */\n      0x20\n        /* \"#utility.yul\":6901:6910   */\n      dup3\n        /* \"#utility.yul\":6897:6915   */\n      add\n        /* \"#utility.yul\":6889:6915   */\n      swap1\n      pop\n        /* \"#utility.yul\":6925:6996   */\n      tag_338\n        /* \"#utility.yul\":6993:6994   */\n      0x00\n        /* \"#utility.yul\":6982:6991   */\n      dup4\n        /* \"#utility.yul\":6978:6995   */\n      add\n        /* \"#utility.yul\":6969:6975   */\n      dup5\n        /* \"#utility.yul\":6925:6996   */\n      tag_207\n      jump\t// in\n    tag_338:\n        /* \"#utility.yul\":6781:7003   */\n      swap3\n      swap2\n      pop\n      pop\n      jump\t// out\n        /* \"#utility.yul\":7009:7432   */\n    tag_59:\n        /* \"#utility.yul\":7150:7154   */\n      0x00\n        /* \"#utility.yul\":7188:7190   */\n      0x40\n        /* \"#utility.yul\":7177:7186   */\n      dup3\n        /* \"#utility.yul\":7173:7191   */\n      add\n        /* \"#utility.yul\":7165:7191   */\n      swap1\n      pop\n        /* \"#utility.yul\":7201:7272   */\n      tag_340\n        /* \"#utility.yul\":7269:7270   */\n      0x00\n        /* \"#utility.yul\":7258:7267   */\n      dup4\n        /* \"#utility.yul\":7254:7271   */\n      add\n        /* \"#utility.yul\":7245:7251   */\n      dup6\n        /* \"#utility.yul\":7201:7272   */\n      tag_207\n      jump\t// in\n    tag_340:\n        /* \"#utility.yul\":7319:7328   */\n      dup2\n        /* \"#utility.yul\":7313:7317   */\n      dup2\n        /* \"#utility.yul\":7309:7329   */\n      sub\n        /* \"#utility.yul\":7304:7306   */\n      0x20\n        /* \"#utility.yul\":7293:7302   */\n      dup4\n        /* \"#utility.yul\":7289:7307   */\n      add\n        /* \"#utility.yul\":7282:7330   */\n      mstore\n        /* \"#utility.yul\":7347:7425   */\n      tag_341\n        /* \"#utility.yul\":7420:7424   */\n      dup2\n        /* \"#utility.yul\":7411:7417   */\n      dup5\n        /* \"#utility.yul\":7347:7425   */\n      tag_195\n      jump\t// in\n    tag_341:\n        /* \"#utility.yul\":7339:7425   */\n      swap1\n      pop\n        /* \"#utility.yul\":7009:7432   */\n      swap4\n      swap3\n      pop\n      pop\n      pop\n      jump\t// out\n        /* \"#utility.yul\":7438:7856   */\n    tag_70:\n        /* \"#utility.yul\":7575:7579   */\n      0x00\n        /* \"#utility.yul\":7613:7615   */\n      0x60\n        /* \"#utility.yul\":7602:7611   */\n      dup3\n        /* \"#utility.yul\":7598:7616   */\n      add\n        /* \"#utility.yul\":7590:7616   */\n      swap1\n      pop\n        /* \"#utility.yul\":7626:7691   */\n      tag_343\n        /* \"#utility.yul\":7688:7689   */\n      0x00\n        /* \"#utility.yul\":7677:7686   */\n      dup4\n        /* \"#utility.yul\":7673:7690   */\n      add\n        /* \"#utility.yul\":7664:7670   */\n      dup7\n        /* \"#utility.yul\":7626:7691   */\n      tag_197\n      jump\t// in\n    tag_343:\n        /* \"#utility.yul\":7701:7773   */\n      tag_344\n        /* \"#utility.yul\":7769:7771   */\n      0x20\n        /* \"#utility.yul\":7758:7767   */\n      dup4\n        /* \"#utility.yul\":7754:7772   */\n      add\n        /* \"#utility.yul\":7745:7751   */\n      dup6\n        /* \"#utility.yul\":7701:7773   */\n      tag_188\n      jump\t// in\n    tag_344:\n        /* \"#utility.yul\":7783:7849   */\n      tag_345\n        /* \"#utility.yul\":7845:7847   */\n      0x40\n        /* \"#utility.yul\":7834:7843   */\n      dup4\n        /* \"#utility.yul\":7830:7848   */\n      add\n        /* \"#utility.yul\":7821:7827   */\n      dup5\n        /* \"#utility.yul\":7783:7849   */\n      tag_197\n      jump\t// in\n    tag_345:\n        /* \"#utility.yul\":7438:7856   */\n      swap5\n      swap4\n      pop\n      pop\n      pop\n      pop\n      jump\t// out\n        /* \"#utility.yul\":7862:7970   */\n    tag_208:\n        /* \"#utility.yul\":7939:7963   */\n      tag_347\n        /* \"#utility.yul\":7957:7962   */\n      dup2\n        /* \"#utility.yul\":7939:7963   */\n      tag_183\n      jump\t// in\n    tag_347:\n        /* \"#utility.yul\":7934:7937   */\n      dup3\n        /* \"#utility.yul\":7927:7964   */\n      mstore\n        /* \"#utility.yul\":7862:7970   */\n      pop\n      pop\n      jump\t// out\n        /* \"#utility.yul\":7976:8135   */\n    tag_209:\n        /* \"#utility.yul\":8050:8061   */\n      0x00\n        /* \"#utility.yul\":8084:8090   */\n      dup3\n        /* \"#utility.yul\":8079:8082   */\n      dup3\n        /* \"#utility.yul\":8072:8091   */\n      mstore\n        /* \"#utility.yul\":8124:8128   */\n      0x20\n        /* \"#utility.yul\":8119:8122   */\n      dup3\n        /* \"#utility.yul\":8115:8129   */\n      add\n        /* \"#utility.yul\":8100:8129   */\n      swap1\n      pop\n        /* \"#utility.yul\":7976:8135   */\n      swap3\n      swap2\n      pop\n      pop\n      jump\t// out\n        /* \"#utility.yul\":8141:8485   */\n    tag_210:\n        /* \"#utility.yul\":8219:8222   */\n      0x00\n        /* \"#utility.yul\":8247:8286   */\n      tag_350\n        /* \"#utility.yul\":8280:8285   */\n      dup3\n        /* \"#utility.yul\":8247:8286   */\n      tag_191\n      jump\t// in\n    tag_350:\n        /* \"#utility.yul\":8302:8363   */\n      tag_351\n        /* \"#utility.yul\":8356:8362   */\n      dup2\n        /* \"#utility.yul\":8351:8354   */\n      dup6\n        /* \"#utility.yul\":8302:8363   */\n      tag_209\n      jump\t// in\n    tag_351:\n        /* \"#utility.yul\":8295:8363   */\n      swap4\n      pop\n        /* \"#utility.yul\":8372:8424   */\n      tag_352\n        /* \"#utility.yul\":8417:8423   */\n      dup2\n        /* \"#utility.yul\":8412:8415   */\n      dup6\n        /* \"#utility.yul\":8405:8409   */\n      0x20\n        /* \"#utility.yul\":8398:8403   */\n      dup7\n        /* \"#utility.yul\":8394:8410   */\n      add\n        /* \"#utility.yul\":8372:8424   */\n      tag_193\n      jump\t// in\n    tag_352:\n        /* \"#utility.yul\":8449:8478   */\n      tag_353\n        /* \"#utility.yul\":8471:8477   */\n      dup2\n        /* \"#utility.yul\":8449:8478   */\n      tag_194\n      jump\t// in\n    tag_353:\n        /* \"#utility.yul\":8444:8447   */\n      dup5\n        /* \"#utility.yul\":8440:8479   */\n      add\n        /* \"#utility.yul\":8433:8479   */\n      swap2\n      pop\n        /* \"#utility.yul\":8223:8485   */\n      pop\n        /* \"#utility.yul\":8141:8485   */\n      swap3\n      swap2\n      pop\n      pop\n      jump\t// out\n        /* \"#utility.yul\":8569:9183   */\n    tag_211:\n        /* \"#utility.yul\":8686:8689   */\n      0x00\n        /* \"#utility.yul\":8722:8726   */\n      0x40\n        /* \"#utility.yul\":8717:8720   */\n      dup4\n        /* \"#utility.yul\":8713:8727   */\n      add\n        /* \"#utility.yul\":8814:8818   */\n      0x00\n        /* \"#utility.yul\":8807:8812   */\n      dup4\n        /* \"#utility.yul\":8803:8819   */\n      add\n        /* \"#utility.yul\":8797:8820   */\n      mload\n        /* \"#utility.yul\":8833:8896   */\n      tag_355\n        /* \"#utility.yul\":8890:8894   */\n      0x00\n        /* \"#utility.yul\":8885:8888   */\n      dup7\n        /* \"#utility.yul\":8881:8895   */\n      add\n        /* \"#utility.yul\":8867:8879   */\n      dup3\n        /* \"#utility.yul\":8833:8896   */\n      tag_208\n      jump\t// in\n    tag_355:\n        /* \"#utility.yul\":8737:8906   */\n      pop\n        /* \"#utility.yul\":8993:8997   */\n      0x20\n        /* \"#utility.yul\":8986:8991   */\n      dup4\n        /* \"#utility.yul\":8982:8998   */\n      add\n        /* \"#utility.yul\":8976:8999   */\n      mload\n        /* \"#utility.yul\":9046:9049   */\n      dup5\n        /* \"#utility.yul\":9040:9044   */\n      dup3\n        /* \"#utility.yul\":9036:9050   */\n      sub\n        /* \"#utility.yul\":9029:9033   */\n      0x20\n        /* \"#utility.yul\":9024:9027   */\n      dup7\n        /* \"#utility.yul\":9020:9034   */\n      add\n        /* \"#utility.yul\":9013:9051   */\n      mstore\n        /* \"#utility.yul\":9072:9145   */\n      tag_356\n        /* \"#utility.yul\":9140:9144   */\n      dup3\n        /* \"#utility.yul\":9126:9138   */\n      dup3\n        /* \"#utility.yul\":9072:9145   */\n      tag_210\n      jump\t// in\n    tag_356:\n        /* \"#utility.yul\":9064:9145   */\n      swap2\n      pop\n        /* \"#utility.yul\":8916:9156   */\n      pop\n        /* \"#utility.yul\":9173:9177   */\n      dup1\n        /* \"#utility.yul\":9166:9177   */\n      swap2\n      pop\n        /* \"#utility.yul\":8691:9183   */\n      pop\n        /* \"#utility.yul\":8569:9183   */\n      swap3\n      swap2\n      pop\n      pop\n      jump\t// out\n        /* \"#utility.yul\":9189:9323   */\n    tag_212:\n        /* \"#utility.yul\":9276:9282   */\n      0x00\n        /* \"#utility.yul\":9310:9315   */\n      dup2\n        /* \"#utility.yul\":9304:9316   */\n      mload\n        /* \"#utility.yul\":9294:9316   */\n      swap1\n      pop\n        /* \"#utility.yul\":9189:9323   */\n      swap2\n      swap1\n      pop\n      jump\t// out\n        /* \"#utility.yul\":9329:9533   */\n    tag_213:\n        /* \"#utility.yul\":9448:9459   */\n      0x00\n        /* \"#utility.yul\":9482:9488   */\n      dup3\n        /* \"#utility.yul\":9477:9480   */\n      dup3\n        /* \"#utility.yul\":9470:9489   */\n      mstore\n        /* \"#utility.yul\":9522:9526   */\n      0x20\n        /* \"#utility.yul\":9517:9520   */\n      dup3\n        /* \"#utility.yul\":9513:9527   */\n      add\n        /* \"#utility.yul\":9498:9527   */\n      swap1\n      pop\n        /* \"#utility.yul\":9329:9533   */\n      swap3\n      swap2\n      pop\n      pop\n      jump\t// out\n        /* \"#utility.yul\":9539:9691   */\n    tag_214:\n        /* \"#utility.yul\":9626:9630   */\n      0x00\n        /* \"#utility.yul\":9649:9652   */\n      dup2\n        /* \"#utility.yul\":9641:9652   */\n      swap1\n      pop\n        /* \"#utility.yul\":9679:9683   */\n      0x20\n        /* \"#utility.yul\":9674:9677   */\n      dup3\n        /* \"#utility.yul\":9670:9684   */\n      add\n        /* \"#utility.yul\":9662:9684   */\n      swap1\n      pop\n        /* \"#utility.yul\":9539:9691   */\n      swap2\n      swap1\n      pop\n      jump\t// out\n        /* \"#utility.yul\":9697:9796   */\n    tag_215:\n        /* \"#utility.yul\":9768:9789   */\n      tag_361\n        /* \"#utility.yul\":9783:9788   */\n      dup2\n        /* \"#utility.yul\":9768:9789   */\n      tag_196\n      jump\t// in\n    tag_361:\n        /* \"#utility.yul\":9763:9766   */\n      dup3\n        /* \"#utility.yul\":9756:9790   */\n      mstore\n        /* \"#utility.yul\":9697:9796   */\n      pop\n      pop\n      jump\t// out\n        /* \"#utility.yul\":9802:9910   */\n    tag_216:\n        /* \"#utility.yul\":9879:9903   */\n      tag_363\n        /* \"#utility.yul\":9897:9902   */\n      dup2\n        /* \"#utility.yul\":9879:9903   */\n      tag_187\n      jump\t// in\n    tag_363:\n        /* \"#utility.yul\":9874:9877   */\n      dup3\n        /* \"#utility.yul\":9867:9904   */\n      mstore\n        /* \"#utility.yul\":9802:9910   */\n      pop\n      pop\n      jump\t// out\n        /* \"#utility.yul\":9988:10643   */\n    tag_217:\n        /* \"#utility.yul\":10115:10119   */\n      0x60\n        /* \"#utility.yul\":10110:10113   */\n      dup3\n        /* \"#utility.yul\":10106:10120   */\n      add\n        /* \"#utility.yul\":10203:10207   */\n      0x00\n        /* \"#utility.yul\":10196:10201   */\n      dup3\n        /* \"#utility.yul\":10192:10208   */\n      add\n        /* \"#utility.yul\":10186:10209   */\n      mload\n        /* \"#utility.yul\":10222:10279   */\n      tag_365\n        /* \"#utility.yul\":10273:10277   */\n      0x00\n        /* \"#utility.yul\":10268:10271   */\n      dup6\n        /* \"#utility.yul\":10264:10278   */\n      add\n        /* \"#utility.yul\":10250:10262   */\n      dup3\n        /* \"#utility.yul\":10222:10279   */\n      tag_215\n      jump\t// in\n    tag_365:\n        /* \"#utility.yul\":10130:10289   */\n      pop\n        /* \"#utility.yul\":10376:10380   */\n      0x20\n        /* \"#utility.yul\":10369:10374   */\n      dup3\n        /* \"#utility.yul\":10365:10381   */\n      add\n        /* \"#utility.yul\":10359:10382   */\n      mload\n        /* \"#utility.yul\":10395:10458   */\n      tag_366\n        /* \"#utility.yul\":10452:10456   */\n      0x20\n        /* \"#utility.yul\":10447:10450   */\n      dup6\n        /* \"#utility.yul\":10443:10457   */\n      add\n        /* \"#utility.yul\":10429:10441   */\n      dup3\n        /* \"#utility.yul\":10395:10458   */\n      tag_216\n      jump\t// in\n    tag_366:\n        /* \"#utility.yul\":10299:10468   */\n      pop\n        /* \"#utility.yul\":10550:10554   */\n      0x40\n        /* \"#utility.yul\":10543:10548   */\n      dup3\n        /* \"#utility.yul\":10539:10555   */\n      add\n        /* \"#utility.yul\":10533:10556   */\n      mload\n        /* \"#utility.yul\":10569:10626   */\n      tag_367\n        /* \"#utility.yul\":10620:10624   */\n      0x40\n        /* \"#utility.yul\":10615:10618   */\n      dup6\n        /* \"#utility.yul\":10611:10625   */\n      add\n        /* \"#utility.yul\":10597:10609   */\n      dup3\n        /* \"#utility.yul\":10569:10626   */\n      tag_215\n      jump\t// in\n    tag_367:\n        /* \"#utility.yul\":10478:10636   */\n      pop\n        /* \"#utility.yul\":10084:10643   */\n      pop\n        /* \"#utility.yul\":9988:10643   */\n      pop\n      pop\n      jump\t// out\n        /* \"#utility.yul\":10649:10908   */\n    tag_218:\n        /* \"#utility.yul\":10758:10768   */\n      0x00\n        /* \"#utility.yul\":10779:10865   */\n      tag_369\n        /* \"#utility.yul\":10861:10864   */\n      dup4\n        /* \"#utility.yul\":10853:10859   */\n      dup4\n        /* \"#utility.yul\":10779:10865   */\n      tag_217\n      jump\t// in\n    tag_369:\n        /* \"#utility.yul\":10897:10901   */\n      0x60\n        /* \"#utility.yul\":10892:10895   */\n      dup4\n        /* \"#utility.yul\":10888:10902   */\n      add\n        /* \"#utility.yul\":10874:10902   */\n      swap1\n      pop\n        /* \"#utility.yul\":10649:10908   */\n      swap3\n      swap2\n      pop\n      pop\n      jump\t// out\n        /* \"#utility.yul\":10914:11047   */\n    tag_219:\n        /* \"#utility.yul\":11004:11008   */\n      0x00\n        /* \"#utility.yul\":11036:11040   */\n      0x20\n        /* \"#utility.yul\":11031:11034   */\n      dup3\n        /* \"#utility.yul\":11027:11041   */\n      add\n        /* \"#utility.yul\":11019:11041   */\n      swap1\n      pop\n        /* \"#utility.yul\":10914:11047   */\n      swap2\n      swap1\n      pop\n      jump\t// out\n        /* \"#utility.yul\":11129:12021   */\n    tag_220:\n        /* \"#utility.yul\":11288:11291   */\n      0x00\n        /* \"#utility.yul\":11317:11391   */\n      tag_372\n        /* \"#utility.yul\":11385:11390   */\n      dup3\n        /* \"#utility.yul\":11317:11391   */\n      tag_212\n      jump\t// in\n    tag_372:\n        /* \"#utility.yul\":11407:11513   */\n      tag_373\n        /* \"#utility.yul\":11506:11512   */\n      dup2\n        /* \"#utility.yul\":11501:11504   */\n      dup6\n        /* \"#utility.yul\":11407:11513   */\n      tag_213\n      jump\t// in\n    tag_373:\n        /* \"#utility.yul\":11400:11513   */\n      swap4\n      pop\n        /* \"#utility.yul\":11537:11613   */\n      tag_374\n        /* \"#utility.yul\":11607:11612   */\n      dup4\n        /* \"#utility.yul\":11537:11613   */\n      tag_214\n      jump\t// in\n    tag_374:\n        /* \"#utility.yul\":11636:11643   */\n      dup1\n        /* \"#utility.yul\":11667:11668   */\n      0x00\n        /* \"#utility.yul\":11652:11996   */\n    tag_375:\n        /* \"#utility.yul\":11677:11683   */\n      dup4\n        /* \"#utility.yul\":11674:11675   */\n      dup2\n        /* \"#utility.yul\":11671:11684   */\n      lt\n        /* \"#utility.yul\":11652:11996   */\n      iszero\n      tag_377\n      jumpi\n        /* \"#utility.yul\":11753:11759   */\n      dup2\n        /* \"#utility.yul\":11747:11760   */\n      mload\n        /* \"#utility.yul\":11780:11883   */\n      tag_378\n        /* \"#utility.yul\":11879:11882   */\n      dup9\n        /* \"#utility.yul\":11864:11877   */\n      dup3\n        /* \"#utility.yul\":11780:11883   */\n      tag_218\n      jump\t// in\n    tag_378:\n        /* \"#utility.yul\":11773:11883   */\n      swap8\n      pop\n        /* \"#utility.yul\":11906:11986   */\n      tag_379\n        /* \"#utility.yul\":11979:11985   */\n      dup4\n        /* \"#utility.yul\":11906:11986   */\n      tag_219\n      jump\t// in\n    tag_379:\n        /* \"#utility.yul\":11896:11986   */\n      swap3\n      pop\n        /* \"#utility.yul\":11712:11996   */\n      pop\n        /* \"#utility.yul\":11699:11700   */\n      0x01\n        /* \"#utility.yul\":11696:11697   */\n      dup2\n        /* \"#utility.yul\":11692:11701   */\n      add\n        /* \"#utility.yul\":11687:11701   */\n      swap1\n      pop\n        /* \"#utility.yul\":11652:11996   */\n      jump(tag_375)\n    tag_377:\n        /* \"#utility.yul\":11656:11670   */\n      pop\n        /* \"#utility.yul\":12012:12015   */\n      dup6\n        /* \"#utility.yul\":12005:12015   */\n      swap4\n      pop\n        /* \"#utility.yul\":11293:12021   */\n      pop\n      pop\n      pop\n        /* \"#utility.yul\":11129:12021   */\n      swap3\n      swap2\n      pop\n      pop\n      jump\t// out\n        /* \"#utility.yul\":12027:12938   */\n    tag_87:\n        /* \"#utility.yul\":12334:12338   */\n      0x00\n        /* \"#utility.yul\":12372:12374   */\n      0x60\n        /* \"#utility.yul\":12361:12370   */\n      dup3\n        /* \"#utility.yul\":12357:12375   */\n      add\n        /* \"#utility.yul\":12349:12375   */\n      swap1\n      pop\n        /* \"#utility.yul\":12421:12430   */\n      dup2\n        /* \"#utility.yul\":12415:12419   */\n      dup2\n        /* \"#utility.yul\":12411:12431   */\n      sub\n        /* \"#utility.yul\":12407:12408   */\n      0x00\n        /* \"#utility.yul\":12396:12405   */\n      dup4\n        /* \"#utility.yul\":12392:12409   */\n      add\n        /* \"#utility.yul\":12385:12432   */\n      mstore\n        /* \"#utility.yul\":12449:12527   */\n      tag_381\n        /* \"#utility.yul\":12522:12526   */\n      dup2\n        /* \"#utility.yul\":12513:12519   */\n      dup7\n        /* \"#utility.yul\":12449:12527   */\n      tag_195\n      jump\t// in\n    tag_381:\n        /* \"#utility.yul\":12441:12527   */\n      swap1\n      pop\n        /* \"#utility.yul\":12574:12583   */\n      dup2\n        /* \"#utility.yul\":12568:12572   */\n      dup2\n        /* \"#utility.yul\":12564:12584   */\n      sub\n        /* \"#utility.yul\":12559:12561   */\n      0x20\n        /* \"#utility.yul\":12548:12557   */\n      dup4\n        /* \"#utility.yul\":12544:12562   */\n      add\n        /* \"#utility.yul\":12537:12585   */\n      mstore\n        /* \"#utility.yul\":12602:12708   */\n      tag_382\n        /* \"#utility.yul\":12703:12707   */\n      dup2\n        /* \"#utility.yul\":12694:12700   */\n      dup6\n        /* \"#utility.yul\":12602:12708   */\n      tag_211\n      jump\t// in\n    tag_382:\n        /* \"#utility.yul\":12594:12708   */\n      swap1\n      pop\n        /* \"#utility.yul\":12755:12764   */\n      dup2\n        /* \"#utility.yul\":12749:12753   */\n      dup2\n        /* \"#utility.yul\":12745:12765   */\n      sub\n        /* \"#utility.yul\":12740:12742   */\n      0x40\n        /* \"#utility.yul\":12729:12738   */\n      dup4\n        /* \"#utility.yul\":12725:12743   */\n      add\n        /* \"#utility.yul\":12718:12766   */\n      mstore\n        /* \"#utility.yul\":12783:12931   */\n      tag_383\n        /* \"#utility.yul\":12926:12930   */\n      dup2\n        /* \"#utility.yul\":12917:12923   */\n      dup5\n        /* \"#utility.yul\":12783:12931   */\n      tag_220\n      jump\t// in\n    tag_383:\n        /* \"#utility.yul\":12775:12931   */\n      swap1\n      pop\n        /* \"#utility.yul\":12027:12938   */\n      swap5\n      swap4\n      pop\n      pop\n      pop\n      pop\n      jump\t// out\n        /* \"#utility.yul\":12944:13171   */\n    tag_221:\n        /* \"#utility.yul\":13084:13118   */\n      0x4f6e6c7920696e69746961746f722063616e2072656769737465722061207265\n        /* \"#utility.yul\":13080:13081   */\n      0x00\n        /* \"#utility.yul\":13072:13078   */\n      dup3\n        /* \"#utility.yul\":13068:13082   */\n      add\n        /* \"#utility.yul\":13061:13119   */\n      mstore\n        /* \"#utility.yul\":13153:13163   */\n      0x63697069656e742e000000000000000000000000000000000000000000000000\n        /* \"#utility.yul\":13148:13150   */\n      0x20\n        /* \"#utility.yul\":13140:13146   */\n      dup3\n        /* \"#utility.yul\":13136:13151   */\n      add\n        /* \"#utility.yul\":13129:13164   */\n      mstore\n        /* \"#utility.yul\":12944:13171   */\n      pop\n      jump\t// out\n        /* \"#utility.yul\":13177:13543   */\n    tag_222:\n        /* \"#utility.yul\":13319:13322   */\n      0x00\n        /* \"#utility.yul\":13340:13407   */\n      tag_386\n        /* \"#utility.yul\":13404:13406   */\n      0x28\n        /* \"#utility.yul\":13399:13402   */\n      dup4\n        /* \"#utility.yul\":13340:13407   */\n      tag_192\n      jump\t// in\n    tag_386:\n        /* \"#utility.yul\":13333:13407   */\n      swap2\n      pop\n        /* \"#utility.yul\":13416:13509   */\n      tag_387\n        /* \"#utility.yul\":13505:13508   */\n      dup3\n        /* \"#utility.yul\":13416:13509   */\n      tag_221\n      jump\t// in\n    tag_387:\n        /* \"#utility.yul\":13534:13536   */\n      0x40\n        /* \"#utility.yul\":13529:13532   */\n      dup3\n        /* \"#utility.yul\":13525:13537   */\n      add\n        /* \"#utility.yul\":13518:13537   */\n      swap1\n      pop\n        /* \"#utility.yul\":13177:13543   */\n      swap2\n      swap1\n      pop\n      jump\t// out\n        /* \"#utility.yul\":13549:13968   */\n    tag_93:\n        /* \"#utility.yul\":13715:13719   */\n      0x00\n        /* \"#utility.yul\":13753:13755   */\n      0x20\n        /* \"#utility.yul\":13742:13751   */\n      dup3\n        /* \"#utility.yul\":13738:13756   */\n      add\n        /* \"#utility.yul\":13730:13756   */\n      swap1\n      pop\n        /* \"#utility.yul\":13802:13811   */\n      dup2\n        /* \"#utility.yul\":13796:13800   */\n      dup2\n        /* \"#utility.yul\":13792:13812   */\n      sub\n        /* \"#utility.yul\":13788:13789   */\n      0x00\n        /* \"#utility.yul\":13777:13786   */\n      dup4\n        /* \"#utility.yul\":13773:13790   */\n      add\n        /* \"#utility.yul\":13766:13813   */\n      mstore\n        /* \"#utility.yul\":13830:13961   */\n      tag_389\n        /* \"#utility.yul\":13956:13960   */\n      dup2\n        /* \"#utility.yul\":13830:13961   */\n      tag_222\n      jump\t// in\n    tag_389:\n        /* \"#utility.yul\":13822:13961   */\n      swap1\n      pop\n        /* \"#utility.yul\":13549:13968   */\n      swap2\n      swap1\n      pop\n      jump\t// out\n        /* \"#utility.yul\":13974:14155   */\n    tag_223:\n        /* \"#utility.yul\":14114:14147   */\n      0x526563697069656e7420697320616c7265616479207265676973746572656400\n        /* \"#utility.yul\":14110:14111   */\n      0x00\n        /* \"#utility.yul\":14102:14108   */\n      dup3\n        /* \"#utility.yul\":14098:14112   */\n      add\n        /* \"#utility.yul\":14091:14148   */\n      mstore\n        /* \"#utility.yul\":13974:14155   */\n      pop\n      jump\t// out\n        /* \"#utility.yul\":14161:14527   */\n    tag_224:\n        /* \"#utility.yul\":14303:14306   */\n      0x00\n        /* \"#utility.yul\":14324:14391   */\n      tag_392\n        /* \"#utility.yul\":14388:14390   */\n      0x1f\n        /* \"#utility.yul\":14383:14386   */\n      dup4\n        /* \"#utility.yul\":14324:14391   */\n      tag_192\n      jump\t// in\n    tag_392:\n        /* \"#utility.yul\":14317:14391   */\n      swap2\n      pop\n        /* \"#utility.yul\":14400:14493   */\n      tag_393\n        /* \"#utility.yul\":14489:14492   */\n      dup3\n        /* \"#utility.yul\":14400:14493   */\n      tag_223\n      jump\t// in\n    tag_393:\n        /* \"#utility.yul\":14518:14520   */\n      0x20\n        /* \"#utility.yul\":14513:14516   */\n      dup3\n        /* \"#utility.yul\":14509:14521   */\n      add\n        /* \"#utility.yul\":14502:14521   */\n      swap1\n      pop\n        /* \"#utility.yul\":14161:14527   */\n      swap2\n      swap1\n      pop\n      jump\t// out\n        /* \"#utility.yul\":14533:14952   */\n    tag_96:\n        /* \"#utility.yul\":14699:14703   */\n      0x00\n        /* \"#utility.yul\":14737:14739   */\n      0x20\n        /* \"#utility.yul\":14726:14735   */\n      dup3\n        /* \"#utility.yul\":14722:14740   */\n      add\n        /* \"#utility.yul\":14714:14740   */\n      swap1\n      pop\n        /* \"#utility.yul\":14786:14795   */\n      dup2\n        /* \"#utility.yul\":14780:14784   */\n      dup2\n        /* \"#utility.yul\":14776:14796   */\n      sub\n        /* \"#utility.yul\":14772:14773   */\n      0x00\n        /* \"#utility.yul\":14761:14770   */\n      dup4\n        /* \"#utility.yul\":14757:14774   */\n      add\n        /* \"#utility.yul\":14750:14797   */\n      mstore\n        /* \"#utility.yul\":14814:14945   */\n      tag_395\n        /* \"#utility.yul\":14940:14944   */\n      dup2\n        /* \"#utility.yul\":14814:14945   */\n      tag_224\n      jump\t// in\n    tag_395:\n        /* \"#utility.yul\":14806:14945   */\n      swap1\n      pop\n        /* \"#utility.yul\":14533:14952   */\n      swap2\n      swap1\n      pop\n      jump\t// out\n        /* \"#utility.yul\":14958:15181   */\n    tag_225:\n        /* \"#utility.yul\":15098:15132   */\n      0x50726f706f73616c206861732072656163686564206974732065787069727920\n        /* \"#utility.yul\":15094:15095   */\n      0x00\n        /* \"#utility.yul\":15086:15092   */\n      dup3\n        /* \"#utility.yul\":15082:15096   */\n      add\n        /* \"#utility.yul\":15075:15133   */\n      mstore\n        /* \"#utility.yul\":15167:15173   */\n      0x6461746500000000000000000000000000000000000000000000000000000000\n        /* \"#utility.yul\":15162:15164   */\n      0x20\n        /* \"#utility.yul\":15154:15160   */\n      dup3\n        /* \"#utility.yul\":15150:15165   */\n      add\n        /* \"#utility.yul\":15143:15174   */\n      mstore\n        /* \"#utility.yul\":14958:15181   */\n      pop\n      jump\t// out\n        /* \"#utility.yul\":15187:15553   */\n    tag_226:\n        /* \"#utility.yul\":15329:15332   */\n      0x00\n        /* \"#utility.yul\":15350:15417   */\n      tag_398\n        /* \"#utility.yul\":15414:15416   */\n      0x24\n        /* \"#utility.yul\":15409:15412   */\n      dup4\n        /* \"#utility.yul\":15350:15417   */\n      tag_192\n      jump\t// in\n    tag_398:\n        /* \"#utility.yul\":15343:15417   */\n      swap2\n      pop\n        /* \"#utility.yul\":15426:15519   */\n      tag_399\n        /* \"#utility.yul\":15515:15518   */\n      dup3\n        /* \"#utility.yul\":15426:15519   */\n      tag_225\n      jump\t// in\n    tag_399:\n        /* \"#utility.yul\":15544:15546   */\n      0x40\n        /* \"#utility.yul\":15539:15542   */\n      dup3\n        /* \"#utility.yul\":15535:15547   */\n      add\n        /* \"#utility.yul\":15528:15547   */\n      swap1\n      pop\n        /* \"#utility.yul\":15187:15553   */\n      swap2\n      swap1\n      pop\n      jump\t// out\n        /* \"#utility.yul\":15559:15978   */\n    tag_99:\n        /* \"#utility.yul\":15725:15729   */\n      0x00\n        /* \"#utility.yul\":15763:15765   */\n      0x20\n        /* \"#utility.yul\":15752:15761   */\n      dup3\n        /* \"#utility.yul\":15748:15766   */\n      add\n        /* \"#utility.yul\":15740:15766   */\n      swap1\n      pop\n        /* \"#utility.yul\":15812:15821   */\n      dup2\n        /* \"#utility.yul\":15806:15810   */\n      dup2\n        /* \"#utility.yul\":15802:15822   */\n      sub\n        /* \"#utility.yul\":15798:15799   */\n      0x00\n        /* \"#utility.yul\":15787:15796   */\n      dup4\n        /* \"#utility.yul\":15783:15800   */\n      add\n        /* \"#utility.yul\":15776:15823   */\n      mstore\n        /* \"#utility.yul\":15840:15971   */\n      tag_401\n        /* \"#utility.yul\":15966:15970   */\n      dup2\n        /* \"#utility.yul\":15840:15971   */\n      tag_226\n      jump\t// in\n    tag_401:\n        /* \"#utility.yul\":15832:15971   */\n      swap1\n      pop\n        /* \"#utility.yul\":15559:15978   */\n      swap2\n      swap1\n      pop\n      jump\t// out\n        /* \"#utility.yul\":15984:16164   */\n    tag_227:\n        /* \"#utility.yul\":16032:16109   */\n      0x4e487b7100000000000000000000000000000000000000000000000000000000\n        /* \"#utility.yul\":16029:16030   */\n      0x00\n        /* \"#utility.yul\":16022:16110   */\n      mstore\n        /* \"#utility.yul\":16129:16133   */\n      0x22\n        /* \"#utility.yul\":16126:16127   */\n      0x04\n        /* \"#utility.yul\":16119:16134   */\n      mstore\n        /* \"#utility.yul\":16153:16157   */\n      0x24\n        /* \"#utility.yul\":16150:16151   */\n      0x00\n        /* \"#utility.yul\":16143:16158   */\n      revert\n        /* \"#utility.yul\":16170:16490   */\n    tag_103:\n        /* \"#utility.yul\":16214:16220   */\n      0x00\n        /* \"#utility.yul\":16251:16252   */\n      0x02\n        /* \"#utility.yul\":16245:16249   */\n      dup3\n        /* \"#utility.yul\":16241:16253   */\n      div\n        /* \"#utility.yul\":16231:16253   */\n      swap1\n      pop\n        /* \"#utility.yul\":16298:16299   */\n      0x01\n        /* \"#utility.yul\":16292:16296   */\n      dup3\n        /* \"#utility.yul\":16288:16300   */\n      and\n        /* \"#utility.yul\":16319:16337   */\n      dup1\n        /* \"#utility.yul\":16309:16390   */\n      tag_404\n      jumpi\n        /* \"#utility.yul\":16375:16379   */\n      0x7f\n        /* \"#utility.yul\":16367:16373   */\n      dup3\n        /* \"#utility.yul\":16363:16380   */\n      and\n        /* \"#utility.yul\":16353:16380   */\n      swap2\n      pop\n        /* \"#utility.yul\":16309:16390   */\n    tag_404:\n        /* \"#utility.yul\":16437:16439   */\n      0x20\n        /* \"#utility.yul\":16429:16435   */\n      dup3\n        /* \"#utility.yul\":16426:16440   */\n      lt\n        /* \"#utility.yul\":16406:16424   */\n      dup2\n        /* \"#utility.yul\":16403:16441   */\n      sub\n        /* \"#utility.yul\":16400:16484   */\n      tag_405\n      jumpi\n        /* \"#utility.yul\":16456:16474   */\n      tag_406\n      tag_227\n      jump\t// in\n    tag_406:\n        /* \"#utility.yul\":16400:16484   */\n    tag_405:\n        /* \"#utility.yul\":16221:16490   */\n      pop\n        /* \"#utility.yul\":16170:16490   */\n      swap2\n      swap1\n      pop\n      jump\t// out\n        /* \"#utility.yul\":16496:16664   */\n    tag_228:\n        /* \"#utility.yul\":16636:16656   */\n      0x566f74696e672068617320657870697265640000000000000000000000000000\n        /* \"#utility.yul\":16632:16633   */\n      0x00\n        /* \"#utility.yul\":16624:16630   */\n      dup3\n        /* \"#utility.yul\":16620:16634   */\n      add\n        /* \"#utility.yul\":16613:16657   */\n      mstore\n        /* \"#utility.yul\":16496:16664   */\n      pop\n      jump\t// out\n        /* \"#utility.yul\":16670:17036   */\n    tag_229:\n        /* \"#utility.yul\":16812:16815   */\n      0x00\n        /* \"#utility.yul\":16833:16900   */\n      tag_409\n        /* \"#utility.yul\":16897:16899   */\n      0x12\n        /* \"#utility.yul\":16892:16895   */\n      dup4\n        /* \"#utility.yul\":16833:16900   */\n      tag_192\n      jump\t// in\n    tag_409:\n        /* \"#utility.yul\":16826:16900   */\n      swap2\n      pop\n        /* \"#utility.yul\":16909:17002   */\n      tag_410\n        /* \"#utility.yul\":16998:17001   */\n      dup3\n        /* \"#utility.yul\":16909:17002   */\n      tag_228\n      jump\t// in\n    tag_410:\n        /* \"#utility.yul\":17027:17029   */\n      0x20\n        /* \"#utility.yul\":17022:17025   */\n      dup3\n        /* \"#utility.yul\":17018:17030   */\n      add\n        /* \"#utility.yul\":17011:17030   */\n      swap1\n      pop\n        /* \"#utility.yul\":16670:17036   */\n      swap2\n      swap1\n      pop\n      jump\t// out\n        /* \"#utility.yul\":17042:17461   */\n    tag_112:\n        /* \"#utility.yul\":17208:17212   */\n      0x00\n        /* \"#utility.yul\":17246:17248   */\n      0x20\n        /* \"#utility.yul\":17235:17244   */\n      dup3\n        /* \"#utility.yul\":17231:17249   */\n      add\n        /* \"#utility.yul\":17223:17249   */\n      swap1\n      pop\n        /* \"#utility.yul\":17295:17304   */\n      dup2\n        /* \"#utility.yul\":17289:17293   */\n      dup2\n        /* \"#utility.yul\":17285:17305   */\n      sub\n        /* \"#utility.yul\":17281:17282   */\n      0x00\n        /* \"#utility.yul\":17270:17279   */\n      dup4\n        /* \"#utility.yul\":17266:17283   */\n      add\n        /* \"#utility.yul\":17259:17306   */\n      mstore\n        /* \"#utility.yul\":17323:17454   */\n      tag_412\n        /* \"#utility.yul\":17449:17453   */\n      dup2\n        /* \"#utility.yul\":17323:17454   */\n      tag_229\n      jump\t// in\n    tag_412:\n        /* \"#utility.yul\":17315:17454   */\n      swap1\n      pop\n        /* \"#utility.yul\":17042:17461   */\n      swap2\n      swap1\n      pop\n      jump\t// out\n        /* \"#utility.yul\":17467:17647   */\n    tag_230:\n        /* \"#utility.yul\":17607:17639   */\n      0x596f7520617265206e6f74207265676973746572656420746f20766f74650000\n        /* \"#utility.yul\":17603:17604   */\n      0x00\n        /* \"#utility.yul\":17595:17601   */\n      dup3\n        /* \"#utility.yul\":17591:17605   */\n      add\n        /* \"#utility.yul\":17584:17640   */\n      mstore\n        /* \"#utility.yul\":17467:17647   */\n      pop\n      jump\t// out\n        /* \"#utility.yul\":17653:18019   */\n    tag_231:\n        /* \"#utility.yul\":17795:17798   */\n      0x00\n        /* \"#utility.yul\":17816:17883   */\n      tag_415\n        /* \"#utility.yul\":17880:17882   */\n      0x1e\n        /* \"#utility.yul\":17875:17878   */\n      dup4\n        /* \"#utility.yul\":17816:17883   */\n      tag_192\n      jump\t// in\n    tag_415:\n        /* \"#utility.yul\":17809:17883   */\n      swap2\n      pop\n        /* \"#utility.yul\":17892:17985   */\n      tag_416\n        /* \"#utility.yul\":17981:17984   */\n      dup3\n        /* \"#utility.yul\":17892:17985   */\n      tag_230\n      jump\t// in\n    tag_416:\n        /* \"#utility.yul\":18010:18012   */\n      0x20\n        /* \"#utility.yul\":18005:18008   */\n      dup3\n        /* \"#utility.yul\":18001:18013   */\n      add\n        /* \"#utility.yul\":17994:18013   */\n      swap1\n      pop\n        /* \"#utility.yul\":17653:18019   */\n      swap2\n      swap1\n      pop\n      jump\t// out\n        /* \"#utility.yul\":18025:18444   */\n    tag_115:\n        /* \"#utility.yul\":18191:18195   */\n      0x00\n        /* \"#utility.yul\":18229:18231   */\n      0x20\n        /* \"#utility.yul\":18218:18227   */\n      dup3\n        /* \"#utility.yul\":18214:18232   */\n      add\n        /* \"#utility.yul\":18206:18232   */\n      swap1\n      pop\n        /* \"#utility.yul\":18278:18287   */\n      dup2\n        /* \"#utility.yul\":18272:18276   */\n      dup2\n        /* \"#utility.yul\":18268:18288   */\n      sub\n        /* \"#utility.yul\":18264:18265   */\n      0x00\n        /* \"#utility.yul\":18253:18262   */\n      dup4\n        /* \"#utility.yul\":18249:18266   */\n      add\n        /* \"#utility.yul\":18242:18289   */\n      mstore\n        /* \"#utility.yul\":18306:18437   */\n      tag_418\n        /* \"#utility.yul\":18432:18436   */\n      dup2\n        /* \"#utility.yul\":18306:18437   */\n      tag_231\n      jump\t// in\n    tag_418:\n        /* \"#utility.yul\":18298:18437   */\n      swap1\n      pop\n        /* \"#utility.yul\":18025:18444   */\n      swap2\n      swap1\n      pop\n      jump\t// out\n        /* \"#utility.yul\":18450:18628   */\n    tag_232:\n        /* \"#utility.yul\":18590:18620   */\n      0x596f7520616c72656164792073656e74206120726573706f6e73652e00000000\n        /* \"#utility.yul\":18586:18587   */\n      0x00\n        /* \"#utility.yul\":18578:18584   */\n      dup3\n        /* \"#utility.yul\":18574:18588   */\n      add\n        /* \"#utility.yul\":18567:18621   */\n      mstore\n        /* \"#utility.yul\":18450:18628   */\n      pop\n      jump\t// out\n        /* \"#utility.yul\":18634:19000   */\n    tag_233:\n        /* \"#utility.yul\":18776:18779   */\n      0x00\n        /* \"#utility.yul\":18797:18864   */\n      tag_421\n        /* \"#utility.yul\":18861:18863   */\n      0x1c\n        /* \"#utility.yul\":18856:18859   */\n      dup4\n        /* \"#utility.yul\":18797:18864   */\n      tag_192\n      jump\t// in\n    tag_421:\n        /* \"#utility.yul\":18790:18864   */\n      swap2\n      pop\n        /* \"#utility.yul\":18873:18966   */\n      tag_422\n        /* \"#utility.yul\":18962:18965   */\n      dup3\n        /* \"#utility.yul\":18873:18966   */\n      tag_232\n      jump\t// in\n    tag_422:\n        /* \"#utility.yul\":18991:18993   */\n      0x20\n        /* \"#utility.yul\":18986:18989   */\n      dup3\n        /* \"#utility.yul\":18982:18994   */\n      add\n        /* \"#utility.yul\":18975:18994   */\n      swap1\n      pop\n        /* \"#utility.yul\":18634:19000   */\n      swap2\n      swap1\n      pop\n      jump\t// out\n        /* \"#utility.yul\":19006:19425   */\n    tag_118:\n        /* \"#utility.yul\":19172:19176   */\n      0x00\n        /* \"#utility.yul\":19210:19212   */\n      0x20\n        /* \"#utility.yul\":19199:19208   */\n      dup3\n        /* \"#utility.yul\":19195:19213   */\n      add\n        /* \"#utility.yul\":19187:19213   */\n      swap1\n      pop\n        /* \"#utility.yul\":19259:19268   */\n      dup2\n        /* \"#utility.yul\":19253:19257   */\n      dup2\n        /* \"#utility.yul\":19249:19269   */\n      sub\n        /* \"#utility.yul\":19245:19246   */\n      0x00\n        /* \"#utility.yul\":19234:19243   */\n      dup4\n        /* \"#utility.yul\":19230:19247   */\n      add\n        /* \"#utility.yul\":19223:19270   */\n      mstore\n        /* \"#utility.yul\":19287:19418   */\n      tag_424\n        /* \"#utility.yul\":19413:19417   */\n      dup2\n        /* \"#utility.yul\":19287:19418   */\n      tag_233\n      jump\t// in\n    tag_424:\n        /* \"#utility.yul\":19279:19418   */\n      swap1\n      pop\n        /* \"#utility.yul\":19006:19425   */\n      swap2\n      swap1\n      pop\n      jump\t// out\n        /* \"#utility.yul\":19431:19611   */\n    tag_234:\n        /* \"#utility.yul\":19479:19556   */\n      0x4e487b7100000000000000000000000000000000000000000000000000000000\n        /* \"#utility.yul\":19476:19477   */\n      0x00\n        /* \"#utility.yul\":19469:19557   */\n      mstore\n        /* \"#utility.yul\":19576:19580   */\n      0x11\n        /* \"#utility.yul\":19573:19574   */\n      0x04\n        /* \"#utility.yul\":19566:19581   */\n      mstore\n        /* \"#utility.yul\":19600:19604   */\n      0x24\n        /* \"#utility.yul\":19597:19598   */\n      0x00\n        /* \"#utility.yul\":19590:19605   */\n      revert\n        /* \"#utility.yul\":19617:19922   */\n    tag_121:\n        /* \"#utility.yul\":19657:19660   */\n      0x00\n        /* \"#utility.yul\":19676:19696   */\n      tag_427\n        /* \"#utility.yul\":19694:19695   */\n      dup3\n        /* \"#utility.yul\":19676:19696   */\n      tag_183\n      jump\t// in\n    tag_427:\n        /* \"#utility.yul\":19671:19696   */\n      swap2\n      pop\n        /* \"#utility.yul\":19710:19730   */\n      tag_428\n        /* \"#utility.yul\":19728:19729   */\n      dup4\n        /* \"#utility.yul\":19710:19730   */\n      tag_183\n      jump\t// in\n    tag_428:\n        /* \"#utility.yul\":19705:19730   */\n      swap3\n      pop\n        /* \"#utility.yul\":19864:19865   */\n      dup3\n        /* \"#utility.yul\":19796:19862   */\n      0xffffffffffffffffffffffffffffffffffffffffffffffffffffffffffffffff\n        /* \"#utility.yul\":19792:19866   */\n      sub\n        /* \"#utility.yul\":19789:19790   */\n      dup3\n        /* \"#utility.yul\":19786:19867   */\n      gt\n        /* \"#utility.yul\":19783:19890   */\n      iszero\n      tag_429\n      jumpi\n        /* \"#utility.yul\":19870:19888   */\n      tag_430\n      tag_234\n      jump\t// in\n    tag_430:\n        /* \"#utility.yul\":19783:19890   */\n    tag_429:\n        /* \"#utility.yul\":19914:19915   */\n      dup3\n        /* \"#utility.yul\":19911:19912   */\n      dup3\n        /* \"#utility.yul\":19907:19916   */\n      add\n        /* \"#utility.yul\":19900:19916   */\n      swap1\n      pop\n        /* \"#utility.yul\":19617:19922   */\n      swap3\n      swap2\n      pop\n      pop\n      jump\t// out\n        /* \"#utility.yul\":19928:20110   */\n    tag_235:\n        /* \"#utility.yul\":20068:20102   */\n      0x5665726469637420686173206e6f74206265656e207265616368656420796574\n        /* \"#utility.yul\":20064:20065   */\n      0x00\n        /* \"#utility.yul\":20056:20062   */\n      dup3\n        /* \"#utility.yul\":20052:20066   */\n      add\n        /* \"#utility.yul\":20045:20103   */\n      mstore\n        /* \"#utility.yul\":19928:20110   */\n      pop\n      jump\t// out\n        /* \"#utility.yul\":20116:20482   */\n    tag_236:\n        /* \"#utility.yul\":20258:20261   */\n      0x00\n        /* \"#utility.yul\":20279:20346   */\n      tag_433\n        /* \"#utility.yul\":20343:20345   */\n      0x20\n        /* \"#utility.yul\":20338:20341   */\n      dup4\n        /* \"#utility.yul\":20279:20346   */\n      tag_192\n      jump\t// in\n    tag_433:\n        /* \"#utility.yul\":20272:20346   */\n      swap2\n      pop\n        /* \"#utility.yul\":20355:20448   */\n      tag_434\n        /* \"#utility.yul\":20444:20447   */\n      dup3\n        /* \"#utility.yul\":20355:20448   */\n      tag_235\n      jump\t// in\n    tag_434:\n        /* \"#utility.yul\":20473:20475   */\n      0x20\n        /* \"#utility.yul\":20468:20471   */\n      dup3\n        /* \"#utility.yul\":20464:20476   */\n      add\n        /* \"#utility.yul\":20457:20476   */\n      swap1\n      pop\n        /* \"#utility.yul\":20116:20482   */\n      swap2\n      swap1\n      pop\n      jump\t// out\n        /* \"#utility.yul\":20488:20907   */\n    tag_137:\n        /* \"#utility.yul\":20654:20658   */\n      0x00\n        /* \"#utility.yul\":20692:20694   */\n      0x20\n        /* \"#utility.yul\":20681:20690   */\n      dup3\n        /* \"#utility.yul\":20677:20695   */\n      add\n        /* \"#utility.yul\":20669:20695   */\n      swap1\n      pop\n        /* \"#utility.yul\":20741:20750   */\n      dup2\n        /* \"#utility.yul\":20735:20739   */\n      dup2\n        /* \"#utility.yul\":20731:20751   */\n      sub\n        /* \"#utility.yul\":20727:20728   */\n      0x00\n        /* \"#utility.yul\":20716:20725   */\n      dup4\n        /* \"#utility.yul\":20712:20729   */\n      add\n        /* \"#utility.yul\":20705:20752   */\n      mstore\n        /* \"#utility.yul\":20769:20900   */\n      tag_436\n        /* \"#utility.yul\":20895:20899   */\n      dup2\n        /* \"#utility.yul\":20769:20900   */\n      tag_236\n      jump\t// in\n    tag_436:\n        /* \"#utility.yul\":20761:20900   */\n      swap1\n      pop\n        /* \"#utility.yul\":20488:20907   */\n      swap2\n      swap1\n      pop\n      jump\t// out\n        /* \"#utility.yul\":20913:21093   */\n    tag_237:\n        /* \"#utility.yul\":20961:21038   */\n      0x4e487b7100000000000000000000000000000000000000000000000000000000\n        /* \"#utility.yul\":20958:20959   */\n      0x00\n        /* \"#utility.yul\":20951:21039   */\n      mstore\n        /* \"#utility.yul\":21058:21062   */\n      0x12\n        /* \"#utility.yul\":21055:21056   */\n      0x04\n        /* \"#utility.yul\":21048:21063   */\n      mstore\n        /* \"#utility.yul\":21082:21086   */\n      0x24\n        /* \"#utility.yul\":21079:21080   */\n      0x00\n        /* \"#utility.yul\":21072:21087   */\n      revert\n        /* \"#utility.yul\":21099:21284   */\n    tag_139:\n        /* \"#utility.yul\":21139:21140   */\n      0x00\n        /* \"#utility.yul\":21156:21176   */\n      tag_439\n        /* \"#utility.yul\":21174:21175   */\n      dup3\n        /* \"#utility.yul\":21156:21176   */\n      tag_183\n      jump\t// in\n    tag_439:\n        /* \"#utility.yul\":21151:21176   */\n      swap2\n      pop\n        /* \"#utility.yul\":21190:21210   */\n      tag_440\n        /* \"#utility.yul\":21208:21209   */\n      dup4\n        /* \"#utility.yul\":21190:21210   */\n      tag_183\n      jump\t// in\n    tag_440:\n        /* \"#utility.yul\":21185:21210   */\n      swap3\n      pop\n        /* \"#utility.yul\":21229:21230   */\n      dup3\n        /* \"#utility.yul\":21219:21254   */\n      tag_441\n      jumpi\n        /* \"#utility.yul\":21234:21252   */\n      tag_442\n      tag_237\n      jump\t// in\n    tag_442:\n        /* \"#utility.yul\":21219:21254   */\n    tag_441:\n        /* \"#utility.yul\":21276:21277   */\n      dup3\n        /* \"#utility.yul\":21273:21274   */\n      dup3\n        /* \"#utility.yul\":21269:21278   */\n      div\n        /* \"#utility.yul\":21264:21278   */\n      swap1\n      pop\n        /* \"#utility.yul\":21099:21284   */\n      swap3\n      swap2\n      pop\n      pop\n      jump\t// out\n        /* \"#utility.yul\":21290:21638   */\n    tag_141:\n        /* \"#utility.yul\":21330:21337   */\n      0x00\n        /* \"#utility.yul\":21353:21373   */\n      tag_444\n        /* \"#utility.yul\":21371:21372   */\n      dup3\n        /* \"#utility.yul\":21353:21373   */\n      tag_183\n      jump\t// in\n    tag_444:\n        /* \"#utility.yul\":21348:21373   */\n      swap2\n      pop\n        /* \"#utility.yul\":21387:21407   */\n      tag_445\n        /* \"#utility.yul\":21405:21406   */\n      dup4\n        /* \"#utility.yul\":21387:21407   */\n      tag_183\n      jump\t// in\n    tag_445:\n        /* \"#utility.yul\":21382:21407   */\n      swap3\n      pop\n        /* \"#utility.yul\":21575:21576   */\n      dup2\n        /* \"#utility.yul\":21507:21573   */\n      0xffffffffffffffffffffffffffffffffffffffffffffffffffffffffffffffff\n        /* \"#utility.yul\":21503:21577   */\n      div\n        /* \"#utility.yul\":21500:21501   */\n      dup4\n        /* \"#utility.yul\":21497:21578   */\n      gt\n        /* \"#utility.yul\":21492:21493   */\n      dup3\n        /* \"#utility.yul\":21485:21494   */\n      iszero\n        /* \"#utility.yul\":21478:21495   */\n      iszero\n        /* \"#utility.yul\":21474:21579   */\n      and\n        /* \"#utility.yul\":21471:21602   */\n      iszero\n      tag_446\n      jumpi\n        /* \"#utility.yul\":21582:21600   */\n      tag_447\n      tag_234\n      jump\t// in\n    tag_447:\n        /* \"#utility.yul\":21471:21602   */\n    tag_446:\n        /* \"#utility.yul\":21630:21631   */\n      dup3\n        /* \"#utility.yul\":21627:21628   */\n      dup3\n        /* \"#utility.yul\":21623:21632   */\n      mul\n        /* \"#utility.yul\":21612:21632   */\n      swap1\n      pop\n        /* \"#utility.yul\":21290:21638   */\n      swap3\n      swap2\n      pop\n      pop\n      jump\t// out\n        /* \"#utility.yul\":21644:21785   */\n    tag_238:\n        /* \"#utility.yul\":21693:21697   */\n      0x00\n        /* \"#utility.yul\":21716:21719   */\n      dup2\n        /* \"#utility.yul\":21708:21719   */\n      swap1\n      pop\n        /* \"#utility.yul\":21739:21742   */\n      dup2\n        /* \"#utility.yul\":21736:21737   */\n      0x00\n        /* \"#utility.yul\":21729:21743   */\n      mstore\n        /* \"#utility.yul\":21773:21777   */\n      0x20\n        /* \"#utility.yul\":21770:21771   */\n      0x00\n        /* \"#utility.yul\":21760:21778   */\n      keccak256\n        /* \"#utility.yul\":21752:21778   */\n      swap1\n      pop\n        /* \"#utility.yul\":21644:21785   */\n      swap2\n      swap1\n      pop\n      jump\t// out\n        /* \"#utility.yul\":21791:21884   */\n    tag_239:\n        /* \"#utility.yul\":21828:21834   */\n      0x00\n        /* \"#utility.yul\":21875:21877   */\n      0x20\n        /* \"#utility.yul\":21870:21872   */\n      0x1f\n        /* \"#utility.yul\":21863:21868   */\n      dup4\n        /* \"#utility.yul\":21859:21873   */\n      add\n        /* \"#utility.yul\":21855:21878   */\n      div\n        /* \"#utility.yul\":21845:21878   */\n      swap1\n      pop\n        /* \"#utility.yul\":21791:21884   */\n      swap2\n      swap1\n      pop\n      jump\t// out\n        /* \"#utility.yul\":21890:21997   */\n    tag_240:\n        /* \"#utility.yul\":21934:21942   */\n      0x00\n        /* \"#utility.yul\":21984:21989   */\n      dup3\n        /* \"#utility.yul\":21978:21982   */\n      dup3\n        /* \"#utility.yul\":21974:21990   */\n      shl\n        /* \"#utility.yul\":21953:21990   */\n      swap1\n      pop\n        /* \"#utility.yul\":21890:21997   */\n      swap3\n      swap2\n      pop\n      pop\n      jump\t// out\n        /* \"#utility.yul\":22003:22396   */\n    tag_241:\n        /* \"#utility.yul\":22072:22078   */\n      0x00\n        /* \"#utility.yul\":22122:22123   */\n      0x08\n        /* \"#utility.yul\":22110:22120   */\n      dup4\n        /* \"#utility.yul\":22106:22124   */\n      mul\n        /* \"#utility.yul\":22145:22242   */\n      tag_452\n        /* \"#utility.yul\":22175:22241   */\n      0xffffffffffffffffffffffffffffffffffffffffffffffffffffffffffffffff\n        /* \"#utility.yul\":22164:22173   */\n      dup3\n        /* \"#utility.yul\":22145:22242   */\n      tag_240\n      jump\t// in\n    tag_452:\n        /* \"#utility.yul\":22263:22302   */\n      tag_453\n        /* \"#utility.yul\":22293:22301   */\n      dup7\n        /* \"#utility.yul\":22282:22291   */\n      dup4\n        /* \"#utility.yul\":22263:22302   */\n      tag_240\n      jump\t// in\n    tag_453:\n        /* \"#utility.yul\":22251:22302   */\n      swap6\n      pop\n        /* \"#utility.yul\":22335:22339   */\n      dup1\n        /* \"#utility.yul\":22331:22340   */\n      not\n        /* \"#utility.yul\":22324:22329   */\n      dup5\n        /* \"#utility.yul\":22320:22341   */\n      and\n        /* \"#utility.yul\":22311:22341   */\n      swap4\n      pop\n        /* \"#utility.yul\":22384:22388   */\n      dup1\n        /* \"#utility.yul\":22374:22382   */\n      dup7\n        /* \"#utility.yul\":22370:22389   */\n      and\n        /* \"#utility.yul\":22363:22368   */\n      dup5\n        /* \"#utility.yul\":22360:22390   */\n      or\n        /* \"#utility.yul\":22350:22390   */\n      swap3\n      pop\n        /* \"#utility.yul\":22079:22396   */\n      pop\n      pop\n        /* \"#utility.yul\":22003:22396   */\n      swap4\n      swap3\n      pop\n      pop\n      pop\n      jump\t// out\n        /* \"#utility.yul\":22402:22462   */\n    tag_242:\n        /* \"#utility.yul\":22430:22433   */\n      0x00\n        /* \"#utility.yul\":22451:22456   */\n      dup2\n        /* \"#utility.yul\":22444:22456   */\n      swap1\n      pop\n        /* \"#utility.yul\":22402:22462   */\n      swap2\n      swap1\n      pop\n      jump\t// out\n        /* \"#utility.yul\":22468:22610   */\n    tag_243:\n        /* \"#utility.yul\":22518:22527   */\n      0x00\n        /* \"#utility.yul\":22551:22604   */\n      tag_456\n        /* \"#utility.yul\":22569:22603   */\n      tag_457\n        /* \"#utility.yul\":22578:22602   */\n      tag_458\n        /* \"#utility.yul\":22596:22601   */\n      dup5\n        /* \"#utility.yul\":22578:22602   */\n      tag_183\n      jump\t// in\n    tag_458:\n        /* \"#utility.yul\":22569:22603   */\n      tag_242\n      jump\t// in\n    tag_457:\n        /* \"#utility.yul\":22551:22604   */\n      tag_183\n      jump\t// in\n    tag_456:\n        /* \"#utility.yul\":22538:22604   */\n      swap1\n      pop\n        /* \"#utility.yul\":22468:22610   */\n      swap2\n      swap1\n      pop\n      jump\t// out\n        /* \"#utility.yul\":22616:22691   */\n    tag_244:\n        /* \"#utility.yul\":22659:22662   */\n      0x00\n        /* \"#utility.yul\":22680:22685   */\n      dup2\n        /* \"#utility.yul\":22673:22685   */\n      swap1\n      pop\n        /* \"#utility.yul\":22616:22691   */\n      swap2\n      swap1\n      pop\n      jump\t// out\n        /* \"#utility.yul\":22697:22966   */\n    tag_245:\n        /* \"#utility.yul\":22807:22846   */\n      tag_461\n        /* \"#utility.yul\":22838:22845   */\n      dup4\n        /* \"#utility.yul\":22807:22846   */\n      tag_243\n      jump\t// in\n    tag_461:\n        /* \"#utility.yul\":22868:22959   */\n      tag_462\n        /* \"#utility.yul\":22917:22958   */\n      tag_463\n        /* \"#utility.yul\":22941:22957   */\n      dup3\n        /* \"#utility.yul\":22917:22958   */\n      tag_244\n      jump\t// in\n    tag_463:\n        /* \"#utility.yul\":22909:22915   */\n      dup5\n        /* \"#utility.yul\":22902:22906   */\n      dup5\n        /* \"#utility.yul\":22896:22907   */\n      sload\n        /* \"#utility.yul\":22868:22959   */\n      tag_241\n      jump\t// in\n    tag_462:\n        /* \"#utility.yul\":22862:22866   */\n      dup3\n        /* \"#utility.yul\":22855:22960   */\n      sstore\n        /* \"#utility.yul\":22773:22966   */\n      pop\n        /* \"#utility.yul\":22697:22966   */\n      pop\n      pop\n      pop\n      jump\t// out\n        /* \"#utility.yul\":22972:23045   */\n    tag_246:\n        /* \"#utility.yul\":23017:23020   */\n      0x00\n        /* \"#utility.yul\":22972:23045   */\n      swap1\n      jump\t// out\n        /* \"#utility.yul\":23051:23240   */\n    tag_247:\n        /* \"#utility.yul\":23128:23160   */\n      tag_466\n      tag_246\n      jump\t// in\n    tag_466:\n        /* \"#utility.yul\":23169:23234   */\n      tag_467\n        /* \"#utility.yul\":23227:23233   */\n      dup2\n        /* \"#utility.yul\":23219:23225   */\n      dup5\n        /* \"#utility.yul\":23213:23217   */\n      dup5\n        /* \"#utility.yul\":23169:23234   */\n      tag_245\n      jump\t// in\n    tag_467:\n        /* \"#utility.yul\":23104:23240   */\n      pop\n        /* \"#utility.yul\":23051:23240   */\n      pop\n      pop\n      jump\t// out\n        /* \"#utility.yul\":23246:23432   */\n    tag_248:\n        /* \"#utility.yul\":23306:23426   */\n    tag_469:\n        /* \"#utility.yul\":23323:23326   */\n      dup2\n        /* \"#utility.yul\":23316:23321   */\n      dup2\n        /* \"#utility.yul\":23313:23327   */\n      lt\n        /* \"#utility.yul\":23306:23426   */\n      iszero\n      tag_471\n      jumpi\n        /* \"#utility.yul\":23377:23416   */\n      tag_472\n        /* \"#utility.yul\":23414:23415   */\n      0x00\n        /* \"#utility.yul\":23407:23412   */\n      dup3\n        /* \"#utility.yul\":23377:23416   */\n      tag_247\n      jump\t// in\n    tag_472:\n        /* \"#utility.yul\":23350:23351   */\n      0x01\n        /* \"#utility.yul\":23343:23348   */\n      dup2\n        /* \"#utility.yul\":23339:23352   */\n      add\n        /* \"#utility.yul\":23330:23352   */\n      swap1\n      pop\n        /* \"#utility.yul\":23306:23426   */\n      jump(tag_469)\n    tag_471:\n        /* \"#utility.yul\":23246:23432   */\n      pop\n      pop\n      jump\t// out\n        /* \"#utility.yul\":23438:23981   */\n    tag_249:\n        /* \"#utility.yul\":23539:23541   */\n      0x1f\n        /* \"#utility.yul\":23534:23537   */\n      dup3\n        /* \"#utility.yul\":23531:23542   */\n      gt\n        /* \"#utility.yul\":23528:23974   */\n      iszero\n      tag_474\n      jumpi\n        /* \"#utility.yul\":23573:23611   */\n      tag_475\n        /* \"#utility.yul\":23605:23610   */\n      dup2\n        /* \"#utility.yul\":23573:23611   */\n      tag_238\n      jump\t// in\n    tag_475:\n        /* \"#utility.yul\":23657:23686   */\n      tag_476\n        /* \"#utility.yul\":23675:23685   */\n      dup5\n        /* \"#utility.yul\":23657:23686   */\n      tag_239\n      jump\t// in\n    tag_476:\n        /* \"#utility.yul\":23647:23655   */\n      dup2\n        /* \"#utility.yul\":23643:23687   */\n      add\n        /* \"#utility.yul\":23840:23842   */\n      0x20\n        /* \"#utility.yul\":23828:23838   */\n      dup6\n        /* \"#utility.yul\":23825:23843   */\n      lt\n        /* \"#utility.yul\":23822:23871   */\n      iszero\n      tag_477\n      jumpi\n        /* \"#utility.yul\":23861:23869   */\n      dup2\n        /* \"#utility.yul\":23846:23869   */\n      swap1\n      pop\n        /* \"#utility.yul\":23822:23871   */\n    tag_477:\n        /* \"#utility.yul\":23884:23964   */\n      tag_478\n        /* \"#utility.yul\":23940:23962   */\n      tag_479\n        /* \"#utility.yul\":23958:23961   */\n      dup6\n        /* \"#utility.yul\":23940:23962   */\n      tag_239\n      jump\t// in\n    tag_479:\n        /* \"#utility.yul\":23930:23938   */\n      dup4\n        /* \"#utility.yul\":23926:23963   */\n      add\n        /* \"#utility.yul\":23913:23924   */\n      dup3\n        /* \"#utility.yul\":23884:23964   */\n      tag_248\n      jump\t// in\n    tag_478:\n        /* \"#utility.yul\":23543:23974   */\n      pop\n      pop\n        /* \"#utility.yul\":23528:23974   */\n    tag_474:\n        /* \"#utility.yul\":23438:23981   */\n      pop\n      pop\n      pop\n      jump\t// out\n        /* \"#utility.yul\":23987:24104   */\n    tag_250:\n        /* \"#utility.yul\":24041:24049   */\n      0x00\n        /* \"#utility.yul\":24091:24096   */\n      dup3\n        /* \"#utility.yul\":24085:24089   */\n      dup3\n        /* \"#utility.yul\":24081:24097   */\n      shr\n        /* \"#utility.yul\":24060:24097   */\n      swap1\n      pop\n        /* \"#utility.yul\":23987:24104   */\n      swap3\n      swap2\n      pop\n      pop\n      jump\t// out\n        /* \"#utility.yul\":24110:24279   */\n    tag_251:\n        /* \"#utility.yul\":24154:24160   */\n      0x00\n        /* \"#utility.yul\":24187:24238   */\n      tag_482\n        /* \"#utility.yul\":24235:24236   */\n      0x00\n        /* \"#utility.yul\":24231:24237   */\n      not\n        /* \"#utility.yul\":24223:24228   */\n      dup5\n        /* \"#utility.yul\":24220:24221   */\n      0x08\n        /* \"#utility.yul\":24216:24229   */\n      mul\n        /* \"#utility.yul\":24187:24238   */\n      tag_250\n      jump\t// in\n    tag_482:\n        /* \"#utility.yul\":24183:24239   */\n      not\n        /* \"#utility.yul\":24268:24272   */\n      dup1\n        /* \"#utility.yul\":24262:24266   */\n      dup4\n        /* \"#utility.yul\":24258:24273   */\n      and\n        /* \"#utility.yul\":24248:24273   */\n      swap2\n      pop\n        /* \"#utility.yul\":24161:24279   */\n      pop\n        /* \"#utility.yul\":24110:24279   */\n      swap3\n      swap2\n      pop\n      pop\n      jump\t// out\n        /* \"#utility.yul\":24284:24579   */\n    tag_252:\n        /* \"#utility.yul\":24360:24364   */\n      0x00\n        /* \"#utility.yul\":24506:24535   */\n      tag_484\n        /* \"#utility.yul\":24531:24534   */\n      dup4\n        /* \"#utility.yul\":24525:24529   */\n      dup4\n        /* \"#utility.yul\":24506:24535   */\n      tag_251\n      jump\t// in\n    tag_484:\n        /* \"#utility.yul\":24498:24535   */\n      swap2\n      pop\n        /* \"#utility.yul\":24568:24571   */\n      dup3\n        /* \"#utility.yul\":24565:24566   */\n      0x02\n        /* \"#utility.yul\":24561:24572   */\n      mul\n        /* \"#utility.yul\":24555:24559   */\n      dup3\n        /* \"#utility.yul\":24552:24573   */\n      or\n        /* \"#utility.yul\":24544:24573   */\n      swap1\n      pop\n        /* \"#utility.yul\":24284:24579   */\n      swap3\n      swap2\n      pop\n      pop\n      jump\t// out\n        /* \"#utility.yul\":24584:25979   */\n    tag_144:\n        /* \"#utility.yul\":24701:24738   */\n      tag_486\n        /* \"#utility.yul\":24734:24737   */\n      dup3\n        /* \"#utility.yul\":24701:24738   */\n      tag_191\n      jump\t// in\n    tag_486:\n        /* \"#utility.yul\":24803:24821   */\n      0xffffffffffffffff\n        /* \"#utility.yul\":24795:24801   */\n      dup2\n        /* \"#utility.yul\":24792:24822   */\n      gt\n        /* \"#utility.yul\":24789:24845   */\n      iszero\n      tag_487\n      jumpi\n        /* \"#utility.yul\":24825:24843   */\n      tag_488\n      tag_200\n      jump\t// in\n    tag_488:\n        /* \"#utility.yul\":24789:24845   */\n    tag_487:\n        /* \"#utility.yul\":24869:24907   */\n      tag_489\n        /* \"#utility.yul\":24901:24905   */\n      dup3\n        /* \"#utility.yul\":24895:24906   */\n      sload\n        /* \"#utility.yul\":24869:24907   */\n      tag_103\n      jump\t// in\n    tag_489:\n        /* \"#utility.yul\":24954:25021   */\n      tag_490\n        /* \"#utility.yul\":25014:25020   */\n      dup3\n        /* \"#utility.yul\":25006:25012   */\n      dup3\n        /* \"#utility.yul\":25000:25004   */\n      dup6\n        /* \"#utility.yul\":24954:25021   */\n      tag_249\n      jump\t// in\n    tag_490:\n        /* \"#utility.yul\":25048:25049   */\n      0x00\n        /* \"#utility.yul\":25072:25076   */\n      0x20\n        /* \"#utility.yul\":25059:25076   */\n      swap1\n      pop\n        /* \"#utility.yul\":25104:25106   */\n      0x1f\n        /* \"#utility.yul\":25096:25102   */\n      dup4\n        /* \"#utility.yul\":25093:25107   */\n      gt\n        /* \"#utility.yul\":25121:25122   */\n      0x01\n        /* \"#utility.yul\":25116:25734   */\n      dup2\n      eq\n      tag_492\n      jumpi\n        /* \"#utility.yul\":25778:25779   */\n      0x00\n        /* \"#utility.yul\":25795:25801   */\n      dup5\n        /* \"#utility.yul\":25792:25869   */\n      iszero\n      tag_493\n      jumpi\n        /* \"#utility.yul\":25844:25853   */\n      dup3\n        /* \"#utility.yul\":25839:25842   */\n      dup8\n        /* \"#utility.yul\":25835:25854   */\n      add\n        /* \"#utility.yul\":25829:25855   */\n      mload\n        /* \"#utility.yul\":25820:25855   */\n      swap1\n      pop\n        /* \"#utility.yul\":25792:25869   */\n    tag_493:\n        /* \"#utility.yul\":25895:25962   */\n      tag_494\n        /* \"#utility.yul\":25955:25961   */\n      dup6\n        /* \"#utility.yul\":25948:25953   */\n      dup3\n        /* \"#utility.yul\":25895:25962   */\n      tag_252\n      jump\t// in\n    tag_494:\n        /* \"#utility.yul\":25889:25893   */\n      dup7\n        /* \"#utility.yul\":25882:25963   */\n      sstore\n        /* \"#utility.yul\":25751:25973   */\n      pop\n        /* \"#utility.yul\":25086:25973   */\n      jump(tag_491)\n        /* \"#utility.yul\":25116:25734   */\n    tag_492:\n        /* \"#utility.yul\":25168:25172   */\n      0x1f\n        /* \"#utility.yul\":25164:25173   */\n      not\n        /* \"#utility.yul\":25156:25162   */\n      dup5\n        /* \"#utility.yul\":25152:25174   */\n      and\n        /* \"#utility.yul\":25202:25239   */\n      tag_495\n        /* \"#utility.yul\":25234:25238   */\n      dup7\n        /* \"#utility.yul\":25202:25239   */\n      tag_238\n      jump\t// in\n    tag_495:\n        /* \"#utility.yul\":25261:25262   */\n      0x00\n        /* \"#utility.yul\":25275:25483   */\n    tag_496:\n        /* \"#utility.yul\":25289:25296   */\n      dup3\n        /* \"#utility.yul\":25286:25287   */\n      dup2\n        /* \"#utility.yul\":25283:25297   */\n      lt\n        /* \"#utility.yul\":25275:25483   */\n      iszero\n      tag_498\n      jumpi\n        /* \"#utility.yul\":25368:25377   */\n      dup5\n        /* \"#utility.yul\":25363:25366   */\n      dup10\n        /* \"#utility.yul\":25359:25378   */\n      add\n        /* \"#utility.yul\":25353:25379   */\n      mload\n        /* \"#utility.yul\":25345:25351   */\n      dup3\n        /* \"#utility.yul\":25338:25380   */\n      sstore\n        /* \"#utility.yul\":25419:25420   */\n      0x01\n        /* \"#utility.yul\":25411:25417   */\n      dup3\n        /* \"#utility.yul\":25407:25421   */\n      add\n        /* \"#utility.yul\":25397:25421   */\n      swap2\n      pop\n        /* \"#utility.yul\":25466:25468   */\n      0x20\n        /* \"#utility.yul\":25455:25464   */\n      dup6\n        /* \"#utility.yul\":25451:25469   */\n      add\n        /* \"#utility.yul\":25438:25469   */\n      swap5\n      pop\n        /* \"#utility.yul\":25312:25316   */\n      0x20\n        /* \"#utility.yul\":25309:25310   */\n      dup2\n        /* \"#utility.yul\":25305:25317   */\n      add\n        /* \"#utility.yul\":25300:25317   */\n      swap1\n      pop\n        /* \"#utility.yul\":25275:25483   */\n      jump(tag_496)\n    tag_498:\n        /* \"#utility.yul\":25511:25517   */\n      dup7\n        /* \"#utility.yul\":25502:25509   */\n      dup4\n        /* \"#utility.yul\":25499:25518   */\n      lt\n        /* \"#utility.yul\":25496:25675   */\n      iszero\n      tag_499\n      jumpi\n        /* \"#utility.yul\":25569:25578   */\n      dup5\n        /* \"#utility.yul\":25564:25567   */\n      dup10\n        /* \"#utility.yul\":25560:25579   */\n      add\n        /* \"#utility.yul\":25554:25580   */\n      mload\n        /* \"#utility.yul\":25612:25660   */\n      tag_500\n        /* \"#utility.yul\":25654:25658   */\n      0x1f\n        /* \"#utility.yul\":25646:25652   */\n      dup10\n        /* \"#utility.yul\":25642:25659   */\n      and\n        /* \"#utility.yul\":25631:25640   */\n      dup3\n        /* \"#utility.yul\":25612:25660   */\n      tag_251\n      jump\t// in\n    tag_500:\n        /* \"#utility.yul\":25604:25610   */\n      dup4\n        /* \"#utility.yul\":25597:25661   */\n      sstore\n        /* \"#utility.yul\":25519:25675   */\n      pop\n        /* \"#utility.yul\":25496:25675   */\n    tag_499:\n        /* \"#utility.yul\":25721:25722   */\n      0x01\n        /* \"#utility.yul\":25717:25718   */\n      0x02\n        /* \"#utility.yul\":25709:25715   */\n      dup9\n        /* \"#utility.yul\":25705:25719   */\n      mul\n        /* \"#utility.yul\":25701:25723   */\n      add\n        /* \"#utility.yul\":25695:25699   */\n      dup9\n        /* \"#utility.yul\":25688:25724   */\n      sstore\n        /* \"#utility.yul\":25123:25734   */\n      pop\n      pop\n      pop\n        /* \"#utility.yul\":25086:25973   */\n    tag_491:\n      pop\n        /* \"#utility.yul\":24676:25979   */\n      pop\n      pop\n      pop\n        /* \"#utility.yul\":24584:25979   */\n      pop\n      pop\n      jump\t// out\n        /* \"#utility.yul\":25985:26165   */\n    tag_150:\n        /* \"#utility.yul\":26033:26110   */\n      0x4e487b7100000000000000000000000000000000000000000000000000000000\n        /* \"#utility.yul\":26030:26031   */\n      0x00\n        /* \"#utility.yul\":26023:26111   */\n      mstore\n        /* \"#utility.yul\":26130:26134   */\n      0x32\n        /* \"#utility.yul\":26127:26128   */\n      0x04\n        /* \"#utility.yul\":26120:26135   */\n      mstore\n        /* \"#utility.yul\":26154:26158   */\n      0x24\n        /* \"#utility.yul\":26151:26152   */\n      0x00\n        /* \"#utility.yul\":26144:26159   */\n      revert\n        /* \"#utility.yul\":26171:26257   */\n    tag_253:\n        /* \"#utility.yul\":26206:26213   */\n      0x00\n        /* \"#utility.yul\":26246:26250   */\n      0xff\n        /* \"#utility.yul\":26239:26244   */\n      dup3\n        /* \"#utility.yul\":26235:26251   */\n      and\n        /* \"#utility.yul\":26224:26251   */\n      swap1\n      pop\n        /* \"#utility.yul\":26171:26257   */\n      swap2\n      swap1\n      pop\n      jump\t// out\n        /* \"#utility.yul\":26263:26430   */\n    tag_158:\n        /* \"#utility.yul\":26300:26303   */\n      0x00\n        /* \"#utility.yul\":26323:26345   */\n      tag_504\n        /* \"#utility.yul\":26339:26344   */\n      dup3\n        /* \"#utility.yul\":26323:26345   */\n      tag_253\n      jump\t// in\n    tag_504:\n        /* \"#utility.yul\":26314:26345   */\n      swap2\n      pop\n        /* \"#utility.yul\":26367:26371   */\n      0xff\n        /* \"#utility.yul\":26360:26365   */\n      dup3\n        /* \"#utility.yul\":26357:26372   */\n      sub\n        /* \"#utility.yul\":26354:26395   */\n      tag_505\n      jumpi\n        /* \"#utility.yul\":26375:26393   */\n      tag_506\n      tag_234\n      jump\t// in\n    tag_506:\n        /* \"#utility.yul\":26354:26395   */\n    tag_505:\n        /* \"#utility.yul\":26422:26423   */\n      0x01\n        /* \"#utility.yul\":26415:26420   */\n      dup3\n        /* \"#utility.yul\":26411:26424   */\n      add\n        /* \"#utility.yul\":26404:26424   */\n      swap1\n      pop\n        /* \"#utility.yul\":26263:26430   */\n      swap2\n      swap1\n      pop\n      jump\t// out\n\n    auxdata: 0xa2646970667358221220ff4fe3badf95b488eb6f4895cdb5698a43e3e8a7ad0e25099022afe317fbf74f64736f6c634300080f0033\n}\n",
				"bytecode": {
					"linkReferences": {},
					"object": "60806040523480156200001157600080fd5b5060405162002b0838038062002b08833981810160405281019062000037919062000348565b33600360006101000a81548173ffffffffffffffffffffffffffffffffffffffff021916908373ffffffffffffffffffffffffffffffffffffffff1602179055508142620000869190620003f2565b60018190555080600481905550600060058190555060006006819055506040518060400160405280600881526020017f52656a656374656400000000000000000000000000000000000000000000000081525060029081620000e9919062000690565b50306000806101000a81548173ffffffffffffffffffffffffffffffffffffffff021916908373ffffffffffffffffffffffffffffffffffffffff16021790555060405180604001604052806000815260200184815250600a60008201518160000155602082015181600101908162000163919062000690565b5090505050505062000777565b6000604051905090565b600080fd5b600080fd5b600080fd5b600080fd5b6000601f19601f8301169050919050565b7f4e487b7100000000000000000000000000000000000000000000000000000000600052604160045260246000fd5b620001d9826200018e565b810181811067ffffffffffffffff82111715620001fb57620001fa6200019f565b5b80604052505050565b60006200021062000170565b90506200021e8282620001ce565b919050565b600067ffffffffffffffff8211156200024157620002406200019f565b5b6200024c826200018e565b9050602081019050919050565b60005b83811015620002795780820151818401526020810190506200025c565b8381111562000289576000848401525b50505050565b6000620002a6620002a08462000223565b62000204565b905082815260208101848484011115620002c557620002c462000189565b5b620002d284828562000259565b509392505050565b600082601f830112620002f257620002f162000184565b5b8151620003048482602086016200028f565b91505092915050565b6000819050919050565b62000322816200030d565b81146200032e57600080fd5b50565b600081519050620003428162000317565b92915050565b6000806000606084860312156200036457620003636200017a565b5b600084015167ffffffffffffffff8111156200038557620003846200017f565b5b6200039386828701620002da565b9350506020620003a68682870162000331565b9250506040620003b98682870162000331565b9150509250925092565b7f4e487b7100000000000000000000000000000000000000000000000000000000600052601160045260246000fd5b6000620003ff826200030d565b91506200040c836200030d565b9250827fffffffffffffffffffffffffffffffffffffffffffffffffffffffffffffffff03821115620004445762000443620003c3565b5b828201905092915050565b600081519050919050565b7f4e487b7100000000000000000000000000000000000000000000000000000000600052602260045260246000fd5b60006002820490506001821680620004a257607f821691505b602082108103620004b857620004b76200045a565b5b50919050565b60008190508160005260206000209050919050565b60006020601f8301049050919050565b600082821b905092915050565b600060088302620005227fffffffffffffffffffffffffffffffffffffffffffffffffffffffffffffffff82620004e3565b6200052e8683620004e3565b95508019841693508086168417925050509392505050565b6000819050919050565b6000620005716200056b62000565846200030d565b62000546565b6200030d565b9050919050565b6000819050919050565b6200058d8362000550565b620005a56200059c8262000578565b848454620004f0565b825550505050565b600090565b620005bc620005ad565b620005c981848462000582565b505050565b5b81811015620005f157620005e5600082620005b2565b600181019050620005cf565b5050565b601f82111562000640576200060a81620004be565b6200061584620004d3565b8101602085101562000625578190505b6200063d6200063485620004d3565b830182620005ce565b50505b505050565b600082821c905092915050565b6000620006656000198460080262000645565b1980831691505092915050565b600062000680838362000652565b9150826002028217905092915050565b6200069b826200044f565b67ffffffffffffffff811115620006b757620006b66200019f565b5b620006c3825462000489565b620006d0828285620005f5565b600060209050601f831160018114620007085760008415620006f3578287015190505b620006ff858262000672565b8655506200076f565b601f1984166200071886620004be565b60005b8281101562000742578489015182556001820191506020850194506020810190506200071b565b868310156200076257848901516200075e601f89168262000652565b8355505b6001600288020188555050505b505050505050565b61238180620007876000396000f3fe608060405234801561001057600080fd5b506004361061010b5760003560e01c8063753ec103116100a2578063a5ea11da11610071578063a5ea11da146102ab578063d77aa749146102c9578063da58c7d9146102e7578063f6b4dfb414610319578063fe8ff236146103375761010b565b8063753ec103146102205780638d337b811461023f57806395b02dfa1461026f5780639aa4bbdd146102795761010b565b8063323082d7116100de578063323082d7146101aa5780635c39fcc1146101c6578063604c8333146101e45780637403c5e5146102025761010b565b80630cb6aaf11461011057806315fe6f1b1461014057806319eb4a901461015c5780632d15cc041461017a575b600080fd5b61012a600480360381019061012591906115b6565b610357565b6040516101379190611624565b60405180910390f35b61015a6004803603810190610155919061166b565b610396565b005b6101646106a7565b6040516101719190611731565b60405180910390f35b610194600480360381019061018f919061166b565b61073c565b6040516101a1919061176e565b60405180910390f35b6101c460048036038101906101bf91906118be565b610795565b005b6101ce610dc1565b6040516101db9190611624565b60405180910390f35b6101ec610de7565b6040516101f99190611916565b60405180910390f35b61020a610ded565b6040516102179190611916565b60405180910390f35b610228610df3565b604051610236929190611931565b60405180910390f35b6102596004803603810190610254919061166b565b610e8d565b604051610266919061176e565b60405180910390f35b610277610ee6565b005b610293600480360381019061028e919061166b565b6111d1565b6040516102a293929190611961565b60405180910390f35b6102b3611235565b6040516102c09190611916565b60405180910390f35b6102d161123f565b6040516102de9190611916565b60405180910390f35b61030160048036038101906102fc91906115b6565b611245565b60405161031093929190611961565b60405180910390f35b6103216112b5565b60405161032e9190611624565b60405180910390f35b61033f6112d9565b60405161034e93929190611b3d565b60405180910390f35b6008818154811061036757600080fd5b906000526020600020016000915054906101000a900473ffffffffffffffffffffffffffffffffffffffff1681565b600360009054906101000a900473ffffffffffffffffffffffffffffffffffffffff1673ffffffffffffffffffffffffffffffffffffffff163373ffffffffffffffffffffffffffffffffffffffff1614610426576040517f08c379a000000000000000000000000000000000000000000000000000000000815260040161041d90611bfb565b60405180910390fd5b600073ffffffffffffffffffffffffffffffffffffffff16600960008373ffffffffffffffffffffffffffffffffffffffff1673ffffffffffffffffffffffffffffffffffffffff16815260200190815260200160002060000160019054906101000a900473ffffffffffffffffffffffffffffffffffffffff1673ffffffffffffffffffffffffffffffffffffffff16146104f7576040517f08c379a00000000000000000000000000000000000000000000000000000000081526004016104ee90611c67565b60405180910390fd5b600154421061053b576040517f08c379a000000000000000000000000000000000000000000000000000000000815260040161053290611cf9565b60405180910390fd5b600060405180606001604052806000151581526020018373ffffffffffffffffffffffffffffffffffffffff16815260200160001515815250905080600960008473ffffffffffffffffffffffffffffffffffffffff1673ffffffffffffffffffffffffffffffffffffffff16815260200190815260200160002060008201518160000160006101000a81548160ff02191690831515021790555060208201518160000160016101000a81548173ffffffffffffffffffffffffffffffffffffffff021916908373ffffffffffffffffffffffffffffffffffffffff16021790555060408201518160000160156101000a81548160ff0219169083151502179055509050506008829080600181540180825580915050600190039060005260206000200160009091909190916101000a81548173ffffffffffffffffffffffffffffffffffffffff021916908373ffffffffffffffffffffffffffffffffffffffff1602179055505050565b6060600a60010180546106b990611d48565b80601f01602080910402602001604051908101604052809291908181526020018280546106e590611d48565b80156107325780601f1061070757610100808354040283529160200191610732565b820191906000526020600020905b81548152906001019060200180831161071557829003601f168201915b5050505050905090565b6000600960008373ffffffffffffffffffffffffffffffffffffffff1673ffffffffffffffffffffffffffffffffffffffff16815260200190815260200160002060000160009054906101000a900460ff169050919050565b60015442106107d9576040517f08c379a00000000000000000000000000000000000000000000000000000000081526004016107d090611dc5565b60405180910390fd5b6000600960003373ffffffffffffffffffffffffffffffffffffffff1673ffffffffffffffffffffffffffffffffffffffff1681526020019081526020016000206040518060600160405290816000820160009054906101000a900460ff161515151581526020016000820160019054906101000a900473ffffffffffffffffffffffffffffffffffffffff1673ffffffffffffffffffffffffffffffffffffffff1673ffffffffffffffffffffffffffffffffffffffff1681526020016000820160159054906101000a900460ff1615151515815250509050600073ffffffffffffffffffffffffffffffffffffffff16816020015173ffffffffffffffffffffffffffffffffffffffff1603610926576040517f08c379a000000000000000000000000000000000000000000000000000000000815260040161091d90611e31565b60405180910390fd5b80600001511561096b576040517f08c379a000000000000000000000000000000000000000000000000000000000815260040161096290611e9d565b60405180910390fd5b6040518060400160405280600981526020017f6920617070726f7665000000000000000000000000000000000000000000000081525080519060200120828051906020012003610bd0576001600960003373ffffffffffffffffffffffffffffffffffffffff1673ffffffffffffffffffffffffffffffffffffffff16815260200190815260200160002060000160006101000a81548160ff0219169083151502179055506001600960003373ffffffffffffffffffffffffffffffffffffffff1673ffffffffffffffffffffffffffffffffffffffff16815260200190815260200160002060000160156101000a81548160ff021916908315150217905550600160066000828254610a7e9190611eec565b925050819055506001600a6000016000828254610a9b9190611eec565b925050819055506007600960003373ffffffffffffffffffffffffffffffffffffffff1673ffffffffffffffffffffffffffffffffffffffff168152602001908152602001600020908060018154018082558091505060019003906000526020600020016000909190919091506000820160009054906101000a900460ff168160000160006101000a81548160ff0219169083151502179055506000820160019054906101000a900473ffffffffffffffffffffffffffffffffffffffff168160000160016101000a81548173ffffffffffffffffffffffffffffffffffffffff021916908373ffffffffffffffffffffffffffffffffffffffff1602179055506000820160159054906101000a900460ff168160000160156101000a81548160ff0219169083151502179055505050610dbd565b6040518060400160405280600c81526020017f6920646973617070726f7665000000000000000000000000000000000000000081525080519060200120828051906020012003610dbc576001600960003373ffffffffffffffffffffffffffffffffffffffff1673ffffffffffffffffffffffffffffffffffffffff16815260200190815260200160002060000160006101000a81548160ff0219169083151502179055506001600a6000016000828254610c8b9190611eec565b925050819055506007600960003373ffffffffffffffffffffffffffffffffffffffff1673ffffffffffffffffffffffffffffffffffffffff168152602001908152602001600020908060018154018082558091505060019003906000526020600020016000909190919091506000820160009054906101000a900460ff168160000160006101000a81548160ff0219169083151502179055506000820160019054906101000a900473ffffffffffffffffffffffffffffffffffffffff168160000160016101000a81548173ffffffffffffffffffffffffffffffffffffffff021916908373ffffffffffffffffffffffffffffffffffffffff1602179055506000820160159054906101000a900460ff168160000160156101000a81548160ff02191690831515021790555050505b5b5050565b600360009054906101000a900473ffffffffffffffffffffffffffffffffffffffff1681565b60055481565b60065481565b600a806000015490806001018054610e0a90611d48565b80601f0160208091040260200160405190810160405280929190818152602001828054610e3690611d48565b8015610e835780601f10610e5857610100808354040283529160200191610e83565b820191906000526020600020905b815481529060010190602001808311610e6657829003601f168201915b5050505050905082565b6000600960008373ffffffffffffffffffffffffffffffffffffffff1673ffffffffffffffffffffffffffffffffffffffff16815260200190815260200160002060000160159054906101000a900460ff169050919050565b600154421015610f2b576040517f08c379a0000000000000000000000000000000000000000000000000000000008152600401610f2290611f8e565b60405180910390fd5b6064600880549050600654610f409190611fdd565b610f4a919061200e565b60058190555060045460055410610fa1576040518060400160405280600881526020017f416363657074656400000000000000000000000000000000000000000000000081525060029081610f9f9190612214565b505b60005b6008805490508160ff1610156111ce57600015156009600060088460ff1681548110610fd357610fd26122e6565b5b9060005260206000200160009054906101000a900473ffffffffffffffffffffffffffffffffffffffff1673ffffffffffffffffffffffffffffffffffffffff1673ffffffffffffffffffffffffffffffffffffffff16815260200190815260200160002060000160009054906101000a900460ff161515036111bb5760076009600060088460ff168154811061106d5761106c6122e6565b5b9060005260206000200160009054906101000a900473ffffffffffffffffffffffffffffffffffffffff1673ffffffffffffffffffffffffffffffffffffffff1673ffffffffffffffffffffffffffffffffffffffff168152602001908152602001600020908060018154018082558091505060019003906000526020600020016000909190919091506000820160009054906101000a900460ff168160000160006101000a81548160ff0219169083151502179055506000820160019054906101000a900473ffffffffffffffffffffffffffffffffffffffff168160000160016101000a81548173ffffffffffffffffffffffffffffffffffffffff021916908373ffffffffffffffffffffffffffffffffffffffff1602179055506000820160159054906101000a900460ff168160000160156101000a81548160ff02191690831515021790555050505b80806111c690612322565b915050610fa4565b50565b60096020528060005260406000206000915090508060000160009054906101000a900460ff16908060000160019054906101000a900473ffffffffffffffffffffffffffffffffffffffff16908060000160159054906101000a900460ff16905083565b6000600454905090565b60045481565b6007818154811061125557600080fd5b906000526020600020016000915090508060000160009054906101000a900460ff16908060000160019054906101000a900473ffffffffffffffffffffffffffffffffffffffff16908060000160159054906101000a900460ff16905083565b60008054906101000a900473ffffffffffffffffffffffffffffffffffffffff1681565b60606112e3611552565b606060015442101561132a576040517f08c379a000000000000000000000000000000000000000000000000000000000815260040161132190611f8e565b60405180910390fd5b6002600a600782805461133c90611d48565b80601f016020809104026020016040519081016040528092919081815260200182805461136890611d48565b80156113b55780601f1061138a576101008083540402835291602001916113b5565b820191906000526020600020905b81548152906001019060200180831161139857829003601f168201915b5050505050925081604051806040016040529081600082015481526020016001820180546113e290611d48565b80601f016020809104026020016040519081016040528092919081815260200182805461140e90611d48565b801561145b5780601f106114305761010080835404028352916020019161145b565b820191906000526020600020905b81548152906001019060200180831161143e57829003601f168201915b505050505081525050915080805480602002602001604051908101604052809291908181526020016000905b82821015611541578382906000526020600020016040518060600160405290816000820160009054906101000a900460ff161515151581526020016000820160019054906101000a900473ffffffffffffffffffffffffffffffffffffffff1673ffffffffffffffffffffffffffffffffffffffff1673ffffffffffffffffffffffffffffffffffffffff1681526020016000820160159054906101000a900460ff16151515158152505081526020019060010190611487565b505050509050925092509250909192565b604051806040016040528060008152602001606081525090565b6000604051905090565b600080fd5b600080fd5b6000819050919050565b61159381611580565b811461159e57600080fd5b50565b6000813590506115b08161158a565b92915050565b6000602082840312156115cc576115cb611576565b5b60006115da848285016115a1565b91505092915050565b600073ffffffffffffffffffffffffffffffffffffffff82169050919050565b600061160e826115e3565b9050919050565b61161e81611603565b82525050565b60006020820190506116396000830184611615565b92915050565b61164881611603565b811461165357600080fd5b50565b6000813590506116658161163f565b92915050565b60006020828403121561168157611680611576565b5b600061168f84828501611656565b91505092915050565b600081519050919050565b600082825260208201905092915050565b60005b838110156116d25780820151818401526020810190506116b7565b838111156116e1576000848401525b50505050565b6000601f19601f8301169050919050565b600061170382611698565b61170d81856116a3565b935061171d8185602086016116b4565b611726816116e7565b840191505092915050565b6000602082019050818103600083015261174b81846116f8565b905092915050565b60008115159050919050565b61176881611753565b82525050565b6000602082019050611783600083018461175f565b92915050565b600080fd5b600080fd5b7f4e487b7100000000000000000000000000000000000000000000000000000000600052604160045260246000fd5b6117cb826116e7565b810181811067ffffffffffffffff821117156117ea576117e9611793565b5b80604052505050565b60006117fd61156c565b905061180982826117c2565b919050565b600067ffffffffffffffff82111561182957611828611793565b5b611832826116e7565b9050602081019050919050565b82818337600083830152505050565b600061186161185c8461180e565b6117f3565b90508281526020810184848401111561187d5761187c61178e565b5b61188884828561183f565b509392505050565b600082601f8301126118a5576118a4611789565b5b81356118b584826020860161184e565b91505092915050565b6000602082840312156118d4576118d3611576565b5b600082013567ffffffffffffffff8111156118f2576118f161157b565b5b6118fe84828501611890565b91505092915050565b61191081611580565b82525050565b600060208201905061192b6000830184611907565b92915050565b60006040820190506119466000830185611907565b818103602083015261195881846116f8565b90509392505050565b6000606082019050611976600083018661175f565b6119836020830185611615565b611990604083018461175f565b949350505050565b6119a181611580565b82525050565b600082825260208201905092915050565b60006119c382611698565b6119cd81856119a7565b93506119dd8185602086016116b4565b6119e6816116e7565b840191505092915050565b6000604083016000830151611a096000860182611998565b5060208301518482036020860152611a2182826119b8565b9150508091505092915050565b600081519050919050565b600082825260208201905092915050565b6000819050602082019050919050565b611a6381611753565b82525050565b611a7281611603565b82525050565b606082016000820151611a8e6000850182611a5a565b506020820151611aa16020850182611a69565b506040820151611ab46040850182611a5a565b50505050565b6000611ac68383611a78565b60608301905092915050565b6000602082019050919050565b6000611aea82611a2e565b611af48185611a39565b9350611aff83611a4a565b8060005b83811015611b30578151611b178882611aba565b9750611b2283611ad2565b925050600181019050611b03565b5085935050505092915050565b60006060820190508181036000830152611b5781866116f8565b90508181036020830152611b6b81856119f1565b90508181036040830152611b7f8184611adf565b9050949350505050565b7f4f6e6c7920696e69746961746f722063616e207265676973746572206120726560008201527f63697069656e742e000000000000000000000000000000000000000000000000602082015250565b6000611be56028836116a3565b9150611bf082611b89565b604082019050919050565b60006020820190508181036000830152611c1481611bd8565b9050919050565b7f526563697069656e7420697320616c7265616479207265676973746572656400600082015250565b6000611c51601f836116a3565b9150611c5c82611c1b565b602082019050919050565b60006020820190508181036000830152611c8081611c44565b9050919050565b7f50726f706f73616c20686173207265616368656420697473206578706972792060008201527f6461746500000000000000000000000000000000000000000000000000000000602082015250565b6000611ce36024836116a3565b9150611cee82611c87565b604082019050919050565b60006020820190508181036000830152611d1281611cd6565b9050919050565b7f4e487b7100000000000000000000000000000000000000000000000000000000600052602260045260246000fd5b60006002820490506001821680611d6057607f821691505b602082108103611d7357611d72611d19565b5b50919050565b7f566f74696e672068617320657870697265640000000000000000000000000000600082015250565b6000611daf6012836116a3565b9150611dba82611d79565b602082019050919050565b60006020820190508181036000830152611dde81611da2565b9050919050565b7f596f7520617265206e6f74207265676973746572656420746f20766f74650000600082015250565b6000611e1b601e836116a3565b9150611e2682611de5565b602082019050919050565b60006020820190508181036000830152611e4a81611e0e565b9050919050565b7f596f7520616c72656164792073656e74206120726573706f6e73652e00000000600082015250565b6000611e87601c836116a3565b9150611e9282611e51565b602082019050919050565b60006020820190508181036000830152611eb681611e7a565b9050919050565b7f4e487b7100000000000000000000000000000000000000000000000000000000600052601160045260246000fd5b6000611ef782611580565b9150611f0283611580565b9250827fffffffffffffffffffffffffffffffffffffffffffffffffffffffffffffffff03821115611f3757611f36611ebd565b5b828201905092915050565b7f5665726469637420686173206e6f74206265656e207265616368656420796574600082015250565b6000611f786020836116a3565b9150611f8382611f42565b602082019050919050565b60006020820190508181036000830152611fa781611f6b565b9050919050565b7f4e487b7100000000000000000000000000000000000000000000000000000000600052601260045260246000fd5b6000611fe882611580565b9150611ff383611580565b92508261200357612002611fae565b5b828204905092915050565b600061201982611580565b915061202483611580565b9250817fffffffffffffffffffffffffffffffffffffffffffffffffffffffffffffffff048311821515161561205d5761205c611ebd565b5b828202905092915050565b60008190508160005260206000209050919050565b60006020601f8301049050919050565b600082821b905092915050565b6000600883026120ca7fffffffffffffffffffffffffffffffffffffffffffffffffffffffffffffffff8261208d565b6120d4868361208d565b95508019841693508086168417925050509392505050565b6000819050919050565b600061211161210c61210784611580565b6120ec565b611580565b9050919050565b6000819050919050565b61212b836120f6565b61213f61213782612118565b84845461209a565b825550505050565b600090565b612154612147565b61215f818484612122565b505050565b5b818110156121835761217860008261214c565b600181019050612165565b5050565b601f8211156121c85761219981612068565b6121a28461207d565b810160208510156121b1578190505b6121c56121bd8561207d565b830182612164565b50505b505050565b600082821c905092915050565b60006121eb600019846008026121cd565b1980831691505092915050565b600061220483836121da565b9150826002028217905092915050565b61221d82611698565b67ffffffffffffffff81111561223657612235611793565b5b6122408254611d48565b61224b828285612187565b600060209050601f83116001811461227e576000841561226c578287015190505b61227685826121f8565b8655506122de565b601f19841661228c86612068565b60005b828110156122b45784890151825560018201915060208501945060208101905061228f565b868310156122d157848901516122cd601f8916826121da565b8355505b6001600288020188555050505b505050505050565b7f4e487b7100000000000000000000000000000000000000000000000000000000600052603260045260246000fd5b600060ff82169050919050565b600061232d82612315565b915060ff82036123405761233f611ebd565b5b60018201905091905056fea2646970667358221220ff4fe3badf95b488eb6f4895cdb5698a43e3e8a7ad0e25099022afe317fbf74f64736f6c634300080f0033",
					"opcodes": "PUSH1 0x80 PUSH1 0x40 MSTORE CALLVALUE DUP1 ISZERO PUSH3 0x11 JUMPI PUSH1 0x0 DUP1 REVERT JUMPDEST POP PUSH1 0x40 MLOAD PUSH3 0x2B08 CODESIZE SUB DUP1 PUSH3 0x2B08 DUP4 CODECOPY DUP2 DUP2 ADD PUSH1 0x40 MSTORE DUP2 ADD SWAP1 PUSH3 0x37 SWAP2 SWAP1 PUSH3 0x348 JUMP JUMPDEST CALLER PUSH1 0x3 PUSH1 0x0 PUSH2 0x100 EXP DUP2 SLOAD DUP2 PUSH20 0xFFFFFFFFFFFFFFFFFFFFFFFFFFFFFFFFFFFFFFFF MUL NOT AND SWAP1 DUP4 PUSH20 0xFFFFFFFFFFFFFFFFFFFFFFFFFFFFFFFFFFFFFFFF AND MUL OR SWAP1 SSTORE POP DUP2 TIMESTAMP PUSH3 0x86 SWAP2 SWAP1 PUSH3 0x3F2 JUMP JUMPDEST PUSH1 0x1 DUP2 SWAP1 SSTORE POP DUP1 PUSH1 0x4 DUP2 SWAP1 SSTORE POP PUSH1 0x0 PUSH1 0x5 DUP2 SWAP1 SSTORE POP PUSH1 0x0 PUSH1 0x6 DUP2 SWAP1 SSTORE POP PUSH1 0x40 MLOAD DUP1 PUSH1 0x40 ADD PUSH1 0x40 MSTORE DUP1 PUSH1 0x8 DUP2 MSTORE PUSH1 0x20 ADD PUSH32 0x52656A6563746564000000000000000000000000000000000000000000000000 DUP2 MSTORE POP PUSH1 0x2 SWAP1 DUP2 PUSH3 0xE9 SWAP2 SWAP1 PUSH3 0x690 JUMP JUMPDEST POP ADDRESS PUSH1 0x0 DUP1 PUSH2 0x100 EXP DUP2 SLOAD DUP2 PUSH20 0xFFFFFFFFFFFFFFFFFFFFFFFFFFFFFFFFFFFFFFFF MUL NOT AND SWAP1 DUP4 PUSH20 0xFFFFFFFFFFFFFFFFFFFFFFFFFFFFFFFFFFFFFFFF AND MUL OR SWAP1 SSTORE POP PUSH1 0x40 MLOAD DUP1 PUSH1 0x40 ADD PUSH1 0x40 MSTORE DUP1 PUSH1 0x0 DUP2 MSTORE PUSH1 0x20 ADD DUP5 DUP2 MSTORE POP PUSH1 0xA PUSH1 0x0 DUP3 ADD MLOAD DUP2 PUSH1 0x0 ADD SSTORE PUSH1 0x20 DUP3 ADD MLOAD DUP2 PUSH1 0x1 ADD SWAP1 DUP2 PUSH3 0x163 SWAP2 SWAP1 PUSH3 0x690 JUMP JUMPDEST POP SWAP1 POP POP POP POP POP PUSH3 0x777 JUMP JUMPDEST PUSH1 0x0 PUSH1 0x40 MLOAD SWAP1 POP SWAP1 JUMP JUMPDEST PUSH1 0x0 DUP1 REVERT JUMPDEST PUSH1 0x0 DUP1 REVERT JUMPDEST PUSH1 0x0 DUP1 REVERT JUMPDEST PUSH1 0x0 DUP1 REVERT JUMPDEST PUSH1 0x0 PUSH1 0x1F NOT PUSH1 0x1F DUP4 ADD AND SWAP1 POP SWAP2 SWAP1 POP JUMP JUMPDEST PUSH32 0x4E487B7100000000000000000000000000000000000000000000000000000000 PUSH1 0x0 MSTORE PUSH1 0x41 PUSH1 0x4 MSTORE PUSH1 0x24 PUSH1 0x0 REVERT JUMPDEST PUSH3 0x1D9 DUP3 PUSH3 0x18E JUMP JUMPDEST DUP2 ADD DUP2 DUP2 LT PUSH8 0xFFFFFFFFFFFFFFFF DUP3 GT OR ISZERO PUSH3 0x1FB JUMPI PUSH3 0x1FA PUSH3 0x19F JUMP JUMPDEST JUMPDEST DUP1 PUSH1 0x40 MSTORE POP POP POP JUMP JUMPDEST PUSH1 0x0 PUSH3 0x210 PUSH3 0x170 JUMP JUMPDEST SWAP1 POP PUSH3 0x21E DUP3 DUP3 PUSH3 0x1CE JUMP JUMPDEST SWAP2 SWAP1 POP JUMP JUMPDEST PUSH1 0x0 PUSH8 0xFFFFFFFFFFFFFFFF DUP3 GT ISZERO PUSH3 0x241 JUMPI PUSH3 0x240 PUSH3 0x19F JUMP JUMPDEST JUMPDEST PUSH3 0x24C DUP3 PUSH3 0x18E JUMP JUMPDEST SWAP1 POP PUSH1 0x20 DUP2 ADD SWAP1 POP SWAP2 SWAP1 POP JUMP JUMPDEST PUSH1 0x0 JUMPDEST DUP4 DUP2 LT ISZERO PUSH3 0x279 JUMPI DUP1 DUP3 ADD MLOAD DUP2 DUP5 ADD MSTORE PUSH1 0x20 DUP2 ADD SWAP1 POP PUSH3 0x25C JUMP JUMPDEST DUP4 DUP2 GT ISZERO PUSH3 0x289 JUMPI PUSH1 0x0 DUP5 DUP5 ADD MSTORE JUMPDEST POP POP POP POP JUMP JUMPDEST PUSH1 0x0 PUSH3 0x2A6 PUSH3 0x2A0 DUP5 PUSH3 0x223 JUMP JUMPDEST PUSH3 0x204 JUMP JUMPDEST SWAP1 POP DUP3 DUP2 MSTORE PUSH1 0x20 DUP2 ADD DUP5 DUP5 DUP5 ADD GT ISZERO PUSH3 0x2C5 JUMPI PUSH3 0x2C4 PUSH3 0x189 JUMP JUMPDEST JUMPDEST PUSH3 0x2D2 DUP5 DUP3 DUP6 PUSH3 0x259 JUMP JUMPDEST POP SWAP4 SWAP3 POP POP POP JUMP JUMPDEST PUSH1 0x0 DUP3 PUSH1 0x1F DUP4 ADD SLT PUSH3 0x2F2 JUMPI PUSH3 0x2F1 PUSH3 0x184 JUMP JUMPDEST JUMPDEST DUP2 MLOAD PUSH3 0x304 DUP5 DUP3 PUSH1 0x20 DUP7 ADD PUSH3 0x28F JUMP JUMPDEST SWAP2 POP POP SWAP3 SWAP2 POP POP JUMP JUMPDEST PUSH1 0x0 DUP2 SWAP1 POP SWAP2 SWAP1 POP JUMP JUMPDEST PUSH3 0x322 DUP2 PUSH3 0x30D JUMP JUMPDEST DUP2 EQ PUSH3 0x32E JUMPI PUSH1 0x0 DUP1 REVERT JUMPDEST POP JUMP JUMPDEST PUSH1 0x0 DUP2 MLOAD SWAP1 POP PUSH3 0x342 DUP2 PUSH3 0x317 JUMP JUMPDEST SWAP3 SWAP2 POP POP JUMP JUMPDEST PUSH1 0x0 DUP1 PUSH1 0x0 PUSH1 0x60 DUP5 DUP7 SUB SLT ISZERO PUSH3 0x364 JUMPI PUSH3 0x363 PUSH3 0x17A JUMP JUMPDEST JUMPDEST PUSH1 0x0 DUP5 ADD MLOAD PUSH8 0xFFFFFFFFFFFFFFFF DUP2 GT ISZERO PUSH3 0x385 JUMPI PUSH3 0x384 PUSH3 0x17F JUMP JUMPDEST JUMPDEST PUSH3 0x393 DUP7 DUP3 DUP8 ADD PUSH3 0x2DA JUMP JUMPDEST SWAP4 POP POP PUSH1 0x20 PUSH3 0x3A6 DUP7 DUP3 DUP8 ADD PUSH3 0x331 JUMP JUMPDEST SWAP3 POP POP PUSH1 0x40 PUSH3 0x3B9 DUP7 DUP3 DUP8 ADD PUSH3 0x331 JUMP JUMPDEST SWAP2 POP POP SWAP3 POP SWAP3 POP SWAP3 JUMP JUMPDEST PUSH32 0x4E487B7100000000000000000000000000000000000000000000000000000000 PUSH1 0x0 MSTORE PUSH1 0x11 PUSH1 0x4 MSTORE PUSH1 0x24 PUSH1 0x0 REVERT JUMPDEST PUSH1 0x0 PUSH3 0x3FF DUP3 PUSH3 0x30D JUMP JUMPDEST SWAP2 POP PUSH3 0x40C DUP4 PUSH3 0x30D JUMP JUMPDEST SWAP3 POP DUP3 PUSH32 0xFFFFFFFFFFFFFFFFFFFFFFFFFFFFFFFFFFFFFFFFFFFFFFFFFFFFFFFFFFFFFFFF SUB DUP3 GT ISZERO PUSH3 0x444 JUMPI PUSH3 0x443 PUSH3 0x3C3 JUMP JUMPDEST JUMPDEST DUP3 DUP3 ADD SWAP1 POP SWAP3 SWAP2 POP POP JUMP JUMPDEST PUSH1 0x0 DUP2 MLOAD SWAP1 POP SWAP2 SWAP1 POP JUMP JUMPDEST PUSH32 0x4E487B7100000000000000000000000000000000000000000000000000000000 PUSH1 0x0 MSTORE PUSH1 0x22 PUSH1 0x4 MSTORE PUSH1 0x24 PUSH1 0x0 REVERT JUMPDEST PUSH1 0x0 PUSH1 0x2 DUP3 DIV SWAP1 POP PUSH1 0x1 DUP3 AND DUP1 PUSH3 0x4A2 JUMPI PUSH1 0x7F DUP3 AND SWAP2 POP JUMPDEST PUSH1 0x20 DUP3 LT DUP2 SUB PUSH3 0x4B8 JUMPI PUSH3 0x4B7 PUSH3 0x45A JUMP JUMPDEST JUMPDEST POP SWAP2 SWAP1 POP JUMP JUMPDEST PUSH1 0x0 DUP2 SWAP1 POP DUP2 PUSH1 0x0 MSTORE PUSH1 0x20 PUSH1 0x0 KECCAK256 SWAP1 POP SWAP2 SWAP1 POP JUMP JUMPDEST PUSH1 0x0 PUSH1 0x20 PUSH1 0x1F DUP4 ADD DIV SWAP1 POP SWAP2 SWAP1 POP JUMP JUMPDEST PUSH1 0x0 DUP3 DUP3 SHL SWAP1 POP SWAP3 SWAP2 POP POP JUMP JUMPDEST PUSH1 0x0 PUSH1 0x8 DUP4 MUL PUSH3 0x522 PUSH32 0xFFFFFFFFFFFFFFFFFFFFFFFFFFFFFFFFFFFFFFFFFFFFFFFFFFFFFFFFFFFFFFFF DUP3 PUSH3 0x4E3 JUMP JUMPDEST PUSH3 0x52E DUP7 DUP4 PUSH3 0x4E3 JUMP JUMPDEST SWAP6 POP DUP1 NOT DUP5 AND SWAP4 POP DUP1 DUP7 AND DUP5 OR SWAP3 POP POP POP SWAP4 SWAP3 POP POP POP JUMP JUMPDEST PUSH1 0x0 DUP2 SWAP1 POP SWAP2 SWAP1 POP JUMP JUMPDEST PUSH1 0x0 PUSH3 0x571 PUSH3 0x56B PUSH3 0x565 DUP5 PUSH3 0x30D JUMP JUMPDEST PUSH3 0x546 JUMP JUMPDEST PUSH3 0x30D JUMP JUMPDEST SWAP1 POP SWAP2 SWAP1 POP JUMP JUMPDEST PUSH1 0x0 DUP2 SWAP1 POP SWAP2 SWAP1 POP JUMP JUMPDEST PUSH3 0x58D DUP4 PUSH3 0x550 JUMP JUMPDEST PUSH3 0x5A5 PUSH3 0x59C DUP3 PUSH3 0x578 JUMP JUMPDEST DUP5 DUP5 SLOAD PUSH3 0x4F0 JUMP JUMPDEST DUP3 SSTORE POP POP POP POP JUMP JUMPDEST PUSH1 0x0 SWAP1 JUMP JUMPDEST PUSH3 0x5BC PUSH3 0x5AD JUMP JUMPDEST PUSH3 0x5C9 DUP2 DUP5 DUP5 PUSH3 0x582 JUMP JUMPDEST POP POP POP JUMP JUMPDEST JUMPDEST DUP2 DUP2 LT ISZERO PUSH3 0x5F1 JUMPI PUSH3 0x5E5 PUSH1 0x0 DUP3 PUSH3 0x5B2 JUMP JUMPDEST PUSH1 0x1 DUP2 ADD SWAP1 POP PUSH3 0x5CF JUMP JUMPDEST POP POP JUMP JUMPDEST PUSH1 0x1F DUP3 GT ISZERO PUSH3 0x640 JUMPI PUSH3 0x60A DUP2 PUSH3 0x4BE JUMP JUMPDEST PUSH3 0x615 DUP5 PUSH3 0x4D3 JUMP JUMPDEST DUP2 ADD PUSH1 0x20 DUP6 LT ISZERO PUSH3 0x625 JUMPI DUP2 SWAP1 POP JUMPDEST PUSH3 0x63D PUSH3 0x634 DUP6 PUSH3 0x4D3 JUMP JUMPDEST DUP4 ADD DUP3 PUSH3 0x5CE JUMP JUMPDEST POP POP JUMPDEST POP POP POP JUMP JUMPDEST PUSH1 0x0 DUP3 DUP3 SHR SWAP1 POP SWAP3 SWAP2 POP POP JUMP JUMPDEST PUSH1 0x0 PUSH3 0x665 PUSH1 0x0 NOT DUP5 PUSH1 0x8 MUL PUSH3 0x645 JUMP JUMPDEST NOT DUP1 DUP4 AND SWAP2 POP POP SWAP3 SWAP2 POP POP JUMP JUMPDEST PUSH1 0x0 PUSH3 0x680 DUP4 DUP4 PUSH3 0x652 JUMP JUMPDEST SWAP2 POP DUP3 PUSH1 0x2 MUL DUP3 OR SWAP1 POP SWAP3 SWAP2 POP POP JUMP JUMPDEST PUSH3 0x69B DUP3 PUSH3 0x44F JUMP JUMPDEST PUSH8 0xFFFFFFFFFFFFFFFF DUP2 GT ISZERO PUSH3 0x6B7 JUMPI PUSH3 0x6B6 PUSH3 0x19F JUMP JUMPDEST JUMPDEST PUSH3 0x6C3 DUP3 SLOAD PUSH3 0x489 JUMP JUMPDEST PUSH3 0x6D0 DUP3 DUP3 DUP6 PUSH3 0x5F5 JUMP JUMPDEST PUSH1 0x0 PUSH1 0x20 SWAP1 POP PUSH1 0x1F DUP4 GT PUSH1 0x1 DUP2 EQ PUSH3 0x708 JUMPI PUSH1 0x0 DUP5 ISZERO PUSH3 0x6F3 JUMPI DUP3 DUP8 ADD MLOAD SWAP1 POP JUMPDEST PUSH3 0x6FF DUP6 DUP3 PUSH3 0x672 JUMP JUMPDEST DUP7 SSTORE POP PUSH3 0x76F JUMP JUMPDEST PUSH1 0x1F NOT DUP5 AND PUSH3 0x718 DUP7 PUSH3 0x4BE JUMP JUMPDEST PUSH1 0x0 JUMPDEST DUP3 DUP2 LT ISZERO PUSH3 0x742 JUMPI DUP5 DUP10 ADD MLOAD DUP3 SSTORE PUSH1 0x1 DUP3 ADD SWAP2 POP PUSH1 0x20 DUP6 ADD SWAP5 POP PUSH1 0x20 DUP2 ADD SWAP1 POP PUSH3 0x71B JUMP JUMPDEST DUP7 DUP4 LT ISZERO PUSH3 0x762 JUMPI DUP5 DUP10 ADD MLOAD PUSH3 0x75E PUSH1 0x1F DUP10 AND DUP3 PUSH3 0x652 JUMP JUMPDEST DUP4 SSTORE POP JUMPDEST PUSH1 0x1 PUSH1 0x2 DUP9 MUL ADD DUP9 SSTORE POP POP POP JUMPDEST POP POP POP POP POP POP JUMP JUMPDEST PUSH2 0x2381 DUP1 PUSH3 0x787 PUSH1 0x0 CODECOPY PUSH1 0x0 RETURN INVALID PUSH1 0x80 PUSH1 0x40 MSTORE CALLVALUE DUP1 ISZERO PUSH2 0x10 JUMPI PUSH1 0x0 DUP1 REVERT JUMPDEST POP PUSH1 0x4 CALLDATASIZE LT PUSH2 0x10B JUMPI PUSH1 0x0 CALLDATALOAD PUSH1 0xE0 SHR DUP1 PUSH4 0x753EC103 GT PUSH2 0xA2 JUMPI DUP1 PUSH4 0xA5EA11DA GT PUSH2 0x71 JUMPI DUP1 PUSH4 0xA5EA11DA EQ PUSH2 0x2AB JUMPI DUP1 PUSH4 0xD77AA749 EQ PUSH2 0x2C9 JUMPI DUP1 PUSH4 0xDA58C7D9 EQ PUSH2 0x2E7 JUMPI DUP1 PUSH4 0xF6B4DFB4 EQ PUSH2 0x319 JUMPI DUP1 PUSH4 0xFE8FF236 EQ PUSH2 0x337 JUMPI PUSH2 0x10B JUMP JUMPDEST DUP1 PUSH4 0x753EC103 EQ PUSH2 0x220 JUMPI DUP1 PUSH4 0x8D337B81 EQ PUSH2 0x23F JUMPI DUP1 PUSH4 0x95B02DFA EQ PUSH2 0x26F JUMPI DUP1 PUSH4 0x9AA4BBDD EQ PUSH2 0x279 JUMPI PUSH2 0x10B JUMP JUMPDEST DUP1 PUSH4 0x323082D7 GT PUSH2 0xDE JUMPI DUP1 PUSH4 0x323082D7 EQ PUSH2 0x1AA JUMPI DUP1 PUSH4 0x5C39FCC1 EQ PUSH2 0x1C6 JUMPI DUP1 PUSH4 0x604C8333 EQ PUSH2 0x1E4 JUMPI DUP1 PUSH4 0x7403C5E5 EQ PUSH2 0x202 JUMPI PUSH2 0x10B JUMP JUMPDEST DUP1 PUSH4 0xCB6AAF1 EQ PUSH2 0x110 JUMPI DUP1 PUSH4 0x15FE6F1B EQ PUSH2 0x140 JUMPI DUP1 PUSH4 0x19EB4A90 EQ PUSH2 0x15C JUMPI DUP1 PUSH4 0x2D15CC04 EQ PUSH2 0x17A JUMPI JUMPDEST PUSH1 0x0 DUP1 REVERT JUMPDEST PUSH2 0x12A PUSH1 0x4 DUP1 CALLDATASIZE SUB DUP2 ADD SWAP1 PUSH2 0x125 SWAP2 SWAP1 PUSH2 0x15B6 JUMP JUMPDEST PUSH2 0x357 JUMP JUMPDEST PUSH1 0x40 MLOAD PUSH2 0x137 SWAP2 SWAP1 PUSH2 0x1624 JUMP JUMPDEST PUSH1 0x40 MLOAD DUP1 SWAP2 SUB SWAP1 RETURN JUMPDEST PUSH2 0x15A PUSH1 0x4 DUP1 CALLDATASIZE SUB DUP2 ADD SWAP1 PUSH2 0x155 SWAP2 SWAP1 PUSH2 0x166B JUMP JUMPDEST PUSH2 0x396 JUMP JUMPDEST STOP JUMPDEST PUSH2 0x164 PUSH2 0x6A7 JUMP JUMPDEST PUSH1 0x40 MLOAD PUSH2 0x171 SWAP2 SWAP1 PUSH2 0x1731 JUMP JUMPDEST PUSH1 0x40 MLOAD DUP1 SWAP2 SUB SWAP1 RETURN JUMPDEST PUSH2 0x194 PUSH1 0x4 DUP1 CALLDATASIZE SUB DUP2 ADD SWAP1 PUSH2 0x18F SWAP2 SWAP1 PUSH2 0x166B JUMP JUMPDEST PUSH2 0x73C JUMP JUMPDEST PUSH1 0x40 MLOAD PUSH2 0x1A1 SWAP2 SWAP1 PUSH2 0x176E JUMP JUMPDEST PUSH1 0x40 MLOAD DUP1 SWAP2 SUB SWAP1 RETURN JUMPDEST PUSH2 0x1C4 PUSH1 0x4 DUP1 CALLDATASIZE SUB DUP2 ADD SWAP1 PUSH2 0x1BF SWAP2 SWAP1 PUSH2 0x18BE JUMP JUMPDEST PUSH2 0x795 JUMP JUMPDEST STOP JUMPDEST PUSH2 0x1CE PUSH2 0xDC1 JUMP JUMPDEST PUSH1 0x40 MLOAD PUSH2 0x1DB SWAP2 SWAP1 PUSH2 0x1624 JUMP JUMPDEST PUSH1 0x40 MLOAD DUP1 SWAP2 SUB SWAP1 RETURN JUMPDEST PUSH2 0x1EC PUSH2 0xDE7 JUMP JUMPDEST PUSH1 0x40 MLOAD PUSH2 0x1F9 SWAP2 SWAP1 PUSH2 0x1916 JUMP JUMPDEST PUSH1 0x40 MLOAD DUP1 SWAP2 SUB SWAP1 RETURN JUMPDEST PUSH2 0x20A PUSH2 0xDED JUMP JUMPDEST PUSH1 0x40 MLOAD PUSH2 0x217 SWAP2 SWAP1 PUSH2 0x1916 JUMP JUMPDEST PUSH1 0x40 MLOAD DUP1 SWAP2 SUB SWAP1 RETURN JUMPDEST PUSH2 0x228 PUSH2 0xDF3 JUMP JUMPDEST PUSH1 0x40 MLOAD PUSH2 0x236 SWAP3 SWAP2 SWAP1 PUSH2 0x1931 JUMP JUMPDEST PUSH1 0x40 MLOAD DUP1 SWAP2 SUB SWAP1 RETURN JUMPDEST PUSH2 0x259 PUSH1 0x4 DUP1 CALLDATASIZE SUB DUP2 ADD SWAP1 PUSH2 0x254 SWAP2 SWAP1 PUSH2 0x166B JUMP JUMPDEST PUSH2 0xE8D JUMP JUMPDEST PUSH1 0x40 MLOAD PUSH2 0x266 SWAP2 SWAP1 PUSH2 0x176E JUMP JUMPDEST PUSH1 0x40 MLOAD DUP1 SWAP2 SUB SWAP1 RETURN JUMPDEST PUSH2 0x277 PUSH2 0xEE6 JUMP JUMPDEST STOP JUMPDEST PUSH2 0x293 PUSH1 0x4 DUP1 CALLDATASIZE SUB DUP2 ADD SWAP1 PUSH2 0x28E SWAP2 SWAP1 PUSH2 0x166B JUMP JUMPDEST PUSH2 0x11D1 JUMP JUMPDEST PUSH1 0x40 MLOAD PUSH2 0x2A2 SWAP4 SWAP3 SWAP2 SWAP1 PUSH2 0x1961 JUMP JUMPDEST PUSH1 0x40 MLOAD DUP1 SWAP2 SUB SWAP1 RETURN JUMPDEST PUSH2 0x2B3 PUSH2 0x1235 JUMP JUMPDEST PUSH1 0x40 MLOAD PUSH2 0x2C0 SWAP2 SWAP1 PUSH2 0x1916 JUMP JUMPDEST PUSH1 0x40 MLOAD DUP1 SWAP2 SUB SWAP1 RETURN JUMPDEST PUSH2 0x2D1 PUSH2 0x123F JUMP JUMPDEST PUSH1 0x40 MLOAD PUSH2 0x2DE SWAP2 SWAP1 PUSH2 0x1916 JUMP JUMPDEST PUSH1 0x40 MLOAD DUP1 SWAP2 SUB SWAP1 RETURN JUMPDEST PUSH2 0x301 PUSH1 0x4 DUP1 CALLDATASIZE SUB DUP2 ADD SWAP1 PUSH2 0x2FC SWAP2 SWAP1 PUSH2 0x15B6 JUMP JUMPDEST PUSH2 0x1245 JUMP JUMPDEST PUSH1 0x40 MLOAD PUSH2 0x310 SWAP4 SWAP3 SWAP2 SWAP1 PUSH2 0x1961 JUMP JUMPDEST PUSH1 0x40 MLOAD DUP1 SWAP2 SUB SWAP1 RETURN JUMPDEST PUSH2 0x321 PUSH2 0x12B5 JUMP JUMPDEST PUSH1 0x40 MLOAD PUSH2 0x32E SWAP2 SWAP1 PUSH2 0x1624 JUMP JUMPDEST PUSH1 0x40 MLOAD DUP1 SWAP2 SUB SWAP1 RETURN JUMPDEST PUSH2 0x33F PUSH2 0x12D9 JUMP JUMPDEST PUSH1 0x40 MLOAD PUSH2 0x34E SWAP4 SWAP3 SWAP2 SWAP1 PUSH2 0x1B3D JUMP JUMPDEST PUSH1 0x40 MLOAD DUP1 SWAP2 SUB SWAP1 RETURN JUMPDEST PUSH1 0x8 DUP2 DUP2 SLOAD DUP2 LT PUSH2 0x367 JUMPI PUSH1 0x0 DUP1 REVERT JUMPDEST SWAP1 PUSH1 0x0 MSTORE PUSH1 0x20 PUSH1 0x0 KECCAK256 ADD PUSH1 0x0 SWAP2 POP SLOAD SWAP1 PUSH2 0x100 EXP SWAP1 DIV PUSH20 0xFFFFFFFFFFFFFFFFFFFFFFFFFFFFFFFFFFFFFFFF AND DUP2 JUMP JUMPDEST PUSH1 0x3 PUSH1 0x0 SWAP1 SLOAD SWAP1 PUSH2 0x100 EXP SWAP1 DIV PUSH20 0xFFFFFFFFFFFFFFFFFFFFFFFFFFFFFFFFFFFFFFFF AND PUSH20 0xFFFFFFFFFFFFFFFFFFFFFFFFFFFFFFFFFFFFFFFF AND CALLER PUSH20 0xFFFFFFFFFFFFFFFFFFFFFFFFFFFFFFFFFFFFFFFF AND EQ PUSH2 0x426 JUMPI PUSH1 0x40 MLOAD PUSH32 0x8C379A000000000000000000000000000000000000000000000000000000000 DUP2 MSTORE PUSH1 0x4 ADD PUSH2 0x41D SWAP1 PUSH2 0x1BFB JUMP JUMPDEST PUSH1 0x40 MLOAD DUP1 SWAP2 SUB SWAP1 REVERT JUMPDEST PUSH1 0x0 PUSH20 0xFFFFFFFFFFFFFFFFFFFFFFFFFFFFFFFFFFFFFFFF AND PUSH1 0x9 PUSH1 0x0 DUP4 PUSH20 0xFFFFFFFFFFFFFFFFFFFFFFFFFFFFFFFFFFFFFFFF AND PUSH20 0xFFFFFFFFFFFFFFFFFFFFFFFFFFFFFFFFFFFFFFFF AND DUP2 MSTORE PUSH1 0x20 ADD SWAP1 DUP2 MSTORE PUSH1 0x20 ADD PUSH1 0x0 KECCAK256 PUSH1 0x0 ADD PUSH1 0x1 SWAP1 SLOAD SWAP1 PUSH2 0x100 EXP SWAP1 DIV PUSH20 0xFFFFFFFFFFFFFFFFFFFFFFFFFFFFFFFFFFFFFFFF AND PUSH20 0xFFFFFFFFFFFFFFFFFFFFFFFFFFFFFFFFFFFFFFFF AND EQ PUSH2 0x4F7 JUMPI PUSH1 0x40 MLOAD PUSH32 0x8C379A000000000000000000000000000000000000000000000000000000000 DUP2 MSTORE PUSH1 0x4 ADD PUSH2 0x4EE SWAP1 PUSH2 0x1C67 JUMP JUMPDEST PUSH1 0x40 MLOAD DUP1 SWAP2 SUB SWAP1 REVERT JUMPDEST PUSH1 0x1 SLOAD TIMESTAMP LT PUSH2 0x53B JUMPI PUSH1 0x40 MLOAD PUSH32 0x8C379A000000000000000000000000000000000000000000000000000000000 DUP2 MSTORE PUSH1 0x4 ADD PUSH2 0x532 SWAP1 PUSH2 0x1CF9 JUMP JUMPDEST PUSH1 0x40 MLOAD DUP1 SWAP2 SUB SWAP1 REVERT JUMPDEST PUSH1 0x0 PUSH1 0x40 MLOAD DUP1 PUSH1 0x60 ADD PUSH1 0x40 MSTORE DUP1 PUSH1 0x0 ISZERO ISZERO DUP2 MSTORE PUSH1 0x20 ADD DUP4 PUSH20 0xFFFFFFFFFFFFFFFFFFFFFFFFFFFFFFFFFFFFFFFF AND DUP2 MSTORE PUSH1 0x20 ADD PUSH1 0x0 ISZERO ISZERO DUP2 MSTORE POP SWAP1 POP DUP1 PUSH1 0x9 PUSH1 0x0 DUP5 PUSH20 0xFFFFFFFFFFFFFFFFFFFFFFFFFFFFFFFFFFFFFFFF AND PUSH20 0xFFFFFFFFFFFFFFFFFFFFFFFFFFFFFFFFFFFFFFFF AND DUP2 MSTORE PUSH1 0x20 ADD SWAP1 DUP2 MSTORE PUSH1 0x20 ADD PUSH1 0x0 KECCAK256 PUSH1 0x0 DUP3 ADD MLOAD DUP2 PUSH1 0x0 ADD PUSH1 0x0 PUSH2 0x100 EXP DUP2 SLOAD DUP2 PUSH1 0xFF MUL NOT AND SWAP1 DUP4 ISZERO ISZERO MUL OR SWAP1 SSTORE POP PUSH1 0x20 DUP3 ADD MLOAD DUP2 PUSH1 0x0 ADD PUSH1 0x1 PUSH2 0x100 EXP DUP2 SLOAD DUP2 PUSH20 0xFFFFFFFFFFFFFFFFFFFFFFFFFFFFFFFFFFFFFFFF MUL NOT AND SWAP1 DUP4 PUSH20 0xFFFFFFFFFFFFFFFFFFFFFFFFFFFFFFFFFFFFFFFF AND MUL OR SWAP1 SSTORE POP PUSH1 0x40 DUP3 ADD MLOAD DUP2 PUSH1 0x0 ADD PUSH1 0x15 PUSH2 0x100 EXP DUP2 SLOAD DUP2 PUSH1 0xFF MUL NOT AND SWAP1 DUP4 ISZERO ISZERO MUL OR SWAP1 SSTORE POP SWAP1 POP POP PUSH1 0x8 DUP3 SWAP1 DUP1 PUSH1 0x1 DUP2 SLOAD ADD DUP1 DUP3 SSTORE DUP1 SWAP2 POP POP PUSH1 0x1 SWAP1 SUB SWAP1 PUSH1 0x0 MSTORE PUSH1 0x20 PUSH1 0x0 KECCAK256 ADD PUSH1 0x0 SWAP1 SWAP2 SWAP1 SWAP2 SWAP1 SWAP2 PUSH2 0x100 EXP DUP2 SLOAD DUP2 PUSH20 0xFFFFFFFFFFFFFFFFFFFFFFFFFFFFFFFFFFFFFFFF MUL NOT AND SWAP1 DUP4 PUSH20 0xFFFFFFFFFFFFFFFFFFFFFFFFFFFFFFFFFFFFFFFF AND MUL OR SWAP1 SSTORE POP POP POP JUMP JUMPDEST PUSH1 0x60 PUSH1 0xA PUSH1 0x1 ADD DUP1 SLOAD PUSH2 0x6B9 SWAP1 PUSH2 0x1D48 JUMP JUMPDEST DUP1 PUSH1 0x1F ADD PUSH1 0x20 DUP1 SWAP2 DIV MUL PUSH1 0x20 ADD PUSH1 0x40 MLOAD SWAP1 DUP2 ADD PUSH1 0x40 MSTORE DUP1 SWAP3 SWAP2 SWAP1 DUP2 DUP2 MSTORE PUSH1 0x20 ADD DUP3 DUP1 SLOAD PUSH2 0x6E5 SWAP1 PUSH2 0x1D48 JUMP JUMPDEST DUP1 ISZERO PUSH2 0x732 JUMPI DUP1 PUSH1 0x1F LT PUSH2 0x707 JUMPI PUSH2 0x100 DUP1 DUP4 SLOAD DIV MUL DUP4 MSTORE SWAP2 PUSH1 0x20 ADD SWAP2 PUSH2 0x732 JUMP JUMPDEST DUP3 ADD SWAP2 SWAP1 PUSH1 0x0 MSTORE PUSH1 0x20 PUSH1 0x0 KECCAK256 SWAP1 JUMPDEST DUP2 SLOAD DUP2 MSTORE SWAP1 PUSH1 0x1 ADD SWAP1 PUSH1 0x20 ADD DUP1 DUP4 GT PUSH2 0x715 JUMPI DUP3 SWAP1 SUB PUSH1 0x1F AND DUP3 ADD SWAP2 JUMPDEST POP POP POP POP POP SWAP1 POP SWAP1 JUMP JUMPDEST PUSH1 0x0 PUSH1 0x9 PUSH1 0x0 DUP4 PUSH20 0xFFFFFFFFFFFFFFFFFFFFFFFFFFFFFFFFFFFFFFFF AND PUSH20 0xFFFFFFFFFFFFFFFFFFFFFFFFFFFFFFFFFFFFFFFF AND DUP2 MSTORE PUSH1 0x20 ADD SWAP1 DUP2 MSTORE PUSH1 0x20 ADD PUSH1 0x0 KECCAK256 PUSH1 0x0 ADD PUSH1 0x0 SWAP1 SLOAD SWAP1 PUSH2 0x100 EXP SWAP1 DIV PUSH1 0xFF AND SWAP1 POP SWAP2 SWAP1 POP JUMP JUMPDEST PUSH1 0x1 SLOAD TIMESTAMP LT PUSH2 0x7D9 JUMPI PUSH1 0x40 MLOAD PUSH32 0x8C379A000000000000000000000000000000000000000000000000000000000 DUP2 MSTORE PUSH1 0x4 ADD PUSH2 0x7D0 SWAP1 PUSH2 0x1DC5 JUMP JUMPDEST PUSH1 0x40 MLOAD DUP1 SWAP2 SUB SWAP1 REVERT JUMPDEST PUSH1 0x0 PUSH1 0x9 PUSH1 0x0 CALLER PUSH20 0xFFFFFFFFFFFFFFFFFFFFFFFFFFFFFFFFFFFFFFFF AND PUSH20 0xFFFFFFFFFFFFFFFFFFFFFFFFFFFFFFFFFFFFFFFF AND DUP2 MSTORE PUSH1 0x20 ADD SWAP1 DUP2 MSTORE PUSH1 0x20 ADD PUSH1 0x0 KECCAK256 PUSH1 0x40 MLOAD DUP1 PUSH1 0x60 ADD PUSH1 0x40 MSTORE SWAP1 DUP2 PUSH1 0x0 DUP3 ADD PUSH1 0x0 SWAP1 SLOAD SWAP1 PUSH2 0x100 EXP SWAP1 DIV PUSH1 0xFF AND ISZERO ISZERO ISZERO ISZERO DUP2 MSTORE PUSH1 0x20 ADD PUSH1 0x0 DUP3 ADD PUSH1 0x1 SWAP1 SLOAD SWAP1 PUSH2 0x100 EXP SWAP1 DIV PUSH20 0xFFFFFFFFFFFFFFFFFFFFFFFFFFFFFFFFFFFFFFFF AND PUSH20 0xFFFFFFFFFFFFFFFFFFFFFFFFFFFFFFFFFFFFFFFF AND PUSH20 0xFFFFFFFFFFFFFFFFFFFFFFFFFFFFFFFFFFFFFFFF AND DUP2 MSTORE PUSH1 0x20 ADD PUSH1 0x0 DUP3 ADD PUSH1 0x15 SWAP1 SLOAD SWAP1 PUSH2 0x100 EXP SWAP1 DIV PUSH1 0xFF AND ISZERO ISZERO ISZERO ISZERO DUP2 MSTORE POP POP SWAP1 POP PUSH1 0x0 PUSH20 0xFFFFFFFFFFFFFFFFFFFFFFFFFFFFFFFFFFFFFFFF AND DUP2 PUSH1 0x20 ADD MLOAD PUSH20 0xFFFFFFFFFFFFFFFFFFFFFFFFFFFFFFFFFFFFFFFF AND SUB PUSH2 0x926 JUMPI PUSH1 0x40 MLOAD PUSH32 0x8C379A000000000000000000000000000000000000000000000000000000000 DUP2 MSTORE PUSH1 0x4 ADD PUSH2 0x91D SWAP1 PUSH2 0x1E31 JUMP JUMPDEST PUSH1 0x40 MLOAD DUP1 SWAP2 SUB SWAP1 REVERT JUMPDEST DUP1 PUSH1 0x0 ADD MLOAD ISZERO PUSH2 0x96B JUMPI PUSH1 0x40 MLOAD PUSH32 0x8C379A000000000000000000000000000000000000000000000000000000000 DUP2 MSTORE PUSH1 0x4 ADD PUSH2 0x962 SWAP1 PUSH2 0x1E9D JUMP JUMPDEST PUSH1 0x40 MLOAD DUP1 SWAP2 SUB SWAP1 REVERT JUMPDEST PUSH1 0x40 MLOAD DUP1 PUSH1 0x40 ADD PUSH1 0x40 MSTORE DUP1 PUSH1 0x9 DUP2 MSTORE PUSH1 0x20 ADD PUSH32 0x6920617070726F76650000000000000000000000000000000000000000000000 DUP2 MSTORE POP DUP1 MLOAD SWAP1 PUSH1 0x20 ADD KECCAK256 DUP3 DUP1 MLOAD SWAP1 PUSH1 0x20 ADD KECCAK256 SUB PUSH2 0xBD0 JUMPI PUSH1 0x1 PUSH1 0x9 PUSH1 0x0 CALLER PUSH20 0xFFFFFFFFFFFFFFFFFFFFFFFFFFFFFFFFFFFFFFFF AND PUSH20 0xFFFFFFFFFFFFFFFFFFFFFFFFFFFFFFFFFFFFFFFF AND DUP2 MSTORE PUSH1 0x20 ADD SWAP1 DUP2 MSTORE PUSH1 0x20 ADD PUSH1 0x0 KECCAK256 PUSH1 0x0 ADD PUSH1 0x0 PUSH2 0x100 EXP DUP2 SLOAD DUP2 PUSH1 0xFF MUL NOT AND SWAP1 DUP4 ISZERO ISZERO MUL OR SWAP1 SSTORE POP PUSH1 0x1 PUSH1 0x9 PUSH1 0x0 CALLER PUSH20 0xFFFFFFFFFFFFFFFFFFFFFFFFFFFFFFFFFFFFFFFF AND PUSH20 0xFFFFFFFFFFFFFFFFFFFFFFFFFFFFFFFFFFFFFFFF AND DUP2 MSTORE PUSH1 0x20 ADD SWAP1 DUP2 MSTORE PUSH1 0x20 ADD PUSH1 0x0 KECCAK256 PUSH1 0x0 ADD PUSH1 0x15 PUSH2 0x100 EXP DUP2 SLOAD DUP2 PUSH1 0xFF MUL NOT AND SWAP1 DUP4 ISZERO ISZERO MUL OR SWAP1 SSTORE POP PUSH1 0x1 PUSH1 0x6 PUSH1 0x0 DUP3 DUP3 SLOAD PUSH2 0xA7E SWAP2 SWAP1 PUSH2 0x1EEC JUMP JUMPDEST SWAP3 POP POP DUP2 SWAP1 SSTORE POP PUSH1 0x1 PUSH1 0xA PUSH1 0x0 ADD PUSH1 0x0 DUP3 DUP3 SLOAD PUSH2 0xA9B SWAP2 SWAP1 PUSH2 0x1EEC JUMP JUMPDEST SWAP3 POP POP DUP2 SWAP1 SSTORE POP PUSH1 0x7 PUSH1 0x9 PUSH1 0x0 CALLER PUSH20 0xFFFFFFFFFFFFFFFFFFFFFFFFFFFFFFFFFFFFFFFF AND PUSH20 0xFFFFFFFFFFFFFFFFFFFFFFFFFFFFFFFFFFFFFFFF AND DUP2 MSTORE PUSH1 0x20 ADD SWAP1 DUP2 MSTORE PUSH1 0x20 ADD PUSH1 0x0 KECCAK256 SWAP1 DUP1 PUSH1 0x1 DUP2 SLOAD ADD DUP1 DUP3 SSTORE DUP1 SWAP2 POP POP PUSH1 0x1 SWAP1 SUB SWAP1 PUSH1 0x0 MSTORE PUSH1 0x20 PUSH1 0x0 KECCAK256 ADD PUSH1 0x0 SWAP1 SWAP2 SWAP1 SWAP2 SWAP1 SWAP2 POP PUSH1 0x0 DUP3 ADD PUSH1 0x0 SWAP1 SLOAD SWAP1 PUSH2 0x100 EXP SWAP1 DIV PUSH1 0xFF AND DUP2 PUSH1 0x0 ADD PUSH1 0x0 PUSH2 0x100 EXP DUP2 SLOAD DUP2 PUSH1 0xFF MUL NOT AND SWAP1 DUP4 ISZERO ISZERO MUL OR SWAP1 SSTORE POP PUSH1 0x0 DUP3 ADD PUSH1 0x1 SWAP1 SLOAD SWAP1 PUSH2 0x100 EXP SWAP1 DIV PUSH20 0xFFFFFFFFFFFFFFFFFFFFFFFFFFFFFFFFFFFFFFFF AND DUP2 PUSH1 0x0 ADD PUSH1 0x1 PUSH2 0x100 EXP DUP2 SLOAD DUP2 PUSH20 0xFFFFFFFFFFFFFFFFFFFFFFFFFFFFFFFFFFFFFFFF MUL NOT AND SWAP1 DUP4 PUSH20 0xFFFFFFFFFFFFFFFFFFFFFFFFFFFFFFFFFFFFFFFF AND MUL OR SWAP1 SSTORE POP PUSH1 0x0 DUP3 ADD PUSH1 0x15 SWAP1 SLOAD SWAP1 PUSH2 0x100 EXP SWAP1 DIV PUSH1 0xFF AND DUP2 PUSH1 0x0 ADD PUSH1 0x15 PUSH2 0x100 EXP DUP2 SLOAD DUP2 PUSH1 0xFF MUL NOT AND SWAP1 DUP4 ISZERO ISZERO MUL OR SWAP1 SSTORE POP POP POP PUSH2 0xDBD JUMP JUMPDEST PUSH1 0x40 MLOAD DUP1 PUSH1 0x40 ADD PUSH1 0x40 MSTORE DUP1 PUSH1 0xC DUP2 MSTORE PUSH1 0x20 ADD PUSH32 0x6920646973617070726F76650000000000000000000000000000000000000000 DUP2 MSTORE POP DUP1 MLOAD SWAP1 PUSH1 0x20 ADD KECCAK256 DUP3 DUP1 MLOAD SWAP1 PUSH1 0x20 ADD KECCAK256 SUB PUSH2 0xDBC JUMPI PUSH1 0x1 PUSH1 0x9 PUSH1 0x0 CALLER PUSH20 0xFFFFFFFFFFFFFFFFFFFFFFFFFFFFFFFFFFFFFFFF AND PUSH20 0xFFFFFFFFFFFFFFFFFFFFFFFFFFFFFFFFFFFFFFFF AND DUP2 MSTORE PUSH1 0x20 ADD SWAP1 DUP2 MSTORE PUSH1 0x20 ADD PUSH1 0x0 KECCAK256 PUSH1 0x0 ADD PUSH1 0x0 PUSH2 0x100 EXP DUP2 SLOAD DUP2 PUSH1 0xFF MUL NOT AND SWAP1 DUP4 ISZERO ISZERO MUL OR SWAP1 SSTORE POP PUSH1 0x1 PUSH1 0xA PUSH1 0x0 ADD PUSH1 0x0 DUP3 DUP3 SLOAD PUSH2 0xC8B SWAP2 SWAP1 PUSH2 0x1EEC JUMP JUMPDEST SWAP3 POP POP DUP2 SWAP1 SSTORE POP PUSH1 0x7 PUSH1 0x9 PUSH1 0x0 CALLER PUSH20 0xFFFFFFFFFFFFFFFFFFFFFFFFFFFFFFFFFFFFFFFF AND PUSH20 0xFFFFFFFFFFFFFFFFFFFFFFFFFFFFFFFFFFFFFFFF AND DUP2 MSTORE PUSH1 0x20 ADD SWAP1 DUP2 MSTORE PUSH1 0x20 ADD PUSH1 0x0 KECCAK256 SWAP1 DUP1 PUSH1 0x1 DUP2 SLOAD ADD DUP1 DUP3 SSTORE DUP1 SWAP2 POP POP PUSH1 0x1 SWAP1 SUB SWAP1 PUSH1 0x0 MSTORE PUSH1 0x20 PUSH1 0x0 KECCAK256 ADD PUSH1 0x0 SWAP1 SWAP2 SWAP1 SWAP2 SWAP1 SWAP2 POP PUSH1 0x0 DUP3 ADD PUSH1 0x0 SWAP1 SLOAD SWAP1 PUSH2 0x100 EXP SWAP1 DIV PUSH1 0xFF AND DUP2 PUSH1 0x0 ADD PUSH1 0x0 PUSH2 0x100 EXP DUP2 SLOAD DUP2 PUSH1 0xFF MUL NOT AND SWAP1 DUP4 ISZERO ISZERO MUL OR SWAP1 SSTORE POP PUSH1 0x0 DUP3 ADD PUSH1 0x1 SWAP1 SLOAD SWAP1 PUSH2 0x100 EXP SWAP1 DIV PUSH20 0xFFFFFFFFFFFFFFFFFFFFFFFFFFFFFFFFFFFFFFFF AND DUP2 PUSH1 0x0 ADD PUSH1 0x1 PUSH2 0x100 EXP DUP2 SLOAD DUP2 PUSH20 0xFFFFFFFFFFFFFFFFFFFFFFFFFFFFFFFFFFFFFFFF MUL NOT AND SWAP1 DUP4 PUSH20 0xFFFFFFFFFFFFFFFFFFFFFFFFFFFFFFFFFFFFFFFF AND MUL OR SWAP1 SSTORE POP PUSH1 0x0 DUP3 ADD PUSH1 0x15 SWAP1 SLOAD SWAP1 PUSH2 0x100 EXP SWAP1 DIV PUSH1 0xFF AND DUP2 PUSH1 0x0 ADD PUSH1 0x15 PUSH2 0x100 EXP DUP2 SLOAD DUP2 PUSH1 0xFF MUL NOT AND SWAP1 DUP4 ISZERO ISZERO MUL OR SWAP1 SSTORE POP POP POP JUMPDEST JUMPDEST POP POP JUMP JUMPDEST PUSH1 0x3 PUSH1 0x0 SWAP1 SLOAD SWAP1 PUSH2 0x100 EXP SWAP1 DIV PUSH20 0xFFFFFFFFFFFFFFFFFFFFFFFFFFFFFFFFFFFFFFFF AND DUP2 JUMP JUMPDEST PUSH1 0x5 SLOAD DUP2 JUMP JUMPDEST PUSH1 0x6 SLOAD DUP2 JUMP JUMPDEST PUSH1 0xA DUP1 PUSH1 0x0 ADD SLOAD SWAP1 DUP1 PUSH1 0x1 ADD DUP1 SLOAD PUSH2 0xE0A SWAP1 PUSH2 0x1D48 JUMP JUMPDEST DUP1 PUSH1 0x1F ADD PUSH1 0x20 DUP1 SWAP2 DIV MUL PUSH1 0x20 ADD PUSH1 0x40 MLOAD SWAP1 DUP2 ADD PUSH1 0x40 MSTORE DUP1 SWAP3 SWAP2 SWAP1 DUP2 DUP2 MSTORE PUSH1 0x20 ADD DUP3 DUP1 SLOAD PUSH2 0xE36 SWAP1 PUSH2 0x1D48 JUMP JUMPDEST DUP1 ISZERO PUSH2 0xE83 JUMPI DUP1 PUSH1 0x1F LT PUSH2 0xE58 JUMPI PUSH2 0x100 DUP1 DUP4 SLOAD DIV MUL DUP4 MSTORE SWAP2 PUSH1 0x20 ADD SWAP2 PUSH2 0xE83 JUMP JUMPDEST DUP3 ADD SWAP2 SWAP1 PUSH1 0x0 MSTORE PUSH1 0x20 PUSH1 0x0 KECCAK256 SWAP1 JUMPDEST DUP2 SLOAD DUP2 MSTORE SWAP1 PUSH1 0x1 ADD SWAP1 PUSH1 0x20 ADD DUP1 DUP4 GT PUSH2 0xE66 JUMPI DUP3 SWAP1 SUB PUSH1 0x1F AND DUP3 ADD SWAP2 JUMPDEST POP POP POP POP POP SWAP1 POP DUP3 JUMP JUMPDEST PUSH1 0x0 PUSH1 0x9 PUSH1 0x0 DUP4 PUSH20 0xFFFFFFFFFFFFFFFFFFFFFFFFFFFFFFFFFFFFFFFF AND PUSH20 0xFFFFFFFFFFFFFFFFFFFFFFFFFFFFFFFFFFFFFFFF AND DUP2 MSTORE PUSH1 0x20 ADD SWAP1 DUP2 MSTORE PUSH1 0x20 ADD PUSH1 0x0 KECCAK256 PUSH1 0x0 ADD PUSH1 0x15 SWAP1 SLOAD SWAP1 PUSH2 0x100 EXP SWAP1 DIV PUSH1 0xFF AND SWAP1 POP SWAP2 SWAP1 POP JUMP JUMPDEST PUSH1 0x1 SLOAD TIMESTAMP LT ISZERO PUSH2 0xF2B JUMPI PUSH1 0x40 MLOAD PUSH32 0x8C379A000000000000000000000000000000000000000000000000000000000 DUP2 MSTORE PUSH1 0x4 ADD PUSH2 0xF22 SWAP1 PUSH2 0x1F8E JUMP JUMPDEST PUSH1 0x40 MLOAD DUP1 SWAP2 SUB SWAP1 REVERT JUMPDEST PUSH1 0x64 PUSH1 0x8 DUP1 SLOAD SWAP1 POP PUSH1 0x6 SLOAD PUSH2 0xF40 SWAP2 SWAP1 PUSH2 0x1FDD JUMP JUMPDEST PUSH2 0xF4A SWAP2 SWAP1 PUSH2 0x200E JUMP JUMPDEST PUSH1 0x5 DUP2 SWAP1 SSTORE POP PUSH1 0x4 SLOAD PUSH1 0x5 SLOAD LT PUSH2 0xFA1 JUMPI PUSH1 0x40 MLOAD DUP1 PUSH1 0x40 ADD PUSH1 0x40 MSTORE DUP1 PUSH1 0x8 DUP2 MSTORE PUSH1 0x20 ADD PUSH32 0x4163636570746564000000000000000000000000000000000000000000000000 DUP2 MSTORE POP PUSH1 0x2 SWAP1 DUP2 PUSH2 0xF9F SWAP2 SWAP1 PUSH2 0x2214 JUMP JUMPDEST POP JUMPDEST PUSH1 0x0 JUMPDEST PUSH1 0x8 DUP1 SLOAD SWAP1 POP DUP2 PUSH1 0xFF AND LT ISZERO PUSH2 0x11CE JUMPI PUSH1 0x0 ISZERO ISZERO PUSH1 0x9 PUSH1 0x0 PUSH1 0x8 DUP5 PUSH1 0xFF AND DUP2 SLOAD DUP2 LT PUSH2 0xFD3 JUMPI PUSH2 0xFD2 PUSH2 0x22E6 JUMP JUMPDEST JUMPDEST SWAP1 PUSH1 0x0 MSTORE PUSH1 0x20 PUSH1 0x0 KECCAK256 ADD PUSH1 0x0 SWAP1 SLOAD SWAP1 PUSH2 0x100 EXP SWAP1 DIV PUSH20 0xFFFFFFFFFFFFFFFFFFFFFFFFFFFFFFFFFFFFFFFF AND PUSH20 0xFFFFFFFFFFFFFFFFFFFFFFFFFFFFFFFFFFFFFFFF AND PUSH20 0xFFFFFFFFFFFFFFFFFFFFFFFFFFFFFFFFFFFFFFFF AND DUP2 MSTORE PUSH1 0x20 ADD SWAP1 DUP2 MSTORE PUSH1 0x20 ADD PUSH1 0x0 KECCAK256 PUSH1 0x0 ADD PUSH1 0x0 SWAP1 SLOAD SWAP1 PUSH2 0x100 EXP SWAP1 DIV PUSH1 0xFF AND ISZERO ISZERO SUB PUSH2 0x11BB JUMPI PUSH1 0x7 PUSH1 0x9 PUSH1 0x0 PUSH1 0x8 DUP5 PUSH1 0xFF AND DUP2 SLOAD DUP2 LT PUSH2 0x106D JUMPI PUSH2 0x106C PUSH2 0x22E6 JUMP JUMPDEST JUMPDEST SWAP1 PUSH1 0x0 MSTORE PUSH1 0x20 PUSH1 0x0 KECCAK256 ADD PUSH1 0x0 SWAP1 SLOAD SWAP1 PUSH2 0x100 EXP SWAP1 DIV PUSH20 0xFFFFFFFFFFFFFFFFFFFFFFFFFFFFFFFFFFFFFFFF AND PUSH20 0xFFFFFFFFFFFFFFFFFFFFFFFFFFFFFFFFFFFFFFFF AND PUSH20 0xFFFFFFFFFFFFFFFFFFFFFFFFFFFFFFFFFFFFFFFF AND DUP2 MSTORE PUSH1 0x20 ADD SWAP1 DUP2 MSTORE PUSH1 0x20 ADD PUSH1 0x0 KECCAK256 SWAP1 DUP1 PUSH1 0x1 DUP2 SLOAD ADD DUP1 DUP3 SSTORE DUP1 SWAP2 POP POP PUSH1 0x1 SWAP1 SUB SWAP1 PUSH1 0x0 MSTORE PUSH1 0x20 PUSH1 0x0 KECCAK256 ADD PUSH1 0x0 SWAP1 SWAP2 SWAP1 SWAP2 SWAP1 SWAP2 POP PUSH1 0x0 DUP3 ADD PUSH1 0x0 SWAP1 SLOAD SWAP1 PUSH2 0x100 EXP SWAP1 DIV PUSH1 0xFF AND DUP2 PUSH1 0x0 ADD PUSH1 0x0 PUSH2 0x100 EXP DUP2 SLOAD DUP2 PUSH1 0xFF MUL NOT AND SWAP1 DUP4 ISZERO ISZERO MUL OR SWAP1 SSTORE POP PUSH1 0x0 DUP3 ADD PUSH1 0x1 SWAP1 SLOAD SWAP1 PUSH2 0x100 EXP SWAP1 DIV PUSH20 0xFFFFFFFFFFFFFFFFFFFFFFFFFFFFFFFFFFFFFFFF AND DUP2 PUSH1 0x0 ADD PUSH1 0x1 PUSH2 0x100 EXP DUP2 SLOAD DUP2 PUSH20 0xFFFFFFFFFFFFFFFFFFFFFFFFFFFFFFFFFFFFFFFF MUL NOT AND SWAP1 DUP4 PUSH20 0xFFFFFFFFFFFFFFFFFFFFFFFFFFFFFFFFFFFFFFFF AND MUL OR SWAP1 SSTORE POP PUSH1 0x0 DUP3 ADD PUSH1 0x15 SWAP1 SLOAD SWAP1 PUSH2 0x100 EXP SWAP1 DIV PUSH1 0xFF AND DUP2 PUSH1 0x0 ADD PUSH1 0x15 PUSH2 0x100 EXP DUP2 SLOAD DUP2 PUSH1 0xFF MUL NOT AND SWAP1 DUP4 ISZERO ISZERO MUL OR SWAP1 SSTORE POP POP POP JUMPDEST DUP1 DUP1 PUSH2 0x11C6 SWAP1 PUSH2 0x2322 JUMP JUMPDEST SWAP2 POP POP PUSH2 0xFA4 JUMP JUMPDEST POP JUMP JUMPDEST PUSH1 0x9 PUSH1 0x20 MSTORE DUP1 PUSH1 0x0 MSTORE PUSH1 0x40 PUSH1 0x0 KECCAK256 PUSH1 0x0 SWAP2 POP SWAP1 POP DUP1 PUSH1 0x0 ADD PUSH1 0x0 SWAP1 SLOAD SWAP1 PUSH2 0x100 EXP SWAP1 DIV PUSH1 0xFF AND SWAP1 DUP1 PUSH1 0x0 ADD PUSH1 0x1 SWAP1 SLOAD SWAP1 PUSH2 0x100 EXP SWAP1 DIV PUSH20 0xFFFFFFFFFFFFFFFFFFFFFFFFFFFFFFFFFFFFFFFF AND SWAP1 DUP1 PUSH1 0x0 ADD PUSH1 0x15 SWAP1 SLOAD SWAP1 PUSH2 0x100 EXP SWAP1 DIV PUSH1 0xFF AND SWAP1 POP DUP4 JUMP JUMPDEST PUSH1 0x0 PUSH1 0x4 SLOAD SWAP1 POP SWAP1 JUMP JUMPDEST PUSH1 0x4 SLOAD DUP2 JUMP JUMPDEST PUSH1 0x7 DUP2 DUP2 SLOAD DUP2 LT PUSH2 0x1255 JUMPI PUSH1 0x0 DUP1 REVERT JUMPDEST SWAP1 PUSH1 0x0 MSTORE PUSH1 0x20 PUSH1 0x0 KECCAK256 ADD PUSH1 0x0 SWAP2 POP SWAP1 POP DUP1 PUSH1 0x0 ADD PUSH1 0x0 SWAP1 SLOAD SWAP1 PUSH2 0x100 EXP SWAP1 DIV PUSH1 0xFF AND SWAP1 DUP1 PUSH1 0x0 ADD PUSH1 0x1 SWAP1 SLOAD SWAP1 PUSH2 0x100 EXP SWAP1 DIV PUSH20 0xFFFFFFFFFFFFFFFFFFFFFFFFFFFFFFFFFFFFFFFF AND SWAP1 DUP1 PUSH1 0x0 ADD PUSH1 0x15 SWAP1 SLOAD SWAP1 PUSH2 0x100 EXP SWAP1 DIV PUSH1 0xFF AND SWAP1 POP DUP4 JUMP JUMPDEST PUSH1 0x0 DUP1 SLOAD SWAP1 PUSH2 0x100 EXP SWAP1 DIV PUSH20 0xFFFFFFFFFFFFFFFFFFFFFFFFFFFFFFFFFFFFFFFF AND DUP2 JUMP JUMPDEST PUSH1 0x60 PUSH2 0x12E3 PUSH2 0x1552 JUMP JUMPDEST PUSH1 0x60 PUSH1 0x1 SLOAD TIMESTAMP LT ISZERO PUSH2 0x132A JUMPI PUSH1 0x40 MLOAD PUSH32 0x8C379A000000000000000000000000000000000000000000000000000000000 DUP2 MSTORE PUSH1 0x4 ADD PUSH2 0x1321 SWAP1 PUSH2 0x1F8E JUMP JUMPDEST PUSH1 0x40 MLOAD DUP1 SWAP2 SUB SWAP1 REVERT JUMPDEST PUSH1 0x2 PUSH1 0xA PUSH1 0x7 DUP3 DUP1 SLOAD PUSH2 0x133C SWAP1 PUSH2 0x1D48 JUMP JUMPDEST DUP1 PUSH1 0x1F ADD PUSH1 0x20 DUP1 SWAP2 DIV MUL PUSH1 0x20 ADD PUSH1 0x40 MLOAD SWAP1 DUP2 ADD PUSH1 0x40 MSTORE DUP1 SWAP3 SWAP2 SWAP1 DUP2 DUP2 MSTORE PUSH1 0x20 ADD DUP3 DUP1 SLOAD PUSH2 0x1368 SWAP1 PUSH2 0x1D48 JUMP JUMPDEST DUP1 ISZERO PUSH2 0x13B5 JUMPI DUP1 PUSH1 0x1F LT PUSH2 0x138A JUMPI PUSH2 0x100 DUP1 DUP4 SLOAD DIV MUL DUP4 MSTORE SWAP2 PUSH1 0x20 ADD SWAP2 PUSH2 0x13B5 JUMP JUMPDEST DUP3 ADD SWAP2 SWAP1 PUSH1 0x0 MSTORE PUSH1 0x20 PUSH1 0x0 KECCAK256 SWAP1 JUMPDEST DUP2 SLOAD DUP2 MSTORE SWAP1 PUSH1 0x1 ADD SWAP1 PUSH1 0x20 ADD DUP1 DUP4 GT PUSH2 0x1398 JUMPI DUP3 SWAP1 SUB PUSH1 0x1F AND DUP3 ADD SWAP2 JUMPDEST POP POP POP POP POP SWAP3 POP DUP2 PUSH1 0x40 MLOAD DUP1 PUSH1 0x40 ADD PUSH1 0x40 MSTORE SWAP1 DUP2 PUSH1 0x0 DUP3 ADD SLOAD DUP2 MSTORE PUSH1 0x20 ADD PUSH1 0x1 DUP3 ADD DUP1 SLOAD PUSH2 0x13E2 SWAP1 PUSH2 0x1D48 JUMP JUMPDEST DUP1 PUSH1 0x1F ADD PUSH1 0x20 DUP1 SWAP2 DIV MUL PUSH1 0x20 ADD PUSH1 0x40 MLOAD SWAP1 DUP2 ADD PUSH1 0x40 MSTORE DUP1 SWAP3 SWAP2 SWAP1 DUP2 DUP2 MSTORE PUSH1 0x20 ADD DUP3 DUP1 SLOAD PUSH2 0x140E SWAP1 PUSH2 0x1D48 JUMP JUMPDEST DUP1 ISZERO PUSH2 0x145B JUMPI DUP1 PUSH1 0x1F LT PUSH2 0x1430 JUMPI PUSH2 0x100 DUP1 DUP4 SLOAD DIV MUL DUP4 MSTORE SWAP2 PUSH1 0x20 ADD SWAP2 PUSH2 0x145B JUMP JUMPDEST DUP3 ADD SWAP2 SWAP1 PUSH1 0x0 MSTORE PUSH1 0x20 PUSH1 0x0 KECCAK256 SWAP1 JUMPDEST DUP2 SLOAD DUP2 MSTORE SWAP1 PUSH1 0x1 ADD SWAP1 PUSH1 0x20 ADD DUP1 DUP4 GT PUSH2 0x143E JUMPI DUP3 SWAP1 SUB PUSH1 0x1F AND DUP3 ADD SWAP2 JUMPDEST POP POP POP POP POP DUP2 MSTORE POP POP SWAP2 POP DUP1 DUP1 SLOAD DUP1 PUSH1 0x20 MUL PUSH1 0x20 ADD PUSH1 0x40 MLOAD SWAP1 DUP2 ADD PUSH1 0x40 MSTORE DUP1 SWAP3 SWAP2 SWAP1 DUP2 DUP2 MSTORE PUSH1 0x20 ADD PUSH1 0x0 SWAP1 JUMPDEST DUP3 DUP3 LT ISZERO PUSH2 0x1541 JUMPI DUP4 DUP3 SWAP1 PUSH1 0x0 MSTORE PUSH1 0x20 PUSH1 0x0 KECCAK256 ADD PUSH1 0x40 MLOAD DUP1 PUSH1 0x60 ADD PUSH1 0x40 MSTORE SWAP1 DUP2 PUSH1 0x0 DUP3 ADD PUSH1 0x0 SWAP1 SLOAD SWAP1 PUSH2 0x100 EXP SWAP1 DIV PUSH1 0xFF AND ISZERO ISZERO ISZERO ISZERO DUP2 MSTORE PUSH1 0x20 ADD PUSH1 0x0 DUP3 ADD PUSH1 0x1 SWAP1 SLOAD SWAP1 PUSH2 0x100 EXP SWAP1 DIV PUSH20 0xFFFFFFFFFFFFFFFFFFFFFFFFFFFFFFFFFFFFFFFF AND PUSH20 0xFFFFFFFFFFFFFFFFFFFFFFFFFFFFFFFFFFFFFFFF AND PUSH20 0xFFFFFFFFFFFFFFFFFFFFFFFFFFFFFFFFFFFFFFFF AND DUP2 MSTORE PUSH1 0x20 ADD PUSH1 0x0 DUP3 ADD PUSH1 0x15 SWAP1 SLOAD SWAP1 PUSH2 0x100 EXP SWAP1 DIV PUSH1 0xFF AND ISZERO ISZERO ISZERO ISZERO DUP2 MSTORE POP POP DUP2 MSTORE PUSH1 0x20 ADD SWAP1 PUSH1 0x1 ADD SWAP1 PUSH2 0x1487 JUMP JUMPDEST POP POP POP POP SWAP1 POP SWAP3 POP SWAP3 POP SWAP3 POP SWAP1 SWAP2 SWAP3 JUMP JUMPDEST PUSH1 0x40 MLOAD DUP1 PUSH1 0x40 ADD PUSH1 0x40 MSTORE DUP1 PUSH1 0x0 DUP2 MSTORE PUSH1 0x20 ADD PUSH1 0x60 DUP2 MSTORE POP SWAP1 JUMP JUMPDEST PUSH1 0x0 PUSH1 0x40 MLOAD SWAP1 POP SWAP1 JUMP JUMPDEST PUSH1 0x0 DUP1 REVERT JUMPDEST PUSH1 0x0 DUP1 REVERT JUMPDEST PUSH1 0x0 DUP2 SWAP1 POP SWAP2 SWAP1 POP JUMP JUMPDEST PUSH2 0x1593 DUP2 PUSH2 0x1580 JUMP JUMPDEST DUP2 EQ PUSH2 0x159E JUMPI PUSH1 0x0 DUP1 REVERT JUMPDEST POP JUMP JUMPDEST PUSH1 0x0 DUP2 CALLDATALOAD SWAP1 POP PUSH2 0x15B0 DUP2 PUSH2 0x158A JUMP JUMPDEST SWAP3 SWAP2 POP POP JUMP JUMPDEST PUSH1 0x0 PUSH1 0x20 DUP3 DUP5 SUB SLT ISZERO PUSH2 0x15CC JUMPI PUSH2 0x15CB PUSH2 0x1576 JUMP JUMPDEST JUMPDEST PUSH1 0x0 PUSH2 0x15DA DUP5 DUP3 DUP6 ADD PUSH2 0x15A1 JUMP JUMPDEST SWAP2 POP POP SWAP3 SWAP2 POP POP JUMP JUMPDEST PUSH1 0x0 PUSH20 0xFFFFFFFFFFFFFFFFFFFFFFFFFFFFFFFFFFFFFFFF DUP3 AND SWAP1 POP SWAP2 SWAP1 POP JUMP JUMPDEST PUSH1 0x0 PUSH2 0x160E DUP3 PUSH2 0x15E3 JUMP JUMPDEST SWAP1 POP SWAP2 SWAP1 POP JUMP JUMPDEST PUSH2 0x161E DUP2 PUSH2 0x1603 JUMP JUMPDEST DUP3 MSTORE POP POP JUMP JUMPDEST PUSH1 0x0 PUSH1 0x20 DUP3 ADD SWAP1 POP PUSH2 0x1639 PUSH1 0x0 DUP4 ADD DUP5 PUSH2 0x1615 JUMP JUMPDEST SWAP3 SWAP2 POP POP JUMP JUMPDEST PUSH2 0x1648 DUP2 PUSH2 0x1603 JUMP JUMPDEST DUP2 EQ PUSH2 0x1653 JUMPI PUSH1 0x0 DUP1 REVERT JUMPDEST POP JUMP JUMPDEST PUSH1 0x0 DUP2 CALLDATALOAD SWAP1 POP PUSH2 0x1665 DUP2 PUSH2 0x163F JUMP JUMPDEST SWAP3 SWAP2 POP POP JUMP JUMPDEST PUSH1 0x0 PUSH1 0x20 DUP3 DUP5 SUB SLT ISZERO PUSH2 0x1681 JUMPI PUSH2 0x1680 PUSH2 0x1576 JUMP JUMPDEST JUMPDEST PUSH1 0x0 PUSH2 0x168F DUP5 DUP3 DUP6 ADD PUSH2 0x1656 JUMP JUMPDEST SWAP2 POP POP SWAP3 SWAP2 POP POP JUMP JUMPDEST PUSH1 0x0 DUP2 MLOAD SWAP1 POP SWAP2 SWAP1 POP JUMP JUMPDEST PUSH1 0x0 DUP3 DUP3 MSTORE PUSH1 0x20 DUP3 ADD SWAP1 POP SWAP3 SWAP2 POP POP JUMP JUMPDEST PUSH1 0x0 JUMPDEST DUP4 DUP2 LT ISZERO PUSH2 0x16D2 JUMPI DUP1 DUP3 ADD MLOAD DUP2 DUP5 ADD MSTORE PUSH1 0x20 DUP2 ADD SWAP1 POP PUSH2 0x16B7 JUMP JUMPDEST DUP4 DUP2 GT ISZERO PUSH2 0x16E1 JUMPI PUSH1 0x0 DUP5 DUP5 ADD MSTORE JUMPDEST POP POP POP POP JUMP JUMPDEST PUSH1 0x0 PUSH1 0x1F NOT PUSH1 0x1F DUP4 ADD AND SWAP1 POP SWAP2 SWAP1 POP JUMP JUMPDEST PUSH1 0x0 PUSH2 0x1703 DUP3 PUSH2 0x1698 JUMP JUMPDEST PUSH2 0x170D DUP2 DUP6 PUSH2 0x16A3 JUMP JUMPDEST SWAP4 POP PUSH2 0x171D DUP2 DUP6 PUSH1 0x20 DUP7 ADD PUSH2 0x16B4 JUMP JUMPDEST PUSH2 0x1726 DUP2 PUSH2 0x16E7 JUMP JUMPDEST DUP5 ADD SWAP2 POP POP SWAP3 SWAP2 POP POP JUMP JUMPDEST PUSH1 0x0 PUSH1 0x20 DUP3 ADD SWAP1 POP DUP2 DUP2 SUB PUSH1 0x0 DUP4 ADD MSTORE PUSH2 0x174B DUP2 DUP5 PUSH2 0x16F8 JUMP JUMPDEST SWAP1 POP SWAP3 SWAP2 POP POP JUMP JUMPDEST PUSH1 0x0 DUP2 ISZERO ISZERO SWAP1 POP SWAP2 SWAP1 POP JUMP JUMPDEST PUSH2 0x1768 DUP2 PUSH2 0x1753 JUMP JUMPDEST DUP3 MSTORE POP POP JUMP JUMPDEST PUSH1 0x0 PUSH1 0x20 DUP3 ADD SWAP1 POP PUSH2 0x1783 PUSH1 0x0 DUP4 ADD DUP5 PUSH2 0x175F JUMP JUMPDEST SWAP3 SWAP2 POP POP JUMP JUMPDEST PUSH1 0x0 DUP1 REVERT JUMPDEST PUSH1 0x0 DUP1 REVERT JUMPDEST PUSH32 0x4E487B7100000000000000000000000000000000000000000000000000000000 PUSH1 0x0 MSTORE PUSH1 0x41 PUSH1 0x4 MSTORE PUSH1 0x24 PUSH1 0x0 REVERT JUMPDEST PUSH2 0x17CB DUP3 PUSH2 0x16E7 JUMP JUMPDEST DUP2 ADD DUP2 DUP2 LT PUSH8 0xFFFFFFFFFFFFFFFF DUP3 GT OR ISZERO PUSH2 0x17EA JUMPI PUSH2 0x17E9 PUSH2 0x1793 JUMP JUMPDEST JUMPDEST DUP1 PUSH1 0x40 MSTORE POP POP POP JUMP JUMPDEST PUSH1 0x0 PUSH2 0x17FD PUSH2 0x156C JUMP JUMPDEST SWAP1 POP PUSH2 0x1809 DUP3 DUP3 PUSH2 0x17C2 JUMP JUMPDEST SWAP2 SWAP1 POP JUMP JUMPDEST PUSH1 0x0 PUSH8 0xFFFFFFFFFFFFFFFF DUP3 GT ISZERO PUSH2 0x1829 JUMPI PUSH2 0x1828 PUSH2 0x1793 JUMP JUMPDEST JUMPDEST PUSH2 0x1832 DUP3 PUSH2 0x16E7 JUMP JUMPDEST SWAP1 POP PUSH1 0x20 DUP2 ADD SWAP1 POP SWAP2 SWAP1 POP JUMP JUMPDEST DUP3 DUP2 DUP4 CALLDATACOPY PUSH1 0x0 DUP4 DUP4 ADD MSTORE POP POP POP JUMP JUMPDEST PUSH1 0x0 PUSH2 0x1861 PUSH2 0x185C DUP5 PUSH2 0x180E JUMP JUMPDEST PUSH2 0x17F3 JUMP JUMPDEST SWAP1 POP DUP3 DUP2 MSTORE PUSH1 0x20 DUP2 ADD DUP5 DUP5 DUP5 ADD GT ISZERO PUSH2 0x187D JUMPI PUSH2 0x187C PUSH2 0x178E JUMP JUMPDEST JUMPDEST PUSH2 0x1888 DUP5 DUP3 DUP6 PUSH2 0x183F JUMP JUMPDEST POP SWAP4 SWAP3 POP POP POP JUMP JUMPDEST PUSH1 0x0 DUP3 PUSH1 0x1F DUP4 ADD SLT PUSH2 0x18A5 JUMPI PUSH2 0x18A4 PUSH2 0x1789 JUMP JUMPDEST JUMPDEST DUP2 CALLDATALOAD PUSH2 0x18B5 DUP5 DUP3 PUSH1 0x20 DUP7 ADD PUSH2 0x184E JUMP JUMPDEST SWAP2 POP POP SWAP3 SWAP2 POP POP JUMP JUMPDEST PUSH1 0x0 PUSH1 0x20 DUP3 DUP5 SUB SLT ISZERO PUSH2 0x18D4 JUMPI PUSH2 0x18D3 PUSH2 0x1576 JUMP JUMPDEST JUMPDEST PUSH1 0x0 DUP3 ADD CALLDATALOAD PUSH8 0xFFFFFFFFFFFFFFFF DUP2 GT ISZERO PUSH2 0x18F2 JUMPI PUSH2 0x18F1 PUSH2 0x157B JUMP JUMPDEST JUMPDEST PUSH2 0x18FE DUP5 DUP3 DUP6 ADD PUSH2 0x1890 JUMP JUMPDEST SWAP2 POP POP SWAP3 SWAP2 POP POP JUMP JUMPDEST PUSH2 0x1910 DUP2 PUSH2 0x1580 JUMP JUMPDEST DUP3 MSTORE POP POP JUMP JUMPDEST PUSH1 0x0 PUSH1 0x20 DUP3 ADD SWAP1 POP PUSH2 0x192B PUSH1 0x0 DUP4 ADD DUP5 PUSH2 0x1907 JUMP JUMPDEST SWAP3 SWAP2 POP POP JUMP JUMPDEST PUSH1 0x0 PUSH1 0x40 DUP3 ADD SWAP1 POP PUSH2 0x1946 PUSH1 0x0 DUP4 ADD DUP6 PUSH2 0x1907 JUMP JUMPDEST DUP2 DUP2 SUB PUSH1 0x20 DUP4 ADD MSTORE PUSH2 0x1958 DUP2 DUP5 PUSH2 0x16F8 JUMP JUMPDEST SWAP1 POP SWAP4 SWAP3 POP POP POP JUMP JUMPDEST PUSH1 0x0 PUSH1 0x60 DUP3 ADD SWAP1 POP PUSH2 0x1976 PUSH1 0x0 DUP4 ADD DUP7 PUSH2 0x175F JUMP JUMPDEST PUSH2 0x1983 PUSH1 0x20 DUP4 ADD DUP6 PUSH2 0x1615 JUMP JUMPDEST PUSH2 0x1990 PUSH1 0x40 DUP4 ADD DUP5 PUSH2 0x175F JUMP JUMPDEST SWAP5 SWAP4 POP POP POP POP JUMP JUMPDEST PUSH2 0x19A1 DUP2 PUSH2 0x1580 JUMP JUMPDEST DUP3 MSTORE POP POP JUMP JUMPDEST PUSH1 0x0 DUP3 DUP3 MSTORE PUSH1 0x20 DUP3 ADD SWAP1 POP SWAP3 SWAP2 POP POP JUMP JUMPDEST PUSH1 0x0 PUSH2 0x19C3 DUP3 PUSH2 0x1698 JUMP JUMPDEST PUSH2 0x19CD DUP2 DUP6 PUSH2 0x19A7 JUMP JUMPDEST SWAP4 POP PUSH2 0x19DD DUP2 DUP6 PUSH1 0x20 DUP7 ADD PUSH2 0x16B4 JUMP JUMPDEST PUSH2 0x19E6 DUP2 PUSH2 0x16E7 JUMP JUMPDEST DUP5 ADD SWAP2 POP POP SWAP3 SWAP2 POP POP JUMP JUMPDEST PUSH1 0x0 PUSH1 0x40 DUP4 ADD PUSH1 0x0 DUP4 ADD MLOAD PUSH2 0x1A09 PUSH1 0x0 DUP7 ADD DUP3 PUSH2 0x1998 JUMP JUMPDEST POP PUSH1 0x20 DUP4 ADD MLOAD DUP5 DUP3 SUB PUSH1 0x20 DUP7 ADD MSTORE PUSH2 0x1A21 DUP3 DUP3 PUSH2 0x19B8 JUMP JUMPDEST SWAP2 POP POP DUP1 SWAP2 POP POP SWAP3 SWAP2 POP POP JUMP JUMPDEST PUSH1 0x0 DUP2 MLOAD SWAP1 POP SWAP2 SWAP1 POP JUMP JUMPDEST PUSH1 0x0 DUP3 DUP3 MSTORE PUSH1 0x20 DUP3 ADD SWAP1 POP SWAP3 SWAP2 POP POP JUMP JUMPDEST PUSH1 0x0 DUP2 SWAP1 POP PUSH1 0x20 DUP3 ADD SWAP1 POP SWAP2 SWAP1 POP JUMP JUMPDEST PUSH2 0x1A63 DUP2 PUSH2 0x1753 JUMP JUMPDEST DUP3 MSTORE POP POP JUMP JUMPDEST PUSH2 0x1A72 DUP2 PUSH2 0x1603 JUMP JUMPDEST DUP3 MSTORE POP POP JUMP JUMPDEST PUSH1 0x60 DUP3 ADD PUSH1 0x0 DUP3 ADD MLOAD PUSH2 0x1A8E PUSH1 0x0 DUP6 ADD DUP3 PUSH2 0x1A5A JUMP JUMPDEST POP PUSH1 0x20 DUP3 ADD MLOAD PUSH2 0x1AA1 PUSH1 0x20 DUP6 ADD DUP3 PUSH2 0x1A69 JUMP JUMPDEST POP PUSH1 0x40 DUP3 ADD MLOAD PUSH2 0x1AB4 PUSH1 0x40 DUP6 ADD DUP3 PUSH2 0x1A5A JUMP JUMPDEST POP POP POP POP JUMP JUMPDEST PUSH1 0x0 PUSH2 0x1AC6 DUP4 DUP4 PUSH2 0x1A78 JUMP JUMPDEST PUSH1 0x60 DUP4 ADD SWAP1 POP SWAP3 SWAP2 POP POP JUMP JUMPDEST PUSH1 0x0 PUSH1 0x20 DUP3 ADD SWAP1 POP SWAP2 SWAP1 POP JUMP JUMPDEST PUSH1 0x0 PUSH2 0x1AEA DUP3 PUSH2 0x1A2E JUMP JUMPDEST PUSH2 0x1AF4 DUP2 DUP6 PUSH2 0x1A39 JUMP JUMPDEST SWAP4 POP PUSH2 0x1AFF DUP4 PUSH2 0x1A4A JUMP JUMPDEST DUP1 PUSH1 0x0 JUMPDEST DUP4 DUP2 LT ISZERO PUSH2 0x1B30 JUMPI DUP2 MLOAD PUSH2 0x1B17 DUP9 DUP3 PUSH2 0x1ABA JUMP JUMPDEST SWAP8 POP PUSH2 0x1B22 DUP4 PUSH2 0x1AD2 JUMP JUMPDEST SWAP3 POP POP PUSH1 0x1 DUP2 ADD SWAP1 POP PUSH2 0x1B03 JUMP JUMPDEST POP DUP6 SWAP4 POP POP POP POP SWAP3 SWAP2 POP POP JUMP JUMPDEST PUSH1 0x0 PUSH1 0x60 DUP3 ADD SWAP1 POP DUP2 DUP2 SUB PUSH1 0x0 DUP4 ADD MSTORE PUSH2 0x1B57 DUP2 DUP7 PUSH2 0x16F8 JUMP JUMPDEST SWAP1 POP DUP2 DUP2 SUB PUSH1 0x20 DUP4 ADD MSTORE PUSH2 0x1B6B DUP2 DUP6 PUSH2 0x19F1 JUMP JUMPDEST SWAP1 POP DUP2 DUP2 SUB PUSH1 0x40 DUP4 ADD MSTORE PUSH2 0x1B7F DUP2 DUP5 PUSH2 0x1ADF JUMP JUMPDEST SWAP1 POP SWAP5 SWAP4 POP POP POP POP JUMP JUMPDEST PUSH32 0x4F6E6C7920696E69746961746F722063616E2072656769737465722061207265 PUSH1 0x0 DUP3 ADD MSTORE PUSH32 0x63697069656E742E000000000000000000000000000000000000000000000000 PUSH1 0x20 DUP3 ADD MSTORE POP JUMP JUMPDEST PUSH1 0x0 PUSH2 0x1BE5 PUSH1 0x28 DUP4 PUSH2 0x16A3 JUMP JUMPDEST SWAP2 POP PUSH2 0x1BF0 DUP3 PUSH2 0x1B89 JUMP JUMPDEST PUSH1 0x40 DUP3 ADD SWAP1 POP SWAP2 SWAP1 POP JUMP JUMPDEST PUSH1 0x0 PUSH1 0x20 DUP3 ADD SWAP1 POP DUP2 DUP2 SUB PUSH1 0x0 DUP4 ADD MSTORE PUSH2 0x1C14 DUP2 PUSH2 0x1BD8 JUMP JUMPDEST SWAP1 POP SWAP2 SWAP1 POP JUMP JUMPDEST PUSH32 0x526563697069656E7420697320616C7265616479207265676973746572656400 PUSH1 0x0 DUP3 ADD MSTORE POP JUMP JUMPDEST PUSH1 0x0 PUSH2 0x1C51 PUSH1 0x1F DUP4 PUSH2 0x16A3 JUMP JUMPDEST SWAP2 POP PUSH2 0x1C5C DUP3 PUSH2 0x1C1B JUMP JUMPDEST PUSH1 0x20 DUP3 ADD SWAP1 POP SWAP2 SWAP1 POP JUMP JUMPDEST PUSH1 0x0 PUSH1 0x20 DUP3 ADD SWAP1 POP DUP2 DUP2 SUB PUSH1 0x0 DUP4 ADD MSTORE PUSH2 0x1C80 DUP2 PUSH2 0x1C44 JUMP JUMPDEST SWAP1 POP SWAP2 SWAP1 POP JUMP JUMPDEST PUSH32 0x50726F706F73616C206861732072656163686564206974732065787069727920 PUSH1 0x0 DUP3 ADD MSTORE PUSH32 0x6461746500000000000000000000000000000000000000000000000000000000 PUSH1 0x20 DUP3 ADD MSTORE POP JUMP JUMPDEST PUSH1 0x0 PUSH2 0x1CE3 PUSH1 0x24 DUP4 PUSH2 0x16A3 JUMP JUMPDEST SWAP2 POP PUSH2 0x1CEE DUP3 PUSH2 0x1C87 JUMP JUMPDEST PUSH1 0x40 DUP3 ADD SWAP1 POP SWAP2 SWAP1 POP JUMP JUMPDEST PUSH1 0x0 PUSH1 0x20 DUP3 ADD SWAP1 POP DUP2 DUP2 SUB PUSH1 0x0 DUP4 ADD MSTORE PUSH2 0x1D12 DUP2 PUSH2 0x1CD6 JUMP JUMPDEST SWAP1 POP SWAP2 SWAP1 POP JUMP JUMPDEST PUSH32 0x4E487B7100000000000000000000000000000000000000000000000000000000 PUSH1 0x0 MSTORE PUSH1 0x22 PUSH1 0x4 MSTORE PUSH1 0x24 PUSH1 0x0 REVERT JUMPDEST PUSH1 0x0 PUSH1 0x2 DUP3 DIV SWAP1 POP PUSH1 0x1 DUP3 AND DUP1 PUSH2 0x1D60 JUMPI PUSH1 0x7F DUP3 AND SWAP2 POP JUMPDEST PUSH1 0x20 DUP3 LT DUP2 SUB PUSH2 0x1D73 JUMPI PUSH2 0x1D72 PUSH2 0x1D19 JUMP JUMPDEST JUMPDEST POP SWAP2 SWAP1 POP JUMP JUMPDEST PUSH32 0x566F74696E672068617320657870697265640000000000000000000000000000 PUSH1 0x0 DUP3 ADD MSTORE POP JUMP JUMPDEST PUSH1 0x0 PUSH2 0x1DAF PUSH1 0x12 DUP4 PUSH2 0x16A3 JUMP JUMPDEST SWAP2 POP PUSH2 0x1DBA DUP3 PUSH2 0x1D79 JUMP JUMPDEST PUSH1 0x20 DUP3 ADD SWAP1 POP SWAP2 SWAP1 POP JUMP JUMPDEST PUSH1 0x0 PUSH1 0x20 DUP3 ADD SWAP1 POP DUP2 DUP2 SUB PUSH1 0x0 DUP4 ADD MSTORE PUSH2 0x1DDE DUP2 PUSH2 0x1DA2 JUMP JUMPDEST SWAP1 POP SWAP2 SWAP1 POP JUMP JUMPDEST PUSH32 0x596F7520617265206E6F74207265676973746572656420746F20766F74650000 PUSH1 0x0 DUP3 ADD MSTORE POP JUMP JUMPDEST PUSH1 0x0 PUSH2 0x1E1B PUSH1 0x1E DUP4 PUSH2 0x16A3 JUMP JUMPDEST SWAP2 POP PUSH2 0x1E26 DUP3 PUSH2 0x1DE5 JUMP JUMPDEST PUSH1 0x20 DUP3 ADD SWAP1 POP SWAP2 SWAP1 POP JUMP JUMPDEST PUSH1 0x0 PUSH1 0x20 DUP3 ADD SWAP1 POP DUP2 DUP2 SUB PUSH1 0x0 DUP4 ADD MSTORE PUSH2 0x1E4A DUP2 PUSH2 0x1E0E JUMP JUMPDEST SWAP1 POP SWAP2 SWAP1 POP JUMP JUMPDEST PUSH32 0x596F7520616C72656164792073656E74206120726573706F6E73652E00000000 PUSH1 0x0 DUP3 ADD MSTORE POP JUMP JUMPDEST PUSH1 0x0 PUSH2 0x1E87 PUSH1 0x1C DUP4 PUSH2 0x16A3 JUMP JUMPDEST SWAP2 POP PUSH2 0x1E92 DUP3 PUSH2 0x1E51 JUMP JUMPDEST PUSH1 0x20 DUP3 ADD SWAP1 POP SWAP2 SWAP1 POP JUMP JUMPDEST PUSH1 0x0 PUSH1 0x20 DUP3 ADD SWAP1 POP DUP2 DUP2 SUB PUSH1 0x0 DUP4 ADD MSTORE PUSH2 0x1EB6 DUP2 PUSH2 0x1E7A JUMP JUMPDEST SWAP1 POP SWAP2 SWAP1 POP JUMP JUMPDEST PUSH32 0x4E487B7100000000000000000000000000000000000000000000000000000000 PUSH1 0x0 MSTORE PUSH1 0x11 PUSH1 0x4 MSTORE PUSH1 0x24 PUSH1 0x0 REVERT JUMPDEST PUSH1 0x0 PUSH2 0x1EF7 DUP3 PUSH2 0x1580 JUMP JUMPDEST SWAP2 POP PUSH2 0x1F02 DUP4 PUSH2 0x1580 JUMP JUMPDEST SWAP3 POP DUP3 PUSH32 0xFFFFFFFFFFFFFFFFFFFFFFFFFFFFFFFFFFFFFFFFFFFFFFFFFFFFFFFFFFFFFFFF SUB DUP3 GT ISZERO PUSH2 0x1F37 JUMPI PUSH2 0x1F36 PUSH2 0x1EBD JUMP JUMPDEST JUMPDEST DUP3 DUP3 ADD SWAP1 POP SWAP3 SWAP2 POP POP JUMP JUMPDEST PUSH32 0x5665726469637420686173206E6F74206265656E207265616368656420796574 PUSH1 0x0 DUP3 ADD MSTORE POP JUMP JUMPDEST PUSH1 0x0 PUSH2 0x1F78 PUSH1 0x20 DUP4 PUSH2 0x16A3 JUMP JUMPDEST SWAP2 POP PUSH2 0x1F83 DUP3 PUSH2 0x1F42 JUMP JUMPDEST PUSH1 0x20 DUP3 ADD SWAP1 POP SWAP2 SWAP1 POP JUMP JUMPDEST PUSH1 0x0 PUSH1 0x20 DUP3 ADD SWAP1 POP DUP2 DUP2 SUB PUSH1 0x0 DUP4 ADD MSTORE PUSH2 0x1FA7 DUP2 PUSH2 0x1F6B JUMP JUMPDEST SWAP1 POP SWAP2 SWAP1 POP JUMP JUMPDEST PUSH32 0x4E487B7100000000000000000000000000000000000000000000000000000000 PUSH1 0x0 MSTORE PUSH1 0x12 PUSH1 0x4 MSTORE PUSH1 0x24 PUSH1 0x0 REVERT JUMPDEST PUSH1 0x0 PUSH2 0x1FE8 DUP3 PUSH2 0x1580 JUMP JUMPDEST SWAP2 POP PUSH2 0x1FF3 DUP4 PUSH2 0x1580 JUMP JUMPDEST SWAP3 POP DUP3 PUSH2 0x2003 JUMPI PUSH2 0x2002 PUSH2 0x1FAE JUMP JUMPDEST JUMPDEST DUP3 DUP3 DIV SWAP1 POP SWAP3 SWAP2 POP POP JUMP JUMPDEST PUSH1 0x0 PUSH2 0x2019 DUP3 PUSH2 0x1580 JUMP JUMPDEST SWAP2 POP PUSH2 0x2024 DUP4 PUSH2 0x1580 JUMP JUMPDEST SWAP3 POP DUP2 PUSH32 0xFFFFFFFFFFFFFFFFFFFFFFFFFFFFFFFFFFFFFFFFFFFFFFFFFFFFFFFFFFFFFFFF DIV DUP4 GT DUP3 ISZERO ISZERO AND ISZERO PUSH2 0x205D JUMPI PUSH2 0x205C PUSH2 0x1EBD JUMP JUMPDEST JUMPDEST DUP3 DUP3 MUL SWAP1 POP SWAP3 SWAP2 POP POP JUMP JUMPDEST PUSH1 0x0 DUP2 SWAP1 POP DUP2 PUSH1 0x0 MSTORE PUSH1 0x20 PUSH1 0x0 KECCAK256 SWAP1 POP SWAP2 SWAP1 POP JUMP JUMPDEST PUSH1 0x0 PUSH1 0x20 PUSH1 0x1F DUP4 ADD DIV SWAP1 POP SWAP2 SWAP1 POP JUMP JUMPDEST PUSH1 0x0 DUP3 DUP3 SHL SWAP1 POP SWAP3 SWAP2 POP POP JUMP JUMPDEST PUSH1 0x0 PUSH1 0x8 DUP4 MUL PUSH2 0x20CA PUSH32 0xFFFFFFFFFFFFFFFFFFFFFFFFFFFFFFFFFFFFFFFFFFFFFFFFFFFFFFFFFFFFFFFF DUP3 PUSH2 0x208D JUMP JUMPDEST PUSH2 0x20D4 DUP7 DUP4 PUSH2 0x208D JUMP JUMPDEST SWAP6 POP DUP1 NOT DUP5 AND SWAP4 POP DUP1 DUP7 AND DUP5 OR SWAP3 POP POP POP SWAP4 SWAP3 POP POP POP JUMP JUMPDEST PUSH1 0x0 DUP2 SWAP1 POP SWAP2 SWAP1 POP JUMP JUMPDEST PUSH1 0x0 PUSH2 0x2111 PUSH2 0x210C PUSH2 0x2107 DUP5 PUSH2 0x1580 JUMP JUMPDEST PUSH2 0x20EC JUMP JUMPDEST PUSH2 0x1580 JUMP JUMPDEST SWAP1 POP SWAP2 SWAP1 POP JUMP JUMPDEST PUSH1 0x0 DUP2 SWAP1 POP SWAP2 SWAP1 POP JUMP JUMPDEST PUSH2 0x212B DUP4 PUSH2 0x20F6 JUMP JUMPDEST PUSH2 0x213F PUSH2 0x2137 DUP3 PUSH2 0x2118 JUMP JUMPDEST DUP5 DUP5 SLOAD PUSH2 0x209A JUMP JUMPDEST DUP3 SSTORE POP POP POP POP JUMP JUMPDEST PUSH1 0x0 SWAP1 JUMP JUMPDEST PUSH2 0x2154 PUSH2 0x2147 JUMP JUMPDEST PUSH2 0x215F DUP2 DUP5 DUP5 PUSH2 0x2122 JUMP JUMPDEST POP POP POP JUMP JUMPDEST JUMPDEST DUP2 DUP2 LT ISZERO PUSH2 0x2183 JUMPI PUSH2 0x2178 PUSH1 0x0 DUP3 PUSH2 0x214C JUMP JUMPDEST PUSH1 0x1 DUP2 ADD SWAP1 POP PUSH2 0x2165 JUMP JUMPDEST POP POP JUMP JUMPDEST PUSH1 0x1F DUP3 GT ISZERO PUSH2 0x21C8 JUMPI PUSH2 0x2199 DUP2 PUSH2 0x2068 JUMP JUMPDEST PUSH2 0x21A2 DUP5 PUSH2 0x207D JUMP JUMPDEST DUP2 ADD PUSH1 0x20 DUP6 LT ISZERO PUSH2 0x21B1 JUMPI DUP2 SWAP1 POP JUMPDEST PUSH2 0x21C5 PUSH2 0x21BD DUP6 PUSH2 0x207D JUMP JUMPDEST DUP4 ADD DUP3 PUSH2 0x2164 JUMP JUMPDEST POP POP JUMPDEST POP POP POP JUMP JUMPDEST PUSH1 0x0 DUP3 DUP3 SHR SWAP1 POP SWAP3 SWAP2 POP POP JUMP JUMPDEST PUSH1 0x0 PUSH2 0x21EB PUSH1 0x0 NOT DUP5 PUSH1 0x8 MUL PUSH2 0x21CD JUMP JUMPDEST NOT DUP1 DUP4 AND SWAP2 POP POP SWAP3 SWAP2 POP POP JUMP JUMPDEST PUSH1 0x0 PUSH2 0x2204 DUP4 DUP4 PUSH2 0x21DA JUMP JUMPDEST SWAP2 POP DUP3 PUSH1 0x2 MUL DUP3 OR SWAP1 POP SWAP3 SWAP2 POP POP JUMP JUMPDEST PUSH2 0x221D DUP3 PUSH2 0x1698 JUMP JUMPDEST PUSH8 0xFFFFFFFFFFFFFFFF DUP2 GT ISZERO PUSH2 0x2236 JUMPI PUSH2 0x2235 PUSH2 0x1793 JUMP JUMPDEST JUMPDEST PUSH2 0x2240 DUP3 SLOAD PUSH2 0x1D48 JUMP JUMPDEST PUSH2 0x224B DUP3 DUP3 DUP6 PUSH2 0x2187 JUMP JUMPDEST PUSH1 0x0 PUSH1 0x20 SWAP1 POP PUSH1 0x1F DUP4 GT PUSH1 0x1 DUP2 EQ PUSH2 0x227E JUMPI PUSH1 0x0 DUP5 ISZERO PUSH2 0x226C JUMPI DUP3 DUP8 ADD MLOAD SWAP1 POP JUMPDEST PUSH2 0x2276 DUP6 DUP3 PUSH2 0x21F8 JUMP JUMPDEST DUP7 SSTORE POP PUSH2 0x22DE JUMP JUMPDEST PUSH1 0x1F NOT DUP5 AND PUSH2 0x228C DUP7 PUSH2 0x2068 JUMP JUMPDEST PUSH1 0x0 JUMPDEST DUP3 DUP2 LT ISZERO PUSH2 0x22B4 JUMPI DUP5 DUP10 ADD MLOAD DUP3 SSTORE PUSH1 0x1 DUP3 ADD SWAP2 POP PUSH1 0x20 DUP6 ADD SWAP5 POP PUSH1 0x20 DUP2 ADD SWAP1 POP PUSH2 0x228F JUMP JUMPDEST DUP7 DUP4 LT ISZERO PUSH2 0x22D1 JUMPI DUP5 DUP10 ADD MLOAD PUSH2 0x22CD PUSH1 0x1F DUP10 AND DUP3 PUSH2 0x21DA JUMP JUMPDEST DUP4 SSTORE POP JUMPDEST PUSH1 0x1 PUSH1 0x2 DUP9 MUL ADD DUP9 SSTORE POP POP POP JUMPDEST POP POP POP POP POP POP JUMP JUMPDEST PUSH32 0x4E487B7100000000000000000000000000000000000000000000000000000000 PUSH1 0x0 MSTORE PUSH1 0x32 PUSH1 0x4 MSTORE PUSH1 0x24 PUSH1 0x0 REVERT JUMPDEST PUSH1 0x0 PUSH1 0xFF DUP3 AND SWAP1 POP SWAP2 SWAP1 POP JUMP JUMPDEST PUSH1 0x0 PUSH2 0x232D DUP3 PUSH2 0x2315 JUMP JUMPDEST SWAP2 POP PUSH1 0xFF DUP3 SUB PUSH2 0x2340 JUMPI PUSH2 0x233F PUSH2 0x1EBD JUMP JUMPDEST JUMPDEST PUSH1 0x1 DUP3 ADD SWAP1 POP SWAP2 SWAP1 POP JUMP INVALID LOG2 PUSH5 0x6970667358 0x22 SLT KECCAK256 SELFDESTRUCT 0x4F 0xE3 0xBA 0xDF SWAP6 0xB4 DUP9 0xEB PUSH16 0x4895CDB5698A43E3E8A7AD0E25099022 0xAF 0xE3 OR 0xFB 0xF7 0x4F PUSH5 0x736F6C6343 STOP ADDMOD 0xF STOP CALLER "
				},
				"gasEstimates": {
					"creation": {
						"codeDepositCost": "1817800",
						"executionCost": "infinite",
						"totalCost": "infinite"
					},
					"external": {
						"AccumulatedPercentage()": "2496",
						"Bundle()": "infinite",
						"BusinessRequirement()": "2473",
						"Consensus()": "infinite",
						"RegisterVoter(address)": "128843",
						"Vote(string)": "infinite",
						"contractAddress()": "2599",
						"getParameters()": "2459",
						"getValues()": "infinite",
						"getVote(address)": "2984",
						"getVoters(address)": "2979",
						"initiator()": "2559",
						"keys(uint256)": "4980",
						"numApprovals()": "2518",
						"proposal()": "infinite",
						"voters(uint256)": "infinite",
						"voters_map(address)": "infinite"
					}
				},
				"methodIdentifiers": {
					"AccumulatedPercentage()": "604c8333",
					"Bundle()": "fe8ff236",
					"BusinessRequirement()": "d77aa749",
					"Consensus()": "95b02dfa",
					"RegisterVoter(address)": "15fe6f1b",
					"Vote(string)": "323082d7",
					"contractAddress()": "f6b4dfb4",
					"getParameters()": "a5ea11da",
					"getValues()": "19eb4a90",
					"getVote(address)": "8d337b81",
					"getVoters(address)": "2d15cc04",
					"initiator()": "5c39fcc1",
					"keys(uint256)": "0cb6aaf1",
					"numApprovals()": "7403c5e5",
					"proposal()": "753ec103",
					"voters(uint256)": "da58c7d9",
					"voters_map(address)": "9aa4bbdd"
				}
			},
			"storageLayout": {
				"storage": [
					{
						"astId": 15,
						"contract": "contracts/BusinessConsensus.sol:BusinessConsensus",
						"label": "contractAddress",
						"offset": 0,
						"slot": "0",
						"type": "t_address"
					},
					{
						"astId": 17,
						"contract": "contracts/BusinessConsensus.sol:BusinessConsensus",
						"label": "expiryDate",
						"offset": 0,
						"slot": "1",
						"type": "t_uint256"
					},
					{
						"astId": 19,
						"contract": "contracts/BusinessConsensus.sol:BusinessConsensus",
						"label": "finalVerdict",
						"offset": 0,
						"slot": "2",
						"type": "t_string_storage"
					},
					{
						"astId": 23,
						"contract": "contracts/BusinessConsensus.sol:BusinessConsensus",
						"label": "initiator",
						"offset": 0,
						"slot": "3",
						"type": "t_address"
					},
					{
						"astId": 25,
						"contract": "contracts/BusinessConsensus.sol:BusinessConsensus",
						"label": "BusinessRequirement",
						"offset": 0,
						"slot": "4",
						"type": "t_uint256"
					},
					{
						"astId": 27,
						"contract": "contracts/BusinessConsensus.sol:BusinessConsensus",
						"label": "AccumulatedPercentage",
						"offset": 0,
						"slot": "5",
						"type": "t_uint256"
					},
					{
						"astId": 29,
						"contract": "contracts/BusinessConsensus.sol:BusinessConsensus",
						"label": "numApprovals",
						"offset": 0,
						"slot": "6",
						"type": "t_uint256"
					},
					{
						"astId": 33,
						"contract": "contracts/BusinessConsensus.sol:BusinessConsensus",
						"label": "voters",
						"offset": 0,
						"slot": "7",
						"type": "t_array(t_struct(Voter)8_storage)dyn_storage"
					},
					{
						"astId": 36,
						"contract": "contracts/BusinessConsensus.sol:BusinessConsensus",
						"label": "keys",
						"offset": 0,
						"slot": "8",
						"type": "t_array(t_address)dyn_storage"
					},
					{
						"astId": 41,
						"contract": "contracts/BusinessConsensus.sol:BusinessConsensus",
						"label": "voters_map",
						"offset": 0,
						"slot": "9",
						"type": "t_mapping(t_address,t_struct(Voter)8_storage)"
					},
					{
						"astId": 44,
						"contract": "contracts/BusinessConsensus.sol:BusinessConsensus",
						"label": "proposal",
						"offset": 0,
						"slot": "10",
						"type": "t_struct(Proposal)13_storage"
					}
				],
				"types": {
					"t_address": {
						"encoding": "inplace",
						"label": "address",
						"numberOfBytes": "20"
					},
					"t_array(t_address)dyn_storage": {
						"base": "t_address",
						"encoding": "dynamic_array",
						"label": "address[]",
						"numberOfBytes": "32"
					},
					"t_array(t_struct(Voter)8_storage)dyn_storage": {
						"base": "t_struct(Voter)8_storage",
						"encoding": "dynamic_array",
						"label": "struct BusinessConsensus.Voter[]",
						"numberOfBytes": "32"
					},
					"t_bool": {
						"encoding": "inplace",
						"label": "bool",
						"numberOfBytes": "1"
					},
					"t_mapping(t_address,t_struct(Voter)8_storage)": {
						"encoding": "mapping",
						"key": "t_address",
						"label": "mapping(address => struct BusinessConsensus.Voter)",
						"numberOfBytes": "32",
						"value": "t_struct(Voter)8_storage"
					},
					"t_string_storage": {
						"encoding": "bytes",
						"label": "string",
						"numberOfBytes": "32"
					},
					"t_struct(Proposal)13_storage": {
						"encoding": "inplace",
						"label": "struct BusinessConsensus.Proposal",
						"members": [
							{
								"astId": 10,
								"contract": "contracts/BusinessConsensus.sol:BusinessConsensus",
								"label": "voteCount",
								"offset": 0,
								"slot": "0",
								"type": "t_uint256"
							},
							{
								"astId": 12,
								"contract": "contracts/BusinessConsensus.sol:BusinessConsensus",
								"label": "messageID",
								"offset": 0,
								"slot": "1",
								"type": "t_string_storage"
							}
						],
						"numberOfBytes": "64"
					},
					"t_struct(Voter)8_storage": {
						"encoding": "inplace",
						"label": "struct BusinessConsensus.Voter",
						"members": [
							{
								"astId": 3,
								"contract": "contracts/BusinessConsensus.sol:BusinessConsensus",
								"label": "voted",
								"offset": 0,
								"slot": "0",
								"type": "t_bool"
							},
							{
								"astId": 5,
								"contract": "contracts/BusinessConsensus.sol:BusinessConsensus",
								"label": "recipient",
								"offset": 1,
								"slot": "0",
								"type": "t_address"
							},
							{
								"astId": 7,
								"contract": "contracts/BusinessConsensus.sol:BusinessConsensus",
								"label": "vote",
								"offset": 21,
								"slot": "0",
								"type": "t_bool"
							}
						],
						"numberOfBytes": "32"
					},
					"t_uint256": {
						"encoding": "inplace",
						"label": "uint256",
						"numberOfBytes": "32"
					}
				}
			},
			"userdoc": {
				"kind": "user",
				"methods": {
					"Consensus()": {
						"notice": "compile all relevant information into a Bundle"
					},
					"Vote(string)": {
						"notice": "Delegate your vote to the voter `to`."
					}
				},
				"version": 1
			}
		}
	}
}