{
	"contracts/BusinessConsensus.sol": {
		"BusinessConsensus": {
			"abi": [
				{
					"inputs": [
						{
							"internalType": "bytes32",
							"name": "_messageID",
							"type": "bytes32"
						},
						{
							"internalType": "uint256",
							"name": "expiry",
							"type": "uint256"
						},
						{
							"internalType": "uint256",
							"name": "requiredPercentage",
							"type": "uint256"
						}
					],
					"stateMutability": "nonpayable",
					"type": "constructor"
				},
				{
					"inputs": [],
					"name": "Consensus",
					"outputs": [],
					"stateMutability": "nonpayable",
					"type": "function"
				},
				{
					"inputs": [
						{
							"internalType": "address",
							"name": "voter",
							"type": "address"
						}
					],
					"name": "RegisterVoter",
					"outputs": [],
					"stateMutability": "nonpayable",
					"type": "function"
				},
				{
					"inputs": [
						{
							"internalType": "string",
							"name": "response",
							"type": "string"
						}
					],
					"name": "Vote",
					"outputs": [],
					"stateMutability": "nonpayable",
					"type": "function"
				},
				{
					"inputs": [],
					"name": "getParameters",
					"outputs": [
						{
							"internalType": "bytes32",
							"name": "",
							"type": "bytes32"
						},
						{
							"internalType": "uint256",
							"name": "",
							"type": "uint256"
						},
						{
							"internalType": "address",
							"name": "",
							"type": "address"
						},
						{
							"internalType": "uint256",
							"name": "",
							"type": "uint256"
						},
						{
							"internalType": "uint256",
							"name": "",
							"type": "uint256"
						}
					],
					"stateMutability": "view",
					"type": "function"
				},
				{
					"inputs": [
						{
							"internalType": "address",
							"name": "test_address",
							"type": "address"
						}
					],
					"name": "getParameters2",
					"outputs": [
						{
							"internalType": "bool",
							"name": "",
							"type": "bool"
						},
						{
							"internalType": "bool",
							"name": "",
							"type": "bool"
						},
						{
							"internalType": "address",
							"name": "",
							"type": "address"
						}
					],
					"stateMutability": "view",
					"type": "function"
				},
				{
					"inputs": [],
					"name": "getValues",
					"outputs": [
						{
							"internalType": "bytes32",
							"name": "",
							"type": "bytes32"
						}
					],
					"stateMutability": "view",
					"type": "function"
				},
				{
					"inputs": [
						{
							"internalType": "uint256",
							"name": "",
							"type": "uint256"
						}
					],
					"name": "keys",
					"outputs": [
						{
							"internalType": "address",
							"name": "",
							"type": "address"
						}
					],
					"stateMutability": "view",
					"type": "function"
				},
				{
					"inputs": [],
					"name": "proposal",
					"outputs": [
						{
							"internalType": "uint256",
							"name": "voteCount",
							"type": "uint256"
						},
						{
							"internalType": "bytes32",
							"name": "messageID",
							"type": "bytes32"
						},
						{
							"internalType": "uint256",
							"name": "BusinessRequirement",
							"type": "uint256"
						},
						{
							"internalType": "address",
							"name": "contractAddress",
							"type": "address"
						},
						{
							"internalType": "address",
							"name": "initiator",
							"type": "address"
						},
						{
							"internalType": "uint256",
							"name": "expiryDate",
							"type": "uint256"
						},
						{
							"internalType": "uint256",
							"name": "AccumulatedPercentage",
							"type": "uint256"
						},
						{
							"internalType": "uint256",
							"name": "numApprovals",
							"type": "uint256"
						},
						{
							"internalType": "uint256",
							"name": "numberCompiled",
							"type": "uint256"
						},
						{
							"internalType": "bytes32",
							"name": "finalVerdict",
							"type": "bytes32"
						}
					],
					"stateMutability": "view",
					"type": "function"
				},
				{
					"inputs": [],
					"name": "retrieve_bundle",
					"outputs": [
						{
							"components": [
								{
									"internalType": "uint256",
									"name": "voteCount",
									"type": "uint256"
								},
								{
									"internalType": "bytes32",
									"name": "messageID",
									"type": "bytes32"
								},
								{
									"internalType": "uint256",
									"name": "BusinessRequirement",
									"type": "uint256"
								},
								{
									"internalType": "address",
									"name": "contractAddress",
									"type": "address"
								},
								{
									"internalType": "address",
									"name": "initiator",
									"type": "address"
								},
								{
									"internalType": "uint256",
									"name": "expiryDate",
									"type": "uint256"
								},
								{
									"internalType": "uint256",
									"name": "AccumulatedPercentage",
									"type": "uint256"
								},
								{
									"internalType": "uint256",
									"name": "numApprovals",
									"type": "uint256"
								},
								{
									"internalType": "uint256",
									"name": "numberCompiled",
									"type": "uint256"
								},
								{
									"internalType": "bytes32",
									"name": "finalVerdict",
									"type": "bytes32"
								}
							],
							"internalType": "struct BusinessConsensus.Proposal",
							"name": "",
							"type": "tuple"
						},
						{
							"components": [
								{
									"internalType": "bool",
									"name": "voted",
									"type": "bool"
								},
								{
									"internalType": "bool",
									"name": "vote",
									"type": "bool"
								},
								{
									"internalType": "address",
									"name": "recipient",
									"type": "address"
								}
							],
							"internalType": "struct BusinessConsensus.Voter[]",
							"name": "",
							"type": "tuple[]"
						}
					],
					"stateMutability": "view",
					"type": "function"
				},
				{
					"inputs": [
						{
							"internalType": "uint256",
							"name": "",
							"type": "uint256"
						}
					],
					"name": "voters",
					"outputs": [
						{
							"internalType": "bool",
							"name": "voted",
							"type": "bool"
						},
						{
							"internalType": "bool",
							"name": "vote",
							"type": "bool"
						},
						{
							"internalType": "address",
							"name": "recipient",
							"type": "address"
						}
					],
					"stateMutability": "view",
					"type": "function"
				},
				{
					"inputs": [
						{
							"internalType": "address",
							"name": "",
							"type": "address"
						}
					],
					"name": "voters_map",
					"outputs": [
						{
							"internalType": "bool",
							"name": "voted",
							"type": "bool"
						},
						{
							"internalType": "bool",
							"name": "vote",
							"type": "bool"
						},
						{
							"internalType": "address",
							"name": "recipient",
							"type": "address"
						}
					],
					"stateMutability": "view",
					"type": "function"
				}
			],
			"devdoc": {
				"kind": "dev",
				"methods": {},
				"version": 1
			},
			"evm": {
				"assembly": "    /* \"contracts/BusinessConsensus.sol\":33:5294  contract BusinessConsensus{\r... */\n  mstore(0x40, 0x80)\n    /* \"contracts/BusinessConsensus.sol\":1091:1738  constructor(bytes32 _messageID, uint expiry, uint requiredPercentage) {\r... */\n  callvalue\n  dup1\n  iszero\n  tag_1\n  jumpi\n  0x00\n  dup1\n  revert\ntag_1:\n  pop\n  mload(0x40)\n  sub(codesize, bytecodeSize)\n  dup1\n  bytecodeSize\n  dup4\n  codecopy\n  dup2\n  dup2\n  add\n  0x40\n  mstore\n  dup2\n  add\n  swap1\n  tag_2\n  swap2\n  swap1\n  tag_3\n  jump\t// in\ntag_2:\n    /* \"contracts/BusinessConsensus.sol\":1268:1730  Proposal({\r... */\n  mload(0x40)\n  dup1\n  0x0140\n  add\n  0x40\n  mstore\n  dup1\n    /* \"contracts/BusinessConsensus.sol\":1307:1308  0 */\n  0x00\n    /* \"contracts/BusinessConsensus.sol\":1268:1730  Proposal({\r... */\n  dup2\n  mstore\n  0x20\n  add\n    /* \"contracts/BusinessConsensus.sol\":1338:1348  _messageID */\n  dup5\n    /* \"contracts/BusinessConsensus.sol\":1268:1730  Proposal({\r... */\n  dup2\n  mstore\n  0x20\n  add\n    /* \"contracts/BusinessConsensus.sol\":1486:1504  requiredPercentage */\n  dup3\n    /* \"contracts/BusinessConsensus.sol\":1268:1730  Proposal({\r... */\n  dup2\n  mstore\n  0x20\n  add\n    /* \"contracts/BusinessConsensus.sol\":1709:1713  this */\n  address\n    /* \"contracts/BusinessConsensus.sol\":1268:1730  Proposal({\r... */\n  0xffffffffffffffffffffffffffffffffffffffff\n  and\n  dup2\n  mstore\n  0x20\n  add\n    /* \"contracts/BusinessConsensus.sol\":1379:1389  msg.sender */\n  caller\n    /* \"contracts/BusinessConsensus.sol\":1268:1730  Proposal({\r... */\n  0xffffffffffffffffffffffffffffffffffffffff\n  and\n  dup2\n  mstore\n  0x20\n  add\n    /* \"contracts/BusinessConsensus.sol\":1439:1445  expiry */\n  dup4\n    /* \"contracts/BusinessConsensus.sol\":1421:1436  block.timestamp */\n  timestamp\n    /* \"contracts/BusinessConsensus.sol\":1421:1445  block.timestamp + expiry */\n  tag_6\n  swap2\n  swap1\n  tag_7\n  jump\t// in\ntag_6:\n    /* \"contracts/BusinessConsensus.sol\":1268:1730  Proposal({\r... */\n  dup2\n  mstore\n  0x20\n  add\n    /* \"contracts/BusinessConsensus.sol\":1547:1548  0 */\n  0x00\n    /* \"contracts/BusinessConsensus.sol\":1268:1730  Proposal({\r... */\n  dup2\n  mstore\n  0x20\n  add\n    /* \"contracts/BusinessConsensus.sol\":1582:1583  0 */\n  0x00\n    /* \"contracts/BusinessConsensus.sol\":1268:1730  Proposal({\r... */\n  dup2\n  mstore\n  0x20\n  add\n    /* \"contracts/BusinessConsensus.sol\":1619:1620  0 */\n  0x00\n    /* \"contracts/BusinessConsensus.sol\":1268:1730  Proposal({\r... */\n  dup2\n  mstore\n  0x20\n  add\n  0x52656a6563746564000000000000000000000000000000000000000000000000\n  dup2\n  mstore\n  pop\n    /* \"contracts/BusinessConsensus.sol\":1257:1265  proposal */\n  0x03\n    /* \"contracts/BusinessConsensus.sol\":1257:1730  proposal = Proposal({\r... */\n  0x00\n  dup3\n  add\n  mload\n  dup2\n  0x00\n  add\n  sstore\n  0x20\n  dup3\n  add\n  mload\n  dup2\n  0x01\n  add\n  sstore\n  0x40\n  dup3\n  add\n  mload\n  dup2\n  0x02\n  add\n  sstore\n  0x60\n  dup3\n  add\n  mload\n  dup2\n  0x03\n  add\n  exp(0x0100, 0x00)\n  dup2\n  sload\n  dup2\n  0xffffffffffffffffffffffffffffffffffffffff\n  mul\n  not\n  and\n  swap1\n  dup4\n  0xffffffffffffffffffffffffffffffffffffffff\n  and\n  mul\n  or\n  swap1\n  sstore\n  pop\n  0x80\n  dup3\n  add\n  mload\n  dup2\n  0x04\n  add\n  exp(0x0100, 0x00)\n  dup2\n  sload\n  dup2\n  0xffffffffffffffffffffffffffffffffffffffff\n  mul\n  not\n  and\n  swap1\n  dup4\n  0xffffffffffffffffffffffffffffffffffffffff\n  and\n  mul\n  or\n  swap1\n  sstore\n  pop\n  0xa0\n  dup3\n  add\n  mload\n  dup2\n  0x05\n  add\n  sstore\n  0xc0\n  dup3\n  add\n  mload\n  dup2\n  0x06\n  add\n  sstore\n  0xe0\n  dup3\n  add\n  mload\n  dup2\n  0x07\n  add\n  sstore\n  0x0100\n  dup3\n  add\n  mload\n  dup2\n  0x08\n  add\n  sstore\n  0x0120\n  dup3\n  add\n  mload\n  dup2\n  0x09\n  add\n  sstore\n  swap1\n  pop\n  pop\n    /* \"contracts/BusinessConsensus.sol\":1091:1738  constructor(bytes32 _messageID, uint expiry, uint requiredPercentage) {\r... */\n  pop\n  pop\n  pop\n    /* \"contracts/BusinessConsensus.sol\":33:5294  contract BusinessConsensus{\r... */\n  jump(tag_8)\n    /* \"#utility.yul\":7:150   */\ntag_10:\n    /* \"#utility.yul\":64:69   */\n  0x00\n    /* \"#utility.yul\":95:101   */\n  dup2\n    /* \"#utility.yul\":89:102   */\n  mload\n    /* \"#utility.yul\":80:102   */\n  swap1\n  pop\n    /* \"#utility.yul\":111:144   */\n  tag_12\n    /* \"#utility.yul\":138:143   */\n  dup2\n    /* \"#utility.yul\":111:144   */\n  tag_13\n  jump\t// in\ntag_12:\n    /* \"#utility.yul\":7:150   */\n  swap3\n  swap2\n  pop\n  pop\n  jump\t// out\n    /* \"#utility.yul\":156:299   */\ntag_14:\n    /* \"#utility.yul\":213:218   */\n  0x00\n    /* \"#utility.yul\":244:250   */\n  dup2\n    /* \"#utility.yul\":238:251   */\n  mload\n    /* \"#utility.yul\":229:251   */\n  swap1\n  pop\n    /* \"#utility.yul\":260:293   */\n  tag_16\n    /* \"#utility.yul\":287:292   */\n  dup2\n    /* \"#utility.yul\":260:293   */\n  tag_17\n  jump\t// in\ntag_16:\n    /* \"#utility.yul\":156:299   */\n  swap3\n  swap2\n  pop\n  pop\n  jump\t// out\n    /* \"#utility.yul\":305:968   */\ntag_3:\n    /* \"#utility.yul\":393:399   */\n  0x00\n    /* \"#utility.yul\":401:407   */\n  dup1\n    /* \"#utility.yul\":409:415   */\n  0x00\n    /* \"#utility.yul\":458:460   */\n  0x60\n    /* \"#utility.yul\":446:455   */\n  dup5\n    /* \"#utility.yul\":437:444   */\n  dup7\n    /* \"#utility.yul\":433:456   */\n  sub\n    /* \"#utility.yul\":429:461   */\n  slt\n    /* \"#utility.yul\":426:545   */\n  iszero\n  tag_19\n  jumpi\n    /* \"#utility.yul\":464:543   */\n  tag_20\n  tag_21\n  jump\t// in\ntag_20:\n    /* \"#utility.yul\":426:545   */\ntag_19:\n    /* \"#utility.yul\":584:585   */\n  0x00\n    /* \"#utility.yul\":609:673   */\n  tag_22\n    /* \"#utility.yul\":665:672   */\n  dup7\n    /* \"#utility.yul\":656:662   */\n  dup3\n    /* \"#utility.yul\":645:654   */\n  dup8\n    /* \"#utility.yul\":641:663   */\n  add\n    /* \"#utility.yul\":609:673   */\n  tag_10\n  jump\t// in\ntag_22:\n    /* \"#utility.yul\":599:673   */\n  swap4\n  pop\n    /* \"#utility.yul\":555:683   */\n  pop\n    /* \"#utility.yul\":722:724   */\n  0x20\n    /* \"#utility.yul\":748:812   */\n  tag_23\n    /* \"#utility.yul\":804:811   */\n  dup7\n    /* \"#utility.yul\":795:801   */\n  dup3\n    /* \"#utility.yul\":784:793   */\n  dup8\n    /* \"#utility.yul\":780:802   */\n  add\n    /* \"#utility.yul\":748:812   */\n  tag_14\n  jump\t// in\ntag_23:\n    /* \"#utility.yul\":738:812   */\n  swap3\n  pop\n    /* \"#utility.yul\":693:822   */\n  pop\n    /* \"#utility.yul\":861:863   */\n  0x40\n    /* \"#utility.yul\":887:951   */\n  tag_24\n    /* \"#utility.yul\":943:950   */\n  dup7\n    /* \"#utility.yul\":934:940   */\n  dup3\n    /* \"#utility.yul\":923:932   */\n  dup8\n    /* \"#utility.yul\":919:941   */\n  add\n    /* \"#utility.yul\":887:951   */\n  tag_14\n  jump\t// in\ntag_24:\n    /* \"#utility.yul\":877:951   */\n  swap2\n  pop\n    /* \"#utility.yul\":832:961   */\n  pop\n    /* \"#utility.yul\":305:968   */\n  swap3\n  pop\n  swap3\n  pop\n  swap3\n  jump\t// out\n    /* \"#utility.yul\":1055:1360   */\ntag_7:\n    /* \"#utility.yul\":1095:1098   */\n  0x00\n    /* \"#utility.yul\":1114:1134   */\n  tag_28\n    /* \"#utility.yul\":1132:1133   */\n  dup3\n    /* \"#utility.yul\":1114:1134   */\n  tag_29\n  jump\t// in\ntag_28:\n    /* \"#utility.yul\":1109:1134   */\n  swap2\n  pop\n    /* \"#utility.yul\":1148:1168   */\n  tag_30\n    /* \"#utility.yul\":1166:1167   */\n  dup4\n    /* \"#utility.yul\":1148:1168   */\n  tag_29\n  jump\t// in\ntag_30:\n    /* \"#utility.yul\":1143:1168   */\n  swap3\n  pop\n    /* \"#utility.yul\":1302:1303   */\n  dup3\n    /* \"#utility.yul\":1234:1300   */\n  0xffffffffffffffffffffffffffffffffffffffffffffffffffffffffffffffff\n    /* \"#utility.yul\":1230:1304   */\n  sub\n    /* \"#utility.yul\":1227:1228   */\n  dup3\n    /* \"#utility.yul\":1224:1305   */\n  gt\n    /* \"#utility.yul\":1221:1328   */\n  iszero\n  tag_31\n  jumpi\n    /* \"#utility.yul\":1308:1326   */\n  tag_32\n  tag_33\n  jump\t// in\ntag_32:\n    /* \"#utility.yul\":1221:1328   */\ntag_31:\n    /* \"#utility.yul\":1352:1353   */\n  dup3\n    /* \"#utility.yul\":1349:1350   */\n  dup3\n    /* \"#utility.yul\":1345:1354   */\n  add\n    /* \"#utility.yul\":1338:1354   */\n  swap1\n  pop\n    /* \"#utility.yul\":1055:1360   */\n  swap3\n  swap2\n  pop\n  pop\n  jump\t// out\n    /* \"#utility.yul\":1366:1443   */\ntag_34:\n    /* \"#utility.yul\":1403:1410   */\n  0x00\n    /* \"#utility.yul\":1432:1437   */\n  dup2\n    /* \"#utility.yul\":1421:1437   */\n  swap1\n  pop\n    /* \"#utility.yul\":1366:1443   */\n  swap2\n  swap1\n  pop\n  jump\t// out\n    /* \"#utility.yul\":1449:1526   */\ntag_29:\n    /* \"#utility.yul\":1486:1493   */\n  0x00\n    /* \"#utility.yul\":1515:1520   */\n  dup2\n    /* \"#utility.yul\":1504:1520   */\n  swap1\n  pop\n    /* \"#utility.yul\":1449:1526   */\n  swap2\n  swap1\n  pop\n  jump\t// out\n    /* \"#utility.yul\":1532:1712   */\ntag_33:\n    /* \"#utility.yul\":1580:1657   */\n  0x4e487b7100000000000000000000000000000000000000000000000000000000\n    /* \"#utility.yul\":1577:1578   */\n  0x00\n    /* \"#utility.yul\":1570:1658   */\n  mstore\n    /* \"#utility.yul\":1677:1681   */\n  0x11\n    /* \"#utility.yul\":1674:1675   */\n  0x04\n    /* \"#utility.yul\":1667:1682   */\n  mstore\n    /* \"#utility.yul\":1701:1705   */\n  0x24\n    /* \"#utility.yul\":1698:1699   */\n  0x00\n    /* \"#utility.yul\":1691:1706   */\n  revert\n    /* \"#utility.yul\":1841:1958   */\ntag_21:\n    /* \"#utility.yul\":1950:1951   */\n  0x00\n    /* \"#utility.yul\":1947:1948   */\n  dup1\n    /* \"#utility.yul\":1940:1952   */\n  revert\n    /* \"#utility.yul\":1964:2086   */\ntag_13:\n    /* \"#utility.yul\":2037:2061   */\n  tag_42\n    /* \"#utility.yul\":2055:2060   */\n  dup2\n    /* \"#utility.yul\":2037:2061   */\n  tag_34\n  jump\t// in\ntag_42:\n    /* \"#utility.yul\":2030:2035   */\n  dup2\n    /* \"#utility.yul\":2027:2062   */\n  eq\n    /* \"#utility.yul\":2017:2080   */\n  tag_43\n  jumpi\n    /* \"#utility.yul\":2076:2077   */\n  0x00\n    /* \"#utility.yul\":2073:2074   */\n  dup1\n    /* \"#utility.yul\":2066:2078   */\n  revert\n    /* \"#utility.yul\":2017:2080   */\ntag_43:\n    /* \"#utility.yul\":1964:2086   */\n  pop\n  jump\t// out\n    /* \"#utility.yul\":2092:2214   */\ntag_17:\n    /* \"#utility.yul\":2165:2189   */\n  tag_45\n    /* \"#utility.yul\":2183:2188   */\n  dup2\n    /* \"#utility.yul\":2165:2189   */\n  tag_29\n  jump\t// in\ntag_45:\n    /* \"#utility.yul\":2158:2163   */\n  dup2\n    /* \"#utility.yul\":2155:2190   */\n  eq\n    /* \"#utility.yul\":2145:2208   */\n  tag_46\n  jumpi\n    /* \"#utility.yul\":2204:2205   */\n  0x00\n    /* \"#utility.yul\":2201:2202   */\n  dup1\n    /* \"#utility.yul\":2194:2206   */\n  revert\n    /* \"#utility.yul\":2145:2208   */\ntag_46:\n    /* \"#utility.yul\":2092:2214   */\n  pop\n  jump\t// out\n    /* \"contracts/BusinessConsensus.sol\":33:5294  contract BusinessConsensus{\r... */\ntag_8:\n  dataSize(sub_0)\n  dup1\n  dataOffset(sub_0)\n  0x00\n  codecopy\n  0x00\n  return\nstop\n\nsub_0: assembly {\n        /* \"contracts/BusinessConsensus.sol\":33:5294  contract BusinessConsensus{\r... */\n      mstore(0x40, 0x80)\n      callvalue\n      dup1\n      iszero\n      tag_1\n      jumpi\n      0x00\n      dup1\n      revert\n    tag_1:\n      pop\n      jumpi(tag_2, lt(calldatasize, 0x04))\n      shr(0xe0, calldataload(0x00))\n      dup1\n      0x753ec103\n      gt\n      tag_14\n      jumpi\n      dup1\n      0x753ec103\n      eq\n      tag_8\n      jumpi\n      dup1\n      0x82316745\n      eq\n      tag_9\n      jumpi\n      dup1\n      0x95b02dfa\n      eq\n      tag_10\n      jumpi\n      dup1\n      0x9aa4bbdd\n      eq\n      tag_11\n      jumpi\n      dup1\n      0xa5ea11da\n      eq\n      tag_12\n      jumpi\n      dup1\n      0xda58c7d9\n      eq\n      tag_13\n      jumpi\n      jump(tag_2)\n    tag_14:\n      dup1\n      0x0cb6aaf1\n      eq\n      tag_3\n      jumpi\n      dup1\n      0x15fe6f1b\n      eq\n      tag_4\n      jumpi\n      dup1\n      0x19eb4a90\n      eq\n      tag_5\n      jumpi\n      dup1\n      0x323082d7\n      eq\n      tag_6\n      jumpi\n      dup1\n      0x5361a0ea\n      eq\n      tag_7\n      jumpi\n    tag_2:\n      0x00\n      dup1\n      revert\n        /* \"contracts/BusinessConsensus.sol\":878:899  address[] public keys */\n    tag_3:\n      tag_15\n      0x04\n      dup1\n      calldatasize\n      sub\n      dup2\n      add\n      swap1\n      tag_16\n      swap2\n      swap1\n      tag_17\n      jump\t// in\n    tag_16:\n      tag_18\n      jump\t// in\n    tag_15:\n      mload(0x40)\n      tag_19\n      swap2\n      swap1\n      tag_20\n      jump\t// in\n    tag_19:\n      mload(0x40)\n      dup1\n      swap2\n      sub\n      swap1\n      return\n        /* \"contracts/BusinessConsensus.sol\":2392:3063  function RegisterVoter(address voter) external {\r... */\n    tag_4:\n      tag_21\n      0x04\n      dup1\n      calldatasize\n      sub\n      dup2\n      add\n      swap1\n      tag_22\n      swap2\n      swap1\n      tag_23\n      jump\t// in\n    tag_22:\n      tag_24\n      jump\t// in\n    tag_21:\n      stop\n        /* \"contracts/BusinessConsensus.sol\":1744:1840  function getValues() external view returns (bytes32){\r... */\n    tag_5:\n      tag_25\n      tag_26\n      jump\t// in\n    tag_25:\n      mload(0x40)\n      tag_27\n      swap2\n      swap1\n      tag_28\n      jump\t// in\n    tag_27:\n      mload(0x40)\n      dup1\n      swap2\n      sub\n      swap1\n      return\n        /* \"contracts/BusinessConsensus.sol\":3071:4186  function Vote(string memory response) external {\r... */\n    tag_6:\n      tag_29\n      0x04\n      dup1\n      calldatasize\n      sub\n      dup2\n      add\n      swap1\n      tag_30\n      swap2\n      swap1\n      tag_31\n      jump\t// in\n    tag_30:\n      tag_32\n      jump\t// in\n    tag_29:\n      stop\n        /* \"contracts/BusinessConsensus.sol\":2072:2286  function getParameters2(address test_address) external view returns (bool, bool, address){\r... */\n    tag_7:\n      tag_33\n      0x04\n      dup1\n      calldatasize\n      sub\n      dup2\n      add\n      swap1\n      tag_34\n      swap2\n      swap1\n      tag_23\n      jump\t// in\n    tag_34:\n      tag_35\n      jump\t// in\n    tag_33:\n      mload(0x40)\n      tag_36\n      swap4\n      swap3\n      swap2\n      swap1\n      tag_37\n      jump\t// in\n    tag_36:\n      mload(0x40)\n      dup1\n      swap2\n      sub\n      swap1\n      return\n        /* \"contracts/BusinessConsensus.sol\":1058:1082  Proposal public proposal */\n    tag_8:\n      tag_38\n      tag_39\n      jump\t// in\n    tag_38:\n      mload(0x40)\n      tag_40\n      swap11\n      swap10\n      swap9\n      swap8\n      swap7\n      swap6\n      swap5\n      swap4\n      swap3\n      swap2\n      swap1\n      tag_41\n      jump\t// in\n    tag_40:\n      mload(0x40)\n      dup1\n      swap2\n      sub\n      swap1\n      return\n        /* \"contracts/BusinessConsensus.sol\":5060:5289  function retrieve_bundle() external view returns (Proposal memory, Voter[] memory){\r... */\n    tag_9:\n      tag_42\n      tag_43\n      jump\t// in\n    tag_42:\n      mload(0x40)\n      tag_44\n      swap3\n      swap2\n      swap1\n      tag_45\n      jump\t// in\n    tag_44:\n      mload(0x40)\n      dup1\n      swap2\n      sub\n      swap1\n      return\n        /* \"contracts/BusinessConsensus.sol\":4250:5052  function Consensus() external {\r... */\n    tag_10:\n      tag_46\n      tag_47\n      jump\t// in\n    tag_46:\n      stop\n        /* \"contracts/BusinessConsensus.sol\":938:981  mapping(address => Voter) public voters_map */\n    tag_11:\n      tag_48\n      0x04\n      dup1\n      calldatasize\n      sub\n      dup2\n      add\n      swap1\n      tag_49\n      swap2\n      swap1\n      tag_23\n      jump\t// in\n    tag_49:\n      tag_50\n      jump\t// in\n    tag_48:\n      mload(0x40)\n      tag_51\n      swap4\n      swap3\n      swap2\n      swap1\n      tag_37\n      jump\t// in\n    tag_51:\n      mload(0x40)\n      dup1\n      swap2\n      sub\n      swap1\n      return\n        /* \"contracts/BusinessConsensus.sol\":1846:2066  function getParameters() external view returns (bytes32, uint , address ,uint ,uint){\r... */\n    tag_12:\n      tag_52\n      tag_53\n      jump\t// in\n    tag_52:\n      mload(0x40)\n      tag_54\n      swap6\n      swap5\n      swap4\n      swap3\n      swap2\n      swap1\n      tag_55\n      jump\t// in\n    tag_54:\n      mload(0x40)\n      dup1\n      swap2\n      sub\n      swap1\n      return\n        /* \"contracts/BusinessConsensus.sol\":908:929  Voter[] public voters */\n    tag_13:\n      tag_56\n      0x04\n      dup1\n      calldatasize\n      sub\n      dup2\n      add\n      swap1\n      tag_57\n      swap2\n      swap1\n      tag_17\n      jump\t// in\n    tag_57:\n      tag_58\n      jump\t// in\n    tag_56:\n      mload(0x40)\n      tag_59\n      swap4\n      swap3\n      swap2\n      swap1\n      tag_37\n      jump\t// in\n    tag_59:\n      mload(0x40)\n      dup1\n      swap2\n      sub\n      swap1\n      return\n        /* \"contracts/BusinessConsensus.sol\":878:899  address[] public keys */\n    tag_18:\n      0x00\n      dup2\n      dup2\n      sload\n      dup2\n      lt\n      tag_60\n      jumpi\n      0x00\n      dup1\n      revert\n    tag_60:\n      swap1\n      0x00\n      mstore\n      keccak256(0x00, 0x20)\n      add\n      0x00\n      swap2\n      pop\n      sload\n      swap1\n      0x0100\n      exp\n      swap1\n      div\n      0xffffffffffffffffffffffffffffffffffffffff\n      and\n      dup2\n      jump\t// out\n        /* \"contracts/BusinessConsensus.sol\":2392:3063  function RegisterVoter(address voter) external {\r... */\n    tag_24:\n        /* \"contracts/BusinessConsensus.sol\":2560:2568  proposal */\n      0x03\n        /* \"contracts/BusinessConsensus.sol\":2560:2578  proposal.initiator */\n      0x04\n      add\n      0x00\n      swap1\n      sload\n      swap1\n      0x0100\n      exp\n      swap1\n      div\n      0xffffffffffffffffffffffffffffffffffffffff\n      and\n        /* \"contracts/BusinessConsensus.sol\":2546:2578  msg.sender == proposal.initiator */\n      0xffffffffffffffffffffffffffffffffffffffff\n      and\n        /* \"contracts/BusinessConsensus.sol\":2546:2556  msg.sender */\n      caller\n        /* \"contracts/BusinessConsensus.sol\":2546:2578  msg.sender == proposal.initiator */\n      0xffffffffffffffffffffffffffffffffffffffff\n      and\n      eq\n        /* \"contracts/BusinessConsensus.sol\":2524:2646  require(\r... */\n      tag_63\n      jumpi\n      mload(0x40)\n      0x08c379a000000000000000000000000000000000000000000000000000000000\n      dup2\n      mstore\n      0x04\n      add\n      tag_64\n      swap1\n      tag_65\n      jump\t// in\n    tag_64:\n      mload(0x40)\n      dup1\n      swap2\n      sub\n      swap1\n      revert\n    tag_63:\n        /* \"contracts/BusinessConsensus.sol\":2674:2682  proposal */\n      0x03\n        /* \"contracts/BusinessConsensus.sol\":2674:2692  proposal.initiator */\n      0x04\n      add\n      0x00\n      swap1\n      sload\n      swap1\n      0x0100\n      exp\n      swap1\n      div\n      0xffffffffffffffffffffffffffffffffffffffff\n      and\n        /* \"contracts/BusinessConsensus.sol\":2665:2692  voter != proposal.initiator */\n      0xffffffffffffffffffffffffffffffffffffffff\n      and\n        /* \"contracts/BusinessConsensus.sol\":2665:2670  voter */\n      dup2\n        /* \"contracts/BusinessConsensus.sol\":2665:2692  voter != proposal.initiator */\n      0xffffffffffffffffffffffffffffffffffffffff\n      and\n      eq\n      iszero\n        /* \"contracts/BusinessConsensus.sol\":2657:2718  require(voter != proposal.initiator, \"Initiator can't vote!\") */\n      tag_66\n      jumpi\n      mload(0x40)\n      0x08c379a000000000000000000000000000000000000000000000000000000000\n      dup2\n      mstore\n      0x04\n      add\n      tag_67\n      swap1\n      tag_68\n      jump\t// in\n    tag_67:\n      mload(0x40)\n      dup1\n      swap2\n      sub\n      swap1\n      revert\n    tag_66:\n        /* \"contracts/BusinessConsensus.sol\":2778:2779  0 */\n      0x00\n        /* \"contracts/BusinessConsensus.sol\":2739:2780  voters_map[voter].recipient == address(0) */\n      0xffffffffffffffffffffffffffffffffffffffff\n      and\n        /* \"contracts/BusinessConsensus.sol\":2739:2749  voters_map */\n      0x02\n        /* \"contracts/BusinessConsensus.sol\":2739:2756  voters_map[voter] */\n      0x00\n        /* \"contracts/BusinessConsensus.sol\":2750:2755  voter */\n      dup4\n        /* \"contracts/BusinessConsensus.sol\":2739:2756  voters_map[voter] */\n      0xffffffffffffffffffffffffffffffffffffffff\n      and\n      0xffffffffffffffffffffffffffffffffffffffff\n      and\n      dup2\n      mstore\n      0x20\n      add\n      swap1\n      dup2\n      mstore\n      0x20\n      add\n      0x00\n      keccak256\n        /* \"contracts/BusinessConsensus.sol\":2739:2766  voters_map[voter].recipient */\n      0x00\n      add\n      0x02\n      swap1\n      sload\n      swap1\n      0x0100\n      exp\n      swap1\n      div\n      0xffffffffffffffffffffffffffffffffffffffff\n      and\n        /* \"contracts/BusinessConsensus.sol\":2739:2780  voters_map[voter].recipient == address(0) */\n      0xffffffffffffffffffffffffffffffffffffffff\n      and\n      eq\n        /* \"contracts/BusinessConsensus.sol\":2731:2816  require(voters_map[voter].recipient == address(0), \"Recipient is already registered\") */\n      tag_69\n      jumpi\n      mload(0x40)\n      0x08c379a000000000000000000000000000000000000000000000000000000000\n      dup2\n      mstore\n      0x04\n      add\n      tag_70\n      swap1\n      tag_71\n      jump\t// in\n    tag_70:\n      mload(0x40)\n      dup1\n      swap2\n      sub\n      swap1\n      revert\n    tag_69:\n        /* \"contracts/BusinessConsensus.sol\":2855:2863  proposal */\n      0x03\n        /* \"contracts/BusinessConsensus.sol\":2855:2874  proposal.expiryDate */\n      0x05\n      add\n      sload\n        /* \"contracts/BusinessConsensus.sol\":2837:2852  block.timestamp */\n      timestamp\n        /* \"contracts/BusinessConsensus.sol\":2837:2874  block.timestamp < proposal.expiryDate */\n      lt\n        /* \"contracts/BusinessConsensus.sol\":2829:2915  require(block.timestamp < proposal.expiryDate, \"Proposal has reached its expiry date\") */\n      tag_72\n      jumpi\n      mload(0x40)\n      0x08c379a000000000000000000000000000000000000000000000000000000000\n      dup2\n      mstore\n      0x04\n      add\n      tag_73\n      swap1\n      tag_74\n      jump\t// in\n    tag_73:\n      mload(0x40)\n      dup1\n      swap2\n      sub\n      swap1\n      revert\n    tag_72:\n        /* \"contracts/BusinessConsensus.sol\":2928:2942  Voter memory x */\n      0x00\n        /* \"contracts/BusinessConsensus.sol\":2945:2996  Voter({voted: false,recipient: voter, vote: false}) */\n      mload(0x40)\n      dup1\n      0x60\n      add\n      0x40\n      mstore\n      dup1\n        /* \"contracts/BusinessConsensus.sol\":2959:2964  false */\n      0x00\n        /* \"contracts/BusinessConsensus.sol\":2945:2996  Voter({voted: false,recipient: voter, vote: false}) */\n      iszero\n      iszero\n      dup2\n      mstore\n      0x20\n      add\n        /* \"contracts/BusinessConsensus.sol\":2989:2994  false */\n      0x00\n        /* \"contracts/BusinessConsensus.sol\":2945:2996  Voter({voted: false,recipient: voter, vote: false}) */\n      iszero\n      iszero\n      dup2\n      mstore\n      0x20\n      add\n        /* \"contracts/BusinessConsensus.sol\":2976:2981  voter */\n      dup4\n        /* \"contracts/BusinessConsensus.sol\":2945:2996  Voter({voted: false,recipient: voter, vote: false}) */\n      0xffffffffffffffffffffffffffffffffffffffff\n      and\n      dup2\n      mstore\n      pop\n        /* \"contracts/BusinessConsensus.sol\":2928:2996  Voter memory x = Voter({voted: false,recipient: voter, vote: false}) */\n      swap1\n      pop\n        /* \"contracts/BusinessConsensus.sol\":3027:3028  x */\n      dup1\n        /* \"contracts/BusinessConsensus.sol\":3007:3017  voters_map */\n      0x02\n        /* \"contracts/BusinessConsensus.sol\":3007:3024  voters_map[voter] */\n      0x00\n        /* \"contracts/BusinessConsensus.sol\":3018:3023  voter */\n      dup5\n        /* \"contracts/BusinessConsensus.sol\":3007:3024  voters_map[voter] */\n      0xffffffffffffffffffffffffffffffffffffffff\n      and\n      0xffffffffffffffffffffffffffffffffffffffff\n      and\n      dup2\n      mstore\n      0x20\n      add\n      swap1\n      dup2\n      mstore\n      0x20\n      add\n      0x00\n      keccak256\n        /* \"contracts/BusinessConsensus.sol\":3007:3028  voters_map[voter] = x */\n      0x00\n      dup3\n      add\n      mload\n      dup2\n      0x00\n      add\n      exp(0x0100, 0x00)\n      dup2\n      sload\n      dup2\n      0xff\n      mul\n      not\n      and\n      swap1\n      dup4\n      iszero\n      iszero\n      mul\n      or\n      swap1\n      sstore\n      pop\n      0x20\n      dup3\n      add\n      mload\n      dup2\n      0x00\n      add\n      exp(0x0100, 0x01)\n      dup2\n      sload\n      dup2\n      0xff\n      mul\n      not\n      and\n      swap1\n      dup4\n      iszero\n      iszero\n      mul\n      or\n      swap1\n      sstore\n      pop\n      0x40\n      dup3\n      add\n      mload\n      dup2\n      0x00\n      add\n      exp(0x0100, 0x02)\n      dup2\n      sload\n      dup2\n      0xffffffffffffffffffffffffffffffffffffffff\n      mul\n      not\n      and\n      swap1\n      dup4\n      0xffffffffffffffffffffffffffffffffffffffff\n      and\n      mul\n      or\n      swap1\n      sstore\n      pop\n      swap1\n      pop\n      pop\n        /* \"contracts/BusinessConsensus.sol\":3039:3043  keys */\n      0x00\n        /* \"contracts/BusinessConsensus.sol\":3049:3054  voter */\n      dup3\n        /* \"contracts/BusinessConsensus.sol\":3039:3055  keys.push(voter) */\n      swap1\n      dup1\n      0x01\n      dup2\n      sload\n      add\n      dup1\n      dup3\n      sstore\n      dup1\n      swap2\n      pop\n      pop\n      0x01\n      swap1\n      sub\n      swap1\n      0x00\n      mstore\n      keccak256(0x00, 0x20)\n      add\n      0x00\n      swap1\n      swap2\n      swap1\n      swap2\n      swap1\n      swap2\n      0x0100\n      exp\n      dup2\n      sload\n      dup2\n      0xffffffffffffffffffffffffffffffffffffffff\n      mul\n      not\n      and\n      swap1\n      dup4\n      0xffffffffffffffffffffffffffffffffffffffff\n      and\n      mul\n      or\n      swap1\n      sstore\n      pop\n        /* \"contracts/BusinessConsensus.sol\":2439:3063  {\r... */\n      pop\n        /* \"contracts/BusinessConsensus.sol\":2392:3063  function RegisterVoter(address voter) external {\r... */\n      pop\n      jump\t// out\n        /* \"contracts/BusinessConsensus.sol\":1744:1840  function getValues() external view returns (bytes32){\r... */\n    tag_26:\n        /* \"contracts/BusinessConsensus.sol\":1788:1795  bytes32 */\n      0x00\n        /* \"contracts/BusinessConsensus.sol\":1814:1822  proposal */\n      0x03\n        /* \"contracts/BusinessConsensus.sol\":1814:1832  proposal.messageID */\n      0x01\n      add\n      sload\n        /* \"contracts/BusinessConsensus.sol\":1807:1832  return proposal.messageID */\n      swap1\n      pop\n        /* \"contracts/BusinessConsensus.sol\":1744:1840  function getValues() external view returns (bytes32){\r... */\n      swap1\n      jump\t// out\n        /* \"contracts/BusinessConsensus.sol\":3071:4186  function Vote(string memory response) external {\r... */\n    tag_32:\n        /* \"contracts/BusinessConsensus.sol\":3157:3165  proposal */\n      0x03\n        /* \"contracts/BusinessConsensus.sol\":3157:3176  proposal.expiryDate */\n      0x05\n      add\n      sload\n        /* \"contracts/BusinessConsensus.sol\":3139:3154  block.timestamp */\n      timestamp\n        /* \"contracts/BusinessConsensus.sol\":3139:3176  block.timestamp < proposal.expiryDate */\n      lt\n        /* \"contracts/BusinessConsensus.sol\":3131:3199  require(block.timestamp < proposal.expiryDate, \"Voting has expired\") */\n      tag_78\n      jumpi\n      mload(0x40)\n      0x08c379a000000000000000000000000000000000000000000000000000000000\n      dup2\n      mstore\n      0x04\n      add\n      tag_79\n      swap1\n      tag_80\n      jump\t// in\n    tag_79:\n      mload(0x40)\n      dup1\n      swap2\n      sub\n      swap1\n      revert\n    tag_78:\n        /* \"contracts/BusinessConsensus.sol\":3262:3265  0x0 */\n      0x00\n        /* \"contracts/BusinessConsensus.sol\":3218:3266  voters_map[msg.sender].recipient != address(0x0) */\n      0xffffffffffffffffffffffffffffffffffffffff\n      and\n        /* \"contracts/BusinessConsensus.sol\":3218:3228  voters_map */\n      0x02\n        /* \"contracts/BusinessConsensus.sol\":3218:3240  voters_map[msg.sender] */\n      0x00\n        /* \"contracts/BusinessConsensus.sol\":3229:3239  msg.sender */\n      caller\n        /* \"contracts/BusinessConsensus.sol\":3218:3240  voters_map[msg.sender] */\n      0xffffffffffffffffffffffffffffffffffffffff\n      and\n      0xffffffffffffffffffffffffffffffffffffffff\n      and\n      dup2\n      mstore\n      0x20\n      add\n      swap1\n      dup2\n      mstore\n      0x20\n      add\n      0x00\n      keccak256\n        /* \"contracts/BusinessConsensus.sol\":3218:3250  voters_map[msg.sender].recipient */\n      0x00\n      add\n      0x02\n      swap1\n      sload\n      swap1\n      0x0100\n      exp\n      swap1\n      div\n      0xffffffffffffffffffffffffffffffffffffffff\n      and\n        /* \"contracts/BusinessConsensus.sol\":3218:3266  voters_map[msg.sender].recipient != address(0x0) */\n      0xffffffffffffffffffffffffffffffffffffffff\n      and\n      eq\n      iszero\n        /* \"contracts/BusinessConsensus.sol\":3210:3301  require(voters_map[msg.sender].recipient != address(0x0), \"You are not registered to vote\") */\n      tag_81\n      jumpi\n      mload(0x40)\n      0x08c379a000000000000000000000000000000000000000000000000000000000\n      dup2\n      mstore\n      0x04\n      add\n      tag_82\n      swap1\n      tag_83\n      jump\t// in\n    tag_82:\n      mload(0x40)\n      dup1\n      swap2\n      sub\n      swap1\n      revert\n    tag_81:\n        /* \"contracts/BusinessConsensus.sol\":3321:3331  voters_map */\n      0x02\n        /* \"contracts/BusinessConsensus.sol\":3321:3343  voters_map[msg.sender] */\n      0x00\n        /* \"contracts/BusinessConsensus.sol\":3332:3342  msg.sender */\n      caller\n        /* \"contracts/BusinessConsensus.sol\":3321:3343  voters_map[msg.sender] */\n      0xffffffffffffffffffffffffffffffffffffffff\n      and\n      0xffffffffffffffffffffffffffffffffffffffff\n      and\n      dup2\n      mstore\n      0x20\n      add\n      swap1\n      dup2\n      mstore\n      0x20\n      add\n      0x00\n      keccak256\n        /* \"contracts/BusinessConsensus.sol\":3321:3349  voters_map[msg.sender].voted */\n      0x00\n      add\n      0x00\n      swap1\n      sload\n      swap1\n      0x0100\n      exp\n      swap1\n      div\n      0xff\n      and\n        /* \"contracts/BusinessConsensus.sol\":3320:3349  !voters_map[msg.sender].voted */\n      iszero\n        /* \"contracts/BusinessConsensus.sol\":3312:3382  require(!voters_map[msg.sender].voted, \"You already sent a response.\") */\n      tag_84\n      jumpi\n      mload(0x40)\n      0x08c379a000000000000000000000000000000000000000000000000000000000\n      dup2\n      mstore\n      0x04\n      add\n      tag_85\n      swap1\n      tag_86\n      jump\t// in\n    tag_85:\n      mload(0x40)\n      dup1\n      swap2\n      sub\n      swap1\n      revert\n    tag_84:\n        /* \"contracts/BusinessConsensus.sol\":3438:3456  bytes(\"i approve\") */\n      mload(0x40)\n      dup1\n      0x40\n      add\n      0x40\n      mstore\n      dup1\n      0x09\n      dup2\n      mstore\n      0x20\n      add\n      0x6920617070726f76650000000000000000000000000000000000000000000000\n      dup2\n      mstore\n      pop\n        /* \"contracts/BusinessConsensus.sol\":3428:3457  keccak256(bytes(\"i approve\")) */\n      dup1\n      mload\n      swap1\n      0x20\n      add\n      keccak256\n        /* \"contracts/BusinessConsensus.sol\":3414:3422  response */\n      dup2\n        /* \"contracts/BusinessConsensus.sol\":3398:3424  keccak256(bytes(response)) */\n      dup1\n      mload\n      swap1\n      0x20\n      add\n      keccak256\n        /* \"contracts/BusinessConsensus.sol\":3398:3457  keccak256(bytes(response)) == keccak256(bytes(\"i approve\")) */\n      eq\n        /* \"contracts/BusinessConsensus.sol\":3395:4169  if(keccak256(bytes(response)) == keccak256(bytes(\"i approve\"))){\r... */\n      iszero\n      tag_87\n      jumpi\n        /* \"contracts/BusinessConsensus.sol\":3504:3508  true */\n      0x01\n        /* \"contracts/BusinessConsensus.sol\":3473:3483  voters_map */\n      0x02\n        /* \"contracts/BusinessConsensus.sol\":3473:3495  voters_map[msg.sender] */\n      0x00\n        /* \"contracts/BusinessConsensus.sol\":3484:3494  msg.sender */\n      caller\n        /* \"contracts/BusinessConsensus.sol\":3473:3495  voters_map[msg.sender] */\n      0xffffffffffffffffffffffffffffffffffffffff\n      and\n      0xffffffffffffffffffffffffffffffffffffffff\n      and\n      dup2\n      mstore\n      0x20\n      add\n      swap1\n      dup2\n      mstore\n      0x20\n      add\n      0x00\n      keccak256\n        /* \"contracts/BusinessConsensus.sol\":3473:3501  voters_map[msg.sender].voted */\n      0x00\n      add\n      0x00\n        /* \"contracts/BusinessConsensus.sol\":3473:3508  voters_map[msg.sender].voted = true */\n      0x0100\n      exp\n      dup2\n      sload\n      dup2\n      0xff\n      mul\n      not\n      and\n      swap1\n      dup4\n      iszero\n      iszero\n      mul\n      or\n      swap1\n      sstore\n      pop\n        /* \"contracts/BusinessConsensus.sol\":3553:3557  true */\n      0x01\n        /* \"contracts/BusinessConsensus.sol\":3523:3533  voters_map */\n      0x02\n        /* \"contracts/BusinessConsensus.sol\":3523:3545  voters_map[msg.sender] */\n      0x00\n        /* \"contracts/BusinessConsensus.sol\":3534:3544  msg.sender */\n      caller\n        /* \"contracts/BusinessConsensus.sol\":3523:3545  voters_map[msg.sender] */\n      0xffffffffffffffffffffffffffffffffffffffff\n      and\n      0xffffffffffffffffffffffffffffffffffffffff\n      and\n      dup2\n      mstore\n      0x20\n      add\n      swap1\n      dup2\n      mstore\n      0x20\n      add\n      0x00\n      keccak256\n        /* \"contracts/BusinessConsensus.sol\":3523:3550  voters_map[msg.sender].vote */\n      0x00\n      add\n      0x01\n        /* \"contracts/BusinessConsensus.sol\":3523:3557  voters_map[msg.sender].vote = true */\n      0x0100\n      exp\n      dup2\n      sload\n      dup2\n      0xff\n      mul\n      not\n      and\n      swap1\n      dup4\n      iszero\n      iszero\n      mul\n      or\n      swap1\n      sstore\n      pop\n        /* \"contracts/BusinessConsensus.sol\":3597:3598  1 */\n      0x01\n        /* \"contracts/BusinessConsensus.sol\":3572:3580  proposal */\n      0x03\n        /* \"contracts/BusinessConsensus.sol\":3572:3593  proposal.numApprovals */\n      0x07\n      add\n      0x00\n        /* \"contracts/BusinessConsensus.sol\":3572:3598  proposal.numApprovals += 1 */\n      dup3\n      dup3\n      sload\n      tag_88\n      swap2\n      swap1\n      tag_89\n      jump\t// in\n    tag_88:\n      swap3\n      pop\n      pop\n      dup2\n      swap1\n      sstore\n      pop\n        /* \"contracts/BusinessConsensus.sol\":3635:3636  1 */\n      0x01\n        /* \"contracts/BusinessConsensus.sol\":3613:3621  proposal */\n      0x03\n        /* \"contracts/BusinessConsensus.sol\":3613:3631  proposal.voteCount */\n      0x00\n      add\n      0x00\n        /* \"contracts/BusinessConsensus.sol\":3613:3636  proposal.voteCount += 1 */\n      dup3\n      dup3\n      sload\n      tag_90\n      swap2\n      swap1\n      tag_89\n      jump\t// in\n    tag_90:\n      swap3\n      pop\n      pop\n      dup2\n      swap1\n      sstore\n      pop\n        /* \"contracts/BusinessConsensus.sol\":3651:3657  voters */\n      0x01\n        /* \"contracts/BusinessConsensus.sol\":3663:3673  voters_map */\n      0x02\n        /* \"contracts/BusinessConsensus.sol\":3663:3685  voters_map[msg.sender] */\n      0x00\n        /* \"contracts/BusinessConsensus.sol\":3674:3684  msg.sender */\n      caller\n        /* \"contracts/BusinessConsensus.sol\":3663:3685  voters_map[msg.sender] */\n      0xffffffffffffffffffffffffffffffffffffffff\n      and\n      0xffffffffffffffffffffffffffffffffffffffff\n      and\n      dup2\n      mstore\n      0x20\n      add\n      swap1\n      dup2\n      mstore\n      0x20\n      add\n      0x00\n      keccak256\n        /* \"contracts/BusinessConsensus.sol\":3651:3686  voters.push(voters_map[msg.sender]) */\n      swap1\n      dup1\n      0x01\n      dup2\n      sload\n      add\n      dup1\n      dup3\n      sstore\n      dup1\n      swap2\n      pop\n      pop\n      0x01\n      swap1\n      sub\n      swap1\n      0x00\n      mstore\n      keccak256(0x00, 0x20)\n      add\n      0x00\n      swap1\n      swap2\n      swap1\n      swap2\n      swap1\n      swap2\n      pop\n      0x00\n      dup3\n      add\n      0x00\n      swap1\n      sload\n      swap1\n      0x0100\n      exp\n      swap1\n      div\n      0xff\n      and\n      dup2\n      0x00\n      add\n      exp(0x0100, 0x00)\n      dup2\n      sload\n      dup2\n      0xff\n      mul\n      not\n      and\n      swap1\n      dup4\n      iszero\n      iszero\n      mul\n      or\n      swap1\n      sstore\n      pop\n      0x00\n      dup3\n      add\n      0x01\n      swap1\n      sload\n      swap1\n      0x0100\n      exp\n      swap1\n      div\n      0xff\n      and\n      dup2\n      0x00\n      add\n      exp(0x0100, 0x01)\n      dup2\n      sload\n      dup2\n      0xff\n      mul\n      not\n      and\n      swap1\n      dup4\n      iszero\n      iszero\n      mul\n      or\n      swap1\n      sstore\n      pop\n      0x00\n      dup3\n      add\n      0x02\n      swap1\n      sload\n      swap1\n      0x0100\n      exp\n      swap1\n      div\n      0xffffffffffffffffffffffffffffffffffffffff\n      and\n      dup2\n      0x00\n      add\n      exp(0x0100, 0x02)\n      dup2\n      sload\n      dup2\n      0xffffffffffffffffffffffffffffffffffffffff\n      mul\n      not\n      and\n      swap1\n      dup4\n      0xffffffffffffffffffffffffffffffffffffffff\n      and\n      mul\n      or\n      swap1\n      sstore\n      pop\n      pop\n      pop\n        /* \"contracts/BusinessConsensus.sol\":3395:4169  if(keccak256(bytes(response)) == keccak256(bytes(\"i approve\"))){\r... */\n      jump(tag_92)\n    tag_87:\n        /* \"contracts/BusinessConsensus.sol\":3758:3779  bytes(\"i disapprove\") */\n      mload(0x40)\n      dup1\n      0x40\n      add\n      0x40\n      mstore\n      dup1\n      0x0c\n      dup2\n      mstore\n      0x20\n      add\n      0x6920646973617070726f76650000000000000000000000000000000000000000\n      dup2\n      mstore\n      pop\n        /* \"contracts/BusinessConsensus.sol\":3748:3780  keccak256(bytes(\"i disapprove\")) */\n      dup1\n      mload\n      swap1\n      0x20\n      add\n      keccak256\n        /* \"contracts/BusinessConsensus.sol\":3734:3742  response */\n      dup2\n        /* \"contracts/BusinessConsensus.sol\":3718:3744  keccak256(bytes(response)) */\n      dup1\n      mload\n      swap1\n      0x20\n      add\n      keccak256\n        /* \"contracts/BusinessConsensus.sol\":3718:3780  keccak256(bytes(response)) == keccak256(bytes(\"i disapprove\")) */\n      eq\n        /* \"contracts/BusinessConsensus.sol\":3715:4169  if(keccak256(bytes(response)) == keccak256(bytes(\"i disapprove\"))){\r... */\n      iszero\n      tag_93\n      jumpi\n        /* \"contracts/BusinessConsensus.sol\":3827:3831  true */\n      0x01\n        /* \"contracts/BusinessConsensus.sol\":3796:3806  voters_map */\n      0x02\n        /* \"contracts/BusinessConsensus.sol\":3796:3818  voters_map[msg.sender] */\n      0x00\n        /* \"contracts/BusinessConsensus.sol\":3807:3817  msg.sender */\n      caller\n        /* \"contracts/BusinessConsensus.sol\":3796:3818  voters_map[msg.sender] */\n      0xffffffffffffffffffffffffffffffffffffffff\n      and\n      0xffffffffffffffffffffffffffffffffffffffff\n      and\n      dup2\n      mstore\n      0x20\n      add\n      swap1\n      dup2\n      mstore\n      0x20\n      add\n      0x00\n      keccak256\n        /* \"contracts/BusinessConsensus.sol\":3796:3824  voters_map[msg.sender].voted */\n      0x00\n      add\n      0x00\n        /* \"contracts/BusinessConsensus.sol\":3796:3831  voters_map[msg.sender].voted = true */\n      0x0100\n      exp\n      dup2\n      sload\n      dup2\n      0xff\n      mul\n      not\n      and\n      swap1\n      dup4\n      iszero\n      iszero\n      mul\n      or\n      swap1\n      sstore\n      pop\n        /* \"contracts/BusinessConsensus.sol\":3868:3869  1 */\n      0x01\n        /* \"contracts/BusinessConsensus.sol\":3846:3854  proposal */\n      0x03\n        /* \"contracts/BusinessConsensus.sol\":3846:3864  proposal.voteCount */\n      0x00\n      add\n      0x00\n        /* \"contracts/BusinessConsensus.sol\":3846:3869  proposal.voteCount += 1 */\n      dup3\n      dup3\n      sload\n      tag_94\n      swap2\n      swap1\n      tag_89\n      jump\t// in\n    tag_94:\n      swap3\n      pop\n      pop\n      dup2\n      swap1\n      sstore\n      pop\n        /* \"contracts/BusinessConsensus.sol\":3884:3890  voters */\n      0x01\n        /* \"contracts/BusinessConsensus.sol\":3896:3906  voters_map */\n      0x02\n        /* \"contracts/BusinessConsensus.sol\":3896:3918  voters_map[msg.sender] */\n      0x00\n        /* \"contracts/BusinessConsensus.sol\":3907:3917  msg.sender */\n      caller\n        /* \"contracts/BusinessConsensus.sol\":3896:3918  voters_map[msg.sender] */\n      0xffffffffffffffffffffffffffffffffffffffff\n      and\n      0xffffffffffffffffffffffffffffffffffffffff\n      and\n      dup2\n      mstore\n      0x20\n      add\n      swap1\n      dup2\n      mstore\n      0x20\n      add\n      0x00\n      keccak256\n        /* \"contracts/BusinessConsensus.sol\":3884:3919  voters.push(voters_map[msg.sender]) */\n      swap1\n      dup1\n      0x01\n      dup2\n      sload\n      add\n      dup1\n      dup3\n      sstore\n      dup1\n      swap2\n      pop\n      pop\n      0x01\n      swap1\n      sub\n      swap1\n      0x00\n      mstore\n      keccak256(0x00, 0x20)\n      add\n      0x00\n      swap1\n      swap2\n      swap1\n      swap2\n      swap1\n      swap2\n      pop\n      0x00\n      dup3\n      add\n      0x00\n      swap1\n      sload\n      swap1\n      0x0100\n      exp\n      swap1\n      div\n      0xff\n      and\n      dup2\n      0x00\n      add\n      exp(0x0100, 0x00)\n      dup2\n      sload\n      dup2\n      0xff\n      mul\n      not\n      and\n      swap1\n      dup4\n      iszero\n      iszero\n      mul\n      or\n      swap1\n      sstore\n      pop\n      0x00\n      dup3\n      add\n      0x01\n      swap1\n      sload\n      swap1\n      0x0100\n      exp\n      swap1\n      div\n      0xff\n      and\n      dup2\n      0x00\n      add\n      exp(0x0100, 0x01)\n      dup2\n      sload\n      dup2\n      0xff\n      mul\n      not\n      and\n      swap1\n      dup4\n      iszero\n      iszero\n      mul\n      or\n      swap1\n      sstore\n      pop\n      0x00\n      dup3\n      add\n      0x02\n      swap1\n      sload\n      swap1\n      0x0100\n      exp\n      swap1\n      div\n      0xffffffffffffffffffffffffffffffffffffffff\n      and\n      dup2\n      0x00\n      add\n      exp(0x0100, 0x02)\n      dup2\n      sload\n      dup2\n      0xffffffffffffffffffffffffffffffffffffffff\n      mul\n      not\n      and\n      swap1\n      dup4\n      0xffffffffffffffffffffffffffffffffffffffff\n      and\n      mul\n      or\n      swap1\n      sstore\n      pop\n      pop\n      pop\n        /* \"contracts/BusinessConsensus.sol\":3715:4169  if(keccak256(bytes(response)) == keccak256(bytes(\"i disapprove\"))){\r... */\n      jump(tag_96)\n    tag_93:\n        /* \"contracts/BusinessConsensus.sol\":4065:4069  true */\n      0x01\n        /* \"contracts/BusinessConsensus.sol\":4034:4044  voters_map */\n      0x02\n        /* \"contracts/BusinessConsensus.sol\":4034:4056  voters_map[msg.sender] */\n      0x00\n        /* \"contracts/BusinessConsensus.sol\":4045:4055  msg.sender */\n      caller\n        /* \"contracts/BusinessConsensus.sol\":4034:4056  voters_map[msg.sender] */\n      0xffffffffffffffffffffffffffffffffffffffff\n      and\n      0xffffffffffffffffffffffffffffffffffffffff\n      and\n      dup2\n      mstore\n      0x20\n      add\n      swap1\n      dup2\n      mstore\n      0x20\n      add\n      0x00\n      keccak256\n        /* \"contracts/BusinessConsensus.sol\":4034:4062  voters_map[msg.sender].voted */\n      0x00\n      add\n      0x00\n        /* \"contracts/BusinessConsensus.sol\":4034:4069  voters_map[msg.sender].voted = true */\n      0x0100\n      exp\n      dup2\n      sload\n      dup2\n      0xff\n      mul\n      not\n      and\n      swap1\n      dup4\n      iszero\n      iszero\n      mul\n      or\n      swap1\n      sstore\n      pop\n        /* \"contracts/BusinessConsensus.sol\":4106:4107  1 */\n      0x01\n        /* \"contracts/BusinessConsensus.sol\":4084:4092  proposal */\n      0x03\n        /* \"contracts/BusinessConsensus.sol\":4084:4102  proposal.voteCount */\n      0x00\n      add\n      0x00\n        /* \"contracts/BusinessConsensus.sol\":4084:4107  proposal.voteCount += 1 */\n      dup3\n      dup3\n      sload\n      tag_97\n      swap2\n      swap1\n      tag_89\n      jump\t// in\n    tag_97:\n      swap3\n      pop\n      pop\n      dup2\n      swap1\n      sstore\n      pop\n        /* \"contracts/BusinessConsensus.sol\":4122:4128  voters */\n      0x01\n        /* \"contracts/BusinessConsensus.sol\":4134:4144  voters_map */\n      0x02\n        /* \"contracts/BusinessConsensus.sol\":4134:4156  voters_map[msg.sender] */\n      0x00\n        /* \"contracts/BusinessConsensus.sol\":4145:4155  msg.sender */\n      caller\n        /* \"contracts/BusinessConsensus.sol\":4134:4156  voters_map[msg.sender] */\n      0xffffffffffffffffffffffffffffffffffffffff\n      and\n      0xffffffffffffffffffffffffffffffffffffffff\n      and\n      dup2\n      mstore\n      0x20\n      add\n      swap1\n      dup2\n      mstore\n      0x20\n      add\n      0x00\n      keccak256\n        /* \"contracts/BusinessConsensus.sol\":4122:4157  voters.push(voters_map[msg.sender]) */\n      swap1\n      dup1\n      0x01\n      dup2\n      sload\n      add\n      dup1\n      dup3\n      sstore\n      dup1\n      swap2\n      pop\n      pop\n      0x01\n      swap1\n      sub\n      swap1\n      0x00\n      mstore\n      keccak256(0x00, 0x20)\n      add\n      0x00\n      swap1\n      swap2\n      swap1\n      swap2\n      swap1\n      swap2\n      pop\n      0x00\n      dup3\n      add\n      0x00\n      swap1\n      sload\n      swap1\n      0x0100\n      exp\n      swap1\n      div\n      0xff\n      and\n      dup2\n      0x00\n      add\n      exp(0x0100, 0x00)\n      dup2\n      sload\n      dup2\n      0xff\n      mul\n      not\n      and\n      swap1\n      dup4\n      iszero\n      iszero\n      mul\n      or\n      swap1\n      sstore\n      pop\n      0x00\n      dup3\n      add\n      0x01\n      swap1\n      sload\n      swap1\n      0x0100\n      exp\n      swap1\n      div\n      0xff\n      and\n      dup2\n      0x00\n      add\n      exp(0x0100, 0x01)\n      dup2\n      sload\n      dup2\n      0xff\n      mul\n      not\n      and\n      swap1\n      dup4\n      iszero\n      iszero\n      mul\n      or\n      swap1\n      sstore\n      pop\n      0x00\n      dup3\n      add\n      0x02\n      swap1\n      sload\n      swap1\n      0x0100\n      exp\n      swap1\n      div\n      0xffffffffffffffffffffffffffffffffffffffff\n      and\n      dup2\n      0x00\n      add\n      exp(0x0100, 0x02)\n      dup2\n      sload\n      dup2\n      0xffffffffffffffffffffffffffffffffffffffff\n      mul\n      not\n      and\n      swap1\n      dup4\n      0xffffffffffffffffffffffffffffffffffffffff\n      and\n      mul\n      or\n      swap1\n      sstore\n      pop\n      pop\n      pop\n        /* \"contracts/BusinessConsensus.sol\":3715:4169  if(keccak256(bytes(response)) == keccak256(bytes(\"i disapprove\"))){\r... */\n    tag_96:\n        /* \"contracts/BusinessConsensus.sol\":3395:4169  if(keccak256(bytes(response)) == keccak256(bytes(\"i approve\"))){\r... */\n    tag_92:\n        /* \"contracts/BusinessConsensus.sol\":3071:4186  function Vote(string memory response) external {\r... */\n      pop\n      jump\t// out\n        /* \"contracts/BusinessConsensus.sol\":2072:2286  function getParameters2(address test_address) external view returns (bool, bool, address){\r... */\n    tag_35:\n        /* \"contracts/BusinessConsensus.sol\":2141:2145  bool */\n      0x00\n        /* \"contracts/BusinessConsensus.sol\":2147:2151  bool */\n      dup1\n        /* \"contracts/BusinessConsensus.sol\":2153:2160  address */\n      0x00\n        /* \"contracts/BusinessConsensus.sol\":2180:2190  voters_map */\n      0x02\n        /* \"contracts/BusinessConsensus.sol\":2180:2204  voters_map[test_address] */\n      0x00\n        /* \"contracts/BusinessConsensus.sol\":2191:2203  test_address */\n      dup6\n        /* \"contracts/BusinessConsensus.sol\":2180:2204  voters_map[test_address] */\n      0xffffffffffffffffffffffffffffffffffffffff\n      and\n      0xffffffffffffffffffffffffffffffffffffffff\n      and\n      dup2\n      mstore\n      0x20\n      add\n      swap1\n      dup2\n      mstore\n      0x20\n      add\n      0x00\n      keccak256\n        /* \"contracts/BusinessConsensus.sol\":2180:2209  voters_map[test_address].vote */\n      0x00\n      add\n      0x01\n      swap1\n      sload\n      swap1\n      0x0100\n      exp\n      swap1\n      div\n      0xff\n      and\n        /* \"contracts/BusinessConsensus.sol\":2211:2221  voters_map */\n      0x02\n        /* \"contracts/BusinessConsensus.sol\":2211:2235  voters_map[test_address] */\n      0x00\n        /* \"contracts/BusinessConsensus.sol\":2222:2234  test_address */\n      dup7\n        /* \"contracts/BusinessConsensus.sol\":2211:2235  voters_map[test_address] */\n      0xffffffffffffffffffffffffffffffffffffffff\n      and\n      0xffffffffffffffffffffffffffffffffffffffff\n      and\n      dup2\n      mstore\n      0x20\n      add\n      swap1\n      dup2\n      mstore\n      0x20\n      add\n      0x00\n      keccak256\n        /* \"contracts/BusinessConsensus.sol\":2211:2241  voters_map[test_address].voted */\n      0x00\n      add\n      0x00\n      swap1\n      sload\n      swap1\n      0x0100\n      exp\n      swap1\n      div\n      0xff\n      and\n        /* \"contracts/BusinessConsensus.sol\":2243:2253  voters_map */\n      0x02\n        /* \"contracts/BusinessConsensus.sol\":2243:2267  voters_map[test_address] */\n      0x00\n        /* \"contracts/BusinessConsensus.sol\":2254:2266  test_address */\n      dup8\n        /* \"contracts/BusinessConsensus.sol\":2243:2267  voters_map[test_address] */\n      0xffffffffffffffffffffffffffffffffffffffff\n      and\n      0xffffffffffffffffffffffffffffffffffffffff\n      and\n      dup2\n      mstore\n      0x20\n      add\n      swap1\n      dup2\n      mstore\n      0x20\n      add\n      0x00\n      keccak256\n        /* \"contracts/BusinessConsensus.sol\":2243:2277  voters_map[test_address].recipient */\n      0x00\n      add\n      0x02\n      swap1\n      sload\n      swap1\n      0x0100\n      exp\n      swap1\n      div\n      0xffffffffffffffffffffffffffffffffffffffff\n      and\n        /* \"contracts/BusinessConsensus.sol\":2172:2278  return (voters_map[test_address].vote, voters_map[test_address].voted, voters_map[test_address].recipient) */\n      swap3\n      pop\n      swap3\n      pop\n      swap3\n      pop\n        /* \"contracts/BusinessConsensus.sol\":2072:2286  function getParameters2(address test_address) external view returns (bool, bool, address){\r... */\n      swap2\n      swap4\n      swap1\n      swap3\n      pop\n      jump\t// out\n        /* \"contracts/BusinessConsensus.sol\":1058:1082  Proposal public proposal */\n    tag_39:\n      0x03\n      dup1\n      0x00\n      add\n      sload\n      swap1\n      dup1\n      0x01\n      add\n      sload\n      swap1\n      dup1\n      0x02\n      add\n      sload\n      swap1\n      dup1\n      0x03\n      add\n      0x00\n      swap1\n      sload\n      swap1\n      0x0100\n      exp\n      swap1\n      div\n      0xffffffffffffffffffffffffffffffffffffffff\n      and\n      swap1\n      dup1\n      0x04\n      add\n      0x00\n      swap1\n      sload\n      swap1\n      0x0100\n      exp\n      swap1\n      div\n      0xffffffffffffffffffffffffffffffffffffffff\n      and\n      swap1\n      dup1\n      0x05\n      add\n      sload\n      swap1\n      dup1\n      0x06\n      add\n      sload\n      swap1\n      dup1\n      0x07\n      add\n      sload\n      swap1\n      dup1\n      0x08\n      add\n      sload\n      swap1\n      dup1\n      0x09\n      add\n      sload\n      swap1\n      pop\n      dup11\n      jump\t// out\n        /* \"contracts/BusinessConsensus.sol\":5060:5289  function retrieve_bundle() external view returns (Proposal memory, Voter[] memory){\r... */\n    tag_43:\n        /* \"contracts/BusinessConsensus.sol\":5110:5125  Proposal memory */\n      tag_100\n      tag_101\n      jump\t// in\n    tag_100:\n        /* \"contracts/BusinessConsensus.sol\":5127:5141  Voter[] memory */\n      0x60\n        /* \"contracts/BusinessConsensus.sol\":5180:5188  proposal */\n      0x03\n        /* \"contracts/BusinessConsensus.sol\":5180:5199  proposal.expiryDate */\n      0x05\n      add\n      sload\n        /* \"contracts/BusinessConsensus.sol\":5161:5176  block.timestamp */\n      timestamp\n        /* \"contracts/BusinessConsensus.sol\":5161:5199  block.timestamp >= proposal.expiryDate */\n      lt\n      iszero\n        /* \"contracts/BusinessConsensus.sol\":5153:5236  require(block.timestamp >= proposal.expiryDate, \"Verdict has not been reached yet\") */\n      tag_103\n      jumpi\n      mload(0x40)\n      0x08c379a000000000000000000000000000000000000000000000000000000000\n      dup2\n      mstore\n      0x04\n      add\n      tag_104\n      swap1\n      tag_105\n      jump\t// in\n    tag_104:\n      mload(0x40)\n      dup1\n      swap2\n      sub\n      swap1\n      revert\n    tag_103:\n        /* \"contracts/BusinessConsensus.sol\":5255:5263  proposal */\n      0x03\n        /* \"contracts/BusinessConsensus.sol\":5264:5270  voters */\n      0x01\n        /* \"contracts/BusinessConsensus.sol\":5247:5271  return (proposal,voters) */\n      dup2\n      mload(0x40)\n      dup1\n      0x0140\n      add\n      0x40\n      mstore\n      swap1\n      dup2\n      0x00\n      dup3\n      add\n      sload\n      dup2\n      mstore\n      0x20\n      add\n      0x01\n      dup3\n      add\n      sload\n      dup2\n      mstore\n      0x20\n      add\n      0x02\n      dup3\n      add\n      sload\n      dup2\n      mstore\n      0x20\n      add\n      0x03\n      dup3\n      add\n      0x00\n      swap1\n      sload\n      swap1\n      0x0100\n      exp\n      swap1\n      div\n      0xffffffffffffffffffffffffffffffffffffffff\n      and\n      0xffffffffffffffffffffffffffffffffffffffff\n      and\n      0xffffffffffffffffffffffffffffffffffffffff\n      and\n      dup2\n      mstore\n      0x20\n      add\n      0x04\n      dup3\n      add\n      0x00\n      swap1\n      sload\n      swap1\n      0x0100\n      exp\n      swap1\n      div\n      0xffffffffffffffffffffffffffffffffffffffff\n      and\n      0xffffffffffffffffffffffffffffffffffffffff\n      and\n      0xffffffffffffffffffffffffffffffffffffffff\n      and\n      dup2\n      mstore\n      0x20\n      add\n      0x05\n      dup3\n      add\n      sload\n      dup2\n      mstore\n      0x20\n      add\n      0x06\n      dup3\n      add\n      sload\n      dup2\n      mstore\n      0x20\n      add\n      0x07\n      dup3\n      add\n      sload\n      dup2\n      mstore\n      0x20\n      add\n      0x08\n      dup3\n      add\n      sload\n      dup2\n      mstore\n      0x20\n      add\n      0x09\n      dup3\n      add\n      sload\n      dup2\n      mstore\n      pop\n      pop\n      swap2\n      pop\n      dup1\n      dup1\n      sload\n      dup1\n      0x20\n      mul\n      0x20\n      add\n      mload(0x40)\n      swap1\n      dup2\n      add\n      0x40\n      mstore\n      dup1\n      swap3\n      swap2\n      swap1\n      dup2\n      dup2\n      mstore\n      0x20\n      add\n      0x00\n      swap1\n    tag_106:\n      dup3\n      dup3\n      lt\n      iszero\n      tag_107\n      jumpi\n      dup4\n      dup3\n      swap1\n      0x00\n      mstore\n      keccak256(0x00, 0x20)\n      add\n      mload(0x40)\n      dup1\n      0x60\n      add\n      0x40\n      mstore\n      swap1\n      dup2\n      0x00\n      dup3\n      add\n      0x00\n      swap1\n      sload\n      swap1\n      0x0100\n      exp\n      swap1\n      div\n      0xff\n      and\n      iszero\n      iszero\n      iszero\n      iszero\n      dup2\n      mstore\n      0x20\n      add\n      0x00\n      dup3\n      add\n      0x01\n      swap1\n      sload\n      swap1\n      0x0100\n      exp\n      swap1\n      div\n      0xff\n      and\n      iszero\n      iszero\n      iszero\n      iszero\n      dup2\n      mstore\n      0x20\n      add\n      0x00\n      dup3\n      add\n      0x02\n      swap1\n      sload\n      swap1\n      0x0100\n      exp\n      swap1\n      div\n      0xffffffffffffffffffffffffffffffffffffffff\n      and\n      0xffffffffffffffffffffffffffffffffffffffff\n      and\n      0xffffffffffffffffffffffffffffffffffffffff\n      and\n      dup2\n      mstore\n      pop\n      pop\n      dup2\n      mstore\n      0x20\n      add\n      swap1\n      0x01\n      add\n      swap1\n      jump(tag_106)\n    tag_107:\n      pop\n      pop\n      pop\n      pop\n      swap1\n      pop\n      swap2\n      pop\n      swap2\n      pop\n        /* \"contracts/BusinessConsensus.sol\":5060:5289  function retrieve_bundle() external view returns (Proposal memory, Voter[] memory){\r... */\n      swap1\n      swap2\n      jump\t// out\n        /* \"contracts/BusinessConsensus.sol\":4250:5052  function Consensus() external {\r... */\n    tag_47:\n        /* \"contracts/BusinessConsensus.sol\":4318:4326  proposal */\n      0x03\n        /* \"contracts/BusinessConsensus.sol\":4318:4337  proposal.expiryDate */\n      0x05\n      add\n      sload\n        /* \"contracts/BusinessConsensus.sol\":4299:4314  block.timestamp */\n      timestamp\n        /* \"contracts/BusinessConsensus.sol\":4299:4337  block.timestamp >= proposal.expiryDate */\n      lt\n      iszero\n        /* \"contracts/BusinessConsensus.sol\":4291:4374  require(block.timestamp >= proposal.expiryDate, \"Verdict has not been reached yet\") */\n      tag_110\n      jumpi\n      mload(0x40)\n      0x08c379a000000000000000000000000000000000000000000000000000000000\n      dup2\n      mstore\n      0x04\n      add\n      tag_111\n      swap1\n      tag_105\n      jump\t// in\n    tag_111:\n      mload(0x40)\n      dup1\n      swap2\n      sub\n      swap1\n      revert\n    tag_110:\n        /* \"contracts/BusinessConsensus.sol\":4420:4421  0 */\n      0x00\n        /* \"contracts/BusinessConsensus.sol\":4393:4401  proposal */\n      0x03\n        /* \"contracts/BusinessConsensus.sol\":4393:4416  proposal.numberCompiled */\n      0x08\n      add\n      sload\n        /* \"contracts/BusinessConsensus.sol\":4393:4421  proposal.numberCompiled == 0 */\n      eq\n        /* \"contracts/BusinessConsensus.sol\":4385:4463  require(proposal.numberCompiled == 0, \"Consensus has already been calculated\") */\n      tag_112\n      jumpi\n      mload(0x40)\n      0x08c379a000000000000000000000000000000000000000000000000000000000\n      dup2\n      mstore\n      0x04\n      add\n      tag_113\n      swap1\n      tag_114\n      jump\t// in\n    tag_113:\n      mload(0x40)\n      dup1\n      swap2\n      sub\n      swap1\n      revert\n    tag_112:\n        /* \"contracts/BusinessConsensus.sol\":4496:4504  proposal */\n      0x03\n        /* \"contracts/BusinessConsensus.sol\":4496:4514  proposal.initiator */\n      0x04\n      add\n      0x00\n      swap1\n      sload\n      swap1\n      0x0100\n      exp\n      swap1\n      div\n      0xffffffffffffffffffffffffffffffffffffffff\n      and\n        /* \"contracts/BusinessConsensus.sol\":4482:4514  msg.sender == proposal.initiator */\n      0xffffffffffffffffffffffffffffffffffffffff\n      and\n        /* \"contracts/BusinessConsensus.sol\":4482:4492  msg.sender */\n      caller\n        /* \"contracts/BusinessConsensus.sol\":4482:4514  msg.sender == proposal.initiator */\n      0xffffffffffffffffffffffffffffffffffffffff\n      and\n      eq\n        /* \"contracts/BusinessConsensus.sol\":4482:4566  msg.sender == proposal.initiator || voters_map[msg.sender].recipient != address(0x0) */\n      dup1\n      tag_115\n      jumpi\n      pop\n        /* \"contracts/BusinessConsensus.sol\":4562:4565  0x0 */\n      0x00\n        /* \"contracts/BusinessConsensus.sol\":4518:4566  voters_map[msg.sender].recipient != address(0x0) */\n      0xffffffffffffffffffffffffffffffffffffffff\n      and\n        /* \"contracts/BusinessConsensus.sol\":4518:4528  voters_map */\n      0x02\n        /* \"contracts/BusinessConsensus.sol\":4518:4540  voters_map[msg.sender] */\n      0x00\n        /* \"contracts/BusinessConsensus.sol\":4529:4539  msg.sender */\n      caller\n        /* \"contracts/BusinessConsensus.sol\":4518:4540  voters_map[msg.sender] */\n      0xffffffffffffffffffffffffffffffffffffffff\n      and\n      0xffffffffffffffffffffffffffffffffffffffff\n      and\n      dup2\n      mstore\n      0x20\n      add\n      swap1\n      dup2\n      mstore\n      0x20\n      add\n      0x00\n      keccak256\n        /* \"contracts/BusinessConsensus.sol\":4518:4550  voters_map[msg.sender].recipient */\n      0x00\n      add\n      0x02\n      swap1\n      sload\n      swap1\n      0x0100\n      exp\n      swap1\n      div\n      0xffffffffffffffffffffffffffffffffffffffff\n      and\n        /* \"contracts/BusinessConsensus.sol\":4518:4566  voters_map[msg.sender].recipient != address(0x0) */\n      0xffffffffffffffffffffffffffffffffffffffff\n      and\n      eq\n      iszero\n        /* \"contracts/BusinessConsensus.sol\":4482:4566  msg.sender == proposal.initiator || voters_map[msg.sender].recipient != address(0x0) */\n    tag_115:\n        /* \"contracts/BusinessConsensus.sol\":4474:4609  require(msg.sender == proposal.initiator || voters_map[msg.sender].recipient != address(0x0), \"You aren't authorize to compile Bundle\") */\n      tag_116\n      jumpi\n      mload(0x40)\n      0x08c379a000000000000000000000000000000000000000000000000000000000\n      dup2\n      mstore\n      0x04\n      add\n      tag_117\n      swap1\n      tag_118\n      jump\t// in\n    tag_117:\n      mload(0x40)\n      dup1\n      swap2\n      sub\n      swap1\n      revert\n    tag_116:\n        /* \"contracts/BusinessConsensus.sol\":4689:4692  100 */\n      0x64\n        /* \"contracts/BusinessConsensus.sol\":4676:4680  keys */\n      0x00\n        /* \"contracts/BusinessConsensus.sol\":4676:4687  keys.length */\n      dup1\n      sload\n      swap1\n      pop\n        /* \"contracts/BusinessConsensus.sol\":4654:4662  proposal */\n      0x03\n        /* \"contracts/BusinessConsensus.sol\":4654:4675  proposal.numApprovals */\n      0x07\n      add\n      sload\n        /* \"contracts/BusinessConsensus.sol\":4654:4687  proposal.numApprovals/keys.length */\n      tag_119\n      swap2\n      swap1\n      tag_120\n      jump\t// in\n    tag_119:\n        /* \"contracts/BusinessConsensus.sol\":4653:4692  (proposal.numApprovals/keys.length)*100 */\n      tag_121\n      swap2\n      swap1\n      tag_122\n      jump\t// in\n    tag_121:\n        /* \"contracts/BusinessConsensus.sol\":4620:4628  proposal */\n      0x03\n        /* \"contracts/BusinessConsensus.sol\":4620:4650  proposal.AccumulatedPercentage */\n      0x06\n      add\n        /* \"contracts/BusinessConsensus.sol\":4620:4692  proposal.AccumulatedPercentage = (proposal.numApprovals/keys.length)*100 */\n      dup2\n      swap1\n      sstore\n      pop\n        /* \"contracts/BusinessConsensus.sol\":4740:4748  proposal */\n      0x03\n        /* \"contracts/BusinessConsensus.sol\":4740:4768  proposal.BusinessRequirement */\n      0x02\n      add\n      sload\n        /* \"contracts/BusinessConsensus.sol\":4706:4714  proposal */\n      0x03\n        /* \"contracts/BusinessConsensus.sol\":4706:4736  proposal.AccumulatedPercentage */\n      0x06\n      add\n      sload\n        /* \"contracts/BusinessConsensus.sol\":4706:4768  proposal.AccumulatedPercentage >= proposal.BusinessRequirement */\n      lt\n        /* \"contracts/BusinessConsensus.sol\":4703:4830  if(proposal.AccumulatedPercentage >= proposal.BusinessRequirement){\r... */\n      tag_123\n      jumpi\n        /* \"contracts/BusinessConsensus.sol\":4784:4818  proposal.finalVerdict = \"Accepted\" */\n      0x4163636570746564000000000000000000000000000000000000000000000000\n        /* \"contracts/BusinessConsensus.sol\":4784:4792  proposal */\n      0x03\n        /* \"contracts/BusinessConsensus.sol\":4784:4805  proposal.finalVerdict */\n      0x09\n      add\n        /* \"contracts/BusinessConsensus.sol\":4784:4818  proposal.finalVerdict = \"Accepted\" */\n      dup2\n      swap1\n      sstore\n      pop\n        /* \"contracts/BusinessConsensus.sol\":4703:4830  if(proposal.AccumulatedPercentage >= proposal.BusinessRequirement){\r... */\n    tag_123:\n        /* \"contracts/BusinessConsensus.sol\":4844:4851  uint8 i */\n      0x00\n        /* \"contracts/BusinessConsensus.sol\":4840:5006  for(uint8 i=0; i< keys.length; i++){\r... */\n    tag_124:\n        /* \"contracts/BusinessConsensus.sol\":4858:4862  keys */\n      0x00\n        /* \"contracts/BusinessConsensus.sol\":4858:4869  keys.length */\n      dup1\n      sload\n      swap1\n      pop\n        /* \"contracts/BusinessConsensus.sol\":4855:4856  i */\n      dup2\n        /* \"contracts/BusinessConsensus.sol\":4855:4869  i< keys.length */\n      0xff\n      and\n      lt\n        /* \"contracts/BusinessConsensus.sol\":4840:5006  for(uint8 i=0; i< keys.length; i++){\r... */\n      iszero\n      tag_125\n      jumpi\n        /* \"contracts/BusinessConsensus.sol\":4922:4927  false */\n      0x00\n        /* \"contracts/BusinessConsensus.sol\":4893:4927  voters_map[keys[i]].voted == false */\n      iszero\n      iszero\n        /* \"contracts/BusinessConsensus.sol\":4893:4903  voters_map */\n      0x02\n        /* \"contracts/BusinessConsensus.sol\":4893:4912  voters_map[keys[i]] */\n      0x00\n        /* \"contracts/BusinessConsensus.sol\":4904:4908  keys */\n      dup1\n        /* \"contracts/BusinessConsensus.sol\":4909:4910  i */\n      dup5\n        /* \"contracts/BusinessConsensus.sol\":4904:4911  keys[i] */\n      0xff\n      and\n      dup2\n      sload\n      dup2\n      lt\n      tag_127\n      jumpi\n      tag_128\n      tag_129\n      jump\t// in\n    tag_128:\n    tag_127:\n      swap1\n      0x00\n      mstore\n      keccak256(0x00, 0x20)\n      add\n      0x00\n      swap1\n      sload\n      swap1\n      0x0100\n      exp\n      swap1\n      div\n      0xffffffffffffffffffffffffffffffffffffffff\n      and\n        /* \"contracts/BusinessConsensus.sol\":4893:4912  voters_map[keys[i]] */\n      0xffffffffffffffffffffffffffffffffffffffff\n      and\n      0xffffffffffffffffffffffffffffffffffffffff\n      and\n      dup2\n      mstore\n      0x20\n      add\n      swap1\n      dup2\n      mstore\n      0x20\n      add\n      0x00\n      keccak256\n        /* \"contracts/BusinessConsensus.sol\":4893:4918  voters_map[keys[i]].voted */\n      0x00\n      add\n      0x00\n      swap1\n      sload\n      swap1\n      0x0100\n      exp\n      swap1\n      div\n      0xff\n      and\n        /* \"contracts/BusinessConsensus.sol\":4893:4927  voters_map[keys[i]].voted == false */\n      iszero\n      iszero\n      eq\n        /* \"contracts/BusinessConsensus.sol\":4890:4995  if(voters_map[keys[i]].voted == false){\r... */\n      iszero\n      tag_131\n      jumpi\n        /* \"contracts/BusinessConsensus.sol\":4947:4953  voters */\n      0x01\n        /* \"contracts/BusinessConsensus.sol\":4959:4969  voters_map */\n      0x02\n        /* \"contracts/BusinessConsensus.sol\":4959:4978  voters_map[keys[i]] */\n      0x00\n        /* \"contracts/BusinessConsensus.sol\":4970:4974  keys */\n      dup1\n        /* \"contracts/BusinessConsensus.sol\":4975:4976  i */\n      dup5\n        /* \"contracts/BusinessConsensus.sol\":4970:4977  keys[i] */\n      0xff\n      and\n      dup2\n      sload\n      dup2\n      lt\n      tag_132\n      jumpi\n      tag_133\n      tag_129\n      jump\t// in\n    tag_133:\n    tag_132:\n      swap1\n      0x00\n      mstore\n      keccak256(0x00, 0x20)\n      add\n      0x00\n      swap1\n      sload\n      swap1\n      0x0100\n      exp\n      swap1\n      div\n      0xffffffffffffffffffffffffffffffffffffffff\n      and\n        /* \"contracts/BusinessConsensus.sol\":4959:4978  voters_map[keys[i]] */\n      0xffffffffffffffffffffffffffffffffffffffff\n      and\n      0xffffffffffffffffffffffffffffffffffffffff\n      and\n      dup2\n      mstore\n      0x20\n      add\n      swap1\n      dup2\n      mstore\n      0x20\n      add\n      0x00\n      keccak256\n        /* \"contracts/BusinessConsensus.sol\":4947:4979  voters.push(voters_map[keys[i]]) */\n      swap1\n      dup1\n      0x01\n      dup2\n      sload\n      add\n      dup1\n      dup3\n      sstore\n      dup1\n      swap2\n      pop\n      pop\n      0x01\n      swap1\n      sub\n      swap1\n      0x00\n      mstore\n      keccak256(0x00, 0x20)\n      add\n      0x00\n      swap1\n      swap2\n      swap1\n      swap2\n      swap1\n      swap2\n      pop\n      0x00\n      dup3\n      add\n      0x00\n      swap1\n      sload\n      swap1\n      0x0100\n      exp\n      swap1\n      div\n      0xff\n      and\n      dup2\n      0x00\n      add\n      exp(0x0100, 0x00)\n      dup2\n      sload\n      dup2\n      0xff\n      mul\n      not\n      and\n      swap1\n      dup4\n      iszero\n      iszero\n      mul\n      or\n      swap1\n      sstore\n      pop\n      0x00\n      dup3\n      add\n      0x01\n      swap1\n      sload\n      swap1\n      0x0100\n      exp\n      swap1\n      div\n      0xff\n      and\n      dup2\n      0x00\n      add\n      exp(0x0100, 0x01)\n      dup2\n      sload\n      dup2\n      0xff\n      mul\n      not\n      and\n      swap1\n      dup4\n      iszero\n      iszero\n      mul\n      or\n      swap1\n      sstore\n      pop\n      0x00\n      dup3\n      add\n      0x02\n      swap1\n      sload\n      swap1\n      0x0100\n      exp\n      swap1\n      div\n      0xffffffffffffffffffffffffffffffffffffffff\n      and\n      dup2\n      0x00\n      add\n      exp(0x0100, 0x02)\n      dup2\n      sload\n      dup2\n      0xffffffffffffffffffffffffffffffffffffffff\n      mul\n      not\n      and\n      swap1\n      dup4\n      0xffffffffffffffffffffffffffffffffffffffff\n      and\n      mul\n      or\n      swap1\n      sstore\n      pop\n      pop\n      pop\n        /* \"contracts/BusinessConsensus.sol\":4890:4995  if(voters_map[keys[i]].voted == false){\r... */\n    tag_131:\n        /* \"contracts/BusinessConsensus.sol\":4871:4874  i++ */\n      dup1\n      dup1\n      tag_136\n      swap1\n      tag_137\n      jump\t// in\n    tag_136:\n      swap2\n      pop\n      pop\n        /* \"contracts/BusinessConsensus.sol\":4840:5006  for(uint8 i=0; i< keys.length; i++){\r... */\n      jump(tag_124)\n    tag_125:\n      pop\n        /* \"contracts/BusinessConsensus.sol\":5043:5044  1 */\n      0x01\n        /* \"contracts/BusinessConsensus.sol\":5016:5024  proposal */\n      0x03\n        /* \"contracts/BusinessConsensus.sol\":5016:5039  proposal.numberCompiled */\n      0x08\n      add\n      0x00\n        /* \"contracts/BusinessConsensus.sol\":5016:5044  proposal.numberCompiled += 1 */\n      dup3\n      dup3\n      sload\n      tag_138\n      swap2\n      swap1\n      tag_89\n      jump\t// in\n    tag_138:\n      swap3\n      pop\n      pop\n      dup2\n      swap1\n      sstore\n      pop\n        /* \"contracts/BusinessConsensus.sol\":4250:5052  function Consensus() external {\r... */\n      jump\t// out\n        /* \"contracts/BusinessConsensus.sol\":938:981  mapping(address => Voter) public voters_map */\n    tag_50:\n      mstore(0x20, 0x02)\n      dup1\n      0x00\n      mstore\n      keccak256(0x00, 0x40)\n      0x00\n      swap2\n      pop\n      swap1\n      pop\n      dup1\n      0x00\n      add\n      0x00\n      swap1\n      sload\n      swap1\n      0x0100\n      exp\n      swap1\n      div\n      0xff\n      and\n      swap1\n      dup1\n      0x00\n      add\n      0x01\n      swap1\n      sload\n      swap1\n      0x0100\n      exp\n      swap1\n      div\n      0xff\n      and\n      swap1\n      dup1\n      0x00\n      add\n      0x02\n      swap1\n      sload\n      swap1\n      0x0100\n      exp\n      swap1\n      div\n      0xffffffffffffffffffffffffffffffffffffffff\n      and\n      swap1\n      pop\n      dup4\n      jump\t// out\n        /* \"contracts/BusinessConsensus.sol\":1846:2066  function getParameters() external view returns (bytes32, uint , address ,uint ,uint){\r... */\n    tag_53:\n        /* \"contracts/BusinessConsensus.sol\":1894:1901  bytes32 */\n      0x00\n        /* \"contracts/BusinessConsensus.sol\":1903:1907  uint */\n      dup1\n        /* \"contracts/BusinessConsensus.sol\":1910:1917  address */\n      0x00\n        /* \"contracts/BusinessConsensus.sol\":1919:1923  uint */\n      dup1\n        /* \"contracts/BusinessConsensus.sol\":1925:1929  uint */\n      0x00\n        /* \"contracts/BusinessConsensus.sol\":1949:1957  proposal */\n      0x03\n        /* \"contracts/BusinessConsensus.sol\":1949:1967  proposal.messageID */\n      0x01\n      add\n      sload\n        /* \"contracts/BusinessConsensus.sol\":1968:1976  proposal */\n      0x03\n        /* \"contracts/BusinessConsensus.sol\":1968:1987  proposal.expiryDate */\n      0x05\n      add\n      sload\n        /* \"contracts/BusinessConsensus.sol\":1988:1996  proposal */\n      0x03\n        /* \"contracts/BusinessConsensus.sol\":1988:2006  proposal.initiator */\n      0x04\n      add\n      0x00\n      swap1\n      sload\n      swap1\n      0x0100\n      exp\n      swap1\n      div\n      0xffffffffffffffffffffffffffffffffffffffff\n      and\n        /* \"contracts/BusinessConsensus.sol\":2007:2015  proposal */\n      0x03\n        /* \"contracts/BusinessConsensus.sol\":2007:2035  proposal.BusinessRequirement */\n      0x02\n      add\n      sload\n        /* \"contracts/BusinessConsensus.sol\":2036:2044  proposal */\n      0x03\n        /* \"contracts/BusinessConsensus.sol\":2036:2057  proposal.numApprovals */\n      0x07\n      add\n      sload\n        /* \"contracts/BusinessConsensus.sol\":1941:2058  return (proposal.messageID,proposal.expiryDate,proposal.initiator,proposal.BusinessRequirement,proposal.numApprovals) */\n      swap5\n      pop\n      swap5\n      pop\n      swap5\n      pop\n      swap5\n      pop\n      swap5\n      pop\n        /* \"contracts/BusinessConsensus.sol\":1846:2066  function getParameters() external view returns (bytes32, uint , address ,uint ,uint){\r... */\n      swap1\n      swap2\n      swap3\n      swap4\n      swap5\n      jump\t// out\n        /* \"contracts/BusinessConsensus.sol\":908:929  Voter[] public voters */\n    tag_58:\n      0x01\n      dup2\n      dup2\n      sload\n      dup2\n      lt\n      tag_140\n      jumpi\n      0x00\n      dup1\n      revert\n    tag_140:\n      swap1\n      0x00\n      mstore\n      keccak256(0x00, 0x20)\n      add\n      0x00\n      swap2\n      pop\n      swap1\n      pop\n      dup1\n      0x00\n      add\n      0x00\n      swap1\n      sload\n      swap1\n      0x0100\n      exp\n      swap1\n      div\n      0xff\n      and\n      swap1\n      dup1\n      0x00\n      add\n      0x01\n      swap1\n      sload\n      swap1\n      0x0100\n      exp\n      swap1\n      div\n      0xff\n      and\n      swap1\n      dup1\n      0x00\n      add\n      0x02\n      swap1\n      sload\n      swap1\n      0x0100\n      exp\n      swap1\n      div\n      0xffffffffffffffffffffffffffffffffffffffff\n      and\n      swap1\n      pop\n      dup4\n      jump\t// out\n    tag_101:\n      mload(0x40)\n      dup1\n      0x0140\n      add\n      0x40\n      mstore\n      dup1\n      0x00\n      dup2\n      mstore\n      0x20\n      add\n      0x00\n      dup1\n      not\n      and\n      dup2\n      mstore\n      0x20\n      add\n      0x00\n      dup2\n      mstore\n      0x20\n      add\n      and(0xffffffffffffffffffffffffffffffffffffffff, 0x00)\n      dup2\n      mstore\n      0x20\n      add\n      and(0xffffffffffffffffffffffffffffffffffffffff, 0x00)\n      dup2\n      mstore\n      0x20\n      add\n      0x00\n      dup2\n      mstore\n      0x20\n      add\n      0x00\n      dup2\n      mstore\n      0x20\n      add\n      0x00\n      dup2\n      mstore\n      0x20\n      add\n      0x00\n      dup2\n      mstore\n      0x20\n      add\n      0x00\n      dup1\n      not\n      and\n      dup2\n      mstore\n      pop\n      swap1\n      jump\t// out\n        /* \"#utility.yul\":7:419   */\n    tag_143:\n        /* \"#utility.yul\":85:90   */\n      0x00\n        /* \"#utility.yul\":110:176   */\n      tag_145\n        /* \"#utility.yul\":126:175   */\n      tag_146\n        /* \"#utility.yul\":168:174   */\n      dup5\n        /* \"#utility.yul\":126:175   */\n      tag_147\n      jump\t// in\n    tag_146:\n        /* \"#utility.yul\":110:176   */\n      tag_148\n      jump\t// in\n    tag_145:\n        /* \"#utility.yul\":101:176   */\n      swap1\n      pop\n        /* \"#utility.yul\":199:205   */\n      dup3\n        /* \"#utility.yul\":192:197   */\n      dup2\n        /* \"#utility.yul\":185:206   */\n      mstore\n        /* \"#utility.yul\":237:241   */\n      0x20\n        /* \"#utility.yul\":230:235   */\n      dup2\n        /* \"#utility.yul\":226:242   */\n      add\n        /* \"#utility.yul\":275:278   */\n      dup5\n        /* \"#utility.yul\":266:272   */\n      dup5\n        /* \"#utility.yul\":261:264   */\n      dup5\n        /* \"#utility.yul\":257:273   */\n      add\n        /* \"#utility.yul\":254:279   */\n      gt\n        /* \"#utility.yul\":251:363   */\n      iszero\n      tag_149\n      jumpi\n        /* \"#utility.yul\":282:361   */\n      tag_150\n      tag_151\n      jump\t// in\n    tag_150:\n        /* \"#utility.yul\":251:363   */\n    tag_149:\n        /* \"#utility.yul\":372:413   */\n      tag_152\n        /* \"#utility.yul\":406:412   */\n      dup5\n        /* \"#utility.yul\":401:404   */\n      dup3\n        /* \"#utility.yul\":396:399   */\n      dup6\n        /* \"#utility.yul\":372:413   */\n      tag_153\n      jump\t// in\n    tag_152:\n        /* \"#utility.yul\":91:419   */\n      pop\n        /* \"#utility.yul\":7:419   */\n      swap4\n      swap3\n      pop\n      pop\n      pop\n      jump\t// out\n        /* \"#utility.yul\":425:564   */\n    tag_154:\n        /* \"#utility.yul\":471:476   */\n      0x00\n        /* \"#utility.yul\":509:515   */\n      dup2\n        /* \"#utility.yul\":496:516   */\n      calldataload\n        /* \"#utility.yul\":487:516   */\n      swap1\n      pop\n        /* \"#utility.yul\":525:558   */\n      tag_156\n        /* \"#utility.yul\":552:557   */\n      dup2\n        /* \"#utility.yul\":525:558   */\n      tag_157\n      jump\t// in\n    tag_156:\n        /* \"#utility.yul\":425:564   */\n      swap3\n      swap2\n      pop\n      pop\n      jump\t// out\n        /* \"#utility.yul\":584:924   */\n    tag_158:\n        /* \"#utility.yul\":640:645   */\n      0x00\n        /* \"#utility.yul\":689:692   */\n      dup3\n        /* \"#utility.yul\":682:686   */\n      0x1f\n        /* \"#utility.yul\":674:680   */\n      dup4\n        /* \"#utility.yul\":670:687   */\n      add\n        /* \"#utility.yul\":666:693   */\n      slt\n        /* \"#utility.yul\":656:778   */\n      tag_160\n      jumpi\n        /* \"#utility.yul\":697:776   */\n      tag_161\n      tag_162\n      jump\t// in\n    tag_161:\n        /* \"#utility.yul\":656:778   */\n    tag_160:\n        /* \"#utility.yul\":814:820   */\n      dup2\n        /* \"#utility.yul\":801:821   */\n      calldataload\n        /* \"#utility.yul\":839:918   */\n      tag_163\n        /* \"#utility.yul\":914:917   */\n      dup5\n        /* \"#utility.yul\":906:912   */\n      dup3\n        /* \"#utility.yul\":899:903   */\n      0x20\n        /* \"#utility.yul\":891:897   */\n      dup7\n        /* \"#utility.yul\":887:904   */\n      add\n        /* \"#utility.yul\":839:918   */\n      tag_143\n      jump\t// in\n    tag_163:\n        /* \"#utility.yul\":830:918   */\n      swap2\n      pop\n        /* \"#utility.yul\":646:924   */\n      pop\n        /* \"#utility.yul\":584:924   */\n      swap3\n      swap2\n      pop\n      pop\n      jump\t// out\n        /* \"#utility.yul\":930:1069   */\n    tag_164:\n        /* \"#utility.yul\":976:981   */\n      0x00\n        /* \"#utility.yul\":1014:1020   */\n      dup2\n        /* \"#utility.yul\":1001:1021   */\n      calldataload\n        /* \"#utility.yul\":992:1021   */\n      swap1\n      pop\n        /* \"#utility.yul\":1030:1063   */\n      tag_166\n        /* \"#utility.yul\":1057:1062   */\n      dup2\n        /* \"#utility.yul\":1030:1063   */\n      tag_167\n      jump\t// in\n    tag_166:\n        /* \"#utility.yul\":930:1069   */\n      swap3\n      swap2\n      pop\n      pop\n      jump\t// out\n        /* \"#utility.yul\":1075:1404   */\n    tag_23:\n        /* \"#utility.yul\":1134:1140   */\n      0x00\n        /* \"#utility.yul\":1183:1185   */\n      0x20\n        /* \"#utility.yul\":1171:1180   */\n      dup3\n        /* \"#utility.yul\":1162:1169   */\n      dup5\n        /* \"#utility.yul\":1158:1181   */\n      sub\n        /* \"#utility.yul\":1154:1186   */\n      slt\n        /* \"#utility.yul\":1151:1270   */\n      iszero\n      tag_169\n      jumpi\n        /* \"#utility.yul\":1189:1268   */\n      tag_170\n      tag_171\n      jump\t// in\n    tag_170:\n        /* \"#utility.yul\":1151:1270   */\n    tag_169:\n        /* \"#utility.yul\":1309:1310   */\n      0x00\n        /* \"#utility.yul\":1334:1387   */\n      tag_172\n        /* \"#utility.yul\":1379:1386   */\n      dup5\n        /* \"#utility.yul\":1370:1376   */\n      dup3\n        /* \"#utility.yul\":1359:1368   */\n      dup6\n        /* \"#utility.yul\":1355:1377   */\n      add\n        /* \"#utility.yul\":1334:1387   */\n      tag_154\n      jump\t// in\n    tag_172:\n        /* \"#utility.yul\":1324:1387   */\n      swap2\n      pop\n        /* \"#utility.yul\":1280:1397   */\n      pop\n        /* \"#utility.yul\":1075:1404   */\n      swap3\n      swap2\n      pop\n      pop\n      jump\t// out\n        /* \"#utility.yul\":1410:1919   */\n    tag_31:\n        /* \"#utility.yul\":1479:1485   */\n      0x00\n        /* \"#utility.yul\":1528:1530   */\n      0x20\n        /* \"#utility.yul\":1516:1525   */\n      dup3\n        /* \"#utility.yul\":1507:1514   */\n      dup5\n        /* \"#utility.yul\":1503:1526   */\n      sub\n        /* \"#utility.yul\":1499:1531   */\n      slt\n        /* \"#utility.yul\":1496:1615   */\n      iszero\n      tag_174\n      jumpi\n        /* \"#utility.yul\":1534:1613   */\n      tag_175\n      tag_171\n      jump\t// in\n    tag_175:\n        /* \"#utility.yul\":1496:1615   */\n    tag_174:\n        /* \"#utility.yul\":1682:1683   */\n      0x00\n        /* \"#utility.yul\":1671:1680   */\n      dup3\n        /* \"#utility.yul\":1667:1684   */\n      add\n        /* \"#utility.yul\":1654:1685   */\n      calldataload\n        /* \"#utility.yul\":1712:1730   */\n      0xffffffffffffffff\n        /* \"#utility.yul\":1704:1710   */\n      dup2\n        /* \"#utility.yul\":1701:1731   */\n      gt\n        /* \"#utility.yul\":1698:1815   */\n      iszero\n      tag_176\n      jumpi\n        /* \"#utility.yul\":1734:1813   */\n      tag_177\n      tag_178\n      jump\t// in\n    tag_177:\n        /* \"#utility.yul\":1698:1815   */\n    tag_176:\n        /* \"#utility.yul\":1839:1902   */\n      tag_179\n        /* \"#utility.yul\":1894:1901   */\n      dup5\n        /* \"#utility.yul\":1885:1891   */\n      dup3\n        /* \"#utility.yul\":1874:1883   */\n      dup6\n        /* \"#utility.yul\":1870:1892   */\n      add\n        /* \"#utility.yul\":1839:1902   */\n      tag_158\n      jump\t// in\n    tag_179:\n        /* \"#utility.yul\":1829:1902   */\n      swap2\n      pop\n        /* \"#utility.yul\":1625:1912   */\n      pop\n        /* \"#utility.yul\":1410:1919   */\n      swap3\n      swap2\n      pop\n      pop\n      jump\t// out\n        /* \"#utility.yul\":1925:2254   */\n    tag_17:\n        /* \"#utility.yul\":1984:1990   */\n      0x00\n        /* \"#utility.yul\":2033:2035   */\n      0x20\n        /* \"#utility.yul\":2021:2030   */\n      dup3\n        /* \"#utility.yul\":2012:2019   */\n      dup5\n        /* \"#utility.yul\":2008:2031   */\n      sub\n        /* \"#utility.yul\":2004:2036   */\n      slt\n        /* \"#utility.yul\":2001:2120   */\n      iszero\n      tag_181\n      jumpi\n        /* \"#utility.yul\":2039:2118   */\n      tag_182\n      tag_171\n      jump\t// in\n    tag_182:\n        /* \"#utility.yul\":2001:2120   */\n    tag_181:\n        /* \"#utility.yul\":2159:2160   */\n      0x00\n        /* \"#utility.yul\":2184:2237   */\n      tag_183\n        /* \"#utility.yul\":2229:2236   */\n      dup5\n        /* \"#utility.yul\":2220:2226   */\n      dup3\n        /* \"#utility.yul\":2209:2218   */\n      dup6\n        /* \"#utility.yul\":2205:2227   */\n      add\n        /* \"#utility.yul\":2184:2237   */\n      tag_164\n      jump\t// in\n    tag_183:\n        /* \"#utility.yul\":2174:2237   */\n      swap2\n      pop\n        /* \"#utility.yul\":2130:2247   */\n      pop\n        /* \"#utility.yul\":1925:2254   */\n      swap3\n      swap2\n      pop\n      pop\n      jump\t// out\n        /* \"#utility.yul\":2260:2519   */\n    tag_184:\n        /* \"#utility.yul\":2369:2379   */\n      0x00\n        /* \"#utility.yul\":2390:2476   */\n      tag_186\n        /* \"#utility.yul\":2472:2475   */\n      dup4\n        /* \"#utility.yul\":2464:2470   */\n      dup4\n        /* \"#utility.yul\":2390:2476   */\n      tag_187\n      jump\t// in\n    tag_186:\n        /* \"#utility.yul\":2508:2512   */\n      0x60\n        /* \"#utility.yul\":2503:2506   */\n      dup4\n        /* \"#utility.yul\":2499:2513   */\n      add\n        /* \"#utility.yul\":2485:2513   */\n      swap1\n      pop\n        /* \"#utility.yul\":2260:2519   */\n      swap3\n      swap2\n      pop\n      pop\n      jump\t// out\n        /* \"#utility.yul\":2525:2633   */\n    tag_188:\n        /* \"#utility.yul\":2602:2626   */\n      tag_190\n        /* \"#utility.yul\":2620:2625   */\n      dup2\n        /* \"#utility.yul\":2602:2626   */\n      tag_191\n      jump\t// in\n    tag_190:\n        /* \"#utility.yul\":2597:2600   */\n      dup3\n        /* \"#utility.yul\":2590:2627   */\n      mstore\n        /* \"#utility.yul\":2525:2633   */\n      pop\n      pop\n      jump\t// out\n        /* \"#utility.yul\":2639:2757   */\n    tag_192:\n        /* \"#utility.yul\":2726:2750   */\n      tag_194\n        /* \"#utility.yul\":2744:2749   */\n      dup2\n        /* \"#utility.yul\":2726:2750   */\n      tag_191\n      jump\t// in\n    tag_194:\n        /* \"#utility.yul\":2721:2724   */\n      dup3\n        /* \"#utility.yul\":2714:2751   */\n      mstore\n        /* \"#utility.yul\":2639:2757   */\n      pop\n      pop\n      jump\t// out\n        /* \"#utility.yul\":2839:3731   */\n    tag_195:\n        /* \"#utility.yul\":2998:3001   */\n      0x00\n        /* \"#utility.yul\":3027:3101   */\n      tag_197\n        /* \"#utility.yul\":3095:3100   */\n      dup3\n        /* \"#utility.yul\":3027:3101   */\n      tag_198\n      jump\t// in\n    tag_197:\n        /* \"#utility.yul\":3117:3223   */\n      tag_199\n        /* \"#utility.yul\":3216:3222   */\n      dup2\n        /* \"#utility.yul\":3211:3214   */\n      dup6\n        /* \"#utility.yul\":3117:3223   */\n      tag_200\n      jump\t// in\n    tag_199:\n        /* \"#utility.yul\":3110:3223   */\n      swap4\n      pop\n        /* \"#utility.yul\":3247:3323   */\n      tag_201\n        /* \"#utility.yul\":3317:3322   */\n      dup4\n        /* \"#utility.yul\":3247:3323   */\n      tag_202\n      jump\t// in\n    tag_201:\n        /* \"#utility.yul\":3346:3353   */\n      dup1\n        /* \"#utility.yul\":3377:3378   */\n      0x00\n        /* \"#utility.yul\":3362:3706   */\n    tag_203:\n        /* \"#utility.yul\":3387:3393   */\n      dup4\n        /* \"#utility.yul\":3384:3385   */\n      dup2\n        /* \"#utility.yul\":3381:3394   */\n      lt\n        /* \"#utility.yul\":3362:3706   */\n      iszero\n      tag_205\n      jumpi\n        /* \"#utility.yul\":3463:3469   */\n      dup2\n        /* \"#utility.yul\":3457:3470   */\n      mload\n        /* \"#utility.yul\":3490:3593   */\n      tag_206\n        /* \"#utility.yul\":3589:3592   */\n      dup9\n        /* \"#utility.yul\":3574:3587   */\n      dup3\n        /* \"#utility.yul\":3490:3593   */\n      tag_184\n      jump\t// in\n    tag_206:\n        /* \"#utility.yul\":3483:3593   */\n      swap8\n      pop\n        /* \"#utility.yul\":3616:3696   */\n      tag_207\n        /* \"#utility.yul\":3689:3695   */\n      dup4\n        /* \"#utility.yul\":3616:3696   */\n      tag_208\n      jump\t// in\n    tag_207:\n        /* \"#utility.yul\":3606:3696   */\n      swap3\n      pop\n        /* \"#utility.yul\":3422:3706   */\n      pop\n        /* \"#utility.yul\":3409:3410   */\n      0x01\n        /* \"#utility.yul\":3406:3407   */\n      dup2\n        /* \"#utility.yul\":3402:3411   */\n      add\n        /* \"#utility.yul\":3397:3411   */\n      swap1\n      pop\n        /* \"#utility.yul\":3362:3706   */\n      jump(tag_203)\n    tag_205:\n        /* \"#utility.yul\":3366:3380   */\n      pop\n        /* \"#utility.yul\":3722:3725   */\n      dup6\n        /* \"#utility.yul\":3715:3725   */\n      swap4\n      pop\n        /* \"#utility.yul\":3003:3731   */\n      pop\n      pop\n      pop\n        /* \"#utility.yul\":2839:3731   */\n      swap3\n      swap2\n      pop\n      pop\n      jump\t// out\n        /* \"#utility.yul\":3737:3836   */\n    tag_209:\n        /* \"#utility.yul\":3808:3829   */\n      tag_211\n        /* \"#utility.yul\":3823:3828   */\n      dup2\n        /* \"#utility.yul\":3808:3829   */\n      tag_212\n      jump\t// in\n    tag_211:\n        /* \"#utility.yul\":3803:3806   */\n      dup3\n        /* \"#utility.yul\":3796:3830   */\n      mstore\n        /* \"#utility.yul\":3737:3836   */\n      pop\n      pop\n      jump\t// out\n        /* \"#utility.yul\":3842:3951   */\n    tag_213:\n        /* \"#utility.yul\":3923:3944   */\n      tag_215\n        /* \"#utility.yul\":3938:3943   */\n      dup2\n        /* \"#utility.yul\":3923:3944   */\n      tag_212\n      jump\t// in\n    tag_215:\n        /* \"#utility.yul\":3918:3921   */\n      dup3\n        /* \"#utility.yul\":3911:3945   */\n      mstore\n        /* \"#utility.yul\":3842:3951   */\n      pop\n      pop\n      jump\t// out\n        /* \"#utility.yul\":3957:4065   */\n    tag_216:\n        /* \"#utility.yul\":4034:4058   */\n      tag_218\n        /* \"#utility.yul\":4052:4057   */\n      dup2\n        /* \"#utility.yul\":4034:4058   */\n      tag_219\n      jump\t// in\n    tag_218:\n        /* \"#utility.yul\":4029:4032   */\n      dup3\n        /* \"#utility.yul\":4022:4059   */\n      mstore\n        /* \"#utility.yul\":3957:4065   */\n      pop\n      pop\n      jump\t// out\n        /* \"#utility.yul\":4071:4189   */\n    tag_220:\n        /* \"#utility.yul\":4158:4182   */\n      tag_222\n        /* \"#utility.yul\":4176:4181   */\n      dup2\n        /* \"#utility.yul\":4158:4182   */\n      tag_219\n      jump\t// in\n    tag_222:\n        /* \"#utility.yul\":4153:4156   */\n      dup3\n        /* \"#utility.yul\":4146:4183   */\n      mstore\n        /* \"#utility.yul\":4071:4189   */\n      pop\n      pop\n      jump\t// out\n        /* \"#utility.yul\":4195:4561   */\n    tag_223:\n        /* \"#utility.yul\":4337:4340   */\n      0x00\n        /* \"#utility.yul\":4358:4425   */\n      tag_225\n        /* \"#utility.yul\":4422:4424   */\n      0x1f\n        /* \"#utility.yul\":4417:4420   */\n      dup4\n        /* \"#utility.yul\":4358:4425   */\n      tag_226\n      jump\t// in\n    tag_225:\n        /* \"#utility.yul\":4351:4425   */\n      swap2\n      pop\n        /* \"#utility.yul\":4434:4527   */\n      tag_227\n        /* \"#utility.yul\":4523:4526   */\n      dup3\n        /* \"#utility.yul\":4434:4527   */\n      tag_228\n      jump\t// in\n    tag_227:\n        /* \"#utility.yul\":4552:4554   */\n      0x20\n        /* \"#utility.yul\":4547:4550   */\n      dup3\n        /* \"#utility.yul\":4543:4555   */\n      add\n        /* \"#utility.yul\":4536:4555   */\n      swap1\n      pop\n        /* \"#utility.yul\":4195:4561   */\n      swap2\n      swap1\n      pop\n      jump\t// out\n        /* \"#utility.yul\":4567:4933   */\n    tag_229:\n        /* \"#utility.yul\":4709:4712   */\n      0x00\n        /* \"#utility.yul\":4730:4797   */\n      tag_231\n        /* \"#utility.yul\":4794:4796   */\n      0x26\n        /* \"#utility.yul\":4789:4792   */\n      dup4\n        /* \"#utility.yul\":4730:4797   */\n      tag_226\n      jump\t// in\n    tag_231:\n        /* \"#utility.yul\":4723:4797   */\n      swap2\n      pop\n        /* \"#utility.yul\":4806:4899   */\n      tag_232\n        /* \"#utility.yul\":4895:4898   */\n      dup3\n        /* \"#utility.yul\":4806:4899   */\n      tag_233\n      jump\t// in\n    tag_232:\n        /* \"#utility.yul\":4924:4926   */\n      0x40\n        /* \"#utility.yul\":4919:4922   */\n      dup3\n        /* \"#utility.yul\":4915:4927   */\n      add\n        /* \"#utility.yul\":4908:4927   */\n      swap1\n      pop\n        /* \"#utility.yul\":4567:4933   */\n      swap2\n      swap1\n      pop\n      jump\t// out\n        /* \"#utility.yul\":4939:5305   */\n    tag_234:\n        /* \"#utility.yul\":5081:5084   */\n      0x00\n        /* \"#utility.yul\":5102:5169   */\n      tag_236\n        /* \"#utility.yul\":5166:5168   */\n      0x1c\n        /* \"#utility.yul\":5161:5164   */\n      dup4\n        /* \"#utility.yul\":5102:5169   */\n      tag_226\n      jump\t// in\n    tag_236:\n        /* \"#utility.yul\":5095:5169   */\n      swap2\n      pop\n        /* \"#utility.yul\":5178:5271   */\n      tag_237\n        /* \"#utility.yul\":5267:5270   */\n      dup3\n        /* \"#utility.yul\":5178:5271   */\n      tag_238\n      jump\t// in\n    tag_237:\n        /* \"#utility.yul\":5296:5298   */\n      0x20\n        /* \"#utility.yul\":5291:5294   */\n      dup3\n        /* \"#utility.yul\":5287:5299   */\n      add\n        /* \"#utility.yul\":5280:5299   */\n      swap1\n      pop\n        /* \"#utility.yul\":4939:5305   */\n      swap2\n      swap1\n      pop\n      jump\t// out\n        /* \"#utility.yul\":5311:5677   */\n    tag_239:\n        /* \"#utility.yul\":5453:5456   */\n      0x00\n        /* \"#utility.yul\":5474:5541   */\n      tag_241\n        /* \"#utility.yul\":5538:5540   */\n      0x15\n        /* \"#utility.yul\":5533:5536   */\n      dup4\n        /* \"#utility.yul\":5474:5541   */\n      tag_226\n      jump\t// in\n    tag_241:\n        /* \"#utility.yul\":5467:5541   */\n      swap2\n      pop\n        /* \"#utility.yul\":5550:5643   */\n      tag_242\n        /* \"#utility.yul\":5639:5642   */\n      dup3\n        /* \"#utility.yul\":5550:5643   */\n      tag_243\n      jump\t// in\n    tag_242:\n        /* \"#utility.yul\":5668:5670   */\n      0x20\n        /* \"#utility.yul\":5663:5666   */\n      dup3\n        /* \"#utility.yul\":5659:5671   */\n      add\n        /* \"#utility.yul\":5652:5671   */\n      swap1\n      pop\n        /* \"#utility.yul\":5311:5677   */\n      swap2\n      swap1\n      pop\n      jump\t// out\n        /* \"#utility.yul\":5683:6049   */\n    tag_244:\n        /* \"#utility.yul\":5825:5828   */\n      0x00\n        /* \"#utility.yul\":5846:5913   */\n      tag_246\n        /* \"#utility.yul\":5910:5912   */\n      0x1e\n        /* \"#utility.yul\":5905:5908   */\n      dup4\n        /* \"#utility.yul\":5846:5913   */\n      tag_226\n      jump\t// in\n    tag_246:\n        /* \"#utility.yul\":5839:5913   */\n      swap2\n      pop\n        /* \"#utility.yul\":5922:6015   */\n      tag_247\n        /* \"#utility.yul\":6011:6014   */\n      dup3\n        /* \"#utility.yul\":5922:6015   */\n      tag_248\n      jump\t// in\n    tag_247:\n        /* \"#utility.yul\":6040:6042   */\n      0x20\n        /* \"#utility.yul\":6035:6038   */\n      dup3\n        /* \"#utility.yul\":6031:6043   */\n      add\n        /* \"#utility.yul\":6024:6043   */\n      swap1\n      pop\n        /* \"#utility.yul\":5683:6049   */\n      swap2\n      swap1\n      pop\n      jump\t// out\n        /* \"#utility.yul\":6055:6421   */\n    tag_249:\n        /* \"#utility.yul\":6197:6200   */\n      0x00\n        /* \"#utility.yul\":6218:6285   */\n      tag_251\n        /* \"#utility.yul\":6282:6284   */\n      0x24\n        /* \"#utility.yul\":6277:6280   */\n      dup4\n        /* \"#utility.yul\":6218:6285   */\n      tag_226\n      jump\t// in\n    tag_251:\n        /* \"#utility.yul\":6211:6285   */\n      swap2\n      pop\n        /* \"#utility.yul\":6294:6387   */\n      tag_252\n        /* \"#utility.yul\":6383:6386   */\n      dup3\n        /* \"#utility.yul\":6294:6387   */\n      tag_253\n      jump\t// in\n    tag_252:\n        /* \"#utility.yul\":6412:6414   */\n      0x40\n        /* \"#utility.yul\":6407:6410   */\n      dup3\n        /* \"#utility.yul\":6403:6415   */\n      add\n        /* \"#utility.yul\":6396:6415   */\n      swap1\n      pop\n        /* \"#utility.yul\":6055:6421   */\n      swap2\n      swap1\n      pop\n      jump\t// out\n        /* \"#utility.yul\":6427:6793   */\n    tag_254:\n        /* \"#utility.yul\":6569:6572   */\n      0x00\n        /* \"#utility.yul\":6590:6657   */\n      tag_256\n        /* \"#utility.yul\":6654:6656   */\n      0x28\n        /* \"#utility.yul\":6649:6652   */\n      dup4\n        /* \"#utility.yul\":6590:6657   */\n      tag_226\n      jump\t// in\n    tag_256:\n        /* \"#utility.yul\":6583:6657   */\n      swap2\n      pop\n        /* \"#utility.yul\":6666:6759   */\n      tag_257\n        /* \"#utility.yul\":6755:6758   */\n      dup3\n        /* \"#utility.yul\":6666:6759   */\n      tag_258\n      jump\t// in\n    tag_257:\n        /* \"#utility.yul\":6784:6786   */\n      0x40\n        /* \"#utility.yul\":6779:6782   */\n      dup3\n        /* \"#utility.yul\":6775:6787   */\n      add\n        /* \"#utility.yul\":6768:6787   */\n      swap1\n      pop\n        /* \"#utility.yul\":6427:6793   */\n      swap2\n      swap1\n      pop\n      jump\t// out\n        /* \"#utility.yul\":6799:7165   */\n    tag_259:\n        /* \"#utility.yul\":6941:6944   */\n      0x00\n        /* \"#utility.yul\":6962:7029   */\n      tag_261\n        /* \"#utility.yul\":7026:7028   */\n      0x20\n        /* \"#utility.yul\":7021:7024   */\n      dup4\n        /* \"#utility.yul\":6962:7029   */\n      tag_226\n      jump\t// in\n    tag_261:\n        /* \"#utility.yul\":6955:7029   */\n      swap2\n      pop\n        /* \"#utility.yul\":7038:7131   */\n      tag_262\n        /* \"#utility.yul\":7127:7130   */\n      dup3\n        /* \"#utility.yul\":7038:7131   */\n      tag_263\n      jump\t// in\n    tag_262:\n        /* \"#utility.yul\":7156:7158   */\n      0x20\n        /* \"#utility.yul\":7151:7154   */\n      dup3\n        /* \"#utility.yul\":7147:7159   */\n      add\n        /* \"#utility.yul\":7140:7159   */\n      swap1\n      pop\n        /* \"#utility.yul\":6799:7165   */\n      swap2\n      swap1\n      pop\n      jump\t// out\n        /* \"#utility.yul\":7171:7537   */\n    tag_264:\n        /* \"#utility.yul\":7313:7316   */\n      0x00\n        /* \"#utility.yul\":7334:7401   */\n      tag_266\n        /* \"#utility.yul\":7398:7400   */\n      0x12\n        /* \"#utility.yul\":7393:7396   */\n      dup4\n        /* \"#utility.yul\":7334:7401   */\n      tag_226\n      jump\t// in\n    tag_266:\n        /* \"#utility.yul\":7327:7401   */\n      swap2\n      pop\n        /* \"#utility.yul\":7410:7503   */\n      tag_267\n        /* \"#utility.yul\":7499:7502   */\n      dup3\n        /* \"#utility.yul\":7410:7503   */\n      tag_268\n      jump\t// in\n    tag_267:\n        /* \"#utility.yul\":7528:7530   */\n      0x20\n        /* \"#utility.yul\":7523:7526   */\n      dup3\n        /* \"#utility.yul\":7519:7531   */\n      add\n        /* \"#utility.yul\":7512:7531   */\n      swap1\n      pop\n        /* \"#utility.yul\":7171:7537   */\n      swap2\n      swap1\n      pop\n      jump\t// out\n        /* \"#utility.yul\":7543:7909   */\n    tag_269:\n        /* \"#utility.yul\":7685:7688   */\n      0x00\n        /* \"#utility.yul\":7706:7773   */\n      tag_271\n        /* \"#utility.yul\":7770:7772   */\n      0x25\n        /* \"#utility.yul\":7765:7768   */\n      dup4\n        /* \"#utility.yul\":7706:7773   */\n      tag_226\n      jump\t// in\n    tag_271:\n        /* \"#utility.yul\":7699:7773   */\n      swap2\n      pop\n        /* \"#utility.yul\":7782:7875   */\n      tag_272\n        /* \"#utility.yul\":7871:7874   */\n      dup3\n        /* \"#utility.yul\":7782:7875   */\n      tag_273\n      jump\t// in\n    tag_272:\n        /* \"#utility.yul\":7900:7902   */\n      0x40\n        /* \"#utility.yul\":7895:7898   */\n      dup3\n        /* \"#utility.yul\":7891:7903   */\n      add\n        /* \"#utility.yul\":7884:7903   */\n      swap1\n      pop\n        /* \"#utility.yul\":7543:7909   */\n      swap2\n      swap1\n      pop\n      jump\t// out\n        /* \"#utility.yul\":7993:9990   */\n    tag_274:\n        /* \"#utility.yul\":8138:8144   */\n      0x0140\n        /* \"#utility.yul\":8133:8136   */\n      dup3\n        /* \"#utility.yul\":8129:8145   */\n      add\n        /* \"#utility.yul\":8232:8236   */\n      0x00\n        /* \"#utility.yul\":8225:8230   */\n      dup3\n        /* \"#utility.yul\":8221:8237   */\n      add\n        /* \"#utility.yul\":8215:8238   */\n      mload\n        /* \"#utility.yul\":8251:8314   */\n      tag_276\n        /* \"#utility.yul\":8308:8312   */\n      0x00\n        /* \"#utility.yul\":8303:8306   */\n      dup6\n        /* \"#utility.yul\":8299:8313   */\n      add\n        /* \"#utility.yul\":8285:8297   */\n      dup3\n        /* \"#utility.yul\":8251:8314   */\n      tag_277\n      jump\t// in\n    tag_276:\n        /* \"#utility.yul\":8155:8324   */\n      pop\n        /* \"#utility.yul\":8411:8415   */\n      0x20\n        /* \"#utility.yul\":8404:8409   */\n      dup3\n        /* \"#utility.yul\":8400:8416   */\n      add\n        /* \"#utility.yul\":8394:8417   */\n      mload\n        /* \"#utility.yul\":8430:8493   */\n      tag_278\n        /* \"#utility.yul\":8487:8491   */\n      0x20\n        /* \"#utility.yul\":8482:8485   */\n      dup6\n        /* \"#utility.yul\":8478:8492   */\n      add\n        /* \"#utility.yul\":8464:8476   */\n      dup3\n        /* \"#utility.yul\":8430:8493   */\n      tag_216\n      jump\t// in\n    tag_278:\n        /* \"#utility.yul\":8334:8503   */\n      pop\n        /* \"#utility.yul\":8600:8604   */\n      0x40\n        /* \"#utility.yul\":8593:8598   */\n      dup3\n        /* \"#utility.yul\":8589:8605   */\n      add\n        /* \"#utility.yul\":8583:8606   */\n      mload\n        /* \"#utility.yul\":8619:8682   */\n      tag_279\n        /* \"#utility.yul\":8676:8680   */\n      0x40\n        /* \"#utility.yul\":8671:8674   */\n      dup6\n        /* \"#utility.yul\":8667:8681   */\n      add\n        /* \"#utility.yul\":8653:8665   */\n      dup3\n        /* \"#utility.yul\":8619:8682   */\n      tag_277\n      jump\t// in\n    tag_279:\n        /* \"#utility.yul\":8513:8692   */\n      pop\n        /* \"#utility.yul\":8785:8789   */\n      0x60\n        /* \"#utility.yul\":8778:8783   */\n      dup3\n        /* \"#utility.yul\":8774:8790   */\n      add\n        /* \"#utility.yul\":8768:8791   */\n      mload\n        /* \"#utility.yul\":8804:8867   */\n      tag_280\n        /* \"#utility.yul\":8861:8865   */\n      0x60\n        /* \"#utility.yul\":8856:8859   */\n      dup6\n        /* \"#utility.yul\":8852:8866   */\n      add\n        /* \"#utility.yul\":8838:8850   */\n      dup3\n        /* \"#utility.yul\":8804:8867   */\n      tag_188\n      jump\t// in\n    tag_280:\n        /* \"#utility.yul\":8702:8877   */\n      pop\n        /* \"#utility.yul\":8964:8968   */\n      0x80\n        /* \"#utility.yul\":8957:8962   */\n      dup3\n        /* \"#utility.yul\":8953:8969   */\n      add\n        /* \"#utility.yul\":8947:8970   */\n      mload\n        /* \"#utility.yul\":8983:9046   */\n      tag_281\n        /* \"#utility.yul\":9040:9044   */\n      0x80\n        /* \"#utility.yul\":9035:9038   */\n      dup6\n        /* \"#utility.yul\":9031:9045   */\n      add\n        /* \"#utility.yul\":9017:9029   */\n      dup3\n        /* \"#utility.yul\":8983:9046   */\n      tag_188\n      jump\t// in\n    tag_281:\n        /* \"#utility.yul\":8887:9056   */\n      pop\n        /* \"#utility.yul\":9144:9148   */\n      0xa0\n        /* \"#utility.yul\":9137:9142   */\n      dup3\n        /* \"#utility.yul\":9133:9149   */\n      add\n        /* \"#utility.yul\":9127:9150   */\n      mload\n        /* \"#utility.yul\":9163:9226   */\n      tag_282\n        /* \"#utility.yul\":9220:9224   */\n      0xa0\n        /* \"#utility.yul\":9215:9218   */\n      dup6\n        /* \"#utility.yul\":9211:9225   */\n      add\n        /* \"#utility.yul\":9197:9209   */\n      dup3\n        /* \"#utility.yul\":9163:9226   */\n      tag_277\n      jump\t// in\n    tag_282:\n        /* \"#utility.yul\":9066:9236   */\n      pop\n        /* \"#utility.yul\":9335:9339   */\n      0xc0\n        /* \"#utility.yul\":9328:9333   */\n      dup3\n        /* \"#utility.yul\":9324:9340   */\n      add\n        /* \"#utility.yul\":9318:9341   */\n      mload\n        /* \"#utility.yul\":9354:9417   */\n      tag_283\n        /* \"#utility.yul\":9411:9415   */\n      0xc0\n        /* \"#utility.yul\":9406:9409   */\n      dup6\n        /* \"#utility.yul\":9402:9416   */\n      add\n        /* \"#utility.yul\":9388:9400   */\n      dup3\n        /* \"#utility.yul\":9354:9417   */\n      tag_277\n      jump\t// in\n    tag_283:\n        /* \"#utility.yul\":9246:9427   */\n      pop\n        /* \"#utility.yul\":9517:9521   */\n      0xe0\n        /* \"#utility.yul\":9510:9515   */\n      dup3\n        /* \"#utility.yul\":9506:9522   */\n      add\n        /* \"#utility.yul\":9500:9523   */\n      mload\n        /* \"#utility.yul\":9536:9599   */\n      tag_284\n        /* \"#utility.yul\":9593:9597   */\n      0xe0\n        /* \"#utility.yul\":9588:9591   */\n      dup6\n        /* \"#utility.yul\":9584:9598   */\n      add\n        /* \"#utility.yul\":9570:9582   */\n      dup3\n        /* \"#utility.yul\":9536:9599   */\n      tag_277\n      jump\t// in\n    tag_284:\n        /* \"#utility.yul\":9437:9609   */\n      pop\n        /* \"#utility.yul\":9701:9707   */\n      0x0100\n        /* \"#utility.yul\":9694:9699   */\n      dup3\n        /* \"#utility.yul\":9690:9708   */\n      add\n        /* \"#utility.yul\":9684:9709   */\n      mload\n        /* \"#utility.yul\":9722:9787   */\n      tag_285\n        /* \"#utility.yul\":9779:9785   */\n      0x0100\n        /* \"#utility.yul\":9774:9777   */\n      dup6\n        /* \"#utility.yul\":9770:9786   */\n      add\n        /* \"#utility.yul\":9756:9768   */\n      dup3\n        /* \"#utility.yul\":9722:9787   */\n      tag_277\n      jump\t// in\n    tag_285:\n        /* \"#utility.yul\":9619:9797   */\n      pop\n        /* \"#utility.yul\":9887:9893   */\n      0x0120\n        /* \"#utility.yul\":9880:9885   */\n      dup3\n        /* \"#utility.yul\":9876:9894   */\n      add\n        /* \"#utility.yul\":9870:9895   */\n      mload\n        /* \"#utility.yul\":9908:9973   */\n      tag_286\n        /* \"#utility.yul\":9965:9971   */\n      0x0120\n        /* \"#utility.yul\":9960:9963   */\n      dup6\n        /* \"#utility.yul\":9956:9972   */\n      add\n        /* \"#utility.yul\":9942:9954   */\n      dup3\n        /* \"#utility.yul\":9908:9973   */\n      tag_216\n      jump\t// in\n    tag_286:\n        /* \"#utility.yul\":9807:9983   */\n      pop\n        /* \"#utility.yul\":8107:9990   */\n      pop\n        /* \"#utility.yul\":7993:9990   */\n      pop\n      pop\n      jump\t// out\n        /* \"#utility.yul\":10068:10723   */\n    tag_187:\n        /* \"#utility.yul\":10195:10199   */\n      0x60\n        /* \"#utility.yul\":10190:10193   */\n      dup3\n        /* \"#utility.yul\":10186:10200   */\n      add\n        /* \"#utility.yul\":10283:10287   */\n      0x00\n        /* \"#utility.yul\":10276:10281   */\n      dup3\n        /* \"#utility.yul\":10272:10288   */\n      add\n        /* \"#utility.yul\":10266:10289   */\n      mload\n        /* \"#utility.yul\":10302:10359   */\n      tag_288\n        /* \"#utility.yul\":10353:10357   */\n      0x00\n        /* \"#utility.yul\":10348:10351   */\n      dup6\n        /* \"#utility.yul\":10344:10358   */\n      add\n        /* \"#utility.yul\":10330:10342   */\n      dup3\n        /* \"#utility.yul\":10302:10359   */\n      tag_209\n      jump\t// in\n    tag_288:\n        /* \"#utility.yul\":10210:10369   */\n      pop\n        /* \"#utility.yul\":10451:10455   */\n      0x20\n        /* \"#utility.yul\":10444:10449   */\n      dup3\n        /* \"#utility.yul\":10440:10456   */\n      add\n        /* \"#utility.yul\":10434:10457   */\n      mload\n        /* \"#utility.yul\":10470:10527   */\n      tag_289\n        /* \"#utility.yul\":10521:10525   */\n      0x20\n        /* \"#utility.yul\":10516:10519   */\n      dup6\n        /* \"#utility.yul\":10512:10526   */\n      add\n        /* \"#utility.yul\":10498:10510   */\n      dup3\n        /* \"#utility.yul\":10470:10527   */\n      tag_209\n      jump\t// in\n    tag_289:\n        /* \"#utility.yul\":10379:10537   */\n      pop\n        /* \"#utility.yul\":10624:10628   */\n      0x40\n        /* \"#utility.yul\":10617:10622   */\n      dup3\n        /* \"#utility.yul\":10613:10629   */\n      add\n        /* \"#utility.yul\":10607:10630   */\n      mload\n        /* \"#utility.yul\":10643:10706   */\n      tag_290\n        /* \"#utility.yul\":10700:10704   */\n      0x40\n        /* \"#utility.yul\":10695:10698   */\n      dup6\n        /* \"#utility.yul\":10691:10705   */\n      add\n        /* \"#utility.yul\":10677:10689   */\n      dup3\n        /* \"#utility.yul\":10643:10706   */\n      tag_188\n      jump\t// in\n    tag_290:\n        /* \"#utility.yul\":10547:10716   */\n      pop\n        /* \"#utility.yul\":10164:10723   */\n      pop\n        /* \"#utility.yul\":10068:10723   */\n      pop\n      pop\n      jump\t// out\n        /* \"#utility.yul\":10729:10837   */\n    tag_277:\n        /* \"#utility.yul\":10806:10830   */\n      tag_292\n        /* \"#utility.yul\":10824:10829   */\n      dup2\n        /* \"#utility.yul\":10806:10830   */\n      tag_293\n      jump\t// in\n    tag_292:\n        /* \"#utility.yul\":10801:10804   */\n      dup3\n        /* \"#utility.yul\":10794:10831   */\n      mstore\n        /* \"#utility.yul\":10729:10837   */\n      pop\n      pop\n      jump\t// out\n        /* \"#utility.yul\":10843:10961   */\n    tag_294:\n        /* \"#utility.yul\":10930:10954   */\n      tag_296\n        /* \"#utility.yul\":10948:10953   */\n      dup2\n        /* \"#utility.yul\":10930:10954   */\n      tag_293\n      jump\t// in\n    tag_296:\n        /* \"#utility.yul\":10925:10928   */\n      dup3\n        /* \"#utility.yul\":10918:10955   */\n      mstore\n        /* \"#utility.yul\":10843:10961   */\n      pop\n      pop\n      jump\t// out\n        /* \"#utility.yul\":10967:11189   */\n    tag_20:\n        /* \"#utility.yul\":11060:11064   */\n      0x00\n        /* \"#utility.yul\":11098:11100   */\n      0x20\n        /* \"#utility.yul\":11087:11096   */\n      dup3\n        /* \"#utility.yul\":11083:11101   */\n      add\n        /* \"#utility.yul\":11075:11101   */\n      swap1\n      pop\n        /* \"#utility.yul\":11111:11182   */\n      tag_298\n        /* \"#utility.yul\":11179:11180   */\n      0x00\n        /* \"#utility.yul\":11168:11177   */\n      dup4\n        /* \"#utility.yul\":11164:11181   */\n      add\n        /* \"#utility.yul\":11155:11161   */\n      dup5\n        /* \"#utility.yul\":11111:11182   */\n      tag_192\n      jump\t// in\n    tag_298:\n        /* \"#utility.yul\":10967:11189   */\n      swap3\n      swap2\n      pop\n      pop\n      jump\t// out\n        /* \"#utility.yul\":11195:11613   */\n    tag_37:\n        /* \"#utility.yul\":11332:11336   */\n      0x00\n        /* \"#utility.yul\":11370:11372   */\n      0x60\n        /* \"#utility.yul\":11359:11368   */\n      dup3\n        /* \"#utility.yul\":11355:11373   */\n      add\n        /* \"#utility.yul\":11347:11373   */\n      swap1\n      pop\n        /* \"#utility.yul\":11383:11448   */\n      tag_300\n        /* \"#utility.yul\":11445:11446   */\n      0x00\n        /* \"#utility.yul\":11434:11443   */\n      dup4\n        /* \"#utility.yul\":11430:11447   */\n      add\n        /* \"#utility.yul\":11421:11427   */\n      dup7\n        /* \"#utility.yul\":11383:11448   */\n      tag_213\n      jump\t// in\n    tag_300:\n        /* \"#utility.yul\":11458:11524   */\n      tag_301\n        /* \"#utility.yul\":11520:11522   */\n      0x20\n        /* \"#utility.yul\":11509:11518   */\n      dup4\n        /* \"#utility.yul\":11505:11523   */\n      add\n        /* \"#utility.yul\":11496:11502   */\n      dup6\n        /* \"#utility.yul\":11458:11524   */\n      tag_213\n      jump\t// in\n    tag_301:\n        /* \"#utility.yul\":11534:11606   */\n      tag_302\n        /* \"#utility.yul\":11602:11604   */\n      0x40\n        /* \"#utility.yul\":11591:11600   */\n      dup4\n        /* \"#utility.yul\":11587:11605   */\n      add\n        /* \"#utility.yul\":11578:11584   */\n      dup5\n        /* \"#utility.yul\":11534:11606   */\n      tag_192\n      jump\t// in\n    tag_302:\n        /* \"#utility.yul\":11195:11613   */\n      swap5\n      swap4\n      pop\n      pop\n      pop\n      pop\n      jump\t// out\n        /* \"#utility.yul\":11619:11841   */\n    tag_28:\n        /* \"#utility.yul\":11712:11716   */\n      0x00\n        /* \"#utility.yul\":11750:11752   */\n      0x20\n        /* \"#utility.yul\":11739:11748   */\n      dup3\n        /* \"#utility.yul\":11735:11753   */\n      add\n        /* \"#utility.yul\":11727:11753   */\n      swap1\n      pop\n        /* \"#utility.yul\":11763:11834   */\n      tag_304\n        /* \"#utility.yul\":11831:11832   */\n      0x00\n        /* \"#utility.yul\":11820:11829   */\n      dup4\n        /* \"#utility.yul\":11816:11833   */\n      add\n        /* \"#utility.yul\":11807:11813   */\n      dup5\n        /* \"#utility.yul\":11763:11834   */\n      tag_220\n      jump\t// in\n    tag_304:\n        /* \"#utility.yul\":11619:11841   */\n      swap3\n      swap2\n      pop\n      pop\n      jump\t// out\n        /* \"#utility.yul\":11847:12511   */\n    tag_55:\n        /* \"#utility.yul\":12052:12056   */\n      0x00\n        /* \"#utility.yul\":12090:12093   */\n      0xa0\n        /* \"#utility.yul\":12079:12088   */\n      dup3\n        /* \"#utility.yul\":12075:12094   */\n      add\n        /* \"#utility.yul\":12067:12094   */\n      swap1\n      pop\n        /* \"#utility.yul\":12104:12175   */\n      tag_306\n        /* \"#utility.yul\":12172:12173   */\n      0x00\n        /* \"#utility.yul\":12161:12170   */\n      dup4\n        /* \"#utility.yul\":12157:12174   */\n      add\n        /* \"#utility.yul\":12148:12154   */\n      dup9\n        /* \"#utility.yul\":12104:12175   */\n      tag_220\n      jump\t// in\n    tag_306:\n        /* \"#utility.yul\":12185:12257   */\n      tag_307\n        /* \"#utility.yul\":12253:12255   */\n      0x20\n        /* \"#utility.yul\":12242:12251   */\n      dup4\n        /* \"#utility.yul\":12238:12256   */\n      add\n        /* \"#utility.yul\":12229:12235   */\n      dup8\n        /* \"#utility.yul\":12185:12257   */\n      tag_294\n      jump\t// in\n    tag_307:\n        /* \"#utility.yul\":12267:12339   */\n      tag_308\n        /* \"#utility.yul\":12335:12337   */\n      0x40\n        /* \"#utility.yul\":12324:12333   */\n      dup4\n        /* \"#utility.yul\":12320:12338   */\n      add\n        /* \"#utility.yul\":12311:12317   */\n      dup7\n        /* \"#utility.yul\":12267:12339   */\n      tag_192\n      jump\t// in\n    tag_308:\n        /* \"#utility.yul\":12349:12421   */\n      tag_309\n        /* \"#utility.yul\":12417:12419   */\n      0x60\n        /* \"#utility.yul\":12406:12415   */\n      dup4\n        /* \"#utility.yul\":12402:12420   */\n      add\n        /* \"#utility.yul\":12393:12399   */\n      dup6\n        /* \"#utility.yul\":12349:12421   */\n      tag_294\n      jump\t// in\n    tag_309:\n        /* \"#utility.yul\":12431:12504   */\n      tag_310\n        /* \"#utility.yul\":12499:12502   */\n      0x80\n        /* \"#utility.yul\":12488:12497   */\n      dup4\n        /* \"#utility.yul\":12484:12503   */\n      add\n        /* \"#utility.yul\":12475:12481   */\n      dup5\n        /* \"#utility.yul\":12431:12504   */\n      tag_294\n      jump\t// in\n    tag_310:\n        /* \"#utility.yul\":11847:12511   */\n      swap7\n      swap6\n      pop\n      pop\n      pop\n      pop\n      pop\n      pop\n      jump\t// out\n        /* \"#utility.yul\":12517:12936   */\n    tag_71:\n        /* \"#utility.yul\":12683:12687   */\n      0x00\n        /* \"#utility.yul\":12721:12723   */\n      0x20\n        /* \"#utility.yul\":12710:12719   */\n      dup3\n        /* \"#utility.yul\":12706:12724   */\n      add\n        /* \"#utility.yul\":12698:12724   */\n      swap1\n      pop\n        /* \"#utility.yul\":12770:12779   */\n      dup2\n        /* \"#utility.yul\":12764:12768   */\n      dup2\n        /* \"#utility.yul\":12760:12780   */\n      sub\n        /* \"#utility.yul\":12756:12757   */\n      0x00\n        /* \"#utility.yul\":12745:12754   */\n      dup4\n        /* \"#utility.yul\":12741:12758   */\n      add\n        /* \"#utility.yul\":12734:12781   */\n      mstore\n        /* \"#utility.yul\":12798:12929   */\n      tag_312\n        /* \"#utility.yul\":12924:12928   */\n      dup2\n        /* \"#utility.yul\":12798:12929   */\n      tag_223\n      jump\t// in\n    tag_312:\n        /* \"#utility.yul\":12790:12929   */\n      swap1\n      pop\n        /* \"#utility.yul\":12517:12936   */\n      swap2\n      swap1\n      pop\n      jump\t// out\n        /* \"#utility.yul\":12942:13361   */\n    tag_118:\n        /* \"#utility.yul\":13108:13112   */\n      0x00\n        /* \"#utility.yul\":13146:13148   */\n      0x20\n        /* \"#utility.yul\":13135:13144   */\n      dup3\n        /* \"#utility.yul\":13131:13149   */\n      add\n        /* \"#utility.yul\":13123:13149   */\n      swap1\n      pop\n        /* \"#utility.yul\":13195:13204   */\n      dup2\n        /* \"#utility.yul\":13189:13193   */\n      dup2\n        /* \"#utility.yul\":13185:13205   */\n      sub\n        /* \"#utility.yul\":13181:13182   */\n      0x00\n        /* \"#utility.yul\":13170:13179   */\n      dup4\n        /* \"#utility.yul\":13166:13183   */\n      add\n        /* \"#utility.yul\":13159:13206   */\n      mstore\n        /* \"#utility.yul\":13223:13354   */\n      tag_314\n        /* \"#utility.yul\":13349:13353   */\n      dup2\n        /* \"#utility.yul\":13223:13354   */\n      tag_229\n      jump\t// in\n    tag_314:\n        /* \"#utility.yul\":13215:13354   */\n      swap1\n      pop\n        /* \"#utility.yul\":12942:13361   */\n      swap2\n      swap1\n      pop\n      jump\t// out\n        /* \"#utility.yul\":13367:13786   */\n    tag_86:\n        /* \"#utility.yul\":13533:13537   */\n      0x00\n        /* \"#utility.yul\":13571:13573   */\n      0x20\n        /* \"#utility.yul\":13560:13569   */\n      dup3\n        /* \"#utility.yul\":13556:13574   */\n      add\n        /* \"#utility.yul\":13548:13574   */\n      swap1\n      pop\n        /* \"#utility.yul\":13620:13629   */\n      dup2\n        /* \"#utility.yul\":13614:13618   */\n      dup2\n        /* \"#utility.yul\":13610:13630   */\n      sub\n        /* \"#utility.yul\":13606:13607   */\n      0x00\n        /* \"#utility.yul\":13595:13604   */\n      dup4\n        /* \"#utility.yul\":13591:13608   */\n      add\n        /* \"#utility.yul\":13584:13631   */\n      mstore\n        /* \"#utility.yul\":13648:13779   */\n      tag_316\n        /* \"#utility.yul\":13774:13778   */\n      dup2\n        /* \"#utility.yul\":13648:13779   */\n      tag_234\n      jump\t// in\n    tag_316:\n        /* \"#utility.yul\":13640:13779   */\n      swap1\n      pop\n        /* \"#utility.yul\":13367:13786   */\n      swap2\n      swap1\n      pop\n      jump\t// out\n        /* \"#utility.yul\":13792:14211   */\n    tag_68:\n        /* \"#utility.yul\":13958:13962   */\n      0x00\n        /* \"#utility.yul\":13996:13998   */\n      0x20\n        /* \"#utility.yul\":13985:13994   */\n      dup3\n        /* \"#utility.yul\":13981:13999   */\n      add\n        /* \"#utility.yul\":13973:13999   */\n      swap1\n      pop\n        /* \"#utility.yul\":14045:14054   */\n      dup2\n        /* \"#utility.yul\":14039:14043   */\n      dup2\n        /* \"#utility.yul\":14035:14055   */\n      sub\n        /* \"#utility.yul\":14031:14032   */\n      0x00\n        /* \"#utility.yul\":14020:14029   */\n      dup4\n        /* \"#utility.yul\":14016:14033   */\n      add\n        /* \"#utility.yul\":14009:14056   */\n      mstore\n        /* \"#utility.yul\":14073:14204   */\n      tag_318\n        /* \"#utility.yul\":14199:14203   */\n      dup2\n        /* \"#utility.yul\":14073:14204   */\n      tag_239\n      jump\t// in\n    tag_318:\n        /* \"#utility.yul\":14065:14204   */\n      swap1\n      pop\n        /* \"#utility.yul\":13792:14211   */\n      swap2\n      swap1\n      pop\n      jump\t// out\n        /* \"#utility.yul\":14217:14636   */\n    tag_83:\n        /* \"#utility.yul\":14383:14387   */\n      0x00\n        /* \"#utility.yul\":14421:14423   */\n      0x20\n        /* \"#utility.yul\":14410:14419   */\n      dup3\n        /* \"#utility.yul\":14406:14424   */\n      add\n        /* \"#utility.yul\":14398:14424   */\n      swap1\n      pop\n        /* \"#utility.yul\":14470:14479   */\n      dup2\n        /* \"#utility.yul\":14464:14468   */\n      dup2\n        /* \"#utility.yul\":14460:14480   */\n      sub\n        /* \"#utility.yul\":14456:14457   */\n      0x00\n        /* \"#utility.yul\":14445:14454   */\n      dup4\n        /* \"#utility.yul\":14441:14458   */\n      add\n        /* \"#utility.yul\":14434:14481   */\n      mstore\n        /* \"#utility.yul\":14498:14629   */\n      tag_320\n        /* \"#utility.yul\":14624:14628   */\n      dup2\n        /* \"#utility.yul\":14498:14629   */\n      tag_244\n      jump\t// in\n    tag_320:\n        /* \"#utility.yul\":14490:14629   */\n      swap1\n      pop\n        /* \"#utility.yul\":14217:14636   */\n      swap2\n      swap1\n      pop\n      jump\t// out\n        /* \"#utility.yul\":14642:15061   */\n    tag_74:\n        /* \"#utility.yul\":14808:14812   */\n      0x00\n        /* \"#utility.yul\":14846:14848   */\n      0x20\n        /* \"#utility.yul\":14835:14844   */\n      dup3\n        /* \"#utility.yul\":14831:14849   */\n      add\n        /* \"#utility.yul\":14823:14849   */\n      swap1\n      pop\n        /* \"#utility.yul\":14895:14904   */\n      dup2\n        /* \"#utility.yul\":14889:14893   */\n      dup2\n        /* \"#utility.yul\":14885:14905   */\n      sub\n        /* \"#utility.yul\":14881:14882   */\n      0x00\n        /* \"#utility.yul\":14870:14879   */\n      dup4\n        /* \"#utility.yul\":14866:14883   */\n      add\n        /* \"#utility.yul\":14859:14906   */\n      mstore\n        /* \"#utility.yul\":14923:15054   */\n      tag_322\n        /* \"#utility.yul\":15049:15053   */\n      dup2\n        /* \"#utility.yul\":14923:15054   */\n      tag_249\n      jump\t// in\n    tag_322:\n        /* \"#utility.yul\":14915:15054   */\n      swap1\n      pop\n        /* \"#utility.yul\":14642:15061   */\n      swap2\n      swap1\n      pop\n      jump\t// out\n        /* \"#utility.yul\":15067:15486   */\n    tag_65:\n        /* \"#utility.yul\":15233:15237   */\n      0x00\n        /* \"#utility.yul\":15271:15273   */\n      0x20\n        /* \"#utility.yul\":15260:15269   */\n      dup3\n        /* \"#utility.yul\":15256:15274   */\n      add\n        /* \"#utility.yul\":15248:15274   */\n      swap1\n      pop\n        /* \"#utility.yul\":15320:15329   */\n      dup2\n        /* \"#utility.yul\":15314:15318   */\n      dup2\n        /* \"#utility.yul\":15310:15330   */\n      sub\n        /* \"#utility.yul\":15306:15307   */\n      0x00\n        /* \"#utility.yul\":15295:15304   */\n      dup4\n        /* \"#utility.yul\":15291:15308   */\n      add\n        /* \"#utility.yul\":15284:15331   */\n      mstore\n        /* \"#utility.yul\":15348:15479   */\n      tag_324\n        /* \"#utility.yul\":15474:15478   */\n      dup2\n        /* \"#utility.yul\":15348:15479   */\n      tag_254\n      jump\t// in\n    tag_324:\n        /* \"#utility.yul\":15340:15479   */\n      swap1\n      pop\n        /* \"#utility.yul\":15067:15486   */\n      swap2\n      swap1\n      pop\n      jump\t// out\n        /* \"#utility.yul\":15492:15911   */\n    tag_105:\n        /* \"#utility.yul\":15658:15662   */\n      0x00\n        /* \"#utility.yul\":15696:15698   */\n      0x20\n        /* \"#utility.yul\":15685:15694   */\n      dup3\n        /* \"#utility.yul\":15681:15699   */\n      add\n        /* \"#utility.yul\":15673:15699   */\n      swap1\n      pop\n        /* \"#utility.yul\":15745:15754   */\n      dup2\n        /* \"#utility.yul\":15739:15743   */\n      dup2\n        /* \"#utility.yul\":15735:15755   */\n      sub\n        /* \"#utility.yul\":15731:15732   */\n      0x00\n        /* \"#utility.yul\":15720:15729   */\n      dup4\n        /* \"#utility.yul\":15716:15733   */\n      add\n        /* \"#utility.yul\":15709:15756   */\n      mstore\n        /* \"#utility.yul\":15773:15904   */\n      tag_326\n        /* \"#utility.yul\":15899:15903   */\n      dup2\n        /* \"#utility.yul\":15773:15904   */\n      tag_259\n      jump\t// in\n    tag_326:\n        /* \"#utility.yul\":15765:15904   */\n      swap1\n      pop\n        /* \"#utility.yul\":15492:15911   */\n      swap2\n      swap1\n      pop\n      jump\t// out\n        /* \"#utility.yul\":15917:16336   */\n    tag_80:\n        /* \"#utility.yul\":16083:16087   */\n      0x00\n        /* \"#utility.yul\":16121:16123   */\n      0x20\n        /* \"#utility.yul\":16110:16119   */\n      dup3\n        /* \"#utility.yul\":16106:16124   */\n      add\n        /* \"#utility.yul\":16098:16124   */\n      swap1\n      pop\n        /* \"#utility.yul\":16170:16179   */\n      dup2\n        /* \"#utility.yul\":16164:16168   */\n      dup2\n        /* \"#utility.yul\":16160:16180   */\n      sub\n        /* \"#utility.yul\":16156:16157   */\n      0x00\n        /* \"#utility.yul\":16145:16154   */\n      dup4\n        /* \"#utility.yul\":16141:16158   */\n      add\n        /* \"#utility.yul\":16134:16181   */\n      mstore\n        /* \"#utility.yul\":16198:16329   */\n      tag_328\n        /* \"#utility.yul\":16324:16328   */\n      dup2\n        /* \"#utility.yul\":16198:16329   */\n      tag_264\n      jump\t// in\n    tag_328:\n        /* \"#utility.yul\":16190:16329   */\n      swap1\n      pop\n        /* \"#utility.yul\":15917:16336   */\n      swap2\n      swap1\n      pop\n      jump\t// out\n        /* \"#utility.yul\":16342:16761   */\n    tag_114:\n        /* \"#utility.yul\":16508:16512   */\n      0x00\n        /* \"#utility.yul\":16546:16548   */\n      0x20\n        /* \"#utility.yul\":16535:16544   */\n      dup3\n        /* \"#utility.yul\":16531:16549   */\n      add\n        /* \"#utility.yul\":16523:16549   */\n      swap1\n      pop\n        /* \"#utility.yul\":16595:16604   */\n      dup2\n        /* \"#utility.yul\":16589:16593   */\n      dup2\n        /* \"#utility.yul\":16585:16605   */\n      sub\n        /* \"#utility.yul\":16581:16582   */\n      0x00\n        /* \"#utility.yul\":16570:16579   */\n      dup4\n        /* \"#utility.yul\":16566:16583   */\n      add\n        /* \"#utility.yul\":16559:16606   */\n      mstore\n        /* \"#utility.yul\":16623:16754   */\n      tag_330\n        /* \"#utility.yul\":16749:16753   */\n      dup2\n        /* \"#utility.yul\":16623:16754   */\n      tag_269\n      jump\t// in\n    tag_330:\n        /* \"#utility.yul\":16615:16754   */\n      swap1\n      pop\n        /* \"#utility.yul\":16342:16761   */\n      swap2\n      swap1\n      pop\n      jump\t// out\n        /* \"#utility.yul\":16767:17428   */\n    tag_45:\n        /* \"#utility.yul\":17026:17030   */\n      0x00\n        /* \"#utility.yul\":17064:17067   */\n      0x0160\n        /* \"#utility.yul\":17053:17062   */\n      dup3\n        /* \"#utility.yul\":17049:17068   */\n      add\n        /* \"#utility.yul\":17041:17068   */\n      swap1\n      pop\n        /* \"#utility.yul\":17078:17197   */\n      tag_332\n        /* \"#utility.yul\":17194:17195   */\n      0x00\n        /* \"#utility.yul\":17183:17192   */\n      dup4\n        /* \"#utility.yul\":17179:17196   */\n      add\n        /* \"#utility.yul\":17170:17176   */\n      dup6\n        /* \"#utility.yul\":17078:17197   */\n      tag_274\n      jump\t// in\n    tag_332:\n        /* \"#utility.yul\":17245:17254   */\n      dup2\n        /* \"#utility.yul\":17239:17243   */\n      dup2\n        /* \"#utility.yul\":17235:17255   */\n      sub\n        /* \"#utility.yul\":17229:17232   */\n      0x0140\n        /* \"#utility.yul\":17218:17227   */\n      dup4\n        /* \"#utility.yul\":17214:17233   */\n      add\n        /* \"#utility.yul\":17207:17256   */\n      mstore\n        /* \"#utility.yul\":17273:17421   */\n      tag_333\n        /* \"#utility.yul\":17416:17420   */\n      dup2\n        /* \"#utility.yul\":17407:17413   */\n      dup5\n        /* \"#utility.yul\":17273:17421   */\n      tag_195\n      jump\t// in\n    tag_333:\n        /* \"#utility.yul\":17265:17421   */\n      swap1\n      pop\n        /* \"#utility.yul\":16767:17428   */\n      swap4\n      swap3\n      pop\n      pop\n      pop\n      jump\t// out\n        /* \"#utility.yul\":17434:18653   */\n    tag_41:\n        /* \"#utility.yul\":17779:17783   */\n      0x00\n        /* \"#utility.yul\":17817:17820   */\n      0x0140\n        /* \"#utility.yul\":17806:17815   */\n      dup3\n        /* \"#utility.yul\":17802:17821   */\n      add\n        /* \"#utility.yul\":17794:17821   */\n      swap1\n      pop\n        /* \"#utility.yul\":17831:17902   */\n      tag_335\n        /* \"#utility.yul\":17899:17900   */\n      0x00\n        /* \"#utility.yul\":17888:17897   */\n      dup4\n        /* \"#utility.yul\":17884:17901   */\n      add\n        /* \"#utility.yul\":17875:17881   */\n      dup14\n        /* \"#utility.yul\":17831:17902   */\n      tag_294\n      jump\t// in\n    tag_335:\n        /* \"#utility.yul\":17912:17984   */\n      tag_336\n        /* \"#utility.yul\":17980:17982   */\n      0x20\n        /* \"#utility.yul\":17969:17978   */\n      dup4\n        /* \"#utility.yul\":17965:17983   */\n      add\n        /* \"#utility.yul\":17956:17962   */\n      dup13\n        /* \"#utility.yul\":17912:17984   */\n      tag_220\n      jump\t// in\n    tag_336:\n        /* \"#utility.yul\":17994:18066   */\n      tag_337\n        /* \"#utility.yul\":18062:18064   */\n      0x40\n        /* \"#utility.yul\":18051:18060   */\n      dup4\n        /* \"#utility.yul\":18047:18065   */\n      add\n        /* \"#utility.yul\":18038:18044   */\n      dup12\n        /* \"#utility.yul\":17994:18066   */\n      tag_294\n      jump\t// in\n    tag_337:\n        /* \"#utility.yul\":18076:18148   */\n      tag_338\n        /* \"#utility.yul\":18144:18146   */\n      0x60\n        /* \"#utility.yul\":18133:18142   */\n      dup4\n        /* \"#utility.yul\":18129:18147   */\n      add\n        /* \"#utility.yul\":18120:18126   */\n      dup11\n        /* \"#utility.yul\":18076:18148   */\n      tag_192\n      jump\t// in\n    tag_338:\n        /* \"#utility.yul\":18158:18231   */\n      tag_339\n        /* \"#utility.yul\":18226:18229   */\n      0x80\n        /* \"#utility.yul\":18215:18224   */\n      dup4\n        /* \"#utility.yul\":18211:18230   */\n      add\n        /* \"#utility.yul\":18202:18208   */\n      dup10\n        /* \"#utility.yul\":18158:18231   */\n      tag_192\n      jump\t// in\n    tag_339:\n        /* \"#utility.yul\":18241:18314   */\n      tag_340\n        /* \"#utility.yul\":18309:18312   */\n      0xa0\n        /* \"#utility.yul\":18298:18307   */\n      dup4\n        /* \"#utility.yul\":18294:18313   */\n      add\n        /* \"#utility.yul\":18285:18291   */\n      dup9\n        /* \"#utility.yul\":18241:18314   */\n      tag_294\n      jump\t// in\n    tag_340:\n        /* \"#utility.yul\":18324:18397   */\n      tag_341\n        /* \"#utility.yul\":18392:18395   */\n      0xc0\n        /* \"#utility.yul\":18381:18390   */\n      dup4\n        /* \"#utility.yul\":18377:18396   */\n      add\n        /* \"#utility.yul\":18368:18374   */\n      dup8\n        /* \"#utility.yul\":18324:18397   */\n      tag_294\n      jump\t// in\n    tag_341:\n        /* \"#utility.yul\":18407:18480   */\n      tag_342\n        /* \"#utility.yul\":18475:18478   */\n      0xe0\n        /* \"#utility.yul\":18464:18473   */\n      dup4\n        /* \"#utility.yul\":18460:18479   */\n      add\n        /* \"#utility.yul\":18451:18457   */\n      dup7\n        /* \"#utility.yul\":18407:18480   */\n      tag_294\n      jump\t// in\n    tag_342:\n        /* \"#utility.yul\":18490:18563   */\n      tag_343\n        /* \"#utility.yul\":18558:18561   */\n      0x0100\n        /* \"#utility.yul\":18547:18556   */\n      dup4\n        /* \"#utility.yul\":18543:18562   */\n      add\n        /* \"#utility.yul\":18534:18540   */\n      dup6\n        /* \"#utility.yul\":18490:18563   */\n      tag_294\n      jump\t// in\n    tag_343:\n        /* \"#utility.yul\":18573:18646   */\n      tag_344\n        /* \"#utility.yul\":18641:18644   */\n      0x0120\n        /* \"#utility.yul\":18630:18639   */\n      dup4\n        /* \"#utility.yul\":18626:18645   */\n      add\n        /* \"#utility.yul\":18617:18623   */\n      dup5\n        /* \"#utility.yul\":18573:18646   */\n      tag_220\n      jump\t// in\n    tag_344:\n        /* \"#utility.yul\":17434:18653   */\n      swap12\n      swap11\n      pop\n      pop\n      pop\n      pop\n      pop\n      pop\n      pop\n      pop\n      pop\n      pop\n      pop\n      jump\t// out\n        /* \"#utility.yul\":18659:18788   */\n    tag_148:\n        /* \"#utility.yul\":18693:18699   */\n      0x00\n        /* \"#utility.yul\":18720:18740   */\n      tag_346\n      tag_347\n      jump\t// in\n    tag_346:\n        /* \"#utility.yul\":18710:18740   */\n      swap1\n      pop\n        /* \"#utility.yul\":18749:18782   */\n      tag_348\n        /* \"#utility.yul\":18777:18781   */\n      dup3\n        /* \"#utility.yul\":18769:18775   */\n      dup3\n        /* \"#utility.yul\":18749:18782   */\n      tag_349\n      jump\t// in\n    tag_348:\n        /* \"#utility.yul\":18659:18788   */\n      swap2\n      swap1\n      pop\n      jump\t// out\n        /* \"#utility.yul\":18794:18869   */\n    tag_347:\n        /* \"#utility.yul\":18827:18833   */\n      0x00\n        /* \"#utility.yul\":18860:18862   */\n      0x40\n        /* \"#utility.yul\":18854:18863   */\n      mload\n        /* \"#utility.yul\":18844:18863   */\n      swap1\n      pop\n        /* \"#utility.yul\":18794:18869   */\n      swap1\n      jump\t// out\n        /* \"#utility.yul\":18875:19183   */\n    tag_147:\n        /* \"#utility.yul\":18937:18941   */\n      0x00\n        /* \"#utility.yul\":19027:19045   */\n      0xffffffffffffffff\n        /* \"#utility.yul\":19019:19025   */\n      dup3\n        /* \"#utility.yul\":19016:19046   */\n      gt\n        /* \"#utility.yul\":19013:19069   */\n      iszero\n      tag_352\n      jumpi\n        /* \"#utility.yul\":19049:19067   */\n      tag_353\n      tag_354\n      jump\t// in\n    tag_353:\n        /* \"#utility.yul\":19013:19069   */\n    tag_352:\n        /* \"#utility.yul\":19087:19116   */\n      tag_355\n        /* \"#utility.yul\":19109:19115   */\n      dup3\n        /* \"#utility.yul\":19087:19116   */\n      tag_356\n      jump\t// in\n    tag_355:\n        /* \"#utility.yul\":19079:19116   */\n      swap1\n      pop\n        /* \"#utility.yul\":19171:19175   */\n      0x20\n        /* \"#utility.yul\":19165:19169   */\n      dup2\n        /* \"#utility.yul\":19161:19176   */\n      add\n        /* \"#utility.yul\":19153:19176   */\n      swap1\n      pop\n        /* \"#utility.yul\":18875:19183   */\n      swap2\n      swap1\n      pop\n      jump\t// out\n        /* \"#utility.yul\":19189:19341   */\n    tag_202:\n        /* \"#utility.yul\":19276:19280   */\n      0x00\n        /* \"#utility.yul\":19299:19302   */\n      dup2\n        /* \"#utility.yul\":19291:19302   */\n      swap1\n      pop\n        /* \"#utility.yul\":19329:19333   */\n      0x20\n        /* \"#utility.yul\":19324:19327   */\n      dup3\n        /* \"#utility.yul\":19320:19334   */\n      add\n        /* \"#utility.yul\":19312:19334   */\n      swap1\n      pop\n        /* \"#utility.yul\":19189:19341   */\n      swap2\n      swap1\n      pop\n      jump\t// out\n        /* \"#utility.yul\":19347:19481   */\n    tag_198:\n        /* \"#utility.yul\":19434:19440   */\n      0x00\n        /* \"#utility.yul\":19468:19473   */\n      dup2\n        /* \"#utility.yul\":19462:19474   */\n      mload\n        /* \"#utility.yul\":19452:19474   */\n      swap1\n      pop\n        /* \"#utility.yul\":19347:19481   */\n      swap2\n      swap1\n      pop\n      jump\t// out\n        /* \"#utility.yul\":19487:19620   */\n    tag_208:\n        /* \"#utility.yul\":19577:19581   */\n      0x00\n        /* \"#utility.yul\":19609:19613   */\n      0x20\n        /* \"#utility.yul\":19604:19607   */\n      dup3\n        /* \"#utility.yul\":19600:19614   */\n      add\n        /* \"#utility.yul\":19592:19614   */\n      swap1\n      pop\n        /* \"#utility.yul\":19487:19620   */\n      swap2\n      swap1\n      pop\n      jump\t// out\n        /* \"#utility.yul\":19626:19830   */\n    tag_200:\n        /* \"#utility.yul\":19745:19756   */\n      0x00\n        /* \"#utility.yul\":19779:19785   */\n      dup3\n        /* \"#utility.yul\":19774:19777   */\n      dup3\n        /* \"#utility.yul\":19767:19786   */\n      mstore\n        /* \"#utility.yul\":19819:19823   */\n      0x20\n        /* \"#utility.yul\":19814:19817   */\n      dup3\n        /* \"#utility.yul\":19810:19824   */\n      add\n        /* \"#utility.yul\":19795:19824   */\n      swap1\n      pop\n        /* \"#utility.yul\":19626:19830   */\n      swap3\n      swap2\n      pop\n      pop\n      jump\t// out\n        /* \"#utility.yul\":19836:20005   */\n    tag_226:\n        /* \"#utility.yul\":19920:19931   */\n      0x00\n        /* \"#utility.yul\":19954:19960   */\n      dup3\n        /* \"#utility.yul\":19949:19952   */\n      dup3\n        /* \"#utility.yul\":19942:19961   */\n      mstore\n        /* \"#utility.yul\":19994:19998   */\n      0x20\n        /* \"#utility.yul\":19989:19992   */\n      dup3\n        /* \"#utility.yul\":19985:19999   */\n      add\n        /* \"#utility.yul\":19970:19999   */\n      swap1\n      pop\n        /* \"#utility.yul\":19836:20005   */\n      swap3\n      swap2\n      pop\n      pop\n      jump\t// out\n        /* \"#utility.yul\":20011:20316   */\n    tag_89:\n        /* \"#utility.yul\":20051:20054   */\n      0x00\n        /* \"#utility.yul\":20070:20090   */\n      tag_363\n        /* \"#utility.yul\":20088:20089   */\n      dup3\n        /* \"#utility.yul\":20070:20090   */\n      tag_293\n      jump\t// in\n    tag_363:\n        /* \"#utility.yul\":20065:20090   */\n      swap2\n      pop\n        /* \"#utility.yul\":20104:20124   */\n      tag_364\n        /* \"#utility.yul\":20122:20123   */\n      dup4\n        /* \"#utility.yul\":20104:20124   */\n      tag_293\n      jump\t// in\n    tag_364:\n        /* \"#utility.yul\":20099:20124   */\n      swap3\n      pop\n        /* \"#utility.yul\":20258:20259   */\n      dup3\n        /* \"#utility.yul\":20190:20256   */\n      0xffffffffffffffffffffffffffffffffffffffffffffffffffffffffffffffff\n        /* \"#utility.yul\":20186:20260   */\n      sub\n        /* \"#utility.yul\":20183:20184   */\n      dup3\n        /* \"#utility.yul\":20180:20261   */\n      gt\n        /* \"#utility.yul\":20177:20284   */\n      iszero\n      tag_365\n      jumpi\n        /* \"#utility.yul\":20264:20282   */\n      tag_366\n      tag_367\n      jump\t// in\n    tag_366:\n        /* \"#utility.yul\":20177:20284   */\n    tag_365:\n        /* \"#utility.yul\":20308:20309   */\n      dup3\n        /* \"#utility.yul\":20305:20306   */\n      dup3\n        /* \"#utility.yul\":20301:20310   */\n      add\n        /* \"#utility.yul\":20294:20310   */\n      swap1\n      pop\n        /* \"#utility.yul\":20011:20316   */\n      swap3\n      swap2\n      pop\n      pop\n      jump\t// out\n        /* \"#utility.yul\":20322:20507   */\n    tag_120:\n        /* \"#utility.yul\":20362:20363   */\n      0x00\n        /* \"#utility.yul\":20379:20399   */\n      tag_369\n        /* \"#utility.yul\":20397:20398   */\n      dup3\n        /* \"#utility.yul\":20379:20399   */\n      tag_293\n      jump\t// in\n    tag_369:\n        /* \"#utility.yul\":20374:20399   */\n      swap2\n      pop\n        /* \"#utility.yul\":20413:20433   */\n      tag_370\n        /* \"#utility.yul\":20431:20432   */\n      dup4\n        /* \"#utility.yul\":20413:20433   */\n      tag_293\n      jump\t// in\n    tag_370:\n        /* \"#utility.yul\":20408:20433   */\n      swap3\n      pop\n        /* \"#utility.yul\":20452:20453   */\n      dup3\n        /* \"#utility.yul\":20442:20477   */\n      tag_371\n      jumpi\n        /* \"#utility.yul\":20457:20475   */\n      tag_372\n      tag_373\n      jump\t// in\n    tag_372:\n        /* \"#utility.yul\":20442:20477   */\n    tag_371:\n        /* \"#utility.yul\":20499:20500   */\n      dup3\n        /* \"#utility.yul\":20496:20497   */\n      dup3\n        /* \"#utility.yul\":20492:20501   */\n      div\n        /* \"#utility.yul\":20487:20501   */\n      swap1\n      pop\n        /* \"#utility.yul\":20322:20507   */\n      swap3\n      swap2\n      pop\n      pop\n      jump\t// out\n        /* \"#utility.yul\":20513:20861   */\n    tag_122:\n        /* \"#utility.yul\":20553:20560   */\n      0x00\n        /* \"#utility.yul\":20576:20596   */\n      tag_375\n        /* \"#utility.yul\":20594:20595   */\n      dup3\n        /* \"#utility.yul\":20576:20596   */\n      tag_293\n      jump\t// in\n    tag_375:\n        /* \"#utility.yul\":20571:20596   */\n      swap2\n      pop\n        /* \"#utility.yul\":20610:20630   */\n      tag_376\n        /* \"#utility.yul\":20628:20629   */\n      dup4\n        /* \"#utility.yul\":20610:20630   */\n      tag_293\n      jump\t// in\n    tag_376:\n        /* \"#utility.yul\":20605:20630   */\n      swap3\n      pop\n        /* \"#utility.yul\":20798:20799   */\n      dup2\n        /* \"#utility.yul\":20730:20796   */\n      0xffffffffffffffffffffffffffffffffffffffffffffffffffffffffffffffff\n        /* \"#utility.yul\":20726:20800   */\n      div\n        /* \"#utility.yul\":20723:20724   */\n      dup4\n        /* \"#utility.yul\":20720:20801   */\n      gt\n        /* \"#utility.yul\":20715:20716   */\n      dup3\n        /* \"#utility.yul\":20708:20717   */\n      iszero\n        /* \"#utility.yul\":20701:20718   */\n      iszero\n        /* \"#utility.yul\":20697:20802   */\n      and\n        /* \"#utility.yul\":20694:20825   */\n      iszero\n      tag_377\n      jumpi\n        /* \"#utility.yul\":20805:20823   */\n      tag_378\n      tag_367\n      jump\t// in\n    tag_378:\n        /* \"#utility.yul\":20694:20825   */\n    tag_377:\n        /* \"#utility.yul\":20853:20854   */\n      dup3\n        /* \"#utility.yul\":20850:20851   */\n      dup3\n        /* \"#utility.yul\":20846:20855   */\n      mul\n        /* \"#utility.yul\":20835:20855   */\n      swap1\n      pop\n        /* \"#utility.yul\":20513:20861   */\n      swap3\n      swap2\n      pop\n      pop\n      jump\t// out\n        /* \"#utility.yul\":20867:20963   */\n    tag_191:\n        /* \"#utility.yul\":20904:20911   */\n      0x00\n        /* \"#utility.yul\":20933:20957   */\n      tag_380\n        /* \"#utility.yul\":20951:20956   */\n      dup3\n        /* \"#utility.yul\":20933:20957   */\n      tag_381\n      jump\t// in\n    tag_380:\n        /* \"#utility.yul\":20922:20957   */\n      swap1\n      pop\n        /* \"#utility.yul\":20867:20963   */\n      swap2\n      swap1\n      pop\n      jump\t// out\n        /* \"#utility.yul\":20969:21059   */\n    tag_212:\n        /* \"#utility.yul\":21003:21010   */\n      0x00\n        /* \"#utility.yul\":21046:21051   */\n      dup2\n        /* \"#utility.yul\":21039:21052   */\n      iszero\n        /* \"#utility.yul\":21032:21053   */\n      iszero\n        /* \"#utility.yul\":21021:21053   */\n      swap1\n      pop\n        /* \"#utility.yul\":20969:21059   */\n      swap2\n      swap1\n      pop\n      jump\t// out\n        /* \"#utility.yul\":21065:21142   */\n    tag_219:\n        /* \"#utility.yul\":21102:21109   */\n      0x00\n        /* \"#utility.yul\":21131:21136   */\n      dup2\n        /* \"#utility.yul\":21120:21136   */\n      swap1\n      pop\n        /* \"#utility.yul\":21065:21142   */\n      swap2\n      swap1\n      pop\n      jump\t// out\n        /* \"#utility.yul\":21148:21274   */\n    tag_381:\n        /* \"#utility.yul\":21185:21192   */\n      0x00\n        /* \"#utility.yul\":21225:21267   */\n      0xffffffffffffffffffffffffffffffffffffffff\n        /* \"#utility.yul\":21218:21223   */\n      dup3\n        /* \"#utility.yul\":21214:21268   */\n      and\n        /* \"#utility.yul\":21203:21268   */\n      swap1\n      pop\n        /* \"#utility.yul\":21148:21274   */\n      swap2\n      swap1\n      pop\n      jump\t// out\n        /* \"#utility.yul\":21280:21357   */\n    tag_293:\n        /* \"#utility.yul\":21317:21324   */\n      0x00\n        /* \"#utility.yul\":21346:21351   */\n      dup2\n        /* \"#utility.yul\":21335:21351   */\n      swap1\n      pop\n        /* \"#utility.yul\":21280:21357   */\n      swap2\n      swap1\n      pop\n      jump\t// out\n        /* \"#utility.yul\":21363:21449   */\n    tag_386:\n        /* \"#utility.yul\":21398:21405   */\n      0x00\n        /* \"#utility.yul\":21438:21442   */\n      0xff\n        /* \"#utility.yul\":21431:21436   */\n      dup3\n        /* \"#utility.yul\":21427:21443   */\n      and\n        /* \"#utility.yul\":21416:21443   */\n      swap1\n      pop\n        /* \"#utility.yul\":21363:21449   */\n      swap2\n      swap1\n      pop\n      jump\t// out\n        /* \"#utility.yul\":21455:21609   */\n    tag_153:\n        /* \"#utility.yul\":21539:21545   */\n      dup3\n        /* \"#utility.yul\":21534:21537   */\n      dup2\n        /* \"#utility.yul\":21529:21532   */\n      dup4\n        /* \"#utility.yul\":21516:21546   */\n      calldatacopy\n        /* \"#utility.yul\":21601:21602   */\n      0x00\n        /* \"#utility.yul\":21592:21598   */\n      dup4\n        /* \"#utility.yul\":21587:21590   */\n      dup4\n        /* \"#utility.yul\":21583:21599   */\n      add\n        /* \"#utility.yul\":21576:21603   */\n      mstore\n        /* \"#utility.yul\":21455:21609   */\n      pop\n      pop\n      pop\n      jump\t// out\n        /* \"#utility.yul\":21615:21896   */\n    tag_349:\n        /* \"#utility.yul\":21698:21725   */\n      tag_390\n        /* \"#utility.yul\":21720:21724   */\n      dup3\n        /* \"#utility.yul\":21698:21725   */\n      tag_356\n      jump\t// in\n    tag_390:\n        /* \"#utility.yul\":21690:21696   */\n      dup2\n        /* \"#utility.yul\":21686:21726   */\n      add\n        /* \"#utility.yul\":21828:21834   */\n      dup2\n        /* \"#utility.yul\":21816:21826   */\n      dup2\n        /* \"#utility.yul\":21813:21835   */\n      lt\n        /* \"#utility.yul\":21792:21810   */\n      0xffffffffffffffff\n        /* \"#utility.yul\":21780:21790   */\n      dup3\n        /* \"#utility.yul\":21777:21811   */\n      gt\n        /* \"#utility.yul\":21774:21836   */\n      or\n        /* \"#utility.yul\":21771:21859   */\n      iszero\n      tag_391\n      jumpi\n        /* \"#utility.yul\":21839:21857   */\n      tag_392\n      tag_354\n      jump\t// in\n    tag_392:\n        /* \"#utility.yul\":21771:21859   */\n    tag_391:\n        /* \"#utility.yul\":21879:21889   */\n      dup1\n        /* \"#utility.yul\":21875:21877   */\n      0x40\n        /* \"#utility.yul\":21868:21890   */\n      mstore\n        /* \"#utility.yul\":21658:21896   */\n      pop\n        /* \"#utility.yul\":21615:21896   */\n      pop\n      pop\n      jump\t// out\n        /* \"#utility.yul\":21902:22069   */\n    tag_137:\n        /* \"#utility.yul\":21939:21942   */\n      0x00\n        /* \"#utility.yul\":21962:21984   */\n      tag_394\n        /* \"#utility.yul\":21978:21983   */\n      dup3\n        /* \"#utility.yul\":21962:21984   */\n      tag_386\n      jump\t// in\n    tag_394:\n        /* \"#utility.yul\":21953:21984   */\n      swap2\n      pop\n        /* \"#utility.yul\":22006:22010   */\n      0xff\n        /* \"#utility.yul\":21999:22004   */\n      dup3\n        /* \"#utility.yul\":21996:22011   */\n      eq\n        /* \"#utility.yul\":21993:22034   */\n      iszero\n      tag_395\n      jumpi\n        /* \"#utility.yul\":22014:22032   */\n      tag_396\n      tag_367\n      jump\t// in\n    tag_396:\n        /* \"#utility.yul\":21993:22034   */\n    tag_395:\n        /* \"#utility.yul\":22061:22062   */\n      0x01\n        /* \"#utility.yul\":22054:22059   */\n      dup3\n        /* \"#utility.yul\":22050:22063   */\n      add\n        /* \"#utility.yul\":22043:22063   */\n      swap1\n      pop\n        /* \"#utility.yul\":21902:22069   */\n      swap2\n      swap1\n      pop\n      jump\t// out\n        /* \"#utility.yul\":22075:22255   */\n    tag_367:\n        /* \"#utility.yul\":22123:22200   */\n      0x4e487b7100000000000000000000000000000000000000000000000000000000\n        /* \"#utility.yul\":22120:22121   */\n      0x00\n        /* \"#utility.yul\":22113:22201   */\n      mstore\n        /* \"#utility.yul\":22220:22224   */\n      0x11\n        /* \"#utility.yul\":22217:22218   */\n      0x04\n        /* \"#utility.yul\":22210:22225   */\n      mstore\n        /* \"#utility.yul\":22244:22248   */\n      0x24\n        /* \"#utility.yul\":22241:22242   */\n      0x00\n        /* \"#utility.yul\":22234:22249   */\n      revert\n        /* \"#utility.yul\":22261:22441   */\n    tag_373:\n        /* \"#utility.yul\":22309:22386   */\n      0x4e487b7100000000000000000000000000000000000000000000000000000000\n        /* \"#utility.yul\":22306:22307   */\n      0x00\n        /* \"#utility.yul\":22299:22387   */\n      mstore\n        /* \"#utility.yul\":22406:22410   */\n      0x12\n        /* \"#utility.yul\":22403:22404   */\n      0x04\n        /* \"#utility.yul\":22396:22411   */\n      mstore\n        /* \"#utility.yul\":22430:22434   */\n      0x24\n        /* \"#utility.yul\":22427:22428   */\n      0x00\n        /* \"#utility.yul\":22420:22435   */\n      revert\n        /* \"#utility.yul\":22447:22627   */\n    tag_129:\n        /* \"#utility.yul\":22495:22572   */\n      0x4e487b7100000000000000000000000000000000000000000000000000000000\n        /* \"#utility.yul\":22492:22493   */\n      0x00\n        /* \"#utility.yul\":22485:22573   */\n      mstore\n        /* \"#utility.yul\":22592:22596   */\n      0x32\n        /* \"#utility.yul\":22589:22590   */\n      0x04\n        /* \"#utility.yul\":22582:22597   */\n      mstore\n        /* \"#utility.yul\":22616:22620   */\n      0x24\n        /* \"#utility.yul\":22613:22614   */\n      0x00\n        /* \"#utility.yul\":22606:22621   */\n      revert\n        /* \"#utility.yul\":22633:22813   */\n    tag_354:\n        /* \"#utility.yul\":22681:22758   */\n      0x4e487b7100000000000000000000000000000000000000000000000000000000\n        /* \"#utility.yul\":22678:22679   */\n      0x00\n        /* \"#utility.yul\":22671:22759   */\n      mstore\n        /* \"#utility.yul\":22778:22782   */\n      0x41\n        /* \"#utility.yul\":22775:22776   */\n      0x04\n        /* \"#utility.yul\":22768:22783   */\n      mstore\n        /* \"#utility.yul\":22802:22806   */\n      0x24\n        /* \"#utility.yul\":22799:22800   */\n      0x00\n        /* \"#utility.yul\":22792:22807   */\n      revert\n        /* \"#utility.yul\":22819:22936   */\n    tag_162:\n        /* \"#utility.yul\":22928:22929   */\n      0x00\n        /* \"#utility.yul\":22925:22926   */\n      dup1\n        /* \"#utility.yul\":22918:22930   */\n      revert\n        /* \"#utility.yul\":22942:23059   */\n    tag_151:\n        /* \"#utility.yul\":23051:23052   */\n      0x00\n        /* \"#utility.yul\":23048:23049   */\n      dup1\n        /* \"#utility.yul\":23041:23053   */\n      revert\n        /* \"#utility.yul\":23065:23182   */\n    tag_178:\n        /* \"#utility.yul\":23174:23175   */\n      0x00\n        /* \"#utility.yul\":23171:23172   */\n      dup1\n        /* \"#utility.yul\":23164:23176   */\n      revert\n        /* \"#utility.yul\":23188:23305   */\n    tag_171:\n        /* \"#utility.yul\":23297:23298   */\n      0x00\n        /* \"#utility.yul\":23294:23295   */\n      dup1\n        /* \"#utility.yul\":23287:23299   */\n      revert\n        /* \"#utility.yul\":23311:23413   */\n    tag_356:\n        /* \"#utility.yul\":23352:23358   */\n      0x00\n        /* \"#utility.yul\":23403:23405   */\n      0x1f\n        /* \"#utility.yul\":23399:23406   */\n      not\n        /* \"#utility.yul\":23394:23396   */\n      0x1f\n        /* \"#utility.yul\":23387:23392   */\n      dup4\n        /* \"#utility.yul\":23383:23397   */\n      add\n        /* \"#utility.yul\":23379:23407   */\n      and\n        /* \"#utility.yul\":23369:23407   */\n      swap1\n      pop\n        /* \"#utility.yul\":23311:23413   */\n      swap2\n      swap1\n      pop\n      jump\t// out\n        /* \"#utility.yul\":23419:23600   */\n    tag_228:\n        /* \"#utility.yul\":23559:23592   */\n      0x526563697069656e7420697320616c7265616479207265676973746572656400\n        /* \"#utility.yul\":23555:23556   */\n      0x00\n        /* \"#utility.yul\":23547:23553   */\n      dup3\n        /* \"#utility.yul\":23543:23557   */\n      add\n        /* \"#utility.yul\":23536:23593   */\n      mstore\n        /* \"#utility.yul\":23419:23600   */\n      pop\n      jump\t// out\n        /* \"#utility.yul\":23606:23831   */\n    tag_233:\n        /* \"#utility.yul\":23746:23780   */\n      0x596f75206172656e277420617574686f72697a6520746f20636f6d70696c6520\n        /* \"#utility.yul\":23742:23743   */\n      0x00\n        /* \"#utility.yul\":23734:23740   */\n      dup3\n        /* \"#utility.yul\":23730:23744   */\n      add\n        /* \"#utility.yul\":23723:23781   */\n      mstore\n        /* \"#utility.yul\":23815:23823   */\n      0x42756e646c650000000000000000000000000000000000000000000000000000\n        /* \"#utility.yul\":23810:23812   */\n      0x20\n        /* \"#utility.yul\":23802:23808   */\n      dup3\n        /* \"#utility.yul\":23798:23813   */\n      add\n        /* \"#utility.yul\":23791:23824   */\n      mstore\n        /* \"#utility.yul\":23606:23831   */\n      pop\n      jump\t// out\n        /* \"#utility.yul\":23837:24015   */\n    tag_238:\n        /* \"#utility.yul\":23977:24007   */\n      0x596f7520616c72656164792073656e74206120726573706f6e73652e00000000\n        /* \"#utility.yul\":23973:23974   */\n      0x00\n        /* \"#utility.yul\":23965:23971   */\n      dup3\n        /* \"#utility.yul\":23961:23975   */\n      add\n        /* \"#utility.yul\":23954:24008   */\n      mstore\n        /* \"#utility.yul\":23837:24015   */\n      pop\n      jump\t// out\n        /* \"#utility.yul\":24021:24192   */\n    tag_243:\n        /* \"#utility.yul\":24161:24184   */\n      0x496e69746961746f722063616e277420766f7465210000000000000000000000\n        /* \"#utility.yul\":24157:24158   */\n      0x00\n        /* \"#utility.yul\":24149:24155   */\n      dup3\n        /* \"#utility.yul\":24145:24159   */\n      add\n        /* \"#utility.yul\":24138:24185   */\n      mstore\n        /* \"#utility.yul\":24021:24192   */\n      pop\n      jump\t// out\n        /* \"#utility.yul\":24198:24378   */\n    tag_248:\n        /* \"#utility.yul\":24338:24370   */\n      0x596f7520617265206e6f74207265676973746572656420746f20766f74650000\n        /* \"#utility.yul\":24334:24335   */\n      0x00\n        /* \"#utility.yul\":24326:24332   */\n      dup3\n        /* \"#utility.yul\":24322:24336   */\n      add\n        /* \"#utility.yul\":24315:24371   */\n      mstore\n        /* \"#utility.yul\":24198:24378   */\n      pop\n      jump\t// out\n        /* \"#utility.yul\":24384:24607   */\n    tag_253:\n        /* \"#utility.yul\":24524:24558   */\n      0x50726f706f73616c206861732072656163686564206974732065787069727920\n        /* \"#utility.yul\":24520:24521   */\n      0x00\n        /* \"#utility.yul\":24512:24518   */\n      dup3\n        /* \"#utility.yul\":24508:24522   */\n      add\n        /* \"#utility.yul\":24501:24559   */\n      mstore\n        /* \"#utility.yul\":24593:24599   */\n      0x6461746500000000000000000000000000000000000000000000000000000000\n        /* \"#utility.yul\":24588:24590   */\n      0x20\n        /* \"#utility.yul\":24580:24586   */\n      dup3\n        /* \"#utility.yul\":24576:24591   */\n      add\n        /* \"#utility.yul\":24569:24600   */\n      mstore\n        /* \"#utility.yul\":24384:24607   */\n      pop\n      jump\t// out\n        /* \"#utility.yul\":24613:24840   */\n    tag_258:\n        /* \"#utility.yul\":24753:24787   */\n      0x4f6e6c7920696e69746961746f722063616e2072656769737465722061207265\n        /* \"#utility.yul\":24749:24750   */\n      0x00\n        /* \"#utility.yul\":24741:24747   */\n      dup3\n        /* \"#utility.yul\":24737:24751   */\n      add\n        /* \"#utility.yul\":24730:24788   */\n      mstore\n        /* \"#utility.yul\":24822:24832   */\n      0x63697069656e742e000000000000000000000000000000000000000000000000\n        /* \"#utility.yul\":24817:24819   */\n      0x20\n        /* \"#utility.yul\":24809:24815   */\n      dup3\n        /* \"#utility.yul\":24805:24820   */\n      add\n        /* \"#utility.yul\":24798:24833   */\n      mstore\n        /* \"#utility.yul\":24613:24840   */\n      pop\n      jump\t// out\n        /* \"#utility.yul\":24846:25028   */\n    tag_263:\n        /* \"#utility.yul\":24986:25020   */\n      0x5665726469637420686173206e6f74206265656e207265616368656420796574\n        /* \"#utility.yul\":24982:24983   */\n      0x00\n        /* \"#utility.yul\":24974:24980   */\n      dup3\n        /* \"#utility.yul\":24970:24984   */\n      add\n        /* \"#utility.yul\":24963:25021   */\n      mstore\n        /* \"#utility.yul\":24846:25028   */\n      pop\n      jump\t// out\n        /* \"#utility.yul\":25034:25202   */\n    tag_268:\n        /* \"#utility.yul\":25174:25194   */\n      0x566f74696e672068617320657870697265640000000000000000000000000000\n        /* \"#utility.yul\":25170:25171   */\n      0x00\n        /* \"#utility.yul\":25162:25168   */\n      dup3\n        /* \"#utility.yul\":25158:25172   */\n      add\n        /* \"#utility.yul\":25151:25195   */\n      mstore\n        /* \"#utility.yul\":25034:25202   */\n      pop\n      jump\t// out\n        /* \"#utility.yul\":25208:25432   */\n    tag_273:\n        /* \"#utility.yul\":25348:25382   */\n      0x436f6e73656e7375732068617320616c7265616479206265656e2063616c6375\n        /* \"#utility.yul\":25344:25345   */\n      0x00\n        /* \"#utility.yul\":25336:25342   */\n      dup3\n        /* \"#utility.yul\":25332:25346   */\n      add\n        /* \"#utility.yul\":25325:25383   */\n      mstore\n        /* \"#utility.yul\":25417:25424   */\n      0x6c61746564000000000000000000000000000000000000000000000000000000\n        /* \"#utility.yul\":25412:25414   */\n      0x20\n        /* \"#utility.yul\":25404:25410   */\n      dup3\n        /* \"#utility.yul\":25400:25415   */\n      add\n        /* \"#utility.yul\":25393:25425   */\n      mstore\n        /* \"#utility.yul\":25208:25432   */\n      pop\n      jump\t// out\n        /* \"#utility.yul\":25438:25560   */\n    tag_157:\n        /* \"#utility.yul\":25511:25535   */\n      tag_417\n        /* \"#utility.yul\":25529:25534   */\n      dup2\n        /* \"#utility.yul\":25511:25535   */\n      tag_191\n      jump\t// in\n    tag_417:\n        /* \"#utility.yul\":25504:25509   */\n      dup2\n        /* \"#utility.yul\":25501:25536   */\n      eq\n        /* \"#utility.yul\":25491:25554   */\n      tag_418\n      jumpi\n        /* \"#utility.yul\":25550:25551   */\n      0x00\n        /* \"#utility.yul\":25547:25548   */\n      dup1\n        /* \"#utility.yul\":25540:25552   */\n      revert\n        /* \"#utility.yul\":25491:25554   */\n    tag_418:\n        /* \"#utility.yul\":25438:25560   */\n      pop\n      jump\t// out\n        /* \"#utility.yul\":25566:25688   */\n    tag_167:\n        /* \"#utility.yul\":25639:25663   */\n      tag_420\n        /* \"#utility.yul\":25657:25662   */\n      dup2\n        /* \"#utility.yul\":25639:25663   */\n      tag_293\n      jump\t// in\n    tag_420:\n        /* \"#utility.yul\":25632:25637   */\n      dup2\n        /* \"#utility.yul\":25629:25664   */\n      eq\n        /* \"#utility.yul\":25619:25682   */\n      tag_421\n      jumpi\n        /* \"#utility.yul\":25678:25679   */\n      0x00\n        /* \"#utility.yul\":25675:25676   */\n      dup1\n        /* \"#utility.yul\":25668:25680   */\n      revert\n        /* \"#utility.yul\":25619:25682   */\n    tag_421:\n        /* \"#utility.yul\":25566:25688   */\n      pop\n      jump\t// out\n\n    auxdata: 0xa2646970667358221220da8b37d7b3092069f6d82af85782876d8ef31981ffc7f1f5b0039440266f913f64736f6c63430008070033\n}\n",
				"bytecode": {
					"linkReferences": {},
					"object": "60806040523480156200001157600080fd5b506040516200283e3803806200283e8339818101604052810190620000379190620001f6565b604051806101400160405280600081526020018481526020018281526020013073ffffffffffffffffffffffffffffffffffffffff1681526020013373ffffffffffffffffffffffffffffffffffffffff16815260200183426200009c919062000252565b81526020016000815260200160008152602001600081526020017f52656a6563746564000000000000000000000000000000000000000000000000815250600360008201518160000155602082015181600101556040820151816002015560608201518160030160006101000a81548173ffffffffffffffffffffffffffffffffffffffff021916908373ffffffffffffffffffffffffffffffffffffffff16021790555060808201518160040160006101000a81548173ffffffffffffffffffffffffffffffffffffffff021916908373ffffffffffffffffffffffffffffffffffffffff16021790555060a0820151816005015560c0820151816006015560e08201518160070155610100820151816008015561012082015181600901559050505050506200032b565b600081519050620001d981620002f7565b92915050565b600081519050620001f08162000311565b92915050565b600080600060608486031215620002125762000211620002f2565b5b60006200022286828701620001c8565b93505060206200023586828701620001df565b92505060406200024886828701620001df565b9150509250925092565b60006200025f82620002b9565b91506200026c83620002b9565b9250827fffffffffffffffffffffffffffffffffffffffffffffffffffffffffffffffff03821115620002a457620002a3620002c3565b5b828201905092915050565b6000819050919050565b6000819050919050565b7f4e487b7100000000000000000000000000000000000000000000000000000000600052601160045260246000fd5b600080fd5b6200030281620002af565b81146200030e57600080fd5b50565b6200031c81620002b9565b81146200032857600080fd5b50565b612503806200033b6000396000f3fe608060405234801561001057600080fd5b50600436106100a95760003560e01c8063753ec10311610071578063753ec10314610166578063823167451461018d57806395b02dfa146101ac5780639aa4bbdd146101b6578063a5ea11da146101e8578063da58c7d91461020a576100a9565b80630cb6aaf1146100ae57806315fe6f1b146100de57806319eb4a90146100fa578063323082d7146101185780635361a0ea14610134575b600080fd5b6100c860048036038101906100c391906118ed565b61023c565b6040516100d59190611c74565b60405180910390f35b6100f860048036038101906100f39190611877565b61027b565b005b610102610626565b60405161010f9190611cc6565b60405180910390f35b610132600480360381019061012d91906118a4565b610633565b005b61014e60048036038101906101499190611877565b610ddc565b60405161015d93929190611c8f565b60405180910390f35b61016e610ef1565b6040516101849a99989796959493929190611ea6565b60405180910390f35b610195610f73565b6040516101a3929190611e74565b60405180910390f35b6101b46111bd565b005b6101d060048036038101906101cb9190611877565b61162d565b6040516101df93929190611c8f565b60405180910390f35b6101f0611691565b604051610201959493929190611ce1565b60405180910390f35b610224600480360381019061021f91906118ed565b6116e8565b60405161023393929190611c8f565b60405180910390f35b6000818154811061024c57600080fd5b906000526020600020016000915054906101000a900473ffffffffffffffffffffffffffffffffffffffff1681565b600360040160009054906101000a900473ffffffffffffffffffffffffffffffffffffffff1673ffffffffffffffffffffffffffffffffffffffff163373ffffffffffffffffffffffffffffffffffffffff161461030e576040517f08c379a000000000000000000000000000000000000000000000000000000000815260040161030590611df4565b60405180910390fd5b600360040160009054906101000a900473ffffffffffffffffffffffffffffffffffffffff1673ffffffffffffffffffffffffffffffffffffffff168173ffffffffffffffffffffffffffffffffffffffff1614156103a2576040517f08c379a000000000000000000000000000000000000000000000000000000000815260040161039990611d94565b60405180910390fd5b600073ffffffffffffffffffffffffffffffffffffffff16600260008373ffffffffffffffffffffffffffffffffffffffff1673ffffffffffffffffffffffffffffffffffffffff16815260200190815260200160002060000160029054906101000a900473ffffffffffffffffffffffffffffffffffffffff1673ffffffffffffffffffffffffffffffffffffffff1614610473576040517f08c379a000000000000000000000000000000000000000000000000000000000815260040161046a90611d34565b60405180910390fd5b60036005015442106104ba576040517f08c379a00000000000000000000000000000000000000000000000000000000081526004016104b190611dd4565b60405180910390fd5b600060405180606001604052806000151581526020016000151581526020018373ffffffffffffffffffffffffffffffffffffffff16815250905080600260008473ffffffffffffffffffffffffffffffffffffffff1673ffffffffffffffffffffffffffffffffffffffff16815260200190815260200160002060008201518160000160006101000a81548160ff02191690831515021790555060208201518160000160016101000a81548160ff02191690831515021790555060408201518160000160026101000a81548173ffffffffffffffffffffffffffffffffffffffff021916908373ffffffffffffffffffffffffffffffffffffffff1602179055509050506000829080600181540180825580915050600190039060005260206000200160009091909190916101000a81548173ffffffffffffffffffffffffffffffffffffffff021916908373ffffffffffffffffffffffffffffffffffffffff1602179055505050565b6000600360010154905090565b600360050154421061067a576040517f08c379a000000000000000000000000000000000000000000000000000000000815260040161067190611e34565b60405180910390fd5b600073ffffffffffffffffffffffffffffffffffffffff16600260003373ffffffffffffffffffffffffffffffffffffffff1673ffffffffffffffffffffffffffffffffffffffff16815260200190815260200160002060000160029054906101000a900473ffffffffffffffffffffffffffffffffffffffff1673ffffffffffffffffffffffffffffffffffffffff16141561074c576040517f08c379a000000000000000000000000000000000000000000000000000000000815260040161074390611db4565b60405180910390fd5b600260003373ffffffffffffffffffffffffffffffffffffffff1673ffffffffffffffffffffffffffffffffffffffff16815260200190815260200160002060000160009054906101000a900460ff16156107dc576040517f08c379a00000000000000000000000000000000000000000000000000000000081526004016107d390611d74565b60405180910390fd5b6040518060400160405280600981526020017f6920617070726f766500000000000000000000000000000000000000000000008152508051906020012081805190602001201415610a45576001600260003373ffffffffffffffffffffffffffffffffffffffff1673ffffffffffffffffffffffffffffffffffffffff16815260200190815260200160002060000160006101000a81548160ff0219169083151502179055506001600260003373ffffffffffffffffffffffffffffffffffffffff1673ffffffffffffffffffffffffffffffffffffffff16815260200190815260200160002060000160016101000a81548160ff0219169083151502179055506001600360070160008282546108f39190611fe2565b925050819055506001600360000160008282546109109190611fe2565b925050819055506001600260003373ffffffffffffffffffffffffffffffffffffffff1673ffffffffffffffffffffffffffffffffffffffff168152602001908152602001600020908060018154018082558091505060019003906000526020600020016000909190919091506000820160009054906101000a900460ff168160000160006101000a81548160ff0219169083151502179055506000820160019054906101000a900460ff168160000160016101000a81548160ff0219169083151502179055506000820160029054906101000a900473ffffffffffffffffffffffffffffffffffffffff168160000160026101000a81548173ffffffffffffffffffffffffffffffffffffffff021916908373ffffffffffffffffffffffffffffffffffffffff1602179055505050610dd9565b6040518060400160405280600c81526020017f6920646973617070726f766500000000000000000000000000000000000000008152508051906020012081805190602001201415610c36576001600260003373ffffffffffffffffffffffffffffffffffffffff1673ffffffffffffffffffffffffffffffffffffffff16815260200190815260200160002060000160006101000a81548160ff021916908315150217905550600160036000016000828254610b019190611fe2565b925050819055506001600260003373ffffffffffffffffffffffffffffffffffffffff1673ffffffffffffffffffffffffffffffffffffffff168152602001908152602001600020908060018154018082558091505060019003906000526020600020016000909190919091506000820160009054906101000a900460ff168160000160006101000a81548160ff0219169083151502179055506000820160019054906101000a900460ff168160000160016101000a81548160ff0219169083151502179055506000820160029054906101000a900473ffffffffffffffffffffffffffffffffffffffff168160000160026101000a81548173ffffffffffffffffffffffffffffffffffffffff021916908373ffffffffffffffffffffffffffffffffffffffff1602179055505050610dd8565b6001600260003373ffffffffffffffffffffffffffffffffffffffff1673ffffffffffffffffffffffffffffffffffffffff16815260200190815260200160002060000160006101000a81548160ff021916908315150217905550600160036000016000828254610ca79190611fe2565b925050819055506001600260003373ffffffffffffffffffffffffffffffffffffffff1673ffffffffffffffffffffffffffffffffffffffff168152602001908152602001600020908060018154018082558091505060019003906000526020600020016000909190919091506000820160009054906101000a900460ff168160000160006101000a81548160ff0219169083151502179055506000820160019054906101000a900460ff168160000160016101000a81548160ff0219169083151502179055506000820160029054906101000a900473ffffffffffffffffffffffffffffffffffffffff168160000160026101000a81548173ffffffffffffffffffffffffffffffffffffffff021916908373ffffffffffffffffffffffffffffffffffffffff16021790555050505b5b50565b6000806000600260008573ffffffffffffffffffffffffffffffffffffffff1673ffffffffffffffffffffffffffffffffffffffff16815260200190815260200160002060000160019054906101000a900460ff16600260008673ffffffffffffffffffffffffffffffffffffffff1673ffffffffffffffffffffffffffffffffffffffff16815260200190815260200160002060000160009054906101000a900460ff16600260008773ffffffffffffffffffffffffffffffffffffffff1673ffffffffffffffffffffffffffffffffffffffff16815260200190815260200160002060000160029054906101000a900473ffffffffffffffffffffffffffffffffffffffff169250925092509193909250565b60038060000154908060010154908060020154908060030160009054906101000a900473ffffffffffffffffffffffffffffffffffffffff16908060040160009054906101000a900473ffffffffffffffffffffffffffffffffffffffff1690806005015490806006015490806007015490806008015490806009015490508a565b610f7b611758565b6060600360050154421015610fc5576040517f08c379a0000000000000000000000000000000000000000000000000000000008152600401610fbc90611e14565b60405180910390fd5b6003600181604051806101400160405290816000820154815260200160018201548152602001600282015481526020016003820160009054906101000a900473ffffffffffffffffffffffffffffffffffffffff1673ffffffffffffffffffffffffffffffffffffffff1673ffffffffffffffffffffffffffffffffffffffff1681526020016004820160009054906101000a900473ffffffffffffffffffffffffffffffffffffffff1673ffffffffffffffffffffffffffffffffffffffff1673ffffffffffffffffffffffffffffffffffffffff16815260200160058201548152602001600682015481526020016007820154815260200160088201548152602001600982015481525050915080805480602002602001604051908101604052809291908181526020016000905b828210156111af578382906000526020600020016040518060600160405290816000820160009054906101000a900460ff161515151581526020016000820160019054906101000a900460ff161515151581526020016000820160029054906101000a900473ffffffffffffffffffffffffffffffffffffffff1673ffffffffffffffffffffffffffffffffffffffff1673ffffffffffffffffffffffffffffffffffffffff1681525050815260200190600101906110f5565b505050509050915091509091565b600360050154421015611205576040517f08c379a00000000000000000000000000000000000000000000000000000000081526004016111fc90611e14565b60405180910390fd5b60006003600801541461124d576040517f08c379a000000000000000000000000000000000000000000000000000000000815260040161124490611e54565b60405180910390fd5b600360040160009054906101000a900473ffffffffffffffffffffffffffffffffffffffff1673ffffffffffffffffffffffffffffffffffffffff163373ffffffffffffffffffffffffffffffffffffffff16148061133b5750600073ffffffffffffffffffffffffffffffffffffffff16600260003373ffffffffffffffffffffffffffffffffffffffff1673ffffffffffffffffffffffffffffffffffffffff16815260200190815260200160002060000160029054906101000a900473ffffffffffffffffffffffffffffffffffffffff1673ffffffffffffffffffffffffffffffffffffffff1614155b61137a576040517f08c379a000000000000000000000000000000000000000000000000000000000815260040161137190611d54565b60405180910390fd5b60646000805490506003600701546113929190612038565b61139c9190612069565b600360060181905550600360020154600360060154106113e1577f41636365707465640000000000000000000000000000000000000000000000006003600901819055505b60005b6000805490508160ff16101561160d576000151560026000808460ff1681548110611412576114116121ea565b5b9060005260206000200160009054906101000a900473ffffffffffffffffffffffffffffffffffffffff1673ffffffffffffffffffffffffffffffffffffffff1673ffffffffffffffffffffffffffffffffffffffff16815260200190815260200160002060000160009054906101000a900460ff16151514156115fa57600160026000808460ff16815481106114ac576114ab6121ea565b5b9060005260206000200160009054906101000a900473ffffffffffffffffffffffffffffffffffffffff1673ffffffffffffffffffffffffffffffffffffffff1673ffffffffffffffffffffffffffffffffffffffff168152602001908152602001600020908060018154018082558091505060019003906000526020600020016000909190919091506000820160009054906101000a900460ff168160000160006101000a81548160ff0219169083151502179055506000820160019054906101000a900460ff168160000160016101000a81548160ff0219169083151502179055506000820160029054906101000a900473ffffffffffffffffffffffffffffffffffffffff168160000160026101000a81548173ffffffffffffffffffffffffffffffffffffffff021916908373ffffffffffffffffffffffffffffffffffffffff16021790555050505b808061160590612162565b9150506113e4565b506001600360080160008282546116249190611fe2565b92505081905550565b60026020528060005260406000206000915090508060000160009054906101000a900460ff16908060000160019054906101000a900460ff16908060000160029054906101000a900473ffffffffffffffffffffffffffffffffffffffff16905083565b6000806000806000600360010154600360050154600360040160009054906101000a900473ffffffffffffffffffffffffffffffffffffffff16600360020154600360070154945094509450945094509091929394565b600181815481106116f857600080fd5b906000526020600020016000915090508060000160009054906101000a900460ff16908060000160019054906101000a900460ff16908060000160029054906101000a900473ffffffffffffffffffffffffffffffffffffffff16905083565b604051806101400160405280600081526020016000801916815260200160008152602001600073ffffffffffffffffffffffffffffffffffffffff168152602001600073ffffffffffffffffffffffffffffffffffffffff16815260200160008152602001600081526020016000815260200160008152602001600080191681525090565b60006117f06117eb84611f67565b611f42565b90508281526020810184848401111561180c5761180b61224d565b5b611817848285612122565b509392505050565b60008135905061182e8161249f565b92915050565b600082601f83011261184957611848612248565b5b81356118598482602086016117dd565b91505092915050565b600081359050611871816124b6565b92915050565b60006020828403121561188d5761188c612257565b5b600061189b8482850161181f565b91505092915050565b6000602082840312156118ba576118b9612257565b5b600082013567ffffffffffffffff8111156118d8576118d7612252565b5b6118e484828501611834565b91505092915050565b60006020828403121561190357611902612257565b5b600061191184828501611862565b91505092915050565b60006119268383611c14565b60608301905092915050565b61193b816120c3565b82525050565b61194a816120c3565b82525050565b600061195b82611fa8565b6119658185611fc0565b935061197083611f98565b8060005b838110156119a1578151611988888261191a565b975061199383611fb3565b925050600181019050611974565b5085935050505092915050565b6119b7816120d5565b82525050565b6119c6816120d5565b82525050565b6119d5816120e1565b82525050565b6119e4816120e1565b82525050565b60006119f7601f83611fd1565b9150611a028261226d565b602082019050919050565b6000611a1a602683611fd1565b9150611a2582612296565b604082019050919050565b6000611a3d601c83611fd1565b9150611a48826122e5565b602082019050919050565b6000611a60601583611fd1565b9150611a6b8261230e565b602082019050919050565b6000611a83601e83611fd1565b9150611a8e82612337565b602082019050919050565b6000611aa6602483611fd1565b9150611ab182612360565b604082019050919050565b6000611ac9602883611fd1565b9150611ad4826123af565b604082019050919050565b6000611aec602083611fd1565b9150611af7826123fe565b602082019050919050565b6000611b0f601283611fd1565b9150611b1a82612427565b602082019050919050565b6000611b32602583611fd1565b9150611b3d82612450565b604082019050919050565b61014082016000820151611b5f6000850182611c56565b506020820151611b7260208501826119cc565b506040820151611b856040850182611c56565b506060820151611b986060850182611932565b506080820151611bab6080850182611932565b5060a0820151611bbe60a0850182611c56565b5060c0820151611bd160c0850182611c56565b5060e0820151611be460e0850182611c56565b50610100820151611bf9610100850182611c56565b50610120820151611c0e6101208501826119cc565b50505050565b606082016000820151611c2a60008501826119ae565b506020820151611c3d60208501826119ae565b506040820151611c506040850182611932565b50505050565b611c5f8161210b565b82525050565b611c6e8161210b565b82525050565b6000602082019050611c896000830184611941565b92915050565b6000606082019050611ca460008301866119bd565b611cb160208301856119bd565b611cbe6040830184611941565b949350505050565b6000602082019050611cdb60008301846119db565b92915050565b600060a082019050611cf660008301886119db565b611d036020830187611c65565b611d106040830186611941565b611d1d6060830185611c65565b611d2a6080830184611c65565b9695505050505050565b60006020820190508181036000830152611d4d816119ea565b9050919050565b60006020820190508181036000830152611d6d81611a0d565b9050919050565b60006020820190508181036000830152611d8d81611a30565b9050919050565b60006020820190508181036000830152611dad81611a53565b9050919050565b60006020820190508181036000830152611dcd81611a76565b9050919050565b60006020820190508181036000830152611ded81611a99565b9050919050565b60006020820190508181036000830152611e0d81611abc565b9050919050565b60006020820190508181036000830152611e2d81611adf565b9050919050565b60006020820190508181036000830152611e4d81611b02565b9050919050565b60006020820190508181036000830152611e6d81611b25565b9050919050565b600061016082019050611e8a6000830185611b48565b818103610140830152611e9d8184611950565b90509392505050565b600061014082019050611ebc600083018d611c65565b611ec9602083018c6119db565b611ed6604083018b611c65565b611ee3606083018a611941565b611ef06080830189611941565b611efd60a0830188611c65565b611f0a60c0830187611c65565b611f1760e0830186611c65565b611f25610100830185611c65565b611f336101208301846119db565b9b9a5050505050505050505050565b6000611f4c611f5d565b9050611f588282612131565b919050565b6000604051905090565b600067ffffffffffffffff821115611f8257611f81612219565b5b611f8b8261225c565b9050602081019050919050565b6000819050602082019050919050565b600081519050919050565b6000602082019050919050565b600082825260208201905092915050565b600082825260208201905092915050565b6000611fed8261210b565b9150611ff88361210b565b9250827fffffffffffffffffffffffffffffffffffffffffffffffffffffffffffffffff0382111561202d5761202c61218c565b5b828201905092915050565b60006120438261210b565b915061204e8361210b565b92508261205e5761205d6121bb565b5b828204905092915050565b60006120748261210b565b915061207f8361210b565b9250817fffffffffffffffffffffffffffffffffffffffffffffffffffffffffffffffff04831182151516156120b8576120b761218c565b5b828202905092915050565b60006120ce826120eb565b9050919050565b60008115159050919050565b6000819050919050565b600073ffffffffffffffffffffffffffffffffffffffff82169050919050565b6000819050919050565b600060ff82169050919050565b82818337600083830152505050565b61213a8261225c565b810181811067ffffffffffffffff8211171561215957612158612219565b5b80604052505050565b600061216d82612115565b915060ff8214156121815761218061218c565b5b600182019050919050565b7f4e487b7100000000000000000000000000000000000000000000000000000000600052601160045260246000fd5b7f4e487b7100000000000000000000000000000000000000000000000000000000600052601260045260246000fd5b7f4e487b7100000000000000000000000000000000000000000000000000000000600052603260045260246000fd5b7f4e487b7100000000000000000000000000000000000000000000000000000000600052604160045260246000fd5b600080fd5b600080fd5b600080fd5b600080fd5b6000601f19601f8301169050919050565b7f526563697069656e7420697320616c7265616479207265676973746572656400600082015250565b7f596f75206172656e277420617574686f72697a6520746f20636f6d70696c652060008201527f42756e646c650000000000000000000000000000000000000000000000000000602082015250565b7f596f7520616c72656164792073656e74206120726573706f6e73652e00000000600082015250565b7f496e69746961746f722063616e277420766f7465210000000000000000000000600082015250565b7f596f7520617265206e6f74207265676973746572656420746f20766f74650000600082015250565b7f50726f706f73616c20686173207265616368656420697473206578706972792060008201527f6461746500000000000000000000000000000000000000000000000000000000602082015250565b7f4f6e6c7920696e69746961746f722063616e207265676973746572206120726560008201527f63697069656e742e000000000000000000000000000000000000000000000000602082015250565b7f5665726469637420686173206e6f74206265656e207265616368656420796574600082015250565b7f566f74696e672068617320657870697265640000000000000000000000000000600082015250565b7f436f6e73656e7375732068617320616c7265616479206265656e2063616c637560008201527f6c61746564000000000000000000000000000000000000000000000000000000602082015250565b6124a8816120c3565b81146124b357600080fd5b50565b6124bf8161210b565b81146124ca57600080fd5b5056fea2646970667358221220da8b37d7b3092069f6d82af85782876d8ef31981ffc7f1f5b0039440266f913f64736f6c63430008070033",
					"opcodes": "PUSH1 0x80 PUSH1 0x40 MSTORE CALLVALUE DUP1 ISZERO PUSH3 0x11 JUMPI PUSH1 0x0 DUP1 REVERT JUMPDEST POP PUSH1 0x40 MLOAD PUSH3 0x283E CODESIZE SUB DUP1 PUSH3 0x283E DUP4 CODECOPY DUP2 DUP2 ADD PUSH1 0x40 MSTORE DUP2 ADD SWAP1 PUSH3 0x37 SWAP2 SWAP1 PUSH3 0x1F6 JUMP JUMPDEST PUSH1 0x40 MLOAD DUP1 PUSH2 0x140 ADD PUSH1 0x40 MSTORE DUP1 PUSH1 0x0 DUP2 MSTORE PUSH1 0x20 ADD DUP5 DUP2 MSTORE PUSH1 0x20 ADD DUP3 DUP2 MSTORE PUSH1 0x20 ADD ADDRESS PUSH20 0xFFFFFFFFFFFFFFFFFFFFFFFFFFFFFFFFFFFFFFFF AND DUP2 MSTORE PUSH1 0x20 ADD CALLER PUSH20 0xFFFFFFFFFFFFFFFFFFFFFFFFFFFFFFFFFFFFFFFF AND DUP2 MSTORE PUSH1 0x20 ADD DUP4 TIMESTAMP PUSH3 0x9C SWAP2 SWAP1 PUSH3 0x252 JUMP JUMPDEST DUP2 MSTORE PUSH1 0x20 ADD PUSH1 0x0 DUP2 MSTORE PUSH1 0x20 ADD PUSH1 0x0 DUP2 MSTORE PUSH1 0x20 ADD PUSH1 0x0 DUP2 MSTORE PUSH1 0x20 ADD PUSH32 0x52656A6563746564000000000000000000000000000000000000000000000000 DUP2 MSTORE POP PUSH1 0x3 PUSH1 0x0 DUP3 ADD MLOAD DUP2 PUSH1 0x0 ADD SSTORE PUSH1 0x20 DUP3 ADD MLOAD DUP2 PUSH1 0x1 ADD SSTORE PUSH1 0x40 DUP3 ADD MLOAD DUP2 PUSH1 0x2 ADD SSTORE PUSH1 0x60 DUP3 ADD MLOAD DUP2 PUSH1 0x3 ADD PUSH1 0x0 PUSH2 0x100 EXP DUP2 SLOAD DUP2 PUSH20 0xFFFFFFFFFFFFFFFFFFFFFFFFFFFFFFFFFFFFFFFF MUL NOT AND SWAP1 DUP4 PUSH20 0xFFFFFFFFFFFFFFFFFFFFFFFFFFFFFFFFFFFFFFFF AND MUL OR SWAP1 SSTORE POP PUSH1 0x80 DUP3 ADD MLOAD DUP2 PUSH1 0x4 ADD PUSH1 0x0 PUSH2 0x100 EXP DUP2 SLOAD DUP2 PUSH20 0xFFFFFFFFFFFFFFFFFFFFFFFFFFFFFFFFFFFFFFFF MUL NOT AND SWAP1 DUP4 PUSH20 0xFFFFFFFFFFFFFFFFFFFFFFFFFFFFFFFFFFFFFFFF AND MUL OR SWAP1 SSTORE POP PUSH1 0xA0 DUP3 ADD MLOAD DUP2 PUSH1 0x5 ADD SSTORE PUSH1 0xC0 DUP3 ADD MLOAD DUP2 PUSH1 0x6 ADD SSTORE PUSH1 0xE0 DUP3 ADD MLOAD DUP2 PUSH1 0x7 ADD SSTORE PUSH2 0x100 DUP3 ADD MLOAD DUP2 PUSH1 0x8 ADD SSTORE PUSH2 0x120 DUP3 ADD MLOAD DUP2 PUSH1 0x9 ADD SSTORE SWAP1 POP POP POP POP POP PUSH3 0x32B JUMP JUMPDEST PUSH1 0x0 DUP2 MLOAD SWAP1 POP PUSH3 0x1D9 DUP2 PUSH3 0x2F7 JUMP JUMPDEST SWAP3 SWAP2 POP POP JUMP JUMPDEST PUSH1 0x0 DUP2 MLOAD SWAP1 POP PUSH3 0x1F0 DUP2 PUSH3 0x311 JUMP JUMPDEST SWAP3 SWAP2 POP POP JUMP JUMPDEST PUSH1 0x0 DUP1 PUSH1 0x0 PUSH1 0x60 DUP5 DUP7 SUB SLT ISZERO PUSH3 0x212 JUMPI PUSH3 0x211 PUSH3 0x2F2 JUMP JUMPDEST JUMPDEST PUSH1 0x0 PUSH3 0x222 DUP7 DUP3 DUP8 ADD PUSH3 0x1C8 JUMP JUMPDEST SWAP4 POP POP PUSH1 0x20 PUSH3 0x235 DUP7 DUP3 DUP8 ADD PUSH3 0x1DF JUMP JUMPDEST SWAP3 POP POP PUSH1 0x40 PUSH3 0x248 DUP7 DUP3 DUP8 ADD PUSH3 0x1DF JUMP JUMPDEST SWAP2 POP POP SWAP3 POP SWAP3 POP SWAP3 JUMP JUMPDEST PUSH1 0x0 PUSH3 0x25F DUP3 PUSH3 0x2B9 JUMP JUMPDEST SWAP2 POP PUSH3 0x26C DUP4 PUSH3 0x2B9 JUMP JUMPDEST SWAP3 POP DUP3 PUSH32 0xFFFFFFFFFFFFFFFFFFFFFFFFFFFFFFFFFFFFFFFFFFFFFFFFFFFFFFFFFFFFFFFF SUB DUP3 GT ISZERO PUSH3 0x2A4 JUMPI PUSH3 0x2A3 PUSH3 0x2C3 JUMP JUMPDEST JUMPDEST DUP3 DUP3 ADD SWAP1 POP SWAP3 SWAP2 POP POP JUMP JUMPDEST PUSH1 0x0 DUP2 SWAP1 POP SWAP2 SWAP1 POP JUMP JUMPDEST PUSH1 0x0 DUP2 SWAP1 POP SWAP2 SWAP1 POP JUMP JUMPDEST PUSH32 0x4E487B7100000000000000000000000000000000000000000000000000000000 PUSH1 0x0 MSTORE PUSH1 0x11 PUSH1 0x4 MSTORE PUSH1 0x24 PUSH1 0x0 REVERT JUMPDEST PUSH1 0x0 DUP1 REVERT JUMPDEST PUSH3 0x302 DUP2 PUSH3 0x2AF JUMP JUMPDEST DUP2 EQ PUSH3 0x30E JUMPI PUSH1 0x0 DUP1 REVERT JUMPDEST POP JUMP JUMPDEST PUSH3 0x31C DUP2 PUSH3 0x2B9 JUMP JUMPDEST DUP2 EQ PUSH3 0x328 JUMPI PUSH1 0x0 DUP1 REVERT JUMPDEST POP JUMP JUMPDEST PUSH2 0x2503 DUP1 PUSH3 0x33B PUSH1 0x0 CODECOPY PUSH1 0x0 RETURN INVALID PUSH1 0x80 PUSH1 0x40 MSTORE CALLVALUE DUP1 ISZERO PUSH2 0x10 JUMPI PUSH1 0x0 DUP1 REVERT JUMPDEST POP PUSH1 0x4 CALLDATASIZE LT PUSH2 0xA9 JUMPI PUSH1 0x0 CALLDATALOAD PUSH1 0xE0 SHR DUP1 PUSH4 0x753EC103 GT PUSH2 0x71 JUMPI DUP1 PUSH4 0x753EC103 EQ PUSH2 0x166 JUMPI DUP1 PUSH4 0x82316745 EQ PUSH2 0x18D JUMPI DUP1 PUSH4 0x95B02DFA EQ PUSH2 0x1AC JUMPI DUP1 PUSH4 0x9AA4BBDD EQ PUSH2 0x1B6 JUMPI DUP1 PUSH4 0xA5EA11DA EQ PUSH2 0x1E8 JUMPI DUP1 PUSH4 0xDA58C7D9 EQ PUSH2 0x20A JUMPI PUSH2 0xA9 JUMP JUMPDEST DUP1 PUSH4 0xCB6AAF1 EQ PUSH2 0xAE JUMPI DUP1 PUSH4 0x15FE6F1B EQ PUSH2 0xDE JUMPI DUP1 PUSH4 0x19EB4A90 EQ PUSH2 0xFA JUMPI DUP1 PUSH4 0x323082D7 EQ PUSH2 0x118 JUMPI DUP1 PUSH4 0x5361A0EA EQ PUSH2 0x134 JUMPI JUMPDEST PUSH1 0x0 DUP1 REVERT JUMPDEST PUSH2 0xC8 PUSH1 0x4 DUP1 CALLDATASIZE SUB DUP2 ADD SWAP1 PUSH2 0xC3 SWAP2 SWAP1 PUSH2 0x18ED JUMP JUMPDEST PUSH2 0x23C JUMP JUMPDEST PUSH1 0x40 MLOAD PUSH2 0xD5 SWAP2 SWAP1 PUSH2 0x1C74 JUMP JUMPDEST PUSH1 0x40 MLOAD DUP1 SWAP2 SUB SWAP1 RETURN JUMPDEST PUSH2 0xF8 PUSH1 0x4 DUP1 CALLDATASIZE SUB DUP2 ADD SWAP1 PUSH2 0xF3 SWAP2 SWAP1 PUSH2 0x1877 JUMP JUMPDEST PUSH2 0x27B JUMP JUMPDEST STOP JUMPDEST PUSH2 0x102 PUSH2 0x626 JUMP JUMPDEST PUSH1 0x40 MLOAD PUSH2 0x10F SWAP2 SWAP1 PUSH2 0x1CC6 JUMP JUMPDEST PUSH1 0x40 MLOAD DUP1 SWAP2 SUB SWAP1 RETURN JUMPDEST PUSH2 0x132 PUSH1 0x4 DUP1 CALLDATASIZE SUB DUP2 ADD SWAP1 PUSH2 0x12D SWAP2 SWAP1 PUSH2 0x18A4 JUMP JUMPDEST PUSH2 0x633 JUMP JUMPDEST STOP JUMPDEST PUSH2 0x14E PUSH1 0x4 DUP1 CALLDATASIZE SUB DUP2 ADD SWAP1 PUSH2 0x149 SWAP2 SWAP1 PUSH2 0x1877 JUMP JUMPDEST PUSH2 0xDDC JUMP JUMPDEST PUSH1 0x40 MLOAD PUSH2 0x15D SWAP4 SWAP3 SWAP2 SWAP1 PUSH2 0x1C8F JUMP JUMPDEST PUSH1 0x40 MLOAD DUP1 SWAP2 SUB SWAP1 RETURN JUMPDEST PUSH2 0x16E PUSH2 0xEF1 JUMP JUMPDEST PUSH1 0x40 MLOAD PUSH2 0x184 SWAP11 SWAP10 SWAP9 SWAP8 SWAP7 SWAP6 SWAP5 SWAP4 SWAP3 SWAP2 SWAP1 PUSH2 0x1EA6 JUMP JUMPDEST PUSH1 0x40 MLOAD DUP1 SWAP2 SUB SWAP1 RETURN JUMPDEST PUSH2 0x195 PUSH2 0xF73 JUMP JUMPDEST PUSH1 0x40 MLOAD PUSH2 0x1A3 SWAP3 SWAP2 SWAP1 PUSH2 0x1E74 JUMP JUMPDEST PUSH1 0x40 MLOAD DUP1 SWAP2 SUB SWAP1 RETURN JUMPDEST PUSH2 0x1B4 PUSH2 0x11BD JUMP JUMPDEST STOP JUMPDEST PUSH2 0x1D0 PUSH1 0x4 DUP1 CALLDATASIZE SUB DUP2 ADD SWAP1 PUSH2 0x1CB SWAP2 SWAP1 PUSH2 0x1877 JUMP JUMPDEST PUSH2 0x162D JUMP JUMPDEST PUSH1 0x40 MLOAD PUSH2 0x1DF SWAP4 SWAP3 SWAP2 SWAP1 PUSH2 0x1C8F JUMP JUMPDEST PUSH1 0x40 MLOAD DUP1 SWAP2 SUB SWAP1 RETURN JUMPDEST PUSH2 0x1F0 PUSH2 0x1691 JUMP JUMPDEST PUSH1 0x40 MLOAD PUSH2 0x201 SWAP6 SWAP5 SWAP4 SWAP3 SWAP2 SWAP1 PUSH2 0x1CE1 JUMP JUMPDEST PUSH1 0x40 MLOAD DUP1 SWAP2 SUB SWAP1 RETURN JUMPDEST PUSH2 0x224 PUSH1 0x4 DUP1 CALLDATASIZE SUB DUP2 ADD SWAP1 PUSH2 0x21F SWAP2 SWAP1 PUSH2 0x18ED JUMP JUMPDEST PUSH2 0x16E8 JUMP JUMPDEST PUSH1 0x40 MLOAD PUSH2 0x233 SWAP4 SWAP3 SWAP2 SWAP1 PUSH2 0x1C8F JUMP JUMPDEST PUSH1 0x40 MLOAD DUP1 SWAP2 SUB SWAP1 RETURN JUMPDEST PUSH1 0x0 DUP2 DUP2 SLOAD DUP2 LT PUSH2 0x24C JUMPI PUSH1 0x0 DUP1 REVERT JUMPDEST SWAP1 PUSH1 0x0 MSTORE PUSH1 0x20 PUSH1 0x0 KECCAK256 ADD PUSH1 0x0 SWAP2 POP SLOAD SWAP1 PUSH2 0x100 EXP SWAP1 DIV PUSH20 0xFFFFFFFFFFFFFFFFFFFFFFFFFFFFFFFFFFFFFFFF AND DUP2 JUMP JUMPDEST PUSH1 0x3 PUSH1 0x4 ADD PUSH1 0x0 SWAP1 SLOAD SWAP1 PUSH2 0x100 EXP SWAP1 DIV PUSH20 0xFFFFFFFFFFFFFFFFFFFFFFFFFFFFFFFFFFFFFFFF AND PUSH20 0xFFFFFFFFFFFFFFFFFFFFFFFFFFFFFFFFFFFFFFFF AND CALLER PUSH20 0xFFFFFFFFFFFFFFFFFFFFFFFFFFFFFFFFFFFFFFFF AND EQ PUSH2 0x30E JUMPI PUSH1 0x40 MLOAD PUSH32 0x8C379A000000000000000000000000000000000000000000000000000000000 DUP2 MSTORE PUSH1 0x4 ADD PUSH2 0x305 SWAP1 PUSH2 0x1DF4 JUMP JUMPDEST PUSH1 0x40 MLOAD DUP1 SWAP2 SUB SWAP1 REVERT JUMPDEST PUSH1 0x3 PUSH1 0x4 ADD PUSH1 0x0 SWAP1 SLOAD SWAP1 PUSH2 0x100 EXP SWAP1 DIV PUSH20 0xFFFFFFFFFFFFFFFFFFFFFFFFFFFFFFFFFFFFFFFF AND PUSH20 0xFFFFFFFFFFFFFFFFFFFFFFFFFFFFFFFFFFFFFFFF AND DUP2 PUSH20 0xFFFFFFFFFFFFFFFFFFFFFFFFFFFFFFFFFFFFFFFF AND EQ ISZERO PUSH2 0x3A2 JUMPI PUSH1 0x40 MLOAD PUSH32 0x8C379A000000000000000000000000000000000000000000000000000000000 DUP2 MSTORE PUSH1 0x4 ADD PUSH2 0x399 SWAP1 PUSH2 0x1D94 JUMP JUMPDEST PUSH1 0x40 MLOAD DUP1 SWAP2 SUB SWAP1 REVERT JUMPDEST PUSH1 0x0 PUSH20 0xFFFFFFFFFFFFFFFFFFFFFFFFFFFFFFFFFFFFFFFF AND PUSH1 0x2 PUSH1 0x0 DUP4 PUSH20 0xFFFFFFFFFFFFFFFFFFFFFFFFFFFFFFFFFFFFFFFF AND PUSH20 0xFFFFFFFFFFFFFFFFFFFFFFFFFFFFFFFFFFFFFFFF AND DUP2 MSTORE PUSH1 0x20 ADD SWAP1 DUP2 MSTORE PUSH1 0x20 ADD PUSH1 0x0 KECCAK256 PUSH1 0x0 ADD PUSH1 0x2 SWAP1 SLOAD SWAP1 PUSH2 0x100 EXP SWAP1 DIV PUSH20 0xFFFFFFFFFFFFFFFFFFFFFFFFFFFFFFFFFFFFFFFF AND PUSH20 0xFFFFFFFFFFFFFFFFFFFFFFFFFFFFFFFFFFFFFFFF AND EQ PUSH2 0x473 JUMPI PUSH1 0x40 MLOAD PUSH32 0x8C379A000000000000000000000000000000000000000000000000000000000 DUP2 MSTORE PUSH1 0x4 ADD PUSH2 0x46A SWAP1 PUSH2 0x1D34 JUMP JUMPDEST PUSH1 0x40 MLOAD DUP1 SWAP2 SUB SWAP1 REVERT JUMPDEST PUSH1 0x3 PUSH1 0x5 ADD SLOAD TIMESTAMP LT PUSH2 0x4BA JUMPI PUSH1 0x40 MLOAD PUSH32 0x8C379A000000000000000000000000000000000000000000000000000000000 DUP2 MSTORE PUSH1 0x4 ADD PUSH2 0x4B1 SWAP1 PUSH2 0x1DD4 JUMP JUMPDEST PUSH1 0x40 MLOAD DUP1 SWAP2 SUB SWAP1 REVERT JUMPDEST PUSH1 0x0 PUSH1 0x40 MLOAD DUP1 PUSH1 0x60 ADD PUSH1 0x40 MSTORE DUP1 PUSH1 0x0 ISZERO ISZERO DUP2 MSTORE PUSH1 0x20 ADD PUSH1 0x0 ISZERO ISZERO DUP2 MSTORE PUSH1 0x20 ADD DUP4 PUSH20 0xFFFFFFFFFFFFFFFFFFFFFFFFFFFFFFFFFFFFFFFF AND DUP2 MSTORE POP SWAP1 POP DUP1 PUSH1 0x2 PUSH1 0x0 DUP5 PUSH20 0xFFFFFFFFFFFFFFFFFFFFFFFFFFFFFFFFFFFFFFFF AND PUSH20 0xFFFFFFFFFFFFFFFFFFFFFFFFFFFFFFFFFFFFFFFF AND DUP2 MSTORE PUSH1 0x20 ADD SWAP1 DUP2 MSTORE PUSH1 0x20 ADD PUSH1 0x0 KECCAK256 PUSH1 0x0 DUP3 ADD MLOAD DUP2 PUSH1 0x0 ADD PUSH1 0x0 PUSH2 0x100 EXP DUP2 SLOAD DUP2 PUSH1 0xFF MUL NOT AND SWAP1 DUP4 ISZERO ISZERO MUL OR SWAP1 SSTORE POP PUSH1 0x20 DUP3 ADD MLOAD DUP2 PUSH1 0x0 ADD PUSH1 0x1 PUSH2 0x100 EXP DUP2 SLOAD DUP2 PUSH1 0xFF MUL NOT AND SWAP1 DUP4 ISZERO ISZERO MUL OR SWAP1 SSTORE POP PUSH1 0x40 DUP3 ADD MLOAD DUP2 PUSH1 0x0 ADD PUSH1 0x2 PUSH2 0x100 EXP DUP2 SLOAD DUP2 PUSH20 0xFFFFFFFFFFFFFFFFFFFFFFFFFFFFFFFFFFFFFFFF MUL NOT AND SWAP1 DUP4 PUSH20 0xFFFFFFFFFFFFFFFFFFFFFFFFFFFFFFFFFFFFFFFF AND MUL OR SWAP1 SSTORE POP SWAP1 POP POP PUSH1 0x0 DUP3 SWAP1 DUP1 PUSH1 0x1 DUP2 SLOAD ADD DUP1 DUP3 SSTORE DUP1 SWAP2 POP POP PUSH1 0x1 SWAP1 SUB SWAP1 PUSH1 0x0 MSTORE PUSH1 0x20 PUSH1 0x0 KECCAK256 ADD PUSH1 0x0 SWAP1 SWAP2 SWAP1 SWAP2 SWAP1 SWAP2 PUSH2 0x100 EXP DUP2 SLOAD DUP2 PUSH20 0xFFFFFFFFFFFFFFFFFFFFFFFFFFFFFFFFFFFFFFFF MUL NOT AND SWAP1 DUP4 PUSH20 0xFFFFFFFFFFFFFFFFFFFFFFFFFFFFFFFFFFFFFFFF AND MUL OR SWAP1 SSTORE POP POP POP JUMP JUMPDEST PUSH1 0x0 PUSH1 0x3 PUSH1 0x1 ADD SLOAD SWAP1 POP SWAP1 JUMP JUMPDEST PUSH1 0x3 PUSH1 0x5 ADD SLOAD TIMESTAMP LT PUSH2 0x67A JUMPI PUSH1 0x40 MLOAD PUSH32 0x8C379A000000000000000000000000000000000000000000000000000000000 DUP2 MSTORE PUSH1 0x4 ADD PUSH2 0x671 SWAP1 PUSH2 0x1E34 JUMP JUMPDEST PUSH1 0x40 MLOAD DUP1 SWAP2 SUB SWAP1 REVERT JUMPDEST PUSH1 0x0 PUSH20 0xFFFFFFFFFFFFFFFFFFFFFFFFFFFFFFFFFFFFFFFF AND PUSH1 0x2 PUSH1 0x0 CALLER PUSH20 0xFFFFFFFFFFFFFFFFFFFFFFFFFFFFFFFFFFFFFFFF AND PUSH20 0xFFFFFFFFFFFFFFFFFFFFFFFFFFFFFFFFFFFFFFFF AND DUP2 MSTORE PUSH1 0x20 ADD SWAP1 DUP2 MSTORE PUSH1 0x20 ADD PUSH1 0x0 KECCAK256 PUSH1 0x0 ADD PUSH1 0x2 SWAP1 SLOAD SWAP1 PUSH2 0x100 EXP SWAP1 DIV PUSH20 0xFFFFFFFFFFFFFFFFFFFFFFFFFFFFFFFFFFFFFFFF AND PUSH20 0xFFFFFFFFFFFFFFFFFFFFFFFFFFFFFFFFFFFFFFFF AND EQ ISZERO PUSH2 0x74C JUMPI PUSH1 0x40 MLOAD PUSH32 0x8C379A000000000000000000000000000000000000000000000000000000000 DUP2 MSTORE PUSH1 0x4 ADD PUSH2 0x743 SWAP1 PUSH2 0x1DB4 JUMP JUMPDEST PUSH1 0x40 MLOAD DUP1 SWAP2 SUB SWAP1 REVERT JUMPDEST PUSH1 0x2 PUSH1 0x0 CALLER PUSH20 0xFFFFFFFFFFFFFFFFFFFFFFFFFFFFFFFFFFFFFFFF AND PUSH20 0xFFFFFFFFFFFFFFFFFFFFFFFFFFFFFFFFFFFFFFFF AND DUP2 MSTORE PUSH1 0x20 ADD SWAP1 DUP2 MSTORE PUSH1 0x20 ADD PUSH1 0x0 KECCAK256 PUSH1 0x0 ADD PUSH1 0x0 SWAP1 SLOAD SWAP1 PUSH2 0x100 EXP SWAP1 DIV PUSH1 0xFF AND ISZERO PUSH2 0x7DC JUMPI PUSH1 0x40 MLOAD PUSH32 0x8C379A000000000000000000000000000000000000000000000000000000000 DUP2 MSTORE PUSH1 0x4 ADD PUSH2 0x7D3 SWAP1 PUSH2 0x1D74 JUMP JUMPDEST PUSH1 0x40 MLOAD DUP1 SWAP2 SUB SWAP1 REVERT JUMPDEST PUSH1 0x40 MLOAD DUP1 PUSH1 0x40 ADD PUSH1 0x40 MSTORE DUP1 PUSH1 0x9 DUP2 MSTORE PUSH1 0x20 ADD PUSH32 0x6920617070726F76650000000000000000000000000000000000000000000000 DUP2 MSTORE POP DUP1 MLOAD SWAP1 PUSH1 0x20 ADD KECCAK256 DUP2 DUP1 MLOAD SWAP1 PUSH1 0x20 ADD KECCAK256 EQ ISZERO PUSH2 0xA45 JUMPI PUSH1 0x1 PUSH1 0x2 PUSH1 0x0 CALLER PUSH20 0xFFFFFFFFFFFFFFFFFFFFFFFFFFFFFFFFFFFFFFFF AND PUSH20 0xFFFFFFFFFFFFFFFFFFFFFFFFFFFFFFFFFFFFFFFF AND DUP2 MSTORE PUSH1 0x20 ADD SWAP1 DUP2 MSTORE PUSH1 0x20 ADD PUSH1 0x0 KECCAK256 PUSH1 0x0 ADD PUSH1 0x0 PUSH2 0x100 EXP DUP2 SLOAD DUP2 PUSH1 0xFF MUL NOT AND SWAP1 DUP4 ISZERO ISZERO MUL OR SWAP1 SSTORE POP PUSH1 0x1 PUSH1 0x2 PUSH1 0x0 CALLER PUSH20 0xFFFFFFFFFFFFFFFFFFFFFFFFFFFFFFFFFFFFFFFF AND PUSH20 0xFFFFFFFFFFFFFFFFFFFFFFFFFFFFFFFFFFFFFFFF AND DUP2 MSTORE PUSH1 0x20 ADD SWAP1 DUP2 MSTORE PUSH1 0x20 ADD PUSH1 0x0 KECCAK256 PUSH1 0x0 ADD PUSH1 0x1 PUSH2 0x100 EXP DUP2 SLOAD DUP2 PUSH1 0xFF MUL NOT AND SWAP1 DUP4 ISZERO ISZERO MUL OR SWAP1 SSTORE POP PUSH1 0x1 PUSH1 0x3 PUSH1 0x7 ADD PUSH1 0x0 DUP3 DUP3 SLOAD PUSH2 0x8F3 SWAP2 SWAP1 PUSH2 0x1FE2 JUMP JUMPDEST SWAP3 POP POP DUP2 SWAP1 SSTORE POP PUSH1 0x1 PUSH1 0x3 PUSH1 0x0 ADD PUSH1 0x0 DUP3 DUP3 SLOAD PUSH2 0x910 SWAP2 SWAP1 PUSH2 0x1FE2 JUMP JUMPDEST SWAP3 POP POP DUP2 SWAP1 SSTORE POP PUSH1 0x1 PUSH1 0x2 PUSH1 0x0 CALLER PUSH20 0xFFFFFFFFFFFFFFFFFFFFFFFFFFFFFFFFFFFFFFFF AND PUSH20 0xFFFFFFFFFFFFFFFFFFFFFFFFFFFFFFFFFFFFFFFF AND DUP2 MSTORE PUSH1 0x20 ADD SWAP1 DUP2 MSTORE PUSH1 0x20 ADD PUSH1 0x0 KECCAK256 SWAP1 DUP1 PUSH1 0x1 DUP2 SLOAD ADD DUP1 DUP3 SSTORE DUP1 SWAP2 POP POP PUSH1 0x1 SWAP1 SUB SWAP1 PUSH1 0x0 MSTORE PUSH1 0x20 PUSH1 0x0 KECCAK256 ADD PUSH1 0x0 SWAP1 SWAP2 SWAP1 SWAP2 SWAP1 SWAP2 POP PUSH1 0x0 DUP3 ADD PUSH1 0x0 SWAP1 SLOAD SWAP1 PUSH2 0x100 EXP SWAP1 DIV PUSH1 0xFF AND DUP2 PUSH1 0x0 ADD PUSH1 0x0 PUSH2 0x100 EXP DUP2 SLOAD DUP2 PUSH1 0xFF MUL NOT AND SWAP1 DUP4 ISZERO ISZERO MUL OR SWAP1 SSTORE POP PUSH1 0x0 DUP3 ADD PUSH1 0x1 SWAP1 SLOAD SWAP1 PUSH2 0x100 EXP SWAP1 DIV PUSH1 0xFF AND DUP2 PUSH1 0x0 ADD PUSH1 0x1 PUSH2 0x100 EXP DUP2 SLOAD DUP2 PUSH1 0xFF MUL NOT AND SWAP1 DUP4 ISZERO ISZERO MUL OR SWAP1 SSTORE POP PUSH1 0x0 DUP3 ADD PUSH1 0x2 SWAP1 SLOAD SWAP1 PUSH2 0x100 EXP SWAP1 DIV PUSH20 0xFFFFFFFFFFFFFFFFFFFFFFFFFFFFFFFFFFFFFFFF AND DUP2 PUSH1 0x0 ADD PUSH1 0x2 PUSH2 0x100 EXP DUP2 SLOAD DUP2 PUSH20 0xFFFFFFFFFFFFFFFFFFFFFFFFFFFFFFFFFFFFFFFF MUL NOT AND SWAP1 DUP4 PUSH20 0xFFFFFFFFFFFFFFFFFFFFFFFFFFFFFFFFFFFFFFFF AND MUL OR SWAP1 SSTORE POP POP POP PUSH2 0xDD9 JUMP JUMPDEST PUSH1 0x40 MLOAD DUP1 PUSH1 0x40 ADD PUSH1 0x40 MSTORE DUP1 PUSH1 0xC DUP2 MSTORE PUSH1 0x20 ADD PUSH32 0x6920646973617070726F76650000000000000000000000000000000000000000 DUP2 MSTORE POP DUP1 MLOAD SWAP1 PUSH1 0x20 ADD KECCAK256 DUP2 DUP1 MLOAD SWAP1 PUSH1 0x20 ADD KECCAK256 EQ ISZERO PUSH2 0xC36 JUMPI PUSH1 0x1 PUSH1 0x2 PUSH1 0x0 CALLER PUSH20 0xFFFFFFFFFFFFFFFFFFFFFFFFFFFFFFFFFFFFFFFF AND PUSH20 0xFFFFFFFFFFFFFFFFFFFFFFFFFFFFFFFFFFFFFFFF AND DUP2 MSTORE PUSH1 0x20 ADD SWAP1 DUP2 MSTORE PUSH1 0x20 ADD PUSH1 0x0 KECCAK256 PUSH1 0x0 ADD PUSH1 0x0 PUSH2 0x100 EXP DUP2 SLOAD DUP2 PUSH1 0xFF MUL NOT AND SWAP1 DUP4 ISZERO ISZERO MUL OR SWAP1 SSTORE POP PUSH1 0x1 PUSH1 0x3 PUSH1 0x0 ADD PUSH1 0x0 DUP3 DUP3 SLOAD PUSH2 0xB01 SWAP2 SWAP1 PUSH2 0x1FE2 JUMP JUMPDEST SWAP3 POP POP DUP2 SWAP1 SSTORE POP PUSH1 0x1 PUSH1 0x2 PUSH1 0x0 CALLER PUSH20 0xFFFFFFFFFFFFFFFFFFFFFFFFFFFFFFFFFFFFFFFF AND PUSH20 0xFFFFFFFFFFFFFFFFFFFFFFFFFFFFFFFFFFFFFFFF AND DUP2 MSTORE PUSH1 0x20 ADD SWAP1 DUP2 MSTORE PUSH1 0x20 ADD PUSH1 0x0 KECCAK256 SWAP1 DUP1 PUSH1 0x1 DUP2 SLOAD ADD DUP1 DUP3 SSTORE DUP1 SWAP2 POP POP PUSH1 0x1 SWAP1 SUB SWAP1 PUSH1 0x0 MSTORE PUSH1 0x20 PUSH1 0x0 KECCAK256 ADD PUSH1 0x0 SWAP1 SWAP2 SWAP1 SWAP2 SWAP1 SWAP2 POP PUSH1 0x0 DUP3 ADD PUSH1 0x0 SWAP1 SLOAD SWAP1 PUSH2 0x100 EXP SWAP1 DIV PUSH1 0xFF AND DUP2 PUSH1 0x0 ADD PUSH1 0x0 PUSH2 0x100 EXP DUP2 SLOAD DUP2 PUSH1 0xFF MUL NOT AND SWAP1 DUP4 ISZERO ISZERO MUL OR SWAP1 SSTORE POP PUSH1 0x0 DUP3 ADD PUSH1 0x1 SWAP1 SLOAD SWAP1 PUSH2 0x100 EXP SWAP1 DIV PUSH1 0xFF AND DUP2 PUSH1 0x0 ADD PUSH1 0x1 PUSH2 0x100 EXP DUP2 SLOAD DUP2 PUSH1 0xFF MUL NOT AND SWAP1 DUP4 ISZERO ISZERO MUL OR SWAP1 SSTORE POP PUSH1 0x0 DUP3 ADD PUSH1 0x2 SWAP1 SLOAD SWAP1 PUSH2 0x100 EXP SWAP1 DIV PUSH20 0xFFFFFFFFFFFFFFFFFFFFFFFFFFFFFFFFFFFFFFFF AND DUP2 PUSH1 0x0 ADD PUSH1 0x2 PUSH2 0x100 EXP DUP2 SLOAD DUP2 PUSH20 0xFFFFFFFFFFFFFFFFFFFFFFFFFFFFFFFFFFFFFFFF MUL NOT AND SWAP1 DUP4 PUSH20 0xFFFFFFFFFFFFFFFFFFFFFFFFFFFFFFFFFFFFFFFF AND MUL OR SWAP1 SSTORE POP POP POP PUSH2 0xDD8 JUMP JUMPDEST PUSH1 0x1 PUSH1 0x2 PUSH1 0x0 CALLER PUSH20 0xFFFFFFFFFFFFFFFFFFFFFFFFFFFFFFFFFFFFFFFF AND PUSH20 0xFFFFFFFFFFFFFFFFFFFFFFFFFFFFFFFFFFFFFFFF AND DUP2 MSTORE PUSH1 0x20 ADD SWAP1 DUP2 MSTORE PUSH1 0x20 ADD PUSH1 0x0 KECCAK256 PUSH1 0x0 ADD PUSH1 0x0 PUSH2 0x100 EXP DUP2 SLOAD DUP2 PUSH1 0xFF MUL NOT AND SWAP1 DUP4 ISZERO ISZERO MUL OR SWAP1 SSTORE POP PUSH1 0x1 PUSH1 0x3 PUSH1 0x0 ADD PUSH1 0x0 DUP3 DUP3 SLOAD PUSH2 0xCA7 SWAP2 SWAP1 PUSH2 0x1FE2 JUMP JUMPDEST SWAP3 POP POP DUP2 SWAP1 SSTORE POP PUSH1 0x1 PUSH1 0x2 PUSH1 0x0 CALLER PUSH20 0xFFFFFFFFFFFFFFFFFFFFFFFFFFFFFFFFFFFFFFFF AND PUSH20 0xFFFFFFFFFFFFFFFFFFFFFFFFFFFFFFFFFFFFFFFF AND DUP2 MSTORE PUSH1 0x20 ADD SWAP1 DUP2 MSTORE PUSH1 0x20 ADD PUSH1 0x0 KECCAK256 SWAP1 DUP1 PUSH1 0x1 DUP2 SLOAD ADD DUP1 DUP3 SSTORE DUP1 SWAP2 POP POP PUSH1 0x1 SWAP1 SUB SWAP1 PUSH1 0x0 MSTORE PUSH1 0x20 PUSH1 0x0 KECCAK256 ADD PUSH1 0x0 SWAP1 SWAP2 SWAP1 SWAP2 SWAP1 SWAP2 POP PUSH1 0x0 DUP3 ADD PUSH1 0x0 SWAP1 SLOAD SWAP1 PUSH2 0x100 EXP SWAP1 DIV PUSH1 0xFF AND DUP2 PUSH1 0x0 ADD PUSH1 0x0 PUSH2 0x100 EXP DUP2 SLOAD DUP2 PUSH1 0xFF MUL NOT AND SWAP1 DUP4 ISZERO ISZERO MUL OR SWAP1 SSTORE POP PUSH1 0x0 DUP3 ADD PUSH1 0x1 SWAP1 SLOAD SWAP1 PUSH2 0x100 EXP SWAP1 DIV PUSH1 0xFF AND DUP2 PUSH1 0x0 ADD PUSH1 0x1 PUSH2 0x100 EXP DUP2 SLOAD DUP2 PUSH1 0xFF MUL NOT AND SWAP1 DUP4 ISZERO ISZERO MUL OR SWAP1 SSTORE POP PUSH1 0x0 DUP3 ADD PUSH1 0x2 SWAP1 SLOAD SWAP1 PUSH2 0x100 EXP SWAP1 DIV PUSH20 0xFFFFFFFFFFFFFFFFFFFFFFFFFFFFFFFFFFFFFFFF AND DUP2 PUSH1 0x0 ADD PUSH1 0x2 PUSH2 0x100 EXP DUP2 SLOAD DUP2 PUSH20 0xFFFFFFFFFFFFFFFFFFFFFFFFFFFFFFFFFFFFFFFF MUL NOT AND SWAP1 DUP4 PUSH20 0xFFFFFFFFFFFFFFFFFFFFFFFFFFFFFFFFFFFFFFFF AND MUL OR SWAP1 SSTORE POP POP POP JUMPDEST JUMPDEST POP JUMP JUMPDEST PUSH1 0x0 DUP1 PUSH1 0x0 PUSH1 0x2 PUSH1 0x0 DUP6 PUSH20 0xFFFFFFFFFFFFFFFFFFFFFFFFFFFFFFFFFFFFFFFF AND PUSH20 0xFFFFFFFFFFFFFFFFFFFFFFFFFFFFFFFFFFFFFFFF AND DUP2 MSTORE PUSH1 0x20 ADD SWAP1 DUP2 MSTORE PUSH1 0x20 ADD PUSH1 0x0 KECCAK256 PUSH1 0x0 ADD PUSH1 0x1 SWAP1 SLOAD SWAP1 PUSH2 0x100 EXP SWAP1 DIV PUSH1 0xFF AND PUSH1 0x2 PUSH1 0x0 DUP7 PUSH20 0xFFFFFFFFFFFFFFFFFFFFFFFFFFFFFFFFFFFFFFFF AND PUSH20 0xFFFFFFFFFFFFFFFFFFFFFFFFFFFFFFFFFFFFFFFF AND DUP2 MSTORE PUSH1 0x20 ADD SWAP1 DUP2 MSTORE PUSH1 0x20 ADD PUSH1 0x0 KECCAK256 PUSH1 0x0 ADD PUSH1 0x0 SWAP1 SLOAD SWAP1 PUSH2 0x100 EXP SWAP1 DIV PUSH1 0xFF AND PUSH1 0x2 PUSH1 0x0 DUP8 PUSH20 0xFFFFFFFFFFFFFFFFFFFFFFFFFFFFFFFFFFFFFFFF AND PUSH20 0xFFFFFFFFFFFFFFFFFFFFFFFFFFFFFFFFFFFFFFFF AND DUP2 MSTORE PUSH1 0x20 ADD SWAP1 DUP2 MSTORE PUSH1 0x20 ADD PUSH1 0x0 KECCAK256 PUSH1 0x0 ADD PUSH1 0x2 SWAP1 SLOAD SWAP1 PUSH2 0x100 EXP SWAP1 DIV PUSH20 0xFFFFFFFFFFFFFFFFFFFFFFFFFFFFFFFFFFFFFFFF AND SWAP3 POP SWAP3 POP SWAP3 POP SWAP2 SWAP4 SWAP1 SWAP3 POP JUMP JUMPDEST PUSH1 0x3 DUP1 PUSH1 0x0 ADD SLOAD SWAP1 DUP1 PUSH1 0x1 ADD SLOAD SWAP1 DUP1 PUSH1 0x2 ADD SLOAD SWAP1 DUP1 PUSH1 0x3 ADD PUSH1 0x0 SWAP1 SLOAD SWAP1 PUSH2 0x100 EXP SWAP1 DIV PUSH20 0xFFFFFFFFFFFFFFFFFFFFFFFFFFFFFFFFFFFFFFFF AND SWAP1 DUP1 PUSH1 0x4 ADD PUSH1 0x0 SWAP1 SLOAD SWAP1 PUSH2 0x100 EXP SWAP1 DIV PUSH20 0xFFFFFFFFFFFFFFFFFFFFFFFFFFFFFFFFFFFFFFFF AND SWAP1 DUP1 PUSH1 0x5 ADD SLOAD SWAP1 DUP1 PUSH1 0x6 ADD SLOAD SWAP1 DUP1 PUSH1 0x7 ADD SLOAD SWAP1 DUP1 PUSH1 0x8 ADD SLOAD SWAP1 DUP1 PUSH1 0x9 ADD SLOAD SWAP1 POP DUP11 JUMP JUMPDEST PUSH2 0xF7B PUSH2 0x1758 JUMP JUMPDEST PUSH1 0x60 PUSH1 0x3 PUSH1 0x5 ADD SLOAD TIMESTAMP LT ISZERO PUSH2 0xFC5 JUMPI PUSH1 0x40 MLOAD PUSH32 0x8C379A000000000000000000000000000000000000000000000000000000000 DUP2 MSTORE PUSH1 0x4 ADD PUSH2 0xFBC SWAP1 PUSH2 0x1E14 JUMP JUMPDEST PUSH1 0x40 MLOAD DUP1 SWAP2 SUB SWAP1 REVERT JUMPDEST PUSH1 0x3 PUSH1 0x1 DUP2 PUSH1 0x40 MLOAD DUP1 PUSH2 0x140 ADD PUSH1 0x40 MSTORE SWAP1 DUP2 PUSH1 0x0 DUP3 ADD SLOAD DUP2 MSTORE PUSH1 0x20 ADD PUSH1 0x1 DUP3 ADD SLOAD DUP2 MSTORE PUSH1 0x20 ADD PUSH1 0x2 DUP3 ADD SLOAD DUP2 MSTORE PUSH1 0x20 ADD PUSH1 0x3 DUP3 ADD PUSH1 0x0 SWAP1 SLOAD SWAP1 PUSH2 0x100 EXP SWAP1 DIV PUSH20 0xFFFFFFFFFFFFFFFFFFFFFFFFFFFFFFFFFFFFFFFF AND PUSH20 0xFFFFFFFFFFFFFFFFFFFFFFFFFFFFFFFFFFFFFFFF AND PUSH20 0xFFFFFFFFFFFFFFFFFFFFFFFFFFFFFFFFFFFFFFFF AND DUP2 MSTORE PUSH1 0x20 ADD PUSH1 0x4 DUP3 ADD PUSH1 0x0 SWAP1 SLOAD SWAP1 PUSH2 0x100 EXP SWAP1 DIV PUSH20 0xFFFFFFFFFFFFFFFFFFFFFFFFFFFFFFFFFFFFFFFF AND PUSH20 0xFFFFFFFFFFFFFFFFFFFFFFFFFFFFFFFFFFFFFFFF AND PUSH20 0xFFFFFFFFFFFFFFFFFFFFFFFFFFFFFFFFFFFFFFFF AND DUP2 MSTORE PUSH1 0x20 ADD PUSH1 0x5 DUP3 ADD SLOAD DUP2 MSTORE PUSH1 0x20 ADD PUSH1 0x6 DUP3 ADD SLOAD DUP2 MSTORE PUSH1 0x20 ADD PUSH1 0x7 DUP3 ADD SLOAD DUP2 MSTORE PUSH1 0x20 ADD PUSH1 0x8 DUP3 ADD SLOAD DUP2 MSTORE PUSH1 0x20 ADD PUSH1 0x9 DUP3 ADD SLOAD DUP2 MSTORE POP POP SWAP2 POP DUP1 DUP1 SLOAD DUP1 PUSH1 0x20 MUL PUSH1 0x20 ADD PUSH1 0x40 MLOAD SWAP1 DUP2 ADD PUSH1 0x40 MSTORE DUP1 SWAP3 SWAP2 SWAP1 DUP2 DUP2 MSTORE PUSH1 0x20 ADD PUSH1 0x0 SWAP1 JUMPDEST DUP3 DUP3 LT ISZERO PUSH2 0x11AF JUMPI DUP4 DUP3 SWAP1 PUSH1 0x0 MSTORE PUSH1 0x20 PUSH1 0x0 KECCAK256 ADD PUSH1 0x40 MLOAD DUP1 PUSH1 0x60 ADD PUSH1 0x40 MSTORE SWAP1 DUP2 PUSH1 0x0 DUP3 ADD PUSH1 0x0 SWAP1 SLOAD SWAP1 PUSH2 0x100 EXP SWAP1 DIV PUSH1 0xFF AND ISZERO ISZERO ISZERO ISZERO DUP2 MSTORE PUSH1 0x20 ADD PUSH1 0x0 DUP3 ADD PUSH1 0x1 SWAP1 SLOAD SWAP1 PUSH2 0x100 EXP SWAP1 DIV PUSH1 0xFF AND ISZERO ISZERO ISZERO ISZERO DUP2 MSTORE PUSH1 0x20 ADD PUSH1 0x0 DUP3 ADD PUSH1 0x2 SWAP1 SLOAD SWAP1 PUSH2 0x100 EXP SWAP1 DIV PUSH20 0xFFFFFFFFFFFFFFFFFFFFFFFFFFFFFFFFFFFFFFFF AND PUSH20 0xFFFFFFFFFFFFFFFFFFFFFFFFFFFFFFFFFFFFFFFF AND PUSH20 0xFFFFFFFFFFFFFFFFFFFFFFFFFFFFFFFFFFFFFFFF AND DUP2 MSTORE POP POP DUP2 MSTORE PUSH1 0x20 ADD SWAP1 PUSH1 0x1 ADD SWAP1 PUSH2 0x10F5 JUMP JUMPDEST POP POP POP POP SWAP1 POP SWAP2 POP SWAP2 POP SWAP1 SWAP2 JUMP JUMPDEST PUSH1 0x3 PUSH1 0x5 ADD SLOAD TIMESTAMP LT ISZERO PUSH2 0x1205 JUMPI PUSH1 0x40 MLOAD PUSH32 0x8C379A000000000000000000000000000000000000000000000000000000000 DUP2 MSTORE PUSH1 0x4 ADD PUSH2 0x11FC SWAP1 PUSH2 0x1E14 JUMP JUMPDEST PUSH1 0x40 MLOAD DUP1 SWAP2 SUB SWAP1 REVERT JUMPDEST PUSH1 0x0 PUSH1 0x3 PUSH1 0x8 ADD SLOAD EQ PUSH2 0x124D JUMPI PUSH1 0x40 MLOAD PUSH32 0x8C379A000000000000000000000000000000000000000000000000000000000 DUP2 MSTORE PUSH1 0x4 ADD PUSH2 0x1244 SWAP1 PUSH2 0x1E54 JUMP JUMPDEST PUSH1 0x40 MLOAD DUP1 SWAP2 SUB SWAP1 REVERT JUMPDEST PUSH1 0x3 PUSH1 0x4 ADD PUSH1 0x0 SWAP1 SLOAD SWAP1 PUSH2 0x100 EXP SWAP1 DIV PUSH20 0xFFFFFFFFFFFFFFFFFFFFFFFFFFFFFFFFFFFFFFFF AND PUSH20 0xFFFFFFFFFFFFFFFFFFFFFFFFFFFFFFFFFFFFFFFF AND CALLER PUSH20 0xFFFFFFFFFFFFFFFFFFFFFFFFFFFFFFFFFFFFFFFF AND EQ DUP1 PUSH2 0x133B JUMPI POP PUSH1 0x0 PUSH20 0xFFFFFFFFFFFFFFFFFFFFFFFFFFFFFFFFFFFFFFFF AND PUSH1 0x2 PUSH1 0x0 CALLER PUSH20 0xFFFFFFFFFFFFFFFFFFFFFFFFFFFFFFFFFFFFFFFF AND PUSH20 0xFFFFFFFFFFFFFFFFFFFFFFFFFFFFFFFFFFFFFFFF AND DUP2 MSTORE PUSH1 0x20 ADD SWAP1 DUP2 MSTORE PUSH1 0x20 ADD PUSH1 0x0 KECCAK256 PUSH1 0x0 ADD PUSH1 0x2 SWAP1 SLOAD SWAP1 PUSH2 0x100 EXP SWAP1 DIV PUSH20 0xFFFFFFFFFFFFFFFFFFFFFFFFFFFFFFFFFFFFFFFF AND PUSH20 0xFFFFFFFFFFFFFFFFFFFFFFFFFFFFFFFFFFFFFFFF AND EQ ISZERO JUMPDEST PUSH2 0x137A JUMPI PUSH1 0x40 MLOAD PUSH32 0x8C379A000000000000000000000000000000000000000000000000000000000 DUP2 MSTORE PUSH1 0x4 ADD PUSH2 0x1371 SWAP1 PUSH2 0x1D54 JUMP JUMPDEST PUSH1 0x40 MLOAD DUP1 SWAP2 SUB SWAP1 REVERT JUMPDEST PUSH1 0x64 PUSH1 0x0 DUP1 SLOAD SWAP1 POP PUSH1 0x3 PUSH1 0x7 ADD SLOAD PUSH2 0x1392 SWAP2 SWAP1 PUSH2 0x2038 JUMP JUMPDEST PUSH2 0x139C SWAP2 SWAP1 PUSH2 0x2069 JUMP JUMPDEST PUSH1 0x3 PUSH1 0x6 ADD DUP2 SWAP1 SSTORE POP PUSH1 0x3 PUSH1 0x2 ADD SLOAD PUSH1 0x3 PUSH1 0x6 ADD SLOAD LT PUSH2 0x13E1 JUMPI PUSH32 0x4163636570746564000000000000000000000000000000000000000000000000 PUSH1 0x3 PUSH1 0x9 ADD DUP2 SWAP1 SSTORE POP JUMPDEST PUSH1 0x0 JUMPDEST PUSH1 0x0 DUP1 SLOAD SWAP1 POP DUP2 PUSH1 0xFF AND LT ISZERO PUSH2 0x160D JUMPI PUSH1 0x0 ISZERO ISZERO PUSH1 0x2 PUSH1 0x0 DUP1 DUP5 PUSH1 0xFF AND DUP2 SLOAD DUP2 LT PUSH2 0x1412 JUMPI PUSH2 0x1411 PUSH2 0x21EA JUMP JUMPDEST JUMPDEST SWAP1 PUSH1 0x0 MSTORE PUSH1 0x20 PUSH1 0x0 KECCAK256 ADD PUSH1 0x0 SWAP1 SLOAD SWAP1 PUSH2 0x100 EXP SWAP1 DIV PUSH20 0xFFFFFFFFFFFFFFFFFFFFFFFFFFFFFFFFFFFFFFFF AND PUSH20 0xFFFFFFFFFFFFFFFFFFFFFFFFFFFFFFFFFFFFFFFF AND PUSH20 0xFFFFFFFFFFFFFFFFFFFFFFFFFFFFFFFFFFFFFFFF AND DUP2 MSTORE PUSH1 0x20 ADD SWAP1 DUP2 MSTORE PUSH1 0x20 ADD PUSH1 0x0 KECCAK256 PUSH1 0x0 ADD PUSH1 0x0 SWAP1 SLOAD SWAP1 PUSH2 0x100 EXP SWAP1 DIV PUSH1 0xFF AND ISZERO ISZERO EQ ISZERO PUSH2 0x15FA JUMPI PUSH1 0x1 PUSH1 0x2 PUSH1 0x0 DUP1 DUP5 PUSH1 0xFF AND DUP2 SLOAD DUP2 LT PUSH2 0x14AC JUMPI PUSH2 0x14AB PUSH2 0x21EA JUMP JUMPDEST JUMPDEST SWAP1 PUSH1 0x0 MSTORE PUSH1 0x20 PUSH1 0x0 KECCAK256 ADD PUSH1 0x0 SWAP1 SLOAD SWAP1 PUSH2 0x100 EXP SWAP1 DIV PUSH20 0xFFFFFFFFFFFFFFFFFFFFFFFFFFFFFFFFFFFFFFFF AND PUSH20 0xFFFFFFFFFFFFFFFFFFFFFFFFFFFFFFFFFFFFFFFF AND PUSH20 0xFFFFFFFFFFFFFFFFFFFFFFFFFFFFFFFFFFFFFFFF AND DUP2 MSTORE PUSH1 0x20 ADD SWAP1 DUP2 MSTORE PUSH1 0x20 ADD PUSH1 0x0 KECCAK256 SWAP1 DUP1 PUSH1 0x1 DUP2 SLOAD ADD DUP1 DUP3 SSTORE DUP1 SWAP2 POP POP PUSH1 0x1 SWAP1 SUB SWAP1 PUSH1 0x0 MSTORE PUSH1 0x20 PUSH1 0x0 KECCAK256 ADD PUSH1 0x0 SWAP1 SWAP2 SWAP1 SWAP2 SWAP1 SWAP2 POP PUSH1 0x0 DUP3 ADD PUSH1 0x0 SWAP1 SLOAD SWAP1 PUSH2 0x100 EXP SWAP1 DIV PUSH1 0xFF AND DUP2 PUSH1 0x0 ADD PUSH1 0x0 PUSH2 0x100 EXP DUP2 SLOAD DUP2 PUSH1 0xFF MUL NOT AND SWAP1 DUP4 ISZERO ISZERO MUL OR SWAP1 SSTORE POP PUSH1 0x0 DUP3 ADD PUSH1 0x1 SWAP1 SLOAD SWAP1 PUSH2 0x100 EXP SWAP1 DIV PUSH1 0xFF AND DUP2 PUSH1 0x0 ADD PUSH1 0x1 PUSH2 0x100 EXP DUP2 SLOAD DUP2 PUSH1 0xFF MUL NOT AND SWAP1 DUP4 ISZERO ISZERO MUL OR SWAP1 SSTORE POP PUSH1 0x0 DUP3 ADD PUSH1 0x2 SWAP1 SLOAD SWAP1 PUSH2 0x100 EXP SWAP1 DIV PUSH20 0xFFFFFFFFFFFFFFFFFFFFFFFFFFFFFFFFFFFFFFFF AND DUP2 PUSH1 0x0 ADD PUSH1 0x2 PUSH2 0x100 EXP DUP2 SLOAD DUP2 PUSH20 0xFFFFFFFFFFFFFFFFFFFFFFFFFFFFFFFFFFFFFFFF MUL NOT AND SWAP1 DUP4 PUSH20 0xFFFFFFFFFFFFFFFFFFFFFFFFFFFFFFFFFFFFFFFF AND MUL OR SWAP1 SSTORE POP POP POP JUMPDEST DUP1 DUP1 PUSH2 0x1605 SWAP1 PUSH2 0x2162 JUMP JUMPDEST SWAP2 POP POP PUSH2 0x13E4 JUMP JUMPDEST POP PUSH1 0x1 PUSH1 0x3 PUSH1 0x8 ADD PUSH1 0x0 DUP3 DUP3 SLOAD PUSH2 0x1624 SWAP2 SWAP1 PUSH2 0x1FE2 JUMP JUMPDEST SWAP3 POP POP DUP2 SWAP1 SSTORE POP JUMP JUMPDEST PUSH1 0x2 PUSH1 0x20 MSTORE DUP1 PUSH1 0x0 MSTORE PUSH1 0x40 PUSH1 0x0 KECCAK256 PUSH1 0x0 SWAP2 POP SWAP1 POP DUP1 PUSH1 0x0 ADD PUSH1 0x0 SWAP1 SLOAD SWAP1 PUSH2 0x100 EXP SWAP1 DIV PUSH1 0xFF AND SWAP1 DUP1 PUSH1 0x0 ADD PUSH1 0x1 SWAP1 SLOAD SWAP1 PUSH2 0x100 EXP SWAP1 DIV PUSH1 0xFF AND SWAP1 DUP1 PUSH1 0x0 ADD PUSH1 0x2 SWAP1 SLOAD SWAP1 PUSH2 0x100 EXP SWAP1 DIV PUSH20 0xFFFFFFFFFFFFFFFFFFFFFFFFFFFFFFFFFFFFFFFF AND SWAP1 POP DUP4 JUMP JUMPDEST PUSH1 0x0 DUP1 PUSH1 0x0 DUP1 PUSH1 0x0 PUSH1 0x3 PUSH1 0x1 ADD SLOAD PUSH1 0x3 PUSH1 0x5 ADD SLOAD PUSH1 0x3 PUSH1 0x4 ADD PUSH1 0x0 SWAP1 SLOAD SWAP1 PUSH2 0x100 EXP SWAP1 DIV PUSH20 0xFFFFFFFFFFFFFFFFFFFFFFFFFFFFFFFFFFFFFFFF AND PUSH1 0x3 PUSH1 0x2 ADD SLOAD PUSH1 0x3 PUSH1 0x7 ADD SLOAD SWAP5 POP SWAP5 POP SWAP5 POP SWAP5 POP SWAP5 POP SWAP1 SWAP2 SWAP3 SWAP4 SWAP5 JUMP JUMPDEST PUSH1 0x1 DUP2 DUP2 SLOAD DUP2 LT PUSH2 0x16F8 JUMPI PUSH1 0x0 DUP1 REVERT JUMPDEST SWAP1 PUSH1 0x0 MSTORE PUSH1 0x20 PUSH1 0x0 KECCAK256 ADD PUSH1 0x0 SWAP2 POP SWAP1 POP DUP1 PUSH1 0x0 ADD PUSH1 0x0 SWAP1 SLOAD SWAP1 PUSH2 0x100 EXP SWAP1 DIV PUSH1 0xFF AND SWAP1 DUP1 PUSH1 0x0 ADD PUSH1 0x1 SWAP1 SLOAD SWAP1 PUSH2 0x100 EXP SWAP1 DIV PUSH1 0xFF AND SWAP1 DUP1 PUSH1 0x0 ADD PUSH1 0x2 SWAP1 SLOAD SWAP1 PUSH2 0x100 EXP SWAP1 DIV PUSH20 0xFFFFFFFFFFFFFFFFFFFFFFFFFFFFFFFFFFFFFFFF AND SWAP1 POP DUP4 JUMP JUMPDEST PUSH1 0x40 MLOAD DUP1 PUSH2 0x140 ADD PUSH1 0x40 MSTORE DUP1 PUSH1 0x0 DUP2 MSTORE PUSH1 0x20 ADD PUSH1 0x0 DUP1 NOT AND DUP2 MSTORE PUSH1 0x20 ADD PUSH1 0x0 DUP2 MSTORE PUSH1 0x20 ADD PUSH1 0x0 PUSH20 0xFFFFFFFFFFFFFFFFFFFFFFFFFFFFFFFFFFFFFFFF AND DUP2 MSTORE PUSH1 0x20 ADD PUSH1 0x0 PUSH20 0xFFFFFFFFFFFFFFFFFFFFFFFFFFFFFFFFFFFFFFFF AND DUP2 MSTORE PUSH1 0x20 ADD PUSH1 0x0 DUP2 MSTORE PUSH1 0x20 ADD PUSH1 0x0 DUP2 MSTORE PUSH1 0x20 ADD PUSH1 0x0 DUP2 MSTORE PUSH1 0x20 ADD PUSH1 0x0 DUP2 MSTORE PUSH1 0x20 ADD PUSH1 0x0 DUP1 NOT AND DUP2 MSTORE POP SWAP1 JUMP JUMPDEST PUSH1 0x0 PUSH2 0x17F0 PUSH2 0x17EB DUP5 PUSH2 0x1F67 JUMP JUMPDEST PUSH2 0x1F42 JUMP JUMPDEST SWAP1 POP DUP3 DUP2 MSTORE PUSH1 0x20 DUP2 ADD DUP5 DUP5 DUP5 ADD GT ISZERO PUSH2 0x180C JUMPI PUSH2 0x180B PUSH2 0x224D JUMP JUMPDEST JUMPDEST PUSH2 0x1817 DUP5 DUP3 DUP6 PUSH2 0x2122 JUMP JUMPDEST POP SWAP4 SWAP3 POP POP POP JUMP JUMPDEST PUSH1 0x0 DUP2 CALLDATALOAD SWAP1 POP PUSH2 0x182E DUP2 PUSH2 0x249F JUMP JUMPDEST SWAP3 SWAP2 POP POP JUMP JUMPDEST PUSH1 0x0 DUP3 PUSH1 0x1F DUP4 ADD SLT PUSH2 0x1849 JUMPI PUSH2 0x1848 PUSH2 0x2248 JUMP JUMPDEST JUMPDEST DUP2 CALLDATALOAD PUSH2 0x1859 DUP5 DUP3 PUSH1 0x20 DUP7 ADD PUSH2 0x17DD JUMP JUMPDEST SWAP2 POP POP SWAP3 SWAP2 POP POP JUMP JUMPDEST PUSH1 0x0 DUP2 CALLDATALOAD SWAP1 POP PUSH2 0x1871 DUP2 PUSH2 0x24B6 JUMP JUMPDEST SWAP3 SWAP2 POP POP JUMP JUMPDEST PUSH1 0x0 PUSH1 0x20 DUP3 DUP5 SUB SLT ISZERO PUSH2 0x188D JUMPI PUSH2 0x188C PUSH2 0x2257 JUMP JUMPDEST JUMPDEST PUSH1 0x0 PUSH2 0x189B DUP5 DUP3 DUP6 ADD PUSH2 0x181F JUMP JUMPDEST SWAP2 POP POP SWAP3 SWAP2 POP POP JUMP JUMPDEST PUSH1 0x0 PUSH1 0x20 DUP3 DUP5 SUB SLT ISZERO PUSH2 0x18BA JUMPI PUSH2 0x18B9 PUSH2 0x2257 JUMP JUMPDEST JUMPDEST PUSH1 0x0 DUP3 ADD CALLDATALOAD PUSH8 0xFFFFFFFFFFFFFFFF DUP2 GT ISZERO PUSH2 0x18D8 JUMPI PUSH2 0x18D7 PUSH2 0x2252 JUMP JUMPDEST JUMPDEST PUSH2 0x18E4 DUP5 DUP3 DUP6 ADD PUSH2 0x1834 JUMP JUMPDEST SWAP2 POP POP SWAP3 SWAP2 POP POP JUMP JUMPDEST PUSH1 0x0 PUSH1 0x20 DUP3 DUP5 SUB SLT ISZERO PUSH2 0x1903 JUMPI PUSH2 0x1902 PUSH2 0x2257 JUMP JUMPDEST JUMPDEST PUSH1 0x0 PUSH2 0x1911 DUP5 DUP3 DUP6 ADD PUSH2 0x1862 JUMP JUMPDEST SWAP2 POP POP SWAP3 SWAP2 POP POP JUMP JUMPDEST PUSH1 0x0 PUSH2 0x1926 DUP4 DUP4 PUSH2 0x1C14 JUMP JUMPDEST PUSH1 0x60 DUP4 ADD SWAP1 POP SWAP3 SWAP2 POP POP JUMP JUMPDEST PUSH2 0x193B DUP2 PUSH2 0x20C3 JUMP JUMPDEST DUP3 MSTORE POP POP JUMP JUMPDEST PUSH2 0x194A DUP2 PUSH2 0x20C3 JUMP JUMPDEST DUP3 MSTORE POP POP JUMP JUMPDEST PUSH1 0x0 PUSH2 0x195B DUP3 PUSH2 0x1FA8 JUMP JUMPDEST PUSH2 0x1965 DUP2 DUP6 PUSH2 0x1FC0 JUMP JUMPDEST SWAP4 POP PUSH2 0x1970 DUP4 PUSH2 0x1F98 JUMP JUMPDEST DUP1 PUSH1 0x0 JUMPDEST DUP4 DUP2 LT ISZERO PUSH2 0x19A1 JUMPI DUP2 MLOAD PUSH2 0x1988 DUP9 DUP3 PUSH2 0x191A JUMP JUMPDEST SWAP8 POP PUSH2 0x1993 DUP4 PUSH2 0x1FB3 JUMP JUMPDEST SWAP3 POP POP PUSH1 0x1 DUP2 ADD SWAP1 POP PUSH2 0x1974 JUMP JUMPDEST POP DUP6 SWAP4 POP POP POP POP SWAP3 SWAP2 POP POP JUMP JUMPDEST PUSH2 0x19B7 DUP2 PUSH2 0x20D5 JUMP JUMPDEST DUP3 MSTORE POP POP JUMP JUMPDEST PUSH2 0x19C6 DUP2 PUSH2 0x20D5 JUMP JUMPDEST DUP3 MSTORE POP POP JUMP JUMPDEST PUSH2 0x19D5 DUP2 PUSH2 0x20E1 JUMP JUMPDEST DUP3 MSTORE POP POP JUMP JUMPDEST PUSH2 0x19E4 DUP2 PUSH2 0x20E1 JUMP JUMPDEST DUP3 MSTORE POP POP JUMP JUMPDEST PUSH1 0x0 PUSH2 0x19F7 PUSH1 0x1F DUP4 PUSH2 0x1FD1 JUMP JUMPDEST SWAP2 POP PUSH2 0x1A02 DUP3 PUSH2 0x226D JUMP JUMPDEST PUSH1 0x20 DUP3 ADD SWAP1 POP SWAP2 SWAP1 POP JUMP JUMPDEST PUSH1 0x0 PUSH2 0x1A1A PUSH1 0x26 DUP4 PUSH2 0x1FD1 JUMP JUMPDEST SWAP2 POP PUSH2 0x1A25 DUP3 PUSH2 0x2296 JUMP JUMPDEST PUSH1 0x40 DUP3 ADD SWAP1 POP SWAP2 SWAP1 POP JUMP JUMPDEST PUSH1 0x0 PUSH2 0x1A3D PUSH1 0x1C DUP4 PUSH2 0x1FD1 JUMP JUMPDEST SWAP2 POP PUSH2 0x1A48 DUP3 PUSH2 0x22E5 JUMP JUMPDEST PUSH1 0x20 DUP3 ADD SWAP1 POP SWAP2 SWAP1 POP JUMP JUMPDEST PUSH1 0x0 PUSH2 0x1A60 PUSH1 0x15 DUP4 PUSH2 0x1FD1 JUMP JUMPDEST SWAP2 POP PUSH2 0x1A6B DUP3 PUSH2 0x230E JUMP JUMPDEST PUSH1 0x20 DUP3 ADD SWAP1 POP SWAP2 SWAP1 POP JUMP JUMPDEST PUSH1 0x0 PUSH2 0x1A83 PUSH1 0x1E DUP4 PUSH2 0x1FD1 JUMP JUMPDEST SWAP2 POP PUSH2 0x1A8E DUP3 PUSH2 0x2337 JUMP JUMPDEST PUSH1 0x20 DUP3 ADD SWAP1 POP SWAP2 SWAP1 POP JUMP JUMPDEST PUSH1 0x0 PUSH2 0x1AA6 PUSH1 0x24 DUP4 PUSH2 0x1FD1 JUMP JUMPDEST SWAP2 POP PUSH2 0x1AB1 DUP3 PUSH2 0x2360 JUMP JUMPDEST PUSH1 0x40 DUP3 ADD SWAP1 POP SWAP2 SWAP1 POP JUMP JUMPDEST PUSH1 0x0 PUSH2 0x1AC9 PUSH1 0x28 DUP4 PUSH2 0x1FD1 JUMP JUMPDEST SWAP2 POP PUSH2 0x1AD4 DUP3 PUSH2 0x23AF JUMP JUMPDEST PUSH1 0x40 DUP3 ADD SWAP1 POP SWAP2 SWAP1 POP JUMP JUMPDEST PUSH1 0x0 PUSH2 0x1AEC PUSH1 0x20 DUP4 PUSH2 0x1FD1 JUMP JUMPDEST SWAP2 POP PUSH2 0x1AF7 DUP3 PUSH2 0x23FE JUMP JUMPDEST PUSH1 0x20 DUP3 ADD SWAP1 POP SWAP2 SWAP1 POP JUMP JUMPDEST PUSH1 0x0 PUSH2 0x1B0F PUSH1 0x12 DUP4 PUSH2 0x1FD1 JUMP JUMPDEST SWAP2 POP PUSH2 0x1B1A DUP3 PUSH2 0x2427 JUMP JUMPDEST PUSH1 0x20 DUP3 ADD SWAP1 POP SWAP2 SWAP1 POP JUMP JUMPDEST PUSH1 0x0 PUSH2 0x1B32 PUSH1 0x25 DUP4 PUSH2 0x1FD1 JUMP JUMPDEST SWAP2 POP PUSH2 0x1B3D DUP3 PUSH2 0x2450 JUMP JUMPDEST PUSH1 0x40 DUP3 ADD SWAP1 POP SWAP2 SWAP1 POP JUMP JUMPDEST PUSH2 0x140 DUP3 ADD PUSH1 0x0 DUP3 ADD MLOAD PUSH2 0x1B5F PUSH1 0x0 DUP6 ADD DUP3 PUSH2 0x1C56 JUMP JUMPDEST POP PUSH1 0x20 DUP3 ADD MLOAD PUSH2 0x1B72 PUSH1 0x20 DUP6 ADD DUP3 PUSH2 0x19CC JUMP JUMPDEST POP PUSH1 0x40 DUP3 ADD MLOAD PUSH2 0x1B85 PUSH1 0x40 DUP6 ADD DUP3 PUSH2 0x1C56 JUMP JUMPDEST POP PUSH1 0x60 DUP3 ADD MLOAD PUSH2 0x1B98 PUSH1 0x60 DUP6 ADD DUP3 PUSH2 0x1932 JUMP JUMPDEST POP PUSH1 0x80 DUP3 ADD MLOAD PUSH2 0x1BAB PUSH1 0x80 DUP6 ADD DUP3 PUSH2 0x1932 JUMP JUMPDEST POP PUSH1 0xA0 DUP3 ADD MLOAD PUSH2 0x1BBE PUSH1 0xA0 DUP6 ADD DUP3 PUSH2 0x1C56 JUMP JUMPDEST POP PUSH1 0xC0 DUP3 ADD MLOAD PUSH2 0x1BD1 PUSH1 0xC0 DUP6 ADD DUP3 PUSH2 0x1C56 JUMP JUMPDEST POP PUSH1 0xE0 DUP3 ADD MLOAD PUSH2 0x1BE4 PUSH1 0xE0 DUP6 ADD DUP3 PUSH2 0x1C56 JUMP JUMPDEST POP PUSH2 0x100 DUP3 ADD MLOAD PUSH2 0x1BF9 PUSH2 0x100 DUP6 ADD DUP3 PUSH2 0x1C56 JUMP JUMPDEST POP PUSH2 0x120 DUP3 ADD MLOAD PUSH2 0x1C0E PUSH2 0x120 DUP6 ADD DUP3 PUSH2 0x19CC JUMP JUMPDEST POP POP POP POP JUMP JUMPDEST PUSH1 0x60 DUP3 ADD PUSH1 0x0 DUP3 ADD MLOAD PUSH2 0x1C2A PUSH1 0x0 DUP6 ADD DUP3 PUSH2 0x19AE JUMP JUMPDEST POP PUSH1 0x20 DUP3 ADD MLOAD PUSH2 0x1C3D PUSH1 0x20 DUP6 ADD DUP3 PUSH2 0x19AE JUMP JUMPDEST POP PUSH1 0x40 DUP3 ADD MLOAD PUSH2 0x1C50 PUSH1 0x40 DUP6 ADD DUP3 PUSH2 0x1932 JUMP JUMPDEST POP POP POP POP JUMP JUMPDEST PUSH2 0x1C5F DUP2 PUSH2 0x210B JUMP JUMPDEST DUP3 MSTORE POP POP JUMP JUMPDEST PUSH2 0x1C6E DUP2 PUSH2 0x210B JUMP JUMPDEST DUP3 MSTORE POP POP JUMP JUMPDEST PUSH1 0x0 PUSH1 0x20 DUP3 ADD SWAP1 POP PUSH2 0x1C89 PUSH1 0x0 DUP4 ADD DUP5 PUSH2 0x1941 JUMP JUMPDEST SWAP3 SWAP2 POP POP JUMP JUMPDEST PUSH1 0x0 PUSH1 0x60 DUP3 ADD SWAP1 POP PUSH2 0x1CA4 PUSH1 0x0 DUP4 ADD DUP7 PUSH2 0x19BD JUMP JUMPDEST PUSH2 0x1CB1 PUSH1 0x20 DUP4 ADD DUP6 PUSH2 0x19BD JUMP JUMPDEST PUSH2 0x1CBE PUSH1 0x40 DUP4 ADD DUP5 PUSH2 0x1941 JUMP JUMPDEST SWAP5 SWAP4 POP POP POP POP JUMP JUMPDEST PUSH1 0x0 PUSH1 0x20 DUP3 ADD SWAP1 POP PUSH2 0x1CDB PUSH1 0x0 DUP4 ADD DUP5 PUSH2 0x19DB JUMP JUMPDEST SWAP3 SWAP2 POP POP JUMP JUMPDEST PUSH1 0x0 PUSH1 0xA0 DUP3 ADD SWAP1 POP PUSH2 0x1CF6 PUSH1 0x0 DUP4 ADD DUP9 PUSH2 0x19DB JUMP JUMPDEST PUSH2 0x1D03 PUSH1 0x20 DUP4 ADD DUP8 PUSH2 0x1C65 JUMP JUMPDEST PUSH2 0x1D10 PUSH1 0x40 DUP4 ADD DUP7 PUSH2 0x1941 JUMP JUMPDEST PUSH2 0x1D1D PUSH1 0x60 DUP4 ADD DUP6 PUSH2 0x1C65 JUMP JUMPDEST PUSH2 0x1D2A PUSH1 0x80 DUP4 ADD DUP5 PUSH2 0x1C65 JUMP JUMPDEST SWAP7 SWAP6 POP POP POP POP POP POP JUMP JUMPDEST PUSH1 0x0 PUSH1 0x20 DUP3 ADD SWAP1 POP DUP2 DUP2 SUB PUSH1 0x0 DUP4 ADD MSTORE PUSH2 0x1D4D DUP2 PUSH2 0x19EA JUMP JUMPDEST SWAP1 POP SWAP2 SWAP1 POP JUMP JUMPDEST PUSH1 0x0 PUSH1 0x20 DUP3 ADD SWAP1 POP DUP2 DUP2 SUB PUSH1 0x0 DUP4 ADD MSTORE PUSH2 0x1D6D DUP2 PUSH2 0x1A0D JUMP JUMPDEST SWAP1 POP SWAP2 SWAP1 POP JUMP JUMPDEST PUSH1 0x0 PUSH1 0x20 DUP3 ADD SWAP1 POP DUP2 DUP2 SUB PUSH1 0x0 DUP4 ADD MSTORE PUSH2 0x1D8D DUP2 PUSH2 0x1A30 JUMP JUMPDEST SWAP1 POP SWAP2 SWAP1 POP JUMP JUMPDEST PUSH1 0x0 PUSH1 0x20 DUP3 ADD SWAP1 POP DUP2 DUP2 SUB PUSH1 0x0 DUP4 ADD MSTORE PUSH2 0x1DAD DUP2 PUSH2 0x1A53 JUMP JUMPDEST SWAP1 POP SWAP2 SWAP1 POP JUMP JUMPDEST PUSH1 0x0 PUSH1 0x20 DUP3 ADD SWAP1 POP DUP2 DUP2 SUB PUSH1 0x0 DUP4 ADD MSTORE PUSH2 0x1DCD DUP2 PUSH2 0x1A76 JUMP JUMPDEST SWAP1 POP SWAP2 SWAP1 POP JUMP JUMPDEST PUSH1 0x0 PUSH1 0x20 DUP3 ADD SWAP1 POP DUP2 DUP2 SUB PUSH1 0x0 DUP4 ADD MSTORE PUSH2 0x1DED DUP2 PUSH2 0x1A99 JUMP JUMPDEST SWAP1 POP SWAP2 SWAP1 POP JUMP JUMPDEST PUSH1 0x0 PUSH1 0x20 DUP3 ADD SWAP1 POP DUP2 DUP2 SUB PUSH1 0x0 DUP4 ADD MSTORE PUSH2 0x1E0D DUP2 PUSH2 0x1ABC JUMP JUMPDEST SWAP1 POP SWAP2 SWAP1 POP JUMP JUMPDEST PUSH1 0x0 PUSH1 0x20 DUP3 ADD SWAP1 POP DUP2 DUP2 SUB PUSH1 0x0 DUP4 ADD MSTORE PUSH2 0x1E2D DUP2 PUSH2 0x1ADF JUMP JUMPDEST SWAP1 POP SWAP2 SWAP1 POP JUMP JUMPDEST PUSH1 0x0 PUSH1 0x20 DUP3 ADD SWAP1 POP DUP2 DUP2 SUB PUSH1 0x0 DUP4 ADD MSTORE PUSH2 0x1E4D DUP2 PUSH2 0x1B02 JUMP JUMPDEST SWAP1 POP SWAP2 SWAP1 POP JUMP JUMPDEST PUSH1 0x0 PUSH1 0x20 DUP3 ADD SWAP1 POP DUP2 DUP2 SUB PUSH1 0x0 DUP4 ADD MSTORE PUSH2 0x1E6D DUP2 PUSH2 0x1B25 JUMP JUMPDEST SWAP1 POP SWAP2 SWAP1 POP JUMP JUMPDEST PUSH1 0x0 PUSH2 0x160 DUP3 ADD SWAP1 POP PUSH2 0x1E8A PUSH1 0x0 DUP4 ADD DUP6 PUSH2 0x1B48 JUMP JUMPDEST DUP2 DUP2 SUB PUSH2 0x140 DUP4 ADD MSTORE PUSH2 0x1E9D DUP2 DUP5 PUSH2 0x1950 JUMP JUMPDEST SWAP1 POP SWAP4 SWAP3 POP POP POP JUMP JUMPDEST PUSH1 0x0 PUSH2 0x140 DUP3 ADD SWAP1 POP PUSH2 0x1EBC PUSH1 0x0 DUP4 ADD DUP14 PUSH2 0x1C65 JUMP JUMPDEST PUSH2 0x1EC9 PUSH1 0x20 DUP4 ADD DUP13 PUSH2 0x19DB JUMP JUMPDEST PUSH2 0x1ED6 PUSH1 0x40 DUP4 ADD DUP12 PUSH2 0x1C65 JUMP JUMPDEST PUSH2 0x1EE3 PUSH1 0x60 DUP4 ADD DUP11 PUSH2 0x1941 JUMP JUMPDEST PUSH2 0x1EF0 PUSH1 0x80 DUP4 ADD DUP10 PUSH2 0x1941 JUMP JUMPDEST PUSH2 0x1EFD PUSH1 0xA0 DUP4 ADD DUP9 PUSH2 0x1C65 JUMP JUMPDEST PUSH2 0x1F0A PUSH1 0xC0 DUP4 ADD DUP8 PUSH2 0x1C65 JUMP JUMPDEST PUSH2 0x1F17 PUSH1 0xE0 DUP4 ADD DUP7 PUSH2 0x1C65 JUMP JUMPDEST PUSH2 0x1F25 PUSH2 0x100 DUP4 ADD DUP6 PUSH2 0x1C65 JUMP JUMPDEST PUSH2 0x1F33 PUSH2 0x120 DUP4 ADD DUP5 PUSH2 0x19DB JUMP JUMPDEST SWAP12 SWAP11 POP POP POP POP POP POP POP POP POP POP POP JUMP JUMPDEST PUSH1 0x0 PUSH2 0x1F4C PUSH2 0x1F5D JUMP JUMPDEST SWAP1 POP PUSH2 0x1F58 DUP3 DUP3 PUSH2 0x2131 JUMP JUMPDEST SWAP2 SWAP1 POP JUMP JUMPDEST PUSH1 0x0 PUSH1 0x40 MLOAD SWAP1 POP SWAP1 JUMP JUMPDEST PUSH1 0x0 PUSH8 0xFFFFFFFFFFFFFFFF DUP3 GT ISZERO PUSH2 0x1F82 JUMPI PUSH2 0x1F81 PUSH2 0x2219 JUMP JUMPDEST JUMPDEST PUSH2 0x1F8B DUP3 PUSH2 0x225C JUMP JUMPDEST SWAP1 POP PUSH1 0x20 DUP2 ADD SWAP1 POP SWAP2 SWAP1 POP JUMP JUMPDEST PUSH1 0x0 DUP2 SWAP1 POP PUSH1 0x20 DUP3 ADD SWAP1 POP SWAP2 SWAP1 POP JUMP JUMPDEST PUSH1 0x0 DUP2 MLOAD SWAP1 POP SWAP2 SWAP1 POP JUMP JUMPDEST PUSH1 0x0 PUSH1 0x20 DUP3 ADD SWAP1 POP SWAP2 SWAP1 POP JUMP JUMPDEST PUSH1 0x0 DUP3 DUP3 MSTORE PUSH1 0x20 DUP3 ADD SWAP1 POP SWAP3 SWAP2 POP POP JUMP JUMPDEST PUSH1 0x0 DUP3 DUP3 MSTORE PUSH1 0x20 DUP3 ADD SWAP1 POP SWAP3 SWAP2 POP POP JUMP JUMPDEST PUSH1 0x0 PUSH2 0x1FED DUP3 PUSH2 0x210B JUMP JUMPDEST SWAP2 POP PUSH2 0x1FF8 DUP4 PUSH2 0x210B JUMP JUMPDEST SWAP3 POP DUP3 PUSH32 0xFFFFFFFFFFFFFFFFFFFFFFFFFFFFFFFFFFFFFFFFFFFFFFFFFFFFFFFFFFFFFFFF SUB DUP3 GT ISZERO PUSH2 0x202D JUMPI PUSH2 0x202C PUSH2 0x218C JUMP JUMPDEST JUMPDEST DUP3 DUP3 ADD SWAP1 POP SWAP3 SWAP2 POP POP JUMP JUMPDEST PUSH1 0x0 PUSH2 0x2043 DUP3 PUSH2 0x210B JUMP JUMPDEST SWAP2 POP PUSH2 0x204E DUP4 PUSH2 0x210B JUMP JUMPDEST SWAP3 POP DUP3 PUSH2 0x205E JUMPI PUSH2 0x205D PUSH2 0x21BB JUMP JUMPDEST JUMPDEST DUP3 DUP3 DIV SWAP1 POP SWAP3 SWAP2 POP POP JUMP JUMPDEST PUSH1 0x0 PUSH2 0x2074 DUP3 PUSH2 0x210B JUMP JUMPDEST SWAP2 POP PUSH2 0x207F DUP4 PUSH2 0x210B JUMP JUMPDEST SWAP3 POP DUP2 PUSH32 0xFFFFFFFFFFFFFFFFFFFFFFFFFFFFFFFFFFFFFFFFFFFFFFFFFFFFFFFFFFFFFFFF DIV DUP4 GT DUP3 ISZERO ISZERO AND ISZERO PUSH2 0x20B8 JUMPI PUSH2 0x20B7 PUSH2 0x218C JUMP JUMPDEST JUMPDEST DUP3 DUP3 MUL SWAP1 POP SWAP3 SWAP2 POP POP JUMP JUMPDEST PUSH1 0x0 PUSH2 0x20CE DUP3 PUSH2 0x20EB JUMP JUMPDEST SWAP1 POP SWAP2 SWAP1 POP JUMP JUMPDEST PUSH1 0x0 DUP2 ISZERO ISZERO SWAP1 POP SWAP2 SWAP1 POP JUMP JUMPDEST PUSH1 0x0 DUP2 SWAP1 POP SWAP2 SWAP1 POP JUMP JUMPDEST PUSH1 0x0 PUSH20 0xFFFFFFFFFFFFFFFFFFFFFFFFFFFFFFFFFFFFFFFF DUP3 AND SWAP1 POP SWAP2 SWAP1 POP JUMP JUMPDEST PUSH1 0x0 DUP2 SWAP1 POP SWAP2 SWAP1 POP JUMP JUMPDEST PUSH1 0x0 PUSH1 0xFF DUP3 AND SWAP1 POP SWAP2 SWAP1 POP JUMP JUMPDEST DUP3 DUP2 DUP4 CALLDATACOPY PUSH1 0x0 DUP4 DUP4 ADD MSTORE POP POP POP JUMP JUMPDEST PUSH2 0x213A DUP3 PUSH2 0x225C JUMP JUMPDEST DUP2 ADD DUP2 DUP2 LT PUSH8 0xFFFFFFFFFFFFFFFF DUP3 GT OR ISZERO PUSH2 0x2159 JUMPI PUSH2 0x2158 PUSH2 0x2219 JUMP JUMPDEST JUMPDEST DUP1 PUSH1 0x40 MSTORE POP POP POP JUMP JUMPDEST PUSH1 0x0 PUSH2 0x216D DUP3 PUSH2 0x2115 JUMP JUMPDEST SWAP2 POP PUSH1 0xFF DUP3 EQ ISZERO PUSH2 0x2181 JUMPI PUSH2 0x2180 PUSH2 0x218C JUMP JUMPDEST JUMPDEST PUSH1 0x1 DUP3 ADD SWAP1 POP SWAP2 SWAP1 POP JUMP JUMPDEST PUSH32 0x4E487B7100000000000000000000000000000000000000000000000000000000 PUSH1 0x0 MSTORE PUSH1 0x11 PUSH1 0x4 MSTORE PUSH1 0x24 PUSH1 0x0 REVERT JUMPDEST PUSH32 0x4E487B7100000000000000000000000000000000000000000000000000000000 PUSH1 0x0 MSTORE PUSH1 0x12 PUSH1 0x4 MSTORE PUSH1 0x24 PUSH1 0x0 REVERT JUMPDEST PUSH32 0x4E487B7100000000000000000000000000000000000000000000000000000000 PUSH1 0x0 MSTORE PUSH1 0x32 PUSH1 0x4 MSTORE PUSH1 0x24 PUSH1 0x0 REVERT JUMPDEST PUSH32 0x4E487B7100000000000000000000000000000000000000000000000000000000 PUSH1 0x0 MSTORE PUSH1 0x41 PUSH1 0x4 MSTORE PUSH1 0x24 PUSH1 0x0 REVERT JUMPDEST PUSH1 0x0 DUP1 REVERT JUMPDEST PUSH1 0x0 DUP1 REVERT JUMPDEST PUSH1 0x0 DUP1 REVERT JUMPDEST PUSH1 0x0 DUP1 REVERT JUMPDEST PUSH1 0x0 PUSH1 0x1F NOT PUSH1 0x1F DUP4 ADD AND SWAP1 POP SWAP2 SWAP1 POP JUMP JUMPDEST PUSH32 0x526563697069656E7420697320616C7265616479207265676973746572656400 PUSH1 0x0 DUP3 ADD MSTORE POP JUMP JUMPDEST PUSH32 0x596F75206172656E277420617574686F72697A6520746F20636F6D70696C6520 PUSH1 0x0 DUP3 ADD MSTORE PUSH32 0x42756E646C650000000000000000000000000000000000000000000000000000 PUSH1 0x20 DUP3 ADD MSTORE POP JUMP JUMPDEST PUSH32 0x596F7520616C72656164792073656E74206120726573706F6E73652E00000000 PUSH1 0x0 DUP3 ADD MSTORE POP JUMP JUMPDEST PUSH32 0x496E69746961746F722063616E277420766F7465210000000000000000000000 PUSH1 0x0 DUP3 ADD MSTORE POP JUMP JUMPDEST PUSH32 0x596F7520617265206E6F74207265676973746572656420746F20766F74650000 PUSH1 0x0 DUP3 ADD MSTORE POP JUMP JUMPDEST PUSH32 0x50726F706F73616C206861732072656163686564206974732065787069727920 PUSH1 0x0 DUP3 ADD MSTORE PUSH32 0x6461746500000000000000000000000000000000000000000000000000000000 PUSH1 0x20 DUP3 ADD MSTORE POP JUMP JUMPDEST PUSH32 0x4F6E6C7920696E69746961746F722063616E2072656769737465722061207265 PUSH1 0x0 DUP3 ADD MSTORE PUSH32 0x63697069656E742E000000000000000000000000000000000000000000000000 PUSH1 0x20 DUP3 ADD MSTORE POP JUMP JUMPDEST PUSH32 0x5665726469637420686173206E6F74206265656E207265616368656420796574 PUSH1 0x0 DUP3 ADD MSTORE POP JUMP JUMPDEST PUSH32 0x566F74696E672068617320657870697265640000000000000000000000000000 PUSH1 0x0 DUP3 ADD MSTORE POP JUMP JUMPDEST PUSH32 0x436F6E73656E7375732068617320616C7265616479206265656E2063616C6375 PUSH1 0x0 DUP3 ADD MSTORE PUSH32 0x6C61746564000000000000000000000000000000000000000000000000000000 PUSH1 0x20 DUP3 ADD MSTORE POP JUMP JUMPDEST PUSH2 0x24A8 DUP2 PUSH2 0x20C3 JUMP JUMPDEST DUP2 EQ PUSH2 0x24B3 JUMPI PUSH1 0x0 DUP1 REVERT JUMPDEST POP JUMP JUMPDEST PUSH2 0x24BF DUP2 PUSH2 0x210B JUMP JUMPDEST DUP2 EQ PUSH2 0x24CA JUMPI PUSH1 0x0 DUP1 REVERT JUMPDEST POP JUMP INVALID LOG2 PUSH5 0x6970667358 0x22 SLT KECCAK256 0xDA DUP12 CALLDATACOPY 0xD7 0xB3 MULMOD KECCAK256 PUSH10 0xF6D82AF85782876D8EF3 NOT DUP2 SELFDESTRUCT 0xC7 CALL CREATE2 0xB0 SUB SWAP5 BLOCKHASH 0x26 PUSH16 0x913F64736F6C63430008070033000000 "
				},
				"gasEstimates": {
					"creation": {
						"codeDepositCost": "1895000",
						"executionCost": "infinite",
						"totalCost": "infinite"
					},
					"external": {
						"Consensus()": "infinite",
						"RegisterVoter(address)": "131012",
						"Vote(string)": "infinite",
						"getParameters()": "infinite",
						"getParameters2(address)": "infinite",
						"getValues()": "2488",
						"keys(uint256)": "4957",
						"proposal()": "infinite",
						"retrieve_bundle()": "infinite",
						"voters(uint256)": "infinite",
						"voters_map(address)": "infinite"
					}
				},
				"methodIdentifiers": {
					"Consensus()": "95b02dfa",
					"RegisterVoter(address)": "15fe6f1b",
					"Vote(string)": "323082d7",
					"getParameters()": "a5ea11da",
					"getParameters2(address)": "5361a0ea",
					"getValues()": "19eb4a90",
					"keys(uint256)": "0cb6aaf1",
					"proposal()": "753ec103",
					"retrieve_bundle()": "82316745",
					"voters(uint256)": "da58c7d9",
					"voters_map(address)": "9aa4bbdd"
				}
			},
			"storageLayout": {
				"storage": [
					{
						"astId": 32,
						"contract": "contracts/BusinessConsensus.sol:BusinessConsensus",
						"label": "keys",
						"offset": 0,
						"slot": "0",
						"type": "t_array(t_address)dyn_storage"
					},
					{
						"astId": 36,
						"contract": "contracts/BusinessConsensus.sol:BusinessConsensus",
						"label": "voters",
						"offset": 0,
						"slot": "1",
						"type": "t_array(t_struct(Voter)8_storage)dyn_storage"
					},
					{
						"astId": 41,
						"contract": "contracts/BusinessConsensus.sol:BusinessConsensus",
						"label": "voters_map",
						"offset": 0,
						"slot": "2",
						"type": "t_mapping(t_address,t_struct(Voter)8_storage)"
					},
					{
						"astId": 44,
						"contract": "contracts/BusinessConsensus.sol:BusinessConsensus",
						"label": "proposal",
						"offset": 0,
						"slot": "3",
						"type": "t_struct(Proposal)29_storage"
					}
				],
				"types": {
					"t_address": {
						"encoding": "inplace",
						"label": "address",
						"numberOfBytes": "20"
					},
					"t_array(t_address)dyn_storage": {
						"base": "t_address",
						"encoding": "dynamic_array",
						"label": "address[]",
						"numberOfBytes": "32"
					},
					"t_array(t_struct(Voter)8_storage)dyn_storage": {
						"base": "t_struct(Voter)8_storage",
						"encoding": "dynamic_array",
						"label": "struct BusinessConsensus.Voter[]",
						"numberOfBytes": "32"
					},
					"t_bool": {
						"encoding": "inplace",
						"label": "bool",
						"numberOfBytes": "1"
					},
					"t_bytes32": {
						"encoding": "inplace",
						"label": "bytes32",
						"numberOfBytes": "32"
					},
					"t_mapping(t_address,t_struct(Voter)8_storage)": {
						"encoding": "mapping",
						"key": "t_address",
						"label": "mapping(address => struct BusinessConsensus.Voter)",
						"numberOfBytes": "32",
						"value": "t_struct(Voter)8_storage"
					},
					"t_struct(Proposal)29_storage": {
						"encoding": "inplace",
						"label": "struct BusinessConsensus.Proposal",
						"members": [
							{
								"astId": 10,
								"contract": "contracts/BusinessConsensus.sol:BusinessConsensus",
								"label": "voteCount",
								"offset": 0,
								"slot": "0",
								"type": "t_uint256"
							},
							{
								"astId": 12,
								"contract": "contracts/BusinessConsensus.sol:BusinessConsensus",
								"label": "messageID",
								"offset": 0,
								"slot": "1",
								"type": "t_bytes32"
							},
							{
								"astId": 14,
								"contract": "contracts/BusinessConsensus.sol:BusinessConsensus",
								"label": "BusinessRequirement",
								"offset": 0,
								"slot": "2",
								"type": "t_uint256"
							},
							{
								"astId": 16,
								"contract": "contracts/BusinessConsensus.sol:BusinessConsensus",
								"label": "contractAddress",
								"offset": 0,
								"slot": "3",
								"type": "t_address"
							},
							{
								"astId": 18,
								"contract": "contracts/BusinessConsensus.sol:BusinessConsensus",
								"label": "initiator",
								"offset": 0,
								"slot": "4",
								"type": "t_address"
							},
							{
								"astId": 20,
								"contract": "contracts/BusinessConsensus.sol:BusinessConsensus",
								"label": "expiryDate",
								"offset": 0,
								"slot": "5",
								"type": "t_uint256"
							},
							{
								"astId": 22,
								"contract": "contracts/BusinessConsensus.sol:BusinessConsensus",
								"label": "AccumulatedPercentage",
								"offset": 0,
								"slot": "6",
								"type": "t_uint256"
							},
							{
								"astId": 24,
								"contract": "contracts/BusinessConsensus.sol:BusinessConsensus",
								"label": "numApprovals",
								"offset": 0,
								"slot": "7",
								"type": "t_uint256"
							},
							{
								"astId": 26,
								"contract": "contracts/BusinessConsensus.sol:BusinessConsensus",
								"label": "numberCompiled",
								"offset": 0,
								"slot": "8",
								"type": "t_uint256"
							},
							{
								"astId": 28,
								"contract": "contracts/BusinessConsensus.sol:BusinessConsensus",
								"label": "finalVerdict",
								"offset": 0,
								"slot": "9",
								"type": "t_bytes32"
							}
						],
						"numberOfBytes": "320"
					},
					"t_struct(Voter)8_storage": {
						"encoding": "inplace",
						"label": "struct BusinessConsensus.Voter",
						"members": [
							{
								"astId": 3,
								"contract": "contracts/BusinessConsensus.sol:BusinessConsensus",
								"label": "voted",
								"offset": 0,
								"slot": "0",
								"type": "t_bool"
							},
							{
								"astId": 5,
								"contract": "contracts/BusinessConsensus.sol:BusinessConsensus",
								"label": "vote",
								"offset": 1,
								"slot": "0",
								"type": "t_bool"
							},
							{
								"astId": 7,
								"contract": "contracts/BusinessConsensus.sol:BusinessConsensus",
								"label": "recipient",
								"offset": 2,
								"slot": "0",
								"type": "t_address"
							}
						],
						"numberOfBytes": "32"
					},
					"t_uint256": {
						"encoding": "inplace",
						"label": "uint256",
						"numberOfBytes": "32"
					}
				}
			},
			"userdoc": {
				"kind": "user",
				"methods": {
					"Consensus()": {
						"notice": "compile all relevant information into a Bundle"
					}
				},
				"version": 1
			}
		}
	}
}