{
	"contracts/BusinessConsensus3.sol": {
		"BusinessConsensus3": {
			"abi": [
				{
					"inputs": [
						{
							"internalType": "string",
							"name": "_messageID",
							"type": "string"
						}
					],
					"name": "Consensus",
					"outputs": [],
					"stateMutability": "nonpayable",
					"type": "function"
				},
				{
					"inputs": [
						{
							"internalType": "string",
							"name": "",
							"type": "string"
						}
					],
					"name": "IDs",
					"outputs": [
						{
							"internalType": "string",
							"name": "",
							"type": "string"
						}
					],
					"stateMutability": "view",
					"type": "function"
				},
				{
					"inputs": [
						{
							"internalType": "address",
							"name": "voter",
							"type": "address"
						},
						{
							"internalType": "string",
							"name": "_messageID",
							"type": "string"
						}
					],
					"name": "RegisterVoter",
					"outputs": [],
					"stateMutability": "nonpayable",
					"type": "function"
				},
				{
					"inputs": [
						{
							"internalType": "string",
							"name": "response",
							"type": "string"
						},
						{
							"internalType": "string",
							"name": "_messageID",
							"type": "string"
						}
					],
					"name": "Vote",
					"outputs": [],
					"stateMutability": "nonpayable",
					"type": "function"
				},
				{
					"inputs": [
						{
							"internalType": "string",
							"name": "",
							"type": "string"
						},
						{
							"internalType": "uint256",
							"name": "",
							"type": "uint256"
						}
					],
					"name": "Voters",
					"outputs": [
						{
							"internalType": "bool",
							"name": "voted",
							"type": "bool"
						},
						{
							"internalType": "bool",
							"name": "vote",
							"type": "bool"
						},
						{
							"internalType": "address",
							"name": "recipient",
							"type": "address"
						}
					],
					"stateMutability": "view",
					"type": "function"
				},
				{
					"inputs": [
						{
							"internalType": "string",
							"name": "",
							"type": "string"
						}
					],
					"name": "businessProposals",
					"outputs": [
						{
							"internalType": "uint256",
							"name": "voteCount",
							"type": "uint256"
						},
						{
							"internalType": "uint256",
							"name": "expiryDate",
							"type": "uint256"
						},
						{
							"internalType": "uint256",
							"name": "BusinessRequirement",
							"type": "uint256"
						}
					],
					"stateMutability": "view",
					"type": "function"
				},
				{
					"inputs": [
						{
							"internalType": "string",
							"name": "_subject",
							"type": "string"
						},
						{
							"internalType": "uint256",
							"name": "_businessRequirement",
							"type": "uint256"
						},
						{
							"internalType": "uint256",
							"name": "_expiryLength",
							"type": "uint256"
						},
						{
							"internalType": "bytes32",
							"name": "_contents",
							"type": "bytes32"
						}
					],
					"name": "checkConsistency",
					"outputs": [
						{
							"internalType": "bool",
							"name": "",
							"type": "bool"
						},
						{
							"internalType": "bool",
							"name": "",
							"type": "bool"
						},
						{
							"internalType": "bool",
							"name": "",
							"type": "bool"
						}
					],
					"stateMutability": "view",
					"type": "function"
				},
				{
					"inputs": [
						{
							"internalType": "string",
							"name": "",
							"type": "string"
						}
					],
					"name": "contents",
					"outputs": [
						{
							"internalType": "bytes32",
							"name": "",
							"type": "bytes32"
						}
					],
					"stateMutability": "view",
					"type": "function"
				},
				{
					"inputs": [
						{
							"internalType": "string",
							"name": "_messageID",
							"type": "string"
						},
						{
							"internalType": "uint256",
							"name": "expiry",
							"type": "uint256"
						},
						{
							"internalType": "uint256",
							"name": "requiredPercentage",
							"type": "uint256"
						},
						{
							"internalType": "bytes32",
							"name": "_contents",
							"type": "bytes32"
						},
						{
							"internalType": "string",
							"name": "subject",
							"type": "string"
						},
						{
							"internalType": "string",
							"name": "_messageDate",
							"type": "string"
						}
					],
					"name": "createContract",
					"outputs": [],
					"stateMutability": "nonpayable",
					"type": "function"
				},
				{
					"inputs": [
						{
							"internalType": "string",
							"name": "",
							"type": "string"
						}
					],
					"name": "expiryLengths",
					"outputs": [
						{
							"internalType": "uint256",
							"name": "",
							"type": "uint256"
						}
					],
					"stateMutability": "view",
					"type": "function"
				},
				{
					"inputs": [
						{
							"internalType": "string",
							"name": "",
							"type": "string"
						}
					],
					"name": "finalVerdicts",
					"outputs": [
						{
							"internalType": "bytes32",
							"name": "",
							"type": "bytes32"
						}
					],
					"stateMutability": "view",
					"type": "function"
				},
				{
					"inputs": [
						{
							"internalType": "string",
							"name": "_messageID",
							"type": "string"
						}
					],
					"name": "getIsCompiled",
					"outputs": [
						{
							"internalType": "bool",
							"name": "",
							"type": "bool"
						}
					],
					"stateMutability": "view",
					"type": "function"
				},
				{
					"inputs": [
						{
							"internalType": "string",
							"name": "subject",
							"type": "string"
						}
					],
					"name": "getIsCreated",
					"outputs": [
						{
							"internalType": "string",
							"name": "",
							"type": "string"
						},
						{
							"components": [
								{
									"internalType": "uint256",
									"name": "voteCount",
									"type": "uint256"
								},
								{
									"internalType": "uint256",
									"name": "expiryDate",
									"type": "uint256"
								},
								{
									"internalType": "uint256",
									"name": "BusinessRequirement",
									"type": "uint256"
								}
							],
							"internalType": "struct BusinessConsensus3.Proposal",
							"name": "",
							"type": "tuple"
						}
					],
					"stateMutability": "view",
					"type": "function"
				},
				{
					"inputs": [
						{
							"internalType": "string",
							"name": "",
							"type": "string"
						}
					],
					"name": "initiators",
					"outputs": [
						{
							"internalType": "address",
							"name": "",
							"type": "address"
						}
					],
					"stateMutability": "view",
					"type": "function"
				},
				{
					"inputs": [
						{
							"internalType": "string",
							"name": "",
							"type": "string"
						}
					],
					"name": "isCompiled",
					"outputs": [
						{
							"internalType": "bool",
							"name": "",
							"type": "bool"
						}
					],
					"stateMutability": "view",
					"type": "function"
				},
				{
					"inputs": [
						{
							"internalType": "string",
							"name": "",
							"type": "string"
						},
						{
							"internalType": "uint256",
							"name": "",
							"type": "uint256"
						}
					],
					"name": "keys",
					"outputs": [
						{
							"internalType": "address",
							"name": "",
							"type": "address"
						}
					],
					"stateMutability": "view",
					"type": "function"
				},
				{
					"inputs": [
						{
							"internalType": "string",
							"name": "",
							"type": "string"
						}
					],
					"name": "messageDates",
					"outputs": [
						{
							"internalType": "string",
							"name": "",
							"type": "string"
						}
					],
					"stateMutability": "view",
					"type": "function"
				},
				{
					"inputs": [
						{
							"internalType": "string",
							"name": "",
							"type": "string"
						}
					],
					"name": "numApprovals",
					"outputs": [
						{
							"internalType": "uint256",
							"name": "",
							"type": "uint256"
						}
					],
					"stateMutability": "view",
					"type": "function"
				},
				{
					"inputs": [
						{
							"internalType": "string",
							"name": "_messageID",
							"type": "string"
						}
					],
					"name": "retrieve_bundle",
					"outputs": [
						{
							"internalType": "bytes32",
							"name": "",
							"type": "bytes32"
						},
						{
							"internalType": "string",
							"name": "",
							"type": "string"
						},
						{
							"internalType": "uint256",
							"name": "",
							"type": "uint256"
						},
						{
							"components": [
								{
									"internalType": "bool",
									"name": "voted",
									"type": "bool"
								},
								{
									"internalType": "bool",
									"name": "vote",
									"type": "bool"
								},
								{
									"internalType": "address",
									"name": "recipient",
									"type": "address"
								}
							],
							"internalType": "struct BusinessConsensus3.Voter[]",
							"name": "",
							"type": "tuple[]"
						}
					],
					"stateMutability": "view",
					"type": "function"
				},
				{
					"inputs": [
						{
							"internalType": "string",
							"name": "",
							"type": "string"
						}
					],
					"name": "subjects",
					"outputs": [
						{
							"internalType": "string",
							"name": "",
							"type": "string"
						}
					],
					"stateMutability": "view",
					"type": "function"
				},
				{
					"inputs": [
						{
							"internalType": "string",
							"name": "",
							"type": "string"
						},
						{
							"internalType": "address",
							"name": "",
							"type": "address"
						}
					],
					"name": "voter_maps",
					"outputs": [
						{
							"internalType": "bool",
							"name": "voted",
							"type": "bool"
						},
						{
							"internalType": "bool",
							"name": "vote",
							"type": "bool"
						},
						{
							"internalType": "address",
							"name": "recipient",
							"type": "address"
						}
					],
					"stateMutability": "view",
					"type": "function"
				}
			],
			"devdoc": {
				"kind": "dev",
				"methods": {},
				"version": 1
			},
			"evm": {
				"assembly": "    /* \"contracts/BusinessConsensus3.sol\":33:7450  contract BusinessConsensus3{\r... */\n  mstore(0x40, 0x80)\n  callvalue\n  dup1\n  iszero\n  tag_1\n  jumpi\n  0x00\n  dup1\n  revert\ntag_1:\n  pop\n  dataSize(sub_0)\n  dup1\n  dataOffset(sub_0)\n  0x00\n  codecopy\n  0x00\n  return\nstop\n\nsub_0: assembly {\n        /* \"contracts/BusinessConsensus3.sol\":33:7450  contract BusinessConsensus3{\r... */\n      mstore(0x40, 0x80)\n      callvalue\n      dup1\n      iszero\n      tag_1\n      jumpi\n      0x00\n      dup1\n      revert\n    tag_1:\n      pop\n      jumpi(tag_2, lt(calldatasize, 0x04))\n      shr(0xe0, calldataload(0x00))\n      dup1\n      0x883a9673\n      gt\n      tag_24\n      jumpi\n      dup1\n      0xa6acce35\n      gt\n      tag_25\n      jumpi\n      dup1\n      0xa6acce35\n      eq\n      tag_18\n      jumpi\n      dup1\n      0xbb9a31f3\n      eq\n      tag_19\n      jumpi\n      dup1\n      0xc9bc42ed\n      eq\n      tag_20\n      jumpi\n      dup1\n      0xe5c8d65f\n      eq\n      tag_21\n      jumpi\n      dup1\n      0xec548680\n      eq\n      tag_22\n      jumpi\n      dup1\n      0xfe290423\n      eq\n      tag_23\n      jumpi\n      jump(tag_2)\n    tag_25:\n      dup1\n      0x883a9673\n      eq\n      tag_13\n      jumpi\n      dup1\n      0x8a3b0d02\n      eq\n      tag_14\n      jumpi\n      dup1\n      0x8f6a35b7\n      eq\n      tag_15\n      jumpi\n      dup1\n      0x931da6b3\n      eq\n      tag_16\n      jumpi\n      dup1\n      0x9d6a3125\n      eq\n      tag_17\n      jumpi\n      jump(tag_2)\n    tag_24:\n      dup1\n      0x31189fe2\n      gt\n      tag_26\n      jumpi\n      dup1\n      0x31189fe2\n      eq\n      tag_8\n      jumpi\n      dup1\n      0x33a0b0ab\n      eq\n      tag_9\n      jumpi\n      dup1\n      0x37f2e190\n      eq\n      tag_10\n      jumpi\n      dup1\n      0x3d63af0e\n      eq\n      tag_11\n      jumpi\n      dup1\n      0x7aa18f88\n      eq\n      tag_12\n      jumpi\n      jump(tag_2)\n    tag_26:\n      dup1\n      0x06699b01\n      eq\n      tag_3\n      jumpi\n      dup1\n      0x089a4c60\n      eq\n      tag_4\n      jumpi\n      dup1\n      0x11c2b413\n      eq\n      tag_5\n      jumpi\n      dup1\n      0x17072d6b\n      eq\n      tag_6\n      jumpi\n      dup1\n      0x233d0fa1\n      eq\n      tag_7\n      jumpi\n    tag_2:\n      0x00\n      dup1\n      revert\n        /* \"contracts/BusinessConsensus3.sol\":1244:1282  mapping(string=>address[]) public keys */\n    tag_3:\n      tag_27\n      0x04\n      dup1\n      calldatasize\n      sub\n      dup2\n      add\n      swap1\n      tag_28\n      swap2\n      swap1\n      tag_29\n      jump\t// in\n    tag_28:\n      tag_30\n      jump\t// in\n    tag_27:\n      mload(0x40)\n      tag_31\n      swap2\n      swap1\n      tag_32\n      jump\t// in\n    tag_31:\n      mload(0x40)\n      dup1\n      swap2\n      sub\n      swap1\n      return\n        /* \"contracts/BusinessConsensus3.sol\":628:678  mapping(string=>Proposal) public businessProposals */\n    tag_4:\n      tag_33\n      0x04\n      dup1\n      calldatasize\n      sub\n      dup2\n      add\n      swap1\n      tag_34\n      swap2\n      swap1\n      tag_35\n      jump\t// in\n    tag_34:\n      tag_36\n      jump\t// in\n    tag_33:\n      mload(0x40)\n      tag_37\n      swap4\n      swap3\n      swap2\n      swap1\n      tag_38\n      jump\t// in\n    tag_37:\n      mload(0x40)\n      dup1\n      swap2\n      sub\n      swap1\n      return\n        /* \"contracts/BusinessConsensus3.sol\":734:769  mapping(string =>string) public IDs */\n    tag_5:\n      tag_39\n      0x04\n      dup1\n      calldatasize\n      sub\n      dup2\n      add\n      swap1\n      tag_40\n      swap2\n      swap1\n      tag_35\n      jump\t// in\n    tag_40:\n      tag_41\n      jump\t// in\n    tag_39:\n      mload(0x40)\n      tag_42\n      swap2\n      swap1\n      tag_43\n      jump\t// in\n    tag_42:\n      mload(0x40)\n      dup1\n      swap2\n      sub\n      swap1\n      return\n        /* \"contracts/BusinessConsensus3.sol\":4548:5921  function Vote(string memory response,string calldata _messageID) external {\r... */\n    tag_6:\n      tag_44\n      0x04\n      dup1\n      calldatasize\n      sub\n      dup2\n      add\n      swap1\n      tag_45\n      swap2\n      swap1\n      tag_46\n      jump\t// in\n    tag_45:\n      tag_47\n      jump\t// in\n    tag_44:\n      stop\n        /* \"contracts/BusinessConsensus3.sol\":984:1031  mapping(string => bytes32) public finalVerdicts */\n    tag_7:\n      tag_48\n      0x04\n      dup1\n      calldatasize\n      sub\n      dup2\n      add\n      swap1\n      tag_49\n      swap2\n      swap1\n      tag_35\n      jump\t// in\n    tag_49:\n      tag_50\n      jump\t// in\n    tag_48:\n      mload(0x40)\n      tag_51\n      swap2\n      swap1\n      tag_52\n      jump\t// in\n    tag_51:\n      mload(0x40)\n      dup1\n      swap2\n      sub\n      swap1\n      return\n        /* \"contracts/BusinessConsensus3.sol\":1038:1079  mapping(string => bool) public isCompiled */\n    tag_8:\n      tag_53\n      0x04\n      dup1\n      calldatasize\n      sub\n      dup2\n      add\n      swap1\n      tag_54\n      swap2\n      swap1\n      tag_35\n      jump\t// in\n    tag_54:\n      tag_55\n      jump\t// in\n    tag_53:\n      mload(0x40)\n      tag_56\n      swap2\n      swap1\n      tag_57\n      jump\t// in\n    tag_56:\n      mload(0x40)\n      dup1\n      swap2\n      sub\n      swap1\n      return\n        /* \"contracts/BusinessConsensus3.sol\":1134:1192  mapping(string=>mapping(address=>Voter)) public voter_maps */\n    tag_9:\n      tag_58\n      0x04\n      dup1\n      calldatasize\n      sub\n      dup2\n      add\n      swap1\n      tag_59\n      swap2\n      swap1\n      tag_60\n      jump\t// in\n    tag_59:\n      tag_61\n      jump\t// in\n    tag_58:\n      mload(0x40)\n      tag_62\n      swap4\n      swap3\n      swap2\n      swap1\n      tag_63\n      jump\t// in\n    tag_62:\n      mload(0x40)\n      dup1\n      swap2\n      sub\n      swap1\n      return\n        /* \"contracts/BusinessConsensus3.sol\":6964:7445  function retrieve_bundle(string calldata _messageID) external view returns (bytes32, string memory, uint256, Voter[] memory){\r... */\n    tag_10:\n      tag_64\n      0x04\n      dup1\n      calldatasize\n      sub\n      dup2\n      add\n      swap1\n      tag_65\n      swap2\n      swap1\n      tag_66\n      jump\t// in\n    tag_65:\n      tag_67\n      jump\t// in\n    tag_64:\n      mload(0x40)\n      tag_68\n      swap5\n      swap4\n      swap3\n      swap2\n      swap1\n      tag_69\n      jump\t// in\n    tag_68:\n      mload(0x40)\n      dup1\n      swap2\n      sub\n      swap1\n      return\n        /* \"contracts/BusinessConsensus3.sol\":3777:4540  function RegisterVoter(address voter,string calldata _messageID) external {\r... */\n    tag_11:\n      tag_70\n      0x04\n      dup1\n      calldatasize\n      sub\n      dup2\n      add\n      swap1\n      tag_71\n      swap2\n      swap1\n      tag_72\n      jump\t// in\n    tag_71:\n      tag_73\n      jump\t// in\n    tag_70:\n      stop\n        /* \"contracts/BusinessConsensus3.sol\":1295:2522  function createContract(string memory _messageID, uint256 expiry, uint256 requiredPercentage,bytes32 _contents,string memory subject,string memory _messageDate) external{\r... */\n    tag_12:\n      tag_74\n      0x04\n      dup1\n      calldatasize\n      sub\n      dup2\n      add\n      swap1\n      tag_75\n      swap2\n      swap1\n      tag_76\n      jump\t// in\n    tag_75:\n      tag_77\n      jump\t// in\n    tag_74:\n      stop\n        /* \"contracts/BusinessConsensus3.sol\":5985:6956  function Consensus(string calldata _messageID) external {\r... */\n    tag_13:\n      tag_78\n      0x04\n      dup1\n      calldatasize\n      sub\n      dup2\n      add\n      swap1\n      tag_79\n      swap2\n      swap1\n      tag_66\n      jump\t// in\n    tag_79:\n      tag_80\n      jump\t// in\n    tag_78:\n      stop\n        /* \"contracts/BusinessConsensus3.sol\":932:977  mapping(string => string) public messageDates */\n    tag_14:\n      tag_81\n      0x04\n      dup1\n      calldatasize\n      sub\n      dup2\n      add\n      swap1\n      tag_82\n      swap2\n      swap1\n      tag_35\n      jump\t// in\n    tag_82:\n      tag_83\n      jump\t// in\n    tag_81:\n      mload(0x40)\n      tag_84\n      swap2\n      swap1\n      tag_43\n      jump\t// in\n    tag_84:\n      mload(0x40)\n      dup1\n      swap2\n      sub\n      swap1\n      return\n        /* \"contracts/BusinessConsensus3.sol\":1199:1237  mapping(string=>Voter[]) public Voters */\n    tag_15:\n      tag_85\n      0x04\n      dup1\n      calldatasize\n      sub\n      dup2\n      add\n      swap1\n      tag_86\n      swap2\n      swap1\n      tag_29\n      jump\t// in\n    tag_86:\n      tag_87\n      jump\t// in\n    tag_85:\n      mload(0x40)\n      tag_88\n      swap4\n      swap3\n      swap2\n      swap1\n      tag_63\n      jump\t// in\n    tag_88:\n      mload(0x40)\n      dup1\n      swap2\n      sub\n      swap1\n      return\n        /* \"contracts/BusinessConsensus3.sol\":879:925  mapping(string => uint256) public numApprovals */\n    tag_16:\n      tag_89\n      0x04\n      dup1\n      calldatasize\n      sub\n      dup2\n      add\n      swap1\n      tag_90\n      swap2\n      swap1\n      tag_35\n      jump\t// in\n    tag_90:\n      tag_91\n      jump\t// in\n    tag_89:\n      mload(0x40)\n      tag_92\n      swap2\n      swap1\n      tag_93\n      jump\t// in\n    tag_92:\n      mload(0x40)\n      dup1\n      swap2\n      sub\n      swap1\n      return\n        /* \"contracts/BusinessConsensus3.sol\":2659:3500  function checkConsistency(string memory _subject, uint256 _businessRequirement, uint256 _expiryLength, bytes32 _contents) public view returns(bool, bool, bool){\r... */\n    tag_17:\n      tag_94\n      0x04\n      dup1\n      calldatasize\n      sub\n      dup2\n      add\n      swap1\n      tag_95\n      swap2\n      swap1\n      tag_96\n      jump\t// in\n    tag_95:\n      tag_97\n      jump\t// in\n    tag_94:\n      mload(0x40)\n      tag_98\n      swap4\n      swap3\n      swap2\n      swap1\n      tag_99\n      jump\t// in\n    tag_98:\n      mload(0x40)\n      dup1\n      swap2\n      sub\n      swap1\n      return\n        /* \"contracts/BusinessConsensus3.sol\":830:872  mapping(string => bytes32) public contents */\n    tag_18:\n      tag_100\n      0x04\n      dup1\n      calldatasize\n      sub\n      dup2\n      add\n      swap1\n      tag_101\n      swap2\n      swap1\n      tag_35\n      jump\t// in\n    tag_101:\n      tag_102\n      jump\t// in\n    tag_100:\n      mload(0x40)\n      tag_103\n      swap2\n      swap1\n      tag_52\n      jump\t// in\n    tag_103:\n      mload(0x40)\n      dup1\n      swap2\n      sub\n      swap1\n      return\n        /* \"contracts/BusinessConsensus3.sol\":776:823  mapping(string => uint256) public expiryLengths */\n    tag_19:\n      tag_104\n      0x04\n      dup1\n      calldatasize\n      sub\n      dup2\n      add\n      swap1\n      tag_105\n      swap2\n      swap1\n      tag_35\n      jump\t// in\n    tag_105:\n      tag_106\n      jump\t// in\n    tag_104:\n      mload(0x40)\n      tag_107\n      swap2\n      swap1\n      tag_93\n      jump\t// in\n    tag_107:\n      mload(0x40)\n      dup1\n      swap2\n      sub\n      swap1\n      return\n        /* \"contracts/BusinessConsensus3.sol\":3506:3671  function getIsCreated(string calldata subject) public view returns (string memory,Proposal memory){\r... */\n    tag_20:\n      tag_108\n      0x04\n      dup1\n      calldatasize\n      sub\n      dup2\n      add\n      swap1\n      tag_109\n      swap2\n      swap1\n      tag_66\n      jump\t// in\n    tag_109:\n      tag_110\n      jump\t// in\n    tag_108:\n      mload(0x40)\n      tag_111\n      swap3\n      swap2\n      swap1\n      tag_112\n      jump\t// in\n    tag_111:\n      mload(0x40)\n      dup1\n      swap2\n      sub\n      swap1\n      return\n        /* \"contracts/BusinessConsensus3.sol\":685:727  mapping(string=>address) public initiators */\n    tag_21:\n      tag_113\n      0x04\n      dup1\n      calldatasize\n      sub\n      dup2\n      add\n      swap1\n      tag_114\n      swap2\n      swap1\n      tag_35\n      jump\t// in\n    tag_114:\n      tag_115\n      jump\t// in\n    tag_113:\n      mload(0x40)\n      tag_116\n      swap2\n      swap1\n      tag_32\n      jump\t// in\n    tag_116:\n      mload(0x40)\n      dup1\n      swap2\n      sub\n      swap1\n      return\n        /* \"contracts/BusinessConsensus3.sol\":2528:2653  function getIsCompiled(string calldata _messageID) public view returns (bool){\r... */\n    tag_22:\n      tag_117\n      0x04\n      dup1\n      calldatasize\n      sub\n      dup2\n      add\n      swap1\n      tag_118\n      swap2\n      swap1\n      tag_66\n      jump\t// in\n    tag_118:\n      tag_119\n      jump\t// in\n    tag_117:\n      mload(0x40)\n      tag_120\n      swap2\n      swap1\n      tag_57\n      jump\t// in\n    tag_120:\n      mload(0x40)\n      dup1\n      swap2\n      sub\n      swap1\n      return\n        /* \"contracts/BusinessConsensus3.sol\":1086:1127  mapping(string => string) public subjects */\n    tag_23:\n      tag_121\n      0x04\n      dup1\n      calldatasize\n      sub\n      dup2\n      add\n      swap1\n      tag_122\n      swap2\n      swap1\n      tag_35\n      jump\t// in\n    tag_122:\n      tag_123\n      jump\t// in\n    tag_121:\n      mload(0x40)\n      tag_124\n      swap2\n      swap1\n      tag_43\n      jump\t// in\n    tag_124:\n      mload(0x40)\n      dup1\n      swap2\n      sub\n      swap1\n      return\n        /* \"contracts/BusinessConsensus3.sol\":1244:1282  mapping(string=>address[]) public keys */\n    tag_30:\n      0x0c\n      dup3\n      dup1\n      mload\n      0x20\n      dup2\n      add\n      dup3\n      add\n      dup1\n      mload\n      dup5\n      dup3\n      mstore\n      0x20\n      dup4\n      add\n      0x20\n      dup6\n      add\n      keccak256\n      dup2\n      dup4\n      mstore\n      dup1\n      swap6\n      pop\n      pop\n      pop\n      pop\n      pop\n      pop\n      dup2\n      dup2\n      sload\n      dup2\n      lt\n      tag_125\n      jumpi\n      0x00\n      dup1\n      revert\n    tag_125:\n      swap1\n      0x00\n      mstore\n      keccak256(0x00, 0x20)\n      add\n      0x00\n      swap2\n      pop\n      swap2\n      pop\n      swap1\n      sload\n      swap1\n      0x0100\n      exp\n      swap1\n      div\n      0xffffffffffffffffffffffffffffffffffffffff\n      and\n      dup2\n      jump\t// out\n        /* \"contracts/BusinessConsensus3.sol\":628:678  mapping(string=>Proposal) public businessProposals */\n    tag_36:\n      0x00\n      dup2\n      dup1\n      mload\n      0x20\n      dup2\n      add\n      dup3\n      add\n      dup1\n      mload\n      dup5\n      dup3\n      mstore\n      0x20\n      dup4\n      add\n      0x20\n      dup6\n      add\n      keccak256\n      dup2\n      dup4\n      mstore\n      dup1\n      swap6\n      pop\n      pop\n      pop\n      pop\n      pop\n      pop\n      0x00\n      swap2\n      pop\n      swap1\n      pop\n      dup1\n      0x00\n      add\n      sload\n      swap1\n      dup1\n      0x01\n      add\n      sload\n      swap1\n      dup1\n      0x02\n      add\n      sload\n      swap1\n      pop\n      dup4\n      jump\t// out\n        /* \"contracts/BusinessConsensus3.sol\":734:769  mapping(string =>string) public IDs */\n    tag_41:\n      0x02\n      dup2\n      dup1\n      mload\n      0x20\n      dup2\n      add\n      dup3\n      add\n      dup1\n      mload\n      dup5\n      dup3\n      mstore\n      0x20\n      dup4\n      add\n      0x20\n      dup6\n      add\n      keccak256\n      dup2\n      dup4\n      mstore\n      dup1\n      swap6\n      pop\n      pop\n      pop\n      pop\n      pop\n      pop\n      0x00\n      swap2\n      pop\n      swap1\n      pop\n      dup1\n      sload\n      tag_127\n      swap1\n      tag_128\n      jump\t// in\n    tag_127:\n      dup1\n      0x1f\n      add\n      0x20\n      dup1\n      swap2\n      div\n      mul\n      0x20\n      add\n      mload(0x40)\n      swap1\n      dup2\n      add\n      0x40\n      mstore\n      dup1\n      swap3\n      swap2\n      swap1\n      dup2\n      dup2\n      mstore\n      0x20\n      add\n      dup3\n      dup1\n      sload\n      tag_129\n      swap1\n      tag_128\n      jump\t// in\n    tag_129:\n      dup1\n      iszero\n      tag_130\n      jumpi\n      dup1\n      0x1f\n      lt\n      tag_131\n      jumpi\n      0x0100\n      dup1\n      dup4\n      sload\n      div\n      mul\n      dup4\n      mstore\n      swap2\n      0x20\n      add\n      swap2\n      jump(tag_130)\n    tag_131:\n      dup3\n      add\n      swap2\n      swap1\n      0x00\n      mstore\n      keccak256(0x00, 0x20)\n      swap1\n    tag_132:\n      dup2\n      sload\n      dup2\n      mstore\n      swap1\n      0x01\n      add\n      swap1\n      0x20\n      add\n      dup1\n      dup4\n      gt\n      tag_132\n      jumpi\n      dup3\n      swap1\n      sub\n      0x1f\n      and\n      dup3\n      add\n      swap2\n    tag_130:\n      pop\n      pop\n      pop\n      pop\n      pop\n      dup2\n      jump\t// out\n        /* \"contracts/BusinessConsensus3.sol\":4548:5921  function Vote(string memory response,string calldata _messageID) external {\r... */\n    tag_47:\n        /* \"contracts/BusinessConsensus3.sol\":4661:4678  businessProposals */\n      0x00\n        /* \"contracts/BusinessConsensus3.sol\":4679:4689  _messageID */\n      dup3\n      dup3\n        /* \"contracts/BusinessConsensus3.sol\":4661:4690  businessProposals[_messageID] */\n      mload(0x40)\n      tag_134\n      swap3\n      swap2\n      swap1\n      tag_135\n      jump\t// in\n    tag_134:\n      swap1\n      dup2\n      mstore\n      0x20\n      add\n      mload(0x40)\n      dup1\n      swap2\n      sub\n      swap1\n      keccak256\n        /* \"contracts/BusinessConsensus3.sol\":4661:4701  businessProposals[_messageID].expiryDate */\n      0x01\n      add\n      sload\n        /* \"contracts/BusinessConsensus3.sol\":4643:4658  block.timestamp */\n      timestamp\n        /* \"contracts/BusinessConsensus3.sol\":4643:4701  block.timestamp < businessProposals[_messageID].expiryDate */\n      lt\n        /* \"contracts/BusinessConsensus3.sol\":4635:4724  require(block.timestamp < businessProposals[_messageID].expiryDate, \"Voting has expired\") */\n      tag_136\n      jumpi\n      mload(0x40)\n      0x08c379a000000000000000000000000000000000000000000000000000000000\n      dup2\n      mstore\n      0x04\n      add\n      tag_137\n      swap1\n      tag_138\n      jump\t// in\n    tag_137:\n      mload(0x40)\n      dup1\n      swap2\n      sub\n      swap1\n      revert\n    tag_136:\n        /* \"contracts/BusinessConsensus3.sol\":4799:4802  0x0 */\n      0x00\n        /* \"contracts/BusinessConsensus3.sol\":4743:4803  voter_maps[_messageID][msg.sender].recipient != address(0x0) */\n      0xffffffffffffffffffffffffffffffffffffffff\n      and\n        /* \"contracts/BusinessConsensus3.sol\":4743:4753  voter_maps */\n      0x0a\n        /* \"contracts/BusinessConsensus3.sol\":4754:4764  _messageID */\n      dup4\n      dup4\n        /* \"contracts/BusinessConsensus3.sol\":4743:4765  voter_maps[_messageID] */\n      mload(0x40)\n      tag_139\n      swap3\n      swap2\n      swap1\n      tag_135\n      jump\t// in\n    tag_139:\n      swap1\n      dup2\n      mstore\n      0x20\n      add\n      mload(0x40)\n      dup1\n      swap2\n      sub\n      swap1\n      keccak256\n        /* \"contracts/BusinessConsensus3.sol\":4743:4777  voter_maps[_messageID][msg.sender] */\n      0x00\n        /* \"contracts/BusinessConsensus3.sol\":4766:4776  msg.sender */\n      caller\n        /* \"contracts/BusinessConsensus3.sol\":4743:4777  voter_maps[_messageID][msg.sender] */\n      0xffffffffffffffffffffffffffffffffffffffff\n      and\n      0xffffffffffffffffffffffffffffffffffffffff\n      and\n      dup2\n      mstore\n      0x20\n      add\n      swap1\n      dup2\n      mstore\n      0x20\n      add\n      0x00\n      keccak256\n        /* \"contracts/BusinessConsensus3.sol\":4743:4787  voter_maps[_messageID][msg.sender].recipient */\n      0x00\n      add\n      0x02\n      swap1\n      sload\n      swap1\n      0x0100\n      exp\n      swap1\n      div\n      0xffffffffffffffffffffffffffffffffffffffff\n      and\n        /* \"contracts/BusinessConsensus3.sol\":4743:4803  voter_maps[_messageID][msg.sender].recipient != address(0x0) */\n      0xffffffffffffffffffffffffffffffffffffffff\n      and\n      eq\n      iszero\n        /* \"contracts/BusinessConsensus3.sol\":4735:4838  require(voter_maps[_messageID][msg.sender].recipient != address(0x0), \"You are not registered to vote\") */\n      tag_140\n      jumpi\n      mload(0x40)\n      0x08c379a000000000000000000000000000000000000000000000000000000000\n      dup2\n      mstore\n      0x04\n      add\n      tag_141\n      swap1\n      tag_142\n      jump\t// in\n    tag_141:\n      mload(0x40)\n      dup1\n      swap2\n      sub\n      swap1\n      revert\n    tag_140:\n        /* \"contracts/BusinessConsensus3.sol\":4858:4868  voter_maps */\n      0x0a\n        /* \"contracts/BusinessConsensus3.sol\":4869:4879  _messageID */\n      dup3\n      dup3\n        /* \"contracts/BusinessConsensus3.sol\":4858:4880  voter_maps[_messageID] */\n      mload(0x40)\n      tag_143\n      swap3\n      swap2\n      swap1\n      tag_135\n      jump\t// in\n    tag_143:\n      swap1\n      dup2\n      mstore\n      0x20\n      add\n      mload(0x40)\n      dup1\n      swap2\n      sub\n      swap1\n      keccak256\n        /* \"contracts/BusinessConsensus3.sol\":4858:4892  voter_maps[_messageID][msg.sender] */\n      0x00\n        /* \"contracts/BusinessConsensus3.sol\":4881:4891  msg.sender */\n      caller\n        /* \"contracts/BusinessConsensus3.sol\":4858:4892  voter_maps[_messageID][msg.sender] */\n      0xffffffffffffffffffffffffffffffffffffffff\n      and\n      0xffffffffffffffffffffffffffffffffffffffff\n      and\n      dup2\n      mstore\n      0x20\n      add\n      swap1\n      dup2\n      mstore\n      0x20\n      add\n      0x00\n      keccak256\n        /* \"contracts/BusinessConsensus3.sol\":4858:4898  voter_maps[_messageID][msg.sender].voted */\n      0x00\n      add\n      0x00\n      swap1\n      sload\n      swap1\n      0x0100\n      exp\n      swap1\n      div\n      0xff\n      and\n        /* \"contracts/BusinessConsensus3.sol\":4857:4898  !voter_maps[_messageID][msg.sender].voted */\n      iszero\n        /* \"contracts/BusinessConsensus3.sol\":4849:4931  require(!voter_maps[_messageID][msg.sender].voted, \"You already sent a response.\") */\n      tag_144\n      jumpi\n      mload(0x40)\n      0x08c379a000000000000000000000000000000000000000000000000000000000\n      dup2\n      mstore\n      0x04\n      add\n      tag_145\n      swap1\n      tag_146\n      jump\t// in\n    tag_145:\n      mload(0x40)\n      dup1\n      swap2\n      sub\n      swap1\n      revert\n    tag_144:\n        /* \"contracts/BusinessConsensus3.sol\":4987:5005  bytes(\"i approve\") */\n      mload(0x40)\n      dup1\n      0x40\n      add\n      0x40\n      mstore\n      dup1\n      0x09\n      dup2\n      mstore\n      0x20\n      add\n      0x6920617070726f76650000000000000000000000000000000000000000000000\n      dup2\n      mstore\n      pop\n        /* \"contracts/BusinessConsensus3.sol\":4977:5006  keccak256(bytes(\"i approve\")) */\n      dup1\n      mload\n      swap1\n      0x20\n      add\n      keccak256\n        /* \"contracts/BusinessConsensus3.sol\":4963:4971  response */\n      dup4\n        /* \"contracts/BusinessConsensus3.sol\":4947:4973  keccak256(bytes(response)) */\n      dup1\n      mload\n      swap1\n      0x20\n      add\n      keccak256\n        /* \"contracts/BusinessConsensus3.sol\":4947:5006  keccak256(bytes(response)) == keccak256(bytes(\"i approve\")) */\n      eq\n        /* \"contracts/BusinessConsensus3.sol\":4944:5904  if(keccak256(bytes(response)) == keccak256(bytes(\"i approve\"))){\r... */\n      iszero\n      tag_147\n      jumpi\n        /* \"contracts/BusinessConsensus3.sol\":5065:5069  true */\n      0x01\n        /* \"contracts/BusinessConsensus3.sol\":5022:5032  voter_maps */\n      0x0a\n        /* \"contracts/BusinessConsensus3.sol\":5033:5043  _messageID */\n      dup4\n      dup4\n        /* \"contracts/BusinessConsensus3.sol\":5022:5044  voter_maps[_messageID] */\n      mload(0x40)\n      tag_148\n      swap3\n      swap2\n      swap1\n      tag_135\n      jump\t// in\n    tag_148:\n      swap1\n      dup2\n      mstore\n      0x20\n      add\n      mload(0x40)\n      dup1\n      swap2\n      sub\n      swap1\n      keccak256\n        /* \"contracts/BusinessConsensus3.sol\":5022:5056  voter_maps[_messageID][msg.sender] */\n      0x00\n        /* \"contracts/BusinessConsensus3.sol\":5045:5055  msg.sender */\n      caller\n        /* \"contracts/BusinessConsensus3.sol\":5022:5056  voter_maps[_messageID][msg.sender] */\n      0xffffffffffffffffffffffffffffffffffffffff\n      and\n      0xffffffffffffffffffffffffffffffffffffffff\n      and\n      dup2\n      mstore\n      0x20\n      add\n      swap1\n      dup2\n      mstore\n      0x20\n      add\n      0x00\n      keccak256\n        /* \"contracts/BusinessConsensus3.sol\":5022:5062  voter_maps[_messageID][msg.sender].voted */\n      0x00\n      add\n      0x00\n        /* \"contracts/BusinessConsensus3.sol\":5022:5069  voter_maps[_messageID][msg.sender].voted = true */\n      0x0100\n      exp\n      dup2\n      sload\n      dup2\n      0xff\n      mul\n      not\n      and\n      swap1\n      dup4\n      iszero\n      iszero\n      mul\n      or\n      swap1\n      sstore\n      pop\n        /* \"contracts/BusinessConsensus3.sol\":5126:5130  true */\n      0x01\n        /* \"contracts/BusinessConsensus3.sol\":5084:5094  voter_maps */\n      0x0a\n        /* \"contracts/BusinessConsensus3.sol\":5095:5105  _messageID */\n      dup4\n      dup4\n        /* \"contracts/BusinessConsensus3.sol\":5084:5106  voter_maps[_messageID] */\n      mload(0x40)\n      tag_149\n      swap3\n      swap2\n      swap1\n      tag_135\n      jump\t// in\n    tag_149:\n      swap1\n      dup2\n      mstore\n      0x20\n      add\n      mload(0x40)\n      dup1\n      swap2\n      sub\n      swap1\n      keccak256\n        /* \"contracts/BusinessConsensus3.sol\":5084:5118  voter_maps[_messageID][msg.sender] */\n      0x00\n        /* \"contracts/BusinessConsensus3.sol\":5107:5117  msg.sender */\n      caller\n        /* \"contracts/BusinessConsensus3.sol\":5084:5118  voter_maps[_messageID][msg.sender] */\n      0xffffffffffffffffffffffffffffffffffffffff\n      and\n      0xffffffffffffffffffffffffffffffffffffffff\n      and\n      dup2\n      mstore\n      0x20\n      add\n      swap1\n      dup2\n      mstore\n      0x20\n      add\n      0x00\n      keccak256\n        /* \"contracts/BusinessConsensus3.sol\":5084:5123  voter_maps[_messageID][msg.sender].vote */\n      0x00\n      add\n      0x01\n        /* \"contracts/BusinessConsensus3.sol\":5084:5130  voter_maps[_messageID][msg.sender].vote = true */\n      0x0100\n      exp\n      dup2\n      sload\n      dup2\n      0xff\n      mul\n      not\n      and\n      swap1\n      dup4\n      iszero\n      iszero\n      mul\n      or\n      swap1\n      sstore\n      pop\n        /* \"contracts/BusinessConsensus3.sol\":5173:5174  1 */\n      0x01\n        /* \"contracts/BusinessConsensus3.sol\":5145:5157  numApprovals */\n      0x05\n        /* \"contracts/BusinessConsensus3.sol\":5158:5168  _messageID */\n      dup4\n      dup4\n        /* \"contracts/BusinessConsensus3.sol\":5145:5169  numApprovals[_messageID] */\n      mload(0x40)\n      tag_150\n      swap3\n      swap2\n      swap1\n      tag_135\n      jump\t// in\n    tag_150:\n      swap1\n      dup2\n      mstore\n      0x20\n      add\n      mload(0x40)\n      dup1\n      swap2\n      sub\n      swap1\n      keccak256\n      0x00\n        /* \"contracts/BusinessConsensus3.sol\":5145:5174  numApprovals[_messageID] += 1 */\n      dup3\n      dup3\n      sload\n      tag_151\n      swap2\n      swap1\n      tag_152\n      jump\t// in\n    tag_151:\n      swap3\n      pop\n      pop\n      dup2\n      swap1\n      sstore\n      pop\n        /* \"contracts/BusinessConsensus3.sol\":5232:5233  1 */\n      0x01\n        /* \"contracts/BusinessConsensus3.sol\":5189:5206  businessProposals */\n      0x00\n        /* \"contracts/BusinessConsensus3.sol\":5207:5217  _messageID */\n      dup4\n      dup4\n        /* \"contracts/BusinessConsensus3.sol\":5189:5218  businessProposals[_messageID] */\n      mload(0x40)\n      tag_153\n      swap3\n      swap2\n      swap1\n      tag_135\n      jump\t// in\n    tag_153:\n      swap1\n      dup2\n      mstore\n      0x20\n      add\n      mload(0x40)\n      dup1\n      swap2\n      sub\n      swap1\n      keccak256\n        /* \"contracts/BusinessConsensus3.sol\":5189:5228  businessProposals[_messageID].voteCount */\n      0x00\n      add\n      0x00\n        /* \"contracts/BusinessConsensus3.sol\":5189:5233  businessProposals[_messageID].voteCount += 1 */\n      dup3\n      dup3\n      sload\n      tag_154\n      swap2\n      swap1\n      tag_152\n      jump\t// in\n    tag_154:\n      swap3\n      pop\n      pop\n      dup2\n      swap1\n      sstore\n      pop\n        /* \"contracts/BusinessConsensus3.sol\":5248:5254  Voters */\n      0x0b\n        /* \"contracts/BusinessConsensus3.sol\":5255:5265  _messageID */\n      dup3\n      dup3\n        /* \"contracts/BusinessConsensus3.sol\":5248:5266  Voters[_messageID] */\n      mload(0x40)\n      tag_155\n      swap3\n      swap2\n      swap1\n      tag_135\n      jump\t// in\n    tag_155:\n      swap1\n      dup2\n      mstore\n      0x20\n      add\n      mload(0x40)\n      dup1\n      swap2\n      sub\n      swap1\n      keccak256\n        /* \"contracts/BusinessConsensus3.sol\":5272:5282  voter_maps */\n      0x0a\n        /* \"contracts/BusinessConsensus3.sol\":5283:5293  _messageID */\n      dup4\n      dup4\n        /* \"contracts/BusinessConsensus3.sol\":5272:5294  voter_maps[_messageID] */\n      mload(0x40)\n      tag_156\n      swap3\n      swap2\n      swap1\n      tag_135\n      jump\t// in\n    tag_156:\n      swap1\n      dup2\n      mstore\n      0x20\n      add\n      mload(0x40)\n      dup1\n      swap2\n      sub\n      swap1\n      keccak256\n        /* \"contracts/BusinessConsensus3.sol\":5272:5306  voter_maps[_messageID][msg.sender] */\n      0x00\n        /* \"contracts/BusinessConsensus3.sol\":5295:5305  msg.sender */\n      caller\n        /* \"contracts/BusinessConsensus3.sol\":5272:5306  voter_maps[_messageID][msg.sender] */\n      0xffffffffffffffffffffffffffffffffffffffff\n      and\n      0xffffffffffffffffffffffffffffffffffffffff\n      and\n      dup2\n      mstore\n      0x20\n      add\n      swap1\n      dup2\n      mstore\n      0x20\n      add\n      0x00\n      keccak256\n        /* \"contracts/BusinessConsensus3.sol\":5248:5307  Voters[_messageID].push(voter_maps[_messageID][msg.sender]) */\n      swap1\n      dup1\n      0x01\n      dup2\n      sload\n      add\n      dup1\n      dup3\n      sstore\n      dup1\n      swap2\n      pop\n      pop\n      0x01\n      swap1\n      sub\n      swap1\n      0x00\n      mstore\n      keccak256(0x00, 0x20)\n      add\n      0x00\n      swap1\n      swap2\n      swap1\n      swap2\n      swap1\n      swap2\n      pop\n      0x00\n      dup3\n      add\n      0x00\n      swap1\n      sload\n      swap1\n      0x0100\n      exp\n      swap1\n      div\n      0xff\n      and\n      dup2\n      0x00\n      add\n      exp(0x0100, 0x00)\n      dup2\n      sload\n      dup2\n      0xff\n      mul\n      not\n      and\n      swap1\n      dup4\n      iszero\n      iszero\n      mul\n      or\n      swap1\n      sstore\n      pop\n      0x00\n      dup3\n      add\n      0x01\n      swap1\n      sload\n      swap1\n      0x0100\n      exp\n      swap1\n      div\n      0xff\n      and\n      dup2\n      0x00\n      add\n      exp(0x0100, 0x01)\n      dup2\n      sload\n      dup2\n      0xff\n      mul\n      not\n      and\n      swap1\n      dup4\n      iszero\n      iszero\n      mul\n      or\n      swap1\n      sstore\n      pop\n      0x00\n      dup3\n      add\n      0x02\n      swap1\n      sload\n      swap1\n      0x0100\n      exp\n      swap1\n      div\n      0xffffffffffffffffffffffffffffffffffffffff\n      and\n      dup2\n      0x00\n      add\n      exp(0x0100, 0x02)\n      dup2\n      sload\n      dup2\n      0xffffffffffffffffffffffffffffffffffffffff\n      mul\n      not\n      and\n      swap1\n      dup4\n      0xffffffffffffffffffffffffffffffffffffffff\n      and\n      mul\n      or\n      swap1\n      sstore\n      pop\n      pop\n      pop\n        /* \"contracts/BusinessConsensus3.sol\":4944:5904  if(keccak256(bytes(response)) == keccak256(bytes(\"i approve\"))){\r... */\n      jump(tag_158)\n    tag_147:\n        /* \"contracts/BusinessConsensus3.sol\":5379:5400  bytes(\"i disapprove\") */\n      mload(0x40)\n      dup1\n      0x40\n      add\n      0x40\n      mstore\n      dup1\n      0x0c\n      dup2\n      mstore\n      0x20\n      add\n      0x6920646973617070726f76650000000000000000000000000000000000000000\n      dup2\n      mstore\n      pop\n        /* \"contracts/BusinessConsensus3.sol\":5369:5401  keccak256(bytes(\"i disapprove\")) */\n      dup1\n      mload\n      swap1\n      0x20\n      add\n      keccak256\n        /* \"contracts/BusinessConsensus3.sol\":5355:5363  response */\n      dup4\n        /* \"contracts/BusinessConsensus3.sol\":5339:5365  keccak256(bytes(response)) */\n      dup1\n      mload\n      swap1\n      0x20\n      add\n      keccak256\n        /* \"contracts/BusinessConsensus3.sol\":5339:5401  keccak256(bytes(response)) == keccak256(bytes(\"i disapprove\")) */\n      eq\n        /* \"contracts/BusinessConsensus3.sol\":5336:5904  if(keccak256(bytes(response)) == keccak256(bytes(\"i disapprove\"))){\r... */\n      iszero\n      tag_159\n      jumpi\n        /* \"contracts/BusinessConsensus3.sol\":5460:5464  true */\n      0x01\n        /* \"contracts/BusinessConsensus3.sol\":5417:5427  voter_maps */\n      0x0a\n        /* \"contracts/BusinessConsensus3.sol\":5428:5438  _messageID */\n      dup4\n      dup4\n        /* \"contracts/BusinessConsensus3.sol\":5417:5439  voter_maps[_messageID] */\n      mload(0x40)\n      tag_160\n      swap3\n      swap2\n      swap1\n      tag_135\n      jump\t// in\n    tag_160:\n      swap1\n      dup2\n      mstore\n      0x20\n      add\n      mload(0x40)\n      dup1\n      swap2\n      sub\n      swap1\n      keccak256\n        /* \"contracts/BusinessConsensus3.sol\":5417:5451  voter_maps[_messageID][msg.sender] */\n      0x00\n        /* \"contracts/BusinessConsensus3.sol\":5440:5450  msg.sender */\n      caller\n        /* \"contracts/BusinessConsensus3.sol\":5417:5451  voter_maps[_messageID][msg.sender] */\n      0xffffffffffffffffffffffffffffffffffffffff\n      and\n      0xffffffffffffffffffffffffffffffffffffffff\n      and\n      dup2\n      mstore\n      0x20\n      add\n      swap1\n      dup2\n      mstore\n      0x20\n      add\n      0x00\n      keccak256\n        /* \"contracts/BusinessConsensus3.sol\":5417:5457  voter_maps[_messageID][msg.sender].voted */\n      0x00\n      add\n      0x00\n        /* \"contracts/BusinessConsensus3.sol\":5417:5464  voter_maps[_messageID][msg.sender].voted = true */\n      0x0100\n      exp\n      dup2\n      sload\n      dup2\n      0xff\n      mul\n      not\n      and\n      swap1\n      dup4\n      iszero\n      iszero\n      mul\n      or\n      swap1\n      sstore\n      pop\n        /* \"contracts/BusinessConsensus3.sol\":5522:5523  1 */\n      0x01\n        /* \"contracts/BusinessConsensus3.sol\":5479:5496  businessProposals */\n      0x00\n        /* \"contracts/BusinessConsensus3.sol\":5497:5507  _messageID */\n      dup4\n      dup4\n        /* \"contracts/BusinessConsensus3.sol\":5479:5508  businessProposals[_messageID] */\n      mload(0x40)\n      tag_161\n      swap3\n      swap2\n      swap1\n      tag_135\n      jump\t// in\n    tag_161:\n      swap1\n      dup2\n      mstore\n      0x20\n      add\n      mload(0x40)\n      dup1\n      swap2\n      sub\n      swap1\n      keccak256\n        /* \"contracts/BusinessConsensus3.sol\":5479:5518  businessProposals[_messageID].voteCount */\n      0x00\n      add\n      0x00\n        /* \"contracts/BusinessConsensus3.sol\":5479:5523  businessProposals[_messageID].voteCount += 1 */\n      dup3\n      dup3\n      sload\n      tag_162\n      swap2\n      swap1\n      tag_152\n      jump\t// in\n    tag_162:\n      swap3\n      pop\n      pop\n      dup2\n      swap1\n      sstore\n      pop\n        /* \"contracts/BusinessConsensus3.sol\":5538:5544  Voters */\n      0x0b\n        /* \"contracts/BusinessConsensus3.sol\":5545:5555  _messageID */\n      dup3\n      dup3\n        /* \"contracts/BusinessConsensus3.sol\":5538:5556  Voters[_messageID] */\n      mload(0x40)\n      tag_163\n      swap3\n      swap2\n      swap1\n      tag_135\n      jump\t// in\n    tag_163:\n      swap1\n      dup2\n      mstore\n      0x20\n      add\n      mload(0x40)\n      dup1\n      swap2\n      sub\n      swap1\n      keccak256\n        /* \"contracts/BusinessConsensus3.sol\":5562:5572  voter_maps */\n      0x0a\n        /* \"contracts/BusinessConsensus3.sol\":5573:5583  _messageID */\n      dup4\n      dup4\n        /* \"contracts/BusinessConsensus3.sol\":5562:5584  voter_maps[_messageID] */\n      mload(0x40)\n      tag_164\n      swap3\n      swap2\n      swap1\n      tag_135\n      jump\t// in\n    tag_164:\n      swap1\n      dup2\n      mstore\n      0x20\n      add\n      mload(0x40)\n      dup1\n      swap2\n      sub\n      swap1\n      keccak256\n        /* \"contracts/BusinessConsensus3.sol\":5562:5596  voter_maps[_messageID][msg.sender] */\n      0x00\n        /* \"contracts/BusinessConsensus3.sol\":5585:5595  msg.sender */\n      caller\n        /* \"contracts/BusinessConsensus3.sol\":5562:5596  voter_maps[_messageID][msg.sender] */\n      0xffffffffffffffffffffffffffffffffffffffff\n      and\n      0xffffffffffffffffffffffffffffffffffffffff\n      and\n      dup2\n      mstore\n      0x20\n      add\n      swap1\n      dup2\n      mstore\n      0x20\n      add\n      0x00\n      keccak256\n        /* \"contracts/BusinessConsensus3.sol\":5538:5597  Voters[_messageID].push(voter_maps[_messageID][msg.sender]) */\n      swap1\n      dup1\n      0x01\n      dup2\n      sload\n      add\n      dup1\n      dup3\n      sstore\n      dup1\n      swap2\n      pop\n      pop\n      0x01\n      swap1\n      sub\n      swap1\n      0x00\n      mstore\n      keccak256(0x00, 0x20)\n      add\n      0x00\n      swap1\n      swap2\n      swap1\n      swap2\n      swap1\n      swap2\n      pop\n      0x00\n      dup3\n      add\n      0x00\n      swap1\n      sload\n      swap1\n      0x0100\n      exp\n      swap1\n      div\n      0xff\n      and\n      dup2\n      0x00\n      add\n      exp(0x0100, 0x00)\n      dup2\n      sload\n      dup2\n      0xff\n      mul\n      not\n      and\n      swap1\n      dup4\n      iszero\n      iszero\n      mul\n      or\n      swap1\n      sstore\n      pop\n      0x00\n      dup3\n      add\n      0x01\n      swap1\n      sload\n      swap1\n      0x0100\n      exp\n      swap1\n      div\n      0xff\n      and\n      dup2\n      0x00\n      add\n      exp(0x0100, 0x01)\n      dup2\n      sload\n      dup2\n      0xff\n      mul\n      not\n      and\n      swap1\n      dup4\n      iszero\n      iszero\n      mul\n      or\n      swap1\n      sstore\n      pop\n      0x00\n      dup3\n      add\n      0x02\n      swap1\n      sload\n      swap1\n      0x0100\n      exp\n      swap1\n      div\n      0xffffffffffffffffffffffffffffffffffffffff\n      and\n      dup2\n      0x00\n      add\n      exp(0x0100, 0x02)\n      dup2\n      sload\n      dup2\n      0xffffffffffffffffffffffffffffffffffffffff\n      mul\n      not\n      and\n      swap1\n      dup4\n      0xffffffffffffffffffffffffffffffffffffffff\n      and\n      mul\n      or\n      swap1\n      sstore\n      pop\n      pop\n      pop\n        /* \"contracts/BusinessConsensus3.sol\":5336:5904  if(keccak256(bytes(response)) == keccak256(bytes(\"i disapprove\"))){\r... */\n      jump(tag_166)\n    tag_159:\n        /* \"contracts/BusinessConsensus3.sol\":5755:5759  true */\n      0x01\n        /* \"contracts/BusinessConsensus3.sol\":5712:5722  voter_maps */\n      0x0a\n        /* \"contracts/BusinessConsensus3.sol\":5723:5733  _messageID */\n      dup4\n      dup4\n        /* \"contracts/BusinessConsensus3.sol\":5712:5734  voter_maps[_messageID] */\n      mload(0x40)\n      tag_167\n      swap3\n      swap2\n      swap1\n      tag_135\n      jump\t// in\n    tag_167:\n      swap1\n      dup2\n      mstore\n      0x20\n      add\n      mload(0x40)\n      dup1\n      swap2\n      sub\n      swap1\n      keccak256\n        /* \"contracts/BusinessConsensus3.sol\":5712:5746  voter_maps[_messageID][msg.sender] */\n      0x00\n        /* \"contracts/BusinessConsensus3.sol\":5735:5745  msg.sender */\n      caller\n        /* \"contracts/BusinessConsensus3.sol\":5712:5746  voter_maps[_messageID][msg.sender] */\n      0xffffffffffffffffffffffffffffffffffffffff\n      and\n      0xffffffffffffffffffffffffffffffffffffffff\n      and\n      dup2\n      mstore\n      0x20\n      add\n      swap1\n      dup2\n      mstore\n      0x20\n      add\n      0x00\n      keccak256\n        /* \"contracts/BusinessConsensus3.sol\":5712:5752  voter_maps[_messageID][msg.sender].voted */\n      0x00\n      add\n      0x00\n        /* \"contracts/BusinessConsensus3.sol\":5712:5759  voter_maps[_messageID][msg.sender].voted = true */\n      0x0100\n      exp\n      dup2\n      sload\n      dup2\n      0xff\n      mul\n      not\n      and\n      swap1\n      dup4\n      iszero\n      iszero\n      mul\n      or\n      swap1\n      sstore\n      pop\n        /* \"contracts/BusinessConsensus3.sol\":5817:5818  1 */\n      0x01\n        /* \"contracts/BusinessConsensus3.sol\":5774:5791  businessProposals */\n      0x00\n        /* \"contracts/BusinessConsensus3.sol\":5792:5802  _messageID */\n      dup4\n      dup4\n        /* \"contracts/BusinessConsensus3.sol\":5774:5803  businessProposals[_messageID] */\n      mload(0x40)\n      tag_168\n      swap3\n      swap2\n      swap1\n      tag_135\n      jump\t// in\n    tag_168:\n      swap1\n      dup2\n      mstore\n      0x20\n      add\n      mload(0x40)\n      dup1\n      swap2\n      sub\n      swap1\n      keccak256\n        /* \"contracts/BusinessConsensus3.sol\":5774:5813  businessProposals[_messageID].voteCount */\n      0x00\n      add\n      0x00\n        /* \"contracts/BusinessConsensus3.sol\":5774:5818  businessProposals[_messageID].voteCount += 1 */\n      dup3\n      dup3\n      sload\n      tag_169\n      swap2\n      swap1\n      tag_152\n      jump\t// in\n    tag_169:\n      swap3\n      pop\n      pop\n      dup2\n      swap1\n      sstore\n      pop\n        /* \"contracts/BusinessConsensus3.sol\":5833:5839  Voters */\n      0x0b\n        /* \"contracts/BusinessConsensus3.sol\":5840:5850  _messageID */\n      dup3\n      dup3\n        /* \"contracts/BusinessConsensus3.sol\":5833:5851  Voters[_messageID] */\n      mload(0x40)\n      tag_170\n      swap3\n      swap2\n      swap1\n      tag_135\n      jump\t// in\n    tag_170:\n      swap1\n      dup2\n      mstore\n      0x20\n      add\n      mload(0x40)\n      dup1\n      swap2\n      sub\n      swap1\n      keccak256\n        /* \"contracts/BusinessConsensus3.sol\":5857:5867  voter_maps */\n      0x0a\n        /* \"contracts/BusinessConsensus3.sol\":5868:5878  _messageID */\n      dup4\n      dup4\n        /* \"contracts/BusinessConsensus3.sol\":5857:5879  voter_maps[_messageID] */\n      mload(0x40)\n      tag_171\n      swap3\n      swap2\n      swap1\n      tag_135\n      jump\t// in\n    tag_171:\n      swap1\n      dup2\n      mstore\n      0x20\n      add\n      mload(0x40)\n      dup1\n      swap2\n      sub\n      swap1\n      keccak256\n        /* \"contracts/BusinessConsensus3.sol\":5857:5891  voter_maps[_messageID][msg.sender] */\n      0x00\n        /* \"contracts/BusinessConsensus3.sol\":5880:5890  msg.sender */\n      caller\n        /* \"contracts/BusinessConsensus3.sol\":5857:5891  voter_maps[_messageID][msg.sender] */\n      0xffffffffffffffffffffffffffffffffffffffff\n      and\n      0xffffffffffffffffffffffffffffffffffffffff\n      and\n      dup2\n      mstore\n      0x20\n      add\n      swap1\n      dup2\n      mstore\n      0x20\n      add\n      0x00\n      keccak256\n        /* \"contracts/BusinessConsensus3.sol\":5833:5892  Voters[_messageID].push(voter_maps[_messageID][msg.sender]) */\n      swap1\n      dup1\n      0x01\n      dup2\n      sload\n      add\n      dup1\n      dup3\n      sstore\n      dup1\n      swap2\n      pop\n      pop\n      0x01\n      swap1\n      sub\n      swap1\n      0x00\n      mstore\n      keccak256(0x00, 0x20)\n      add\n      0x00\n      swap1\n      swap2\n      swap1\n      swap2\n      swap1\n      swap2\n      pop\n      0x00\n      dup3\n      add\n      0x00\n      swap1\n      sload\n      swap1\n      0x0100\n      exp\n      swap1\n      div\n      0xff\n      and\n      dup2\n      0x00\n      add\n      exp(0x0100, 0x00)\n      dup2\n      sload\n      dup2\n      0xff\n      mul\n      not\n      and\n      swap1\n      dup4\n      iszero\n      iszero\n      mul\n      or\n      swap1\n      sstore\n      pop\n      0x00\n      dup3\n      add\n      0x01\n      swap1\n      sload\n      swap1\n      0x0100\n      exp\n      swap1\n      div\n      0xff\n      and\n      dup2\n      0x00\n      add\n      exp(0x0100, 0x01)\n      dup2\n      sload\n      dup2\n      0xff\n      mul\n      not\n      and\n      swap1\n      dup4\n      iszero\n      iszero\n      mul\n      or\n      swap1\n      sstore\n      pop\n      0x00\n      dup3\n      add\n      0x02\n      swap1\n      sload\n      swap1\n      0x0100\n      exp\n      swap1\n      div\n      0xffffffffffffffffffffffffffffffffffffffff\n      and\n      dup2\n      0x00\n      add\n      exp(0x0100, 0x02)\n      dup2\n      sload\n      dup2\n      0xffffffffffffffffffffffffffffffffffffffff\n      mul\n      not\n      and\n      swap1\n      dup4\n      0xffffffffffffffffffffffffffffffffffffffff\n      and\n      mul\n      or\n      swap1\n      sstore\n      pop\n      pop\n      pop\n        /* \"contracts/BusinessConsensus3.sol\":5336:5904  if(keccak256(bytes(response)) == keccak256(bytes(\"i disapprove\"))){\r... */\n    tag_166:\n        /* \"contracts/BusinessConsensus3.sol\":4944:5904  if(keccak256(bytes(response)) == keccak256(bytes(\"i approve\"))){\r... */\n    tag_158:\n        /* \"contracts/BusinessConsensus3.sol\":4548:5921  function Vote(string memory response,string calldata _messageID) external {\r... */\n      pop\n      pop\n      pop\n      jump\t// out\n        /* \"contracts/BusinessConsensus3.sol\":984:1031  mapping(string => bytes32) public finalVerdicts */\n    tag_50:\n      0x07\n      dup2\n      dup1\n      mload\n      0x20\n      dup2\n      add\n      dup3\n      add\n      dup1\n      mload\n      dup5\n      dup3\n      mstore\n      0x20\n      dup4\n      add\n      0x20\n      dup6\n      add\n      keccak256\n      dup2\n      dup4\n      mstore\n      dup1\n      swap6\n      pop\n      pop\n      pop\n      pop\n      pop\n      pop\n      0x00\n      swap2\n      pop\n      swap1\n      pop\n      sload\n      dup2\n      jump\t// out\n        /* \"contracts/BusinessConsensus3.sol\":1038:1079  mapping(string => bool) public isCompiled */\n    tag_55:\n      0x08\n      dup2\n      dup1\n      mload\n      0x20\n      dup2\n      add\n      dup3\n      add\n      dup1\n      mload\n      dup5\n      dup3\n      mstore\n      0x20\n      dup4\n      add\n      0x20\n      dup6\n      add\n      keccak256\n      dup2\n      dup4\n      mstore\n      dup1\n      swap6\n      pop\n      pop\n      pop\n      pop\n      pop\n      pop\n      0x00\n      swap2\n      pop\n      sload\n      swap1\n      0x0100\n      exp\n      swap1\n      div\n      0xff\n      and\n      dup2\n      jump\t// out\n        /* \"contracts/BusinessConsensus3.sol\":1134:1192  mapping(string=>mapping(address=>Voter)) public voter_maps */\n    tag_61:\n      0x0a\n      dup3\n      dup1\n      mload\n      0x20\n      dup2\n      add\n      dup3\n      add\n      dup1\n      mload\n      dup5\n      dup3\n      mstore\n      0x20\n      dup4\n      add\n      0x20\n      dup6\n      add\n      keccak256\n      dup2\n      dup4\n      mstore\n      dup1\n      swap6\n      pop\n      pop\n      pop\n      pop\n      pop\n      pop\n      0x20\n      mstore\n      dup1\n      0x00\n      mstore\n      keccak256(0x00, 0x40)\n      0x00\n      swap2\n      pop\n      swap2\n      pop\n      pop\n      dup1\n      0x00\n      add\n      0x00\n      swap1\n      sload\n      swap1\n      0x0100\n      exp\n      swap1\n      div\n      0xff\n      and\n      swap1\n      dup1\n      0x00\n      add\n      0x01\n      swap1\n      sload\n      swap1\n      0x0100\n      exp\n      swap1\n      div\n      0xff\n      and\n      swap1\n      dup1\n      0x00\n      add\n      0x02\n      swap1\n      sload\n      swap1\n      0x0100\n      exp\n      swap1\n      div\n      0xffffffffffffffffffffffffffffffffffffffff\n      and\n      swap1\n      pop\n      dup4\n      jump\t// out\n        /* \"contracts/BusinessConsensus3.sol\":6964:7445  function retrieve_bundle(string calldata _messageID) external view returns (bytes32, string memory, uint256, Voter[] memory){\r... */\n    tag_67:\n        /* \"contracts/BusinessConsensus3.sol\":7040:7047  bytes32 */\n      0x00\n        /* \"contracts/BusinessConsensus3.sol\":7049:7062  string memory */\n      0x60\n        /* \"contracts/BusinessConsensus3.sol\":7064:7071  uint256 */\n      0x00\n        /* \"contracts/BusinessConsensus3.sol\":7073:7087  Voter[] memory */\n      0x60\n        /* \"contracts/BusinessConsensus3.sol\":7126:7143  businessProposals */\n      0x00\n        /* \"contracts/BusinessConsensus3.sol\":7144:7154  _messageID */\n      dup7\n      dup7\n        /* \"contracts/BusinessConsensus3.sol\":7126:7155  businessProposals[_messageID] */\n      mload(0x40)\n      tag_174\n      swap3\n      swap2\n      swap1\n      tag_135\n      jump\t// in\n    tag_174:\n      swap1\n      dup2\n      mstore\n      0x20\n      add\n      mload(0x40)\n      dup1\n      swap2\n      sub\n      swap1\n      keccak256\n        /* \"contracts/BusinessConsensus3.sol\":7126:7166  businessProposals[_messageID].expiryDate */\n      0x01\n      add\n      sload\n        /* \"contracts/BusinessConsensus3.sol\":7107:7122  block.timestamp */\n      timestamp\n        /* \"contracts/BusinessConsensus3.sol\":7107:7166  block.timestamp >= businessProposals[_messageID].expiryDate */\n      lt\n      iszero\n        /* \"contracts/BusinessConsensus3.sol\":7099:7203  require(block.timestamp >= businessProposals[_messageID].expiryDate, \"Verdict has not been reached yet\") */\n      tag_175\n      jumpi\n      mload(0x40)\n      0x08c379a000000000000000000000000000000000000000000000000000000000\n      dup2\n      mstore\n      0x04\n      add\n      tag_176\n      swap1\n      tag_177\n      jump\t// in\n    tag_176:\n      mload(0x40)\n      dup1\n      swap2\n      sub\n      swap1\n      revert\n    tag_175:\n        /* \"contracts/BusinessConsensus3.sol\":7214:7235  Voter[] memory voters */\n      0x00\n        /* \"contracts/BusinessConsensus3.sol\":7238:7244  Voters */\n      0x0b\n        /* \"contracts/BusinessConsensus3.sol\":7245:7255  _messageID */\n      dup8\n      dup8\n        /* \"contracts/BusinessConsensus3.sol\":7238:7256  Voters[_messageID] */\n      mload(0x40)\n      tag_178\n      swap3\n      swap2\n      swap1\n      tag_135\n      jump\t// in\n    tag_178:\n      swap1\n      dup2\n      mstore\n      0x20\n      add\n      mload(0x40)\n      dup1\n      swap2\n      sub\n      swap1\n      keccak256\n        /* \"contracts/BusinessConsensus3.sol\":7214:7256  Voter[] memory voters = Voters[_messageID] */\n      dup1\n      sload\n      dup1\n      0x20\n      mul\n      0x20\n      add\n      mload(0x40)\n      swap1\n      dup2\n      add\n      0x40\n      mstore\n      dup1\n      swap3\n      swap2\n      swap1\n      dup2\n      dup2\n      mstore\n      0x20\n      add\n      0x00\n      swap1\n    tag_179:\n      dup3\n      dup3\n      lt\n      iszero\n      tag_180\n      jumpi\n      dup4\n      dup3\n      swap1\n      0x00\n      mstore\n      keccak256(0x00, 0x20)\n      add\n      mload(0x40)\n      dup1\n      0x60\n      add\n      0x40\n      mstore\n      swap1\n      dup2\n      0x00\n      dup3\n      add\n      0x00\n      swap1\n      sload\n      swap1\n      0x0100\n      exp\n      swap1\n      div\n      0xff\n      and\n      iszero\n      iszero\n      iszero\n      iszero\n      dup2\n      mstore\n      0x20\n      add\n      0x00\n      dup3\n      add\n      0x01\n      swap1\n      sload\n      swap1\n      0x0100\n      exp\n      swap1\n      div\n      0xff\n      and\n      iszero\n      iszero\n      iszero\n      iszero\n      dup2\n      mstore\n      0x20\n      add\n      0x00\n      dup3\n      add\n      0x02\n      swap1\n      sload\n      swap1\n      0x0100\n      exp\n      swap1\n      div\n      0xffffffffffffffffffffffffffffffffffffffff\n      and\n      0xffffffffffffffffffffffffffffffffffffffff\n      and\n      0xffffffffffffffffffffffffffffffffffffffff\n      and\n      dup2\n      mstore\n      pop\n      pop\n      dup2\n      mstore\n      0x20\n      add\n      swap1\n      0x01\n      add\n      swap1\n      jump(tag_179)\n    tag_180:\n      pop\n      pop\n      pop\n      pop\n      swap1\n      pop\n        /* \"contracts/BusinessConsensus3.sol\":7267:7282  bytes32 verdict */\n      0x00\n        /* \"contracts/BusinessConsensus3.sol\":7285:7298  finalVerdicts */\n      0x07\n        /* \"contracts/BusinessConsensus3.sol\":7299:7309  _messageID */\n      dup9\n      dup9\n        /* \"contracts/BusinessConsensus3.sol\":7285:7310  finalVerdicts[_messageID] */\n      mload(0x40)\n      tag_182\n      swap3\n      swap2\n      swap1\n      tag_135\n      jump\t// in\n    tag_182:\n      swap1\n      dup2\n      mstore\n      0x20\n      add\n      mload(0x40)\n      dup1\n      swap2\n      sub\n      swap1\n      keccak256\n      sload\n        /* \"contracts/BusinessConsensus3.sol\":7267:7310  bytes32 verdict = finalVerdicts[_messageID] */\n      swap1\n      pop\n        /* \"contracts/BusinessConsensus3.sol\":7321:7334  uint256 count */\n      0x00\n        /* \"contracts/BusinessConsensus3.sol\":7337:7354  businessProposals */\n      dup1\n        /* \"contracts/BusinessConsensus3.sol\":7355:7365  _messageID */\n      dup10\n      dup10\n        /* \"contracts/BusinessConsensus3.sol\":7337:7366  businessProposals[_messageID] */\n      mload(0x40)\n      tag_183\n      swap3\n      swap2\n      swap1\n      tag_135\n      jump\t// in\n    tag_183:\n      swap1\n      dup2\n      mstore\n      0x20\n      add\n      mload(0x40)\n      dup1\n      swap2\n      sub\n      swap1\n      keccak256\n        /* \"contracts/BusinessConsensus3.sol\":7337:7376  businessProposals[_messageID].voteCount */\n      0x00\n      add\n      sload\n        /* \"contracts/BusinessConsensus3.sol\":7321:7376  uint256 count = businessProposals[_messageID].voteCount */\n      swap1\n      pop\n        /* \"contracts/BusinessConsensus3.sol\":7395:7402  verdict */\n      dup2\n        /* \"contracts/BusinessConsensus3.sol\":7403:7413  _messageID */\n      dup10\n      dup10\n        /* \"contracts/BusinessConsensus3.sol\":7414:7419  count */\n      dup4\n        /* \"contracts/BusinessConsensus3.sol\":7420:7426  voters */\n      dup7\n        /* \"contracts/BusinessConsensus3.sol\":7387:7427  return (verdict,_messageID,count,voters) */\n      dup4\n      dup4\n      dup1\n      dup1\n      0x1f\n      add\n      0x20\n      dup1\n      swap2\n      div\n      mul\n      0x20\n      add\n      mload(0x40)\n      swap1\n      dup2\n      add\n      0x40\n      mstore\n      dup1\n      swap4\n      swap3\n      swap2\n      swap1\n      dup2\n      dup2\n      mstore\n      0x20\n      add\n      dup4\n      dup4\n      dup1\n      dup3\n      dup5\n      calldatacopy\n      0x00\n      dup2\n      dup5\n      add\n      mstore\n      not(0x1f)\n      0x1f\n      dup3\n      add\n      and\n      swap1\n      pop\n      dup1\n      dup4\n      add\n      swap3\n      pop\n      pop\n      pop\n      pop\n      pop\n      pop\n      pop\n      swap3\n      pop\n      swap1\n      swap2\n      swap3\n      pop\n      swap7\n      pop\n      swap7\n      pop\n      swap7\n      pop\n      swap7\n      pop\n      pop\n      pop\n      pop\n        /* \"contracts/BusinessConsensus3.sol\":6964:7445  function retrieve_bundle(string calldata _messageID) external view returns (bytes32, string memory, uint256, Voter[] memory){\r... */\n      swap3\n      swap6\n      swap2\n      swap5\n      pop\n      swap3\n      pop\n      jump\t// out\n        /* \"contracts/BusinessConsensus3.sol\":3777:4540  function RegisterVoter(address voter,string calldata _messageID) external {\r... */\n    tag_73:\n        /* \"contracts/BusinessConsensus3.sol\":3972:3982  initiators */\n      0x01\n        /* \"contracts/BusinessConsensus3.sol\":3983:3993  _messageID */\n      dup3\n      dup3\n        /* \"contracts/BusinessConsensus3.sol\":3972:3994  initiators[_messageID] */\n      mload(0x40)\n      tag_185\n      swap3\n      swap2\n      swap1\n      tag_135\n      jump\t// in\n    tag_185:\n      swap1\n      dup2\n      mstore\n      0x20\n      add\n      mload(0x40)\n      dup1\n      swap2\n      sub\n      swap1\n      keccak256\n      0x00\n      swap1\n      sload\n      swap1\n      0x0100\n      exp\n      swap1\n      div\n      0xffffffffffffffffffffffffffffffffffffffff\n      and\n        /* \"contracts/BusinessConsensus3.sol\":3958:3994  msg.sender == initiators[_messageID] */\n      0xffffffffffffffffffffffffffffffffffffffff\n      and\n        /* \"contracts/BusinessConsensus3.sol\":3958:3968  msg.sender */\n      caller\n        /* \"contracts/BusinessConsensus3.sol\":3958:3994  msg.sender == initiators[_messageID] */\n      0xffffffffffffffffffffffffffffffffffffffff\n      and\n      eq\n        /* \"contracts/BusinessConsensus3.sol\":3936:4062  require(\r... */\n      tag_186\n      jumpi\n      mload(0x40)\n      0x08c379a000000000000000000000000000000000000000000000000000000000\n      dup2\n      mstore\n      0x04\n      add\n      tag_187\n      swap1\n      tag_188\n      jump\t// in\n    tag_187:\n      mload(0x40)\n      dup1\n      swap2\n      sub\n      swap1\n      revert\n    tag_186:\n        /* \"contracts/BusinessConsensus3.sol\":4090:4100  initiators */\n      0x01\n        /* \"contracts/BusinessConsensus3.sol\":4101:4111  _messageID */\n      dup3\n      dup3\n        /* \"contracts/BusinessConsensus3.sol\":4090:4112  initiators[_messageID] */\n      mload(0x40)\n      tag_189\n      swap3\n      swap2\n      swap1\n      tag_135\n      jump\t// in\n    tag_189:\n      swap1\n      dup2\n      mstore\n      0x20\n      add\n      mload(0x40)\n      dup1\n      swap2\n      sub\n      swap1\n      keccak256\n      0x00\n      swap1\n      sload\n      swap1\n      0x0100\n      exp\n      swap1\n      div\n      0xffffffffffffffffffffffffffffffffffffffff\n      and\n        /* \"contracts/BusinessConsensus3.sol\":4081:4112  voter != initiators[_messageID] */\n      0xffffffffffffffffffffffffffffffffffffffff\n      and\n        /* \"contracts/BusinessConsensus3.sol\":4081:4086  voter */\n      dup4\n        /* \"contracts/BusinessConsensus3.sol\":4081:4112  voter != initiators[_messageID] */\n      0xffffffffffffffffffffffffffffffffffffffff\n      and\n      eq\n      iszero\n        /* \"contracts/BusinessConsensus3.sol\":4073:4138  require(voter != initiators[_messageID], \"Initiator can't vote!\") */\n      tag_190\n      jumpi\n      mload(0x40)\n      0x08c379a000000000000000000000000000000000000000000000000000000000\n      dup2\n      mstore\n      0x04\n      add\n      tag_191\n      swap1\n      tag_192\n      jump\t// in\n    tag_191:\n      mload(0x40)\n      dup1\n      swap2\n      sub\n      swap1\n      revert\n    tag_190:\n        /* \"contracts/BusinessConsensus3.sol\":4210:4211  0 */\n      0x00\n        /* \"contracts/BusinessConsensus3.sol\":4159:4212  voter_maps[_messageID][voter].recipient == address(0) */\n      0xffffffffffffffffffffffffffffffffffffffff\n      and\n        /* \"contracts/BusinessConsensus3.sol\":4159:4169  voter_maps */\n      0x0a\n        /* \"contracts/BusinessConsensus3.sol\":4170:4180  _messageID */\n      dup4\n      dup4\n        /* \"contracts/BusinessConsensus3.sol\":4159:4181  voter_maps[_messageID] */\n      mload(0x40)\n      tag_193\n      swap3\n      swap2\n      swap1\n      tag_135\n      jump\t// in\n    tag_193:\n      swap1\n      dup2\n      mstore\n      0x20\n      add\n      mload(0x40)\n      dup1\n      swap2\n      sub\n      swap1\n      keccak256\n        /* \"contracts/BusinessConsensus3.sol\":4159:4188  voter_maps[_messageID][voter] */\n      0x00\n        /* \"contracts/BusinessConsensus3.sol\":4182:4187  voter */\n      dup6\n        /* \"contracts/BusinessConsensus3.sol\":4159:4188  voter_maps[_messageID][voter] */\n      0xffffffffffffffffffffffffffffffffffffffff\n      and\n      0xffffffffffffffffffffffffffffffffffffffff\n      and\n      dup2\n      mstore\n      0x20\n      add\n      swap1\n      dup2\n      mstore\n      0x20\n      add\n      0x00\n      keccak256\n        /* \"contracts/BusinessConsensus3.sol\":4159:4198  voter_maps[_messageID][voter].recipient */\n      0x00\n      add\n      0x02\n      swap1\n      sload\n      swap1\n      0x0100\n      exp\n      swap1\n      div\n      0xffffffffffffffffffffffffffffffffffffffff\n      and\n        /* \"contracts/BusinessConsensus3.sol\":4159:4212  voter_maps[_messageID][voter].recipient == address(0) */\n      0xffffffffffffffffffffffffffffffffffffffff\n      and\n      eq\n        /* \"contracts/BusinessConsensus3.sol\":4151:4248  require(voter_maps[_messageID][voter].recipient == address(0), \"Recipient is already registered\") */\n      tag_194\n      jumpi\n      mload(0x40)\n      0x08c379a000000000000000000000000000000000000000000000000000000000\n      dup2\n      mstore\n      0x04\n      add\n      tag_195\n      swap1\n      tag_196\n      jump\t// in\n    tag_195:\n      mload(0x40)\n      dup1\n      swap2\n      sub\n      swap1\n      revert\n    tag_194:\n        /* \"contracts/BusinessConsensus3.sol\":4287:4304  businessProposals */\n      0x00\n        /* \"contracts/BusinessConsensus3.sol\":4305:4315  _messageID */\n      dup3\n      dup3\n        /* \"contracts/BusinessConsensus3.sol\":4287:4316  businessProposals[_messageID] */\n      mload(0x40)\n      tag_197\n      swap3\n      swap2\n      swap1\n      tag_135\n      jump\t// in\n    tag_197:\n      swap1\n      dup2\n      mstore\n      0x20\n      add\n      mload(0x40)\n      dup1\n      swap2\n      sub\n      swap1\n      keccak256\n        /* \"contracts/BusinessConsensus3.sol\":4287:4327  businessProposals[_messageID].expiryDate */\n      0x01\n      add\n      sload\n        /* \"contracts/BusinessConsensus3.sol\":4269:4284  block.timestamp */\n      timestamp\n        /* \"contracts/BusinessConsensus3.sol\":4269:4327  block.timestamp < businessProposals[_messageID].expiryDate */\n      lt\n        /* \"contracts/BusinessConsensus3.sol\":4261:4368  require(block.timestamp < businessProposals[_messageID].expiryDate, \"Proposal has reached its expiry date\") */\n      tag_198\n      jumpi\n      mload(0x40)\n      0x08c379a000000000000000000000000000000000000000000000000000000000\n      dup2\n      mstore\n      0x04\n      add\n      tag_199\n      swap1\n      tag_200\n      jump\t// in\n    tag_199:\n      mload(0x40)\n      dup1\n      swap2\n      sub\n      swap1\n      revert\n    tag_198:\n        /* \"contracts/BusinessConsensus3.sol\":4381:4395  Voter memory x */\n      0x00\n        /* \"contracts/BusinessConsensus3.sol\":4398:4449  Voter({voted: false,recipient: voter, vote: false}) */\n      mload(0x40)\n      dup1\n      0x60\n      add\n      0x40\n      mstore\n      dup1\n        /* \"contracts/BusinessConsensus3.sol\":4412:4417  false */\n      0x00\n        /* \"contracts/BusinessConsensus3.sol\":4398:4449  Voter({voted: false,recipient: voter, vote: false}) */\n      iszero\n      iszero\n      dup2\n      mstore\n      0x20\n      add\n        /* \"contracts/BusinessConsensus3.sol\":4442:4447  false */\n      0x00\n        /* \"contracts/BusinessConsensus3.sol\":4398:4449  Voter({voted: false,recipient: voter, vote: false}) */\n      iszero\n      iszero\n      dup2\n      mstore\n      0x20\n      add\n        /* \"contracts/BusinessConsensus3.sol\":4429:4434  voter */\n      dup6\n        /* \"contracts/BusinessConsensus3.sol\":4398:4449  Voter({voted: false,recipient: voter, vote: false}) */\n      0xffffffffffffffffffffffffffffffffffffffff\n      and\n      dup2\n      mstore\n      pop\n        /* \"contracts/BusinessConsensus3.sol\":4381:4449  Voter memory x = Voter({voted: false,recipient: voter, vote: false}) */\n      swap1\n      pop\n        /* \"contracts/BusinessConsensus3.sol\":4492:4493  x */\n      dup1\n        /* \"contracts/BusinessConsensus3.sol\":4460:4470  voter_maps */\n      0x0a\n        /* \"contracts/BusinessConsensus3.sol\":4471:4481  _messageID */\n      dup5\n      dup5\n        /* \"contracts/BusinessConsensus3.sol\":4460:4482  voter_maps[_messageID] */\n      mload(0x40)\n      tag_201\n      swap3\n      swap2\n      swap1\n      tag_135\n      jump\t// in\n    tag_201:\n      swap1\n      dup2\n      mstore\n      0x20\n      add\n      mload(0x40)\n      dup1\n      swap2\n      sub\n      swap1\n      keccak256\n        /* \"contracts/BusinessConsensus3.sol\":4460:4489  voter_maps[_messageID][voter] */\n      0x00\n        /* \"contracts/BusinessConsensus3.sol\":4483:4488  voter */\n      dup7\n        /* \"contracts/BusinessConsensus3.sol\":4460:4489  voter_maps[_messageID][voter] */\n      0xffffffffffffffffffffffffffffffffffffffff\n      and\n      0xffffffffffffffffffffffffffffffffffffffff\n      and\n      dup2\n      mstore\n      0x20\n      add\n      swap1\n      dup2\n      mstore\n      0x20\n      add\n      0x00\n      keccak256\n        /* \"contracts/BusinessConsensus3.sol\":4460:4493  voter_maps[_messageID][voter] = x */\n      0x00\n      dup3\n      add\n      mload\n      dup2\n      0x00\n      add\n      exp(0x0100, 0x00)\n      dup2\n      sload\n      dup2\n      0xff\n      mul\n      not\n      and\n      swap1\n      dup4\n      iszero\n      iszero\n      mul\n      or\n      swap1\n      sstore\n      pop\n      0x20\n      dup3\n      add\n      mload\n      dup2\n      0x00\n      add\n      exp(0x0100, 0x01)\n      dup2\n      sload\n      dup2\n      0xff\n      mul\n      not\n      and\n      swap1\n      dup4\n      iszero\n      iszero\n      mul\n      or\n      swap1\n      sstore\n      pop\n      0x40\n      dup3\n      add\n      mload\n      dup2\n      0x00\n      add\n      exp(0x0100, 0x02)\n      dup2\n      sload\n      dup2\n      0xffffffffffffffffffffffffffffffffffffffff\n      mul\n      not\n      and\n      swap1\n      dup4\n      0xffffffffffffffffffffffffffffffffffffffff\n      and\n      mul\n      or\n      swap1\n      sstore\n      pop\n      swap1\n      pop\n      pop\n        /* \"contracts/BusinessConsensus3.sol\":4504:4508  keys */\n      0x0c\n        /* \"contracts/BusinessConsensus3.sol\":4509:4519  _messageID */\n      dup4\n      dup4\n        /* \"contracts/BusinessConsensus3.sol\":4504:4520  keys[_messageID] */\n      mload(0x40)\n      tag_202\n      swap3\n      swap2\n      swap1\n      tag_135\n      jump\t// in\n    tag_202:\n      swap1\n      dup2\n      mstore\n      0x20\n      add\n      mload(0x40)\n      dup1\n      swap2\n      sub\n      swap1\n      keccak256\n        /* \"contracts/BusinessConsensus3.sol\":4526:4531  voter */\n      dup5\n        /* \"contracts/BusinessConsensus3.sol\":4504:4532  keys[_messageID].push(voter) */\n      swap1\n      dup1\n      0x01\n      dup2\n      sload\n      add\n      dup1\n      dup3\n      sstore\n      dup1\n      swap2\n      pop\n      pop\n      0x01\n      swap1\n      sub\n      swap1\n      0x00\n      mstore\n      keccak256(0x00, 0x20)\n      add\n      0x00\n      swap1\n      swap2\n      swap1\n      swap2\n      swap1\n      swap2\n      0x0100\n      exp\n      dup2\n      sload\n      dup2\n      0xffffffffffffffffffffffffffffffffffffffff\n      mul\n      not\n      and\n      swap1\n      dup4\n      0xffffffffffffffffffffffffffffffffffffffff\n      and\n      mul\n      or\n      swap1\n      sstore\n      pop\n        /* \"contracts/BusinessConsensus3.sol\":3851:4540  {\r... */\n      pop\n        /* \"contracts/BusinessConsensus3.sol\":3777:4540  function RegisterVoter(address voter,string calldata _messageID) external {\r... */\n      pop\n      pop\n      pop\n      jump\t// out\n        /* \"contracts/BusinessConsensus3.sol\":1295:2522  function createContract(string memory _messageID, uint256 expiry, uint256 requiredPercentage,bytes32 _contents,string memory subject,string memory _messageDate) external{\r... */\n    tag_77:\n        /* \"contracts/BusinessConsensus3.sol\":1602:1603  0 */\n      0x00\n        /* \"contracts/BusinessConsensus3.sol\":1568:1604  initiators[_messageID] == address(0) */\n      0xffffffffffffffffffffffffffffffffffffffff\n      and\n        /* \"contracts/BusinessConsensus3.sol\":1568:1578  initiators */\n      0x01\n        /* \"contracts/BusinessConsensus3.sol\":1579:1589  _messageID */\n      dup8\n        /* \"contracts/BusinessConsensus3.sol\":1568:1590  initiators[_messageID] */\n      mload(0x40)\n      tag_205\n      swap2\n      swap1\n      tag_206\n      jump\t// in\n    tag_205:\n      swap1\n      dup2\n      mstore\n      0x20\n      add\n      mload(0x40)\n      dup1\n      swap2\n      sub\n      swap1\n      keccak256\n      0x00\n      swap1\n      sload\n      swap1\n      0x0100\n      exp\n      swap1\n      div\n      0xffffffffffffffffffffffffffffffffffffffff\n      and\n        /* \"contracts/BusinessConsensus3.sol\":1568:1604  initiators[_messageID] == address(0) */\n      0xffffffffffffffffffffffffffffffffffffffff\n      and\n      eq\n        /* \"contracts/BusinessConsensus3.sol\":1560:1633  require(initiators[_messageID] == address(0),\"Proposal already created!\") */\n      tag_207\n      jumpi\n      mload(0x40)\n      0x08c379a000000000000000000000000000000000000000000000000000000000\n      dup2\n      mstore\n      0x04\n      add\n      tag_208\n      swap1\n      tag_209\n      jump\t// in\n    tag_208:\n      mload(0x40)\n      dup1\n      swap2\n      sub\n      swap1\n      revert\n    tag_207:\n        /* \"contracts/BusinessConsensus3.sol\":1644:1668  Proposal memory proposal */\n      0x00\n        /* \"contracts/BusinessConsensus3.sol\":1671:1842  Proposal({\r... */\n      mload(0x40)\n      dup1\n      0x60\n      add\n      0x40\n      mstore\n      dup1\n        /* \"contracts/BusinessConsensus3.sol\":1710:1711  0 */\n      0x00\n        /* \"contracts/BusinessConsensus3.sol\":1671:1842  Proposal({\r... */\n      dup2\n      mstore\n      0x20\n      add\n        /* \"contracts/BusinessConsensus3.sol\":1761:1767  expiry */\n      dup8\n        /* \"contracts/BusinessConsensus3.sol\":1743:1758  block.timestamp */\n      timestamp\n        /* \"contracts/BusinessConsensus3.sol\":1743:1767  block.timestamp + expiry */\n      tag_210\n      swap2\n      swap1\n      tag_152\n      jump\t// in\n    tag_210:\n        /* \"contracts/BusinessConsensus3.sol\":1671:1842  Proposal({\r... */\n      dup2\n      mstore\n      0x20\n      add\n        /* \"contracts/BusinessConsensus3.sol\":1808:1826  requiredPercentage */\n      dup7\n        /* \"contracts/BusinessConsensus3.sol\":1671:1842  Proposal({\r... */\n      dup2\n      mstore\n      pop\n        /* \"contracts/BusinessConsensus3.sol\":1644:1842  Proposal memory proposal = Proposal({\r... */\n      swap1\n      pop\n        /* \"contracts/BusinessConsensus3.sol\":1872:1882  _messageID */\n      dup7\n        /* \"contracts/BusinessConsensus3.sol\":1857:1860  IDs */\n      0x02\n        /* \"contracts/BusinessConsensus3.sol\":1861:1868  subject */\n      dup5\n        /* \"contracts/BusinessConsensus3.sol\":1857:1869  IDs[subject] */\n      mload(0x40)\n      tag_211\n      swap2\n      swap1\n      tag_206\n      jump\t// in\n    tag_211:\n      swap1\n      dup2\n      mstore\n      0x20\n      add\n      mload(0x40)\n      dup1\n      swap2\n      sub\n      swap1\n      keccak256\n        /* \"contracts/BusinessConsensus3.sol\":1857:1882  IDs[subject] = _messageID */\n      swap1\n      dup1\n      mload\n      swap1\n      0x20\n      add\n      swap1\n      tag_212\n      swap3\n      swap2\n      swap1\n      tag_213\n      jump\t// in\n    tag_212:\n      pop\n        /* \"contracts/BusinessConsensus3.sol\":1922:1927  false */\n      0x00\n        /* \"contracts/BusinessConsensus3.sol\":1897:1907  isCompiled */\n      0x08\n        /* \"contracts/BusinessConsensus3.sol\":1908:1918  _messageID */\n      dup9\n        /* \"contracts/BusinessConsensus3.sol\":1897:1919  isCompiled[_messageID] */\n      mload(0x40)\n      tag_214\n      swap2\n      swap1\n      tag_206\n      jump\t// in\n    tag_214:\n      swap1\n      dup2\n      mstore\n      0x20\n      add\n      mload(0x40)\n      dup1\n      swap2\n      sub\n      swap1\n      keccak256\n      0x00\n        /* \"contracts/BusinessConsensus3.sol\":1897:1927  isCompiled[_messageID] = false */\n      0x0100\n      exp\n      dup2\n      sload\n      dup2\n      0xff\n      mul\n      not\n      and\n      swap1\n      dup4\n      iszero\n      iszero\n      mul\n      or\n      swap1\n      sstore\n      pop\n        /* \"contracts/BusinessConsensus3.sol\":1942:1980  finalVerdicts[_messageID] = \"Rejected\" */\n      0x52656a6563746564000000000000000000000000000000000000000000000000\n        /* \"contracts/BusinessConsensus3.sol\":1942:1955  finalVerdicts */\n      0x07\n        /* \"contracts/BusinessConsensus3.sol\":1956:1966  _messageID */\n      dup9\n        /* \"contracts/BusinessConsensus3.sol\":1942:1967  finalVerdicts[_messageID] */\n      mload(0x40)\n      tag_215\n      swap2\n      swap1\n      tag_206\n      jump\t// in\n    tag_215:\n      swap1\n      dup2\n      mstore\n      0x20\n      add\n      mload(0x40)\n      dup1\n      swap2\n      sub\n      swap1\n      keccak256\n        /* \"contracts/BusinessConsensus3.sol\":1942:1980  finalVerdicts[_messageID] = \"Rejected\" */\n      dup2\n      swap1\n      sstore\n      pop\n        /* \"contracts/BusinessConsensus3.sol\":2023:2029  expiry */\n      dup6\n        /* \"contracts/BusinessConsensus3.sol\":1995:2008  expiryLengths */\n      0x03\n        /* \"contracts/BusinessConsensus3.sol\":2009:2019  _messageID */\n      dup9\n        /* \"contracts/BusinessConsensus3.sol\":1995:2020  expiryLengths[_messageID] */\n      mload(0x40)\n      tag_216\n      swap2\n      swap1\n      tag_206\n      jump\t// in\n    tag_216:\n      swap1\n      dup2\n      mstore\n      0x20\n      add\n      mload(0x40)\n      dup1\n      swap2\n      sub\n      swap1\n      keccak256\n        /* \"contracts/BusinessConsensus3.sol\":1995:2029  expiryLengths[_messageID] = expiry */\n      dup2\n      swap1\n      sstore\n      pop\n        /* \"contracts/BusinessConsensus3.sol\":2069:2075  expiry */\n      dup6\n        /* \"contracts/BusinessConsensus3.sol\":2044:2057  expiryLengths */\n      0x03\n        /* \"contracts/BusinessConsensus3.sol\":2058:2065  subject */\n      dup5\n        /* \"contracts/BusinessConsensus3.sol\":2044:2066  expiryLengths[subject] */\n      mload(0x40)\n      tag_217\n      swap2\n      swap1\n      tag_206\n      jump\t// in\n    tag_217:\n      swap1\n      dup2\n      mstore\n      0x20\n      add\n      mload(0x40)\n      dup1\n      swap2\n      sub\n      swap1\n      keccak256\n        /* \"contracts/BusinessConsensus3.sol\":2044:2075  expiryLengths[subject] = expiry */\n      dup2\n      swap1\n      sstore\n      pop\n        /* \"contracts/BusinessConsensus3.sol\":2113:2122  _contents */\n      dup4\n        /* \"contracts/BusinessConsensus3.sol\":2090:2098  contents */\n      0x04\n        /* \"contracts/BusinessConsensus3.sol\":2099:2109  _messageID */\n      dup9\n        /* \"contracts/BusinessConsensus3.sol\":2090:2110  contents[_messageID] */\n      mload(0x40)\n      tag_218\n      swap2\n      swap1\n      tag_206\n      jump\t// in\n    tag_218:\n      swap1\n      dup2\n      mstore\n      0x20\n      add\n      mload(0x40)\n      dup1\n      swap2\n      sub\n      swap1\n      keccak256\n        /* \"contracts/BusinessConsensus3.sol\":2090:2122  contents[_messageID] = _contents */\n      dup2\n      swap1\n      sstore\n      pop\n        /* \"contracts/BusinessConsensus3.sol\":2157:2166  _contents */\n      dup4\n        /* \"contracts/BusinessConsensus3.sol\":2137:2145  contents */\n      0x04\n        /* \"contracts/BusinessConsensus3.sol\":2146:2153  subject */\n      dup5\n        /* \"contracts/BusinessConsensus3.sol\":2137:2154  contents[subject] */\n      mload(0x40)\n      tag_219\n      swap2\n      swap1\n      tag_206\n      jump\t// in\n    tag_219:\n      swap1\n      dup2\n      mstore\n      0x20\n      add\n      mload(0x40)\n      dup1\n      swap2\n      sub\n      swap1\n      keccak256\n        /* \"contracts/BusinessConsensus3.sol\":2137:2166  contents[subject] = _contents */\n      dup2\n      swap1\n      sstore\n      pop\n        /* \"contracts/BusinessConsensus3.sol\":2204:2211  subject */\n      dup3\n        /* \"contracts/BusinessConsensus3.sol\":2181:2189  subjects */\n      0x09\n        /* \"contracts/BusinessConsensus3.sol\":2190:2200  _messageID */\n      dup9\n        /* \"contracts/BusinessConsensus3.sol\":2181:2201  subjects[_messageID] */\n      mload(0x40)\n      tag_220\n      swap2\n      swap1\n      tag_206\n      jump\t// in\n    tag_220:\n      swap1\n      dup2\n      mstore\n      0x20\n      add\n      mload(0x40)\n      dup1\n      swap2\n      sub\n      swap1\n      keccak256\n        /* \"contracts/BusinessConsensus3.sol\":2181:2211  subjects[_messageID] = subject */\n      swap1\n      dup1\n      mload\n      swap1\n      0x20\n      add\n      swap1\n      tag_221\n      swap3\n      swap2\n      swap1\n      tag_213\n      jump\t// in\n    tag_221:\n      pop\n        /* \"contracts/BusinessConsensus3.sol\":2253:2265  _messageDate */\n      dup2\n        /* \"contracts/BusinessConsensus3.sol\":2226:2238  messageDates */\n      0x06\n        /* \"contracts/BusinessConsensus3.sol\":2239:2249  _messageID */\n      dup9\n        /* \"contracts/BusinessConsensus3.sol\":2226:2250  messageDates[_messageID] */\n      mload(0x40)\n      tag_222\n      swap2\n      swap1\n      tag_206\n      jump\t// in\n    tag_222:\n      swap1\n      dup2\n      mstore\n      0x20\n      add\n      mload(0x40)\n      dup1\n      swap2\n      sub\n      swap1\n      keccak256\n        /* \"contracts/BusinessConsensus3.sol\":2226:2265  messageDates[_messageID] = _messageDate */\n      swap1\n      dup1\n      mload\n      swap1\n      0x20\n      add\n      swap1\n      tag_223\n      swap3\n      swap2\n      swap1\n      tag_213\n      jump\t// in\n    tag_223:\n      pop\n        /* \"contracts/BusinessConsensus3.sol\":2307:2308  0 */\n      0x00\n        /* \"contracts/BusinessConsensus3.sol\":2280:2292  numApprovals */\n      0x05\n        /* \"contracts/BusinessConsensus3.sol\":2293:2303  _messageID */\n      dup9\n        /* \"contracts/BusinessConsensus3.sol\":2280:2304  numApprovals[_messageID] */\n      mload(0x40)\n      tag_224\n      swap2\n      swap1\n      tag_206\n      jump\t// in\n    tag_224:\n      swap1\n      dup2\n      mstore\n      0x20\n      add\n      mload(0x40)\n      dup1\n      swap2\n      sub\n      swap1\n      keccak256\n        /* \"contracts/BusinessConsensus3.sol\":2280:2308  numApprovals[_messageID] = 0 */\n      dup2\n      swap1\n      sstore\n      pop\n        /* \"contracts/BusinessConsensus3.sol\":2348:2358  msg.sender */\n      caller\n        /* \"contracts/BusinessConsensus3.sol\":2323:2333  initiators */\n      0x01\n        /* \"contracts/BusinessConsensus3.sol\":2334:2344  _messageID */\n      dup9\n        /* \"contracts/BusinessConsensus3.sol\":2323:2345  initiators[_messageID] */\n      mload(0x40)\n      tag_225\n      swap2\n      swap1\n      tag_206\n      jump\t// in\n    tag_225:\n      swap1\n      dup2\n      mstore\n      0x20\n      add\n      mload(0x40)\n      dup1\n      swap2\n      sub\n      swap1\n      keccak256\n      0x00\n        /* \"contracts/BusinessConsensus3.sol\":2323:2358  initiators[_messageID] = msg.sender */\n      0x0100\n      exp\n      dup2\n      sload\n      dup2\n      0xffffffffffffffffffffffffffffffffffffffff\n      mul\n      not\n      and\n      swap1\n      dup4\n      0xffffffffffffffffffffffffffffffffffffffff\n      and\n      mul\n      or\n      swap1\n      sstore\n      pop\n        /* \"contracts/BusinessConsensus3.sol\":2395:2405  msg.sender */\n      caller\n        /* \"contracts/BusinessConsensus3.sol\":2373:2383  initiators */\n      0x01\n        /* \"contracts/BusinessConsensus3.sol\":2384:2391  subject */\n      dup5\n        /* \"contracts/BusinessConsensus3.sol\":2373:2392  initiators[subject] */\n      mload(0x40)\n      tag_226\n      swap2\n      swap1\n      tag_206\n      jump\t// in\n    tag_226:\n      swap1\n      dup2\n      mstore\n      0x20\n      add\n      mload(0x40)\n      dup1\n      swap2\n      sub\n      swap1\n      keccak256\n      0x00\n        /* \"contracts/BusinessConsensus3.sol\":2373:2405  initiators[subject] = msg.sender */\n      0x0100\n      exp\n      dup2\n      sload\n      dup2\n      0xffffffffffffffffffffffffffffffffffffffff\n      mul\n      not\n      and\n      swap1\n      dup4\n      0xffffffffffffffffffffffffffffffffffffffff\n      and\n      mul\n      or\n      swap1\n      sstore\n      pop\n        /* \"contracts/BusinessConsensus3.sol\":2452:2460  proposal */\n      dup1\n        /* \"contracts/BusinessConsensus3.sol\":2420:2437  businessProposals */\n      0x00\n        /* \"contracts/BusinessConsensus3.sol\":2438:2448  _messageID */\n      dup9\n        /* \"contracts/BusinessConsensus3.sol\":2420:2449  businessProposals[_messageID] */\n      mload(0x40)\n      tag_227\n      swap2\n      swap1\n      tag_206\n      jump\t// in\n    tag_227:\n      swap1\n      dup2\n      mstore\n      0x20\n      add\n      mload(0x40)\n      dup1\n      swap2\n      sub\n      swap1\n      keccak256\n        /* \"contracts/BusinessConsensus3.sol\":2420:2460  businessProposals[_messageID] = proposal */\n      0x00\n      dup3\n      add\n      mload\n      dup2\n      0x00\n      add\n      sstore\n      0x20\n      dup3\n      add\n      mload\n      dup2\n      0x01\n      add\n      sstore\n      0x40\n      dup3\n      add\n      mload\n      dup2\n      0x02\n      add\n      sstore\n      swap1\n      pop\n      pop\n        /* \"contracts/BusinessConsensus3.sol\":2504:2512  proposal */\n      dup1\n        /* \"contracts/BusinessConsensus3.sol\":2475:2492  businessProposals */\n      0x00\n        /* \"contracts/BusinessConsensus3.sol\":2493:2500  subject */\n      dup5\n        /* \"contracts/BusinessConsensus3.sol\":2475:2501  businessProposals[subject] */\n      mload(0x40)\n      tag_228\n      swap2\n      swap1\n      tag_206\n      jump\t// in\n    tag_228:\n      swap1\n      dup2\n      mstore\n      0x20\n      add\n      mload(0x40)\n      dup1\n      swap2\n      sub\n      swap1\n      keccak256\n        /* \"contracts/BusinessConsensus3.sol\":2475:2512  businessProposals[subject] = proposal */\n      0x00\n      dup3\n      add\n      mload\n      dup2\n      0x00\n      add\n      sstore\n      0x20\n      dup3\n      add\n      mload\n      dup2\n      0x01\n      add\n      sstore\n      0x40\n      dup3\n      add\n      mload\n      dup2\n      0x02\n      add\n      sstore\n      swap1\n      pop\n      pop\n        /* \"contracts/BusinessConsensus3.sol\":1464:2522  {\r... */\n      pop\n        /* \"contracts/BusinessConsensus3.sol\":1295:2522  function createContract(string memory _messageID, uint256 expiry, uint256 requiredPercentage,bytes32 _contents,string memory subject,string memory _messageDate) external{\r... */\n      pop\n      pop\n      pop\n      pop\n      pop\n      pop\n      jump\t// out\n        /* \"contracts/BusinessConsensus3.sol\":5985:6956  function Consensus(string calldata _messageID) external {\r... */\n    tag_80:\n        /* \"contracts/BusinessConsensus3.sol\":6079:6096  businessProposals */\n      0x00\n        /* \"contracts/BusinessConsensus3.sol\":6097:6107  _messageID */\n      dup3\n      dup3\n        /* \"contracts/BusinessConsensus3.sol\":6079:6108  businessProposals[_messageID] */\n      mload(0x40)\n      tag_230\n      swap3\n      swap2\n      swap1\n      tag_135\n      jump\t// in\n    tag_230:\n      swap1\n      dup2\n      mstore\n      0x20\n      add\n      mload(0x40)\n      dup1\n      swap2\n      sub\n      swap1\n      keccak256\n        /* \"contracts/BusinessConsensus3.sol\":6079:6119  businessProposals[_messageID].expiryDate */\n      0x01\n      add\n      sload\n        /* \"contracts/BusinessConsensus3.sol\":6060:6075  block.timestamp */\n      timestamp\n        /* \"contracts/BusinessConsensus3.sol\":6060:6119  block.timestamp >= businessProposals[_messageID].expiryDate */\n      lt\n      iszero\n        /* \"contracts/BusinessConsensus3.sol\":6052:6156  require(block.timestamp >= businessProposals[_messageID].expiryDate, \"Verdict has not been reached yet\") */\n      tag_231\n      jumpi\n      mload(0x40)\n      0x08c379a000000000000000000000000000000000000000000000000000000000\n      dup2\n      mstore\n      0x04\n      add\n      tag_232\n      swap1\n      tag_177\n      jump\t// in\n    tag_232:\n      mload(0x40)\n      dup1\n      swap2\n      sub\n      swap1\n      revert\n    tag_231:\n        /* \"contracts/BusinessConsensus3.sol\":6201:6206  false */\n      0x00\n        /* \"contracts/BusinessConsensus3.sol\":6175:6206  isCompiled[_messageID] == false */\n      iszero\n      iszero\n        /* \"contracts/BusinessConsensus3.sol\":6175:6185  isCompiled */\n      0x08\n        /* \"contracts/BusinessConsensus3.sol\":6186:6196  _messageID */\n      dup4\n      dup4\n        /* \"contracts/BusinessConsensus3.sol\":6175:6197  isCompiled[_messageID] */\n      mload(0x40)\n      tag_233\n      swap3\n      swap2\n      swap1\n      tag_135\n      jump\t// in\n    tag_233:\n      swap1\n      dup2\n      mstore\n      0x20\n      add\n      mload(0x40)\n      dup1\n      swap2\n      sub\n      swap1\n      keccak256\n      0x00\n      swap1\n      sload\n      swap1\n      0x0100\n      exp\n      swap1\n      div\n      0xff\n      and\n        /* \"contracts/BusinessConsensus3.sol\":6175:6206  isCompiled[_messageID] == false */\n      iszero\n      iszero\n      eq\n        /* \"contracts/BusinessConsensus3.sol\":6167:6248  require(isCompiled[_messageID] == false, \"Consensus has already been calculated\") */\n      tag_234\n      jumpi\n      mload(0x40)\n      0x08c379a000000000000000000000000000000000000000000000000000000000\n      dup2\n      mstore\n      0x04\n      add\n      tag_235\n      swap1\n      tag_236\n      jump\t// in\n    tag_235:\n      mload(0x40)\n      dup1\n      swap2\n      sub\n      swap1\n      revert\n    tag_234:\n        /* \"contracts/BusinessConsensus3.sol\":6281:6291  initiators */\n      0x01\n        /* \"contracts/BusinessConsensus3.sol\":6292:6302  _messageID */\n      dup3\n      dup3\n        /* \"contracts/BusinessConsensus3.sol\":6281:6303  initiators[_messageID] */\n      mload(0x40)\n      tag_237\n      swap3\n      swap2\n      swap1\n      tag_135\n      jump\t// in\n    tag_237:\n      swap1\n      dup2\n      mstore\n      0x20\n      add\n      mload(0x40)\n      dup1\n      swap2\n      sub\n      swap1\n      keccak256\n      0x00\n      swap1\n      sload\n      swap1\n      0x0100\n      exp\n      swap1\n      div\n      0xffffffffffffffffffffffffffffffffffffffff\n      and\n        /* \"contracts/BusinessConsensus3.sol\":6267:6303  msg.sender == initiators[_messageID] */\n      0xffffffffffffffffffffffffffffffffffffffff\n      and\n        /* \"contracts/BusinessConsensus3.sol\":6267:6277  msg.sender */\n      caller\n        /* \"contracts/BusinessConsensus3.sol\":6267:6303  msg.sender == initiators[_messageID] */\n      0xffffffffffffffffffffffffffffffffffffffff\n      and\n      eq\n        /* \"contracts/BusinessConsensus3.sol\":6267:6367  msg.sender == initiators[_messageID] || voter_maps[_messageID][msg.sender].recipient != address(0x0) */\n      dup1\n      tag_238\n      jumpi\n      pop\n        /* \"contracts/BusinessConsensus3.sol\":6363:6366  0x0 */\n      0x00\n        /* \"contracts/BusinessConsensus3.sol\":6307:6367  voter_maps[_messageID][msg.sender].recipient != address(0x0) */\n      0xffffffffffffffffffffffffffffffffffffffff\n      and\n        /* \"contracts/BusinessConsensus3.sol\":6307:6317  voter_maps */\n      0x0a\n        /* \"contracts/BusinessConsensus3.sol\":6318:6328  _messageID */\n      dup4\n      dup4\n        /* \"contracts/BusinessConsensus3.sol\":6307:6329  voter_maps[_messageID] */\n      mload(0x40)\n      tag_239\n      swap3\n      swap2\n      swap1\n      tag_135\n      jump\t// in\n    tag_239:\n      swap1\n      dup2\n      mstore\n      0x20\n      add\n      mload(0x40)\n      dup1\n      swap2\n      sub\n      swap1\n      keccak256\n        /* \"contracts/BusinessConsensus3.sol\":6307:6341  voter_maps[_messageID][msg.sender] */\n      0x00\n        /* \"contracts/BusinessConsensus3.sol\":6330:6340  msg.sender */\n      caller\n        /* \"contracts/BusinessConsensus3.sol\":6307:6341  voter_maps[_messageID][msg.sender] */\n      0xffffffffffffffffffffffffffffffffffffffff\n      and\n      0xffffffffffffffffffffffffffffffffffffffff\n      and\n      dup2\n      mstore\n      0x20\n      add\n      swap1\n      dup2\n      mstore\n      0x20\n      add\n      0x00\n      keccak256\n        /* \"contracts/BusinessConsensus3.sol\":6307:6351  voter_maps[_messageID][msg.sender].recipient */\n      0x00\n      add\n      0x02\n      swap1\n      sload\n      swap1\n      0x0100\n      exp\n      swap1\n      div\n      0xffffffffffffffffffffffffffffffffffffffff\n      and\n        /* \"contracts/BusinessConsensus3.sol\":6307:6367  voter_maps[_messageID][msg.sender].recipient != address(0x0) */\n      0xffffffffffffffffffffffffffffffffffffffff\n      and\n      eq\n      iszero\n        /* \"contracts/BusinessConsensus3.sol\":6267:6367  msg.sender == initiators[_messageID] || voter_maps[_messageID][msg.sender].recipient != address(0x0) */\n    tag_238:\n        /* \"contracts/BusinessConsensus3.sol\":6259:6410  require(msg.sender == initiators[_messageID] || voter_maps[_messageID][msg.sender].recipient != address(0x0), \"You aren't authorize to compile Bundle\") */\n      tag_240\n      jumpi\n      mload(0x40)\n      0x08c379a000000000000000000000000000000000000000000000000000000000\n      dup2\n      mstore\n      0x04\n      add\n      tag_241\n      swap1\n      tag_242\n      jump\t// in\n    tag_241:\n      mload(0x40)\n      dup1\n      swap2\n      sub\n      swap1\n      revert\n    tag_240:\n        /* \"contracts/BusinessConsensus3.sol\":6421:6450  uint256 AccumulatedPercentage */\n      0x00\n        /* \"contracts/BusinessConsensus3.sol\":6504:6507  100 */\n      0x64\n        /* \"contracts/BusinessConsensus3.sol\":6479:6483  keys */\n      0x0c\n        /* \"contracts/BusinessConsensus3.sol\":6484:6494  _messageID */\n      dup5\n      dup5\n        /* \"contracts/BusinessConsensus3.sol\":6479:6495  keys[_messageID] */\n      mload(0x40)\n      tag_243\n      swap3\n      swap2\n      swap1\n      tag_135\n      jump\t// in\n    tag_243:\n      swap1\n      dup2\n      mstore\n      0x20\n      add\n      mload(0x40)\n      dup1\n      swap2\n      sub\n      swap1\n      keccak256\n        /* \"contracts/BusinessConsensus3.sol\":6479:6502  keys[_messageID].length */\n      dup1\n      sload\n      swap1\n      pop\n        /* \"contracts/BusinessConsensus3.sol\":6454:6466  numApprovals */\n      0x05\n        /* \"contracts/BusinessConsensus3.sol\":6467:6477  _messageID */\n      dup6\n      dup6\n        /* \"contracts/BusinessConsensus3.sol\":6454:6478  numApprovals[_messageID] */\n      mload(0x40)\n      tag_244\n      swap3\n      swap2\n      swap1\n      tag_135\n      jump\t// in\n    tag_244:\n      swap1\n      dup2\n      mstore\n      0x20\n      add\n      mload(0x40)\n      dup1\n      swap2\n      sub\n      swap1\n      keccak256\n      sload\n        /* \"contracts/BusinessConsensus3.sol\":6454:6502  numApprovals[_messageID]/keys[_messageID].length */\n      tag_245\n      swap2\n      swap1\n      tag_246\n      jump\t// in\n    tag_245:\n        /* \"contracts/BusinessConsensus3.sol\":6453:6507  (numApprovals[_messageID]/keys[_messageID].length)*100 */\n      tag_247\n      swap2\n      swap1\n      tag_248\n      jump\t// in\n    tag_247:\n        /* \"contracts/BusinessConsensus3.sol\":6421:6507  uint256 AccumulatedPercentage = (numApprovals[_messageID]/keys[_messageID].length)*100 */\n      swap1\n      pop\n        /* \"contracts/BusinessConsensus3.sol\":6546:6563  businessProposals */\n      0x00\n        /* \"contracts/BusinessConsensus3.sol\":6564:6574  _messageID */\n      dup4\n      dup4\n        /* \"contracts/BusinessConsensus3.sol\":6546:6575  businessProposals[_messageID] */\n      mload(0x40)\n      tag_249\n      swap3\n      swap2\n      swap1\n      tag_135\n      jump\t// in\n    tag_249:\n      swap1\n      dup2\n      mstore\n      0x20\n      add\n      mload(0x40)\n      dup1\n      swap2\n      sub\n      swap1\n      keccak256\n        /* \"contracts/BusinessConsensus3.sol\":6546:6595  businessProposals[_messageID].BusinessRequirement */\n      0x02\n      add\n      sload\n        /* \"contracts/BusinessConsensus3.sol\":6521:6542  AccumulatedPercentage */\n      dup2\n        /* \"contracts/BusinessConsensus3.sol\":6521:6595  AccumulatedPercentage >= businessProposals[_messageID].BusinessRequirement */\n      lt\n        /* \"contracts/BusinessConsensus3.sol\":6518:6661  if(AccumulatedPercentage >= businessProposals[_messageID].BusinessRequirement){\r... */\n      tag_250\n      jumpi\n        /* \"contracts/BusinessConsensus3.sol\":6611:6649  finalVerdicts[_messageID] = \"Accepted\" */\n      0x4163636570746564000000000000000000000000000000000000000000000000\n        /* \"contracts/BusinessConsensus3.sol\":6611:6624  finalVerdicts */\n      0x07\n        /* \"contracts/BusinessConsensus3.sol\":6625:6635  _messageID */\n      dup5\n      dup5\n        /* \"contracts/BusinessConsensus3.sol\":6611:6636  finalVerdicts[_messageID] */\n      mload(0x40)\n      tag_251\n      swap3\n      swap2\n      swap1\n      tag_135\n      jump\t// in\n    tag_251:\n      swap1\n      dup2\n      mstore\n      0x20\n      add\n      mload(0x40)\n      dup1\n      swap2\n      sub\n      swap1\n      keccak256\n        /* \"contracts/BusinessConsensus3.sol\":6611:6649  finalVerdicts[_messageID] = \"Accepted\" */\n      dup2\n      swap1\n      sstore\n      pop\n        /* \"contracts/BusinessConsensus3.sol\":6518:6661  if(AccumulatedPercentage >= businessProposals[_messageID].BusinessRequirement){\r... */\n    tag_250:\n        /* \"contracts/BusinessConsensus3.sol\":6675:6682  uint8 i */\n      0x00\n        /* \"contracts/BusinessConsensus3.sol\":6671:6909  for(uint8 i=0; i< keys[_messageID].length; i++){\r... */\n    tag_252:\n        /* \"contracts/BusinessConsensus3.sol\":6689:6693  keys */\n      0x0c\n        /* \"contracts/BusinessConsensus3.sol\":6694:6704  _messageID */\n      dup5\n      dup5\n        /* \"contracts/BusinessConsensus3.sol\":6689:6705  keys[_messageID] */\n      mload(0x40)\n      tag_255\n      swap3\n      swap2\n      swap1\n      tag_135\n      jump\t// in\n    tag_255:\n      swap1\n      dup2\n      mstore\n      0x20\n      add\n      mload(0x40)\n      dup1\n      swap2\n      sub\n      swap1\n      keccak256\n        /* \"contracts/BusinessConsensus3.sol\":6689:6712  keys[_messageID].length */\n      dup1\n      sload\n      swap1\n      pop\n        /* \"contracts/BusinessConsensus3.sol\":6686:6687  i */\n      dup2\n        /* \"contracts/BusinessConsensus3.sol\":6686:6712  i< keys[_messageID].length */\n      0xff\n      and\n      lt\n        /* \"contracts/BusinessConsensus3.sol\":6671:6909  for(uint8 i=0; i< keys[_messageID].length; i++){\r... */\n      iszero\n      tag_253\n      jumpi\n        /* \"contracts/BusinessConsensus3.sol\":6789:6794  false */\n      0x00\n        /* \"contracts/BusinessConsensus3.sol\":6736:6794  voter_maps[_messageID][keys[_messageID][i]].voted == false */\n      iszero\n      iszero\n        /* \"contracts/BusinessConsensus3.sol\":6736:6746  voter_maps */\n      0x0a\n        /* \"contracts/BusinessConsensus3.sol\":6747:6757  _messageID */\n      dup6\n      dup6\n        /* \"contracts/BusinessConsensus3.sol\":6736:6758  voter_maps[_messageID] */\n      mload(0x40)\n      tag_256\n      swap3\n      swap2\n      swap1\n      tag_135\n      jump\t// in\n    tag_256:\n      swap1\n      dup2\n      mstore\n      0x20\n      add\n      mload(0x40)\n      dup1\n      swap2\n      sub\n      swap1\n      keccak256\n        /* \"contracts/BusinessConsensus3.sol\":6736:6779  voter_maps[_messageID][keys[_messageID][i]] */\n      0x00\n        /* \"contracts/BusinessConsensus3.sol\":6759:6763  keys */\n      0x0c\n        /* \"contracts/BusinessConsensus3.sol\":6764:6774  _messageID */\n      dup8\n      dup8\n        /* \"contracts/BusinessConsensus3.sol\":6759:6775  keys[_messageID] */\n      mload(0x40)\n      tag_257\n      swap3\n      swap2\n      swap1\n      tag_135\n      jump\t// in\n    tag_257:\n      swap1\n      dup2\n      mstore\n      0x20\n      add\n      mload(0x40)\n      dup1\n      swap2\n      sub\n      swap1\n      keccak256\n        /* \"contracts/BusinessConsensus3.sol\":6776:6777  i */\n      dup5\n        /* \"contracts/BusinessConsensus3.sol\":6759:6778  keys[_messageID][i] */\n      0xff\n      and\n      dup2\n      sload\n      dup2\n      lt\n      tag_258\n      jumpi\n      tag_259\n      tag_260\n      jump\t// in\n    tag_259:\n    tag_258:\n      swap1\n      0x00\n      mstore\n      keccak256(0x00, 0x20)\n      add\n      0x00\n      swap1\n      sload\n      swap1\n      0x0100\n      exp\n      swap1\n      div\n      0xffffffffffffffffffffffffffffffffffffffff\n      and\n        /* \"contracts/BusinessConsensus3.sol\":6736:6779  voter_maps[_messageID][keys[_messageID][i]] */\n      0xffffffffffffffffffffffffffffffffffffffff\n      and\n      0xffffffffffffffffffffffffffffffffffffffff\n      and\n      dup2\n      mstore\n      0x20\n      add\n      swap1\n      dup2\n      mstore\n      0x20\n      add\n      0x00\n      keccak256\n        /* \"contracts/BusinessConsensus3.sol\":6736:6785  voter_maps[_messageID][keys[_messageID][i]].voted */\n      0x00\n      add\n      0x00\n      swap1\n      sload\n      swap1\n      0x0100\n      exp\n      swap1\n      div\n      0xff\n      and\n        /* \"contracts/BusinessConsensus3.sol\":6736:6794  voter_maps[_messageID][keys[_messageID][i]].voted == false */\n      iszero\n      iszero\n      eq\n        /* \"contracts/BusinessConsensus3.sol\":6733:6898  if(voter_maps[_messageID][keys[_messageID][i]].voted == false){\r... */\n      iszero\n      tag_262\n      jumpi\n        /* \"contracts/BusinessConsensus3.sol\":6814:6820  Voters */\n      0x0b\n        /* \"contracts/BusinessConsensus3.sol\":6821:6831  _messageID */\n      dup5\n      dup5\n        /* \"contracts/BusinessConsensus3.sol\":6814:6832  Voters[_messageID] */\n      mload(0x40)\n      tag_263\n      swap3\n      swap2\n      swap1\n      tag_135\n      jump\t// in\n    tag_263:\n      swap1\n      dup2\n      mstore\n      0x20\n      add\n      mload(0x40)\n      dup1\n      swap2\n      sub\n      swap1\n      keccak256\n        /* \"contracts/BusinessConsensus3.sol\":6838:6848  voter_maps */\n      0x0a\n        /* \"contracts/BusinessConsensus3.sol\":6849:6859  _messageID */\n      dup6\n      dup6\n        /* \"contracts/BusinessConsensus3.sol\":6838:6860  voter_maps[_messageID] */\n      mload(0x40)\n      tag_264\n      swap3\n      swap2\n      swap1\n      tag_135\n      jump\t// in\n    tag_264:\n      swap1\n      dup2\n      mstore\n      0x20\n      add\n      mload(0x40)\n      dup1\n      swap2\n      sub\n      swap1\n      keccak256\n        /* \"contracts/BusinessConsensus3.sol\":6838:6881  voter_maps[_messageID][keys[_messageID][i]] */\n      0x00\n        /* \"contracts/BusinessConsensus3.sol\":6861:6865  keys */\n      0x0c\n        /* \"contracts/BusinessConsensus3.sol\":6866:6876  _messageID */\n      dup8\n      dup8\n        /* \"contracts/BusinessConsensus3.sol\":6861:6877  keys[_messageID] */\n      mload(0x40)\n      tag_265\n      swap3\n      swap2\n      swap1\n      tag_135\n      jump\t// in\n    tag_265:\n      swap1\n      dup2\n      mstore\n      0x20\n      add\n      mload(0x40)\n      dup1\n      swap2\n      sub\n      swap1\n      keccak256\n        /* \"contracts/BusinessConsensus3.sol\":6878:6879  i */\n      dup5\n        /* \"contracts/BusinessConsensus3.sol\":6861:6880  keys[_messageID][i] */\n      0xff\n      and\n      dup2\n      sload\n      dup2\n      lt\n      tag_266\n      jumpi\n      tag_267\n      tag_260\n      jump\t// in\n    tag_267:\n    tag_266:\n      swap1\n      0x00\n      mstore\n      keccak256(0x00, 0x20)\n      add\n      0x00\n      swap1\n      sload\n      swap1\n      0x0100\n      exp\n      swap1\n      div\n      0xffffffffffffffffffffffffffffffffffffffff\n      and\n        /* \"contracts/BusinessConsensus3.sol\":6838:6881  voter_maps[_messageID][keys[_messageID][i]] */\n      0xffffffffffffffffffffffffffffffffffffffff\n      and\n      0xffffffffffffffffffffffffffffffffffffffff\n      and\n      dup2\n      mstore\n      0x20\n      add\n      swap1\n      dup2\n      mstore\n      0x20\n      add\n      0x00\n      keccak256\n        /* \"contracts/BusinessConsensus3.sol\":6814:6882  Voters[_messageID].push(voter_maps[_messageID][keys[_messageID][i]]) */\n      swap1\n      dup1\n      0x01\n      dup2\n      sload\n      add\n      dup1\n      dup3\n      sstore\n      dup1\n      swap2\n      pop\n      pop\n      0x01\n      swap1\n      sub\n      swap1\n      0x00\n      mstore\n      keccak256(0x00, 0x20)\n      add\n      0x00\n      swap1\n      swap2\n      swap1\n      swap2\n      swap1\n      swap2\n      pop\n      0x00\n      dup3\n      add\n      0x00\n      swap1\n      sload\n      swap1\n      0x0100\n      exp\n      swap1\n      div\n      0xff\n      and\n      dup2\n      0x00\n      add\n      exp(0x0100, 0x00)\n      dup2\n      sload\n      dup2\n      0xff\n      mul\n      not\n      and\n      swap1\n      dup4\n      iszero\n      iszero\n      mul\n      or\n      swap1\n      sstore\n      pop\n      0x00\n      dup3\n      add\n      0x01\n      swap1\n      sload\n      swap1\n      0x0100\n      exp\n      swap1\n      div\n      0xff\n      and\n      dup2\n      0x00\n      add\n      exp(0x0100, 0x01)\n      dup2\n      sload\n      dup2\n      0xff\n      mul\n      not\n      and\n      swap1\n      dup4\n      iszero\n      iszero\n      mul\n      or\n      swap1\n      sstore\n      pop\n      0x00\n      dup3\n      add\n      0x02\n      swap1\n      sload\n      swap1\n      0x0100\n      exp\n      swap1\n      div\n      0xffffffffffffffffffffffffffffffffffffffff\n      and\n      dup2\n      0x00\n      add\n      exp(0x0100, 0x02)\n      dup2\n      sload\n      dup2\n      0xffffffffffffffffffffffffffffffffffffffff\n      mul\n      not\n      and\n      swap1\n      dup4\n      0xffffffffffffffffffffffffffffffffffffffff\n      and\n      mul\n      or\n      swap1\n      sstore\n      pop\n      pop\n      pop\n        /* \"contracts/BusinessConsensus3.sol\":6733:6898  if(voter_maps[_messageID][keys[_messageID][i]].voted == false){\r... */\n    tag_262:\n        /* \"contracts/BusinessConsensus3.sol\":6714:6717  i++ */\n      dup1\n      dup1\n      tag_270\n      swap1\n      tag_271\n      jump\t// in\n    tag_270:\n      swap2\n      pop\n      pop\n        /* \"contracts/BusinessConsensus3.sol\":6671:6909  for(uint8 i=0; i< keys[_messageID].length; i++){\r... */\n      jump(tag_252)\n    tag_253:\n      pop\n        /* \"contracts/BusinessConsensus3.sol\":6944:6948  true */\n      0x01\n        /* \"contracts/BusinessConsensus3.sol\":6919:6929  isCompiled */\n      0x08\n        /* \"contracts/BusinessConsensus3.sol\":6930:6940  _messageID */\n      dup5\n      dup5\n        /* \"contracts/BusinessConsensus3.sol\":6919:6941  isCompiled[_messageID] */\n      mload(0x40)\n      tag_272\n      swap3\n      swap2\n      swap1\n      tag_135\n      jump\t// in\n    tag_272:\n      swap1\n      dup2\n      mstore\n      0x20\n      add\n      mload(0x40)\n      dup1\n      swap2\n      sub\n      swap1\n      keccak256\n      0x00\n        /* \"contracts/BusinessConsensus3.sol\":6919:6948  isCompiled[_messageID] = true */\n      0x0100\n      exp\n      dup2\n      sload\n      dup2\n      0xff\n      mul\n      not\n      and\n      swap1\n      dup4\n      iszero\n      iszero\n      mul\n      or\n      swap1\n      sstore\n      pop\n        /* \"contracts/BusinessConsensus3.sol\":6041:6956  {\r... */\n      pop\n        /* \"contracts/BusinessConsensus3.sol\":5985:6956  function Consensus(string calldata _messageID) external {\r... */\n      pop\n      pop\n      jump\t// out\n        /* \"contracts/BusinessConsensus3.sol\":932:977  mapping(string => string) public messageDates */\n    tag_83:\n      0x06\n      dup2\n      dup1\n      mload\n      0x20\n      dup2\n      add\n      dup3\n      add\n      dup1\n      mload\n      dup5\n      dup3\n      mstore\n      0x20\n      dup4\n      add\n      0x20\n      dup6\n      add\n      keccak256\n      dup2\n      dup4\n      mstore\n      dup1\n      swap6\n      pop\n      pop\n      pop\n      pop\n      pop\n      pop\n      0x00\n      swap2\n      pop\n      swap1\n      pop\n      dup1\n      sload\n      tag_273\n      swap1\n      tag_128\n      jump\t// in\n    tag_273:\n      dup1\n      0x1f\n      add\n      0x20\n      dup1\n      swap2\n      div\n      mul\n      0x20\n      add\n      mload(0x40)\n      swap1\n      dup2\n      add\n      0x40\n      mstore\n      dup1\n      swap3\n      swap2\n      swap1\n      dup2\n      dup2\n      mstore\n      0x20\n      add\n      dup3\n      dup1\n      sload\n      tag_274\n      swap1\n      tag_128\n      jump\t// in\n    tag_274:\n      dup1\n      iszero\n      tag_275\n      jumpi\n      dup1\n      0x1f\n      lt\n      tag_276\n      jumpi\n      0x0100\n      dup1\n      dup4\n      sload\n      div\n      mul\n      dup4\n      mstore\n      swap2\n      0x20\n      add\n      swap2\n      jump(tag_275)\n    tag_276:\n      dup3\n      add\n      swap2\n      swap1\n      0x00\n      mstore\n      keccak256(0x00, 0x20)\n      swap1\n    tag_277:\n      dup2\n      sload\n      dup2\n      mstore\n      swap1\n      0x01\n      add\n      swap1\n      0x20\n      add\n      dup1\n      dup4\n      gt\n      tag_277\n      jumpi\n      dup3\n      swap1\n      sub\n      0x1f\n      and\n      dup3\n      add\n      swap2\n    tag_275:\n      pop\n      pop\n      pop\n      pop\n      pop\n      dup2\n      jump\t// out\n        /* \"contracts/BusinessConsensus3.sol\":1199:1237  mapping(string=>Voter[]) public Voters */\n    tag_87:\n      0x0b\n      dup3\n      dup1\n      mload\n      0x20\n      dup2\n      add\n      dup3\n      add\n      dup1\n      mload\n      dup5\n      dup3\n      mstore\n      0x20\n      dup4\n      add\n      0x20\n      dup6\n      add\n      keccak256\n      dup2\n      dup4\n      mstore\n      dup1\n      swap6\n      pop\n      pop\n      pop\n      pop\n      pop\n      pop\n      dup2\n      dup2\n      sload\n      dup2\n      lt\n      tag_278\n      jumpi\n      0x00\n      dup1\n      revert\n    tag_278:\n      swap1\n      0x00\n      mstore\n      keccak256(0x00, 0x20)\n      add\n      0x00\n      swap2\n      pop\n      swap2\n      pop\n      pop\n      dup1\n      0x00\n      add\n      0x00\n      swap1\n      sload\n      swap1\n      0x0100\n      exp\n      swap1\n      div\n      0xff\n      and\n      swap1\n      dup1\n      0x00\n      add\n      0x01\n      swap1\n      sload\n      swap1\n      0x0100\n      exp\n      swap1\n      div\n      0xff\n      and\n      swap1\n      dup1\n      0x00\n      add\n      0x02\n      swap1\n      sload\n      swap1\n      0x0100\n      exp\n      swap1\n      div\n      0xffffffffffffffffffffffffffffffffffffffff\n      and\n      swap1\n      pop\n      dup4\n      jump\t// out\n        /* \"contracts/BusinessConsensus3.sol\":879:925  mapping(string => uint256) public numApprovals */\n    tag_91:\n      0x05\n      dup2\n      dup1\n      mload\n      0x20\n      dup2\n      add\n      dup3\n      add\n      dup1\n      mload\n      dup5\n      dup3\n      mstore\n      0x20\n      dup4\n      add\n      0x20\n      dup6\n      add\n      keccak256\n      dup2\n      dup4\n      mstore\n      dup1\n      swap6\n      pop\n      pop\n      pop\n      pop\n      pop\n      pop\n      0x00\n      swap2\n      pop\n      swap1\n      pop\n      sload\n      dup2\n      jump\t// out\n        /* \"contracts/BusinessConsensus3.sol\":2659:3500  function checkConsistency(string memory _subject, uint256 _businessRequirement, uint256 _expiryLength, bytes32 _contents) public view returns(bool, bool, bool){\r... */\n    tag_97:\n        /* \"contracts/BusinessConsensus3.sol\":2801:2805  bool */\n      0x00\n        /* \"contracts/BusinessConsensus3.sol\":2807:2811  bool */\n      dup1\n        /* \"contracts/BusinessConsensus3.sol\":2813:2817  bool */\n      0x00\n        /* \"contracts/BusinessConsensus3.sol\":2851:2861  initiators */\n      0x01\n        /* \"contracts/BusinessConsensus3.sol\":2862:2870  _subject */\n      dup8\n        /* \"contracts/BusinessConsensus3.sol\":2851:2871  initiators[_subject] */\n      mload(0x40)\n      tag_281\n      swap2\n      swap1\n      tag_206\n      jump\t// in\n    tag_281:\n      swap1\n      dup2\n      mstore\n      0x20\n      add\n      mload(0x40)\n      dup1\n      swap2\n      sub\n      swap1\n      keccak256\n      0x00\n      swap1\n      sload\n      swap1\n      0x0100\n      exp\n      swap1\n      div\n      0xffffffffffffffffffffffffffffffffffffffff\n      and\n        /* \"contracts/BusinessConsensus3.sol\":2837:2871  msg.sender == initiators[_subject] */\n      0xffffffffffffffffffffffffffffffffffffffff\n      and\n        /* \"contracts/BusinessConsensus3.sol\":2837:2847  msg.sender */\n      caller\n        /* \"contracts/BusinessConsensus3.sol\":2837:2871  msg.sender == initiators[_subject] */\n      0xffffffffffffffffffffffffffffffffffffffff\n      and\n      eq\n        /* \"contracts/BusinessConsensus3.sol\":2829:2896  require(msg.sender == initiators[_subject], \"You aren't Initiator\") */\n      tag_282\n      jumpi\n      mload(0x40)\n      0x08c379a000000000000000000000000000000000000000000000000000000000\n      dup2\n      mstore\n      0x04\n      add\n      tag_283\n      swap1\n      tag_284\n      jump\t// in\n    tag_283:\n      mload(0x40)\n      dup1\n      swap2\n      sub\n      swap1\n      revert\n    tag_282:\n        /* \"contracts/BusinessConsensus3.sol\":2907:2918  bool value1 */\n      0x00\n        /* \"contracts/BusinessConsensus3.sol\":2921:2925  true */\n      0x01\n        /* \"contracts/BusinessConsensus3.sol\":2907:2925  bool value1 = true */\n      swap1\n      pop\n        /* \"contracts/BusinessConsensus3.sol\":2936:2947  bool value2 */\n      0x00\n        /* \"contracts/BusinessConsensus3.sol\":2950:2954  true */\n      0x01\n        /* \"contracts/BusinessConsensus3.sol\":2936:2954  bool value2 = true */\n      swap1\n      pop\n        /* \"contracts/BusinessConsensus3.sol\":2965:2976  bool value3 */\n      0x00\n        /* \"contracts/BusinessConsensus3.sol\":2979:2983  true */\n      0x01\n        /* \"contracts/BusinessConsensus3.sol\":2965:2983  bool value3 = true */\n      swap1\n      pop\n        /* \"contracts/BusinessConsensus3.sol\":3029:3030  0 */\n      0x00\n        /* \"contracts/BusinessConsensus3.sol\":2997:3031  initiators[_subject] == address(0) */\n      0xffffffffffffffffffffffffffffffffffffffff\n      and\n        /* \"contracts/BusinessConsensus3.sol\":2997:3007  initiators */\n      0x01\n        /* \"contracts/BusinessConsensus3.sol\":3008:3016  _subject */\n      dup12\n        /* \"contracts/BusinessConsensus3.sol\":2997:3017  initiators[_subject] */\n      mload(0x40)\n      tag_285\n      swap2\n      swap1\n      tag_206\n      jump\t// in\n    tag_285:\n      swap1\n      dup2\n      mstore\n      0x20\n      add\n      mload(0x40)\n      dup1\n      swap2\n      sub\n      swap1\n      keccak256\n      0x00\n      swap1\n      sload\n      swap1\n      0x0100\n      exp\n      swap1\n      div\n      0xffffffffffffffffffffffffffffffffffffffff\n      and\n        /* \"contracts/BusinessConsensus3.sol\":2997:3031  initiators[_subject] == address(0) */\n      0xffffffffffffffffffffffffffffffffffffffff\n      and\n      eq\n        /* \"contracts/BusinessConsensus3.sol\":2994:3493  if(initiators[_subject] == address(0)){\r... */\n      iszero\n      tag_286\n      jumpi\n        /* \"contracts/BusinessConsensus3.sol\":3055:3059  true */\n      0x01\n        /* \"contracts/BusinessConsensus3.sol\":3061:3065  true */\n      dup1\n        /* \"contracts/BusinessConsensus3.sol\":3067:3071  true */\n      0x01\n        /* \"contracts/BusinessConsensus3.sol\":3047:3072  return (true, true, true) */\n      swap6\n      pop\n      swap6\n      pop\n      swap6\n      pop\n      pop\n      pop\n      pop\n      jump(tag_280)\n        /* \"contracts/BusinessConsensus3.sol\":2994:3493  if(initiators[_subject] == address(0)){\r... */\n    tag_286:\n        /* \"contracts/BusinessConsensus3.sol\":3140:3157  businessProposals */\n      0x00\n        /* \"contracts/BusinessConsensus3.sol\":3158:3166  _subject */\n      dup11\n        /* \"contracts/BusinessConsensus3.sol\":3140:3167  businessProposals[_subject] */\n      mload(0x40)\n      tag_288\n      swap2\n      swap1\n      tag_206\n      jump\t// in\n    tag_288:\n      swap1\n      dup2\n      mstore\n      0x20\n      add\n      mload(0x40)\n      dup1\n      swap2\n      sub\n      swap1\n      keccak256\n        /* \"contracts/BusinessConsensus3.sol\":3140:3187  businessProposals[_subject].BusinessRequirement */\n      0x02\n      add\n      sload\n        /* \"contracts/BusinessConsensus3.sol\":3116:3136  _businessRequirement */\n      dup10\n        /* \"contracts/BusinessConsensus3.sol\":3116:3187  _businessRequirement != businessProposals[_subject].BusinessRequirement */\n      eq\n        /* \"contracts/BusinessConsensus3.sol\":3113:3237  if(_businessRequirement != businessProposals[_subject].BusinessRequirement){\r... */\n      tag_289\n      jumpi\n        /* \"contracts/BusinessConsensus3.sol\":3216:3221  false */\n      0x00\n        /* \"contracts/BusinessConsensus3.sol\":3207:3221  value1 = false */\n      swap3\n      pop\n        /* \"contracts/BusinessConsensus3.sol\":3113:3237  if(_businessRequirement != businessProposals[_subject].BusinessRequirement){\r... */\n    tag_289:\n        /* \"contracts/BusinessConsensus3.sol\":3267:3275  contents */\n      0x04\n        /* \"contracts/BusinessConsensus3.sol\":3276:3284  _subject */\n      dup11\n        /* \"contracts/BusinessConsensus3.sol\":3267:3285  contents[_subject] */\n      mload(0x40)\n      tag_290\n      swap2\n      swap1\n      tag_206\n      jump\t// in\n    tag_290:\n      swap1\n      dup2\n      mstore\n      0x20\n      add\n      mload(0x40)\n      dup1\n      swap2\n      sub\n      swap1\n      keccak256\n      sload\n        /* \"contracts/BusinessConsensus3.sol\":3254:3263  _contents */\n      dup8\n        /* \"contracts/BusinessConsensus3.sol\":3254:3285  _contents != contents[_subject] */\n      eq\n        /* \"contracts/BusinessConsensus3.sol\":3251:3335  if(_contents != contents[_subject]){\r... */\n      tag_291\n      jumpi\n        /* \"contracts/BusinessConsensus3.sol\":3314:3319  false */\n      0x00\n        /* \"contracts/BusinessConsensus3.sol\":3305:3319  value2 = false */\n      swap2\n      pop\n        /* \"contracts/BusinessConsensus3.sol\":3251:3335  if(_contents != contents[_subject]){\r... */\n    tag_291:\n        /* \"contracts/BusinessConsensus3.sol\":3379:3392  _expiryLength */\n      dup8\n        /* \"contracts/BusinessConsensus3.sol\":3352:3365  expiryLengths */\n      0x03\n        /* \"contracts/BusinessConsensus3.sol\":3366:3374  _subject */\n      dup12\n        /* \"contracts/BusinessConsensus3.sol\":3352:3375  expiryLengths[_subject] */\n      mload(0x40)\n      tag_292\n      swap2\n      swap1\n      tag_206\n      jump\t// in\n    tag_292:\n      swap1\n      dup2\n      mstore\n      0x20\n      add\n      mload(0x40)\n      dup1\n      swap2\n      sub\n      swap1\n      keccak256\n      sload\n        /* \"contracts/BusinessConsensus3.sol\":3352:3392  expiryLengths[_subject] != _expiryLength */\n      eq\n        /* \"contracts/BusinessConsensus3.sol\":3349:3442  if(expiryLengths[_subject] != _expiryLength){\r... */\n      tag_293\n      jumpi\n        /* \"contracts/BusinessConsensus3.sol\":3421:3426  false */\n      0x00\n        /* \"contracts/BusinessConsensus3.sol\":3412:3426  value3 = false */\n      swap1\n      pop\n        /* \"contracts/BusinessConsensus3.sol\":3349:3442  if(expiryLengths[_subject] != _expiryLength){\r... */\n    tag_293:\n        /* \"contracts/BusinessConsensus3.sol\":3460:3466  value1 */\n      dup3\n        /* \"contracts/BusinessConsensus3.sol\":3467:3473  value2 */\n      dup3\n        /* \"contracts/BusinessConsensus3.sol\":3474:3480  value3 */\n      dup3\n        /* \"contracts/BusinessConsensus3.sol\":3452:3481  return (value1,value2,value3) */\n      swap6\n      pop\n      swap6\n      pop\n      swap6\n      pop\n      pop\n      pop\n      pop\n        /* \"contracts/BusinessConsensus3.sol\":2659:3500  function checkConsistency(string memory _subject, uint256 _businessRequirement, uint256 _expiryLength, bytes32 _contents) public view returns(bool, bool, bool){\r... */\n    tag_280:\n      swap5\n      pop\n      swap5\n      pop\n      swap5\n      swap2\n      pop\n      pop\n      jump\t// out\n        /* \"contracts/BusinessConsensus3.sol\":830:872  mapping(string => bytes32) public contents */\n    tag_102:\n      0x04\n      dup2\n      dup1\n      mload\n      0x20\n      dup2\n      add\n      dup3\n      add\n      dup1\n      mload\n      dup5\n      dup3\n      mstore\n      0x20\n      dup4\n      add\n      0x20\n      dup6\n      add\n      keccak256\n      dup2\n      dup4\n      mstore\n      dup1\n      swap6\n      pop\n      pop\n      pop\n      pop\n      pop\n      pop\n      0x00\n      swap2\n      pop\n      swap1\n      pop\n      sload\n      dup2\n      jump\t// out\n        /* \"contracts/BusinessConsensus3.sol\":776:823  mapping(string => uint256) public expiryLengths */\n    tag_106:\n      0x03\n      dup2\n      dup1\n      mload\n      0x20\n      dup2\n      add\n      dup3\n      add\n      dup1\n      mload\n      dup5\n      dup3\n      mstore\n      0x20\n      dup4\n      add\n      0x20\n      dup6\n      add\n      keccak256\n      dup2\n      dup4\n      mstore\n      dup1\n      swap6\n      pop\n      pop\n      pop\n      pop\n      pop\n      pop\n      0x00\n      swap2\n      pop\n      swap1\n      pop\n      sload\n      dup2\n      jump\t// out\n        /* \"contracts/BusinessConsensus3.sol\":3506:3671  function getIsCreated(string calldata subject) public view returns (string memory,Proposal memory){\r... */\n    tag_110:\n        /* \"contracts/BusinessConsensus3.sol\":3574:3587  string memory */\n      0x60\n        /* \"contracts/BusinessConsensus3.sol\":3588:3603  Proposal memory */\n      tag_294\n      tag_295\n      jump\t// in\n    tag_294:\n        /* \"contracts/BusinessConsensus3.sol\":3623:3626  IDs */\n      0x02\n        /* \"contracts/BusinessConsensus3.sol\":3627:3634  subject */\n      dup5\n      dup5\n        /* \"contracts/BusinessConsensus3.sol\":3623:3635  IDs[subject] */\n      mload(0x40)\n      tag_297\n      swap3\n      swap2\n      swap1\n      tag_135\n      jump\t// in\n    tag_297:\n      swap1\n      dup2\n      mstore\n      0x20\n      add\n      mload(0x40)\n      dup1\n      swap2\n      sub\n      swap1\n      keccak256\n        /* \"contracts/BusinessConsensus3.sol\":3636:3653  businessProposals */\n      0x00\n        /* \"contracts/BusinessConsensus3.sol\":3654:3661  subject */\n      dup6\n      dup6\n        /* \"contracts/BusinessConsensus3.sol\":3636:3662  businessProposals[subject] */\n      mload(0x40)\n      tag_298\n      swap3\n      swap2\n      swap1\n      tag_135\n      jump\t// in\n    tag_298:\n      swap1\n      dup2\n      mstore\n      0x20\n      add\n      mload(0x40)\n      dup1\n      swap2\n      sub\n      swap1\n      keccak256\n        /* \"contracts/BusinessConsensus3.sol\":3615:3663  return (IDs[subject],businessProposals[subject]) */\n      dup2\n      dup1\n      sload\n      tag_299\n      swap1\n      tag_128\n      jump\t// in\n    tag_299:\n      dup1\n      0x1f\n      add\n      0x20\n      dup1\n      swap2\n      div\n      mul\n      0x20\n      add\n      mload(0x40)\n      swap1\n      dup2\n      add\n      0x40\n      mstore\n      dup1\n      swap3\n      swap2\n      swap1\n      dup2\n      dup2\n      mstore\n      0x20\n      add\n      dup3\n      dup1\n      sload\n      tag_300\n      swap1\n      tag_128\n      jump\t// in\n    tag_300:\n      dup1\n      iszero\n      tag_301\n      jumpi\n      dup1\n      0x1f\n      lt\n      tag_302\n      jumpi\n      0x0100\n      dup1\n      dup4\n      sload\n      div\n      mul\n      dup4\n      mstore\n      swap2\n      0x20\n      add\n      swap2\n      jump(tag_301)\n    tag_302:\n      dup3\n      add\n      swap2\n      swap1\n      0x00\n      mstore\n      keccak256(0x00, 0x20)\n      swap1\n    tag_303:\n      dup2\n      sload\n      dup2\n      mstore\n      swap1\n      0x01\n      add\n      swap1\n      0x20\n      add\n      dup1\n      dup4\n      gt\n      tag_303\n      jumpi\n      dup3\n      swap1\n      sub\n      0x1f\n      and\n      dup3\n      add\n      swap2\n    tag_301:\n      pop\n      pop\n      pop\n      pop\n      pop\n      swap2\n      pop\n      dup1\n      mload(0x40)\n      dup1\n      0x60\n      add\n      0x40\n      mstore\n      swap1\n      dup2\n      0x00\n      dup3\n      add\n      sload\n      dup2\n      mstore\n      0x20\n      add\n      0x01\n      dup3\n      add\n      sload\n      dup2\n      mstore\n      0x20\n      add\n      0x02\n      dup3\n      add\n      sload\n      dup2\n      mstore\n      pop\n      pop\n      swap1\n      pop\n      swap2\n      pop\n      swap2\n      pop\n        /* \"contracts/BusinessConsensus3.sol\":3506:3671  function getIsCreated(string calldata subject) public view returns (string memory,Proposal memory){\r... */\n      swap3\n      pop\n      swap3\n      swap1\n      pop\n      jump\t// out\n        /* \"contracts/BusinessConsensus3.sol\":685:727  mapping(string=>address) public initiators */\n    tag_115:\n      0x01\n      dup2\n      dup1\n      mload\n      0x20\n      dup2\n      add\n      dup3\n      add\n      dup1\n      mload\n      dup5\n      dup3\n      mstore\n      0x20\n      dup4\n      add\n      0x20\n      dup6\n      add\n      keccak256\n      dup2\n      dup4\n      mstore\n      dup1\n      swap6\n      pop\n      pop\n      pop\n      pop\n      pop\n      pop\n      0x00\n      swap2\n      pop\n      sload\n      swap1\n      0x0100\n      exp\n      swap1\n      div\n      0xffffffffffffffffffffffffffffffffffffffff\n      and\n      dup2\n      jump\t// out\n        /* \"contracts/BusinessConsensus3.sol\":2528:2653  function getIsCompiled(string calldata _messageID) public view returns (bool){\r... */\n    tag_119:\n        /* \"contracts/BusinessConsensus3.sol\":2600:2604  bool */\n      0x00\n        /* \"contracts/BusinessConsensus3.sol\":2623:2633  isCompiled */\n      0x08\n        /* \"contracts/BusinessConsensus3.sol\":2634:2644  _messageID */\n      dup4\n      dup4\n        /* \"contracts/BusinessConsensus3.sol\":2623:2645  isCompiled[_messageID] */\n      mload(0x40)\n      tag_305\n      swap3\n      swap2\n      swap1\n      tag_135\n      jump\t// in\n    tag_305:\n      swap1\n      dup2\n      mstore\n      0x20\n      add\n      mload(0x40)\n      dup1\n      swap2\n      sub\n      swap1\n      keccak256\n      0x00\n      swap1\n      sload\n      swap1\n      0x0100\n      exp\n      swap1\n      div\n      0xff\n      and\n        /* \"contracts/BusinessConsensus3.sol\":2616:2645  return isCompiled[_messageID] */\n      swap1\n      pop\n        /* \"contracts/BusinessConsensus3.sol\":2528:2653  function getIsCompiled(string calldata _messageID) public view returns (bool){\r... */\n      swap3\n      swap2\n      pop\n      pop\n      jump\t// out\n        /* \"contracts/BusinessConsensus3.sol\":1086:1127  mapping(string => string) public subjects */\n    tag_123:\n      0x09\n      dup2\n      dup1\n      mload\n      0x20\n      dup2\n      add\n      dup3\n      add\n      dup1\n      mload\n      dup5\n      dup3\n      mstore\n      0x20\n      dup4\n      add\n      0x20\n      dup6\n      add\n      keccak256\n      dup2\n      dup4\n      mstore\n      dup1\n      swap6\n      pop\n      pop\n      pop\n      pop\n      pop\n      pop\n      0x00\n      swap2\n      pop\n      swap1\n      pop\n      dup1\n      sload\n      tag_306\n      swap1\n      tag_128\n      jump\t// in\n    tag_306:\n      dup1\n      0x1f\n      add\n      0x20\n      dup1\n      swap2\n      div\n      mul\n      0x20\n      add\n      mload(0x40)\n      swap1\n      dup2\n      add\n      0x40\n      mstore\n      dup1\n      swap3\n      swap2\n      swap1\n      dup2\n      dup2\n      mstore\n      0x20\n      add\n      dup3\n      dup1\n      sload\n      tag_307\n      swap1\n      tag_128\n      jump\t// in\n    tag_307:\n      dup1\n      iszero\n      tag_308\n      jumpi\n      dup1\n      0x1f\n      lt\n      tag_309\n      jumpi\n      0x0100\n      dup1\n      dup4\n      sload\n      div\n      mul\n      dup4\n      mstore\n      swap2\n      0x20\n      add\n      swap2\n      jump(tag_308)\n    tag_309:\n      dup3\n      add\n      swap2\n      swap1\n      0x00\n      mstore\n      keccak256(0x00, 0x20)\n      swap1\n    tag_310:\n      dup2\n      sload\n      dup2\n      mstore\n      swap1\n      0x01\n      add\n      swap1\n      0x20\n      add\n      dup1\n      dup4\n      gt\n      tag_310\n      jumpi\n      dup3\n      swap1\n      sub\n      0x1f\n      and\n      dup3\n      add\n      swap2\n    tag_308:\n      pop\n      pop\n      pop\n      pop\n      pop\n      dup2\n      jump\t// out\n    tag_213:\n      dup3\n      dup1\n      sload\n      tag_311\n      swap1\n      tag_128\n      jump\t// in\n    tag_311:\n      swap1\n      0x00\n      mstore\n      keccak256(0x00, 0x20)\n      swap1\n      0x1f\n      add\n      0x20\n      swap1\n      div\n      dup2\n      add\n      swap3\n      dup3\n      tag_313\n      jumpi\n      0x00\n      dup6\n      sstore\n      jump(tag_312)\n    tag_313:\n      dup3\n      0x1f\n      lt\n      tag_314\n      jumpi\n      dup1\n      mload\n      not(0xff)\n      and\n      dup4\n      dup1\n      add\n      or\n      dup6\n      sstore\n      jump(tag_312)\n    tag_314:\n      dup3\n      dup1\n      add\n      0x01\n      add\n      dup6\n      sstore\n      dup3\n      iszero\n      tag_312\n      jumpi\n      swap2\n      dup3\n      add\n    tag_315:\n      dup3\n      dup2\n      gt\n      iszero\n      tag_316\n      jumpi\n      dup3\n      mload\n      dup3\n      sstore\n      swap2\n      0x20\n      add\n      swap2\n      swap1\n      0x01\n      add\n      swap1\n      jump(tag_315)\n    tag_316:\n    tag_312:\n      pop\n      swap1\n      pop\n      tag_317\n      swap2\n      swap1\n      tag_318\n      jump\t// in\n    tag_317:\n      pop\n      swap1\n      jump\t// out\n    tag_295:\n      mload(0x40)\n      dup1\n      0x60\n      add\n      0x40\n      mstore\n      dup1\n      0x00\n      dup2\n      mstore\n      0x20\n      add\n      0x00\n      dup2\n      mstore\n      0x20\n      add\n      0x00\n      dup2\n      mstore\n      pop\n      swap1\n      jump\t// out\n    tag_318:\n    tag_319:\n      dup1\n      dup3\n      gt\n      iszero\n      tag_320\n      jumpi\n      0x00\n      dup2\n      0x00\n      swap1\n      sstore\n      pop\n      0x01\n      add\n      jump(tag_319)\n    tag_320:\n      pop\n      swap1\n      jump\t// out\n        /* \"#utility.yul\":7:419   */\n    tag_322:\n        /* \"#utility.yul\":85:90   */\n      0x00\n        /* \"#utility.yul\":110:176   */\n      tag_324\n        /* \"#utility.yul\":126:175   */\n      tag_325\n        /* \"#utility.yul\":168:174   */\n      dup5\n        /* \"#utility.yul\":126:175   */\n      tag_326\n      jump\t// in\n    tag_325:\n        /* \"#utility.yul\":110:176   */\n      tag_327\n      jump\t// in\n    tag_324:\n        /* \"#utility.yul\":101:176   */\n      swap1\n      pop\n        /* \"#utility.yul\":199:205   */\n      dup3\n        /* \"#utility.yul\":192:197   */\n      dup2\n        /* \"#utility.yul\":185:206   */\n      mstore\n        /* \"#utility.yul\":237:241   */\n      0x20\n        /* \"#utility.yul\":230:235   */\n      dup2\n        /* \"#utility.yul\":226:242   */\n      add\n        /* \"#utility.yul\":275:278   */\n      dup5\n        /* \"#utility.yul\":266:272   */\n      dup5\n        /* \"#utility.yul\":261:264   */\n      dup5\n        /* \"#utility.yul\":257:273   */\n      add\n        /* \"#utility.yul\":254:279   */\n      gt\n        /* \"#utility.yul\":251:363   */\n      iszero\n      tag_328\n      jumpi\n        /* \"#utility.yul\":282:361   */\n      tag_329\n      tag_330\n      jump\t// in\n    tag_329:\n        /* \"#utility.yul\":251:363   */\n    tag_328:\n        /* \"#utility.yul\":372:413   */\n      tag_331\n        /* \"#utility.yul\":406:412   */\n      dup5\n        /* \"#utility.yul\":401:404   */\n      dup3\n        /* \"#utility.yul\":396:399   */\n      dup6\n        /* \"#utility.yul\":372:413   */\n      tag_332\n      jump\t// in\n    tag_331:\n        /* \"#utility.yul\":91:419   */\n      pop\n        /* \"#utility.yul\":7:419   */\n      swap4\n      swap3\n      pop\n      pop\n      pop\n      jump\t// out\n        /* \"#utility.yul\":425:564   */\n    tag_333:\n        /* \"#utility.yul\":471:476   */\n      0x00\n        /* \"#utility.yul\":509:515   */\n      dup2\n        /* \"#utility.yul\":496:516   */\n      calldataload\n        /* \"#utility.yul\":487:516   */\n      swap1\n      pop\n        /* \"#utility.yul\":525:558   */\n      tag_335\n        /* \"#utility.yul\":552:557   */\n      dup2\n        /* \"#utility.yul\":525:558   */\n      tag_336\n      jump\t// in\n    tag_335:\n        /* \"#utility.yul\":425:564   */\n      swap3\n      swap2\n      pop\n      pop\n      jump\t// out\n        /* \"#utility.yul\":570:709   */\n    tag_337:\n        /* \"#utility.yul\":616:621   */\n      0x00\n        /* \"#utility.yul\":654:660   */\n      dup2\n        /* \"#utility.yul\":641:661   */\n      calldataload\n        /* \"#utility.yul\":632:661   */\n      swap1\n      pop\n        /* \"#utility.yul\":670:703   */\n      tag_339\n        /* \"#utility.yul\":697:702   */\n      dup2\n        /* \"#utility.yul\":670:703   */\n      tag_340\n      jump\t// in\n    tag_339:\n        /* \"#utility.yul\":570:709   */\n      swap3\n      swap2\n      pop\n      pop\n      jump\t// out\n        /* \"#utility.yul\":729:1282   */\n    tag_341:\n        /* \"#utility.yul\":787:795   */\n      0x00\n        /* \"#utility.yul\":797:803   */\n      dup1\n        /* \"#utility.yul\":847:850   */\n      dup4\n        /* \"#utility.yul\":840:844   */\n      0x1f\n        /* \"#utility.yul\":832:838   */\n      dup5\n        /* \"#utility.yul\":828:845   */\n      add\n        /* \"#utility.yul\":824:851   */\n      slt\n        /* \"#utility.yul\":814:936   */\n      tag_343\n      jumpi\n        /* \"#utility.yul\":855:934   */\n      tag_344\n      tag_345\n      jump\t// in\n    tag_344:\n        /* \"#utility.yul\":814:936   */\n    tag_343:\n        /* \"#utility.yul\":968:974   */\n      dup3\n        /* \"#utility.yul\":955:975   */\n      calldataload\n        /* \"#utility.yul\":945:975   */\n      swap1\n      pop\n        /* \"#utility.yul\":998:1016   */\n      0xffffffffffffffff\n        /* \"#utility.yul\":990:996   */\n      dup2\n        /* \"#utility.yul\":987:1017   */\n      gt\n        /* \"#utility.yul\":984:1101   */\n      iszero\n      tag_346\n      jumpi\n        /* \"#utility.yul\":1020:1099   */\n      tag_347\n      tag_348\n      jump\t// in\n    tag_347:\n        /* \"#utility.yul\":984:1101   */\n    tag_346:\n        /* \"#utility.yul\":1134:1138   */\n      0x20\n        /* \"#utility.yul\":1126:1132   */\n      dup4\n        /* \"#utility.yul\":1122:1139   */\n      add\n        /* \"#utility.yul\":1110:1139   */\n      swap2\n      pop\n        /* \"#utility.yul\":1188:1191   */\n      dup4\n        /* \"#utility.yul\":1180:1184   */\n      0x01\n        /* \"#utility.yul\":1172:1178   */\n      dup3\n        /* \"#utility.yul\":1168:1185   */\n      mul\n        /* \"#utility.yul\":1158:1166   */\n      dup4\n        /* \"#utility.yul\":1154:1186   */\n      add\n        /* \"#utility.yul\":1151:1192   */\n      gt\n        /* \"#utility.yul\":1148:1276   */\n      iszero\n      tag_349\n      jumpi\n        /* \"#utility.yul\":1195:1274   */\n      tag_350\n      tag_351\n      jump\t// in\n    tag_350:\n        /* \"#utility.yul\":1148:1276   */\n    tag_349:\n        /* \"#utility.yul\":729:1282   */\n      swap3\n      pop\n      swap3\n      swap1\n      pop\n      jump\t// out\n        /* \"#utility.yul\":1302:1642   */\n    tag_352:\n        /* \"#utility.yul\":1358:1363   */\n      0x00\n        /* \"#utility.yul\":1407:1410   */\n      dup3\n        /* \"#utility.yul\":1400:1404   */\n      0x1f\n        /* \"#utility.yul\":1392:1398   */\n      dup4\n        /* \"#utility.yul\":1388:1405   */\n      add\n        /* \"#utility.yul\":1384:1411   */\n      slt\n        /* \"#utility.yul\":1374:1496   */\n      tag_354\n      jumpi\n        /* \"#utility.yul\":1415:1494   */\n      tag_355\n      tag_345\n      jump\t// in\n    tag_355:\n        /* \"#utility.yul\":1374:1496   */\n    tag_354:\n        /* \"#utility.yul\":1532:1538   */\n      dup2\n        /* \"#utility.yul\":1519:1539   */\n      calldataload\n        /* \"#utility.yul\":1557:1636   */\n      tag_356\n        /* \"#utility.yul\":1632:1635   */\n      dup5\n        /* \"#utility.yul\":1624:1630   */\n      dup3\n        /* \"#utility.yul\":1617:1621   */\n      0x20\n        /* \"#utility.yul\":1609:1615   */\n      dup7\n        /* \"#utility.yul\":1605:1622   */\n      add\n        /* \"#utility.yul\":1557:1636   */\n      tag_322\n      jump\t// in\n    tag_356:\n        /* \"#utility.yul\":1548:1636   */\n      swap2\n      pop\n        /* \"#utility.yul\":1364:1642   */\n      pop\n        /* \"#utility.yul\":1302:1642   */\n      swap3\n      swap2\n      pop\n      pop\n      jump\t// out\n        /* \"#utility.yul\":1648:1787   */\n    tag_357:\n        /* \"#utility.yul\":1694:1699   */\n      0x00\n        /* \"#utility.yul\":1732:1738   */\n      dup2\n        /* \"#utility.yul\":1719:1739   */\n      calldataload\n        /* \"#utility.yul\":1710:1739   */\n      swap1\n      pop\n        /* \"#utility.yul\":1748:1781   */\n      tag_359\n        /* \"#utility.yul\":1775:1780   */\n      dup2\n        /* \"#utility.yul\":1748:1781   */\n      tag_360\n      jump\t// in\n    tag_359:\n        /* \"#utility.yul\":1648:1787   */\n      swap3\n      swap2\n      pop\n      pop\n      jump\t// out\n        /* \"#utility.yul\":1793:2467   */\n    tag_72:\n        /* \"#utility.yul\":1873:1879   */\n      0x00\n        /* \"#utility.yul\":1881:1887   */\n      dup1\n        /* \"#utility.yul\":1889:1895   */\n      0x00\n        /* \"#utility.yul\":1938:1940   */\n      0x40\n        /* \"#utility.yul\":1926:1935   */\n      dup5\n        /* \"#utility.yul\":1917:1924   */\n      dup7\n        /* \"#utility.yul\":1913:1936   */\n      sub\n        /* \"#utility.yul\":1909:1941   */\n      slt\n        /* \"#utility.yul\":1906:2025   */\n      iszero\n      tag_362\n      jumpi\n        /* \"#utility.yul\":1944:2023   */\n      tag_363\n      tag_364\n      jump\t// in\n    tag_363:\n        /* \"#utility.yul\":1906:2025   */\n    tag_362:\n        /* \"#utility.yul\":2064:2065   */\n      0x00\n        /* \"#utility.yul\":2089:2142   */\n      tag_365\n        /* \"#utility.yul\":2134:2141   */\n      dup7\n        /* \"#utility.yul\":2125:2131   */\n      dup3\n        /* \"#utility.yul\":2114:2123   */\n      dup8\n        /* \"#utility.yul\":2110:2132   */\n      add\n        /* \"#utility.yul\":2089:2142   */\n      tag_333\n      jump\t// in\n    tag_365:\n        /* \"#utility.yul\":2079:2142   */\n      swap4\n      pop\n        /* \"#utility.yul\":2035:2152   */\n      pop\n        /* \"#utility.yul\":2219:2221   */\n      0x20\n        /* \"#utility.yul\":2208:2217   */\n      dup5\n        /* \"#utility.yul\":2204:2222   */\n      add\n        /* \"#utility.yul\":2191:2223   */\n      calldataload\n        /* \"#utility.yul\":2250:2268   */\n      0xffffffffffffffff\n        /* \"#utility.yul\":2242:2248   */\n      dup2\n        /* \"#utility.yul\":2239:2269   */\n      gt\n        /* \"#utility.yul\":2236:2353   */\n      iszero\n      tag_366\n      jumpi\n        /* \"#utility.yul\":2272:2351   */\n      tag_367\n      tag_368\n      jump\t// in\n    tag_367:\n        /* \"#utility.yul\":2236:2353   */\n    tag_366:\n        /* \"#utility.yul\":2385:2450   */\n      tag_369\n        /* \"#utility.yul\":2442:2449   */\n      dup7\n        /* \"#utility.yul\":2433:2439   */\n      dup3\n        /* \"#utility.yul\":2422:2431   */\n      dup8\n        /* \"#utility.yul\":2418:2440   */\n      add\n        /* \"#utility.yul\":2385:2450   */\n      tag_341\n      jump\t// in\n    tag_369:\n        /* \"#utility.yul\":2367:2450   */\n      swap3\n      pop\n      swap3\n      pop\n        /* \"#utility.yul\":2162:2460   */\n      pop\n        /* \"#utility.yul\":1793:2467   */\n      swap3\n      pop\n      swap3\n      pop\n      swap3\n      jump\t// out\n        /* \"#utility.yul\":2473:3002   */\n    tag_66:\n        /* \"#utility.yul\":2544:2550   */\n      0x00\n        /* \"#utility.yul\":2552:2558   */\n      dup1\n        /* \"#utility.yul\":2601:2603   */\n      0x20\n        /* \"#utility.yul\":2589:2598   */\n      dup4\n        /* \"#utility.yul\":2580:2587   */\n      dup6\n        /* \"#utility.yul\":2576:2599   */\n      sub\n        /* \"#utility.yul\":2572:2604   */\n      slt\n        /* \"#utility.yul\":2569:2688   */\n      iszero\n      tag_371\n      jumpi\n        /* \"#utility.yul\":2607:2686   */\n      tag_372\n      tag_364\n      jump\t// in\n    tag_372:\n        /* \"#utility.yul\":2569:2688   */\n    tag_371:\n        /* \"#utility.yul\":2755:2756   */\n      0x00\n        /* \"#utility.yul\":2744:2753   */\n      dup4\n        /* \"#utility.yul\":2740:2757   */\n      add\n        /* \"#utility.yul\":2727:2758   */\n      calldataload\n        /* \"#utility.yul\":2785:2803   */\n      0xffffffffffffffff\n        /* \"#utility.yul\":2777:2783   */\n      dup2\n        /* \"#utility.yul\":2774:2804   */\n      gt\n        /* \"#utility.yul\":2771:2888   */\n      iszero\n      tag_373\n      jumpi\n        /* \"#utility.yul\":2807:2886   */\n      tag_374\n      tag_368\n      jump\t// in\n    tag_374:\n        /* \"#utility.yul\":2771:2888   */\n    tag_373:\n        /* \"#utility.yul\":2920:2985   */\n      tag_375\n        /* \"#utility.yul\":2977:2984   */\n      dup6\n        /* \"#utility.yul\":2968:2974   */\n      dup3\n        /* \"#utility.yul\":2957:2966   */\n      dup7\n        /* \"#utility.yul\":2953:2975   */\n      add\n        /* \"#utility.yul\":2920:2985   */\n      tag_341\n      jump\t// in\n    tag_375:\n        /* \"#utility.yul\":2902:2985   */\n      swap3\n      pop\n      swap3\n      pop\n        /* \"#utility.yul\":2698:2995   */\n      pop\n        /* \"#utility.yul\":2473:3002   */\n      swap3\n      pop\n      swap3\n      swap1\n      pop\n      jump\t// out\n        /* \"#utility.yul\":3008:3517   */\n    tag_35:\n        /* \"#utility.yul\":3077:3083   */\n      0x00\n        /* \"#utility.yul\":3126:3128   */\n      0x20\n        /* \"#utility.yul\":3114:3123   */\n      dup3\n        /* \"#utility.yul\":3105:3112   */\n      dup5\n        /* \"#utility.yul\":3101:3124   */\n      sub\n        /* \"#utility.yul\":3097:3129   */\n      slt\n        /* \"#utility.yul\":3094:3213   */\n      iszero\n      tag_377\n      jumpi\n        /* \"#utility.yul\":3132:3211   */\n      tag_378\n      tag_364\n      jump\t// in\n    tag_378:\n        /* \"#utility.yul\":3094:3213   */\n    tag_377:\n        /* \"#utility.yul\":3280:3281   */\n      0x00\n        /* \"#utility.yul\":3269:3278   */\n      dup3\n        /* \"#utility.yul\":3265:3282   */\n      add\n        /* \"#utility.yul\":3252:3283   */\n      calldataload\n        /* \"#utility.yul\":3310:3328   */\n      0xffffffffffffffff\n        /* \"#utility.yul\":3302:3308   */\n      dup2\n        /* \"#utility.yul\":3299:3329   */\n      gt\n        /* \"#utility.yul\":3296:3413   */\n      iszero\n      tag_379\n      jumpi\n        /* \"#utility.yul\":3332:3411   */\n      tag_380\n      tag_368\n      jump\t// in\n    tag_380:\n        /* \"#utility.yul\":3296:3413   */\n    tag_379:\n        /* \"#utility.yul\":3437:3500   */\n      tag_381\n        /* \"#utility.yul\":3492:3499   */\n      dup5\n        /* \"#utility.yul\":3483:3489   */\n      dup3\n        /* \"#utility.yul\":3472:3481   */\n      dup6\n        /* \"#utility.yul\":3468:3490   */\n      add\n        /* \"#utility.yul\":3437:3500   */\n      tag_352\n      jump\t// in\n    tag_381:\n        /* \"#utility.yul\":3427:3500   */\n      swap2\n      pop\n        /* \"#utility.yul\":3223:3510   */\n      pop\n        /* \"#utility.yul\":3008:3517   */\n      swap3\n      swap2\n      pop\n      pop\n      jump\t// out\n        /* \"#utility.yul\":3523:4177   */\n    tag_60:\n        /* \"#utility.yul\":3601:3607   */\n      0x00\n        /* \"#utility.yul\":3609:3615   */\n      dup1\n        /* \"#utility.yul\":3658:3660   */\n      0x40\n        /* \"#utility.yul\":3646:3655   */\n      dup4\n        /* \"#utility.yul\":3637:3644   */\n      dup6\n        /* \"#utility.yul\":3633:3656   */\n      sub\n        /* \"#utility.yul\":3629:3661   */\n      slt\n        /* \"#utility.yul\":3626:3745   */\n      iszero\n      tag_383\n      jumpi\n        /* \"#utility.yul\":3664:3743   */\n      tag_384\n      tag_364\n      jump\t// in\n    tag_384:\n        /* \"#utility.yul\":3626:3745   */\n    tag_383:\n        /* \"#utility.yul\":3812:3813   */\n      0x00\n        /* \"#utility.yul\":3801:3810   */\n      dup4\n        /* \"#utility.yul\":3797:3814   */\n      add\n        /* \"#utility.yul\":3784:3815   */\n      calldataload\n        /* \"#utility.yul\":3842:3860   */\n      0xffffffffffffffff\n        /* \"#utility.yul\":3834:3840   */\n      dup2\n        /* \"#utility.yul\":3831:3861   */\n      gt\n        /* \"#utility.yul\":3828:3945   */\n      iszero\n      tag_385\n      jumpi\n        /* \"#utility.yul\":3864:3943   */\n      tag_386\n      tag_368\n      jump\t// in\n    tag_386:\n        /* \"#utility.yul\":3828:3945   */\n    tag_385:\n        /* \"#utility.yul\":3969:4032   */\n      tag_387\n        /* \"#utility.yul\":4024:4031   */\n      dup6\n        /* \"#utility.yul\":4015:4021   */\n      dup3\n        /* \"#utility.yul\":4004:4013   */\n      dup7\n        /* \"#utility.yul\":4000:4022   */\n      add\n        /* \"#utility.yul\":3969:4032   */\n      tag_352\n      jump\t// in\n    tag_387:\n        /* \"#utility.yul\":3959:4032   */\n      swap3\n      pop\n        /* \"#utility.yul\":3755:4042   */\n      pop\n        /* \"#utility.yul\":4081:4083   */\n      0x20\n        /* \"#utility.yul\":4107:4160   */\n      tag_388\n        /* \"#utility.yul\":4152:4159   */\n      dup6\n        /* \"#utility.yul\":4143:4149   */\n      dup3\n        /* \"#utility.yul\":4132:4141   */\n      dup7\n        /* \"#utility.yul\":4128:4150   */\n      add\n        /* \"#utility.yul\":4107:4160   */\n      tag_333\n      jump\t// in\n    tag_388:\n        /* \"#utility.yul\":4097:4160   */\n      swap2\n      pop\n        /* \"#utility.yul\":4052:4170   */\n      pop\n        /* \"#utility.yul\":3523:4177   */\n      swap3\n      pop\n      swap3\n      swap1\n      pop\n      jump\t// out\n        /* \"#utility.yul\":4183:5037   */\n    tag_46:\n        /* \"#utility.yul\":4273:4279   */\n      0x00\n        /* \"#utility.yul\":4281:4287   */\n      dup1\n        /* \"#utility.yul\":4289:4295   */\n      0x00\n        /* \"#utility.yul\":4338:4340   */\n      0x40\n        /* \"#utility.yul\":4326:4335   */\n      dup5\n        /* \"#utility.yul\":4317:4324   */\n      dup7\n        /* \"#utility.yul\":4313:4336   */\n      sub\n        /* \"#utility.yul\":4309:4341   */\n      slt\n        /* \"#utility.yul\":4306:4425   */\n      iszero\n      tag_390\n      jumpi\n        /* \"#utility.yul\":4344:4423   */\n      tag_391\n      tag_364\n      jump\t// in\n    tag_391:\n        /* \"#utility.yul\":4306:4425   */\n    tag_390:\n        /* \"#utility.yul\":4492:4493   */\n      0x00\n        /* \"#utility.yul\":4481:4490   */\n      dup5\n        /* \"#utility.yul\":4477:4494   */\n      add\n        /* \"#utility.yul\":4464:4495   */\n      calldataload\n        /* \"#utility.yul\":4522:4540   */\n      0xffffffffffffffff\n        /* \"#utility.yul\":4514:4520   */\n      dup2\n        /* \"#utility.yul\":4511:4541   */\n      gt\n        /* \"#utility.yul\":4508:4625   */\n      iszero\n      tag_392\n      jumpi\n        /* \"#utility.yul\":4544:4623   */\n      tag_393\n      tag_368\n      jump\t// in\n    tag_393:\n        /* \"#utility.yul\":4508:4625   */\n    tag_392:\n        /* \"#utility.yul\":4649:4712   */\n      tag_394\n        /* \"#utility.yul\":4704:4711   */\n      dup7\n        /* \"#utility.yul\":4695:4701   */\n      dup3\n        /* \"#utility.yul\":4684:4693   */\n      dup8\n        /* \"#utility.yul\":4680:4702   */\n      add\n        /* \"#utility.yul\":4649:4712   */\n      tag_352\n      jump\t// in\n    tag_394:\n        /* \"#utility.yul\":4639:4712   */\n      swap4\n      pop\n        /* \"#utility.yul\":4435:4722   */\n      pop\n        /* \"#utility.yul\":4789:4791   */\n      0x20\n        /* \"#utility.yul\":4778:4787   */\n      dup5\n        /* \"#utility.yul\":4774:4792   */\n      add\n        /* \"#utility.yul\":4761:4793   */\n      calldataload\n        /* \"#utility.yul\":4820:4838   */\n      0xffffffffffffffff\n        /* \"#utility.yul\":4812:4818   */\n      dup2\n        /* \"#utility.yul\":4809:4839   */\n      gt\n        /* \"#utility.yul\":4806:4923   */\n      iszero\n      tag_395\n      jumpi\n        /* \"#utility.yul\":4842:4921   */\n      tag_396\n      tag_368\n      jump\t// in\n    tag_396:\n        /* \"#utility.yul\":4806:4923   */\n    tag_395:\n        /* \"#utility.yul\":4955:5020   */\n      tag_397\n        /* \"#utility.yul\":5012:5019   */\n      dup7\n        /* \"#utility.yul\":5003:5009   */\n      dup3\n        /* \"#utility.yul\":4992:5001   */\n      dup8\n        /* \"#utility.yul\":4988:5010   */\n      add\n        /* \"#utility.yul\":4955:5020   */\n      tag_341\n      jump\t// in\n    tag_397:\n        /* \"#utility.yul\":4937:5020   */\n      swap3\n      pop\n      swap3\n      pop\n        /* \"#utility.yul\":4732:5030   */\n      pop\n        /* \"#utility.yul\":4183:5037   */\n      swap3\n      pop\n      swap3\n      pop\n      swap3\n      jump\t// out\n        /* \"#utility.yul\":5043:5697   */\n    tag_29:\n        /* \"#utility.yul\":5121:5127   */\n      0x00\n        /* \"#utility.yul\":5129:5135   */\n      dup1\n        /* \"#utility.yul\":5178:5180   */\n      0x40\n        /* \"#utility.yul\":5166:5175   */\n      dup4\n        /* \"#utility.yul\":5157:5164   */\n      dup6\n        /* \"#utility.yul\":5153:5176   */\n      sub\n        /* \"#utility.yul\":5149:5181   */\n      slt\n        /* \"#utility.yul\":5146:5265   */\n      iszero\n      tag_399\n      jumpi\n        /* \"#utility.yul\":5184:5263   */\n      tag_400\n      tag_364\n      jump\t// in\n    tag_400:\n        /* \"#utility.yul\":5146:5265   */\n    tag_399:\n        /* \"#utility.yul\":5332:5333   */\n      0x00\n        /* \"#utility.yul\":5321:5330   */\n      dup4\n        /* \"#utility.yul\":5317:5334   */\n      add\n        /* \"#utility.yul\":5304:5335   */\n      calldataload\n        /* \"#utility.yul\":5362:5380   */\n      0xffffffffffffffff\n        /* \"#utility.yul\":5354:5360   */\n      dup2\n        /* \"#utility.yul\":5351:5381   */\n      gt\n        /* \"#utility.yul\":5348:5465   */\n      iszero\n      tag_401\n      jumpi\n        /* \"#utility.yul\":5384:5463   */\n      tag_402\n      tag_368\n      jump\t// in\n    tag_402:\n        /* \"#utility.yul\":5348:5465   */\n    tag_401:\n        /* \"#utility.yul\":5489:5552   */\n      tag_403\n        /* \"#utility.yul\":5544:5551   */\n      dup6\n        /* \"#utility.yul\":5535:5541   */\n      dup3\n        /* \"#utility.yul\":5524:5533   */\n      dup7\n        /* \"#utility.yul\":5520:5542   */\n      add\n        /* \"#utility.yul\":5489:5552   */\n      tag_352\n      jump\t// in\n    tag_403:\n        /* \"#utility.yul\":5479:5552   */\n      swap3\n      pop\n        /* \"#utility.yul\":5275:5562   */\n      pop\n        /* \"#utility.yul\":5601:5603   */\n      0x20\n        /* \"#utility.yul\":5627:5680   */\n      tag_404\n        /* \"#utility.yul\":5672:5679   */\n      dup6\n        /* \"#utility.yul\":5663:5669   */\n      dup3\n        /* \"#utility.yul\":5652:5661   */\n      dup7\n        /* \"#utility.yul\":5648:5670   */\n      add\n        /* \"#utility.yul\":5627:5680   */\n      tag_357\n      jump\t// in\n    tag_404:\n        /* \"#utility.yul\":5617:5680   */\n      swap2\n      pop\n        /* \"#utility.yul\":5572:5690   */\n      pop\n        /* \"#utility.yul\":5043:5697   */\n      swap3\n      pop\n      swap3\n      swap1\n      pop\n      jump\t// out\n        /* \"#utility.yul\":5703:6648   */\n    tag_96:\n        /* \"#utility.yul\":5799:5805   */\n      0x00\n        /* \"#utility.yul\":5807:5813   */\n      dup1\n        /* \"#utility.yul\":5815:5821   */\n      0x00\n        /* \"#utility.yul\":5823:5829   */\n      dup1\n        /* \"#utility.yul\":5872:5875   */\n      0x80\n        /* \"#utility.yul\":5860:5869   */\n      dup6\n        /* \"#utility.yul\":5851:5858   */\n      dup8\n        /* \"#utility.yul\":5847:5870   */\n      sub\n        /* \"#utility.yul\":5843:5876   */\n      slt\n        /* \"#utility.yul\":5840:5960   */\n      iszero\n      tag_406\n      jumpi\n        /* \"#utility.yul\":5879:5958   */\n      tag_407\n      tag_364\n      jump\t// in\n    tag_407:\n        /* \"#utility.yul\":5840:5960   */\n    tag_406:\n        /* \"#utility.yul\":6027:6028   */\n      0x00\n        /* \"#utility.yul\":6016:6025   */\n      dup6\n        /* \"#utility.yul\":6012:6029   */\n      add\n        /* \"#utility.yul\":5999:6030   */\n      calldataload\n        /* \"#utility.yul\":6057:6075   */\n      0xffffffffffffffff\n        /* \"#utility.yul\":6049:6055   */\n      dup2\n        /* \"#utility.yul\":6046:6076   */\n      gt\n        /* \"#utility.yul\":6043:6160   */\n      iszero\n      tag_408\n      jumpi\n        /* \"#utility.yul\":6079:6158   */\n      tag_409\n      tag_368\n      jump\t// in\n    tag_409:\n        /* \"#utility.yul\":6043:6160   */\n    tag_408:\n        /* \"#utility.yul\":6184:6247   */\n      tag_410\n        /* \"#utility.yul\":6239:6246   */\n      dup8\n        /* \"#utility.yul\":6230:6236   */\n      dup3\n        /* \"#utility.yul\":6219:6228   */\n      dup9\n        /* \"#utility.yul\":6215:6237   */\n      add\n        /* \"#utility.yul\":6184:6247   */\n      tag_352\n      jump\t// in\n    tag_410:\n        /* \"#utility.yul\":6174:6247   */\n      swap5\n      pop\n        /* \"#utility.yul\":5970:6257   */\n      pop\n        /* \"#utility.yul\":6296:6298   */\n      0x20\n        /* \"#utility.yul\":6322:6375   */\n      tag_411\n        /* \"#utility.yul\":6367:6374   */\n      dup8\n        /* \"#utility.yul\":6358:6364   */\n      dup3\n        /* \"#utility.yul\":6347:6356   */\n      dup9\n        /* \"#utility.yul\":6343:6365   */\n      add\n        /* \"#utility.yul\":6322:6375   */\n      tag_357\n      jump\t// in\n    tag_411:\n        /* \"#utility.yul\":6312:6375   */\n      swap4\n      pop\n        /* \"#utility.yul\":6267:6385   */\n      pop\n        /* \"#utility.yul\":6424:6426   */\n      0x40\n        /* \"#utility.yul\":6450:6503   */\n      tag_412\n        /* \"#utility.yul\":6495:6502   */\n      dup8\n        /* \"#utility.yul\":6486:6492   */\n      dup3\n        /* \"#utility.yul\":6475:6484   */\n      dup9\n        /* \"#utility.yul\":6471:6493   */\n      add\n        /* \"#utility.yul\":6450:6503   */\n      tag_357\n      jump\t// in\n    tag_412:\n        /* \"#utility.yul\":6440:6503   */\n      swap3\n      pop\n        /* \"#utility.yul\":6395:6513   */\n      pop\n        /* \"#utility.yul\":6552:6554   */\n      0x60\n        /* \"#utility.yul\":6578:6631   */\n      tag_413\n        /* \"#utility.yul\":6623:6630   */\n      dup8\n        /* \"#utility.yul\":6614:6620   */\n      dup3\n        /* \"#utility.yul\":6603:6612   */\n      dup9\n        /* \"#utility.yul\":6599:6621   */\n      add\n        /* \"#utility.yul\":6578:6631   */\n      tag_337\n      jump\t// in\n    tag_413:\n        /* \"#utility.yul\":6568:6631   */\n      swap2\n      pop\n        /* \"#utility.yul\":6523:6641   */\n      pop\n        /* \"#utility.yul\":5703:6648   */\n      swap3\n      swap6\n      swap2\n      swap5\n      pop\n      swap3\n      pop\n      jump\t// out\n        /* \"#utility.yul\":6654:8251   */\n    tag_76:\n        /* \"#utility.yul\":6788:6794   */\n      0x00\n        /* \"#utility.yul\":6796:6802   */\n      dup1\n        /* \"#utility.yul\":6804:6810   */\n      0x00\n        /* \"#utility.yul\":6812:6818   */\n      dup1\n        /* \"#utility.yul\":6820:6826   */\n      0x00\n        /* \"#utility.yul\":6828:6834   */\n      dup1\n        /* \"#utility.yul\":6877:6880   */\n      0xc0\n        /* \"#utility.yul\":6865:6874   */\n      dup8\n        /* \"#utility.yul\":6856:6863   */\n      dup10\n        /* \"#utility.yul\":6852:6875   */\n      sub\n        /* \"#utility.yul\":6848:6881   */\n      slt\n        /* \"#utility.yul\":6845:6965   */\n      iszero\n      tag_415\n      jumpi\n        /* \"#utility.yul\":6884:6963   */\n      tag_416\n      tag_364\n      jump\t// in\n    tag_416:\n        /* \"#utility.yul\":6845:6965   */\n    tag_415:\n        /* \"#utility.yul\":7032:7033   */\n      0x00\n        /* \"#utility.yul\":7021:7030   */\n      dup8\n        /* \"#utility.yul\":7017:7034   */\n      add\n        /* \"#utility.yul\":7004:7035   */\n      calldataload\n        /* \"#utility.yul\":7062:7080   */\n      0xffffffffffffffff\n        /* \"#utility.yul\":7054:7060   */\n      dup2\n        /* \"#utility.yul\":7051:7081   */\n      gt\n        /* \"#utility.yul\":7048:7165   */\n      iszero\n      tag_417\n      jumpi\n        /* \"#utility.yul\":7084:7163   */\n      tag_418\n      tag_368\n      jump\t// in\n    tag_418:\n        /* \"#utility.yul\":7048:7165   */\n    tag_417:\n        /* \"#utility.yul\":7189:7252   */\n      tag_419\n        /* \"#utility.yul\":7244:7251   */\n      dup10\n        /* \"#utility.yul\":7235:7241   */\n      dup3\n        /* \"#utility.yul\":7224:7233   */\n      dup11\n        /* \"#utility.yul\":7220:7242   */\n      add\n        /* \"#utility.yul\":7189:7252   */\n      tag_352\n      jump\t// in\n    tag_419:\n        /* \"#utility.yul\":7179:7252   */\n      swap7\n      pop\n        /* \"#utility.yul\":6975:7262   */\n      pop\n        /* \"#utility.yul\":7301:7303   */\n      0x20\n        /* \"#utility.yul\":7327:7380   */\n      tag_420\n        /* \"#utility.yul\":7372:7379   */\n      dup10\n        /* \"#utility.yul\":7363:7369   */\n      dup3\n        /* \"#utility.yul\":7352:7361   */\n      dup11\n        /* \"#utility.yul\":7348:7370   */\n      add\n        /* \"#utility.yul\":7327:7380   */\n      tag_357\n      jump\t// in\n    tag_420:\n        /* \"#utility.yul\":7317:7380   */\n      swap6\n      pop\n        /* \"#utility.yul\":7272:7390   */\n      pop\n        /* \"#utility.yul\":7429:7431   */\n      0x40\n        /* \"#utility.yul\":7455:7508   */\n      tag_421\n        /* \"#utility.yul\":7500:7507   */\n      dup10\n        /* \"#utility.yul\":7491:7497   */\n      dup3\n        /* \"#utility.yul\":7480:7489   */\n      dup11\n        /* \"#utility.yul\":7476:7498   */\n      add\n        /* \"#utility.yul\":7455:7508   */\n      tag_357\n      jump\t// in\n    tag_421:\n        /* \"#utility.yul\":7445:7508   */\n      swap5\n      pop\n        /* \"#utility.yul\":7400:7518   */\n      pop\n        /* \"#utility.yul\":7557:7559   */\n      0x60\n        /* \"#utility.yul\":7583:7636   */\n      tag_422\n        /* \"#utility.yul\":7628:7635   */\n      dup10\n        /* \"#utility.yul\":7619:7625   */\n      dup3\n        /* \"#utility.yul\":7608:7617   */\n      dup11\n        /* \"#utility.yul\":7604:7626   */\n      add\n        /* \"#utility.yul\":7583:7636   */\n      tag_337\n      jump\t// in\n    tag_422:\n        /* \"#utility.yul\":7573:7636   */\n      swap4\n      pop\n        /* \"#utility.yul\":7528:7646   */\n      pop\n        /* \"#utility.yul\":7713:7716   */\n      0x80\n        /* \"#utility.yul\":7702:7711   */\n      dup8\n        /* \"#utility.yul\":7698:7717   */\n      add\n        /* \"#utility.yul\":7685:7718   */\n      calldataload\n        /* \"#utility.yul\":7745:7763   */\n      0xffffffffffffffff\n        /* \"#utility.yul\":7737:7743   */\n      dup2\n        /* \"#utility.yul\":7734:7764   */\n      gt\n        /* \"#utility.yul\":7731:7848   */\n      iszero\n      tag_423\n      jumpi\n        /* \"#utility.yul\":7767:7846   */\n      tag_424\n      tag_368\n      jump\t// in\n    tag_424:\n        /* \"#utility.yul\":7731:7848   */\n    tag_423:\n        /* \"#utility.yul\":7872:7935   */\n      tag_425\n        /* \"#utility.yul\":7927:7934   */\n      dup10\n        /* \"#utility.yul\":7918:7924   */\n      dup3\n        /* \"#utility.yul\":7907:7916   */\n      dup11\n        /* \"#utility.yul\":7903:7925   */\n      add\n        /* \"#utility.yul\":7872:7935   */\n      tag_352\n      jump\t// in\n    tag_425:\n        /* \"#utility.yul\":7862:7935   */\n      swap3\n      pop\n        /* \"#utility.yul\":7656:7945   */\n      pop\n        /* \"#utility.yul\":8012:8015   */\n      0xa0\n        /* \"#utility.yul\":8001:8010   */\n      dup8\n        /* \"#utility.yul\":7997:8016   */\n      add\n        /* \"#utility.yul\":7984:8017   */\n      calldataload\n        /* \"#utility.yul\":8044:8062   */\n      0xffffffffffffffff\n        /* \"#utility.yul\":8036:8042   */\n      dup2\n        /* \"#utility.yul\":8033:8063   */\n      gt\n        /* \"#utility.yul\":8030:8147   */\n      iszero\n      tag_426\n      jumpi\n        /* \"#utility.yul\":8066:8145   */\n      tag_427\n      tag_368\n      jump\t// in\n    tag_427:\n        /* \"#utility.yul\":8030:8147   */\n    tag_426:\n        /* \"#utility.yul\":8171:8234   */\n      tag_428\n        /* \"#utility.yul\":8226:8233   */\n      dup10\n        /* \"#utility.yul\":8217:8223   */\n      dup3\n        /* \"#utility.yul\":8206:8215   */\n      dup11\n        /* \"#utility.yul\":8202:8224   */\n      add\n        /* \"#utility.yul\":8171:8234   */\n      tag_352\n      jump\t// in\n    tag_428:\n        /* \"#utility.yul\":8161:8234   */\n      swap2\n      pop\n        /* \"#utility.yul\":7955:8244   */\n      pop\n        /* \"#utility.yul\":6654:8251   */\n      swap3\n      swap6\n      pop\n      swap3\n      swap6\n      pop\n      swap3\n      swap6\n      jump\t// out\n        /* \"#utility.yul\":8257:8516   */\n    tag_429:\n        /* \"#utility.yul\":8366:8376   */\n      0x00\n        /* \"#utility.yul\":8387:8473   */\n      tag_431\n        /* \"#utility.yul\":8469:8472   */\n      dup4\n        /* \"#utility.yul\":8461:8467   */\n      dup4\n        /* \"#utility.yul\":8387:8473   */\n      tag_432\n      jump\t// in\n    tag_431:\n        /* \"#utility.yul\":8505:8509   */\n      0x60\n        /* \"#utility.yul\":8500:8503   */\n      dup4\n        /* \"#utility.yul\":8496:8510   */\n      add\n        /* \"#utility.yul\":8482:8510   */\n      swap1\n      pop\n        /* \"#utility.yul\":8257:8516   */\n      swap3\n      swap2\n      pop\n      pop\n      jump\t// out\n        /* \"#utility.yul\":8522:8630   */\n    tag_433:\n        /* \"#utility.yul\":8599:8623   */\n      tag_435\n        /* \"#utility.yul\":8617:8622   */\n      dup2\n        /* \"#utility.yul\":8599:8623   */\n      tag_436\n      jump\t// in\n    tag_435:\n        /* \"#utility.yul\":8594:8597   */\n      dup3\n        /* \"#utility.yul\":8587:8624   */\n      mstore\n        /* \"#utility.yul\":8522:8630   */\n      pop\n      pop\n      jump\t// out\n        /* \"#utility.yul\":8636:8754   */\n    tag_437:\n        /* \"#utility.yul\":8723:8747   */\n      tag_439\n        /* \"#utility.yul\":8741:8746   */\n      dup2\n        /* \"#utility.yul\":8723:8747   */\n      tag_436\n      jump\t// in\n    tag_439:\n        /* \"#utility.yul\":8718:8721   */\n      dup3\n        /* \"#utility.yul\":8711:8748   */\n      mstore\n        /* \"#utility.yul\":8636:8754   */\n      pop\n      pop\n      jump\t// out\n        /* \"#utility.yul\":8838:9730   */\n    tag_440:\n        /* \"#utility.yul\":8997:9000   */\n      0x00\n        /* \"#utility.yul\":9026:9100   */\n      tag_442\n        /* \"#utility.yul\":9094:9099   */\n      dup3\n        /* \"#utility.yul\":9026:9100   */\n      tag_443\n      jump\t// in\n    tag_442:\n        /* \"#utility.yul\":9116:9222   */\n      tag_444\n        /* \"#utility.yul\":9215:9221   */\n      dup2\n        /* \"#utility.yul\":9210:9213   */\n      dup6\n        /* \"#utility.yul\":9116:9222   */\n      tag_445\n      jump\t// in\n    tag_444:\n        /* \"#utility.yul\":9109:9222   */\n      swap4\n      pop\n        /* \"#utility.yul\":9246:9322   */\n      tag_446\n        /* \"#utility.yul\":9316:9321   */\n      dup4\n        /* \"#utility.yul\":9246:9322   */\n      tag_447\n      jump\t// in\n    tag_446:\n        /* \"#utility.yul\":9345:9352   */\n      dup1\n        /* \"#utility.yul\":9376:9377   */\n      0x00\n        /* \"#utility.yul\":9361:9705   */\n    tag_448:\n        /* \"#utility.yul\":9386:9392   */\n      dup4\n        /* \"#utility.yul\":9383:9384   */\n      dup2\n        /* \"#utility.yul\":9380:9393   */\n      lt\n        /* \"#utility.yul\":9361:9705   */\n      iszero\n      tag_450\n      jumpi\n        /* \"#utility.yul\":9462:9468   */\n      dup2\n        /* \"#utility.yul\":9456:9469   */\n      mload\n        /* \"#utility.yul\":9489:9592   */\n      tag_451\n        /* \"#utility.yul\":9588:9591   */\n      dup9\n        /* \"#utility.yul\":9573:9586   */\n      dup3\n        /* \"#utility.yul\":9489:9592   */\n      tag_429\n      jump\t// in\n    tag_451:\n        /* \"#utility.yul\":9482:9592   */\n      swap8\n      pop\n        /* \"#utility.yul\":9615:9695   */\n      tag_452\n        /* \"#utility.yul\":9688:9694   */\n      dup4\n        /* \"#utility.yul\":9615:9695   */\n      tag_453\n      jump\t// in\n    tag_452:\n        /* \"#utility.yul\":9605:9695   */\n      swap3\n      pop\n        /* \"#utility.yul\":9421:9705   */\n      pop\n        /* \"#utility.yul\":9408:9409   */\n      0x01\n        /* \"#utility.yul\":9405:9406   */\n      dup2\n        /* \"#utility.yul\":9401:9410   */\n      add\n        /* \"#utility.yul\":9396:9410   */\n      swap1\n      pop\n        /* \"#utility.yul\":9361:9705   */\n      jump(tag_448)\n    tag_450:\n        /* \"#utility.yul\":9365:9379   */\n      pop\n        /* \"#utility.yul\":9721:9724   */\n      dup6\n        /* \"#utility.yul\":9714:9724   */\n      swap4\n      pop\n        /* \"#utility.yul\":9002:9730   */\n      pop\n      pop\n      pop\n        /* \"#utility.yul\":8838:9730   */\n      swap3\n      swap2\n      pop\n      pop\n      jump\t// out\n        /* \"#utility.yul\":9736:9835   */\n    tag_454:\n        /* \"#utility.yul\":9807:9828   */\n      tag_456\n        /* \"#utility.yul\":9822:9827   */\n      dup2\n        /* \"#utility.yul\":9807:9828   */\n      tag_457\n      jump\t// in\n    tag_456:\n        /* \"#utility.yul\":9802:9805   */\n      dup3\n        /* \"#utility.yul\":9795:9829   */\n      mstore\n        /* \"#utility.yul\":9736:9835   */\n      pop\n      pop\n      jump\t// out\n        /* \"#utility.yul\":9841:9950   */\n    tag_458:\n        /* \"#utility.yul\":9922:9943   */\n      tag_460\n        /* \"#utility.yul\":9937:9942   */\n      dup2\n        /* \"#utility.yul\":9922:9943   */\n      tag_457\n      jump\t// in\n    tag_460:\n        /* \"#utility.yul\":9917:9920   */\n      dup3\n        /* \"#utility.yul\":9910:9944   */\n      mstore\n        /* \"#utility.yul\":9841:9950   */\n      pop\n      pop\n      jump\t// out\n        /* \"#utility.yul\":9956:10074   */\n    tag_461:\n        /* \"#utility.yul\":10043:10067   */\n      tag_463\n        /* \"#utility.yul\":10061:10066   */\n      dup2\n        /* \"#utility.yul\":10043:10067   */\n      tag_464\n      jump\t// in\n    tag_463:\n        /* \"#utility.yul\":10038:10041   */\n      dup3\n        /* \"#utility.yul\":10031:10068   */\n      mstore\n        /* \"#utility.yul\":9956:10074   */\n      pop\n      pop\n      jump\t// out\n        /* \"#utility.yul\":10104:10421   */\n    tag_465:\n        /* \"#utility.yul\":10220:10223   */\n      0x00\n        /* \"#utility.yul\":10241:10330   */\n      tag_467\n        /* \"#utility.yul\":10323:10329   */\n      dup4\n        /* \"#utility.yul\":10318:10321   */\n      dup6\n        /* \"#utility.yul\":10241:10330   */\n      tag_468\n      jump\t// in\n    tag_467:\n        /* \"#utility.yul\":10234:10330   */\n      swap4\n      pop\n        /* \"#utility.yul\":10340:10383   */\n      tag_469\n        /* \"#utility.yul\":10376:10382   */\n      dup4\n        /* \"#utility.yul\":10371:10374   */\n      dup6\n        /* \"#utility.yul\":10364:10369   */\n      dup5\n        /* \"#utility.yul\":10340:10383   */\n      tag_332\n      jump\t// in\n    tag_469:\n        /* \"#utility.yul\":10408:10414   */\n      dup3\n        /* \"#utility.yul\":10403:10406   */\n      dup5\n        /* \"#utility.yul\":10399:10415   */\n      add\n        /* \"#utility.yul\":10392:10415   */\n      swap1\n      pop\n        /* \"#utility.yul\":10104:10421   */\n      swap4\n      swap3\n      pop\n      pop\n      pop\n      jump\t// out\n        /* \"#utility.yul\":10427:10791   */\n    tag_470:\n        /* \"#utility.yul\":10515:10518   */\n      0x00\n        /* \"#utility.yul\":10543:10582   */\n      tag_472\n        /* \"#utility.yul\":10576:10581   */\n      dup3\n        /* \"#utility.yul\":10543:10582   */\n      tag_473\n      jump\t// in\n    tag_472:\n        /* \"#utility.yul\":10598:10669   */\n      tag_474\n        /* \"#utility.yul\":10662:10668   */\n      dup2\n        /* \"#utility.yul\":10657:10660   */\n      dup6\n        /* \"#utility.yul\":10598:10669   */\n      tag_475\n      jump\t// in\n    tag_474:\n        /* \"#utility.yul\":10591:10669   */\n      swap4\n      pop\n        /* \"#utility.yul\":10678:10730   */\n      tag_476\n        /* \"#utility.yul\":10723:10729   */\n      dup2\n        /* \"#utility.yul\":10718:10721   */\n      dup6\n        /* \"#utility.yul\":10711:10715   */\n      0x20\n        /* \"#utility.yul\":10704:10709   */\n      dup7\n        /* \"#utility.yul\":10700:10716   */\n      add\n        /* \"#utility.yul\":10678:10730   */\n      tag_477\n      jump\t// in\n    tag_476:\n        /* \"#utility.yul\":10755:10784   */\n      tag_478\n        /* \"#utility.yul\":10777:10783   */\n      dup2\n        /* \"#utility.yul\":10755:10784   */\n      tag_479\n      jump\t// in\n    tag_478:\n        /* \"#utility.yul\":10750:10753   */\n      dup5\n        /* \"#utility.yul\":10746:10785   */\n      add\n        /* \"#utility.yul\":10739:10785   */\n      swap2\n      pop\n        /* \"#utility.yul\":10519:10791   */\n      pop\n        /* \"#utility.yul\":10427:10791   */\n      swap3\n      swap2\n      pop\n      pop\n      jump\t// out\n        /* \"#utility.yul\":10797:11174   */\n    tag_480:\n        /* \"#utility.yul\":10903:10906   */\n      0x00\n        /* \"#utility.yul\":10931:10970   */\n      tag_482\n        /* \"#utility.yul\":10964:10969   */\n      dup3\n        /* \"#utility.yul\":10931:10970   */\n      tag_473\n      jump\t// in\n    tag_482:\n        /* \"#utility.yul\":10986:11075   */\n      tag_483\n        /* \"#utility.yul\":11068:11074   */\n      dup2\n        /* \"#utility.yul\":11063:11066   */\n      dup6\n        /* \"#utility.yul\":10986:11075   */\n      tag_468\n      jump\t// in\n    tag_483:\n        /* \"#utility.yul\":10979:11075   */\n      swap4\n      pop\n        /* \"#utility.yul\":11084:11136   */\n      tag_484\n        /* \"#utility.yul\":11129:11135   */\n      dup2\n        /* \"#utility.yul\":11124:11127   */\n      dup6\n        /* \"#utility.yul\":11117:11121   */\n      0x20\n        /* \"#utility.yul\":11110:11115   */\n      dup7\n        /* \"#utility.yul\":11106:11122   */\n      add\n        /* \"#utility.yul\":11084:11136   */\n      tag_477\n      jump\t// in\n    tag_484:\n        /* \"#utility.yul\":11161:11167   */\n      dup1\n        /* \"#utility.yul\":11156:11159   */\n      dup5\n        /* \"#utility.yul\":11152:11168   */\n      add\n        /* \"#utility.yul\":11145:11168   */\n      swap2\n      pop\n        /* \"#utility.yul\":10907:11174   */\n      pop\n        /* \"#utility.yul\":10797:11174   */\n      swap3\n      swap2\n      pop\n      pop\n      jump\t// out\n        /* \"#utility.yul\":11180:11546   */\n    tag_485:\n        /* \"#utility.yul\":11322:11325   */\n      0x00\n        /* \"#utility.yul\":11343:11410   */\n      tag_487\n        /* \"#utility.yul\":11407:11409   */\n      0x1f\n        /* \"#utility.yul\":11402:11405   */\n      dup4\n        /* \"#utility.yul\":11343:11410   */\n      tag_475\n      jump\t// in\n    tag_487:\n        /* \"#utility.yul\":11336:11410   */\n      swap2\n      pop\n        /* \"#utility.yul\":11419:11512   */\n      tag_488\n        /* \"#utility.yul\":11508:11511   */\n      dup3\n        /* \"#utility.yul\":11419:11512   */\n      tag_489\n      jump\t// in\n    tag_488:\n        /* \"#utility.yul\":11537:11539   */\n      0x20\n        /* \"#utility.yul\":11532:11535   */\n      dup3\n        /* \"#utility.yul\":11528:11540   */\n      add\n        /* \"#utility.yul\":11521:11540   */\n      swap1\n      pop\n        /* \"#utility.yul\":11180:11546   */\n      swap2\n      swap1\n      pop\n      jump\t// out\n        /* \"#utility.yul\":11552:11918   */\n    tag_490:\n        /* \"#utility.yul\":11694:11697   */\n      0x00\n        /* \"#utility.yul\":11715:11782   */\n      tag_492\n        /* \"#utility.yul\":11779:11781   */\n      0x19\n        /* \"#utility.yul\":11774:11777   */\n      dup4\n        /* \"#utility.yul\":11715:11782   */\n      tag_475\n      jump\t// in\n    tag_492:\n        /* \"#utility.yul\":11708:11782   */\n      swap2\n      pop\n        /* \"#utility.yul\":11791:11884   */\n      tag_493\n        /* \"#utility.yul\":11880:11883   */\n      dup3\n        /* \"#utility.yul\":11791:11884   */\n      tag_494\n      jump\t// in\n    tag_493:\n        /* \"#utility.yul\":11909:11911   */\n      0x20\n        /* \"#utility.yul\":11904:11907   */\n      dup3\n        /* \"#utility.yul\":11900:11912   */\n      add\n        /* \"#utility.yul\":11893:11912   */\n      swap1\n      pop\n        /* \"#utility.yul\":11552:11918   */\n      swap2\n      swap1\n      pop\n      jump\t// out\n        /* \"#utility.yul\":11924:12290   */\n    tag_495:\n        /* \"#utility.yul\":12066:12069   */\n      0x00\n        /* \"#utility.yul\":12087:12154   */\n      tag_497\n        /* \"#utility.yul\":12151:12153   */\n      0x26\n        /* \"#utility.yul\":12146:12149   */\n      dup4\n        /* \"#utility.yul\":12087:12154   */\n      tag_475\n      jump\t// in\n    tag_497:\n        /* \"#utility.yul\":12080:12154   */\n      swap2\n      pop\n        /* \"#utility.yul\":12163:12256   */\n      tag_498\n        /* \"#utility.yul\":12252:12255   */\n      dup3\n        /* \"#utility.yul\":12163:12256   */\n      tag_499\n      jump\t// in\n    tag_498:\n        /* \"#utility.yul\":12281:12283   */\n      0x40\n        /* \"#utility.yul\":12276:12279   */\n      dup3\n        /* \"#utility.yul\":12272:12284   */\n      add\n        /* \"#utility.yul\":12265:12284   */\n      swap1\n      pop\n        /* \"#utility.yul\":11924:12290   */\n      swap2\n      swap1\n      pop\n      jump\t// out\n        /* \"#utility.yul\":12296:12662   */\n    tag_500:\n        /* \"#utility.yul\":12438:12441   */\n      0x00\n        /* \"#utility.yul\":12459:12526   */\n      tag_502\n        /* \"#utility.yul\":12523:12525   */\n      0x1c\n        /* \"#utility.yul\":12518:12521   */\n      dup4\n        /* \"#utility.yul\":12459:12526   */\n      tag_475\n      jump\t// in\n    tag_502:\n        /* \"#utility.yul\":12452:12526   */\n      swap2\n      pop\n        /* \"#utility.yul\":12535:12628   */\n      tag_503\n        /* \"#utility.yul\":12624:12627   */\n      dup3\n        /* \"#utility.yul\":12535:12628   */\n      tag_504\n      jump\t// in\n    tag_503:\n        /* \"#utility.yul\":12653:12655   */\n      0x20\n        /* \"#utility.yul\":12648:12651   */\n      dup3\n        /* \"#utility.yul\":12644:12656   */\n      add\n        /* \"#utility.yul\":12637:12656   */\n      swap1\n      pop\n        /* \"#utility.yul\":12296:12662   */\n      swap2\n      swap1\n      pop\n      jump\t// out\n        /* \"#utility.yul\":12668:13034   */\n    tag_505:\n        /* \"#utility.yul\":12810:12813   */\n      0x00\n        /* \"#utility.yul\":12831:12898   */\n      tag_507\n        /* \"#utility.yul\":12895:12897   */\n      0x15\n        /* \"#utility.yul\":12890:12893   */\n      dup4\n        /* \"#utility.yul\":12831:12898   */\n      tag_475\n      jump\t// in\n    tag_507:\n        /* \"#utility.yul\":12824:12898   */\n      swap2\n      pop\n        /* \"#utility.yul\":12907:13000   */\n      tag_508\n        /* \"#utility.yul\":12996:12999   */\n      dup3\n        /* \"#utility.yul\":12907:13000   */\n      tag_509\n      jump\t// in\n    tag_508:\n        /* \"#utility.yul\":13025:13027   */\n      0x20\n        /* \"#utility.yul\":13020:13023   */\n      dup3\n        /* \"#utility.yul\":13016:13028   */\n      add\n        /* \"#utility.yul\":13009:13028   */\n      swap1\n      pop\n        /* \"#utility.yul\":12668:13034   */\n      swap2\n      swap1\n      pop\n      jump\t// out\n        /* \"#utility.yul\":13040:13406   */\n    tag_510:\n        /* \"#utility.yul\":13182:13185   */\n      0x00\n        /* \"#utility.yul\":13203:13270   */\n      tag_512\n        /* \"#utility.yul\":13267:13269   */\n      0x1e\n        /* \"#utility.yul\":13262:13265   */\n      dup4\n        /* \"#utility.yul\":13203:13270   */\n      tag_475\n      jump\t// in\n    tag_512:\n        /* \"#utility.yul\":13196:13270   */\n      swap2\n      pop\n        /* \"#utility.yul\":13279:13372   */\n      tag_513\n        /* \"#utility.yul\":13368:13371   */\n      dup3\n        /* \"#utility.yul\":13279:13372   */\n      tag_514\n      jump\t// in\n    tag_513:\n        /* \"#utility.yul\":13397:13399   */\n      0x20\n        /* \"#utility.yul\":13392:13395   */\n      dup3\n        /* \"#utility.yul\":13388:13400   */\n      add\n        /* \"#utility.yul\":13381:13400   */\n      swap1\n      pop\n        /* \"#utility.yul\":13040:13406   */\n      swap2\n      swap1\n      pop\n      jump\t// out\n        /* \"#utility.yul\":13412:13778   */\n    tag_515:\n        /* \"#utility.yul\":13554:13557   */\n      0x00\n        /* \"#utility.yul\":13575:13642   */\n      tag_517\n        /* \"#utility.yul\":13639:13641   */\n      0x24\n        /* \"#utility.yul\":13634:13637   */\n      dup4\n        /* \"#utility.yul\":13575:13642   */\n      tag_475\n      jump\t// in\n    tag_517:\n        /* \"#utility.yul\":13568:13642   */\n      swap2\n      pop\n        /* \"#utility.yul\":13651:13744   */\n      tag_518\n        /* \"#utility.yul\":13740:13743   */\n      dup3\n        /* \"#utility.yul\":13651:13744   */\n      tag_519\n      jump\t// in\n    tag_518:\n        /* \"#utility.yul\":13769:13771   */\n      0x40\n        /* \"#utility.yul\":13764:13767   */\n      dup3\n        /* \"#utility.yul\":13760:13772   */\n      add\n        /* \"#utility.yul\":13753:13772   */\n      swap1\n      pop\n        /* \"#utility.yul\":13412:13778   */\n      swap2\n      swap1\n      pop\n      jump\t// out\n        /* \"#utility.yul\":13784:14150   */\n    tag_520:\n        /* \"#utility.yul\":13926:13929   */\n      0x00\n        /* \"#utility.yul\":13947:14014   */\n      tag_522\n        /* \"#utility.yul\":14011:14013   */\n      0x28\n        /* \"#utility.yul\":14006:14009   */\n      dup4\n        /* \"#utility.yul\":13947:14014   */\n      tag_475\n      jump\t// in\n    tag_522:\n        /* \"#utility.yul\":13940:14014   */\n      swap2\n      pop\n        /* \"#utility.yul\":14023:14116   */\n      tag_523\n        /* \"#utility.yul\":14112:14115   */\n      dup3\n        /* \"#utility.yul\":14023:14116   */\n      tag_524\n      jump\t// in\n    tag_523:\n        /* \"#utility.yul\":14141:14143   */\n      0x40\n        /* \"#utility.yul\":14136:14139   */\n      dup3\n        /* \"#utility.yul\":14132:14144   */\n      add\n        /* \"#utility.yul\":14125:14144   */\n      swap1\n      pop\n        /* \"#utility.yul\":13784:14150   */\n      swap2\n      swap1\n      pop\n      jump\t// out\n        /* \"#utility.yul\":14156:14522   */\n    tag_525:\n        /* \"#utility.yul\":14298:14301   */\n      0x00\n        /* \"#utility.yul\":14319:14386   */\n      tag_527\n        /* \"#utility.yul\":14383:14385   */\n      0x14\n        /* \"#utility.yul\":14378:14381   */\n      dup4\n        /* \"#utility.yul\":14319:14386   */\n      tag_475\n      jump\t// in\n    tag_527:\n        /* \"#utility.yul\":14312:14386   */\n      swap2\n      pop\n        /* \"#utility.yul\":14395:14488   */\n      tag_528\n        /* \"#utility.yul\":14484:14487   */\n      dup3\n        /* \"#utility.yul\":14395:14488   */\n      tag_529\n      jump\t// in\n    tag_528:\n        /* \"#utility.yul\":14513:14515   */\n      0x20\n        /* \"#utility.yul\":14508:14511   */\n      dup3\n        /* \"#utility.yul\":14504:14516   */\n      add\n        /* \"#utility.yul\":14497:14516   */\n      swap1\n      pop\n        /* \"#utility.yul\":14156:14522   */\n      swap2\n      swap1\n      pop\n      jump\t// out\n        /* \"#utility.yul\":14528:14894   */\n    tag_530:\n        /* \"#utility.yul\":14670:14673   */\n      0x00\n        /* \"#utility.yul\":14691:14758   */\n      tag_532\n        /* \"#utility.yul\":14755:14757   */\n      0x20\n        /* \"#utility.yul\":14750:14753   */\n      dup4\n        /* \"#utility.yul\":14691:14758   */\n      tag_475\n      jump\t// in\n    tag_532:\n        /* \"#utility.yul\":14684:14758   */\n      swap2\n      pop\n        /* \"#utility.yul\":14767:14860   */\n      tag_533\n        /* \"#utility.yul\":14856:14859   */\n      dup3\n        /* \"#utility.yul\":14767:14860   */\n      tag_534\n      jump\t// in\n    tag_533:\n        /* \"#utility.yul\":14885:14887   */\n      0x20\n        /* \"#utility.yul\":14880:14883   */\n      dup3\n        /* \"#utility.yul\":14876:14888   */\n      add\n        /* \"#utility.yul\":14869:14888   */\n      swap1\n      pop\n        /* \"#utility.yul\":14528:14894   */\n      swap2\n      swap1\n      pop\n      jump\t// out\n        /* \"#utility.yul\":14900:15266   */\n    tag_535:\n        /* \"#utility.yul\":15042:15045   */\n      0x00\n        /* \"#utility.yul\":15063:15130   */\n      tag_537\n        /* \"#utility.yul\":15127:15129   */\n      0x12\n        /* \"#utility.yul\":15122:15125   */\n      dup4\n        /* \"#utility.yul\":15063:15130   */\n      tag_475\n      jump\t// in\n    tag_537:\n        /* \"#utility.yul\":15056:15130   */\n      swap2\n      pop\n        /* \"#utility.yul\":15139:15232   */\n      tag_538\n        /* \"#utility.yul\":15228:15231   */\n      dup3\n        /* \"#utility.yul\":15139:15232   */\n      tag_539\n      jump\t// in\n    tag_538:\n        /* \"#utility.yul\":15257:15259   */\n      0x20\n        /* \"#utility.yul\":15252:15255   */\n      dup3\n        /* \"#utility.yul\":15248:15260   */\n      add\n        /* \"#utility.yul\":15241:15260   */\n      swap1\n      pop\n        /* \"#utility.yul\":14900:15266   */\n      swap2\n      swap1\n      pop\n      jump\t// out\n        /* \"#utility.yul\":15272:15638   */\n    tag_540:\n        /* \"#utility.yul\":15414:15417   */\n      0x00\n        /* \"#utility.yul\":15435:15502   */\n      tag_542\n        /* \"#utility.yul\":15499:15501   */\n      0x25\n        /* \"#utility.yul\":15494:15497   */\n      dup4\n        /* \"#utility.yul\":15435:15502   */\n      tag_475\n      jump\t// in\n    tag_542:\n        /* \"#utility.yul\":15428:15502   */\n      swap2\n      pop\n        /* \"#utility.yul\":15511:15604   */\n      tag_543\n        /* \"#utility.yul\":15600:15603   */\n      dup3\n        /* \"#utility.yul\":15511:15604   */\n      tag_544\n      jump\t// in\n    tag_543:\n        /* \"#utility.yul\":15629:15631   */\n      0x40\n        /* \"#utility.yul\":15624:15627   */\n      dup3\n        /* \"#utility.yul\":15620:15632   */\n      add\n        /* \"#utility.yul\":15613:15632   */\n      swap1\n      pop\n        /* \"#utility.yul\":15272:15638   */\n      swap2\n      swap1\n      pop\n      jump\t// out\n        /* \"#utility.yul\":15724:16429   */\n    tag_545:\n        /* \"#utility.yul\":15869:15873   */\n      0x60\n        /* \"#utility.yul\":15864:15867   */\n      dup3\n        /* \"#utility.yul\":15860:15874   */\n      add\n        /* \"#utility.yul\":15961:15965   */\n      0x00\n        /* \"#utility.yul\":15954:15959   */\n      dup3\n        /* \"#utility.yul\":15950:15966   */\n      add\n        /* \"#utility.yul\":15944:15967   */\n      mload\n        /* \"#utility.yul\":15980:16043   */\n      tag_547\n        /* \"#utility.yul\":16037:16041   */\n      0x00\n        /* \"#utility.yul\":16032:16035   */\n      dup6\n        /* \"#utility.yul\":16028:16042   */\n      add\n        /* \"#utility.yul\":16014:16026   */\n      dup3\n        /* \"#utility.yul\":15980:16043   */\n      tag_548\n      jump\t// in\n    tag_547:\n        /* \"#utility.yul\":15884:16053   */\n      pop\n        /* \"#utility.yul\":16141:16145   */\n      0x20\n        /* \"#utility.yul\":16134:16139   */\n      dup3\n        /* \"#utility.yul\":16130:16146   */\n      add\n        /* \"#utility.yul\":16124:16147   */\n      mload\n        /* \"#utility.yul\":16160:16223   */\n      tag_549\n        /* \"#utility.yul\":16217:16221   */\n      0x20\n        /* \"#utility.yul\":16212:16215   */\n      dup6\n        /* \"#utility.yul\":16208:16222   */\n      add\n        /* \"#utility.yul\":16194:16206   */\n      dup3\n        /* \"#utility.yul\":16160:16223   */\n      tag_548\n      jump\t// in\n    tag_549:\n        /* \"#utility.yul\":16063:16233   */\n      pop\n        /* \"#utility.yul\":16330:16334   */\n      0x40\n        /* \"#utility.yul\":16323:16328   */\n      dup3\n        /* \"#utility.yul\":16319:16335   */\n      add\n        /* \"#utility.yul\":16313:16336   */\n      mload\n        /* \"#utility.yul\":16349:16412   */\n      tag_550\n        /* \"#utility.yul\":16406:16410   */\n      0x40\n        /* \"#utility.yul\":16401:16404   */\n      dup6\n        /* \"#utility.yul\":16397:16411   */\n      add\n        /* \"#utility.yul\":16383:16395   */\n      dup3\n        /* \"#utility.yul\":16349:16412   */\n      tag_548\n      jump\t// in\n    tag_550:\n        /* \"#utility.yul\":16243:16422   */\n      pop\n        /* \"#utility.yul\":15838:16429   */\n      pop\n        /* \"#utility.yul\":15724:16429   */\n      pop\n      pop\n      jump\t// out\n        /* \"#utility.yul\":16509:17164   */\n    tag_432:\n        /* \"#utility.yul\":16636:16640   */\n      0x60\n        /* \"#utility.yul\":16631:16634   */\n      dup3\n        /* \"#utility.yul\":16627:16641   */\n      add\n        /* \"#utility.yul\":16724:16728   */\n      0x00\n        /* \"#utility.yul\":16717:16722   */\n      dup3\n        /* \"#utility.yul\":16713:16729   */\n      add\n        /* \"#utility.yul\":16707:16730   */\n      mload\n        /* \"#utility.yul\":16743:16800   */\n      tag_552\n        /* \"#utility.yul\":16794:16798   */\n      0x00\n        /* \"#utility.yul\":16789:16792   */\n      dup6\n        /* \"#utility.yul\":16785:16799   */\n      add\n        /* \"#utility.yul\":16771:16783   */\n      dup3\n        /* \"#utility.yul\":16743:16800   */\n      tag_454\n      jump\t// in\n    tag_552:\n        /* \"#utility.yul\":16651:16810   */\n      pop\n        /* \"#utility.yul\":16892:16896   */\n      0x20\n        /* \"#utility.yul\":16885:16890   */\n      dup3\n        /* \"#utility.yul\":16881:16897   */\n      add\n        /* \"#utility.yul\":16875:16898   */\n      mload\n        /* \"#utility.yul\":16911:16968   */\n      tag_553\n        /* \"#utility.yul\":16962:16966   */\n      0x20\n        /* \"#utility.yul\":16957:16960   */\n      dup6\n        /* \"#utility.yul\":16953:16967   */\n      add\n        /* \"#utility.yul\":16939:16951   */\n      dup3\n        /* \"#utility.yul\":16911:16968   */\n      tag_454\n      jump\t// in\n    tag_553:\n        /* \"#utility.yul\":16820:16978   */\n      pop\n        /* \"#utility.yul\":17065:17069   */\n      0x40\n        /* \"#utility.yul\":17058:17063   */\n      dup3\n        /* \"#utility.yul\":17054:17070   */\n      add\n        /* \"#utility.yul\":17048:17071   */\n      mload\n        /* \"#utility.yul\":17084:17147   */\n      tag_554\n        /* \"#utility.yul\":17141:17145   */\n      0x40\n        /* \"#utility.yul\":17136:17139   */\n      dup6\n        /* \"#utility.yul\":17132:17146   */\n      add\n        /* \"#utility.yul\":17118:17130   */\n      dup3\n        /* \"#utility.yul\":17084:17147   */\n      tag_433\n      jump\t// in\n    tag_554:\n        /* \"#utility.yul\":16988:17157   */\n      pop\n        /* \"#utility.yul\":16605:17164   */\n      pop\n        /* \"#utility.yul\":16509:17164   */\n      pop\n      pop\n      jump\t// out\n        /* \"#utility.yul\":17170:17278   */\n    tag_548:\n        /* \"#utility.yul\":17247:17271   */\n      tag_556\n        /* \"#utility.yul\":17265:17270   */\n      dup2\n        /* \"#utility.yul\":17247:17271   */\n      tag_557\n      jump\t// in\n    tag_556:\n        /* \"#utility.yul\":17242:17245   */\n      dup3\n        /* \"#utility.yul\":17235:17272   */\n      mstore\n        /* \"#utility.yul\":17170:17278   */\n      pop\n      pop\n      jump\t// out\n        /* \"#utility.yul\":17284:17402   */\n    tag_558:\n        /* \"#utility.yul\":17371:17395   */\n      tag_560\n        /* \"#utility.yul\":17389:17394   */\n      dup2\n        /* \"#utility.yul\":17371:17395   */\n      tag_557\n      jump\t// in\n    tag_560:\n        /* \"#utility.yul\":17366:17369   */\n      dup3\n        /* \"#utility.yul\":17359:17396   */\n      mstore\n        /* \"#utility.yul\":17284:17402   */\n      pop\n      pop\n      jump\t// out\n        /* \"#utility.yul\":17408:17703   */\n    tag_135:\n        /* \"#utility.yul\":17550:17553   */\n      0x00\n        /* \"#utility.yul\":17572:17677   */\n      tag_562\n        /* \"#utility.yul\":17673:17676   */\n      dup3\n        /* \"#utility.yul\":17664:17670   */\n      dup5\n        /* \"#utility.yul\":17656:17662   */\n      dup7\n        /* \"#utility.yul\":17572:17677   */\n      tag_465\n      jump\t// in\n    tag_562:\n        /* \"#utility.yul\":17565:17677   */\n      swap2\n      pop\n        /* \"#utility.yul\":17694:17697   */\n      dup2\n        /* \"#utility.yul\":17687:17697   */\n      swap1\n      pop\n        /* \"#utility.yul\":17408:17703   */\n      swap4\n      swap3\n      pop\n      pop\n      pop\n      jump\t// out\n        /* \"#utility.yul\":17709:17984   */\n    tag_206:\n        /* \"#utility.yul\":17841:17844   */\n      0x00\n        /* \"#utility.yul\":17863:17958   */\n      tag_564\n        /* \"#utility.yul\":17954:17957   */\n      dup3\n        /* \"#utility.yul\":17945:17951   */\n      dup5\n        /* \"#utility.yul\":17863:17958   */\n      tag_480\n      jump\t// in\n    tag_564:\n        /* \"#utility.yul\":17856:17958   */\n      swap2\n      pop\n        /* \"#utility.yul\":17975:17978   */\n      dup2\n        /* \"#utility.yul\":17968:17978   */\n      swap1\n      pop\n        /* \"#utility.yul\":17709:17984   */\n      swap3\n      swap2\n      pop\n      pop\n      jump\t// out\n        /* \"#utility.yul\":17990:18212   */\n    tag_32:\n        /* \"#utility.yul\":18083:18087   */\n      0x00\n        /* \"#utility.yul\":18121:18123   */\n      0x20\n        /* \"#utility.yul\":18110:18119   */\n      dup3\n        /* \"#utility.yul\":18106:18124   */\n      add\n        /* \"#utility.yul\":18098:18124   */\n      swap1\n      pop\n        /* \"#utility.yul\":18134:18205   */\n      tag_566\n        /* \"#utility.yul\":18202:18203   */\n      0x00\n        /* \"#utility.yul\":18191:18200   */\n      dup4\n        /* \"#utility.yul\":18187:18204   */\n      add\n        /* \"#utility.yul\":18178:18184   */\n      dup5\n        /* \"#utility.yul\":18134:18205   */\n      tag_437\n      jump\t// in\n    tag_566:\n        /* \"#utility.yul\":17990:18212   */\n      swap3\n      swap2\n      pop\n      pop\n      jump\t// out\n        /* \"#utility.yul\":18218:18428   */\n    tag_57:\n        /* \"#utility.yul\":18305:18309   */\n      0x00\n        /* \"#utility.yul\":18343:18345   */\n      0x20\n        /* \"#utility.yul\":18332:18341   */\n      dup3\n        /* \"#utility.yul\":18328:18346   */\n      add\n        /* \"#utility.yul\":18320:18346   */\n      swap1\n      pop\n        /* \"#utility.yul\":18356:18421   */\n      tag_568\n        /* \"#utility.yul\":18418:18419   */\n      0x00\n        /* \"#utility.yul\":18407:18416   */\n      dup4\n        /* \"#utility.yul\":18403:18420   */\n      add\n        /* \"#utility.yul\":18394:18400   */\n      dup5\n        /* \"#utility.yul\":18356:18421   */\n      tag_458\n      jump\t// in\n    tag_568:\n        /* \"#utility.yul\":18218:18428   */\n      swap3\n      swap2\n      pop\n      pop\n      jump\t// out\n        /* \"#utility.yul\":18434:18852   */\n    tag_63:\n        /* \"#utility.yul\":18571:18575   */\n      0x00\n        /* \"#utility.yul\":18609:18611   */\n      0x60\n        /* \"#utility.yul\":18598:18607   */\n      dup3\n        /* \"#utility.yul\":18594:18612   */\n      add\n        /* \"#utility.yul\":18586:18612   */\n      swap1\n      pop\n        /* \"#utility.yul\":18622:18687   */\n      tag_570\n        /* \"#utility.yul\":18684:18685   */\n      0x00\n        /* \"#utility.yul\":18673:18682   */\n      dup4\n        /* \"#utility.yul\":18669:18686   */\n      add\n        /* \"#utility.yul\":18660:18666   */\n      dup7\n        /* \"#utility.yul\":18622:18687   */\n      tag_458\n      jump\t// in\n    tag_570:\n        /* \"#utility.yul\":18697:18763   */\n      tag_571\n        /* \"#utility.yul\":18759:18761   */\n      0x20\n        /* \"#utility.yul\":18748:18757   */\n      dup4\n        /* \"#utility.yul\":18744:18762   */\n      add\n        /* \"#utility.yul\":18735:18741   */\n      dup6\n        /* \"#utility.yul\":18697:18763   */\n      tag_458\n      jump\t// in\n    tag_571:\n        /* \"#utility.yul\":18773:18845   */\n      tag_572\n        /* \"#utility.yul\":18841:18843   */\n      0x40\n        /* \"#utility.yul\":18830:18839   */\n      dup4\n        /* \"#utility.yul\":18826:18844   */\n      add\n        /* \"#utility.yul\":18817:18823   */\n      dup5\n        /* \"#utility.yul\":18773:18845   */\n      tag_437\n      jump\t// in\n    tag_572:\n        /* \"#utility.yul\":18434:18852   */\n      swap5\n      swap4\n      pop\n      pop\n      pop\n      pop\n      jump\t// out\n        /* \"#utility.yul\":18858:19264   */\n    tag_99:\n        /* \"#utility.yul\":18989:18993   */\n      0x00\n        /* \"#utility.yul\":19027:19029   */\n      0x60\n        /* \"#utility.yul\":19016:19025   */\n      dup3\n        /* \"#utility.yul\":19012:19030   */\n      add\n        /* \"#utility.yul\":19004:19030   */\n      swap1\n      pop\n        /* \"#utility.yul\":19040:19105   */\n      tag_574\n        /* \"#utility.yul\":19102:19103   */\n      0x00\n        /* \"#utility.yul\":19091:19100   */\n      dup4\n        /* \"#utility.yul\":19087:19104   */\n      add\n        /* \"#utility.yul\":19078:19084   */\n      dup7\n        /* \"#utility.yul\":19040:19105   */\n      tag_458\n      jump\t// in\n    tag_574:\n        /* \"#utility.yul\":19115:19181   */\n      tag_575\n        /* \"#utility.yul\":19177:19179   */\n      0x20\n        /* \"#utility.yul\":19166:19175   */\n      dup4\n        /* \"#utility.yul\":19162:19180   */\n      add\n        /* \"#utility.yul\":19153:19159   */\n      dup6\n        /* \"#utility.yul\":19115:19181   */\n      tag_458\n      jump\t// in\n    tag_575:\n        /* \"#utility.yul\":19191:19257   */\n      tag_576\n        /* \"#utility.yul\":19253:19255   */\n      0x40\n        /* \"#utility.yul\":19242:19251   */\n      dup4\n        /* \"#utility.yul\":19238:19256   */\n      add\n        /* \"#utility.yul\":19229:19235   */\n      dup5\n        /* \"#utility.yul\":19191:19257   */\n      tag_458\n      jump\t// in\n    tag_576:\n        /* \"#utility.yul\":18858:19264   */\n      swap5\n      swap4\n      pop\n      pop\n      pop\n      pop\n      jump\t// out\n        /* \"#utility.yul\":19270:19492   */\n    tag_52:\n        /* \"#utility.yul\":19363:19367   */\n      0x00\n        /* \"#utility.yul\":19401:19403   */\n      0x20\n        /* \"#utility.yul\":19390:19399   */\n      dup3\n        /* \"#utility.yul\":19386:19404   */\n      add\n        /* \"#utility.yul\":19378:19404   */\n      swap1\n      pop\n        /* \"#utility.yul\":19414:19485   */\n      tag_578\n        /* \"#utility.yul\":19482:19483   */\n      0x00\n        /* \"#utility.yul\":19471:19480   */\n      dup4\n        /* \"#utility.yul\":19467:19484   */\n      add\n        /* \"#utility.yul\":19458:19464   */\n      dup5\n        /* \"#utility.yul\":19414:19485   */\n      tag_461\n      jump\t// in\n    tag_578:\n        /* \"#utility.yul\":19270:19492   */\n      swap3\n      swap2\n      pop\n      pop\n      jump\t// out\n        /* \"#utility.yul\":19498:20373   */\n    tag_69:\n        /* \"#utility.yul\":19785:19789   */\n      0x00\n        /* \"#utility.yul\":19823:19826   */\n      0x80\n        /* \"#utility.yul\":19812:19821   */\n      dup3\n        /* \"#utility.yul\":19808:19827   */\n      add\n        /* \"#utility.yul\":19800:19827   */\n      swap1\n      pop\n        /* \"#utility.yul\":19837:19908   */\n      tag_580\n        /* \"#utility.yul\":19905:19906   */\n      0x00\n        /* \"#utility.yul\":19894:19903   */\n      dup4\n        /* \"#utility.yul\":19890:19907   */\n      add\n        /* \"#utility.yul\":19881:19887   */\n      dup8\n        /* \"#utility.yul\":19837:19908   */\n      tag_461\n      jump\t// in\n    tag_580:\n        /* \"#utility.yul\":19955:19964   */\n      dup2\n        /* \"#utility.yul\":19949:19953   */\n      dup2\n        /* \"#utility.yul\":19945:19965   */\n      sub\n        /* \"#utility.yul\":19940:19942   */\n      0x20\n        /* \"#utility.yul\":19929:19938   */\n      dup4\n        /* \"#utility.yul\":19925:19943   */\n      add\n        /* \"#utility.yul\":19918:19966   */\n      mstore\n        /* \"#utility.yul\":19983:20061   */\n      tag_581\n        /* \"#utility.yul\":20056:20060   */\n      dup2\n        /* \"#utility.yul\":20047:20053   */\n      dup7\n        /* \"#utility.yul\":19983:20061   */\n      tag_470\n      jump\t// in\n    tag_581:\n        /* \"#utility.yul\":19975:20061   */\n      swap1\n      pop\n        /* \"#utility.yul\":20071:20143   */\n      tag_582\n        /* \"#utility.yul\":20139:20141   */\n      0x40\n        /* \"#utility.yul\":20128:20137   */\n      dup4\n        /* \"#utility.yul\":20124:20142   */\n      add\n        /* \"#utility.yul\":20115:20121   */\n      dup6\n        /* \"#utility.yul\":20071:20143   */\n      tag_558\n      jump\t// in\n    tag_582:\n        /* \"#utility.yul\":20190:20199   */\n      dup2\n        /* \"#utility.yul\":20184:20188   */\n      dup2\n        /* \"#utility.yul\":20180:20200   */\n      sub\n        /* \"#utility.yul\":20175:20177   */\n      0x60\n        /* \"#utility.yul\":20164:20173   */\n      dup4\n        /* \"#utility.yul\":20160:20178   */\n      add\n        /* \"#utility.yul\":20153:20201   */\n      mstore\n        /* \"#utility.yul\":20218:20366   */\n      tag_583\n        /* \"#utility.yul\":20361:20365   */\n      dup2\n        /* \"#utility.yul\":20352:20358   */\n      dup5\n        /* \"#utility.yul\":20218:20366   */\n      tag_440\n      jump\t// in\n    tag_583:\n        /* \"#utility.yul\":20210:20366   */\n      swap1\n      pop\n        /* \"#utility.yul\":19498:20373   */\n      swap6\n      swap5\n      pop\n      pop\n      pop\n      pop\n      pop\n      jump\t// out\n        /* \"#utility.yul\":20379:20692   */\n    tag_43:\n        /* \"#utility.yul\":20492:20496   */\n      0x00\n        /* \"#utility.yul\":20530:20532   */\n      0x20\n        /* \"#utility.yul\":20519:20528   */\n      dup3\n        /* \"#utility.yul\":20515:20533   */\n      add\n        /* \"#utility.yul\":20507:20533   */\n      swap1\n      pop\n        /* \"#utility.yul\":20579:20588   */\n      dup2\n        /* \"#utility.yul\":20573:20577   */\n      dup2\n        /* \"#utility.yul\":20569:20589   */\n      sub\n        /* \"#utility.yul\":20565:20566   */\n      0x00\n        /* \"#utility.yul\":20554:20563   */\n      dup4\n        /* \"#utility.yul\":20550:20567   */\n      add\n        /* \"#utility.yul\":20543:20590   */\n      mstore\n        /* \"#utility.yul\":20607:20685   */\n      tag_585\n        /* \"#utility.yul\":20680:20684   */\n      dup2\n        /* \"#utility.yul\":20671:20677   */\n      dup5\n        /* \"#utility.yul\":20607:20685   */\n      tag_470\n      jump\t// in\n    tag_585:\n        /* \"#utility.yul\":20599:20685   */\n      swap1\n      pop\n        /* \"#utility.yul\":20379:20692   */\n      swap3\n      swap2\n      pop\n      pop\n      jump\t// out\n        /* \"#utility.yul\":20698:21218   */\n    tag_112:\n        /* \"#utility.yul\":20887:20891   */\n      0x00\n        /* \"#utility.yul\":20925:20928   */\n      0x80\n        /* \"#utility.yul\":20914:20923   */\n      dup3\n        /* \"#utility.yul\":20910:20929   */\n      add\n        /* \"#utility.yul\":20902:20929   */\n      swap1\n      pop\n        /* \"#utility.yul\":20975:20984   */\n      dup2\n        /* \"#utility.yul\":20969:20973   */\n      dup2\n        /* \"#utility.yul\":20965:20985   */\n      sub\n        /* \"#utility.yul\":20961:20962   */\n      0x00\n        /* \"#utility.yul\":20950:20959   */\n      dup4\n        /* \"#utility.yul\":20946:20963   */\n      add\n        /* \"#utility.yul\":20939:20986   */\n      mstore\n        /* \"#utility.yul\":21003:21081   */\n      tag_587\n        /* \"#utility.yul\":21076:21080   */\n      dup2\n        /* \"#utility.yul\":21067:21073   */\n      dup6\n        /* \"#utility.yul\":21003:21081   */\n      tag_470\n      jump\t// in\n    tag_587:\n        /* \"#utility.yul\":20995:21081   */\n      swap1\n      pop\n        /* \"#utility.yul\":21091:21211   */\n      tag_588\n        /* \"#utility.yul\":21207:21209   */\n      0x20\n        /* \"#utility.yul\":21196:21205   */\n      dup4\n        /* \"#utility.yul\":21192:21210   */\n      add\n        /* \"#utility.yul\":21183:21189   */\n      dup5\n        /* \"#utility.yul\":21091:21211   */\n      tag_545\n      jump\t// in\n    tag_588:\n        /* \"#utility.yul\":20698:21218   */\n      swap4\n      swap3\n      pop\n      pop\n      pop\n      jump\t// out\n        /* \"#utility.yul\":21224:21643   */\n    tag_196:\n        /* \"#utility.yul\":21390:21394   */\n      0x00\n        /* \"#utility.yul\":21428:21430   */\n      0x20\n        /* \"#utility.yul\":21417:21426   */\n      dup3\n        /* \"#utility.yul\":21413:21431   */\n      add\n        /* \"#utility.yul\":21405:21431   */\n      swap1\n      pop\n        /* \"#utility.yul\":21477:21486   */\n      dup2\n        /* \"#utility.yul\":21471:21475   */\n      dup2\n        /* \"#utility.yul\":21467:21487   */\n      sub\n        /* \"#utility.yul\":21463:21464   */\n      0x00\n        /* \"#utility.yul\":21452:21461   */\n      dup4\n        /* \"#utility.yul\":21448:21465   */\n      add\n        /* \"#utility.yul\":21441:21488   */\n      mstore\n        /* \"#utility.yul\":21505:21636   */\n      tag_590\n        /* \"#utility.yul\":21631:21635   */\n      dup2\n        /* \"#utility.yul\":21505:21636   */\n      tag_485\n      jump\t// in\n    tag_590:\n        /* \"#utility.yul\":21497:21636   */\n      swap1\n      pop\n        /* \"#utility.yul\":21224:21643   */\n      swap2\n      swap1\n      pop\n      jump\t// out\n        /* \"#utility.yul\":21649:22068   */\n    tag_209:\n        /* \"#utility.yul\":21815:21819   */\n      0x00\n        /* \"#utility.yul\":21853:21855   */\n      0x20\n        /* \"#utility.yul\":21842:21851   */\n      dup3\n        /* \"#utility.yul\":21838:21856   */\n      add\n        /* \"#utility.yul\":21830:21856   */\n      swap1\n      pop\n        /* \"#utility.yul\":21902:21911   */\n      dup2\n        /* \"#utility.yul\":21896:21900   */\n      dup2\n        /* \"#utility.yul\":21892:21912   */\n      sub\n        /* \"#utility.yul\":21888:21889   */\n      0x00\n        /* \"#utility.yul\":21877:21886   */\n      dup4\n        /* \"#utility.yul\":21873:21890   */\n      add\n        /* \"#utility.yul\":21866:21913   */\n      mstore\n        /* \"#utility.yul\":21930:22061   */\n      tag_592\n        /* \"#utility.yul\":22056:22060   */\n      dup2\n        /* \"#utility.yul\":21930:22061   */\n      tag_490\n      jump\t// in\n    tag_592:\n        /* \"#utility.yul\":21922:22061   */\n      swap1\n      pop\n        /* \"#utility.yul\":21649:22068   */\n      swap2\n      swap1\n      pop\n      jump\t// out\n        /* \"#utility.yul\":22074:22493   */\n    tag_242:\n        /* \"#utility.yul\":22240:22244   */\n      0x00\n        /* \"#utility.yul\":22278:22280   */\n      0x20\n        /* \"#utility.yul\":22267:22276   */\n      dup3\n        /* \"#utility.yul\":22263:22281   */\n      add\n        /* \"#utility.yul\":22255:22281   */\n      swap1\n      pop\n        /* \"#utility.yul\":22327:22336   */\n      dup2\n        /* \"#utility.yul\":22321:22325   */\n      dup2\n        /* \"#utility.yul\":22317:22337   */\n      sub\n        /* \"#utility.yul\":22313:22314   */\n      0x00\n        /* \"#utility.yul\":22302:22311   */\n      dup4\n        /* \"#utility.yul\":22298:22315   */\n      add\n        /* \"#utility.yul\":22291:22338   */\n      mstore\n        /* \"#utility.yul\":22355:22486   */\n      tag_594\n        /* \"#utility.yul\":22481:22485   */\n      dup2\n        /* \"#utility.yul\":22355:22486   */\n      tag_495\n      jump\t// in\n    tag_594:\n        /* \"#utility.yul\":22347:22486   */\n      swap1\n      pop\n        /* \"#utility.yul\":22074:22493   */\n      swap2\n      swap1\n      pop\n      jump\t// out\n        /* \"#utility.yul\":22499:22918   */\n    tag_146:\n        /* \"#utility.yul\":22665:22669   */\n      0x00\n        /* \"#utility.yul\":22703:22705   */\n      0x20\n        /* \"#utility.yul\":22692:22701   */\n      dup3\n        /* \"#utility.yul\":22688:22706   */\n      add\n        /* \"#utility.yul\":22680:22706   */\n      swap1\n      pop\n        /* \"#utility.yul\":22752:22761   */\n      dup2\n        /* \"#utility.yul\":22746:22750   */\n      dup2\n        /* \"#utility.yul\":22742:22762   */\n      sub\n        /* \"#utility.yul\":22738:22739   */\n      0x00\n        /* \"#utility.yul\":22727:22736   */\n      dup4\n        /* \"#utility.yul\":22723:22740   */\n      add\n        /* \"#utility.yul\":22716:22763   */\n      mstore\n        /* \"#utility.yul\":22780:22911   */\n      tag_596\n        /* \"#utility.yul\":22906:22910   */\n      dup2\n        /* \"#utility.yul\":22780:22911   */\n      tag_500\n      jump\t// in\n    tag_596:\n        /* \"#utility.yul\":22772:22911   */\n      swap1\n      pop\n        /* \"#utility.yul\":22499:22918   */\n      swap2\n      swap1\n      pop\n      jump\t// out\n        /* \"#utility.yul\":22924:23343   */\n    tag_192:\n        /* \"#utility.yul\":23090:23094   */\n      0x00\n        /* \"#utility.yul\":23128:23130   */\n      0x20\n        /* \"#utility.yul\":23117:23126   */\n      dup3\n        /* \"#utility.yul\":23113:23131   */\n      add\n        /* \"#utility.yul\":23105:23131   */\n      swap1\n      pop\n        /* \"#utility.yul\":23177:23186   */\n      dup2\n        /* \"#utility.yul\":23171:23175   */\n      dup2\n        /* \"#utility.yul\":23167:23187   */\n      sub\n        /* \"#utility.yul\":23163:23164   */\n      0x00\n        /* \"#utility.yul\":23152:23161   */\n      dup4\n        /* \"#utility.yul\":23148:23165   */\n      add\n        /* \"#utility.yul\":23141:23188   */\n      mstore\n        /* \"#utility.yul\":23205:23336   */\n      tag_598\n        /* \"#utility.yul\":23331:23335   */\n      dup2\n        /* \"#utility.yul\":23205:23336   */\n      tag_505\n      jump\t// in\n    tag_598:\n        /* \"#utility.yul\":23197:23336   */\n      swap1\n      pop\n        /* \"#utility.yul\":22924:23343   */\n      swap2\n      swap1\n      pop\n      jump\t// out\n        /* \"#utility.yul\":23349:23768   */\n    tag_142:\n        /* \"#utility.yul\":23515:23519   */\n      0x00\n        /* \"#utility.yul\":23553:23555   */\n      0x20\n        /* \"#utility.yul\":23542:23551   */\n      dup3\n        /* \"#utility.yul\":23538:23556   */\n      add\n        /* \"#utility.yul\":23530:23556   */\n      swap1\n      pop\n        /* \"#utility.yul\":23602:23611   */\n      dup2\n        /* \"#utility.yul\":23596:23600   */\n      dup2\n        /* \"#utility.yul\":23592:23612   */\n      sub\n        /* \"#utility.yul\":23588:23589   */\n      0x00\n        /* \"#utility.yul\":23577:23586   */\n      dup4\n        /* \"#utility.yul\":23573:23590   */\n      add\n        /* \"#utility.yul\":23566:23613   */\n      mstore\n        /* \"#utility.yul\":23630:23761   */\n      tag_600\n        /* \"#utility.yul\":23756:23760   */\n      dup2\n        /* \"#utility.yul\":23630:23761   */\n      tag_510\n      jump\t// in\n    tag_600:\n        /* \"#utility.yul\":23622:23761   */\n      swap1\n      pop\n        /* \"#utility.yul\":23349:23768   */\n      swap2\n      swap1\n      pop\n      jump\t// out\n        /* \"#utility.yul\":23774:24193   */\n    tag_200:\n        /* \"#utility.yul\":23940:23944   */\n      0x00\n        /* \"#utility.yul\":23978:23980   */\n      0x20\n        /* \"#utility.yul\":23967:23976   */\n      dup3\n        /* \"#utility.yul\":23963:23981   */\n      add\n        /* \"#utility.yul\":23955:23981   */\n      swap1\n      pop\n        /* \"#utility.yul\":24027:24036   */\n      dup2\n        /* \"#utility.yul\":24021:24025   */\n      dup2\n        /* \"#utility.yul\":24017:24037   */\n      sub\n        /* \"#utility.yul\":24013:24014   */\n      0x00\n        /* \"#utility.yul\":24002:24011   */\n      dup4\n        /* \"#utility.yul\":23998:24015   */\n      add\n        /* \"#utility.yul\":23991:24038   */\n      mstore\n        /* \"#utility.yul\":24055:24186   */\n      tag_602\n        /* \"#utility.yul\":24181:24185   */\n      dup2\n        /* \"#utility.yul\":24055:24186   */\n      tag_515\n      jump\t// in\n    tag_602:\n        /* \"#utility.yul\":24047:24186   */\n      swap1\n      pop\n        /* \"#utility.yul\":23774:24193   */\n      swap2\n      swap1\n      pop\n      jump\t// out\n        /* \"#utility.yul\":24199:24618   */\n    tag_188:\n        /* \"#utility.yul\":24365:24369   */\n      0x00\n        /* \"#utility.yul\":24403:24405   */\n      0x20\n        /* \"#utility.yul\":24392:24401   */\n      dup3\n        /* \"#utility.yul\":24388:24406   */\n      add\n        /* \"#utility.yul\":24380:24406   */\n      swap1\n      pop\n        /* \"#utility.yul\":24452:24461   */\n      dup2\n        /* \"#utility.yul\":24446:24450   */\n      dup2\n        /* \"#utility.yul\":24442:24462   */\n      sub\n        /* \"#utility.yul\":24438:24439   */\n      0x00\n        /* \"#utility.yul\":24427:24436   */\n      dup4\n        /* \"#utility.yul\":24423:24440   */\n      add\n        /* \"#utility.yul\":24416:24463   */\n      mstore\n        /* \"#utility.yul\":24480:24611   */\n      tag_604\n        /* \"#utility.yul\":24606:24610   */\n      dup2\n        /* \"#utility.yul\":24480:24611   */\n      tag_520\n      jump\t// in\n    tag_604:\n        /* \"#utility.yul\":24472:24611   */\n      swap1\n      pop\n        /* \"#utility.yul\":24199:24618   */\n      swap2\n      swap1\n      pop\n      jump\t// out\n        /* \"#utility.yul\":24624:25043   */\n    tag_284:\n        /* \"#utility.yul\":24790:24794   */\n      0x00\n        /* \"#utility.yul\":24828:24830   */\n      0x20\n        /* \"#utility.yul\":24817:24826   */\n      dup3\n        /* \"#utility.yul\":24813:24831   */\n      add\n        /* \"#utility.yul\":24805:24831   */\n      swap1\n      pop\n        /* \"#utility.yul\":24877:24886   */\n      dup2\n        /* \"#utility.yul\":24871:24875   */\n      dup2\n        /* \"#utility.yul\":24867:24887   */\n      sub\n        /* \"#utility.yul\":24863:24864   */\n      0x00\n        /* \"#utility.yul\":24852:24861   */\n      dup4\n        /* \"#utility.yul\":24848:24865   */\n      add\n        /* \"#utility.yul\":24841:24888   */\n      mstore\n        /* \"#utility.yul\":24905:25036   */\n      tag_606\n        /* \"#utility.yul\":25031:25035   */\n      dup2\n        /* \"#utility.yul\":24905:25036   */\n      tag_525\n      jump\t// in\n    tag_606:\n        /* \"#utility.yul\":24897:25036   */\n      swap1\n      pop\n        /* \"#utility.yul\":24624:25043   */\n      swap2\n      swap1\n      pop\n      jump\t// out\n        /* \"#utility.yul\":25049:25468   */\n    tag_177:\n        /* \"#utility.yul\":25215:25219   */\n      0x00\n        /* \"#utility.yul\":25253:25255   */\n      0x20\n        /* \"#utility.yul\":25242:25251   */\n      dup3\n        /* \"#utility.yul\":25238:25256   */\n      add\n        /* \"#utility.yul\":25230:25256   */\n      swap1\n      pop\n        /* \"#utility.yul\":25302:25311   */\n      dup2\n        /* \"#utility.yul\":25296:25300   */\n      dup2\n        /* \"#utility.yul\":25292:25312   */\n      sub\n        /* \"#utility.yul\":25288:25289   */\n      0x00\n        /* \"#utility.yul\":25277:25286   */\n      dup4\n        /* \"#utility.yul\":25273:25290   */\n      add\n        /* \"#utility.yul\":25266:25313   */\n      mstore\n        /* \"#utility.yul\":25330:25461   */\n      tag_608\n        /* \"#utility.yul\":25456:25460   */\n      dup2\n        /* \"#utility.yul\":25330:25461   */\n      tag_530\n      jump\t// in\n    tag_608:\n        /* \"#utility.yul\":25322:25461   */\n      swap1\n      pop\n        /* \"#utility.yul\":25049:25468   */\n      swap2\n      swap1\n      pop\n      jump\t// out\n        /* \"#utility.yul\":25474:25893   */\n    tag_138:\n        /* \"#utility.yul\":25640:25644   */\n      0x00\n        /* \"#utility.yul\":25678:25680   */\n      0x20\n        /* \"#utility.yul\":25667:25676   */\n      dup3\n        /* \"#utility.yul\":25663:25681   */\n      add\n        /* \"#utility.yul\":25655:25681   */\n      swap1\n      pop\n        /* \"#utility.yul\":25727:25736   */\n      dup2\n        /* \"#utility.yul\":25721:25725   */\n      dup2\n        /* \"#utility.yul\":25717:25737   */\n      sub\n        /* \"#utility.yul\":25713:25714   */\n      0x00\n        /* \"#utility.yul\":25702:25711   */\n      dup4\n        /* \"#utility.yul\":25698:25715   */\n      add\n        /* \"#utility.yul\":25691:25738   */\n      mstore\n        /* \"#utility.yul\":25755:25886   */\n      tag_610\n        /* \"#utility.yul\":25881:25885   */\n      dup2\n        /* \"#utility.yul\":25755:25886   */\n      tag_535\n      jump\t// in\n    tag_610:\n        /* \"#utility.yul\":25747:25886   */\n      swap1\n      pop\n        /* \"#utility.yul\":25474:25893   */\n      swap2\n      swap1\n      pop\n      jump\t// out\n        /* \"#utility.yul\":25899:26318   */\n    tag_236:\n        /* \"#utility.yul\":26065:26069   */\n      0x00\n        /* \"#utility.yul\":26103:26105   */\n      0x20\n        /* \"#utility.yul\":26092:26101   */\n      dup3\n        /* \"#utility.yul\":26088:26106   */\n      add\n        /* \"#utility.yul\":26080:26106   */\n      swap1\n      pop\n        /* \"#utility.yul\":26152:26161   */\n      dup2\n        /* \"#utility.yul\":26146:26150   */\n      dup2\n        /* \"#utility.yul\":26142:26162   */\n      sub\n        /* \"#utility.yul\":26138:26139   */\n      0x00\n        /* \"#utility.yul\":26127:26136   */\n      dup4\n        /* \"#utility.yul\":26123:26140   */\n      add\n        /* \"#utility.yul\":26116:26163   */\n      mstore\n        /* \"#utility.yul\":26180:26311   */\n      tag_612\n        /* \"#utility.yul\":26306:26310   */\n      dup2\n        /* \"#utility.yul\":26180:26311   */\n      tag_540\n      jump\t// in\n    tag_612:\n        /* \"#utility.yul\":26172:26311   */\n      swap1\n      pop\n        /* \"#utility.yul\":25899:26318   */\n      swap2\n      swap1\n      pop\n      jump\t// out\n        /* \"#utility.yul\":26324:26546   */\n    tag_93:\n        /* \"#utility.yul\":26417:26421   */\n      0x00\n        /* \"#utility.yul\":26455:26457   */\n      0x20\n        /* \"#utility.yul\":26444:26453   */\n      dup3\n        /* \"#utility.yul\":26440:26458   */\n      add\n        /* \"#utility.yul\":26432:26458   */\n      swap1\n      pop\n        /* \"#utility.yul\":26468:26539   */\n      tag_614\n        /* \"#utility.yul\":26536:26537   */\n      0x00\n        /* \"#utility.yul\":26525:26534   */\n      dup4\n        /* \"#utility.yul\":26521:26538   */\n      add\n        /* \"#utility.yul\":26512:26518   */\n      dup5\n        /* \"#utility.yul\":26468:26539   */\n      tag_558\n      jump\t// in\n    tag_614:\n        /* \"#utility.yul\":26324:26546   */\n      swap3\n      swap2\n      pop\n      pop\n      jump\t// out\n        /* \"#utility.yul\":26552:26994   */\n    tag_38:\n        /* \"#utility.yul\":26701:26705   */\n      0x00\n        /* \"#utility.yul\":26739:26741   */\n      0x60\n        /* \"#utility.yul\":26728:26737   */\n      dup3\n        /* \"#utility.yul\":26724:26742   */\n      add\n        /* \"#utility.yul\":26716:26742   */\n      swap1\n      pop\n        /* \"#utility.yul\":26752:26823   */\n      tag_616\n        /* \"#utility.yul\":26820:26821   */\n      0x00\n        /* \"#utility.yul\":26809:26818   */\n      dup4\n        /* \"#utility.yul\":26805:26822   */\n      add\n        /* \"#utility.yul\":26796:26802   */\n      dup7\n        /* \"#utility.yul\":26752:26823   */\n      tag_558\n      jump\t// in\n    tag_616:\n        /* \"#utility.yul\":26833:26905   */\n      tag_617\n        /* \"#utility.yul\":26901:26903   */\n      0x20\n        /* \"#utility.yul\":26890:26899   */\n      dup4\n        /* \"#utility.yul\":26886:26904   */\n      add\n        /* \"#utility.yul\":26877:26883   */\n      dup6\n        /* \"#utility.yul\":26833:26905   */\n      tag_558\n      jump\t// in\n    tag_617:\n        /* \"#utility.yul\":26915:26987   */\n      tag_618\n        /* \"#utility.yul\":26983:26985   */\n      0x40\n        /* \"#utility.yul\":26972:26981   */\n      dup4\n        /* \"#utility.yul\":26968:26986   */\n      add\n        /* \"#utility.yul\":26959:26965   */\n      dup5\n        /* \"#utility.yul\":26915:26987   */\n      tag_558\n      jump\t// in\n    tag_618:\n        /* \"#utility.yul\":26552:26994   */\n      swap5\n      swap4\n      pop\n      pop\n      pop\n      pop\n      jump\t// out\n        /* \"#utility.yul\":27000:27129   */\n    tag_327:\n        /* \"#utility.yul\":27034:27040   */\n      0x00\n        /* \"#utility.yul\":27061:27081   */\n      tag_620\n      tag_621\n      jump\t// in\n    tag_620:\n        /* \"#utility.yul\":27051:27081   */\n      swap1\n      pop\n        /* \"#utility.yul\":27090:27123   */\n      tag_622\n        /* \"#utility.yul\":27118:27122   */\n      dup3\n        /* \"#utility.yul\":27110:27116   */\n      dup3\n        /* \"#utility.yul\":27090:27123   */\n      tag_623\n      jump\t// in\n    tag_622:\n        /* \"#utility.yul\":27000:27129   */\n      swap2\n      swap1\n      pop\n      jump\t// out\n        /* \"#utility.yul\":27135:27210   */\n    tag_621:\n        /* \"#utility.yul\":27168:27174   */\n      0x00\n        /* \"#utility.yul\":27201:27203   */\n      0x40\n        /* \"#utility.yul\":27195:27204   */\n      mload\n        /* \"#utility.yul\":27185:27204   */\n      swap1\n      pop\n        /* \"#utility.yul\":27135:27210   */\n      swap1\n      jump\t// out\n        /* \"#utility.yul\":27216:27524   */\n    tag_326:\n        /* \"#utility.yul\":27278:27282   */\n      0x00\n        /* \"#utility.yul\":27368:27386   */\n      0xffffffffffffffff\n        /* \"#utility.yul\":27360:27366   */\n      dup3\n        /* \"#utility.yul\":27357:27387   */\n      gt\n        /* \"#utility.yul\":27354:27410   */\n      iszero\n      tag_626\n      jumpi\n        /* \"#utility.yul\":27390:27408   */\n      tag_627\n      tag_628\n      jump\t// in\n    tag_627:\n        /* \"#utility.yul\":27354:27410   */\n    tag_626:\n        /* \"#utility.yul\":27428:27457   */\n      tag_629\n        /* \"#utility.yul\":27450:27456   */\n      dup3\n        /* \"#utility.yul\":27428:27457   */\n      tag_479\n      jump\t// in\n    tag_629:\n        /* \"#utility.yul\":27420:27457   */\n      swap1\n      pop\n        /* \"#utility.yul\":27512:27516   */\n      0x20\n        /* \"#utility.yul\":27506:27510   */\n      dup2\n        /* \"#utility.yul\":27502:27517   */\n      add\n        /* \"#utility.yul\":27494:27517   */\n      swap1\n      pop\n        /* \"#utility.yul\":27216:27524   */\n      swap2\n      swap1\n      pop\n      jump\t// out\n        /* \"#utility.yul\":27530:27682   */\n    tag_447:\n        /* \"#utility.yul\":27617:27621   */\n      0x00\n        /* \"#utility.yul\":27640:27643   */\n      dup2\n        /* \"#utility.yul\":27632:27643   */\n      swap1\n      pop\n        /* \"#utility.yul\":27670:27674   */\n      0x20\n        /* \"#utility.yul\":27665:27668   */\n      dup3\n        /* \"#utility.yul\":27661:27675   */\n      add\n        /* \"#utility.yul\":27653:27675   */\n      swap1\n      pop\n        /* \"#utility.yul\":27530:27682   */\n      swap2\n      swap1\n      pop\n      jump\t// out\n        /* \"#utility.yul\":27688:27822   */\n    tag_443:\n        /* \"#utility.yul\":27775:27781   */\n      0x00\n        /* \"#utility.yul\":27809:27814   */\n      dup2\n        /* \"#utility.yul\":27803:27815   */\n      mload\n        /* \"#utility.yul\":27793:27815   */\n      swap1\n      pop\n        /* \"#utility.yul\":27688:27822   */\n      swap2\n      swap1\n      pop\n      jump\t// out\n        /* \"#utility.yul\":27828:27927   */\n    tag_473:\n        /* \"#utility.yul\":27880:27886   */\n      0x00\n        /* \"#utility.yul\":27914:27919   */\n      dup2\n        /* \"#utility.yul\":27908:27920   */\n      mload\n        /* \"#utility.yul\":27898:27920   */\n      swap1\n      pop\n        /* \"#utility.yul\":27828:27927   */\n      swap2\n      swap1\n      pop\n      jump\t// out\n        /* \"#utility.yul\":27933:28066   */\n    tag_453:\n        /* \"#utility.yul\":28023:28027   */\n      0x00\n        /* \"#utility.yul\":28055:28059   */\n      0x20\n        /* \"#utility.yul\":28050:28053   */\n      dup3\n        /* \"#utility.yul\":28046:28060   */\n      add\n        /* \"#utility.yul\":28038:28060   */\n      swap1\n      pop\n        /* \"#utility.yul\":27933:28066   */\n      swap2\n      swap1\n      pop\n      jump\t// out\n        /* \"#utility.yul\":28072:28276   */\n    tag_445:\n        /* \"#utility.yul\":28191:28202   */\n      0x00\n        /* \"#utility.yul\":28225:28231   */\n      dup3\n        /* \"#utility.yul\":28220:28223   */\n      dup3\n        /* \"#utility.yul\":28213:28232   */\n      mstore\n        /* \"#utility.yul\":28265:28269   */\n      0x20\n        /* \"#utility.yul\":28260:28263   */\n      dup3\n        /* \"#utility.yul\":28256:28270   */\n      add\n        /* \"#utility.yul\":28241:28270   */\n      swap1\n      pop\n        /* \"#utility.yul\":28072:28276   */\n      swap3\n      swap2\n      pop\n      pop\n      jump\t// out\n        /* \"#utility.yul\":28282:28451   */\n    tag_475:\n        /* \"#utility.yul\":28366:28377   */\n      0x00\n        /* \"#utility.yul\":28400:28406   */\n      dup3\n        /* \"#utility.yul\":28395:28398   */\n      dup3\n        /* \"#utility.yul\":28388:28407   */\n      mstore\n        /* \"#utility.yul\":28440:28444   */\n      0x20\n        /* \"#utility.yul\":28435:28438   */\n      dup3\n        /* \"#utility.yul\":28431:28445   */\n      add\n        /* \"#utility.yul\":28416:28445   */\n      swap1\n      pop\n        /* \"#utility.yul\":28282:28451   */\n      swap3\n      swap2\n      pop\n      pop\n      jump\t// out\n        /* \"#utility.yul\":28457:28605   */\n    tag_468:\n        /* \"#utility.yul\":28559:28570   */\n      0x00\n        /* \"#utility.yul\":28596:28599   */\n      dup2\n        /* \"#utility.yul\":28581:28599   */\n      swap1\n      pop\n        /* \"#utility.yul\":28457:28605   */\n      swap3\n      swap2\n      pop\n      pop\n      jump\t// out\n        /* \"#utility.yul\":28611:28916   */\n    tag_152:\n        /* \"#utility.yul\":28651:28654   */\n      0x00\n        /* \"#utility.yul\":28670:28690   */\n      tag_638\n        /* \"#utility.yul\":28688:28689   */\n      dup3\n        /* \"#utility.yul\":28670:28690   */\n      tag_557\n      jump\t// in\n    tag_638:\n        /* \"#utility.yul\":28665:28690   */\n      swap2\n      pop\n        /* \"#utility.yul\":28704:28724   */\n      tag_639\n        /* \"#utility.yul\":28722:28723   */\n      dup4\n        /* \"#utility.yul\":28704:28724   */\n      tag_557\n      jump\t// in\n    tag_639:\n        /* \"#utility.yul\":28699:28724   */\n      swap3\n      pop\n        /* \"#utility.yul\":28858:28859   */\n      dup3\n        /* \"#utility.yul\":28790:28856   */\n      0xffffffffffffffffffffffffffffffffffffffffffffffffffffffffffffffff\n        /* \"#utility.yul\":28786:28860   */\n      sub\n        /* \"#utility.yul\":28783:28784   */\n      dup3\n        /* \"#utility.yul\":28780:28861   */\n      gt\n        /* \"#utility.yul\":28777:28884   */\n      iszero\n      tag_640\n      jumpi\n        /* \"#utility.yul\":28864:28882   */\n      tag_641\n      tag_642\n      jump\t// in\n    tag_641:\n        /* \"#utility.yul\":28777:28884   */\n    tag_640:\n        /* \"#utility.yul\":28908:28909   */\n      dup3\n        /* \"#utility.yul\":28905:28906   */\n      dup3\n        /* \"#utility.yul\":28901:28910   */\n      add\n        /* \"#utility.yul\":28894:28910   */\n      swap1\n      pop\n        /* \"#utility.yul\":28611:28916   */\n      swap3\n      swap2\n      pop\n      pop\n      jump\t// out\n        /* \"#utility.yul\":28922:29107   */\n    tag_246:\n        /* \"#utility.yul\":28962:28963   */\n      0x00\n        /* \"#utility.yul\":28979:28999   */\n      tag_644\n        /* \"#utility.yul\":28997:28998   */\n      dup3\n        /* \"#utility.yul\":28979:28999   */\n      tag_557\n      jump\t// in\n    tag_644:\n        /* \"#utility.yul\":28974:28999   */\n      swap2\n      pop\n        /* \"#utility.yul\":29013:29033   */\n      tag_645\n        /* \"#utility.yul\":29031:29032   */\n      dup4\n        /* \"#utility.yul\":29013:29033   */\n      tag_557\n      jump\t// in\n    tag_645:\n        /* \"#utility.yul\":29008:29033   */\n      swap3\n      pop\n        /* \"#utility.yul\":29052:29053   */\n      dup3\n        /* \"#utility.yul\":29042:29077   */\n      tag_646\n      jumpi\n        /* \"#utility.yul\":29057:29075   */\n      tag_647\n      tag_648\n      jump\t// in\n    tag_647:\n        /* \"#utility.yul\":29042:29077   */\n    tag_646:\n        /* \"#utility.yul\":29099:29100   */\n      dup3\n        /* \"#utility.yul\":29096:29097   */\n      dup3\n        /* \"#utility.yul\":29092:29101   */\n      div\n        /* \"#utility.yul\":29087:29101   */\n      swap1\n      pop\n        /* \"#utility.yul\":28922:29107   */\n      swap3\n      swap2\n      pop\n      pop\n      jump\t// out\n        /* \"#utility.yul\":29113:29461   */\n    tag_248:\n        /* \"#utility.yul\":29153:29160   */\n      0x00\n        /* \"#utility.yul\":29176:29196   */\n      tag_650\n        /* \"#utility.yul\":29194:29195   */\n      dup3\n        /* \"#utility.yul\":29176:29196   */\n      tag_557\n      jump\t// in\n    tag_650:\n        /* \"#utility.yul\":29171:29196   */\n      swap2\n      pop\n        /* \"#utility.yul\":29210:29230   */\n      tag_651\n        /* \"#utility.yul\":29228:29229   */\n      dup4\n        /* \"#utility.yul\":29210:29230   */\n      tag_557\n      jump\t// in\n    tag_651:\n        /* \"#utility.yul\":29205:29230   */\n      swap3\n      pop\n        /* \"#utility.yul\":29398:29399   */\n      dup2\n        /* \"#utility.yul\":29330:29396   */\n      0xffffffffffffffffffffffffffffffffffffffffffffffffffffffffffffffff\n        /* \"#utility.yul\":29326:29400   */\n      div\n        /* \"#utility.yul\":29323:29324   */\n      dup4\n        /* \"#utility.yul\":29320:29401   */\n      gt\n        /* \"#utility.yul\":29315:29316   */\n      dup3\n        /* \"#utility.yul\":29308:29317   */\n      iszero\n        /* \"#utility.yul\":29301:29318   */\n      iszero\n        /* \"#utility.yul\":29297:29402   */\n      and\n        /* \"#utility.yul\":29294:29425   */\n      iszero\n      tag_652\n      jumpi\n        /* \"#utility.yul\":29405:29423   */\n      tag_653\n      tag_642\n      jump\t// in\n    tag_653:\n        /* \"#utility.yul\":29294:29425   */\n    tag_652:\n        /* \"#utility.yul\":29453:29454   */\n      dup3\n        /* \"#utility.yul\":29450:29451   */\n      dup3\n        /* \"#utility.yul\":29446:29455   */\n      mul\n        /* \"#utility.yul\":29435:29455   */\n      swap1\n      pop\n        /* \"#utility.yul\":29113:29461   */\n      swap3\n      swap2\n      pop\n      pop\n      jump\t// out\n        /* \"#utility.yul\":29467:29563   */\n    tag_436:\n        /* \"#utility.yul\":29504:29511   */\n      0x00\n        /* \"#utility.yul\":29533:29557   */\n      tag_655\n        /* \"#utility.yul\":29551:29556   */\n      dup3\n        /* \"#utility.yul\":29533:29557   */\n      tag_656\n      jump\t// in\n    tag_655:\n        /* \"#utility.yul\":29522:29557   */\n      swap1\n      pop\n        /* \"#utility.yul\":29467:29563   */\n      swap2\n      swap1\n      pop\n      jump\t// out\n        /* \"#utility.yul\":29569:29659   */\n    tag_457:\n        /* \"#utility.yul\":29603:29610   */\n      0x00\n        /* \"#utility.yul\":29646:29651   */\n      dup2\n        /* \"#utility.yul\":29639:29652   */\n      iszero\n        /* \"#utility.yul\":29632:29653   */\n      iszero\n        /* \"#utility.yul\":29621:29653   */\n      swap1\n      pop\n        /* \"#utility.yul\":29569:29659   */\n      swap2\n      swap1\n      pop\n      jump\t// out\n        /* \"#utility.yul\":29665:29742   */\n    tag_464:\n        /* \"#utility.yul\":29702:29709   */\n      0x00\n        /* \"#utility.yul\":29731:29736   */\n      dup2\n        /* \"#utility.yul\":29720:29736   */\n      swap1\n      pop\n        /* \"#utility.yul\":29665:29742   */\n      swap2\n      swap1\n      pop\n      jump\t// out\n        /* \"#utility.yul\":29748:29874   */\n    tag_656:\n        /* \"#utility.yul\":29785:29792   */\n      0x00\n        /* \"#utility.yul\":29825:29867   */\n      0xffffffffffffffffffffffffffffffffffffffff\n        /* \"#utility.yul\":29818:29823   */\n      dup3\n        /* \"#utility.yul\":29814:29868   */\n      and\n        /* \"#utility.yul\":29803:29868   */\n      swap1\n      pop\n        /* \"#utility.yul\":29748:29874   */\n      swap2\n      swap1\n      pop\n      jump\t// out\n        /* \"#utility.yul\":29880:29957   */\n    tag_557:\n        /* \"#utility.yul\":29917:29924   */\n      0x00\n        /* \"#utility.yul\":29946:29951   */\n      dup2\n        /* \"#utility.yul\":29935:29951   */\n      swap1\n      pop\n        /* \"#utility.yul\":29880:29957   */\n      swap2\n      swap1\n      pop\n      jump\t// out\n        /* \"#utility.yul\":29963:30049   */\n    tag_661:\n        /* \"#utility.yul\":29998:30005   */\n      0x00\n        /* \"#utility.yul\":30038:30042   */\n      0xff\n        /* \"#utility.yul\":30031:30036   */\n      dup3\n        /* \"#utility.yul\":30027:30043   */\n      and\n        /* \"#utility.yul\":30016:30043   */\n      swap1\n      pop\n        /* \"#utility.yul\":29963:30049   */\n      swap2\n      swap1\n      pop\n      jump\t// out\n        /* \"#utility.yul\":30055:30209   */\n    tag_332:\n        /* \"#utility.yul\":30139:30145   */\n      dup3\n        /* \"#utility.yul\":30134:30137   */\n      dup2\n        /* \"#utility.yul\":30129:30132   */\n      dup4\n        /* \"#utility.yul\":30116:30146   */\n      calldatacopy\n        /* \"#utility.yul\":30201:30202   */\n      0x00\n        /* \"#utility.yul\":30192:30198   */\n      dup4\n        /* \"#utility.yul\":30187:30190   */\n      dup4\n        /* \"#utility.yul\":30183:30199   */\n      add\n        /* \"#utility.yul\":30176:30203   */\n      mstore\n        /* \"#utility.yul\":30055:30209   */\n      pop\n      pop\n      pop\n      jump\t// out\n        /* \"#utility.yul\":30215:30522   */\n    tag_477:\n        /* \"#utility.yul\":30283:30284   */\n      0x00\n        /* \"#utility.yul\":30293:30406   */\n    tag_665:\n        /* \"#utility.yul\":30307:30313   */\n      dup4\n        /* \"#utility.yul\":30304:30305   */\n      dup2\n        /* \"#utility.yul\":30301:30314   */\n      lt\n        /* \"#utility.yul\":30293:30406   */\n      iszero\n      tag_667\n      jumpi\n        /* \"#utility.yul\":30392:30393   */\n      dup1\n        /* \"#utility.yul\":30387:30390   */\n      dup3\n        /* \"#utility.yul\":30383:30394   */\n      add\n        /* \"#utility.yul\":30377:30395   */\n      mload\n        /* \"#utility.yul\":30373:30374   */\n      dup2\n        /* \"#utility.yul\":30368:30371   */\n      dup5\n        /* \"#utility.yul\":30364:30375   */\n      add\n        /* \"#utility.yul\":30357:30396   */\n      mstore\n        /* \"#utility.yul\":30329:30331   */\n      0x20\n        /* \"#utility.yul\":30326:30327   */\n      dup2\n        /* \"#utility.yul\":30322:30332   */\n      add\n        /* \"#utility.yul\":30317:30332   */\n      swap1\n      pop\n        /* \"#utility.yul\":30293:30406   */\n      jump(tag_665)\n    tag_667:\n        /* \"#utility.yul\":30424:30430   */\n      dup4\n        /* \"#utility.yul\":30421:30422   */\n      dup2\n        /* \"#utility.yul\":30418:30431   */\n      gt\n        /* \"#utility.yul\":30415:30516   */\n      iszero\n      tag_668\n      jumpi\n        /* \"#utility.yul\":30504:30505   */\n      0x00\n        /* \"#utility.yul\":30495:30501   */\n      dup5\n        /* \"#utility.yul\":30490:30493   */\n      dup5\n        /* \"#utility.yul\":30486:30502   */\n      add\n        /* \"#utility.yul\":30479:30506   */\n      mstore\n        /* \"#utility.yul\":30415:30516   */\n    tag_668:\n        /* \"#utility.yul\":30264:30522   */\n      pop\n        /* \"#utility.yul\":30215:30522   */\n      pop\n      pop\n      pop\n      jump\t// out\n        /* \"#utility.yul\":30528:30848   */\n    tag_128:\n        /* \"#utility.yul\":30572:30578   */\n      0x00\n        /* \"#utility.yul\":30609:30610   */\n      0x02\n        /* \"#utility.yul\":30603:30607   */\n      dup3\n        /* \"#utility.yul\":30599:30611   */\n      div\n        /* \"#utility.yul\":30589:30611   */\n      swap1\n      pop\n        /* \"#utility.yul\":30656:30657   */\n      0x01\n        /* \"#utility.yul\":30650:30654   */\n      dup3\n        /* \"#utility.yul\":30646:30658   */\n      and\n        /* \"#utility.yul\":30677:30695   */\n      dup1\n        /* \"#utility.yul\":30667:30748   */\n      tag_670\n      jumpi\n        /* \"#utility.yul\":30733:30737   */\n      0x7f\n        /* \"#utility.yul\":30725:30731   */\n      dup3\n        /* \"#utility.yul\":30721:30738   */\n      and\n        /* \"#utility.yul\":30711:30738   */\n      swap2\n      pop\n        /* \"#utility.yul\":30667:30748   */\n    tag_670:\n        /* \"#utility.yul\":30795:30797   */\n      0x20\n        /* \"#utility.yul\":30787:30793   */\n      dup3\n        /* \"#utility.yul\":30784:30798   */\n      lt\n        /* \"#utility.yul\":30764:30782   */\n      dup2\n        /* \"#utility.yul\":30761:30799   */\n      eq\n        /* \"#utility.yul\":30758:30842   */\n      iszero\n      tag_671\n      jumpi\n        /* \"#utility.yul\":30814:30832   */\n      tag_672\n      tag_673\n      jump\t// in\n    tag_672:\n        /* \"#utility.yul\":30758:30842   */\n    tag_671:\n        /* \"#utility.yul\":30579:30848   */\n      pop\n        /* \"#utility.yul\":30528:30848   */\n      swap2\n      swap1\n      pop\n      jump\t// out\n        /* \"#utility.yul\":30854:31135   */\n    tag_623:\n        /* \"#utility.yul\":30937:30964   */\n      tag_675\n        /* \"#utility.yul\":30959:30963   */\n      dup3\n        /* \"#utility.yul\":30937:30964   */\n      tag_479\n      jump\t// in\n    tag_675:\n        /* \"#utility.yul\":30929:30935   */\n      dup2\n        /* \"#utility.yul\":30925:30965   */\n      add\n        /* \"#utility.yul\":31067:31073   */\n      dup2\n        /* \"#utility.yul\":31055:31065   */\n      dup2\n        /* \"#utility.yul\":31052:31074   */\n      lt\n        /* \"#utility.yul\":31031:31049   */\n      0xffffffffffffffff\n        /* \"#utility.yul\":31019:31029   */\n      dup3\n        /* \"#utility.yul\":31016:31050   */\n      gt\n        /* \"#utility.yul\":31013:31075   */\n      or\n        /* \"#utility.yul\":31010:31098   */\n      iszero\n      tag_676\n      jumpi\n        /* \"#utility.yul\":31078:31096   */\n      tag_677\n      tag_628\n      jump\t// in\n    tag_677:\n        /* \"#utility.yul\":31010:31098   */\n    tag_676:\n        /* \"#utility.yul\":31118:31128   */\n      dup1\n        /* \"#utility.yul\":31114:31116   */\n      0x40\n        /* \"#utility.yul\":31107:31129   */\n      mstore\n        /* \"#utility.yul\":30897:31135   */\n      pop\n        /* \"#utility.yul\":30854:31135   */\n      pop\n      pop\n      jump\t// out\n        /* \"#utility.yul\":31141:31308   */\n    tag_271:\n        /* \"#utility.yul\":31178:31181   */\n      0x00\n        /* \"#utility.yul\":31201:31223   */\n      tag_679\n        /* \"#utility.yul\":31217:31222   */\n      dup3\n        /* \"#utility.yul\":31201:31223   */\n      tag_661\n      jump\t// in\n    tag_679:\n        /* \"#utility.yul\":31192:31223   */\n      swap2\n      pop\n        /* \"#utility.yul\":31245:31249   */\n      0xff\n        /* \"#utility.yul\":31238:31243   */\n      dup3\n        /* \"#utility.yul\":31235:31250   */\n      eq\n        /* \"#utility.yul\":31232:31273   */\n      iszero\n      tag_680\n      jumpi\n        /* \"#utility.yul\":31253:31271   */\n      tag_681\n      tag_642\n      jump\t// in\n    tag_681:\n        /* \"#utility.yul\":31232:31273   */\n    tag_680:\n        /* \"#utility.yul\":31300:31301   */\n      0x01\n        /* \"#utility.yul\":31293:31298   */\n      dup3\n        /* \"#utility.yul\":31289:31302   */\n      add\n        /* \"#utility.yul\":31282:31302   */\n      swap1\n      pop\n        /* \"#utility.yul\":31141:31308   */\n      swap2\n      swap1\n      pop\n      jump\t// out\n        /* \"#utility.yul\":31314:31494   */\n    tag_642:\n        /* \"#utility.yul\":31362:31439   */\n      0x4e487b7100000000000000000000000000000000000000000000000000000000\n        /* \"#utility.yul\":31359:31360   */\n      0x00\n        /* \"#utility.yul\":31352:31440   */\n      mstore\n        /* \"#utility.yul\":31459:31463   */\n      0x11\n        /* \"#utility.yul\":31456:31457   */\n      0x04\n        /* \"#utility.yul\":31449:31464   */\n      mstore\n        /* \"#utility.yul\":31483:31487   */\n      0x24\n        /* \"#utility.yul\":31480:31481   */\n      0x00\n        /* \"#utility.yul\":31473:31488   */\n      revert\n        /* \"#utility.yul\":31500:31680   */\n    tag_648:\n        /* \"#utility.yul\":31548:31625   */\n      0x4e487b7100000000000000000000000000000000000000000000000000000000\n        /* \"#utility.yul\":31545:31546   */\n      0x00\n        /* \"#utility.yul\":31538:31626   */\n      mstore\n        /* \"#utility.yul\":31645:31649   */\n      0x12\n        /* \"#utility.yul\":31642:31643   */\n      0x04\n        /* \"#utility.yul\":31635:31650   */\n      mstore\n        /* \"#utility.yul\":31669:31673   */\n      0x24\n        /* \"#utility.yul\":31666:31667   */\n      0x00\n        /* \"#utility.yul\":31659:31674   */\n      revert\n        /* \"#utility.yul\":31686:31866   */\n    tag_673:\n        /* \"#utility.yul\":31734:31811   */\n      0x4e487b7100000000000000000000000000000000000000000000000000000000\n        /* \"#utility.yul\":31731:31732   */\n      0x00\n        /* \"#utility.yul\":31724:31812   */\n      mstore\n        /* \"#utility.yul\":31831:31835   */\n      0x22\n        /* \"#utility.yul\":31828:31829   */\n      0x04\n        /* \"#utility.yul\":31821:31836   */\n      mstore\n        /* \"#utility.yul\":31855:31859   */\n      0x24\n        /* \"#utility.yul\":31852:31853   */\n      0x00\n        /* \"#utility.yul\":31845:31860   */\n      revert\n        /* \"#utility.yul\":31872:32052   */\n    tag_260:\n        /* \"#utility.yul\":31920:31997   */\n      0x4e487b7100000000000000000000000000000000000000000000000000000000\n        /* \"#utility.yul\":31917:31918   */\n      0x00\n        /* \"#utility.yul\":31910:31998   */\n      mstore\n        /* \"#utility.yul\":32017:32021   */\n      0x32\n        /* \"#utility.yul\":32014:32015   */\n      0x04\n        /* \"#utility.yul\":32007:32022   */\n      mstore\n        /* \"#utility.yul\":32041:32045   */\n      0x24\n        /* \"#utility.yul\":32038:32039   */\n      0x00\n        /* \"#utility.yul\":32031:32046   */\n      revert\n        /* \"#utility.yul\":32058:32238   */\n    tag_628:\n        /* \"#utility.yul\":32106:32183   */\n      0x4e487b7100000000000000000000000000000000000000000000000000000000\n        /* \"#utility.yul\":32103:32104   */\n      0x00\n        /* \"#utility.yul\":32096:32184   */\n      mstore\n        /* \"#utility.yul\":32203:32207   */\n      0x41\n        /* \"#utility.yul\":32200:32201   */\n      0x04\n        /* \"#utility.yul\":32193:32208   */\n      mstore\n        /* \"#utility.yul\":32227:32231   */\n      0x24\n        /* \"#utility.yul\":32224:32225   */\n      0x00\n        /* \"#utility.yul\":32217:32232   */\n      revert\n        /* \"#utility.yul\":32244:32361   */\n    tag_348:\n        /* \"#utility.yul\":32353:32354   */\n      0x00\n        /* \"#utility.yul\":32350:32351   */\n      dup1\n        /* \"#utility.yul\":32343:32355   */\n      revert\n        /* \"#utility.yul\":32367:32484   */\n    tag_345:\n        /* \"#utility.yul\":32476:32477   */\n      0x00\n        /* \"#utility.yul\":32473:32474   */\n      dup1\n        /* \"#utility.yul\":32466:32478   */\n      revert\n        /* \"#utility.yul\":32490:32607   */\n    tag_351:\n        /* \"#utility.yul\":32599:32600   */\n      0x00\n        /* \"#utility.yul\":32596:32597   */\n      dup1\n        /* \"#utility.yul\":32589:32601   */\n      revert\n        /* \"#utility.yul\":32613:32730   */\n    tag_330:\n        /* \"#utility.yul\":32722:32723   */\n      0x00\n        /* \"#utility.yul\":32719:32720   */\n      dup1\n        /* \"#utility.yul\":32712:32724   */\n      revert\n        /* \"#utility.yul\":32736:32853   */\n    tag_368:\n        /* \"#utility.yul\":32845:32846   */\n      0x00\n        /* \"#utility.yul\":32842:32843   */\n      dup1\n        /* \"#utility.yul\":32835:32847   */\n      revert\n        /* \"#utility.yul\":32859:32976   */\n    tag_364:\n        /* \"#utility.yul\":32968:32969   */\n      0x00\n        /* \"#utility.yul\":32965:32966   */\n      dup1\n        /* \"#utility.yul\":32958:32970   */\n      revert\n        /* \"#utility.yul\":32982:33084   */\n    tag_479:\n        /* \"#utility.yul\":33023:33029   */\n      0x00\n        /* \"#utility.yul\":33074:33076   */\n      0x1f\n        /* \"#utility.yul\":33070:33077   */\n      not\n        /* \"#utility.yul\":33065:33067   */\n      0x1f\n        /* \"#utility.yul\":33058:33063   */\n      dup4\n        /* \"#utility.yul\":33054:33068   */\n      add\n        /* \"#utility.yul\":33050:33078   */\n      and\n        /* \"#utility.yul\":33040:33078   */\n      swap1\n      pop\n        /* \"#utility.yul\":32982:33084   */\n      swap2\n      swap1\n      pop\n      jump\t// out\n        /* \"#utility.yul\":33090:33271   */\n    tag_489:\n        /* \"#utility.yul\":33230:33263   */\n      0x526563697069656e7420697320616c7265616479207265676973746572656400\n        /* \"#utility.yul\":33226:33227   */\n      0x00\n        /* \"#utility.yul\":33218:33224   */\n      dup3\n        /* \"#utility.yul\":33214:33228   */\n      add\n        /* \"#utility.yul\":33207:33264   */\n      mstore\n        /* \"#utility.yul\":33090:33271   */\n      pop\n      jump\t// out\n        /* \"#utility.yul\":33277:33452   */\n    tag_494:\n        /* \"#utility.yul\":33417:33444   */\n      0x50726f706f73616c20616c726561647920637265617465642100000000000000\n        /* \"#utility.yul\":33413:33414   */\n      0x00\n        /* \"#utility.yul\":33405:33411   */\n      dup3\n        /* \"#utility.yul\":33401:33415   */\n      add\n        /* \"#utility.yul\":33394:33445   */\n      mstore\n        /* \"#utility.yul\":33277:33452   */\n      pop\n      jump\t// out\n        /* \"#utility.yul\":33458:33683   */\n    tag_499:\n        /* \"#utility.yul\":33598:33632   */\n      0x596f75206172656e277420617574686f72697a6520746f20636f6d70696c6520\n        /* \"#utility.yul\":33594:33595   */\n      0x00\n        /* \"#utility.yul\":33586:33592   */\n      dup3\n        /* \"#utility.yul\":33582:33596   */\n      add\n        /* \"#utility.yul\":33575:33633   */\n      mstore\n        /* \"#utility.yul\":33667:33675   */\n      0x42756e646c650000000000000000000000000000000000000000000000000000\n        /* \"#utility.yul\":33662:33664   */\n      0x20\n        /* \"#utility.yul\":33654:33660   */\n      dup3\n        /* \"#utility.yul\":33650:33665   */\n      add\n        /* \"#utility.yul\":33643:33676   */\n      mstore\n        /* \"#utility.yul\":33458:33683   */\n      pop\n      jump\t// out\n        /* \"#utility.yul\":33689:33867   */\n    tag_504:\n        /* \"#utility.yul\":33829:33859   */\n      0x596f7520616c72656164792073656e74206120726573706f6e73652e00000000\n        /* \"#utility.yul\":33825:33826   */\n      0x00\n        /* \"#utility.yul\":33817:33823   */\n      dup3\n        /* \"#utility.yul\":33813:33827   */\n      add\n        /* \"#utility.yul\":33806:33860   */\n      mstore\n        /* \"#utility.yul\":33689:33867   */\n      pop\n      jump\t// out\n        /* \"#utility.yul\":33873:34044   */\n    tag_509:\n        /* \"#utility.yul\":34013:34036   */\n      0x496e69746961746f722063616e277420766f7465210000000000000000000000\n        /* \"#utility.yul\":34009:34010   */\n      0x00\n        /* \"#utility.yul\":34001:34007   */\n      dup3\n        /* \"#utility.yul\":33997:34011   */\n      add\n        /* \"#utility.yul\":33990:34037   */\n      mstore\n        /* \"#utility.yul\":33873:34044   */\n      pop\n      jump\t// out\n        /* \"#utility.yul\":34050:34230   */\n    tag_514:\n        /* \"#utility.yul\":34190:34222   */\n      0x596f7520617265206e6f74207265676973746572656420746f20766f74650000\n        /* \"#utility.yul\":34186:34187   */\n      0x00\n        /* \"#utility.yul\":34178:34184   */\n      dup3\n        /* \"#utility.yul\":34174:34188   */\n      add\n        /* \"#utility.yul\":34167:34223   */\n      mstore\n        /* \"#utility.yul\":34050:34230   */\n      pop\n      jump\t// out\n        /* \"#utility.yul\":34236:34459   */\n    tag_519:\n        /* \"#utility.yul\":34376:34410   */\n      0x50726f706f73616c206861732072656163686564206974732065787069727920\n        /* \"#utility.yul\":34372:34373   */\n      0x00\n        /* \"#utility.yul\":34364:34370   */\n      dup3\n        /* \"#utility.yul\":34360:34374   */\n      add\n        /* \"#utility.yul\":34353:34411   */\n      mstore\n        /* \"#utility.yul\":34445:34451   */\n      0x6461746500000000000000000000000000000000000000000000000000000000\n        /* \"#utility.yul\":34440:34442   */\n      0x20\n        /* \"#utility.yul\":34432:34438   */\n      dup3\n        /* \"#utility.yul\":34428:34443   */\n      add\n        /* \"#utility.yul\":34421:34452   */\n      mstore\n        /* \"#utility.yul\":34236:34459   */\n      pop\n      jump\t// out\n        /* \"#utility.yul\":34465:34692   */\n    tag_524:\n        /* \"#utility.yul\":34605:34639   */\n      0x4f6e6c7920696e69746961746f722063616e2072656769737465722061207265\n        /* \"#utility.yul\":34601:34602   */\n      0x00\n        /* \"#utility.yul\":34593:34599   */\n      dup3\n        /* \"#utility.yul\":34589:34603   */\n      add\n        /* \"#utility.yul\":34582:34640   */\n      mstore\n        /* \"#utility.yul\":34674:34684   */\n      0x63697069656e742e000000000000000000000000000000000000000000000000\n        /* \"#utility.yul\":34669:34671   */\n      0x20\n        /* \"#utility.yul\":34661:34667   */\n      dup3\n        /* \"#utility.yul\":34657:34672   */\n      add\n        /* \"#utility.yul\":34650:34685   */\n      mstore\n        /* \"#utility.yul\":34465:34692   */\n      pop\n      jump\t// out\n        /* \"#utility.yul\":34698:34868   */\n    tag_529:\n        /* \"#utility.yul\":34838:34860   */\n      0x596f75206172656e277420496e69746961746f72000000000000000000000000\n        /* \"#utility.yul\":34834:34835   */\n      0x00\n        /* \"#utility.yul\":34826:34832   */\n      dup3\n        /* \"#utility.yul\":34822:34836   */\n      add\n        /* \"#utility.yul\":34815:34861   */\n      mstore\n        /* \"#utility.yul\":34698:34868   */\n      pop\n      jump\t// out\n        /* \"#utility.yul\":34874:35056   */\n    tag_534:\n        /* \"#utility.yul\":35014:35048   */\n      0x5665726469637420686173206e6f74206265656e207265616368656420796574\n        /* \"#utility.yul\":35010:35011   */\n      0x00\n        /* \"#utility.yul\":35002:35008   */\n      dup3\n        /* \"#utility.yul\":34998:35012   */\n      add\n        /* \"#utility.yul\":34991:35049   */\n      mstore\n        /* \"#utility.yul\":34874:35056   */\n      pop\n      jump\t// out\n        /* \"#utility.yul\":35062:35230   */\n    tag_539:\n        /* \"#utility.yul\":35202:35222   */\n      0x566f74696e672068617320657870697265640000000000000000000000000000\n        /* \"#utility.yul\":35198:35199   */\n      0x00\n        /* \"#utility.yul\":35190:35196   */\n      dup3\n        /* \"#utility.yul\":35186:35200   */\n      add\n        /* \"#utility.yul\":35179:35223   */\n      mstore\n        /* \"#utility.yul\":35062:35230   */\n      pop\n      jump\t// out\n        /* \"#utility.yul\":35236:35460   */\n    tag_544:\n        /* \"#utility.yul\":35376:35410   */\n      0x436f6e73656e7375732068617320616c7265616479206265656e2063616c6375\n        /* \"#utility.yul\":35372:35373   */\n      0x00\n        /* \"#utility.yul\":35364:35370   */\n      dup3\n        /* \"#utility.yul\":35360:35374   */\n      add\n        /* \"#utility.yul\":35353:35411   */\n      mstore\n        /* \"#utility.yul\":35445:35452   */\n      0x6c61746564000000000000000000000000000000000000000000000000000000\n        /* \"#utility.yul\":35440:35442   */\n      0x20\n        /* \"#utility.yul\":35432:35438   */\n      dup3\n        /* \"#utility.yul\":35428:35443   */\n      add\n        /* \"#utility.yul\":35421:35453   */\n      mstore\n        /* \"#utility.yul\":35236:35460   */\n      pop\n      jump\t// out\n        /* \"#utility.yul\":35466:35588   */\n    tag_336:\n        /* \"#utility.yul\":35539:35563   */\n      tag_707\n        /* \"#utility.yul\":35557:35562   */\n      dup2\n        /* \"#utility.yul\":35539:35563   */\n      tag_436\n      jump\t// in\n    tag_707:\n        /* \"#utility.yul\":35532:35537   */\n      dup2\n        /* \"#utility.yul\":35529:35564   */\n      eq\n        /* \"#utility.yul\":35519:35582   */\n      tag_708\n      jumpi\n        /* \"#utility.yul\":35578:35579   */\n      0x00\n        /* \"#utility.yul\":35575:35576   */\n      dup1\n        /* \"#utility.yul\":35568:35580   */\n      revert\n        /* \"#utility.yul\":35519:35582   */\n    tag_708:\n        /* \"#utility.yul\":35466:35588   */\n      pop\n      jump\t// out\n        /* \"#utility.yul\":35594:35716   */\n    tag_340:\n        /* \"#utility.yul\":35667:35691   */\n      tag_710\n        /* \"#utility.yul\":35685:35690   */\n      dup2\n        /* \"#utility.yul\":35667:35691   */\n      tag_464\n      jump\t// in\n    tag_710:\n        /* \"#utility.yul\":35660:35665   */\n      dup2\n        /* \"#utility.yul\":35657:35692   */\n      eq\n        /* \"#utility.yul\":35647:35710   */\n      tag_711\n      jumpi\n        /* \"#utility.yul\":35706:35707   */\n      0x00\n        /* \"#utility.yul\":35703:35704   */\n      dup1\n        /* \"#utility.yul\":35696:35708   */\n      revert\n        /* \"#utility.yul\":35647:35710   */\n    tag_711:\n        /* \"#utility.yul\":35594:35716   */\n      pop\n      jump\t// out\n        /* \"#utility.yul\":35722:35844   */\n    tag_360:\n        /* \"#utility.yul\":35795:35819   */\n      tag_713\n        /* \"#utility.yul\":35813:35818   */\n      dup2\n        /* \"#utility.yul\":35795:35819   */\n      tag_557\n      jump\t// in\n    tag_713:\n        /* \"#utility.yul\":35788:35793   */\n      dup2\n        /* \"#utility.yul\":35785:35820   */\n      eq\n        /* \"#utility.yul\":35775:35838   */\n      tag_714\n      jumpi\n        /* \"#utility.yul\":35834:35835   */\n      0x00\n        /* \"#utility.yul\":35831:35832   */\n      dup1\n        /* \"#utility.yul\":35824:35836   */\n      revert\n        /* \"#utility.yul\":35775:35838   */\n    tag_714:\n        /* \"#utility.yul\":35722:35844   */\n      pop\n      jump\t// out\n\n    auxdata: 0xa2646970667358221220849b895f3e00857507b17e06040a2fbffdfb0ada061fbafca96c7cd02a8e6ec764736f6c63430008070033\n}\n",
				"bytecode": {
					"linkReferences": {},
					"object": "608060405234801561001057600080fd5b50613a85806100206000396000f3fe608060405234801561001057600080fd5b50600436106101375760003560e01c8063883a9673116100b8578063a6acce351161007c578063a6acce35146103c7578063bb9a31f3146103f7578063c9bc42ed14610427578063e5c8d65f14610458578063ec54868014610488578063fe290423146104b857610137565b8063883a9673146102e75780638a3b0d02146103035780638f6a35b714610333578063931da6b3146103655780639d6a31251461039557610137565b806331189fe2116100ff57806331189fe21461021a57806333a0b0ab1461024a57806337f2e1901461027c5780633d63af0e146102af5780637aa18f88146102cb57610137565b806306699b011461013c578063089a4c601461016c57806311c2b4131461019e57806317072d6b146101ce578063233d0fa1146101ea575b600080fd5b61015660048036038101906101519190612aeb565b6104e8565b6040516101639190613071565b60405180910390f35b610186600480360381019061018191906129ca565b61054c565b60405161019593929190613370565b60405180910390f35b6101b860048036038101906101b391906129ca565b61058c565b6040516101c59190613183565b60405180910390f35b6101e860048036038101906101e39190612a6f565b610642565b005b61020460048036038101906101ff91906129ca565b610fe8565b6040516102119190613115565b60405180910390f35b610234600480360381019061022f91906129ca565b611016565b604051610241919061308c565b60405180910390f35b610264600480360381019061025f9190612a13565b61104c565b604051610273939291906130a7565b60405180910390f35b6102966004803603810190610291919061297d565b6110d3565b6040516102a69493929190613130565b60405180910390f35b6102c960048036038101906102c4919061291d565b6112f3565b005b6102e560048036038101906102e09190612bca565b61174e565b005b61030160048036038101906102fc919061297d565b611b2c565b005b61031d600480360381019061031891906129ca565b61215c565b60405161032a9190613183565b60405180910390f35b61034d60048036038101906103489190612aeb565b612212565b60405161035c939291906130a7565b60405180910390f35b61037f600480360381019061037a91906129ca565b6122a5565b60405161038c9190613355565b60405180910390f35b6103af60048036038101906103aa9190612b47565b6122d3565b6040516103be939291906130de565b60405180910390f35b6103e160048036038101906103dc91906129ca565b6124b4565b6040516103ee9190613115565b60405180910390f35b610411600480360381019061040c91906129ca565b6124e2565b60405161041e9190613355565b60405180910390f35b610441600480360381019061043c919061297d565b612510565b60405161044f9291906131a5565b60405180910390f35b610472600480360381019061046d91906129ca565b61261d565b60405161047f9190613071565b60405180910390f35b6104a2600480360381019061049d919061297d565b612666565b6040516104af919061308c565b60405180910390f35b6104d260048036038101906104cd91906129ca565b61269e565b6040516104df9190613183565b60405180910390f35b600c82805160208101820180518482526020830160208501208183528095505050505050818154811061051a57600080fd5b906000526020600020016000915091509054906101000a900473ffffffffffffffffffffffffffffffffffffffff1681565b6000818051602081018201805184825260208301602085012081835280955050505050506000915090508060000154908060010154908060020154905083565b60028180516020810182018051848252602083016020850120818352809550505050505060009150905080546105c1906135df565b80601f01602080910402602001604051908101604052809291908181526020018280546105ed906135df565b801561063a5780601f1061060f5761010080835404028352916020019161063a565b820191906000526020600020905b81548152906001019060200180831161061d57829003601f168201915b505050505081565b60008282604051610654929190613041565b90815260200160405180910390206001015442106106a7576040517f08c379a000000000000000000000000000000000000000000000000000000000815260040161069e90613315565b60405180910390fd5b600073ffffffffffffffffffffffffffffffffffffffff16600a83836040516106d1929190613041565b908152602001604051809103902060003373ffffffffffffffffffffffffffffffffffffffff1673ffffffffffffffffffffffffffffffffffffffff16815260200190815260200160002060000160029054906101000a900473ffffffffffffffffffffffffffffffffffffffff1673ffffffffffffffffffffffffffffffffffffffff161415610797576040517f08c379a000000000000000000000000000000000000000000000000000000000815260040161078e90613275565b60405180910390fd5b600a82826040516107a9929190613041565b908152602001604051809103902060003373ffffffffffffffffffffffffffffffffffffffff1673ffffffffffffffffffffffffffffffffffffffff16815260200190815260200160002060000160009054906101000a900460ff1615610845576040517f08c379a000000000000000000000000000000000000000000000000000000000815260040161083c90613235565b60405180910390fd5b6040518060400160405280600981526020017f6920617070726f766500000000000000000000000000000000000000000000008152508051906020012083805190602001201415610b5f576001600a83836040516108a4929190613041565b908152602001604051809103902060003373ffffffffffffffffffffffffffffffffffffffff1673ffffffffffffffffffffffffffffffffffffffff16815260200190815260200160002060000160006101000a81548160ff0219169083151502179055506001600a838360405161091d929190613041565b908152602001604051809103902060003373ffffffffffffffffffffffffffffffffffffffff1673ffffffffffffffffffffffffffffffffffffffff16815260200190815260200160002060000160016101000a81548160ff021916908315150217905550600160058383604051610996929190613041565b908152602001604051809103902060008282546109b3919061345d565b925050819055506001600083836040516109ce929190613041565b908152602001604051809103902060000160008282546109ee919061345d565b92505081905550600b8282604051610a07929190613041565b9081526020016040518091039020600a8383604051610a27929190613041565b908152602001604051809103902060003373ffffffffffffffffffffffffffffffffffffffff1673ffffffffffffffffffffffffffffffffffffffff168152602001908152602001600020908060018154018082558091505060019003906000526020600020016000909190919091506000820160009054906101000a900460ff168160000160006101000a81548160ff0219169083151502179055506000820160019054906101000a900460ff168160000160016101000a81548160ff0219169083151502179055506000820160029054906101000a900473ffffffffffffffffffffffffffffffffffffffff168160000160026101000a81548173ffffffffffffffffffffffffffffffffffffffff021916908373ffffffffffffffffffffffffffffffffffffffff1602179055505050610fe3565b6040518060400160405280600c81526020017f6920646973617070726f766500000000000000000000000000000000000000008152508051906020012083805190602001201415610dc8576001600a8383604051610bbe929190613041565b908152602001604051809103902060003373ffffffffffffffffffffffffffffffffffffffff1673ffffffffffffffffffffffffffffffffffffffff16815260200190815260200160002060000160006101000a81548160ff021916908315150217905550600160008383604051610c37929190613041565b90815260200160405180910390206000016000828254610c57919061345d565b92505081905550600b8282604051610c70929190613041565b9081526020016040518091039020600a8383604051610c90929190613041565b908152602001604051809103902060003373ffffffffffffffffffffffffffffffffffffffff1673ffffffffffffffffffffffffffffffffffffffff168152602001908152602001600020908060018154018082558091505060019003906000526020600020016000909190919091506000820160009054906101000a900460ff168160000160006101000a81548160ff0219169083151502179055506000820160019054906101000a900460ff168160000160016101000a81548160ff0219169083151502179055506000820160029054906101000a900473ffffffffffffffffffffffffffffffffffffffff168160000160026101000a81548173ffffffffffffffffffffffffffffffffffffffff021916908373ffffffffffffffffffffffffffffffffffffffff1602179055505050610fe2565b6001600a8383604051610ddc929190613041565b908152602001604051809103902060003373ffffffffffffffffffffffffffffffffffffffff1673ffffffffffffffffffffffffffffffffffffffff16815260200190815260200160002060000160006101000a81548160ff021916908315150217905550600160008383604051610e55929190613041565b90815260200160405180910390206000016000828254610e75919061345d565b92505081905550600b8282604051610e8e929190613041565b9081526020016040518091039020600a8383604051610eae929190613041565b908152602001604051809103902060003373ffffffffffffffffffffffffffffffffffffffff1673ffffffffffffffffffffffffffffffffffffffff168152602001908152602001600020908060018154018082558091505060019003906000526020600020016000909190919091506000820160009054906101000a900460ff168160000160006101000a81548160ff0219169083151502179055506000820160019054906101000a900460ff168160000160016101000a81548160ff0219169083151502179055506000820160029054906101000a900473ffffffffffffffffffffffffffffffffffffffff168160000160026101000a81548173ffffffffffffffffffffffffffffffffffffffff021916908373ffffffffffffffffffffffffffffffffffffffff16021790555050505b5b505050565b6007818051602081018201805184825260208301602085012081835280955050505050506000915090505481565b6008818051602081018201805184825260208301602085012081835280955050505050506000915054906101000a900460ff1681565b600a82805160208101820180518482526020830160208501208183528095505050505050602052806000526040600020600091509150508060000160009054906101000a900460ff16908060000160019054906101000a900460ff16908060000160029054906101000a900473ffffffffffffffffffffffffffffffffffffffff16905083565b6000606060006060600086866040516110ed929190613041565b908152602001604051809103902060010154421015611141576040517f08c379a0000000000000000000000000000000000000000000000000000000008152600401611138906132f5565b60405180910390fd5b6000600b8787604051611155929190613041565b9081526020016040518091039020805480602002602001604051908101604052809291908181526020016000905b8282101561123d578382906000526020600020016040518060600160405290816000820160009054906101000a900460ff161515151581526020016000820160019054906101000a900460ff161515151581526020016000820160029054906101000a900473ffffffffffffffffffffffffffffffffffffffff1673ffffffffffffffffffffffffffffffffffffffff1673ffffffffffffffffffffffffffffffffffffffff168152505081526020019060010190611183565b505050509050600060078888604051611257929190613041565b9081526020016040518091039020549050600080898960405161127b929190613041565b9081526020016040518091039020600001549050818989838683838080601f016020809104026020016040519081016040528093929190818152602001838380828437600081840152601f19601f82011690508083019250505050505050925090919250965096509650965050505092959194509250565b60018282604051611305929190613041565b908152602001604051809103902060009054906101000a900473ffffffffffffffffffffffffffffffffffffffff1673ffffffffffffffffffffffffffffffffffffffff163373ffffffffffffffffffffffffffffffffffffffff16146113a1576040517f08c379a0000000000000000000000000000000000000000000000000000000008152600401611398906132b5565b60405180910390fd5b600182826040516113b3929190613041565b908152602001604051809103902060009054906101000a900473ffffffffffffffffffffffffffffffffffffffff1673ffffffffffffffffffffffffffffffffffffffff168373ffffffffffffffffffffffffffffffffffffffff161415611450576040517f08c379a000000000000000000000000000000000000000000000000000000000815260040161144790613255565b60405180910390fd5b600073ffffffffffffffffffffffffffffffffffffffff16600a838360405161147a929190613041565b908152602001604051809103902060008573ffffffffffffffffffffffffffffffffffffffff1673ffffffffffffffffffffffffffffffffffffffff16815260200190815260200160002060000160029054906101000a900473ffffffffffffffffffffffffffffffffffffffff1673ffffffffffffffffffffffffffffffffffffffff161461153f576040517f08c379a0000000000000000000000000000000000000000000000000000000008152600401611536906131d5565b60405180910390fd5b60008282604051611551929190613041565b90815260200160405180910390206001015442106115a4576040517f08c379a000000000000000000000000000000000000000000000000000000000815260040161159b90613295565b60405180910390fd5b600060405180606001604052806000151581526020016000151581526020018573ffffffffffffffffffffffffffffffffffffffff16815250905080600a84846040516115f2929190613041565b908152602001604051809103902060008673ffffffffffffffffffffffffffffffffffffffff1673ffffffffffffffffffffffffffffffffffffffff16815260200190815260200160002060008201518160000160006101000a81548160ff02191690831515021790555060208201518160000160016101000a81548160ff02191690831515021790555060408201518160000160026101000a81548173ffffffffffffffffffffffffffffffffffffffff021916908373ffffffffffffffffffffffffffffffffffffffff160217905550905050600c83836040516116d9929190613041565b9081526020016040518091039020849080600181540180825580915050600190039060005260206000200160009091909190916101000a81548173ffffffffffffffffffffffffffffffffffffffff021916908373ffffffffffffffffffffffffffffffffffffffff16021790555050505050565b600073ffffffffffffffffffffffffffffffffffffffff16600187604051611776919061305a565b908152602001604051809103902060009054906101000a900473ffffffffffffffffffffffffffffffffffffffff1673ffffffffffffffffffffffffffffffffffffffff16146117fb576040517f08c379a00000000000000000000000000000000000000000000000000000000081526004016117f2906131f5565b60405180910390fd5b6000604051806060016040528060008152602001874261181b919061345d565b815260200186815250905086600284604051611837919061305a565b90815260200160405180910390209080519060200190611858929190612754565b50600060088860405161186b919061305a565b908152602001604051809103902060006101000a81548160ff0219169083151502179055507f52656a65637465640000000000000000000000000000000000000000000000006007886040516118c1919061305a565b908152602001604051809103902081905550856003886040516118e4919061305a565b90815260200160405180910390208190555085600384604051611907919061305a565b9081526020016040518091039020819055508360048860405161192a919061305a565b9081526020016040518091039020819055508360048460405161194d919061305a565b90815260200160405180910390208190555082600988604051611970919061305a565b90815260200160405180910390209080519060200190611991929190612754565b50816006886040516119a3919061305a565b908152602001604051809103902090805190602001906119c4929190612754565b5060006005886040516119d7919061305a565b908152602001604051809103902081905550336001886040516119fa919061305a565b908152602001604051809103902060006101000a81548173ffffffffffffffffffffffffffffffffffffffff021916908373ffffffffffffffffffffffffffffffffffffffff16021790555033600184604051611a57919061305a565b908152602001604051809103902060006101000a81548173ffffffffffffffffffffffffffffffffffffffff021916908373ffffffffffffffffffffffffffffffffffffffff16021790555080600088604051611ab4919061305a565b908152602001604051809103902060008201518160000155602082015181600101556040820151816002015590505080600084604051611af4919061305a565b908152602001604051809103902060008201518160000155602082015181600101556040820151816002015590505050505050505050565b60008282604051611b3e929190613041565b908152602001604051809103902060010154421015611b92576040517f08c379a0000000000000000000000000000000000000000000000000000000008152600401611b89906132f5565b60405180910390fd5b6000151560088383604051611ba8929190613041565b908152602001604051809103902060009054906101000a900460ff16151514611c06576040517f08c379a0000000000000000000000000000000000000000000000000000000008152600401611bfd90613335565b60405180910390fd5b60018282604051611c18929190613041565b908152602001604051809103902060009054906101000a900473ffffffffffffffffffffffffffffffffffffffff1673ffffffffffffffffffffffffffffffffffffffff163373ffffffffffffffffffffffffffffffffffffffff161480611d2d5750600073ffffffffffffffffffffffffffffffffffffffff16600a8383604051611ca5929190613041565b908152602001604051809103902060003373ffffffffffffffffffffffffffffffffffffffff1673ffffffffffffffffffffffffffffffffffffffff16815260200190815260200160002060000160029054906101000a900473ffffffffffffffffffffffffffffffffffffffff1673ffffffffffffffffffffffffffffffffffffffff1614155b611d6c576040517f08c379a0000000000000000000000000000000000000000000000000000000008152600401611d6390613215565b60405180910390fd5b60006064600c8484604051611d82929190613041565b90815260200160405180910390208054905060058585604051611da6929190613041565b908152602001604051809103902054611dbf91906134b3565b611dc991906134e4565b905060008383604051611ddd929190613041565b9081526020016040518091039020600201548110611e3b577f416363657074656400000000000000000000000000000000000000000000000060078484604051611e28929190613041565b9081526020016040518091039020819055505b60005b600c8484604051611e50929190613041565b9081526020016040518091039020805490508160ff16101561211d5760001515600a8585604051611e82929190613041565b90815260200160405180910390206000600c8787604051611ea4929190613041565b90815260200160405180910390208460ff1681548110611ec757611ec66136f9565b5b9060005260206000200160009054906101000a900473ffffffffffffffffffffffffffffffffffffffff1673ffffffffffffffffffffffffffffffffffffffff1673ffffffffffffffffffffffffffffffffffffffff16815260200190815260200160002060000160009054906101000a900460ff161515141561210a57600b8484604051611f57929190613041565b9081526020016040518091039020600a8585604051611f77929190613041565b90815260200160405180910390206000600c8787604051611f99929190613041565b90815260200160405180910390208460ff1681548110611fbc57611fbb6136f9565b5b9060005260206000200160009054906101000a900473ffffffffffffffffffffffffffffffffffffffff1673ffffffffffffffffffffffffffffffffffffffff1673ffffffffffffffffffffffffffffffffffffffff168152602001908152602001600020908060018154018082558091505060019003906000526020600020016000909190919091506000820160009054906101000a900460ff168160000160006101000a81548160ff0219169083151502179055506000820160019054906101000a900460ff168160000160016101000a81548160ff0219169083151502179055506000820160029054906101000a900473ffffffffffffffffffffffffffffffffffffffff168160000160026101000a81548173ffffffffffffffffffffffffffffffffffffffff021916908373ffffffffffffffffffffffffffffffffffffffff16021790555050505b808061211590613642565b915050611e3e565b50600160088484604051612132929190613041565b908152602001604051809103902060006101000a81548160ff021916908315150217905550505050565b6006818051602081018201805184825260208301602085012081835280955050505050506000915090508054612191906135df565b80601f01602080910402602001604051908101604052809291908181526020018280546121bd906135df565b801561220a5780601f106121df5761010080835404028352916020019161220a565b820191906000526020600020905b8154815290600101906020018083116121ed57829003601f168201915b505050505081565b600b82805160208101820180518482526020830160208501208183528095505050505050818154811061224457600080fd5b90600052602060002001600091509150508060000160009054906101000a900460ff16908060000160019054906101000a900460ff16908060000160029054906101000a900473ffffffffffffffffffffffffffffffffffffffff16905083565b6005818051602081018201805184825260208301602085012081835280955050505050506000915090505481565b60008060006001876040516122e8919061305a565b908152602001604051809103902060009054906101000a900473ffffffffffffffffffffffffffffffffffffffff1673ffffffffffffffffffffffffffffffffffffffff163373ffffffffffffffffffffffffffffffffffffffff1614612384576040517f08c379a000000000000000000000000000000000000000000000000000000000815260040161237b906132d5565b60405180910390fd5b600060019050600060019050600060019050600073ffffffffffffffffffffffffffffffffffffffff1660018b6040516123be919061305a565b908152602001604051809103902060009054906101000a900473ffffffffffffffffffffffffffffffffffffffff1673ffffffffffffffffffffffffffffffffffffffff16141561241c5760018060019550955095505050506124aa565b60008a60405161242c919061305a565b908152602001604051809103902060020154891461244957600092505b60048a604051612459919061305a565b908152602001604051809103902054871461247357600091505b8760038b604051612484919061305a565b9081526020016040518091039020541461249d57600090505b8282829550955095505050505b9450945094915050565b6004818051602081018201805184825260208301602085012081835280955050505050506000915090505481565b6003818051602081018201805184825260208301602085012081835280955050505050506000915090505481565b606061251a6127da565b6002848460405161252c929190613041565b90815260200160405180910390206000858560405161254c929190613041565b9081526020016040518091039020818054612566906135df565b80601f0160208091040260200160405190810160405280929190818152602001828054612592906135df565b80156125df5780601f106125b4576101008083540402835291602001916125df565b820191906000526020600020905b8154815290600101906020018083116125c257829003601f168201915b505050505091508060405180606001604052908160008201548152602001600182015481526020016002820154815250509050915091509250929050565b6001818051602081018201805184825260208301602085012081835280955050505050506000915054906101000a900473ffffffffffffffffffffffffffffffffffffffff1681565b60006008838360405161267a929190613041565b908152602001604051809103902060009054906101000a900460ff16905092915050565b60098180516020810182018051848252602083016020850120818352809550505050505060009150905080546126d3906135df565b80601f01602080910402602001604051908101604052809291908181526020018280546126ff906135df565b801561274c5780601f106127215761010080835404028352916020019161274c565b820191906000526020600020905b81548152906001019060200180831161272f57829003601f168201915b505050505081565b828054612760906135df565b90600052602060002090601f01602090048101928261278257600085556127c9565b82601f1061279b57805160ff19168380011785556127c9565b828001600101855582156127c9579182015b828111156127c85782518255916020019190600101906127ad565b5b5090506127d691906127fb565b5090565b60405180606001604052806000815260200160008152602001600081525090565b5b808211156128145760008160009055506001016127fc565b5090565b600061282b612826846133cc565b6133a7565b90508281526020810184848401111561284757612846613766565b5b61285284828561359d565b509392505050565b60008135905061286981613a0a565b92915050565b60008135905061287e81613a21565b92915050565b60008083601f84011261289a5761289961375c565b5b8235905067ffffffffffffffff8111156128b7576128b6613757565b5b6020830191508360018202830111156128d3576128d2613761565b5b9250929050565b600082601f8301126128ef576128ee61375c565b5b81356128ff848260208601612818565b91505092915050565b60008135905061291781613a38565b92915050565b60008060006040848603121561293657612935613770565b5b60006129448682870161285a565b935050602084013567ffffffffffffffff8111156129655761296461376b565b5b61297186828701612884565b92509250509250925092565b6000806020838503121561299457612993613770565b5b600083013567ffffffffffffffff8111156129b2576129b161376b565b5b6129be85828601612884565b92509250509250929050565b6000602082840312156129e0576129df613770565b5b600082013567ffffffffffffffff8111156129fe576129fd61376b565b5b612a0a848285016128da565b91505092915050565b60008060408385031215612a2a57612a29613770565b5b600083013567ffffffffffffffff811115612a4857612a4761376b565b5b612a54858286016128da565b9250506020612a658582860161285a565b9150509250929050565b600080600060408486031215612a8857612a87613770565b5b600084013567ffffffffffffffff811115612aa657612aa561376b565b5b612ab2868287016128da565b935050602084013567ffffffffffffffff811115612ad357612ad261376b565b5b612adf86828701612884565b92509250509250925092565b60008060408385031215612b0257612b01613770565b5b600083013567ffffffffffffffff811115612b2057612b1f61376b565b5b612b2c858286016128da565b9250506020612b3d85828601612908565b9150509250929050565b60008060008060808587031215612b6157612b60613770565b5b600085013567ffffffffffffffff811115612b7f57612b7e61376b565b5b612b8b878288016128da565b9450506020612b9c87828801612908565b9350506040612bad87828801612908565b9250506060612bbe8782880161286f565b91505092959194509250565b60008060008060008060c08789031215612be757612be6613770565b5b600087013567ffffffffffffffff811115612c0557612c0461376b565b5b612c1189828a016128da565b9650506020612c2289828a01612908565b9550506040612c3389828a01612908565b9450506060612c4489828a0161286f565b935050608087013567ffffffffffffffff811115612c6557612c6461376b565b5b612c7189828a016128da565b92505060a087013567ffffffffffffffff811115612c9257612c9161376b565b5b612c9e89828a016128da565b9150509295509295509295565b6000612cb78383612fe1565b60608301905092915050565b612ccc8161353e565b82525050565b612cdb8161353e565b82525050565b6000612cec8261340d565b612cf68185613430565b9350612d01836133fd565b8060005b83811015612d32578151612d198882612cab565b9750612d2483613423565b925050600181019050612d05565b5085935050505092915050565b612d4881613550565b82525050565b612d5781613550565b82525050565b612d668161355c565b82525050565b6000612d788385613452565b9350612d8583858461359d565b82840190509392505050565b6000612d9c82613418565b612da68185613441565b9350612db68185602086016135ac565b612dbf81613775565b840191505092915050565b6000612dd582613418565b612ddf8185613452565b9350612def8185602086016135ac565b80840191505092915050565b6000612e08601f83613441565b9150612e1382613786565b602082019050919050565b6000612e2b601983613441565b9150612e36826137af565b602082019050919050565b6000612e4e602683613441565b9150612e59826137d8565b604082019050919050565b6000612e71601c83613441565b9150612e7c82613827565b602082019050919050565b6000612e94601583613441565b9150612e9f82613850565b602082019050919050565b6000612eb7601e83613441565b9150612ec282613879565b602082019050919050565b6000612eda602483613441565b9150612ee5826138a2565b604082019050919050565b6000612efd602883613441565b9150612f08826138f1565b604082019050919050565b6000612f20601483613441565b9150612f2b82613940565b602082019050919050565b6000612f43602083613441565b9150612f4e82613969565b602082019050919050565b6000612f66601283613441565b9150612f7182613992565b602082019050919050565b6000612f89602583613441565b9150612f94826139bb565b604082019050919050565b606082016000820151612fb56000850182613023565b506020820151612fc86020850182613023565b506040820151612fdb6040850182613023565b50505050565b606082016000820151612ff76000850182612d3f565b50602082015161300a6020850182612d3f565b50604082015161301d6040850182612cc3565b50505050565b61302c81613586565b82525050565b61303b81613586565b82525050565b600061304e828486612d6c565b91508190509392505050565b60006130668284612dca565b915081905092915050565b60006020820190506130866000830184612cd2565b92915050565b60006020820190506130a16000830184612d4e565b92915050565b60006060820190506130bc6000830186612d4e565b6130c96020830185612d4e565b6130d66040830184612cd2565b949350505050565b60006060820190506130f36000830186612d4e565b6131006020830185612d4e565b61310d6040830184612d4e565b949350505050565b600060208201905061312a6000830184612d5d565b92915050565b60006080820190506131456000830187612d5d565b81810360208301526131578186612d91565b90506131666040830185613032565b81810360608301526131788184612ce1565b905095945050505050565b6000602082019050818103600083015261319d8184612d91565b905092915050565b600060808201905081810360008301526131bf8185612d91565b90506131ce6020830184612f9f565b9392505050565b600060208201905081810360008301526131ee81612dfb565b9050919050565b6000602082019050818103600083015261320e81612e1e565b9050919050565b6000602082019050818103600083015261322e81612e41565b9050919050565b6000602082019050818103600083015261324e81612e64565b9050919050565b6000602082019050818103600083015261326e81612e87565b9050919050565b6000602082019050818103600083015261328e81612eaa565b9050919050565b600060208201905081810360008301526132ae81612ecd565b9050919050565b600060208201905081810360008301526132ce81612ef0565b9050919050565b600060208201905081810360008301526132ee81612f13565b9050919050565b6000602082019050818103600083015261330e81612f36565b9050919050565b6000602082019050818103600083015261332e81612f59565b9050919050565b6000602082019050818103600083015261334e81612f7c565b9050919050565b600060208201905061336a6000830184613032565b92915050565b60006060820190506133856000830186613032565b6133926020830185613032565b61339f6040830184613032565b949350505050565b60006133b16133c2565b90506133bd8282613611565b919050565b6000604051905090565b600067ffffffffffffffff8211156133e7576133e6613728565b5b6133f082613775565b9050602081019050919050565b6000819050602082019050919050565b600081519050919050565b600081519050919050565b6000602082019050919050565b600082825260208201905092915050565b600082825260208201905092915050565b600081905092915050565b600061346882613586565b915061347383613586565b9250827fffffffffffffffffffffffffffffffffffffffffffffffffffffffffffffffff038211156134a8576134a761366c565b5b828201905092915050565b60006134be82613586565b91506134c983613586565b9250826134d9576134d861369b565b5b828204905092915050565b60006134ef82613586565b91506134fa83613586565b9250817fffffffffffffffffffffffffffffffffffffffffffffffffffffffffffffffff04831182151516156135335761353261366c565b5b828202905092915050565b600061354982613566565b9050919050565b60008115159050919050565b6000819050919050565b600073ffffffffffffffffffffffffffffffffffffffff82169050919050565b6000819050919050565b600060ff82169050919050565b82818337600083830152505050565b60005b838110156135ca5780820151818401526020810190506135af565b838111156135d9576000848401525b50505050565b600060028204905060018216806135f757607f821691505b6020821081141561360b5761360a6136ca565b5b50919050565b61361a82613775565b810181811067ffffffffffffffff8211171561363957613638613728565b5b80604052505050565b600061364d82613590565b915060ff8214156136615761366061366c565b5b600182019050919050565b7f4e487b7100000000000000000000000000000000000000000000000000000000600052601160045260246000fd5b7f4e487b7100000000000000000000000000000000000000000000000000000000600052601260045260246000fd5b7f4e487b7100000000000000000000000000000000000000000000000000000000600052602260045260246000fd5b7f4e487b7100000000000000000000000000000000000000000000000000000000600052603260045260246000fd5b7f4e487b7100000000000000000000000000000000000000000000000000000000600052604160045260246000fd5b600080fd5b600080fd5b600080fd5b600080fd5b600080fd5b600080fd5b6000601f19601f8301169050919050565b7f526563697069656e7420697320616c7265616479207265676973746572656400600082015250565b7f50726f706f73616c20616c726561647920637265617465642100000000000000600082015250565b7f596f75206172656e277420617574686f72697a6520746f20636f6d70696c652060008201527f42756e646c650000000000000000000000000000000000000000000000000000602082015250565b7f596f7520616c72656164792073656e74206120726573706f6e73652e00000000600082015250565b7f496e69746961746f722063616e277420766f7465210000000000000000000000600082015250565b7f596f7520617265206e6f74207265676973746572656420746f20766f74650000600082015250565b7f50726f706f73616c20686173207265616368656420697473206578706972792060008201527f6461746500000000000000000000000000000000000000000000000000000000602082015250565b7f4f6e6c7920696e69746961746f722063616e207265676973746572206120726560008201527f63697069656e742e000000000000000000000000000000000000000000000000602082015250565b7f596f75206172656e277420496e69746961746f72000000000000000000000000600082015250565b7f5665726469637420686173206e6f74206265656e207265616368656420796574600082015250565b7f566f74696e672068617320657870697265640000000000000000000000000000600082015250565b7f436f6e73656e7375732068617320616c7265616479206265656e2063616c637560008201527f6c61746564000000000000000000000000000000000000000000000000000000602082015250565b613a138161353e565b8114613a1e57600080fd5b50565b613a2a8161355c565b8114613a3557600080fd5b50565b613a4181613586565b8114613a4c57600080fd5b5056fea2646970667358221220849b895f3e00857507b17e06040a2fbffdfb0ada061fbafca96c7cd02a8e6ec764736f6c63430008070033",
					"opcodes": "PUSH1 0x80 PUSH1 0x40 MSTORE CALLVALUE DUP1 ISZERO PUSH2 0x10 JUMPI PUSH1 0x0 DUP1 REVERT JUMPDEST POP PUSH2 0x3A85 DUP1 PUSH2 0x20 PUSH1 0x0 CODECOPY PUSH1 0x0 RETURN INVALID PUSH1 0x80 PUSH1 0x40 MSTORE CALLVALUE DUP1 ISZERO PUSH2 0x10 JUMPI PUSH1 0x0 DUP1 REVERT JUMPDEST POP PUSH1 0x4 CALLDATASIZE LT PUSH2 0x137 JUMPI PUSH1 0x0 CALLDATALOAD PUSH1 0xE0 SHR DUP1 PUSH4 0x883A9673 GT PUSH2 0xB8 JUMPI DUP1 PUSH4 0xA6ACCE35 GT PUSH2 0x7C JUMPI DUP1 PUSH4 0xA6ACCE35 EQ PUSH2 0x3C7 JUMPI DUP1 PUSH4 0xBB9A31F3 EQ PUSH2 0x3F7 JUMPI DUP1 PUSH4 0xC9BC42ED EQ PUSH2 0x427 JUMPI DUP1 PUSH4 0xE5C8D65F EQ PUSH2 0x458 JUMPI DUP1 PUSH4 0xEC548680 EQ PUSH2 0x488 JUMPI DUP1 PUSH4 0xFE290423 EQ PUSH2 0x4B8 JUMPI PUSH2 0x137 JUMP JUMPDEST DUP1 PUSH4 0x883A9673 EQ PUSH2 0x2E7 JUMPI DUP1 PUSH4 0x8A3B0D02 EQ PUSH2 0x303 JUMPI DUP1 PUSH4 0x8F6A35B7 EQ PUSH2 0x333 JUMPI DUP1 PUSH4 0x931DA6B3 EQ PUSH2 0x365 JUMPI DUP1 PUSH4 0x9D6A3125 EQ PUSH2 0x395 JUMPI PUSH2 0x137 JUMP JUMPDEST DUP1 PUSH4 0x31189FE2 GT PUSH2 0xFF JUMPI DUP1 PUSH4 0x31189FE2 EQ PUSH2 0x21A JUMPI DUP1 PUSH4 0x33A0B0AB EQ PUSH2 0x24A JUMPI DUP1 PUSH4 0x37F2E190 EQ PUSH2 0x27C JUMPI DUP1 PUSH4 0x3D63AF0E EQ PUSH2 0x2AF JUMPI DUP1 PUSH4 0x7AA18F88 EQ PUSH2 0x2CB JUMPI PUSH2 0x137 JUMP JUMPDEST DUP1 PUSH4 0x6699B01 EQ PUSH2 0x13C JUMPI DUP1 PUSH4 0x89A4C60 EQ PUSH2 0x16C JUMPI DUP1 PUSH4 0x11C2B413 EQ PUSH2 0x19E JUMPI DUP1 PUSH4 0x17072D6B EQ PUSH2 0x1CE JUMPI DUP1 PUSH4 0x233D0FA1 EQ PUSH2 0x1EA JUMPI JUMPDEST PUSH1 0x0 DUP1 REVERT JUMPDEST PUSH2 0x156 PUSH1 0x4 DUP1 CALLDATASIZE SUB DUP2 ADD SWAP1 PUSH2 0x151 SWAP2 SWAP1 PUSH2 0x2AEB JUMP JUMPDEST PUSH2 0x4E8 JUMP JUMPDEST PUSH1 0x40 MLOAD PUSH2 0x163 SWAP2 SWAP1 PUSH2 0x3071 JUMP JUMPDEST PUSH1 0x40 MLOAD DUP1 SWAP2 SUB SWAP1 RETURN JUMPDEST PUSH2 0x186 PUSH1 0x4 DUP1 CALLDATASIZE SUB DUP2 ADD SWAP1 PUSH2 0x181 SWAP2 SWAP1 PUSH2 0x29CA JUMP JUMPDEST PUSH2 0x54C JUMP JUMPDEST PUSH1 0x40 MLOAD PUSH2 0x195 SWAP4 SWAP3 SWAP2 SWAP1 PUSH2 0x3370 JUMP JUMPDEST PUSH1 0x40 MLOAD DUP1 SWAP2 SUB SWAP1 RETURN JUMPDEST PUSH2 0x1B8 PUSH1 0x4 DUP1 CALLDATASIZE SUB DUP2 ADD SWAP1 PUSH2 0x1B3 SWAP2 SWAP1 PUSH2 0x29CA JUMP JUMPDEST PUSH2 0x58C JUMP JUMPDEST PUSH1 0x40 MLOAD PUSH2 0x1C5 SWAP2 SWAP1 PUSH2 0x3183 JUMP JUMPDEST PUSH1 0x40 MLOAD DUP1 SWAP2 SUB SWAP1 RETURN JUMPDEST PUSH2 0x1E8 PUSH1 0x4 DUP1 CALLDATASIZE SUB DUP2 ADD SWAP1 PUSH2 0x1E3 SWAP2 SWAP1 PUSH2 0x2A6F JUMP JUMPDEST PUSH2 0x642 JUMP JUMPDEST STOP JUMPDEST PUSH2 0x204 PUSH1 0x4 DUP1 CALLDATASIZE SUB DUP2 ADD SWAP1 PUSH2 0x1FF SWAP2 SWAP1 PUSH2 0x29CA JUMP JUMPDEST PUSH2 0xFE8 JUMP JUMPDEST PUSH1 0x40 MLOAD PUSH2 0x211 SWAP2 SWAP1 PUSH2 0x3115 JUMP JUMPDEST PUSH1 0x40 MLOAD DUP1 SWAP2 SUB SWAP1 RETURN JUMPDEST PUSH2 0x234 PUSH1 0x4 DUP1 CALLDATASIZE SUB DUP2 ADD SWAP1 PUSH2 0x22F SWAP2 SWAP1 PUSH2 0x29CA JUMP JUMPDEST PUSH2 0x1016 JUMP JUMPDEST PUSH1 0x40 MLOAD PUSH2 0x241 SWAP2 SWAP1 PUSH2 0x308C JUMP JUMPDEST PUSH1 0x40 MLOAD DUP1 SWAP2 SUB SWAP1 RETURN JUMPDEST PUSH2 0x264 PUSH1 0x4 DUP1 CALLDATASIZE SUB DUP2 ADD SWAP1 PUSH2 0x25F SWAP2 SWAP1 PUSH2 0x2A13 JUMP JUMPDEST PUSH2 0x104C JUMP JUMPDEST PUSH1 0x40 MLOAD PUSH2 0x273 SWAP4 SWAP3 SWAP2 SWAP1 PUSH2 0x30A7 JUMP JUMPDEST PUSH1 0x40 MLOAD DUP1 SWAP2 SUB SWAP1 RETURN JUMPDEST PUSH2 0x296 PUSH1 0x4 DUP1 CALLDATASIZE SUB DUP2 ADD SWAP1 PUSH2 0x291 SWAP2 SWAP1 PUSH2 0x297D JUMP JUMPDEST PUSH2 0x10D3 JUMP JUMPDEST PUSH1 0x40 MLOAD PUSH2 0x2A6 SWAP5 SWAP4 SWAP3 SWAP2 SWAP1 PUSH2 0x3130 JUMP JUMPDEST PUSH1 0x40 MLOAD DUP1 SWAP2 SUB SWAP1 RETURN JUMPDEST PUSH2 0x2C9 PUSH1 0x4 DUP1 CALLDATASIZE SUB DUP2 ADD SWAP1 PUSH2 0x2C4 SWAP2 SWAP1 PUSH2 0x291D JUMP JUMPDEST PUSH2 0x12F3 JUMP JUMPDEST STOP JUMPDEST PUSH2 0x2E5 PUSH1 0x4 DUP1 CALLDATASIZE SUB DUP2 ADD SWAP1 PUSH2 0x2E0 SWAP2 SWAP1 PUSH2 0x2BCA JUMP JUMPDEST PUSH2 0x174E JUMP JUMPDEST STOP JUMPDEST PUSH2 0x301 PUSH1 0x4 DUP1 CALLDATASIZE SUB DUP2 ADD SWAP1 PUSH2 0x2FC SWAP2 SWAP1 PUSH2 0x297D JUMP JUMPDEST PUSH2 0x1B2C JUMP JUMPDEST STOP JUMPDEST PUSH2 0x31D PUSH1 0x4 DUP1 CALLDATASIZE SUB DUP2 ADD SWAP1 PUSH2 0x318 SWAP2 SWAP1 PUSH2 0x29CA JUMP JUMPDEST PUSH2 0x215C JUMP JUMPDEST PUSH1 0x40 MLOAD PUSH2 0x32A SWAP2 SWAP1 PUSH2 0x3183 JUMP JUMPDEST PUSH1 0x40 MLOAD DUP1 SWAP2 SUB SWAP1 RETURN JUMPDEST PUSH2 0x34D PUSH1 0x4 DUP1 CALLDATASIZE SUB DUP2 ADD SWAP1 PUSH2 0x348 SWAP2 SWAP1 PUSH2 0x2AEB JUMP JUMPDEST PUSH2 0x2212 JUMP JUMPDEST PUSH1 0x40 MLOAD PUSH2 0x35C SWAP4 SWAP3 SWAP2 SWAP1 PUSH2 0x30A7 JUMP JUMPDEST PUSH1 0x40 MLOAD DUP1 SWAP2 SUB SWAP1 RETURN JUMPDEST PUSH2 0x37F PUSH1 0x4 DUP1 CALLDATASIZE SUB DUP2 ADD SWAP1 PUSH2 0x37A SWAP2 SWAP1 PUSH2 0x29CA JUMP JUMPDEST PUSH2 0x22A5 JUMP JUMPDEST PUSH1 0x40 MLOAD PUSH2 0x38C SWAP2 SWAP1 PUSH2 0x3355 JUMP JUMPDEST PUSH1 0x40 MLOAD DUP1 SWAP2 SUB SWAP1 RETURN JUMPDEST PUSH2 0x3AF PUSH1 0x4 DUP1 CALLDATASIZE SUB DUP2 ADD SWAP1 PUSH2 0x3AA SWAP2 SWAP1 PUSH2 0x2B47 JUMP JUMPDEST PUSH2 0x22D3 JUMP JUMPDEST PUSH1 0x40 MLOAD PUSH2 0x3BE SWAP4 SWAP3 SWAP2 SWAP1 PUSH2 0x30DE JUMP JUMPDEST PUSH1 0x40 MLOAD DUP1 SWAP2 SUB SWAP1 RETURN JUMPDEST PUSH2 0x3E1 PUSH1 0x4 DUP1 CALLDATASIZE SUB DUP2 ADD SWAP1 PUSH2 0x3DC SWAP2 SWAP1 PUSH2 0x29CA JUMP JUMPDEST PUSH2 0x24B4 JUMP JUMPDEST PUSH1 0x40 MLOAD PUSH2 0x3EE SWAP2 SWAP1 PUSH2 0x3115 JUMP JUMPDEST PUSH1 0x40 MLOAD DUP1 SWAP2 SUB SWAP1 RETURN JUMPDEST PUSH2 0x411 PUSH1 0x4 DUP1 CALLDATASIZE SUB DUP2 ADD SWAP1 PUSH2 0x40C SWAP2 SWAP1 PUSH2 0x29CA JUMP JUMPDEST PUSH2 0x24E2 JUMP JUMPDEST PUSH1 0x40 MLOAD PUSH2 0x41E SWAP2 SWAP1 PUSH2 0x3355 JUMP JUMPDEST PUSH1 0x40 MLOAD DUP1 SWAP2 SUB SWAP1 RETURN JUMPDEST PUSH2 0x441 PUSH1 0x4 DUP1 CALLDATASIZE SUB DUP2 ADD SWAP1 PUSH2 0x43C SWAP2 SWAP1 PUSH2 0x297D JUMP JUMPDEST PUSH2 0x2510 JUMP JUMPDEST PUSH1 0x40 MLOAD PUSH2 0x44F SWAP3 SWAP2 SWAP1 PUSH2 0x31A5 JUMP JUMPDEST PUSH1 0x40 MLOAD DUP1 SWAP2 SUB SWAP1 RETURN JUMPDEST PUSH2 0x472 PUSH1 0x4 DUP1 CALLDATASIZE SUB DUP2 ADD SWAP1 PUSH2 0x46D SWAP2 SWAP1 PUSH2 0x29CA JUMP JUMPDEST PUSH2 0x261D JUMP JUMPDEST PUSH1 0x40 MLOAD PUSH2 0x47F SWAP2 SWAP1 PUSH2 0x3071 JUMP JUMPDEST PUSH1 0x40 MLOAD DUP1 SWAP2 SUB SWAP1 RETURN JUMPDEST PUSH2 0x4A2 PUSH1 0x4 DUP1 CALLDATASIZE SUB DUP2 ADD SWAP1 PUSH2 0x49D SWAP2 SWAP1 PUSH2 0x297D JUMP JUMPDEST PUSH2 0x2666 JUMP JUMPDEST PUSH1 0x40 MLOAD PUSH2 0x4AF SWAP2 SWAP1 PUSH2 0x308C JUMP JUMPDEST PUSH1 0x40 MLOAD DUP1 SWAP2 SUB SWAP1 RETURN JUMPDEST PUSH2 0x4D2 PUSH1 0x4 DUP1 CALLDATASIZE SUB DUP2 ADD SWAP1 PUSH2 0x4CD SWAP2 SWAP1 PUSH2 0x29CA JUMP JUMPDEST PUSH2 0x269E JUMP JUMPDEST PUSH1 0x40 MLOAD PUSH2 0x4DF SWAP2 SWAP1 PUSH2 0x3183 JUMP JUMPDEST PUSH1 0x40 MLOAD DUP1 SWAP2 SUB SWAP1 RETURN JUMPDEST PUSH1 0xC DUP3 DUP1 MLOAD PUSH1 0x20 DUP2 ADD DUP3 ADD DUP1 MLOAD DUP5 DUP3 MSTORE PUSH1 0x20 DUP4 ADD PUSH1 0x20 DUP6 ADD KECCAK256 DUP2 DUP4 MSTORE DUP1 SWAP6 POP POP POP POP POP POP DUP2 DUP2 SLOAD DUP2 LT PUSH2 0x51A JUMPI PUSH1 0x0 DUP1 REVERT JUMPDEST SWAP1 PUSH1 0x0 MSTORE PUSH1 0x20 PUSH1 0x0 KECCAK256 ADD PUSH1 0x0 SWAP2 POP SWAP2 POP SWAP1 SLOAD SWAP1 PUSH2 0x100 EXP SWAP1 DIV PUSH20 0xFFFFFFFFFFFFFFFFFFFFFFFFFFFFFFFFFFFFFFFF AND DUP2 JUMP JUMPDEST PUSH1 0x0 DUP2 DUP1 MLOAD PUSH1 0x20 DUP2 ADD DUP3 ADD DUP1 MLOAD DUP5 DUP3 MSTORE PUSH1 0x20 DUP4 ADD PUSH1 0x20 DUP6 ADD KECCAK256 DUP2 DUP4 MSTORE DUP1 SWAP6 POP POP POP POP POP POP PUSH1 0x0 SWAP2 POP SWAP1 POP DUP1 PUSH1 0x0 ADD SLOAD SWAP1 DUP1 PUSH1 0x1 ADD SLOAD SWAP1 DUP1 PUSH1 0x2 ADD SLOAD SWAP1 POP DUP4 JUMP JUMPDEST PUSH1 0x2 DUP2 DUP1 MLOAD PUSH1 0x20 DUP2 ADD DUP3 ADD DUP1 MLOAD DUP5 DUP3 MSTORE PUSH1 0x20 DUP4 ADD PUSH1 0x20 DUP6 ADD KECCAK256 DUP2 DUP4 MSTORE DUP1 SWAP6 POP POP POP POP POP POP PUSH1 0x0 SWAP2 POP SWAP1 POP DUP1 SLOAD PUSH2 0x5C1 SWAP1 PUSH2 0x35DF JUMP JUMPDEST DUP1 PUSH1 0x1F ADD PUSH1 0x20 DUP1 SWAP2 DIV MUL PUSH1 0x20 ADD PUSH1 0x40 MLOAD SWAP1 DUP2 ADD PUSH1 0x40 MSTORE DUP1 SWAP3 SWAP2 SWAP1 DUP2 DUP2 MSTORE PUSH1 0x20 ADD DUP3 DUP1 SLOAD PUSH2 0x5ED SWAP1 PUSH2 0x35DF JUMP JUMPDEST DUP1 ISZERO PUSH2 0x63A JUMPI DUP1 PUSH1 0x1F LT PUSH2 0x60F JUMPI PUSH2 0x100 DUP1 DUP4 SLOAD DIV MUL DUP4 MSTORE SWAP2 PUSH1 0x20 ADD SWAP2 PUSH2 0x63A JUMP JUMPDEST DUP3 ADD SWAP2 SWAP1 PUSH1 0x0 MSTORE PUSH1 0x20 PUSH1 0x0 KECCAK256 SWAP1 JUMPDEST DUP2 SLOAD DUP2 MSTORE SWAP1 PUSH1 0x1 ADD SWAP1 PUSH1 0x20 ADD DUP1 DUP4 GT PUSH2 0x61D JUMPI DUP3 SWAP1 SUB PUSH1 0x1F AND DUP3 ADD SWAP2 JUMPDEST POP POP POP POP POP DUP2 JUMP JUMPDEST PUSH1 0x0 DUP3 DUP3 PUSH1 0x40 MLOAD PUSH2 0x654 SWAP3 SWAP2 SWAP1 PUSH2 0x3041 JUMP JUMPDEST SWAP1 DUP2 MSTORE PUSH1 0x20 ADD PUSH1 0x40 MLOAD DUP1 SWAP2 SUB SWAP1 KECCAK256 PUSH1 0x1 ADD SLOAD TIMESTAMP LT PUSH2 0x6A7 JUMPI PUSH1 0x40 MLOAD PUSH32 0x8C379A000000000000000000000000000000000000000000000000000000000 DUP2 MSTORE PUSH1 0x4 ADD PUSH2 0x69E SWAP1 PUSH2 0x3315 JUMP JUMPDEST PUSH1 0x40 MLOAD DUP1 SWAP2 SUB SWAP1 REVERT JUMPDEST PUSH1 0x0 PUSH20 0xFFFFFFFFFFFFFFFFFFFFFFFFFFFFFFFFFFFFFFFF AND PUSH1 0xA DUP4 DUP4 PUSH1 0x40 MLOAD PUSH2 0x6D1 SWAP3 SWAP2 SWAP1 PUSH2 0x3041 JUMP JUMPDEST SWAP1 DUP2 MSTORE PUSH1 0x20 ADD PUSH1 0x40 MLOAD DUP1 SWAP2 SUB SWAP1 KECCAK256 PUSH1 0x0 CALLER PUSH20 0xFFFFFFFFFFFFFFFFFFFFFFFFFFFFFFFFFFFFFFFF AND PUSH20 0xFFFFFFFFFFFFFFFFFFFFFFFFFFFFFFFFFFFFFFFF AND DUP2 MSTORE PUSH1 0x20 ADD SWAP1 DUP2 MSTORE PUSH1 0x20 ADD PUSH1 0x0 KECCAK256 PUSH1 0x0 ADD PUSH1 0x2 SWAP1 SLOAD SWAP1 PUSH2 0x100 EXP SWAP1 DIV PUSH20 0xFFFFFFFFFFFFFFFFFFFFFFFFFFFFFFFFFFFFFFFF AND PUSH20 0xFFFFFFFFFFFFFFFFFFFFFFFFFFFFFFFFFFFFFFFF AND EQ ISZERO PUSH2 0x797 JUMPI PUSH1 0x40 MLOAD PUSH32 0x8C379A000000000000000000000000000000000000000000000000000000000 DUP2 MSTORE PUSH1 0x4 ADD PUSH2 0x78E SWAP1 PUSH2 0x3275 JUMP JUMPDEST PUSH1 0x40 MLOAD DUP1 SWAP2 SUB SWAP1 REVERT JUMPDEST PUSH1 0xA DUP3 DUP3 PUSH1 0x40 MLOAD PUSH2 0x7A9 SWAP3 SWAP2 SWAP1 PUSH2 0x3041 JUMP JUMPDEST SWAP1 DUP2 MSTORE PUSH1 0x20 ADD PUSH1 0x40 MLOAD DUP1 SWAP2 SUB SWAP1 KECCAK256 PUSH1 0x0 CALLER PUSH20 0xFFFFFFFFFFFFFFFFFFFFFFFFFFFFFFFFFFFFFFFF AND PUSH20 0xFFFFFFFFFFFFFFFFFFFFFFFFFFFFFFFFFFFFFFFF AND DUP2 MSTORE PUSH1 0x20 ADD SWAP1 DUP2 MSTORE PUSH1 0x20 ADD PUSH1 0x0 KECCAK256 PUSH1 0x0 ADD PUSH1 0x0 SWAP1 SLOAD SWAP1 PUSH2 0x100 EXP SWAP1 DIV PUSH1 0xFF AND ISZERO PUSH2 0x845 JUMPI PUSH1 0x40 MLOAD PUSH32 0x8C379A000000000000000000000000000000000000000000000000000000000 DUP2 MSTORE PUSH1 0x4 ADD PUSH2 0x83C SWAP1 PUSH2 0x3235 JUMP JUMPDEST PUSH1 0x40 MLOAD DUP1 SWAP2 SUB SWAP1 REVERT JUMPDEST PUSH1 0x40 MLOAD DUP1 PUSH1 0x40 ADD PUSH1 0x40 MSTORE DUP1 PUSH1 0x9 DUP2 MSTORE PUSH1 0x20 ADD PUSH32 0x6920617070726F76650000000000000000000000000000000000000000000000 DUP2 MSTORE POP DUP1 MLOAD SWAP1 PUSH1 0x20 ADD KECCAK256 DUP4 DUP1 MLOAD SWAP1 PUSH1 0x20 ADD KECCAK256 EQ ISZERO PUSH2 0xB5F JUMPI PUSH1 0x1 PUSH1 0xA DUP4 DUP4 PUSH1 0x40 MLOAD PUSH2 0x8A4 SWAP3 SWAP2 SWAP1 PUSH2 0x3041 JUMP JUMPDEST SWAP1 DUP2 MSTORE PUSH1 0x20 ADD PUSH1 0x40 MLOAD DUP1 SWAP2 SUB SWAP1 KECCAK256 PUSH1 0x0 CALLER PUSH20 0xFFFFFFFFFFFFFFFFFFFFFFFFFFFFFFFFFFFFFFFF AND PUSH20 0xFFFFFFFFFFFFFFFFFFFFFFFFFFFFFFFFFFFFFFFF AND DUP2 MSTORE PUSH1 0x20 ADD SWAP1 DUP2 MSTORE PUSH1 0x20 ADD PUSH1 0x0 KECCAK256 PUSH1 0x0 ADD PUSH1 0x0 PUSH2 0x100 EXP DUP2 SLOAD DUP2 PUSH1 0xFF MUL NOT AND SWAP1 DUP4 ISZERO ISZERO MUL OR SWAP1 SSTORE POP PUSH1 0x1 PUSH1 0xA DUP4 DUP4 PUSH1 0x40 MLOAD PUSH2 0x91D SWAP3 SWAP2 SWAP1 PUSH2 0x3041 JUMP JUMPDEST SWAP1 DUP2 MSTORE PUSH1 0x20 ADD PUSH1 0x40 MLOAD DUP1 SWAP2 SUB SWAP1 KECCAK256 PUSH1 0x0 CALLER PUSH20 0xFFFFFFFFFFFFFFFFFFFFFFFFFFFFFFFFFFFFFFFF AND PUSH20 0xFFFFFFFFFFFFFFFFFFFFFFFFFFFFFFFFFFFFFFFF AND DUP2 MSTORE PUSH1 0x20 ADD SWAP1 DUP2 MSTORE PUSH1 0x20 ADD PUSH1 0x0 KECCAK256 PUSH1 0x0 ADD PUSH1 0x1 PUSH2 0x100 EXP DUP2 SLOAD DUP2 PUSH1 0xFF MUL NOT AND SWAP1 DUP4 ISZERO ISZERO MUL OR SWAP1 SSTORE POP PUSH1 0x1 PUSH1 0x5 DUP4 DUP4 PUSH1 0x40 MLOAD PUSH2 0x996 SWAP3 SWAP2 SWAP1 PUSH2 0x3041 JUMP JUMPDEST SWAP1 DUP2 MSTORE PUSH1 0x20 ADD PUSH1 0x40 MLOAD DUP1 SWAP2 SUB SWAP1 KECCAK256 PUSH1 0x0 DUP3 DUP3 SLOAD PUSH2 0x9B3 SWAP2 SWAP1 PUSH2 0x345D JUMP JUMPDEST SWAP3 POP POP DUP2 SWAP1 SSTORE POP PUSH1 0x1 PUSH1 0x0 DUP4 DUP4 PUSH1 0x40 MLOAD PUSH2 0x9CE SWAP3 SWAP2 SWAP1 PUSH2 0x3041 JUMP JUMPDEST SWAP1 DUP2 MSTORE PUSH1 0x20 ADD PUSH1 0x40 MLOAD DUP1 SWAP2 SUB SWAP1 KECCAK256 PUSH1 0x0 ADD PUSH1 0x0 DUP3 DUP3 SLOAD PUSH2 0x9EE SWAP2 SWAP1 PUSH2 0x345D JUMP JUMPDEST SWAP3 POP POP DUP2 SWAP1 SSTORE POP PUSH1 0xB DUP3 DUP3 PUSH1 0x40 MLOAD PUSH2 0xA07 SWAP3 SWAP2 SWAP1 PUSH2 0x3041 JUMP JUMPDEST SWAP1 DUP2 MSTORE PUSH1 0x20 ADD PUSH1 0x40 MLOAD DUP1 SWAP2 SUB SWAP1 KECCAK256 PUSH1 0xA DUP4 DUP4 PUSH1 0x40 MLOAD PUSH2 0xA27 SWAP3 SWAP2 SWAP1 PUSH2 0x3041 JUMP JUMPDEST SWAP1 DUP2 MSTORE PUSH1 0x20 ADD PUSH1 0x40 MLOAD DUP1 SWAP2 SUB SWAP1 KECCAK256 PUSH1 0x0 CALLER PUSH20 0xFFFFFFFFFFFFFFFFFFFFFFFFFFFFFFFFFFFFFFFF AND PUSH20 0xFFFFFFFFFFFFFFFFFFFFFFFFFFFFFFFFFFFFFFFF AND DUP2 MSTORE PUSH1 0x20 ADD SWAP1 DUP2 MSTORE PUSH1 0x20 ADD PUSH1 0x0 KECCAK256 SWAP1 DUP1 PUSH1 0x1 DUP2 SLOAD ADD DUP1 DUP3 SSTORE DUP1 SWAP2 POP POP PUSH1 0x1 SWAP1 SUB SWAP1 PUSH1 0x0 MSTORE PUSH1 0x20 PUSH1 0x0 KECCAK256 ADD PUSH1 0x0 SWAP1 SWAP2 SWAP1 SWAP2 SWAP1 SWAP2 POP PUSH1 0x0 DUP3 ADD PUSH1 0x0 SWAP1 SLOAD SWAP1 PUSH2 0x100 EXP SWAP1 DIV PUSH1 0xFF AND DUP2 PUSH1 0x0 ADD PUSH1 0x0 PUSH2 0x100 EXP DUP2 SLOAD DUP2 PUSH1 0xFF MUL NOT AND SWAP1 DUP4 ISZERO ISZERO MUL OR SWAP1 SSTORE POP PUSH1 0x0 DUP3 ADD PUSH1 0x1 SWAP1 SLOAD SWAP1 PUSH2 0x100 EXP SWAP1 DIV PUSH1 0xFF AND DUP2 PUSH1 0x0 ADD PUSH1 0x1 PUSH2 0x100 EXP DUP2 SLOAD DUP2 PUSH1 0xFF MUL NOT AND SWAP1 DUP4 ISZERO ISZERO MUL OR SWAP1 SSTORE POP PUSH1 0x0 DUP3 ADD PUSH1 0x2 SWAP1 SLOAD SWAP1 PUSH2 0x100 EXP SWAP1 DIV PUSH20 0xFFFFFFFFFFFFFFFFFFFFFFFFFFFFFFFFFFFFFFFF AND DUP2 PUSH1 0x0 ADD PUSH1 0x2 PUSH2 0x100 EXP DUP2 SLOAD DUP2 PUSH20 0xFFFFFFFFFFFFFFFFFFFFFFFFFFFFFFFFFFFFFFFF MUL NOT AND SWAP1 DUP4 PUSH20 0xFFFFFFFFFFFFFFFFFFFFFFFFFFFFFFFFFFFFFFFF AND MUL OR SWAP1 SSTORE POP POP POP PUSH2 0xFE3 JUMP JUMPDEST PUSH1 0x40 MLOAD DUP1 PUSH1 0x40 ADD PUSH1 0x40 MSTORE DUP1 PUSH1 0xC DUP2 MSTORE PUSH1 0x20 ADD PUSH32 0x6920646973617070726F76650000000000000000000000000000000000000000 DUP2 MSTORE POP DUP1 MLOAD SWAP1 PUSH1 0x20 ADD KECCAK256 DUP4 DUP1 MLOAD SWAP1 PUSH1 0x20 ADD KECCAK256 EQ ISZERO PUSH2 0xDC8 JUMPI PUSH1 0x1 PUSH1 0xA DUP4 DUP4 PUSH1 0x40 MLOAD PUSH2 0xBBE SWAP3 SWAP2 SWAP1 PUSH2 0x3041 JUMP JUMPDEST SWAP1 DUP2 MSTORE PUSH1 0x20 ADD PUSH1 0x40 MLOAD DUP1 SWAP2 SUB SWAP1 KECCAK256 PUSH1 0x0 CALLER PUSH20 0xFFFFFFFFFFFFFFFFFFFFFFFFFFFFFFFFFFFFFFFF AND PUSH20 0xFFFFFFFFFFFFFFFFFFFFFFFFFFFFFFFFFFFFFFFF AND DUP2 MSTORE PUSH1 0x20 ADD SWAP1 DUP2 MSTORE PUSH1 0x20 ADD PUSH1 0x0 KECCAK256 PUSH1 0x0 ADD PUSH1 0x0 PUSH2 0x100 EXP DUP2 SLOAD DUP2 PUSH1 0xFF MUL NOT AND SWAP1 DUP4 ISZERO ISZERO MUL OR SWAP1 SSTORE POP PUSH1 0x1 PUSH1 0x0 DUP4 DUP4 PUSH1 0x40 MLOAD PUSH2 0xC37 SWAP3 SWAP2 SWAP1 PUSH2 0x3041 JUMP JUMPDEST SWAP1 DUP2 MSTORE PUSH1 0x20 ADD PUSH1 0x40 MLOAD DUP1 SWAP2 SUB SWAP1 KECCAK256 PUSH1 0x0 ADD PUSH1 0x0 DUP3 DUP3 SLOAD PUSH2 0xC57 SWAP2 SWAP1 PUSH2 0x345D JUMP JUMPDEST SWAP3 POP POP DUP2 SWAP1 SSTORE POP PUSH1 0xB DUP3 DUP3 PUSH1 0x40 MLOAD PUSH2 0xC70 SWAP3 SWAP2 SWAP1 PUSH2 0x3041 JUMP JUMPDEST SWAP1 DUP2 MSTORE PUSH1 0x20 ADD PUSH1 0x40 MLOAD DUP1 SWAP2 SUB SWAP1 KECCAK256 PUSH1 0xA DUP4 DUP4 PUSH1 0x40 MLOAD PUSH2 0xC90 SWAP3 SWAP2 SWAP1 PUSH2 0x3041 JUMP JUMPDEST SWAP1 DUP2 MSTORE PUSH1 0x20 ADD PUSH1 0x40 MLOAD DUP1 SWAP2 SUB SWAP1 KECCAK256 PUSH1 0x0 CALLER PUSH20 0xFFFFFFFFFFFFFFFFFFFFFFFFFFFFFFFFFFFFFFFF AND PUSH20 0xFFFFFFFFFFFFFFFFFFFFFFFFFFFFFFFFFFFFFFFF AND DUP2 MSTORE PUSH1 0x20 ADD SWAP1 DUP2 MSTORE PUSH1 0x20 ADD PUSH1 0x0 KECCAK256 SWAP1 DUP1 PUSH1 0x1 DUP2 SLOAD ADD DUP1 DUP3 SSTORE DUP1 SWAP2 POP POP PUSH1 0x1 SWAP1 SUB SWAP1 PUSH1 0x0 MSTORE PUSH1 0x20 PUSH1 0x0 KECCAK256 ADD PUSH1 0x0 SWAP1 SWAP2 SWAP1 SWAP2 SWAP1 SWAP2 POP PUSH1 0x0 DUP3 ADD PUSH1 0x0 SWAP1 SLOAD SWAP1 PUSH2 0x100 EXP SWAP1 DIV PUSH1 0xFF AND DUP2 PUSH1 0x0 ADD PUSH1 0x0 PUSH2 0x100 EXP DUP2 SLOAD DUP2 PUSH1 0xFF MUL NOT AND SWAP1 DUP4 ISZERO ISZERO MUL OR SWAP1 SSTORE POP PUSH1 0x0 DUP3 ADD PUSH1 0x1 SWAP1 SLOAD SWAP1 PUSH2 0x100 EXP SWAP1 DIV PUSH1 0xFF AND DUP2 PUSH1 0x0 ADD PUSH1 0x1 PUSH2 0x100 EXP DUP2 SLOAD DUP2 PUSH1 0xFF MUL NOT AND SWAP1 DUP4 ISZERO ISZERO MUL OR SWAP1 SSTORE POP PUSH1 0x0 DUP3 ADD PUSH1 0x2 SWAP1 SLOAD SWAP1 PUSH2 0x100 EXP SWAP1 DIV PUSH20 0xFFFFFFFFFFFFFFFFFFFFFFFFFFFFFFFFFFFFFFFF AND DUP2 PUSH1 0x0 ADD PUSH1 0x2 PUSH2 0x100 EXP DUP2 SLOAD DUP2 PUSH20 0xFFFFFFFFFFFFFFFFFFFFFFFFFFFFFFFFFFFFFFFF MUL NOT AND SWAP1 DUP4 PUSH20 0xFFFFFFFFFFFFFFFFFFFFFFFFFFFFFFFFFFFFFFFF AND MUL OR SWAP1 SSTORE POP POP POP PUSH2 0xFE2 JUMP JUMPDEST PUSH1 0x1 PUSH1 0xA DUP4 DUP4 PUSH1 0x40 MLOAD PUSH2 0xDDC SWAP3 SWAP2 SWAP1 PUSH2 0x3041 JUMP JUMPDEST SWAP1 DUP2 MSTORE PUSH1 0x20 ADD PUSH1 0x40 MLOAD DUP1 SWAP2 SUB SWAP1 KECCAK256 PUSH1 0x0 CALLER PUSH20 0xFFFFFFFFFFFFFFFFFFFFFFFFFFFFFFFFFFFFFFFF AND PUSH20 0xFFFFFFFFFFFFFFFFFFFFFFFFFFFFFFFFFFFFFFFF AND DUP2 MSTORE PUSH1 0x20 ADD SWAP1 DUP2 MSTORE PUSH1 0x20 ADD PUSH1 0x0 KECCAK256 PUSH1 0x0 ADD PUSH1 0x0 PUSH2 0x100 EXP DUP2 SLOAD DUP2 PUSH1 0xFF MUL NOT AND SWAP1 DUP4 ISZERO ISZERO MUL OR SWAP1 SSTORE POP PUSH1 0x1 PUSH1 0x0 DUP4 DUP4 PUSH1 0x40 MLOAD PUSH2 0xE55 SWAP3 SWAP2 SWAP1 PUSH2 0x3041 JUMP JUMPDEST SWAP1 DUP2 MSTORE PUSH1 0x20 ADD PUSH1 0x40 MLOAD DUP1 SWAP2 SUB SWAP1 KECCAK256 PUSH1 0x0 ADD PUSH1 0x0 DUP3 DUP3 SLOAD PUSH2 0xE75 SWAP2 SWAP1 PUSH2 0x345D JUMP JUMPDEST SWAP3 POP POP DUP2 SWAP1 SSTORE POP PUSH1 0xB DUP3 DUP3 PUSH1 0x40 MLOAD PUSH2 0xE8E SWAP3 SWAP2 SWAP1 PUSH2 0x3041 JUMP JUMPDEST SWAP1 DUP2 MSTORE PUSH1 0x20 ADD PUSH1 0x40 MLOAD DUP1 SWAP2 SUB SWAP1 KECCAK256 PUSH1 0xA DUP4 DUP4 PUSH1 0x40 MLOAD PUSH2 0xEAE SWAP3 SWAP2 SWAP1 PUSH2 0x3041 JUMP JUMPDEST SWAP1 DUP2 MSTORE PUSH1 0x20 ADD PUSH1 0x40 MLOAD DUP1 SWAP2 SUB SWAP1 KECCAK256 PUSH1 0x0 CALLER PUSH20 0xFFFFFFFFFFFFFFFFFFFFFFFFFFFFFFFFFFFFFFFF AND PUSH20 0xFFFFFFFFFFFFFFFFFFFFFFFFFFFFFFFFFFFFFFFF AND DUP2 MSTORE PUSH1 0x20 ADD SWAP1 DUP2 MSTORE PUSH1 0x20 ADD PUSH1 0x0 KECCAK256 SWAP1 DUP1 PUSH1 0x1 DUP2 SLOAD ADD DUP1 DUP3 SSTORE DUP1 SWAP2 POP POP PUSH1 0x1 SWAP1 SUB SWAP1 PUSH1 0x0 MSTORE PUSH1 0x20 PUSH1 0x0 KECCAK256 ADD PUSH1 0x0 SWAP1 SWAP2 SWAP1 SWAP2 SWAP1 SWAP2 POP PUSH1 0x0 DUP3 ADD PUSH1 0x0 SWAP1 SLOAD SWAP1 PUSH2 0x100 EXP SWAP1 DIV PUSH1 0xFF AND DUP2 PUSH1 0x0 ADD PUSH1 0x0 PUSH2 0x100 EXP DUP2 SLOAD DUP2 PUSH1 0xFF MUL NOT AND SWAP1 DUP4 ISZERO ISZERO MUL OR SWAP1 SSTORE POP PUSH1 0x0 DUP3 ADD PUSH1 0x1 SWAP1 SLOAD SWAP1 PUSH2 0x100 EXP SWAP1 DIV PUSH1 0xFF AND DUP2 PUSH1 0x0 ADD PUSH1 0x1 PUSH2 0x100 EXP DUP2 SLOAD DUP2 PUSH1 0xFF MUL NOT AND SWAP1 DUP4 ISZERO ISZERO MUL OR SWAP1 SSTORE POP PUSH1 0x0 DUP3 ADD PUSH1 0x2 SWAP1 SLOAD SWAP1 PUSH2 0x100 EXP SWAP1 DIV PUSH20 0xFFFFFFFFFFFFFFFFFFFFFFFFFFFFFFFFFFFFFFFF AND DUP2 PUSH1 0x0 ADD PUSH1 0x2 PUSH2 0x100 EXP DUP2 SLOAD DUP2 PUSH20 0xFFFFFFFFFFFFFFFFFFFFFFFFFFFFFFFFFFFFFFFF MUL NOT AND SWAP1 DUP4 PUSH20 0xFFFFFFFFFFFFFFFFFFFFFFFFFFFFFFFFFFFFFFFF AND MUL OR SWAP1 SSTORE POP POP POP JUMPDEST JUMPDEST POP POP POP JUMP JUMPDEST PUSH1 0x7 DUP2 DUP1 MLOAD PUSH1 0x20 DUP2 ADD DUP3 ADD DUP1 MLOAD DUP5 DUP3 MSTORE PUSH1 0x20 DUP4 ADD PUSH1 0x20 DUP6 ADD KECCAK256 DUP2 DUP4 MSTORE DUP1 SWAP6 POP POP POP POP POP POP PUSH1 0x0 SWAP2 POP SWAP1 POP SLOAD DUP2 JUMP JUMPDEST PUSH1 0x8 DUP2 DUP1 MLOAD PUSH1 0x20 DUP2 ADD DUP3 ADD DUP1 MLOAD DUP5 DUP3 MSTORE PUSH1 0x20 DUP4 ADD PUSH1 0x20 DUP6 ADD KECCAK256 DUP2 DUP4 MSTORE DUP1 SWAP6 POP POP POP POP POP POP PUSH1 0x0 SWAP2 POP SLOAD SWAP1 PUSH2 0x100 EXP SWAP1 DIV PUSH1 0xFF AND DUP2 JUMP JUMPDEST PUSH1 0xA DUP3 DUP1 MLOAD PUSH1 0x20 DUP2 ADD DUP3 ADD DUP1 MLOAD DUP5 DUP3 MSTORE PUSH1 0x20 DUP4 ADD PUSH1 0x20 DUP6 ADD KECCAK256 DUP2 DUP4 MSTORE DUP1 SWAP6 POP POP POP POP POP POP PUSH1 0x20 MSTORE DUP1 PUSH1 0x0 MSTORE PUSH1 0x40 PUSH1 0x0 KECCAK256 PUSH1 0x0 SWAP2 POP SWAP2 POP POP DUP1 PUSH1 0x0 ADD PUSH1 0x0 SWAP1 SLOAD SWAP1 PUSH2 0x100 EXP SWAP1 DIV PUSH1 0xFF AND SWAP1 DUP1 PUSH1 0x0 ADD PUSH1 0x1 SWAP1 SLOAD SWAP1 PUSH2 0x100 EXP SWAP1 DIV PUSH1 0xFF AND SWAP1 DUP1 PUSH1 0x0 ADD PUSH1 0x2 SWAP1 SLOAD SWAP1 PUSH2 0x100 EXP SWAP1 DIV PUSH20 0xFFFFFFFFFFFFFFFFFFFFFFFFFFFFFFFFFFFFFFFF AND SWAP1 POP DUP4 JUMP JUMPDEST PUSH1 0x0 PUSH1 0x60 PUSH1 0x0 PUSH1 0x60 PUSH1 0x0 DUP7 DUP7 PUSH1 0x40 MLOAD PUSH2 0x10ED SWAP3 SWAP2 SWAP1 PUSH2 0x3041 JUMP JUMPDEST SWAP1 DUP2 MSTORE PUSH1 0x20 ADD PUSH1 0x40 MLOAD DUP1 SWAP2 SUB SWAP1 KECCAK256 PUSH1 0x1 ADD SLOAD TIMESTAMP LT ISZERO PUSH2 0x1141 JUMPI PUSH1 0x40 MLOAD PUSH32 0x8C379A000000000000000000000000000000000000000000000000000000000 DUP2 MSTORE PUSH1 0x4 ADD PUSH2 0x1138 SWAP1 PUSH2 0x32F5 JUMP JUMPDEST PUSH1 0x40 MLOAD DUP1 SWAP2 SUB SWAP1 REVERT JUMPDEST PUSH1 0x0 PUSH1 0xB DUP8 DUP8 PUSH1 0x40 MLOAD PUSH2 0x1155 SWAP3 SWAP2 SWAP1 PUSH2 0x3041 JUMP JUMPDEST SWAP1 DUP2 MSTORE PUSH1 0x20 ADD PUSH1 0x40 MLOAD DUP1 SWAP2 SUB SWAP1 KECCAK256 DUP1 SLOAD DUP1 PUSH1 0x20 MUL PUSH1 0x20 ADD PUSH1 0x40 MLOAD SWAP1 DUP2 ADD PUSH1 0x40 MSTORE DUP1 SWAP3 SWAP2 SWAP1 DUP2 DUP2 MSTORE PUSH1 0x20 ADD PUSH1 0x0 SWAP1 JUMPDEST DUP3 DUP3 LT ISZERO PUSH2 0x123D JUMPI DUP4 DUP3 SWAP1 PUSH1 0x0 MSTORE PUSH1 0x20 PUSH1 0x0 KECCAK256 ADD PUSH1 0x40 MLOAD DUP1 PUSH1 0x60 ADD PUSH1 0x40 MSTORE SWAP1 DUP2 PUSH1 0x0 DUP3 ADD PUSH1 0x0 SWAP1 SLOAD SWAP1 PUSH2 0x100 EXP SWAP1 DIV PUSH1 0xFF AND ISZERO ISZERO ISZERO ISZERO DUP2 MSTORE PUSH1 0x20 ADD PUSH1 0x0 DUP3 ADD PUSH1 0x1 SWAP1 SLOAD SWAP1 PUSH2 0x100 EXP SWAP1 DIV PUSH1 0xFF AND ISZERO ISZERO ISZERO ISZERO DUP2 MSTORE PUSH1 0x20 ADD PUSH1 0x0 DUP3 ADD PUSH1 0x2 SWAP1 SLOAD SWAP1 PUSH2 0x100 EXP SWAP1 DIV PUSH20 0xFFFFFFFFFFFFFFFFFFFFFFFFFFFFFFFFFFFFFFFF AND PUSH20 0xFFFFFFFFFFFFFFFFFFFFFFFFFFFFFFFFFFFFFFFF AND PUSH20 0xFFFFFFFFFFFFFFFFFFFFFFFFFFFFFFFFFFFFFFFF AND DUP2 MSTORE POP POP DUP2 MSTORE PUSH1 0x20 ADD SWAP1 PUSH1 0x1 ADD SWAP1 PUSH2 0x1183 JUMP JUMPDEST POP POP POP POP SWAP1 POP PUSH1 0x0 PUSH1 0x7 DUP9 DUP9 PUSH1 0x40 MLOAD PUSH2 0x1257 SWAP3 SWAP2 SWAP1 PUSH2 0x3041 JUMP JUMPDEST SWAP1 DUP2 MSTORE PUSH1 0x20 ADD PUSH1 0x40 MLOAD DUP1 SWAP2 SUB SWAP1 KECCAK256 SLOAD SWAP1 POP PUSH1 0x0 DUP1 DUP10 DUP10 PUSH1 0x40 MLOAD PUSH2 0x127B SWAP3 SWAP2 SWAP1 PUSH2 0x3041 JUMP JUMPDEST SWAP1 DUP2 MSTORE PUSH1 0x20 ADD PUSH1 0x40 MLOAD DUP1 SWAP2 SUB SWAP1 KECCAK256 PUSH1 0x0 ADD SLOAD SWAP1 POP DUP2 DUP10 DUP10 DUP4 DUP7 DUP4 DUP4 DUP1 DUP1 PUSH1 0x1F ADD PUSH1 0x20 DUP1 SWAP2 DIV MUL PUSH1 0x20 ADD PUSH1 0x40 MLOAD SWAP1 DUP2 ADD PUSH1 0x40 MSTORE DUP1 SWAP4 SWAP3 SWAP2 SWAP1 DUP2 DUP2 MSTORE PUSH1 0x20 ADD DUP4 DUP4 DUP1 DUP3 DUP5 CALLDATACOPY PUSH1 0x0 DUP2 DUP5 ADD MSTORE PUSH1 0x1F NOT PUSH1 0x1F DUP3 ADD AND SWAP1 POP DUP1 DUP4 ADD SWAP3 POP POP POP POP POP POP POP SWAP3 POP SWAP1 SWAP2 SWAP3 POP SWAP7 POP SWAP7 POP SWAP7 POP SWAP7 POP POP POP POP SWAP3 SWAP6 SWAP2 SWAP5 POP SWAP3 POP JUMP JUMPDEST PUSH1 0x1 DUP3 DUP3 PUSH1 0x40 MLOAD PUSH2 0x1305 SWAP3 SWAP2 SWAP1 PUSH2 0x3041 JUMP JUMPDEST SWAP1 DUP2 MSTORE PUSH1 0x20 ADD PUSH1 0x40 MLOAD DUP1 SWAP2 SUB SWAP1 KECCAK256 PUSH1 0x0 SWAP1 SLOAD SWAP1 PUSH2 0x100 EXP SWAP1 DIV PUSH20 0xFFFFFFFFFFFFFFFFFFFFFFFFFFFFFFFFFFFFFFFF AND PUSH20 0xFFFFFFFFFFFFFFFFFFFFFFFFFFFFFFFFFFFFFFFF AND CALLER PUSH20 0xFFFFFFFFFFFFFFFFFFFFFFFFFFFFFFFFFFFFFFFF AND EQ PUSH2 0x13A1 JUMPI PUSH1 0x40 MLOAD PUSH32 0x8C379A000000000000000000000000000000000000000000000000000000000 DUP2 MSTORE PUSH1 0x4 ADD PUSH2 0x1398 SWAP1 PUSH2 0x32B5 JUMP JUMPDEST PUSH1 0x40 MLOAD DUP1 SWAP2 SUB SWAP1 REVERT JUMPDEST PUSH1 0x1 DUP3 DUP3 PUSH1 0x40 MLOAD PUSH2 0x13B3 SWAP3 SWAP2 SWAP1 PUSH2 0x3041 JUMP JUMPDEST SWAP1 DUP2 MSTORE PUSH1 0x20 ADD PUSH1 0x40 MLOAD DUP1 SWAP2 SUB SWAP1 KECCAK256 PUSH1 0x0 SWAP1 SLOAD SWAP1 PUSH2 0x100 EXP SWAP1 DIV PUSH20 0xFFFFFFFFFFFFFFFFFFFFFFFFFFFFFFFFFFFFFFFF AND PUSH20 0xFFFFFFFFFFFFFFFFFFFFFFFFFFFFFFFFFFFFFFFF AND DUP4 PUSH20 0xFFFFFFFFFFFFFFFFFFFFFFFFFFFFFFFFFFFFFFFF AND EQ ISZERO PUSH2 0x1450 JUMPI PUSH1 0x40 MLOAD PUSH32 0x8C379A000000000000000000000000000000000000000000000000000000000 DUP2 MSTORE PUSH1 0x4 ADD PUSH2 0x1447 SWAP1 PUSH2 0x3255 JUMP JUMPDEST PUSH1 0x40 MLOAD DUP1 SWAP2 SUB SWAP1 REVERT JUMPDEST PUSH1 0x0 PUSH20 0xFFFFFFFFFFFFFFFFFFFFFFFFFFFFFFFFFFFFFFFF AND PUSH1 0xA DUP4 DUP4 PUSH1 0x40 MLOAD PUSH2 0x147A SWAP3 SWAP2 SWAP1 PUSH2 0x3041 JUMP JUMPDEST SWAP1 DUP2 MSTORE PUSH1 0x20 ADD PUSH1 0x40 MLOAD DUP1 SWAP2 SUB SWAP1 KECCAK256 PUSH1 0x0 DUP6 PUSH20 0xFFFFFFFFFFFFFFFFFFFFFFFFFFFFFFFFFFFFFFFF AND PUSH20 0xFFFFFFFFFFFFFFFFFFFFFFFFFFFFFFFFFFFFFFFF AND DUP2 MSTORE PUSH1 0x20 ADD SWAP1 DUP2 MSTORE PUSH1 0x20 ADD PUSH1 0x0 KECCAK256 PUSH1 0x0 ADD PUSH1 0x2 SWAP1 SLOAD SWAP1 PUSH2 0x100 EXP SWAP1 DIV PUSH20 0xFFFFFFFFFFFFFFFFFFFFFFFFFFFFFFFFFFFFFFFF AND PUSH20 0xFFFFFFFFFFFFFFFFFFFFFFFFFFFFFFFFFFFFFFFF AND EQ PUSH2 0x153F JUMPI PUSH1 0x40 MLOAD PUSH32 0x8C379A000000000000000000000000000000000000000000000000000000000 DUP2 MSTORE PUSH1 0x4 ADD PUSH2 0x1536 SWAP1 PUSH2 0x31D5 JUMP JUMPDEST PUSH1 0x40 MLOAD DUP1 SWAP2 SUB SWAP1 REVERT JUMPDEST PUSH1 0x0 DUP3 DUP3 PUSH1 0x40 MLOAD PUSH2 0x1551 SWAP3 SWAP2 SWAP1 PUSH2 0x3041 JUMP JUMPDEST SWAP1 DUP2 MSTORE PUSH1 0x20 ADD PUSH1 0x40 MLOAD DUP1 SWAP2 SUB SWAP1 KECCAK256 PUSH1 0x1 ADD SLOAD TIMESTAMP LT PUSH2 0x15A4 JUMPI PUSH1 0x40 MLOAD PUSH32 0x8C379A000000000000000000000000000000000000000000000000000000000 DUP2 MSTORE PUSH1 0x4 ADD PUSH2 0x159B SWAP1 PUSH2 0x3295 JUMP JUMPDEST PUSH1 0x40 MLOAD DUP1 SWAP2 SUB SWAP1 REVERT JUMPDEST PUSH1 0x0 PUSH1 0x40 MLOAD DUP1 PUSH1 0x60 ADD PUSH1 0x40 MSTORE DUP1 PUSH1 0x0 ISZERO ISZERO DUP2 MSTORE PUSH1 0x20 ADD PUSH1 0x0 ISZERO ISZERO DUP2 MSTORE PUSH1 0x20 ADD DUP6 PUSH20 0xFFFFFFFFFFFFFFFFFFFFFFFFFFFFFFFFFFFFFFFF AND DUP2 MSTORE POP SWAP1 POP DUP1 PUSH1 0xA DUP5 DUP5 PUSH1 0x40 MLOAD PUSH2 0x15F2 SWAP3 SWAP2 SWAP1 PUSH2 0x3041 JUMP JUMPDEST SWAP1 DUP2 MSTORE PUSH1 0x20 ADD PUSH1 0x40 MLOAD DUP1 SWAP2 SUB SWAP1 KECCAK256 PUSH1 0x0 DUP7 PUSH20 0xFFFFFFFFFFFFFFFFFFFFFFFFFFFFFFFFFFFFFFFF AND PUSH20 0xFFFFFFFFFFFFFFFFFFFFFFFFFFFFFFFFFFFFFFFF AND DUP2 MSTORE PUSH1 0x20 ADD SWAP1 DUP2 MSTORE PUSH1 0x20 ADD PUSH1 0x0 KECCAK256 PUSH1 0x0 DUP3 ADD MLOAD DUP2 PUSH1 0x0 ADD PUSH1 0x0 PUSH2 0x100 EXP DUP2 SLOAD DUP2 PUSH1 0xFF MUL NOT AND SWAP1 DUP4 ISZERO ISZERO MUL OR SWAP1 SSTORE POP PUSH1 0x20 DUP3 ADD MLOAD DUP2 PUSH1 0x0 ADD PUSH1 0x1 PUSH2 0x100 EXP DUP2 SLOAD DUP2 PUSH1 0xFF MUL NOT AND SWAP1 DUP4 ISZERO ISZERO MUL OR SWAP1 SSTORE POP PUSH1 0x40 DUP3 ADD MLOAD DUP2 PUSH1 0x0 ADD PUSH1 0x2 PUSH2 0x100 EXP DUP2 SLOAD DUP2 PUSH20 0xFFFFFFFFFFFFFFFFFFFFFFFFFFFFFFFFFFFFFFFF MUL NOT AND SWAP1 DUP4 PUSH20 0xFFFFFFFFFFFFFFFFFFFFFFFFFFFFFFFFFFFFFFFF AND MUL OR SWAP1 SSTORE POP SWAP1 POP POP PUSH1 0xC DUP4 DUP4 PUSH1 0x40 MLOAD PUSH2 0x16D9 SWAP3 SWAP2 SWAP1 PUSH2 0x3041 JUMP JUMPDEST SWAP1 DUP2 MSTORE PUSH1 0x20 ADD PUSH1 0x40 MLOAD DUP1 SWAP2 SUB SWAP1 KECCAK256 DUP5 SWAP1 DUP1 PUSH1 0x1 DUP2 SLOAD ADD DUP1 DUP3 SSTORE DUP1 SWAP2 POP POP PUSH1 0x1 SWAP1 SUB SWAP1 PUSH1 0x0 MSTORE PUSH1 0x20 PUSH1 0x0 KECCAK256 ADD PUSH1 0x0 SWAP1 SWAP2 SWAP1 SWAP2 SWAP1 SWAP2 PUSH2 0x100 EXP DUP2 SLOAD DUP2 PUSH20 0xFFFFFFFFFFFFFFFFFFFFFFFFFFFFFFFFFFFFFFFF MUL NOT AND SWAP1 DUP4 PUSH20 0xFFFFFFFFFFFFFFFFFFFFFFFFFFFFFFFFFFFFFFFF AND MUL OR SWAP1 SSTORE POP POP POP POP POP JUMP JUMPDEST PUSH1 0x0 PUSH20 0xFFFFFFFFFFFFFFFFFFFFFFFFFFFFFFFFFFFFFFFF AND PUSH1 0x1 DUP8 PUSH1 0x40 MLOAD PUSH2 0x1776 SWAP2 SWAP1 PUSH2 0x305A JUMP JUMPDEST SWAP1 DUP2 MSTORE PUSH1 0x20 ADD PUSH1 0x40 MLOAD DUP1 SWAP2 SUB SWAP1 KECCAK256 PUSH1 0x0 SWAP1 SLOAD SWAP1 PUSH2 0x100 EXP SWAP1 DIV PUSH20 0xFFFFFFFFFFFFFFFFFFFFFFFFFFFFFFFFFFFFFFFF AND PUSH20 0xFFFFFFFFFFFFFFFFFFFFFFFFFFFFFFFFFFFFFFFF AND EQ PUSH2 0x17FB JUMPI PUSH1 0x40 MLOAD PUSH32 0x8C379A000000000000000000000000000000000000000000000000000000000 DUP2 MSTORE PUSH1 0x4 ADD PUSH2 0x17F2 SWAP1 PUSH2 0x31F5 JUMP JUMPDEST PUSH1 0x40 MLOAD DUP1 SWAP2 SUB SWAP1 REVERT JUMPDEST PUSH1 0x0 PUSH1 0x40 MLOAD DUP1 PUSH1 0x60 ADD PUSH1 0x40 MSTORE DUP1 PUSH1 0x0 DUP2 MSTORE PUSH1 0x20 ADD DUP8 TIMESTAMP PUSH2 0x181B SWAP2 SWAP1 PUSH2 0x345D JUMP JUMPDEST DUP2 MSTORE PUSH1 0x20 ADD DUP7 DUP2 MSTORE POP SWAP1 POP DUP7 PUSH1 0x2 DUP5 PUSH1 0x40 MLOAD PUSH2 0x1837 SWAP2 SWAP1 PUSH2 0x305A JUMP JUMPDEST SWAP1 DUP2 MSTORE PUSH1 0x20 ADD PUSH1 0x40 MLOAD DUP1 SWAP2 SUB SWAP1 KECCAK256 SWAP1 DUP1 MLOAD SWAP1 PUSH1 0x20 ADD SWAP1 PUSH2 0x1858 SWAP3 SWAP2 SWAP1 PUSH2 0x2754 JUMP JUMPDEST POP PUSH1 0x0 PUSH1 0x8 DUP9 PUSH1 0x40 MLOAD PUSH2 0x186B SWAP2 SWAP1 PUSH2 0x305A JUMP JUMPDEST SWAP1 DUP2 MSTORE PUSH1 0x20 ADD PUSH1 0x40 MLOAD DUP1 SWAP2 SUB SWAP1 KECCAK256 PUSH1 0x0 PUSH2 0x100 EXP DUP2 SLOAD DUP2 PUSH1 0xFF MUL NOT AND SWAP1 DUP4 ISZERO ISZERO MUL OR SWAP1 SSTORE POP PUSH32 0x52656A6563746564000000000000000000000000000000000000000000000000 PUSH1 0x7 DUP9 PUSH1 0x40 MLOAD PUSH2 0x18C1 SWAP2 SWAP1 PUSH2 0x305A JUMP JUMPDEST SWAP1 DUP2 MSTORE PUSH1 0x20 ADD PUSH1 0x40 MLOAD DUP1 SWAP2 SUB SWAP1 KECCAK256 DUP2 SWAP1 SSTORE POP DUP6 PUSH1 0x3 DUP9 PUSH1 0x40 MLOAD PUSH2 0x18E4 SWAP2 SWAP1 PUSH2 0x305A JUMP JUMPDEST SWAP1 DUP2 MSTORE PUSH1 0x20 ADD PUSH1 0x40 MLOAD DUP1 SWAP2 SUB SWAP1 KECCAK256 DUP2 SWAP1 SSTORE POP DUP6 PUSH1 0x3 DUP5 PUSH1 0x40 MLOAD PUSH2 0x1907 SWAP2 SWAP1 PUSH2 0x305A JUMP JUMPDEST SWAP1 DUP2 MSTORE PUSH1 0x20 ADD PUSH1 0x40 MLOAD DUP1 SWAP2 SUB SWAP1 KECCAK256 DUP2 SWAP1 SSTORE POP DUP4 PUSH1 0x4 DUP9 PUSH1 0x40 MLOAD PUSH2 0x192A SWAP2 SWAP1 PUSH2 0x305A JUMP JUMPDEST SWAP1 DUP2 MSTORE PUSH1 0x20 ADD PUSH1 0x40 MLOAD DUP1 SWAP2 SUB SWAP1 KECCAK256 DUP2 SWAP1 SSTORE POP DUP4 PUSH1 0x4 DUP5 PUSH1 0x40 MLOAD PUSH2 0x194D SWAP2 SWAP1 PUSH2 0x305A JUMP JUMPDEST SWAP1 DUP2 MSTORE PUSH1 0x20 ADD PUSH1 0x40 MLOAD DUP1 SWAP2 SUB SWAP1 KECCAK256 DUP2 SWAP1 SSTORE POP DUP3 PUSH1 0x9 DUP9 PUSH1 0x40 MLOAD PUSH2 0x1970 SWAP2 SWAP1 PUSH2 0x305A JUMP JUMPDEST SWAP1 DUP2 MSTORE PUSH1 0x20 ADD PUSH1 0x40 MLOAD DUP1 SWAP2 SUB SWAP1 KECCAK256 SWAP1 DUP1 MLOAD SWAP1 PUSH1 0x20 ADD SWAP1 PUSH2 0x1991 SWAP3 SWAP2 SWAP1 PUSH2 0x2754 JUMP JUMPDEST POP DUP2 PUSH1 0x6 DUP9 PUSH1 0x40 MLOAD PUSH2 0x19A3 SWAP2 SWAP1 PUSH2 0x305A JUMP JUMPDEST SWAP1 DUP2 MSTORE PUSH1 0x20 ADD PUSH1 0x40 MLOAD DUP1 SWAP2 SUB SWAP1 KECCAK256 SWAP1 DUP1 MLOAD SWAP1 PUSH1 0x20 ADD SWAP1 PUSH2 0x19C4 SWAP3 SWAP2 SWAP1 PUSH2 0x2754 JUMP JUMPDEST POP PUSH1 0x0 PUSH1 0x5 DUP9 PUSH1 0x40 MLOAD PUSH2 0x19D7 SWAP2 SWAP1 PUSH2 0x305A JUMP JUMPDEST SWAP1 DUP2 MSTORE PUSH1 0x20 ADD PUSH1 0x40 MLOAD DUP1 SWAP2 SUB SWAP1 KECCAK256 DUP2 SWAP1 SSTORE POP CALLER PUSH1 0x1 DUP9 PUSH1 0x40 MLOAD PUSH2 0x19FA SWAP2 SWAP1 PUSH2 0x305A JUMP JUMPDEST SWAP1 DUP2 MSTORE PUSH1 0x20 ADD PUSH1 0x40 MLOAD DUP1 SWAP2 SUB SWAP1 KECCAK256 PUSH1 0x0 PUSH2 0x100 EXP DUP2 SLOAD DUP2 PUSH20 0xFFFFFFFFFFFFFFFFFFFFFFFFFFFFFFFFFFFFFFFF MUL NOT AND SWAP1 DUP4 PUSH20 0xFFFFFFFFFFFFFFFFFFFFFFFFFFFFFFFFFFFFFFFF AND MUL OR SWAP1 SSTORE POP CALLER PUSH1 0x1 DUP5 PUSH1 0x40 MLOAD PUSH2 0x1A57 SWAP2 SWAP1 PUSH2 0x305A JUMP JUMPDEST SWAP1 DUP2 MSTORE PUSH1 0x20 ADD PUSH1 0x40 MLOAD DUP1 SWAP2 SUB SWAP1 KECCAK256 PUSH1 0x0 PUSH2 0x100 EXP DUP2 SLOAD DUP2 PUSH20 0xFFFFFFFFFFFFFFFFFFFFFFFFFFFFFFFFFFFFFFFF MUL NOT AND SWAP1 DUP4 PUSH20 0xFFFFFFFFFFFFFFFFFFFFFFFFFFFFFFFFFFFFFFFF AND MUL OR SWAP1 SSTORE POP DUP1 PUSH1 0x0 DUP9 PUSH1 0x40 MLOAD PUSH2 0x1AB4 SWAP2 SWAP1 PUSH2 0x305A JUMP JUMPDEST SWAP1 DUP2 MSTORE PUSH1 0x20 ADD PUSH1 0x40 MLOAD DUP1 SWAP2 SUB SWAP1 KECCAK256 PUSH1 0x0 DUP3 ADD MLOAD DUP2 PUSH1 0x0 ADD SSTORE PUSH1 0x20 DUP3 ADD MLOAD DUP2 PUSH1 0x1 ADD SSTORE PUSH1 0x40 DUP3 ADD MLOAD DUP2 PUSH1 0x2 ADD SSTORE SWAP1 POP POP DUP1 PUSH1 0x0 DUP5 PUSH1 0x40 MLOAD PUSH2 0x1AF4 SWAP2 SWAP1 PUSH2 0x305A JUMP JUMPDEST SWAP1 DUP2 MSTORE PUSH1 0x20 ADD PUSH1 0x40 MLOAD DUP1 SWAP2 SUB SWAP1 KECCAK256 PUSH1 0x0 DUP3 ADD MLOAD DUP2 PUSH1 0x0 ADD SSTORE PUSH1 0x20 DUP3 ADD MLOAD DUP2 PUSH1 0x1 ADD SSTORE PUSH1 0x40 DUP3 ADD MLOAD DUP2 PUSH1 0x2 ADD SSTORE SWAP1 POP POP POP POP POP POP POP POP POP JUMP JUMPDEST PUSH1 0x0 DUP3 DUP3 PUSH1 0x40 MLOAD PUSH2 0x1B3E SWAP3 SWAP2 SWAP1 PUSH2 0x3041 JUMP JUMPDEST SWAP1 DUP2 MSTORE PUSH1 0x20 ADD PUSH1 0x40 MLOAD DUP1 SWAP2 SUB SWAP1 KECCAK256 PUSH1 0x1 ADD SLOAD TIMESTAMP LT ISZERO PUSH2 0x1B92 JUMPI PUSH1 0x40 MLOAD PUSH32 0x8C379A000000000000000000000000000000000000000000000000000000000 DUP2 MSTORE PUSH1 0x4 ADD PUSH2 0x1B89 SWAP1 PUSH2 0x32F5 JUMP JUMPDEST PUSH1 0x40 MLOAD DUP1 SWAP2 SUB SWAP1 REVERT JUMPDEST PUSH1 0x0 ISZERO ISZERO PUSH1 0x8 DUP4 DUP4 PUSH1 0x40 MLOAD PUSH2 0x1BA8 SWAP3 SWAP2 SWAP1 PUSH2 0x3041 JUMP JUMPDEST SWAP1 DUP2 MSTORE PUSH1 0x20 ADD PUSH1 0x40 MLOAD DUP1 SWAP2 SUB SWAP1 KECCAK256 PUSH1 0x0 SWAP1 SLOAD SWAP1 PUSH2 0x100 EXP SWAP1 DIV PUSH1 0xFF AND ISZERO ISZERO EQ PUSH2 0x1C06 JUMPI PUSH1 0x40 MLOAD PUSH32 0x8C379A000000000000000000000000000000000000000000000000000000000 DUP2 MSTORE PUSH1 0x4 ADD PUSH2 0x1BFD SWAP1 PUSH2 0x3335 JUMP JUMPDEST PUSH1 0x40 MLOAD DUP1 SWAP2 SUB SWAP1 REVERT JUMPDEST PUSH1 0x1 DUP3 DUP3 PUSH1 0x40 MLOAD PUSH2 0x1C18 SWAP3 SWAP2 SWAP1 PUSH2 0x3041 JUMP JUMPDEST SWAP1 DUP2 MSTORE PUSH1 0x20 ADD PUSH1 0x40 MLOAD DUP1 SWAP2 SUB SWAP1 KECCAK256 PUSH1 0x0 SWAP1 SLOAD SWAP1 PUSH2 0x100 EXP SWAP1 DIV PUSH20 0xFFFFFFFFFFFFFFFFFFFFFFFFFFFFFFFFFFFFFFFF AND PUSH20 0xFFFFFFFFFFFFFFFFFFFFFFFFFFFFFFFFFFFFFFFF AND CALLER PUSH20 0xFFFFFFFFFFFFFFFFFFFFFFFFFFFFFFFFFFFFFFFF AND EQ DUP1 PUSH2 0x1D2D JUMPI POP PUSH1 0x0 PUSH20 0xFFFFFFFFFFFFFFFFFFFFFFFFFFFFFFFFFFFFFFFF AND PUSH1 0xA DUP4 DUP4 PUSH1 0x40 MLOAD PUSH2 0x1CA5 SWAP3 SWAP2 SWAP1 PUSH2 0x3041 JUMP JUMPDEST SWAP1 DUP2 MSTORE PUSH1 0x20 ADD PUSH1 0x40 MLOAD DUP1 SWAP2 SUB SWAP1 KECCAK256 PUSH1 0x0 CALLER PUSH20 0xFFFFFFFFFFFFFFFFFFFFFFFFFFFFFFFFFFFFFFFF AND PUSH20 0xFFFFFFFFFFFFFFFFFFFFFFFFFFFFFFFFFFFFFFFF AND DUP2 MSTORE PUSH1 0x20 ADD SWAP1 DUP2 MSTORE PUSH1 0x20 ADD PUSH1 0x0 KECCAK256 PUSH1 0x0 ADD PUSH1 0x2 SWAP1 SLOAD SWAP1 PUSH2 0x100 EXP SWAP1 DIV PUSH20 0xFFFFFFFFFFFFFFFFFFFFFFFFFFFFFFFFFFFFFFFF AND PUSH20 0xFFFFFFFFFFFFFFFFFFFFFFFFFFFFFFFFFFFFFFFF AND EQ ISZERO JUMPDEST PUSH2 0x1D6C JUMPI PUSH1 0x40 MLOAD PUSH32 0x8C379A000000000000000000000000000000000000000000000000000000000 DUP2 MSTORE PUSH1 0x4 ADD PUSH2 0x1D63 SWAP1 PUSH2 0x3215 JUMP JUMPDEST PUSH1 0x40 MLOAD DUP1 SWAP2 SUB SWAP1 REVERT JUMPDEST PUSH1 0x0 PUSH1 0x64 PUSH1 0xC DUP5 DUP5 PUSH1 0x40 MLOAD PUSH2 0x1D82 SWAP3 SWAP2 SWAP1 PUSH2 0x3041 JUMP JUMPDEST SWAP1 DUP2 MSTORE PUSH1 0x20 ADD PUSH1 0x40 MLOAD DUP1 SWAP2 SUB SWAP1 KECCAK256 DUP1 SLOAD SWAP1 POP PUSH1 0x5 DUP6 DUP6 PUSH1 0x40 MLOAD PUSH2 0x1DA6 SWAP3 SWAP2 SWAP1 PUSH2 0x3041 JUMP JUMPDEST SWAP1 DUP2 MSTORE PUSH1 0x20 ADD PUSH1 0x40 MLOAD DUP1 SWAP2 SUB SWAP1 KECCAK256 SLOAD PUSH2 0x1DBF SWAP2 SWAP1 PUSH2 0x34B3 JUMP JUMPDEST PUSH2 0x1DC9 SWAP2 SWAP1 PUSH2 0x34E4 JUMP JUMPDEST SWAP1 POP PUSH1 0x0 DUP4 DUP4 PUSH1 0x40 MLOAD PUSH2 0x1DDD SWAP3 SWAP2 SWAP1 PUSH2 0x3041 JUMP JUMPDEST SWAP1 DUP2 MSTORE PUSH1 0x20 ADD PUSH1 0x40 MLOAD DUP1 SWAP2 SUB SWAP1 KECCAK256 PUSH1 0x2 ADD SLOAD DUP2 LT PUSH2 0x1E3B JUMPI PUSH32 0x4163636570746564000000000000000000000000000000000000000000000000 PUSH1 0x7 DUP5 DUP5 PUSH1 0x40 MLOAD PUSH2 0x1E28 SWAP3 SWAP2 SWAP1 PUSH2 0x3041 JUMP JUMPDEST SWAP1 DUP2 MSTORE PUSH1 0x20 ADD PUSH1 0x40 MLOAD DUP1 SWAP2 SUB SWAP1 KECCAK256 DUP2 SWAP1 SSTORE POP JUMPDEST PUSH1 0x0 JUMPDEST PUSH1 0xC DUP5 DUP5 PUSH1 0x40 MLOAD PUSH2 0x1E50 SWAP3 SWAP2 SWAP1 PUSH2 0x3041 JUMP JUMPDEST SWAP1 DUP2 MSTORE PUSH1 0x20 ADD PUSH1 0x40 MLOAD DUP1 SWAP2 SUB SWAP1 KECCAK256 DUP1 SLOAD SWAP1 POP DUP2 PUSH1 0xFF AND LT ISZERO PUSH2 0x211D JUMPI PUSH1 0x0 ISZERO ISZERO PUSH1 0xA DUP6 DUP6 PUSH1 0x40 MLOAD PUSH2 0x1E82 SWAP3 SWAP2 SWAP1 PUSH2 0x3041 JUMP JUMPDEST SWAP1 DUP2 MSTORE PUSH1 0x20 ADD PUSH1 0x40 MLOAD DUP1 SWAP2 SUB SWAP1 KECCAK256 PUSH1 0x0 PUSH1 0xC DUP8 DUP8 PUSH1 0x40 MLOAD PUSH2 0x1EA4 SWAP3 SWAP2 SWAP1 PUSH2 0x3041 JUMP JUMPDEST SWAP1 DUP2 MSTORE PUSH1 0x20 ADD PUSH1 0x40 MLOAD DUP1 SWAP2 SUB SWAP1 KECCAK256 DUP5 PUSH1 0xFF AND DUP2 SLOAD DUP2 LT PUSH2 0x1EC7 JUMPI PUSH2 0x1EC6 PUSH2 0x36F9 JUMP JUMPDEST JUMPDEST SWAP1 PUSH1 0x0 MSTORE PUSH1 0x20 PUSH1 0x0 KECCAK256 ADD PUSH1 0x0 SWAP1 SLOAD SWAP1 PUSH2 0x100 EXP SWAP1 DIV PUSH20 0xFFFFFFFFFFFFFFFFFFFFFFFFFFFFFFFFFFFFFFFF AND PUSH20 0xFFFFFFFFFFFFFFFFFFFFFFFFFFFFFFFFFFFFFFFF AND PUSH20 0xFFFFFFFFFFFFFFFFFFFFFFFFFFFFFFFFFFFFFFFF AND DUP2 MSTORE PUSH1 0x20 ADD SWAP1 DUP2 MSTORE PUSH1 0x20 ADD PUSH1 0x0 KECCAK256 PUSH1 0x0 ADD PUSH1 0x0 SWAP1 SLOAD SWAP1 PUSH2 0x100 EXP SWAP1 DIV PUSH1 0xFF AND ISZERO ISZERO EQ ISZERO PUSH2 0x210A JUMPI PUSH1 0xB DUP5 DUP5 PUSH1 0x40 MLOAD PUSH2 0x1F57 SWAP3 SWAP2 SWAP1 PUSH2 0x3041 JUMP JUMPDEST SWAP1 DUP2 MSTORE PUSH1 0x20 ADD PUSH1 0x40 MLOAD DUP1 SWAP2 SUB SWAP1 KECCAK256 PUSH1 0xA DUP6 DUP6 PUSH1 0x40 MLOAD PUSH2 0x1F77 SWAP3 SWAP2 SWAP1 PUSH2 0x3041 JUMP JUMPDEST SWAP1 DUP2 MSTORE PUSH1 0x20 ADD PUSH1 0x40 MLOAD DUP1 SWAP2 SUB SWAP1 KECCAK256 PUSH1 0x0 PUSH1 0xC DUP8 DUP8 PUSH1 0x40 MLOAD PUSH2 0x1F99 SWAP3 SWAP2 SWAP1 PUSH2 0x3041 JUMP JUMPDEST SWAP1 DUP2 MSTORE PUSH1 0x20 ADD PUSH1 0x40 MLOAD DUP1 SWAP2 SUB SWAP1 KECCAK256 DUP5 PUSH1 0xFF AND DUP2 SLOAD DUP2 LT PUSH2 0x1FBC JUMPI PUSH2 0x1FBB PUSH2 0x36F9 JUMP JUMPDEST JUMPDEST SWAP1 PUSH1 0x0 MSTORE PUSH1 0x20 PUSH1 0x0 KECCAK256 ADD PUSH1 0x0 SWAP1 SLOAD SWAP1 PUSH2 0x100 EXP SWAP1 DIV PUSH20 0xFFFFFFFFFFFFFFFFFFFFFFFFFFFFFFFFFFFFFFFF AND PUSH20 0xFFFFFFFFFFFFFFFFFFFFFFFFFFFFFFFFFFFFFFFF AND PUSH20 0xFFFFFFFFFFFFFFFFFFFFFFFFFFFFFFFFFFFFFFFF AND DUP2 MSTORE PUSH1 0x20 ADD SWAP1 DUP2 MSTORE PUSH1 0x20 ADD PUSH1 0x0 KECCAK256 SWAP1 DUP1 PUSH1 0x1 DUP2 SLOAD ADD DUP1 DUP3 SSTORE DUP1 SWAP2 POP POP PUSH1 0x1 SWAP1 SUB SWAP1 PUSH1 0x0 MSTORE PUSH1 0x20 PUSH1 0x0 KECCAK256 ADD PUSH1 0x0 SWAP1 SWAP2 SWAP1 SWAP2 SWAP1 SWAP2 POP PUSH1 0x0 DUP3 ADD PUSH1 0x0 SWAP1 SLOAD SWAP1 PUSH2 0x100 EXP SWAP1 DIV PUSH1 0xFF AND DUP2 PUSH1 0x0 ADD PUSH1 0x0 PUSH2 0x100 EXP DUP2 SLOAD DUP2 PUSH1 0xFF MUL NOT AND SWAP1 DUP4 ISZERO ISZERO MUL OR SWAP1 SSTORE POP PUSH1 0x0 DUP3 ADD PUSH1 0x1 SWAP1 SLOAD SWAP1 PUSH2 0x100 EXP SWAP1 DIV PUSH1 0xFF AND DUP2 PUSH1 0x0 ADD PUSH1 0x1 PUSH2 0x100 EXP DUP2 SLOAD DUP2 PUSH1 0xFF MUL NOT AND SWAP1 DUP4 ISZERO ISZERO MUL OR SWAP1 SSTORE POP PUSH1 0x0 DUP3 ADD PUSH1 0x2 SWAP1 SLOAD SWAP1 PUSH2 0x100 EXP SWAP1 DIV PUSH20 0xFFFFFFFFFFFFFFFFFFFFFFFFFFFFFFFFFFFFFFFF AND DUP2 PUSH1 0x0 ADD PUSH1 0x2 PUSH2 0x100 EXP DUP2 SLOAD DUP2 PUSH20 0xFFFFFFFFFFFFFFFFFFFFFFFFFFFFFFFFFFFFFFFF MUL NOT AND SWAP1 DUP4 PUSH20 0xFFFFFFFFFFFFFFFFFFFFFFFFFFFFFFFFFFFFFFFF AND MUL OR SWAP1 SSTORE POP POP POP JUMPDEST DUP1 DUP1 PUSH2 0x2115 SWAP1 PUSH2 0x3642 JUMP JUMPDEST SWAP2 POP POP PUSH2 0x1E3E JUMP JUMPDEST POP PUSH1 0x1 PUSH1 0x8 DUP5 DUP5 PUSH1 0x40 MLOAD PUSH2 0x2132 SWAP3 SWAP2 SWAP1 PUSH2 0x3041 JUMP JUMPDEST SWAP1 DUP2 MSTORE PUSH1 0x20 ADD PUSH1 0x40 MLOAD DUP1 SWAP2 SUB SWAP1 KECCAK256 PUSH1 0x0 PUSH2 0x100 EXP DUP2 SLOAD DUP2 PUSH1 0xFF MUL NOT AND SWAP1 DUP4 ISZERO ISZERO MUL OR SWAP1 SSTORE POP POP POP POP JUMP JUMPDEST PUSH1 0x6 DUP2 DUP1 MLOAD PUSH1 0x20 DUP2 ADD DUP3 ADD DUP1 MLOAD DUP5 DUP3 MSTORE PUSH1 0x20 DUP4 ADD PUSH1 0x20 DUP6 ADD KECCAK256 DUP2 DUP4 MSTORE DUP1 SWAP6 POP POP POP POP POP POP PUSH1 0x0 SWAP2 POP SWAP1 POP DUP1 SLOAD PUSH2 0x2191 SWAP1 PUSH2 0x35DF JUMP JUMPDEST DUP1 PUSH1 0x1F ADD PUSH1 0x20 DUP1 SWAP2 DIV MUL PUSH1 0x20 ADD PUSH1 0x40 MLOAD SWAP1 DUP2 ADD PUSH1 0x40 MSTORE DUP1 SWAP3 SWAP2 SWAP1 DUP2 DUP2 MSTORE PUSH1 0x20 ADD DUP3 DUP1 SLOAD PUSH2 0x21BD SWAP1 PUSH2 0x35DF JUMP JUMPDEST DUP1 ISZERO PUSH2 0x220A JUMPI DUP1 PUSH1 0x1F LT PUSH2 0x21DF JUMPI PUSH2 0x100 DUP1 DUP4 SLOAD DIV MUL DUP4 MSTORE SWAP2 PUSH1 0x20 ADD SWAP2 PUSH2 0x220A JUMP JUMPDEST DUP3 ADD SWAP2 SWAP1 PUSH1 0x0 MSTORE PUSH1 0x20 PUSH1 0x0 KECCAK256 SWAP1 JUMPDEST DUP2 SLOAD DUP2 MSTORE SWAP1 PUSH1 0x1 ADD SWAP1 PUSH1 0x20 ADD DUP1 DUP4 GT PUSH2 0x21ED JUMPI DUP3 SWAP1 SUB PUSH1 0x1F AND DUP3 ADD SWAP2 JUMPDEST POP POP POP POP POP DUP2 JUMP JUMPDEST PUSH1 0xB DUP3 DUP1 MLOAD PUSH1 0x20 DUP2 ADD DUP3 ADD DUP1 MLOAD DUP5 DUP3 MSTORE PUSH1 0x20 DUP4 ADD PUSH1 0x20 DUP6 ADD KECCAK256 DUP2 DUP4 MSTORE DUP1 SWAP6 POP POP POP POP POP POP DUP2 DUP2 SLOAD DUP2 LT PUSH2 0x2244 JUMPI PUSH1 0x0 DUP1 REVERT JUMPDEST SWAP1 PUSH1 0x0 MSTORE PUSH1 0x20 PUSH1 0x0 KECCAK256 ADD PUSH1 0x0 SWAP2 POP SWAP2 POP POP DUP1 PUSH1 0x0 ADD PUSH1 0x0 SWAP1 SLOAD SWAP1 PUSH2 0x100 EXP SWAP1 DIV PUSH1 0xFF AND SWAP1 DUP1 PUSH1 0x0 ADD PUSH1 0x1 SWAP1 SLOAD SWAP1 PUSH2 0x100 EXP SWAP1 DIV PUSH1 0xFF AND SWAP1 DUP1 PUSH1 0x0 ADD PUSH1 0x2 SWAP1 SLOAD SWAP1 PUSH2 0x100 EXP SWAP1 DIV PUSH20 0xFFFFFFFFFFFFFFFFFFFFFFFFFFFFFFFFFFFFFFFF AND SWAP1 POP DUP4 JUMP JUMPDEST PUSH1 0x5 DUP2 DUP1 MLOAD PUSH1 0x20 DUP2 ADD DUP3 ADD DUP1 MLOAD DUP5 DUP3 MSTORE PUSH1 0x20 DUP4 ADD PUSH1 0x20 DUP6 ADD KECCAK256 DUP2 DUP4 MSTORE DUP1 SWAP6 POP POP POP POP POP POP PUSH1 0x0 SWAP2 POP SWAP1 POP SLOAD DUP2 JUMP JUMPDEST PUSH1 0x0 DUP1 PUSH1 0x0 PUSH1 0x1 DUP8 PUSH1 0x40 MLOAD PUSH2 0x22E8 SWAP2 SWAP1 PUSH2 0x305A JUMP JUMPDEST SWAP1 DUP2 MSTORE PUSH1 0x20 ADD PUSH1 0x40 MLOAD DUP1 SWAP2 SUB SWAP1 KECCAK256 PUSH1 0x0 SWAP1 SLOAD SWAP1 PUSH2 0x100 EXP SWAP1 DIV PUSH20 0xFFFFFFFFFFFFFFFFFFFFFFFFFFFFFFFFFFFFFFFF AND PUSH20 0xFFFFFFFFFFFFFFFFFFFFFFFFFFFFFFFFFFFFFFFF AND CALLER PUSH20 0xFFFFFFFFFFFFFFFFFFFFFFFFFFFFFFFFFFFFFFFF AND EQ PUSH2 0x2384 JUMPI PUSH1 0x40 MLOAD PUSH32 0x8C379A000000000000000000000000000000000000000000000000000000000 DUP2 MSTORE PUSH1 0x4 ADD PUSH2 0x237B SWAP1 PUSH2 0x32D5 JUMP JUMPDEST PUSH1 0x40 MLOAD DUP1 SWAP2 SUB SWAP1 REVERT JUMPDEST PUSH1 0x0 PUSH1 0x1 SWAP1 POP PUSH1 0x0 PUSH1 0x1 SWAP1 POP PUSH1 0x0 PUSH1 0x1 SWAP1 POP PUSH1 0x0 PUSH20 0xFFFFFFFFFFFFFFFFFFFFFFFFFFFFFFFFFFFFFFFF AND PUSH1 0x1 DUP12 PUSH1 0x40 MLOAD PUSH2 0x23BE SWAP2 SWAP1 PUSH2 0x305A JUMP JUMPDEST SWAP1 DUP2 MSTORE PUSH1 0x20 ADD PUSH1 0x40 MLOAD DUP1 SWAP2 SUB SWAP1 KECCAK256 PUSH1 0x0 SWAP1 SLOAD SWAP1 PUSH2 0x100 EXP SWAP1 DIV PUSH20 0xFFFFFFFFFFFFFFFFFFFFFFFFFFFFFFFFFFFFFFFF AND PUSH20 0xFFFFFFFFFFFFFFFFFFFFFFFFFFFFFFFFFFFFFFFF AND EQ ISZERO PUSH2 0x241C JUMPI PUSH1 0x1 DUP1 PUSH1 0x1 SWAP6 POP SWAP6 POP SWAP6 POP POP POP POP PUSH2 0x24AA JUMP JUMPDEST PUSH1 0x0 DUP11 PUSH1 0x40 MLOAD PUSH2 0x242C SWAP2 SWAP1 PUSH2 0x305A JUMP JUMPDEST SWAP1 DUP2 MSTORE PUSH1 0x20 ADD PUSH1 0x40 MLOAD DUP1 SWAP2 SUB SWAP1 KECCAK256 PUSH1 0x2 ADD SLOAD DUP10 EQ PUSH2 0x2449 JUMPI PUSH1 0x0 SWAP3 POP JUMPDEST PUSH1 0x4 DUP11 PUSH1 0x40 MLOAD PUSH2 0x2459 SWAP2 SWAP1 PUSH2 0x305A JUMP JUMPDEST SWAP1 DUP2 MSTORE PUSH1 0x20 ADD PUSH1 0x40 MLOAD DUP1 SWAP2 SUB SWAP1 KECCAK256 SLOAD DUP8 EQ PUSH2 0x2473 JUMPI PUSH1 0x0 SWAP2 POP JUMPDEST DUP8 PUSH1 0x3 DUP12 PUSH1 0x40 MLOAD PUSH2 0x2484 SWAP2 SWAP1 PUSH2 0x305A JUMP JUMPDEST SWAP1 DUP2 MSTORE PUSH1 0x20 ADD PUSH1 0x40 MLOAD DUP1 SWAP2 SUB SWAP1 KECCAK256 SLOAD EQ PUSH2 0x249D JUMPI PUSH1 0x0 SWAP1 POP JUMPDEST DUP3 DUP3 DUP3 SWAP6 POP SWAP6 POP SWAP6 POP POP POP POP JUMPDEST SWAP5 POP SWAP5 POP SWAP5 SWAP2 POP POP JUMP JUMPDEST PUSH1 0x4 DUP2 DUP1 MLOAD PUSH1 0x20 DUP2 ADD DUP3 ADD DUP1 MLOAD DUP5 DUP3 MSTORE PUSH1 0x20 DUP4 ADD PUSH1 0x20 DUP6 ADD KECCAK256 DUP2 DUP4 MSTORE DUP1 SWAP6 POP POP POP POP POP POP PUSH1 0x0 SWAP2 POP SWAP1 POP SLOAD DUP2 JUMP JUMPDEST PUSH1 0x3 DUP2 DUP1 MLOAD PUSH1 0x20 DUP2 ADD DUP3 ADD DUP1 MLOAD DUP5 DUP3 MSTORE PUSH1 0x20 DUP4 ADD PUSH1 0x20 DUP6 ADD KECCAK256 DUP2 DUP4 MSTORE DUP1 SWAP6 POP POP POP POP POP POP PUSH1 0x0 SWAP2 POP SWAP1 POP SLOAD DUP2 JUMP JUMPDEST PUSH1 0x60 PUSH2 0x251A PUSH2 0x27DA JUMP JUMPDEST PUSH1 0x2 DUP5 DUP5 PUSH1 0x40 MLOAD PUSH2 0x252C SWAP3 SWAP2 SWAP1 PUSH2 0x3041 JUMP JUMPDEST SWAP1 DUP2 MSTORE PUSH1 0x20 ADD PUSH1 0x40 MLOAD DUP1 SWAP2 SUB SWAP1 KECCAK256 PUSH1 0x0 DUP6 DUP6 PUSH1 0x40 MLOAD PUSH2 0x254C SWAP3 SWAP2 SWAP1 PUSH2 0x3041 JUMP JUMPDEST SWAP1 DUP2 MSTORE PUSH1 0x20 ADD PUSH1 0x40 MLOAD DUP1 SWAP2 SUB SWAP1 KECCAK256 DUP2 DUP1 SLOAD PUSH2 0x2566 SWAP1 PUSH2 0x35DF JUMP JUMPDEST DUP1 PUSH1 0x1F ADD PUSH1 0x20 DUP1 SWAP2 DIV MUL PUSH1 0x20 ADD PUSH1 0x40 MLOAD SWAP1 DUP2 ADD PUSH1 0x40 MSTORE DUP1 SWAP3 SWAP2 SWAP1 DUP2 DUP2 MSTORE PUSH1 0x20 ADD DUP3 DUP1 SLOAD PUSH2 0x2592 SWAP1 PUSH2 0x35DF JUMP JUMPDEST DUP1 ISZERO PUSH2 0x25DF JUMPI DUP1 PUSH1 0x1F LT PUSH2 0x25B4 JUMPI PUSH2 0x100 DUP1 DUP4 SLOAD DIV MUL DUP4 MSTORE SWAP2 PUSH1 0x20 ADD SWAP2 PUSH2 0x25DF JUMP JUMPDEST DUP3 ADD SWAP2 SWAP1 PUSH1 0x0 MSTORE PUSH1 0x20 PUSH1 0x0 KECCAK256 SWAP1 JUMPDEST DUP2 SLOAD DUP2 MSTORE SWAP1 PUSH1 0x1 ADD SWAP1 PUSH1 0x20 ADD DUP1 DUP4 GT PUSH2 0x25C2 JUMPI DUP3 SWAP1 SUB PUSH1 0x1F AND DUP3 ADD SWAP2 JUMPDEST POP POP POP POP POP SWAP2 POP DUP1 PUSH1 0x40 MLOAD DUP1 PUSH1 0x60 ADD PUSH1 0x40 MSTORE SWAP1 DUP2 PUSH1 0x0 DUP3 ADD SLOAD DUP2 MSTORE PUSH1 0x20 ADD PUSH1 0x1 DUP3 ADD SLOAD DUP2 MSTORE PUSH1 0x20 ADD PUSH1 0x2 DUP3 ADD SLOAD DUP2 MSTORE POP POP SWAP1 POP SWAP2 POP SWAP2 POP SWAP3 POP SWAP3 SWAP1 POP JUMP JUMPDEST PUSH1 0x1 DUP2 DUP1 MLOAD PUSH1 0x20 DUP2 ADD DUP3 ADD DUP1 MLOAD DUP5 DUP3 MSTORE PUSH1 0x20 DUP4 ADD PUSH1 0x20 DUP6 ADD KECCAK256 DUP2 DUP4 MSTORE DUP1 SWAP6 POP POP POP POP POP POP PUSH1 0x0 SWAP2 POP SLOAD SWAP1 PUSH2 0x100 EXP SWAP1 DIV PUSH20 0xFFFFFFFFFFFFFFFFFFFFFFFFFFFFFFFFFFFFFFFF AND DUP2 JUMP JUMPDEST PUSH1 0x0 PUSH1 0x8 DUP4 DUP4 PUSH1 0x40 MLOAD PUSH2 0x267A SWAP3 SWAP2 SWAP1 PUSH2 0x3041 JUMP JUMPDEST SWAP1 DUP2 MSTORE PUSH1 0x20 ADD PUSH1 0x40 MLOAD DUP1 SWAP2 SUB SWAP1 KECCAK256 PUSH1 0x0 SWAP1 SLOAD SWAP1 PUSH2 0x100 EXP SWAP1 DIV PUSH1 0xFF AND SWAP1 POP SWAP3 SWAP2 POP POP JUMP JUMPDEST PUSH1 0x9 DUP2 DUP1 MLOAD PUSH1 0x20 DUP2 ADD DUP3 ADD DUP1 MLOAD DUP5 DUP3 MSTORE PUSH1 0x20 DUP4 ADD PUSH1 0x20 DUP6 ADD KECCAK256 DUP2 DUP4 MSTORE DUP1 SWAP6 POP POP POP POP POP POP PUSH1 0x0 SWAP2 POP SWAP1 POP DUP1 SLOAD PUSH2 0x26D3 SWAP1 PUSH2 0x35DF JUMP JUMPDEST DUP1 PUSH1 0x1F ADD PUSH1 0x20 DUP1 SWAP2 DIV MUL PUSH1 0x20 ADD PUSH1 0x40 MLOAD SWAP1 DUP2 ADD PUSH1 0x40 MSTORE DUP1 SWAP3 SWAP2 SWAP1 DUP2 DUP2 MSTORE PUSH1 0x20 ADD DUP3 DUP1 SLOAD PUSH2 0x26FF SWAP1 PUSH2 0x35DF JUMP JUMPDEST DUP1 ISZERO PUSH2 0x274C JUMPI DUP1 PUSH1 0x1F LT PUSH2 0x2721 JUMPI PUSH2 0x100 DUP1 DUP4 SLOAD DIV MUL DUP4 MSTORE SWAP2 PUSH1 0x20 ADD SWAP2 PUSH2 0x274C JUMP JUMPDEST DUP3 ADD SWAP2 SWAP1 PUSH1 0x0 MSTORE PUSH1 0x20 PUSH1 0x0 KECCAK256 SWAP1 JUMPDEST DUP2 SLOAD DUP2 MSTORE SWAP1 PUSH1 0x1 ADD SWAP1 PUSH1 0x20 ADD DUP1 DUP4 GT PUSH2 0x272F JUMPI DUP3 SWAP1 SUB PUSH1 0x1F AND DUP3 ADD SWAP2 JUMPDEST POP POP POP POP POP DUP2 JUMP JUMPDEST DUP3 DUP1 SLOAD PUSH2 0x2760 SWAP1 PUSH2 0x35DF JUMP JUMPDEST SWAP1 PUSH1 0x0 MSTORE PUSH1 0x20 PUSH1 0x0 KECCAK256 SWAP1 PUSH1 0x1F ADD PUSH1 0x20 SWAP1 DIV DUP2 ADD SWAP3 DUP3 PUSH2 0x2782 JUMPI PUSH1 0x0 DUP6 SSTORE PUSH2 0x27C9 JUMP JUMPDEST DUP3 PUSH1 0x1F LT PUSH2 0x279B JUMPI DUP1 MLOAD PUSH1 0xFF NOT AND DUP4 DUP1 ADD OR DUP6 SSTORE PUSH2 0x27C9 JUMP JUMPDEST DUP3 DUP1 ADD PUSH1 0x1 ADD DUP6 SSTORE DUP3 ISZERO PUSH2 0x27C9 JUMPI SWAP2 DUP3 ADD JUMPDEST DUP3 DUP2 GT ISZERO PUSH2 0x27C8 JUMPI DUP3 MLOAD DUP3 SSTORE SWAP2 PUSH1 0x20 ADD SWAP2 SWAP1 PUSH1 0x1 ADD SWAP1 PUSH2 0x27AD JUMP JUMPDEST JUMPDEST POP SWAP1 POP PUSH2 0x27D6 SWAP2 SWAP1 PUSH2 0x27FB JUMP JUMPDEST POP SWAP1 JUMP JUMPDEST PUSH1 0x40 MLOAD DUP1 PUSH1 0x60 ADD PUSH1 0x40 MSTORE DUP1 PUSH1 0x0 DUP2 MSTORE PUSH1 0x20 ADD PUSH1 0x0 DUP2 MSTORE PUSH1 0x20 ADD PUSH1 0x0 DUP2 MSTORE POP SWAP1 JUMP JUMPDEST JUMPDEST DUP1 DUP3 GT ISZERO PUSH2 0x2814 JUMPI PUSH1 0x0 DUP2 PUSH1 0x0 SWAP1 SSTORE POP PUSH1 0x1 ADD PUSH2 0x27FC JUMP JUMPDEST POP SWAP1 JUMP JUMPDEST PUSH1 0x0 PUSH2 0x282B PUSH2 0x2826 DUP5 PUSH2 0x33CC JUMP JUMPDEST PUSH2 0x33A7 JUMP JUMPDEST SWAP1 POP DUP3 DUP2 MSTORE PUSH1 0x20 DUP2 ADD DUP5 DUP5 DUP5 ADD GT ISZERO PUSH2 0x2847 JUMPI PUSH2 0x2846 PUSH2 0x3766 JUMP JUMPDEST JUMPDEST PUSH2 0x2852 DUP5 DUP3 DUP6 PUSH2 0x359D JUMP JUMPDEST POP SWAP4 SWAP3 POP POP POP JUMP JUMPDEST PUSH1 0x0 DUP2 CALLDATALOAD SWAP1 POP PUSH2 0x2869 DUP2 PUSH2 0x3A0A JUMP JUMPDEST SWAP3 SWAP2 POP POP JUMP JUMPDEST PUSH1 0x0 DUP2 CALLDATALOAD SWAP1 POP PUSH2 0x287E DUP2 PUSH2 0x3A21 JUMP JUMPDEST SWAP3 SWAP2 POP POP JUMP JUMPDEST PUSH1 0x0 DUP1 DUP4 PUSH1 0x1F DUP5 ADD SLT PUSH2 0x289A JUMPI PUSH2 0x2899 PUSH2 0x375C JUMP JUMPDEST JUMPDEST DUP3 CALLDATALOAD SWAP1 POP PUSH8 0xFFFFFFFFFFFFFFFF DUP2 GT ISZERO PUSH2 0x28B7 JUMPI PUSH2 0x28B6 PUSH2 0x3757 JUMP JUMPDEST JUMPDEST PUSH1 0x20 DUP4 ADD SWAP2 POP DUP4 PUSH1 0x1 DUP3 MUL DUP4 ADD GT ISZERO PUSH2 0x28D3 JUMPI PUSH2 0x28D2 PUSH2 0x3761 JUMP JUMPDEST JUMPDEST SWAP3 POP SWAP3 SWAP1 POP JUMP JUMPDEST PUSH1 0x0 DUP3 PUSH1 0x1F DUP4 ADD SLT PUSH2 0x28EF JUMPI PUSH2 0x28EE PUSH2 0x375C JUMP JUMPDEST JUMPDEST DUP2 CALLDATALOAD PUSH2 0x28FF DUP5 DUP3 PUSH1 0x20 DUP7 ADD PUSH2 0x2818 JUMP JUMPDEST SWAP2 POP POP SWAP3 SWAP2 POP POP JUMP JUMPDEST PUSH1 0x0 DUP2 CALLDATALOAD SWAP1 POP PUSH2 0x2917 DUP2 PUSH2 0x3A38 JUMP JUMPDEST SWAP3 SWAP2 POP POP JUMP JUMPDEST PUSH1 0x0 DUP1 PUSH1 0x0 PUSH1 0x40 DUP5 DUP7 SUB SLT ISZERO PUSH2 0x2936 JUMPI PUSH2 0x2935 PUSH2 0x3770 JUMP JUMPDEST JUMPDEST PUSH1 0x0 PUSH2 0x2944 DUP7 DUP3 DUP8 ADD PUSH2 0x285A JUMP JUMPDEST SWAP4 POP POP PUSH1 0x20 DUP5 ADD CALLDATALOAD PUSH8 0xFFFFFFFFFFFFFFFF DUP2 GT ISZERO PUSH2 0x2965 JUMPI PUSH2 0x2964 PUSH2 0x376B JUMP JUMPDEST JUMPDEST PUSH2 0x2971 DUP7 DUP3 DUP8 ADD PUSH2 0x2884 JUMP JUMPDEST SWAP3 POP SWAP3 POP POP SWAP3 POP SWAP3 POP SWAP3 JUMP JUMPDEST PUSH1 0x0 DUP1 PUSH1 0x20 DUP4 DUP6 SUB SLT ISZERO PUSH2 0x2994 JUMPI PUSH2 0x2993 PUSH2 0x3770 JUMP JUMPDEST JUMPDEST PUSH1 0x0 DUP4 ADD CALLDATALOAD PUSH8 0xFFFFFFFFFFFFFFFF DUP2 GT ISZERO PUSH2 0x29B2 JUMPI PUSH2 0x29B1 PUSH2 0x376B JUMP JUMPDEST JUMPDEST PUSH2 0x29BE DUP6 DUP3 DUP7 ADD PUSH2 0x2884 JUMP JUMPDEST SWAP3 POP SWAP3 POP POP SWAP3 POP SWAP3 SWAP1 POP JUMP JUMPDEST PUSH1 0x0 PUSH1 0x20 DUP3 DUP5 SUB SLT ISZERO PUSH2 0x29E0 JUMPI PUSH2 0x29DF PUSH2 0x3770 JUMP JUMPDEST JUMPDEST PUSH1 0x0 DUP3 ADD CALLDATALOAD PUSH8 0xFFFFFFFFFFFFFFFF DUP2 GT ISZERO PUSH2 0x29FE JUMPI PUSH2 0x29FD PUSH2 0x376B JUMP JUMPDEST JUMPDEST PUSH2 0x2A0A DUP5 DUP3 DUP6 ADD PUSH2 0x28DA JUMP JUMPDEST SWAP2 POP POP SWAP3 SWAP2 POP POP JUMP JUMPDEST PUSH1 0x0 DUP1 PUSH1 0x40 DUP4 DUP6 SUB SLT ISZERO PUSH2 0x2A2A JUMPI PUSH2 0x2A29 PUSH2 0x3770 JUMP JUMPDEST JUMPDEST PUSH1 0x0 DUP4 ADD CALLDATALOAD PUSH8 0xFFFFFFFFFFFFFFFF DUP2 GT ISZERO PUSH2 0x2A48 JUMPI PUSH2 0x2A47 PUSH2 0x376B JUMP JUMPDEST JUMPDEST PUSH2 0x2A54 DUP6 DUP3 DUP7 ADD PUSH2 0x28DA JUMP JUMPDEST SWAP3 POP POP PUSH1 0x20 PUSH2 0x2A65 DUP6 DUP3 DUP7 ADD PUSH2 0x285A JUMP JUMPDEST SWAP2 POP POP SWAP3 POP SWAP3 SWAP1 POP JUMP JUMPDEST PUSH1 0x0 DUP1 PUSH1 0x0 PUSH1 0x40 DUP5 DUP7 SUB SLT ISZERO PUSH2 0x2A88 JUMPI PUSH2 0x2A87 PUSH2 0x3770 JUMP JUMPDEST JUMPDEST PUSH1 0x0 DUP5 ADD CALLDATALOAD PUSH8 0xFFFFFFFFFFFFFFFF DUP2 GT ISZERO PUSH2 0x2AA6 JUMPI PUSH2 0x2AA5 PUSH2 0x376B JUMP JUMPDEST JUMPDEST PUSH2 0x2AB2 DUP7 DUP3 DUP8 ADD PUSH2 0x28DA JUMP JUMPDEST SWAP4 POP POP PUSH1 0x20 DUP5 ADD CALLDATALOAD PUSH8 0xFFFFFFFFFFFFFFFF DUP2 GT ISZERO PUSH2 0x2AD3 JUMPI PUSH2 0x2AD2 PUSH2 0x376B JUMP JUMPDEST JUMPDEST PUSH2 0x2ADF DUP7 DUP3 DUP8 ADD PUSH2 0x2884 JUMP JUMPDEST SWAP3 POP SWAP3 POP POP SWAP3 POP SWAP3 POP SWAP3 JUMP JUMPDEST PUSH1 0x0 DUP1 PUSH1 0x40 DUP4 DUP6 SUB SLT ISZERO PUSH2 0x2B02 JUMPI PUSH2 0x2B01 PUSH2 0x3770 JUMP JUMPDEST JUMPDEST PUSH1 0x0 DUP4 ADD CALLDATALOAD PUSH8 0xFFFFFFFFFFFFFFFF DUP2 GT ISZERO PUSH2 0x2B20 JUMPI PUSH2 0x2B1F PUSH2 0x376B JUMP JUMPDEST JUMPDEST PUSH2 0x2B2C DUP6 DUP3 DUP7 ADD PUSH2 0x28DA JUMP JUMPDEST SWAP3 POP POP PUSH1 0x20 PUSH2 0x2B3D DUP6 DUP3 DUP7 ADD PUSH2 0x2908 JUMP JUMPDEST SWAP2 POP POP SWAP3 POP SWAP3 SWAP1 POP JUMP JUMPDEST PUSH1 0x0 DUP1 PUSH1 0x0 DUP1 PUSH1 0x80 DUP6 DUP8 SUB SLT ISZERO PUSH2 0x2B61 JUMPI PUSH2 0x2B60 PUSH2 0x3770 JUMP JUMPDEST JUMPDEST PUSH1 0x0 DUP6 ADD CALLDATALOAD PUSH8 0xFFFFFFFFFFFFFFFF DUP2 GT ISZERO PUSH2 0x2B7F JUMPI PUSH2 0x2B7E PUSH2 0x376B JUMP JUMPDEST JUMPDEST PUSH2 0x2B8B DUP8 DUP3 DUP9 ADD PUSH2 0x28DA JUMP JUMPDEST SWAP5 POP POP PUSH1 0x20 PUSH2 0x2B9C DUP8 DUP3 DUP9 ADD PUSH2 0x2908 JUMP JUMPDEST SWAP4 POP POP PUSH1 0x40 PUSH2 0x2BAD DUP8 DUP3 DUP9 ADD PUSH2 0x2908 JUMP JUMPDEST SWAP3 POP POP PUSH1 0x60 PUSH2 0x2BBE DUP8 DUP3 DUP9 ADD PUSH2 0x286F JUMP JUMPDEST SWAP2 POP POP SWAP3 SWAP6 SWAP2 SWAP5 POP SWAP3 POP JUMP JUMPDEST PUSH1 0x0 DUP1 PUSH1 0x0 DUP1 PUSH1 0x0 DUP1 PUSH1 0xC0 DUP8 DUP10 SUB SLT ISZERO PUSH2 0x2BE7 JUMPI PUSH2 0x2BE6 PUSH2 0x3770 JUMP JUMPDEST JUMPDEST PUSH1 0x0 DUP8 ADD CALLDATALOAD PUSH8 0xFFFFFFFFFFFFFFFF DUP2 GT ISZERO PUSH2 0x2C05 JUMPI PUSH2 0x2C04 PUSH2 0x376B JUMP JUMPDEST JUMPDEST PUSH2 0x2C11 DUP10 DUP3 DUP11 ADD PUSH2 0x28DA JUMP JUMPDEST SWAP7 POP POP PUSH1 0x20 PUSH2 0x2C22 DUP10 DUP3 DUP11 ADD PUSH2 0x2908 JUMP JUMPDEST SWAP6 POP POP PUSH1 0x40 PUSH2 0x2C33 DUP10 DUP3 DUP11 ADD PUSH2 0x2908 JUMP JUMPDEST SWAP5 POP POP PUSH1 0x60 PUSH2 0x2C44 DUP10 DUP3 DUP11 ADD PUSH2 0x286F JUMP JUMPDEST SWAP4 POP POP PUSH1 0x80 DUP8 ADD CALLDATALOAD PUSH8 0xFFFFFFFFFFFFFFFF DUP2 GT ISZERO PUSH2 0x2C65 JUMPI PUSH2 0x2C64 PUSH2 0x376B JUMP JUMPDEST JUMPDEST PUSH2 0x2C71 DUP10 DUP3 DUP11 ADD PUSH2 0x28DA JUMP JUMPDEST SWAP3 POP POP PUSH1 0xA0 DUP8 ADD CALLDATALOAD PUSH8 0xFFFFFFFFFFFFFFFF DUP2 GT ISZERO PUSH2 0x2C92 JUMPI PUSH2 0x2C91 PUSH2 0x376B JUMP JUMPDEST JUMPDEST PUSH2 0x2C9E DUP10 DUP3 DUP11 ADD PUSH2 0x28DA JUMP JUMPDEST SWAP2 POP POP SWAP3 SWAP6 POP SWAP3 SWAP6 POP SWAP3 SWAP6 JUMP JUMPDEST PUSH1 0x0 PUSH2 0x2CB7 DUP4 DUP4 PUSH2 0x2FE1 JUMP JUMPDEST PUSH1 0x60 DUP4 ADD SWAP1 POP SWAP3 SWAP2 POP POP JUMP JUMPDEST PUSH2 0x2CCC DUP2 PUSH2 0x353E JUMP JUMPDEST DUP3 MSTORE POP POP JUMP JUMPDEST PUSH2 0x2CDB DUP2 PUSH2 0x353E JUMP JUMPDEST DUP3 MSTORE POP POP JUMP JUMPDEST PUSH1 0x0 PUSH2 0x2CEC DUP3 PUSH2 0x340D JUMP JUMPDEST PUSH2 0x2CF6 DUP2 DUP6 PUSH2 0x3430 JUMP JUMPDEST SWAP4 POP PUSH2 0x2D01 DUP4 PUSH2 0x33FD JUMP JUMPDEST DUP1 PUSH1 0x0 JUMPDEST DUP4 DUP2 LT ISZERO PUSH2 0x2D32 JUMPI DUP2 MLOAD PUSH2 0x2D19 DUP9 DUP3 PUSH2 0x2CAB JUMP JUMPDEST SWAP8 POP PUSH2 0x2D24 DUP4 PUSH2 0x3423 JUMP JUMPDEST SWAP3 POP POP PUSH1 0x1 DUP2 ADD SWAP1 POP PUSH2 0x2D05 JUMP JUMPDEST POP DUP6 SWAP4 POP POP POP POP SWAP3 SWAP2 POP POP JUMP JUMPDEST PUSH2 0x2D48 DUP2 PUSH2 0x3550 JUMP JUMPDEST DUP3 MSTORE POP POP JUMP JUMPDEST PUSH2 0x2D57 DUP2 PUSH2 0x3550 JUMP JUMPDEST DUP3 MSTORE POP POP JUMP JUMPDEST PUSH2 0x2D66 DUP2 PUSH2 0x355C JUMP JUMPDEST DUP3 MSTORE POP POP JUMP JUMPDEST PUSH1 0x0 PUSH2 0x2D78 DUP4 DUP6 PUSH2 0x3452 JUMP JUMPDEST SWAP4 POP PUSH2 0x2D85 DUP4 DUP6 DUP5 PUSH2 0x359D JUMP JUMPDEST DUP3 DUP5 ADD SWAP1 POP SWAP4 SWAP3 POP POP POP JUMP JUMPDEST PUSH1 0x0 PUSH2 0x2D9C DUP3 PUSH2 0x3418 JUMP JUMPDEST PUSH2 0x2DA6 DUP2 DUP6 PUSH2 0x3441 JUMP JUMPDEST SWAP4 POP PUSH2 0x2DB6 DUP2 DUP6 PUSH1 0x20 DUP7 ADD PUSH2 0x35AC JUMP JUMPDEST PUSH2 0x2DBF DUP2 PUSH2 0x3775 JUMP JUMPDEST DUP5 ADD SWAP2 POP POP SWAP3 SWAP2 POP POP JUMP JUMPDEST PUSH1 0x0 PUSH2 0x2DD5 DUP3 PUSH2 0x3418 JUMP JUMPDEST PUSH2 0x2DDF DUP2 DUP6 PUSH2 0x3452 JUMP JUMPDEST SWAP4 POP PUSH2 0x2DEF DUP2 DUP6 PUSH1 0x20 DUP7 ADD PUSH2 0x35AC JUMP JUMPDEST DUP1 DUP5 ADD SWAP2 POP POP SWAP3 SWAP2 POP POP JUMP JUMPDEST PUSH1 0x0 PUSH2 0x2E08 PUSH1 0x1F DUP4 PUSH2 0x3441 JUMP JUMPDEST SWAP2 POP PUSH2 0x2E13 DUP3 PUSH2 0x3786 JUMP JUMPDEST PUSH1 0x20 DUP3 ADD SWAP1 POP SWAP2 SWAP1 POP JUMP JUMPDEST PUSH1 0x0 PUSH2 0x2E2B PUSH1 0x19 DUP4 PUSH2 0x3441 JUMP JUMPDEST SWAP2 POP PUSH2 0x2E36 DUP3 PUSH2 0x37AF JUMP JUMPDEST PUSH1 0x20 DUP3 ADD SWAP1 POP SWAP2 SWAP1 POP JUMP JUMPDEST PUSH1 0x0 PUSH2 0x2E4E PUSH1 0x26 DUP4 PUSH2 0x3441 JUMP JUMPDEST SWAP2 POP PUSH2 0x2E59 DUP3 PUSH2 0x37D8 JUMP JUMPDEST PUSH1 0x40 DUP3 ADD SWAP1 POP SWAP2 SWAP1 POP JUMP JUMPDEST PUSH1 0x0 PUSH2 0x2E71 PUSH1 0x1C DUP4 PUSH2 0x3441 JUMP JUMPDEST SWAP2 POP PUSH2 0x2E7C DUP3 PUSH2 0x3827 JUMP JUMPDEST PUSH1 0x20 DUP3 ADD SWAP1 POP SWAP2 SWAP1 POP JUMP JUMPDEST PUSH1 0x0 PUSH2 0x2E94 PUSH1 0x15 DUP4 PUSH2 0x3441 JUMP JUMPDEST SWAP2 POP PUSH2 0x2E9F DUP3 PUSH2 0x3850 JUMP JUMPDEST PUSH1 0x20 DUP3 ADD SWAP1 POP SWAP2 SWAP1 POP JUMP JUMPDEST PUSH1 0x0 PUSH2 0x2EB7 PUSH1 0x1E DUP4 PUSH2 0x3441 JUMP JUMPDEST SWAP2 POP PUSH2 0x2EC2 DUP3 PUSH2 0x3879 JUMP JUMPDEST PUSH1 0x20 DUP3 ADD SWAP1 POP SWAP2 SWAP1 POP JUMP JUMPDEST PUSH1 0x0 PUSH2 0x2EDA PUSH1 0x24 DUP4 PUSH2 0x3441 JUMP JUMPDEST SWAP2 POP PUSH2 0x2EE5 DUP3 PUSH2 0x38A2 JUMP JUMPDEST PUSH1 0x40 DUP3 ADD SWAP1 POP SWAP2 SWAP1 POP JUMP JUMPDEST PUSH1 0x0 PUSH2 0x2EFD PUSH1 0x28 DUP4 PUSH2 0x3441 JUMP JUMPDEST SWAP2 POP PUSH2 0x2F08 DUP3 PUSH2 0x38F1 JUMP JUMPDEST PUSH1 0x40 DUP3 ADD SWAP1 POP SWAP2 SWAP1 POP JUMP JUMPDEST PUSH1 0x0 PUSH2 0x2F20 PUSH1 0x14 DUP4 PUSH2 0x3441 JUMP JUMPDEST SWAP2 POP PUSH2 0x2F2B DUP3 PUSH2 0x3940 JUMP JUMPDEST PUSH1 0x20 DUP3 ADD SWAP1 POP SWAP2 SWAP1 POP JUMP JUMPDEST PUSH1 0x0 PUSH2 0x2F43 PUSH1 0x20 DUP4 PUSH2 0x3441 JUMP JUMPDEST SWAP2 POP PUSH2 0x2F4E DUP3 PUSH2 0x3969 JUMP JUMPDEST PUSH1 0x20 DUP3 ADD SWAP1 POP SWAP2 SWAP1 POP JUMP JUMPDEST PUSH1 0x0 PUSH2 0x2F66 PUSH1 0x12 DUP4 PUSH2 0x3441 JUMP JUMPDEST SWAP2 POP PUSH2 0x2F71 DUP3 PUSH2 0x3992 JUMP JUMPDEST PUSH1 0x20 DUP3 ADD SWAP1 POP SWAP2 SWAP1 POP JUMP JUMPDEST PUSH1 0x0 PUSH2 0x2F89 PUSH1 0x25 DUP4 PUSH2 0x3441 JUMP JUMPDEST SWAP2 POP PUSH2 0x2F94 DUP3 PUSH2 0x39BB JUMP JUMPDEST PUSH1 0x40 DUP3 ADD SWAP1 POP SWAP2 SWAP1 POP JUMP JUMPDEST PUSH1 0x60 DUP3 ADD PUSH1 0x0 DUP3 ADD MLOAD PUSH2 0x2FB5 PUSH1 0x0 DUP6 ADD DUP3 PUSH2 0x3023 JUMP JUMPDEST POP PUSH1 0x20 DUP3 ADD MLOAD PUSH2 0x2FC8 PUSH1 0x20 DUP6 ADD DUP3 PUSH2 0x3023 JUMP JUMPDEST POP PUSH1 0x40 DUP3 ADD MLOAD PUSH2 0x2FDB PUSH1 0x40 DUP6 ADD DUP3 PUSH2 0x3023 JUMP JUMPDEST POP POP POP POP JUMP JUMPDEST PUSH1 0x60 DUP3 ADD PUSH1 0x0 DUP3 ADD MLOAD PUSH2 0x2FF7 PUSH1 0x0 DUP6 ADD DUP3 PUSH2 0x2D3F JUMP JUMPDEST POP PUSH1 0x20 DUP3 ADD MLOAD PUSH2 0x300A PUSH1 0x20 DUP6 ADD DUP3 PUSH2 0x2D3F JUMP JUMPDEST POP PUSH1 0x40 DUP3 ADD MLOAD PUSH2 0x301D PUSH1 0x40 DUP6 ADD DUP3 PUSH2 0x2CC3 JUMP JUMPDEST POP POP POP POP JUMP JUMPDEST PUSH2 0x302C DUP2 PUSH2 0x3586 JUMP JUMPDEST DUP3 MSTORE POP POP JUMP JUMPDEST PUSH2 0x303B DUP2 PUSH2 0x3586 JUMP JUMPDEST DUP3 MSTORE POP POP JUMP JUMPDEST PUSH1 0x0 PUSH2 0x304E DUP3 DUP5 DUP7 PUSH2 0x2D6C JUMP JUMPDEST SWAP2 POP DUP2 SWAP1 POP SWAP4 SWAP3 POP POP POP JUMP JUMPDEST PUSH1 0x0 PUSH2 0x3066 DUP3 DUP5 PUSH2 0x2DCA JUMP JUMPDEST SWAP2 POP DUP2 SWAP1 POP SWAP3 SWAP2 POP POP JUMP JUMPDEST PUSH1 0x0 PUSH1 0x20 DUP3 ADD SWAP1 POP PUSH2 0x3086 PUSH1 0x0 DUP4 ADD DUP5 PUSH2 0x2CD2 JUMP JUMPDEST SWAP3 SWAP2 POP POP JUMP JUMPDEST PUSH1 0x0 PUSH1 0x20 DUP3 ADD SWAP1 POP PUSH2 0x30A1 PUSH1 0x0 DUP4 ADD DUP5 PUSH2 0x2D4E JUMP JUMPDEST SWAP3 SWAP2 POP POP JUMP JUMPDEST PUSH1 0x0 PUSH1 0x60 DUP3 ADD SWAP1 POP PUSH2 0x30BC PUSH1 0x0 DUP4 ADD DUP7 PUSH2 0x2D4E JUMP JUMPDEST PUSH2 0x30C9 PUSH1 0x20 DUP4 ADD DUP6 PUSH2 0x2D4E JUMP JUMPDEST PUSH2 0x30D6 PUSH1 0x40 DUP4 ADD DUP5 PUSH2 0x2CD2 JUMP JUMPDEST SWAP5 SWAP4 POP POP POP POP JUMP JUMPDEST PUSH1 0x0 PUSH1 0x60 DUP3 ADD SWAP1 POP PUSH2 0x30F3 PUSH1 0x0 DUP4 ADD DUP7 PUSH2 0x2D4E JUMP JUMPDEST PUSH2 0x3100 PUSH1 0x20 DUP4 ADD DUP6 PUSH2 0x2D4E JUMP JUMPDEST PUSH2 0x310D PUSH1 0x40 DUP4 ADD DUP5 PUSH2 0x2D4E JUMP JUMPDEST SWAP5 SWAP4 POP POP POP POP JUMP JUMPDEST PUSH1 0x0 PUSH1 0x20 DUP3 ADD SWAP1 POP PUSH2 0x312A PUSH1 0x0 DUP4 ADD DUP5 PUSH2 0x2D5D JUMP JUMPDEST SWAP3 SWAP2 POP POP JUMP JUMPDEST PUSH1 0x0 PUSH1 0x80 DUP3 ADD SWAP1 POP PUSH2 0x3145 PUSH1 0x0 DUP4 ADD DUP8 PUSH2 0x2D5D JUMP JUMPDEST DUP2 DUP2 SUB PUSH1 0x20 DUP4 ADD MSTORE PUSH2 0x3157 DUP2 DUP7 PUSH2 0x2D91 JUMP JUMPDEST SWAP1 POP PUSH2 0x3166 PUSH1 0x40 DUP4 ADD DUP6 PUSH2 0x3032 JUMP JUMPDEST DUP2 DUP2 SUB PUSH1 0x60 DUP4 ADD MSTORE PUSH2 0x3178 DUP2 DUP5 PUSH2 0x2CE1 JUMP JUMPDEST SWAP1 POP SWAP6 SWAP5 POP POP POP POP POP JUMP JUMPDEST PUSH1 0x0 PUSH1 0x20 DUP3 ADD SWAP1 POP DUP2 DUP2 SUB PUSH1 0x0 DUP4 ADD MSTORE PUSH2 0x319D DUP2 DUP5 PUSH2 0x2D91 JUMP JUMPDEST SWAP1 POP SWAP3 SWAP2 POP POP JUMP JUMPDEST PUSH1 0x0 PUSH1 0x80 DUP3 ADD SWAP1 POP DUP2 DUP2 SUB PUSH1 0x0 DUP4 ADD MSTORE PUSH2 0x31BF DUP2 DUP6 PUSH2 0x2D91 JUMP JUMPDEST SWAP1 POP PUSH2 0x31CE PUSH1 0x20 DUP4 ADD DUP5 PUSH2 0x2F9F JUMP JUMPDEST SWAP4 SWAP3 POP POP POP JUMP JUMPDEST PUSH1 0x0 PUSH1 0x20 DUP3 ADD SWAP1 POP DUP2 DUP2 SUB PUSH1 0x0 DUP4 ADD MSTORE PUSH2 0x31EE DUP2 PUSH2 0x2DFB JUMP JUMPDEST SWAP1 POP SWAP2 SWAP1 POP JUMP JUMPDEST PUSH1 0x0 PUSH1 0x20 DUP3 ADD SWAP1 POP DUP2 DUP2 SUB PUSH1 0x0 DUP4 ADD MSTORE PUSH2 0x320E DUP2 PUSH2 0x2E1E JUMP JUMPDEST SWAP1 POP SWAP2 SWAP1 POP JUMP JUMPDEST PUSH1 0x0 PUSH1 0x20 DUP3 ADD SWAP1 POP DUP2 DUP2 SUB PUSH1 0x0 DUP4 ADD MSTORE PUSH2 0x322E DUP2 PUSH2 0x2E41 JUMP JUMPDEST SWAP1 POP SWAP2 SWAP1 POP JUMP JUMPDEST PUSH1 0x0 PUSH1 0x20 DUP3 ADD SWAP1 POP DUP2 DUP2 SUB PUSH1 0x0 DUP4 ADD MSTORE PUSH2 0x324E DUP2 PUSH2 0x2E64 JUMP JUMPDEST SWAP1 POP SWAP2 SWAP1 POP JUMP JUMPDEST PUSH1 0x0 PUSH1 0x20 DUP3 ADD SWAP1 POP DUP2 DUP2 SUB PUSH1 0x0 DUP4 ADD MSTORE PUSH2 0x326E DUP2 PUSH2 0x2E87 JUMP JUMPDEST SWAP1 POP SWAP2 SWAP1 POP JUMP JUMPDEST PUSH1 0x0 PUSH1 0x20 DUP3 ADD SWAP1 POP DUP2 DUP2 SUB PUSH1 0x0 DUP4 ADD MSTORE PUSH2 0x328E DUP2 PUSH2 0x2EAA JUMP JUMPDEST SWAP1 POP SWAP2 SWAP1 POP JUMP JUMPDEST PUSH1 0x0 PUSH1 0x20 DUP3 ADD SWAP1 POP DUP2 DUP2 SUB PUSH1 0x0 DUP4 ADD MSTORE PUSH2 0x32AE DUP2 PUSH2 0x2ECD JUMP JUMPDEST SWAP1 POP SWAP2 SWAP1 POP JUMP JUMPDEST PUSH1 0x0 PUSH1 0x20 DUP3 ADD SWAP1 POP DUP2 DUP2 SUB PUSH1 0x0 DUP4 ADD MSTORE PUSH2 0x32CE DUP2 PUSH2 0x2EF0 JUMP JUMPDEST SWAP1 POP SWAP2 SWAP1 POP JUMP JUMPDEST PUSH1 0x0 PUSH1 0x20 DUP3 ADD SWAP1 POP DUP2 DUP2 SUB PUSH1 0x0 DUP4 ADD MSTORE PUSH2 0x32EE DUP2 PUSH2 0x2F13 JUMP JUMPDEST SWAP1 POP SWAP2 SWAP1 POP JUMP JUMPDEST PUSH1 0x0 PUSH1 0x20 DUP3 ADD SWAP1 POP DUP2 DUP2 SUB PUSH1 0x0 DUP4 ADD MSTORE PUSH2 0x330E DUP2 PUSH2 0x2F36 JUMP JUMPDEST SWAP1 POP SWAP2 SWAP1 POP JUMP JUMPDEST PUSH1 0x0 PUSH1 0x20 DUP3 ADD SWAP1 POP DUP2 DUP2 SUB PUSH1 0x0 DUP4 ADD MSTORE PUSH2 0x332E DUP2 PUSH2 0x2F59 JUMP JUMPDEST SWAP1 POP SWAP2 SWAP1 POP JUMP JUMPDEST PUSH1 0x0 PUSH1 0x20 DUP3 ADD SWAP1 POP DUP2 DUP2 SUB PUSH1 0x0 DUP4 ADD MSTORE PUSH2 0x334E DUP2 PUSH2 0x2F7C JUMP JUMPDEST SWAP1 POP SWAP2 SWAP1 POP JUMP JUMPDEST PUSH1 0x0 PUSH1 0x20 DUP3 ADD SWAP1 POP PUSH2 0x336A PUSH1 0x0 DUP4 ADD DUP5 PUSH2 0x3032 JUMP JUMPDEST SWAP3 SWAP2 POP POP JUMP JUMPDEST PUSH1 0x0 PUSH1 0x60 DUP3 ADD SWAP1 POP PUSH2 0x3385 PUSH1 0x0 DUP4 ADD DUP7 PUSH2 0x3032 JUMP JUMPDEST PUSH2 0x3392 PUSH1 0x20 DUP4 ADD DUP6 PUSH2 0x3032 JUMP JUMPDEST PUSH2 0x339F PUSH1 0x40 DUP4 ADD DUP5 PUSH2 0x3032 JUMP JUMPDEST SWAP5 SWAP4 POP POP POP POP JUMP JUMPDEST PUSH1 0x0 PUSH2 0x33B1 PUSH2 0x33C2 JUMP JUMPDEST SWAP1 POP PUSH2 0x33BD DUP3 DUP3 PUSH2 0x3611 JUMP JUMPDEST SWAP2 SWAP1 POP JUMP JUMPDEST PUSH1 0x0 PUSH1 0x40 MLOAD SWAP1 POP SWAP1 JUMP JUMPDEST PUSH1 0x0 PUSH8 0xFFFFFFFFFFFFFFFF DUP3 GT ISZERO PUSH2 0x33E7 JUMPI PUSH2 0x33E6 PUSH2 0x3728 JUMP JUMPDEST JUMPDEST PUSH2 0x33F0 DUP3 PUSH2 0x3775 JUMP JUMPDEST SWAP1 POP PUSH1 0x20 DUP2 ADD SWAP1 POP SWAP2 SWAP1 POP JUMP JUMPDEST PUSH1 0x0 DUP2 SWAP1 POP PUSH1 0x20 DUP3 ADD SWAP1 POP SWAP2 SWAP1 POP JUMP JUMPDEST PUSH1 0x0 DUP2 MLOAD SWAP1 POP SWAP2 SWAP1 POP JUMP JUMPDEST PUSH1 0x0 DUP2 MLOAD SWAP1 POP SWAP2 SWAP1 POP JUMP JUMPDEST PUSH1 0x0 PUSH1 0x20 DUP3 ADD SWAP1 POP SWAP2 SWAP1 POP JUMP JUMPDEST PUSH1 0x0 DUP3 DUP3 MSTORE PUSH1 0x20 DUP3 ADD SWAP1 POP SWAP3 SWAP2 POP POP JUMP JUMPDEST PUSH1 0x0 DUP3 DUP3 MSTORE PUSH1 0x20 DUP3 ADD SWAP1 POP SWAP3 SWAP2 POP POP JUMP JUMPDEST PUSH1 0x0 DUP2 SWAP1 POP SWAP3 SWAP2 POP POP JUMP JUMPDEST PUSH1 0x0 PUSH2 0x3468 DUP3 PUSH2 0x3586 JUMP JUMPDEST SWAP2 POP PUSH2 0x3473 DUP4 PUSH2 0x3586 JUMP JUMPDEST SWAP3 POP DUP3 PUSH32 0xFFFFFFFFFFFFFFFFFFFFFFFFFFFFFFFFFFFFFFFFFFFFFFFFFFFFFFFFFFFFFFFF SUB DUP3 GT ISZERO PUSH2 0x34A8 JUMPI PUSH2 0x34A7 PUSH2 0x366C JUMP JUMPDEST JUMPDEST DUP3 DUP3 ADD SWAP1 POP SWAP3 SWAP2 POP POP JUMP JUMPDEST PUSH1 0x0 PUSH2 0x34BE DUP3 PUSH2 0x3586 JUMP JUMPDEST SWAP2 POP PUSH2 0x34C9 DUP4 PUSH2 0x3586 JUMP JUMPDEST SWAP3 POP DUP3 PUSH2 0x34D9 JUMPI PUSH2 0x34D8 PUSH2 0x369B JUMP JUMPDEST JUMPDEST DUP3 DUP3 DIV SWAP1 POP SWAP3 SWAP2 POP POP JUMP JUMPDEST PUSH1 0x0 PUSH2 0x34EF DUP3 PUSH2 0x3586 JUMP JUMPDEST SWAP2 POP PUSH2 0x34FA DUP4 PUSH2 0x3586 JUMP JUMPDEST SWAP3 POP DUP2 PUSH32 0xFFFFFFFFFFFFFFFFFFFFFFFFFFFFFFFFFFFFFFFFFFFFFFFFFFFFFFFFFFFFFFFF DIV DUP4 GT DUP3 ISZERO ISZERO AND ISZERO PUSH2 0x3533 JUMPI PUSH2 0x3532 PUSH2 0x366C JUMP JUMPDEST JUMPDEST DUP3 DUP3 MUL SWAP1 POP SWAP3 SWAP2 POP POP JUMP JUMPDEST PUSH1 0x0 PUSH2 0x3549 DUP3 PUSH2 0x3566 JUMP JUMPDEST SWAP1 POP SWAP2 SWAP1 POP JUMP JUMPDEST PUSH1 0x0 DUP2 ISZERO ISZERO SWAP1 POP SWAP2 SWAP1 POP JUMP JUMPDEST PUSH1 0x0 DUP2 SWAP1 POP SWAP2 SWAP1 POP JUMP JUMPDEST PUSH1 0x0 PUSH20 0xFFFFFFFFFFFFFFFFFFFFFFFFFFFFFFFFFFFFFFFF DUP3 AND SWAP1 POP SWAP2 SWAP1 POP JUMP JUMPDEST PUSH1 0x0 DUP2 SWAP1 POP SWAP2 SWAP1 POP JUMP JUMPDEST PUSH1 0x0 PUSH1 0xFF DUP3 AND SWAP1 POP SWAP2 SWAP1 POP JUMP JUMPDEST DUP3 DUP2 DUP4 CALLDATACOPY PUSH1 0x0 DUP4 DUP4 ADD MSTORE POP POP POP JUMP JUMPDEST PUSH1 0x0 JUMPDEST DUP4 DUP2 LT ISZERO PUSH2 0x35CA JUMPI DUP1 DUP3 ADD MLOAD DUP2 DUP5 ADD MSTORE PUSH1 0x20 DUP2 ADD SWAP1 POP PUSH2 0x35AF JUMP JUMPDEST DUP4 DUP2 GT ISZERO PUSH2 0x35D9 JUMPI PUSH1 0x0 DUP5 DUP5 ADD MSTORE JUMPDEST POP POP POP POP JUMP JUMPDEST PUSH1 0x0 PUSH1 0x2 DUP3 DIV SWAP1 POP PUSH1 0x1 DUP3 AND DUP1 PUSH2 0x35F7 JUMPI PUSH1 0x7F DUP3 AND SWAP2 POP JUMPDEST PUSH1 0x20 DUP3 LT DUP2 EQ ISZERO PUSH2 0x360B JUMPI PUSH2 0x360A PUSH2 0x36CA JUMP JUMPDEST JUMPDEST POP SWAP2 SWAP1 POP JUMP JUMPDEST PUSH2 0x361A DUP3 PUSH2 0x3775 JUMP JUMPDEST DUP2 ADD DUP2 DUP2 LT PUSH8 0xFFFFFFFFFFFFFFFF DUP3 GT OR ISZERO PUSH2 0x3639 JUMPI PUSH2 0x3638 PUSH2 0x3728 JUMP JUMPDEST JUMPDEST DUP1 PUSH1 0x40 MSTORE POP POP POP JUMP JUMPDEST PUSH1 0x0 PUSH2 0x364D DUP3 PUSH2 0x3590 JUMP JUMPDEST SWAP2 POP PUSH1 0xFF DUP3 EQ ISZERO PUSH2 0x3661 JUMPI PUSH2 0x3660 PUSH2 0x366C JUMP JUMPDEST JUMPDEST PUSH1 0x1 DUP3 ADD SWAP1 POP SWAP2 SWAP1 POP JUMP JUMPDEST PUSH32 0x4E487B7100000000000000000000000000000000000000000000000000000000 PUSH1 0x0 MSTORE PUSH1 0x11 PUSH1 0x4 MSTORE PUSH1 0x24 PUSH1 0x0 REVERT JUMPDEST PUSH32 0x4E487B7100000000000000000000000000000000000000000000000000000000 PUSH1 0x0 MSTORE PUSH1 0x12 PUSH1 0x4 MSTORE PUSH1 0x24 PUSH1 0x0 REVERT JUMPDEST PUSH32 0x4E487B7100000000000000000000000000000000000000000000000000000000 PUSH1 0x0 MSTORE PUSH1 0x22 PUSH1 0x4 MSTORE PUSH1 0x24 PUSH1 0x0 REVERT JUMPDEST PUSH32 0x4E487B7100000000000000000000000000000000000000000000000000000000 PUSH1 0x0 MSTORE PUSH1 0x32 PUSH1 0x4 MSTORE PUSH1 0x24 PUSH1 0x0 REVERT JUMPDEST PUSH32 0x4E487B7100000000000000000000000000000000000000000000000000000000 PUSH1 0x0 MSTORE PUSH1 0x41 PUSH1 0x4 MSTORE PUSH1 0x24 PUSH1 0x0 REVERT JUMPDEST PUSH1 0x0 DUP1 REVERT JUMPDEST PUSH1 0x0 DUP1 REVERT JUMPDEST PUSH1 0x0 DUP1 REVERT JUMPDEST PUSH1 0x0 DUP1 REVERT JUMPDEST PUSH1 0x0 DUP1 REVERT JUMPDEST PUSH1 0x0 DUP1 REVERT JUMPDEST PUSH1 0x0 PUSH1 0x1F NOT PUSH1 0x1F DUP4 ADD AND SWAP1 POP SWAP2 SWAP1 POP JUMP JUMPDEST PUSH32 0x526563697069656E7420697320616C7265616479207265676973746572656400 PUSH1 0x0 DUP3 ADD MSTORE POP JUMP JUMPDEST PUSH32 0x50726F706F73616C20616C726561647920637265617465642100000000000000 PUSH1 0x0 DUP3 ADD MSTORE POP JUMP JUMPDEST PUSH32 0x596F75206172656E277420617574686F72697A6520746F20636F6D70696C6520 PUSH1 0x0 DUP3 ADD MSTORE PUSH32 0x42756E646C650000000000000000000000000000000000000000000000000000 PUSH1 0x20 DUP3 ADD MSTORE POP JUMP JUMPDEST PUSH32 0x596F7520616C72656164792073656E74206120726573706F6E73652E00000000 PUSH1 0x0 DUP3 ADD MSTORE POP JUMP JUMPDEST PUSH32 0x496E69746961746F722063616E277420766F7465210000000000000000000000 PUSH1 0x0 DUP3 ADD MSTORE POP JUMP JUMPDEST PUSH32 0x596F7520617265206E6F74207265676973746572656420746F20766F74650000 PUSH1 0x0 DUP3 ADD MSTORE POP JUMP JUMPDEST PUSH32 0x50726F706F73616C206861732072656163686564206974732065787069727920 PUSH1 0x0 DUP3 ADD MSTORE PUSH32 0x6461746500000000000000000000000000000000000000000000000000000000 PUSH1 0x20 DUP3 ADD MSTORE POP JUMP JUMPDEST PUSH32 0x4F6E6C7920696E69746961746F722063616E2072656769737465722061207265 PUSH1 0x0 DUP3 ADD MSTORE PUSH32 0x63697069656E742E000000000000000000000000000000000000000000000000 PUSH1 0x20 DUP3 ADD MSTORE POP JUMP JUMPDEST PUSH32 0x596F75206172656E277420496E69746961746F72000000000000000000000000 PUSH1 0x0 DUP3 ADD MSTORE POP JUMP JUMPDEST PUSH32 0x5665726469637420686173206E6F74206265656E207265616368656420796574 PUSH1 0x0 DUP3 ADD MSTORE POP JUMP JUMPDEST PUSH32 0x566F74696E672068617320657870697265640000000000000000000000000000 PUSH1 0x0 DUP3 ADD MSTORE POP JUMP JUMPDEST PUSH32 0x436F6E73656E7375732068617320616C7265616479206265656E2063616C6375 PUSH1 0x0 DUP3 ADD MSTORE PUSH32 0x6C61746564000000000000000000000000000000000000000000000000000000 PUSH1 0x20 DUP3 ADD MSTORE POP JUMP JUMPDEST PUSH2 0x3A13 DUP2 PUSH2 0x353E JUMP JUMPDEST DUP2 EQ PUSH2 0x3A1E JUMPI PUSH1 0x0 DUP1 REVERT JUMPDEST POP JUMP JUMPDEST PUSH2 0x3A2A DUP2 PUSH2 0x355C JUMP JUMPDEST DUP2 EQ PUSH2 0x3A35 JUMPI PUSH1 0x0 DUP1 REVERT JUMPDEST POP JUMP JUMPDEST PUSH2 0x3A41 DUP2 PUSH2 0x3586 JUMP JUMPDEST DUP2 EQ PUSH2 0x3A4C JUMPI PUSH1 0x0 DUP1 REVERT JUMPDEST POP JUMP INVALID LOG2 PUSH5 0x6970667358 0x22 SLT KECCAK256 DUP5 SWAP12 DUP10 0x5F RETURNDATACOPY STOP DUP6 PUSH22 0x7B17E06040A2FBFFDFB0ADA061FBAFCA96C7CD02A8E PUSH15 0xC764736F6C63430008070033000000 "
				},
				"gasEstimates": {
					"creation": {
						"codeDepositCost": "2996200",
						"executionCost": "3294",
						"totalCost": "2999494"
					},
					"external": {
						"Consensus(string)": "infinite",
						"IDs(string)": "infinite",
						"RegisterVoter(address,string)": "infinite",
						"Vote(string,string)": "infinite",
						"Voters(string,uint256)": "infinite",
						"businessProposals(string)": "infinite",
						"checkConsistency(string,uint256,uint256,bytes32)": "infinite",
						"contents(string)": "infinite",
						"createContract(string,uint256,uint256,bytes32,string,string)": "infinite",
						"expiryLengths(string)": "infinite",
						"finalVerdicts(string)": "infinite",
						"getIsCompiled(string)": "infinite",
						"getIsCreated(string)": "infinite",
						"initiators(string)": "infinite",
						"isCompiled(string)": "infinite",
						"keys(string,uint256)": "infinite",
						"messageDates(string)": "infinite",
						"numApprovals(string)": "infinite",
						"retrieve_bundle(string)": "infinite",
						"subjects(string)": "infinite",
						"voter_maps(string,address)": "infinite"
					}
				},
				"methodIdentifiers": {
					"Consensus(string)": "883a9673",
					"IDs(string)": "11c2b413",
					"RegisterVoter(address,string)": "3d63af0e",
					"Vote(string,string)": "17072d6b",
					"Voters(string,uint256)": "8f6a35b7",
					"businessProposals(string)": "089a4c60",
					"checkConsistency(string,uint256,uint256,bytes32)": "9d6a3125",
					"contents(string)": "a6acce35",
					"createContract(string,uint256,uint256,bytes32,string,string)": "7aa18f88",
					"expiryLengths(string)": "bb9a31f3",
					"finalVerdicts(string)": "233d0fa1",
					"getIsCompiled(string)": "ec548680",
					"getIsCreated(string)": "c9bc42ed",
					"initiators(string)": "e5c8d65f",
					"isCompiled(string)": "31189fe2",
					"keys(string,uint256)": "06699b01",
					"messageDates(string)": "8a3b0d02",
					"numApprovals(string)": "931da6b3",
					"retrieve_bundle(string)": "37f2e190",
					"subjects(string)": "fe290423",
					"voter_maps(string,address)": "33a0b0ab"
				}
			},
			"storageLayout": {
				"storage": [
					{
						"astId": 20,
						"contract": "contracts/BusinessConsensus3.sol:BusinessConsensus3",
						"label": "businessProposals",
						"offset": 0,
						"slot": "0",
						"type": "t_mapping(t_string_memory_ptr,t_struct(Proposal)15_storage)"
					},
					{
						"astId": 24,
						"contract": "contracts/BusinessConsensus3.sol:BusinessConsensus3",
						"label": "initiators",
						"offset": 0,
						"slot": "1",
						"type": "t_mapping(t_string_memory_ptr,t_address)"
					},
					{
						"astId": 28,
						"contract": "contracts/BusinessConsensus3.sol:BusinessConsensus3",
						"label": "IDs",
						"offset": 0,
						"slot": "2",
						"type": "t_mapping(t_string_memory_ptr,t_string_storage)"
					},
					{
						"astId": 32,
						"contract": "contracts/BusinessConsensus3.sol:BusinessConsensus3",
						"label": "expiryLengths",
						"offset": 0,
						"slot": "3",
						"type": "t_mapping(t_string_memory_ptr,t_uint256)"
					},
					{
						"astId": 36,
						"contract": "contracts/BusinessConsensus3.sol:BusinessConsensus3",
						"label": "contents",
						"offset": 0,
						"slot": "4",
						"type": "t_mapping(t_string_memory_ptr,t_bytes32)"
					},
					{
						"astId": 40,
						"contract": "contracts/BusinessConsensus3.sol:BusinessConsensus3",
						"label": "numApprovals",
						"offset": 0,
						"slot": "5",
						"type": "t_mapping(t_string_memory_ptr,t_uint256)"
					},
					{
						"astId": 44,
						"contract": "contracts/BusinessConsensus3.sol:BusinessConsensus3",
						"label": "messageDates",
						"offset": 0,
						"slot": "6",
						"type": "t_mapping(t_string_memory_ptr,t_string_storage)"
					},
					{
						"astId": 48,
						"contract": "contracts/BusinessConsensus3.sol:BusinessConsensus3",
						"label": "finalVerdicts",
						"offset": 0,
						"slot": "7",
						"type": "t_mapping(t_string_memory_ptr,t_bytes32)"
					},
					{
						"astId": 52,
						"contract": "contracts/BusinessConsensus3.sol:BusinessConsensus3",
						"label": "isCompiled",
						"offset": 0,
						"slot": "8",
						"type": "t_mapping(t_string_memory_ptr,t_bool)"
					},
					{
						"astId": 56,
						"contract": "contracts/BusinessConsensus3.sol:BusinessConsensus3",
						"label": "subjects",
						"offset": 0,
						"slot": "9",
						"type": "t_mapping(t_string_memory_ptr,t_string_storage)"
					},
					{
						"astId": 63,
						"contract": "contracts/BusinessConsensus3.sol:BusinessConsensus3",
						"label": "voter_maps",
						"offset": 0,
						"slot": "10",
						"type": "t_mapping(t_string_memory_ptr,t_mapping(t_address,t_struct(Voter)8_storage))"
					},
					{
						"astId": 69,
						"contract": "contracts/BusinessConsensus3.sol:BusinessConsensus3",
						"label": "Voters",
						"offset": 0,
						"slot": "11",
						"type": "t_mapping(t_string_memory_ptr,t_array(t_struct(Voter)8_storage)dyn_storage)"
					},
					{
						"astId": 74,
						"contract": "contracts/BusinessConsensus3.sol:BusinessConsensus3",
						"label": "keys",
						"offset": 0,
						"slot": "12",
						"type": "t_mapping(t_string_memory_ptr,t_array(t_address)dyn_storage)"
					}
				],
				"types": {
					"t_address": {
						"encoding": "inplace",
						"label": "address",
						"numberOfBytes": "20"
					},
					"t_array(t_address)dyn_storage": {
						"base": "t_address",
						"encoding": "dynamic_array",
						"label": "address[]",
						"numberOfBytes": "32"
					},
					"t_array(t_struct(Voter)8_storage)dyn_storage": {
						"base": "t_struct(Voter)8_storage",
						"encoding": "dynamic_array",
						"label": "struct BusinessConsensus3.Voter[]",
						"numberOfBytes": "32"
					},
					"t_bool": {
						"encoding": "inplace",
						"label": "bool",
						"numberOfBytes": "1"
					},
					"t_bytes32": {
						"encoding": "inplace",
						"label": "bytes32",
						"numberOfBytes": "32"
					},
					"t_mapping(t_address,t_struct(Voter)8_storage)": {
						"encoding": "mapping",
						"key": "t_address",
						"label": "mapping(address => struct BusinessConsensus3.Voter)",
						"numberOfBytes": "32",
						"value": "t_struct(Voter)8_storage"
					},
					"t_mapping(t_string_memory_ptr,t_address)": {
						"encoding": "mapping",
						"key": "t_string_memory_ptr",
						"label": "mapping(string => address)",
						"numberOfBytes": "32",
						"value": "t_address"
					},
					"t_mapping(t_string_memory_ptr,t_array(t_address)dyn_storage)": {
						"encoding": "mapping",
						"key": "t_string_memory_ptr",
						"label": "mapping(string => address[])",
						"numberOfBytes": "32",
						"value": "t_array(t_address)dyn_storage"
					},
					"t_mapping(t_string_memory_ptr,t_array(t_struct(Voter)8_storage)dyn_storage)": {
						"encoding": "mapping",
						"key": "t_string_memory_ptr",
						"label": "mapping(string => struct BusinessConsensus3.Voter[])",
						"numberOfBytes": "32",
						"value": "t_array(t_struct(Voter)8_storage)dyn_storage"
					},
					"t_mapping(t_string_memory_ptr,t_bool)": {
						"encoding": "mapping",
						"key": "t_string_memory_ptr",
						"label": "mapping(string => bool)",
						"numberOfBytes": "32",
						"value": "t_bool"
					},
					"t_mapping(t_string_memory_ptr,t_bytes32)": {
						"encoding": "mapping",
						"key": "t_string_memory_ptr",
						"label": "mapping(string => bytes32)",
						"numberOfBytes": "32",
						"value": "t_bytes32"
					},
					"t_mapping(t_string_memory_ptr,t_mapping(t_address,t_struct(Voter)8_storage))": {
						"encoding": "mapping",
						"key": "t_string_memory_ptr",
						"label": "mapping(string => mapping(address => struct BusinessConsensus3.Voter))",
						"numberOfBytes": "32",
						"value": "t_mapping(t_address,t_struct(Voter)8_storage)"
					},
					"t_mapping(t_string_memory_ptr,t_string_storage)": {
						"encoding": "mapping",
						"key": "t_string_memory_ptr",
						"label": "mapping(string => string)",
						"numberOfBytes": "32",
						"value": "t_string_storage"
					},
					"t_mapping(t_string_memory_ptr,t_struct(Proposal)15_storage)": {
						"encoding": "mapping",
						"key": "t_string_memory_ptr",
						"label": "mapping(string => struct BusinessConsensus3.Proposal)",
						"numberOfBytes": "32",
						"value": "t_struct(Proposal)15_storage"
					},
					"t_mapping(t_string_memory_ptr,t_uint256)": {
						"encoding": "mapping",
						"key": "t_string_memory_ptr",
						"label": "mapping(string => uint256)",
						"numberOfBytes": "32",
						"value": "t_uint256"
					},
					"t_string_memory_ptr": {
						"encoding": "bytes",
						"label": "string",
						"numberOfBytes": "32"
					},
					"t_string_storage": {
						"encoding": "bytes",
						"label": "string",
						"numberOfBytes": "32"
					},
					"t_struct(Proposal)15_storage": {
						"encoding": "inplace",
						"label": "struct BusinessConsensus3.Proposal",
						"members": [
							{
								"astId": 10,
								"contract": "contracts/BusinessConsensus3.sol:BusinessConsensus3",
								"label": "voteCount",
								"offset": 0,
								"slot": "0",
								"type": "t_uint256"
							},
							{
								"astId": 12,
								"contract": "contracts/BusinessConsensus3.sol:BusinessConsensus3",
								"label": "expiryDate",
								"offset": 0,
								"slot": "1",
								"type": "t_uint256"
							},
							{
								"astId": 14,
								"contract": "contracts/BusinessConsensus3.sol:BusinessConsensus3",
								"label": "BusinessRequirement",
								"offset": 0,
								"slot": "2",
								"type": "t_uint256"
							}
						],
						"numberOfBytes": "96"
					},
					"t_struct(Voter)8_storage": {
						"encoding": "inplace",
						"label": "struct BusinessConsensus3.Voter",
						"members": [
							{
								"astId": 3,
								"contract": "contracts/BusinessConsensus3.sol:BusinessConsensus3",
								"label": "voted",
								"offset": 0,
								"slot": "0",
								"type": "t_bool"
							},
							{
								"astId": 5,
								"contract": "contracts/BusinessConsensus3.sol:BusinessConsensus3",
								"label": "vote",
								"offset": 1,
								"slot": "0",
								"type": "t_bool"
							},
							{
								"astId": 7,
								"contract": "contracts/BusinessConsensus3.sol:BusinessConsensus3",
								"label": "recipient",
								"offset": 2,
								"slot": "0",
								"type": "t_address"
							}
						],
						"numberOfBytes": "32"
					},
					"t_uint256": {
						"encoding": "inplace",
						"label": "uint256",
						"numberOfBytes": "32"
					}
				}
			},
			"userdoc": {
				"kind": "user",
				"methods": {
					"Consensus(string)": {
						"notice": "compile all relevant information into a Bundle"
					}
				},
				"version": 1
			}
		}
	}
}