{
	"contracts/BusinessConsensus4.sol": {
		"BusinessConsensus4": {
			"abi": [
				{
					"inputs": [
						{
							"internalType": "bytes32",
							"name": "_messageID",
							"type": "bytes32"
						}
					],
					"name": "Consensus",
					"outputs": [],
					"stateMutability": "nonpayable",
					"type": "function"
				},
				{
					"inputs": [
						{
							"internalType": "bytes32",
							"name": "",
							"type": "bytes32"
						}
					],
					"name": "IDs",
					"outputs": [
						{
							"internalType": "bytes32",
							"name": "",
							"type": "bytes32"
						}
					],
					"stateMutability": "view",
					"type": "function"
				},
				{
					"inputs": [
						{
							"internalType": "address",
							"name": "voter",
							"type": "address"
						},
						{
							"internalType": "bytes32",
							"name": "_messageID",
							"type": "bytes32"
						}
					],
					"name": "RegisterVoter",
					"outputs": [],
					"stateMutability": "nonpayable",
					"type": "function"
				},
				{
					"inputs": [
						{
							"internalType": "string",
							"name": "response",
							"type": "string"
						},
						{
							"internalType": "bytes32",
							"name": "_messageID",
							"type": "bytes32"
						}
					],
					"name": "Vote",
					"outputs": [],
					"stateMutability": "nonpayable",
					"type": "function"
				},
				{
					"inputs": [
						{
							"internalType": "bytes32",
							"name": "",
							"type": "bytes32"
						},
						{
							"internalType": "uint256",
							"name": "",
							"type": "uint256"
						}
					],
					"name": "Voters",
					"outputs": [
						{
							"internalType": "bool",
							"name": "voted",
							"type": "bool"
						},
						{
							"internalType": "bool",
							"name": "vote",
							"type": "bool"
						},
						{
							"internalType": "address",
							"name": "recipient",
							"type": "address"
						}
					],
					"stateMutability": "view",
					"type": "function"
				},
				{
					"inputs": [
						{
							"internalType": "bytes32",
							"name": "",
							"type": "bytes32"
						}
					],
					"name": "businessRequirements",
					"outputs": [
						{
							"internalType": "uint256",
							"name": "",
							"type": "uint256"
						}
					],
					"stateMutability": "view",
					"type": "function"
				},
				{
					"inputs": [
						{
							"internalType": "bytes32",
							"name": "_keyID",
							"type": "bytes32"
						},
						{
							"internalType": "uint256",
							"name": "_businessRequirement",
							"type": "uint256"
						},
						{
							"internalType": "uint256",
							"name": "_expiryLength",
							"type": "uint256"
						},
						{
							"internalType": "bytes32",
							"name": "_contents",
							"type": "bytes32"
						}
					],
					"name": "checkConsistency",
					"outputs": [
						{
							"internalType": "bool",
							"name": "",
							"type": "bool"
						},
						{
							"internalType": "bool",
							"name": "",
							"type": "bool"
						},
						{
							"internalType": "bool",
							"name": "",
							"type": "bool"
						}
					],
					"stateMutability": "view",
					"type": "function"
				},
				{
					"inputs": [
						{
							"internalType": "bytes32",
							"name": "",
							"type": "bytes32"
						}
					],
					"name": "contents",
					"outputs": [
						{
							"internalType": "bytes32",
							"name": "",
							"type": "bytes32"
						}
					],
					"stateMutability": "view",
					"type": "function"
				},
				{
					"inputs": [
						{
							"internalType": "bytes32",
							"name": "_messageID",
							"type": "bytes32"
						},
						{
							"internalType": "uint256",
							"name": "expiry",
							"type": "uint256"
						},
						{
							"internalType": "uint256",
							"name": "requiredPercentage",
							"type": "uint256"
						},
						{
							"internalType": "bytes32",
							"name": "_contents",
							"type": "bytes32"
						},
						{
							"internalType": "bytes32",
							"name": "subject",
							"type": "bytes32"
						},
						{
							"internalType": "string",
							"name": "_messageDate",
							"type": "string"
						},
						{
							"internalType": "bytes32",
							"name": "_keyID",
							"type": "bytes32"
						}
					],
					"name": "createContract",
					"outputs": [],
					"stateMutability": "nonpayable",
					"type": "function"
				},
				{
					"inputs": [
						{
							"internalType": "bytes32",
							"name": "",
							"type": "bytes32"
						}
					],
					"name": "expiryDates",
					"outputs": [
						{
							"internalType": "uint256",
							"name": "",
							"type": "uint256"
						}
					],
					"stateMutability": "view",
					"type": "function"
				},
				{
					"inputs": [
						{
							"internalType": "bytes32",
							"name": "",
							"type": "bytes32"
						}
					],
					"name": "expiryLengths",
					"outputs": [
						{
							"internalType": "uint256",
							"name": "",
							"type": "uint256"
						}
					],
					"stateMutability": "view",
					"type": "function"
				},
				{
					"inputs": [
						{
							"internalType": "bytes32",
							"name": "",
							"type": "bytes32"
						}
					],
					"name": "finalVerdicts",
					"outputs": [
						{
							"internalType": "bool",
							"name": "",
							"type": "bool"
						}
					],
					"stateMutability": "view",
					"type": "function"
				},
				{
					"inputs": [
						{
							"internalType": "bytes32",
							"name": "_messageID",
							"type": "bytes32"
						}
					],
					"name": "getIsCompiled",
					"outputs": [
						{
							"internalType": "bool",
							"name": "",
							"type": "bool"
						}
					],
					"stateMutability": "view",
					"type": "function"
				},
				{
					"inputs": [
						{
							"internalType": "bytes32",
							"name": "_keyID",
							"type": "bytes32"
						}
					],
					"name": "getIsCreated",
					"outputs": [
						{
							"internalType": "bytes32",
							"name": "",
							"type": "bytes32"
						},
						{
							"internalType": "string",
							"name": "",
							"type": "string"
						}
					],
					"stateMutability": "view",
					"type": "function"
				},
				{
					"inputs": [
						{
							"internalType": "bytes32",
							"name": "",
							"type": "bytes32"
						}
					],
					"name": "initiators",
					"outputs": [
						{
							"internalType": "address",
							"name": "",
							"type": "address"
						}
					],
					"stateMutability": "view",
					"type": "function"
				},
				{
					"inputs": [
						{
							"internalType": "bytes32",
							"name": "",
							"type": "bytes32"
						}
					],
					"name": "isCompiled",
					"outputs": [
						{
							"internalType": "bool",
							"name": "",
							"type": "bool"
						}
					],
					"stateMutability": "view",
					"type": "function"
				},
				{
					"inputs": [
						{
							"internalType": "bytes32",
							"name": "",
							"type": "bytes32"
						},
						{
							"internalType": "uint256",
							"name": "",
							"type": "uint256"
						}
					],
					"name": "keys",
					"outputs": [
						{
							"internalType": "address",
							"name": "",
							"type": "address"
						}
					],
					"stateMutability": "view",
					"type": "function"
				},
				{
					"inputs": [
						{
							"internalType": "bytes32",
							"name": "",
							"type": "bytes32"
						}
					],
					"name": "messageDates",
					"outputs": [
						{
							"internalType": "string",
							"name": "",
							"type": "string"
						}
					],
					"stateMutability": "view",
					"type": "function"
				},
				{
					"inputs": [
						{
							"internalType": "bytes32",
							"name": "",
							"type": "bytes32"
						}
					],
					"name": "numApprovals",
					"outputs": [
						{
							"internalType": "uint256",
							"name": "",
							"type": "uint256"
						}
					],
					"stateMutability": "view",
					"type": "function"
				},
				{
					"inputs": [
						{
							"internalType": "bytes32",
							"name": "_messageID",
							"type": "bytes32"
						}
					],
					"name": "retrieve_bundle",
					"outputs": [
						{
							"internalType": "bool",
							"name": "",
							"type": "bool"
						},
						{
							"internalType": "bytes32",
							"name": "",
							"type": "bytes32"
						},
						{
							"internalType": "uint256",
							"name": "",
							"type": "uint256"
						},
						{
							"components": [
								{
									"internalType": "bool",
									"name": "voted",
									"type": "bool"
								},
								{
									"internalType": "bool",
									"name": "vote",
									"type": "bool"
								},
								{
									"internalType": "address",
									"name": "recipient",
									"type": "address"
								}
							],
							"internalType": "struct BusinessConsensus4.Voter[]",
							"name": "",
							"type": "tuple[]"
						}
					],
					"stateMutability": "view",
					"type": "function"
				},
				{
					"inputs": [
						{
							"internalType": "bytes32",
							"name": "",
							"type": "bytes32"
						}
					],
					"name": "subjects",
					"outputs": [
						{
							"internalType": "bytes32",
							"name": "",
							"type": "bytes32"
						}
					],
					"stateMutability": "view",
					"type": "function"
				},
				{
					"inputs": [
						{
							"internalType": "bytes32",
							"name": "",
							"type": "bytes32"
						}
					],
					"name": "voteCounts",
					"outputs": [
						{
							"internalType": "uint256",
							"name": "",
							"type": "uint256"
						}
					],
					"stateMutability": "view",
					"type": "function"
				},
				{
					"inputs": [
						{
							"internalType": "bytes32",
							"name": "",
							"type": "bytes32"
						},
						{
							"internalType": "address",
							"name": "",
							"type": "address"
						}
					],
					"name": "voter_maps",
					"outputs": [
						{
							"internalType": "bool",
							"name": "voted",
							"type": "bool"
						},
						{
							"internalType": "bool",
							"name": "vote",
							"type": "bool"
						},
						{
							"internalType": "address",
							"name": "recipient",
							"type": "address"
						}
					],
					"stateMutability": "view",
					"type": "function"
				}
			],
			"devdoc": {
				"kind": "dev",
				"methods": {},
				"version": 1
			},
			"evm": {
				"assembly": "    /* \"contracts/BusinessConsensus4.sol\":33:6831  contract BusinessConsensus4{\r... */\n  mstore(0x40, 0x80)\n  callvalue\n  dup1\n  iszero\n  tag_1\n  jumpi\n  0x00\n  dup1\n  revert\ntag_1:\n  pop\n  dataSize(sub_0)\n  dup1\n  dataOffset(sub_0)\n  0x00\n  codecopy\n  0x00\n  return\nstop\n\nsub_0: assembly {\n        /* \"contracts/BusinessConsensus4.sol\":33:6831  contract BusinessConsensus4{\r... */\n      mstore(0x40, 0x80)\n      callvalue\n      dup1\n      iszero\n      tag_1\n      jumpi\n      0x00\n      dup1\n      revert\n    tag_1:\n      pop\n      jumpi(tag_2, lt(calldatasize, 0x04))\n      shr(0xe0, calldataload(0x00))\n      dup1\n      0x823a6366\n      gt\n      tag_26\n      jumpi\n      dup1\n      0xd443560a\n      gt\n      tag_27\n      jumpi\n      dup1\n      0xd443560a\n      eq\n      tag_20\n      jumpi\n      dup1\n      0xd468f983\n      eq\n      tag_21\n      jumpi\n      dup1\n      0xd5aabbd1\n      eq\n      tag_22\n      jumpi\n      dup1\n      0xe463eaee\n      eq\n      tag_23\n      jumpi\n      dup1\n      0xe5d009bf\n      eq\n      tag_24\n      jumpi\n      dup1\n      0xf20ca12c\n      eq\n      tag_25\n      jumpi\n      jump(tag_2)\n    tag_27:\n      dup1\n      0x823a6366\n      eq\n      tag_14\n      jumpi\n      dup1\n      0x8acc0d10\n      eq\n      tag_15\n      jumpi\n      dup1\n      0x97299e99\n      eq\n      tag_16\n      jumpi\n      dup1\n      0xa0d859a3\n      eq\n      tag_17\n      jumpi\n      dup1\n      0xa4a8f426\n      eq\n      tag_18\n      jumpi\n      dup1\n      0xa784ef74\n      eq\n      tag_19\n      jumpi\n      jump(tag_2)\n    tag_26:\n      dup1\n      0x5273bc48\n      gt\n      tag_28\n      jumpi\n      dup1\n      0x5273bc48\n      eq\n      tag_8\n      jumpi\n      dup1\n      0x56c583d8\n      eq\n      tag_9\n      jumpi\n      dup1\n      0x7a099c6a\n      eq\n      tag_10\n      jumpi\n      dup1\n      0x7d6c570a\n      eq\n      tag_11\n      jumpi\n      dup1\n      0x7ff4c389\n      eq\n      tag_12\n      jumpi\n      dup1\n      0x81d0e37b\n      eq\n      tag_13\n      jumpi\n      jump(tag_2)\n    tag_28:\n      dup1\n      0x13191ade\n      eq\n      tag_3\n      jumpi\n      dup1\n      0x27f0ae92\n      eq\n      tag_4\n      jumpi\n      dup1\n      0x33dfd126\n      eq\n      tag_5\n      jumpi\n      dup1\n      0x38c20a9e\n      eq\n      tag_6\n      jumpi\n      dup1\n      0x4fd3b445\n      eq\n      tag_7\n      jumpi\n    tag_2:\n      0x00\n      dup1\n      revert\n        /* \"contracts/BusinessConsensus4.sol\":558:606  mapping(bytes32 => uint256) public expiryLengths */\n    tag_3:\n      tag_29\n      0x04\n      dup1\n      calldatasize\n      sub\n      dup2\n      add\n      swap1\n      tag_30\n      swap2\n      swap1\n      tag_31\n      jump\t// in\n    tag_30:\n      tag_32\n      jump\t// in\n    tag_29:\n      mload(0x40)\n      tag_33\n      swap2\n      swap1\n      tag_34\n      jump\t// in\n    tag_33:\n      mload(0x40)\n      dup1\n      swap2\n      sub\n      swap1\n      return\n        /* \"contracts/BusinessConsensus4.sol\":6399:6826  function retrieve_bundle(bytes32 _messageID) external view returns (bool, bytes32, uint256, Voter[] memory){\r... */\n    tag_4:\n      tag_35\n      0x04\n      dup1\n      calldatasize\n      sub\n      dup2\n      add\n      swap1\n      tag_36\n      swap2\n      swap1\n      tag_31\n      jump\t// in\n    tag_36:\n      tag_37\n      jump\t// in\n    tag_35:\n      mload(0x40)\n      tag_38\n      swap5\n      swap4\n      swap3\n      swap2\n      swap1\n      tag_39\n      jump\t// in\n    tag_38:\n      mload(0x40)\n      dup1\n      swap2\n      sub\n      swap1\n      return\n        /* \"contracts/BusinessConsensus4.sol\":2530:3098  function checkConsistency(bytes32 _keyID, uint256 _businessRequirement, uint256 _expiryLength, bytes32 _contents) public view returns(bool, bool, bool){\r... */\n    tag_5:\n      tag_40\n      0x04\n      dup1\n      calldatasize\n      sub\n      dup2\n      add\n      swap1\n      tag_41\n      swap2\n      swap1\n      tag_42\n      jump\t// in\n    tag_41:\n      tag_43\n      jump\t// in\n    tag_40:\n      mload(0x40)\n      tag_44\n      swap4\n      swap3\n      swap2\n      swap1\n      tag_45\n      jump\t// in\n    tag_44:\n      mload(0x40)\n      dup1\n      swap2\n      sub\n      swap1\n      return\n        /* \"contracts/BusinessConsensus4.sol\":885:930  mapping(bytes32 => bool) public finalVerdicts */\n    tag_6:\n      tag_46\n      0x04\n      dup1\n      calldatasize\n      sub\n      dup2\n      add\n      swap1\n      tag_47\n      swap2\n      swap1\n      tag_31\n      jump\t// in\n    tag_47:\n      tag_48\n      jump\t// in\n    tag_46:\n      mload(0x40)\n      tag_49\n      swap2\n      swap1\n      tag_50\n      jump\t// in\n    tag_49:\n      mload(0x40)\n      dup1\n      swap2\n      sub\n      swap1\n      return\n        /* \"contracts/BusinessConsensus4.sol\":1102:1141  mapping(bytes32=>Voter[]) public Voters */\n    tag_7:\n      tag_51\n      0x04\n      dup1\n      calldatasize\n      sub\n      dup2\n      add\n      swap1\n      tag_52\n      swap2\n      swap1\n      tag_53\n      jump\t// in\n    tag_52:\n      tag_54\n      jump\t// in\n    tag_51:\n      mload(0x40)\n      tag_55\n      swap4\n      swap3\n      swap2\n      swap1\n      tag_56\n      jump\t// in\n    tag_55:\n      mload(0x40)\n      dup1\n      swap2\n      sub\n      swap1\n      return\n        /* \"contracts/BusinessConsensus4.sol\":2407:2524  function getIsCompiled(bytes32 _messageID) public view returns (bool){\r... */\n    tag_8:\n      tag_57\n      0x04\n      dup1\n      calldatasize\n      sub\n      dup2\n      add\n      swap1\n      tag_58\n      swap2\n      swap1\n      tag_31\n      jump\t// in\n    tag_58:\n      tag_59\n      jump\t// in\n    tag_57:\n      mload(0x40)\n      tag_60\n      swap2\n      swap1\n      tag_50\n      jump\t// in\n    tag_60:\n      mload(0x40)\n      dup1\n      swap2\n      sub\n      swap1\n      return\n        /* \"contracts/BusinessConsensus4.sol\":613:659  mapping(bytes32 => uint256) public expiryDates */\n    tag_9:\n      tag_61\n      0x04\n      dup1\n      calldatasize\n      sub\n      dup2\n      add\n      swap1\n      tag_62\n      swap2\n      swap1\n      tag_31\n      jump\t// in\n    tag_62:\n      tag_63\n      jump\t// in\n    tag_61:\n      mload(0x40)\n      tag_64\n      swap2\n      swap1\n      tag_34\n      jump\t// in\n    tag_64:\n      mload(0x40)\n      dup1\n      swap2\n      sub\n      swap1\n      return\n        /* \"contracts/BusinessConsensus4.sol\":770:825  mapping(bytes32 => uint256) public businessRequirements */\n    tag_10:\n      tag_65\n      0x04\n      dup1\n      calldatasize\n      sub\n      dup2\n      add\n      swap1\n      tag_66\n      swap2\n      swap1\n      tag_31\n      jump\t// in\n    tag_66:\n      tag_67\n      jump\t// in\n    tag_65:\n      mload(0x40)\n      tag_68\n      swap2\n      swap1\n      tag_34\n      jump\t// in\n    tag_68:\n      mload(0x40)\n      dup1\n      swap2\n      sub\n      swap1\n      return\n        /* \"contracts/BusinessConsensus4.sol\":5458:6391  function Consensus(bytes32 _messageID) external {\r... */\n    tag_11:\n      tag_69\n      0x04\n      dup1\n      calldatasize\n      sub\n      dup2\n      add\n      swap1\n      tag_70\n      swap2\n      swap1\n      tag_31\n      jump\t// in\n    tag_70:\n      tag_71\n      jump\t// in\n    tag_69:\n      stop\n        /* \"contracts/BusinessConsensus4.sol\":1148:1187  mapping(bytes32=>address[]) public keys */\n    tag_12:\n      tag_72\n      0x04\n      dup1\n      calldatasize\n      sub\n      dup2\n      add\n      swap1\n      tag_73\n      swap2\n      swap1\n      tag_53\n      jump\t// in\n    tag_73:\n      tag_74\n      jump\t// in\n    tag_72:\n      mload(0x40)\n      tag_75\n      swap2\n      swap1\n      tag_76\n      jump\t// in\n    tag_75:\n      mload(0x40)\n      dup1\n      swap2\n      sub\n      swap1\n      return\n        /* \"contracts/BusinessConsensus4.sol\":506:551  mapping(bytes32 => uint256) public voteCounts */\n    tag_13:\n      tag_77\n      0x04\n      dup1\n      calldatasize\n      sub\n      dup2\n      add\n      swap1\n      tag_78\n      swap2\n      swap1\n      tag_31\n      jump\t// in\n    tag_78:\n      tag_79\n      jump\t// in\n    tag_77:\n      mload(0x40)\n      tag_80\n      swap2\n      swap1\n      tag_34\n      jump\t// in\n    tag_80:\n      mload(0x40)\n      dup1\n      swap2\n      sub\n      swap1\n      return\n        /* \"contracts/BusinessConsensus4.sol\":937:979  mapping(bytes32 => bool) public isCompiled */\n    tag_14:\n      tag_81\n      0x04\n      dup1\n      calldatasize\n      sub\n      dup2\n      add\n      swap1\n      tag_82\n      swap2\n      swap1\n      tag_31\n      jump\t// in\n    tag_82:\n      tag_83\n      jump\t// in\n    tag_81:\n      mload(0x40)\n      tag_84\n      swap2\n      swap1\n      tag_50\n      jump\t// in\n    tag_84:\n      mload(0x40)\n      dup1\n      swap2\n      sub\n      swap1\n      return\n        /* \"contracts/BusinessConsensus4.sol\":4097:5394  function Vote(string memory response,bytes32 _messageID) external {\r... */\n    tag_15:\n      tag_85\n      0x04\n      dup1\n      calldatasize\n      sub\n      dup2\n      add\n      swap1\n      tag_86\n      swap2\n      swap1\n      tag_87\n      jump\t// in\n    tag_86:\n      tag_88\n      jump\t// in\n    tag_85:\n      stop\n        /* \"contracts/BusinessConsensus4.sol\":3104:3245  function getIsCreated(bytes32 _keyID) public view returns (bytes32,string memory){\r... */\n    tag_16:\n      tag_89\n      0x04\n      dup1\n      calldatasize\n      sub\n      dup2\n      add\n      swap1\n      tag_90\n      swap2\n      swap1\n      tag_31\n      jump\t// in\n    tag_90:\n      tag_91\n      jump\t// in\n    tag_89:\n      mload(0x40)\n      tag_92\n      swap3\n      swap2\n      swap1\n      tag_93\n      jump\t// in\n    tag_92:\n      mload(0x40)\n      dup1\n      swap2\n      sub\n      swap1\n      return\n        /* \"contracts/BusinessConsensus4.sol\":986:1029  mapping(bytes32 => bytes32) public subjects */\n    tag_17:\n      tag_94\n      0x04\n      dup1\n      calldatasize\n      sub\n      dup2\n      add\n      swap1\n      tag_95\n      swap2\n      swap1\n      tag_31\n      jump\t// in\n    tag_95:\n      tag_96\n      jump\t// in\n    tag_94:\n      mload(0x40)\n      tag_97\n      swap2\n      swap1\n      tag_98\n      jump\t// in\n    tag_97:\n      mload(0x40)\n      dup1\n      swap2\n      sub\n      swap1\n      return\n        /* \"contracts/BusinessConsensus4.sol\":832:878  mapping(bytes32 => string) public messageDates */\n    tag_18:\n      tag_99\n      0x04\n      dup1\n      calldatasize\n      sub\n      dup2\n      add\n      swap1\n      tag_100\n      swap2\n      swap1\n      tag_31\n      jump\t// in\n    tag_100:\n      tag_101\n      jump\t// in\n    tag_99:\n      mload(0x40)\n      tag_102\n      swap2\n      swap1\n      tag_103\n      jump\t// in\n    tag_102:\n      mload(0x40)\n      dup1\n      swap2\n      sub\n      swap1\n      return\n        /* \"contracts/BusinessConsensus4.sol\":1036:1095  mapping(bytes32=>mapping(address=>Voter)) public voter_maps */\n    tag_19:\n      tag_104\n      0x04\n      dup1\n      calldatasize\n      sub\n      dup2\n      add\n      swap1\n      tag_105\n      swap2\n      swap1\n      tag_106\n      jump\t// in\n    tag_105:\n      tag_107\n      jump\t// in\n    tag_104:\n      mload(0x40)\n      tag_108\n      swap4\n      swap3\n      swap2\n      swap1\n      tag_56\n      jump\t// in\n    tag_108:\n      mload(0x40)\n      dup1\n      swap2\n      sub\n      swap1\n      return\n        /* \"contracts/BusinessConsensus4.sol\":412:455  mapping(bytes32=>address) public initiators */\n    tag_20:\n      tag_109\n      0x04\n      dup1\n      calldatasize\n      sub\n      dup2\n      add\n      swap1\n      tag_110\n      swap2\n      swap1\n      tag_31\n      jump\t// in\n    tag_110:\n      tag_111\n      jump\t// in\n    tag_109:\n      mload(0x40)\n      tag_112\n      swap2\n      swap1\n      tag_76\n      jump\t// in\n    tag_112:\n      mload(0x40)\n      dup1\n      swap2\n      sub\n      swap1\n      return\n        /* \"contracts/BusinessConsensus4.sol\":3351:4089  function RegisterVoter(address voter,bytes32 _messageID) external {\r... */\n    tag_21:\n      tag_113\n      0x04\n      dup1\n      calldatasize\n      sub\n      dup2\n      add\n      swap1\n      tag_114\n      swap2\n      swap1\n      tag_115\n      jump\t// in\n    tag_114:\n      tag_116\n      jump\t// in\n    tag_113:\n      stop\n        /* \"contracts/BusinessConsensus4.sol\":1200:2401  function createContract(bytes32 _messageID, uint256 expiry, uint256 requiredPercentage,bytes32 _contents,\r... */\n    tag_22:\n      tag_117\n      0x04\n      dup1\n      calldatasize\n      sub\n      dup2\n      add\n      swap1\n      tag_118\n      swap2\n      swap1\n      tag_119\n      jump\t// in\n    tag_118:\n      tag_120\n      jump\t// in\n    tag_117:\n      stop\n        /* \"contracts/BusinessConsensus4.sol\":716:763  mapping(bytes32 => uint256) public numApprovals */\n    tag_23:\n      tag_121\n      0x04\n      dup1\n      calldatasize\n      sub\n      dup2\n      add\n      swap1\n      tag_122\n      swap2\n      swap1\n      tag_31\n      jump\t// in\n    tag_122:\n      tag_123\n      jump\t// in\n    tag_121:\n      mload(0x40)\n      tag_124\n      swap2\n      swap1\n      tag_34\n      jump\t// in\n    tag_124:\n      mload(0x40)\n      dup1\n      swap2\n      sub\n      swap1\n      return\n        /* \"contracts/BusinessConsensus4.sol\":462:499  mapping(bytes32 =>bytes32) public IDs */\n    tag_24:\n      tag_125\n      0x04\n      dup1\n      calldatasize\n      sub\n      dup2\n      add\n      swap1\n      tag_126\n      swap2\n      swap1\n      tag_31\n      jump\t// in\n    tag_126:\n      tag_127\n      jump\t// in\n    tag_125:\n      mload(0x40)\n      tag_128\n      swap2\n      swap1\n      tag_98\n      jump\t// in\n    tag_128:\n      mload(0x40)\n      dup1\n      swap2\n      sub\n      swap1\n      return\n        /* \"contracts/BusinessConsensus4.sol\":666:709  mapping(bytes32 => bytes32) public contents */\n    tag_25:\n      tag_129\n      0x04\n      dup1\n      calldatasize\n      sub\n      dup2\n      add\n      swap1\n      tag_130\n      swap2\n      swap1\n      tag_31\n      jump\t// in\n    tag_130:\n      tag_131\n      jump\t// in\n    tag_129:\n      mload(0x40)\n      tag_132\n      swap2\n      swap1\n      tag_98\n      jump\t// in\n    tag_132:\n      mload(0x40)\n      dup1\n      swap2\n      sub\n      swap1\n      return\n        /* \"contracts/BusinessConsensus4.sol\":558:606  mapping(bytes32 => uint256) public expiryLengths */\n    tag_32:\n      mstore(0x20, 0x03)\n      dup1\n      0x00\n      mstore\n      keccak256(0x00, 0x40)\n      0x00\n      swap2\n      pop\n      swap1\n      pop\n      sload\n      dup2\n      jump\t// out\n        /* \"contracts/BusinessConsensus4.sol\":6399:6826  function retrieve_bundle(bytes32 _messageID) external view returns (bool, bytes32, uint256, Voter[] memory){\r... */\n    tag_37:\n        /* \"contracts/BusinessConsensus4.sol\":6467:6471  bool */\n      0x00\n        /* \"contracts/BusinessConsensus4.sol\":6473:6480  bytes32 */\n      dup1\n        /* \"contracts/BusinessConsensus4.sol\":6482:6489  uint256 */\n      0x00\n        /* \"contracts/BusinessConsensus4.sol\":6491:6505  Voter[] memory */\n      0x60\n        /* \"contracts/BusinessConsensus4.sol\":6544:6555  expiryDates */\n      0x04\n        /* \"contracts/BusinessConsensus4.sol\":6544:6567  expiryDates[_messageID] */\n      0x00\n        /* \"contracts/BusinessConsensus4.sol\":6556:6566  _messageID */\n      dup7\n        /* \"contracts/BusinessConsensus4.sol\":6544:6567  expiryDates[_messageID] */\n      dup2\n      mstore\n      0x20\n      add\n      swap1\n      dup2\n      mstore\n      0x20\n      add\n      0x00\n      keccak256\n      sload\n        /* \"contracts/BusinessConsensus4.sol\":6525:6540  block.timestamp */\n      timestamp\n        /* \"contracts/BusinessConsensus4.sol\":6525:6567  block.timestamp >= expiryDates[_messageID] */\n      lt\n      iszero\n        /* \"contracts/BusinessConsensus4.sol\":6517:6604  require(block.timestamp >= expiryDates[_messageID], \"Verdict has not been reached yet\") */\n      tag_134\n      jumpi\n      mload(0x40)\n      0x08c379a000000000000000000000000000000000000000000000000000000000\n      dup2\n      mstore\n      0x04\n      add\n      tag_135\n      swap1\n      tag_136\n      jump\t// in\n    tag_135:\n      mload(0x40)\n      dup1\n      swap2\n      sub\n      swap1\n      revert\n    tag_134:\n        /* \"contracts/BusinessConsensus4.sol\":6615:6636  Voter[] memory voters */\n      0x00\n        /* \"contracts/BusinessConsensus4.sol\":6639:6645  Voters */\n      0x0d\n        /* \"contracts/BusinessConsensus4.sol\":6639:6657  Voters[_messageID] */\n      0x00\n        /* \"contracts/BusinessConsensus4.sol\":6646:6656  _messageID */\n      dup8\n        /* \"contracts/BusinessConsensus4.sol\":6639:6657  Voters[_messageID] */\n      dup2\n      mstore\n      0x20\n      add\n      swap1\n      dup2\n      mstore\n      0x20\n      add\n      0x00\n      keccak256\n        /* \"contracts/BusinessConsensus4.sol\":6615:6657  Voter[] memory voters = Voters[_messageID] */\n      dup1\n      sload\n      dup1\n      0x20\n      mul\n      0x20\n      add\n      mload(0x40)\n      swap1\n      dup2\n      add\n      0x40\n      mstore\n      dup1\n      swap3\n      swap2\n      swap1\n      dup2\n      dup2\n      mstore\n      0x20\n      add\n      0x00\n      swap1\n    tag_137:\n      dup3\n      dup3\n      lt\n      iszero\n      tag_138\n      jumpi\n      dup4\n      dup3\n      swap1\n      0x00\n      mstore\n      keccak256(0x00, 0x20)\n      add\n      mload(0x40)\n      dup1\n      0x60\n      add\n      0x40\n      mstore\n      swap1\n      dup2\n      0x00\n      dup3\n      add\n      0x00\n      swap1\n      sload\n      swap1\n      0x0100\n      exp\n      swap1\n      div\n      0xff\n      and\n      iszero\n      iszero\n      iszero\n      iszero\n      dup2\n      mstore\n      0x20\n      add\n      0x00\n      dup3\n      add\n      0x01\n      swap1\n      sload\n      swap1\n      0x0100\n      exp\n      swap1\n      div\n      0xff\n      and\n      iszero\n      iszero\n      iszero\n      iszero\n      dup2\n      mstore\n      0x20\n      add\n      0x00\n      dup3\n      add\n      0x02\n      swap1\n      sload\n      swap1\n      0x0100\n      exp\n      swap1\n      div\n      0xffffffffffffffffffffffffffffffffffffffff\n      and\n      0xffffffffffffffffffffffffffffffffffffffff\n      and\n      0xffffffffffffffffffffffffffffffffffffffff\n      and\n      dup2\n      mstore\n      pop\n      pop\n      dup2\n      mstore\n      0x20\n      add\n      swap1\n      0x01\n      add\n      swap1\n      jump(tag_137)\n    tag_138:\n      pop\n      pop\n      pop\n      pop\n      swap1\n      pop\n        /* \"contracts/BusinessConsensus4.sol\":6668:6680  bool verdict */\n      0x00\n        /* \"contracts/BusinessConsensus4.sol\":6683:6696  finalVerdicts */\n      0x09\n        /* \"contracts/BusinessConsensus4.sol\":6683:6708  finalVerdicts[_messageID] */\n      0x00\n        /* \"contracts/BusinessConsensus4.sol\":6697:6707  _messageID */\n      dup9\n        /* \"contracts/BusinessConsensus4.sol\":6683:6708  finalVerdicts[_messageID] */\n      dup2\n      mstore\n      0x20\n      add\n      swap1\n      dup2\n      mstore\n      0x20\n      add\n      0x00\n      keccak256\n      0x00\n      swap1\n      sload\n      swap1\n      0x0100\n      exp\n      swap1\n      div\n      0xff\n      and\n        /* \"contracts/BusinessConsensus4.sol\":6668:6708  bool verdict = finalVerdicts[_messageID] */\n      swap1\n      pop\n        /* \"contracts/BusinessConsensus4.sol\":6719:6732  uint256 count */\n      0x00\n        /* \"contracts/BusinessConsensus4.sol\":6735:6745  voteCounts */\n      0x02\n        /* \"contracts/BusinessConsensus4.sol\":6735:6757  voteCounts[_messageID] */\n      0x00\n        /* \"contracts/BusinessConsensus4.sol\":6746:6756  _messageID */\n      dup10\n        /* \"contracts/BusinessConsensus4.sol\":6735:6757  voteCounts[_messageID] */\n      dup2\n      mstore\n      0x20\n      add\n      swap1\n      dup2\n      mstore\n      0x20\n      add\n      0x00\n      keccak256\n      sload\n        /* \"contracts/BusinessConsensus4.sol\":6719:6757  uint256 count = voteCounts[_messageID] */\n      swap1\n      pop\n        /* \"contracts/BusinessConsensus4.sol\":6776:6783  verdict */\n      dup2\n        /* \"contracts/BusinessConsensus4.sol\":6784:6794  _messageID */\n      dup9\n        /* \"contracts/BusinessConsensus4.sol\":6795:6800  count */\n      dup3\n        /* \"contracts/BusinessConsensus4.sol\":6801:6807  voters */\n      dup6\n        /* \"contracts/BusinessConsensus4.sol\":6768:6808  return (verdict,_messageID,count,voters) */\n      swap7\n      pop\n      swap7\n      pop\n      swap7\n      pop\n      swap7\n      pop\n      pop\n      pop\n      pop\n        /* \"contracts/BusinessConsensus4.sol\":6399:6826  function retrieve_bundle(bytes32 _messageID) external view returns (bool, bytes32, uint256, Voter[] memory){\r... */\n      swap2\n      swap4\n      pop\n      swap2\n      swap4\n      jump\t// out\n        /* \"contracts/BusinessConsensus4.sol\":2530:3098  function checkConsistency(bytes32 _keyID, uint256 _businessRequirement, uint256 _expiryLength, bytes32 _contents) public view returns(bool, bool, bool){\r... */\n    tag_43:\n        /* \"contracts/BusinessConsensus4.sol\":2664:2668  bool */\n      0x00\n        /* \"contracts/BusinessConsensus4.sol\":2670:2674  bool */\n      dup1\n        /* \"contracts/BusinessConsensus4.sol\":2676:2680  bool */\n      0x00\n        /* \"contracts/BusinessConsensus4.sol\":2692:2703  bool value1 */\n      dup1\n        /* \"contracts/BusinessConsensus4.sol\":2706:2710  true */\n      0x01\n        /* \"contracts/BusinessConsensus4.sol\":2692:2710  bool value1 = true */\n      swap1\n      pop\n        /* \"contracts/BusinessConsensus4.sol\":2721:2732  bool value2 */\n      0x00\n        /* \"contracts/BusinessConsensus4.sol\":2735:2739  true */\n      0x01\n        /* \"contracts/BusinessConsensus4.sol\":2721:2739  bool value2 = true */\n      swap1\n      pop\n        /* \"contracts/BusinessConsensus4.sol\":2750:2761  bool value3 */\n      0x00\n        /* \"contracts/BusinessConsensus4.sol\":2764:2768  true */\n      0x01\n        /* \"contracts/BusinessConsensus4.sol\":2750:2768  bool value3 = true */\n      swap1\n      pop\n        /* \"contracts/BusinessConsensus4.sol\":2806:2826  businessRequirements */\n      0x07\n        /* \"contracts/BusinessConsensus4.sol\":2806:2834  businessRequirements[_keyID] */\n      0x00\n        /* \"contracts/BusinessConsensus4.sol\":2827:2833  _keyID */\n      dup12\n        /* \"contracts/BusinessConsensus4.sol\":2806:2834  businessRequirements[_keyID] */\n      dup2\n      mstore\n      0x20\n      add\n      swap1\n      dup2\n      mstore\n      0x20\n      add\n      0x00\n      keccak256\n      sload\n        /* \"contracts/BusinessConsensus4.sol\":2782:2802  _businessRequirement */\n      dup10\n        /* \"contracts/BusinessConsensus4.sol\":2782:2834  _businessRequirement != businessRequirements[_keyID] */\n      eq\n        /* \"contracts/BusinessConsensus4.sol\":2779:2876  if(_businessRequirement != businessRequirements[_keyID]){\r... */\n      tag_141\n      jumpi\n        /* \"contracts/BusinessConsensus4.sol\":2859:2864  false */\n      0x00\n        /* \"contracts/BusinessConsensus4.sol\":2850:2864  value1 = false */\n      swap3\n      pop\n        /* \"contracts/BusinessConsensus4.sol\":2779:2876  if(_businessRequirement != businessRequirements[_keyID]){\r... */\n    tag_141:\n        /* \"contracts/BusinessConsensus4.sol\":2902:2910  contents */\n      0x05\n        /* \"contracts/BusinessConsensus4.sol\":2902:2918  contents[_keyID] */\n      0x00\n        /* \"contracts/BusinessConsensus4.sol\":2911:2917  _keyID */\n      dup12\n        /* \"contracts/BusinessConsensus4.sol\":2902:2918  contents[_keyID] */\n      dup2\n      mstore\n      0x20\n      add\n      swap1\n      dup2\n      mstore\n      0x20\n      add\n      0x00\n      keccak256\n      sload\n        /* \"contracts/BusinessConsensus4.sol\":2889:2898  _contents */\n      dup8\n        /* \"contracts/BusinessConsensus4.sol\":2889:2918  _contents != contents[_keyID] */\n      eq\n        /* \"contracts/BusinessConsensus4.sol\":2886:2960  if(_contents != contents[_keyID]){\r... */\n      tag_142\n      jumpi\n        /* \"contracts/BusinessConsensus4.sol\":2943:2948  false */\n      0x00\n        /* \"contracts/BusinessConsensus4.sol\":2934:2948  value2 = false */\n      swap2\n      pop\n        /* \"contracts/BusinessConsensus4.sol\":2886:2960  if(_contents != contents[_keyID]){\r... */\n    tag_142:\n        /* \"contracts/BusinessConsensus4.sol\":2998:3011  _expiryLength */\n      dup8\n        /* \"contracts/BusinessConsensus4.sol\":2973:2986  expiryLengths */\n      0x03\n        /* \"contracts/BusinessConsensus4.sol\":2973:2994  expiryLengths[_keyID] */\n      0x00\n        /* \"contracts/BusinessConsensus4.sol\":2987:2993  _keyID */\n      dup13\n        /* \"contracts/BusinessConsensus4.sol\":2973:2994  expiryLengths[_keyID] */\n      dup2\n      mstore\n      0x20\n      add\n      swap1\n      dup2\n      mstore\n      0x20\n      add\n      0x00\n      keccak256\n      sload\n        /* \"contracts/BusinessConsensus4.sol\":2973:3011  expiryLengths[_keyID] != _expiryLength */\n      eq\n        /* \"contracts/BusinessConsensus4.sol\":2970:3053  if(expiryLengths[_keyID] != _expiryLength){\r... */\n      tag_143\n      jumpi\n        /* \"contracts/BusinessConsensus4.sol\":3036:3041  false */\n      0x00\n        /* \"contracts/BusinessConsensus4.sol\":3027:3041  value3 = false */\n      swap1\n      pop\n        /* \"contracts/BusinessConsensus4.sol\":2970:3053  if(expiryLengths[_keyID] != _expiryLength){\r... */\n    tag_143:\n        /* \"contracts/BusinessConsensus4.sol\":3067:3073  value1 */\n      dup3\n        /* \"contracts/BusinessConsensus4.sol\":3074:3080  value2 */\n      dup3\n        /* \"contracts/BusinessConsensus4.sol\":3081:3087  value3 */\n      dup3\n        /* \"contracts/BusinessConsensus4.sol\":3059:3088  return (value1,value2,value3) */\n      swap6\n      pop\n      swap6\n      pop\n      swap6\n      pop\n      pop\n      pop\n      pop\n        /* \"contracts/BusinessConsensus4.sol\":2530:3098  function checkConsistency(bytes32 _keyID, uint256 _businessRequirement, uint256 _expiryLength, bytes32 _contents) public view returns(bool, bool, bool){\r... */\n      swap5\n      pop\n      swap5\n      pop\n      swap5\n      swap2\n      pop\n      pop\n      jump\t// out\n        /* \"contracts/BusinessConsensus4.sol\":885:930  mapping(bytes32 => bool) public finalVerdicts */\n    tag_48:\n      mstore(0x20, 0x09)\n      dup1\n      0x00\n      mstore\n      keccak256(0x00, 0x40)\n      0x00\n      swap2\n      pop\n      sload\n      swap1\n      0x0100\n      exp\n      swap1\n      div\n      0xff\n      and\n      dup2\n      jump\t// out\n        /* \"contracts/BusinessConsensus4.sol\":1102:1141  mapping(bytes32=>Voter[]) public Voters */\n    tag_54:\n      mstore(0x20, 0x0d)\n      dup2\n      0x00\n      mstore\n      keccak256(0x00, 0x40)\n      dup2\n      dup2\n      sload\n      dup2\n      lt\n      tag_144\n      jumpi\n      0x00\n      dup1\n      revert\n    tag_144:\n      swap1\n      0x00\n      mstore\n      keccak256(0x00, 0x20)\n      add\n      0x00\n      swap2\n      pop\n      swap2\n      pop\n      pop\n      dup1\n      0x00\n      add\n      0x00\n      swap1\n      sload\n      swap1\n      0x0100\n      exp\n      swap1\n      div\n      0xff\n      and\n      swap1\n      dup1\n      0x00\n      add\n      0x01\n      swap1\n      sload\n      swap1\n      0x0100\n      exp\n      swap1\n      div\n      0xff\n      and\n      swap1\n      dup1\n      0x00\n      add\n      0x02\n      swap1\n      sload\n      swap1\n      0x0100\n      exp\n      swap1\n      div\n      0xffffffffffffffffffffffffffffffffffffffff\n      and\n      swap1\n      pop\n      dup4\n      jump\t// out\n        /* \"contracts/BusinessConsensus4.sol\":2407:2524  function getIsCompiled(bytes32 _messageID) public view returns (bool){\r... */\n    tag_59:\n        /* \"contracts/BusinessConsensus4.sol\":2471:2475  bool */\n      0x00\n        /* \"contracts/BusinessConsensus4.sol\":2494:2504  isCompiled */\n      0x0a\n        /* \"contracts/BusinessConsensus4.sol\":2494:2516  isCompiled[_messageID] */\n      0x00\n        /* \"contracts/BusinessConsensus4.sol\":2505:2515  _messageID */\n      dup4\n        /* \"contracts/BusinessConsensus4.sol\":2494:2516  isCompiled[_messageID] */\n      dup2\n      mstore\n      0x20\n      add\n      swap1\n      dup2\n      mstore\n      0x20\n      add\n      0x00\n      keccak256\n      0x00\n      swap1\n      sload\n      swap1\n      0x0100\n      exp\n      swap1\n      div\n      0xff\n      and\n        /* \"contracts/BusinessConsensus4.sol\":2487:2516  return isCompiled[_messageID] */\n      swap1\n      pop\n        /* \"contracts/BusinessConsensus4.sol\":2407:2524  function getIsCompiled(bytes32 _messageID) public view returns (bool){\r... */\n      swap2\n      swap1\n      pop\n      jump\t// out\n        /* \"contracts/BusinessConsensus4.sol\":613:659  mapping(bytes32 => uint256) public expiryDates */\n    tag_63:\n      mstore(0x20, 0x04)\n      dup1\n      0x00\n      mstore\n      keccak256(0x00, 0x40)\n      0x00\n      swap2\n      pop\n      swap1\n      pop\n      sload\n      dup2\n      jump\t// out\n        /* \"contracts/BusinessConsensus4.sol\":770:825  mapping(bytes32 => uint256) public businessRequirements */\n    tag_67:\n      mstore(0x20, 0x07)\n      dup1\n      0x00\n      mstore\n      keccak256(0x00, 0x40)\n      0x00\n      swap2\n      pop\n      swap1\n      pop\n      sload\n      dup2\n      jump\t// out\n        /* \"contracts/BusinessConsensus4.sol\":5458:6391  function Consensus(bytes32 _messageID) external {\r... */\n    tag_71:\n        /* \"contracts/BusinessConsensus4.sol\":5544:5555  expiryDates */\n      0x04\n        /* \"contracts/BusinessConsensus4.sol\":5544:5567  expiryDates[_messageID] */\n      0x00\n        /* \"contracts/BusinessConsensus4.sol\":5556:5566  _messageID */\n      dup3\n        /* \"contracts/BusinessConsensus4.sol\":5544:5567  expiryDates[_messageID] */\n      dup2\n      mstore\n      0x20\n      add\n      swap1\n      dup2\n      mstore\n      0x20\n      add\n      0x00\n      keccak256\n      sload\n        /* \"contracts/BusinessConsensus4.sol\":5525:5540  block.timestamp */\n      timestamp\n        /* \"contracts/BusinessConsensus4.sol\":5525:5567  block.timestamp >= expiryDates[_messageID] */\n      lt\n      iszero\n        /* \"contracts/BusinessConsensus4.sol\":5517:5604  require(block.timestamp >= expiryDates[_messageID], \"Verdict has not been reached yet\") */\n      tag_148\n      jumpi\n      mload(0x40)\n      0x08c379a000000000000000000000000000000000000000000000000000000000\n      dup2\n      mstore\n      0x04\n      add\n      tag_149\n      swap1\n      tag_136\n      jump\t// in\n    tag_149:\n      mload(0x40)\n      dup1\n      swap2\n      sub\n      swap1\n      revert\n    tag_148:\n        /* \"contracts/BusinessConsensus4.sol\":5649:5654  false */\n      0x00\n        /* \"contracts/BusinessConsensus4.sol\":5623:5654  isCompiled[_messageID] == false */\n      iszero\n      iszero\n        /* \"contracts/BusinessConsensus4.sol\":5623:5633  isCompiled */\n      0x0a\n        /* \"contracts/BusinessConsensus4.sol\":5623:5645  isCompiled[_messageID] */\n      0x00\n        /* \"contracts/BusinessConsensus4.sol\":5634:5644  _messageID */\n      dup4\n        /* \"contracts/BusinessConsensus4.sol\":5623:5645  isCompiled[_messageID] */\n      dup2\n      mstore\n      0x20\n      add\n      swap1\n      dup2\n      mstore\n      0x20\n      add\n      0x00\n      keccak256\n      0x00\n      swap1\n      sload\n      swap1\n      0x0100\n      exp\n      swap1\n      div\n      0xff\n      and\n        /* \"contracts/BusinessConsensus4.sol\":5623:5654  isCompiled[_messageID] == false */\n      iszero\n      iszero\n      eq\n        /* \"contracts/BusinessConsensus4.sol\":5615:5696  require(isCompiled[_messageID] == false, \"Consensus has already been calculated\") */\n      tag_150\n      jumpi\n      mload(0x40)\n      0x08c379a000000000000000000000000000000000000000000000000000000000\n      dup2\n      mstore\n      0x04\n      add\n      tag_151\n      swap1\n      tag_152\n      jump\t// in\n    tag_151:\n      mload(0x40)\n      dup1\n      swap2\n      sub\n      swap1\n      revert\n    tag_150:\n        /* \"contracts/BusinessConsensus4.sol\":5729:5739  initiators */\n      0x00\n        /* \"contracts/BusinessConsensus4.sol\":5729:5751  initiators[_messageID] */\n      dup1\n        /* \"contracts/BusinessConsensus4.sol\":5740:5750  _messageID */\n      dup3\n        /* \"contracts/BusinessConsensus4.sol\":5729:5751  initiators[_messageID] */\n      dup2\n      mstore\n      0x20\n      add\n      swap1\n      dup2\n      mstore\n      0x20\n      add\n      0x00\n      keccak256\n      0x00\n      swap1\n      sload\n      swap1\n      0x0100\n      exp\n      swap1\n      div\n      0xffffffffffffffffffffffffffffffffffffffff\n      and\n        /* \"contracts/BusinessConsensus4.sol\":5715:5751  msg.sender == initiators[_messageID] */\n      0xffffffffffffffffffffffffffffffffffffffff\n      and\n        /* \"contracts/BusinessConsensus4.sol\":5715:5725  msg.sender */\n      caller\n        /* \"contracts/BusinessConsensus4.sol\":5715:5751  msg.sender == initiators[_messageID] */\n      0xffffffffffffffffffffffffffffffffffffffff\n      and\n      eq\n        /* \"contracts/BusinessConsensus4.sol\":5715:5815  msg.sender == initiators[_messageID] || voter_maps[_messageID][msg.sender].recipient != address(0x0) */\n      dup1\n      tag_153\n      jumpi\n      pop\n        /* \"contracts/BusinessConsensus4.sol\":5811:5814  0x0 */\n      0x00\n        /* \"contracts/BusinessConsensus4.sol\":5755:5815  voter_maps[_messageID][msg.sender].recipient != address(0x0) */\n      0xffffffffffffffffffffffffffffffffffffffff\n      and\n        /* \"contracts/BusinessConsensus4.sol\":5755:5765  voter_maps */\n      0x0c\n        /* \"contracts/BusinessConsensus4.sol\":5755:5777  voter_maps[_messageID] */\n      0x00\n        /* \"contracts/BusinessConsensus4.sol\":5766:5776  _messageID */\n      dup4\n        /* \"contracts/BusinessConsensus4.sol\":5755:5777  voter_maps[_messageID] */\n      dup2\n      mstore\n      0x20\n      add\n      swap1\n      dup2\n      mstore\n      0x20\n      add\n      0x00\n      keccak256\n        /* \"contracts/BusinessConsensus4.sol\":5755:5789  voter_maps[_messageID][msg.sender] */\n      0x00\n        /* \"contracts/BusinessConsensus4.sol\":5778:5788  msg.sender */\n      caller\n        /* \"contracts/BusinessConsensus4.sol\":5755:5789  voter_maps[_messageID][msg.sender] */\n      0xffffffffffffffffffffffffffffffffffffffff\n      and\n      0xffffffffffffffffffffffffffffffffffffffff\n      and\n      dup2\n      mstore\n      0x20\n      add\n      swap1\n      dup2\n      mstore\n      0x20\n      add\n      0x00\n      keccak256\n        /* \"contracts/BusinessConsensus4.sol\":5755:5799  voter_maps[_messageID][msg.sender].recipient */\n      0x00\n      add\n      0x02\n      swap1\n      sload\n      swap1\n      0x0100\n      exp\n      swap1\n      div\n      0xffffffffffffffffffffffffffffffffffffffff\n      and\n        /* \"contracts/BusinessConsensus4.sol\":5755:5815  voter_maps[_messageID][msg.sender].recipient != address(0x0) */\n      0xffffffffffffffffffffffffffffffffffffffff\n      and\n      eq\n      iszero\n        /* \"contracts/BusinessConsensus4.sol\":5715:5815  msg.sender == initiators[_messageID] || voter_maps[_messageID][msg.sender].recipient != address(0x0) */\n    tag_153:\n        /* \"contracts/BusinessConsensus4.sol\":5707:5868  require(msg.sender == initiators[_messageID] || voter_maps[_messageID][msg.sender].recipient != address(0x0),\r... */\n      tag_154\n      jumpi\n      mload(0x40)\n      0x08c379a000000000000000000000000000000000000000000000000000000000\n      dup2\n      mstore\n      0x04\n      add\n      tag_155\n      swap1\n      tag_156\n      jump\t// in\n    tag_155:\n      mload(0x40)\n      dup1\n      swap2\n      sub\n      swap1\n      revert\n    tag_154:\n        /* \"contracts/BusinessConsensus4.sol\":5879:5908  uint256 AccumulatedPercentage */\n      0x00\n        /* \"contracts/BusinessConsensus4.sol\":5962:5965  100 */\n      0x64\n        /* \"contracts/BusinessConsensus4.sol\":5937:5941  keys */\n      0x0e\n        /* \"contracts/BusinessConsensus4.sol\":5937:5953  keys[_messageID] */\n      0x00\n        /* \"contracts/BusinessConsensus4.sol\":5942:5952  _messageID */\n      dup5\n        /* \"contracts/BusinessConsensus4.sol\":5937:5953  keys[_messageID] */\n      dup2\n      mstore\n      0x20\n      add\n      swap1\n      dup2\n      mstore\n      0x20\n      add\n      0x00\n      keccak256\n        /* \"contracts/BusinessConsensus4.sol\":5937:5960  keys[_messageID].length */\n      dup1\n      sload\n      swap1\n      pop\n        /* \"contracts/BusinessConsensus4.sol\":5912:5924  numApprovals */\n      0x06\n        /* \"contracts/BusinessConsensus4.sol\":5912:5936  numApprovals[_messageID] */\n      0x00\n        /* \"contracts/BusinessConsensus4.sol\":5925:5935  _messageID */\n      dup6\n        /* \"contracts/BusinessConsensus4.sol\":5912:5936  numApprovals[_messageID] */\n      dup2\n      mstore\n      0x20\n      add\n      swap1\n      dup2\n      mstore\n      0x20\n      add\n      0x00\n      keccak256\n      sload\n        /* \"contracts/BusinessConsensus4.sol\":5912:5960  numApprovals[_messageID]/keys[_messageID].length */\n      tag_157\n      swap2\n      swap1\n      tag_158\n      jump\t// in\n    tag_157:\n        /* \"contracts/BusinessConsensus4.sol\":5911:5965  (numApprovals[_messageID]/keys[_messageID].length)*100 */\n      tag_159\n      swap2\n      swap1\n      tag_160\n      jump\t// in\n    tag_159:\n        /* \"contracts/BusinessConsensus4.sol\":5879:5965  uint256 AccumulatedPercentage = (numApprovals[_messageID]/keys[_messageID].length)*100 */\n      swap1\n      pop\n        /* \"contracts/BusinessConsensus4.sol\":6004:6024  businessRequirements */\n      0x07\n        /* \"contracts/BusinessConsensus4.sol\":6004:6036  businessRequirements[_messageID] */\n      0x00\n        /* \"contracts/BusinessConsensus4.sol\":6025:6035  _messageID */\n      dup4\n        /* \"contracts/BusinessConsensus4.sol\":6004:6036  businessRequirements[_messageID] */\n      dup2\n      mstore\n      0x20\n      add\n      swap1\n      dup2\n      mstore\n      0x20\n      add\n      0x00\n      keccak256\n      sload\n        /* \"contracts/BusinessConsensus4.sol\":5979:6000  AccumulatedPercentage */\n      dup2\n        /* \"contracts/BusinessConsensus4.sol\":5979:6036  AccumulatedPercentage >= businessRequirements[_messageID] */\n      lt\n        /* \"contracts/BusinessConsensus4.sol\":5976:6096  if(AccumulatedPercentage >= businessRequirements[_messageID]){\r... */\n      tag_161\n      jumpi\n        /* \"contracts/BusinessConsensus4.sol\":6080:6084  true */\n      0x01\n        /* \"contracts/BusinessConsensus4.sol\":6052:6065  finalVerdicts */\n      0x09\n        /* \"contracts/BusinessConsensus4.sol\":6052:6077  finalVerdicts[_messageID] */\n      0x00\n        /* \"contracts/BusinessConsensus4.sol\":6066:6076  _messageID */\n      dup5\n        /* \"contracts/BusinessConsensus4.sol\":6052:6077  finalVerdicts[_messageID] */\n      dup2\n      mstore\n      0x20\n      add\n      swap1\n      dup2\n      mstore\n      0x20\n      add\n      0x00\n      keccak256\n      0x00\n        /* \"contracts/BusinessConsensus4.sol\":6052:6084  finalVerdicts[_messageID] = true */\n      0x0100\n      exp\n      dup2\n      sload\n      dup2\n      0xff\n      mul\n      not\n      and\n      swap1\n      dup4\n      iszero\n      iszero\n      mul\n      or\n      swap1\n      sstore\n      pop\n        /* \"contracts/BusinessConsensus4.sol\":5976:6096  if(AccumulatedPercentage >= businessRequirements[_messageID]){\r... */\n    tag_161:\n        /* \"contracts/BusinessConsensus4.sol\":6110:6117  uint8 i */\n      0x00\n        /* \"contracts/BusinessConsensus4.sol\":6106:6344  for(uint8 i=0; i< keys[_messageID].length; i++){\r... */\n    tag_162:\n        /* \"contracts/BusinessConsensus4.sol\":6124:6128  keys */\n      0x0e\n        /* \"contracts/BusinessConsensus4.sol\":6124:6140  keys[_messageID] */\n      0x00\n        /* \"contracts/BusinessConsensus4.sol\":6129:6139  _messageID */\n      dup5\n        /* \"contracts/BusinessConsensus4.sol\":6124:6140  keys[_messageID] */\n      dup2\n      mstore\n      0x20\n      add\n      swap1\n      dup2\n      mstore\n      0x20\n      add\n      0x00\n      keccak256\n        /* \"contracts/BusinessConsensus4.sol\":6124:6147  keys[_messageID].length */\n      dup1\n      sload\n      swap1\n      pop\n        /* \"contracts/BusinessConsensus4.sol\":6121:6122  i */\n      dup2\n        /* \"contracts/BusinessConsensus4.sol\":6121:6147  i< keys[_messageID].length */\n      0xff\n      and\n      lt\n        /* \"contracts/BusinessConsensus4.sol\":6106:6344  for(uint8 i=0; i< keys[_messageID].length; i++){\r... */\n      iszero\n      tag_163\n      jumpi\n        /* \"contracts/BusinessConsensus4.sol\":6224:6229  false */\n      0x00\n        /* \"contracts/BusinessConsensus4.sol\":6171:6229  voter_maps[_messageID][keys[_messageID][i]].voted == false */\n      iszero\n      iszero\n        /* \"contracts/BusinessConsensus4.sol\":6171:6181  voter_maps */\n      0x0c\n        /* \"contracts/BusinessConsensus4.sol\":6171:6193  voter_maps[_messageID] */\n      0x00\n        /* \"contracts/BusinessConsensus4.sol\":6182:6192  _messageID */\n      dup6\n        /* \"contracts/BusinessConsensus4.sol\":6171:6193  voter_maps[_messageID] */\n      dup2\n      mstore\n      0x20\n      add\n      swap1\n      dup2\n      mstore\n      0x20\n      add\n      0x00\n      keccak256\n        /* \"contracts/BusinessConsensus4.sol\":6171:6214  voter_maps[_messageID][keys[_messageID][i]] */\n      0x00\n        /* \"contracts/BusinessConsensus4.sol\":6194:6198  keys */\n      0x0e\n        /* \"contracts/BusinessConsensus4.sol\":6194:6210  keys[_messageID] */\n      0x00\n        /* \"contracts/BusinessConsensus4.sol\":6199:6209  _messageID */\n      dup8\n        /* \"contracts/BusinessConsensus4.sol\":6194:6210  keys[_messageID] */\n      dup2\n      mstore\n      0x20\n      add\n      swap1\n      dup2\n      mstore\n      0x20\n      add\n      0x00\n      keccak256\n        /* \"contracts/BusinessConsensus4.sol\":6211:6212  i */\n      dup5\n        /* \"contracts/BusinessConsensus4.sol\":6194:6213  keys[_messageID][i] */\n      0xff\n      and\n      dup2\n      sload\n      dup2\n      lt\n      tag_165\n      jumpi\n      tag_166\n      tag_167\n      jump\t// in\n    tag_166:\n    tag_165:\n      swap1\n      0x00\n      mstore\n      keccak256(0x00, 0x20)\n      add\n      0x00\n      swap1\n      sload\n      swap1\n      0x0100\n      exp\n      swap1\n      div\n      0xffffffffffffffffffffffffffffffffffffffff\n      and\n        /* \"contracts/BusinessConsensus4.sol\":6171:6214  voter_maps[_messageID][keys[_messageID][i]] */\n      0xffffffffffffffffffffffffffffffffffffffff\n      and\n      0xffffffffffffffffffffffffffffffffffffffff\n      and\n      dup2\n      mstore\n      0x20\n      add\n      swap1\n      dup2\n      mstore\n      0x20\n      add\n      0x00\n      keccak256\n        /* \"contracts/BusinessConsensus4.sol\":6171:6220  voter_maps[_messageID][keys[_messageID][i]].voted */\n      0x00\n      add\n      0x00\n      swap1\n      sload\n      swap1\n      0x0100\n      exp\n      swap1\n      div\n      0xff\n      and\n        /* \"contracts/BusinessConsensus4.sol\":6171:6229  voter_maps[_messageID][keys[_messageID][i]].voted == false */\n      iszero\n      iszero\n      eq\n        /* \"contracts/BusinessConsensus4.sol\":6168:6333  if(voter_maps[_messageID][keys[_messageID][i]].voted == false){\r... */\n      iszero\n      tag_169\n      jumpi\n        /* \"contracts/BusinessConsensus4.sol\":6249:6255  Voters */\n      0x0d\n        /* \"contracts/BusinessConsensus4.sol\":6249:6267  Voters[_messageID] */\n      0x00\n        /* \"contracts/BusinessConsensus4.sol\":6256:6266  _messageID */\n      dup5\n        /* \"contracts/BusinessConsensus4.sol\":6249:6267  Voters[_messageID] */\n      dup2\n      mstore\n      0x20\n      add\n      swap1\n      dup2\n      mstore\n      0x20\n      add\n      0x00\n      keccak256\n        /* \"contracts/BusinessConsensus4.sol\":6273:6283  voter_maps */\n      0x0c\n        /* \"contracts/BusinessConsensus4.sol\":6273:6295  voter_maps[_messageID] */\n      0x00\n        /* \"contracts/BusinessConsensus4.sol\":6284:6294  _messageID */\n      dup6\n        /* \"contracts/BusinessConsensus4.sol\":6273:6295  voter_maps[_messageID] */\n      dup2\n      mstore\n      0x20\n      add\n      swap1\n      dup2\n      mstore\n      0x20\n      add\n      0x00\n      keccak256\n        /* \"contracts/BusinessConsensus4.sol\":6273:6316  voter_maps[_messageID][keys[_messageID][i]] */\n      0x00\n        /* \"contracts/BusinessConsensus4.sol\":6296:6300  keys */\n      0x0e\n        /* \"contracts/BusinessConsensus4.sol\":6296:6312  keys[_messageID] */\n      0x00\n        /* \"contracts/BusinessConsensus4.sol\":6301:6311  _messageID */\n      dup8\n        /* \"contracts/BusinessConsensus4.sol\":6296:6312  keys[_messageID] */\n      dup2\n      mstore\n      0x20\n      add\n      swap1\n      dup2\n      mstore\n      0x20\n      add\n      0x00\n      keccak256\n        /* \"contracts/BusinessConsensus4.sol\":6313:6314  i */\n      dup5\n        /* \"contracts/BusinessConsensus4.sol\":6296:6315  keys[_messageID][i] */\n      0xff\n      and\n      dup2\n      sload\n      dup2\n      lt\n      tag_170\n      jumpi\n      tag_171\n      tag_167\n      jump\t// in\n    tag_171:\n    tag_170:\n      swap1\n      0x00\n      mstore\n      keccak256(0x00, 0x20)\n      add\n      0x00\n      swap1\n      sload\n      swap1\n      0x0100\n      exp\n      swap1\n      div\n      0xffffffffffffffffffffffffffffffffffffffff\n      and\n        /* \"contracts/BusinessConsensus4.sol\":6273:6316  voter_maps[_messageID][keys[_messageID][i]] */\n      0xffffffffffffffffffffffffffffffffffffffff\n      and\n      0xffffffffffffffffffffffffffffffffffffffff\n      and\n      dup2\n      mstore\n      0x20\n      add\n      swap1\n      dup2\n      mstore\n      0x20\n      add\n      0x00\n      keccak256\n        /* \"contracts/BusinessConsensus4.sol\":6249:6317  Voters[_messageID].push(voter_maps[_messageID][keys[_messageID][i]]) */\n      swap1\n      dup1\n      0x01\n      dup2\n      sload\n      add\n      dup1\n      dup3\n      sstore\n      dup1\n      swap2\n      pop\n      pop\n      0x01\n      swap1\n      sub\n      swap1\n      0x00\n      mstore\n      keccak256(0x00, 0x20)\n      add\n      0x00\n      swap1\n      swap2\n      swap1\n      swap2\n      swap1\n      swap2\n      pop\n      0x00\n      dup3\n      add\n      0x00\n      swap1\n      sload\n      swap1\n      0x0100\n      exp\n      swap1\n      div\n      0xff\n      and\n      dup2\n      0x00\n      add\n      exp(0x0100, 0x00)\n      dup2\n      sload\n      dup2\n      0xff\n      mul\n      not\n      and\n      swap1\n      dup4\n      iszero\n      iszero\n      mul\n      or\n      swap1\n      sstore\n      pop\n      0x00\n      dup3\n      add\n      0x01\n      swap1\n      sload\n      swap1\n      0x0100\n      exp\n      swap1\n      div\n      0xff\n      and\n      dup2\n      0x00\n      add\n      exp(0x0100, 0x01)\n      dup2\n      sload\n      dup2\n      0xff\n      mul\n      not\n      and\n      swap1\n      dup4\n      iszero\n      iszero\n      mul\n      or\n      swap1\n      sstore\n      pop\n      0x00\n      dup3\n      add\n      0x02\n      swap1\n      sload\n      swap1\n      0x0100\n      exp\n      swap1\n      div\n      0xffffffffffffffffffffffffffffffffffffffff\n      and\n      dup2\n      0x00\n      add\n      exp(0x0100, 0x02)\n      dup2\n      sload\n      dup2\n      0xffffffffffffffffffffffffffffffffffffffff\n      mul\n      not\n      and\n      swap1\n      dup4\n      0xffffffffffffffffffffffffffffffffffffffff\n      and\n      mul\n      or\n      swap1\n      sstore\n      pop\n      pop\n      pop\n        /* \"contracts/BusinessConsensus4.sol\":6168:6333  if(voter_maps[_messageID][keys[_messageID][i]].voted == false){\r... */\n    tag_169:\n        /* \"contracts/BusinessConsensus4.sol\":6149:6152  i++ */\n      dup1\n      dup1\n      tag_174\n      swap1\n      tag_175\n      jump\t// in\n    tag_174:\n      swap2\n      pop\n      pop\n        /* \"contracts/BusinessConsensus4.sol\":6106:6344  for(uint8 i=0; i< keys[_messageID].length; i++){\r... */\n      jump(tag_162)\n    tag_163:\n      pop\n        /* \"contracts/BusinessConsensus4.sol\":6379:6383  true */\n      0x01\n        /* \"contracts/BusinessConsensus4.sol\":6354:6364  isCompiled */\n      0x0a\n        /* \"contracts/BusinessConsensus4.sol\":6354:6376  isCompiled[_messageID] */\n      0x00\n        /* \"contracts/BusinessConsensus4.sol\":6365:6375  _messageID */\n      dup5\n        /* \"contracts/BusinessConsensus4.sol\":6354:6376  isCompiled[_messageID] */\n      dup2\n      mstore\n      0x20\n      add\n      swap1\n      dup2\n      mstore\n      0x20\n      add\n      0x00\n      keccak256\n      0x00\n        /* \"contracts/BusinessConsensus4.sol\":6354:6383  isCompiled[_messageID] = true */\n      0x0100\n      exp\n      dup2\n      sload\n      dup2\n      0xff\n      mul\n      not\n      and\n      swap1\n      dup4\n      iszero\n      iszero\n      mul\n      or\n      swap1\n      sstore\n      pop\n        /* \"contracts/BusinessConsensus4.sol\":5506:6391  {\r... */\n      pop\n        /* \"contracts/BusinessConsensus4.sol\":5458:6391  function Consensus(bytes32 _messageID) external {\r... */\n      pop\n      jump\t// out\n        /* \"contracts/BusinessConsensus4.sol\":1148:1187  mapping(bytes32=>address[]) public keys */\n    tag_74:\n      mstore(0x20, 0x0e)\n      dup2\n      0x00\n      mstore\n      keccak256(0x00, 0x40)\n      dup2\n      dup2\n      sload\n      dup2\n      lt\n      tag_176\n      jumpi\n      0x00\n      dup1\n      revert\n    tag_176:\n      swap1\n      0x00\n      mstore\n      keccak256(0x00, 0x20)\n      add\n      0x00\n      swap2\n      pop\n      swap2\n      pop\n      swap1\n      sload\n      swap1\n      0x0100\n      exp\n      swap1\n      div\n      0xffffffffffffffffffffffffffffffffffffffff\n      and\n      dup2\n      jump\t// out\n        /* \"contracts/BusinessConsensus4.sol\":506:551  mapping(bytes32 => uint256) public voteCounts */\n    tag_79:\n      mstore(0x20, 0x02)\n      dup1\n      0x00\n      mstore\n      keccak256(0x00, 0x40)\n      0x00\n      swap2\n      pop\n      swap1\n      pop\n      sload\n      dup2\n      jump\t// out\n        /* \"contracts/BusinessConsensus4.sol\":937:979  mapping(bytes32 => bool) public isCompiled */\n    tag_83:\n      mstore(0x20, 0x0a)\n      dup1\n      0x00\n      mstore\n      keccak256(0x00, 0x40)\n      0x00\n      swap2\n      pop\n      sload\n      swap1\n      0x0100\n      exp\n      swap1\n      div\n      0xff\n      and\n      dup2\n      jump\t// out\n        /* \"contracts/BusinessConsensus4.sol\":4097:5394  function Vote(string memory response,bytes32 _messageID) external {\r... */\n    tag_88:\n        /* \"contracts/BusinessConsensus4.sol\":4202:4213  expiryDates */\n      0x04\n        /* \"contracts/BusinessConsensus4.sol\":4202:4225  expiryDates[_messageID] */\n      0x00\n        /* \"contracts/BusinessConsensus4.sol\":4214:4224  _messageID */\n      dup3\n        /* \"contracts/BusinessConsensus4.sol\":4202:4225  expiryDates[_messageID] */\n      dup2\n      mstore\n      0x20\n      add\n      swap1\n      dup2\n      mstore\n      0x20\n      add\n      0x00\n      keccak256\n      sload\n        /* \"contracts/BusinessConsensus4.sol\":4184:4199  block.timestamp */\n      timestamp\n        /* \"contracts/BusinessConsensus4.sol\":4184:4225  block.timestamp < expiryDates[_messageID] */\n      lt\n        /* \"contracts/BusinessConsensus4.sol\":4176:4248  require(block.timestamp < expiryDates[_messageID], \"Voting has expired\") */\n      tag_179\n      jumpi\n      mload(0x40)\n      0x08c379a000000000000000000000000000000000000000000000000000000000\n      dup2\n      mstore\n      0x04\n      add\n      tag_180\n      swap1\n      tag_181\n      jump\t// in\n    tag_180:\n      mload(0x40)\n      dup1\n      swap2\n      sub\n      swap1\n      revert\n    tag_179:\n        /* \"contracts/BusinessConsensus4.sol\":4323:4326  0x0 */\n      0x00\n        /* \"contracts/BusinessConsensus4.sol\":4267:4327  voter_maps[_messageID][msg.sender].recipient != address(0x0) */\n      0xffffffffffffffffffffffffffffffffffffffff\n      and\n        /* \"contracts/BusinessConsensus4.sol\":4267:4277  voter_maps */\n      0x0c\n        /* \"contracts/BusinessConsensus4.sol\":4267:4289  voter_maps[_messageID] */\n      0x00\n        /* \"contracts/BusinessConsensus4.sol\":4278:4288  _messageID */\n      dup4\n        /* \"contracts/BusinessConsensus4.sol\":4267:4289  voter_maps[_messageID] */\n      dup2\n      mstore\n      0x20\n      add\n      swap1\n      dup2\n      mstore\n      0x20\n      add\n      0x00\n      keccak256\n        /* \"contracts/BusinessConsensus4.sol\":4267:4301  voter_maps[_messageID][msg.sender] */\n      0x00\n        /* \"contracts/BusinessConsensus4.sol\":4290:4300  msg.sender */\n      caller\n        /* \"contracts/BusinessConsensus4.sol\":4267:4301  voter_maps[_messageID][msg.sender] */\n      0xffffffffffffffffffffffffffffffffffffffff\n      and\n      0xffffffffffffffffffffffffffffffffffffffff\n      and\n      dup2\n      mstore\n      0x20\n      add\n      swap1\n      dup2\n      mstore\n      0x20\n      add\n      0x00\n      keccak256\n        /* \"contracts/BusinessConsensus4.sol\":4267:4311  voter_maps[_messageID][msg.sender].recipient */\n      0x00\n      add\n      0x02\n      swap1\n      sload\n      swap1\n      0x0100\n      exp\n      swap1\n      div\n      0xffffffffffffffffffffffffffffffffffffffff\n      and\n        /* \"contracts/BusinessConsensus4.sol\":4267:4327  voter_maps[_messageID][msg.sender].recipient != address(0x0) */\n      0xffffffffffffffffffffffffffffffffffffffff\n      and\n      eq\n      iszero\n        /* \"contracts/BusinessConsensus4.sol\":4259:4362  require(voter_maps[_messageID][msg.sender].recipient != address(0x0), \"You are not registered to vote\") */\n      tag_182\n      jumpi\n      mload(0x40)\n      0x08c379a000000000000000000000000000000000000000000000000000000000\n      dup2\n      mstore\n      0x04\n      add\n      tag_183\n      swap1\n      tag_184\n      jump\t// in\n    tag_183:\n      mload(0x40)\n      dup1\n      swap2\n      sub\n      swap1\n      revert\n    tag_182:\n        /* \"contracts/BusinessConsensus4.sol\":4382:4392  voter_maps */\n      0x0c\n        /* \"contracts/BusinessConsensus4.sol\":4382:4404  voter_maps[_messageID] */\n      0x00\n        /* \"contracts/BusinessConsensus4.sol\":4393:4403  _messageID */\n      dup3\n        /* \"contracts/BusinessConsensus4.sol\":4382:4404  voter_maps[_messageID] */\n      dup2\n      mstore\n      0x20\n      add\n      swap1\n      dup2\n      mstore\n      0x20\n      add\n      0x00\n      keccak256\n        /* \"contracts/BusinessConsensus4.sol\":4382:4416  voter_maps[_messageID][msg.sender] */\n      0x00\n        /* \"contracts/BusinessConsensus4.sol\":4405:4415  msg.sender */\n      caller\n        /* \"contracts/BusinessConsensus4.sol\":4382:4416  voter_maps[_messageID][msg.sender] */\n      0xffffffffffffffffffffffffffffffffffffffff\n      and\n      0xffffffffffffffffffffffffffffffffffffffff\n      and\n      dup2\n      mstore\n      0x20\n      add\n      swap1\n      dup2\n      mstore\n      0x20\n      add\n      0x00\n      keccak256\n        /* \"contracts/BusinessConsensus4.sol\":4382:4422  voter_maps[_messageID][msg.sender].voted */\n      0x00\n      add\n      0x00\n      swap1\n      sload\n      swap1\n      0x0100\n      exp\n      swap1\n      div\n      0xff\n      and\n        /* \"contracts/BusinessConsensus4.sol\":4381:4422  !voter_maps[_messageID][msg.sender].voted */\n      iszero\n        /* \"contracts/BusinessConsensus4.sol\":4373:4455  require(!voter_maps[_messageID][msg.sender].voted, \"You already sent a response.\") */\n      tag_185\n      jumpi\n      mload(0x40)\n      0x08c379a000000000000000000000000000000000000000000000000000000000\n      dup2\n      mstore\n      0x04\n      add\n      tag_186\n      swap1\n      tag_187\n      jump\t// in\n    tag_186:\n      mload(0x40)\n      dup1\n      swap2\n      sub\n      swap1\n      revert\n    tag_185:\n        /* \"contracts/BusinessConsensus4.sol\":4511:4529  bytes(\"i approve\") */\n      mload(0x40)\n      dup1\n      0x40\n      add\n      0x40\n      mstore\n      dup1\n      0x09\n      dup2\n      mstore\n      0x20\n      add\n      0x6920617070726f76650000000000000000000000000000000000000000000000\n      dup2\n      mstore\n      pop\n        /* \"contracts/BusinessConsensus4.sol\":4501:4530  keccak256(bytes(\"i approve\")) */\n      dup1\n      mload\n      swap1\n      0x20\n      add\n      keccak256\n        /* \"contracts/BusinessConsensus4.sol\":4487:4495  response */\n      dup3\n        /* \"contracts/BusinessConsensus4.sol\":4471:4497  keccak256(bytes(response)) */\n      dup1\n      mload\n      swap1\n      0x20\n      add\n      keccak256\n        /* \"contracts/BusinessConsensus4.sol\":4471:4530  keccak256(bytes(response)) == keccak256(bytes(\"i approve\")) */\n      eq\n        /* \"contracts/BusinessConsensus4.sol\":4468:5377  if(keccak256(bytes(response)) == keccak256(bytes(\"i approve\"))){\r... */\n      iszero\n      tag_188\n      jumpi\n        /* \"contracts/BusinessConsensus4.sol\":4589:4593  true */\n      0x01\n        /* \"contracts/BusinessConsensus4.sol\":4546:4556  voter_maps */\n      0x0c\n        /* \"contracts/BusinessConsensus4.sol\":4546:4568  voter_maps[_messageID] */\n      0x00\n        /* \"contracts/BusinessConsensus4.sol\":4557:4567  _messageID */\n      dup4\n        /* \"contracts/BusinessConsensus4.sol\":4546:4568  voter_maps[_messageID] */\n      dup2\n      mstore\n      0x20\n      add\n      swap1\n      dup2\n      mstore\n      0x20\n      add\n      0x00\n      keccak256\n        /* \"contracts/BusinessConsensus4.sol\":4546:4580  voter_maps[_messageID][msg.sender] */\n      0x00\n        /* \"contracts/BusinessConsensus4.sol\":4569:4579  msg.sender */\n      caller\n        /* \"contracts/BusinessConsensus4.sol\":4546:4580  voter_maps[_messageID][msg.sender] */\n      0xffffffffffffffffffffffffffffffffffffffff\n      and\n      0xffffffffffffffffffffffffffffffffffffffff\n      and\n      dup2\n      mstore\n      0x20\n      add\n      swap1\n      dup2\n      mstore\n      0x20\n      add\n      0x00\n      keccak256\n        /* \"contracts/BusinessConsensus4.sol\":4546:4586  voter_maps[_messageID][msg.sender].voted */\n      0x00\n      add\n      0x00\n        /* \"contracts/BusinessConsensus4.sol\":4546:4593  voter_maps[_messageID][msg.sender].voted = true */\n      0x0100\n      exp\n      dup2\n      sload\n      dup2\n      0xff\n      mul\n      not\n      and\n      swap1\n      dup4\n      iszero\n      iszero\n      mul\n      or\n      swap1\n      sstore\n      pop\n        /* \"contracts/BusinessConsensus4.sol\":4650:4654  true */\n      0x01\n        /* \"contracts/BusinessConsensus4.sol\":4608:4618  voter_maps */\n      0x0c\n        /* \"contracts/BusinessConsensus4.sol\":4608:4630  voter_maps[_messageID] */\n      0x00\n        /* \"contracts/BusinessConsensus4.sol\":4619:4629  _messageID */\n      dup4\n        /* \"contracts/BusinessConsensus4.sol\":4608:4630  voter_maps[_messageID] */\n      dup2\n      mstore\n      0x20\n      add\n      swap1\n      dup2\n      mstore\n      0x20\n      add\n      0x00\n      keccak256\n        /* \"contracts/BusinessConsensus4.sol\":4608:4642  voter_maps[_messageID][msg.sender] */\n      0x00\n        /* \"contracts/BusinessConsensus4.sol\":4631:4641  msg.sender */\n      caller\n        /* \"contracts/BusinessConsensus4.sol\":4608:4642  voter_maps[_messageID][msg.sender] */\n      0xffffffffffffffffffffffffffffffffffffffff\n      and\n      0xffffffffffffffffffffffffffffffffffffffff\n      and\n      dup2\n      mstore\n      0x20\n      add\n      swap1\n      dup2\n      mstore\n      0x20\n      add\n      0x00\n      keccak256\n        /* \"contracts/BusinessConsensus4.sol\":4608:4647  voter_maps[_messageID][msg.sender].vote */\n      0x00\n      add\n      0x01\n        /* \"contracts/BusinessConsensus4.sol\":4608:4654  voter_maps[_messageID][msg.sender].vote = true */\n      0x0100\n      exp\n      dup2\n      sload\n      dup2\n      0xff\n      mul\n      not\n      and\n      swap1\n      dup4\n      iszero\n      iszero\n      mul\n      or\n      swap1\n      sstore\n      pop\n        /* \"contracts/BusinessConsensus4.sol\":4697:4698  1 */\n      0x01\n        /* \"contracts/BusinessConsensus4.sol\":4669:4681  numApprovals */\n      0x06\n        /* \"contracts/BusinessConsensus4.sol\":4669:4693  numApprovals[_messageID] */\n      0x00\n        /* \"contracts/BusinessConsensus4.sol\":4682:4692  _messageID */\n      dup4\n        /* \"contracts/BusinessConsensus4.sol\":4669:4693  numApprovals[_messageID] */\n      dup2\n      mstore\n      0x20\n      add\n      swap1\n      dup2\n      mstore\n      0x20\n      add\n      0x00\n      keccak256\n      0x00\n        /* \"contracts/BusinessConsensus4.sol\":4669:4698  numApprovals[_messageID] += 1 */\n      dup3\n      dup3\n      sload\n      tag_189\n      swap2\n      swap1\n      tag_190\n      jump\t// in\n    tag_189:\n      swap3\n      pop\n      pop\n      dup2\n      swap1\n      sstore\n      pop\n        /* \"contracts/BusinessConsensus4.sol\":4739:4740  1 */\n      0x01\n        /* \"contracts/BusinessConsensus4.sol\":4713:4723  voteCounts */\n      0x02\n        /* \"contracts/BusinessConsensus4.sol\":4713:4735  voteCounts[_messageID] */\n      0x00\n        /* \"contracts/BusinessConsensus4.sol\":4724:4734  _messageID */\n      dup4\n        /* \"contracts/BusinessConsensus4.sol\":4713:4735  voteCounts[_messageID] */\n      dup2\n      mstore\n      0x20\n      add\n      swap1\n      dup2\n      mstore\n      0x20\n      add\n      0x00\n      keccak256\n      0x00\n        /* \"contracts/BusinessConsensus4.sol\":4713:4740  voteCounts[_messageID] += 1 */\n      dup3\n      dup3\n      sload\n      tag_191\n      swap2\n      swap1\n      tag_190\n      jump\t// in\n    tag_191:\n      swap3\n      pop\n      pop\n      dup2\n      swap1\n      sstore\n      pop\n        /* \"contracts/BusinessConsensus4.sol\":4755:4761  Voters */\n      0x0d\n        /* \"contracts/BusinessConsensus4.sol\":4755:4773  Voters[_messageID] */\n      0x00\n        /* \"contracts/BusinessConsensus4.sol\":4762:4772  _messageID */\n      dup3\n        /* \"contracts/BusinessConsensus4.sol\":4755:4773  Voters[_messageID] */\n      dup2\n      mstore\n      0x20\n      add\n      swap1\n      dup2\n      mstore\n      0x20\n      add\n      0x00\n      keccak256\n        /* \"contracts/BusinessConsensus4.sol\":4779:4789  voter_maps */\n      0x0c\n        /* \"contracts/BusinessConsensus4.sol\":4779:4801  voter_maps[_messageID] */\n      0x00\n        /* \"contracts/BusinessConsensus4.sol\":4790:4800  _messageID */\n      dup4\n        /* \"contracts/BusinessConsensus4.sol\":4779:4801  voter_maps[_messageID] */\n      dup2\n      mstore\n      0x20\n      add\n      swap1\n      dup2\n      mstore\n      0x20\n      add\n      0x00\n      keccak256\n        /* \"contracts/BusinessConsensus4.sol\":4779:4813  voter_maps[_messageID][msg.sender] */\n      0x00\n        /* \"contracts/BusinessConsensus4.sol\":4802:4812  msg.sender */\n      caller\n        /* \"contracts/BusinessConsensus4.sol\":4779:4813  voter_maps[_messageID][msg.sender] */\n      0xffffffffffffffffffffffffffffffffffffffff\n      and\n      0xffffffffffffffffffffffffffffffffffffffff\n      and\n      dup2\n      mstore\n      0x20\n      add\n      swap1\n      dup2\n      mstore\n      0x20\n      add\n      0x00\n      keccak256\n        /* \"contracts/BusinessConsensus4.sol\":4755:4814  Voters[_messageID].push(voter_maps[_messageID][msg.sender]) */\n      swap1\n      dup1\n      0x01\n      dup2\n      sload\n      add\n      dup1\n      dup3\n      sstore\n      dup1\n      swap2\n      pop\n      pop\n      0x01\n      swap1\n      sub\n      swap1\n      0x00\n      mstore\n      keccak256(0x00, 0x20)\n      add\n      0x00\n      swap1\n      swap2\n      swap1\n      swap2\n      swap1\n      swap2\n      pop\n      0x00\n      dup3\n      add\n      0x00\n      swap1\n      sload\n      swap1\n      0x0100\n      exp\n      swap1\n      div\n      0xff\n      and\n      dup2\n      0x00\n      add\n      exp(0x0100, 0x00)\n      dup2\n      sload\n      dup2\n      0xff\n      mul\n      not\n      and\n      swap1\n      dup4\n      iszero\n      iszero\n      mul\n      or\n      swap1\n      sstore\n      pop\n      0x00\n      dup3\n      add\n      0x01\n      swap1\n      sload\n      swap1\n      0x0100\n      exp\n      swap1\n      div\n      0xff\n      and\n      dup2\n      0x00\n      add\n      exp(0x0100, 0x01)\n      dup2\n      sload\n      dup2\n      0xff\n      mul\n      not\n      and\n      swap1\n      dup4\n      iszero\n      iszero\n      mul\n      or\n      swap1\n      sstore\n      pop\n      0x00\n      dup3\n      add\n      0x02\n      swap1\n      sload\n      swap1\n      0x0100\n      exp\n      swap1\n      div\n      0xffffffffffffffffffffffffffffffffffffffff\n      and\n      dup2\n      0x00\n      add\n      exp(0x0100, 0x02)\n      dup2\n      sload\n      dup2\n      0xffffffffffffffffffffffffffffffffffffffff\n      mul\n      not\n      and\n      swap1\n      dup4\n      0xffffffffffffffffffffffffffffffffffffffff\n      and\n      mul\n      or\n      swap1\n      sstore\n      pop\n      pop\n      pop\n        /* \"contracts/BusinessConsensus4.sol\":4468:5377  if(keccak256(bytes(response)) == keccak256(bytes(\"i approve\"))){\r... */\n      jump(tag_193)\n    tag_188:\n        /* \"contracts/BusinessConsensus4.sol\":4886:4907  bytes(\"i disapprove\") */\n      mload(0x40)\n      dup1\n      0x40\n      add\n      0x40\n      mstore\n      dup1\n      0x0c\n      dup2\n      mstore\n      0x20\n      add\n      0x6920646973617070726f76650000000000000000000000000000000000000000\n      dup2\n      mstore\n      pop\n        /* \"contracts/BusinessConsensus4.sol\":4876:4908  keccak256(bytes(\"i disapprove\")) */\n      dup1\n      mload\n      swap1\n      0x20\n      add\n      keccak256\n        /* \"contracts/BusinessConsensus4.sol\":4862:4870  response */\n      dup3\n        /* \"contracts/BusinessConsensus4.sol\":4846:4872  keccak256(bytes(response)) */\n      dup1\n      mload\n      swap1\n      0x20\n      add\n      keccak256\n        /* \"contracts/BusinessConsensus4.sol\":4846:4908  keccak256(bytes(response)) == keccak256(bytes(\"i disapprove\")) */\n      eq\n        /* \"contracts/BusinessConsensus4.sol\":4843:5377  if(keccak256(bytes(response)) == keccak256(bytes(\"i disapprove\"))){\r... */\n      iszero\n      tag_194\n      jumpi\n        /* \"contracts/BusinessConsensus4.sol\":4967:4971  true */\n      0x01\n        /* \"contracts/BusinessConsensus4.sol\":4924:4934  voter_maps */\n      0x0c\n        /* \"contracts/BusinessConsensus4.sol\":4924:4946  voter_maps[_messageID] */\n      0x00\n        /* \"contracts/BusinessConsensus4.sol\":4935:4945  _messageID */\n      dup4\n        /* \"contracts/BusinessConsensus4.sol\":4924:4946  voter_maps[_messageID] */\n      dup2\n      mstore\n      0x20\n      add\n      swap1\n      dup2\n      mstore\n      0x20\n      add\n      0x00\n      keccak256\n        /* \"contracts/BusinessConsensus4.sol\":4924:4958  voter_maps[_messageID][msg.sender] */\n      0x00\n        /* \"contracts/BusinessConsensus4.sol\":4947:4957  msg.sender */\n      caller\n        /* \"contracts/BusinessConsensus4.sol\":4924:4958  voter_maps[_messageID][msg.sender] */\n      0xffffffffffffffffffffffffffffffffffffffff\n      and\n      0xffffffffffffffffffffffffffffffffffffffff\n      and\n      dup2\n      mstore\n      0x20\n      add\n      swap1\n      dup2\n      mstore\n      0x20\n      add\n      0x00\n      keccak256\n        /* \"contracts/BusinessConsensus4.sol\":4924:4964  voter_maps[_messageID][msg.sender].voted */\n      0x00\n      add\n      0x00\n        /* \"contracts/BusinessConsensus4.sol\":4924:4971  voter_maps[_messageID][msg.sender].voted = true */\n      0x0100\n      exp\n      dup2\n      sload\n      dup2\n      0xff\n      mul\n      not\n      and\n      swap1\n      dup4\n      iszero\n      iszero\n      mul\n      or\n      swap1\n      sstore\n      pop\n        /* \"contracts/BusinessConsensus4.sol\":5012:5013  1 */\n      0x01\n        /* \"contracts/BusinessConsensus4.sol\":4986:4996  voteCounts */\n      0x02\n        /* \"contracts/BusinessConsensus4.sol\":4986:5008  voteCounts[_messageID] */\n      0x00\n        /* \"contracts/BusinessConsensus4.sol\":4997:5007  _messageID */\n      dup4\n        /* \"contracts/BusinessConsensus4.sol\":4986:5008  voteCounts[_messageID] */\n      dup2\n      mstore\n      0x20\n      add\n      swap1\n      dup2\n      mstore\n      0x20\n      add\n      0x00\n      keccak256\n      0x00\n        /* \"contracts/BusinessConsensus4.sol\":4986:5013  voteCounts[_messageID] += 1 */\n      dup3\n      dup3\n      sload\n      tag_195\n      swap2\n      swap1\n      tag_190\n      jump\t// in\n    tag_195:\n      swap3\n      pop\n      pop\n      dup2\n      swap1\n      sstore\n      pop\n        /* \"contracts/BusinessConsensus4.sol\":5028:5034  Voters */\n      0x0d\n        /* \"contracts/BusinessConsensus4.sol\":5028:5046  Voters[_messageID] */\n      0x00\n        /* \"contracts/BusinessConsensus4.sol\":5035:5045  _messageID */\n      dup3\n        /* \"contracts/BusinessConsensus4.sol\":5028:5046  Voters[_messageID] */\n      dup2\n      mstore\n      0x20\n      add\n      swap1\n      dup2\n      mstore\n      0x20\n      add\n      0x00\n      keccak256\n        /* \"contracts/BusinessConsensus4.sol\":5052:5062  voter_maps */\n      0x0c\n        /* \"contracts/BusinessConsensus4.sol\":5052:5074  voter_maps[_messageID] */\n      0x00\n        /* \"contracts/BusinessConsensus4.sol\":5063:5073  _messageID */\n      dup4\n        /* \"contracts/BusinessConsensus4.sol\":5052:5074  voter_maps[_messageID] */\n      dup2\n      mstore\n      0x20\n      add\n      swap1\n      dup2\n      mstore\n      0x20\n      add\n      0x00\n      keccak256\n        /* \"contracts/BusinessConsensus4.sol\":5052:5086  voter_maps[_messageID][msg.sender] */\n      0x00\n        /* \"contracts/BusinessConsensus4.sol\":5075:5085  msg.sender */\n      caller\n        /* \"contracts/BusinessConsensus4.sol\":5052:5086  voter_maps[_messageID][msg.sender] */\n      0xffffffffffffffffffffffffffffffffffffffff\n      and\n      0xffffffffffffffffffffffffffffffffffffffff\n      and\n      dup2\n      mstore\n      0x20\n      add\n      swap1\n      dup2\n      mstore\n      0x20\n      add\n      0x00\n      keccak256\n        /* \"contracts/BusinessConsensus4.sol\":5028:5087  Voters[_messageID].push(voter_maps[_messageID][msg.sender]) */\n      swap1\n      dup1\n      0x01\n      dup2\n      sload\n      add\n      dup1\n      dup3\n      sstore\n      dup1\n      swap2\n      pop\n      pop\n      0x01\n      swap1\n      sub\n      swap1\n      0x00\n      mstore\n      keccak256(0x00, 0x20)\n      add\n      0x00\n      swap1\n      swap2\n      swap1\n      swap2\n      swap1\n      swap2\n      pop\n      0x00\n      dup3\n      add\n      0x00\n      swap1\n      sload\n      swap1\n      0x0100\n      exp\n      swap1\n      div\n      0xff\n      and\n      dup2\n      0x00\n      add\n      exp(0x0100, 0x00)\n      dup2\n      sload\n      dup2\n      0xff\n      mul\n      not\n      and\n      swap1\n      dup4\n      iszero\n      iszero\n      mul\n      or\n      swap1\n      sstore\n      pop\n      0x00\n      dup3\n      add\n      0x01\n      swap1\n      sload\n      swap1\n      0x0100\n      exp\n      swap1\n      div\n      0xff\n      and\n      dup2\n      0x00\n      add\n      exp(0x0100, 0x01)\n      dup2\n      sload\n      dup2\n      0xff\n      mul\n      not\n      and\n      swap1\n      dup4\n      iszero\n      iszero\n      mul\n      or\n      swap1\n      sstore\n      pop\n      0x00\n      dup3\n      add\n      0x02\n      swap1\n      sload\n      swap1\n      0x0100\n      exp\n      swap1\n      div\n      0xffffffffffffffffffffffffffffffffffffffff\n      and\n      dup2\n      0x00\n      add\n      exp(0x0100, 0x02)\n      dup2\n      sload\n      dup2\n      0xffffffffffffffffffffffffffffffffffffffff\n      mul\n      not\n      and\n      swap1\n      dup4\n      0xffffffffffffffffffffffffffffffffffffffff\n      and\n      mul\n      or\n      swap1\n      sstore\n      pop\n      pop\n      pop\n        /* \"contracts/BusinessConsensus4.sol\":4843:5377  if(keccak256(bytes(response)) == keccak256(bytes(\"i disapprove\"))){\r... */\n      jump(tag_197)\n    tag_194:\n        /* \"contracts/BusinessConsensus4.sol\":5245:5249  true */\n      0x01\n        /* \"contracts/BusinessConsensus4.sol\":5202:5212  voter_maps */\n      0x0c\n        /* \"contracts/BusinessConsensus4.sol\":5202:5224  voter_maps[_messageID] */\n      0x00\n        /* \"contracts/BusinessConsensus4.sol\":5213:5223  _messageID */\n      dup4\n        /* \"contracts/BusinessConsensus4.sol\":5202:5224  voter_maps[_messageID] */\n      dup2\n      mstore\n      0x20\n      add\n      swap1\n      dup2\n      mstore\n      0x20\n      add\n      0x00\n      keccak256\n        /* \"contracts/BusinessConsensus4.sol\":5202:5236  voter_maps[_messageID][msg.sender] */\n      0x00\n        /* \"contracts/BusinessConsensus4.sol\":5225:5235  msg.sender */\n      caller\n        /* \"contracts/BusinessConsensus4.sol\":5202:5236  voter_maps[_messageID][msg.sender] */\n      0xffffffffffffffffffffffffffffffffffffffff\n      and\n      0xffffffffffffffffffffffffffffffffffffffff\n      and\n      dup2\n      mstore\n      0x20\n      add\n      swap1\n      dup2\n      mstore\n      0x20\n      add\n      0x00\n      keccak256\n        /* \"contracts/BusinessConsensus4.sol\":5202:5242  voter_maps[_messageID][msg.sender].voted */\n      0x00\n      add\n      0x00\n        /* \"contracts/BusinessConsensus4.sol\":5202:5249  voter_maps[_messageID][msg.sender].voted = true */\n      0x0100\n      exp\n      dup2\n      sload\n      dup2\n      0xff\n      mul\n      not\n      and\n      swap1\n      dup4\n      iszero\n      iszero\n      mul\n      or\n      swap1\n      sstore\n      pop\n        /* \"contracts/BusinessConsensus4.sol\":5290:5291  1 */\n      0x01\n        /* \"contracts/BusinessConsensus4.sol\":5264:5274  voteCounts */\n      0x02\n        /* \"contracts/BusinessConsensus4.sol\":5264:5286  voteCounts[_messageID] */\n      0x00\n        /* \"contracts/BusinessConsensus4.sol\":5275:5285  _messageID */\n      dup4\n        /* \"contracts/BusinessConsensus4.sol\":5264:5286  voteCounts[_messageID] */\n      dup2\n      mstore\n      0x20\n      add\n      swap1\n      dup2\n      mstore\n      0x20\n      add\n      0x00\n      keccak256\n      0x00\n        /* \"contracts/BusinessConsensus4.sol\":5264:5291  voteCounts[_messageID] += 1 */\n      dup3\n      dup3\n      sload\n      tag_198\n      swap2\n      swap1\n      tag_190\n      jump\t// in\n    tag_198:\n      swap3\n      pop\n      pop\n      dup2\n      swap1\n      sstore\n      pop\n        /* \"contracts/BusinessConsensus4.sol\":5306:5312  Voters */\n      0x0d\n        /* \"contracts/BusinessConsensus4.sol\":5306:5324  Voters[_messageID] */\n      0x00\n        /* \"contracts/BusinessConsensus4.sol\":5313:5323  _messageID */\n      dup3\n        /* \"contracts/BusinessConsensus4.sol\":5306:5324  Voters[_messageID] */\n      dup2\n      mstore\n      0x20\n      add\n      swap1\n      dup2\n      mstore\n      0x20\n      add\n      0x00\n      keccak256\n        /* \"contracts/BusinessConsensus4.sol\":5330:5340  voter_maps */\n      0x0c\n        /* \"contracts/BusinessConsensus4.sol\":5330:5352  voter_maps[_messageID] */\n      0x00\n        /* \"contracts/BusinessConsensus4.sol\":5341:5351  _messageID */\n      dup4\n        /* \"contracts/BusinessConsensus4.sol\":5330:5352  voter_maps[_messageID] */\n      dup2\n      mstore\n      0x20\n      add\n      swap1\n      dup2\n      mstore\n      0x20\n      add\n      0x00\n      keccak256\n        /* \"contracts/BusinessConsensus4.sol\":5330:5364  voter_maps[_messageID][msg.sender] */\n      0x00\n        /* \"contracts/BusinessConsensus4.sol\":5353:5363  msg.sender */\n      caller\n        /* \"contracts/BusinessConsensus4.sol\":5330:5364  voter_maps[_messageID][msg.sender] */\n      0xffffffffffffffffffffffffffffffffffffffff\n      and\n      0xffffffffffffffffffffffffffffffffffffffff\n      and\n      dup2\n      mstore\n      0x20\n      add\n      swap1\n      dup2\n      mstore\n      0x20\n      add\n      0x00\n      keccak256\n        /* \"contracts/BusinessConsensus4.sol\":5306:5365  Voters[_messageID].push(voter_maps[_messageID][msg.sender]) */\n      swap1\n      dup1\n      0x01\n      dup2\n      sload\n      add\n      dup1\n      dup3\n      sstore\n      dup1\n      swap2\n      pop\n      pop\n      0x01\n      swap1\n      sub\n      swap1\n      0x00\n      mstore\n      keccak256(0x00, 0x20)\n      add\n      0x00\n      swap1\n      swap2\n      swap1\n      swap2\n      swap1\n      swap2\n      pop\n      0x00\n      dup3\n      add\n      0x00\n      swap1\n      sload\n      swap1\n      0x0100\n      exp\n      swap1\n      div\n      0xff\n      and\n      dup2\n      0x00\n      add\n      exp(0x0100, 0x00)\n      dup2\n      sload\n      dup2\n      0xff\n      mul\n      not\n      and\n      swap1\n      dup4\n      iszero\n      iszero\n      mul\n      or\n      swap1\n      sstore\n      pop\n      0x00\n      dup3\n      add\n      0x01\n      swap1\n      sload\n      swap1\n      0x0100\n      exp\n      swap1\n      div\n      0xff\n      and\n      dup2\n      0x00\n      add\n      exp(0x0100, 0x01)\n      dup2\n      sload\n      dup2\n      0xff\n      mul\n      not\n      and\n      swap1\n      dup4\n      iszero\n      iszero\n      mul\n      or\n      swap1\n      sstore\n      pop\n      0x00\n      dup3\n      add\n      0x02\n      swap1\n      sload\n      swap1\n      0x0100\n      exp\n      swap1\n      div\n      0xffffffffffffffffffffffffffffffffffffffff\n      and\n      dup2\n      0x00\n      add\n      exp(0x0100, 0x02)\n      dup2\n      sload\n      dup2\n      0xffffffffffffffffffffffffffffffffffffffff\n      mul\n      not\n      and\n      swap1\n      dup4\n      0xffffffffffffffffffffffffffffffffffffffff\n      and\n      mul\n      or\n      swap1\n      sstore\n      pop\n      pop\n      pop\n        /* \"contracts/BusinessConsensus4.sol\":4843:5377  if(keccak256(bytes(response)) == keccak256(bytes(\"i disapprove\"))){\r... */\n    tag_197:\n        /* \"contracts/BusinessConsensus4.sol\":4468:5377  if(keccak256(bytes(response)) == keccak256(bytes(\"i approve\"))){\r... */\n    tag_193:\n        /* \"contracts/BusinessConsensus4.sol\":4097:5394  function Vote(string memory response,bytes32 _messageID) external {\r... */\n      pop\n      pop\n      jump\t// out\n        /* \"contracts/BusinessConsensus4.sol\":3104:3245  function getIsCreated(bytes32 _keyID) public view returns (bytes32,string memory){\r... */\n    tag_91:\n        /* \"contracts/BusinessConsensus4.sol\":3163:3170  bytes32 */\n      0x00\n        /* \"contracts/BusinessConsensus4.sol\":3171:3184  string memory */\n      0x60\n        /* \"contracts/BusinessConsensus4.sol\":3204:3207  IDs */\n      0x01\n        /* \"contracts/BusinessConsensus4.sol\":3204:3215  IDs[_keyID] */\n      0x00\n        /* \"contracts/BusinessConsensus4.sol\":3208:3214  _keyID */\n      dup5\n        /* \"contracts/BusinessConsensus4.sol\":3204:3215  IDs[_keyID] */\n      dup2\n      mstore\n      0x20\n      add\n      swap1\n      dup2\n      mstore\n      0x20\n      add\n      0x00\n      keccak256\n      sload\n        /* \"contracts/BusinessConsensus4.sol\":3216:3228  messageDates */\n      0x08\n        /* \"contracts/BusinessConsensus4.sol\":3216:3236  messageDates[_keyID] */\n      0x00\n        /* \"contracts/BusinessConsensus4.sol\":3229:3235  _keyID */\n      dup6\n        /* \"contracts/BusinessConsensus4.sol\":3216:3236  messageDates[_keyID] */\n      dup2\n      mstore\n      0x20\n      add\n      swap1\n      dup2\n      mstore\n      0x20\n      add\n      0x00\n      keccak256\n        /* \"contracts/BusinessConsensus4.sol\":3196:3237  return (IDs[_keyID],messageDates[_keyID]) */\n      dup1\n      dup1\n      sload\n      tag_201\n      swap1\n      tag_202\n      jump\t// in\n    tag_201:\n      dup1\n      0x1f\n      add\n      0x20\n      dup1\n      swap2\n      div\n      mul\n      0x20\n      add\n      mload(0x40)\n      swap1\n      dup2\n      add\n      0x40\n      mstore\n      dup1\n      swap3\n      swap2\n      swap1\n      dup2\n      dup2\n      mstore\n      0x20\n      add\n      dup3\n      dup1\n      sload\n      tag_203\n      swap1\n      tag_202\n      jump\t// in\n    tag_203:\n      dup1\n      iszero\n      tag_204\n      jumpi\n      dup1\n      0x1f\n      lt\n      tag_205\n      jumpi\n      0x0100\n      dup1\n      dup4\n      sload\n      div\n      mul\n      dup4\n      mstore\n      swap2\n      0x20\n      add\n      swap2\n      jump(tag_204)\n    tag_205:\n      dup3\n      add\n      swap2\n      swap1\n      0x00\n      mstore\n      keccak256(0x00, 0x20)\n      swap1\n    tag_206:\n      dup2\n      sload\n      dup2\n      mstore\n      swap1\n      0x01\n      add\n      swap1\n      0x20\n      add\n      dup1\n      dup4\n      gt\n      tag_206\n      jumpi\n      dup3\n      swap1\n      sub\n      0x1f\n      and\n      dup3\n      add\n      swap2\n    tag_204:\n      pop\n      pop\n      pop\n      pop\n      pop\n      swap1\n      pop\n      swap2\n      pop\n      swap2\n      pop\n        /* \"contracts/BusinessConsensus4.sol\":3104:3245  function getIsCreated(bytes32 _keyID) public view returns (bytes32,string memory){\r... */\n      swap2\n      pop\n      swap2\n      jump\t// out\n        /* \"contracts/BusinessConsensus4.sol\":986:1029  mapping(bytes32 => bytes32) public subjects */\n    tag_96:\n      mstore(0x20, 0x0b)\n      dup1\n      0x00\n      mstore\n      keccak256(0x00, 0x40)\n      0x00\n      swap2\n      pop\n      swap1\n      pop\n      sload\n      dup2\n      jump\t// out\n        /* \"contracts/BusinessConsensus4.sol\":832:878  mapping(bytes32 => string) public messageDates */\n    tag_101:\n      mstore(0x20, 0x08)\n      dup1\n      0x00\n      mstore\n      keccak256(0x00, 0x40)\n      0x00\n      swap2\n      pop\n      swap1\n      pop\n      dup1\n      sload\n      tag_207\n      swap1\n      tag_202\n      jump\t// in\n    tag_207:\n      dup1\n      0x1f\n      add\n      0x20\n      dup1\n      swap2\n      div\n      mul\n      0x20\n      add\n      mload(0x40)\n      swap1\n      dup2\n      add\n      0x40\n      mstore\n      dup1\n      swap3\n      swap2\n      swap1\n      dup2\n      dup2\n      mstore\n      0x20\n      add\n      dup3\n      dup1\n      sload\n      tag_208\n      swap1\n      tag_202\n      jump\t// in\n    tag_208:\n      dup1\n      iszero\n      tag_209\n      jumpi\n      dup1\n      0x1f\n      lt\n      tag_210\n      jumpi\n      0x0100\n      dup1\n      dup4\n      sload\n      div\n      mul\n      dup4\n      mstore\n      swap2\n      0x20\n      add\n      swap2\n      jump(tag_209)\n    tag_210:\n      dup3\n      add\n      swap2\n      swap1\n      0x00\n      mstore\n      keccak256(0x00, 0x20)\n      swap1\n    tag_211:\n      dup2\n      sload\n      dup2\n      mstore\n      swap1\n      0x01\n      add\n      swap1\n      0x20\n      add\n      dup1\n      dup4\n      gt\n      tag_211\n      jumpi\n      dup3\n      swap1\n      sub\n      0x1f\n      and\n      dup3\n      add\n      swap2\n    tag_209:\n      pop\n      pop\n      pop\n      pop\n      pop\n      dup2\n      jump\t// out\n        /* \"contracts/BusinessConsensus4.sol\":1036:1095  mapping(bytes32=>mapping(address=>Voter)) public voter_maps */\n    tag_107:\n      mstore(0x20, 0x0c)\n      dup2\n      0x00\n      mstore\n      mstore(0x20, keccak256(0x00, 0x40))\n      dup1\n      0x00\n      mstore\n      keccak256(0x00, 0x40)\n      0x00\n      swap2\n      pop\n      swap2\n      pop\n      pop\n      dup1\n      0x00\n      add\n      0x00\n      swap1\n      sload\n      swap1\n      0x0100\n      exp\n      swap1\n      div\n      0xff\n      and\n      swap1\n      dup1\n      0x00\n      add\n      0x01\n      swap1\n      sload\n      swap1\n      0x0100\n      exp\n      swap1\n      div\n      0xff\n      and\n      swap1\n      dup1\n      0x00\n      add\n      0x02\n      swap1\n      sload\n      swap1\n      0x0100\n      exp\n      swap1\n      div\n      0xffffffffffffffffffffffffffffffffffffffff\n      and\n      swap1\n      pop\n      dup4\n      jump\t// out\n        /* \"contracts/BusinessConsensus4.sol\":412:455  mapping(bytes32=>address) public initiators */\n    tag_111:\n      mstore(0x20, 0x00)\n      dup1\n      0x00\n      mstore\n      keccak256(0x00, 0x40)\n      0x00\n      swap2\n      pop\n      sload\n      swap1\n      0x0100\n      exp\n      swap1\n      div\n      0xffffffffffffffffffffffffffffffffffffffff\n      and\n      dup2\n      jump\t// out\n        /* \"contracts/BusinessConsensus4.sol\":3351:4089  function RegisterVoter(address voter,bytes32 _messageID) external {\r... */\n    tag_116:\n        /* \"contracts/BusinessConsensus4.sol\":3538:3548  initiators */\n      0x00\n        /* \"contracts/BusinessConsensus4.sol\":3538:3560  initiators[_messageID] */\n      dup1\n        /* \"contracts/BusinessConsensus4.sol\":3549:3559  _messageID */\n      dup3\n        /* \"contracts/BusinessConsensus4.sol\":3538:3560  initiators[_messageID] */\n      dup2\n      mstore\n      0x20\n      add\n      swap1\n      dup2\n      mstore\n      0x20\n      add\n      0x00\n      keccak256\n      0x00\n      swap1\n      sload\n      swap1\n      0x0100\n      exp\n      swap1\n      div\n      0xffffffffffffffffffffffffffffffffffffffff\n      and\n        /* \"contracts/BusinessConsensus4.sol\":3524:3560  msg.sender == initiators[_messageID] */\n      0xffffffffffffffffffffffffffffffffffffffff\n      and\n        /* \"contracts/BusinessConsensus4.sol\":3524:3534  msg.sender */\n      caller\n        /* \"contracts/BusinessConsensus4.sol\":3524:3560  msg.sender == initiators[_messageID] */\n      0xffffffffffffffffffffffffffffffffffffffff\n      and\n      eq\n        /* \"contracts/BusinessConsensus4.sol\":3502:3628  require(\r... */\n      tag_213\n      jumpi\n      mload(0x40)\n      0x08c379a000000000000000000000000000000000000000000000000000000000\n      dup2\n      mstore\n      0x04\n      add\n      tag_214\n      swap1\n      tag_215\n      jump\t// in\n    tag_214:\n      mload(0x40)\n      dup1\n      swap2\n      sub\n      swap1\n      revert\n    tag_213:\n        /* \"contracts/BusinessConsensus4.sol\":3656:3666  initiators */\n      0x00\n        /* \"contracts/BusinessConsensus4.sol\":3656:3678  initiators[_messageID] */\n      dup1\n        /* \"contracts/BusinessConsensus4.sol\":3667:3677  _messageID */\n      dup3\n        /* \"contracts/BusinessConsensus4.sol\":3656:3678  initiators[_messageID] */\n      dup2\n      mstore\n      0x20\n      add\n      swap1\n      dup2\n      mstore\n      0x20\n      add\n      0x00\n      keccak256\n      0x00\n      swap1\n      sload\n      swap1\n      0x0100\n      exp\n      swap1\n      div\n      0xffffffffffffffffffffffffffffffffffffffff\n      and\n        /* \"contracts/BusinessConsensus4.sol\":3647:3678  voter != initiators[_messageID] */\n      0xffffffffffffffffffffffffffffffffffffffff\n      and\n        /* \"contracts/BusinessConsensus4.sol\":3647:3652  voter */\n      dup3\n        /* \"contracts/BusinessConsensus4.sol\":3647:3678  voter != initiators[_messageID] */\n      0xffffffffffffffffffffffffffffffffffffffff\n      and\n      eq\n      iszero\n        /* \"contracts/BusinessConsensus4.sol\":3639:3704  require(voter != initiators[_messageID], \"Initiator can't vote!\") */\n      tag_216\n      jumpi\n      mload(0x40)\n      0x08c379a000000000000000000000000000000000000000000000000000000000\n      dup2\n      mstore\n      0x04\n      add\n      tag_217\n      swap1\n      tag_218\n      jump\t// in\n    tag_217:\n      mload(0x40)\n      dup1\n      swap2\n      sub\n      swap1\n      revert\n    tag_216:\n        /* \"contracts/BusinessConsensus4.sol\":3776:3777  0 */\n      0x00\n        /* \"contracts/BusinessConsensus4.sol\":3725:3778  voter_maps[_messageID][voter].recipient == address(0) */\n      0xffffffffffffffffffffffffffffffffffffffff\n      and\n        /* \"contracts/BusinessConsensus4.sol\":3725:3735  voter_maps */\n      0x0c\n        /* \"contracts/BusinessConsensus4.sol\":3725:3747  voter_maps[_messageID] */\n      0x00\n        /* \"contracts/BusinessConsensus4.sol\":3736:3746  _messageID */\n      dup4\n        /* \"contracts/BusinessConsensus4.sol\":3725:3747  voter_maps[_messageID] */\n      dup2\n      mstore\n      0x20\n      add\n      swap1\n      dup2\n      mstore\n      0x20\n      add\n      0x00\n      keccak256\n        /* \"contracts/BusinessConsensus4.sol\":3725:3754  voter_maps[_messageID][voter] */\n      0x00\n        /* \"contracts/BusinessConsensus4.sol\":3748:3753  voter */\n      dup5\n        /* \"contracts/BusinessConsensus4.sol\":3725:3754  voter_maps[_messageID][voter] */\n      0xffffffffffffffffffffffffffffffffffffffff\n      and\n      0xffffffffffffffffffffffffffffffffffffffff\n      and\n      dup2\n      mstore\n      0x20\n      add\n      swap1\n      dup2\n      mstore\n      0x20\n      add\n      0x00\n      keccak256\n        /* \"contracts/BusinessConsensus4.sol\":3725:3764  voter_maps[_messageID][voter].recipient */\n      0x00\n      add\n      0x02\n      swap1\n      sload\n      swap1\n      0x0100\n      exp\n      swap1\n      div\n      0xffffffffffffffffffffffffffffffffffffffff\n      and\n        /* \"contracts/BusinessConsensus4.sol\":3725:3778  voter_maps[_messageID][voter].recipient == address(0) */\n      0xffffffffffffffffffffffffffffffffffffffff\n      and\n      eq\n        /* \"contracts/BusinessConsensus4.sol\":3717:3814  require(voter_maps[_messageID][voter].recipient == address(0), \"Recipient is already registered\") */\n      tag_219\n      jumpi\n      mload(0x40)\n      0x08c379a000000000000000000000000000000000000000000000000000000000\n      dup2\n      mstore\n      0x04\n      add\n      tag_220\n      swap1\n      tag_221\n      jump\t// in\n    tag_220:\n      mload(0x40)\n      dup1\n      swap2\n      sub\n      swap1\n      revert\n    tag_219:\n        /* \"contracts/BusinessConsensus4.sol\":3853:3864  expiryDates */\n      0x04\n        /* \"contracts/BusinessConsensus4.sol\":3853:3876  expiryDates[_messageID] */\n      0x00\n        /* \"contracts/BusinessConsensus4.sol\":3865:3875  _messageID */\n      dup3\n        /* \"contracts/BusinessConsensus4.sol\":3853:3876  expiryDates[_messageID] */\n      dup2\n      mstore\n      0x20\n      add\n      swap1\n      dup2\n      mstore\n      0x20\n      add\n      0x00\n      keccak256\n      sload\n        /* \"contracts/BusinessConsensus4.sol\":3835:3850  block.timestamp */\n      timestamp\n        /* \"contracts/BusinessConsensus4.sol\":3835:3876  block.timestamp < expiryDates[_messageID] */\n      lt\n        /* \"contracts/BusinessConsensus4.sol\":3827:3917  require(block.timestamp < expiryDates[_messageID], \"Proposal has reached its expiry date\") */\n      tag_222\n      jumpi\n      mload(0x40)\n      0x08c379a000000000000000000000000000000000000000000000000000000000\n      dup2\n      mstore\n      0x04\n      add\n      tag_223\n      swap1\n      tag_224\n      jump\t// in\n    tag_223:\n      mload(0x40)\n      dup1\n      swap2\n      sub\n      swap1\n      revert\n    tag_222:\n        /* \"contracts/BusinessConsensus4.sol\":3930:3944  Voter memory x */\n      0x00\n        /* \"contracts/BusinessConsensus4.sol\":3947:3998  Voter({voted: false,recipient: voter, vote: false}) */\n      mload(0x40)\n      dup1\n      0x60\n      add\n      0x40\n      mstore\n      dup1\n        /* \"contracts/BusinessConsensus4.sol\":3961:3966  false */\n      0x00\n        /* \"contracts/BusinessConsensus4.sol\":3947:3998  Voter({voted: false,recipient: voter, vote: false}) */\n      iszero\n      iszero\n      dup2\n      mstore\n      0x20\n      add\n        /* \"contracts/BusinessConsensus4.sol\":3991:3996  false */\n      0x00\n        /* \"contracts/BusinessConsensus4.sol\":3947:3998  Voter({voted: false,recipient: voter, vote: false}) */\n      iszero\n      iszero\n      dup2\n      mstore\n      0x20\n      add\n        /* \"contracts/BusinessConsensus4.sol\":3978:3983  voter */\n      dup5\n        /* \"contracts/BusinessConsensus4.sol\":3947:3998  Voter({voted: false,recipient: voter, vote: false}) */\n      0xffffffffffffffffffffffffffffffffffffffff\n      and\n      dup2\n      mstore\n      pop\n        /* \"contracts/BusinessConsensus4.sol\":3930:3998  Voter memory x = Voter({voted: false,recipient: voter, vote: false}) */\n      swap1\n      pop\n        /* \"contracts/BusinessConsensus4.sol\":4041:4042  x */\n      dup1\n        /* \"contracts/BusinessConsensus4.sol\":4009:4019  voter_maps */\n      0x0c\n        /* \"contracts/BusinessConsensus4.sol\":4009:4031  voter_maps[_messageID] */\n      0x00\n        /* \"contracts/BusinessConsensus4.sol\":4020:4030  _messageID */\n      dup5\n        /* \"contracts/BusinessConsensus4.sol\":4009:4031  voter_maps[_messageID] */\n      dup2\n      mstore\n      0x20\n      add\n      swap1\n      dup2\n      mstore\n      0x20\n      add\n      0x00\n      keccak256\n        /* \"contracts/BusinessConsensus4.sol\":4009:4038  voter_maps[_messageID][voter] */\n      0x00\n        /* \"contracts/BusinessConsensus4.sol\":4032:4037  voter */\n      dup6\n        /* \"contracts/BusinessConsensus4.sol\":4009:4038  voter_maps[_messageID][voter] */\n      0xffffffffffffffffffffffffffffffffffffffff\n      and\n      0xffffffffffffffffffffffffffffffffffffffff\n      and\n      dup2\n      mstore\n      0x20\n      add\n      swap1\n      dup2\n      mstore\n      0x20\n      add\n      0x00\n      keccak256\n        /* \"contracts/BusinessConsensus4.sol\":4009:4042  voter_maps[_messageID][voter] = x */\n      0x00\n      dup3\n      add\n      mload\n      dup2\n      0x00\n      add\n      exp(0x0100, 0x00)\n      dup2\n      sload\n      dup2\n      0xff\n      mul\n      not\n      and\n      swap1\n      dup4\n      iszero\n      iszero\n      mul\n      or\n      swap1\n      sstore\n      pop\n      0x20\n      dup3\n      add\n      mload\n      dup2\n      0x00\n      add\n      exp(0x0100, 0x01)\n      dup2\n      sload\n      dup2\n      0xff\n      mul\n      not\n      and\n      swap1\n      dup4\n      iszero\n      iszero\n      mul\n      or\n      swap1\n      sstore\n      pop\n      0x40\n      dup3\n      add\n      mload\n      dup2\n      0x00\n      add\n      exp(0x0100, 0x02)\n      dup2\n      sload\n      dup2\n      0xffffffffffffffffffffffffffffffffffffffff\n      mul\n      not\n      and\n      swap1\n      dup4\n      0xffffffffffffffffffffffffffffffffffffffff\n      and\n      mul\n      or\n      swap1\n      sstore\n      pop\n      swap1\n      pop\n      pop\n        /* \"contracts/BusinessConsensus4.sol\":4053:4057  keys */\n      0x0e\n        /* \"contracts/BusinessConsensus4.sol\":4053:4069  keys[_messageID] */\n      0x00\n        /* \"contracts/BusinessConsensus4.sol\":4058:4068  _messageID */\n      dup4\n        /* \"contracts/BusinessConsensus4.sol\":4053:4069  keys[_messageID] */\n      dup2\n      mstore\n      0x20\n      add\n      swap1\n      dup2\n      mstore\n      0x20\n      add\n      0x00\n      keccak256\n        /* \"contracts/BusinessConsensus4.sol\":4075:4080  voter */\n      dup4\n        /* \"contracts/BusinessConsensus4.sol\":4053:4081  keys[_messageID].push(voter) */\n      swap1\n      dup1\n      0x01\n      dup2\n      sload\n      add\n      dup1\n      dup3\n      sstore\n      dup1\n      swap2\n      pop\n      pop\n      0x01\n      swap1\n      sub\n      swap1\n      0x00\n      mstore\n      keccak256(0x00, 0x20)\n      add\n      0x00\n      swap1\n      swap2\n      swap1\n      swap2\n      swap1\n      swap2\n      0x0100\n      exp\n      dup2\n      sload\n      dup2\n      0xffffffffffffffffffffffffffffffffffffffff\n      mul\n      not\n      and\n      swap1\n      dup4\n      0xffffffffffffffffffffffffffffffffffffffff\n      and\n      mul\n      or\n      swap1\n      sstore\n      pop\n        /* \"contracts/BusinessConsensus4.sol\":3417:4089  {\r... */\n      pop\n        /* \"contracts/BusinessConsensus4.sol\":3351:4089  function RegisterVoter(address voter,bytes32 _messageID) external {\r... */\n      pop\n      pop\n      jump\t// out\n        /* \"contracts/BusinessConsensus4.sol\":1200:2401  function createContract(bytes32 _messageID, uint256 expiry, uint256 requiredPercentage,bytes32 _contents,\r... */\n    tag_120:\n        /* \"contracts/BusinessConsensus4.sol\":1517:1518  0 */\n      0x00\n        /* \"contracts/BusinessConsensus4.sol\":1483:1519  initiators[_messageID] == address(0) */\n      0xffffffffffffffffffffffffffffffffffffffff\n      and\n        /* \"contracts/BusinessConsensus4.sol\":1483:1493  initiators */\n      0x00\n        /* \"contracts/BusinessConsensus4.sol\":1483:1505  initiators[_messageID] */\n      dup1\n        /* \"contracts/BusinessConsensus4.sol\":1494:1504  _messageID */\n      dup10\n        /* \"contracts/BusinessConsensus4.sol\":1483:1505  initiators[_messageID] */\n      dup2\n      mstore\n      0x20\n      add\n      swap1\n      dup2\n      mstore\n      0x20\n      add\n      0x00\n      keccak256\n      0x00\n      swap1\n      sload\n      swap1\n      0x0100\n      exp\n      swap1\n      div\n      0xffffffffffffffffffffffffffffffffffffffff\n      and\n        /* \"contracts/BusinessConsensus4.sol\":1483:1519  initiators[_messageID] == address(0) */\n      0xffffffffffffffffffffffffffffffffffffffff\n      and\n      eq\n        /* \"contracts/BusinessConsensus4.sol\":1475:1548  require(initiators[_messageID] == address(0),\"Proposal already created!\") */\n      tag_227\n      jumpi\n      mload(0x40)\n      0x08c379a000000000000000000000000000000000000000000000000000000000\n      dup2\n      mstore\n      0x04\n      add\n      tag_228\n      swap1\n      tag_229\n      jump\t// in\n    tag_228:\n      mload(0x40)\n      dup1\n      swap2\n      sub\n      swap1\n      revert\n    tag_227:\n        /* \"contracts/BusinessConsensus4.sol\":1588:1589  0 */\n      0x00\n        /* \"contracts/BusinessConsensus4.sol\":1563:1573  voteCounts */\n      0x02\n        /* \"contracts/BusinessConsensus4.sol\":1563:1585  voteCounts[_messageID] */\n      0x00\n        /* \"contracts/BusinessConsensus4.sol\":1574:1584  _messageID */\n      dup10\n        /* \"contracts/BusinessConsensus4.sol\":1563:1585  voteCounts[_messageID] */\n      dup2\n      mstore\n      0x20\n      add\n      swap1\n      dup2\n      mstore\n      0x20\n      add\n      0x00\n      keccak256\n        /* \"contracts/BusinessConsensus4.sol\":1563:1589  voteCounts[_messageID] = 0 */\n      dup2\n      swap1\n      sstore\n      pop\n        /* \"contracts/BusinessConsensus4.sol\":1649:1655  expiry */\n      dup6\n        /* \"contracts/BusinessConsensus4.sol\":1631:1646  block.timestamp */\n      timestamp\n        /* \"contracts/BusinessConsensus4.sol\":1631:1655  block.timestamp + expiry */\n      tag_230\n      swap2\n      swap1\n      tag_190\n      jump\t// in\n    tag_230:\n        /* \"contracts/BusinessConsensus4.sol\":1604:1615  expiryDates */\n      0x04\n        /* \"contracts/BusinessConsensus4.sol\":1604:1627  expiryDates[_messageID] */\n      0x00\n        /* \"contracts/BusinessConsensus4.sol\":1616:1626  _messageID */\n      dup10\n        /* \"contracts/BusinessConsensus4.sol\":1604:1627  expiryDates[_messageID] */\n      dup2\n      mstore\n      0x20\n      add\n      swap1\n      dup2\n      mstore\n      0x20\n      add\n      0x00\n      keccak256\n        /* \"contracts/BusinessConsensus4.sol\":1604:1655  expiryDates[_messageID] =  block.timestamp + expiry */\n      dup2\n      swap1\n      sstore\n      pop\n        /* \"contracts/BusinessConsensus4.sol\":1684:1694  _messageID */\n      dup7\n        /* \"contracts/BusinessConsensus4.sol\":1670:1673  IDs */\n      0x01\n        /* \"contracts/BusinessConsensus4.sol\":1670:1681  IDs[_keyID] */\n      0x00\n        /* \"contracts/BusinessConsensus4.sol\":1674:1680  _keyID */\n      dup4\n        /* \"contracts/BusinessConsensus4.sol\":1670:1681  IDs[_keyID] */\n      dup2\n      mstore\n      0x20\n      add\n      swap1\n      dup2\n      mstore\n      0x20\n      add\n      0x00\n      keccak256\n        /* \"contracts/BusinessConsensus4.sol\":1670:1694  IDs[_keyID] = _messageID */\n      dup2\n      swap1\n      sstore\n      pop\n        /* \"contracts/BusinessConsensus4.sol\":1734:1739  false */\n      0x00\n        /* \"contracts/BusinessConsensus4.sol\":1709:1719  isCompiled */\n      0x0a\n        /* \"contracts/BusinessConsensus4.sol\":1709:1731  isCompiled[_messageID] */\n      0x00\n        /* \"contracts/BusinessConsensus4.sol\":1720:1730  _messageID */\n      dup10\n        /* \"contracts/BusinessConsensus4.sol\":1709:1731  isCompiled[_messageID] */\n      dup2\n      mstore\n      0x20\n      add\n      swap1\n      dup2\n      mstore\n      0x20\n      add\n      0x00\n      keccak256\n      0x00\n        /* \"contracts/BusinessConsensus4.sol\":1709:1739  isCompiled[_messageID] = false */\n      0x0100\n      exp\n      dup2\n      sload\n      dup2\n      0xff\n      mul\n      not\n      and\n      swap1\n      dup4\n      iszero\n      iszero\n      mul\n      or\n      swap1\n      sstore\n      pop\n        /* \"contracts/BusinessConsensus4.sol\":1789:1807  requiredPercentage */\n      dup5\n        /* \"contracts/BusinessConsensus4.sol\":1754:1774  businessRequirements */\n      0x07\n        /* \"contracts/BusinessConsensus4.sol\":1754:1786  businessRequirements[_messageID] */\n      0x00\n        /* \"contracts/BusinessConsensus4.sol\":1775:1785  _messageID */\n      dup10\n        /* \"contracts/BusinessConsensus4.sol\":1754:1786  businessRequirements[_messageID] */\n      dup2\n      mstore\n      0x20\n      add\n      swap1\n      dup2\n      mstore\n      0x20\n      add\n      0x00\n      keccak256\n        /* \"contracts/BusinessConsensus4.sol\":1754:1807  businessRequirements[_messageID] = requiredPercentage */\n      dup2\n      swap1\n      sstore\n      pop\n        /* \"contracts/BusinessConsensus4.sol\":1853:1871  requiredPercentage */\n      dup5\n        /* \"contracts/BusinessConsensus4.sol\":1822:1842  businessRequirements */\n      0x07\n        /* \"contracts/BusinessConsensus4.sol\":1822:1850  businessRequirements[_keyID] */\n      0x00\n        /* \"contracts/BusinessConsensus4.sol\":1843:1849  _keyID */\n      dup4\n        /* \"contracts/BusinessConsensus4.sol\":1822:1850  businessRequirements[_keyID] */\n      dup2\n      mstore\n      0x20\n      add\n      swap1\n      dup2\n      mstore\n      0x20\n      add\n      0x00\n      keccak256\n        /* \"contracts/BusinessConsensus4.sol\":1822:1871  businessRequirements[_keyID] = requiredPercentage */\n      dup2\n      swap1\n      sstore\n      pop\n        /* \"contracts/BusinessConsensus4.sol\":1914:1919  false */\n      0x00\n        /* \"contracts/BusinessConsensus4.sol\":1886:1899  finalVerdicts */\n      0x09\n        /* \"contracts/BusinessConsensus4.sol\":1886:1911  finalVerdicts[_messageID] */\n      0x00\n        /* \"contracts/BusinessConsensus4.sol\":1900:1910  _messageID */\n      dup10\n        /* \"contracts/BusinessConsensus4.sol\":1886:1911  finalVerdicts[_messageID] */\n      dup2\n      mstore\n      0x20\n      add\n      swap1\n      dup2\n      mstore\n      0x20\n      add\n      0x00\n      keccak256\n      0x00\n        /* \"contracts/BusinessConsensus4.sol\":1886:1919  finalVerdicts[_messageID] = false */\n      0x0100\n      exp\n      dup2\n      sload\n      dup2\n      0xff\n      mul\n      not\n      and\n      swap1\n      dup4\n      iszero\n      iszero\n      mul\n      or\n      swap1\n      sstore\n      pop\n        /* \"contracts/BusinessConsensus4.sol\":1962:1968  expiry */\n      dup6\n        /* \"contracts/BusinessConsensus4.sol\":1934:1947  expiryLengths */\n      0x03\n        /* \"contracts/BusinessConsensus4.sol\":1934:1959  expiryLengths[_messageID] */\n      0x00\n        /* \"contracts/BusinessConsensus4.sol\":1948:1958  _messageID */\n      dup10\n        /* \"contracts/BusinessConsensus4.sol\":1934:1959  expiryLengths[_messageID] */\n      dup2\n      mstore\n      0x20\n      add\n      swap1\n      dup2\n      mstore\n      0x20\n      add\n      0x00\n      keccak256\n        /* \"contracts/BusinessConsensus4.sol\":1934:1968  expiryLengths[_messageID] = expiry */\n      dup2\n      swap1\n      sstore\n      pop\n        /* \"contracts/BusinessConsensus4.sol\":2007:2013  expiry */\n      dup6\n        /* \"contracts/BusinessConsensus4.sol\":1983:1996  expiryLengths */\n      0x03\n        /* \"contracts/BusinessConsensus4.sol\":1983:2004  expiryLengths[_keyID] */\n      0x00\n        /* \"contracts/BusinessConsensus4.sol\":1997:2003  _keyID */\n      dup4\n        /* \"contracts/BusinessConsensus4.sol\":1983:2004  expiryLengths[_keyID] */\n      dup2\n      mstore\n      0x20\n      add\n      swap1\n      dup2\n      mstore\n      0x20\n      add\n      0x00\n      keccak256\n        /* \"contracts/BusinessConsensus4.sol\":1983:2013  expiryLengths[_keyID] = expiry */\n      dup2\n      swap1\n      sstore\n      pop\n        /* \"contracts/BusinessConsensus4.sol\":2051:2060  _contents */\n      dup4\n        /* \"contracts/BusinessConsensus4.sol\":2028:2036  contents */\n      0x05\n        /* \"contracts/BusinessConsensus4.sol\":2028:2048  contents[_messageID] */\n      0x00\n        /* \"contracts/BusinessConsensus4.sol\":2037:2047  _messageID */\n      dup10\n        /* \"contracts/BusinessConsensus4.sol\":2028:2048  contents[_messageID] */\n      dup2\n      mstore\n      0x20\n      add\n      swap1\n      dup2\n      mstore\n      0x20\n      add\n      0x00\n      keccak256\n        /* \"contracts/BusinessConsensus4.sol\":2028:2060  contents[_messageID] = _contents */\n      dup2\n      swap1\n      sstore\n      pop\n        /* \"contracts/BusinessConsensus4.sol\":2094:2103  _contents */\n      dup4\n        /* \"contracts/BusinessConsensus4.sol\":2075:2083  contents */\n      0x05\n        /* \"contracts/BusinessConsensus4.sol\":2075:2091  contents[_keyID] */\n      0x00\n        /* \"contracts/BusinessConsensus4.sol\":2084:2090  _keyID */\n      dup4\n        /* \"contracts/BusinessConsensus4.sol\":2075:2091  contents[_keyID] */\n      dup2\n      mstore\n      0x20\n      add\n      swap1\n      dup2\n      mstore\n      0x20\n      add\n      0x00\n      keccak256\n        /* \"contracts/BusinessConsensus4.sol\":2075:2103  contents[_keyID] = _contents */\n      dup2\n      swap1\n      sstore\n      pop\n        /* \"contracts/BusinessConsensus4.sol\":2141:2148  subject */\n      dup3\n        /* \"contracts/BusinessConsensus4.sol\":2118:2126  subjects */\n      0x0b\n        /* \"contracts/BusinessConsensus4.sol\":2118:2138  subjects[_messageID] */\n      0x00\n        /* \"contracts/BusinessConsensus4.sol\":2127:2137  _messageID */\n      dup10\n        /* \"contracts/BusinessConsensus4.sol\":2118:2138  subjects[_messageID] */\n      dup2\n      mstore\n      0x20\n      add\n      swap1\n      dup2\n      mstore\n      0x20\n      add\n      0x00\n      keccak256\n        /* \"contracts/BusinessConsensus4.sol\":2118:2148  subjects[_messageID] = subject */\n      dup2\n      swap1\n      sstore\n      pop\n        /* \"contracts/BusinessConsensus4.sol\":2190:2202  _messageDate */\n      dup2\n        /* \"contracts/BusinessConsensus4.sol\":2163:2175  messageDates */\n      0x08\n        /* \"contracts/BusinessConsensus4.sol\":2163:2187  messageDates[_messageID] */\n      0x00\n        /* \"contracts/BusinessConsensus4.sol\":2176:2186  _messageID */\n      dup10\n        /* \"contracts/BusinessConsensus4.sol\":2163:2187  messageDates[_messageID] */\n      dup2\n      mstore\n      0x20\n      add\n      swap1\n      dup2\n      mstore\n      0x20\n      add\n      0x00\n      keccak256\n        /* \"contracts/BusinessConsensus4.sol\":2163:2202  messageDates[_messageID] = _messageDate */\n      swap1\n      dup1\n      mload\n      swap1\n      0x20\n      add\n      swap1\n      tag_231\n      swap3\n      swap2\n      swap1\n      tag_232\n      jump\t// in\n    tag_231:\n      pop\n        /* \"contracts/BusinessConsensus4.sol\":2240:2252  _messageDate */\n      dup2\n        /* \"contracts/BusinessConsensus4.sol\":2217:2229  messageDates */\n      0x08\n        /* \"contracts/BusinessConsensus4.sol\":2217:2237  messageDates[_keyID] */\n      0x00\n        /* \"contracts/BusinessConsensus4.sol\":2230:2236  _keyID */\n      dup4\n        /* \"contracts/BusinessConsensus4.sol\":2217:2237  messageDates[_keyID] */\n      dup2\n      mstore\n      0x20\n      add\n      swap1\n      dup2\n      mstore\n      0x20\n      add\n      0x00\n      keccak256\n        /* \"contracts/BusinessConsensus4.sol\":2217:2252  messageDates[_keyID] = _messageDate */\n      swap1\n      dup1\n      mload\n      swap1\n      0x20\n      add\n      swap1\n      tag_233\n      swap3\n      swap2\n      swap1\n      tag_232\n      jump\t// in\n    tag_233:\n      pop\n        /* \"contracts/BusinessConsensus4.sol\":2294:2295  0 */\n      0x00\n        /* \"contracts/BusinessConsensus4.sol\":2267:2279  numApprovals */\n      0x06\n        /* \"contracts/BusinessConsensus4.sol\":2267:2291  numApprovals[_messageID] */\n      0x00\n        /* \"contracts/BusinessConsensus4.sol\":2280:2290  _messageID */\n      dup10\n        /* \"contracts/BusinessConsensus4.sol\":2267:2291  numApprovals[_messageID] */\n      dup2\n      mstore\n      0x20\n      add\n      swap1\n      dup2\n      mstore\n      0x20\n      add\n      0x00\n      keccak256\n        /* \"contracts/BusinessConsensus4.sol\":2267:2295  numApprovals[_messageID] = 0 */\n      dup2\n      swap1\n      sstore\n      pop\n        /* \"contracts/BusinessConsensus4.sol\":2335:2345  msg.sender */\n      caller\n        /* \"contracts/BusinessConsensus4.sol\":2310:2320  initiators */\n      0x00\n        /* \"contracts/BusinessConsensus4.sol\":2310:2332  initiators[_messageID] */\n      dup1\n        /* \"contracts/BusinessConsensus4.sol\":2321:2331  _messageID */\n      dup10\n        /* \"contracts/BusinessConsensus4.sol\":2310:2332  initiators[_messageID] */\n      dup2\n      mstore\n      0x20\n      add\n      swap1\n      dup2\n      mstore\n      0x20\n      add\n      0x00\n      keccak256\n      0x00\n        /* \"contracts/BusinessConsensus4.sol\":2310:2345  initiators[_messageID] = msg.sender */\n      0x0100\n      exp\n      dup2\n      sload\n      dup2\n      0xffffffffffffffffffffffffffffffffffffffff\n      mul\n      not\n      and\n      swap1\n      dup4\n      0xffffffffffffffffffffffffffffffffffffffff\n      and\n      mul\n      or\n      swap1\n      sstore\n      pop\n        /* \"contracts/BusinessConsensus4.sol\":2381:2391  msg.sender */\n      caller\n        /* \"contracts/BusinessConsensus4.sol\":2360:2370  initiators */\n      0x00\n        /* \"contracts/BusinessConsensus4.sol\":2360:2378  initiators[_keyID] */\n      dup1\n        /* \"contracts/BusinessConsensus4.sol\":2371:2377  _keyID */\n      dup4\n        /* \"contracts/BusinessConsensus4.sol\":2360:2378  initiators[_keyID] */\n      dup2\n      mstore\n      0x20\n      add\n      swap1\n      dup2\n      mstore\n      0x20\n      add\n      0x00\n      keccak256\n      0x00\n        /* \"contracts/BusinessConsensus4.sol\":2360:2391  initiators[_keyID] = msg.sender */\n      0x0100\n      exp\n      dup2\n      sload\n      dup2\n      0xffffffffffffffffffffffffffffffffffffffff\n      mul\n      not\n      and\n      swap1\n      dup4\n      0xffffffffffffffffffffffffffffffffffffffff\n      and\n      mul\n      or\n      swap1\n      sstore\n      pop\n        /* \"contracts/BusinessConsensus4.sol\":1200:2401  function createContract(bytes32 _messageID, uint256 expiry, uint256 requiredPercentage,bytes32 _contents,\r... */\n      pop\n      pop\n      pop\n      pop\n      pop\n      pop\n      pop\n      jump\t// out\n        /* \"contracts/BusinessConsensus4.sol\":716:763  mapping(bytes32 => uint256) public numApprovals */\n    tag_123:\n      mstore(0x20, 0x06)\n      dup1\n      0x00\n      mstore\n      keccak256(0x00, 0x40)\n      0x00\n      swap2\n      pop\n      swap1\n      pop\n      sload\n      dup2\n      jump\t// out\n        /* \"contracts/BusinessConsensus4.sol\":462:499  mapping(bytes32 =>bytes32) public IDs */\n    tag_127:\n      mstore(0x20, 0x01)\n      dup1\n      0x00\n      mstore\n      keccak256(0x00, 0x40)\n      0x00\n      swap2\n      pop\n      swap1\n      pop\n      sload\n      dup2\n      jump\t// out\n        /* \"contracts/BusinessConsensus4.sol\":666:709  mapping(bytes32 => bytes32) public contents */\n    tag_131:\n      mstore(0x20, 0x05)\n      dup1\n      0x00\n      mstore\n      keccak256(0x00, 0x40)\n      0x00\n      swap2\n      pop\n      swap1\n      pop\n      sload\n      dup2\n      jump\t// out\n    tag_232:\n      dup3\n      dup1\n      sload\n      tag_234\n      swap1\n      tag_202\n      jump\t// in\n    tag_234:\n      swap1\n      0x00\n      mstore\n      keccak256(0x00, 0x20)\n      swap1\n      0x1f\n      add\n      0x20\n      swap1\n      div\n      dup2\n      add\n      swap3\n      dup3\n      tag_236\n      jumpi\n      0x00\n      dup6\n      sstore\n      jump(tag_235)\n    tag_236:\n      dup3\n      0x1f\n      lt\n      tag_237\n      jumpi\n      dup1\n      mload\n      not(0xff)\n      and\n      dup4\n      dup1\n      add\n      or\n      dup6\n      sstore\n      jump(tag_235)\n    tag_237:\n      dup3\n      dup1\n      add\n      0x01\n      add\n      dup6\n      sstore\n      dup3\n      iszero\n      tag_235\n      jumpi\n      swap2\n      dup3\n      add\n    tag_238:\n      dup3\n      dup2\n      gt\n      iszero\n      tag_239\n      jumpi\n      dup3\n      mload\n      dup3\n      sstore\n      swap2\n      0x20\n      add\n      swap2\n      swap1\n      0x01\n      add\n      swap1\n      jump(tag_238)\n    tag_239:\n    tag_235:\n      pop\n      swap1\n      pop\n      tag_240\n      swap2\n      swap1\n      tag_241\n      jump\t// in\n    tag_240:\n      pop\n      swap1\n      jump\t// out\n    tag_241:\n    tag_242:\n      dup1\n      dup3\n      gt\n      iszero\n      tag_243\n      jumpi\n      0x00\n      dup2\n      0x00\n      swap1\n      sstore\n      pop\n      0x01\n      add\n      jump(tag_242)\n    tag_243:\n      pop\n      swap1\n      jump\t// out\n        /* \"#utility.yul\":7:419   */\n    tag_245:\n        /* \"#utility.yul\":85:90   */\n      0x00\n        /* \"#utility.yul\":110:176   */\n      tag_247\n        /* \"#utility.yul\":126:175   */\n      tag_248\n        /* \"#utility.yul\":168:174   */\n      dup5\n        /* \"#utility.yul\":126:175   */\n      tag_249\n      jump\t// in\n    tag_248:\n        /* \"#utility.yul\":110:176   */\n      tag_250\n      jump\t// in\n    tag_247:\n        /* \"#utility.yul\":101:176   */\n      swap1\n      pop\n        /* \"#utility.yul\":199:205   */\n      dup3\n        /* \"#utility.yul\":192:197   */\n      dup2\n        /* \"#utility.yul\":185:206   */\n      mstore\n        /* \"#utility.yul\":237:241   */\n      0x20\n        /* \"#utility.yul\":230:235   */\n      dup2\n        /* \"#utility.yul\":226:242   */\n      add\n        /* \"#utility.yul\":275:278   */\n      dup5\n        /* \"#utility.yul\":266:272   */\n      dup5\n        /* \"#utility.yul\":261:264   */\n      dup5\n        /* \"#utility.yul\":257:273   */\n      add\n        /* \"#utility.yul\":254:279   */\n      gt\n        /* \"#utility.yul\":251:363   */\n      iszero\n      tag_251\n      jumpi\n        /* \"#utility.yul\":282:361   */\n      tag_252\n      tag_253\n      jump\t// in\n    tag_252:\n        /* \"#utility.yul\":251:363   */\n    tag_251:\n        /* \"#utility.yul\":372:413   */\n      tag_254\n        /* \"#utility.yul\":406:412   */\n      dup5\n        /* \"#utility.yul\":401:404   */\n      dup3\n        /* \"#utility.yul\":396:399   */\n      dup6\n        /* \"#utility.yul\":372:413   */\n      tag_255\n      jump\t// in\n    tag_254:\n        /* \"#utility.yul\":91:419   */\n      pop\n        /* \"#utility.yul\":7:419   */\n      swap4\n      swap3\n      pop\n      pop\n      pop\n      jump\t// out\n        /* \"#utility.yul\":425:564   */\n    tag_256:\n        /* \"#utility.yul\":471:476   */\n      0x00\n        /* \"#utility.yul\":509:515   */\n      dup2\n        /* \"#utility.yul\":496:516   */\n      calldataload\n        /* \"#utility.yul\":487:516   */\n      swap1\n      pop\n        /* \"#utility.yul\":525:558   */\n      tag_258\n        /* \"#utility.yul\":552:557   */\n      dup2\n        /* \"#utility.yul\":525:558   */\n      tag_259\n      jump\t// in\n    tag_258:\n        /* \"#utility.yul\":425:564   */\n      swap3\n      swap2\n      pop\n      pop\n      jump\t// out\n        /* \"#utility.yul\":570:709   */\n    tag_260:\n        /* \"#utility.yul\":616:621   */\n      0x00\n        /* \"#utility.yul\":654:660   */\n      dup2\n        /* \"#utility.yul\":641:661   */\n      calldataload\n        /* \"#utility.yul\":632:661   */\n      swap1\n      pop\n        /* \"#utility.yul\":670:703   */\n      tag_262\n        /* \"#utility.yul\":697:702   */\n      dup2\n        /* \"#utility.yul\":670:703   */\n      tag_263\n      jump\t// in\n    tag_262:\n        /* \"#utility.yul\":570:709   */\n      swap3\n      swap2\n      pop\n      pop\n      jump\t// out\n        /* \"#utility.yul\":729:1069   */\n    tag_264:\n        /* \"#utility.yul\":785:790   */\n      0x00\n        /* \"#utility.yul\":834:837   */\n      dup3\n        /* \"#utility.yul\":827:831   */\n      0x1f\n        /* \"#utility.yul\":819:825   */\n      dup4\n        /* \"#utility.yul\":815:832   */\n      add\n        /* \"#utility.yul\":811:838   */\n      slt\n        /* \"#utility.yul\":801:923   */\n      tag_266\n      jumpi\n        /* \"#utility.yul\":842:921   */\n      tag_267\n      tag_268\n      jump\t// in\n    tag_267:\n        /* \"#utility.yul\":801:923   */\n    tag_266:\n        /* \"#utility.yul\":959:965   */\n      dup2\n        /* \"#utility.yul\":946:966   */\n      calldataload\n        /* \"#utility.yul\":984:1063   */\n      tag_269\n        /* \"#utility.yul\":1059:1062   */\n      dup5\n        /* \"#utility.yul\":1051:1057   */\n      dup3\n        /* \"#utility.yul\":1044:1048   */\n      0x20\n        /* \"#utility.yul\":1036:1042   */\n      dup7\n        /* \"#utility.yul\":1032:1049   */\n      add\n        /* \"#utility.yul\":984:1063   */\n      tag_245\n      jump\t// in\n    tag_269:\n        /* \"#utility.yul\":975:1063   */\n      swap2\n      pop\n        /* \"#utility.yul\":791:1069   */\n      pop\n        /* \"#utility.yul\":729:1069   */\n      swap3\n      swap2\n      pop\n      pop\n      jump\t// out\n        /* \"#utility.yul\":1075:1214   */\n    tag_270:\n        /* \"#utility.yul\":1121:1126   */\n      0x00\n        /* \"#utility.yul\":1159:1165   */\n      dup2\n        /* \"#utility.yul\":1146:1166   */\n      calldataload\n        /* \"#utility.yul\":1137:1166   */\n      swap1\n      pop\n        /* \"#utility.yul\":1175:1208   */\n      tag_272\n        /* \"#utility.yul\":1202:1207   */\n      dup2\n        /* \"#utility.yul\":1175:1208   */\n      tag_273\n      jump\t// in\n    tag_272:\n        /* \"#utility.yul\":1075:1214   */\n      swap3\n      swap2\n      pop\n      pop\n      jump\t// out\n        /* \"#utility.yul\":1220:1694   */\n    tag_115:\n        /* \"#utility.yul\":1288:1294   */\n      0x00\n        /* \"#utility.yul\":1296:1302   */\n      dup1\n        /* \"#utility.yul\":1345:1347   */\n      0x40\n        /* \"#utility.yul\":1333:1342   */\n      dup4\n        /* \"#utility.yul\":1324:1331   */\n      dup6\n        /* \"#utility.yul\":1320:1343   */\n      sub\n        /* \"#utility.yul\":1316:1348   */\n      slt\n        /* \"#utility.yul\":1313:1432   */\n      iszero\n      tag_275\n      jumpi\n        /* \"#utility.yul\":1351:1430   */\n      tag_276\n      tag_277\n      jump\t// in\n    tag_276:\n        /* \"#utility.yul\":1313:1432   */\n    tag_275:\n        /* \"#utility.yul\":1471:1472   */\n      0x00\n        /* \"#utility.yul\":1496:1549   */\n      tag_278\n        /* \"#utility.yul\":1541:1548   */\n      dup6\n        /* \"#utility.yul\":1532:1538   */\n      dup3\n        /* \"#utility.yul\":1521:1530   */\n      dup7\n        /* \"#utility.yul\":1517:1539   */\n      add\n        /* \"#utility.yul\":1496:1549   */\n      tag_256\n      jump\t// in\n    tag_278:\n        /* \"#utility.yul\":1486:1549   */\n      swap3\n      pop\n        /* \"#utility.yul\":1442:1559   */\n      pop\n        /* \"#utility.yul\":1598:1600   */\n      0x20\n        /* \"#utility.yul\":1624:1677   */\n      tag_279\n        /* \"#utility.yul\":1669:1676   */\n      dup6\n        /* \"#utility.yul\":1660:1666   */\n      dup3\n        /* \"#utility.yul\":1649:1658   */\n      dup7\n        /* \"#utility.yul\":1645:1667   */\n      add\n        /* \"#utility.yul\":1624:1677   */\n      tag_260\n      jump\t// in\n    tag_279:\n        /* \"#utility.yul\":1614:1677   */\n      swap2\n      pop\n        /* \"#utility.yul\":1569:1687   */\n      pop\n        /* \"#utility.yul\":1220:1694   */\n      swap3\n      pop\n      swap3\n      swap1\n      pop\n      jump\t// out\n        /* \"#utility.yul\":1700:2029   */\n    tag_31:\n        /* \"#utility.yul\":1759:1765   */\n      0x00\n        /* \"#utility.yul\":1808:1810   */\n      0x20\n        /* \"#utility.yul\":1796:1805   */\n      dup3\n        /* \"#utility.yul\":1787:1794   */\n      dup5\n        /* \"#utility.yul\":1783:1806   */\n      sub\n        /* \"#utility.yul\":1779:1811   */\n      slt\n        /* \"#utility.yul\":1776:1895   */\n      iszero\n      tag_281\n      jumpi\n        /* \"#utility.yul\":1814:1893   */\n      tag_282\n      tag_277\n      jump\t// in\n    tag_282:\n        /* \"#utility.yul\":1776:1895   */\n    tag_281:\n        /* \"#utility.yul\":1934:1935   */\n      0x00\n        /* \"#utility.yul\":1959:2012   */\n      tag_283\n        /* \"#utility.yul\":2004:2011   */\n      dup5\n        /* \"#utility.yul\":1995:2001   */\n      dup3\n        /* \"#utility.yul\":1984:1993   */\n      dup6\n        /* \"#utility.yul\":1980:2002   */\n      add\n        /* \"#utility.yul\":1959:2012   */\n      tag_260\n      jump\t// in\n    tag_283:\n        /* \"#utility.yul\":1949:2012   */\n      swap2\n      pop\n        /* \"#utility.yul\":1905:2022   */\n      pop\n        /* \"#utility.yul\":1700:2029   */\n      swap3\n      swap2\n      pop\n      pop\n      jump\t// out\n        /* \"#utility.yul\":2035:2509   */\n    tag_106:\n        /* \"#utility.yul\":2103:2109   */\n      0x00\n        /* \"#utility.yul\":2111:2117   */\n      dup1\n        /* \"#utility.yul\":2160:2162   */\n      0x40\n        /* \"#utility.yul\":2148:2157   */\n      dup4\n        /* \"#utility.yul\":2139:2146   */\n      dup6\n        /* \"#utility.yul\":2135:2158   */\n      sub\n        /* \"#utility.yul\":2131:2163   */\n      slt\n        /* \"#utility.yul\":2128:2247   */\n      iszero\n      tag_285\n      jumpi\n        /* \"#utility.yul\":2166:2245   */\n      tag_286\n      tag_277\n      jump\t// in\n    tag_286:\n        /* \"#utility.yul\":2128:2247   */\n    tag_285:\n        /* \"#utility.yul\":2286:2287   */\n      0x00\n        /* \"#utility.yul\":2311:2364   */\n      tag_287\n        /* \"#utility.yul\":2356:2363   */\n      dup6\n        /* \"#utility.yul\":2347:2353   */\n      dup3\n        /* \"#utility.yul\":2336:2345   */\n      dup7\n        /* \"#utility.yul\":2332:2354   */\n      add\n        /* \"#utility.yul\":2311:2364   */\n      tag_260\n      jump\t// in\n    tag_287:\n        /* \"#utility.yul\":2301:2364   */\n      swap3\n      pop\n        /* \"#utility.yul\":2257:2374   */\n      pop\n        /* \"#utility.yul\":2413:2415   */\n      0x20\n        /* \"#utility.yul\":2439:2492   */\n      tag_288\n        /* \"#utility.yul\":2484:2491   */\n      dup6\n        /* \"#utility.yul\":2475:2481   */\n      dup3\n        /* \"#utility.yul\":2464:2473   */\n      dup7\n        /* \"#utility.yul\":2460:2482   */\n      add\n        /* \"#utility.yul\":2439:2492   */\n      tag_256\n      jump\t// in\n    tag_288:\n        /* \"#utility.yul\":2429:2492   */\n      swap2\n      pop\n        /* \"#utility.yul\":2384:2502   */\n      pop\n        /* \"#utility.yul\":2035:2509   */\n      swap3\n      pop\n      swap3\n      swap1\n      pop\n      jump\t// out\n        /* \"#utility.yul\":2515:2989   */\n    tag_53:\n        /* \"#utility.yul\":2583:2589   */\n      0x00\n        /* \"#utility.yul\":2591:2597   */\n      dup1\n        /* \"#utility.yul\":2640:2642   */\n      0x40\n        /* \"#utility.yul\":2628:2637   */\n      dup4\n        /* \"#utility.yul\":2619:2626   */\n      dup6\n        /* \"#utility.yul\":2615:2638   */\n      sub\n        /* \"#utility.yul\":2611:2643   */\n      slt\n        /* \"#utility.yul\":2608:2727   */\n      iszero\n      tag_290\n      jumpi\n        /* \"#utility.yul\":2646:2725   */\n      tag_291\n      tag_277\n      jump\t// in\n    tag_291:\n        /* \"#utility.yul\":2608:2727   */\n    tag_290:\n        /* \"#utility.yul\":2766:2767   */\n      0x00\n        /* \"#utility.yul\":2791:2844   */\n      tag_292\n        /* \"#utility.yul\":2836:2843   */\n      dup6\n        /* \"#utility.yul\":2827:2833   */\n      dup3\n        /* \"#utility.yul\":2816:2825   */\n      dup7\n        /* \"#utility.yul\":2812:2834   */\n      add\n        /* \"#utility.yul\":2791:2844   */\n      tag_260\n      jump\t// in\n    tag_292:\n        /* \"#utility.yul\":2781:2844   */\n      swap3\n      pop\n        /* \"#utility.yul\":2737:2854   */\n      pop\n        /* \"#utility.yul\":2893:2895   */\n      0x20\n        /* \"#utility.yul\":2919:2972   */\n      tag_293\n        /* \"#utility.yul\":2964:2971   */\n      dup6\n        /* \"#utility.yul\":2955:2961   */\n      dup3\n        /* \"#utility.yul\":2944:2953   */\n      dup7\n        /* \"#utility.yul\":2940:2962   */\n      add\n        /* \"#utility.yul\":2919:2972   */\n      tag_270\n      jump\t// in\n    tag_293:\n        /* \"#utility.yul\":2909:2972   */\n      swap2\n      pop\n        /* \"#utility.yul\":2864:2982   */\n      pop\n        /* \"#utility.yul\":2515:2989   */\n      swap3\n      pop\n      swap3\n      swap1\n      pop\n      jump\t// out\n        /* \"#utility.yul\":2995:3760   */\n    tag_42:\n        /* \"#utility.yul\":3081:3087   */\n      0x00\n        /* \"#utility.yul\":3089:3095   */\n      dup1\n        /* \"#utility.yul\":3097:3103   */\n      0x00\n        /* \"#utility.yul\":3105:3111   */\n      dup1\n        /* \"#utility.yul\":3154:3157   */\n      0x80\n        /* \"#utility.yul\":3142:3151   */\n      dup6\n        /* \"#utility.yul\":3133:3140   */\n      dup8\n        /* \"#utility.yul\":3129:3152   */\n      sub\n        /* \"#utility.yul\":3125:3158   */\n      slt\n        /* \"#utility.yul\":3122:3242   */\n      iszero\n      tag_295\n      jumpi\n        /* \"#utility.yul\":3161:3240   */\n      tag_296\n      tag_277\n      jump\t// in\n    tag_296:\n        /* \"#utility.yul\":3122:3242   */\n    tag_295:\n        /* \"#utility.yul\":3281:3282   */\n      0x00\n        /* \"#utility.yul\":3306:3359   */\n      tag_297\n        /* \"#utility.yul\":3351:3358   */\n      dup8\n        /* \"#utility.yul\":3342:3348   */\n      dup3\n        /* \"#utility.yul\":3331:3340   */\n      dup9\n        /* \"#utility.yul\":3327:3349   */\n      add\n        /* \"#utility.yul\":3306:3359   */\n      tag_260\n      jump\t// in\n    tag_297:\n        /* \"#utility.yul\":3296:3359   */\n      swap5\n      pop\n        /* \"#utility.yul\":3252:3369   */\n      pop\n        /* \"#utility.yul\":3408:3410   */\n      0x20\n        /* \"#utility.yul\":3434:3487   */\n      tag_298\n        /* \"#utility.yul\":3479:3486   */\n      dup8\n        /* \"#utility.yul\":3470:3476   */\n      dup3\n        /* \"#utility.yul\":3459:3468   */\n      dup9\n        /* \"#utility.yul\":3455:3477   */\n      add\n        /* \"#utility.yul\":3434:3487   */\n      tag_270\n      jump\t// in\n    tag_298:\n        /* \"#utility.yul\":3424:3487   */\n      swap4\n      pop\n        /* \"#utility.yul\":3379:3497   */\n      pop\n        /* \"#utility.yul\":3536:3538   */\n      0x40\n        /* \"#utility.yul\":3562:3615   */\n      tag_299\n        /* \"#utility.yul\":3607:3614   */\n      dup8\n        /* \"#utility.yul\":3598:3604   */\n      dup3\n        /* \"#utility.yul\":3587:3596   */\n      dup9\n        /* \"#utility.yul\":3583:3605   */\n      add\n        /* \"#utility.yul\":3562:3615   */\n      tag_270\n      jump\t// in\n    tag_299:\n        /* \"#utility.yul\":3552:3615   */\n      swap3\n      pop\n        /* \"#utility.yul\":3507:3625   */\n      pop\n        /* \"#utility.yul\":3664:3666   */\n      0x60\n        /* \"#utility.yul\":3690:3743   */\n      tag_300\n        /* \"#utility.yul\":3735:3742   */\n      dup8\n        /* \"#utility.yul\":3726:3732   */\n      dup3\n        /* \"#utility.yul\":3715:3724   */\n      dup9\n        /* \"#utility.yul\":3711:3733   */\n      add\n        /* \"#utility.yul\":3690:3743   */\n      tag_260\n      jump\t// in\n    tag_300:\n        /* \"#utility.yul\":3680:3743   */\n      swap2\n      pop\n        /* \"#utility.yul\":3635:3753   */\n      pop\n        /* \"#utility.yul\":2995:3760   */\n      swap3\n      swap6\n      swap2\n      swap5\n      pop\n      swap3\n      pop\n      jump\t// out\n        /* \"#utility.yul\":3766:5149   */\n    tag_119:\n        /* \"#utility.yul\":3889:3895   */\n      0x00\n        /* \"#utility.yul\":3897:3903   */\n      dup1\n        /* \"#utility.yul\":3905:3911   */\n      0x00\n        /* \"#utility.yul\":3913:3919   */\n      dup1\n        /* \"#utility.yul\":3921:3927   */\n      0x00\n        /* \"#utility.yul\":3929:3935   */\n      dup1\n        /* \"#utility.yul\":3937:3943   */\n      0x00\n        /* \"#utility.yul\":3986:3989   */\n      0xe0\n        /* \"#utility.yul\":3974:3983   */\n      dup9\n        /* \"#utility.yul\":3965:3972   */\n      dup11\n        /* \"#utility.yul\":3961:3984   */\n      sub\n        /* \"#utility.yul\":3957:3990   */\n      slt\n        /* \"#utility.yul\":3954:4074   */\n      iszero\n      tag_302\n      jumpi\n        /* \"#utility.yul\":3993:4072   */\n      tag_303\n      tag_277\n      jump\t// in\n    tag_303:\n        /* \"#utility.yul\":3954:4074   */\n    tag_302:\n        /* \"#utility.yul\":4113:4114   */\n      0x00\n        /* \"#utility.yul\":4138:4191   */\n      tag_304\n        /* \"#utility.yul\":4183:4190   */\n      dup11\n        /* \"#utility.yul\":4174:4180   */\n      dup3\n        /* \"#utility.yul\":4163:4172   */\n      dup12\n        /* \"#utility.yul\":4159:4181   */\n      add\n        /* \"#utility.yul\":4138:4191   */\n      tag_260\n      jump\t// in\n    tag_304:\n        /* \"#utility.yul\":4128:4191   */\n      swap8\n      pop\n        /* \"#utility.yul\":4084:4201   */\n      pop\n        /* \"#utility.yul\":4240:4242   */\n      0x20\n        /* \"#utility.yul\":4266:4319   */\n      tag_305\n        /* \"#utility.yul\":4311:4318   */\n      dup11\n        /* \"#utility.yul\":4302:4308   */\n      dup3\n        /* \"#utility.yul\":4291:4300   */\n      dup12\n        /* \"#utility.yul\":4287:4309   */\n      add\n        /* \"#utility.yul\":4266:4319   */\n      tag_270\n      jump\t// in\n    tag_305:\n        /* \"#utility.yul\":4256:4319   */\n      swap7\n      pop\n        /* \"#utility.yul\":4211:4329   */\n      pop\n        /* \"#utility.yul\":4368:4370   */\n      0x40\n        /* \"#utility.yul\":4394:4447   */\n      tag_306\n        /* \"#utility.yul\":4439:4446   */\n      dup11\n        /* \"#utility.yul\":4430:4436   */\n      dup3\n        /* \"#utility.yul\":4419:4428   */\n      dup12\n        /* \"#utility.yul\":4415:4437   */\n      add\n        /* \"#utility.yul\":4394:4447   */\n      tag_270\n      jump\t// in\n    tag_306:\n        /* \"#utility.yul\":4384:4447   */\n      swap6\n      pop\n        /* \"#utility.yul\":4339:4457   */\n      pop\n        /* \"#utility.yul\":4496:4498   */\n      0x60\n        /* \"#utility.yul\":4522:4575   */\n      tag_307\n        /* \"#utility.yul\":4567:4574   */\n      dup11\n        /* \"#utility.yul\":4558:4564   */\n      dup3\n        /* \"#utility.yul\":4547:4556   */\n      dup12\n        /* \"#utility.yul\":4543:4565   */\n      add\n        /* \"#utility.yul\":4522:4575   */\n      tag_260\n      jump\t// in\n    tag_307:\n        /* \"#utility.yul\":4512:4575   */\n      swap5\n      pop\n        /* \"#utility.yul\":4467:4585   */\n      pop\n        /* \"#utility.yul\":4624:4627   */\n      0x80\n        /* \"#utility.yul\":4651:4704   */\n      tag_308\n        /* \"#utility.yul\":4696:4703   */\n      dup11\n        /* \"#utility.yul\":4687:4693   */\n      dup3\n        /* \"#utility.yul\":4676:4685   */\n      dup12\n        /* \"#utility.yul\":4672:4694   */\n      add\n        /* \"#utility.yul\":4651:4704   */\n      tag_260\n      jump\t// in\n    tag_308:\n        /* \"#utility.yul\":4641:4704   */\n      swap4\n      pop\n        /* \"#utility.yul\":4595:4714   */\n      pop\n        /* \"#utility.yul\":4781:4784   */\n      0xa0\n        /* \"#utility.yul\":4770:4779   */\n      dup9\n        /* \"#utility.yul\":4766:4785   */\n      add\n        /* \"#utility.yul\":4753:4786   */\n      calldataload\n        /* \"#utility.yul\":4813:4831   */\n      0xffffffffffffffff\n        /* \"#utility.yul\":4805:4811   */\n      dup2\n        /* \"#utility.yul\":4802:4832   */\n      gt\n        /* \"#utility.yul\":4799:4916   */\n      iszero\n      tag_309\n      jumpi\n        /* \"#utility.yul\":4835:4914   */\n      tag_310\n      tag_311\n      jump\t// in\n    tag_310:\n        /* \"#utility.yul\":4799:4916   */\n    tag_309:\n        /* \"#utility.yul\":4940:5003   */\n      tag_312\n        /* \"#utility.yul\":4995:5002   */\n      dup11\n        /* \"#utility.yul\":4986:4992   */\n      dup3\n        /* \"#utility.yul\":4975:4984   */\n      dup12\n        /* \"#utility.yul\":4971:4993   */\n      add\n        /* \"#utility.yul\":4940:5003   */\n      tag_264\n      jump\t// in\n    tag_312:\n        /* \"#utility.yul\":4930:5003   */\n      swap3\n      pop\n        /* \"#utility.yul\":4724:5013   */\n      pop\n        /* \"#utility.yul\":5052:5055   */\n      0xc0\n        /* \"#utility.yul\":5079:5132   */\n      tag_313\n        /* \"#utility.yul\":5124:5131   */\n      dup11\n        /* \"#utility.yul\":5115:5121   */\n      dup3\n        /* \"#utility.yul\":5104:5113   */\n      dup12\n        /* \"#utility.yul\":5100:5122   */\n      add\n        /* \"#utility.yul\":5079:5132   */\n      tag_260\n      jump\t// in\n    tag_313:\n        /* \"#utility.yul\":5069:5132   */\n      swap2\n      pop\n        /* \"#utility.yul\":5023:5142   */\n      pop\n        /* \"#utility.yul\":3766:5149   */\n      swap3\n      swap6\n      swap9\n      swap2\n      swap5\n      swap8\n      pop\n      swap3\n      swap6\n      pop\n      jump\t// out\n        /* \"#utility.yul\":5155:5809   */\n    tag_87:\n        /* \"#utility.yul\":5233:5239   */\n      0x00\n        /* \"#utility.yul\":5241:5247   */\n      dup1\n        /* \"#utility.yul\":5290:5292   */\n      0x40\n        /* \"#utility.yul\":5278:5287   */\n      dup4\n        /* \"#utility.yul\":5269:5276   */\n      dup6\n        /* \"#utility.yul\":5265:5288   */\n      sub\n        /* \"#utility.yul\":5261:5293   */\n      slt\n        /* \"#utility.yul\":5258:5377   */\n      iszero\n      tag_315\n      jumpi\n        /* \"#utility.yul\":5296:5375   */\n      tag_316\n      tag_277\n      jump\t// in\n    tag_316:\n        /* \"#utility.yul\":5258:5377   */\n    tag_315:\n        /* \"#utility.yul\":5444:5445   */\n      0x00\n        /* \"#utility.yul\":5433:5442   */\n      dup4\n        /* \"#utility.yul\":5429:5446   */\n      add\n        /* \"#utility.yul\":5416:5447   */\n      calldataload\n        /* \"#utility.yul\":5474:5492   */\n      0xffffffffffffffff\n        /* \"#utility.yul\":5466:5472   */\n      dup2\n        /* \"#utility.yul\":5463:5493   */\n      gt\n        /* \"#utility.yul\":5460:5577   */\n      iszero\n      tag_317\n      jumpi\n        /* \"#utility.yul\":5496:5575   */\n      tag_318\n      tag_311\n      jump\t// in\n    tag_318:\n        /* \"#utility.yul\":5460:5577   */\n    tag_317:\n        /* \"#utility.yul\":5601:5664   */\n      tag_319\n        /* \"#utility.yul\":5656:5663   */\n      dup6\n        /* \"#utility.yul\":5647:5653   */\n      dup3\n        /* \"#utility.yul\":5636:5645   */\n      dup7\n        /* \"#utility.yul\":5632:5654   */\n      add\n        /* \"#utility.yul\":5601:5664   */\n      tag_264\n      jump\t// in\n    tag_319:\n        /* \"#utility.yul\":5591:5664   */\n      swap3\n      pop\n        /* \"#utility.yul\":5387:5674   */\n      pop\n        /* \"#utility.yul\":5713:5715   */\n      0x20\n        /* \"#utility.yul\":5739:5792   */\n      tag_320\n        /* \"#utility.yul\":5784:5791   */\n      dup6\n        /* \"#utility.yul\":5775:5781   */\n      dup3\n        /* \"#utility.yul\":5764:5773   */\n      dup7\n        /* \"#utility.yul\":5760:5782   */\n      add\n        /* \"#utility.yul\":5739:5792   */\n      tag_260\n      jump\t// in\n    tag_320:\n        /* \"#utility.yul\":5729:5792   */\n      swap2\n      pop\n        /* \"#utility.yul\":5684:5802   */\n      pop\n        /* \"#utility.yul\":5155:5809   */\n      swap3\n      pop\n      swap3\n      swap1\n      pop\n      jump\t// out\n        /* \"#utility.yul\":5815:6074   */\n    tag_321:\n        /* \"#utility.yul\":5924:5934   */\n      0x00\n        /* \"#utility.yul\":5945:6031   */\n      tag_323\n        /* \"#utility.yul\":6027:6030   */\n      dup4\n        /* \"#utility.yul\":6019:6025   */\n      dup4\n        /* \"#utility.yul\":5945:6031   */\n      tag_324\n      jump\t// in\n    tag_323:\n        /* \"#utility.yul\":6063:6067   */\n      0x60\n        /* \"#utility.yul\":6058:6061   */\n      dup4\n        /* \"#utility.yul\":6054:6068   */\n      add\n        /* \"#utility.yul\":6040:6068   */\n      swap1\n      pop\n        /* \"#utility.yul\":5815:6074   */\n      swap3\n      swap2\n      pop\n      pop\n      jump\t// out\n        /* \"#utility.yul\":6080:6188   */\n    tag_325:\n        /* \"#utility.yul\":6157:6181   */\n      tag_327\n        /* \"#utility.yul\":6175:6180   */\n      dup2\n        /* \"#utility.yul\":6157:6181   */\n      tag_328\n      jump\t// in\n    tag_327:\n        /* \"#utility.yul\":6152:6155   */\n      dup3\n        /* \"#utility.yul\":6145:6182   */\n      mstore\n        /* \"#utility.yul\":6080:6188   */\n      pop\n      pop\n      jump\t// out\n        /* \"#utility.yul\":6194:6312   */\n    tag_329:\n        /* \"#utility.yul\":6281:6305   */\n      tag_331\n        /* \"#utility.yul\":6299:6304   */\n      dup2\n        /* \"#utility.yul\":6281:6305   */\n      tag_328\n      jump\t// in\n    tag_331:\n        /* \"#utility.yul\":6276:6279   */\n      dup3\n        /* \"#utility.yul\":6269:6306   */\n      mstore\n        /* \"#utility.yul\":6194:6312   */\n      pop\n      pop\n      jump\t// out\n        /* \"#utility.yul\":6396:7288   */\n    tag_332:\n        /* \"#utility.yul\":6555:6558   */\n      0x00\n        /* \"#utility.yul\":6584:6658   */\n      tag_334\n        /* \"#utility.yul\":6652:6657   */\n      dup3\n        /* \"#utility.yul\":6584:6658   */\n      tag_335\n      jump\t// in\n    tag_334:\n        /* \"#utility.yul\":6674:6780   */\n      tag_336\n        /* \"#utility.yul\":6773:6779   */\n      dup2\n        /* \"#utility.yul\":6768:6771   */\n      dup6\n        /* \"#utility.yul\":6674:6780   */\n      tag_337\n      jump\t// in\n    tag_336:\n        /* \"#utility.yul\":6667:6780   */\n      swap4\n      pop\n        /* \"#utility.yul\":6804:6880   */\n      tag_338\n        /* \"#utility.yul\":6874:6879   */\n      dup4\n        /* \"#utility.yul\":6804:6880   */\n      tag_339\n      jump\t// in\n    tag_338:\n        /* \"#utility.yul\":6903:6910   */\n      dup1\n        /* \"#utility.yul\":6934:6935   */\n      0x00\n        /* \"#utility.yul\":6919:7263   */\n    tag_340:\n        /* \"#utility.yul\":6944:6950   */\n      dup4\n        /* \"#utility.yul\":6941:6942   */\n      dup2\n        /* \"#utility.yul\":6938:6951   */\n      lt\n        /* \"#utility.yul\":6919:7263   */\n      iszero\n      tag_342\n      jumpi\n        /* \"#utility.yul\":7020:7026   */\n      dup2\n        /* \"#utility.yul\":7014:7027   */\n      mload\n        /* \"#utility.yul\":7047:7150   */\n      tag_343\n        /* \"#utility.yul\":7146:7149   */\n      dup9\n        /* \"#utility.yul\":7131:7144   */\n      dup3\n        /* \"#utility.yul\":7047:7150   */\n      tag_321\n      jump\t// in\n    tag_343:\n        /* \"#utility.yul\":7040:7150   */\n      swap8\n      pop\n        /* \"#utility.yul\":7173:7253   */\n      tag_344\n        /* \"#utility.yul\":7246:7252   */\n      dup4\n        /* \"#utility.yul\":7173:7253   */\n      tag_345\n      jump\t// in\n    tag_344:\n        /* \"#utility.yul\":7163:7253   */\n      swap3\n      pop\n        /* \"#utility.yul\":6979:7263   */\n      pop\n        /* \"#utility.yul\":6966:6967   */\n      0x01\n        /* \"#utility.yul\":6963:6964   */\n      dup2\n        /* \"#utility.yul\":6959:6968   */\n      add\n        /* \"#utility.yul\":6954:6968   */\n      swap1\n      pop\n        /* \"#utility.yul\":6919:7263   */\n      jump(tag_340)\n    tag_342:\n        /* \"#utility.yul\":6923:6937   */\n      pop\n        /* \"#utility.yul\":7279:7282   */\n      dup6\n        /* \"#utility.yul\":7272:7282   */\n      swap4\n      pop\n        /* \"#utility.yul\":6560:7288   */\n      pop\n      pop\n      pop\n        /* \"#utility.yul\":6396:7288   */\n      swap3\n      swap2\n      pop\n      pop\n      jump\t// out\n        /* \"#utility.yul\":7294:7393   */\n    tag_346:\n        /* \"#utility.yul\":7365:7386   */\n      tag_348\n        /* \"#utility.yul\":7380:7385   */\n      dup2\n        /* \"#utility.yul\":7365:7386   */\n      tag_349\n      jump\t// in\n    tag_348:\n        /* \"#utility.yul\":7360:7363   */\n      dup3\n        /* \"#utility.yul\":7353:7387   */\n      mstore\n        /* \"#utility.yul\":7294:7393   */\n      pop\n      pop\n      jump\t// out\n        /* \"#utility.yul\":7399:7508   */\n    tag_350:\n        /* \"#utility.yul\":7480:7501   */\n      tag_352\n        /* \"#utility.yul\":7495:7500   */\n      dup2\n        /* \"#utility.yul\":7480:7501   */\n      tag_349\n      jump\t// in\n    tag_352:\n        /* \"#utility.yul\":7475:7478   */\n      dup3\n        /* \"#utility.yul\":7468:7502   */\n      mstore\n        /* \"#utility.yul\":7399:7508   */\n      pop\n      pop\n      jump\t// out\n        /* \"#utility.yul\":7514:7632   */\n    tag_353:\n        /* \"#utility.yul\":7601:7625   */\n      tag_355\n        /* \"#utility.yul\":7619:7624   */\n      dup2\n        /* \"#utility.yul\":7601:7625   */\n      tag_356\n      jump\t// in\n    tag_355:\n        /* \"#utility.yul\":7596:7599   */\n      dup3\n        /* \"#utility.yul\":7589:7626   */\n      mstore\n        /* \"#utility.yul\":7514:7632   */\n      pop\n      pop\n      jump\t// out\n        /* \"#utility.yul\":7638:8002   */\n    tag_357:\n        /* \"#utility.yul\":7726:7729   */\n      0x00\n        /* \"#utility.yul\":7754:7793   */\n      tag_359\n        /* \"#utility.yul\":7787:7792   */\n      dup3\n        /* \"#utility.yul\":7754:7793   */\n      tag_360\n      jump\t// in\n    tag_359:\n        /* \"#utility.yul\":7809:7880   */\n      tag_361\n        /* \"#utility.yul\":7873:7879   */\n      dup2\n        /* \"#utility.yul\":7868:7871   */\n      dup6\n        /* \"#utility.yul\":7809:7880   */\n      tag_362\n      jump\t// in\n    tag_361:\n        /* \"#utility.yul\":7802:7880   */\n      swap4\n      pop\n        /* \"#utility.yul\":7889:7941   */\n      tag_363\n        /* \"#utility.yul\":7934:7940   */\n      dup2\n        /* \"#utility.yul\":7929:7932   */\n      dup6\n        /* \"#utility.yul\":7922:7926   */\n      0x20\n        /* \"#utility.yul\":7915:7920   */\n      dup7\n        /* \"#utility.yul\":7911:7927   */\n      add\n        /* \"#utility.yul\":7889:7941   */\n      tag_364\n      jump\t// in\n    tag_363:\n        /* \"#utility.yul\":7966:7995   */\n      tag_365\n        /* \"#utility.yul\":7988:7994   */\n      dup2\n        /* \"#utility.yul\":7966:7995   */\n      tag_366\n      jump\t// in\n    tag_365:\n        /* \"#utility.yul\":7961:7964   */\n      dup5\n        /* \"#utility.yul\":7957:7996   */\n      add\n        /* \"#utility.yul\":7950:7996   */\n      swap2\n      pop\n        /* \"#utility.yul\":7730:8002   */\n      pop\n        /* \"#utility.yul\":7638:8002   */\n      swap3\n      swap2\n      pop\n      pop\n      jump\t// out\n        /* \"#utility.yul\":8008:8374   */\n    tag_367:\n        /* \"#utility.yul\":8150:8153   */\n      0x00\n        /* \"#utility.yul\":8171:8238   */\n      tag_369\n        /* \"#utility.yul\":8235:8237   */\n      0x1f\n        /* \"#utility.yul\":8230:8233   */\n      dup4\n        /* \"#utility.yul\":8171:8238   */\n      tag_362\n      jump\t// in\n    tag_369:\n        /* \"#utility.yul\":8164:8238   */\n      swap2\n      pop\n        /* \"#utility.yul\":8247:8340   */\n      tag_370\n        /* \"#utility.yul\":8336:8339   */\n      dup3\n        /* \"#utility.yul\":8247:8340   */\n      tag_371\n      jump\t// in\n    tag_370:\n        /* \"#utility.yul\":8365:8367   */\n      0x20\n        /* \"#utility.yul\":8360:8363   */\n      dup3\n        /* \"#utility.yul\":8356:8368   */\n      add\n        /* \"#utility.yul\":8349:8368   */\n      swap1\n      pop\n        /* \"#utility.yul\":8008:8374   */\n      swap2\n      swap1\n      pop\n      jump\t// out\n        /* \"#utility.yul\":8380:8746   */\n    tag_372:\n        /* \"#utility.yul\":8522:8525   */\n      0x00\n        /* \"#utility.yul\":8543:8610   */\n      tag_374\n        /* \"#utility.yul\":8607:8609   */\n      0x19\n        /* \"#utility.yul\":8602:8605   */\n      dup4\n        /* \"#utility.yul\":8543:8610   */\n      tag_362\n      jump\t// in\n    tag_374:\n        /* \"#utility.yul\":8536:8610   */\n      swap2\n      pop\n        /* \"#utility.yul\":8619:8712   */\n      tag_375\n        /* \"#utility.yul\":8708:8711   */\n      dup3\n        /* \"#utility.yul\":8619:8712   */\n      tag_376\n      jump\t// in\n    tag_375:\n        /* \"#utility.yul\":8737:8739   */\n      0x20\n        /* \"#utility.yul\":8732:8735   */\n      dup3\n        /* \"#utility.yul\":8728:8740   */\n      add\n        /* \"#utility.yul\":8721:8740   */\n      swap1\n      pop\n        /* \"#utility.yul\":8380:8746   */\n      swap2\n      swap1\n      pop\n      jump\t// out\n        /* \"#utility.yul\":8752:9118   */\n    tag_377:\n        /* \"#utility.yul\":8894:8897   */\n      0x00\n        /* \"#utility.yul\":8915:8982   */\n      tag_379\n        /* \"#utility.yul\":8979:8981   */\n      0x26\n        /* \"#utility.yul\":8974:8977   */\n      dup4\n        /* \"#utility.yul\":8915:8982   */\n      tag_362\n      jump\t// in\n    tag_379:\n        /* \"#utility.yul\":8908:8982   */\n      swap2\n      pop\n        /* \"#utility.yul\":8991:9084   */\n      tag_380\n        /* \"#utility.yul\":9080:9083   */\n      dup3\n        /* \"#utility.yul\":8991:9084   */\n      tag_381\n      jump\t// in\n    tag_380:\n        /* \"#utility.yul\":9109:9111   */\n      0x40\n        /* \"#utility.yul\":9104:9107   */\n      dup3\n        /* \"#utility.yul\":9100:9112   */\n      add\n        /* \"#utility.yul\":9093:9112   */\n      swap1\n      pop\n        /* \"#utility.yul\":8752:9118   */\n      swap2\n      swap1\n      pop\n      jump\t// out\n        /* \"#utility.yul\":9124:9490   */\n    tag_382:\n        /* \"#utility.yul\":9266:9269   */\n      0x00\n        /* \"#utility.yul\":9287:9354   */\n      tag_384\n        /* \"#utility.yul\":9351:9353   */\n      0x1c\n        /* \"#utility.yul\":9346:9349   */\n      dup4\n        /* \"#utility.yul\":9287:9354   */\n      tag_362\n      jump\t// in\n    tag_384:\n        /* \"#utility.yul\":9280:9354   */\n      swap2\n      pop\n        /* \"#utility.yul\":9363:9456   */\n      tag_385\n        /* \"#utility.yul\":9452:9455   */\n      dup3\n        /* \"#utility.yul\":9363:9456   */\n      tag_386\n      jump\t// in\n    tag_385:\n        /* \"#utility.yul\":9481:9483   */\n      0x20\n        /* \"#utility.yul\":9476:9479   */\n      dup3\n        /* \"#utility.yul\":9472:9484   */\n      add\n        /* \"#utility.yul\":9465:9484   */\n      swap1\n      pop\n        /* \"#utility.yul\":9124:9490   */\n      swap2\n      swap1\n      pop\n      jump\t// out\n        /* \"#utility.yul\":9496:9862   */\n    tag_387:\n        /* \"#utility.yul\":9638:9641   */\n      0x00\n        /* \"#utility.yul\":9659:9726   */\n      tag_389\n        /* \"#utility.yul\":9723:9725   */\n      0x15\n        /* \"#utility.yul\":9718:9721   */\n      dup4\n        /* \"#utility.yul\":9659:9726   */\n      tag_362\n      jump\t// in\n    tag_389:\n        /* \"#utility.yul\":9652:9726   */\n      swap2\n      pop\n        /* \"#utility.yul\":9735:9828   */\n      tag_390\n        /* \"#utility.yul\":9824:9827   */\n      dup3\n        /* \"#utility.yul\":9735:9828   */\n      tag_391\n      jump\t// in\n    tag_390:\n        /* \"#utility.yul\":9853:9855   */\n      0x20\n        /* \"#utility.yul\":9848:9851   */\n      dup3\n        /* \"#utility.yul\":9844:9856   */\n      add\n        /* \"#utility.yul\":9837:9856   */\n      swap1\n      pop\n        /* \"#utility.yul\":9496:9862   */\n      swap2\n      swap1\n      pop\n      jump\t// out\n        /* \"#utility.yul\":9868:10234   */\n    tag_392:\n        /* \"#utility.yul\":10010:10013   */\n      0x00\n        /* \"#utility.yul\":10031:10098   */\n      tag_394\n        /* \"#utility.yul\":10095:10097   */\n      0x1e\n        /* \"#utility.yul\":10090:10093   */\n      dup4\n        /* \"#utility.yul\":10031:10098   */\n      tag_362\n      jump\t// in\n    tag_394:\n        /* \"#utility.yul\":10024:10098   */\n      swap2\n      pop\n        /* \"#utility.yul\":10107:10200   */\n      tag_395\n        /* \"#utility.yul\":10196:10199   */\n      dup3\n        /* \"#utility.yul\":10107:10200   */\n      tag_396\n      jump\t// in\n    tag_395:\n        /* \"#utility.yul\":10225:10227   */\n      0x20\n        /* \"#utility.yul\":10220:10223   */\n      dup3\n        /* \"#utility.yul\":10216:10228   */\n      add\n        /* \"#utility.yul\":10209:10228   */\n      swap1\n      pop\n        /* \"#utility.yul\":9868:10234   */\n      swap2\n      swap1\n      pop\n      jump\t// out\n        /* \"#utility.yul\":10240:10606   */\n    tag_397:\n        /* \"#utility.yul\":10382:10385   */\n      0x00\n        /* \"#utility.yul\":10403:10470   */\n      tag_399\n        /* \"#utility.yul\":10467:10469   */\n      0x24\n        /* \"#utility.yul\":10462:10465   */\n      dup4\n        /* \"#utility.yul\":10403:10470   */\n      tag_362\n      jump\t// in\n    tag_399:\n        /* \"#utility.yul\":10396:10470   */\n      swap2\n      pop\n        /* \"#utility.yul\":10479:10572   */\n      tag_400\n        /* \"#utility.yul\":10568:10571   */\n      dup3\n        /* \"#utility.yul\":10479:10572   */\n      tag_401\n      jump\t// in\n    tag_400:\n        /* \"#utility.yul\":10597:10599   */\n      0x40\n        /* \"#utility.yul\":10592:10595   */\n      dup3\n        /* \"#utility.yul\":10588:10600   */\n      add\n        /* \"#utility.yul\":10581:10600   */\n      swap1\n      pop\n        /* \"#utility.yul\":10240:10606   */\n      swap2\n      swap1\n      pop\n      jump\t// out\n        /* \"#utility.yul\":10612:10978   */\n    tag_402:\n        /* \"#utility.yul\":10754:10757   */\n      0x00\n        /* \"#utility.yul\":10775:10842   */\n      tag_404\n        /* \"#utility.yul\":10839:10841   */\n      0x28\n        /* \"#utility.yul\":10834:10837   */\n      dup4\n        /* \"#utility.yul\":10775:10842   */\n      tag_362\n      jump\t// in\n    tag_404:\n        /* \"#utility.yul\":10768:10842   */\n      swap2\n      pop\n        /* \"#utility.yul\":10851:10944   */\n      tag_405\n        /* \"#utility.yul\":10940:10943   */\n      dup3\n        /* \"#utility.yul\":10851:10944   */\n      tag_406\n      jump\t// in\n    tag_405:\n        /* \"#utility.yul\":10969:10971   */\n      0x40\n        /* \"#utility.yul\":10964:10967   */\n      dup3\n        /* \"#utility.yul\":10960:10972   */\n      add\n        /* \"#utility.yul\":10953:10972   */\n      swap1\n      pop\n        /* \"#utility.yul\":10612:10978   */\n      swap2\n      swap1\n      pop\n      jump\t// out\n        /* \"#utility.yul\":10984:11350   */\n    tag_407:\n        /* \"#utility.yul\":11126:11129   */\n      0x00\n        /* \"#utility.yul\":11147:11214   */\n      tag_409\n        /* \"#utility.yul\":11211:11213   */\n      0x20\n        /* \"#utility.yul\":11206:11209   */\n      dup4\n        /* \"#utility.yul\":11147:11214   */\n      tag_362\n      jump\t// in\n    tag_409:\n        /* \"#utility.yul\":11140:11214   */\n      swap2\n      pop\n        /* \"#utility.yul\":11223:11316   */\n      tag_410\n        /* \"#utility.yul\":11312:11315   */\n      dup3\n        /* \"#utility.yul\":11223:11316   */\n      tag_411\n      jump\t// in\n    tag_410:\n        /* \"#utility.yul\":11341:11343   */\n      0x20\n        /* \"#utility.yul\":11336:11339   */\n      dup3\n        /* \"#utility.yul\":11332:11344   */\n      add\n        /* \"#utility.yul\":11325:11344   */\n      swap1\n      pop\n        /* \"#utility.yul\":10984:11350   */\n      swap2\n      swap1\n      pop\n      jump\t// out\n        /* \"#utility.yul\":11356:11722   */\n    tag_412:\n        /* \"#utility.yul\":11498:11501   */\n      0x00\n        /* \"#utility.yul\":11519:11586   */\n      tag_414\n        /* \"#utility.yul\":11583:11585   */\n      0x12\n        /* \"#utility.yul\":11578:11581   */\n      dup4\n        /* \"#utility.yul\":11519:11586   */\n      tag_362\n      jump\t// in\n    tag_414:\n        /* \"#utility.yul\":11512:11586   */\n      swap2\n      pop\n        /* \"#utility.yul\":11595:11688   */\n      tag_415\n        /* \"#utility.yul\":11684:11687   */\n      dup3\n        /* \"#utility.yul\":11595:11688   */\n      tag_416\n      jump\t// in\n    tag_415:\n        /* \"#utility.yul\":11713:11715   */\n      0x20\n        /* \"#utility.yul\":11708:11711   */\n      dup3\n        /* \"#utility.yul\":11704:11716   */\n      add\n        /* \"#utility.yul\":11697:11716   */\n      swap1\n      pop\n        /* \"#utility.yul\":11356:11722   */\n      swap2\n      swap1\n      pop\n      jump\t// out\n        /* \"#utility.yul\":11728:12094   */\n    tag_417:\n        /* \"#utility.yul\":11870:11873   */\n      0x00\n        /* \"#utility.yul\":11891:11958   */\n      tag_419\n        /* \"#utility.yul\":11955:11957   */\n      0x25\n        /* \"#utility.yul\":11950:11953   */\n      dup4\n        /* \"#utility.yul\":11891:11958   */\n      tag_362\n      jump\t// in\n    tag_419:\n        /* \"#utility.yul\":11884:11958   */\n      swap2\n      pop\n        /* \"#utility.yul\":11967:12060   */\n      tag_420\n        /* \"#utility.yul\":12056:12059   */\n      dup3\n        /* \"#utility.yul\":11967:12060   */\n      tag_421\n      jump\t// in\n    tag_420:\n        /* \"#utility.yul\":12085:12087   */\n      0x40\n        /* \"#utility.yul\":12080:12083   */\n      dup3\n        /* \"#utility.yul\":12076:12088   */\n      add\n        /* \"#utility.yul\":12069:12088   */\n      swap1\n      pop\n        /* \"#utility.yul\":11728:12094   */\n      swap2\n      swap1\n      pop\n      jump\t// out\n        /* \"#utility.yul\":12174:12829   */\n    tag_324:\n        /* \"#utility.yul\":12301:12305   */\n      0x60\n        /* \"#utility.yul\":12296:12299   */\n      dup3\n        /* \"#utility.yul\":12292:12306   */\n      add\n        /* \"#utility.yul\":12389:12393   */\n      0x00\n        /* \"#utility.yul\":12382:12387   */\n      dup3\n        /* \"#utility.yul\":12378:12394   */\n      add\n        /* \"#utility.yul\":12372:12395   */\n      mload\n        /* \"#utility.yul\":12408:12465   */\n      tag_423\n        /* \"#utility.yul\":12459:12463   */\n      0x00\n        /* \"#utility.yul\":12454:12457   */\n      dup6\n        /* \"#utility.yul\":12450:12464   */\n      add\n        /* \"#utility.yul\":12436:12448   */\n      dup3\n        /* \"#utility.yul\":12408:12465   */\n      tag_346\n      jump\t// in\n    tag_423:\n        /* \"#utility.yul\":12316:12475   */\n      pop\n        /* \"#utility.yul\":12557:12561   */\n      0x20\n        /* \"#utility.yul\":12550:12555   */\n      dup3\n        /* \"#utility.yul\":12546:12562   */\n      add\n        /* \"#utility.yul\":12540:12563   */\n      mload\n        /* \"#utility.yul\":12576:12633   */\n      tag_424\n        /* \"#utility.yul\":12627:12631   */\n      0x20\n        /* \"#utility.yul\":12622:12625   */\n      dup6\n        /* \"#utility.yul\":12618:12632   */\n      add\n        /* \"#utility.yul\":12604:12616   */\n      dup3\n        /* \"#utility.yul\":12576:12633   */\n      tag_346\n      jump\t// in\n    tag_424:\n        /* \"#utility.yul\":12485:12643   */\n      pop\n        /* \"#utility.yul\":12730:12734   */\n      0x40\n        /* \"#utility.yul\":12723:12728   */\n      dup3\n        /* \"#utility.yul\":12719:12735   */\n      add\n        /* \"#utility.yul\":12713:12736   */\n      mload\n        /* \"#utility.yul\":12749:12812   */\n      tag_425\n        /* \"#utility.yul\":12806:12810   */\n      0x40\n        /* \"#utility.yul\":12801:12804   */\n      dup6\n        /* \"#utility.yul\":12797:12811   */\n      add\n        /* \"#utility.yul\":12783:12795   */\n      dup3\n        /* \"#utility.yul\":12749:12812   */\n      tag_325\n      jump\t// in\n    tag_425:\n        /* \"#utility.yul\":12653:12822   */\n      pop\n        /* \"#utility.yul\":12270:12829   */\n      pop\n        /* \"#utility.yul\":12174:12829   */\n      pop\n      pop\n      jump\t// out\n        /* \"#utility.yul\":12835:12953   */\n    tag_426:\n        /* \"#utility.yul\":12922:12946   */\n      tag_428\n        /* \"#utility.yul\":12940:12945   */\n      dup2\n        /* \"#utility.yul\":12922:12946   */\n      tag_429\n      jump\t// in\n    tag_428:\n        /* \"#utility.yul\":12917:12920   */\n      dup3\n        /* \"#utility.yul\":12910:12947   */\n      mstore\n        /* \"#utility.yul\":12835:12953   */\n      pop\n      pop\n      jump\t// out\n        /* \"#utility.yul\":12959:13181   */\n    tag_76:\n        /* \"#utility.yul\":13052:13056   */\n      0x00\n        /* \"#utility.yul\":13090:13092   */\n      0x20\n        /* \"#utility.yul\":13079:13088   */\n      dup3\n        /* \"#utility.yul\":13075:13093   */\n      add\n        /* \"#utility.yul\":13067:13093   */\n      swap1\n      pop\n        /* \"#utility.yul\":13103:13174   */\n      tag_431\n        /* \"#utility.yul\":13171:13172   */\n      0x00\n        /* \"#utility.yul\":13160:13169   */\n      dup4\n        /* \"#utility.yul\":13156:13173   */\n      add\n        /* \"#utility.yul\":13147:13153   */\n      dup5\n        /* \"#utility.yul\":13103:13174   */\n      tag_329\n      jump\t// in\n    tag_431:\n        /* \"#utility.yul\":12959:13181   */\n      swap3\n      swap2\n      pop\n      pop\n      jump\t// out\n        /* \"#utility.yul\":13187:13397   */\n    tag_50:\n        /* \"#utility.yul\":13274:13278   */\n      0x00\n        /* \"#utility.yul\":13312:13314   */\n      0x20\n        /* \"#utility.yul\":13301:13310   */\n      dup3\n        /* \"#utility.yul\":13297:13315   */\n      add\n        /* \"#utility.yul\":13289:13315   */\n      swap1\n      pop\n        /* \"#utility.yul\":13325:13390   */\n      tag_433\n        /* \"#utility.yul\":13387:13388   */\n      0x00\n        /* \"#utility.yul\":13376:13385   */\n      dup4\n        /* \"#utility.yul\":13372:13389   */\n      add\n        /* \"#utility.yul\":13363:13369   */\n      dup5\n        /* \"#utility.yul\":13325:13390   */\n      tag_350\n      jump\t// in\n    tag_433:\n        /* \"#utility.yul\":13187:13397   */\n      swap3\n      swap2\n      pop\n      pop\n      jump\t// out\n        /* \"#utility.yul\":13403:13821   */\n    tag_56:\n        /* \"#utility.yul\":13540:13544   */\n      0x00\n        /* \"#utility.yul\":13578:13580   */\n      0x60\n        /* \"#utility.yul\":13567:13576   */\n      dup3\n        /* \"#utility.yul\":13563:13581   */\n      add\n        /* \"#utility.yul\":13555:13581   */\n      swap1\n      pop\n        /* \"#utility.yul\":13591:13656   */\n      tag_435\n        /* \"#utility.yul\":13653:13654   */\n      0x00\n        /* \"#utility.yul\":13642:13651   */\n      dup4\n        /* \"#utility.yul\":13638:13655   */\n      add\n        /* \"#utility.yul\":13629:13635   */\n      dup7\n        /* \"#utility.yul\":13591:13656   */\n      tag_350\n      jump\t// in\n    tag_435:\n        /* \"#utility.yul\":13666:13732   */\n      tag_436\n        /* \"#utility.yul\":13728:13730   */\n      0x20\n        /* \"#utility.yul\":13717:13726   */\n      dup4\n        /* \"#utility.yul\":13713:13731   */\n      add\n        /* \"#utility.yul\":13704:13710   */\n      dup6\n        /* \"#utility.yul\":13666:13732   */\n      tag_350\n      jump\t// in\n    tag_436:\n        /* \"#utility.yul\":13742:13814   */\n      tag_437\n        /* \"#utility.yul\":13810:13812   */\n      0x40\n        /* \"#utility.yul\":13799:13808   */\n      dup4\n        /* \"#utility.yul\":13795:13813   */\n      add\n        /* \"#utility.yul\":13786:13792   */\n      dup5\n        /* \"#utility.yul\":13742:13814   */\n      tag_329\n      jump\t// in\n    tag_437:\n        /* \"#utility.yul\":13403:13821   */\n      swap5\n      swap4\n      pop\n      pop\n      pop\n      pop\n      jump\t// out\n        /* \"#utility.yul\":13827:14233   */\n    tag_45:\n        /* \"#utility.yul\":13958:13962   */\n      0x00\n        /* \"#utility.yul\":13996:13998   */\n      0x60\n        /* \"#utility.yul\":13985:13994   */\n      dup3\n        /* \"#utility.yul\":13981:13999   */\n      add\n        /* \"#utility.yul\":13973:13999   */\n      swap1\n      pop\n        /* \"#utility.yul\":14009:14074   */\n      tag_439\n        /* \"#utility.yul\":14071:14072   */\n      0x00\n        /* \"#utility.yul\":14060:14069   */\n      dup4\n        /* \"#utility.yul\":14056:14073   */\n      add\n        /* \"#utility.yul\":14047:14053   */\n      dup7\n        /* \"#utility.yul\":14009:14074   */\n      tag_350\n      jump\t// in\n    tag_439:\n        /* \"#utility.yul\":14084:14150   */\n      tag_440\n        /* \"#utility.yul\":14146:14148   */\n      0x20\n        /* \"#utility.yul\":14135:14144   */\n      dup4\n        /* \"#utility.yul\":14131:14149   */\n      add\n        /* \"#utility.yul\":14122:14128   */\n      dup6\n        /* \"#utility.yul\":14084:14150   */\n      tag_350\n      jump\t// in\n    tag_440:\n        /* \"#utility.yul\":14160:14226   */\n      tag_441\n        /* \"#utility.yul\":14222:14224   */\n      0x40\n        /* \"#utility.yul\":14211:14220   */\n      dup4\n        /* \"#utility.yul\":14207:14225   */\n      add\n        /* \"#utility.yul\":14198:14204   */\n      dup5\n        /* \"#utility.yul\":14160:14226   */\n      tag_350\n      jump\t// in\n    tag_441:\n        /* \"#utility.yul\":13827:14233   */\n      swap5\n      swap4\n      pop\n      pop\n      pop\n      pop\n      jump\t// out\n        /* \"#utility.yul\":14239:15011   */\n    tag_39:\n        /* \"#utility.yul\":14500:14504   */\n      0x00\n        /* \"#utility.yul\":14538:14541   */\n      0x80\n        /* \"#utility.yul\":14527:14536   */\n      dup3\n        /* \"#utility.yul\":14523:14542   */\n      add\n        /* \"#utility.yul\":14515:14542   */\n      swap1\n      pop\n        /* \"#utility.yul\":14552:14617   */\n      tag_443\n        /* \"#utility.yul\":14614:14615   */\n      0x00\n        /* \"#utility.yul\":14603:14612   */\n      dup4\n        /* \"#utility.yul\":14599:14616   */\n      add\n        /* \"#utility.yul\":14590:14596   */\n      dup8\n        /* \"#utility.yul\":14552:14617   */\n      tag_350\n      jump\t// in\n    tag_443:\n        /* \"#utility.yul\":14627:14699   */\n      tag_444\n        /* \"#utility.yul\":14695:14697   */\n      0x20\n        /* \"#utility.yul\":14684:14693   */\n      dup4\n        /* \"#utility.yul\":14680:14698   */\n      add\n        /* \"#utility.yul\":14671:14677   */\n      dup7\n        /* \"#utility.yul\":14627:14699   */\n      tag_353\n      jump\t// in\n    tag_444:\n        /* \"#utility.yul\":14709:14781   */\n      tag_445\n        /* \"#utility.yul\":14777:14779   */\n      0x40\n        /* \"#utility.yul\":14766:14775   */\n      dup4\n        /* \"#utility.yul\":14762:14780   */\n      add\n        /* \"#utility.yul\":14753:14759   */\n      dup6\n        /* \"#utility.yul\":14709:14781   */\n      tag_426\n      jump\t// in\n    tag_445:\n        /* \"#utility.yul\":14828:14837   */\n      dup2\n        /* \"#utility.yul\":14822:14826   */\n      dup2\n        /* \"#utility.yul\":14818:14838   */\n      sub\n        /* \"#utility.yul\":14813:14815   */\n      0x60\n        /* \"#utility.yul\":14802:14811   */\n      dup4\n        /* \"#utility.yul\":14798:14816   */\n      add\n        /* \"#utility.yul\":14791:14839   */\n      mstore\n        /* \"#utility.yul\":14856:15004   */\n      tag_446\n        /* \"#utility.yul\":14999:15003   */\n      dup2\n        /* \"#utility.yul\":14990:14996   */\n      dup5\n        /* \"#utility.yul\":14856:15004   */\n      tag_332\n      jump\t// in\n    tag_446:\n        /* \"#utility.yul\":14848:15004   */\n      swap1\n      pop\n        /* \"#utility.yul\":14239:15011   */\n      swap6\n      swap5\n      pop\n      pop\n      pop\n      pop\n      pop\n      jump\t// out\n        /* \"#utility.yul\":15017:15239   */\n    tag_98:\n        /* \"#utility.yul\":15110:15114   */\n      0x00\n        /* \"#utility.yul\":15148:15150   */\n      0x20\n        /* \"#utility.yul\":15137:15146   */\n      dup3\n        /* \"#utility.yul\":15133:15151   */\n      add\n        /* \"#utility.yul\":15125:15151   */\n      swap1\n      pop\n        /* \"#utility.yul\":15161:15232   */\n      tag_448\n        /* \"#utility.yul\":15229:15230   */\n      0x00\n        /* \"#utility.yul\":15218:15227   */\n      dup4\n        /* \"#utility.yul\":15214:15231   */\n      add\n        /* \"#utility.yul\":15205:15211   */\n      dup5\n        /* \"#utility.yul\":15161:15232   */\n      tag_353\n      jump\t// in\n    tag_448:\n        /* \"#utility.yul\":15017:15239   */\n      swap3\n      swap2\n      pop\n      pop\n      jump\t// out\n        /* \"#utility.yul\":15245:15668   */\n    tag_93:\n        /* \"#utility.yul\":15386:15390   */\n      0x00\n        /* \"#utility.yul\":15424:15426   */\n      0x40\n        /* \"#utility.yul\":15413:15422   */\n      dup3\n        /* \"#utility.yul\":15409:15427   */\n      add\n        /* \"#utility.yul\":15401:15427   */\n      swap1\n      pop\n        /* \"#utility.yul\":15437:15508   */\n      tag_450\n        /* \"#utility.yul\":15505:15506   */\n      0x00\n        /* \"#utility.yul\":15494:15503   */\n      dup4\n        /* \"#utility.yul\":15490:15507   */\n      add\n        /* \"#utility.yul\":15481:15487   */\n      dup6\n        /* \"#utility.yul\":15437:15508   */\n      tag_353\n      jump\t// in\n    tag_450:\n        /* \"#utility.yul\":15555:15564   */\n      dup2\n        /* \"#utility.yul\":15549:15553   */\n      dup2\n        /* \"#utility.yul\":15545:15565   */\n      sub\n        /* \"#utility.yul\":15540:15542   */\n      0x20\n        /* \"#utility.yul\":15529:15538   */\n      dup4\n        /* \"#utility.yul\":15525:15543   */\n      add\n        /* \"#utility.yul\":15518:15566   */\n      mstore\n        /* \"#utility.yul\":15583:15661   */\n      tag_451\n        /* \"#utility.yul\":15656:15660   */\n      dup2\n        /* \"#utility.yul\":15647:15653   */\n      dup5\n        /* \"#utility.yul\":15583:15661   */\n      tag_357\n      jump\t// in\n    tag_451:\n        /* \"#utility.yul\":15575:15661   */\n      swap1\n      pop\n        /* \"#utility.yul\":15245:15668   */\n      swap4\n      swap3\n      pop\n      pop\n      pop\n      jump\t// out\n        /* \"#utility.yul\":15674:15987   */\n    tag_103:\n        /* \"#utility.yul\":15787:15791   */\n      0x00\n        /* \"#utility.yul\":15825:15827   */\n      0x20\n        /* \"#utility.yul\":15814:15823   */\n      dup3\n        /* \"#utility.yul\":15810:15828   */\n      add\n        /* \"#utility.yul\":15802:15828   */\n      swap1\n      pop\n        /* \"#utility.yul\":15874:15883   */\n      dup2\n        /* \"#utility.yul\":15868:15872   */\n      dup2\n        /* \"#utility.yul\":15864:15884   */\n      sub\n        /* \"#utility.yul\":15860:15861   */\n      0x00\n        /* \"#utility.yul\":15849:15858   */\n      dup4\n        /* \"#utility.yul\":15845:15862   */\n      add\n        /* \"#utility.yul\":15838:15885   */\n      mstore\n        /* \"#utility.yul\":15902:15980   */\n      tag_453\n        /* \"#utility.yul\":15975:15979   */\n      dup2\n        /* \"#utility.yul\":15966:15972   */\n      dup5\n        /* \"#utility.yul\":15902:15980   */\n      tag_357\n      jump\t// in\n    tag_453:\n        /* \"#utility.yul\":15894:15980   */\n      swap1\n      pop\n        /* \"#utility.yul\":15674:15987   */\n      swap3\n      swap2\n      pop\n      pop\n      jump\t// out\n        /* \"#utility.yul\":15993:16412   */\n    tag_221:\n        /* \"#utility.yul\":16159:16163   */\n      0x00\n        /* \"#utility.yul\":16197:16199   */\n      0x20\n        /* \"#utility.yul\":16186:16195   */\n      dup3\n        /* \"#utility.yul\":16182:16200   */\n      add\n        /* \"#utility.yul\":16174:16200   */\n      swap1\n      pop\n        /* \"#utility.yul\":16246:16255   */\n      dup2\n        /* \"#utility.yul\":16240:16244   */\n      dup2\n        /* \"#utility.yul\":16236:16256   */\n      sub\n        /* \"#utility.yul\":16232:16233   */\n      0x00\n        /* \"#utility.yul\":16221:16230   */\n      dup4\n        /* \"#utility.yul\":16217:16234   */\n      add\n        /* \"#utility.yul\":16210:16257   */\n      mstore\n        /* \"#utility.yul\":16274:16405   */\n      tag_455\n        /* \"#utility.yul\":16400:16404   */\n      dup2\n        /* \"#utility.yul\":16274:16405   */\n      tag_367\n      jump\t// in\n    tag_455:\n        /* \"#utility.yul\":16266:16405   */\n      swap1\n      pop\n        /* \"#utility.yul\":15993:16412   */\n      swap2\n      swap1\n      pop\n      jump\t// out\n        /* \"#utility.yul\":16418:16837   */\n    tag_229:\n        /* \"#utility.yul\":16584:16588   */\n      0x00\n        /* \"#utility.yul\":16622:16624   */\n      0x20\n        /* \"#utility.yul\":16611:16620   */\n      dup3\n        /* \"#utility.yul\":16607:16625   */\n      add\n        /* \"#utility.yul\":16599:16625   */\n      swap1\n      pop\n        /* \"#utility.yul\":16671:16680   */\n      dup2\n        /* \"#utility.yul\":16665:16669   */\n      dup2\n        /* \"#utility.yul\":16661:16681   */\n      sub\n        /* \"#utility.yul\":16657:16658   */\n      0x00\n        /* \"#utility.yul\":16646:16655   */\n      dup4\n        /* \"#utility.yul\":16642:16659   */\n      add\n        /* \"#utility.yul\":16635:16682   */\n      mstore\n        /* \"#utility.yul\":16699:16830   */\n      tag_457\n        /* \"#utility.yul\":16825:16829   */\n      dup2\n        /* \"#utility.yul\":16699:16830   */\n      tag_372\n      jump\t// in\n    tag_457:\n        /* \"#utility.yul\":16691:16830   */\n      swap1\n      pop\n        /* \"#utility.yul\":16418:16837   */\n      swap2\n      swap1\n      pop\n      jump\t// out\n        /* \"#utility.yul\":16843:17262   */\n    tag_156:\n        /* \"#utility.yul\":17009:17013   */\n      0x00\n        /* \"#utility.yul\":17047:17049   */\n      0x20\n        /* \"#utility.yul\":17036:17045   */\n      dup3\n        /* \"#utility.yul\":17032:17050   */\n      add\n        /* \"#utility.yul\":17024:17050   */\n      swap1\n      pop\n        /* \"#utility.yul\":17096:17105   */\n      dup2\n        /* \"#utility.yul\":17090:17094   */\n      dup2\n        /* \"#utility.yul\":17086:17106   */\n      sub\n        /* \"#utility.yul\":17082:17083   */\n      0x00\n        /* \"#utility.yul\":17071:17080   */\n      dup4\n        /* \"#utility.yul\":17067:17084   */\n      add\n        /* \"#utility.yul\":17060:17107   */\n      mstore\n        /* \"#utility.yul\":17124:17255   */\n      tag_459\n        /* \"#utility.yul\":17250:17254   */\n      dup2\n        /* \"#utility.yul\":17124:17255   */\n      tag_377\n      jump\t// in\n    tag_459:\n        /* \"#utility.yul\":17116:17255   */\n      swap1\n      pop\n        /* \"#utility.yul\":16843:17262   */\n      swap2\n      swap1\n      pop\n      jump\t// out\n        /* \"#utility.yul\":17268:17687   */\n    tag_187:\n        /* \"#utility.yul\":17434:17438   */\n      0x00\n        /* \"#utility.yul\":17472:17474   */\n      0x20\n        /* \"#utility.yul\":17461:17470   */\n      dup3\n        /* \"#utility.yul\":17457:17475   */\n      add\n        /* \"#utility.yul\":17449:17475   */\n      swap1\n      pop\n        /* \"#utility.yul\":17521:17530   */\n      dup2\n        /* \"#utility.yul\":17515:17519   */\n      dup2\n        /* \"#utility.yul\":17511:17531   */\n      sub\n        /* \"#utility.yul\":17507:17508   */\n      0x00\n        /* \"#utility.yul\":17496:17505   */\n      dup4\n        /* \"#utility.yul\":17492:17509   */\n      add\n        /* \"#utility.yul\":17485:17532   */\n      mstore\n        /* \"#utility.yul\":17549:17680   */\n      tag_461\n        /* \"#utility.yul\":17675:17679   */\n      dup2\n        /* \"#utility.yul\":17549:17680   */\n      tag_382\n      jump\t// in\n    tag_461:\n        /* \"#utility.yul\":17541:17680   */\n      swap1\n      pop\n        /* \"#utility.yul\":17268:17687   */\n      swap2\n      swap1\n      pop\n      jump\t// out\n        /* \"#utility.yul\":17693:18112   */\n    tag_218:\n        /* \"#utility.yul\":17859:17863   */\n      0x00\n        /* \"#utility.yul\":17897:17899   */\n      0x20\n        /* \"#utility.yul\":17886:17895   */\n      dup3\n        /* \"#utility.yul\":17882:17900   */\n      add\n        /* \"#utility.yul\":17874:17900   */\n      swap1\n      pop\n        /* \"#utility.yul\":17946:17955   */\n      dup2\n        /* \"#utility.yul\":17940:17944   */\n      dup2\n        /* \"#utility.yul\":17936:17956   */\n      sub\n        /* \"#utility.yul\":17932:17933   */\n      0x00\n        /* \"#utility.yul\":17921:17930   */\n      dup4\n        /* \"#utility.yul\":17917:17934   */\n      add\n        /* \"#utility.yul\":17910:17957   */\n      mstore\n        /* \"#utility.yul\":17974:18105   */\n      tag_463\n        /* \"#utility.yul\":18100:18104   */\n      dup2\n        /* \"#utility.yul\":17974:18105   */\n      tag_387\n      jump\t// in\n    tag_463:\n        /* \"#utility.yul\":17966:18105   */\n      swap1\n      pop\n        /* \"#utility.yul\":17693:18112   */\n      swap2\n      swap1\n      pop\n      jump\t// out\n        /* \"#utility.yul\":18118:18537   */\n    tag_184:\n        /* \"#utility.yul\":18284:18288   */\n      0x00\n        /* \"#utility.yul\":18322:18324   */\n      0x20\n        /* \"#utility.yul\":18311:18320   */\n      dup3\n        /* \"#utility.yul\":18307:18325   */\n      add\n        /* \"#utility.yul\":18299:18325   */\n      swap1\n      pop\n        /* \"#utility.yul\":18371:18380   */\n      dup2\n        /* \"#utility.yul\":18365:18369   */\n      dup2\n        /* \"#utility.yul\":18361:18381   */\n      sub\n        /* \"#utility.yul\":18357:18358   */\n      0x00\n        /* \"#utility.yul\":18346:18355   */\n      dup4\n        /* \"#utility.yul\":18342:18359   */\n      add\n        /* \"#utility.yul\":18335:18382   */\n      mstore\n        /* \"#utility.yul\":18399:18530   */\n      tag_465\n        /* \"#utility.yul\":18525:18529   */\n      dup2\n        /* \"#utility.yul\":18399:18530   */\n      tag_392\n      jump\t// in\n    tag_465:\n        /* \"#utility.yul\":18391:18530   */\n      swap1\n      pop\n        /* \"#utility.yul\":18118:18537   */\n      swap2\n      swap1\n      pop\n      jump\t// out\n        /* \"#utility.yul\":18543:18962   */\n    tag_224:\n        /* \"#utility.yul\":18709:18713   */\n      0x00\n        /* \"#utility.yul\":18747:18749   */\n      0x20\n        /* \"#utility.yul\":18736:18745   */\n      dup3\n        /* \"#utility.yul\":18732:18750   */\n      add\n        /* \"#utility.yul\":18724:18750   */\n      swap1\n      pop\n        /* \"#utility.yul\":18796:18805   */\n      dup2\n        /* \"#utility.yul\":18790:18794   */\n      dup2\n        /* \"#utility.yul\":18786:18806   */\n      sub\n        /* \"#utility.yul\":18782:18783   */\n      0x00\n        /* \"#utility.yul\":18771:18780   */\n      dup4\n        /* \"#utility.yul\":18767:18784   */\n      add\n        /* \"#utility.yul\":18760:18807   */\n      mstore\n        /* \"#utility.yul\":18824:18955   */\n      tag_467\n        /* \"#utility.yul\":18950:18954   */\n      dup2\n        /* \"#utility.yul\":18824:18955   */\n      tag_397\n      jump\t// in\n    tag_467:\n        /* \"#utility.yul\":18816:18955   */\n      swap1\n      pop\n        /* \"#utility.yul\":18543:18962   */\n      swap2\n      swap1\n      pop\n      jump\t// out\n        /* \"#utility.yul\":18968:19387   */\n    tag_215:\n        /* \"#utility.yul\":19134:19138   */\n      0x00\n        /* \"#utility.yul\":19172:19174   */\n      0x20\n        /* \"#utility.yul\":19161:19170   */\n      dup3\n        /* \"#utility.yul\":19157:19175   */\n      add\n        /* \"#utility.yul\":19149:19175   */\n      swap1\n      pop\n        /* \"#utility.yul\":19221:19230   */\n      dup2\n        /* \"#utility.yul\":19215:19219   */\n      dup2\n        /* \"#utility.yul\":19211:19231   */\n      sub\n        /* \"#utility.yul\":19207:19208   */\n      0x00\n        /* \"#utility.yul\":19196:19205   */\n      dup4\n        /* \"#utility.yul\":19192:19209   */\n      add\n        /* \"#utility.yul\":19185:19232   */\n      mstore\n        /* \"#utility.yul\":19249:19380   */\n      tag_469\n        /* \"#utility.yul\":19375:19379   */\n      dup2\n        /* \"#utility.yul\":19249:19380   */\n      tag_402\n      jump\t// in\n    tag_469:\n        /* \"#utility.yul\":19241:19380   */\n      swap1\n      pop\n        /* \"#utility.yul\":18968:19387   */\n      swap2\n      swap1\n      pop\n      jump\t// out\n        /* \"#utility.yul\":19393:19812   */\n    tag_136:\n        /* \"#utility.yul\":19559:19563   */\n      0x00\n        /* \"#utility.yul\":19597:19599   */\n      0x20\n        /* \"#utility.yul\":19586:19595   */\n      dup3\n        /* \"#utility.yul\":19582:19600   */\n      add\n        /* \"#utility.yul\":19574:19600   */\n      swap1\n      pop\n        /* \"#utility.yul\":19646:19655   */\n      dup2\n        /* \"#utility.yul\":19640:19644   */\n      dup2\n        /* \"#utility.yul\":19636:19656   */\n      sub\n        /* \"#utility.yul\":19632:19633   */\n      0x00\n        /* \"#utility.yul\":19621:19630   */\n      dup4\n        /* \"#utility.yul\":19617:19634   */\n      add\n        /* \"#utility.yul\":19610:19657   */\n      mstore\n        /* \"#utility.yul\":19674:19805   */\n      tag_471\n        /* \"#utility.yul\":19800:19804   */\n      dup2\n        /* \"#utility.yul\":19674:19805   */\n      tag_407\n      jump\t// in\n    tag_471:\n        /* \"#utility.yul\":19666:19805   */\n      swap1\n      pop\n        /* \"#utility.yul\":19393:19812   */\n      swap2\n      swap1\n      pop\n      jump\t// out\n        /* \"#utility.yul\":19818:20237   */\n    tag_181:\n        /* \"#utility.yul\":19984:19988   */\n      0x00\n        /* \"#utility.yul\":20022:20024   */\n      0x20\n        /* \"#utility.yul\":20011:20020   */\n      dup3\n        /* \"#utility.yul\":20007:20025   */\n      add\n        /* \"#utility.yul\":19999:20025   */\n      swap1\n      pop\n        /* \"#utility.yul\":20071:20080   */\n      dup2\n        /* \"#utility.yul\":20065:20069   */\n      dup2\n        /* \"#utility.yul\":20061:20081   */\n      sub\n        /* \"#utility.yul\":20057:20058   */\n      0x00\n        /* \"#utility.yul\":20046:20055   */\n      dup4\n        /* \"#utility.yul\":20042:20059   */\n      add\n        /* \"#utility.yul\":20035:20082   */\n      mstore\n        /* \"#utility.yul\":20099:20230   */\n      tag_473\n        /* \"#utility.yul\":20225:20229   */\n      dup2\n        /* \"#utility.yul\":20099:20230   */\n      tag_412\n      jump\t// in\n    tag_473:\n        /* \"#utility.yul\":20091:20230   */\n      swap1\n      pop\n        /* \"#utility.yul\":19818:20237   */\n      swap2\n      swap1\n      pop\n      jump\t// out\n        /* \"#utility.yul\":20243:20662   */\n    tag_152:\n        /* \"#utility.yul\":20409:20413   */\n      0x00\n        /* \"#utility.yul\":20447:20449   */\n      0x20\n        /* \"#utility.yul\":20436:20445   */\n      dup3\n        /* \"#utility.yul\":20432:20450   */\n      add\n        /* \"#utility.yul\":20424:20450   */\n      swap1\n      pop\n        /* \"#utility.yul\":20496:20505   */\n      dup2\n        /* \"#utility.yul\":20490:20494   */\n      dup2\n        /* \"#utility.yul\":20486:20506   */\n      sub\n        /* \"#utility.yul\":20482:20483   */\n      0x00\n        /* \"#utility.yul\":20471:20480   */\n      dup4\n        /* \"#utility.yul\":20467:20484   */\n      add\n        /* \"#utility.yul\":20460:20507   */\n      mstore\n        /* \"#utility.yul\":20524:20655   */\n      tag_475\n        /* \"#utility.yul\":20650:20654   */\n      dup2\n        /* \"#utility.yul\":20524:20655   */\n      tag_417\n      jump\t// in\n    tag_475:\n        /* \"#utility.yul\":20516:20655   */\n      swap1\n      pop\n        /* \"#utility.yul\":20243:20662   */\n      swap2\n      swap1\n      pop\n      jump\t// out\n        /* \"#utility.yul\":20668:20890   */\n    tag_34:\n        /* \"#utility.yul\":20761:20765   */\n      0x00\n        /* \"#utility.yul\":20799:20801   */\n      0x20\n        /* \"#utility.yul\":20788:20797   */\n      dup3\n        /* \"#utility.yul\":20784:20802   */\n      add\n        /* \"#utility.yul\":20776:20802   */\n      swap1\n      pop\n        /* \"#utility.yul\":20812:20883   */\n      tag_477\n        /* \"#utility.yul\":20880:20881   */\n      0x00\n        /* \"#utility.yul\":20869:20878   */\n      dup4\n        /* \"#utility.yul\":20865:20882   */\n      add\n        /* \"#utility.yul\":20856:20862   */\n      dup5\n        /* \"#utility.yul\":20812:20883   */\n      tag_426\n      jump\t// in\n    tag_477:\n        /* \"#utility.yul\":20668:20890   */\n      swap3\n      swap2\n      pop\n      pop\n      jump\t// out\n        /* \"#utility.yul\":20896:21025   */\n    tag_250:\n        /* \"#utility.yul\":20930:20936   */\n      0x00\n        /* \"#utility.yul\":20957:20977   */\n      tag_479\n      tag_480\n      jump\t// in\n    tag_479:\n        /* \"#utility.yul\":20947:20977   */\n      swap1\n      pop\n        /* \"#utility.yul\":20986:21019   */\n      tag_481\n        /* \"#utility.yul\":21014:21018   */\n      dup3\n        /* \"#utility.yul\":21006:21012   */\n      dup3\n        /* \"#utility.yul\":20986:21019   */\n      tag_482\n      jump\t// in\n    tag_481:\n        /* \"#utility.yul\":20896:21025   */\n      swap2\n      swap1\n      pop\n      jump\t// out\n        /* \"#utility.yul\":21031:21106   */\n    tag_480:\n        /* \"#utility.yul\":21064:21070   */\n      0x00\n        /* \"#utility.yul\":21097:21099   */\n      0x40\n        /* \"#utility.yul\":21091:21100   */\n      mload\n        /* \"#utility.yul\":21081:21100   */\n      swap1\n      pop\n        /* \"#utility.yul\":21031:21106   */\n      swap1\n      jump\t// out\n        /* \"#utility.yul\":21112:21420   */\n    tag_249:\n        /* \"#utility.yul\":21174:21178   */\n      0x00\n        /* \"#utility.yul\":21264:21282   */\n      0xffffffffffffffff\n        /* \"#utility.yul\":21256:21262   */\n      dup3\n        /* \"#utility.yul\":21253:21283   */\n      gt\n        /* \"#utility.yul\":21250:21306   */\n      iszero\n      tag_485\n      jumpi\n        /* \"#utility.yul\":21286:21304   */\n      tag_486\n      tag_487\n      jump\t// in\n    tag_486:\n        /* \"#utility.yul\":21250:21306   */\n    tag_485:\n        /* \"#utility.yul\":21324:21353   */\n      tag_488\n        /* \"#utility.yul\":21346:21352   */\n      dup3\n        /* \"#utility.yul\":21324:21353   */\n      tag_366\n      jump\t// in\n    tag_488:\n        /* \"#utility.yul\":21316:21353   */\n      swap1\n      pop\n        /* \"#utility.yul\":21408:21412   */\n      0x20\n        /* \"#utility.yul\":21402:21406   */\n      dup2\n        /* \"#utility.yul\":21398:21413   */\n      add\n        /* \"#utility.yul\":21390:21413   */\n      swap1\n      pop\n        /* \"#utility.yul\":21112:21420   */\n      swap2\n      swap1\n      pop\n      jump\t// out\n        /* \"#utility.yul\":21426:21578   */\n    tag_339:\n        /* \"#utility.yul\":21513:21517   */\n      0x00\n        /* \"#utility.yul\":21536:21539   */\n      dup2\n        /* \"#utility.yul\":21528:21539   */\n      swap1\n      pop\n        /* \"#utility.yul\":21566:21570   */\n      0x20\n        /* \"#utility.yul\":21561:21564   */\n      dup3\n        /* \"#utility.yul\":21557:21571   */\n      add\n        /* \"#utility.yul\":21549:21571   */\n      swap1\n      pop\n        /* \"#utility.yul\":21426:21578   */\n      swap2\n      swap1\n      pop\n      jump\t// out\n        /* \"#utility.yul\":21584:21718   */\n    tag_335:\n        /* \"#utility.yul\":21671:21677   */\n      0x00\n        /* \"#utility.yul\":21705:21710   */\n      dup2\n        /* \"#utility.yul\":21699:21711   */\n      mload\n        /* \"#utility.yul\":21689:21711   */\n      swap1\n      pop\n        /* \"#utility.yul\":21584:21718   */\n      swap2\n      swap1\n      pop\n      jump\t// out\n        /* \"#utility.yul\":21724:21823   */\n    tag_360:\n        /* \"#utility.yul\":21776:21782   */\n      0x00\n        /* \"#utility.yul\":21810:21815   */\n      dup2\n        /* \"#utility.yul\":21804:21816   */\n      mload\n        /* \"#utility.yul\":21794:21816   */\n      swap1\n      pop\n        /* \"#utility.yul\":21724:21823   */\n      swap2\n      swap1\n      pop\n      jump\t// out\n        /* \"#utility.yul\":21829:21962   */\n    tag_345:\n        /* \"#utility.yul\":21919:21923   */\n      0x00\n        /* \"#utility.yul\":21951:21955   */\n      0x20\n        /* \"#utility.yul\":21946:21949   */\n      dup3\n        /* \"#utility.yul\":21942:21956   */\n      add\n        /* \"#utility.yul\":21934:21956   */\n      swap1\n      pop\n        /* \"#utility.yul\":21829:21962   */\n      swap2\n      swap1\n      pop\n      jump\t// out\n        /* \"#utility.yul\":21968:22172   */\n    tag_337:\n        /* \"#utility.yul\":22087:22098   */\n      0x00\n        /* \"#utility.yul\":22121:22127   */\n      dup3\n        /* \"#utility.yul\":22116:22119   */\n      dup3\n        /* \"#utility.yul\":22109:22128   */\n      mstore\n        /* \"#utility.yul\":22161:22165   */\n      0x20\n        /* \"#utility.yul\":22156:22159   */\n      dup3\n        /* \"#utility.yul\":22152:22166   */\n      add\n        /* \"#utility.yul\":22137:22166   */\n      swap1\n      pop\n        /* \"#utility.yul\":21968:22172   */\n      swap3\n      swap2\n      pop\n      pop\n      jump\t// out\n        /* \"#utility.yul\":22178:22347   */\n    tag_362:\n        /* \"#utility.yul\":22262:22273   */\n      0x00\n        /* \"#utility.yul\":22296:22302   */\n      dup3\n        /* \"#utility.yul\":22291:22294   */\n      dup3\n        /* \"#utility.yul\":22284:22303   */\n      mstore\n        /* \"#utility.yul\":22336:22340   */\n      0x20\n        /* \"#utility.yul\":22331:22334   */\n      dup3\n        /* \"#utility.yul\":22327:22341   */\n      add\n        /* \"#utility.yul\":22312:22341   */\n      swap1\n      pop\n        /* \"#utility.yul\":22178:22347   */\n      swap3\n      swap2\n      pop\n      pop\n      jump\t// out\n        /* \"#utility.yul\":22353:22658   */\n    tag_190:\n        /* \"#utility.yul\":22393:22396   */\n      0x00\n        /* \"#utility.yul\":22412:22432   */\n      tag_496\n        /* \"#utility.yul\":22430:22431   */\n      dup3\n        /* \"#utility.yul\":22412:22432   */\n      tag_429\n      jump\t// in\n    tag_496:\n        /* \"#utility.yul\":22407:22432   */\n      swap2\n      pop\n        /* \"#utility.yul\":22446:22466   */\n      tag_497\n        /* \"#utility.yul\":22464:22465   */\n      dup4\n        /* \"#utility.yul\":22446:22466   */\n      tag_429\n      jump\t// in\n    tag_497:\n        /* \"#utility.yul\":22441:22466   */\n      swap3\n      pop\n        /* \"#utility.yul\":22600:22601   */\n      dup3\n        /* \"#utility.yul\":22532:22598   */\n      0xffffffffffffffffffffffffffffffffffffffffffffffffffffffffffffffff\n        /* \"#utility.yul\":22528:22602   */\n      sub\n        /* \"#utility.yul\":22525:22526   */\n      dup3\n        /* \"#utility.yul\":22522:22603   */\n      gt\n        /* \"#utility.yul\":22519:22626   */\n      iszero\n      tag_498\n      jumpi\n        /* \"#utility.yul\":22606:22624   */\n      tag_499\n      tag_500\n      jump\t// in\n    tag_499:\n        /* \"#utility.yul\":22519:22626   */\n    tag_498:\n        /* \"#utility.yul\":22650:22651   */\n      dup3\n        /* \"#utility.yul\":22647:22648   */\n      dup3\n        /* \"#utility.yul\":22643:22652   */\n      add\n        /* \"#utility.yul\":22636:22652   */\n      swap1\n      pop\n        /* \"#utility.yul\":22353:22658   */\n      swap3\n      swap2\n      pop\n      pop\n      jump\t// out\n        /* \"#utility.yul\":22664:22849   */\n    tag_158:\n        /* \"#utility.yul\":22704:22705   */\n      0x00\n        /* \"#utility.yul\":22721:22741   */\n      tag_502\n        /* \"#utility.yul\":22739:22740   */\n      dup3\n        /* \"#utility.yul\":22721:22741   */\n      tag_429\n      jump\t// in\n    tag_502:\n        /* \"#utility.yul\":22716:22741   */\n      swap2\n      pop\n        /* \"#utility.yul\":22755:22775   */\n      tag_503\n        /* \"#utility.yul\":22773:22774   */\n      dup4\n        /* \"#utility.yul\":22755:22775   */\n      tag_429\n      jump\t// in\n    tag_503:\n        /* \"#utility.yul\":22750:22775   */\n      swap3\n      pop\n        /* \"#utility.yul\":22794:22795   */\n      dup3\n        /* \"#utility.yul\":22784:22819   */\n      tag_504\n      jumpi\n        /* \"#utility.yul\":22799:22817   */\n      tag_505\n      tag_506\n      jump\t// in\n    tag_505:\n        /* \"#utility.yul\":22784:22819   */\n    tag_504:\n        /* \"#utility.yul\":22841:22842   */\n      dup3\n        /* \"#utility.yul\":22838:22839   */\n      dup3\n        /* \"#utility.yul\":22834:22843   */\n      div\n        /* \"#utility.yul\":22829:22843   */\n      swap1\n      pop\n        /* \"#utility.yul\":22664:22849   */\n      swap3\n      swap2\n      pop\n      pop\n      jump\t// out\n        /* \"#utility.yul\":22855:23203   */\n    tag_160:\n        /* \"#utility.yul\":22895:22902   */\n      0x00\n        /* \"#utility.yul\":22918:22938   */\n      tag_508\n        /* \"#utility.yul\":22936:22937   */\n      dup3\n        /* \"#utility.yul\":22918:22938   */\n      tag_429\n      jump\t// in\n    tag_508:\n        /* \"#utility.yul\":22913:22938   */\n      swap2\n      pop\n        /* \"#utility.yul\":22952:22972   */\n      tag_509\n        /* \"#utility.yul\":22970:22971   */\n      dup4\n        /* \"#utility.yul\":22952:22972   */\n      tag_429\n      jump\t// in\n    tag_509:\n        /* \"#utility.yul\":22947:22972   */\n      swap3\n      pop\n        /* \"#utility.yul\":23140:23141   */\n      dup2\n        /* \"#utility.yul\":23072:23138   */\n      0xffffffffffffffffffffffffffffffffffffffffffffffffffffffffffffffff\n        /* \"#utility.yul\":23068:23142   */\n      div\n        /* \"#utility.yul\":23065:23066   */\n      dup4\n        /* \"#utility.yul\":23062:23143   */\n      gt\n        /* \"#utility.yul\":23057:23058   */\n      dup3\n        /* \"#utility.yul\":23050:23059   */\n      iszero\n        /* \"#utility.yul\":23043:23060   */\n      iszero\n        /* \"#utility.yul\":23039:23144   */\n      and\n        /* \"#utility.yul\":23036:23167   */\n      iszero\n      tag_510\n      jumpi\n        /* \"#utility.yul\":23147:23165   */\n      tag_511\n      tag_500\n      jump\t// in\n    tag_511:\n        /* \"#utility.yul\":23036:23167   */\n    tag_510:\n        /* \"#utility.yul\":23195:23196   */\n      dup3\n        /* \"#utility.yul\":23192:23193   */\n      dup3\n        /* \"#utility.yul\":23188:23197   */\n      mul\n        /* \"#utility.yul\":23177:23197   */\n      swap1\n      pop\n        /* \"#utility.yul\":22855:23203   */\n      swap3\n      swap2\n      pop\n      pop\n      jump\t// out\n        /* \"#utility.yul\":23209:23305   */\n    tag_328:\n        /* \"#utility.yul\":23246:23253   */\n      0x00\n        /* \"#utility.yul\":23275:23299   */\n      tag_513\n        /* \"#utility.yul\":23293:23298   */\n      dup3\n        /* \"#utility.yul\":23275:23299   */\n      tag_514\n      jump\t// in\n    tag_513:\n        /* \"#utility.yul\":23264:23299   */\n      swap1\n      pop\n        /* \"#utility.yul\":23209:23305   */\n      swap2\n      swap1\n      pop\n      jump\t// out\n        /* \"#utility.yul\":23311:23401   */\n    tag_349:\n        /* \"#utility.yul\":23345:23352   */\n      0x00\n        /* \"#utility.yul\":23388:23393   */\n      dup2\n        /* \"#utility.yul\":23381:23394   */\n      iszero\n        /* \"#utility.yul\":23374:23395   */\n      iszero\n        /* \"#utility.yul\":23363:23395   */\n      swap1\n      pop\n        /* \"#utility.yul\":23311:23401   */\n      swap2\n      swap1\n      pop\n      jump\t// out\n        /* \"#utility.yul\":23407:23484   */\n    tag_356:\n        /* \"#utility.yul\":23444:23451   */\n      0x00\n        /* \"#utility.yul\":23473:23478   */\n      dup2\n        /* \"#utility.yul\":23462:23478   */\n      swap1\n      pop\n        /* \"#utility.yul\":23407:23484   */\n      swap2\n      swap1\n      pop\n      jump\t// out\n        /* \"#utility.yul\":23490:23616   */\n    tag_514:\n        /* \"#utility.yul\":23527:23534   */\n      0x00\n        /* \"#utility.yul\":23567:23609   */\n      0xffffffffffffffffffffffffffffffffffffffff\n        /* \"#utility.yul\":23560:23565   */\n      dup3\n        /* \"#utility.yul\":23556:23610   */\n      and\n        /* \"#utility.yul\":23545:23610   */\n      swap1\n      pop\n        /* \"#utility.yul\":23490:23616   */\n      swap2\n      swap1\n      pop\n      jump\t// out\n        /* \"#utility.yul\":23622:23699   */\n    tag_429:\n        /* \"#utility.yul\":23659:23666   */\n      0x00\n        /* \"#utility.yul\":23688:23693   */\n      dup2\n        /* \"#utility.yul\":23677:23693   */\n      swap1\n      pop\n        /* \"#utility.yul\":23622:23699   */\n      swap2\n      swap1\n      pop\n      jump\t// out\n        /* \"#utility.yul\":23705:23791   */\n    tag_519:\n        /* \"#utility.yul\":23740:23747   */\n      0x00\n        /* \"#utility.yul\":23780:23784   */\n      0xff\n        /* \"#utility.yul\":23773:23778   */\n      dup3\n        /* \"#utility.yul\":23769:23785   */\n      and\n        /* \"#utility.yul\":23758:23785   */\n      swap1\n      pop\n        /* \"#utility.yul\":23705:23791   */\n      swap2\n      swap1\n      pop\n      jump\t// out\n        /* \"#utility.yul\":23797:23951   */\n    tag_255:\n        /* \"#utility.yul\":23881:23887   */\n      dup3\n        /* \"#utility.yul\":23876:23879   */\n      dup2\n        /* \"#utility.yul\":23871:23874   */\n      dup4\n        /* \"#utility.yul\":23858:23888   */\n      calldatacopy\n        /* \"#utility.yul\":23943:23944   */\n      0x00\n        /* \"#utility.yul\":23934:23940   */\n      dup4\n        /* \"#utility.yul\":23929:23932   */\n      dup4\n        /* \"#utility.yul\":23925:23941   */\n      add\n        /* \"#utility.yul\":23918:23945   */\n      mstore\n        /* \"#utility.yul\":23797:23951   */\n      pop\n      pop\n      pop\n      jump\t// out\n        /* \"#utility.yul\":23957:24264   */\n    tag_364:\n        /* \"#utility.yul\":24025:24026   */\n      0x00\n        /* \"#utility.yul\":24035:24148   */\n    tag_523:\n        /* \"#utility.yul\":24049:24055   */\n      dup4\n        /* \"#utility.yul\":24046:24047   */\n      dup2\n        /* \"#utility.yul\":24043:24056   */\n      lt\n        /* \"#utility.yul\":24035:24148   */\n      iszero\n      tag_525\n      jumpi\n        /* \"#utility.yul\":24134:24135   */\n      dup1\n        /* \"#utility.yul\":24129:24132   */\n      dup3\n        /* \"#utility.yul\":24125:24136   */\n      add\n        /* \"#utility.yul\":24119:24137   */\n      mload\n        /* \"#utility.yul\":24115:24116   */\n      dup2\n        /* \"#utility.yul\":24110:24113   */\n      dup5\n        /* \"#utility.yul\":24106:24117   */\n      add\n        /* \"#utility.yul\":24099:24138   */\n      mstore\n        /* \"#utility.yul\":24071:24073   */\n      0x20\n        /* \"#utility.yul\":24068:24069   */\n      dup2\n        /* \"#utility.yul\":24064:24074   */\n      add\n        /* \"#utility.yul\":24059:24074   */\n      swap1\n      pop\n        /* \"#utility.yul\":24035:24148   */\n      jump(tag_523)\n    tag_525:\n        /* \"#utility.yul\":24166:24172   */\n      dup4\n        /* \"#utility.yul\":24163:24164   */\n      dup2\n        /* \"#utility.yul\":24160:24173   */\n      gt\n        /* \"#utility.yul\":24157:24258   */\n      iszero\n      tag_526\n      jumpi\n        /* \"#utility.yul\":24246:24247   */\n      0x00\n        /* \"#utility.yul\":24237:24243   */\n      dup5\n        /* \"#utility.yul\":24232:24235   */\n      dup5\n        /* \"#utility.yul\":24228:24244   */\n      add\n        /* \"#utility.yul\":24221:24248   */\n      mstore\n        /* \"#utility.yul\":24157:24258   */\n    tag_526:\n        /* \"#utility.yul\":24006:24264   */\n      pop\n        /* \"#utility.yul\":23957:24264   */\n      pop\n      pop\n      pop\n      jump\t// out\n        /* \"#utility.yul\":24270:24590   */\n    tag_202:\n        /* \"#utility.yul\":24314:24320   */\n      0x00\n        /* \"#utility.yul\":24351:24352   */\n      0x02\n        /* \"#utility.yul\":24345:24349   */\n      dup3\n        /* \"#utility.yul\":24341:24353   */\n      div\n        /* \"#utility.yul\":24331:24353   */\n      swap1\n      pop\n        /* \"#utility.yul\":24398:24399   */\n      0x01\n        /* \"#utility.yul\":24392:24396   */\n      dup3\n        /* \"#utility.yul\":24388:24400   */\n      and\n        /* \"#utility.yul\":24419:24437   */\n      dup1\n        /* \"#utility.yul\":24409:24490   */\n      tag_528\n      jumpi\n        /* \"#utility.yul\":24475:24479   */\n      0x7f\n        /* \"#utility.yul\":24467:24473   */\n      dup3\n        /* \"#utility.yul\":24463:24480   */\n      and\n        /* \"#utility.yul\":24453:24480   */\n      swap2\n      pop\n        /* \"#utility.yul\":24409:24490   */\n    tag_528:\n        /* \"#utility.yul\":24537:24539   */\n      0x20\n        /* \"#utility.yul\":24529:24535   */\n      dup3\n        /* \"#utility.yul\":24526:24540   */\n      lt\n        /* \"#utility.yul\":24506:24524   */\n      dup2\n        /* \"#utility.yul\":24503:24541   */\n      eq\n        /* \"#utility.yul\":24500:24584   */\n      iszero\n      tag_529\n      jumpi\n        /* \"#utility.yul\":24556:24574   */\n      tag_530\n      tag_531\n      jump\t// in\n    tag_530:\n        /* \"#utility.yul\":24500:24584   */\n    tag_529:\n        /* \"#utility.yul\":24321:24590   */\n      pop\n        /* \"#utility.yul\":24270:24590   */\n      swap2\n      swap1\n      pop\n      jump\t// out\n        /* \"#utility.yul\":24596:24877   */\n    tag_482:\n        /* \"#utility.yul\":24679:24706   */\n      tag_533\n        /* \"#utility.yul\":24701:24705   */\n      dup3\n        /* \"#utility.yul\":24679:24706   */\n      tag_366\n      jump\t// in\n    tag_533:\n        /* \"#utility.yul\":24671:24677   */\n      dup2\n        /* \"#utility.yul\":24667:24707   */\n      add\n        /* \"#utility.yul\":24809:24815   */\n      dup2\n        /* \"#utility.yul\":24797:24807   */\n      dup2\n        /* \"#utility.yul\":24794:24816   */\n      lt\n        /* \"#utility.yul\":24773:24791   */\n      0xffffffffffffffff\n        /* \"#utility.yul\":24761:24771   */\n      dup3\n        /* \"#utility.yul\":24758:24792   */\n      gt\n        /* \"#utility.yul\":24755:24817   */\n      or\n        /* \"#utility.yul\":24752:24840   */\n      iszero\n      tag_534\n      jumpi\n        /* \"#utility.yul\":24820:24838   */\n      tag_535\n      tag_487\n      jump\t// in\n    tag_535:\n        /* \"#utility.yul\":24752:24840   */\n    tag_534:\n        /* \"#utility.yul\":24860:24870   */\n      dup1\n        /* \"#utility.yul\":24856:24858   */\n      0x40\n        /* \"#utility.yul\":24849:24871   */\n      mstore\n        /* \"#utility.yul\":24639:24877   */\n      pop\n        /* \"#utility.yul\":24596:24877   */\n      pop\n      pop\n      jump\t// out\n        /* \"#utility.yul\":24883:25050   */\n    tag_175:\n        /* \"#utility.yul\":24920:24923   */\n      0x00\n        /* \"#utility.yul\":24943:24965   */\n      tag_537\n        /* \"#utility.yul\":24959:24964   */\n      dup3\n        /* \"#utility.yul\":24943:24965   */\n      tag_519\n      jump\t// in\n    tag_537:\n        /* \"#utility.yul\":24934:24965   */\n      swap2\n      pop\n        /* \"#utility.yul\":24987:24991   */\n      0xff\n        /* \"#utility.yul\":24980:24985   */\n      dup3\n        /* \"#utility.yul\":24977:24992   */\n      eq\n        /* \"#utility.yul\":24974:25015   */\n      iszero\n      tag_538\n      jumpi\n        /* \"#utility.yul\":24995:25013   */\n      tag_539\n      tag_500\n      jump\t// in\n    tag_539:\n        /* \"#utility.yul\":24974:25015   */\n    tag_538:\n        /* \"#utility.yul\":25042:25043   */\n      0x01\n        /* \"#utility.yul\":25035:25040   */\n      dup3\n        /* \"#utility.yul\":25031:25044   */\n      add\n        /* \"#utility.yul\":25024:25044   */\n      swap1\n      pop\n        /* \"#utility.yul\":24883:25050   */\n      swap2\n      swap1\n      pop\n      jump\t// out\n        /* \"#utility.yul\":25056:25236   */\n    tag_500:\n        /* \"#utility.yul\":25104:25181   */\n      0x4e487b7100000000000000000000000000000000000000000000000000000000\n        /* \"#utility.yul\":25101:25102   */\n      0x00\n        /* \"#utility.yul\":25094:25182   */\n      mstore\n        /* \"#utility.yul\":25201:25205   */\n      0x11\n        /* \"#utility.yul\":25198:25199   */\n      0x04\n        /* \"#utility.yul\":25191:25206   */\n      mstore\n        /* \"#utility.yul\":25225:25229   */\n      0x24\n        /* \"#utility.yul\":25222:25223   */\n      0x00\n        /* \"#utility.yul\":25215:25230   */\n      revert\n        /* \"#utility.yul\":25242:25422   */\n    tag_506:\n        /* \"#utility.yul\":25290:25367   */\n      0x4e487b7100000000000000000000000000000000000000000000000000000000\n        /* \"#utility.yul\":25287:25288   */\n      0x00\n        /* \"#utility.yul\":25280:25368   */\n      mstore\n        /* \"#utility.yul\":25387:25391   */\n      0x12\n        /* \"#utility.yul\":25384:25385   */\n      0x04\n        /* \"#utility.yul\":25377:25392   */\n      mstore\n        /* \"#utility.yul\":25411:25415   */\n      0x24\n        /* \"#utility.yul\":25408:25409   */\n      0x00\n        /* \"#utility.yul\":25401:25416   */\n      revert\n        /* \"#utility.yul\":25428:25608   */\n    tag_531:\n        /* \"#utility.yul\":25476:25553   */\n      0x4e487b7100000000000000000000000000000000000000000000000000000000\n        /* \"#utility.yul\":25473:25474   */\n      0x00\n        /* \"#utility.yul\":25466:25554   */\n      mstore\n        /* \"#utility.yul\":25573:25577   */\n      0x22\n        /* \"#utility.yul\":25570:25571   */\n      0x04\n        /* \"#utility.yul\":25563:25578   */\n      mstore\n        /* \"#utility.yul\":25597:25601   */\n      0x24\n        /* \"#utility.yul\":25594:25595   */\n      0x00\n        /* \"#utility.yul\":25587:25602   */\n      revert\n        /* \"#utility.yul\":25614:25794   */\n    tag_167:\n        /* \"#utility.yul\":25662:25739   */\n      0x4e487b7100000000000000000000000000000000000000000000000000000000\n        /* \"#utility.yul\":25659:25660   */\n      0x00\n        /* \"#utility.yul\":25652:25740   */\n      mstore\n        /* \"#utility.yul\":25759:25763   */\n      0x32\n        /* \"#utility.yul\":25756:25757   */\n      0x04\n        /* \"#utility.yul\":25749:25764   */\n      mstore\n        /* \"#utility.yul\":25783:25787   */\n      0x24\n        /* \"#utility.yul\":25780:25781   */\n      0x00\n        /* \"#utility.yul\":25773:25788   */\n      revert\n        /* \"#utility.yul\":25800:25980   */\n    tag_487:\n        /* \"#utility.yul\":25848:25925   */\n      0x4e487b7100000000000000000000000000000000000000000000000000000000\n        /* \"#utility.yul\":25845:25846   */\n      0x00\n        /* \"#utility.yul\":25838:25926   */\n      mstore\n        /* \"#utility.yul\":25945:25949   */\n      0x41\n        /* \"#utility.yul\":25942:25943   */\n      0x04\n        /* \"#utility.yul\":25935:25950   */\n      mstore\n        /* \"#utility.yul\":25969:25973   */\n      0x24\n        /* \"#utility.yul\":25966:25967   */\n      0x00\n        /* \"#utility.yul\":25959:25974   */\n      revert\n        /* \"#utility.yul\":25986:26103   */\n    tag_268:\n        /* \"#utility.yul\":26095:26096   */\n      0x00\n        /* \"#utility.yul\":26092:26093   */\n      dup1\n        /* \"#utility.yul\":26085:26097   */\n      revert\n        /* \"#utility.yul\":26109:26226   */\n    tag_253:\n        /* \"#utility.yul\":26218:26219   */\n      0x00\n        /* \"#utility.yul\":26215:26216   */\n      dup1\n        /* \"#utility.yul\":26208:26220   */\n      revert\n        /* \"#utility.yul\":26232:26349   */\n    tag_311:\n        /* \"#utility.yul\":26341:26342   */\n      0x00\n        /* \"#utility.yul\":26338:26339   */\n      dup1\n        /* \"#utility.yul\":26331:26343   */\n      revert\n        /* \"#utility.yul\":26355:26472   */\n    tag_277:\n        /* \"#utility.yul\":26464:26465   */\n      0x00\n        /* \"#utility.yul\":26461:26462   */\n      dup1\n        /* \"#utility.yul\":26454:26466   */\n      revert\n        /* \"#utility.yul\":26478:26580   */\n    tag_366:\n        /* \"#utility.yul\":26519:26525   */\n      0x00\n        /* \"#utility.yul\":26570:26572   */\n      0x1f\n        /* \"#utility.yul\":26566:26573   */\n      not\n        /* \"#utility.yul\":26561:26563   */\n      0x1f\n        /* \"#utility.yul\":26554:26559   */\n      dup4\n        /* \"#utility.yul\":26550:26564   */\n      add\n        /* \"#utility.yul\":26546:26574   */\n      and\n        /* \"#utility.yul\":26536:26574   */\n      swap1\n      pop\n        /* \"#utility.yul\":26478:26580   */\n      swap2\n      swap1\n      pop\n      jump\t// out\n        /* \"#utility.yul\":26586:26767   */\n    tag_371:\n        /* \"#utility.yul\":26726:26759   */\n      0x526563697069656e7420697320616c7265616479207265676973746572656400\n        /* \"#utility.yul\":26722:26723   */\n      0x00\n        /* \"#utility.yul\":26714:26720   */\n      dup3\n        /* \"#utility.yul\":26710:26724   */\n      add\n        /* \"#utility.yul\":26703:26760   */\n      mstore\n        /* \"#utility.yul\":26586:26767   */\n      pop\n      jump\t// out\n        /* \"#utility.yul\":26773:26948   */\n    tag_376:\n        /* \"#utility.yul\":26913:26940   */\n      0x50726f706f73616c20616c726561647920637265617465642100000000000000\n        /* \"#utility.yul\":26909:26910   */\n      0x00\n        /* \"#utility.yul\":26901:26907   */\n      dup3\n        /* \"#utility.yul\":26897:26911   */\n      add\n        /* \"#utility.yul\":26890:26941   */\n      mstore\n        /* \"#utility.yul\":26773:26948   */\n      pop\n      jump\t// out\n        /* \"#utility.yul\":26954:27179   */\n    tag_381:\n        /* \"#utility.yul\":27094:27128   */\n      0x596f75206172656e277420617574686f72697a6520746f20636f6d70696c6520\n        /* \"#utility.yul\":27090:27091   */\n      0x00\n        /* \"#utility.yul\":27082:27088   */\n      dup3\n        /* \"#utility.yul\":27078:27092   */\n      add\n        /* \"#utility.yul\":27071:27129   */\n      mstore\n        /* \"#utility.yul\":27163:27171   */\n      0x42756e646c650000000000000000000000000000000000000000000000000000\n        /* \"#utility.yul\":27158:27160   */\n      0x20\n        /* \"#utility.yul\":27150:27156   */\n      dup3\n        /* \"#utility.yul\":27146:27161   */\n      add\n        /* \"#utility.yul\":27139:27172   */\n      mstore\n        /* \"#utility.yul\":26954:27179   */\n      pop\n      jump\t// out\n        /* \"#utility.yul\":27185:27363   */\n    tag_386:\n        /* \"#utility.yul\":27325:27355   */\n      0x596f7520616c72656164792073656e74206120726573706f6e73652e00000000\n        /* \"#utility.yul\":27321:27322   */\n      0x00\n        /* \"#utility.yul\":27313:27319   */\n      dup3\n        /* \"#utility.yul\":27309:27323   */\n      add\n        /* \"#utility.yul\":27302:27356   */\n      mstore\n        /* \"#utility.yul\":27185:27363   */\n      pop\n      jump\t// out\n        /* \"#utility.yul\":27369:27540   */\n    tag_391:\n        /* \"#utility.yul\":27509:27532   */\n      0x496e69746961746f722063616e277420766f7465210000000000000000000000\n        /* \"#utility.yul\":27505:27506   */\n      0x00\n        /* \"#utility.yul\":27497:27503   */\n      dup3\n        /* \"#utility.yul\":27493:27507   */\n      add\n        /* \"#utility.yul\":27486:27533   */\n      mstore\n        /* \"#utility.yul\":27369:27540   */\n      pop\n      jump\t// out\n        /* \"#utility.yul\":27546:27726   */\n    tag_396:\n        /* \"#utility.yul\":27686:27718   */\n      0x596f7520617265206e6f74207265676973746572656420746f20766f74650000\n        /* \"#utility.yul\":27682:27683   */\n      0x00\n        /* \"#utility.yul\":27674:27680   */\n      dup3\n        /* \"#utility.yul\":27670:27684   */\n      add\n        /* \"#utility.yul\":27663:27719   */\n      mstore\n        /* \"#utility.yul\":27546:27726   */\n      pop\n      jump\t// out\n        /* \"#utility.yul\":27732:27955   */\n    tag_401:\n        /* \"#utility.yul\":27872:27906   */\n      0x50726f706f73616c206861732072656163686564206974732065787069727920\n        /* \"#utility.yul\":27868:27869   */\n      0x00\n        /* \"#utility.yul\":27860:27866   */\n      dup3\n        /* \"#utility.yul\":27856:27870   */\n      add\n        /* \"#utility.yul\":27849:27907   */\n      mstore\n        /* \"#utility.yul\":27941:27947   */\n      0x6461746500000000000000000000000000000000000000000000000000000000\n        /* \"#utility.yul\":27936:27938   */\n      0x20\n        /* \"#utility.yul\":27928:27934   */\n      dup3\n        /* \"#utility.yul\":27924:27939   */\n      add\n        /* \"#utility.yul\":27917:27948   */\n      mstore\n        /* \"#utility.yul\":27732:27955   */\n      pop\n      jump\t// out\n        /* \"#utility.yul\":27961:28188   */\n    tag_406:\n        /* \"#utility.yul\":28101:28135   */\n      0x4f6e6c7920696e69746961746f722063616e2072656769737465722061207265\n        /* \"#utility.yul\":28097:28098   */\n      0x00\n        /* \"#utility.yul\":28089:28095   */\n      dup3\n        /* \"#utility.yul\":28085:28099   */\n      add\n        /* \"#utility.yul\":28078:28136   */\n      mstore\n        /* \"#utility.yul\":28170:28180   */\n      0x63697069656e742e000000000000000000000000000000000000000000000000\n        /* \"#utility.yul\":28165:28167   */\n      0x20\n        /* \"#utility.yul\":28157:28163   */\n      dup3\n        /* \"#utility.yul\":28153:28168   */\n      add\n        /* \"#utility.yul\":28146:28181   */\n      mstore\n        /* \"#utility.yul\":27961:28188   */\n      pop\n      jump\t// out\n        /* \"#utility.yul\":28194:28376   */\n    tag_411:\n        /* \"#utility.yul\":28334:28368   */\n      0x5665726469637420686173206e6f74206265656e207265616368656420796574\n        /* \"#utility.yul\":28330:28331   */\n      0x00\n        /* \"#utility.yul\":28322:28328   */\n      dup3\n        /* \"#utility.yul\":28318:28332   */\n      add\n        /* \"#utility.yul\":28311:28369   */\n      mstore\n        /* \"#utility.yul\":28194:28376   */\n      pop\n      jump\t// out\n        /* \"#utility.yul\":28382:28550   */\n    tag_416:\n        /* \"#utility.yul\":28522:28542   */\n      0x566f74696e672068617320657870697265640000000000000000000000000000\n        /* \"#utility.yul\":28518:28519   */\n      0x00\n        /* \"#utility.yul\":28510:28516   */\n      dup3\n        /* \"#utility.yul\":28506:28520   */\n      add\n        /* \"#utility.yul\":28499:28543   */\n      mstore\n        /* \"#utility.yul\":28382:28550   */\n      pop\n      jump\t// out\n        /* \"#utility.yul\":28556:28780   */\n    tag_421:\n        /* \"#utility.yul\":28696:28730   */\n      0x436f6e73656e7375732068617320616c7265616479206265656e2063616c6375\n        /* \"#utility.yul\":28692:28693   */\n      0x00\n        /* \"#utility.yul\":28684:28690   */\n      dup3\n        /* \"#utility.yul\":28680:28694   */\n      add\n        /* \"#utility.yul\":28673:28731   */\n      mstore\n        /* \"#utility.yul\":28765:28772   */\n      0x6c61746564000000000000000000000000000000000000000000000000000000\n        /* \"#utility.yul\":28760:28762   */\n      0x20\n        /* \"#utility.yul\":28752:28758   */\n      dup3\n        /* \"#utility.yul\":28748:28763   */\n      add\n        /* \"#utility.yul\":28741:28773   */\n      mstore\n        /* \"#utility.yul\":28556:28780   */\n      pop\n      jump\t// out\n        /* \"#utility.yul\":28786:28908   */\n    tag_259:\n        /* \"#utility.yul\":28859:28883   */\n      tag_562\n        /* \"#utility.yul\":28877:28882   */\n      dup2\n        /* \"#utility.yul\":28859:28883   */\n      tag_328\n      jump\t// in\n    tag_562:\n        /* \"#utility.yul\":28852:28857   */\n      dup2\n        /* \"#utility.yul\":28849:28884   */\n      eq\n        /* \"#utility.yul\":28839:28902   */\n      tag_563\n      jumpi\n        /* \"#utility.yul\":28898:28899   */\n      0x00\n        /* \"#utility.yul\":28895:28896   */\n      dup1\n        /* \"#utility.yul\":28888:28900   */\n      revert\n        /* \"#utility.yul\":28839:28902   */\n    tag_563:\n        /* \"#utility.yul\":28786:28908   */\n      pop\n      jump\t// out\n        /* \"#utility.yul\":28914:29036   */\n    tag_263:\n        /* \"#utility.yul\":28987:29011   */\n      tag_565\n        /* \"#utility.yul\":29005:29010   */\n      dup2\n        /* \"#utility.yul\":28987:29011   */\n      tag_356\n      jump\t// in\n    tag_565:\n        /* \"#utility.yul\":28980:28985   */\n      dup2\n        /* \"#utility.yul\":28977:29012   */\n      eq\n        /* \"#utility.yul\":28967:29030   */\n      tag_566\n      jumpi\n        /* \"#utility.yul\":29026:29027   */\n      0x00\n        /* \"#utility.yul\":29023:29024   */\n      dup1\n        /* \"#utility.yul\":29016:29028   */\n      revert\n        /* \"#utility.yul\":28967:29030   */\n    tag_566:\n        /* \"#utility.yul\":28914:29036   */\n      pop\n      jump\t// out\n        /* \"#utility.yul\":29042:29164   */\n    tag_273:\n        /* \"#utility.yul\":29115:29139   */\n      tag_568\n        /* \"#utility.yul\":29133:29138   */\n      dup2\n        /* \"#utility.yul\":29115:29139   */\n      tag_429\n      jump\t// in\n    tag_568:\n        /* \"#utility.yul\":29108:29113   */\n      dup2\n        /* \"#utility.yul\":29105:29140   */\n      eq\n        /* \"#utility.yul\":29095:29158   */\n      tag_569\n      jumpi\n        /* \"#utility.yul\":29154:29155   */\n      0x00\n        /* \"#utility.yul\":29151:29152   */\n      dup1\n        /* \"#utility.yul\":29144:29156   */\n      revert\n        /* \"#utility.yul\":29095:29158   */\n    tag_569:\n        /* \"#utility.yul\":29042:29164   */\n      pop\n      jump\t// out\n\n    auxdata: 0xa2646970667358221220ab35d1700438d8e2bfeb3513c594cea2fe0399a7bd3c3db1f4f111fb269f33f964736f6c63430008070033\n}\n",
				"bytecode": {
					"linkReferences": {},
					"object": "608060405234801561001057600080fd5b506130ac806100206000396000f3fe608060405234801561001057600080fd5b506004361061014d5760003560e01c8063823a6366116100c3578063d443560a1161007c578063d443560a14610464578063d468f98314610494578063d5aabbd1146104b0578063e463eaee146104cc578063e5d009bf146104fc578063f20ca12c1461052c5761014d565b8063823a6366146103555780638acc0d101461038557806397299e99146103a1578063a0d859a3146103d2578063a4a8f42614610402578063a784ef74146104325761014d565b80635273bc48116101155780635273bc481461024957806356c583d8146102795780637a099c6a146102a95780637d6c570a146102d95780637ff4c389146102f557806381d0e37b146103255761014d565b806313191ade1461015257806327f0ae921461018257806333dfd126146101b557806338c20a9e146101e75780634fd3b44514610217575b600080fd5b61016c6004803603810190610167919061223a565b61055c565b60405161017991906129f1565b60405180910390f35b61019c6004803603810190610197919061223a565b610574565b6040516101ac94939291906127d8565b60405180910390f35b6101cf60048036038101906101ca91906122e7565b610719565b6040516101de939291906127a1565b60405180910390f35b61020160048036038101906101fc919061223a565b6107a2565b60405161020e919061274f565b60405180910390f35b610231600480360381019061022c91906122a7565b6107c2565b6040516102409392919061276a565b60405180910390f35b610263600480360381019061025e919061223a565b61083f565b604051610270919061274f565b60405180910390f35b610293600480360381019061028e919061223a565b610869565b6040516102a091906129f1565b60405180910390f35b6102c360048036038101906102be919061223a565b610881565b6040516102d091906129f1565b60405180910390f35b6102f360048036038101906102ee919061223a565b610899565b005b61030f600480360381019061030a91906122a7565b610df2565b60405161031c9190612734565b60405180910390f35b61033f600480360381019061033a919061223a565b610e40565b60405161034c91906129f1565b60405180910390f35b61036f600480360381019061036a919061223a565b610e58565b60405161037c919061274f565b60405180910390f35b61039f600480360381019061039a919061240c565b610e78565b005b6103bb60048036038101906103b6919061223a565b611734565b6040516103c992919061283f565b60405180910390f35b6103ec60048036038101906103e7919061223a565b6117f4565b6040516103f99190612824565b60405180910390f35b61041c6004803603810190610417919061223a565b61180c565b604051610429919061286f565b60405180910390f35b61044c60048036038101906104479190612267565b6118ac565b60405161045b9392919061276a565b60405180910390f35b61047e6004803603810190610479919061223a565b61191d565b60405161048b9190612734565b60405180910390f35b6104ae60048036038101906104a991906121fa565b611950565b005b6104ca60048036038101906104c5919061234e565b611d57565b005b6104e660048036038101906104e1919061223a565b612060565b6040516104f391906129f1565b60405180910390f35b6105166004803603810190610511919061223a565b612078565b6040516105239190612824565b60405180910390f35b6105466004803603810190610541919061223a565b612090565b6040516105539190612824565b60405180910390f35b60036020528060005260406000206000915090505481565b6000806000606060046000868152602001908152602001600020544210156105d1576040517f08c379a00000000000000000000000000000000000000000000000000000000081526004016105c890612991565b60405180910390fd5b6000600d6000878152602001908152602001600020805480602002602001604051908101604052809291908181526020016000905b828210156106c0578382906000526020600020016040518060600160405290816000820160009054906101000a900460ff161515151581526020016000820160019054906101000a900460ff161515151581526020016000820160029054906101000a900473ffffffffffffffffffffffffffffffffffffffff1673ffffffffffffffffffffffffffffffffffffffff1673ffffffffffffffffffffffffffffffffffffffff168152505081526020019060010190610606565b50505050905060006009600088815260200190815260200160002060009054906101000a900460ff1690506000600260008981526020019081526020016000205490508188828596509650965096505050509193509193565b60008060008060019050600060019050600060019050600760008b815260200190815260200160002054891461074e57600092505b600560008b815260200190815260200160002054871461076d57600091505b87600360008c8152602001908152602001600020541461078c57600090505b8282829550955095505050509450945094915050565b60096020528060005260406000206000915054906101000a900460ff1681565b600d60205281600052604060002081815481106107de57600080fd5b90600052602060002001600091509150508060000160009054906101000a900460ff16908060000160019054906101000a900460ff16908060000160029054906101000a900473ffffffffffffffffffffffffffffffffffffffff16905083565b6000600a600083815260200190815260200160002060009054906101000a900460ff169050919050565b60046020528060005260406000206000915090505481565b60076020528060005260406000206000915090505481565b60046000828152602001908152602001600020544210156108ef576040517f08c379a00000000000000000000000000000000000000000000000000000000081526004016108e690612991565b60405180910390fd5b60001515600a600083815260200190815260200160002060009054906101000a900460ff16151514610956576040517f08c379a000000000000000000000000000000000000000000000000000000000815260040161094d906129d1565b60405180910390fd5b60008082815260200190815260200160002060009054906101000a900473ffffffffffffffffffffffffffffffffffffffff1673ffffffffffffffffffffffffffffffffffffffff163373ffffffffffffffffffffffffffffffffffffffff161480610a625750600073ffffffffffffffffffffffffffffffffffffffff16600c600083815260200190815260200160002060003373ffffffffffffffffffffffffffffffffffffffff1673ffffffffffffffffffffffffffffffffffffffff16815260200190815260200160002060000160029054906101000a900473ffffffffffffffffffffffffffffffffffffffff1673ffffffffffffffffffffffffffffffffffffffff1614155b610aa1576040517f08c379a0000000000000000000000000000000000000000000000000000000008152600401610a98906128d1565b60405180910390fd5b60006064600e6000848152602001908152602001600020805490506006600085815260200190815260200160002054610ada9190612b0d565b610ae49190612b3e565b905060076000838152602001908152602001600020548110610b2d5760016009600084815260200190815260200160002060006101000a81548160ff0219169083151502179055505b60005b600e6000848152602001908152602001600020805490508160ff161015610dc15760001515600c60008581526020019081526020016000206000600e60008781526020019081526020016000208460ff1681548110610b9257610b91612d53565b5b9060005260206000200160009054906101000a900473ffffffffffffffffffffffffffffffffffffffff1673ffffffffffffffffffffffffffffffffffffffff1673ffffffffffffffffffffffffffffffffffffffff16815260200190815260200160002060000160009054906101000a900460ff1615151415610dae57600d6000848152602001908152602001600020600c60008581526020019081526020016000206000600e60008781526020019081526020016000208460ff1681548110610c6057610c5f612d53565b5b9060005260206000200160009054906101000a900473ffffffffffffffffffffffffffffffffffffffff1673ffffffffffffffffffffffffffffffffffffffff1673ffffffffffffffffffffffffffffffffffffffff168152602001908152602001600020908060018154018082558091505060019003906000526020600020016000909190919091506000820160009054906101000a900460ff168160000160006101000a81548160ff0219169083151502179055506000820160019054906101000a900460ff168160000160016101000a81548160ff0219169083151502179055506000820160029054906101000a900473ffffffffffffffffffffffffffffffffffffffff168160000160026101000a81548173ffffffffffffffffffffffffffffffffffffffff021916908373ffffffffffffffffffffffffffffffffffffffff16021790555050505b8080610db990612c9c565b915050610b30565b506001600a600084815260200190815260200160002060006101000a81548160ff0219169083151502179055505050565b600e6020528160005260406000208181548110610e0e57600080fd5b906000526020600020016000915091509054906101000a900473ffffffffffffffffffffffffffffffffffffffff1681565b60026020528060005260406000206000915090505481565b600a6020528060005260406000206000915054906101000a900460ff1681565b60046000828152602001908152602001600020544210610ecd576040517f08c379a0000000000000000000000000000000000000000000000000000000008152600401610ec4906129b1565b60405180910390fd5b600073ffffffffffffffffffffffffffffffffffffffff16600c600083815260200190815260200160002060003373ffffffffffffffffffffffffffffffffffffffff1673ffffffffffffffffffffffffffffffffffffffff16815260200190815260200160002060000160029054906101000a900473ffffffffffffffffffffffffffffffffffffffff1673ffffffffffffffffffffffffffffffffffffffff161415610fb0576040517f08c379a0000000000000000000000000000000000000000000000000000000008152600401610fa790612931565b60405180910390fd5b600c600082815260200190815260200160002060003373ffffffffffffffffffffffffffffffffffffffff1673ffffffffffffffffffffffffffffffffffffffff16815260200190815260200160002060000160009054906101000a900460ff1615611051576040517f08c379a0000000000000000000000000000000000000000000000000000000008152600401611048906128f1565b60405180910390fd5b6040518060400160405280600981526020017f6920617070726f76650000000000000000000000000000000000000000000000815250805190602001208280519060200120141561131a576001600c600083815260200190815260200160002060003373ffffffffffffffffffffffffffffffffffffffff1673ffffffffffffffffffffffffffffffffffffffff16815260200190815260200160002060000160006101000a81548160ff0219169083151502179055506001600c600083815260200190815260200160002060003373ffffffffffffffffffffffffffffffffffffffff1673ffffffffffffffffffffffffffffffffffffffff16815260200190815260200160002060000160016101000a81548160ff02191690831515021790555060016006600083815260200190815260200160002060008282546111989190612ab7565b9250508190555060016002600083815260200190815260200160002060008282546111c39190612ab7565b92505081905550600d6000828152602001908152602001600020600c600083815260200190815260200160002060003373ffffffffffffffffffffffffffffffffffffffff1673ffffffffffffffffffffffffffffffffffffffff168152602001908152602001600020908060018154018082558091505060019003906000526020600020016000909190919091506000820160009054906101000a900460ff168160000160006101000a81548160ff0219169083151502179055506000820160019054906101000a900460ff168160000160016101000a81548160ff0219169083151502179055506000820160029054906101000a900473ffffffffffffffffffffffffffffffffffffffff168160000160026101000a81548173ffffffffffffffffffffffffffffffffffffffff021916908373ffffffffffffffffffffffffffffffffffffffff1602179055505050611730565b6040518060400160405280600c81526020017f6920646973617070726f76650000000000000000000000000000000000000000815250805190602001208280519060200120141561154c576001600c600083815260200190815260200160002060003373ffffffffffffffffffffffffffffffffffffffff1673ffffffffffffffffffffffffffffffffffffffff16815260200190815260200160002060000160006101000a81548160ff02191690831515021790555060016002600083815260200190815260200160002060008282546113f59190612ab7565b92505081905550600d6000828152602001908152602001600020600c600083815260200190815260200160002060003373ffffffffffffffffffffffffffffffffffffffff1673ffffffffffffffffffffffffffffffffffffffff168152602001908152602001600020908060018154018082558091505060019003906000526020600020016000909190919091506000820160009054906101000a900460ff168160000160006101000a81548160ff0219169083151502179055506000820160019054906101000a900460ff168160000160016101000a81548160ff0219169083151502179055506000820160029054906101000a900473ffffffffffffffffffffffffffffffffffffffff168160000160026101000a81548173ffffffffffffffffffffffffffffffffffffffff021916908373ffffffffffffffffffffffffffffffffffffffff160217905550505061172f565b6001600c600083815260200190815260200160002060003373ffffffffffffffffffffffffffffffffffffffff1673ffffffffffffffffffffffffffffffffffffffff16815260200190815260200160002060000160006101000a81548160ff02191690831515021790555060016002600083815260200190815260200160002060008282546115dc9190612ab7565b92505081905550600d6000828152602001908152602001600020600c600083815260200190815260200160002060003373ffffffffffffffffffffffffffffffffffffffff1673ffffffffffffffffffffffffffffffffffffffff168152602001908152602001600020908060018154018082558091505060019003906000526020600020016000909190919091506000820160009054906101000a900460ff168160000160006101000a81548160ff0219169083151502179055506000820160019054906101000a900460ff168160000160016101000a81548160ff0219169083151502179055506000820160029054906101000a900473ffffffffffffffffffffffffffffffffffffffff168160000160026101000a81548173ffffffffffffffffffffffffffffffffffffffff021916908373ffffffffffffffffffffffffffffffffffffffff16021790555050505b5b5050565b6000606060016000848152602001908152602001600020546008600085815260200190815260200160002080805461176b90612c39565b80601f016020809104026020016040519081016040528092919081815260200182805461179790612c39565b80156117e45780601f106117b9576101008083540402835291602001916117e4565b820191906000526020600020905b8154815290600101906020018083116117c757829003601f168201915b5050505050905091509150915091565b600b6020528060005260406000206000915090505481565b6008602052806000526040600020600091509050805461182b90612c39565b80601f016020809104026020016040519081016040528092919081815260200182805461185790612c39565b80156118a45780601f10611879576101008083540402835291602001916118a4565b820191906000526020600020905b81548152906001019060200180831161188757829003601f168201915b505050505081565b600c602052816000526040600020602052806000526040600020600091509150508060000160009054906101000a900460ff16908060000160019054906101000a900460ff16908060000160029054906101000a900473ffffffffffffffffffffffffffffffffffffffff16905083565b60006020528060005260406000206000915054906101000a900473ffffffffffffffffffffffffffffffffffffffff1681565b60008082815260200190815260200160002060009054906101000a900473ffffffffffffffffffffffffffffffffffffffff1673ffffffffffffffffffffffffffffffffffffffff163373ffffffffffffffffffffffffffffffffffffffff16146119f0576040517f08c379a00000000000000000000000000000000000000000000000000000000081526004016119e790612971565b60405180910390fd5b60008082815260200190815260200160002060009054906101000a900473ffffffffffffffffffffffffffffffffffffffff1673ffffffffffffffffffffffffffffffffffffffff168273ffffffffffffffffffffffffffffffffffffffff161415611a91576040517f08c379a0000000000000000000000000000000000000000000000000000000008152600401611a8890612911565b60405180910390fd5b600073ffffffffffffffffffffffffffffffffffffffff16600c600083815260200190815260200160002060008473ffffffffffffffffffffffffffffffffffffffff1673ffffffffffffffffffffffffffffffffffffffff16815260200190815260200160002060000160029054906101000a900473ffffffffffffffffffffffffffffffffffffffff1673ffffffffffffffffffffffffffffffffffffffff1614611b73576040517f08c379a0000000000000000000000000000000000000000000000000000000008152600401611b6a90612891565b60405180910390fd5b60046000828152602001908152602001600020544210611bc8576040517f08c379a0000000000000000000000000000000000000000000000000000000008152600401611bbf90612951565b60405180910390fd5b600060405180606001604052806000151581526020016000151581526020018473ffffffffffffffffffffffffffffffffffffffff16815250905080600c600084815260200190815260200160002060008573ffffffffffffffffffffffffffffffffffffffff1673ffffffffffffffffffffffffffffffffffffffff16815260200190815260200160002060008201518160000160006101000a81548160ff02191690831515021790555060208201518160000160016101000a81548160ff02191690831515021790555060408201518160000160026101000a81548173ffffffffffffffffffffffffffffffffffffffff021916908373ffffffffffffffffffffffffffffffffffffffff160217905550905050600e6000838152602001908152602001600020839080600181540180825580915050600190039060005260206000200160009091909190916101000a81548173ffffffffffffffffffffffffffffffffffffffff021916908373ffffffffffffffffffffffffffffffffffffffff160217905550505050565b600073ffffffffffffffffffffffffffffffffffffffff1660008089815260200190815260200160002060009054906101000a900473ffffffffffffffffffffffffffffffffffffffff1673ffffffffffffffffffffffffffffffffffffffff1614611df8576040517f08c379a0000000000000000000000000000000000000000000000000000000008152600401611def906128b1565b60405180910390fd5b600060026000898152602001908152602001600020819055508542611e1d9190612ab7565b60046000898152602001908152602001600020819055508660016000838152602001908152602001600020819055506000600a600089815260200190815260200160002060006101000a81548160ff02191690831515021790555084600760008981526020019081526020016000208190555084600760008381526020019081526020016000208190555060006009600089815260200190815260200160002060006101000a81548160ff02191690831515021790555085600360008981526020019081526020016000208190555085600360008381526020019081526020016000208190555083600560008981526020019081526020016000208190555083600560008381526020019081526020016000208190555082600b60008981526020019081526020016000208190555081600860008981526020019081526020016000209080519060200190611f739291906120a8565b5081600860008381526020019081526020016000209080519060200190611f9b9291906120a8565b50600060066000898152602001908152602001600020819055503360008089815260200190815260200160002060006101000a81548173ffffffffffffffffffffffffffffffffffffffff021916908373ffffffffffffffffffffffffffffffffffffffff1602179055503360008083815260200190815260200160002060006101000a81548173ffffffffffffffffffffffffffffffffffffffff021916908373ffffffffffffffffffffffffffffffffffffffff16021790555050505050505050565b60066020528060005260406000206000915090505481565b60016020528060005260406000206000915090505481565b60056020528060005260406000206000915090505481565b8280546120b490612c39565b90600052602060002090601f0160209004810192826120d6576000855561211d565b82601f106120ef57805160ff191683800117855561211d565b8280016001018555821561211d579182015b8281111561211c578251825591602001919060010190612101565b5b50905061212a919061212e565b5090565b5b8082111561214757600081600090555060010161212f565b5090565b600061215e61215984612a31565b612a0c565b90508281526020810184848401111561217a57612179612db6565b5b612185848285612bf7565b509392505050565b60008135905061219c81613031565b92915050565b6000813590506121b181613048565b92915050565b600082601f8301126121cc576121cb612db1565b5b81356121dc84826020860161214b565b91505092915050565b6000813590506121f48161305f565b92915050565b6000806040838503121561221157612210612dc0565b5b600061221f8582860161218d565b9250506020612230858286016121a2565b9150509250929050565b6000602082840312156122505761224f612dc0565b5b600061225e848285016121a2565b91505092915050565b6000806040838503121561227e5761227d612dc0565b5b600061228c858286016121a2565b925050602061229d8582860161218d565b9150509250929050565b600080604083850312156122be576122bd612dc0565b5b60006122cc858286016121a2565b92505060206122dd858286016121e5565b9150509250929050565b6000806000806080858703121561230157612300612dc0565b5b600061230f878288016121a2565b9450506020612320878288016121e5565b9350506040612331878288016121e5565b9250506060612342878288016121a2565b91505092959194509250565b600080600080600080600060e0888a03121561236d5761236c612dc0565b5b600061237b8a828b016121a2565b975050602061238c8a828b016121e5565b965050604061239d8a828b016121e5565b95505060606123ae8a828b016121a2565b94505060806123bf8a828b016121a2565b93505060a088013567ffffffffffffffff8111156123e0576123df612dbb565b5b6123ec8a828b016121b7565b92505060c06123fd8a828b016121a2565b91505092959891949750929550565b6000806040838503121561242357612422612dc0565b5b600083013567ffffffffffffffff81111561244157612440612dbb565b5b61244d858286016121b7565b925050602061245e858286016121a2565b9150509250929050565b600061247483836126e3565b60608301905092915050565b61248981612b98565b82525050565b61249881612b98565b82525050565b60006124a982612a72565b6124b38185612a95565b93506124be83612a62565b8060005b838110156124ef5781516124d68882612468565b97506124e183612a88565b9250506001810190506124c2565b5085935050505092915050565b61250581612baa565b82525050565b61251481612baa565b82525050565b61252381612bb6565b82525050565b600061253482612a7d565b61253e8185612aa6565b935061254e818560208601612c06565b61255781612dc5565b840191505092915050565b600061256f601f83612aa6565b915061257a82612dd6565b602082019050919050565b6000612592601983612aa6565b915061259d82612dff565b602082019050919050565b60006125b5602683612aa6565b91506125c082612e28565b604082019050919050565b60006125d8601c83612aa6565b91506125e382612e77565b602082019050919050565b60006125fb601583612aa6565b915061260682612ea0565b602082019050919050565b600061261e601e83612aa6565b915061262982612ec9565b602082019050919050565b6000612641602483612aa6565b915061264c82612ef2565b604082019050919050565b6000612664602883612aa6565b915061266f82612f41565b604082019050919050565b6000612687602083612aa6565b915061269282612f90565b602082019050919050565b60006126aa601283612aa6565b91506126b582612fb9565b602082019050919050565b60006126cd602583612aa6565b91506126d882612fe2565b604082019050919050565b6060820160008201516126f960008501826124fc565b50602082015161270c60208501826124fc565b50604082015161271f6040850182612480565b50505050565b61272e81612be0565b82525050565b6000602082019050612749600083018461248f565b92915050565b6000602082019050612764600083018461250b565b92915050565b600060608201905061277f600083018661250b565b61278c602083018561250b565b612799604083018461248f565b949350505050565b60006060820190506127b6600083018661250b565b6127c3602083018561250b565b6127d0604083018461250b565b949350505050565b60006080820190506127ed600083018761250b565b6127fa602083018661251a565b6128076040830185612725565b8181036060830152612819818461249e565b905095945050505050565b6000602082019050612839600083018461251a565b92915050565b6000604082019050612854600083018561251a565b81810360208301526128668184612529565b90509392505050565b600060208201905081810360008301526128898184612529565b905092915050565b600060208201905081810360008301526128aa81612562565b9050919050565b600060208201905081810360008301526128ca81612585565b9050919050565b600060208201905081810360008301526128ea816125a8565b9050919050565b6000602082019050818103600083015261290a816125cb565b9050919050565b6000602082019050818103600083015261292a816125ee565b9050919050565b6000602082019050818103600083015261294a81612611565b9050919050565b6000602082019050818103600083015261296a81612634565b9050919050565b6000602082019050818103600083015261298a81612657565b9050919050565b600060208201905081810360008301526129aa8161267a565b9050919050565b600060208201905081810360008301526129ca8161269d565b9050919050565b600060208201905081810360008301526129ea816126c0565b9050919050565b6000602082019050612a066000830184612725565b92915050565b6000612a16612a27565b9050612a228282612c6b565b919050565b6000604051905090565b600067ffffffffffffffff821115612a4c57612a4b612d82565b5b612a5582612dc5565b9050602081019050919050565b6000819050602082019050919050565b600081519050919050565b600081519050919050565b6000602082019050919050565b600082825260208201905092915050565b600082825260208201905092915050565b6000612ac282612be0565b9150612acd83612be0565b9250827fffffffffffffffffffffffffffffffffffffffffffffffffffffffffffffffff03821115612b0257612b01612cc6565b5b828201905092915050565b6000612b1882612be0565b9150612b2383612be0565b925082612b3357612b32612cf5565b5b828204905092915050565b6000612b4982612be0565b9150612b5483612be0565b9250817fffffffffffffffffffffffffffffffffffffffffffffffffffffffffffffffff0483118215151615612b8d57612b8c612cc6565b5b828202905092915050565b6000612ba382612bc0565b9050919050565b60008115159050919050565b6000819050919050565b600073ffffffffffffffffffffffffffffffffffffffff82169050919050565b6000819050919050565b600060ff82169050919050565b82818337600083830152505050565b60005b83811015612c24578082015181840152602081019050612c09565b83811115612c33576000848401525b50505050565b60006002820490506001821680612c5157607f821691505b60208210811415612c6557612c64612d24565b5b50919050565b612c7482612dc5565b810181811067ffffffffffffffff82111715612c9357612c92612d82565b5b80604052505050565b6000612ca782612bea565b915060ff821415612cbb57612cba612cc6565b5b600182019050919050565b7f4e487b7100000000000000000000000000000000000000000000000000000000600052601160045260246000fd5b7f4e487b7100000000000000000000000000000000000000000000000000000000600052601260045260246000fd5b7f4e487b7100000000000000000000000000000000000000000000000000000000600052602260045260246000fd5b7f4e487b7100000000000000000000000000000000000000000000000000000000600052603260045260246000fd5b7f4e487b7100000000000000000000000000000000000000000000000000000000600052604160045260246000fd5b600080fd5b600080fd5b600080fd5b600080fd5b6000601f19601f8301169050919050565b7f526563697069656e7420697320616c7265616479207265676973746572656400600082015250565b7f50726f706f73616c20616c726561647920637265617465642100000000000000600082015250565b7f596f75206172656e277420617574686f72697a6520746f20636f6d70696c652060008201527f42756e646c650000000000000000000000000000000000000000000000000000602082015250565b7f596f7520616c72656164792073656e74206120726573706f6e73652e00000000600082015250565b7f496e69746961746f722063616e277420766f7465210000000000000000000000600082015250565b7f596f7520617265206e6f74207265676973746572656420746f20766f74650000600082015250565b7f50726f706f73616c20686173207265616368656420697473206578706972792060008201527f6461746500000000000000000000000000000000000000000000000000000000602082015250565b7f4f6e6c7920696e69746961746f722063616e207265676973746572206120726560008201527f63697069656e742e000000000000000000000000000000000000000000000000602082015250565b7f5665726469637420686173206e6f74206265656e207265616368656420796574600082015250565b7f566f74696e672068617320657870697265640000000000000000000000000000600082015250565b7f436f6e73656e7375732068617320616c7265616479206265656e2063616c637560008201527f6c61746564000000000000000000000000000000000000000000000000000000602082015250565b61303a81612b98565b811461304557600080fd5b50565b61305181612bb6565b811461305c57600080fd5b50565b61306881612be0565b811461307357600080fd5b5056fea2646970667358221220ab35d1700438d8e2bfeb3513c594cea2fe0399a7bd3c3db1f4f111fb269f33f964736f6c63430008070033",
					"opcodes": "PUSH1 0x80 PUSH1 0x40 MSTORE CALLVALUE DUP1 ISZERO PUSH2 0x10 JUMPI PUSH1 0x0 DUP1 REVERT JUMPDEST POP PUSH2 0x30AC DUP1 PUSH2 0x20 PUSH1 0x0 CODECOPY PUSH1 0x0 RETURN INVALID PUSH1 0x80 PUSH1 0x40 MSTORE CALLVALUE DUP1 ISZERO PUSH2 0x10 JUMPI PUSH1 0x0 DUP1 REVERT JUMPDEST POP PUSH1 0x4 CALLDATASIZE LT PUSH2 0x14D JUMPI PUSH1 0x0 CALLDATALOAD PUSH1 0xE0 SHR DUP1 PUSH4 0x823A6366 GT PUSH2 0xC3 JUMPI DUP1 PUSH4 0xD443560A GT PUSH2 0x7C JUMPI DUP1 PUSH4 0xD443560A EQ PUSH2 0x464 JUMPI DUP1 PUSH4 0xD468F983 EQ PUSH2 0x494 JUMPI DUP1 PUSH4 0xD5AABBD1 EQ PUSH2 0x4B0 JUMPI DUP1 PUSH4 0xE463EAEE EQ PUSH2 0x4CC JUMPI DUP1 PUSH4 0xE5D009BF EQ PUSH2 0x4FC JUMPI DUP1 PUSH4 0xF20CA12C EQ PUSH2 0x52C JUMPI PUSH2 0x14D JUMP JUMPDEST DUP1 PUSH4 0x823A6366 EQ PUSH2 0x355 JUMPI DUP1 PUSH4 0x8ACC0D10 EQ PUSH2 0x385 JUMPI DUP1 PUSH4 0x97299E99 EQ PUSH2 0x3A1 JUMPI DUP1 PUSH4 0xA0D859A3 EQ PUSH2 0x3D2 JUMPI DUP1 PUSH4 0xA4A8F426 EQ PUSH2 0x402 JUMPI DUP1 PUSH4 0xA784EF74 EQ PUSH2 0x432 JUMPI PUSH2 0x14D JUMP JUMPDEST DUP1 PUSH4 0x5273BC48 GT PUSH2 0x115 JUMPI DUP1 PUSH4 0x5273BC48 EQ PUSH2 0x249 JUMPI DUP1 PUSH4 0x56C583D8 EQ PUSH2 0x279 JUMPI DUP1 PUSH4 0x7A099C6A EQ PUSH2 0x2A9 JUMPI DUP1 PUSH4 0x7D6C570A EQ PUSH2 0x2D9 JUMPI DUP1 PUSH4 0x7FF4C389 EQ PUSH2 0x2F5 JUMPI DUP1 PUSH4 0x81D0E37B EQ PUSH2 0x325 JUMPI PUSH2 0x14D JUMP JUMPDEST DUP1 PUSH4 0x13191ADE EQ PUSH2 0x152 JUMPI DUP1 PUSH4 0x27F0AE92 EQ PUSH2 0x182 JUMPI DUP1 PUSH4 0x33DFD126 EQ PUSH2 0x1B5 JUMPI DUP1 PUSH4 0x38C20A9E EQ PUSH2 0x1E7 JUMPI DUP1 PUSH4 0x4FD3B445 EQ PUSH2 0x217 JUMPI JUMPDEST PUSH1 0x0 DUP1 REVERT JUMPDEST PUSH2 0x16C PUSH1 0x4 DUP1 CALLDATASIZE SUB DUP2 ADD SWAP1 PUSH2 0x167 SWAP2 SWAP1 PUSH2 0x223A JUMP JUMPDEST PUSH2 0x55C JUMP JUMPDEST PUSH1 0x40 MLOAD PUSH2 0x179 SWAP2 SWAP1 PUSH2 0x29F1 JUMP JUMPDEST PUSH1 0x40 MLOAD DUP1 SWAP2 SUB SWAP1 RETURN JUMPDEST PUSH2 0x19C PUSH1 0x4 DUP1 CALLDATASIZE SUB DUP2 ADD SWAP1 PUSH2 0x197 SWAP2 SWAP1 PUSH2 0x223A JUMP JUMPDEST PUSH2 0x574 JUMP JUMPDEST PUSH1 0x40 MLOAD PUSH2 0x1AC SWAP5 SWAP4 SWAP3 SWAP2 SWAP1 PUSH2 0x27D8 JUMP JUMPDEST PUSH1 0x40 MLOAD DUP1 SWAP2 SUB SWAP1 RETURN JUMPDEST PUSH2 0x1CF PUSH1 0x4 DUP1 CALLDATASIZE SUB DUP2 ADD SWAP1 PUSH2 0x1CA SWAP2 SWAP1 PUSH2 0x22E7 JUMP JUMPDEST PUSH2 0x719 JUMP JUMPDEST PUSH1 0x40 MLOAD PUSH2 0x1DE SWAP4 SWAP3 SWAP2 SWAP1 PUSH2 0x27A1 JUMP JUMPDEST PUSH1 0x40 MLOAD DUP1 SWAP2 SUB SWAP1 RETURN JUMPDEST PUSH2 0x201 PUSH1 0x4 DUP1 CALLDATASIZE SUB DUP2 ADD SWAP1 PUSH2 0x1FC SWAP2 SWAP1 PUSH2 0x223A JUMP JUMPDEST PUSH2 0x7A2 JUMP JUMPDEST PUSH1 0x40 MLOAD PUSH2 0x20E SWAP2 SWAP1 PUSH2 0x274F JUMP JUMPDEST PUSH1 0x40 MLOAD DUP1 SWAP2 SUB SWAP1 RETURN JUMPDEST PUSH2 0x231 PUSH1 0x4 DUP1 CALLDATASIZE SUB DUP2 ADD SWAP1 PUSH2 0x22C SWAP2 SWAP1 PUSH2 0x22A7 JUMP JUMPDEST PUSH2 0x7C2 JUMP JUMPDEST PUSH1 0x40 MLOAD PUSH2 0x240 SWAP4 SWAP3 SWAP2 SWAP1 PUSH2 0x276A JUMP JUMPDEST PUSH1 0x40 MLOAD DUP1 SWAP2 SUB SWAP1 RETURN JUMPDEST PUSH2 0x263 PUSH1 0x4 DUP1 CALLDATASIZE SUB DUP2 ADD SWAP1 PUSH2 0x25E SWAP2 SWAP1 PUSH2 0x223A JUMP JUMPDEST PUSH2 0x83F JUMP JUMPDEST PUSH1 0x40 MLOAD PUSH2 0x270 SWAP2 SWAP1 PUSH2 0x274F JUMP JUMPDEST PUSH1 0x40 MLOAD DUP1 SWAP2 SUB SWAP1 RETURN JUMPDEST PUSH2 0x293 PUSH1 0x4 DUP1 CALLDATASIZE SUB DUP2 ADD SWAP1 PUSH2 0x28E SWAP2 SWAP1 PUSH2 0x223A JUMP JUMPDEST PUSH2 0x869 JUMP JUMPDEST PUSH1 0x40 MLOAD PUSH2 0x2A0 SWAP2 SWAP1 PUSH2 0x29F1 JUMP JUMPDEST PUSH1 0x40 MLOAD DUP1 SWAP2 SUB SWAP1 RETURN JUMPDEST PUSH2 0x2C3 PUSH1 0x4 DUP1 CALLDATASIZE SUB DUP2 ADD SWAP1 PUSH2 0x2BE SWAP2 SWAP1 PUSH2 0x223A JUMP JUMPDEST PUSH2 0x881 JUMP JUMPDEST PUSH1 0x40 MLOAD PUSH2 0x2D0 SWAP2 SWAP1 PUSH2 0x29F1 JUMP JUMPDEST PUSH1 0x40 MLOAD DUP1 SWAP2 SUB SWAP1 RETURN JUMPDEST PUSH2 0x2F3 PUSH1 0x4 DUP1 CALLDATASIZE SUB DUP2 ADD SWAP1 PUSH2 0x2EE SWAP2 SWAP1 PUSH2 0x223A JUMP JUMPDEST PUSH2 0x899 JUMP JUMPDEST STOP JUMPDEST PUSH2 0x30F PUSH1 0x4 DUP1 CALLDATASIZE SUB DUP2 ADD SWAP1 PUSH2 0x30A SWAP2 SWAP1 PUSH2 0x22A7 JUMP JUMPDEST PUSH2 0xDF2 JUMP JUMPDEST PUSH1 0x40 MLOAD PUSH2 0x31C SWAP2 SWAP1 PUSH2 0x2734 JUMP JUMPDEST PUSH1 0x40 MLOAD DUP1 SWAP2 SUB SWAP1 RETURN JUMPDEST PUSH2 0x33F PUSH1 0x4 DUP1 CALLDATASIZE SUB DUP2 ADD SWAP1 PUSH2 0x33A SWAP2 SWAP1 PUSH2 0x223A JUMP JUMPDEST PUSH2 0xE40 JUMP JUMPDEST PUSH1 0x40 MLOAD PUSH2 0x34C SWAP2 SWAP1 PUSH2 0x29F1 JUMP JUMPDEST PUSH1 0x40 MLOAD DUP1 SWAP2 SUB SWAP1 RETURN JUMPDEST PUSH2 0x36F PUSH1 0x4 DUP1 CALLDATASIZE SUB DUP2 ADD SWAP1 PUSH2 0x36A SWAP2 SWAP1 PUSH2 0x223A JUMP JUMPDEST PUSH2 0xE58 JUMP JUMPDEST PUSH1 0x40 MLOAD PUSH2 0x37C SWAP2 SWAP1 PUSH2 0x274F JUMP JUMPDEST PUSH1 0x40 MLOAD DUP1 SWAP2 SUB SWAP1 RETURN JUMPDEST PUSH2 0x39F PUSH1 0x4 DUP1 CALLDATASIZE SUB DUP2 ADD SWAP1 PUSH2 0x39A SWAP2 SWAP1 PUSH2 0x240C JUMP JUMPDEST PUSH2 0xE78 JUMP JUMPDEST STOP JUMPDEST PUSH2 0x3BB PUSH1 0x4 DUP1 CALLDATASIZE SUB DUP2 ADD SWAP1 PUSH2 0x3B6 SWAP2 SWAP1 PUSH2 0x223A JUMP JUMPDEST PUSH2 0x1734 JUMP JUMPDEST PUSH1 0x40 MLOAD PUSH2 0x3C9 SWAP3 SWAP2 SWAP1 PUSH2 0x283F JUMP JUMPDEST PUSH1 0x40 MLOAD DUP1 SWAP2 SUB SWAP1 RETURN JUMPDEST PUSH2 0x3EC PUSH1 0x4 DUP1 CALLDATASIZE SUB DUP2 ADD SWAP1 PUSH2 0x3E7 SWAP2 SWAP1 PUSH2 0x223A JUMP JUMPDEST PUSH2 0x17F4 JUMP JUMPDEST PUSH1 0x40 MLOAD PUSH2 0x3F9 SWAP2 SWAP1 PUSH2 0x2824 JUMP JUMPDEST PUSH1 0x40 MLOAD DUP1 SWAP2 SUB SWAP1 RETURN JUMPDEST PUSH2 0x41C PUSH1 0x4 DUP1 CALLDATASIZE SUB DUP2 ADD SWAP1 PUSH2 0x417 SWAP2 SWAP1 PUSH2 0x223A JUMP JUMPDEST PUSH2 0x180C JUMP JUMPDEST PUSH1 0x40 MLOAD PUSH2 0x429 SWAP2 SWAP1 PUSH2 0x286F JUMP JUMPDEST PUSH1 0x40 MLOAD DUP1 SWAP2 SUB SWAP1 RETURN JUMPDEST PUSH2 0x44C PUSH1 0x4 DUP1 CALLDATASIZE SUB DUP2 ADD SWAP1 PUSH2 0x447 SWAP2 SWAP1 PUSH2 0x2267 JUMP JUMPDEST PUSH2 0x18AC JUMP JUMPDEST PUSH1 0x40 MLOAD PUSH2 0x45B SWAP4 SWAP3 SWAP2 SWAP1 PUSH2 0x276A JUMP JUMPDEST PUSH1 0x40 MLOAD DUP1 SWAP2 SUB SWAP1 RETURN JUMPDEST PUSH2 0x47E PUSH1 0x4 DUP1 CALLDATASIZE SUB DUP2 ADD SWAP1 PUSH2 0x479 SWAP2 SWAP1 PUSH2 0x223A JUMP JUMPDEST PUSH2 0x191D JUMP JUMPDEST PUSH1 0x40 MLOAD PUSH2 0x48B SWAP2 SWAP1 PUSH2 0x2734 JUMP JUMPDEST PUSH1 0x40 MLOAD DUP1 SWAP2 SUB SWAP1 RETURN JUMPDEST PUSH2 0x4AE PUSH1 0x4 DUP1 CALLDATASIZE SUB DUP2 ADD SWAP1 PUSH2 0x4A9 SWAP2 SWAP1 PUSH2 0x21FA JUMP JUMPDEST PUSH2 0x1950 JUMP JUMPDEST STOP JUMPDEST PUSH2 0x4CA PUSH1 0x4 DUP1 CALLDATASIZE SUB DUP2 ADD SWAP1 PUSH2 0x4C5 SWAP2 SWAP1 PUSH2 0x234E JUMP JUMPDEST PUSH2 0x1D57 JUMP JUMPDEST STOP JUMPDEST PUSH2 0x4E6 PUSH1 0x4 DUP1 CALLDATASIZE SUB DUP2 ADD SWAP1 PUSH2 0x4E1 SWAP2 SWAP1 PUSH2 0x223A JUMP JUMPDEST PUSH2 0x2060 JUMP JUMPDEST PUSH1 0x40 MLOAD PUSH2 0x4F3 SWAP2 SWAP1 PUSH2 0x29F1 JUMP JUMPDEST PUSH1 0x40 MLOAD DUP1 SWAP2 SUB SWAP1 RETURN JUMPDEST PUSH2 0x516 PUSH1 0x4 DUP1 CALLDATASIZE SUB DUP2 ADD SWAP1 PUSH2 0x511 SWAP2 SWAP1 PUSH2 0x223A JUMP JUMPDEST PUSH2 0x2078 JUMP JUMPDEST PUSH1 0x40 MLOAD PUSH2 0x523 SWAP2 SWAP1 PUSH2 0x2824 JUMP JUMPDEST PUSH1 0x40 MLOAD DUP1 SWAP2 SUB SWAP1 RETURN JUMPDEST PUSH2 0x546 PUSH1 0x4 DUP1 CALLDATASIZE SUB DUP2 ADD SWAP1 PUSH2 0x541 SWAP2 SWAP1 PUSH2 0x223A JUMP JUMPDEST PUSH2 0x2090 JUMP JUMPDEST PUSH1 0x40 MLOAD PUSH2 0x553 SWAP2 SWAP1 PUSH2 0x2824 JUMP JUMPDEST PUSH1 0x40 MLOAD DUP1 SWAP2 SUB SWAP1 RETURN JUMPDEST PUSH1 0x3 PUSH1 0x20 MSTORE DUP1 PUSH1 0x0 MSTORE PUSH1 0x40 PUSH1 0x0 KECCAK256 PUSH1 0x0 SWAP2 POP SWAP1 POP SLOAD DUP2 JUMP JUMPDEST PUSH1 0x0 DUP1 PUSH1 0x0 PUSH1 0x60 PUSH1 0x4 PUSH1 0x0 DUP7 DUP2 MSTORE PUSH1 0x20 ADD SWAP1 DUP2 MSTORE PUSH1 0x20 ADD PUSH1 0x0 KECCAK256 SLOAD TIMESTAMP LT ISZERO PUSH2 0x5D1 JUMPI PUSH1 0x40 MLOAD PUSH32 0x8C379A000000000000000000000000000000000000000000000000000000000 DUP2 MSTORE PUSH1 0x4 ADD PUSH2 0x5C8 SWAP1 PUSH2 0x2991 JUMP JUMPDEST PUSH1 0x40 MLOAD DUP1 SWAP2 SUB SWAP1 REVERT JUMPDEST PUSH1 0x0 PUSH1 0xD PUSH1 0x0 DUP8 DUP2 MSTORE PUSH1 0x20 ADD SWAP1 DUP2 MSTORE PUSH1 0x20 ADD PUSH1 0x0 KECCAK256 DUP1 SLOAD DUP1 PUSH1 0x20 MUL PUSH1 0x20 ADD PUSH1 0x40 MLOAD SWAP1 DUP2 ADD PUSH1 0x40 MSTORE DUP1 SWAP3 SWAP2 SWAP1 DUP2 DUP2 MSTORE PUSH1 0x20 ADD PUSH1 0x0 SWAP1 JUMPDEST DUP3 DUP3 LT ISZERO PUSH2 0x6C0 JUMPI DUP4 DUP3 SWAP1 PUSH1 0x0 MSTORE PUSH1 0x20 PUSH1 0x0 KECCAK256 ADD PUSH1 0x40 MLOAD DUP1 PUSH1 0x60 ADD PUSH1 0x40 MSTORE SWAP1 DUP2 PUSH1 0x0 DUP3 ADD PUSH1 0x0 SWAP1 SLOAD SWAP1 PUSH2 0x100 EXP SWAP1 DIV PUSH1 0xFF AND ISZERO ISZERO ISZERO ISZERO DUP2 MSTORE PUSH1 0x20 ADD PUSH1 0x0 DUP3 ADD PUSH1 0x1 SWAP1 SLOAD SWAP1 PUSH2 0x100 EXP SWAP1 DIV PUSH1 0xFF AND ISZERO ISZERO ISZERO ISZERO DUP2 MSTORE PUSH1 0x20 ADD PUSH1 0x0 DUP3 ADD PUSH1 0x2 SWAP1 SLOAD SWAP1 PUSH2 0x100 EXP SWAP1 DIV PUSH20 0xFFFFFFFFFFFFFFFFFFFFFFFFFFFFFFFFFFFFFFFF AND PUSH20 0xFFFFFFFFFFFFFFFFFFFFFFFFFFFFFFFFFFFFFFFF AND PUSH20 0xFFFFFFFFFFFFFFFFFFFFFFFFFFFFFFFFFFFFFFFF AND DUP2 MSTORE POP POP DUP2 MSTORE PUSH1 0x20 ADD SWAP1 PUSH1 0x1 ADD SWAP1 PUSH2 0x606 JUMP JUMPDEST POP POP POP POP SWAP1 POP PUSH1 0x0 PUSH1 0x9 PUSH1 0x0 DUP9 DUP2 MSTORE PUSH1 0x20 ADD SWAP1 DUP2 MSTORE PUSH1 0x20 ADD PUSH1 0x0 KECCAK256 PUSH1 0x0 SWAP1 SLOAD SWAP1 PUSH2 0x100 EXP SWAP1 DIV PUSH1 0xFF AND SWAP1 POP PUSH1 0x0 PUSH1 0x2 PUSH1 0x0 DUP10 DUP2 MSTORE PUSH1 0x20 ADD SWAP1 DUP2 MSTORE PUSH1 0x20 ADD PUSH1 0x0 KECCAK256 SLOAD SWAP1 POP DUP2 DUP9 DUP3 DUP6 SWAP7 POP SWAP7 POP SWAP7 POP SWAP7 POP POP POP POP SWAP2 SWAP4 POP SWAP2 SWAP4 JUMP JUMPDEST PUSH1 0x0 DUP1 PUSH1 0x0 DUP1 PUSH1 0x1 SWAP1 POP PUSH1 0x0 PUSH1 0x1 SWAP1 POP PUSH1 0x0 PUSH1 0x1 SWAP1 POP PUSH1 0x7 PUSH1 0x0 DUP12 DUP2 MSTORE PUSH1 0x20 ADD SWAP1 DUP2 MSTORE PUSH1 0x20 ADD PUSH1 0x0 KECCAK256 SLOAD DUP10 EQ PUSH2 0x74E JUMPI PUSH1 0x0 SWAP3 POP JUMPDEST PUSH1 0x5 PUSH1 0x0 DUP12 DUP2 MSTORE PUSH1 0x20 ADD SWAP1 DUP2 MSTORE PUSH1 0x20 ADD PUSH1 0x0 KECCAK256 SLOAD DUP8 EQ PUSH2 0x76D JUMPI PUSH1 0x0 SWAP2 POP JUMPDEST DUP8 PUSH1 0x3 PUSH1 0x0 DUP13 DUP2 MSTORE PUSH1 0x20 ADD SWAP1 DUP2 MSTORE PUSH1 0x20 ADD PUSH1 0x0 KECCAK256 SLOAD EQ PUSH2 0x78C JUMPI PUSH1 0x0 SWAP1 POP JUMPDEST DUP3 DUP3 DUP3 SWAP6 POP SWAP6 POP SWAP6 POP POP POP POP SWAP5 POP SWAP5 POP SWAP5 SWAP2 POP POP JUMP JUMPDEST PUSH1 0x9 PUSH1 0x20 MSTORE DUP1 PUSH1 0x0 MSTORE PUSH1 0x40 PUSH1 0x0 KECCAK256 PUSH1 0x0 SWAP2 POP SLOAD SWAP1 PUSH2 0x100 EXP SWAP1 DIV PUSH1 0xFF AND DUP2 JUMP JUMPDEST PUSH1 0xD PUSH1 0x20 MSTORE DUP2 PUSH1 0x0 MSTORE PUSH1 0x40 PUSH1 0x0 KECCAK256 DUP2 DUP2 SLOAD DUP2 LT PUSH2 0x7DE JUMPI PUSH1 0x0 DUP1 REVERT JUMPDEST SWAP1 PUSH1 0x0 MSTORE PUSH1 0x20 PUSH1 0x0 KECCAK256 ADD PUSH1 0x0 SWAP2 POP SWAP2 POP POP DUP1 PUSH1 0x0 ADD PUSH1 0x0 SWAP1 SLOAD SWAP1 PUSH2 0x100 EXP SWAP1 DIV PUSH1 0xFF AND SWAP1 DUP1 PUSH1 0x0 ADD PUSH1 0x1 SWAP1 SLOAD SWAP1 PUSH2 0x100 EXP SWAP1 DIV PUSH1 0xFF AND SWAP1 DUP1 PUSH1 0x0 ADD PUSH1 0x2 SWAP1 SLOAD SWAP1 PUSH2 0x100 EXP SWAP1 DIV PUSH20 0xFFFFFFFFFFFFFFFFFFFFFFFFFFFFFFFFFFFFFFFF AND SWAP1 POP DUP4 JUMP JUMPDEST PUSH1 0x0 PUSH1 0xA PUSH1 0x0 DUP4 DUP2 MSTORE PUSH1 0x20 ADD SWAP1 DUP2 MSTORE PUSH1 0x20 ADD PUSH1 0x0 KECCAK256 PUSH1 0x0 SWAP1 SLOAD SWAP1 PUSH2 0x100 EXP SWAP1 DIV PUSH1 0xFF AND SWAP1 POP SWAP2 SWAP1 POP JUMP JUMPDEST PUSH1 0x4 PUSH1 0x20 MSTORE DUP1 PUSH1 0x0 MSTORE PUSH1 0x40 PUSH1 0x0 KECCAK256 PUSH1 0x0 SWAP2 POP SWAP1 POP SLOAD DUP2 JUMP JUMPDEST PUSH1 0x7 PUSH1 0x20 MSTORE DUP1 PUSH1 0x0 MSTORE PUSH1 0x40 PUSH1 0x0 KECCAK256 PUSH1 0x0 SWAP2 POP SWAP1 POP SLOAD DUP2 JUMP JUMPDEST PUSH1 0x4 PUSH1 0x0 DUP3 DUP2 MSTORE PUSH1 0x20 ADD SWAP1 DUP2 MSTORE PUSH1 0x20 ADD PUSH1 0x0 KECCAK256 SLOAD TIMESTAMP LT ISZERO PUSH2 0x8EF JUMPI PUSH1 0x40 MLOAD PUSH32 0x8C379A000000000000000000000000000000000000000000000000000000000 DUP2 MSTORE PUSH1 0x4 ADD PUSH2 0x8E6 SWAP1 PUSH2 0x2991 JUMP JUMPDEST PUSH1 0x40 MLOAD DUP1 SWAP2 SUB SWAP1 REVERT JUMPDEST PUSH1 0x0 ISZERO ISZERO PUSH1 0xA PUSH1 0x0 DUP4 DUP2 MSTORE PUSH1 0x20 ADD SWAP1 DUP2 MSTORE PUSH1 0x20 ADD PUSH1 0x0 KECCAK256 PUSH1 0x0 SWAP1 SLOAD SWAP1 PUSH2 0x100 EXP SWAP1 DIV PUSH1 0xFF AND ISZERO ISZERO EQ PUSH2 0x956 JUMPI PUSH1 0x40 MLOAD PUSH32 0x8C379A000000000000000000000000000000000000000000000000000000000 DUP2 MSTORE PUSH1 0x4 ADD PUSH2 0x94D SWAP1 PUSH2 0x29D1 JUMP JUMPDEST PUSH1 0x40 MLOAD DUP1 SWAP2 SUB SWAP1 REVERT JUMPDEST PUSH1 0x0 DUP1 DUP3 DUP2 MSTORE PUSH1 0x20 ADD SWAP1 DUP2 MSTORE PUSH1 0x20 ADD PUSH1 0x0 KECCAK256 PUSH1 0x0 SWAP1 SLOAD SWAP1 PUSH2 0x100 EXP SWAP1 DIV PUSH20 0xFFFFFFFFFFFFFFFFFFFFFFFFFFFFFFFFFFFFFFFF AND PUSH20 0xFFFFFFFFFFFFFFFFFFFFFFFFFFFFFFFFFFFFFFFF AND CALLER PUSH20 0xFFFFFFFFFFFFFFFFFFFFFFFFFFFFFFFFFFFFFFFF AND EQ DUP1 PUSH2 0xA62 JUMPI POP PUSH1 0x0 PUSH20 0xFFFFFFFFFFFFFFFFFFFFFFFFFFFFFFFFFFFFFFFF AND PUSH1 0xC PUSH1 0x0 DUP4 DUP2 MSTORE PUSH1 0x20 ADD SWAP1 DUP2 MSTORE PUSH1 0x20 ADD PUSH1 0x0 KECCAK256 PUSH1 0x0 CALLER PUSH20 0xFFFFFFFFFFFFFFFFFFFFFFFFFFFFFFFFFFFFFFFF AND PUSH20 0xFFFFFFFFFFFFFFFFFFFFFFFFFFFFFFFFFFFFFFFF AND DUP2 MSTORE PUSH1 0x20 ADD SWAP1 DUP2 MSTORE PUSH1 0x20 ADD PUSH1 0x0 KECCAK256 PUSH1 0x0 ADD PUSH1 0x2 SWAP1 SLOAD SWAP1 PUSH2 0x100 EXP SWAP1 DIV PUSH20 0xFFFFFFFFFFFFFFFFFFFFFFFFFFFFFFFFFFFFFFFF AND PUSH20 0xFFFFFFFFFFFFFFFFFFFFFFFFFFFFFFFFFFFFFFFF AND EQ ISZERO JUMPDEST PUSH2 0xAA1 JUMPI PUSH1 0x40 MLOAD PUSH32 0x8C379A000000000000000000000000000000000000000000000000000000000 DUP2 MSTORE PUSH1 0x4 ADD PUSH2 0xA98 SWAP1 PUSH2 0x28D1 JUMP JUMPDEST PUSH1 0x40 MLOAD DUP1 SWAP2 SUB SWAP1 REVERT JUMPDEST PUSH1 0x0 PUSH1 0x64 PUSH1 0xE PUSH1 0x0 DUP5 DUP2 MSTORE PUSH1 0x20 ADD SWAP1 DUP2 MSTORE PUSH1 0x20 ADD PUSH1 0x0 KECCAK256 DUP1 SLOAD SWAP1 POP PUSH1 0x6 PUSH1 0x0 DUP6 DUP2 MSTORE PUSH1 0x20 ADD SWAP1 DUP2 MSTORE PUSH1 0x20 ADD PUSH1 0x0 KECCAK256 SLOAD PUSH2 0xADA SWAP2 SWAP1 PUSH2 0x2B0D JUMP JUMPDEST PUSH2 0xAE4 SWAP2 SWAP1 PUSH2 0x2B3E JUMP JUMPDEST SWAP1 POP PUSH1 0x7 PUSH1 0x0 DUP4 DUP2 MSTORE PUSH1 0x20 ADD SWAP1 DUP2 MSTORE PUSH1 0x20 ADD PUSH1 0x0 KECCAK256 SLOAD DUP2 LT PUSH2 0xB2D JUMPI PUSH1 0x1 PUSH1 0x9 PUSH1 0x0 DUP5 DUP2 MSTORE PUSH1 0x20 ADD SWAP1 DUP2 MSTORE PUSH1 0x20 ADD PUSH1 0x0 KECCAK256 PUSH1 0x0 PUSH2 0x100 EXP DUP2 SLOAD DUP2 PUSH1 0xFF MUL NOT AND SWAP1 DUP4 ISZERO ISZERO MUL OR SWAP1 SSTORE POP JUMPDEST PUSH1 0x0 JUMPDEST PUSH1 0xE PUSH1 0x0 DUP5 DUP2 MSTORE PUSH1 0x20 ADD SWAP1 DUP2 MSTORE PUSH1 0x20 ADD PUSH1 0x0 KECCAK256 DUP1 SLOAD SWAP1 POP DUP2 PUSH1 0xFF AND LT ISZERO PUSH2 0xDC1 JUMPI PUSH1 0x0 ISZERO ISZERO PUSH1 0xC PUSH1 0x0 DUP6 DUP2 MSTORE PUSH1 0x20 ADD SWAP1 DUP2 MSTORE PUSH1 0x20 ADD PUSH1 0x0 KECCAK256 PUSH1 0x0 PUSH1 0xE PUSH1 0x0 DUP8 DUP2 MSTORE PUSH1 0x20 ADD SWAP1 DUP2 MSTORE PUSH1 0x20 ADD PUSH1 0x0 KECCAK256 DUP5 PUSH1 0xFF AND DUP2 SLOAD DUP2 LT PUSH2 0xB92 JUMPI PUSH2 0xB91 PUSH2 0x2D53 JUMP JUMPDEST JUMPDEST SWAP1 PUSH1 0x0 MSTORE PUSH1 0x20 PUSH1 0x0 KECCAK256 ADD PUSH1 0x0 SWAP1 SLOAD SWAP1 PUSH2 0x100 EXP SWAP1 DIV PUSH20 0xFFFFFFFFFFFFFFFFFFFFFFFFFFFFFFFFFFFFFFFF AND PUSH20 0xFFFFFFFFFFFFFFFFFFFFFFFFFFFFFFFFFFFFFFFF AND PUSH20 0xFFFFFFFFFFFFFFFFFFFFFFFFFFFFFFFFFFFFFFFF AND DUP2 MSTORE PUSH1 0x20 ADD SWAP1 DUP2 MSTORE PUSH1 0x20 ADD PUSH1 0x0 KECCAK256 PUSH1 0x0 ADD PUSH1 0x0 SWAP1 SLOAD SWAP1 PUSH2 0x100 EXP SWAP1 DIV PUSH1 0xFF AND ISZERO ISZERO EQ ISZERO PUSH2 0xDAE JUMPI PUSH1 0xD PUSH1 0x0 DUP5 DUP2 MSTORE PUSH1 0x20 ADD SWAP1 DUP2 MSTORE PUSH1 0x20 ADD PUSH1 0x0 KECCAK256 PUSH1 0xC PUSH1 0x0 DUP6 DUP2 MSTORE PUSH1 0x20 ADD SWAP1 DUP2 MSTORE PUSH1 0x20 ADD PUSH1 0x0 KECCAK256 PUSH1 0x0 PUSH1 0xE PUSH1 0x0 DUP8 DUP2 MSTORE PUSH1 0x20 ADD SWAP1 DUP2 MSTORE PUSH1 0x20 ADD PUSH1 0x0 KECCAK256 DUP5 PUSH1 0xFF AND DUP2 SLOAD DUP2 LT PUSH2 0xC60 JUMPI PUSH2 0xC5F PUSH2 0x2D53 JUMP JUMPDEST JUMPDEST SWAP1 PUSH1 0x0 MSTORE PUSH1 0x20 PUSH1 0x0 KECCAK256 ADD PUSH1 0x0 SWAP1 SLOAD SWAP1 PUSH2 0x100 EXP SWAP1 DIV PUSH20 0xFFFFFFFFFFFFFFFFFFFFFFFFFFFFFFFFFFFFFFFF AND PUSH20 0xFFFFFFFFFFFFFFFFFFFFFFFFFFFFFFFFFFFFFFFF AND PUSH20 0xFFFFFFFFFFFFFFFFFFFFFFFFFFFFFFFFFFFFFFFF AND DUP2 MSTORE PUSH1 0x20 ADD SWAP1 DUP2 MSTORE PUSH1 0x20 ADD PUSH1 0x0 KECCAK256 SWAP1 DUP1 PUSH1 0x1 DUP2 SLOAD ADD DUP1 DUP3 SSTORE DUP1 SWAP2 POP POP PUSH1 0x1 SWAP1 SUB SWAP1 PUSH1 0x0 MSTORE PUSH1 0x20 PUSH1 0x0 KECCAK256 ADD PUSH1 0x0 SWAP1 SWAP2 SWAP1 SWAP2 SWAP1 SWAP2 POP PUSH1 0x0 DUP3 ADD PUSH1 0x0 SWAP1 SLOAD SWAP1 PUSH2 0x100 EXP SWAP1 DIV PUSH1 0xFF AND DUP2 PUSH1 0x0 ADD PUSH1 0x0 PUSH2 0x100 EXP DUP2 SLOAD DUP2 PUSH1 0xFF MUL NOT AND SWAP1 DUP4 ISZERO ISZERO MUL OR SWAP1 SSTORE POP PUSH1 0x0 DUP3 ADD PUSH1 0x1 SWAP1 SLOAD SWAP1 PUSH2 0x100 EXP SWAP1 DIV PUSH1 0xFF AND DUP2 PUSH1 0x0 ADD PUSH1 0x1 PUSH2 0x100 EXP DUP2 SLOAD DUP2 PUSH1 0xFF MUL NOT AND SWAP1 DUP4 ISZERO ISZERO MUL OR SWAP1 SSTORE POP PUSH1 0x0 DUP3 ADD PUSH1 0x2 SWAP1 SLOAD SWAP1 PUSH2 0x100 EXP SWAP1 DIV PUSH20 0xFFFFFFFFFFFFFFFFFFFFFFFFFFFFFFFFFFFFFFFF AND DUP2 PUSH1 0x0 ADD PUSH1 0x2 PUSH2 0x100 EXP DUP2 SLOAD DUP2 PUSH20 0xFFFFFFFFFFFFFFFFFFFFFFFFFFFFFFFFFFFFFFFF MUL NOT AND SWAP1 DUP4 PUSH20 0xFFFFFFFFFFFFFFFFFFFFFFFFFFFFFFFFFFFFFFFF AND MUL OR SWAP1 SSTORE POP POP POP JUMPDEST DUP1 DUP1 PUSH2 0xDB9 SWAP1 PUSH2 0x2C9C JUMP JUMPDEST SWAP2 POP POP PUSH2 0xB30 JUMP JUMPDEST POP PUSH1 0x1 PUSH1 0xA PUSH1 0x0 DUP5 DUP2 MSTORE PUSH1 0x20 ADD SWAP1 DUP2 MSTORE PUSH1 0x20 ADD PUSH1 0x0 KECCAK256 PUSH1 0x0 PUSH2 0x100 EXP DUP2 SLOAD DUP2 PUSH1 0xFF MUL NOT AND SWAP1 DUP4 ISZERO ISZERO MUL OR SWAP1 SSTORE POP POP POP JUMP JUMPDEST PUSH1 0xE PUSH1 0x20 MSTORE DUP2 PUSH1 0x0 MSTORE PUSH1 0x40 PUSH1 0x0 KECCAK256 DUP2 DUP2 SLOAD DUP2 LT PUSH2 0xE0E JUMPI PUSH1 0x0 DUP1 REVERT JUMPDEST SWAP1 PUSH1 0x0 MSTORE PUSH1 0x20 PUSH1 0x0 KECCAK256 ADD PUSH1 0x0 SWAP2 POP SWAP2 POP SWAP1 SLOAD SWAP1 PUSH2 0x100 EXP SWAP1 DIV PUSH20 0xFFFFFFFFFFFFFFFFFFFFFFFFFFFFFFFFFFFFFFFF AND DUP2 JUMP JUMPDEST PUSH1 0x2 PUSH1 0x20 MSTORE DUP1 PUSH1 0x0 MSTORE PUSH1 0x40 PUSH1 0x0 KECCAK256 PUSH1 0x0 SWAP2 POP SWAP1 POP SLOAD DUP2 JUMP JUMPDEST PUSH1 0xA PUSH1 0x20 MSTORE DUP1 PUSH1 0x0 MSTORE PUSH1 0x40 PUSH1 0x0 KECCAK256 PUSH1 0x0 SWAP2 POP SLOAD SWAP1 PUSH2 0x100 EXP SWAP1 DIV PUSH1 0xFF AND DUP2 JUMP JUMPDEST PUSH1 0x4 PUSH1 0x0 DUP3 DUP2 MSTORE PUSH1 0x20 ADD SWAP1 DUP2 MSTORE PUSH1 0x20 ADD PUSH1 0x0 KECCAK256 SLOAD TIMESTAMP LT PUSH2 0xECD JUMPI PUSH1 0x40 MLOAD PUSH32 0x8C379A000000000000000000000000000000000000000000000000000000000 DUP2 MSTORE PUSH1 0x4 ADD PUSH2 0xEC4 SWAP1 PUSH2 0x29B1 JUMP JUMPDEST PUSH1 0x40 MLOAD DUP1 SWAP2 SUB SWAP1 REVERT JUMPDEST PUSH1 0x0 PUSH20 0xFFFFFFFFFFFFFFFFFFFFFFFFFFFFFFFFFFFFFFFF AND PUSH1 0xC PUSH1 0x0 DUP4 DUP2 MSTORE PUSH1 0x20 ADD SWAP1 DUP2 MSTORE PUSH1 0x20 ADD PUSH1 0x0 KECCAK256 PUSH1 0x0 CALLER PUSH20 0xFFFFFFFFFFFFFFFFFFFFFFFFFFFFFFFFFFFFFFFF AND PUSH20 0xFFFFFFFFFFFFFFFFFFFFFFFFFFFFFFFFFFFFFFFF AND DUP2 MSTORE PUSH1 0x20 ADD SWAP1 DUP2 MSTORE PUSH1 0x20 ADD PUSH1 0x0 KECCAK256 PUSH1 0x0 ADD PUSH1 0x2 SWAP1 SLOAD SWAP1 PUSH2 0x100 EXP SWAP1 DIV PUSH20 0xFFFFFFFFFFFFFFFFFFFFFFFFFFFFFFFFFFFFFFFF AND PUSH20 0xFFFFFFFFFFFFFFFFFFFFFFFFFFFFFFFFFFFFFFFF AND EQ ISZERO PUSH2 0xFB0 JUMPI PUSH1 0x40 MLOAD PUSH32 0x8C379A000000000000000000000000000000000000000000000000000000000 DUP2 MSTORE PUSH1 0x4 ADD PUSH2 0xFA7 SWAP1 PUSH2 0x2931 JUMP JUMPDEST PUSH1 0x40 MLOAD DUP1 SWAP2 SUB SWAP1 REVERT JUMPDEST PUSH1 0xC PUSH1 0x0 DUP3 DUP2 MSTORE PUSH1 0x20 ADD SWAP1 DUP2 MSTORE PUSH1 0x20 ADD PUSH1 0x0 KECCAK256 PUSH1 0x0 CALLER PUSH20 0xFFFFFFFFFFFFFFFFFFFFFFFFFFFFFFFFFFFFFFFF AND PUSH20 0xFFFFFFFFFFFFFFFFFFFFFFFFFFFFFFFFFFFFFFFF AND DUP2 MSTORE PUSH1 0x20 ADD SWAP1 DUP2 MSTORE PUSH1 0x20 ADD PUSH1 0x0 KECCAK256 PUSH1 0x0 ADD PUSH1 0x0 SWAP1 SLOAD SWAP1 PUSH2 0x100 EXP SWAP1 DIV PUSH1 0xFF AND ISZERO PUSH2 0x1051 JUMPI PUSH1 0x40 MLOAD PUSH32 0x8C379A000000000000000000000000000000000000000000000000000000000 DUP2 MSTORE PUSH1 0x4 ADD PUSH2 0x1048 SWAP1 PUSH2 0x28F1 JUMP JUMPDEST PUSH1 0x40 MLOAD DUP1 SWAP2 SUB SWAP1 REVERT JUMPDEST PUSH1 0x40 MLOAD DUP1 PUSH1 0x40 ADD PUSH1 0x40 MSTORE DUP1 PUSH1 0x9 DUP2 MSTORE PUSH1 0x20 ADD PUSH32 0x6920617070726F76650000000000000000000000000000000000000000000000 DUP2 MSTORE POP DUP1 MLOAD SWAP1 PUSH1 0x20 ADD KECCAK256 DUP3 DUP1 MLOAD SWAP1 PUSH1 0x20 ADD KECCAK256 EQ ISZERO PUSH2 0x131A JUMPI PUSH1 0x1 PUSH1 0xC PUSH1 0x0 DUP4 DUP2 MSTORE PUSH1 0x20 ADD SWAP1 DUP2 MSTORE PUSH1 0x20 ADD PUSH1 0x0 KECCAK256 PUSH1 0x0 CALLER PUSH20 0xFFFFFFFFFFFFFFFFFFFFFFFFFFFFFFFFFFFFFFFF AND PUSH20 0xFFFFFFFFFFFFFFFFFFFFFFFFFFFFFFFFFFFFFFFF AND DUP2 MSTORE PUSH1 0x20 ADD SWAP1 DUP2 MSTORE PUSH1 0x20 ADD PUSH1 0x0 KECCAK256 PUSH1 0x0 ADD PUSH1 0x0 PUSH2 0x100 EXP DUP2 SLOAD DUP2 PUSH1 0xFF MUL NOT AND SWAP1 DUP4 ISZERO ISZERO MUL OR SWAP1 SSTORE POP PUSH1 0x1 PUSH1 0xC PUSH1 0x0 DUP4 DUP2 MSTORE PUSH1 0x20 ADD SWAP1 DUP2 MSTORE PUSH1 0x20 ADD PUSH1 0x0 KECCAK256 PUSH1 0x0 CALLER PUSH20 0xFFFFFFFFFFFFFFFFFFFFFFFFFFFFFFFFFFFFFFFF AND PUSH20 0xFFFFFFFFFFFFFFFFFFFFFFFFFFFFFFFFFFFFFFFF AND DUP2 MSTORE PUSH1 0x20 ADD SWAP1 DUP2 MSTORE PUSH1 0x20 ADD PUSH1 0x0 KECCAK256 PUSH1 0x0 ADD PUSH1 0x1 PUSH2 0x100 EXP DUP2 SLOAD DUP2 PUSH1 0xFF MUL NOT AND SWAP1 DUP4 ISZERO ISZERO MUL OR SWAP1 SSTORE POP PUSH1 0x1 PUSH1 0x6 PUSH1 0x0 DUP4 DUP2 MSTORE PUSH1 0x20 ADD SWAP1 DUP2 MSTORE PUSH1 0x20 ADD PUSH1 0x0 KECCAK256 PUSH1 0x0 DUP3 DUP3 SLOAD PUSH2 0x1198 SWAP2 SWAP1 PUSH2 0x2AB7 JUMP JUMPDEST SWAP3 POP POP DUP2 SWAP1 SSTORE POP PUSH1 0x1 PUSH1 0x2 PUSH1 0x0 DUP4 DUP2 MSTORE PUSH1 0x20 ADD SWAP1 DUP2 MSTORE PUSH1 0x20 ADD PUSH1 0x0 KECCAK256 PUSH1 0x0 DUP3 DUP3 SLOAD PUSH2 0x11C3 SWAP2 SWAP1 PUSH2 0x2AB7 JUMP JUMPDEST SWAP3 POP POP DUP2 SWAP1 SSTORE POP PUSH1 0xD PUSH1 0x0 DUP3 DUP2 MSTORE PUSH1 0x20 ADD SWAP1 DUP2 MSTORE PUSH1 0x20 ADD PUSH1 0x0 KECCAK256 PUSH1 0xC PUSH1 0x0 DUP4 DUP2 MSTORE PUSH1 0x20 ADD SWAP1 DUP2 MSTORE PUSH1 0x20 ADD PUSH1 0x0 KECCAK256 PUSH1 0x0 CALLER PUSH20 0xFFFFFFFFFFFFFFFFFFFFFFFFFFFFFFFFFFFFFFFF AND PUSH20 0xFFFFFFFFFFFFFFFFFFFFFFFFFFFFFFFFFFFFFFFF AND DUP2 MSTORE PUSH1 0x20 ADD SWAP1 DUP2 MSTORE PUSH1 0x20 ADD PUSH1 0x0 KECCAK256 SWAP1 DUP1 PUSH1 0x1 DUP2 SLOAD ADD DUP1 DUP3 SSTORE DUP1 SWAP2 POP POP PUSH1 0x1 SWAP1 SUB SWAP1 PUSH1 0x0 MSTORE PUSH1 0x20 PUSH1 0x0 KECCAK256 ADD PUSH1 0x0 SWAP1 SWAP2 SWAP1 SWAP2 SWAP1 SWAP2 POP PUSH1 0x0 DUP3 ADD PUSH1 0x0 SWAP1 SLOAD SWAP1 PUSH2 0x100 EXP SWAP1 DIV PUSH1 0xFF AND DUP2 PUSH1 0x0 ADD PUSH1 0x0 PUSH2 0x100 EXP DUP2 SLOAD DUP2 PUSH1 0xFF MUL NOT AND SWAP1 DUP4 ISZERO ISZERO MUL OR SWAP1 SSTORE POP PUSH1 0x0 DUP3 ADD PUSH1 0x1 SWAP1 SLOAD SWAP1 PUSH2 0x100 EXP SWAP1 DIV PUSH1 0xFF AND DUP2 PUSH1 0x0 ADD PUSH1 0x1 PUSH2 0x100 EXP DUP2 SLOAD DUP2 PUSH1 0xFF MUL NOT AND SWAP1 DUP4 ISZERO ISZERO MUL OR SWAP1 SSTORE POP PUSH1 0x0 DUP3 ADD PUSH1 0x2 SWAP1 SLOAD SWAP1 PUSH2 0x100 EXP SWAP1 DIV PUSH20 0xFFFFFFFFFFFFFFFFFFFFFFFFFFFFFFFFFFFFFFFF AND DUP2 PUSH1 0x0 ADD PUSH1 0x2 PUSH2 0x100 EXP DUP2 SLOAD DUP2 PUSH20 0xFFFFFFFFFFFFFFFFFFFFFFFFFFFFFFFFFFFFFFFF MUL NOT AND SWAP1 DUP4 PUSH20 0xFFFFFFFFFFFFFFFFFFFFFFFFFFFFFFFFFFFFFFFF AND MUL OR SWAP1 SSTORE POP POP POP PUSH2 0x1730 JUMP JUMPDEST PUSH1 0x40 MLOAD DUP1 PUSH1 0x40 ADD PUSH1 0x40 MSTORE DUP1 PUSH1 0xC DUP2 MSTORE PUSH1 0x20 ADD PUSH32 0x6920646973617070726F76650000000000000000000000000000000000000000 DUP2 MSTORE POP DUP1 MLOAD SWAP1 PUSH1 0x20 ADD KECCAK256 DUP3 DUP1 MLOAD SWAP1 PUSH1 0x20 ADD KECCAK256 EQ ISZERO PUSH2 0x154C JUMPI PUSH1 0x1 PUSH1 0xC PUSH1 0x0 DUP4 DUP2 MSTORE PUSH1 0x20 ADD SWAP1 DUP2 MSTORE PUSH1 0x20 ADD PUSH1 0x0 KECCAK256 PUSH1 0x0 CALLER PUSH20 0xFFFFFFFFFFFFFFFFFFFFFFFFFFFFFFFFFFFFFFFF AND PUSH20 0xFFFFFFFFFFFFFFFFFFFFFFFFFFFFFFFFFFFFFFFF AND DUP2 MSTORE PUSH1 0x20 ADD SWAP1 DUP2 MSTORE PUSH1 0x20 ADD PUSH1 0x0 KECCAK256 PUSH1 0x0 ADD PUSH1 0x0 PUSH2 0x100 EXP DUP2 SLOAD DUP2 PUSH1 0xFF MUL NOT AND SWAP1 DUP4 ISZERO ISZERO MUL OR SWAP1 SSTORE POP PUSH1 0x1 PUSH1 0x2 PUSH1 0x0 DUP4 DUP2 MSTORE PUSH1 0x20 ADD SWAP1 DUP2 MSTORE PUSH1 0x20 ADD PUSH1 0x0 KECCAK256 PUSH1 0x0 DUP3 DUP3 SLOAD PUSH2 0x13F5 SWAP2 SWAP1 PUSH2 0x2AB7 JUMP JUMPDEST SWAP3 POP POP DUP2 SWAP1 SSTORE POP PUSH1 0xD PUSH1 0x0 DUP3 DUP2 MSTORE PUSH1 0x20 ADD SWAP1 DUP2 MSTORE PUSH1 0x20 ADD PUSH1 0x0 KECCAK256 PUSH1 0xC PUSH1 0x0 DUP4 DUP2 MSTORE PUSH1 0x20 ADD SWAP1 DUP2 MSTORE PUSH1 0x20 ADD PUSH1 0x0 KECCAK256 PUSH1 0x0 CALLER PUSH20 0xFFFFFFFFFFFFFFFFFFFFFFFFFFFFFFFFFFFFFFFF AND PUSH20 0xFFFFFFFFFFFFFFFFFFFFFFFFFFFFFFFFFFFFFFFF AND DUP2 MSTORE PUSH1 0x20 ADD SWAP1 DUP2 MSTORE PUSH1 0x20 ADD PUSH1 0x0 KECCAK256 SWAP1 DUP1 PUSH1 0x1 DUP2 SLOAD ADD DUP1 DUP3 SSTORE DUP1 SWAP2 POP POP PUSH1 0x1 SWAP1 SUB SWAP1 PUSH1 0x0 MSTORE PUSH1 0x20 PUSH1 0x0 KECCAK256 ADD PUSH1 0x0 SWAP1 SWAP2 SWAP1 SWAP2 SWAP1 SWAP2 POP PUSH1 0x0 DUP3 ADD PUSH1 0x0 SWAP1 SLOAD SWAP1 PUSH2 0x100 EXP SWAP1 DIV PUSH1 0xFF AND DUP2 PUSH1 0x0 ADD PUSH1 0x0 PUSH2 0x100 EXP DUP2 SLOAD DUP2 PUSH1 0xFF MUL NOT AND SWAP1 DUP4 ISZERO ISZERO MUL OR SWAP1 SSTORE POP PUSH1 0x0 DUP3 ADD PUSH1 0x1 SWAP1 SLOAD SWAP1 PUSH2 0x100 EXP SWAP1 DIV PUSH1 0xFF AND DUP2 PUSH1 0x0 ADD PUSH1 0x1 PUSH2 0x100 EXP DUP2 SLOAD DUP2 PUSH1 0xFF MUL NOT AND SWAP1 DUP4 ISZERO ISZERO MUL OR SWAP1 SSTORE POP PUSH1 0x0 DUP3 ADD PUSH1 0x2 SWAP1 SLOAD SWAP1 PUSH2 0x100 EXP SWAP1 DIV PUSH20 0xFFFFFFFFFFFFFFFFFFFFFFFFFFFFFFFFFFFFFFFF AND DUP2 PUSH1 0x0 ADD PUSH1 0x2 PUSH2 0x100 EXP DUP2 SLOAD DUP2 PUSH20 0xFFFFFFFFFFFFFFFFFFFFFFFFFFFFFFFFFFFFFFFF MUL NOT AND SWAP1 DUP4 PUSH20 0xFFFFFFFFFFFFFFFFFFFFFFFFFFFFFFFFFFFFFFFF AND MUL OR SWAP1 SSTORE POP POP POP PUSH2 0x172F JUMP JUMPDEST PUSH1 0x1 PUSH1 0xC PUSH1 0x0 DUP4 DUP2 MSTORE PUSH1 0x20 ADD SWAP1 DUP2 MSTORE PUSH1 0x20 ADD PUSH1 0x0 KECCAK256 PUSH1 0x0 CALLER PUSH20 0xFFFFFFFFFFFFFFFFFFFFFFFFFFFFFFFFFFFFFFFF AND PUSH20 0xFFFFFFFFFFFFFFFFFFFFFFFFFFFFFFFFFFFFFFFF AND DUP2 MSTORE PUSH1 0x20 ADD SWAP1 DUP2 MSTORE PUSH1 0x20 ADD PUSH1 0x0 KECCAK256 PUSH1 0x0 ADD PUSH1 0x0 PUSH2 0x100 EXP DUP2 SLOAD DUP2 PUSH1 0xFF MUL NOT AND SWAP1 DUP4 ISZERO ISZERO MUL OR SWAP1 SSTORE POP PUSH1 0x1 PUSH1 0x2 PUSH1 0x0 DUP4 DUP2 MSTORE PUSH1 0x20 ADD SWAP1 DUP2 MSTORE PUSH1 0x20 ADD PUSH1 0x0 KECCAK256 PUSH1 0x0 DUP3 DUP3 SLOAD PUSH2 0x15DC SWAP2 SWAP1 PUSH2 0x2AB7 JUMP JUMPDEST SWAP3 POP POP DUP2 SWAP1 SSTORE POP PUSH1 0xD PUSH1 0x0 DUP3 DUP2 MSTORE PUSH1 0x20 ADD SWAP1 DUP2 MSTORE PUSH1 0x20 ADD PUSH1 0x0 KECCAK256 PUSH1 0xC PUSH1 0x0 DUP4 DUP2 MSTORE PUSH1 0x20 ADD SWAP1 DUP2 MSTORE PUSH1 0x20 ADD PUSH1 0x0 KECCAK256 PUSH1 0x0 CALLER PUSH20 0xFFFFFFFFFFFFFFFFFFFFFFFFFFFFFFFFFFFFFFFF AND PUSH20 0xFFFFFFFFFFFFFFFFFFFFFFFFFFFFFFFFFFFFFFFF AND DUP2 MSTORE PUSH1 0x20 ADD SWAP1 DUP2 MSTORE PUSH1 0x20 ADD PUSH1 0x0 KECCAK256 SWAP1 DUP1 PUSH1 0x1 DUP2 SLOAD ADD DUP1 DUP3 SSTORE DUP1 SWAP2 POP POP PUSH1 0x1 SWAP1 SUB SWAP1 PUSH1 0x0 MSTORE PUSH1 0x20 PUSH1 0x0 KECCAK256 ADD PUSH1 0x0 SWAP1 SWAP2 SWAP1 SWAP2 SWAP1 SWAP2 POP PUSH1 0x0 DUP3 ADD PUSH1 0x0 SWAP1 SLOAD SWAP1 PUSH2 0x100 EXP SWAP1 DIV PUSH1 0xFF AND DUP2 PUSH1 0x0 ADD PUSH1 0x0 PUSH2 0x100 EXP DUP2 SLOAD DUP2 PUSH1 0xFF MUL NOT AND SWAP1 DUP4 ISZERO ISZERO MUL OR SWAP1 SSTORE POP PUSH1 0x0 DUP3 ADD PUSH1 0x1 SWAP1 SLOAD SWAP1 PUSH2 0x100 EXP SWAP1 DIV PUSH1 0xFF AND DUP2 PUSH1 0x0 ADD PUSH1 0x1 PUSH2 0x100 EXP DUP2 SLOAD DUP2 PUSH1 0xFF MUL NOT AND SWAP1 DUP4 ISZERO ISZERO MUL OR SWAP1 SSTORE POP PUSH1 0x0 DUP3 ADD PUSH1 0x2 SWAP1 SLOAD SWAP1 PUSH2 0x100 EXP SWAP1 DIV PUSH20 0xFFFFFFFFFFFFFFFFFFFFFFFFFFFFFFFFFFFFFFFF AND DUP2 PUSH1 0x0 ADD PUSH1 0x2 PUSH2 0x100 EXP DUP2 SLOAD DUP2 PUSH20 0xFFFFFFFFFFFFFFFFFFFFFFFFFFFFFFFFFFFFFFFF MUL NOT AND SWAP1 DUP4 PUSH20 0xFFFFFFFFFFFFFFFFFFFFFFFFFFFFFFFFFFFFFFFF AND MUL OR SWAP1 SSTORE POP POP POP JUMPDEST JUMPDEST POP POP JUMP JUMPDEST PUSH1 0x0 PUSH1 0x60 PUSH1 0x1 PUSH1 0x0 DUP5 DUP2 MSTORE PUSH1 0x20 ADD SWAP1 DUP2 MSTORE PUSH1 0x20 ADD PUSH1 0x0 KECCAK256 SLOAD PUSH1 0x8 PUSH1 0x0 DUP6 DUP2 MSTORE PUSH1 0x20 ADD SWAP1 DUP2 MSTORE PUSH1 0x20 ADD PUSH1 0x0 KECCAK256 DUP1 DUP1 SLOAD PUSH2 0x176B SWAP1 PUSH2 0x2C39 JUMP JUMPDEST DUP1 PUSH1 0x1F ADD PUSH1 0x20 DUP1 SWAP2 DIV MUL PUSH1 0x20 ADD PUSH1 0x40 MLOAD SWAP1 DUP2 ADD PUSH1 0x40 MSTORE DUP1 SWAP3 SWAP2 SWAP1 DUP2 DUP2 MSTORE PUSH1 0x20 ADD DUP3 DUP1 SLOAD PUSH2 0x1797 SWAP1 PUSH2 0x2C39 JUMP JUMPDEST DUP1 ISZERO PUSH2 0x17E4 JUMPI DUP1 PUSH1 0x1F LT PUSH2 0x17B9 JUMPI PUSH2 0x100 DUP1 DUP4 SLOAD DIV MUL DUP4 MSTORE SWAP2 PUSH1 0x20 ADD SWAP2 PUSH2 0x17E4 JUMP JUMPDEST DUP3 ADD SWAP2 SWAP1 PUSH1 0x0 MSTORE PUSH1 0x20 PUSH1 0x0 KECCAK256 SWAP1 JUMPDEST DUP2 SLOAD DUP2 MSTORE SWAP1 PUSH1 0x1 ADD SWAP1 PUSH1 0x20 ADD DUP1 DUP4 GT PUSH2 0x17C7 JUMPI DUP3 SWAP1 SUB PUSH1 0x1F AND DUP3 ADD SWAP2 JUMPDEST POP POP POP POP POP SWAP1 POP SWAP2 POP SWAP2 POP SWAP2 POP SWAP2 JUMP JUMPDEST PUSH1 0xB PUSH1 0x20 MSTORE DUP1 PUSH1 0x0 MSTORE PUSH1 0x40 PUSH1 0x0 KECCAK256 PUSH1 0x0 SWAP2 POP SWAP1 POP SLOAD DUP2 JUMP JUMPDEST PUSH1 0x8 PUSH1 0x20 MSTORE DUP1 PUSH1 0x0 MSTORE PUSH1 0x40 PUSH1 0x0 KECCAK256 PUSH1 0x0 SWAP2 POP SWAP1 POP DUP1 SLOAD PUSH2 0x182B SWAP1 PUSH2 0x2C39 JUMP JUMPDEST DUP1 PUSH1 0x1F ADD PUSH1 0x20 DUP1 SWAP2 DIV MUL PUSH1 0x20 ADD PUSH1 0x40 MLOAD SWAP1 DUP2 ADD PUSH1 0x40 MSTORE DUP1 SWAP3 SWAP2 SWAP1 DUP2 DUP2 MSTORE PUSH1 0x20 ADD DUP3 DUP1 SLOAD PUSH2 0x1857 SWAP1 PUSH2 0x2C39 JUMP JUMPDEST DUP1 ISZERO PUSH2 0x18A4 JUMPI DUP1 PUSH1 0x1F LT PUSH2 0x1879 JUMPI PUSH2 0x100 DUP1 DUP4 SLOAD DIV MUL DUP4 MSTORE SWAP2 PUSH1 0x20 ADD SWAP2 PUSH2 0x18A4 JUMP JUMPDEST DUP3 ADD SWAP2 SWAP1 PUSH1 0x0 MSTORE PUSH1 0x20 PUSH1 0x0 KECCAK256 SWAP1 JUMPDEST DUP2 SLOAD DUP2 MSTORE SWAP1 PUSH1 0x1 ADD SWAP1 PUSH1 0x20 ADD DUP1 DUP4 GT PUSH2 0x1887 JUMPI DUP3 SWAP1 SUB PUSH1 0x1F AND DUP3 ADD SWAP2 JUMPDEST POP POP POP POP POP DUP2 JUMP JUMPDEST PUSH1 0xC PUSH1 0x20 MSTORE DUP2 PUSH1 0x0 MSTORE PUSH1 0x40 PUSH1 0x0 KECCAK256 PUSH1 0x20 MSTORE DUP1 PUSH1 0x0 MSTORE PUSH1 0x40 PUSH1 0x0 KECCAK256 PUSH1 0x0 SWAP2 POP SWAP2 POP POP DUP1 PUSH1 0x0 ADD PUSH1 0x0 SWAP1 SLOAD SWAP1 PUSH2 0x100 EXP SWAP1 DIV PUSH1 0xFF AND SWAP1 DUP1 PUSH1 0x0 ADD PUSH1 0x1 SWAP1 SLOAD SWAP1 PUSH2 0x100 EXP SWAP1 DIV PUSH1 0xFF AND SWAP1 DUP1 PUSH1 0x0 ADD PUSH1 0x2 SWAP1 SLOAD SWAP1 PUSH2 0x100 EXP SWAP1 DIV PUSH20 0xFFFFFFFFFFFFFFFFFFFFFFFFFFFFFFFFFFFFFFFF AND SWAP1 POP DUP4 JUMP JUMPDEST PUSH1 0x0 PUSH1 0x20 MSTORE DUP1 PUSH1 0x0 MSTORE PUSH1 0x40 PUSH1 0x0 KECCAK256 PUSH1 0x0 SWAP2 POP SLOAD SWAP1 PUSH2 0x100 EXP SWAP1 DIV PUSH20 0xFFFFFFFFFFFFFFFFFFFFFFFFFFFFFFFFFFFFFFFF AND DUP2 JUMP JUMPDEST PUSH1 0x0 DUP1 DUP3 DUP2 MSTORE PUSH1 0x20 ADD SWAP1 DUP2 MSTORE PUSH1 0x20 ADD PUSH1 0x0 KECCAK256 PUSH1 0x0 SWAP1 SLOAD SWAP1 PUSH2 0x100 EXP SWAP1 DIV PUSH20 0xFFFFFFFFFFFFFFFFFFFFFFFFFFFFFFFFFFFFFFFF AND PUSH20 0xFFFFFFFFFFFFFFFFFFFFFFFFFFFFFFFFFFFFFFFF AND CALLER PUSH20 0xFFFFFFFFFFFFFFFFFFFFFFFFFFFFFFFFFFFFFFFF AND EQ PUSH2 0x19F0 JUMPI PUSH1 0x40 MLOAD PUSH32 0x8C379A000000000000000000000000000000000000000000000000000000000 DUP2 MSTORE PUSH1 0x4 ADD PUSH2 0x19E7 SWAP1 PUSH2 0x2971 JUMP JUMPDEST PUSH1 0x40 MLOAD DUP1 SWAP2 SUB SWAP1 REVERT JUMPDEST PUSH1 0x0 DUP1 DUP3 DUP2 MSTORE PUSH1 0x20 ADD SWAP1 DUP2 MSTORE PUSH1 0x20 ADD PUSH1 0x0 KECCAK256 PUSH1 0x0 SWAP1 SLOAD SWAP1 PUSH2 0x100 EXP SWAP1 DIV PUSH20 0xFFFFFFFFFFFFFFFFFFFFFFFFFFFFFFFFFFFFFFFF AND PUSH20 0xFFFFFFFFFFFFFFFFFFFFFFFFFFFFFFFFFFFFFFFF AND DUP3 PUSH20 0xFFFFFFFFFFFFFFFFFFFFFFFFFFFFFFFFFFFFFFFF AND EQ ISZERO PUSH2 0x1A91 JUMPI PUSH1 0x40 MLOAD PUSH32 0x8C379A000000000000000000000000000000000000000000000000000000000 DUP2 MSTORE PUSH1 0x4 ADD PUSH2 0x1A88 SWAP1 PUSH2 0x2911 JUMP JUMPDEST PUSH1 0x40 MLOAD DUP1 SWAP2 SUB SWAP1 REVERT JUMPDEST PUSH1 0x0 PUSH20 0xFFFFFFFFFFFFFFFFFFFFFFFFFFFFFFFFFFFFFFFF AND PUSH1 0xC PUSH1 0x0 DUP4 DUP2 MSTORE PUSH1 0x20 ADD SWAP1 DUP2 MSTORE PUSH1 0x20 ADD PUSH1 0x0 KECCAK256 PUSH1 0x0 DUP5 PUSH20 0xFFFFFFFFFFFFFFFFFFFFFFFFFFFFFFFFFFFFFFFF AND PUSH20 0xFFFFFFFFFFFFFFFFFFFFFFFFFFFFFFFFFFFFFFFF AND DUP2 MSTORE PUSH1 0x20 ADD SWAP1 DUP2 MSTORE PUSH1 0x20 ADD PUSH1 0x0 KECCAK256 PUSH1 0x0 ADD PUSH1 0x2 SWAP1 SLOAD SWAP1 PUSH2 0x100 EXP SWAP1 DIV PUSH20 0xFFFFFFFFFFFFFFFFFFFFFFFFFFFFFFFFFFFFFFFF AND PUSH20 0xFFFFFFFFFFFFFFFFFFFFFFFFFFFFFFFFFFFFFFFF AND EQ PUSH2 0x1B73 JUMPI PUSH1 0x40 MLOAD PUSH32 0x8C379A000000000000000000000000000000000000000000000000000000000 DUP2 MSTORE PUSH1 0x4 ADD PUSH2 0x1B6A SWAP1 PUSH2 0x2891 JUMP JUMPDEST PUSH1 0x40 MLOAD DUP1 SWAP2 SUB SWAP1 REVERT JUMPDEST PUSH1 0x4 PUSH1 0x0 DUP3 DUP2 MSTORE PUSH1 0x20 ADD SWAP1 DUP2 MSTORE PUSH1 0x20 ADD PUSH1 0x0 KECCAK256 SLOAD TIMESTAMP LT PUSH2 0x1BC8 JUMPI PUSH1 0x40 MLOAD PUSH32 0x8C379A000000000000000000000000000000000000000000000000000000000 DUP2 MSTORE PUSH1 0x4 ADD PUSH2 0x1BBF SWAP1 PUSH2 0x2951 JUMP JUMPDEST PUSH1 0x40 MLOAD DUP1 SWAP2 SUB SWAP1 REVERT JUMPDEST PUSH1 0x0 PUSH1 0x40 MLOAD DUP1 PUSH1 0x60 ADD PUSH1 0x40 MSTORE DUP1 PUSH1 0x0 ISZERO ISZERO DUP2 MSTORE PUSH1 0x20 ADD PUSH1 0x0 ISZERO ISZERO DUP2 MSTORE PUSH1 0x20 ADD DUP5 PUSH20 0xFFFFFFFFFFFFFFFFFFFFFFFFFFFFFFFFFFFFFFFF AND DUP2 MSTORE POP SWAP1 POP DUP1 PUSH1 0xC PUSH1 0x0 DUP5 DUP2 MSTORE PUSH1 0x20 ADD SWAP1 DUP2 MSTORE PUSH1 0x20 ADD PUSH1 0x0 KECCAK256 PUSH1 0x0 DUP6 PUSH20 0xFFFFFFFFFFFFFFFFFFFFFFFFFFFFFFFFFFFFFFFF AND PUSH20 0xFFFFFFFFFFFFFFFFFFFFFFFFFFFFFFFFFFFFFFFF AND DUP2 MSTORE PUSH1 0x20 ADD SWAP1 DUP2 MSTORE PUSH1 0x20 ADD PUSH1 0x0 KECCAK256 PUSH1 0x0 DUP3 ADD MLOAD DUP2 PUSH1 0x0 ADD PUSH1 0x0 PUSH2 0x100 EXP DUP2 SLOAD DUP2 PUSH1 0xFF MUL NOT AND SWAP1 DUP4 ISZERO ISZERO MUL OR SWAP1 SSTORE POP PUSH1 0x20 DUP3 ADD MLOAD DUP2 PUSH1 0x0 ADD PUSH1 0x1 PUSH2 0x100 EXP DUP2 SLOAD DUP2 PUSH1 0xFF MUL NOT AND SWAP1 DUP4 ISZERO ISZERO MUL OR SWAP1 SSTORE POP PUSH1 0x40 DUP3 ADD MLOAD DUP2 PUSH1 0x0 ADD PUSH1 0x2 PUSH2 0x100 EXP DUP2 SLOAD DUP2 PUSH20 0xFFFFFFFFFFFFFFFFFFFFFFFFFFFFFFFFFFFFFFFF MUL NOT AND SWAP1 DUP4 PUSH20 0xFFFFFFFFFFFFFFFFFFFFFFFFFFFFFFFFFFFFFFFF AND MUL OR SWAP1 SSTORE POP SWAP1 POP POP PUSH1 0xE PUSH1 0x0 DUP4 DUP2 MSTORE PUSH1 0x20 ADD SWAP1 DUP2 MSTORE PUSH1 0x20 ADD PUSH1 0x0 KECCAK256 DUP4 SWAP1 DUP1 PUSH1 0x1 DUP2 SLOAD ADD DUP1 DUP3 SSTORE DUP1 SWAP2 POP POP PUSH1 0x1 SWAP1 SUB SWAP1 PUSH1 0x0 MSTORE PUSH1 0x20 PUSH1 0x0 KECCAK256 ADD PUSH1 0x0 SWAP1 SWAP2 SWAP1 SWAP2 SWAP1 SWAP2 PUSH2 0x100 EXP DUP2 SLOAD DUP2 PUSH20 0xFFFFFFFFFFFFFFFFFFFFFFFFFFFFFFFFFFFFFFFF MUL NOT AND SWAP1 DUP4 PUSH20 0xFFFFFFFFFFFFFFFFFFFFFFFFFFFFFFFFFFFFFFFF AND MUL OR SWAP1 SSTORE POP POP POP POP JUMP JUMPDEST PUSH1 0x0 PUSH20 0xFFFFFFFFFFFFFFFFFFFFFFFFFFFFFFFFFFFFFFFF AND PUSH1 0x0 DUP1 DUP10 DUP2 MSTORE PUSH1 0x20 ADD SWAP1 DUP2 MSTORE PUSH1 0x20 ADD PUSH1 0x0 KECCAK256 PUSH1 0x0 SWAP1 SLOAD SWAP1 PUSH2 0x100 EXP SWAP1 DIV PUSH20 0xFFFFFFFFFFFFFFFFFFFFFFFFFFFFFFFFFFFFFFFF AND PUSH20 0xFFFFFFFFFFFFFFFFFFFFFFFFFFFFFFFFFFFFFFFF AND EQ PUSH2 0x1DF8 JUMPI PUSH1 0x40 MLOAD PUSH32 0x8C379A000000000000000000000000000000000000000000000000000000000 DUP2 MSTORE PUSH1 0x4 ADD PUSH2 0x1DEF SWAP1 PUSH2 0x28B1 JUMP JUMPDEST PUSH1 0x40 MLOAD DUP1 SWAP2 SUB SWAP1 REVERT JUMPDEST PUSH1 0x0 PUSH1 0x2 PUSH1 0x0 DUP10 DUP2 MSTORE PUSH1 0x20 ADD SWAP1 DUP2 MSTORE PUSH1 0x20 ADD PUSH1 0x0 KECCAK256 DUP2 SWAP1 SSTORE POP DUP6 TIMESTAMP PUSH2 0x1E1D SWAP2 SWAP1 PUSH2 0x2AB7 JUMP JUMPDEST PUSH1 0x4 PUSH1 0x0 DUP10 DUP2 MSTORE PUSH1 0x20 ADD SWAP1 DUP2 MSTORE PUSH1 0x20 ADD PUSH1 0x0 KECCAK256 DUP2 SWAP1 SSTORE POP DUP7 PUSH1 0x1 PUSH1 0x0 DUP4 DUP2 MSTORE PUSH1 0x20 ADD SWAP1 DUP2 MSTORE PUSH1 0x20 ADD PUSH1 0x0 KECCAK256 DUP2 SWAP1 SSTORE POP PUSH1 0x0 PUSH1 0xA PUSH1 0x0 DUP10 DUP2 MSTORE PUSH1 0x20 ADD SWAP1 DUP2 MSTORE PUSH1 0x20 ADD PUSH1 0x0 KECCAK256 PUSH1 0x0 PUSH2 0x100 EXP DUP2 SLOAD DUP2 PUSH1 0xFF MUL NOT AND SWAP1 DUP4 ISZERO ISZERO MUL OR SWAP1 SSTORE POP DUP5 PUSH1 0x7 PUSH1 0x0 DUP10 DUP2 MSTORE PUSH1 0x20 ADD SWAP1 DUP2 MSTORE PUSH1 0x20 ADD PUSH1 0x0 KECCAK256 DUP2 SWAP1 SSTORE POP DUP5 PUSH1 0x7 PUSH1 0x0 DUP4 DUP2 MSTORE PUSH1 0x20 ADD SWAP1 DUP2 MSTORE PUSH1 0x20 ADD PUSH1 0x0 KECCAK256 DUP2 SWAP1 SSTORE POP PUSH1 0x0 PUSH1 0x9 PUSH1 0x0 DUP10 DUP2 MSTORE PUSH1 0x20 ADD SWAP1 DUP2 MSTORE PUSH1 0x20 ADD PUSH1 0x0 KECCAK256 PUSH1 0x0 PUSH2 0x100 EXP DUP2 SLOAD DUP2 PUSH1 0xFF MUL NOT AND SWAP1 DUP4 ISZERO ISZERO MUL OR SWAP1 SSTORE POP DUP6 PUSH1 0x3 PUSH1 0x0 DUP10 DUP2 MSTORE PUSH1 0x20 ADD SWAP1 DUP2 MSTORE PUSH1 0x20 ADD PUSH1 0x0 KECCAK256 DUP2 SWAP1 SSTORE POP DUP6 PUSH1 0x3 PUSH1 0x0 DUP4 DUP2 MSTORE PUSH1 0x20 ADD SWAP1 DUP2 MSTORE PUSH1 0x20 ADD PUSH1 0x0 KECCAK256 DUP2 SWAP1 SSTORE POP DUP4 PUSH1 0x5 PUSH1 0x0 DUP10 DUP2 MSTORE PUSH1 0x20 ADD SWAP1 DUP2 MSTORE PUSH1 0x20 ADD PUSH1 0x0 KECCAK256 DUP2 SWAP1 SSTORE POP DUP4 PUSH1 0x5 PUSH1 0x0 DUP4 DUP2 MSTORE PUSH1 0x20 ADD SWAP1 DUP2 MSTORE PUSH1 0x20 ADD PUSH1 0x0 KECCAK256 DUP2 SWAP1 SSTORE POP DUP3 PUSH1 0xB PUSH1 0x0 DUP10 DUP2 MSTORE PUSH1 0x20 ADD SWAP1 DUP2 MSTORE PUSH1 0x20 ADD PUSH1 0x0 KECCAK256 DUP2 SWAP1 SSTORE POP DUP2 PUSH1 0x8 PUSH1 0x0 DUP10 DUP2 MSTORE PUSH1 0x20 ADD SWAP1 DUP2 MSTORE PUSH1 0x20 ADD PUSH1 0x0 KECCAK256 SWAP1 DUP1 MLOAD SWAP1 PUSH1 0x20 ADD SWAP1 PUSH2 0x1F73 SWAP3 SWAP2 SWAP1 PUSH2 0x20A8 JUMP JUMPDEST POP DUP2 PUSH1 0x8 PUSH1 0x0 DUP4 DUP2 MSTORE PUSH1 0x20 ADD SWAP1 DUP2 MSTORE PUSH1 0x20 ADD PUSH1 0x0 KECCAK256 SWAP1 DUP1 MLOAD SWAP1 PUSH1 0x20 ADD SWAP1 PUSH2 0x1F9B SWAP3 SWAP2 SWAP1 PUSH2 0x20A8 JUMP JUMPDEST POP PUSH1 0x0 PUSH1 0x6 PUSH1 0x0 DUP10 DUP2 MSTORE PUSH1 0x20 ADD SWAP1 DUP2 MSTORE PUSH1 0x20 ADD PUSH1 0x0 KECCAK256 DUP2 SWAP1 SSTORE POP CALLER PUSH1 0x0 DUP1 DUP10 DUP2 MSTORE PUSH1 0x20 ADD SWAP1 DUP2 MSTORE PUSH1 0x20 ADD PUSH1 0x0 KECCAK256 PUSH1 0x0 PUSH2 0x100 EXP DUP2 SLOAD DUP2 PUSH20 0xFFFFFFFFFFFFFFFFFFFFFFFFFFFFFFFFFFFFFFFF MUL NOT AND SWAP1 DUP4 PUSH20 0xFFFFFFFFFFFFFFFFFFFFFFFFFFFFFFFFFFFFFFFF AND MUL OR SWAP1 SSTORE POP CALLER PUSH1 0x0 DUP1 DUP4 DUP2 MSTORE PUSH1 0x20 ADD SWAP1 DUP2 MSTORE PUSH1 0x20 ADD PUSH1 0x0 KECCAK256 PUSH1 0x0 PUSH2 0x100 EXP DUP2 SLOAD DUP2 PUSH20 0xFFFFFFFFFFFFFFFFFFFFFFFFFFFFFFFFFFFFFFFF MUL NOT AND SWAP1 DUP4 PUSH20 0xFFFFFFFFFFFFFFFFFFFFFFFFFFFFFFFFFFFFFFFF AND MUL OR SWAP1 SSTORE POP POP POP POP POP POP POP POP JUMP JUMPDEST PUSH1 0x6 PUSH1 0x20 MSTORE DUP1 PUSH1 0x0 MSTORE PUSH1 0x40 PUSH1 0x0 KECCAK256 PUSH1 0x0 SWAP2 POP SWAP1 POP SLOAD DUP2 JUMP JUMPDEST PUSH1 0x1 PUSH1 0x20 MSTORE DUP1 PUSH1 0x0 MSTORE PUSH1 0x40 PUSH1 0x0 KECCAK256 PUSH1 0x0 SWAP2 POP SWAP1 POP SLOAD DUP2 JUMP JUMPDEST PUSH1 0x5 PUSH1 0x20 MSTORE DUP1 PUSH1 0x0 MSTORE PUSH1 0x40 PUSH1 0x0 KECCAK256 PUSH1 0x0 SWAP2 POP SWAP1 POP SLOAD DUP2 JUMP JUMPDEST DUP3 DUP1 SLOAD PUSH2 0x20B4 SWAP1 PUSH2 0x2C39 JUMP JUMPDEST SWAP1 PUSH1 0x0 MSTORE PUSH1 0x20 PUSH1 0x0 KECCAK256 SWAP1 PUSH1 0x1F ADD PUSH1 0x20 SWAP1 DIV DUP2 ADD SWAP3 DUP3 PUSH2 0x20D6 JUMPI PUSH1 0x0 DUP6 SSTORE PUSH2 0x211D JUMP JUMPDEST DUP3 PUSH1 0x1F LT PUSH2 0x20EF JUMPI DUP1 MLOAD PUSH1 0xFF NOT AND DUP4 DUP1 ADD OR DUP6 SSTORE PUSH2 0x211D JUMP JUMPDEST DUP3 DUP1 ADD PUSH1 0x1 ADD DUP6 SSTORE DUP3 ISZERO PUSH2 0x211D JUMPI SWAP2 DUP3 ADD JUMPDEST DUP3 DUP2 GT ISZERO PUSH2 0x211C JUMPI DUP3 MLOAD DUP3 SSTORE SWAP2 PUSH1 0x20 ADD SWAP2 SWAP1 PUSH1 0x1 ADD SWAP1 PUSH2 0x2101 JUMP JUMPDEST JUMPDEST POP SWAP1 POP PUSH2 0x212A SWAP2 SWAP1 PUSH2 0x212E JUMP JUMPDEST POP SWAP1 JUMP JUMPDEST JUMPDEST DUP1 DUP3 GT ISZERO PUSH2 0x2147 JUMPI PUSH1 0x0 DUP2 PUSH1 0x0 SWAP1 SSTORE POP PUSH1 0x1 ADD PUSH2 0x212F JUMP JUMPDEST POP SWAP1 JUMP JUMPDEST PUSH1 0x0 PUSH2 0x215E PUSH2 0x2159 DUP5 PUSH2 0x2A31 JUMP JUMPDEST PUSH2 0x2A0C JUMP JUMPDEST SWAP1 POP DUP3 DUP2 MSTORE PUSH1 0x20 DUP2 ADD DUP5 DUP5 DUP5 ADD GT ISZERO PUSH2 0x217A JUMPI PUSH2 0x2179 PUSH2 0x2DB6 JUMP JUMPDEST JUMPDEST PUSH2 0x2185 DUP5 DUP3 DUP6 PUSH2 0x2BF7 JUMP JUMPDEST POP SWAP4 SWAP3 POP POP POP JUMP JUMPDEST PUSH1 0x0 DUP2 CALLDATALOAD SWAP1 POP PUSH2 0x219C DUP2 PUSH2 0x3031 JUMP JUMPDEST SWAP3 SWAP2 POP POP JUMP JUMPDEST PUSH1 0x0 DUP2 CALLDATALOAD SWAP1 POP PUSH2 0x21B1 DUP2 PUSH2 0x3048 JUMP JUMPDEST SWAP3 SWAP2 POP POP JUMP JUMPDEST PUSH1 0x0 DUP3 PUSH1 0x1F DUP4 ADD SLT PUSH2 0x21CC JUMPI PUSH2 0x21CB PUSH2 0x2DB1 JUMP JUMPDEST JUMPDEST DUP2 CALLDATALOAD PUSH2 0x21DC DUP5 DUP3 PUSH1 0x20 DUP7 ADD PUSH2 0x214B JUMP JUMPDEST SWAP2 POP POP SWAP3 SWAP2 POP POP JUMP JUMPDEST PUSH1 0x0 DUP2 CALLDATALOAD SWAP1 POP PUSH2 0x21F4 DUP2 PUSH2 0x305F JUMP JUMPDEST SWAP3 SWAP2 POP POP JUMP JUMPDEST PUSH1 0x0 DUP1 PUSH1 0x40 DUP4 DUP6 SUB SLT ISZERO PUSH2 0x2211 JUMPI PUSH2 0x2210 PUSH2 0x2DC0 JUMP JUMPDEST JUMPDEST PUSH1 0x0 PUSH2 0x221F DUP6 DUP3 DUP7 ADD PUSH2 0x218D JUMP JUMPDEST SWAP3 POP POP PUSH1 0x20 PUSH2 0x2230 DUP6 DUP3 DUP7 ADD PUSH2 0x21A2 JUMP JUMPDEST SWAP2 POP POP SWAP3 POP SWAP3 SWAP1 POP JUMP JUMPDEST PUSH1 0x0 PUSH1 0x20 DUP3 DUP5 SUB SLT ISZERO PUSH2 0x2250 JUMPI PUSH2 0x224F PUSH2 0x2DC0 JUMP JUMPDEST JUMPDEST PUSH1 0x0 PUSH2 0x225E DUP5 DUP3 DUP6 ADD PUSH2 0x21A2 JUMP JUMPDEST SWAP2 POP POP SWAP3 SWAP2 POP POP JUMP JUMPDEST PUSH1 0x0 DUP1 PUSH1 0x40 DUP4 DUP6 SUB SLT ISZERO PUSH2 0x227E JUMPI PUSH2 0x227D PUSH2 0x2DC0 JUMP JUMPDEST JUMPDEST PUSH1 0x0 PUSH2 0x228C DUP6 DUP3 DUP7 ADD PUSH2 0x21A2 JUMP JUMPDEST SWAP3 POP POP PUSH1 0x20 PUSH2 0x229D DUP6 DUP3 DUP7 ADD PUSH2 0x218D JUMP JUMPDEST SWAP2 POP POP SWAP3 POP SWAP3 SWAP1 POP JUMP JUMPDEST PUSH1 0x0 DUP1 PUSH1 0x40 DUP4 DUP6 SUB SLT ISZERO PUSH2 0x22BE JUMPI PUSH2 0x22BD PUSH2 0x2DC0 JUMP JUMPDEST JUMPDEST PUSH1 0x0 PUSH2 0x22CC DUP6 DUP3 DUP7 ADD PUSH2 0x21A2 JUMP JUMPDEST SWAP3 POP POP PUSH1 0x20 PUSH2 0x22DD DUP6 DUP3 DUP7 ADD PUSH2 0x21E5 JUMP JUMPDEST SWAP2 POP POP SWAP3 POP SWAP3 SWAP1 POP JUMP JUMPDEST PUSH1 0x0 DUP1 PUSH1 0x0 DUP1 PUSH1 0x80 DUP6 DUP8 SUB SLT ISZERO PUSH2 0x2301 JUMPI PUSH2 0x2300 PUSH2 0x2DC0 JUMP JUMPDEST JUMPDEST PUSH1 0x0 PUSH2 0x230F DUP8 DUP3 DUP9 ADD PUSH2 0x21A2 JUMP JUMPDEST SWAP5 POP POP PUSH1 0x20 PUSH2 0x2320 DUP8 DUP3 DUP9 ADD PUSH2 0x21E5 JUMP JUMPDEST SWAP4 POP POP PUSH1 0x40 PUSH2 0x2331 DUP8 DUP3 DUP9 ADD PUSH2 0x21E5 JUMP JUMPDEST SWAP3 POP POP PUSH1 0x60 PUSH2 0x2342 DUP8 DUP3 DUP9 ADD PUSH2 0x21A2 JUMP JUMPDEST SWAP2 POP POP SWAP3 SWAP6 SWAP2 SWAP5 POP SWAP3 POP JUMP JUMPDEST PUSH1 0x0 DUP1 PUSH1 0x0 DUP1 PUSH1 0x0 DUP1 PUSH1 0x0 PUSH1 0xE0 DUP9 DUP11 SUB SLT ISZERO PUSH2 0x236D JUMPI PUSH2 0x236C PUSH2 0x2DC0 JUMP JUMPDEST JUMPDEST PUSH1 0x0 PUSH2 0x237B DUP11 DUP3 DUP12 ADD PUSH2 0x21A2 JUMP JUMPDEST SWAP8 POP POP PUSH1 0x20 PUSH2 0x238C DUP11 DUP3 DUP12 ADD PUSH2 0x21E5 JUMP JUMPDEST SWAP7 POP POP PUSH1 0x40 PUSH2 0x239D DUP11 DUP3 DUP12 ADD PUSH2 0x21E5 JUMP JUMPDEST SWAP6 POP POP PUSH1 0x60 PUSH2 0x23AE DUP11 DUP3 DUP12 ADD PUSH2 0x21A2 JUMP JUMPDEST SWAP5 POP POP PUSH1 0x80 PUSH2 0x23BF DUP11 DUP3 DUP12 ADD PUSH2 0x21A2 JUMP JUMPDEST SWAP4 POP POP PUSH1 0xA0 DUP9 ADD CALLDATALOAD PUSH8 0xFFFFFFFFFFFFFFFF DUP2 GT ISZERO PUSH2 0x23E0 JUMPI PUSH2 0x23DF PUSH2 0x2DBB JUMP JUMPDEST JUMPDEST PUSH2 0x23EC DUP11 DUP3 DUP12 ADD PUSH2 0x21B7 JUMP JUMPDEST SWAP3 POP POP PUSH1 0xC0 PUSH2 0x23FD DUP11 DUP3 DUP12 ADD PUSH2 0x21A2 JUMP JUMPDEST SWAP2 POP POP SWAP3 SWAP6 SWAP9 SWAP2 SWAP5 SWAP8 POP SWAP3 SWAP6 POP JUMP JUMPDEST PUSH1 0x0 DUP1 PUSH1 0x40 DUP4 DUP6 SUB SLT ISZERO PUSH2 0x2423 JUMPI PUSH2 0x2422 PUSH2 0x2DC0 JUMP JUMPDEST JUMPDEST PUSH1 0x0 DUP4 ADD CALLDATALOAD PUSH8 0xFFFFFFFFFFFFFFFF DUP2 GT ISZERO PUSH2 0x2441 JUMPI PUSH2 0x2440 PUSH2 0x2DBB JUMP JUMPDEST JUMPDEST PUSH2 0x244D DUP6 DUP3 DUP7 ADD PUSH2 0x21B7 JUMP JUMPDEST SWAP3 POP POP PUSH1 0x20 PUSH2 0x245E DUP6 DUP3 DUP7 ADD PUSH2 0x21A2 JUMP JUMPDEST SWAP2 POP POP SWAP3 POP SWAP3 SWAP1 POP JUMP JUMPDEST PUSH1 0x0 PUSH2 0x2474 DUP4 DUP4 PUSH2 0x26E3 JUMP JUMPDEST PUSH1 0x60 DUP4 ADD SWAP1 POP SWAP3 SWAP2 POP POP JUMP JUMPDEST PUSH2 0x2489 DUP2 PUSH2 0x2B98 JUMP JUMPDEST DUP3 MSTORE POP POP JUMP JUMPDEST PUSH2 0x2498 DUP2 PUSH2 0x2B98 JUMP JUMPDEST DUP3 MSTORE POP POP JUMP JUMPDEST PUSH1 0x0 PUSH2 0x24A9 DUP3 PUSH2 0x2A72 JUMP JUMPDEST PUSH2 0x24B3 DUP2 DUP6 PUSH2 0x2A95 JUMP JUMPDEST SWAP4 POP PUSH2 0x24BE DUP4 PUSH2 0x2A62 JUMP JUMPDEST DUP1 PUSH1 0x0 JUMPDEST DUP4 DUP2 LT ISZERO PUSH2 0x24EF JUMPI DUP2 MLOAD PUSH2 0x24D6 DUP9 DUP3 PUSH2 0x2468 JUMP JUMPDEST SWAP8 POP PUSH2 0x24E1 DUP4 PUSH2 0x2A88 JUMP JUMPDEST SWAP3 POP POP PUSH1 0x1 DUP2 ADD SWAP1 POP PUSH2 0x24C2 JUMP JUMPDEST POP DUP6 SWAP4 POP POP POP POP SWAP3 SWAP2 POP POP JUMP JUMPDEST PUSH2 0x2505 DUP2 PUSH2 0x2BAA JUMP JUMPDEST DUP3 MSTORE POP POP JUMP JUMPDEST PUSH2 0x2514 DUP2 PUSH2 0x2BAA JUMP JUMPDEST DUP3 MSTORE POP POP JUMP JUMPDEST PUSH2 0x2523 DUP2 PUSH2 0x2BB6 JUMP JUMPDEST DUP3 MSTORE POP POP JUMP JUMPDEST PUSH1 0x0 PUSH2 0x2534 DUP3 PUSH2 0x2A7D JUMP JUMPDEST PUSH2 0x253E DUP2 DUP6 PUSH2 0x2AA6 JUMP JUMPDEST SWAP4 POP PUSH2 0x254E DUP2 DUP6 PUSH1 0x20 DUP7 ADD PUSH2 0x2C06 JUMP JUMPDEST PUSH2 0x2557 DUP2 PUSH2 0x2DC5 JUMP JUMPDEST DUP5 ADD SWAP2 POP POP SWAP3 SWAP2 POP POP JUMP JUMPDEST PUSH1 0x0 PUSH2 0x256F PUSH1 0x1F DUP4 PUSH2 0x2AA6 JUMP JUMPDEST SWAP2 POP PUSH2 0x257A DUP3 PUSH2 0x2DD6 JUMP JUMPDEST PUSH1 0x20 DUP3 ADD SWAP1 POP SWAP2 SWAP1 POP JUMP JUMPDEST PUSH1 0x0 PUSH2 0x2592 PUSH1 0x19 DUP4 PUSH2 0x2AA6 JUMP JUMPDEST SWAP2 POP PUSH2 0x259D DUP3 PUSH2 0x2DFF JUMP JUMPDEST PUSH1 0x20 DUP3 ADD SWAP1 POP SWAP2 SWAP1 POP JUMP JUMPDEST PUSH1 0x0 PUSH2 0x25B5 PUSH1 0x26 DUP4 PUSH2 0x2AA6 JUMP JUMPDEST SWAP2 POP PUSH2 0x25C0 DUP3 PUSH2 0x2E28 JUMP JUMPDEST PUSH1 0x40 DUP3 ADD SWAP1 POP SWAP2 SWAP1 POP JUMP JUMPDEST PUSH1 0x0 PUSH2 0x25D8 PUSH1 0x1C DUP4 PUSH2 0x2AA6 JUMP JUMPDEST SWAP2 POP PUSH2 0x25E3 DUP3 PUSH2 0x2E77 JUMP JUMPDEST PUSH1 0x20 DUP3 ADD SWAP1 POP SWAP2 SWAP1 POP JUMP JUMPDEST PUSH1 0x0 PUSH2 0x25FB PUSH1 0x15 DUP4 PUSH2 0x2AA6 JUMP JUMPDEST SWAP2 POP PUSH2 0x2606 DUP3 PUSH2 0x2EA0 JUMP JUMPDEST PUSH1 0x20 DUP3 ADD SWAP1 POP SWAP2 SWAP1 POP JUMP JUMPDEST PUSH1 0x0 PUSH2 0x261E PUSH1 0x1E DUP4 PUSH2 0x2AA6 JUMP JUMPDEST SWAP2 POP PUSH2 0x2629 DUP3 PUSH2 0x2EC9 JUMP JUMPDEST PUSH1 0x20 DUP3 ADD SWAP1 POP SWAP2 SWAP1 POP JUMP JUMPDEST PUSH1 0x0 PUSH2 0x2641 PUSH1 0x24 DUP4 PUSH2 0x2AA6 JUMP JUMPDEST SWAP2 POP PUSH2 0x264C DUP3 PUSH2 0x2EF2 JUMP JUMPDEST PUSH1 0x40 DUP3 ADD SWAP1 POP SWAP2 SWAP1 POP JUMP JUMPDEST PUSH1 0x0 PUSH2 0x2664 PUSH1 0x28 DUP4 PUSH2 0x2AA6 JUMP JUMPDEST SWAP2 POP PUSH2 0x266F DUP3 PUSH2 0x2F41 JUMP JUMPDEST PUSH1 0x40 DUP3 ADD SWAP1 POP SWAP2 SWAP1 POP JUMP JUMPDEST PUSH1 0x0 PUSH2 0x2687 PUSH1 0x20 DUP4 PUSH2 0x2AA6 JUMP JUMPDEST SWAP2 POP PUSH2 0x2692 DUP3 PUSH2 0x2F90 JUMP JUMPDEST PUSH1 0x20 DUP3 ADD SWAP1 POP SWAP2 SWAP1 POP JUMP JUMPDEST PUSH1 0x0 PUSH2 0x26AA PUSH1 0x12 DUP4 PUSH2 0x2AA6 JUMP JUMPDEST SWAP2 POP PUSH2 0x26B5 DUP3 PUSH2 0x2FB9 JUMP JUMPDEST PUSH1 0x20 DUP3 ADD SWAP1 POP SWAP2 SWAP1 POP JUMP JUMPDEST PUSH1 0x0 PUSH2 0x26CD PUSH1 0x25 DUP4 PUSH2 0x2AA6 JUMP JUMPDEST SWAP2 POP PUSH2 0x26D8 DUP3 PUSH2 0x2FE2 JUMP JUMPDEST PUSH1 0x40 DUP3 ADD SWAP1 POP SWAP2 SWAP1 POP JUMP JUMPDEST PUSH1 0x60 DUP3 ADD PUSH1 0x0 DUP3 ADD MLOAD PUSH2 0x26F9 PUSH1 0x0 DUP6 ADD DUP3 PUSH2 0x24FC JUMP JUMPDEST POP PUSH1 0x20 DUP3 ADD MLOAD PUSH2 0x270C PUSH1 0x20 DUP6 ADD DUP3 PUSH2 0x24FC JUMP JUMPDEST POP PUSH1 0x40 DUP3 ADD MLOAD PUSH2 0x271F PUSH1 0x40 DUP6 ADD DUP3 PUSH2 0x2480 JUMP JUMPDEST POP POP POP POP JUMP JUMPDEST PUSH2 0x272E DUP2 PUSH2 0x2BE0 JUMP JUMPDEST DUP3 MSTORE POP POP JUMP JUMPDEST PUSH1 0x0 PUSH1 0x20 DUP3 ADD SWAP1 POP PUSH2 0x2749 PUSH1 0x0 DUP4 ADD DUP5 PUSH2 0x248F JUMP JUMPDEST SWAP3 SWAP2 POP POP JUMP JUMPDEST PUSH1 0x0 PUSH1 0x20 DUP3 ADD SWAP1 POP PUSH2 0x2764 PUSH1 0x0 DUP4 ADD DUP5 PUSH2 0x250B JUMP JUMPDEST SWAP3 SWAP2 POP POP JUMP JUMPDEST PUSH1 0x0 PUSH1 0x60 DUP3 ADD SWAP1 POP PUSH2 0x277F PUSH1 0x0 DUP4 ADD DUP7 PUSH2 0x250B JUMP JUMPDEST PUSH2 0x278C PUSH1 0x20 DUP4 ADD DUP6 PUSH2 0x250B JUMP JUMPDEST PUSH2 0x2799 PUSH1 0x40 DUP4 ADD DUP5 PUSH2 0x248F JUMP JUMPDEST SWAP5 SWAP4 POP POP POP POP JUMP JUMPDEST PUSH1 0x0 PUSH1 0x60 DUP3 ADD SWAP1 POP PUSH2 0x27B6 PUSH1 0x0 DUP4 ADD DUP7 PUSH2 0x250B JUMP JUMPDEST PUSH2 0x27C3 PUSH1 0x20 DUP4 ADD DUP6 PUSH2 0x250B JUMP JUMPDEST PUSH2 0x27D0 PUSH1 0x40 DUP4 ADD DUP5 PUSH2 0x250B JUMP JUMPDEST SWAP5 SWAP4 POP POP POP POP JUMP JUMPDEST PUSH1 0x0 PUSH1 0x80 DUP3 ADD SWAP1 POP PUSH2 0x27ED PUSH1 0x0 DUP4 ADD DUP8 PUSH2 0x250B JUMP JUMPDEST PUSH2 0x27FA PUSH1 0x20 DUP4 ADD DUP7 PUSH2 0x251A JUMP JUMPDEST PUSH2 0x2807 PUSH1 0x40 DUP4 ADD DUP6 PUSH2 0x2725 JUMP JUMPDEST DUP2 DUP2 SUB PUSH1 0x60 DUP4 ADD MSTORE PUSH2 0x2819 DUP2 DUP5 PUSH2 0x249E JUMP JUMPDEST SWAP1 POP SWAP6 SWAP5 POP POP POP POP POP JUMP JUMPDEST PUSH1 0x0 PUSH1 0x20 DUP3 ADD SWAP1 POP PUSH2 0x2839 PUSH1 0x0 DUP4 ADD DUP5 PUSH2 0x251A JUMP JUMPDEST SWAP3 SWAP2 POP POP JUMP JUMPDEST PUSH1 0x0 PUSH1 0x40 DUP3 ADD SWAP1 POP PUSH2 0x2854 PUSH1 0x0 DUP4 ADD DUP6 PUSH2 0x251A JUMP JUMPDEST DUP2 DUP2 SUB PUSH1 0x20 DUP4 ADD MSTORE PUSH2 0x2866 DUP2 DUP5 PUSH2 0x2529 JUMP JUMPDEST SWAP1 POP SWAP4 SWAP3 POP POP POP JUMP JUMPDEST PUSH1 0x0 PUSH1 0x20 DUP3 ADD SWAP1 POP DUP2 DUP2 SUB PUSH1 0x0 DUP4 ADD MSTORE PUSH2 0x2889 DUP2 DUP5 PUSH2 0x2529 JUMP JUMPDEST SWAP1 POP SWAP3 SWAP2 POP POP JUMP JUMPDEST PUSH1 0x0 PUSH1 0x20 DUP3 ADD SWAP1 POP DUP2 DUP2 SUB PUSH1 0x0 DUP4 ADD MSTORE PUSH2 0x28AA DUP2 PUSH2 0x2562 JUMP JUMPDEST SWAP1 POP SWAP2 SWAP1 POP JUMP JUMPDEST PUSH1 0x0 PUSH1 0x20 DUP3 ADD SWAP1 POP DUP2 DUP2 SUB PUSH1 0x0 DUP4 ADD MSTORE PUSH2 0x28CA DUP2 PUSH2 0x2585 JUMP JUMPDEST SWAP1 POP SWAP2 SWAP1 POP JUMP JUMPDEST PUSH1 0x0 PUSH1 0x20 DUP3 ADD SWAP1 POP DUP2 DUP2 SUB PUSH1 0x0 DUP4 ADD MSTORE PUSH2 0x28EA DUP2 PUSH2 0x25A8 JUMP JUMPDEST SWAP1 POP SWAP2 SWAP1 POP JUMP JUMPDEST PUSH1 0x0 PUSH1 0x20 DUP3 ADD SWAP1 POP DUP2 DUP2 SUB PUSH1 0x0 DUP4 ADD MSTORE PUSH2 0x290A DUP2 PUSH2 0x25CB JUMP JUMPDEST SWAP1 POP SWAP2 SWAP1 POP JUMP JUMPDEST PUSH1 0x0 PUSH1 0x20 DUP3 ADD SWAP1 POP DUP2 DUP2 SUB PUSH1 0x0 DUP4 ADD MSTORE PUSH2 0x292A DUP2 PUSH2 0x25EE JUMP JUMPDEST SWAP1 POP SWAP2 SWAP1 POP JUMP JUMPDEST PUSH1 0x0 PUSH1 0x20 DUP3 ADD SWAP1 POP DUP2 DUP2 SUB PUSH1 0x0 DUP4 ADD MSTORE PUSH2 0x294A DUP2 PUSH2 0x2611 JUMP JUMPDEST SWAP1 POP SWAP2 SWAP1 POP JUMP JUMPDEST PUSH1 0x0 PUSH1 0x20 DUP3 ADD SWAP1 POP DUP2 DUP2 SUB PUSH1 0x0 DUP4 ADD MSTORE PUSH2 0x296A DUP2 PUSH2 0x2634 JUMP JUMPDEST SWAP1 POP SWAP2 SWAP1 POP JUMP JUMPDEST PUSH1 0x0 PUSH1 0x20 DUP3 ADD SWAP1 POP DUP2 DUP2 SUB PUSH1 0x0 DUP4 ADD MSTORE PUSH2 0x298A DUP2 PUSH2 0x2657 JUMP JUMPDEST SWAP1 POP SWAP2 SWAP1 POP JUMP JUMPDEST PUSH1 0x0 PUSH1 0x20 DUP3 ADD SWAP1 POP DUP2 DUP2 SUB PUSH1 0x0 DUP4 ADD MSTORE PUSH2 0x29AA DUP2 PUSH2 0x267A JUMP JUMPDEST SWAP1 POP SWAP2 SWAP1 POP JUMP JUMPDEST PUSH1 0x0 PUSH1 0x20 DUP3 ADD SWAP1 POP DUP2 DUP2 SUB PUSH1 0x0 DUP4 ADD MSTORE PUSH2 0x29CA DUP2 PUSH2 0x269D JUMP JUMPDEST SWAP1 POP SWAP2 SWAP1 POP JUMP JUMPDEST PUSH1 0x0 PUSH1 0x20 DUP3 ADD SWAP1 POP DUP2 DUP2 SUB PUSH1 0x0 DUP4 ADD MSTORE PUSH2 0x29EA DUP2 PUSH2 0x26C0 JUMP JUMPDEST SWAP1 POP SWAP2 SWAP1 POP JUMP JUMPDEST PUSH1 0x0 PUSH1 0x20 DUP3 ADD SWAP1 POP PUSH2 0x2A06 PUSH1 0x0 DUP4 ADD DUP5 PUSH2 0x2725 JUMP JUMPDEST SWAP3 SWAP2 POP POP JUMP JUMPDEST PUSH1 0x0 PUSH2 0x2A16 PUSH2 0x2A27 JUMP JUMPDEST SWAP1 POP PUSH2 0x2A22 DUP3 DUP3 PUSH2 0x2C6B JUMP JUMPDEST SWAP2 SWAP1 POP JUMP JUMPDEST PUSH1 0x0 PUSH1 0x40 MLOAD SWAP1 POP SWAP1 JUMP JUMPDEST PUSH1 0x0 PUSH8 0xFFFFFFFFFFFFFFFF DUP3 GT ISZERO PUSH2 0x2A4C JUMPI PUSH2 0x2A4B PUSH2 0x2D82 JUMP JUMPDEST JUMPDEST PUSH2 0x2A55 DUP3 PUSH2 0x2DC5 JUMP JUMPDEST SWAP1 POP PUSH1 0x20 DUP2 ADD SWAP1 POP SWAP2 SWAP1 POP JUMP JUMPDEST PUSH1 0x0 DUP2 SWAP1 POP PUSH1 0x20 DUP3 ADD SWAP1 POP SWAP2 SWAP1 POP JUMP JUMPDEST PUSH1 0x0 DUP2 MLOAD SWAP1 POP SWAP2 SWAP1 POP JUMP JUMPDEST PUSH1 0x0 DUP2 MLOAD SWAP1 POP SWAP2 SWAP1 POP JUMP JUMPDEST PUSH1 0x0 PUSH1 0x20 DUP3 ADD SWAP1 POP SWAP2 SWAP1 POP JUMP JUMPDEST PUSH1 0x0 DUP3 DUP3 MSTORE PUSH1 0x20 DUP3 ADD SWAP1 POP SWAP3 SWAP2 POP POP JUMP JUMPDEST PUSH1 0x0 DUP3 DUP3 MSTORE PUSH1 0x20 DUP3 ADD SWAP1 POP SWAP3 SWAP2 POP POP JUMP JUMPDEST PUSH1 0x0 PUSH2 0x2AC2 DUP3 PUSH2 0x2BE0 JUMP JUMPDEST SWAP2 POP PUSH2 0x2ACD DUP4 PUSH2 0x2BE0 JUMP JUMPDEST SWAP3 POP DUP3 PUSH32 0xFFFFFFFFFFFFFFFFFFFFFFFFFFFFFFFFFFFFFFFFFFFFFFFFFFFFFFFFFFFFFFFF SUB DUP3 GT ISZERO PUSH2 0x2B02 JUMPI PUSH2 0x2B01 PUSH2 0x2CC6 JUMP JUMPDEST JUMPDEST DUP3 DUP3 ADD SWAP1 POP SWAP3 SWAP2 POP POP JUMP JUMPDEST PUSH1 0x0 PUSH2 0x2B18 DUP3 PUSH2 0x2BE0 JUMP JUMPDEST SWAP2 POP PUSH2 0x2B23 DUP4 PUSH2 0x2BE0 JUMP JUMPDEST SWAP3 POP DUP3 PUSH2 0x2B33 JUMPI PUSH2 0x2B32 PUSH2 0x2CF5 JUMP JUMPDEST JUMPDEST DUP3 DUP3 DIV SWAP1 POP SWAP3 SWAP2 POP POP JUMP JUMPDEST PUSH1 0x0 PUSH2 0x2B49 DUP3 PUSH2 0x2BE0 JUMP JUMPDEST SWAP2 POP PUSH2 0x2B54 DUP4 PUSH2 0x2BE0 JUMP JUMPDEST SWAP3 POP DUP2 PUSH32 0xFFFFFFFFFFFFFFFFFFFFFFFFFFFFFFFFFFFFFFFFFFFFFFFFFFFFFFFFFFFFFFFF DIV DUP4 GT DUP3 ISZERO ISZERO AND ISZERO PUSH2 0x2B8D JUMPI PUSH2 0x2B8C PUSH2 0x2CC6 JUMP JUMPDEST JUMPDEST DUP3 DUP3 MUL SWAP1 POP SWAP3 SWAP2 POP POP JUMP JUMPDEST PUSH1 0x0 PUSH2 0x2BA3 DUP3 PUSH2 0x2BC0 JUMP JUMPDEST SWAP1 POP SWAP2 SWAP1 POP JUMP JUMPDEST PUSH1 0x0 DUP2 ISZERO ISZERO SWAP1 POP SWAP2 SWAP1 POP JUMP JUMPDEST PUSH1 0x0 DUP2 SWAP1 POP SWAP2 SWAP1 POP JUMP JUMPDEST PUSH1 0x0 PUSH20 0xFFFFFFFFFFFFFFFFFFFFFFFFFFFFFFFFFFFFFFFF DUP3 AND SWAP1 POP SWAP2 SWAP1 POP JUMP JUMPDEST PUSH1 0x0 DUP2 SWAP1 POP SWAP2 SWAP1 POP JUMP JUMPDEST PUSH1 0x0 PUSH1 0xFF DUP3 AND SWAP1 POP SWAP2 SWAP1 POP JUMP JUMPDEST DUP3 DUP2 DUP4 CALLDATACOPY PUSH1 0x0 DUP4 DUP4 ADD MSTORE POP POP POP JUMP JUMPDEST PUSH1 0x0 JUMPDEST DUP4 DUP2 LT ISZERO PUSH2 0x2C24 JUMPI DUP1 DUP3 ADD MLOAD DUP2 DUP5 ADD MSTORE PUSH1 0x20 DUP2 ADD SWAP1 POP PUSH2 0x2C09 JUMP JUMPDEST DUP4 DUP2 GT ISZERO PUSH2 0x2C33 JUMPI PUSH1 0x0 DUP5 DUP5 ADD MSTORE JUMPDEST POP POP POP POP JUMP JUMPDEST PUSH1 0x0 PUSH1 0x2 DUP3 DIV SWAP1 POP PUSH1 0x1 DUP3 AND DUP1 PUSH2 0x2C51 JUMPI PUSH1 0x7F DUP3 AND SWAP2 POP JUMPDEST PUSH1 0x20 DUP3 LT DUP2 EQ ISZERO PUSH2 0x2C65 JUMPI PUSH2 0x2C64 PUSH2 0x2D24 JUMP JUMPDEST JUMPDEST POP SWAP2 SWAP1 POP JUMP JUMPDEST PUSH2 0x2C74 DUP3 PUSH2 0x2DC5 JUMP JUMPDEST DUP2 ADD DUP2 DUP2 LT PUSH8 0xFFFFFFFFFFFFFFFF DUP3 GT OR ISZERO PUSH2 0x2C93 JUMPI PUSH2 0x2C92 PUSH2 0x2D82 JUMP JUMPDEST JUMPDEST DUP1 PUSH1 0x40 MSTORE POP POP POP JUMP JUMPDEST PUSH1 0x0 PUSH2 0x2CA7 DUP3 PUSH2 0x2BEA JUMP JUMPDEST SWAP2 POP PUSH1 0xFF DUP3 EQ ISZERO PUSH2 0x2CBB JUMPI PUSH2 0x2CBA PUSH2 0x2CC6 JUMP JUMPDEST JUMPDEST PUSH1 0x1 DUP3 ADD SWAP1 POP SWAP2 SWAP1 POP JUMP JUMPDEST PUSH32 0x4E487B7100000000000000000000000000000000000000000000000000000000 PUSH1 0x0 MSTORE PUSH1 0x11 PUSH1 0x4 MSTORE PUSH1 0x24 PUSH1 0x0 REVERT JUMPDEST PUSH32 0x4E487B7100000000000000000000000000000000000000000000000000000000 PUSH1 0x0 MSTORE PUSH1 0x12 PUSH1 0x4 MSTORE PUSH1 0x24 PUSH1 0x0 REVERT JUMPDEST PUSH32 0x4E487B7100000000000000000000000000000000000000000000000000000000 PUSH1 0x0 MSTORE PUSH1 0x22 PUSH1 0x4 MSTORE PUSH1 0x24 PUSH1 0x0 REVERT JUMPDEST PUSH32 0x4E487B7100000000000000000000000000000000000000000000000000000000 PUSH1 0x0 MSTORE PUSH1 0x32 PUSH1 0x4 MSTORE PUSH1 0x24 PUSH1 0x0 REVERT JUMPDEST PUSH32 0x4E487B7100000000000000000000000000000000000000000000000000000000 PUSH1 0x0 MSTORE PUSH1 0x41 PUSH1 0x4 MSTORE PUSH1 0x24 PUSH1 0x0 REVERT JUMPDEST PUSH1 0x0 DUP1 REVERT JUMPDEST PUSH1 0x0 DUP1 REVERT JUMPDEST PUSH1 0x0 DUP1 REVERT JUMPDEST PUSH1 0x0 DUP1 REVERT JUMPDEST PUSH1 0x0 PUSH1 0x1F NOT PUSH1 0x1F DUP4 ADD AND SWAP1 POP SWAP2 SWAP1 POP JUMP JUMPDEST PUSH32 0x526563697069656E7420697320616C7265616479207265676973746572656400 PUSH1 0x0 DUP3 ADD MSTORE POP JUMP JUMPDEST PUSH32 0x50726F706F73616C20616C726561647920637265617465642100000000000000 PUSH1 0x0 DUP3 ADD MSTORE POP JUMP JUMPDEST PUSH32 0x596F75206172656E277420617574686F72697A6520746F20636F6D70696C6520 PUSH1 0x0 DUP3 ADD MSTORE PUSH32 0x42756E646C650000000000000000000000000000000000000000000000000000 PUSH1 0x20 DUP3 ADD MSTORE POP JUMP JUMPDEST PUSH32 0x596F7520616C72656164792073656E74206120726573706F6E73652E00000000 PUSH1 0x0 DUP3 ADD MSTORE POP JUMP JUMPDEST PUSH32 0x496E69746961746F722063616E277420766F7465210000000000000000000000 PUSH1 0x0 DUP3 ADD MSTORE POP JUMP JUMPDEST PUSH32 0x596F7520617265206E6F74207265676973746572656420746F20766F74650000 PUSH1 0x0 DUP3 ADD MSTORE POP JUMP JUMPDEST PUSH32 0x50726F706F73616C206861732072656163686564206974732065787069727920 PUSH1 0x0 DUP3 ADD MSTORE PUSH32 0x6461746500000000000000000000000000000000000000000000000000000000 PUSH1 0x20 DUP3 ADD MSTORE POP JUMP JUMPDEST PUSH32 0x4F6E6C7920696E69746961746F722063616E2072656769737465722061207265 PUSH1 0x0 DUP3 ADD MSTORE PUSH32 0x63697069656E742E000000000000000000000000000000000000000000000000 PUSH1 0x20 DUP3 ADD MSTORE POP JUMP JUMPDEST PUSH32 0x5665726469637420686173206E6F74206265656E207265616368656420796574 PUSH1 0x0 DUP3 ADD MSTORE POP JUMP JUMPDEST PUSH32 0x566F74696E672068617320657870697265640000000000000000000000000000 PUSH1 0x0 DUP3 ADD MSTORE POP JUMP JUMPDEST PUSH32 0x436F6E73656E7375732068617320616C7265616479206265656E2063616C6375 PUSH1 0x0 DUP3 ADD MSTORE PUSH32 0x6C61746564000000000000000000000000000000000000000000000000000000 PUSH1 0x20 DUP3 ADD MSTORE POP JUMP JUMPDEST PUSH2 0x303A DUP2 PUSH2 0x2B98 JUMP JUMPDEST DUP2 EQ PUSH2 0x3045 JUMPI PUSH1 0x0 DUP1 REVERT JUMPDEST POP JUMP JUMPDEST PUSH2 0x3051 DUP2 PUSH2 0x2BB6 JUMP JUMPDEST DUP2 EQ PUSH2 0x305C JUMPI PUSH1 0x0 DUP1 REVERT JUMPDEST POP JUMP JUMPDEST PUSH2 0x3068 DUP2 PUSH2 0x2BE0 JUMP JUMPDEST DUP2 EQ PUSH2 0x3073 JUMPI PUSH1 0x0 DUP1 REVERT JUMPDEST POP JUMP INVALID LOG2 PUSH5 0x6970667358 0x22 SLT KECCAK256 0xAB CALLDATALOAD 0xD1 PUSH17 0x438D8E2BFEB3513C594CEA2FE0399A7BD EXTCODECOPY RETURNDATASIZE 0xB1 DELEGATECALL CALL GT 0xFB 0x26 SWAP16 CALLER 0xF9 PUSH5 0x736F6C6343 STOP ADDMOD SMOD STOP CALLER "
				},
				"gasEstimates": {
					"creation": {
						"codeDepositCost": "2492000",
						"executionCost": "2688",
						"totalCost": "2494688"
					},
					"external": {
						"Consensus(bytes32)": "infinite",
						"IDs(bytes32)": "infinite",
						"RegisterVoter(address,bytes32)": "131656",
						"Vote(string,bytes32)": "infinite",
						"Voters(bytes32,uint256)": "infinite",
						"businessRequirements(bytes32)": "2832",
						"checkConsistency(bytes32,uint256,uint256,bytes32)": "infinite",
						"contents(bytes32)": "infinite",
						"createContract(bytes32,uint256,uint256,bytes32,bytes32,string,bytes32)": "infinite",
						"expiryDates(bytes32)": "2810",
						"expiryLengths(bytes32)": "2789",
						"finalVerdicts(bytes32)": "2886",
						"getIsCompiled(bytes32)": "2845",
						"getIsCreated(bytes32)": "infinite",
						"initiators(bytes32)": "2861",
						"isCompiled(bytes32)": "2819",
						"keys(bytes32,uint256)": "5309",
						"messageDates(bytes32)": "infinite",
						"numApprovals(bytes32)": "2853",
						"retrieve_bundle(bytes32)": "infinite",
						"subjects(bytes32)": "infinite",
						"voteCounts(bytes32)": "2898",
						"voter_maps(bytes32,address)": "infinite"
					}
				},
				"methodIdentifiers": {
					"Consensus(bytes32)": "7d6c570a",
					"IDs(bytes32)": "e5d009bf",
					"RegisterVoter(address,bytes32)": "d468f983",
					"Vote(string,bytes32)": "8acc0d10",
					"Voters(bytes32,uint256)": "4fd3b445",
					"businessRequirements(bytes32)": "7a099c6a",
					"checkConsistency(bytes32,uint256,uint256,bytes32)": "33dfd126",
					"contents(bytes32)": "f20ca12c",
					"createContract(bytes32,uint256,uint256,bytes32,bytes32,string,bytes32)": "d5aabbd1",
					"expiryDates(bytes32)": "56c583d8",
					"expiryLengths(bytes32)": "13191ade",
					"finalVerdicts(bytes32)": "38c20a9e",
					"getIsCompiled(bytes32)": "5273bc48",
					"getIsCreated(bytes32)": "97299e99",
					"initiators(bytes32)": "d443560a",
					"isCompiled(bytes32)": "823a6366",
					"keys(bytes32,uint256)": "7ff4c389",
					"messageDates(bytes32)": "a4a8f426",
					"numApprovals(bytes32)": "e463eaee",
					"retrieve_bundle(bytes32)": "27f0ae92",
					"subjects(bytes32)": "a0d859a3",
					"voteCounts(bytes32)": "81d0e37b",
					"voter_maps(bytes32,address)": "a784ef74"
				}
			},
			"storageLayout": {
				"storage": [
					{
						"astId": 12,
						"contract": "contracts/BusinessConsensus4.sol:BusinessConsensus4",
						"label": "initiators",
						"offset": 0,
						"slot": "0",
						"type": "t_mapping(t_bytes32,t_address)"
					},
					{
						"astId": 16,
						"contract": "contracts/BusinessConsensus4.sol:BusinessConsensus4",
						"label": "IDs",
						"offset": 0,
						"slot": "1",
						"type": "t_mapping(t_bytes32,t_bytes32)"
					},
					{
						"astId": 20,
						"contract": "contracts/BusinessConsensus4.sol:BusinessConsensus4",
						"label": "voteCounts",
						"offset": 0,
						"slot": "2",
						"type": "t_mapping(t_bytes32,t_uint256)"
					},
					{
						"astId": 24,
						"contract": "contracts/BusinessConsensus4.sol:BusinessConsensus4",
						"label": "expiryLengths",
						"offset": 0,
						"slot": "3",
						"type": "t_mapping(t_bytes32,t_uint256)"
					},
					{
						"astId": 28,
						"contract": "contracts/BusinessConsensus4.sol:BusinessConsensus4",
						"label": "expiryDates",
						"offset": 0,
						"slot": "4",
						"type": "t_mapping(t_bytes32,t_uint256)"
					},
					{
						"astId": 32,
						"contract": "contracts/BusinessConsensus4.sol:BusinessConsensus4",
						"label": "contents",
						"offset": 0,
						"slot": "5",
						"type": "t_mapping(t_bytes32,t_bytes32)"
					},
					{
						"astId": 36,
						"contract": "contracts/BusinessConsensus4.sol:BusinessConsensus4",
						"label": "numApprovals",
						"offset": 0,
						"slot": "6",
						"type": "t_mapping(t_bytes32,t_uint256)"
					},
					{
						"astId": 40,
						"contract": "contracts/BusinessConsensus4.sol:BusinessConsensus4",
						"label": "businessRequirements",
						"offset": 0,
						"slot": "7",
						"type": "t_mapping(t_bytes32,t_uint256)"
					},
					{
						"astId": 44,
						"contract": "contracts/BusinessConsensus4.sol:BusinessConsensus4",
						"label": "messageDates",
						"offset": 0,
						"slot": "8",
						"type": "t_mapping(t_bytes32,t_string_storage)"
					},
					{
						"astId": 48,
						"contract": "contracts/BusinessConsensus4.sol:BusinessConsensus4",
						"label": "finalVerdicts",
						"offset": 0,
						"slot": "9",
						"type": "t_mapping(t_bytes32,t_bool)"
					},
					{
						"astId": 52,
						"contract": "contracts/BusinessConsensus4.sol:BusinessConsensus4",
						"label": "isCompiled",
						"offset": 0,
						"slot": "10",
						"type": "t_mapping(t_bytes32,t_bool)"
					},
					{
						"astId": 56,
						"contract": "contracts/BusinessConsensus4.sol:BusinessConsensus4",
						"label": "subjects",
						"offset": 0,
						"slot": "11",
						"type": "t_mapping(t_bytes32,t_bytes32)"
					},
					{
						"astId": 63,
						"contract": "contracts/BusinessConsensus4.sol:BusinessConsensus4",
						"label": "voter_maps",
						"offset": 0,
						"slot": "12",
						"type": "t_mapping(t_bytes32,t_mapping(t_address,t_struct(Voter)8_storage))"
					},
					{
						"astId": 69,
						"contract": "contracts/BusinessConsensus4.sol:BusinessConsensus4",
						"label": "Voters",
						"offset": 0,
						"slot": "13",
						"type": "t_mapping(t_bytes32,t_array(t_struct(Voter)8_storage)dyn_storage)"
					},
					{
						"astId": 74,
						"contract": "contracts/BusinessConsensus4.sol:BusinessConsensus4",
						"label": "keys",
						"offset": 0,
						"slot": "14",
						"type": "t_mapping(t_bytes32,t_array(t_address)dyn_storage)"
					}
				],
				"types": {
					"t_address": {
						"encoding": "inplace",
						"label": "address",
						"numberOfBytes": "20"
					},
					"t_array(t_address)dyn_storage": {
						"base": "t_address",
						"encoding": "dynamic_array",
						"label": "address[]",
						"numberOfBytes": "32"
					},
					"t_array(t_struct(Voter)8_storage)dyn_storage": {
						"base": "t_struct(Voter)8_storage",
						"encoding": "dynamic_array",
						"label": "struct BusinessConsensus4.Voter[]",
						"numberOfBytes": "32"
					},
					"t_bool": {
						"encoding": "inplace",
						"label": "bool",
						"numberOfBytes": "1"
					},
					"t_bytes32": {
						"encoding": "inplace",
						"label": "bytes32",
						"numberOfBytes": "32"
					},
					"t_mapping(t_address,t_struct(Voter)8_storage)": {
						"encoding": "mapping",
						"key": "t_address",
						"label": "mapping(address => struct BusinessConsensus4.Voter)",
						"numberOfBytes": "32",
						"value": "t_struct(Voter)8_storage"
					},
					"t_mapping(t_bytes32,t_address)": {
						"encoding": "mapping",
						"key": "t_bytes32",
						"label": "mapping(bytes32 => address)",
						"numberOfBytes": "32",
						"value": "t_address"
					},
					"t_mapping(t_bytes32,t_array(t_address)dyn_storage)": {
						"encoding": "mapping",
						"key": "t_bytes32",
						"label": "mapping(bytes32 => address[])",
						"numberOfBytes": "32",
						"value": "t_array(t_address)dyn_storage"
					},
					"t_mapping(t_bytes32,t_array(t_struct(Voter)8_storage)dyn_storage)": {
						"encoding": "mapping",
						"key": "t_bytes32",
						"label": "mapping(bytes32 => struct BusinessConsensus4.Voter[])",
						"numberOfBytes": "32",
						"value": "t_array(t_struct(Voter)8_storage)dyn_storage"
					},
					"t_mapping(t_bytes32,t_bool)": {
						"encoding": "mapping",
						"key": "t_bytes32",
						"label": "mapping(bytes32 => bool)",
						"numberOfBytes": "32",
						"value": "t_bool"
					},
					"t_mapping(t_bytes32,t_bytes32)": {
						"encoding": "mapping",
						"key": "t_bytes32",
						"label": "mapping(bytes32 => bytes32)",
						"numberOfBytes": "32",
						"value": "t_bytes32"
					},
					"t_mapping(t_bytes32,t_mapping(t_address,t_struct(Voter)8_storage))": {
						"encoding": "mapping",
						"key": "t_bytes32",
						"label": "mapping(bytes32 => mapping(address => struct BusinessConsensus4.Voter))",
						"numberOfBytes": "32",
						"value": "t_mapping(t_address,t_struct(Voter)8_storage)"
					},
					"t_mapping(t_bytes32,t_string_storage)": {
						"encoding": "mapping",
						"key": "t_bytes32",
						"label": "mapping(bytes32 => string)",
						"numberOfBytes": "32",
						"value": "t_string_storage"
					},
					"t_mapping(t_bytes32,t_uint256)": {
						"encoding": "mapping",
						"key": "t_bytes32",
						"label": "mapping(bytes32 => uint256)",
						"numberOfBytes": "32",
						"value": "t_uint256"
					},
					"t_string_storage": {
						"encoding": "bytes",
						"label": "string",
						"numberOfBytes": "32"
					},
					"t_struct(Voter)8_storage": {
						"encoding": "inplace",
						"label": "struct BusinessConsensus4.Voter",
						"members": [
							{
								"astId": 3,
								"contract": "contracts/BusinessConsensus4.sol:BusinessConsensus4",
								"label": "voted",
								"offset": 0,
								"slot": "0",
								"type": "t_bool"
							},
							{
								"astId": 5,
								"contract": "contracts/BusinessConsensus4.sol:BusinessConsensus4",
								"label": "vote",
								"offset": 1,
								"slot": "0",
								"type": "t_bool"
							},
							{
								"astId": 7,
								"contract": "contracts/BusinessConsensus4.sol:BusinessConsensus4",
								"label": "recipient",
								"offset": 2,
								"slot": "0",
								"type": "t_address"
							}
						],
						"numberOfBytes": "32"
					},
					"t_uint256": {
						"encoding": "inplace",
						"label": "uint256",
						"numberOfBytes": "32"
					}
				}
			},
			"userdoc": {
				"kind": "user",
				"methods": {
					"Consensus(bytes32)": {
						"notice": "compile all relevant information into a Bundle"
					}
				},
				"version": 1
			}
		}
	}
}