{
	"contracts/BusinessConsensus3.sol": {
		"BusinessConsensus3": {
			"abi": [
				{
					"inputs": [
						{
							"internalType": "bytes32",
							"name": "_messageID",
							"type": "bytes32"
						}
					],
					"name": "Consensus",
					"outputs": [],
					"stateMutability": "nonpayable",
					"type": "function"
				},
				{
					"inputs": [
						{
							"internalType": "bytes32",
							"name": "",
							"type": "bytes32"
						}
					],
					"name": "IDs",
					"outputs": [
						{
							"internalType": "bytes32",
							"name": "",
							"type": "bytes32"
						}
					],
					"stateMutability": "view",
					"type": "function"
				},
				{
					"inputs": [
						{
							"internalType": "address",
							"name": "voter",
							"type": "address"
						},
						{
							"internalType": "bytes32",
							"name": "_messageID",
							"type": "bytes32"
						}
					],
					"name": "RegisterVoter",
					"outputs": [],
					"stateMutability": "nonpayable",
					"type": "function"
				},
				{
					"inputs": [
						{
							"internalType": "string",
							"name": "response",
							"type": "string"
						},
						{
							"internalType": "bytes32",
							"name": "_messageID",
							"type": "bytes32"
						}
					],
					"name": "Vote",
					"outputs": [],
					"stateMutability": "nonpayable",
					"type": "function"
				},
				{
					"inputs": [
						{
							"internalType": "bytes32",
							"name": "",
							"type": "bytes32"
						},
						{
							"internalType": "uint256",
							"name": "",
							"type": "uint256"
						}
					],
					"name": "Voters",
					"outputs": [
						{
							"internalType": "bool",
							"name": "voted",
							"type": "bool"
						},
						{
							"internalType": "bool",
							"name": "vote",
							"type": "bool"
						},
						{
							"internalType": "address",
							"name": "recipient",
							"type": "address"
						}
					],
					"stateMutability": "view",
					"type": "function"
				},
				{
					"inputs": [
						{
							"internalType": "bytes32",
							"name": "",
							"type": "bytes32"
						}
					],
					"name": "businessProposals",
					"outputs": [
						{
							"internalType": "uint256",
							"name": "voteCount",
							"type": "uint256"
						},
						{
							"internalType": "uint256",
							"name": "expiryDate",
							"type": "uint256"
						},
						{
							"internalType": "uint256",
							"name": "BusinessRequirement",
							"type": "uint256"
						}
					],
					"stateMutability": "view",
					"type": "function"
				},
				{
					"inputs": [
						{
							"internalType": "bytes32",
							"name": "_subject",
							"type": "bytes32"
						},
						{
							"internalType": "uint256",
							"name": "_businessRequirement",
							"type": "uint256"
						},
						{
							"internalType": "uint256",
							"name": "_expiryLength",
							"type": "uint256"
						},
						{
							"internalType": "bytes32",
							"name": "_contents",
							"type": "bytes32"
						}
					],
					"name": "checkConsistency",
					"outputs": [
						{
							"internalType": "bool",
							"name": "",
							"type": "bool"
						},
						{
							"internalType": "bool",
							"name": "",
							"type": "bool"
						},
						{
							"internalType": "bool",
							"name": "",
							"type": "bool"
						}
					],
					"stateMutability": "view",
					"type": "function"
				},
				{
					"inputs": [
						{
							"internalType": "bytes32",
							"name": "",
							"type": "bytes32"
						}
					],
					"name": "contents",
					"outputs": [
						{
							"internalType": "bytes32",
							"name": "",
							"type": "bytes32"
						}
					],
					"stateMutability": "view",
					"type": "function"
				},
				{
					"inputs": [
						{
							"internalType": "bytes32",
							"name": "_messageID",
							"type": "bytes32"
						},
						{
							"internalType": "uint256",
							"name": "expiry",
							"type": "uint256"
						},
						{
							"internalType": "uint256",
							"name": "requiredPercentage",
							"type": "uint256"
						},
						{
							"internalType": "bytes32",
							"name": "_contents",
							"type": "bytes32"
						},
						{
							"internalType": "bytes32",
							"name": "subject",
							"type": "bytes32"
						},
						{
							"internalType": "string",
							"name": "_messageDate",
							"type": "string"
						}
					],
					"name": "createContract",
					"outputs": [],
					"stateMutability": "nonpayable",
					"type": "function"
				},
				{
					"inputs": [
						{
							"internalType": "bytes32",
							"name": "",
							"type": "bytes32"
						}
					],
					"name": "expiryLengths",
					"outputs": [
						{
							"internalType": "uint256",
							"name": "",
							"type": "uint256"
						}
					],
					"stateMutability": "view",
					"type": "function"
				},
				{
					"inputs": [
						{
							"internalType": "bytes32",
							"name": "",
							"type": "bytes32"
						}
					],
					"name": "finalVerdicts",
					"outputs": [
						{
							"internalType": "bool",
							"name": "",
							"type": "bool"
						}
					],
					"stateMutability": "view",
					"type": "function"
				},
				{
					"inputs": [
						{
							"internalType": "bytes32",
							"name": "_messageID",
							"type": "bytes32"
						}
					],
					"name": "getIsCompiled",
					"outputs": [
						{
							"internalType": "bool",
							"name": "",
							"type": "bool"
						}
					],
					"stateMutability": "view",
					"type": "function"
				},
				{
					"inputs": [
						{
							"internalType": "bytes32",
							"name": "subject",
							"type": "bytes32"
						}
					],
					"name": "getIsCreated",
					"outputs": [
						{
							"internalType": "bytes32",
							"name": "",
							"type": "bytes32"
						},
						{
							"internalType": "string",
							"name": "",
							"type": "string"
						}
					],
					"stateMutability": "view",
					"type": "function"
				},
				{
					"inputs": [
						{
							"internalType": "bytes32",
							"name": "",
							"type": "bytes32"
						}
					],
					"name": "initiators",
					"outputs": [
						{
							"internalType": "address",
							"name": "",
							"type": "address"
						}
					],
					"stateMutability": "view",
					"type": "function"
				},
				{
					"inputs": [
						{
							"internalType": "bytes32",
							"name": "",
							"type": "bytes32"
						}
					],
					"name": "isCompiled",
					"outputs": [
						{
							"internalType": "bool",
							"name": "",
							"type": "bool"
						}
					],
					"stateMutability": "view",
					"type": "function"
				},
				{
					"inputs": [
						{
							"internalType": "bytes32",
							"name": "",
							"type": "bytes32"
						},
						{
							"internalType": "uint256",
							"name": "",
							"type": "uint256"
						}
					],
					"name": "keys",
					"outputs": [
						{
							"internalType": "address",
							"name": "",
							"type": "address"
						}
					],
					"stateMutability": "view",
					"type": "function"
				},
				{
					"inputs": [
						{
							"internalType": "bytes32",
							"name": "",
							"type": "bytes32"
						}
					],
					"name": "messageDates",
					"outputs": [
						{
							"internalType": "string",
							"name": "",
							"type": "string"
						}
					],
					"stateMutability": "view",
					"type": "function"
				},
				{
					"inputs": [
						{
							"internalType": "bytes32",
							"name": "",
							"type": "bytes32"
						}
					],
					"name": "numApprovals",
					"outputs": [
						{
							"internalType": "uint256",
							"name": "",
							"type": "uint256"
						}
					],
					"stateMutability": "view",
					"type": "function"
				},
				{
					"inputs": [
						{
							"internalType": "bytes32",
							"name": "_messageID",
							"type": "bytes32"
						}
					],
					"name": "retrieve_bundle",
					"outputs": [
						{
							"internalType": "bool",
							"name": "",
							"type": "bool"
						},
						{
							"internalType": "bytes32",
							"name": "",
							"type": "bytes32"
						},
						{
							"internalType": "uint256",
							"name": "",
							"type": "uint256"
						},
						{
							"components": [
								{
									"internalType": "bool",
									"name": "voted",
									"type": "bool"
								},
								{
									"internalType": "bool",
									"name": "vote",
									"type": "bool"
								},
								{
									"internalType": "address",
									"name": "recipient",
									"type": "address"
								}
							],
							"internalType": "struct BusinessConsensus3.Voter[]",
							"name": "",
							"type": "tuple[]"
						}
					],
					"stateMutability": "view",
					"type": "function"
				},
				{
					"inputs": [
						{
							"internalType": "bytes32",
							"name": "",
							"type": "bytes32"
						}
					],
					"name": "subjects",
					"outputs": [
						{
							"internalType": "bytes32",
							"name": "",
							"type": "bytes32"
						}
					],
					"stateMutability": "view",
					"type": "function"
				},
				{
					"inputs": [
						{
							"internalType": "bytes32",
							"name": "",
							"type": "bytes32"
						},
						{
							"internalType": "address",
							"name": "",
							"type": "address"
						}
					],
					"name": "voter_maps",
					"outputs": [
						{
							"internalType": "bool",
							"name": "voted",
							"type": "bool"
						},
						{
							"internalType": "bool",
							"name": "vote",
							"type": "bool"
						},
						{
							"internalType": "address",
							"name": "recipient",
							"type": "address"
						}
					],
					"stateMutability": "view",
					"type": "function"
				}
			],
			"devdoc": {
				"kind": "dev",
				"methods": {},
				"version": 1
			},
			"evm": {
				"assembly": "    /* \"contracts/BusinessConsensus3.sol\":33:7411  contract BusinessConsensus3{\r... */\n  mstore(0x40, 0x80)\n  callvalue\n  dup1\n  iszero\n  tag_1\n  jumpi\n  0x00\n  dup1\n  revert\ntag_1:\n  pop\n  dataSize(sub_0)\n  dup1\n  dataOffset(sub_0)\n  0x00\n  codecopy\n  0x00\n  return\nstop\n\nsub_0: assembly {\n        /* \"contracts/BusinessConsensus3.sol\":33:7411  contract BusinessConsensus3{\r... */\n      mstore(0x40, 0x80)\n      callvalue\n      dup1\n      iszero\n      tag_1\n      jumpi\n      0x00\n      dup1\n      revert\n    tag_1:\n      pop\n      jumpi(tag_2, lt(calldatasize, 0x04))\n      shr(0xe0, calldataload(0x00))\n      dup1\n      0x8acc0d10\n      gt\n      tag_24\n      jumpi\n      dup1\n      0xa784ef74\n      gt\n      tag_25\n      jumpi\n      dup1\n      0xa784ef74\n      eq\n      tag_18\n      jumpi\n      dup1\n      0xd443560a\n      eq\n      tag_19\n      jumpi\n      dup1\n      0xd468f983\n      eq\n      tag_20\n      jumpi\n      dup1\n      0xe463eaee\n      eq\n      tag_21\n      jumpi\n      dup1\n      0xe5d009bf\n      eq\n      tag_22\n      jumpi\n      dup1\n      0xf20ca12c\n      eq\n      tag_23\n      jumpi\n      jump(tag_2)\n    tag_25:\n      dup1\n      0x8acc0d10\n      eq\n      tag_13\n      jumpi\n      dup1\n      0x8b0e8a2a\n      eq\n      tag_14\n      jumpi\n      dup1\n      0x97299e99\n      eq\n      tag_15\n      jumpi\n      dup1\n      0xa0d859a3\n      eq\n      tag_16\n      jumpi\n      dup1\n      0xa4a8f426\n      eq\n      tag_17\n      jumpi\n      jump(tag_2)\n    tag_24:\n      dup1\n      0x4fd3b445\n      gt\n      tag_26\n      jumpi\n      dup1\n      0x4fd3b445\n      eq\n      tag_8\n      jumpi\n      dup1\n      0x5273bc48\n      eq\n      tag_9\n      jumpi\n      dup1\n      0x7d6c570a\n      eq\n      tag_10\n      jumpi\n      dup1\n      0x7ff4c389\n      eq\n      tag_11\n      jumpi\n      dup1\n      0x823a6366\n      eq\n      tag_12\n      jumpi\n      jump(tag_2)\n    tag_26:\n      dup1\n      0x13191ade\n      eq\n      tag_3\n      jumpi\n      dup1\n      0x27f0ae92\n      eq\n      tag_4\n      jumpi\n      dup1\n      0x33dfd126\n      eq\n      tag_5\n      jumpi\n      dup1\n      0x38232742\n      eq\n      tag_6\n      jumpi\n      dup1\n      0x38c20a9e\n      eq\n      tag_7\n      jumpi\n    tag_2:\n      0x00\n      dup1\n      revert\n        /* \"contracts/BusinessConsensus3.sol\":780:828  mapping(bytes32 => uint256) public expiryLengths */\n    tag_3:\n      tag_27\n      0x04\n      dup1\n      calldatasize\n      sub\n      dup2\n      add\n      swap1\n      tag_28\n      swap2\n      swap1\n      tag_29\n      jump\t// in\n    tag_28:\n      tag_30\n      jump\t// in\n    tag_27:\n      mload(0x40)\n      tag_31\n      swap2\n      swap1\n      tag_32\n      jump\t// in\n    tag_31:\n      mload(0x40)\n      dup1\n      swap2\n      sub\n      swap1\n      return\n        /* \"contracts/BusinessConsensus3.sol\":6945:7406  function retrieve_bundle(bytes32 _messageID) external view returns (bool, bytes32, uint256, Voter[] memory){\r... */\n    tag_4:\n      tag_33\n      0x04\n      dup1\n      calldatasize\n      sub\n      dup2\n      add\n      swap1\n      tag_34\n      swap2\n      swap1\n      tag_29\n      jump\t// in\n    tag_34:\n      tag_35\n      jump\t// in\n    tag_33:\n      mload(0x40)\n      tag_36\n      swap5\n      swap4\n      swap3\n      swap2\n      swap1\n      tag_37\n      jump\t// in\n    tag_36:\n      mload(0x40)\n      dup1\n      swap2\n      sub\n      swap1\n      return\n        /* \"contracts/BusinessConsensus3.sol\":2697:3532  function checkConsistency(bytes32 _subject, uint256 _businessRequirement, uint256 _expiryLength, bytes32 _contents) public view returns(bool, bool, bool){\r... */\n    tag_5:\n      tag_38\n      0x04\n      dup1\n      calldatasize\n      sub\n      dup2\n      add\n      swap1\n      tag_39\n      swap2\n      swap1\n      tag_40\n      jump\t// in\n    tag_39:\n      tag_41\n      jump\t// in\n    tag_38:\n      mload(0x40)\n      tag_42\n      swap4\n      swap3\n      swap2\n      swap1\n      tag_43\n      jump\t// in\n    tag_42:\n      mload(0x40)\n      dup1\n      swap2\n      sub\n      swap1\n      return\n        /* \"contracts/BusinessConsensus3.sol\":628:679  mapping(bytes32=>Proposal) public businessProposals */\n    tag_6:\n      tag_44\n      0x04\n      dup1\n      calldatasize\n      sub\n      dup2\n      add\n      swap1\n      tag_45\n      swap2\n      swap1\n      tag_29\n      jump\t// in\n    tag_45:\n      tag_46\n      jump\t// in\n    tag_44:\n      mload(0x40)\n      tag_47\n      swap4\n      swap3\n      swap2\n      swap1\n      tag_48\n      jump\t// in\n    tag_47:\n      mload(0x40)\n      dup1\n      swap2\n      sub\n      swap1\n      return\n        /* \"contracts/BusinessConsensus3.sol\":992:1037  mapping(bytes32 => bool) public finalVerdicts */\n    tag_7:\n      tag_49\n      0x04\n      dup1\n      calldatasize\n      sub\n      dup2\n      add\n      swap1\n      tag_50\n      swap2\n      swap1\n      tag_29\n      jump\t// in\n    tag_50:\n      tag_51\n      jump\t// in\n    tag_49:\n      mload(0x40)\n      tag_52\n      swap2\n      swap1\n      tag_53\n      jump\t// in\n    tag_52:\n      mload(0x40)\n      dup1\n      swap2\n      sub\n      swap1\n      return\n        /* \"contracts/BusinessConsensus3.sol\":1209:1248  mapping(bytes32=>Voter[]) public Voters */\n    tag_8:\n      tag_54\n      0x04\n      dup1\n      calldatasize\n      sub\n      dup2\n      add\n      swap1\n      tag_55\n      swap2\n      swap1\n      tag_56\n      jump\t// in\n    tag_55:\n      tag_57\n      jump\t// in\n    tag_54:\n      mload(0x40)\n      tag_58\n      swap4\n      swap3\n      swap2\n      swap1\n      tag_59\n      jump\t// in\n    tag_58:\n      mload(0x40)\n      dup1\n      swap2\n      sub\n      swap1\n      return\n        /* \"contracts/BusinessConsensus3.sol\":2574:2691  function getIsCompiled(bytes32 _messageID) public view returns (bool){\r... */\n    tag_9:\n      tag_60\n      0x04\n      dup1\n      calldatasize\n      sub\n      dup2\n      add\n      swap1\n      tag_61\n      swap2\n      swap1\n      tag_29\n      jump\t// in\n    tag_61:\n      tag_62\n      jump\t// in\n    tag_60:\n      mload(0x40)\n      tag_63\n      swap2\n      swap1\n      tag_53\n      jump\t// in\n    tag_63:\n      mload(0x40)\n      dup1\n      swap2\n      sub\n      swap1\n      return\n        /* \"contracts/BusinessConsensus3.sol\":5980:6937  function Consensus(bytes32 _messageID) external {\r... */\n    tag_10:\n      tag_64\n      0x04\n      dup1\n      calldatasize\n      sub\n      dup2\n      add\n      swap1\n      tag_65\n      swap2\n      swap1\n      tag_29\n      jump\t// in\n    tag_65:\n      tag_66\n      jump\t// in\n    tag_64:\n      stop\n        /* \"contracts/BusinessConsensus3.sol\":1255:1294  mapping(bytes32=>address[]) public keys */\n    tag_11:\n      tag_67\n      0x04\n      dup1\n      calldatasize\n      sub\n      dup2\n      add\n      swap1\n      tag_68\n      swap2\n      swap1\n      tag_56\n      jump\t// in\n    tag_68:\n      tag_69\n      jump\t// in\n    tag_67:\n      mload(0x40)\n      tag_70\n      swap2\n      swap1\n      tag_71\n      jump\t// in\n    tag_70:\n      mload(0x40)\n      dup1\n      swap2\n      sub\n      swap1\n      return\n        /* \"contracts/BusinessConsensus3.sol\":1044:1086  mapping(bytes32 => bool) public isCompiled */\n    tag_12:\n      tag_72\n      0x04\n      dup1\n      calldatasize\n      sub\n      dup2\n      add\n      swap1\n      tag_73\n      swap2\n      swap1\n      tag_29\n      jump\t// in\n    tag_73:\n      tag_74\n      jump\t// in\n    tag_72:\n      mload(0x40)\n      tag_75\n      swap2\n      swap1\n      tag_53\n      jump\t// in\n    tag_75:\n      mload(0x40)\n      dup1\n      swap2\n      sub\n      swap1\n      return\n        /* \"contracts/BusinessConsensus3.sol\":4551:5916  function Vote(string memory response,bytes32 _messageID) external {\r... */\n    tag_13:\n      tag_76\n      0x04\n      dup1\n      calldatasize\n      sub\n      dup2\n      add\n      swap1\n      tag_77\n      swap2\n      swap1\n      tag_78\n      jump\t// in\n    tag_77:\n      tag_79\n      jump\t// in\n    tag_76:\n      stop\n        /* \"contracts/BusinessConsensus3.sol\":1307:2568  function createContract(bytes32 _messageID, uint256 expiry, uint256 requiredPercentage,bytes32 _contents,bytes32 subject,string memory _messageDate) external{\r... */\n    tag_14:\n      tag_80\n      0x04\n      dup1\n      calldatasize\n      sub\n      dup2\n      add\n      swap1\n      tag_81\n      swap2\n      swap1\n      tag_82\n      jump\t// in\n    tag_81:\n      tag_83\n      jump\t// in\n    tag_80:\n      stop\n        /* \"contracts/BusinessConsensus3.sol\":3538:3682  function getIsCreated(bytes32 subject) public view returns (bytes32,string memory){\r... */\n    tag_15:\n      tag_84\n      0x04\n      dup1\n      calldatasize\n      sub\n      dup2\n      add\n      swap1\n      tag_85\n      swap2\n      swap1\n      tag_29\n      jump\t// in\n    tag_85:\n      tag_86\n      jump\t// in\n    tag_84:\n      mload(0x40)\n      tag_87\n      swap3\n      swap2\n      swap1\n      tag_88\n      jump\t// in\n    tag_87:\n      mload(0x40)\n      dup1\n      swap2\n      sub\n      swap1\n      return\n        /* \"contracts/BusinessConsensus3.sol\":1093:1136  mapping(bytes32 => bytes32) public subjects */\n    tag_16:\n      tag_89\n      0x04\n      dup1\n      calldatasize\n      sub\n      dup2\n      add\n      swap1\n      tag_90\n      swap2\n      swap1\n      tag_29\n      jump\t// in\n    tag_90:\n      tag_91\n      jump\t// in\n    tag_89:\n      mload(0x40)\n      tag_92\n      swap2\n      swap1\n      tag_93\n      jump\t// in\n    tag_92:\n      mload(0x40)\n      dup1\n      swap2\n      sub\n      swap1\n      return\n        /* \"contracts/BusinessConsensus3.sol\":939:985  mapping(bytes32 => string) public messageDates */\n    tag_17:\n      tag_94\n      0x04\n      dup1\n      calldatasize\n      sub\n      dup2\n      add\n      swap1\n      tag_95\n      swap2\n      swap1\n      tag_29\n      jump\t// in\n    tag_95:\n      tag_96\n      jump\t// in\n    tag_94:\n      mload(0x40)\n      tag_97\n      swap2\n      swap1\n      tag_98\n      jump\t// in\n    tag_97:\n      mload(0x40)\n      dup1\n      swap2\n      sub\n      swap1\n      return\n        /* \"contracts/BusinessConsensus3.sol\":1143:1202  mapping(bytes32=>mapping(address=>Voter)) public voter_maps */\n    tag_18:\n      tag_99\n      0x04\n      dup1\n      calldatasize\n      sub\n      dup2\n      add\n      swap1\n      tag_100\n      swap2\n      swap1\n      tag_101\n      jump\t// in\n    tag_100:\n      tag_102\n      jump\t// in\n    tag_99:\n      mload(0x40)\n      tag_103\n      swap4\n      swap3\n      swap2\n      swap1\n      tag_59\n      jump\t// in\n    tag_103:\n      mload(0x40)\n      dup1\n      swap2\n      sub\n      swap1\n      return\n        /* \"contracts/BusinessConsensus3.sol\":686:729  mapping(bytes32=>address) public initiators */\n    tag_19:\n      tag_104\n      0x04\n      dup1\n      calldatasize\n      sub\n      dup2\n      add\n      swap1\n      tag_105\n      swap2\n      swap1\n      tag_29\n      jump\t// in\n    tag_105:\n      tag_106\n      jump\t// in\n    tag_104:\n      mload(0x40)\n      tag_107\n      swap2\n      swap1\n      tag_71\n      jump\t// in\n    tag_107:\n      mload(0x40)\n      dup1\n      swap2\n      sub\n      swap1\n      return\n        /* \"contracts/BusinessConsensus3.sol\":3788:4543  function RegisterVoter(address voter,bytes32 _messageID) external {\r... */\n    tag_20:\n      tag_108\n      0x04\n      dup1\n      calldatasize\n      sub\n      dup2\n      add\n      swap1\n      tag_109\n      swap2\n      swap1\n      tag_110\n      jump\t// in\n    tag_109:\n      tag_111\n      jump\t// in\n    tag_108:\n      stop\n        /* \"contracts/BusinessConsensus3.sol\":885:932  mapping(bytes32 => uint256) public numApprovals */\n    tag_21:\n      tag_112\n      0x04\n      dup1\n      calldatasize\n      sub\n      dup2\n      add\n      swap1\n      tag_113\n      swap2\n      swap1\n      tag_29\n      jump\t// in\n    tag_113:\n      tag_114\n      jump\t// in\n    tag_112:\n      mload(0x40)\n      tag_115\n      swap2\n      swap1\n      tag_32\n      jump\t// in\n    tag_115:\n      mload(0x40)\n      dup1\n      swap2\n      sub\n      swap1\n      return\n        /* \"contracts/BusinessConsensus3.sol\":736:773  mapping(bytes32 =>bytes32) public IDs */\n    tag_22:\n      tag_116\n      0x04\n      dup1\n      calldatasize\n      sub\n      dup2\n      add\n      swap1\n      tag_117\n      swap2\n      swap1\n      tag_29\n      jump\t// in\n    tag_117:\n      tag_118\n      jump\t// in\n    tag_116:\n      mload(0x40)\n      tag_119\n      swap2\n      swap1\n      tag_93\n      jump\t// in\n    tag_119:\n      mload(0x40)\n      dup1\n      swap2\n      sub\n      swap1\n      return\n        /* \"contracts/BusinessConsensus3.sol\":835:878  mapping(bytes32 => bytes32) public contents */\n    tag_23:\n      tag_120\n      0x04\n      dup1\n      calldatasize\n      sub\n      dup2\n      add\n      swap1\n      tag_121\n      swap2\n      swap1\n      tag_29\n      jump\t// in\n    tag_121:\n      tag_122\n      jump\t// in\n    tag_120:\n      mload(0x40)\n      tag_123\n      swap2\n      swap1\n      tag_93\n      jump\t// in\n    tag_123:\n      mload(0x40)\n      dup1\n      swap2\n      sub\n      swap1\n      return\n        /* \"contracts/BusinessConsensus3.sol\":780:828  mapping(bytes32 => uint256) public expiryLengths */\n    tag_30:\n      mstore(0x20, 0x03)\n      dup1\n      0x00\n      mstore\n      keccak256(0x00, 0x40)\n      0x00\n      swap2\n      pop\n      swap1\n      pop\n      sload\n      dup2\n      jump\t// out\n        /* \"contracts/BusinessConsensus3.sol\":6945:7406  function retrieve_bundle(bytes32 _messageID) external view returns (bool, bytes32, uint256, Voter[] memory){\r... */\n    tag_35:\n        /* \"contracts/BusinessConsensus3.sol\":7013:7017  bool */\n      0x00\n        /* \"contracts/BusinessConsensus3.sol\":7019:7026  bytes32 */\n      dup1\n        /* \"contracts/BusinessConsensus3.sol\":7028:7035  uint256 */\n      0x00\n        /* \"contracts/BusinessConsensus3.sol\":7037:7051  Voter[] memory */\n      0x60\n        /* \"contracts/BusinessConsensus3.sol\":7090:7107  businessProposals */\n      0x00\n        /* \"contracts/BusinessConsensus3.sol\":7090:7119  businessProposals[_messageID] */\n      dup1\n        /* \"contracts/BusinessConsensus3.sol\":7108:7118  _messageID */\n      dup7\n        /* \"contracts/BusinessConsensus3.sol\":7090:7119  businessProposals[_messageID] */\n      dup2\n      mstore\n      0x20\n      add\n      swap1\n      dup2\n      mstore\n      0x20\n      add\n      0x00\n      keccak256\n        /* \"contracts/BusinessConsensus3.sol\":7090:7130  businessProposals[_messageID].expiryDate */\n      0x01\n      add\n      sload\n        /* \"contracts/BusinessConsensus3.sol\":7071:7086  block.timestamp */\n      timestamp\n        /* \"contracts/BusinessConsensus3.sol\":7071:7130  block.timestamp >= businessProposals[_messageID].expiryDate */\n      lt\n      iszero\n        /* \"contracts/BusinessConsensus3.sol\":7063:7167  require(block.timestamp >= businessProposals[_messageID].expiryDate, \"Verdict has not been reached yet\") */\n      tag_125\n      jumpi\n      mload(0x40)\n      0x08c379a000000000000000000000000000000000000000000000000000000000\n      dup2\n      mstore\n      0x04\n      add\n      tag_126\n      swap1\n      tag_127\n      jump\t// in\n    tag_126:\n      mload(0x40)\n      dup1\n      swap2\n      sub\n      swap1\n      revert\n    tag_125:\n        /* \"contracts/BusinessConsensus3.sol\":7178:7199  Voter[] memory voters */\n      0x00\n        /* \"contracts/BusinessConsensus3.sol\":7202:7208  Voters */\n      0x0b\n        /* \"contracts/BusinessConsensus3.sol\":7202:7220  Voters[_messageID] */\n      0x00\n        /* \"contracts/BusinessConsensus3.sol\":7209:7219  _messageID */\n      dup8\n        /* \"contracts/BusinessConsensus3.sol\":7202:7220  Voters[_messageID] */\n      dup2\n      mstore\n      0x20\n      add\n      swap1\n      dup2\n      mstore\n      0x20\n      add\n      0x00\n      keccak256\n        /* \"contracts/BusinessConsensus3.sol\":7178:7220  Voter[] memory voters = Voters[_messageID] */\n      dup1\n      sload\n      dup1\n      0x20\n      mul\n      0x20\n      add\n      mload(0x40)\n      swap1\n      dup2\n      add\n      0x40\n      mstore\n      dup1\n      swap3\n      swap2\n      swap1\n      dup2\n      dup2\n      mstore\n      0x20\n      add\n      0x00\n      swap1\n    tag_128:\n      dup3\n      dup3\n      lt\n      iszero\n      tag_129\n      jumpi\n      dup4\n      dup3\n      swap1\n      0x00\n      mstore\n      keccak256(0x00, 0x20)\n      add\n      mload(0x40)\n      dup1\n      0x60\n      add\n      0x40\n      mstore\n      swap1\n      dup2\n      0x00\n      dup3\n      add\n      0x00\n      swap1\n      sload\n      swap1\n      0x0100\n      exp\n      swap1\n      div\n      0xff\n      and\n      iszero\n      iszero\n      iszero\n      iszero\n      dup2\n      mstore\n      0x20\n      add\n      0x00\n      dup3\n      add\n      0x01\n      swap1\n      sload\n      swap1\n      0x0100\n      exp\n      swap1\n      div\n      0xff\n      and\n      iszero\n      iszero\n      iszero\n      iszero\n      dup2\n      mstore\n      0x20\n      add\n      0x00\n      dup3\n      add\n      0x02\n      swap1\n      sload\n      swap1\n      0x0100\n      exp\n      swap1\n      div\n      0xffffffffffffffffffffffffffffffffffffffff\n      and\n      0xffffffffffffffffffffffffffffffffffffffff\n      and\n      0xffffffffffffffffffffffffffffffffffffffff\n      and\n      dup2\n      mstore\n      pop\n      pop\n      dup2\n      mstore\n      0x20\n      add\n      swap1\n      0x01\n      add\n      swap1\n      jump(tag_128)\n    tag_129:\n      pop\n      pop\n      pop\n      pop\n      swap1\n      pop\n        /* \"contracts/BusinessConsensus3.sol\":7231:7243  bool verdict */\n      0x00\n        /* \"contracts/BusinessConsensus3.sol\":7246:7259  finalVerdicts */\n      0x07\n        /* \"contracts/BusinessConsensus3.sol\":7246:7271  finalVerdicts[_messageID] */\n      0x00\n        /* \"contracts/BusinessConsensus3.sol\":7260:7270  _messageID */\n      dup9\n        /* \"contracts/BusinessConsensus3.sol\":7246:7271  finalVerdicts[_messageID] */\n      dup2\n      mstore\n      0x20\n      add\n      swap1\n      dup2\n      mstore\n      0x20\n      add\n      0x00\n      keccak256\n      0x00\n      swap1\n      sload\n      swap1\n      0x0100\n      exp\n      swap1\n      div\n      0xff\n      and\n        /* \"contracts/BusinessConsensus3.sol\":7231:7271  bool verdict = finalVerdicts[_messageID] */\n      swap1\n      pop\n        /* \"contracts/BusinessConsensus3.sol\":7282:7295  uint256 count */\n      0x00\n        /* \"contracts/BusinessConsensus3.sol\":7298:7315  businessProposals */\n      dup1\n        /* \"contracts/BusinessConsensus3.sol\":7298:7327  businessProposals[_messageID] */\n      0x00\n        /* \"contracts/BusinessConsensus3.sol\":7316:7326  _messageID */\n      dup10\n        /* \"contracts/BusinessConsensus3.sol\":7298:7327  businessProposals[_messageID] */\n      dup2\n      mstore\n      0x20\n      add\n      swap1\n      dup2\n      mstore\n      0x20\n      add\n      0x00\n      keccak256\n        /* \"contracts/BusinessConsensus3.sol\":7298:7337  businessProposals[_messageID].voteCount */\n      0x00\n      add\n      sload\n        /* \"contracts/BusinessConsensus3.sol\":7282:7337  uint256 count = businessProposals[_messageID].voteCount */\n      swap1\n      pop\n        /* \"contracts/BusinessConsensus3.sol\":7356:7363  verdict */\n      dup2\n        /* \"contracts/BusinessConsensus3.sol\":7364:7374  _messageID */\n      dup9\n        /* \"contracts/BusinessConsensus3.sol\":7375:7380  count */\n      dup3\n        /* \"contracts/BusinessConsensus3.sol\":7381:7387  voters */\n      dup6\n        /* \"contracts/BusinessConsensus3.sol\":7348:7388  return (verdict,_messageID,count,voters) */\n      swap7\n      pop\n      swap7\n      pop\n      swap7\n      pop\n      swap7\n      pop\n      pop\n      pop\n      pop\n        /* \"contracts/BusinessConsensus3.sol\":6945:7406  function retrieve_bundle(bytes32 _messageID) external view returns (bool, bytes32, uint256, Voter[] memory){\r... */\n      swap2\n      swap4\n      pop\n      swap2\n      swap4\n      jump\t// out\n        /* \"contracts/BusinessConsensus3.sol\":2697:3532  function checkConsistency(bytes32 _subject, uint256 _businessRequirement, uint256 _expiryLength, bytes32 _contents) public view returns(bool, bool, bool){\r... */\n    tag_41:\n        /* \"contracts/BusinessConsensus3.sol\":2833:2837  bool */\n      0x00\n        /* \"contracts/BusinessConsensus3.sol\":2839:2843  bool */\n      dup1\n        /* \"contracts/BusinessConsensus3.sol\":2845:2849  bool */\n      0x00\n        /* \"contracts/BusinessConsensus3.sol\":2883:2893  initiators */\n      0x01\n        /* \"contracts/BusinessConsensus3.sol\":2883:2903  initiators[_subject] */\n      0x00\n        /* \"contracts/BusinessConsensus3.sol\":2894:2902  _subject */\n      dup9\n        /* \"contracts/BusinessConsensus3.sol\":2883:2903  initiators[_subject] */\n      dup2\n      mstore\n      0x20\n      add\n      swap1\n      dup2\n      mstore\n      0x20\n      add\n      0x00\n      keccak256\n      0x00\n      swap1\n      sload\n      swap1\n      0x0100\n      exp\n      swap1\n      div\n      0xffffffffffffffffffffffffffffffffffffffff\n      and\n        /* \"contracts/BusinessConsensus3.sol\":2869:2903  msg.sender == initiators[_subject] */\n      0xffffffffffffffffffffffffffffffffffffffff\n      and\n        /* \"contracts/BusinessConsensus3.sol\":2869:2879  msg.sender */\n      caller\n        /* \"contracts/BusinessConsensus3.sol\":2869:2903  msg.sender == initiators[_subject] */\n      0xffffffffffffffffffffffffffffffffffffffff\n      and\n      eq\n        /* \"contracts/BusinessConsensus3.sol\":2861:2928  require(msg.sender == initiators[_subject], \"You aren't Initiator\") */\n      tag_132\n      jumpi\n      mload(0x40)\n      0x08c379a000000000000000000000000000000000000000000000000000000000\n      dup2\n      mstore\n      0x04\n      add\n      tag_133\n      swap1\n      tag_134\n      jump\t// in\n    tag_133:\n      mload(0x40)\n      dup1\n      swap2\n      sub\n      swap1\n      revert\n    tag_132:\n        /* \"contracts/BusinessConsensus3.sol\":2939:2950  bool value1 */\n      0x00\n        /* \"contracts/BusinessConsensus3.sol\":2953:2957  true */\n      0x01\n        /* \"contracts/BusinessConsensus3.sol\":2939:2957  bool value1 = true */\n      swap1\n      pop\n        /* \"contracts/BusinessConsensus3.sol\":2968:2979  bool value2 */\n      0x00\n        /* \"contracts/BusinessConsensus3.sol\":2982:2986  true */\n      0x01\n        /* \"contracts/BusinessConsensus3.sol\":2968:2986  bool value2 = true */\n      swap1\n      pop\n        /* \"contracts/BusinessConsensus3.sol\":2997:3008  bool value3 */\n      0x00\n        /* \"contracts/BusinessConsensus3.sol\":3011:3015  true */\n      0x01\n        /* \"contracts/BusinessConsensus3.sol\":2997:3015  bool value3 = true */\n      swap1\n      pop\n        /* \"contracts/BusinessConsensus3.sol\":3061:3062  0 */\n      0x00\n        /* \"contracts/BusinessConsensus3.sol\":3029:3063  initiators[_subject] == address(0) */\n      0xffffffffffffffffffffffffffffffffffffffff\n      and\n        /* \"contracts/BusinessConsensus3.sol\":3029:3039  initiators */\n      0x01\n        /* \"contracts/BusinessConsensus3.sol\":3029:3049  initiators[_subject] */\n      0x00\n        /* \"contracts/BusinessConsensus3.sol\":3040:3048  _subject */\n      dup13\n        /* \"contracts/BusinessConsensus3.sol\":3029:3049  initiators[_subject] */\n      dup2\n      mstore\n      0x20\n      add\n      swap1\n      dup2\n      mstore\n      0x20\n      add\n      0x00\n      keccak256\n      0x00\n      swap1\n      sload\n      swap1\n      0x0100\n      exp\n      swap1\n      div\n      0xffffffffffffffffffffffffffffffffffffffff\n      and\n        /* \"contracts/BusinessConsensus3.sol\":3029:3063  initiators[_subject] == address(0) */\n      0xffffffffffffffffffffffffffffffffffffffff\n      and\n      eq\n        /* \"contracts/BusinessConsensus3.sol\":3026:3525  if(initiators[_subject] == address(0)){\r... */\n      iszero\n      tag_135\n      jumpi\n        /* \"contracts/BusinessConsensus3.sol\":3087:3091  true */\n      0x01\n        /* \"contracts/BusinessConsensus3.sol\":3093:3097  true */\n      dup1\n        /* \"contracts/BusinessConsensus3.sol\":3099:3103  true */\n      0x01\n        /* \"contracts/BusinessConsensus3.sol\":3079:3104  return (true, true, true) */\n      swap6\n      pop\n      swap6\n      pop\n      swap6\n      pop\n      pop\n      pop\n      pop\n      jump(tag_131)\n        /* \"contracts/BusinessConsensus3.sol\":3026:3525  if(initiators[_subject] == address(0)){\r... */\n    tag_135:\n        /* \"contracts/BusinessConsensus3.sol\":3172:3189  businessProposals */\n      0x00\n        /* \"contracts/BusinessConsensus3.sol\":3172:3199  businessProposals[_subject] */\n      dup1\n        /* \"contracts/BusinessConsensus3.sol\":3190:3198  _subject */\n      dup12\n        /* \"contracts/BusinessConsensus3.sol\":3172:3199  businessProposals[_subject] */\n      dup2\n      mstore\n      0x20\n      add\n      swap1\n      dup2\n      mstore\n      0x20\n      add\n      0x00\n      keccak256\n        /* \"contracts/BusinessConsensus3.sol\":3172:3219  businessProposals[_subject].BusinessRequirement */\n      0x02\n      add\n      sload\n        /* \"contracts/BusinessConsensus3.sol\":3148:3168  _businessRequirement */\n      dup10\n        /* \"contracts/BusinessConsensus3.sol\":3148:3219  _businessRequirement != businessProposals[_subject].BusinessRequirement */\n      eq\n        /* \"contracts/BusinessConsensus3.sol\":3145:3269  if(_businessRequirement != businessProposals[_subject].BusinessRequirement){\r... */\n      tag_137\n      jumpi\n        /* \"contracts/BusinessConsensus3.sol\":3248:3253  false */\n      0x00\n        /* \"contracts/BusinessConsensus3.sol\":3239:3253  value1 = false */\n      swap3\n      pop\n        /* \"contracts/BusinessConsensus3.sol\":3145:3269  if(_businessRequirement != businessProposals[_subject].BusinessRequirement){\r... */\n    tag_137:\n        /* \"contracts/BusinessConsensus3.sol\":3299:3307  contents */\n      0x04\n        /* \"contracts/BusinessConsensus3.sol\":3299:3317  contents[_subject] */\n      0x00\n        /* \"contracts/BusinessConsensus3.sol\":3308:3316  _subject */\n      dup12\n        /* \"contracts/BusinessConsensus3.sol\":3299:3317  contents[_subject] */\n      dup2\n      mstore\n      0x20\n      add\n      swap1\n      dup2\n      mstore\n      0x20\n      add\n      0x00\n      keccak256\n      sload\n        /* \"contracts/BusinessConsensus3.sol\":3286:3295  _contents */\n      dup8\n        /* \"contracts/BusinessConsensus3.sol\":3286:3317  _contents != contents[_subject] */\n      eq\n        /* \"contracts/BusinessConsensus3.sol\":3283:3367  if(_contents != contents[_subject]){\r... */\n      tag_138\n      jumpi\n        /* \"contracts/BusinessConsensus3.sol\":3346:3351  false */\n      0x00\n        /* \"contracts/BusinessConsensus3.sol\":3337:3351  value2 = false */\n      swap2\n      pop\n        /* \"contracts/BusinessConsensus3.sol\":3283:3367  if(_contents != contents[_subject]){\r... */\n    tag_138:\n        /* \"contracts/BusinessConsensus3.sol\":3411:3424  _expiryLength */\n      dup8\n        /* \"contracts/BusinessConsensus3.sol\":3384:3397  expiryLengths */\n      0x03\n        /* \"contracts/BusinessConsensus3.sol\":3384:3407  expiryLengths[_subject] */\n      0x00\n        /* \"contracts/BusinessConsensus3.sol\":3398:3406  _subject */\n      dup13\n        /* \"contracts/BusinessConsensus3.sol\":3384:3407  expiryLengths[_subject] */\n      dup2\n      mstore\n      0x20\n      add\n      swap1\n      dup2\n      mstore\n      0x20\n      add\n      0x00\n      keccak256\n      sload\n        /* \"contracts/BusinessConsensus3.sol\":3384:3424  expiryLengths[_subject] != _expiryLength */\n      eq\n        /* \"contracts/BusinessConsensus3.sol\":3381:3474  if(expiryLengths[_subject] != _expiryLength){\r... */\n      tag_139\n      jumpi\n        /* \"contracts/BusinessConsensus3.sol\":3453:3458  false */\n      0x00\n        /* \"contracts/BusinessConsensus3.sol\":3444:3458  value3 = false */\n      swap1\n      pop\n        /* \"contracts/BusinessConsensus3.sol\":3381:3474  if(expiryLengths[_subject] != _expiryLength){\r... */\n    tag_139:\n        /* \"contracts/BusinessConsensus3.sol\":3492:3498  value1 */\n      dup3\n        /* \"contracts/BusinessConsensus3.sol\":3499:3505  value2 */\n      dup3\n        /* \"contracts/BusinessConsensus3.sol\":3506:3512  value3 */\n      dup3\n        /* \"contracts/BusinessConsensus3.sol\":3484:3513  return (value1,value2,value3) */\n      swap6\n      pop\n      swap6\n      pop\n      swap6\n      pop\n      pop\n      pop\n      pop\n        /* \"contracts/BusinessConsensus3.sol\":2697:3532  function checkConsistency(bytes32 _subject, uint256 _businessRequirement, uint256 _expiryLength, bytes32 _contents) public view returns(bool, bool, bool){\r... */\n    tag_131:\n      swap5\n      pop\n      swap5\n      pop\n      swap5\n      swap2\n      pop\n      pop\n      jump\t// out\n        /* \"contracts/BusinessConsensus3.sol\":628:679  mapping(bytes32=>Proposal) public businessProposals */\n    tag_46:\n      mstore(0x20, 0x00)\n      dup1\n      0x00\n      mstore\n      keccak256(0x00, 0x40)\n      0x00\n      swap2\n      pop\n      swap1\n      pop\n      dup1\n      0x00\n      add\n      sload\n      swap1\n      dup1\n      0x01\n      add\n      sload\n      swap1\n      dup1\n      0x02\n      add\n      sload\n      swap1\n      pop\n      dup4\n      jump\t// out\n        /* \"contracts/BusinessConsensus3.sol\":992:1037  mapping(bytes32 => bool) public finalVerdicts */\n    tag_51:\n      mstore(0x20, 0x07)\n      dup1\n      0x00\n      mstore\n      keccak256(0x00, 0x40)\n      0x00\n      swap2\n      pop\n      sload\n      swap1\n      0x0100\n      exp\n      swap1\n      div\n      0xff\n      and\n      dup2\n      jump\t// out\n        /* \"contracts/BusinessConsensus3.sol\":1209:1248  mapping(bytes32=>Voter[]) public Voters */\n    tag_57:\n      mstore(0x20, 0x0b)\n      dup2\n      0x00\n      mstore\n      keccak256(0x00, 0x40)\n      dup2\n      dup2\n      sload\n      dup2\n      lt\n      tag_140\n      jumpi\n      0x00\n      dup1\n      revert\n    tag_140:\n      swap1\n      0x00\n      mstore\n      keccak256(0x00, 0x20)\n      add\n      0x00\n      swap2\n      pop\n      swap2\n      pop\n      pop\n      dup1\n      0x00\n      add\n      0x00\n      swap1\n      sload\n      swap1\n      0x0100\n      exp\n      swap1\n      div\n      0xff\n      and\n      swap1\n      dup1\n      0x00\n      add\n      0x01\n      swap1\n      sload\n      swap1\n      0x0100\n      exp\n      swap1\n      div\n      0xff\n      and\n      swap1\n      dup1\n      0x00\n      add\n      0x02\n      swap1\n      sload\n      swap1\n      0x0100\n      exp\n      swap1\n      div\n      0xffffffffffffffffffffffffffffffffffffffff\n      and\n      swap1\n      pop\n      dup4\n      jump\t// out\n        /* \"contracts/BusinessConsensus3.sol\":2574:2691  function getIsCompiled(bytes32 _messageID) public view returns (bool){\r... */\n    tag_62:\n        /* \"contracts/BusinessConsensus3.sol\":2638:2642  bool */\n      0x00\n        /* \"contracts/BusinessConsensus3.sol\":2661:2671  isCompiled */\n      0x08\n        /* \"contracts/BusinessConsensus3.sol\":2661:2683  isCompiled[_messageID] */\n      0x00\n        /* \"contracts/BusinessConsensus3.sol\":2672:2682  _messageID */\n      dup4\n        /* \"contracts/BusinessConsensus3.sol\":2661:2683  isCompiled[_messageID] */\n      dup2\n      mstore\n      0x20\n      add\n      swap1\n      dup2\n      mstore\n      0x20\n      add\n      0x00\n      keccak256\n      0x00\n      swap1\n      sload\n      swap1\n      0x0100\n      exp\n      swap1\n      div\n      0xff\n      and\n        /* \"contracts/BusinessConsensus3.sol\":2654:2683  return isCompiled[_messageID] */\n      swap1\n      pop\n        /* \"contracts/BusinessConsensus3.sol\":2574:2691  function getIsCompiled(bytes32 _messageID) public view returns (bool){\r... */\n      swap2\n      swap1\n      pop\n      jump\t// out\n        /* \"contracts/BusinessConsensus3.sol\":5980:6937  function Consensus(bytes32 _messageID) external {\r... */\n    tag_66:\n        /* \"contracts/BusinessConsensus3.sol\":6066:6083  businessProposals */\n      0x00\n        /* \"contracts/BusinessConsensus3.sol\":6066:6095  businessProposals[_messageID] */\n      dup1\n        /* \"contracts/BusinessConsensus3.sol\":6084:6094  _messageID */\n      dup3\n        /* \"contracts/BusinessConsensus3.sol\":6066:6095  businessProposals[_messageID] */\n      dup2\n      mstore\n      0x20\n      add\n      swap1\n      dup2\n      mstore\n      0x20\n      add\n      0x00\n      keccak256\n        /* \"contracts/BusinessConsensus3.sol\":6066:6106  businessProposals[_messageID].expiryDate */\n      0x01\n      add\n      sload\n        /* \"contracts/BusinessConsensus3.sol\":6047:6062  block.timestamp */\n      timestamp\n        /* \"contracts/BusinessConsensus3.sol\":6047:6106  block.timestamp >= businessProposals[_messageID].expiryDate */\n      lt\n      iszero\n        /* \"contracts/BusinessConsensus3.sol\":6039:6143  require(block.timestamp >= businessProposals[_messageID].expiryDate, \"Verdict has not been reached yet\") */\n      tag_144\n      jumpi\n      mload(0x40)\n      0x08c379a000000000000000000000000000000000000000000000000000000000\n      dup2\n      mstore\n      0x04\n      add\n      tag_145\n      swap1\n      tag_127\n      jump\t// in\n    tag_145:\n      mload(0x40)\n      dup1\n      swap2\n      sub\n      swap1\n      revert\n    tag_144:\n        /* \"contracts/BusinessConsensus3.sol\":6188:6193  false */\n      0x00\n        /* \"contracts/BusinessConsensus3.sol\":6162:6193  isCompiled[_messageID] == false */\n      iszero\n      iszero\n        /* \"contracts/BusinessConsensus3.sol\":6162:6172  isCompiled */\n      0x08\n        /* \"contracts/BusinessConsensus3.sol\":6162:6184  isCompiled[_messageID] */\n      0x00\n        /* \"contracts/BusinessConsensus3.sol\":6173:6183  _messageID */\n      dup4\n        /* \"contracts/BusinessConsensus3.sol\":6162:6184  isCompiled[_messageID] */\n      dup2\n      mstore\n      0x20\n      add\n      swap1\n      dup2\n      mstore\n      0x20\n      add\n      0x00\n      keccak256\n      0x00\n      swap1\n      sload\n      swap1\n      0x0100\n      exp\n      swap1\n      div\n      0xff\n      and\n        /* \"contracts/BusinessConsensus3.sol\":6162:6193  isCompiled[_messageID] == false */\n      iszero\n      iszero\n      eq\n        /* \"contracts/BusinessConsensus3.sol\":6154:6235  require(isCompiled[_messageID] == false, \"Consensus has already been calculated\") */\n      tag_146\n      jumpi\n      mload(0x40)\n      0x08c379a000000000000000000000000000000000000000000000000000000000\n      dup2\n      mstore\n      0x04\n      add\n      tag_147\n      swap1\n      tag_148\n      jump\t// in\n    tag_147:\n      mload(0x40)\n      dup1\n      swap2\n      sub\n      swap1\n      revert\n    tag_146:\n        /* \"contracts/BusinessConsensus3.sol\":6268:6278  initiators */\n      0x01\n        /* \"contracts/BusinessConsensus3.sol\":6268:6290  initiators[_messageID] */\n      0x00\n        /* \"contracts/BusinessConsensus3.sol\":6279:6289  _messageID */\n      dup3\n        /* \"contracts/BusinessConsensus3.sol\":6268:6290  initiators[_messageID] */\n      dup2\n      mstore\n      0x20\n      add\n      swap1\n      dup2\n      mstore\n      0x20\n      add\n      0x00\n      keccak256\n      0x00\n      swap1\n      sload\n      swap1\n      0x0100\n      exp\n      swap1\n      div\n      0xffffffffffffffffffffffffffffffffffffffff\n      and\n        /* \"contracts/BusinessConsensus3.sol\":6254:6290  msg.sender == initiators[_messageID] */\n      0xffffffffffffffffffffffffffffffffffffffff\n      and\n        /* \"contracts/BusinessConsensus3.sol\":6254:6264  msg.sender */\n      caller\n        /* \"contracts/BusinessConsensus3.sol\":6254:6290  msg.sender == initiators[_messageID] */\n      0xffffffffffffffffffffffffffffffffffffffff\n      and\n      eq\n        /* \"contracts/BusinessConsensus3.sol\":6254:6354  msg.sender == initiators[_messageID] || voter_maps[_messageID][msg.sender].recipient != address(0x0) */\n      dup1\n      tag_149\n      jumpi\n      pop\n        /* \"contracts/BusinessConsensus3.sol\":6350:6353  0x0 */\n      0x00\n        /* \"contracts/BusinessConsensus3.sol\":6294:6354  voter_maps[_messageID][msg.sender].recipient != address(0x0) */\n      0xffffffffffffffffffffffffffffffffffffffff\n      and\n        /* \"contracts/BusinessConsensus3.sol\":6294:6304  voter_maps */\n      0x0a\n        /* \"contracts/BusinessConsensus3.sol\":6294:6316  voter_maps[_messageID] */\n      0x00\n        /* \"contracts/BusinessConsensus3.sol\":6305:6315  _messageID */\n      dup4\n        /* \"contracts/BusinessConsensus3.sol\":6294:6316  voter_maps[_messageID] */\n      dup2\n      mstore\n      0x20\n      add\n      swap1\n      dup2\n      mstore\n      0x20\n      add\n      0x00\n      keccak256\n        /* \"contracts/BusinessConsensus3.sol\":6294:6328  voter_maps[_messageID][msg.sender] */\n      0x00\n        /* \"contracts/BusinessConsensus3.sol\":6317:6327  msg.sender */\n      caller\n        /* \"contracts/BusinessConsensus3.sol\":6294:6328  voter_maps[_messageID][msg.sender] */\n      0xffffffffffffffffffffffffffffffffffffffff\n      and\n      0xffffffffffffffffffffffffffffffffffffffff\n      and\n      dup2\n      mstore\n      0x20\n      add\n      swap1\n      dup2\n      mstore\n      0x20\n      add\n      0x00\n      keccak256\n        /* \"contracts/BusinessConsensus3.sol\":6294:6338  voter_maps[_messageID][msg.sender].recipient */\n      0x00\n      add\n      0x02\n      swap1\n      sload\n      swap1\n      0x0100\n      exp\n      swap1\n      div\n      0xffffffffffffffffffffffffffffffffffffffff\n      and\n        /* \"contracts/BusinessConsensus3.sol\":6294:6354  voter_maps[_messageID][msg.sender].recipient != address(0x0) */\n      0xffffffffffffffffffffffffffffffffffffffff\n      and\n      eq\n      iszero\n        /* \"contracts/BusinessConsensus3.sol\":6254:6354  msg.sender == initiators[_messageID] || voter_maps[_messageID][msg.sender].recipient != address(0x0) */\n    tag_149:\n        /* \"contracts/BusinessConsensus3.sol\":6246:6397  require(msg.sender == initiators[_messageID] || voter_maps[_messageID][msg.sender].recipient != address(0x0), \"You aren't authorize to compile Bundle\") */\n      tag_150\n      jumpi\n      mload(0x40)\n      0x08c379a000000000000000000000000000000000000000000000000000000000\n      dup2\n      mstore\n      0x04\n      add\n      tag_151\n      swap1\n      tag_152\n      jump\t// in\n    tag_151:\n      mload(0x40)\n      dup1\n      swap2\n      sub\n      swap1\n      revert\n    tag_150:\n        /* \"contracts/BusinessConsensus3.sol\":6408:6437  uint256 AccumulatedPercentage */\n      0x00\n        /* \"contracts/BusinessConsensus3.sol\":6491:6494  100 */\n      0x64\n        /* \"contracts/BusinessConsensus3.sol\":6466:6470  keys */\n      0x0c\n        /* \"contracts/BusinessConsensus3.sol\":6466:6482  keys[_messageID] */\n      0x00\n        /* \"contracts/BusinessConsensus3.sol\":6471:6481  _messageID */\n      dup5\n        /* \"contracts/BusinessConsensus3.sol\":6466:6482  keys[_messageID] */\n      dup2\n      mstore\n      0x20\n      add\n      swap1\n      dup2\n      mstore\n      0x20\n      add\n      0x00\n      keccak256\n        /* \"contracts/BusinessConsensus3.sol\":6466:6489  keys[_messageID].length */\n      dup1\n      sload\n      swap1\n      pop\n        /* \"contracts/BusinessConsensus3.sol\":6441:6453  numApprovals */\n      0x05\n        /* \"contracts/BusinessConsensus3.sol\":6441:6465  numApprovals[_messageID] */\n      0x00\n        /* \"contracts/BusinessConsensus3.sol\":6454:6464  _messageID */\n      dup6\n        /* \"contracts/BusinessConsensus3.sol\":6441:6465  numApprovals[_messageID] */\n      dup2\n      mstore\n      0x20\n      add\n      swap1\n      dup2\n      mstore\n      0x20\n      add\n      0x00\n      keccak256\n      sload\n        /* \"contracts/BusinessConsensus3.sol\":6441:6489  numApprovals[_messageID]/keys[_messageID].length */\n      tag_153\n      swap2\n      swap1\n      tag_154\n      jump\t// in\n    tag_153:\n        /* \"contracts/BusinessConsensus3.sol\":6440:6494  (numApprovals[_messageID]/keys[_messageID].length)*100 */\n      tag_155\n      swap2\n      swap1\n      tag_156\n      jump\t// in\n    tag_155:\n        /* \"contracts/BusinessConsensus3.sol\":6408:6494  uint256 AccumulatedPercentage = (numApprovals[_messageID]/keys[_messageID].length)*100 */\n      swap1\n      pop\n        /* \"contracts/BusinessConsensus3.sol\":6533:6550  businessProposals */\n      0x00\n        /* \"contracts/BusinessConsensus3.sol\":6533:6562  businessProposals[_messageID] */\n      dup1\n        /* \"contracts/BusinessConsensus3.sol\":6551:6561  _messageID */\n      dup4\n        /* \"contracts/BusinessConsensus3.sol\":6533:6562  businessProposals[_messageID] */\n      dup2\n      mstore\n      0x20\n      add\n      swap1\n      dup2\n      mstore\n      0x20\n      add\n      0x00\n      keccak256\n        /* \"contracts/BusinessConsensus3.sol\":6533:6582  businessProposals[_messageID].BusinessRequirement */\n      0x02\n      add\n      sload\n        /* \"contracts/BusinessConsensus3.sol\":6508:6529  AccumulatedPercentage */\n      dup2\n        /* \"contracts/BusinessConsensus3.sol\":6508:6582  AccumulatedPercentage >= businessProposals[_messageID].BusinessRequirement */\n      lt\n        /* \"contracts/BusinessConsensus3.sol\":6505:6642  if(AccumulatedPercentage >= businessProposals[_messageID].BusinessRequirement){\r... */\n      tag_157\n      jumpi\n        /* \"contracts/BusinessConsensus3.sol\":6626:6630  true */\n      0x01\n        /* \"contracts/BusinessConsensus3.sol\":6598:6611  finalVerdicts */\n      0x07\n        /* \"contracts/BusinessConsensus3.sol\":6598:6623  finalVerdicts[_messageID] */\n      0x00\n        /* \"contracts/BusinessConsensus3.sol\":6612:6622  _messageID */\n      dup5\n        /* \"contracts/BusinessConsensus3.sol\":6598:6623  finalVerdicts[_messageID] */\n      dup2\n      mstore\n      0x20\n      add\n      swap1\n      dup2\n      mstore\n      0x20\n      add\n      0x00\n      keccak256\n      0x00\n        /* \"contracts/BusinessConsensus3.sol\":6598:6630  finalVerdicts[_messageID] = true */\n      0x0100\n      exp\n      dup2\n      sload\n      dup2\n      0xff\n      mul\n      not\n      and\n      swap1\n      dup4\n      iszero\n      iszero\n      mul\n      or\n      swap1\n      sstore\n      pop\n        /* \"contracts/BusinessConsensus3.sol\":6505:6642  if(AccumulatedPercentage >= businessProposals[_messageID].BusinessRequirement){\r... */\n    tag_157:\n        /* \"contracts/BusinessConsensus3.sol\":6656:6663  uint8 i */\n      0x00\n        /* \"contracts/BusinessConsensus3.sol\":6652:6890  for(uint8 i=0; i< keys[_messageID].length; i++){\r... */\n    tag_158:\n        /* \"contracts/BusinessConsensus3.sol\":6670:6674  keys */\n      0x0c\n        /* \"contracts/BusinessConsensus3.sol\":6670:6686  keys[_messageID] */\n      0x00\n        /* \"contracts/BusinessConsensus3.sol\":6675:6685  _messageID */\n      dup5\n        /* \"contracts/BusinessConsensus3.sol\":6670:6686  keys[_messageID] */\n      dup2\n      mstore\n      0x20\n      add\n      swap1\n      dup2\n      mstore\n      0x20\n      add\n      0x00\n      keccak256\n        /* \"contracts/BusinessConsensus3.sol\":6670:6693  keys[_messageID].length */\n      dup1\n      sload\n      swap1\n      pop\n        /* \"contracts/BusinessConsensus3.sol\":6667:6668  i */\n      dup2\n        /* \"contracts/BusinessConsensus3.sol\":6667:6693  i< keys[_messageID].length */\n      0xff\n      and\n      lt\n        /* \"contracts/BusinessConsensus3.sol\":6652:6890  for(uint8 i=0; i< keys[_messageID].length; i++){\r... */\n      iszero\n      tag_159\n      jumpi\n        /* \"contracts/BusinessConsensus3.sol\":6770:6775  false */\n      0x00\n        /* \"contracts/BusinessConsensus3.sol\":6717:6775  voter_maps[_messageID][keys[_messageID][i]].voted == false */\n      iszero\n      iszero\n        /* \"contracts/BusinessConsensus3.sol\":6717:6727  voter_maps */\n      0x0a\n        /* \"contracts/BusinessConsensus3.sol\":6717:6739  voter_maps[_messageID] */\n      0x00\n        /* \"contracts/BusinessConsensus3.sol\":6728:6738  _messageID */\n      dup6\n        /* \"contracts/BusinessConsensus3.sol\":6717:6739  voter_maps[_messageID] */\n      dup2\n      mstore\n      0x20\n      add\n      swap1\n      dup2\n      mstore\n      0x20\n      add\n      0x00\n      keccak256\n        /* \"contracts/BusinessConsensus3.sol\":6717:6760  voter_maps[_messageID][keys[_messageID][i]] */\n      0x00\n        /* \"contracts/BusinessConsensus3.sol\":6740:6744  keys */\n      0x0c\n        /* \"contracts/BusinessConsensus3.sol\":6740:6756  keys[_messageID] */\n      0x00\n        /* \"contracts/BusinessConsensus3.sol\":6745:6755  _messageID */\n      dup8\n        /* \"contracts/BusinessConsensus3.sol\":6740:6756  keys[_messageID] */\n      dup2\n      mstore\n      0x20\n      add\n      swap1\n      dup2\n      mstore\n      0x20\n      add\n      0x00\n      keccak256\n        /* \"contracts/BusinessConsensus3.sol\":6757:6758  i */\n      dup5\n        /* \"contracts/BusinessConsensus3.sol\":6740:6759  keys[_messageID][i] */\n      0xff\n      and\n      dup2\n      sload\n      dup2\n      lt\n      tag_161\n      jumpi\n      tag_162\n      tag_163\n      jump\t// in\n    tag_162:\n    tag_161:\n      swap1\n      0x00\n      mstore\n      keccak256(0x00, 0x20)\n      add\n      0x00\n      swap1\n      sload\n      swap1\n      0x0100\n      exp\n      swap1\n      div\n      0xffffffffffffffffffffffffffffffffffffffff\n      and\n        /* \"contracts/BusinessConsensus3.sol\":6717:6760  voter_maps[_messageID][keys[_messageID][i]] */\n      0xffffffffffffffffffffffffffffffffffffffff\n      and\n      0xffffffffffffffffffffffffffffffffffffffff\n      and\n      dup2\n      mstore\n      0x20\n      add\n      swap1\n      dup2\n      mstore\n      0x20\n      add\n      0x00\n      keccak256\n        /* \"contracts/BusinessConsensus3.sol\":6717:6766  voter_maps[_messageID][keys[_messageID][i]].voted */\n      0x00\n      add\n      0x00\n      swap1\n      sload\n      swap1\n      0x0100\n      exp\n      swap1\n      div\n      0xff\n      and\n        /* \"contracts/BusinessConsensus3.sol\":6717:6775  voter_maps[_messageID][keys[_messageID][i]].voted == false */\n      iszero\n      iszero\n      eq\n        /* \"contracts/BusinessConsensus3.sol\":6714:6879  if(voter_maps[_messageID][keys[_messageID][i]].voted == false){\r... */\n      iszero\n      tag_165\n      jumpi\n        /* \"contracts/BusinessConsensus3.sol\":6795:6801  Voters */\n      0x0b\n        /* \"contracts/BusinessConsensus3.sol\":6795:6813  Voters[_messageID] */\n      0x00\n        /* \"contracts/BusinessConsensus3.sol\":6802:6812  _messageID */\n      dup5\n        /* \"contracts/BusinessConsensus3.sol\":6795:6813  Voters[_messageID] */\n      dup2\n      mstore\n      0x20\n      add\n      swap1\n      dup2\n      mstore\n      0x20\n      add\n      0x00\n      keccak256\n        /* \"contracts/BusinessConsensus3.sol\":6819:6829  voter_maps */\n      0x0a\n        /* \"contracts/BusinessConsensus3.sol\":6819:6841  voter_maps[_messageID] */\n      0x00\n        /* \"contracts/BusinessConsensus3.sol\":6830:6840  _messageID */\n      dup6\n        /* \"contracts/BusinessConsensus3.sol\":6819:6841  voter_maps[_messageID] */\n      dup2\n      mstore\n      0x20\n      add\n      swap1\n      dup2\n      mstore\n      0x20\n      add\n      0x00\n      keccak256\n        /* \"contracts/BusinessConsensus3.sol\":6819:6862  voter_maps[_messageID][keys[_messageID][i]] */\n      0x00\n        /* \"contracts/BusinessConsensus3.sol\":6842:6846  keys */\n      0x0c\n        /* \"contracts/BusinessConsensus3.sol\":6842:6858  keys[_messageID] */\n      0x00\n        /* \"contracts/BusinessConsensus3.sol\":6847:6857  _messageID */\n      dup8\n        /* \"contracts/BusinessConsensus3.sol\":6842:6858  keys[_messageID] */\n      dup2\n      mstore\n      0x20\n      add\n      swap1\n      dup2\n      mstore\n      0x20\n      add\n      0x00\n      keccak256\n        /* \"contracts/BusinessConsensus3.sol\":6859:6860  i */\n      dup5\n        /* \"contracts/BusinessConsensus3.sol\":6842:6861  keys[_messageID][i] */\n      0xff\n      and\n      dup2\n      sload\n      dup2\n      lt\n      tag_166\n      jumpi\n      tag_167\n      tag_163\n      jump\t// in\n    tag_167:\n    tag_166:\n      swap1\n      0x00\n      mstore\n      keccak256(0x00, 0x20)\n      add\n      0x00\n      swap1\n      sload\n      swap1\n      0x0100\n      exp\n      swap1\n      div\n      0xffffffffffffffffffffffffffffffffffffffff\n      and\n        /* \"contracts/BusinessConsensus3.sol\":6819:6862  voter_maps[_messageID][keys[_messageID][i]] */\n      0xffffffffffffffffffffffffffffffffffffffff\n      and\n      0xffffffffffffffffffffffffffffffffffffffff\n      and\n      dup2\n      mstore\n      0x20\n      add\n      swap1\n      dup2\n      mstore\n      0x20\n      add\n      0x00\n      keccak256\n        /* \"contracts/BusinessConsensus3.sol\":6795:6863  Voters[_messageID].push(voter_maps[_messageID][keys[_messageID][i]]) */\n      swap1\n      dup1\n      0x01\n      dup2\n      sload\n      add\n      dup1\n      dup3\n      sstore\n      dup1\n      swap2\n      pop\n      pop\n      0x01\n      swap1\n      sub\n      swap1\n      0x00\n      mstore\n      keccak256(0x00, 0x20)\n      add\n      0x00\n      swap1\n      swap2\n      swap1\n      swap2\n      swap1\n      swap2\n      pop\n      0x00\n      dup3\n      add\n      0x00\n      swap1\n      sload\n      swap1\n      0x0100\n      exp\n      swap1\n      div\n      0xff\n      and\n      dup2\n      0x00\n      add\n      exp(0x0100, 0x00)\n      dup2\n      sload\n      dup2\n      0xff\n      mul\n      not\n      and\n      swap1\n      dup4\n      iszero\n      iszero\n      mul\n      or\n      swap1\n      sstore\n      pop\n      0x00\n      dup3\n      add\n      0x01\n      swap1\n      sload\n      swap1\n      0x0100\n      exp\n      swap1\n      div\n      0xff\n      and\n      dup2\n      0x00\n      add\n      exp(0x0100, 0x01)\n      dup2\n      sload\n      dup2\n      0xff\n      mul\n      not\n      and\n      swap1\n      dup4\n      iszero\n      iszero\n      mul\n      or\n      swap1\n      sstore\n      pop\n      0x00\n      dup3\n      add\n      0x02\n      swap1\n      sload\n      swap1\n      0x0100\n      exp\n      swap1\n      div\n      0xffffffffffffffffffffffffffffffffffffffff\n      and\n      dup2\n      0x00\n      add\n      exp(0x0100, 0x02)\n      dup2\n      sload\n      dup2\n      0xffffffffffffffffffffffffffffffffffffffff\n      mul\n      not\n      and\n      swap1\n      dup4\n      0xffffffffffffffffffffffffffffffffffffffff\n      and\n      mul\n      or\n      swap1\n      sstore\n      pop\n      pop\n      pop\n        /* \"contracts/BusinessConsensus3.sol\":6714:6879  if(voter_maps[_messageID][keys[_messageID][i]].voted == false){\r... */\n    tag_165:\n        /* \"contracts/BusinessConsensus3.sol\":6695:6698  i++ */\n      dup1\n      dup1\n      tag_170\n      swap1\n      tag_171\n      jump\t// in\n    tag_170:\n      swap2\n      pop\n      pop\n        /* \"contracts/BusinessConsensus3.sol\":6652:6890  for(uint8 i=0; i< keys[_messageID].length; i++){\r... */\n      jump(tag_158)\n    tag_159:\n      pop\n        /* \"contracts/BusinessConsensus3.sol\":6925:6929  true */\n      0x01\n        /* \"contracts/BusinessConsensus3.sol\":6900:6910  isCompiled */\n      0x08\n        /* \"contracts/BusinessConsensus3.sol\":6900:6922  isCompiled[_messageID] */\n      0x00\n        /* \"contracts/BusinessConsensus3.sol\":6911:6921  _messageID */\n      dup5\n        /* \"contracts/BusinessConsensus3.sol\":6900:6922  isCompiled[_messageID] */\n      dup2\n      mstore\n      0x20\n      add\n      swap1\n      dup2\n      mstore\n      0x20\n      add\n      0x00\n      keccak256\n      0x00\n        /* \"contracts/BusinessConsensus3.sol\":6900:6929  isCompiled[_messageID] = true */\n      0x0100\n      exp\n      dup2\n      sload\n      dup2\n      0xff\n      mul\n      not\n      and\n      swap1\n      dup4\n      iszero\n      iszero\n      mul\n      or\n      swap1\n      sstore\n      pop\n        /* \"contracts/BusinessConsensus3.sol\":6028:6937  {\r... */\n      pop\n        /* \"contracts/BusinessConsensus3.sol\":5980:6937  function Consensus(bytes32 _messageID) external {\r... */\n      pop\n      jump\t// out\n        /* \"contracts/BusinessConsensus3.sol\":1255:1294  mapping(bytes32=>address[]) public keys */\n    tag_69:\n      mstore(0x20, 0x0c)\n      dup2\n      0x00\n      mstore\n      keccak256(0x00, 0x40)\n      dup2\n      dup2\n      sload\n      dup2\n      lt\n      tag_172\n      jumpi\n      0x00\n      dup1\n      revert\n    tag_172:\n      swap1\n      0x00\n      mstore\n      keccak256(0x00, 0x20)\n      add\n      0x00\n      swap2\n      pop\n      swap2\n      pop\n      swap1\n      sload\n      swap1\n      0x0100\n      exp\n      swap1\n      div\n      0xffffffffffffffffffffffffffffffffffffffff\n      and\n      dup2\n      jump\t// out\n        /* \"contracts/BusinessConsensus3.sol\":1044:1086  mapping(bytes32 => bool) public isCompiled */\n    tag_74:\n      mstore(0x20, 0x08)\n      dup1\n      0x00\n      mstore\n      keccak256(0x00, 0x40)\n      0x00\n      swap2\n      pop\n      sload\n      swap1\n      0x0100\n      exp\n      swap1\n      div\n      0xff\n      and\n      dup2\n      jump\t// out\n        /* \"contracts/BusinessConsensus3.sol\":4551:5916  function Vote(string memory response,bytes32 _messageID) external {\r... */\n    tag_79:\n        /* \"contracts/BusinessConsensus3.sol\":4656:4673  businessProposals */\n      0x00\n        /* \"contracts/BusinessConsensus3.sol\":4656:4685  businessProposals[_messageID] */\n      dup1\n        /* \"contracts/BusinessConsensus3.sol\":4674:4684  _messageID */\n      dup3\n        /* \"contracts/BusinessConsensus3.sol\":4656:4685  businessProposals[_messageID] */\n      dup2\n      mstore\n      0x20\n      add\n      swap1\n      dup2\n      mstore\n      0x20\n      add\n      0x00\n      keccak256\n        /* \"contracts/BusinessConsensus3.sol\":4656:4696  businessProposals[_messageID].expiryDate */\n      0x01\n      add\n      sload\n        /* \"contracts/BusinessConsensus3.sol\":4638:4653  block.timestamp */\n      timestamp\n        /* \"contracts/BusinessConsensus3.sol\":4638:4696  block.timestamp < businessProposals[_messageID].expiryDate */\n      lt\n        /* \"contracts/BusinessConsensus3.sol\":4630:4719  require(block.timestamp < businessProposals[_messageID].expiryDate, \"Voting has expired\") */\n      tag_175\n      jumpi\n      mload(0x40)\n      0x08c379a000000000000000000000000000000000000000000000000000000000\n      dup2\n      mstore\n      0x04\n      add\n      tag_176\n      swap1\n      tag_177\n      jump\t// in\n    tag_176:\n      mload(0x40)\n      dup1\n      swap2\n      sub\n      swap1\n      revert\n    tag_175:\n        /* \"contracts/BusinessConsensus3.sol\":4794:4797  0x0 */\n      0x00\n        /* \"contracts/BusinessConsensus3.sol\":4738:4798  voter_maps[_messageID][msg.sender].recipient != address(0x0) */\n      0xffffffffffffffffffffffffffffffffffffffff\n      and\n        /* \"contracts/BusinessConsensus3.sol\":4738:4748  voter_maps */\n      0x0a\n        /* \"contracts/BusinessConsensus3.sol\":4738:4760  voter_maps[_messageID] */\n      0x00\n        /* \"contracts/BusinessConsensus3.sol\":4749:4759  _messageID */\n      dup4\n        /* \"contracts/BusinessConsensus3.sol\":4738:4760  voter_maps[_messageID] */\n      dup2\n      mstore\n      0x20\n      add\n      swap1\n      dup2\n      mstore\n      0x20\n      add\n      0x00\n      keccak256\n        /* \"contracts/BusinessConsensus3.sol\":4738:4772  voter_maps[_messageID][msg.sender] */\n      0x00\n        /* \"contracts/BusinessConsensus3.sol\":4761:4771  msg.sender */\n      caller\n        /* \"contracts/BusinessConsensus3.sol\":4738:4772  voter_maps[_messageID][msg.sender] */\n      0xffffffffffffffffffffffffffffffffffffffff\n      and\n      0xffffffffffffffffffffffffffffffffffffffff\n      and\n      dup2\n      mstore\n      0x20\n      add\n      swap1\n      dup2\n      mstore\n      0x20\n      add\n      0x00\n      keccak256\n        /* \"contracts/BusinessConsensus3.sol\":4738:4782  voter_maps[_messageID][msg.sender].recipient */\n      0x00\n      add\n      0x02\n      swap1\n      sload\n      swap1\n      0x0100\n      exp\n      swap1\n      div\n      0xffffffffffffffffffffffffffffffffffffffff\n      and\n        /* \"contracts/BusinessConsensus3.sol\":4738:4798  voter_maps[_messageID][msg.sender].recipient != address(0x0) */\n      0xffffffffffffffffffffffffffffffffffffffff\n      and\n      eq\n      iszero\n        /* \"contracts/BusinessConsensus3.sol\":4730:4833  require(voter_maps[_messageID][msg.sender].recipient != address(0x0), \"You are not registered to vote\") */\n      tag_178\n      jumpi\n      mload(0x40)\n      0x08c379a000000000000000000000000000000000000000000000000000000000\n      dup2\n      mstore\n      0x04\n      add\n      tag_179\n      swap1\n      tag_180\n      jump\t// in\n    tag_179:\n      mload(0x40)\n      dup1\n      swap2\n      sub\n      swap1\n      revert\n    tag_178:\n        /* \"contracts/BusinessConsensus3.sol\":4853:4863  voter_maps */\n      0x0a\n        /* \"contracts/BusinessConsensus3.sol\":4853:4875  voter_maps[_messageID] */\n      0x00\n        /* \"contracts/BusinessConsensus3.sol\":4864:4874  _messageID */\n      dup3\n        /* \"contracts/BusinessConsensus3.sol\":4853:4875  voter_maps[_messageID] */\n      dup2\n      mstore\n      0x20\n      add\n      swap1\n      dup2\n      mstore\n      0x20\n      add\n      0x00\n      keccak256\n        /* \"contracts/BusinessConsensus3.sol\":4853:4887  voter_maps[_messageID][msg.sender] */\n      0x00\n        /* \"contracts/BusinessConsensus3.sol\":4876:4886  msg.sender */\n      caller\n        /* \"contracts/BusinessConsensus3.sol\":4853:4887  voter_maps[_messageID][msg.sender] */\n      0xffffffffffffffffffffffffffffffffffffffff\n      and\n      0xffffffffffffffffffffffffffffffffffffffff\n      and\n      dup2\n      mstore\n      0x20\n      add\n      swap1\n      dup2\n      mstore\n      0x20\n      add\n      0x00\n      keccak256\n        /* \"contracts/BusinessConsensus3.sol\":4853:4893  voter_maps[_messageID][msg.sender].voted */\n      0x00\n      add\n      0x00\n      swap1\n      sload\n      swap1\n      0x0100\n      exp\n      swap1\n      div\n      0xff\n      and\n        /* \"contracts/BusinessConsensus3.sol\":4852:4893  !voter_maps[_messageID][msg.sender].voted */\n      iszero\n        /* \"contracts/BusinessConsensus3.sol\":4844:4926  require(!voter_maps[_messageID][msg.sender].voted, \"You already sent a response.\") */\n      tag_181\n      jumpi\n      mload(0x40)\n      0x08c379a000000000000000000000000000000000000000000000000000000000\n      dup2\n      mstore\n      0x04\n      add\n      tag_182\n      swap1\n      tag_183\n      jump\t// in\n    tag_182:\n      mload(0x40)\n      dup1\n      swap2\n      sub\n      swap1\n      revert\n    tag_181:\n        /* \"contracts/BusinessConsensus3.sol\":4982:5000  bytes(\"i approve\") */\n      mload(0x40)\n      dup1\n      0x40\n      add\n      0x40\n      mstore\n      dup1\n      0x09\n      dup2\n      mstore\n      0x20\n      add\n      0x6920617070726f76650000000000000000000000000000000000000000000000\n      dup2\n      mstore\n      pop\n        /* \"contracts/BusinessConsensus3.sol\":4972:5001  keccak256(bytes(\"i approve\")) */\n      dup1\n      mload\n      swap1\n      0x20\n      add\n      keccak256\n        /* \"contracts/BusinessConsensus3.sol\":4958:4966  response */\n      dup3\n        /* \"contracts/BusinessConsensus3.sol\":4942:4968  keccak256(bytes(response)) */\n      dup1\n      mload\n      swap1\n      0x20\n      add\n      keccak256\n        /* \"contracts/BusinessConsensus3.sol\":4942:5001  keccak256(bytes(response)) == keccak256(bytes(\"i approve\")) */\n      eq\n        /* \"contracts/BusinessConsensus3.sol\":4939:5899  if(keccak256(bytes(response)) == keccak256(bytes(\"i approve\"))){\r... */\n      iszero\n      tag_184\n      jumpi\n        /* \"contracts/BusinessConsensus3.sol\":5060:5064  true */\n      0x01\n        /* \"contracts/BusinessConsensus3.sol\":5017:5027  voter_maps */\n      0x0a\n        /* \"contracts/BusinessConsensus3.sol\":5017:5039  voter_maps[_messageID] */\n      0x00\n        /* \"contracts/BusinessConsensus3.sol\":5028:5038  _messageID */\n      dup4\n        /* \"contracts/BusinessConsensus3.sol\":5017:5039  voter_maps[_messageID] */\n      dup2\n      mstore\n      0x20\n      add\n      swap1\n      dup2\n      mstore\n      0x20\n      add\n      0x00\n      keccak256\n        /* \"contracts/BusinessConsensus3.sol\":5017:5051  voter_maps[_messageID][msg.sender] */\n      0x00\n        /* \"contracts/BusinessConsensus3.sol\":5040:5050  msg.sender */\n      caller\n        /* \"contracts/BusinessConsensus3.sol\":5017:5051  voter_maps[_messageID][msg.sender] */\n      0xffffffffffffffffffffffffffffffffffffffff\n      and\n      0xffffffffffffffffffffffffffffffffffffffff\n      and\n      dup2\n      mstore\n      0x20\n      add\n      swap1\n      dup2\n      mstore\n      0x20\n      add\n      0x00\n      keccak256\n        /* \"contracts/BusinessConsensus3.sol\":5017:5057  voter_maps[_messageID][msg.sender].voted */\n      0x00\n      add\n      0x00\n        /* \"contracts/BusinessConsensus3.sol\":5017:5064  voter_maps[_messageID][msg.sender].voted = true */\n      0x0100\n      exp\n      dup2\n      sload\n      dup2\n      0xff\n      mul\n      not\n      and\n      swap1\n      dup4\n      iszero\n      iszero\n      mul\n      or\n      swap1\n      sstore\n      pop\n        /* \"contracts/BusinessConsensus3.sol\":5121:5125  true */\n      0x01\n        /* \"contracts/BusinessConsensus3.sol\":5079:5089  voter_maps */\n      0x0a\n        /* \"contracts/BusinessConsensus3.sol\":5079:5101  voter_maps[_messageID] */\n      0x00\n        /* \"contracts/BusinessConsensus3.sol\":5090:5100  _messageID */\n      dup4\n        /* \"contracts/BusinessConsensus3.sol\":5079:5101  voter_maps[_messageID] */\n      dup2\n      mstore\n      0x20\n      add\n      swap1\n      dup2\n      mstore\n      0x20\n      add\n      0x00\n      keccak256\n        /* \"contracts/BusinessConsensus3.sol\":5079:5113  voter_maps[_messageID][msg.sender] */\n      0x00\n        /* \"contracts/BusinessConsensus3.sol\":5102:5112  msg.sender */\n      caller\n        /* \"contracts/BusinessConsensus3.sol\":5079:5113  voter_maps[_messageID][msg.sender] */\n      0xffffffffffffffffffffffffffffffffffffffff\n      and\n      0xffffffffffffffffffffffffffffffffffffffff\n      and\n      dup2\n      mstore\n      0x20\n      add\n      swap1\n      dup2\n      mstore\n      0x20\n      add\n      0x00\n      keccak256\n        /* \"contracts/BusinessConsensus3.sol\":5079:5118  voter_maps[_messageID][msg.sender].vote */\n      0x00\n      add\n      0x01\n        /* \"contracts/BusinessConsensus3.sol\":5079:5125  voter_maps[_messageID][msg.sender].vote = true */\n      0x0100\n      exp\n      dup2\n      sload\n      dup2\n      0xff\n      mul\n      not\n      and\n      swap1\n      dup4\n      iszero\n      iszero\n      mul\n      or\n      swap1\n      sstore\n      pop\n        /* \"contracts/BusinessConsensus3.sol\":5168:5169  1 */\n      0x01\n        /* \"contracts/BusinessConsensus3.sol\":5140:5152  numApprovals */\n      0x05\n        /* \"contracts/BusinessConsensus3.sol\":5140:5164  numApprovals[_messageID] */\n      0x00\n        /* \"contracts/BusinessConsensus3.sol\":5153:5163  _messageID */\n      dup4\n        /* \"contracts/BusinessConsensus3.sol\":5140:5164  numApprovals[_messageID] */\n      dup2\n      mstore\n      0x20\n      add\n      swap1\n      dup2\n      mstore\n      0x20\n      add\n      0x00\n      keccak256\n      0x00\n        /* \"contracts/BusinessConsensus3.sol\":5140:5169  numApprovals[_messageID] += 1 */\n      dup3\n      dup3\n      sload\n      tag_185\n      swap2\n      swap1\n      tag_186\n      jump\t// in\n    tag_185:\n      swap3\n      pop\n      pop\n      dup2\n      swap1\n      sstore\n      pop\n        /* \"contracts/BusinessConsensus3.sol\":5227:5228  1 */\n      0x01\n        /* \"contracts/BusinessConsensus3.sol\":5184:5201  businessProposals */\n      0x00\n        /* \"contracts/BusinessConsensus3.sol\":5184:5213  businessProposals[_messageID] */\n      dup1\n        /* \"contracts/BusinessConsensus3.sol\":5202:5212  _messageID */\n      dup4\n        /* \"contracts/BusinessConsensus3.sol\":5184:5213  businessProposals[_messageID] */\n      dup2\n      mstore\n      0x20\n      add\n      swap1\n      dup2\n      mstore\n      0x20\n      add\n      0x00\n      keccak256\n        /* \"contracts/BusinessConsensus3.sol\":5184:5223  businessProposals[_messageID].voteCount */\n      0x00\n      add\n      0x00\n        /* \"contracts/BusinessConsensus3.sol\":5184:5228  businessProposals[_messageID].voteCount += 1 */\n      dup3\n      dup3\n      sload\n      tag_187\n      swap2\n      swap1\n      tag_186\n      jump\t// in\n    tag_187:\n      swap3\n      pop\n      pop\n      dup2\n      swap1\n      sstore\n      pop\n        /* \"contracts/BusinessConsensus3.sol\":5243:5249  Voters */\n      0x0b\n        /* \"contracts/BusinessConsensus3.sol\":5243:5261  Voters[_messageID] */\n      0x00\n        /* \"contracts/BusinessConsensus3.sol\":5250:5260  _messageID */\n      dup3\n        /* \"contracts/BusinessConsensus3.sol\":5243:5261  Voters[_messageID] */\n      dup2\n      mstore\n      0x20\n      add\n      swap1\n      dup2\n      mstore\n      0x20\n      add\n      0x00\n      keccak256\n        /* \"contracts/BusinessConsensus3.sol\":5267:5277  voter_maps */\n      0x0a\n        /* \"contracts/BusinessConsensus3.sol\":5267:5289  voter_maps[_messageID] */\n      0x00\n        /* \"contracts/BusinessConsensus3.sol\":5278:5288  _messageID */\n      dup4\n        /* \"contracts/BusinessConsensus3.sol\":5267:5289  voter_maps[_messageID] */\n      dup2\n      mstore\n      0x20\n      add\n      swap1\n      dup2\n      mstore\n      0x20\n      add\n      0x00\n      keccak256\n        /* \"contracts/BusinessConsensus3.sol\":5267:5301  voter_maps[_messageID][msg.sender] */\n      0x00\n        /* \"contracts/BusinessConsensus3.sol\":5290:5300  msg.sender */\n      caller\n        /* \"contracts/BusinessConsensus3.sol\":5267:5301  voter_maps[_messageID][msg.sender] */\n      0xffffffffffffffffffffffffffffffffffffffff\n      and\n      0xffffffffffffffffffffffffffffffffffffffff\n      and\n      dup2\n      mstore\n      0x20\n      add\n      swap1\n      dup2\n      mstore\n      0x20\n      add\n      0x00\n      keccak256\n        /* \"contracts/BusinessConsensus3.sol\":5243:5302  Voters[_messageID].push(voter_maps[_messageID][msg.sender]) */\n      swap1\n      dup1\n      0x01\n      dup2\n      sload\n      add\n      dup1\n      dup3\n      sstore\n      dup1\n      swap2\n      pop\n      pop\n      0x01\n      swap1\n      sub\n      swap1\n      0x00\n      mstore\n      keccak256(0x00, 0x20)\n      add\n      0x00\n      swap1\n      swap2\n      swap1\n      swap2\n      swap1\n      swap2\n      pop\n      0x00\n      dup3\n      add\n      0x00\n      swap1\n      sload\n      swap1\n      0x0100\n      exp\n      swap1\n      div\n      0xff\n      and\n      dup2\n      0x00\n      add\n      exp(0x0100, 0x00)\n      dup2\n      sload\n      dup2\n      0xff\n      mul\n      not\n      and\n      swap1\n      dup4\n      iszero\n      iszero\n      mul\n      or\n      swap1\n      sstore\n      pop\n      0x00\n      dup3\n      add\n      0x01\n      swap1\n      sload\n      swap1\n      0x0100\n      exp\n      swap1\n      div\n      0xff\n      and\n      dup2\n      0x00\n      add\n      exp(0x0100, 0x01)\n      dup2\n      sload\n      dup2\n      0xff\n      mul\n      not\n      and\n      swap1\n      dup4\n      iszero\n      iszero\n      mul\n      or\n      swap1\n      sstore\n      pop\n      0x00\n      dup3\n      add\n      0x02\n      swap1\n      sload\n      swap1\n      0x0100\n      exp\n      swap1\n      div\n      0xffffffffffffffffffffffffffffffffffffffff\n      and\n      dup2\n      0x00\n      add\n      exp(0x0100, 0x02)\n      dup2\n      sload\n      dup2\n      0xffffffffffffffffffffffffffffffffffffffff\n      mul\n      not\n      and\n      swap1\n      dup4\n      0xffffffffffffffffffffffffffffffffffffffff\n      and\n      mul\n      or\n      swap1\n      sstore\n      pop\n      pop\n      pop\n        /* \"contracts/BusinessConsensus3.sol\":4939:5899  if(keccak256(bytes(response)) == keccak256(bytes(\"i approve\"))){\r... */\n      jump(tag_189)\n    tag_184:\n        /* \"contracts/BusinessConsensus3.sol\":5374:5395  bytes(\"i disapprove\") */\n      mload(0x40)\n      dup1\n      0x40\n      add\n      0x40\n      mstore\n      dup1\n      0x0c\n      dup2\n      mstore\n      0x20\n      add\n      0x6920646973617070726f76650000000000000000000000000000000000000000\n      dup2\n      mstore\n      pop\n        /* \"contracts/BusinessConsensus3.sol\":5364:5396  keccak256(bytes(\"i disapprove\")) */\n      dup1\n      mload\n      swap1\n      0x20\n      add\n      keccak256\n        /* \"contracts/BusinessConsensus3.sol\":5350:5358  response */\n      dup3\n        /* \"contracts/BusinessConsensus3.sol\":5334:5360  keccak256(bytes(response)) */\n      dup1\n      mload\n      swap1\n      0x20\n      add\n      keccak256\n        /* \"contracts/BusinessConsensus3.sol\":5334:5396  keccak256(bytes(response)) == keccak256(bytes(\"i disapprove\")) */\n      eq\n        /* \"contracts/BusinessConsensus3.sol\":5331:5899  if(keccak256(bytes(response)) == keccak256(bytes(\"i disapprove\"))){\r... */\n      iszero\n      tag_190\n      jumpi\n        /* \"contracts/BusinessConsensus3.sol\":5455:5459  true */\n      0x01\n        /* \"contracts/BusinessConsensus3.sol\":5412:5422  voter_maps */\n      0x0a\n        /* \"contracts/BusinessConsensus3.sol\":5412:5434  voter_maps[_messageID] */\n      0x00\n        /* \"contracts/BusinessConsensus3.sol\":5423:5433  _messageID */\n      dup4\n        /* \"contracts/BusinessConsensus3.sol\":5412:5434  voter_maps[_messageID] */\n      dup2\n      mstore\n      0x20\n      add\n      swap1\n      dup2\n      mstore\n      0x20\n      add\n      0x00\n      keccak256\n        /* \"contracts/BusinessConsensus3.sol\":5412:5446  voter_maps[_messageID][msg.sender] */\n      0x00\n        /* \"contracts/BusinessConsensus3.sol\":5435:5445  msg.sender */\n      caller\n        /* \"contracts/BusinessConsensus3.sol\":5412:5446  voter_maps[_messageID][msg.sender] */\n      0xffffffffffffffffffffffffffffffffffffffff\n      and\n      0xffffffffffffffffffffffffffffffffffffffff\n      and\n      dup2\n      mstore\n      0x20\n      add\n      swap1\n      dup2\n      mstore\n      0x20\n      add\n      0x00\n      keccak256\n        /* \"contracts/BusinessConsensus3.sol\":5412:5452  voter_maps[_messageID][msg.sender].voted */\n      0x00\n      add\n      0x00\n        /* \"contracts/BusinessConsensus3.sol\":5412:5459  voter_maps[_messageID][msg.sender].voted = true */\n      0x0100\n      exp\n      dup2\n      sload\n      dup2\n      0xff\n      mul\n      not\n      and\n      swap1\n      dup4\n      iszero\n      iszero\n      mul\n      or\n      swap1\n      sstore\n      pop\n        /* \"contracts/BusinessConsensus3.sol\":5517:5518  1 */\n      0x01\n        /* \"contracts/BusinessConsensus3.sol\":5474:5491  businessProposals */\n      0x00\n        /* \"contracts/BusinessConsensus3.sol\":5474:5503  businessProposals[_messageID] */\n      dup1\n        /* \"contracts/BusinessConsensus3.sol\":5492:5502  _messageID */\n      dup4\n        /* \"contracts/BusinessConsensus3.sol\":5474:5503  businessProposals[_messageID] */\n      dup2\n      mstore\n      0x20\n      add\n      swap1\n      dup2\n      mstore\n      0x20\n      add\n      0x00\n      keccak256\n        /* \"contracts/BusinessConsensus3.sol\":5474:5513  businessProposals[_messageID].voteCount */\n      0x00\n      add\n      0x00\n        /* \"contracts/BusinessConsensus3.sol\":5474:5518  businessProposals[_messageID].voteCount += 1 */\n      dup3\n      dup3\n      sload\n      tag_191\n      swap2\n      swap1\n      tag_186\n      jump\t// in\n    tag_191:\n      swap3\n      pop\n      pop\n      dup2\n      swap1\n      sstore\n      pop\n        /* \"contracts/BusinessConsensus3.sol\":5533:5539  Voters */\n      0x0b\n        /* \"contracts/BusinessConsensus3.sol\":5533:5551  Voters[_messageID] */\n      0x00\n        /* \"contracts/BusinessConsensus3.sol\":5540:5550  _messageID */\n      dup3\n        /* \"contracts/BusinessConsensus3.sol\":5533:5551  Voters[_messageID] */\n      dup2\n      mstore\n      0x20\n      add\n      swap1\n      dup2\n      mstore\n      0x20\n      add\n      0x00\n      keccak256\n        /* \"contracts/BusinessConsensus3.sol\":5557:5567  voter_maps */\n      0x0a\n        /* \"contracts/BusinessConsensus3.sol\":5557:5579  voter_maps[_messageID] */\n      0x00\n        /* \"contracts/BusinessConsensus3.sol\":5568:5578  _messageID */\n      dup4\n        /* \"contracts/BusinessConsensus3.sol\":5557:5579  voter_maps[_messageID] */\n      dup2\n      mstore\n      0x20\n      add\n      swap1\n      dup2\n      mstore\n      0x20\n      add\n      0x00\n      keccak256\n        /* \"contracts/BusinessConsensus3.sol\":5557:5591  voter_maps[_messageID][msg.sender] */\n      0x00\n        /* \"contracts/BusinessConsensus3.sol\":5580:5590  msg.sender */\n      caller\n        /* \"contracts/BusinessConsensus3.sol\":5557:5591  voter_maps[_messageID][msg.sender] */\n      0xffffffffffffffffffffffffffffffffffffffff\n      and\n      0xffffffffffffffffffffffffffffffffffffffff\n      and\n      dup2\n      mstore\n      0x20\n      add\n      swap1\n      dup2\n      mstore\n      0x20\n      add\n      0x00\n      keccak256\n        /* \"contracts/BusinessConsensus3.sol\":5533:5592  Voters[_messageID].push(voter_maps[_messageID][msg.sender]) */\n      swap1\n      dup1\n      0x01\n      dup2\n      sload\n      add\n      dup1\n      dup3\n      sstore\n      dup1\n      swap2\n      pop\n      pop\n      0x01\n      swap1\n      sub\n      swap1\n      0x00\n      mstore\n      keccak256(0x00, 0x20)\n      add\n      0x00\n      swap1\n      swap2\n      swap1\n      swap2\n      swap1\n      swap2\n      pop\n      0x00\n      dup3\n      add\n      0x00\n      swap1\n      sload\n      swap1\n      0x0100\n      exp\n      swap1\n      div\n      0xff\n      and\n      dup2\n      0x00\n      add\n      exp(0x0100, 0x00)\n      dup2\n      sload\n      dup2\n      0xff\n      mul\n      not\n      and\n      swap1\n      dup4\n      iszero\n      iszero\n      mul\n      or\n      swap1\n      sstore\n      pop\n      0x00\n      dup3\n      add\n      0x01\n      swap1\n      sload\n      swap1\n      0x0100\n      exp\n      swap1\n      div\n      0xff\n      and\n      dup2\n      0x00\n      add\n      exp(0x0100, 0x01)\n      dup2\n      sload\n      dup2\n      0xff\n      mul\n      not\n      and\n      swap1\n      dup4\n      iszero\n      iszero\n      mul\n      or\n      swap1\n      sstore\n      pop\n      0x00\n      dup3\n      add\n      0x02\n      swap1\n      sload\n      swap1\n      0x0100\n      exp\n      swap1\n      div\n      0xffffffffffffffffffffffffffffffffffffffff\n      and\n      dup2\n      0x00\n      add\n      exp(0x0100, 0x02)\n      dup2\n      sload\n      dup2\n      0xffffffffffffffffffffffffffffffffffffffff\n      mul\n      not\n      and\n      swap1\n      dup4\n      0xffffffffffffffffffffffffffffffffffffffff\n      and\n      mul\n      or\n      swap1\n      sstore\n      pop\n      pop\n      pop\n        /* \"contracts/BusinessConsensus3.sol\":5331:5899  if(keccak256(bytes(response)) == keccak256(bytes(\"i disapprove\"))){\r... */\n      jump(tag_193)\n    tag_190:\n        /* \"contracts/BusinessConsensus3.sol\":5750:5754  true */\n      0x01\n        /* \"contracts/BusinessConsensus3.sol\":5707:5717  voter_maps */\n      0x0a\n        /* \"contracts/BusinessConsensus3.sol\":5707:5729  voter_maps[_messageID] */\n      0x00\n        /* \"contracts/BusinessConsensus3.sol\":5718:5728  _messageID */\n      dup4\n        /* \"contracts/BusinessConsensus3.sol\":5707:5729  voter_maps[_messageID] */\n      dup2\n      mstore\n      0x20\n      add\n      swap1\n      dup2\n      mstore\n      0x20\n      add\n      0x00\n      keccak256\n        /* \"contracts/BusinessConsensus3.sol\":5707:5741  voter_maps[_messageID][msg.sender] */\n      0x00\n        /* \"contracts/BusinessConsensus3.sol\":5730:5740  msg.sender */\n      caller\n        /* \"contracts/BusinessConsensus3.sol\":5707:5741  voter_maps[_messageID][msg.sender] */\n      0xffffffffffffffffffffffffffffffffffffffff\n      and\n      0xffffffffffffffffffffffffffffffffffffffff\n      and\n      dup2\n      mstore\n      0x20\n      add\n      swap1\n      dup2\n      mstore\n      0x20\n      add\n      0x00\n      keccak256\n        /* \"contracts/BusinessConsensus3.sol\":5707:5747  voter_maps[_messageID][msg.sender].voted */\n      0x00\n      add\n      0x00\n        /* \"contracts/BusinessConsensus3.sol\":5707:5754  voter_maps[_messageID][msg.sender].voted = true */\n      0x0100\n      exp\n      dup2\n      sload\n      dup2\n      0xff\n      mul\n      not\n      and\n      swap1\n      dup4\n      iszero\n      iszero\n      mul\n      or\n      swap1\n      sstore\n      pop\n        /* \"contracts/BusinessConsensus3.sol\":5812:5813  1 */\n      0x01\n        /* \"contracts/BusinessConsensus3.sol\":5769:5786  businessProposals */\n      0x00\n        /* \"contracts/BusinessConsensus3.sol\":5769:5798  businessProposals[_messageID] */\n      dup1\n        /* \"contracts/BusinessConsensus3.sol\":5787:5797  _messageID */\n      dup4\n        /* \"contracts/BusinessConsensus3.sol\":5769:5798  businessProposals[_messageID] */\n      dup2\n      mstore\n      0x20\n      add\n      swap1\n      dup2\n      mstore\n      0x20\n      add\n      0x00\n      keccak256\n        /* \"contracts/BusinessConsensus3.sol\":5769:5808  businessProposals[_messageID].voteCount */\n      0x00\n      add\n      0x00\n        /* \"contracts/BusinessConsensus3.sol\":5769:5813  businessProposals[_messageID].voteCount += 1 */\n      dup3\n      dup3\n      sload\n      tag_194\n      swap2\n      swap1\n      tag_186\n      jump\t// in\n    tag_194:\n      swap3\n      pop\n      pop\n      dup2\n      swap1\n      sstore\n      pop\n        /* \"contracts/BusinessConsensus3.sol\":5828:5834  Voters */\n      0x0b\n        /* \"contracts/BusinessConsensus3.sol\":5828:5846  Voters[_messageID] */\n      0x00\n        /* \"contracts/BusinessConsensus3.sol\":5835:5845  _messageID */\n      dup3\n        /* \"contracts/BusinessConsensus3.sol\":5828:5846  Voters[_messageID] */\n      dup2\n      mstore\n      0x20\n      add\n      swap1\n      dup2\n      mstore\n      0x20\n      add\n      0x00\n      keccak256\n        /* \"contracts/BusinessConsensus3.sol\":5852:5862  voter_maps */\n      0x0a\n        /* \"contracts/BusinessConsensus3.sol\":5852:5874  voter_maps[_messageID] */\n      0x00\n        /* \"contracts/BusinessConsensus3.sol\":5863:5873  _messageID */\n      dup4\n        /* \"contracts/BusinessConsensus3.sol\":5852:5874  voter_maps[_messageID] */\n      dup2\n      mstore\n      0x20\n      add\n      swap1\n      dup2\n      mstore\n      0x20\n      add\n      0x00\n      keccak256\n        /* \"contracts/BusinessConsensus3.sol\":5852:5886  voter_maps[_messageID][msg.sender] */\n      0x00\n        /* \"contracts/BusinessConsensus3.sol\":5875:5885  msg.sender */\n      caller\n        /* \"contracts/BusinessConsensus3.sol\":5852:5886  voter_maps[_messageID][msg.sender] */\n      0xffffffffffffffffffffffffffffffffffffffff\n      and\n      0xffffffffffffffffffffffffffffffffffffffff\n      and\n      dup2\n      mstore\n      0x20\n      add\n      swap1\n      dup2\n      mstore\n      0x20\n      add\n      0x00\n      keccak256\n        /* \"contracts/BusinessConsensus3.sol\":5828:5887  Voters[_messageID].push(voter_maps[_messageID][msg.sender]) */\n      swap1\n      dup1\n      0x01\n      dup2\n      sload\n      add\n      dup1\n      dup3\n      sstore\n      dup1\n      swap2\n      pop\n      pop\n      0x01\n      swap1\n      sub\n      swap1\n      0x00\n      mstore\n      keccak256(0x00, 0x20)\n      add\n      0x00\n      swap1\n      swap2\n      swap1\n      swap2\n      swap1\n      swap2\n      pop\n      0x00\n      dup3\n      add\n      0x00\n      swap1\n      sload\n      swap1\n      0x0100\n      exp\n      swap1\n      div\n      0xff\n      and\n      dup2\n      0x00\n      add\n      exp(0x0100, 0x00)\n      dup2\n      sload\n      dup2\n      0xff\n      mul\n      not\n      and\n      swap1\n      dup4\n      iszero\n      iszero\n      mul\n      or\n      swap1\n      sstore\n      pop\n      0x00\n      dup3\n      add\n      0x01\n      swap1\n      sload\n      swap1\n      0x0100\n      exp\n      swap1\n      div\n      0xff\n      and\n      dup2\n      0x00\n      add\n      exp(0x0100, 0x01)\n      dup2\n      sload\n      dup2\n      0xff\n      mul\n      not\n      and\n      swap1\n      dup4\n      iszero\n      iszero\n      mul\n      or\n      swap1\n      sstore\n      pop\n      0x00\n      dup3\n      add\n      0x02\n      swap1\n      sload\n      swap1\n      0x0100\n      exp\n      swap1\n      div\n      0xffffffffffffffffffffffffffffffffffffffff\n      and\n      dup2\n      0x00\n      add\n      exp(0x0100, 0x02)\n      dup2\n      sload\n      dup2\n      0xffffffffffffffffffffffffffffffffffffffff\n      mul\n      not\n      and\n      swap1\n      dup4\n      0xffffffffffffffffffffffffffffffffffffffff\n      and\n      mul\n      or\n      swap1\n      sstore\n      pop\n      pop\n      pop\n        /* \"contracts/BusinessConsensus3.sol\":5331:5899  if(keccak256(bytes(response)) == keccak256(bytes(\"i disapprove\"))){\r... */\n    tag_193:\n        /* \"contracts/BusinessConsensus3.sol\":4939:5899  if(keccak256(bytes(response)) == keccak256(bytes(\"i approve\"))){\r... */\n    tag_189:\n        /* \"contracts/BusinessConsensus3.sol\":4551:5916  function Vote(string memory response,bytes32 _messageID) external {\r... */\n      pop\n      pop\n      jump\t// out\n        /* \"contracts/BusinessConsensus3.sol\":1307:2568  function createContract(bytes32 _messageID, uint256 expiry, uint256 requiredPercentage,bytes32 _contents,bytes32 subject,string memory _messageDate) external{\r... */\n    tag_83:\n        /* \"contracts/BusinessConsensus3.sol\":1602:1603  0 */\n      0x00\n        /* \"contracts/BusinessConsensus3.sol\":1568:1604  initiators[_messageID] == address(0) */\n      0xffffffffffffffffffffffffffffffffffffffff\n      and\n        /* \"contracts/BusinessConsensus3.sol\":1568:1578  initiators */\n      0x01\n        /* \"contracts/BusinessConsensus3.sol\":1568:1590  initiators[_messageID] */\n      0x00\n        /* \"contracts/BusinessConsensus3.sol\":1579:1589  _messageID */\n      dup9\n        /* \"contracts/BusinessConsensus3.sol\":1568:1590  initiators[_messageID] */\n      dup2\n      mstore\n      0x20\n      add\n      swap1\n      dup2\n      mstore\n      0x20\n      add\n      0x00\n      keccak256\n      0x00\n      swap1\n      sload\n      swap1\n      0x0100\n      exp\n      swap1\n      div\n      0xffffffffffffffffffffffffffffffffffffffff\n      and\n        /* \"contracts/BusinessConsensus3.sol\":1568:1604  initiators[_messageID] == address(0) */\n      0xffffffffffffffffffffffffffffffffffffffff\n      and\n      eq\n        /* \"contracts/BusinessConsensus3.sol\":1560:1633  require(initiators[_messageID] == address(0),\"Proposal already created!\") */\n      tag_197\n      jumpi\n      mload(0x40)\n      0x08c379a000000000000000000000000000000000000000000000000000000000\n      dup2\n      mstore\n      0x04\n      add\n      tag_198\n      swap1\n      tag_199\n      jump\t// in\n    tag_198:\n      mload(0x40)\n      dup1\n      swap2\n      sub\n      swap1\n      revert\n    tag_197:\n        /* \"contracts/BusinessConsensus3.sol\":1644:1668  Proposal memory proposal */\n      0x00\n        /* \"contracts/BusinessConsensus3.sol\":1671:1842  Proposal({\r... */\n      mload(0x40)\n      dup1\n      0x60\n      add\n      0x40\n      mstore\n      dup1\n        /* \"contracts/BusinessConsensus3.sol\":1710:1711  0 */\n      0x00\n        /* \"contracts/BusinessConsensus3.sol\":1671:1842  Proposal({\r... */\n      dup2\n      mstore\n      0x20\n      add\n        /* \"contracts/BusinessConsensus3.sol\":1761:1767  expiry */\n      dup8\n        /* \"contracts/BusinessConsensus3.sol\":1743:1758  block.timestamp */\n      timestamp\n        /* \"contracts/BusinessConsensus3.sol\":1743:1767  block.timestamp + expiry */\n      tag_200\n      swap2\n      swap1\n      tag_186\n      jump\t// in\n    tag_200:\n        /* \"contracts/BusinessConsensus3.sol\":1671:1842  Proposal({\r... */\n      dup2\n      mstore\n      0x20\n      add\n        /* \"contracts/BusinessConsensus3.sol\":1808:1826  requiredPercentage */\n      dup7\n        /* \"contracts/BusinessConsensus3.sol\":1671:1842  Proposal({\r... */\n      dup2\n      mstore\n      pop\n        /* \"contracts/BusinessConsensus3.sol\":1644:1842  Proposal memory proposal = Proposal({\r... */\n      swap1\n      pop\n        /* \"contracts/BusinessConsensus3.sol\":1872:1882  _messageID */\n      dup7\n        /* \"contracts/BusinessConsensus3.sol\":1857:1860  IDs */\n      0x02\n        /* \"contracts/BusinessConsensus3.sol\":1857:1869  IDs[subject] */\n      0x00\n        /* \"contracts/BusinessConsensus3.sol\":1861:1868  subject */\n      dup6\n        /* \"contracts/BusinessConsensus3.sol\":1857:1869  IDs[subject] */\n      dup2\n      mstore\n      0x20\n      add\n      swap1\n      dup2\n      mstore\n      0x20\n      add\n      0x00\n      keccak256\n        /* \"contracts/BusinessConsensus3.sol\":1857:1882  IDs[subject] = _messageID */\n      dup2\n      swap1\n      sstore\n      pop\n        /* \"contracts/BusinessConsensus3.sol\":1922:1927  false */\n      0x00\n        /* \"contracts/BusinessConsensus3.sol\":1897:1907  isCompiled */\n      0x08\n        /* \"contracts/BusinessConsensus3.sol\":1897:1919  isCompiled[_messageID] */\n      0x00\n        /* \"contracts/BusinessConsensus3.sol\":1908:1918  _messageID */\n      dup10\n        /* \"contracts/BusinessConsensus3.sol\":1897:1919  isCompiled[_messageID] */\n      dup2\n      mstore\n      0x20\n      add\n      swap1\n      dup2\n      mstore\n      0x20\n      add\n      0x00\n      keccak256\n      0x00\n        /* \"contracts/BusinessConsensus3.sol\":1897:1927  isCompiled[_messageID] = false */\n      0x0100\n      exp\n      dup2\n      sload\n      dup2\n      0xff\n      mul\n      not\n      and\n      swap1\n      dup4\n      iszero\n      iszero\n      mul\n      or\n      swap1\n      sstore\n      pop\n        /* \"contracts/BusinessConsensus3.sol\":1970:1975  false */\n      0x00\n        /* \"contracts/BusinessConsensus3.sol\":1942:1955  finalVerdicts */\n      0x07\n        /* \"contracts/BusinessConsensus3.sol\":1942:1967  finalVerdicts[_messageID] */\n      0x00\n        /* \"contracts/BusinessConsensus3.sol\":1956:1966  _messageID */\n      dup10\n        /* \"contracts/BusinessConsensus3.sol\":1942:1967  finalVerdicts[_messageID] */\n      dup2\n      mstore\n      0x20\n      add\n      swap1\n      dup2\n      mstore\n      0x20\n      add\n      0x00\n      keccak256\n      0x00\n        /* \"contracts/BusinessConsensus3.sol\":1942:1975  finalVerdicts[_messageID] = false */\n      0x0100\n      exp\n      dup2\n      sload\n      dup2\n      0xff\n      mul\n      not\n      and\n      swap1\n      dup4\n      iszero\n      iszero\n      mul\n      or\n      swap1\n      sstore\n      pop\n        /* \"contracts/BusinessConsensus3.sol\":2018:2024  expiry */\n      dup6\n        /* \"contracts/BusinessConsensus3.sol\":1990:2003  expiryLengths */\n      0x03\n        /* \"contracts/BusinessConsensus3.sol\":1990:2015  expiryLengths[_messageID] */\n      0x00\n        /* \"contracts/BusinessConsensus3.sol\":2004:2014  _messageID */\n      dup10\n        /* \"contracts/BusinessConsensus3.sol\":1990:2015  expiryLengths[_messageID] */\n      dup2\n      mstore\n      0x20\n      add\n      swap1\n      dup2\n      mstore\n      0x20\n      add\n      0x00\n      keccak256\n        /* \"contracts/BusinessConsensus3.sol\":1990:2024  expiryLengths[_messageID] = expiry */\n      dup2\n      swap1\n      sstore\n      pop\n        /* \"contracts/BusinessConsensus3.sol\":2064:2070  expiry */\n      dup6\n        /* \"contracts/BusinessConsensus3.sol\":2039:2052  expiryLengths */\n      0x03\n        /* \"contracts/BusinessConsensus3.sol\":2039:2061  expiryLengths[subject] */\n      0x00\n        /* \"contracts/BusinessConsensus3.sol\":2053:2060  subject */\n      dup6\n        /* \"contracts/BusinessConsensus3.sol\":2039:2061  expiryLengths[subject] */\n      dup2\n      mstore\n      0x20\n      add\n      swap1\n      dup2\n      mstore\n      0x20\n      add\n      0x00\n      keccak256\n        /* \"contracts/BusinessConsensus3.sol\":2039:2070  expiryLengths[subject] = expiry */\n      dup2\n      swap1\n      sstore\n      pop\n        /* \"contracts/BusinessConsensus3.sol\":2108:2117  _contents */\n      dup4\n        /* \"contracts/BusinessConsensus3.sol\":2085:2093  contents */\n      0x04\n        /* \"contracts/BusinessConsensus3.sol\":2085:2105  contents[_messageID] */\n      0x00\n        /* \"contracts/BusinessConsensus3.sol\":2094:2104  _messageID */\n      dup10\n        /* \"contracts/BusinessConsensus3.sol\":2085:2105  contents[_messageID] */\n      dup2\n      mstore\n      0x20\n      add\n      swap1\n      dup2\n      mstore\n      0x20\n      add\n      0x00\n      keccak256\n        /* \"contracts/BusinessConsensus3.sol\":2085:2117  contents[_messageID] = _contents */\n      dup2\n      swap1\n      sstore\n      pop\n        /* \"contracts/BusinessConsensus3.sol\":2152:2161  _contents */\n      dup4\n        /* \"contracts/BusinessConsensus3.sol\":2132:2140  contents */\n      0x04\n        /* \"contracts/BusinessConsensus3.sol\":2132:2149  contents[subject] */\n      0x00\n        /* \"contracts/BusinessConsensus3.sol\":2141:2148  subject */\n      dup6\n        /* \"contracts/BusinessConsensus3.sol\":2132:2149  contents[subject] */\n      dup2\n      mstore\n      0x20\n      add\n      swap1\n      dup2\n      mstore\n      0x20\n      add\n      0x00\n      keccak256\n        /* \"contracts/BusinessConsensus3.sol\":2132:2161  contents[subject] = _contents */\n      dup2\n      swap1\n      sstore\n      pop\n        /* \"contracts/BusinessConsensus3.sol\":2199:2206  subject */\n      dup3\n        /* \"contracts/BusinessConsensus3.sol\":2176:2184  subjects */\n      0x09\n        /* \"contracts/BusinessConsensus3.sol\":2176:2196  subjects[_messageID] */\n      0x00\n        /* \"contracts/BusinessConsensus3.sol\":2185:2195  _messageID */\n      dup10\n        /* \"contracts/BusinessConsensus3.sol\":2176:2196  subjects[_messageID] */\n      dup2\n      mstore\n      0x20\n      add\n      swap1\n      dup2\n      mstore\n      0x20\n      add\n      0x00\n      keccak256\n        /* \"contracts/BusinessConsensus3.sol\":2176:2206  subjects[_messageID] = subject */\n      dup2\n      swap1\n      sstore\n      pop\n        /* \"contracts/BusinessConsensus3.sol\":2248:2260  _messageDate */\n      dup2\n        /* \"contracts/BusinessConsensus3.sol\":2221:2233  messageDates */\n      0x06\n        /* \"contracts/BusinessConsensus3.sol\":2221:2245  messageDates[_messageID] */\n      0x00\n        /* \"contracts/BusinessConsensus3.sol\":2234:2244  _messageID */\n      dup10\n        /* \"contracts/BusinessConsensus3.sol\":2221:2245  messageDates[_messageID] */\n      dup2\n      mstore\n      0x20\n      add\n      swap1\n      dup2\n      mstore\n      0x20\n      add\n      0x00\n      keccak256\n        /* \"contracts/BusinessConsensus3.sol\":2221:2260  messageDates[_messageID] = _messageDate */\n      swap1\n      dup1\n      mload\n      swap1\n      0x20\n      add\n      swap1\n      tag_201\n      swap3\n      swap2\n      swap1\n      tag_202\n      jump\t// in\n    tag_201:\n      pop\n        /* \"contracts/BusinessConsensus3.sol\":2299:2311  _messageDate */\n      dup2\n        /* \"contracts/BusinessConsensus3.sol\":2275:2287  messageDates */\n      0x06\n        /* \"contracts/BusinessConsensus3.sol\":2275:2296  messageDates[subject] */\n      0x00\n        /* \"contracts/BusinessConsensus3.sol\":2288:2295  subject */\n      dup6\n        /* \"contracts/BusinessConsensus3.sol\":2275:2296  messageDates[subject] */\n      dup2\n      mstore\n      0x20\n      add\n      swap1\n      dup2\n      mstore\n      0x20\n      add\n      0x00\n      keccak256\n        /* \"contracts/BusinessConsensus3.sol\":2275:2311  messageDates[subject] = _messageDate */\n      swap1\n      dup1\n      mload\n      swap1\n      0x20\n      add\n      swap1\n      tag_203\n      swap3\n      swap2\n      swap1\n      tag_202\n      jump\t// in\n    tag_203:\n      pop\n        /* \"contracts/BusinessConsensus3.sol\":2353:2354  0 */\n      0x00\n        /* \"contracts/BusinessConsensus3.sol\":2326:2338  numApprovals */\n      0x05\n        /* \"contracts/BusinessConsensus3.sol\":2326:2350  numApprovals[_messageID] */\n      0x00\n        /* \"contracts/BusinessConsensus3.sol\":2339:2349  _messageID */\n      dup10\n        /* \"contracts/BusinessConsensus3.sol\":2326:2350  numApprovals[_messageID] */\n      dup2\n      mstore\n      0x20\n      add\n      swap1\n      dup2\n      mstore\n      0x20\n      add\n      0x00\n      keccak256\n        /* \"contracts/BusinessConsensus3.sol\":2326:2354  numApprovals[_messageID] = 0 */\n      dup2\n      swap1\n      sstore\n      pop\n        /* \"contracts/BusinessConsensus3.sol\":2394:2404  msg.sender */\n      caller\n        /* \"contracts/BusinessConsensus3.sol\":2369:2379  initiators */\n      0x01\n        /* \"contracts/BusinessConsensus3.sol\":2369:2391  initiators[_messageID] */\n      0x00\n        /* \"contracts/BusinessConsensus3.sol\":2380:2390  _messageID */\n      dup10\n        /* \"contracts/BusinessConsensus3.sol\":2369:2391  initiators[_messageID] */\n      dup2\n      mstore\n      0x20\n      add\n      swap1\n      dup2\n      mstore\n      0x20\n      add\n      0x00\n      keccak256\n      0x00\n        /* \"contracts/BusinessConsensus3.sol\":2369:2404  initiators[_messageID] = msg.sender */\n      0x0100\n      exp\n      dup2\n      sload\n      dup2\n      0xffffffffffffffffffffffffffffffffffffffff\n      mul\n      not\n      and\n      swap1\n      dup4\n      0xffffffffffffffffffffffffffffffffffffffff\n      and\n      mul\n      or\n      swap1\n      sstore\n      pop\n        /* \"contracts/BusinessConsensus3.sol\":2441:2451  msg.sender */\n      caller\n        /* \"contracts/BusinessConsensus3.sol\":2419:2429  initiators */\n      0x01\n        /* \"contracts/BusinessConsensus3.sol\":2419:2438  initiators[subject] */\n      0x00\n        /* \"contracts/BusinessConsensus3.sol\":2430:2437  subject */\n      dup6\n        /* \"contracts/BusinessConsensus3.sol\":2419:2438  initiators[subject] */\n      dup2\n      mstore\n      0x20\n      add\n      swap1\n      dup2\n      mstore\n      0x20\n      add\n      0x00\n      keccak256\n      0x00\n        /* \"contracts/BusinessConsensus3.sol\":2419:2451  initiators[subject] = msg.sender */\n      0x0100\n      exp\n      dup2\n      sload\n      dup2\n      0xffffffffffffffffffffffffffffffffffffffff\n      mul\n      not\n      and\n      swap1\n      dup4\n      0xffffffffffffffffffffffffffffffffffffffff\n      and\n      mul\n      or\n      swap1\n      sstore\n      pop\n        /* \"contracts/BusinessConsensus3.sol\":2498:2506  proposal */\n      dup1\n        /* \"contracts/BusinessConsensus3.sol\":2466:2483  businessProposals */\n      0x00\n        /* \"contracts/BusinessConsensus3.sol\":2466:2495  businessProposals[_messageID] */\n      dup1\n        /* \"contracts/BusinessConsensus3.sol\":2484:2494  _messageID */\n      dup10\n        /* \"contracts/BusinessConsensus3.sol\":2466:2495  businessProposals[_messageID] */\n      dup2\n      mstore\n      0x20\n      add\n      swap1\n      dup2\n      mstore\n      0x20\n      add\n      0x00\n      keccak256\n        /* \"contracts/BusinessConsensus3.sol\":2466:2506  businessProposals[_messageID] = proposal */\n      0x00\n      dup3\n      add\n      mload\n      dup2\n      0x00\n      add\n      sstore\n      0x20\n      dup3\n      add\n      mload\n      dup2\n      0x01\n      add\n      sstore\n      0x40\n      dup3\n      add\n      mload\n      dup2\n      0x02\n      add\n      sstore\n      swap1\n      pop\n      pop\n        /* \"contracts/BusinessConsensus3.sol\":2550:2558  proposal */\n      dup1\n        /* \"contracts/BusinessConsensus3.sol\":2521:2538  businessProposals */\n      0x00\n        /* \"contracts/BusinessConsensus3.sol\":2521:2547  businessProposals[subject] */\n      dup1\n        /* \"contracts/BusinessConsensus3.sol\":2539:2546  subject */\n      dup6\n        /* \"contracts/BusinessConsensus3.sol\":2521:2547  businessProposals[subject] */\n      dup2\n      mstore\n      0x20\n      add\n      swap1\n      dup2\n      mstore\n      0x20\n      add\n      0x00\n      keccak256\n        /* \"contracts/BusinessConsensus3.sol\":2521:2558  businessProposals[subject] = proposal */\n      0x00\n      dup3\n      add\n      mload\n      dup2\n      0x00\n      add\n      sstore\n      0x20\n      dup3\n      add\n      mload\n      dup2\n      0x01\n      add\n      sstore\n      0x40\n      dup3\n      add\n      mload\n      dup2\n      0x02\n      add\n      sstore\n      swap1\n      pop\n      pop\n        /* \"contracts/BusinessConsensus3.sol\":1464:2568  {\r... */\n      pop\n        /* \"contracts/BusinessConsensus3.sol\":1307:2568  function createContract(bytes32 _messageID, uint256 expiry, uint256 requiredPercentage,bytes32 _contents,bytes32 subject,string memory _messageDate) external{\r... */\n      pop\n      pop\n      pop\n      pop\n      pop\n      pop\n      jump\t// out\n        /* \"contracts/BusinessConsensus3.sol\":3538:3682  function getIsCreated(bytes32 subject) public view returns (bytes32,string memory){\r... */\n    tag_86:\n        /* \"contracts/BusinessConsensus3.sol\":3598:3605  bytes32 */\n      0x00\n        /* \"contracts/BusinessConsensus3.sol\":3606:3619  string memory */\n      0x60\n        /* \"contracts/BusinessConsensus3.sol\":3639:3642  IDs */\n      0x02\n        /* \"contracts/BusinessConsensus3.sol\":3639:3651  IDs[subject] */\n      0x00\n        /* \"contracts/BusinessConsensus3.sol\":3643:3650  subject */\n      dup5\n        /* \"contracts/BusinessConsensus3.sol\":3639:3651  IDs[subject] */\n      dup2\n      mstore\n      0x20\n      add\n      swap1\n      dup2\n      mstore\n      0x20\n      add\n      0x00\n      keccak256\n      sload\n        /* \"contracts/BusinessConsensus3.sol\":3652:3664  messageDates */\n      0x06\n        /* \"contracts/BusinessConsensus3.sol\":3652:3673  messageDates[subject] */\n      0x00\n        /* \"contracts/BusinessConsensus3.sol\":3665:3672  subject */\n      dup6\n        /* \"contracts/BusinessConsensus3.sol\":3652:3673  messageDates[subject] */\n      dup2\n      mstore\n      0x20\n      add\n      swap1\n      dup2\n      mstore\n      0x20\n      add\n      0x00\n      keccak256\n        /* \"contracts/BusinessConsensus3.sol\":3631:3674  return (IDs[subject],messageDates[subject]) */\n      dup1\n      dup1\n      sload\n      tag_205\n      swap1\n      tag_206\n      jump\t// in\n    tag_205:\n      dup1\n      0x1f\n      add\n      0x20\n      dup1\n      swap2\n      div\n      mul\n      0x20\n      add\n      mload(0x40)\n      swap1\n      dup2\n      add\n      0x40\n      mstore\n      dup1\n      swap3\n      swap2\n      swap1\n      dup2\n      dup2\n      mstore\n      0x20\n      add\n      dup3\n      dup1\n      sload\n      tag_207\n      swap1\n      tag_206\n      jump\t// in\n    tag_207:\n      dup1\n      iszero\n      tag_208\n      jumpi\n      dup1\n      0x1f\n      lt\n      tag_209\n      jumpi\n      0x0100\n      dup1\n      dup4\n      sload\n      div\n      mul\n      dup4\n      mstore\n      swap2\n      0x20\n      add\n      swap2\n      jump(tag_208)\n    tag_209:\n      dup3\n      add\n      swap2\n      swap1\n      0x00\n      mstore\n      keccak256(0x00, 0x20)\n      swap1\n    tag_210:\n      dup2\n      sload\n      dup2\n      mstore\n      swap1\n      0x01\n      add\n      swap1\n      0x20\n      add\n      dup1\n      dup4\n      gt\n      tag_210\n      jumpi\n      dup3\n      swap1\n      sub\n      0x1f\n      and\n      dup3\n      add\n      swap2\n    tag_208:\n      pop\n      pop\n      pop\n      pop\n      pop\n      swap1\n      pop\n      swap2\n      pop\n      swap2\n      pop\n        /* \"contracts/BusinessConsensus3.sol\":3538:3682  function getIsCreated(bytes32 subject) public view returns (bytes32,string memory){\r... */\n      swap2\n      pop\n      swap2\n      jump\t// out\n        /* \"contracts/BusinessConsensus3.sol\":1093:1136  mapping(bytes32 => bytes32) public subjects */\n    tag_91:\n      mstore(0x20, 0x09)\n      dup1\n      0x00\n      mstore\n      keccak256(0x00, 0x40)\n      0x00\n      swap2\n      pop\n      swap1\n      pop\n      sload\n      dup2\n      jump\t// out\n        /* \"contracts/BusinessConsensus3.sol\":939:985  mapping(bytes32 => string) public messageDates */\n    tag_96:\n      mstore(0x20, 0x06)\n      dup1\n      0x00\n      mstore\n      keccak256(0x00, 0x40)\n      0x00\n      swap2\n      pop\n      swap1\n      pop\n      dup1\n      sload\n      tag_211\n      swap1\n      tag_206\n      jump\t// in\n    tag_211:\n      dup1\n      0x1f\n      add\n      0x20\n      dup1\n      swap2\n      div\n      mul\n      0x20\n      add\n      mload(0x40)\n      swap1\n      dup2\n      add\n      0x40\n      mstore\n      dup1\n      swap3\n      swap2\n      swap1\n      dup2\n      dup2\n      mstore\n      0x20\n      add\n      dup3\n      dup1\n      sload\n      tag_212\n      swap1\n      tag_206\n      jump\t// in\n    tag_212:\n      dup1\n      iszero\n      tag_213\n      jumpi\n      dup1\n      0x1f\n      lt\n      tag_214\n      jumpi\n      0x0100\n      dup1\n      dup4\n      sload\n      div\n      mul\n      dup4\n      mstore\n      swap2\n      0x20\n      add\n      swap2\n      jump(tag_213)\n    tag_214:\n      dup3\n      add\n      swap2\n      swap1\n      0x00\n      mstore\n      keccak256(0x00, 0x20)\n      swap1\n    tag_215:\n      dup2\n      sload\n      dup2\n      mstore\n      swap1\n      0x01\n      add\n      swap1\n      0x20\n      add\n      dup1\n      dup4\n      gt\n      tag_215\n      jumpi\n      dup3\n      swap1\n      sub\n      0x1f\n      and\n      dup3\n      add\n      swap2\n    tag_213:\n      pop\n      pop\n      pop\n      pop\n      pop\n      dup2\n      jump\t// out\n        /* \"contracts/BusinessConsensus3.sol\":1143:1202  mapping(bytes32=>mapping(address=>Voter)) public voter_maps */\n    tag_102:\n      mstore(0x20, 0x0a)\n      dup2\n      0x00\n      mstore\n      mstore(0x20, keccak256(0x00, 0x40))\n      dup1\n      0x00\n      mstore\n      keccak256(0x00, 0x40)\n      0x00\n      swap2\n      pop\n      swap2\n      pop\n      pop\n      dup1\n      0x00\n      add\n      0x00\n      swap1\n      sload\n      swap1\n      0x0100\n      exp\n      swap1\n      div\n      0xff\n      and\n      swap1\n      dup1\n      0x00\n      add\n      0x01\n      swap1\n      sload\n      swap1\n      0x0100\n      exp\n      swap1\n      div\n      0xff\n      and\n      swap1\n      dup1\n      0x00\n      add\n      0x02\n      swap1\n      sload\n      swap1\n      0x0100\n      exp\n      swap1\n      div\n      0xffffffffffffffffffffffffffffffffffffffff\n      and\n      swap1\n      pop\n      dup4\n      jump\t// out\n        /* \"contracts/BusinessConsensus3.sol\":686:729  mapping(bytes32=>address) public initiators */\n    tag_106:\n      mstore(0x20, 0x01)\n      dup1\n      0x00\n      mstore\n      keccak256(0x00, 0x40)\n      0x00\n      swap2\n      pop\n      sload\n      swap1\n      0x0100\n      exp\n      swap1\n      div\n      0xffffffffffffffffffffffffffffffffffffffff\n      and\n      dup2\n      jump\t// out\n        /* \"contracts/BusinessConsensus3.sol\":3788:4543  function RegisterVoter(address voter,bytes32 _messageID) external {\r... */\n    tag_111:\n        /* \"contracts/BusinessConsensus3.sol\":3975:3985  initiators */\n      0x01\n        /* \"contracts/BusinessConsensus3.sol\":3975:3997  initiators[_messageID] */\n      0x00\n        /* \"contracts/BusinessConsensus3.sol\":3986:3996  _messageID */\n      dup3\n        /* \"contracts/BusinessConsensus3.sol\":3975:3997  initiators[_messageID] */\n      dup2\n      mstore\n      0x20\n      add\n      swap1\n      dup2\n      mstore\n      0x20\n      add\n      0x00\n      keccak256\n      0x00\n      swap1\n      sload\n      swap1\n      0x0100\n      exp\n      swap1\n      div\n      0xffffffffffffffffffffffffffffffffffffffff\n      and\n        /* \"contracts/BusinessConsensus3.sol\":3961:3997  msg.sender == initiators[_messageID] */\n      0xffffffffffffffffffffffffffffffffffffffff\n      and\n        /* \"contracts/BusinessConsensus3.sol\":3961:3971  msg.sender */\n      caller\n        /* \"contracts/BusinessConsensus3.sol\":3961:3997  msg.sender == initiators[_messageID] */\n      0xffffffffffffffffffffffffffffffffffffffff\n      and\n      eq\n        /* \"contracts/BusinessConsensus3.sol\":3939:4065  require(\r... */\n      tag_217\n      jumpi\n      mload(0x40)\n      0x08c379a000000000000000000000000000000000000000000000000000000000\n      dup2\n      mstore\n      0x04\n      add\n      tag_218\n      swap1\n      tag_219\n      jump\t// in\n    tag_218:\n      mload(0x40)\n      dup1\n      swap2\n      sub\n      swap1\n      revert\n    tag_217:\n        /* \"contracts/BusinessConsensus3.sol\":4093:4103  initiators */\n      0x01\n        /* \"contracts/BusinessConsensus3.sol\":4093:4115  initiators[_messageID] */\n      0x00\n        /* \"contracts/BusinessConsensus3.sol\":4104:4114  _messageID */\n      dup3\n        /* \"contracts/BusinessConsensus3.sol\":4093:4115  initiators[_messageID] */\n      dup2\n      mstore\n      0x20\n      add\n      swap1\n      dup2\n      mstore\n      0x20\n      add\n      0x00\n      keccak256\n      0x00\n      swap1\n      sload\n      swap1\n      0x0100\n      exp\n      swap1\n      div\n      0xffffffffffffffffffffffffffffffffffffffff\n      and\n        /* \"contracts/BusinessConsensus3.sol\":4084:4115  voter != initiators[_messageID] */\n      0xffffffffffffffffffffffffffffffffffffffff\n      and\n        /* \"contracts/BusinessConsensus3.sol\":4084:4089  voter */\n      dup3\n        /* \"contracts/BusinessConsensus3.sol\":4084:4115  voter != initiators[_messageID] */\n      0xffffffffffffffffffffffffffffffffffffffff\n      and\n      eq\n      iszero\n        /* \"contracts/BusinessConsensus3.sol\":4076:4141  require(voter != initiators[_messageID], \"Initiator can't vote!\") */\n      tag_220\n      jumpi\n      mload(0x40)\n      0x08c379a000000000000000000000000000000000000000000000000000000000\n      dup2\n      mstore\n      0x04\n      add\n      tag_221\n      swap1\n      tag_222\n      jump\t// in\n    tag_221:\n      mload(0x40)\n      dup1\n      swap2\n      sub\n      swap1\n      revert\n    tag_220:\n        /* \"contracts/BusinessConsensus3.sol\":4213:4214  0 */\n      0x00\n        /* \"contracts/BusinessConsensus3.sol\":4162:4215  voter_maps[_messageID][voter].recipient == address(0) */\n      0xffffffffffffffffffffffffffffffffffffffff\n      and\n        /* \"contracts/BusinessConsensus3.sol\":4162:4172  voter_maps */\n      0x0a\n        /* \"contracts/BusinessConsensus3.sol\":4162:4184  voter_maps[_messageID] */\n      0x00\n        /* \"contracts/BusinessConsensus3.sol\":4173:4183  _messageID */\n      dup4\n        /* \"contracts/BusinessConsensus3.sol\":4162:4184  voter_maps[_messageID] */\n      dup2\n      mstore\n      0x20\n      add\n      swap1\n      dup2\n      mstore\n      0x20\n      add\n      0x00\n      keccak256\n        /* \"contracts/BusinessConsensus3.sol\":4162:4191  voter_maps[_messageID][voter] */\n      0x00\n        /* \"contracts/BusinessConsensus3.sol\":4185:4190  voter */\n      dup5\n        /* \"contracts/BusinessConsensus3.sol\":4162:4191  voter_maps[_messageID][voter] */\n      0xffffffffffffffffffffffffffffffffffffffff\n      and\n      0xffffffffffffffffffffffffffffffffffffffff\n      and\n      dup2\n      mstore\n      0x20\n      add\n      swap1\n      dup2\n      mstore\n      0x20\n      add\n      0x00\n      keccak256\n        /* \"contracts/BusinessConsensus3.sol\":4162:4201  voter_maps[_messageID][voter].recipient */\n      0x00\n      add\n      0x02\n      swap1\n      sload\n      swap1\n      0x0100\n      exp\n      swap1\n      div\n      0xffffffffffffffffffffffffffffffffffffffff\n      and\n        /* \"contracts/BusinessConsensus3.sol\":4162:4215  voter_maps[_messageID][voter].recipient == address(0) */\n      0xffffffffffffffffffffffffffffffffffffffff\n      and\n      eq\n        /* \"contracts/BusinessConsensus3.sol\":4154:4251  require(voter_maps[_messageID][voter].recipient == address(0), \"Recipient is already registered\") */\n      tag_223\n      jumpi\n      mload(0x40)\n      0x08c379a000000000000000000000000000000000000000000000000000000000\n      dup2\n      mstore\n      0x04\n      add\n      tag_224\n      swap1\n      tag_225\n      jump\t// in\n    tag_224:\n      mload(0x40)\n      dup1\n      swap2\n      sub\n      swap1\n      revert\n    tag_223:\n        /* \"contracts/BusinessConsensus3.sol\":4290:4307  businessProposals */\n      0x00\n        /* \"contracts/BusinessConsensus3.sol\":4290:4319  businessProposals[_messageID] */\n      dup1\n        /* \"contracts/BusinessConsensus3.sol\":4308:4318  _messageID */\n      dup3\n        /* \"contracts/BusinessConsensus3.sol\":4290:4319  businessProposals[_messageID] */\n      dup2\n      mstore\n      0x20\n      add\n      swap1\n      dup2\n      mstore\n      0x20\n      add\n      0x00\n      keccak256\n        /* \"contracts/BusinessConsensus3.sol\":4290:4330  businessProposals[_messageID].expiryDate */\n      0x01\n      add\n      sload\n        /* \"contracts/BusinessConsensus3.sol\":4272:4287  block.timestamp */\n      timestamp\n        /* \"contracts/BusinessConsensus3.sol\":4272:4330  block.timestamp < businessProposals[_messageID].expiryDate */\n      lt\n        /* \"contracts/BusinessConsensus3.sol\":4264:4371  require(block.timestamp < businessProposals[_messageID].expiryDate, \"Proposal has reached its expiry date\") */\n      tag_226\n      jumpi\n      mload(0x40)\n      0x08c379a000000000000000000000000000000000000000000000000000000000\n      dup2\n      mstore\n      0x04\n      add\n      tag_227\n      swap1\n      tag_228\n      jump\t// in\n    tag_227:\n      mload(0x40)\n      dup1\n      swap2\n      sub\n      swap1\n      revert\n    tag_226:\n        /* \"contracts/BusinessConsensus3.sol\":4384:4398  Voter memory x */\n      0x00\n        /* \"contracts/BusinessConsensus3.sol\":4401:4452  Voter({voted: false,recipient: voter, vote: false}) */\n      mload(0x40)\n      dup1\n      0x60\n      add\n      0x40\n      mstore\n      dup1\n        /* \"contracts/BusinessConsensus3.sol\":4415:4420  false */\n      0x00\n        /* \"contracts/BusinessConsensus3.sol\":4401:4452  Voter({voted: false,recipient: voter, vote: false}) */\n      iszero\n      iszero\n      dup2\n      mstore\n      0x20\n      add\n        /* \"contracts/BusinessConsensus3.sol\":4445:4450  false */\n      0x00\n        /* \"contracts/BusinessConsensus3.sol\":4401:4452  Voter({voted: false,recipient: voter, vote: false}) */\n      iszero\n      iszero\n      dup2\n      mstore\n      0x20\n      add\n        /* \"contracts/BusinessConsensus3.sol\":4432:4437  voter */\n      dup5\n        /* \"contracts/BusinessConsensus3.sol\":4401:4452  Voter({voted: false,recipient: voter, vote: false}) */\n      0xffffffffffffffffffffffffffffffffffffffff\n      and\n      dup2\n      mstore\n      pop\n        /* \"contracts/BusinessConsensus3.sol\":4384:4452  Voter memory x = Voter({voted: false,recipient: voter, vote: false}) */\n      swap1\n      pop\n        /* \"contracts/BusinessConsensus3.sol\":4495:4496  x */\n      dup1\n        /* \"contracts/BusinessConsensus3.sol\":4463:4473  voter_maps */\n      0x0a\n        /* \"contracts/BusinessConsensus3.sol\":4463:4485  voter_maps[_messageID] */\n      0x00\n        /* \"contracts/BusinessConsensus3.sol\":4474:4484  _messageID */\n      dup5\n        /* \"contracts/BusinessConsensus3.sol\":4463:4485  voter_maps[_messageID] */\n      dup2\n      mstore\n      0x20\n      add\n      swap1\n      dup2\n      mstore\n      0x20\n      add\n      0x00\n      keccak256\n        /* \"contracts/BusinessConsensus3.sol\":4463:4492  voter_maps[_messageID][voter] */\n      0x00\n        /* \"contracts/BusinessConsensus3.sol\":4486:4491  voter */\n      dup6\n        /* \"contracts/BusinessConsensus3.sol\":4463:4492  voter_maps[_messageID][voter] */\n      0xffffffffffffffffffffffffffffffffffffffff\n      and\n      0xffffffffffffffffffffffffffffffffffffffff\n      and\n      dup2\n      mstore\n      0x20\n      add\n      swap1\n      dup2\n      mstore\n      0x20\n      add\n      0x00\n      keccak256\n        /* \"contracts/BusinessConsensus3.sol\":4463:4496  voter_maps[_messageID][voter] = x */\n      0x00\n      dup3\n      add\n      mload\n      dup2\n      0x00\n      add\n      exp(0x0100, 0x00)\n      dup2\n      sload\n      dup2\n      0xff\n      mul\n      not\n      and\n      swap1\n      dup4\n      iszero\n      iszero\n      mul\n      or\n      swap1\n      sstore\n      pop\n      0x20\n      dup3\n      add\n      mload\n      dup2\n      0x00\n      add\n      exp(0x0100, 0x01)\n      dup2\n      sload\n      dup2\n      0xff\n      mul\n      not\n      and\n      swap1\n      dup4\n      iszero\n      iszero\n      mul\n      or\n      swap1\n      sstore\n      pop\n      0x40\n      dup3\n      add\n      mload\n      dup2\n      0x00\n      add\n      exp(0x0100, 0x02)\n      dup2\n      sload\n      dup2\n      0xffffffffffffffffffffffffffffffffffffffff\n      mul\n      not\n      and\n      swap1\n      dup4\n      0xffffffffffffffffffffffffffffffffffffffff\n      and\n      mul\n      or\n      swap1\n      sstore\n      pop\n      swap1\n      pop\n      pop\n        /* \"contracts/BusinessConsensus3.sol\":4507:4511  keys */\n      0x0c\n        /* \"contracts/BusinessConsensus3.sol\":4507:4523  keys[_messageID] */\n      0x00\n        /* \"contracts/BusinessConsensus3.sol\":4512:4522  _messageID */\n      dup4\n        /* \"contracts/BusinessConsensus3.sol\":4507:4523  keys[_messageID] */\n      dup2\n      mstore\n      0x20\n      add\n      swap1\n      dup2\n      mstore\n      0x20\n      add\n      0x00\n      keccak256\n        /* \"contracts/BusinessConsensus3.sol\":4529:4534  voter */\n      dup4\n        /* \"contracts/BusinessConsensus3.sol\":4507:4535  keys[_messageID].push(voter) */\n      swap1\n      dup1\n      0x01\n      dup2\n      sload\n      add\n      dup1\n      dup3\n      sstore\n      dup1\n      swap2\n      pop\n      pop\n      0x01\n      swap1\n      sub\n      swap1\n      0x00\n      mstore\n      keccak256(0x00, 0x20)\n      add\n      0x00\n      swap1\n      swap2\n      swap1\n      swap2\n      swap1\n      swap2\n      0x0100\n      exp\n      dup2\n      sload\n      dup2\n      0xffffffffffffffffffffffffffffffffffffffff\n      mul\n      not\n      and\n      swap1\n      dup4\n      0xffffffffffffffffffffffffffffffffffffffff\n      and\n      mul\n      or\n      swap1\n      sstore\n      pop\n        /* \"contracts/BusinessConsensus3.sol\":3854:4543  {\r... */\n      pop\n        /* \"contracts/BusinessConsensus3.sol\":3788:4543  function RegisterVoter(address voter,bytes32 _messageID) external {\r... */\n      pop\n      pop\n      jump\t// out\n        /* \"contracts/BusinessConsensus3.sol\":885:932  mapping(bytes32 => uint256) public numApprovals */\n    tag_114:\n      mstore(0x20, 0x05)\n      dup1\n      0x00\n      mstore\n      keccak256(0x00, 0x40)\n      0x00\n      swap2\n      pop\n      swap1\n      pop\n      sload\n      dup2\n      jump\t// out\n        /* \"contracts/BusinessConsensus3.sol\":736:773  mapping(bytes32 =>bytes32) public IDs */\n    tag_118:\n      mstore(0x20, 0x02)\n      dup1\n      0x00\n      mstore\n      keccak256(0x00, 0x40)\n      0x00\n      swap2\n      pop\n      swap1\n      pop\n      sload\n      dup2\n      jump\t// out\n        /* \"contracts/BusinessConsensus3.sol\":835:878  mapping(bytes32 => bytes32) public contents */\n    tag_122:\n      mstore(0x20, 0x04)\n      dup1\n      0x00\n      mstore\n      keccak256(0x00, 0x40)\n      0x00\n      swap2\n      pop\n      swap1\n      pop\n      sload\n      dup2\n      jump\t// out\n    tag_202:\n      dup3\n      dup1\n      sload\n      tag_230\n      swap1\n      tag_206\n      jump\t// in\n    tag_230:\n      swap1\n      0x00\n      mstore\n      keccak256(0x00, 0x20)\n      swap1\n      0x1f\n      add\n      0x20\n      swap1\n      div\n      dup2\n      add\n      swap3\n      dup3\n      tag_232\n      jumpi\n      0x00\n      dup6\n      sstore\n      jump(tag_231)\n    tag_232:\n      dup3\n      0x1f\n      lt\n      tag_233\n      jumpi\n      dup1\n      mload\n      not(0xff)\n      and\n      dup4\n      dup1\n      add\n      or\n      dup6\n      sstore\n      jump(tag_231)\n    tag_233:\n      dup3\n      dup1\n      add\n      0x01\n      add\n      dup6\n      sstore\n      dup3\n      iszero\n      tag_231\n      jumpi\n      swap2\n      dup3\n      add\n    tag_234:\n      dup3\n      dup2\n      gt\n      iszero\n      tag_235\n      jumpi\n      dup3\n      mload\n      dup3\n      sstore\n      swap2\n      0x20\n      add\n      swap2\n      swap1\n      0x01\n      add\n      swap1\n      jump(tag_234)\n    tag_235:\n    tag_231:\n      pop\n      swap1\n      pop\n      tag_236\n      swap2\n      swap1\n      tag_237\n      jump\t// in\n    tag_236:\n      pop\n      swap1\n      jump\t// out\n    tag_237:\n    tag_238:\n      dup1\n      dup3\n      gt\n      iszero\n      tag_239\n      jumpi\n      0x00\n      dup2\n      0x00\n      swap1\n      sstore\n      pop\n      0x01\n      add\n      jump(tag_238)\n    tag_239:\n      pop\n      swap1\n      jump\t// out\n        /* \"#utility.yul\":7:419   */\n    tag_241:\n        /* \"#utility.yul\":85:90   */\n      0x00\n        /* \"#utility.yul\":110:176   */\n      tag_243\n        /* \"#utility.yul\":126:175   */\n      tag_244\n        /* \"#utility.yul\":168:174   */\n      dup5\n        /* \"#utility.yul\":126:175   */\n      tag_245\n      jump\t// in\n    tag_244:\n        /* \"#utility.yul\":110:176   */\n      tag_246\n      jump\t// in\n    tag_243:\n        /* \"#utility.yul\":101:176   */\n      swap1\n      pop\n        /* \"#utility.yul\":199:205   */\n      dup3\n        /* \"#utility.yul\":192:197   */\n      dup2\n        /* \"#utility.yul\":185:206   */\n      mstore\n        /* \"#utility.yul\":237:241   */\n      0x20\n        /* \"#utility.yul\":230:235   */\n      dup2\n        /* \"#utility.yul\":226:242   */\n      add\n        /* \"#utility.yul\":275:278   */\n      dup5\n        /* \"#utility.yul\":266:272   */\n      dup5\n        /* \"#utility.yul\":261:264   */\n      dup5\n        /* \"#utility.yul\":257:273   */\n      add\n        /* \"#utility.yul\":254:279   */\n      gt\n        /* \"#utility.yul\":251:363   */\n      iszero\n      tag_247\n      jumpi\n        /* \"#utility.yul\":282:361   */\n      tag_248\n      tag_249\n      jump\t// in\n    tag_248:\n        /* \"#utility.yul\":251:363   */\n    tag_247:\n        /* \"#utility.yul\":372:413   */\n      tag_250\n        /* \"#utility.yul\":406:412   */\n      dup5\n        /* \"#utility.yul\":401:404   */\n      dup3\n        /* \"#utility.yul\":396:399   */\n      dup6\n        /* \"#utility.yul\":372:413   */\n      tag_251\n      jump\t// in\n    tag_250:\n        /* \"#utility.yul\":91:419   */\n      pop\n        /* \"#utility.yul\":7:419   */\n      swap4\n      swap3\n      pop\n      pop\n      pop\n      jump\t// out\n        /* \"#utility.yul\":425:564   */\n    tag_252:\n        /* \"#utility.yul\":471:476   */\n      0x00\n        /* \"#utility.yul\":509:515   */\n      dup2\n        /* \"#utility.yul\":496:516   */\n      calldataload\n        /* \"#utility.yul\":487:516   */\n      swap1\n      pop\n        /* \"#utility.yul\":525:558   */\n      tag_254\n        /* \"#utility.yul\":552:557   */\n      dup2\n        /* \"#utility.yul\":525:558   */\n      tag_255\n      jump\t// in\n    tag_254:\n        /* \"#utility.yul\":425:564   */\n      swap3\n      swap2\n      pop\n      pop\n      jump\t// out\n        /* \"#utility.yul\":570:709   */\n    tag_256:\n        /* \"#utility.yul\":616:621   */\n      0x00\n        /* \"#utility.yul\":654:660   */\n      dup2\n        /* \"#utility.yul\":641:661   */\n      calldataload\n        /* \"#utility.yul\":632:661   */\n      swap1\n      pop\n        /* \"#utility.yul\":670:703   */\n      tag_258\n        /* \"#utility.yul\":697:702   */\n      dup2\n        /* \"#utility.yul\":670:703   */\n      tag_259\n      jump\t// in\n    tag_258:\n        /* \"#utility.yul\":570:709   */\n      swap3\n      swap2\n      pop\n      pop\n      jump\t// out\n        /* \"#utility.yul\":729:1069   */\n    tag_260:\n        /* \"#utility.yul\":785:790   */\n      0x00\n        /* \"#utility.yul\":834:837   */\n      dup3\n        /* \"#utility.yul\":827:831   */\n      0x1f\n        /* \"#utility.yul\":819:825   */\n      dup4\n        /* \"#utility.yul\":815:832   */\n      add\n        /* \"#utility.yul\":811:838   */\n      slt\n        /* \"#utility.yul\":801:923   */\n      tag_262\n      jumpi\n        /* \"#utility.yul\":842:921   */\n      tag_263\n      tag_264\n      jump\t// in\n    tag_263:\n        /* \"#utility.yul\":801:923   */\n    tag_262:\n        /* \"#utility.yul\":959:965   */\n      dup2\n        /* \"#utility.yul\":946:966   */\n      calldataload\n        /* \"#utility.yul\":984:1063   */\n      tag_265\n        /* \"#utility.yul\":1059:1062   */\n      dup5\n        /* \"#utility.yul\":1051:1057   */\n      dup3\n        /* \"#utility.yul\":1044:1048   */\n      0x20\n        /* \"#utility.yul\":1036:1042   */\n      dup7\n        /* \"#utility.yul\":1032:1049   */\n      add\n        /* \"#utility.yul\":984:1063   */\n      tag_241\n      jump\t// in\n    tag_265:\n        /* \"#utility.yul\":975:1063   */\n      swap2\n      pop\n        /* \"#utility.yul\":791:1069   */\n      pop\n        /* \"#utility.yul\":729:1069   */\n      swap3\n      swap2\n      pop\n      pop\n      jump\t// out\n        /* \"#utility.yul\":1075:1214   */\n    tag_266:\n        /* \"#utility.yul\":1121:1126   */\n      0x00\n        /* \"#utility.yul\":1159:1165   */\n      dup2\n        /* \"#utility.yul\":1146:1166   */\n      calldataload\n        /* \"#utility.yul\":1137:1166   */\n      swap1\n      pop\n        /* \"#utility.yul\":1175:1208   */\n      tag_268\n        /* \"#utility.yul\":1202:1207   */\n      dup2\n        /* \"#utility.yul\":1175:1208   */\n      tag_269\n      jump\t// in\n    tag_268:\n        /* \"#utility.yul\":1075:1214   */\n      swap3\n      swap2\n      pop\n      pop\n      jump\t// out\n        /* \"#utility.yul\":1220:1694   */\n    tag_110:\n        /* \"#utility.yul\":1288:1294   */\n      0x00\n        /* \"#utility.yul\":1296:1302   */\n      dup1\n        /* \"#utility.yul\":1345:1347   */\n      0x40\n        /* \"#utility.yul\":1333:1342   */\n      dup4\n        /* \"#utility.yul\":1324:1331   */\n      dup6\n        /* \"#utility.yul\":1320:1343   */\n      sub\n        /* \"#utility.yul\":1316:1348   */\n      slt\n        /* \"#utility.yul\":1313:1432   */\n      iszero\n      tag_271\n      jumpi\n        /* \"#utility.yul\":1351:1430   */\n      tag_272\n      tag_273\n      jump\t// in\n    tag_272:\n        /* \"#utility.yul\":1313:1432   */\n    tag_271:\n        /* \"#utility.yul\":1471:1472   */\n      0x00\n        /* \"#utility.yul\":1496:1549   */\n      tag_274\n        /* \"#utility.yul\":1541:1548   */\n      dup6\n        /* \"#utility.yul\":1532:1538   */\n      dup3\n        /* \"#utility.yul\":1521:1530   */\n      dup7\n        /* \"#utility.yul\":1517:1539   */\n      add\n        /* \"#utility.yul\":1496:1549   */\n      tag_252\n      jump\t// in\n    tag_274:\n        /* \"#utility.yul\":1486:1549   */\n      swap3\n      pop\n        /* \"#utility.yul\":1442:1559   */\n      pop\n        /* \"#utility.yul\":1598:1600   */\n      0x20\n        /* \"#utility.yul\":1624:1677   */\n      tag_275\n        /* \"#utility.yul\":1669:1676   */\n      dup6\n        /* \"#utility.yul\":1660:1666   */\n      dup3\n        /* \"#utility.yul\":1649:1658   */\n      dup7\n        /* \"#utility.yul\":1645:1667   */\n      add\n        /* \"#utility.yul\":1624:1677   */\n      tag_256\n      jump\t// in\n    tag_275:\n        /* \"#utility.yul\":1614:1677   */\n      swap2\n      pop\n        /* \"#utility.yul\":1569:1687   */\n      pop\n        /* \"#utility.yul\":1220:1694   */\n      swap3\n      pop\n      swap3\n      swap1\n      pop\n      jump\t// out\n        /* \"#utility.yul\":1700:2029   */\n    tag_29:\n        /* \"#utility.yul\":1759:1765   */\n      0x00\n        /* \"#utility.yul\":1808:1810   */\n      0x20\n        /* \"#utility.yul\":1796:1805   */\n      dup3\n        /* \"#utility.yul\":1787:1794   */\n      dup5\n        /* \"#utility.yul\":1783:1806   */\n      sub\n        /* \"#utility.yul\":1779:1811   */\n      slt\n        /* \"#utility.yul\":1776:1895   */\n      iszero\n      tag_277\n      jumpi\n        /* \"#utility.yul\":1814:1893   */\n      tag_278\n      tag_273\n      jump\t// in\n    tag_278:\n        /* \"#utility.yul\":1776:1895   */\n    tag_277:\n        /* \"#utility.yul\":1934:1935   */\n      0x00\n        /* \"#utility.yul\":1959:2012   */\n      tag_279\n        /* \"#utility.yul\":2004:2011   */\n      dup5\n        /* \"#utility.yul\":1995:2001   */\n      dup3\n        /* \"#utility.yul\":1984:1993   */\n      dup6\n        /* \"#utility.yul\":1980:2002   */\n      add\n        /* \"#utility.yul\":1959:2012   */\n      tag_256\n      jump\t// in\n    tag_279:\n        /* \"#utility.yul\":1949:2012   */\n      swap2\n      pop\n        /* \"#utility.yul\":1905:2022   */\n      pop\n        /* \"#utility.yul\":1700:2029   */\n      swap3\n      swap2\n      pop\n      pop\n      jump\t// out\n        /* \"#utility.yul\":2035:2509   */\n    tag_101:\n        /* \"#utility.yul\":2103:2109   */\n      0x00\n        /* \"#utility.yul\":2111:2117   */\n      dup1\n        /* \"#utility.yul\":2160:2162   */\n      0x40\n        /* \"#utility.yul\":2148:2157   */\n      dup4\n        /* \"#utility.yul\":2139:2146   */\n      dup6\n        /* \"#utility.yul\":2135:2158   */\n      sub\n        /* \"#utility.yul\":2131:2163   */\n      slt\n        /* \"#utility.yul\":2128:2247   */\n      iszero\n      tag_281\n      jumpi\n        /* \"#utility.yul\":2166:2245   */\n      tag_282\n      tag_273\n      jump\t// in\n    tag_282:\n        /* \"#utility.yul\":2128:2247   */\n    tag_281:\n        /* \"#utility.yul\":2286:2287   */\n      0x00\n        /* \"#utility.yul\":2311:2364   */\n      tag_283\n        /* \"#utility.yul\":2356:2363   */\n      dup6\n        /* \"#utility.yul\":2347:2353   */\n      dup3\n        /* \"#utility.yul\":2336:2345   */\n      dup7\n        /* \"#utility.yul\":2332:2354   */\n      add\n        /* \"#utility.yul\":2311:2364   */\n      tag_256\n      jump\t// in\n    tag_283:\n        /* \"#utility.yul\":2301:2364   */\n      swap3\n      pop\n        /* \"#utility.yul\":2257:2374   */\n      pop\n        /* \"#utility.yul\":2413:2415   */\n      0x20\n        /* \"#utility.yul\":2439:2492   */\n      tag_284\n        /* \"#utility.yul\":2484:2491   */\n      dup6\n        /* \"#utility.yul\":2475:2481   */\n      dup3\n        /* \"#utility.yul\":2464:2473   */\n      dup7\n        /* \"#utility.yul\":2460:2482   */\n      add\n        /* \"#utility.yul\":2439:2492   */\n      tag_252\n      jump\t// in\n    tag_284:\n        /* \"#utility.yul\":2429:2492   */\n      swap2\n      pop\n        /* \"#utility.yul\":2384:2502   */\n      pop\n        /* \"#utility.yul\":2035:2509   */\n      swap3\n      pop\n      swap3\n      swap1\n      pop\n      jump\t// out\n        /* \"#utility.yul\":2515:2989   */\n    tag_56:\n        /* \"#utility.yul\":2583:2589   */\n      0x00\n        /* \"#utility.yul\":2591:2597   */\n      dup1\n        /* \"#utility.yul\":2640:2642   */\n      0x40\n        /* \"#utility.yul\":2628:2637   */\n      dup4\n        /* \"#utility.yul\":2619:2626   */\n      dup6\n        /* \"#utility.yul\":2615:2638   */\n      sub\n        /* \"#utility.yul\":2611:2643   */\n      slt\n        /* \"#utility.yul\":2608:2727   */\n      iszero\n      tag_286\n      jumpi\n        /* \"#utility.yul\":2646:2725   */\n      tag_287\n      tag_273\n      jump\t// in\n    tag_287:\n        /* \"#utility.yul\":2608:2727   */\n    tag_286:\n        /* \"#utility.yul\":2766:2767   */\n      0x00\n        /* \"#utility.yul\":2791:2844   */\n      tag_288\n        /* \"#utility.yul\":2836:2843   */\n      dup6\n        /* \"#utility.yul\":2827:2833   */\n      dup3\n        /* \"#utility.yul\":2816:2825   */\n      dup7\n        /* \"#utility.yul\":2812:2834   */\n      add\n        /* \"#utility.yul\":2791:2844   */\n      tag_256\n      jump\t// in\n    tag_288:\n        /* \"#utility.yul\":2781:2844   */\n      swap3\n      pop\n        /* \"#utility.yul\":2737:2854   */\n      pop\n        /* \"#utility.yul\":2893:2895   */\n      0x20\n        /* \"#utility.yul\":2919:2972   */\n      tag_289\n        /* \"#utility.yul\":2964:2971   */\n      dup6\n        /* \"#utility.yul\":2955:2961   */\n      dup3\n        /* \"#utility.yul\":2944:2953   */\n      dup7\n        /* \"#utility.yul\":2940:2962   */\n      add\n        /* \"#utility.yul\":2919:2972   */\n      tag_266\n      jump\t// in\n    tag_289:\n        /* \"#utility.yul\":2909:2972   */\n      swap2\n      pop\n        /* \"#utility.yul\":2864:2982   */\n      pop\n        /* \"#utility.yul\":2515:2989   */\n      swap3\n      pop\n      swap3\n      swap1\n      pop\n      jump\t// out\n        /* \"#utility.yul\":2995:3760   */\n    tag_40:\n        /* \"#utility.yul\":3081:3087   */\n      0x00\n        /* \"#utility.yul\":3089:3095   */\n      dup1\n        /* \"#utility.yul\":3097:3103   */\n      0x00\n        /* \"#utility.yul\":3105:3111   */\n      dup1\n        /* \"#utility.yul\":3154:3157   */\n      0x80\n        /* \"#utility.yul\":3142:3151   */\n      dup6\n        /* \"#utility.yul\":3133:3140   */\n      dup8\n        /* \"#utility.yul\":3129:3152   */\n      sub\n        /* \"#utility.yul\":3125:3158   */\n      slt\n        /* \"#utility.yul\":3122:3242   */\n      iszero\n      tag_291\n      jumpi\n        /* \"#utility.yul\":3161:3240   */\n      tag_292\n      tag_273\n      jump\t// in\n    tag_292:\n        /* \"#utility.yul\":3122:3242   */\n    tag_291:\n        /* \"#utility.yul\":3281:3282   */\n      0x00\n        /* \"#utility.yul\":3306:3359   */\n      tag_293\n        /* \"#utility.yul\":3351:3358   */\n      dup8\n        /* \"#utility.yul\":3342:3348   */\n      dup3\n        /* \"#utility.yul\":3331:3340   */\n      dup9\n        /* \"#utility.yul\":3327:3349   */\n      add\n        /* \"#utility.yul\":3306:3359   */\n      tag_256\n      jump\t// in\n    tag_293:\n        /* \"#utility.yul\":3296:3359   */\n      swap5\n      pop\n        /* \"#utility.yul\":3252:3369   */\n      pop\n        /* \"#utility.yul\":3408:3410   */\n      0x20\n        /* \"#utility.yul\":3434:3487   */\n      tag_294\n        /* \"#utility.yul\":3479:3486   */\n      dup8\n        /* \"#utility.yul\":3470:3476   */\n      dup3\n        /* \"#utility.yul\":3459:3468   */\n      dup9\n        /* \"#utility.yul\":3455:3477   */\n      add\n        /* \"#utility.yul\":3434:3487   */\n      tag_266\n      jump\t// in\n    tag_294:\n        /* \"#utility.yul\":3424:3487   */\n      swap4\n      pop\n        /* \"#utility.yul\":3379:3497   */\n      pop\n        /* \"#utility.yul\":3536:3538   */\n      0x40\n        /* \"#utility.yul\":3562:3615   */\n      tag_295\n        /* \"#utility.yul\":3607:3614   */\n      dup8\n        /* \"#utility.yul\":3598:3604   */\n      dup3\n        /* \"#utility.yul\":3587:3596   */\n      dup9\n        /* \"#utility.yul\":3583:3605   */\n      add\n        /* \"#utility.yul\":3562:3615   */\n      tag_266\n      jump\t// in\n    tag_295:\n        /* \"#utility.yul\":3552:3615   */\n      swap3\n      pop\n        /* \"#utility.yul\":3507:3625   */\n      pop\n        /* \"#utility.yul\":3664:3666   */\n      0x60\n        /* \"#utility.yul\":3690:3743   */\n      tag_296\n        /* \"#utility.yul\":3735:3742   */\n      dup8\n        /* \"#utility.yul\":3726:3732   */\n      dup3\n        /* \"#utility.yul\":3715:3724   */\n      dup9\n        /* \"#utility.yul\":3711:3733   */\n      add\n        /* \"#utility.yul\":3690:3743   */\n      tag_256\n      jump\t// in\n    tag_296:\n        /* \"#utility.yul\":3680:3743   */\n      swap2\n      pop\n        /* \"#utility.yul\":3635:3753   */\n      pop\n        /* \"#utility.yul\":2995:3760   */\n      swap3\n      swap6\n      swap2\n      swap5\n      pop\n      swap3\n      pop\n      jump\t// out\n        /* \"#utility.yul\":3766:5003   */\n    tag_82:\n        /* \"#utility.yul\":3880:3886   */\n      0x00\n        /* \"#utility.yul\":3888:3894   */\n      dup1\n        /* \"#utility.yul\":3896:3902   */\n      0x00\n        /* \"#utility.yul\":3904:3910   */\n      dup1\n        /* \"#utility.yul\":3912:3918   */\n      0x00\n        /* \"#utility.yul\":3920:3926   */\n      dup1\n        /* \"#utility.yul\":3969:3972   */\n      0xc0\n        /* \"#utility.yul\":3957:3966   */\n      dup8\n        /* \"#utility.yul\":3948:3955   */\n      dup10\n        /* \"#utility.yul\":3944:3967   */\n      sub\n        /* \"#utility.yul\":3940:3973   */\n      slt\n        /* \"#utility.yul\":3937:4057   */\n      iszero\n      tag_298\n      jumpi\n        /* \"#utility.yul\":3976:4055   */\n      tag_299\n      tag_273\n      jump\t// in\n    tag_299:\n        /* \"#utility.yul\":3937:4057   */\n    tag_298:\n        /* \"#utility.yul\":4096:4097   */\n      0x00\n        /* \"#utility.yul\":4121:4174   */\n      tag_300\n        /* \"#utility.yul\":4166:4173   */\n      dup10\n        /* \"#utility.yul\":4157:4163   */\n      dup3\n        /* \"#utility.yul\":4146:4155   */\n      dup11\n        /* \"#utility.yul\":4142:4164   */\n      add\n        /* \"#utility.yul\":4121:4174   */\n      tag_256\n      jump\t// in\n    tag_300:\n        /* \"#utility.yul\":4111:4174   */\n      swap7\n      pop\n        /* \"#utility.yul\":4067:4184   */\n      pop\n        /* \"#utility.yul\":4223:4225   */\n      0x20\n        /* \"#utility.yul\":4249:4302   */\n      tag_301\n        /* \"#utility.yul\":4294:4301   */\n      dup10\n        /* \"#utility.yul\":4285:4291   */\n      dup3\n        /* \"#utility.yul\":4274:4283   */\n      dup11\n        /* \"#utility.yul\":4270:4292   */\n      add\n        /* \"#utility.yul\":4249:4302   */\n      tag_266\n      jump\t// in\n    tag_301:\n        /* \"#utility.yul\":4239:4302   */\n      swap6\n      pop\n        /* \"#utility.yul\":4194:4312   */\n      pop\n        /* \"#utility.yul\":4351:4353   */\n      0x40\n        /* \"#utility.yul\":4377:4430   */\n      tag_302\n        /* \"#utility.yul\":4422:4429   */\n      dup10\n        /* \"#utility.yul\":4413:4419   */\n      dup3\n        /* \"#utility.yul\":4402:4411   */\n      dup11\n        /* \"#utility.yul\":4398:4420   */\n      add\n        /* \"#utility.yul\":4377:4430   */\n      tag_266\n      jump\t// in\n    tag_302:\n        /* \"#utility.yul\":4367:4430   */\n      swap5\n      pop\n        /* \"#utility.yul\":4322:4440   */\n      pop\n        /* \"#utility.yul\":4479:4481   */\n      0x60\n        /* \"#utility.yul\":4505:4558   */\n      tag_303\n        /* \"#utility.yul\":4550:4557   */\n      dup10\n        /* \"#utility.yul\":4541:4547   */\n      dup3\n        /* \"#utility.yul\":4530:4539   */\n      dup11\n        /* \"#utility.yul\":4526:4548   */\n      add\n        /* \"#utility.yul\":4505:4558   */\n      tag_256\n      jump\t// in\n    tag_303:\n        /* \"#utility.yul\":4495:4558   */\n      swap4\n      pop\n        /* \"#utility.yul\":4450:4568   */\n      pop\n        /* \"#utility.yul\":4607:4610   */\n      0x80\n        /* \"#utility.yul\":4634:4687   */\n      tag_304\n        /* \"#utility.yul\":4679:4686   */\n      dup10\n        /* \"#utility.yul\":4670:4676   */\n      dup3\n        /* \"#utility.yul\":4659:4668   */\n      dup11\n        /* \"#utility.yul\":4655:4677   */\n      add\n        /* \"#utility.yul\":4634:4687   */\n      tag_256\n      jump\t// in\n    tag_304:\n        /* \"#utility.yul\":4624:4687   */\n      swap3\n      pop\n        /* \"#utility.yul\":4578:4697   */\n      pop\n        /* \"#utility.yul\":4764:4767   */\n      0xa0\n        /* \"#utility.yul\":4753:4762   */\n      dup8\n        /* \"#utility.yul\":4749:4768   */\n      add\n        /* \"#utility.yul\":4736:4769   */\n      calldataload\n        /* \"#utility.yul\":4796:4814   */\n      0xffffffffffffffff\n        /* \"#utility.yul\":4788:4794   */\n      dup2\n        /* \"#utility.yul\":4785:4815   */\n      gt\n        /* \"#utility.yul\":4782:4899   */\n      iszero\n      tag_305\n      jumpi\n        /* \"#utility.yul\":4818:4897   */\n      tag_306\n      tag_307\n      jump\t// in\n    tag_306:\n        /* \"#utility.yul\":4782:4899   */\n    tag_305:\n        /* \"#utility.yul\":4923:4986   */\n      tag_308\n        /* \"#utility.yul\":4978:4985   */\n      dup10\n        /* \"#utility.yul\":4969:4975   */\n      dup3\n        /* \"#utility.yul\":4958:4967   */\n      dup11\n        /* \"#utility.yul\":4954:4976   */\n      add\n        /* \"#utility.yul\":4923:4986   */\n      tag_260\n      jump\t// in\n    tag_308:\n        /* \"#utility.yul\":4913:4986   */\n      swap2\n      pop\n        /* \"#utility.yul\":4707:4996   */\n      pop\n        /* \"#utility.yul\":3766:5003   */\n      swap3\n      swap6\n      pop\n      swap3\n      swap6\n      pop\n      swap3\n      swap6\n      jump\t// out\n        /* \"#utility.yul\":5009:5663   */\n    tag_78:\n        /* \"#utility.yul\":5087:5093   */\n      0x00\n        /* \"#utility.yul\":5095:5101   */\n      dup1\n        /* \"#utility.yul\":5144:5146   */\n      0x40\n        /* \"#utility.yul\":5132:5141   */\n      dup4\n        /* \"#utility.yul\":5123:5130   */\n      dup6\n        /* \"#utility.yul\":5119:5142   */\n      sub\n        /* \"#utility.yul\":5115:5147   */\n      slt\n        /* \"#utility.yul\":5112:5231   */\n      iszero\n      tag_310\n      jumpi\n        /* \"#utility.yul\":5150:5229   */\n      tag_311\n      tag_273\n      jump\t// in\n    tag_311:\n        /* \"#utility.yul\":5112:5231   */\n    tag_310:\n        /* \"#utility.yul\":5298:5299   */\n      0x00\n        /* \"#utility.yul\":5287:5296   */\n      dup4\n        /* \"#utility.yul\":5283:5300   */\n      add\n        /* \"#utility.yul\":5270:5301   */\n      calldataload\n        /* \"#utility.yul\":5328:5346   */\n      0xffffffffffffffff\n        /* \"#utility.yul\":5320:5326   */\n      dup2\n        /* \"#utility.yul\":5317:5347   */\n      gt\n        /* \"#utility.yul\":5314:5431   */\n      iszero\n      tag_312\n      jumpi\n        /* \"#utility.yul\":5350:5429   */\n      tag_313\n      tag_307\n      jump\t// in\n    tag_313:\n        /* \"#utility.yul\":5314:5431   */\n    tag_312:\n        /* \"#utility.yul\":5455:5518   */\n      tag_314\n        /* \"#utility.yul\":5510:5517   */\n      dup6\n        /* \"#utility.yul\":5501:5507   */\n      dup3\n        /* \"#utility.yul\":5490:5499   */\n      dup7\n        /* \"#utility.yul\":5486:5508   */\n      add\n        /* \"#utility.yul\":5455:5518   */\n      tag_260\n      jump\t// in\n    tag_314:\n        /* \"#utility.yul\":5445:5518   */\n      swap3\n      pop\n        /* \"#utility.yul\":5241:5528   */\n      pop\n        /* \"#utility.yul\":5567:5569   */\n      0x20\n        /* \"#utility.yul\":5593:5646   */\n      tag_315\n        /* \"#utility.yul\":5638:5645   */\n      dup6\n        /* \"#utility.yul\":5629:5635   */\n      dup3\n        /* \"#utility.yul\":5618:5627   */\n      dup7\n        /* \"#utility.yul\":5614:5636   */\n      add\n        /* \"#utility.yul\":5593:5646   */\n      tag_256\n      jump\t// in\n    tag_315:\n        /* \"#utility.yul\":5583:5646   */\n      swap2\n      pop\n        /* \"#utility.yul\":5538:5656   */\n      pop\n        /* \"#utility.yul\":5009:5663   */\n      swap3\n      pop\n      swap3\n      swap1\n      pop\n      jump\t// out\n        /* \"#utility.yul\":5669:5928   */\n    tag_316:\n        /* \"#utility.yul\":5778:5788   */\n      0x00\n        /* \"#utility.yul\":5799:5885   */\n      tag_318\n        /* \"#utility.yul\":5881:5884   */\n      dup4\n        /* \"#utility.yul\":5873:5879   */\n      dup4\n        /* \"#utility.yul\":5799:5885   */\n      tag_319\n      jump\t// in\n    tag_318:\n        /* \"#utility.yul\":5917:5921   */\n      0x60\n        /* \"#utility.yul\":5912:5915   */\n      dup4\n        /* \"#utility.yul\":5908:5922   */\n      add\n        /* \"#utility.yul\":5894:5922   */\n      swap1\n      pop\n        /* \"#utility.yul\":5669:5928   */\n      swap3\n      swap2\n      pop\n      pop\n      jump\t// out\n        /* \"#utility.yul\":5934:6042   */\n    tag_320:\n        /* \"#utility.yul\":6011:6035   */\n      tag_322\n        /* \"#utility.yul\":6029:6034   */\n      dup2\n        /* \"#utility.yul\":6011:6035   */\n      tag_323\n      jump\t// in\n    tag_322:\n        /* \"#utility.yul\":6006:6009   */\n      dup3\n        /* \"#utility.yul\":5999:6036   */\n      mstore\n        /* \"#utility.yul\":5934:6042   */\n      pop\n      pop\n      jump\t// out\n        /* \"#utility.yul\":6048:6166   */\n    tag_324:\n        /* \"#utility.yul\":6135:6159   */\n      tag_326\n        /* \"#utility.yul\":6153:6158   */\n      dup2\n        /* \"#utility.yul\":6135:6159   */\n      tag_323\n      jump\t// in\n    tag_326:\n        /* \"#utility.yul\":6130:6133   */\n      dup3\n        /* \"#utility.yul\":6123:6160   */\n      mstore\n        /* \"#utility.yul\":6048:6166   */\n      pop\n      pop\n      jump\t// out\n        /* \"#utility.yul\":6250:7142   */\n    tag_327:\n        /* \"#utility.yul\":6409:6412   */\n      0x00\n        /* \"#utility.yul\":6438:6512   */\n      tag_329\n        /* \"#utility.yul\":6506:6511   */\n      dup3\n        /* \"#utility.yul\":6438:6512   */\n      tag_330\n      jump\t// in\n    tag_329:\n        /* \"#utility.yul\":6528:6634   */\n      tag_331\n        /* \"#utility.yul\":6627:6633   */\n      dup2\n        /* \"#utility.yul\":6622:6625   */\n      dup6\n        /* \"#utility.yul\":6528:6634   */\n      tag_332\n      jump\t// in\n    tag_331:\n        /* \"#utility.yul\":6521:6634   */\n      swap4\n      pop\n        /* \"#utility.yul\":6658:6734   */\n      tag_333\n        /* \"#utility.yul\":6728:6733   */\n      dup4\n        /* \"#utility.yul\":6658:6734   */\n      tag_334\n      jump\t// in\n    tag_333:\n        /* \"#utility.yul\":6757:6764   */\n      dup1\n        /* \"#utility.yul\":6788:6789   */\n      0x00\n        /* \"#utility.yul\":6773:7117   */\n    tag_335:\n        /* \"#utility.yul\":6798:6804   */\n      dup4\n        /* \"#utility.yul\":6795:6796   */\n      dup2\n        /* \"#utility.yul\":6792:6805   */\n      lt\n        /* \"#utility.yul\":6773:7117   */\n      iszero\n      tag_337\n      jumpi\n        /* \"#utility.yul\":6874:6880   */\n      dup2\n        /* \"#utility.yul\":6868:6881   */\n      mload\n        /* \"#utility.yul\":6901:7004   */\n      tag_338\n        /* \"#utility.yul\":7000:7003   */\n      dup9\n        /* \"#utility.yul\":6985:6998   */\n      dup3\n        /* \"#utility.yul\":6901:7004   */\n      tag_316\n      jump\t// in\n    tag_338:\n        /* \"#utility.yul\":6894:7004   */\n      swap8\n      pop\n        /* \"#utility.yul\":7027:7107   */\n      tag_339\n        /* \"#utility.yul\":7100:7106   */\n      dup4\n        /* \"#utility.yul\":7027:7107   */\n      tag_340\n      jump\t// in\n    tag_339:\n        /* \"#utility.yul\":7017:7107   */\n      swap3\n      pop\n        /* \"#utility.yul\":6833:7117   */\n      pop\n        /* \"#utility.yul\":6820:6821   */\n      0x01\n        /* \"#utility.yul\":6817:6818   */\n      dup2\n        /* \"#utility.yul\":6813:6822   */\n      add\n        /* \"#utility.yul\":6808:6822   */\n      swap1\n      pop\n        /* \"#utility.yul\":6773:7117   */\n      jump(tag_335)\n    tag_337:\n        /* \"#utility.yul\":6777:6791   */\n      pop\n        /* \"#utility.yul\":7133:7136   */\n      dup6\n        /* \"#utility.yul\":7126:7136   */\n      swap4\n      pop\n        /* \"#utility.yul\":6414:7142   */\n      pop\n      pop\n      pop\n        /* \"#utility.yul\":6250:7142   */\n      swap3\n      swap2\n      pop\n      pop\n      jump\t// out\n        /* \"#utility.yul\":7148:7247   */\n    tag_341:\n        /* \"#utility.yul\":7219:7240   */\n      tag_343\n        /* \"#utility.yul\":7234:7239   */\n      dup2\n        /* \"#utility.yul\":7219:7240   */\n      tag_344\n      jump\t// in\n    tag_343:\n        /* \"#utility.yul\":7214:7217   */\n      dup3\n        /* \"#utility.yul\":7207:7241   */\n      mstore\n        /* \"#utility.yul\":7148:7247   */\n      pop\n      pop\n      jump\t// out\n        /* \"#utility.yul\":7253:7362   */\n    tag_345:\n        /* \"#utility.yul\":7334:7355   */\n      tag_347\n        /* \"#utility.yul\":7349:7354   */\n      dup2\n        /* \"#utility.yul\":7334:7355   */\n      tag_344\n      jump\t// in\n    tag_347:\n        /* \"#utility.yul\":7329:7332   */\n      dup3\n        /* \"#utility.yul\":7322:7356   */\n      mstore\n        /* \"#utility.yul\":7253:7362   */\n      pop\n      pop\n      jump\t// out\n        /* \"#utility.yul\":7368:7486   */\n    tag_348:\n        /* \"#utility.yul\":7455:7479   */\n      tag_350\n        /* \"#utility.yul\":7473:7478   */\n      dup2\n        /* \"#utility.yul\":7455:7479   */\n      tag_351\n      jump\t// in\n    tag_350:\n        /* \"#utility.yul\":7450:7453   */\n      dup3\n        /* \"#utility.yul\":7443:7480   */\n      mstore\n        /* \"#utility.yul\":7368:7486   */\n      pop\n      pop\n      jump\t// out\n        /* \"#utility.yul\":7492:7856   */\n    tag_352:\n        /* \"#utility.yul\":7580:7583   */\n      0x00\n        /* \"#utility.yul\":7608:7647   */\n      tag_354\n        /* \"#utility.yul\":7641:7646   */\n      dup3\n        /* \"#utility.yul\":7608:7647   */\n      tag_355\n      jump\t// in\n    tag_354:\n        /* \"#utility.yul\":7663:7734   */\n      tag_356\n        /* \"#utility.yul\":7727:7733   */\n      dup2\n        /* \"#utility.yul\":7722:7725   */\n      dup6\n        /* \"#utility.yul\":7663:7734   */\n      tag_357\n      jump\t// in\n    tag_356:\n        /* \"#utility.yul\":7656:7734   */\n      swap4\n      pop\n        /* \"#utility.yul\":7743:7795   */\n      tag_358\n        /* \"#utility.yul\":7788:7794   */\n      dup2\n        /* \"#utility.yul\":7783:7786   */\n      dup6\n        /* \"#utility.yul\":7776:7780   */\n      0x20\n        /* \"#utility.yul\":7769:7774   */\n      dup7\n        /* \"#utility.yul\":7765:7781   */\n      add\n        /* \"#utility.yul\":7743:7795   */\n      tag_359\n      jump\t// in\n    tag_358:\n        /* \"#utility.yul\":7820:7849   */\n      tag_360\n        /* \"#utility.yul\":7842:7848   */\n      dup2\n        /* \"#utility.yul\":7820:7849   */\n      tag_361\n      jump\t// in\n    tag_360:\n        /* \"#utility.yul\":7815:7818   */\n      dup5\n        /* \"#utility.yul\":7811:7850   */\n      add\n        /* \"#utility.yul\":7804:7850   */\n      swap2\n      pop\n        /* \"#utility.yul\":7584:7856   */\n      pop\n        /* \"#utility.yul\":7492:7856   */\n      swap3\n      swap2\n      pop\n      pop\n      jump\t// out\n        /* \"#utility.yul\":7862:8228   */\n    tag_362:\n        /* \"#utility.yul\":8004:8007   */\n      0x00\n        /* \"#utility.yul\":8025:8092   */\n      tag_364\n        /* \"#utility.yul\":8089:8091   */\n      0x1f\n        /* \"#utility.yul\":8084:8087   */\n      dup4\n        /* \"#utility.yul\":8025:8092   */\n      tag_357\n      jump\t// in\n    tag_364:\n        /* \"#utility.yul\":8018:8092   */\n      swap2\n      pop\n        /* \"#utility.yul\":8101:8194   */\n      tag_365\n        /* \"#utility.yul\":8190:8193   */\n      dup3\n        /* \"#utility.yul\":8101:8194   */\n      tag_366\n      jump\t// in\n    tag_365:\n        /* \"#utility.yul\":8219:8221   */\n      0x20\n        /* \"#utility.yul\":8214:8217   */\n      dup3\n        /* \"#utility.yul\":8210:8222   */\n      add\n        /* \"#utility.yul\":8203:8222   */\n      swap1\n      pop\n        /* \"#utility.yul\":7862:8228   */\n      swap2\n      swap1\n      pop\n      jump\t// out\n        /* \"#utility.yul\":8234:8600   */\n    tag_367:\n        /* \"#utility.yul\":8376:8379   */\n      0x00\n        /* \"#utility.yul\":8397:8464   */\n      tag_369\n        /* \"#utility.yul\":8461:8463   */\n      0x19\n        /* \"#utility.yul\":8456:8459   */\n      dup4\n        /* \"#utility.yul\":8397:8464   */\n      tag_357\n      jump\t// in\n    tag_369:\n        /* \"#utility.yul\":8390:8464   */\n      swap2\n      pop\n        /* \"#utility.yul\":8473:8566   */\n      tag_370\n        /* \"#utility.yul\":8562:8565   */\n      dup3\n        /* \"#utility.yul\":8473:8566   */\n      tag_371\n      jump\t// in\n    tag_370:\n        /* \"#utility.yul\":8591:8593   */\n      0x20\n        /* \"#utility.yul\":8586:8589   */\n      dup3\n        /* \"#utility.yul\":8582:8594   */\n      add\n        /* \"#utility.yul\":8575:8594   */\n      swap1\n      pop\n        /* \"#utility.yul\":8234:8600   */\n      swap2\n      swap1\n      pop\n      jump\t// out\n        /* \"#utility.yul\":8606:8972   */\n    tag_372:\n        /* \"#utility.yul\":8748:8751   */\n      0x00\n        /* \"#utility.yul\":8769:8836   */\n      tag_374\n        /* \"#utility.yul\":8833:8835   */\n      0x26\n        /* \"#utility.yul\":8828:8831   */\n      dup4\n        /* \"#utility.yul\":8769:8836   */\n      tag_357\n      jump\t// in\n    tag_374:\n        /* \"#utility.yul\":8762:8836   */\n      swap2\n      pop\n        /* \"#utility.yul\":8845:8938   */\n      tag_375\n        /* \"#utility.yul\":8934:8937   */\n      dup3\n        /* \"#utility.yul\":8845:8938   */\n      tag_376\n      jump\t// in\n    tag_375:\n        /* \"#utility.yul\":8963:8965   */\n      0x40\n        /* \"#utility.yul\":8958:8961   */\n      dup3\n        /* \"#utility.yul\":8954:8966   */\n      add\n        /* \"#utility.yul\":8947:8966   */\n      swap1\n      pop\n        /* \"#utility.yul\":8606:8972   */\n      swap2\n      swap1\n      pop\n      jump\t// out\n        /* \"#utility.yul\":8978:9344   */\n    tag_377:\n        /* \"#utility.yul\":9120:9123   */\n      0x00\n        /* \"#utility.yul\":9141:9208   */\n      tag_379\n        /* \"#utility.yul\":9205:9207   */\n      0x1c\n        /* \"#utility.yul\":9200:9203   */\n      dup4\n        /* \"#utility.yul\":9141:9208   */\n      tag_357\n      jump\t// in\n    tag_379:\n        /* \"#utility.yul\":9134:9208   */\n      swap2\n      pop\n        /* \"#utility.yul\":9217:9310   */\n      tag_380\n        /* \"#utility.yul\":9306:9309   */\n      dup3\n        /* \"#utility.yul\":9217:9310   */\n      tag_381\n      jump\t// in\n    tag_380:\n        /* \"#utility.yul\":9335:9337   */\n      0x20\n        /* \"#utility.yul\":9330:9333   */\n      dup3\n        /* \"#utility.yul\":9326:9338   */\n      add\n        /* \"#utility.yul\":9319:9338   */\n      swap1\n      pop\n        /* \"#utility.yul\":8978:9344   */\n      swap2\n      swap1\n      pop\n      jump\t// out\n        /* \"#utility.yul\":9350:9716   */\n    tag_382:\n        /* \"#utility.yul\":9492:9495   */\n      0x00\n        /* \"#utility.yul\":9513:9580   */\n      tag_384\n        /* \"#utility.yul\":9577:9579   */\n      0x15\n        /* \"#utility.yul\":9572:9575   */\n      dup4\n        /* \"#utility.yul\":9513:9580   */\n      tag_357\n      jump\t// in\n    tag_384:\n        /* \"#utility.yul\":9506:9580   */\n      swap2\n      pop\n        /* \"#utility.yul\":9589:9682   */\n      tag_385\n        /* \"#utility.yul\":9678:9681   */\n      dup3\n        /* \"#utility.yul\":9589:9682   */\n      tag_386\n      jump\t// in\n    tag_385:\n        /* \"#utility.yul\":9707:9709   */\n      0x20\n        /* \"#utility.yul\":9702:9705   */\n      dup3\n        /* \"#utility.yul\":9698:9710   */\n      add\n        /* \"#utility.yul\":9691:9710   */\n      swap1\n      pop\n        /* \"#utility.yul\":9350:9716   */\n      swap2\n      swap1\n      pop\n      jump\t// out\n        /* \"#utility.yul\":9722:10088   */\n    tag_387:\n        /* \"#utility.yul\":9864:9867   */\n      0x00\n        /* \"#utility.yul\":9885:9952   */\n      tag_389\n        /* \"#utility.yul\":9949:9951   */\n      0x1e\n        /* \"#utility.yul\":9944:9947   */\n      dup4\n        /* \"#utility.yul\":9885:9952   */\n      tag_357\n      jump\t// in\n    tag_389:\n        /* \"#utility.yul\":9878:9952   */\n      swap2\n      pop\n        /* \"#utility.yul\":9961:10054   */\n      tag_390\n        /* \"#utility.yul\":10050:10053   */\n      dup3\n        /* \"#utility.yul\":9961:10054   */\n      tag_391\n      jump\t// in\n    tag_390:\n        /* \"#utility.yul\":10079:10081   */\n      0x20\n        /* \"#utility.yul\":10074:10077   */\n      dup3\n        /* \"#utility.yul\":10070:10082   */\n      add\n        /* \"#utility.yul\":10063:10082   */\n      swap1\n      pop\n        /* \"#utility.yul\":9722:10088   */\n      swap2\n      swap1\n      pop\n      jump\t// out\n        /* \"#utility.yul\":10094:10460   */\n    tag_392:\n        /* \"#utility.yul\":10236:10239   */\n      0x00\n        /* \"#utility.yul\":10257:10324   */\n      tag_394\n        /* \"#utility.yul\":10321:10323   */\n      0x24\n        /* \"#utility.yul\":10316:10319   */\n      dup4\n        /* \"#utility.yul\":10257:10324   */\n      tag_357\n      jump\t// in\n    tag_394:\n        /* \"#utility.yul\":10250:10324   */\n      swap2\n      pop\n        /* \"#utility.yul\":10333:10426   */\n      tag_395\n        /* \"#utility.yul\":10422:10425   */\n      dup3\n        /* \"#utility.yul\":10333:10426   */\n      tag_396\n      jump\t// in\n    tag_395:\n        /* \"#utility.yul\":10451:10453   */\n      0x40\n        /* \"#utility.yul\":10446:10449   */\n      dup3\n        /* \"#utility.yul\":10442:10454   */\n      add\n        /* \"#utility.yul\":10435:10454   */\n      swap1\n      pop\n        /* \"#utility.yul\":10094:10460   */\n      swap2\n      swap1\n      pop\n      jump\t// out\n        /* \"#utility.yul\":10466:10832   */\n    tag_397:\n        /* \"#utility.yul\":10608:10611   */\n      0x00\n        /* \"#utility.yul\":10629:10696   */\n      tag_399\n        /* \"#utility.yul\":10693:10695   */\n      0x28\n        /* \"#utility.yul\":10688:10691   */\n      dup4\n        /* \"#utility.yul\":10629:10696   */\n      tag_357\n      jump\t// in\n    tag_399:\n        /* \"#utility.yul\":10622:10696   */\n      swap2\n      pop\n        /* \"#utility.yul\":10705:10798   */\n      tag_400\n        /* \"#utility.yul\":10794:10797   */\n      dup3\n        /* \"#utility.yul\":10705:10798   */\n      tag_401\n      jump\t// in\n    tag_400:\n        /* \"#utility.yul\":10823:10825   */\n      0x40\n        /* \"#utility.yul\":10818:10821   */\n      dup3\n        /* \"#utility.yul\":10814:10826   */\n      add\n        /* \"#utility.yul\":10807:10826   */\n      swap1\n      pop\n        /* \"#utility.yul\":10466:10832   */\n      swap2\n      swap1\n      pop\n      jump\t// out\n        /* \"#utility.yul\":10838:11204   */\n    tag_402:\n        /* \"#utility.yul\":10980:10983   */\n      0x00\n        /* \"#utility.yul\":11001:11068   */\n      tag_404\n        /* \"#utility.yul\":11065:11067   */\n      0x14\n        /* \"#utility.yul\":11060:11063   */\n      dup4\n        /* \"#utility.yul\":11001:11068   */\n      tag_357\n      jump\t// in\n    tag_404:\n        /* \"#utility.yul\":10994:11068   */\n      swap2\n      pop\n        /* \"#utility.yul\":11077:11170   */\n      tag_405\n        /* \"#utility.yul\":11166:11169   */\n      dup3\n        /* \"#utility.yul\":11077:11170   */\n      tag_406\n      jump\t// in\n    tag_405:\n        /* \"#utility.yul\":11195:11197   */\n      0x20\n        /* \"#utility.yul\":11190:11193   */\n      dup3\n        /* \"#utility.yul\":11186:11198   */\n      add\n        /* \"#utility.yul\":11179:11198   */\n      swap1\n      pop\n        /* \"#utility.yul\":10838:11204   */\n      swap2\n      swap1\n      pop\n      jump\t// out\n        /* \"#utility.yul\":11210:11576   */\n    tag_407:\n        /* \"#utility.yul\":11352:11355   */\n      0x00\n        /* \"#utility.yul\":11373:11440   */\n      tag_409\n        /* \"#utility.yul\":11437:11439   */\n      0x20\n        /* \"#utility.yul\":11432:11435   */\n      dup4\n        /* \"#utility.yul\":11373:11440   */\n      tag_357\n      jump\t// in\n    tag_409:\n        /* \"#utility.yul\":11366:11440   */\n      swap2\n      pop\n        /* \"#utility.yul\":11449:11542   */\n      tag_410\n        /* \"#utility.yul\":11538:11541   */\n      dup3\n        /* \"#utility.yul\":11449:11542   */\n      tag_411\n      jump\t// in\n    tag_410:\n        /* \"#utility.yul\":11567:11569   */\n      0x20\n        /* \"#utility.yul\":11562:11565   */\n      dup3\n        /* \"#utility.yul\":11558:11570   */\n      add\n        /* \"#utility.yul\":11551:11570   */\n      swap1\n      pop\n        /* \"#utility.yul\":11210:11576   */\n      swap2\n      swap1\n      pop\n      jump\t// out\n        /* \"#utility.yul\":11582:11948   */\n    tag_412:\n        /* \"#utility.yul\":11724:11727   */\n      0x00\n        /* \"#utility.yul\":11745:11812   */\n      tag_414\n        /* \"#utility.yul\":11809:11811   */\n      0x12\n        /* \"#utility.yul\":11804:11807   */\n      dup4\n        /* \"#utility.yul\":11745:11812   */\n      tag_357\n      jump\t// in\n    tag_414:\n        /* \"#utility.yul\":11738:11812   */\n      swap2\n      pop\n        /* \"#utility.yul\":11821:11914   */\n      tag_415\n        /* \"#utility.yul\":11910:11913   */\n      dup3\n        /* \"#utility.yul\":11821:11914   */\n      tag_416\n      jump\t// in\n    tag_415:\n        /* \"#utility.yul\":11939:11941   */\n      0x20\n        /* \"#utility.yul\":11934:11937   */\n      dup3\n        /* \"#utility.yul\":11930:11942   */\n      add\n        /* \"#utility.yul\":11923:11942   */\n      swap1\n      pop\n        /* \"#utility.yul\":11582:11948   */\n      swap2\n      swap1\n      pop\n      jump\t// out\n        /* \"#utility.yul\":11954:12320   */\n    tag_417:\n        /* \"#utility.yul\":12096:12099   */\n      0x00\n        /* \"#utility.yul\":12117:12184   */\n      tag_419\n        /* \"#utility.yul\":12181:12183   */\n      0x25\n        /* \"#utility.yul\":12176:12179   */\n      dup4\n        /* \"#utility.yul\":12117:12184   */\n      tag_357\n      jump\t// in\n    tag_419:\n        /* \"#utility.yul\":12110:12184   */\n      swap2\n      pop\n        /* \"#utility.yul\":12193:12286   */\n      tag_420\n        /* \"#utility.yul\":12282:12285   */\n      dup3\n        /* \"#utility.yul\":12193:12286   */\n      tag_421\n      jump\t// in\n    tag_420:\n        /* \"#utility.yul\":12311:12313   */\n      0x40\n        /* \"#utility.yul\":12306:12309   */\n      dup3\n        /* \"#utility.yul\":12302:12314   */\n      add\n        /* \"#utility.yul\":12295:12314   */\n      swap1\n      pop\n        /* \"#utility.yul\":11954:12320   */\n      swap2\n      swap1\n      pop\n      jump\t// out\n        /* \"#utility.yul\":12400:13055   */\n    tag_319:\n        /* \"#utility.yul\":12527:12531   */\n      0x60\n        /* \"#utility.yul\":12522:12525   */\n      dup3\n        /* \"#utility.yul\":12518:12532   */\n      add\n        /* \"#utility.yul\":12615:12619   */\n      0x00\n        /* \"#utility.yul\":12608:12613   */\n      dup3\n        /* \"#utility.yul\":12604:12620   */\n      add\n        /* \"#utility.yul\":12598:12621   */\n      mload\n        /* \"#utility.yul\":12634:12691   */\n      tag_423\n        /* \"#utility.yul\":12685:12689   */\n      0x00\n        /* \"#utility.yul\":12680:12683   */\n      dup6\n        /* \"#utility.yul\":12676:12690   */\n      add\n        /* \"#utility.yul\":12662:12674   */\n      dup3\n        /* \"#utility.yul\":12634:12691   */\n      tag_341\n      jump\t// in\n    tag_423:\n        /* \"#utility.yul\":12542:12701   */\n      pop\n        /* \"#utility.yul\":12783:12787   */\n      0x20\n        /* \"#utility.yul\":12776:12781   */\n      dup3\n        /* \"#utility.yul\":12772:12788   */\n      add\n        /* \"#utility.yul\":12766:12789   */\n      mload\n        /* \"#utility.yul\":12802:12859   */\n      tag_424\n        /* \"#utility.yul\":12853:12857   */\n      0x20\n        /* \"#utility.yul\":12848:12851   */\n      dup6\n        /* \"#utility.yul\":12844:12858   */\n      add\n        /* \"#utility.yul\":12830:12842   */\n      dup3\n        /* \"#utility.yul\":12802:12859   */\n      tag_341\n      jump\t// in\n    tag_424:\n        /* \"#utility.yul\":12711:12869   */\n      pop\n        /* \"#utility.yul\":12956:12960   */\n      0x40\n        /* \"#utility.yul\":12949:12954   */\n      dup3\n        /* \"#utility.yul\":12945:12961   */\n      add\n        /* \"#utility.yul\":12939:12962   */\n      mload\n        /* \"#utility.yul\":12975:13038   */\n      tag_425\n        /* \"#utility.yul\":13032:13036   */\n      0x40\n        /* \"#utility.yul\":13027:13030   */\n      dup6\n        /* \"#utility.yul\":13023:13037   */\n      add\n        /* \"#utility.yul\":13009:13021   */\n      dup3\n        /* \"#utility.yul\":12975:13038   */\n      tag_320\n      jump\t// in\n    tag_425:\n        /* \"#utility.yul\":12879:13048   */\n      pop\n        /* \"#utility.yul\":12496:13055   */\n      pop\n        /* \"#utility.yul\":12400:13055   */\n      pop\n      pop\n      jump\t// out\n        /* \"#utility.yul\":13061:13179   */\n    tag_426:\n        /* \"#utility.yul\":13148:13172   */\n      tag_428\n        /* \"#utility.yul\":13166:13171   */\n      dup2\n        /* \"#utility.yul\":13148:13172   */\n      tag_429\n      jump\t// in\n    tag_428:\n        /* \"#utility.yul\":13143:13146   */\n      dup3\n        /* \"#utility.yul\":13136:13173   */\n      mstore\n        /* \"#utility.yul\":13061:13179   */\n      pop\n      pop\n      jump\t// out\n        /* \"#utility.yul\":13185:13407   */\n    tag_71:\n        /* \"#utility.yul\":13278:13282   */\n      0x00\n        /* \"#utility.yul\":13316:13318   */\n      0x20\n        /* \"#utility.yul\":13305:13314   */\n      dup3\n        /* \"#utility.yul\":13301:13319   */\n      add\n        /* \"#utility.yul\":13293:13319   */\n      swap1\n      pop\n        /* \"#utility.yul\":13329:13400   */\n      tag_431\n        /* \"#utility.yul\":13397:13398   */\n      0x00\n        /* \"#utility.yul\":13386:13395   */\n      dup4\n        /* \"#utility.yul\":13382:13399   */\n      add\n        /* \"#utility.yul\":13373:13379   */\n      dup5\n        /* \"#utility.yul\":13329:13400   */\n      tag_324\n      jump\t// in\n    tag_431:\n        /* \"#utility.yul\":13185:13407   */\n      swap3\n      swap2\n      pop\n      pop\n      jump\t// out\n        /* \"#utility.yul\":13413:13623   */\n    tag_53:\n        /* \"#utility.yul\":13500:13504   */\n      0x00\n        /* \"#utility.yul\":13538:13540   */\n      0x20\n        /* \"#utility.yul\":13527:13536   */\n      dup3\n        /* \"#utility.yul\":13523:13541   */\n      add\n        /* \"#utility.yul\":13515:13541   */\n      swap1\n      pop\n        /* \"#utility.yul\":13551:13616   */\n      tag_433\n        /* \"#utility.yul\":13613:13614   */\n      0x00\n        /* \"#utility.yul\":13602:13611   */\n      dup4\n        /* \"#utility.yul\":13598:13615   */\n      add\n        /* \"#utility.yul\":13589:13595   */\n      dup5\n        /* \"#utility.yul\":13551:13616   */\n      tag_345\n      jump\t// in\n    tag_433:\n        /* \"#utility.yul\":13413:13623   */\n      swap3\n      swap2\n      pop\n      pop\n      jump\t// out\n        /* \"#utility.yul\":13629:14047   */\n    tag_59:\n        /* \"#utility.yul\":13766:13770   */\n      0x00\n        /* \"#utility.yul\":13804:13806   */\n      0x60\n        /* \"#utility.yul\":13793:13802   */\n      dup3\n        /* \"#utility.yul\":13789:13807   */\n      add\n        /* \"#utility.yul\":13781:13807   */\n      swap1\n      pop\n        /* \"#utility.yul\":13817:13882   */\n      tag_435\n        /* \"#utility.yul\":13879:13880   */\n      0x00\n        /* \"#utility.yul\":13868:13877   */\n      dup4\n        /* \"#utility.yul\":13864:13881   */\n      add\n        /* \"#utility.yul\":13855:13861   */\n      dup7\n        /* \"#utility.yul\":13817:13882   */\n      tag_345\n      jump\t// in\n    tag_435:\n        /* \"#utility.yul\":13892:13958   */\n      tag_436\n        /* \"#utility.yul\":13954:13956   */\n      0x20\n        /* \"#utility.yul\":13943:13952   */\n      dup4\n        /* \"#utility.yul\":13939:13957   */\n      add\n        /* \"#utility.yul\":13930:13936   */\n      dup6\n        /* \"#utility.yul\":13892:13958   */\n      tag_345\n      jump\t// in\n    tag_436:\n        /* \"#utility.yul\":13968:14040   */\n      tag_437\n        /* \"#utility.yul\":14036:14038   */\n      0x40\n        /* \"#utility.yul\":14025:14034   */\n      dup4\n        /* \"#utility.yul\":14021:14039   */\n      add\n        /* \"#utility.yul\":14012:14018   */\n      dup5\n        /* \"#utility.yul\":13968:14040   */\n      tag_324\n      jump\t// in\n    tag_437:\n        /* \"#utility.yul\":13629:14047   */\n      swap5\n      swap4\n      pop\n      pop\n      pop\n      pop\n      jump\t// out\n        /* \"#utility.yul\":14053:14459   */\n    tag_43:\n        /* \"#utility.yul\":14184:14188   */\n      0x00\n        /* \"#utility.yul\":14222:14224   */\n      0x60\n        /* \"#utility.yul\":14211:14220   */\n      dup3\n        /* \"#utility.yul\":14207:14225   */\n      add\n        /* \"#utility.yul\":14199:14225   */\n      swap1\n      pop\n        /* \"#utility.yul\":14235:14300   */\n      tag_439\n        /* \"#utility.yul\":14297:14298   */\n      0x00\n        /* \"#utility.yul\":14286:14295   */\n      dup4\n        /* \"#utility.yul\":14282:14299   */\n      add\n        /* \"#utility.yul\":14273:14279   */\n      dup7\n        /* \"#utility.yul\":14235:14300   */\n      tag_345\n      jump\t// in\n    tag_439:\n        /* \"#utility.yul\":14310:14376   */\n      tag_440\n        /* \"#utility.yul\":14372:14374   */\n      0x20\n        /* \"#utility.yul\":14361:14370   */\n      dup4\n        /* \"#utility.yul\":14357:14375   */\n      add\n        /* \"#utility.yul\":14348:14354   */\n      dup6\n        /* \"#utility.yul\":14310:14376   */\n      tag_345\n      jump\t// in\n    tag_440:\n        /* \"#utility.yul\":14386:14452   */\n      tag_441\n        /* \"#utility.yul\":14448:14450   */\n      0x40\n        /* \"#utility.yul\":14437:14446   */\n      dup4\n        /* \"#utility.yul\":14433:14451   */\n      add\n        /* \"#utility.yul\":14424:14430   */\n      dup5\n        /* \"#utility.yul\":14386:14452   */\n      tag_345\n      jump\t// in\n    tag_441:\n        /* \"#utility.yul\":14053:14459   */\n      swap5\n      swap4\n      pop\n      pop\n      pop\n      pop\n      jump\t// out\n        /* \"#utility.yul\":14465:15237   */\n    tag_37:\n        /* \"#utility.yul\":14726:14730   */\n      0x00\n        /* \"#utility.yul\":14764:14767   */\n      0x80\n        /* \"#utility.yul\":14753:14762   */\n      dup3\n        /* \"#utility.yul\":14749:14768   */\n      add\n        /* \"#utility.yul\":14741:14768   */\n      swap1\n      pop\n        /* \"#utility.yul\":14778:14843   */\n      tag_443\n        /* \"#utility.yul\":14840:14841   */\n      0x00\n        /* \"#utility.yul\":14829:14838   */\n      dup4\n        /* \"#utility.yul\":14825:14842   */\n      add\n        /* \"#utility.yul\":14816:14822   */\n      dup8\n        /* \"#utility.yul\":14778:14843   */\n      tag_345\n      jump\t// in\n    tag_443:\n        /* \"#utility.yul\":14853:14925   */\n      tag_444\n        /* \"#utility.yul\":14921:14923   */\n      0x20\n        /* \"#utility.yul\":14910:14919   */\n      dup4\n        /* \"#utility.yul\":14906:14924   */\n      add\n        /* \"#utility.yul\":14897:14903   */\n      dup7\n        /* \"#utility.yul\":14853:14925   */\n      tag_348\n      jump\t// in\n    tag_444:\n        /* \"#utility.yul\":14935:15007   */\n      tag_445\n        /* \"#utility.yul\":15003:15005   */\n      0x40\n        /* \"#utility.yul\":14992:15001   */\n      dup4\n        /* \"#utility.yul\":14988:15006   */\n      add\n        /* \"#utility.yul\":14979:14985   */\n      dup6\n        /* \"#utility.yul\":14935:15007   */\n      tag_426\n      jump\t// in\n    tag_445:\n        /* \"#utility.yul\":15054:15063   */\n      dup2\n        /* \"#utility.yul\":15048:15052   */\n      dup2\n        /* \"#utility.yul\":15044:15064   */\n      sub\n        /* \"#utility.yul\":15039:15041   */\n      0x60\n        /* \"#utility.yul\":15028:15037   */\n      dup4\n        /* \"#utility.yul\":15024:15042   */\n      add\n        /* \"#utility.yul\":15017:15065   */\n      mstore\n        /* \"#utility.yul\":15082:15230   */\n      tag_446\n        /* \"#utility.yul\":15225:15229   */\n      dup2\n        /* \"#utility.yul\":15216:15222   */\n      dup5\n        /* \"#utility.yul\":15082:15230   */\n      tag_327\n      jump\t// in\n    tag_446:\n        /* \"#utility.yul\":15074:15230   */\n      swap1\n      pop\n        /* \"#utility.yul\":14465:15237   */\n      swap6\n      swap5\n      pop\n      pop\n      pop\n      pop\n      pop\n      jump\t// out\n        /* \"#utility.yul\":15243:15465   */\n    tag_93:\n        /* \"#utility.yul\":15336:15340   */\n      0x00\n        /* \"#utility.yul\":15374:15376   */\n      0x20\n        /* \"#utility.yul\":15363:15372   */\n      dup3\n        /* \"#utility.yul\":15359:15377   */\n      add\n        /* \"#utility.yul\":15351:15377   */\n      swap1\n      pop\n        /* \"#utility.yul\":15387:15458   */\n      tag_448\n        /* \"#utility.yul\":15455:15456   */\n      0x00\n        /* \"#utility.yul\":15444:15453   */\n      dup4\n        /* \"#utility.yul\":15440:15457   */\n      add\n        /* \"#utility.yul\":15431:15437   */\n      dup5\n        /* \"#utility.yul\":15387:15458   */\n      tag_348\n      jump\t// in\n    tag_448:\n        /* \"#utility.yul\":15243:15465   */\n      swap3\n      swap2\n      pop\n      pop\n      jump\t// out\n        /* \"#utility.yul\":15471:15894   */\n    tag_88:\n        /* \"#utility.yul\":15612:15616   */\n      0x00\n        /* \"#utility.yul\":15650:15652   */\n      0x40\n        /* \"#utility.yul\":15639:15648   */\n      dup3\n        /* \"#utility.yul\":15635:15653   */\n      add\n        /* \"#utility.yul\":15627:15653   */\n      swap1\n      pop\n        /* \"#utility.yul\":15663:15734   */\n      tag_450\n        /* \"#utility.yul\":15731:15732   */\n      0x00\n        /* \"#utility.yul\":15720:15729   */\n      dup4\n        /* \"#utility.yul\":15716:15733   */\n      add\n        /* \"#utility.yul\":15707:15713   */\n      dup6\n        /* \"#utility.yul\":15663:15734   */\n      tag_348\n      jump\t// in\n    tag_450:\n        /* \"#utility.yul\":15781:15790   */\n      dup2\n        /* \"#utility.yul\":15775:15779   */\n      dup2\n        /* \"#utility.yul\":15771:15791   */\n      sub\n        /* \"#utility.yul\":15766:15768   */\n      0x20\n        /* \"#utility.yul\":15755:15764   */\n      dup4\n        /* \"#utility.yul\":15751:15769   */\n      add\n        /* \"#utility.yul\":15744:15792   */\n      mstore\n        /* \"#utility.yul\":15809:15887   */\n      tag_451\n        /* \"#utility.yul\":15882:15886   */\n      dup2\n        /* \"#utility.yul\":15873:15879   */\n      dup5\n        /* \"#utility.yul\":15809:15887   */\n      tag_352\n      jump\t// in\n    tag_451:\n        /* \"#utility.yul\":15801:15887   */\n      swap1\n      pop\n        /* \"#utility.yul\":15471:15894   */\n      swap4\n      swap3\n      pop\n      pop\n      pop\n      jump\t// out\n        /* \"#utility.yul\":15900:16213   */\n    tag_98:\n        /* \"#utility.yul\":16013:16017   */\n      0x00\n        /* \"#utility.yul\":16051:16053   */\n      0x20\n        /* \"#utility.yul\":16040:16049   */\n      dup3\n        /* \"#utility.yul\":16036:16054   */\n      add\n        /* \"#utility.yul\":16028:16054   */\n      swap1\n      pop\n        /* \"#utility.yul\":16100:16109   */\n      dup2\n        /* \"#utility.yul\":16094:16098   */\n      dup2\n        /* \"#utility.yul\":16090:16110   */\n      sub\n        /* \"#utility.yul\":16086:16087   */\n      0x00\n        /* \"#utility.yul\":16075:16084   */\n      dup4\n        /* \"#utility.yul\":16071:16088   */\n      add\n        /* \"#utility.yul\":16064:16111   */\n      mstore\n        /* \"#utility.yul\":16128:16206   */\n      tag_453\n        /* \"#utility.yul\":16201:16205   */\n      dup2\n        /* \"#utility.yul\":16192:16198   */\n      dup5\n        /* \"#utility.yul\":16128:16206   */\n      tag_352\n      jump\t// in\n    tag_453:\n        /* \"#utility.yul\":16120:16206   */\n      swap1\n      pop\n        /* \"#utility.yul\":15900:16213   */\n      swap3\n      swap2\n      pop\n      pop\n      jump\t// out\n        /* \"#utility.yul\":16219:16638   */\n    tag_225:\n        /* \"#utility.yul\":16385:16389   */\n      0x00\n        /* \"#utility.yul\":16423:16425   */\n      0x20\n        /* \"#utility.yul\":16412:16421   */\n      dup3\n        /* \"#utility.yul\":16408:16426   */\n      add\n        /* \"#utility.yul\":16400:16426   */\n      swap1\n      pop\n        /* \"#utility.yul\":16472:16481   */\n      dup2\n        /* \"#utility.yul\":16466:16470   */\n      dup2\n        /* \"#utility.yul\":16462:16482   */\n      sub\n        /* \"#utility.yul\":16458:16459   */\n      0x00\n        /* \"#utility.yul\":16447:16456   */\n      dup4\n        /* \"#utility.yul\":16443:16460   */\n      add\n        /* \"#utility.yul\":16436:16483   */\n      mstore\n        /* \"#utility.yul\":16500:16631   */\n      tag_455\n        /* \"#utility.yul\":16626:16630   */\n      dup2\n        /* \"#utility.yul\":16500:16631   */\n      tag_362\n      jump\t// in\n    tag_455:\n        /* \"#utility.yul\":16492:16631   */\n      swap1\n      pop\n        /* \"#utility.yul\":16219:16638   */\n      swap2\n      swap1\n      pop\n      jump\t// out\n        /* \"#utility.yul\":16644:17063   */\n    tag_199:\n        /* \"#utility.yul\":16810:16814   */\n      0x00\n        /* \"#utility.yul\":16848:16850   */\n      0x20\n        /* \"#utility.yul\":16837:16846   */\n      dup3\n        /* \"#utility.yul\":16833:16851   */\n      add\n        /* \"#utility.yul\":16825:16851   */\n      swap1\n      pop\n        /* \"#utility.yul\":16897:16906   */\n      dup2\n        /* \"#utility.yul\":16891:16895   */\n      dup2\n        /* \"#utility.yul\":16887:16907   */\n      sub\n        /* \"#utility.yul\":16883:16884   */\n      0x00\n        /* \"#utility.yul\":16872:16881   */\n      dup4\n        /* \"#utility.yul\":16868:16885   */\n      add\n        /* \"#utility.yul\":16861:16908   */\n      mstore\n        /* \"#utility.yul\":16925:17056   */\n      tag_457\n        /* \"#utility.yul\":17051:17055   */\n      dup2\n        /* \"#utility.yul\":16925:17056   */\n      tag_367\n      jump\t// in\n    tag_457:\n        /* \"#utility.yul\":16917:17056   */\n      swap1\n      pop\n        /* \"#utility.yul\":16644:17063   */\n      swap2\n      swap1\n      pop\n      jump\t// out\n        /* \"#utility.yul\":17069:17488   */\n    tag_152:\n        /* \"#utility.yul\":17235:17239   */\n      0x00\n        /* \"#utility.yul\":17273:17275   */\n      0x20\n        /* \"#utility.yul\":17262:17271   */\n      dup3\n        /* \"#utility.yul\":17258:17276   */\n      add\n        /* \"#utility.yul\":17250:17276   */\n      swap1\n      pop\n        /* \"#utility.yul\":17322:17331   */\n      dup2\n        /* \"#utility.yul\":17316:17320   */\n      dup2\n        /* \"#utility.yul\":17312:17332   */\n      sub\n        /* \"#utility.yul\":17308:17309   */\n      0x00\n        /* \"#utility.yul\":17297:17306   */\n      dup4\n        /* \"#utility.yul\":17293:17310   */\n      add\n        /* \"#utility.yul\":17286:17333   */\n      mstore\n        /* \"#utility.yul\":17350:17481   */\n      tag_459\n        /* \"#utility.yul\":17476:17480   */\n      dup2\n        /* \"#utility.yul\":17350:17481   */\n      tag_372\n      jump\t// in\n    tag_459:\n        /* \"#utility.yul\":17342:17481   */\n      swap1\n      pop\n        /* \"#utility.yul\":17069:17488   */\n      swap2\n      swap1\n      pop\n      jump\t// out\n        /* \"#utility.yul\":17494:17913   */\n    tag_183:\n        /* \"#utility.yul\":17660:17664   */\n      0x00\n        /* \"#utility.yul\":17698:17700   */\n      0x20\n        /* \"#utility.yul\":17687:17696   */\n      dup3\n        /* \"#utility.yul\":17683:17701   */\n      add\n        /* \"#utility.yul\":17675:17701   */\n      swap1\n      pop\n        /* \"#utility.yul\":17747:17756   */\n      dup2\n        /* \"#utility.yul\":17741:17745   */\n      dup2\n        /* \"#utility.yul\":17737:17757   */\n      sub\n        /* \"#utility.yul\":17733:17734   */\n      0x00\n        /* \"#utility.yul\":17722:17731   */\n      dup4\n        /* \"#utility.yul\":17718:17735   */\n      add\n        /* \"#utility.yul\":17711:17758   */\n      mstore\n        /* \"#utility.yul\":17775:17906   */\n      tag_461\n        /* \"#utility.yul\":17901:17905   */\n      dup2\n        /* \"#utility.yul\":17775:17906   */\n      tag_377\n      jump\t// in\n    tag_461:\n        /* \"#utility.yul\":17767:17906   */\n      swap1\n      pop\n        /* \"#utility.yul\":17494:17913   */\n      swap2\n      swap1\n      pop\n      jump\t// out\n        /* \"#utility.yul\":17919:18338   */\n    tag_222:\n        /* \"#utility.yul\":18085:18089   */\n      0x00\n        /* \"#utility.yul\":18123:18125   */\n      0x20\n        /* \"#utility.yul\":18112:18121   */\n      dup3\n        /* \"#utility.yul\":18108:18126   */\n      add\n        /* \"#utility.yul\":18100:18126   */\n      swap1\n      pop\n        /* \"#utility.yul\":18172:18181   */\n      dup2\n        /* \"#utility.yul\":18166:18170   */\n      dup2\n        /* \"#utility.yul\":18162:18182   */\n      sub\n        /* \"#utility.yul\":18158:18159   */\n      0x00\n        /* \"#utility.yul\":18147:18156   */\n      dup4\n        /* \"#utility.yul\":18143:18160   */\n      add\n        /* \"#utility.yul\":18136:18183   */\n      mstore\n        /* \"#utility.yul\":18200:18331   */\n      tag_463\n        /* \"#utility.yul\":18326:18330   */\n      dup2\n        /* \"#utility.yul\":18200:18331   */\n      tag_382\n      jump\t// in\n    tag_463:\n        /* \"#utility.yul\":18192:18331   */\n      swap1\n      pop\n        /* \"#utility.yul\":17919:18338   */\n      swap2\n      swap1\n      pop\n      jump\t// out\n        /* \"#utility.yul\":18344:18763   */\n    tag_180:\n        /* \"#utility.yul\":18510:18514   */\n      0x00\n        /* \"#utility.yul\":18548:18550   */\n      0x20\n        /* \"#utility.yul\":18537:18546   */\n      dup3\n        /* \"#utility.yul\":18533:18551   */\n      add\n        /* \"#utility.yul\":18525:18551   */\n      swap1\n      pop\n        /* \"#utility.yul\":18597:18606   */\n      dup2\n        /* \"#utility.yul\":18591:18595   */\n      dup2\n        /* \"#utility.yul\":18587:18607   */\n      sub\n        /* \"#utility.yul\":18583:18584   */\n      0x00\n        /* \"#utility.yul\":18572:18581   */\n      dup4\n        /* \"#utility.yul\":18568:18585   */\n      add\n        /* \"#utility.yul\":18561:18608   */\n      mstore\n        /* \"#utility.yul\":18625:18756   */\n      tag_465\n        /* \"#utility.yul\":18751:18755   */\n      dup2\n        /* \"#utility.yul\":18625:18756   */\n      tag_387\n      jump\t// in\n    tag_465:\n        /* \"#utility.yul\":18617:18756   */\n      swap1\n      pop\n        /* \"#utility.yul\":18344:18763   */\n      swap2\n      swap1\n      pop\n      jump\t// out\n        /* \"#utility.yul\":18769:19188   */\n    tag_228:\n        /* \"#utility.yul\":18935:18939   */\n      0x00\n        /* \"#utility.yul\":18973:18975   */\n      0x20\n        /* \"#utility.yul\":18962:18971   */\n      dup3\n        /* \"#utility.yul\":18958:18976   */\n      add\n        /* \"#utility.yul\":18950:18976   */\n      swap1\n      pop\n        /* \"#utility.yul\":19022:19031   */\n      dup2\n        /* \"#utility.yul\":19016:19020   */\n      dup2\n        /* \"#utility.yul\":19012:19032   */\n      sub\n        /* \"#utility.yul\":19008:19009   */\n      0x00\n        /* \"#utility.yul\":18997:19006   */\n      dup4\n        /* \"#utility.yul\":18993:19010   */\n      add\n        /* \"#utility.yul\":18986:19033   */\n      mstore\n        /* \"#utility.yul\":19050:19181   */\n      tag_467\n        /* \"#utility.yul\":19176:19180   */\n      dup2\n        /* \"#utility.yul\":19050:19181   */\n      tag_392\n      jump\t// in\n    tag_467:\n        /* \"#utility.yul\":19042:19181   */\n      swap1\n      pop\n        /* \"#utility.yul\":18769:19188   */\n      swap2\n      swap1\n      pop\n      jump\t// out\n        /* \"#utility.yul\":19194:19613   */\n    tag_219:\n        /* \"#utility.yul\":19360:19364   */\n      0x00\n        /* \"#utility.yul\":19398:19400   */\n      0x20\n        /* \"#utility.yul\":19387:19396   */\n      dup3\n        /* \"#utility.yul\":19383:19401   */\n      add\n        /* \"#utility.yul\":19375:19401   */\n      swap1\n      pop\n        /* \"#utility.yul\":19447:19456   */\n      dup2\n        /* \"#utility.yul\":19441:19445   */\n      dup2\n        /* \"#utility.yul\":19437:19457   */\n      sub\n        /* \"#utility.yul\":19433:19434   */\n      0x00\n        /* \"#utility.yul\":19422:19431   */\n      dup4\n        /* \"#utility.yul\":19418:19435   */\n      add\n        /* \"#utility.yul\":19411:19458   */\n      mstore\n        /* \"#utility.yul\":19475:19606   */\n      tag_469\n        /* \"#utility.yul\":19601:19605   */\n      dup2\n        /* \"#utility.yul\":19475:19606   */\n      tag_397\n      jump\t// in\n    tag_469:\n        /* \"#utility.yul\":19467:19606   */\n      swap1\n      pop\n        /* \"#utility.yul\":19194:19613   */\n      swap2\n      swap1\n      pop\n      jump\t// out\n        /* \"#utility.yul\":19619:20038   */\n    tag_134:\n        /* \"#utility.yul\":19785:19789   */\n      0x00\n        /* \"#utility.yul\":19823:19825   */\n      0x20\n        /* \"#utility.yul\":19812:19821   */\n      dup3\n        /* \"#utility.yul\":19808:19826   */\n      add\n        /* \"#utility.yul\":19800:19826   */\n      swap1\n      pop\n        /* \"#utility.yul\":19872:19881   */\n      dup2\n        /* \"#utility.yul\":19866:19870   */\n      dup2\n        /* \"#utility.yul\":19862:19882   */\n      sub\n        /* \"#utility.yul\":19858:19859   */\n      0x00\n        /* \"#utility.yul\":19847:19856   */\n      dup4\n        /* \"#utility.yul\":19843:19860   */\n      add\n        /* \"#utility.yul\":19836:19883   */\n      mstore\n        /* \"#utility.yul\":19900:20031   */\n      tag_471\n        /* \"#utility.yul\":20026:20030   */\n      dup2\n        /* \"#utility.yul\":19900:20031   */\n      tag_402\n      jump\t// in\n    tag_471:\n        /* \"#utility.yul\":19892:20031   */\n      swap1\n      pop\n        /* \"#utility.yul\":19619:20038   */\n      swap2\n      swap1\n      pop\n      jump\t// out\n        /* \"#utility.yul\":20044:20463   */\n    tag_127:\n        /* \"#utility.yul\":20210:20214   */\n      0x00\n        /* \"#utility.yul\":20248:20250   */\n      0x20\n        /* \"#utility.yul\":20237:20246   */\n      dup3\n        /* \"#utility.yul\":20233:20251   */\n      add\n        /* \"#utility.yul\":20225:20251   */\n      swap1\n      pop\n        /* \"#utility.yul\":20297:20306   */\n      dup2\n        /* \"#utility.yul\":20291:20295   */\n      dup2\n        /* \"#utility.yul\":20287:20307   */\n      sub\n        /* \"#utility.yul\":20283:20284   */\n      0x00\n        /* \"#utility.yul\":20272:20281   */\n      dup4\n        /* \"#utility.yul\":20268:20285   */\n      add\n        /* \"#utility.yul\":20261:20308   */\n      mstore\n        /* \"#utility.yul\":20325:20456   */\n      tag_473\n        /* \"#utility.yul\":20451:20455   */\n      dup2\n        /* \"#utility.yul\":20325:20456   */\n      tag_407\n      jump\t// in\n    tag_473:\n        /* \"#utility.yul\":20317:20456   */\n      swap1\n      pop\n        /* \"#utility.yul\":20044:20463   */\n      swap2\n      swap1\n      pop\n      jump\t// out\n        /* \"#utility.yul\":20469:20888   */\n    tag_177:\n        /* \"#utility.yul\":20635:20639   */\n      0x00\n        /* \"#utility.yul\":20673:20675   */\n      0x20\n        /* \"#utility.yul\":20662:20671   */\n      dup3\n        /* \"#utility.yul\":20658:20676   */\n      add\n        /* \"#utility.yul\":20650:20676   */\n      swap1\n      pop\n        /* \"#utility.yul\":20722:20731   */\n      dup2\n        /* \"#utility.yul\":20716:20720   */\n      dup2\n        /* \"#utility.yul\":20712:20732   */\n      sub\n        /* \"#utility.yul\":20708:20709   */\n      0x00\n        /* \"#utility.yul\":20697:20706   */\n      dup4\n        /* \"#utility.yul\":20693:20710   */\n      add\n        /* \"#utility.yul\":20686:20733   */\n      mstore\n        /* \"#utility.yul\":20750:20881   */\n      tag_475\n        /* \"#utility.yul\":20876:20880   */\n      dup2\n        /* \"#utility.yul\":20750:20881   */\n      tag_412\n      jump\t// in\n    tag_475:\n        /* \"#utility.yul\":20742:20881   */\n      swap1\n      pop\n        /* \"#utility.yul\":20469:20888   */\n      swap2\n      swap1\n      pop\n      jump\t// out\n        /* \"#utility.yul\":20894:21313   */\n    tag_148:\n        /* \"#utility.yul\":21060:21064   */\n      0x00\n        /* \"#utility.yul\":21098:21100   */\n      0x20\n        /* \"#utility.yul\":21087:21096   */\n      dup3\n        /* \"#utility.yul\":21083:21101   */\n      add\n        /* \"#utility.yul\":21075:21101   */\n      swap1\n      pop\n        /* \"#utility.yul\":21147:21156   */\n      dup2\n        /* \"#utility.yul\":21141:21145   */\n      dup2\n        /* \"#utility.yul\":21137:21157   */\n      sub\n        /* \"#utility.yul\":21133:21134   */\n      0x00\n        /* \"#utility.yul\":21122:21131   */\n      dup4\n        /* \"#utility.yul\":21118:21135   */\n      add\n        /* \"#utility.yul\":21111:21158   */\n      mstore\n        /* \"#utility.yul\":21175:21306   */\n      tag_477\n        /* \"#utility.yul\":21301:21305   */\n      dup2\n        /* \"#utility.yul\":21175:21306   */\n      tag_417\n      jump\t// in\n    tag_477:\n        /* \"#utility.yul\":21167:21306   */\n      swap1\n      pop\n        /* \"#utility.yul\":20894:21313   */\n      swap2\n      swap1\n      pop\n      jump\t// out\n        /* \"#utility.yul\":21319:21541   */\n    tag_32:\n        /* \"#utility.yul\":21412:21416   */\n      0x00\n        /* \"#utility.yul\":21450:21452   */\n      0x20\n        /* \"#utility.yul\":21439:21448   */\n      dup3\n        /* \"#utility.yul\":21435:21453   */\n      add\n        /* \"#utility.yul\":21427:21453   */\n      swap1\n      pop\n        /* \"#utility.yul\":21463:21534   */\n      tag_479\n        /* \"#utility.yul\":21531:21532   */\n      0x00\n        /* \"#utility.yul\":21520:21529   */\n      dup4\n        /* \"#utility.yul\":21516:21533   */\n      add\n        /* \"#utility.yul\":21507:21513   */\n      dup5\n        /* \"#utility.yul\":21463:21534   */\n      tag_426\n      jump\t// in\n    tag_479:\n        /* \"#utility.yul\":21319:21541   */\n      swap3\n      swap2\n      pop\n      pop\n      jump\t// out\n        /* \"#utility.yul\":21547:21989   */\n    tag_48:\n        /* \"#utility.yul\":21696:21700   */\n      0x00\n        /* \"#utility.yul\":21734:21736   */\n      0x60\n        /* \"#utility.yul\":21723:21732   */\n      dup3\n        /* \"#utility.yul\":21719:21737   */\n      add\n        /* \"#utility.yul\":21711:21737   */\n      swap1\n      pop\n        /* \"#utility.yul\":21747:21818   */\n      tag_481\n        /* \"#utility.yul\":21815:21816   */\n      0x00\n        /* \"#utility.yul\":21804:21813   */\n      dup4\n        /* \"#utility.yul\":21800:21817   */\n      add\n        /* \"#utility.yul\":21791:21797   */\n      dup7\n        /* \"#utility.yul\":21747:21818   */\n      tag_426\n      jump\t// in\n    tag_481:\n        /* \"#utility.yul\":21828:21900   */\n      tag_482\n        /* \"#utility.yul\":21896:21898   */\n      0x20\n        /* \"#utility.yul\":21885:21894   */\n      dup4\n        /* \"#utility.yul\":21881:21899   */\n      add\n        /* \"#utility.yul\":21872:21878   */\n      dup6\n        /* \"#utility.yul\":21828:21900   */\n      tag_426\n      jump\t// in\n    tag_482:\n        /* \"#utility.yul\":21910:21982   */\n      tag_483\n        /* \"#utility.yul\":21978:21980   */\n      0x40\n        /* \"#utility.yul\":21967:21976   */\n      dup4\n        /* \"#utility.yul\":21963:21981   */\n      add\n        /* \"#utility.yul\":21954:21960   */\n      dup5\n        /* \"#utility.yul\":21910:21982   */\n      tag_426\n      jump\t// in\n    tag_483:\n        /* \"#utility.yul\":21547:21989   */\n      swap5\n      swap4\n      pop\n      pop\n      pop\n      pop\n      jump\t// out\n        /* \"#utility.yul\":21995:22124   */\n    tag_246:\n        /* \"#utility.yul\":22029:22035   */\n      0x00\n        /* \"#utility.yul\":22056:22076   */\n      tag_485\n      tag_486\n      jump\t// in\n    tag_485:\n        /* \"#utility.yul\":22046:22076   */\n      swap1\n      pop\n        /* \"#utility.yul\":22085:22118   */\n      tag_487\n        /* \"#utility.yul\":22113:22117   */\n      dup3\n        /* \"#utility.yul\":22105:22111   */\n      dup3\n        /* \"#utility.yul\":22085:22118   */\n      tag_488\n      jump\t// in\n    tag_487:\n        /* \"#utility.yul\":21995:22124   */\n      swap2\n      swap1\n      pop\n      jump\t// out\n        /* \"#utility.yul\":22130:22205   */\n    tag_486:\n        /* \"#utility.yul\":22163:22169   */\n      0x00\n        /* \"#utility.yul\":22196:22198   */\n      0x40\n        /* \"#utility.yul\":22190:22199   */\n      mload\n        /* \"#utility.yul\":22180:22199   */\n      swap1\n      pop\n        /* \"#utility.yul\":22130:22205   */\n      swap1\n      jump\t// out\n        /* \"#utility.yul\":22211:22519   */\n    tag_245:\n        /* \"#utility.yul\":22273:22277   */\n      0x00\n        /* \"#utility.yul\":22363:22381   */\n      0xffffffffffffffff\n        /* \"#utility.yul\":22355:22361   */\n      dup3\n        /* \"#utility.yul\":22352:22382   */\n      gt\n        /* \"#utility.yul\":22349:22405   */\n      iszero\n      tag_491\n      jumpi\n        /* \"#utility.yul\":22385:22403   */\n      tag_492\n      tag_493\n      jump\t// in\n    tag_492:\n        /* \"#utility.yul\":22349:22405   */\n    tag_491:\n        /* \"#utility.yul\":22423:22452   */\n      tag_494\n        /* \"#utility.yul\":22445:22451   */\n      dup3\n        /* \"#utility.yul\":22423:22452   */\n      tag_361\n      jump\t// in\n    tag_494:\n        /* \"#utility.yul\":22415:22452   */\n      swap1\n      pop\n        /* \"#utility.yul\":22507:22511   */\n      0x20\n        /* \"#utility.yul\":22501:22505   */\n      dup2\n        /* \"#utility.yul\":22497:22512   */\n      add\n        /* \"#utility.yul\":22489:22512   */\n      swap1\n      pop\n        /* \"#utility.yul\":22211:22519   */\n      swap2\n      swap1\n      pop\n      jump\t// out\n        /* \"#utility.yul\":22525:22677   */\n    tag_334:\n        /* \"#utility.yul\":22612:22616   */\n      0x00\n        /* \"#utility.yul\":22635:22638   */\n      dup2\n        /* \"#utility.yul\":22627:22638   */\n      swap1\n      pop\n        /* \"#utility.yul\":22665:22669   */\n      0x20\n        /* \"#utility.yul\":22660:22663   */\n      dup3\n        /* \"#utility.yul\":22656:22670   */\n      add\n        /* \"#utility.yul\":22648:22670   */\n      swap1\n      pop\n        /* \"#utility.yul\":22525:22677   */\n      swap2\n      swap1\n      pop\n      jump\t// out\n        /* \"#utility.yul\":22683:22817   */\n    tag_330:\n        /* \"#utility.yul\":22770:22776   */\n      0x00\n        /* \"#utility.yul\":22804:22809   */\n      dup2\n        /* \"#utility.yul\":22798:22810   */\n      mload\n        /* \"#utility.yul\":22788:22810   */\n      swap1\n      pop\n        /* \"#utility.yul\":22683:22817   */\n      swap2\n      swap1\n      pop\n      jump\t// out\n        /* \"#utility.yul\":22823:22922   */\n    tag_355:\n        /* \"#utility.yul\":22875:22881   */\n      0x00\n        /* \"#utility.yul\":22909:22914   */\n      dup2\n        /* \"#utility.yul\":22903:22915   */\n      mload\n        /* \"#utility.yul\":22893:22915   */\n      swap1\n      pop\n        /* \"#utility.yul\":22823:22922   */\n      swap2\n      swap1\n      pop\n      jump\t// out\n        /* \"#utility.yul\":22928:23061   */\n    tag_340:\n        /* \"#utility.yul\":23018:23022   */\n      0x00\n        /* \"#utility.yul\":23050:23054   */\n      0x20\n        /* \"#utility.yul\":23045:23048   */\n      dup3\n        /* \"#utility.yul\":23041:23055   */\n      add\n        /* \"#utility.yul\":23033:23055   */\n      swap1\n      pop\n        /* \"#utility.yul\":22928:23061   */\n      swap2\n      swap1\n      pop\n      jump\t// out\n        /* \"#utility.yul\":23067:23271   */\n    tag_332:\n        /* \"#utility.yul\":23186:23197   */\n      0x00\n        /* \"#utility.yul\":23220:23226   */\n      dup3\n        /* \"#utility.yul\":23215:23218   */\n      dup3\n        /* \"#utility.yul\":23208:23227   */\n      mstore\n        /* \"#utility.yul\":23260:23264   */\n      0x20\n        /* \"#utility.yul\":23255:23258   */\n      dup3\n        /* \"#utility.yul\":23251:23265   */\n      add\n        /* \"#utility.yul\":23236:23265   */\n      swap1\n      pop\n        /* \"#utility.yul\":23067:23271   */\n      swap3\n      swap2\n      pop\n      pop\n      jump\t// out\n        /* \"#utility.yul\":23277:23446   */\n    tag_357:\n        /* \"#utility.yul\":23361:23372   */\n      0x00\n        /* \"#utility.yul\":23395:23401   */\n      dup3\n        /* \"#utility.yul\":23390:23393   */\n      dup3\n        /* \"#utility.yul\":23383:23402   */\n      mstore\n        /* \"#utility.yul\":23435:23439   */\n      0x20\n        /* \"#utility.yul\":23430:23433   */\n      dup3\n        /* \"#utility.yul\":23426:23440   */\n      add\n        /* \"#utility.yul\":23411:23440   */\n      swap1\n      pop\n        /* \"#utility.yul\":23277:23446   */\n      swap3\n      swap2\n      pop\n      pop\n      jump\t// out\n        /* \"#utility.yul\":23452:23757   */\n    tag_186:\n        /* \"#utility.yul\":23492:23495   */\n      0x00\n        /* \"#utility.yul\":23511:23531   */\n      tag_502\n        /* \"#utility.yul\":23529:23530   */\n      dup3\n        /* \"#utility.yul\":23511:23531   */\n      tag_429\n      jump\t// in\n    tag_502:\n        /* \"#utility.yul\":23506:23531   */\n      swap2\n      pop\n        /* \"#utility.yul\":23545:23565   */\n      tag_503\n        /* \"#utility.yul\":23563:23564   */\n      dup4\n        /* \"#utility.yul\":23545:23565   */\n      tag_429\n      jump\t// in\n    tag_503:\n        /* \"#utility.yul\":23540:23565   */\n      swap3\n      pop\n        /* \"#utility.yul\":23699:23700   */\n      dup3\n        /* \"#utility.yul\":23631:23697   */\n      0xffffffffffffffffffffffffffffffffffffffffffffffffffffffffffffffff\n        /* \"#utility.yul\":23627:23701   */\n      sub\n        /* \"#utility.yul\":23624:23625   */\n      dup3\n        /* \"#utility.yul\":23621:23702   */\n      gt\n        /* \"#utility.yul\":23618:23725   */\n      iszero\n      tag_504\n      jumpi\n        /* \"#utility.yul\":23705:23723   */\n      tag_505\n      tag_506\n      jump\t// in\n    tag_505:\n        /* \"#utility.yul\":23618:23725   */\n    tag_504:\n        /* \"#utility.yul\":23749:23750   */\n      dup3\n        /* \"#utility.yul\":23746:23747   */\n      dup3\n        /* \"#utility.yul\":23742:23751   */\n      add\n        /* \"#utility.yul\":23735:23751   */\n      swap1\n      pop\n        /* \"#utility.yul\":23452:23757   */\n      swap3\n      swap2\n      pop\n      pop\n      jump\t// out\n        /* \"#utility.yul\":23763:23948   */\n    tag_154:\n        /* \"#utility.yul\":23803:23804   */\n      0x00\n        /* \"#utility.yul\":23820:23840   */\n      tag_508\n        /* \"#utility.yul\":23838:23839   */\n      dup3\n        /* \"#utility.yul\":23820:23840   */\n      tag_429\n      jump\t// in\n    tag_508:\n        /* \"#utility.yul\":23815:23840   */\n      swap2\n      pop\n        /* \"#utility.yul\":23854:23874   */\n      tag_509\n        /* \"#utility.yul\":23872:23873   */\n      dup4\n        /* \"#utility.yul\":23854:23874   */\n      tag_429\n      jump\t// in\n    tag_509:\n        /* \"#utility.yul\":23849:23874   */\n      swap3\n      pop\n        /* \"#utility.yul\":23893:23894   */\n      dup3\n        /* \"#utility.yul\":23883:23918   */\n      tag_510\n      jumpi\n        /* \"#utility.yul\":23898:23916   */\n      tag_511\n      tag_512\n      jump\t// in\n    tag_511:\n        /* \"#utility.yul\":23883:23918   */\n    tag_510:\n        /* \"#utility.yul\":23940:23941   */\n      dup3\n        /* \"#utility.yul\":23937:23938   */\n      dup3\n        /* \"#utility.yul\":23933:23942   */\n      div\n        /* \"#utility.yul\":23928:23942   */\n      swap1\n      pop\n        /* \"#utility.yul\":23763:23948   */\n      swap3\n      swap2\n      pop\n      pop\n      jump\t// out\n        /* \"#utility.yul\":23954:24302   */\n    tag_156:\n        /* \"#utility.yul\":23994:24001   */\n      0x00\n        /* \"#utility.yul\":24017:24037   */\n      tag_514\n        /* \"#utility.yul\":24035:24036   */\n      dup3\n        /* \"#utility.yul\":24017:24037   */\n      tag_429\n      jump\t// in\n    tag_514:\n        /* \"#utility.yul\":24012:24037   */\n      swap2\n      pop\n        /* \"#utility.yul\":24051:24071   */\n      tag_515\n        /* \"#utility.yul\":24069:24070   */\n      dup4\n        /* \"#utility.yul\":24051:24071   */\n      tag_429\n      jump\t// in\n    tag_515:\n        /* \"#utility.yul\":24046:24071   */\n      swap3\n      pop\n        /* \"#utility.yul\":24239:24240   */\n      dup2\n        /* \"#utility.yul\":24171:24237   */\n      0xffffffffffffffffffffffffffffffffffffffffffffffffffffffffffffffff\n        /* \"#utility.yul\":24167:24241   */\n      div\n        /* \"#utility.yul\":24164:24165   */\n      dup4\n        /* \"#utility.yul\":24161:24242   */\n      gt\n        /* \"#utility.yul\":24156:24157   */\n      dup3\n        /* \"#utility.yul\":24149:24158   */\n      iszero\n        /* \"#utility.yul\":24142:24159   */\n      iszero\n        /* \"#utility.yul\":24138:24243   */\n      and\n        /* \"#utility.yul\":24135:24266   */\n      iszero\n      tag_516\n      jumpi\n        /* \"#utility.yul\":24246:24264   */\n      tag_517\n      tag_506\n      jump\t// in\n    tag_517:\n        /* \"#utility.yul\":24135:24266   */\n    tag_516:\n        /* \"#utility.yul\":24294:24295   */\n      dup3\n        /* \"#utility.yul\":24291:24292   */\n      dup3\n        /* \"#utility.yul\":24287:24296   */\n      mul\n        /* \"#utility.yul\":24276:24296   */\n      swap1\n      pop\n        /* \"#utility.yul\":23954:24302   */\n      swap3\n      swap2\n      pop\n      pop\n      jump\t// out\n        /* \"#utility.yul\":24308:24404   */\n    tag_323:\n        /* \"#utility.yul\":24345:24352   */\n      0x00\n        /* \"#utility.yul\":24374:24398   */\n      tag_519\n        /* \"#utility.yul\":24392:24397   */\n      dup3\n        /* \"#utility.yul\":24374:24398   */\n      tag_520\n      jump\t// in\n    tag_519:\n        /* \"#utility.yul\":24363:24398   */\n      swap1\n      pop\n        /* \"#utility.yul\":24308:24404   */\n      swap2\n      swap1\n      pop\n      jump\t// out\n        /* \"#utility.yul\":24410:24500   */\n    tag_344:\n        /* \"#utility.yul\":24444:24451   */\n      0x00\n        /* \"#utility.yul\":24487:24492   */\n      dup2\n        /* \"#utility.yul\":24480:24493   */\n      iszero\n        /* \"#utility.yul\":24473:24494   */\n      iszero\n        /* \"#utility.yul\":24462:24494   */\n      swap1\n      pop\n        /* \"#utility.yul\":24410:24500   */\n      swap2\n      swap1\n      pop\n      jump\t// out\n        /* \"#utility.yul\":24506:24583   */\n    tag_351:\n        /* \"#utility.yul\":24543:24550   */\n      0x00\n        /* \"#utility.yul\":24572:24577   */\n      dup2\n        /* \"#utility.yul\":24561:24577   */\n      swap1\n      pop\n        /* \"#utility.yul\":24506:24583   */\n      swap2\n      swap1\n      pop\n      jump\t// out\n        /* \"#utility.yul\":24589:24715   */\n    tag_520:\n        /* \"#utility.yul\":24626:24633   */\n      0x00\n        /* \"#utility.yul\":24666:24708   */\n      0xffffffffffffffffffffffffffffffffffffffff\n        /* \"#utility.yul\":24659:24664   */\n      dup3\n        /* \"#utility.yul\":24655:24709   */\n      and\n        /* \"#utility.yul\":24644:24709   */\n      swap1\n      pop\n        /* \"#utility.yul\":24589:24715   */\n      swap2\n      swap1\n      pop\n      jump\t// out\n        /* \"#utility.yul\":24721:24798   */\n    tag_429:\n        /* \"#utility.yul\":24758:24765   */\n      0x00\n        /* \"#utility.yul\":24787:24792   */\n      dup2\n        /* \"#utility.yul\":24776:24792   */\n      swap1\n      pop\n        /* \"#utility.yul\":24721:24798   */\n      swap2\n      swap1\n      pop\n      jump\t// out\n        /* \"#utility.yul\":24804:24890   */\n    tag_525:\n        /* \"#utility.yul\":24839:24846   */\n      0x00\n        /* \"#utility.yul\":24879:24883   */\n      0xff\n        /* \"#utility.yul\":24872:24877   */\n      dup3\n        /* \"#utility.yul\":24868:24884   */\n      and\n        /* \"#utility.yul\":24857:24884   */\n      swap1\n      pop\n        /* \"#utility.yul\":24804:24890   */\n      swap2\n      swap1\n      pop\n      jump\t// out\n        /* \"#utility.yul\":24896:25050   */\n    tag_251:\n        /* \"#utility.yul\":24980:24986   */\n      dup3\n        /* \"#utility.yul\":24975:24978   */\n      dup2\n        /* \"#utility.yul\":24970:24973   */\n      dup4\n        /* \"#utility.yul\":24957:24987   */\n      calldatacopy\n        /* \"#utility.yul\":25042:25043   */\n      0x00\n        /* \"#utility.yul\":25033:25039   */\n      dup4\n        /* \"#utility.yul\":25028:25031   */\n      dup4\n        /* \"#utility.yul\":25024:25040   */\n      add\n        /* \"#utility.yul\":25017:25044   */\n      mstore\n        /* \"#utility.yul\":24896:25050   */\n      pop\n      pop\n      pop\n      jump\t// out\n        /* \"#utility.yul\":25056:25363   */\n    tag_359:\n        /* \"#utility.yul\":25124:25125   */\n      0x00\n        /* \"#utility.yul\":25134:25247   */\n    tag_529:\n        /* \"#utility.yul\":25148:25154   */\n      dup4\n        /* \"#utility.yul\":25145:25146   */\n      dup2\n        /* \"#utility.yul\":25142:25155   */\n      lt\n        /* \"#utility.yul\":25134:25247   */\n      iszero\n      tag_531\n      jumpi\n        /* \"#utility.yul\":25233:25234   */\n      dup1\n        /* \"#utility.yul\":25228:25231   */\n      dup3\n        /* \"#utility.yul\":25224:25235   */\n      add\n        /* \"#utility.yul\":25218:25236   */\n      mload\n        /* \"#utility.yul\":25214:25215   */\n      dup2\n        /* \"#utility.yul\":25209:25212   */\n      dup5\n        /* \"#utility.yul\":25205:25216   */\n      add\n        /* \"#utility.yul\":25198:25237   */\n      mstore\n        /* \"#utility.yul\":25170:25172   */\n      0x20\n        /* \"#utility.yul\":25167:25168   */\n      dup2\n        /* \"#utility.yul\":25163:25173   */\n      add\n        /* \"#utility.yul\":25158:25173   */\n      swap1\n      pop\n        /* \"#utility.yul\":25134:25247   */\n      jump(tag_529)\n    tag_531:\n        /* \"#utility.yul\":25265:25271   */\n      dup4\n        /* \"#utility.yul\":25262:25263   */\n      dup2\n        /* \"#utility.yul\":25259:25272   */\n      gt\n        /* \"#utility.yul\":25256:25357   */\n      iszero\n      tag_532\n      jumpi\n        /* \"#utility.yul\":25345:25346   */\n      0x00\n        /* \"#utility.yul\":25336:25342   */\n      dup5\n        /* \"#utility.yul\":25331:25334   */\n      dup5\n        /* \"#utility.yul\":25327:25343   */\n      add\n        /* \"#utility.yul\":25320:25347   */\n      mstore\n        /* \"#utility.yul\":25256:25357   */\n    tag_532:\n        /* \"#utility.yul\":25105:25363   */\n      pop\n        /* \"#utility.yul\":25056:25363   */\n      pop\n      pop\n      pop\n      jump\t// out\n        /* \"#utility.yul\":25369:25689   */\n    tag_206:\n        /* \"#utility.yul\":25413:25419   */\n      0x00\n        /* \"#utility.yul\":25450:25451   */\n      0x02\n        /* \"#utility.yul\":25444:25448   */\n      dup3\n        /* \"#utility.yul\":25440:25452   */\n      div\n        /* \"#utility.yul\":25430:25452   */\n      swap1\n      pop\n        /* \"#utility.yul\":25497:25498   */\n      0x01\n        /* \"#utility.yul\":25491:25495   */\n      dup3\n        /* \"#utility.yul\":25487:25499   */\n      and\n        /* \"#utility.yul\":25518:25536   */\n      dup1\n        /* \"#utility.yul\":25508:25589   */\n      tag_534\n      jumpi\n        /* \"#utility.yul\":25574:25578   */\n      0x7f\n        /* \"#utility.yul\":25566:25572   */\n      dup3\n        /* \"#utility.yul\":25562:25579   */\n      and\n        /* \"#utility.yul\":25552:25579   */\n      swap2\n      pop\n        /* \"#utility.yul\":25508:25589   */\n    tag_534:\n        /* \"#utility.yul\":25636:25638   */\n      0x20\n        /* \"#utility.yul\":25628:25634   */\n      dup3\n        /* \"#utility.yul\":25625:25639   */\n      lt\n        /* \"#utility.yul\":25605:25623   */\n      dup2\n        /* \"#utility.yul\":25602:25640   */\n      eq\n        /* \"#utility.yul\":25599:25683   */\n      iszero\n      tag_535\n      jumpi\n        /* \"#utility.yul\":25655:25673   */\n      tag_536\n      tag_537\n      jump\t// in\n    tag_536:\n        /* \"#utility.yul\":25599:25683   */\n    tag_535:\n        /* \"#utility.yul\":25420:25689   */\n      pop\n        /* \"#utility.yul\":25369:25689   */\n      swap2\n      swap1\n      pop\n      jump\t// out\n        /* \"#utility.yul\":25695:25976   */\n    tag_488:\n        /* \"#utility.yul\":25778:25805   */\n      tag_539\n        /* \"#utility.yul\":25800:25804   */\n      dup3\n        /* \"#utility.yul\":25778:25805   */\n      tag_361\n      jump\t// in\n    tag_539:\n        /* \"#utility.yul\":25770:25776   */\n      dup2\n        /* \"#utility.yul\":25766:25806   */\n      add\n        /* \"#utility.yul\":25908:25914   */\n      dup2\n        /* \"#utility.yul\":25896:25906   */\n      dup2\n        /* \"#utility.yul\":25893:25915   */\n      lt\n        /* \"#utility.yul\":25872:25890   */\n      0xffffffffffffffff\n        /* \"#utility.yul\":25860:25870   */\n      dup3\n        /* \"#utility.yul\":25857:25891   */\n      gt\n        /* \"#utility.yul\":25854:25916   */\n      or\n        /* \"#utility.yul\":25851:25939   */\n      iszero\n      tag_540\n      jumpi\n        /* \"#utility.yul\":25919:25937   */\n      tag_541\n      tag_493\n      jump\t// in\n    tag_541:\n        /* \"#utility.yul\":25851:25939   */\n    tag_540:\n        /* \"#utility.yul\":25959:25969   */\n      dup1\n        /* \"#utility.yul\":25955:25957   */\n      0x40\n        /* \"#utility.yul\":25948:25970   */\n      mstore\n        /* \"#utility.yul\":25738:25976   */\n      pop\n        /* \"#utility.yul\":25695:25976   */\n      pop\n      pop\n      jump\t// out\n        /* \"#utility.yul\":25982:26149   */\n    tag_171:\n        /* \"#utility.yul\":26019:26022   */\n      0x00\n        /* \"#utility.yul\":26042:26064   */\n      tag_543\n        /* \"#utility.yul\":26058:26063   */\n      dup3\n        /* \"#utility.yul\":26042:26064   */\n      tag_525\n      jump\t// in\n    tag_543:\n        /* \"#utility.yul\":26033:26064   */\n      swap2\n      pop\n        /* \"#utility.yul\":26086:26090   */\n      0xff\n        /* \"#utility.yul\":26079:26084   */\n      dup3\n        /* \"#utility.yul\":26076:26091   */\n      eq\n        /* \"#utility.yul\":26073:26114   */\n      iszero\n      tag_544\n      jumpi\n        /* \"#utility.yul\":26094:26112   */\n      tag_545\n      tag_506\n      jump\t// in\n    tag_545:\n        /* \"#utility.yul\":26073:26114   */\n    tag_544:\n        /* \"#utility.yul\":26141:26142   */\n      0x01\n        /* \"#utility.yul\":26134:26139   */\n      dup3\n        /* \"#utility.yul\":26130:26143   */\n      add\n        /* \"#utility.yul\":26123:26143   */\n      swap1\n      pop\n        /* \"#utility.yul\":25982:26149   */\n      swap2\n      swap1\n      pop\n      jump\t// out\n        /* \"#utility.yul\":26155:26335   */\n    tag_506:\n        /* \"#utility.yul\":26203:26280   */\n      0x4e487b7100000000000000000000000000000000000000000000000000000000\n        /* \"#utility.yul\":26200:26201   */\n      0x00\n        /* \"#utility.yul\":26193:26281   */\n      mstore\n        /* \"#utility.yul\":26300:26304   */\n      0x11\n        /* \"#utility.yul\":26297:26298   */\n      0x04\n        /* \"#utility.yul\":26290:26305   */\n      mstore\n        /* \"#utility.yul\":26324:26328   */\n      0x24\n        /* \"#utility.yul\":26321:26322   */\n      0x00\n        /* \"#utility.yul\":26314:26329   */\n      revert\n        /* \"#utility.yul\":26341:26521   */\n    tag_512:\n        /* \"#utility.yul\":26389:26466   */\n      0x4e487b7100000000000000000000000000000000000000000000000000000000\n        /* \"#utility.yul\":26386:26387   */\n      0x00\n        /* \"#utility.yul\":26379:26467   */\n      mstore\n        /* \"#utility.yul\":26486:26490   */\n      0x12\n        /* \"#utility.yul\":26483:26484   */\n      0x04\n        /* \"#utility.yul\":26476:26491   */\n      mstore\n        /* \"#utility.yul\":26510:26514   */\n      0x24\n        /* \"#utility.yul\":26507:26508   */\n      0x00\n        /* \"#utility.yul\":26500:26515   */\n      revert\n        /* \"#utility.yul\":26527:26707   */\n    tag_537:\n        /* \"#utility.yul\":26575:26652   */\n      0x4e487b7100000000000000000000000000000000000000000000000000000000\n        /* \"#utility.yul\":26572:26573   */\n      0x00\n        /* \"#utility.yul\":26565:26653   */\n      mstore\n        /* \"#utility.yul\":26672:26676   */\n      0x22\n        /* \"#utility.yul\":26669:26670   */\n      0x04\n        /* \"#utility.yul\":26662:26677   */\n      mstore\n        /* \"#utility.yul\":26696:26700   */\n      0x24\n        /* \"#utility.yul\":26693:26694   */\n      0x00\n        /* \"#utility.yul\":26686:26701   */\n      revert\n        /* \"#utility.yul\":26713:26893   */\n    tag_163:\n        /* \"#utility.yul\":26761:26838   */\n      0x4e487b7100000000000000000000000000000000000000000000000000000000\n        /* \"#utility.yul\":26758:26759   */\n      0x00\n        /* \"#utility.yul\":26751:26839   */\n      mstore\n        /* \"#utility.yul\":26858:26862   */\n      0x32\n        /* \"#utility.yul\":26855:26856   */\n      0x04\n        /* \"#utility.yul\":26848:26863   */\n      mstore\n        /* \"#utility.yul\":26882:26886   */\n      0x24\n        /* \"#utility.yul\":26879:26880   */\n      0x00\n        /* \"#utility.yul\":26872:26887   */\n      revert\n        /* \"#utility.yul\":26899:27079   */\n    tag_493:\n        /* \"#utility.yul\":26947:27024   */\n      0x4e487b7100000000000000000000000000000000000000000000000000000000\n        /* \"#utility.yul\":26944:26945   */\n      0x00\n        /* \"#utility.yul\":26937:27025   */\n      mstore\n        /* \"#utility.yul\":27044:27048   */\n      0x41\n        /* \"#utility.yul\":27041:27042   */\n      0x04\n        /* \"#utility.yul\":27034:27049   */\n      mstore\n        /* \"#utility.yul\":27068:27072   */\n      0x24\n        /* \"#utility.yul\":27065:27066   */\n      0x00\n        /* \"#utility.yul\":27058:27073   */\n      revert\n        /* \"#utility.yul\":27085:27202   */\n    tag_264:\n        /* \"#utility.yul\":27194:27195   */\n      0x00\n        /* \"#utility.yul\":27191:27192   */\n      dup1\n        /* \"#utility.yul\":27184:27196   */\n      revert\n        /* \"#utility.yul\":27208:27325   */\n    tag_249:\n        /* \"#utility.yul\":27317:27318   */\n      0x00\n        /* \"#utility.yul\":27314:27315   */\n      dup1\n        /* \"#utility.yul\":27307:27319   */\n      revert\n        /* \"#utility.yul\":27331:27448   */\n    tag_307:\n        /* \"#utility.yul\":27440:27441   */\n      0x00\n        /* \"#utility.yul\":27437:27438   */\n      dup1\n        /* \"#utility.yul\":27430:27442   */\n      revert\n        /* \"#utility.yul\":27454:27571   */\n    tag_273:\n        /* \"#utility.yul\":27563:27564   */\n      0x00\n        /* \"#utility.yul\":27560:27561   */\n      dup1\n        /* \"#utility.yul\":27553:27565   */\n      revert\n        /* \"#utility.yul\":27577:27679   */\n    tag_361:\n        /* \"#utility.yul\":27618:27624   */\n      0x00\n        /* \"#utility.yul\":27669:27671   */\n      0x1f\n        /* \"#utility.yul\":27665:27672   */\n      not\n        /* \"#utility.yul\":27660:27662   */\n      0x1f\n        /* \"#utility.yul\":27653:27658   */\n      dup4\n        /* \"#utility.yul\":27649:27663   */\n      add\n        /* \"#utility.yul\":27645:27673   */\n      and\n        /* \"#utility.yul\":27635:27673   */\n      swap1\n      pop\n        /* \"#utility.yul\":27577:27679   */\n      swap2\n      swap1\n      pop\n      jump\t// out\n        /* \"#utility.yul\":27685:27866   */\n    tag_366:\n        /* \"#utility.yul\":27825:27858   */\n      0x526563697069656e7420697320616c7265616479207265676973746572656400\n        /* \"#utility.yul\":27821:27822   */\n      0x00\n        /* \"#utility.yul\":27813:27819   */\n      dup3\n        /* \"#utility.yul\":27809:27823   */\n      add\n        /* \"#utility.yul\":27802:27859   */\n      mstore\n        /* \"#utility.yul\":27685:27866   */\n      pop\n      jump\t// out\n        /* \"#utility.yul\":27872:28047   */\n    tag_371:\n        /* \"#utility.yul\":28012:28039   */\n      0x50726f706f73616c20616c726561647920637265617465642100000000000000\n        /* \"#utility.yul\":28008:28009   */\n      0x00\n        /* \"#utility.yul\":28000:28006   */\n      dup3\n        /* \"#utility.yul\":27996:28010   */\n      add\n        /* \"#utility.yul\":27989:28040   */\n      mstore\n        /* \"#utility.yul\":27872:28047   */\n      pop\n      jump\t// out\n        /* \"#utility.yul\":28053:28278   */\n    tag_376:\n        /* \"#utility.yul\":28193:28227   */\n      0x596f75206172656e277420617574686f72697a6520746f20636f6d70696c6520\n        /* \"#utility.yul\":28189:28190   */\n      0x00\n        /* \"#utility.yul\":28181:28187   */\n      dup3\n        /* \"#utility.yul\":28177:28191   */\n      add\n        /* \"#utility.yul\":28170:28228   */\n      mstore\n        /* \"#utility.yul\":28262:28270   */\n      0x42756e646c650000000000000000000000000000000000000000000000000000\n        /* \"#utility.yul\":28257:28259   */\n      0x20\n        /* \"#utility.yul\":28249:28255   */\n      dup3\n        /* \"#utility.yul\":28245:28260   */\n      add\n        /* \"#utility.yul\":28238:28271   */\n      mstore\n        /* \"#utility.yul\":28053:28278   */\n      pop\n      jump\t// out\n        /* \"#utility.yul\":28284:28462   */\n    tag_381:\n        /* \"#utility.yul\":28424:28454   */\n      0x596f7520616c72656164792073656e74206120726573706f6e73652e00000000\n        /* \"#utility.yul\":28420:28421   */\n      0x00\n        /* \"#utility.yul\":28412:28418   */\n      dup3\n        /* \"#utility.yul\":28408:28422   */\n      add\n        /* \"#utility.yul\":28401:28455   */\n      mstore\n        /* \"#utility.yul\":28284:28462   */\n      pop\n      jump\t// out\n        /* \"#utility.yul\":28468:28639   */\n    tag_386:\n        /* \"#utility.yul\":28608:28631   */\n      0x496e69746961746f722063616e277420766f7465210000000000000000000000\n        /* \"#utility.yul\":28604:28605   */\n      0x00\n        /* \"#utility.yul\":28596:28602   */\n      dup3\n        /* \"#utility.yul\":28592:28606   */\n      add\n        /* \"#utility.yul\":28585:28632   */\n      mstore\n        /* \"#utility.yul\":28468:28639   */\n      pop\n      jump\t// out\n        /* \"#utility.yul\":28645:28825   */\n    tag_391:\n        /* \"#utility.yul\":28785:28817   */\n      0x596f7520617265206e6f74207265676973746572656420746f20766f74650000\n        /* \"#utility.yul\":28781:28782   */\n      0x00\n        /* \"#utility.yul\":28773:28779   */\n      dup3\n        /* \"#utility.yul\":28769:28783   */\n      add\n        /* \"#utility.yul\":28762:28818   */\n      mstore\n        /* \"#utility.yul\":28645:28825   */\n      pop\n      jump\t// out\n        /* \"#utility.yul\":28831:29054   */\n    tag_396:\n        /* \"#utility.yul\":28971:29005   */\n      0x50726f706f73616c206861732072656163686564206974732065787069727920\n        /* \"#utility.yul\":28967:28968   */\n      0x00\n        /* \"#utility.yul\":28959:28965   */\n      dup3\n        /* \"#utility.yul\":28955:28969   */\n      add\n        /* \"#utility.yul\":28948:29006   */\n      mstore\n        /* \"#utility.yul\":29040:29046   */\n      0x6461746500000000000000000000000000000000000000000000000000000000\n        /* \"#utility.yul\":29035:29037   */\n      0x20\n        /* \"#utility.yul\":29027:29033   */\n      dup3\n        /* \"#utility.yul\":29023:29038   */\n      add\n        /* \"#utility.yul\":29016:29047   */\n      mstore\n        /* \"#utility.yul\":28831:29054   */\n      pop\n      jump\t// out\n        /* \"#utility.yul\":29060:29287   */\n    tag_401:\n        /* \"#utility.yul\":29200:29234   */\n      0x4f6e6c7920696e69746961746f722063616e2072656769737465722061207265\n        /* \"#utility.yul\":29196:29197   */\n      0x00\n        /* \"#utility.yul\":29188:29194   */\n      dup3\n        /* \"#utility.yul\":29184:29198   */\n      add\n        /* \"#utility.yul\":29177:29235   */\n      mstore\n        /* \"#utility.yul\":29269:29279   */\n      0x63697069656e742e000000000000000000000000000000000000000000000000\n        /* \"#utility.yul\":29264:29266   */\n      0x20\n        /* \"#utility.yul\":29256:29262   */\n      dup3\n        /* \"#utility.yul\":29252:29267   */\n      add\n        /* \"#utility.yul\":29245:29280   */\n      mstore\n        /* \"#utility.yul\":29060:29287   */\n      pop\n      jump\t// out\n        /* \"#utility.yul\":29293:29463   */\n    tag_406:\n        /* \"#utility.yul\":29433:29455   */\n      0x596f75206172656e277420496e69746961746f72000000000000000000000000\n        /* \"#utility.yul\":29429:29430   */\n      0x00\n        /* \"#utility.yul\":29421:29427   */\n      dup3\n        /* \"#utility.yul\":29417:29431   */\n      add\n        /* \"#utility.yul\":29410:29456   */\n      mstore\n        /* \"#utility.yul\":29293:29463   */\n      pop\n      jump\t// out\n        /* \"#utility.yul\":29469:29651   */\n    tag_411:\n        /* \"#utility.yul\":29609:29643   */\n      0x5665726469637420686173206e6f74206265656e207265616368656420796574\n        /* \"#utility.yul\":29605:29606   */\n      0x00\n        /* \"#utility.yul\":29597:29603   */\n      dup3\n        /* \"#utility.yul\":29593:29607   */\n      add\n        /* \"#utility.yul\":29586:29644   */\n      mstore\n        /* \"#utility.yul\":29469:29651   */\n      pop\n      jump\t// out\n        /* \"#utility.yul\":29657:29825   */\n    tag_416:\n        /* \"#utility.yul\":29797:29817   */\n      0x566f74696e672068617320657870697265640000000000000000000000000000\n        /* \"#utility.yul\":29793:29794   */\n      0x00\n        /* \"#utility.yul\":29785:29791   */\n      dup3\n        /* \"#utility.yul\":29781:29795   */\n      add\n        /* \"#utility.yul\":29774:29818   */\n      mstore\n        /* \"#utility.yul\":29657:29825   */\n      pop\n      jump\t// out\n        /* \"#utility.yul\":29831:30055   */\n    tag_421:\n        /* \"#utility.yul\":29971:30005   */\n      0x436f6e73656e7375732068617320616c7265616479206265656e2063616c6375\n        /* \"#utility.yul\":29967:29968   */\n      0x00\n        /* \"#utility.yul\":29959:29965   */\n      dup3\n        /* \"#utility.yul\":29955:29969   */\n      add\n        /* \"#utility.yul\":29948:30006   */\n      mstore\n        /* \"#utility.yul\":30040:30047   */\n      0x6c61746564000000000000000000000000000000000000000000000000000000\n        /* \"#utility.yul\":30035:30037   */\n      0x20\n        /* \"#utility.yul\":30027:30033   */\n      dup3\n        /* \"#utility.yul\":30023:30038   */\n      add\n        /* \"#utility.yul\":30016:30048   */\n      mstore\n        /* \"#utility.yul\":29831:30055   */\n      pop\n      jump\t// out\n        /* \"#utility.yul\":30061:30183   */\n    tag_255:\n        /* \"#utility.yul\":30134:30158   */\n      tag_569\n        /* \"#utility.yul\":30152:30157   */\n      dup2\n        /* \"#utility.yul\":30134:30158   */\n      tag_323\n      jump\t// in\n    tag_569:\n        /* \"#utility.yul\":30127:30132   */\n      dup2\n        /* \"#utility.yul\":30124:30159   */\n      eq\n        /* \"#utility.yul\":30114:30177   */\n      tag_570\n      jumpi\n        /* \"#utility.yul\":30173:30174   */\n      0x00\n        /* \"#utility.yul\":30170:30171   */\n      dup1\n        /* \"#utility.yul\":30163:30175   */\n      revert\n        /* \"#utility.yul\":30114:30177   */\n    tag_570:\n        /* \"#utility.yul\":30061:30183   */\n      pop\n      jump\t// out\n        /* \"#utility.yul\":30189:30311   */\n    tag_259:\n        /* \"#utility.yul\":30262:30286   */\n      tag_572\n        /* \"#utility.yul\":30280:30285   */\n      dup2\n        /* \"#utility.yul\":30262:30286   */\n      tag_351\n      jump\t// in\n    tag_572:\n        /* \"#utility.yul\":30255:30260   */\n      dup2\n        /* \"#utility.yul\":30252:30287   */\n      eq\n        /* \"#utility.yul\":30242:30305   */\n      tag_573\n      jumpi\n        /* \"#utility.yul\":30301:30302   */\n      0x00\n        /* \"#utility.yul\":30298:30299   */\n      dup1\n        /* \"#utility.yul\":30291:30303   */\n      revert\n        /* \"#utility.yul\":30242:30305   */\n    tag_573:\n        /* \"#utility.yul\":30189:30311   */\n      pop\n      jump\t// out\n        /* \"#utility.yul\":30317:30439   */\n    tag_269:\n        /* \"#utility.yul\":30390:30414   */\n      tag_575\n        /* \"#utility.yul\":30408:30413   */\n      dup2\n        /* \"#utility.yul\":30390:30414   */\n      tag_429\n      jump\t// in\n    tag_575:\n        /* \"#utility.yul\":30383:30388   */\n      dup2\n        /* \"#utility.yul\":30380:30415   */\n      eq\n        /* \"#utility.yul\":30370:30433   */\n      tag_576\n      jumpi\n        /* \"#utility.yul\":30429:30430   */\n      0x00\n        /* \"#utility.yul\":30426:30427   */\n      dup1\n        /* \"#utility.yul\":30419:30431   */\n      revert\n        /* \"#utility.yul\":30370:30433   */\n    tag_576:\n        /* \"#utility.yul\":30317:30439   */\n      pop\n      jump\t// out\n\n    auxdata: 0xa264697066735822122010ba1750d247f93e82ad5d319b1d4bf9dec7320fd45e69916d28d2e4fcd1742d64736f6c63430008070033\n}\n",
				"bytecode": {
					"linkReferences": {},
					"object": "608060405234801561001057600080fd5b50613207806100206000396000f3fe608060405234801561001057600080fd5b50600436106101375760003560e01c80638acc0d10116100b8578063a784ef741161007c578063a784ef74146103da578063d443560a1461040c578063d468f9831461043c578063e463eaee14610458578063e5d009bf14610488578063f20ca12c146104b857610137565b80638acc0d10146103115780638b0e8a2a1461032d57806397299e9914610349578063a0d859a31461037a578063a4a8f426146103aa57610137565b80634fd3b445116100ff5780634fd3b445146102335780635273bc48146102655780637d6c570a146102955780637ff4c389146102b1578063823a6366146102e157610137565b806313191ade1461013c57806327f0ae921461016c57806333dfd1261461019f57806338232742146101d157806338c20a9e14610203575b600080fd5b61015660048036038101906101519190612307565b6104e8565b6040516101639190612aec565b60405180910390f35b61018660048036038101906101819190612307565b610500565b60405161019694939291906128b3565b60405180910390f35b6101b960048036038101906101b491906123b4565b6106a9565b6040516101c89392919061287c565b60405180910390f35b6101eb60048036038101906101e69190612307565b610852565b6040516101fa93929190612b07565b60405180910390f35b61021d60048036038101906102189190612307565b61087c565b60405161022a919061282a565b60405180910390f35b61024d60048036038101906102489190612374565b61089c565b60405161025c93929190612845565b60405180910390f35b61027f600480360381019061027a9190612307565b610919565b60405161028c919061282a565b60405180910390f35b6102af60048036038101906102aa9190612307565b610943565b005b6102cb60048036038101906102c69190612374565b610ea1565b6040516102d8919061280f565b60405180910390f35b6102fb60048036038101906102f69190612307565b610eef565b604051610308919061282a565b60405180910390f35b61032b600480360381019061032691906124c4565b610f0f565b005b6103476004803603810190610342919061241b565b6117d3565b005b610363600480360381019061035e9190612307565b611b06565b60405161037192919061291a565b60405180910390f35b610394600480360381019061038f9190612307565b611bc6565b6040516103a191906128ff565b60405180910390f35b6103c460048036038101906103bf9190612307565b611bde565b6040516103d1919061294a565b60405180910390f35b6103f460048036038101906103ef9190612334565b611c7e565b60405161040393929190612845565b60405180910390f35b61042660048036038101906104219190612307565b611cef565b604051610433919061280f565b60405180910390f35b610456600480360381019061045191906122c7565b611d22565b005b610472600480360381019061046d9190612307565b61212d565b60405161047f9190612aec565b60405180910390f35b6104a2600480360381019061049d9190612307565b612145565b6040516104af91906128ff565b60405180910390f35b6104d260048036038101906104cd9190612307565b61215d565b6040516104df91906128ff565b60405180910390f35b60036020528060005260406000206000915090505481565b600080600060606000808681526020019081526020016000206001015442101561055f576040517f08c379a000000000000000000000000000000000000000000000000000000000815260040161055690612a8c565b60405180910390fd5b6000600b6000878152602001908152602001600020805480602002602001604051908101604052809291908181526020016000905b8282101561064e578382906000526020600020016040518060600160405290816000820160009054906101000a900460ff161515151581526020016000820160019054906101000a900460ff161515151581526020016000820160029054906101000a900473ffffffffffffffffffffffffffffffffffffffff1673ffffffffffffffffffffffffffffffffffffffff1673ffffffffffffffffffffffffffffffffffffffff168152505081526020019060010190610594565b50505050905060006007600088815260200190815260200160002060009054906101000a900460ff16905060008060008981526020019081526020016000206000015490508188828596509650965096505050509193509193565b60008060006001600088815260200190815260200160002060009054906101000a900473ffffffffffffffffffffffffffffffffffffffff1673ffffffffffffffffffffffffffffffffffffffff163373ffffffffffffffffffffffffffffffffffffffff161461074f576040517f08c379a000000000000000000000000000000000000000000000000000000000815260040161074690612a6c565b60405180910390fd5b600060019050600060019050600060019050600073ffffffffffffffffffffffffffffffffffffffff16600160008c815260200190815260200160002060009054906101000a900473ffffffffffffffffffffffffffffffffffffffff1673ffffffffffffffffffffffffffffffffffffffff1614156107dc576001806001955095509550505050610848565b6000808b81526020019081526020016000206002015489146107fd57600092505b600460008b815260200190815260200160002054871461081c57600091505b87600360008c8152602001908152602001600020541461083b57600090505b8282829550955095505050505b9450945094915050565b60006020528060005260406000206000915090508060000154908060010154908060020154905083565b60076020528060005260406000206000915054906101000a900460ff1681565b600b60205281600052604060002081815481106108b857600080fd5b90600052602060002001600091509150508060000160009054906101000a900460ff16908060000160019054906101000a900460ff16908060000160029054906101000a900473ffffffffffffffffffffffffffffffffffffffff16905083565b60006008600083815260200190815260200160002060009054906101000a900460ff169050919050565b6000808281526020019081526020016000206001015442101561099b576040517f08c379a000000000000000000000000000000000000000000000000000000000815260040161099290612a8c565b60405180910390fd5b600015156008600083815260200190815260200160002060009054906101000a900460ff16151514610a02576040517f08c379a00000000000000000000000000000000000000000000000000000000081526004016109f990612acc565b60405180910390fd5b6001600082815260200190815260200160002060009054906101000a900473ffffffffffffffffffffffffffffffffffffffff1673ffffffffffffffffffffffffffffffffffffffff163373ffffffffffffffffffffffffffffffffffffffff161480610b0f5750600073ffffffffffffffffffffffffffffffffffffffff16600a600083815260200190815260200160002060003373ffffffffffffffffffffffffffffffffffffffff1673ffffffffffffffffffffffffffffffffffffffff16815260200190815260200160002060000160029054906101000a900473ffffffffffffffffffffffffffffffffffffffff1673ffffffffffffffffffffffffffffffffffffffff1614155b610b4e576040517f08c379a0000000000000000000000000000000000000000000000000000000008152600401610b45906129ac565b60405180910390fd5b60006064600c6000848152602001908152602001600020805490506005600085815260200190815260200160002054610b879190612c3f565b610b919190612c70565b9050600080838152602001908152602001600020600201548110610bdc5760016007600084815260200190815260200160002060006101000a81548160ff0219169083151502179055505b60005b600c6000848152602001908152602001600020805490508160ff161015610e705760001515600a60008581526020019081526020016000206000600c60008781526020019081526020016000208460ff1681548110610c4157610c40612e85565b5b9060005260206000200160009054906101000a900473ffffffffffffffffffffffffffffffffffffffff1673ffffffffffffffffffffffffffffffffffffffff1673ffffffffffffffffffffffffffffffffffffffff16815260200190815260200160002060000160009054906101000a900460ff1615151415610e5d57600b6000848152602001908152602001600020600a60008581526020019081526020016000206000600c60008781526020019081526020016000208460ff1681548110610d0f57610d0e612e85565b5b9060005260206000200160009054906101000a900473ffffffffffffffffffffffffffffffffffffffff1673ffffffffffffffffffffffffffffffffffffffff1673ffffffffffffffffffffffffffffffffffffffff168152602001908152602001600020908060018154018082558091505060019003906000526020600020016000909190919091506000820160009054906101000a900460ff168160000160006101000a81548160ff0219169083151502179055506000820160019054906101000a900460ff168160000160016101000a81548160ff0219169083151502179055506000820160029054906101000a900473ffffffffffffffffffffffffffffffffffffffff168160000160026101000a81548173ffffffffffffffffffffffffffffffffffffffff021916908373ffffffffffffffffffffffffffffffffffffffff16021790555050505b8080610e6890612dce565b915050610bdf565b5060016008600084815260200190815260200160002060006101000a81548160ff0219169083151502179055505050565b600c6020528160005260406000208181548110610ebd57600080fd5b906000526020600020016000915091509054906101000a900473ffffffffffffffffffffffffffffffffffffffff1681565b60086020528060005260406000206000915054906101000a900460ff1681565b600080828152602001908152602001600020600101544210610f66576040517f08c379a0000000000000000000000000000000000000000000000000000000008152600401610f5d90612aac565b60405180910390fd5b600073ffffffffffffffffffffffffffffffffffffffff16600a600083815260200190815260200160002060003373ffffffffffffffffffffffffffffffffffffffff1673ffffffffffffffffffffffffffffffffffffffff16815260200190815260200160002060000160029054906101000a900473ffffffffffffffffffffffffffffffffffffffff1673ffffffffffffffffffffffffffffffffffffffff161415611049576040517f08c379a000000000000000000000000000000000000000000000000000000000815260040161104090612a0c565b60405180910390fd5b600a600082815260200190815260200160002060003373ffffffffffffffffffffffffffffffffffffffff1673ffffffffffffffffffffffffffffffffffffffff16815260200190815260200160002060000160009054906101000a900460ff16156110ea576040517f08c379a00000000000000000000000000000000000000000000000000000000081526004016110e1906129cc565b60405180910390fd5b6040518060400160405280600981526020017f6920617070726f7665000000000000000000000000000000000000000000000081525080519060200120828051906020012014156113b5576001600a600083815260200190815260200160002060003373ffffffffffffffffffffffffffffffffffffffff1673ffffffffffffffffffffffffffffffffffffffff16815260200190815260200160002060000160006101000a81548160ff0219169083151502179055506001600a600083815260200190815260200160002060003373ffffffffffffffffffffffffffffffffffffffff1673ffffffffffffffffffffffffffffffffffffffff16815260200190815260200160002060000160016101000a81548160ff02191690831515021790555060016005600083815260200190815260200160002060008282546112319190612be9565b925050819055506001600080838152602001908152602001600020600001600082825461125e9190612be9565b92505081905550600b6000828152602001908152602001600020600a600083815260200190815260200160002060003373ffffffffffffffffffffffffffffffffffffffff1673ffffffffffffffffffffffffffffffffffffffff168152602001908152602001600020908060018154018082558091505060019003906000526020600020016000909190919091506000820160009054906101000a900460ff168160000160006101000a81548160ff0219169083151502179055506000820160019054906101000a900460ff168160000160016101000a81548160ff0219169083151502179055506000820160029054906101000a900473ffffffffffffffffffffffffffffffffffffffff168160000160026101000a81548173ffffffffffffffffffffffffffffffffffffffff021916908373ffffffffffffffffffffffffffffffffffffffff16021790555050506117cf565b6040518060400160405280600c81526020017f6920646973617070726f7665000000000000000000000000000000000000000081525080519060200120828051906020012014156115e9576001600a600083815260200190815260200160002060003373ffffffffffffffffffffffffffffffffffffffff1673ffffffffffffffffffffffffffffffffffffffff16815260200190815260200160002060000160006101000a81548160ff021916908315150217905550600160008083815260200190815260200160002060000160008282546114929190612be9565b92505081905550600b6000828152602001908152602001600020600a600083815260200190815260200160002060003373ffffffffffffffffffffffffffffffffffffffff1673ffffffffffffffffffffffffffffffffffffffff168152602001908152602001600020908060018154018082558091505060019003906000526020600020016000909190919091506000820160009054906101000a900460ff168160000160006101000a81548160ff0219169083151502179055506000820160019054906101000a900460ff168160000160016101000a81548160ff0219169083151502179055506000820160029054906101000a900473ffffffffffffffffffffffffffffffffffffffff168160000160026101000a81548173ffffffffffffffffffffffffffffffffffffffff021916908373ffffffffffffffffffffffffffffffffffffffff16021790555050506117ce565b6001600a600083815260200190815260200160002060003373ffffffffffffffffffffffffffffffffffffffff1673ffffffffffffffffffffffffffffffffffffffff16815260200190815260200160002060000160006101000a81548160ff0219169083151502179055506001600080838152602001908152602001600020600001600082825461167b9190612be9565b92505081905550600b6000828152602001908152602001600020600a600083815260200190815260200160002060003373ffffffffffffffffffffffffffffffffffffffff1673ffffffffffffffffffffffffffffffffffffffff168152602001908152602001600020908060018154018082558091505060019003906000526020600020016000909190919091506000820160009054906101000a900460ff168160000160006101000a81548160ff0219169083151502179055506000820160019054906101000a900460ff168160000160016101000a81548160ff0219169083151502179055506000820160029054906101000a900473ffffffffffffffffffffffffffffffffffffffff168160000160026101000a81548173ffffffffffffffffffffffffffffffffffffffff021916908373ffffffffffffffffffffffffffffffffffffffff16021790555050505b5b5050565b600073ffffffffffffffffffffffffffffffffffffffff166001600088815260200190815260200160002060009054906101000a900473ffffffffffffffffffffffffffffffffffffffff1673ffffffffffffffffffffffffffffffffffffffff1614611875576040517f08c379a000000000000000000000000000000000000000000000000000000000815260040161186c9061298c565b60405180910390fd5b600060405180606001604052806000815260200187426118959190612be9565b815260200186815250905086600260008581526020019081526020016000208190555060006008600089815260200190815260200160002060006101000a81548160ff02191690831515021790555060006007600089815260200190815260200160002060006101000a81548160ff021916908315150217905550856003600089815260200190815260200160002081905550856003600085815260200190815260200160002081905550836004600089815260200190815260200160002081905550836004600085815260200190815260200160002081905550826009600089815260200190815260200160002081905550816006600089815260200190815260200160002090805190602001906119af929190612175565b50816006600085815260200190815260200160002090805190602001906119d7929190612175565b5060006005600089815260200190815260200160002081905550336001600089815260200190815260200160002060006101000a81548173ffffffffffffffffffffffffffffffffffffffff021916908373ffffffffffffffffffffffffffffffffffffffff160217905550336001600085815260200190815260200160002060006101000a81548173ffffffffffffffffffffffffffffffffffffffff021916908373ffffffffffffffffffffffffffffffffffffffff160217905550806000808981526020019081526020016000206000820151816000015560208201518160010155604082015181600201559050508060008085815260200190815260200160002060008201518160000155602082015181600101556040820151816002015590505050505050505050565b60006060600260008481526020019081526020016000205460066000858152602001908152602001600020808054611b3d90612d6b565b80601f0160208091040260200160405190810160405280929190818152602001828054611b6990612d6b565b8015611bb65780601f10611b8b57610100808354040283529160200191611bb6565b820191906000526020600020905b815481529060010190602001808311611b9957829003601f168201915b5050505050905091509150915091565b60096020528060005260406000206000915090505481565b60066020528060005260406000206000915090508054611bfd90612d6b565b80601f0160208091040260200160405190810160405280929190818152602001828054611c2990612d6b565b8015611c765780601f10611c4b57610100808354040283529160200191611c76565b820191906000526020600020905b815481529060010190602001808311611c5957829003601f168201915b505050505081565b600a602052816000526040600020602052806000526040600020600091509150508060000160009054906101000a900460ff16908060000160019054906101000a900460ff16908060000160029054906101000a900473ffffffffffffffffffffffffffffffffffffffff16905083565b60016020528060005260406000206000915054906101000a900473ffffffffffffffffffffffffffffffffffffffff1681565b6001600082815260200190815260200160002060009054906101000a900473ffffffffffffffffffffffffffffffffffffffff1673ffffffffffffffffffffffffffffffffffffffff163373ffffffffffffffffffffffffffffffffffffffff1614611dc3576040517f08c379a0000000000000000000000000000000000000000000000000000000008152600401611dba90612a4c565b60405180910390fd5b6001600082815260200190815260200160002060009054906101000a900473ffffffffffffffffffffffffffffffffffffffff1673ffffffffffffffffffffffffffffffffffffffff168273ffffffffffffffffffffffffffffffffffffffff161415611e65576040517f08c379a0000000000000000000000000000000000000000000000000000000008152600401611e5c906129ec565b60405180910390fd5b600073ffffffffffffffffffffffffffffffffffffffff16600a600083815260200190815260200160002060008473ffffffffffffffffffffffffffffffffffffffff1673ffffffffffffffffffffffffffffffffffffffff16815260200190815260200160002060000160029054906101000a900473ffffffffffffffffffffffffffffffffffffffff1673ffffffffffffffffffffffffffffffffffffffff1614611f47576040517f08c379a0000000000000000000000000000000000000000000000000000000008152600401611f3e9061296c565b60405180910390fd5b600080828152602001908152602001600020600101544210611f9e576040517f08c379a0000000000000000000000000000000000000000000000000000000008152600401611f9590612a2c565b60405180910390fd5b600060405180606001604052806000151581526020016000151581526020018473ffffffffffffffffffffffffffffffffffffffff16815250905080600a600084815260200190815260200160002060008573ffffffffffffffffffffffffffffffffffffffff1673ffffffffffffffffffffffffffffffffffffffff16815260200190815260200160002060008201518160000160006101000a81548160ff02191690831515021790555060208201518160000160016101000a81548160ff02191690831515021790555060408201518160000160026101000a81548173ffffffffffffffffffffffffffffffffffffffff021916908373ffffffffffffffffffffffffffffffffffffffff160217905550905050600c6000838152602001908152602001600020839080600181540180825580915050600190039060005260206000200160009091909190916101000a81548173ffffffffffffffffffffffffffffffffffffffff021916908373ffffffffffffffffffffffffffffffffffffffff160217905550505050565b60056020528060005260406000206000915090505481565b60026020528060005260406000206000915090505481565b60046020528060005260406000206000915090505481565b82805461218190612d6b565b90600052602060002090601f0160209004810192826121a357600085556121ea565b82601f106121bc57805160ff19168380011785556121ea565b828001600101855582156121ea579182015b828111156121e95782518255916020019190600101906121ce565b5b5090506121f791906121fb565b5090565b5b808211156122145760008160009055506001016121fc565b5090565b600061222b61222684612b63565b612b3e565b90508281526020810184848401111561224757612246612ee8565b5b612252848285612d29565b509392505050565b6000813590506122698161318c565b92915050565b60008135905061227e816131a3565b92915050565b600082601f83011261229957612298612ee3565b5b81356122a9848260208601612218565b91505092915050565b6000813590506122c1816131ba565b92915050565b600080604083850312156122de576122dd612ef2565b5b60006122ec8582860161225a565b92505060206122fd8582860161226f565b9150509250929050565b60006020828403121561231d5761231c612ef2565b5b600061232b8482850161226f565b91505092915050565b6000806040838503121561234b5761234a612ef2565b5b60006123598582860161226f565b925050602061236a8582860161225a565b9150509250929050565b6000806040838503121561238b5761238a612ef2565b5b60006123998582860161226f565b92505060206123aa858286016122b2565b9150509250929050565b600080600080608085870312156123ce576123cd612ef2565b5b60006123dc8782880161226f565b94505060206123ed878288016122b2565b93505060406123fe878288016122b2565b925050606061240f8782880161226f565b91505092959194509250565b60008060008060008060c0878903121561243857612437612ef2565b5b600061244689828a0161226f565b965050602061245789828a016122b2565b955050604061246889828a016122b2565b945050606061247989828a0161226f565b935050608061248a89828a0161226f565b92505060a087013567ffffffffffffffff8111156124ab576124aa612eed565b5b6124b789828a01612284565b9150509295509295509295565b600080604083850312156124db576124da612ef2565b5b600083013567ffffffffffffffff8111156124f9576124f8612eed565b5b61250585828601612284565b92505060206125168582860161226f565b9150509250929050565b600061252c83836127be565b60608301905092915050565b61254181612cca565b82525050565b61255081612cca565b82525050565b600061256182612ba4565b61256b8185612bc7565b935061257683612b94565b8060005b838110156125a757815161258e8882612520565b975061259983612bba565b92505060018101905061257a565b5085935050505092915050565b6125bd81612cdc565b82525050565b6125cc81612cdc565b82525050565b6125db81612ce8565b82525050565b60006125ec82612baf565b6125f68185612bd8565b9350612606818560208601612d38565b61260f81612ef7565b840191505092915050565b6000612627601f83612bd8565b915061263282612f08565b602082019050919050565b600061264a601983612bd8565b915061265582612f31565b602082019050919050565b600061266d602683612bd8565b915061267882612f5a565b604082019050919050565b6000612690601c83612bd8565b915061269b82612fa9565b602082019050919050565b60006126b3601583612bd8565b91506126be82612fd2565b602082019050919050565b60006126d6601e83612bd8565b91506126e182612ffb565b602082019050919050565b60006126f9602483612bd8565b915061270482613024565b604082019050919050565b600061271c602883612bd8565b915061272782613073565b604082019050919050565b600061273f601483612bd8565b915061274a826130c2565b602082019050919050565b6000612762602083612bd8565b915061276d826130eb565b602082019050919050565b6000612785601283612bd8565b915061279082613114565b602082019050919050565b60006127a8602583612bd8565b91506127b38261313d565b604082019050919050565b6060820160008201516127d460008501826125b4565b5060208201516127e760208501826125b4565b5060408201516127fa6040850182612538565b50505050565b61280981612d12565b82525050565b60006020820190506128246000830184612547565b92915050565b600060208201905061283f60008301846125c3565b92915050565b600060608201905061285a60008301866125c3565b61286760208301856125c3565b6128746040830184612547565b949350505050565b600060608201905061289160008301866125c3565b61289e60208301856125c3565b6128ab60408301846125c3565b949350505050565b60006080820190506128c860008301876125c3565b6128d560208301866125d2565b6128e26040830185612800565b81810360608301526128f48184612556565b905095945050505050565b600060208201905061291460008301846125d2565b92915050565b600060408201905061292f60008301856125d2565b818103602083015261294181846125e1565b90509392505050565b6000602082019050818103600083015261296481846125e1565b905092915050565b600060208201905081810360008301526129858161261a565b9050919050565b600060208201905081810360008301526129a58161263d565b9050919050565b600060208201905081810360008301526129c581612660565b9050919050565b600060208201905081810360008301526129e581612683565b9050919050565b60006020820190508181036000830152612a05816126a6565b9050919050565b60006020820190508181036000830152612a25816126c9565b9050919050565b60006020820190508181036000830152612a45816126ec565b9050919050565b60006020820190508181036000830152612a658161270f565b9050919050565b60006020820190508181036000830152612a8581612732565b9050919050565b60006020820190508181036000830152612aa581612755565b9050919050565b60006020820190508181036000830152612ac581612778565b9050919050565b60006020820190508181036000830152612ae58161279b565b9050919050565b6000602082019050612b016000830184612800565b92915050565b6000606082019050612b1c6000830186612800565b612b296020830185612800565b612b366040830184612800565b949350505050565b6000612b48612b59565b9050612b548282612d9d565b919050565b6000604051905090565b600067ffffffffffffffff821115612b7e57612b7d612eb4565b5b612b8782612ef7565b9050602081019050919050565b6000819050602082019050919050565b600081519050919050565b600081519050919050565b6000602082019050919050565b600082825260208201905092915050565b600082825260208201905092915050565b6000612bf482612d12565b9150612bff83612d12565b9250827fffffffffffffffffffffffffffffffffffffffffffffffffffffffffffffffff03821115612c3457612c33612df8565b5b828201905092915050565b6000612c4a82612d12565b9150612c5583612d12565b925082612c6557612c64612e27565b5b828204905092915050565b6000612c7b82612d12565b9150612c8683612d12565b9250817fffffffffffffffffffffffffffffffffffffffffffffffffffffffffffffffff0483118215151615612cbf57612cbe612df8565b5b828202905092915050565b6000612cd582612cf2565b9050919050565b60008115159050919050565b6000819050919050565b600073ffffffffffffffffffffffffffffffffffffffff82169050919050565b6000819050919050565b600060ff82169050919050565b82818337600083830152505050565b60005b83811015612d56578082015181840152602081019050612d3b565b83811115612d65576000848401525b50505050565b60006002820490506001821680612d8357607f821691505b60208210811415612d9757612d96612e56565b5b50919050565b612da682612ef7565b810181811067ffffffffffffffff82111715612dc557612dc4612eb4565b5b80604052505050565b6000612dd982612d1c565b915060ff821415612ded57612dec612df8565b5b600182019050919050565b7f4e487b7100000000000000000000000000000000000000000000000000000000600052601160045260246000fd5b7f4e487b7100000000000000000000000000000000000000000000000000000000600052601260045260246000fd5b7f4e487b7100000000000000000000000000000000000000000000000000000000600052602260045260246000fd5b7f4e487b7100000000000000000000000000000000000000000000000000000000600052603260045260246000fd5b7f4e487b7100000000000000000000000000000000000000000000000000000000600052604160045260246000fd5b600080fd5b600080fd5b600080fd5b600080fd5b6000601f19601f8301169050919050565b7f526563697069656e7420697320616c7265616479207265676973746572656400600082015250565b7f50726f706f73616c20616c726561647920637265617465642100000000000000600082015250565b7f596f75206172656e277420617574686f72697a6520746f20636f6d70696c652060008201527f42756e646c650000000000000000000000000000000000000000000000000000602082015250565b7f596f7520616c72656164792073656e74206120726573706f6e73652e00000000600082015250565b7f496e69746961746f722063616e277420766f7465210000000000000000000000600082015250565b7f596f7520617265206e6f74207265676973746572656420746f20766f74650000600082015250565b7f50726f706f73616c20686173207265616368656420697473206578706972792060008201527f6461746500000000000000000000000000000000000000000000000000000000602082015250565b7f4f6e6c7920696e69746961746f722063616e207265676973746572206120726560008201527f63697069656e742e000000000000000000000000000000000000000000000000602082015250565b7f596f75206172656e277420496e69746961746f72000000000000000000000000600082015250565b7f5665726469637420686173206e6f74206265656e207265616368656420796574600082015250565b7f566f74696e672068617320657870697265640000000000000000000000000000600082015250565b7f436f6e73656e7375732068617320616c7265616479206265656e2063616c637560008201527f6c61746564000000000000000000000000000000000000000000000000000000602082015250565b61319581612cca565b81146131a057600080fd5b50565b6131ac81612ce8565b81146131b757600080fd5b50565b6131c381612d12565b81146131ce57600080fd5b5056fea264697066735822122010ba1750d247f93e82ad5d319b1d4bf9dec7320fd45e69916d28d2e4fcd1742d64736f6c63430008070033",
					"opcodes": "PUSH1 0x80 PUSH1 0x40 MSTORE CALLVALUE DUP1 ISZERO PUSH2 0x10 JUMPI PUSH1 0x0 DUP1 REVERT JUMPDEST POP PUSH2 0x3207 DUP1 PUSH2 0x20 PUSH1 0x0 CODECOPY PUSH1 0x0 RETURN INVALID PUSH1 0x80 PUSH1 0x40 MSTORE CALLVALUE DUP1 ISZERO PUSH2 0x10 JUMPI PUSH1 0x0 DUP1 REVERT JUMPDEST POP PUSH1 0x4 CALLDATASIZE LT PUSH2 0x137 JUMPI PUSH1 0x0 CALLDATALOAD PUSH1 0xE0 SHR DUP1 PUSH4 0x8ACC0D10 GT PUSH2 0xB8 JUMPI DUP1 PUSH4 0xA784EF74 GT PUSH2 0x7C JUMPI DUP1 PUSH4 0xA784EF74 EQ PUSH2 0x3DA JUMPI DUP1 PUSH4 0xD443560A EQ PUSH2 0x40C JUMPI DUP1 PUSH4 0xD468F983 EQ PUSH2 0x43C JUMPI DUP1 PUSH4 0xE463EAEE EQ PUSH2 0x458 JUMPI DUP1 PUSH4 0xE5D009BF EQ PUSH2 0x488 JUMPI DUP1 PUSH4 0xF20CA12C EQ PUSH2 0x4B8 JUMPI PUSH2 0x137 JUMP JUMPDEST DUP1 PUSH4 0x8ACC0D10 EQ PUSH2 0x311 JUMPI DUP1 PUSH4 0x8B0E8A2A EQ PUSH2 0x32D JUMPI DUP1 PUSH4 0x97299E99 EQ PUSH2 0x349 JUMPI DUP1 PUSH4 0xA0D859A3 EQ PUSH2 0x37A JUMPI DUP1 PUSH4 0xA4A8F426 EQ PUSH2 0x3AA JUMPI PUSH2 0x137 JUMP JUMPDEST DUP1 PUSH4 0x4FD3B445 GT PUSH2 0xFF JUMPI DUP1 PUSH4 0x4FD3B445 EQ PUSH2 0x233 JUMPI DUP1 PUSH4 0x5273BC48 EQ PUSH2 0x265 JUMPI DUP1 PUSH4 0x7D6C570A EQ PUSH2 0x295 JUMPI DUP1 PUSH4 0x7FF4C389 EQ PUSH2 0x2B1 JUMPI DUP1 PUSH4 0x823A6366 EQ PUSH2 0x2E1 JUMPI PUSH2 0x137 JUMP JUMPDEST DUP1 PUSH4 0x13191ADE EQ PUSH2 0x13C JUMPI DUP1 PUSH4 0x27F0AE92 EQ PUSH2 0x16C JUMPI DUP1 PUSH4 0x33DFD126 EQ PUSH2 0x19F JUMPI DUP1 PUSH4 0x38232742 EQ PUSH2 0x1D1 JUMPI DUP1 PUSH4 0x38C20A9E EQ PUSH2 0x203 JUMPI JUMPDEST PUSH1 0x0 DUP1 REVERT JUMPDEST PUSH2 0x156 PUSH1 0x4 DUP1 CALLDATASIZE SUB DUP2 ADD SWAP1 PUSH2 0x151 SWAP2 SWAP1 PUSH2 0x2307 JUMP JUMPDEST PUSH2 0x4E8 JUMP JUMPDEST PUSH1 0x40 MLOAD PUSH2 0x163 SWAP2 SWAP1 PUSH2 0x2AEC JUMP JUMPDEST PUSH1 0x40 MLOAD DUP1 SWAP2 SUB SWAP1 RETURN JUMPDEST PUSH2 0x186 PUSH1 0x4 DUP1 CALLDATASIZE SUB DUP2 ADD SWAP1 PUSH2 0x181 SWAP2 SWAP1 PUSH2 0x2307 JUMP JUMPDEST PUSH2 0x500 JUMP JUMPDEST PUSH1 0x40 MLOAD PUSH2 0x196 SWAP5 SWAP4 SWAP3 SWAP2 SWAP1 PUSH2 0x28B3 JUMP JUMPDEST PUSH1 0x40 MLOAD DUP1 SWAP2 SUB SWAP1 RETURN JUMPDEST PUSH2 0x1B9 PUSH1 0x4 DUP1 CALLDATASIZE SUB DUP2 ADD SWAP1 PUSH2 0x1B4 SWAP2 SWAP1 PUSH2 0x23B4 JUMP JUMPDEST PUSH2 0x6A9 JUMP JUMPDEST PUSH1 0x40 MLOAD PUSH2 0x1C8 SWAP4 SWAP3 SWAP2 SWAP1 PUSH2 0x287C JUMP JUMPDEST PUSH1 0x40 MLOAD DUP1 SWAP2 SUB SWAP1 RETURN JUMPDEST PUSH2 0x1EB PUSH1 0x4 DUP1 CALLDATASIZE SUB DUP2 ADD SWAP1 PUSH2 0x1E6 SWAP2 SWAP1 PUSH2 0x2307 JUMP JUMPDEST PUSH2 0x852 JUMP JUMPDEST PUSH1 0x40 MLOAD PUSH2 0x1FA SWAP4 SWAP3 SWAP2 SWAP1 PUSH2 0x2B07 JUMP JUMPDEST PUSH1 0x40 MLOAD DUP1 SWAP2 SUB SWAP1 RETURN JUMPDEST PUSH2 0x21D PUSH1 0x4 DUP1 CALLDATASIZE SUB DUP2 ADD SWAP1 PUSH2 0x218 SWAP2 SWAP1 PUSH2 0x2307 JUMP JUMPDEST PUSH2 0x87C JUMP JUMPDEST PUSH1 0x40 MLOAD PUSH2 0x22A SWAP2 SWAP1 PUSH2 0x282A JUMP JUMPDEST PUSH1 0x40 MLOAD DUP1 SWAP2 SUB SWAP1 RETURN JUMPDEST PUSH2 0x24D PUSH1 0x4 DUP1 CALLDATASIZE SUB DUP2 ADD SWAP1 PUSH2 0x248 SWAP2 SWAP1 PUSH2 0x2374 JUMP JUMPDEST PUSH2 0x89C JUMP JUMPDEST PUSH1 0x40 MLOAD PUSH2 0x25C SWAP4 SWAP3 SWAP2 SWAP1 PUSH2 0x2845 JUMP JUMPDEST PUSH1 0x40 MLOAD DUP1 SWAP2 SUB SWAP1 RETURN JUMPDEST PUSH2 0x27F PUSH1 0x4 DUP1 CALLDATASIZE SUB DUP2 ADD SWAP1 PUSH2 0x27A SWAP2 SWAP1 PUSH2 0x2307 JUMP JUMPDEST PUSH2 0x919 JUMP JUMPDEST PUSH1 0x40 MLOAD PUSH2 0x28C SWAP2 SWAP1 PUSH2 0x282A JUMP JUMPDEST PUSH1 0x40 MLOAD DUP1 SWAP2 SUB SWAP1 RETURN JUMPDEST PUSH2 0x2AF PUSH1 0x4 DUP1 CALLDATASIZE SUB DUP2 ADD SWAP1 PUSH2 0x2AA SWAP2 SWAP1 PUSH2 0x2307 JUMP JUMPDEST PUSH2 0x943 JUMP JUMPDEST STOP JUMPDEST PUSH2 0x2CB PUSH1 0x4 DUP1 CALLDATASIZE SUB DUP2 ADD SWAP1 PUSH2 0x2C6 SWAP2 SWAP1 PUSH2 0x2374 JUMP JUMPDEST PUSH2 0xEA1 JUMP JUMPDEST PUSH1 0x40 MLOAD PUSH2 0x2D8 SWAP2 SWAP1 PUSH2 0x280F JUMP JUMPDEST PUSH1 0x40 MLOAD DUP1 SWAP2 SUB SWAP1 RETURN JUMPDEST PUSH2 0x2FB PUSH1 0x4 DUP1 CALLDATASIZE SUB DUP2 ADD SWAP1 PUSH2 0x2F6 SWAP2 SWAP1 PUSH2 0x2307 JUMP JUMPDEST PUSH2 0xEEF JUMP JUMPDEST PUSH1 0x40 MLOAD PUSH2 0x308 SWAP2 SWAP1 PUSH2 0x282A JUMP JUMPDEST PUSH1 0x40 MLOAD DUP1 SWAP2 SUB SWAP1 RETURN JUMPDEST PUSH2 0x32B PUSH1 0x4 DUP1 CALLDATASIZE SUB DUP2 ADD SWAP1 PUSH2 0x326 SWAP2 SWAP1 PUSH2 0x24C4 JUMP JUMPDEST PUSH2 0xF0F JUMP JUMPDEST STOP JUMPDEST PUSH2 0x347 PUSH1 0x4 DUP1 CALLDATASIZE SUB DUP2 ADD SWAP1 PUSH2 0x342 SWAP2 SWAP1 PUSH2 0x241B JUMP JUMPDEST PUSH2 0x17D3 JUMP JUMPDEST STOP JUMPDEST PUSH2 0x363 PUSH1 0x4 DUP1 CALLDATASIZE SUB DUP2 ADD SWAP1 PUSH2 0x35E SWAP2 SWAP1 PUSH2 0x2307 JUMP JUMPDEST PUSH2 0x1B06 JUMP JUMPDEST PUSH1 0x40 MLOAD PUSH2 0x371 SWAP3 SWAP2 SWAP1 PUSH2 0x291A JUMP JUMPDEST PUSH1 0x40 MLOAD DUP1 SWAP2 SUB SWAP1 RETURN JUMPDEST PUSH2 0x394 PUSH1 0x4 DUP1 CALLDATASIZE SUB DUP2 ADD SWAP1 PUSH2 0x38F SWAP2 SWAP1 PUSH2 0x2307 JUMP JUMPDEST PUSH2 0x1BC6 JUMP JUMPDEST PUSH1 0x40 MLOAD PUSH2 0x3A1 SWAP2 SWAP1 PUSH2 0x28FF JUMP JUMPDEST PUSH1 0x40 MLOAD DUP1 SWAP2 SUB SWAP1 RETURN JUMPDEST PUSH2 0x3C4 PUSH1 0x4 DUP1 CALLDATASIZE SUB DUP2 ADD SWAP1 PUSH2 0x3BF SWAP2 SWAP1 PUSH2 0x2307 JUMP JUMPDEST PUSH2 0x1BDE JUMP JUMPDEST PUSH1 0x40 MLOAD PUSH2 0x3D1 SWAP2 SWAP1 PUSH2 0x294A JUMP JUMPDEST PUSH1 0x40 MLOAD DUP1 SWAP2 SUB SWAP1 RETURN JUMPDEST PUSH2 0x3F4 PUSH1 0x4 DUP1 CALLDATASIZE SUB DUP2 ADD SWAP1 PUSH2 0x3EF SWAP2 SWAP1 PUSH2 0x2334 JUMP JUMPDEST PUSH2 0x1C7E JUMP JUMPDEST PUSH1 0x40 MLOAD PUSH2 0x403 SWAP4 SWAP3 SWAP2 SWAP1 PUSH2 0x2845 JUMP JUMPDEST PUSH1 0x40 MLOAD DUP1 SWAP2 SUB SWAP1 RETURN JUMPDEST PUSH2 0x426 PUSH1 0x4 DUP1 CALLDATASIZE SUB DUP2 ADD SWAP1 PUSH2 0x421 SWAP2 SWAP1 PUSH2 0x2307 JUMP JUMPDEST PUSH2 0x1CEF JUMP JUMPDEST PUSH1 0x40 MLOAD PUSH2 0x433 SWAP2 SWAP1 PUSH2 0x280F JUMP JUMPDEST PUSH1 0x40 MLOAD DUP1 SWAP2 SUB SWAP1 RETURN JUMPDEST PUSH2 0x456 PUSH1 0x4 DUP1 CALLDATASIZE SUB DUP2 ADD SWAP1 PUSH2 0x451 SWAP2 SWAP1 PUSH2 0x22C7 JUMP JUMPDEST PUSH2 0x1D22 JUMP JUMPDEST STOP JUMPDEST PUSH2 0x472 PUSH1 0x4 DUP1 CALLDATASIZE SUB DUP2 ADD SWAP1 PUSH2 0x46D SWAP2 SWAP1 PUSH2 0x2307 JUMP JUMPDEST PUSH2 0x212D JUMP JUMPDEST PUSH1 0x40 MLOAD PUSH2 0x47F SWAP2 SWAP1 PUSH2 0x2AEC JUMP JUMPDEST PUSH1 0x40 MLOAD DUP1 SWAP2 SUB SWAP1 RETURN JUMPDEST PUSH2 0x4A2 PUSH1 0x4 DUP1 CALLDATASIZE SUB DUP2 ADD SWAP1 PUSH2 0x49D SWAP2 SWAP1 PUSH2 0x2307 JUMP JUMPDEST PUSH2 0x2145 JUMP JUMPDEST PUSH1 0x40 MLOAD PUSH2 0x4AF SWAP2 SWAP1 PUSH2 0x28FF JUMP JUMPDEST PUSH1 0x40 MLOAD DUP1 SWAP2 SUB SWAP1 RETURN JUMPDEST PUSH2 0x4D2 PUSH1 0x4 DUP1 CALLDATASIZE SUB DUP2 ADD SWAP1 PUSH2 0x4CD SWAP2 SWAP1 PUSH2 0x2307 JUMP JUMPDEST PUSH2 0x215D JUMP JUMPDEST PUSH1 0x40 MLOAD PUSH2 0x4DF SWAP2 SWAP1 PUSH2 0x28FF JUMP JUMPDEST PUSH1 0x40 MLOAD DUP1 SWAP2 SUB SWAP1 RETURN JUMPDEST PUSH1 0x3 PUSH1 0x20 MSTORE DUP1 PUSH1 0x0 MSTORE PUSH1 0x40 PUSH1 0x0 KECCAK256 PUSH1 0x0 SWAP2 POP SWAP1 POP SLOAD DUP2 JUMP JUMPDEST PUSH1 0x0 DUP1 PUSH1 0x0 PUSH1 0x60 PUSH1 0x0 DUP1 DUP7 DUP2 MSTORE PUSH1 0x20 ADD SWAP1 DUP2 MSTORE PUSH1 0x20 ADD PUSH1 0x0 KECCAK256 PUSH1 0x1 ADD SLOAD TIMESTAMP LT ISZERO PUSH2 0x55F JUMPI PUSH1 0x40 MLOAD PUSH32 0x8C379A000000000000000000000000000000000000000000000000000000000 DUP2 MSTORE PUSH1 0x4 ADD PUSH2 0x556 SWAP1 PUSH2 0x2A8C JUMP JUMPDEST PUSH1 0x40 MLOAD DUP1 SWAP2 SUB SWAP1 REVERT JUMPDEST PUSH1 0x0 PUSH1 0xB PUSH1 0x0 DUP8 DUP2 MSTORE PUSH1 0x20 ADD SWAP1 DUP2 MSTORE PUSH1 0x20 ADD PUSH1 0x0 KECCAK256 DUP1 SLOAD DUP1 PUSH1 0x20 MUL PUSH1 0x20 ADD PUSH1 0x40 MLOAD SWAP1 DUP2 ADD PUSH1 0x40 MSTORE DUP1 SWAP3 SWAP2 SWAP1 DUP2 DUP2 MSTORE PUSH1 0x20 ADD PUSH1 0x0 SWAP1 JUMPDEST DUP3 DUP3 LT ISZERO PUSH2 0x64E JUMPI DUP4 DUP3 SWAP1 PUSH1 0x0 MSTORE PUSH1 0x20 PUSH1 0x0 KECCAK256 ADD PUSH1 0x40 MLOAD DUP1 PUSH1 0x60 ADD PUSH1 0x40 MSTORE SWAP1 DUP2 PUSH1 0x0 DUP3 ADD PUSH1 0x0 SWAP1 SLOAD SWAP1 PUSH2 0x100 EXP SWAP1 DIV PUSH1 0xFF AND ISZERO ISZERO ISZERO ISZERO DUP2 MSTORE PUSH1 0x20 ADD PUSH1 0x0 DUP3 ADD PUSH1 0x1 SWAP1 SLOAD SWAP1 PUSH2 0x100 EXP SWAP1 DIV PUSH1 0xFF AND ISZERO ISZERO ISZERO ISZERO DUP2 MSTORE PUSH1 0x20 ADD PUSH1 0x0 DUP3 ADD PUSH1 0x2 SWAP1 SLOAD SWAP1 PUSH2 0x100 EXP SWAP1 DIV PUSH20 0xFFFFFFFFFFFFFFFFFFFFFFFFFFFFFFFFFFFFFFFF AND PUSH20 0xFFFFFFFFFFFFFFFFFFFFFFFFFFFFFFFFFFFFFFFF AND PUSH20 0xFFFFFFFFFFFFFFFFFFFFFFFFFFFFFFFFFFFFFFFF AND DUP2 MSTORE POP POP DUP2 MSTORE PUSH1 0x20 ADD SWAP1 PUSH1 0x1 ADD SWAP1 PUSH2 0x594 JUMP JUMPDEST POP POP POP POP SWAP1 POP PUSH1 0x0 PUSH1 0x7 PUSH1 0x0 DUP9 DUP2 MSTORE PUSH1 0x20 ADD SWAP1 DUP2 MSTORE PUSH1 0x20 ADD PUSH1 0x0 KECCAK256 PUSH1 0x0 SWAP1 SLOAD SWAP1 PUSH2 0x100 EXP SWAP1 DIV PUSH1 0xFF AND SWAP1 POP PUSH1 0x0 DUP1 PUSH1 0x0 DUP10 DUP2 MSTORE PUSH1 0x20 ADD SWAP1 DUP2 MSTORE PUSH1 0x20 ADD PUSH1 0x0 KECCAK256 PUSH1 0x0 ADD SLOAD SWAP1 POP DUP2 DUP9 DUP3 DUP6 SWAP7 POP SWAP7 POP SWAP7 POP SWAP7 POP POP POP POP SWAP2 SWAP4 POP SWAP2 SWAP4 JUMP JUMPDEST PUSH1 0x0 DUP1 PUSH1 0x0 PUSH1 0x1 PUSH1 0x0 DUP9 DUP2 MSTORE PUSH1 0x20 ADD SWAP1 DUP2 MSTORE PUSH1 0x20 ADD PUSH1 0x0 KECCAK256 PUSH1 0x0 SWAP1 SLOAD SWAP1 PUSH2 0x100 EXP SWAP1 DIV PUSH20 0xFFFFFFFFFFFFFFFFFFFFFFFFFFFFFFFFFFFFFFFF AND PUSH20 0xFFFFFFFFFFFFFFFFFFFFFFFFFFFFFFFFFFFFFFFF AND CALLER PUSH20 0xFFFFFFFFFFFFFFFFFFFFFFFFFFFFFFFFFFFFFFFF AND EQ PUSH2 0x74F JUMPI PUSH1 0x40 MLOAD PUSH32 0x8C379A000000000000000000000000000000000000000000000000000000000 DUP2 MSTORE PUSH1 0x4 ADD PUSH2 0x746 SWAP1 PUSH2 0x2A6C JUMP JUMPDEST PUSH1 0x40 MLOAD DUP1 SWAP2 SUB SWAP1 REVERT JUMPDEST PUSH1 0x0 PUSH1 0x1 SWAP1 POP PUSH1 0x0 PUSH1 0x1 SWAP1 POP PUSH1 0x0 PUSH1 0x1 SWAP1 POP PUSH1 0x0 PUSH20 0xFFFFFFFFFFFFFFFFFFFFFFFFFFFFFFFFFFFFFFFF AND PUSH1 0x1 PUSH1 0x0 DUP13 DUP2 MSTORE PUSH1 0x20 ADD SWAP1 DUP2 MSTORE PUSH1 0x20 ADD PUSH1 0x0 KECCAK256 PUSH1 0x0 SWAP1 SLOAD SWAP1 PUSH2 0x100 EXP SWAP1 DIV PUSH20 0xFFFFFFFFFFFFFFFFFFFFFFFFFFFFFFFFFFFFFFFF AND PUSH20 0xFFFFFFFFFFFFFFFFFFFFFFFFFFFFFFFFFFFFFFFF AND EQ ISZERO PUSH2 0x7DC JUMPI PUSH1 0x1 DUP1 PUSH1 0x1 SWAP6 POP SWAP6 POP SWAP6 POP POP POP POP PUSH2 0x848 JUMP JUMPDEST PUSH1 0x0 DUP1 DUP12 DUP2 MSTORE PUSH1 0x20 ADD SWAP1 DUP2 MSTORE PUSH1 0x20 ADD PUSH1 0x0 KECCAK256 PUSH1 0x2 ADD SLOAD DUP10 EQ PUSH2 0x7FD JUMPI PUSH1 0x0 SWAP3 POP JUMPDEST PUSH1 0x4 PUSH1 0x0 DUP12 DUP2 MSTORE PUSH1 0x20 ADD SWAP1 DUP2 MSTORE PUSH1 0x20 ADD PUSH1 0x0 KECCAK256 SLOAD DUP8 EQ PUSH2 0x81C JUMPI PUSH1 0x0 SWAP2 POP JUMPDEST DUP8 PUSH1 0x3 PUSH1 0x0 DUP13 DUP2 MSTORE PUSH1 0x20 ADD SWAP1 DUP2 MSTORE PUSH1 0x20 ADD PUSH1 0x0 KECCAK256 SLOAD EQ PUSH2 0x83B JUMPI PUSH1 0x0 SWAP1 POP JUMPDEST DUP3 DUP3 DUP3 SWAP6 POP SWAP6 POP SWAP6 POP POP POP POP JUMPDEST SWAP5 POP SWAP5 POP SWAP5 SWAP2 POP POP JUMP JUMPDEST PUSH1 0x0 PUSH1 0x20 MSTORE DUP1 PUSH1 0x0 MSTORE PUSH1 0x40 PUSH1 0x0 KECCAK256 PUSH1 0x0 SWAP2 POP SWAP1 POP DUP1 PUSH1 0x0 ADD SLOAD SWAP1 DUP1 PUSH1 0x1 ADD SLOAD SWAP1 DUP1 PUSH1 0x2 ADD SLOAD SWAP1 POP DUP4 JUMP JUMPDEST PUSH1 0x7 PUSH1 0x20 MSTORE DUP1 PUSH1 0x0 MSTORE PUSH1 0x40 PUSH1 0x0 KECCAK256 PUSH1 0x0 SWAP2 POP SLOAD SWAP1 PUSH2 0x100 EXP SWAP1 DIV PUSH1 0xFF AND DUP2 JUMP JUMPDEST PUSH1 0xB PUSH1 0x20 MSTORE DUP2 PUSH1 0x0 MSTORE PUSH1 0x40 PUSH1 0x0 KECCAK256 DUP2 DUP2 SLOAD DUP2 LT PUSH2 0x8B8 JUMPI PUSH1 0x0 DUP1 REVERT JUMPDEST SWAP1 PUSH1 0x0 MSTORE PUSH1 0x20 PUSH1 0x0 KECCAK256 ADD PUSH1 0x0 SWAP2 POP SWAP2 POP POP DUP1 PUSH1 0x0 ADD PUSH1 0x0 SWAP1 SLOAD SWAP1 PUSH2 0x100 EXP SWAP1 DIV PUSH1 0xFF AND SWAP1 DUP1 PUSH1 0x0 ADD PUSH1 0x1 SWAP1 SLOAD SWAP1 PUSH2 0x100 EXP SWAP1 DIV PUSH1 0xFF AND SWAP1 DUP1 PUSH1 0x0 ADD PUSH1 0x2 SWAP1 SLOAD SWAP1 PUSH2 0x100 EXP SWAP1 DIV PUSH20 0xFFFFFFFFFFFFFFFFFFFFFFFFFFFFFFFFFFFFFFFF AND SWAP1 POP DUP4 JUMP JUMPDEST PUSH1 0x0 PUSH1 0x8 PUSH1 0x0 DUP4 DUP2 MSTORE PUSH1 0x20 ADD SWAP1 DUP2 MSTORE PUSH1 0x20 ADD PUSH1 0x0 KECCAK256 PUSH1 0x0 SWAP1 SLOAD SWAP1 PUSH2 0x100 EXP SWAP1 DIV PUSH1 0xFF AND SWAP1 POP SWAP2 SWAP1 POP JUMP JUMPDEST PUSH1 0x0 DUP1 DUP3 DUP2 MSTORE PUSH1 0x20 ADD SWAP1 DUP2 MSTORE PUSH1 0x20 ADD PUSH1 0x0 KECCAK256 PUSH1 0x1 ADD SLOAD TIMESTAMP LT ISZERO PUSH2 0x99B JUMPI PUSH1 0x40 MLOAD PUSH32 0x8C379A000000000000000000000000000000000000000000000000000000000 DUP2 MSTORE PUSH1 0x4 ADD PUSH2 0x992 SWAP1 PUSH2 0x2A8C JUMP JUMPDEST PUSH1 0x40 MLOAD DUP1 SWAP2 SUB SWAP1 REVERT JUMPDEST PUSH1 0x0 ISZERO ISZERO PUSH1 0x8 PUSH1 0x0 DUP4 DUP2 MSTORE PUSH1 0x20 ADD SWAP1 DUP2 MSTORE PUSH1 0x20 ADD PUSH1 0x0 KECCAK256 PUSH1 0x0 SWAP1 SLOAD SWAP1 PUSH2 0x100 EXP SWAP1 DIV PUSH1 0xFF AND ISZERO ISZERO EQ PUSH2 0xA02 JUMPI PUSH1 0x40 MLOAD PUSH32 0x8C379A000000000000000000000000000000000000000000000000000000000 DUP2 MSTORE PUSH1 0x4 ADD PUSH2 0x9F9 SWAP1 PUSH2 0x2ACC JUMP JUMPDEST PUSH1 0x40 MLOAD DUP1 SWAP2 SUB SWAP1 REVERT JUMPDEST PUSH1 0x1 PUSH1 0x0 DUP3 DUP2 MSTORE PUSH1 0x20 ADD SWAP1 DUP2 MSTORE PUSH1 0x20 ADD PUSH1 0x0 KECCAK256 PUSH1 0x0 SWAP1 SLOAD SWAP1 PUSH2 0x100 EXP SWAP1 DIV PUSH20 0xFFFFFFFFFFFFFFFFFFFFFFFFFFFFFFFFFFFFFFFF AND PUSH20 0xFFFFFFFFFFFFFFFFFFFFFFFFFFFFFFFFFFFFFFFF AND CALLER PUSH20 0xFFFFFFFFFFFFFFFFFFFFFFFFFFFFFFFFFFFFFFFF AND EQ DUP1 PUSH2 0xB0F JUMPI POP PUSH1 0x0 PUSH20 0xFFFFFFFFFFFFFFFFFFFFFFFFFFFFFFFFFFFFFFFF AND PUSH1 0xA PUSH1 0x0 DUP4 DUP2 MSTORE PUSH1 0x20 ADD SWAP1 DUP2 MSTORE PUSH1 0x20 ADD PUSH1 0x0 KECCAK256 PUSH1 0x0 CALLER PUSH20 0xFFFFFFFFFFFFFFFFFFFFFFFFFFFFFFFFFFFFFFFF AND PUSH20 0xFFFFFFFFFFFFFFFFFFFFFFFFFFFFFFFFFFFFFFFF AND DUP2 MSTORE PUSH1 0x20 ADD SWAP1 DUP2 MSTORE PUSH1 0x20 ADD PUSH1 0x0 KECCAK256 PUSH1 0x0 ADD PUSH1 0x2 SWAP1 SLOAD SWAP1 PUSH2 0x100 EXP SWAP1 DIV PUSH20 0xFFFFFFFFFFFFFFFFFFFFFFFFFFFFFFFFFFFFFFFF AND PUSH20 0xFFFFFFFFFFFFFFFFFFFFFFFFFFFFFFFFFFFFFFFF AND EQ ISZERO JUMPDEST PUSH2 0xB4E JUMPI PUSH1 0x40 MLOAD PUSH32 0x8C379A000000000000000000000000000000000000000000000000000000000 DUP2 MSTORE PUSH1 0x4 ADD PUSH2 0xB45 SWAP1 PUSH2 0x29AC JUMP JUMPDEST PUSH1 0x40 MLOAD DUP1 SWAP2 SUB SWAP1 REVERT JUMPDEST PUSH1 0x0 PUSH1 0x64 PUSH1 0xC PUSH1 0x0 DUP5 DUP2 MSTORE PUSH1 0x20 ADD SWAP1 DUP2 MSTORE PUSH1 0x20 ADD PUSH1 0x0 KECCAK256 DUP1 SLOAD SWAP1 POP PUSH1 0x5 PUSH1 0x0 DUP6 DUP2 MSTORE PUSH1 0x20 ADD SWAP1 DUP2 MSTORE PUSH1 0x20 ADD PUSH1 0x0 KECCAK256 SLOAD PUSH2 0xB87 SWAP2 SWAP1 PUSH2 0x2C3F JUMP JUMPDEST PUSH2 0xB91 SWAP2 SWAP1 PUSH2 0x2C70 JUMP JUMPDEST SWAP1 POP PUSH1 0x0 DUP1 DUP4 DUP2 MSTORE PUSH1 0x20 ADD SWAP1 DUP2 MSTORE PUSH1 0x20 ADD PUSH1 0x0 KECCAK256 PUSH1 0x2 ADD SLOAD DUP2 LT PUSH2 0xBDC JUMPI PUSH1 0x1 PUSH1 0x7 PUSH1 0x0 DUP5 DUP2 MSTORE PUSH1 0x20 ADD SWAP1 DUP2 MSTORE PUSH1 0x20 ADD PUSH1 0x0 KECCAK256 PUSH1 0x0 PUSH2 0x100 EXP DUP2 SLOAD DUP2 PUSH1 0xFF MUL NOT AND SWAP1 DUP4 ISZERO ISZERO MUL OR SWAP1 SSTORE POP JUMPDEST PUSH1 0x0 JUMPDEST PUSH1 0xC PUSH1 0x0 DUP5 DUP2 MSTORE PUSH1 0x20 ADD SWAP1 DUP2 MSTORE PUSH1 0x20 ADD PUSH1 0x0 KECCAK256 DUP1 SLOAD SWAP1 POP DUP2 PUSH1 0xFF AND LT ISZERO PUSH2 0xE70 JUMPI PUSH1 0x0 ISZERO ISZERO PUSH1 0xA PUSH1 0x0 DUP6 DUP2 MSTORE PUSH1 0x20 ADD SWAP1 DUP2 MSTORE PUSH1 0x20 ADD PUSH1 0x0 KECCAK256 PUSH1 0x0 PUSH1 0xC PUSH1 0x0 DUP8 DUP2 MSTORE PUSH1 0x20 ADD SWAP1 DUP2 MSTORE PUSH1 0x20 ADD PUSH1 0x0 KECCAK256 DUP5 PUSH1 0xFF AND DUP2 SLOAD DUP2 LT PUSH2 0xC41 JUMPI PUSH2 0xC40 PUSH2 0x2E85 JUMP JUMPDEST JUMPDEST SWAP1 PUSH1 0x0 MSTORE PUSH1 0x20 PUSH1 0x0 KECCAK256 ADD PUSH1 0x0 SWAP1 SLOAD SWAP1 PUSH2 0x100 EXP SWAP1 DIV PUSH20 0xFFFFFFFFFFFFFFFFFFFFFFFFFFFFFFFFFFFFFFFF AND PUSH20 0xFFFFFFFFFFFFFFFFFFFFFFFFFFFFFFFFFFFFFFFF AND PUSH20 0xFFFFFFFFFFFFFFFFFFFFFFFFFFFFFFFFFFFFFFFF AND DUP2 MSTORE PUSH1 0x20 ADD SWAP1 DUP2 MSTORE PUSH1 0x20 ADD PUSH1 0x0 KECCAK256 PUSH1 0x0 ADD PUSH1 0x0 SWAP1 SLOAD SWAP1 PUSH2 0x100 EXP SWAP1 DIV PUSH1 0xFF AND ISZERO ISZERO EQ ISZERO PUSH2 0xE5D JUMPI PUSH1 0xB PUSH1 0x0 DUP5 DUP2 MSTORE PUSH1 0x20 ADD SWAP1 DUP2 MSTORE PUSH1 0x20 ADD PUSH1 0x0 KECCAK256 PUSH1 0xA PUSH1 0x0 DUP6 DUP2 MSTORE PUSH1 0x20 ADD SWAP1 DUP2 MSTORE PUSH1 0x20 ADD PUSH1 0x0 KECCAK256 PUSH1 0x0 PUSH1 0xC PUSH1 0x0 DUP8 DUP2 MSTORE PUSH1 0x20 ADD SWAP1 DUP2 MSTORE PUSH1 0x20 ADD PUSH1 0x0 KECCAK256 DUP5 PUSH1 0xFF AND DUP2 SLOAD DUP2 LT PUSH2 0xD0F JUMPI PUSH2 0xD0E PUSH2 0x2E85 JUMP JUMPDEST JUMPDEST SWAP1 PUSH1 0x0 MSTORE PUSH1 0x20 PUSH1 0x0 KECCAK256 ADD PUSH1 0x0 SWAP1 SLOAD SWAP1 PUSH2 0x100 EXP SWAP1 DIV PUSH20 0xFFFFFFFFFFFFFFFFFFFFFFFFFFFFFFFFFFFFFFFF AND PUSH20 0xFFFFFFFFFFFFFFFFFFFFFFFFFFFFFFFFFFFFFFFF AND PUSH20 0xFFFFFFFFFFFFFFFFFFFFFFFFFFFFFFFFFFFFFFFF AND DUP2 MSTORE PUSH1 0x20 ADD SWAP1 DUP2 MSTORE PUSH1 0x20 ADD PUSH1 0x0 KECCAK256 SWAP1 DUP1 PUSH1 0x1 DUP2 SLOAD ADD DUP1 DUP3 SSTORE DUP1 SWAP2 POP POP PUSH1 0x1 SWAP1 SUB SWAP1 PUSH1 0x0 MSTORE PUSH1 0x20 PUSH1 0x0 KECCAK256 ADD PUSH1 0x0 SWAP1 SWAP2 SWAP1 SWAP2 SWAP1 SWAP2 POP PUSH1 0x0 DUP3 ADD PUSH1 0x0 SWAP1 SLOAD SWAP1 PUSH2 0x100 EXP SWAP1 DIV PUSH1 0xFF AND DUP2 PUSH1 0x0 ADD PUSH1 0x0 PUSH2 0x100 EXP DUP2 SLOAD DUP2 PUSH1 0xFF MUL NOT AND SWAP1 DUP4 ISZERO ISZERO MUL OR SWAP1 SSTORE POP PUSH1 0x0 DUP3 ADD PUSH1 0x1 SWAP1 SLOAD SWAP1 PUSH2 0x100 EXP SWAP1 DIV PUSH1 0xFF AND DUP2 PUSH1 0x0 ADD PUSH1 0x1 PUSH2 0x100 EXP DUP2 SLOAD DUP2 PUSH1 0xFF MUL NOT AND SWAP1 DUP4 ISZERO ISZERO MUL OR SWAP1 SSTORE POP PUSH1 0x0 DUP3 ADD PUSH1 0x2 SWAP1 SLOAD SWAP1 PUSH2 0x100 EXP SWAP1 DIV PUSH20 0xFFFFFFFFFFFFFFFFFFFFFFFFFFFFFFFFFFFFFFFF AND DUP2 PUSH1 0x0 ADD PUSH1 0x2 PUSH2 0x100 EXP DUP2 SLOAD DUP2 PUSH20 0xFFFFFFFFFFFFFFFFFFFFFFFFFFFFFFFFFFFFFFFF MUL NOT AND SWAP1 DUP4 PUSH20 0xFFFFFFFFFFFFFFFFFFFFFFFFFFFFFFFFFFFFFFFF AND MUL OR SWAP1 SSTORE POP POP POP JUMPDEST DUP1 DUP1 PUSH2 0xE68 SWAP1 PUSH2 0x2DCE JUMP JUMPDEST SWAP2 POP POP PUSH2 0xBDF JUMP JUMPDEST POP PUSH1 0x1 PUSH1 0x8 PUSH1 0x0 DUP5 DUP2 MSTORE PUSH1 0x20 ADD SWAP1 DUP2 MSTORE PUSH1 0x20 ADD PUSH1 0x0 KECCAK256 PUSH1 0x0 PUSH2 0x100 EXP DUP2 SLOAD DUP2 PUSH1 0xFF MUL NOT AND SWAP1 DUP4 ISZERO ISZERO MUL OR SWAP1 SSTORE POP POP POP JUMP JUMPDEST PUSH1 0xC PUSH1 0x20 MSTORE DUP2 PUSH1 0x0 MSTORE PUSH1 0x40 PUSH1 0x0 KECCAK256 DUP2 DUP2 SLOAD DUP2 LT PUSH2 0xEBD JUMPI PUSH1 0x0 DUP1 REVERT JUMPDEST SWAP1 PUSH1 0x0 MSTORE PUSH1 0x20 PUSH1 0x0 KECCAK256 ADD PUSH1 0x0 SWAP2 POP SWAP2 POP SWAP1 SLOAD SWAP1 PUSH2 0x100 EXP SWAP1 DIV PUSH20 0xFFFFFFFFFFFFFFFFFFFFFFFFFFFFFFFFFFFFFFFF AND DUP2 JUMP JUMPDEST PUSH1 0x8 PUSH1 0x20 MSTORE DUP1 PUSH1 0x0 MSTORE PUSH1 0x40 PUSH1 0x0 KECCAK256 PUSH1 0x0 SWAP2 POP SLOAD SWAP1 PUSH2 0x100 EXP SWAP1 DIV PUSH1 0xFF AND DUP2 JUMP JUMPDEST PUSH1 0x0 DUP1 DUP3 DUP2 MSTORE PUSH1 0x20 ADD SWAP1 DUP2 MSTORE PUSH1 0x20 ADD PUSH1 0x0 KECCAK256 PUSH1 0x1 ADD SLOAD TIMESTAMP LT PUSH2 0xF66 JUMPI PUSH1 0x40 MLOAD PUSH32 0x8C379A000000000000000000000000000000000000000000000000000000000 DUP2 MSTORE PUSH1 0x4 ADD PUSH2 0xF5D SWAP1 PUSH2 0x2AAC JUMP JUMPDEST PUSH1 0x40 MLOAD DUP1 SWAP2 SUB SWAP1 REVERT JUMPDEST PUSH1 0x0 PUSH20 0xFFFFFFFFFFFFFFFFFFFFFFFFFFFFFFFFFFFFFFFF AND PUSH1 0xA PUSH1 0x0 DUP4 DUP2 MSTORE PUSH1 0x20 ADD SWAP1 DUP2 MSTORE PUSH1 0x20 ADD PUSH1 0x0 KECCAK256 PUSH1 0x0 CALLER PUSH20 0xFFFFFFFFFFFFFFFFFFFFFFFFFFFFFFFFFFFFFFFF AND PUSH20 0xFFFFFFFFFFFFFFFFFFFFFFFFFFFFFFFFFFFFFFFF AND DUP2 MSTORE PUSH1 0x20 ADD SWAP1 DUP2 MSTORE PUSH1 0x20 ADD PUSH1 0x0 KECCAK256 PUSH1 0x0 ADD PUSH1 0x2 SWAP1 SLOAD SWAP1 PUSH2 0x100 EXP SWAP1 DIV PUSH20 0xFFFFFFFFFFFFFFFFFFFFFFFFFFFFFFFFFFFFFFFF AND PUSH20 0xFFFFFFFFFFFFFFFFFFFFFFFFFFFFFFFFFFFFFFFF AND EQ ISZERO PUSH2 0x1049 JUMPI PUSH1 0x40 MLOAD PUSH32 0x8C379A000000000000000000000000000000000000000000000000000000000 DUP2 MSTORE PUSH1 0x4 ADD PUSH2 0x1040 SWAP1 PUSH2 0x2A0C JUMP JUMPDEST PUSH1 0x40 MLOAD DUP1 SWAP2 SUB SWAP1 REVERT JUMPDEST PUSH1 0xA PUSH1 0x0 DUP3 DUP2 MSTORE PUSH1 0x20 ADD SWAP1 DUP2 MSTORE PUSH1 0x20 ADD PUSH1 0x0 KECCAK256 PUSH1 0x0 CALLER PUSH20 0xFFFFFFFFFFFFFFFFFFFFFFFFFFFFFFFFFFFFFFFF AND PUSH20 0xFFFFFFFFFFFFFFFFFFFFFFFFFFFFFFFFFFFFFFFF AND DUP2 MSTORE PUSH1 0x20 ADD SWAP1 DUP2 MSTORE PUSH1 0x20 ADD PUSH1 0x0 KECCAK256 PUSH1 0x0 ADD PUSH1 0x0 SWAP1 SLOAD SWAP1 PUSH2 0x100 EXP SWAP1 DIV PUSH1 0xFF AND ISZERO PUSH2 0x10EA JUMPI PUSH1 0x40 MLOAD PUSH32 0x8C379A000000000000000000000000000000000000000000000000000000000 DUP2 MSTORE PUSH1 0x4 ADD PUSH2 0x10E1 SWAP1 PUSH2 0x29CC JUMP JUMPDEST PUSH1 0x40 MLOAD DUP1 SWAP2 SUB SWAP1 REVERT JUMPDEST PUSH1 0x40 MLOAD DUP1 PUSH1 0x40 ADD PUSH1 0x40 MSTORE DUP1 PUSH1 0x9 DUP2 MSTORE PUSH1 0x20 ADD PUSH32 0x6920617070726F76650000000000000000000000000000000000000000000000 DUP2 MSTORE POP DUP1 MLOAD SWAP1 PUSH1 0x20 ADD KECCAK256 DUP3 DUP1 MLOAD SWAP1 PUSH1 0x20 ADD KECCAK256 EQ ISZERO PUSH2 0x13B5 JUMPI PUSH1 0x1 PUSH1 0xA PUSH1 0x0 DUP4 DUP2 MSTORE PUSH1 0x20 ADD SWAP1 DUP2 MSTORE PUSH1 0x20 ADD PUSH1 0x0 KECCAK256 PUSH1 0x0 CALLER PUSH20 0xFFFFFFFFFFFFFFFFFFFFFFFFFFFFFFFFFFFFFFFF AND PUSH20 0xFFFFFFFFFFFFFFFFFFFFFFFFFFFFFFFFFFFFFFFF AND DUP2 MSTORE PUSH1 0x20 ADD SWAP1 DUP2 MSTORE PUSH1 0x20 ADD PUSH1 0x0 KECCAK256 PUSH1 0x0 ADD PUSH1 0x0 PUSH2 0x100 EXP DUP2 SLOAD DUP2 PUSH1 0xFF MUL NOT AND SWAP1 DUP4 ISZERO ISZERO MUL OR SWAP1 SSTORE POP PUSH1 0x1 PUSH1 0xA PUSH1 0x0 DUP4 DUP2 MSTORE PUSH1 0x20 ADD SWAP1 DUP2 MSTORE PUSH1 0x20 ADD PUSH1 0x0 KECCAK256 PUSH1 0x0 CALLER PUSH20 0xFFFFFFFFFFFFFFFFFFFFFFFFFFFFFFFFFFFFFFFF AND PUSH20 0xFFFFFFFFFFFFFFFFFFFFFFFFFFFFFFFFFFFFFFFF AND DUP2 MSTORE PUSH1 0x20 ADD SWAP1 DUP2 MSTORE PUSH1 0x20 ADD PUSH1 0x0 KECCAK256 PUSH1 0x0 ADD PUSH1 0x1 PUSH2 0x100 EXP DUP2 SLOAD DUP2 PUSH1 0xFF MUL NOT AND SWAP1 DUP4 ISZERO ISZERO MUL OR SWAP1 SSTORE POP PUSH1 0x1 PUSH1 0x5 PUSH1 0x0 DUP4 DUP2 MSTORE PUSH1 0x20 ADD SWAP1 DUP2 MSTORE PUSH1 0x20 ADD PUSH1 0x0 KECCAK256 PUSH1 0x0 DUP3 DUP3 SLOAD PUSH2 0x1231 SWAP2 SWAP1 PUSH2 0x2BE9 JUMP JUMPDEST SWAP3 POP POP DUP2 SWAP1 SSTORE POP PUSH1 0x1 PUSH1 0x0 DUP1 DUP4 DUP2 MSTORE PUSH1 0x20 ADD SWAP1 DUP2 MSTORE PUSH1 0x20 ADD PUSH1 0x0 KECCAK256 PUSH1 0x0 ADD PUSH1 0x0 DUP3 DUP3 SLOAD PUSH2 0x125E SWAP2 SWAP1 PUSH2 0x2BE9 JUMP JUMPDEST SWAP3 POP POP DUP2 SWAP1 SSTORE POP PUSH1 0xB PUSH1 0x0 DUP3 DUP2 MSTORE PUSH1 0x20 ADD SWAP1 DUP2 MSTORE PUSH1 0x20 ADD PUSH1 0x0 KECCAK256 PUSH1 0xA PUSH1 0x0 DUP4 DUP2 MSTORE PUSH1 0x20 ADD SWAP1 DUP2 MSTORE PUSH1 0x20 ADD PUSH1 0x0 KECCAK256 PUSH1 0x0 CALLER PUSH20 0xFFFFFFFFFFFFFFFFFFFFFFFFFFFFFFFFFFFFFFFF AND PUSH20 0xFFFFFFFFFFFFFFFFFFFFFFFFFFFFFFFFFFFFFFFF AND DUP2 MSTORE PUSH1 0x20 ADD SWAP1 DUP2 MSTORE PUSH1 0x20 ADD PUSH1 0x0 KECCAK256 SWAP1 DUP1 PUSH1 0x1 DUP2 SLOAD ADD DUP1 DUP3 SSTORE DUP1 SWAP2 POP POP PUSH1 0x1 SWAP1 SUB SWAP1 PUSH1 0x0 MSTORE PUSH1 0x20 PUSH1 0x0 KECCAK256 ADD PUSH1 0x0 SWAP1 SWAP2 SWAP1 SWAP2 SWAP1 SWAP2 POP PUSH1 0x0 DUP3 ADD PUSH1 0x0 SWAP1 SLOAD SWAP1 PUSH2 0x100 EXP SWAP1 DIV PUSH1 0xFF AND DUP2 PUSH1 0x0 ADD PUSH1 0x0 PUSH2 0x100 EXP DUP2 SLOAD DUP2 PUSH1 0xFF MUL NOT AND SWAP1 DUP4 ISZERO ISZERO MUL OR SWAP1 SSTORE POP PUSH1 0x0 DUP3 ADD PUSH1 0x1 SWAP1 SLOAD SWAP1 PUSH2 0x100 EXP SWAP1 DIV PUSH1 0xFF AND DUP2 PUSH1 0x0 ADD PUSH1 0x1 PUSH2 0x100 EXP DUP2 SLOAD DUP2 PUSH1 0xFF MUL NOT AND SWAP1 DUP4 ISZERO ISZERO MUL OR SWAP1 SSTORE POP PUSH1 0x0 DUP3 ADD PUSH1 0x2 SWAP1 SLOAD SWAP1 PUSH2 0x100 EXP SWAP1 DIV PUSH20 0xFFFFFFFFFFFFFFFFFFFFFFFFFFFFFFFFFFFFFFFF AND DUP2 PUSH1 0x0 ADD PUSH1 0x2 PUSH2 0x100 EXP DUP2 SLOAD DUP2 PUSH20 0xFFFFFFFFFFFFFFFFFFFFFFFFFFFFFFFFFFFFFFFF MUL NOT AND SWAP1 DUP4 PUSH20 0xFFFFFFFFFFFFFFFFFFFFFFFFFFFFFFFFFFFFFFFF AND MUL OR SWAP1 SSTORE POP POP POP PUSH2 0x17CF JUMP JUMPDEST PUSH1 0x40 MLOAD DUP1 PUSH1 0x40 ADD PUSH1 0x40 MSTORE DUP1 PUSH1 0xC DUP2 MSTORE PUSH1 0x20 ADD PUSH32 0x6920646973617070726F76650000000000000000000000000000000000000000 DUP2 MSTORE POP DUP1 MLOAD SWAP1 PUSH1 0x20 ADD KECCAK256 DUP3 DUP1 MLOAD SWAP1 PUSH1 0x20 ADD KECCAK256 EQ ISZERO PUSH2 0x15E9 JUMPI PUSH1 0x1 PUSH1 0xA PUSH1 0x0 DUP4 DUP2 MSTORE PUSH1 0x20 ADD SWAP1 DUP2 MSTORE PUSH1 0x20 ADD PUSH1 0x0 KECCAK256 PUSH1 0x0 CALLER PUSH20 0xFFFFFFFFFFFFFFFFFFFFFFFFFFFFFFFFFFFFFFFF AND PUSH20 0xFFFFFFFFFFFFFFFFFFFFFFFFFFFFFFFFFFFFFFFF AND DUP2 MSTORE PUSH1 0x20 ADD SWAP1 DUP2 MSTORE PUSH1 0x20 ADD PUSH1 0x0 KECCAK256 PUSH1 0x0 ADD PUSH1 0x0 PUSH2 0x100 EXP DUP2 SLOAD DUP2 PUSH1 0xFF MUL NOT AND SWAP1 DUP4 ISZERO ISZERO MUL OR SWAP1 SSTORE POP PUSH1 0x1 PUSH1 0x0 DUP1 DUP4 DUP2 MSTORE PUSH1 0x20 ADD SWAP1 DUP2 MSTORE PUSH1 0x20 ADD PUSH1 0x0 KECCAK256 PUSH1 0x0 ADD PUSH1 0x0 DUP3 DUP3 SLOAD PUSH2 0x1492 SWAP2 SWAP1 PUSH2 0x2BE9 JUMP JUMPDEST SWAP3 POP POP DUP2 SWAP1 SSTORE POP PUSH1 0xB PUSH1 0x0 DUP3 DUP2 MSTORE PUSH1 0x20 ADD SWAP1 DUP2 MSTORE PUSH1 0x20 ADD PUSH1 0x0 KECCAK256 PUSH1 0xA PUSH1 0x0 DUP4 DUP2 MSTORE PUSH1 0x20 ADD SWAP1 DUP2 MSTORE PUSH1 0x20 ADD PUSH1 0x0 KECCAK256 PUSH1 0x0 CALLER PUSH20 0xFFFFFFFFFFFFFFFFFFFFFFFFFFFFFFFFFFFFFFFF AND PUSH20 0xFFFFFFFFFFFFFFFFFFFFFFFFFFFFFFFFFFFFFFFF AND DUP2 MSTORE PUSH1 0x20 ADD SWAP1 DUP2 MSTORE PUSH1 0x20 ADD PUSH1 0x0 KECCAK256 SWAP1 DUP1 PUSH1 0x1 DUP2 SLOAD ADD DUP1 DUP3 SSTORE DUP1 SWAP2 POP POP PUSH1 0x1 SWAP1 SUB SWAP1 PUSH1 0x0 MSTORE PUSH1 0x20 PUSH1 0x0 KECCAK256 ADD PUSH1 0x0 SWAP1 SWAP2 SWAP1 SWAP2 SWAP1 SWAP2 POP PUSH1 0x0 DUP3 ADD PUSH1 0x0 SWAP1 SLOAD SWAP1 PUSH2 0x100 EXP SWAP1 DIV PUSH1 0xFF AND DUP2 PUSH1 0x0 ADD PUSH1 0x0 PUSH2 0x100 EXP DUP2 SLOAD DUP2 PUSH1 0xFF MUL NOT AND SWAP1 DUP4 ISZERO ISZERO MUL OR SWAP1 SSTORE POP PUSH1 0x0 DUP3 ADD PUSH1 0x1 SWAP1 SLOAD SWAP1 PUSH2 0x100 EXP SWAP1 DIV PUSH1 0xFF AND DUP2 PUSH1 0x0 ADD PUSH1 0x1 PUSH2 0x100 EXP DUP2 SLOAD DUP2 PUSH1 0xFF MUL NOT AND SWAP1 DUP4 ISZERO ISZERO MUL OR SWAP1 SSTORE POP PUSH1 0x0 DUP3 ADD PUSH1 0x2 SWAP1 SLOAD SWAP1 PUSH2 0x100 EXP SWAP1 DIV PUSH20 0xFFFFFFFFFFFFFFFFFFFFFFFFFFFFFFFFFFFFFFFF AND DUP2 PUSH1 0x0 ADD PUSH1 0x2 PUSH2 0x100 EXP DUP2 SLOAD DUP2 PUSH20 0xFFFFFFFFFFFFFFFFFFFFFFFFFFFFFFFFFFFFFFFF MUL NOT AND SWAP1 DUP4 PUSH20 0xFFFFFFFFFFFFFFFFFFFFFFFFFFFFFFFFFFFFFFFF AND MUL OR SWAP1 SSTORE POP POP POP PUSH2 0x17CE JUMP JUMPDEST PUSH1 0x1 PUSH1 0xA PUSH1 0x0 DUP4 DUP2 MSTORE PUSH1 0x20 ADD SWAP1 DUP2 MSTORE PUSH1 0x20 ADD PUSH1 0x0 KECCAK256 PUSH1 0x0 CALLER PUSH20 0xFFFFFFFFFFFFFFFFFFFFFFFFFFFFFFFFFFFFFFFF AND PUSH20 0xFFFFFFFFFFFFFFFFFFFFFFFFFFFFFFFFFFFFFFFF AND DUP2 MSTORE PUSH1 0x20 ADD SWAP1 DUP2 MSTORE PUSH1 0x20 ADD PUSH1 0x0 KECCAK256 PUSH1 0x0 ADD PUSH1 0x0 PUSH2 0x100 EXP DUP2 SLOAD DUP2 PUSH1 0xFF MUL NOT AND SWAP1 DUP4 ISZERO ISZERO MUL OR SWAP1 SSTORE POP PUSH1 0x1 PUSH1 0x0 DUP1 DUP4 DUP2 MSTORE PUSH1 0x20 ADD SWAP1 DUP2 MSTORE PUSH1 0x20 ADD PUSH1 0x0 KECCAK256 PUSH1 0x0 ADD PUSH1 0x0 DUP3 DUP3 SLOAD PUSH2 0x167B SWAP2 SWAP1 PUSH2 0x2BE9 JUMP JUMPDEST SWAP3 POP POP DUP2 SWAP1 SSTORE POP PUSH1 0xB PUSH1 0x0 DUP3 DUP2 MSTORE PUSH1 0x20 ADD SWAP1 DUP2 MSTORE PUSH1 0x20 ADD PUSH1 0x0 KECCAK256 PUSH1 0xA PUSH1 0x0 DUP4 DUP2 MSTORE PUSH1 0x20 ADD SWAP1 DUP2 MSTORE PUSH1 0x20 ADD PUSH1 0x0 KECCAK256 PUSH1 0x0 CALLER PUSH20 0xFFFFFFFFFFFFFFFFFFFFFFFFFFFFFFFFFFFFFFFF AND PUSH20 0xFFFFFFFFFFFFFFFFFFFFFFFFFFFFFFFFFFFFFFFF AND DUP2 MSTORE PUSH1 0x20 ADD SWAP1 DUP2 MSTORE PUSH1 0x20 ADD PUSH1 0x0 KECCAK256 SWAP1 DUP1 PUSH1 0x1 DUP2 SLOAD ADD DUP1 DUP3 SSTORE DUP1 SWAP2 POP POP PUSH1 0x1 SWAP1 SUB SWAP1 PUSH1 0x0 MSTORE PUSH1 0x20 PUSH1 0x0 KECCAK256 ADD PUSH1 0x0 SWAP1 SWAP2 SWAP1 SWAP2 SWAP1 SWAP2 POP PUSH1 0x0 DUP3 ADD PUSH1 0x0 SWAP1 SLOAD SWAP1 PUSH2 0x100 EXP SWAP1 DIV PUSH1 0xFF AND DUP2 PUSH1 0x0 ADD PUSH1 0x0 PUSH2 0x100 EXP DUP2 SLOAD DUP2 PUSH1 0xFF MUL NOT AND SWAP1 DUP4 ISZERO ISZERO MUL OR SWAP1 SSTORE POP PUSH1 0x0 DUP3 ADD PUSH1 0x1 SWAP1 SLOAD SWAP1 PUSH2 0x100 EXP SWAP1 DIV PUSH1 0xFF AND DUP2 PUSH1 0x0 ADD PUSH1 0x1 PUSH2 0x100 EXP DUP2 SLOAD DUP2 PUSH1 0xFF MUL NOT AND SWAP1 DUP4 ISZERO ISZERO MUL OR SWAP1 SSTORE POP PUSH1 0x0 DUP3 ADD PUSH1 0x2 SWAP1 SLOAD SWAP1 PUSH2 0x100 EXP SWAP1 DIV PUSH20 0xFFFFFFFFFFFFFFFFFFFFFFFFFFFFFFFFFFFFFFFF AND DUP2 PUSH1 0x0 ADD PUSH1 0x2 PUSH2 0x100 EXP DUP2 SLOAD DUP2 PUSH20 0xFFFFFFFFFFFFFFFFFFFFFFFFFFFFFFFFFFFFFFFF MUL NOT AND SWAP1 DUP4 PUSH20 0xFFFFFFFFFFFFFFFFFFFFFFFFFFFFFFFFFFFFFFFF AND MUL OR SWAP1 SSTORE POP POP POP JUMPDEST JUMPDEST POP POP JUMP JUMPDEST PUSH1 0x0 PUSH20 0xFFFFFFFFFFFFFFFFFFFFFFFFFFFFFFFFFFFFFFFF AND PUSH1 0x1 PUSH1 0x0 DUP9 DUP2 MSTORE PUSH1 0x20 ADD SWAP1 DUP2 MSTORE PUSH1 0x20 ADD PUSH1 0x0 KECCAK256 PUSH1 0x0 SWAP1 SLOAD SWAP1 PUSH2 0x100 EXP SWAP1 DIV PUSH20 0xFFFFFFFFFFFFFFFFFFFFFFFFFFFFFFFFFFFFFFFF AND PUSH20 0xFFFFFFFFFFFFFFFFFFFFFFFFFFFFFFFFFFFFFFFF AND EQ PUSH2 0x1875 JUMPI PUSH1 0x40 MLOAD PUSH32 0x8C379A000000000000000000000000000000000000000000000000000000000 DUP2 MSTORE PUSH1 0x4 ADD PUSH2 0x186C SWAP1 PUSH2 0x298C JUMP JUMPDEST PUSH1 0x40 MLOAD DUP1 SWAP2 SUB SWAP1 REVERT JUMPDEST PUSH1 0x0 PUSH1 0x40 MLOAD DUP1 PUSH1 0x60 ADD PUSH1 0x40 MSTORE DUP1 PUSH1 0x0 DUP2 MSTORE PUSH1 0x20 ADD DUP8 TIMESTAMP PUSH2 0x1895 SWAP2 SWAP1 PUSH2 0x2BE9 JUMP JUMPDEST DUP2 MSTORE PUSH1 0x20 ADD DUP7 DUP2 MSTORE POP SWAP1 POP DUP7 PUSH1 0x2 PUSH1 0x0 DUP6 DUP2 MSTORE PUSH1 0x20 ADD SWAP1 DUP2 MSTORE PUSH1 0x20 ADD PUSH1 0x0 KECCAK256 DUP2 SWAP1 SSTORE POP PUSH1 0x0 PUSH1 0x8 PUSH1 0x0 DUP10 DUP2 MSTORE PUSH1 0x20 ADD SWAP1 DUP2 MSTORE PUSH1 0x20 ADD PUSH1 0x0 KECCAK256 PUSH1 0x0 PUSH2 0x100 EXP DUP2 SLOAD DUP2 PUSH1 0xFF MUL NOT AND SWAP1 DUP4 ISZERO ISZERO MUL OR SWAP1 SSTORE POP PUSH1 0x0 PUSH1 0x7 PUSH1 0x0 DUP10 DUP2 MSTORE PUSH1 0x20 ADD SWAP1 DUP2 MSTORE PUSH1 0x20 ADD PUSH1 0x0 KECCAK256 PUSH1 0x0 PUSH2 0x100 EXP DUP2 SLOAD DUP2 PUSH1 0xFF MUL NOT AND SWAP1 DUP4 ISZERO ISZERO MUL OR SWAP1 SSTORE POP DUP6 PUSH1 0x3 PUSH1 0x0 DUP10 DUP2 MSTORE PUSH1 0x20 ADD SWAP1 DUP2 MSTORE PUSH1 0x20 ADD PUSH1 0x0 KECCAK256 DUP2 SWAP1 SSTORE POP DUP6 PUSH1 0x3 PUSH1 0x0 DUP6 DUP2 MSTORE PUSH1 0x20 ADD SWAP1 DUP2 MSTORE PUSH1 0x20 ADD PUSH1 0x0 KECCAK256 DUP2 SWAP1 SSTORE POP DUP4 PUSH1 0x4 PUSH1 0x0 DUP10 DUP2 MSTORE PUSH1 0x20 ADD SWAP1 DUP2 MSTORE PUSH1 0x20 ADD PUSH1 0x0 KECCAK256 DUP2 SWAP1 SSTORE POP DUP4 PUSH1 0x4 PUSH1 0x0 DUP6 DUP2 MSTORE PUSH1 0x20 ADD SWAP1 DUP2 MSTORE PUSH1 0x20 ADD PUSH1 0x0 KECCAK256 DUP2 SWAP1 SSTORE POP DUP3 PUSH1 0x9 PUSH1 0x0 DUP10 DUP2 MSTORE PUSH1 0x20 ADD SWAP1 DUP2 MSTORE PUSH1 0x20 ADD PUSH1 0x0 KECCAK256 DUP2 SWAP1 SSTORE POP DUP2 PUSH1 0x6 PUSH1 0x0 DUP10 DUP2 MSTORE PUSH1 0x20 ADD SWAP1 DUP2 MSTORE PUSH1 0x20 ADD PUSH1 0x0 KECCAK256 SWAP1 DUP1 MLOAD SWAP1 PUSH1 0x20 ADD SWAP1 PUSH2 0x19AF SWAP3 SWAP2 SWAP1 PUSH2 0x2175 JUMP JUMPDEST POP DUP2 PUSH1 0x6 PUSH1 0x0 DUP6 DUP2 MSTORE PUSH1 0x20 ADD SWAP1 DUP2 MSTORE PUSH1 0x20 ADD PUSH1 0x0 KECCAK256 SWAP1 DUP1 MLOAD SWAP1 PUSH1 0x20 ADD SWAP1 PUSH2 0x19D7 SWAP3 SWAP2 SWAP1 PUSH2 0x2175 JUMP JUMPDEST POP PUSH1 0x0 PUSH1 0x5 PUSH1 0x0 DUP10 DUP2 MSTORE PUSH1 0x20 ADD SWAP1 DUP2 MSTORE PUSH1 0x20 ADD PUSH1 0x0 KECCAK256 DUP2 SWAP1 SSTORE POP CALLER PUSH1 0x1 PUSH1 0x0 DUP10 DUP2 MSTORE PUSH1 0x20 ADD SWAP1 DUP2 MSTORE PUSH1 0x20 ADD PUSH1 0x0 KECCAK256 PUSH1 0x0 PUSH2 0x100 EXP DUP2 SLOAD DUP2 PUSH20 0xFFFFFFFFFFFFFFFFFFFFFFFFFFFFFFFFFFFFFFFF MUL NOT AND SWAP1 DUP4 PUSH20 0xFFFFFFFFFFFFFFFFFFFFFFFFFFFFFFFFFFFFFFFF AND MUL OR SWAP1 SSTORE POP CALLER PUSH1 0x1 PUSH1 0x0 DUP6 DUP2 MSTORE PUSH1 0x20 ADD SWAP1 DUP2 MSTORE PUSH1 0x20 ADD PUSH1 0x0 KECCAK256 PUSH1 0x0 PUSH2 0x100 EXP DUP2 SLOAD DUP2 PUSH20 0xFFFFFFFFFFFFFFFFFFFFFFFFFFFFFFFFFFFFFFFF MUL NOT AND SWAP1 DUP4 PUSH20 0xFFFFFFFFFFFFFFFFFFFFFFFFFFFFFFFFFFFFFFFF AND MUL OR SWAP1 SSTORE POP DUP1 PUSH1 0x0 DUP1 DUP10 DUP2 MSTORE PUSH1 0x20 ADD SWAP1 DUP2 MSTORE PUSH1 0x20 ADD PUSH1 0x0 KECCAK256 PUSH1 0x0 DUP3 ADD MLOAD DUP2 PUSH1 0x0 ADD SSTORE PUSH1 0x20 DUP3 ADD MLOAD DUP2 PUSH1 0x1 ADD SSTORE PUSH1 0x40 DUP3 ADD MLOAD DUP2 PUSH1 0x2 ADD SSTORE SWAP1 POP POP DUP1 PUSH1 0x0 DUP1 DUP6 DUP2 MSTORE PUSH1 0x20 ADD SWAP1 DUP2 MSTORE PUSH1 0x20 ADD PUSH1 0x0 KECCAK256 PUSH1 0x0 DUP3 ADD MLOAD DUP2 PUSH1 0x0 ADD SSTORE PUSH1 0x20 DUP3 ADD MLOAD DUP2 PUSH1 0x1 ADD SSTORE PUSH1 0x40 DUP3 ADD MLOAD DUP2 PUSH1 0x2 ADD SSTORE SWAP1 POP POP POP POP POP POP POP POP POP JUMP JUMPDEST PUSH1 0x0 PUSH1 0x60 PUSH1 0x2 PUSH1 0x0 DUP5 DUP2 MSTORE PUSH1 0x20 ADD SWAP1 DUP2 MSTORE PUSH1 0x20 ADD PUSH1 0x0 KECCAK256 SLOAD PUSH1 0x6 PUSH1 0x0 DUP6 DUP2 MSTORE PUSH1 0x20 ADD SWAP1 DUP2 MSTORE PUSH1 0x20 ADD PUSH1 0x0 KECCAK256 DUP1 DUP1 SLOAD PUSH2 0x1B3D SWAP1 PUSH2 0x2D6B JUMP JUMPDEST DUP1 PUSH1 0x1F ADD PUSH1 0x20 DUP1 SWAP2 DIV MUL PUSH1 0x20 ADD PUSH1 0x40 MLOAD SWAP1 DUP2 ADD PUSH1 0x40 MSTORE DUP1 SWAP3 SWAP2 SWAP1 DUP2 DUP2 MSTORE PUSH1 0x20 ADD DUP3 DUP1 SLOAD PUSH2 0x1B69 SWAP1 PUSH2 0x2D6B JUMP JUMPDEST DUP1 ISZERO PUSH2 0x1BB6 JUMPI DUP1 PUSH1 0x1F LT PUSH2 0x1B8B JUMPI PUSH2 0x100 DUP1 DUP4 SLOAD DIV MUL DUP4 MSTORE SWAP2 PUSH1 0x20 ADD SWAP2 PUSH2 0x1BB6 JUMP JUMPDEST DUP3 ADD SWAP2 SWAP1 PUSH1 0x0 MSTORE PUSH1 0x20 PUSH1 0x0 KECCAK256 SWAP1 JUMPDEST DUP2 SLOAD DUP2 MSTORE SWAP1 PUSH1 0x1 ADD SWAP1 PUSH1 0x20 ADD DUP1 DUP4 GT PUSH2 0x1B99 JUMPI DUP3 SWAP1 SUB PUSH1 0x1F AND DUP3 ADD SWAP2 JUMPDEST POP POP POP POP POP SWAP1 POP SWAP2 POP SWAP2 POP SWAP2 POP SWAP2 JUMP JUMPDEST PUSH1 0x9 PUSH1 0x20 MSTORE DUP1 PUSH1 0x0 MSTORE PUSH1 0x40 PUSH1 0x0 KECCAK256 PUSH1 0x0 SWAP2 POP SWAP1 POP SLOAD DUP2 JUMP JUMPDEST PUSH1 0x6 PUSH1 0x20 MSTORE DUP1 PUSH1 0x0 MSTORE PUSH1 0x40 PUSH1 0x0 KECCAK256 PUSH1 0x0 SWAP2 POP SWAP1 POP DUP1 SLOAD PUSH2 0x1BFD SWAP1 PUSH2 0x2D6B JUMP JUMPDEST DUP1 PUSH1 0x1F ADD PUSH1 0x20 DUP1 SWAP2 DIV MUL PUSH1 0x20 ADD PUSH1 0x40 MLOAD SWAP1 DUP2 ADD PUSH1 0x40 MSTORE DUP1 SWAP3 SWAP2 SWAP1 DUP2 DUP2 MSTORE PUSH1 0x20 ADD DUP3 DUP1 SLOAD PUSH2 0x1C29 SWAP1 PUSH2 0x2D6B JUMP JUMPDEST DUP1 ISZERO PUSH2 0x1C76 JUMPI DUP1 PUSH1 0x1F LT PUSH2 0x1C4B JUMPI PUSH2 0x100 DUP1 DUP4 SLOAD DIV MUL DUP4 MSTORE SWAP2 PUSH1 0x20 ADD SWAP2 PUSH2 0x1C76 JUMP JUMPDEST DUP3 ADD SWAP2 SWAP1 PUSH1 0x0 MSTORE PUSH1 0x20 PUSH1 0x0 KECCAK256 SWAP1 JUMPDEST DUP2 SLOAD DUP2 MSTORE SWAP1 PUSH1 0x1 ADD SWAP1 PUSH1 0x20 ADD DUP1 DUP4 GT PUSH2 0x1C59 JUMPI DUP3 SWAP1 SUB PUSH1 0x1F AND DUP3 ADD SWAP2 JUMPDEST POP POP POP POP POP DUP2 JUMP JUMPDEST PUSH1 0xA PUSH1 0x20 MSTORE DUP2 PUSH1 0x0 MSTORE PUSH1 0x40 PUSH1 0x0 KECCAK256 PUSH1 0x20 MSTORE DUP1 PUSH1 0x0 MSTORE PUSH1 0x40 PUSH1 0x0 KECCAK256 PUSH1 0x0 SWAP2 POP SWAP2 POP POP DUP1 PUSH1 0x0 ADD PUSH1 0x0 SWAP1 SLOAD SWAP1 PUSH2 0x100 EXP SWAP1 DIV PUSH1 0xFF AND SWAP1 DUP1 PUSH1 0x0 ADD PUSH1 0x1 SWAP1 SLOAD SWAP1 PUSH2 0x100 EXP SWAP1 DIV PUSH1 0xFF AND SWAP1 DUP1 PUSH1 0x0 ADD PUSH1 0x2 SWAP1 SLOAD SWAP1 PUSH2 0x100 EXP SWAP1 DIV PUSH20 0xFFFFFFFFFFFFFFFFFFFFFFFFFFFFFFFFFFFFFFFF AND SWAP1 POP DUP4 JUMP JUMPDEST PUSH1 0x1 PUSH1 0x20 MSTORE DUP1 PUSH1 0x0 MSTORE PUSH1 0x40 PUSH1 0x0 KECCAK256 PUSH1 0x0 SWAP2 POP SLOAD SWAP1 PUSH2 0x100 EXP SWAP1 DIV PUSH20 0xFFFFFFFFFFFFFFFFFFFFFFFFFFFFFFFFFFFFFFFF AND DUP2 JUMP JUMPDEST PUSH1 0x1 PUSH1 0x0 DUP3 DUP2 MSTORE PUSH1 0x20 ADD SWAP1 DUP2 MSTORE PUSH1 0x20 ADD PUSH1 0x0 KECCAK256 PUSH1 0x0 SWAP1 SLOAD SWAP1 PUSH2 0x100 EXP SWAP1 DIV PUSH20 0xFFFFFFFFFFFFFFFFFFFFFFFFFFFFFFFFFFFFFFFF AND PUSH20 0xFFFFFFFFFFFFFFFFFFFFFFFFFFFFFFFFFFFFFFFF AND CALLER PUSH20 0xFFFFFFFFFFFFFFFFFFFFFFFFFFFFFFFFFFFFFFFF AND EQ PUSH2 0x1DC3 JUMPI PUSH1 0x40 MLOAD PUSH32 0x8C379A000000000000000000000000000000000000000000000000000000000 DUP2 MSTORE PUSH1 0x4 ADD PUSH2 0x1DBA SWAP1 PUSH2 0x2A4C JUMP JUMPDEST PUSH1 0x40 MLOAD DUP1 SWAP2 SUB SWAP1 REVERT JUMPDEST PUSH1 0x1 PUSH1 0x0 DUP3 DUP2 MSTORE PUSH1 0x20 ADD SWAP1 DUP2 MSTORE PUSH1 0x20 ADD PUSH1 0x0 KECCAK256 PUSH1 0x0 SWAP1 SLOAD SWAP1 PUSH2 0x100 EXP SWAP1 DIV PUSH20 0xFFFFFFFFFFFFFFFFFFFFFFFFFFFFFFFFFFFFFFFF AND PUSH20 0xFFFFFFFFFFFFFFFFFFFFFFFFFFFFFFFFFFFFFFFF AND DUP3 PUSH20 0xFFFFFFFFFFFFFFFFFFFFFFFFFFFFFFFFFFFFFFFF AND EQ ISZERO PUSH2 0x1E65 JUMPI PUSH1 0x40 MLOAD PUSH32 0x8C379A000000000000000000000000000000000000000000000000000000000 DUP2 MSTORE PUSH1 0x4 ADD PUSH2 0x1E5C SWAP1 PUSH2 0x29EC JUMP JUMPDEST PUSH1 0x40 MLOAD DUP1 SWAP2 SUB SWAP1 REVERT JUMPDEST PUSH1 0x0 PUSH20 0xFFFFFFFFFFFFFFFFFFFFFFFFFFFFFFFFFFFFFFFF AND PUSH1 0xA PUSH1 0x0 DUP4 DUP2 MSTORE PUSH1 0x20 ADD SWAP1 DUP2 MSTORE PUSH1 0x20 ADD PUSH1 0x0 KECCAK256 PUSH1 0x0 DUP5 PUSH20 0xFFFFFFFFFFFFFFFFFFFFFFFFFFFFFFFFFFFFFFFF AND PUSH20 0xFFFFFFFFFFFFFFFFFFFFFFFFFFFFFFFFFFFFFFFF AND DUP2 MSTORE PUSH1 0x20 ADD SWAP1 DUP2 MSTORE PUSH1 0x20 ADD PUSH1 0x0 KECCAK256 PUSH1 0x0 ADD PUSH1 0x2 SWAP1 SLOAD SWAP1 PUSH2 0x100 EXP SWAP1 DIV PUSH20 0xFFFFFFFFFFFFFFFFFFFFFFFFFFFFFFFFFFFFFFFF AND PUSH20 0xFFFFFFFFFFFFFFFFFFFFFFFFFFFFFFFFFFFFFFFF AND EQ PUSH2 0x1F47 JUMPI PUSH1 0x40 MLOAD PUSH32 0x8C379A000000000000000000000000000000000000000000000000000000000 DUP2 MSTORE PUSH1 0x4 ADD PUSH2 0x1F3E SWAP1 PUSH2 0x296C JUMP JUMPDEST PUSH1 0x40 MLOAD DUP1 SWAP2 SUB SWAP1 REVERT JUMPDEST PUSH1 0x0 DUP1 DUP3 DUP2 MSTORE PUSH1 0x20 ADD SWAP1 DUP2 MSTORE PUSH1 0x20 ADD PUSH1 0x0 KECCAK256 PUSH1 0x1 ADD SLOAD TIMESTAMP LT PUSH2 0x1F9E JUMPI PUSH1 0x40 MLOAD PUSH32 0x8C379A000000000000000000000000000000000000000000000000000000000 DUP2 MSTORE PUSH1 0x4 ADD PUSH2 0x1F95 SWAP1 PUSH2 0x2A2C JUMP JUMPDEST PUSH1 0x40 MLOAD DUP1 SWAP2 SUB SWAP1 REVERT JUMPDEST PUSH1 0x0 PUSH1 0x40 MLOAD DUP1 PUSH1 0x60 ADD PUSH1 0x40 MSTORE DUP1 PUSH1 0x0 ISZERO ISZERO DUP2 MSTORE PUSH1 0x20 ADD PUSH1 0x0 ISZERO ISZERO DUP2 MSTORE PUSH1 0x20 ADD DUP5 PUSH20 0xFFFFFFFFFFFFFFFFFFFFFFFFFFFFFFFFFFFFFFFF AND DUP2 MSTORE POP SWAP1 POP DUP1 PUSH1 0xA PUSH1 0x0 DUP5 DUP2 MSTORE PUSH1 0x20 ADD SWAP1 DUP2 MSTORE PUSH1 0x20 ADD PUSH1 0x0 KECCAK256 PUSH1 0x0 DUP6 PUSH20 0xFFFFFFFFFFFFFFFFFFFFFFFFFFFFFFFFFFFFFFFF AND PUSH20 0xFFFFFFFFFFFFFFFFFFFFFFFFFFFFFFFFFFFFFFFF AND DUP2 MSTORE PUSH1 0x20 ADD SWAP1 DUP2 MSTORE PUSH1 0x20 ADD PUSH1 0x0 KECCAK256 PUSH1 0x0 DUP3 ADD MLOAD DUP2 PUSH1 0x0 ADD PUSH1 0x0 PUSH2 0x100 EXP DUP2 SLOAD DUP2 PUSH1 0xFF MUL NOT AND SWAP1 DUP4 ISZERO ISZERO MUL OR SWAP1 SSTORE POP PUSH1 0x20 DUP3 ADD MLOAD DUP2 PUSH1 0x0 ADD PUSH1 0x1 PUSH2 0x100 EXP DUP2 SLOAD DUP2 PUSH1 0xFF MUL NOT AND SWAP1 DUP4 ISZERO ISZERO MUL OR SWAP1 SSTORE POP PUSH1 0x40 DUP3 ADD MLOAD DUP2 PUSH1 0x0 ADD PUSH1 0x2 PUSH2 0x100 EXP DUP2 SLOAD DUP2 PUSH20 0xFFFFFFFFFFFFFFFFFFFFFFFFFFFFFFFFFFFFFFFF MUL NOT AND SWAP1 DUP4 PUSH20 0xFFFFFFFFFFFFFFFFFFFFFFFFFFFFFFFFFFFFFFFF AND MUL OR SWAP1 SSTORE POP SWAP1 POP POP PUSH1 0xC PUSH1 0x0 DUP4 DUP2 MSTORE PUSH1 0x20 ADD SWAP1 DUP2 MSTORE PUSH1 0x20 ADD PUSH1 0x0 KECCAK256 DUP4 SWAP1 DUP1 PUSH1 0x1 DUP2 SLOAD ADD DUP1 DUP3 SSTORE DUP1 SWAP2 POP POP PUSH1 0x1 SWAP1 SUB SWAP1 PUSH1 0x0 MSTORE PUSH1 0x20 PUSH1 0x0 KECCAK256 ADD PUSH1 0x0 SWAP1 SWAP2 SWAP1 SWAP2 SWAP1 SWAP2 PUSH2 0x100 EXP DUP2 SLOAD DUP2 PUSH20 0xFFFFFFFFFFFFFFFFFFFFFFFFFFFFFFFFFFFFFFFF MUL NOT AND SWAP1 DUP4 PUSH20 0xFFFFFFFFFFFFFFFFFFFFFFFFFFFFFFFFFFFFFFFF AND MUL OR SWAP1 SSTORE POP POP POP POP JUMP JUMPDEST PUSH1 0x5 PUSH1 0x20 MSTORE DUP1 PUSH1 0x0 MSTORE PUSH1 0x40 PUSH1 0x0 KECCAK256 PUSH1 0x0 SWAP2 POP SWAP1 POP SLOAD DUP2 JUMP JUMPDEST PUSH1 0x2 PUSH1 0x20 MSTORE DUP1 PUSH1 0x0 MSTORE PUSH1 0x40 PUSH1 0x0 KECCAK256 PUSH1 0x0 SWAP2 POP SWAP1 POP SLOAD DUP2 JUMP JUMPDEST PUSH1 0x4 PUSH1 0x20 MSTORE DUP1 PUSH1 0x0 MSTORE PUSH1 0x40 PUSH1 0x0 KECCAK256 PUSH1 0x0 SWAP2 POP SWAP1 POP SLOAD DUP2 JUMP JUMPDEST DUP3 DUP1 SLOAD PUSH2 0x2181 SWAP1 PUSH2 0x2D6B JUMP JUMPDEST SWAP1 PUSH1 0x0 MSTORE PUSH1 0x20 PUSH1 0x0 KECCAK256 SWAP1 PUSH1 0x1F ADD PUSH1 0x20 SWAP1 DIV DUP2 ADD SWAP3 DUP3 PUSH2 0x21A3 JUMPI PUSH1 0x0 DUP6 SSTORE PUSH2 0x21EA JUMP JUMPDEST DUP3 PUSH1 0x1F LT PUSH2 0x21BC JUMPI DUP1 MLOAD PUSH1 0xFF NOT AND DUP4 DUP1 ADD OR DUP6 SSTORE PUSH2 0x21EA JUMP JUMPDEST DUP3 DUP1 ADD PUSH1 0x1 ADD DUP6 SSTORE DUP3 ISZERO PUSH2 0x21EA JUMPI SWAP2 DUP3 ADD JUMPDEST DUP3 DUP2 GT ISZERO PUSH2 0x21E9 JUMPI DUP3 MLOAD DUP3 SSTORE SWAP2 PUSH1 0x20 ADD SWAP2 SWAP1 PUSH1 0x1 ADD SWAP1 PUSH2 0x21CE JUMP JUMPDEST JUMPDEST POP SWAP1 POP PUSH2 0x21F7 SWAP2 SWAP1 PUSH2 0x21FB JUMP JUMPDEST POP SWAP1 JUMP JUMPDEST JUMPDEST DUP1 DUP3 GT ISZERO PUSH2 0x2214 JUMPI PUSH1 0x0 DUP2 PUSH1 0x0 SWAP1 SSTORE POP PUSH1 0x1 ADD PUSH2 0x21FC JUMP JUMPDEST POP SWAP1 JUMP JUMPDEST PUSH1 0x0 PUSH2 0x222B PUSH2 0x2226 DUP5 PUSH2 0x2B63 JUMP JUMPDEST PUSH2 0x2B3E JUMP JUMPDEST SWAP1 POP DUP3 DUP2 MSTORE PUSH1 0x20 DUP2 ADD DUP5 DUP5 DUP5 ADD GT ISZERO PUSH2 0x2247 JUMPI PUSH2 0x2246 PUSH2 0x2EE8 JUMP JUMPDEST JUMPDEST PUSH2 0x2252 DUP5 DUP3 DUP6 PUSH2 0x2D29 JUMP JUMPDEST POP SWAP4 SWAP3 POP POP POP JUMP JUMPDEST PUSH1 0x0 DUP2 CALLDATALOAD SWAP1 POP PUSH2 0x2269 DUP2 PUSH2 0x318C JUMP JUMPDEST SWAP3 SWAP2 POP POP JUMP JUMPDEST PUSH1 0x0 DUP2 CALLDATALOAD SWAP1 POP PUSH2 0x227E DUP2 PUSH2 0x31A3 JUMP JUMPDEST SWAP3 SWAP2 POP POP JUMP JUMPDEST PUSH1 0x0 DUP3 PUSH1 0x1F DUP4 ADD SLT PUSH2 0x2299 JUMPI PUSH2 0x2298 PUSH2 0x2EE3 JUMP JUMPDEST JUMPDEST DUP2 CALLDATALOAD PUSH2 0x22A9 DUP5 DUP3 PUSH1 0x20 DUP7 ADD PUSH2 0x2218 JUMP JUMPDEST SWAP2 POP POP SWAP3 SWAP2 POP POP JUMP JUMPDEST PUSH1 0x0 DUP2 CALLDATALOAD SWAP1 POP PUSH2 0x22C1 DUP2 PUSH2 0x31BA JUMP JUMPDEST SWAP3 SWAP2 POP POP JUMP JUMPDEST PUSH1 0x0 DUP1 PUSH1 0x40 DUP4 DUP6 SUB SLT ISZERO PUSH2 0x22DE JUMPI PUSH2 0x22DD PUSH2 0x2EF2 JUMP JUMPDEST JUMPDEST PUSH1 0x0 PUSH2 0x22EC DUP6 DUP3 DUP7 ADD PUSH2 0x225A JUMP JUMPDEST SWAP3 POP POP PUSH1 0x20 PUSH2 0x22FD DUP6 DUP3 DUP7 ADD PUSH2 0x226F JUMP JUMPDEST SWAP2 POP POP SWAP3 POP SWAP3 SWAP1 POP JUMP JUMPDEST PUSH1 0x0 PUSH1 0x20 DUP3 DUP5 SUB SLT ISZERO PUSH2 0x231D JUMPI PUSH2 0x231C PUSH2 0x2EF2 JUMP JUMPDEST JUMPDEST PUSH1 0x0 PUSH2 0x232B DUP5 DUP3 DUP6 ADD PUSH2 0x226F JUMP JUMPDEST SWAP2 POP POP SWAP3 SWAP2 POP POP JUMP JUMPDEST PUSH1 0x0 DUP1 PUSH1 0x40 DUP4 DUP6 SUB SLT ISZERO PUSH2 0x234B JUMPI PUSH2 0x234A PUSH2 0x2EF2 JUMP JUMPDEST JUMPDEST PUSH1 0x0 PUSH2 0x2359 DUP6 DUP3 DUP7 ADD PUSH2 0x226F JUMP JUMPDEST SWAP3 POP POP PUSH1 0x20 PUSH2 0x236A DUP6 DUP3 DUP7 ADD PUSH2 0x225A JUMP JUMPDEST SWAP2 POP POP SWAP3 POP SWAP3 SWAP1 POP JUMP JUMPDEST PUSH1 0x0 DUP1 PUSH1 0x40 DUP4 DUP6 SUB SLT ISZERO PUSH2 0x238B JUMPI PUSH2 0x238A PUSH2 0x2EF2 JUMP JUMPDEST JUMPDEST PUSH1 0x0 PUSH2 0x2399 DUP6 DUP3 DUP7 ADD PUSH2 0x226F JUMP JUMPDEST SWAP3 POP POP PUSH1 0x20 PUSH2 0x23AA DUP6 DUP3 DUP7 ADD PUSH2 0x22B2 JUMP JUMPDEST SWAP2 POP POP SWAP3 POP SWAP3 SWAP1 POP JUMP JUMPDEST PUSH1 0x0 DUP1 PUSH1 0x0 DUP1 PUSH1 0x80 DUP6 DUP8 SUB SLT ISZERO PUSH2 0x23CE JUMPI PUSH2 0x23CD PUSH2 0x2EF2 JUMP JUMPDEST JUMPDEST PUSH1 0x0 PUSH2 0x23DC DUP8 DUP3 DUP9 ADD PUSH2 0x226F JUMP JUMPDEST SWAP5 POP POP PUSH1 0x20 PUSH2 0x23ED DUP8 DUP3 DUP9 ADD PUSH2 0x22B2 JUMP JUMPDEST SWAP4 POP POP PUSH1 0x40 PUSH2 0x23FE DUP8 DUP3 DUP9 ADD PUSH2 0x22B2 JUMP JUMPDEST SWAP3 POP POP PUSH1 0x60 PUSH2 0x240F DUP8 DUP3 DUP9 ADD PUSH2 0x226F JUMP JUMPDEST SWAP2 POP POP SWAP3 SWAP6 SWAP2 SWAP5 POP SWAP3 POP JUMP JUMPDEST PUSH1 0x0 DUP1 PUSH1 0x0 DUP1 PUSH1 0x0 DUP1 PUSH1 0xC0 DUP8 DUP10 SUB SLT ISZERO PUSH2 0x2438 JUMPI PUSH2 0x2437 PUSH2 0x2EF2 JUMP JUMPDEST JUMPDEST PUSH1 0x0 PUSH2 0x2446 DUP10 DUP3 DUP11 ADD PUSH2 0x226F JUMP JUMPDEST SWAP7 POP POP PUSH1 0x20 PUSH2 0x2457 DUP10 DUP3 DUP11 ADD PUSH2 0x22B2 JUMP JUMPDEST SWAP6 POP POP PUSH1 0x40 PUSH2 0x2468 DUP10 DUP3 DUP11 ADD PUSH2 0x22B2 JUMP JUMPDEST SWAP5 POP POP PUSH1 0x60 PUSH2 0x2479 DUP10 DUP3 DUP11 ADD PUSH2 0x226F JUMP JUMPDEST SWAP4 POP POP PUSH1 0x80 PUSH2 0x248A DUP10 DUP3 DUP11 ADD PUSH2 0x226F JUMP JUMPDEST SWAP3 POP POP PUSH1 0xA0 DUP8 ADD CALLDATALOAD PUSH8 0xFFFFFFFFFFFFFFFF DUP2 GT ISZERO PUSH2 0x24AB JUMPI PUSH2 0x24AA PUSH2 0x2EED JUMP JUMPDEST JUMPDEST PUSH2 0x24B7 DUP10 DUP3 DUP11 ADD PUSH2 0x2284 JUMP JUMPDEST SWAP2 POP POP SWAP3 SWAP6 POP SWAP3 SWAP6 POP SWAP3 SWAP6 JUMP JUMPDEST PUSH1 0x0 DUP1 PUSH1 0x40 DUP4 DUP6 SUB SLT ISZERO PUSH2 0x24DB JUMPI PUSH2 0x24DA PUSH2 0x2EF2 JUMP JUMPDEST JUMPDEST PUSH1 0x0 DUP4 ADD CALLDATALOAD PUSH8 0xFFFFFFFFFFFFFFFF DUP2 GT ISZERO PUSH2 0x24F9 JUMPI PUSH2 0x24F8 PUSH2 0x2EED JUMP JUMPDEST JUMPDEST PUSH2 0x2505 DUP6 DUP3 DUP7 ADD PUSH2 0x2284 JUMP JUMPDEST SWAP3 POP POP PUSH1 0x20 PUSH2 0x2516 DUP6 DUP3 DUP7 ADD PUSH2 0x226F JUMP JUMPDEST SWAP2 POP POP SWAP3 POP SWAP3 SWAP1 POP JUMP JUMPDEST PUSH1 0x0 PUSH2 0x252C DUP4 DUP4 PUSH2 0x27BE JUMP JUMPDEST PUSH1 0x60 DUP4 ADD SWAP1 POP SWAP3 SWAP2 POP POP JUMP JUMPDEST PUSH2 0x2541 DUP2 PUSH2 0x2CCA JUMP JUMPDEST DUP3 MSTORE POP POP JUMP JUMPDEST PUSH2 0x2550 DUP2 PUSH2 0x2CCA JUMP JUMPDEST DUP3 MSTORE POP POP JUMP JUMPDEST PUSH1 0x0 PUSH2 0x2561 DUP3 PUSH2 0x2BA4 JUMP JUMPDEST PUSH2 0x256B DUP2 DUP6 PUSH2 0x2BC7 JUMP JUMPDEST SWAP4 POP PUSH2 0x2576 DUP4 PUSH2 0x2B94 JUMP JUMPDEST DUP1 PUSH1 0x0 JUMPDEST DUP4 DUP2 LT ISZERO PUSH2 0x25A7 JUMPI DUP2 MLOAD PUSH2 0x258E DUP9 DUP3 PUSH2 0x2520 JUMP JUMPDEST SWAP8 POP PUSH2 0x2599 DUP4 PUSH2 0x2BBA JUMP JUMPDEST SWAP3 POP POP PUSH1 0x1 DUP2 ADD SWAP1 POP PUSH2 0x257A JUMP JUMPDEST POP DUP6 SWAP4 POP POP POP POP SWAP3 SWAP2 POP POP JUMP JUMPDEST PUSH2 0x25BD DUP2 PUSH2 0x2CDC JUMP JUMPDEST DUP3 MSTORE POP POP JUMP JUMPDEST PUSH2 0x25CC DUP2 PUSH2 0x2CDC JUMP JUMPDEST DUP3 MSTORE POP POP JUMP JUMPDEST PUSH2 0x25DB DUP2 PUSH2 0x2CE8 JUMP JUMPDEST DUP3 MSTORE POP POP JUMP JUMPDEST PUSH1 0x0 PUSH2 0x25EC DUP3 PUSH2 0x2BAF JUMP JUMPDEST PUSH2 0x25F6 DUP2 DUP6 PUSH2 0x2BD8 JUMP JUMPDEST SWAP4 POP PUSH2 0x2606 DUP2 DUP6 PUSH1 0x20 DUP7 ADD PUSH2 0x2D38 JUMP JUMPDEST PUSH2 0x260F DUP2 PUSH2 0x2EF7 JUMP JUMPDEST DUP5 ADD SWAP2 POP POP SWAP3 SWAP2 POP POP JUMP JUMPDEST PUSH1 0x0 PUSH2 0x2627 PUSH1 0x1F DUP4 PUSH2 0x2BD8 JUMP JUMPDEST SWAP2 POP PUSH2 0x2632 DUP3 PUSH2 0x2F08 JUMP JUMPDEST PUSH1 0x20 DUP3 ADD SWAP1 POP SWAP2 SWAP1 POP JUMP JUMPDEST PUSH1 0x0 PUSH2 0x264A PUSH1 0x19 DUP4 PUSH2 0x2BD8 JUMP JUMPDEST SWAP2 POP PUSH2 0x2655 DUP3 PUSH2 0x2F31 JUMP JUMPDEST PUSH1 0x20 DUP3 ADD SWAP1 POP SWAP2 SWAP1 POP JUMP JUMPDEST PUSH1 0x0 PUSH2 0x266D PUSH1 0x26 DUP4 PUSH2 0x2BD8 JUMP JUMPDEST SWAP2 POP PUSH2 0x2678 DUP3 PUSH2 0x2F5A JUMP JUMPDEST PUSH1 0x40 DUP3 ADD SWAP1 POP SWAP2 SWAP1 POP JUMP JUMPDEST PUSH1 0x0 PUSH2 0x2690 PUSH1 0x1C DUP4 PUSH2 0x2BD8 JUMP JUMPDEST SWAP2 POP PUSH2 0x269B DUP3 PUSH2 0x2FA9 JUMP JUMPDEST PUSH1 0x20 DUP3 ADD SWAP1 POP SWAP2 SWAP1 POP JUMP JUMPDEST PUSH1 0x0 PUSH2 0x26B3 PUSH1 0x15 DUP4 PUSH2 0x2BD8 JUMP JUMPDEST SWAP2 POP PUSH2 0x26BE DUP3 PUSH2 0x2FD2 JUMP JUMPDEST PUSH1 0x20 DUP3 ADD SWAP1 POP SWAP2 SWAP1 POP JUMP JUMPDEST PUSH1 0x0 PUSH2 0x26D6 PUSH1 0x1E DUP4 PUSH2 0x2BD8 JUMP JUMPDEST SWAP2 POP PUSH2 0x26E1 DUP3 PUSH2 0x2FFB JUMP JUMPDEST PUSH1 0x20 DUP3 ADD SWAP1 POP SWAP2 SWAP1 POP JUMP JUMPDEST PUSH1 0x0 PUSH2 0x26F9 PUSH1 0x24 DUP4 PUSH2 0x2BD8 JUMP JUMPDEST SWAP2 POP PUSH2 0x2704 DUP3 PUSH2 0x3024 JUMP JUMPDEST PUSH1 0x40 DUP3 ADD SWAP1 POP SWAP2 SWAP1 POP JUMP JUMPDEST PUSH1 0x0 PUSH2 0x271C PUSH1 0x28 DUP4 PUSH2 0x2BD8 JUMP JUMPDEST SWAP2 POP PUSH2 0x2727 DUP3 PUSH2 0x3073 JUMP JUMPDEST PUSH1 0x40 DUP3 ADD SWAP1 POP SWAP2 SWAP1 POP JUMP JUMPDEST PUSH1 0x0 PUSH2 0x273F PUSH1 0x14 DUP4 PUSH2 0x2BD8 JUMP JUMPDEST SWAP2 POP PUSH2 0x274A DUP3 PUSH2 0x30C2 JUMP JUMPDEST PUSH1 0x20 DUP3 ADD SWAP1 POP SWAP2 SWAP1 POP JUMP JUMPDEST PUSH1 0x0 PUSH2 0x2762 PUSH1 0x20 DUP4 PUSH2 0x2BD8 JUMP JUMPDEST SWAP2 POP PUSH2 0x276D DUP3 PUSH2 0x30EB JUMP JUMPDEST PUSH1 0x20 DUP3 ADD SWAP1 POP SWAP2 SWAP1 POP JUMP JUMPDEST PUSH1 0x0 PUSH2 0x2785 PUSH1 0x12 DUP4 PUSH2 0x2BD8 JUMP JUMPDEST SWAP2 POP PUSH2 0x2790 DUP3 PUSH2 0x3114 JUMP JUMPDEST PUSH1 0x20 DUP3 ADD SWAP1 POP SWAP2 SWAP1 POP JUMP JUMPDEST PUSH1 0x0 PUSH2 0x27A8 PUSH1 0x25 DUP4 PUSH2 0x2BD8 JUMP JUMPDEST SWAP2 POP PUSH2 0x27B3 DUP3 PUSH2 0x313D JUMP JUMPDEST PUSH1 0x40 DUP3 ADD SWAP1 POP SWAP2 SWAP1 POP JUMP JUMPDEST PUSH1 0x60 DUP3 ADD PUSH1 0x0 DUP3 ADD MLOAD PUSH2 0x27D4 PUSH1 0x0 DUP6 ADD DUP3 PUSH2 0x25B4 JUMP JUMPDEST POP PUSH1 0x20 DUP3 ADD MLOAD PUSH2 0x27E7 PUSH1 0x20 DUP6 ADD DUP3 PUSH2 0x25B4 JUMP JUMPDEST POP PUSH1 0x40 DUP3 ADD MLOAD PUSH2 0x27FA PUSH1 0x40 DUP6 ADD DUP3 PUSH2 0x2538 JUMP JUMPDEST POP POP POP POP JUMP JUMPDEST PUSH2 0x2809 DUP2 PUSH2 0x2D12 JUMP JUMPDEST DUP3 MSTORE POP POP JUMP JUMPDEST PUSH1 0x0 PUSH1 0x20 DUP3 ADD SWAP1 POP PUSH2 0x2824 PUSH1 0x0 DUP4 ADD DUP5 PUSH2 0x2547 JUMP JUMPDEST SWAP3 SWAP2 POP POP JUMP JUMPDEST PUSH1 0x0 PUSH1 0x20 DUP3 ADD SWAP1 POP PUSH2 0x283F PUSH1 0x0 DUP4 ADD DUP5 PUSH2 0x25C3 JUMP JUMPDEST SWAP3 SWAP2 POP POP JUMP JUMPDEST PUSH1 0x0 PUSH1 0x60 DUP3 ADD SWAP1 POP PUSH2 0x285A PUSH1 0x0 DUP4 ADD DUP7 PUSH2 0x25C3 JUMP JUMPDEST PUSH2 0x2867 PUSH1 0x20 DUP4 ADD DUP6 PUSH2 0x25C3 JUMP JUMPDEST PUSH2 0x2874 PUSH1 0x40 DUP4 ADD DUP5 PUSH2 0x2547 JUMP JUMPDEST SWAP5 SWAP4 POP POP POP POP JUMP JUMPDEST PUSH1 0x0 PUSH1 0x60 DUP3 ADD SWAP1 POP PUSH2 0x2891 PUSH1 0x0 DUP4 ADD DUP7 PUSH2 0x25C3 JUMP JUMPDEST PUSH2 0x289E PUSH1 0x20 DUP4 ADD DUP6 PUSH2 0x25C3 JUMP JUMPDEST PUSH2 0x28AB PUSH1 0x40 DUP4 ADD DUP5 PUSH2 0x25C3 JUMP JUMPDEST SWAP5 SWAP4 POP POP POP POP JUMP JUMPDEST PUSH1 0x0 PUSH1 0x80 DUP3 ADD SWAP1 POP PUSH2 0x28C8 PUSH1 0x0 DUP4 ADD DUP8 PUSH2 0x25C3 JUMP JUMPDEST PUSH2 0x28D5 PUSH1 0x20 DUP4 ADD DUP7 PUSH2 0x25D2 JUMP JUMPDEST PUSH2 0x28E2 PUSH1 0x40 DUP4 ADD DUP6 PUSH2 0x2800 JUMP JUMPDEST DUP2 DUP2 SUB PUSH1 0x60 DUP4 ADD MSTORE PUSH2 0x28F4 DUP2 DUP5 PUSH2 0x2556 JUMP JUMPDEST SWAP1 POP SWAP6 SWAP5 POP POP POP POP POP JUMP JUMPDEST PUSH1 0x0 PUSH1 0x20 DUP3 ADD SWAP1 POP PUSH2 0x2914 PUSH1 0x0 DUP4 ADD DUP5 PUSH2 0x25D2 JUMP JUMPDEST SWAP3 SWAP2 POP POP JUMP JUMPDEST PUSH1 0x0 PUSH1 0x40 DUP3 ADD SWAP1 POP PUSH2 0x292F PUSH1 0x0 DUP4 ADD DUP6 PUSH2 0x25D2 JUMP JUMPDEST DUP2 DUP2 SUB PUSH1 0x20 DUP4 ADD MSTORE PUSH2 0x2941 DUP2 DUP5 PUSH2 0x25E1 JUMP JUMPDEST SWAP1 POP SWAP4 SWAP3 POP POP POP JUMP JUMPDEST PUSH1 0x0 PUSH1 0x20 DUP3 ADD SWAP1 POP DUP2 DUP2 SUB PUSH1 0x0 DUP4 ADD MSTORE PUSH2 0x2964 DUP2 DUP5 PUSH2 0x25E1 JUMP JUMPDEST SWAP1 POP SWAP3 SWAP2 POP POP JUMP JUMPDEST PUSH1 0x0 PUSH1 0x20 DUP3 ADD SWAP1 POP DUP2 DUP2 SUB PUSH1 0x0 DUP4 ADD MSTORE PUSH2 0x2985 DUP2 PUSH2 0x261A JUMP JUMPDEST SWAP1 POP SWAP2 SWAP1 POP JUMP JUMPDEST PUSH1 0x0 PUSH1 0x20 DUP3 ADD SWAP1 POP DUP2 DUP2 SUB PUSH1 0x0 DUP4 ADD MSTORE PUSH2 0x29A5 DUP2 PUSH2 0x263D JUMP JUMPDEST SWAP1 POP SWAP2 SWAP1 POP JUMP JUMPDEST PUSH1 0x0 PUSH1 0x20 DUP3 ADD SWAP1 POP DUP2 DUP2 SUB PUSH1 0x0 DUP4 ADD MSTORE PUSH2 0x29C5 DUP2 PUSH2 0x2660 JUMP JUMPDEST SWAP1 POP SWAP2 SWAP1 POP JUMP JUMPDEST PUSH1 0x0 PUSH1 0x20 DUP3 ADD SWAP1 POP DUP2 DUP2 SUB PUSH1 0x0 DUP4 ADD MSTORE PUSH2 0x29E5 DUP2 PUSH2 0x2683 JUMP JUMPDEST SWAP1 POP SWAP2 SWAP1 POP JUMP JUMPDEST PUSH1 0x0 PUSH1 0x20 DUP3 ADD SWAP1 POP DUP2 DUP2 SUB PUSH1 0x0 DUP4 ADD MSTORE PUSH2 0x2A05 DUP2 PUSH2 0x26A6 JUMP JUMPDEST SWAP1 POP SWAP2 SWAP1 POP JUMP JUMPDEST PUSH1 0x0 PUSH1 0x20 DUP3 ADD SWAP1 POP DUP2 DUP2 SUB PUSH1 0x0 DUP4 ADD MSTORE PUSH2 0x2A25 DUP2 PUSH2 0x26C9 JUMP JUMPDEST SWAP1 POP SWAP2 SWAP1 POP JUMP JUMPDEST PUSH1 0x0 PUSH1 0x20 DUP3 ADD SWAP1 POP DUP2 DUP2 SUB PUSH1 0x0 DUP4 ADD MSTORE PUSH2 0x2A45 DUP2 PUSH2 0x26EC JUMP JUMPDEST SWAP1 POP SWAP2 SWAP1 POP JUMP JUMPDEST PUSH1 0x0 PUSH1 0x20 DUP3 ADD SWAP1 POP DUP2 DUP2 SUB PUSH1 0x0 DUP4 ADD MSTORE PUSH2 0x2A65 DUP2 PUSH2 0x270F JUMP JUMPDEST SWAP1 POP SWAP2 SWAP1 POP JUMP JUMPDEST PUSH1 0x0 PUSH1 0x20 DUP3 ADD SWAP1 POP DUP2 DUP2 SUB PUSH1 0x0 DUP4 ADD MSTORE PUSH2 0x2A85 DUP2 PUSH2 0x2732 JUMP JUMPDEST SWAP1 POP SWAP2 SWAP1 POP JUMP JUMPDEST PUSH1 0x0 PUSH1 0x20 DUP3 ADD SWAP1 POP DUP2 DUP2 SUB PUSH1 0x0 DUP4 ADD MSTORE PUSH2 0x2AA5 DUP2 PUSH2 0x2755 JUMP JUMPDEST SWAP1 POP SWAP2 SWAP1 POP JUMP JUMPDEST PUSH1 0x0 PUSH1 0x20 DUP3 ADD SWAP1 POP DUP2 DUP2 SUB PUSH1 0x0 DUP4 ADD MSTORE PUSH2 0x2AC5 DUP2 PUSH2 0x2778 JUMP JUMPDEST SWAP1 POP SWAP2 SWAP1 POP JUMP JUMPDEST PUSH1 0x0 PUSH1 0x20 DUP3 ADD SWAP1 POP DUP2 DUP2 SUB PUSH1 0x0 DUP4 ADD MSTORE PUSH2 0x2AE5 DUP2 PUSH2 0x279B JUMP JUMPDEST SWAP1 POP SWAP2 SWAP1 POP JUMP JUMPDEST PUSH1 0x0 PUSH1 0x20 DUP3 ADD SWAP1 POP PUSH2 0x2B01 PUSH1 0x0 DUP4 ADD DUP5 PUSH2 0x2800 JUMP JUMPDEST SWAP3 SWAP2 POP POP JUMP JUMPDEST PUSH1 0x0 PUSH1 0x60 DUP3 ADD SWAP1 POP PUSH2 0x2B1C PUSH1 0x0 DUP4 ADD DUP7 PUSH2 0x2800 JUMP JUMPDEST PUSH2 0x2B29 PUSH1 0x20 DUP4 ADD DUP6 PUSH2 0x2800 JUMP JUMPDEST PUSH2 0x2B36 PUSH1 0x40 DUP4 ADD DUP5 PUSH2 0x2800 JUMP JUMPDEST SWAP5 SWAP4 POP POP POP POP JUMP JUMPDEST PUSH1 0x0 PUSH2 0x2B48 PUSH2 0x2B59 JUMP JUMPDEST SWAP1 POP PUSH2 0x2B54 DUP3 DUP3 PUSH2 0x2D9D JUMP JUMPDEST SWAP2 SWAP1 POP JUMP JUMPDEST PUSH1 0x0 PUSH1 0x40 MLOAD SWAP1 POP SWAP1 JUMP JUMPDEST PUSH1 0x0 PUSH8 0xFFFFFFFFFFFFFFFF DUP3 GT ISZERO PUSH2 0x2B7E JUMPI PUSH2 0x2B7D PUSH2 0x2EB4 JUMP JUMPDEST JUMPDEST PUSH2 0x2B87 DUP3 PUSH2 0x2EF7 JUMP JUMPDEST SWAP1 POP PUSH1 0x20 DUP2 ADD SWAP1 POP SWAP2 SWAP1 POP JUMP JUMPDEST PUSH1 0x0 DUP2 SWAP1 POP PUSH1 0x20 DUP3 ADD SWAP1 POP SWAP2 SWAP1 POP JUMP JUMPDEST PUSH1 0x0 DUP2 MLOAD SWAP1 POP SWAP2 SWAP1 POP JUMP JUMPDEST PUSH1 0x0 DUP2 MLOAD SWAP1 POP SWAP2 SWAP1 POP JUMP JUMPDEST PUSH1 0x0 PUSH1 0x20 DUP3 ADD SWAP1 POP SWAP2 SWAP1 POP JUMP JUMPDEST PUSH1 0x0 DUP3 DUP3 MSTORE PUSH1 0x20 DUP3 ADD SWAP1 POP SWAP3 SWAP2 POP POP JUMP JUMPDEST PUSH1 0x0 DUP3 DUP3 MSTORE PUSH1 0x20 DUP3 ADD SWAP1 POP SWAP3 SWAP2 POP POP JUMP JUMPDEST PUSH1 0x0 PUSH2 0x2BF4 DUP3 PUSH2 0x2D12 JUMP JUMPDEST SWAP2 POP PUSH2 0x2BFF DUP4 PUSH2 0x2D12 JUMP JUMPDEST SWAP3 POP DUP3 PUSH32 0xFFFFFFFFFFFFFFFFFFFFFFFFFFFFFFFFFFFFFFFFFFFFFFFFFFFFFFFFFFFFFFFF SUB DUP3 GT ISZERO PUSH2 0x2C34 JUMPI PUSH2 0x2C33 PUSH2 0x2DF8 JUMP JUMPDEST JUMPDEST DUP3 DUP3 ADD SWAP1 POP SWAP3 SWAP2 POP POP JUMP JUMPDEST PUSH1 0x0 PUSH2 0x2C4A DUP3 PUSH2 0x2D12 JUMP JUMPDEST SWAP2 POP PUSH2 0x2C55 DUP4 PUSH2 0x2D12 JUMP JUMPDEST SWAP3 POP DUP3 PUSH2 0x2C65 JUMPI PUSH2 0x2C64 PUSH2 0x2E27 JUMP JUMPDEST JUMPDEST DUP3 DUP3 DIV SWAP1 POP SWAP3 SWAP2 POP POP JUMP JUMPDEST PUSH1 0x0 PUSH2 0x2C7B DUP3 PUSH2 0x2D12 JUMP JUMPDEST SWAP2 POP PUSH2 0x2C86 DUP4 PUSH2 0x2D12 JUMP JUMPDEST SWAP3 POP DUP2 PUSH32 0xFFFFFFFFFFFFFFFFFFFFFFFFFFFFFFFFFFFFFFFFFFFFFFFFFFFFFFFFFFFFFFFF DIV DUP4 GT DUP3 ISZERO ISZERO AND ISZERO PUSH2 0x2CBF JUMPI PUSH2 0x2CBE PUSH2 0x2DF8 JUMP JUMPDEST JUMPDEST DUP3 DUP3 MUL SWAP1 POP SWAP3 SWAP2 POP POP JUMP JUMPDEST PUSH1 0x0 PUSH2 0x2CD5 DUP3 PUSH2 0x2CF2 JUMP JUMPDEST SWAP1 POP SWAP2 SWAP1 POP JUMP JUMPDEST PUSH1 0x0 DUP2 ISZERO ISZERO SWAP1 POP SWAP2 SWAP1 POP JUMP JUMPDEST PUSH1 0x0 DUP2 SWAP1 POP SWAP2 SWAP1 POP JUMP JUMPDEST PUSH1 0x0 PUSH20 0xFFFFFFFFFFFFFFFFFFFFFFFFFFFFFFFFFFFFFFFF DUP3 AND SWAP1 POP SWAP2 SWAP1 POP JUMP JUMPDEST PUSH1 0x0 DUP2 SWAP1 POP SWAP2 SWAP1 POP JUMP JUMPDEST PUSH1 0x0 PUSH1 0xFF DUP3 AND SWAP1 POP SWAP2 SWAP1 POP JUMP JUMPDEST DUP3 DUP2 DUP4 CALLDATACOPY PUSH1 0x0 DUP4 DUP4 ADD MSTORE POP POP POP JUMP JUMPDEST PUSH1 0x0 JUMPDEST DUP4 DUP2 LT ISZERO PUSH2 0x2D56 JUMPI DUP1 DUP3 ADD MLOAD DUP2 DUP5 ADD MSTORE PUSH1 0x20 DUP2 ADD SWAP1 POP PUSH2 0x2D3B JUMP JUMPDEST DUP4 DUP2 GT ISZERO PUSH2 0x2D65 JUMPI PUSH1 0x0 DUP5 DUP5 ADD MSTORE JUMPDEST POP POP POP POP JUMP JUMPDEST PUSH1 0x0 PUSH1 0x2 DUP3 DIV SWAP1 POP PUSH1 0x1 DUP3 AND DUP1 PUSH2 0x2D83 JUMPI PUSH1 0x7F DUP3 AND SWAP2 POP JUMPDEST PUSH1 0x20 DUP3 LT DUP2 EQ ISZERO PUSH2 0x2D97 JUMPI PUSH2 0x2D96 PUSH2 0x2E56 JUMP JUMPDEST JUMPDEST POP SWAP2 SWAP1 POP JUMP JUMPDEST PUSH2 0x2DA6 DUP3 PUSH2 0x2EF7 JUMP JUMPDEST DUP2 ADD DUP2 DUP2 LT PUSH8 0xFFFFFFFFFFFFFFFF DUP3 GT OR ISZERO PUSH2 0x2DC5 JUMPI PUSH2 0x2DC4 PUSH2 0x2EB4 JUMP JUMPDEST JUMPDEST DUP1 PUSH1 0x40 MSTORE POP POP POP JUMP JUMPDEST PUSH1 0x0 PUSH2 0x2DD9 DUP3 PUSH2 0x2D1C JUMP JUMPDEST SWAP2 POP PUSH1 0xFF DUP3 EQ ISZERO PUSH2 0x2DED JUMPI PUSH2 0x2DEC PUSH2 0x2DF8 JUMP JUMPDEST JUMPDEST PUSH1 0x1 DUP3 ADD SWAP1 POP SWAP2 SWAP1 POP JUMP JUMPDEST PUSH32 0x4E487B7100000000000000000000000000000000000000000000000000000000 PUSH1 0x0 MSTORE PUSH1 0x11 PUSH1 0x4 MSTORE PUSH1 0x24 PUSH1 0x0 REVERT JUMPDEST PUSH32 0x4E487B7100000000000000000000000000000000000000000000000000000000 PUSH1 0x0 MSTORE PUSH1 0x12 PUSH1 0x4 MSTORE PUSH1 0x24 PUSH1 0x0 REVERT JUMPDEST PUSH32 0x4E487B7100000000000000000000000000000000000000000000000000000000 PUSH1 0x0 MSTORE PUSH1 0x22 PUSH1 0x4 MSTORE PUSH1 0x24 PUSH1 0x0 REVERT JUMPDEST PUSH32 0x4E487B7100000000000000000000000000000000000000000000000000000000 PUSH1 0x0 MSTORE PUSH1 0x32 PUSH1 0x4 MSTORE PUSH1 0x24 PUSH1 0x0 REVERT JUMPDEST PUSH32 0x4E487B7100000000000000000000000000000000000000000000000000000000 PUSH1 0x0 MSTORE PUSH1 0x41 PUSH1 0x4 MSTORE PUSH1 0x24 PUSH1 0x0 REVERT JUMPDEST PUSH1 0x0 DUP1 REVERT JUMPDEST PUSH1 0x0 DUP1 REVERT JUMPDEST PUSH1 0x0 DUP1 REVERT JUMPDEST PUSH1 0x0 DUP1 REVERT JUMPDEST PUSH1 0x0 PUSH1 0x1F NOT PUSH1 0x1F DUP4 ADD AND SWAP1 POP SWAP2 SWAP1 POP JUMP JUMPDEST PUSH32 0x526563697069656E7420697320616C7265616479207265676973746572656400 PUSH1 0x0 DUP3 ADD MSTORE POP JUMP JUMPDEST PUSH32 0x50726F706F73616C20616C726561647920637265617465642100000000000000 PUSH1 0x0 DUP3 ADD MSTORE POP JUMP JUMPDEST PUSH32 0x596F75206172656E277420617574686F72697A6520746F20636F6D70696C6520 PUSH1 0x0 DUP3 ADD MSTORE PUSH32 0x42756E646C650000000000000000000000000000000000000000000000000000 PUSH1 0x20 DUP3 ADD MSTORE POP JUMP JUMPDEST PUSH32 0x596F7520616C72656164792073656E74206120726573706F6E73652E00000000 PUSH1 0x0 DUP3 ADD MSTORE POP JUMP JUMPDEST PUSH32 0x496E69746961746F722063616E277420766F7465210000000000000000000000 PUSH1 0x0 DUP3 ADD MSTORE POP JUMP JUMPDEST PUSH32 0x596F7520617265206E6F74207265676973746572656420746F20766F74650000 PUSH1 0x0 DUP3 ADD MSTORE POP JUMP JUMPDEST PUSH32 0x50726F706F73616C206861732072656163686564206974732065787069727920 PUSH1 0x0 DUP3 ADD MSTORE PUSH32 0x6461746500000000000000000000000000000000000000000000000000000000 PUSH1 0x20 DUP3 ADD MSTORE POP JUMP JUMPDEST PUSH32 0x4F6E6C7920696E69746961746F722063616E2072656769737465722061207265 PUSH1 0x0 DUP3 ADD MSTORE PUSH32 0x63697069656E742E000000000000000000000000000000000000000000000000 PUSH1 0x20 DUP3 ADD MSTORE POP JUMP JUMPDEST PUSH32 0x596F75206172656E277420496E69746961746F72000000000000000000000000 PUSH1 0x0 DUP3 ADD MSTORE POP JUMP JUMPDEST PUSH32 0x5665726469637420686173206E6F74206265656E207265616368656420796574 PUSH1 0x0 DUP3 ADD MSTORE POP JUMP JUMPDEST PUSH32 0x566F74696E672068617320657870697265640000000000000000000000000000 PUSH1 0x0 DUP3 ADD MSTORE POP JUMP JUMPDEST PUSH32 0x436F6E73656E7375732068617320616C7265616479206265656E2063616C6375 PUSH1 0x0 DUP3 ADD MSTORE PUSH32 0x6C61746564000000000000000000000000000000000000000000000000000000 PUSH1 0x20 DUP3 ADD MSTORE POP JUMP JUMPDEST PUSH2 0x3195 DUP2 PUSH2 0x2CCA JUMP JUMPDEST DUP2 EQ PUSH2 0x31A0 JUMPI PUSH1 0x0 DUP1 REVERT JUMPDEST POP JUMP JUMPDEST PUSH2 0x31AC DUP2 PUSH2 0x2CE8 JUMP JUMPDEST DUP2 EQ PUSH2 0x31B7 JUMPI PUSH1 0x0 DUP1 REVERT JUMPDEST POP JUMP JUMPDEST PUSH2 0x31C3 DUP2 PUSH2 0x2D12 JUMP JUMPDEST DUP2 EQ PUSH2 0x31CE JUMPI PUSH1 0x0 DUP1 REVERT JUMPDEST POP JUMP INVALID LOG2 PUSH5 0x6970667358 0x22 SLT KECCAK256 LT 0xBA OR POP 0xD2 SELFBALANCE 0xF9 RETURNDATACOPY DUP3 0xAD 0x5D BALANCE SWAP12 SAR 0x4B 0xF9 0xDE 0xC7 ORIGIN 0xF 0xD4 0x5E PUSH10 0x916D28D2E4FCD1742D64 PUSH20 0x6F6C634300080700330000000000000000000000 "
				},
				"gasEstimates": {
					"creation": {
						"codeDepositCost": "2561400",
						"executionCost": "2771",
						"totalCost": "2564171"
					},
					"external": {
						"Consensus(bytes32)": "infinite",
						"IDs(bytes32)": "infinite",
						"RegisterVoter(address,bytes32)": "131684",
						"Vote(string,bytes32)": "infinite",
						"Voters(bytes32,uint256)": "infinite",
						"businessProposals(bytes32)": "infinite",
						"checkConsistency(bytes32,uint256,uint256,bytes32)": "infinite",
						"contents(bytes32)": "infinite",
						"createContract(bytes32,uint256,uint256,bytes32,bytes32,string)": "infinite",
						"expiryLengths(bytes32)": "2789",
						"finalVerdicts(bytes32)": "2908",
						"getIsCompiled(bytes32)": "2867",
						"getIsCreated(bytes32)": "infinite",
						"initiators(bytes32)": "2883",
						"isCompiled(bytes32)": "2907",
						"keys(bytes32,uint256)": "5287",
						"messageDates(bytes32)": "infinite",
						"numApprovals(bytes32)": "2853",
						"retrieve_bundle(bytes32)": "infinite",
						"subjects(bytes32)": "infinite",
						"voter_maps(bytes32,address)": "infinite"
					}
				},
				"methodIdentifiers": {
					"Consensus(bytes32)": "7d6c570a",
					"IDs(bytes32)": "e5d009bf",
					"RegisterVoter(address,bytes32)": "d468f983",
					"Vote(string,bytes32)": "8acc0d10",
					"Voters(bytes32,uint256)": "4fd3b445",
					"businessProposals(bytes32)": "38232742",
					"checkConsistency(bytes32,uint256,uint256,bytes32)": "33dfd126",
					"contents(bytes32)": "f20ca12c",
					"createContract(bytes32,uint256,uint256,bytes32,bytes32,string)": "8b0e8a2a",
					"expiryLengths(bytes32)": "13191ade",
					"finalVerdicts(bytes32)": "38c20a9e",
					"getIsCompiled(bytes32)": "5273bc48",
					"getIsCreated(bytes32)": "97299e99",
					"initiators(bytes32)": "d443560a",
					"isCompiled(bytes32)": "823a6366",
					"keys(bytes32,uint256)": "7ff4c389",
					"messageDates(bytes32)": "a4a8f426",
					"numApprovals(bytes32)": "e463eaee",
					"retrieve_bundle(bytes32)": "27f0ae92",
					"subjects(bytes32)": "a0d859a3",
					"voter_maps(bytes32,address)": "a784ef74"
				}
			},
			"storageLayout": {
				"storage": [
					{
						"astId": 20,
						"contract": "contracts/BusinessConsensus3.sol:BusinessConsensus3",
						"label": "businessProposals",
						"offset": 0,
						"slot": "0",
						"type": "t_mapping(t_bytes32,t_struct(Proposal)15_storage)"
					},
					{
						"astId": 24,
						"contract": "contracts/BusinessConsensus3.sol:BusinessConsensus3",
						"label": "initiators",
						"offset": 0,
						"slot": "1",
						"type": "t_mapping(t_bytes32,t_address)"
					},
					{
						"astId": 28,
						"contract": "contracts/BusinessConsensus3.sol:BusinessConsensus3",
						"label": "IDs",
						"offset": 0,
						"slot": "2",
						"type": "t_mapping(t_bytes32,t_bytes32)"
					},
					{
						"astId": 32,
						"contract": "contracts/BusinessConsensus3.sol:BusinessConsensus3",
						"label": "expiryLengths",
						"offset": 0,
						"slot": "3",
						"type": "t_mapping(t_bytes32,t_uint256)"
					},
					{
						"astId": 36,
						"contract": "contracts/BusinessConsensus3.sol:BusinessConsensus3",
						"label": "contents",
						"offset": 0,
						"slot": "4",
						"type": "t_mapping(t_bytes32,t_bytes32)"
					},
					{
						"astId": 40,
						"contract": "contracts/BusinessConsensus3.sol:BusinessConsensus3",
						"label": "numApprovals",
						"offset": 0,
						"slot": "5",
						"type": "t_mapping(t_bytes32,t_uint256)"
					},
					{
						"astId": 44,
						"contract": "contracts/BusinessConsensus3.sol:BusinessConsensus3",
						"label": "messageDates",
						"offset": 0,
						"slot": "6",
						"type": "t_mapping(t_bytes32,t_string_storage)"
					},
					{
						"astId": 48,
						"contract": "contracts/BusinessConsensus3.sol:BusinessConsensus3",
						"label": "finalVerdicts",
						"offset": 0,
						"slot": "7",
						"type": "t_mapping(t_bytes32,t_bool)"
					},
					{
						"astId": 52,
						"contract": "contracts/BusinessConsensus3.sol:BusinessConsensus3",
						"label": "isCompiled",
						"offset": 0,
						"slot": "8",
						"type": "t_mapping(t_bytes32,t_bool)"
					},
					{
						"astId": 56,
						"contract": "contracts/BusinessConsensus3.sol:BusinessConsensus3",
						"label": "subjects",
						"offset": 0,
						"slot": "9",
						"type": "t_mapping(t_bytes32,t_bytes32)"
					},
					{
						"astId": 63,
						"contract": "contracts/BusinessConsensus3.sol:BusinessConsensus3",
						"label": "voter_maps",
						"offset": 0,
						"slot": "10",
						"type": "t_mapping(t_bytes32,t_mapping(t_address,t_struct(Voter)8_storage))"
					},
					{
						"astId": 69,
						"contract": "contracts/BusinessConsensus3.sol:BusinessConsensus3",
						"label": "Voters",
						"offset": 0,
						"slot": "11",
						"type": "t_mapping(t_bytes32,t_array(t_struct(Voter)8_storage)dyn_storage)"
					},
					{
						"astId": 74,
						"contract": "contracts/BusinessConsensus3.sol:BusinessConsensus3",
						"label": "keys",
						"offset": 0,
						"slot": "12",
						"type": "t_mapping(t_bytes32,t_array(t_address)dyn_storage)"
					}
				],
				"types": {
					"t_address": {
						"encoding": "inplace",
						"label": "address",
						"numberOfBytes": "20"
					},
					"t_array(t_address)dyn_storage": {
						"base": "t_address",
						"encoding": "dynamic_array",
						"label": "address[]",
						"numberOfBytes": "32"
					},
					"t_array(t_struct(Voter)8_storage)dyn_storage": {
						"base": "t_struct(Voter)8_storage",
						"encoding": "dynamic_array",
						"label": "struct BusinessConsensus3.Voter[]",
						"numberOfBytes": "32"
					},
					"t_bool": {
						"encoding": "inplace",
						"label": "bool",
						"numberOfBytes": "1"
					},
					"t_bytes32": {
						"encoding": "inplace",
						"label": "bytes32",
						"numberOfBytes": "32"
					},
					"t_mapping(t_address,t_struct(Voter)8_storage)": {
						"encoding": "mapping",
						"key": "t_address",
						"label": "mapping(address => struct BusinessConsensus3.Voter)",
						"numberOfBytes": "32",
						"value": "t_struct(Voter)8_storage"
					},
					"t_mapping(t_bytes32,t_address)": {
						"encoding": "mapping",
						"key": "t_bytes32",
						"label": "mapping(bytes32 => address)",
						"numberOfBytes": "32",
						"value": "t_address"
					},
					"t_mapping(t_bytes32,t_array(t_address)dyn_storage)": {
						"encoding": "mapping",
						"key": "t_bytes32",
						"label": "mapping(bytes32 => address[])",
						"numberOfBytes": "32",
						"value": "t_array(t_address)dyn_storage"
					},
					"t_mapping(t_bytes32,t_array(t_struct(Voter)8_storage)dyn_storage)": {
						"encoding": "mapping",
						"key": "t_bytes32",
						"label": "mapping(bytes32 => struct BusinessConsensus3.Voter[])",
						"numberOfBytes": "32",
						"value": "t_array(t_struct(Voter)8_storage)dyn_storage"
					},
					"t_mapping(t_bytes32,t_bool)": {
						"encoding": "mapping",
						"key": "t_bytes32",
						"label": "mapping(bytes32 => bool)",
						"numberOfBytes": "32",
						"value": "t_bool"
					},
					"t_mapping(t_bytes32,t_bytes32)": {
						"encoding": "mapping",
						"key": "t_bytes32",
						"label": "mapping(bytes32 => bytes32)",
						"numberOfBytes": "32",
						"value": "t_bytes32"
					},
					"t_mapping(t_bytes32,t_mapping(t_address,t_struct(Voter)8_storage))": {
						"encoding": "mapping",
						"key": "t_bytes32",
						"label": "mapping(bytes32 => mapping(address => struct BusinessConsensus3.Voter))",
						"numberOfBytes": "32",
						"value": "t_mapping(t_address,t_struct(Voter)8_storage)"
					},
					"t_mapping(t_bytes32,t_string_storage)": {
						"encoding": "mapping",
						"key": "t_bytes32",
						"label": "mapping(bytes32 => string)",
						"numberOfBytes": "32",
						"value": "t_string_storage"
					},
					"t_mapping(t_bytes32,t_struct(Proposal)15_storage)": {
						"encoding": "mapping",
						"key": "t_bytes32",
						"label": "mapping(bytes32 => struct BusinessConsensus3.Proposal)",
						"numberOfBytes": "32",
						"value": "t_struct(Proposal)15_storage"
					},
					"t_mapping(t_bytes32,t_uint256)": {
						"encoding": "mapping",
						"key": "t_bytes32",
						"label": "mapping(bytes32 => uint256)",
						"numberOfBytes": "32",
						"value": "t_uint256"
					},
					"t_string_storage": {
						"encoding": "bytes",
						"label": "string",
						"numberOfBytes": "32"
					},
					"t_struct(Proposal)15_storage": {
						"encoding": "inplace",
						"label": "struct BusinessConsensus3.Proposal",
						"members": [
							{
								"astId": 10,
								"contract": "contracts/BusinessConsensus3.sol:BusinessConsensus3",
								"label": "voteCount",
								"offset": 0,
								"slot": "0",
								"type": "t_uint256"
							},
							{
								"astId": 12,
								"contract": "contracts/BusinessConsensus3.sol:BusinessConsensus3",
								"label": "expiryDate",
								"offset": 0,
								"slot": "1",
								"type": "t_uint256"
							},
							{
								"astId": 14,
								"contract": "contracts/BusinessConsensus3.sol:BusinessConsensus3",
								"label": "BusinessRequirement",
								"offset": 0,
								"slot": "2",
								"type": "t_uint256"
							}
						],
						"numberOfBytes": "96"
					},
					"t_struct(Voter)8_storage": {
						"encoding": "inplace",
						"label": "struct BusinessConsensus3.Voter",
						"members": [
							{
								"astId": 3,
								"contract": "contracts/BusinessConsensus3.sol:BusinessConsensus3",
								"label": "voted",
								"offset": 0,
								"slot": "0",
								"type": "t_bool"
							},
							{
								"astId": 5,
								"contract": "contracts/BusinessConsensus3.sol:BusinessConsensus3",
								"label": "vote",
								"offset": 1,
								"slot": "0",
								"type": "t_bool"
							},
							{
								"astId": 7,
								"contract": "contracts/BusinessConsensus3.sol:BusinessConsensus3",
								"label": "recipient",
								"offset": 2,
								"slot": "0",
								"type": "t_address"
							}
						],
						"numberOfBytes": "32"
					},
					"t_uint256": {
						"encoding": "inplace",
						"label": "uint256",
						"numberOfBytes": "32"
					}
				}
			},
			"userdoc": {
				"kind": "user",
				"methods": {
					"Consensus(bytes32)": {
						"notice": "compile all relevant information into a Bundle"
					}
				},
				"version": 1
			}
		}
	}
}