{
	"contracts/BusinessConsensus.sol": {
		"BusinessConsensus": {
			"abi": [
				{
					"inputs": [
						{
							"internalType": "string",
							"name": "_messageID",
							"type": "string"
						},
						{
							"internalType": "uint256",
							"name": "expiry",
							"type": "uint256"
						},
						{
							"internalType": "uint256",
							"name": "requiredPercentage",
							"type": "uint256"
						},
						{
							"internalType": "bytes32",
							"name": "contents",
							"type": "bytes32"
						},
						{
							"internalType": "string",
							"name": "subject",
							"type": "string"
						},
						{
							"internalType": "string",
							"name": "_messageDate",
							"type": "string"
						}
					],
					"stateMutability": "nonpayable",
					"type": "constructor"
				},
				{
					"inputs": [],
					"name": "BusinessRequirement",
					"outputs": [
						{
							"internalType": "uint256",
							"name": "",
							"type": "uint256"
						}
					],
					"stateMutability": "view",
					"type": "function"
				},
				{
					"inputs": [],
					"name": "Consensus",
					"outputs": [],
					"stateMutability": "nonpayable",
					"type": "function"
				},
				{
					"inputs": [
						{
							"internalType": "address",
							"name": "voter",
							"type": "address"
						}
					],
					"name": "RegisterVoter",
					"outputs": [],
					"stateMutability": "nonpayable",
					"type": "function"
				},
				{
					"inputs": [
						{
							"internalType": "string",
							"name": "response",
							"type": "string"
						}
					],
					"name": "Vote",
					"outputs": [],
					"stateMutability": "nonpayable",
					"type": "function"
				},
				{
					"inputs": [
						{
							"internalType": "string",
							"name": "_subject",
							"type": "string"
						},
						{
							"internalType": "uint256",
							"name": "_businessRequirement",
							"type": "uint256"
						},
						{
							"internalType": "uint256",
							"name": "_expiryLength",
							"type": "uint256"
						},
						{
							"internalType": "bytes32",
							"name": "_contents",
							"type": "bytes32"
						}
					],
					"name": "checkConsistency",
					"outputs": [
						{
							"internalType": "bool",
							"name": "",
							"type": "bool"
						},
						{
							"internalType": "bool",
							"name": "",
							"type": "bool"
						},
						{
							"internalType": "bool",
							"name": "",
							"type": "bool"
						}
					],
					"stateMutability": "view",
					"type": "function"
				},
				{
					"inputs": [],
					"name": "contractAddress",
					"outputs": [
						{
							"internalType": "address",
							"name": "",
							"type": "address"
						}
					],
					"stateMutability": "view",
					"type": "function"
				},
				{
					"inputs": [],
					"name": "getIsCompiled",
					"outputs": [
						{
							"internalType": "bool",
							"name": "",
							"type": "bool"
						}
					],
					"stateMutability": "view",
					"type": "function"
				},
				{
					"inputs": [],
					"name": "getParameters",
					"outputs": [
						{
							"internalType": "string",
							"name": "",
							"type": "string"
						},
						{
							"internalType": "uint256",
							"name": "",
							"type": "uint256"
						},
						{
							"internalType": "uint256",
							"name": "",
							"type": "uint256"
						}
					],
					"stateMutability": "view",
					"type": "function"
				},
				{
					"inputs": [
						{
							"internalType": "address",
							"name": "test_address",
							"type": "address"
						}
					],
					"name": "getParameters2",
					"outputs": [
						{
							"internalType": "bool",
							"name": "",
							"type": "bool"
						},
						{
							"internalType": "bool",
							"name": "",
							"type": "bool"
						},
						{
							"internalType": "address",
							"name": "",
							"type": "address"
						}
					],
					"stateMutability": "view",
					"type": "function"
				},
				{
					"inputs": [],
					"name": "getValues",
					"outputs": [
						{
							"internalType": "string",
							"name": "",
							"type": "string"
						}
					],
					"stateMutability": "view",
					"type": "function"
				},
				{
					"inputs": [],
					"name": "initiator",
					"outputs": [
						{
							"internalType": "address",
							"name": "",
							"type": "address"
						}
					],
					"stateMutability": "view",
					"type": "function"
				},
				{
					"inputs": [
						{
							"internalType": "uint256",
							"name": "",
							"type": "uint256"
						}
					],
					"name": "keys",
					"outputs": [
						{
							"internalType": "address",
							"name": "",
							"type": "address"
						}
					],
					"stateMutability": "view",
					"type": "function"
				},
				{
					"inputs": [],
					"name": "numApprovals",
					"outputs": [
						{
							"internalType": "uint256",
							"name": "",
							"type": "uint256"
						}
					],
					"stateMutability": "view",
					"type": "function"
				},
				{
					"inputs": [],
					"name": "proposal",
					"outputs": [
						{
							"internalType": "uint256",
							"name": "voteCount",
							"type": "uint256"
						},
						{
							"internalType": "string",
							"name": "messageID",
							"type": "string"
						},
						{
							"internalType": "string",
							"name": "messageDate",
							"type": "string"
						},
						{
							"internalType": "string",
							"name": "subject",
							"type": "string"
						},
						{
							"internalType": "bytes32",
							"name": "contents",
							"type": "bytes32"
						},
						{
							"internalType": "uint256",
							"name": "expiryLength",
							"type": "uint256"
						}
					],
					"stateMutability": "view",
					"type": "function"
				},
				{
					"inputs": [],
					"name": "retrieve_bundle",
					"outputs": [
						{
							"internalType": "bytes32",
							"name": "",
							"type": "bytes32"
						},
						{
							"components": [
								{
									"internalType": "uint256",
									"name": "voteCount",
									"type": "uint256"
								},
								{
									"internalType": "string",
									"name": "messageID",
									"type": "string"
								},
								{
									"internalType": "string",
									"name": "messageDate",
									"type": "string"
								},
								{
									"internalType": "string",
									"name": "subject",
									"type": "string"
								},
								{
									"internalType": "bytes32",
									"name": "contents",
									"type": "bytes32"
								},
								{
									"internalType": "uint256",
									"name": "expiryLength",
									"type": "uint256"
								}
							],
							"internalType": "struct BusinessConsensus.Proposal",
							"name": "",
							"type": "tuple"
						},
						{
							"components": [
								{
									"internalType": "bool",
									"name": "voted",
									"type": "bool"
								},
								{
									"internalType": "bool",
									"name": "vote",
									"type": "bool"
								},
								{
									"internalType": "address",
									"name": "recipient",
									"type": "address"
								}
							],
							"internalType": "struct BusinessConsensus.Voter[]",
							"name": "",
							"type": "tuple[]"
						}
					],
					"stateMutability": "view",
					"type": "function"
				},
				{
					"inputs": [
						{
							"internalType": "uint256",
							"name": "",
							"type": "uint256"
						}
					],
					"name": "voters",
					"outputs": [
						{
							"internalType": "bool",
							"name": "voted",
							"type": "bool"
						},
						{
							"internalType": "bool",
							"name": "vote",
							"type": "bool"
						},
						{
							"internalType": "address",
							"name": "recipient",
							"type": "address"
						}
					],
					"stateMutability": "view",
					"type": "function"
				},
				{
					"inputs": [
						{
							"internalType": "address",
							"name": "",
							"type": "address"
						}
					],
					"name": "voters_map",
					"outputs": [
						{
							"internalType": "bool",
							"name": "voted",
							"type": "bool"
						},
						{
							"internalType": "bool",
							"name": "vote",
							"type": "bool"
						},
						{
							"internalType": "address",
							"name": "recipient",
							"type": "address"
						}
					],
					"stateMutability": "view",
					"type": "function"
				}
			],
			"devdoc": {
				"kind": "dev",
				"methods": {},
				"version": 1
			},
			"evm": {
				"assembly": "    /* \"contracts/BusinessConsensus.sol\":33:6311  contract BusinessConsensus{\r... */\n  mstore(0x40, 0x80)\n    /* \"contracts/BusinessConsensus.sol\":1251:2028  constructor(string memory _messageID, uint256 expiry, uint256 requiredPercentage,bytes32 contents,string memory subject,string memory _messageDate){\r... */\n  callvalue\n  dup1\n  iszero\n  tag_1\n  jumpi\n  0x00\n  dup1\n  revert\ntag_1:\n  pop\n  mload(0x40)\n  sub(codesize, bytecodeSize)\n  dup1\n  bytecodeSize\n  dup4\n  codecopy\n  dup2\n  dup2\n  add\n  0x40\n  mstore\n  dup2\n  add\n  swap1\n  tag_2\n  swap2\n  swap1\n  tag_3\n  jump\t// in\ntag_2:\n    /* \"contracts/BusinessConsensus.sol\":1421:1431  msg.sender */\n  caller\n    /* \"contracts/BusinessConsensus.sol\":1409:1418  initiator */\n  0x01\n  0x00\n    /* \"contracts/BusinessConsensus.sol\":1409:1431  initiator = msg.sender */\n  0x0100\n  exp\n  dup2\n  sload\n  dup2\n  0xffffffffffffffffffffffffffffffffffffffff\n  mul\n  not\n  and\n  swap1\n  dup4\n  0xffffffffffffffffffffffffffffffffffffffff\n  and\n  mul\n  or\n  swap1\n  sstore\n  pop\n    /* \"contracts/BusinessConsensus.sol\":1473:1479  expiry */\n  dup5\n    /* \"contracts/BusinessConsensus.sol\":1455:1470  block.timestamp */\n  timestamp\n    /* \"contracts/BusinessConsensus.sol\":1455:1479  block.timestamp + expiry */\n  tag_6\n  swap2\n  swap1\n  tag_7\n  jump\t// in\ntag_6:\n    /* \"contracts/BusinessConsensus.sol\":1442:1452  expiryDate */\n  0x03\n    /* \"contracts/BusinessConsensus.sol\":1442:1479  expiryDate = block.timestamp + expiry */\n  dup2\n  swap1\n  sstore\n  pop\n    /* \"contracts/BusinessConsensus.sol\":1512:1530  requiredPercentage */\n  dup4\n    /* \"contracts/BusinessConsensus.sol\":1490:1509  BusinessRequirement */\n  0x04\n    /* \"contracts/BusinessConsensus.sol\":1490:1530  BusinessRequirement = requiredPercentage */\n  dup2\n  swap1\n  sstore\n  pop\n    /* \"contracts/BusinessConsensus.sol\":1556:1557  0 */\n  0x00\n    /* \"contracts/BusinessConsensus.sol\":1541:1553  numApprovals */\n  0x05\n    /* \"contracts/BusinessConsensus.sol\":1541:1557  numApprovals = 0 */\n  dup2\n  swap1\n  sstore\n  pop\n    /* \"contracts/BusinessConsensus.sol\":1581:1586  false */\n  0x00\n    /* \"contracts/BusinessConsensus.sol\":1568:1578  isCompiled */\n  0x06\n  0x00\n    /* \"contracts/BusinessConsensus.sol\":1568:1586  isCompiled = false */\n  0x0100\n  exp\n  dup2\n  sload\n  dup2\n  0xff\n  mul\n  not\n  and\n  swap1\n  dup4\n  iszero\n  iszero\n  mul\n  or\n  swap1\n  sstore\n  pop\n    /* \"contracts/BusinessConsensus.sol\":1597:1622  finalVerdict = \"Rejected\" */\n  0x52656a6563746564000000000000000000000000000000000000000000000000\n    /* \"contracts/BusinessConsensus.sol\":1597:1609  finalVerdict */\n  0x07\n    /* \"contracts/BusinessConsensus.sol\":1597:1622  finalVerdict = \"Rejected\" */\n  dup2\n  swap1\n  sstore\n  pop\n    /* \"contracts/BusinessConsensus.sol\":1659:1663  this */\n  address\n    /* \"contracts/BusinessConsensus.sol\":1633:1648  contractAddress */\n  0x00\n  dup1\n    /* \"contracts/BusinessConsensus.sol\":1633:1664  contractAddress = address(this) */\n  0x0100\n  exp\n  dup2\n  sload\n  dup2\n  0xffffffffffffffffffffffffffffffffffffffff\n  mul\n  not\n  and\n  swap1\n  dup4\n  0xffffffffffffffffffffffffffffffffffffffff\n  and\n  mul\n  or\n  swap1\n  sstore\n  pop\n    /* \"contracts/BusinessConsensus.sol\":1771:2020  Proposal({\r... */\n  mload(0x40)\n  dup1\n  0xc0\n  add\n  0x40\n  mstore\n  dup1\n    /* \"contracts/BusinessConsensus.sol\":1810:1811  0 */\n  0x00\n    /* \"contracts/BusinessConsensus.sol\":1771:2020  Proposal({\r... */\n  dup2\n  mstore\n  0x20\n  add\n    /* \"contracts/BusinessConsensus.sol\":1841:1851  _messageID */\n  dup8\n    /* \"contracts/BusinessConsensus.sol\":1771:2020  Proposal({\r... */\n  dup2\n  mstore\n  0x20\n  add\n    /* \"contracts/BusinessConsensus.sol\":1882:1894  _messageDate */\n  dup3\n    /* \"contracts/BusinessConsensus.sol\":1771:2020  Proposal({\r... */\n  dup2\n  mstore\n  0x20\n  add\n    /* \"contracts/BusinessConsensus.sol\":1922:1929  subject */\n  dup4\n    /* \"contracts/BusinessConsensus.sol\":1771:2020  Proposal({\r... */\n  dup2\n  mstore\n  0x20\n  add\n    /* \"contracts/BusinessConsensus.sol\":1958:1966  contents */\n  dup5\n    /* \"contracts/BusinessConsensus.sol\":1771:2020  Proposal({\r... */\n  dup2\n  mstore\n  0x20\n  add\n    /* \"contracts/BusinessConsensus.sol\":1998:2004  expiry */\n  dup7\n    /* \"contracts/BusinessConsensus.sol\":1771:2020  Proposal({\r... */\n  dup2\n  mstore\n  pop\n    /* \"contracts/BusinessConsensus.sol\":1760:1768  proposal */\n  0x0a\n    /* \"contracts/BusinessConsensus.sol\":1760:2020  proposal = Proposal({\r... */\n  0x00\n  dup3\n  add\n  mload\n  dup2\n  0x00\n  add\n  sstore\n  0x20\n  dup3\n  add\n  mload\n  dup2\n  0x01\n  add\n  swap1\n  dup1\n  mload\n  swap1\n  0x20\n  add\n  swap1\n  tag_8\n  swap3\n  swap2\n  swap1\n  tag_9\n  jump\t// in\ntag_8:\n  pop\n  0x40\n  dup3\n  add\n  mload\n  dup2\n  0x02\n  add\n  swap1\n  dup1\n  mload\n  swap1\n  0x20\n  add\n  swap1\n  tag_10\n  swap3\n  swap2\n  swap1\n  tag_9\n  jump\t// in\ntag_10:\n  pop\n  0x60\n  dup3\n  add\n  mload\n  dup2\n  0x03\n  add\n  swap1\n  dup1\n  mload\n  swap1\n  0x20\n  add\n  swap1\n  tag_11\n  swap3\n  swap2\n  swap1\n  tag_9\n  jump\t// in\ntag_11:\n  pop\n  0x80\n  dup3\n  add\n  mload\n  dup2\n  0x04\n  add\n  sstore\n  0xa0\n  dup3\n  add\n  mload\n  dup2\n  0x05\n  add\n  sstore\n  swap1\n  pop\n  pop\n    /* \"contracts/BusinessConsensus.sol\":1251:2028  constructor(string memory _messageID, uint256 expiry, uint256 requiredPercentage,bytes32 contents,string memory subject,string memory _messageDate){\r... */\n  pop\n  pop\n  pop\n  pop\n  pop\n  pop\n    /* \"contracts/BusinessConsensus.sol\":33:6311  contract BusinessConsensus{\r... */\n  jump(tag_12)\ntag_9:\n  dup3\n  dup1\n  sload\n  tag_13\n  swap1\n  tag_14\n  jump\t// in\ntag_13:\n  swap1\n  0x00\n  mstore\n  keccak256(0x00, 0x20)\n  swap1\n  0x1f\n  add\n  0x20\n  swap1\n  div\n  dup2\n  add\n  swap3\n  dup3\n  tag_16\n  jumpi\n  0x00\n  dup6\n  sstore\n  jump(tag_15)\ntag_16:\n  dup3\n  0x1f\n  lt\n  tag_17\n  jumpi\n  dup1\n  mload\n  not(0xff)\n  and\n  dup4\n  dup1\n  add\n  or\n  dup6\n  sstore\n  jump(tag_15)\ntag_17:\n  dup3\n  dup1\n  add\n  0x01\n  add\n  dup6\n  sstore\n  dup3\n  iszero\n  tag_15\n  jumpi\n  swap2\n  dup3\n  add\ntag_18:\n  dup3\n  dup2\n  gt\n  iszero\n  tag_19\n  jumpi\n  dup3\n  mload\n  dup3\n  sstore\n  swap2\n  0x20\n  add\n  swap2\n  swap1\n  0x01\n  add\n  swap1\n  jump(tag_18)\ntag_19:\ntag_15:\n  pop\n  swap1\n  pop\n  tag_20\n  swap2\n  swap1\n  tag_21\n  jump\t// in\ntag_20:\n  pop\n  swap1\n  jump\t// out\ntag_21:\ntag_22:\n  dup1\n  dup3\n  gt\n  iszero\n  tag_23\n  jumpi\n  0x00\n  dup2\n  0x00\n  swap1\n  sstore\n  pop\n  0x01\n  add\n  jump(tag_22)\ntag_23:\n  pop\n  swap1\n  jump\t// out\n    /* \"#utility.yul\":7:428   */\ntag_25:\n    /* \"#utility.yul\":96:101   */\n  0x00\n    /* \"#utility.yul\":121:187   */\n  tag_27\n    /* \"#utility.yul\":137:186   */\n  tag_28\n    /* \"#utility.yul\":179:185   */\n  dup5\n    /* \"#utility.yul\":137:186   */\n  tag_29\n  jump\t// in\ntag_28:\n    /* \"#utility.yul\":121:187   */\n  tag_30\n  jump\t// in\ntag_27:\n    /* \"#utility.yul\":112:187   */\n  swap1\n  pop\n    /* \"#utility.yul\":210:216   */\n  dup3\n    /* \"#utility.yul\":203:208   */\n  dup2\n    /* \"#utility.yul\":196:217   */\n  mstore\n    /* \"#utility.yul\":248:252   */\n  0x20\n    /* \"#utility.yul\":241:246   */\n  dup2\n    /* \"#utility.yul\":237:253   */\n  add\n    /* \"#utility.yul\":286:289   */\n  dup5\n    /* \"#utility.yul\":277:283   */\n  dup5\n    /* \"#utility.yul\":272:275   */\n  dup5\n    /* \"#utility.yul\":268:284   */\n  add\n    /* \"#utility.yul\":265:290   */\n  gt\n    /* \"#utility.yul\":262:374   */\n  iszero\n  tag_31\n  jumpi\n    /* \"#utility.yul\":293:372   */\n  tag_32\n  tag_33\n  jump\t// in\ntag_32:\n    /* \"#utility.yul\":262:374   */\ntag_31:\n    /* \"#utility.yul\":383:422   */\n  tag_34\n    /* \"#utility.yul\":415:421   */\n  dup5\n    /* \"#utility.yul\":410:413   */\n  dup3\n    /* \"#utility.yul\":405:408   */\n  dup6\n    /* \"#utility.yul\":383:422   */\n  tag_35\n  jump\t// in\ntag_34:\n    /* \"#utility.yul\":102:428   */\n  pop\n    /* \"#utility.yul\":7:428   */\n  swap4\n  swap3\n  pop\n  pop\n  pop\n  jump\t// out\n    /* \"#utility.yul\":434:577   */\ntag_36:\n    /* \"#utility.yul\":491:496   */\n  0x00\n    /* \"#utility.yul\":522:528   */\n  dup2\n    /* \"#utility.yul\":516:529   */\n  mload\n    /* \"#utility.yul\":507:529   */\n  swap1\n  pop\n    /* \"#utility.yul\":538:571   */\n  tag_38\n    /* \"#utility.yul\":565:570   */\n  dup2\n    /* \"#utility.yul\":538:571   */\n  tag_39\n  jump\t// in\ntag_38:\n    /* \"#utility.yul\":434:577   */\n  swap3\n  swap2\n  pop\n  pop\n  jump\t// out\n    /* \"#utility.yul\":597:952   */\ntag_40:\n    /* \"#utility.yul\":664:669   */\n  0x00\n    /* \"#utility.yul\":713:716   */\n  dup3\n    /* \"#utility.yul\":706:710   */\n  0x1f\n    /* \"#utility.yul\":698:704   */\n  dup4\n    /* \"#utility.yul\":694:711   */\n  add\n    /* \"#utility.yul\":690:717   */\n  slt\n    /* \"#utility.yul\":680:802   */\n  tag_42\n  jumpi\n    /* \"#utility.yul\":721:800   */\n  tag_43\n  tag_44\n  jump\t// in\ntag_43:\n    /* \"#utility.yul\":680:802   */\ntag_42:\n    /* \"#utility.yul\":831:837   */\n  dup2\n    /* \"#utility.yul\":825:838   */\n  mload\n    /* \"#utility.yul\":856:946   */\n  tag_45\n    /* \"#utility.yul\":942:945   */\n  dup5\n    /* \"#utility.yul\":934:940   */\n  dup3\n    /* \"#utility.yul\":927:931   */\n  0x20\n    /* \"#utility.yul\":919:925   */\n  dup7\n    /* \"#utility.yul\":915:932   */\n  add\n    /* \"#utility.yul\":856:946   */\n  tag_25\n  jump\t// in\ntag_45:\n    /* \"#utility.yul\":847:946   */\n  swap2\n  pop\n    /* \"#utility.yul\":670:952   */\n  pop\n    /* \"#utility.yul\":597:952   */\n  swap3\n  swap2\n  pop\n  pop\n  jump\t// out\n    /* \"#utility.yul\":958:1101   */\ntag_46:\n    /* \"#utility.yul\":1015:1020   */\n  0x00\n    /* \"#utility.yul\":1046:1052   */\n  dup2\n    /* \"#utility.yul\":1040:1053   */\n  mload\n    /* \"#utility.yul\":1031:1053   */\n  swap1\n  pop\n    /* \"#utility.yul\":1062:1095   */\n  tag_48\n    /* \"#utility.yul\":1089:1094   */\n  dup2\n    /* \"#utility.yul\":1062:1095   */\n  tag_49\n  jump\t// in\ntag_48:\n    /* \"#utility.yul\":958:1101   */\n  swap3\n  swap2\n  pop\n  pop\n  jump\t// out\n    /* \"#utility.yul\":1107:2760   */\ntag_3:\n    /* \"#utility.yul\":1252:1258   */\n  0x00\n    /* \"#utility.yul\":1260:1266   */\n  dup1\n    /* \"#utility.yul\":1268:1274   */\n  0x00\n    /* \"#utility.yul\":1276:1282   */\n  dup1\n    /* \"#utility.yul\":1284:1290   */\n  0x00\n    /* \"#utility.yul\":1292:1298   */\n  dup1\n    /* \"#utility.yul\":1341:1344   */\n  0xc0\n    /* \"#utility.yul\":1329:1338   */\n  dup8\n    /* \"#utility.yul\":1320:1327   */\n  dup10\n    /* \"#utility.yul\":1316:1339   */\n  sub\n    /* \"#utility.yul\":1312:1345   */\n  slt\n    /* \"#utility.yul\":1309:1429   */\n  iszero\n  tag_51\n  jumpi\n    /* \"#utility.yul\":1348:1427   */\n  tag_52\n  tag_53\n  jump\t// in\ntag_52:\n    /* \"#utility.yul\":1309:1429   */\ntag_51:\n    /* \"#utility.yul\":1489:1490   */\n  0x00\n    /* \"#utility.yul\":1478:1487   */\n  dup8\n    /* \"#utility.yul\":1474:1491   */\n  add\n    /* \"#utility.yul\":1468:1492   */\n  mload\n    /* \"#utility.yul\":1519:1537   */\n  0xffffffffffffffff\n    /* \"#utility.yul\":1511:1517   */\n  dup2\n    /* \"#utility.yul\":1508:1538   */\n  gt\n    /* \"#utility.yul\":1505:1622   */\n  iszero\n  tag_54\n  jumpi\n    /* \"#utility.yul\":1541:1620   */\n  tag_55\n  tag_56\n  jump\t// in\ntag_55:\n    /* \"#utility.yul\":1505:1622   */\ntag_54:\n    /* \"#utility.yul\":1646:1720   */\n  tag_57\n    /* \"#utility.yul\":1712:1719   */\n  dup10\n    /* \"#utility.yul\":1703:1709   */\n  dup3\n    /* \"#utility.yul\":1692:1701   */\n  dup11\n    /* \"#utility.yul\":1688:1710   */\n  add\n    /* \"#utility.yul\":1646:1720   */\n  tag_40\n  jump\t// in\ntag_57:\n    /* \"#utility.yul\":1636:1720   */\n  swap7\n  pop\n    /* \"#utility.yul\":1439:1730   */\n  pop\n    /* \"#utility.yul\":1769:1771   */\n  0x20\n    /* \"#utility.yul\":1795:1859   */\n  tag_58\n    /* \"#utility.yul\":1851:1858   */\n  dup10\n    /* \"#utility.yul\":1842:1848   */\n  dup3\n    /* \"#utility.yul\":1831:1840   */\n  dup11\n    /* \"#utility.yul\":1827:1849   */\n  add\n    /* \"#utility.yul\":1795:1859   */\n  tag_46\n  jump\t// in\ntag_58:\n    /* \"#utility.yul\":1785:1859   */\n  swap6\n  pop\n    /* \"#utility.yul\":1740:1869   */\n  pop\n    /* \"#utility.yul\":1908:1910   */\n  0x40\n    /* \"#utility.yul\":1934:1998   */\n  tag_59\n    /* \"#utility.yul\":1990:1997   */\n  dup10\n    /* \"#utility.yul\":1981:1987   */\n  dup3\n    /* \"#utility.yul\":1970:1979   */\n  dup11\n    /* \"#utility.yul\":1966:1988   */\n  add\n    /* \"#utility.yul\":1934:1998   */\n  tag_46\n  jump\t// in\ntag_59:\n    /* \"#utility.yul\":1924:1998   */\n  swap5\n  pop\n    /* \"#utility.yul\":1879:2008   */\n  pop\n    /* \"#utility.yul\":2047:2049   */\n  0x60\n    /* \"#utility.yul\":2073:2137   */\n  tag_60\n    /* \"#utility.yul\":2129:2136   */\n  dup10\n    /* \"#utility.yul\":2120:2126   */\n  dup3\n    /* \"#utility.yul\":2109:2118   */\n  dup11\n    /* \"#utility.yul\":2105:2127   */\n  add\n    /* \"#utility.yul\":2073:2137   */\n  tag_36\n  jump\t// in\ntag_60:\n    /* \"#utility.yul\":2063:2137   */\n  swap4\n  pop\n    /* \"#utility.yul\":2018:2147   */\n  pop\n    /* \"#utility.yul\":2207:2210   */\n  0x80\n    /* \"#utility.yul\":2196:2205   */\n  dup8\n    /* \"#utility.yul\":2192:2211   */\n  add\n    /* \"#utility.yul\":2186:2212   */\n  mload\n    /* \"#utility.yul\":2239:2257   */\n  0xffffffffffffffff\n    /* \"#utility.yul\":2231:2237   */\n  dup2\n    /* \"#utility.yul\":2228:2258   */\n  gt\n    /* \"#utility.yul\":2225:2342   */\n  iszero\n  tag_61\n  jumpi\n    /* \"#utility.yul\":2261:2340   */\n  tag_62\n  tag_56\n  jump\t// in\ntag_62:\n    /* \"#utility.yul\":2225:2342   */\ntag_61:\n    /* \"#utility.yul\":2366:2440   */\n  tag_63\n    /* \"#utility.yul\":2432:2439   */\n  dup10\n    /* \"#utility.yul\":2423:2429   */\n  dup3\n    /* \"#utility.yul\":2412:2421   */\n  dup11\n    /* \"#utility.yul\":2408:2430   */\n  add\n    /* \"#utility.yul\":2366:2440   */\n  tag_40\n  jump\t// in\ntag_63:\n    /* \"#utility.yul\":2356:2440   */\n  swap3\n  pop\n    /* \"#utility.yul\":2157:2450   */\n  pop\n    /* \"#utility.yul\":2510:2513   */\n  0xa0\n    /* \"#utility.yul\":2499:2508   */\n  dup8\n    /* \"#utility.yul\":2495:2514   */\n  add\n    /* \"#utility.yul\":2489:2515   */\n  mload\n    /* \"#utility.yul\":2542:2560   */\n  0xffffffffffffffff\n    /* \"#utility.yul\":2534:2540   */\n  dup2\n    /* \"#utility.yul\":2531:2561   */\n  gt\n    /* \"#utility.yul\":2528:2645   */\n  iszero\n  tag_64\n  jumpi\n    /* \"#utility.yul\":2564:2643   */\n  tag_65\n  tag_56\n  jump\t// in\ntag_65:\n    /* \"#utility.yul\":2528:2645   */\ntag_64:\n    /* \"#utility.yul\":2669:2743   */\n  tag_66\n    /* \"#utility.yul\":2735:2742   */\n  dup10\n    /* \"#utility.yul\":2726:2732   */\n  dup3\n    /* \"#utility.yul\":2715:2724   */\n  dup11\n    /* \"#utility.yul\":2711:2733   */\n  add\n    /* \"#utility.yul\":2669:2743   */\n  tag_40\n  jump\t// in\ntag_66:\n    /* \"#utility.yul\":2659:2743   */\n  swap2\n  pop\n    /* \"#utility.yul\":2460:2753   */\n  pop\n    /* \"#utility.yul\":1107:2760   */\n  swap3\n  swap6\n  pop\n  swap3\n  swap6\n  pop\n  swap3\n  swap6\n  jump\t// out\n    /* \"#utility.yul\":2766:2895   */\ntag_30:\n    /* \"#utility.yul\":2800:2806   */\n  0x00\n    /* \"#utility.yul\":2827:2847   */\n  tag_68\n  tag_69\n  jump\t// in\ntag_68:\n    /* \"#utility.yul\":2817:2847   */\n  swap1\n  pop\n    /* \"#utility.yul\":2856:2889   */\n  tag_70\n    /* \"#utility.yul\":2884:2888   */\n  dup3\n    /* \"#utility.yul\":2876:2882   */\n  dup3\n    /* \"#utility.yul\":2856:2889   */\n  tag_71\n  jump\t// in\ntag_70:\n    /* \"#utility.yul\":2766:2895   */\n  swap2\n  swap1\n  pop\n  jump\t// out\n    /* \"#utility.yul\":2901:2976   */\ntag_69:\n    /* \"#utility.yul\":2934:2940   */\n  0x00\n    /* \"#utility.yul\":2967:2969   */\n  0x40\n    /* \"#utility.yul\":2961:2970   */\n  mload\n    /* \"#utility.yul\":2951:2970   */\n  swap1\n  pop\n    /* \"#utility.yul\":2901:2976   */\n  swap1\n  jump\t// out\n    /* \"#utility.yul\":2982:3290   */\ntag_29:\n    /* \"#utility.yul\":3044:3048   */\n  0x00\n    /* \"#utility.yul\":3134:3152   */\n  0xffffffffffffffff\n    /* \"#utility.yul\":3126:3132   */\n  dup3\n    /* \"#utility.yul\":3123:3153   */\n  gt\n    /* \"#utility.yul\":3120:3176   */\n  iszero\n  tag_74\n  jumpi\n    /* \"#utility.yul\":3156:3174   */\n  tag_75\n  tag_76\n  jump\t// in\ntag_75:\n    /* \"#utility.yul\":3120:3176   */\ntag_74:\n    /* \"#utility.yul\":3194:3223   */\n  tag_77\n    /* \"#utility.yul\":3216:3222   */\n  dup3\n    /* \"#utility.yul\":3194:3223   */\n  tag_78\n  jump\t// in\ntag_77:\n    /* \"#utility.yul\":3186:3223   */\n  swap1\n  pop\n    /* \"#utility.yul\":3278:3282   */\n  0x20\n    /* \"#utility.yul\":3272:3276   */\n  dup2\n    /* \"#utility.yul\":3268:3283   */\n  add\n    /* \"#utility.yul\":3260:3283   */\n  swap1\n  pop\n    /* \"#utility.yul\":2982:3290   */\n  swap2\n  swap1\n  pop\n  jump\t// out\n    /* \"#utility.yul\":3296:3601   */\ntag_7:\n    /* \"#utility.yul\":3336:3339   */\n  0x00\n    /* \"#utility.yul\":3355:3375   */\n  tag_80\n    /* \"#utility.yul\":3373:3374   */\n  dup3\n    /* \"#utility.yul\":3355:3375   */\n  tag_81\n  jump\t// in\ntag_80:\n    /* \"#utility.yul\":3350:3375   */\n  swap2\n  pop\n    /* \"#utility.yul\":3389:3409   */\n  tag_82\n    /* \"#utility.yul\":3407:3408   */\n  dup4\n    /* \"#utility.yul\":3389:3409   */\n  tag_81\n  jump\t// in\ntag_82:\n    /* \"#utility.yul\":3384:3409   */\n  swap3\n  pop\n    /* \"#utility.yul\":3543:3544   */\n  dup3\n    /* \"#utility.yul\":3475:3541   */\n  0xffffffffffffffffffffffffffffffffffffffffffffffffffffffffffffffff\n    /* \"#utility.yul\":3471:3545   */\n  sub\n    /* \"#utility.yul\":3468:3469   */\n  dup3\n    /* \"#utility.yul\":3465:3546   */\n  gt\n    /* \"#utility.yul\":3462:3569   */\n  iszero\n  tag_83\n  jumpi\n    /* \"#utility.yul\":3549:3567   */\n  tag_84\n  tag_85\n  jump\t// in\ntag_84:\n    /* \"#utility.yul\":3462:3569   */\ntag_83:\n    /* \"#utility.yul\":3593:3594   */\n  dup3\n    /* \"#utility.yul\":3590:3591   */\n  dup3\n    /* \"#utility.yul\":3586:3595   */\n  add\n    /* \"#utility.yul\":3579:3595   */\n  swap1\n  pop\n    /* \"#utility.yul\":3296:3601   */\n  swap3\n  swap2\n  pop\n  pop\n  jump\t// out\n    /* \"#utility.yul\":3607:3684   */\ntag_86:\n    /* \"#utility.yul\":3644:3651   */\n  0x00\n    /* \"#utility.yul\":3673:3678   */\n  dup2\n    /* \"#utility.yul\":3662:3678   */\n  swap1\n  pop\n    /* \"#utility.yul\":3607:3684   */\n  swap2\n  swap1\n  pop\n  jump\t// out\n    /* \"#utility.yul\":3690:3767   */\ntag_81:\n    /* \"#utility.yul\":3727:3734   */\n  0x00\n    /* \"#utility.yul\":3756:3761   */\n  dup2\n    /* \"#utility.yul\":3745:3761   */\n  swap1\n  pop\n    /* \"#utility.yul\":3690:3767   */\n  swap2\n  swap1\n  pop\n  jump\t// out\n    /* \"#utility.yul\":3773:4080   */\ntag_35:\n    /* \"#utility.yul\":3841:3842   */\n  0x00\n    /* \"#utility.yul\":3851:3964   */\ntag_90:\n    /* \"#utility.yul\":3865:3871   */\n  dup4\n    /* \"#utility.yul\":3862:3863   */\n  dup2\n    /* \"#utility.yul\":3859:3872   */\n  lt\n    /* \"#utility.yul\":3851:3964   */\n  iszero\n  tag_92\n  jumpi\n    /* \"#utility.yul\":3950:3951   */\n  dup1\n    /* \"#utility.yul\":3945:3948   */\n  dup3\n    /* \"#utility.yul\":3941:3952   */\n  add\n    /* \"#utility.yul\":3935:3953   */\n  mload\n    /* \"#utility.yul\":3931:3932   */\n  dup2\n    /* \"#utility.yul\":3926:3929   */\n  dup5\n    /* \"#utility.yul\":3922:3933   */\n  add\n    /* \"#utility.yul\":3915:3954   */\n  mstore\n    /* \"#utility.yul\":3887:3889   */\n  0x20\n    /* \"#utility.yul\":3884:3885   */\n  dup2\n    /* \"#utility.yul\":3880:3890   */\n  add\n    /* \"#utility.yul\":3875:3890   */\n  swap1\n  pop\n    /* \"#utility.yul\":3851:3964   */\n  jump(tag_90)\ntag_92:\n    /* \"#utility.yul\":3982:3988   */\n  dup4\n    /* \"#utility.yul\":3979:3980   */\n  dup2\n    /* \"#utility.yul\":3976:3989   */\n  gt\n    /* \"#utility.yul\":3973:4074   */\n  iszero\n  tag_93\n  jumpi\n    /* \"#utility.yul\":4062:4063   */\n  0x00\n    /* \"#utility.yul\":4053:4059   */\n  dup5\n    /* \"#utility.yul\":4048:4051   */\n  dup5\n    /* \"#utility.yul\":4044:4060   */\n  add\n    /* \"#utility.yul\":4037:4064   */\n  mstore\n    /* \"#utility.yul\":3973:4074   */\ntag_93:\n    /* \"#utility.yul\":3822:4080   */\n  pop\n    /* \"#utility.yul\":3773:4080   */\n  pop\n  pop\n  pop\n  jump\t// out\n    /* \"#utility.yul\":4086:4406   */\ntag_14:\n    /* \"#utility.yul\":4130:4136   */\n  0x00\n    /* \"#utility.yul\":4167:4168   */\n  0x02\n    /* \"#utility.yul\":4161:4165   */\n  dup3\n    /* \"#utility.yul\":4157:4169   */\n  div\n    /* \"#utility.yul\":4147:4169   */\n  swap1\n  pop\n    /* \"#utility.yul\":4214:4215   */\n  0x01\n    /* \"#utility.yul\":4208:4212   */\n  dup3\n    /* \"#utility.yul\":4204:4216   */\n  and\n    /* \"#utility.yul\":4235:4253   */\n  dup1\n    /* \"#utility.yul\":4225:4306   */\n  tag_95\n  jumpi\n    /* \"#utility.yul\":4291:4295   */\n  0x7f\n    /* \"#utility.yul\":4283:4289   */\n  dup3\n    /* \"#utility.yul\":4279:4296   */\n  and\n    /* \"#utility.yul\":4269:4296   */\n  swap2\n  pop\n    /* \"#utility.yul\":4225:4306   */\ntag_95:\n    /* \"#utility.yul\":4353:4355   */\n  0x20\n    /* \"#utility.yul\":4345:4351   */\n  dup3\n    /* \"#utility.yul\":4342:4356   */\n  lt\n    /* \"#utility.yul\":4322:4340   */\n  dup2\n    /* \"#utility.yul\":4319:4357   */\n  eq\n    /* \"#utility.yul\":4316:4400   */\n  iszero\n  tag_96\n  jumpi\n    /* \"#utility.yul\":4372:4390   */\n  tag_97\n  tag_98\n  jump\t// in\ntag_97:\n    /* \"#utility.yul\":4316:4400   */\ntag_96:\n    /* \"#utility.yul\":4137:4406   */\n  pop\n    /* \"#utility.yul\":4086:4406   */\n  swap2\n  swap1\n  pop\n  jump\t// out\n    /* \"#utility.yul\":4412:4693   */\ntag_71:\n    /* \"#utility.yul\":4495:4522   */\n  tag_100\n    /* \"#utility.yul\":4517:4521   */\n  dup3\n    /* \"#utility.yul\":4495:4522   */\n  tag_78\n  jump\t// in\ntag_100:\n    /* \"#utility.yul\":4487:4493   */\n  dup2\n    /* \"#utility.yul\":4483:4523   */\n  add\n    /* \"#utility.yul\":4625:4631   */\n  dup2\n    /* \"#utility.yul\":4613:4623   */\n  dup2\n    /* \"#utility.yul\":4610:4632   */\n  lt\n    /* \"#utility.yul\":4589:4607   */\n  0xffffffffffffffff\n    /* \"#utility.yul\":4577:4587   */\n  dup3\n    /* \"#utility.yul\":4574:4608   */\n  gt\n    /* \"#utility.yul\":4571:4633   */\n  or\n    /* \"#utility.yul\":4568:4656   */\n  iszero\n  tag_101\n  jumpi\n    /* \"#utility.yul\":4636:4654   */\n  tag_102\n  tag_76\n  jump\t// in\ntag_102:\n    /* \"#utility.yul\":4568:4656   */\ntag_101:\n    /* \"#utility.yul\":4676:4686   */\n  dup1\n    /* \"#utility.yul\":4672:4674   */\n  0x40\n    /* \"#utility.yul\":4665:4687   */\n  mstore\n    /* \"#utility.yul\":4455:4693   */\n  pop\n    /* \"#utility.yul\":4412:4693   */\n  pop\n  pop\n  jump\t// out\n    /* \"#utility.yul\":4699:4879   */\ntag_85:\n    /* \"#utility.yul\":4747:4824   */\n  0x4e487b7100000000000000000000000000000000000000000000000000000000\n    /* \"#utility.yul\":4744:4745   */\n  0x00\n    /* \"#utility.yul\":4737:4825   */\n  mstore\n    /* \"#utility.yul\":4844:4848   */\n  0x11\n    /* \"#utility.yul\":4841:4842   */\n  0x04\n    /* \"#utility.yul\":4834:4849   */\n  mstore\n    /* \"#utility.yul\":4868:4872   */\n  0x24\n    /* \"#utility.yul\":4865:4866   */\n  0x00\n    /* \"#utility.yul\":4858:4873   */\n  revert\n    /* \"#utility.yul\":4885:5065   */\ntag_98:\n    /* \"#utility.yul\":4933:5010   */\n  0x4e487b7100000000000000000000000000000000000000000000000000000000\n    /* \"#utility.yul\":4930:4931   */\n  0x00\n    /* \"#utility.yul\":4923:5011   */\n  mstore\n    /* \"#utility.yul\":5030:5034   */\n  0x22\n    /* \"#utility.yul\":5027:5028   */\n  0x04\n    /* \"#utility.yul\":5020:5035   */\n  mstore\n    /* \"#utility.yul\":5054:5058   */\n  0x24\n    /* \"#utility.yul\":5051:5052   */\n  0x00\n    /* \"#utility.yul\":5044:5059   */\n  revert\n    /* \"#utility.yul\":5071:5251   */\ntag_76:\n    /* \"#utility.yul\":5119:5196   */\n  0x4e487b7100000000000000000000000000000000000000000000000000000000\n    /* \"#utility.yul\":5116:5117   */\n  0x00\n    /* \"#utility.yul\":5109:5197   */\n  mstore\n    /* \"#utility.yul\":5216:5220   */\n  0x41\n    /* \"#utility.yul\":5213:5214   */\n  0x04\n    /* \"#utility.yul\":5206:5221   */\n  mstore\n    /* \"#utility.yul\":5240:5244   */\n  0x24\n    /* \"#utility.yul\":5237:5238   */\n  0x00\n    /* \"#utility.yul\":5230:5245   */\n  revert\n    /* \"#utility.yul\":5257:5374   */\ntag_44:\n    /* \"#utility.yul\":5366:5367   */\n  0x00\n    /* \"#utility.yul\":5363:5364   */\n  dup1\n    /* \"#utility.yul\":5356:5368   */\n  revert\n    /* \"#utility.yul\":5380:5497   */\ntag_33:\n    /* \"#utility.yul\":5489:5490   */\n  0x00\n    /* \"#utility.yul\":5486:5487   */\n  dup1\n    /* \"#utility.yul\":5479:5491   */\n  revert\n    /* \"#utility.yul\":5503:5620   */\ntag_56:\n    /* \"#utility.yul\":5612:5613   */\n  0x00\n    /* \"#utility.yul\":5609:5610   */\n  dup1\n    /* \"#utility.yul\":5602:5614   */\n  revert\n    /* \"#utility.yul\":5626:5743   */\ntag_53:\n    /* \"#utility.yul\":5735:5736   */\n  0x00\n    /* \"#utility.yul\":5732:5733   */\n  dup1\n    /* \"#utility.yul\":5725:5737   */\n  revert\n    /* \"#utility.yul\":5749:5851   */\ntag_78:\n    /* \"#utility.yul\":5790:5796   */\n  0x00\n    /* \"#utility.yul\":5841:5843   */\n  0x1f\n    /* \"#utility.yul\":5837:5844   */\n  not\n    /* \"#utility.yul\":5832:5834   */\n  0x1f\n    /* \"#utility.yul\":5825:5830   */\n  dup4\n    /* \"#utility.yul\":5821:5835   */\n  add\n    /* \"#utility.yul\":5817:5845   */\n  and\n    /* \"#utility.yul\":5807:5845   */\n  swap1\n  pop\n    /* \"#utility.yul\":5749:5851   */\n  swap2\n  swap1\n  pop\n  jump\t// out\n    /* \"#utility.yul\":5857:5979   */\ntag_39:\n    /* \"#utility.yul\":5930:5954   */\n  tag_112\n    /* \"#utility.yul\":5948:5953   */\n  dup2\n    /* \"#utility.yul\":5930:5954   */\n  tag_86\n  jump\t// in\ntag_112:\n    /* \"#utility.yul\":5923:5928   */\n  dup2\n    /* \"#utility.yul\":5920:5955   */\n  eq\n    /* \"#utility.yul\":5910:5973   */\n  tag_113\n  jumpi\n    /* \"#utility.yul\":5969:5970   */\n  0x00\n    /* \"#utility.yul\":5966:5967   */\n  dup1\n    /* \"#utility.yul\":5959:5971   */\n  revert\n    /* \"#utility.yul\":5910:5973   */\ntag_113:\n    /* \"#utility.yul\":5857:5979   */\n  pop\n  jump\t// out\n    /* \"#utility.yul\":5985:6107   */\ntag_49:\n    /* \"#utility.yul\":6058:6082   */\n  tag_115\n    /* \"#utility.yul\":6076:6081   */\n  dup2\n    /* \"#utility.yul\":6058:6082   */\n  tag_81\n  jump\t// in\ntag_115:\n    /* \"#utility.yul\":6051:6056   */\n  dup2\n    /* \"#utility.yul\":6048:6083   */\n  eq\n    /* \"#utility.yul\":6038:6101   */\n  tag_116\n  jumpi\n    /* \"#utility.yul\":6097:6098   */\n  0x00\n    /* \"#utility.yul\":6094:6095   */\n  dup1\n    /* \"#utility.yul\":6087:6099   */\n  revert\n    /* \"#utility.yul\":6038:6101   */\ntag_116:\n    /* \"#utility.yul\":5985:6107   */\n  pop\n  jump\t// out\n    /* \"contracts/BusinessConsensus.sol\":33:6311  contract BusinessConsensus{\r... */\ntag_12:\n  dataSize(sub_0)\n  dup1\n  dataOffset(sub_0)\n  0x00\n  codecopy\n  0x00\n  return\nstop\n\nsub_0: assembly {\n        /* \"contracts/BusinessConsensus.sol\":33:6311  contract BusinessConsensus{\r... */\n      mstore(0x40, 0x80)\n      callvalue\n      dup1\n      iszero\n      tag_1\n      jumpi\n      0x00\n      dup1\n      revert\n    tag_1:\n      pop\n      jumpi(tag_2, lt(calldatasize, 0x04))\n      shr(0xe0, calldataload(0x00))\n      dup1\n      0x760297e9\n      gt\n      tag_20\n      jumpi\n      dup1\n      0x9d6a3125\n      gt\n      tag_21\n      jumpi\n      dup1\n      0x9d6a3125\n      eq\n      tag_15\n      jumpi\n      dup1\n      0xa5ea11da\n      eq\n      tag_16\n      jumpi\n      dup1\n      0xd77aa749\n      eq\n      tag_17\n      jumpi\n      dup1\n      0xda58c7d9\n      eq\n      tag_18\n      jumpi\n      dup1\n      0xf6b4dfb4\n      eq\n      tag_19\n      jumpi\n      jump(tag_2)\n    tag_21:\n      dup1\n      0x760297e9\n      eq\n      tag_11\n      jumpi\n      dup1\n      0x82316745\n      eq\n      tag_12\n      jumpi\n      dup1\n      0x95b02dfa\n      eq\n      tag_13\n      jumpi\n      dup1\n      0x9aa4bbdd\n      eq\n      tag_14\n      jumpi\n      jump(tag_2)\n    tag_20:\n      dup1\n      0x5361a0ea\n      gt\n      tag_22\n      jumpi\n      dup1\n      0x5361a0ea\n      eq\n      tag_7\n      jumpi\n      dup1\n      0x5c39fcc1\n      eq\n      tag_8\n      jumpi\n      dup1\n      0x7403c5e5\n      eq\n      tag_9\n      jumpi\n      dup1\n      0x753ec103\n      eq\n      tag_10\n      jumpi\n      jump(tag_2)\n    tag_22:\n      dup1\n      0x0cb6aaf1\n      eq\n      tag_3\n      jumpi\n      dup1\n      0x15fe6f1b\n      eq\n      tag_4\n      jumpi\n      dup1\n      0x19eb4a90\n      eq\n      tag_5\n      jumpi\n      dup1\n      0x323082d7\n      eq\n      tag_6\n      jumpi\n    tag_2:\n      0x00\n      dup1\n      revert\n        /* \"contracts/BusinessConsensus.sol\":841:862  address[] public keys */\n    tag_3:\n      tag_23\n      0x04\n      dup1\n      calldatasize\n      sub\n      dup2\n      add\n      swap1\n      tag_24\n      swap2\n      swap1\n      tag_25\n      jump\t// in\n    tag_24:\n      tag_26\n      jump\t// in\n    tag_23:\n      mload(0x40)\n      tag_27\n      swap2\n      swap1\n      tag_28\n      jump\t// in\n    tag_27:\n      mload(0x40)\n      dup1\n      swap2\n      sub\n      swap1\n      return\n        /* \"contracts/BusinessConsensus.sol\":3516:4160  function RegisterVoter(address voter) external {\r... */\n    tag_4:\n      tag_29\n      0x04\n      dup1\n      calldatasize\n      sub\n      dup2\n      add\n      swap1\n      tag_30\n      swap2\n      swap1\n      tag_31\n      jump\t// in\n    tag_30:\n      tag_32\n      jump\t// in\n    tag_29:\n      stop\n        /* \"contracts/BusinessConsensus.sol\":2034:2134  function getValues() public view returns (string memory){\r... */\n    tag_5:\n      tag_33\n      tag_34\n      jump\t// in\n    tag_33:\n      mload(0x40)\n      tag_35\n      swap2\n      swap1\n      tag_36\n      jump\t// in\n    tag_35:\n      mload(0x40)\n      dup1\n      swap2\n      sub\n      swap1\n      return\n        /* \"contracts/BusinessConsensus.sol\":4168:5265  function Vote(string memory response) external {\r... */\n    tag_6:\n      tag_37\n      0x04\n      dup1\n      calldatasize\n      sub\n      dup2\n      add\n      swap1\n      tag_38\n      swap2\n      swap1\n      tag_39\n      jump\t// in\n    tag_38:\n      tag_40\n      jump\t// in\n    tag_37:\n      stop\n        /* \"contracts/BusinessConsensus.sol\":2402:2616  function getParameters2(address test_address) external view returns (bool, bool, address){\r... */\n    tag_7:\n      tag_41\n      0x04\n      dup1\n      calldatasize\n      sub\n      dup2\n      add\n      swap1\n      tag_42\n      swap2\n      swap1\n      tag_31\n      jump\t// in\n    tag_42:\n      tag_43\n      jump\t// in\n    tag_41:\n      mload(0x40)\n      tag_44\n      swap4\n      swap3\n      swap2\n      swap1\n      tag_45\n      jump\t// in\n    tag_44:\n      mload(0x40)\n      dup1\n      swap2\n      sub\n      swap1\n      return\n        /* \"contracts/BusinessConsensus.sol\":808:832  address public initiator */\n    tag_8:\n      tag_46\n      tag_47\n      jump\t// in\n    tag_46:\n      mload(0x40)\n      tag_48\n      swap2\n      swap1\n      tag_28\n      jump\t// in\n    tag_48:\n      mload(0x40)\n      dup1\n      swap2\n      sub\n      swap1\n      return\n        /* \"contracts/BusinessConsensus.sol\":958:985  uint256 public numApprovals */\n    tag_9:\n      tag_49\n      tag_50\n      jump\t// in\n    tag_49:\n      mload(0x40)\n      tag_51\n      swap2\n      swap1\n      tag_52\n      jump\t// in\n    tag_51:\n      mload(0x40)\n      dup1\n      swap2\n      sub\n      swap1\n      return\n        /* \"contracts/BusinessConsensus.sol\":1218:1242  Proposal public proposal */\n    tag_10:\n      tag_53\n      tag_54\n      jump\t// in\n    tag_53:\n      mload(0x40)\n      tag_55\n      swap7\n      swap6\n      swap5\n      swap4\n      swap3\n      swap2\n      swap1\n      tag_56\n      jump\t// in\n    tag_55:\n      mload(0x40)\n      dup1\n      swap2\n      sub\n      swap1\n      return\n        /* \"contracts/BusinessConsensus.sol\":2140:2227  function getIsCompiled() public view returns (bool){\r... */\n    tag_11:\n      tag_57\n      tag_58\n      jump\t// in\n    tag_57:\n      mload(0x40)\n      tag_59\n      swap2\n      swap1\n      tag_60\n      jump\t// in\n    tag_59:\n      mload(0x40)\n      dup1\n      swap2\n      sub\n      swap1\n      return\n        /* \"contracts/BusinessConsensus.sol\":6064:6306  function retrieve_bundle() external view returns (bytes32, Proposal memory, Voter[] memory){\r... */\n    tag_12:\n      tag_61\n      tag_62\n      jump\t// in\n    tag_61:\n      mload(0x40)\n      tag_63\n      swap4\n      swap3\n      swap2\n      swap1\n      tag_64\n      jump\t// in\n    tag_63:\n      mload(0x40)\n      dup1\n      swap2\n      sub\n      swap1\n      return\n        /* \"contracts/BusinessConsensus.sol\":5329:6056  function Consensus() external {\r... */\n    tag_13:\n      tag_65\n      tag_66\n      jump\t// in\n    tag_65:\n      stop\n        /* \"contracts/BusinessConsensus.sol\":1098:1141  mapping(address => Voter) public voters_map */\n    tag_14:\n      tag_67\n      0x04\n      dup1\n      calldatasize\n      sub\n      dup2\n      add\n      swap1\n      tag_68\n      swap2\n      swap1\n      tag_31\n      jump\t// in\n    tag_68:\n      tag_69\n      jump\t// in\n    tag_67:\n      mload(0x40)\n      tag_70\n      swap4\n      swap3\n      swap2\n      swap1\n      tag_45\n      jump\t// in\n    tag_70:\n      mload(0x40)\n      dup1\n      swap2\n      sub\n      swap1\n      return\n        /* \"contracts/BusinessConsensus.sol\":2622:3410  function checkConsistency(string memory _subject, uint256 _businessRequirement, uint256 _expiryLength, bytes32 _contents) public view returns(bool, bool, bool){\r... */\n    tag_15:\n      tag_71\n      0x04\n      dup1\n      calldatasize\n      sub\n      dup2\n      add\n      swap1\n      tag_72\n      swap2\n      swap1\n      tag_73\n      jump\t// in\n    tag_72:\n      tag_74\n      jump\t// in\n    tag_71:\n      mload(0x40)\n      tag_75\n      swap4\n      swap3\n      swap2\n      swap1\n      tag_76\n      jump\t// in\n    tag_75:\n      mload(0x40)\n      dup1\n      swap2\n      sub\n      swap1\n      return\n        /* \"contracts/BusinessConsensus.sol\":2233:2396  function getParameters() external view returns (string memory, uint , uint){\r... */\n    tag_16:\n      tag_77\n      tag_78\n      jump\t// in\n    tag_77:\n      mload(0x40)\n      tag_79\n      swap4\n      swap3\n      swap2\n      swap1\n      tag_80\n      jump\t// in\n    tag_79:\n      mload(0x40)\n      dup1\n      swap2\n      sub\n      swap1\n      return\n        /* \"contracts/BusinessConsensus.sol\":917:951  uint256 public BusinessRequirement */\n    tag_17:\n      tag_81\n      tag_82\n      jump\t// in\n    tag_81:\n      mload(0x40)\n      tag_83\n      swap2\n      swap1\n      tag_52\n      jump\t// in\n    tag_83:\n      mload(0x40)\n      dup1\n      swap2\n      sub\n      swap1\n      return\n        /* \"contracts/BusinessConsensus.sol\":1068:1089  Voter[] public voters */\n    tag_18:\n      tag_84\n      0x04\n      dup1\n      calldatasize\n      sub\n      dup2\n      add\n      swap1\n      tag_85\n      swap2\n      swap1\n      tag_25\n      jump\t// in\n    tag_85:\n      tag_86\n      jump\t// in\n    tag_84:\n      mload(0x40)\n      tag_87\n      swap4\n      swap3\n      swap2\n      swap1\n      tag_45\n      jump\t// in\n    tag_87:\n      mload(0x40)\n      dup1\n      swap2\n      sub\n      swap1\n      return\n        /* \"contracts/BusinessConsensus.sol\":708:738  address public contractAddress */\n    tag_19:\n      tag_88\n      tag_89\n      jump\t// in\n    tag_88:\n      mload(0x40)\n      tag_90\n      swap2\n      swap1\n      tag_28\n      jump\t// in\n    tag_90:\n      mload(0x40)\n      dup1\n      swap2\n      sub\n      swap1\n      return\n        /* \"contracts/BusinessConsensus.sol\":841:862  address[] public keys */\n    tag_26:\n      0x02\n      dup2\n      dup2\n      sload\n      dup2\n      lt\n      tag_91\n      jumpi\n      0x00\n      dup1\n      revert\n    tag_91:\n      swap1\n      0x00\n      mstore\n      keccak256(0x00, 0x20)\n      add\n      0x00\n      swap2\n      pop\n      sload\n      swap1\n      0x0100\n      exp\n      swap1\n      div\n      0xffffffffffffffffffffffffffffffffffffffff\n      and\n      dup2\n      jump\t// out\n        /* \"contracts/BusinessConsensus.sol\":3516:4160  function RegisterVoter(address voter) external {\r... */\n    tag_32:\n        /* \"contracts/BusinessConsensus.sol\":3684:3693  initiator */\n      0x01\n      0x00\n      swap1\n      sload\n      swap1\n      0x0100\n      exp\n      swap1\n      div\n      0xffffffffffffffffffffffffffffffffffffffff\n      and\n        /* \"contracts/BusinessConsensus.sol\":3670:3693  msg.sender == initiator */\n      0xffffffffffffffffffffffffffffffffffffffff\n      and\n        /* \"contracts/BusinessConsensus.sol\":3670:3680  msg.sender */\n      caller\n        /* \"contracts/BusinessConsensus.sol\":3670:3693  msg.sender == initiator */\n      0xffffffffffffffffffffffffffffffffffffffff\n      and\n      eq\n        /* \"contracts/BusinessConsensus.sol\":3648:3761  require(\r... */\n      tag_94\n      jumpi\n      mload(0x40)\n      0x08c379a000000000000000000000000000000000000000000000000000000000\n      dup2\n      mstore\n      0x04\n      add\n      tag_95\n      swap1\n      tag_96\n      jump\t// in\n    tag_95:\n      mload(0x40)\n      dup1\n      swap2\n      sub\n      swap1\n      revert\n    tag_94:\n        /* \"contracts/BusinessConsensus.sol\":3789:3798  initiator */\n      0x01\n      0x00\n      swap1\n      sload\n      swap1\n      0x0100\n      exp\n      swap1\n      div\n      0xffffffffffffffffffffffffffffffffffffffff\n      and\n        /* \"contracts/BusinessConsensus.sol\":3780:3798  voter != initiator */\n      0xffffffffffffffffffffffffffffffffffffffff\n      and\n        /* \"contracts/BusinessConsensus.sol\":3780:3785  voter */\n      dup2\n        /* \"contracts/BusinessConsensus.sol\":3780:3798  voter != initiator */\n      0xffffffffffffffffffffffffffffffffffffffff\n      and\n      eq\n      iszero\n        /* \"contracts/BusinessConsensus.sol\":3772:3824  require(voter != initiator, \"Initiator can't vote!\") */\n      tag_97\n      jumpi\n      mload(0x40)\n      0x08c379a000000000000000000000000000000000000000000000000000000000\n      dup2\n      mstore\n      0x04\n      add\n      tag_98\n      swap1\n      tag_99\n      jump\t// in\n    tag_98:\n      mload(0x40)\n      dup1\n      swap2\n      sub\n      swap1\n      revert\n    tag_97:\n        /* \"contracts/BusinessConsensus.sol\":3884:3885  0 */\n      0x00\n        /* \"contracts/BusinessConsensus.sol\":3845:3886  voters_map[voter].recipient == address(0) */\n      0xffffffffffffffffffffffffffffffffffffffff\n      and\n        /* \"contracts/BusinessConsensus.sol\":3845:3855  voters_map */\n      0x09\n        /* \"contracts/BusinessConsensus.sol\":3845:3862  voters_map[voter] */\n      0x00\n        /* \"contracts/BusinessConsensus.sol\":3856:3861  voter */\n      dup4\n        /* \"contracts/BusinessConsensus.sol\":3845:3862  voters_map[voter] */\n      0xffffffffffffffffffffffffffffffffffffffff\n      and\n      0xffffffffffffffffffffffffffffffffffffffff\n      and\n      dup2\n      mstore\n      0x20\n      add\n      swap1\n      dup2\n      mstore\n      0x20\n      add\n      0x00\n      keccak256\n        /* \"contracts/BusinessConsensus.sol\":3845:3872  voters_map[voter].recipient */\n      0x00\n      add\n      0x02\n      swap1\n      sload\n      swap1\n      0x0100\n      exp\n      swap1\n      div\n      0xffffffffffffffffffffffffffffffffffffffff\n      and\n        /* \"contracts/BusinessConsensus.sol\":3845:3886  voters_map[voter].recipient == address(0) */\n      0xffffffffffffffffffffffffffffffffffffffff\n      and\n      eq\n        /* \"contracts/BusinessConsensus.sol\":3837:3922  require(voters_map[voter].recipient == address(0), \"Recipient is already registered\") */\n      tag_100\n      jumpi\n      mload(0x40)\n      0x08c379a000000000000000000000000000000000000000000000000000000000\n      dup2\n      mstore\n      0x04\n      add\n      tag_101\n      swap1\n      tag_102\n      jump\t// in\n    tag_101:\n      mload(0x40)\n      dup1\n      swap2\n      sub\n      swap1\n      revert\n    tag_100:\n        /* \"contracts/BusinessConsensus.sol\":3961:3971  expiryDate */\n      sload(0x03)\n        /* \"contracts/BusinessConsensus.sol\":3943:3958  block.timestamp */\n      timestamp\n        /* \"contracts/BusinessConsensus.sol\":3943:3971  block.timestamp < expiryDate */\n      lt\n        /* \"contracts/BusinessConsensus.sol\":3935:4012  require(block.timestamp < expiryDate, \"Proposal has reached its expiry date\") */\n      tag_103\n      jumpi\n      mload(0x40)\n      0x08c379a000000000000000000000000000000000000000000000000000000000\n      dup2\n      mstore\n      0x04\n      add\n      tag_104\n      swap1\n      tag_105\n      jump\t// in\n    tag_104:\n      mload(0x40)\n      dup1\n      swap2\n      sub\n      swap1\n      revert\n    tag_103:\n        /* \"contracts/BusinessConsensus.sol\":4025:4039  Voter memory x */\n      0x00\n        /* \"contracts/BusinessConsensus.sol\":4042:4093  Voter({voted: false,recipient: voter, vote: false}) */\n      mload(0x40)\n      dup1\n      0x60\n      add\n      0x40\n      mstore\n      dup1\n        /* \"contracts/BusinessConsensus.sol\":4056:4061  false */\n      0x00\n        /* \"contracts/BusinessConsensus.sol\":4042:4093  Voter({voted: false,recipient: voter, vote: false}) */\n      iszero\n      iszero\n      dup2\n      mstore\n      0x20\n      add\n        /* \"contracts/BusinessConsensus.sol\":4086:4091  false */\n      0x00\n        /* \"contracts/BusinessConsensus.sol\":4042:4093  Voter({voted: false,recipient: voter, vote: false}) */\n      iszero\n      iszero\n      dup2\n      mstore\n      0x20\n      add\n        /* \"contracts/BusinessConsensus.sol\":4073:4078  voter */\n      dup4\n        /* \"contracts/BusinessConsensus.sol\":4042:4093  Voter({voted: false,recipient: voter, vote: false}) */\n      0xffffffffffffffffffffffffffffffffffffffff\n      and\n      dup2\n      mstore\n      pop\n        /* \"contracts/BusinessConsensus.sol\":4025:4093  Voter memory x = Voter({voted: false,recipient: voter, vote: false}) */\n      swap1\n      pop\n        /* \"contracts/BusinessConsensus.sol\":4124:4125  x */\n      dup1\n        /* \"contracts/BusinessConsensus.sol\":4104:4114  voters_map */\n      0x09\n        /* \"contracts/BusinessConsensus.sol\":4104:4121  voters_map[voter] */\n      0x00\n        /* \"contracts/BusinessConsensus.sol\":4115:4120  voter */\n      dup5\n        /* \"contracts/BusinessConsensus.sol\":4104:4121  voters_map[voter] */\n      0xffffffffffffffffffffffffffffffffffffffff\n      and\n      0xffffffffffffffffffffffffffffffffffffffff\n      and\n      dup2\n      mstore\n      0x20\n      add\n      swap1\n      dup2\n      mstore\n      0x20\n      add\n      0x00\n      keccak256\n        /* \"contracts/BusinessConsensus.sol\":4104:4125  voters_map[voter] = x */\n      0x00\n      dup3\n      add\n      mload\n      dup2\n      0x00\n      add\n      exp(0x0100, 0x00)\n      dup2\n      sload\n      dup2\n      0xff\n      mul\n      not\n      and\n      swap1\n      dup4\n      iszero\n      iszero\n      mul\n      or\n      swap1\n      sstore\n      pop\n      0x20\n      dup3\n      add\n      mload\n      dup2\n      0x00\n      add\n      exp(0x0100, 0x01)\n      dup2\n      sload\n      dup2\n      0xff\n      mul\n      not\n      and\n      swap1\n      dup4\n      iszero\n      iszero\n      mul\n      or\n      swap1\n      sstore\n      pop\n      0x40\n      dup3\n      add\n      mload\n      dup2\n      0x00\n      add\n      exp(0x0100, 0x02)\n      dup2\n      sload\n      dup2\n      0xffffffffffffffffffffffffffffffffffffffff\n      mul\n      not\n      and\n      swap1\n      dup4\n      0xffffffffffffffffffffffffffffffffffffffff\n      and\n      mul\n      or\n      swap1\n      sstore\n      pop\n      swap1\n      pop\n      pop\n        /* \"contracts/BusinessConsensus.sol\":4136:4140  keys */\n      0x02\n        /* \"contracts/BusinessConsensus.sol\":4146:4151  voter */\n      dup3\n        /* \"contracts/BusinessConsensus.sol\":4136:4152  keys.push(voter) */\n      swap1\n      dup1\n      0x01\n      dup2\n      sload\n      add\n      dup1\n      dup3\n      sstore\n      dup1\n      swap2\n      pop\n      pop\n      0x01\n      swap1\n      sub\n      swap1\n      0x00\n      mstore\n      keccak256(0x00, 0x20)\n      add\n      0x00\n      swap1\n      swap2\n      swap1\n      swap2\n      swap1\n      swap2\n      0x0100\n      exp\n      dup2\n      sload\n      dup2\n      0xffffffffffffffffffffffffffffffffffffffff\n      mul\n      not\n      and\n      swap1\n      dup4\n      0xffffffffffffffffffffffffffffffffffffffff\n      and\n      mul\n      or\n      swap1\n      sstore\n      pop\n        /* \"contracts/BusinessConsensus.sol\":3563:4160  {\r... */\n      pop\n        /* \"contracts/BusinessConsensus.sol\":3516:4160  function RegisterVoter(address voter) external {\r... */\n      pop\n      jump\t// out\n        /* \"contracts/BusinessConsensus.sol\":2034:2134  function getValues() public view returns (string memory){\r... */\n    tag_34:\n        /* \"contracts/BusinessConsensus.sol\":2076:2089  string memory */\n      0x60\n        /* \"contracts/BusinessConsensus.sol\":2108:2116  proposal */\n      0x0a\n        /* \"contracts/BusinessConsensus.sol\":2108:2126  proposal.messageID */\n      0x01\n      add\n        /* \"contracts/BusinessConsensus.sol\":2101:2126  return proposal.messageID */\n      dup1\n      sload\n      tag_108\n      swap1\n      tag_109\n      jump\t// in\n    tag_108:\n      dup1\n      0x1f\n      add\n      0x20\n      dup1\n      swap2\n      div\n      mul\n      0x20\n      add\n      mload(0x40)\n      swap1\n      dup2\n      add\n      0x40\n      mstore\n      dup1\n      swap3\n      swap2\n      swap1\n      dup2\n      dup2\n      mstore\n      0x20\n      add\n      dup3\n      dup1\n      sload\n      tag_110\n      swap1\n      tag_109\n      jump\t// in\n    tag_110:\n      dup1\n      iszero\n      tag_111\n      jumpi\n      dup1\n      0x1f\n      lt\n      tag_112\n      jumpi\n      0x0100\n      dup1\n      dup4\n      sload\n      div\n      mul\n      dup4\n      mstore\n      swap2\n      0x20\n      add\n      swap2\n      jump(tag_111)\n    tag_112:\n      dup3\n      add\n      swap2\n      swap1\n      0x00\n      mstore\n      keccak256(0x00, 0x20)\n      swap1\n    tag_113:\n      dup2\n      sload\n      dup2\n      mstore\n      swap1\n      0x01\n      add\n      swap1\n      0x20\n      add\n      dup1\n      dup4\n      gt\n      tag_113\n      jumpi\n      dup3\n      swap1\n      sub\n      0x1f\n      and\n      dup3\n      add\n      swap2\n    tag_111:\n      pop\n      pop\n      pop\n      pop\n      pop\n      swap1\n      pop\n        /* \"contracts/BusinessConsensus.sol\":2034:2134  function getValues() public view returns (string memory){\r... */\n      swap1\n      jump\t// out\n        /* \"contracts/BusinessConsensus.sol\":4168:5265  function Vote(string memory response) external {\r... */\n    tag_40:\n        /* \"contracts/BusinessConsensus.sol\":4254:4264  expiryDate */\n      sload(0x03)\n        /* \"contracts/BusinessConsensus.sol\":4236:4251  block.timestamp */\n      timestamp\n        /* \"contracts/BusinessConsensus.sol\":4236:4264  block.timestamp < expiryDate */\n      lt\n        /* \"contracts/BusinessConsensus.sol\":4228:4287  require(block.timestamp < expiryDate, \"Voting has expired\") */\n      tag_115\n      jumpi\n      mload(0x40)\n      0x08c379a000000000000000000000000000000000000000000000000000000000\n      dup2\n      mstore\n      0x04\n      add\n      tag_116\n      swap1\n      tag_117\n      jump\t// in\n    tag_116:\n      mload(0x40)\n      dup1\n      swap2\n      sub\n      swap1\n      revert\n    tag_115:\n        /* \"contracts/BusinessConsensus.sol\":4350:4353  0x0 */\n      0x00\n        /* \"contracts/BusinessConsensus.sol\":4306:4354  voters_map[msg.sender].recipient != address(0x0) */\n      0xffffffffffffffffffffffffffffffffffffffff\n      and\n        /* \"contracts/BusinessConsensus.sol\":4306:4316  voters_map */\n      0x09\n        /* \"contracts/BusinessConsensus.sol\":4306:4328  voters_map[msg.sender] */\n      0x00\n        /* \"contracts/BusinessConsensus.sol\":4317:4327  msg.sender */\n      caller\n        /* \"contracts/BusinessConsensus.sol\":4306:4328  voters_map[msg.sender] */\n      0xffffffffffffffffffffffffffffffffffffffff\n      and\n      0xffffffffffffffffffffffffffffffffffffffff\n      and\n      dup2\n      mstore\n      0x20\n      add\n      swap1\n      dup2\n      mstore\n      0x20\n      add\n      0x00\n      keccak256\n        /* \"contracts/BusinessConsensus.sol\":4306:4338  voters_map[msg.sender].recipient */\n      0x00\n      add\n      0x02\n      swap1\n      sload\n      swap1\n      0x0100\n      exp\n      swap1\n      div\n      0xffffffffffffffffffffffffffffffffffffffff\n      and\n        /* \"contracts/BusinessConsensus.sol\":4306:4354  voters_map[msg.sender].recipient != address(0x0) */\n      0xffffffffffffffffffffffffffffffffffffffff\n      and\n      eq\n      iszero\n        /* \"contracts/BusinessConsensus.sol\":4298:4389  require(voters_map[msg.sender].recipient != address(0x0), \"You are not registered to vote\") */\n      tag_118\n      jumpi\n      mload(0x40)\n      0x08c379a000000000000000000000000000000000000000000000000000000000\n      dup2\n      mstore\n      0x04\n      add\n      tag_119\n      swap1\n      tag_120\n      jump\t// in\n    tag_119:\n      mload(0x40)\n      dup1\n      swap2\n      sub\n      swap1\n      revert\n    tag_118:\n        /* \"contracts/BusinessConsensus.sol\":4409:4419  voters_map */\n      0x09\n        /* \"contracts/BusinessConsensus.sol\":4409:4431  voters_map[msg.sender] */\n      0x00\n        /* \"contracts/BusinessConsensus.sol\":4420:4430  msg.sender */\n      caller\n        /* \"contracts/BusinessConsensus.sol\":4409:4431  voters_map[msg.sender] */\n      0xffffffffffffffffffffffffffffffffffffffff\n      and\n      0xffffffffffffffffffffffffffffffffffffffff\n      and\n      dup2\n      mstore\n      0x20\n      add\n      swap1\n      dup2\n      mstore\n      0x20\n      add\n      0x00\n      keccak256\n        /* \"contracts/BusinessConsensus.sol\":4409:4437  voters_map[msg.sender].voted */\n      0x00\n      add\n      0x00\n      swap1\n      sload\n      swap1\n      0x0100\n      exp\n      swap1\n      div\n      0xff\n      and\n        /* \"contracts/BusinessConsensus.sol\":4408:4437  !voters_map[msg.sender].voted */\n      iszero\n        /* \"contracts/BusinessConsensus.sol\":4400:4470  require(!voters_map[msg.sender].voted, \"You already sent a response.\") */\n      tag_121\n      jumpi\n      mload(0x40)\n      0x08c379a000000000000000000000000000000000000000000000000000000000\n      dup2\n      mstore\n      0x04\n      add\n      tag_122\n      swap1\n      tag_123\n      jump\t// in\n    tag_122:\n      mload(0x40)\n      dup1\n      swap2\n      sub\n      swap1\n      revert\n    tag_121:\n        /* \"contracts/BusinessConsensus.sol\":4526:4544  bytes(\"i approve\") */\n      mload(0x40)\n      dup1\n      0x40\n      add\n      0x40\n      mstore\n      dup1\n      0x09\n      dup2\n      mstore\n      0x20\n      add\n      0x6920617070726f76650000000000000000000000000000000000000000000000\n      dup2\n      mstore\n      pop\n        /* \"contracts/BusinessConsensus.sol\":4516:4545  keccak256(bytes(\"i approve\")) */\n      dup1\n      mload\n      swap1\n      0x20\n      add\n      keccak256\n        /* \"contracts/BusinessConsensus.sol\":4502:4510  response */\n      dup2\n        /* \"contracts/BusinessConsensus.sol\":4486:4512  keccak256(bytes(response)) */\n      dup1\n      mload\n      swap1\n      0x20\n      add\n      keccak256\n        /* \"contracts/BusinessConsensus.sol\":4486:4545  keccak256(bytes(response)) == keccak256(bytes(\"i approve\")) */\n      eq\n        /* \"contracts/BusinessConsensus.sol\":4483:5248  if(keccak256(bytes(response)) == keccak256(bytes(\"i approve\"))){\r... */\n      iszero\n      tag_124\n      jumpi\n        /* \"contracts/BusinessConsensus.sol\":4592:4596  true */\n      0x01\n        /* \"contracts/BusinessConsensus.sol\":4561:4571  voters_map */\n      0x09\n        /* \"contracts/BusinessConsensus.sol\":4561:4583  voters_map[msg.sender] */\n      0x00\n        /* \"contracts/BusinessConsensus.sol\":4572:4582  msg.sender */\n      caller\n        /* \"contracts/BusinessConsensus.sol\":4561:4583  voters_map[msg.sender] */\n      0xffffffffffffffffffffffffffffffffffffffff\n      and\n      0xffffffffffffffffffffffffffffffffffffffff\n      and\n      dup2\n      mstore\n      0x20\n      add\n      swap1\n      dup2\n      mstore\n      0x20\n      add\n      0x00\n      keccak256\n        /* \"contracts/BusinessConsensus.sol\":4561:4589  voters_map[msg.sender].voted */\n      0x00\n      add\n      0x00\n        /* \"contracts/BusinessConsensus.sol\":4561:4596  voters_map[msg.sender].voted = true */\n      0x0100\n      exp\n      dup2\n      sload\n      dup2\n      0xff\n      mul\n      not\n      and\n      swap1\n      dup4\n      iszero\n      iszero\n      mul\n      or\n      swap1\n      sstore\n      pop\n        /* \"contracts/BusinessConsensus.sol\":4641:4645  true */\n      0x01\n        /* \"contracts/BusinessConsensus.sol\":4611:4621  voters_map */\n      0x09\n        /* \"contracts/BusinessConsensus.sol\":4611:4633  voters_map[msg.sender] */\n      0x00\n        /* \"contracts/BusinessConsensus.sol\":4622:4632  msg.sender */\n      caller\n        /* \"contracts/BusinessConsensus.sol\":4611:4633  voters_map[msg.sender] */\n      0xffffffffffffffffffffffffffffffffffffffff\n      and\n      0xffffffffffffffffffffffffffffffffffffffff\n      and\n      dup2\n      mstore\n      0x20\n      add\n      swap1\n      dup2\n      mstore\n      0x20\n      add\n      0x00\n      keccak256\n        /* \"contracts/BusinessConsensus.sol\":4611:4638  voters_map[msg.sender].vote */\n      0x00\n      add\n      0x01\n        /* \"contracts/BusinessConsensus.sol\":4611:4645  voters_map[msg.sender].vote = true */\n      0x0100\n      exp\n      dup2\n      sload\n      dup2\n      0xff\n      mul\n      not\n      and\n      swap1\n      dup4\n      iszero\n      iszero\n      mul\n      or\n      swap1\n      sstore\n      pop\n        /* \"contracts/BusinessConsensus.sol\":4676:4677  1 */\n      0x01\n        /* \"contracts/BusinessConsensus.sol\":4660:4672  numApprovals */\n      0x05\n      0x00\n        /* \"contracts/BusinessConsensus.sol\":4660:4677  numApprovals += 1 */\n      dup3\n      dup3\n      sload\n      tag_125\n      swap2\n      swap1\n      tag_126\n      jump\t// in\n    tag_125:\n      swap3\n      pop\n      pop\n      dup2\n      swap1\n      sstore\n      pop\n        /* \"contracts/BusinessConsensus.sol\":4714:4715  1 */\n      0x01\n        /* \"contracts/BusinessConsensus.sol\":4692:4700  proposal */\n      0x0a\n        /* \"contracts/BusinessConsensus.sol\":4692:4710  proposal.voteCount */\n      0x00\n      add\n      0x00\n        /* \"contracts/BusinessConsensus.sol\":4692:4715  proposal.voteCount += 1 */\n      dup3\n      dup3\n      sload\n      tag_127\n      swap2\n      swap1\n      tag_126\n      jump\t// in\n    tag_127:\n      swap3\n      pop\n      pop\n      dup2\n      swap1\n      sstore\n      pop\n        /* \"contracts/BusinessConsensus.sol\":4730:4736  voters */\n      0x08\n        /* \"contracts/BusinessConsensus.sol\":4742:4752  voters_map */\n      0x09\n        /* \"contracts/BusinessConsensus.sol\":4742:4764  voters_map[msg.sender] */\n      0x00\n        /* \"contracts/BusinessConsensus.sol\":4753:4763  msg.sender */\n      caller\n        /* \"contracts/BusinessConsensus.sol\":4742:4764  voters_map[msg.sender] */\n      0xffffffffffffffffffffffffffffffffffffffff\n      and\n      0xffffffffffffffffffffffffffffffffffffffff\n      and\n      dup2\n      mstore\n      0x20\n      add\n      swap1\n      dup2\n      mstore\n      0x20\n      add\n      0x00\n      keccak256\n        /* \"contracts/BusinessConsensus.sol\":4730:4765  voters.push(voters_map[msg.sender]) */\n      swap1\n      dup1\n      0x01\n      dup2\n      sload\n      add\n      dup1\n      dup3\n      sstore\n      dup1\n      swap2\n      pop\n      pop\n      0x01\n      swap1\n      sub\n      swap1\n      0x00\n      mstore\n      keccak256(0x00, 0x20)\n      add\n      0x00\n      swap1\n      swap2\n      swap1\n      swap2\n      swap1\n      swap2\n      pop\n      0x00\n      dup3\n      add\n      0x00\n      swap1\n      sload\n      swap1\n      0x0100\n      exp\n      swap1\n      div\n      0xff\n      and\n      dup2\n      0x00\n      add\n      exp(0x0100, 0x00)\n      dup2\n      sload\n      dup2\n      0xff\n      mul\n      not\n      and\n      swap1\n      dup4\n      iszero\n      iszero\n      mul\n      or\n      swap1\n      sstore\n      pop\n      0x00\n      dup3\n      add\n      0x01\n      swap1\n      sload\n      swap1\n      0x0100\n      exp\n      swap1\n      div\n      0xff\n      and\n      dup2\n      0x00\n      add\n      exp(0x0100, 0x01)\n      dup2\n      sload\n      dup2\n      0xff\n      mul\n      not\n      and\n      swap1\n      dup4\n      iszero\n      iszero\n      mul\n      or\n      swap1\n      sstore\n      pop\n      0x00\n      dup3\n      add\n      0x02\n      swap1\n      sload\n      swap1\n      0x0100\n      exp\n      swap1\n      div\n      0xffffffffffffffffffffffffffffffffffffffff\n      and\n      dup2\n      0x00\n      add\n      exp(0x0100, 0x02)\n      dup2\n      sload\n      dup2\n      0xffffffffffffffffffffffffffffffffffffffff\n      mul\n      not\n      and\n      swap1\n      dup4\n      0xffffffffffffffffffffffffffffffffffffffff\n      and\n      mul\n      or\n      swap1\n      sstore\n      pop\n      pop\n      pop\n        /* \"contracts/BusinessConsensus.sol\":4483:5248  if(keccak256(bytes(response)) == keccak256(bytes(\"i approve\"))){\r... */\n      jump(tag_129)\n    tag_124:\n        /* \"contracts/BusinessConsensus.sol\":4837:4858  bytes(\"i disapprove\") */\n      mload(0x40)\n      dup1\n      0x40\n      add\n      0x40\n      mstore\n      dup1\n      0x0c\n      dup2\n      mstore\n      0x20\n      add\n      0x6920646973617070726f76650000000000000000000000000000000000000000\n      dup2\n      mstore\n      pop\n        /* \"contracts/BusinessConsensus.sol\":4827:4859  keccak256(bytes(\"i disapprove\")) */\n      dup1\n      mload\n      swap1\n      0x20\n      add\n      keccak256\n        /* \"contracts/BusinessConsensus.sol\":4813:4821  response */\n      dup2\n        /* \"contracts/BusinessConsensus.sol\":4797:4823  keccak256(bytes(response)) */\n      dup1\n      mload\n      swap1\n      0x20\n      add\n      keccak256\n        /* \"contracts/BusinessConsensus.sol\":4797:4859  keccak256(bytes(response)) == keccak256(bytes(\"i disapprove\")) */\n      eq\n        /* \"contracts/BusinessConsensus.sol\":4794:5248  if(keccak256(bytes(response)) == keccak256(bytes(\"i disapprove\"))){\r... */\n      iszero\n      tag_130\n      jumpi\n        /* \"contracts/BusinessConsensus.sol\":4906:4910  true */\n      0x01\n        /* \"contracts/BusinessConsensus.sol\":4875:4885  voters_map */\n      0x09\n        /* \"contracts/BusinessConsensus.sol\":4875:4897  voters_map[msg.sender] */\n      0x00\n        /* \"contracts/BusinessConsensus.sol\":4886:4896  msg.sender */\n      caller\n        /* \"contracts/BusinessConsensus.sol\":4875:4897  voters_map[msg.sender] */\n      0xffffffffffffffffffffffffffffffffffffffff\n      and\n      0xffffffffffffffffffffffffffffffffffffffff\n      and\n      dup2\n      mstore\n      0x20\n      add\n      swap1\n      dup2\n      mstore\n      0x20\n      add\n      0x00\n      keccak256\n        /* \"contracts/BusinessConsensus.sol\":4875:4903  voters_map[msg.sender].voted */\n      0x00\n      add\n      0x00\n        /* \"contracts/BusinessConsensus.sol\":4875:4910  voters_map[msg.sender].voted = true */\n      0x0100\n      exp\n      dup2\n      sload\n      dup2\n      0xff\n      mul\n      not\n      and\n      swap1\n      dup4\n      iszero\n      iszero\n      mul\n      or\n      swap1\n      sstore\n      pop\n        /* \"contracts/BusinessConsensus.sol\":4947:4948  1 */\n      0x01\n        /* \"contracts/BusinessConsensus.sol\":4925:4933  proposal */\n      0x0a\n        /* \"contracts/BusinessConsensus.sol\":4925:4943  proposal.voteCount */\n      0x00\n      add\n      0x00\n        /* \"contracts/BusinessConsensus.sol\":4925:4948  proposal.voteCount += 1 */\n      dup3\n      dup3\n      sload\n      tag_131\n      swap2\n      swap1\n      tag_126\n      jump\t// in\n    tag_131:\n      swap3\n      pop\n      pop\n      dup2\n      swap1\n      sstore\n      pop\n        /* \"contracts/BusinessConsensus.sol\":4963:4969  voters */\n      0x08\n        /* \"contracts/BusinessConsensus.sol\":4975:4985  voters_map */\n      0x09\n        /* \"contracts/BusinessConsensus.sol\":4975:4997  voters_map[msg.sender] */\n      0x00\n        /* \"contracts/BusinessConsensus.sol\":4986:4996  msg.sender */\n      caller\n        /* \"contracts/BusinessConsensus.sol\":4975:4997  voters_map[msg.sender] */\n      0xffffffffffffffffffffffffffffffffffffffff\n      and\n      0xffffffffffffffffffffffffffffffffffffffff\n      and\n      dup2\n      mstore\n      0x20\n      add\n      swap1\n      dup2\n      mstore\n      0x20\n      add\n      0x00\n      keccak256\n        /* \"contracts/BusinessConsensus.sol\":4963:4998  voters.push(voters_map[msg.sender]) */\n      swap1\n      dup1\n      0x01\n      dup2\n      sload\n      add\n      dup1\n      dup3\n      sstore\n      dup1\n      swap2\n      pop\n      pop\n      0x01\n      swap1\n      sub\n      swap1\n      0x00\n      mstore\n      keccak256(0x00, 0x20)\n      add\n      0x00\n      swap1\n      swap2\n      swap1\n      swap2\n      swap1\n      swap2\n      pop\n      0x00\n      dup3\n      add\n      0x00\n      swap1\n      sload\n      swap1\n      0x0100\n      exp\n      swap1\n      div\n      0xff\n      and\n      dup2\n      0x00\n      add\n      exp(0x0100, 0x00)\n      dup2\n      sload\n      dup2\n      0xff\n      mul\n      not\n      and\n      swap1\n      dup4\n      iszero\n      iszero\n      mul\n      or\n      swap1\n      sstore\n      pop\n      0x00\n      dup3\n      add\n      0x01\n      swap1\n      sload\n      swap1\n      0x0100\n      exp\n      swap1\n      div\n      0xff\n      and\n      dup2\n      0x00\n      add\n      exp(0x0100, 0x01)\n      dup2\n      sload\n      dup2\n      0xff\n      mul\n      not\n      and\n      swap1\n      dup4\n      iszero\n      iszero\n      mul\n      or\n      swap1\n      sstore\n      pop\n      0x00\n      dup3\n      add\n      0x02\n      swap1\n      sload\n      swap1\n      0x0100\n      exp\n      swap1\n      div\n      0xffffffffffffffffffffffffffffffffffffffff\n      and\n      dup2\n      0x00\n      add\n      exp(0x0100, 0x02)\n      dup2\n      sload\n      dup2\n      0xffffffffffffffffffffffffffffffffffffffff\n      mul\n      not\n      and\n      swap1\n      dup4\n      0xffffffffffffffffffffffffffffffffffffffff\n      and\n      mul\n      or\n      swap1\n      sstore\n      pop\n      pop\n      pop\n        /* \"contracts/BusinessConsensus.sol\":4794:5248  if(keccak256(bytes(response)) == keccak256(bytes(\"i disapprove\"))){\r... */\n      jump(tag_133)\n    tag_130:\n        /* \"contracts/BusinessConsensus.sol\":5144:5148  true */\n      0x01\n        /* \"contracts/BusinessConsensus.sol\":5113:5123  voters_map */\n      0x09\n        /* \"contracts/BusinessConsensus.sol\":5113:5135  voters_map[msg.sender] */\n      0x00\n        /* \"contracts/BusinessConsensus.sol\":5124:5134  msg.sender */\n      caller\n        /* \"contracts/BusinessConsensus.sol\":5113:5135  voters_map[msg.sender] */\n      0xffffffffffffffffffffffffffffffffffffffff\n      and\n      0xffffffffffffffffffffffffffffffffffffffff\n      and\n      dup2\n      mstore\n      0x20\n      add\n      swap1\n      dup2\n      mstore\n      0x20\n      add\n      0x00\n      keccak256\n        /* \"contracts/BusinessConsensus.sol\":5113:5141  voters_map[msg.sender].voted */\n      0x00\n      add\n      0x00\n        /* \"contracts/BusinessConsensus.sol\":5113:5148  voters_map[msg.sender].voted = true */\n      0x0100\n      exp\n      dup2\n      sload\n      dup2\n      0xff\n      mul\n      not\n      and\n      swap1\n      dup4\n      iszero\n      iszero\n      mul\n      or\n      swap1\n      sstore\n      pop\n        /* \"contracts/BusinessConsensus.sol\":5185:5186  1 */\n      0x01\n        /* \"contracts/BusinessConsensus.sol\":5163:5171  proposal */\n      0x0a\n        /* \"contracts/BusinessConsensus.sol\":5163:5181  proposal.voteCount */\n      0x00\n      add\n      0x00\n        /* \"contracts/BusinessConsensus.sol\":5163:5186  proposal.voteCount += 1 */\n      dup3\n      dup3\n      sload\n      tag_134\n      swap2\n      swap1\n      tag_126\n      jump\t// in\n    tag_134:\n      swap3\n      pop\n      pop\n      dup2\n      swap1\n      sstore\n      pop\n        /* \"contracts/BusinessConsensus.sol\":5201:5207  voters */\n      0x08\n        /* \"contracts/BusinessConsensus.sol\":5213:5223  voters_map */\n      0x09\n        /* \"contracts/BusinessConsensus.sol\":5213:5235  voters_map[msg.sender] */\n      0x00\n        /* \"contracts/BusinessConsensus.sol\":5224:5234  msg.sender */\n      caller\n        /* \"contracts/BusinessConsensus.sol\":5213:5235  voters_map[msg.sender] */\n      0xffffffffffffffffffffffffffffffffffffffff\n      and\n      0xffffffffffffffffffffffffffffffffffffffff\n      and\n      dup2\n      mstore\n      0x20\n      add\n      swap1\n      dup2\n      mstore\n      0x20\n      add\n      0x00\n      keccak256\n        /* \"contracts/BusinessConsensus.sol\":5201:5236  voters.push(voters_map[msg.sender]) */\n      swap1\n      dup1\n      0x01\n      dup2\n      sload\n      add\n      dup1\n      dup3\n      sstore\n      dup1\n      swap2\n      pop\n      pop\n      0x01\n      swap1\n      sub\n      swap1\n      0x00\n      mstore\n      keccak256(0x00, 0x20)\n      add\n      0x00\n      swap1\n      swap2\n      swap1\n      swap2\n      swap1\n      swap2\n      pop\n      0x00\n      dup3\n      add\n      0x00\n      swap1\n      sload\n      swap1\n      0x0100\n      exp\n      swap1\n      div\n      0xff\n      and\n      dup2\n      0x00\n      add\n      exp(0x0100, 0x00)\n      dup2\n      sload\n      dup2\n      0xff\n      mul\n      not\n      and\n      swap1\n      dup4\n      iszero\n      iszero\n      mul\n      or\n      swap1\n      sstore\n      pop\n      0x00\n      dup3\n      add\n      0x01\n      swap1\n      sload\n      swap1\n      0x0100\n      exp\n      swap1\n      div\n      0xff\n      and\n      dup2\n      0x00\n      add\n      exp(0x0100, 0x01)\n      dup2\n      sload\n      dup2\n      0xff\n      mul\n      not\n      and\n      swap1\n      dup4\n      iszero\n      iszero\n      mul\n      or\n      swap1\n      sstore\n      pop\n      0x00\n      dup3\n      add\n      0x02\n      swap1\n      sload\n      swap1\n      0x0100\n      exp\n      swap1\n      div\n      0xffffffffffffffffffffffffffffffffffffffff\n      and\n      dup2\n      0x00\n      add\n      exp(0x0100, 0x02)\n      dup2\n      sload\n      dup2\n      0xffffffffffffffffffffffffffffffffffffffff\n      mul\n      not\n      and\n      swap1\n      dup4\n      0xffffffffffffffffffffffffffffffffffffffff\n      and\n      mul\n      or\n      swap1\n      sstore\n      pop\n      pop\n      pop\n        /* \"contracts/BusinessConsensus.sol\":4794:5248  if(keccak256(bytes(response)) == keccak256(bytes(\"i disapprove\"))){\r... */\n    tag_133:\n        /* \"contracts/BusinessConsensus.sol\":4483:5248  if(keccak256(bytes(response)) == keccak256(bytes(\"i approve\"))){\r... */\n    tag_129:\n        /* \"contracts/BusinessConsensus.sol\":4168:5265  function Vote(string memory response) external {\r... */\n      pop\n      jump\t// out\n        /* \"contracts/BusinessConsensus.sol\":2402:2616  function getParameters2(address test_address) external view returns (bool, bool, address){\r... */\n    tag_43:\n        /* \"contracts/BusinessConsensus.sol\":2471:2475  bool */\n      0x00\n        /* \"contracts/BusinessConsensus.sol\":2477:2481  bool */\n      dup1\n        /* \"contracts/BusinessConsensus.sol\":2483:2490  address */\n      0x00\n        /* \"contracts/BusinessConsensus.sol\":2510:2520  voters_map */\n      0x09\n        /* \"contracts/BusinessConsensus.sol\":2510:2534  voters_map[test_address] */\n      0x00\n        /* \"contracts/BusinessConsensus.sol\":2521:2533  test_address */\n      dup6\n        /* \"contracts/BusinessConsensus.sol\":2510:2534  voters_map[test_address] */\n      0xffffffffffffffffffffffffffffffffffffffff\n      and\n      0xffffffffffffffffffffffffffffffffffffffff\n      and\n      dup2\n      mstore\n      0x20\n      add\n      swap1\n      dup2\n      mstore\n      0x20\n      add\n      0x00\n      keccak256\n        /* \"contracts/BusinessConsensus.sol\":2510:2539  voters_map[test_address].vote */\n      0x00\n      add\n      0x01\n      swap1\n      sload\n      swap1\n      0x0100\n      exp\n      swap1\n      div\n      0xff\n      and\n        /* \"contracts/BusinessConsensus.sol\":2541:2551  voters_map */\n      0x09\n        /* \"contracts/BusinessConsensus.sol\":2541:2565  voters_map[test_address] */\n      0x00\n        /* \"contracts/BusinessConsensus.sol\":2552:2564  test_address */\n      dup7\n        /* \"contracts/BusinessConsensus.sol\":2541:2565  voters_map[test_address] */\n      0xffffffffffffffffffffffffffffffffffffffff\n      and\n      0xffffffffffffffffffffffffffffffffffffffff\n      and\n      dup2\n      mstore\n      0x20\n      add\n      swap1\n      dup2\n      mstore\n      0x20\n      add\n      0x00\n      keccak256\n        /* \"contracts/BusinessConsensus.sol\":2541:2571  voters_map[test_address].voted */\n      0x00\n      add\n      0x00\n      swap1\n      sload\n      swap1\n      0x0100\n      exp\n      swap1\n      div\n      0xff\n      and\n        /* \"contracts/BusinessConsensus.sol\":2573:2583  voters_map */\n      0x09\n        /* \"contracts/BusinessConsensus.sol\":2573:2597  voters_map[test_address] */\n      0x00\n        /* \"contracts/BusinessConsensus.sol\":2584:2596  test_address */\n      dup8\n        /* \"contracts/BusinessConsensus.sol\":2573:2597  voters_map[test_address] */\n      0xffffffffffffffffffffffffffffffffffffffff\n      and\n      0xffffffffffffffffffffffffffffffffffffffff\n      and\n      dup2\n      mstore\n      0x20\n      add\n      swap1\n      dup2\n      mstore\n      0x20\n      add\n      0x00\n      keccak256\n        /* \"contracts/BusinessConsensus.sol\":2573:2607  voters_map[test_address].recipient */\n      0x00\n      add\n      0x02\n      swap1\n      sload\n      swap1\n      0x0100\n      exp\n      swap1\n      div\n      0xffffffffffffffffffffffffffffffffffffffff\n      and\n        /* \"contracts/BusinessConsensus.sol\":2502:2608  return (voters_map[test_address].vote, voters_map[test_address].voted, voters_map[test_address].recipient) */\n      swap3\n      pop\n      swap3\n      pop\n      swap3\n      pop\n        /* \"contracts/BusinessConsensus.sol\":2402:2616  function getParameters2(address test_address) external view returns (bool, bool, address){\r... */\n      swap2\n      swap4\n      swap1\n      swap3\n      pop\n      jump\t// out\n        /* \"contracts/BusinessConsensus.sol\":808:832  address public initiator */\n    tag_47:\n      0x01\n      0x00\n      swap1\n      sload\n      swap1\n      0x0100\n      exp\n      swap1\n      div\n      0xffffffffffffffffffffffffffffffffffffffff\n      and\n      dup2\n      jump\t// out\n        /* \"contracts/BusinessConsensus.sol\":958:985  uint256 public numApprovals */\n    tag_50:\n      sload(0x05)\n      dup2\n      jump\t// out\n        /* \"contracts/BusinessConsensus.sol\":1218:1242  Proposal public proposal */\n    tag_54:\n      0x0a\n      dup1\n      0x00\n      add\n      sload\n      swap1\n      dup1\n      0x01\n      add\n      dup1\n      sload\n      tag_137\n      swap1\n      tag_109\n      jump\t// in\n    tag_137:\n      dup1\n      0x1f\n      add\n      0x20\n      dup1\n      swap2\n      div\n      mul\n      0x20\n      add\n      mload(0x40)\n      swap1\n      dup2\n      add\n      0x40\n      mstore\n      dup1\n      swap3\n      swap2\n      swap1\n      dup2\n      dup2\n      mstore\n      0x20\n      add\n      dup3\n      dup1\n      sload\n      tag_138\n      swap1\n      tag_109\n      jump\t// in\n    tag_138:\n      dup1\n      iszero\n      tag_139\n      jumpi\n      dup1\n      0x1f\n      lt\n      tag_140\n      jumpi\n      0x0100\n      dup1\n      dup4\n      sload\n      div\n      mul\n      dup4\n      mstore\n      swap2\n      0x20\n      add\n      swap2\n      jump(tag_139)\n    tag_140:\n      dup3\n      add\n      swap2\n      swap1\n      0x00\n      mstore\n      keccak256(0x00, 0x20)\n      swap1\n    tag_141:\n      dup2\n      sload\n      dup2\n      mstore\n      swap1\n      0x01\n      add\n      swap1\n      0x20\n      add\n      dup1\n      dup4\n      gt\n      tag_141\n      jumpi\n      dup3\n      swap1\n      sub\n      0x1f\n      and\n      dup3\n      add\n      swap2\n    tag_139:\n      pop\n      pop\n      pop\n      pop\n      pop\n      swap1\n      dup1\n      0x02\n      add\n      dup1\n      sload\n      tag_142\n      swap1\n      tag_109\n      jump\t// in\n    tag_142:\n      dup1\n      0x1f\n      add\n      0x20\n      dup1\n      swap2\n      div\n      mul\n      0x20\n      add\n      mload(0x40)\n      swap1\n      dup2\n      add\n      0x40\n      mstore\n      dup1\n      swap3\n      swap2\n      swap1\n      dup2\n      dup2\n      mstore\n      0x20\n      add\n      dup3\n      dup1\n      sload\n      tag_143\n      swap1\n      tag_109\n      jump\t// in\n    tag_143:\n      dup1\n      iszero\n      tag_144\n      jumpi\n      dup1\n      0x1f\n      lt\n      tag_145\n      jumpi\n      0x0100\n      dup1\n      dup4\n      sload\n      div\n      mul\n      dup4\n      mstore\n      swap2\n      0x20\n      add\n      swap2\n      jump(tag_144)\n    tag_145:\n      dup3\n      add\n      swap2\n      swap1\n      0x00\n      mstore\n      keccak256(0x00, 0x20)\n      swap1\n    tag_146:\n      dup2\n      sload\n      dup2\n      mstore\n      swap1\n      0x01\n      add\n      swap1\n      0x20\n      add\n      dup1\n      dup4\n      gt\n      tag_146\n      jumpi\n      dup3\n      swap1\n      sub\n      0x1f\n      and\n      dup3\n      add\n      swap2\n    tag_144:\n      pop\n      pop\n      pop\n      pop\n      pop\n      swap1\n      dup1\n      0x03\n      add\n      dup1\n      sload\n      tag_147\n      swap1\n      tag_109\n      jump\t// in\n    tag_147:\n      dup1\n      0x1f\n      add\n      0x20\n      dup1\n      swap2\n      div\n      mul\n      0x20\n      add\n      mload(0x40)\n      swap1\n      dup2\n      add\n      0x40\n      mstore\n      dup1\n      swap3\n      swap2\n      swap1\n      dup2\n      dup2\n      mstore\n      0x20\n      add\n      dup3\n      dup1\n      sload\n      tag_148\n      swap1\n      tag_109\n      jump\t// in\n    tag_148:\n      dup1\n      iszero\n      tag_149\n      jumpi\n      dup1\n      0x1f\n      lt\n      tag_150\n      jumpi\n      0x0100\n      dup1\n      dup4\n      sload\n      div\n      mul\n      dup4\n      mstore\n      swap2\n      0x20\n      add\n      swap2\n      jump(tag_149)\n    tag_150:\n      dup3\n      add\n      swap2\n      swap1\n      0x00\n      mstore\n      keccak256(0x00, 0x20)\n      swap1\n    tag_151:\n      dup2\n      sload\n      dup2\n      mstore\n      swap1\n      0x01\n      add\n      swap1\n      0x20\n      add\n      dup1\n      dup4\n      gt\n      tag_151\n      jumpi\n      dup3\n      swap1\n      sub\n      0x1f\n      and\n      dup3\n      add\n      swap2\n    tag_149:\n      pop\n      pop\n      pop\n      pop\n      pop\n      swap1\n      dup1\n      0x04\n      add\n      sload\n      swap1\n      dup1\n      0x05\n      add\n      sload\n      swap1\n      pop\n      dup7\n      jump\t// out\n        /* \"contracts/BusinessConsensus.sol\":2140:2227  function getIsCompiled() public view returns (bool){\r... */\n    tag_58:\n        /* \"contracts/BusinessConsensus.sol\":2186:2190  bool */\n      0x00\n        /* \"contracts/BusinessConsensus.sol\":2209:2219  isCompiled */\n      0x06\n      0x00\n      swap1\n      sload\n      swap1\n      0x0100\n      exp\n      swap1\n      div\n      0xff\n      and\n        /* \"contracts/BusinessConsensus.sol\":2202:2219  return isCompiled */\n      swap1\n      pop\n        /* \"contracts/BusinessConsensus.sol\":2140:2227  function getIsCompiled() public view returns (bool){\r... */\n      swap1\n      jump\t// out\n        /* \"contracts/BusinessConsensus.sol\":6064:6306  function retrieve_bundle() external view returns (bytes32, Proposal memory, Voter[] memory){\r... */\n    tag_62:\n        /* \"contracts/BusinessConsensus.sol\":6114:6121  bytes32 */\n      0x00\n        /* \"contracts/BusinessConsensus.sol\":6123:6138  Proposal memory */\n      tag_153\n      tag_154\n      jump\t// in\n    tag_153:\n        /* \"contracts/BusinessConsensus.sol\":6140:6154  Voter[] memory */\n      0x60\n        /* \"contracts/BusinessConsensus.sol\":6193:6203  expiryDate */\n      sload(0x03)\n        /* \"contracts/BusinessConsensus.sol\":6174:6189  block.timestamp */\n      timestamp\n        /* \"contracts/BusinessConsensus.sol\":6174:6203  block.timestamp >= expiryDate */\n      lt\n      iszero\n        /* \"contracts/BusinessConsensus.sol\":6166:6240  require(block.timestamp >= expiryDate, \"Verdict has not been reached yet\") */\n      tag_156\n      jumpi\n      mload(0x40)\n      0x08c379a000000000000000000000000000000000000000000000000000000000\n      dup2\n      mstore\n      0x04\n      add\n      tag_157\n      swap1\n      tag_158\n      jump\t// in\n    tag_157:\n      mload(0x40)\n      dup1\n      swap2\n      sub\n      swap1\n      revert\n    tag_156:\n        /* \"contracts/BusinessConsensus.sol\":6259:6271  finalVerdict */\n      sload(0x07)\n        /* \"contracts/BusinessConsensus.sol\":6272:6280  proposal */\n      0x0a\n        /* \"contracts/BusinessConsensus.sol\":6281:6287  voters */\n      0x08\n        /* \"contracts/BusinessConsensus.sol\":6251:6288  return (finalVerdict,proposal,voters) */\n      dup2\n      mload(0x40)\n      dup1\n      0xc0\n      add\n      0x40\n      mstore\n      swap1\n      dup2\n      0x00\n      dup3\n      add\n      sload\n      dup2\n      mstore\n      0x20\n      add\n      0x01\n      dup3\n      add\n      dup1\n      sload\n      tag_159\n      swap1\n      tag_109\n      jump\t// in\n    tag_159:\n      dup1\n      0x1f\n      add\n      0x20\n      dup1\n      swap2\n      div\n      mul\n      0x20\n      add\n      mload(0x40)\n      swap1\n      dup2\n      add\n      0x40\n      mstore\n      dup1\n      swap3\n      swap2\n      swap1\n      dup2\n      dup2\n      mstore\n      0x20\n      add\n      dup3\n      dup1\n      sload\n      tag_160\n      swap1\n      tag_109\n      jump\t// in\n    tag_160:\n      dup1\n      iszero\n      tag_161\n      jumpi\n      dup1\n      0x1f\n      lt\n      tag_162\n      jumpi\n      0x0100\n      dup1\n      dup4\n      sload\n      div\n      mul\n      dup4\n      mstore\n      swap2\n      0x20\n      add\n      swap2\n      jump(tag_161)\n    tag_162:\n      dup3\n      add\n      swap2\n      swap1\n      0x00\n      mstore\n      keccak256(0x00, 0x20)\n      swap1\n    tag_163:\n      dup2\n      sload\n      dup2\n      mstore\n      swap1\n      0x01\n      add\n      swap1\n      0x20\n      add\n      dup1\n      dup4\n      gt\n      tag_163\n      jumpi\n      dup3\n      swap1\n      sub\n      0x1f\n      and\n      dup3\n      add\n      swap2\n    tag_161:\n      pop\n      pop\n      pop\n      pop\n      pop\n      dup2\n      mstore\n      0x20\n      add\n      0x02\n      dup3\n      add\n      dup1\n      sload\n      tag_164\n      swap1\n      tag_109\n      jump\t// in\n    tag_164:\n      dup1\n      0x1f\n      add\n      0x20\n      dup1\n      swap2\n      div\n      mul\n      0x20\n      add\n      mload(0x40)\n      swap1\n      dup2\n      add\n      0x40\n      mstore\n      dup1\n      swap3\n      swap2\n      swap1\n      dup2\n      dup2\n      mstore\n      0x20\n      add\n      dup3\n      dup1\n      sload\n      tag_165\n      swap1\n      tag_109\n      jump\t// in\n    tag_165:\n      dup1\n      iszero\n      tag_166\n      jumpi\n      dup1\n      0x1f\n      lt\n      tag_167\n      jumpi\n      0x0100\n      dup1\n      dup4\n      sload\n      div\n      mul\n      dup4\n      mstore\n      swap2\n      0x20\n      add\n      swap2\n      jump(tag_166)\n    tag_167:\n      dup3\n      add\n      swap2\n      swap1\n      0x00\n      mstore\n      keccak256(0x00, 0x20)\n      swap1\n    tag_168:\n      dup2\n      sload\n      dup2\n      mstore\n      swap1\n      0x01\n      add\n      swap1\n      0x20\n      add\n      dup1\n      dup4\n      gt\n      tag_168\n      jumpi\n      dup3\n      swap1\n      sub\n      0x1f\n      and\n      dup3\n      add\n      swap2\n    tag_166:\n      pop\n      pop\n      pop\n      pop\n      pop\n      dup2\n      mstore\n      0x20\n      add\n      0x03\n      dup3\n      add\n      dup1\n      sload\n      tag_169\n      swap1\n      tag_109\n      jump\t// in\n    tag_169:\n      dup1\n      0x1f\n      add\n      0x20\n      dup1\n      swap2\n      div\n      mul\n      0x20\n      add\n      mload(0x40)\n      swap1\n      dup2\n      add\n      0x40\n      mstore\n      dup1\n      swap3\n      swap2\n      swap1\n      dup2\n      dup2\n      mstore\n      0x20\n      add\n      dup3\n      dup1\n      sload\n      tag_170\n      swap1\n      tag_109\n      jump\t// in\n    tag_170:\n      dup1\n      iszero\n      tag_171\n      jumpi\n      dup1\n      0x1f\n      lt\n      tag_172\n      jumpi\n      0x0100\n      dup1\n      dup4\n      sload\n      div\n      mul\n      dup4\n      mstore\n      swap2\n      0x20\n      add\n      swap2\n      jump(tag_171)\n    tag_172:\n      dup3\n      add\n      swap2\n      swap1\n      0x00\n      mstore\n      keccak256(0x00, 0x20)\n      swap1\n    tag_173:\n      dup2\n      sload\n      dup2\n      mstore\n      swap1\n      0x01\n      add\n      swap1\n      0x20\n      add\n      dup1\n      dup4\n      gt\n      tag_173\n      jumpi\n      dup3\n      swap1\n      sub\n      0x1f\n      and\n      dup3\n      add\n      swap2\n    tag_171:\n      pop\n      pop\n      pop\n      pop\n      pop\n      dup2\n      mstore\n      0x20\n      add\n      0x04\n      dup3\n      add\n      sload\n      dup2\n      mstore\n      0x20\n      add\n      0x05\n      dup3\n      add\n      sload\n      dup2\n      mstore\n      pop\n      pop\n      swap2\n      pop\n      dup1\n      dup1\n      sload\n      dup1\n      0x20\n      mul\n      0x20\n      add\n      mload(0x40)\n      swap1\n      dup2\n      add\n      0x40\n      mstore\n      dup1\n      swap3\n      swap2\n      swap1\n      dup2\n      dup2\n      mstore\n      0x20\n      add\n      0x00\n      swap1\n    tag_174:\n      dup3\n      dup3\n      lt\n      iszero\n      tag_175\n      jumpi\n      dup4\n      dup3\n      swap1\n      0x00\n      mstore\n      keccak256(0x00, 0x20)\n      add\n      mload(0x40)\n      dup1\n      0x60\n      add\n      0x40\n      mstore\n      swap1\n      dup2\n      0x00\n      dup3\n      add\n      0x00\n      swap1\n      sload\n      swap1\n      0x0100\n      exp\n      swap1\n      div\n      0xff\n      and\n      iszero\n      iszero\n      iszero\n      iszero\n      dup2\n      mstore\n      0x20\n      add\n      0x00\n      dup3\n      add\n      0x01\n      swap1\n      sload\n      swap1\n      0x0100\n      exp\n      swap1\n      div\n      0xff\n      and\n      iszero\n      iszero\n      iszero\n      iszero\n      dup2\n      mstore\n      0x20\n      add\n      0x00\n      dup3\n      add\n      0x02\n      swap1\n      sload\n      swap1\n      0x0100\n      exp\n      swap1\n      div\n      0xffffffffffffffffffffffffffffffffffffffff\n      and\n      0xffffffffffffffffffffffffffffffffffffffff\n      and\n      0xffffffffffffffffffffffffffffffffffffffff\n      and\n      dup2\n      mstore\n      pop\n      pop\n      dup2\n      mstore\n      0x20\n      add\n      swap1\n      0x01\n      add\n      swap1\n      jump(tag_174)\n    tag_175:\n      pop\n      pop\n      pop\n      pop\n      swap1\n      pop\n      swap3\n      pop\n      swap3\n      pop\n      swap3\n      pop\n        /* \"contracts/BusinessConsensus.sol\":6064:6306  function retrieve_bundle() external view returns (bytes32, Proposal memory, Voter[] memory){\r... */\n      swap1\n      swap2\n      swap3\n      jump\t// out\n        /* \"contracts/BusinessConsensus.sol\":5329:6056  function Consensus() external {\r... */\n    tag_66:\n        /* \"contracts/BusinessConsensus.sol\":5397:5407  expiryDate */\n      sload(0x03)\n        /* \"contracts/BusinessConsensus.sol\":5378:5393  block.timestamp */\n      timestamp\n        /* \"contracts/BusinessConsensus.sol\":5378:5407  block.timestamp >= expiryDate */\n      lt\n      iszero\n        /* \"contracts/BusinessConsensus.sol\":5370:5444  require(block.timestamp >= expiryDate, \"Verdict has not been reached yet\") */\n      tag_178\n      jumpi\n      mload(0x40)\n      0x08c379a000000000000000000000000000000000000000000000000000000000\n      dup2\n      mstore\n      0x04\n      add\n      tag_179\n      swap1\n      tag_158\n      jump\t// in\n    tag_179:\n      mload(0x40)\n      dup1\n      swap2\n      sub\n      swap1\n      revert\n    tag_178:\n        /* \"contracts/BusinessConsensus.sol\":5477:5482  false */\n      0x00\n        /* \"contracts/BusinessConsensus.sol\":5463:5482  isCompiled == false */\n      iszero\n      iszero\n        /* \"contracts/BusinessConsensus.sol\":5463:5473  isCompiled */\n      0x06\n      0x00\n      swap1\n      sload\n      swap1\n      0x0100\n      exp\n      swap1\n      div\n      0xff\n      and\n        /* \"contracts/BusinessConsensus.sol\":5463:5482  isCompiled == false */\n      iszero\n      iszero\n      eq\n        /* \"contracts/BusinessConsensus.sol\":5455:5524  require(isCompiled == false, \"Consensus has already been calculated\") */\n      tag_180\n      jumpi\n      mload(0x40)\n      0x08c379a000000000000000000000000000000000000000000000000000000000\n      dup2\n      mstore\n      0x04\n      add\n      tag_181\n      swap1\n      tag_182\n      jump\t// in\n    tag_181:\n      mload(0x40)\n      dup1\n      swap2\n      sub\n      swap1\n      revert\n    tag_180:\n        /* \"contracts/BusinessConsensus.sol\":5557:5566  initiator */\n      0x01\n      0x00\n      swap1\n      sload\n      swap1\n      0x0100\n      exp\n      swap1\n      div\n      0xffffffffffffffffffffffffffffffffffffffff\n      and\n        /* \"contracts/BusinessConsensus.sol\":5543:5566  msg.sender == initiator */\n      0xffffffffffffffffffffffffffffffffffffffff\n      and\n        /* \"contracts/BusinessConsensus.sol\":5543:5553  msg.sender */\n      caller\n        /* \"contracts/BusinessConsensus.sol\":5543:5566  msg.sender == initiator */\n      0xffffffffffffffffffffffffffffffffffffffff\n      and\n      eq\n        /* \"contracts/BusinessConsensus.sol\":5543:5618  msg.sender == initiator || voters_map[msg.sender].recipient != address(0x0) */\n      dup1\n      tag_183\n      jumpi\n      pop\n        /* \"contracts/BusinessConsensus.sol\":5614:5617  0x0 */\n      0x00\n        /* \"contracts/BusinessConsensus.sol\":5570:5618  voters_map[msg.sender].recipient != address(0x0) */\n      0xffffffffffffffffffffffffffffffffffffffff\n      and\n        /* \"contracts/BusinessConsensus.sol\":5570:5580  voters_map */\n      0x09\n        /* \"contracts/BusinessConsensus.sol\":5570:5592  voters_map[msg.sender] */\n      0x00\n        /* \"contracts/BusinessConsensus.sol\":5581:5591  msg.sender */\n      caller\n        /* \"contracts/BusinessConsensus.sol\":5570:5592  voters_map[msg.sender] */\n      0xffffffffffffffffffffffffffffffffffffffff\n      and\n      0xffffffffffffffffffffffffffffffffffffffff\n      and\n      dup2\n      mstore\n      0x20\n      add\n      swap1\n      dup2\n      mstore\n      0x20\n      add\n      0x00\n      keccak256\n        /* \"contracts/BusinessConsensus.sol\":5570:5602  voters_map[msg.sender].recipient */\n      0x00\n      add\n      0x02\n      swap1\n      sload\n      swap1\n      0x0100\n      exp\n      swap1\n      div\n      0xffffffffffffffffffffffffffffffffffffffff\n      and\n        /* \"contracts/BusinessConsensus.sol\":5570:5618  voters_map[msg.sender].recipient != address(0x0) */\n      0xffffffffffffffffffffffffffffffffffffffff\n      and\n      eq\n      iszero\n        /* \"contracts/BusinessConsensus.sol\":5543:5618  msg.sender == initiator || voters_map[msg.sender].recipient != address(0x0) */\n    tag_183:\n        /* \"contracts/BusinessConsensus.sol\":5535:5661  require(msg.sender == initiator || voters_map[msg.sender].recipient != address(0x0), \"You aren't authorize to compile Bundle\") */\n      tag_184\n      jumpi\n      mload(0x40)\n      0x08c379a000000000000000000000000000000000000000000000000000000000\n      dup2\n      mstore\n      0x04\n      add\n      tag_185\n      swap1\n      tag_186\n      jump\t// in\n    tag_185:\n      mload(0x40)\n      dup1\n      swap2\n      sub\n      swap1\n      revert\n    tag_184:\n        /* \"contracts/BusinessConsensus.sol\":5672:5701  uint256 AccumulatedPercentage */\n      0x00\n        /* \"contracts/BusinessConsensus.sol\":5731:5734  100 */\n      0x64\n        /* \"contracts/BusinessConsensus.sol\":5718:5722  keys */\n      0x02\n        /* \"contracts/BusinessConsensus.sol\":5718:5729  keys.length */\n      dup1\n      sload\n      swap1\n      pop\n        /* \"contracts/BusinessConsensus.sol\":5705:5717  numApprovals */\n      sload(0x05)\n        /* \"contracts/BusinessConsensus.sol\":5705:5729  numApprovals/keys.length */\n      tag_187\n      swap2\n      swap1\n      tag_188\n      jump\t// in\n    tag_187:\n        /* \"contracts/BusinessConsensus.sol\":5704:5734  (numApprovals/keys.length)*100 */\n      tag_189\n      swap2\n      swap1\n      tag_190\n      jump\t// in\n    tag_189:\n        /* \"contracts/BusinessConsensus.sol\":5672:5734  uint256 AccumulatedPercentage = (numApprovals/keys.length)*100 */\n      swap1\n      pop\n        /* \"contracts/BusinessConsensus.sol\":5773:5792  BusinessRequirement */\n      sload(0x04)\n        /* \"contracts/BusinessConsensus.sol\":5748:5769  AccumulatedPercentage */\n      dup2\n        /* \"contracts/BusinessConsensus.sol\":5748:5792  AccumulatedPercentage >= BusinessRequirement */\n      lt\n        /* \"contracts/BusinessConsensus.sol\":5745:5845  if(AccumulatedPercentage >= BusinessRequirement){\r... */\n      tag_191\n      jumpi\n        /* \"contracts/BusinessConsensus.sol\":5808:5833  finalVerdict = \"Accepted\" */\n      0x4163636570746564000000000000000000000000000000000000000000000000\n        /* \"contracts/BusinessConsensus.sol\":5808:5820  finalVerdict */\n      0x07\n        /* \"contracts/BusinessConsensus.sol\":5808:5833  finalVerdict = \"Accepted\" */\n      dup2\n      swap1\n      sstore\n      pop\n        /* \"contracts/BusinessConsensus.sol\":5745:5845  if(AccumulatedPercentage >= BusinessRequirement){\r... */\n    tag_191:\n        /* \"contracts/BusinessConsensus.sol\":5859:5866  uint8 i */\n      0x00\n        /* \"contracts/BusinessConsensus.sol\":5855:6021  for(uint8 i=0; i< keys.length; i++){\r... */\n    tag_192:\n        /* \"contracts/BusinessConsensus.sol\":5873:5877  keys */\n      0x02\n        /* \"contracts/BusinessConsensus.sol\":5873:5884  keys.length */\n      dup1\n      sload\n      swap1\n      pop\n        /* \"contracts/BusinessConsensus.sol\":5870:5871  i */\n      dup2\n        /* \"contracts/BusinessConsensus.sol\":5870:5884  i< keys.length */\n      0xff\n      and\n      lt\n        /* \"contracts/BusinessConsensus.sol\":5855:6021  for(uint8 i=0; i< keys.length; i++){\r... */\n      iszero\n      tag_193\n      jumpi\n        /* \"contracts/BusinessConsensus.sol\":5937:5942  false */\n      0x00\n        /* \"contracts/BusinessConsensus.sol\":5908:5942  voters_map[keys[i]].voted == false */\n      iszero\n      iszero\n        /* \"contracts/BusinessConsensus.sol\":5908:5918  voters_map */\n      0x09\n        /* \"contracts/BusinessConsensus.sol\":5908:5927  voters_map[keys[i]] */\n      0x00\n        /* \"contracts/BusinessConsensus.sol\":5919:5923  keys */\n      0x02\n        /* \"contracts/BusinessConsensus.sol\":5924:5925  i */\n      dup5\n        /* \"contracts/BusinessConsensus.sol\":5919:5926  keys[i] */\n      0xff\n      and\n      dup2\n      sload\n      dup2\n      lt\n      tag_195\n      jumpi\n      tag_196\n      tag_197\n      jump\t// in\n    tag_196:\n    tag_195:\n      swap1\n      0x00\n      mstore\n      keccak256(0x00, 0x20)\n      add\n      0x00\n      swap1\n      sload\n      swap1\n      0x0100\n      exp\n      swap1\n      div\n      0xffffffffffffffffffffffffffffffffffffffff\n      and\n        /* \"contracts/BusinessConsensus.sol\":5908:5927  voters_map[keys[i]] */\n      0xffffffffffffffffffffffffffffffffffffffff\n      and\n      0xffffffffffffffffffffffffffffffffffffffff\n      and\n      dup2\n      mstore\n      0x20\n      add\n      swap1\n      dup2\n      mstore\n      0x20\n      add\n      0x00\n      keccak256\n        /* \"contracts/BusinessConsensus.sol\":5908:5933  voters_map[keys[i]].voted */\n      0x00\n      add\n      0x00\n      swap1\n      sload\n      swap1\n      0x0100\n      exp\n      swap1\n      div\n      0xff\n      and\n        /* \"contracts/BusinessConsensus.sol\":5908:5942  voters_map[keys[i]].voted == false */\n      iszero\n      iszero\n      eq\n        /* \"contracts/BusinessConsensus.sol\":5905:6010  if(voters_map[keys[i]].voted == false){\r... */\n      iszero\n      tag_199\n      jumpi\n        /* \"contracts/BusinessConsensus.sol\":5962:5968  voters */\n      0x08\n        /* \"contracts/BusinessConsensus.sol\":5974:5984  voters_map */\n      0x09\n        /* \"contracts/BusinessConsensus.sol\":5974:5993  voters_map[keys[i]] */\n      0x00\n        /* \"contracts/BusinessConsensus.sol\":5985:5989  keys */\n      0x02\n        /* \"contracts/BusinessConsensus.sol\":5990:5991  i */\n      dup5\n        /* \"contracts/BusinessConsensus.sol\":5985:5992  keys[i] */\n      0xff\n      and\n      dup2\n      sload\n      dup2\n      lt\n      tag_200\n      jumpi\n      tag_201\n      tag_197\n      jump\t// in\n    tag_201:\n    tag_200:\n      swap1\n      0x00\n      mstore\n      keccak256(0x00, 0x20)\n      add\n      0x00\n      swap1\n      sload\n      swap1\n      0x0100\n      exp\n      swap1\n      div\n      0xffffffffffffffffffffffffffffffffffffffff\n      and\n        /* \"contracts/BusinessConsensus.sol\":5974:5993  voters_map[keys[i]] */\n      0xffffffffffffffffffffffffffffffffffffffff\n      and\n      0xffffffffffffffffffffffffffffffffffffffff\n      and\n      dup2\n      mstore\n      0x20\n      add\n      swap1\n      dup2\n      mstore\n      0x20\n      add\n      0x00\n      keccak256\n        /* \"contracts/BusinessConsensus.sol\":5962:5994  voters.push(voters_map[keys[i]]) */\n      swap1\n      dup1\n      0x01\n      dup2\n      sload\n      add\n      dup1\n      dup3\n      sstore\n      dup1\n      swap2\n      pop\n      pop\n      0x01\n      swap1\n      sub\n      swap1\n      0x00\n      mstore\n      keccak256(0x00, 0x20)\n      add\n      0x00\n      swap1\n      swap2\n      swap1\n      swap2\n      swap1\n      swap2\n      pop\n      0x00\n      dup3\n      add\n      0x00\n      swap1\n      sload\n      swap1\n      0x0100\n      exp\n      swap1\n      div\n      0xff\n      and\n      dup2\n      0x00\n      add\n      exp(0x0100, 0x00)\n      dup2\n      sload\n      dup2\n      0xff\n      mul\n      not\n      and\n      swap1\n      dup4\n      iszero\n      iszero\n      mul\n      or\n      swap1\n      sstore\n      pop\n      0x00\n      dup3\n      add\n      0x01\n      swap1\n      sload\n      swap1\n      0x0100\n      exp\n      swap1\n      div\n      0xff\n      and\n      dup2\n      0x00\n      add\n      exp(0x0100, 0x01)\n      dup2\n      sload\n      dup2\n      0xff\n      mul\n      not\n      and\n      swap1\n      dup4\n      iszero\n      iszero\n      mul\n      or\n      swap1\n      sstore\n      pop\n      0x00\n      dup3\n      add\n      0x02\n      swap1\n      sload\n      swap1\n      0x0100\n      exp\n      swap1\n      div\n      0xffffffffffffffffffffffffffffffffffffffff\n      and\n      dup2\n      0x00\n      add\n      exp(0x0100, 0x02)\n      dup2\n      sload\n      dup2\n      0xffffffffffffffffffffffffffffffffffffffff\n      mul\n      not\n      and\n      swap1\n      dup4\n      0xffffffffffffffffffffffffffffffffffffffff\n      and\n      mul\n      or\n      swap1\n      sstore\n      pop\n      pop\n      pop\n        /* \"contracts/BusinessConsensus.sol\":5905:6010  if(voters_map[keys[i]].voted == false){\r... */\n    tag_199:\n        /* \"contracts/BusinessConsensus.sol\":5886:5889  i++ */\n      dup1\n      dup1\n      tag_204\n      swap1\n      tag_205\n      jump\t// in\n    tag_204:\n      swap2\n      pop\n      pop\n        /* \"contracts/BusinessConsensus.sol\":5855:6021  for(uint8 i=0; i< keys.length; i++){\r... */\n      jump(tag_192)\n    tag_193:\n      pop\n        /* \"contracts/BusinessConsensus.sol\":6044:6048  true */\n      0x01\n        /* \"contracts/BusinessConsensus.sol\":6031:6041  isCompiled */\n      0x06\n      0x00\n        /* \"contracts/BusinessConsensus.sol\":6031:6048  isCompiled = true */\n      0x0100\n      exp\n      dup2\n      sload\n      dup2\n      0xff\n      mul\n      not\n      and\n      swap1\n      dup4\n      iszero\n      iszero\n      mul\n      or\n      swap1\n      sstore\n      pop\n        /* \"contracts/BusinessConsensus.sol\":5359:6056  {\r... */\n      pop\n        /* \"contracts/BusinessConsensus.sol\":5329:6056  function Consensus() external {\r... */\n      jump\t// out\n        /* \"contracts/BusinessConsensus.sol\":1098:1141  mapping(address => Voter) public voters_map */\n    tag_69:\n      mstore(0x20, 0x09)\n      dup1\n      0x00\n      mstore\n      keccak256(0x00, 0x40)\n      0x00\n      swap2\n      pop\n      swap1\n      pop\n      dup1\n      0x00\n      add\n      0x00\n      swap1\n      sload\n      swap1\n      0x0100\n      exp\n      swap1\n      div\n      0xff\n      and\n      swap1\n      dup1\n      0x00\n      add\n      0x01\n      swap1\n      sload\n      swap1\n      0x0100\n      exp\n      swap1\n      div\n      0xff\n      and\n      swap1\n      dup1\n      0x00\n      add\n      0x02\n      swap1\n      sload\n      swap1\n      0x0100\n      exp\n      swap1\n      div\n      0xffffffffffffffffffffffffffffffffffffffff\n      and\n      swap1\n      pop\n      dup4\n      jump\t// out\n        /* \"contracts/BusinessConsensus.sol\":2622:3410  function checkConsistency(string memory _subject, uint256 _businessRequirement, uint256 _expiryLength, bytes32 _contents) public view returns(bool, bool, bool){\r... */\n    tag_74:\n        /* \"contracts/BusinessConsensus.sol\":2764:2768  bool */\n      0x00\n        /* \"contracts/BusinessConsensus.sol\":2770:2774  bool */\n      dup1\n        /* \"contracts/BusinessConsensus.sol\":2776:2780  bool */\n      0x00\n        /* \"contracts/BusinessConsensus.sol\":2814:2823  initiator */\n      0x01\n      0x00\n      swap1\n      sload\n      swap1\n      0x0100\n      exp\n      swap1\n      div\n      0xffffffffffffffffffffffffffffffffffffffff\n      and\n        /* \"contracts/BusinessConsensus.sol\":2800:2823  msg.sender == initiator */\n      0xffffffffffffffffffffffffffffffffffffffff\n      and\n        /* \"contracts/BusinessConsensus.sol\":2800:2810  msg.sender */\n      caller\n        /* \"contracts/BusinessConsensus.sol\":2800:2823  msg.sender == initiator */\n      0xffffffffffffffffffffffffffffffffffffffff\n      and\n      eq\n        /* \"contracts/BusinessConsensus.sol\":2792:2848  require(msg.sender == initiator, \"You aren't Initiator\") */\n      tag_207\n      jumpi\n      mload(0x40)\n      0x08c379a000000000000000000000000000000000000000000000000000000000\n      dup2\n      mstore\n      0x04\n      add\n      tag_208\n      swap1\n      tag_209\n      jump\t// in\n    tag_208:\n      mload(0x40)\n      dup1\n      swap2\n      sub\n      swap1\n      revert\n    tag_207:\n        /* \"contracts/BusinessConsensus.sol\":2859:2870  bool value1 */\n      0x00\n        /* \"contracts/BusinessConsensus.sol\":2873:2877  true */\n      0x01\n        /* \"contracts/BusinessConsensus.sol\":2859:2877  bool value1 = true */\n      swap1\n      pop\n        /* \"contracts/BusinessConsensus.sol\":2888:2899  bool value2 */\n      0x00\n        /* \"contracts/BusinessConsensus.sol\":2902:2906  true */\n      0x01\n        /* \"contracts/BusinessConsensus.sol\":2888:2906  bool value2 = true */\n      swap1\n      pop\n        /* \"contracts/BusinessConsensus.sol\":2917:2928  bool value3 */\n      0x00\n        /* \"contracts/BusinessConsensus.sol\":2931:2935  true */\n      0x01\n        /* \"contracts/BusinessConsensus.sol\":2917:2935  bool value3 = true */\n      swap1\n      pop\n        /* \"contracts/BusinessConsensus.sol\":2970:2971  0 */\n      0x00\n        /* \"contracts/BusinessConsensus.sol\":2949:2972  initiator == address(0) */\n      0xffffffffffffffffffffffffffffffffffffffff\n      and\n        /* \"contracts/BusinessConsensus.sol\":2949:2958  initiator */\n      0x01\n      0x00\n      swap1\n      sload\n      swap1\n      0x0100\n      exp\n      swap1\n      div\n      0xffffffffffffffffffffffffffffffffffffffff\n      and\n        /* \"contracts/BusinessConsensus.sol\":2949:2972  initiator == address(0) */\n      0xffffffffffffffffffffffffffffffffffffffff\n      and\n      eq\n        /* \"contracts/BusinessConsensus.sol\":2946:3403  if(initiator == address(0)){\r... */\n      iszero\n      tag_210\n      jumpi\n        /* \"contracts/BusinessConsensus.sol\":2996:3000  true */\n      0x01\n        /* \"contracts/BusinessConsensus.sol\":3002:3006  true */\n      dup1\n        /* \"contracts/BusinessConsensus.sol\":3008:3012  true */\n      0x01\n        /* \"contracts/BusinessConsensus.sol\":2988:3013  return (true, true, true) */\n      swap6\n      pop\n      swap6\n      pop\n      swap6\n      pop\n      pop\n      pop\n      pop\n      jump(tag_206)\n        /* \"contracts/BusinessConsensus.sol\":2946:3403  if(initiator == address(0)){\r... */\n    tag_210:\n        /* \"contracts/BusinessConsensus.sol\":3081:3100  BusinessRequirement */\n      sload(0x04)\n        /* \"contracts/BusinessConsensus.sol\":3057:3077  _businessRequirement */\n      dup10\n        /* \"contracts/BusinessConsensus.sol\":3057:3100  _businessRequirement != BusinessRequirement */\n      eq\n        /* \"contracts/BusinessConsensus.sol\":3054:3150  if(_businessRequirement != BusinessRequirement){\r... */\n      tag_212\n      jumpi\n        /* \"contracts/BusinessConsensus.sol\":3129:3134  false */\n      0x00\n        /* \"contracts/BusinessConsensus.sol\":3120:3134  value1 = false */\n      swap3\n      pop\n        /* \"contracts/BusinessConsensus.sol\":3054:3150  if(_businessRequirement != BusinessRequirement){\r... */\n    tag_212:\n        /* \"contracts/BusinessConsensus.sol\":3180:3188  proposal */\n      0x0a\n        /* \"contracts/BusinessConsensus.sol\":3180:3197  proposal.contents */\n      0x04\n      add\n      sload\n        /* \"contracts/BusinessConsensus.sol\":3167:3176  _contents */\n      dup8\n        /* \"contracts/BusinessConsensus.sol\":3167:3197  _contents != proposal.contents */\n      eq\n        /* \"contracts/BusinessConsensus.sol\":3164:3247  if(_contents != proposal.contents){\r... */\n      tag_213\n      jumpi\n        /* \"contracts/BusinessConsensus.sol\":3226:3231  false */\n      0x00\n        /* \"contracts/BusinessConsensus.sol\":3217:3231  value2 = false */\n      swap2\n      pop\n        /* \"contracts/BusinessConsensus.sol\":3164:3247  if(_contents != proposal.contents){\r... */\n    tag_213:\n        /* \"contracts/BusinessConsensus.sol\":3289:3302  _expiryLength */\n      dup8\n        /* \"contracts/BusinessConsensus.sol\":3264:3272  proposal */\n      0x0a\n        /* \"contracts/BusinessConsensus.sol\":3264:3285  proposal.expiryLength */\n      0x05\n      add\n      sload\n        /* \"contracts/BusinessConsensus.sol\":3264:3302  proposal.expiryLength != _expiryLength */\n      eq\n        /* \"contracts/BusinessConsensus.sol\":3261:3352  if(proposal.expiryLength != _expiryLength){\r... */\n      tag_214\n      jumpi\n        /* \"contracts/BusinessConsensus.sol\":3331:3336  false */\n      0x00\n        /* \"contracts/BusinessConsensus.sol\":3322:3336  value3 = false */\n      swap1\n      pop\n        /* \"contracts/BusinessConsensus.sol\":3261:3352  if(proposal.expiryLength != _expiryLength){\r... */\n    tag_214:\n        /* \"contracts/BusinessConsensus.sol\":3370:3376  value1 */\n      dup3\n        /* \"contracts/BusinessConsensus.sol\":3377:3383  value2 */\n      dup3\n        /* \"contracts/BusinessConsensus.sol\":3384:3390  value3 */\n      dup3\n        /* \"contracts/BusinessConsensus.sol\":3362:3391  return (value1,value2,value3) */\n      swap6\n      pop\n      swap6\n      pop\n      swap6\n      pop\n      pop\n      pop\n      pop\n        /* \"contracts/BusinessConsensus.sol\":2622:3410  function checkConsistency(string memory _subject, uint256 _businessRequirement, uint256 _expiryLength, bytes32 _contents) public view returns(bool, bool, bool){\r... */\n    tag_206:\n      swap5\n      pop\n      swap5\n      pop\n      swap5\n      swap2\n      pop\n      pop\n      jump\t// out\n        /* \"contracts/BusinessConsensus.sol\":2233:2396  function getParameters() external view returns (string memory, uint , uint){\r... */\n    tag_78:\n        /* \"contracts/BusinessConsensus.sol\":2281:2294  string memory */\n      0x60\n        /* \"contracts/BusinessConsensus.sol\":2296:2300  uint */\n      0x00\n        /* \"contracts/BusinessConsensus.sol\":2303:2307  uint */\n      dup1\n        /* \"contracts/BusinessConsensus.sol\":2327:2335  proposal */\n      0x0a\n        /* \"contracts/BusinessConsensus.sol\":2327:2345  proposal.messageID */\n      0x01\n      add\n        /* \"contracts/BusinessConsensus.sol\":2346:2354  proposal */\n      0x0a\n        /* \"contracts/BusinessConsensus.sol\":2346:2367  proposal.expiryLength */\n      0x05\n      add\n      sload\n        /* \"contracts/BusinessConsensus.sol\":2368:2387  BusinessRequirement */\n      sload(0x04)\n        /* \"contracts/BusinessConsensus.sol\":2319:2388  return (proposal.messageID,proposal.expiryLength,BusinessRequirement) */\n      dup3\n      dup1\n      sload\n      tag_216\n      swap1\n      tag_109\n      jump\t// in\n    tag_216:\n      dup1\n      0x1f\n      add\n      0x20\n      dup1\n      swap2\n      div\n      mul\n      0x20\n      add\n      mload(0x40)\n      swap1\n      dup2\n      add\n      0x40\n      mstore\n      dup1\n      swap3\n      swap2\n      swap1\n      dup2\n      dup2\n      mstore\n      0x20\n      add\n      dup3\n      dup1\n      sload\n      tag_217\n      swap1\n      tag_109\n      jump\t// in\n    tag_217:\n      dup1\n      iszero\n      tag_218\n      jumpi\n      dup1\n      0x1f\n      lt\n      tag_219\n      jumpi\n      0x0100\n      dup1\n      dup4\n      sload\n      div\n      mul\n      dup4\n      mstore\n      swap2\n      0x20\n      add\n      swap2\n      jump(tag_218)\n    tag_219:\n      dup3\n      add\n      swap2\n      swap1\n      0x00\n      mstore\n      keccak256(0x00, 0x20)\n      swap1\n    tag_220:\n      dup2\n      sload\n      dup2\n      mstore\n      swap1\n      0x01\n      add\n      swap1\n      0x20\n      add\n      dup1\n      dup4\n      gt\n      tag_220\n      jumpi\n      dup3\n      swap1\n      sub\n      0x1f\n      and\n      dup3\n      add\n      swap2\n    tag_218:\n      pop\n      pop\n      pop\n      pop\n      pop\n      swap3\n      pop\n      swap3\n      pop\n      swap3\n      pop\n      swap3\n      pop\n        /* \"contracts/BusinessConsensus.sol\":2233:2396  function getParameters() external view returns (string memory, uint , uint){\r... */\n      swap1\n      swap2\n      swap3\n      jump\t// out\n        /* \"contracts/BusinessConsensus.sol\":917:951  uint256 public BusinessRequirement */\n    tag_82:\n      sload(0x04)\n      dup2\n      jump\t// out\n        /* \"contracts/BusinessConsensus.sol\":1068:1089  Voter[] public voters */\n    tag_86:\n      0x08\n      dup2\n      dup2\n      sload\n      dup2\n      lt\n      tag_221\n      jumpi\n      0x00\n      dup1\n      revert\n    tag_221:\n      swap1\n      0x00\n      mstore\n      keccak256(0x00, 0x20)\n      add\n      0x00\n      swap2\n      pop\n      swap1\n      pop\n      dup1\n      0x00\n      add\n      0x00\n      swap1\n      sload\n      swap1\n      0x0100\n      exp\n      swap1\n      div\n      0xff\n      and\n      swap1\n      dup1\n      0x00\n      add\n      0x01\n      swap1\n      sload\n      swap1\n      0x0100\n      exp\n      swap1\n      div\n      0xff\n      and\n      swap1\n      dup1\n      0x00\n      add\n      0x02\n      swap1\n      sload\n      swap1\n      0x0100\n      exp\n      swap1\n      div\n      0xffffffffffffffffffffffffffffffffffffffff\n      and\n      swap1\n      pop\n      dup4\n      jump\t// out\n        /* \"contracts/BusinessConsensus.sol\":708:738  address public contractAddress */\n    tag_89:\n      0x00\n      dup1\n      sload\n      swap1\n      0x0100\n      exp\n      swap1\n      div\n      0xffffffffffffffffffffffffffffffffffffffff\n      and\n      dup2\n      jump\t// out\n    tag_154:\n      mload(0x40)\n      dup1\n      0xc0\n      add\n      0x40\n      mstore\n      dup1\n      0x00\n      dup2\n      mstore\n      0x20\n      add\n      0x60\n      dup2\n      mstore\n      0x20\n      add\n      0x60\n      dup2\n      mstore\n      0x20\n      add\n      0x60\n      dup2\n      mstore\n      0x20\n      add\n      0x00\n      dup1\n      not\n      and\n      dup2\n      mstore\n      0x20\n      add\n      0x00\n      dup2\n      mstore\n      pop\n      swap1\n      jump\t// out\n        /* \"#utility.yul\":7:419   */\n    tag_224:\n        /* \"#utility.yul\":85:90   */\n      0x00\n        /* \"#utility.yul\":110:176   */\n      tag_226\n        /* \"#utility.yul\":126:175   */\n      tag_227\n        /* \"#utility.yul\":168:174   */\n      dup5\n        /* \"#utility.yul\":126:175   */\n      tag_228\n      jump\t// in\n    tag_227:\n        /* \"#utility.yul\":110:176   */\n      tag_229\n      jump\t// in\n    tag_226:\n        /* \"#utility.yul\":101:176   */\n      swap1\n      pop\n        /* \"#utility.yul\":199:205   */\n      dup3\n        /* \"#utility.yul\":192:197   */\n      dup2\n        /* \"#utility.yul\":185:206   */\n      mstore\n        /* \"#utility.yul\":237:241   */\n      0x20\n        /* \"#utility.yul\":230:235   */\n      dup2\n        /* \"#utility.yul\":226:242   */\n      add\n        /* \"#utility.yul\":275:278   */\n      dup5\n        /* \"#utility.yul\":266:272   */\n      dup5\n        /* \"#utility.yul\":261:264   */\n      dup5\n        /* \"#utility.yul\":257:273   */\n      add\n        /* \"#utility.yul\":254:279   */\n      gt\n        /* \"#utility.yul\":251:363   */\n      iszero\n      tag_230\n      jumpi\n        /* \"#utility.yul\":282:361   */\n      tag_231\n      tag_232\n      jump\t// in\n    tag_231:\n        /* \"#utility.yul\":251:363   */\n    tag_230:\n        /* \"#utility.yul\":372:413   */\n      tag_233\n        /* \"#utility.yul\":406:412   */\n      dup5\n        /* \"#utility.yul\":401:404   */\n      dup3\n        /* \"#utility.yul\":396:399   */\n      dup6\n        /* \"#utility.yul\":372:413   */\n      tag_234\n      jump\t// in\n    tag_233:\n        /* \"#utility.yul\":91:419   */\n      pop\n        /* \"#utility.yul\":7:419   */\n      swap4\n      swap3\n      pop\n      pop\n      pop\n      jump\t// out\n        /* \"#utility.yul\":425:564   */\n    tag_235:\n        /* \"#utility.yul\":471:476   */\n      0x00\n        /* \"#utility.yul\":509:515   */\n      dup2\n        /* \"#utility.yul\":496:516   */\n      calldataload\n        /* \"#utility.yul\":487:516   */\n      swap1\n      pop\n        /* \"#utility.yul\":525:558   */\n      tag_237\n        /* \"#utility.yul\":552:557   */\n      dup2\n        /* \"#utility.yul\":525:558   */\n      tag_238\n      jump\t// in\n    tag_237:\n        /* \"#utility.yul\":425:564   */\n      swap3\n      swap2\n      pop\n      pop\n      jump\t// out\n        /* \"#utility.yul\":570:709   */\n    tag_239:\n        /* \"#utility.yul\":616:621   */\n      0x00\n        /* \"#utility.yul\":654:660   */\n      dup2\n        /* \"#utility.yul\":641:661   */\n      calldataload\n        /* \"#utility.yul\":632:661   */\n      swap1\n      pop\n        /* \"#utility.yul\":670:703   */\n      tag_241\n        /* \"#utility.yul\":697:702   */\n      dup2\n        /* \"#utility.yul\":670:703   */\n      tag_242\n      jump\t// in\n    tag_241:\n        /* \"#utility.yul\":570:709   */\n      swap3\n      swap2\n      pop\n      pop\n      jump\t// out\n        /* \"#utility.yul\":729:1069   */\n    tag_243:\n        /* \"#utility.yul\":785:790   */\n      0x00\n        /* \"#utility.yul\":834:837   */\n      dup3\n        /* \"#utility.yul\":827:831   */\n      0x1f\n        /* \"#utility.yul\":819:825   */\n      dup4\n        /* \"#utility.yul\":815:832   */\n      add\n        /* \"#utility.yul\":811:838   */\n      slt\n        /* \"#utility.yul\":801:923   */\n      tag_245\n      jumpi\n        /* \"#utility.yul\":842:921   */\n      tag_246\n      tag_247\n      jump\t// in\n    tag_246:\n        /* \"#utility.yul\":801:923   */\n    tag_245:\n        /* \"#utility.yul\":959:965   */\n      dup2\n        /* \"#utility.yul\":946:966   */\n      calldataload\n        /* \"#utility.yul\":984:1063   */\n      tag_248\n        /* \"#utility.yul\":1059:1062   */\n      dup5\n        /* \"#utility.yul\":1051:1057   */\n      dup3\n        /* \"#utility.yul\":1044:1048   */\n      0x20\n        /* \"#utility.yul\":1036:1042   */\n      dup7\n        /* \"#utility.yul\":1032:1049   */\n      add\n        /* \"#utility.yul\":984:1063   */\n      tag_224\n      jump\t// in\n    tag_248:\n        /* \"#utility.yul\":975:1063   */\n      swap2\n      pop\n        /* \"#utility.yul\":791:1069   */\n      pop\n        /* \"#utility.yul\":729:1069   */\n      swap3\n      swap2\n      pop\n      pop\n      jump\t// out\n        /* \"#utility.yul\":1075:1214   */\n    tag_249:\n        /* \"#utility.yul\":1121:1126   */\n      0x00\n        /* \"#utility.yul\":1159:1165   */\n      dup2\n        /* \"#utility.yul\":1146:1166   */\n      calldataload\n        /* \"#utility.yul\":1137:1166   */\n      swap1\n      pop\n        /* \"#utility.yul\":1175:1208   */\n      tag_251\n        /* \"#utility.yul\":1202:1207   */\n      dup2\n        /* \"#utility.yul\":1175:1208   */\n      tag_252\n      jump\t// in\n    tag_251:\n        /* \"#utility.yul\":1075:1214   */\n      swap3\n      swap2\n      pop\n      pop\n      jump\t// out\n        /* \"#utility.yul\":1220:1549   */\n    tag_31:\n        /* \"#utility.yul\":1279:1285   */\n      0x00\n        /* \"#utility.yul\":1328:1330   */\n      0x20\n        /* \"#utility.yul\":1316:1325   */\n      dup3\n        /* \"#utility.yul\":1307:1314   */\n      dup5\n        /* \"#utility.yul\":1303:1326   */\n      sub\n        /* \"#utility.yul\":1299:1331   */\n      slt\n        /* \"#utility.yul\":1296:1415   */\n      iszero\n      tag_254\n      jumpi\n        /* \"#utility.yul\":1334:1413   */\n      tag_255\n      tag_256\n      jump\t// in\n    tag_255:\n        /* \"#utility.yul\":1296:1415   */\n    tag_254:\n        /* \"#utility.yul\":1454:1455   */\n      0x00\n        /* \"#utility.yul\":1479:1532   */\n      tag_257\n        /* \"#utility.yul\":1524:1531   */\n      dup5\n        /* \"#utility.yul\":1515:1521   */\n      dup3\n        /* \"#utility.yul\":1504:1513   */\n      dup6\n        /* \"#utility.yul\":1500:1522   */\n      add\n        /* \"#utility.yul\":1479:1532   */\n      tag_235\n      jump\t// in\n    tag_257:\n        /* \"#utility.yul\":1469:1532   */\n      swap2\n      pop\n        /* \"#utility.yul\":1425:1542   */\n      pop\n        /* \"#utility.yul\":1220:1549   */\n      swap3\n      swap2\n      pop\n      pop\n      jump\t// out\n        /* \"#utility.yul\":1555:2064   */\n    tag_39:\n        /* \"#utility.yul\":1624:1630   */\n      0x00\n        /* \"#utility.yul\":1673:1675   */\n      0x20\n        /* \"#utility.yul\":1661:1670   */\n      dup3\n        /* \"#utility.yul\":1652:1659   */\n      dup5\n        /* \"#utility.yul\":1648:1671   */\n      sub\n        /* \"#utility.yul\":1644:1676   */\n      slt\n        /* \"#utility.yul\":1641:1760   */\n      iszero\n      tag_259\n      jumpi\n        /* \"#utility.yul\":1679:1758   */\n      tag_260\n      tag_256\n      jump\t// in\n    tag_260:\n        /* \"#utility.yul\":1641:1760   */\n    tag_259:\n        /* \"#utility.yul\":1827:1828   */\n      0x00\n        /* \"#utility.yul\":1816:1825   */\n      dup3\n        /* \"#utility.yul\":1812:1829   */\n      add\n        /* \"#utility.yul\":1799:1830   */\n      calldataload\n        /* \"#utility.yul\":1857:1875   */\n      0xffffffffffffffff\n        /* \"#utility.yul\":1849:1855   */\n      dup2\n        /* \"#utility.yul\":1846:1876   */\n      gt\n        /* \"#utility.yul\":1843:1960   */\n      iszero\n      tag_261\n      jumpi\n        /* \"#utility.yul\":1879:1958   */\n      tag_262\n      tag_263\n      jump\t// in\n    tag_262:\n        /* \"#utility.yul\":1843:1960   */\n    tag_261:\n        /* \"#utility.yul\":1984:2047   */\n      tag_264\n        /* \"#utility.yul\":2039:2046   */\n      dup5\n        /* \"#utility.yul\":2030:2036   */\n      dup3\n        /* \"#utility.yul\":2019:2028   */\n      dup6\n        /* \"#utility.yul\":2015:2037   */\n      add\n        /* \"#utility.yul\":1984:2047   */\n      tag_243\n      jump\t// in\n    tag_264:\n        /* \"#utility.yul\":1974:2047   */\n      swap2\n      pop\n        /* \"#utility.yul\":1770:2057   */\n      pop\n        /* \"#utility.yul\":1555:2064   */\n      swap3\n      swap2\n      pop\n      pop\n      jump\t// out\n        /* \"#utility.yul\":2070:3015   */\n    tag_73:\n        /* \"#utility.yul\":2166:2172   */\n      0x00\n        /* \"#utility.yul\":2174:2180   */\n      dup1\n        /* \"#utility.yul\":2182:2188   */\n      0x00\n        /* \"#utility.yul\":2190:2196   */\n      dup1\n        /* \"#utility.yul\":2239:2242   */\n      0x80\n        /* \"#utility.yul\":2227:2236   */\n      dup6\n        /* \"#utility.yul\":2218:2225   */\n      dup8\n        /* \"#utility.yul\":2214:2237   */\n      sub\n        /* \"#utility.yul\":2210:2243   */\n      slt\n        /* \"#utility.yul\":2207:2327   */\n      iszero\n      tag_266\n      jumpi\n        /* \"#utility.yul\":2246:2325   */\n      tag_267\n      tag_256\n      jump\t// in\n    tag_267:\n        /* \"#utility.yul\":2207:2327   */\n    tag_266:\n        /* \"#utility.yul\":2394:2395   */\n      0x00\n        /* \"#utility.yul\":2383:2392   */\n      dup6\n        /* \"#utility.yul\":2379:2396   */\n      add\n        /* \"#utility.yul\":2366:2397   */\n      calldataload\n        /* \"#utility.yul\":2424:2442   */\n      0xffffffffffffffff\n        /* \"#utility.yul\":2416:2422   */\n      dup2\n        /* \"#utility.yul\":2413:2443   */\n      gt\n        /* \"#utility.yul\":2410:2527   */\n      iszero\n      tag_268\n      jumpi\n        /* \"#utility.yul\":2446:2525   */\n      tag_269\n      tag_263\n      jump\t// in\n    tag_269:\n        /* \"#utility.yul\":2410:2527   */\n    tag_268:\n        /* \"#utility.yul\":2551:2614   */\n      tag_270\n        /* \"#utility.yul\":2606:2613   */\n      dup8\n        /* \"#utility.yul\":2597:2603   */\n      dup3\n        /* \"#utility.yul\":2586:2595   */\n      dup9\n        /* \"#utility.yul\":2582:2604   */\n      add\n        /* \"#utility.yul\":2551:2614   */\n      tag_243\n      jump\t// in\n    tag_270:\n        /* \"#utility.yul\":2541:2614   */\n      swap5\n      pop\n        /* \"#utility.yul\":2337:2624   */\n      pop\n        /* \"#utility.yul\":2663:2665   */\n      0x20\n        /* \"#utility.yul\":2689:2742   */\n      tag_271\n        /* \"#utility.yul\":2734:2741   */\n      dup8\n        /* \"#utility.yul\":2725:2731   */\n      dup3\n        /* \"#utility.yul\":2714:2723   */\n      dup9\n        /* \"#utility.yul\":2710:2732   */\n      add\n        /* \"#utility.yul\":2689:2742   */\n      tag_249\n      jump\t// in\n    tag_271:\n        /* \"#utility.yul\":2679:2742   */\n      swap4\n      pop\n        /* \"#utility.yul\":2634:2752   */\n      pop\n        /* \"#utility.yul\":2791:2793   */\n      0x40\n        /* \"#utility.yul\":2817:2870   */\n      tag_272\n        /* \"#utility.yul\":2862:2869   */\n      dup8\n        /* \"#utility.yul\":2853:2859   */\n      dup3\n        /* \"#utility.yul\":2842:2851   */\n      dup9\n        /* \"#utility.yul\":2838:2860   */\n      add\n        /* \"#utility.yul\":2817:2870   */\n      tag_249\n      jump\t// in\n    tag_272:\n        /* \"#utility.yul\":2807:2870   */\n      swap3\n      pop\n        /* \"#utility.yul\":2762:2880   */\n      pop\n        /* \"#utility.yul\":2919:2921   */\n      0x60\n        /* \"#utility.yul\":2945:2998   */\n      tag_273\n        /* \"#utility.yul\":2990:2997   */\n      dup8\n        /* \"#utility.yul\":2981:2987   */\n      dup3\n        /* \"#utility.yul\":2970:2979   */\n      dup9\n        /* \"#utility.yul\":2966:2988   */\n      add\n        /* \"#utility.yul\":2945:2998   */\n      tag_239\n      jump\t// in\n    tag_273:\n        /* \"#utility.yul\":2935:2998   */\n      swap2\n      pop\n        /* \"#utility.yul\":2890:3008   */\n      pop\n        /* \"#utility.yul\":2070:3015   */\n      swap3\n      swap6\n      swap2\n      swap5\n      pop\n      swap3\n      pop\n      jump\t// out\n        /* \"#utility.yul\":3021:3350   */\n    tag_25:\n        /* \"#utility.yul\":3080:3086   */\n      0x00\n        /* \"#utility.yul\":3129:3131   */\n      0x20\n        /* \"#utility.yul\":3117:3126   */\n      dup3\n        /* \"#utility.yul\":3108:3115   */\n      dup5\n        /* \"#utility.yul\":3104:3127   */\n      sub\n        /* \"#utility.yul\":3100:3132   */\n      slt\n        /* \"#utility.yul\":3097:3216   */\n      iszero\n      tag_275\n      jumpi\n        /* \"#utility.yul\":3135:3214   */\n      tag_276\n      tag_256\n      jump\t// in\n    tag_276:\n        /* \"#utility.yul\":3097:3216   */\n    tag_275:\n        /* \"#utility.yul\":3255:3256   */\n      0x00\n        /* \"#utility.yul\":3280:3333   */\n      tag_277\n        /* \"#utility.yul\":3325:3332   */\n      dup5\n        /* \"#utility.yul\":3316:3322   */\n      dup3\n        /* \"#utility.yul\":3305:3314   */\n      dup6\n        /* \"#utility.yul\":3301:3323   */\n      add\n        /* \"#utility.yul\":3280:3333   */\n      tag_249\n      jump\t// in\n    tag_277:\n        /* \"#utility.yul\":3270:3333   */\n      swap2\n      pop\n        /* \"#utility.yul\":3226:3343   */\n      pop\n        /* \"#utility.yul\":3021:3350   */\n      swap3\n      swap2\n      pop\n      pop\n      jump\t// out\n        /* \"#utility.yul\":3356:3615   */\n    tag_278:\n        /* \"#utility.yul\":3465:3475   */\n      0x00\n        /* \"#utility.yul\":3486:3572   */\n      tag_280\n        /* \"#utility.yul\":3568:3571   */\n      dup4\n        /* \"#utility.yul\":3560:3566   */\n      dup4\n        /* \"#utility.yul\":3486:3572   */\n      tag_281\n      jump\t// in\n    tag_280:\n        /* \"#utility.yul\":3604:3608   */\n      0x60\n        /* \"#utility.yul\":3599:3602   */\n      dup4\n        /* \"#utility.yul\":3595:3609   */\n      add\n        /* \"#utility.yul\":3581:3609   */\n      swap1\n      pop\n        /* \"#utility.yul\":3356:3615   */\n      swap3\n      swap2\n      pop\n      pop\n      jump\t// out\n        /* \"#utility.yul\":3621:3729   */\n    tag_282:\n        /* \"#utility.yul\":3698:3722   */\n      tag_284\n        /* \"#utility.yul\":3716:3721   */\n      dup2\n        /* \"#utility.yul\":3698:3722   */\n      tag_285\n      jump\t// in\n    tag_284:\n        /* \"#utility.yul\":3693:3696   */\n      dup3\n        /* \"#utility.yul\":3686:3723   */\n      mstore\n        /* \"#utility.yul\":3621:3729   */\n      pop\n      pop\n      jump\t// out\n        /* \"#utility.yul\":3735:3853   */\n    tag_286:\n        /* \"#utility.yul\":3822:3846   */\n      tag_288\n        /* \"#utility.yul\":3840:3845   */\n      dup2\n        /* \"#utility.yul\":3822:3846   */\n      tag_285\n      jump\t// in\n    tag_288:\n        /* \"#utility.yul\":3817:3820   */\n      dup3\n        /* \"#utility.yul\":3810:3847   */\n      mstore\n        /* \"#utility.yul\":3735:3853   */\n      pop\n      pop\n      jump\t// out\n        /* \"#utility.yul\":3935:4827   */\n    tag_289:\n        /* \"#utility.yul\":4094:4097   */\n      0x00\n        /* \"#utility.yul\":4123:4197   */\n      tag_291\n        /* \"#utility.yul\":4191:4196   */\n      dup3\n        /* \"#utility.yul\":4123:4197   */\n      tag_292\n      jump\t// in\n    tag_291:\n        /* \"#utility.yul\":4213:4319   */\n      tag_293\n        /* \"#utility.yul\":4312:4318   */\n      dup2\n        /* \"#utility.yul\":4307:4310   */\n      dup6\n        /* \"#utility.yul\":4213:4319   */\n      tag_294\n      jump\t// in\n    tag_293:\n        /* \"#utility.yul\":4206:4319   */\n      swap4\n      pop\n        /* \"#utility.yul\":4343:4419   */\n      tag_295\n        /* \"#utility.yul\":4413:4418   */\n      dup4\n        /* \"#utility.yul\":4343:4419   */\n      tag_296\n      jump\t// in\n    tag_295:\n        /* \"#utility.yul\":4442:4449   */\n      dup1\n        /* \"#utility.yul\":4473:4474   */\n      0x00\n        /* \"#utility.yul\":4458:4802   */\n    tag_297:\n        /* \"#utility.yul\":4483:4489   */\n      dup4\n        /* \"#utility.yul\":4480:4481   */\n      dup2\n        /* \"#utility.yul\":4477:4490   */\n      lt\n        /* \"#utility.yul\":4458:4802   */\n      iszero\n      tag_299\n      jumpi\n        /* \"#utility.yul\":4559:4565   */\n      dup2\n        /* \"#utility.yul\":4553:4566   */\n      mload\n        /* \"#utility.yul\":4586:4689   */\n      tag_300\n        /* \"#utility.yul\":4685:4688   */\n      dup9\n        /* \"#utility.yul\":4670:4683   */\n      dup3\n        /* \"#utility.yul\":4586:4689   */\n      tag_278\n      jump\t// in\n    tag_300:\n        /* \"#utility.yul\":4579:4689   */\n      swap8\n      pop\n        /* \"#utility.yul\":4712:4792   */\n      tag_301\n        /* \"#utility.yul\":4785:4791   */\n      dup4\n        /* \"#utility.yul\":4712:4792   */\n      tag_302\n      jump\t// in\n    tag_301:\n        /* \"#utility.yul\":4702:4792   */\n      swap3\n      pop\n        /* \"#utility.yul\":4518:4802   */\n      pop\n        /* \"#utility.yul\":4505:4506   */\n      0x01\n        /* \"#utility.yul\":4502:4503   */\n      dup2\n        /* \"#utility.yul\":4498:4507   */\n      add\n        /* \"#utility.yul\":4493:4507   */\n      swap1\n      pop\n        /* \"#utility.yul\":4458:4802   */\n      jump(tag_297)\n    tag_299:\n        /* \"#utility.yul\":4462:4476   */\n      pop\n        /* \"#utility.yul\":4818:4821   */\n      dup6\n        /* \"#utility.yul\":4811:4821   */\n      swap4\n      pop\n        /* \"#utility.yul\":4099:4827   */\n      pop\n      pop\n      pop\n        /* \"#utility.yul\":3935:4827   */\n      swap3\n      swap2\n      pop\n      pop\n      jump\t// out\n        /* \"#utility.yul\":4833:4932   */\n    tag_303:\n        /* \"#utility.yul\":4904:4925   */\n      tag_305\n        /* \"#utility.yul\":4919:4924   */\n      dup2\n        /* \"#utility.yul\":4904:4925   */\n      tag_306\n      jump\t// in\n    tag_305:\n        /* \"#utility.yul\":4899:4902   */\n      dup3\n        /* \"#utility.yul\":4892:4926   */\n      mstore\n        /* \"#utility.yul\":4833:4932   */\n      pop\n      pop\n      jump\t// out\n        /* \"#utility.yul\":4938:5047   */\n    tag_307:\n        /* \"#utility.yul\":5019:5040   */\n      tag_309\n        /* \"#utility.yul\":5034:5039   */\n      dup2\n        /* \"#utility.yul\":5019:5040   */\n      tag_306\n      jump\t// in\n    tag_309:\n        /* \"#utility.yul\":5014:5017   */\n      dup3\n        /* \"#utility.yul\":5007:5041   */\n      mstore\n        /* \"#utility.yul\":4938:5047   */\n      pop\n      pop\n      jump\t// out\n        /* \"#utility.yul\":5053:5161   */\n    tag_310:\n        /* \"#utility.yul\":5130:5154   */\n      tag_312\n        /* \"#utility.yul\":5148:5153   */\n      dup2\n        /* \"#utility.yul\":5130:5154   */\n      tag_313\n      jump\t// in\n    tag_312:\n        /* \"#utility.yul\":5125:5128   */\n      dup3\n        /* \"#utility.yul\":5118:5155   */\n      mstore\n        /* \"#utility.yul\":5053:5161   */\n      pop\n      pop\n      jump\t// out\n        /* \"#utility.yul\":5167:5285   */\n    tag_314:\n        /* \"#utility.yul\":5254:5278   */\n      tag_316\n        /* \"#utility.yul\":5272:5277   */\n      dup2\n        /* \"#utility.yul\":5254:5278   */\n      tag_313\n      jump\t// in\n    tag_316:\n        /* \"#utility.yul\":5249:5252   */\n      dup3\n        /* \"#utility.yul\":5242:5279   */\n      mstore\n        /* \"#utility.yul\":5167:5285   */\n      pop\n      pop\n      jump\t// out\n        /* \"#utility.yul\":5291:5635   */\n    tag_317:\n        /* \"#utility.yul\":5369:5372   */\n      0x00\n        /* \"#utility.yul\":5397:5436   */\n      tag_319\n        /* \"#utility.yul\":5430:5435   */\n      dup3\n        /* \"#utility.yul\":5397:5436   */\n      tag_320\n      jump\t// in\n    tag_319:\n        /* \"#utility.yul\":5452:5513   */\n      tag_321\n        /* \"#utility.yul\":5506:5512   */\n      dup2\n        /* \"#utility.yul\":5501:5504   */\n      dup6\n        /* \"#utility.yul\":5452:5513   */\n      tag_322\n      jump\t// in\n    tag_321:\n        /* \"#utility.yul\":5445:5513   */\n      swap4\n      pop\n        /* \"#utility.yul\":5522:5574   */\n      tag_323\n        /* \"#utility.yul\":5567:5573   */\n      dup2\n        /* \"#utility.yul\":5562:5565   */\n      dup6\n        /* \"#utility.yul\":5555:5559   */\n      0x20\n        /* \"#utility.yul\":5548:5553   */\n      dup7\n        /* \"#utility.yul\":5544:5560   */\n      add\n        /* \"#utility.yul\":5522:5574   */\n      tag_324\n      jump\t// in\n    tag_323:\n        /* \"#utility.yul\":5599:5628   */\n      tag_325\n        /* \"#utility.yul\":5621:5627   */\n      dup2\n        /* \"#utility.yul\":5599:5628   */\n      tag_326\n      jump\t// in\n    tag_325:\n        /* \"#utility.yul\":5594:5597   */\n      dup5\n        /* \"#utility.yul\":5590:5629   */\n      add\n        /* \"#utility.yul\":5583:5629   */\n      swap2\n      pop\n        /* \"#utility.yul\":5373:5635   */\n      pop\n        /* \"#utility.yul\":5291:5635   */\n      swap3\n      swap2\n      pop\n      pop\n      jump\t// out\n        /* \"#utility.yul\":5641:6005   */\n    tag_327:\n        /* \"#utility.yul\":5729:5732   */\n      0x00\n        /* \"#utility.yul\":5757:5796   */\n      tag_329\n        /* \"#utility.yul\":5790:5795   */\n      dup3\n        /* \"#utility.yul\":5757:5796   */\n      tag_320\n      jump\t// in\n    tag_329:\n        /* \"#utility.yul\":5812:5883   */\n      tag_330\n        /* \"#utility.yul\":5876:5882   */\n      dup2\n        /* \"#utility.yul\":5871:5874   */\n      dup6\n        /* \"#utility.yul\":5812:5883   */\n      tag_331\n      jump\t// in\n    tag_330:\n        /* \"#utility.yul\":5805:5883   */\n      swap4\n      pop\n        /* \"#utility.yul\":5892:5944   */\n      tag_332\n        /* \"#utility.yul\":5937:5943   */\n      dup2\n        /* \"#utility.yul\":5932:5935   */\n      dup6\n        /* \"#utility.yul\":5925:5929   */\n      0x20\n        /* \"#utility.yul\":5918:5923   */\n      dup7\n        /* \"#utility.yul\":5914:5930   */\n      add\n        /* \"#utility.yul\":5892:5944   */\n      tag_324\n      jump\t// in\n    tag_332:\n        /* \"#utility.yul\":5969:5998   */\n      tag_333\n        /* \"#utility.yul\":5991:5997   */\n      dup2\n        /* \"#utility.yul\":5969:5998   */\n      tag_326\n      jump\t// in\n    tag_333:\n        /* \"#utility.yul\":5964:5967   */\n      dup5\n        /* \"#utility.yul\":5960:5999   */\n      add\n        /* \"#utility.yul\":5953:5999   */\n      swap2\n      pop\n        /* \"#utility.yul\":5733:6005   */\n      pop\n        /* \"#utility.yul\":5641:6005   */\n      swap3\n      swap2\n      pop\n      pop\n      jump\t// out\n        /* \"#utility.yul\":6011:6377   */\n    tag_334:\n        /* \"#utility.yul\":6153:6156   */\n      0x00\n        /* \"#utility.yul\":6174:6241   */\n      tag_336\n        /* \"#utility.yul\":6238:6240   */\n      0x1f\n        /* \"#utility.yul\":6233:6236   */\n      dup4\n        /* \"#utility.yul\":6174:6241   */\n      tag_331\n      jump\t// in\n    tag_336:\n        /* \"#utility.yul\":6167:6241   */\n      swap2\n      pop\n        /* \"#utility.yul\":6250:6343   */\n      tag_337\n        /* \"#utility.yul\":6339:6342   */\n      dup3\n        /* \"#utility.yul\":6250:6343   */\n      tag_338\n      jump\t// in\n    tag_337:\n        /* \"#utility.yul\":6368:6370   */\n      0x20\n        /* \"#utility.yul\":6363:6366   */\n      dup3\n        /* \"#utility.yul\":6359:6371   */\n      add\n        /* \"#utility.yul\":6352:6371   */\n      swap1\n      pop\n        /* \"#utility.yul\":6011:6377   */\n      swap2\n      swap1\n      pop\n      jump\t// out\n        /* \"#utility.yul\":6383:6749   */\n    tag_339:\n        /* \"#utility.yul\":6525:6528   */\n      0x00\n        /* \"#utility.yul\":6546:6613   */\n      tag_341\n        /* \"#utility.yul\":6610:6612   */\n      0x26\n        /* \"#utility.yul\":6605:6608   */\n      dup4\n        /* \"#utility.yul\":6546:6613   */\n      tag_331\n      jump\t// in\n    tag_341:\n        /* \"#utility.yul\":6539:6613   */\n      swap2\n      pop\n        /* \"#utility.yul\":6622:6715   */\n      tag_342\n        /* \"#utility.yul\":6711:6714   */\n      dup3\n        /* \"#utility.yul\":6622:6715   */\n      tag_343\n      jump\t// in\n    tag_342:\n        /* \"#utility.yul\":6740:6742   */\n      0x40\n        /* \"#utility.yul\":6735:6738   */\n      dup3\n        /* \"#utility.yul\":6731:6743   */\n      add\n        /* \"#utility.yul\":6724:6743   */\n      swap1\n      pop\n        /* \"#utility.yul\":6383:6749   */\n      swap2\n      swap1\n      pop\n      jump\t// out\n        /* \"#utility.yul\":6755:7121   */\n    tag_344:\n        /* \"#utility.yul\":6897:6900   */\n      0x00\n        /* \"#utility.yul\":6918:6985   */\n      tag_346\n        /* \"#utility.yul\":6982:6984   */\n      0x1c\n        /* \"#utility.yul\":6977:6980   */\n      dup4\n        /* \"#utility.yul\":6918:6985   */\n      tag_331\n      jump\t// in\n    tag_346:\n        /* \"#utility.yul\":6911:6985   */\n      swap2\n      pop\n        /* \"#utility.yul\":6994:7087   */\n      tag_347\n        /* \"#utility.yul\":7083:7086   */\n      dup3\n        /* \"#utility.yul\":6994:7087   */\n      tag_348\n      jump\t// in\n    tag_347:\n        /* \"#utility.yul\":7112:7114   */\n      0x20\n        /* \"#utility.yul\":7107:7110   */\n      dup3\n        /* \"#utility.yul\":7103:7115   */\n      add\n        /* \"#utility.yul\":7096:7115   */\n      swap1\n      pop\n        /* \"#utility.yul\":6755:7121   */\n      swap2\n      swap1\n      pop\n      jump\t// out\n        /* \"#utility.yul\":7127:7493   */\n    tag_349:\n        /* \"#utility.yul\":7269:7272   */\n      0x00\n        /* \"#utility.yul\":7290:7357   */\n      tag_351\n        /* \"#utility.yul\":7354:7356   */\n      0x15\n        /* \"#utility.yul\":7349:7352   */\n      dup4\n        /* \"#utility.yul\":7290:7357   */\n      tag_331\n      jump\t// in\n    tag_351:\n        /* \"#utility.yul\":7283:7357   */\n      swap2\n      pop\n        /* \"#utility.yul\":7366:7459   */\n      tag_352\n        /* \"#utility.yul\":7455:7458   */\n      dup3\n        /* \"#utility.yul\":7366:7459   */\n      tag_353\n      jump\t// in\n    tag_352:\n        /* \"#utility.yul\":7484:7486   */\n      0x20\n        /* \"#utility.yul\":7479:7482   */\n      dup3\n        /* \"#utility.yul\":7475:7487   */\n      add\n        /* \"#utility.yul\":7468:7487   */\n      swap1\n      pop\n        /* \"#utility.yul\":7127:7493   */\n      swap2\n      swap1\n      pop\n      jump\t// out\n        /* \"#utility.yul\":7499:7865   */\n    tag_354:\n        /* \"#utility.yul\":7641:7644   */\n      0x00\n        /* \"#utility.yul\":7662:7729   */\n      tag_356\n        /* \"#utility.yul\":7726:7728   */\n      0x1e\n        /* \"#utility.yul\":7721:7724   */\n      dup4\n        /* \"#utility.yul\":7662:7729   */\n      tag_331\n      jump\t// in\n    tag_356:\n        /* \"#utility.yul\":7655:7729   */\n      swap2\n      pop\n        /* \"#utility.yul\":7738:7831   */\n      tag_357\n        /* \"#utility.yul\":7827:7830   */\n      dup3\n        /* \"#utility.yul\":7738:7831   */\n      tag_358\n      jump\t// in\n    tag_357:\n        /* \"#utility.yul\":7856:7858   */\n      0x20\n        /* \"#utility.yul\":7851:7854   */\n      dup3\n        /* \"#utility.yul\":7847:7859   */\n      add\n        /* \"#utility.yul\":7840:7859   */\n      swap1\n      pop\n        /* \"#utility.yul\":7499:7865   */\n      swap2\n      swap1\n      pop\n      jump\t// out\n        /* \"#utility.yul\":7871:8237   */\n    tag_359:\n        /* \"#utility.yul\":8013:8016   */\n      0x00\n        /* \"#utility.yul\":8034:8101   */\n      tag_361\n        /* \"#utility.yul\":8098:8100   */\n      0x24\n        /* \"#utility.yul\":8093:8096   */\n      dup4\n        /* \"#utility.yul\":8034:8101   */\n      tag_331\n      jump\t// in\n    tag_361:\n        /* \"#utility.yul\":8027:8101   */\n      swap2\n      pop\n        /* \"#utility.yul\":8110:8203   */\n      tag_362\n        /* \"#utility.yul\":8199:8202   */\n      dup3\n        /* \"#utility.yul\":8110:8203   */\n      tag_363\n      jump\t// in\n    tag_362:\n        /* \"#utility.yul\":8228:8230   */\n      0x40\n        /* \"#utility.yul\":8223:8226   */\n      dup3\n        /* \"#utility.yul\":8219:8231   */\n      add\n        /* \"#utility.yul\":8212:8231   */\n      swap1\n      pop\n        /* \"#utility.yul\":7871:8237   */\n      swap2\n      swap1\n      pop\n      jump\t// out\n        /* \"#utility.yul\":8243:8609   */\n    tag_364:\n        /* \"#utility.yul\":8385:8388   */\n      0x00\n        /* \"#utility.yul\":8406:8473   */\n      tag_366\n        /* \"#utility.yul\":8470:8472   */\n      0x28\n        /* \"#utility.yul\":8465:8468   */\n      dup4\n        /* \"#utility.yul\":8406:8473   */\n      tag_331\n      jump\t// in\n    tag_366:\n        /* \"#utility.yul\":8399:8473   */\n      swap2\n      pop\n        /* \"#utility.yul\":8482:8575   */\n      tag_367\n        /* \"#utility.yul\":8571:8574   */\n      dup3\n        /* \"#utility.yul\":8482:8575   */\n      tag_368\n      jump\t// in\n    tag_367:\n        /* \"#utility.yul\":8600:8602   */\n      0x40\n        /* \"#utility.yul\":8595:8598   */\n      dup3\n        /* \"#utility.yul\":8591:8603   */\n      add\n        /* \"#utility.yul\":8584:8603   */\n      swap1\n      pop\n        /* \"#utility.yul\":8243:8609   */\n      swap2\n      swap1\n      pop\n      jump\t// out\n        /* \"#utility.yul\":8615:8981   */\n    tag_369:\n        /* \"#utility.yul\":8757:8760   */\n      0x00\n        /* \"#utility.yul\":8778:8845   */\n      tag_371\n        /* \"#utility.yul\":8842:8844   */\n      0x14\n        /* \"#utility.yul\":8837:8840   */\n      dup4\n        /* \"#utility.yul\":8778:8845   */\n      tag_331\n      jump\t// in\n    tag_371:\n        /* \"#utility.yul\":8771:8845   */\n      swap2\n      pop\n        /* \"#utility.yul\":8854:8947   */\n      tag_372\n        /* \"#utility.yul\":8943:8946   */\n      dup3\n        /* \"#utility.yul\":8854:8947   */\n      tag_373\n      jump\t// in\n    tag_372:\n        /* \"#utility.yul\":8972:8974   */\n      0x20\n        /* \"#utility.yul\":8967:8970   */\n      dup3\n        /* \"#utility.yul\":8963:8975   */\n      add\n        /* \"#utility.yul\":8956:8975   */\n      swap1\n      pop\n        /* \"#utility.yul\":8615:8981   */\n      swap2\n      swap1\n      pop\n      jump\t// out\n        /* \"#utility.yul\":8987:9353   */\n    tag_374:\n        /* \"#utility.yul\":9129:9132   */\n      0x00\n        /* \"#utility.yul\":9150:9217   */\n      tag_376\n        /* \"#utility.yul\":9214:9216   */\n      0x20\n        /* \"#utility.yul\":9209:9212   */\n      dup4\n        /* \"#utility.yul\":9150:9217   */\n      tag_331\n      jump\t// in\n    tag_376:\n        /* \"#utility.yul\":9143:9217   */\n      swap2\n      pop\n        /* \"#utility.yul\":9226:9319   */\n      tag_377\n        /* \"#utility.yul\":9315:9318   */\n      dup3\n        /* \"#utility.yul\":9226:9319   */\n      tag_378\n      jump\t// in\n    tag_377:\n        /* \"#utility.yul\":9344:9346   */\n      0x20\n        /* \"#utility.yul\":9339:9342   */\n      dup3\n        /* \"#utility.yul\":9335:9347   */\n      add\n        /* \"#utility.yul\":9328:9347   */\n      swap1\n      pop\n        /* \"#utility.yul\":8987:9353   */\n      swap2\n      swap1\n      pop\n      jump\t// out\n        /* \"#utility.yul\":9359:9725   */\n    tag_379:\n        /* \"#utility.yul\":9501:9504   */\n      0x00\n        /* \"#utility.yul\":9522:9589   */\n      tag_381\n        /* \"#utility.yul\":9586:9588   */\n      0x12\n        /* \"#utility.yul\":9581:9584   */\n      dup4\n        /* \"#utility.yul\":9522:9589   */\n      tag_331\n      jump\t// in\n    tag_381:\n        /* \"#utility.yul\":9515:9589   */\n      swap2\n      pop\n        /* \"#utility.yul\":9598:9691   */\n      tag_382\n        /* \"#utility.yul\":9687:9690   */\n      dup3\n        /* \"#utility.yul\":9598:9691   */\n      tag_383\n      jump\t// in\n    tag_382:\n        /* \"#utility.yul\":9716:9718   */\n      0x20\n        /* \"#utility.yul\":9711:9714   */\n      dup3\n        /* \"#utility.yul\":9707:9719   */\n      add\n        /* \"#utility.yul\":9700:9719   */\n      swap1\n      pop\n        /* \"#utility.yul\":9359:9725   */\n      swap2\n      swap1\n      pop\n      jump\t// out\n        /* \"#utility.yul\":9731:10097   */\n    tag_384:\n        /* \"#utility.yul\":9873:9876   */\n      0x00\n        /* \"#utility.yul\":9894:9961   */\n      tag_386\n        /* \"#utility.yul\":9958:9960   */\n      0x25\n        /* \"#utility.yul\":9953:9956   */\n      dup4\n        /* \"#utility.yul\":9894:9961   */\n      tag_331\n      jump\t// in\n    tag_386:\n        /* \"#utility.yul\":9887:9961   */\n      swap2\n      pop\n        /* \"#utility.yul\":9970:10063   */\n      tag_387\n        /* \"#utility.yul\":10059:10062   */\n      dup3\n        /* \"#utility.yul\":9970:10063   */\n      tag_388\n      jump\t// in\n    tag_387:\n        /* \"#utility.yul\":10088:10090   */\n      0x40\n        /* \"#utility.yul\":10083:10086   */\n      dup3\n        /* \"#utility.yul\":10079:10091   */\n      add\n        /* \"#utility.yul\":10072:10091   */\n      swap1\n      pop\n        /* \"#utility.yul\":9731:10097   */\n      swap2\n      swap1\n      pop\n      jump\t// out\n        /* \"#utility.yul\":10181:11655   */\n    tag_389:\n        /* \"#utility.yul\":10298:10301   */\n      0x00\n        /* \"#utility.yul\":10334:10338   */\n      0xc0\n        /* \"#utility.yul\":10329:10332   */\n      dup4\n        /* \"#utility.yul\":10325:10339   */\n      add\n        /* \"#utility.yul\":10426:10430   */\n      0x00\n        /* \"#utility.yul\":10419:10424   */\n      dup4\n        /* \"#utility.yul\":10415:10431   */\n      add\n        /* \"#utility.yul\":10409:10432   */\n      mload\n        /* \"#utility.yul\":10445:10508   */\n      tag_391\n        /* \"#utility.yul\":10502:10506   */\n      0x00\n        /* \"#utility.yul\":10497:10500   */\n      dup7\n        /* \"#utility.yul\":10493:10507   */\n      add\n        /* \"#utility.yul\":10479:10491   */\n      dup3\n        /* \"#utility.yul\":10445:10508   */\n      tag_392\n      jump\t// in\n    tag_391:\n        /* \"#utility.yul\":10349:10518   */\n      pop\n        /* \"#utility.yul\":10605:10609   */\n      0x20\n        /* \"#utility.yul\":10598:10603   */\n      dup4\n        /* \"#utility.yul\":10594:10610   */\n      add\n        /* \"#utility.yul\":10588:10611   */\n      mload\n        /* \"#utility.yul\":10658:10661   */\n      dup5\n        /* \"#utility.yul\":10652:10656   */\n      dup3\n        /* \"#utility.yul\":10648:10662   */\n      sub\n        /* \"#utility.yul\":10641:10645   */\n      0x20\n        /* \"#utility.yul\":10636:10639   */\n      dup7\n        /* \"#utility.yul\":10632:10646   */\n      add\n        /* \"#utility.yul\":10625:10663   */\n      mstore\n        /* \"#utility.yul\":10684:10757   */\n      tag_393\n        /* \"#utility.yul\":10752:10756   */\n      dup3\n        /* \"#utility.yul\":10738:10750   */\n      dup3\n        /* \"#utility.yul\":10684:10757   */\n      tag_317\n      jump\t// in\n    tag_393:\n        /* \"#utility.yul\":10676:10757   */\n      swap2\n      pop\n        /* \"#utility.yul\":10528:10768   */\n      pop\n        /* \"#utility.yul\":10857:10861   */\n      0x40\n        /* \"#utility.yul\":10850:10855   */\n      dup4\n        /* \"#utility.yul\":10846:10862   */\n      add\n        /* \"#utility.yul\":10840:10863   */\n      mload\n        /* \"#utility.yul\":10910:10913   */\n      dup5\n        /* \"#utility.yul\":10904:10908   */\n      dup3\n        /* \"#utility.yul\":10900:10914   */\n      sub\n        /* \"#utility.yul\":10893:10897   */\n      0x40\n        /* \"#utility.yul\":10888:10891   */\n      dup7\n        /* \"#utility.yul\":10884:10898   */\n      add\n        /* \"#utility.yul\":10877:10915   */\n      mstore\n        /* \"#utility.yul\":10936:11009   */\n      tag_394\n        /* \"#utility.yul\":11004:11008   */\n      dup3\n        /* \"#utility.yul\":10990:11002   */\n      dup3\n        /* \"#utility.yul\":10936:11009   */\n      tag_317\n      jump\t// in\n    tag_394:\n        /* \"#utility.yul\":10928:11009   */\n      swap2\n      pop\n        /* \"#utility.yul\":10778:11020   */\n      pop\n        /* \"#utility.yul\":11105:11109   */\n      0x60\n        /* \"#utility.yul\":11098:11103   */\n      dup4\n        /* \"#utility.yul\":11094:11110   */\n      add\n        /* \"#utility.yul\":11088:11111   */\n      mload\n        /* \"#utility.yul\":11158:11161   */\n      dup5\n        /* \"#utility.yul\":11152:11156   */\n      dup3\n        /* \"#utility.yul\":11148:11162   */\n      sub\n        /* \"#utility.yul\":11141:11145   */\n      0x60\n        /* \"#utility.yul\":11136:11139   */\n      dup7\n        /* \"#utility.yul\":11132:11146   */\n      add\n        /* \"#utility.yul\":11125:11163   */\n      mstore\n        /* \"#utility.yul\":11184:11257   */\n      tag_395\n        /* \"#utility.yul\":11252:11256   */\n      dup3\n        /* \"#utility.yul\":11238:11250   */\n      dup3\n        /* \"#utility.yul\":11184:11257   */\n      tag_317\n      jump\t// in\n    tag_395:\n        /* \"#utility.yul\":11176:11257   */\n      swap2\n      pop\n        /* \"#utility.yul\":11030:11268   */\n      pop\n        /* \"#utility.yul\":11354:11358   */\n      0x80\n        /* \"#utility.yul\":11347:11352   */\n      dup4\n        /* \"#utility.yul\":11343:11359   */\n      add\n        /* \"#utility.yul\":11337:11360   */\n      mload\n        /* \"#utility.yul\":11373:11436   */\n      tag_396\n        /* \"#utility.yul\":11430:11434   */\n      0x80\n        /* \"#utility.yul\":11425:11428   */\n      dup7\n        /* \"#utility.yul\":11421:11435   */\n      add\n        /* \"#utility.yul\":11407:11419   */\n      dup3\n        /* \"#utility.yul\":11373:11436   */\n      tag_310\n      jump\t// in\n    tag_396:\n        /* \"#utility.yul\":11278:11446   */\n      pop\n        /* \"#utility.yul\":11536:11540   */\n      0xa0\n        /* \"#utility.yul\":11529:11534   */\n      dup4\n        /* \"#utility.yul\":11525:11541   */\n      add\n        /* \"#utility.yul\":11519:11542   */\n      mload\n        /* \"#utility.yul\":11555:11618   */\n      tag_397\n        /* \"#utility.yul\":11612:11616   */\n      0xa0\n        /* \"#utility.yul\":11607:11610   */\n      dup7\n        /* \"#utility.yul\":11603:11617   */\n      add\n        /* \"#utility.yul\":11589:11601   */\n      dup3\n        /* \"#utility.yul\":11555:11618   */\n      tag_392\n      jump\t// in\n    tag_397:\n        /* \"#utility.yul\":11456:11628   */\n      pop\n        /* \"#utility.yul\":11645:11649   */\n      dup1\n        /* \"#utility.yul\":11638:11649   */\n      swap2\n      pop\n        /* \"#utility.yul\":10303:11655   */\n      pop\n        /* \"#utility.yul\":10181:11655   */\n      swap3\n      swap2\n      pop\n      pop\n      jump\t// out\n        /* \"#utility.yul\":11733:12388   */\n    tag_281:\n        /* \"#utility.yul\":11860:11864   */\n      0x60\n        /* \"#utility.yul\":11855:11858   */\n      dup3\n        /* \"#utility.yul\":11851:11865   */\n      add\n        /* \"#utility.yul\":11948:11952   */\n      0x00\n        /* \"#utility.yul\":11941:11946   */\n      dup3\n        /* \"#utility.yul\":11937:11953   */\n      add\n        /* \"#utility.yul\":11931:11954   */\n      mload\n        /* \"#utility.yul\":11967:12024   */\n      tag_399\n        /* \"#utility.yul\":12018:12022   */\n      0x00\n        /* \"#utility.yul\":12013:12016   */\n      dup6\n        /* \"#utility.yul\":12009:12023   */\n      add\n        /* \"#utility.yul\":11995:12007   */\n      dup3\n        /* \"#utility.yul\":11967:12024   */\n      tag_303\n      jump\t// in\n    tag_399:\n        /* \"#utility.yul\":11875:12034   */\n      pop\n        /* \"#utility.yul\":12116:12120   */\n      0x20\n        /* \"#utility.yul\":12109:12114   */\n      dup3\n        /* \"#utility.yul\":12105:12121   */\n      add\n        /* \"#utility.yul\":12099:12122   */\n      mload\n        /* \"#utility.yul\":12135:12192   */\n      tag_400\n        /* \"#utility.yul\":12186:12190   */\n      0x20\n        /* \"#utility.yul\":12181:12184   */\n      dup6\n        /* \"#utility.yul\":12177:12191   */\n      add\n        /* \"#utility.yul\":12163:12175   */\n      dup3\n        /* \"#utility.yul\":12135:12192   */\n      tag_303\n      jump\t// in\n    tag_400:\n        /* \"#utility.yul\":12044:12202   */\n      pop\n        /* \"#utility.yul\":12289:12293   */\n      0x40\n        /* \"#utility.yul\":12282:12287   */\n      dup3\n        /* \"#utility.yul\":12278:12294   */\n      add\n        /* \"#utility.yul\":12272:12295   */\n      mload\n        /* \"#utility.yul\":12308:12371   */\n      tag_401\n        /* \"#utility.yul\":12365:12369   */\n      0x40\n        /* \"#utility.yul\":12360:12363   */\n      dup6\n        /* \"#utility.yul\":12356:12370   */\n      add\n        /* \"#utility.yul\":12342:12354   */\n      dup3\n        /* \"#utility.yul\":12308:12371   */\n      tag_282\n      jump\t// in\n    tag_401:\n        /* \"#utility.yul\":12212:12381   */\n      pop\n        /* \"#utility.yul\":11829:12388   */\n      pop\n        /* \"#utility.yul\":11733:12388   */\n      pop\n      pop\n      jump\t// out\n        /* \"#utility.yul\":12394:12502   */\n    tag_392:\n        /* \"#utility.yul\":12471:12495   */\n      tag_403\n        /* \"#utility.yul\":12489:12494   */\n      dup2\n        /* \"#utility.yul\":12471:12495   */\n      tag_404\n      jump\t// in\n    tag_403:\n        /* \"#utility.yul\":12466:12469   */\n      dup3\n        /* \"#utility.yul\":12459:12496   */\n      mstore\n        /* \"#utility.yul\":12394:12502   */\n      pop\n      pop\n      jump\t// out\n        /* \"#utility.yul\":12508:12626   */\n    tag_405:\n        /* \"#utility.yul\":12595:12619   */\n      tag_407\n        /* \"#utility.yul\":12613:12618   */\n      dup2\n        /* \"#utility.yul\":12595:12619   */\n      tag_404\n      jump\t// in\n    tag_407:\n        /* \"#utility.yul\":12590:12593   */\n      dup3\n        /* \"#utility.yul\":12583:12620   */\n      mstore\n        /* \"#utility.yul\":12508:12626   */\n      pop\n      pop\n      jump\t// out\n        /* \"#utility.yul\":12632:12854   */\n    tag_28:\n        /* \"#utility.yul\":12725:12729   */\n      0x00\n        /* \"#utility.yul\":12763:12765   */\n      0x20\n        /* \"#utility.yul\":12752:12761   */\n      dup3\n        /* \"#utility.yul\":12748:12766   */\n      add\n        /* \"#utility.yul\":12740:12766   */\n      swap1\n      pop\n        /* \"#utility.yul\":12776:12847   */\n      tag_409\n        /* \"#utility.yul\":12844:12845   */\n      0x00\n        /* \"#utility.yul\":12833:12842   */\n      dup4\n        /* \"#utility.yul\":12829:12846   */\n      add\n        /* \"#utility.yul\":12820:12826   */\n      dup5\n        /* \"#utility.yul\":12776:12847   */\n      tag_286\n      jump\t// in\n    tag_409:\n        /* \"#utility.yul\":12632:12854   */\n      swap3\n      swap2\n      pop\n      pop\n      jump\t// out\n        /* \"#utility.yul\":12860:13070   */\n    tag_60:\n        /* \"#utility.yul\":12947:12951   */\n      0x00\n        /* \"#utility.yul\":12985:12987   */\n      0x20\n        /* \"#utility.yul\":12974:12983   */\n      dup3\n        /* \"#utility.yul\":12970:12988   */\n      add\n        /* \"#utility.yul\":12962:12988   */\n      swap1\n      pop\n        /* \"#utility.yul\":12998:13063   */\n      tag_411\n        /* \"#utility.yul\":13060:13061   */\n      0x00\n        /* \"#utility.yul\":13049:13058   */\n      dup4\n        /* \"#utility.yul\":13045:13062   */\n      add\n        /* \"#utility.yul\":13036:13042   */\n      dup5\n        /* \"#utility.yul\":12998:13063   */\n      tag_307\n      jump\t// in\n    tag_411:\n        /* \"#utility.yul\":12860:13070   */\n      swap3\n      swap2\n      pop\n      pop\n      jump\t// out\n        /* \"#utility.yul\":13076:13494   */\n    tag_45:\n        /* \"#utility.yul\":13213:13217   */\n      0x00\n        /* \"#utility.yul\":13251:13253   */\n      0x60\n        /* \"#utility.yul\":13240:13249   */\n      dup3\n        /* \"#utility.yul\":13236:13254   */\n      add\n        /* \"#utility.yul\":13228:13254   */\n      swap1\n      pop\n        /* \"#utility.yul\":13264:13329   */\n      tag_413\n        /* \"#utility.yul\":13326:13327   */\n      0x00\n        /* \"#utility.yul\":13315:13324   */\n      dup4\n        /* \"#utility.yul\":13311:13328   */\n      add\n        /* \"#utility.yul\":13302:13308   */\n      dup7\n        /* \"#utility.yul\":13264:13329   */\n      tag_307\n      jump\t// in\n    tag_413:\n        /* \"#utility.yul\":13339:13405   */\n      tag_414\n        /* \"#utility.yul\":13401:13403   */\n      0x20\n        /* \"#utility.yul\":13390:13399   */\n      dup4\n        /* \"#utility.yul\":13386:13404   */\n      add\n        /* \"#utility.yul\":13377:13383   */\n      dup6\n        /* \"#utility.yul\":13339:13405   */\n      tag_307\n      jump\t// in\n    tag_414:\n        /* \"#utility.yul\":13415:13487   */\n      tag_415\n        /* \"#utility.yul\":13483:13485   */\n      0x40\n        /* \"#utility.yul\":13472:13481   */\n      dup4\n        /* \"#utility.yul\":13468:13486   */\n      add\n        /* \"#utility.yul\":13459:13465   */\n      dup5\n        /* \"#utility.yul\":13415:13487   */\n      tag_286\n      jump\t// in\n    tag_415:\n        /* \"#utility.yul\":13076:13494   */\n      swap5\n      swap4\n      pop\n      pop\n      pop\n      pop\n      jump\t// out\n        /* \"#utility.yul\":13500:13906   */\n    tag_76:\n        /* \"#utility.yul\":13631:13635   */\n      0x00\n        /* \"#utility.yul\":13669:13671   */\n      0x60\n        /* \"#utility.yul\":13658:13667   */\n      dup3\n        /* \"#utility.yul\":13654:13672   */\n      add\n        /* \"#utility.yul\":13646:13672   */\n      swap1\n      pop\n        /* \"#utility.yul\":13682:13747   */\n      tag_417\n        /* \"#utility.yul\":13744:13745   */\n      0x00\n        /* \"#utility.yul\":13733:13742   */\n      dup4\n        /* \"#utility.yul\":13729:13746   */\n      add\n        /* \"#utility.yul\":13720:13726   */\n      dup7\n        /* \"#utility.yul\":13682:13747   */\n      tag_307\n      jump\t// in\n    tag_417:\n        /* \"#utility.yul\":13757:13823   */\n      tag_418\n        /* \"#utility.yul\":13819:13821   */\n      0x20\n        /* \"#utility.yul\":13808:13817   */\n      dup4\n        /* \"#utility.yul\":13804:13822   */\n      add\n        /* \"#utility.yul\":13795:13801   */\n      dup6\n        /* \"#utility.yul\":13757:13823   */\n      tag_307\n      jump\t// in\n    tag_418:\n        /* \"#utility.yul\":13833:13899   */\n      tag_419\n        /* \"#utility.yul\":13895:13897   */\n      0x40\n        /* \"#utility.yul\":13884:13893   */\n      dup4\n        /* \"#utility.yul\":13880:13898   */\n      add\n        /* \"#utility.yul\":13871:13877   */\n      dup5\n        /* \"#utility.yul\":13833:13899   */\n      tag_307\n      jump\t// in\n    tag_419:\n        /* \"#utility.yul\":13500:13906   */\n      swap5\n      swap4\n      pop\n      pop\n      pop\n      pop\n      jump\t// out\n        /* \"#utility.yul\":13912:14732   */\n    tag_64:\n        /* \"#utility.yul\":14199:14203   */\n      0x00\n        /* \"#utility.yul\":14237:14239   */\n      0x60\n        /* \"#utility.yul\":14226:14235   */\n      dup3\n        /* \"#utility.yul\":14222:14240   */\n      add\n        /* \"#utility.yul\":14214:14240   */\n      swap1\n      pop\n        /* \"#utility.yul\":14250:14321   */\n      tag_421\n        /* \"#utility.yul\":14318:14319   */\n      0x00\n        /* \"#utility.yul\":14307:14316   */\n      dup4\n        /* \"#utility.yul\":14303:14320   */\n      add\n        /* \"#utility.yul\":14294:14300   */\n      dup7\n        /* \"#utility.yul\":14250:14321   */\n      tag_314\n      jump\t// in\n    tag_421:\n        /* \"#utility.yul\":14368:14377   */\n      dup2\n        /* \"#utility.yul\":14362:14366   */\n      dup2\n        /* \"#utility.yul\":14358:14378   */\n      sub\n        /* \"#utility.yul\":14353:14355   */\n      0x20\n        /* \"#utility.yul\":14342:14351   */\n      dup4\n        /* \"#utility.yul\":14338:14356   */\n      add\n        /* \"#utility.yul\":14331:14379   */\n      mstore\n        /* \"#utility.yul\":14396:14502   */\n      tag_422\n        /* \"#utility.yul\":14497:14501   */\n      dup2\n        /* \"#utility.yul\":14488:14494   */\n      dup6\n        /* \"#utility.yul\":14396:14502   */\n      tag_389\n      jump\t// in\n    tag_422:\n        /* \"#utility.yul\":14388:14502   */\n      swap1\n      pop\n        /* \"#utility.yul\":14549:14558   */\n      dup2\n        /* \"#utility.yul\":14543:14547   */\n      dup2\n        /* \"#utility.yul\":14539:14559   */\n      sub\n        /* \"#utility.yul\":14534:14536   */\n      0x40\n        /* \"#utility.yul\":14523:14532   */\n      dup4\n        /* \"#utility.yul\":14519:14537   */\n      add\n        /* \"#utility.yul\":14512:14560   */\n      mstore\n        /* \"#utility.yul\":14577:14725   */\n      tag_423\n        /* \"#utility.yul\":14720:14724   */\n      dup2\n        /* \"#utility.yul\":14711:14717   */\n      dup5\n        /* \"#utility.yul\":14577:14725   */\n      tag_289\n      jump\t// in\n    tag_423:\n        /* \"#utility.yul\":14569:14725   */\n      swap1\n      pop\n        /* \"#utility.yul\":13912:14732   */\n      swap5\n      swap4\n      pop\n      pop\n      pop\n      pop\n      jump\t// out\n        /* \"#utility.yul\":14738:15051   */\n    tag_36:\n        /* \"#utility.yul\":14851:14855   */\n      0x00\n        /* \"#utility.yul\":14889:14891   */\n      0x20\n        /* \"#utility.yul\":14878:14887   */\n      dup3\n        /* \"#utility.yul\":14874:14892   */\n      add\n        /* \"#utility.yul\":14866:14892   */\n      swap1\n      pop\n        /* \"#utility.yul\":14938:14947   */\n      dup2\n        /* \"#utility.yul\":14932:14936   */\n      dup2\n        /* \"#utility.yul\":14928:14948   */\n      sub\n        /* \"#utility.yul\":14924:14925   */\n      0x00\n        /* \"#utility.yul\":14913:14922   */\n      dup4\n        /* \"#utility.yul\":14909:14926   */\n      add\n        /* \"#utility.yul\":14902:14949   */\n      mstore\n        /* \"#utility.yul\":14966:15044   */\n      tag_425\n        /* \"#utility.yul\":15039:15043   */\n      dup2\n        /* \"#utility.yul\":15030:15036   */\n      dup5\n        /* \"#utility.yul\":14966:15044   */\n      tag_327\n      jump\t// in\n    tag_425:\n        /* \"#utility.yul\":14958:15044   */\n      swap1\n      pop\n        /* \"#utility.yul\":14738:15051   */\n      swap3\n      swap2\n      pop\n      pop\n      jump\t// out\n        /* \"#utility.yul\":15057:15590   */\n    tag_80:\n        /* \"#utility.yul\":15226:15230   */\n      0x00\n        /* \"#utility.yul\":15264:15266   */\n      0x60\n        /* \"#utility.yul\":15253:15262   */\n      dup3\n        /* \"#utility.yul\":15249:15267   */\n      add\n        /* \"#utility.yul\":15241:15267   */\n      swap1\n      pop\n        /* \"#utility.yul\":15313:15322   */\n      dup2\n        /* \"#utility.yul\":15307:15311   */\n      dup2\n        /* \"#utility.yul\":15303:15323   */\n      sub\n        /* \"#utility.yul\":15299:15300   */\n      0x00\n        /* \"#utility.yul\":15288:15297   */\n      dup4\n        /* \"#utility.yul\":15284:15301   */\n      add\n        /* \"#utility.yul\":15277:15324   */\n      mstore\n        /* \"#utility.yul\":15341:15419   */\n      tag_427\n        /* \"#utility.yul\":15414:15418   */\n      dup2\n        /* \"#utility.yul\":15405:15411   */\n      dup7\n        /* \"#utility.yul\":15341:15419   */\n      tag_327\n      jump\t// in\n    tag_427:\n        /* \"#utility.yul\":15333:15419   */\n      swap1\n      pop\n        /* \"#utility.yul\":15429:15501   */\n      tag_428\n        /* \"#utility.yul\":15497:15499   */\n      0x20\n        /* \"#utility.yul\":15486:15495   */\n      dup4\n        /* \"#utility.yul\":15482:15500   */\n      add\n        /* \"#utility.yul\":15473:15479   */\n      dup6\n        /* \"#utility.yul\":15429:15501   */\n      tag_405\n      jump\t// in\n    tag_428:\n        /* \"#utility.yul\":15511:15583   */\n      tag_429\n        /* \"#utility.yul\":15579:15581   */\n      0x40\n        /* \"#utility.yul\":15568:15577   */\n      dup4\n        /* \"#utility.yul\":15564:15582   */\n      add\n        /* \"#utility.yul\":15555:15561   */\n      dup5\n        /* \"#utility.yul\":15511:15583   */\n      tag_405\n      jump\t// in\n    tag_429:\n        /* \"#utility.yul\":15057:15590   */\n      swap5\n      swap4\n      pop\n      pop\n      pop\n      pop\n      jump\t// out\n        /* \"#utility.yul\":15596:16015   */\n    tag_102:\n        /* \"#utility.yul\":15762:15766   */\n      0x00\n        /* \"#utility.yul\":15800:15802   */\n      0x20\n        /* \"#utility.yul\":15789:15798   */\n      dup3\n        /* \"#utility.yul\":15785:15803   */\n      add\n        /* \"#utility.yul\":15777:15803   */\n      swap1\n      pop\n        /* \"#utility.yul\":15849:15858   */\n      dup2\n        /* \"#utility.yul\":15843:15847   */\n      dup2\n        /* \"#utility.yul\":15839:15859   */\n      sub\n        /* \"#utility.yul\":15835:15836   */\n      0x00\n        /* \"#utility.yul\":15824:15833   */\n      dup4\n        /* \"#utility.yul\":15820:15837   */\n      add\n        /* \"#utility.yul\":15813:15860   */\n      mstore\n        /* \"#utility.yul\":15877:16008   */\n      tag_431\n        /* \"#utility.yul\":16003:16007   */\n      dup2\n        /* \"#utility.yul\":15877:16008   */\n      tag_334\n      jump\t// in\n    tag_431:\n        /* \"#utility.yul\":15869:16008   */\n      swap1\n      pop\n        /* \"#utility.yul\":15596:16015   */\n      swap2\n      swap1\n      pop\n      jump\t// out\n        /* \"#utility.yul\":16021:16440   */\n    tag_186:\n        /* \"#utility.yul\":16187:16191   */\n      0x00\n        /* \"#utility.yul\":16225:16227   */\n      0x20\n        /* \"#utility.yul\":16214:16223   */\n      dup3\n        /* \"#utility.yul\":16210:16228   */\n      add\n        /* \"#utility.yul\":16202:16228   */\n      swap1\n      pop\n        /* \"#utility.yul\":16274:16283   */\n      dup2\n        /* \"#utility.yul\":16268:16272   */\n      dup2\n        /* \"#utility.yul\":16264:16284   */\n      sub\n        /* \"#utility.yul\":16260:16261   */\n      0x00\n        /* \"#utility.yul\":16249:16258   */\n      dup4\n        /* \"#utility.yul\":16245:16262   */\n      add\n        /* \"#utility.yul\":16238:16285   */\n      mstore\n        /* \"#utility.yul\":16302:16433   */\n      tag_433\n        /* \"#utility.yul\":16428:16432   */\n      dup2\n        /* \"#utility.yul\":16302:16433   */\n      tag_339\n      jump\t// in\n    tag_433:\n        /* \"#utility.yul\":16294:16433   */\n      swap1\n      pop\n        /* \"#utility.yul\":16021:16440   */\n      swap2\n      swap1\n      pop\n      jump\t// out\n        /* \"#utility.yul\":16446:16865   */\n    tag_123:\n        /* \"#utility.yul\":16612:16616   */\n      0x00\n        /* \"#utility.yul\":16650:16652   */\n      0x20\n        /* \"#utility.yul\":16639:16648   */\n      dup3\n        /* \"#utility.yul\":16635:16653   */\n      add\n        /* \"#utility.yul\":16627:16653   */\n      swap1\n      pop\n        /* \"#utility.yul\":16699:16708   */\n      dup2\n        /* \"#utility.yul\":16693:16697   */\n      dup2\n        /* \"#utility.yul\":16689:16709   */\n      sub\n        /* \"#utility.yul\":16685:16686   */\n      0x00\n        /* \"#utility.yul\":16674:16683   */\n      dup4\n        /* \"#utility.yul\":16670:16687   */\n      add\n        /* \"#utility.yul\":16663:16710   */\n      mstore\n        /* \"#utility.yul\":16727:16858   */\n      tag_435\n        /* \"#utility.yul\":16853:16857   */\n      dup2\n        /* \"#utility.yul\":16727:16858   */\n      tag_344\n      jump\t// in\n    tag_435:\n        /* \"#utility.yul\":16719:16858   */\n      swap1\n      pop\n        /* \"#utility.yul\":16446:16865   */\n      swap2\n      swap1\n      pop\n      jump\t// out\n        /* \"#utility.yul\":16871:17290   */\n    tag_99:\n        /* \"#utility.yul\":17037:17041   */\n      0x00\n        /* \"#utility.yul\":17075:17077   */\n      0x20\n        /* \"#utility.yul\":17064:17073   */\n      dup3\n        /* \"#utility.yul\":17060:17078   */\n      add\n        /* \"#utility.yul\":17052:17078   */\n      swap1\n      pop\n        /* \"#utility.yul\":17124:17133   */\n      dup2\n        /* \"#utility.yul\":17118:17122   */\n      dup2\n        /* \"#utility.yul\":17114:17134   */\n      sub\n        /* \"#utility.yul\":17110:17111   */\n      0x00\n        /* \"#utility.yul\":17099:17108   */\n      dup4\n        /* \"#utility.yul\":17095:17112   */\n      add\n        /* \"#utility.yul\":17088:17135   */\n      mstore\n        /* \"#utility.yul\":17152:17283   */\n      tag_437\n        /* \"#utility.yul\":17278:17282   */\n      dup2\n        /* \"#utility.yul\":17152:17283   */\n      tag_349\n      jump\t// in\n    tag_437:\n        /* \"#utility.yul\":17144:17283   */\n      swap1\n      pop\n        /* \"#utility.yul\":16871:17290   */\n      swap2\n      swap1\n      pop\n      jump\t// out\n        /* \"#utility.yul\":17296:17715   */\n    tag_120:\n        /* \"#utility.yul\":17462:17466   */\n      0x00\n        /* \"#utility.yul\":17500:17502   */\n      0x20\n        /* \"#utility.yul\":17489:17498   */\n      dup3\n        /* \"#utility.yul\":17485:17503   */\n      add\n        /* \"#utility.yul\":17477:17503   */\n      swap1\n      pop\n        /* \"#utility.yul\":17549:17558   */\n      dup2\n        /* \"#utility.yul\":17543:17547   */\n      dup2\n        /* \"#utility.yul\":17539:17559   */\n      sub\n        /* \"#utility.yul\":17535:17536   */\n      0x00\n        /* \"#utility.yul\":17524:17533   */\n      dup4\n        /* \"#utility.yul\":17520:17537   */\n      add\n        /* \"#utility.yul\":17513:17560   */\n      mstore\n        /* \"#utility.yul\":17577:17708   */\n      tag_439\n        /* \"#utility.yul\":17703:17707   */\n      dup2\n        /* \"#utility.yul\":17577:17708   */\n      tag_354\n      jump\t// in\n    tag_439:\n        /* \"#utility.yul\":17569:17708   */\n      swap1\n      pop\n        /* \"#utility.yul\":17296:17715   */\n      swap2\n      swap1\n      pop\n      jump\t// out\n        /* \"#utility.yul\":17721:18140   */\n    tag_105:\n        /* \"#utility.yul\":17887:17891   */\n      0x00\n        /* \"#utility.yul\":17925:17927   */\n      0x20\n        /* \"#utility.yul\":17914:17923   */\n      dup3\n        /* \"#utility.yul\":17910:17928   */\n      add\n        /* \"#utility.yul\":17902:17928   */\n      swap1\n      pop\n        /* \"#utility.yul\":17974:17983   */\n      dup2\n        /* \"#utility.yul\":17968:17972   */\n      dup2\n        /* \"#utility.yul\":17964:17984   */\n      sub\n        /* \"#utility.yul\":17960:17961   */\n      0x00\n        /* \"#utility.yul\":17949:17958   */\n      dup4\n        /* \"#utility.yul\":17945:17962   */\n      add\n        /* \"#utility.yul\":17938:17985   */\n      mstore\n        /* \"#utility.yul\":18002:18133   */\n      tag_441\n        /* \"#utility.yul\":18128:18132   */\n      dup2\n        /* \"#utility.yul\":18002:18133   */\n      tag_359\n      jump\t// in\n    tag_441:\n        /* \"#utility.yul\":17994:18133   */\n      swap1\n      pop\n        /* \"#utility.yul\":17721:18140   */\n      swap2\n      swap1\n      pop\n      jump\t// out\n        /* \"#utility.yul\":18146:18565   */\n    tag_96:\n        /* \"#utility.yul\":18312:18316   */\n      0x00\n        /* \"#utility.yul\":18350:18352   */\n      0x20\n        /* \"#utility.yul\":18339:18348   */\n      dup3\n        /* \"#utility.yul\":18335:18353   */\n      add\n        /* \"#utility.yul\":18327:18353   */\n      swap1\n      pop\n        /* \"#utility.yul\":18399:18408   */\n      dup2\n        /* \"#utility.yul\":18393:18397   */\n      dup2\n        /* \"#utility.yul\":18389:18409   */\n      sub\n        /* \"#utility.yul\":18385:18386   */\n      0x00\n        /* \"#utility.yul\":18374:18383   */\n      dup4\n        /* \"#utility.yul\":18370:18387   */\n      add\n        /* \"#utility.yul\":18363:18410   */\n      mstore\n        /* \"#utility.yul\":18427:18558   */\n      tag_443\n        /* \"#utility.yul\":18553:18557   */\n      dup2\n        /* \"#utility.yul\":18427:18558   */\n      tag_364\n      jump\t// in\n    tag_443:\n        /* \"#utility.yul\":18419:18558   */\n      swap1\n      pop\n        /* \"#utility.yul\":18146:18565   */\n      swap2\n      swap1\n      pop\n      jump\t// out\n        /* \"#utility.yul\":18571:18990   */\n    tag_209:\n        /* \"#utility.yul\":18737:18741   */\n      0x00\n        /* \"#utility.yul\":18775:18777   */\n      0x20\n        /* \"#utility.yul\":18764:18773   */\n      dup3\n        /* \"#utility.yul\":18760:18778   */\n      add\n        /* \"#utility.yul\":18752:18778   */\n      swap1\n      pop\n        /* \"#utility.yul\":18824:18833   */\n      dup2\n        /* \"#utility.yul\":18818:18822   */\n      dup2\n        /* \"#utility.yul\":18814:18834   */\n      sub\n        /* \"#utility.yul\":18810:18811   */\n      0x00\n        /* \"#utility.yul\":18799:18808   */\n      dup4\n        /* \"#utility.yul\":18795:18812   */\n      add\n        /* \"#utility.yul\":18788:18835   */\n      mstore\n        /* \"#utility.yul\":18852:18983   */\n      tag_445\n        /* \"#utility.yul\":18978:18982   */\n      dup2\n        /* \"#utility.yul\":18852:18983   */\n      tag_369\n      jump\t// in\n    tag_445:\n        /* \"#utility.yul\":18844:18983   */\n      swap1\n      pop\n        /* \"#utility.yul\":18571:18990   */\n      swap2\n      swap1\n      pop\n      jump\t// out\n        /* \"#utility.yul\":18996:19415   */\n    tag_158:\n        /* \"#utility.yul\":19162:19166   */\n      0x00\n        /* \"#utility.yul\":19200:19202   */\n      0x20\n        /* \"#utility.yul\":19189:19198   */\n      dup3\n        /* \"#utility.yul\":19185:19203   */\n      add\n        /* \"#utility.yul\":19177:19203   */\n      swap1\n      pop\n        /* \"#utility.yul\":19249:19258   */\n      dup2\n        /* \"#utility.yul\":19243:19247   */\n      dup2\n        /* \"#utility.yul\":19239:19259   */\n      sub\n        /* \"#utility.yul\":19235:19236   */\n      0x00\n        /* \"#utility.yul\":19224:19233   */\n      dup4\n        /* \"#utility.yul\":19220:19237   */\n      add\n        /* \"#utility.yul\":19213:19260   */\n      mstore\n        /* \"#utility.yul\":19277:19408   */\n      tag_447\n        /* \"#utility.yul\":19403:19407   */\n      dup2\n        /* \"#utility.yul\":19277:19408   */\n      tag_374\n      jump\t// in\n    tag_447:\n        /* \"#utility.yul\":19269:19408   */\n      swap1\n      pop\n        /* \"#utility.yul\":18996:19415   */\n      swap2\n      swap1\n      pop\n      jump\t// out\n        /* \"#utility.yul\":19421:19840   */\n    tag_117:\n        /* \"#utility.yul\":19587:19591   */\n      0x00\n        /* \"#utility.yul\":19625:19627   */\n      0x20\n        /* \"#utility.yul\":19614:19623   */\n      dup3\n        /* \"#utility.yul\":19610:19628   */\n      add\n        /* \"#utility.yul\":19602:19628   */\n      swap1\n      pop\n        /* \"#utility.yul\":19674:19683   */\n      dup2\n        /* \"#utility.yul\":19668:19672   */\n      dup2\n        /* \"#utility.yul\":19664:19684   */\n      sub\n        /* \"#utility.yul\":19660:19661   */\n      0x00\n        /* \"#utility.yul\":19649:19658   */\n      dup4\n        /* \"#utility.yul\":19645:19662   */\n      add\n        /* \"#utility.yul\":19638:19685   */\n      mstore\n        /* \"#utility.yul\":19702:19833   */\n      tag_449\n        /* \"#utility.yul\":19828:19832   */\n      dup2\n        /* \"#utility.yul\":19702:19833   */\n      tag_379\n      jump\t// in\n    tag_449:\n        /* \"#utility.yul\":19694:19833   */\n      swap1\n      pop\n        /* \"#utility.yul\":19421:19840   */\n      swap2\n      swap1\n      pop\n      jump\t// out\n        /* \"#utility.yul\":19846:20265   */\n    tag_182:\n        /* \"#utility.yul\":20012:20016   */\n      0x00\n        /* \"#utility.yul\":20050:20052   */\n      0x20\n        /* \"#utility.yul\":20039:20048   */\n      dup3\n        /* \"#utility.yul\":20035:20053   */\n      add\n        /* \"#utility.yul\":20027:20053   */\n      swap1\n      pop\n        /* \"#utility.yul\":20099:20108   */\n      dup2\n        /* \"#utility.yul\":20093:20097   */\n      dup2\n        /* \"#utility.yul\":20089:20109   */\n      sub\n        /* \"#utility.yul\":20085:20086   */\n      0x00\n        /* \"#utility.yul\":20074:20083   */\n      dup4\n        /* \"#utility.yul\":20070:20087   */\n      add\n        /* \"#utility.yul\":20063:20110   */\n      mstore\n        /* \"#utility.yul\":20127:20258   */\n      tag_451\n        /* \"#utility.yul\":20253:20257   */\n      dup2\n        /* \"#utility.yul\":20127:20258   */\n      tag_384\n      jump\t// in\n    tag_451:\n        /* \"#utility.yul\":20119:20258   */\n      swap1\n      pop\n        /* \"#utility.yul\":19846:20265   */\n      swap2\n      swap1\n      pop\n      jump\t// out\n        /* \"#utility.yul\":20271:20493   */\n    tag_52:\n        /* \"#utility.yul\":20364:20368   */\n      0x00\n        /* \"#utility.yul\":20402:20404   */\n      0x20\n        /* \"#utility.yul\":20391:20400   */\n      dup3\n        /* \"#utility.yul\":20387:20405   */\n      add\n        /* \"#utility.yul\":20379:20405   */\n      swap1\n      pop\n        /* \"#utility.yul\":20415:20486   */\n      tag_453\n        /* \"#utility.yul\":20483:20484   */\n      0x00\n        /* \"#utility.yul\":20472:20481   */\n      dup4\n        /* \"#utility.yul\":20468:20485   */\n      add\n        /* \"#utility.yul\":20459:20465   */\n      dup5\n        /* \"#utility.yul\":20415:20486   */\n      tag_405\n      jump\t// in\n    tag_453:\n        /* \"#utility.yul\":20271:20493   */\n      swap3\n      swap2\n      pop\n      pop\n      jump\t// out\n        /* \"#utility.yul\":20499:21547   */\n    tag_56:\n        /* \"#utility.yul\":20792:20796   */\n      0x00\n        /* \"#utility.yul\":20830:20833   */\n      0xc0\n        /* \"#utility.yul\":20819:20828   */\n      dup3\n        /* \"#utility.yul\":20815:20834   */\n      add\n        /* \"#utility.yul\":20807:20834   */\n      swap1\n      pop\n        /* \"#utility.yul\":20844:20915   */\n      tag_455\n        /* \"#utility.yul\":20912:20913   */\n      0x00\n        /* \"#utility.yul\":20901:20910   */\n      dup4\n        /* \"#utility.yul\":20897:20914   */\n      add\n        /* \"#utility.yul\":20888:20894   */\n      dup10\n        /* \"#utility.yul\":20844:20915   */\n      tag_405\n      jump\t// in\n    tag_455:\n        /* \"#utility.yul\":20962:20971   */\n      dup2\n        /* \"#utility.yul\":20956:20960   */\n      dup2\n        /* \"#utility.yul\":20952:20972   */\n      sub\n        /* \"#utility.yul\":20947:20949   */\n      0x20\n        /* \"#utility.yul\":20936:20945   */\n      dup4\n        /* \"#utility.yul\":20932:20950   */\n      add\n        /* \"#utility.yul\":20925:20973   */\n      mstore\n        /* \"#utility.yul\":20990:21068   */\n      tag_456\n        /* \"#utility.yul\":21063:21067   */\n      dup2\n        /* \"#utility.yul\":21054:21060   */\n      dup9\n        /* \"#utility.yul\":20990:21068   */\n      tag_327\n      jump\t// in\n    tag_456:\n        /* \"#utility.yul\":20982:21068   */\n      swap1\n      pop\n        /* \"#utility.yul\":21115:21124   */\n      dup2\n        /* \"#utility.yul\":21109:21113   */\n      dup2\n        /* \"#utility.yul\":21105:21125   */\n      sub\n        /* \"#utility.yul\":21100:21102   */\n      0x40\n        /* \"#utility.yul\":21089:21098   */\n      dup4\n        /* \"#utility.yul\":21085:21103   */\n      add\n        /* \"#utility.yul\":21078:21126   */\n      mstore\n        /* \"#utility.yul\":21143:21221   */\n      tag_457\n        /* \"#utility.yul\":21216:21220   */\n      dup2\n        /* \"#utility.yul\":21207:21213   */\n      dup8\n        /* \"#utility.yul\":21143:21221   */\n      tag_327\n      jump\t// in\n    tag_457:\n        /* \"#utility.yul\":21135:21221   */\n      swap1\n      pop\n        /* \"#utility.yul\":21268:21277   */\n      dup2\n        /* \"#utility.yul\":21262:21266   */\n      dup2\n        /* \"#utility.yul\":21258:21278   */\n      sub\n        /* \"#utility.yul\":21253:21255   */\n      0x60\n        /* \"#utility.yul\":21242:21251   */\n      dup4\n        /* \"#utility.yul\":21238:21256   */\n      add\n        /* \"#utility.yul\":21231:21279   */\n      mstore\n        /* \"#utility.yul\":21296:21374   */\n      tag_458\n        /* \"#utility.yul\":21369:21373   */\n      dup2\n        /* \"#utility.yul\":21360:21366   */\n      dup7\n        /* \"#utility.yul\":21296:21374   */\n      tag_327\n      jump\t// in\n    tag_458:\n        /* \"#utility.yul\":21288:21374   */\n      swap1\n      pop\n        /* \"#utility.yul\":21384:21457   */\n      tag_459\n        /* \"#utility.yul\":21452:21455   */\n      0x80\n        /* \"#utility.yul\":21441:21450   */\n      dup4\n        /* \"#utility.yul\":21437:21456   */\n      add\n        /* \"#utility.yul\":21428:21434   */\n      dup6\n        /* \"#utility.yul\":21384:21457   */\n      tag_314\n      jump\t// in\n    tag_459:\n        /* \"#utility.yul\":21467:21540   */\n      tag_460\n        /* \"#utility.yul\":21535:21538   */\n      0xa0\n        /* \"#utility.yul\":21524:21533   */\n      dup4\n        /* \"#utility.yul\":21520:21539   */\n      add\n        /* \"#utility.yul\":21511:21517   */\n      dup5\n        /* \"#utility.yul\":21467:21540   */\n      tag_405\n      jump\t// in\n    tag_460:\n        /* \"#utility.yul\":20499:21547   */\n      swap8\n      swap7\n      pop\n      pop\n      pop\n      pop\n      pop\n      pop\n      pop\n      jump\t// out\n        /* \"#utility.yul\":21553:21682   */\n    tag_229:\n        /* \"#utility.yul\":21587:21593   */\n      0x00\n        /* \"#utility.yul\":21614:21634   */\n      tag_462\n      tag_463\n      jump\t// in\n    tag_462:\n        /* \"#utility.yul\":21604:21634   */\n      swap1\n      pop\n        /* \"#utility.yul\":21643:21676   */\n      tag_464\n        /* \"#utility.yul\":21671:21675   */\n      dup3\n        /* \"#utility.yul\":21663:21669   */\n      dup3\n        /* \"#utility.yul\":21643:21676   */\n      tag_465\n      jump\t// in\n    tag_464:\n        /* \"#utility.yul\":21553:21682   */\n      swap2\n      swap1\n      pop\n      jump\t// out\n        /* \"#utility.yul\":21688:21763   */\n    tag_463:\n        /* \"#utility.yul\":21721:21727   */\n      0x00\n        /* \"#utility.yul\":21754:21756   */\n      0x40\n        /* \"#utility.yul\":21748:21757   */\n      mload\n        /* \"#utility.yul\":21738:21757   */\n      swap1\n      pop\n        /* \"#utility.yul\":21688:21763   */\n      swap1\n      jump\t// out\n        /* \"#utility.yul\":21769:22077   */\n    tag_228:\n        /* \"#utility.yul\":21831:21835   */\n      0x00\n        /* \"#utility.yul\":21921:21939   */\n      0xffffffffffffffff\n        /* \"#utility.yul\":21913:21919   */\n      dup3\n        /* \"#utility.yul\":21910:21940   */\n      gt\n        /* \"#utility.yul\":21907:21963   */\n      iszero\n      tag_468\n      jumpi\n        /* \"#utility.yul\":21943:21961   */\n      tag_469\n      tag_470\n      jump\t// in\n    tag_469:\n        /* \"#utility.yul\":21907:21963   */\n    tag_468:\n        /* \"#utility.yul\":21981:22010   */\n      tag_471\n        /* \"#utility.yul\":22003:22009   */\n      dup3\n        /* \"#utility.yul\":21981:22010   */\n      tag_326\n      jump\t// in\n    tag_471:\n        /* \"#utility.yul\":21973:22010   */\n      swap1\n      pop\n        /* \"#utility.yul\":22065:22069   */\n      0x20\n        /* \"#utility.yul\":22059:22063   */\n      dup2\n        /* \"#utility.yul\":22055:22070   */\n      add\n        /* \"#utility.yul\":22047:22070   */\n      swap1\n      pop\n        /* \"#utility.yul\":21769:22077   */\n      swap2\n      swap1\n      pop\n      jump\t// out\n        /* \"#utility.yul\":22083:22235   */\n    tag_296:\n        /* \"#utility.yul\":22170:22174   */\n      0x00\n        /* \"#utility.yul\":22193:22196   */\n      dup2\n        /* \"#utility.yul\":22185:22196   */\n      swap1\n      pop\n        /* \"#utility.yul\":22223:22227   */\n      0x20\n        /* \"#utility.yul\":22218:22221   */\n      dup3\n        /* \"#utility.yul\":22214:22228   */\n      add\n        /* \"#utility.yul\":22206:22228   */\n      swap1\n      pop\n        /* \"#utility.yul\":22083:22235   */\n      swap2\n      swap1\n      pop\n      jump\t// out\n        /* \"#utility.yul\":22241:22375   */\n    tag_292:\n        /* \"#utility.yul\":22328:22334   */\n      0x00\n        /* \"#utility.yul\":22362:22367   */\n      dup2\n        /* \"#utility.yul\":22356:22368   */\n      mload\n        /* \"#utility.yul\":22346:22368   */\n      swap1\n      pop\n        /* \"#utility.yul\":22241:22375   */\n      swap2\n      swap1\n      pop\n      jump\t// out\n        /* \"#utility.yul\":22381:22480   */\n    tag_320:\n        /* \"#utility.yul\":22433:22439   */\n      0x00\n        /* \"#utility.yul\":22467:22472   */\n      dup2\n        /* \"#utility.yul\":22461:22473   */\n      mload\n        /* \"#utility.yul\":22451:22473   */\n      swap1\n      pop\n        /* \"#utility.yul\":22381:22480   */\n      swap2\n      swap1\n      pop\n      jump\t// out\n        /* \"#utility.yul\":22486:22619   */\n    tag_302:\n        /* \"#utility.yul\":22576:22580   */\n      0x00\n        /* \"#utility.yul\":22608:22612   */\n      0x20\n        /* \"#utility.yul\":22603:22606   */\n      dup3\n        /* \"#utility.yul\":22599:22613   */\n      add\n        /* \"#utility.yul\":22591:22613   */\n      swap1\n      pop\n        /* \"#utility.yul\":22486:22619   */\n      swap2\n      swap1\n      pop\n      jump\t// out\n        /* \"#utility.yul\":22625:22829   */\n    tag_294:\n        /* \"#utility.yul\":22744:22755   */\n      0x00\n        /* \"#utility.yul\":22778:22784   */\n      dup3\n        /* \"#utility.yul\":22773:22776   */\n      dup3\n        /* \"#utility.yul\":22766:22785   */\n      mstore\n        /* \"#utility.yul\":22818:22822   */\n      0x20\n        /* \"#utility.yul\":22813:22816   */\n      dup3\n        /* \"#utility.yul\":22809:22823   */\n      add\n        /* \"#utility.yul\":22794:22823   */\n      swap1\n      pop\n        /* \"#utility.yul\":22625:22829   */\n      swap3\n      swap2\n      pop\n      pop\n      jump\t// out\n        /* \"#utility.yul\":22835:22994   */\n    tag_322:\n        /* \"#utility.yul\":22909:22920   */\n      0x00\n        /* \"#utility.yul\":22943:22949   */\n      dup3\n        /* \"#utility.yul\":22938:22941   */\n      dup3\n        /* \"#utility.yul\":22931:22950   */\n      mstore\n        /* \"#utility.yul\":22983:22987   */\n      0x20\n        /* \"#utility.yul\":22978:22981   */\n      dup3\n        /* \"#utility.yul\":22974:22988   */\n      add\n        /* \"#utility.yul\":22959:22988   */\n      swap1\n      pop\n        /* \"#utility.yul\":22835:22994   */\n      swap3\n      swap2\n      pop\n      pop\n      jump\t// out\n        /* \"#utility.yul\":23000:23169   */\n    tag_331:\n        /* \"#utility.yul\":23084:23095   */\n      0x00\n        /* \"#utility.yul\":23118:23124   */\n      dup3\n        /* \"#utility.yul\":23113:23116   */\n      dup3\n        /* \"#utility.yul\":23106:23125   */\n      mstore\n        /* \"#utility.yul\":23158:23162   */\n      0x20\n        /* \"#utility.yul\":23153:23156   */\n      dup3\n        /* \"#utility.yul\":23149:23163   */\n      add\n        /* \"#utility.yul\":23134:23163   */\n      swap1\n      pop\n        /* \"#utility.yul\":23000:23169   */\n      swap3\n      swap2\n      pop\n      pop\n      jump\t// out\n        /* \"#utility.yul\":23175:23480   */\n    tag_126:\n        /* \"#utility.yul\":23215:23218   */\n      0x00\n        /* \"#utility.yul\":23234:23254   */\n      tag_480\n        /* \"#utility.yul\":23252:23253   */\n      dup3\n        /* \"#utility.yul\":23234:23254   */\n      tag_404\n      jump\t// in\n    tag_480:\n        /* \"#utility.yul\":23229:23254   */\n      swap2\n      pop\n        /* \"#utility.yul\":23268:23288   */\n      tag_481\n        /* \"#utility.yul\":23286:23287   */\n      dup4\n        /* \"#utility.yul\":23268:23288   */\n      tag_404\n      jump\t// in\n    tag_481:\n        /* \"#utility.yul\":23263:23288   */\n      swap3\n      pop\n        /* \"#utility.yul\":23422:23423   */\n      dup3\n        /* \"#utility.yul\":23354:23420   */\n      0xffffffffffffffffffffffffffffffffffffffffffffffffffffffffffffffff\n        /* \"#utility.yul\":23350:23424   */\n      sub\n        /* \"#utility.yul\":23347:23348   */\n      dup3\n        /* \"#utility.yul\":23344:23425   */\n      gt\n        /* \"#utility.yul\":23341:23448   */\n      iszero\n      tag_482\n      jumpi\n        /* \"#utility.yul\":23428:23446   */\n      tag_483\n      tag_484\n      jump\t// in\n    tag_483:\n        /* \"#utility.yul\":23341:23448   */\n    tag_482:\n        /* \"#utility.yul\":23472:23473   */\n      dup3\n        /* \"#utility.yul\":23469:23470   */\n      dup3\n        /* \"#utility.yul\":23465:23474   */\n      add\n        /* \"#utility.yul\":23458:23474   */\n      swap1\n      pop\n        /* \"#utility.yul\":23175:23480   */\n      swap3\n      swap2\n      pop\n      pop\n      jump\t// out\n        /* \"#utility.yul\":23486:23671   */\n    tag_188:\n        /* \"#utility.yul\":23526:23527   */\n      0x00\n        /* \"#utility.yul\":23543:23563   */\n      tag_486\n        /* \"#utility.yul\":23561:23562   */\n      dup3\n        /* \"#utility.yul\":23543:23563   */\n      tag_404\n      jump\t// in\n    tag_486:\n        /* \"#utility.yul\":23538:23563   */\n      swap2\n      pop\n        /* \"#utility.yul\":23577:23597   */\n      tag_487\n        /* \"#utility.yul\":23595:23596   */\n      dup4\n        /* \"#utility.yul\":23577:23597   */\n      tag_404\n      jump\t// in\n    tag_487:\n        /* \"#utility.yul\":23572:23597   */\n      swap3\n      pop\n        /* \"#utility.yul\":23616:23617   */\n      dup3\n        /* \"#utility.yul\":23606:23641   */\n      tag_488\n      jumpi\n        /* \"#utility.yul\":23621:23639   */\n      tag_489\n      tag_490\n      jump\t// in\n    tag_489:\n        /* \"#utility.yul\":23606:23641   */\n    tag_488:\n        /* \"#utility.yul\":23663:23664   */\n      dup3\n        /* \"#utility.yul\":23660:23661   */\n      dup3\n        /* \"#utility.yul\":23656:23665   */\n      div\n        /* \"#utility.yul\":23651:23665   */\n      swap1\n      pop\n        /* \"#utility.yul\":23486:23671   */\n      swap3\n      swap2\n      pop\n      pop\n      jump\t// out\n        /* \"#utility.yul\":23677:24025   */\n    tag_190:\n        /* \"#utility.yul\":23717:23724   */\n      0x00\n        /* \"#utility.yul\":23740:23760   */\n      tag_492\n        /* \"#utility.yul\":23758:23759   */\n      dup3\n        /* \"#utility.yul\":23740:23760   */\n      tag_404\n      jump\t// in\n    tag_492:\n        /* \"#utility.yul\":23735:23760   */\n      swap2\n      pop\n        /* \"#utility.yul\":23774:23794   */\n      tag_493\n        /* \"#utility.yul\":23792:23793   */\n      dup4\n        /* \"#utility.yul\":23774:23794   */\n      tag_404\n      jump\t// in\n    tag_493:\n        /* \"#utility.yul\":23769:23794   */\n      swap3\n      pop\n        /* \"#utility.yul\":23962:23963   */\n      dup2\n        /* \"#utility.yul\":23894:23960   */\n      0xffffffffffffffffffffffffffffffffffffffffffffffffffffffffffffffff\n        /* \"#utility.yul\":23890:23964   */\n      div\n        /* \"#utility.yul\":23887:23888   */\n      dup4\n        /* \"#utility.yul\":23884:23965   */\n      gt\n        /* \"#utility.yul\":23879:23880   */\n      dup3\n        /* \"#utility.yul\":23872:23881   */\n      iszero\n        /* \"#utility.yul\":23865:23882   */\n      iszero\n        /* \"#utility.yul\":23861:23966   */\n      and\n        /* \"#utility.yul\":23858:23989   */\n      iszero\n      tag_494\n      jumpi\n        /* \"#utility.yul\":23969:23987   */\n      tag_495\n      tag_484\n      jump\t// in\n    tag_495:\n        /* \"#utility.yul\":23858:23989   */\n    tag_494:\n        /* \"#utility.yul\":24017:24018   */\n      dup3\n        /* \"#utility.yul\":24014:24015   */\n      dup3\n        /* \"#utility.yul\":24010:24019   */\n      mul\n        /* \"#utility.yul\":23999:24019   */\n      swap1\n      pop\n        /* \"#utility.yul\":23677:24025   */\n      swap3\n      swap2\n      pop\n      pop\n      jump\t// out\n        /* \"#utility.yul\":24031:24127   */\n    tag_285:\n        /* \"#utility.yul\":24068:24075   */\n      0x00\n        /* \"#utility.yul\":24097:24121   */\n      tag_497\n        /* \"#utility.yul\":24115:24120   */\n      dup3\n        /* \"#utility.yul\":24097:24121   */\n      tag_498\n      jump\t// in\n    tag_497:\n        /* \"#utility.yul\":24086:24121   */\n      swap1\n      pop\n        /* \"#utility.yul\":24031:24127   */\n      swap2\n      swap1\n      pop\n      jump\t// out\n        /* \"#utility.yul\":24133:24223   */\n    tag_306:\n        /* \"#utility.yul\":24167:24174   */\n      0x00\n        /* \"#utility.yul\":24210:24215   */\n      dup2\n        /* \"#utility.yul\":24203:24216   */\n      iszero\n        /* \"#utility.yul\":24196:24217   */\n      iszero\n        /* \"#utility.yul\":24185:24217   */\n      swap1\n      pop\n        /* \"#utility.yul\":24133:24223   */\n      swap2\n      swap1\n      pop\n      jump\t// out\n        /* \"#utility.yul\":24229:24306   */\n    tag_313:\n        /* \"#utility.yul\":24266:24273   */\n      0x00\n        /* \"#utility.yul\":24295:24300   */\n      dup2\n        /* \"#utility.yul\":24284:24300   */\n      swap1\n      pop\n        /* \"#utility.yul\":24229:24306   */\n      swap2\n      swap1\n      pop\n      jump\t// out\n        /* \"#utility.yul\":24312:24438   */\n    tag_498:\n        /* \"#utility.yul\":24349:24356   */\n      0x00\n        /* \"#utility.yul\":24389:24431   */\n      0xffffffffffffffffffffffffffffffffffffffff\n        /* \"#utility.yul\":24382:24387   */\n      dup3\n        /* \"#utility.yul\":24378:24432   */\n      and\n        /* \"#utility.yul\":24367:24432   */\n      swap1\n      pop\n        /* \"#utility.yul\":24312:24438   */\n      swap2\n      swap1\n      pop\n      jump\t// out\n        /* \"#utility.yul\":24444:24521   */\n    tag_404:\n        /* \"#utility.yul\":24481:24488   */\n      0x00\n        /* \"#utility.yul\":24510:24515   */\n      dup2\n        /* \"#utility.yul\":24499:24515   */\n      swap1\n      pop\n        /* \"#utility.yul\":24444:24521   */\n      swap2\n      swap1\n      pop\n      jump\t// out\n        /* \"#utility.yul\":24527:24613   */\n    tag_503:\n        /* \"#utility.yul\":24562:24569   */\n      0x00\n        /* \"#utility.yul\":24602:24606   */\n      0xff\n        /* \"#utility.yul\":24595:24600   */\n      dup3\n        /* \"#utility.yul\":24591:24607   */\n      and\n        /* \"#utility.yul\":24580:24607   */\n      swap1\n      pop\n        /* \"#utility.yul\":24527:24613   */\n      swap2\n      swap1\n      pop\n      jump\t// out\n        /* \"#utility.yul\":24619:24773   */\n    tag_234:\n        /* \"#utility.yul\":24703:24709   */\n      dup3\n        /* \"#utility.yul\":24698:24701   */\n      dup2\n        /* \"#utility.yul\":24693:24696   */\n      dup4\n        /* \"#utility.yul\":24680:24710   */\n      calldatacopy\n        /* \"#utility.yul\":24765:24766   */\n      0x00\n        /* \"#utility.yul\":24756:24762   */\n      dup4\n        /* \"#utility.yul\":24751:24754   */\n      dup4\n        /* \"#utility.yul\":24747:24763   */\n      add\n        /* \"#utility.yul\":24740:24767   */\n      mstore\n        /* \"#utility.yul\":24619:24773   */\n      pop\n      pop\n      pop\n      jump\t// out\n        /* \"#utility.yul\":24779:25086   */\n    tag_324:\n        /* \"#utility.yul\":24847:24848   */\n      0x00\n        /* \"#utility.yul\":24857:24970   */\n    tag_507:\n        /* \"#utility.yul\":24871:24877   */\n      dup4\n        /* \"#utility.yul\":24868:24869   */\n      dup2\n        /* \"#utility.yul\":24865:24878   */\n      lt\n        /* \"#utility.yul\":24857:24970   */\n      iszero\n      tag_509\n      jumpi\n        /* \"#utility.yul\":24956:24957   */\n      dup1\n        /* \"#utility.yul\":24951:24954   */\n      dup3\n        /* \"#utility.yul\":24947:24958   */\n      add\n        /* \"#utility.yul\":24941:24959   */\n      mload\n        /* \"#utility.yul\":24937:24938   */\n      dup2\n        /* \"#utility.yul\":24932:24935   */\n      dup5\n        /* \"#utility.yul\":24928:24939   */\n      add\n        /* \"#utility.yul\":24921:24960   */\n      mstore\n        /* \"#utility.yul\":24893:24895   */\n      0x20\n        /* \"#utility.yul\":24890:24891   */\n      dup2\n        /* \"#utility.yul\":24886:24896   */\n      add\n        /* \"#utility.yul\":24881:24896   */\n      swap1\n      pop\n        /* \"#utility.yul\":24857:24970   */\n      jump(tag_507)\n    tag_509:\n        /* \"#utility.yul\":24988:24994   */\n      dup4\n        /* \"#utility.yul\":24985:24986   */\n      dup2\n        /* \"#utility.yul\":24982:24995   */\n      gt\n        /* \"#utility.yul\":24979:25080   */\n      iszero\n      tag_510\n      jumpi\n        /* \"#utility.yul\":25068:25069   */\n      0x00\n        /* \"#utility.yul\":25059:25065   */\n      dup5\n        /* \"#utility.yul\":25054:25057   */\n      dup5\n        /* \"#utility.yul\":25050:25066   */\n      add\n        /* \"#utility.yul\":25043:25070   */\n      mstore\n        /* \"#utility.yul\":24979:25080   */\n    tag_510:\n        /* \"#utility.yul\":24828:25086   */\n      pop\n        /* \"#utility.yul\":24779:25086   */\n      pop\n      pop\n      pop\n      jump\t// out\n        /* \"#utility.yul\":25092:25412   */\n    tag_109:\n        /* \"#utility.yul\":25136:25142   */\n      0x00\n        /* \"#utility.yul\":25173:25174   */\n      0x02\n        /* \"#utility.yul\":25167:25171   */\n      dup3\n        /* \"#utility.yul\":25163:25175   */\n      div\n        /* \"#utility.yul\":25153:25175   */\n      swap1\n      pop\n        /* \"#utility.yul\":25220:25221   */\n      0x01\n        /* \"#utility.yul\":25214:25218   */\n      dup3\n        /* \"#utility.yul\":25210:25222   */\n      and\n        /* \"#utility.yul\":25241:25259   */\n      dup1\n        /* \"#utility.yul\":25231:25312   */\n      tag_512\n      jumpi\n        /* \"#utility.yul\":25297:25301   */\n      0x7f\n        /* \"#utility.yul\":25289:25295   */\n      dup3\n        /* \"#utility.yul\":25285:25302   */\n      and\n        /* \"#utility.yul\":25275:25302   */\n      swap2\n      pop\n        /* \"#utility.yul\":25231:25312   */\n    tag_512:\n        /* \"#utility.yul\":25359:25361   */\n      0x20\n        /* \"#utility.yul\":25351:25357   */\n      dup3\n        /* \"#utility.yul\":25348:25362   */\n      lt\n        /* \"#utility.yul\":25328:25346   */\n      dup2\n        /* \"#utility.yul\":25325:25363   */\n      eq\n        /* \"#utility.yul\":25322:25406   */\n      iszero\n      tag_513\n      jumpi\n        /* \"#utility.yul\":25378:25396   */\n      tag_514\n      tag_515\n      jump\t// in\n    tag_514:\n        /* \"#utility.yul\":25322:25406   */\n    tag_513:\n        /* \"#utility.yul\":25143:25412   */\n      pop\n        /* \"#utility.yul\":25092:25412   */\n      swap2\n      swap1\n      pop\n      jump\t// out\n        /* \"#utility.yul\":25418:25699   */\n    tag_465:\n        /* \"#utility.yul\":25501:25528   */\n      tag_517\n        /* \"#utility.yul\":25523:25527   */\n      dup3\n        /* \"#utility.yul\":25501:25528   */\n      tag_326\n      jump\t// in\n    tag_517:\n        /* \"#utility.yul\":25493:25499   */\n      dup2\n        /* \"#utility.yul\":25489:25529   */\n      add\n        /* \"#utility.yul\":25631:25637   */\n      dup2\n        /* \"#utility.yul\":25619:25629   */\n      dup2\n        /* \"#utility.yul\":25616:25638   */\n      lt\n        /* \"#utility.yul\":25595:25613   */\n      0xffffffffffffffff\n        /* \"#utility.yul\":25583:25593   */\n      dup3\n        /* \"#utility.yul\":25580:25614   */\n      gt\n        /* \"#utility.yul\":25577:25639   */\n      or\n        /* \"#utility.yul\":25574:25662   */\n      iszero\n      tag_518\n      jumpi\n        /* \"#utility.yul\":25642:25660   */\n      tag_519\n      tag_470\n      jump\t// in\n    tag_519:\n        /* \"#utility.yul\":25574:25662   */\n    tag_518:\n        /* \"#utility.yul\":25682:25692   */\n      dup1\n        /* \"#utility.yul\":25678:25680   */\n      0x40\n        /* \"#utility.yul\":25671:25693   */\n      mstore\n        /* \"#utility.yul\":25461:25699   */\n      pop\n        /* \"#utility.yul\":25418:25699   */\n      pop\n      pop\n      jump\t// out\n        /* \"#utility.yul\":25705:25872   */\n    tag_205:\n        /* \"#utility.yul\":25742:25745   */\n      0x00\n        /* \"#utility.yul\":25765:25787   */\n      tag_521\n        /* \"#utility.yul\":25781:25786   */\n      dup3\n        /* \"#utility.yul\":25765:25787   */\n      tag_503\n      jump\t// in\n    tag_521:\n        /* \"#utility.yul\":25756:25787   */\n      swap2\n      pop\n        /* \"#utility.yul\":25809:25813   */\n      0xff\n        /* \"#utility.yul\":25802:25807   */\n      dup3\n        /* \"#utility.yul\":25799:25814   */\n      eq\n        /* \"#utility.yul\":25796:25837   */\n      iszero\n      tag_522\n      jumpi\n        /* \"#utility.yul\":25817:25835   */\n      tag_523\n      tag_484\n      jump\t// in\n    tag_523:\n        /* \"#utility.yul\":25796:25837   */\n    tag_522:\n        /* \"#utility.yul\":25864:25865   */\n      0x01\n        /* \"#utility.yul\":25857:25862   */\n      dup3\n        /* \"#utility.yul\":25853:25866   */\n      add\n        /* \"#utility.yul\":25846:25866   */\n      swap1\n      pop\n        /* \"#utility.yul\":25705:25872   */\n      swap2\n      swap1\n      pop\n      jump\t// out\n        /* \"#utility.yul\":25878:26058   */\n    tag_484:\n        /* \"#utility.yul\":25926:26003   */\n      0x4e487b7100000000000000000000000000000000000000000000000000000000\n        /* \"#utility.yul\":25923:25924   */\n      0x00\n        /* \"#utility.yul\":25916:26004   */\n      mstore\n        /* \"#utility.yul\":26023:26027   */\n      0x11\n        /* \"#utility.yul\":26020:26021   */\n      0x04\n        /* \"#utility.yul\":26013:26028   */\n      mstore\n        /* \"#utility.yul\":26047:26051   */\n      0x24\n        /* \"#utility.yul\":26044:26045   */\n      0x00\n        /* \"#utility.yul\":26037:26052   */\n      revert\n        /* \"#utility.yul\":26064:26244   */\n    tag_490:\n        /* \"#utility.yul\":26112:26189   */\n      0x4e487b7100000000000000000000000000000000000000000000000000000000\n        /* \"#utility.yul\":26109:26110   */\n      0x00\n        /* \"#utility.yul\":26102:26190   */\n      mstore\n        /* \"#utility.yul\":26209:26213   */\n      0x12\n        /* \"#utility.yul\":26206:26207   */\n      0x04\n        /* \"#utility.yul\":26199:26214   */\n      mstore\n        /* \"#utility.yul\":26233:26237   */\n      0x24\n        /* \"#utility.yul\":26230:26231   */\n      0x00\n        /* \"#utility.yul\":26223:26238   */\n      revert\n        /* \"#utility.yul\":26250:26430   */\n    tag_515:\n        /* \"#utility.yul\":26298:26375   */\n      0x4e487b7100000000000000000000000000000000000000000000000000000000\n        /* \"#utility.yul\":26295:26296   */\n      0x00\n        /* \"#utility.yul\":26288:26376   */\n      mstore\n        /* \"#utility.yul\":26395:26399   */\n      0x22\n        /* \"#utility.yul\":26392:26393   */\n      0x04\n        /* \"#utility.yul\":26385:26400   */\n      mstore\n        /* \"#utility.yul\":26419:26423   */\n      0x24\n        /* \"#utility.yul\":26416:26417   */\n      0x00\n        /* \"#utility.yul\":26409:26424   */\n      revert\n        /* \"#utility.yul\":26436:26616   */\n    tag_197:\n        /* \"#utility.yul\":26484:26561   */\n      0x4e487b7100000000000000000000000000000000000000000000000000000000\n        /* \"#utility.yul\":26481:26482   */\n      0x00\n        /* \"#utility.yul\":26474:26562   */\n      mstore\n        /* \"#utility.yul\":26581:26585   */\n      0x32\n        /* \"#utility.yul\":26578:26579   */\n      0x04\n        /* \"#utility.yul\":26571:26586   */\n      mstore\n        /* \"#utility.yul\":26605:26609   */\n      0x24\n        /* \"#utility.yul\":26602:26603   */\n      0x00\n        /* \"#utility.yul\":26595:26610   */\n      revert\n        /* \"#utility.yul\":26622:26802   */\n    tag_470:\n        /* \"#utility.yul\":26670:26747   */\n      0x4e487b7100000000000000000000000000000000000000000000000000000000\n        /* \"#utility.yul\":26667:26668   */\n      0x00\n        /* \"#utility.yul\":26660:26748   */\n      mstore\n        /* \"#utility.yul\":26767:26771   */\n      0x41\n        /* \"#utility.yul\":26764:26765   */\n      0x04\n        /* \"#utility.yul\":26757:26772   */\n      mstore\n        /* \"#utility.yul\":26791:26795   */\n      0x24\n        /* \"#utility.yul\":26788:26789   */\n      0x00\n        /* \"#utility.yul\":26781:26796   */\n      revert\n        /* \"#utility.yul\":26808:26925   */\n    tag_247:\n        /* \"#utility.yul\":26917:26918   */\n      0x00\n        /* \"#utility.yul\":26914:26915   */\n      dup1\n        /* \"#utility.yul\":26907:26919   */\n      revert\n        /* \"#utility.yul\":26931:27048   */\n    tag_232:\n        /* \"#utility.yul\":27040:27041   */\n      0x00\n        /* \"#utility.yul\":27037:27038   */\n      dup1\n        /* \"#utility.yul\":27030:27042   */\n      revert\n        /* \"#utility.yul\":27054:27171   */\n    tag_263:\n        /* \"#utility.yul\":27163:27164   */\n      0x00\n        /* \"#utility.yul\":27160:27161   */\n      dup1\n        /* \"#utility.yul\":27153:27165   */\n      revert\n        /* \"#utility.yul\":27177:27294   */\n    tag_256:\n        /* \"#utility.yul\":27286:27287   */\n      0x00\n        /* \"#utility.yul\":27283:27284   */\n      dup1\n        /* \"#utility.yul\":27276:27288   */\n      revert\n        /* \"#utility.yul\":27300:27402   */\n    tag_326:\n        /* \"#utility.yul\":27341:27347   */\n      0x00\n        /* \"#utility.yul\":27392:27394   */\n      0x1f\n        /* \"#utility.yul\":27388:27395   */\n      not\n        /* \"#utility.yul\":27383:27385   */\n      0x1f\n        /* \"#utility.yul\":27376:27381   */\n      dup4\n        /* \"#utility.yul\":27372:27386   */\n      add\n        /* \"#utility.yul\":27368:27396   */\n      and\n        /* \"#utility.yul\":27358:27396   */\n      swap1\n      pop\n        /* \"#utility.yul\":27300:27402   */\n      swap2\n      swap1\n      pop\n      jump\t// out\n        /* \"#utility.yul\":27408:27589   */\n    tag_338:\n        /* \"#utility.yul\":27548:27581   */\n      0x526563697069656e7420697320616c7265616479207265676973746572656400\n        /* \"#utility.yul\":27544:27545   */\n      0x00\n        /* \"#utility.yul\":27536:27542   */\n      dup3\n        /* \"#utility.yul\":27532:27546   */\n      add\n        /* \"#utility.yul\":27525:27582   */\n      mstore\n        /* \"#utility.yul\":27408:27589   */\n      pop\n      jump\t// out\n        /* \"#utility.yul\":27595:27820   */\n    tag_343:\n        /* \"#utility.yul\":27735:27769   */\n      0x596f75206172656e277420617574686f72697a6520746f20636f6d70696c6520\n        /* \"#utility.yul\":27731:27732   */\n      0x00\n        /* \"#utility.yul\":27723:27729   */\n      dup3\n        /* \"#utility.yul\":27719:27733   */\n      add\n        /* \"#utility.yul\":27712:27770   */\n      mstore\n        /* \"#utility.yul\":27804:27812   */\n      0x42756e646c650000000000000000000000000000000000000000000000000000\n        /* \"#utility.yul\":27799:27801   */\n      0x20\n        /* \"#utility.yul\":27791:27797   */\n      dup3\n        /* \"#utility.yul\":27787:27802   */\n      add\n        /* \"#utility.yul\":27780:27813   */\n      mstore\n        /* \"#utility.yul\":27595:27820   */\n      pop\n      jump\t// out\n        /* \"#utility.yul\":27826:28004   */\n    tag_348:\n        /* \"#utility.yul\":27966:27996   */\n      0x596f7520616c72656164792073656e74206120726573706f6e73652e00000000\n        /* \"#utility.yul\":27962:27963   */\n      0x00\n        /* \"#utility.yul\":27954:27960   */\n      dup3\n        /* \"#utility.yul\":27950:27964   */\n      add\n        /* \"#utility.yul\":27943:27997   */\n      mstore\n        /* \"#utility.yul\":27826:28004   */\n      pop\n      jump\t// out\n        /* \"#utility.yul\":28010:28181   */\n    tag_353:\n        /* \"#utility.yul\":28150:28173   */\n      0x496e69746961746f722063616e277420766f7465210000000000000000000000\n        /* \"#utility.yul\":28146:28147   */\n      0x00\n        /* \"#utility.yul\":28138:28144   */\n      dup3\n        /* \"#utility.yul\":28134:28148   */\n      add\n        /* \"#utility.yul\":28127:28174   */\n      mstore\n        /* \"#utility.yul\":28010:28181   */\n      pop\n      jump\t// out\n        /* \"#utility.yul\":28187:28367   */\n    tag_358:\n        /* \"#utility.yul\":28327:28359   */\n      0x596f7520617265206e6f74207265676973746572656420746f20766f74650000\n        /* \"#utility.yul\":28323:28324   */\n      0x00\n        /* \"#utility.yul\":28315:28321   */\n      dup3\n        /* \"#utility.yul\":28311:28325   */\n      add\n        /* \"#utility.yul\":28304:28360   */\n      mstore\n        /* \"#utility.yul\":28187:28367   */\n      pop\n      jump\t// out\n        /* \"#utility.yul\":28373:28596   */\n    tag_363:\n        /* \"#utility.yul\":28513:28547   */\n      0x50726f706f73616c206861732072656163686564206974732065787069727920\n        /* \"#utility.yul\":28509:28510   */\n      0x00\n        /* \"#utility.yul\":28501:28507   */\n      dup3\n        /* \"#utility.yul\":28497:28511   */\n      add\n        /* \"#utility.yul\":28490:28548   */\n      mstore\n        /* \"#utility.yul\":28582:28588   */\n      0x6461746500000000000000000000000000000000000000000000000000000000\n        /* \"#utility.yul\":28577:28579   */\n      0x20\n        /* \"#utility.yul\":28569:28575   */\n      dup3\n        /* \"#utility.yul\":28565:28580   */\n      add\n        /* \"#utility.yul\":28558:28589   */\n      mstore\n        /* \"#utility.yul\":28373:28596   */\n      pop\n      jump\t// out\n        /* \"#utility.yul\":28602:28829   */\n    tag_368:\n        /* \"#utility.yul\":28742:28776   */\n      0x4f6e6c7920696e69746961746f722063616e2072656769737465722061207265\n        /* \"#utility.yul\":28738:28739   */\n      0x00\n        /* \"#utility.yul\":28730:28736   */\n      dup3\n        /* \"#utility.yul\":28726:28740   */\n      add\n        /* \"#utility.yul\":28719:28777   */\n      mstore\n        /* \"#utility.yul\":28811:28821   */\n      0x63697069656e742e000000000000000000000000000000000000000000000000\n        /* \"#utility.yul\":28806:28808   */\n      0x20\n        /* \"#utility.yul\":28798:28804   */\n      dup3\n        /* \"#utility.yul\":28794:28809   */\n      add\n        /* \"#utility.yul\":28787:28822   */\n      mstore\n        /* \"#utility.yul\":28602:28829   */\n      pop\n      jump\t// out\n        /* \"#utility.yul\":28835:29005   */\n    tag_373:\n        /* \"#utility.yul\":28975:28997   */\n      0x596f75206172656e277420496e69746961746f72000000000000000000000000\n        /* \"#utility.yul\":28971:28972   */\n      0x00\n        /* \"#utility.yul\":28963:28969   */\n      dup3\n        /* \"#utility.yul\":28959:28973   */\n      add\n        /* \"#utility.yul\":28952:28998   */\n      mstore\n        /* \"#utility.yul\":28835:29005   */\n      pop\n      jump\t// out\n        /* \"#utility.yul\":29011:29193   */\n    tag_378:\n        /* \"#utility.yul\":29151:29185   */\n      0x5665726469637420686173206e6f74206265656e207265616368656420796574\n        /* \"#utility.yul\":29147:29148   */\n      0x00\n        /* \"#utility.yul\":29139:29145   */\n      dup3\n        /* \"#utility.yul\":29135:29149   */\n      add\n        /* \"#utility.yul\":29128:29186   */\n      mstore\n        /* \"#utility.yul\":29011:29193   */\n      pop\n      jump\t// out\n        /* \"#utility.yul\":29199:29367   */\n    tag_383:\n        /* \"#utility.yul\":29339:29359   */\n      0x566f74696e672068617320657870697265640000000000000000000000000000\n        /* \"#utility.yul\":29335:29336   */\n      0x00\n        /* \"#utility.yul\":29327:29333   */\n      dup3\n        /* \"#utility.yul\":29323:29337   */\n      add\n        /* \"#utility.yul\":29316:29360   */\n      mstore\n        /* \"#utility.yul\":29199:29367   */\n      pop\n      jump\t// out\n        /* \"#utility.yul\":29373:29597   */\n    tag_388:\n        /* \"#utility.yul\":29513:29547   */\n      0x436f6e73656e7375732068617320616c7265616479206265656e2063616c6375\n        /* \"#utility.yul\":29509:29510   */\n      0x00\n        /* \"#utility.yul\":29501:29507   */\n      dup3\n        /* \"#utility.yul\":29497:29511   */\n      add\n        /* \"#utility.yul\":29490:29548   */\n      mstore\n        /* \"#utility.yul\":29582:29589   */\n      0x6c61746564000000000000000000000000000000000000000000000000000000\n        /* \"#utility.yul\":29577:29579   */\n      0x20\n        /* \"#utility.yul\":29569:29575   */\n      dup3\n        /* \"#utility.yul\":29565:29580   */\n      add\n        /* \"#utility.yul\":29558:29590   */\n      mstore\n        /* \"#utility.yul\":29373:29597   */\n      pop\n      jump\t// out\n        /* \"#utility.yul\":29603:29725   */\n    tag_238:\n        /* \"#utility.yul\":29676:29700   */\n      tag_546\n        /* \"#utility.yul\":29694:29699   */\n      dup2\n        /* \"#utility.yul\":29676:29700   */\n      tag_285\n      jump\t// in\n    tag_546:\n        /* \"#utility.yul\":29669:29674   */\n      dup2\n        /* \"#utility.yul\":29666:29701   */\n      eq\n        /* \"#utility.yul\":29656:29719   */\n      tag_547\n      jumpi\n        /* \"#utility.yul\":29715:29716   */\n      0x00\n        /* \"#utility.yul\":29712:29713   */\n      dup1\n        /* \"#utility.yul\":29705:29717   */\n      revert\n        /* \"#utility.yul\":29656:29719   */\n    tag_547:\n        /* \"#utility.yul\":29603:29725   */\n      pop\n      jump\t// out\n        /* \"#utility.yul\":29731:29853   */\n    tag_242:\n        /* \"#utility.yul\":29804:29828   */\n      tag_549\n        /* \"#utility.yul\":29822:29827   */\n      dup2\n        /* \"#utility.yul\":29804:29828   */\n      tag_313\n      jump\t// in\n    tag_549:\n        /* \"#utility.yul\":29797:29802   */\n      dup2\n        /* \"#utility.yul\":29794:29829   */\n      eq\n        /* \"#utility.yul\":29784:29847   */\n      tag_550\n      jumpi\n        /* \"#utility.yul\":29843:29844   */\n      0x00\n        /* \"#utility.yul\":29840:29841   */\n      dup1\n        /* \"#utility.yul\":29833:29845   */\n      revert\n        /* \"#utility.yul\":29784:29847   */\n    tag_550:\n        /* \"#utility.yul\":29731:29853   */\n      pop\n      jump\t// out\n        /* \"#utility.yul\":29859:29981   */\n    tag_252:\n        /* \"#utility.yul\":29932:29956   */\n      tag_552\n        /* \"#utility.yul\":29950:29955   */\n      dup2\n        /* \"#utility.yul\":29932:29956   */\n      tag_404\n      jump\t// in\n    tag_552:\n        /* \"#utility.yul\":29925:29930   */\n      dup2\n        /* \"#utility.yul\":29922:29957   */\n      eq\n        /* \"#utility.yul\":29912:29975   */\n      tag_553\n      jumpi\n        /* \"#utility.yul\":29971:29972   */\n      0x00\n        /* \"#utility.yul\":29968:29969   */\n      dup1\n        /* \"#utility.yul\":29961:29973   */\n      revert\n        /* \"#utility.yul\":29912:29975   */\n    tag_553:\n        /* \"#utility.yul\":29859:29981   */\n      pop\n      jump\t// out\n\n    auxdata: 0xa2646970667358221220bb8d467878f2d84bfb6215e3120b0e665288a2a15c9c76b3b191723607c9f5ab64736f6c63430008070033\n}\n",
				"bytecode": {
					"linkReferences": {},
					"object": "60806040523480156200001157600080fd5b506040516200336738038062003367833981810160405281019062000037919062000333565b33600160006101000a81548173ffffffffffffffffffffffffffffffffffffffff021916908373ffffffffffffffffffffffffffffffffffffffff16021790555084426200008691906200048b565b6003819055508360048190555060006005819055506000600660006101000a81548160ff0219169083151502179055507f52656a6563746564000000000000000000000000000000000000000000000000600781905550306000806101000a81548173ffffffffffffffffffffffffffffffffffffffff021916908373ffffffffffffffffffffffffffffffffffffffff1602179055506040518060c001604052806000815260200187815260200182815260200183815260200184815260200186815250600a60008201518160000155602082015181600101908051906020019062000175929190620001d7565b50604082015181600201908051906020019062000194929190620001d7565b506060820151816003019080519060200190620001b3929190620001d7565b506080820151816004015560a0820151816005015590505050505050505062000684565b828054620001e59062000532565b90600052602060002090601f01602090048101928262000209576000855562000255565b82601f106200022457805160ff191683800117855562000255565b8280016001018555821562000255579182015b828111156200025457825182559160200191906001019062000237565b5b50905062000264919062000268565b5090565b5b808211156200028357600081600090555060010162000269565b5090565b60006200029e620002988462000455565b6200042c565b905082815260208101848484011115620002bd57620002bc62000630565b5b620002ca848285620004fc565b509392505050565b600081519050620002e38162000650565b92915050565b600082601f8301126200030157620003006200062b565b5b81516200031384826020860162000287565b91505092915050565b6000815190506200032d816200066a565b92915050565b60008060008060008060c087890312156200035357620003526200063a565b5b600087015167ffffffffffffffff81111562000374576200037362000635565b5b6200038289828a01620002e9565b96505060206200039589828a016200031c565b9550506040620003a889828a016200031c565b9450506060620003bb89828a01620002d2565b935050608087015167ffffffffffffffff811115620003df57620003de62000635565b5b620003ed89828a01620002e9565b92505060a087015167ffffffffffffffff81111562000411576200041062000635565b5b6200041f89828a01620002e9565b9150509295509295509295565b6000620004386200044b565b905062000446828262000568565b919050565b6000604051905090565b600067ffffffffffffffff821115620004735762000472620005fc565b5b6200047e826200063f565b9050602081019050919050565b60006200049882620004f2565b9150620004a583620004f2565b9250827fffffffffffffffffffffffffffffffffffffffffffffffffffffffffffffffff03821115620004dd57620004dc6200059e565b5b828201905092915050565b6000819050919050565b6000819050919050565b60005b838110156200051c578082015181840152602081019050620004ff565b838111156200052c576000848401525b50505050565b600060028204905060018216806200054b57607f821691505b60208210811415620005625762000561620005cd565b5b50919050565b62000573826200063f565b810181811067ffffffffffffffff82111715620005955762000594620005fc565b5b80604052505050565b7f4e487b7100000000000000000000000000000000000000000000000000000000600052601160045260246000fd5b7f4e487b7100000000000000000000000000000000000000000000000000000000600052602260045260246000fd5b7f4e487b7100000000000000000000000000000000000000000000000000000000600052604160045260246000fd5b600080fd5b600080fd5b600080fd5b600080fd5b6000601f19601f8301169050919050565b6200065b81620004e8565b81146200066757600080fd5b50565b6200067581620004f2565b81146200068157600080fd5b50565b612cd380620006946000396000f3fe608060405234801561001057600080fd5b506004361061010b5760003560e01c8063760297e9116100a25780639d6a3125116100715780639d6a3125146102a1578063a5ea11da146102d3578063d77aa749146102f3578063da58c7d914610311578063f6b4dfb4146103435761010b565b8063760297e914610227578063823167451461024557806395b02dfa146102655780639aa4bbdd1461026f5761010b565b80635361a0ea116100de5780635361a0ea146101965780635c39fcc1146101c85780637403c5e5146101e6578063753ec103146102045761010b565b80630cb6aaf11461011057806315fe6f1b1461014057806319eb4a901461015c578063323082d71461017a575b600080fd5b61012a60048036038101906101259190611f01565b610361565b60405161013791906122e8565b60405180910390f35b61015a60048036038101906101559190611e08565b6103a0565b005b610164610742565b60405161017191906123d1565b60405180910390f35b610194600480360381019061018f9190611e35565b6107d7565b005b6101b060048036038101906101ab9190611e08565b610f7a565b6040516101bf9392919061231e565b60405180910390f35b6101d061108f565b6040516101dd91906122e8565b60405180910390f35b6101ee6110b5565b6040516101fb9190612591565b60405180910390f35b61020c6110bb565b60405161021e969594939291906125ac565b60405180910390f35b61022f61127d565b60405161023c9190612303565b60405180910390f35b61024d611294565b60405161025c9392919061238c565b60405180910390f35b61026d6115ba565b005b61028960048036038101906102849190611e08565b611a20565b6040516102989392919061231e565b60405180910390f35b6102bb60048036038101906102b69190611e7e565b611a84565b6040516102ca93929190612355565b60405180910390f35b6102db611bdc565b6040516102ea939291906123f3565b60405180910390f35b6102fb611c86565b6040516103089190612591565b60405180910390f35b61032b60048036038101906103269190611f01565b611c8c565b60405161033a9392919061231e565b60405180910390f35b61034b611cfc565b60405161035891906122e8565b60405180910390f35b6002818154811061037157600080fd5b906000526020600020016000915054906101000a900473ffffffffffffffffffffffffffffffffffffffff1681565b600160009054906101000a900473ffffffffffffffffffffffffffffffffffffffff1673ffffffffffffffffffffffffffffffffffffffff163373ffffffffffffffffffffffffffffffffffffffff1614610430576040517f08c379a0000000000000000000000000000000000000000000000000000000008152600401610427906124f1565b60405180910390fd5b600160009054906101000a900473ffffffffffffffffffffffffffffffffffffffff1673ffffffffffffffffffffffffffffffffffffffff168173ffffffffffffffffffffffffffffffffffffffff1614156104c1576040517f08c379a00000000000000000000000000000000000000000000000000000000081526004016104b890612491565b60405180910390fd5b600073ffffffffffffffffffffffffffffffffffffffff16600960008373ffffffffffffffffffffffffffffffffffffffff1673ffffffffffffffffffffffffffffffffffffffff16815260200190815260200160002060000160029054906101000a900473ffffffffffffffffffffffffffffffffffffffff1673ffffffffffffffffffffffffffffffffffffffff1614610592576040517f08c379a000000000000000000000000000000000000000000000000000000000815260040161058990612431565b60405180910390fd5b60035442106105d6576040517f08c379a00000000000000000000000000000000000000000000000000000000081526004016105cd906124d1565b60405180910390fd5b600060405180606001604052806000151581526020016000151581526020018373ffffffffffffffffffffffffffffffffffffffff16815250905080600960008473ffffffffffffffffffffffffffffffffffffffff1673ffffffffffffffffffffffffffffffffffffffff16815260200190815260200160002060008201518160000160006101000a81548160ff02191690831515021790555060208201518160000160016101000a81548160ff02191690831515021790555060408201518160000160026101000a81548173ffffffffffffffffffffffffffffffffffffffff021916908373ffffffffffffffffffffffffffffffffffffffff1602179055509050506002829080600181540180825580915050600190039060005260206000200160009091909190916101000a81548173ffffffffffffffffffffffffffffffffffffffff021916908373ffffffffffffffffffffffffffffffffffffffff1602179055505050565b6060600a600101805461075490612860565b80601f016020809104026020016040519081016040528092919081815260200182805461078090612860565b80156107cd5780601f106107a2576101008083540402835291602001916107cd565b820191906000526020600020905b8154815290600101906020018083116107b057829003601f168201915b5050505050905090565b600354421061081b576040517f08c379a000000000000000000000000000000000000000000000000000000000815260040161081290612551565b60405180910390fd5b600073ffffffffffffffffffffffffffffffffffffffff16600960003373ffffffffffffffffffffffffffffffffffffffff1673ffffffffffffffffffffffffffffffffffffffff16815260200190815260200160002060000160029054906101000a900473ffffffffffffffffffffffffffffffffffffffff1673ffffffffffffffffffffffffffffffffffffffff1614156108ed576040517f08c379a00000000000000000000000000000000000000000000000000000000081526004016108e4906124b1565b60405180910390fd5b600960003373ffffffffffffffffffffffffffffffffffffffff1673ffffffffffffffffffffffffffffffffffffffff16815260200190815260200160002060000160009054906101000a900460ff161561097d576040517f08c379a000000000000000000000000000000000000000000000000000000000815260040161097490612471565b60405180910390fd5b6040518060400160405280600981526020017f6920617070726f766500000000000000000000000000000000000000000000008152508051906020012081805190602001201415610be3576001600960003373ffffffffffffffffffffffffffffffffffffffff1673ffffffffffffffffffffffffffffffffffffffff16815260200190815260200160002060000160006101000a81548160ff0219169083151502179055506001600960003373ffffffffffffffffffffffffffffffffffffffff1673ffffffffffffffffffffffffffffffffffffffff16815260200190815260200160002060000160016101000a81548160ff021916908315150217905550600160056000828254610a9191906126de565b925050819055506001600a6000016000828254610aae91906126de565b925050819055506008600960003373ffffffffffffffffffffffffffffffffffffffff1673ffffffffffffffffffffffffffffffffffffffff168152602001908152602001600020908060018154018082558091505060019003906000526020600020016000909190919091506000820160009054906101000a900460ff168160000160006101000a81548160ff0219169083151502179055506000820160019054906101000a900460ff168160000160016101000a81548160ff0219169083151502179055506000820160029054906101000a900473ffffffffffffffffffffffffffffffffffffffff168160000160026101000a81548173ffffffffffffffffffffffffffffffffffffffff021916908373ffffffffffffffffffffffffffffffffffffffff1602179055505050610f77565b6040518060400160405280600c81526020017f6920646973617070726f766500000000000000000000000000000000000000008152508051906020012081805190602001201415610dd4576001600960003373ffffffffffffffffffffffffffffffffffffffff1673ffffffffffffffffffffffffffffffffffffffff16815260200190815260200160002060000160006101000a81548160ff0219169083151502179055506001600a6000016000828254610c9f91906126de565b925050819055506008600960003373ffffffffffffffffffffffffffffffffffffffff1673ffffffffffffffffffffffffffffffffffffffff168152602001908152602001600020908060018154018082558091505060019003906000526020600020016000909190919091506000820160009054906101000a900460ff168160000160006101000a81548160ff0219169083151502179055506000820160019054906101000a900460ff168160000160016101000a81548160ff0219169083151502179055506000820160029054906101000a900473ffffffffffffffffffffffffffffffffffffffff168160000160026101000a81548173ffffffffffffffffffffffffffffffffffffffff021916908373ffffffffffffffffffffffffffffffffffffffff1602179055505050610f76565b6001600960003373ffffffffffffffffffffffffffffffffffffffff1673ffffffffffffffffffffffffffffffffffffffff16815260200190815260200160002060000160006101000a81548160ff0219169083151502179055506001600a6000016000828254610e4591906126de565b925050819055506008600960003373ffffffffffffffffffffffffffffffffffffffff1673ffffffffffffffffffffffffffffffffffffffff168152602001908152602001600020908060018154018082558091505060019003906000526020600020016000909190919091506000820160009054906101000a900460ff168160000160006101000a81548160ff0219169083151502179055506000820160019054906101000a900460ff168160000160016101000a81548160ff0219169083151502179055506000820160029054906101000a900473ffffffffffffffffffffffffffffffffffffffff168160000160026101000a81548173ffffffffffffffffffffffffffffffffffffffff021916908373ffffffffffffffffffffffffffffffffffffffff16021790555050505b5b50565b6000806000600960008573ffffffffffffffffffffffffffffffffffffffff1673ffffffffffffffffffffffffffffffffffffffff16815260200190815260200160002060000160019054906101000a900460ff16600960008673ffffffffffffffffffffffffffffffffffffffff1673ffffffffffffffffffffffffffffffffffffffff16815260200190815260200160002060000160009054906101000a900460ff16600960008773ffffffffffffffffffffffffffffffffffffffff1673ffffffffffffffffffffffffffffffffffffffff16815260200190815260200160002060000160029054906101000a900473ffffffffffffffffffffffffffffffffffffffff169250925092509193909250565b600160009054906101000a900473ffffffffffffffffffffffffffffffffffffffff1681565b60055481565b600a8060000154908060010180546110d290612860565b80601f01602080910402602001604051908101604052809291908181526020018280546110fe90612860565b801561114b5780601f106111205761010080835404028352916020019161114b565b820191906000526020600020905b81548152906001019060200180831161112e57829003601f168201915b50505050509080600201805461116090612860565b80601f016020809104026020016040519081016040528092919081815260200182805461118c90612860565b80156111d95780601f106111ae576101008083540402835291602001916111d9565b820191906000526020600020905b8154815290600101906020018083116111bc57829003601f168201915b5050505050908060030180546111ee90612860565b80601f016020809104026020016040519081016040528092919081815260200182805461121a90612860565b80156112675780601f1061123c57610100808354040283529160200191611267565b820191906000526020600020905b81548152906001019060200180831161124a57829003601f168201915b5050505050908060040154908060050154905086565b6000600660009054906101000a900460ff16905090565b600061129e611d20565b60606003544210156112e5576040517f08c379a00000000000000000000000000000000000000000000000000000000081526004016112dc90612531565b60405180910390fd5b600754600a6008816040518060c00160405290816000820154815260200160018201805461131290612860565b80601f016020809104026020016040519081016040528092919081815260200182805461133e90612860565b801561138b5780601f106113605761010080835404028352916020019161138b565b820191906000526020600020905b81548152906001019060200180831161136e57829003601f168201915b505050505081526020016002820180546113a490612860565b80601f01602080910402602001604051908101604052809291908181526020018280546113d090612860565b801561141d5780601f106113f25761010080835404028352916020019161141d565b820191906000526020600020905b81548152906001019060200180831161140057829003601f168201915b5050505050815260200160038201805461143690612860565b80601f016020809104026020016040519081016040528092919081815260200182805461146290612860565b80156114af5780601f10611484576101008083540402835291602001916114af565b820191906000526020600020905b81548152906001019060200180831161149257829003601f168201915b5050505050815260200160048201548152602001600582015481525050915080805480602002602001604051908101604052809291908181526020016000905b828210156115a9578382906000526020600020016040518060600160405290816000820160009054906101000a900460ff161515151581526020016000820160019054906101000a900460ff161515151581526020016000820160029054906101000a900473ffffffffffffffffffffffffffffffffffffffff1673ffffffffffffffffffffffffffffffffffffffff1673ffffffffffffffffffffffffffffffffffffffff1681525050815260200190600101906114ef565b505050509050925092509250909192565b6003544210156115ff576040517f08c379a00000000000000000000000000000000000000000000000000000000081526004016115f690612531565b60405180910390fd5b60001515600660009054906101000a900460ff16151514611655576040517f08c379a000000000000000000000000000000000000000000000000000000000815260040161164c90612571565b60405180910390fd5b600160009054906101000a900473ffffffffffffffffffffffffffffffffffffffff1673ffffffffffffffffffffffffffffffffffffffff163373ffffffffffffffffffffffffffffffffffffffff1614806117405750600073ffffffffffffffffffffffffffffffffffffffff16600960003373ffffffffffffffffffffffffffffffffffffffff1673ffffffffffffffffffffffffffffffffffffffff16815260200190815260200160002060000160029054906101000a900473ffffffffffffffffffffffffffffffffffffffff1673ffffffffffffffffffffffffffffffffffffffff1614155b61177f576040517f08c379a000000000000000000000000000000000000000000000000000000000815260040161177690612451565b60405180910390fd5b600060646002805490506005546117969190612734565b6117a09190612765565b905060045481106117d3577f41636365707465640000000000000000000000000000000000000000000000006007819055505b60005b6002805490508160ff161015611a0157600015156009600060028460ff16815481106118055761180461297a565b5b9060005260206000200160009054906101000a900473ffffffffffffffffffffffffffffffffffffffff1673ffffffffffffffffffffffffffffffffffffffff1673ffffffffffffffffffffffffffffffffffffffff16815260200190815260200160002060000160009054906101000a900460ff16151514156119ee5760086009600060028460ff16815481106118a05761189f61297a565b5b9060005260206000200160009054906101000a900473ffffffffffffffffffffffffffffffffffffffff1673ffffffffffffffffffffffffffffffffffffffff1673ffffffffffffffffffffffffffffffffffffffff168152602001908152602001600020908060018154018082558091505060019003906000526020600020016000909190919091506000820160009054906101000a900460ff168160000160006101000a81548160ff0219169083151502179055506000820160019054906101000a900460ff168160000160016101000a81548160ff0219169083151502179055506000820160029054906101000a900473ffffffffffffffffffffffffffffffffffffffff168160000160026101000a81548173ffffffffffffffffffffffffffffffffffffffff021916908373ffffffffffffffffffffffffffffffffffffffff16021790555050505b80806119f9906128c3565b9150506117d6565b506001600660006101000a81548160ff02191690831515021790555050565b60096020528060005260406000206000915090508060000160009054906101000a900460ff16908060000160019054906101000a900460ff16908060000160029054906101000a900473ffffffffffffffffffffffffffffffffffffffff16905083565b6000806000600160009054906101000a900473ffffffffffffffffffffffffffffffffffffffff1673ffffffffffffffffffffffffffffffffffffffff163373ffffffffffffffffffffffffffffffffffffffff1614611b19576040517f08c379a0000000000000000000000000000000000000000000000000000000008152600401611b1090612511565b60405180910390fd5b600060019050600060019050600060019050600073ffffffffffffffffffffffffffffffffffffffff16600160009054906101000a900473ffffffffffffffffffffffffffffffffffffffff1673ffffffffffffffffffffffffffffffffffffffff161415611b95576001806001955095509550505050611bd2565b6004548914611ba357600092505b600a600401548714611bb457600091505b87600a6005015414611bc557600090505b8282829550955095505050505b9450945094915050565b6060600080600a600101600a60050154600454828054611bfb90612860565b80601f0160208091040260200160405190810160405280929190818152602001828054611c2790612860565b8015611c745780601f10611c4957610100808354040283529160200191611c74565b820191906000526020600020905b815481529060010190602001808311611c5757829003601f168201915b50505050509250925092509250909192565b60045481565b60088181548110611c9c57600080fd5b906000526020600020016000915090508060000160009054906101000a900460ff16908060000160019054906101000a900460ff16908060000160029054906101000a900473ffffffffffffffffffffffffffffffffffffffff16905083565b60008054906101000a900473ffffffffffffffffffffffffffffffffffffffff1681565b6040518060c001604052806000815260200160608152602001606081526020016060815260200160008019168152602001600081525090565b6000611d6c611d6784612647565b612622565b905082815260208101848484011115611d8857611d876129dd565b5b611d9384828561281e565b509392505050565b600081359050611daa81612c58565b92915050565b600081359050611dbf81612c6f565b92915050565b600082601f830112611dda57611dd96129d8565b5b8135611dea848260208601611d59565b91505092915050565b600081359050611e0281612c86565b92915050565b600060208284031215611e1e57611e1d6129e7565b5b6000611e2c84828501611d9b565b91505092915050565b600060208284031215611e4b57611e4a6129e7565b5b600082013567ffffffffffffffff811115611e6957611e686129e2565b5b611e7584828501611dc5565b91505092915050565b60008060008060808587031215611e9857611e976129e7565b5b600085013567ffffffffffffffff811115611eb657611eb56129e2565b5b611ec287828801611dc5565b9450506020611ed387828801611df3565b9350506040611ee487828801611df3565b9250506060611ef587828801611db0565b91505092959194509250565b600060208284031215611f1757611f166129e7565b5b6000611f2584828501611df3565b91505092915050565b6000611f3a8383612288565b60608301905092915050565b611f4f816127bf565b82525050565b611f5e816127bf565b82525050565b6000611f6f82612688565b611f7981856126ab565b9350611f8483612678565b8060005b83811015611fb5578151611f9c8882611f2e565b9750611fa78361269e565b925050600181019050611f88565b5085935050505092915050565b611fcb816127d1565b82525050565b611fda816127d1565b82525050565b611fe9816127dd565b82525050565b611ff8816127dd565b82525050565b600061200982612693565b61201381856126bc565b935061202381856020860161282d565b61202c816129ec565b840191505092915050565b600061204282612693565b61204c81856126cd565b935061205c81856020860161282d565b612065816129ec565b840191505092915050565b600061207d601f836126cd565b9150612088826129fd565b602082019050919050565b60006120a06026836126cd565b91506120ab82612a26565b604082019050919050565b60006120c3601c836126cd565b91506120ce82612a75565b602082019050919050565b60006120e66015836126cd565b91506120f182612a9e565b602082019050919050565b6000612109601e836126cd565b915061211482612ac7565b602082019050919050565b600061212c6024836126cd565b915061213782612af0565b604082019050919050565b600061214f6028836126cd565b915061215a82612b3f565b604082019050919050565b60006121726014836126cd565b915061217d82612b8e565b602082019050919050565b60006121956020836126cd565b91506121a082612bb7565b602082019050919050565b60006121b86012836126cd565b91506121c382612be0565b602082019050919050565b60006121db6025836126cd565b91506121e682612c09565b604082019050919050565b600060c08301600083015161220960008601826122ca565b50602083015184820360208601526122218282611ffe565b9150506040830151848203604086015261223b8282611ffe565b915050606083015184820360608601526122558282611ffe565b915050608083015161226a6080860182611fe0565b5060a083015161227d60a08601826122ca565b508091505092915050565b60608201600082015161229e6000850182611fc2565b5060208201516122b16020850182611fc2565b5060408201516122c46040850182611f46565b50505050565b6122d381612807565b82525050565b6122e281612807565b82525050565b60006020820190506122fd6000830184611f55565b92915050565b60006020820190506123186000830184611fd1565b92915050565b60006060820190506123336000830186611fd1565b6123406020830185611fd1565b61234d6040830184611f55565b949350505050565b600060608201905061236a6000830186611fd1565b6123776020830185611fd1565b6123846040830184611fd1565b949350505050565b60006060820190506123a16000830186611fef565b81810360208301526123b381856121f1565b905081810360408301526123c78184611f64565b9050949350505050565b600060208201905081810360008301526123eb8184612037565b905092915050565b6000606082019050818103600083015261240d8186612037565b905061241c60208301856122d9565b61242960408301846122d9565b949350505050565b6000602082019050818103600083015261244a81612070565b9050919050565b6000602082019050818103600083015261246a81612093565b9050919050565b6000602082019050818103600083015261248a816120b6565b9050919050565b600060208201905081810360008301526124aa816120d9565b9050919050565b600060208201905081810360008301526124ca816120fc565b9050919050565b600060208201905081810360008301526124ea8161211f565b9050919050565b6000602082019050818103600083015261250a81612142565b9050919050565b6000602082019050818103600083015261252a81612165565b9050919050565b6000602082019050818103600083015261254a81612188565b9050919050565b6000602082019050818103600083015261256a816121ab565b9050919050565b6000602082019050818103600083015261258a816121ce565b9050919050565b60006020820190506125a660008301846122d9565b92915050565b600060c0820190506125c160008301896122d9565b81810360208301526125d38188612037565b905081810360408301526125e78187612037565b905081810360608301526125fb8186612037565b905061260a6080830185611fef565b61261760a08301846122d9565b979650505050505050565b600061262c61263d565b90506126388282612892565b919050565b6000604051905090565b600067ffffffffffffffff821115612662576126616129a9565b5b61266b826129ec565b9050602081019050919050565b6000819050602082019050919050565b600081519050919050565b600081519050919050565b6000602082019050919050565b600082825260208201905092915050565b600082825260208201905092915050565b600082825260208201905092915050565b60006126e982612807565b91506126f483612807565b9250827fffffffffffffffffffffffffffffffffffffffffffffffffffffffffffffffff03821115612729576127286128ed565b5b828201905092915050565b600061273f82612807565b915061274a83612807565b92508261275a5761275961291c565b5b828204905092915050565b600061277082612807565b915061277b83612807565b9250817fffffffffffffffffffffffffffffffffffffffffffffffffffffffffffffffff04831182151516156127b4576127b36128ed565b5b828202905092915050565b60006127ca826127e7565b9050919050565b60008115159050919050565b6000819050919050565b600073ffffffffffffffffffffffffffffffffffffffff82169050919050565b6000819050919050565b600060ff82169050919050565b82818337600083830152505050565b60005b8381101561284b578082015181840152602081019050612830565b8381111561285a576000848401525b50505050565b6000600282049050600182168061287857607f821691505b6020821081141561288c5761288b61294b565b5b50919050565b61289b826129ec565b810181811067ffffffffffffffff821117156128ba576128b96129a9565b5b80604052505050565b60006128ce82612811565b915060ff8214156128e2576128e16128ed565b5b600182019050919050565b7f4e487b7100000000000000000000000000000000000000000000000000000000600052601160045260246000fd5b7f4e487b7100000000000000000000000000000000000000000000000000000000600052601260045260246000fd5b7f4e487b7100000000000000000000000000000000000000000000000000000000600052602260045260246000fd5b7f4e487b7100000000000000000000000000000000000000000000000000000000600052603260045260246000fd5b7f4e487b7100000000000000000000000000000000000000000000000000000000600052604160045260246000fd5b600080fd5b600080fd5b600080fd5b600080fd5b6000601f19601f8301169050919050565b7f526563697069656e7420697320616c7265616479207265676973746572656400600082015250565b7f596f75206172656e277420617574686f72697a6520746f20636f6d70696c652060008201527f42756e646c650000000000000000000000000000000000000000000000000000602082015250565b7f596f7520616c72656164792073656e74206120726573706f6e73652e00000000600082015250565b7f496e69746961746f722063616e277420766f7465210000000000000000000000600082015250565b7f596f7520617265206e6f74207265676973746572656420746f20766f74650000600082015250565b7f50726f706f73616c20686173207265616368656420697473206578706972792060008201527f6461746500000000000000000000000000000000000000000000000000000000602082015250565b7f4f6e6c7920696e69746961746f722063616e207265676973746572206120726560008201527f63697069656e742e000000000000000000000000000000000000000000000000602082015250565b7f596f75206172656e277420496e69746961746f72000000000000000000000000600082015250565b7f5665726469637420686173206e6f74206265656e207265616368656420796574600082015250565b7f566f74696e672068617320657870697265640000000000000000000000000000600082015250565b7f436f6e73656e7375732068617320616c7265616479206265656e2063616c637560008201527f6c61746564000000000000000000000000000000000000000000000000000000602082015250565b612c61816127bf565b8114612c6c57600080fd5b50565b612c78816127dd565b8114612c8357600080fd5b50565b612c8f81612807565b8114612c9a57600080fd5b5056fea2646970667358221220bb8d467878f2d84bfb6215e3120b0e665288a2a15c9c76b3b191723607c9f5ab64736f6c63430008070033",
					"opcodes": "PUSH1 0x80 PUSH1 0x40 MSTORE CALLVALUE DUP1 ISZERO PUSH3 0x11 JUMPI PUSH1 0x0 DUP1 REVERT JUMPDEST POP PUSH1 0x40 MLOAD PUSH3 0x3367 CODESIZE SUB DUP1 PUSH3 0x3367 DUP4 CODECOPY DUP2 DUP2 ADD PUSH1 0x40 MSTORE DUP2 ADD SWAP1 PUSH3 0x37 SWAP2 SWAP1 PUSH3 0x333 JUMP JUMPDEST CALLER PUSH1 0x1 PUSH1 0x0 PUSH2 0x100 EXP DUP2 SLOAD DUP2 PUSH20 0xFFFFFFFFFFFFFFFFFFFFFFFFFFFFFFFFFFFFFFFF MUL NOT AND SWAP1 DUP4 PUSH20 0xFFFFFFFFFFFFFFFFFFFFFFFFFFFFFFFFFFFFFFFF AND MUL OR SWAP1 SSTORE POP DUP5 TIMESTAMP PUSH3 0x86 SWAP2 SWAP1 PUSH3 0x48B JUMP JUMPDEST PUSH1 0x3 DUP2 SWAP1 SSTORE POP DUP4 PUSH1 0x4 DUP2 SWAP1 SSTORE POP PUSH1 0x0 PUSH1 0x5 DUP2 SWAP1 SSTORE POP PUSH1 0x0 PUSH1 0x6 PUSH1 0x0 PUSH2 0x100 EXP DUP2 SLOAD DUP2 PUSH1 0xFF MUL NOT AND SWAP1 DUP4 ISZERO ISZERO MUL OR SWAP1 SSTORE POP PUSH32 0x52656A6563746564000000000000000000000000000000000000000000000000 PUSH1 0x7 DUP2 SWAP1 SSTORE POP ADDRESS PUSH1 0x0 DUP1 PUSH2 0x100 EXP DUP2 SLOAD DUP2 PUSH20 0xFFFFFFFFFFFFFFFFFFFFFFFFFFFFFFFFFFFFFFFF MUL NOT AND SWAP1 DUP4 PUSH20 0xFFFFFFFFFFFFFFFFFFFFFFFFFFFFFFFFFFFFFFFF AND MUL OR SWAP1 SSTORE POP PUSH1 0x40 MLOAD DUP1 PUSH1 0xC0 ADD PUSH1 0x40 MSTORE DUP1 PUSH1 0x0 DUP2 MSTORE PUSH1 0x20 ADD DUP8 DUP2 MSTORE PUSH1 0x20 ADD DUP3 DUP2 MSTORE PUSH1 0x20 ADD DUP4 DUP2 MSTORE PUSH1 0x20 ADD DUP5 DUP2 MSTORE PUSH1 0x20 ADD DUP7 DUP2 MSTORE POP PUSH1 0xA PUSH1 0x0 DUP3 ADD MLOAD DUP2 PUSH1 0x0 ADD SSTORE PUSH1 0x20 DUP3 ADD MLOAD DUP2 PUSH1 0x1 ADD SWAP1 DUP1 MLOAD SWAP1 PUSH1 0x20 ADD SWAP1 PUSH3 0x175 SWAP3 SWAP2 SWAP1 PUSH3 0x1D7 JUMP JUMPDEST POP PUSH1 0x40 DUP3 ADD MLOAD DUP2 PUSH1 0x2 ADD SWAP1 DUP1 MLOAD SWAP1 PUSH1 0x20 ADD SWAP1 PUSH3 0x194 SWAP3 SWAP2 SWAP1 PUSH3 0x1D7 JUMP JUMPDEST POP PUSH1 0x60 DUP3 ADD MLOAD DUP2 PUSH1 0x3 ADD SWAP1 DUP1 MLOAD SWAP1 PUSH1 0x20 ADD SWAP1 PUSH3 0x1B3 SWAP3 SWAP2 SWAP1 PUSH3 0x1D7 JUMP JUMPDEST POP PUSH1 0x80 DUP3 ADD MLOAD DUP2 PUSH1 0x4 ADD SSTORE PUSH1 0xA0 DUP3 ADD MLOAD DUP2 PUSH1 0x5 ADD SSTORE SWAP1 POP POP POP POP POP POP POP POP PUSH3 0x684 JUMP JUMPDEST DUP3 DUP1 SLOAD PUSH3 0x1E5 SWAP1 PUSH3 0x532 JUMP JUMPDEST SWAP1 PUSH1 0x0 MSTORE PUSH1 0x20 PUSH1 0x0 KECCAK256 SWAP1 PUSH1 0x1F ADD PUSH1 0x20 SWAP1 DIV DUP2 ADD SWAP3 DUP3 PUSH3 0x209 JUMPI PUSH1 0x0 DUP6 SSTORE PUSH3 0x255 JUMP JUMPDEST DUP3 PUSH1 0x1F LT PUSH3 0x224 JUMPI DUP1 MLOAD PUSH1 0xFF NOT AND DUP4 DUP1 ADD OR DUP6 SSTORE PUSH3 0x255 JUMP JUMPDEST DUP3 DUP1 ADD PUSH1 0x1 ADD DUP6 SSTORE DUP3 ISZERO PUSH3 0x255 JUMPI SWAP2 DUP3 ADD JUMPDEST DUP3 DUP2 GT ISZERO PUSH3 0x254 JUMPI DUP3 MLOAD DUP3 SSTORE SWAP2 PUSH1 0x20 ADD SWAP2 SWAP1 PUSH1 0x1 ADD SWAP1 PUSH3 0x237 JUMP JUMPDEST JUMPDEST POP SWAP1 POP PUSH3 0x264 SWAP2 SWAP1 PUSH3 0x268 JUMP JUMPDEST POP SWAP1 JUMP JUMPDEST JUMPDEST DUP1 DUP3 GT ISZERO PUSH3 0x283 JUMPI PUSH1 0x0 DUP2 PUSH1 0x0 SWAP1 SSTORE POP PUSH1 0x1 ADD PUSH3 0x269 JUMP JUMPDEST POP SWAP1 JUMP JUMPDEST PUSH1 0x0 PUSH3 0x29E PUSH3 0x298 DUP5 PUSH3 0x455 JUMP JUMPDEST PUSH3 0x42C JUMP JUMPDEST SWAP1 POP DUP3 DUP2 MSTORE PUSH1 0x20 DUP2 ADD DUP5 DUP5 DUP5 ADD GT ISZERO PUSH3 0x2BD JUMPI PUSH3 0x2BC PUSH3 0x630 JUMP JUMPDEST JUMPDEST PUSH3 0x2CA DUP5 DUP3 DUP6 PUSH3 0x4FC JUMP JUMPDEST POP SWAP4 SWAP3 POP POP POP JUMP JUMPDEST PUSH1 0x0 DUP2 MLOAD SWAP1 POP PUSH3 0x2E3 DUP2 PUSH3 0x650 JUMP JUMPDEST SWAP3 SWAP2 POP POP JUMP JUMPDEST PUSH1 0x0 DUP3 PUSH1 0x1F DUP4 ADD SLT PUSH3 0x301 JUMPI PUSH3 0x300 PUSH3 0x62B JUMP JUMPDEST JUMPDEST DUP2 MLOAD PUSH3 0x313 DUP5 DUP3 PUSH1 0x20 DUP7 ADD PUSH3 0x287 JUMP JUMPDEST SWAP2 POP POP SWAP3 SWAP2 POP POP JUMP JUMPDEST PUSH1 0x0 DUP2 MLOAD SWAP1 POP PUSH3 0x32D DUP2 PUSH3 0x66A JUMP JUMPDEST SWAP3 SWAP2 POP POP JUMP JUMPDEST PUSH1 0x0 DUP1 PUSH1 0x0 DUP1 PUSH1 0x0 DUP1 PUSH1 0xC0 DUP8 DUP10 SUB SLT ISZERO PUSH3 0x353 JUMPI PUSH3 0x352 PUSH3 0x63A JUMP JUMPDEST JUMPDEST PUSH1 0x0 DUP8 ADD MLOAD PUSH8 0xFFFFFFFFFFFFFFFF DUP2 GT ISZERO PUSH3 0x374 JUMPI PUSH3 0x373 PUSH3 0x635 JUMP JUMPDEST JUMPDEST PUSH3 0x382 DUP10 DUP3 DUP11 ADD PUSH3 0x2E9 JUMP JUMPDEST SWAP7 POP POP PUSH1 0x20 PUSH3 0x395 DUP10 DUP3 DUP11 ADD PUSH3 0x31C JUMP JUMPDEST SWAP6 POP POP PUSH1 0x40 PUSH3 0x3A8 DUP10 DUP3 DUP11 ADD PUSH3 0x31C JUMP JUMPDEST SWAP5 POP POP PUSH1 0x60 PUSH3 0x3BB DUP10 DUP3 DUP11 ADD PUSH3 0x2D2 JUMP JUMPDEST SWAP4 POP POP PUSH1 0x80 DUP8 ADD MLOAD PUSH8 0xFFFFFFFFFFFFFFFF DUP2 GT ISZERO PUSH3 0x3DF JUMPI PUSH3 0x3DE PUSH3 0x635 JUMP JUMPDEST JUMPDEST PUSH3 0x3ED DUP10 DUP3 DUP11 ADD PUSH3 0x2E9 JUMP JUMPDEST SWAP3 POP POP PUSH1 0xA0 DUP8 ADD MLOAD PUSH8 0xFFFFFFFFFFFFFFFF DUP2 GT ISZERO PUSH3 0x411 JUMPI PUSH3 0x410 PUSH3 0x635 JUMP JUMPDEST JUMPDEST PUSH3 0x41F DUP10 DUP3 DUP11 ADD PUSH3 0x2E9 JUMP JUMPDEST SWAP2 POP POP SWAP3 SWAP6 POP SWAP3 SWAP6 POP SWAP3 SWAP6 JUMP JUMPDEST PUSH1 0x0 PUSH3 0x438 PUSH3 0x44B JUMP JUMPDEST SWAP1 POP PUSH3 0x446 DUP3 DUP3 PUSH3 0x568 JUMP JUMPDEST SWAP2 SWAP1 POP JUMP JUMPDEST PUSH1 0x0 PUSH1 0x40 MLOAD SWAP1 POP SWAP1 JUMP JUMPDEST PUSH1 0x0 PUSH8 0xFFFFFFFFFFFFFFFF DUP3 GT ISZERO PUSH3 0x473 JUMPI PUSH3 0x472 PUSH3 0x5FC JUMP JUMPDEST JUMPDEST PUSH3 0x47E DUP3 PUSH3 0x63F JUMP JUMPDEST SWAP1 POP PUSH1 0x20 DUP2 ADD SWAP1 POP SWAP2 SWAP1 POP JUMP JUMPDEST PUSH1 0x0 PUSH3 0x498 DUP3 PUSH3 0x4F2 JUMP JUMPDEST SWAP2 POP PUSH3 0x4A5 DUP4 PUSH3 0x4F2 JUMP JUMPDEST SWAP3 POP DUP3 PUSH32 0xFFFFFFFFFFFFFFFFFFFFFFFFFFFFFFFFFFFFFFFFFFFFFFFFFFFFFFFFFFFFFFFF SUB DUP3 GT ISZERO PUSH3 0x4DD JUMPI PUSH3 0x4DC PUSH3 0x59E JUMP JUMPDEST JUMPDEST DUP3 DUP3 ADD SWAP1 POP SWAP3 SWAP2 POP POP JUMP JUMPDEST PUSH1 0x0 DUP2 SWAP1 POP SWAP2 SWAP1 POP JUMP JUMPDEST PUSH1 0x0 DUP2 SWAP1 POP SWAP2 SWAP1 POP JUMP JUMPDEST PUSH1 0x0 JUMPDEST DUP4 DUP2 LT ISZERO PUSH3 0x51C JUMPI DUP1 DUP3 ADD MLOAD DUP2 DUP5 ADD MSTORE PUSH1 0x20 DUP2 ADD SWAP1 POP PUSH3 0x4FF JUMP JUMPDEST DUP4 DUP2 GT ISZERO PUSH3 0x52C JUMPI PUSH1 0x0 DUP5 DUP5 ADD MSTORE JUMPDEST POP POP POP POP JUMP JUMPDEST PUSH1 0x0 PUSH1 0x2 DUP3 DIV SWAP1 POP PUSH1 0x1 DUP3 AND DUP1 PUSH3 0x54B JUMPI PUSH1 0x7F DUP3 AND SWAP2 POP JUMPDEST PUSH1 0x20 DUP3 LT DUP2 EQ ISZERO PUSH3 0x562 JUMPI PUSH3 0x561 PUSH3 0x5CD JUMP JUMPDEST JUMPDEST POP SWAP2 SWAP1 POP JUMP JUMPDEST PUSH3 0x573 DUP3 PUSH3 0x63F JUMP JUMPDEST DUP2 ADD DUP2 DUP2 LT PUSH8 0xFFFFFFFFFFFFFFFF DUP3 GT OR ISZERO PUSH3 0x595 JUMPI PUSH3 0x594 PUSH3 0x5FC JUMP JUMPDEST JUMPDEST DUP1 PUSH1 0x40 MSTORE POP POP POP JUMP JUMPDEST PUSH32 0x4E487B7100000000000000000000000000000000000000000000000000000000 PUSH1 0x0 MSTORE PUSH1 0x11 PUSH1 0x4 MSTORE PUSH1 0x24 PUSH1 0x0 REVERT JUMPDEST PUSH32 0x4E487B7100000000000000000000000000000000000000000000000000000000 PUSH1 0x0 MSTORE PUSH1 0x22 PUSH1 0x4 MSTORE PUSH1 0x24 PUSH1 0x0 REVERT JUMPDEST PUSH32 0x4E487B7100000000000000000000000000000000000000000000000000000000 PUSH1 0x0 MSTORE PUSH1 0x41 PUSH1 0x4 MSTORE PUSH1 0x24 PUSH1 0x0 REVERT JUMPDEST PUSH1 0x0 DUP1 REVERT JUMPDEST PUSH1 0x0 DUP1 REVERT JUMPDEST PUSH1 0x0 DUP1 REVERT JUMPDEST PUSH1 0x0 DUP1 REVERT JUMPDEST PUSH1 0x0 PUSH1 0x1F NOT PUSH1 0x1F DUP4 ADD AND SWAP1 POP SWAP2 SWAP1 POP JUMP JUMPDEST PUSH3 0x65B DUP2 PUSH3 0x4E8 JUMP JUMPDEST DUP2 EQ PUSH3 0x667 JUMPI PUSH1 0x0 DUP1 REVERT JUMPDEST POP JUMP JUMPDEST PUSH3 0x675 DUP2 PUSH3 0x4F2 JUMP JUMPDEST DUP2 EQ PUSH3 0x681 JUMPI PUSH1 0x0 DUP1 REVERT JUMPDEST POP JUMP JUMPDEST PUSH2 0x2CD3 DUP1 PUSH3 0x694 PUSH1 0x0 CODECOPY PUSH1 0x0 RETURN INVALID PUSH1 0x80 PUSH1 0x40 MSTORE CALLVALUE DUP1 ISZERO PUSH2 0x10 JUMPI PUSH1 0x0 DUP1 REVERT JUMPDEST POP PUSH1 0x4 CALLDATASIZE LT PUSH2 0x10B JUMPI PUSH1 0x0 CALLDATALOAD PUSH1 0xE0 SHR DUP1 PUSH4 0x760297E9 GT PUSH2 0xA2 JUMPI DUP1 PUSH4 0x9D6A3125 GT PUSH2 0x71 JUMPI DUP1 PUSH4 0x9D6A3125 EQ PUSH2 0x2A1 JUMPI DUP1 PUSH4 0xA5EA11DA EQ PUSH2 0x2D3 JUMPI DUP1 PUSH4 0xD77AA749 EQ PUSH2 0x2F3 JUMPI DUP1 PUSH4 0xDA58C7D9 EQ PUSH2 0x311 JUMPI DUP1 PUSH4 0xF6B4DFB4 EQ PUSH2 0x343 JUMPI PUSH2 0x10B JUMP JUMPDEST DUP1 PUSH4 0x760297E9 EQ PUSH2 0x227 JUMPI DUP1 PUSH4 0x82316745 EQ PUSH2 0x245 JUMPI DUP1 PUSH4 0x95B02DFA EQ PUSH2 0x265 JUMPI DUP1 PUSH4 0x9AA4BBDD EQ PUSH2 0x26F JUMPI PUSH2 0x10B JUMP JUMPDEST DUP1 PUSH4 0x5361A0EA GT PUSH2 0xDE JUMPI DUP1 PUSH4 0x5361A0EA EQ PUSH2 0x196 JUMPI DUP1 PUSH4 0x5C39FCC1 EQ PUSH2 0x1C8 JUMPI DUP1 PUSH4 0x7403C5E5 EQ PUSH2 0x1E6 JUMPI DUP1 PUSH4 0x753EC103 EQ PUSH2 0x204 JUMPI PUSH2 0x10B JUMP JUMPDEST DUP1 PUSH4 0xCB6AAF1 EQ PUSH2 0x110 JUMPI DUP1 PUSH4 0x15FE6F1B EQ PUSH2 0x140 JUMPI DUP1 PUSH4 0x19EB4A90 EQ PUSH2 0x15C JUMPI DUP1 PUSH4 0x323082D7 EQ PUSH2 0x17A JUMPI JUMPDEST PUSH1 0x0 DUP1 REVERT JUMPDEST PUSH2 0x12A PUSH1 0x4 DUP1 CALLDATASIZE SUB DUP2 ADD SWAP1 PUSH2 0x125 SWAP2 SWAP1 PUSH2 0x1F01 JUMP JUMPDEST PUSH2 0x361 JUMP JUMPDEST PUSH1 0x40 MLOAD PUSH2 0x137 SWAP2 SWAP1 PUSH2 0x22E8 JUMP JUMPDEST PUSH1 0x40 MLOAD DUP1 SWAP2 SUB SWAP1 RETURN JUMPDEST PUSH2 0x15A PUSH1 0x4 DUP1 CALLDATASIZE SUB DUP2 ADD SWAP1 PUSH2 0x155 SWAP2 SWAP1 PUSH2 0x1E08 JUMP JUMPDEST PUSH2 0x3A0 JUMP JUMPDEST STOP JUMPDEST PUSH2 0x164 PUSH2 0x742 JUMP JUMPDEST PUSH1 0x40 MLOAD PUSH2 0x171 SWAP2 SWAP1 PUSH2 0x23D1 JUMP JUMPDEST PUSH1 0x40 MLOAD DUP1 SWAP2 SUB SWAP1 RETURN JUMPDEST PUSH2 0x194 PUSH1 0x4 DUP1 CALLDATASIZE SUB DUP2 ADD SWAP1 PUSH2 0x18F SWAP2 SWAP1 PUSH2 0x1E35 JUMP JUMPDEST PUSH2 0x7D7 JUMP JUMPDEST STOP JUMPDEST PUSH2 0x1B0 PUSH1 0x4 DUP1 CALLDATASIZE SUB DUP2 ADD SWAP1 PUSH2 0x1AB SWAP2 SWAP1 PUSH2 0x1E08 JUMP JUMPDEST PUSH2 0xF7A JUMP JUMPDEST PUSH1 0x40 MLOAD PUSH2 0x1BF SWAP4 SWAP3 SWAP2 SWAP1 PUSH2 0x231E JUMP JUMPDEST PUSH1 0x40 MLOAD DUP1 SWAP2 SUB SWAP1 RETURN JUMPDEST PUSH2 0x1D0 PUSH2 0x108F JUMP JUMPDEST PUSH1 0x40 MLOAD PUSH2 0x1DD SWAP2 SWAP1 PUSH2 0x22E8 JUMP JUMPDEST PUSH1 0x40 MLOAD DUP1 SWAP2 SUB SWAP1 RETURN JUMPDEST PUSH2 0x1EE PUSH2 0x10B5 JUMP JUMPDEST PUSH1 0x40 MLOAD PUSH2 0x1FB SWAP2 SWAP1 PUSH2 0x2591 JUMP JUMPDEST PUSH1 0x40 MLOAD DUP1 SWAP2 SUB SWAP1 RETURN JUMPDEST PUSH2 0x20C PUSH2 0x10BB JUMP JUMPDEST PUSH1 0x40 MLOAD PUSH2 0x21E SWAP7 SWAP6 SWAP5 SWAP4 SWAP3 SWAP2 SWAP1 PUSH2 0x25AC JUMP JUMPDEST PUSH1 0x40 MLOAD DUP1 SWAP2 SUB SWAP1 RETURN JUMPDEST PUSH2 0x22F PUSH2 0x127D JUMP JUMPDEST PUSH1 0x40 MLOAD PUSH2 0x23C SWAP2 SWAP1 PUSH2 0x2303 JUMP JUMPDEST PUSH1 0x40 MLOAD DUP1 SWAP2 SUB SWAP1 RETURN JUMPDEST PUSH2 0x24D PUSH2 0x1294 JUMP JUMPDEST PUSH1 0x40 MLOAD PUSH2 0x25C SWAP4 SWAP3 SWAP2 SWAP1 PUSH2 0x238C JUMP JUMPDEST PUSH1 0x40 MLOAD DUP1 SWAP2 SUB SWAP1 RETURN JUMPDEST PUSH2 0x26D PUSH2 0x15BA JUMP JUMPDEST STOP JUMPDEST PUSH2 0x289 PUSH1 0x4 DUP1 CALLDATASIZE SUB DUP2 ADD SWAP1 PUSH2 0x284 SWAP2 SWAP1 PUSH2 0x1E08 JUMP JUMPDEST PUSH2 0x1A20 JUMP JUMPDEST PUSH1 0x40 MLOAD PUSH2 0x298 SWAP4 SWAP3 SWAP2 SWAP1 PUSH2 0x231E JUMP JUMPDEST PUSH1 0x40 MLOAD DUP1 SWAP2 SUB SWAP1 RETURN JUMPDEST PUSH2 0x2BB PUSH1 0x4 DUP1 CALLDATASIZE SUB DUP2 ADD SWAP1 PUSH2 0x2B6 SWAP2 SWAP1 PUSH2 0x1E7E JUMP JUMPDEST PUSH2 0x1A84 JUMP JUMPDEST PUSH1 0x40 MLOAD PUSH2 0x2CA SWAP4 SWAP3 SWAP2 SWAP1 PUSH2 0x2355 JUMP JUMPDEST PUSH1 0x40 MLOAD DUP1 SWAP2 SUB SWAP1 RETURN JUMPDEST PUSH2 0x2DB PUSH2 0x1BDC JUMP JUMPDEST PUSH1 0x40 MLOAD PUSH2 0x2EA SWAP4 SWAP3 SWAP2 SWAP1 PUSH2 0x23F3 JUMP JUMPDEST PUSH1 0x40 MLOAD DUP1 SWAP2 SUB SWAP1 RETURN JUMPDEST PUSH2 0x2FB PUSH2 0x1C86 JUMP JUMPDEST PUSH1 0x40 MLOAD PUSH2 0x308 SWAP2 SWAP1 PUSH2 0x2591 JUMP JUMPDEST PUSH1 0x40 MLOAD DUP1 SWAP2 SUB SWAP1 RETURN JUMPDEST PUSH2 0x32B PUSH1 0x4 DUP1 CALLDATASIZE SUB DUP2 ADD SWAP1 PUSH2 0x326 SWAP2 SWAP1 PUSH2 0x1F01 JUMP JUMPDEST PUSH2 0x1C8C JUMP JUMPDEST PUSH1 0x40 MLOAD PUSH2 0x33A SWAP4 SWAP3 SWAP2 SWAP1 PUSH2 0x231E JUMP JUMPDEST PUSH1 0x40 MLOAD DUP1 SWAP2 SUB SWAP1 RETURN JUMPDEST PUSH2 0x34B PUSH2 0x1CFC JUMP JUMPDEST PUSH1 0x40 MLOAD PUSH2 0x358 SWAP2 SWAP1 PUSH2 0x22E8 JUMP JUMPDEST PUSH1 0x40 MLOAD DUP1 SWAP2 SUB SWAP1 RETURN JUMPDEST PUSH1 0x2 DUP2 DUP2 SLOAD DUP2 LT PUSH2 0x371 JUMPI PUSH1 0x0 DUP1 REVERT JUMPDEST SWAP1 PUSH1 0x0 MSTORE PUSH1 0x20 PUSH1 0x0 KECCAK256 ADD PUSH1 0x0 SWAP2 POP SLOAD SWAP1 PUSH2 0x100 EXP SWAP1 DIV PUSH20 0xFFFFFFFFFFFFFFFFFFFFFFFFFFFFFFFFFFFFFFFF AND DUP2 JUMP JUMPDEST PUSH1 0x1 PUSH1 0x0 SWAP1 SLOAD SWAP1 PUSH2 0x100 EXP SWAP1 DIV PUSH20 0xFFFFFFFFFFFFFFFFFFFFFFFFFFFFFFFFFFFFFFFF AND PUSH20 0xFFFFFFFFFFFFFFFFFFFFFFFFFFFFFFFFFFFFFFFF AND CALLER PUSH20 0xFFFFFFFFFFFFFFFFFFFFFFFFFFFFFFFFFFFFFFFF AND EQ PUSH2 0x430 JUMPI PUSH1 0x40 MLOAD PUSH32 0x8C379A000000000000000000000000000000000000000000000000000000000 DUP2 MSTORE PUSH1 0x4 ADD PUSH2 0x427 SWAP1 PUSH2 0x24F1 JUMP JUMPDEST PUSH1 0x40 MLOAD DUP1 SWAP2 SUB SWAP1 REVERT JUMPDEST PUSH1 0x1 PUSH1 0x0 SWAP1 SLOAD SWAP1 PUSH2 0x100 EXP SWAP1 DIV PUSH20 0xFFFFFFFFFFFFFFFFFFFFFFFFFFFFFFFFFFFFFFFF AND PUSH20 0xFFFFFFFFFFFFFFFFFFFFFFFFFFFFFFFFFFFFFFFF AND DUP2 PUSH20 0xFFFFFFFFFFFFFFFFFFFFFFFFFFFFFFFFFFFFFFFF AND EQ ISZERO PUSH2 0x4C1 JUMPI PUSH1 0x40 MLOAD PUSH32 0x8C379A000000000000000000000000000000000000000000000000000000000 DUP2 MSTORE PUSH1 0x4 ADD PUSH2 0x4B8 SWAP1 PUSH2 0x2491 JUMP JUMPDEST PUSH1 0x40 MLOAD DUP1 SWAP2 SUB SWAP1 REVERT JUMPDEST PUSH1 0x0 PUSH20 0xFFFFFFFFFFFFFFFFFFFFFFFFFFFFFFFFFFFFFFFF AND PUSH1 0x9 PUSH1 0x0 DUP4 PUSH20 0xFFFFFFFFFFFFFFFFFFFFFFFFFFFFFFFFFFFFFFFF AND PUSH20 0xFFFFFFFFFFFFFFFFFFFFFFFFFFFFFFFFFFFFFFFF AND DUP2 MSTORE PUSH1 0x20 ADD SWAP1 DUP2 MSTORE PUSH1 0x20 ADD PUSH1 0x0 KECCAK256 PUSH1 0x0 ADD PUSH1 0x2 SWAP1 SLOAD SWAP1 PUSH2 0x100 EXP SWAP1 DIV PUSH20 0xFFFFFFFFFFFFFFFFFFFFFFFFFFFFFFFFFFFFFFFF AND PUSH20 0xFFFFFFFFFFFFFFFFFFFFFFFFFFFFFFFFFFFFFFFF AND EQ PUSH2 0x592 JUMPI PUSH1 0x40 MLOAD PUSH32 0x8C379A000000000000000000000000000000000000000000000000000000000 DUP2 MSTORE PUSH1 0x4 ADD PUSH2 0x589 SWAP1 PUSH2 0x2431 JUMP JUMPDEST PUSH1 0x40 MLOAD DUP1 SWAP2 SUB SWAP1 REVERT JUMPDEST PUSH1 0x3 SLOAD TIMESTAMP LT PUSH2 0x5D6 JUMPI PUSH1 0x40 MLOAD PUSH32 0x8C379A000000000000000000000000000000000000000000000000000000000 DUP2 MSTORE PUSH1 0x4 ADD PUSH2 0x5CD SWAP1 PUSH2 0x24D1 JUMP JUMPDEST PUSH1 0x40 MLOAD DUP1 SWAP2 SUB SWAP1 REVERT JUMPDEST PUSH1 0x0 PUSH1 0x40 MLOAD DUP1 PUSH1 0x60 ADD PUSH1 0x40 MSTORE DUP1 PUSH1 0x0 ISZERO ISZERO DUP2 MSTORE PUSH1 0x20 ADD PUSH1 0x0 ISZERO ISZERO DUP2 MSTORE PUSH1 0x20 ADD DUP4 PUSH20 0xFFFFFFFFFFFFFFFFFFFFFFFFFFFFFFFFFFFFFFFF AND DUP2 MSTORE POP SWAP1 POP DUP1 PUSH1 0x9 PUSH1 0x0 DUP5 PUSH20 0xFFFFFFFFFFFFFFFFFFFFFFFFFFFFFFFFFFFFFFFF AND PUSH20 0xFFFFFFFFFFFFFFFFFFFFFFFFFFFFFFFFFFFFFFFF AND DUP2 MSTORE PUSH1 0x20 ADD SWAP1 DUP2 MSTORE PUSH1 0x20 ADD PUSH1 0x0 KECCAK256 PUSH1 0x0 DUP3 ADD MLOAD DUP2 PUSH1 0x0 ADD PUSH1 0x0 PUSH2 0x100 EXP DUP2 SLOAD DUP2 PUSH1 0xFF MUL NOT AND SWAP1 DUP4 ISZERO ISZERO MUL OR SWAP1 SSTORE POP PUSH1 0x20 DUP3 ADD MLOAD DUP2 PUSH1 0x0 ADD PUSH1 0x1 PUSH2 0x100 EXP DUP2 SLOAD DUP2 PUSH1 0xFF MUL NOT AND SWAP1 DUP4 ISZERO ISZERO MUL OR SWAP1 SSTORE POP PUSH1 0x40 DUP3 ADD MLOAD DUP2 PUSH1 0x0 ADD PUSH1 0x2 PUSH2 0x100 EXP DUP2 SLOAD DUP2 PUSH20 0xFFFFFFFFFFFFFFFFFFFFFFFFFFFFFFFFFFFFFFFF MUL NOT AND SWAP1 DUP4 PUSH20 0xFFFFFFFFFFFFFFFFFFFFFFFFFFFFFFFFFFFFFFFF AND MUL OR SWAP1 SSTORE POP SWAP1 POP POP PUSH1 0x2 DUP3 SWAP1 DUP1 PUSH1 0x1 DUP2 SLOAD ADD DUP1 DUP3 SSTORE DUP1 SWAP2 POP POP PUSH1 0x1 SWAP1 SUB SWAP1 PUSH1 0x0 MSTORE PUSH1 0x20 PUSH1 0x0 KECCAK256 ADD PUSH1 0x0 SWAP1 SWAP2 SWAP1 SWAP2 SWAP1 SWAP2 PUSH2 0x100 EXP DUP2 SLOAD DUP2 PUSH20 0xFFFFFFFFFFFFFFFFFFFFFFFFFFFFFFFFFFFFFFFF MUL NOT AND SWAP1 DUP4 PUSH20 0xFFFFFFFFFFFFFFFFFFFFFFFFFFFFFFFFFFFFFFFF AND MUL OR SWAP1 SSTORE POP POP POP JUMP JUMPDEST PUSH1 0x60 PUSH1 0xA PUSH1 0x1 ADD DUP1 SLOAD PUSH2 0x754 SWAP1 PUSH2 0x2860 JUMP JUMPDEST DUP1 PUSH1 0x1F ADD PUSH1 0x20 DUP1 SWAP2 DIV MUL PUSH1 0x20 ADD PUSH1 0x40 MLOAD SWAP1 DUP2 ADD PUSH1 0x40 MSTORE DUP1 SWAP3 SWAP2 SWAP1 DUP2 DUP2 MSTORE PUSH1 0x20 ADD DUP3 DUP1 SLOAD PUSH2 0x780 SWAP1 PUSH2 0x2860 JUMP JUMPDEST DUP1 ISZERO PUSH2 0x7CD JUMPI DUP1 PUSH1 0x1F LT PUSH2 0x7A2 JUMPI PUSH2 0x100 DUP1 DUP4 SLOAD DIV MUL DUP4 MSTORE SWAP2 PUSH1 0x20 ADD SWAP2 PUSH2 0x7CD JUMP JUMPDEST DUP3 ADD SWAP2 SWAP1 PUSH1 0x0 MSTORE PUSH1 0x20 PUSH1 0x0 KECCAK256 SWAP1 JUMPDEST DUP2 SLOAD DUP2 MSTORE SWAP1 PUSH1 0x1 ADD SWAP1 PUSH1 0x20 ADD DUP1 DUP4 GT PUSH2 0x7B0 JUMPI DUP3 SWAP1 SUB PUSH1 0x1F AND DUP3 ADD SWAP2 JUMPDEST POP POP POP POP POP SWAP1 POP SWAP1 JUMP JUMPDEST PUSH1 0x3 SLOAD TIMESTAMP LT PUSH2 0x81B JUMPI PUSH1 0x40 MLOAD PUSH32 0x8C379A000000000000000000000000000000000000000000000000000000000 DUP2 MSTORE PUSH1 0x4 ADD PUSH2 0x812 SWAP1 PUSH2 0x2551 JUMP JUMPDEST PUSH1 0x40 MLOAD DUP1 SWAP2 SUB SWAP1 REVERT JUMPDEST PUSH1 0x0 PUSH20 0xFFFFFFFFFFFFFFFFFFFFFFFFFFFFFFFFFFFFFFFF AND PUSH1 0x9 PUSH1 0x0 CALLER PUSH20 0xFFFFFFFFFFFFFFFFFFFFFFFFFFFFFFFFFFFFFFFF AND PUSH20 0xFFFFFFFFFFFFFFFFFFFFFFFFFFFFFFFFFFFFFFFF AND DUP2 MSTORE PUSH1 0x20 ADD SWAP1 DUP2 MSTORE PUSH1 0x20 ADD PUSH1 0x0 KECCAK256 PUSH1 0x0 ADD PUSH1 0x2 SWAP1 SLOAD SWAP1 PUSH2 0x100 EXP SWAP1 DIV PUSH20 0xFFFFFFFFFFFFFFFFFFFFFFFFFFFFFFFFFFFFFFFF AND PUSH20 0xFFFFFFFFFFFFFFFFFFFFFFFFFFFFFFFFFFFFFFFF AND EQ ISZERO PUSH2 0x8ED JUMPI PUSH1 0x40 MLOAD PUSH32 0x8C379A000000000000000000000000000000000000000000000000000000000 DUP2 MSTORE PUSH1 0x4 ADD PUSH2 0x8E4 SWAP1 PUSH2 0x24B1 JUMP JUMPDEST PUSH1 0x40 MLOAD DUP1 SWAP2 SUB SWAP1 REVERT JUMPDEST PUSH1 0x9 PUSH1 0x0 CALLER PUSH20 0xFFFFFFFFFFFFFFFFFFFFFFFFFFFFFFFFFFFFFFFF AND PUSH20 0xFFFFFFFFFFFFFFFFFFFFFFFFFFFFFFFFFFFFFFFF AND DUP2 MSTORE PUSH1 0x20 ADD SWAP1 DUP2 MSTORE PUSH1 0x20 ADD PUSH1 0x0 KECCAK256 PUSH1 0x0 ADD PUSH1 0x0 SWAP1 SLOAD SWAP1 PUSH2 0x100 EXP SWAP1 DIV PUSH1 0xFF AND ISZERO PUSH2 0x97D JUMPI PUSH1 0x40 MLOAD PUSH32 0x8C379A000000000000000000000000000000000000000000000000000000000 DUP2 MSTORE PUSH1 0x4 ADD PUSH2 0x974 SWAP1 PUSH2 0x2471 JUMP JUMPDEST PUSH1 0x40 MLOAD DUP1 SWAP2 SUB SWAP1 REVERT JUMPDEST PUSH1 0x40 MLOAD DUP1 PUSH1 0x40 ADD PUSH1 0x40 MSTORE DUP1 PUSH1 0x9 DUP2 MSTORE PUSH1 0x20 ADD PUSH32 0x6920617070726F76650000000000000000000000000000000000000000000000 DUP2 MSTORE POP DUP1 MLOAD SWAP1 PUSH1 0x20 ADD KECCAK256 DUP2 DUP1 MLOAD SWAP1 PUSH1 0x20 ADD KECCAK256 EQ ISZERO PUSH2 0xBE3 JUMPI PUSH1 0x1 PUSH1 0x9 PUSH1 0x0 CALLER PUSH20 0xFFFFFFFFFFFFFFFFFFFFFFFFFFFFFFFFFFFFFFFF AND PUSH20 0xFFFFFFFFFFFFFFFFFFFFFFFFFFFFFFFFFFFFFFFF AND DUP2 MSTORE PUSH1 0x20 ADD SWAP1 DUP2 MSTORE PUSH1 0x20 ADD PUSH1 0x0 KECCAK256 PUSH1 0x0 ADD PUSH1 0x0 PUSH2 0x100 EXP DUP2 SLOAD DUP2 PUSH1 0xFF MUL NOT AND SWAP1 DUP4 ISZERO ISZERO MUL OR SWAP1 SSTORE POP PUSH1 0x1 PUSH1 0x9 PUSH1 0x0 CALLER PUSH20 0xFFFFFFFFFFFFFFFFFFFFFFFFFFFFFFFFFFFFFFFF AND PUSH20 0xFFFFFFFFFFFFFFFFFFFFFFFFFFFFFFFFFFFFFFFF AND DUP2 MSTORE PUSH1 0x20 ADD SWAP1 DUP2 MSTORE PUSH1 0x20 ADD PUSH1 0x0 KECCAK256 PUSH1 0x0 ADD PUSH1 0x1 PUSH2 0x100 EXP DUP2 SLOAD DUP2 PUSH1 0xFF MUL NOT AND SWAP1 DUP4 ISZERO ISZERO MUL OR SWAP1 SSTORE POP PUSH1 0x1 PUSH1 0x5 PUSH1 0x0 DUP3 DUP3 SLOAD PUSH2 0xA91 SWAP2 SWAP1 PUSH2 0x26DE JUMP JUMPDEST SWAP3 POP POP DUP2 SWAP1 SSTORE POP PUSH1 0x1 PUSH1 0xA PUSH1 0x0 ADD PUSH1 0x0 DUP3 DUP3 SLOAD PUSH2 0xAAE SWAP2 SWAP1 PUSH2 0x26DE JUMP JUMPDEST SWAP3 POP POP DUP2 SWAP1 SSTORE POP PUSH1 0x8 PUSH1 0x9 PUSH1 0x0 CALLER PUSH20 0xFFFFFFFFFFFFFFFFFFFFFFFFFFFFFFFFFFFFFFFF AND PUSH20 0xFFFFFFFFFFFFFFFFFFFFFFFFFFFFFFFFFFFFFFFF AND DUP2 MSTORE PUSH1 0x20 ADD SWAP1 DUP2 MSTORE PUSH1 0x20 ADD PUSH1 0x0 KECCAK256 SWAP1 DUP1 PUSH1 0x1 DUP2 SLOAD ADD DUP1 DUP3 SSTORE DUP1 SWAP2 POP POP PUSH1 0x1 SWAP1 SUB SWAP1 PUSH1 0x0 MSTORE PUSH1 0x20 PUSH1 0x0 KECCAK256 ADD PUSH1 0x0 SWAP1 SWAP2 SWAP1 SWAP2 SWAP1 SWAP2 POP PUSH1 0x0 DUP3 ADD PUSH1 0x0 SWAP1 SLOAD SWAP1 PUSH2 0x100 EXP SWAP1 DIV PUSH1 0xFF AND DUP2 PUSH1 0x0 ADD PUSH1 0x0 PUSH2 0x100 EXP DUP2 SLOAD DUP2 PUSH1 0xFF MUL NOT AND SWAP1 DUP4 ISZERO ISZERO MUL OR SWAP1 SSTORE POP PUSH1 0x0 DUP3 ADD PUSH1 0x1 SWAP1 SLOAD SWAP1 PUSH2 0x100 EXP SWAP1 DIV PUSH1 0xFF AND DUP2 PUSH1 0x0 ADD PUSH1 0x1 PUSH2 0x100 EXP DUP2 SLOAD DUP2 PUSH1 0xFF MUL NOT AND SWAP1 DUP4 ISZERO ISZERO MUL OR SWAP1 SSTORE POP PUSH1 0x0 DUP3 ADD PUSH1 0x2 SWAP1 SLOAD SWAP1 PUSH2 0x100 EXP SWAP1 DIV PUSH20 0xFFFFFFFFFFFFFFFFFFFFFFFFFFFFFFFFFFFFFFFF AND DUP2 PUSH1 0x0 ADD PUSH1 0x2 PUSH2 0x100 EXP DUP2 SLOAD DUP2 PUSH20 0xFFFFFFFFFFFFFFFFFFFFFFFFFFFFFFFFFFFFFFFF MUL NOT AND SWAP1 DUP4 PUSH20 0xFFFFFFFFFFFFFFFFFFFFFFFFFFFFFFFFFFFFFFFF AND MUL OR SWAP1 SSTORE POP POP POP PUSH2 0xF77 JUMP JUMPDEST PUSH1 0x40 MLOAD DUP1 PUSH1 0x40 ADD PUSH1 0x40 MSTORE DUP1 PUSH1 0xC DUP2 MSTORE PUSH1 0x20 ADD PUSH32 0x6920646973617070726F76650000000000000000000000000000000000000000 DUP2 MSTORE POP DUP1 MLOAD SWAP1 PUSH1 0x20 ADD KECCAK256 DUP2 DUP1 MLOAD SWAP1 PUSH1 0x20 ADD KECCAK256 EQ ISZERO PUSH2 0xDD4 JUMPI PUSH1 0x1 PUSH1 0x9 PUSH1 0x0 CALLER PUSH20 0xFFFFFFFFFFFFFFFFFFFFFFFFFFFFFFFFFFFFFFFF AND PUSH20 0xFFFFFFFFFFFFFFFFFFFFFFFFFFFFFFFFFFFFFFFF AND DUP2 MSTORE PUSH1 0x20 ADD SWAP1 DUP2 MSTORE PUSH1 0x20 ADD PUSH1 0x0 KECCAK256 PUSH1 0x0 ADD PUSH1 0x0 PUSH2 0x100 EXP DUP2 SLOAD DUP2 PUSH1 0xFF MUL NOT AND SWAP1 DUP4 ISZERO ISZERO MUL OR SWAP1 SSTORE POP PUSH1 0x1 PUSH1 0xA PUSH1 0x0 ADD PUSH1 0x0 DUP3 DUP3 SLOAD PUSH2 0xC9F SWAP2 SWAP1 PUSH2 0x26DE JUMP JUMPDEST SWAP3 POP POP DUP2 SWAP1 SSTORE POP PUSH1 0x8 PUSH1 0x9 PUSH1 0x0 CALLER PUSH20 0xFFFFFFFFFFFFFFFFFFFFFFFFFFFFFFFFFFFFFFFF AND PUSH20 0xFFFFFFFFFFFFFFFFFFFFFFFFFFFFFFFFFFFFFFFF AND DUP2 MSTORE PUSH1 0x20 ADD SWAP1 DUP2 MSTORE PUSH1 0x20 ADD PUSH1 0x0 KECCAK256 SWAP1 DUP1 PUSH1 0x1 DUP2 SLOAD ADD DUP1 DUP3 SSTORE DUP1 SWAP2 POP POP PUSH1 0x1 SWAP1 SUB SWAP1 PUSH1 0x0 MSTORE PUSH1 0x20 PUSH1 0x0 KECCAK256 ADD PUSH1 0x0 SWAP1 SWAP2 SWAP1 SWAP2 SWAP1 SWAP2 POP PUSH1 0x0 DUP3 ADD PUSH1 0x0 SWAP1 SLOAD SWAP1 PUSH2 0x100 EXP SWAP1 DIV PUSH1 0xFF AND DUP2 PUSH1 0x0 ADD PUSH1 0x0 PUSH2 0x100 EXP DUP2 SLOAD DUP2 PUSH1 0xFF MUL NOT AND SWAP1 DUP4 ISZERO ISZERO MUL OR SWAP1 SSTORE POP PUSH1 0x0 DUP3 ADD PUSH1 0x1 SWAP1 SLOAD SWAP1 PUSH2 0x100 EXP SWAP1 DIV PUSH1 0xFF AND DUP2 PUSH1 0x0 ADD PUSH1 0x1 PUSH2 0x100 EXP DUP2 SLOAD DUP2 PUSH1 0xFF MUL NOT AND SWAP1 DUP4 ISZERO ISZERO MUL OR SWAP1 SSTORE POP PUSH1 0x0 DUP3 ADD PUSH1 0x2 SWAP1 SLOAD SWAP1 PUSH2 0x100 EXP SWAP1 DIV PUSH20 0xFFFFFFFFFFFFFFFFFFFFFFFFFFFFFFFFFFFFFFFF AND DUP2 PUSH1 0x0 ADD PUSH1 0x2 PUSH2 0x100 EXP DUP2 SLOAD DUP2 PUSH20 0xFFFFFFFFFFFFFFFFFFFFFFFFFFFFFFFFFFFFFFFF MUL NOT AND SWAP1 DUP4 PUSH20 0xFFFFFFFFFFFFFFFFFFFFFFFFFFFFFFFFFFFFFFFF AND MUL OR SWAP1 SSTORE POP POP POP PUSH2 0xF76 JUMP JUMPDEST PUSH1 0x1 PUSH1 0x9 PUSH1 0x0 CALLER PUSH20 0xFFFFFFFFFFFFFFFFFFFFFFFFFFFFFFFFFFFFFFFF AND PUSH20 0xFFFFFFFFFFFFFFFFFFFFFFFFFFFFFFFFFFFFFFFF AND DUP2 MSTORE PUSH1 0x20 ADD SWAP1 DUP2 MSTORE PUSH1 0x20 ADD PUSH1 0x0 KECCAK256 PUSH1 0x0 ADD PUSH1 0x0 PUSH2 0x100 EXP DUP2 SLOAD DUP2 PUSH1 0xFF MUL NOT AND SWAP1 DUP4 ISZERO ISZERO MUL OR SWAP1 SSTORE POP PUSH1 0x1 PUSH1 0xA PUSH1 0x0 ADD PUSH1 0x0 DUP3 DUP3 SLOAD PUSH2 0xE45 SWAP2 SWAP1 PUSH2 0x26DE JUMP JUMPDEST SWAP3 POP POP DUP2 SWAP1 SSTORE POP PUSH1 0x8 PUSH1 0x9 PUSH1 0x0 CALLER PUSH20 0xFFFFFFFFFFFFFFFFFFFFFFFFFFFFFFFFFFFFFFFF AND PUSH20 0xFFFFFFFFFFFFFFFFFFFFFFFFFFFFFFFFFFFFFFFF AND DUP2 MSTORE PUSH1 0x20 ADD SWAP1 DUP2 MSTORE PUSH1 0x20 ADD PUSH1 0x0 KECCAK256 SWAP1 DUP1 PUSH1 0x1 DUP2 SLOAD ADD DUP1 DUP3 SSTORE DUP1 SWAP2 POP POP PUSH1 0x1 SWAP1 SUB SWAP1 PUSH1 0x0 MSTORE PUSH1 0x20 PUSH1 0x0 KECCAK256 ADD PUSH1 0x0 SWAP1 SWAP2 SWAP1 SWAP2 SWAP1 SWAP2 POP PUSH1 0x0 DUP3 ADD PUSH1 0x0 SWAP1 SLOAD SWAP1 PUSH2 0x100 EXP SWAP1 DIV PUSH1 0xFF AND DUP2 PUSH1 0x0 ADD PUSH1 0x0 PUSH2 0x100 EXP DUP2 SLOAD DUP2 PUSH1 0xFF MUL NOT AND SWAP1 DUP4 ISZERO ISZERO MUL OR SWAP1 SSTORE POP PUSH1 0x0 DUP3 ADD PUSH1 0x1 SWAP1 SLOAD SWAP1 PUSH2 0x100 EXP SWAP1 DIV PUSH1 0xFF AND DUP2 PUSH1 0x0 ADD PUSH1 0x1 PUSH2 0x100 EXP DUP2 SLOAD DUP2 PUSH1 0xFF MUL NOT AND SWAP1 DUP4 ISZERO ISZERO MUL OR SWAP1 SSTORE POP PUSH1 0x0 DUP3 ADD PUSH1 0x2 SWAP1 SLOAD SWAP1 PUSH2 0x100 EXP SWAP1 DIV PUSH20 0xFFFFFFFFFFFFFFFFFFFFFFFFFFFFFFFFFFFFFFFF AND DUP2 PUSH1 0x0 ADD PUSH1 0x2 PUSH2 0x100 EXP DUP2 SLOAD DUP2 PUSH20 0xFFFFFFFFFFFFFFFFFFFFFFFFFFFFFFFFFFFFFFFF MUL NOT AND SWAP1 DUP4 PUSH20 0xFFFFFFFFFFFFFFFFFFFFFFFFFFFFFFFFFFFFFFFF AND MUL OR SWAP1 SSTORE POP POP POP JUMPDEST JUMPDEST POP JUMP JUMPDEST PUSH1 0x0 DUP1 PUSH1 0x0 PUSH1 0x9 PUSH1 0x0 DUP6 PUSH20 0xFFFFFFFFFFFFFFFFFFFFFFFFFFFFFFFFFFFFFFFF AND PUSH20 0xFFFFFFFFFFFFFFFFFFFFFFFFFFFFFFFFFFFFFFFF AND DUP2 MSTORE PUSH1 0x20 ADD SWAP1 DUP2 MSTORE PUSH1 0x20 ADD PUSH1 0x0 KECCAK256 PUSH1 0x0 ADD PUSH1 0x1 SWAP1 SLOAD SWAP1 PUSH2 0x100 EXP SWAP1 DIV PUSH1 0xFF AND PUSH1 0x9 PUSH1 0x0 DUP7 PUSH20 0xFFFFFFFFFFFFFFFFFFFFFFFFFFFFFFFFFFFFFFFF AND PUSH20 0xFFFFFFFFFFFFFFFFFFFFFFFFFFFFFFFFFFFFFFFF AND DUP2 MSTORE PUSH1 0x20 ADD SWAP1 DUP2 MSTORE PUSH1 0x20 ADD PUSH1 0x0 KECCAK256 PUSH1 0x0 ADD PUSH1 0x0 SWAP1 SLOAD SWAP1 PUSH2 0x100 EXP SWAP1 DIV PUSH1 0xFF AND PUSH1 0x9 PUSH1 0x0 DUP8 PUSH20 0xFFFFFFFFFFFFFFFFFFFFFFFFFFFFFFFFFFFFFFFF AND PUSH20 0xFFFFFFFFFFFFFFFFFFFFFFFFFFFFFFFFFFFFFFFF AND DUP2 MSTORE PUSH1 0x20 ADD SWAP1 DUP2 MSTORE PUSH1 0x20 ADD PUSH1 0x0 KECCAK256 PUSH1 0x0 ADD PUSH1 0x2 SWAP1 SLOAD SWAP1 PUSH2 0x100 EXP SWAP1 DIV PUSH20 0xFFFFFFFFFFFFFFFFFFFFFFFFFFFFFFFFFFFFFFFF AND SWAP3 POP SWAP3 POP SWAP3 POP SWAP2 SWAP4 SWAP1 SWAP3 POP JUMP JUMPDEST PUSH1 0x1 PUSH1 0x0 SWAP1 SLOAD SWAP1 PUSH2 0x100 EXP SWAP1 DIV PUSH20 0xFFFFFFFFFFFFFFFFFFFFFFFFFFFFFFFFFFFFFFFF AND DUP2 JUMP JUMPDEST PUSH1 0x5 SLOAD DUP2 JUMP JUMPDEST PUSH1 0xA DUP1 PUSH1 0x0 ADD SLOAD SWAP1 DUP1 PUSH1 0x1 ADD DUP1 SLOAD PUSH2 0x10D2 SWAP1 PUSH2 0x2860 JUMP JUMPDEST DUP1 PUSH1 0x1F ADD PUSH1 0x20 DUP1 SWAP2 DIV MUL PUSH1 0x20 ADD PUSH1 0x40 MLOAD SWAP1 DUP2 ADD PUSH1 0x40 MSTORE DUP1 SWAP3 SWAP2 SWAP1 DUP2 DUP2 MSTORE PUSH1 0x20 ADD DUP3 DUP1 SLOAD PUSH2 0x10FE SWAP1 PUSH2 0x2860 JUMP JUMPDEST DUP1 ISZERO PUSH2 0x114B JUMPI DUP1 PUSH1 0x1F LT PUSH2 0x1120 JUMPI PUSH2 0x100 DUP1 DUP4 SLOAD DIV MUL DUP4 MSTORE SWAP2 PUSH1 0x20 ADD SWAP2 PUSH2 0x114B JUMP JUMPDEST DUP3 ADD SWAP2 SWAP1 PUSH1 0x0 MSTORE PUSH1 0x20 PUSH1 0x0 KECCAK256 SWAP1 JUMPDEST DUP2 SLOAD DUP2 MSTORE SWAP1 PUSH1 0x1 ADD SWAP1 PUSH1 0x20 ADD DUP1 DUP4 GT PUSH2 0x112E JUMPI DUP3 SWAP1 SUB PUSH1 0x1F AND DUP3 ADD SWAP2 JUMPDEST POP POP POP POP POP SWAP1 DUP1 PUSH1 0x2 ADD DUP1 SLOAD PUSH2 0x1160 SWAP1 PUSH2 0x2860 JUMP JUMPDEST DUP1 PUSH1 0x1F ADD PUSH1 0x20 DUP1 SWAP2 DIV MUL PUSH1 0x20 ADD PUSH1 0x40 MLOAD SWAP1 DUP2 ADD PUSH1 0x40 MSTORE DUP1 SWAP3 SWAP2 SWAP1 DUP2 DUP2 MSTORE PUSH1 0x20 ADD DUP3 DUP1 SLOAD PUSH2 0x118C SWAP1 PUSH2 0x2860 JUMP JUMPDEST DUP1 ISZERO PUSH2 0x11D9 JUMPI DUP1 PUSH1 0x1F LT PUSH2 0x11AE JUMPI PUSH2 0x100 DUP1 DUP4 SLOAD DIV MUL DUP4 MSTORE SWAP2 PUSH1 0x20 ADD SWAP2 PUSH2 0x11D9 JUMP JUMPDEST DUP3 ADD SWAP2 SWAP1 PUSH1 0x0 MSTORE PUSH1 0x20 PUSH1 0x0 KECCAK256 SWAP1 JUMPDEST DUP2 SLOAD DUP2 MSTORE SWAP1 PUSH1 0x1 ADD SWAP1 PUSH1 0x20 ADD DUP1 DUP4 GT PUSH2 0x11BC JUMPI DUP3 SWAP1 SUB PUSH1 0x1F AND DUP3 ADD SWAP2 JUMPDEST POP POP POP POP POP SWAP1 DUP1 PUSH1 0x3 ADD DUP1 SLOAD PUSH2 0x11EE SWAP1 PUSH2 0x2860 JUMP JUMPDEST DUP1 PUSH1 0x1F ADD PUSH1 0x20 DUP1 SWAP2 DIV MUL PUSH1 0x20 ADD PUSH1 0x40 MLOAD SWAP1 DUP2 ADD PUSH1 0x40 MSTORE DUP1 SWAP3 SWAP2 SWAP1 DUP2 DUP2 MSTORE PUSH1 0x20 ADD DUP3 DUP1 SLOAD PUSH2 0x121A SWAP1 PUSH2 0x2860 JUMP JUMPDEST DUP1 ISZERO PUSH2 0x1267 JUMPI DUP1 PUSH1 0x1F LT PUSH2 0x123C JUMPI PUSH2 0x100 DUP1 DUP4 SLOAD DIV MUL DUP4 MSTORE SWAP2 PUSH1 0x20 ADD SWAP2 PUSH2 0x1267 JUMP JUMPDEST DUP3 ADD SWAP2 SWAP1 PUSH1 0x0 MSTORE PUSH1 0x20 PUSH1 0x0 KECCAK256 SWAP1 JUMPDEST DUP2 SLOAD DUP2 MSTORE SWAP1 PUSH1 0x1 ADD SWAP1 PUSH1 0x20 ADD DUP1 DUP4 GT PUSH2 0x124A JUMPI DUP3 SWAP1 SUB PUSH1 0x1F AND DUP3 ADD SWAP2 JUMPDEST POP POP POP POP POP SWAP1 DUP1 PUSH1 0x4 ADD SLOAD SWAP1 DUP1 PUSH1 0x5 ADD SLOAD SWAP1 POP DUP7 JUMP JUMPDEST PUSH1 0x0 PUSH1 0x6 PUSH1 0x0 SWAP1 SLOAD SWAP1 PUSH2 0x100 EXP SWAP1 DIV PUSH1 0xFF AND SWAP1 POP SWAP1 JUMP JUMPDEST PUSH1 0x0 PUSH2 0x129E PUSH2 0x1D20 JUMP JUMPDEST PUSH1 0x60 PUSH1 0x3 SLOAD TIMESTAMP LT ISZERO PUSH2 0x12E5 JUMPI PUSH1 0x40 MLOAD PUSH32 0x8C379A000000000000000000000000000000000000000000000000000000000 DUP2 MSTORE PUSH1 0x4 ADD PUSH2 0x12DC SWAP1 PUSH2 0x2531 JUMP JUMPDEST PUSH1 0x40 MLOAD DUP1 SWAP2 SUB SWAP1 REVERT JUMPDEST PUSH1 0x7 SLOAD PUSH1 0xA PUSH1 0x8 DUP2 PUSH1 0x40 MLOAD DUP1 PUSH1 0xC0 ADD PUSH1 0x40 MSTORE SWAP1 DUP2 PUSH1 0x0 DUP3 ADD SLOAD DUP2 MSTORE PUSH1 0x20 ADD PUSH1 0x1 DUP3 ADD DUP1 SLOAD PUSH2 0x1312 SWAP1 PUSH2 0x2860 JUMP JUMPDEST DUP1 PUSH1 0x1F ADD PUSH1 0x20 DUP1 SWAP2 DIV MUL PUSH1 0x20 ADD PUSH1 0x40 MLOAD SWAP1 DUP2 ADD PUSH1 0x40 MSTORE DUP1 SWAP3 SWAP2 SWAP1 DUP2 DUP2 MSTORE PUSH1 0x20 ADD DUP3 DUP1 SLOAD PUSH2 0x133E SWAP1 PUSH2 0x2860 JUMP JUMPDEST DUP1 ISZERO PUSH2 0x138B JUMPI DUP1 PUSH1 0x1F LT PUSH2 0x1360 JUMPI PUSH2 0x100 DUP1 DUP4 SLOAD DIV MUL DUP4 MSTORE SWAP2 PUSH1 0x20 ADD SWAP2 PUSH2 0x138B JUMP JUMPDEST DUP3 ADD SWAP2 SWAP1 PUSH1 0x0 MSTORE PUSH1 0x20 PUSH1 0x0 KECCAK256 SWAP1 JUMPDEST DUP2 SLOAD DUP2 MSTORE SWAP1 PUSH1 0x1 ADD SWAP1 PUSH1 0x20 ADD DUP1 DUP4 GT PUSH2 0x136E JUMPI DUP3 SWAP1 SUB PUSH1 0x1F AND DUP3 ADD SWAP2 JUMPDEST POP POP POP POP POP DUP2 MSTORE PUSH1 0x20 ADD PUSH1 0x2 DUP3 ADD DUP1 SLOAD PUSH2 0x13A4 SWAP1 PUSH2 0x2860 JUMP JUMPDEST DUP1 PUSH1 0x1F ADD PUSH1 0x20 DUP1 SWAP2 DIV MUL PUSH1 0x20 ADD PUSH1 0x40 MLOAD SWAP1 DUP2 ADD PUSH1 0x40 MSTORE DUP1 SWAP3 SWAP2 SWAP1 DUP2 DUP2 MSTORE PUSH1 0x20 ADD DUP3 DUP1 SLOAD PUSH2 0x13D0 SWAP1 PUSH2 0x2860 JUMP JUMPDEST DUP1 ISZERO PUSH2 0x141D JUMPI DUP1 PUSH1 0x1F LT PUSH2 0x13F2 JUMPI PUSH2 0x100 DUP1 DUP4 SLOAD DIV MUL DUP4 MSTORE SWAP2 PUSH1 0x20 ADD SWAP2 PUSH2 0x141D JUMP JUMPDEST DUP3 ADD SWAP2 SWAP1 PUSH1 0x0 MSTORE PUSH1 0x20 PUSH1 0x0 KECCAK256 SWAP1 JUMPDEST DUP2 SLOAD DUP2 MSTORE SWAP1 PUSH1 0x1 ADD SWAP1 PUSH1 0x20 ADD DUP1 DUP4 GT PUSH2 0x1400 JUMPI DUP3 SWAP1 SUB PUSH1 0x1F AND DUP3 ADD SWAP2 JUMPDEST POP POP POP POP POP DUP2 MSTORE PUSH1 0x20 ADD PUSH1 0x3 DUP3 ADD DUP1 SLOAD PUSH2 0x1436 SWAP1 PUSH2 0x2860 JUMP JUMPDEST DUP1 PUSH1 0x1F ADD PUSH1 0x20 DUP1 SWAP2 DIV MUL PUSH1 0x20 ADD PUSH1 0x40 MLOAD SWAP1 DUP2 ADD PUSH1 0x40 MSTORE DUP1 SWAP3 SWAP2 SWAP1 DUP2 DUP2 MSTORE PUSH1 0x20 ADD DUP3 DUP1 SLOAD PUSH2 0x1462 SWAP1 PUSH2 0x2860 JUMP JUMPDEST DUP1 ISZERO PUSH2 0x14AF JUMPI DUP1 PUSH1 0x1F LT PUSH2 0x1484 JUMPI PUSH2 0x100 DUP1 DUP4 SLOAD DIV MUL DUP4 MSTORE SWAP2 PUSH1 0x20 ADD SWAP2 PUSH2 0x14AF JUMP JUMPDEST DUP3 ADD SWAP2 SWAP1 PUSH1 0x0 MSTORE PUSH1 0x20 PUSH1 0x0 KECCAK256 SWAP1 JUMPDEST DUP2 SLOAD DUP2 MSTORE SWAP1 PUSH1 0x1 ADD SWAP1 PUSH1 0x20 ADD DUP1 DUP4 GT PUSH2 0x1492 JUMPI DUP3 SWAP1 SUB PUSH1 0x1F AND DUP3 ADD SWAP2 JUMPDEST POP POP POP POP POP DUP2 MSTORE PUSH1 0x20 ADD PUSH1 0x4 DUP3 ADD SLOAD DUP2 MSTORE PUSH1 0x20 ADD PUSH1 0x5 DUP3 ADD SLOAD DUP2 MSTORE POP POP SWAP2 POP DUP1 DUP1 SLOAD DUP1 PUSH1 0x20 MUL PUSH1 0x20 ADD PUSH1 0x40 MLOAD SWAP1 DUP2 ADD PUSH1 0x40 MSTORE DUP1 SWAP3 SWAP2 SWAP1 DUP2 DUP2 MSTORE PUSH1 0x20 ADD PUSH1 0x0 SWAP1 JUMPDEST DUP3 DUP3 LT ISZERO PUSH2 0x15A9 JUMPI DUP4 DUP3 SWAP1 PUSH1 0x0 MSTORE PUSH1 0x20 PUSH1 0x0 KECCAK256 ADD PUSH1 0x40 MLOAD DUP1 PUSH1 0x60 ADD PUSH1 0x40 MSTORE SWAP1 DUP2 PUSH1 0x0 DUP3 ADD PUSH1 0x0 SWAP1 SLOAD SWAP1 PUSH2 0x100 EXP SWAP1 DIV PUSH1 0xFF AND ISZERO ISZERO ISZERO ISZERO DUP2 MSTORE PUSH1 0x20 ADD PUSH1 0x0 DUP3 ADD PUSH1 0x1 SWAP1 SLOAD SWAP1 PUSH2 0x100 EXP SWAP1 DIV PUSH1 0xFF AND ISZERO ISZERO ISZERO ISZERO DUP2 MSTORE PUSH1 0x20 ADD PUSH1 0x0 DUP3 ADD PUSH1 0x2 SWAP1 SLOAD SWAP1 PUSH2 0x100 EXP SWAP1 DIV PUSH20 0xFFFFFFFFFFFFFFFFFFFFFFFFFFFFFFFFFFFFFFFF AND PUSH20 0xFFFFFFFFFFFFFFFFFFFFFFFFFFFFFFFFFFFFFFFF AND PUSH20 0xFFFFFFFFFFFFFFFFFFFFFFFFFFFFFFFFFFFFFFFF AND DUP2 MSTORE POP POP DUP2 MSTORE PUSH1 0x20 ADD SWAP1 PUSH1 0x1 ADD SWAP1 PUSH2 0x14EF JUMP JUMPDEST POP POP POP POP SWAP1 POP SWAP3 POP SWAP3 POP SWAP3 POP SWAP1 SWAP2 SWAP3 JUMP JUMPDEST PUSH1 0x3 SLOAD TIMESTAMP LT ISZERO PUSH2 0x15FF JUMPI PUSH1 0x40 MLOAD PUSH32 0x8C379A000000000000000000000000000000000000000000000000000000000 DUP2 MSTORE PUSH1 0x4 ADD PUSH2 0x15F6 SWAP1 PUSH2 0x2531 JUMP JUMPDEST PUSH1 0x40 MLOAD DUP1 SWAP2 SUB SWAP1 REVERT JUMPDEST PUSH1 0x0 ISZERO ISZERO PUSH1 0x6 PUSH1 0x0 SWAP1 SLOAD SWAP1 PUSH2 0x100 EXP SWAP1 DIV PUSH1 0xFF AND ISZERO ISZERO EQ PUSH2 0x1655 JUMPI PUSH1 0x40 MLOAD PUSH32 0x8C379A000000000000000000000000000000000000000000000000000000000 DUP2 MSTORE PUSH1 0x4 ADD PUSH2 0x164C SWAP1 PUSH2 0x2571 JUMP JUMPDEST PUSH1 0x40 MLOAD DUP1 SWAP2 SUB SWAP1 REVERT JUMPDEST PUSH1 0x1 PUSH1 0x0 SWAP1 SLOAD SWAP1 PUSH2 0x100 EXP SWAP1 DIV PUSH20 0xFFFFFFFFFFFFFFFFFFFFFFFFFFFFFFFFFFFFFFFF AND PUSH20 0xFFFFFFFFFFFFFFFFFFFFFFFFFFFFFFFFFFFFFFFF AND CALLER PUSH20 0xFFFFFFFFFFFFFFFFFFFFFFFFFFFFFFFFFFFFFFFF AND EQ DUP1 PUSH2 0x1740 JUMPI POP PUSH1 0x0 PUSH20 0xFFFFFFFFFFFFFFFFFFFFFFFFFFFFFFFFFFFFFFFF AND PUSH1 0x9 PUSH1 0x0 CALLER PUSH20 0xFFFFFFFFFFFFFFFFFFFFFFFFFFFFFFFFFFFFFFFF AND PUSH20 0xFFFFFFFFFFFFFFFFFFFFFFFFFFFFFFFFFFFFFFFF AND DUP2 MSTORE PUSH1 0x20 ADD SWAP1 DUP2 MSTORE PUSH1 0x20 ADD PUSH1 0x0 KECCAK256 PUSH1 0x0 ADD PUSH1 0x2 SWAP1 SLOAD SWAP1 PUSH2 0x100 EXP SWAP1 DIV PUSH20 0xFFFFFFFFFFFFFFFFFFFFFFFFFFFFFFFFFFFFFFFF AND PUSH20 0xFFFFFFFFFFFFFFFFFFFFFFFFFFFFFFFFFFFFFFFF AND EQ ISZERO JUMPDEST PUSH2 0x177F JUMPI PUSH1 0x40 MLOAD PUSH32 0x8C379A000000000000000000000000000000000000000000000000000000000 DUP2 MSTORE PUSH1 0x4 ADD PUSH2 0x1776 SWAP1 PUSH2 0x2451 JUMP JUMPDEST PUSH1 0x40 MLOAD DUP1 SWAP2 SUB SWAP1 REVERT JUMPDEST PUSH1 0x0 PUSH1 0x64 PUSH1 0x2 DUP1 SLOAD SWAP1 POP PUSH1 0x5 SLOAD PUSH2 0x1796 SWAP2 SWAP1 PUSH2 0x2734 JUMP JUMPDEST PUSH2 0x17A0 SWAP2 SWAP1 PUSH2 0x2765 JUMP JUMPDEST SWAP1 POP PUSH1 0x4 SLOAD DUP2 LT PUSH2 0x17D3 JUMPI PUSH32 0x4163636570746564000000000000000000000000000000000000000000000000 PUSH1 0x7 DUP2 SWAP1 SSTORE POP JUMPDEST PUSH1 0x0 JUMPDEST PUSH1 0x2 DUP1 SLOAD SWAP1 POP DUP2 PUSH1 0xFF AND LT ISZERO PUSH2 0x1A01 JUMPI PUSH1 0x0 ISZERO ISZERO PUSH1 0x9 PUSH1 0x0 PUSH1 0x2 DUP5 PUSH1 0xFF AND DUP2 SLOAD DUP2 LT PUSH2 0x1805 JUMPI PUSH2 0x1804 PUSH2 0x297A JUMP JUMPDEST JUMPDEST SWAP1 PUSH1 0x0 MSTORE PUSH1 0x20 PUSH1 0x0 KECCAK256 ADD PUSH1 0x0 SWAP1 SLOAD SWAP1 PUSH2 0x100 EXP SWAP1 DIV PUSH20 0xFFFFFFFFFFFFFFFFFFFFFFFFFFFFFFFFFFFFFFFF AND PUSH20 0xFFFFFFFFFFFFFFFFFFFFFFFFFFFFFFFFFFFFFFFF AND PUSH20 0xFFFFFFFFFFFFFFFFFFFFFFFFFFFFFFFFFFFFFFFF AND DUP2 MSTORE PUSH1 0x20 ADD SWAP1 DUP2 MSTORE PUSH1 0x20 ADD PUSH1 0x0 KECCAK256 PUSH1 0x0 ADD PUSH1 0x0 SWAP1 SLOAD SWAP1 PUSH2 0x100 EXP SWAP1 DIV PUSH1 0xFF AND ISZERO ISZERO EQ ISZERO PUSH2 0x19EE JUMPI PUSH1 0x8 PUSH1 0x9 PUSH1 0x0 PUSH1 0x2 DUP5 PUSH1 0xFF AND DUP2 SLOAD DUP2 LT PUSH2 0x18A0 JUMPI PUSH2 0x189F PUSH2 0x297A JUMP JUMPDEST JUMPDEST SWAP1 PUSH1 0x0 MSTORE PUSH1 0x20 PUSH1 0x0 KECCAK256 ADD PUSH1 0x0 SWAP1 SLOAD SWAP1 PUSH2 0x100 EXP SWAP1 DIV PUSH20 0xFFFFFFFFFFFFFFFFFFFFFFFFFFFFFFFFFFFFFFFF AND PUSH20 0xFFFFFFFFFFFFFFFFFFFFFFFFFFFFFFFFFFFFFFFF AND PUSH20 0xFFFFFFFFFFFFFFFFFFFFFFFFFFFFFFFFFFFFFFFF AND DUP2 MSTORE PUSH1 0x20 ADD SWAP1 DUP2 MSTORE PUSH1 0x20 ADD PUSH1 0x0 KECCAK256 SWAP1 DUP1 PUSH1 0x1 DUP2 SLOAD ADD DUP1 DUP3 SSTORE DUP1 SWAP2 POP POP PUSH1 0x1 SWAP1 SUB SWAP1 PUSH1 0x0 MSTORE PUSH1 0x20 PUSH1 0x0 KECCAK256 ADD PUSH1 0x0 SWAP1 SWAP2 SWAP1 SWAP2 SWAP1 SWAP2 POP PUSH1 0x0 DUP3 ADD PUSH1 0x0 SWAP1 SLOAD SWAP1 PUSH2 0x100 EXP SWAP1 DIV PUSH1 0xFF AND DUP2 PUSH1 0x0 ADD PUSH1 0x0 PUSH2 0x100 EXP DUP2 SLOAD DUP2 PUSH1 0xFF MUL NOT AND SWAP1 DUP4 ISZERO ISZERO MUL OR SWAP1 SSTORE POP PUSH1 0x0 DUP3 ADD PUSH1 0x1 SWAP1 SLOAD SWAP1 PUSH2 0x100 EXP SWAP1 DIV PUSH1 0xFF AND DUP2 PUSH1 0x0 ADD PUSH1 0x1 PUSH2 0x100 EXP DUP2 SLOAD DUP2 PUSH1 0xFF MUL NOT AND SWAP1 DUP4 ISZERO ISZERO MUL OR SWAP1 SSTORE POP PUSH1 0x0 DUP3 ADD PUSH1 0x2 SWAP1 SLOAD SWAP1 PUSH2 0x100 EXP SWAP1 DIV PUSH20 0xFFFFFFFFFFFFFFFFFFFFFFFFFFFFFFFFFFFFFFFF AND DUP2 PUSH1 0x0 ADD PUSH1 0x2 PUSH2 0x100 EXP DUP2 SLOAD DUP2 PUSH20 0xFFFFFFFFFFFFFFFFFFFFFFFFFFFFFFFFFFFFFFFF MUL NOT AND SWAP1 DUP4 PUSH20 0xFFFFFFFFFFFFFFFFFFFFFFFFFFFFFFFFFFFFFFFF AND MUL OR SWAP1 SSTORE POP POP POP JUMPDEST DUP1 DUP1 PUSH2 0x19F9 SWAP1 PUSH2 0x28C3 JUMP JUMPDEST SWAP2 POP POP PUSH2 0x17D6 JUMP JUMPDEST POP PUSH1 0x1 PUSH1 0x6 PUSH1 0x0 PUSH2 0x100 EXP DUP2 SLOAD DUP2 PUSH1 0xFF MUL NOT AND SWAP1 DUP4 ISZERO ISZERO MUL OR SWAP1 SSTORE POP POP JUMP JUMPDEST PUSH1 0x9 PUSH1 0x20 MSTORE DUP1 PUSH1 0x0 MSTORE PUSH1 0x40 PUSH1 0x0 KECCAK256 PUSH1 0x0 SWAP2 POP SWAP1 POP DUP1 PUSH1 0x0 ADD PUSH1 0x0 SWAP1 SLOAD SWAP1 PUSH2 0x100 EXP SWAP1 DIV PUSH1 0xFF AND SWAP1 DUP1 PUSH1 0x0 ADD PUSH1 0x1 SWAP1 SLOAD SWAP1 PUSH2 0x100 EXP SWAP1 DIV PUSH1 0xFF AND SWAP1 DUP1 PUSH1 0x0 ADD PUSH1 0x2 SWAP1 SLOAD SWAP1 PUSH2 0x100 EXP SWAP1 DIV PUSH20 0xFFFFFFFFFFFFFFFFFFFFFFFFFFFFFFFFFFFFFFFF AND SWAP1 POP DUP4 JUMP JUMPDEST PUSH1 0x0 DUP1 PUSH1 0x0 PUSH1 0x1 PUSH1 0x0 SWAP1 SLOAD SWAP1 PUSH2 0x100 EXP SWAP1 DIV PUSH20 0xFFFFFFFFFFFFFFFFFFFFFFFFFFFFFFFFFFFFFFFF AND PUSH20 0xFFFFFFFFFFFFFFFFFFFFFFFFFFFFFFFFFFFFFFFF AND CALLER PUSH20 0xFFFFFFFFFFFFFFFFFFFFFFFFFFFFFFFFFFFFFFFF AND EQ PUSH2 0x1B19 JUMPI PUSH1 0x40 MLOAD PUSH32 0x8C379A000000000000000000000000000000000000000000000000000000000 DUP2 MSTORE PUSH1 0x4 ADD PUSH2 0x1B10 SWAP1 PUSH2 0x2511 JUMP JUMPDEST PUSH1 0x40 MLOAD DUP1 SWAP2 SUB SWAP1 REVERT JUMPDEST PUSH1 0x0 PUSH1 0x1 SWAP1 POP PUSH1 0x0 PUSH1 0x1 SWAP1 POP PUSH1 0x0 PUSH1 0x1 SWAP1 POP PUSH1 0x0 PUSH20 0xFFFFFFFFFFFFFFFFFFFFFFFFFFFFFFFFFFFFFFFF AND PUSH1 0x1 PUSH1 0x0 SWAP1 SLOAD SWAP1 PUSH2 0x100 EXP SWAP1 DIV PUSH20 0xFFFFFFFFFFFFFFFFFFFFFFFFFFFFFFFFFFFFFFFF AND PUSH20 0xFFFFFFFFFFFFFFFFFFFFFFFFFFFFFFFFFFFFFFFF AND EQ ISZERO PUSH2 0x1B95 JUMPI PUSH1 0x1 DUP1 PUSH1 0x1 SWAP6 POP SWAP6 POP SWAP6 POP POP POP POP PUSH2 0x1BD2 JUMP JUMPDEST PUSH1 0x4 SLOAD DUP10 EQ PUSH2 0x1BA3 JUMPI PUSH1 0x0 SWAP3 POP JUMPDEST PUSH1 0xA PUSH1 0x4 ADD SLOAD DUP8 EQ PUSH2 0x1BB4 JUMPI PUSH1 0x0 SWAP2 POP JUMPDEST DUP8 PUSH1 0xA PUSH1 0x5 ADD SLOAD EQ PUSH2 0x1BC5 JUMPI PUSH1 0x0 SWAP1 POP JUMPDEST DUP3 DUP3 DUP3 SWAP6 POP SWAP6 POP SWAP6 POP POP POP POP JUMPDEST SWAP5 POP SWAP5 POP SWAP5 SWAP2 POP POP JUMP JUMPDEST PUSH1 0x60 PUSH1 0x0 DUP1 PUSH1 0xA PUSH1 0x1 ADD PUSH1 0xA PUSH1 0x5 ADD SLOAD PUSH1 0x4 SLOAD DUP3 DUP1 SLOAD PUSH2 0x1BFB SWAP1 PUSH2 0x2860 JUMP JUMPDEST DUP1 PUSH1 0x1F ADD PUSH1 0x20 DUP1 SWAP2 DIV MUL PUSH1 0x20 ADD PUSH1 0x40 MLOAD SWAP1 DUP2 ADD PUSH1 0x40 MSTORE DUP1 SWAP3 SWAP2 SWAP1 DUP2 DUP2 MSTORE PUSH1 0x20 ADD DUP3 DUP1 SLOAD PUSH2 0x1C27 SWAP1 PUSH2 0x2860 JUMP JUMPDEST DUP1 ISZERO PUSH2 0x1C74 JUMPI DUP1 PUSH1 0x1F LT PUSH2 0x1C49 JUMPI PUSH2 0x100 DUP1 DUP4 SLOAD DIV MUL DUP4 MSTORE SWAP2 PUSH1 0x20 ADD SWAP2 PUSH2 0x1C74 JUMP JUMPDEST DUP3 ADD SWAP2 SWAP1 PUSH1 0x0 MSTORE PUSH1 0x20 PUSH1 0x0 KECCAK256 SWAP1 JUMPDEST DUP2 SLOAD DUP2 MSTORE SWAP1 PUSH1 0x1 ADD SWAP1 PUSH1 0x20 ADD DUP1 DUP4 GT PUSH2 0x1C57 JUMPI DUP3 SWAP1 SUB PUSH1 0x1F AND DUP3 ADD SWAP2 JUMPDEST POP POP POP POP POP SWAP3 POP SWAP3 POP SWAP3 POP SWAP3 POP SWAP1 SWAP2 SWAP3 JUMP JUMPDEST PUSH1 0x4 SLOAD DUP2 JUMP JUMPDEST PUSH1 0x8 DUP2 DUP2 SLOAD DUP2 LT PUSH2 0x1C9C JUMPI PUSH1 0x0 DUP1 REVERT JUMPDEST SWAP1 PUSH1 0x0 MSTORE PUSH1 0x20 PUSH1 0x0 KECCAK256 ADD PUSH1 0x0 SWAP2 POP SWAP1 POP DUP1 PUSH1 0x0 ADD PUSH1 0x0 SWAP1 SLOAD SWAP1 PUSH2 0x100 EXP SWAP1 DIV PUSH1 0xFF AND SWAP1 DUP1 PUSH1 0x0 ADD PUSH1 0x1 SWAP1 SLOAD SWAP1 PUSH2 0x100 EXP SWAP1 DIV PUSH1 0xFF AND SWAP1 DUP1 PUSH1 0x0 ADD PUSH1 0x2 SWAP1 SLOAD SWAP1 PUSH2 0x100 EXP SWAP1 DIV PUSH20 0xFFFFFFFFFFFFFFFFFFFFFFFFFFFFFFFFFFFFFFFF AND SWAP1 POP DUP4 JUMP JUMPDEST PUSH1 0x0 DUP1 SLOAD SWAP1 PUSH2 0x100 EXP SWAP1 DIV PUSH20 0xFFFFFFFFFFFFFFFFFFFFFFFFFFFFFFFFFFFFFFFF AND DUP2 JUMP JUMPDEST PUSH1 0x40 MLOAD DUP1 PUSH1 0xC0 ADD PUSH1 0x40 MSTORE DUP1 PUSH1 0x0 DUP2 MSTORE PUSH1 0x20 ADD PUSH1 0x60 DUP2 MSTORE PUSH1 0x20 ADD PUSH1 0x60 DUP2 MSTORE PUSH1 0x20 ADD PUSH1 0x60 DUP2 MSTORE PUSH1 0x20 ADD PUSH1 0x0 DUP1 NOT AND DUP2 MSTORE PUSH1 0x20 ADD PUSH1 0x0 DUP2 MSTORE POP SWAP1 JUMP JUMPDEST PUSH1 0x0 PUSH2 0x1D6C PUSH2 0x1D67 DUP5 PUSH2 0x2647 JUMP JUMPDEST PUSH2 0x2622 JUMP JUMPDEST SWAP1 POP DUP3 DUP2 MSTORE PUSH1 0x20 DUP2 ADD DUP5 DUP5 DUP5 ADD GT ISZERO PUSH2 0x1D88 JUMPI PUSH2 0x1D87 PUSH2 0x29DD JUMP JUMPDEST JUMPDEST PUSH2 0x1D93 DUP5 DUP3 DUP6 PUSH2 0x281E JUMP JUMPDEST POP SWAP4 SWAP3 POP POP POP JUMP JUMPDEST PUSH1 0x0 DUP2 CALLDATALOAD SWAP1 POP PUSH2 0x1DAA DUP2 PUSH2 0x2C58 JUMP JUMPDEST SWAP3 SWAP2 POP POP JUMP JUMPDEST PUSH1 0x0 DUP2 CALLDATALOAD SWAP1 POP PUSH2 0x1DBF DUP2 PUSH2 0x2C6F JUMP JUMPDEST SWAP3 SWAP2 POP POP JUMP JUMPDEST PUSH1 0x0 DUP3 PUSH1 0x1F DUP4 ADD SLT PUSH2 0x1DDA JUMPI PUSH2 0x1DD9 PUSH2 0x29D8 JUMP JUMPDEST JUMPDEST DUP2 CALLDATALOAD PUSH2 0x1DEA DUP5 DUP3 PUSH1 0x20 DUP7 ADD PUSH2 0x1D59 JUMP JUMPDEST SWAP2 POP POP SWAP3 SWAP2 POP POP JUMP JUMPDEST PUSH1 0x0 DUP2 CALLDATALOAD SWAP1 POP PUSH2 0x1E02 DUP2 PUSH2 0x2C86 JUMP JUMPDEST SWAP3 SWAP2 POP POP JUMP JUMPDEST PUSH1 0x0 PUSH1 0x20 DUP3 DUP5 SUB SLT ISZERO PUSH2 0x1E1E JUMPI PUSH2 0x1E1D PUSH2 0x29E7 JUMP JUMPDEST JUMPDEST PUSH1 0x0 PUSH2 0x1E2C DUP5 DUP3 DUP6 ADD PUSH2 0x1D9B JUMP JUMPDEST SWAP2 POP POP SWAP3 SWAP2 POP POP JUMP JUMPDEST PUSH1 0x0 PUSH1 0x20 DUP3 DUP5 SUB SLT ISZERO PUSH2 0x1E4B JUMPI PUSH2 0x1E4A PUSH2 0x29E7 JUMP JUMPDEST JUMPDEST PUSH1 0x0 DUP3 ADD CALLDATALOAD PUSH8 0xFFFFFFFFFFFFFFFF DUP2 GT ISZERO PUSH2 0x1E69 JUMPI PUSH2 0x1E68 PUSH2 0x29E2 JUMP JUMPDEST JUMPDEST PUSH2 0x1E75 DUP5 DUP3 DUP6 ADD PUSH2 0x1DC5 JUMP JUMPDEST SWAP2 POP POP SWAP3 SWAP2 POP POP JUMP JUMPDEST PUSH1 0x0 DUP1 PUSH1 0x0 DUP1 PUSH1 0x80 DUP6 DUP8 SUB SLT ISZERO PUSH2 0x1E98 JUMPI PUSH2 0x1E97 PUSH2 0x29E7 JUMP JUMPDEST JUMPDEST PUSH1 0x0 DUP6 ADD CALLDATALOAD PUSH8 0xFFFFFFFFFFFFFFFF DUP2 GT ISZERO PUSH2 0x1EB6 JUMPI PUSH2 0x1EB5 PUSH2 0x29E2 JUMP JUMPDEST JUMPDEST PUSH2 0x1EC2 DUP8 DUP3 DUP9 ADD PUSH2 0x1DC5 JUMP JUMPDEST SWAP5 POP POP PUSH1 0x20 PUSH2 0x1ED3 DUP8 DUP3 DUP9 ADD PUSH2 0x1DF3 JUMP JUMPDEST SWAP4 POP POP PUSH1 0x40 PUSH2 0x1EE4 DUP8 DUP3 DUP9 ADD PUSH2 0x1DF3 JUMP JUMPDEST SWAP3 POP POP PUSH1 0x60 PUSH2 0x1EF5 DUP8 DUP3 DUP9 ADD PUSH2 0x1DB0 JUMP JUMPDEST SWAP2 POP POP SWAP3 SWAP6 SWAP2 SWAP5 POP SWAP3 POP JUMP JUMPDEST PUSH1 0x0 PUSH1 0x20 DUP3 DUP5 SUB SLT ISZERO PUSH2 0x1F17 JUMPI PUSH2 0x1F16 PUSH2 0x29E7 JUMP JUMPDEST JUMPDEST PUSH1 0x0 PUSH2 0x1F25 DUP5 DUP3 DUP6 ADD PUSH2 0x1DF3 JUMP JUMPDEST SWAP2 POP POP SWAP3 SWAP2 POP POP JUMP JUMPDEST PUSH1 0x0 PUSH2 0x1F3A DUP4 DUP4 PUSH2 0x2288 JUMP JUMPDEST PUSH1 0x60 DUP4 ADD SWAP1 POP SWAP3 SWAP2 POP POP JUMP JUMPDEST PUSH2 0x1F4F DUP2 PUSH2 0x27BF JUMP JUMPDEST DUP3 MSTORE POP POP JUMP JUMPDEST PUSH2 0x1F5E DUP2 PUSH2 0x27BF JUMP JUMPDEST DUP3 MSTORE POP POP JUMP JUMPDEST PUSH1 0x0 PUSH2 0x1F6F DUP3 PUSH2 0x2688 JUMP JUMPDEST PUSH2 0x1F79 DUP2 DUP6 PUSH2 0x26AB JUMP JUMPDEST SWAP4 POP PUSH2 0x1F84 DUP4 PUSH2 0x2678 JUMP JUMPDEST DUP1 PUSH1 0x0 JUMPDEST DUP4 DUP2 LT ISZERO PUSH2 0x1FB5 JUMPI DUP2 MLOAD PUSH2 0x1F9C DUP9 DUP3 PUSH2 0x1F2E JUMP JUMPDEST SWAP8 POP PUSH2 0x1FA7 DUP4 PUSH2 0x269E JUMP JUMPDEST SWAP3 POP POP PUSH1 0x1 DUP2 ADD SWAP1 POP PUSH2 0x1F88 JUMP JUMPDEST POP DUP6 SWAP4 POP POP POP POP SWAP3 SWAP2 POP POP JUMP JUMPDEST PUSH2 0x1FCB DUP2 PUSH2 0x27D1 JUMP JUMPDEST DUP3 MSTORE POP POP JUMP JUMPDEST PUSH2 0x1FDA DUP2 PUSH2 0x27D1 JUMP JUMPDEST DUP3 MSTORE POP POP JUMP JUMPDEST PUSH2 0x1FE9 DUP2 PUSH2 0x27DD JUMP JUMPDEST DUP3 MSTORE POP POP JUMP JUMPDEST PUSH2 0x1FF8 DUP2 PUSH2 0x27DD JUMP JUMPDEST DUP3 MSTORE POP POP JUMP JUMPDEST PUSH1 0x0 PUSH2 0x2009 DUP3 PUSH2 0x2693 JUMP JUMPDEST PUSH2 0x2013 DUP2 DUP6 PUSH2 0x26BC JUMP JUMPDEST SWAP4 POP PUSH2 0x2023 DUP2 DUP6 PUSH1 0x20 DUP7 ADD PUSH2 0x282D JUMP JUMPDEST PUSH2 0x202C DUP2 PUSH2 0x29EC JUMP JUMPDEST DUP5 ADD SWAP2 POP POP SWAP3 SWAP2 POP POP JUMP JUMPDEST PUSH1 0x0 PUSH2 0x2042 DUP3 PUSH2 0x2693 JUMP JUMPDEST PUSH2 0x204C DUP2 DUP6 PUSH2 0x26CD JUMP JUMPDEST SWAP4 POP PUSH2 0x205C DUP2 DUP6 PUSH1 0x20 DUP7 ADD PUSH2 0x282D JUMP JUMPDEST PUSH2 0x2065 DUP2 PUSH2 0x29EC JUMP JUMPDEST DUP5 ADD SWAP2 POP POP SWAP3 SWAP2 POP POP JUMP JUMPDEST PUSH1 0x0 PUSH2 0x207D PUSH1 0x1F DUP4 PUSH2 0x26CD JUMP JUMPDEST SWAP2 POP PUSH2 0x2088 DUP3 PUSH2 0x29FD JUMP JUMPDEST PUSH1 0x20 DUP3 ADD SWAP1 POP SWAP2 SWAP1 POP JUMP JUMPDEST PUSH1 0x0 PUSH2 0x20A0 PUSH1 0x26 DUP4 PUSH2 0x26CD JUMP JUMPDEST SWAP2 POP PUSH2 0x20AB DUP3 PUSH2 0x2A26 JUMP JUMPDEST PUSH1 0x40 DUP3 ADD SWAP1 POP SWAP2 SWAP1 POP JUMP JUMPDEST PUSH1 0x0 PUSH2 0x20C3 PUSH1 0x1C DUP4 PUSH2 0x26CD JUMP JUMPDEST SWAP2 POP PUSH2 0x20CE DUP3 PUSH2 0x2A75 JUMP JUMPDEST PUSH1 0x20 DUP3 ADD SWAP1 POP SWAP2 SWAP1 POP JUMP JUMPDEST PUSH1 0x0 PUSH2 0x20E6 PUSH1 0x15 DUP4 PUSH2 0x26CD JUMP JUMPDEST SWAP2 POP PUSH2 0x20F1 DUP3 PUSH2 0x2A9E JUMP JUMPDEST PUSH1 0x20 DUP3 ADD SWAP1 POP SWAP2 SWAP1 POP JUMP JUMPDEST PUSH1 0x0 PUSH2 0x2109 PUSH1 0x1E DUP4 PUSH2 0x26CD JUMP JUMPDEST SWAP2 POP PUSH2 0x2114 DUP3 PUSH2 0x2AC7 JUMP JUMPDEST PUSH1 0x20 DUP3 ADD SWAP1 POP SWAP2 SWAP1 POP JUMP JUMPDEST PUSH1 0x0 PUSH2 0x212C PUSH1 0x24 DUP4 PUSH2 0x26CD JUMP JUMPDEST SWAP2 POP PUSH2 0x2137 DUP3 PUSH2 0x2AF0 JUMP JUMPDEST PUSH1 0x40 DUP3 ADD SWAP1 POP SWAP2 SWAP1 POP JUMP JUMPDEST PUSH1 0x0 PUSH2 0x214F PUSH1 0x28 DUP4 PUSH2 0x26CD JUMP JUMPDEST SWAP2 POP PUSH2 0x215A DUP3 PUSH2 0x2B3F JUMP JUMPDEST PUSH1 0x40 DUP3 ADD SWAP1 POP SWAP2 SWAP1 POP JUMP JUMPDEST PUSH1 0x0 PUSH2 0x2172 PUSH1 0x14 DUP4 PUSH2 0x26CD JUMP JUMPDEST SWAP2 POP PUSH2 0x217D DUP3 PUSH2 0x2B8E JUMP JUMPDEST PUSH1 0x20 DUP3 ADD SWAP1 POP SWAP2 SWAP1 POP JUMP JUMPDEST PUSH1 0x0 PUSH2 0x2195 PUSH1 0x20 DUP4 PUSH2 0x26CD JUMP JUMPDEST SWAP2 POP PUSH2 0x21A0 DUP3 PUSH2 0x2BB7 JUMP JUMPDEST PUSH1 0x20 DUP3 ADD SWAP1 POP SWAP2 SWAP1 POP JUMP JUMPDEST PUSH1 0x0 PUSH2 0x21B8 PUSH1 0x12 DUP4 PUSH2 0x26CD JUMP JUMPDEST SWAP2 POP PUSH2 0x21C3 DUP3 PUSH2 0x2BE0 JUMP JUMPDEST PUSH1 0x20 DUP3 ADD SWAP1 POP SWAP2 SWAP1 POP JUMP JUMPDEST PUSH1 0x0 PUSH2 0x21DB PUSH1 0x25 DUP4 PUSH2 0x26CD JUMP JUMPDEST SWAP2 POP PUSH2 0x21E6 DUP3 PUSH2 0x2C09 JUMP JUMPDEST PUSH1 0x40 DUP3 ADD SWAP1 POP SWAP2 SWAP1 POP JUMP JUMPDEST PUSH1 0x0 PUSH1 0xC0 DUP4 ADD PUSH1 0x0 DUP4 ADD MLOAD PUSH2 0x2209 PUSH1 0x0 DUP7 ADD DUP3 PUSH2 0x22CA JUMP JUMPDEST POP PUSH1 0x20 DUP4 ADD MLOAD DUP5 DUP3 SUB PUSH1 0x20 DUP7 ADD MSTORE PUSH2 0x2221 DUP3 DUP3 PUSH2 0x1FFE JUMP JUMPDEST SWAP2 POP POP PUSH1 0x40 DUP4 ADD MLOAD DUP5 DUP3 SUB PUSH1 0x40 DUP7 ADD MSTORE PUSH2 0x223B DUP3 DUP3 PUSH2 0x1FFE JUMP JUMPDEST SWAP2 POP POP PUSH1 0x60 DUP4 ADD MLOAD DUP5 DUP3 SUB PUSH1 0x60 DUP7 ADD MSTORE PUSH2 0x2255 DUP3 DUP3 PUSH2 0x1FFE JUMP JUMPDEST SWAP2 POP POP PUSH1 0x80 DUP4 ADD MLOAD PUSH2 0x226A PUSH1 0x80 DUP7 ADD DUP3 PUSH2 0x1FE0 JUMP JUMPDEST POP PUSH1 0xA0 DUP4 ADD MLOAD PUSH2 0x227D PUSH1 0xA0 DUP7 ADD DUP3 PUSH2 0x22CA JUMP JUMPDEST POP DUP1 SWAP2 POP POP SWAP3 SWAP2 POP POP JUMP JUMPDEST PUSH1 0x60 DUP3 ADD PUSH1 0x0 DUP3 ADD MLOAD PUSH2 0x229E PUSH1 0x0 DUP6 ADD DUP3 PUSH2 0x1FC2 JUMP JUMPDEST POP PUSH1 0x20 DUP3 ADD MLOAD PUSH2 0x22B1 PUSH1 0x20 DUP6 ADD DUP3 PUSH2 0x1FC2 JUMP JUMPDEST POP PUSH1 0x40 DUP3 ADD MLOAD PUSH2 0x22C4 PUSH1 0x40 DUP6 ADD DUP3 PUSH2 0x1F46 JUMP JUMPDEST POP POP POP POP JUMP JUMPDEST PUSH2 0x22D3 DUP2 PUSH2 0x2807 JUMP JUMPDEST DUP3 MSTORE POP POP JUMP JUMPDEST PUSH2 0x22E2 DUP2 PUSH2 0x2807 JUMP JUMPDEST DUP3 MSTORE POP POP JUMP JUMPDEST PUSH1 0x0 PUSH1 0x20 DUP3 ADD SWAP1 POP PUSH2 0x22FD PUSH1 0x0 DUP4 ADD DUP5 PUSH2 0x1F55 JUMP JUMPDEST SWAP3 SWAP2 POP POP JUMP JUMPDEST PUSH1 0x0 PUSH1 0x20 DUP3 ADD SWAP1 POP PUSH2 0x2318 PUSH1 0x0 DUP4 ADD DUP5 PUSH2 0x1FD1 JUMP JUMPDEST SWAP3 SWAP2 POP POP JUMP JUMPDEST PUSH1 0x0 PUSH1 0x60 DUP3 ADD SWAP1 POP PUSH2 0x2333 PUSH1 0x0 DUP4 ADD DUP7 PUSH2 0x1FD1 JUMP JUMPDEST PUSH2 0x2340 PUSH1 0x20 DUP4 ADD DUP6 PUSH2 0x1FD1 JUMP JUMPDEST PUSH2 0x234D PUSH1 0x40 DUP4 ADD DUP5 PUSH2 0x1F55 JUMP JUMPDEST SWAP5 SWAP4 POP POP POP POP JUMP JUMPDEST PUSH1 0x0 PUSH1 0x60 DUP3 ADD SWAP1 POP PUSH2 0x236A PUSH1 0x0 DUP4 ADD DUP7 PUSH2 0x1FD1 JUMP JUMPDEST PUSH2 0x2377 PUSH1 0x20 DUP4 ADD DUP6 PUSH2 0x1FD1 JUMP JUMPDEST PUSH2 0x2384 PUSH1 0x40 DUP4 ADD DUP5 PUSH2 0x1FD1 JUMP JUMPDEST SWAP5 SWAP4 POP POP POP POP JUMP JUMPDEST PUSH1 0x0 PUSH1 0x60 DUP3 ADD SWAP1 POP PUSH2 0x23A1 PUSH1 0x0 DUP4 ADD DUP7 PUSH2 0x1FEF JUMP JUMPDEST DUP2 DUP2 SUB PUSH1 0x20 DUP4 ADD MSTORE PUSH2 0x23B3 DUP2 DUP6 PUSH2 0x21F1 JUMP JUMPDEST SWAP1 POP DUP2 DUP2 SUB PUSH1 0x40 DUP4 ADD MSTORE PUSH2 0x23C7 DUP2 DUP5 PUSH2 0x1F64 JUMP JUMPDEST SWAP1 POP SWAP5 SWAP4 POP POP POP POP JUMP JUMPDEST PUSH1 0x0 PUSH1 0x20 DUP3 ADD SWAP1 POP DUP2 DUP2 SUB PUSH1 0x0 DUP4 ADD MSTORE PUSH2 0x23EB DUP2 DUP5 PUSH2 0x2037 JUMP JUMPDEST SWAP1 POP SWAP3 SWAP2 POP POP JUMP JUMPDEST PUSH1 0x0 PUSH1 0x60 DUP3 ADD SWAP1 POP DUP2 DUP2 SUB PUSH1 0x0 DUP4 ADD MSTORE PUSH2 0x240D DUP2 DUP7 PUSH2 0x2037 JUMP JUMPDEST SWAP1 POP PUSH2 0x241C PUSH1 0x20 DUP4 ADD DUP6 PUSH2 0x22D9 JUMP JUMPDEST PUSH2 0x2429 PUSH1 0x40 DUP4 ADD DUP5 PUSH2 0x22D9 JUMP JUMPDEST SWAP5 SWAP4 POP POP POP POP JUMP JUMPDEST PUSH1 0x0 PUSH1 0x20 DUP3 ADD SWAP1 POP DUP2 DUP2 SUB PUSH1 0x0 DUP4 ADD MSTORE PUSH2 0x244A DUP2 PUSH2 0x2070 JUMP JUMPDEST SWAP1 POP SWAP2 SWAP1 POP JUMP JUMPDEST PUSH1 0x0 PUSH1 0x20 DUP3 ADD SWAP1 POP DUP2 DUP2 SUB PUSH1 0x0 DUP4 ADD MSTORE PUSH2 0x246A DUP2 PUSH2 0x2093 JUMP JUMPDEST SWAP1 POP SWAP2 SWAP1 POP JUMP JUMPDEST PUSH1 0x0 PUSH1 0x20 DUP3 ADD SWAP1 POP DUP2 DUP2 SUB PUSH1 0x0 DUP4 ADD MSTORE PUSH2 0x248A DUP2 PUSH2 0x20B6 JUMP JUMPDEST SWAP1 POP SWAP2 SWAP1 POP JUMP JUMPDEST PUSH1 0x0 PUSH1 0x20 DUP3 ADD SWAP1 POP DUP2 DUP2 SUB PUSH1 0x0 DUP4 ADD MSTORE PUSH2 0x24AA DUP2 PUSH2 0x20D9 JUMP JUMPDEST SWAP1 POP SWAP2 SWAP1 POP JUMP JUMPDEST PUSH1 0x0 PUSH1 0x20 DUP3 ADD SWAP1 POP DUP2 DUP2 SUB PUSH1 0x0 DUP4 ADD MSTORE PUSH2 0x24CA DUP2 PUSH2 0x20FC JUMP JUMPDEST SWAP1 POP SWAP2 SWAP1 POP JUMP JUMPDEST PUSH1 0x0 PUSH1 0x20 DUP3 ADD SWAP1 POP DUP2 DUP2 SUB PUSH1 0x0 DUP4 ADD MSTORE PUSH2 0x24EA DUP2 PUSH2 0x211F JUMP JUMPDEST SWAP1 POP SWAP2 SWAP1 POP JUMP JUMPDEST PUSH1 0x0 PUSH1 0x20 DUP3 ADD SWAP1 POP DUP2 DUP2 SUB PUSH1 0x0 DUP4 ADD MSTORE PUSH2 0x250A DUP2 PUSH2 0x2142 JUMP JUMPDEST SWAP1 POP SWAP2 SWAP1 POP JUMP JUMPDEST PUSH1 0x0 PUSH1 0x20 DUP3 ADD SWAP1 POP DUP2 DUP2 SUB PUSH1 0x0 DUP4 ADD MSTORE PUSH2 0x252A DUP2 PUSH2 0x2165 JUMP JUMPDEST SWAP1 POP SWAP2 SWAP1 POP JUMP JUMPDEST PUSH1 0x0 PUSH1 0x20 DUP3 ADD SWAP1 POP DUP2 DUP2 SUB PUSH1 0x0 DUP4 ADD MSTORE PUSH2 0x254A DUP2 PUSH2 0x2188 JUMP JUMPDEST SWAP1 POP SWAP2 SWAP1 POP JUMP JUMPDEST PUSH1 0x0 PUSH1 0x20 DUP3 ADD SWAP1 POP DUP2 DUP2 SUB PUSH1 0x0 DUP4 ADD MSTORE PUSH2 0x256A DUP2 PUSH2 0x21AB JUMP JUMPDEST SWAP1 POP SWAP2 SWAP1 POP JUMP JUMPDEST PUSH1 0x0 PUSH1 0x20 DUP3 ADD SWAP1 POP DUP2 DUP2 SUB PUSH1 0x0 DUP4 ADD MSTORE PUSH2 0x258A DUP2 PUSH2 0x21CE JUMP JUMPDEST SWAP1 POP SWAP2 SWAP1 POP JUMP JUMPDEST PUSH1 0x0 PUSH1 0x20 DUP3 ADD SWAP1 POP PUSH2 0x25A6 PUSH1 0x0 DUP4 ADD DUP5 PUSH2 0x22D9 JUMP JUMPDEST SWAP3 SWAP2 POP POP JUMP JUMPDEST PUSH1 0x0 PUSH1 0xC0 DUP3 ADD SWAP1 POP PUSH2 0x25C1 PUSH1 0x0 DUP4 ADD DUP10 PUSH2 0x22D9 JUMP JUMPDEST DUP2 DUP2 SUB PUSH1 0x20 DUP4 ADD MSTORE PUSH2 0x25D3 DUP2 DUP9 PUSH2 0x2037 JUMP JUMPDEST SWAP1 POP DUP2 DUP2 SUB PUSH1 0x40 DUP4 ADD MSTORE PUSH2 0x25E7 DUP2 DUP8 PUSH2 0x2037 JUMP JUMPDEST SWAP1 POP DUP2 DUP2 SUB PUSH1 0x60 DUP4 ADD MSTORE PUSH2 0x25FB DUP2 DUP7 PUSH2 0x2037 JUMP JUMPDEST SWAP1 POP PUSH2 0x260A PUSH1 0x80 DUP4 ADD DUP6 PUSH2 0x1FEF JUMP JUMPDEST PUSH2 0x2617 PUSH1 0xA0 DUP4 ADD DUP5 PUSH2 0x22D9 JUMP JUMPDEST SWAP8 SWAP7 POP POP POP POP POP POP POP JUMP JUMPDEST PUSH1 0x0 PUSH2 0x262C PUSH2 0x263D JUMP JUMPDEST SWAP1 POP PUSH2 0x2638 DUP3 DUP3 PUSH2 0x2892 JUMP JUMPDEST SWAP2 SWAP1 POP JUMP JUMPDEST PUSH1 0x0 PUSH1 0x40 MLOAD SWAP1 POP SWAP1 JUMP JUMPDEST PUSH1 0x0 PUSH8 0xFFFFFFFFFFFFFFFF DUP3 GT ISZERO PUSH2 0x2662 JUMPI PUSH2 0x2661 PUSH2 0x29A9 JUMP JUMPDEST JUMPDEST PUSH2 0x266B DUP3 PUSH2 0x29EC JUMP JUMPDEST SWAP1 POP PUSH1 0x20 DUP2 ADD SWAP1 POP SWAP2 SWAP1 POP JUMP JUMPDEST PUSH1 0x0 DUP2 SWAP1 POP PUSH1 0x20 DUP3 ADD SWAP1 POP SWAP2 SWAP1 POP JUMP JUMPDEST PUSH1 0x0 DUP2 MLOAD SWAP1 POP SWAP2 SWAP1 POP JUMP JUMPDEST PUSH1 0x0 DUP2 MLOAD SWAP1 POP SWAP2 SWAP1 POP JUMP JUMPDEST PUSH1 0x0 PUSH1 0x20 DUP3 ADD SWAP1 POP SWAP2 SWAP1 POP JUMP JUMPDEST PUSH1 0x0 DUP3 DUP3 MSTORE PUSH1 0x20 DUP3 ADD SWAP1 POP SWAP3 SWAP2 POP POP JUMP JUMPDEST PUSH1 0x0 DUP3 DUP3 MSTORE PUSH1 0x20 DUP3 ADD SWAP1 POP SWAP3 SWAP2 POP POP JUMP JUMPDEST PUSH1 0x0 DUP3 DUP3 MSTORE PUSH1 0x20 DUP3 ADD SWAP1 POP SWAP3 SWAP2 POP POP JUMP JUMPDEST PUSH1 0x0 PUSH2 0x26E9 DUP3 PUSH2 0x2807 JUMP JUMPDEST SWAP2 POP PUSH2 0x26F4 DUP4 PUSH2 0x2807 JUMP JUMPDEST SWAP3 POP DUP3 PUSH32 0xFFFFFFFFFFFFFFFFFFFFFFFFFFFFFFFFFFFFFFFFFFFFFFFFFFFFFFFFFFFFFFFF SUB DUP3 GT ISZERO PUSH2 0x2729 JUMPI PUSH2 0x2728 PUSH2 0x28ED JUMP JUMPDEST JUMPDEST DUP3 DUP3 ADD SWAP1 POP SWAP3 SWAP2 POP POP JUMP JUMPDEST PUSH1 0x0 PUSH2 0x273F DUP3 PUSH2 0x2807 JUMP JUMPDEST SWAP2 POP PUSH2 0x274A DUP4 PUSH2 0x2807 JUMP JUMPDEST SWAP3 POP DUP3 PUSH2 0x275A JUMPI PUSH2 0x2759 PUSH2 0x291C JUMP JUMPDEST JUMPDEST DUP3 DUP3 DIV SWAP1 POP SWAP3 SWAP2 POP POP JUMP JUMPDEST PUSH1 0x0 PUSH2 0x2770 DUP3 PUSH2 0x2807 JUMP JUMPDEST SWAP2 POP PUSH2 0x277B DUP4 PUSH2 0x2807 JUMP JUMPDEST SWAP3 POP DUP2 PUSH32 0xFFFFFFFFFFFFFFFFFFFFFFFFFFFFFFFFFFFFFFFFFFFFFFFFFFFFFFFFFFFFFFFF DIV DUP4 GT DUP3 ISZERO ISZERO AND ISZERO PUSH2 0x27B4 JUMPI PUSH2 0x27B3 PUSH2 0x28ED JUMP JUMPDEST JUMPDEST DUP3 DUP3 MUL SWAP1 POP SWAP3 SWAP2 POP POP JUMP JUMPDEST PUSH1 0x0 PUSH2 0x27CA DUP3 PUSH2 0x27E7 JUMP JUMPDEST SWAP1 POP SWAP2 SWAP1 POP JUMP JUMPDEST PUSH1 0x0 DUP2 ISZERO ISZERO SWAP1 POP SWAP2 SWAP1 POP JUMP JUMPDEST PUSH1 0x0 DUP2 SWAP1 POP SWAP2 SWAP1 POP JUMP JUMPDEST PUSH1 0x0 PUSH20 0xFFFFFFFFFFFFFFFFFFFFFFFFFFFFFFFFFFFFFFFF DUP3 AND SWAP1 POP SWAP2 SWAP1 POP JUMP JUMPDEST PUSH1 0x0 DUP2 SWAP1 POP SWAP2 SWAP1 POP JUMP JUMPDEST PUSH1 0x0 PUSH1 0xFF DUP3 AND SWAP1 POP SWAP2 SWAP1 POP JUMP JUMPDEST DUP3 DUP2 DUP4 CALLDATACOPY PUSH1 0x0 DUP4 DUP4 ADD MSTORE POP POP POP JUMP JUMPDEST PUSH1 0x0 JUMPDEST DUP4 DUP2 LT ISZERO PUSH2 0x284B JUMPI DUP1 DUP3 ADD MLOAD DUP2 DUP5 ADD MSTORE PUSH1 0x20 DUP2 ADD SWAP1 POP PUSH2 0x2830 JUMP JUMPDEST DUP4 DUP2 GT ISZERO PUSH2 0x285A JUMPI PUSH1 0x0 DUP5 DUP5 ADD MSTORE JUMPDEST POP POP POP POP JUMP JUMPDEST PUSH1 0x0 PUSH1 0x2 DUP3 DIV SWAP1 POP PUSH1 0x1 DUP3 AND DUP1 PUSH2 0x2878 JUMPI PUSH1 0x7F DUP3 AND SWAP2 POP JUMPDEST PUSH1 0x20 DUP3 LT DUP2 EQ ISZERO PUSH2 0x288C JUMPI PUSH2 0x288B PUSH2 0x294B JUMP JUMPDEST JUMPDEST POP SWAP2 SWAP1 POP JUMP JUMPDEST PUSH2 0x289B DUP3 PUSH2 0x29EC JUMP JUMPDEST DUP2 ADD DUP2 DUP2 LT PUSH8 0xFFFFFFFFFFFFFFFF DUP3 GT OR ISZERO PUSH2 0x28BA JUMPI PUSH2 0x28B9 PUSH2 0x29A9 JUMP JUMPDEST JUMPDEST DUP1 PUSH1 0x40 MSTORE POP POP POP JUMP JUMPDEST PUSH1 0x0 PUSH2 0x28CE DUP3 PUSH2 0x2811 JUMP JUMPDEST SWAP2 POP PUSH1 0xFF DUP3 EQ ISZERO PUSH2 0x28E2 JUMPI PUSH2 0x28E1 PUSH2 0x28ED JUMP JUMPDEST JUMPDEST PUSH1 0x1 DUP3 ADD SWAP1 POP SWAP2 SWAP1 POP JUMP JUMPDEST PUSH32 0x4E487B7100000000000000000000000000000000000000000000000000000000 PUSH1 0x0 MSTORE PUSH1 0x11 PUSH1 0x4 MSTORE PUSH1 0x24 PUSH1 0x0 REVERT JUMPDEST PUSH32 0x4E487B7100000000000000000000000000000000000000000000000000000000 PUSH1 0x0 MSTORE PUSH1 0x12 PUSH1 0x4 MSTORE PUSH1 0x24 PUSH1 0x0 REVERT JUMPDEST PUSH32 0x4E487B7100000000000000000000000000000000000000000000000000000000 PUSH1 0x0 MSTORE PUSH1 0x22 PUSH1 0x4 MSTORE PUSH1 0x24 PUSH1 0x0 REVERT JUMPDEST PUSH32 0x4E487B7100000000000000000000000000000000000000000000000000000000 PUSH1 0x0 MSTORE PUSH1 0x32 PUSH1 0x4 MSTORE PUSH1 0x24 PUSH1 0x0 REVERT JUMPDEST PUSH32 0x4E487B7100000000000000000000000000000000000000000000000000000000 PUSH1 0x0 MSTORE PUSH1 0x41 PUSH1 0x4 MSTORE PUSH1 0x24 PUSH1 0x0 REVERT JUMPDEST PUSH1 0x0 DUP1 REVERT JUMPDEST PUSH1 0x0 DUP1 REVERT JUMPDEST PUSH1 0x0 DUP1 REVERT JUMPDEST PUSH1 0x0 DUP1 REVERT JUMPDEST PUSH1 0x0 PUSH1 0x1F NOT PUSH1 0x1F DUP4 ADD AND SWAP1 POP SWAP2 SWAP1 POP JUMP JUMPDEST PUSH32 0x526563697069656E7420697320616C7265616479207265676973746572656400 PUSH1 0x0 DUP3 ADD MSTORE POP JUMP JUMPDEST PUSH32 0x596F75206172656E277420617574686F72697A6520746F20636F6D70696C6520 PUSH1 0x0 DUP3 ADD MSTORE PUSH32 0x42756E646C650000000000000000000000000000000000000000000000000000 PUSH1 0x20 DUP3 ADD MSTORE POP JUMP JUMPDEST PUSH32 0x596F7520616C72656164792073656E74206120726573706F6E73652E00000000 PUSH1 0x0 DUP3 ADD MSTORE POP JUMP JUMPDEST PUSH32 0x496E69746961746F722063616E277420766F7465210000000000000000000000 PUSH1 0x0 DUP3 ADD MSTORE POP JUMP JUMPDEST PUSH32 0x596F7520617265206E6F74207265676973746572656420746F20766F74650000 PUSH1 0x0 DUP3 ADD MSTORE POP JUMP JUMPDEST PUSH32 0x50726F706F73616C206861732072656163686564206974732065787069727920 PUSH1 0x0 DUP3 ADD MSTORE PUSH32 0x6461746500000000000000000000000000000000000000000000000000000000 PUSH1 0x20 DUP3 ADD MSTORE POP JUMP JUMPDEST PUSH32 0x4F6E6C7920696E69746961746F722063616E2072656769737465722061207265 PUSH1 0x0 DUP3 ADD MSTORE PUSH32 0x63697069656E742E000000000000000000000000000000000000000000000000 PUSH1 0x20 DUP3 ADD MSTORE POP JUMP JUMPDEST PUSH32 0x596F75206172656E277420496E69746961746F72000000000000000000000000 PUSH1 0x0 DUP3 ADD MSTORE POP JUMP JUMPDEST PUSH32 0x5665726469637420686173206E6F74206265656E207265616368656420796574 PUSH1 0x0 DUP3 ADD MSTORE POP JUMP JUMPDEST PUSH32 0x566F74696E672068617320657870697265640000000000000000000000000000 PUSH1 0x0 DUP3 ADD MSTORE POP JUMP JUMPDEST PUSH32 0x436F6E73656E7375732068617320616C7265616479206265656E2063616C6375 PUSH1 0x0 DUP3 ADD MSTORE PUSH32 0x6C61746564000000000000000000000000000000000000000000000000000000 PUSH1 0x20 DUP3 ADD MSTORE POP JUMP JUMPDEST PUSH2 0x2C61 DUP2 PUSH2 0x27BF JUMP JUMPDEST DUP2 EQ PUSH2 0x2C6C JUMPI PUSH1 0x0 DUP1 REVERT JUMPDEST POP JUMP JUMPDEST PUSH2 0x2C78 DUP2 PUSH2 0x27DD JUMP JUMPDEST DUP2 EQ PUSH2 0x2C83 JUMPI PUSH1 0x0 DUP1 REVERT JUMPDEST POP JUMP JUMPDEST PUSH2 0x2C8F DUP2 PUSH2 0x2807 JUMP JUMPDEST DUP2 EQ PUSH2 0x2C9A JUMPI PUSH1 0x0 DUP1 REVERT JUMPDEST POP JUMP INVALID LOG2 PUSH5 0x6970667358 0x22 SLT KECCAK256 0xBB DUP14 CHAINID PUSH25 0x78F2D84BFB6215E3120B0E665288A2A15C9C76B3B191723607 0xC9 CREATE2 0xAB PUSH5 0x736F6C6343 STOP ADDMOD SMOD STOP CALLER "
				},
				"gasEstimates": {
					"creation": {
						"codeDepositCost": "2295000",
						"executionCost": "infinite",
						"totalCost": "infinite"
					},
					"external": {
						"BusinessRequirement()": "2495",
						"Consensus()": "infinite",
						"RegisterVoter(address)": "131017",
						"Vote(string)": "infinite",
						"checkConsistency(string,uint256,uint256,bytes32)": "infinite",
						"contractAddress()": "2621",
						"getIsCompiled()": "2502",
						"getParameters()": "infinite",
						"getParameters2(address)": "infinite",
						"getValues()": "infinite",
						"initiator()": "2559",
						"keys(uint256)": "4980",
						"numApprovals()": "2496",
						"proposal()": "infinite",
						"retrieve_bundle()": "infinite",
						"voters(uint256)": "infinite",
						"voters_map(address)": "infinite"
					}
				},
				"methodIdentifiers": {
					"BusinessRequirement()": "d77aa749",
					"Consensus()": "95b02dfa",
					"RegisterVoter(address)": "15fe6f1b",
					"Vote(string)": "323082d7",
					"checkConsistency(string,uint256,uint256,bytes32)": "9d6a3125",
					"contractAddress()": "f6b4dfb4",
					"getIsCompiled()": "760297e9",
					"getParameters()": "a5ea11da",
					"getParameters2(address)": "5361a0ea",
					"getValues()": "19eb4a90",
					"initiator()": "5c39fcc1",
					"keys(uint256)": "0cb6aaf1",
					"numApprovals()": "7403c5e5",
					"proposal()": "753ec103",
					"retrieve_bundle()": "82316745",
					"voters(uint256)": "da58c7d9",
					"voters_map(address)": "9aa4bbdd"
				}
			},
			"storageLayout": {
				"storage": [
					{
						"astId": 23,
						"contract": "contracts/BusinessConsensus.sol:BusinessConsensus",
						"label": "contractAddress",
						"offset": 0,
						"slot": "0",
						"type": "t_address"
					},
					{
						"astId": 25,
						"contract": "contracts/BusinessConsensus.sol:BusinessConsensus",
						"label": "initiator",
						"offset": 0,
						"slot": "1",
						"type": "t_address"
					},
					{
						"astId": 28,
						"contract": "contracts/BusinessConsensus.sol:BusinessConsensus",
						"label": "keys",
						"offset": 0,
						"slot": "2",
						"type": "t_array(t_address)dyn_storage"
					},
					{
						"astId": 30,
						"contract": "contracts/BusinessConsensus.sol:BusinessConsensus",
						"label": "expiryDate",
						"offset": 0,
						"slot": "3",
						"type": "t_uint256"
					},
					{
						"astId": 32,
						"contract": "contracts/BusinessConsensus.sol:BusinessConsensus",
						"label": "BusinessRequirement",
						"offset": 0,
						"slot": "4",
						"type": "t_uint256"
					},
					{
						"astId": 34,
						"contract": "contracts/BusinessConsensus.sol:BusinessConsensus",
						"label": "numApprovals",
						"offset": 0,
						"slot": "5",
						"type": "t_uint256"
					},
					{
						"astId": 36,
						"contract": "contracts/BusinessConsensus.sol:BusinessConsensus",
						"label": "isCompiled",
						"offset": 0,
						"slot": "6",
						"type": "t_bool"
					},
					{
						"astId": 38,
						"contract": "contracts/BusinessConsensus.sol:BusinessConsensus",
						"label": "finalVerdict",
						"offset": 0,
						"slot": "7",
						"type": "t_bytes32"
					},
					{
						"astId": 42,
						"contract": "contracts/BusinessConsensus.sol:BusinessConsensus",
						"label": "voters",
						"offset": 0,
						"slot": "8",
						"type": "t_array(t_struct(Voter)8_storage)dyn_storage"
					},
					{
						"astId": 47,
						"contract": "contracts/BusinessConsensus.sol:BusinessConsensus",
						"label": "voters_map",
						"offset": 0,
						"slot": "9",
						"type": "t_mapping(t_address,t_struct(Voter)8_storage)"
					},
					{
						"astId": 50,
						"contract": "contracts/BusinessConsensus.sol:BusinessConsensus",
						"label": "proposal",
						"offset": 0,
						"slot": "10",
						"type": "t_struct(Proposal)21_storage"
					}
				],
				"types": {
					"t_address": {
						"encoding": "inplace",
						"label": "address",
						"numberOfBytes": "20"
					},
					"t_array(t_address)dyn_storage": {
						"base": "t_address",
						"encoding": "dynamic_array",
						"label": "address[]",
						"numberOfBytes": "32"
					},
					"t_array(t_struct(Voter)8_storage)dyn_storage": {
						"base": "t_struct(Voter)8_storage",
						"encoding": "dynamic_array",
						"label": "struct BusinessConsensus.Voter[]",
						"numberOfBytes": "32"
					},
					"t_bool": {
						"encoding": "inplace",
						"label": "bool",
						"numberOfBytes": "1"
					},
					"t_bytes32": {
						"encoding": "inplace",
						"label": "bytes32",
						"numberOfBytes": "32"
					},
					"t_mapping(t_address,t_struct(Voter)8_storage)": {
						"encoding": "mapping",
						"key": "t_address",
						"label": "mapping(address => struct BusinessConsensus.Voter)",
						"numberOfBytes": "32",
						"value": "t_struct(Voter)8_storage"
					},
					"t_string_storage": {
						"encoding": "bytes",
						"label": "string",
						"numberOfBytes": "32"
					},
					"t_struct(Proposal)21_storage": {
						"encoding": "inplace",
						"label": "struct BusinessConsensus.Proposal",
						"members": [
							{
								"astId": 10,
								"contract": "contracts/BusinessConsensus.sol:BusinessConsensus",
								"label": "voteCount",
								"offset": 0,
								"slot": "0",
								"type": "t_uint256"
							},
							{
								"astId": 12,
								"contract": "contracts/BusinessConsensus.sol:BusinessConsensus",
								"label": "messageID",
								"offset": 0,
								"slot": "1",
								"type": "t_string_storage"
							},
							{
								"astId": 14,
								"contract": "contracts/BusinessConsensus.sol:BusinessConsensus",
								"label": "messageDate",
								"offset": 0,
								"slot": "2",
								"type": "t_string_storage"
							},
							{
								"astId": 16,
								"contract": "contracts/BusinessConsensus.sol:BusinessConsensus",
								"label": "subject",
								"offset": 0,
								"slot": "3",
								"type": "t_string_storage"
							},
							{
								"astId": 18,
								"contract": "contracts/BusinessConsensus.sol:BusinessConsensus",
								"label": "contents",
								"offset": 0,
								"slot": "4",
								"type": "t_bytes32"
							},
							{
								"astId": 20,
								"contract": "contracts/BusinessConsensus.sol:BusinessConsensus",
								"label": "expiryLength",
								"offset": 0,
								"slot": "5",
								"type": "t_uint256"
							}
						],
						"numberOfBytes": "192"
					},
					"t_struct(Voter)8_storage": {
						"encoding": "inplace",
						"label": "struct BusinessConsensus.Voter",
						"members": [
							{
								"astId": 3,
								"contract": "contracts/BusinessConsensus.sol:BusinessConsensus",
								"label": "voted",
								"offset": 0,
								"slot": "0",
								"type": "t_bool"
							},
							{
								"astId": 5,
								"contract": "contracts/BusinessConsensus.sol:BusinessConsensus",
								"label": "vote",
								"offset": 1,
								"slot": "0",
								"type": "t_bool"
							},
							{
								"astId": 7,
								"contract": "contracts/BusinessConsensus.sol:BusinessConsensus",
								"label": "recipient",
								"offset": 2,
								"slot": "0",
								"type": "t_address"
							}
						],
						"numberOfBytes": "32"
					},
					"t_uint256": {
						"encoding": "inplace",
						"label": "uint256",
						"numberOfBytes": "32"
					}
				}
			},
			"userdoc": {
				"kind": "user",
				"methods": {
					"Consensus()": {
						"notice": "compile all relevant information into a Bundle"
					}
				},
				"version": 1
			}
		}
	}
}