{
	"contracts/BusinessConsensus.sol": {
		"BusinessConsensus": {
			"abi": [
				{
					"inputs": [
						{
							"internalType": "string",
							"name": "_messageID",
							"type": "string"
						},
						{
							"internalType": "uint256",
							"name": "expiry",
							"type": "uint256"
						},
						{
							"internalType": "uint256",
							"name": "requiredPercentage",
							"type": "uint256"
						}
					],
					"stateMutability": "nonpayable",
					"type": "constructor"
				},
				{
					"inputs": [],
					"name": "BusinessRequirement",
					"outputs": [
						{
							"internalType": "uint256",
							"name": "",
							"type": "uint256"
						}
					],
					"stateMutability": "view",
					"type": "function"
				},
				{
					"inputs": [],
					"name": "Consensus",
					"outputs": [],
					"stateMutability": "nonpayable",
					"type": "function"
				},
				{
					"inputs": [
						{
							"internalType": "address",
							"name": "voter",
							"type": "address"
						}
					],
					"name": "RegisterVoter",
					"outputs": [],
					"stateMutability": "nonpayable",
					"type": "function"
				},
				{
					"inputs": [
						{
							"internalType": "string",
							"name": "response",
							"type": "string"
						}
					],
					"name": "Vote",
					"outputs": [],
					"stateMutability": "nonpayable",
					"type": "function"
				},
				{
					"inputs": [],
					"name": "contractAddress",
					"outputs": [
						{
							"internalType": "address",
							"name": "",
							"type": "address"
						}
					],
					"stateMutability": "view",
					"type": "function"
				},
				{
					"inputs": [],
					"name": "getNumCompiled",
					"outputs": [
						{
							"internalType": "bool",
							"name": "",
							"type": "bool"
						}
					],
					"stateMutability": "view",
					"type": "function"
				},
				{
					"inputs": [],
					"name": "getParameters",
					"outputs": [
						{
							"internalType": "string",
							"name": "",
							"type": "string"
						},
						{
							"internalType": "uint256",
							"name": "",
							"type": "uint256"
						},
						{
							"internalType": "address",
							"name": "",
							"type": "address"
						},
						{
							"internalType": "uint256",
							"name": "",
							"type": "uint256"
						},
						{
							"internalType": "uint256",
							"name": "",
							"type": "uint256"
						}
					],
					"stateMutability": "view",
					"type": "function"
				},
				{
					"inputs": [
						{
							"internalType": "address",
							"name": "test_address",
							"type": "address"
						}
					],
					"name": "getParameters2",
					"outputs": [
						{
							"internalType": "bool",
							"name": "",
							"type": "bool"
						},
						{
							"internalType": "bool",
							"name": "",
							"type": "bool"
						},
						{
							"internalType": "address",
							"name": "",
							"type": "address"
						}
					],
					"stateMutability": "view",
					"type": "function"
				},
				{
					"inputs": [],
					"name": "getValues",
					"outputs": [
						{
							"internalType": "string",
							"name": "",
							"type": "string"
						}
					],
					"stateMutability": "view",
					"type": "function"
				},
				{
					"inputs": [],
					"name": "initiator",
					"outputs": [
						{
							"internalType": "address",
							"name": "",
							"type": "address"
						}
					],
					"stateMutability": "view",
					"type": "function"
				},
				{
					"inputs": [
						{
							"internalType": "uint256",
							"name": "",
							"type": "uint256"
						}
					],
					"name": "keys",
					"outputs": [
						{
							"internalType": "address",
							"name": "",
							"type": "address"
						}
					],
					"stateMutability": "view",
					"type": "function"
				},
				{
					"inputs": [],
					"name": "numApprovals",
					"outputs": [
						{
							"internalType": "uint256",
							"name": "",
							"type": "uint256"
						}
					],
					"stateMutability": "view",
					"type": "function"
				},
				{
					"inputs": [],
					"name": "proposal",
					"outputs": [
						{
							"internalType": "uint256",
							"name": "voteCount",
							"type": "uint256"
						},
						{
							"internalType": "string",
							"name": "messageID",
							"type": "string"
						}
					],
					"stateMutability": "view",
					"type": "function"
				},
				{
					"inputs": [],
					"name": "retrieve_bundle",
					"outputs": [
						{
							"internalType": "bytes32",
							"name": "",
							"type": "bytes32"
						},
						{
							"components": [
								{
									"internalType": "uint256",
									"name": "voteCount",
									"type": "uint256"
								},
								{
									"internalType": "string",
									"name": "messageID",
									"type": "string"
								}
							],
							"internalType": "struct BusinessConsensus.Proposal",
							"name": "",
							"type": "tuple"
						},
						{
							"components": [
								{
									"internalType": "bool",
									"name": "voted",
									"type": "bool"
								},
								{
									"internalType": "bool",
									"name": "vote",
									"type": "bool"
								},
								{
									"internalType": "address",
									"name": "recipient",
									"type": "address"
								}
							],
							"internalType": "struct BusinessConsensus.Voter[]",
							"name": "",
							"type": "tuple[]"
						}
					],
					"stateMutability": "view",
					"type": "function"
				},
				{
					"inputs": [
						{
							"internalType": "uint256",
							"name": "",
							"type": "uint256"
						}
					],
					"name": "voters",
					"outputs": [
						{
							"internalType": "bool",
							"name": "voted",
							"type": "bool"
						},
						{
							"internalType": "bool",
							"name": "vote",
							"type": "bool"
						},
						{
							"internalType": "address",
							"name": "recipient",
							"type": "address"
						}
					],
					"stateMutability": "view",
					"type": "function"
				},
				{
					"inputs": [
						{
							"internalType": "address",
							"name": "",
							"type": "address"
						}
					],
					"name": "voters_map",
					"outputs": [
						{
							"internalType": "bool",
							"name": "voted",
							"type": "bool"
						},
						{
							"internalType": "bool",
							"name": "vote",
							"type": "bool"
						},
						{
							"internalType": "address",
							"name": "recipient",
							"type": "address"
						}
					],
					"stateMutability": "view",
					"type": "function"
				}
			],
			"devdoc": {
				"kind": "dev",
				"methods": {},
				"version": 1
			},
			"evm": {
				"assembly": "    /* \"contracts/BusinessConsensus.sol\":33:5208  contract BusinessConsensus{\r... */\n  mstore(0x40, 0x80)\n    /* \"contracts/BusinessConsensus.sol\":1139:1691  constructor(string memory _messageID, uint expiry, uint requiredPercentage){\r... */\n  callvalue\n  dup1\n  iszero\n  tag_1\n  jumpi\n  0x00\n  dup1\n  revert\ntag_1:\n  pop\n  mload(0x40)\n  sub(codesize, bytecodeSize)\n  dup1\n  bytecodeSize\n  dup4\n  codecopy\n  dup2\n  dup2\n  add\n  0x40\n  mstore\n  dup2\n  add\n  swap1\n  tag_2\n  swap2\n  swap1\n  tag_3\n  jump\t// in\ntag_2:\n    /* \"contracts/BusinessConsensus.sol\":1237:1247  msg.sender */\n  caller\n    /* \"contracts/BusinessConsensus.sol\":1225:1234  initiator */\n  0x01\n  0x00\n    /* \"contracts/BusinessConsensus.sol\":1225:1247  initiator = msg.sender */\n  0x0100\n  exp\n  dup2\n  sload\n  dup2\n  0xffffffffffffffffffffffffffffffffffffffff\n  mul\n  not\n  and\n  swap1\n  dup4\n  0xffffffffffffffffffffffffffffffffffffffff\n  and\n  mul\n  or\n  swap1\n  sstore\n  pop\n    /* \"contracts/BusinessConsensus.sol\":1289:1295  expiry */\n  dup2\n    /* \"contracts/BusinessConsensus.sol\":1271:1286  block.timestamp */\n  timestamp\n    /* \"contracts/BusinessConsensus.sol\":1271:1295  block.timestamp + expiry */\n  tag_6\n  swap2\n  swap1\n  tag_7\n  jump\t// in\ntag_6:\n    /* \"contracts/BusinessConsensus.sol\":1258:1268  expiryDate */\n  0x03\n    /* \"contracts/BusinessConsensus.sol\":1258:1295  expiryDate = block.timestamp + expiry */\n  dup2\n  swap1\n  sstore\n  pop\n    /* \"contracts/BusinessConsensus.sol\":1328:1346  requiredPercentage */\n  dup1\n    /* \"contracts/BusinessConsensus.sol\":1306:1325  BusinessRequirement */\n  0x04\n    /* \"contracts/BusinessConsensus.sol\":1306:1346  BusinessRequirement = requiredPercentage */\n  dup2\n  swap1\n  sstore\n  pop\n    /* \"contracts/BusinessConsensus.sol\":1372:1373  0 */\n  0x00\n    /* \"contracts/BusinessConsensus.sol\":1357:1369  numApprovals */\n  0x05\n    /* \"contracts/BusinessConsensus.sol\":1357:1373  numApprovals = 0 */\n  dup2\n  swap1\n  sstore\n  pop\n    /* \"contracts/BusinessConsensus.sol\":1397:1402  false */\n  0x00\n    /* \"contracts/BusinessConsensus.sol\":1384:1394  isCompiled */\n  0x06\n  0x00\n    /* \"contracts/BusinessConsensus.sol\":1384:1402  isCompiled = false */\n  0x0100\n  exp\n  dup2\n  sload\n  dup2\n  0xff\n  mul\n  not\n  and\n  swap1\n  dup4\n  iszero\n  iszero\n  mul\n  or\n  swap1\n  sstore\n  pop\n    /* \"contracts/BusinessConsensus.sol\":1413:1438  finalVerdict = \"Rejected\" */\n  0x52656a6563746564000000000000000000000000000000000000000000000000\n    /* \"contracts/BusinessConsensus.sol\":1413:1425  finalVerdict */\n  0x07\n    /* \"contracts/BusinessConsensus.sol\":1413:1438  finalVerdict = \"Rejected\" */\n  dup2\n  swap1\n  sstore\n  pop\n    /* \"contracts/BusinessConsensus.sol\":1475:1479  this */\n  address\n    /* \"contracts/BusinessConsensus.sol\":1449:1464  contractAddress */\n  0x00\n  dup1\n    /* \"contracts/BusinessConsensus.sol\":1449:1480  contractAddress = address(this) */\n  0x0100\n  exp\n  dup2\n  sload\n  dup2\n  0xffffffffffffffffffffffffffffffffffffffff\n  mul\n  not\n  and\n  swap1\n  dup4\n  0xffffffffffffffffffffffffffffffffffffffff\n  and\n  mul\n  or\n  swap1\n  sstore\n  pop\n    /* \"contracts/BusinessConsensus.sol\":1587:1683  Proposal({\r... */\n  mload(0x40)\n  dup1\n  0x40\n  add\n  0x40\n  mstore\n  dup1\n    /* \"contracts/BusinessConsensus.sol\":1626:1627  0 */\n  0x00\n    /* \"contracts/BusinessConsensus.sol\":1587:1683  Proposal({\r... */\n  dup2\n  mstore\n  0x20\n  add\n    /* \"contracts/BusinessConsensus.sol\":1657:1667  _messageID */\n  dup5\n    /* \"contracts/BusinessConsensus.sol\":1587:1683  Proposal({\r... */\n  dup2\n  mstore\n  pop\n    /* \"contracts/BusinessConsensus.sol\":1576:1584  proposal */\n  0x0a\n    /* \"contracts/BusinessConsensus.sol\":1576:1683  proposal = Proposal({\r... */\n  0x00\n  dup3\n  add\n  mload\n  dup2\n  0x00\n  add\n  sstore\n  0x20\n  dup3\n  add\n  mload\n  dup2\n  0x01\n  add\n  swap1\n  dup1\n  mload\n  swap1\n  0x20\n  add\n  swap1\n  tag_8\n  swap3\n  swap2\n  swap1\n  tag_9\n  jump\t// in\ntag_8:\n  pop\n  swap1\n  pop\n  pop\n    /* \"contracts/BusinessConsensus.sol\":1139:1691  constructor(string memory _messageID, uint expiry, uint requiredPercentage){\r... */\n  pop\n  pop\n  pop\n    /* \"contracts/BusinessConsensus.sol\":33:5208  contract BusinessConsensus{\r... */\n  jump(tag_10)\ntag_9:\n  dup3\n  dup1\n  sload\n  tag_11\n  swap1\n  tag_12\n  jump\t// in\ntag_11:\n  swap1\n  0x00\n  mstore\n  keccak256(0x00, 0x20)\n  swap1\n  0x1f\n  add\n  0x20\n  swap1\n  div\n  dup2\n  add\n  swap3\n  dup3\n  tag_14\n  jumpi\n  0x00\n  dup6\n  sstore\n  jump(tag_13)\ntag_14:\n  dup3\n  0x1f\n  lt\n  tag_15\n  jumpi\n  dup1\n  mload\n  not(0xff)\n  and\n  dup4\n  dup1\n  add\n  or\n  dup6\n  sstore\n  jump(tag_13)\ntag_15:\n  dup3\n  dup1\n  add\n  0x01\n  add\n  dup6\n  sstore\n  dup3\n  iszero\n  tag_13\n  jumpi\n  swap2\n  dup3\n  add\ntag_16:\n  dup3\n  dup2\n  gt\n  iszero\n  tag_17\n  jumpi\n  dup3\n  mload\n  dup3\n  sstore\n  swap2\n  0x20\n  add\n  swap2\n  swap1\n  0x01\n  add\n  swap1\n  jump(tag_16)\ntag_17:\ntag_13:\n  pop\n  swap1\n  pop\n  tag_18\n  swap2\n  swap1\n  tag_19\n  jump\t// in\ntag_18:\n  pop\n  swap1\n  jump\t// out\ntag_19:\ntag_20:\n  dup1\n  dup3\n  gt\n  iszero\n  tag_21\n  jumpi\n  0x00\n  dup2\n  0x00\n  swap1\n  sstore\n  pop\n  0x01\n  add\n  jump(tag_20)\ntag_21:\n  pop\n  swap1\n  jump\t// out\n    /* \"#utility.yul\":7:428   */\ntag_23:\n    /* \"#utility.yul\":96:101   */\n  0x00\n    /* \"#utility.yul\":121:187   */\n  tag_25\n    /* \"#utility.yul\":137:186   */\n  tag_26\n    /* \"#utility.yul\":179:185   */\n  dup5\n    /* \"#utility.yul\":137:186   */\n  tag_27\n  jump\t// in\ntag_26:\n    /* \"#utility.yul\":121:187   */\n  tag_28\n  jump\t// in\ntag_25:\n    /* \"#utility.yul\":112:187   */\n  swap1\n  pop\n    /* \"#utility.yul\":210:216   */\n  dup3\n    /* \"#utility.yul\":203:208   */\n  dup2\n    /* \"#utility.yul\":196:217   */\n  mstore\n    /* \"#utility.yul\":248:252   */\n  0x20\n    /* \"#utility.yul\":241:246   */\n  dup2\n    /* \"#utility.yul\":237:253   */\n  add\n    /* \"#utility.yul\":286:289   */\n  dup5\n    /* \"#utility.yul\":277:283   */\n  dup5\n    /* \"#utility.yul\":272:275   */\n  dup5\n    /* \"#utility.yul\":268:284   */\n  add\n    /* \"#utility.yul\":265:290   */\n  gt\n    /* \"#utility.yul\":262:374   */\n  iszero\n  tag_29\n  jumpi\n    /* \"#utility.yul\":293:372   */\n  tag_30\n  tag_31\n  jump\t// in\ntag_30:\n    /* \"#utility.yul\":262:374   */\ntag_29:\n    /* \"#utility.yul\":383:422   */\n  tag_32\n    /* \"#utility.yul\":415:421   */\n  dup5\n    /* \"#utility.yul\":410:413   */\n  dup3\n    /* \"#utility.yul\":405:408   */\n  dup6\n    /* \"#utility.yul\":383:422   */\n  tag_33\n  jump\t// in\ntag_32:\n    /* \"#utility.yul\":102:428   */\n  pop\n    /* \"#utility.yul\":7:428   */\n  swap4\n  swap3\n  pop\n  pop\n  pop\n  jump\t// out\n    /* \"#utility.yul\":448:803   */\ntag_34:\n    /* \"#utility.yul\":515:520   */\n  0x00\n    /* \"#utility.yul\":564:567   */\n  dup3\n    /* \"#utility.yul\":557:561   */\n  0x1f\n    /* \"#utility.yul\":549:555   */\n  dup4\n    /* \"#utility.yul\":545:562   */\n  add\n    /* \"#utility.yul\":541:568   */\n  slt\n    /* \"#utility.yul\":531:653   */\n  tag_36\n  jumpi\n    /* \"#utility.yul\":572:651   */\n  tag_37\n  tag_38\n  jump\t// in\ntag_37:\n    /* \"#utility.yul\":531:653   */\ntag_36:\n    /* \"#utility.yul\":682:688   */\n  dup2\n    /* \"#utility.yul\":676:689   */\n  mload\n    /* \"#utility.yul\":707:797   */\n  tag_39\n    /* \"#utility.yul\":793:796   */\n  dup5\n    /* \"#utility.yul\":785:791   */\n  dup3\n    /* \"#utility.yul\":778:782   */\n  0x20\n    /* \"#utility.yul\":770:776   */\n  dup7\n    /* \"#utility.yul\":766:783   */\n  add\n    /* \"#utility.yul\":707:797   */\n  tag_23\n  jump\t// in\ntag_39:\n    /* \"#utility.yul\":698:797   */\n  swap2\n  pop\n    /* \"#utility.yul\":521:803   */\n  pop\n    /* \"#utility.yul\":448:803   */\n  swap3\n  swap2\n  pop\n  pop\n  jump\t// out\n    /* \"#utility.yul\":809:952   */\ntag_40:\n    /* \"#utility.yul\":866:871   */\n  0x00\n    /* \"#utility.yul\":897:903   */\n  dup2\n    /* \"#utility.yul\":891:904   */\n  mload\n    /* \"#utility.yul\":882:904   */\n  swap1\n  pop\n    /* \"#utility.yul\":913:946   */\n  tag_42\n    /* \"#utility.yul\":940:945   */\n  dup2\n    /* \"#utility.yul\":913:946   */\n  tag_43\n  jump\t// in\ntag_42:\n    /* \"#utility.yul\":809:952   */\n  swap3\n  swap2\n  pop\n  pop\n  jump\t// out\n    /* \"#utility.yul\":958:1794   */\ntag_3:\n    /* \"#utility.yul\":1056:1062   */\n  0x00\n    /* \"#utility.yul\":1064:1070   */\n  dup1\n    /* \"#utility.yul\":1072:1078   */\n  0x00\n    /* \"#utility.yul\":1121:1123   */\n  0x60\n    /* \"#utility.yul\":1109:1118   */\n  dup5\n    /* \"#utility.yul\":1100:1107   */\n  dup7\n    /* \"#utility.yul\":1096:1119   */\n  sub\n    /* \"#utility.yul\":1092:1124   */\n  slt\n    /* \"#utility.yul\":1089:1208   */\n  iszero\n  tag_45\n  jumpi\n    /* \"#utility.yul\":1127:1206   */\n  tag_46\n  tag_47\n  jump\t// in\ntag_46:\n    /* \"#utility.yul\":1089:1208   */\ntag_45:\n    /* \"#utility.yul\":1268:1269   */\n  0x00\n    /* \"#utility.yul\":1257:1266   */\n  dup5\n    /* \"#utility.yul\":1253:1270   */\n  add\n    /* \"#utility.yul\":1247:1271   */\n  mload\n    /* \"#utility.yul\":1298:1316   */\n  0xffffffffffffffff\n    /* \"#utility.yul\":1290:1296   */\n  dup2\n    /* \"#utility.yul\":1287:1317   */\n  gt\n    /* \"#utility.yul\":1284:1401   */\n  iszero\n  tag_48\n  jumpi\n    /* \"#utility.yul\":1320:1399   */\n  tag_49\n  tag_50\n  jump\t// in\ntag_49:\n    /* \"#utility.yul\":1284:1401   */\ntag_48:\n    /* \"#utility.yul\":1425:1499   */\n  tag_51\n    /* \"#utility.yul\":1491:1498   */\n  dup7\n    /* \"#utility.yul\":1482:1488   */\n  dup3\n    /* \"#utility.yul\":1471:1480   */\n  dup8\n    /* \"#utility.yul\":1467:1489   */\n  add\n    /* \"#utility.yul\":1425:1499   */\n  tag_34\n  jump\t// in\ntag_51:\n    /* \"#utility.yul\":1415:1499   */\n  swap4\n  pop\n    /* \"#utility.yul\":1218:1509   */\n  pop\n    /* \"#utility.yul\":1548:1550   */\n  0x20\n    /* \"#utility.yul\":1574:1638   */\n  tag_52\n    /* \"#utility.yul\":1630:1637   */\n  dup7\n    /* \"#utility.yul\":1621:1627   */\n  dup3\n    /* \"#utility.yul\":1610:1619   */\n  dup8\n    /* \"#utility.yul\":1606:1628   */\n  add\n    /* \"#utility.yul\":1574:1638   */\n  tag_40\n  jump\t// in\ntag_52:\n    /* \"#utility.yul\":1564:1638   */\n  swap3\n  pop\n    /* \"#utility.yul\":1519:1648   */\n  pop\n    /* \"#utility.yul\":1687:1689   */\n  0x40\n    /* \"#utility.yul\":1713:1777   */\n  tag_53\n    /* \"#utility.yul\":1769:1776   */\n  dup7\n    /* \"#utility.yul\":1760:1766   */\n  dup3\n    /* \"#utility.yul\":1749:1758   */\n  dup8\n    /* \"#utility.yul\":1745:1767   */\n  add\n    /* \"#utility.yul\":1713:1777   */\n  tag_40\n  jump\t// in\ntag_53:\n    /* \"#utility.yul\":1703:1777   */\n  swap2\n  pop\n    /* \"#utility.yul\":1658:1787   */\n  pop\n    /* \"#utility.yul\":958:1794   */\n  swap3\n  pop\n  swap3\n  pop\n  swap3\n  jump\t// out\n    /* \"#utility.yul\":1800:1929   */\ntag_28:\n    /* \"#utility.yul\":1834:1840   */\n  0x00\n    /* \"#utility.yul\":1861:1881   */\n  tag_55\n  tag_56\n  jump\t// in\ntag_55:\n    /* \"#utility.yul\":1851:1881   */\n  swap1\n  pop\n    /* \"#utility.yul\":1890:1923   */\n  tag_57\n    /* \"#utility.yul\":1918:1922   */\n  dup3\n    /* \"#utility.yul\":1910:1916   */\n  dup3\n    /* \"#utility.yul\":1890:1923   */\n  tag_58\n  jump\t// in\ntag_57:\n    /* \"#utility.yul\":1800:1929   */\n  swap2\n  swap1\n  pop\n  jump\t// out\n    /* \"#utility.yul\":1935:2010   */\ntag_56:\n    /* \"#utility.yul\":1968:1974   */\n  0x00\n    /* \"#utility.yul\":2001:2003   */\n  0x40\n    /* \"#utility.yul\":1995:2004   */\n  mload\n    /* \"#utility.yul\":1985:2004   */\n  swap1\n  pop\n    /* \"#utility.yul\":1935:2010   */\n  swap1\n  jump\t// out\n    /* \"#utility.yul\":2016:2324   */\ntag_27:\n    /* \"#utility.yul\":2078:2082   */\n  0x00\n    /* \"#utility.yul\":2168:2186   */\n  0xffffffffffffffff\n    /* \"#utility.yul\":2160:2166   */\n  dup3\n    /* \"#utility.yul\":2157:2187   */\n  gt\n    /* \"#utility.yul\":2154:2210   */\n  iszero\n  tag_61\n  jumpi\n    /* \"#utility.yul\":2190:2208   */\n  tag_62\n  tag_63\n  jump\t// in\ntag_62:\n    /* \"#utility.yul\":2154:2210   */\ntag_61:\n    /* \"#utility.yul\":2228:2257   */\n  tag_64\n    /* \"#utility.yul\":2250:2256   */\n  dup3\n    /* \"#utility.yul\":2228:2257   */\n  tag_65\n  jump\t// in\ntag_64:\n    /* \"#utility.yul\":2220:2257   */\n  swap1\n  pop\n    /* \"#utility.yul\":2312:2316   */\n  0x20\n    /* \"#utility.yul\":2306:2310   */\n  dup2\n    /* \"#utility.yul\":2302:2317   */\n  add\n    /* \"#utility.yul\":2294:2317   */\n  swap1\n  pop\n    /* \"#utility.yul\":2016:2324   */\n  swap2\n  swap1\n  pop\n  jump\t// out\n    /* \"#utility.yul\":2330:2635   */\ntag_7:\n    /* \"#utility.yul\":2370:2373   */\n  0x00\n    /* \"#utility.yul\":2389:2409   */\n  tag_67\n    /* \"#utility.yul\":2407:2408   */\n  dup3\n    /* \"#utility.yul\":2389:2409   */\n  tag_68\n  jump\t// in\ntag_67:\n    /* \"#utility.yul\":2384:2409   */\n  swap2\n  pop\n    /* \"#utility.yul\":2423:2443   */\n  tag_69\n    /* \"#utility.yul\":2441:2442   */\n  dup4\n    /* \"#utility.yul\":2423:2443   */\n  tag_68\n  jump\t// in\ntag_69:\n    /* \"#utility.yul\":2418:2443   */\n  swap3\n  pop\n    /* \"#utility.yul\":2577:2578   */\n  dup3\n    /* \"#utility.yul\":2509:2575   */\n  0xffffffffffffffffffffffffffffffffffffffffffffffffffffffffffffffff\n    /* \"#utility.yul\":2505:2579   */\n  sub\n    /* \"#utility.yul\":2502:2503   */\n  dup3\n    /* \"#utility.yul\":2499:2580   */\n  gt\n    /* \"#utility.yul\":2496:2603   */\n  iszero\n  tag_70\n  jumpi\n    /* \"#utility.yul\":2583:2601   */\n  tag_71\n  tag_72\n  jump\t// in\ntag_71:\n    /* \"#utility.yul\":2496:2603   */\ntag_70:\n    /* \"#utility.yul\":2627:2628   */\n  dup3\n    /* \"#utility.yul\":2624:2625   */\n  dup3\n    /* \"#utility.yul\":2620:2629   */\n  add\n    /* \"#utility.yul\":2613:2629   */\n  swap1\n  pop\n    /* \"#utility.yul\":2330:2635   */\n  swap3\n  swap2\n  pop\n  pop\n  jump\t// out\n    /* \"#utility.yul\":2641:2718   */\ntag_68:\n    /* \"#utility.yul\":2678:2685   */\n  0x00\n    /* \"#utility.yul\":2707:2712   */\n  dup2\n    /* \"#utility.yul\":2696:2712   */\n  swap1\n  pop\n    /* \"#utility.yul\":2641:2718   */\n  swap2\n  swap1\n  pop\n  jump\t// out\n    /* \"#utility.yul\":2724:3031   */\ntag_33:\n    /* \"#utility.yul\":2792:2793   */\n  0x00\n    /* \"#utility.yul\":2802:2915   */\ntag_75:\n    /* \"#utility.yul\":2816:2822   */\n  dup4\n    /* \"#utility.yul\":2813:2814   */\n  dup2\n    /* \"#utility.yul\":2810:2823   */\n  lt\n    /* \"#utility.yul\":2802:2915   */\n  iszero\n  tag_77\n  jumpi\n    /* \"#utility.yul\":2901:2902   */\n  dup1\n    /* \"#utility.yul\":2896:2899   */\n  dup3\n    /* \"#utility.yul\":2892:2903   */\n  add\n    /* \"#utility.yul\":2886:2904   */\n  mload\n    /* \"#utility.yul\":2882:2883   */\n  dup2\n    /* \"#utility.yul\":2877:2880   */\n  dup5\n    /* \"#utility.yul\":2873:2884   */\n  add\n    /* \"#utility.yul\":2866:2905   */\n  mstore\n    /* \"#utility.yul\":2838:2840   */\n  0x20\n    /* \"#utility.yul\":2835:2836   */\n  dup2\n    /* \"#utility.yul\":2831:2841   */\n  add\n    /* \"#utility.yul\":2826:2841   */\n  swap1\n  pop\n    /* \"#utility.yul\":2802:2915   */\n  jump(tag_75)\ntag_77:\n    /* \"#utility.yul\":2933:2939   */\n  dup4\n    /* \"#utility.yul\":2930:2931   */\n  dup2\n    /* \"#utility.yul\":2927:2940   */\n  gt\n    /* \"#utility.yul\":2924:3025   */\n  iszero\n  tag_78\n  jumpi\n    /* \"#utility.yul\":3013:3014   */\n  0x00\n    /* \"#utility.yul\":3004:3010   */\n  dup5\n    /* \"#utility.yul\":2999:3002   */\n  dup5\n    /* \"#utility.yul\":2995:3011   */\n  add\n    /* \"#utility.yul\":2988:3015   */\n  mstore\n    /* \"#utility.yul\":2924:3025   */\ntag_78:\n    /* \"#utility.yul\":2773:3031   */\n  pop\n    /* \"#utility.yul\":2724:3031   */\n  pop\n  pop\n  pop\n  jump\t// out\n    /* \"#utility.yul\":3037:3357   */\ntag_12:\n    /* \"#utility.yul\":3081:3087   */\n  0x00\n    /* \"#utility.yul\":3118:3119   */\n  0x02\n    /* \"#utility.yul\":3112:3116   */\n  dup3\n    /* \"#utility.yul\":3108:3120   */\n  div\n    /* \"#utility.yul\":3098:3120   */\n  swap1\n  pop\n    /* \"#utility.yul\":3165:3166   */\n  0x01\n    /* \"#utility.yul\":3159:3163   */\n  dup3\n    /* \"#utility.yul\":3155:3167   */\n  and\n    /* \"#utility.yul\":3186:3204   */\n  dup1\n    /* \"#utility.yul\":3176:3257   */\n  tag_80\n  jumpi\n    /* \"#utility.yul\":3242:3246   */\n  0x7f\n    /* \"#utility.yul\":3234:3240   */\n  dup3\n    /* \"#utility.yul\":3230:3247   */\n  and\n    /* \"#utility.yul\":3220:3247   */\n  swap2\n  pop\n    /* \"#utility.yul\":3176:3257   */\ntag_80:\n    /* \"#utility.yul\":3304:3306   */\n  0x20\n    /* \"#utility.yul\":3296:3302   */\n  dup3\n    /* \"#utility.yul\":3293:3307   */\n  lt\n    /* \"#utility.yul\":3273:3291   */\n  dup2\n    /* \"#utility.yul\":3270:3308   */\n  eq\n    /* \"#utility.yul\":3267:3351   */\n  iszero\n  tag_81\n  jumpi\n    /* \"#utility.yul\":3323:3341   */\n  tag_82\n  tag_83\n  jump\t// in\ntag_82:\n    /* \"#utility.yul\":3267:3351   */\ntag_81:\n    /* \"#utility.yul\":3088:3357   */\n  pop\n    /* \"#utility.yul\":3037:3357   */\n  swap2\n  swap1\n  pop\n  jump\t// out\n    /* \"#utility.yul\":3363:3644   */\ntag_58:\n    /* \"#utility.yul\":3446:3473   */\n  tag_85\n    /* \"#utility.yul\":3468:3472   */\n  dup3\n    /* \"#utility.yul\":3446:3473   */\n  tag_65\n  jump\t// in\ntag_85:\n    /* \"#utility.yul\":3438:3444   */\n  dup2\n    /* \"#utility.yul\":3434:3474   */\n  add\n    /* \"#utility.yul\":3576:3582   */\n  dup2\n    /* \"#utility.yul\":3564:3574   */\n  dup2\n    /* \"#utility.yul\":3561:3583   */\n  lt\n    /* \"#utility.yul\":3540:3558   */\n  0xffffffffffffffff\n    /* \"#utility.yul\":3528:3538   */\n  dup3\n    /* \"#utility.yul\":3525:3559   */\n  gt\n    /* \"#utility.yul\":3522:3584   */\n  or\n    /* \"#utility.yul\":3519:3607   */\n  iszero\n  tag_86\n  jumpi\n    /* \"#utility.yul\":3587:3605   */\n  tag_87\n  tag_63\n  jump\t// in\ntag_87:\n    /* \"#utility.yul\":3519:3607   */\ntag_86:\n    /* \"#utility.yul\":3627:3637   */\n  dup1\n    /* \"#utility.yul\":3623:3625   */\n  0x40\n    /* \"#utility.yul\":3616:3638   */\n  mstore\n    /* \"#utility.yul\":3406:3644   */\n  pop\n    /* \"#utility.yul\":3363:3644   */\n  pop\n  pop\n  jump\t// out\n    /* \"#utility.yul\":3650:3830   */\ntag_72:\n    /* \"#utility.yul\":3698:3775   */\n  0x4e487b7100000000000000000000000000000000000000000000000000000000\n    /* \"#utility.yul\":3695:3696   */\n  0x00\n    /* \"#utility.yul\":3688:3776   */\n  mstore\n    /* \"#utility.yul\":3795:3799   */\n  0x11\n    /* \"#utility.yul\":3792:3793   */\n  0x04\n    /* \"#utility.yul\":3785:3800   */\n  mstore\n    /* \"#utility.yul\":3819:3823   */\n  0x24\n    /* \"#utility.yul\":3816:3817   */\n  0x00\n    /* \"#utility.yul\":3809:3824   */\n  revert\n    /* \"#utility.yul\":3836:4016   */\ntag_83:\n    /* \"#utility.yul\":3884:3961   */\n  0x4e487b7100000000000000000000000000000000000000000000000000000000\n    /* \"#utility.yul\":3881:3882   */\n  0x00\n    /* \"#utility.yul\":3874:3962   */\n  mstore\n    /* \"#utility.yul\":3981:3985   */\n  0x22\n    /* \"#utility.yul\":3978:3979   */\n  0x04\n    /* \"#utility.yul\":3971:3986   */\n  mstore\n    /* \"#utility.yul\":4005:4009   */\n  0x24\n    /* \"#utility.yul\":4002:4003   */\n  0x00\n    /* \"#utility.yul\":3995:4010   */\n  revert\n    /* \"#utility.yul\":4022:4202   */\ntag_63:\n    /* \"#utility.yul\":4070:4147   */\n  0x4e487b7100000000000000000000000000000000000000000000000000000000\n    /* \"#utility.yul\":4067:4068   */\n  0x00\n    /* \"#utility.yul\":4060:4148   */\n  mstore\n    /* \"#utility.yul\":4167:4171   */\n  0x41\n    /* \"#utility.yul\":4164:4165   */\n  0x04\n    /* \"#utility.yul\":4157:4172   */\n  mstore\n    /* \"#utility.yul\":4191:4195   */\n  0x24\n    /* \"#utility.yul\":4188:4189   */\n  0x00\n    /* \"#utility.yul\":4181:4196   */\n  revert\n    /* \"#utility.yul\":4208:4325   */\ntag_38:\n    /* \"#utility.yul\":4317:4318   */\n  0x00\n    /* \"#utility.yul\":4314:4315   */\n  dup1\n    /* \"#utility.yul\":4307:4319   */\n  revert\n    /* \"#utility.yul\":4331:4448   */\ntag_31:\n    /* \"#utility.yul\":4440:4441   */\n  0x00\n    /* \"#utility.yul\":4437:4438   */\n  dup1\n    /* \"#utility.yul\":4430:4442   */\n  revert\n    /* \"#utility.yul\":4454:4571   */\ntag_50:\n    /* \"#utility.yul\":4563:4564   */\n  0x00\n    /* \"#utility.yul\":4560:4561   */\n  dup1\n    /* \"#utility.yul\":4553:4565   */\n  revert\n    /* \"#utility.yul\":4577:4694   */\ntag_47:\n    /* \"#utility.yul\":4686:4687   */\n  0x00\n    /* \"#utility.yul\":4683:4684   */\n  dup1\n    /* \"#utility.yul\":4676:4688   */\n  revert\n    /* \"#utility.yul\":4700:4802   */\ntag_65:\n    /* \"#utility.yul\":4741:4747   */\n  0x00\n    /* \"#utility.yul\":4792:4794   */\n  0x1f\n    /* \"#utility.yul\":4788:4795   */\n  not\n    /* \"#utility.yul\":4783:4785   */\n  0x1f\n    /* \"#utility.yul\":4776:4781   */\n  dup4\n    /* \"#utility.yul\":4772:4786   */\n  add\n    /* \"#utility.yul\":4768:4796   */\n  and\n    /* \"#utility.yul\":4758:4796   */\n  swap1\n  pop\n    /* \"#utility.yul\":4700:4802   */\n  swap2\n  swap1\n  pop\n  jump\t// out\n    /* \"#utility.yul\":4808:4930   */\ntag_43:\n    /* \"#utility.yul\":4881:4905   */\n  tag_97\n    /* \"#utility.yul\":4899:4904   */\n  dup2\n    /* \"#utility.yul\":4881:4905   */\n  tag_68\n  jump\t// in\ntag_97:\n    /* \"#utility.yul\":4874:4879   */\n  dup2\n    /* \"#utility.yul\":4871:4906   */\n  eq\n    /* \"#utility.yul\":4861:4924   */\n  tag_98\n  jumpi\n    /* \"#utility.yul\":4920:4921   */\n  0x00\n    /* \"#utility.yul\":4917:4918   */\n  dup1\n    /* \"#utility.yul\":4910:4922   */\n  revert\n    /* \"#utility.yul\":4861:4924   */\ntag_98:\n    /* \"#utility.yul\":4808:4930   */\n  pop\n  jump\t// out\n    /* \"contracts/BusinessConsensus.sol\":33:5208  contract BusinessConsensus{\r... */\ntag_10:\n  dataSize(sub_0)\n  dup1\n  dataOffset(sub_0)\n  0x00\n  codecopy\n  0x00\n  return\nstop\n\nsub_0: assembly {\n        /* \"contracts/BusinessConsensus.sol\":33:5208  contract BusinessConsensus{\r... */\n      mstore(0x40, 0x80)\n      callvalue\n      dup1\n      iszero\n      tag_1\n      jumpi\n      0x00\n      dup1\n      revert\n    tag_1:\n      pop\n      jumpi(tag_2, lt(calldatasize, 0x04))\n      shr(0xe0, calldataload(0x00))\n      dup1\n      0x82316745\n      gt\n      tag_19\n      jumpi\n      dup1\n      0xd77aa749\n      gt\n      tag_20\n      jumpi\n      dup1\n      0xd77aa749\n      eq\n      tag_15\n      jumpi\n      dup1\n      0xda58c7d9\n      eq\n      tag_16\n      jumpi\n      dup1\n      0xdd944b67\n      eq\n      tag_17\n      jumpi\n      dup1\n      0xf6b4dfb4\n      eq\n      tag_18\n      jumpi\n      jump(tag_2)\n    tag_20:\n      dup1\n      0x82316745\n      eq\n      tag_11\n      jumpi\n      dup1\n      0x95b02dfa\n      eq\n      tag_12\n      jumpi\n      dup1\n      0x9aa4bbdd\n      eq\n      tag_13\n      jumpi\n      dup1\n      0xa5ea11da\n      eq\n      tag_14\n      jumpi\n      jump(tag_2)\n    tag_19:\n      dup1\n      0x5361a0ea\n      gt\n      tag_21\n      jumpi\n      dup1\n      0x5361a0ea\n      eq\n      tag_7\n      jumpi\n      dup1\n      0x5c39fcc1\n      eq\n      tag_8\n      jumpi\n      dup1\n      0x7403c5e5\n      eq\n      tag_9\n      jumpi\n      dup1\n      0x753ec103\n      eq\n      tag_10\n      jumpi\n      jump(tag_2)\n    tag_21:\n      dup1\n      0x0cb6aaf1\n      eq\n      tag_3\n      jumpi\n      dup1\n      0x15fe6f1b\n      eq\n      tag_4\n      jumpi\n      dup1\n      0x19eb4a90\n      eq\n      tag_5\n      jumpi\n      dup1\n      0x323082d7\n      eq\n      tag_6\n      jumpi\n    tag_2:\n      0x00\n      dup1\n      revert\n        /* \"contracts/BusinessConsensus.sol\":729:750  address[] public keys */\n    tag_3:\n      tag_22\n      0x04\n      dup1\n      calldatasize\n      sub\n      dup2\n      add\n      swap1\n      tag_23\n      swap2\n      swap1\n      tag_24\n      jump\t// in\n    tag_23:\n      tag_25\n      jump\t// in\n    tag_22:\n      mload(0x40)\n      tag_26\n      swap2\n      swap1\n      tag_27\n      jump\t// in\n    tag_26:\n      mload(0x40)\n      dup1\n      swap2\n      sub\n      swap1\n      return\n        /* \"contracts/BusinessConsensus.sol\":2413:3057  function RegisterVoter(address voter) external {\r... */\n    tag_4:\n      tag_28\n      0x04\n      dup1\n      calldatasize\n      sub\n      dup2\n      add\n      swap1\n      tag_29\n      swap2\n      swap1\n      tag_30\n      jump\t// in\n    tag_29:\n      tag_31\n      jump\t// in\n    tag_28:\n      stop\n        /* \"contracts/BusinessConsensus.sol\":1697:1797  function getValues() public view returns (string memory){\r... */\n    tag_5:\n      tag_32\n      tag_33\n      jump\t// in\n    tag_32:\n      mload(0x40)\n      tag_34\n      swap2\n      swap1\n      tag_35\n      jump\t// in\n    tag_34:\n      mload(0x40)\n      dup1\n      swap2\n      sub\n      swap1\n      return\n        /* \"contracts/BusinessConsensus.sol\":3065:4162  function Vote(string memory response) external {\r... */\n    tag_6:\n      tag_36\n      0x04\n      dup1\n      calldatasize\n      sub\n      dup2\n      add\n      swap1\n      tag_37\n      swap2\n      swap1\n      tag_38\n      jump\t// in\n    tag_37:\n      tag_39\n      jump\t// in\n    tag_36:\n      stop\n        /* \"contracts/BusinessConsensus.sol\":2093:2307  function getParameters2(address test_address) external view returns (bool, bool, address){\r... */\n    tag_7:\n      tag_40\n      0x04\n      dup1\n      calldatasize\n      sub\n      dup2\n      add\n      swap1\n      tag_41\n      swap2\n      swap1\n      tag_30\n      jump\t// in\n    tag_41:\n      tag_42\n      jump\t// in\n    tag_40:\n      mload(0x40)\n      tag_43\n      swap4\n      swap3\n      swap2\n      swap1\n      tag_44\n      jump\t// in\n    tag_43:\n      mload(0x40)\n      dup1\n      swap2\n      sub\n      swap1\n      return\n        /* \"contracts/BusinessConsensus.sol\":696:720  address public initiator */\n    tag_8:\n      tag_45\n      tag_46\n      jump\t// in\n    tag_45:\n      mload(0x40)\n      tag_47\n      swap2\n      swap1\n      tag_27\n      jump\t// in\n    tag_47:\n      mload(0x40)\n      dup1\n      swap2\n      sub\n      swap1\n      return\n        /* \"contracts/BusinessConsensus.sol\":846:873  uint256 public numApprovals */\n    tag_9:\n      tag_48\n      tag_49\n      jump\t// in\n    tag_48:\n      mload(0x40)\n      tag_50\n      swap2\n      swap1\n      tag_51\n      jump\t// in\n    tag_50:\n      mload(0x40)\n      dup1\n      swap2\n      sub\n      swap1\n      return\n        /* \"contracts/BusinessConsensus.sol\":1106:1130  Proposal public proposal */\n    tag_10:\n      tag_52\n      tag_53\n      jump\t// in\n    tag_52:\n      mload(0x40)\n      tag_54\n      swap3\n      swap2\n      swap1\n      tag_55\n      jump\t// in\n    tag_54:\n      mload(0x40)\n      dup1\n      swap2\n      sub\n      swap1\n      return\n        /* \"contracts/BusinessConsensus.sol\":4961:5203  function retrieve_bundle() external view returns (bytes32, Proposal memory, Voter[] memory){\r... */\n    tag_11:\n      tag_56\n      tag_57\n      jump\t// in\n    tag_56:\n      mload(0x40)\n      tag_58\n      swap4\n      swap3\n      swap2\n      swap1\n      tag_59\n      jump\t// in\n    tag_58:\n      mload(0x40)\n      dup1\n      swap2\n      sub\n      swap1\n      return\n        /* \"contracts/BusinessConsensus.sol\":4226:4953  function Consensus() external {\r... */\n    tag_12:\n      tag_60\n      tag_61\n      jump\t// in\n    tag_60:\n      stop\n        /* \"contracts/BusinessConsensus.sol\":986:1029  mapping(address => Voter) public voters_map */\n    tag_13:\n      tag_62\n      0x04\n      dup1\n      calldatasize\n      sub\n      dup2\n      add\n      swap1\n      tag_63\n      swap2\n      swap1\n      tag_30\n      jump\t// in\n    tag_63:\n      tag_64\n      jump\t// in\n    tag_62:\n      mload(0x40)\n      tag_65\n      swap4\n      swap3\n      swap2\n      swap1\n      tag_44\n      jump\t// in\n    tag_65:\n      mload(0x40)\n      dup1\n      swap2\n      sub\n      swap1\n      return\n        /* \"contracts/BusinessConsensus.sol\":1897:2087  function getParameters() external view returns (string memory, uint , address ,uint ,uint){\r... */\n    tag_14:\n      tag_66\n      tag_67\n      jump\t// in\n    tag_66:\n      mload(0x40)\n      tag_68\n      swap6\n      swap5\n      swap4\n      swap3\n      swap2\n      swap1\n      tag_69\n      jump\t// in\n    tag_68:\n      mload(0x40)\n      dup1\n      swap2\n      sub\n      swap1\n      return\n        /* \"contracts/BusinessConsensus.sol\":805:839  uint256 public BusinessRequirement */\n    tag_15:\n      tag_70\n      tag_71\n      jump\t// in\n    tag_70:\n      mload(0x40)\n      tag_72\n      swap2\n      swap1\n      tag_51\n      jump\t// in\n    tag_72:\n      mload(0x40)\n      dup1\n      swap2\n      sub\n      swap1\n      return\n        /* \"contracts/BusinessConsensus.sol\":956:977  Voter[] public voters */\n    tag_16:\n      tag_73\n      0x04\n      dup1\n      calldatasize\n      sub\n      dup2\n      add\n      swap1\n      tag_74\n      swap2\n      swap1\n      tag_24\n      jump\t// in\n    tag_74:\n      tag_75\n      jump\t// in\n    tag_73:\n      mload(0x40)\n      tag_76\n      swap4\n      swap3\n      swap2\n      swap1\n      tag_44\n      jump\t// in\n    tag_76:\n      mload(0x40)\n      dup1\n      swap2\n      sub\n      swap1\n      return\n        /* \"contracts/BusinessConsensus.sol\":1803:1891  function getNumCompiled() public view returns (bool){\r... */\n    tag_17:\n      tag_77\n      tag_78\n      jump\t// in\n    tag_77:\n      mload(0x40)\n      tag_79\n      swap2\n      swap1\n      tag_80\n      jump\t// in\n    tag_79:\n      mload(0x40)\n      dup1\n      swap2\n      sub\n      swap1\n      return\n        /* \"contracts/BusinessConsensus.sol\":596:626  address public contractAddress */\n    tag_18:\n      tag_81\n      tag_82\n      jump\t// in\n    tag_81:\n      mload(0x40)\n      tag_83\n      swap2\n      swap1\n      tag_27\n      jump\t// in\n    tag_83:\n      mload(0x40)\n      dup1\n      swap2\n      sub\n      swap1\n      return\n        /* \"contracts/BusinessConsensus.sol\":729:750  address[] public keys */\n    tag_25:\n      0x02\n      dup2\n      dup2\n      sload\n      dup2\n      lt\n      tag_84\n      jumpi\n      0x00\n      dup1\n      revert\n    tag_84:\n      swap1\n      0x00\n      mstore\n      keccak256(0x00, 0x20)\n      add\n      0x00\n      swap2\n      pop\n      sload\n      swap1\n      0x0100\n      exp\n      swap1\n      div\n      0xffffffffffffffffffffffffffffffffffffffff\n      and\n      dup2\n      jump\t// out\n        /* \"contracts/BusinessConsensus.sol\":2413:3057  function RegisterVoter(address voter) external {\r... */\n    tag_31:\n        /* \"contracts/BusinessConsensus.sol\":2581:2590  initiator */\n      0x01\n      0x00\n      swap1\n      sload\n      swap1\n      0x0100\n      exp\n      swap1\n      div\n      0xffffffffffffffffffffffffffffffffffffffff\n      and\n        /* \"contracts/BusinessConsensus.sol\":2567:2590  msg.sender == initiator */\n      0xffffffffffffffffffffffffffffffffffffffff\n      and\n        /* \"contracts/BusinessConsensus.sol\":2567:2577  msg.sender */\n      caller\n        /* \"contracts/BusinessConsensus.sol\":2567:2590  msg.sender == initiator */\n      0xffffffffffffffffffffffffffffffffffffffff\n      and\n      eq\n        /* \"contracts/BusinessConsensus.sol\":2545:2658  require(\r... */\n      tag_87\n      jumpi\n      mload(0x40)\n      0x08c379a000000000000000000000000000000000000000000000000000000000\n      dup2\n      mstore\n      0x04\n      add\n      tag_88\n      swap1\n      tag_89\n      jump\t// in\n    tag_88:\n      mload(0x40)\n      dup1\n      swap2\n      sub\n      swap1\n      revert\n    tag_87:\n        /* \"contracts/BusinessConsensus.sol\":2686:2695  initiator */\n      0x01\n      0x00\n      swap1\n      sload\n      swap1\n      0x0100\n      exp\n      swap1\n      div\n      0xffffffffffffffffffffffffffffffffffffffff\n      and\n        /* \"contracts/BusinessConsensus.sol\":2677:2695  voter != initiator */\n      0xffffffffffffffffffffffffffffffffffffffff\n      and\n        /* \"contracts/BusinessConsensus.sol\":2677:2682  voter */\n      dup2\n        /* \"contracts/BusinessConsensus.sol\":2677:2695  voter != initiator */\n      0xffffffffffffffffffffffffffffffffffffffff\n      and\n      eq\n      iszero\n        /* \"contracts/BusinessConsensus.sol\":2669:2721  require(voter != initiator, \"Initiator can't vote!\") */\n      tag_90\n      jumpi\n      mload(0x40)\n      0x08c379a000000000000000000000000000000000000000000000000000000000\n      dup2\n      mstore\n      0x04\n      add\n      tag_91\n      swap1\n      tag_92\n      jump\t// in\n    tag_91:\n      mload(0x40)\n      dup1\n      swap2\n      sub\n      swap1\n      revert\n    tag_90:\n        /* \"contracts/BusinessConsensus.sol\":2781:2782  0 */\n      0x00\n        /* \"contracts/BusinessConsensus.sol\":2742:2783  voters_map[voter].recipient == address(0) */\n      0xffffffffffffffffffffffffffffffffffffffff\n      and\n        /* \"contracts/BusinessConsensus.sol\":2742:2752  voters_map */\n      0x09\n        /* \"contracts/BusinessConsensus.sol\":2742:2759  voters_map[voter] */\n      0x00\n        /* \"contracts/BusinessConsensus.sol\":2753:2758  voter */\n      dup4\n        /* \"contracts/BusinessConsensus.sol\":2742:2759  voters_map[voter] */\n      0xffffffffffffffffffffffffffffffffffffffff\n      and\n      0xffffffffffffffffffffffffffffffffffffffff\n      and\n      dup2\n      mstore\n      0x20\n      add\n      swap1\n      dup2\n      mstore\n      0x20\n      add\n      0x00\n      keccak256\n        /* \"contracts/BusinessConsensus.sol\":2742:2769  voters_map[voter].recipient */\n      0x00\n      add\n      0x02\n      swap1\n      sload\n      swap1\n      0x0100\n      exp\n      swap1\n      div\n      0xffffffffffffffffffffffffffffffffffffffff\n      and\n        /* \"contracts/BusinessConsensus.sol\":2742:2783  voters_map[voter].recipient == address(0) */\n      0xffffffffffffffffffffffffffffffffffffffff\n      and\n      eq\n        /* \"contracts/BusinessConsensus.sol\":2734:2819  require(voters_map[voter].recipient == address(0), \"Recipient is already registered\") */\n      tag_93\n      jumpi\n      mload(0x40)\n      0x08c379a000000000000000000000000000000000000000000000000000000000\n      dup2\n      mstore\n      0x04\n      add\n      tag_94\n      swap1\n      tag_95\n      jump\t// in\n    tag_94:\n      mload(0x40)\n      dup1\n      swap2\n      sub\n      swap1\n      revert\n    tag_93:\n        /* \"contracts/BusinessConsensus.sol\":2858:2868  expiryDate */\n      sload(0x03)\n        /* \"contracts/BusinessConsensus.sol\":2840:2855  block.timestamp */\n      timestamp\n        /* \"contracts/BusinessConsensus.sol\":2840:2868  block.timestamp < expiryDate */\n      lt\n        /* \"contracts/BusinessConsensus.sol\":2832:2909  require(block.timestamp < expiryDate, \"Proposal has reached its expiry date\") */\n      tag_96\n      jumpi\n      mload(0x40)\n      0x08c379a000000000000000000000000000000000000000000000000000000000\n      dup2\n      mstore\n      0x04\n      add\n      tag_97\n      swap1\n      tag_98\n      jump\t// in\n    tag_97:\n      mload(0x40)\n      dup1\n      swap2\n      sub\n      swap1\n      revert\n    tag_96:\n        /* \"contracts/BusinessConsensus.sol\":2922:2936  Voter memory x */\n      0x00\n        /* \"contracts/BusinessConsensus.sol\":2939:2990  Voter({voted: false,recipient: voter, vote: false}) */\n      mload(0x40)\n      dup1\n      0x60\n      add\n      0x40\n      mstore\n      dup1\n        /* \"contracts/BusinessConsensus.sol\":2953:2958  false */\n      0x00\n        /* \"contracts/BusinessConsensus.sol\":2939:2990  Voter({voted: false,recipient: voter, vote: false}) */\n      iszero\n      iszero\n      dup2\n      mstore\n      0x20\n      add\n        /* \"contracts/BusinessConsensus.sol\":2983:2988  false */\n      0x00\n        /* \"contracts/BusinessConsensus.sol\":2939:2990  Voter({voted: false,recipient: voter, vote: false}) */\n      iszero\n      iszero\n      dup2\n      mstore\n      0x20\n      add\n        /* \"contracts/BusinessConsensus.sol\":2970:2975  voter */\n      dup4\n        /* \"contracts/BusinessConsensus.sol\":2939:2990  Voter({voted: false,recipient: voter, vote: false}) */\n      0xffffffffffffffffffffffffffffffffffffffff\n      and\n      dup2\n      mstore\n      pop\n        /* \"contracts/BusinessConsensus.sol\":2922:2990  Voter memory x = Voter({voted: false,recipient: voter, vote: false}) */\n      swap1\n      pop\n        /* \"contracts/BusinessConsensus.sol\":3021:3022  x */\n      dup1\n        /* \"contracts/BusinessConsensus.sol\":3001:3011  voters_map */\n      0x09\n        /* \"contracts/BusinessConsensus.sol\":3001:3018  voters_map[voter] */\n      0x00\n        /* \"contracts/BusinessConsensus.sol\":3012:3017  voter */\n      dup5\n        /* \"contracts/BusinessConsensus.sol\":3001:3018  voters_map[voter] */\n      0xffffffffffffffffffffffffffffffffffffffff\n      and\n      0xffffffffffffffffffffffffffffffffffffffff\n      and\n      dup2\n      mstore\n      0x20\n      add\n      swap1\n      dup2\n      mstore\n      0x20\n      add\n      0x00\n      keccak256\n        /* \"contracts/BusinessConsensus.sol\":3001:3022  voters_map[voter] = x */\n      0x00\n      dup3\n      add\n      mload\n      dup2\n      0x00\n      add\n      exp(0x0100, 0x00)\n      dup2\n      sload\n      dup2\n      0xff\n      mul\n      not\n      and\n      swap1\n      dup4\n      iszero\n      iszero\n      mul\n      or\n      swap1\n      sstore\n      pop\n      0x20\n      dup3\n      add\n      mload\n      dup2\n      0x00\n      add\n      exp(0x0100, 0x01)\n      dup2\n      sload\n      dup2\n      0xff\n      mul\n      not\n      and\n      swap1\n      dup4\n      iszero\n      iszero\n      mul\n      or\n      swap1\n      sstore\n      pop\n      0x40\n      dup3\n      add\n      mload\n      dup2\n      0x00\n      add\n      exp(0x0100, 0x02)\n      dup2\n      sload\n      dup2\n      0xffffffffffffffffffffffffffffffffffffffff\n      mul\n      not\n      and\n      swap1\n      dup4\n      0xffffffffffffffffffffffffffffffffffffffff\n      and\n      mul\n      or\n      swap1\n      sstore\n      pop\n      swap1\n      pop\n      pop\n        /* \"contracts/BusinessConsensus.sol\":3033:3037  keys */\n      0x02\n        /* \"contracts/BusinessConsensus.sol\":3043:3048  voter */\n      dup3\n        /* \"contracts/BusinessConsensus.sol\":3033:3049  keys.push(voter) */\n      swap1\n      dup1\n      0x01\n      dup2\n      sload\n      add\n      dup1\n      dup3\n      sstore\n      dup1\n      swap2\n      pop\n      pop\n      0x01\n      swap1\n      sub\n      swap1\n      0x00\n      mstore\n      keccak256(0x00, 0x20)\n      add\n      0x00\n      swap1\n      swap2\n      swap1\n      swap2\n      swap1\n      swap2\n      0x0100\n      exp\n      dup2\n      sload\n      dup2\n      0xffffffffffffffffffffffffffffffffffffffff\n      mul\n      not\n      and\n      swap1\n      dup4\n      0xffffffffffffffffffffffffffffffffffffffff\n      and\n      mul\n      or\n      swap1\n      sstore\n      pop\n        /* \"contracts/BusinessConsensus.sol\":2460:3057  {\r... */\n      pop\n        /* \"contracts/BusinessConsensus.sol\":2413:3057  function RegisterVoter(address voter) external {\r... */\n      pop\n      jump\t// out\n        /* \"contracts/BusinessConsensus.sol\":1697:1797  function getValues() public view returns (string memory){\r... */\n    tag_33:\n        /* \"contracts/BusinessConsensus.sol\":1739:1752  string memory */\n      0x60\n        /* \"contracts/BusinessConsensus.sol\":1771:1779  proposal */\n      0x0a\n        /* \"contracts/BusinessConsensus.sol\":1771:1789  proposal.messageID */\n      0x01\n      add\n        /* \"contracts/BusinessConsensus.sol\":1764:1789  return proposal.messageID */\n      dup1\n      sload\n      tag_101\n      swap1\n      tag_102\n      jump\t// in\n    tag_101:\n      dup1\n      0x1f\n      add\n      0x20\n      dup1\n      swap2\n      div\n      mul\n      0x20\n      add\n      mload(0x40)\n      swap1\n      dup2\n      add\n      0x40\n      mstore\n      dup1\n      swap3\n      swap2\n      swap1\n      dup2\n      dup2\n      mstore\n      0x20\n      add\n      dup3\n      dup1\n      sload\n      tag_103\n      swap1\n      tag_102\n      jump\t// in\n    tag_103:\n      dup1\n      iszero\n      tag_104\n      jumpi\n      dup1\n      0x1f\n      lt\n      tag_105\n      jumpi\n      0x0100\n      dup1\n      dup4\n      sload\n      div\n      mul\n      dup4\n      mstore\n      swap2\n      0x20\n      add\n      swap2\n      jump(tag_104)\n    tag_105:\n      dup3\n      add\n      swap2\n      swap1\n      0x00\n      mstore\n      keccak256(0x00, 0x20)\n      swap1\n    tag_106:\n      dup2\n      sload\n      dup2\n      mstore\n      swap1\n      0x01\n      add\n      swap1\n      0x20\n      add\n      dup1\n      dup4\n      gt\n      tag_106\n      jumpi\n      dup3\n      swap1\n      sub\n      0x1f\n      and\n      dup3\n      add\n      swap2\n    tag_104:\n      pop\n      pop\n      pop\n      pop\n      pop\n      swap1\n      pop\n        /* \"contracts/BusinessConsensus.sol\":1697:1797  function getValues() public view returns (string memory){\r... */\n      swap1\n      jump\t// out\n        /* \"contracts/BusinessConsensus.sol\":3065:4162  function Vote(string memory response) external {\r... */\n    tag_39:\n        /* \"contracts/BusinessConsensus.sol\":3151:3161  expiryDate */\n      sload(0x03)\n        /* \"contracts/BusinessConsensus.sol\":3133:3148  block.timestamp */\n      timestamp\n        /* \"contracts/BusinessConsensus.sol\":3133:3161  block.timestamp < expiryDate */\n      lt\n        /* \"contracts/BusinessConsensus.sol\":3125:3184  require(block.timestamp < expiryDate, \"Voting has expired\") */\n      tag_108\n      jumpi\n      mload(0x40)\n      0x08c379a000000000000000000000000000000000000000000000000000000000\n      dup2\n      mstore\n      0x04\n      add\n      tag_109\n      swap1\n      tag_110\n      jump\t// in\n    tag_109:\n      mload(0x40)\n      dup1\n      swap2\n      sub\n      swap1\n      revert\n    tag_108:\n        /* \"contracts/BusinessConsensus.sol\":3247:3250  0x0 */\n      0x00\n        /* \"contracts/BusinessConsensus.sol\":3203:3251  voters_map[msg.sender].recipient != address(0x0) */\n      0xffffffffffffffffffffffffffffffffffffffff\n      and\n        /* \"contracts/BusinessConsensus.sol\":3203:3213  voters_map */\n      0x09\n        /* \"contracts/BusinessConsensus.sol\":3203:3225  voters_map[msg.sender] */\n      0x00\n        /* \"contracts/BusinessConsensus.sol\":3214:3224  msg.sender */\n      caller\n        /* \"contracts/BusinessConsensus.sol\":3203:3225  voters_map[msg.sender] */\n      0xffffffffffffffffffffffffffffffffffffffff\n      and\n      0xffffffffffffffffffffffffffffffffffffffff\n      and\n      dup2\n      mstore\n      0x20\n      add\n      swap1\n      dup2\n      mstore\n      0x20\n      add\n      0x00\n      keccak256\n        /* \"contracts/BusinessConsensus.sol\":3203:3235  voters_map[msg.sender].recipient */\n      0x00\n      add\n      0x02\n      swap1\n      sload\n      swap1\n      0x0100\n      exp\n      swap1\n      div\n      0xffffffffffffffffffffffffffffffffffffffff\n      and\n        /* \"contracts/BusinessConsensus.sol\":3203:3251  voters_map[msg.sender].recipient != address(0x0) */\n      0xffffffffffffffffffffffffffffffffffffffff\n      and\n      eq\n      iszero\n        /* \"contracts/BusinessConsensus.sol\":3195:3286  require(voters_map[msg.sender].recipient != address(0x0), \"You are not registered to vote\") */\n      tag_111\n      jumpi\n      mload(0x40)\n      0x08c379a000000000000000000000000000000000000000000000000000000000\n      dup2\n      mstore\n      0x04\n      add\n      tag_112\n      swap1\n      tag_113\n      jump\t// in\n    tag_112:\n      mload(0x40)\n      dup1\n      swap2\n      sub\n      swap1\n      revert\n    tag_111:\n        /* \"contracts/BusinessConsensus.sol\":3306:3316  voters_map */\n      0x09\n        /* \"contracts/BusinessConsensus.sol\":3306:3328  voters_map[msg.sender] */\n      0x00\n        /* \"contracts/BusinessConsensus.sol\":3317:3327  msg.sender */\n      caller\n        /* \"contracts/BusinessConsensus.sol\":3306:3328  voters_map[msg.sender] */\n      0xffffffffffffffffffffffffffffffffffffffff\n      and\n      0xffffffffffffffffffffffffffffffffffffffff\n      and\n      dup2\n      mstore\n      0x20\n      add\n      swap1\n      dup2\n      mstore\n      0x20\n      add\n      0x00\n      keccak256\n        /* \"contracts/BusinessConsensus.sol\":3306:3334  voters_map[msg.sender].voted */\n      0x00\n      add\n      0x00\n      swap1\n      sload\n      swap1\n      0x0100\n      exp\n      swap1\n      div\n      0xff\n      and\n        /* \"contracts/BusinessConsensus.sol\":3305:3334  !voters_map[msg.sender].voted */\n      iszero\n        /* \"contracts/BusinessConsensus.sol\":3297:3367  require(!voters_map[msg.sender].voted, \"You already sent a response.\") */\n      tag_114\n      jumpi\n      mload(0x40)\n      0x08c379a000000000000000000000000000000000000000000000000000000000\n      dup2\n      mstore\n      0x04\n      add\n      tag_115\n      swap1\n      tag_116\n      jump\t// in\n    tag_115:\n      mload(0x40)\n      dup1\n      swap2\n      sub\n      swap1\n      revert\n    tag_114:\n        /* \"contracts/BusinessConsensus.sol\":3423:3441  bytes(\"i approve\") */\n      mload(0x40)\n      dup1\n      0x40\n      add\n      0x40\n      mstore\n      dup1\n      0x09\n      dup2\n      mstore\n      0x20\n      add\n      0x6920617070726f76650000000000000000000000000000000000000000000000\n      dup2\n      mstore\n      pop\n        /* \"contracts/BusinessConsensus.sol\":3413:3442  keccak256(bytes(\"i approve\")) */\n      dup1\n      mload\n      swap1\n      0x20\n      add\n      keccak256\n        /* \"contracts/BusinessConsensus.sol\":3399:3407  response */\n      dup2\n        /* \"contracts/BusinessConsensus.sol\":3383:3409  keccak256(bytes(response)) */\n      dup1\n      mload\n      swap1\n      0x20\n      add\n      keccak256\n        /* \"contracts/BusinessConsensus.sol\":3383:3442  keccak256(bytes(response)) == keccak256(bytes(\"i approve\")) */\n      eq\n        /* \"contracts/BusinessConsensus.sol\":3380:4145  if(keccak256(bytes(response)) == keccak256(bytes(\"i approve\"))){\r... */\n      iszero\n      tag_117\n      jumpi\n        /* \"contracts/BusinessConsensus.sol\":3489:3493  true */\n      0x01\n        /* \"contracts/BusinessConsensus.sol\":3458:3468  voters_map */\n      0x09\n        /* \"contracts/BusinessConsensus.sol\":3458:3480  voters_map[msg.sender] */\n      0x00\n        /* \"contracts/BusinessConsensus.sol\":3469:3479  msg.sender */\n      caller\n        /* \"contracts/BusinessConsensus.sol\":3458:3480  voters_map[msg.sender] */\n      0xffffffffffffffffffffffffffffffffffffffff\n      and\n      0xffffffffffffffffffffffffffffffffffffffff\n      and\n      dup2\n      mstore\n      0x20\n      add\n      swap1\n      dup2\n      mstore\n      0x20\n      add\n      0x00\n      keccak256\n        /* \"contracts/BusinessConsensus.sol\":3458:3486  voters_map[msg.sender].voted */\n      0x00\n      add\n      0x00\n        /* \"contracts/BusinessConsensus.sol\":3458:3493  voters_map[msg.sender].voted = true */\n      0x0100\n      exp\n      dup2\n      sload\n      dup2\n      0xff\n      mul\n      not\n      and\n      swap1\n      dup4\n      iszero\n      iszero\n      mul\n      or\n      swap1\n      sstore\n      pop\n        /* \"contracts/BusinessConsensus.sol\":3538:3542  true */\n      0x01\n        /* \"contracts/BusinessConsensus.sol\":3508:3518  voters_map */\n      0x09\n        /* \"contracts/BusinessConsensus.sol\":3508:3530  voters_map[msg.sender] */\n      0x00\n        /* \"contracts/BusinessConsensus.sol\":3519:3529  msg.sender */\n      caller\n        /* \"contracts/BusinessConsensus.sol\":3508:3530  voters_map[msg.sender] */\n      0xffffffffffffffffffffffffffffffffffffffff\n      and\n      0xffffffffffffffffffffffffffffffffffffffff\n      and\n      dup2\n      mstore\n      0x20\n      add\n      swap1\n      dup2\n      mstore\n      0x20\n      add\n      0x00\n      keccak256\n        /* \"contracts/BusinessConsensus.sol\":3508:3535  voters_map[msg.sender].vote */\n      0x00\n      add\n      0x01\n        /* \"contracts/BusinessConsensus.sol\":3508:3542  voters_map[msg.sender].vote = true */\n      0x0100\n      exp\n      dup2\n      sload\n      dup2\n      0xff\n      mul\n      not\n      and\n      swap1\n      dup4\n      iszero\n      iszero\n      mul\n      or\n      swap1\n      sstore\n      pop\n        /* \"contracts/BusinessConsensus.sol\":3573:3574  1 */\n      0x01\n        /* \"contracts/BusinessConsensus.sol\":3557:3569  numApprovals */\n      0x05\n      0x00\n        /* \"contracts/BusinessConsensus.sol\":3557:3574  numApprovals += 1 */\n      dup3\n      dup3\n      sload\n      tag_118\n      swap2\n      swap1\n      tag_119\n      jump\t// in\n    tag_118:\n      swap3\n      pop\n      pop\n      dup2\n      swap1\n      sstore\n      pop\n        /* \"contracts/BusinessConsensus.sol\":3611:3612  1 */\n      0x01\n        /* \"contracts/BusinessConsensus.sol\":3589:3597  proposal */\n      0x0a\n        /* \"contracts/BusinessConsensus.sol\":3589:3607  proposal.voteCount */\n      0x00\n      add\n      0x00\n        /* \"contracts/BusinessConsensus.sol\":3589:3612  proposal.voteCount += 1 */\n      dup3\n      dup3\n      sload\n      tag_120\n      swap2\n      swap1\n      tag_119\n      jump\t// in\n    tag_120:\n      swap3\n      pop\n      pop\n      dup2\n      swap1\n      sstore\n      pop\n        /* \"contracts/BusinessConsensus.sol\":3627:3633  voters */\n      0x08\n        /* \"contracts/BusinessConsensus.sol\":3639:3649  voters_map */\n      0x09\n        /* \"contracts/BusinessConsensus.sol\":3639:3661  voters_map[msg.sender] */\n      0x00\n        /* \"contracts/BusinessConsensus.sol\":3650:3660  msg.sender */\n      caller\n        /* \"contracts/BusinessConsensus.sol\":3639:3661  voters_map[msg.sender] */\n      0xffffffffffffffffffffffffffffffffffffffff\n      and\n      0xffffffffffffffffffffffffffffffffffffffff\n      and\n      dup2\n      mstore\n      0x20\n      add\n      swap1\n      dup2\n      mstore\n      0x20\n      add\n      0x00\n      keccak256\n        /* \"contracts/BusinessConsensus.sol\":3627:3662  voters.push(voters_map[msg.sender]) */\n      swap1\n      dup1\n      0x01\n      dup2\n      sload\n      add\n      dup1\n      dup3\n      sstore\n      dup1\n      swap2\n      pop\n      pop\n      0x01\n      swap1\n      sub\n      swap1\n      0x00\n      mstore\n      keccak256(0x00, 0x20)\n      add\n      0x00\n      swap1\n      swap2\n      swap1\n      swap2\n      swap1\n      swap2\n      pop\n      0x00\n      dup3\n      add\n      0x00\n      swap1\n      sload\n      swap1\n      0x0100\n      exp\n      swap1\n      div\n      0xff\n      and\n      dup2\n      0x00\n      add\n      exp(0x0100, 0x00)\n      dup2\n      sload\n      dup2\n      0xff\n      mul\n      not\n      and\n      swap1\n      dup4\n      iszero\n      iszero\n      mul\n      or\n      swap1\n      sstore\n      pop\n      0x00\n      dup3\n      add\n      0x01\n      swap1\n      sload\n      swap1\n      0x0100\n      exp\n      swap1\n      div\n      0xff\n      and\n      dup2\n      0x00\n      add\n      exp(0x0100, 0x01)\n      dup2\n      sload\n      dup2\n      0xff\n      mul\n      not\n      and\n      swap1\n      dup4\n      iszero\n      iszero\n      mul\n      or\n      swap1\n      sstore\n      pop\n      0x00\n      dup3\n      add\n      0x02\n      swap1\n      sload\n      swap1\n      0x0100\n      exp\n      swap1\n      div\n      0xffffffffffffffffffffffffffffffffffffffff\n      and\n      dup2\n      0x00\n      add\n      exp(0x0100, 0x02)\n      dup2\n      sload\n      dup2\n      0xffffffffffffffffffffffffffffffffffffffff\n      mul\n      not\n      and\n      swap1\n      dup4\n      0xffffffffffffffffffffffffffffffffffffffff\n      and\n      mul\n      or\n      swap1\n      sstore\n      pop\n      pop\n      pop\n        /* \"contracts/BusinessConsensus.sol\":3380:4145  if(keccak256(bytes(response)) == keccak256(bytes(\"i approve\"))){\r... */\n      jump(tag_122)\n    tag_117:\n        /* \"contracts/BusinessConsensus.sol\":3734:3755  bytes(\"i disapprove\") */\n      mload(0x40)\n      dup1\n      0x40\n      add\n      0x40\n      mstore\n      dup1\n      0x0c\n      dup2\n      mstore\n      0x20\n      add\n      0x6920646973617070726f76650000000000000000000000000000000000000000\n      dup2\n      mstore\n      pop\n        /* \"contracts/BusinessConsensus.sol\":3724:3756  keccak256(bytes(\"i disapprove\")) */\n      dup1\n      mload\n      swap1\n      0x20\n      add\n      keccak256\n        /* \"contracts/BusinessConsensus.sol\":3710:3718  response */\n      dup2\n        /* \"contracts/BusinessConsensus.sol\":3694:3720  keccak256(bytes(response)) */\n      dup1\n      mload\n      swap1\n      0x20\n      add\n      keccak256\n        /* \"contracts/BusinessConsensus.sol\":3694:3756  keccak256(bytes(response)) == keccak256(bytes(\"i disapprove\")) */\n      eq\n        /* \"contracts/BusinessConsensus.sol\":3691:4145  if(keccak256(bytes(response)) == keccak256(bytes(\"i disapprove\"))){\r... */\n      iszero\n      tag_123\n      jumpi\n        /* \"contracts/BusinessConsensus.sol\":3803:3807  true */\n      0x01\n        /* \"contracts/BusinessConsensus.sol\":3772:3782  voters_map */\n      0x09\n        /* \"contracts/BusinessConsensus.sol\":3772:3794  voters_map[msg.sender] */\n      0x00\n        /* \"contracts/BusinessConsensus.sol\":3783:3793  msg.sender */\n      caller\n        /* \"contracts/BusinessConsensus.sol\":3772:3794  voters_map[msg.sender] */\n      0xffffffffffffffffffffffffffffffffffffffff\n      and\n      0xffffffffffffffffffffffffffffffffffffffff\n      and\n      dup2\n      mstore\n      0x20\n      add\n      swap1\n      dup2\n      mstore\n      0x20\n      add\n      0x00\n      keccak256\n        /* \"contracts/BusinessConsensus.sol\":3772:3800  voters_map[msg.sender].voted */\n      0x00\n      add\n      0x00\n        /* \"contracts/BusinessConsensus.sol\":3772:3807  voters_map[msg.sender].voted = true */\n      0x0100\n      exp\n      dup2\n      sload\n      dup2\n      0xff\n      mul\n      not\n      and\n      swap1\n      dup4\n      iszero\n      iszero\n      mul\n      or\n      swap1\n      sstore\n      pop\n        /* \"contracts/BusinessConsensus.sol\":3844:3845  1 */\n      0x01\n        /* \"contracts/BusinessConsensus.sol\":3822:3830  proposal */\n      0x0a\n        /* \"contracts/BusinessConsensus.sol\":3822:3840  proposal.voteCount */\n      0x00\n      add\n      0x00\n        /* \"contracts/BusinessConsensus.sol\":3822:3845  proposal.voteCount += 1 */\n      dup3\n      dup3\n      sload\n      tag_124\n      swap2\n      swap1\n      tag_119\n      jump\t// in\n    tag_124:\n      swap3\n      pop\n      pop\n      dup2\n      swap1\n      sstore\n      pop\n        /* \"contracts/BusinessConsensus.sol\":3860:3866  voters */\n      0x08\n        /* \"contracts/BusinessConsensus.sol\":3872:3882  voters_map */\n      0x09\n        /* \"contracts/BusinessConsensus.sol\":3872:3894  voters_map[msg.sender] */\n      0x00\n        /* \"contracts/BusinessConsensus.sol\":3883:3893  msg.sender */\n      caller\n        /* \"contracts/BusinessConsensus.sol\":3872:3894  voters_map[msg.sender] */\n      0xffffffffffffffffffffffffffffffffffffffff\n      and\n      0xffffffffffffffffffffffffffffffffffffffff\n      and\n      dup2\n      mstore\n      0x20\n      add\n      swap1\n      dup2\n      mstore\n      0x20\n      add\n      0x00\n      keccak256\n        /* \"contracts/BusinessConsensus.sol\":3860:3895  voters.push(voters_map[msg.sender]) */\n      swap1\n      dup1\n      0x01\n      dup2\n      sload\n      add\n      dup1\n      dup3\n      sstore\n      dup1\n      swap2\n      pop\n      pop\n      0x01\n      swap1\n      sub\n      swap1\n      0x00\n      mstore\n      keccak256(0x00, 0x20)\n      add\n      0x00\n      swap1\n      swap2\n      swap1\n      swap2\n      swap1\n      swap2\n      pop\n      0x00\n      dup3\n      add\n      0x00\n      swap1\n      sload\n      swap1\n      0x0100\n      exp\n      swap1\n      div\n      0xff\n      and\n      dup2\n      0x00\n      add\n      exp(0x0100, 0x00)\n      dup2\n      sload\n      dup2\n      0xff\n      mul\n      not\n      and\n      swap1\n      dup4\n      iszero\n      iszero\n      mul\n      or\n      swap1\n      sstore\n      pop\n      0x00\n      dup3\n      add\n      0x01\n      swap1\n      sload\n      swap1\n      0x0100\n      exp\n      swap1\n      div\n      0xff\n      and\n      dup2\n      0x00\n      add\n      exp(0x0100, 0x01)\n      dup2\n      sload\n      dup2\n      0xff\n      mul\n      not\n      and\n      swap1\n      dup4\n      iszero\n      iszero\n      mul\n      or\n      swap1\n      sstore\n      pop\n      0x00\n      dup3\n      add\n      0x02\n      swap1\n      sload\n      swap1\n      0x0100\n      exp\n      swap1\n      div\n      0xffffffffffffffffffffffffffffffffffffffff\n      and\n      dup2\n      0x00\n      add\n      exp(0x0100, 0x02)\n      dup2\n      sload\n      dup2\n      0xffffffffffffffffffffffffffffffffffffffff\n      mul\n      not\n      and\n      swap1\n      dup4\n      0xffffffffffffffffffffffffffffffffffffffff\n      and\n      mul\n      or\n      swap1\n      sstore\n      pop\n      pop\n      pop\n        /* \"contracts/BusinessConsensus.sol\":3691:4145  if(keccak256(bytes(response)) == keccak256(bytes(\"i disapprove\"))){\r... */\n      jump(tag_126)\n    tag_123:\n        /* \"contracts/BusinessConsensus.sol\":4041:4045  true */\n      0x01\n        /* \"contracts/BusinessConsensus.sol\":4010:4020  voters_map */\n      0x09\n        /* \"contracts/BusinessConsensus.sol\":4010:4032  voters_map[msg.sender] */\n      0x00\n        /* \"contracts/BusinessConsensus.sol\":4021:4031  msg.sender */\n      caller\n        /* \"contracts/BusinessConsensus.sol\":4010:4032  voters_map[msg.sender] */\n      0xffffffffffffffffffffffffffffffffffffffff\n      and\n      0xffffffffffffffffffffffffffffffffffffffff\n      and\n      dup2\n      mstore\n      0x20\n      add\n      swap1\n      dup2\n      mstore\n      0x20\n      add\n      0x00\n      keccak256\n        /* \"contracts/BusinessConsensus.sol\":4010:4038  voters_map[msg.sender].voted */\n      0x00\n      add\n      0x00\n        /* \"contracts/BusinessConsensus.sol\":4010:4045  voters_map[msg.sender].voted = true */\n      0x0100\n      exp\n      dup2\n      sload\n      dup2\n      0xff\n      mul\n      not\n      and\n      swap1\n      dup4\n      iszero\n      iszero\n      mul\n      or\n      swap1\n      sstore\n      pop\n        /* \"contracts/BusinessConsensus.sol\":4082:4083  1 */\n      0x01\n        /* \"contracts/BusinessConsensus.sol\":4060:4068  proposal */\n      0x0a\n        /* \"contracts/BusinessConsensus.sol\":4060:4078  proposal.voteCount */\n      0x00\n      add\n      0x00\n        /* \"contracts/BusinessConsensus.sol\":4060:4083  proposal.voteCount += 1 */\n      dup3\n      dup3\n      sload\n      tag_127\n      swap2\n      swap1\n      tag_119\n      jump\t// in\n    tag_127:\n      swap3\n      pop\n      pop\n      dup2\n      swap1\n      sstore\n      pop\n        /* \"contracts/BusinessConsensus.sol\":4098:4104  voters */\n      0x08\n        /* \"contracts/BusinessConsensus.sol\":4110:4120  voters_map */\n      0x09\n        /* \"contracts/BusinessConsensus.sol\":4110:4132  voters_map[msg.sender] */\n      0x00\n        /* \"contracts/BusinessConsensus.sol\":4121:4131  msg.sender */\n      caller\n        /* \"contracts/BusinessConsensus.sol\":4110:4132  voters_map[msg.sender] */\n      0xffffffffffffffffffffffffffffffffffffffff\n      and\n      0xffffffffffffffffffffffffffffffffffffffff\n      and\n      dup2\n      mstore\n      0x20\n      add\n      swap1\n      dup2\n      mstore\n      0x20\n      add\n      0x00\n      keccak256\n        /* \"contracts/BusinessConsensus.sol\":4098:4133  voters.push(voters_map[msg.sender]) */\n      swap1\n      dup1\n      0x01\n      dup2\n      sload\n      add\n      dup1\n      dup3\n      sstore\n      dup1\n      swap2\n      pop\n      pop\n      0x01\n      swap1\n      sub\n      swap1\n      0x00\n      mstore\n      keccak256(0x00, 0x20)\n      add\n      0x00\n      swap1\n      swap2\n      swap1\n      swap2\n      swap1\n      swap2\n      pop\n      0x00\n      dup3\n      add\n      0x00\n      swap1\n      sload\n      swap1\n      0x0100\n      exp\n      swap1\n      div\n      0xff\n      and\n      dup2\n      0x00\n      add\n      exp(0x0100, 0x00)\n      dup2\n      sload\n      dup2\n      0xff\n      mul\n      not\n      and\n      swap1\n      dup4\n      iszero\n      iszero\n      mul\n      or\n      swap1\n      sstore\n      pop\n      0x00\n      dup3\n      add\n      0x01\n      swap1\n      sload\n      swap1\n      0x0100\n      exp\n      swap1\n      div\n      0xff\n      and\n      dup2\n      0x00\n      add\n      exp(0x0100, 0x01)\n      dup2\n      sload\n      dup2\n      0xff\n      mul\n      not\n      and\n      swap1\n      dup4\n      iszero\n      iszero\n      mul\n      or\n      swap1\n      sstore\n      pop\n      0x00\n      dup3\n      add\n      0x02\n      swap1\n      sload\n      swap1\n      0x0100\n      exp\n      swap1\n      div\n      0xffffffffffffffffffffffffffffffffffffffff\n      and\n      dup2\n      0x00\n      add\n      exp(0x0100, 0x02)\n      dup2\n      sload\n      dup2\n      0xffffffffffffffffffffffffffffffffffffffff\n      mul\n      not\n      and\n      swap1\n      dup4\n      0xffffffffffffffffffffffffffffffffffffffff\n      and\n      mul\n      or\n      swap1\n      sstore\n      pop\n      pop\n      pop\n        /* \"contracts/BusinessConsensus.sol\":3691:4145  if(keccak256(bytes(response)) == keccak256(bytes(\"i disapprove\"))){\r... */\n    tag_126:\n        /* \"contracts/BusinessConsensus.sol\":3380:4145  if(keccak256(bytes(response)) == keccak256(bytes(\"i approve\"))){\r... */\n    tag_122:\n        /* \"contracts/BusinessConsensus.sol\":3065:4162  function Vote(string memory response) external {\r... */\n      pop\n      jump\t// out\n        /* \"contracts/BusinessConsensus.sol\":2093:2307  function getParameters2(address test_address) external view returns (bool, bool, address){\r... */\n    tag_42:\n        /* \"contracts/BusinessConsensus.sol\":2162:2166  bool */\n      0x00\n        /* \"contracts/BusinessConsensus.sol\":2168:2172  bool */\n      dup1\n        /* \"contracts/BusinessConsensus.sol\":2174:2181  address */\n      0x00\n        /* \"contracts/BusinessConsensus.sol\":2201:2211  voters_map */\n      0x09\n        /* \"contracts/BusinessConsensus.sol\":2201:2225  voters_map[test_address] */\n      0x00\n        /* \"contracts/BusinessConsensus.sol\":2212:2224  test_address */\n      dup6\n        /* \"contracts/BusinessConsensus.sol\":2201:2225  voters_map[test_address] */\n      0xffffffffffffffffffffffffffffffffffffffff\n      and\n      0xffffffffffffffffffffffffffffffffffffffff\n      and\n      dup2\n      mstore\n      0x20\n      add\n      swap1\n      dup2\n      mstore\n      0x20\n      add\n      0x00\n      keccak256\n        /* \"contracts/BusinessConsensus.sol\":2201:2230  voters_map[test_address].vote */\n      0x00\n      add\n      0x01\n      swap1\n      sload\n      swap1\n      0x0100\n      exp\n      swap1\n      div\n      0xff\n      and\n        /* \"contracts/BusinessConsensus.sol\":2232:2242  voters_map */\n      0x09\n        /* \"contracts/BusinessConsensus.sol\":2232:2256  voters_map[test_address] */\n      0x00\n        /* \"contracts/BusinessConsensus.sol\":2243:2255  test_address */\n      dup7\n        /* \"contracts/BusinessConsensus.sol\":2232:2256  voters_map[test_address] */\n      0xffffffffffffffffffffffffffffffffffffffff\n      and\n      0xffffffffffffffffffffffffffffffffffffffff\n      and\n      dup2\n      mstore\n      0x20\n      add\n      swap1\n      dup2\n      mstore\n      0x20\n      add\n      0x00\n      keccak256\n        /* \"contracts/BusinessConsensus.sol\":2232:2262  voters_map[test_address].voted */\n      0x00\n      add\n      0x00\n      swap1\n      sload\n      swap1\n      0x0100\n      exp\n      swap1\n      div\n      0xff\n      and\n        /* \"contracts/BusinessConsensus.sol\":2264:2274  voters_map */\n      0x09\n        /* \"contracts/BusinessConsensus.sol\":2264:2288  voters_map[test_address] */\n      0x00\n        /* \"contracts/BusinessConsensus.sol\":2275:2287  test_address */\n      dup8\n        /* \"contracts/BusinessConsensus.sol\":2264:2288  voters_map[test_address] */\n      0xffffffffffffffffffffffffffffffffffffffff\n      and\n      0xffffffffffffffffffffffffffffffffffffffff\n      and\n      dup2\n      mstore\n      0x20\n      add\n      swap1\n      dup2\n      mstore\n      0x20\n      add\n      0x00\n      keccak256\n        /* \"contracts/BusinessConsensus.sol\":2264:2298  voters_map[test_address].recipient */\n      0x00\n      add\n      0x02\n      swap1\n      sload\n      swap1\n      0x0100\n      exp\n      swap1\n      div\n      0xffffffffffffffffffffffffffffffffffffffff\n      and\n        /* \"contracts/BusinessConsensus.sol\":2193:2299  return (voters_map[test_address].vote, voters_map[test_address].voted, voters_map[test_address].recipient) */\n      swap3\n      pop\n      swap3\n      pop\n      swap3\n      pop\n        /* \"contracts/BusinessConsensus.sol\":2093:2307  function getParameters2(address test_address) external view returns (bool, bool, address){\r... */\n      swap2\n      swap4\n      swap1\n      swap3\n      pop\n      jump\t// out\n        /* \"contracts/BusinessConsensus.sol\":696:720  address public initiator */\n    tag_46:\n      0x01\n      0x00\n      swap1\n      sload\n      swap1\n      0x0100\n      exp\n      swap1\n      div\n      0xffffffffffffffffffffffffffffffffffffffff\n      and\n      dup2\n      jump\t// out\n        /* \"contracts/BusinessConsensus.sol\":846:873  uint256 public numApprovals */\n    tag_49:\n      sload(0x05)\n      dup2\n      jump\t// out\n        /* \"contracts/BusinessConsensus.sol\":1106:1130  Proposal public proposal */\n    tag_53:\n      0x0a\n      dup1\n      0x00\n      add\n      sload\n      swap1\n      dup1\n      0x01\n      add\n      dup1\n      sload\n      tag_130\n      swap1\n      tag_102\n      jump\t// in\n    tag_130:\n      dup1\n      0x1f\n      add\n      0x20\n      dup1\n      swap2\n      div\n      mul\n      0x20\n      add\n      mload(0x40)\n      swap1\n      dup2\n      add\n      0x40\n      mstore\n      dup1\n      swap3\n      swap2\n      swap1\n      dup2\n      dup2\n      mstore\n      0x20\n      add\n      dup3\n      dup1\n      sload\n      tag_131\n      swap1\n      tag_102\n      jump\t// in\n    tag_131:\n      dup1\n      iszero\n      tag_132\n      jumpi\n      dup1\n      0x1f\n      lt\n      tag_133\n      jumpi\n      0x0100\n      dup1\n      dup4\n      sload\n      div\n      mul\n      dup4\n      mstore\n      swap2\n      0x20\n      add\n      swap2\n      jump(tag_132)\n    tag_133:\n      dup3\n      add\n      swap2\n      swap1\n      0x00\n      mstore\n      keccak256(0x00, 0x20)\n      swap1\n    tag_134:\n      dup2\n      sload\n      dup2\n      mstore\n      swap1\n      0x01\n      add\n      swap1\n      0x20\n      add\n      dup1\n      dup4\n      gt\n      tag_134\n      jumpi\n      dup3\n      swap1\n      sub\n      0x1f\n      and\n      dup3\n      add\n      swap2\n    tag_132:\n      pop\n      pop\n      pop\n      pop\n      pop\n      swap1\n      pop\n      dup3\n      jump\t// out\n        /* \"contracts/BusinessConsensus.sol\":4961:5203  function retrieve_bundle() external view returns (bytes32, Proposal memory, Voter[] memory){\r... */\n    tag_57:\n        /* \"contracts/BusinessConsensus.sol\":5011:5018  bytes32 */\n      0x00\n        /* \"contracts/BusinessConsensus.sol\":5020:5035  Proposal memory */\n      tag_135\n      tag_136\n      jump\t// in\n    tag_135:\n        /* \"contracts/BusinessConsensus.sol\":5037:5051  Voter[] memory */\n      0x60\n        /* \"contracts/BusinessConsensus.sol\":5090:5100  expiryDate */\n      sload(0x03)\n        /* \"contracts/BusinessConsensus.sol\":5071:5086  block.timestamp */\n      timestamp\n        /* \"contracts/BusinessConsensus.sol\":5071:5100  block.timestamp >= expiryDate */\n      lt\n      iszero\n        /* \"contracts/BusinessConsensus.sol\":5063:5137  require(block.timestamp >= expiryDate, \"Verdict has not been reached yet\") */\n      tag_138\n      jumpi\n      mload(0x40)\n      0x08c379a000000000000000000000000000000000000000000000000000000000\n      dup2\n      mstore\n      0x04\n      add\n      tag_139\n      swap1\n      tag_140\n      jump\t// in\n    tag_139:\n      mload(0x40)\n      dup1\n      swap2\n      sub\n      swap1\n      revert\n    tag_138:\n        /* \"contracts/BusinessConsensus.sol\":5156:5168  finalVerdict */\n      sload(0x07)\n        /* \"contracts/BusinessConsensus.sol\":5169:5177  proposal */\n      0x0a\n        /* \"contracts/BusinessConsensus.sol\":5178:5184  voters */\n      0x08\n        /* \"contracts/BusinessConsensus.sol\":5148:5185  return (finalVerdict,proposal,voters) */\n      dup2\n      mload(0x40)\n      dup1\n      0x40\n      add\n      0x40\n      mstore\n      swap1\n      dup2\n      0x00\n      dup3\n      add\n      sload\n      dup2\n      mstore\n      0x20\n      add\n      0x01\n      dup3\n      add\n      dup1\n      sload\n      tag_141\n      swap1\n      tag_102\n      jump\t// in\n    tag_141:\n      dup1\n      0x1f\n      add\n      0x20\n      dup1\n      swap2\n      div\n      mul\n      0x20\n      add\n      mload(0x40)\n      swap1\n      dup2\n      add\n      0x40\n      mstore\n      dup1\n      swap3\n      swap2\n      swap1\n      dup2\n      dup2\n      mstore\n      0x20\n      add\n      dup3\n      dup1\n      sload\n      tag_142\n      swap1\n      tag_102\n      jump\t// in\n    tag_142:\n      dup1\n      iszero\n      tag_143\n      jumpi\n      dup1\n      0x1f\n      lt\n      tag_144\n      jumpi\n      0x0100\n      dup1\n      dup4\n      sload\n      div\n      mul\n      dup4\n      mstore\n      swap2\n      0x20\n      add\n      swap2\n      jump(tag_143)\n    tag_144:\n      dup3\n      add\n      swap2\n      swap1\n      0x00\n      mstore\n      keccak256(0x00, 0x20)\n      swap1\n    tag_145:\n      dup2\n      sload\n      dup2\n      mstore\n      swap1\n      0x01\n      add\n      swap1\n      0x20\n      add\n      dup1\n      dup4\n      gt\n      tag_145\n      jumpi\n      dup3\n      swap1\n      sub\n      0x1f\n      and\n      dup3\n      add\n      swap2\n    tag_143:\n      pop\n      pop\n      pop\n      pop\n      pop\n      dup2\n      mstore\n      pop\n      pop\n      swap2\n      pop\n      dup1\n      dup1\n      sload\n      dup1\n      0x20\n      mul\n      0x20\n      add\n      mload(0x40)\n      swap1\n      dup2\n      add\n      0x40\n      mstore\n      dup1\n      swap3\n      swap2\n      swap1\n      dup2\n      dup2\n      mstore\n      0x20\n      add\n      0x00\n      swap1\n    tag_146:\n      dup3\n      dup3\n      lt\n      iszero\n      tag_147\n      jumpi\n      dup4\n      dup3\n      swap1\n      0x00\n      mstore\n      keccak256(0x00, 0x20)\n      add\n      mload(0x40)\n      dup1\n      0x60\n      add\n      0x40\n      mstore\n      swap1\n      dup2\n      0x00\n      dup3\n      add\n      0x00\n      swap1\n      sload\n      swap1\n      0x0100\n      exp\n      swap1\n      div\n      0xff\n      and\n      iszero\n      iszero\n      iszero\n      iszero\n      dup2\n      mstore\n      0x20\n      add\n      0x00\n      dup3\n      add\n      0x01\n      swap1\n      sload\n      swap1\n      0x0100\n      exp\n      swap1\n      div\n      0xff\n      and\n      iszero\n      iszero\n      iszero\n      iszero\n      dup2\n      mstore\n      0x20\n      add\n      0x00\n      dup3\n      add\n      0x02\n      swap1\n      sload\n      swap1\n      0x0100\n      exp\n      swap1\n      div\n      0xffffffffffffffffffffffffffffffffffffffff\n      and\n      0xffffffffffffffffffffffffffffffffffffffff\n      and\n      0xffffffffffffffffffffffffffffffffffffffff\n      and\n      dup2\n      mstore\n      pop\n      pop\n      dup2\n      mstore\n      0x20\n      add\n      swap1\n      0x01\n      add\n      swap1\n      jump(tag_146)\n    tag_147:\n      pop\n      pop\n      pop\n      pop\n      swap1\n      pop\n      swap3\n      pop\n      swap3\n      pop\n      swap3\n      pop\n        /* \"contracts/BusinessConsensus.sol\":4961:5203  function retrieve_bundle() external view returns (bytes32, Proposal memory, Voter[] memory){\r... */\n      swap1\n      swap2\n      swap3\n      jump\t// out\n        /* \"contracts/BusinessConsensus.sol\":4226:4953  function Consensus() external {\r... */\n    tag_61:\n        /* \"contracts/BusinessConsensus.sol\":4294:4304  expiryDate */\n      sload(0x03)\n        /* \"contracts/BusinessConsensus.sol\":4275:4290  block.timestamp */\n      timestamp\n        /* \"contracts/BusinessConsensus.sol\":4275:4304  block.timestamp >= expiryDate */\n      lt\n      iszero\n        /* \"contracts/BusinessConsensus.sol\":4267:4341  require(block.timestamp >= expiryDate, \"Verdict has not been reached yet\") */\n      tag_150\n      jumpi\n      mload(0x40)\n      0x08c379a000000000000000000000000000000000000000000000000000000000\n      dup2\n      mstore\n      0x04\n      add\n      tag_151\n      swap1\n      tag_140\n      jump\t// in\n    tag_151:\n      mload(0x40)\n      dup1\n      swap2\n      sub\n      swap1\n      revert\n    tag_150:\n        /* \"contracts/BusinessConsensus.sol\":4374:4379  false */\n      0x00\n        /* \"contracts/BusinessConsensus.sol\":4360:4379  isCompiled == false */\n      iszero\n      iszero\n        /* \"contracts/BusinessConsensus.sol\":4360:4370  isCompiled */\n      0x06\n      0x00\n      swap1\n      sload\n      swap1\n      0x0100\n      exp\n      swap1\n      div\n      0xff\n      and\n        /* \"contracts/BusinessConsensus.sol\":4360:4379  isCompiled == false */\n      iszero\n      iszero\n      eq\n        /* \"contracts/BusinessConsensus.sol\":4352:4421  require(isCompiled == false, \"Consensus has already been calculated\") */\n      tag_152\n      jumpi\n      mload(0x40)\n      0x08c379a000000000000000000000000000000000000000000000000000000000\n      dup2\n      mstore\n      0x04\n      add\n      tag_153\n      swap1\n      tag_154\n      jump\t// in\n    tag_153:\n      mload(0x40)\n      dup1\n      swap2\n      sub\n      swap1\n      revert\n    tag_152:\n        /* \"contracts/BusinessConsensus.sol\":4454:4463  initiator */\n      0x01\n      0x00\n      swap1\n      sload\n      swap1\n      0x0100\n      exp\n      swap1\n      div\n      0xffffffffffffffffffffffffffffffffffffffff\n      and\n        /* \"contracts/BusinessConsensus.sol\":4440:4463  msg.sender == initiator */\n      0xffffffffffffffffffffffffffffffffffffffff\n      and\n        /* \"contracts/BusinessConsensus.sol\":4440:4450  msg.sender */\n      caller\n        /* \"contracts/BusinessConsensus.sol\":4440:4463  msg.sender == initiator */\n      0xffffffffffffffffffffffffffffffffffffffff\n      and\n      eq\n        /* \"contracts/BusinessConsensus.sol\":4440:4515  msg.sender == initiator || voters_map[msg.sender].recipient != address(0x0) */\n      dup1\n      tag_155\n      jumpi\n      pop\n        /* \"contracts/BusinessConsensus.sol\":4511:4514  0x0 */\n      0x00\n        /* \"contracts/BusinessConsensus.sol\":4467:4515  voters_map[msg.sender].recipient != address(0x0) */\n      0xffffffffffffffffffffffffffffffffffffffff\n      and\n        /* \"contracts/BusinessConsensus.sol\":4467:4477  voters_map */\n      0x09\n        /* \"contracts/BusinessConsensus.sol\":4467:4489  voters_map[msg.sender] */\n      0x00\n        /* \"contracts/BusinessConsensus.sol\":4478:4488  msg.sender */\n      caller\n        /* \"contracts/BusinessConsensus.sol\":4467:4489  voters_map[msg.sender] */\n      0xffffffffffffffffffffffffffffffffffffffff\n      and\n      0xffffffffffffffffffffffffffffffffffffffff\n      and\n      dup2\n      mstore\n      0x20\n      add\n      swap1\n      dup2\n      mstore\n      0x20\n      add\n      0x00\n      keccak256\n        /* \"contracts/BusinessConsensus.sol\":4467:4499  voters_map[msg.sender].recipient */\n      0x00\n      add\n      0x02\n      swap1\n      sload\n      swap1\n      0x0100\n      exp\n      swap1\n      div\n      0xffffffffffffffffffffffffffffffffffffffff\n      and\n        /* \"contracts/BusinessConsensus.sol\":4467:4515  voters_map[msg.sender].recipient != address(0x0) */\n      0xffffffffffffffffffffffffffffffffffffffff\n      and\n      eq\n      iszero\n        /* \"contracts/BusinessConsensus.sol\":4440:4515  msg.sender == initiator || voters_map[msg.sender].recipient != address(0x0) */\n    tag_155:\n        /* \"contracts/BusinessConsensus.sol\":4432:4558  require(msg.sender == initiator || voters_map[msg.sender].recipient != address(0x0), \"You aren't authorize to compile Bundle\") */\n      tag_156\n      jumpi\n      mload(0x40)\n      0x08c379a000000000000000000000000000000000000000000000000000000000\n      dup2\n      mstore\n      0x04\n      add\n      tag_157\n      swap1\n      tag_158\n      jump\t// in\n    tag_157:\n      mload(0x40)\n      dup1\n      swap2\n      sub\n      swap1\n      revert\n    tag_156:\n        /* \"contracts/BusinessConsensus.sol\":4569:4598  uint256 AccumulatedPercentage */\n      0x00\n        /* \"contracts/BusinessConsensus.sol\":4628:4631  100 */\n      0x64\n        /* \"contracts/BusinessConsensus.sol\":4615:4619  keys */\n      0x02\n        /* \"contracts/BusinessConsensus.sol\":4615:4626  keys.length */\n      dup1\n      sload\n      swap1\n      pop\n        /* \"contracts/BusinessConsensus.sol\":4602:4614  numApprovals */\n      sload(0x05)\n        /* \"contracts/BusinessConsensus.sol\":4602:4626  numApprovals/keys.length */\n      tag_159\n      swap2\n      swap1\n      tag_160\n      jump\t// in\n    tag_159:\n        /* \"contracts/BusinessConsensus.sol\":4601:4631  (numApprovals/keys.length)*100 */\n      tag_161\n      swap2\n      swap1\n      tag_162\n      jump\t// in\n    tag_161:\n        /* \"contracts/BusinessConsensus.sol\":4569:4631  uint256 AccumulatedPercentage = (numApprovals/keys.length)*100 */\n      swap1\n      pop\n        /* \"contracts/BusinessConsensus.sol\":4670:4689  BusinessRequirement */\n      sload(0x04)\n        /* \"contracts/BusinessConsensus.sol\":4645:4666  AccumulatedPercentage */\n      dup2\n        /* \"contracts/BusinessConsensus.sol\":4645:4689  AccumulatedPercentage >= BusinessRequirement */\n      lt\n        /* \"contracts/BusinessConsensus.sol\":4642:4742  if(AccumulatedPercentage >= BusinessRequirement){\r... */\n      tag_163\n      jumpi\n        /* \"contracts/BusinessConsensus.sol\":4705:4730  finalVerdict = \"Accepted\" */\n      0x4163636570746564000000000000000000000000000000000000000000000000\n        /* \"contracts/BusinessConsensus.sol\":4705:4717  finalVerdict */\n      0x07\n        /* \"contracts/BusinessConsensus.sol\":4705:4730  finalVerdict = \"Accepted\" */\n      dup2\n      swap1\n      sstore\n      pop\n        /* \"contracts/BusinessConsensus.sol\":4642:4742  if(AccumulatedPercentage >= BusinessRequirement){\r... */\n    tag_163:\n        /* \"contracts/BusinessConsensus.sol\":4756:4763  uint8 i */\n      0x00\n        /* \"contracts/BusinessConsensus.sol\":4752:4918  for(uint8 i=0; i< keys.length; i++){\r... */\n    tag_164:\n        /* \"contracts/BusinessConsensus.sol\":4770:4774  keys */\n      0x02\n        /* \"contracts/BusinessConsensus.sol\":4770:4781  keys.length */\n      dup1\n      sload\n      swap1\n      pop\n        /* \"contracts/BusinessConsensus.sol\":4767:4768  i */\n      dup2\n        /* \"contracts/BusinessConsensus.sol\":4767:4781  i< keys.length */\n      0xff\n      and\n      lt\n        /* \"contracts/BusinessConsensus.sol\":4752:4918  for(uint8 i=0; i< keys.length; i++){\r... */\n      iszero\n      tag_165\n      jumpi\n        /* \"contracts/BusinessConsensus.sol\":4834:4839  false */\n      0x00\n        /* \"contracts/BusinessConsensus.sol\":4805:4839  voters_map[keys[i]].voted == false */\n      iszero\n      iszero\n        /* \"contracts/BusinessConsensus.sol\":4805:4815  voters_map */\n      0x09\n        /* \"contracts/BusinessConsensus.sol\":4805:4824  voters_map[keys[i]] */\n      0x00\n        /* \"contracts/BusinessConsensus.sol\":4816:4820  keys */\n      0x02\n        /* \"contracts/BusinessConsensus.sol\":4821:4822  i */\n      dup5\n        /* \"contracts/BusinessConsensus.sol\":4816:4823  keys[i] */\n      0xff\n      and\n      dup2\n      sload\n      dup2\n      lt\n      tag_167\n      jumpi\n      tag_168\n      tag_169\n      jump\t// in\n    tag_168:\n    tag_167:\n      swap1\n      0x00\n      mstore\n      keccak256(0x00, 0x20)\n      add\n      0x00\n      swap1\n      sload\n      swap1\n      0x0100\n      exp\n      swap1\n      div\n      0xffffffffffffffffffffffffffffffffffffffff\n      and\n        /* \"contracts/BusinessConsensus.sol\":4805:4824  voters_map[keys[i]] */\n      0xffffffffffffffffffffffffffffffffffffffff\n      and\n      0xffffffffffffffffffffffffffffffffffffffff\n      and\n      dup2\n      mstore\n      0x20\n      add\n      swap1\n      dup2\n      mstore\n      0x20\n      add\n      0x00\n      keccak256\n        /* \"contracts/BusinessConsensus.sol\":4805:4830  voters_map[keys[i]].voted */\n      0x00\n      add\n      0x00\n      swap1\n      sload\n      swap1\n      0x0100\n      exp\n      swap1\n      div\n      0xff\n      and\n        /* \"contracts/BusinessConsensus.sol\":4805:4839  voters_map[keys[i]].voted == false */\n      iszero\n      iszero\n      eq\n        /* \"contracts/BusinessConsensus.sol\":4802:4907  if(voters_map[keys[i]].voted == false){\r... */\n      iszero\n      tag_171\n      jumpi\n        /* \"contracts/BusinessConsensus.sol\":4859:4865  voters */\n      0x08\n        /* \"contracts/BusinessConsensus.sol\":4871:4881  voters_map */\n      0x09\n        /* \"contracts/BusinessConsensus.sol\":4871:4890  voters_map[keys[i]] */\n      0x00\n        /* \"contracts/BusinessConsensus.sol\":4882:4886  keys */\n      0x02\n        /* \"contracts/BusinessConsensus.sol\":4887:4888  i */\n      dup5\n        /* \"contracts/BusinessConsensus.sol\":4882:4889  keys[i] */\n      0xff\n      and\n      dup2\n      sload\n      dup2\n      lt\n      tag_172\n      jumpi\n      tag_173\n      tag_169\n      jump\t// in\n    tag_173:\n    tag_172:\n      swap1\n      0x00\n      mstore\n      keccak256(0x00, 0x20)\n      add\n      0x00\n      swap1\n      sload\n      swap1\n      0x0100\n      exp\n      swap1\n      div\n      0xffffffffffffffffffffffffffffffffffffffff\n      and\n        /* \"contracts/BusinessConsensus.sol\":4871:4890  voters_map[keys[i]] */\n      0xffffffffffffffffffffffffffffffffffffffff\n      and\n      0xffffffffffffffffffffffffffffffffffffffff\n      and\n      dup2\n      mstore\n      0x20\n      add\n      swap1\n      dup2\n      mstore\n      0x20\n      add\n      0x00\n      keccak256\n        /* \"contracts/BusinessConsensus.sol\":4859:4891  voters.push(voters_map[keys[i]]) */\n      swap1\n      dup1\n      0x01\n      dup2\n      sload\n      add\n      dup1\n      dup3\n      sstore\n      dup1\n      swap2\n      pop\n      pop\n      0x01\n      swap1\n      sub\n      swap1\n      0x00\n      mstore\n      keccak256(0x00, 0x20)\n      add\n      0x00\n      swap1\n      swap2\n      swap1\n      swap2\n      swap1\n      swap2\n      pop\n      0x00\n      dup3\n      add\n      0x00\n      swap1\n      sload\n      swap1\n      0x0100\n      exp\n      swap1\n      div\n      0xff\n      and\n      dup2\n      0x00\n      add\n      exp(0x0100, 0x00)\n      dup2\n      sload\n      dup2\n      0xff\n      mul\n      not\n      and\n      swap1\n      dup4\n      iszero\n      iszero\n      mul\n      or\n      swap1\n      sstore\n      pop\n      0x00\n      dup3\n      add\n      0x01\n      swap1\n      sload\n      swap1\n      0x0100\n      exp\n      swap1\n      div\n      0xff\n      and\n      dup2\n      0x00\n      add\n      exp(0x0100, 0x01)\n      dup2\n      sload\n      dup2\n      0xff\n      mul\n      not\n      and\n      swap1\n      dup4\n      iszero\n      iszero\n      mul\n      or\n      swap1\n      sstore\n      pop\n      0x00\n      dup3\n      add\n      0x02\n      swap1\n      sload\n      swap1\n      0x0100\n      exp\n      swap1\n      div\n      0xffffffffffffffffffffffffffffffffffffffff\n      and\n      dup2\n      0x00\n      add\n      exp(0x0100, 0x02)\n      dup2\n      sload\n      dup2\n      0xffffffffffffffffffffffffffffffffffffffff\n      mul\n      not\n      and\n      swap1\n      dup4\n      0xffffffffffffffffffffffffffffffffffffffff\n      and\n      mul\n      or\n      swap1\n      sstore\n      pop\n      pop\n      pop\n        /* \"contracts/BusinessConsensus.sol\":4802:4907  if(voters_map[keys[i]].voted == false){\r... */\n    tag_171:\n        /* \"contracts/BusinessConsensus.sol\":4783:4786  i++ */\n      dup1\n      dup1\n      tag_176\n      swap1\n      tag_177\n      jump\t// in\n    tag_176:\n      swap2\n      pop\n      pop\n        /* \"contracts/BusinessConsensus.sol\":4752:4918  for(uint8 i=0; i< keys.length; i++){\r... */\n      jump(tag_164)\n    tag_165:\n      pop\n        /* \"contracts/BusinessConsensus.sol\":4941:4945  true */\n      0x01\n        /* \"contracts/BusinessConsensus.sol\":4928:4938  isCompiled */\n      0x06\n      0x00\n        /* \"contracts/BusinessConsensus.sol\":4928:4945  isCompiled = true */\n      0x0100\n      exp\n      dup2\n      sload\n      dup2\n      0xff\n      mul\n      not\n      and\n      swap1\n      dup4\n      iszero\n      iszero\n      mul\n      or\n      swap1\n      sstore\n      pop\n        /* \"contracts/BusinessConsensus.sol\":4256:4953  {\r... */\n      pop\n        /* \"contracts/BusinessConsensus.sol\":4226:4953  function Consensus() external {\r... */\n      jump\t// out\n        /* \"contracts/BusinessConsensus.sol\":986:1029  mapping(address => Voter) public voters_map */\n    tag_64:\n      mstore(0x20, 0x09)\n      dup1\n      0x00\n      mstore\n      keccak256(0x00, 0x40)\n      0x00\n      swap2\n      pop\n      swap1\n      pop\n      dup1\n      0x00\n      add\n      0x00\n      swap1\n      sload\n      swap1\n      0x0100\n      exp\n      swap1\n      div\n      0xff\n      and\n      swap1\n      dup1\n      0x00\n      add\n      0x01\n      swap1\n      sload\n      swap1\n      0x0100\n      exp\n      swap1\n      div\n      0xff\n      and\n      swap1\n      dup1\n      0x00\n      add\n      0x02\n      swap1\n      sload\n      swap1\n      0x0100\n      exp\n      swap1\n      div\n      0xffffffffffffffffffffffffffffffffffffffff\n      and\n      swap1\n      pop\n      dup4\n      jump\t// out\n        /* \"contracts/BusinessConsensus.sol\":1897:2087  function getParameters() external view returns (string memory, uint , address ,uint ,uint){\r... */\n    tag_67:\n        /* \"contracts/BusinessConsensus.sol\":1945:1958  string memory */\n      0x60\n        /* \"contracts/BusinessConsensus.sol\":1960:1964  uint */\n      0x00\n        /* \"contracts/BusinessConsensus.sol\":1967:1974  address */\n      dup1\n        /* \"contracts/BusinessConsensus.sol\":1976:1980  uint */\n      0x00\n        /* \"contracts/BusinessConsensus.sol\":1982:1986  uint */\n      dup1\n        /* \"contracts/BusinessConsensus.sol\":2006:2014  proposal */\n      0x0a\n        /* \"contracts/BusinessConsensus.sol\":2006:2024  proposal.messageID */\n      0x01\n      add\n        /* \"contracts/BusinessConsensus.sol\":2025:2035  expiryDate */\n      sload(0x03)\n        /* \"contracts/BusinessConsensus.sol\":2036:2045  initiator */\n      0x01\n      0x00\n      swap1\n      sload\n      swap1\n      0x0100\n      exp\n      swap1\n      div\n      0xffffffffffffffffffffffffffffffffffffffff\n      and\n        /* \"contracts/BusinessConsensus.sol\":2046:2065  BusinessRequirement */\n      sload(0x04)\n        /* \"contracts/BusinessConsensus.sol\":2066:2078  numApprovals */\n      sload(0x05)\n        /* \"contracts/BusinessConsensus.sol\":1998:2079  return (proposal.messageID,expiryDate,initiator,BusinessRequirement,numApprovals) */\n      dup5\n      dup1\n      sload\n      tag_179\n      swap1\n      tag_102\n      jump\t// in\n    tag_179:\n      dup1\n      0x1f\n      add\n      0x20\n      dup1\n      swap2\n      div\n      mul\n      0x20\n      add\n      mload(0x40)\n      swap1\n      dup2\n      add\n      0x40\n      mstore\n      dup1\n      swap3\n      swap2\n      swap1\n      dup2\n      dup2\n      mstore\n      0x20\n      add\n      dup3\n      dup1\n      sload\n      tag_180\n      swap1\n      tag_102\n      jump\t// in\n    tag_180:\n      dup1\n      iszero\n      tag_181\n      jumpi\n      dup1\n      0x1f\n      lt\n      tag_182\n      jumpi\n      0x0100\n      dup1\n      dup4\n      sload\n      div\n      mul\n      dup4\n      mstore\n      swap2\n      0x20\n      add\n      swap2\n      jump(tag_181)\n    tag_182:\n      dup3\n      add\n      swap2\n      swap1\n      0x00\n      mstore\n      keccak256(0x00, 0x20)\n      swap1\n    tag_183:\n      dup2\n      sload\n      dup2\n      mstore\n      swap1\n      0x01\n      add\n      swap1\n      0x20\n      add\n      dup1\n      dup4\n      gt\n      tag_183\n      jumpi\n      dup3\n      swap1\n      sub\n      0x1f\n      and\n      dup3\n      add\n      swap2\n    tag_181:\n      pop\n      pop\n      pop\n      pop\n      pop\n      swap5\n      pop\n      swap5\n      pop\n      swap5\n      pop\n      swap5\n      pop\n      swap5\n      pop\n      swap5\n      pop\n        /* \"contracts/BusinessConsensus.sol\":1897:2087  function getParameters() external view returns (string memory, uint , address ,uint ,uint){\r... */\n      swap1\n      swap2\n      swap3\n      swap4\n      swap5\n      jump\t// out\n        /* \"contracts/BusinessConsensus.sol\":805:839  uint256 public BusinessRequirement */\n    tag_71:\n      sload(0x04)\n      dup2\n      jump\t// out\n        /* \"contracts/BusinessConsensus.sol\":956:977  Voter[] public voters */\n    tag_75:\n      0x08\n      dup2\n      dup2\n      sload\n      dup2\n      lt\n      tag_184\n      jumpi\n      0x00\n      dup1\n      revert\n    tag_184:\n      swap1\n      0x00\n      mstore\n      keccak256(0x00, 0x20)\n      add\n      0x00\n      swap2\n      pop\n      swap1\n      pop\n      dup1\n      0x00\n      add\n      0x00\n      swap1\n      sload\n      swap1\n      0x0100\n      exp\n      swap1\n      div\n      0xff\n      and\n      swap1\n      dup1\n      0x00\n      add\n      0x01\n      swap1\n      sload\n      swap1\n      0x0100\n      exp\n      swap1\n      div\n      0xff\n      and\n      swap1\n      dup1\n      0x00\n      add\n      0x02\n      swap1\n      sload\n      swap1\n      0x0100\n      exp\n      swap1\n      div\n      0xffffffffffffffffffffffffffffffffffffffff\n      and\n      swap1\n      pop\n      dup4\n      jump\t// out\n        /* \"contracts/BusinessConsensus.sol\":1803:1891  function getNumCompiled() public view returns (bool){\r... */\n    tag_78:\n        /* \"contracts/BusinessConsensus.sol\":1850:1854  bool */\n      0x00\n        /* \"contracts/BusinessConsensus.sol\":1873:1883  isCompiled */\n      0x06\n      0x00\n      swap1\n      sload\n      swap1\n      0x0100\n      exp\n      swap1\n      div\n      0xff\n      and\n        /* \"contracts/BusinessConsensus.sol\":1866:1883  return isCompiled */\n      swap1\n      pop\n        /* \"contracts/BusinessConsensus.sol\":1803:1891  function getNumCompiled() public view returns (bool){\r... */\n      swap1\n      jump\t// out\n        /* \"contracts/BusinessConsensus.sol\":596:626  address public contractAddress */\n    tag_82:\n      0x00\n      dup1\n      sload\n      swap1\n      0x0100\n      exp\n      swap1\n      div\n      0xffffffffffffffffffffffffffffffffffffffff\n      and\n      dup2\n      jump\t// out\n    tag_136:\n      mload(0x40)\n      dup1\n      0x40\n      add\n      0x40\n      mstore\n      dup1\n      0x00\n      dup2\n      mstore\n      0x20\n      add\n      0x60\n      dup2\n      mstore\n      pop\n      swap1\n      jump\t// out\n        /* \"#utility.yul\":7:419   */\n    tag_188:\n        /* \"#utility.yul\":85:90   */\n      0x00\n        /* \"#utility.yul\":110:176   */\n      tag_190\n        /* \"#utility.yul\":126:175   */\n      tag_191\n        /* \"#utility.yul\":168:174   */\n      dup5\n        /* \"#utility.yul\":126:175   */\n      tag_192\n      jump\t// in\n    tag_191:\n        /* \"#utility.yul\":110:176   */\n      tag_193\n      jump\t// in\n    tag_190:\n        /* \"#utility.yul\":101:176   */\n      swap1\n      pop\n        /* \"#utility.yul\":199:205   */\n      dup3\n        /* \"#utility.yul\":192:197   */\n      dup2\n        /* \"#utility.yul\":185:206   */\n      mstore\n        /* \"#utility.yul\":237:241   */\n      0x20\n        /* \"#utility.yul\":230:235   */\n      dup2\n        /* \"#utility.yul\":226:242   */\n      add\n        /* \"#utility.yul\":275:278   */\n      dup5\n        /* \"#utility.yul\":266:272   */\n      dup5\n        /* \"#utility.yul\":261:264   */\n      dup5\n        /* \"#utility.yul\":257:273   */\n      add\n        /* \"#utility.yul\":254:279   */\n      gt\n        /* \"#utility.yul\":251:363   */\n      iszero\n      tag_194\n      jumpi\n        /* \"#utility.yul\":282:361   */\n      tag_195\n      tag_196\n      jump\t// in\n    tag_195:\n        /* \"#utility.yul\":251:363   */\n    tag_194:\n        /* \"#utility.yul\":372:413   */\n      tag_197\n        /* \"#utility.yul\":406:412   */\n      dup5\n        /* \"#utility.yul\":401:404   */\n      dup3\n        /* \"#utility.yul\":396:399   */\n      dup6\n        /* \"#utility.yul\":372:413   */\n      tag_198\n      jump\t// in\n    tag_197:\n        /* \"#utility.yul\":91:419   */\n      pop\n        /* \"#utility.yul\":7:419   */\n      swap4\n      swap3\n      pop\n      pop\n      pop\n      jump\t// out\n        /* \"#utility.yul\":425:564   */\n    tag_199:\n        /* \"#utility.yul\":471:476   */\n      0x00\n        /* \"#utility.yul\":509:515   */\n      dup2\n        /* \"#utility.yul\":496:516   */\n      calldataload\n        /* \"#utility.yul\":487:516   */\n      swap1\n      pop\n        /* \"#utility.yul\":525:558   */\n      tag_201\n        /* \"#utility.yul\":552:557   */\n      dup2\n        /* \"#utility.yul\":525:558   */\n      tag_202\n      jump\t// in\n    tag_201:\n        /* \"#utility.yul\":425:564   */\n      swap3\n      swap2\n      pop\n      pop\n      jump\t// out\n        /* \"#utility.yul\":584:924   */\n    tag_203:\n        /* \"#utility.yul\":640:645   */\n      0x00\n        /* \"#utility.yul\":689:692   */\n      dup3\n        /* \"#utility.yul\":682:686   */\n      0x1f\n        /* \"#utility.yul\":674:680   */\n      dup4\n        /* \"#utility.yul\":670:687   */\n      add\n        /* \"#utility.yul\":666:693   */\n      slt\n        /* \"#utility.yul\":656:778   */\n      tag_205\n      jumpi\n        /* \"#utility.yul\":697:776   */\n      tag_206\n      tag_207\n      jump\t// in\n    tag_206:\n        /* \"#utility.yul\":656:778   */\n    tag_205:\n        /* \"#utility.yul\":814:820   */\n      dup2\n        /* \"#utility.yul\":801:821   */\n      calldataload\n        /* \"#utility.yul\":839:918   */\n      tag_208\n        /* \"#utility.yul\":914:917   */\n      dup5\n        /* \"#utility.yul\":906:912   */\n      dup3\n        /* \"#utility.yul\":899:903   */\n      0x20\n        /* \"#utility.yul\":891:897   */\n      dup7\n        /* \"#utility.yul\":887:904   */\n      add\n        /* \"#utility.yul\":839:918   */\n      tag_188\n      jump\t// in\n    tag_208:\n        /* \"#utility.yul\":830:918   */\n      swap2\n      pop\n        /* \"#utility.yul\":646:924   */\n      pop\n        /* \"#utility.yul\":584:924   */\n      swap3\n      swap2\n      pop\n      pop\n      jump\t// out\n        /* \"#utility.yul\":930:1069   */\n    tag_209:\n        /* \"#utility.yul\":976:981   */\n      0x00\n        /* \"#utility.yul\":1014:1020   */\n      dup2\n        /* \"#utility.yul\":1001:1021   */\n      calldataload\n        /* \"#utility.yul\":992:1021   */\n      swap1\n      pop\n        /* \"#utility.yul\":1030:1063   */\n      tag_211\n        /* \"#utility.yul\":1057:1062   */\n      dup2\n        /* \"#utility.yul\":1030:1063   */\n      tag_212\n      jump\t// in\n    tag_211:\n        /* \"#utility.yul\":930:1069   */\n      swap3\n      swap2\n      pop\n      pop\n      jump\t// out\n        /* \"#utility.yul\":1075:1404   */\n    tag_30:\n        /* \"#utility.yul\":1134:1140   */\n      0x00\n        /* \"#utility.yul\":1183:1185   */\n      0x20\n        /* \"#utility.yul\":1171:1180   */\n      dup3\n        /* \"#utility.yul\":1162:1169   */\n      dup5\n        /* \"#utility.yul\":1158:1181   */\n      sub\n        /* \"#utility.yul\":1154:1186   */\n      slt\n        /* \"#utility.yul\":1151:1270   */\n      iszero\n      tag_214\n      jumpi\n        /* \"#utility.yul\":1189:1268   */\n      tag_215\n      tag_216\n      jump\t// in\n    tag_215:\n        /* \"#utility.yul\":1151:1270   */\n    tag_214:\n        /* \"#utility.yul\":1309:1310   */\n      0x00\n        /* \"#utility.yul\":1334:1387   */\n      tag_217\n        /* \"#utility.yul\":1379:1386   */\n      dup5\n        /* \"#utility.yul\":1370:1376   */\n      dup3\n        /* \"#utility.yul\":1359:1368   */\n      dup6\n        /* \"#utility.yul\":1355:1377   */\n      add\n        /* \"#utility.yul\":1334:1387   */\n      tag_199\n      jump\t// in\n    tag_217:\n        /* \"#utility.yul\":1324:1387   */\n      swap2\n      pop\n        /* \"#utility.yul\":1280:1397   */\n      pop\n        /* \"#utility.yul\":1075:1404   */\n      swap3\n      swap2\n      pop\n      pop\n      jump\t// out\n        /* \"#utility.yul\":1410:1919   */\n    tag_38:\n        /* \"#utility.yul\":1479:1485   */\n      0x00\n        /* \"#utility.yul\":1528:1530   */\n      0x20\n        /* \"#utility.yul\":1516:1525   */\n      dup3\n        /* \"#utility.yul\":1507:1514   */\n      dup5\n        /* \"#utility.yul\":1503:1526   */\n      sub\n        /* \"#utility.yul\":1499:1531   */\n      slt\n        /* \"#utility.yul\":1496:1615   */\n      iszero\n      tag_219\n      jumpi\n        /* \"#utility.yul\":1534:1613   */\n      tag_220\n      tag_216\n      jump\t// in\n    tag_220:\n        /* \"#utility.yul\":1496:1615   */\n    tag_219:\n        /* \"#utility.yul\":1682:1683   */\n      0x00\n        /* \"#utility.yul\":1671:1680   */\n      dup3\n        /* \"#utility.yul\":1667:1684   */\n      add\n        /* \"#utility.yul\":1654:1685   */\n      calldataload\n        /* \"#utility.yul\":1712:1730   */\n      0xffffffffffffffff\n        /* \"#utility.yul\":1704:1710   */\n      dup2\n        /* \"#utility.yul\":1701:1731   */\n      gt\n        /* \"#utility.yul\":1698:1815   */\n      iszero\n      tag_221\n      jumpi\n        /* \"#utility.yul\":1734:1813   */\n      tag_222\n      tag_223\n      jump\t// in\n    tag_222:\n        /* \"#utility.yul\":1698:1815   */\n    tag_221:\n        /* \"#utility.yul\":1839:1902   */\n      tag_224\n        /* \"#utility.yul\":1894:1901   */\n      dup5\n        /* \"#utility.yul\":1885:1891   */\n      dup3\n        /* \"#utility.yul\":1874:1883   */\n      dup6\n        /* \"#utility.yul\":1870:1892   */\n      add\n        /* \"#utility.yul\":1839:1902   */\n      tag_203\n      jump\t// in\n    tag_224:\n        /* \"#utility.yul\":1829:1902   */\n      swap2\n      pop\n        /* \"#utility.yul\":1625:1912   */\n      pop\n        /* \"#utility.yul\":1410:1919   */\n      swap3\n      swap2\n      pop\n      pop\n      jump\t// out\n        /* \"#utility.yul\":1925:2254   */\n    tag_24:\n        /* \"#utility.yul\":1984:1990   */\n      0x00\n        /* \"#utility.yul\":2033:2035   */\n      0x20\n        /* \"#utility.yul\":2021:2030   */\n      dup3\n        /* \"#utility.yul\":2012:2019   */\n      dup5\n        /* \"#utility.yul\":2008:2031   */\n      sub\n        /* \"#utility.yul\":2004:2036   */\n      slt\n        /* \"#utility.yul\":2001:2120   */\n      iszero\n      tag_226\n      jumpi\n        /* \"#utility.yul\":2039:2118   */\n      tag_227\n      tag_216\n      jump\t// in\n    tag_227:\n        /* \"#utility.yul\":2001:2120   */\n    tag_226:\n        /* \"#utility.yul\":2159:2160   */\n      0x00\n        /* \"#utility.yul\":2184:2237   */\n      tag_228\n        /* \"#utility.yul\":2229:2236   */\n      dup5\n        /* \"#utility.yul\":2220:2226   */\n      dup3\n        /* \"#utility.yul\":2209:2218   */\n      dup6\n        /* \"#utility.yul\":2205:2227   */\n      add\n        /* \"#utility.yul\":2184:2237   */\n      tag_209\n      jump\t// in\n    tag_228:\n        /* \"#utility.yul\":2174:2237   */\n      swap2\n      pop\n        /* \"#utility.yul\":2130:2247   */\n      pop\n        /* \"#utility.yul\":1925:2254   */\n      swap3\n      swap2\n      pop\n      pop\n      jump\t// out\n        /* \"#utility.yul\":2260:2519   */\n    tag_229:\n        /* \"#utility.yul\":2369:2379   */\n      0x00\n        /* \"#utility.yul\":2390:2476   */\n      tag_231\n        /* \"#utility.yul\":2472:2475   */\n      dup4\n        /* \"#utility.yul\":2464:2470   */\n      dup4\n        /* \"#utility.yul\":2390:2476   */\n      tag_232\n      jump\t// in\n    tag_231:\n        /* \"#utility.yul\":2508:2512   */\n      0x60\n        /* \"#utility.yul\":2503:2506   */\n      dup4\n        /* \"#utility.yul\":2499:2513   */\n      add\n        /* \"#utility.yul\":2485:2513   */\n      swap1\n      pop\n        /* \"#utility.yul\":2260:2519   */\n      swap3\n      swap2\n      pop\n      pop\n      jump\t// out\n        /* \"#utility.yul\":2525:2633   */\n    tag_233:\n        /* \"#utility.yul\":2602:2626   */\n      tag_235\n        /* \"#utility.yul\":2620:2625   */\n      dup2\n        /* \"#utility.yul\":2602:2626   */\n      tag_236\n      jump\t// in\n    tag_235:\n        /* \"#utility.yul\":2597:2600   */\n      dup3\n        /* \"#utility.yul\":2590:2627   */\n      mstore\n        /* \"#utility.yul\":2525:2633   */\n      pop\n      pop\n      jump\t// out\n        /* \"#utility.yul\":2639:2757   */\n    tag_237:\n        /* \"#utility.yul\":2726:2750   */\n      tag_239\n        /* \"#utility.yul\":2744:2749   */\n      dup2\n        /* \"#utility.yul\":2726:2750   */\n      tag_236\n      jump\t// in\n    tag_239:\n        /* \"#utility.yul\":2721:2724   */\n      dup3\n        /* \"#utility.yul\":2714:2751   */\n      mstore\n        /* \"#utility.yul\":2639:2757   */\n      pop\n      pop\n      jump\t// out\n        /* \"#utility.yul\":2839:3731   */\n    tag_240:\n        /* \"#utility.yul\":2998:3001   */\n      0x00\n        /* \"#utility.yul\":3027:3101   */\n      tag_242\n        /* \"#utility.yul\":3095:3100   */\n      dup3\n        /* \"#utility.yul\":3027:3101   */\n      tag_243\n      jump\t// in\n    tag_242:\n        /* \"#utility.yul\":3117:3223   */\n      tag_244\n        /* \"#utility.yul\":3216:3222   */\n      dup2\n        /* \"#utility.yul\":3211:3214   */\n      dup6\n        /* \"#utility.yul\":3117:3223   */\n      tag_245\n      jump\t// in\n    tag_244:\n        /* \"#utility.yul\":3110:3223   */\n      swap4\n      pop\n        /* \"#utility.yul\":3247:3323   */\n      tag_246\n        /* \"#utility.yul\":3317:3322   */\n      dup4\n        /* \"#utility.yul\":3247:3323   */\n      tag_247\n      jump\t// in\n    tag_246:\n        /* \"#utility.yul\":3346:3353   */\n      dup1\n        /* \"#utility.yul\":3377:3378   */\n      0x00\n        /* \"#utility.yul\":3362:3706   */\n    tag_248:\n        /* \"#utility.yul\":3387:3393   */\n      dup4\n        /* \"#utility.yul\":3384:3385   */\n      dup2\n        /* \"#utility.yul\":3381:3394   */\n      lt\n        /* \"#utility.yul\":3362:3706   */\n      iszero\n      tag_250\n      jumpi\n        /* \"#utility.yul\":3463:3469   */\n      dup2\n        /* \"#utility.yul\":3457:3470   */\n      mload\n        /* \"#utility.yul\":3490:3593   */\n      tag_251\n        /* \"#utility.yul\":3589:3592   */\n      dup9\n        /* \"#utility.yul\":3574:3587   */\n      dup3\n        /* \"#utility.yul\":3490:3593   */\n      tag_229\n      jump\t// in\n    tag_251:\n        /* \"#utility.yul\":3483:3593   */\n      swap8\n      pop\n        /* \"#utility.yul\":3616:3696   */\n      tag_252\n        /* \"#utility.yul\":3689:3695   */\n      dup4\n        /* \"#utility.yul\":3616:3696   */\n      tag_253\n      jump\t// in\n    tag_252:\n        /* \"#utility.yul\":3606:3696   */\n      swap3\n      pop\n        /* \"#utility.yul\":3422:3706   */\n      pop\n        /* \"#utility.yul\":3409:3410   */\n      0x01\n        /* \"#utility.yul\":3406:3407   */\n      dup2\n        /* \"#utility.yul\":3402:3411   */\n      add\n        /* \"#utility.yul\":3397:3411   */\n      swap1\n      pop\n        /* \"#utility.yul\":3362:3706   */\n      jump(tag_248)\n    tag_250:\n        /* \"#utility.yul\":3366:3380   */\n      pop\n        /* \"#utility.yul\":3722:3725   */\n      dup6\n        /* \"#utility.yul\":3715:3725   */\n      swap4\n      pop\n        /* \"#utility.yul\":3003:3731   */\n      pop\n      pop\n      pop\n        /* \"#utility.yul\":2839:3731   */\n      swap3\n      swap2\n      pop\n      pop\n      jump\t// out\n        /* \"#utility.yul\":3737:3836   */\n    tag_254:\n        /* \"#utility.yul\":3808:3829   */\n      tag_256\n        /* \"#utility.yul\":3823:3828   */\n      dup2\n        /* \"#utility.yul\":3808:3829   */\n      tag_257\n      jump\t// in\n    tag_256:\n        /* \"#utility.yul\":3803:3806   */\n      dup3\n        /* \"#utility.yul\":3796:3830   */\n      mstore\n        /* \"#utility.yul\":3737:3836   */\n      pop\n      pop\n      jump\t// out\n        /* \"#utility.yul\":3842:3951   */\n    tag_258:\n        /* \"#utility.yul\":3923:3944   */\n      tag_260\n        /* \"#utility.yul\":3938:3943   */\n      dup2\n        /* \"#utility.yul\":3923:3944   */\n      tag_257\n      jump\t// in\n    tag_260:\n        /* \"#utility.yul\":3918:3921   */\n      dup3\n        /* \"#utility.yul\":3911:3945   */\n      mstore\n        /* \"#utility.yul\":3842:3951   */\n      pop\n      pop\n      jump\t// out\n        /* \"#utility.yul\":3957:4075   */\n    tag_261:\n        /* \"#utility.yul\":4044:4068   */\n      tag_263\n        /* \"#utility.yul\":4062:4067   */\n      dup2\n        /* \"#utility.yul\":4044:4068   */\n      tag_264\n      jump\t// in\n    tag_263:\n        /* \"#utility.yul\":4039:4042   */\n      dup3\n        /* \"#utility.yul\":4032:4069   */\n      mstore\n        /* \"#utility.yul\":3957:4075   */\n      pop\n      pop\n      jump\t// out\n        /* \"#utility.yul\":4081:4425   */\n    tag_265:\n        /* \"#utility.yul\":4159:4162   */\n      0x00\n        /* \"#utility.yul\":4187:4226   */\n      tag_267\n        /* \"#utility.yul\":4220:4225   */\n      dup3\n        /* \"#utility.yul\":4187:4226   */\n      tag_268\n      jump\t// in\n    tag_267:\n        /* \"#utility.yul\":4242:4303   */\n      tag_269\n        /* \"#utility.yul\":4296:4302   */\n      dup2\n        /* \"#utility.yul\":4291:4294   */\n      dup6\n        /* \"#utility.yul\":4242:4303   */\n      tag_270\n      jump\t// in\n    tag_269:\n        /* \"#utility.yul\":4235:4303   */\n      swap4\n      pop\n        /* \"#utility.yul\":4312:4364   */\n      tag_271\n        /* \"#utility.yul\":4357:4363   */\n      dup2\n        /* \"#utility.yul\":4352:4355   */\n      dup6\n        /* \"#utility.yul\":4345:4349   */\n      0x20\n        /* \"#utility.yul\":4338:4343   */\n      dup7\n        /* \"#utility.yul\":4334:4350   */\n      add\n        /* \"#utility.yul\":4312:4364   */\n      tag_272\n      jump\t// in\n    tag_271:\n        /* \"#utility.yul\":4389:4418   */\n      tag_273\n        /* \"#utility.yul\":4411:4417   */\n      dup2\n        /* \"#utility.yul\":4389:4418   */\n      tag_274\n      jump\t// in\n    tag_273:\n        /* \"#utility.yul\":4384:4387   */\n      dup5\n        /* \"#utility.yul\":4380:4419   */\n      add\n        /* \"#utility.yul\":4373:4419   */\n      swap2\n      pop\n        /* \"#utility.yul\":4163:4425   */\n      pop\n        /* \"#utility.yul\":4081:4425   */\n      swap3\n      swap2\n      pop\n      pop\n      jump\t// out\n        /* \"#utility.yul\":4431:4795   */\n    tag_275:\n        /* \"#utility.yul\":4519:4522   */\n      0x00\n        /* \"#utility.yul\":4547:4586   */\n      tag_277\n        /* \"#utility.yul\":4580:4585   */\n      dup3\n        /* \"#utility.yul\":4547:4586   */\n      tag_268\n      jump\t// in\n    tag_277:\n        /* \"#utility.yul\":4602:4673   */\n      tag_278\n        /* \"#utility.yul\":4666:4672   */\n      dup2\n        /* \"#utility.yul\":4661:4664   */\n      dup6\n        /* \"#utility.yul\":4602:4673   */\n      tag_279\n      jump\t// in\n    tag_278:\n        /* \"#utility.yul\":4595:4673   */\n      swap4\n      pop\n        /* \"#utility.yul\":4682:4734   */\n      tag_280\n        /* \"#utility.yul\":4727:4733   */\n      dup2\n        /* \"#utility.yul\":4722:4725   */\n      dup6\n        /* \"#utility.yul\":4715:4719   */\n      0x20\n        /* \"#utility.yul\":4708:4713   */\n      dup7\n        /* \"#utility.yul\":4704:4720   */\n      add\n        /* \"#utility.yul\":4682:4734   */\n      tag_272\n      jump\t// in\n    tag_280:\n        /* \"#utility.yul\":4759:4788   */\n      tag_281\n        /* \"#utility.yul\":4781:4787   */\n      dup2\n        /* \"#utility.yul\":4759:4788   */\n      tag_274\n      jump\t// in\n    tag_281:\n        /* \"#utility.yul\":4754:4757   */\n      dup5\n        /* \"#utility.yul\":4750:4789   */\n      add\n        /* \"#utility.yul\":4743:4789   */\n      swap2\n      pop\n        /* \"#utility.yul\":4523:4795   */\n      pop\n        /* \"#utility.yul\":4431:4795   */\n      swap3\n      swap2\n      pop\n      pop\n      jump\t// out\n        /* \"#utility.yul\":4801:5167   */\n    tag_282:\n        /* \"#utility.yul\":4943:4946   */\n      0x00\n        /* \"#utility.yul\":4964:5031   */\n      tag_284\n        /* \"#utility.yul\":5028:5030   */\n      0x1f\n        /* \"#utility.yul\":5023:5026   */\n      dup4\n        /* \"#utility.yul\":4964:5031   */\n      tag_279\n      jump\t// in\n    tag_284:\n        /* \"#utility.yul\":4957:5031   */\n      swap2\n      pop\n        /* \"#utility.yul\":5040:5133   */\n      tag_285\n        /* \"#utility.yul\":5129:5132   */\n      dup3\n        /* \"#utility.yul\":5040:5133   */\n      tag_286\n      jump\t// in\n    tag_285:\n        /* \"#utility.yul\":5158:5160   */\n      0x20\n        /* \"#utility.yul\":5153:5156   */\n      dup3\n        /* \"#utility.yul\":5149:5161   */\n      add\n        /* \"#utility.yul\":5142:5161   */\n      swap1\n      pop\n        /* \"#utility.yul\":4801:5167   */\n      swap2\n      swap1\n      pop\n      jump\t// out\n        /* \"#utility.yul\":5173:5539   */\n    tag_287:\n        /* \"#utility.yul\":5315:5318   */\n      0x00\n        /* \"#utility.yul\":5336:5403   */\n      tag_289\n        /* \"#utility.yul\":5400:5402   */\n      0x26\n        /* \"#utility.yul\":5395:5398   */\n      dup4\n        /* \"#utility.yul\":5336:5403   */\n      tag_279\n      jump\t// in\n    tag_289:\n        /* \"#utility.yul\":5329:5403   */\n      swap2\n      pop\n        /* \"#utility.yul\":5412:5505   */\n      tag_290\n        /* \"#utility.yul\":5501:5504   */\n      dup3\n        /* \"#utility.yul\":5412:5505   */\n      tag_291\n      jump\t// in\n    tag_290:\n        /* \"#utility.yul\":5530:5532   */\n      0x40\n        /* \"#utility.yul\":5525:5528   */\n      dup3\n        /* \"#utility.yul\":5521:5533   */\n      add\n        /* \"#utility.yul\":5514:5533   */\n      swap1\n      pop\n        /* \"#utility.yul\":5173:5539   */\n      swap2\n      swap1\n      pop\n      jump\t// out\n        /* \"#utility.yul\":5545:5911   */\n    tag_292:\n        /* \"#utility.yul\":5687:5690   */\n      0x00\n        /* \"#utility.yul\":5708:5775   */\n      tag_294\n        /* \"#utility.yul\":5772:5774   */\n      0x1c\n        /* \"#utility.yul\":5767:5770   */\n      dup4\n        /* \"#utility.yul\":5708:5775   */\n      tag_279\n      jump\t// in\n    tag_294:\n        /* \"#utility.yul\":5701:5775   */\n      swap2\n      pop\n        /* \"#utility.yul\":5784:5877   */\n      tag_295\n        /* \"#utility.yul\":5873:5876   */\n      dup3\n        /* \"#utility.yul\":5784:5877   */\n      tag_296\n      jump\t// in\n    tag_295:\n        /* \"#utility.yul\":5902:5904   */\n      0x20\n        /* \"#utility.yul\":5897:5900   */\n      dup3\n        /* \"#utility.yul\":5893:5905   */\n      add\n        /* \"#utility.yul\":5886:5905   */\n      swap1\n      pop\n        /* \"#utility.yul\":5545:5911   */\n      swap2\n      swap1\n      pop\n      jump\t// out\n        /* \"#utility.yul\":5917:6283   */\n    tag_297:\n        /* \"#utility.yul\":6059:6062   */\n      0x00\n        /* \"#utility.yul\":6080:6147   */\n      tag_299\n        /* \"#utility.yul\":6144:6146   */\n      0x15\n        /* \"#utility.yul\":6139:6142   */\n      dup4\n        /* \"#utility.yul\":6080:6147   */\n      tag_279\n      jump\t// in\n    tag_299:\n        /* \"#utility.yul\":6073:6147   */\n      swap2\n      pop\n        /* \"#utility.yul\":6156:6249   */\n      tag_300\n        /* \"#utility.yul\":6245:6248   */\n      dup3\n        /* \"#utility.yul\":6156:6249   */\n      tag_301\n      jump\t// in\n    tag_300:\n        /* \"#utility.yul\":6274:6276   */\n      0x20\n        /* \"#utility.yul\":6269:6272   */\n      dup3\n        /* \"#utility.yul\":6265:6277   */\n      add\n        /* \"#utility.yul\":6258:6277   */\n      swap1\n      pop\n        /* \"#utility.yul\":5917:6283   */\n      swap2\n      swap1\n      pop\n      jump\t// out\n        /* \"#utility.yul\":6289:6655   */\n    tag_302:\n        /* \"#utility.yul\":6431:6434   */\n      0x00\n        /* \"#utility.yul\":6452:6519   */\n      tag_304\n        /* \"#utility.yul\":6516:6518   */\n      0x1e\n        /* \"#utility.yul\":6511:6514   */\n      dup4\n        /* \"#utility.yul\":6452:6519   */\n      tag_279\n      jump\t// in\n    tag_304:\n        /* \"#utility.yul\":6445:6519   */\n      swap2\n      pop\n        /* \"#utility.yul\":6528:6621   */\n      tag_305\n        /* \"#utility.yul\":6617:6620   */\n      dup3\n        /* \"#utility.yul\":6528:6621   */\n      tag_306\n      jump\t// in\n    tag_305:\n        /* \"#utility.yul\":6646:6648   */\n      0x20\n        /* \"#utility.yul\":6641:6644   */\n      dup3\n        /* \"#utility.yul\":6637:6649   */\n      add\n        /* \"#utility.yul\":6630:6649   */\n      swap1\n      pop\n        /* \"#utility.yul\":6289:6655   */\n      swap2\n      swap1\n      pop\n      jump\t// out\n        /* \"#utility.yul\":6661:7027   */\n    tag_307:\n        /* \"#utility.yul\":6803:6806   */\n      0x00\n        /* \"#utility.yul\":6824:6891   */\n      tag_309\n        /* \"#utility.yul\":6888:6890   */\n      0x24\n        /* \"#utility.yul\":6883:6886   */\n      dup4\n        /* \"#utility.yul\":6824:6891   */\n      tag_279\n      jump\t// in\n    tag_309:\n        /* \"#utility.yul\":6817:6891   */\n      swap2\n      pop\n        /* \"#utility.yul\":6900:6993   */\n      tag_310\n        /* \"#utility.yul\":6989:6992   */\n      dup3\n        /* \"#utility.yul\":6900:6993   */\n      tag_311\n      jump\t// in\n    tag_310:\n        /* \"#utility.yul\":7018:7020   */\n      0x40\n        /* \"#utility.yul\":7013:7016   */\n      dup3\n        /* \"#utility.yul\":7009:7021   */\n      add\n        /* \"#utility.yul\":7002:7021   */\n      swap1\n      pop\n        /* \"#utility.yul\":6661:7027   */\n      swap2\n      swap1\n      pop\n      jump\t// out\n        /* \"#utility.yul\":7033:7399   */\n    tag_312:\n        /* \"#utility.yul\":7175:7178   */\n      0x00\n        /* \"#utility.yul\":7196:7263   */\n      tag_314\n        /* \"#utility.yul\":7260:7262   */\n      0x28\n        /* \"#utility.yul\":7255:7258   */\n      dup4\n        /* \"#utility.yul\":7196:7263   */\n      tag_279\n      jump\t// in\n    tag_314:\n        /* \"#utility.yul\":7189:7263   */\n      swap2\n      pop\n        /* \"#utility.yul\":7272:7365   */\n      tag_315\n        /* \"#utility.yul\":7361:7364   */\n      dup3\n        /* \"#utility.yul\":7272:7365   */\n      tag_316\n      jump\t// in\n    tag_315:\n        /* \"#utility.yul\":7390:7392   */\n      0x40\n        /* \"#utility.yul\":7385:7388   */\n      dup3\n        /* \"#utility.yul\":7381:7393   */\n      add\n        /* \"#utility.yul\":7374:7393   */\n      swap1\n      pop\n        /* \"#utility.yul\":7033:7399   */\n      swap2\n      swap1\n      pop\n      jump\t// out\n        /* \"#utility.yul\":7405:7771   */\n    tag_317:\n        /* \"#utility.yul\":7547:7550   */\n      0x00\n        /* \"#utility.yul\":7568:7635   */\n      tag_319\n        /* \"#utility.yul\":7632:7634   */\n      0x20\n        /* \"#utility.yul\":7627:7630   */\n      dup4\n        /* \"#utility.yul\":7568:7635   */\n      tag_279\n      jump\t// in\n    tag_319:\n        /* \"#utility.yul\":7561:7635   */\n      swap2\n      pop\n        /* \"#utility.yul\":7644:7737   */\n      tag_320\n        /* \"#utility.yul\":7733:7736   */\n      dup3\n        /* \"#utility.yul\":7644:7737   */\n      tag_321\n      jump\t// in\n    tag_320:\n        /* \"#utility.yul\":7762:7764   */\n      0x20\n        /* \"#utility.yul\":7757:7760   */\n      dup3\n        /* \"#utility.yul\":7753:7765   */\n      add\n        /* \"#utility.yul\":7746:7765   */\n      swap1\n      pop\n        /* \"#utility.yul\":7405:7771   */\n      swap2\n      swap1\n      pop\n      jump\t// out\n        /* \"#utility.yul\":7777:8143   */\n    tag_322:\n        /* \"#utility.yul\":7919:7922   */\n      0x00\n        /* \"#utility.yul\":7940:8007   */\n      tag_324\n        /* \"#utility.yul\":8004:8006   */\n      0x12\n        /* \"#utility.yul\":7999:8002   */\n      dup4\n        /* \"#utility.yul\":7940:8007   */\n      tag_279\n      jump\t// in\n    tag_324:\n        /* \"#utility.yul\":7933:8007   */\n      swap2\n      pop\n        /* \"#utility.yul\":8016:8109   */\n      tag_325\n        /* \"#utility.yul\":8105:8108   */\n      dup3\n        /* \"#utility.yul\":8016:8109   */\n      tag_326\n      jump\t// in\n    tag_325:\n        /* \"#utility.yul\":8134:8136   */\n      0x20\n        /* \"#utility.yul\":8129:8132   */\n      dup3\n        /* \"#utility.yul\":8125:8137   */\n      add\n        /* \"#utility.yul\":8118:8137   */\n      swap1\n      pop\n        /* \"#utility.yul\":7777:8143   */\n      swap2\n      swap1\n      pop\n      jump\t// out\n        /* \"#utility.yul\":8149:8515   */\n    tag_327:\n        /* \"#utility.yul\":8291:8294   */\n      0x00\n        /* \"#utility.yul\":8312:8379   */\n      tag_329\n        /* \"#utility.yul\":8376:8378   */\n      0x25\n        /* \"#utility.yul\":8371:8374   */\n      dup4\n        /* \"#utility.yul\":8312:8379   */\n      tag_279\n      jump\t// in\n    tag_329:\n        /* \"#utility.yul\":8305:8379   */\n      swap2\n      pop\n        /* \"#utility.yul\":8388:8481   */\n      tag_330\n        /* \"#utility.yul\":8477:8480   */\n      dup3\n        /* \"#utility.yul\":8388:8481   */\n      tag_331\n      jump\t// in\n    tag_330:\n        /* \"#utility.yul\":8506:8508   */\n      0x40\n        /* \"#utility.yul\":8501:8504   */\n      dup3\n        /* \"#utility.yul\":8497:8509   */\n      add\n        /* \"#utility.yul\":8490:8509   */\n      swap1\n      pop\n        /* \"#utility.yul\":8149:8515   */\n      swap2\n      swap1\n      pop\n      jump\t// out\n        /* \"#utility.yul\":8599:9213   */\n    tag_332:\n        /* \"#utility.yul\":8716:8719   */\n      0x00\n        /* \"#utility.yul\":8752:8756   */\n      0x40\n        /* \"#utility.yul\":8747:8750   */\n      dup4\n        /* \"#utility.yul\":8743:8757   */\n      add\n        /* \"#utility.yul\":8844:8848   */\n      0x00\n        /* \"#utility.yul\":8837:8842   */\n      dup4\n        /* \"#utility.yul\":8833:8849   */\n      add\n        /* \"#utility.yul\":8827:8850   */\n      mload\n        /* \"#utility.yul\":8863:8926   */\n      tag_334\n        /* \"#utility.yul\":8920:8924   */\n      0x00\n        /* \"#utility.yul\":8915:8918   */\n      dup7\n        /* \"#utility.yul\":8911:8925   */\n      add\n        /* \"#utility.yul\":8897:8909   */\n      dup3\n        /* \"#utility.yul\":8863:8926   */\n      tag_335\n      jump\t// in\n    tag_334:\n        /* \"#utility.yul\":8767:8936   */\n      pop\n        /* \"#utility.yul\":9023:9027   */\n      0x20\n        /* \"#utility.yul\":9016:9021   */\n      dup4\n        /* \"#utility.yul\":9012:9028   */\n      add\n        /* \"#utility.yul\":9006:9029   */\n      mload\n        /* \"#utility.yul\":9076:9079   */\n      dup5\n        /* \"#utility.yul\":9070:9074   */\n      dup3\n        /* \"#utility.yul\":9066:9080   */\n      sub\n        /* \"#utility.yul\":9059:9063   */\n      0x20\n        /* \"#utility.yul\":9054:9057   */\n      dup7\n        /* \"#utility.yul\":9050:9064   */\n      add\n        /* \"#utility.yul\":9043:9081   */\n      mstore\n        /* \"#utility.yul\":9102:9175   */\n      tag_336\n        /* \"#utility.yul\":9170:9174   */\n      dup3\n        /* \"#utility.yul\":9156:9168   */\n      dup3\n        /* \"#utility.yul\":9102:9175   */\n      tag_265\n      jump\t// in\n    tag_336:\n        /* \"#utility.yul\":9094:9175   */\n      swap2\n      pop\n        /* \"#utility.yul\":8946:9186   */\n      pop\n        /* \"#utility.yul\":9203:9207   */\n      dup1\n        /* \"#utility.yul\":9196:9207   */\n      swap2\n      pop\n        /* \"#utility.yul\":8721:9213   */\n      pop\n        /* \"#utility.yul\":8599:9213   */\n      swap3\n      swap2\n      pop\n      pop\n      jump\t// out\n        /* \"#utility.yul\":9291:9946   */\n    tag_232:\n        /* \"#utility.yul\":9418:9422   */\n      0x60\n        /* \"#utility.yul\":9413:9416   */\n      dup3\n        /* \"#utility.yul\":9409:9423   */\n      add\n        /* \"#utility.yul\":9506:9510   */\n      0x00\n        /* \"#utility.yul\":9499:9504   */\n      dup3\n        /* \"#utility.yul\":9495:9511   */\n      add\n        /* \"#utility.yul\":9489:9512   */\n      mload\n        /* \"#utility.yul\":9525:9582   */\n      tag_338\n        /* \"#utility.yul\":9576:9580   */\n      0x00\n        /* \"#utility.yul\":9571:9574   */\n      dup6\n        /* \"#utility.yul\":9567:9581   */\n      add\n        /* \"#utility.yul\":9553:9565   */\n      dup3\n        /* \"#utility.yul\":9525:9582   */\n      tag_254\n      jump\t// in\n    tag_338:\n        /* \"#utility.yul\":9433:9592   */\n      pop\n        /* \"#utility.yul\":9674:9678   */\n      0x20\n        /* \"#utility.yul\":9667:9672   */\n      dup3\n        /* \"#utility.yul\":9663:9679   */\n      add\n        /* \"#utility.yul\":9657:9680   */\n      mload\n        /* \"#utility.yul\":9693:9750   */\n      tag_339\n        /* \"#utility.yul\":9744:9748   */\n      0x20\n        /* \"#utility.yul\":9739:9742   */\n      dup6\n        /* \"#utility.yul\":9735:9749   */\n      add\n        /* \"#utility.yul\":9721:9733   */\n      dup3\n        /* \"#utility.yul\":9693:9750   */\n      tag_254\n      jump\t// in\n    tag_339:\n        /* \"#utility.yul\":9602:9760   */\n      pop\n        /* \"#utility.yul\":9847:9851   */\n      0x40\n        /* \"#utility.yul\":9840:9845   */\n      dup3\n        /* \"#utility.yul\":9836:9852   */\n      add\n        /* \"#utility.yul\":9830:9853   */\n      mload\n        /* \"#utility.yul\":9866:9929   */\n      tag_340\n        /* \"#utility.yul\":9923:9927   */\n      0x40\n        /* \"#utility.yul\":9918:9921   */\n      dup6\n        /* \"#utility.yul\":9914:9928   */\n      add\n        /* \"#utility.yul\":9900:9912   */\n      dup3\n        /* \"#utility.yul\":9866:9929   */\n      tag_233\n      jump\t// in\n    tag_340:\n        /* \"#utility.yul\":9770:9939   */\n      pop\n        /* \"#utility.yul\":9387:9946   */\n      pop\n        /* \"#utility.yul\":9291:9946   */\n      pop\n      pop\n      jump\t// out\n        /* \"#utility.yul\":9952:10060   */\n    tag_335:\n        /* \"#utility.yul\":10029:10053   */\n      tag_342\n        /* \"#utility.yul\":10047:10052   */\n      dup2\n        /* \"#utility.yul\":10029:10053   */\n      tag_343\n      jump\t// in\n    tag_342:\n        /* \"#utility.yul\":10024:10027   */\n      dup3\n        /* \"#utility.yul\":10017:10054   */\n      mstore\n        /* \"#utility.yul\":9952:10060   */\n      pop\n      pop\n      jump\t// out\n        /* \"#utility.yul\":10066:10184   */\n    tag_344:\n        /* \"#utility.yul\":10153:10177   */\n      tag_346\n        /* \"#utility.yul\":10171:10176   */\n      dup2\n        /* \"#utility.yul\":10153:10177   */\n      tag_343\n      jump\t// in\n    tag_346:\n        /* \"#utility.yul\":10148:10151   */\n      dup3\n        /* \"#utility.yul\":10141:10178   */\n      mstore\n        /* \"#utility.yul\":10066:10184   */\n      pop\n      pop\n      jump\t// out\n        /* \"#utility.yul\":10190:10412   */\n    tag_27:\n        /* \"#utility.yul\":10283:10287   */\n      0x00\n        /* \"#utility.yul\":10321:10323   */\n      0x20\n        /* \"#utility.yul\":10310:10319   */\n      dup3\n        /* \"#utility.yul\":10306:10324   */\n      add\n        /* \"#utility.yul\":10298:10324   */\n      swap1\n      pop\n        /* \"#utility.yul\":10334:10405   */\n      tag_348\n        /* \"#utility.yul\":10402:10403   */\n      0x00\n        /* \"#utility.yul\":10391:10400   */\n      dup4\n        /* \"#utility.yul\":10387:10404   */\n      add\n        /* \"#utility.yul\":10378:10384   */\n      dup5\n        /* \"#utility.yul\":10334:10405   */\n      tag_237\n      jump\t// in\n    tag_348:\n        /* \"#utility.yul\":10190:10412   */\n      swap3\n      swap2\n      pop\n      pop\n      jump\t// out\n        /* \"#utility.yul\":10418:10628   */\n    tag_80:\n        /* \"#utility.yul\":10505:10509   */\n      0x00\n        /* \"#utility.yul\":10543:10545   */\n      0x20\n        /* \"#utility.yul\":10532:10541   */\n      dup3\n        /* \"#utility.yul\":10528:10546   */\n      add\n        /* \"#utility.yul\":10520:10546   */\n      swap1\n      pop\n        /* \"#utility.yul\":10556:10621   */\n      tag_350\n        /* \"#utility.yul\":10618:10619   */\n      0x00\n        /* \"#utility.yul\":10607:10616   */\n      dup4\n        /* \"#utility.yul\":10603:10620   */\n      add\n        /* \"#utility.yul\":10594:10600   */\n      dup5\n        /* \"#utility.yul\":10556:10621   */\n      tag_258\n      jump\t// in\n    tag_350:\n        /* \"#utility.yul\":10418:10628   */\n      swap3\n      swap2\n      pop\n      pop\n      jump\t// out\n        /* \"#utility.yul\":10634:11052   */\n    tag_44:\n        /* \"#utility.yul\":10771:10775   */\n      0x00\n        /* \"#utility.yul\":10809:10811   */\n      0x60\n        /* \"#utility.yul\":10798:10807   */\n      dup3\n        /* \"#utility.yul\":10794:10812   */\n      add\n        /* \"#utility.yul\":10786:10812   */\n      swap1\n      pop\n        /* \"#utility.yul\":10822:10887   */\n      tag_352\n        /* \"#utility.yul\":10884:10885   */\n      0x00\n        /* \"#utility.yul\":10873:10882   */\n      dup4\n        /* \"#utility.yul\":10869:10886   */\n      add\n        /* \"#utility.yul\":10860:10866   */\n      dup7\n        /* \"#utility.yul\":10822:10887   */\n      tag_258\n      jump\t// in\n    tag_352:\n        /* \"#utility.yul\":10897:10963   */\n      tag_353\n        /* \"#utility.yul\":10959:10961   */\n      0x20\n        /* \"#utility.yul\":10948:10957   */\n      dup4\n        /* \"#utility.yul\":10944:10962   */\n      add\n        /* \"#utility.yul\":10935:10941   */\n      dup6\n        /* \"#utility.yul\":10897:10963   */\n      tag_258\n      jump\t// in\n    tag_353:\n        /* \"#utility.yul\":10973:11045   */\n      tag_354\n        /* \"#utility.yul\":11041:11043   */\n      0x40\n        /* \"#utility.yul\":11030:11039   */\n      dup4\n        /* \"#utility.yul\":11026:11044   */\n      add\n        /* \"#utility.yul\":11017:11023   */\n      dup5\n        /* \"#utility.yul\":10973:11045   */\n      tag_237\n      jump\t// in\n    tag_354:\n        /* \"#utility.yul\":10634:11052   */\n      swap5\n      swap4\n      pop\n      pop\n      pop\n      pop\n      jump\t// out\n        /* \"#utility.yul\":11058:11878   */\n    tag_59:\n        /* \"#utility.yul\":11345:11349   */\n      0x00\n        /* \"#utility.yul\":11383:11385   */\n      0x60\n        /* \"#utility.yul\":11372:11381   */\n      dup3\n        /* \"#utility.yul\":11368:11386   */\n      add\n        /* \"#utility.yul\":11360:11386   */\n      swap1\n      pop\n        /* \"#utility.yul\":11396:11467   */\n      tag_356\n        /* \"#utility.yul\":11464:11465   */\n      0x00\n        /* \"#utility.yul\":11453:11462   */\n      dup4\n        /* \"#utility.yul\":11449:11466   */\n      add\n        /* \"#utility.yul\":11440:11446   */\n      dup7\n        /* \"#utility.yul\":11396:11467   */\n      tag_261\n      jump\t// in\n    tag_356:\n        /* \"#utility.yul\":11514:11523   */\n      dup2\n        /* \"#utility.yul\":11508:11512   */\n      dup2\n        /* \"#utility.yul\":11504:11524   */\n      sub\n        /* \"#utility.yul\":11499:11501   */\n      0x20\n        /* \"#utility.yul\":11488:11497   */\n      dup4\n        /* \"#utility.yul\":11484:11502   */\n      add\n        /* \"#utility.yul\":11477:11525   */\n      mstore\n        /* \"#utility.yul\":11542:11648   */\n      tag_357\n        /* \"#utility.yul\":11643:11647   */\n      dup2\n        /* \"#utility.yul\":11634:11640   */\n      dup6\n        /* \"#utility.yul\":11542:11648   */\n      tag_332\n      jump\t// in\n    tag_357:\n        /* \"#utility.yul\":11534:11648   */\n      swap1\n      pop\n        /* \"#utility.yul\":11695:11704   */\n      dup2\n        /* \"#utility.yul\":11689:11693   */\n      dup2\n        /* \"#utility.yul\":11685:11705   */\n      sub\n        /* \"#utility.yul\":11680:11682   */\n      0x40\n        /* \"#utility.yul\":11669:11678   */\n      dup4\n        /* \"#utility.yul\":11665:11683   */\n      add\n        /* \"#utility.yul\":11658:11706   */\n      mstore\n        /* \"#utility.yul\":11723:11871   */\n      tag_358\n        /* \"#utility.yul\":11866:11870   */\n      dup2\n        /* \"#utility.yul\":11857:11863   */\n      dup5\n        /* \"#utility.yul\":11723:11871   */\n      tag_240\n      jump\t// in\n    tag_358:\n        /* \"#utility.yul\":11715:11871   */\n      swap1\n      pop\n        /* \"#utility.yul\":11058:11878   */\n      swap5\n      swap4\n      pop\n      pop\n      pop\n      pop\n      jump\t// out\n        /* \"#utility.yul\":11884:12197   */\n    tag_35:\n        /* \"#utility.yul\":11997:12001   */\n      0x00\n        /* \"#utility.yul\":12035:12037   */\n      0x20\n        /* \"#utility.yul\":12024:12033   */\n      dup3\n        /* \"#utility.yul\":12020:12038   */\n      add\n        /* \"#utility.yul\":12012:12038   */\n      swap1\n      pop\n        /* \"#utility.yul\":12084:12093   */\n      dup2\n        /* \"#utility.yul\":12078:12082   */\n      dup2\n        /* \"#utility.yul\":12074:12094   */\n      sub\n        /* \"#utility.yul\":12070:12071   */\n      0x00\n        /* \"#utility.yul\":12059:12068   */\n      dup4\n        /* \"#utility.yul\":12055:12072   */\n      add\n        /* \"#utility.yul\":12048:12095   */\n      mstore\n        /* \"#utility.yul\":12112:12190   */\n      tag_360\n        /* \"#utility.yul\":12185:12189   */\n      dup2\n        /* \"#utility.yul\":12176:12182   */\n      dup5\n        /* \"#utility.yul\":12112:12190   */\n      tag_275\n      jump\t// in\n    tag_360:\n        /* \"#utility.yul\":12104:12190   */\n      swap1\n      pop\n        /* \"#utility.yul\":11884:12197   */\n      swap3\n      swap2\n      pop\n      pop\n      jump\t// out\n        /* \"#utility.yul\":12203:12958   */\n    tag_69:\n        /* \"#utility.yul\":12428:12432   */\n      0x00\n        /* \"#utility.yul\":12466:12469   */\n      0xa0\n        /* \"#utility.yul\":12455:12464   */\n      dup3\n        /* \"#utility.yul\":12451:12470   */\n      add\n        /* \"#utility.yul\":12443:12470   */\n      swap1\n      pop\n        /* \"#utility.yul\":12516:12525   */\n      dup2\n        /* \"#utility.yul\":12510:12514   */\n      dup2\n        /* \"#utility.yul\":12506:12526   */\n      sub\n        /* \"#utility.yul\":12502:12503   */\n      0x00\n        /* \"#utility.yul\":12491:12500   */\n      dup4\n        /* \"#utility.yul\":12487:12504   */\n      add\n        /* \"#utility.yul\":12480:12527   */\n      mstore\n        /* \"#utility.yul\":12544:12622   */\n      tag_362\n        /* \"#utility.yul\":12617:12621   */\n      dup2\n        /* \"#utility.yul\":12608:12614   */\n      dup9\n        /* \"#utility.yul\":12544:12622   */\n      tag_275\n      jump\t// in\n    tag_362:\n        /* \"#utility.yul\":12536:12622   */\n      swap1\n      pop\n        /* \"#utility.yul\":12632:12704   */\n      tag_363\n        /* \"#utility.yul\":12700:12702   */\n      0x20\n        /* \"#utility.yul\":12689:12698   */\n      dup4\n        /* \"#utility.yul\":12685:12703   */\n      add\n        /* \"#utility.yul\":12676:12682   */\n      dup8\n        /* \"#utility.yul\":12632:12704   */\n      tag_344\n      jump\t// in\n    tag_363:\n        /* \"#utility.yul\":12714:12786   */\n      tag_364\n        /* \"#utility.yul\":12782:12784   */\n      0x40\n        /* \"#utility.yul\":12771:12780   */\n      dup4\n        /* \"#utility.yul\":12767:12785   */\n      add\n        /* \"#utility.yul\":12758:12764   */\n      dup7\n        /* \"#utility.yul\":12714:12786   */\n      tag_237\n      jump\t// in\n    tag_364:\n        /* \"#utility.yul\":12796:12868   */\n      tag_365\n        /* \"#utility.yul\":12864:12866   */\n      0x60\n        /* \"#utility.yul\":12853:12862   */\n      dup4\n        /* \"#utility.yul\":12849:12867   */\n      add\n        /* \"#utility.yul\":12840:12846   */\n      dup6\n        /* \"#utility.yul\":12796:12868   */\n      tag_344\n      jump\t// in\n    tag_365:\n        /* \"#utility.yul\":12878:12951   */\n      tag_366\n        /* \"#utility.yul\":12946:12949   */\n      0x80\n        /* \"#utility.yul\":12935:12944   */\n      dup4\n        /* \"#utility.yul\":12931:12950   */\n      add\n        /* \"#utility.yul\":12922:12928   */\n      dup5\n        /* \"#utility.yul\":12878:12951   */\n      tag_344\n      jump\t// in\n    tag_366:\n        /* \"#utility.yul\":12203:12958   */\n      swap7\n      swap6\n      pop\n      pop\n      pop\n      pop\n      pop\n      pop\n      jump\t// out\n        /* \"#utility.yul\":12964:13383   */\n    tag_95:\n        /* \"#utility.yul\":13130:13134   */\n      0x00\n        /* \"#utility.yul\":13168:13170   */\n      0x20\n        /* \"#utility.yul\":13157:13166   */\n      dup3\n        /* \"#utility.yul\":13153:13171   */\n      add\n        /* \"#utility.yul\":13145:13171   */\n      swap1\n      pop\n        /* \"#utility.yul\":13217:13226   */\n      dup2\n        /* \"#utility.yul\":13211:13215   */\n      dup2\n        /* \"#utility.yul\":13207:13227   */\n      sub\n        /* \"#utility.yul\":13203:13204   */\n      0x00\n        /* \"#utility.yul\":13192:13201   */\n      dup4\n        /* \"#utility.yul\":13188:13205   */\n      add\n        /* \"#utility.yul\":13181:13228   */\n      mstore\n        /* \"#utility.yul\":13245:13376   */\n      tag_368\n        /* \"#utility.yul\":13371:13375   */\n      dup2\n        /* \"#utility.yul\":13245:13376   */\n      tag_282\n      jump\t// in\n    tag_368:\n        /* \"#utility.yul\":13237:13376   */\n      swap1\n      pop\n        /* \"#utility.yul\":12964:13383   */\n      swap2\n      swap1\n      pop\n      jump\t// out\n        /* \"#utility.yul\":13389:13808   */\n    tag_158:\n        /* \"#utility.yul\":13555:13559   */\n      0x00\n        /* \"#utility.yul\":13593:13595   */\n      0x20\n        /* \"#utility.yul\":13582:13591   */\n      dup3\n        /* \"#utility.yul\":13578:13596   */\n      add\n        /* \"#utility.yul\":13570:13596   */\n      swap1\n      pop\n        /* \"#utility.yul\":13642:13651   */\n      dup2\n        /* \"#utility.yul\":13636:13640   */\n      dup2\n        /* \"#utility.yul\":13632:13652   */\n      sub\n        /* \"#utility.yul\":13628:13629   */\n      0x00\n        /* \"#utility.yul\":13617:13626   */\n      dup4\n        /* \"#utility.yul\":13613:13630   */\n      add\n        /* \"#utility.yul\":13606:13653   */\n      mstore\n        /* \"#utility.yul\":13670:13801   */\n      tag_370\n        /* \"#utility.yul\":13796:13800   */\n      dup2\n        /* \"#utility.yul\":13670:13801   */\n      tag_287\n      jump\t// in\n    tag_370:\n        /* \"#utility.yul\":13662:13801   */\n      swap1\n      pop\n        /* \"#utility.yul\":13389:13808   */\n      swap2\n      swap1\n      pop\n      jump\t// out\n        /* \"#utility.yul\":13814:14233   */\n    tag_116:\n        /* \"#utility.yul\":13980:13984   */\n      0x00\n        /* \"#utility.yul\":14018:14020   */\n      0x20\n        /* \"#utility.yul\":14007:14016   */\n      dup3\n        /* \"#utility.yul\":14003:14021   */\n      add\n        /* \"#utility.yul\":13995:14021   */\n      swap1\n      pop\n        /* \"#utility.yul\":14067:14076   */\n      dup2\n        /* \"#utility.yul\":14061:14065   */\n      dup2\n        /* \"#utility.yul\":14057:14077   */\n      sub\n        /* \"#utility.yul\":14053:14054   */\n      0x00\n        /* \"#utility.yul\":14042:14051   */\n      dup4\n        /* \"#utility.yul\":14038:14055   */\n      add\n        /* \"#utility.yul\":14031:14078   */\n      mstore\n        /* \"#utility.yul\":14095:14226   */\n      tag_372\n        /* \"#utility.yul\":14221:14225   */\n      dup2\n        /* \"#utility.yul\":14095:14226   */\n      tag_292\n      jump\t// in\n    tag_372:\n        /* \"#utility.yul\":14087:14226   */\n      swap1\n      pop\n        /* \"#utility.yul\":13814:14233   */\n      swap2\n      swap1\n      pop\n      jump\t// out\n        /* \"#utility.yul\":14239:14658   */\n    tag_92:\n        /* \"#utility.yul\":14405:14409   */\n      0x00\n        /* \"#utility.yul\":14443:14445   */\n      0x20\n        /* \"#utility.yul\":14432:14441   */\n      dup3\n        /* \"#utility.yul\":14428:14446   */\n      add\n        /* \"#utility.yul\":14420:14446   */\n      swap1\n      pop\n        /* \"#utility.yul\":14492:14501   */\n      dup2\n        /* \"#utility.yul\":14486:14490   */\n      dup2\n        /* \"#utility.yul\":14482:14502   */\n      sub\n        /* \"#utility.yul\":14478:14479   */\n      0x00\n        /* \"#utility.yul\":14467:14476   */\n      dup4\n        /* \"#utility.yul\":14463:14480   */\n      add\n        /* \"#utility.yul\":14456:14503   */\n      mstore\n        /* \"#utility.yul\":14520:14651   */\n      tag_374\n        /* \"#utility.yul\":14646:14650   */\n      dup2\n        /* \"#utility.yul\":14520:14651   */\n      tag_297\n      jump\t// in\n    tag_374:\n        /* \"#utility.yul\":14512:14651   */\n      swap1\n      pop\n        /* \"#utility.yul\":14239:14658   */\n      swap2\n      swap1\n      pop\n      jump\t// out\n        /* \"#utility.yul\":14664:15083   */\n    tag_113:\n        /* \"#utility.yul\":14830:14834   */\n      0x00\n        /* \"#utility.yul\":14868:14870   */\n      0x20\n        /* \"#utility.yul\":14857:14866   */\n      dup3\n        /* \"#utility.yul\":14853:14871   */\n      add\n        /* \"#utility.yul\":14845:14871   */\n      swap1\n      pop\n        /* \"#utility.yul\":14917:14926   */\n      dup2\n        /* \"#utility.yul\":14911:14915   */\n      dup2\n        /* \"#utility.yul\":14907:14927   */\n      sub\n        /* \"#utility.yul\":14903:14904   */\n      0x00\n        /* \"#utility.yul\":14892:14901   */\n      dup4\n        /* \"#utility.yul\":14888:14905   */\n      add\n        /* \"#utility.yul\":14881:14928   */\n      mstore\n        /* \"#utility.yul\":14945:15076   */\n      tag_376\n        /* \"#utility.yul\":15071:15075   */\n      dup2\n        /* \"#utility.yul\":14945:15076   */\n      tag_302\n      jump\t// in\n    tag_376:\n        /* \"#utility.yul\":14937:15076   */\n      swap1\n      pop\n        /* \"#utility.yul\":14664:15083   */\n      swap2\n      swap1\n      pop\n      jump\t// out\n        /* \"#utility.yul\":15089:15508   */\n    tag_98:\n        /* \"#utility.yul\":15255:15259   */\n      0x00\n        /* \"#utility.yul\":15293:15295   */\n      0x20\n        /* \"#utility.yul\":15282:15291   */\n      dup3\n        /* \"#utility.yul\":15278:15296   */\n      add\n        /* \"#utility.yul\":15270:15296   */\n      swap1\n      pop\n        /* \"#utility.yul\":15342:15351   */\n      dup2\n        /* \"#utility.yul\":15336:15340   */\n      dup2\n        /* \"#utility.yul\":15332:15352   */\n      sub\n        /* \"#utility.yul\":15328:15329   */\n      0x00\n        /* \"#utility.yul\":15317:15326   */\n      dup4\n        /* \"#utility.yul\":15313:15330   */\n      add\n        /* \"#utility.yul\":15306:15353   */\n      mstore\n        /* \"#utility.yul\":15370:15501   */\n      tag_378\n        /* \"#utility.yul\":15496:15500   */\n      dup2\n        /* \"#utility.yul\":15370:15501   */\n      tag_307\n      jump\t// in\n    tag_378:\n        /* \"#utility.yul\":15362:15501   */\n      swap1\n      pop\n        /* \"#utility.yul\":15089:15508   */\n      swap2\n      swap1\n      pop\n      jump\t// out\n        /* \"#utility.yul\":15514:15933   */\n    tag_89:\n        /* \"#utility.yul\":15680:15684   */\n      0x00\n        /* \"#utility.yul\":15718:15720   */\n      0x20\n        /* \"#utility.yul\":15707:15716   */\n      dup3\n        /* \"#utility.yul\":15703:15721   */\n      add\n        /* \"#utility.yul\":15695:15721   */\n      swap1\n      pop\n        /* \"#utility.yul\":15767:15776   */\n      dup2\n        /* \"#utility.yul\":15761:15765   */\n      dup2\n        /* \"#utility.yul\":15757:15777   */\n      sub\n        /* \"#utility.yul\":15753:15754   */\n      0x00\n        /* \"#utility.yul\":15742:15751   */\n      dup4\n        /* \"#utility.yul\":15738:15755   */\n      add\n        /* \"#utility.yul\":15731:15778   */\n      mstore\n        /* \"#utility.yul\":15795:15926   */\n      tag_380\n        /* \"#utility.yul\":15921:15925   */\n      dup2\n        /* \"#utility.yul\":15795:15926   */\n      tag_312\n      jump\t// in\n    tag_380:\n        /* \"#utility.yul\":15787:15926   */\n      swap1\n      pop\n        /* \"#utility.yul\":15514:15933   */\n      swap2\n      swap1\n      pop\n      jump\t// out\n        /* \"#utility.yul\":15939:16358   */\n    tag_140:\n        /* \"#utility.yul\":16105:16109   */\n      0x00\n        /* \"#utility.yul\":16143:16145   */\n      0x20\n        /* \"#utility.yul\":16132:16141   */\n      dup3\n        /* \"#utility.yul\":16128:16146   */\n      add\n        /* \"#utility.yul\":16120:16146   */\n      swap1\n      pop\n        /* \"#utility.yul\":16192:16201   */\n      dup2\n        /* \"#utility.yul\":16186:16190   */\n      dup2\n        /* \"#utility.yul\":16182:16202   */\n      sub\n        /* \"#utility.yul\":16178:16179   */\n      0x00\n        /* \"#utility.yul\":16167:16176   */\n      dup4\n        /* \"#utility.yul\":16163:16180   */\n      add\n        /* \"#utility.yul\":16156:16203   */\n      mstore\n        /* \"#utility.yul\":16220:16351   */\n      tag_382\n        /* \"#utility.yul\":16346:16350   */\n      dup2\n        /* \"#utility.yul\":16220:16351   */\n      tag_317\n      jump\t// in\n    tag_382:\n        /* \"#utility.yul\":16212:16351   */\n      swap1\n      pop\n        /* \"#utility.yul\":15939:16358   */\n      swap2\n      swap1\n      pop\n      jump\t// out\n        /* \"#utility.yul\":16364:16783   */\n    tag_110:\n        /* \"#utility.yul\":16530:16534   */\n      0x00\n        /* \"#utility.yul\":16568:16570   */\n      0x20\n        /* \"#utility.yul\":16557:16566   */\n      dup3\n        /* \"#utility.yul\":16553:16571   */\n      add\n        /* \"#utility.yul\":16545:16571   */\n      swap1\n      pop\n        /* \"#utility.yul\":16617:16626   */\n      dup2\n        /* \"#utility.yul\":16611:16615   */\n      dup2\n        /* \"#utility.yul\":16607:16627   */\n      sub\n        /* \"#utility.yul\":16603:16604   */\n      0x00\n        /* \"#utility.yul\":16592:16601   */\n      dup4\n        /* \"#utility.yul\":16588:16605   */\n      add\n        /* \"#utility.yul\":16581:16628   */\n      mstore\n        /* \"#utility.yul\":16645:16776   */\n      tag_384\n        /* \"#utility.yul\":16771:16775   */\n      dup2\n        /* \"#utility.yul\":16645:16776   */\n      tag_322\n      jump\t// in\n    tag_384:\n        /* \"#utility.yul\":16637:16776   */\n      swap1\n      pop\n        /* \"#utility.yul\":16364:16783   */\n      swap2\n      swap1\n      pop\n      jump\t// out\n        /* \"#utility.yul\":16789:17208   */\n    tag_154:\n        /* \"#utility.yul\":16955:16959   */\n      0x00\n        /* \"#utility.yul\":16993:16995   */\n      0x20\n        /* \"#utility.yul\":16982:16991   */\n      dup3\n        /* \"#utility.yul\":16978:16996   */\n      add\n        /* \"#utility.yul\":16970:16996   */\n      swap1\n      pop\n        /* \"#utility.yul\":17042:17051   */\n      dup2\n        /* \"#utility.yul\":17036:17040   */\n      dup2\n        /* \"#utility.yul\":17032:17052   */\n      sub\n        /* \"#utility.yul\":17028:17029   */\n      0x00\n        /* \"#utility.yul\":17017:17026   */\n      dup4\n        /* \"#utility.yul\":17013:17030   */\n      add\n        /* \"#utility.yul\":17006:17053   */\n      mstore\n        /* \"#utility.yul\":17070:17201   */\n      tag_386\n        /* \"#utility.yul\":17196:17200   */\n      dup2\n        /* \"#utility.yul\":17070:17201   */\n      tag_327\n      jump\t// in\n    tag_386:\n        /* \"#utility.yul\":17062:17201   */\n      swap1\n      pop\n        /* \"#utility.yul\":16789:17208   */\n      swap2\n      swap1\n      pop\n      jump\t// out\n        /* \"#utility.yul\":17214:17436   */\n    tag_51:\n        /* \"#utility.yul\":17307:17311   */\n      0x00\n        /* \"#utility.yul\":17345:17347   */\n      0x20\n        /* \"#utility.yul\":17334:17343   */\n      dup3\n        /* \"#utility.yul\":17330:17348   */\n      add\n        /* \"#utility.yul\":17322:17348   */\n      swap1\n      pop\n        /* \"#utility.yul\":17358:17429   */\n      tag_388\n        /* \"#utility.yul\":17426:17427   */\n      0x00\n        /* \"#utility.yul\":17415:17424   */\n      dup4\n        /* \"#utility.yul\":17411:17428   */\n      add\n        /* \"#utility.yul\":17402:17408   */\n      dup5\n        /* \"#utility.yul\":17358:17429   */\n      tag_344\n      jump\t// in\n    tag_388:\n        /* \"#utility.yul\":17214:17436   */\n      swap3\n      swap2\n      pop\n      pop\n      jump\t// out\n        /* \"#utility.yul\":17442:17865   */\n    tag_55:\n        /* \"#utility.yul\":17583:17587   */\n      0x00\n        /* \"#utility.yul\":17621:17623   */\n      0x40\n        /* \"#utility.yul\":17610:17619   */\n      dup3\n        /* \"#utility.yul\":17606:17624   */\n      add\n        /* \"#utility.yul\":17598:17624   */\n      swap1\n      pop\n        /* \"#utility.yul\":17634:17705   */\n      tag_390\n        /* \"#utility.yul\":17702:17703   */\n      0x00\n        /* \"#utility.yul\":17691:17700   */\n      dup4\n        /* \"#utility.yul\":17687:17704   */\n      add\n        /* \"#utility.yul\":17678:17684   */\n      dup6\n        /* \"#utility.yul\":17634:17705   */\n      tag_344\n      jump\t// in\n    tag_390:\n        /* \"#utility.yul\":17752:17761   */\n      dup2\n        /* \"#utility.yul\":17746:17750   */\n      dup2\n        /* \"#utility.yul\":17742:17762   */\n      sub\n        /* \"#utility.yul\":17737:17739   */\n      0x20\n        /* \"#utility.yul\":17726:17735   */\n      dup4\n        /* \"#utility.yul\":17722:17740   */\n      add\n        /* \"#utility.yul\":17715:17763   */\n      mstore\n        /* \"#utility.yul\":17780:17858   */\n      tag_391\n        /* \"#utility.yul\":17853:17857   */\n      dup2\n        /* \"#utility.yul\":17844:17850   */\n      dup5\n        /* \"#utility.yul\":17780:17858   */\n      tag_275\n      jump\t// in\n    tag_391:\n        /* \"#utility.yul\":17772:17858   */\n      swap1\n      pop\n        /* \"#utility.yul\":17442:17865   */\n      swap4\n      swap3\n      pop\n      pop\n      pop\n      jump\t// out\n        /* \"#utility.yul\":17871:18000   */\n    tag_193:\n        /* \"#utility.yul\":17905:17911   */\n      0x00\n        /* \"#utility.yul\":17932:17952   */\n      tag_393\n      tag_394\n      jump\t// in\n    tag_393:\n        /* \"#utility.yul\":17922:17952   */\n      swap1\n      pop\n        /* \"#utility.yul\":17961:17994   */\n      tag_395\n        /* \"#utility.yul\":17989:17993   */\n      dup3\n        /* \"#utility.yul\":17981:17987   */\n      dup3\n        /* \"#utility.yul\":17961:17994   */\n      tag_396\n      jump\t// in\n    tag_395:\n        /* \"#utility.yul\":17871:18000   */\n      swap2\n      swap1\n      pop\n      jump\t// out\n        /* \"#utility.yul\":18006:18081   */\n    tag_394:\n        /* \"#utility.yul\":18039:18045   */\n      0x00\n        /* \"#utility.yul\":18072:18074   */\n      0x40\n        /* \"#utility.yul\":18066:18075   */\n      mload\n        /* \"#utility.yul\":18056:18075   */\n      swap1\n      pop\n        /* \"#utility.yul\":18006:18081   */\n      swap1\n      jump\t// out\n        /* \"#utility.yul\":18087:18395   */\n    tag_192:\n        /* \"#utility.yul\":18149:18153   */\n      0x00\n        /* \"#utility.yul\":18239:18257   */\n      0xffffffffffffffff\n        /* \"#utility.yul\":18231:18237   */\n      dup3\n        /* \"#utility.yul\":18228:18258   */\n      gt\n        /* \"#utility.yul\":18225:18281   */\n      iszero\n      tag_399\n      jumpi\n        /* \"#utility.yul\":18261:18279   */\n      tag_400\n      tag_401\n      jump\t// in\n    tag_400:\n        /* \"#utility.yul\":18225:18281   */\n    tag_399:\n        /* \"#utility.yul\":18299:18328   */\n      tag_402\n        /* \"#utility.yul\":18321:18327   */\n      dup3\n        /* \"#utility.yul\":18299:18328   */\n      tag_274\n      jump\t// in\n    tag_402:\n        /* \"#utility.yul\":18291:18328   */\n      swap1\n      pop\n        /* \"#utility.yul\":18383:18387   */\n      0x20\n        /* \"#utility.yul\":18377:18381   */\n      dup2\n        /* \"#utility.yul\":18373:18388   */\n      add\n        /* \"#utility.yul\":18365:18388   */\n      swap1\n      pop\n        /* \"#utility.yul\":18087:18395   */\n      swap2\n      swap1\n      pop\n      jump\t// out\n        /* \"#utility.yul\":18401:18553   */\n    tag_247:\n        /* \"#utility.yul\":18488:18492   */\n      0x00\n        /* \"#utility.yul\":18511:18514   */\n      dup2\n        /* \"#utility.yul\":18503:18514   */\n      swap1\n      pop\n        /* \"#utility.yul\":18541:18545   */\n      0x20\n        /* \"#utility.yul\":18536:18539   */\n      dup3\n        /* \"#utility.yul\":18532:18546   */\n      add\n        /* \"#utility.yul\":18524:18546   */\n      swap1\n      pop\n        /* \"#utility.yul\":18401:18553   */\n      swap2\n      swap1\n      pop\n      jump\t// out\n        /* \"#utility.yul\":18559:18693   */\n    tag_243:\n        /* \"#utility.yul\":18646:18652   */\n      0x00\n        /* \"#utility.yul\":18680:18685   */\n      dup2\n        /* \"#utility.yul\":18674:18686   */\n      mload\n        /* \"#utility.yul\":18664:18686   */\n      swap1\n      pop\n        /* \"#utility.yul\":18559:18693   */\n      swap2\n      swap1\n      pop\n      jump\t// out\n        /* \"#utility.yul\":18699:18798   */\n    tag_268:\n        /* \"#utility.yul\":18751:18757   */\n      0x00\n        /* \"#utility.yul\":18785:18790   */\n      dup2\n        /* \"#utility.yul\":18779:18791   */\n      mload\n        /* \"#utility.yul\":18769:18791   */\n      swap1\n      pop\n        /* \"#utility.yul\":18699:18798   */\n      swap2\n      swap1\n      pop\n      jump\t// out\n        /* \"#utility.yul\":18804:18937   */\n    tag_253:\n        /* \"#utility.yul\":18894:18898   */\n      0x00\n        /* \"#utility.yul\":18926:18930   */\n      0x20\n        /* \"#utility.yul\":18921:18924   */\n      dup3\n        /* \"#utility.yul\":18917:18931   */\n      add\n        /* \"#utility.yul\":18909:18931   */\n      swap1\n      pop\n        /* \"#utility.yul\":18804:18937   */\n      swap2\n      swap1\n      pop\n      jump\t// out\n        /* \"#utility.yul\":18943:19147   */\n    tag_245:\n        /* \"#utility.yul\":19062:19073   */\n      0x00\n        /* \"#utility.yul\":19096:19102   */\n      dup3\n        /* \"#utility.yul\":19091:19094   */\n      dup3\n        /* \"#utility.yul\":19084:19103   */\n      mstore\n        /* \"#utility.yul\":19136:19140   */\n      0x20\n        /* \"#utility.yul\":19131:19134   */\n      dup3\n        /* \"#utility.yul\":19127:19141   */\n      add\n        /* \"#utility.yul\":19112:19141   */\n      swap1\n      pop\n        /* \"#utility.yul\":18943:19147   */\n      swap3\n      swap2\n      pop\n      pop\n      jump\t// out\n        /* \"#utility.yul\":19153:19312   */\n    tag_270:\n        /* \"#utility.yul\":19227:19238   */\n      0x00\n        /* \"#utility.yul\":19261:19267   */\n      dup3\n        /* \"#utility.yul\":19256:19259   */\n      dup3\n        /* \"#utility.yul\":19249:19268   */\n      mstore\n        /* \"#utility.yul\":19301:19305   */\n      0x20\n        /* \"#utility.yul\":19296:19299   */\n      dup3\n        /* \"#utility.yul\":19292:19306   */\n      add\n        /* \"#utility.yul\":19277:19306   */\n      swap1\n      pop\n        /* \"#utility.yul\":19153:19312   */\n      swap3\n      swap2\n      pop\n      pop\n      jump\t// out\n        /* \"#utility.yul\":19318:19487   */\n    tag_279:\n        /* \"#utility.yul\":19402:19413   */\n      0x00\n        /* \"#utility.yul\":19436:19442   */\n      dup3\n        /* \"#utility.yul\":19431:19434   */\n      dup3\n        /* \"#utility.yul\":19424:19443   */\n      mstore\n        /* \"#utility.yul\":19476:19480   */\n      0x20\n        /* \"#utility.yul\":19471:19474   */\n      dup3\n        /* \"#utility.yul\":19467:19481   */\n      add\n        /* \"#utility.yul\":19452:19481   */\n      swap1\n      pop\n        /* \"#utility.yul\":19318:19487   */\n      swap3\n      swap2\n      pop\n      pop\n      jump\t// out\n        /* \"#utility.yul\":19493:19798   */\n    tag_119:\n        /* \"#utility.yul\":19533:19536   */\n      0x00\n        /* \"#utility.yul\":19552:19572   */\n      tag_411\n        /* \"#utility.yul\":19570:19571   */\n      dup3\n        /* \"#utility.yul\":19552:19572   */\n      tag_343\n      jump\t// in\n    tag_411:\n        /* \"#utility.yul\":19547:19572   */\n      swap2\n      pop\n        /* \"#utility.yul\":19586:19606   */\n      tag_412\n        /* \"#utility.yul\":19604:19605   */\n      dup4\n        /* \"#utility.yul\":19586:19606   */\n      tag_343\n      jump\t// in\n    tag_412:\n        /* \"#utility.yul\":19581:19606   */\n      swap3\n      pop\n        /* \"#utility.yul\":19740:19741   */\n      dup3\n        /* \"#utility.yul\":19672:19738   */\n      0xffffffffffffffffffffffffffffffffffffffffffffffffffffffffffffffff\n        /* \"#utility.yul\":19668:19742   */\n      sub\n        /* \"#utility.yul\":19665:19666   */\n      dup3\n        /* \"#utility.yul\":19662:19743   */\n      gt\n        /* \"#utility.yul\":19659:19766   */\n      iszero\n      tag_413\n      jumpi\n        /* \"#utility.yul\":19746:19764   */\n      tag_414\n      tag_415\n      jump\t// in\n    tag_414:\n        /* \"#utility.yul\":19659:19766   */\n    tag_413:\n        /* \"#utility.yul\":19790:19791   */\n      dup3\n        /* \"#utility.yul\":19787:19788   */\n      dup3\n        /* \"#utility.yul\":19783:19792   */\n      add\n        /* \"#utility.yul\":19776:19792   */\n      swap1\n      pop\n        /* \"#utility.yul\":19493:19798   */\n      swap3\n      swap2\n      pop\n      pop\n      jump\t// out\n        /* \"#utility.yul\":19804:19989   */\n    tag_160:\n        /* \"#utility.yul\":19844:19845   */\n      0x00\n        /* \"#utility.yul\":19861:19881   */\n      tag_417\n        /* \"#utility.yul\":19879:19880   */\n      dup3\n        /* \"#utility.yul\":19861:19881   */\n      tag_343\n      jump\t// in\n    tag_417:\n        /* \"#utility.yul\":19856:19881   */\n      swap2\n      pop\n        /* \"#utility.yul\":19895:19915   */\n      tag_418\n        /* \"#utility.yul\":19913:19914   */\n      dup4\n        /* \"#utility.yul\":19895:19915   */\n      tag_343\n      jump\t// in\n    tag_418:\n        /* \"#utility.yul\":19890:19915   */\n      swap3\n      pop\n        /* \"#utility.yul\":19934:19935   */\n      dup3\n        /* \"#utility.yul\":19924:19959   */\n      tag_419\n      jumpi\n        /* \"#utility.yul\":19939:19957   */\n      tag_420\n      tag_421\n      jump\t// in\n    tag_420:\n        /* \"#utility.yul\":19924:19959   */\n    tag_419:\n        /* \"#utility.yul\":19981:19982   */\n      dup3\n        /* \"#utility.yul\":19978:19979   */\n      dup3\n        /* \"#utility.yul\":19974:19983   */\n      div\n        /* \"#utility.yul\":19969:19983   */\n      swap1\n      pop\n        /* \"#utility.yul\":19804:19989   */\n      swap3\n      swap2\n      pop\n      pop\n      jump\t// out\n        /* \"#utility.yul\":19995:20343   */\n    tag_162:\n        /* \"#utility.yul\":20035:20042   */\n      0x00\n        /* \"#utility.yul\":20058:20078   */\n      tag_423\n        /* \"#utility.yul\":20076:20077   */\n      dup3\n        /* \"#utility.yul\":20058:20078   */\n      tag_343\n      jump\t// in\n    tag_423:\n        /* \"#utility.yul\":20053:20078   */\n      swap2\n      pop\n        /* \"#utility.yul\":20092:20112   */\n      tag_424\n        /* \"#utility.yul\":20110:20111   */\n      dup4\n        /* \"#utility.yul\":20092:20112   */\n      tag_343\n      jump\t// in\n    tag_424:\n        /* \"#utility.yul\":20087:20112   */\n      swap3\n      pop\n        /* \"#utility.yul\":20280:20281   */\n      dup2\n        /* \"#utility.yul\":20212:20278   */\n      0xffffffffffffffffffffffffffffffffffffffffffffffffffffffffffffffff\n        /* \"#utility.yul\":20208:20282   */\n      div\n        /* \"#utility.yul\":20205:20206   */\n      dup4\n        /* \"#utility.yul\":20202:20283   */\n      gt\n        /* \"#utility.yul\":20197:20198   */\n      dup3\n        /* \"#utility.yul\":20190:20199   */\n      iszero\n        /* \"#utility.yul\":20183:20200   */\n      iszero\n        /* \"#utility.yul\":20179:20284   */\n      and\n        /* \"#utility.yul\":20176:20307   */\n      iszero\n      tag_425\n      jumpi\n        /* \"#utility.yul\":20287:20305   */\n      tag_426\n      tag_415\n      jump\t// in\n    tag_426:\n        /* \"#utility.yul\":20176:20307   */\n    tag_425:\n        /* \"#utility.yul\":20335:20336   */\n      dup3\n        /* \"#utility.yul\":20332:20333   */\n      dup3\n        /* \"#utility.yul\":20328:20337   */\n      mul\n        /* \"#utility.yul\":20317:20337   */\n      swap1\n      pop\n        /* \"#utility.yul\":19995:20343   */\n      swap3\n      swap2\n      pop\n      pop\n      jump\t// out\n        /* \"#utility.yul\":20349:20445   */\n    tag_236:\n        /* \"#utility.yul\":20386:20393   */\n      0x00\n        /* \"#utility.yul\":20415:20439   */\n      tag_428\n        /* \"#utility.yul\":20433:20438   */\n      dup3\n        /* \"#utility.yul\":20415:20439   */\n      tag_429\n      jump\t// in\n    tag_428:\n        /* \"#utility.yul\":20404:20439   */\n      swap1\n      pop\n        /* \"#utility.yul\":20349:20445   */\n      swap2\n      swap1\n      pop\n      jump\t// out\n        /* \"#utility.yul\":20451:20541   */\n    tag_257:\n        /* \"#utility.yul\":20485:20492   */\n      0x00\n        /* \"#utility.yul\":20528:20533   */\n      dup2\n        /* \"#utility.yul\":20521:20534   */\n      iszero\n        /* \"#utility.yul\":20514:20535   */\n      iszero\n        /* \"#utility.yul\":20503:20535   */\n      swap1\n      pop\n        /* \"#utility.yul\":20451:20541   */\n      swap2\n      swap1\n      pop\n      jump\t// out\n        /* \"#utility.yul\":20547:20624   */\n    tag_264:\n        /* \"#utility.yul\":20584:20591   */\n      0x00\n        /* \"#utility.yul\":20613:20618   */\n      dup2\n        /* \"#utility.yul\":20602:20618   */\n      swap1\n      pop\n        /* \"#utility.yul\":20547:20624   */\n      swap2\n      swap1\n      pop\n      jump\t// out\n        /* \"#utility.yul\":20630:20756   */\n    tag_429:\n        /* \"#utility.yul\":20667:20674   */\n      0x00\n        /* \"#utility.yul\":20707:20749   */\n      0xffffffffffffffffffffffffffffffffffffffff\n        /* \"#utility.yul\":20700:20705   */\n      dup3\n        /* \"#utility.yul\":20696:20750   */\n      and\n        /* \"#utility.yul\":20685:20750   */\n      swap1\n      pop\n        /* \"#utility.yul\":20630:20756   */\n      swap2\n      swap1\n      pop\n      jump\t// out\n        /* \"#utility.yul\":20762:20839   */\n    tag_343:\n        /* \"#utility.yul\":20799:20806   */\n      0x00\n        /* \"#utility.yul\":20828:20833   */\n      dup2\n        /* \"#utility.yul\":20817:20833   */\n      swap1\n      pop\n        /* \"#utility.yul\":20762:20839   */\n      swap2\n      swap1\n      pop\n      jump\t// out\n        /* \"#utility.yul\":20845:20931   */\n    tag_434:\n        /* \"#utility.yul\":20880:20887   */\n      0x00\n        /* \"#utility.yul\":20920:20924   */\n      0xff\n        /* \"#utility.yul\":20913:20918   */\n      dup3\n        /* \"#utility.yul\":20909:20925   */\n      and\n        /* \"#utility.yul\":20898:20925   */\n      swap1\n      pop\n        /* \"#utility.yul\":20845:20931   */\n      swap2\n      swap1\n      pop\n      jump\t// out\n        /* \"#utility.yul\":20937:21091   */\n    tag_198:\n        /* \"#utility.yul\":21021:21027   */\n      dup3\n        /* \"#utility.yul\":21016:21019   */\n      dup2\n        /* \"#utility.yul\":21011:21014   */\n      dup4\n        /* \"#utility.yul\":20998:21028   */\n      calldatacopy\n        /* \"#utility.yul\":21083:21084   */\n      0x00\n        /* \"#utility.yul\":21074:21080   */\n      dup4\n        /* \"#utility.yul\":21069:21072   */\n      dup4\n        /* \"#utility.yul\":21065:21081   */\n      add\n        /* \"#utility.yul\":21058:21085   */\n      mstore\n        /* \"#utility.yul\":20937:21091   */\n      pop\n      pop\n      pop\n      jump\t// out\n        /* \"#utility.yul\":21097:21404   */\n    tag_272:\n        /* \"#utility.yul\":21165:21166   */\n      0x00\n        /* \"#utility.yul\":21175:21288   */\n    tag_438:\n        /* \"#utility.yul\":21189:21195   */\n      dup4\n        /* \"#utility.yul\":21186:21187   */\n      dup2\n        /* \"#utility.yul\":21183:21196   */\n      lt\n        /* \"#utility.yul\":21175:21288   */\n      iszero\n      tag_440\n      jumpi\n        /* \"#utility.yul\":21274:21275   */\n      dup1\n        /* \"#utility.yul\":21269:21272   */\n      dup3\n        /* \"#utility.yul\":21265:21276   */\n      add\n        /* \"#utility.yul\":21259:21277   */\n      mload\n        /* \"#utility.yul\":21255:21256   */\n      dup2\n        /* \"#utility.yul\":21250:21253   */\n      dup5\n        /* \"#utility.yul\":21246:21257   */\n      add\n        /* \"#utility.yul\":21239:21278   */\n      mstore\n        /* \"#utility.yul\":21211:21213   */\n      0x20\n        /* \"#utility.yul\":21208:21209   */\n      dup2\n        /* \"#utility.yul\":21204:21214   */\n      add\n        /* \"#utility.yul\":21199:21214   */\n      swap1\n      pop\n        /* \"#utility.yul\":21175:21288   */\n      jump(tag_438)\n    tag_440:\n        /* \"#utility.yul\":21306:21312   */\n      dup4\n        /* \"#utility.yul\":21303:21304   */\n      dup2\n        /* \"#utility.yul\":21300:21313   */\n      gt\n        /* \"#utility.yul\":21297:21398   */\n      iszero\n      tag_441\n      jumpi\n        /* \"#utility.yul\":21386:21387   */\n      0x00\n        /* \"#utility.yul\":21377:21383   */\n      dup5\n        /* \"#utility.yul\":21372:21375   */\n      dup5\n        /* \"#utility.yul\":21368:21384   */\n      add\n        /* \"#utility.yul\":21361:21388   */\n      mstore\n        /* \"#utility.yul\":21297:21398   */\n    tag_441:\n        /* \"#utility.yul\":21146:21404   */\n      pop\n        /* \"#utility.yul\":21097:21404   */\n      pop\n      pop\n      pop\n      jump\t// out\n        /* \"#utility.yul\":21410:21730   */\n    tag_102:\n        /* \"#utility.yul\":21454:21460   */\n      0x00\n        /* \"#utility.yul\":21491:21492   */\n      0x02\n        /* \"#utility.yul\":21485:21489   */\n      dup3\n        /* \"#utility.yul\":21481:21493   */\n      div\n        /* \"#utility.yul\":21471:21493   */\n      swap1\n      pop\n        /* \"#utility.yul\":21538:21539   */\n      0x01\n        /* \"#utility.yul\":21532:21536   */\n      dup3\n        /* \"#utility.yul\":21528:21540   */\n      and\n        /* \"#utility.yul\":21559:21577   */\n      dup1\n        /* \"#utility.yul\":21549:21630   */\n      tag_443\n      jumpi\n        /* \"#utility.yul\":21615:21619   */\n      0x7f\n        /* \"#utility.yul\":21607:21613   */\n      dup3\n        /* \"#utility.yul\":21603:21620   */\n      and\n        /* \"#utility.yul\":21593:21620   */\n      swap2\n      pop\n        /* \"#utility.yul\":21549:21630   */\n    tag_443:\n        /* \"#utility.yul\":21677:21679   */\n      0x20\n        /* \"#utility.yul\":21669:21675   */\n      dup3\n        /* \"#utility.yul\":21666:21680   */\n      lt\n        /* \"#utility.yul\":21646:21664   */\n      dup2\n        /* \"#utility.yul\":21643:21681   */\n      eq\n        /* \"#utility.yul\":21640:21724   */\n      iszero\n      tag_444\n      jumpi\n        /* \"#utility.yul\":21696:21714   */\n      tag_445\n      tag_446\n      jump\t// in\n    tag_445:\n        /* \"#utility.yul\":21640:21724   */\n    tag_444:\n        /* \"#utility.yul\":21461:21730   */\n      pop\n        /* \"#utility.yul\":21410:21730   */\n      swap2\n      swap1\n      pop\n      jump\t// out\n        /* \"#utility.yul\":21736:22017   */\n    tag_396:\n        /* \"#utility.yul\":21819:21846   */\n      tag_448\n        /* \"#utility.yul\":21841:21845   */\n      dup3\n        /* \"#utility.yul\":21819:21846   */\n      tag_274\n      jump\t// in\n    tag_448:\n        /* \"#utility.yul\":21811:21817   */\n      dup2\n        /* \"#utility.yul\":21807:21847   */\n      add\n        /* \"#utility.yul\":21949:21955   */\n      dup2\n        /* \"#utility.yul\":21937:21947   */\n      dup2\n        /* \"#utility.yul\":21934:21956   */\n      lt\n        /* \"#utility.yul\":21913:21931   */\n      0xffffffffffffffff\n        /* \"#utility.yul\":21901:21911   */\n      dup3\n        /* \"#utility.yul\":21898:21932   */\n      gt\n        /* \"#utility.yul\":21895:21957   */\n      or\n        /* \"#utility.yul\":21892:21980   */\n      iszero\n      tag_449\n      jumpi\n        /* \"#utility.yul\":21960:21978   */\n      tag_450\n      tag_401\n      jump\t// in\n    tag_450:\n        /* \"#utility.yul\":21892:21980   */\n    tag_449:\n        /* \"#utility.yul\":22000:22010   */\n      dup1\n        /* \"#utility.yul\":21996:21998   */\n      0x40\n        /* \"#utility.yul\":21989:22011   */\n      mstore\n        /* \"#utility.yul\":21779:22017   */\n      pop\n        /* \"#utility.yul\":21736:22017   */\n      pop\n      pop\n      jump\t// out\n        /* \"#utility.yul\":22023:22190   */\n    tag_177:\n        /* \"#utility.yul\":22060:22063   */\n      0x00\n        /* \"#utility.yul\":22083:22105   */\n      tag_452\n        /* \"#utility.yul\":22099:22104   */\n      dup3\n        /* \"#utility.yul\":22083:22105   */\n      tag_434\n      jump\t// in\n    tag_452:\n        /* \"#utility.yul\":22074:22105   */\n      swap2\n      pop\n        /* \"#utility.yul\":22127:22131   */\n      0xff\n        /* \"#utility.yul\":22120:22125   */\n      dup3\n        /* \"#utility.yul\":22117:22132   */\n      eq\n        /* \"#utility.yul\":22114:22155   */\n      iszero\n      tag_453\n      jumpi\n        /* \"#utility.yul\":22135:22153   */\n      tag_454\n      tag_415\n      jump\t// in\n    tag_454:\n        /* \"#utility.yul\":22114:22155   */\n    tag_453:\n        /* \"#utility.yul\":22182:22183   */\n      0x01\n        /* \"#utility.yul\":22175:22180   */\n      dup3\n        /* \"#utility.yul\":22171:22184   */\n      add\n        /* \"#utility.yul\":22164:22184   */\n      swap1\n      pop\n        /* \"#utility.yul\":22023:22190   */\n      swap2\n      swap1\n      pop\n      jump\t// out\n        /* \"#utility.yul\":22196:22376   */\n    tag_415:\n        /* \"#utility.yul\":22244:22321   */\n      0x4e487b7100000000000000000000000000000000000000000000000000000000\n        /* \"#utility.yul\":22241:22242   */\n      0x00\n        /* \"#utility.yul\":22234:22322   */\n      mstore\n        /* \"#utility.yul\":22341:22345   */\n      0x11\n        /* \"#utility.yul\":22338:22339   */\n      0x04\n        /* \"#utility.yul\":22331:22346   */\n      mstore\n        /* \"#utility.yul\":22365:22369   */\n      0x24\n        /* \"#utility.yul\":22362:22363   */\n      0x00\n        /* \"#utility.yul\":22355:22370   */\n      revert\n        /* \"#utility.yul\":22382:22562   */\n    tag_421:\n        /* \"#utility.yul\":22430:22507   */\n      0x4e487b7100000000000000000000000000000000000000000000000000000000\n        /* \"#utility.yul\":22427:22428   */\n      0x00\n        /* \"#utility.yul\":22420:22508   */\n      mstore\n        /* \"#utility.yul\":22527:22531   */\n      0x12\n        /* \"#utility.yul\":22524:22525   */\n      0x04\n        /* \"#utility.yul\":22517:22532   */\n      mstore\n        /* \"#utility.yul\":22551:22555   */\n      0x24\n        /* \"#utility.yul\":22548:22549   */\n      0x00\n        /* \"#utility.yul\":22541:22556   */\n      revert\n        /* \"#utility.yul\":22568:22748   */\n    tag_446:\n        /* \"#utility.yul\":22616:22693   */\n      0x4e487b7100000000000000000000000000000000000000000000000000000000\n        /* \"#utility.yul\":22613:22614   */\n      0x00\n        /* \"#utility.yul\":22606:22694   */\n      mstore\n        /* \"#utility.yul\":22713:22717   */\n      0x22\n        /* \"#utility.yul\":22710:22711   */\n      0x04\n        /* \"#utility.yul\":22703:22718   */\n      mstore\n        /* \"#utility.yul\":22737:22741   */\n      0x24\n        /* \"#utility.yul\":22734:22735   */\n      0x00\n        /* \"#utility.yul\":22727:22742   */\n      revert\n        /* \"#utility.yul\":22754:22934   */\n    tag_169:\n        /* \"#utility.yul\":22802:22879   */\n      0x4e487b7100000000000000000000000000000000000000000000000000000000\n        /* \"#utility.yul\":22799:22800   */\n      0x00\n        /* \"#utility.yul\":22792:22880   */\n      mstore\n        /* \"#utility.yul\":22899:22903   */\n      0x32\n        /* \"#utility.yul\":22896:22897   */\n      0x04\n        /* \"#utility.yul\":22889:22904   */\n      mstore\n        /* \"#utility.yul\":22923:22927   */\n      0x24\n        /* \"#utility.yul\":22920:22921   */\n      0x00\n        /* \"#utility.yul\":22913:22928   */\n      revert\n        /* \"#utility.yul\":22940:23120   */\n    tag_401:\n        /* \"#utility.yul\":22988:23065   */\n      0x4e487b7100000000000000000000000000000000000000000000000000000000\n        /* \"#utility.yul\":22985:22986   */\n      0x00\n        /* \"#utility.yul\":22978:23066   */\n      mstore\n        /* \"#utility.yul\":23085:23089   */\n      0x41\n        /* \"#utility.yul\":23082:23083   */\n      0x04\n        /* \"#utility.yul\":23075:23090   */\n      mstore\n        /* \"#utility.yul\":23109:23113   */\n      0x24\n        /* \"#utility.yul\":23106:23107   */\n      0x00\n        /* \"#utility.yul\":23099:23114   */\n      revert\n        /* \"#utility.yul\":23126:23243   */\n    tag_207:\n        /* \"#utility.yul\":23235:23236   */\n      0x00\n        /* \"#utility.yul\":23232:23233   */\n      dup1\n        /* \"#utility.yul\":23225:23237   */\n      revert\n        /* \"#utility.yul\":23249:23366   */\n    tag_196:\n        /* \"#utility.yul\":23358:23359   */\n      0x00\n        /* \"#utility.yul\":23355:23356   */\n      dup1\n        /* \"#utility.yul\":23348:23360   */\n      revert\n        /* \"#utility.yul\":23372:23489   */\n    tag_223:\n        /* \"#utility.yul\":23481:23482   */\n      0x00\n        /* \"#utility.yul\":23478:23479   */\n      dup1\n        /* \"#utility.yul\":23471:23483   */\n      revert\n        /* \"#utility.yul\":23495:23612   */\n    tag_216:\n        /* \"#utility.yul\":23604:23605   */\n      0x00\n        /* \"#utility.yul\":23601:23602   */\n      dup1\n        /* \"#utility.yul\":23594:23606   */\n      revert\n        /* \"#utility.yul\":23618:23720   */\n    tag_274:\n        /* \"#utility.yul\":23659:23665   */\n      0x00\n        /* \"#utility.yul\":23710:23712   */\n      0x1f\n        /* \"#utility.yul\":23706:23713   */\n      not\n        /* \"#utility.yul\":23701:23703   */\n      0x1f\n        /* \"#utility.yul\":23694:23699   */\n      dup4\n        /* \"#utility.yul\":23690:23704   */\n      add\n        /* \"#utility.yul\":23686:23714   */\n      and\n        /* \"#utility.yul\":23676:23714   */\n      swap1\n      pop\n        /* \"#utility.yul\":23618:23720   */\n      swap2\n      swap1\n      pop\n      jump\t// out\n        /* \"#utility.yul\":23726:23907   */\n    tag_286:\n        /* \"#utility.yul\":23866:23899   */\n      0x526563697069656e7420697320616c7265616479207265676973746572656400\n        /* \"#utility.yul\":23862:23863   */\n      0x00\n        /* \"#utility.yul\":23854:23860   */\n      dup3\n        /* \"#utility.yul\":23850:23864   */\n      add\n        /* \"#utility.yul\":23843:23900   */\n      mstore\n        /* \"#utility.yul\":23726:23907   */\n      pop\n      jump\t// out\n        /* \"#utility.yul\":23913:24138   */\n    tag_291:\n        /* \"#utility.yul\":24053:24087   */\n      0x596f75206172656e277420617574686f72697a6520746f20636f6d70696c6520\n        /* \"#utility.yul\":24049:24050   */\n      0x00\n        /* \"#utility.yul\":24041:24047   */\n      dup3\n        /* \"#utility.yul\":24037:24051   */\n      add\n        /* \"#utility.yul\":24030:24088   */\n      mstore\n        /* \"#utility.yul\":24122:24130   */\n      0x42756e646c650000000000000000000000000000000000000000000000000000\n        /* \"#utility.yul\":24117:24119   */\n      0x20\n        /* \"#utility.yul\":24109:24115   */\n      dup3\n        /* \"#utility.yul\":24105:24120   */\n      add\n        /* \"#utility.yul\":24098:24131   */\n      mstore\n        /* \"#utility.yul\":23913:24138   */\n      pop\n      jump\t// out\n        /* \"#utility.yul\":24144:24322   */\n    tag_296:\n        /* \"#utility.yul\":24284:24314   */\n      0x596f7520616c72656164792073656e74206120726573706f6e73652e00000000\n        /* \"#utility.yul\":24280:24281   */\n      0x00\n        /* \"#utility.yul\":24272:24278   */\n      dup3\n        /* \"#utility.yul\":24268:24282   */\n      add\n        /* \"#utility.yul\":24261:24315   */\n      mstore\n        /* \"#utility.yul\":24144:24322   */\n      pop\n      jump\t// out\n        /* \"#utility.yul\":24328:24499   */\n    tag_301:\n        /* \"#utility.yul\":24468:24491   */\n      0x496e69746961746f722063616e277420766f7465210000000000000000000000\n        /* \"#utility.yul\":24464:24465   */\n      0x00\n        /* \"#utility.yul\":24456:24462   */\n      dup3\n        /* \"#utility.yul\":24452:24466   */\n      add\n        /* \"#utility.yul\":24445:24492   */\n      mstore\n        /* \"#utility.yul\":24328:24499   */\n      pop\n      jump\t// out\n        /* \"#utility.yul\":24505:24685   */\n    tag_306:\n        /* \"#utility.yul\":24645:24677   */\n      0x596f7520617265206e6f74207265676973746572656420746f20766f74650000\n        /* \"#utility.yul\":24641:24642   */\n      0x00\n        /* \"#utility.yul\":24633:24639   */\n      dup3\n        /* \"#utility.yul\":24629:24643   */\n      add\n        /* \"#utility.yul\":24622:24678   */\n      mstore\n        /* \"#utility.yul\":24505:24685   */\n      pop\n      jump\t// out\n        /* \"#utility.yul\":24691:24914   */\n    tag_311:\n        /* \"#utility.yul\":24831:24865   */\n      0x50726f706f73616c206861732072656163686564206974732065787069727920\n        /* \"#utility.yul\":24827:24828   */\n      0x00\n        /* \"#utility.yul\":24819:24825   */\n      dup3\n        /* \"#utility.yul\":24815:24829   */\n      add\n        /* \"#utility.yul\":24808:24866   */\n      mstore\n        /* \"#utility.yul\":24900:24906   */\n      0x6461746500000000000000000000000000000000000000000000000000000000\n        /* \"#utility.yul\":24895:24897   */\n      0x20\n        /* \"#utility.yul\":24887:24893   */\n      dup3\n        /* \"#utility.yul\":24883:24898   */\n      add\n        /* \"#utility.yul\":24876:24907   */\n      mstore\n        /* \"#utility.yul\":24691:24914   */\n      pop\n      jump\t// out\n        /* \"#utility.yul\":24920:25147   */\n    tag_316:\n        /* \"#utility.yul\":25060:25094   */\n      0x4f6e6c7920696e69746961746f722063616e2072656769737465722061207265\n        /* \"#utility.yul\":25056:25057   */\n      0x00\n        /* \"#utility.yul\":25048:25054   */\n      dup3\n        /* \"#utility.yul\":25044:25058   */\n      add\n        /* \"#utility.yul\":25037:25095   */\n      mstore\n        /* \"#utility.yul\":25129:25139   */\n      0x63697069656e742e000000000000000000000000000000000000000000000000\n        /* \"#utility.yul\":25124:25126   */\n      0x20\n        /* \"#utility.yul\":25116:25122   */\n      dup3\n        /* \"#utility.yul\":25112:25127   */\n      add\n        /* \"#utility.yul\":25105:25140   */\n      mstore\n        /* \"#utility.yul\":24920:25147   */\n      pop\n      jump\t// out\n        /* \"#utility.yul\":25153:25335   */\n    tag_321:\n        /* \"#utility.yul\":25293:25327   */\n      0x5665726469637420686173206e6f74206265656e207265616368656420796574\n        /* \"#utility.yul\":25289:25290   */\n      0x00\n        /* \"#utility.yul\":25281:25287   */\n      dup3\n        /* \"#utility.yul\":25277:25291   */\n      add\n        /* \"#utility.yul\":25270:25328   */\n      mstore\n        /* \"#utility.yul\":25153:25335   */\n      pop\n      jump\t// out\n        /* \"#utility.yul\":25341:25509   */\n    tag_326:\n        /* \"#utility.yul\":25481:25501   */\n      0x566f74696e672068617320657870697265640000000000000000000000000000\n        /* \"#utility.yul\":25477:25478   */\n      0x00\n        /* \"#utility.yul\":25469:25475   */\n      dup3\n        /* \"#utility.yul\":25465:25479   */\n      add\n        /* \"#utility.yul\":25458:25502   */\n      mstore\n        /* \"#utility.yul\":25341:25509   */\n      pop\n      jump\t// out\n        /* \"#utility.yul\":25515:25739   */\n    tag_331:\n        /* \"#utility.yul\":25655:25689   */\n      0x436f6e73656e7375732068617320616c7265616479206265656e2063616c6375\n        /* \"#utility.yul\":25651:25652   */\n      0x00\n        /* \"#utility.yul\":25643:25649   */\n      dup3\n        /* \"#utility.yul\":25639:25653   */\n      add\n        /* \"#utility.yul\":25632:25690   */\n      mstore\n        /* \"#utility.yul\":25724:25731   */\n      0x6c61746564000000000000000000000000000000000000000000000000000000\n        /* \"#utility.yul\":25719:25721   */\n      0x20\n        /* \"#utility.yul\":25711:25717   */\n      dup3\n        /* \"#utility.yul\":25707:25722   */\n      add\n        /* \"#utility.yul\":25700:25732   */\n      mstore\n        /* \"#utility.yul\":25515:25739   */\n      pop\n      jump\t// out\n        /* \"#utility.yul\":25745:25867   */\n    tag_202:\n        /* \"#utility.yul\":25818:25842   */\n      tag_476\n        /* \"#utility.yul\":25836:25841   */\n      dup2\n        /* \"#utility.yul\":25818:25842   */\n      tag_236\n      jump\t// in\n    tag_476:\n        /* \"#utility.yul\":25811:25816   */\n      dup2\n        /* \"#utility.yul\":25808:25843   */\n      eq\n        /* \"#utility.yul\":25798:25861   */\n      tag_477\n      jumpi\n        /* \"#utility.yul\":25857:25858   */\n      0x00\n        /* \"#utility.yul\":25854:25855   */\n      dup1\n        /* \"#utility.yul\":25847:25859   */\n      revert\n        /* \"#utility.yul\":25798:25861   */\n    tag_477:\n        /* \"#utility.yul\":25745:25867   */\n      pop\n      jump\t// out\n        /* \"#utility.yul\":25873:25995   */\n    tag_212:\n        /* \"#utility.yul\":25946:25970   */\n      tag_479\n        /* \"#utility.yul\":25964:25969   */\n      dup2\n        /* \"#utility.yul\":25946:25970   */\n      tag_343\n      jump\t// in\n    tag_479:\n        /* \"#utility.yul\":25939:25944   */\n      dup2\n        /* \"#utility.yul\":25936:25971   */\n      eq\n        /* \"#utility.yul\":25926:25989   */\n      tag_480\n      jumpi\n        /* \"#utility.yul\":25985:25986   */\n      0x00\n        /* \"#utility.yul\":25982:25983   */\n      dup1\n        /* \"#utility.yul\":25975:25987   */\n      revert\n        /* \"#utility.yul\":25926:25989   */\n    tag_480:\n        /* \"#utility.yul\":25873:25995   */\n      pop\n      jump\t// out\n\n    auxdata: 0xa264697066735822122030af17438dc9abfaff8f25e2e52acd34c949a187eda9d5a39cafd27f71e243d364736f6c63430008070033\n}\n",
				"bytecode": {
					"linkReferences": {},
					"object": "60806040523480156200001157600080fd5b5060405162002c7238038062002c728339818101604052810190620000379190620002af565b33600160006101000a81548173ffffffffffffffffffffffffffffffffffffffff021916908373ffffffffffffffffffffffffffffffffffffffff160217905550814262000086919062000389565b6003819055508060048190555060006005819055506000600660006101000a81548160ff0219169083151502179055507f52656a6563746564000000000000000000000000000000000000000000000000600781905550306000806101000a81548173ffffffffffffffffffffffffffffffffffffffff021916908373ffffffffffffffffffffffffffffffffffffffff16021790555060405180604001604052806000815260200184815250600a6000820151816000015560208201518160010190805190602001906200015d9291906200016a565b509050505050506200055e565b828054620001789062000426565b90600052602060002090601f0160209004810192826200019c5760008555620001e8565b82601f10620001b757805160ff1916838001178555620001e8565b82800160010185558215620001e8579182015b82811115620001e7578251825591602001919060010190620001ca565b5b509050620001f79190620001fb565b5090565b5b8082111562000216576000816000905550600101620001fc565b5090565b6000620002316200022b8462000353565b6200032a565b90508281526020810184848401111562000250576200024f62000524565b5b6200025d848285620003f0565b509392505050565b600082601f8301126200027d576200027c6200051f565b5b81516200028f8482602086016200021a565b91505092915050565b600081519050620002a98162000544565b92915050565b600080600060608486031215620002cb57620002ca6200052e565b5b600084015167ffffffffffffffff811115620002ec57620002eb62000529565b5b620002fa8682870162000265565b93505060206200030d8682870162000298565b9250506040620003208682870162000298565b9150509250925092565b60006200033662000349565b90506200034482826200045c565b919050565b6000604051905090565b600067ffffffffffffffff821115620003715762000370620004f0565b5b6200037c8262000533565b9050602081019050919050565b60006200039682620003e6565b9150620003a383620003e6565b9250827fffffffffffffffffffffffffffffffffffffffffffffffffffffffffffffffff03821115620003db57620003da62000492565b5b828201905092915050565b6000819050919050565b60005b8381101562000410578082015181840152602081019050620003f3565b8381111562000420576000848401525b50505050565b600060028204905060018216806200043f57607f821691505b60208210811415620004565762000455620004c1565b5b50919050565b620004678262000533565b810181811067ffffffffffffffff82111715620004895762000488620004f0565b5b80604052505050565b7f4e487b7100000000000000000000000000000000000000000000000000000000600052601160045260246000fd5b7f4e487b7100000000000000000000000000000000000000000000000000000000600052602260045260246000fd5b7f4e487b7100000000000000000000000000000000000000000000000000000000600052604160045260246000fd5b600080fd5b600080fd5b600080fd5b600080fd5b6000601f19601f8301169050919050565b6200054f81620003e6565b81146200055b57600080fd5b50565b612704806200056e6000396000f3fe608060405234801561001057600080fd5b50600436106101005760003560e01c80638231674511610097578063d77aa74911610066578063d77aa74914610296578063da58c7d9146102b4578063dd944b67146102e6578063f6b4dfb41461030457610100565b8063823167451461021857806395b02dfa146102385780639aa4bbdd14610242578063a5ea11da1461027457610100565b80635361a0ea116100d35780635361a0ea1461018b5780635c39fcc1146101bd5780637403c5e5146101db578063753ec103146101f957610100565b80630cb6aaf11461010557806315fe6f1b1461013557806319eb4a9014610151578063323082d71461016f575b600080fd5b61011f600480360381019061011a9190611a7f565b610322565b60405161012c9190611dda565b60405180910390f35b61014f600480360381019061014a9190611a09565b610361565b005b610159610703565b6040516101669190611e8c565b60405180910390f35b61018960048036038101906101849190611a36565b610798565b005b6101a560048036038101906101a09190611a09565b610f3b565b6040516101b493929190611e10565b60405180910390f35b6101c5611050565b6040516101d29190611dda565b60405180910390f35b6101e3611076565b6040516101f09190612048565b60405180910390f35b61020161107c565b60405161020f929190612063565b60405180910390f35b610220611116565b60405161022f93929190611e47565b60405180910390f35b610240611304565b005b61025c60048036038101906102579190611a09565b61176a565b60405161026b93929190611e10565b60405180910390f35b61027c6117ce565b60405161028d959493929190611eae565b60405180910390f35b61029e6118a4565b6040516102ab9190612048565b60405180910390f35b6102ce60048036038101906102c99190611a7f565b6118aa565b6040516102dd93929190611e10565b60405180910390f35b6102ee61191a565b6040516102fb9190611df5565b60405180910390f35b61030c611931565b6040516103199190611dda565b60405180910390f35b6002818154811061033257600080fd5b906000526020600020016000915054906101000a900473ffffffffffffffffffffffffffffffffffffffff1681565b600160009054906101000a900473ffffffffffffffffffffffffffffffffffffffff1673ffffffffffffffffffffffffffffffffffffffff163373ffffffffffffffffffffffffffffffffffffffff16146103f1576040517f08c379a00000000000000000000000000000000000000000000000000000000081526004016103e890611fc8565b60405180910390fd5b600160009054906101000a900473ffffffffffffffffffffffffffffffffffffffff1673ffffffffffffffffffffffffffffffffffffffff168173ffffffffffffffffffffffffffffffffffffffff161415610482576040517f08c379a000000000000000000000000000000000000000000000000000000000815260040161047990611f68565b60405180910390fd5b600073ffffffffffffffffffffffffffffffffffffffff16600960008373ffffffffffffffffffffffffffffffffffffffff1673ffffffffffffffffffffffffffffffffffffffff16815260200190815260200160002060000160029054906101000a900473ffffffffffffffffffffffffffffffffffffffff1673ffffffffffffffffffffffffffffffffffffffff1614610553576040517f08c379a000000000000000000000000000000000000000000000000000000000815260040161054a90611f08565b60405180910390fd5b6003544210610597576040517f08c379a000000000000000000000000000000000000000000000000000000000815260040161058e90611fa8565b60405180910390fd5b600060405180606001604052806000151581526020016000151581526020018373ffffffffffffffffffffffffffffffffffffffff16815250905080600960008473ffffffffffffffffffffffffffffffffffffffff1673ffffffffffffffffffffffffffffffffffffffff16815260200190815260200160002060008201518160000160006101000a81548160ff02191690831515021790555060208201518160000160016101000a81548160ff02191690831515021790555060408201518160000160026101000a81548173ffffffffffffffffffffffffffffffffffffffff021916908373ffffffffffffffffffffffffffffffffffffffff1602179055509050506002829080600181540180825580915050600190039060005260206000200160009091909190916101000a81548173ffffffffffffffffffffffffffffffffffffffff021916908373ffffffffffffffffffffffffffffffffffffffff1602179055505050565b6060600a6001018054610715906122d1565b80601f0160208091040260200160405190810160405280929190818152602001828054610741906122d1565b801561078e5780601f106107635761010080835404028352916020019161078e565b820191906000526020600020905b81548152906001019060200180831161077157829003601f168201915b5050505050905090565b60035442106107dc576040517f08c379a00000000000000000000000000000000000000000000000000000000081526004016107d390612008565b60405180910390fd5b600073ffffffffffffffffffffffffffffffffffffffff16600960003373ffffffffffffffffffffffffffffffffffffffff1673ffffffffffffffffffffffffffffffffffffffff16815260200190815260200160002060000160029054906101000a900473ffffffffffffffffffffffffffffffffffffffff1673ffffffffffffffffffffffffffffffffffffffff1614156108ae576040517f08c379a00000000000000000000000000000000000000000000000000000000081526004016108a590611f88565b60405180910390fd5b600960003373ffffffffffffffffffffffffffffffffffffffff1673ffffffffffffffffffffffffffffffffffffffff16815260200190815260200160002060000160009054906101000a900460ff161561093e576040517f08c379a000000000000000000000000000000000000000000000000000000000815260040161093590611f48565b60405180910390fd5b6040518060400160405280600981526020017f6920617070726f766500000000000000000000000000000000000000000000008152508051906020012081805190602001201415610ba4576001600960003373ffffffffffffffffffffffffffffffffffffffff1673ffffffffffffffffffffffffffffffffffffffff16815260200190815260200160002060000160006101000a81548160ff0219169083151502179055506001600960003373ffffffffffffffffffffffffffffffffffffffff1673ffffffffffffffffffffffffffffffffffffffff16815260200190815260200160002060000160016101000a81548160ff021916908315150217905550600160056000828254610a52919061214f565b925050819055506001600a6000016000828254610a6f919061214f565b925050819055506008600960003373ffffffffffffffffffffffffffffffffffffffff1673ffffffffffffffffffffffffffffffffffffffff168152602001908152602001600020908060018154018082558091505060019003906000526020600020016000909190919091506000820160009054906101000a900460ff168160000160006101000a81548160ff0219169083151502179055506000820160019054906101000a900460ff168160000160016101000a81548160ff0219169083151502179055506000820160029054906101000a900473ffffffffffffffffffffffffffffffffffffffff168160000160026101000a81548173ffffffffffffffffffffffffffffffffffffffff021916908373ffffffffffffffffffffffffffffffffffffffff1602179055505050610f38565b6040518060400160405280600c81526020017f6920646973617070726f766500000000000000000000000000000000000000008152508051906020012081805190602001201415610d95576001600960003373ffffffffffffffffffffffffffffffffffffffff1673ffffffffffffffffffffffffffffffffffffffff16815260200190815260200160002060000160006101000a81548160ff0219169083151502179055506001600a6000016000828254610c60919061214f565b925050819055506008600960003373ffffffffffffffffffffffffffffffffffffffff1673ffffffffffffffffffffffffffffffffffffffff168152602001908152602001600020908060018154018082558091505060019003906000526020600020016000909190919091506000820160009054906101000a900460ff168160000160006101000a81548160ff0219169083151502179055506000820160019054906101000a900460ff168160000160016101000a81548160ff0219169083151502179055506000820160029054906101000a900473ffffffffffffffffffffffffffffffffffffffff168160000160026101000a81548173ffffffffffffffffffffffffffffffffffffffff021916908373ffffffffffffffffffffffffffffffffffffffff1602179055505050610f37565b6001600960003373ffffffffffffffffffffffffffffffffffffffff1673ffffffffffffffffffffffffffffffffffffffff16815260200190815260200160002060000160006101000a81548160ff0219169083151502179055506001600a6000016000828254610e06919061214f565b925050819055506008600960003373ffffffffffffffffffffffffffffffffffffffff1673ffffffffffffffffffffffffffffffffffffffff168152602001908152602001600020908060018154018082558091505060019003906000526020600020016000909190919091506000820160009054906101000a900460ff168160000160006101000a81548160ff0219169083151502179055506000820160019054906101000a900460ff168160000160016101000a81548160ff0219169083151502179055506000820160029054906101000a900473ffffffffffffffffffffffffffffffffffffffff168160000160026101000a81548173ffffffffffffffffffffffffffffffffffffffff021916908373ffffffffffffffffffffffffffffffffffffffff16021790555050505b5b50565b6000806000600960008573ffffffffffffffffffffffffffffffffffffffff1673ffffffffffffffffffffffffffffffffffffffff16815260200190815260200160002060000160019054906101000a900460ff16600960008673ffffffffffffffffffffffffffffffffffffffff1673ffffffffffffffffffffffffffffffffffffffff16815260200190815260200160002060000160009054906101000a900460ff16600960008773ffffffffffffffffffffffffffffffffffffffff1673ffffffffffffffffffffffffffffffffffffffff16815260200190815260200160002060000160029054906101000a900473ffffffffffffffffffffffffffffffffffffffff169250925092509193909250565b600160009054906101000a900473ffffffffffffffffffffffffffffffffffffffff1681565b60055481565b600a806000015490806001018054611093906122d1565b80601f01602080910402602001604051908101604052809291908181526020018280546110bf906122d1565b801561110c5780601f106110e15761010080835404028352916020019161110c565b820191906000526020600020905b8154815290600101906020018083116110ef57829003601f168201915b5050505050905082565b6000611120611955565b6060600354421015611167576040517f08c379a000000000000000000000000000000000000000000000000000000000815260040161115e90611fe8565b60405180910390fd5b600754600a60088160405180604001604052908160008201548152602001600182018054611194906122d1565b80601f01602080910402602001604051908101604052809291908181526020018280546111c0906122d1565b801561120d5780601f106111e25761010080835404028352916020019161120d565b820191906000526020600020905b8154815290600101906020018083116111f057829003601f168201915b505050505081525050915080805480602002602001604051908101604052809291908181526020016000905b828210156112f3578382906000526020600020016040518060600160405290816000820160009054906101000a900460ff161515151581526020016000820160019054906101000a900460ff161515151581526020016000820160029054906101000a900473ffffffffffffffffffffffffffffffffffffffff1673ffffffffffffffffffffffffffffffffffffffff1673ffffffffffffffffffffffffffffffffffffffff168152505081526020019060010190611239565b505050509050925092509250909192565b600354421015611349576040517f08c379a000000000000000000000000000000000000000000000000000000000815260040161134090611fe8565b60405180910390fd5b60001515600660009054906101000a900460ff1615151461139f576040517f08c379a000000000000000000000000000000000000000000000000000000000815260040161139690612028565b60405180910390fd5b600160009054906101000a900473ffffffffffffffffffffffffffffffffffffffff1673ffffffffffffffffffffffffffffffffffffffff163373ffffffffffffffffffffffffffffffffffffffff16148061148a5750600073ffffffffffffffffffffffffffffffffffffffff16600960003373ffffffffffffffffffffffffffffffffffffffff1673ffffffffffffffffffffffffffffffffffffffff16815260200190815260200160002060000160029054906101000a900473ffffffffffffffffffffffffffffffffffffffff1673ffffffffffffffffffffffffffffffffffffffff1614155b6114c9576040517f08c379a00000000000000000000000000000000000000000000000000000000081526004016114c090611f28565b60405180910390fd5b600060646002805490506005546114e091906121a5565b6114ea91906121d6565b9050600454811061151d577f41636365707465640000000000000000000000000000000000000000000000006007819055505b60005b6002805490508160ff16101561174b57600015156009600060028460ff168154811061154f5761154e6123eb565b5b9060005260206000200160009054906101000a900473ffffffffffffffffffffffffffffffffffffffff1673ffffffffffffffffffffffffffffffffffffffff1673ffffffffffffffffffffffffffffffffffffffff16815260200190815260200160002060000160009054906101000a900460ff16151514156117385760086009600060028460ff16815481106115ea576115e96123eb565b5b9060005260206000200160009054906101000a900473ffffffffffffffffffffffffffffffffffffffff1673ffffffffffffffffffffffffffffffffffffffff1673ffffffffffffffffffffffffffffffffffffffff168152602001908152602001600020908060018154018082558091505060019003906000526020600020016000909190919091506000820160009054906101000a900460ff168160000160006101000a81548160ff0219169083151502179055506000820160019054906101000a900460ff168160000160016101000a81548160ff0219169083151502179055506000820160029054906101000a900473ffffffffffffffffffffffffffffffffffffffff168160000160026101000a81548173ffffffffffffffffffffffffffffffffffffffff021916908373ffffffffffffffffffffffffffffffffffffffff16021790555050505b808061174390612334565b915050611520565b506001600660006101000a81548160ff02191690831515021790555050565b60096020528060005260406000206000915090508060000160009054906101000a900460ff16908060000160019054906101000a900460ff16908060000160029054906101000a900473ffffffffffffffffffffffffffffffffffffffff16905083565b6060600080600080600a600101600354600160009054906101000a900473ffffffffffffffffffffffffffffffffffffffff16600454600554848054611813906122d1565b80601f016020809104026020016040519081016040528092919081815260200182805461183f906122d1565b801561188c5780601f106118615761010080835404028352916020019161188c565b820191906000526020600020905b81548152906001019060200180831161186f57829003601f168201915b50505050509450945094509450945094509091929394565b60045481565b600881815481106118ba57600080fd5b906000526020600020016000915090508060000160009054906101000a900460ff16908060000160019054906101000a900460ff16908060000160029054906101000a900473ffffffffffffffffffffffffffffffffffffffff16905083565b6000600660009054906101000a900460ff16905090565b60008054906101000a900473ffffffffffffffffffffffffffffffffffffffff1681565b604051806040016040528060008152602001606081525090565b600061198261197d846120b8565b612093565b90508281526020810184848401111561199e5761199d61244e565b5b6119a984828561228f565b509392505050565b6000813590506119c0816126a0565b92915050565b600082601f8301126119db576119da612449565b5b81356119eb84826020860161196f565b91505092915050565b600081359050611a03816126b7565b92915050565b600060208284031215611a1f57611a1e612458565b5b6000611a2d848285016119b1565b91505092915050565b600060208284031215611a4c57611a4b612458565b5b600082013567ffffffffffffffff811115611a6a57611a69612453565b5b611a76848285016119c6565b91505092915050565b600060208284031215611a9557611a94612458565b5b6000611aa3848285016119f4565b91505092915050565b6000611ab88383611d7a565b60608301905092915050565b611acd81612230565b82525050565b611adc81612230565b82525050565b6000611aed826120f9565b611af7818561211c565b9350611b02836120e9565b8060005b83811015611b33578151611b1a8882611aac565b9750611b258361210f565b925050600181019050611b06565b5085935050505092915050565b611b4981612242565b82525050565b611b5881612242565b82525050565b611b678161224e565b82525050565b6000611b7882612104565b611b82818561212d565b9350611b9281856020860161229e565b611b9b8161245d565b840191505092915050565b6000611bb182612104565b611bbb818561213e565b9350611bcb81856020860161229e565b611bd48161245d565b840191505092915050565b6000611bec601f8361213e565b9150611bf78261246e565b602082019050919050565b6000611c0f60268361213e565b9150611c1a82612497565b604082019050919050565b6000611c32601c8361213e565b9150611c3d826124e6565b602082019050919050565b6000611c5560158361213e565b9150611c608261250f565b602082019050919050565b6000611c78601e8361213e565b9150611c8382612538565b602082019050919050565b6000611c9b60248361213e565b9150611ca682612561565b604082019050919050565b6000611cbe60288361213e565b9150611cc9826125b0565b604082019050919050565b6000611ce160208361213e565b9150611cec826125ff565b602082019050919050565b6000611d0460128361213e565b9150611d0f82612628565b602082019050919050565b6000611d2760258361213e565b9150611d3282612651565b604082019050919050565b6000604083016000830151611d556000860182611dbc565b5060208301518482036020860152611d6d8282611b6d565b9150508091505092915050565b606082016000820151611d906000850182611b40565b506020820151611da36020850182611b40565b506040820151611db66040850182611ac4565b50505050565b611dc581612278565b82525050565b611dd481612278565b82525050565b6000602082019050611def6000830184611ad3565b92915050565b6000602082019050611e0a6000830184611b4f565b92915050565b6000606082019050611e256000830186611b4f565b611e326020830185611b4f565b611e3f6040830184611ad3565b949350505050565b6000606082019050611e5c6000830186611b5e565b8181036020830152611e6e8185611d3d565b90508181036040830152611e828184611ae2565b9050949350505050565b60006020820190508181036000830152611ea68184611ba6565b905092915050565b600060a0820190508181036000830152611ec88188611ba6565b9050611ed76020830187611dcb565b611ee46040830186611ad3565b611ef16060830185611dcb565b611efe6080830184611dcb565b9695505050505050565b60006020820190508181036000830152611f2181611bdf565b9050919050565b60006020820190508181036000830152611f4181611c02565b9050919050565b60006020820190508181036000830152611f6181611c25565b9050919050565b60006020820190508181036000830152611f8181611c48565b9050919050565b60006020820190508181036000830152611fa181611c6b565b9050919050565b60006020820190508181036000830152611fc181611c8e565b9050919050565b60006020820190508181036000830152611fe181611cb1565b9050919050565b6000602082019050818103600083015261200181611cd4565b9050919050565b6000602082019050818103600083015261202181611cf7565b9050919050565b6000602082019050818103600083015261204181611d1a565b9050919050565b600060208201905061205d6000830184611dcb565b92915050565b60006040820190506120786000830185611dcb565b818103602083015261208a8184611ba6565b90509392505050565b600061209d6120ae565b90506120a98282612303565b919050565b6000604051905090565b600067ffffffffffffffff8211156120d3576120d261241a565b5b6120dc8261245d565b9050602081019050919050565b6000819050602082019050919050565b600081519050919050565b600081519050919050565b6000602082019050919050565b600082825260208201905092915050565b600082825260208201905092915050565b600082825260208201905092915050565b600061215a82612278565b915061216583612278565b9250827fffffffffffffffffffffffffffffffffffffffffffffffffffffffffffffffff0382111561219a5761219961235e565b5b828201905092915050565b60006121b082612278565b91506121bb83612278565b9250826121cb576121ca61238d565b5b828204905092915050565b60006121e182612278565b91506121ec83612278565b9250817fffffffffffffffffffffffffffffffffffffffffffffffffffffffffffffffff04831182151516156122255761222461235e565b5b828202905092915050565b600061223b82612258565b9050919050565b60008115159050919050565b6000819050919050565b600073ffffffffffffffffffffffffffffffffffffffff82169050919050565b6000819050919050565b600060ff82169050919050565b82818337600083830152505050565b60005b838110156122bc5780820151818401526020810190506122a1565b838111156122cb576000848401525b50505050565b600060028204905060018216806122e957607f821691505b602082108114156122fd576122fc6123bc565b5b50919050565b61230c8261245d565b810181811067ffffffffffffffff8211171561232b5761232a61241a565b5b80604052505050565b600061233f82612282565b915060ff8214156123535761235261235e565b5b600182019050919050565b7f4e487b7100000000000000000000000000000000000000000000000000000000600052601160045260246000fd5b7f4e487b7100000000000000000000000000000000000000000000000000000000600052601260045260246000fd5b7f4e487b7100000000000000000000000000000000000000000000000000000000600052602260045260246000fd5b7f4e487b7100000000000000000000000000000000000000000000000000000000600052603260045260246000fd5b7f4e487b7100000000000000000000000000000000000000000000000000000000600052604160045260246000fd5b600080fd5b600080fd5b600080fd5b600080fd5b6000601f19601f8301169050919050565b7f526563697069656e7420697320616c7265616479207265676973746572656400600082015250565b7f596f75206172656e277420617574686f72697a6520746f20636f6d70696c652060008201527f42756e646c650000000000000000000000000000000000000000000000000000602082015250565b7f596f7520616c72656164792073656e74206120726573706f6e73652e00000000600082015250565b7f496e69746961746f722063616e277420766f7465210000000000000000000000600082015250565b7f596f7520617265206e6f74207265676973746572656420746f20766f74650000600082015250565b7f50726f706f73616c20686173207265616368656420697473206578706972792060008201527f6461746500000000000000000000000000000000000000000000000000000000602082015250565b7f4f6e6c7920696e69746961746f722063616e207265676973746572206120726560008201527f63697069656e742e000000000000000000000000000000000000000000000000602082015250565b7f5665726469637420686173206e6f74206265656e207265616368656420796574600082015250565b7f566f74696e672068617320657870697265640000000000000000000000000000600082015250565b7f436f6e73656e7375732068617320616c7265616479206265656e2063616c637560008201527f6c61746564000000000000000000000000000000000000000000000000000000602082015250565b6126a981612230565b81146126b457600080fd5b50565b6126c081612278565b81146126cb57600080fd5b5056fea264697066735822122030af17438dc9abfaff8f25e2e52acd34c949a187eda9d5a39cafd27f71e243d364736f6c63430008070033",
					"opcodes": "PUSH1 0x80 PUSH1 0x40 MSTORE CALLVALUE DUP1 ISZERO PUSH3 0x11 JUMPI PUSH1 0x0 DUP1 REVERT JUMPDEST POP PUSH1 0x40 MLOAD PUSH3 0x2C72 CODESIZE SUB DUP1 PUSH3 0x2C72 DUP4 CODECOPY DUP2 DUP2 ADD PUSH1 0x40 MSTORE DUP2 ADD SWAP1 PUSH3 0x37 SWAP2 SWAP1 PUSH3 0x2AF JUMP JUMPDEST CALLER PUSH1 0x1 PUSH1 0x0 PUSH2 0x100 EXP DUP2 SLOAD DUP2 PUSH20 0xFFFFFFFFFFFFFFFFFFFFFFFFFFFFFFFFFFFFFFFF MUL NOT AND SWAP1 DUP4 PUSH20 0xFFFFFFFFFFFFFFFFFFFFFFFFFFFFFFFFFFFFFFFF AND MUL OR SWAP1 SSTORE POP DUP2 TIMESTAMP PUSH3 0x86 SWAP2 SWAP1 PUSH3 0x389 JUMP JUMPDEST PUSH1 0x3 DUP2 SWAP1 SSTORE POP DUP1 PUSH1 0x4 DUP2 SWAP1 SSTORE POP PUSH1 0x0 PUSH1 0x5 DUP2 SWAP1 SSTORE POP PUSH1 0x0 PUSH1 0x6 PUSH1 0x0 PUSH2 0x100 EXP DUP2 SLOAD DUP2 PUSH1 0xFF MUL NOT AND SWAP1 DUP4 ISZERO ISZERO MUL OR SWAP1 SSTORE POP PUSH32 0x52656A6563746564000000000000000000000000000000000000000000000000 PUSH1 0x7 DUP2 SWAP1 SSTORE POP ADDRESS PUSH1 0x0 DUP1 PUSH2 0x100 EXP DUP2 SLOAD DUP2 PUSH20 0xFFFFFFFFFFFFFFFFFFFFFFFFFFFFFFFFFFFFFFFF MUL NOT AND SWAP1 DUP4 PUSH20 0xFFFFFFFFFFFFFFFFFFFFFFFFFFFFFFFFFFFFFFFF AND MUL OR SWAP1 SSTORE POP PUSH1 0x40 MLOAD DUP1 PUSH1 0x40 ADD PUSH1 0x40 MSTORE DUP1 PUSH1 0x0 DUP2 MSTORE PUSH1 0x20 ADD DUP5 DUP2 MSTORE POP PUSH1 0xA PUSH1 0x0 DUP3 ADD MLOAD DUP2 PUSH1 0x0 ADD SSTORE PUSH1 0x20 DUP3 ADD MLOAD DUP2 PUSH1 0x1 ADD SWAP1 DUP1 MLOAD SWAP1 PUSH1 0x20 ADD SWAP1 PUSH3 0x15D SWAP3 SWAP2 SWAP1 PUSH3 0x16A JUMP JUMPDEST POP SWAP1 POP POP POP POP POP PUSH3 0x55E JUMP JUMPDEST DUP3 DUP1 SLOAD PUSH3 0x178 SWAP1 PUSH3 0x426 JUMP JUMPDEST SWAP1 PUSH1 0x0 MSTORE PUSH1 0x20 PUSH1 0x0 KECCAK256 SWAP1 PUSH1 0x1F ADD PUSH1 0x20 SWAP1 DIV DUP2 ADD SWAP3 DUP3 PUSH3 0x19C JUMPI PUSH1 0x0 DUP6 SSTORE PUSH3 0x1E8 JUMP JUMPDEST DUP3 PUSH1 0x1F LT PUSH3 0x1B7 JUMPI DUP1 MLOAD PUSH1 0xFF NOT AND DUP4 DUP1 ADD OR DUP6 SSTORE PUSH3 0x1E8 JUMP JUMPDEST DUP3 DUP1 ADD PUSH1 0x1 ADD DUP6 SSTORE DUP3 ISZERO PUSH3 0x1E8 JUMPI SWAP2 DUP3 ADD JUMPDEST DUP3 DUP2 GT ISZERO PUSH3 0x1E7 JUMPI DUP3 MLOAD DUP3 SSTORE SWAP2 PUSH1 0x20 ADD SWAP2 SWAP1 PUSH1 0x1 ADD SWAP1 PUSH3 0x1CA JUMP JUMPDEST JUMPDEST POP SWAP1 POP PUSH3 0x1F7 SWAP2 SWAP1 PUSH3 0x1FB JUMP JUMPDEST POP SWAP1 JUMP JUMPDEST JUMPDEST DUP1 DUP3 GT ISZERO PUSH3 0x216 JUMPI PUSH1 0x0 DUP2 PUSH1 0x0 SWAP1 SSTORE POP PUSH1 0x1 ADD PUSH3 0x1FC JUMP JUMPDEST POP SWAP1 JUMP JUMPDEST PUSH1 0x0 PUSH3 0x231 PUSH3 0x22B DUP5 PUSH3 0x353 JUMP JUMPDEST PUSH3 0x32A JUMP JUMPDEST SWAP1 POP DUP3 DUP2 MSTORE PUSH1 0x20 DUP2 ADD DUP5 DUP5 DUP5 ADD GT ISZERO PUSH3 0x250 JUMPI PUSH3 0x24F PUSH3 0x524 JUMP JUMPDEST JUMPDEST PUSH3 0x25D DUP5 DUP3 DUP6 PUSH3 0x3F0 JUMP JUMPDEST POP SWAP4 SWAP3 POP POP POP JUMP JUMPDEST PUSH1 0x0 DUP3 PUSH1 0x1F DUP4 ADD SLT PUSH3 0x27D JUMPI PUSH3 0x27C PUSH3 0x51F JUMP JUMPDEST JUMPDEST DUP2 MLOAD PUSH3 0x28F DUP5 DUP3 PUSH1 0x20 DUP7 ADD PUSH3 0x21A JUMP JUMPDEST SWAP2 POP POP SWAP3 SWAP2 POP POP JUMP JUMPDEST PUSH1 0x0 DUP2 MLOAD SWAP1 POP PUSH3 0x2A9 DUP2 PUSH3 0x544 JUMP JUMPDEST SWAP3 SWAP2 POP POP JUMP JUMPDEST PUSH1 0x0 DUP1 PUSH1 0x0 PUSH1 0x60 DUP5 DUP7 SUB SLT ISZERO PUSH3 0x2CB JUMPI PUSH3 0x2CA PUSH3 0x52E JUMP JUMPDEST JUMPDEST PUSH1 0x0 DUP5 ADD MLOAD PUSH8 0xFFFFFFFFFFFFFFFF DUP2 GT ISZERO PUSH3 0x2EC JUMPI PUSH3 0x2EB PUSH3 0x529 JUMP JUMPDEST JUMPDEST PUSH3 0x2FA DUP7 DUP3 DUP8 ADD PUSH3 0x265 JUMP JUMPDEST SWAP4 POP POP PUSH1 0x20 PUSH3 0x30D DUP7 DUP3 DUP8 ADD PUSH3 0x298 JUMP JUMPDEST SWAP3 POP POP PUSH1 0x40 PUSH3 0x320 DUP7 DUP3 DUP8 ADD PUSH3 0x298 JUMP JUMPDEST SWAP2 POP POP SWAP3 POP SWAP3 POP SWAP3 JUMP JUMPDEST PUSH1 0x0 PUSH3 0x336 PUSH3 0x349 JUMP JUMPDEST SWAP1 POP PUSH3 0x344 DUP3 DUP3 PUSH3 0x45C JUMP JUMPDEST SWAP2 SWAP1 POP JUMP JUMPDEST PUSH1 0x0 PUSH1 0x40 MLOAD SWAP1 POP SWAP1 JUMP JUMPDEST PUSH1 0x0 PUSH8 0xFFFFFFFFFFFFFFFF DUP3 GT ISZERO PUSH3 0x371 JUMPI PUSH3 0x370 PUSH3 0x4F0 JUMP JUMPDEST JUMPDEST PUSH3 0x37C DUP3 PUSH3 0x533 JUMP JUMPDEST SWAP1 POP PUSH1 0x20 DUP2 ADD SWAP1 POP SWAP2 SWAP1 POP JUMP JUMPDEST PUSH1 0x0 PUSH3 0x396 DUP3 PUSH3 0x3E6 JUMP JUMPDEST SWAP2 POP PUSH3 0x3A3 DUP4 PUSH3 0x3E6 JUMP JUMPDEST SWAP3 POP DUP3 PUSH32 0xFFFFFFFFFFFFFFFFFFFFFFFFFFFFFFFFFFFFFFFFFFFFFFFFFFFFFFFFFFFFFFFF SUB DUP3 GT ISZERO PUSH3 0x3DB JUMPI PUSH3 0x3DA PUSH3 0x492 JUMP JUMPDEST JUMPDEST DUP3 DUP3 ADD SWAP1 POP SWAP3 SWAP2 POP POP JUMP JUMPDEST PUSH1 0x0 DUP2 SWAP1 POP SWAP2 SWAP1 POP JUMP JUMPDEST PUSH1 0x0 JUMPDEST DUP4 DUP2 LT ISZERO PUSH3 0x410 JUMPI DUP1 DUP3 ADD MLOAD DUP2 DUP5 ADD MSTORE PUSH1 0x20 DUP2 ADD SWAP1 POP PUSH3 0x3F3 JUMP JUMPDEST DUP4 DUP2 GT ISZERO PUSH3 0x420 JUMPI PUSH1 0x0 DUP5 DUP5 ADD MSTORE JUMPDEST POP POP POP POP JUMP JUMPDEST PUSH1 0x0 PUSH1 0x2 DUP3 DIV SWAP1 POP PUSH1 0x1 DUP3 AND DUP1 PUSH3 0x43F JUMPI PUSH1 0x7F DUP3 AND SWAP2 POP JUMPDEST PUSH1 0x20 DUP3 LT DUP2 EQ ISZERO PUSH3 0x456 JUMPI PUSH3 0x455 PUSH3 0x4C1 JUMP JUMPDEST JUMPDEST POP SWAP2 SWAP1 POP JUMP JUMPDEST PUSH3 0x467 DUP3 PUSH3 0x533 JUMP JUMPDEST DUP2 ADD DUP2 DUP2 LT PUSH8 0xFFFFFFFFFFFFFFFF DUP3 GT OR ISZERO PUSH3 0x489 JUMPI PUSH3 0x488 PUSH3 0x4F0 JUMP JUMPDEST JUMPDEST DUP1 PUSH1 0x40 MSTORE POP POP POP JUMP JUMPDEST PUSH32 0x4E487B7100000000000000000000000000000000000000000000000000000000 PUSH1 0x0 MSTORE PUSH1 0x11 PUSH1 0x4 MSTORE PUSH1 0x24 PUSH1 0x0 REVERT JUMPDEST PUSH32 0x4E487B7100000000000000000000000000000000000000000000000000000000 PUSH1 0x0 MSTORE PUSH1 0x22 PUSH1 0x4 MSTORE PUSH1 0x24 PUSH1 0x0 REVERT JUMPDEST PUSH32 0x4E487B7100000000000000000000000000000000000000000000000000000000 PUSH1 0x0 MSTORE PUSH1 0x41 PUSH1 0x4 MSTORE PUSH1 0x24 PUSH1 0x0 REVERT JUMPDEST PUSH1 0x0 DUP1 REVERT JUMPDEST PUSH1 0x0 DUP1 REVERT JUMPDEST PUSH1 0x0 DUP1 REVERT JUMPDEST PUSH1 0x0 DUP1 REVERT JUMPDEST PUSH1 0x0 PUSH1 0x1F NOT PUSH1 0x1F DUP4 ADD AND SWAP1 POP SWAP2 SWAP1 POP JUMP JUMPDEST PUSH3 0x54F DUP2 PUSH3 0x3E6 JUMP JUMPDEST DUP2 EQ PUSH3 0x55B JUMPI PUSH1 0x0 DUP1 REVERT JUMPDEST POP JUMP JUMPDEST PUSH2 0x2704 DUP1 PUSH3 0x56E PUSH1 0x0 CODECOPY PUSH1 0x0 RETURN INVALID PUSH1 0x80 PUSH1 0x40 MSTORE CALLVALUE DUP1 ISZERO PUSH2 0x10 JUMPI PUSH1 0x0 DUP1 REVERT JUMPDEST POP PUSH1 0x4 CALLDATASIZE LT PUSH2 0x100 JUMPI PUSH1 0x0 CALLDATALOAD PUSH1 0xE0 SHR DUP1 PUSH4 0x82316745 GT PUSH2 0x97 JUMPI DUP1 PUSH4 0xD77AA749 GT PUSH2 0x66 JUMPI DUP1 PUSH4 0xD77AA749 EQ PUSH2 0x296 JUMPI DUP1 PUSH4 0xDA58C7D9 EQ PUSH2 0x2B4 JUMPI DUP1 PUSH4 0xDD944B67 EQ PUSH2 0x2E6 JUMPI DUP1 PUSH4 0xF6B4DFB4 EQ PUSH2 0x304 JUMPI PUSH2 0x100 JUMP JUMPDEST DUP1 PUSH4 0x82316745 EQ PUSH2 0x218 JUMPI DUP1 PUSH4 0x95B02DFA EQ PUSH2 0x238 JUMPI DUP1 PUSH4 0x9AA4BBDD EQ PUSH2 0x242 JUMPI DUP1 PUSH4 0xA5EA11DA EQ PUSH2 0x274 JUMPI PUSH2 0x100 JUMP JUMPDEST DUP1 PUSH4 0x5361A0EA GT PUSH2 0xD3 JUMPI DUP1 PUSH4 0x5361A0EA EQ PUSH2 0x18B JUMPI DUP1 PUSH4 0x5C39FCC1 EQ PUSH2 0x1BD JUMPI DUP1 PUSH4 0x7403C5E5 EQ PUSH2 0x1DB JUMPI DUP1 PUSH4 0x753EC103 EQ PUSH2 0x1F9 JUMPI PUSH2 0x100 JUMP JUMPDEST DUP1 PUSH4 0xCB6AAF1 EQ PUSH2 0x105 JUMPI DUP1 PUSH4 0x15FE6F1B EQ PUSH2 0x135 JUMPI DUP1 PUSH4 0x19EB4A90 EQ PUSH2 0x151 JUMPI DUP1 PUSH4 0x323082D7 EQ PUSH2 0x16F JUMPI JUMPDEST PUSH1 0x0 DUP1 REVERT JUMPDEST PUSH2 0x11F PUSH1 0x4 DUP1 CALLDATASIZE SUB DUP2 ADD SWAP1 PUSH2 0x11A SWAP2 SWAP1 PUSH2 0x1A7F JUMP JUMPDEST PUSH2 0x322 JUMP JUMPDEST PUSH1 0x40 MLOAD PUSH2 0x12C SWAP2 SWAP1 PUSH2 0x1DDA JUMP JUMPDEST PUSH1 0x40 MLOAD DUP1 SWAP2 SUB SWAP1 RETURN JUMPDEST PUSH2 0x14F PUSH1 0x4 DUP1 CALLDATASIZE SUB DUP2 ADD SWAP1 PUSH2 0x14A SWAP2 SWAP1 PUSH2 0x1A09 JUMP JUMPDEST PUSH2 0x361 JUMP JUMPDEST STOP JUMPDEST PUSH2 0x159 PUSH2 0x703 JUMP JUMPDEST PUSH1 0x40 MLOAD PUSH2 0x166 SWAP2 SWAP1 PUSH2 0x1E8C JUMP JUMPDEST PUSH1 0x40 MLOAD DUP1 SWAP2 SUB SWAP1 RETURN JUMPDEST PUSH2 0x189 PUSH1 0x4 DUP1 CALLDATASIZE SUB DUP2 ADD SWAP1 PUSH2 0x184 SWAP2 SWAP1 PUSH2 0x1A36 JUMP JUMPDEST PUSH2 0x798 JUMP JUMPDEST STOP JUMPDEST PUSH2 0x1A5 PUSH1 0x4 DUP1 CALLDATASIZE SUB DUP2 ADD SWAP1 PUSH2 0x1A0 SWAP2 SWAP1 PUSH2 0x1A09 JUMP JUMPDEST PUSH2 0xF3B JUMP JUMPDEST PUSH1 0x40 MLOAD PUSH2 0x1B4 SWAP4 SWAP3 SWAP2 SWAP1 PUSH2 0x1E10 JUMP JUMPDEST PUSH1 0x40 MLOAD DUP1 SWAP2 SUB SWAP1 RETURN JUMPDEST PUSH2 0x1C5 PUSH2 0x1050 JUMP JUMPDEST PUSH1 0x40 MLOAD PUSH2 0x1D2 SWAP2 SWAP1 PUSH2 0x1DDA JUMP JUMPDEST PUSH1 0x40 MLOAD DUP1 SWAP2 SUB SWAP1 RETURN JUMPDEST PUSH2 0x1E3 PUSH2 0x1076 JUMP JUMPDEST PUSH1 0x40 MLOAD PUSH2 0x1F0 SWAP2 SWAP1 PUSH2 0x2048 JUMP JUMPDEST PUSH1 0x40 MLOAD DUP1 SWAP2 SUB SWAP1 RETURN JUMPDEST PUSH2 0x201 PUSH2 0x107C JUMP JUMPDEST PUSH1 0x40 MLOAD PUSH2 0x20F SWAP3 SWAP2 SWAP1 PUSH2 0x2063 JUMP JUMPDEST PUSH1 0x40 MLOAD DUP1 SWAP2 SUB SWAP1 RETURN JUMPDEST PUSH2 0x220 PUSH2 0x1116 JUMP JUMPDEST PUSH1 0x40 MLOAD PUSH2 0x22F SWAP4 SWAP3 SWAP2 SWAP1 PUSH2 0x1E47 JUMP JUMPDEST PUSH1 0x40 MLOAD DUP1 SWAP2 SUB SWAP1 RETURN JUMPDEST PUSH2 0x240 PUSH2 0x1304 JUMP JUMPDEST STOP JUMPDEST PUSH2 0x25C PUSH1 0x4 DUP1 CALLDATASIZE SUB DUP2 ADD SWAP1 PUSH2 0x257 SWAP2 SWAP1 PUSH2 0x1A09 JUMP JUMPDEST PUSH2 0x176A JUMP JUMPDEST PUSH1 0x40 MLOAD PUSH2 0x26B SWAP4 SWAP3 SWAP2 SWAP1 PUSH2 0x1E10 JUMP JUMPDEST PUSH1 0x40 MLOAD DUP1 SWAP2 SUB SWAP1 RETURN JUMPDEST PUSH2 0x27C PUSH2 0x17CE JUMP JUMPDEST PUSH1 0x40 MLOAD PUSH2 0x28D SWAP6 SWAP5 SWAP4 SWAP3 SWAP2 SWAP1 PUSH2 0x1EAE JUMP JUMPDEST PUSH1 0x40 MLOAD DUP1 SWAP2 SUB SWAP1 RETURN JUMPDEST PUSH2 0x29E PUSH2 0x18A4 JUMP JUMPDEST PUSH1 0x40 MLOAD PUSH2 0x2AB SWAP2 SWAP1 PUSH2 0x2048 JUMP JUMPDEST PUSH1 0x40 MLOAD DUP1 SWAP2 SUB SWAP1 RETURN JUMPDEST PUSH2 0x2CE PUSH1 0x4 DUP1 CALLDATASIZE SUB DUP2 ADD SWAP1 PUSH2 0x2C9 SWAP2 SWAP1 PUSH2 0x1A7F JUMP JUMPDEST PUSH2 0x18AA JUMP JUMPDEST PUSH1 0x40 MLOAD PUSH2 0x2DD SWAP4 SWAP3 SWAP2 SWAP1 PUSH2 0x1E10 JUMP JUMPDEST PUSH1 0x40 MLOAD DUP1 SWAP2 SUB SWAP1 RETURN JUMPDEST PUSH2 0x2EE PUSH2 0x191A JUMP JUMPDEST PUSH1 0x40 MLOAD PUSH2 0x2FB SWAP2 SWAP1 PUSH2 0x1DF5 JUMP JUMPDEST PUSH1 0x40 MLOAD DUP1 SWAP2 SUB SWAP1 RETURN JUMPDEST PUSH2 0x30C PUSH2 0x1931 JUMP JUMPDEST PUSH1 0x40 MLOAD PUSH2 0x319 SWAP2 SWAP1 PUSH2 0x1DDA JUMP JUMPDEST PUSH1 0x40 MLOAD DUP1 SWAP2 SUB SWAP1 RETURN JUMPDEST PUSH1 0x2 DUP2 DUP2 SLOAD DUP2 LT PUSH2 0x332 JUMPI PUSH1 0x0 DUP1 REVERT JUMPDEST SWAP1 PUSH1 0x0 MSTORE PUSH1 0x20 PUSH1 0x0 KECCAK256 ADD PUSH1 0x0 SWAP2 POP SLOAD SWAP1 PUSH2 0x100 EXP SWAP1 DIV PUSH20 0xFFFFFFFFFFFFFFFFFFFFFFFFFFFFFFFFFFFFFFFF AND DUP2 JUMP JUMPDEST PUSH1 0x1 PUSH1 0x0 SWAP1 SLOAD SWAP1 PUSH2 0x100 EXP SWAP1 DIV PUSH20 0xFFFFFFFFFFFFFFFFFFFFFFFFFFFFFFFFFFFFFFFF AND PUSH20 0xFFFFFFFFFFFFFFFFFFFFFFFFFFFFFFFFFFFFFFFF AND CALLER PUSH20 0xFFFFFFFFFFFFFFFFFFFFFFFFFFFFFFFFFFFFFFFF AND EQ PUSH2 0x3F1 JUMPI PUSH1 0x40 MLOAD PUSH32 0x8C379A000000000000000000000000000000000000000000000000000000000 DUP2 MSTORE PUSH1 0x4 ADD PUSH2 0x3E8 SWAP1 PUSH2 0x1FC8 JUMP JUMPDEST PUSH1 0x40 MLOAD DUP1 SWAP2 SUB SWAP1 REVERT JUMPDEST PUSH1 0x1 PUSH1 0x0 SWAP1 SLOAD SWAP1 PUSH2 0x100 EXP SWAP1 DIV PUSH20 0xFFFFFFFFFFFFFFFFFFFFFFFFFFFFFFFFFFFFFFFF AND PUSH20 0xFFFFFFFFFFFFFFFFFFFFFFFFFFFFFFFFFFFFFFFF AND DUP2 PUSH20 0xFFFFFFFFFFFFFFFFFFFFFFFFFFFFFFFFFFFFFFFF AND EQ ISZERO PUSH2 0x482 JUMPI PUSH1 0x40 MLOAD PUSH32 0x8C379A000000000000000000000000000000000000000000000000000000000 DUP2 MSTORE PUSH1 0x4 ADD PUSH2 0x479 SWAP1 PUSH2 0x1F68 JUMP JUMPDEST PUSH1 0x40 MLOAD DUP1 SWAP2 SUB SWAP1 REVERT JUMPDEST PUSH1 0x0 PUSH20 0xFFFFFFFFFFFFFFFFFFFFFFFFFFFFFFFFFFFFFFFF AND PUSH1 0x9 PUSH1 0x0 DUP4 PUSH20 0xFFFFFFFFFFFFFFFFFFFFFFFFFFFFFFFFFFFFFFFF AND PUSH20 0xFFFFFFFFFFFFFFFFFFFFFFFFFFFFFFFFFFFFFFFF AND DUP2 MSTORE PUSH1 0x20 ADD SWAP1 DUP2 MSTORE PUSH1 0x20 ADD PUSH1 0x0 KECCAK256 PUSH1 0x0 ADD PUSH1 0x2 SWAP1 SLOAD SWAP1 PUSH2 0x100 EXP SWAP1 DIV PUSH20 0xFFFFFFFFFFFFFFFFFFFFFFFFFFFFFFFFFFFFFFFF AND PUSH20 0xFFFFFFFFFFFFFFFFFFFFFFFFFFFFFFFFFFFFFFFF AND EQ PUSH2 0x553 JUMPI PUSH1 0x40 MLOAD PUSH32 0x8C379A000000000000000000000000000000000000000000000000000000000 DUP2 MSTORE PUSH1 0x4 ADD PUSH2 0x54A SWAP1 PUSH2 0x1F08 JUMP JUMPDEST PUSH1 0x40 MLOAD DUP1 SWAP2 SUB SWAP1 REVERT JUMPDEST PUSH1 0x3 SLOAD TIMESTAMP LT PUSH2 0x597 JUMPI PUSH1 0x40 MLOAD PUSH32 0x8C379A000000000000000000000000000000000000000000000000000000000 DUP2 MSTORE PUSH1 0x4 ADD PUSH2 0x58E SWAP1 PUSH2 0x1FA8 JUMP JUMPDEST PUSH1 0x40 MLOAD DUP1 SWAP2 SUB SWAP1 REVERT JUMPDEST PUSH1 0x0 PUSH1 0x40 MLOAD DUP1 PUSH1 0x60 ADD PUSH1 0x40 MSTORE DUP1 PUSH1 0x0 ISZERO ISZERO DUP2 MSTORE PUSH1 0x20 ADD PUSH1 0x0 ISZERO ISZERO DUP2 MSTORE PUSH1 0x20 ADD DUP4 PUSH20 0xFFFFFFFFFFFFFFFFFFFFFFFFFFFFFFFFFFFFFFFF AND DUP2 MSTORE POP SWAP1 POP DUP1 PUSH1 0x9 PUSH1 0x0 DUP5 PUSH20 0xFFFFFFFFFFFFFFFFFFFFFFFFFFFFFFFFFFFFFFFF AND PUSH20 0xFFFFFFFFFFFFFFFFFFFFFFFFFFFFFFFFFFFFFFFF AND DUP2 MSTORE PUSH1 0x20 ADD SWAP1 DUP2 MSTORE PUSH1 0x20 ADD PUSH1 0x0 KECCAK256 PUSH1 0x0 DUP3 ADD MLOAD DUP2 PUSH1 0x0 ADD PUSH1 0x0 PUSH2 0x100 EXP DUP2 SLOAD DUP2 PUSH1 0xFF MUL NOT AND SWAP1 DUP4 ISZERO ISZERO MUL OR SWAP1 SSTORE POP PUSH1 0x20 DUP3 ADD MLOAD DUP2 PUSH1 0x0 ADD PUSH1 0x1 PUSH2 0x100 EXP DUP2 SLOAD DUP2 PUSH1 0xFF MUL NOT AND SWAP1 DUP4 ISZERO ISZERO MUL OR SWAP1 SSTORE POP PUSH1 0x40 DUP3 ADD MLOAD DUP2 PUSH1 0x0 ADD PUSH1 0x2 PUSH2 0x100 EXP DUP2 SLOAD DUP2 PUSH20 0xFFFFFFFFFFFFFFFFFFFFFFFFFFFFFFFFFFFFFFFF MUL NOT AND SWAP1 DUP4 PUSH20 0xFFFFFFFFFFFFFFFFFFFFFFFFFFFFFFFFFFFFFFFF AND MUL OR SWAP1 SSTORE POP SWAP1 POP POP PUSH1 0x2 DUP3 SWAP1 DUP1 PUSH1 0x1 DUP2 SLOAD ADD DUP1 DUP3 SSTORE DUP1 SWAP2 POP POP PUSH1 0x1 SWAP1 SUB SWAP1 PUSH1 0x0 MSTORE PUSH1 0x20 PUSH1 0x0 KECCAK256 ADD PUSH1 0x0 SWAP1 SWAP2 SWAP1 SWAP2 SWAP1 SWAP2 PUSH2 0x100 EXP DUP2 SLOAD DUP2 PUSH20 0xFFFFFFFFFFFFFFFFFFFFFFFFFFFFFFFFFFFFFFFF MUL NOT AND SWAP1 DUP4 PUSH20 0xFFFFFFFFFFFFFFFFFFFFFFFFFFFFFFFFFFFFFFFF AND MUL OR SWAP1 SSTORE POP POP POP JUMP JUMPDEST PUSH1 0x60 PUSH1 0xA PUSH1 0x1 ADD DUP1 SLOAD PUSH2 0x715 SWAP1 PUSH2 0x22D1 JUMP JUMPDEST DUP1 PUSH1 0x1F ADD PUSH1 0x20 DUP1 SWAP2 DIV MUL PUSH1 0x20 ADD PUSH1 0x40 MLOAD SWAP1 DUP2 ADD PUSH1 0x40 MSTORE DUP1 SWAP3 SWAP2 SWAP1 DUP2 DUP2 MSTORE PUSH1 0x20 ADD DUP3 DUP1 SLOAD PUSH2 0x741 SWAP1 PUSH2 0x22D1 JUMP JUMPDEST DUP1 ISZERO PUSH2 0x78E JUMPI DUP1 PUSH1 0x1F LT PUSH2 0x763 JUMPI PUSH2 0x100 DUP1 DUP4 SLOAD DIV MUL DUP4 MSTORE SWAP2 PUSH1 0x20 ADD SWAP2 PUSH2 0x78E JUMP JUMPDEST DUP3 ADD SWAP2 SWAP1 PUSH1 0x0 MSTORE PUSH1 0x20 PUSH1 0x0 KECCAK256 SWAP1 JUMPDEST DUP2 SLOAD DUP2 MSTORE SWAP1 PUSH1 0x1 ADD SWAP1 PUSH1 0x20 ADD DUP1 DUP4 GT PUSH2 0x771 JUMPI DUP3 SWAP1 SUB PUSH1 0x1F AND DUP3 ADD SWAP2 JUMPDEST POP POP POP POP POP SWAP1 POP SWAP1 JUMP JUMPDEST PUSH1 0x3 SLOAD TIMESTAMP LT PUSH2 0x7DC JUMPI PUSH1 0x40 MLOAD PUSH32 0x8C379A000000000000000000000000000000000000000000000000000000000 DUP2 MSTORE PUSH1 0x4 ADD PUSH2 0x7D3 SWAP1 PUSH2 0x2008 JUMP JUMPDEST PUSH1 0x40 MLOAD DUP1 SWAP2 SUB SWAP1 REVERT JUMPDEST PUSH1 0x0 PUSH20 0xFFFFFFFFFFFFFFFFFFFFFFFFFFFFFFFFFFFFFFFF AND PUSH1 0x9 PUSH1 0x0 CALLER PUSH20 0xFFFFFFFFFFFFFFFFFFFFFFFFFFFFFFFFFFFFFFFF AND PUSH20 0xFFFFFFFFFFFFFFFFFFFFFFFFFFFFFFFFFFFFFFFF AND DUP2 MSTORE PUSH1 0x20 ADD SWAP1 DUP2 MSTORE PUSH1 0x20 ADD PUSH1 0x0 KECCAK256 PUSH1 0x0 ADD PUSH1 0x2 SWAP1 SLOAD SWAP1 PUSH2 0x100 EXP SWAP1 DIV PUSH20 0xFFFFFFFFFFFFFFFFFFFFFFFFFFFFFFFFFFFFFFFF AND PUSH20 0xFFFFFFFFFFFFFFFFFFFFFFFFFFFFFFFFFFFFFFFF AND EQ ISZERO PUSH2 0x8AE JUMPI PUSH1 0x40 MLOAD PUSH32 0x8C379A000000000000000000000000000000000000000000000000000000000 DUP2 MSTORE PUSH1 0x4 ADD PUSH2 0x8A5 SWAP1 PUSH2 0x1F88 JUMP JUMPDEST PUSH1 0x40 MLOAD DUP1 SWAP2 SUB SWAP1 REVERT JUMPDEST PUSH1 0x9 PUSH1 0x0 CALLER PUSH20 0xFFFFFFFFFFFFFFFFFFFFFFFFFFFFFFFFFFFFFFFF AND PUSH20 0xFFFFFFFFFFFFFFFFFFFFFFFFFFFFFFFFFFFFFFFF AND DUP2 MSTORE PUSH1 0x20 ADD SWAP1 DUP2 MSTORE PUSH1 0x20 ADD PUSH1 0x0 KECCAK256 PUSH1 0x0 ADD PUSH1 0x0 SWAP1 SLOAD SWAP1 PUSH2 0x100 EXP SWAP1 DIV PUSH1 0xFF AND ISZERO PUSH2 0x93E JUMPI PUSH1 0x40 MLOAD PUSH32 0x8C379A000000000000000000000000000000000000000000000000000000000 DUP2 MSTORE PUSH1 0x4 ADD PUSH2 0x935 SWAP1 PUSH2 0x1F48 JUMP JUMPDEST PUSH1 0x40 MLOAD DUP1 SWAP2 SUB SWAP1 REVERT JUMPDEST PUSH1 0x40 MLOAD DUP1 PUSH1 0x40 ADD PUSH1 0x40 MSTORE DUP1 PUSH1 0x9 DUP2 MSTORE PUSH1 0x20 ADD PUSH32 0x6920617070726F76650000000000000000000000000000000000000000000000 DUP2 MSTORE POP DUP1 MLOAD SWAP1 PUSH1 0x20 ADD KECCAK256 DUP2 DUP1 MLOAD SWAP1 PUSH1 0x20 ADD KECCAK256 EQ ISZERO PUSH2 0xBA4 JUMPI PUSH1 0x1 PUSH1 0x9 PUSH1 0x0 CALLER PUSH20 0xFFFFFFFFFFFFFFFFFFFFFFFFFFFFFFFFFFFFFFFF AND PUSH20 0xFFFFFFFFFFFFFFFFFFFFFFFFFFFFFFFFFFFFFFFF AND DUP2 MSTORE PUSH1 0x20 ADD SWAP1 DUP2 MSTORE PUSH1 0x20 ADD PUSH1 0x0 KECCAK256 PUSH1 0x0 ADD PUSH1 0x0 PUSH2 0x100 EXP DUP2 SLOAD DUP2 PUSH1 0xFF MUL NOT AND SWAP1 DUP4 ISZERO ISZERO MUL OR SWAP1 SSTORE POP PUSH1 0x1 PUSH1 0x9 PUSH1 0x0 CALLER PUSH20 0xFFFFFFFFFFFFFFFFFFFFFFFFFFFFFFFFFFFFFFFF AND PUSH20 0xFFFFFFFFFFFFFFFFFFFFFFFFFFFFFFFFFFFFFFFF AND DUP2 MSTORE PUSH1 0x20 ADD SWAP1 DUP2 MSTORE PUSH1 0x20 ADD PUSH1 0x0 KECCAK256 PUSH1 0x0 ADD PUSH1 0x1 PUSH2 0x100 EXP DUP2 SLOAD DUP2 PUSH1 0xFF MUL NOT AND SWAP1 DUP4 ISZERO ISZERO MUL OR SWAP1 SSTORE POP PUSH1 0x1 PUSH1 0x5 PUSH1 0x0 DUP3 DUP3 SLOAD PUSH2 0xA52 SWAP2 SWAP1 PUSH2 0x214F JUMP JUMPDEST SWAP3 POP POP DUP2 SWAP1 SSTORE POP PUSH1 0x1 PUSH1 0xA PUSH1 0x0 ADD PUSH1 0x0 DUP3 DUP3 SLOAD PUSH2 0xA6F SWAP2 SWAP1 PUSH2 0x214F JUMP JUMPDEST SWAP3 POP POP DUP2 SWAP1 SSTORE POP PUSH1 0x8 PUSH1 0x9 PUSH1 0x0 CALLER PUSH20 0xFFFFFFFFFFFFFFFFFFFFFFFFFFFFFFFFFFFFFFFF AND PUSH20 0xFFFFFFFFFFFFFFFFFFFFFFFFFFFFFFFFFFFFFFFF AND DUP2 MSTORE PUSH1 0x20 ADD SWAP1 DUP2 MSTORE PUSH1 0x20 ADD PUSH1 0x0 KECCAK256 SWAP1 DUP1 PUSH1 0x1 DUP2 SLOAD ADD DUP1 DUP3 SSTORE DUP1 SWAP2 POP POP PUSH1 0x1 SWAP1 SUB SWAP1 PUSH1 0x0 MSTORE PUSH1 0x20 PUSH1 0x0 KECCAK256 ADD PUSH1 0x0 SWAP1 SWAP2 SWAP1 SWAP2 SWAP1 SWAP2 POP PUSH1 0x0 DUP3 ADD PUSH1 0x0 SWAP1 SLOAD SWAP1 PUSH2 0x100 EXP SWAP1 DIV PUSH1 0xFF AND DUP2 PUSH1 0x0 ADD PUSH1 0x0 PUSH2 0x100 EXP DUP2 SLOAD DUP2 PUSH1 0xFF MUL NOT AND SWAP1 DUP4 ISZERO ISZERO MUL OR SWAP1 SSTORE POP PUSH1 0x0 DUP3 ADD PUSH1 0x1 SWAP1 SLOAD SWAP1 PUSH2 0x100 EXP SWAP1 DIV PUSH1 0xFF AND DUP2 PUSH1 0x0 ADD PUSH1 0x1 PUSH2 0x100 EXP DUP2 SLOAD DUP2 PUSH1 0xFF MUL NOT AND SWAP1 DUP4 ISZERO ISZERO MUL OR SWAP1 SSTORE POP PUSH1 0x0 DUP3 ADD PUSH1 0x2 SWAP1 SLOAD SWAP1 PUSH2 0x100 EXP SWAP1 DIV PUSH20 0xFFFFFFFFFFFFFFFFFFFFFFFFFFFFFFFFFFFFFFFF AND DUP2 PUSH1 0x0 ADD PUSH1 0x2 PUSH2 0x100 EXP DUP2 SLOAD DUP2 PUSH20 0xFFFFFFFFFFFFFFFFFFFFFFFFFFFFFFFFFFFFFFFF MUL NOT AND SWAP1 DUP4 PUSH20 0xFFFFFFFFFFFFFFFFFFFFFFFFFFFFFFFFFFFFFFFF AND MUL OR SWAP1 SSTORE POP POP POP PUSH2 0xF38 JUMP JUMPDEST PUSH1 0x40 MLOAD DUP1 PUSH1 0x40 ADD PUSH1 0x40 MSTORE DUP1 PUSH1 0xC DUP2 MSTORE PUSH1 0x20 ADD PUSH32 0x6920646973617070726F76650000000000000000000000000000000000000000 DUP2 MSTORE POP DUP1 MLOAD SWAP1 PUSH1 0x20 ADD KECCAK256 DUP2 DUP1 MLOAD SWAP1 PUSH1 0x20 ADD KECCAK256 EQ ISZERO PUSH2 0xD95 JUMPI PUSH1 0x1 PUSH1 0x9 PUSH1 0x0 CALLER PUSH20 0xFFFFFFFFFFFFFFFFFFFFFFFFFFFFFFFFFFFFFFFF AND PUSH20 0xFFFFFFFFFFFFFFFFFFFFFFFFFFFFFFFFFFFFFFFF AND DUP2 MSTORE PUSH1 0x20 ADD SWAP1 DUP2 MSTORE PUSH1 0x20 ADD PUSH1 0x0 KECCAK256 PUSH1 0x0 ADD PUSH1 0x0 PUSH2 0x100 EXP DUP2 SLOAD DUP2 PUSH1 0xFF MUL NOT AND SWAP1 DUP4 ISZERO ISZERO MUL OR SWAP1 SSTORE POP PUSH1 0x1 PUSH1 0xA PUSH1 0x0 ADD PUSH1 0x0 DUP3 DUP3 SLOAD PUSH2 0xC60 SWAP2 SWAP1 PUSH2 0x214F JUMP JUMPDEST SWAP3 POP POP DUP2 SWAP1 SSTORE POP PUSH1 0x8 PUSH1 0x9 PUSH1 0x0 CALLER PUSH20 0xFFFFFFFFFFFFFFFFFFFFFFFFFFFFFFFFFFFFFFFF AND PUSH20 0xFFFFFFFFFFFFFFFFFFFFFFFFFFFFFFFFFFFFFFFF AND DUP2 MSTORE PUSH1 0x20 ADD SWAP1 DUP2 MSTORE PUSH1 0x20 ADD PUSH1 0x0 KECCAK256 SWAP1 DUP1 PUSH1 0x1 DUP2 SLOAD ADD DUP1 DUP3 SSTORE DUP1 SWAP2 POP POP PUSH1 0x1 SWAP1 SUB SWAP1 PUSH1 0x0 MSTORE PUSH1 0x20 PUSH1 0x0 KECCAK256 ADD PUSH1 0x0 SWAP1 SWAP2 SWAP1 SWAP2 SWAP1 SWAP2 POP PUSH1 0x0 DUP3 ADD PUSH1 0x0 SWAP1 SLOAD SWAP1 PUSH2 0x100 EXP SWAP1 DIV PUSH1 0xFF AND DUP2 PUSH1 0x0 ADD PUSH1 0x0 PUSH2 0x100 EXP DUP2 SLOAD DUP2 PUSH1 0xFF MUL NOT AND SWAP1 DUP4 ISZERO ISZERO MUL OR SWAP1 SSTORE POP PUSH1 0x0 DUP3 ADD PUSH1 0x1 SWAP1 SLOAD SWAP1 PUSH2 0x100 EXP SWAP1 DIV PUSH1 0xFF AND DUP2 PUSH1 0x0 ADD PUSH1 0x1 PUSH2 0x100 EXP DUP2 SLOAD DUP2 PUSH1 0xFF MUL NOT AND SWAP1 DUP4 ISZERO ISZERO MUL OR SWAP1 SSTORE POP PUSH1 0x0 DUP3 ADD PUSH1 0x2 SWAP1 SLOAD SWAP1 PUSH2 0x100 EXP SWAP1 DIV PUSH20 0xFFFFFFFFFFFFFFFFFFFFFFFFFFFFFFFFFFFFFFFF AND DUP2 PUSH1 0x0 ADD PUSH1 0x2 PUSH2 0x100 EXP DUP2 SLOAD DUP2 PUSH20 0xFFFFFFFFFFFFFFFFFFFFFFFFFFFFFFFFFFFFFFFF MUL NOT AND SWAP1 DUP4 PUSH20 0xFFFFFFFFFFFFFFFFFFFFFFFFFFFFFFFFFFFFFFFF AND MUL OR SWAP1 SSTORE POP POP POP PUSH2 0xF37 JUMP JUMPDEST PUSH1 0x1 PUSH1 0x9 PUSH1 0x0 CALLER PUSH20 0xFFFFFFFFFFFFFFFFFFFFFFFFFFFFFFFFFFFFFFFF AND PUSH20 0xFFFFFFFFFFFFFFFFFFFFFFFFFFFFFFFFFFFFFFFF AND DUP2 MSTORE PUSH1 0x20 ADD SWAP1 DUP2 MSTORE PUSH1 0x20 ADD PUSH1 0x0 KECCAK256 PUSH1 0x0 ADD PUSH1 0x0 PUSH2 0x100 EXP DUP2 SLOAD DUP2 PUSH1 0xFF MUL NOT AND SWAP1 DUP4 ISZERO ISZERO MUL OR SWAP1 SSTORE POP PUSH1 0x1 PUSH1 0xA PUSH1 0x0 ADD PUSH1 0x0 DUP3 DUP3 SLOAD PUSH2 0xE06 SWAP2 SWAP1 PUSH2 0x214F JUMP JUMPDEST SWAP3 POP POP DUP2 SWAP1 SSTORE POP PUSH1 0x8 PUSH1 0x9 PUSH1 0x0 CALLER PUSH20 0xFFFFFFFFFFFFFFFFFFFFFFFFFFFFFFFFFFFFFFFF AND PUSH20 0xFFFFFFFFFFFFFFFFFFFFFFFFFFFFFFFFFFFFFFFF AND DUP2 MSTORE PUSH1 0x20 ADD SWAP1 DUP2 MSTORE PUSH1 0x20 ADD PUSH1 0x0 KECCAK256 SWAP1 DUP1 PUSH1 0x1 DUP2 SLOAD ADD DUP1 DUP3 SSTORE DUP1 SWAP2 POP POP PUSH1 0x1 SWAP1 SUB SWAP1 PUSH1 0x0 MSTORE PUSH1 0x20 PUSH1 0x0 KECCAK256 ADD PUSH1 0x0 SWAP1 SWAP2 SWAP1 SWAP2 SWAP1 SWAP2 POP PUSH1 0x0 DUP3 ADD PUSH1 0x0 SWAP1 SLOAD SWAP1 PUSH2 0x100 EXP SWAP1 DIV PUSH1 0xFF AND DUP2 PUSH1 0x0 ADD PUSH1 0x0 PUSH2 0x100 EXP DUP2 SLOAD DUP2 PUSH1 0xFF MUL NOT AND SWAP1 DUP4 ISZERO ISZERO MUL OR SWAP1 SSTORE POP PUSH1 0x0 DUP3 ADD PUSH1 0x1 SWAP1 SLOAD SWAP1 PUSH2 0x100 EXP SWAP1 DIV PUSH1 0xFF AND DUP2 PUSH1 0x0 ADD PUSH1 0x1 PUSH2 0x100 EXP DUP2 SLOAD DUP2 PUSH1 0xFF MUL NOT AND SWAP1 DUP4 ISZERO ISZERO MUL OR SWAP1 SSTORE POP PUSH1 0x0 DUP3 ADD PUSH1 0x2 SWAP1 SLOAD SWAP1 PUSH2 0x100 EXP SWAP1 DIV PUSH20 0xFFFFFFFFFFFFFFFFFFFFFFFFFFFFFFFFFFFFFFFF AND DUP2 PUSH1 0x0 ADD PUSH1 0x2 PUSH2 0x100 EXP DUP2 SLOAD DUP2 PUSH20 0xFFFFFFFFFFFFFFFFFFFFFFFFFFFFFFFFFFFFFFFF MUL NOT AND SWAP1 DUP4 PUSH20 0xFFFFFFFFFFFFFFFFFFFFFFFFFFFFFFFFFFFFFFFF AND MUL OR SWAP1 SSTORE POP POP POP JUMPDEST JUMPDEST POP JUMP JUMPDEST PUSH1 0x0 DUP1 PUSH1 0x0 PUSH1 0x9 PUSH1 0x0 DUP6 PUSH20 0xFFFFFFFFFFFFFFFFFFFFFFFFFFFFFFFFFFFFFFFF AND PUSH20 0xFFFFFFFFFFFFFFFFFFFFFFFFFFFFFFFFFFFFFFFF AND DUP2 MSTORE PUSH1 0x20 ADD SWAP1 DUP2 MSTORE PUSH1 0x20 ADD PUSH1 0x0 KECCAK256 PUSH1 0x0 ADD PUSH1 0x1 SWAP1 SLOAD SWAP1 PUSH2 0x100 EXP SWAP1 DIV PUSH1 0xFF AND PUSH1 0x9 PUSH1 0x0 DUP7 PUSH20 0xFFFFFFFFFFFFFFFFFFFFFFFFFFFFFFFFFFFFFFFF AND PUSH20 0xFFFFFFFFFFFFFFFFFFFFFFFFFFFFFFFFFFFFFFFF AND DUP2 MSTORE PUSH1 0x20 ADD SWAP1 DUP2 MSTORE PUSH1 0x20 ADD PUSH1 0x0 KECCAK256 PUSH1 0x0 ADD PUSH1 0x0 SWAP1 SLOAD SWAP1 PUSH2 0x100 EXP SWAP1 DIV PUSH1 0xFF AND PUSH1 0x9 PUSH1 0x0 DUP8 PUSH20 0xFFFFFFFFFFFFFFFFFFFFFFFFFFFFFFFFFFFFFFFF AND PUSH20 0xFFFFFFFFFFFFFFFFFFFFFFFFFFFFFFFFFFFFFFFF AND DUP2 MSTORE PUSH1 0x20 ADD SWAP1 DUP2 MSTORE PUSH1 0x20 ADD PUSH1 0x0 KECCAK256 PUSH1 0x0 ADD PUSH1 0x2 SWAP1 SLOAD SWAP1 PUSH2 0x100 EXP SWAP1 DIV PUSH20 0xFFFFFFFFFFFFFFFFFFFFFFFFFFFFFFFFFFFFFFFF AND SWAP3 POP SWAP3 POP SWAP3 POP SWAP2 SWAP4 SWAP1 SWAP3 POP JUMP JUMPDEST PUSH1 0x1 PUSH1 0x0 SWAP1 SLOAD SWAP1 PUSH2 0x100 EXP SWAP1 DIV PUSH20 0xFFFFFFFFFFFFFFFFFFFFFFFFFFFFFFFFFFFFFFFF AND DUP2 JUMP JUMPDEST PUSH1 0x5 SLOAD DUP2 JUMP JUMPDEST PUSH1 0xA DUP1 PUSH1 0x0 ADD SLOAD SWAP1 DUP1 PUSH1 0x1 ADD DUP1 SLOAD PUSH2 0x1093 SWAP1 PUSH2 0x22D1 JUMP JUMPDEST DUP1 PUSH1 0x1F ADD PUSH1 0x20 DUP1 SWAP2 DIV MUL PUSH1 0x20 ADD PUSH1 0x40 MLOAD SWAP1 DUP2 ADD PUSH1 0x40 MSTORE DUP1 SWAP3 SWAP2 SWAP1 DUP2 DUP2 MSTORE PUSH1 0x20 ADD DUP3 DUP1 SLOAD PUSH2 0x10BF SWAP1 PUSH2 0x22D1 JUMP JUMPDEST DUP1 ISZERO PUSH2 0x110C JUMPI DUP1 PUSH1 0x1F LT PUSH2 0x10E1 JUMPI PUSH2 0x100 DUP1 DUP4 SLOAD DIV MUL DUP4 MSTORE SWAP2 PUSH1 0x20 ADD SWAP2 PUSH2 0x110C JUMP JUMPDEST DUP3 ADD SWAP2 SWAP1 PUSH1 0x0 MSTORE PUSH1 0x20 PUSH1 0x0 KECCAK256 SWAP1 JUMPDEST DUP2 SLOAD DUP2 MSTORE SWAP1 PUSH1 0x1 ADD SWAP1 PUSH1 0x20 ADD DUP1 DUP4 GT PUSH2 0x10EF JUMPI DUP3 SWAP1 SUB PUSH1 0x1F AND DUP3 ADD SWAP2 JUMPDEST POP POP POP POP POP SWAP1 POP DUP3 JUMP JUMPDEST PUSH1 0x0 PUSH2 0x1120 PUSH2 0x1955 JUMP JUMPDEST PUSH1 0x60 PUSH1 0x3 SLOAD TIMESTAMP LT ISZERO PUSH2 0x1167 JUMPI PUSH1 0x40 MLOAD PUSH32 0x8C379A000000000000000000000000000000000000000000000000000000000 DUP2 MSTORE PUSH1 0x4 ADD PUSH2 0x115E SWAP1 PUSH2 0x1FE8 JUMP JUMPDEST PUSH1 0x40 MLOAD DUP1 SWAP2 SUB SWAP1 REVERT JUMPDEST PUSH1 0x7 SLOAD PUSH1 0xA PUSH1 0x8 DUP2 PUSH1 0x40 MLOAD DUP1 PUSH1 0x40 ADD PUSH1 0x40 MSTORE SWAP1 DUP2 PUSH1 0x0 DUP3 ADD SLOAD DUP2 MSTORE PUSH1 0x20 ADD PUSH1 0x1 DUP3 ADD DUP1 SLOAD PUSH2 0x1194 SWAP1 PUSH2 0x22D1 JUMP JUMPDEST DUP1 PUSH1 0x1F ADD PUSH1 0x20 DUP1 SWAP2 DIV MUL PUSH1 0x20 ADD PUSH1 0x40 MLOAD SWAP1 DUP2 ADD PUSH1 0x40 MSTORE DUP1 SWAP3 SWAP2 SWAP1 DUP2 DUP2 MSTORE PUSH1 0x20 ADD DUP3 DUP1 SLOAD PUSH2 0x11C0 SWAP1 PUSH2 0x22D1 JUMP JUMPDEST DUP1 ISZERO PUSH2 0x120D JUMPI DUP1 PUSH1 0x1F LT PUSH2 0x11E2 JUMPI PUSH2 0x100 DUP1 DUP4 SLOAD DIV MUL DUP4 MSTORE SWAP2 PUSH1 0x20 ADD SWAP2 PUSH2 0x120D JUMP JUMPDEST DUP3 ADD SWAP2 SWAP1 PUSH1 0x0 MSTORE PUSH1 0x20 PUSH1 0x0 KECCAK256 SWAP1 JUMPDEST DUP2 SLOAD DUP2 MSTORE SWAP1 PUSH1 0x1 ADD SWAP1 PUSH1 0x20 ADD DUP1 DUP4 GT PUSH2 0x11F0 JUMPI DUP3 SWAP1 SUB PUSH1 0x1F AND DUP3 ADD SWAP2 JUMPDEST POP POP POP POP POP DUP2 MSTORE POP POP SWAP2 POP DUP1 DUP1 SLOAD DUP1 PUSH1 0x20 MUL PUSH1 0x20 ADD PUSH1 0x40 MLOAD SWAP1 DUP2 ADD PUSH1 0x40 MSTORE DUP1 SWAP3 SWAP2 SWAP1 DUP2 DUP2 MSTORE PUSH1 0x20 ADD PUSH1 0x0 SWAP1 JUMPDEST DUP3 DUP3 LT ISZERO PUSH2 0x12F3 JUMPI DUP4 DUP3 SWAP1 PUSH1 0x0 MSTORE PUSH1 0x20 PUSH1 0x0 KECCAK256 ADD PUSH1 0x40 MLOAD DUP1 PUSH1 0x60 ADD PUSH1 0x40 MSTORE SWAP1 DUP2 PUSH1 0x0 DUP3 ADD PUSH1 0x0 SWAP1 SLOAD SWAP1 PUSH2 0x100 EXP SWAP1 DIV PUSH1 0xFF AND ISZERO ISZERO ISZERO ISZERO DUP2 MSTORE PUSH1 0x20 ADD PUSH1 0x0 DUP3 ADD PUSH1 0x1 SWAP1 SLOAD SWAP1 PUSH2 0x100 EXP SWAP1 DIV PUSH1 0xFF AND ISZERO ISZERO ISZERO ISZERO DUP2 MSTORE PUSH1 0x20 ADD PUSH1 0x0 DUP3 ADD PUSH1 0x2 SWAP1 SLOAD SWAP1 PUSH2 0x100 EXP SWAP1 DIV PUSH20 0xFFFFFFFFFFFFFFFFFFFFFFFFFFFFFFFFFFFFFFFF AND PUSH20 0xFFFFFFFFFFFFFFFFFFFFFFFFFFFFFFFFFFFFFFFF AND PUSH20 0xFFFFFFFFFFFFFFFFFFFFFFFFFFFFFFFFFFFFFFFF AND DUP2 MSTORE POP POP DUP2 MSTORE PUSH1 0x20 ADD SWAP1 PUSH1 0x1 ADD SWAP1 PUSH2 0x1239 JUMP JUMPDEST POP POP POP POP SWAP1 POP SWAP3 POP SWAP3 POP SWAP3 POP SWAP1 SWAP2 SWAP3 JUMP JUMPDEST PUSH1 0x3 SLOAD TIMESTAMP LT ISZERO PUSH2 0x1349 JUMPI PUSH1 0x40 MLOAD PUSH32 0x8C379A000000000000000000000000000000000000000000000000000000000 DUP2 MSTORE PUSH1 0x4 ADD PUSH2 0x1340 SWAP1 PUSH2 0x1FE8 JUMP JUMPDEST PUSH1 0x40 MLOAD DUP1 SWAP2 SUB SWAP1 REVERT JUMPDEST PUSH1 0x0 ISZERO ISZERO PUSH1 0x6 PUSH1 0x0 SWAP1 SLOAD SWAP1 PUSH2 0x100 EXP SWAP1 DIV PUSH1 0xFF AND ISZERO ISZERO EQ PUSH2 0x139F JUMPI PUSH1 0x40 MLOAD PUSH32 0x8C379A000000000000000000000000000000000000000000000000000000000 DUP2 MSTORE PUSH1 0x4 ADD PUSH2 0x1396 SWAP1 PUSH2 0x2028 JUMP JUMPDEST PUSH1 0x40 MLOAD DUP1 SWAP2 SUB SWAP1 REVERT JUMPDEST PUSH1 0x1 PUSH1 0x0 SWAP1 SLOAD SWAP1 PUSH2 0x100 EXP SWAP1 DIV PUSH20 0xFFFFFFFFFFFFFFFFFFFFFFFFFFFFFFFFFFFFFFFF AND PUSH20 0xFFFFFFFFFFFFFFFFFFFFFFFFFFFFFFFFFFFFFFFF AND CALLER PUSH20 0xFFFFFFFFFFFFFFFFFFFFFFFFFFFFFFFFFFFFFFFF AND EQ DUP1 PUSH2 0x148A JUMPI POP PUSH1 0x0 PUSH20 0xFFFFFFFFFFFFFFFFFFFFFFFFFFFFFFFFFFFFFFFF AND PUSH1 0x9 PUSH1 0x0 CALLER PUSH20 0xFFFFFFFFFFFFFFFFFFFFFFFFFFFFFFFFFFFFFFFF AND PUSH20 0xFFFFFFFFFFFFFFFFFFFFFFFFFFFFFFFFFFFFFFFF AND DUP2 MSTORE PUSH1 0x20 ADD SWAP1 DUP2 MSTORE PUSH1 0x20 ADD PUSH1 0x0 KECCAK256 PUSH1 0x0 ADD PUSH1 0x2 SWAP1 SLOAD SWAP1 PUSH2 0x100 EXP SWAP1 DIV PUSH20 0xFFFFFFFFFFFFFFFFFFFFFFFFFFFFFFFFFFFFFFFF AND PUSH20 0xFFFFFFFFFFFFFFFFFFFFFFFFFFFFFFFFFFFFFFFF AND EQ ISZERO JUMPDEST PUSH2 0x14C9 JUMPI PUSH1 0x40 MLOAD PUSH32 0x8C379A000000000000000000000000000000000000000000000000000000000 DUP2 MSTORE PUSH1 0x4 ADD PUSH2 0x14C0 SWAP1 PUSH2 0x1F28 JUMP JUMPDEST PUSH1 0x40 MLOAD DUP1 SWAP2 SUB SWAP1 REVERT JUMPDEST PUSH1 0x0 PUSH1 0x64 PUSH1 0x2 DUP1 SLOAD SWAP1 POP PUSH1 0x5 SLOAD PUSH2 0x14E0 SWAP2 SWAP1 PUSH2 0x21A5 JUMP JUMPDEST PUSH2 0x14EA SWAP2 SWAP1 PUSH2 0x21D6 JUMP JUMPDEST SWAP1 POP PUSH1 0x4 SLOAD DUP2 LT PUSH2 0x151D JUMPI PUSH32 0x4163636570746564000000000000000000000000000000000000000000000000 PUSH1 0x7 DUP2 SWAP1 SSTORE POP JUMPDEST PUSH1 0x0 JUMPDEST PUSH1 0x2 DUP1 SLOAD SWAP1 POP DUP2 PUSH1 0xFF AND LT ISZERO PUSH2 0x174B JUMPI PUSH1 0x0 ISZERO ISZERO PUSH1 0x9 PUSH1 0x0 PUSH1 0x2 DUP5 PUSH1 0xFF AND DUP2 SLOAD DUP2 LT PUSH2 0x154F JUMPI PUSH2 0x154E PUSH2 0x23EB JUMP JUMPDEST JUMPDEST SWAP1 PUSH1 0x0 MSTORE PUSH1 0x20 PUSH1 0x0 KECCAK256 ADD PUSH1 0x0 SWAP1 SLOAD SWAP1 PUSH2 0x100 EXP SWAP1 DIV PUSH20 0xFFFFFFFFFFFFFFFFFFFFFFFFFFFFFFFFFFFFFFFF AND PUSH20 0xFFFFFFFFFFFFFFFFFFFFFFFFFFFFFFFFFFFFFFFF AND PUSH20 0xFFFFFFFFFFFFFFFFFFFFFFFFFFFFFFFFFFFFFFFF AND DUP2 MSTORE PUSH1 0x20 ADD SWAP1 DUP2 MSTORE PUSH1 0x20 ADD PUSH1 0x0 KECCAK256 PUSH1 0x0 ADD PUSH1 0x0 SWAP1 SLOAD SWAP1 PUSH2 0x100 EXP SWAP1 DIV PUSH1 0xFF AND ISZERO ISZERO EQ ISZERO PUSH2 0x1738 JUMPI PUSH1 0x8 PUSH1 0x9 PUSH1 0x0 PUSH1 0x2 DUP5 PUSH1 0xFF AND DUP2 SLOAD DUP2 LT PUSH2 0x15EA JUMPI PUSH2 0x15E9 PUSH2 0x23EB JUMP JUMPDEST JUMPDEST SWAP1 PUSH1 0x0 MSTORE PUSH1 0x20 PUSH1 0x0 KECCAK256 ADD PUSH1 0x0 SWAP1 SLOAD SWAP1 PUSH2 0x100 EXP SWAP1 DIV PUSH20 0xFFFFFFFFFFFFFFFFFFFFFFFFFFFFFFFFFFFFFFFF AND PUSH20 0xFFFFFFFFFFFFFFFFFFFFFFFFFFFFFFFFFFFFFFFF AND PUSH20 0xFFFFFFFFFFFFFFFFFFFFFFFFFFFFFFFFFFFFFFFF AND DUP2 MSTORE PUSH1 0x20 ADD SWAP1 DUP2 MSTORE PUSH1 0x20 ADD PUSH1 0x0 KECCAK256 SWAP1 DUP1 PUSH1 0x1 DUP2 SLOAD ADD DUP1 DUP3 SSTORE DUP1 SWAP2 POP POP PUSH1 0x1 SWAP1 SUB SWAP1 PUSH1 0x0 MSTORE PUSH1 0x20 PUSH1 0x0 KECCAK256 ADD PUSH1 0x0 SWAP1 SWAP2 SWAP1 SWAP2 SWAP1 SWAP2 POP PUSH1 0x0 DUP3 ADD PUSH1 0x0 SWAP1 SLOAD SWAP1 PUSH2 0x100 EXP SWAP1 DIV PUSH1 0xFF AND DUP2 PUSH1 0x0 ADD PUSH1 0x0 PUSH2 0x100 EXP DUP2 SLOAD DUP2 PUSH1 0xFF MUL NOT AND SWAP1 DUP4 ISZERO ISZERO MUL OR SWAP1 SSTORE POP PUSH1 0x0 DUP3 ADD PUSH1 0x1 SWAP1 SLOAD SWAP1 PUSH2 0x100 EXP SWAP1 DIV PUSH1 0xFF AND DUP2 PUSH1 0x0 ADD PUSH1 0x1 PUSH2 0x100 EXP DUP2 SLOAD DUP2 PUSH1 0xFF MUL NOT AND SWAP1 DUP4 ISZERO ISZERO MUL OR SWAP1 SSTORE POP PUSH1 0x0 DUP3 ADD PUSH1 0x2 SWAP1 SLOAD SWAP1 PUSH2 0x100 EXP SWAP1 DIV PUSH20 0xFFFFFFFFFFFFFFFFFFFFFFFFFFFFFFFFFFFFFFFF AND DUP2 PUSH1 0x0 ADD PUSH1 0x2 PUSH2 0x100 EXP DUP2 SLOAD DUP2 PUSH20 0xFFFFFFFFFFFFFFFFFFFFFFFFFFFFFFFFFFFFFFFF MUL NOT AND SWAP1 DUP4 PUSH20 0xFFFFFFFFFFFFFFFFFFFFFFFFFFFFFFFFFFFFFFFF AND MUL OR SWAP1 SSTORE POP POP POP JUMPDEST DUP1 DUP1 PUSH2 0x1743 SWAP1 PUSH2 0x2334 JUMP JUMPDEST SWAP2 POP POP PUSH2 0x1520 JUMP JUMPDEST POP PUSH1 0x1 PUSH1 0x6 PUSH1 0x0 PUSH2 0x100 EXP DUP2 SLOAD DUP2 PUSH1 0xFF MUL NOT AND SWAP1 DUP4 ISZERO ISZERO MUL OR SWAP1 SSTORE POP POP JUMP JUMPDEST PUSH1 0x9 PUSH1 0x20 MSTORE DUP1 PUSH1 0x0 MSTORE PUSH1 0x40 PUSH1 0x0 KECCAK256 PUSH1 0x0 SWAP2 POP SWAP1 POP DUP1 PUSH1 0x0 ADD PUSH1 0x0 SWAP1 SLOAD SWAP1 PUSH2 0x100 EXP SWAP1 DIV PUSH1 0xFF AND SWAP1 DUP1 PUSH1 0x0 ADD PUSH1 0x1 SWAP1 SLOAD SWAP1 PUSH2 0x100 EXP SWAP1 DIV PUSH1 0xFF AND SWAP1 DUP1 PUSH1 0x0 ADD PUSH1 0x2 SWAP1 SLOAD SWAP1 PUSH2 0x100 EXP SWAP1 DIV PUSH20 0xFFFFFFFFFFFFFFFFFFFFFFFFFFFFFFFFFFFFFFFF AND SWAP1 POP DUP4 JUMP JUMPDEST PUSH1 0x60 PUSH1 0x0 DUP1 PUSH1 0x0 DUP1 PUSH1 0xA PUSH1 0x1 ADD PUSH1 0x3 SLOAD PUSH1 0x1 PUSH1 0x0 SWAP1 SLOAD SWAP1 PUSH2 0x100 EXP SWAP1 DIV PUSH20 0xFFFFFFFFFFFFFFFFFFFFFFFFFFFFFFFFFFFFFFFF AND PUSH1 0x4 SLOAD PUSH1 0x5 SLOAD DUP5 DUP1 SLOAD PUSH2 0x1813 SWAP1 PUSH2 0x22D1 JUMP JUMPDEST DUP1 PUSH1 0x1F ADD PUSH1 0x20 DUP1 SWAP2 DIV MUL PUSH1 0x20 ADD PUSH1 0x40 MLOAD SWAP1 DUP2 ADD PUSH1 0x40 MSTORE DUP1 SWAP3 SWAP2 SWAP1 DUP2 DUP2 MSTORE PUSH1 0x20 ADD DUP3 DUP1 SLOAD PUSH2 0x183F SWAP1 PUSH2 0x22D1 JUMP JUMPDEST DUP1 ISZERO PUSH2 0x188C JUMPI DUP1 PUSH1 0x1F LT PUSH2 0x1861 JUMPI PUSH2 0x100 DUP1 DUP4 SLOAD DIV MUL DUP4 MSTORE SWAP2 PUSH1 0x20 ADD SWAP2 PUSH2 0x188C JUMP JUMPDEST DUP3 ADD SWAP2 SWAP1 PUSH1 0x0 MSTORE PUSH1 0x20 PUSH1 0x0 KECCAK256 SWAP1 JUMPDEST DUP2 SLOAD DUP2 MSTORE SWAP1 PUSH1 0x1 ADD SWAP1 PUSH1 0x20 ADD DUP1 DUP4 GT PUSH2 0x186F JUMPI DUP3 SWAP1 SUB PUSH1 0x1F AND DUP3 ADD SWAP2 JUMPDEST POP POP POP POP POP SWAP5 POP SWAP5 POP SWAP5 POP SWAP5 POP SWAP5 POP SWAP5 POP SWAP1 SWAP2 SWAP3 SWAP4 SWAP5 JUMP JUMPDEST PUSH1 0x4 SLOAD DUP2 JUMP JUMPDEST PUSH1 0x8 DUP2 DUP2 SLOAD DUP2 LT PUSH2 0x18BA JUMPI PUSH1 0x0 DUP1 REVERT JUMPDEST SWAP1 PUSH1 0x0 MSTORE PUSH1 0x20 PUSH1 0x0 KECCAK256 ADD PUSH1 0x0 SWAP2 POP SWAP1 POP DUP1 PUSH1 0x0 ADD PUSH1 0x0 SWAP1 SLOAD SWAP1 PUSH2 0x100 EXP SWAP1 DIV PUSH1 0xFF AND SWAP1 DUP1 PUSH1 0x0 ADD PUSH1 0x1 SWAP1 SLOAD SWAP1 PUSH2 0x100 EXP SWAP1 DIV PUSH1 0xFF AND SWAP1 DUP1 PUSH1 0x0 ADD PUSH1 0x2 SWAP1 SLOAD SWAP1 PUSH2 0x100 EXP SWAP1 DIV PUSH20 0xFFFFFFFFFFFFFFFFFFFFFFFFFFFFFFFFFFFFFFFF AND SWAP1 POP DUP4 JUMP JUMPDEST PUSH1 0x0 PUSH1 0x6 PUSH1 0x0 SWAP1 SLOAD SWAP1 PUSH2 0x100 EXP SWAP1 DIV PUSH1 0xFF AND SWAP1 POP SWAP1 JUMP JUMPDEST PUSH1 0x0 DUP1 SLOAD SWAP1 PUSH2 0x100 EXP SWAP1 DIV PUSH20 0xFFFFFFFFFFFFFFFFFFFFFFFFFFFFFFFFFFFFFFFF AND DUP2 JUMP JUMPDEST PUSH1 0x40 MLOAD DUP1 PUSH1 0x40 ADD PUSH1 0x40 MSTORE DUP1 PUSH1 0x0 DUP2 MSTORE PUSH1 0x20 ADD PUSH1 0x60 DUP2 MSTORE POP SWAP1 JUMP JUMPDEST PUSH1 0x0 PUSH2 0x1982 PUSH2 0x197D DUP5 PUSH2 0x20B8 JUMP JUMPDEST PUSH2 0x2093 JUMP JUMPDEST SWAP1 POP DUP3 DUP2 MSTORE PUSH1 0x20 DUP2 ADD DUP5 DUP5 DUP5 ADD GT ISZERO PUSH2 0x199E JUMPI PUSH2 0x199D PUSH2 0x244E JUMP JUMPDEST JUMPDEST PUSH2 0x19A9 DUP5 DUP3 DUP6 PUSH2 0x228F JUMP JUMPDEST POP SWAP4 SWAP3 POP POP POP JUMP JUMPDEST PUSH1 0x0 DUP2 CALLDATALOAD SWAP1 POP PUSH2 0x19C0 DUP2 PUSH2 0x26A0 JUMP JUMPDEST SWAP3 SWAP2 POP POP JUMP JUMPDEST PUSH1 0x0 DUP3 PUSH1 0x1F DUP4 ADD SLT PUSH2 0x19DB JUMPI PUSH2 0x19DA PUSH2 0x2449 JUMP JUMPDEST JUMPDEST DUP2 CALLDATALOAD PUSH2 0x19EB DUP5 DUP3 PUSH1 0x20 DUP7 ADD PUSH2 0x196F JUMP JUMPDEST SWAP2 POP POP SWAP3 SWAP2 POP POP JUMP JUMPDEST PUSH1 0x0 DUP2 CALLDATALOAD SWAP1 POP PUSH2 0x1A03 DUP2 PUSH2 0x26B7 JUMP JUMPDEST SWAP3 SWAP2 POP POP JUMP JUMPDEST PUSH1 0x0 PUSH1 0x20 DUP3 DUP5 SUB SLT ISZERO PUSH2 0x1A1F JUMPI PUSH2 0x1A1E PUSH2 0x2458 JUMP JUMPDEST JUMPDEST PUSH1 0x0 PUSH2 0x1A2D DUP5 DUP3 DUP6 ADD PUSH2 0x19B1 JUMP JUMPDEST SWAP2 POP POP SWAP3 SWAP2 POP POP JUMP JUMPDEST PUSH1 0x0 PUSH1 0x20 DUP3 DUP5 SUB SLT ISZERO PUSH2 0x1A4C JUMPI PUSH2 0x1A4B PUSH2 0x2458 JUMP JUMPDEST JUMPDEST PUSH1 0x0 DUP3 ADD CALLDATALOAD PUSH8 0xFFFFFFFFFFFFFFFF DUP2 GT ISZERO PUSH2 0x1A6A JUMPI PUSH2 0x1A69 PUSH2 0x2453 JUMP JUMPDEST JUMPDEST PUSH2 0x1A76 DUP5 DUP3 DUP6 ADD PUSH2 0x19C6 JUMP JUMPDEST SWAP2 POP POP SWAP3 SWAP2 POP POP JUMP JUMPDEST PUSH1 0x0 PUSH1 0x20 DUP3 DUP5 SUB SLT ISZERO PUSH2 0x1A95 JUMPI PUSH2 0x1A94 PUSH2 0x2458 JUMP JUMPDEST JUMPDEST PUSH1 0x0 PUSH2 0x1AA3 DUP5 DUP3 DUP6 ADD PUSH2 0x19F4 JUMP JUMPDEST SWAP2 POP POP SWAP3 SWAP2 POP POP JUMP JUMPDEST PUSH1 0x0 PUSH2 0x1AB8 DUP4 DUP4 PUSH2 0x1D7A JUMP JUMPDEST PUSH1 0x60 DUP4 ADD SWAP1 POP SWAP3 SWAP2 POP POP JUMP JUMPDEST PUSH2 0x1ACD DUP2 PUSH2 0x2230 JUMP JUMPDEST DUP3 MSTORE POP POP JUMP JUMPDEST PUSH2 0x1ADC DUP2 PUSH2 0x2230 JUMP JUMPDEST DUP3 MSTORE POP POP JUMP JUMPDEST PUSH1 0x0 PUSH2 0x1AED DUP3 PUSH2 0x20F9 JUMP JUMPDEST PUSH2 0x1AF7 DUP2 DUP6 PUSH2 0x211C JUMP JUMPDEST SWAP4 POP PUSH2 0x1B02 DUP4 PUSH2 0x20E9 JUMP JUMPDEST DUP1 PUSH1 0x0 JUMPDEST DUP4 DUP2 LT ISZERO PUSH2 0x1B33 JUMPI DUP2 MLOAD PUSH2 0x1B1A DUP9 DUP3 PUSH2 0x1AAC JUMP JUMPDEST SWAP8 POP PUSH2 0x1B25 DUP4 PUSH2 0x210F JUMP JUMPDEST SWAP3 POP POP PUSH1 0x1 DUP2 ADD SWAP1 POP PUSH2 0x1B06 JUMP JUMPDEST POP DUP6 SWAP4 POP POP POP POP SWAP3 SWAP2 POP POP JUMP JUMPDEST PUSH2 0x1B49 DUP2 PUSH2 0x2242 JUMP JUMPDEST DUP3 MSTORE POP POP JUMP JUMPDEST PUSH2 0x1B58 DUP2 PUSH2 0x2242 JUMP JUMPDEST DUP3 MSTORE POP POP JUMP JUMPDEST PUSH2 0x1B67 DUP2 PUSH2 0x224E JUMP JUMPDEST DUP3 MSTORE POP POP JUMP JUMPDEST PUSH1 0x0 PUSH2 0x1B78 DUP3 PUSH2 0x2104 JUMP JUMPDEST PUSH2 0x1B82 DUP2 DUP6 PUSH2 0x212D JUMP JUMPDEST SWAP4 POP PUSH2 0x1B92 DUP2 DUP6 PUSH1 0x20 DUP7 ADD PUSH2 0x229E JUMP JUMPDEST PUSH2 0x1B9B DUP2 PUSH2 0x245D JUMP JUMPDEST DUP5 ADD SWAP2 POP POP SWAP3 SWAP2 POP POP JUMP JUMPDEST PUSH1 0x0 PUSH2 0x1BB1 DUP3 PUSH2 0x2104 JUMP JUMPDEST PUSH2 0x1BBB DUP2 DUP6 PUSH2 0x213E JUMP JUMPDEST SWAP4 POP PUSH2 0x1BCB DUP2 DUP6 PUSH1 0x20 DUP7 ADD PUSH2 0x229E JUMP JUMPDEST PUSH2 0x1BD4 DUP2 PUSH2 0x245D JUMP JUMPDEST DUP5 ADD SWAP2 POP POP SWAP3 SWAP2 POP POP JUMP JUMPDEST PUSH1 0x0 PUSH2 0x1BEC PUSH1 0x1F DUP4 PUSH2 0x213E JUMP JUMPDEST SWAP2 POP PUSH2 0x1BF7 DUP3 PUSH2 0x246E JUMP JUMPDEST PUSH1 0x20 DUP3 ADD SWAP1 POP SWAP2 SWAP1 POP JUMP JUMPDEST PUSH1 0x0 PUSH2 0x1C0F PUSH1 0x26 DUP4 PUSH2 0x213E JUMP JUMPDEST SWAP2 POP PUSH2 0x1C1A DUP3 PUSH2 0x2497 JUMP JUMPDEST PUSH1 0x40 DUP3 ADD SWAP1 POP SWAP2 SWAP1 POP JUMP JUMPDEST PUSH1 0x0 PUSH2 0x1C32 PUSH1 0x1C DUP4 PUSH2 0x213E JUMP JUMPDEST SWAP2 POP PUSH2 0x1C3D DUP3 PUSH2 0x24E6 JUMP JUMPDEST PUSH1 0x20 DUP3 ADD SWAP1 POP SWAP2 SWAP1 POP JUMP JUMPDEST PUSH1 0x0 PUSH2 0x1C55 PUSH1 0x15 DUP4 PUSH2 0x213E JUMP JUMPDEST SWAP2 POP PUSH2 0x1C60 DUP3 PUSH2 0x250F JUMP JUMPDEST PUSH1 0x20 DUP3 ADD SWAP1 POP SWAP2 SWAP1 POP JUMP JUMPDEST PUSH1 0x0 PUSH2 0x1C78 PUSH1 0x1E DUP4 PUSH2 0x213E JUMP JUMPDEST SWAP2 POP PUSH2 0x1C83 DUP3 PUSH2 0x2538 JUMP JUMPDEST PUSH1 0x20 DUP3 ADD SWAP1 POP SWAP2 SWAP1 POP JUMP JUMPDEST PUSH1 0x0 PUSH2 0x1C9B PUSH1 0x24 DUP4 PUSH2 0x213E JUMP JUMPDEST SWAP2 POP PUSH2 0x1CA6 DUP3 PUSH2 0x2561 JUMP JUMPDEST PUSH1 0x40 DUP3 ADD SWAP1 POP SWAP2 SWAP1 POP JUMP JUMPDEST PUSH1 0x0 PUSH2 0x1CBE PUSH1 0x28 DUP4 PUSH2 0x213E JUMP JUMPDEST SWAP2 POP PUSH2 0x1CC9 DUP3 PUSH2 0x25B0 JUMP JUMPDEST PUSH1 0x40 DUP3 ADD SWAP1 POP SWAP2 SWAP1 POP JUMP JUMPDEST PUSH1 0x0 PUSH2 0x1CE1 PUSH1 0x20 DUP4 PUSH2 0x213E JUMP JUMPDEST SWAP2 POP PUSH2 0x1CEC DUP3 PUSH2 0x25FF JUMP JUMPDEST PUSH1 0x20 DUP3 ADD SWAP1 POP SWAP2 SWAP1 POP JUMP JUMPDEST PUSH1 0x0 PUSH2 0x1D04 PUSH1 0x12 DUP4 PUSH2 0x213E JUMP JUMPDEST SWAP2 POP PUSH2 0x1D0F DUP3 PUSH2 0x2628 JUMP JUMPDEST PUSH1 0x20 DUP3 ADD SWAP1 POP SWAP2 SWAP1 POP JUMP JUMPDEST PUSH1 0x0 PUSH2 0x1D27 PUSH1 0x25 DUP4 PUSH2 0x213E JUMP JUMPDEST SWAP2 POP PUSH2 0x1D32 DUP3 PUSH2 0x2651 JUMP JUMPDEST PUSH1 0x40 DUP3 ADD SWAP1 POP SWAP2 SWAP1 POP JUMP JUMPDEST PUSH1 0x0 PUSH1 0x40 DUP4 ADD PUSH1 0x0 DUP4 ADD MLOAD PUSH2 0x1D55 PUSH1 0x0 DUP7 ADD DUP3 PUSH2 0x1DBC JUMP JUMPDEST POP PUSH1 0x20 DUP4 ADD MLOAD DUP5 DUP3 SUB PUSH1 0x20 DUP7 ADD MSTORE PUSH2 0x1D6D DUP3 DUP3 PUSH2 0x1B6D JUMP JUMPDEST SWAP2 POP POP DUP1 SWAP2 POP POP SWAP3 SWAP2 POP POP JUMP JUMPDEST PUSH1 0x60 DUP3 ADD PUSH1 0x0 DUP3 ADD MLOAD PUSH2 0x1D90 PUSH1 0x0 DUP6 ADD DUP3 PUSH2 0x1B40 JUMP JUMPDEST POP PUSH1 0x20 DUP3 ADD MLOAD PUSH2 0x1DA3 PUSH1 0x20 DUP6 ADD DUP3 PUSH2 0x1B40 JUMP JUMPDEST POP PUSH1 0x40 DUP3 ADD MLOAD PUSH2 0x1DB6 PUSH1 0x40 DUP6 ADD DUP3 PUSH2 0x1AC4 JUMP JUMPDEST POP POP POP POP JUMP JUMPDEST PUSH2 0x1DC5 DUP2 PUSH2 0x2278 JUMP JUMPDEST DUP3 MSTORE POP POP JUMP JUMPDEST PUSH2 0x1DD4 DUP2 PUSH2 0x2278 JUMP JUMPDEST DUP3 MSTORE POP POP JUMP JUMPDEST PUSH1 0x0 PUSH1 0x20 DUP3 ADD SWAP1 POP PUSH2 0x1DEF PUSH1 0x0 DUP4 ADD DUP5 PUSH2 0x1AD3 JUMP JUMPDEST SWAP3 SWAP2 POP POP JUMP JUMPDEST PUSH1 0x0 PUSH1 0x20 DUP3 ADD SWAP1 POP PUSH2 0x1E0A PUSH1 0x0 DUP4 ADD DUP5 PUSH2 0x1B4F JUMP JUMPDEST SWAP3 SWAP2 POP POP JUMP JUMPDEST PUSH1 0x0 PUSH1 0x60 DUP3 ADD SWAP1 POP PUSH2 0x1E25 PUSH1 0x0 DUP4 ADD DUP7 PUSH2 0x1B4F JUMP JUMPDEST PUSH2 0x1E32 PUSH1 0x20 DUP4 ADD DUP6 PUSH2 0x1B4F JUMP JUMPDEST PUSH2 0x1E3F PUSH1 0x40 DUP4 ADD DUP5 PUSH2 0x1AD3 JUMP JUMPDEST SWAP5 SWAP4 POP POP POP POP JUMP JUMPDEST PUSH1 0x0 PUSH1 0x60 DUP3 ADD SWAP1 POP PUSH2 0x1E5C PUSH1 0x0 DUP4 ADD DUP7 PUSH2 0x1B5E JUMP JUMPDEST DUP2 DUP2 SUB PUSH1 0x20 DUP4 ADD MSTORE PUSH2 0x1E6E DUP2 DUP6 PUSH2 0x1D3D JUMP JUMPDEST SWAP1 POP DUP2 DUP2 SUB PUSH1 0x40 DUP4 ADD MSTORE PUSH2 0x1E82 DUP2 DUP5 PUSH2 0x1AE2 JUMP JUMPDEST SWAP1 POP SWAP5 SWAP4 POP POP POP POP JUMP JUMPDEST PUSH1 0x0 PUSH1 0x20 DUP3 ADD SWAP1 POP DUP2 DUP2 SUB PUSH1 0x0 DUP4 ADD MSTORE PUSH2 0x1EA6 DUP2 DUP5 PUSH2 0x1BA6 JUMP JUMPDEST SWAP1 POP SWAP3 SWAP2 POP POP JUMP JUMPDEST PUSH1 0x0 PUSH1 0xA0 DUP3 ADD SWAP1 POP DUP2 DUP2 SUB PUSH1 0x0 DUP4 ADD MSTORE PUSH2 0x1EC8 DUP2 DUP9 PUSH2 0x1BA6 JUMP JUMPDEST SWAP1 POP PUSH2 0x1ED7 PUSH1 0x20 DUP4 ADD DUP8 PUSH2 0x1DCB JUMP JUMPDEST PUSH2 0x1EE4 PUSH1 0x40 DUP4 ADD DUP7 PUSH2 0x1AD3 JUMP JUMPDEST PUSH2 0x1EF1 PUSH1 0x60 DUP4 ADD DUP6 PUSH2 0x1DCB JUMP JUMPDEST PUSH2 0x1EFE PUSH1 0x80 DUP4 ADD DUP5 PUSH2 0x1DCB JUMP JUMPDEST SWAP7 SWAP6 POP POP POP POP POP POP JUMP JUMPDEST PUSH1 0x0 PUSH1 0x20 DUP3 ADD SWAP1 POP DUP2 DUP2 SUB PUSH1 0x0 DUP4 ADD MSTORE PUSH2 0x1F21 DUP2 PUSH2 0x1BDF JUMP JUMPDEST SWAP1 POP SWAP2 SWAP1 POP JUMP JUMPDEST PUSH1 0x0 PUSH1 0x20 DUP3 ADD SWAP1 POP DUP2 DUP2 SUB PUSH1 0x0 DUP4 ADD MSTORE PUSH2 0x1F41 DUP2 PUSH2 0x1C02 JUMP JUMPDEST SWAP1 POP SWAP2 SWAP1 POP JUMP JUMPDEST PUSH1 0x0 PUSH1 0x20 DUP3 ADD SWAP1 POP DUP2 DUP2 SUB PUSH1 0x0 DUP4 ADD MSTORE PUSH2 0x1F61 DUP2 PUSH2 0x1C25 JUMP JUMPDEST SWAP1 POP SWAP2 SWAP1 POP JUMP JUMPDEST PUSH1 0x0 PUSH1 0x20 DUP3 ADD SWAP1 POP DUP2 DUP2 SUB PUSH1 0x0 DUP4 ADD MSTORE PUSH2 0x1F81 DUP2 PUSH2 0x1C48 JUMP JUMPDEST SWAP1 POP SWAP2 SWAP1 POP JUMP JUMPDEST PUSH1 0x0 PUSH1 0x20 DUP3 ADD SWAP1 POP DUP2 DUP2 SUB PUSH1 0x0 DUP4 ADD MSTORE PUSH2 0x1FA1 DUP2 PUSH2 0x1C6B JUMP JUMPDEST SWAP1 POP SWAP2 SWAP1 POP JUMP JUMPDEST PUSH1 0x0 PUSH1 0x20 DUP3 ADD SWAP1 POP DUP2 DUP2 SUB PUSH1 0x0 DUP4 ADD MSTORE PUSH2 0x1FC1 DUP2 PUSH2 0x1C8E JUMP JUMPDEST SWAP1 POP SWAP2 SWAP1 POP JUMP JUMPDEST PUSH1 0x0 PUSH1 0x20 DUP3 ADD SWAP1 POP DUP2 DUP2 SUB PUSH1 0x0 DUP4 ADD MSTORE PUSH2 0x1FE1 DUP2 PUSH2 0x1CB1 JUMP JUMPDEST SWAP1 POP SWAP2 SWAP1 POP JUMP JUMPDEST PUSH1 0x0 PUSH1 0x20 DUP3 ADD SWAP1 POP DUP2 DUP2 SUB PUSH1 0x0 DUP4 ADD MSTORE PUSH2 0x2001 DUP2 PUSH2 0x1CD4 JUMP JUMPDEST SWAP1 POP SWAP2 SWAP1 POP JUMP JUMPDEST PUSH1 0x0 PUSH1 0x20 DUP3 ADD SWAP1 POP DUP2 DUP2 SUB PUSH1 0x0 DUP4 ADD MSTORE PUSH2 0x2021 DUP2 PUSH2 0x1CF7 JUMP JUMPDEST SWAP1 POP SWAP2 SWAP1 POP JUMP JUMPDEST PUSH1 0x0 PUSH1 0x20 DUP3 ADD SWAP1 POP DUP2 DUP2 SUB PUSH1 0x0 DUP4 ADD MSTORE PUSH2 0x2041 DUP2 PUSH2 0x1D1A JUMP JUMPDEST SWAP1 POP SWAP2 SWAP1 POP JUMP JUMPDEST PUSH1 0x0 PUSH1 0x20 DUP3 ADD SWAP1 POP PUSH2 0x205D PUSH1 0x0 DUP4 ADD DUP5 PUSH2 0x1DCB JUMP JUMPDEST SWAP3 SWAP2 POP POP JUMP JUMPDEST PUSH1 0x0 PUSH1 0x40 DUP3 ADD SWAP1 POP PUSH2 0x2078 PUSH1 0x0 DUP4 ADD DUP6 PUSH2 0x1DCB JUMP JUMPDEST DUP2 DUP2 SUB PUSH1 0x20 DUP4 ADD MSTORE PUSH2 0x208A DUP2 DUP5 PUSH2 0x1BA6 JUMP JUMPDEST SWAP1 POP SWAP4 SWAP3 POP POP POP JUMP JUMPDEST PUSH1 0x0 PUSH2 0x209D PUSH2 0x20AE JUMP JUMPDEST SWAP1 POP PUSH2 0x20A9 DUP3 DUP3 PUSH2 0x2303 JUMP JUMPDEST SWAP2 SWAP1 POP JUMP JUMPDEST PUSH1 0x0 PUSH1 0x40 MLOAD SWAP1 POP SWAP1 JUMP JUMPDEST PUSH1 0x0 PUSH8 0xFFFFFFFFFFFFFFFF DUP3 GT ISZERO PUSH2 0x20D3 JUMPI PUSH2 0x20D2 PUSH2 0x241A JUMP JUMPDEST JUMPDEST PUSH2 0x20DC DUP3 PUSH2 0x245D JUMP JUMPDEST SWAP1 POP PUSH1 0x20 DUP2 ADD SWAP1 POP SWAP2 SWAP1 POP JUMP JUMPDEST PUSH1 0x0 DUP2 SWAP1 POP PUSH1 0x20 DUP3 ADD SWAP1 POP SWAP2 SWAP1 POP JUMP JUMPDEST PUSH1 0x0 DUP2 MLOAD SWAP1 POP SWAP2 SWAP1 POP JUMP JUMPDEST PUSH1 0x0 DUP2 MLOAD SWAP1 POP SWAP2 SWAP1 POP JUMP JUMPDEST PUSH1 0x0 PUSH1 0x20 DUP3 ADD SWAP1 POP SWAP2 SWAP1 POP JUMP JUMPDEST PUSH1 0x0 DUP3 DUP3 MSTORE PUSH1 0x20 DUP3 ADD SWAP1 POP SWAP3 SWAP2 POP POP JUMP JUMPDEST PUSH1 0x0 DUP3 DUP3 MSTORE PUSH1 0x20 DUP3 ADD SWAP1 POP SWAP3 SWAP2 POP POP JUMP JUMPDEST PUSH1 0x0 DUP3 DUP3 MSTORE PUSH1 0x20 DUP3 ADD SWAP1 POP SWAP3 SWAP2 POP POP JUMP JUMPDEST PUSH1 0x0 PUSH2 0x215A DUP3 PUSH2 0x2278 JUMP JUMPDEST SWAP2 POP PUSH2 0x2165 DUP4 PUSH2 0x2278 JUMP JUMPDEST SWAP3 POP DUP3 PUSH32 0xFFFFFFFFFFFFFFFFFFFFFFFFFFFFFFFFFFFFFFFFFFFFFFFFFFFFFFFFFFFFFFFF SUB DUP3 GT ISZERO PUSH2 0x219A JUMPI PUSH2 0x2199 PUSH2 0x235E JUMP JUMPDEST JUMPDEST DUP3 DUP3 ADD SWAP1 POP SWAP3 SWAP2 POP POP JUMP JUMPDEST PUSH1 0x0 PUSH2 0x21B0 DUP3 PUSH2 0x2278 JUMP JUMPDEST SWAP2 POP PUSH2 0x21BB DUP4 PUSH2 0x2278 JUMP JUMPDEST SWAP3 POP DUP3 PUSH2 0x21CB JUMPI PUSH2 0x21CA PUSH2 0x238D JUMP JUMPDEST JUMPDEST DUP3 DUP3 DIV SWAP1 POP SWAP3 SWAP2 POP POP JUMP JUMPDEST PUSH1 0x0 PUSH2 0x21E1 DUP3 PUSH2 0x2278 JUMP JUMPDEST SWAP2 POP PUSH2 0x21EC DUP4 PUSH2 0x2278 JUMP JUMPDEST SWAP3 POP DUP2 PUSH32 0xFFFFFFFFFFFFFFFFFFFFFFFFFFFFFFFFFFFFFFFFFFFFFFFFFFFFFFFFFFFFFFFF DIV DUP4 GT DUP3 ISZERO ISZERO AND ISZERO PUSH2 0x2225 JUMPI PUSH2 0x2224 PUSH2 0x235E JUMP JUMPDEST JUMPDEST DUP3 DUP3 MUL SWAP1 POP SWAP3 SWAP2 POP POP JUMP JUMPDEST PUSH1 0x0 PUSH2 0x223B DUP3 PUSH2 0x2258 JUMP JUMPDEST SWAP1 POP SWAP2 SWAP1 POP JUMP JUMPDEST PUSH1 0x0 DUP2 ISZERO ISZERO SWAP1 POP SWAP2 SWAP1 POP JUMP JUMPDEST PUSH1 0x0 DUP2 SWAP1 POP SWAP2 SWAP1 POP JUMP JUMPDEST PUSH1 0x0 PUSH20 0xFFFFFFFFFFFFFFFFFFFFFFFFFFFFFFFFFFFFFFFF DUP3 AND SWAP1 POP SWAP2 SWAP1 POP JUMP JUMPDEST PUSH1 0x0 DUP2 SWAP1 POP SWAP2 SWAP1 POP JUMP JUMPDEST PUSH1 0x0 PUSH1 0xFF DUP3 AND SWAP1 POP SWAP2 SWAP1 POP JUMP JUMPDEST DUP3 DUP2 DUP4 CALLDATACOPY PUSH1 0x0 DUP4 DUP4 ADD MSTORE POP POP POP JUMP JUMPDEST PUSH1 0x0 JUMPDEST DUP4 DUP2 LT ISZERO PUSH2 0x22BC JUMPI DUP1 DUP3 ADD MLOAD DUP2 DUP5 ADD MSTORE PUSH1 0x20 DUP2 ADD SWAP1 POP PUSH2 0x22A1 JUMP JUMPDEST DUP4 DUP2 GT ISZERO PUSH2 0x22CB JUMPI PUSH1 0x0 DUP5 DUP5 ADD MSTORE JUMPDEST POP POP POP POP JUMP JUMPDEST PUSH1 0x0 PUSH1 0x2 DUP3 DIV SWAP1 POP PUSH1 0x1 DUP3 AND DUP1 PUSH2 0x22E9 JUMPI PUSH1 0x7F DUP3 AND SWAP2 POP JUMPDEST PUSH1 0x20 DUP3 LT DUP2 EQ ISZERO PUSH2 0x22FD JUMPI PUSH2 0x22FC PUSH2 0x23BC JUMP JUMPDEST JUMPDEST POP SWAP2 SWAP1 POP JUMP JUMPDEST PUSH2 0x230C DUP3 PUSH2 0x245D JUMP JUMPDEST DUP2 ADD DUP2 DUP2 LT PUSH8 0xFFFFFFFFFFFFFFFF DUP3 GT OR ISZERO PUSH2 0x232B JUMPI PUSH2 0x232A PUSH2 0x241A JUMP JUMPDEST JUMPDEST DUP1 PUSH1 0x40 MSTORE POP POP POP JUMP JUMPDEST PUSH1 0x0 PUSH2 0x233F DUP3 PUSH2 0x2282 JUMP JUMPDEST SWAP2 POP PUSH1 0xFF DUP3 EQ ISZERO PUSH2 0x2353 JUMPI PUSH2 0x2352 PUSH2 0x235E JUMP JUMPDEST JUMPDEST PUSH1 0x1 DUP3 ADD SWAP1 POP SWAP2 SWAP1 POP JUMP JUMPDEST PUSH32 0x4E487B7100000000000000000000000000000000000000000000000000000000 PUSH1 0x0 MSTORE PUSH1 0x11 PUSH1 0x4 MSTORE PUSH1 0x24 PUSH1 0x0 REVERT JUMPDEST PUSH32 0x4E487B7100000000000000000000000000000000000000000000000000000000 PUSH1 0x0 MSTORE PUSH1 0x12 PUSH1 0x4 MSTORE PUSH1 0x24 PUSH1 0x0 REVERT JUMPDEST PUSH32 0x4E487B7100000000000000000000000000000000000000000000000000000000 PUSH1 0x0 MSTORE PUSH1 0x22 PUSH1 0x4 MSTORE PUSH1 0x24 PUSH1 0x0 REVERT JUMPDEST PUSH32 0x4E487B7100000000000000000000000000000000000000000000000000000000 PUSH1 0x0 MSTORE PUSH1 0x32 PUSH1 0x4 MSTORE PUSH1 0x24 PUSH1 0x0 REVERT JUMPDEST PUSH32 0x4E487B7100000000000000000000000000000000000000000000000000000000 PUSH1 0x0 MSTORE PUSH1 0x41 PUSH1 0x4 MSTORE PUSH1 0x24 PUSH1 0x0 REVERT JUMPDEST PUSH1 0x0 DUP1 REVERT JUMPDEST PUSH1 0x0 DUP1 REVERT JUMPDEST PUSH1 0x0 DUP1 REVERT JUMPDEST PUSH1 0x0 DUP1 REVERT JUMPDEST PUSH1 0x0 PUSH1 0x1F NOT PUSH1 0x1F DUP4 ADD AND SWAP1 POP SWAP2 SWAP1 POP JUMP JUMPDEST PUSH32 0x526563697069656E7420697320616C7265616479207265676973746572656400 PUSH1 0x0 DUP3 ADD MSTORE POP JUMP JUMPDEST PUSH32 0x596F75206172656E277420617574686F72697A6520746F20636F6D70696C6520 PUSH1 0x0 DUP3 ADD MSTORE PUSH32 0x42756E646C650000000000000000000000000000000000000000000000000000 PUSH1 0x20 DUP3 ADD MSTORE POP JUMP JUMPDEST PUSH32 0x596F7520616C72656164792073656E74206120726573706F6E73652E00000000 PUSH1 0x0 DUP3 ADD MSTORE POP JUMP JUMPDEST PUSH32 0x496E69746961746F722063616E277420766F7465210000000000000000000000 PUSH1 0x0 DUP3 ADD MSTORE POP JUMP JUMPDEST PUSH32 0x596F7520617265206E6F74207265676973746572656420746F20766F74650000 PUSH1 0x0 DUP3 ADD MSTORE POP JUMP JUMPDEST PUSH32 0x50726F706F73616C206861732072656163686564206974732065787069727920 PUSH1 0x0 DUP3 ADD MSTORE PUSH32 0x6461746500000000000000000000000000000000000000000000000000000000 PUSH1 0x20 DUP3 ADD MSTORE POP JUMP JUMPDEST PUSH32 0x4F6E6C7920696E69746961746F722063616E2072656769737465722061207265 PUSH1 0x0 DUP3 ADD MSTORE PUSH32 0x63697069656E742E000000000000000000000000000000000000000000000000 PUSH1 0x20 DUP3 ADD MSTORE POP JUMP JUMPDEST PUSH32 0x5665726469637420686173206E6F74206265656E207265616368656420796574 PUSH1 0x0 DUP3 ADD MSTORE POP JUMP JUMPDEST PUSH32 0x566F74696E672068617320657870697265640000000000000000000000000000 PUSH1 0x0 DUP3 ADD MSTORE POP JUMP JUMPDEST PUSH32 0x436F6E73656E7375732068617320616C7265616479206265656E2063616C6375 PUSH1 0x0 DUP3 ADD MSTORE PUSH32 0x6C61746564000000000000000000000000000000000000000000000000000000 PUSH1 0x20 DUP3 ADD MSTORE POP JUMP JUMPDEST PUSH2 0x26A9 DUP2 PUSH2 0x2230 JUMP JUMPDEST DUP2 EQ PUSH2 0x26B4 JUMPI PUSH1 0x0 DUP1 REVERT JUMPDEST POP JUMP JUMPDEST PUSH2 0x26C0 DUP2 PUSH2 0x2278 JUMP JUMPDEST DUP2 EQ PUSH2 0x26CB JUMPI PUSH1 0x0 DUP1 REVERT JUMPDEST POP JUMP INVALID LOG2 PUSH5 0x6970667358 0x22 SLT KECCAK256 ADDRESS 0xAF OR NUMBER DUP14 0xC9 0xAB STATICCALL SELFDESTRUCT DUP16 0x25 0xE2 0xE5 0x2A 0xCD CALLVALUE 0xC9 0x49 LOG1 DUP8 0xED 0xA9 0xD5 LOG3 SWAP13 0xAF 0xD2 PUSH32 0x71E243D364736F6C634300080700330000000000000000000000000000000000 "
				},
				"gasEstimates": {
					"creation": {
						"codeDepositCost": "1997600",
						"executionCost": "infinite",
						"totalCost": "infinite"
					},
					"external": {
						"BusinessRequirement()": "2451",
						"Consensus()": "infinite",
						"RegisterVoter(address)": "131017",
						"Vote(string)": "infinite",
						"contractAddress()": "2599",
						"getNumCompiled()": "2545",
						"getParameters()": "infinite",
						"getParameters2(address)": "infinite",
						"getValues()": "infinite",
						"initiator()": "2559",
						"keys(uint256)": "4980",
						"numApprovals()": "2496",
						"proposal()": "infinite",
						"retrieve_bundle()": "infinite",
						"voters(uint256)": "infinite",
						"voters_map(address)": "infinite"
					}
				},
				"methodIdentifiers": {
					"BusinessRequirement()": "d77aa749",
					"Consensus()": "95b02dfa",
					"RegisterVoter(address)": "15fe6f1b",
					"Vote(string)": "323082d7",
					"contractAddress()": "f6b4dfb4",
					"getNumCompiled()": "dd944b67",
					"getParameters()": "a5ea11da",
					"getParameters2(address)": "5361a0ea",
					"getValues()": "19eb4a90",
					"initiator()": "5c39fcc1",
					"keys(uint256)": "0cb6aaf1",
					"numApprovals()": "7403c5e5",
					"proposal()": "753ec103",
					"retrieve_bundle()": "82316745",
					"voters(uint256)": "da58c7d9",
					"voters_map(address)": "9aa4bbdd"
				}
			},
			"storageLayout": {
				"storage": [
					{
						"astId": 15,
						"contract": "contracts/BusinessConsensus.sol:BusinessConsensus",
						"label": "contractAddress",
						"offset": 0,
						"slot": "0",
						"type": "t_address"
					},
					{
						"astId": 17,
						"contract": "contracts/BusinessConsensus.sol:BusinessConsensus",
						"label": "initiator",
						"offset": 0,
						"slot": "1",
						"type": "t_address"
					},
					{
						"astId": 20,
						"contract": "contracts/BusinessConsensus.sol:BusinessConsensus",
						"label": "keys",
						"offset": 0,
						"slot": "2",
						"type": "t_array(t_address)dyn_storage"
					},
					{
						"astId": 22,
						"contract": "contracts/BusinessConsensus.sol:BusinessConsensus",
						"label": "expiryDate",
						"offset": 0,
						"slot": "3",
						"type": "t_uint256"
					},
					{
						"astId": 24,
						"contract": "contracts/BusinessConsensus.sol:BusinessConsensus",
						"label": "BusinessRequirement",
						"offset": 0,
						"slot": "4",
						"type": "t_uint256"
					},
					{
						"astId": 26,
						"contract": "contracts/BusinessConsensus.sol:BusinessConsensus",
						"label": "numApprovals",
						"offset": 0,
						"slot": "5",
						"type": "t_uint256"
					},
					{
						"astId": 28,
						"contract": "contracts/BusinessConsensus.sol:BusinessConsensus",
						"label": "isCompiled",
						"offset": 0,
						"slot": "6",
						"type": "t_bool"
					},
					{
						"astId": 30,
						"contract": "contracts/BusinessConsensus.sol:BusinessConsensus",
						"label": "finalVerdict",
						"offset": 0,
						"slot": "7",
						"type": "t_bytes32"
					},
					{
						"astId": 34,
						"contract": "contracts/BusinessConsensus.sol:BusinessConsensus",
						"label": "voters",
						"offset": 0,
						"slot": "8",
						"type": "t_array(t_struct(Voter)8_storage)dyn_storage"
					},
					{
						"astId": 39,
						"contract": "contracts/BusinessConsensus.sol:BusinessConsensus",
						"label": "voters_map",
						"offset": 0,
						"slot": "9",
						"type": "t_mapping(t_address,t_struct(Voter)8_storage)"
					},
					{
						"astId": 42,
						"contract": "contracts/BusinessConsensus.sol:BusinessConsensus",
						"label": "proposal",
						"offset": 0,
						"slot": "10",
						"type": "t_struct(Proposal)13_storage"
					}
				],
				"types": {
					"t_address": {
						"encoding": "inplace",
						"label": "address",
						"numberOfBytes": "20"
					},
					"t_array(t_address)dyn_storage": {
						"base": "t_address",
						"encoding": "dynamic_array",
						"label": "address[]",
						"numberOfBytes": "32"
					},
					"t_array(t_struct(Voter)8_storage)dyn_storage": {
						"base": "t_struct(Voter)8_storage",
						"encoding": "dynamic_array",
						"label": "struct BusinessConsensus.Voter[]",
						"numberOfBytes": "32"
					},
					"t_bool": {
						"encoding": "inplace",
						"label": "bool",
						"numberOfBytes": "1"
					},
					"t_bytes32": {
						"encoding": "inplace",
						"label": "bytes32",
						"numberOfBytes": "32"
					},
					"t_mapping(t_address,t_struct(Voter)8_storage)": {
						"encoding": "mapping",
						"key": "t_address",
						"label": "mapping(address => struct BusinessConsensus.Voter)",
						"numberOfBytes": "32",
						"value": "t_struct(Voter)8_storage"
					},
					"t_string_storage": {
						"encoding": "bytes",
						"label": "string",
						"numberOfBytes": "32"
					},
					"t_struct(Proposal)13_storage": {
						"encoding": "inplace",
						"label": "struct BusinessConsensus.Proposal",
						"members": [
							{
								"astId": 10,
								"contract": "contracts/BusinessConsensus.sol:BusinessConsensus",
								"label": "voteCount",
								"offset": 0,
								"slot": "0",
								"type": "t_uint256"
							},
							{
								"astId": 12,
								"contract": "contracts/BusinessConsensus.sol:BusinessConsensus",
								"label": "messageID",
								"offset": 0,
								"slot": "1",
								"type": "t_string_storage"
							}
						],
						"numberOfBytes": "64"
					},
					"t_struct(Voter)8_storage": {
						"encoding": "inplace",
						"label": "struct BusinessConsensus.Voter",
						"members": [
							{
								"astId": 3,
								"contract": "contracts/BusinessConsensus.sol:BusinessConsensus",
								"label": "voted",
								"offset": 0,
								"slot": "0",
								"type": "t_bool"
							},
							{
								"astId": 5,
								"contract": "contracts/BusinessConsensus.sol:BusinessConsensus",
								"label": "vote",
								"offset": 1,
								"slot": "0",
								"type": "t_bool"
							},
							{
								"astId": 7,
								"contract": "contracts/BusinessConsensus.sol:BusinessConsensus",
								"label": "recipient",
								"offset": 2,
								"slot": "0",
								"type": "t_address"
							}
						],
						"numberOfBytes": "32"
					},
					"t_uint256": {
						"encoding": "inplace",
						"label": "uint256",
						"numberOfBytes": "32"
					}
				}
			},
			"userdoc": {
				"kind": "user",
				"methods": {
					"Consensus()": {
						"notice": "compile all relevant information into a Bundle"
					}
				},
				"version": 1
			}
		}
	}
}