{
	"contracts/BusinessConsensus.sol": {
		"BusinessConsensus": {
			"abi": [
				{
					"inputs": [
						{
							"internalType": "string",
							"name": "_messageID",
							"type": "string"
						},
						{
							"internalType": "uint256",
							"name": "expiry",
							"type": "uint256"
						},
						{
							"internalType": "uint256",
							"name": "requiredPercentage",
							"type": "uint256"
						}
					],
					"stateMutability": "nonpayable",
					"type": "constructor"
				},
				{
					"anonymous": false,
					"inputs": [],
					"name": "votingCompleted",
					"type": "event"
				},
				{
					"inputs": [],
					"name": "AccumulatedPercentage",
					"outputs": [
						{
							"internalType": "uint256",
							"name": "",
							"type": "uint256"
						}
					],
					"stateMutability": "view",
					"type": "function"
				},
				{
					"inputs": [],
					"name": "Bundle",
					"outputs": [
						{
							"internalType": "string",
							"name": "",
							"type": "string"
						},
						{
							"components": [
								{
									"internalType": "uint256",
									"name": "voteCount",
									"type": "uint256"
								},
								{
									"internalType": "string",
									"name": "messageID",
									"type": "string"
								}
							],
							"internalType": "struct BusinessConsensus.Proposal",
							"name": "",
							"type": "tuple"
						},
						{
							"components": [
								{
									"internalType": "bool",
									"name": "voted",
									"type": "bool"
								},
								{
									"internalType": "address",
									"name": "recipient",
									"type": "address"
								},
								{
									"internalType": "bool",
									"name": "vote",
									"type": "bool"
								}
							],
							"internalType": "struct BusinessConsensus.Voter[]",
							"name": "",
							"type": "tuple[]"
						}
					],
					"stateMutability": "view",
					"type": "function"
				},
				{
					"inputs": [],
					"name": "BusinessRequirement",
					"outputs": [
						{
							"internalType": "uint256",
							"name": "",
							"type": "uint256"
						}
					],
					"stateMutability": "view",
					"type": "function"
				},
				{
					"inputs": [],
					"name": "Consensus",
					"outputs": [],
					"stateMutability": "nonpayable",
					"type": "function"
				},
				{
					"inputs": [
						{
							"internalType": "address",
							"name": "voter",
							"type": "address"
						}
					],
					"name": "RegisterVoter",
					"outputs": [],
					"stateMutability": "nonpayable",
					"type": "function"
				},
				{
					"inputs": [
						{
							"internalType": "string",
							"name": "response",
							"type": "string"
						}
					],
					"name": "Vote",
					"outputs": [],
					"stateMutability": "nonpayable",
					"type": "function"
				},
				{
					"inputs": [],
					"name": "contractAddress",
					"outputs": [
						{
							"internalType": "address",
							"name": "",
							"type": "address"
						}
					],
					"stateMutability": "view",
					"type": "function"
				},
				{
					"inputs": [],
					"name": "getParameters",
					"outputs": [
						{
							"internalType": "string",
							"name": "",
							"type": "string"
						},
						{
							"internalType": "uint256",
							"name": "",
							"type": "uint256"
						},
						{
							"internalType": "address",
							"name": "",
							"type": "address"
						},
						{
							"internalType": "uint256",
							"name": "",
							"type": "uint256"
						},
						{
							"internalType": "uint256",
							"name": "",
							"type": "uint256"
						}
					],
					"stateMutability": "view",
					"type": "function"
				},
				{
					"inputs": [
						{
							"internalType": "address",
							"name": "test_address",
							"type": "address"
						}
					],
					"name": "getParameters2",
					"outputs": [
						{
							"internalType": "bool",
							"name": "",
							"type": "bool"
						},
						{
							"internalType": "bool",
							"name": "",
							"type": "bool"
						},
						{
							"internalType": "address",
							"name": "",
							"type": "address"
						}
					],
					"stateMutability": "view",
					"type": "function"
				},
				{
					"inputs": [],
					"name": "getValues",
					"outputs": [
						{
							"internalType": "string",
							"name": "",
							"type": "string"
						}
					],
					"stateMutability": "view",
					"type": "function"
				},
				{
					"inputs": [],
					"name": "initiator",
					"outputs": [
						{
							"internalType": "address",
							"name": "",
							"type": "address"
						}
					],
					"stateMutability": "view",
					"type": "function"
				},
				{
					"inputs": [
						{
							"internalType": "uint256",
							"name": "",
							"type": "uint256"
						}
					],
					"name": "keys",
					"outputs": [
						{
							"internalType": "address",
							"name": "",
							"type": "address"
						}
					],
					"stateMutability": "view",
					"type": "function"
				},
				{
					"inputs": [],
					"name": "numApprovals",
					"outputs": [
						{
							"internalType": "uint256",
							"name": "",
							"type": "uint256"
						}
					],
					"stateMutability": "view",
					"type": "function"
				},
				{
					"inputs": [],
					"name": "proposal",
					"outputs": [
						{
							"internalType": "uint256",
							"name": "voteCount",
							"type": "uint256"
						},
						{
							"internalType": "string",
							"name": "messageID",
							"type": "string"
						}
					],
					"stateMutability": "view",
					"type": "function"
				},
				{
					"inputs": [
						{
							"internalType": "uint256",
							"name": "",
							"type": "uint256"
						}
					],
					"name": "voters",
					"outputs": [
						{
							"internalType": "bool",
							"name": "voted",
							"type": "bool"
						},
						{
							"internalType": "address",
							"name": "recipient",
							"type": "address"
						},
						{
							"internalType": "bool",
							"name": "vote",
							"type": "bool"
						}
					],
					"stateMutability": "view",
					"type": "function"
				},
				{
					"inputs": [
						{
							"internalType": "address",
							"name": "",
							"type": "address"
						}
					],
					"name": "voters_map",
					"outputs": [
						{
							"internalType": "bool",
							"name": "voted",
							"type": "bool"
						},
						{
							"internalType": "address",
							"name": "recipient",
							"type": "address"
						},
						{
							"internalType": "bool",
							"name": "vote",
							"type": "bool"
						}
					],
					"stateMutability": "view",
					"type": "function"
				}
			],
			"devdoc": {
				"kind": "dev",
				"methods": {},
				"version": 1
			},
			"evm": {
				"assembly": "    /* \"contracts/BusinessConsensus.sol\":33:4842  contract BusinessConsensus{... */\n  mstore(0x40, 0x80)\n    /* \"contracts/BusinessConsensus.sol\":1217:1777  constructor(string memory _messageID, uint expiry, uint requiredPercentage) {... */\n  callvalue\n  dup1\n  iszero\n  tag_1\n  jumpi\n  0x00\n  dup1\n  revert\ntag_1:\n  pop\n  mload(0x40)\n  sub(codesize, bytecodeSize)\n  dup1\n  bytecodeSize\n  dup4\n  codecopy\n  dup2\n  dup2\n  add\n  0x40\n  mstore\n  dup2\n  add\n  swap1\n  tag_2\n  swap2\n  swap1\n  tag_3\n  jump\t// in\ntag_2:\n    /* \"contracts/BusinessConsensus.sol\":1316:1326  msg.sender */\n  caller\n    /* \"contracts/BusinessConsensus.sol\":1304:1313  initiator */\n  0x03\n  0x00\n    /* \"contracts/BusinessConsensus.sol\":1304:1326  initiator = msg.sender */\n  0x0100\n  exp\n  dup2\n  sload\n  dup2\n  0xffffffffffffffffffffffffffffffffffffffff\n  mul\n  not\n  and\n  swap1\n  dup4\n  0xffffffffffffffffffffffffffffffffffffffff\n  and\n  mul\n  or\n  swap1\n  sstore\n  pop\n    /* \"contracts/BusinessConsensus.sol\":1368:1374  expiry */\n  dup2\n    /* \"contracts/BusinessConsensus.sol\":1350:1365  block.timestamp */\n  timestamp\n    /* \"contracts/BusinessConsensus.sol\":1350:1374  block.timestamp + expiry */\n  tag_6\n  swap2\n  swap1\n  tag_7\n  jump\t// in\ntag_6:\n    /* \"contracts/BusinessConsensus.sol\":1337:1347  expiryDate */\n  0x01\n    /* \"contracts/BusinessConsensus.sol\":1337:1374  expiryDate = block.timestamp + expiry */\n  dup2\n  swap1\n  sstore\n  pop\n    /* \"contracts/BusinessConsensus.sol\":1407:1425  requiredPercentage */\n  dup1\n    /* \"contracts/BusinessConsensus.sol\":1385:1404  BusinessRequirement */\n  0x04\n    /* \"contracts/BusinessConsensus.sol\":1385:1425  BusinessRequirement = requiredPercentage */\n  dup2\n  swap1\n  sstore\n  pop\n    /* \"contracts/BusinessConsensus.sol\":1460:1461  0 */\n  0x00\n    /* \"contracts/BusinessConsensus.sol\":1436:1457  AccumulatedPercentage */\n  0x05\n    /* \"contracts/BusinessConsensus.sol\":1436:1461  AccumulatedPercentage = 0 */\n  dup2\n  swap1\n  sstore\n  pop\n    /* \"contracts/BusinessConsensus.sol\":1487:1488  0 */\n  0x00\n    /* \"contracts/BusinessConsensus.sol\":1472:1484  numApprovals */\n  0x06\n    /* \"contracts/BusinessConsensus.sol\":1472:1488  numApprovals = 0 */\n  dup2\n  swap1\n  sstore\n  pop\n    /* \"contracts/BusinessConsensus.sol\":1499:1524  finalVerdict = \"Rejected\" */\n  mload(0x40)\n  dup1\n  0x40\n  add\n  0x40\n  mstore\n  dup1\n  0x08\n  dup2\n  mstore\n  0x20\n  add\n  0x52656a6563746564000000000000000000000000000000000000000000000000\n  dup2\n  mstore\n  pop\n    /* \"contracts/BusinessConsensus.sol\":1499:1511  finalVerdict */\n  0x02\n    /* \"contracts/BusinessConsensus.sol\":1499:1524  finalVerdict = \"Rejected\" */\n  swap1\n  dup2\n  tag_8\n  swap2\n  swap1\n  tag_9\n  jump\t// in\ntag_8:\n  pop\n    /* \"contracts/BusinessConsensus.sol\":1561:1565  this */\n  address\n    /* \"contracts/BusinessConsensus.sol\":1535:1550  contractAddress */\n  0x00\n  dup1\n    /* \"contracts/BusinessConsensus.sol\":1535:1566  contractAddress = address(this) */\n  0x0100\n  exp\n  dup2\n  sload\n  dup2\n  0xffffffffffffffffffffffffffffffffffffffff\n  mul\n  not\n  and\n  swap1\n  dup4\n  0xffffffffffffffffffffffffffffffffffffffff\n  and\n  mul\n  or\n  swap1\n  sstore\n  pop\n    /* \"contracts/BusinessConsensus.sol\":1673:1769  Proposal({... */\n  mload(0x40)\n  dup1\n  0x40\n  add\n  0x40\n  mstore\n  dup1\n    /* \"contracts/BusinessConsensus.sol\":1712:1713  0 */\n  0x00\n    /* \"contracts/BusinessConsensus.sol\":1673:1769  Proposal({... */\n  dup2\n  mstore\n  0x20\n  add\n    /* \"contracts/BusinessConsensus.sol\":1743:1753  _messageID */\n  dup5\n    /* \"contracts/BusinessConsensus.sol\":1673:1769  Proposal({... */\n  dup2\n  mstore\n  pop\n    /* \"contracts/BusinessConsensus.sol\":1662:1670  proposal */\n  0x0a\n    /* \"contracts/BusinessConsensus.sol\":1662:1769  proposal = Proposal({... */\n  0x00\n  dup3\n  add\n  mload\n  dup2\n  0x00\n  add\n  sstore\n  0x20\n  dup3\n  add\n  mload\n  dup2\n  0x01\n  add\n  swap1\n  dup2\n  tag_10\n  swap2\n  swap1\n  tag_9\n  jump\t// in\ntag_10:\n  pop\n  swap1\n  pop\n  pop\n    /* \"contracts/BusinessConsensus.sol\":1217:1777  constructor(string memory _messageID, uint expiry, uint requiredPercentage) {... */\n  pop\n  pop\n  pop\n    /* \"contracts/BusinessConsensus.sol\":33:4842  contract BusinessConsensus{... */\n  jump(tag_11)\n    /* \"#utility.yul\":7:82   */\ntag_12:\n    /* \"#utility.yul\":40:46   */\n  0x00\n    /* \"#utility.yul\":73:75   */\n  0x40\n    /* \"#utility.yul\":67:76   */\n  mload\n    /* \"#utility.yul\":57:76   */\n  swap1\n  pop\n    /* \"#utility.yul\":7:82   */\n  swap1\n  jump\t// out\n    /* \"#utility.yul\":88:205   */\ntag_13:\n    /* \"#utility.yul\":197:198   */\n  0x00\n    /* \"#utility.yul\":194:195   */\n  dup1\n    /* \"#utility.yul\":187:199   */\n  revert\n    /* \"#utility.yul\":211:328   */\ntag_14:\n    /* \"#utility.yul\":320:321   */\n  0x00\n    /* \"#utility.yul\":317:318   */\n  dup1\n    /* \"#utility.yul\":310:322   */\n  revert\n    /* \"#utility.yul\":334:451   */\ntag_15:\n    /* \"#utility.yul\":443:444   */\n  0x00\n    /* \"#utility.yul\":440:441   */\n  dup1\n    /* \"#utility.yul\":433:445   */\n  revert\n    /* \"#utility.yul\":457:574   */\ntag_16:\n    /* \"#utility.yul\":566:567   */\n  0x00\n    /* \"#utility.yul\":563:564   */\n  dup1\n    /* \"#utility.yul\":556:568   */\n  revert\n    /* \"#utility.yul\":580:682   */\ntag_17:\n    /* \"#utility.yul\":621:627   */\n  0x00\n    /* \"#utility.yul\":672:674   */\n  0x1f\n    /* \"#utility.yul\":668:675   */\n  not\n    /* \"#utility.yul\":663:665   */\n  0x1f\n    /* \"#utility.yul\":656:661   */\n  dup4\n    /* \"#utility.yul\":652:666   */\n  add\n    /* \"#utility.yul\":648:676   */\n  and\n    /* \"#utility.yul\":638:676   */\n  swap1\n  pop\n    /* \"#utility.yul\":580:682   */\n  swap2\n  swap1\n  pop\n  jump\t// out\n    /* \"#utility.yul\":688:868   */\ntag_18:\n    /* \"#utility.yul\":736:813   */\n  0x4e487b7100000000000000000000000000000000000000000000000000000000\n    /* \"#utility.yul\":733:734   */\n  0x00\n    /* \"#utility.yul\":726:814   */\n  mstore\n    /* \"#utility.yul\":833:837   */\n  0x41\n    /* \"#utility.yul\":830:831   */\n  0x04\n    /* \"#utility.yul\":823:838   */\n  mstore\n    /* \"#utility.yul\":857:861   */\n  0x24\n    /* \"#utility.yul\":854:855   */\n  0x00\n    /* \"#utility.yul\":847:862   */\n  revert\n    /* \"#utility.yul\":874:1155   */\ntag_19:\n    /* \"#utility.yul\":957:984   */\n  tag_56\n    /* \"#utility.yul\":979:983   */\n  dup3\n    /* \"#utility.yul\":957:984   */\n  tag_17\n  jump\t// in\ntag_56:\n    /* \"#utility.yul\":949:955   */\n  dup2\n    /* \"#utility.yul\":945:985   */\n  add\n    /* \"#utility.yul\":1087:1093   */\n  dup2\n    /* \"#utility.yul\":1075:1085   */\n  dup2\n    /* \"#utility.yul\":1072:1094   */\n  lt\n    /* \"#utility.yul\":1051:1069   */\n  0xffffffffffffffff\n    /* \"#utility.yul\":1039:1049   */\n  dup3\n    /* \"#utility.yul\":1036:1070   */\n  gt\n    /* \"#utility.yul\":1033:1095   */\n  or\n    /* \"#utility.yul\":1030:1118   */\n  iszero\n  tag_57\n  jumpi\n    /* \"#utility.yul\":1098:1116   */\n  tag_58\n  tag_18\n  jump\t// in\ntag_58:\n    /* \"#utility.yul\":1030:1118   */\ntag_57:\n    /* \"#utility.yul\":1138:1148   */\n  dup1\n    /* \"#utility.yul\":1134:1136   */\n  0x40\n    /* \"#utility.yul\":1127:1149   */\n  mstore\n    /* \"#utility.yul\":917:1155   */\n  pop\n    /* \"#utility.yul\":874:1155   */\n  pop\n  pop\n  jump\t// out\n    /* \"#utility.yul\":1161:1290   */\ntag_20:\n    /* \"#utility.yul\":1195:1201   */\n  0x00\n    /* \"#utility.yul\":1222:1242   */\n  tag_60\n  tag_12\n  jump\t// in\ntag_60:\n    /* \"#utility.yul\":1212:1242   */\n  swap1\n  pop\n    /* \"#utility.yul\":1251:1284   */\n  tag_61\n    /* \"#utility.yul\":1279:1283   */\n  dup3\n    /* \"#utility.yul\":1271:1277   */\n  dup3\n    /* \"#utility.yul\":1251:1284   */\n  tag_19\n  jump\t// in\ntag_61:\n    /* \"#utility.yul\":1161:1290   */\n  swap2\n  swap1\n  pop\n  jump\t// out\n    /* \"#utility.yul\":1296:1604   */\ntag_21:\n    /* \"#utility.yul\":1358:1362   */\n  0x00\n    /* \"#utility.yul\":1448:1466   */\n  0xffffffffffffffff\n    /* \"#utility.yul\":1440:1446   */\n  dup3\n    /* \"#utility.yul\":1437:1467   */\n  gt\n    /* \"#utility.yul\":1434:1490   */\n  iszero\n  tag_63\n  jumpi\n    /* \"#utility.yul\":1470:1488   */\n  tag_64\n  tag_18\n  jump\t// in\ntag_64:\n    /* \"#utility.yul\":1434:1490   */\ntag_63:\n    /* \"#utility.yul\":1508:1537   */\n  tag_65\n    /* \"#utility.yul\":1530:1536   */\n  dup3\n    /* \"#utility.yul\":1508:1537   */\n  tag_17\n  jump\t// in\ntag_65:\n    /* \"#utility.yul\":1500:1537   */\n  swap1\n  pop\n    /* \"#utility.yul\":1592:1596   */\n  0x20\n    /* \"#utility.yul\":1586:1590   */\n  dup2\n    /* \"#utility.yul\":1582:1597   */\n  add\n    /* \"#utility.yul\":1574:1597   */\n  swap1\n  pop\n    /* \"#utility.yul\":1296:1604   */\n  swap2\n  swap1\n  pop\n  jump\t// out\n    /* \"#utility.yul\":1610:1917   */\ntag_22:\n    /* \"#utility.yul\":1678:1679   */\n  0x00\n    /* \"#utility.yul\":1688:1801   */\ntag_67:\n    /* \"#utility.yul\":1702:1708   */\n  dup4\n    /* \"#utility.yul\":1699:1700   */\n  dup2\n    /* \"#utility.yul\":1696:1709   */\n  lt\n    /* \"#utility.yul\":1688:1801   */\n  iszero\n  tag_69\n  jumpi\n    /* \"#utility.yul\":1787:1788   */\n  dup1\n    /* \"#utility.yul\":1782:1785   */\n  dup3\n    /* \"#utility.yul\":1778:1789   */\n  add\n    /* \"#utility.yul\":1772:1790   */\n  mload\n    /* \"#utility.yul\":1768:1769   */\n  dup2\n    /* \"#utility.yul\":1763:1766   */\n  dup5\n    /* \"#utility.yul\":1759:1770   */\n  add\n    /* \"#utility.yul\":1752:1791   */\n  mstore\n    /* \"#utility.yul\":1724:1726   */\n  0x20\n    /* \"#utility.yul\":1721:1722   */\n  dup2\n    /* \"#utility.yul\":1717:1727   */\n  add\n    /* \"#utility.yul\":1712:1727   */\n  swap1\n  pop\n    /* \"#utility.yul\":1688:1801   */\n  jump(tag_67)\ntag_69:\n    /* \"#utility.yul\":1819:1825   */\n  dup4\n    /* \"#utility.yul\":1816:1817   */\n  dup2\n    /* \"#utility.yul\":1813:1826   */\n  gt\n    /* \"#utility.yul\":1810:1911   */\n  iszero\n  tag_70\n  jumpi\n    /* \"#utility.yul\":1899:1900   */\n  0x00\n    /* \"#utility.yul\":1890:1896   */\n  dup5\n    /* \"#utility.yul\":1885:1888   */\n  dup5\n    /* \"#utility.yul\":1881:1897   */\n  add\n    /* \"#utility.yul\":1874:1901   */\n  mstore\n    /* \"#utility.yul\":1810:1911   */\ntag_70:\n    /* \"#utility.yul\":1659:1917   */\n  pop\n    /* \"#utility.yul\":1610:1917   */\n  pop\n  pop\n  pop\n  jump\t// out\n    /* \"#utility.yul\":1923:2344   */\ntag_23:\n    /* \"#utility.yul\":2012:2017   */\n  0x00\n    /* \"#utility.yul\":2037:2103   */\n  tag_72\n    /* \"#utility.yul\":2053:2102   */\n  tag_73\n    /* \"#utility.yul\":2095:2101   */\n  dup5\n    /* \"#utility.yul\":2053:2102   */\n  tag_21\n  jump\t// in\ntag_73:\n    /* \"#utility.yul\":2037:2103   */\n  tag_20\n  jump\t// in\ntag_72:\n    /* \"#utility.yul\":2028:2103   */\n  swap1\n  pop\n    /* \"#utility.yul\":2126:2132   */\n  dup3\n    /* \"#utility.yul\":2119:2124   */\n  dup2\n    /* \"#utility.yul\":2112:2133   */\n  mstore\n    /* \"#utility.yul\":2164:2168   */\n  0x20\n    /* \"#utility.yul\":2157:2162   */\n  dup2\n    /* \"#utility.yul\":2153:2169   */\n  add\n    /* \"#utility.yul\":2202:2205   */\n  dup5\n    /* \"#utility.yul\":2193:2199   */\n  dup5\n    /* \"#utility.yul\":2188:2191   */\n  dup5\n    /* \"#utility.yul\":2184:2200   */\n  add\n    /* \"#utility.yul\":2181:2206   */\n  gt\n    /* \"#utility.yul\":2178:2290   */\n  iszero\n  tag_74\n  jumpi\n    /* \"#utility.yul\":2209:2288   */\n  tag_75\n  tag_16\n  jump\t// in\ntag_75:\n    /* \"#utility.yul\":2178:2290   */\ntag_74:\n    /* \"#utility.yul\":2299:2338   */\n  tag_76\n    /* \"#utility.yul\":2331:2337   */\n  dup5\n    /* \"#utility.yul\":2326:2329   */\n  dup3\n    /* \"#utility.yul\":2321:2324   */\n  dup6\n    /* \"#utility.yul\":2299:2338   */\n  tag_22\n  jump\t// in\ntag_76:\n    /* \"#utility.yul\":2018:2344   */\n  pop\n    /* \"#utility.yul\":1923:2344   */\n  swap4\n  swap3\n  pop\n  pop\n  pop\n  jump\t// out\n    /* \"#utility.yul\":2364:2719   */\ntag_24:\n    /* \"#utility.yul\":2431:2436   */\n  0x00\n    /* \"#utility.yul\":2480:2483   */\n  dup3\n    /* \"#utility.yul\":2473:2477   */\n  0x1f\n    /* \"#utility.yul\":2465:2471   */\n  dup4\n    /* \"#utility.yul\":2461:2478   */\n  add\n    /* \"#utility.yul\":2457:2484   */\n  slt\n    /* \"#utility.yul\":2447:2569   */\n  tag_78\n  jumpi\n    /* \"#utility.yul\":2488:2567   */\n  tag_79\n  tag_15\n  jump\t// in\ntag_79:\n    /* \"#utility.yul\":2447:2569   */\ntag_78:\n    /* \"#utility.yul\":2598:2604   */\n  dup2\n    /* \"#utility.yul\":2592:2605   */\n  mload\n    /* \"#utility.yul\":2623:2713   */\n  tag_80\n    /* \"#utility.yul\":2709:2712   */\n  dup5\n    /* \"#utility.yul\":2701:2707   */\n  dup3\n    /* \"#utility.yul\":2694:2698   */\n  0x20\n    /* \"#utility.yul\":2686:2692   */\n  dup7\n    /* \"#utility.yul\":2682:2699   */\n  add\n    /* \"#utility.yul\":2623:2713   */\n  tag_23\n  jump\t// in\ntag_80:\n    /* \"#utility.yul\":2614:2713   */\n  swap2\n  pop\n    /* \"#utility.yul\":2437:2719   */\n  pop\n    /* \"#utility.yul\":2364:2719   */\n  swap3\n  swap2\n  pop\n  pop\n  jump\t// out\n    /* \"#utility.yul\":2725:2802   */\ntag_25:\n    /* \"#utility.yul\":2762:2769   */\n  0x00\n    /* \"#utility.yul\":2791:2796   */\n  dup2\n    /* \"#utility.yul\":2780:2796   */\n  swap1\n  pop\n    /* \"#utility.yul\":2725:2802   */\n  swap2\n  swap1\n  pop\n  jump\t// out\n    /* \"#utility.yul\":2808:2930   */\ntag_26:\n    /* \"#utility.yul\":2881:2905   */\n  tag_83\n    /* \"#utility.yul\":2899:2904   */\n  dup2\n    /* \"#utility.yul\":2881:2905   */\n  tag_25\n  jump\t// in\ntag_83:\n    /* \"#utility.yul\":2874:2879   */\n  dup2\n    /* \"#utility.yul\":2871:2906   */\n  eq\n    /* \"#utility.yul\":2861:2924   */\n  tag_84\n  jumpi\n    /* \"#utility.yul\":2920:2921   */\n  0x00\n    /* \"#utility.yul\":2917:2918   */\n  dup1\n    /* \"#utility.yul\":2910:2922   */\n  revert\n    /* \"#utility.yul\":2861:2924   */\ntag_84:\n    /* \"#utility.yul\":2808:2930   */\n  pop\n  jump\t// out\n    /* \"#utility.yul\":2936:3079   */\ntag_27:\n    /* \"#utility.yul\":2993:2998   */\n  0x00\n    /* \"#utility.yul\":3024:3030   */\n  dup2\n    /* \"#utility.yul\":3018:3031   */\n  mload\n    /* \"#utility.yul\":3009:3031   */\n  swap1\n  pop\n    /* \"#utility.yul\":3040:3073   */\n  tag_86\n    /* \"#utility.yul\":3067:3072   */\n  dup2\n    /* \"#utility.yul\":3040:3073   */\n  tag_26\n  jump\t// in\ntag_86:\n    /* \"#utility.yul\":2936:3079   */\n  swap3\n  swap2\n  pop\n  pop\n  jump\t// out\n    /* \"#utility.yul\":3085:3921   */\ntag_3:\n    /* \"#utility.yul\":3183:3189   */\n  0x00\n    /* \"#utility.yul\":3191:3197   */\n  dup1\n    /* \"#utility.yul\":3199:3205   */\n  0x00\n    /* \"#utility.yul\":3248:3250   */\n  0x60\n    /* \"#utility.yul\":3236:3245   */\n  dup5\n    /* \"#utility.yul\":3227:3234   */\n  dup7\n    /* \"#utility.yul\":3223:3246   */\n  sub\n    /* \"#utility.yul\":3219:3251   */\n  slt\n    /* \"#utility.yul\":3216:3335   */\n  iszero\n  tag_88\n  jumpi\n    /* \"#utility.yul\":3254:3333   */\n  tag_89\n  tag_13\n  jump\t// in\ntag_89:\n    /* \"#utility.yul\":3216:3335   */\ntag_88:\n    /* \"#utility.yul\":3395:3396   */\n  0x00\n    /* \"#utility.yul\":3384:3393   */\n  dup5\n    /* \"#utility.yul\":3380:3397   */\n  add\n    /* \"#utility.yul\":3374:3398   */\n  mload\n    /* \"#utility.yul\":3425:3443   */\n  0xffffffffffffffff\n    /* \"#utility.yul\":3417:3423   */\n  dup2\n    /* \"#utility.yul\":3414:3444   */\n  gt\n    /* \"#utility.yul\":3411:3528   */\n  iszero\n  tag_90\n  jumpi\n    /* \"#utility.yul\":3447:3526   */\n  tag_91\n  tag_14\n  jump\t// in\ntag_91:\n    /* \"#utility.yul\":3411:3528   */\ntag_90:\n    /* \"#utility.yul\":3552:3626   */\n  tag_92\n    /* \"#utility.yul\":3618:3625   */\n  dup7\n    /* \"#utility.yul\":3609:3615   */\n  dup3\n    /* \"#utility.yul\":3598:3607   */\n  dup8\n    /* \"#utility.yul\":3594:3616   */\n  add\n    /* \"#utility.yul\":3552:3626   */\n  tag_24\n  jump\t// in\ntag_92:\n    /* \"#utility.yul\":3542:3626   */\n  swap4\n  pop\n    /* \"#utility.yul\":3345:3636   */\n  pop\n    /* \"#utility.yul\":3675:3677   */\n  0x20\n    /* \"#utility.yul\":3701:3765   */\n  tag_93\n    /* \"#utility.yul\":3757:3764   */\n  dup7\n    /* \"#utility.yul\":3748:3754   */\n  dup3\n    /* \"#utility.yul\":3737:3746   */\n  dup8\n    /* \"#utility.yul\":3733:3755   */\n  add\n    /* \"#utility.yul\":3701:3765   */\n  tag_27\n  jump\t// in\ntag_93:\n    /* \"#utility.yul\":3691:3765   */\n  swap3\n  pop\n    /* \"#utility.yul\":3646:3775   */\n  pop\n    /* \"#utility.yul\":3814:3816   */\n  0x40\n    /* \"#utility.yul\":3840:3904   */\n  tag_94\n    /* \"#utility.yul\":3896:3903   */\n  dup7\n    /* \"#utility.yul\":3887:3893   */\n  dup3\n    /* \"#utility.yul\":3876:3885   */\n  dup8\n    /* \"#utility.yul\":3872:3894   */\n  add\n    /* \"#utility.yul\":3840:3904   */\n  tag_27\n  jump\t// in\ntag_94:\n    /* \"#utility.yul\":3830:3904   */\n  swap2\n  pop\n    /* \"#utility.yul\":3785:3914   */\n  pop\n    /* \"#utility.yul\":3085:3921   */\n  swap3\n  pop\n  swap3\n  pop\n  swap3\n  jump\t// out\n    /* \"#utility.yul\":3927:4107   */\ntag_28:\n    /* \"#utility.yul\":3975:4052   */\n  0x4e487b7100000000000000000000000000000000000000000000000000000000\n    /* \"#utility.yul\":3972:3973   */\n  0x00\n    /* \"#utility.yul\":3965:4053   */\n  mstore\n    /* \"#utility.yul\":4072:4076   */\n  0x11\n    /* \"#utility.yul\":4069:4070   */\n  0x04\n    /* \"#utility.yul\":4062:4077   */\n  mstore\n    /* \"#utility.yul\":4096:4100   */\n  0x24\n    /* \"#utility.yul\":4093:4094   */\n  0x00\n    /* \"#utility.yul\":4086:4101   */\n  revert\n    /* \"#utility.yul\":4113:4418   */\ntag_7:\n    /* \"#utility.yul\":4153:4156   */\n  0x00\n    /* \"#utility.yul\":4172:4192   */\n  tag_97\n    /* \"#utility.yul\":4190:4191   */\n  dup3\n    /* \"#utility.yul\":4172:4192   */\n  tag_25\n  jump\t// in\ntag_97:\n    /* \"#utility.yul\":4167:4192   */\n  swap2\n  pop\n    /* \"#utility.yul\":4206:4226   */\n  tag_98\n    /* \"#utility.yul\":4224:4225   */\n  dup4\n    /* \"#utility.yul\":4206:4226   */\n  tag_25\n  jump\t// in\ntag_98:\n    /* \"#utility.yul\":4201:4226   */\n  swap3\n  pop\n    /* \"#utility.yul\":4360:4361   */\n  dup3\n    /* \"#utility.yul\":4292:4358   */\n  0xffffffffffffffffffffffffffffffffffffffffffffffffffffffffffffffff\n    /* \"#utility.yul\":4288:4362   */\n  sub\n    /* \"#utility.yul\":4285:4286   */\n  dup3\n    /* \"#utility.yul\":4282:4363   */\n  gt\n    /* \"#utility.yul\":4279:4386   */\n  iszero\n  tag_99\n  jumpi\n    /* \"#utility.yul\":4366:4384   */\n  tag_100\n  tag_28\n  jump\t// in\ntag_100:\n    /* \"#utility.yul\":4279:4386   */\ntag_99:\n    /* \"#utility.yul\":4410:4411   */\n  dup3\n    /* \"#utility.yul\":4407:4408   */\n  dup3\n    /* \"#utility.yul\":4403:4412   */\n  add\n    /* \"#utility.yul\":4396:4412   */\n  swap1\n  pop\n    /* \"#utility.yul\":4113:4418   */\n  swap3\n  swap2\n  pop\n  pop\n  jump\t// out\n    /* \"#utility.yul\":4424:4523   */\ntag_29:\n    /* \"#utility.yul\":4476:4482   */\n  0x00\n    /* \"#utility.yul\":4510:4515   */\n  dup2\n    /* \"#utility.yul\":4504:4516   */\n  mload\n    /* \"#utility.yul\":4494:4516   */\n  swap1\n  pop\n    /* \"#utility.yul\":4424:4523   */\n  swap2\n  swap1\n  pop\n  jump\t// out\n    /* \"#utility.yul\":4529:4709   */\ntag_30:\n    /* \"#utility.yul\":4577:4654   */\n  0x4e487b7100000000000000000000000000000000000000000000000000000000\n    /* \"#utility.yul\":4574:4575   */\n  0x00\n    /* \"#utility.yul\":4567:4655   */\n  mstore\n    /* \"#utility.yul\":4674:4678   */\n  0x22\n    /* \"#utility.yul\":4671:4672   */\n  0x04\n    /* \"#utility.yul\":4664:4679   */\n  mstore\n    /* \"#utility.yul\":4698:4702   */\n  0x24\n    /* \"#utility.yul\":4695:4696   */\n  0x00\n    /* \"#utility.yul\":4688:4703   */\n  revert\n    /* \"#utility.yul\":4715:5035   */\ntag_31:\n    /* \"#utility.yul\":4759:4765   */\n  0x00\n    /* \"#utility.yul\":4796:4797   */\n  0x02\n    /* \"#utility.yul\":4790:4794   */\n  dup3\n    /* \"#utility.yul\":4786:4798   */\n  div\n    /* \"#utility.yul\":4776:4798   */\n  swap1\n  pop\n    /* \"#utility.yul\":4843:4844   */\n  0x01\n    /* \"#utility.yul\":4837:4841   */\n  dup3\n    /* \"#utility.yul\":4833:4845   */\n  and\n    /* \"#utility.yul\":4864:4882   */\n  dup1\n    /* \"#utility.yul\":4854:4935   */\n  tag_104\n  jumpi\n    /* \"#utility.yul\":4920:4924   */\n  0x7f\n    /* \"#utility.yul\":4912:4918   */\n  dup3\n    /* \"#utility.yul\":4908:4925   */\n  and\n    /* \"#utility.yul\":4898:4925   */\n  swap2\n  pop\n    /* \"#utility.yul\":4854:4935   */\ntag_104:\n    /* \"#utility.yul\":4982:4984   */\n  0x20\n    /* \"#utility.yul\":4974:4980   */\n  dup3\n    /* \"#utility.yul\":4971:4985   */\n  lt\n    /* \"#utility.yul\":4951:4969   */\n  dup2\n    /* \"#utility.yul\":4948:4986   */\n  sub\n    /* \"#utility.yul\":4945:5029   */\n  tag_105\n  jumpi\n    /* \"#utility.yul\":5001:5019   */\n  tag_106\n  tag_30\n  jump\t// in\ntag_106:\n    /* \"#utility.yul\":4945:5029   */\ntag_105:\n    /* \"#utility.yul\":4766:5035   */\n  pop\n    /* \"#utility.yul\":4715:5035   */\n  swap2\n  swap1\n  pop\n  jump\t// out\n    /* \"#utility.yul\":5041:5182   */\ntag_32:\n    /* \"#utility.yul\":5090:5094   */\n  0x00\n    /* \"#utility.yul\":5113:5116   */\n  dup2\n    /* \"#utility.yul\":5105:5116   */\n  swap1\n  pop\n    /* \"#utility.yul\":5136:5139   */\n  dup2\n    /* \"#utility.yul\":5133:5134   */\n  0x00\n    /* \"#utility.yul\":5126:5140   */\n  mstore\n    /* \"#utility.yul\":5170:5174   */\n  0x20\n    /* \"#utility.yul\":5167:5168   */\n  0x00\n    /* \"#utility.yul\":5157:5175   */\n  keccak256\n    /* \"#utility.yul\":5149:5175   */\n  swap1\n  pop\n    /* \"#utility.yul\":5041:5182   */\n  swap2\n  swap1\n  pop\n  jump\t// out\n    /* \"#utility.yul\":5188:5281   */\ntag_33:\n    /* \"#utility.yul\":5225:5231   */\n  0x00\n    /* \"#utility.yul\":5272:5274   */\n  0x20\n    /* \"#utility.yul\":5267:5269   */\n  0x1f\n    /* \"#utility.yul\":5260:5265   */\n  dup4\n    /* \"#utility.yul\":5256:5270   */\n  add\n    /* \"#utility.yul\":5252:5275   */\n  div\n    /* \"#utility.yul\":5242:5275   */\n  swap1\n  pop\n    /* \"#utility.yul\":5188:5281   */\n  swap2\n  swap1\n  pop\n  jump\t// out\n    /* \"#utility.yul\":5287:5394   */\ntag_34:\n    /* \"#utility.yul\":5331:5339   */\n  0x00\n    /* \"#utility.yul\":5381:5386   */\n  dup3\n    /* \"#utility.yul\":5375:5379   */\n  dup3\n    /* \"#utility.yul\":5371:5387   */\n  shl\n    /* \"#utility.yul\":5350:5387   */\n  swap1\n  pop\n    /* \"#utility.yul\":5287:5394   */\n  swap3\n  swap2\n  pop\n  pop\n  jump\t// out\n    /* \"#utility.yul\":5400:5793   */\ntag_35:\n    /* \"#utility.yul\":5469:5475   */\n  0x00\n    /* \"#utility.yul\":5519:5520   */\n  0x08\n    /* \"#utility.yul\":5507:5517   */\n  dup4\n    /* \"#utility.yul\":5503:5521   */\n  mul\n    /* \"#utility.yul\":5542:5639   */\n  tag_111\n    /* \"#utility.yul\":5572:5638   */\n  0xffffffffffffffffffffffffffffffffffffffffffffffffffffffffffffffff\n    /* \"#utility.yul\":5561:5570   */\n  dup3\n    /* \"#utility.yul\":5542:5639   */\n  tag_34\n  jump\t// in\ntag_111:\n    /* \"#utility.yul\":5660:5699   */\n  tag_112\n    /* \"#utility.yul\":5690:5698   */\n  dup7\n    /* \"#utility.yul\":5679:5688   */\n  dup4\n    /* \"#utility.yul\":5660:5699   */\n  tag_34\n  jump\t// in\ntag_112:\n    /* \"#utility.yul\":5648:5699   */\n  swap6\n  pop\n    /* \"#utility.yul\":5732:5736   */\n  dup1\n    /* \"#utility.yul\":5728:5737   */\n  not\n    /* \"#utility.yul\":5721:5726   */\n  dup5\n    /* \"#utility.yul\":5717:5738   */\n  and\n    /* \"#utility.yul\":5708:5738   */\n  swap4\n  pop\n    /* \"#utility.yul\":5781:5785   */\n  dup1\n    /* \"#utility.yul\":5771:5779   */\n  dup7\n    /* \"#utility.yul\":5767:5786   */\n  and\n    /* \"#utility.yul\":5760:5765   */\n  dup5\n    /* \"#utility.yul\":5757:5787   */\n  or\n    /* \"#utility.yul\":5747:5787   */\n  swap3\n  pop\n    /* \"#utility.yul\":5476:5793   */\n  pop\n  pop\n    /* \"#utility.yul\":5400:5793   */\n  swap4\n  swap3\n  pop\n  pop\n  pop\n  jump\t// out\n    /* \"#utility.yul\":5799:5859   */\ntag_36:\n    /* \"#utility.yul\":5827:5830   */\n  0x00\n    /* \"#utility.yul\":5848:5853   */\n  dup2\n    /* \"#utility.yul\":5841:5853   */\n  swap1\n  pop\n    /* \"#utility.yul\":5799:5859   */\n  swap2\n  swap1\n  pop\n  jump\t// out\n    /* \"#utility.yul\":5865:6007   */\ntag_37:\n    /* \"#utility.yul\":5915:5924   */\n  0x00\n    /* \"#utility.yul\":5948:6001   */\n  tag_115\n    /* \"#utility.yul\":5966:6000   */\n  tag_116\n    /* \"#utility.yul\":5975:5999   */\n  tag_117\n    /* \"#utility.yul\":5993:5998   */\n  dup5\n    /* \"#utility.yul\":5975:5999   */\n  tag_25\n  jump\t// in\ntag_117:\n    /* \"#utility.yul\":5966:6000   */\n  tag_36\n  jump\t// in\ntag_116:\n    /* \"#utility.yul\":5948:6001   */\n  tag_25\n  jump\t// in\ntag_115:\n    /* \"#utility.yul\":5935:6001   */\n  swap1\n  pop\n    /* \"#utility.yul\":5865:6007   */\n  swap2\n  swap1\n  pop\n  jump\t// out\n    /* \"#utility.yul\":6013:6088   */\ntag_38:\n    /* \"#utility.yul\":6056:6059   */\n  0x00\n    /* \"#utility.yul\":6077:6082   */\n  dup2\n    /* \"#utility.yul\":6070:6082   */\n  swap1\n  pop\n    /* \"#utility.yul\":6013:6088   */\n  swap2\n  swap1\n  pop\n  jump\t// out\n    /* \"#utility.yul\":6094:6363   */\ntag_39:\n    /* \"#utility.yul\":6204:6243   */\n  tag_120\n    /* \"#utility.yul\":6235:6242   */\n  dup4\n    /* \"#utility.yul\":6204:6243   */\n  tag_37\n  jump\t// in\ntag_120:\n    /* \"#utility.yul\":6265:6356   */\n  tag_121\n    /* \"#utility.yul\":6314:6355   */\n  tag_122\n    /* \"#utility.yul\":6338:6354   */\n  dup3\n    /* \"#utility.yul\":6314:6355   */\n  tag_38\n  jump\t// in\ntag_122:\n    /* \"#utility.yul\":6306:6312   */\n  dup5\n    /* \"#utility.yul\":6299:6303   */\n  dup5\n    /* \"#utility.yul\":6293:6304   */\n  sload\n    /* \"#utility.yul\":6265:6356   */\n  tag_35\n  jump\t// in\ntag_121:\n    /* \"#utility.yul\":6259:6263   */\n  dup3\n    /* \"#utility.yul\":6252:6357   */\n  sstore\n    /* \"#utility.yul\":6170:6363   */\n  pop\n    /* \"#utility.yul\":6094:6363   */\n  pop\n  pop\n  pop\n  jump\t// out\n    /* \"#utility.yul\":6369:6442   */\ntag_40:\n    /* \"#utility.yul\":6414:6417   */\n  0x00\n    /* \"#utility.yul\":6369:6442   */\n  swap1\n  jump\t// out\n    /* \"#utility.yul\":6448:6637   */\ntag_41:\n    /* \"#utility.yul\":6525:6557   */\n  tag_125\n  tag_40\n  jump\t// in\ntag_125:\n    /* \"#utility.yul\":6566:6631   */\n  tag_126\n    /* \"#utility.yul\":6624:6630   */\n  dup2\n    /* \"#utility.yul\":6616:6622   */\n  dup5\n    /* \"#utility.yul\":6610:6614   */\n  dup5\n    /* \"#utility.yul\":6566:6631   */\n  tag_39\n  jump\t// in\ntag_126:\n    /* \"#utility.yul\":6501:6637   */\n  pop\n    /* \"#utility.yul\":6448:6637   */\n  pop\n  pop\n  jump\t// out\n    /* \"#utility.yul\":6643:6829   */\ntag_42:\n    /* \"#utility.yul\":6703:6823   */\ntag_128:\n    /* \"#utility.yul\":6720:6723   */\n  dup2\n    /* \"#utility.yul\":6713:6718   */\n  dup2\n    /* \"#utility.yul\":6710:6724   */\n  lt\n    /* \"#utility.yul\":6703:6823   */\n  iszero\n  tag_130\n  jumpi\n    /* \"#utility.yul\":6774:6813   */\n  tag_131\n    /* \"#utility.yul\":6811:6812   */\n  0x00\n    /* \"#utility.yul\":6804:6809   */\n  dup3\n    /* \"#utility.yul\":6774:6813   */\n  tag_41\n  jump\t// in\ntag_131:\n    /* \"#utility.yul\":6747:6748   */\n  0x01\n    /* \"#utility.yul\":6740:6745   */\n  dup2\n    /* \"#utility.yul\":6736:6749   */\n  add\n    /* \"#utility.yul\":6727:6749   */\n  swap1\n  pop\n    /* \"#utility.yul\":6703:6823   */\n  jump(tag_128)\ntag_130:\n    /* \"#utility.yul\":6643:6829   */\n  pop\n  pop\n  jump\t// out\n    /* \"#utility.yul\":6835:7378   */\ntag_43:\n    /* \"#utility.yul\":6936:6938   */\n  0x1f\n    /* \"#utility.yul\":6931:6934   */\n  dup3\n    /* \"#utility.yul\":6928:6939   */\n  gt\n    /* \"#utility.yul\":6925:7371   */\n  iszero\n  tag_133\n  jumpi\n    /* \"#utility.yul\":6970:7008   */\n  tag_134\n    /* \"#utility.yul\":7002:7007   */\n  dup2\n    /* \"#utility.yul\":6970:7008   */\n  tag_32\n  jump\t// in\ntag_134:\n    /* \"#utility.yul\":7054:7083   */\n  tag_135\n    /* \"#utility.yul\":7072:7082   */\n  dup5\n    /* \"#utility.yul\":7054:7083   */\n  tag_33\n  jump\t// in\ntag_135:\n    /* \"#utility.yul\":7044:7052   */\n  dup2\n    /* \"#utility.yul\":7040:7084   */\n  add\n    /* \"#utility.yul\":7237:7239   */\n  0x20\n    /* \"#utility.yul\":7225:7235   */\n  dup6\n    /* \"#utility.yul\":7222:7240   */\n  lt\n    /* \"#utility.yul\":7219:7268   */\n  iszero\n  tag_136\n  jumpi\n    /* \"#utility.yul\":7258:7266   */\n  dup2\n    /* \"#utility.yul\":7243:7266   */\n  swap1\n  pop\n    /* \"#utility.yul\":7219:7268   */\ntag_136:\n    /* \"#utility.yul\":7281:7361   */\n  tag_137\n    /* \"#utility.yul\":7337:7359   */\n  tag_138\n    /* \"#utility.yul\":7355:7358   */\n  dup6\n    /* \"#utility.yul\":7337:7359   */\n  tag_33\n  jump\t// in\ntag_138:\n    /* \"#utility.yul\":7327:7335   */\n  dup4\n    /* \"#utility.yul\":7323:7360   */\n  add\n    /* \"#utility.yul\":7310:7321   */\n  dup3\n    /* \"#utility.yul\":7281:7361   */\n  tag_42\n  jump\t// in\ntag_137:\n    /* \"#utility.yul\":6940:7371   */\n  pop\n  pop\n    /* \"#utility.yul\":6925:7371   */\ntag_133:\n    /* \"#utility.yul\":6835:7378   */\n  pop\n  pop\n  pop\n  jump\t// out\n    /* \"#utility.yul\":7384:7501   */\ntag_44:\n    /* \"#utility.yul\":7438:7446   */\n  0x00\n    /* \"#utility.yul\":7488:7493   */\n  dup3\n    /* \"#utility.yul\":7482:7486   */\n  dup3\n    /* \"#utility.yul\":7478:7494   */\n  shr\n    /* \"#utility.yul\":7457:7494   */\n  swap1\n  pop\n    /* \"#utility.yul\":7384:7501   */\n  swap3\n  swap2\n  pop\n  pop\n  jump\t// out\n    /* \"#utility.yul\":7507:7676   */\ntag_45:\n    /* \"#utility.yul\":7551:7557   */\n  0x00\n    /* \"#utility.yul\":7584:7635   */\n  tag_141\n    /* \"#utility.yul\":7632:7633   */\n  0x00\n    /* \"#utility.yul\":7628:7634   */\n  not\n    /* \"#utility.yul\":7620:7625   */\n  dup5\n    /* \"#utility.yul\":7617:7618   */\n  0x08\n    /* \"#utility.yul\":7613:7626   */\n  mul\n    /* \"#utility.yul\":7584:7635   */\n  tag_44\n  jump\t// in\ntag_141:\n    /* \"#utility.yul\":7580:7636   */\n  not\n    /* \"#utility.yul\":7665:7669   */\n  dup1\n    /* \"#utility.yul\":7659:7663   */\n  dup4\n    /* \"#utility.yul\":7655:7670   */\n  and\n    /* \"#utility.yul\":7645:7670   */\n  swap2\n  pop\n    /* \"#utility.yul\":7558:7676   */\n  pop\n    /* \"#utility.yul\":7507:7676   */\n  swap3\n  swap2\n  pop\n  pop\n  jump\t// out\n    /* \"#utility.yul\":7681:7976   */\ntag_46:\n    /* \"#utility.yul\":7757:7761   */\n  0x00\n    /* \"#utility.yul\":7903:7932   */\n  tag_143\n    /* \"#utility.yul\":7928:7931   */\n  dup4\n    /* \"#utility.yul\":7922:7926   */\n  dup4\n    /* \"#utility.yul\":7903:7932   */\n  tag_45\n  jump\t// in\ntag_143:\n    /* \"#utility.yul\":7895:7932   */\n  swap2\n  pop\n    /* \"#utility.yul\":7965:7968   */\n  dup3\n    /* \"#utility.yul\":7962:7963   */\n  0x02\n    /* \"#utility.yul\":7958:7969   */\n  mul\n    /* \"#utility.yul\":7952:7956   */\n  dup3\n    /* \"#utility.yul\":7949:7970   */\n  or\n    /* \"#utility.yul\":7941:7970   */\n  swap1\n  pop\n    /* \"#utility.yul\":7681:7976   */\n  swap3\n  swap2\n  pop\n  pop\n  jump\t// out\n    /* \"#utility.yul\":7981:9376   */\ntag_9:\n    /* \"#utility.yul\":8098:8135   */\n  tag_145\n    /* \"#utility.yul\":8131:8134   */\n  dup3\n    /* \"#utility.yul\":8098:8135   */\n  tag_29\n  jump\t// in\ntag_145:\n    /* \"#utility.yul\":8200:8218   */\n  0xffffffffffffffff\n    /* \"#utility.yul\":8192:8198   */\n  dup2\n    /* \"#utility.yul\":8189:8219   */\n  gt\n    /* \"#utility.yul\":8186:8242   */\n  iszero\n  tag_146\n  jumpi\n    /* \"#utility.yul\":8222:8240   */\n  tag_147\n  tag_18\n  jump\t// in\ntag_147:\n    /* \"#utility.yul\":8186:8242   */\ntag_146:\n    /* \"#utility.yul\":8266:8304   */\n  tag_148\n    /* \"#utility.yul\":8298:8302   */\n  dup3\n    /* \"#utility.yul\":8292:8303   */\n  sload\n    /* \"#utility.yul\":8266:8304   */\n  tag_31\n  jump\t// in\ntag_148:\n    /* \"#utility.yul\":8351:8418   */\n  tag_149\n    /* \"#utility.yul\":8411:8417   */\n  dup3\n    /* \"#utility.yul\":8403:8409   */\n  dup3\n    /* \"#utility.yul\":8397:8401   */\n  dup6\n    /* \"#utility.yul\":8351:8418   */\n  tag_43\n  jump\t// in\ntag_149:\n    /* \"#utility.yul\":8445:8446   */\n  0x00\n    /* \"#utility.yul\":8469:8473   */\n  0x20\n    /* \"#utility.yul\":8456:8473   */\n  swap1\n  pop\n    /* \"#utility.yul\":8501:8503   */\n  0x1f\n    /* \"#utility.yul\":8493:8499   */\n  dup4\n    /* \"#utility.yul\":8490:8504   */\n  gt\n    /* \"#utility.yul\":8518:8519   */\n  0x01\n    /* \"#utility.yul\":8513:9131   */\n  dup2\n  eq\n  tag_151\n  jumpi\n    /* \"#utility.yul\":9175:9176   */\n  0x00\n    /* \"#utility.yul\":9192:9198   */\n  dup5\n    /* \"#utility.yul\":9189:9266   */\n  iszero\n  tag_152\n  jumpi\n    /* \"#utility.yul\":9241:9250   */\n  dup3\n    /* \"#utility.yul\":9236:9239   */\n  dup8\n    /* \"#utility.yul\":9232:9251   */\n  add\n    /* \"#utility.yul\":9226:9252   */\n  mload\n    /* \"#utility.yul\":9217:9252   */\n  swap1\n  pop\n    /* \"#utility.yul\":9189:9266   */\ntag_152:\n    /* \"#utility.yul\":9292:9359   */\n  tag_153\n    /* \"#utility.yul\":9352:9358   */\n  dup6\n    /* \"#utility.yul\":9345:9350   */\n  dup3\n    /* \"#utility.yul\":9292:9359   */\n  tag_46\n  jump\t// in\ntag_153:\n    /* \"#utility.yul\":9286:9290   */\n  dup7\n    /* \"#utility.yul\":9279:9360   */\n  sstore\n    /* \"#utility.yul\":9148:9370   */\n  pop\n    /* \"#utility.yul\":8483:9370   */\n  jump(tag_150)\n    /* \"#utility.yul\":8513:9131   */\ntag_151:\n    /* \"#utility.yul\":8565:8569   */\n  0x1f\n    /* \"#utility.yul\":8561:8570   */\n  not\n    /* \"#utility.yul\":8553:8559   */\n  dup5\n    /* \"#utility.yul\":8549:8571   */\n  and\n    /* \"#utility.yul\":8599:8636   */\n  tag_154\n    /* \"#utility.yul\":8631:8635   */\n  dup7\n    /* \"#utility.yul\":8599:8636   */\n  tag_32\n  jump\t// in\ntag_154:\n    /* \"#utility.yul\":8658:8659   */\n  0x00\n    /* \"#utility.yul\":8672:8880   */\ntag_155:\n    /* \"#utility.yul\":8686:8693   */\n  dup3\n    /* \"#utility.yul\":8683:8684   */\n  dup2\n    /* \"#utility.yul\":8680:8694   */\n  lt\n    /* \"#utility.yul\":8672:8880   */\n  iszero\n  tag_157\n  jumpi\n    /* \"#utility.yul\":8765:8774   */\n  dup5\n    /* \"#utility.yul\":8760:8763   */\n  dup10\n    /* \"#utility.yul\":8756:8775   */\n  add\n    /* \"#utility.yul\":8750:8776   */\n  mload\n    /* \"#utility.yul\":8742:8748   */\n  dup3\n    /* \"#utility.yul\":8735:8777   */\n  sstore\n    /* \"#utility.yul\":8816:8817   */\n  0x01\n    /* \"#utility.yul\":8808:8814   */\n  dup3\n    /* \"#utility.yul\":8804:8818   */\n  add\n    /* \"#utility.yul\":8794:8818   */\n  swap2\n  pop\n    /* \"#utility.yul\":8863:8865   */\n  0x20\n    /* \"#utility.yul\":8852:8861   */\n  dup6\n    /* \"#utility.yul\":8848:8866   */\n  add\n    /* \"#utility.yul\":8835:8866   */\n  swap5\n  pop\n    /* \"#utility.yul\":8709:8713   */\n  0x20\n    /* \"#utility.yul\":8706:8707   */\n  dup2\n    /* \"#utility.yul\":8702:8714   */\n  add\n    /* \"#utility.yul\":8697:8714   */\n  swap1\n  pop\n    /* \"#utility.yul\":8672:8880   */\n  jump(tag_155)\ntag_157:\n    /* \"#utility.yul\":8908:8914   */\n  dup7\n    /* \"#utility.yul\":8899:8906   */\n  dup4\n    /* \"#utility.yul\":8896:8915   */\n  lt\n    /* \"#utility.yul\":8893:9072   */\n  iszero\n  tag_158\n  jumpi\n    /* \"#utility.yul\":8966:8975   */\n  dup5\n    /* \"#utility.yul\":8961:8964   */\n  dup10\n    /* \"#utility.yul\":8957:8976   */\n  add\n    /* \"#utility.yul\":8951:8977   */\n  mload\n    /* \"#utility.yul\":9009:9057   */\n  tag_159\n    /* \"#utility.yul\":9051:9055   */\n  0x1f\n    /* \"#utility.yul\":9043:9049   */\n  dup10\n    /* \"#utility.yul\":9039:9056   */\n  and\n    /* \"#utility.yul\":9028:9037   */\n  dup3\n    /* \"#utility.yul\":9009:9057   */\n  tag_45\n  jump\t// in\ntag_159:\n    /* \"#utility.yul\":9001:9007   */\n  dup4\n    /* \"#utility.yul\":8994:9058   */\n  sstore\n    /* \"#utility.yul\":8916:9072   */\n  pop\n    /* \"#utility.yul\":8893:9072   */\ntag_158:\n    /* \"#utility.yul\":9118:9119   */\n  0x01\n    /* \"#utility.yul\":9114:9115   */\n  0x02\n    /* \"#utility.yul\":9106:9112   */\n  dup9\n    /* \"#utility.yul\":9102:9116   */\n  mul\n    /* \"#utility.yul\":9098:9120   */\n  add\n    /* \"#utility.yul\":9092:9096   */\n  dup9\n    /* \"#utility.yul\":9085:9121   */\n  sstore\n    /* \"#utility.yul\":8520:9131   */\n  pop\n  pop\n  pop\n    /* \"#utility.yul\":8483:9370   */\ntag_150:\n  pop\n    /* \"#utility.yul\":8073:9376   */\n  pop\n  pop\n  pop\n    /* \"#utility.yul\":7981:9376   */\n  pop\n  pop\n  jump\t// out\n    /* \"contracts/BusinessConsensus.sol\":33:4842  contract BusinessConsensus{... */\ntag_11:\n  dataSize(sub_0)\n  dup1\n  dataOffset(sub_0)\n  0x00\n  codecopy\n  0x00\n  return\nstop\n\nsub_0: assembly {\n        /* \"contracts/BusinessConsensus.sol\":33:4842  contract BusinessConsensus{... */\n      mstore(0x40, 0x80)\n      callvalue\n      dup1\n      iszero\n      tag_1\n      jumpi\n      0x00\n      dup1\n      revert\n    tag_1:\n      pop\n      jumpi(tag_2, lt(calldatasize, 0x04))\n      shr(0xe0, calldataload(0x00))\n      dup1\n      0x753ec103\n      gt\n      tag_19\n      jumpi\n      dup1\n      0xd77aa749\n      gt\n      tag_20\n      jumpi\n      dup1\n      0xd77aa749\n      eq\n      tag_15\n      jumpi\n      dup1\n      0xda58c7d9\n      eq\n      tag_16\n      jumpi\n      dup1\n      0xf6b4dfb4\n      eq\n      tag_17\n      jumpi\n      dup1\n      0xfe8ff236\n      eq\n      tag_18\n      jumpi\n      jump(tag_2)\n    tag_20:\n      dup1\n      0x753ec103\n      eq\n      tag_11\n      jumpi\n      dup1\n      0x95b02dfa\n      eq\n      tag_12\n      jumpi\n      dup1\n      0x9aa4bbdd\n      eq\n      tag_13\n      jumpi\n      dup1\n      0xa5ea11da\n      eq\n      tag_14\n      jumpi\n      jump(tag_2)\n    tag_19:\n      dup1\n      0x5361a0ea\n      gt\n      tag_21\n      jumpi\n      dup1\n      0x5361a0ea\n      eq\n      tag_7\n      jumpi\n      dup1\n      0x5c39fcc1\n      eq\n      tag_8\n      jumpi\n      dup1\n      0x604c8333\n      eq\n      tag_9\n      jumpi\n      dup1\n      0x7403c5e5\n      eq\n      tag_10\n      jumpi\n      jump(tag_2)\n    tag_21:\n      dup1\n      0x0cb6aaf1\n      eq\n      tag_3\n      jumpi\n      dup1\n      0x15fe6f1b\n      eq\n      tag_4\n      jumpi\n      dup1\n      0x19eb4a90\n      eq\n      tag_5\n      jumpi\n      dup1\n      0x323082d7\n      eq\n      tag_6\n      jumpi\n    tag_2:\n      0x00\n      dup1\n      revert\n        /* \"contracts/BusinessConsensus.sol\":1036:1057  address[] public keys */\n    tag_3:\n      tag_22\n      0x04\n      dup1\n      calldatasize\n      sub\n      dup2\n      add\n      swap1\n      tag_23\n      swap2\n      swap1\n      tag_24\n      jump\t// in\n    tag_23:\n      tag_25\n      jump\t// in\n    tag_22:\n      mload(0x40)\n      tag_26\n      swap2\n      swap1\n      tag_27\n      jump\t// in\n    tag_26:\n      mload(0x40)\n      dup1\n      swap2\n      sub\n      swap1\n      return\n        /* \"contracts/BusinessConsensus.sol\":2401:3053  function RegisterVoter(address voter) external {... */\n    tag_4:\n      tag_28\n      0x04\n      dup1\n      calldatasize\n      sub\n      dup2\n      add\n      swap1\n      tag_29\n      swap2\n      swap1\n      tag_30\n      jump\t// in\n    tag_29:\n      tag_31\n      jump\t// in\n    tag_28:\n      stop\n        /* \"contracts/BusinessConsensus.sol\":1783:1883  function getValues() public view returns (string memory){... */\n    tag_5:\n      tag_32\n      tag_33\n      jump\t// in\n    tag_32:\n      mload(0x40)\n      tag_34\n      swap2\n      swap1\n      tag_35\n      jump\t// in\n    tag_34:\n      mload(0x40)\n      dup1\n      swap2\n      sub\n      swap1\n      return\n        /* \"contracts/BusinessConsensus.sol\":3108:4042  function Vote(string memory response) external {... */\n    tag_6:\n      tag_36\n      0x04\n      dup1\n      calldatasize\n      sub\n      dup2\n      add\n      swap1\n      tag_37\n      swap2\n      swap1\n      tag_38\n      jump\t// in\n    tag_37:\n      tag_39\n      jump\t// in\n    tag_36:\n      stop\n        /* \"contracts/BusinessConsensus.sol\":2083:2295  function getParameters2(address test_address) public view returns (bool, bool, address){... */\n    tag_7:\n      tag_40\n      0x04\n      dup1\n      calldatasize\n      sub\n      dup2\n      add\n      swap1\n      tag_41\n      swap2\n      swap1\n      tag_30\n      jump\t// in\n    tag_41:\n      tag_42\n      jump\t// in\n    tag_40:\n      mload(0x40)\n      tag_43\n      swap4\n      swap3\n      swap2\n      swap1\n      tag_44\n      jump\t// in\n    tag_43:\n      mload(0x40)\n      dup1\n      swap2\n      sub\n      swap1\n      return\n        /* \"contracts/BusinessConsensus.sol\":862:886  address public initiator */\n    tag_8:\n      tag_45\n      tag_46\n      jump\t// in\n    tag_45:\n      mload(0x40)\n      tag_47\n      swap2\n      swap1\n      tag_27\n      jump\t// in\n    tag_47:\n      mload(0x40)\n      dup1\n      swap2\n      sub\n      swap1\n      return\n        /* \"contracts/BusinessConsensus.sol\":935:968  uint public AccumulatedPercentage */\n    tag_9:\n      tag_48\n      tag_49\n      jump\t// in\n    tag_48:\n      mload(0x40)\n      tag_50\n      swap2\n      swap1\n      tag_51\n      jump\t// in\n    tag_50:\n      mload(0x40)\n      dup1\n      swap2\n      sub\n      swap1\n      return\n        /* \"contracts/BusinessConsensus.sol\":975:999  uint public numApprovals */\n    tag_10:\n      tag_52\n      tag_53\n      jump\t// in\n    tag_52:\n      mload(0x40)\n      tag_54\n      swap2\n      swap1\n      tag_51\n      jump\t// in\n    tag_54:\n      mload(0x40)\n      dup1\n      swap2\n      sub\n      swap1\n      return\n        /* \"contracts/BusinessConsensus.sol\":1184:1208  Proposal public proposal */\n    tag_11:\n      tag_55\n      tag_56\n      jump\t// in\n    tag_55:\n      mload(0x40)\n      tag_57\n      swap3\n      swap2\n      swap1\n      tag_58\n      jump\t// in\n    tag_57:\n      mload(0x40)\n      dup1\n      swap2\n      sub\n      swap1\n      return\n        /* \"contracts/BusinessConsensus.sol\":4106:4590  function Consensus() external {... */\n    tag_12:\n      tag_59\n      tag_60\n      jump\t// in\n    tag_59:\n      stop\n        /* \"contracts/BusinessConsensus.sol\":1064:1107  mapping(address => Voter) public voters_map */\n    tag_13:\n      tag_61\n      0x04\n      dup1\n      calldatasize\n      sub\n      dup2\n      add\n      swap1\n      tag_62\n      swap2\n      swap1\n      tag_30\n      jump\t// in\n    tag_62:\n      tag_63\n      jump\t// in\n    tag_61:\n      mload(0x40)\n      tag_64\n      swap4\n      swap3\n      swap2\n      swap1\n      tag_65\n      jump\t// in\n    tag_64:\n      mload(0x40)\n      dup1\n      swap2\n      sub\n      swap1\n      return\n        /* \"contracts/BusinessConsensus.sol\":1889:2077  function getParameters() public view returns (string memory, uint , address ,uint ,uint){... */\n    tag_14:\n      tag_66\n      tag_67\n      jump\t// in\n    tag_66:\n      mload(0x40)\n      tag_68\n      swap6\n      swap5\n      swap4\n      swap3\n      swap2\n      swap1\n      tag_69\n      jump\t// in\n    tag_68:\n      mload(0x40)\n      dup1\n      swap2\n      sub\n      swap1\n      return\n        /* \"contracts/BusinessConsensus.sol\":897:928  uint public BusinessRequirement */\n    tag_15:\n      tag_70\n      tag_71\n      jump\t// in\n    tag_70:\n      mload(0x40)\n      tag_72\n      swap2\n      swap1\n      tag_51\n      jump\t// in\n    tag_72:\n      mload(0x40)\n      dup1\n      swap2\n      sub\n      swap1\n      return\n        /* \"contracts/BusinessConsensus.sol\":1008:1029  Voter[] public voters */\n    tag_16:\n      tag_73\n      0x04\n      dup1\n      calldatasize\n      sub\n      dup2\n      add\n      swap1\n      tag_74\n      swap2\n      swap1\n      tag_24\n      jump\t// in\n    tag_74:\n      tag_75\n      jump\t// in\n    tag_73:\n      mload(0x40)\n      tag_76\n      swap4\n      swap3\n      swap2\n      swap1\n      tag_65\n      jump\t// in\n    tag_76:\n      mload(0x40)\n      dup1\n      swap2\n      sub\n      swap1\n      return\n        /* \"contracts/BusinessConsensus.sol\":596:626  address public contractAddress */\n    tag_17:\n      tag_77\n      tag_78\n      jump\t// in\n    tag_77:\n      mload(0x40)\n      tag_79\n      swap2\n      swap1\n      tag_27\n      jump\t// in\n    tag_79:\n      mload(0x40)\n      dup1\n      swap2\n      sub\n      swap1\n      return\n        /* \"contracts/BusinessConsensus.sol\":4598:4837  function Bundle() public view returns (string memory, Proposal memory, Voter[] memory){... */\n    tag_18:\n      tag_80\n      tag_81\n      jump\t// in\n    tag_80:\n      mload(0x40)\n      tag_82\n      swap4\n      swap3\n      swap2\n      swap1\n      tag_83\n      jump\t// in\n    tag_82:\n      mload(0x40)\n      dup1\n      swap2\n      sub\n      swap1\n      return\n        /* \"contracts/BusinessConsensus.sol\":1036:1057  address[] public keys */\n    tag_25:\n      0x08\n      dup2\n      dup2\n      sload\n      dup2\n      lt\n      tag_84\n      jumpi\n      0x00\n      dup1\n      revert\n    tag_84:\n      swap1\n      0x00\n      mstore\n      keccak256(0x00, 0x20)\n      add\n      0x00\n      swap2\n      pop\n      sload\n      swap1\n      0x0100\n      exp\n      swap1\n      div\n      0xffffffffffffffffffffffffffffffffffffffff\n      and\n      dup2\n      jump\t// out\n        /* \"contracts/BusinessConsensus.sol\":2401:3053  function RegisterVoter(address voter) external {... */\n    tag_31:\n        /* \"contracts/BusinessConsensus.sol\":2569:2578  initiator */\n      0x03\n      0x00\n      swap1\n      sload\n      swap1\n      0x0100\n      exp\n      swap1\n      div\n      0xffffffffffffffffffffffffffffffffffffffff\n      and\n        /* \"contracts/BusinessConsensus.sol\":2555:2578  msg.sender == initiator */\n      0xffffffffffffffffffffffffffffffffffffffff\n      and\n        /* \"contracts/BusinessConsensus.sol\":2555:2565  msg.sender */\n      caller\n        /* \"contracts/BusinessConsensus.sol\":2555:2578  msg.sender == initiator */\n      0xffffffffffffffffffffffffffffffffffffffff\n      and\n      eq\n        /* \"contracts/BusinessConsensus.sol\":2533:2646  require(... */\n      tag_87\n      jumpi\n      mload(0x40)\n      0x08c379a000000000000000000000000000000000000000000000000000000000\n      dup2\n      mstore\n      0x04\n      add\n      tag_88\n      swap1\n      tag_89\n      jump\t// in\n    tag_88:\n      mload(0x40)\n      dup1\n      swap2\n      sub\n      swap1\n      revert\n    tag_87:\n        /* \"contracts/BusinessConsensus.sol\":2674:2683  initiator */\n      0x03\n      0x00\n      swap1\n      sload\n      swap1\n      0x0100\n      exp\n      swap1\n      div\n      0xffffffffffffffffffffffffffffffffffffffff\n      and\n        /* \"contracts/BusinessConsensus.sol\":2665:2683  voter != initiator */\n      0xffffffffffffffffffffffffffffffffffffffff\n      and\n        /* \"contracts/BusinessConsensus.sol\":2665:2670  voter */\n      dup2\n        /* \"contracts/BusinessConsensus.sol\":2665:2683  voter != initiator */\n      0xffffffffffffffffffffffffffffffffffffffff\n      and\n      sub\n        /* \"contracts/BusinessConsensus.sol\":2657:2709  require(voter != initiator, \"Initiator can't vote!\") */\n      tag_90\n      jumpi\n      mload(0x40)\n      0x08c379a000000000000000000000000000000000000000000000000000000000\n      dup2\n      mstore\n      0x04\n      add\n      tag_91\n      swap1\n      tag_92\n      jump\t// in\n    tag_91:\n      mload(0x40)\n      dup1\n      swap2\n      sub\n      swap1\n      revert\n    tag_90:\n        /* \"contracts/BusinessConsensus.sol\":2777:2778  0 */\n      0x00\n        /* \"contracts/BusinessConsensus.sol\":2738:2779  voters_map[voter].recipient == address(0) */\n      0xffffffffffffffffffffffffffffffffffffffff\n      and\n        /* \"contracts/BusinessConsensus.sol\":2738:2748  voters_map */\n      0x09\n        /* \"contracts/BusinessConsensus.sol\":2738:2755  voters_map[voter] */\n      0x00\n        /* \"contracts/BusinessConsensus.sol\":2749:2754  voter */\n      dup4\n        /* \"contracts/BusinessConsensus.sol\":2738:2755  voters_map[voter] */\n      0xffffffffffffffffffffffffffffffffffffffff\n      and\n      0xffffffffffffffffffffffffffffffffffffffff\n      and\n      dup2\n      mstore\n      0x20\n      add\n      swap1\n      dup2\n      mstore\n      0x20\n      add\n      0x00\n      keccak256\n        /* \"contracts/BusinessConsensus.sol\":2738:2765  voters_map[voter].recipient */\n      0x00\n      add\n      0x01\n      swap1\n      sload\n      swap1\n      0x0100\n      exp\n      swap1\n      div\n      0xffffffffffffffffffffffffffffffffffffffff\n      and\n        /* \"contracts/BusinessConsensus.sol\":2738:2779  voters_map[voter].recipient == address(0) */\n      0xffffffffffffffffffffffffffffffffffffffff\n      and\n      eq\n        /* \"contracts/BusinessConsensus.sol\":2730:2815  require(voters_map[voter].recipient == address(0), \"Recipient is already registered\") */\n      tag_93\n      jumpi\n      mload(0x40)\n      0x08c379a000000000000000000000000000000000000000000000000000000000\n      dup2\n      mstore\n      0x04\n      add\n      tag_94\n      swap1\n      tag_95\n      jump\t// in\n    tag_94:\n      mload(0x40)\n      dup1\n      swap2\n      sub\n      swap1\n      revert\n    tag_93:\n        /* \"contracts/BusinessConsensus.sol\":2854:2864  expiryDate */\n      sload(0x01)\n        /* \"contracts/BusinessConsensus.sol\":2836:2851  block.timestamp */\n      timestamp\n        /* \"contracts/BusinessConsensus.sol\":2836:2864  block.timestamp < expiryDate */\n      lt\n        /* \"contracts/BusinessConsensus.sol\":2828:2905  require(block.timestamp < expiryDate, \"Proposal has reached its expiry date\") */\n      tag_96\n      jumpi\n      mload(0x40)\n      0x08c379a000000000000000000000000000000000000000000000000000000000\n      dup2\n      mstore\n      0x04\n      add\n      tag_97\n      swap1\n      tag_98\n      jump\t// in\n    tag_97:\n      mload(0x40)\n      dup1\n      swap2\n      sub\n      swap1\n      revert\n    tag_96:\n        /* \"contracts/BusinessConsensus.sol\":2918:2932  Voter memory x */\n      0x00\n        /* \"contracts/BusinessConsensus.sol\":2935:2986  Voter({voted: false,recipient: voter, vote: false}) */\n      mload(0x40)\n      dup1\n      0x60\n      add\n      0x40\n      mstore\n      dup1\n        /* \"contracts/BusinessConsensus.sol\":2949:2954  false */\n      0x00\n        /* \"contracts/BusinessConsensus.sol\":2935:2986  Voter({voted: false,recipient: voter, vote: false}) */\n      iszero\n      iszero\n      dup2\n      mstore\n      0x20\n      add\n        /* \"contracts/BusinessConsensus.sol\":2966:2971  voter */\n      dup4\n        /* \"contracts/BusinessConsensus.sol\":2935:2986  Voter({voted: false,recipient: voter, vote: false}) */\n      0xffffffffffffffffffffffffffffffffffffffff\n      and\n      dup2\n      mstore\n      0x20\n      add\n        /* \"contracts/BusinessConsensus.sol\":2979:2984  false */\n      0x00\n        /* \"contracts/BusinessConsensus.sol\":2935:2986  Voter({voted: false,recipient: voter, vote: false}) */\n      iszero\n      iszero\n      dup2\n      mstore\n      pop\n        /* \"contracts/BusinessConsensus.sol\":2918:2986  Voter memory x = Voter({voted: false,recipient: voter, vote: false}) */\n      swap1\n      pop\n        /* \"contracts/BusinessConsensus.sol\":3017:3018  x */\n      dup1\n        /* \"contracts/BusinessConsensus.sol\":2997:3007  voters_map */\n      0x09\n        /* \"contracts/BusinessConsensus.sol\":2997:3014  voters_map[voter] */\n      0x00\n        /* \"contracts/BusinessConsensus.sol\":3008:3013  voter */\n      dup5\n        /* \"contracts/BusinessConsensus.sol\":2997:3014  voters_map[voter] */\n      0xffffffffffffffffffffffffffffffffffffffff\n      and\n      0xffffffffffffffffffffffffffffffffffffffff\n      and\n      dup2\n      mstore\n      0x20\n      add\n      swap1\n      dup2\n      mstore\n      0x20\n      add\n      0x00\n      keccak256\n        /* \"contracts/BusinessConsensus.sol\":2997:3018  voters_map[voter] = x */\n      0x00\n      dup3\n      add\n      mload\n      dup2\n      0x00\n      add\n      exp(0x0100, 0x00)\n      dup2\n      sload\n      dup2\n      0xff\n      mul\n      not\n      and\n      swap1\n      dup4\n      iszero\n      iszero\n      mul\n      or\n      swap1\n      sstore\n      pop\n      0x20\n      dup3\n      add\n      mload\n      dup2\n      0x00\n      add\n      exp(0x0100, 0x01)\n      dup2\n      sload\n      dup2\n      0xffffffffffffffffffffffffffffffffffffffff\n      mul\n      not\n      and\n      swap1\n      dup4\n      0xffffffffffffffffffffffffffffffffffffffff\n      and\n      mul\n      or\n      swap1\n      sstore\n      pop\n      0x40\n      dup3\n      add\n      mload\n      dup2\n      0x00\n      add\n      exp(0x0100, 0x15)\n      dup2\n      sload\n      dup2\n      0xff\n      mul\n      not\n      and\n      swap1\n      dup4\n      iszero\n      iszero\n      mul\n      or\n      swap1\n      sstore\n      pop\n      swap1\n      pop\n      pop\n        /* \"contracts/BusinessConsensus.sol\":3029:3033  keys */\n      0x08\n        /* \"contracts/BusinessConsensus.sol\":3039:3044  voter */\n      dup3\n        /* \"contracts/BusinessConsensus.sol\":3029:3045  keys.push(voter) */\n      swap1\n      dup1\n      0x01\n      dup2\n      sload\n      add\n      dup1\n      dup3\n      sstore\n      dup1\n      swap2\n      pop\n      pop\n      0x01\n      swap1\n      sub\n      swap1\n      0x00\n      mstore\n      keccak256(0x00, 0x20)\n      add\n      0x00\n      swap1\n      swap2\n      swap1\n      swap2\n      swap1\n      swap2\n      0x0100\n      exp\n      dup2\n      sload\n      dup2\n      0xffffffffffffffffffffffffffffffffffffffff\n      mul\n      not\n      and\n      swap1\n      dup4\n      0xffffffffffffffffffffffffffffffffffffffff\n      and\n      mul\n      or\n      swap1\n      sstore\n      pop\n        /* \"contracts/BusinessConsensus.sol\":2448:3053  {... */\n      pop\n        /* \"contracts/BusinessConsensus.sol\":2401:3053  function RegisterVoter(address voter) external {... */\n      pop\n      jump\t// out\n        /* \"contracts/BusinessConsensus.sol\":1783:1883  function getValues() public view returns (string memory){... */\n    tag_33:\n        /* \"contracts/BusinessConsensus.sol\":1825:1838  string memory */\n      0x60\n        /* \"contracts/BusinessConsensus.sol\":1857:1865  proposal */\n      0x0a\n        /* \"contracts/BusinessConsensus.sol\":1857:1875  proposal.messageID */\n      0x01\n      add\n        /* \"contracts/BusinessConsensus.sol\":1850:1875  return proposal.messageID */\n      dup1\n      sload\n      tag_101\n      swap1\n      tag_102\n      jump\t// in\n    tag_101:\n      dup1\n      0x1f\n      add\n      0x20\n      dup1\n      swap2\n      div\n      mul\n      0x20\n      add\n      mload(0x40)\n      swap1\n      dup2\n      add\n      0x40\n      mstore\n      dup1\n      swap3\n      swap2\n      swap1\n      dup2\n      dup2\n      mstore\n      0x20\n      add\n      dup3\n      dup1\n      sload\n      tag_103\n      swap1\n      tag_102\n      jump\t// in\n    tag_103:\n      dup1\n      iszero\n      tag_104\n      jumpi\n      dup1\n      0x1f\n      lt\n      tag_105\n      jumpi\n      0x0100\n      dup1\n      dup4\n      sload\n      div\n      mul\n      dup4\n      mstore\n      swap2\n      0x20\n      add\n      swap2\n      jump(tag_104)\n    tag_105:\n      dup3\n      add\n      swap2\n      swap1\n      0x00\n      mstore\n      keccak256(0x00, 0x20)\n      swap1\n    tag_106:\n      dup2\n      sload\n      dup2\n      mstore\n      swap1\n      0x01\n      add\n      swap1\n      0x20\n      add\n      dup1\n      dup4\n      gt\n      tag_106\n      jumpi\n      dup3\n      swap1\n      sub\n      0x1f\n      and\n      dup3\n      add\n      swap2\n    tag_104:\n      pop\n      pop\n      pop\n      pop\n      pop\n      swap1\n      pop\n        /* \"contracts/BusinessConsensus.sol\":1783:1883  function getValues() public view returns (string memory){... */\n      swap1\n      jump\t// out\n        /* \"contracts/BusinessConsensus.sol\":3108:4042  function Vote(string memory response) external {... */\n    tag_39:\n        /* \"contracts/BusinessConsensus.sol\":3222:3232  expiryDate */\n      sload(0x01)\n        /* \"contracts/BusinessConsensus.sol\":3204:3219  block.timestamp */\n      timestamp\n        /* \"contracts/BusinessConsensus.sol\":3204:3232  block.timestamp < expiryDate */\n      lt\n        /* \"contracts/BusinessConsensus.sol\":3196:3255  require(block.timestamp < expiryDate, \"Voting has expired\") */\n      tag_108\n      jumpi\n      mload(0x40)\n      0x08c379a000000000000000000000000000000000000000000000000000000000\n      dup2\n      mstore\n      0x04\n      add\n      tag_109\n      swap1\n      tag_110\n      jump\t// in\n    tag_109:\n      mload(0x40)\n      dup1\n      swap2\n      sub\n      swap1\n      revert\n    tag_108:\n        /* \"contracts/BusinessConsensus.sol\":3266:3293  Voter memory recipientVoter */\n      0x00\n        /* \"contracts/BusinessConsensus.sol\":3296:3306  voters_map */\n      0x09\n        /* \"contracts/BusinessConsensus.sol\":3296:3318  voters_map[msg.sender] */\n      0x00\n        /* \"contracts/BusinessConsensus.sol\":3307:3317  msg.sender */\n      caller\n        /* \"contracts/BusinessConsensus.sol\":3296:3318  voters_map[msg.sender] */\n      0xffffffffffffffffffffffffffffffffffffffff\n      and\n      0xffffffffffffffffffffffffffffffffffffffff\n      and\n      dup2\n      mstore\n      0x20\n      add\n      swap1\n      dup2\n      mstore\n      0x20\n      add\n      0x00\n      keccak256\n        /* \"contracts/BusinessConsensus.sol\":3266:3318  Voter memory recipientVoter = voters_map[msg.sender] */\n      mload(0x40)\n      dup1\n      0x60\n      add\n      0x40\n      mstore\n      swap1\n      dup2\n      0x00\n      dup3\n      add\n      0x00\n      swap1\n      sload\n      swap1\n      0x0100\n      exp\n      swap1\n      div\n      0xff\n      and\n      iszero\n      iszero\n      iszero\n      iszero\n      dup2\n      mstore\n      0x20\n      add\n      0x00\n      dup3\n      add\n      0x01\n      swap1\n      sload\n      swap1\n      0x0100\n      exp\n      swap1\n      div\n      0xffffffffffffffffffffffffffffffffffffffff\n      and\n      0xffffffffffffffffffffffffffffffffffffffff\n      and\n      0xffffffffffffffffffffffffffffffffffffffff\n      and\n      dup2\n      mstore\n      0x20\n      add\n      0x00\n      dup3\n      add\n      0x15\n      swap1\n      sload\n      swap1\n      0x0100\n      exp\n      swap1\n      div\n      0xff\n      and\n      iszero\n      iszero\n      iszero\n      iszero\n      dup2\n      mstore\n      pop\n      pop\n      swap1\n      pop\n        /* \"contracts/BusinessConsensus.sol\":3373:3376  0x0 */\n      0x00\n        /* \"contracts/BusinessConsensus.sol\":3337:3377  recipientVoter.recipient != address(0x0) */\n      0xffffffffffffffffffffffffffffffffffffffff\n      and\n        /* \"contracts/BusinessConsensus.sol\":3337:3351  recipientVoter */\n      dup2\n        /* \"contracts/BusinessConsensus.sol\":3337:3361  recipientVoter.recipient */\n      0x20\n      add\n      mload\n        /* \"contracts/BusinessConsensus.sol\":3337:3377  recipientVoter.recipient != address(0x0) */\n      0xffffffffffffffffffffffffffffffffffffffff\n      and\n      sub\n        /* \"contracts/BusinessConsensus.sol\":3329:3412  require(recipientVoter.recipient != address(0x0), \"You are not registered to vote\") */\n      tag_111\n      jumpi\n      mload(0x40)\n      0x08c379a000000000000000000000000000000000000000000000000000000000\n      dup2\n      mstore\n      0x04\n      add\n      tag_112\n      swap1\n      tag_113\n      jump\t// in\n    tag_112:\n      mload(0x40)\n      dup1\n      swap2\n      sub\n      swap1\n      revert\n    tag_111:\n        /* \"contracts/BusinessConsensus.sol\":3432:3446  recipientVoter */\n      dup1\n        /* \"contracts/BusinessConsensus.sol\":3432:3452  recipientVoter.voted */\n      0x00\n      add\n      mload\n        /* \"contracts/BusinessConsensus.sol\":3431:3452  !recipientVoter.voted */\n      iszero\n        /* \"contracts/BusinessConsensus.sol\":3423:3485  require(!recipientVoter.voted, \"You already sent a response.\") */\n      tag_114\n      jumpi\n      mload(0x40)\n      0x08c379a000000000000000000000000000000000000000000000000000000000\n      dup2\n      mstore\n      0x04\n      add\n      tag_115\n      swap1\n      tag_116\n      jump\t// in\n    tag_115:\n      mload(0x40)\n      dup1\n      swap2\n      sub\n      swap1\n      revert\n    tag_114:\n        /* \"contracts/BusinessConsensus.sol\":3541:3559  bytes(\"i approve\") */\n      mload(0x40)\n      dup1\n      0x40\n      add\n      0x40\n      mstore\n      dup1\n      0x09\n      dup2\n      mstore\n      0x20\n      add\n      0x6920617070726f76650000000000000000000000000000000000000000000000\n      dup2\n      mstore\n      pop\n        /* \"contracts/BusinessConsensus.sol\":3531:3560  keccak256(bytes(\"i approve\")) */\n      dup1\n      mload\n      swap1\n      0x20\n      add\n      keccak256\n        /* \"contracts/BusinessConsensus.sol\":3517:3525  response */\n      dup3\n        /* \"contracts/BusinessConsensus.sol\":3501:3527  keccak256(bytes(response)) */\n      dup1\n      mload\n      swap1\n      0x20\n      add\n      keccak256\n        /* \"contracts/BusinessConsensus.sol\":3501:3560  keccak256(bytes(response)) == keccak256(bytes(\"i approve\")) */\n      sub\n        /* \"contracts/BusinessConsensus.sol\":3498:4025  if(keccak256(bytes(response)) == keccak256(bytes(\"i approve\"))){... */\n      tag_117\n      jumpi\n        /* \"contracts/BusinessConsensus.sol\":3607:3611  true */\n      0x01\n        /* \"contracts/BusinessConsensus.sol\":3576:3586  voters_map */\n      0x09\n        /* \"contracts/BusinessConsensus.sol\":3576:3598  voters_map[msg.sender] */\n      0x00\n        /* \"contracts/BusinessConsensus.sol\":3587:3597  msg.sender */\n      caller\n        /* \"contracts/BusinessConsensus.sol\":3576:3598  voters_map[msg.sender] */\n      0xffffffffffffffffffffffffffffffffffffffff\n      and\n      0xffffffffffffffffffffffffffffffffffffffff\n      and\n      dup2\n      mstore\n      0x20\n      add\n      swap1\n      dup2\n      mstore\n      0x20\n      add\n      0x00\n      keccak256\n        /* \"contracts/BusinessConsensus.sol\":3576:3604  voters_map[msg.sender].voted */\n      0x00\n      add\n      0x00\n        /* \"contracts/BusinessConsensus.sol\":3576:3611  voters_map[msg.sender].voted = true */\n      0x0100\n      exp\n      dup2\n      sload\n      dup2\n      0xff\n      mul\n      not\n      and\n      swap1\n      dup4\n      iszero\n      iszero\n      mul\n      or\n      swap1\n      sstore\n      pop\n        /* \"contracts/BusinessConsensus.sol\":3656:3660  true */\n      0x01\n        /* \"contracts/BusinessConsensus.sol\":3626:3636  voters_map */\n      0x09\n        /* \"contracts/BusinessConsensus.sol\":3626:3648  voters_map[msg.sender] */\n      0x00\n        /* \"contracts/BusinessConsensus.sol\":3637:3647  msg.sender */\n      caller\n        /* \"contracts/BusinessConsensus.sol\":3626:3648  voters_map[msg.sender] */\n      0xffffffffffffffffffffffffffffffffffffffff\n      and\n      0xffffffffffffffffffffffffffffffffffffffff\n      and\n      dup2\n      mstore\n      0x20\n      add\n      swap1\n      dup2\n      mstore\n      0x20\n      add\n      0x00\n      keccak256\n        /* \"contracts/BusinessConsensus.sol\":3626:3653  voters_map[msg.sender].vote */\n      0x00\n      add\n      0x15\n        /* \"contracts/BusinessConsensus.sol\":3626:3660  voters_map[msg.sender].vote = true */\n      0x0100\n      exp\n      dup2\n      sload\n      dup2\n      0xff\n      mul\n      not\n      and\n      swap1\n      dup4\n      iszero\n      iszero\n      mul\n      or\n      swap1\n      sstore\n      pop\n        /* \"contracts/BusinessConsensus.sol\":3691:3692  1 */\n      0x01\n        /* \"contracts/BusinessConsensus.sol\":3675:3687  numApprovals */\n      0x06\n      0x00\n        /* \"contracts/BusinessConsensus.sol\":3675:3692  numApprovals += 1 */\n      dup3\n      dup3\n      sload\n      tag_118\n      swap2\n      swap1\n      tag_119\n      jump\t// in\n    tag_118:\n      swap3\n      pop\n      pop\n      dup2\n      swap1\n      sstore\n      pop\n        /* \"contracts/BusinessConsensus.sol\":3729:3730  1 */\n      0x01\n        /* \"contracts/BusinessConsensus.sol\":3707:3715  proposal */\n      0x0a\n        /* \"contracts/BusinessConsensus.sol\":3707:3725  proposal.voteCount */\n      0x00\n      add\n      0x00\n        /* \"contracts/BusinessConsensus.sol\":3707:3730  proposal.voteCount += 1 */\n      dup3\n      dup3\n      sload\n      tag_120\n      swap2\n      swap1\n      tag_119\n      jump\t// in\n    tag_120:\n      swap3\n      pop\n      pop\n      dup2\n      swap1\n      sstore\n      pop\n        /* \"contracts/BusinessConsensus.sol\":3745:3751  voters */\n      0x07\n        /* \"contracts/BusinessConsensus.sol\":3757:3767  voters_map */\n      0x09\n        /* \"contracts/BusinessConsensus.sol\":3757:3779  voters_map[msg.sender] */\n      0x00\n        /* \"contracts/BusinessConsensus.sol\":3768:3778  msg.sender */\n      caller\n        /* \"contracts/BusinessConsensus.sol\":3757:3779  voters_map[msg.sender] */\n      0xffffffffffffffffffffffffffffffffffffffff\n      and\n      0xffffffffffffffffffffffffffffffffffffffff\n      and\n      dup2\n      mstore\n      0x20\n      add\n      swap1\n      dup2\n      mstore\n      0x20\n      add\n      0x00\n      keccak256\n        /* \"contracts/BusinessConsensus.sol\":3745:3780  voters.push(voters_map[msg.sender]) */\n      swap1\n      dup1\n      0x01\n      dup2\n      sload\n      add\n      dup1\n      dup3\n      sstore\n      dup1\n      swap2\n      pop\n      pop\n      0x01\n      swap1\n      sub\n      swap1\n      0x00\n      mstore\n      keccak256(0x00, 0x20)\n      add\n      0x00\n      swap1\n      swap2\n      swap1\n      swap2\n      swap1\n      swap2\n      pop\n      0x00\n      dup3\n      add\n      0x00\n      swap1\n      sload\n      swap1\n      0x0100\n      exp\n      swap1\n      div\n      0xff\n      and\n      dup2\n      0x00\n      add\n      exp(0x0100, 0x00)\n      dup2\n      sload\n      dup2\n      0xff\n      mul\n      not\n      and\n      swap1\n      dup4\n      iszero\n      iszero\n      mul\n      or\n      swap1\n      sstore\n      pop\n      0x00\n      dup3\n      add\n      0x01\n      swap1\n      sload\n      swap1\n      0x0100\n      exp\n      swap1\n      div\n      0xffffffffffffffffffffffffffffffffffffffff\n      and\n      dup2\n      0x00\n      add\n      exp(0x0100, 0x01)\n      dup2\n      sload\n      dup2\n      0xffffffffffffffffffffffffffffffffffffffff\n      mul\n      not\n      and\n      swap1\n      dup4\n      0xffffffffffffffffffffffffffffffffffffffff\n      and\n      mul\n      or\n      swap1\n      sstore\n      pop\n      0x00\n      dup3\n      add\n      0x15\n      swap1\n      sload\n      swap1\n      0x0100\n      exp\n      swap1\n      div\n      0xff\n      and\n      dup2\n      0x00\n      add\n      exp(0x0100, 0x15)\n      dup2\n      sload\n      dup2\n      0xff\n      mul\n      not\n      and\n      swap1\n      dup4\n      iszero\n      iszero\n      mul\n      or\n      swap1\n      sstore\n      pop\n      pop\n      pop\n        /* \"contracts/BusinessConsensus.sol\":3498:4025  if(keccak256(bytes(response)) == keccak256(bytes(\"i approve\"))){... */\n      jump(tag_122)\n    tag_117:\n        /* \"contracts/BusinessConsensus.sol\":3852:3873  bytes(\"i disapprove\") */\n      mload(0x40)\n      dup1\n      0x40\n      add\n      0x40\n      mstore\n      dup1\n      0x0c\n      dup2\n      mstore\n      0x20\n      add\n      0x6920646973617070726f76650000000000000000000000000000000000000000\n      dup2\n      mstore\n      pop\n        /* \"contracts/BusinessConsensus.sol\":3842:3874  keccak256(bytes(\"i disapprove\")) */\n      dup1\n      mload\n      swap1\n      0x20\n      add\n      keccak256\n        /* \"contracts/BusinessConsensus.sol\":3828:3836  response */\n      dup3\n        /* \"contracts/BusinessConsensus.sol\":3812:3838  keccak256(bytes(response)) */\n      dup1\n      mload\n      swap1\n      0x20\n      add\n      keccak256\n        /* \"contracts/BusinessConsensus.sol\":3812:3874  keccak256(bytes(response)) == keccak256(bytes(\"i disapprove\")) */\n      sub\n        /* \"contracts/BusinessConsensus.sol\":3809:4025  if(keccak256(bytes(response)) == keccak256(bytes(\"i disapprove\"))){... */\n      tag_123\n      jumpi\n        /* \"contracts/BusinessConsensus.sol\":3921:3925  true */\n      0x01\n        /* \"contracts/BusinessConsensus.sol\":3890:3900  voters_map */\n      0x09\n        /* \"contracts/BusinessConsensus.sol\":3890:3912  voters_map[msg.sender] */\n      0x00\n        /* \"contracts/BusinessConsensus.sol\":3901:3911  msg.sender */\n      caller\n        /* \"contracts/BusinessConsensus.sol\":3890:3912  voters_map[msg.sender] */\n      0xffffffffffffffffffffffffffffffffffffffff\n      and\n      0xffffffffffffffffffffffffffffffffffffffff\n      and\n      dup2\n      mstore\n      0x20\n      add\n      swap1\n      dup2\n      mstore\n      0x20\n      add\n      0x00\n      keccak256\n        /* \"contracts/BusinessConsensus.sol\":3890:3918  voters_map[msg.sender].voted */\n      0x00\n      add\n      0x00\n        /* \"contracts/BusinessConsensus.sol\":3890:3925  voters_map[msg.sender].voted = true */\n      0x0100\n      exp\n      dup2\n      sload\n      dup2\n      0xff\n      mul\n      not\n      and\n      swap1\n      dup4\n      iszero\n      iszero\n      mul\n      or\n      swap1\n      sstore\n      pop\n        /* \"contracts/BusinessConsensus.sol\":3962:3963  1 */\n      0x01\n        /* \"contracts/BusinessConsensus.sol\":3940:3948  proposal */\n      0x0a\n        /* \"contracts/BusinessConsensus.sol\":3940:3958  proposal.voteCount */\n      0x00\n      add\n      0x00\n        /* \"contracts/BusinessConsensus.sol\":3940:3963  proposal.voteCount += 1 */\n      dup3\n      dup3\n      sload\n      tag_124\n      swap2\n      swap1\n      tag_119\n      jump\t// in\n    tag_124:\n      swap3\n      pop\n      pop\n      dup2\n      swap1\n      sstore\n      pop\n        /* \"contracts/BusinessConsensus.sol\":3978:3984  voters */\n      0x07\n        /* \"contracts/BusinessConsensus.sol\":3990:4000  voters_map */\n      0x09\n        /* \"contracts/BusinessConsensus.sol\":3990:4012  voters_map[msg.sender] */\n      0x00\n        /* \"contracts/BusinessConsensus.sol\":4001:4011  msg.sender */\n      caller\n        /* \"contracts/BusinessConsensus.sol\":3990:4012  voters_map[msg.sender] */\n      0xffffffffffffffffffffffffffffffffffffffff\n      and\n      0xffffffffffffffffffffffffffffffffffffffff\n      and\n      dup2\n      mstore\n      0x20\n      add\n      swap1\n      dup2\n      mstore\n      0x20\n      add\n      0x00\n      keccak256\n        /* \"contracts/BusinessConsensus.sol\":3978:4013  voters.push(voters_map[msg.sender]) */\n      swap1\n      dup1\n      0x01\n      dup2\n      sload\n      add\n      dup1\n      dup3\n      sstore\n      dup1\n      swap2\n      pop\n      pop\n      0x01\n      swap1\n      sub\n      swap1\n      0x00\n      mstore\n      keccak256(0x00, 0x20)\n      add\n      0x00\n      swap1\n      swap2\n      swap1\n      swap2\n      swap1\n      swap2\n      pop\n      0x00\n      dup3\n      add\n      0x00\n      swap1\n      sload\n      swap1\n      0x0100\n      exp\n      swap1\n      div\n      0xff\n      and\n      dup2\n      0x00\n      add\n      exp(0x0100, 0x00)\n      dup2\n      sload\n      dup2\n      0xff\n      mul\n      not\n      and\n      swap1\n      dup4\n      iszero\n      iszero\n      mul\n      or\n      swap1\n      sstore\n      pop\n      0x00\n      dup3\n      add\n      0x01\n      swap1\n      sload\n      swap1\n      0x0100\n      exp\n      swap1\n      div\n      0xffffffffffffffffffffffffffffffffffffffff\n      and\n      dup2\n      0x00\n      add\n      exp(0x0100, 0x01)\n      dup2\n      sload\n      dup2\n      0xffffffffffffffffffffffffffffffffffffffff\n      mul\n      not\n      and\n      swap1\n      dup4\n      0xffffffffffffffffffffffffffffffffffffffff\n      and\n      mul\n      or\n      swap1\n      sstore\n      pop\n      0x00\n      dup3\n      add\n      0x15\n      swap1\n      sload\n      swap1\n      0x0100\n      exp\n      swap1\n      div\n      0xff\n      and\n      dup2\n      0x00\n      add\n      exp(0x0100, 0x15)\n      dup2\n      sload\n      dup2\n      0xff\n      mul\n      not\n      and\n      swap1\n      dup4\n      iszero\n      iszero\n      mul\n      or\n      swap1\n      sstore\n      pop\n      pop\n      pop\n        /* \"contracts/BusinessConsensus.sol\":3809:4025  if(keccak256(bytes(response)) == keccak256(bytes(\"i disapprove\"))){... */\n    tag_123:\n        /* \"contracts/BusinessConsensus.sol\":3498:4025  if(keccak256(bytes(response)) == keccak256(bytes(\"i approve\"))){... */\n    tag_122:\n        /* \"contracts/BusinessConsensus.sol\":3155:4042  {... */\n      pop\n        /* \"contracts/BusinessConsensus.sol\":3108:4042  function Vote(string memory response) external {... */\n      pop\n      jump\t// out\n        /* \"contracts/BusinessConsensus.sol\":2083:2295  function getParameters2(address test_address) public view returns (bool, bool, address){... */\n    tag_42:\n        /* \"contracts/BusinessConsensus.sol\":2150:2154  bool */\n      0x00\n        /* \"contracts/BusinessConsensus.sol\":2156:2160  bool */\n      dup1\n        /* \"contracts/BusinessConsensus.sol\":2162:2169  address */\n      0x00\n        /* \"contracts/BusinessConsensus.sol\":2189:2199  voters_map */\n      0x09\n        /* \"contracts/BusinessConsensus.sol\":2189:2213  voters_map[test_address] */\n      0x00\n        /* \"contracts/BusinessConsensus.sol\":2200:2212  test_address */\n      dup6\n        /* \"contracts/BusinessConsensus.sol\":2189:2213  voters_map[test_address] */\n      0xffffffffffffffffffffffffffffffffffffffff\n      and\n      0xffffffffffffffffffffffffffffffffffffffff\n      and\n      dup2\n      mstore\n      0x20\n      add\n      swap1\n      dup2\n      mstore\n      0x20\n      add\n      0x00\n      keccak256\n        /* \"contracts/BusinessConsensus.sol\":2189:2218  voters_map[test_address].vote */\n      0x00\n      add\n      0x15\n      swap1\n      sload\n      swap1\n      0x0100\n      exp\n      swap1\n      div\n      0xff\n      and\n        /* \"contracts/BusinessConsensus.sol\":2220:2230  voters_map */\n      0x09\n        /* \"contracts/BusinessConsensus.sol\":2220:2244  voters_map[test_address] */\n      0x00\n        /* \"contracts/BusinessConsensus.sol\":2231:2243  test_address */\n      dup7\n        /* \"contracts/BusinessConsensus.sol\":2220:2244  voters_map[test_address] */\n      0xffffffffffffffffffffffffffffffffffffffff\n      and\n      0xffffffffffffffffffffffffffffffffffffffff\n      and\n      dup2\n      mstore\n      0x20\n      add\n      swap1\n      dup2\n      mstore\n      0x20\n      add\n      0x00\n      keccak256\n        /* \"contracts/BusinessConsensus.sol\":2220:2250  voters_map[test_address].voted */\n      0x00\n      add\n      0x00\n      swap1\n      sload\n      swap1\n      0x0100\n      exp\n      swap1\n      div\n      0xff\n      and\n        /* \"contracts/BusinessConsensus.sol\":2252:2262  voters_map */\n      0x09\n        /* \"contracts/BusinessConsensus.sol\":2252:2276  voters_map[test_address] */\n      0x00\n        /* \"contracts/BusinessConsensus.sol\":2263:2275  test_address */\n      dup8\n        /* \"contracts/BusinessConsensus.sol\":2252:2276  voters_map[test_address] */\n      0xffffffffffffffffffffffffffffffffffffffff\n      and\n      0xffffffffffffffffffffffffffffffffffffffff\n      and\n      dup2\n      mstore\n      0x20\n      add\n      swap1\n      dup2\n      mstore\n      0x20\n      add\n      0x00\n      keccak256\n        /* \"contracts/BusinessConsensus.sol\":2252:2286  voters_map[test_address].recipient */\n      0x00\n      add\n      0x01\n      swap1\n      sload\n      swap1\n      0x0100\n      exp\n      swap1\n      div\n      0xffffffffffffffffffffffffffffffffffffffff\n      and\n        /* \"contracts/BusinessConsensus.sol\":2181:2287  return (voters_map[test_address].vote, voters_map[test_address].voted, voters_map[test_address].recipient) */\n      swap3\n      pop\n      swap3\n      pop\n      swap3\n      pop\n        /* \"contracts/BusinessConsensus.sol\":2083:2295  function getParameters2(address test_address) public view returns (bool, bool, address){... */\n      swap2\n      swap4\n      swap1\n      swap3\n      pop\n      jump\t// out\n        /* \"contracts/BusinessConsensus.sol\":862:886  address public initiator */\n    tag_46:\n      0x03\n      0x00\n      swap1\n      sload\n      swap1\n      0x0100\n      exp\n      swap1\n      div\n      0xffffffffffffffffffffffffffffffffffffffff\n      and\n      dup2\n      jump\t// out\n        /* \"contracts/BusinessConsensus.sol\":935:968  uint public AccumulatedPercentage */\n    tag_49:\n      sload(0x05)\n      dup2\n      jump\t// out\n        /* \"contracts/BusinessConsensus.sol\":975:999  uint public numApprovals */\n    tag_53:\n      sload(0x06)\n      dup2\n      jump\t// out\n        /* \"contracts/BusinessConsensus.sol\":1184:1208  Proposal public proposal */\n    tag_56:\n      0x0a\n      dup1\n      0x00\n      add\n      sload\n      swap1\n      dup1\n      0x01\n      add\n      dup1\n      sload\n      tag_127\n      swap1\n      tag_102\n      jump\t// in\n    tag_127:\n      dup1\n      0x1f\n      add\n      0x20\n      dup1\n      swap2\n      div\n      mul\n      0x20\n      add\n      mload(0x40)\n      swap1\n      dup2\n      add\n      0x40\n      mstore\n      dup1\n      swap3\n      swap2\n      swap1\n      dup2\n      dup2\n      mstore\n      0x20\n      add\n      dup3\n      dup1\n      sload\n      tag_128\n      swap1\n      tag_102\n      jump\t// in\n    tag_128:\n      dup1\n      iszero\n      tag_129\n      jumpi\n      dup1\n      0x1f\n      lt\n      tag_130\n      jumpi\n      0x0100\n      dup1\n      dup4\n      sload\n      div\n      mul\n      dup4\n      mstore\n      swap2\n      0x20\n      add\n      swap2\n      jump(tag_129)\n    tag_130:\n      dup3\n      add\n      swap2\n      swap1\n      0x00\n      mstore\n      keccak256(0x00, 0x20)\n      swap1\n    tag_131:\n      dup2\n      sload\n      dup2\n      mstore\n      swap1\n      0x01\n      add\n      swap1\n      0x20\n      add\n      dup1\n      dup4\n      gt\n      tag_131\n      jumpi\n      dup3\n      swap1\n      sub\n      0x1f\n      and\n      dup3\n      add\n      swap2\n    tag_129:\n      pop\n      pop\n      pop\n      pop\n      pop\n      swap1\n      pop\n      dup3\n      jump\t// out\n        /* \"contracts/BusinessConsensus.sol\":4106:4590  function Consensus() external {... */\n    tag_60:\n        /* \"contracts/BusinessConsensus.sol\":4174:4184  expiryDate */\n      sload(0x01)\n        /* \"contracts/BusinessConsensus.sol\":4155:4170  block.timestamp */\n      timestamp\n        /* \"contracts/BusinessConsensus.sol\":4155:4184  block.timestamp >= expiryDate */\n      lt\n      iszero\n        /* \"contracts/BusinessConsensus.sol\":4147:4221  require(block.timestamp >= expiryDate, \"Verdict has not been reached yet\") */\n      tag_133\n      jumpi\n      mload(0x40)\n      0x08c379a000000000000000000000000000000000000000000000000000000000\n      dup2\n      mstore\n      0x04\n      add\n      tag_134\n      swap1\n      tag_135\n      jump\t// in\n    tag_134:\n      mload(0x40)\n      dup1\n      swap2\n      sub\n      swap1\n      revert\n    tag_133:\n        /* \"contracts/BusinessConsensus.sol\":4283:4286  100 */\n      0x64\n        /* \"contracts/BusinessConsensus.sol\":4270:4274  keys */\n      0x08\n        /* \"contracts/BusinessConsensus.sol\":4270:4281  keys.length */\n      dup1\n      sload\n      swap1\n      pop\n        /* \"contracts/BusinessConsensus.sol\":4257:4269  numApprovals */\n      sload(0x06)\n        /* \"contracts/BusinessConsensus.sol\":4257:4281  numApprovals/keys.length */\n      tag_136\n      swap2\n      swap1\n      tag_137\n      jump\t// in\n    tag_136:\n        /* \"contracts/BusinessConsensus.sol\":4256:4286  (numApprovals/keys.length)*100 */\n      tag_138\n      swap2\n      swap1\n      tag_139\n      jump\t// in\n    tag_138:\n        /* \"contracts/BusinessConsensus.sol\":4232:4253  AccumulatedPercentage */\n      0x05\n        /* \"contracts/BusinessConsensus.sol\":4232:4286  AccumulatedPercentage = (numApprovals/keys.length)*100 */\n      dup2\n      swap1\n      sstore\n      pop\n        /* \"contracts/BusinessConsensus.sol\":4325:4344  BusinessRequirement */\n      sload(0x04)\n        /* \"contracts/BusinessConsensus.sol\":4300:4321  AccumulatedPercentage */\n      sload(0x05)\n        /* \"contracts/BusinessConsensus.sol\":4300:4344  AccumulatedPercentage >= BusinessRequirement */\n      lt\n        /* \"contracts/BusinessConsensus.sol\":4297:4397  if(AccumulatedPercentage >= BusinessRequirement){... */\n      tag_140\n      jumpi\n        /* \"contracts/BusinessConsensus.sol\":4360:4385  finalVerdict = \"Accepted\" */\n      mload(0x40)\n      dup1\n      0x40\n      add\n      0x40\n      mstore\n      dup1\n      0x08\n      dup2\n      mstore\n      0x20\n      add\n      0x4163636570746564000000000000000000000000000000000000000000000000\n      dup2\n      mstore\n      pop\n        /* \"contracts/BusinessConsensus.sol\":4360:4372  finalVerdict */\n      0x02\n        /* \"contracts/BusinessConsensus.sol\":4360:4385  finalVerdict = \"Accepted\" */\n      swap1\n      dup2\n      tag_141\n      swap2\n      swap1\n      tag_142\n      jump\t// in\n    tag_141:\n      pop\n        /* \"contracts/BusinessConsensus.sol\":4297:4397  if(AccumulatedPercentage >= BusinessRequirement){... */\n    tag_140:\n        /* \"contracts/BusinessConsensus.sol\":4411:4418  uint8 i */\n      0x00\n        /* \"contracts/BusinessConsensus.sol\":4407:4573  for(uint8 i=0; i< keys.length; i++){... */\n    tag_143:\n        /* \"contracts/BusinessConsensus.sol\":4425:4429  keys */\n      0x08\n        /* \"contracts/BusinessConsensus.sol\":4425:4436  keys.length */\n      dup1\n      sload\n      swap1\n      pop\n        /* \"contracts/BusinessConsensus.sol\":4422:4423  i */\n      dup2\n        /* \"contracts/BusinessConsensus.sol\":4422:4436  i< keys.length */\n      0xff\n      and\n      lt\n        /* \"contracts/BusinessConsensus.sol\":4407:4573  for(uint8 i=0; i< keys.length; i++){... */\n      iszero\n      tag_144\n      jumpi\n        /* \"contracts/BusinessConsensus.sol\":4489:4494  false */\n      0x00\n        /* \"contracts/BusinessConsensus.sol\":4460:4494  voters_map[keys[i]].voted == false */\n      iszero\n      iszero\n        /* \"contracts/BusinessConsensus.sol\":4460:4470  voters_map */\n      0x09\n        /* \"contracts/BusinessConsensus.sol\":4460:4479  voters_map[keys[i]] */\n      0x00\n        /* \"contracts/BusinessConsensus.sol\":4471:4475  keys */\n      0x08\n        /* \"contracts/BusinessConsensus.sol\":4476:4477  i */\n      dup5\n        /* \"contracts/BusinessConsensus.sol\":4471:4478  keys[i] */\n      0xff\n      and\n      dup2\n      sload\n      dup2\n      lt\n      tag_146\n      jumpi\n      tag_147\n      tag_148\n      jump\t// in\n    tag_147:\n    tag_146:\n      swap1\n      0x00\n      mstore\n      keccak256(0x00, 0x20)\n      add\n      0x00\n      swap1\n      sload\n      swap1\n      0x0100\n      exp\n      swap1\n      div\n      0xffffffffffffffffffffffffffffffffffffffff\n      and\n        /* \"contracts/BusinessConsensus.sol\":4460:4479  voters_map[keys[i]] */\n      0xffffffffffffffffffffffffffffffffffffffff\n      and\n      0xffffffffffffffffffffffffffffffffffffffff\n      and\n      dup2\n      mstore\n      0x20\n      add\n      swap1\n      dup2\n      mstore\n      0x20\n      add\n      0x00\n      keccak256\n        /* \"contracts/BusinessConsensus.sol\":4460:4485  voters_map[keys[i]].voted */\n      0x00\n      add\n      0x00\n      swap1\n      sload\n      swap1\n      0x0100\n      exp\n      swap1\n      div\n      0xff\n      and\n        /* \"contracts/BusinessConsensus.sol\":4460:4494  voters_map[keys[i]].voted == false */\n      iszero\n      iszero\n      sub\n        /* \"contracts/BusinessConsensus.sol\":4457:4562  if(voters_map[keys[i]].voted == false){... */\n      tag_150\n      jumpi\n        /* \"contracts/BusinessConsensus.sol\":4514:4520  voters */\n      0x07\n        /* \"contracts/BusinessConsensus.sol\":4526:4536  voters_map */\n      0x09\n        /* \"contracts/BusinessConsensus.sol\":4526:4545  voters_map[keys[i]] */\n      0x00\n        /* \"contracts/BusinessConsensus.sol\":4537:4541  keys */\n      0x08\n        /* \"contracts/BusinessConsensus.sol\":4542:4543  i */\n      dup5\n        /* \"contracts/BusinessConsensus.sol\":4537:4544  keys[i] */\n      0xff\n      and\n      dup2\n      sload\n      dup2\n      lt\n      tag_151\n      jumpi\n      tag_152\n      tag_148\n      jump\t// in\n    tag_152:\n    tag_151:\n      swap1\n      0x00\n      mstore\n      keccak256(0x00, 0x20)\n      add\n      0x00\n      swap1\n      sload\n      swap1\n      0x0100\n      exp\n      swap1\n      div\n      0xffffffffffffffffffffffffffffffffffffffff\n      and\n        /* \"contracts/BusinessConsensus.sol\":4526:4545  voters_map[keys[i]] */\n      0xffffffffffffffffffffffffffffffffffffffff\n      and\n      0xffffffffffffffffffffffffffffffffffffffff\n      and\n      dup2\n      mstore\n      0x20\n      add\n      swap1\n      dup2\n      mstore\n      0x20\n      add\n      0x00\n      keccak256\n        /* \"contracts/BusinessConsensus.sol\":4514:4546  voters.push(voters_map[keys[i]]) */\n      swap1\n      dup1\n      0x01\n      dup2\n      sload\n      add\n      dup1\n      dup3\n      sstore\n      dup1\n      swap2\n      pop\n      pop\n      0x01\n      swap1\n      sub\n      swap1\n      0x00\n      mstore\n      keccak256(0x00, 0x20)\n      add\n      0x00\n      swap1\n      swap2\n      swap1\n      swap2\n      swap1\n      swap2\n      pop\n      0x00\n      dup3\n      add\n      0x00\n      swap1\n      sload\n      swap1\n      0x0100\n      exp\n      swap1\n      div\n      0xff\n      and\n      dup2\n      0x00\n      add\n      exp(0x0100, 0x00)\n      dup2\n      sload\n      dup2\n      0xff\n      mul\n      not\n      and\n      swap1\n      dup4\n      iszero\n      iszero\n      mul\n      or\n      swap1\n      sstore\n      pop\n      0x00\n      dup3\n      add\n      0x01\n      swap1\n      sload\n      swap1\n      0x0100\n      exp\n      swap1\n      div\n      0xffffffffffffffffffffffffffffffffffffffff\n      and\n      dup2\n      0x00\n      add\n      exp(0x0100, 0x01)\n      dup2\n      sload\n      dup2\n      0xffffffffffffffffffffffffffffffffffffffff\n      mul\n      not\n      and\n      swap1\n      dup4\n      0xffffffffffffffffffffffffffffffffffffffff\n      and\n      mul\n      or\n      swap1\n      sstore\n      pop\n      0x00\n      dup3\n      add\n      0x15\n      swap1\n      sload\n      swap1\n      0x0100\n      exp\n      swap1\n      div\n      0xff\n      and\n      dup2\n      0x00\n      add\n      exp(0x0100, 0x15)\n      dup2\n      sload\n      dup2\n      0xff\n      mul\n      not\n      and\n      swap1\n      dup4\n      iszero\n      iszero\n      mul\n      or\n      swap1\n      sstore\n      pop\n      pop\n      pop\n        /* \"contracts/BusinessConsensus.sol\":4457:4562  if(voters_map[keys[i]].voted == false){... */\n    tag_150:\n        /* \"contracts/BusinessConsensus.sol\":4438:4441  i++ */\n      dup1\n      dup1\n      tag_155\n      swap1\n      tag_156\n      jump\t// in\n    tag_155:\n      swap2\n      pop\n      pop\n        /* \"contracts/BusinessConsensus.sol\":4407:4573  for(uint8 i=0; i< keys.length; i++){... */\n      jump(tag_143)\n    tag_144:\n      pop\n        /* \"contracts/BusinessConsensus.sol\":4106:4590  function Consensus() external {... */\n      jump\t// out\n        /* \"contracts/BusinessConsensus.sol\":1064:1107  mapping(address => Voter) public voters_map */\n    tag_63:\n      mstore(0x20, 0x09)\n      dup1\n      0x00\n      mstore\n      keccak256(0x00, 0x40)\n      0x00\n      swap2\n      pop\n      swap1\n      pop\n      dup1\n      0x00\n      add\n      0x00\n      swap1\n      sload\n      swap1\n      0x0100\n      exp\n      swap1\n      div\n      0xff\n      and\n      swap1\n      dup1\n      0x00\n      add\n      0x01\n      swap1\n      sload\n      swap1\n      0x0100\n      exp\n      swap1\n      div\n      0xffffffffffffffffffffffffffffffffffffffff\n      and\n      swap1\n      dup1\n      0x00\n      add\n      0x15\n      swap1\n      sload\n      swap1\n      0x0100\n      exp\n      swap1\n      div\n      0xff\n      and\n      swap1\n      pop\n      dup4\n      jump\t// out\n        /* \"contracts/BusinessConsensus.sol\":1889:2077  function getParameters() public view returns (string memory, uint , address ,uint ,uint){... */\n    tag_67:\n        /* \"contracts/BusinessConsensus.sol\":1935:1948  string memory */\n      0x60\n        /* \"contracts/BusinessConsensus.sol\":1950:1954  uint */\n      0x00\n        /* \"contracts/BusinessConsensus.sol\":1957:1964  address */\n      dup1\n        /* \"contracts/BusinessConsensus.sol\":1966:1970  uint */\n      0x00\n        /* \"contracts/BusinessConsensus.sol\":1972:1976  uint */\n      dup1\n        /* \"contracts/BusinessConsensus.sol\":1996:2004  proposal */\n      0x0a\n        /* \"contracts/BusinessConsensus.sol\":1996:2014  proposal.messageID */\n      0x01\n      add\n        /* \"contracts/BusinessConsensus.sol\":2015:2025  expiryDate */\n      sload(0x01)\n        /* \"contracts/BusinessConsensus.sol\":2026:2035  initiator */\n      0x03\n      0x00\n      swap1\n      sload\n      swap1\n      0x0100\n      exp\n      swap1\n      div\n      0xffffffffffffffffffffffffffffffffffffffff\n      and\n        /* \"contracts/BusinessConsensus.sol\":2036:2055  BusinessRequirement */\n      sload(0x04)\n        /* \"contracts/BusinessConsensus.sol\":2056:2068  numApprovals */\n      sload(0x06)\n        /* \"contracts/BusinessConsensus.sol\":1988:2069  return (proposal.messageID,expiryDate,initiator,BusinessRequirement,numApprovals) */\n      dup5\n      dup1\n      sload\n      tag_158\n      swap1\n      tag_102\n      jump\t// in\n    tag_158:\n      dup1\n      0x1f\n      add\n      0x20\n      dup1\n      swap2\n      div\n      mul\n      0x20\n      add\n      mload(0x40)\n      swap1\n      dup2\n      add\n      0x40\n      mstore\n      dup1\n      swap3\n      swap2\n      swap1\n      dup2\n      dup2\n      mstore\n      0x20\n      add\n      dup3\n      dup1\n      sload\n      tag_159\n      swap1\n      tag_102\n      jump\t// in\n    tag_159:\n      dup1\n      iszero\n      tag_160\n      jumpi\n      dup1\n      0x1f\n      lt\n      tag_161\n      jumpi\n      0x0100\n      dup1\n      dup4\n      sload\n      div\n      mul\n      dup4\n      mstore\n      swap2\n      0x20\n      add\n      swap2\n      jump(tag_160)\n    tag_161:\n      dup3\n      add\n      swap2\n      swap1\n      0x00\n      mstore\n      keccak256(0x00, 0x20)\n      swap1\n    tag_162:\n      dup2\n      sload\n      dup2\n      mstore\n      swap1\n      0x01\n      add\n      swap1\n      0x20\n      add\n      dup1\n      dup4\n      gt\n      tag_162\n      jumpi\n      dup3\n      swap1\n      sub\n      0x1f\n      and\n      dup3\n      add\n      swap2\n    tag_160:\n      pop\n      pop\n      pop\n      pop\n      pop\n      swap5\n      pop\n      swap5\n      pop\n      swap5\n      pop\n      swap5\n      pop\n      swap5\n      pop\n      swap5\n      pop\n        /* \"contracts/BusinessConsensus.sol\":1889:2077  function getParameters() public view returns (string memory, uint , address ,uint ,uint){... */\n      swap1\n      swap2\n      swap3\n      swap4\n      swap5\n      jump\t// out\n        /* \"contracts/BusinessConsensus.sol\":897:928  uint public BusinessRequirement */\n    tag_71:\n      sload(0x04)\n      dup2\n      jump\t// out\n        /* \"contracts/BusinessConsensus.sol\":1008:1029  Voter[] public voters */\n    tag_75:\n      0x07\n      dup2\n      dup2\n      sload\n      dup2\n      lt\n      tag_163\n      jumpi\n      0x00\n      dup1\n      revert\n    tag_163:\n      swap1\n      0x00\n      mstore\n      keccak256(0x00, 0x20)\n      add\n      0x00\n      swap2\n      pop\n      swap1\n      pop\n      dup1\n      0x00\n      add\n      0x00\n      swap1\n      sload\n      swap1\n      0x0100\n      exp\n      swap1\n      div\n      0xff\n      and\n      swap1\n      dup1\n      0x00\n      add\n      0x01\n      swap1\n      sload\n      swap1\n      0x0100\n      exp\n      swap1\n      div\n      0xffffffffffffffffffffffffffffffffffffffff\n      and\n      swap1\n      dup1\n      0x00\n      add\n      0x15\n      swap1\n      sload\n      swap1\n      0x0100\n      exp\n      swap1\n      div\n      0xff\n      and\n      swap1\n      pop\n      dup4\n      jump\t// out\n        /* \"contracts/BusinessConsensus.sol\":596:626  address public contractAddress */\n    tag_78:\n      0x00\n      dup1\n      sload\n      swap1\n      0x0100\n      exp\n      swap1\n      div\n      0xffffffffffffffffffffffffffffffffffffffff\n      and\n      dup2\n      jump\t// out\n        /* \"contracts/BusinessConsensus.sol\":4598:4837  function Bundle() public view returns (string memory, Proposal memory, Voter[] memory){... */\n    tag_81:\n        /* \"contracts/BusinessConsensus.sol\":4637:4650  string memory */\n      0x60\n        /* \"contracts/BusinessConsensus.sol\":4652:4667  Proposal memory */\n      tag_165\n      tag_166\n      jump\t// in\n    tag_165:\n        /* \"contracts/BusinessConsensus.sol\":4669:4683  Voter[] memory */\n      0x60\n        /* \"contracts/BusinessConsensus.sol\":4722:4732  expiryDate */\n      sload(0x01)\n        /* \"contracts/BusinessConsensus.sol\":4703:4718  block.timestamp */\n      timestamp\n        /* \"contracts/BusinessConsensus.sol\":4703:4732  block.timestamp >= expiryDate */\n      lt\n      iszero\n        /* \"contracts/BusinessConsensus.sol\":4695:4769  require(block.timestamp >= expiryDate, \"Verdict has not been reached yet\") */\n      tag_168\n      jumpi\n      mload(0x40)\n      0x08c379a000000000000000000000000000000000000000000000000000000000\n      dup2\n      mstore\n      0x04\n      add\n      tag_169\n      swap1\n      tag_135\n      jump\t// in\n    tag_169:\n      mload(0x40)\n      dup1\n      swap2\n      sub\n      swap1\n      revert\n    tag_168:\n        /* \"contracts/BusinessConsensus.sol\":4788:4800  finalVerdict */\n      0x02\n        /* \"contracts/BusinessConsensus.sol\":4802:4810  proposal */\n      0x0a\n        /* \"contracts/BusinessConsensus.sol\":4812:4818  voters */\n      0x07\n        /* \"contracts/BusinessConsensus.sol\":4780:4819  return (finalVerdict, proposal, voters) */\n      dup3\n      dup1\n      sload\n      tag_170\n      swap1\n      tag_102\n      jump\t// in\n    tag_170:\n      dup1\n      0x1f\n      add\n      0x20\n      dup1\n      swap2\n      div\n      mul\n      0x20\n      add\n      mload(0x40)\n      swap1\n      dup2\n      add\n      0x40\n      mstore\n      dup1\n      swap3\n      swap2\n      swap1\n      dup2\n      dup2\n      mstore\n      0x20\n      add\n      dup3\n      dup1\n      sload\n      tag_171\n      swap1\n      tag_102\n      jump\t// in\n    tag_171:\n      dup1\n      iszero\n      tag_172\n      jumpi\n      dup1\n      0x1f\n      lt\n      tag_173\n      jumpi\n      0x0100\n      dup1\n      dup4\n      sload\n      div\n      mul\n      dup4\n      mstore\n      swap2\n      0x20\n      add\n      swap2\n      jump(tag_172)\n    tag_173:\n      dup3\n      add\n      swap2\n      swap1\n      0x00\n      mstore\n      keccak256(0x00, 0x20)\n      swap1\n    tag_174:\n      dup2\n      sload\n      dup2\n      mstore\n      swap1\n      0x01\n      add\n      swap1\n      0x20\n      add\n      dup1\n      dup4\n      gt\n      tag_174\n      jumpi\n      dup3\n      swap1\n      sub\n      0x1f\n      and\n      dup3\n      add\n      swap2\n    tag_172:\n      pop\n      pop\n      pop\n      pop\n      pop\n      swap3\n      pop\n      dup2\n      mload(0x40)\n      dup1\n      0x40\n      add\n      0x40\n      mstore\n      swap1\n      dup2\n      0x00\n      dup3\n      add\n      sload\n      dup2\n      mstore\n      0x20\n      add\n      0x01\n      dup3\n      add\n      dup1\n      sload\n      tag_175\n      swap1\n      tag_102\n      jump\t// in\n    tag_175:\n      dup1\n      0x1f\n      add\n      0x20\n      dup1\n      swap2\n      div\n      mul\n      0x20\n      add\n      mload(0x40)\n      swap1\n      dup2\n      add\n      0x40\n      mstore\n      dup1\n      swap3\n      swap2\n      swap1\n      dup2\n      dup2\n      mstore\n      0x20\n      add\n      dup3\n      dup1\n      sload\n      tag_176\n      swap1\n      tag_102\n      jump\t// in\n    tag_176:\n      dup1\n      iszero\n      tag_177\n      jumpi\n      dup1\n      0x1f\n      lt\n      tag_178\n      jumpi\n      0x0100\n      dup1\n      dup4\n      sload\n      div\n      mul\n      dup4\n      mstore\n      swap2\n      0x20\n      add\n      swap2\n      jump(tag_177)\n    tag_178:\n      dup3\n      add\n      swap2\n      swap1\n      0x00\n      mstore\n      keccak256(0x00, 0x20)\n      swap1\n    tag_179:\n      dup2\n      sload\n      dup2\n      mstore\n      swap1\n      0x01\n      add\n      swap1\n      0x20\n      add\n      dup1\n      dup4\n      gt\n      tag_179\n      jumpi\n      dup3\n      swap1\n      sub\n      0x1f\n      and\n      dup3\n      add\n      swap2\n    tag_177:\n      pop\n      pop\n      pop\n      pop\n      pop\n      dup2\n      mstore\n      pop\n      pop\n      swap2\n      pop\n      dup1\n      dup1\n      sload\n      dup1\n      0x20\n      mul\n      0x20\n      add\n      mload(0x40)\n      swap1\n      dup2\n      add\n      0x40\n      mstore\n      dup1\n      swap3\n      swap2\n      swap1\n      dup2\n      dup2\n      mstore\n      0x20\n      add\n      0x00\n      swap1\n    tag_180:\n      dup3\n      dup3\n      lt\n      iszero\n      tag_181\n      jumpi\n      dup4\n      dup3\n      swap1\n      0x00\n      mstore\n      keccak256(0x00, 0x20)\n      add\n      mload(0x40)\n      dup1\n      0x60\n      add\n      0x40\n      mstore\n      swap1\n      dup2\n      0x00\n      dup3\n      add\n      0x00\n      swap1\n      sload\n      swap1\n      0x0100\n      exp\n      swap1\n      div\n      0xff\n      and\n      iszero\n      iszero\n      iszero\n      iszero\n      dup2\n      mstore\n      0x20\n      add\n      0x00\n      dup3\n      add\n      0x01\n      swap1\n      sload\n      swap1\n      0x0100\n      exp\n      swap1\n      div\n      0xffffffffffffffffffffffffffffffffffffffff\n      and\n      0xffffffffffffffffffffffffffffffffffffffff\n      and\n      0xffffffffffffffffffffffffffffffffffffffff\n      and\n      dup2\n      mstore\n      0x20\n      add\n      0x00\n      dup3\n      add\n      0x15\n      swap1\n      sload\n      swap1\n      0x0100\n      exp\n      swap1\n      div\n      0xff\n      and\n      iszero\n      iszero\n      iszero\n      iszero\n      dup2\n      mstore\n      pop\n      pop\n      dup2\n      mstore\n      0x20\n      add\n      swap1\n      0x01\n      add\n      swap1\n      jump(tag_180)\n    tag_181:\n      pop\n      pop\n      pop\n      pop\n      swap1\n      pop\n      swap3\n      pop\n      swap3\n      pop\n      swap3\n      pop\n        /* \"contracts/BusinessConsensus.sol\":4598:4837  function Bundle() public view returns (string memory, Proposal memory, Voter[] memory){... */\n      swap1\n      swap2\n      swap3\n      jump\t// out\n    tag_166:\n      mload(0x40)\n      dup1\n      0x40\n      add\n      0x40\n      mstore\n      dup1\n      0x00\n      dup2\n      mstore\n      0x20\n      add\n      0x60\n      dup2\n      mstore\n      pop\n      swap1\n      jump\t// out\n        /* \"#utility.yul\":7:82   */\n    tag_183:\n        /* \"#utility.yul\":40:46   */\n      0x00\n        /* \"#utility.yul\":73:75   */\n      0x40\n        /* \"#utility.yul\":67:76   */\n      mload\n        /* \"#utility.yul\":57:76   */\n      swap1\n      pop\n        /* \"#utility.yul\":7:82   */\n      swap1\n      jump\t// out\n        /* \"#utility.yul\":88:205   */\n    tag_184:\n        /* \"#utility.yul\":197:198   */\n      0x00\n        /* \"#utility.yul\":194:195   */\n      dup1\n        /* \"#utility.yul\":187:199   */\n      revert\n        /* \"#utility.yul\":211:328   */\n    tag_185:\n        /* \"#utility.yul\":320:321   */\n      0x00\n        /* \"#utility.yul\":317:318   */\n      dup1\n        /* \"#utility.yul\":310:322   */\n      revert\n        /* \"#utility.yul\":334:411   */\n    tag_186:\n        /* \"#utility.yul\":371:378   */\n      0x00\n        /* \"#utility.yul\":400:405   */\n      dup2\n        /* \"#utility.yul\":389:405   */\n      swap1\n      pop\n        /* \"#utility.yul\":334:411   */\n      swap2\n      swap1\n      pop\n      jump\t// out\n        /* \"#utility.yul\":417:539   */\n    tag_187:\n        /* \"#utility.yul\":490:514   */\n      tag_265\n        /* \"#utility.yul\":508:513   */\n      dup2\n        /* \"#utility.yul\":490:514   */\n      tag_186\n      jump\t// in\n    tag_265:\n        /* \"#utility.yul\":483:488   */\n      dup2\n        /* \"#utility.yul\":480:515   */\n      eq\n        /* \"#utility.yul\":470:533   */\n      tag_266\n      jumpi\n        /* \"#utility.yul\":529:530   */\n      0x00\n        /* \"#utility.yul\":526:527   */\n      dup1\n        /* \"#utility.yul\":519:531   */\n      revert\n        /* \"#utility.yul\":470:533   */\n    tag_266:\n        /* \"#utility.yul\":417:539   */\n      pop\n      jump\t// out\n        /* \"#utility.yul\":545:684   */\n    tag_188:\n        /* \"#utility.yul\":591:596   */\n      0x00\n        /* \"#utility.yul\":629:635   */\n      dup2\n        /* \"#utility.yul\":616:636   */\n      calldataload\n        /* \"#utility.yul\":607:636   */\n      swap1\n      pop\n        /* \"#utility.yul\":645:678   */\n      tag_268\n        /* \"#utility.yul\":672:677   */\n      dup2\n        /* \"#utility.yul\":645:678   */\n      tag_187\n      jump\t// in\n    tag_268:\n        /* \"#utility.yul\":545:684   */\n      swap3\n      swap2\n      pop\n      pop\n      jump\t// out\n        /* \"#utility.yul\":690:1019   */\n    tag_24:\n        /* \"#utility.yul\":749:755   */\n      0x00\n        /* \"#utility.yul\":798:800   */\n      0x20\n        /* \"#utility.yul\":786:795   */\n      dup3\n        /* \"#utility.yul\":777:784   */\n      dup5\n        /* \"#utility.yul\":773:796   */\n      sub\n        /* \"#utility.yul\":769:801   */\n      slt\n        /* \"#utility.yul\":766:885   */\n      iszero\n      tag_270\n      jumpi\n        /* \"#utility.yul\":804:883   */\n      tag_271\n      tag_184\n      jump\t// in\n    tag_271:\n        /* \"#utility.yul\":766:885   */\n    tag_270:\n        /* \"#utility.yul\":924:925   */\n      0x00\n        /* \"#utility.yul\":949:1002   */\n      tag_272\n        /* \"#utility.yul\":994:1001   */\n      dup5\n        /* \"#utility.yul\":985:991   */\n      dup3\n        /* \"#utility.yul\":974:983   */\n      dup6\n        /* \"#utility.yul\":970:992   */\n      add\n        /* \"#utility.yul\":949:1002   */\n      tag_188\n      jump\t// in\n    tag_272:\n        /* \"#utility.yul\":939:1002   */\n      swap2\n      pop\n        /* \"#utility.yul\":895:1012   */\n      pop\n        /* \"#utility.yul\":690:1019   */\n      swap3\n      swap2\n      pop\n      pop\n      jump\t// out\n        /* \"#utility.yul\":1025:1151   */\n    tag_189:\n        /* \"#utility.yul\":1062:1069   */\n      0x00\n        /* \"#utility.yul\":1102:1144   */\n      0xffffffffffffffffffffffffffffffffffffffff\n        /* \"#utility.yul\":1095:1100   */\n      dup3\n        /* \"#utility.yul\":1091:1145   */\n      and\n        /* \"#utility.yul\":1080:1145   */\n      swap1\n      pop\n        /* \"#utility.yul\":1025:1151   */\n      swap2\n      swap1\n      pop\n      jump\t// out\n        /* \"#utility.yul\":1157:1253   */\n    tag_190:\n        /* \"#utility.yul\":1194:1201   */\n      0x00\n        /* \"#utility.yul\":1223:1247   */\n      tag_275\n        /* \"#utility.yul\":1241:1246   */\n      dup3\n        /* \"#utility.yul\":1223:1247   */\n      tag_189\n      jump\t// in\n    tag_275:\n        /* \"#utility.yul\":1212:1247   */\n      swap1\n      pop\n        /* \"#utility.yul\":1157:1253   */\n      swap2\n      swap1\n      pop\n      jump\t// out\n        /* \"#utility.yul\":1259:1377   */\n    tag_191:\n        /* \"#utility.yul\":1346:1370   */\n      tag_277\n        /* \"#utility.yul\":1364:1369   */\n      dup2\n        /* \"#utility.yul\":1346:1370   */\n      tag_190\n      jump\t// in\n    tag_277:\n        /* \"#utility.yul\":1341:1344   */\n      dup3\n        /* \"#utility.yul\":1334:1371   */\n      mstore\n        /* \"#utility.yul\":1259:1377   */\n      pop\n      pop\n      jump\t// out\n        /* \"#utility.yul\":1383:1605   */\n    tag_27:\n        /* \"#utility.yul\":1476:1480   */\n      0x00\n        /* \"#utility.yul\":1514:1516   */\n      0x20\n        /* \"#utility.yul\":1503:1512   */\n      dup3\n        /* \"#utility.yul\":1499:1517   */\n      add\n        /* \"#utility.yul\":1491:1517   */\n      swap1\n      pop\n        /* \"#utility.yul\":1527:1598   */\n      tag_279\n        /* \"#utility.yul\":1595:1596   */\n      0x00\n        /* \"#utility.yul\":1584:1593   */\n      dup4\n        /* \"#utility.yul\":1580:1597   */\n      add\n        /* \"#utility.yul\":1571:1577   */\n      dup5\n        /* \"#utility.yul\":1527:1598   */\n      tag_191\n      jump\t// in\n    tag_279:\n        /* \"#utility.yul\":1383:1605   */\n      swap3\n      swap2\n      pop\n      pop\n      jump\t// out\n        /* \"#utility.yul\":1611:1733   */\n    tag_192:\n        /* \"#utility.yul\":1684:1708   */\n      tag_281\n        /* \"#utility.yul\":1702:1707   */\n      dup2\n        /* \"#utility.yul\":1684:1708   */\n      tag_190\n      jump\t// in\n    tag_281:\n        /* \"#utility.yul\":1677:1682   */\n      dup2\n        /* \"#utility.yul\":1674:1709   */\n      eq\n        /* \"#utility.yul\":1664:1727   */\n      tag_282\n      jumpi\n        /* \"#utility.yul\":1723:1724   */\n      0x00\n        /* \"#utility.yul\":1720:1721   */\n      dup1\n        /* \"#utility.yul\":1713:1725   */\n      revert\n        /* \"#utility.yul\":1664:1727   */\n    tag_282:\n        /* \"#utility.yul\":1611:1733   */\n      pop\n      jump\t// out\n        /* \"#utility.yul\":1739:1878   */\n    tag_193:\n        /* \"#utility.yul\":1785:1790   */\n      0x00\n        /* \"#utility.yul\":1823:1829   */\n      dup2\n        /* \"#utility.yul\":1810:1830   */\n      calldataload\n        /* \"#utility.yul\":1801:1830   */\n      swap1\n      pop\n        /* \"#utility.yul\":1839:1872   */\n      tag_284\n        /* \"#utility.yul\":1866:1871   */\n      dup2\n        /* \"#utility.yul\":1839:1872   */\n      tag_192\n      jump\t// in\n    tag_284:\n        /* \"#utility.yul\":1739:1878   */\n      swap3\n      swap2\n      pop\n      pop\n      jump\t// out\n        /* \"#utility.yul\":1884:2213   */\n    tag_30:\n        /* \"#utility.yul\":1943:1949   */\n      0x00\n        /* \"#utility.yul\":1992:1994   */\n      0x20\n        /* \"#utility.yul\":1980:1989   */\n      dup3\n        /* \"#utility.yul\":1971:1978   */\n      dup5\n        /* \"#utility.yul\":1967:1990   */\n      sub\n        /* \"#utility.yul\":1963:1995   */\n      slt\n        /* \"#utility.yul\":1960:2079   */\n      iszero\n      tag_286\n      jumpi\n        /* \"#utility.yul\":1998:2077   */\n      tag_287\n      tag_184\n      jump\t// in\n    tag_287:\n        /* \"#utility.yul\":1960:2079   */\n    tag_286:\n        /* \"#utility.yul\":2118:2119   */\n      0x00\n        /* \"#utility.yul\":2143:2196   */\n      tag_288\n        /* \"#utility.yul\":2188:2195   */\n      dup5\n        /* \"#utility.yul\":2179:2185   */\n      dup3\n        /* \"#utility.yul\":2168:2177   */\n      dup6\n        /* \"#utility.yul\":2164:2186   */\n      add\n        /* \"#utility.yul\":2143:2196   */\n      tag_193\n      jump\t// in\n    tag_288:\n        /* \"#utility.yul\":2133:2196   */\n      swap2\n      pop\n        /* \"#utility.yul\":2089:2206   */\n      pop\n        /* \"#utility.yul\":1884:2213   */\n      swap3\n      swap2\n      pop\n      pop\n      jump\t// out\n        /* \"#utility.yul\":2219:2318   */\n    tag_194:\n        /* \"#utility.yul\":2271:2277   */\n      0x00\n        /* \"#utility.yul\":2305:2310   */\n      dup2\n        /* \"#utility.yul\":2299:2311   */\n      mload\n        /* \"#utility.yul\":2289:2311   */\n      swap1\n      pop\n        /* \"#utility.yul\":2219:2318   */\n      swap2\n      swap1\n      pop\n      jump\t// out\n        /* \"#utility.yul\":2324:2493   */\n    tag_195:\n        /* \"#utility.yul\":2408:2419   */\n      0x00\n        /* \"#utility.yul\":2442:2448   */\n      dup3\n        /* \"#utility.yul\":2437:2440   */\n      dup3\n        /* \"#utility.yul\":2430:2449   */\n      mstore\n        /* \"#utility.yul\":2482:2486   */\n      0x20\n        /* \"#utility.yul\":2477:2480   */\n      dup3\n        /* \"#utility.yul\":2473:2487   */\n      add\n        /* \"#utility.yul\":2458:2487   */\n      swap1\n      pop\n        /* \"#utility.yul\":2324:2493   */\n      swap3\n      swap2\n      pop\n      pop\n      jump\t// out\n        /* \"#utility.yul\":2499:2806   */\n    tag_196:\n        /* \"#utility.yul\":2567:2568   */\n      0x00\n        /* \"#utility.yul\":2577:2690   */\n    tag_292:\n        /* \"#utility.yul\":2591:2597   */\n      dup4\n        /* \"#utility.yul\":2588:2589   */\n      dup2\n        /* \"#utility.yul\":2585:2598   */\n      lt\n        /* \"#utility.yul\":2577:2690   */\n      iszero\n      tag_294\n      jumpi\n        /* \"#utility.yul\":2676:2677   */\n      dup1\n        /* \"#utility.yul\":2671:2674   */\n      dup3\n        /* \"#utility.yul\":2667:2678   */\n      add\n        /* \"#utility.yul\":2661:2679   */\n      mload\n        /* \"#utility.yul\":2657:2658   */\n      dup2\n        /* \"#utility.yul\":2652:2655   */\n      dup5\n        /* \"#utility.yul\":2648:2659   */\n      add\n        /* \"#utility.yul\":2641:2680   */\n      mstore\n        /* \"#utility.yul\":2613:2615   */\n      0x20\n        /* \"#utility.yul\":2610:2611   */\n      dup2\n        /* \"#utility.yul\":2606:2616   */\n      add\n        /* \"#utility.yul\":2601:2616   */\n      swap1\n      pop\n        /* \"#utility.yul\":2577:2690   */\n      jump(tag_292)\n    tag_294:\n        /* \"#utility.yul\":2708:2714   */\n      dup4\n        /* \"#utility.yul\":2705:2706   */\n      dup2\n        /* \"#utility.yul\":2702:2715   */\n      gt\n        /* \"#utility.yul\":2699:2800   */\n      iszero\n      tag_295\n      jumpi\n        /* \"#utility.yul\":2788:2789   */\n      0x00\n        /* \"#utility.yul\":2779:2785   */\n      dup5\n        /* \"#utility.yul\":2774:2777   */\n      dup5\n        /* \"#utility.yul\":2770:2786   */\n      add\n        /* \"#utility.yul\":2763:2790   */\n      mstore\n        /* \"#utility.yul\":2699:2800   */\n    tag_295:\n        /* \"#utility.yul\":2548:2806   */\n      pop\n        /* \"#utility.yul\":2499:2806   */\n      pop\n      pop\n      pop\n      jump\t// out\n        /* \"#utility.yul\":2812:2914   */\n    tag_197:\n        /* \"#utility.yul\":2853:2859   */\n      0x00\n        /* \"#utility.yul\":2904:2906   */\n      0x1f\n        /* \"#utility.yul\":2900:2907   */\n      not\n        /* \"#utility.yul\":2895:2897   */\n      0x1f\n        /* \"#utility.yul\":2888:2893   */\n      dup4\n        /* \"#utility.yul\":2884:2898   */\n      add\n        /* \"#utility.yul\":2880:2908   */\n      and\n        /* \"#utility.yul\":2870:2908   */\n      swap1\n      pop\n        /* \"#utility.yul\":2812:2914   */\n      swap2\n      swap1\n      pop\n      jump\t// out\n        /* \"#utility.yul\":2920:3284   */\n    tag_198:\n        /* \"#utility.yul\":3008:3011   */\n      0x00\n        /* \"#utility.yul\":3036:3075   */\n      tag_298\n        /* \"#utility.yul\":3069:3074   */\n      dup3\n        /* \"#utility.yul\":3036:3075   */\n      tag_194\n      jump\t// in\n    tag_298:\n        /* \"#utility.yul\":3091:3162   */\n      tag_299\n        /* \"#utility.yul\":3155:3161   */\n      dup2\n        /* \"#utility.yul\":3150:3153   */\n      dup6\n        /* \"#utility.yul\":3091:3162   */\n      tag_195\n      jump\t// in\n    tag_299:\n        /* \"#utility.yul\":3084:3162   */\n      swap4\n      pop\n        /* \"#utility.yul\":3171:3223   */\n      tag_300\n        /* \"#utility.yul\":3216:3222   */\n      dup2\n        /* \"#utility.yul\":3211:3214   */\n      dup6\n        /* \"#utility.yul\":3204:3208   */\n      0x20\n        /* \"#utility.yul\":3197:3202   */\n      dup7\n        /* \"#utility.yul\":3193:3209   */\n      add\n        /* \"#utility.yul\":3171:3223   */\n      tag_196\n      jump\t// in\n    tag_300:\n        /* \"#utility.yul\":3248:3277   */\n      tag_301\n        /* \"#utility.yul\":3270:3276   */\n      dup2\n        /* \"#utility.yul\":3248:3277   */\n      tag_197\n      jump\t// in\n    tag_301:\n        /* \"#utility.yul\":3243:3246   */\n      dup5\n        /* \"#utility.yul\":3239:3278   */\n      add\n        /* \"#utility.yul\":3232:3278   */\n      swap2\n      pop\n        /* \"#utility.yul\":3012:3284   */\n      pop\n        /* \"#utility.yul\":2920:3284   */\n      swap3\n      swap2\n      pop\n      pop\n      jump\t// out\n        /* \"#utility.yul\":3290:3603   */\n    tag_35:\n        /* \"#utility.yul\":3403:3407   */\n      0x00\n        /* \"#utility.yul\":3441:3443   */\n      0x20\n        /* \"#utility.yul\":3430:3439   */\n      dup3\n        /* \"#utility.yul\":3426:3444   */\n      add\n        /* \"#utility.yul\":3418:3444   */\n      swap1\n      pop\n        /* \"#utility.yul\":3490:3499   */\n      dup2\n        /* \"#utility.yul\":3484:3488   */\n      dup2\n        /* \"#utility.yul\":3480:3500   */\n      sub\n        /* \"#utility.yul\":3476:3477   */\n      0x00\n        /* \"#utility.yul\":3465:3474   */\n      dup4\n        /* \"#utility.yul\":3461:3478   */\n      add\n        /* \"#utility.yul\":3454:3501   */\n      mstore\n        /* \"#utility.yul\":3518:3596   */\n      tag_303\n        /* \"#utility.yul\":3591:3595   */\n      dup2\n        /* \"#utility.yul\":3582:3588   */\n      dup5\n        /* \"#utility.yul\":3518:3596   */\n      tag_198\n      jump\t// in\n    tag_303:\n        /* \"#utility.yul\":3510:3596   */\n      swap1\n      pop\n        /* \"#utility.yul\":3290:3603   */\n      swap3\n      swap2\n      pop\n      pop\n      jump\t// out\n        /* \"#utility.yul\":3609:3726   */\n    tag_199:\n        /* \"#utility.yul\":3718:3719   */\n      0x00\n        /* \"#utility.yul\":3715:3716   */\n      dup1\n        /* \"#utility.yul\":3708:3720   */\n      revert\n        /* \"#utility.yul\":3732:3849   */\n    tag_200:\n        /* \"#utility.yul\":3841:3842   */\n      0x00\n        /* \"#utility.yul\":3838:3839   */\n      dup1\n        /* \"#utility.yul\":3831:3843   */\n      revert\n        /* \"#utility.yul\":3855:4035   */\n    tag_201:\n        /* \"#utility.yul\":3903:3980   */\n      0x4e487b7100000000000000000000000000000000000000000000000000000000\n        /* \"#utility.yul\":3900:3901   */\n      0x00\n        /* \"#utility.yul\":3893:3981   */\n      mstore\n        /* \"#utility.yul\":4000:4004   */\n      0x41\n        /* \"#utility.yul\":3997:3998   */\n      0x04\n        /* \"#utility.yul\":3990:4005   */\n      mstore\n        /* \"#utility.yul\":4024:4028   */\n      0x24\n        /* \"#utility.yul\":4021:4022   */\n      0x00\n        /* \"#utility.yul\":4014:4029   */\n      revert\n        /* \"#utility.yul\":4041:4322   */\n    tag_202:\n        /* \"#utility.yul\":4124:4151   */\n      tag_308\n        /* \"#utility.yul\":4146:4150   */\n      dup3\n        /* \"#utility.yul\":4124:4151   */\n      tag_197\n      jump\t// in\n    tag_308:\n        /* \"#utility.yul\":4116:4122   */\n      dup2\n        /* \"#utility.yul\":4112:4152   */\n      add\n        /* \"#utility.yul\":4254:4260   */\n      dup2\n        /* \"#utility.yul\":4242:4252   */\n      dup2\n        /* \"#utility.yul\":4239:4261   */\n      lt\n        /* \"#utility.yul\":4218:4236   */\n      0xffffffffffffffff\n        /* \"#utility.yul\":4206:4216   */\n      dup3\n        /* \"#utility.yul\":4203:4237   */\n      gt\n        /* \"#utility.yul\":4200:4262   */\n      or\n        /* \"#utility.yul\":4197:4285   */\n      iszero\n      tag_309\n      jumpi\n        /* \"#utility.yul\":4265:4283   */\n      tag_310\n      tag_201\n      jump\t// in\n    tag_310:\n        /* \"#utility.yul\":4197:4285   */\n    tag_309:\n        /* \"#utility.yul\":4305:4315   */\n      dup1\n        /* \"#utility.yul\":4301:4303   */\n      0x40\n        /* \"#utility.yul\":4294:4316   */\n      mstore\n        /* \"#utility.yul\":4084:4322   */\n      pop\n        /* \"#utility.yul\":4041:4322   */\n      pop\n      pop\n      jump\t// out\n        /* \"#utility.yul\":4328:4457   */\n    tag_203:\n        /* \"#utility.yul\":4362:4368   */\n      0x00\n        /* \"#utility.yul\":4389:4409   */\n      tag_312\n      tag_183\n      jump\t// in\n    tag_312:\n        /* \"#utility.yul\":4379:4409   */\n      swap1\n      pop\n        /* \"#utility.yul\":4418:4451   */\n      tag_313\n        /* \"#utility.yul\":4446:4450   */\n      dup3\n        /* \"#utility.yul\":4438:4444   */\n      dup3\n        /* \"#utility.yul\":4418:4451   */\n      tag_202\n      jump\t// in\n    tag_313:\n        /* \"#utility.yul\":4328:4457   */\n      swap2\n      swap1\n      pop\n      jump\t// out\n        /* \"#utility.yul\":4463:4771   */\n    tag_204:\n        /* \"#utility.yul\":4525:4529   */\n      0x00\n        /* \"#utility.yul\":4615:4633   */\n      0xffffffffffffffff\n        /* \"#utility.yul\":4607:4613   */\n      dup3\n        /* \"#utility.yul\":4604:4634   */\n      gt\n        /* \"#utility.yul\":4601:4657   */\n      iszero\n      tag_315\n      jumpi\n        /* \"#utility.yul\":4637:4655   */\n      tag_316\n      tag_201\n      jump\t// in\n    tag_316:\n        /* \"#utility.yul\":4601:4657   */\n    tag_315:\n        /* \"#utility.yul\":4675:4704   */\n      tag_317\n        /* \"#utility.yul\":4697:4703   */\n      dup3\n        /* \"#utility.yul\":4675:4704   */\n      tag_197\n      jump\t// in\n    tag_317:\n        /* \"#utility.yul\":4667:4704   */\n      swap1\n      pop\n        /* \"#utility.yul\":4759:4763   */\n      0x20\n        /* \"#utility.yul\":4753:4757   */\n      dup2\n        /* \"#utility.yul\":4749:4764   */\n      add\n        /* \"#utility.yul\":4741:4764   */\n      swap1\n      pop\n        /* \"#utility.yul\":4463:4771   */\n      swap2\n      swap1\n      pop\n      jump\t// out\n        /* \"#utility.yul\":4777:4931   */\n    tag_205:\n        /* \"#utility.yul\":4861:4867   */\n      dup3\n        /* \"#utility.yul\":4856:4859   */\n      dup2\n        /* \"#utility.yul\":4851:4854   */\n      dup4\n        /* \"#utility.yul\":4838:4868   */\n      calldatacopy\n        /* \"#utility.yul\":4923:4924   */\n      0x00\n        /* \"#utility.yul\":4914:4920   */\n      dup4\n        /* \"#utility.yul\":4909:4912   */\n      dup4\n        /* \"#utility.yul\":4905:4921   */\n      add\n        /* \"#utility.yul\":4898:4925   */\n      mstore\n        /* \"#utility.yul\":4777:4931   */\n      pop\n      pop\n      pop\n      jump\t// out\n        /* \"#utility.yul\":4937:5349   */\n    tag_206:\n        /* \"#utility.yul\":5015:5020   */\n      0x00\n        /* \"#utility.yul\":5040:5106   */\n      tag_320\n        /* \"#utility.yul\":5056:5105   */\n      tag_321\n        /* \"#utility.yul\":5098:5104   */\n      dup5\n        /* \"#utility.yul\":5056:5105   */\n      tag_204\n      jump\t// in\n    tag_321:\n        /* \"#utility.yul\":5040:5106   */\n      tag_203\n      jump\t// in\n    tag_320:\n        /* \"#utility.yul\":5031:5106   */\n      swap1\n      pop\n        /* \"#utility.yul\":5129:5135   */\n      dup3\n        /* \"#utility.yul\":5122:5127   */\n      dup2\n        /* \"#utility.yul\":5115:5136   */\n      mstore\n        /* \"#utility.yul\":5167:5171   */\n      0x20\n        /* \"#utility.yul\":5160:5165   */\n      dup2\n        /* \"#utility.yul\":5156:5172   */\n      add\n        /* \"#utility.yul\":5205:5208   */\n      dup5\n        /* \"#utility.yul\":5196:5202   */\n      dup5\n        /* \"#utility.yul\":5191:5194   */\n      dup5\n        /* \"#utility.yul\":5187:5203   */\n      add\n        /* \"#utility.yul\":5184:5209   */\n      gt\n        /* \"#utility.yul\":5181:5293   */\n      iszero\n      tag_322\n      jumpi\n        /* \"#utility.yul\":5212:5291   */\n      tag_323\n      tag_200\n      jump\t// in\n    tag_323:\n        /* \"#utility.yul\":5181:5293   */\n    tag_322:\n        /* \"#utility.yul\":5302:5343   */\n      tag_324\n        /* \"#utility.yul\":5336:5342   */\n      dup5\n        /* \"#utility.yul\":5331:5334   */\n      dup3\n        /* \"#utility.yul\":5326:5329   */\n      dup6\n        /* \"#utility.yul\":5302:5343   */\n      tag_205\n      jump\t// in\n    tag_324:\n        /* \"#utility.yul\":5021:5349   */\n      pop\n        /* \"#utility.yul\":4937:5349   */\n      swap4\n      swap3\n      pop\n      pop\n      pop\n      jump\t// out\n        /* \"#utility.yul\":5369:5709   */\n    tag_207:\n        /* \"#utility.yul\":5425:5430   */\n      0x00\n        /* \"#utility.yul\":5474:5477   */\n      dup3\n        /* \"#utility.yul\":5467:5471   */\n      0x1f\n        /* \"#utility.yul\":5459:5465   */\n      dup4\n        /* \"#utility.yul\":5455:5472   */\n      add\n        /* \"#utility.yul\":5451:5478   */\n      slt\n        /* \"#utility.yul\":5441:5563   */\n      tag_326\n      jumpi\n        /* \"#utility.yul\":5482:5561   */\n      tag_327\n      tag_199\n      jump\t// in\n    tag_327:\n        /* \"#utility.yul\":5441:5563   */\n    tag_326:\n        /* \"#utility.yul\":5599:5605   */\n      dup2\n        /* \"#utility.yul\":5586:5606   */\n      calldataload\n        /* \"#utility.yul\":5624:5703   */\n      tag_328\n        /* \"#utility.yul\":5699:5702   */\n      dup5\n        /* \"#utility.yul\":5691:5697   */\n      dup3\n        /* \"#utility.yul\":5684:5688   */\n      0x20\n        /* \"#utility.yul\":5676:5682   */\n      dup7\n        /* \"#utility.yul\":5672:5689   */\n      add\n        /* \"#utility.yul\":5624:5703   */\n      tag_206\n      jump\t// in\n    tag_328:\n        /* \"#utility.yul\":5615:5703   */\n      swap2\n      pop\n        /* \"#utility.yul\":5431:5709   */\n      pop\n        /* \"#utility.yul\":5369:5709   */\n      swap3\n      swap2\n      pop\n      pop\n      jump\t// out\n        /* \"#utility.yul\":5715:6224   */\n    tag_38:\n        /* \"#utility.yul\":5784:5790   */\n      0x00\n        /* \"#utility.yul\":5833:5835   */\n      0x20\n        /* \"#utility.yul\":5821:5830   */\n      dup3\n        /* \"#utility.yul\":5812:5819   */\n      dup5\n        /* \"#utility.yul\":5808:5831   */\n      sub\n        /* \"#utility.yul\":5804:5836   */\n      slt\n        /* \"#utility.yul\":5801:5920   */\n      iszero\n      tag_330\n      jumpi\n        /* \"#utility.yul\":5839:5918   */\n      tag_331\n      tag_184\n      jump\t// in\n    tag_331:\n        /* \"#utility.yul\":5801:5920   */\n    tag_330:\n        /* \"#utility.yul\":5987:5988   */\n      0x00\n        /* \"#utility.yul\":5976:5985   */\n      dup3\n        /* \"#utility.yul\":5972:5989   */\n      add\n        /* \"#utility.yul\":5959:5990   */\n      calldataload\n        /* \"#utility.yul\":6017:6035   */\n      0xffffffffffffffff\n        /* \"#utility.yul\":6009:6015   */\n      dup2\n        /* \"#utility.yul\":6006:6036   */\n      gt\n        /* \"#utility.yul\":6003:6120   */\n      iszero\n      tag_332\n      jumpi\n        /* \"#utility.yul\":6039:6118   */\n      tag_333\n      tag_185\n      jump\t// in\n    tag_333:\n        /* \"#utility.yul\":6003:6120   */\n    tag_332:\n        /* \"#utility.yul\":6144:6207   */\n      tag_334\n        /* \"#utility.yul\":6199:6206   */\n      dup5\n        /* \"#utility.yul\":6190:6196   */\n      dup3\n        /* \"#utility.yul\":6179:6188   */\n      dup6\n        /* \"#utility.yul\":6175:6197   */\n      add\n        /* \"#utility.yul\":6144:6207   */\n      tag_207\n      jump\t// in\n    tag_334:\n        /* \"#utility.yul\":6134:6207   */\n      swap2\n      pop\n        /* \"#utility.yul\":5930:6217   */\n      pop\n        /* \"#utility.yul\":5715:6224   */\n      swap3\n      swap2\n      pop\n      pop\n      jump\t// out\n        /* \"#utility.yul\":6230:6320   */\n    tag_208:\n        /* \"#utility.yul\":6264:6271   */\n      0x00\n        /* \"#utility.yul\":6307:6312   */\n      dup2\n        /* \"#utility.yul\":6300:6313   */\n      iszero\n        /* \"#utility.yul\":6293:6314   */\n      iszero\n        /* \"#utility.yul\":6282:6314   */\n      swap1\n      pop\n        /* \"#utility.yul\":6230:6320   */\n      swap2\n      swap1\n      pop\n      jump\t// out\n        /* \"#utility.yul\":6326:6435   */\n    tag_209:\n        /* \"#utility.yul\":6407:6428   */\n      tag_337\n        /* \"#utility.yul\":6422:6427   */\n      dup2\n        /* \"#utility.yul\":6407:6428   */\n      tag_208\n      jump\t// in\n    tag_337:\n        /* \"#utility.yul\":6402:6405   */\n      dup3\n        /* \"#utility.yul\":6395:6429   */\n      mstore\n        /* \"#utility.yul\":6326:6435   */\n      pop\n      pop\n      jump\t// out\n        /* \"#utility.yul\":6441:6859   */\n    tag_44:\n        /* \"#utility.yul\":6578:6582   */\n      0x00\n        /* \"#utility.yul\":6616:6618   */\n      0x60\n        /* \"#utility.yul\":6605:6614   */\n      dup3\n        /* \"#utility.yul\":6601:6619   */\n      add\n        /* \"#utility.yul\":6593:6619   */\n      swap1\n      pop\n        /* \"#utility.yul\":6629:6694   */\n      tag_339\n        /* \"#utility.yul\":6691:6692   */\n      0x00\n        /* \"#utility.yul\":6680:6689   */\n      dup4\n        /* \"#utility.yul\":6676:6693   */\n      add\n        /* \"#utility.yul\":6667:6673   */\n      dup7\n        /* \"#utility.yul\":6629:6694   */\n      tag_209\n      jump\t// in\n    tag_339:\n        /* \"#utility.yul\":6704:6770   */\n      tag_340\n        /* \"#utility.yul\":6766:6768   */\n      0x20\n        /* \"#utility.yul\":6755:6764   */\n      dup4\n        /* \"#utility.yul\":6751:6769   */\n      add\n        /* \"#utility.yul\":6742:6748   */\n      dup6\n        /* \"#utility.yul\":6704:6770   */\n      tag_209\n      jump\t// in\n    tag_340:\n        /* \"#utility.yul\":6780:6852   */\n      tag_341\n        /* \"#utility.yul\":6848:6850   */\n      0x40\n        /* \"#utility.yul\":6837:6846   */\n      dup4\n        /* \"#utility.yul\":6833:6851   */\n      add\n        /* \"#utility.yul\":6824:6830   */\n      dup5\n        /* \"#utility.yul\":6780:6852   */\n      tag_191\n      jump\t// in\n    tag_341:\n        /* \"#utility.yul\":6441:6859   */\n      swap5\n      swap4\n      pop\n      pop\n      pop\n      pop\n      jump\t// out\n        /* \"#utility.yul\":6865:6983   */\n    tag_210:\n        /* \"#utility.yul\":6952:6976   */\n      tag_343\n        /* \"#utility.yul\":6970:6975   */\n      dup2\n        /* \"#utility.yul\":6952:6976   */\n      tag_186\n      jump\t// in\n    tag_343:\n        /* \"#utility.yul\":6947:6950   */\n      dup3\n        /* \"#utility.yul\":6940:6977   */\n      mstore\n        /* \"#utility.yul\":6865:6983   */\n      pop\n      pop\n      jump\t// out\n        /* \"#utility.yul\":6989:7211   */\n    tag_51:\n        /* \"#utility.yul\":7082:7086   */\n      0x00\n        /* \"#utility.yul\":7120:7122   */\n      0x20\n        /* \"#utility.yul\":7109:7118   */\n      dup3\n        /* \"#utility.yul\":7105:7123   */\n      add\n        /* \"#utility.yul\":7097:7123   */\n      swap1\n      pop\n        /* \"#utility.yul\":7133:7204   */\n      tag_345\n        /* \"#utility.yul\":7201:7202   */\n      0x00\n        /* \"#utility.yul\":7190:7199   */\n      dup4\n        /* \"#utility.yul\":7186:7203   */\n      add\n        /* \"#utility.yul\":7177:7183   */\n      dup5\n        /* \"#utility.yul\":7133:7204   */\n      tag_210\n      jump\t// in\n    tag_345:\n        /* \"#utility.yul\":6989:7211   */\n      swap3\n      swap2\n      pop\n      pop\n      jump\t// out\n        /* \"#utility.yul\":7217:7640   */\n    tag_58:\n        /* \"#utility.yul\":7358:7362   */\n      0x00\n        /* \"#utility.yul\":7396:7398   */\n      0x40\n        /* \"#utility.yul\":7385:7394   */\n      dup3\n        /* \"#utility.yul\":7381:7399   */\n      add\n        /* \"#utility.yul\":7373:7399   */\n      swap1\n      pop\n        /* \"#utility.yul\":7409:7480   */\n      tag_347\n        /* \"#utility.yul\":7477:7478   */\n      0x00\n        /* \"#utility.yul\":7466:7475   */\n      dup4\n        /* \"#utility.yul\":7462:7479   */\n      add\n        /* \"#utility.yul\":7453:7459   */\n      dup6\n        /* \"#utility.yul\":7409:7480   */\n      tag_210\n      jump\t// in\n    tag_347:\n        /* \"#utility.yul\":7527:7536   */\n      dup2\n        /* \"#utility.yul\":7521:7525   */\n      dup2\n        /* \"#utility.yul\":7517:7537   */\n      sub\n        /* \"#utility.yul\":7512:7514   */\n      0x20\n        /* \"#utility.yul\":7501:7510   */\n      dup4\n        /* \"#utility.yul\":7497:7515   */\n      add\n        /* \"#utility.yul\":7490:7538   */\n      mstore\n        /* \"#utility.yul\":7555:7633   */\n      tag_348\n        /* \"#utility.yul\":7628:7632   */\n      dup2\n        /* \"#utility.yul\":7619:7625   */\n      dup5\n        /* \"#utility.yul\":7555:7633   */\n      tag_198\n      jump\t// in\n    tag_348:\n        /* \"#utility.yul\":7547:7633   */\n      swap1\n      pop\n        /* \"#utility.yul\":7217:7640   */\n      swap4\n      swap3\n      pop\n      pop\n      pop\n      jump\t// out\n        /* \"#utility.yul\":7646:8064   */\n    tag_65:\n        /* \"#utility.yul\":7783:7787   */\n      0x00\n        /* \"#utility.yul\":7821:7823   */\n      0x60\n        /* \"#utility.yul\":7810:7819   */\n      dup3\n        /* \"#utility.yul\":7806:7824   */\n      add\n        /* \"#utility.yul\":7798:7824   */\n      swap1\n      pop\n        /* \"#utility.yul\":7834:7899   */\n      tag_350\n        /* \"#utility.yul\":7896:7897   */\n      0x00\n        /* \"#utility.yul\":7885:7894   */\n      dup4\n        /* \"#utility.yul\":7881:7898   */\n      add\n        /* \"#utility.yul\":7872:7878   */\n      dup7\n        /* \"#utility.yul\":7834:7899   */\n      tag_209\n      jump\t// in\n    tag_350:\n        /* \"#utility.yul\":7909:7981   */\n      tag_351\n        /* \"#utility.yul\":7977:7979   */\n      0x20\n        /* \"#utility.yul\":7966:7975   */\n      dup4\n        /* \"#utility.yul\":7962:7980   */\n      add\n        /* \"#utility.yul\":7953:7959   */\n      dup6\n        /* \"#utility.yul\":7909:7981   */\n      tag_191\n      jump\t// in\n    tag_351:\n        /* \"#utility.yul\":7991:8057   */\n      tag_352\n        /* \"#utility.yul\":8053:8055   */\n      0x40\n        /* \"#utility.yul\":8042:8051   */\n      dup4\n        /* \"#utility.yul\":8038:8056   */\n      add\n        /* \"#utility.yul\":8029:8035   */\n      dup5\n        /* \"#utility.yul\":7991:8057   */\n      tag_209\n      jump\t// in\n    tag_352:\n        /* \"#utility.yul\":7646:8064   */\n      swap5\n      swap4\n      pop\n      pop\n      pop\n      pop\n      jump\t// out\n        /* \"#utility.yul\":8070:8825   */\n    tag_69:\n        /* \"#utility.yul\":8295:8299   */\n      0x00\n        /* \"#utility.yul\":8333:8336   */\n      0xa0\n        /* \"#utility.yul\":8322:8331   */\n      dup3\n        /* \"#utility.yul\":8318:8337   */\n      add\n        /* \"#utility.yul\":8310:8337   */\n      swap1\n      pop\n        /* \"#utility.yul\":8383:8392   */\n      dup2\n        /* \"#utility.yul\":8377:8381   */\n      dup2\n        /* \"#utility.yul\":8373:8393   */\n      sub\n        /* \"#utility.yul\":8369:8370   */\n      0x00\n        /* \"#utility.yul\":8358:8367   */\n      dup4\n        /* \"#utility.yul\":8354:8371   */\n      add\n        /* \"#utility.yul\":8347:8394   */\n      mstore\n        /* \"#utility.yul\":8411:8489   */\n      tag_354\n        /* \"#utility.yul\":8484:8488   */\n      dup2\n        /* \"#utility.yul\":8475:8481   */\n      dup9\n        /* \"#utility.yul\":8411:8489   */\n      tag_198\n      jump\t// in\n    tag_354:\n        /* \"#utility.yul\":8403:8489   */\n      swap1\n      pop\n        /* \"#utility.yul\":8499:8571   */\n      tag_355\n        /* \"#utility.yul\":8567:8569   */\n      0x20\n        /* \"#utility.yul\":8556:8565   */\n      dup4\n        /* \"#utility.yul\":8552:8570   */\n      add\n        /* \"#utility.yul\":8543:8549   */\n      dup8\n        /* \"#utility.yul\":8499:8571   */\n      tag_210\n      jump\t// in\n    tag_355:\n        /* \"#utility.yul\":8581:8653   */\n      tag_356\n        /* \"#utility.yul\":8649:8651   */\n      0x40\n        /* \"#utility.yul\":8638:8647   */\n      dup4\n        /* \"#utility.yul\":8634:8652   */\n      add\n        /* \"#utility.yul\":8625:8631   */\n      dup7\n        /* \"#utility.yul\":8581:8653   */\n      tag_191\n      jump\t// in\n    tag_356:\n        /* \"#utility.yul\":8663:8735   */\n      tag_357\n        /* \"#utility.yul\":8731:8733   */\n      0x60\n        /* \"#utility.yul\":8720:8729   */\n      dup4\n        /* \"#utility.yul\":8716:8734   */\n      add\n        /* \"#utility.yul\":8707:8713   */\n      dup6\n        /* \"#utility.yul\":8663:8735   */\n      tag_210\n      jump\t// in\n    tag_357:\n        /* \"#utility.yul\":8745:8818   */\n      tag_358\n        /* \"#utility.yul\":8813:8816   */\n      0x80\n        /* \"#utility.yul\":8802:8811   */\n      dup4\n        /* \"#utility.yul\":8798:8817   */\n      add\n        /* \"#utility.yul\":8789:8795   */\n      dup5\n        /* \"#utility.yul\":8745:8818   */\n      tag_210\n      jump\t// in\n    tag_358:\n        /* \"#utility.yul\":8070:8825   */\n      swap7\n      swap6\n      pop\n      pop\n      pop\n      pop\n      pop\n      pop\n      jump\t// out\n        /* \"#utility.yul\":8831:8939   */\n    tag_211:\n        /* \"#utility.yul\":8908:8932   */\n      tag_360\n        /* \"#utility.yul\":8926:8931   */\n      dup2\n        /* \"#utility.yul\":8908:8932   */\n      tag_186\n      jump\t// in\n    tag_360:\n        /* \"#utility.yul\":8903:8906   */\n      dup3\n        /* \"#utility.yul\":8896:8933   */\n      mstore\n        /* \"#utility.yul\":8831:8939   */\n      pop\n      pop\n      jump\t// out\n        /* \"#utility.yul\":8945:9104   */\n    tag_212:\n        /* \"#utility.yul\":9019:9030   */\n      0x00\n        /* \"#utility.yul\":9053:9059   */\n      dup3\n        /* \"#utility.yul\":9048:9051   */\n      dup3\n        /* \"#utility.yul\":9041:9060   */\n      mstore\n        /* \"#utility.yul\":9093:9097   */\n      0x20\n        /* \"#utility.yul\":9088:9091   */\n      dup3\n        /* \"#utility.yul\":9084:9098   */\n      add\n        /* \"#utility.yul\":9069:9098   */\n      swap1\n      pop\n        /* \"#utility.yul\":8945:9104   */\n      swap3\n      swap2\n      pop\n      pop\n      jump\t// out\n        /* \"#utility.yul\":9110:9454   */\n    tag_213:\n        /* \"#utility.yul\":9188:9191   */\n      0x00\n        /* \"#utility.yul\":9216:9255   */\n      tag_363\n        /* \"#utility.yul\":9249:9254   */\n      dup3\n        /* \"#utility.yul\":9216:9255   */\n      tag_194\n      jump\t// in\n    tag_363:\n        /* \"#utility.yul\":9271:9332   */\n      tag_364\n        /* \"#utility.yul\":9325:9331   */\n      dup2\n        /* \"#utility.yul\":9320:9323   */\n      dup6\n        /* \"#utility.yul\":9271:9332   */\n      tag_212\n      jump\t// in\n    tag_364:\n        /* \"#utility.yul\":9264:9332   */\n      swap4\n      pop\n        /* \"#utility.yul\":9341:9393   */\n      tag_365\n        /* \"#utility.yul\":9386:9392   */\n      dup2\n        /* \"#utility.yul\":9381:9384   */\n      dup6\n        /* \"#utility.yul\":9374:9378   */\n      0x20\n        /* \"#utility.yul\":9367:9372   */\n      dup7\n        /* \"#utility.yul\":9363:9379   */\n      add\n        /* \"#utility.yul\":9341:9393   */\n      tag_196\n      jump\t// in\n    tag_365:\n        /* \"#utility.yul\":9418:9447   */\n      tag_366\n        /* \"#utility.yul\":9440:9446   */\n      dup2\n        /* \"#utility.yul\":9418:9447   */\n      tag_197\n      jump\t// in\n    tag_366:\n        /* \"#utility.yul\":9413:9416   */\n      dup5\n        /* \"#utility.yul\":9409:9448   */\n      add\n        /* \"#utility.yul\":9402:9448   */\n      swap2\n      pop\n        /* \"#utility.yul\":9192:9454   */\n      pop\n        /* \"#utility.yul\":9110:9454   */\n      swap3\n      swap2\n      pop\n      pop\n      jump\t// out\n        /* \"#utility.yul\":9538:10152   */\n    tag_214:\n        /* \"#utility.yul\":9655:9658   */\n      0x00\n        /* \"#utility.yul\":9691:9695   */\n      0x40\n        /* \"#utility.yul\":9686:9689   */\n      dup4\n        /* \"#utility.yul\":9682:9696   */\n      add\n        /* \"#utility.yul\":9783:9787   */\n      0x00\n        /* \"#utility.yul\":9776:9781   */\n      dup4\n        /* \"#utility.yul\":9772:9788   */\n      add\n        /* \"#utility.yul\":9766:9789   */\n      mload\n        /* \"#utility.yul\":9802:9865   */\n      tag_368\n        /* \"#utility.yul\":9859:9863   */\n      0x00\n        /* \"#utility.yul\":9854:9857   */\n      dup7\n        /* \"#utility.yul\":9850:9864   */\n      add\n        /* \"#utility.yul\":9836:9848   */\n      dup3\n        /* \"#utility.yul\":9802:9865   */\n      tag_211\n      jump\t// in\n    tag_368:\n        /* \"#utility.yul\":9706:9875   */\n      pop\n        /* \"#utility.yul\":9962:9966   */\n      0x20\n        /* \"#utility.yul\":9955:9960   */\n      dup4\n        /* \"#utility.yul\":9951:9967   */\n      add\n        /* \"#utility.yul\":9945:9968   */\n      mload\n        /* \"#utility.yul\":10015:10018   */\n      dup5\n        /* \"#utility.yul\":10009:10013   */\n      dup3\n        /* \"#utility.yul\":10005:10019   */\n      sub\n        /* \"#utility.yul\":9998:10002   */\n      0x20\n        /* \"#utility.yul\":9993:9996   */\n      dup7\n        /* \"#utility.yul\":9989:10003   */\n      add\n        /* \"#utility.yul\":9982:10020   */\n      mstore\n        /* \"#utility.yul\":10041:10114   */\n      tag_369\n        /* \"#utility.yul\":10109:10113   */\n      dup3\n        /* \"#utility.yul\":10095:10107   */\n      dup3\n        /* \"#utility.yul\":10041:10114   */\n      tag_213\n      jump\t// in\n    tag_369:\n        /* \"#utility.yul\":10033:10114   */\n      swap2\n      pop\n        /* \"#utility.yul\":9885:10125   */\n      pop\n        /* \"#utility.yul\":10142:10146   */\n      dup1\n        /* \"#utility.yul\":10135:10146   */\n      swap2\n      pop\n        /* \"#utility.yul\":9660:10152   */\n      pop\n        /* \"#utility.yul\":9538:10152   */\n      swap3\n      swap2\n      pop\n      pop\n      jump\t// out\n        /* \"#utility.yul\":10158:10292   */\n    tag_215:\n        /* \"#utility.yul\":10245:10251   */\n      0x00\n        /* \"#utility.yul\":10279:10284   */\n      dup2\n        /* \"#utility.yul\":10273:10285   */\n      mload\n        /* \"#utility.yul\":10263:10285   */\n      swap1\n      pop\n        /* \"#utility.yul\":10158:10292   */\n      swap2\n      swap1\n      pop\n      jump\t// out\n        /* \"#utility.yul\":10298:10502   */\n    tag_216:\n        /* \"#utility.yul\":10417:10428   */\n      0x00\n        /* \"#utility.yul\":10451:10457   */\n      dup3\n        /* \"#utility.yul\":10446:10449   */\n      dup3\n        /* \"#utility.yul\":10439:10458   */\n      mstore\n        /* \"#utility.yul\":10491:10495   */\n      0x20\n        /* \"#utility.yul\":10486:10489   */\n      dup3\n        /* \"#utility.yul\":10482:10496   */\n      add\n        /* \"#utility.yul\":10467:10496   */\n      swap1\n      pop\n        /* \"#utility.yul\":10298:10502   */\n      swap3\n      swap2\n      pop\n      pop\n      jump\t// out\n        /* \"#utility.yul\":10508:10660   */\n    tag_217:\n        /* \"#utility.yul\":10595:10599   */\n      0x00\n        /* \"#utility.yul\":10618:10621   */\n      dup2\n        /* \"#utility.yul\":10610:10621   */\n      swap1\n      pop\n        /* \"#utility.yul\":10648:10652   */\n      0x20\n        /* \"#utility.yul\":10643:10646   */\n      dup3\n        /* \"#utility.yul\":10639:10653   */\n      add\n        /* \"#utility.yul\":10631:10653   */\n      swap1\n      pop\n        /* \"#utility.yul\":10508:10660   */\n      swap2\n      swap1\n      pop\n      jump\t// out\n        /* \"#utility.yul\":10666:10765   */\n    tag_218:\n        /* \"#utility.yul\":10737:10758   */\n      tag_374\n        /* \"#utility.yul\":10752:10757   */\n      dup2\n        /* \"#utility.yul\":10737:10758   */\n      tag_208\n      jump\t// in\n    tag_374:\n        /* \"#utility.yul\":10732:10735   */\n      dup3\n        /* \"#utility.yul\":10725:10759   */\n      mstore\n        /* \"#utility.yul\":10666:10765   */\n      pop\n      pop\n      jump\t// out\n        /* \"#utility.yul\":10771:10879   */\n    tag_219:\n        /* \"#utility.yul\":10848:10872   */\n      tag_376\n        /* \"#utility.yul\":10866:10871   */\n      dup2\n        /* \"#utility.yul\":10848:10872   */\n      tag_190\n      jump\t// in\n    tag_376:\n        /* \"#utility.yul\":10843:10846   */\n      dup3\n        /* \"#utility.yul\":10836:10873   */\n      mstore\n        /* \"#utility.yul\":10771:10879   */\n      pop\n      pop\n      jump\t// out\n        /* \"#utility.yul\":10957:11612   */\n    tag_220:\n        /* \"#utility.yul\":11084:11088   */\n      0x60\n        /* \"#utility.yul\":11079:11082   */\n      dup3\n        /* \"#utility.yul\":11075:11089   */\n      add\n        /* \"#utility.yul\":11172:11176   */\n      0x00\n        /* \"#utility.yul\":11165:11170   */\n      dup3\n        /* \"#utility.yul\":11161:11177   */\n      add\n        /* \"#utility.yul\":11155:11178   */\n      mload\n        /* \"#utility.yul\":11191:11248   */\n      tag_378\n        /* \"#utility.yul\":11242:11246   */\n      0x00\n        /* \"#utility.yul\":11237:11240   */\n      dup6\n        /* \"#utility.yul\":11233:11247   */\n      add\n        /* \"#utility.yul\":11219:11231   */\n      dup3\n        /* \"#utility.yul\":11191:11248   */\n      tag_218\n      jump\t// in\n    tag_378:\n        /* \"#utility.yul\":11099:11258   */\n      pop\n        /* \"#utility.yul\":11345:11349   */\n      0x20\n        /* \"#utility.yul\":11338:11343   */\n      dup3\n        /* \"#utility.yul\":11334:11350   */\n      add\n        /* \"#utility.yul\":11328:11351   */\n      mload\n        /* \"#utility.yul\":11364:11427   */\n      tag_379\n        /* \"#utility.yul\":11421:11425   */\n      0x20\n        /* \"#utility.yul\":11416:11419   */\n      dup6\n        /* \"#utility.yul\":11412:11426   */\n      add\n        /* \"#utility.yul\":11398:11410   */\n      dup3\n        /* \"#utility.yul\":11364:11427   */\n      tag_219\n      jump\t// in\n    tag_379:\n        /* \"#utility.yul\":11268:11437   */\n      pop\n        /* \"#utility.yul\":11519:11523   */\n      0x40\n        /* \"#utility.yul\":11512:11517   */\n      dup3\n        /* \"#utility.yul\":11508:11524   */\n      add\n        /* \"#utility.yul\":11502:11525   */\n      mload\n        /* \"#utility.yul\":11538:11595   */\n      tag_380\n        /* \"#utility.yul\":11589:11593   */\n      0x40\n        /* \"#utility.yul\":11584:11587   */\n      dup6\n        /* \"#utility.yul\":11580:11594   */\n      add\n        /* \"#utility.yul\":11566:11578   */\n      dup3\n        /* \"#utility.yul\":11538:11595   */\n      tag_218\n      jump\t// in\n    tag_380:\n        /* \"#utility.yul\":11447:11605   */\n      pop\n        /* \"#utility.yul\":11053:11612   */\n      pop\n        /* \"#utility.yul\":10957:11612   */\n      pop\n      pop\n      jump\t// out\n        /* \"#utility.yul\":11618:11877   */\n    tag_221:\n        /* \"#utility.yul\":11727:11737   */\n      0x00\n        /* \"#utility.yul\":11748:11834   */\n      tag_382\n        /* \"#utility.yul\":11830:11833   */\n      dup4\n        /* \"#utility.yul\":11822:11828   */\n      dup4\n        /* \"#utility.yul\":11748:11834   */\n      tag_220\n      jump\t// in\n    tag_382:\n        /* \"#utility.yul\":11866:11870   */\n      0x60\n        /* \"#utility.yul\":11861:11864   */\n      dup4\n        /* \"#utility.yul\":11857:11871   */\n      add\n        /* \"#utility.yul\":11843:11871   */\n      swap1\n      pop\n        /* \"#utility.yul\":11618:11877   */\n      swap3\n      swap2\n      pop\n      pop\n      jump\t// out\n        /* \"#utility.yul\":11883:12016   */\n    tag_222:\n        /* \"#utility.yul\":11973:11977   */\n      0x00\n        /* \"#utility.yul\":12005:12009   */\n      0x20\n        /* \"#utility.yul\":12000:12003   */\n      dup3\n        /* \"#utility.yul\":11996:12010   */\n      add\n        /* \"#utility.yul\":11988:12010   */\n      swap1\n      pop\n        /* \"#utility.yul\":11883:12016   */\n      swap2\n      swap1\n      pop\n      jump\t// out\n        /* \"#utility.yul\":12098:12990   */\n    tag_223:\n        /* \"#utility.yul\":12257:12260   */\n      0x00\n        /* \"#utility.yul\":12286:12360   */\n      tag_385\n        /* \"#utility.yul\":12354:12359   */\n      dup3\n        /* \"#utility.yul\":12286:12360   */\n      tag_215\n      jump\t// in\n    tag_385:\n        /* \"#utility.yul\":12376:12482   */\n      tag_386\n        /* \"#utility.yul\":12475:12481   */\n      dup2\n        /* \"#utility.yul\":12470:12473   */\n      dup6\n        /* \"#utility.yul\":12376:12482   */\n      tag_216\n      jump\t// in\n    tag_386:\n        /* \"#utility.yul\":12369:12482   */\n      swap4\n      pop\n        /* \"#utility.yul\":12506:12582   */\n      tag_387\n        /* \"#utility.yul\":12576:12581   */\n      dup4\n        /* \"#utility.yul\":12506:12582   */\n      tag_217\n      jump\t// in\n    tag_387:\n        /* \"#utility.yul\":12605:12612   */\n      dup1\n        /* \"#utility.yul\":12636:12637   */\n      0x00\n        /* \"#utility.yul\":12621:12965   */\n    tag_388:\n        /* \"#utility.yul\":12646:12652   */\n      dup4\n        /* \"#utility.yul\":12643:12644   */\n      dup2\n        /* \"#utility.yul\":12640:12653   */\n      lt\n        /* \"#utility.yul\":12621:12965   */\n      iszero\n      tag_390\n      jumpi\n        /* \"#utility.yul\":12722:12728   */\n      dup2\n        /* \"#utility.yul\":12716:12729   */\n      mload\n        /* \"#utility.yul\":12749:12852   */\n      tag_391\n        /* \"#utility.yul\":12848:12851   */\n      dup9\n        /* \"#utility.yul\":12833:12846   */\n      dup3\n        /* \"#utility.yul\":12749:12852   */\n      tag_221\n      jump\t// in\n    tag_391:\n        /* \"#utility.yul\":12742:12852   */\n      swap8\n      pop\n        /* \"#utility.yul\":12875:12955   */\n      tag_392\n        /* \"#utility.yul\":12948:12954   */\n      dup4\n        /* \"#utility.yul\":12875:12955   */\n      tag_222\n      jump\t// in\n    tag_392:\n        /* \"#utility.yul\":12865:12955   */\n      swap3\n      pop\n        /* \"#utility.yul\":12681:12965   */\n      pop\n        /* \"#utility.yul\":12668:12669   */\n      0x01\n        /* \"#utility.yul\":12665:12666   */\n      dup2\n        /* \"#utility.yul\":12661:12670   */\n      add\n        /* \"#utility.yul\":12656:12670   */\n      swap1\n      pop\n        /* \"#utility.yul\":12621:12965   */\n      jump(tag_388)\n    tag_390:\n        /* \"#utility.yul\":12625:12639   */\n      pop\n        /* \"#utility.yul\":12981:12984   */\n      dup6\n        /* \"#utility.yul\":12974:12984   */\n      swap4\n      pop\n        /* \"#utility.yul\":12262:12990   */\n      pop\n      pop\n      pop\n        /* \"#utility.yul\":12098:12990   */\n      swap3\n      swap2\n      pop\n      pop\n      jump\t// out\n        /* \"#utility.yul\":12996:13907   */\n    tag_83:\n        /* \"#utility.yul\":13303:13307   */\n      0x00\n        /* \"#utility.yul\":13341:13343   */\n      0x60\n        /* \"#utility.yul\":13330:13339   */\n      dup3\n        /* \"#utility.yul\":13326:13344   */\n      add\n        /* \"#utility.yul\":13318:13344   */\n      swap1\n      pop\n        /* \"#utility.yul\":13390:13399   */\n      dup2\n        /* \"#utility.yul\":13384:13388   */\n      dup2\n        /* \"#utility.yul\":13380:13400   */\n      sub\n        /* \"#utility.yul\":13376:13377   */\n      0x00\n        /* \"#utility.yul\":13365:13374   */\n      dup4\n        /* \"#utility.yul\":13361:13378   */\n      add\n        /* \"#utility.yul\":13354:13401   */\n      mstore\n        /* \"#utility.yul\":13418:13496   */\n      tag_394\n        /* \"#utility.yul\":13491:13495   */\n      dup2\n        /* \"#utility.yul\":13482:13488   */\n      dup7\n        /* \"#utility.yul\":13418:13496   */\n      tag_198\n      jump\t// in\n    tag_394:\n        /* \"#utility.yul\":13410:13496   */\n      swap1\n      pop\n        /* \"#utility.yul\":13543:13552   */\n      dup2\n        /* \"#utility.yul\":13537:13541   */\n      dup2\n        /* \"#utility.yul\":13533:13553   */\n      sub\n        /* \"#utility.yul\":13528:13530   */\n      0x20\n        /* \"#utility.yul\":13517:13526   */\n      dup4\n        /* \"#utility.yul\":13513:13531   */\n      add\n        /* \"#utility.yul\":13506:13554   */\n      mstore\n        /* \"#utility.yul\":13571:13677   */\n      tag_395\n        /* \"#utility.yul\":13672:13676   */\n      dup2\n        /* \"#utility.yul\":13663:13669   */\n      dup6\n        /* \"#utility.yul\":13571:13677   */\n      tag_214\n      jump\t// in\n    tag_395:\n        /* \"#utility.yul\":13563:13677   */\n      swap1\n      pop\n        /* \"#utility.yul\":13724:13733   */\n      dup2\n        /* \"#utility.yul\":13718:13722   */\n      dup2\n        /* \"#utility.yul\":13714:13734   */\n      sub\n        /* \"#utility.yul\":13709:13711   */\n      0x40\n        /* \"#utility.yul\":13698:13707   */\n      dup4\n        /* \"#utility.yul\":13694:13712   */\n      add\n        /* \"#utility.yul\":13687:13735   */\n      mstore\n        /* \"#utility.yul\":13752:13900   */\n      tag_396\n        /* \"#utility.yul\":13895:13899   */\n      dup2\n        /* \"#utility.yul\":13886:13892   */\n      dup5\n        /* \"#utility.yul\":13752:13900   */\n      tag_223\n      jump\t// in\n    tag_396:\n        /* \"#utility.yul\":13744:13900   */\n      swap1\n      pop\n        /* \"#utility.yul\":12996:13907   */\n      swap5\n      swap4\n      pop\n      pop\n      pop\n      pop\n      jump\t// out\n        /* \"#utility.yul\":13913:14140   */\n    tag_224:\n        /* \"#utility.yul\":14053:14087   */\n      0x4f6e6c7920696e69746961746f722063616e2072656769737465722061207265\n        /* \"#utility.yul\":14049:14050   */\n      0x00\n        /* \"#utility.yul\":14041:14047   */\n      dup3\n        /* \"#utility.yul\":14037:14051   */\n      add\n        /* \"#utility.yul\":14030:14088   */\n      mstore\n        /* \"#utility.yul\":14122:14132   */\n      0x63697069656e742e000000000000000000000000000000000000000000000000\n        /* \"#utility.yul\":14117:14119   */\n      0x20\n        /* \"#utility.yul\":14109:14115   */\n      dup3\n        /* \"#utility.yul\":14105:14120   */\n      add\n        /* \"#utility.yul\":14098:14133   */\n      mstore\n        /* \"#utility.yul\":13913:14140   */\n      pop\n      jump\t// out\n        /* \"#utility.yul\":14146:14512   */\n    tag_225:\n        /* \"#utility.yul\":14288:14291   */\n      0x00\n        /* \"#utility.yul\":14309:14376   */\n      tag_399\n        /* \"#utility.yul\":14373:14375   */\n      0x28\n        /* \"#utility.yul\":14368:14371   */\n      dup4\n        /* \"#utility.yul\":14309:14376   */\n      tag_195\n      jump\t// in\n    tag_399:\n        /* \"#utility.yul\":14302:14376   */\n      swap2\n      pop\n        /* \"#utility.yul\":14385:14478   */\n      tag_400\n        /* \"#utility.yul\":14474:14477   */\n      dup3\n        /* \"#utility.yul\":14385:14478   */\n      tag_224\n      jump\t// in\n    tag_400:\n        /* \"#utility.yul\":14503:14505   */\n      0x40\n        /* \"#utility.yul\":14498:14501   */\n      dup3\n        /* \"#utility.yul\":14494:14506   */\n      add\n        /* \"#utility.yul\":14487:14506   */\n      swap1\n      pop\n        /* \"#utility.yul\":14146:14512   */\n      swap2\n      swap1\n      pop\n      jump\t// out\n        /* \"#utility.yul\":14518:14937   */\n    tag_89:\n        /* \"#utility.yul\":14684:14688   */\n      0x00\n        /* \"#utility.yul\":14722:14724   */\n      0x20\n        /* \"#utility.yul\":14711:14720   */\n      dup3\n        /* \"#utility.yul\":14707:14725   */\n      add\n        /* \"#utility.yul\":14699:14725   */\n      swap1\n      pop\n        /* \"#utility.yul\":14771:14780   */\n      dup2\n        /* \"#utility.yul\":14765:14769   */\n      dup2\n        /* \"#utility.yul\":14761:14781   */\n      sub\n        /* \"#utility.yul\":14757:14758   */\n      0x00\n        /* \"#utility.yul\":14746:14755   */\n      dup4\n        /* \"#utility.yul\":14742:14759   */\n      add\n        /* \"#utility.yul\":14735:14782   */\n      mstore\n        /* \"#utility.yul\":14799:14930   */\n      tag_402\n        /* \"#utility.yul\":14925:14929   */\n      dup2\n        /* \"#utility.yul\":14799:14930   */\n      tag_225\n      jump\t// in\n    tag_402:\n        /* \"#utility.yul\":14791:14930   */\n      swap1\n      pop\n        /* \"#utility.yul\":14518:14937   */\n      swap2\n      swap1\n      pop\n      jump\t// out\n        /* \"#utility.yul\":14943:15114   */\n    tag_226:\n        /* \"#utility.yul\":15083:15106   */\n      0x496e69746961746f722063616e277420766f7465210000000000000000000000\n        /* \"#utility.yul\":15079:15080   */\n      0x00\n        /* \"#utility.yul\":15071:15077   */\n      dup3\n        /* \"#utility.yul\":15067:15081   */\n      add\n        /* \"#utility.yul\":15060:15107   */\n      mstore\n        /* \"#utility.yul\":14943:15114   */\n      pop\n      jump\t// out\n        /* \"#utility.yul\":15120:15486   */\n    tag_227:\n        /* \"#utility.yul\":15262:15265   */\n      0x00\n        /* \"#utility.yul\":15283:15350   */\n      tag_405\n        /* \"#utility.yul\":15347:15349   */\n      0x15\n        /* \"#utility.yul\":15342:15345   */\n      dup4\n        /* \"#utility.yul\":15283:15350   */\n      tag_195\n      jump\t// in\n    tag_405:\n        /* \"#utility.yul\":15276:15350   */\n      swap2\n      pop\n        /* \"#utility.yul\":15359:15452   */\n      tag_406\n        /* \"#utility.yul\":15448:15451   */\n      dup3\n        /* \"#utility.yul\":15359:15452   */\n      tag_226\n      jump\t// in\n    tag_406:\n        /* \"#utility.yul\":15477:15479   */\n      0x20\n        /* \"#utility.yul\":15472:15475   */\n      dup3\n        /* \"#utility.yul\":15468:15480   */\n      add\n        /* \"#utility.yul\":15461:15480   */\n      swap1\n      pop\n        /* \"#utility.yul\":15120:15486   */\n      swap2\n      swap1\n      pop\n      jump\t// out\n        /* \"#utility.yul\":15492:15911   */\n    tag_92:\n        /* \"#utility.yul\":15658:15662   */\n      0x00\n        /* \"#utility.yul\":15696:15698   */\n      0x20\n        /* \"#utility.yul\":15685:15694   */\n      dup3\n        /* \"#utility.yul\":15681:15699   */\n      add\n        /* \"#utility.yul\":15673:15699   */\n      swap1\n      pop\n        /* \"#utility.yul\":15745:15754   */\n      dup2\n        /* \"#utility.yul\":15739:15743   */\n      dup2\n        /* \"#utility.yul\":15735:15755   */\n      sub\n        /* \"#utility.yul\":15731:15732   */\n      0x00\n        /* \"#utility.yul\":15720:15729   */\n      dup4\n        /* \"#utility.yul\":15716:15733   */\n      add\n        /* \"#utility.yul\":15709:15756   */\n      mstore\n        /* \"#utility.yul\":15773:15904   */\n      tag_408\n        /* \"#utility.yul\":15899:15903   */\n      dup2\n        /* \"#utility.yul\":15773:15904   */\n      tag_227\n      jump\t// in\n    tag_408:\n        /* \"#utility.yul\":15765:15904   */\n      swap1\n      pop\n        /* \"#utility.yul\":15492:15911   */\n      swap2\n      swap1\n      pop\n      jump\t// out\n        /* \"#utility.yul\":15917:16098   */\n    tag_228:\n        /* \"#utility.yul\":16057:16090   */\n      0x526563697069656e7420697320616c7265616479207265676973746572656400\n        /* \"#utility.yul\":16053:16054   */\n      0x00\n        /* \"#utility.yul\":16045:16051   */\n      dup3\n        /* \"#utility.yul\":16041:16055   */\n      add\n        /* \"#utility.yul\":16034:16091   */\n      mstore\n        /* \"#utility.yul\":15917:16098   */\n      pop\n      jump\t// out\n        /* \"#utility.yul\":16104:16470   */\n    tag_229:\n        /* \"#utility.yul\":16246:16249   */\n      0x00\n        /* \"#utility.yul\":16267:16334   */\n      tag_411\n        /* \"#utility.yul\":16331:16333   */\n      0x1f\n        /* \"#utility.yul\":16326:16329   */\n      dup4\n        /* \"#utility.yul\":16267:16334   */\n      tag_195\n      jump\t// in\n    tag_411:\n        /* \"#utility.yul\":16260:16334   */\n      swap2\n      pop\n        /* \"#utility.yul\":16343:16436   */\n      tag_412\n        /* \"#utility.yul\":16432:16435   */\n      dup3\n        /* \"#utility.yul\":16343:16436   */\n      tag_228\n      jump\t// in\n    tag_412:\n        /* \"#utility.yul\":16461:16463   */\n      0x20\n        /* \"#utility.yul\":16456:16459   */\n      dup3\n        /* \"#utility.yul\":16452:16464   */\n      add\n        /* \"#utility.yul\":16445:16464   */\n      swap1\n      pop\n        /* \"#utility.yul\":16104:16470   */\n      swap2\n      swap1\n      pop\n      jump\t// out\n        /* \"#utility.yul\":16476:16895   */\n    tag_95:\n        /* \"#utility.yul\":16642:16646   */\n      0x00\n        /* \"#utility.yul\":16680:16682   */\n      0x20\n        /* \"#utility.yul\":16669:16678   */\n      dup3\n        /* \"#utility.yul\":16665:16683   */\n      add\n        /* \"#utility.yul\":16657:16683   */\n      swap1\n      pop\n        /* \"#utility.yul\":16729:16738   */\n      dup2\n        /* \"#utility.yul\":16723:16727   */\n      dup2\n        /* \"#utility.yul\":16719:16739   */\n      sub\n        /* \"#utility.yul\":16715:16716   */\n      0x00\n        /* \"#utility.yul\":16704:16713   */\n      dup4\n        /* \"#utility.yul\":16700:16717   */\n      add\n        /* \"#utility.yul\":16693:16740   */\n      mstore\n        /* \"#utility.yul\":16757:16888   */\n      tag_414\n        /* \"#utility.yul\":16883:16887   */\n      dup2\n        /* \"#utility.yul\":16757:16888   */\n      tag_229\n      jump\t// in\n    tag_414:\n        /* \"#utility.yul\":16749:16888   */\n      swap1\n      pop\n        /* \"#utility.yul\":16476:16895   */\n      swap2\n      swap1\n      pop\n      jump\t// out\n        /* \"#utility.yul\":16901:17124   */\n    tag_230:\n        /* \"#utility.yul\":17041:17075   */\n      0x50726f706f73616c206861732072656163686564206974732065787069727920\n        /* \"#utility.yul\":17037:17038   */\n      0x00\n        /* \"#utility.yul\":17029:17035   */\n      dup3\n        /* \"#utility.yul\":17025:17039   */\n      add\n        /* \"#utility.yul\":17018:17076   */\n      mstore\n        /* \"#utility.yul\":17110:17116   */\n      0x6461746500000000000000000000000000000000000000000000000000000000\n        /* \"#utility.yul\":17105:17107   */\n      0x20\n        /* \"#utility.yul\":17097:17103   */\n      dup3\n        /* \"#utility.yul\":17093:17108   */\n      add\n        /* \"#utility.yul\":17086:17117   */\n      mstore\n        /* \"#utility.yul\":16901:17124   */\n      pop\n      jump\t// out\n        /* \"#utility.yul\":17130:17496   */\n    tag_231:\n        /* \"#utility.yul\":17272:17275   */\n      0x00\n        /* \"#utility.yul\":17293:17360   */\n      tag_417\n        /* \"#utility.yul\":17357:17359   */\n      0x24\n        /* \"#utility.yul\":17352:17355   */\n      dup4\n        /* \"#utility.yul\":17293:17360   */\n      tag_195\n      jump\t// in\n    tag_417:\n        /* \"#utility.yul\":17286:17360   */\n      swap2\n      pop\n        /* \"#utility.yul\":17369:17462   */\n      tag_418\n        /* \"#utility.yul\":17458:17461   */\n      dup3\n        /* \"#utility.yul\":17369:17462   */\n      tag_230\n      jump\t// in\n    tag_418:\n        /* \"#utility.yul\":17487:17489   */\n      0x40\n        /* \"#utility.yul\":17482:17485   */\n      dup3\n        /* \"#utility.yul\":17478:17490   */\n      add\n        /* \"#utility.yul\":17471:17490   */\n      swap1\n      pop\n        /* \"#utility.yul\":17130:17496   */\n      swap2\n      swap1\n      pop\n      jump\t// out\n        /* \"#utility.yul\":17502:17921   */\n    tag_98:\n        /* \"#utility.yul\":17668:17672   */\n      0x00\n        /* \"#utility.yul\":17706:17708   */\n      0x20\n        /* \"#utility.yul\":17695:17704   */\n      dup3\n        /* \"#utility.yul\":17691:17709   */\n      add\n        /* \"#utility.yul\":17683:17709   */\n      swap1\n      pop\n        /* \"#utility.yul\":17755:17764   */\n      dup2\n        /* \"#utility.yul\":17749:17753   */\n      dup2\n        /* \"#utility.yul\":17745:17765   */\n      sub\n        /* \"#utility.yul\":17741:17742   */\n      0x00\n        /* \"#utility.yul\":17730:17739   */\n      dup4\n        /* \"#utility.yul\":17726:17743   */\n      add\n        /* \"#utility.yul\":17719:17766   */\n      mstore\n        /* \"#utility.yul\":17783:17914   */\n      tag_420\n        /* \"#utility.yul\":17909:17913   */\n      dup2\n        /* \"#utility.yul\":17783:17914   */\n      tag_231\n      jump\t// in\n    tag_420:\n        /* \"#utility.yul\":17775:17914   */\n      swap1\n      pop\n        /* \"#utility.yul\":17502:17921   */\n      swap2\n      swap1\n      pop\n      jump\t// out\n        /* \"#utility.yul\":17927:18107   */\n    tag_232:\n        /* \"#utility.yul\":17975:18052   */\n      0x4e487b7100000000000000000000000000000000000000000000000000000000\n        /* \"#utility.yul\":17972:17973   */\n      0x00\n        /* \"#utility.yul\":17965:18053   */\n      mstore\n        /* \"#utility.yul\":18072:18076   */\n      0x22\n        /* \"#utility.yul\":18069:18070   */\n      0x04\n        /* \"#utility.yul\":18062:18077   */\n      mstore\n        /* \"#utility.yul\":18096:18100   */\n      0x24\n        /* \"#utility.yul\":18093:18094   */\n      0x00\n        /* \"#utility.yul\":18086:18101   */\n      revert\n        /* \"#utility.yul\":18113:18433   */\n    tag_102:\n        /* \"#utility.yul\":18157:18163   */\n      0x00\n        /* \"#utility.yul\":18194:18195   */\n      0x02\n        /* \"#utility.yul\":18188:18192   */\n      dup3\n        /* \"#utility.yul\":18184:18196   */\n      div\n        /* \"#utility.yul\":18174:18196   */\n      swap1\n      pop\n        /* \"#utility.yul\":18241:18242   */\n      0x01\n        /* \"#utility.yul\":18235:18239   */\n      dup3\n        /* \"#utility.yul\":18231:18243   */\n      and\n        /* \"#utility.yul\":18262:18280   */\n      dup1\n        /* \"#utility.yul\":18252:18333   */\n      tag_423\n      jumpi\n        /* \"#utility.yul\":18318:18322   */\n      0x7f\n        /* \"#utility.yul\":18310:18316   */\n      dup3\n        /* \"#utility.yul\":18306:18323   */\n      and\n        /* \"#utility.yul\":18296:18323   */\n      swap2\n      pop\n        /* \"#utility.yul\":18252:18333   */\n    tag_423:\n        /* \"#utility.yul\":18380:18382   */\n      0x20\n        /* \"#utility.yul\":18372:18378   */\n      dup3\n        /* \"#utility.yul\":18369:18383   */\n      lt\n        /* \"#utility.yul\":18349:18367   */\n      dup2\n        /* \"#utility.yul\":18346:18384   */\n      sub\n        /* \"#utility.yul\":18343:18427   */\n      tag_424\n      jumpi\n        /* \"#utility.yul\":18399:18417   */\n      tag_425\n      tag_232\n      jump\t// in\n    tag_425:\n        /* \"#utility.yul\":18343:18427   */\n    tag_424:\n        /* \"#utility.yul\":18164:18433   */\n      pop\n        /* \"#utility.yul\":18113:18433   */\n      swap2\n      swap1\n      pop\n      jump\t// out\n        /* \"#utility.yul\":18439:18607   */\n    tag_233:\n        /* \"#utility.yul\":18579:18599   */\n      0x566f74696e672068617320657870697265640000000000000000000000000000\n        /* \"#utility.yul\":18575:18576   */\n      0x00\n        /* \"#utility.yul\":18567:18573   */\n      dup3\n        /* \"#utility.yul\":18563:18577   */\n      add\n        /* \"#utility.yul\":18556:18600   */\n      mstore\n        /* \"#utility.yul\":18439:18607   */\n      pop\n      jump\t// out\n        /* \"#utility.yul\":18613:18979   */\n    tag_234:\n        /* \"#utility.yul\":18755:18758   */\n      0x00\n        /* \"#utility.yul\":18776:18843   */\n      tag_428\n        /* \"#utility.yul\":18840:18842   */\n      0x12\n        /* \"#utility.yul\":18835:18838   */\n      dup4\n        /* \"#utility.yul\":18776:18843   */\n      tag_195\n      jump\t// in\n    tag_428:\n        /* \"#utility.yul\":18769:18843   */\n      swap2\n      pop\n        /* \"#utility.yul\":18852:18945   */\n      tag_429\n        /* \"#utility.yul\":18941:18944   */\n      dup3\n        /* \"#utility.yul\":18852:18945   */\n      tag_233\n      jump\t// in\n    tag_429:\n        /* \"#utility.yul\":18970:18972   */\n      0x20\n        /* \"#utility.yul\":18965:18968   */\n      dup3\n        /* \"#utility.yul\":18961:18973   */\n      add\n        /* \"#utility.yul\":18954:18973   */\n      swap1\n      pop\n        /* \"#utility.yul\":18613:18979   */\n      swap2\n      swap1\n      pop\n      jump\t// out\n        /* \"#utility.yul\":18985:19404   */\n    tag_110:\n        /* \"#utility.yul\":19151:19155   */\n      0x00\n        /* \"#utility.yul\":19189:19191   */\n      0x20\n        /* \"#utility.yul\":19178:19187   */\n      dup3\n        /* \"#utility.yul\":19174:19192   */\n      add\n        /* \"#utility.yul\":19166:19192   */\n      swap1\n      pop\n        /* \"#utility.yul\":19238:19247   */\n      dup2\n        /* \"#utility.yul\":19232:19236   */\n      dup2\n        /* \"#utility.yul\":19228:19248   */\n      sub\n        /* \"#utility.yul\":19224:19225   */\n      0x00\n        /* \"#utility.yul\":19213:19222   */\n      dup4\n        /* \"#utility.yul\":19209:19226   */\n      add\n        /* \"#utility.yul\":19202:19249   */\n      mstore\n        /* \"#utility.yul\":19266:19397   */\n      tag_431\n        /* \"#utility.yul\":19392:19396   */\n      dup2\n        /* \"#utility.yul\":19266:19397   */\n      tag_234\n      jump\t// in\n    tag_431:\n        /* \"#utility.yul\":19258:19397   */\n      swap1\n      pop\n        /* \"#utility.yul\":18985:19404   */\n      swap2\n      swap1\n      pop\n      jump\t// out\n        /* \"#utility.yul\":19410:19590   */\n    tag_235:\n        /* \"#utility.yul\":19550:19582   */\n      0x596f7520617265206e6f74207265676973746572656420746f20766f74650000\n        /* \"#utility.yul\":19546:19547   */\n      0x00\n        /* \"#utility.yul\":19538:19544   */\n      dup3\n        /* \"#utility.yul\":19534:19548   */\n      add\n        /* \"#utility.yul\":19527:19583   */\n      mstore\n        /* \"#utility.yul\":19410:19590   */\n      pop\n      jump\t// out\n        /* \"#utility.yul\":19596:19962   */\n    tag_236:\n        /* \"#utility.yul\":19738:19741   */\n      0x00\n        /* \"#utility.yul\":19759:19826   */\n      tag_434\n        /* \"#utility.yul\":19823:19825   */\n      0x1e\n        /* \"#utility.yul\":19818:19821   */\n      dup4\n        /* \"#utility.yul\":19759:19826   */\n      tag_195\n      jump\t// in\n    tag_434:\n        /* \"#utility.yul\":19752:19826   */\n      swap2\n      pop\n        /* \"#utility.yul\":19835:19928   */\n      tag_435\n        /* \"#utility.yul\":19924:19927   */\n      dup3\n        /* \"#utility.yul\":19835:19928   */\n      tag_235\n      jump\t// in\n    tag_435:\n        /* \"#utility.yul\":19953:19955   */\n      0x20\n        /* \"#utility.yul\":19948:19951   */\n      dup3\n        /* \"#utility.yul\":19944:19956   */\n      add\n        /* \"#utility.yul\":19937:19956   */\n      swap1\n      pop\n        /* \"#utility.yul\":19596:19962   */\n      swap2\n      swap1\n      pop\n      jump\t// out\n        /* \"#utility.yul\":19968:20387   */\n    tag_113:\n        /* \"#utility.yul\":20134:20138   */\n      0x00\n        /* \"#utility.yul\":20172:20174   */\n      0x20\n        /* \"#utility.yul\":20161:20170   */\n      dup3\n        /* \"#utility.yul\":20157:20175   */\n      add\n        /* \"#utility.yul\":20149:20175   */\n      swap1\n      pop\n        /* \"#utility.yul\":20221:20230   */\n      dup2\n        /* \"#utility.yul\":20215:20219   */\n      dup2\n        /* \"#utility.yul\":20211:20231   */\n      sub\n        /* \"#utility.yul\":20207:20208   */\n      0x00\n        /* \"#utility.yul\":20196:20205   */\n      dup4\n        /* \"#utility.yul\":20192:20209   */\n      add\n        /* \"#utility.yul\":20185:20232   */\n      mstore\n        /* \"#utility.yul\":20249:20380   */\n      tag_437\n        /* \"#utility.yul\":20375:20379   */\n      dup2\n        /* \"#utility.yul\":20249:20380   */\n      tag_236\n      jump\t// in\n    tag_437:\n        /* \"#utility.yul\":20241:20380   */\n      swap1\n      pop\n        /* \"#utility.yul\":19968:20387   */\n      swap2\n      swap1\n      pop\n      jump\t// out\n        /* \"#utility.yul\":20393:20571   */\n    tag_237:\n        /* \"#utility.yul\":20533:20563   */\n      0x596f7520616c72656164792073656e74206120726573706f6e73652e00000000\n        /* \"#utility.yul\":20529:20530   */\n      0x00\n        /* \"#utility.yul\":20521:20527   */\n      dup3\n        /* \"#utility.yul\":20517:20531   */\n      add\n        /* \"#utility.yul\":20510:20564   */\n      mstore\n        /* \"#utility.yul\":20393:20571   */\n      pop\n      jump\t// out\n        /* \"#utility.yul\":20577:20943   */\n    tag_238:\n        /* \"#utility.yul\":20719:20722   */\n      0x00\n        /* \"#utility.yul\":20740:20807   */\n      tag_440\n        /* \"#utility.yul\":20804:20806   */\n      0x1c\n        /* \"#utility.yul\":20799:20802   */\n      dup4\n        /* \"#utility.yul\":20740:20807   */\n      tag_195\n      jump\t// in\n    tag_440:\n        /* \"#utility.yul\":20733:20807   */\n      swap2\n      pop\n        /* \"#utility.yul\":20816:20909   */\n      tag_441\n        /* \"#utility.yul\":20905:20908   */\n      dup3\n        /* \"#utility.yul\":20816:20909   */\n      tag_237\n      jump\t// in\n    tag_441:\n        /* \"#utility.yul\":20934:20936   */\n      0x20\n        /* \"#utility.yul\":20929:20932   */\n      dup3\n        /* \"#utility.yul\":20925:20937   */\n      add\n        /* \"#utility.yul\":20918:20937   */\n      swap1\n      pop\n        /* \"#utility.yul\":20577:20943   */\n      swap2\n      swap1\n      pop\n      jump\t// out\n        /* \"#utility.yul\":20949:21368   */\n    tag_116:\n        /* \"#utility.yul\":21115:21119   */\n      0x00\n        /* \"#utility.yul\":21153:21155   */\n      0x20\n        /* \"#utility.yul\":21142:21151   */\n      dup3\n        /* \"#utility.yul\":21138:21156   */\n      add\n        /* \"#utility.yul\":21130:21156   */\n      swap1\n      pop\n        /* \"#utility.yul\":21202:21211   */\n      dup2\n        /* \"#utility.yul\":21196:21200   */\n      dup2\n        /* \"#utility.yul\":21192:21212   */\n      sub\n        /* \"#utility.yul\":21188:21189   */\n      0x00\n        /* \"#utility.yul\":21177:21186   */\n      dup4\n        /* \"#utility.yul\":21173:21190   */\n      add\n        /* \"#utility.yul\":21166:21213   */\n      mstore\n        /* \"#utility.yul\":21230:21361   */\n      tag_443\n        /* \"#utility.yul\":21356:21360   */\n      dup2\n        /* \"#utility.yul\":21230:21361   */\n      tag_238\n      jump\t// in\n    tag_443:\n        /* \"#utility.yul\":21222:21361   */\n      swap1\n      pop\n        /* \"#utility.yul\":20949:21368   */\n      swap2\n      swap1\n      pop\n      jump\t// out\n        /* \"#utility.yul\":21374:21554   */\n    tag_239:\n        /* \"#utility.yul\":21422:21499   */\n      0x4e487b7100000000000000000000000000000000000000000000000000000000\n        /* \"#utility.yul\":21419:21420   */\n      0x00\n        /* \"#utility.yul\":21412:21500   */\n      mstore\n        /* \"#utility.yul\":21519:21523   */\n      0x11\n        /* \"#utility.yul\":21516:21517   */\n      0x04\n        /* \"#utility.yul\":21509:21524   */\n      mstore\n        /* \"#utility.yul\":21543:21547   */\n      0x24\n        /* \"#utility.yul\":21540:21541   */\n      0x00\n        /* \"#utility.yul\":21533:21548   */\n      revert\n        /* \"#utility.yul\":21560:21865   */\n    tag_119:\n        /* \"#utility.yul\":21600:21603   */\n      0x00\n        /* \"#utility.yul\":21619:21639   */\n      tag_446\n        /* \"#utility.yul\":21637:21638   */\n      dup3\n        /* \"#utility.yul\":21619:21639   */\n      tag_186\n      jump\t// in\n    tag_446:\n        /* \"#utility.yul\":21614:21639   */\n      swap2\n      pop\n        /* \"#utility.yul\":21653:21673   */\n      tag_447\n        /* \"#utility.yul\":21671:21672   */\n      dup4\n        /* \"#utility.yul\":21653:21673   */\n      tag_186\n      jump\t// in\n    tag_447:\n        /* \"#utility.yul\":21648:21673   */\n      swap3\n      pop\n        /* \"#utility.yul\":21807:21808   */\n      dup3\n        /* \"#utility.yul\":21739:21805   */\n      0xffffffffffffffffffffffffffffffffffffffffffffffffffffffffffffffff\n        /* \"#utility.yul\":21735:21809   */\n      sub\n        /* \"#utility.yul\":21732:21733   */\n      dup3\n        /* \"#utility.yul\":21729:21810   */\n      gt\n        /* \"#utility.yul\":21726:21833   */\n      iszero\n      tag_448\n      jumpi\n        /* \"#utility.yul\":21813:21831   */\n      tag_449\n      tag_239\n      jump\t// in\n    tag_449:\n        /* \"#utility.yul\":21726:21833   */\n    tag_448:\n        /* \"#utility.yul\":21857:21858   */\n      dup3\n        /* \"#utility.yul\":21854:21855   */\n      dup3\n        /* \"#utility.yul\":21850:21859   */\n      add\n        /* \"#utility.yul\":21843:21859   */\n      swap1\n      pop\n        /* \"#utility.yul\":21560:21865   */\n      swap3\n      swap2\n      pop\n      pop\n      jump\t// out\n        /* \"#utility.yul\":21871:22053   */\n    tag_240:\n        /* \"#utility.yul\":22011:22045   */\n      0x5665726469637420686173206e6f74206265656e207265616368656420796574\n        /* \"#utility.yul\":22007:22008   */\n      0x00\n        /* \"#utility.yul\":21999:22005   */\n      dup3\n        /* \"#utility.yul\":21995:22009   */\n      add\n        /* \"#utility.yul\":21988:22046   */\n      mstore\n        /* \"#utility.yul\":21871:22053   */\n      pop\n      jump\t// out\n        /* \"#utility.yul\":22059:22425   */\n    tag_241:\n        /* \"#utility.yul\":22201:22204   */\n      0x00\n        /* \"#utility.yul\":22222:22289   */\n      tag_452\n        /* \"#utility.yul\":22286:22288   */\n      0x20\n        /* \"#utility.yul\":22281:22284   */\n      dup4\n        /* \"#utility.yul\":22222:22289   */\n      tag_195\n      jump\t// in\n    tag_452:\n        /* \"#utility.yul\":22215:22289   */\n      swap2\n      pop\n        /* \"#utility.yul\":22298:22391   */\n      tag_453\n        /* \"#utility.yul\":22387:22390   */\n      dup3\n        /* \"#utility.yul\":22298:22391   */\n      tag_240\n      jump\t// in\n    tag_453:\n        /* \"#utility.yul\":22416:22418   */\n      0x20\n        /* \"#utility.yul\":22411:22414   */\n      dup3\n        /* \"#utility.yul\":22407:22419   */\n      add\n        /* \"#utility.yul\":22400:22419   */\n      swap1\n      pop\n        /* \"#utility.yul\":22059:22425   */\n      swap2\n      swap1\n      pop\n      jump\t// out\n        /* \"#utility.yul\":22431:22850   */\n    tag_135:\n        /* \"#utility.yul\":22597:22601   */\n      0x00\n        /* \"#utility.yul\":22635:22637   */\n      0x20\n        /* \"#utility.yul\":22624:22633   */\n      dup3\n        /* \"#utility.yul\":22620:22638   */\n      add\n        /* \"#utility.yul\":22612:22638   */\n      swap1\n      pop\n        /* \"#utility.yul\":22684:22693   */\n      dup2\n        /* \"#utility.yul\":22678:22682   */\n      dup2\n        /* \"#utility.yul\":22674:22694   */\n      sub\n        /* \"#utility.yul\":22670:22671   */\n      0x00\n        /* \"#utility.yul\":22659:22668   */\n      dup4\n        /* \"#utility.yul\":22655:22672   */\n      add\n        /* \"#utility.yul\":22648:22695   */\n      mstore\n        /* \"#utility.yul\":22712:22843   */\n      tag_455\n        /* \"#utility.yul\":22838:22842   */\n      dup2\n        /* \"#utility.yul\":22712:22843   */\n      tag_241\n      jump\t// in\n    tag_455:\n        /* \"#utility.yul\":22704:22843   */\n      swap1\n      pop\n        /* \"#utility.yul\":22431:22850   */\n      swap2\n      swap1\n      pop\n      jump\t// out\n        /* \"#utility.yul\":22856:23036   */\n    tag_242:\n        /* \"#utility.yul\":22904:22981   */\n      0x4e487b7100000000000000000000000000000000000000000000000000000000\n        /* \"#utility.yul\":22901:22902   */\n      0x00\n        /* \"#utility.yul\":22894:22982   */\n      mstore\n        /* \"#utility.yul\":23001:23005   */\n      0x12\n        /* \"#utility.yul\":22998:22999   */\n      0x04\n        /* \"#utility.yul\":22991:23006   */\n      mstore\n        /* \"#utility.yul\":23025:23029   */\n      0x24\n        /* \"#utility.yul\":23022:23023   */\n      0x00\n        /* \"#utility.yul\":23015:23030   */\n      revert\n        /* \"#utility.yul\":23042:23227   */\n    tag_137:\n        /* \"#utility.yul\":23082:23083   */\n      0x00\n        /* \"#utility.yul\":23099:23119   */\n      tag_458\n        /* \"#utility.yul\":23117:23118   */\n      dup3\n        /* \"#utility.yul\":23099:23119   */\n      tag_186\n      jump\t// in\n    tag_458:\n        /* \"#utility.yul\":23094:23119   */\n      swap2\n      pop\n        /* \"#utility.yul\":23133:23153   */\n      tag_459\n        /* \"#utility.yul\":23151:23152   */\n      dup4\n        /* \"#utility.yul\":23133:23153   */\n      tag_186\n      jump\t// in\n    tag_459:\n        /* \"#utility.yul\":23128:23153   */\n      swap3\n      pop\n        /* \"#utility.yul\":23172:23173   */\n      dup3\n        /* \"#utility.yul\":23162:23197   */\n      tag_460\n      jumpi\n        /* \"#utility.yul\":23177:23195   */\n      tag_461\n      tag_242\n      jump\t// in\n    tag_461:\n        /* \"#utility.yul\":23162:23197   */\n    tag_460:\n        /* \"#utility.yul\":23219:23220   */\n      dup3\n        /* \"#utility.yul\":23216:23217   */\n      dup3\n        /* \"#utility.yul\":23212:23221   */\n      div\n        /* \"#utility.yul\":23207:23221   */\n      swap1\n      pop\n        /* \"#utility.yul\":23042:23227   */\n      swap3\n      swap2\n      pop\n      pop\n      jump\t// out\n        /* \"#utility.yul\":23233:23581   */\n    tag_139:\n        /* \"#utility.yul\":23273:23280   */\n      0x00\n        /* \"#utility.yul\":23296:23316   */\n      tag_463\n        /* \"#utility.yul\":23314:23315   */\n      dup3\n        /* \"#utility.yul\":23296:23316   */\n      tag_186\n      jump\t// in\n    tag_463:\n        /* \"#utility.yul\":23291:23316   */\n      swap2\n      pop\n        /* \"#utility.yul\":23330:23350   */\n      tag_464\n        /* \"#utility.yul\":23348:23349   */\n      dup4\n        /* \"#utility.yul\":23330:23350   */\n      tag_186\n      jump\t// in\n    tag_464:\n        /* \"#utility.yul\":23325:23350   */\n      swap3\n      pop\n        /* \"#utility.yul\":23518:23519   */\n      dup2\n        /* \"#utility.yul\":23450:23516   */\n      0xffffffffffffffffffffffffffffffffffffffffffffffffffffffffffffffff\n        /* \"#utility.yul\":23446:23520   */\n      div\n        /* \"#utility.yul\":23443:23444   */\n      dup4\n        /* \"#utility.yul\":23440:23521   */\n      gt\n        /* \"#utility.yul\":23435:23436   */\n      dup3\n        /* \"#utility.yul\":23428:23437   */\n      iszero\n        /* \"#utility.yul\":23421:23438   */\n      iszero\n        /* \"#utility.yul\":23417:23522   */\n      and\n        /* \"#utility.yul\":23414:23545   */\n      iszero\n      tag_465\n      jumpi\n        /* \"#utility.yul\":23525:23543   */\n      tag_466\n      tag_239\n      jump\t// in\n    tag_466:\n        /* \"#utility.yul\":23414:23545   */\n    tag_465:\n        /* \"#utility.yul\":23573:23574   */\n      dup3\n        /* \"#utility.yul\":23570:23571   */\n      dup3\n        /* \"#utility.yul\":23566:23575   */\n      mul\n        /* \"#utility.yul\":23555:23575   */\n      swap1\n      pop\n        /* \"#utility.yul\":23233:23581   */\n      swap3\n      swap2\n      pop\n      pop\n      jump\t// out\n        /* \"#utility.yul\":23587:23728   */\n    tag_243:\n        /* \"#utility.yul\":23636:23640   */\n      0x00\n        /* \"#utility.yul\":23659:23662   */\n      dup2\n        /* \"#utility.yul\":23651:23662   */\n      swap1\n      pop\n        /* \"#utility.yul\":23682:23685   */\n      dup2\n        /* \"#utility.yul\":23679:23680   */\n      0x00\n        /* \"#utility.yul\":23672:23686   */\n      mstore\n        /* \"#utility.yul\":23716:23720   */\n      0x20\n        /* \"#utility.yul\":23713:23714   */\n      0x00\n        /* \"#utility.yul\":23703:23721   */\n      keccak256\n        /* \"#utility.yul\":23695:23721   */\n      swap1\n      pop\n        /* \"#utility.yul\":23587:23728   */\n      swap2\n      swap1\n      pop\n      jump\t// out\n        /* \"#utility.yul\":23734:23827   */\n    tag_244:\n        /* \"#utility.yul\":23771:23777   */\n      0x00\n        /* \"#utility.yul\":23818:23820   */\n      0x20\n        /* \"#utility.yul\":23813:23815   */\n      0x1f\n        /* \"#utility.yul\":23806:23811   */\n      dup4\n        /* \"#utility.yul\":23802:23816   */\n      add\n        /* \"#utility.yul\":23798:23821   */\n      div\n        /* \"#utility.yul\":23788:23821   */\n      swap1\n      pop\n        /* \"#utility.yul\":23734:23827   */\n      swap2\n      swap1\n      pop\n      jump\t// out\n        /* \"#utility.yul\":23833:23940   */\n    tag_245:\n        /* \"#utility.yul\":23877:23885   */\n      0x00\n        /* \"#utility.yul\":23927:23932   */\n      dup3\n        /* \"#utility.yul\":23921:23925   */\n      dup3\n        /* \"#utility.yul\":23917:23933   */\n      shl\n        /* \"#utility.yul\":23896:23933   */\n      swap1\n      pop\n        /* \"#utility.yul\":23833:23940   */\n      swap3\n      swap2\n      pop\n      pop\n      jump\t// out\n        /* \"#utility.yul\":23946:24339   */\n    tag_246:\n        /* \"#utility.yul\":24015:24021   */\n      0x00\n        /* \"#utility.yul\":24065:24066   */\n      0x08\n        /* \"#utility.yul\":24053:24063   */\n      dup4\n        /* \"#utility.yul\":24049:24067   */\n      mul\n        /* \"#utility.yul\":24088:24185   */\n      tag_471\n        /* \"#utility.yul\":24118:24184   */\n      0xffffffffffffffffffffffffffffffffffffffffffffffffffffffffffffffff\n        /* \"#utility.yul\":24107:24116   */\n      dup3\n        /* \"#utility.yul\":24088:24185   */\n      tag_245\n      jump\t// in\n    tag_471:\n        /* \"#utility.yul\":24206:24245   */\n      tag_472\n        /* \"#utility.yul\":24236:24244   */\n      dup7\n        /* \"#utility.yul\":24225:24234   */\n      dup4\n        /* \"#utility.yul\":24206:24245   */\n      tag_245\n      jump\t// in\n    tag_472:\n        /* \"#utility.yul\":24194:24245   */\n      swap6\n      pop\n        /* \"#utility.yul\":24278:24282   */\n      dup1\n        /* \"#utility.yul\":24274:24283   */\n      not\n        /* \"#utility.yul\":24267:24272   */\n      dup5\n        /* \"#utility.yul\":24263:24284   */\n      and\n        /* \"#utility.yul\":24254:24284   */\n      swap4\n      pop\n        /* \"#utility.yul\":24327:24331   */\n      dup1\n        /* \"#utility.yul\":24317:24325   */\n      dup7\n        /* \"#utility.yul\":24313:24332   */\n      and\n        /* \"#utility.yul\":24306:24311   */\n      dup5\n        /* \"#utility.yul\":24303:24333   */\n      or\n        /* \"#utility.yul\":24293:24333   */\n      swap3\n      pop\n        /* \"#utility.yul\":24022:24339   */\n      pop\n      pop\n        /* \"#utility.yul\":23946:24339   */\n      swap4\n      swap3\n      pop\n      pop\n      pop\n      jump\t// out\n        /* \"#utility.yul\":24345:24405   */\n    tag_247:\n        /* \"#utility.yul\":24373:24376   */\n      0x00\n        /* \"#utility.yul\":24394:24399   */\n      dup2\n        /* \"#utility.yul\":24387:24399   */\n      swap1\n      pop\n        /* \"#utility.yul\":24345:24405   */\n      swap2\n      swap1\n      pop\n      jump\t// out\n        /* \"#utility.yul\":24411:24553   */\n    tag_248:\n        /* \"#utility.yul\":24461:24470   */\n      0x00\n        /* \"#utility.yul\":24494:24547   */\n      tag_475\n        /* \"#utility.yul\":24512:24546   */\n      tag_476\n        /* \"#utility.yul\":24521:24545   */\n      tag_477\n        /* \"#utility.yul\":24539:24544   */\n      dup5\n        /* \"#utility.yul\":24521:24545   */\n      tag_186\n      jump\t// in\n    tag_477:\n        /* \"#utility.yul\":24512:24546   */\n      tag_247\n      jump\t// in\n    tag_476:\n        /* \"#utility.yul\":24494:24547   */\n      tag_186\n      jump\t// in\n    tag_475:\n        /* \"#utility.yul\":24481:24547   */\n      swap1\n      pop\n        /* \"#utility.yul\":24411:24553   */\n      swap2\n      swap1\n      pop\n      jump\t// out\n        /* \"#utility.yul\":24559:24634   */\n    tag_249:\n        /* \"#utility.yul\":24602:24605   */\n      0x00\n        /* \"#utility.yul\":24623:24628   */\n      dup2\n        /* \"#utility.yul\":24616:24628   */\n      swap1\n      pop\n        /* \"#utility.yul\":24559:24634   */\n      swap2\n      swap1\n      pop\n      jump\t// out\n        /* \"#utility.yul\":24640:24909   */\n    tag_250:\n        /* \"#utility.yul\":24750:24789   */\n      tag_480\n        /* \"#utility.yul\":24781:24788   */\n      dup4\n        /* \"#utility.yul\":24750:24789   */\n      tag_248\n      jump\t// in\n    tag_480:\n        /* \"#utility.yul\":24811:24902   */\n      tag_481\n        /* \"#utility.yul\":24860:24901   */\n      tag_482\n        /* \"#utility.yul\":24884:24900   */\n      dup3\n        /* \"#utility.yul\":24860:24901   */\n      tag_249\n      jump\t// in\n    tag_482:\n        /* \"#utility.yul\":24852:24858   */\n      dup5\n        /* \"#utility.yul\":24845:24849   */\n      dup5\n        /* \"#utility.yul\":24839:24850   */\n      sload\n        /* \"#utility.yul\":24811:24902   */\n      tag_246\n      jump\t// in\n    tag_481:\n        /* \"#utility.yul\":24805:24809   */\n      dup3\n        /* \"#utility.yul\":24798:24903   */\n      sstore\n        /* \"#utility.yul\":24716:24909   */\n      pop\n        /* \"#utility.yul\":24640:24909   */\n      pop\n      pop\n      pop\n      jump\t// out\n        /* \"#utility.yul\":24915:24988   */\n    tag_251:\n        /* \"#utility.yul\":24960:24963   */\n      0x00\n        /* \"#utility.yul\":24915:24988   */\n      swap1\n      jump\t// out\n        /* \"#utility.yul\":24994:25183   */\n    tag_252:\n        /* \"#utility.yul\":25071:25103   */\n      tag_485\n      tag_251\n      jump\t// in\n    tag_485:\n        /* \"#utility.yul\":25112:25177   */\n      tag_486\n        /* \"#utility.yul\":25170:25176   */\n      dup2\n        /* \"#utility.yul\":25162:25168   */\n      dup5\n        /* \"#utility.yul\":25156:25160   */\n      dup5\n        /* \"#utility.yul\":25112:25177   */\n      tag_250\n      jump\t// in\n    tag_486:\n        /* \"#utility.yul\":25047:25183   */\n      pop\n        /* \"#utility.yul\":24994:25183   */\n      pop\n      pop\n      jump\t// out\n        /* \"#utility.yul\":25189:25375   */\n    tag_253:\n        /* \"#utility.yul\":25249:25369   */\n    tag_488:\n        /* \"#utility.yul\":25266:25269   */\n      dup2\n        /* \"#utility.yul\":25259:25264   */\n      dup2\n        /* \"#utility.yul\":25256:25270   */\n      lt\n        /* \"#utility.yul\":25249:25369   */\n      iszero\n      tag_490\n      jumpi\n        /* \"#utility.yul\":25320:25359   */\n      tag_491\n        /* \"#utility.yul\":25357:25358   */\n      0x00\n        /* \"#utility.yul\":25350:25355   */\n      dup3\n        /* \"#utility.yul\":25320:25359   */\n      tag_252\n      jump\t// in\n    tag_491:\n        /* \"#utility.yul\":25293:25294   */\n      0x01\n        /* \"#utility.yul\":25286:25291   */\n      dup2\n        /* \"#utility.yul\":25282:25295   */\n      add\n        /* \"#utility.yul\":25273:25295   */\n      swap1\n      pop\n        /* \"#utility.yul\":25249:25369   */\n      jump(tag_488)\n    tag_490:\n        /* \"#utility.yul\":25189:25375   */\n      pop\n      pop\n      jump\t// out\n        /* \"#utility.yul\":25381:25924   */\n    tag_254:\n        /* \"#utility.yul\":25482:25484   */\n      0x1f\n        /* \"#utility.yul\":25477:25480   */\n      dup3\n        /* \"#utility.yul\":25474:25485   */\n      gt\n        /* \"#utility.yul\":25471:25917   */\n      iszero\n      tag_493\n      jumpi\n        /* \"#utility.yul\":25516:25554   */\n      tag_494\n        /* \"#utility.yul\":25548:25553   */\n      dup2\n        /* \"#utility.yul\":25516:25554   */\n      tag_243\n      jump\t// in\n    tag_494:\n        /* \"#utility.yul\":25600:25629   */\n      tag_495\n        /* \"#utility.yul\":25618:25628   */\n      dup5\n        /* \"#utility.yul\":25600:25629   */\n      tag_244\n      jump\t// in\n    tag_495:\n        /* \"#utility.yul\":25590:25598   */\n      dup2\n        /* \"#utility.yul\":25586:25630   */\n      add\n        /* \"#utility.yul\":25783:25785   */\n      0x20\n        /* \"#utility.yul\":25771:25781   */\n      dup6\n        /* \"#utility.yul\":25768:25786   */\n      lt\n        /* \"#utility.yul\":25765:25814   */\n      iszero\n      tag_496\n      jumpi\n        /* \"#utility.yul\":25804:25812   */\n      dup2\n        /* \"#utility.yul\":25789:25812   */\n      swap1\n      pop\n        /* \"#utility.yul\":25765:25814   */\n    tag_496:\n        /* \"#utility.yul\":25827:25907   */\n      tag_497\n        /* \"#utility.yul\":25883:25905   */\n      tag_498\n        /* \"#utility.yul\":25901:25904   */\n      dup6\n        /* \"#utility.yul\":25883:25905   */\n      tag_244\n      jump\t// in\n    tag_498:\n        /* \"#utility.yul\":25873:25881   */\n      dup4\n        /* \"#utility.yul\":25869:25906   */\n      add\n        /* \"#utility.yul\":25856:25867   */\n      dup3\n        /* \"#utility.yul\":25827:25907   */\n      tag_253\n      jump\t// in\n    tag_497:\n        /* \"#utility.yul\":25486:25917   */\n      pop\n      pop\n        /* \"#utility.yul\":25471:25917   */\n    tag_493:\n        /* \"#utility.yul\":25381:25924   */\n      pop\n      pop\n      pop\n      jump\t// out\n        /* \"#utility.yul\":25930:26047   */\n    tag_255:\n        /* \"#utility.yul\":25984:25992   */\n      0x00\n        /* \"#utility.yul\":26034:26039   */\n      dup3\n        /* \"#utility.yul\":26028:26032   */\n      dup3\n        /* \"#utility.yul\":26024:26040   */\n      shr\n        /* \"#utility.yul\":26003:26040   */\n      swap1\n      pop\n        /* \"#utility.yul\":25930:26047   */\n      swap3\n      swap2\n      pop\n      pop\n      jump\t// out\n        /* \"#utility.yul\":26053:26222   */\n    tag_256:\n        /* \"#utility.yul\":26097:26103   */\n      0x00\n        /* \"#utility.yul\":26130:26181   */\n      tag_501\n        /* \"#utility.yul\":26178:26179   */\n      0x00\n        /* \"#utility.yul\":26174:26180   */\n      not\n        /* \"#utility.yul\":26166:26171   */\n      dup5\n        /* \"#utility.yul\":26163:26164   */\n      0x08\n        /* \"#utility.yul\":26159:26172   */\n      mul\n        /* \"#utility.yul\":26130:26181   */\n      tag_255\n      jump\t// in\n    tag_501:\n        /* \"#utility.yul\":26126:26182   */\n      not\n        /* \"#utility.yul\":26211:26215   */\n      dup1\n        /* \"#utility.yul\":26205:26209   */\n      dup4\n        /* \"#utility.yul\":26201:26216   */\n      and\n        /* \"#utility.yul\":26191:26216   */\n      swap2\n      pop\n        /* \"#utility.yul\":26104:26222   */\n      pop\n        /* \"#utility.yul\":26053:26222   */\n      swap3\n      swap2\n      pop\n      pop\n      jump\t// out\n        /* \"#utility.yul\":26227:26522   */\n    tag_257:\n        /* \"#utility.yul\":26303:26307   */\n      0x00\n        /* \"#utility.yul\":26449:26478   */\n      tag_503\n        /* \"#utility.yul\":26474:26477   */\n      dup4\n        /* \"#utility.yul\":26468:26472   */\n      dup4\n        /* \"#utility.yul\":26449:26478   */\n      tag_256\n      jump\t// in\n    tag_503:\n        /* \"#utility.yul\":26441:26478   */\n      swap2\n      pop\n        /* \"#utility.yul\":26511:26514   */\n      dup3\n        /* \"#utility.yul\":26508:26509   */\n      0x02\n        /* \"#utility.yul\":26504:26515   */\n      mul\n        /* \"#utility.yul\":26498:26502   */\n      dup3\n        /* \"#utility.yul\":26495:26516   */\n      or\n        /* \"#utility.yul\":26487:26516   */\n      swap1\n      pop\n        /* \"#utility.yul\":26227:26522   */\n      swap3\n      swap2\n      pop\n      pop\n      jump\t// out\n        /* \"#utility.yul\":26527:27922   */\n    tag_142:\n        /* \"#utility.yul\":26644:26681   */\n      tag_505\n        /* \"#utility.yul\":26677:26680   */\n      dup3\n        /* \"#utility.yul\":26644:26681   */\n      tag_194\n      jump\t// in\n    tag_505:\n        /* \"#utility.yul\":26746:26764   */\n      0xffffffffffffffff\n        /* \"#utility.yul\":26738:26744   */\n      dup2\n        /* \"#utility.yul\":26735:26765   */\n      gt\n        /* \"#utility.yul\":26732:26788   */\n      iszero\n      tag_506\n      jumpi\n        /* \"#utility.yul\":26768:26786   */\n      tag_507\n      tag_201\n      jump\t// in\n    tag_507:\n        /* \"#utility.yul\":26732:26788   */\n    tag_506:\n        /* \"#utility.yul\":26812:26850   */\n      tag_508\n        /* \"#utility.yul\":26844:26848   */\n      dup3\n        /* \"#utility.yul\":26838:26849   */\n      sload\n        /* \"#utility.yul\":26812:26850   */\n      tag_102\n      jump\t// in\n    tag_508:\n        /* \"#utility.yul\":26897:26964   */\n      tag_509\n        /* \"#utility.yul\":26957:26963   */\n      dup3\n        /* \"#utility.yul\":26949:26955   */\n      dup3\n        /* \"#utility.yul\":26943:26947   */\n      dup6\n        /* \"#utility.yul\":26897:26964   */\n      tag_254\n      jump\t// in\n    tag_509:\n        /* \"#utility.yul\":26991:26992   */\n      0x00\n        /* \"#utility.yul\":27015:27019   */\n      0x20\n        /* \"#utility.yul\":27002:27019   */\n      swap1\n      pop\n        /* \"#utility.yul\":27047:27049   */\n      0x1f\n        /* \"#utility.yul\":27039:27045   */\n      dup4\n        /* \"#utility.yul\":27036:27050   */\n      gt\n        /* \"#utility.yul\":27064:27065   */\n      0x01\n        /* \"#utility.yul\":27059:27677   */\n      dup2\n      eq\n      tag_511\n      jumpi\n        /* \"#utility.yul\":27721:27722   */\n      0x00\n        /* \"#utility.yul\":27738:27744   */\n      dup5\n        /* \"#utility.yul\":27735:27812   */\n      iszero\n      tag_512\n      jumpi\n        /* \"#utility.yul\":27787:27796   */\n      dup3\n        /* \"#utility.yul\":27782:27785   */\n      dup8\n        /* \"#utility.yul\":27778:27797   */\n      add\n        /* \"#utility.yul\":27772:27798   */\n      mload\n        /* \"#utility.yul\":27763:27798   */\n      swap1\n      pop\n        /* \"#utility.yul\":27735:27812   */\n    tag_512:\n        /* \"#utility.yul\":27838:27905   */\n      tag_513\n        /* \"#utility.yul\":27898:27904   */\n      dup6\n        /* \"#utility.yul\":27891:27896   */\n      dup3\n        /* \"#utility.yul\":27838:27905   */\n      tag_257\n      jump\t// in\n    tag_513:\n        /* \"#utility.yul\":27832:27836   */\n      dup7\n        /* \"#utility.yul\":27825:27906   */\n      sstore\n        /* \"#utility.yul\":27694:27916   */\n      pop\n        /* \"#utility.yul\":27029:27916   */\n      jump(tag_510)\n        /* \"#utility.yul\":27059:27677   */\n    tag_511:\n        /* \"#utility.yul\":27111:27115   */\n      0x1f\n        /* \"#utility.yul\":27107:27116   */\n      not\n        /* \"#utility.yul\":27099:27105   */\n      dup5\n        /* \"#utility.yul\":27095:27117   */\n      and\n        /* \"#utility.yul\":27145:27182   */\n      tag_514\n        /* \"#utility.yul\":27177:27181   */\n      dup7\n        /* \"#utility.yul\":27145:27182   */\n      tag_243\n      jump\t// in\n    tag_514:\n        /* \"#utility.yul\":27204:27205   */\n      0x00\n        /* \"#utility.yul\":27218:27426   */\n    tag_515:\n        /* \"#utility.yul\":27232:27239   */\n      dup3\n        /* \"#utility.yul\":27229:27230   */\n      dup2\n        /* \"#utility.yul\":27226:27240   */\n      lt\n        /* \"#utility.yul\":27218:27426   */\n      iszero\n      tag_517\n      jumpi\n        /* \"#utility.yul\":27311:27320   */\n      dup5\n        /* \"#utility.yul\":27306:27309   */\n      dup10\n        /* \"#utility.yul\":27302:27321   */\n      add\n        /* \"#utility.yul\":27296:27322   */\n      mload\n        /* \"#utility.yul\":27288:27294   */\n      dup3\n        /* \"#utility.yul\":27281:27323   */\n      sstore\n        /* \"#utility.yul\":27362:27363   */\n      0x01\n        /* \"#utility.yul\":27354:27360   */\n      dup3\n        /* \"#utility.yul\":27350:27364   */\n      add\n        /* \"#utility.yul\":27340:27364   */\n      swap2\n      pop\n        /* \"#utility.yul\":27409:27411   */\n      0x20\n        /* \"#utility.yul\":27398:27407   */\n      dup6\n        /* \"#utility.yul\":27394:27412   */\n      add\n        /* \"#utility.yul\":27381:27412   */\n      swap5\n      pop\n        /* \"#utility.yul\":27255:27259   */\n      0x20\n        /* \"#utility.yul\":27252:27253   */\n      dup2\n        /* \"#utility.yul\":27248:27260   */\n      add\n        /* \"#utility.yul\":27243:27260   */\n      swap1\n      pop\n        /* \"#utility.yul\":27218:27426   */\n      jump(tag_515)\n    tag_517:\n        /* \"#utility.yul\":27454:27460   */\n      dup7\n        /* \"#utility.yul\":27445:27452   */\n      dup4\n        /* \"#utility.yul\":27442:27461   */\n      lt\n        /* \"#utility.yul\":27439:27618   */\n      iszero\n      tag_518\n      jumpi\n        /* \"#utility.yul\":27512:27521   */\n      dup5\n        /* \"#utility.yul\":27507:27510   */\n      dup10\n        /* \"#utility.yul\":27503:27522   */\n      add\n        /* \"#utility.yul\":27497:27523   */\n      mload\n        /* \"#utility.yul\":27555:27603   */\n      tag_519\n        /* \"#utility.yul\":27597:27601   */\n      0x1f\n        /* \"#utility.yul\":27589:27595   */\n      dup10\n        /* \"#utility.yul\":27585:27602   */\n      and\n        /* \"#utility.yul\":27574:27583   */\n      dup3\n        /* \"#utility.yul\":27555:27603   */\n      tag_256\n      jump\t// in\n    tag_519:\n        /* \"#utility.yul\":27547:27553   */\n      dup4\n        /* \"#utility.yul\":27540:27604   */\n      sstore\n        /* \"#utility.yul\":27462:27618   */\n      pop\n        /* \"#utility.yul\":27439:27618   */\n    tag_518:\n        /* \"#utility.yul\":27664:27665   */\n      0x01\n        /* \"#utility.yul\":27660:27661   */\n      0x02\n        /* \"#utility.yul\":27652:27658   */\n      dup9\n        /* \"#utility.yul\":27648:27662   */\n      mul\n        /* \"#utility.yul\":27644:27666   */\n      add\n        /* \"#utility.yul\":27638:27642   */\n      dup9\n        /* \"#utility.yul\":27631:27667   */\n      sstore\n        /* \"#utility.yul\":27066:27677   */\n      pop\n      pop\n      pop\n        /* \"#utility.yul\":27029:27916   */\n    tag_510:\n      pop\n        /* \"#utility.yul\":26619:27922   */\n      pop\n      pop\n      pop\n        /* \"#utility.yul\":26527:27922   */\n      pop\n      pop\n      jump\t// out\n        /* \"#utility.yul\":27928:28108   */\n    tag_148:\n        /* \"#utility.yul\":27976:28053   */\n      0x4e487b7100000000000000000000000000000000000000000000000000000000\n        /* \"#utility.yul\":27973:27974   */\n      0x00\n        /* \"#utility.yul\":27966:28054   */\n      mstore\n        /* \"#utility.yul\":28073:28077   */\n      0x32\n        /* \"#utility.yul\":28070:28071   */\n      0x04\n        /* \"#utility.yul\":28063:28078   */\n      mstore\n        /* \"#utility.yul\":28097:28101   */\n      0x24\n        /* \"#utility.yul\":28094:28095   */\n      0x00\n        /* \"#utility.yul\":28087:28102   */\n      revert\n        /* \"#utility.yul\":28114:28200   */\n    tag_258:\n        /* \"#utility.yul\":28149:28156   */\n      0x00\n        /* \"#utility.yul\":28189:28193   */\n      0xff\n        /* \"#utility.yul\":28182:28187   */\n      dup3\n        /* \"#utility.yul\":28178:28194   */\n      and\n        /* \"#utility.yul\":28167:28194   */\n      swap1\n      pop\n        /* \"#utility.yul\":28114:28200   */\n      swap2\n      swap1\n      pop\n      jump\t// out\n        /* \"#utility.yul\":28206:28373   */\n    tag_156:\n        /* \"#utility.yul\":28243:28246   */\n      0x00\n        /* \"#utility.yul\":28266:28288   */\n      tag_523\n        /* \"#utility.yul\":28282:28287   */\n      dup3\n        /* \"#utility.yul\":28266:28288   */\n      tag_258\n      jump\t// in\n    tag_523:\n        /* \"#utility.yul\":28257:28288   */\n      swap2\n      pop\n        /* \"#utility.yul\":28310:28314   */\n      0xff\n        /* \"#utility.yul\":28303:28308   */\n      dup3\n        /* \"#utility.yul\":28300:28315   */\n      sub\n        /* \"#utility.yul\":28297:28338   */\n      tag_524\n      jumpi\n        /* \"#utility.yul\":28318:28336   */\n      tag_525\n      tag_239\n      jump\t// in\n    tag_525:\n        /* \"#utility.yul\":28297:28338   */\n    tag_524:\n        /* \"#utility.yul\":28365:28366   */\n      0x01\n        /* \"#utility.yul\":28358:28363   */\n      dup3\n        /* \"#utility.yul\":28354:28367   */\n      add\n        /* \"#utility.yul\":28347:28367   */\n      swap1\n      pop\n        /* \"#utility.yul\":28206:28373   */\n      swap2\n      swap1\n      pop\n      jump\t// out\n\n    auxdata: 0xa2646970667358221220c707ad2ee1064c41d6d37c865beaeb25e60d978ac6efa0e579bb88552e90a82c64736f6c634300080f0033\n}\n",
				"bytecode": {
					"linkReferences": {},
					"object": "60806040523480156200001157600080fd5b5060405162002d7438038062002d74833981810160405281019062000037919062000348565b33600360006101000a81548173ffffffffffffffffffffffffffffffffffffffff021916908373ffffffffffffffffffffffffffffffffffffffff1602179055508142620000869190620003f2565b60018190555080600481905550600060058190555060006006819055506040518060400160405280600881526020017f52656a656374656400000000000000000000000000000000000000000000000081525060029081620000e9919062000690565b50306000806101000a81548173ffffffffffffffffffffffffffffffffffffffff021916908373ffffffffffffffffffffffffffffffffffffffff16021790555060405180604001604052806000815260200184815250600a60008201518160000155602082015181600101908162000163919062000690565b5090505050505062000777565b6000604051905090565b600080fd5b600080fd5b600080fd5b600080fd5b6000601f19601f8301169050919050565b7f4e487b7100000000000000000000000000000000000000000000000000000000600052604160045260246000fd5b620001d9826200018e565b810181811067ffffffffffffffff82111715620001fb57620001fa6200019f565b5b80604052505050565b60006200021062000170565b90506200021e8282620001ce565b919050565b600067ffffffffffffffff8211156200024157620002406200019f565b5b6200024c826200018e565b9050602081019050919050565b60005b83811015620002795780820151818401526020810190506200025c565b8381111562000289576000848401525b50505050565b6000620002a6620002a08462000223565b62000204565b905082815260208101848484011115620002c557620002c462000189565b5b620002d284828562000259565b509392505050565b600082601f830112620002f257620002f162000184565b5b8151620003048482602086016200028f565b91505092915050565b6000819050919050565b62000322816200030d565b81146200032e57600080fd5b50565b600081519050620003428162000317565b92915050565b6000806000606084860312156200036457620003636200017a565b5b600084015167ffffffffffffffff8111156200038557620003846200017f565b5b6200039386828701620002da565b9350506020620003a68682870162000331565b9250506040620003b98682870162000331565b9150509250925092565b7f4e487b7100000000000000000000000000000000000000000000000000000000600052601160045260246000fd5b6000620003ff826200030d565b91506200040c836200030d565b9250827fffffffffffffffffffffffffffffffffffffffffffffffffffffffffffffffff03821115620004445762000443620003c3565b5b828201905092915050565b600081519050919050565b7f4e487b7100000000000000000000000000000000000000000000000000000000600052602260045260246000fd5b60006002820490506001821680620004a257607f821691505b602082108103620004b857620004b76200045a565b5b50919050565b60008190508160005260206000209050919050565b60006020601f8301049050919050565b600082821b905092915050565b600060088302620005227fffffffffffffffffffffffffffffffffffffffffffffffffffffffffffffffff82620004e3565b6200052e8683620004e3565b95508019841693508086168417925050509392505050565b6000819050919050565b6000620005716200056b62000565846200030d565b62000546565b6200030d565b9050919050565b6000819050919050565b6200058d8362000550565b620005a56200059c8262000578565b848454620004f0565b825550505050565b600090565b620005bc620005ad565b620005c981848462000582565b505050565b5b81811015620005f157620005e5600082620005b2565b600181019050620005cf565b5050565b601f82111562000640576200060a81620004be565b6200061584620004d3565b8101602085101562000625578190505b6200063d6200063485620004d3565b830182620005ce565b50505b505050565b600082821c905092915050565b6000620006656000198460080262000645565b1980831691505092915050565b600062000680838362000652565b9150826002028217905092915050565b6200069b826200044f565b67ffffffffffffffff811115620006b757620006b66200019f565b5b620006c3825462000489565b620006d0828285620005f5565b600060209050601f831160018114620007085760008415620006f3578287015190505b620006ff858262000672565b8655506200076f565b601f1984166200071886620004be565b60005b8281101562000742578489015182556001820191506020850194506020810190506200071b565b868310156200076257848901516200075e601f89168262000652565b8355505b6001600288020188555050505b505050505050565b6125ed80620007876000396000f3fe608060405234801561001057600080fd5b50600436106101005760003560e01c8063753ec10311610097578063d77aa74911610066578063d77aa74914610294578063da58c7d9146102b2578063f6b4dfb4146102e4578063fe8ff2361461030257610100565b8063753ec1031461021757806395b02dfa146102365780639aa4bbdd14610240578063a5ea11da1461027257610100565b80635361a0ea116100d35780635361a0ea1461018b5780635c39fcc1146101bd578063604c8333146101db5780637403c5e5146101f957610100565b80630cb6aaf11461010557806315fe6f1b1461013557806319eb4a9014610151578063323082d71461016f575b600080fd5b61011f600480360381019061011a9190611740565b610322565b60405161012c91906117ae565b60405180910390f35b61014f600480360381019061014a91906117f5565b610361565b005b610159610702565b60405161016691906118bb565b60405180910390f35b61018960048036038101906101849190611a12565b610797565b005b6101a560048036038101906101a091906117f5565b610dc3565b6040516101b493929190611a76565b60405180910390f35b6101c5610ed8565b6040516101d291906117ae565b60405180910390f35b6101e3610efe565b6040516101f09190611abc565b60405180910390f35b610201610f04565b60405161020e9190611abc565b60405180910390f35b61021f610f0a565b60405161022d929190611ad7565b60405180910390f35b61023e610fa4565b005b61025a600480360381019061025591906117f5565b61128f565b60405161026993929190611b07565b60405180910390f35b61027a6112f3565b60405161028b959493929190611b3e565b60405180910390f35b61029c6113c9565b6040516102a99190611abc565b60405180910390f35b6102cc60048036038101906102c79190611740565b6113cf565b6040516102db93929190611b07565b60405180910390f35b6102ec61143f565b6040516102f991906117ae565b60405180910390f35b61030a611463565b60405161031993929190611d3d565b60405180910390f35b6008818154811061033257600080fd5b906000526020600020016000915054906101000a900473ffffffffffffffffffffffffffffffffffffffff1681565b600360009054906101000a900473ffffffffffffffffffffffffffffffffffffffff1673ffffffffffffffffffffffffffffffffffffffff163373ffffffffffffffffffffffffffffffffffffffff16146103f1576040517f08c379a00000000000000000000000000000000000000000000000000000000081526004016103e890611dfb565b60405180910390fd5b600360009054906101000a900473ffffffffffffffffffffffffffffffffffffffff1673ffffffffffffffffffffffffffffffffffffffff168173ffffffffffffffffffffffffffffffffffffffff1603610481576040517f08c379a000000000000000000000000000000000000000000000000000000000815260040161047890611e67565b60405180910390fd5b600073ffffffffffffffffffffffffffffffffffffffff16600960008373ffffffffffffffffffffffffffffffffffffffff1673ffffffffffffffffffffffffffffffffffffffff16815260200190815260200160002060000160019054906101000a900473ffffffffffffffffffffffffffffffffffffffff1673ffffffffffffffffffffffffffffffffffffffff1614610552576040517f08c379a000000000000000000000000000000000000000000000000000000000815260040161054990611ed3565b60405180910390fd5b6001544210610596576040517f08c379a000000000000000000000000000000000000000000000000000000000815260040161058d90611f65565b60405180910390fd5b600060405180606001604052806000151581526020018373ffffffffffffffffffffffffffffffffffffffff16815260200160001515815250905080600960008473ffffffffffffffffffffffffffffffffffffffff1673ffffffffffffffffffffffffffffffffffffffff16815260200190815260200160002060008201518160000160006101000a81548160ff02191690831515021790555060208201518160000160016101000a81548173ffffffffffffffffffffffffffffffffffffffff021916908373ffffffffffffffffffffffffffffffffffffffff16021790555060408201518160000160156101000a81548160ff0219169083151502179055509050506008829080600181540180825580915050600190039060005260206000200160009091909190916101000a81548173ffffffffffffffffffffffffffffffffffffffff021916908373ffffffffffffffffffffffffffffffffffffffff1602179055505050565b6060600a600101805461071490611fb4565b80601f016020809104026020016040519081016040528092919081815260200182805461074090611fb4565b801561078d5780601f106107625761010080835404028352916020019161078d565b820191906000526020600020905b81548152906001019060200180831161077057829003601f168201915b5050505050905090565b60015442106107db576040517f08c379a00000000000000000000000000000000000000000000000000000000081526004016107d290612031565b60405180910390fd5b6000600960003373ffffffffffffffffffffffffffffffffffffffff1673ffffffffffffffffffffffffffffffffffffffff1681526020019081526020016000206040518060600160405290816000820160009054906101000a900460ff161515151581526020016000820160019054906101000a900473ffffffffffffffffffffffffffffffffffffffff1673ffffffffffffffffffffffffffffffffffffffff1673ffffffffffffffffffffffffffffffffffffffff1681526020016000820160159054906101000a900460ff1615151515815250509050600073ffffffffffffffffffffffffffffffffffffffff16816020015173ffffffffffffffffffffffffffffffffffffffff1603610928576040517f08c379a000000000000000000000000000000000000000000000000000000000815260040161091f9061209d565b60405180910390fd5b80600001511561096d576040517f08c379a000000000000000000000000000000000000000000000000000000000815260040161096490612109565b60405180910390fd5b6040518060400160405280600981526020017f6920617070726f7665000000000000000000000000000000000000000000000081525080519060200120828051906020012003610bd2576001600960003373ffffffffffffffffffffffffffffffffffffffff1673ffffffffffffffffffffffffffffffffffffffff16815260200190815260200160002060000160006101000a81548160ff0219169083151502179055506001600960003373ffffffffffffffffffffffffffffffffffffffff1673ffffffffffffffffffffffffffffffffffffffff16815260200190815260200160002060000160156101000a81548160ff021916908315150217905550600160066000828254610a809190612158565b925050819055506001600a6000016000828254610a9d9190612158565b925050819055506007600960003373ffffffffffffffffffffffffffffffffffffffff1673ffffffffffffffffffffffffffffffffffffffff168152602001908152602001600020908060018154018082558091505060019003906000526020600020016000909190919091506000820160009054906101000a900460ff168160000160006101000a81548160ff0219169083151502179055506000820160019054906101000a900473ffffffffffffffffffffffffffffffffffffffff168160000160016101000a81548173ffffffffffffffffffffffffffffffffffffffff021916908373ffffffffffffffffffffffffffffffffffffffff1602179055506000820160159054906101000a900460ff168160000160156101000a81548160ff0219169083151502179055505050610dbf565b6040518060400160405280600c81526020017f6920646973617070726f7665000000000000000000000000000000000000000081525080519060200120828051906020012003610dbe576001600960003373ffffffffffffffffffffffffffffffffffffffff1673ffffffffffffffffffffffffffffffffffffffff16815260200190815260200160002060000160006101000a81548160ff0219169083151502179055506001600a6000016000828254610c8d9190612158565b925050819055506007600960003373ffffffffffffffffffffffffffffffffffffffff1673ffffffffffffffffffffffffffffffffffffffff168152602001908152602001600020908060018154018082558091505060019003906000526020600020016000909190919091506000820160009054906101000a900460ff168160000160006101000a81548160ff0219169083151502179055506000820160019054906101000a900473ffffffffffffffffffffffffffffffffffffffff168160000160016101000a81548173ffffffffffffffffffffffffffffffffffffffff021916908373ffffffffffffffffffffffffffffffffffffffff1602179055506000820160159054906101000a900460ff168160000160156101000a81548160ff02191690831515021790555050505b5b5050565b6000806000600960008573ffffffffffffffffffffffffffffffffffffffff1673ffffffffffffffffffffffffffffffffffffffff16815260200190815260200160002060000160159054906101000a900460ff16600960008673ffffffffffffffffffffffffffffffffffffffff1673ffffffffffffffffffffffffffffffffffffffff16815260200190815260200160002060000160009054906101000a900460ff16600960008773ffffffffffffffffffffffffffffffffffffffff1673ffffffffffffffffffffffffffffffffffffffff16815260200190815260200160002060000160019054906101000a900473ffffffffffffffffffffffffffffffffffffffff169250925092509193909250565b600360009054906101000a900473ffffffffffffffffffffffffffffffffffffffff1681565b60055481565b60065481565b600a806000015490806001018054610f2190611fb4565b80601f0160208091040260200160405190810160405280929190818152602001828054610f4d90611fb4565b8015610f9a5780601f10610f6f57610100808354040283529160200191610f9a565b820191906000526020600020905b815481529060010190602001808311610f7d57829003601f168201915b5050505050905082565b600154421015610fe9576040517f08c379a0000000000000000000000000000000000000000000000000000000008152600401610fe0906121fa565b60405180910390fd5b6064600880549050600654610ffe9190612249565b611008919061227a565b6005819055506004546005541061105f576040518060400160405280600881526020017f41636365707465640000000000000000000000000000000000000000000000008152506002908161105d9190612480565b505b60005b6008805490508160ff16101561128c57600015156009600060088460ff168154811061109157611090612552565b5b9060005260206000200160009054906101000a900473ffffffffffffffffffffffffffffffffffffffff1673ffffffffffffffffffffffffffffffffffffffff1673ffffffffffffffffffffffffffffffffffffffff16815260200190815260200160002060000160009054906101000a900460ff161515036112795760076009600060088460ff168154811061112b5761112a612552565b5b9060005260206000200160009054906101000a900473ffffffffffffffffffffffffffffffffffffffff1673ffffffffffffffffffffffffffffffffffffffff1673ffffffffffffffffffffffffffffffffffffffff168152602001908152602001600020908060018154018082558091505060019003906000526020600020016000909190919091506000820160009054906101000a900460ff168160000160006101000a81548160ff0219169083151502179055506000820160019054906101000a900473ffffffffffffffffffffffffffffffffffffffff168160000160016101000a81548173ffffffffffffffffffffffffffffffffffffffff021916908373ffffffffffffffffffffffffffffffffffffffff1602179055506000820160159054906101000a900460ff168160000160156101000a81548160ff02191690831515021790555050505b80806112849061258e565b915050611062565b50565b60096020528060005260406000206000915090508060000160009054906101000a900460ff16908060000160019054906101000a900473ffffffffffffffffffffffffffffffffffffffff16908060000160159054906101000a900460ff16905083565b6060600080600080600a600101600154600360009054906101000a900473ffffffffffffffffffffffffffffffffffffffff1660045460065484805461133890611fb4565b80601f016020809104026020016040519081016040528092919081815260200182805461136490611fb4565b80156113b15780601f10611386576101008083540402835291602001916113b1565b820191906000526020600020905b81548152906001019060200180831161139457829003601f168201915b50505050509450945094509450945094509091929394565b60045481565b600781815481106113df57600080fd5b906000526020600020016000915090508060000160009054906101000a900460ff16908060000160019054906101000a900473ffffffffffffffffffffffffffffffffffffffff16908060000160159054906101000a900460ff16905083565b60008054906101000a900473ffffffffffffffffffffffffffffffffffffffff1681565b606061146d6116dc565b60606001544210156114b4576040517f08c379a00000000000000000000000000000000000000000000000000000000081526004016114ab906121fa565b60405180910390fd5b6002600a60078280546114c690611fb4565b80601f01602080910402602001604051908101604052809291908181526020018280546114f290611fb4565b801561153f5780601f106115145761010080835404028352916020019161153f565b820191906000526020600020905b81548152906001019060200180831161152257829003601f168201915b50505050509250816040518060400160405290816000820154815260200160018201805461156c90611fb4565b80601f016020809104026020016040519081016040528092919081815260200182805461159890611fb4565b80156115e55780601f106115ba576101008083540402835291602001916115e5565b820191906000526020600020905b8154815290600101906020018083116115c857829003601f168201915b505050505081525050915080805480602002602001604051908101604052809291908181526020016000905b828210156116cb578382906000526020600020016040518060600160405290816000820160009054906101000a900460ff161515151581526020016000820160019054906101000a900473ffffffffffffffffffffffffffffffffffffffff1673ffffffffffffffffffffffffffffffffffffffff1673ffffffffffffffffffffffffffffffffffffffff1681526020016000820160159054906101000a900460ff16151515158152505081526020019060010190611611565b505050509050925092509250909192565b604051806040016040528060008152602001606081525090565b6000604051905090565b600080fd5b600080fd5b6000819050919050565b61171d8161170a565b811461172857600080fd5b50565b60008135905061173a81611714565b92915050565b60006020828403121561175657611755611700565b5b60006117648482850161172b565b91505092915050565b600073ffffffffffffffffffffffffffffffffffffffff82169050919050565b60006117988261176d565b9050919050565b6117a88161178d565b82525050565b60006020820190506117c3600083018461179f565b92915050565b6117d28161178d565b81146117dd57600080fd5b50565b6000813590506117ef816117c9565b92915050565b60006020828403121561180b5761180a611700565b5b6000611819848285016117e0565b91505092915050565b600081519050919050565b600082825260208201905092915050565b60005b8381101561185c578082015181840152602081019050611841565b8381111561186b576000848401525b50505050565b6000601f19601f8301169050919050565b600061188d82611822565b611897818561182d565b93506118a781856020860161183e565b6118b081611871565b840191505092915050565b600060208201905081810360008301526118d58184611882565b905092915050565b600080fd5b600080fd5b7f4e487b7100000000000000000000000000000000000000000000000000000000600052604160045260246000fd5b61191f82611871565b810181811067ffffffffffffffff8211171561193e5761193d6118e7565b5b80604052505050565b60006119516116f6565b905061195d8282611916565b919050565b600067ffffffffffffffff82111561197d5761197c6118e7565b5b61198682611871565b9050602081019050919050565b82818337600083830152505050565b60006119b56119b084611962565b611947565b9050828152602081018484840111156119d1576119d06118e2565b5b6119dc848285611993565b509392505050565b600082601f8301126119f9576119f86118dd565b5b8135611a098482602086016119a2565b91505092915050565b600060208284031215611a2857611a27611700565b5b600082013567ffffffffffffffff811115611a4657611a45611705565b5b611a52848285016119e4565b91505092915050565b60008115159050919050565b611a7081611a5b565b82525050565b6000606082019050611a8b6000830186611a67565b611a986020830185611a67565b611aa5604083018461179f565b949350505050565b611ab68161170a565b82525050565b6000602082019050611ad16000830184611aad565b92915050565b6000604082019050611aec6000830185611aad565b8181036020830152611afe8184611882565b90509392505050565b6000606082019050611b1c6000830186611a67565b611b29602083018561179f565b611b366040830184611a67565b949350505050565b600060a0820190508181036000830152611b588188611882565b9050611b676020830187611aad565b611b74604083018661179f565b611b816060830185611aad565b611b8e6080830184611aad565b9695505050505050565b611ba18161170a565b82525050565b600082825260208201905092915050565b6000611bc382611822565b611bcd8185611ba7565b9350611bdd81856020860161183e565b611be681611871565b840191505092915050565b6000604083016000830151611c096000860182611b98565b5060208301518482036020860152611c218282611bb8565b9150508091505092915050565b600081519050919050565b600082825260208201905092915050565b6000819050602082019050919050565b611c6381611a5b565b82525050565b611c728161178d565b82525050565b606082016000820151611c8e6000850182611c5a565b506020820151611ca16020850182611c69565b506040820151611cb46040850182611c5a565b50505050565b6000611cc68383611c78565b60608301905092915050565b6000602082019050919050565b6000611cea82611c2e565b611cf48185611c39565b9350611cff83611c4a565b8060005b83811015611d30578151611d178882611cba565b9750611d2283611cd2565b925050600181019050611d03565b5085935050505092915050565b60006060820190508181036000830152611d578186611882565b90508181036020830152611d6b8185611bf1565b90508181036040830152611d7f8184611cdf565b9050949350505050565b7f4f6e6c7920696e69746961746f722063616e207265676973746572206120726560008201527f63697069656e742e000000000000000000000000000000000000000000000000602082015250565b6000611de560288361182d565b9150611df082611d89565b604082019050919050565b60006020820190508181036000830152611e1481611dd8565b9050919050565b7f496e69746961746f722063616e277420766f7465210000000000000000000000600082015250565b6000611e5160158361182d565b9150611e5c82611e1b565b602082019050919050565b60006020820190508181036000830152611e8081611e44565b9050919050565b7f526563697069656e7420697320616c7265616479207265676973746572656400600082015250565b6000611ebd601f8361182d565b9150611ec882611e87565b602082019050919050565b60006020820190508181036000830152611eec81611eb0565b9050919050565b7f50726f706f73616c20686173207265616368656420697473206578706972792060008201527f6461746500000000000000000000000000000000000000000000000000000000602082015250565b6000611f4f60248361182d565b9150611f5a82611ef3565b604082019050919050565b60006020820190508181036000830152611f7e81611f42565b9050919050565b7f4e487b7100000000000000000000000000000000000000000000000000000000600052602260045260246000fd5b60006002820490506001821680611fcc57607f821691505b602082108103611fdf57611fde611f85565b5b50919050565b7f566f74696e672068617320657870697265640000000000000000000000000000600082015250565b600061201b60128361182d565b915061202682611fe5565b602082019050919050565b6000602082019050818103600083015261204a8161200e565b9050919050565b7f596f7520617265206e6f74207265676973746572656420746f20766f74650000600082015250565b6000612087601e8361182d565b915061209282612051565b602082019050919050565b600060208201905081810360008301526120b68161207a565b9050919050565b7f596f7520616c72656164792073656e74206120726573706f6e73652e00000000600082015250565b60006120f3601c8361182d565b91506120fe826120bd565b602082019050919050565b60006020820190508181036000830152612122816120e6565b9050919050565b7f4e487b7100000000000000000000000000000000000000000000000000000000600052601160045260246000fd5b60006121638261170a565b915061216e8361170a565b9250827fffffffffffffffffffffffffffffffffffffffffffffffffffffffffffffffff038211156121a3576121a2612129565b5b828201905092915050565b7f5665726469637420686173206e6f74206265656e207265616368656420796574600082015250565b60006121e460208361182d565b91506121ef826121ae565b602082019050919050565b60006020820190508181036000830152612213816121d7565b9050919050565b7f4e487b7100000000000000000000000000000000000000000000000000000000600052601260045260246000fd5b60006122548261170a565b915061225f8361170a565b92508261226f5761226e61221a565b5b828204905092915050565b60006122858261170a565b91506122908361170a565b9250817fffffffffffffffffffffffffffffffffffffffffffffffffffffffffffffffff04831182151516156122c9576122c8612129565b5b828202905092915050565b60008190508160005260206000209050919050565b60006020601f8301049050919050565b600082821b905092915050565b6000600883026123367fffffffffffffffffffffffffffffffffffffffffffffffffffffffffffffffff826122f9565b61234086836122f9565b95508019841693508086168417925050509392505050565b6000819050919050565b600061237d6123786123738461170a565b612358565b61170a565b9050919050565b6000819050919050565b61239783612362565b6123ab6123a382612384565b848454612306565b825550505050565b600090565b6123c06123b3565b6123cb81848461238e565b505050565b5b818110156123ef576123e46000826123b8565b6001810190506123d1565b5050565b601f82111561243457612405816122d4565b61240e846122e9565b8101602085101561241d578190505b612431612429856122e9565b8301826123d0565b50505b505050565b600082821c905092915050565b600061245760001984600802612439565b1980831691505092915050565b60006124708383612446565b9150826002028217905092915050565b61248982611822565b67ffffffffffffffff8111156124a2576124a16118e7565b5b6124ac8254611fb4565b6124b78282856123f3565b600060209050601f8311600181146124ea57600084156124d8578287015190505b6124e28582612464565b86555061254a565b601f1984166124f8866122d4565b60005b82811015612520578489015182556001820191506020850194506020810190506124fb565b8683101561253d5784890151612539601f891682612446565b8355505b6001600288020188555050505b505050505050565b7f4e487b7100000000000000000000000000000000000000000000000000000000600052603260045260246000fd5b600060ff82169050919050565b600061259982612581565b915060ff82036125ac576125ab612129565b5b60018201905091905056fea2646970667358221220c707ad2ee1064c41d6d37c865beaeb25e60d978ac6efa0e579bb88552e90a82c64736f6c634300080f0033",
					"opcodes": "PUSH1 0x80 PUSH1 0x40 MSTORE CALLVALUE DUP1 ISZERO PUSH3 0x11 JUMPI PUSH1 0x0 DUP1 REVERT JUMPDEST POP PUSH1 0x40 MLOAD PUSH3 0x2D74 CODESIZE SUB DUP1 PUSH3 0x2D74 DUP4 CODECOPY DUP2 DUP2 ADD PUSH1 0x40 MSTORE DUP2 ADD SWAP1 PUSH3 0x37 SWAP2 SWAP1 PUSH3 0x348 JUMP JUMPDEST CALLER PUSH1 0x3 PUSH1 0x0 PUSH2 0x100 EXP DUP2 SLOAD DUP2 PUSH20 0xFFFFFFFFFFFFFFFFFFFFFFFFFFFFFFFFFFFFFFFF MUL NOT AND SWAP1 DUP4 PUSH20 0xFFFFFFFFFFFFFFFFFFFFFFFFFFFFFFFFFFFFFFFF AND MUL OR SWAP1 SSTORE POP DUP2 TIMESTAMP PUSH3 0x86 SWAP2 SWAP1 PUSH3 0x3F2 JUMP JUMPDEST PUSH1 0x1 DUP2 SWAP1 SSTORE POP DUP1 PUSH1 0x4 DUP2 SWAP1 SSTORE POP PUSH1 0x0 PUSH1 0x5 DUP2 SWAP1 SSTORE POP PUSH1 0x0 PUSH1 0x6 DUP2 SWAP1 SSTORE POP PUSH1 0x40 MLOAD DUP1 PUSH1 0x40 ADD PUSH1 0x40 MSTORE DUP1 PUSH1 0x8 DUP2 MSTORE PUSH1 0x20 ADD PUSH32 0x52656A6563746564000000000000000000000000000000000000000000000000 DUP2 MSTORE POP PUSH1 0x2 SWAP1 DUP2 PUSH3 0xE9 SWAP2 SWAP1 PUSH3 0x690 JUMP JUMPDEST POP ADDRESS PUSH1 0x0 DUP1 PUSH2 0x100 EXP DUP2 SLOAD DUP2 PUSH20 0xFFFFFFFFFFFFFFFFFFFFFFFFFFFFFFFFFFFFFFFF MUL NOT AND SWAP1 DUP4 PUSH20 0xFFFFFFFFFFFFFFFFFFFFFFFFFFFFFFFFFFFFFFFF AND MUL OR SWAP1 SSTORE POP PUSH1 0x40 MLOAD DUP1 PUSH1 0x40 ADD PUSH1 0x40 MSTORE DUP1 PUSH1 0x0 DUP2 MSTORE PUSH1 0x20 ADD DUP5 DUP2 MSTORE POP PUSH1 0xA PUSH1 0x0 DUP3 ADD MLOAD DUP2 PUSH1 0x0 ADD SSTORE PUSH1 0x20 DUP3 ADD MLOAD DUP2 PUSH1 0x1 ADD SWAP1 DUP2 PUSH3 0x163 SWAP2 SWAP1 PUSH3 0x690 JUMP JUMPDEST POP SWAP1 POP POP POP POP POP PUSH3 0x777 JUMP JUMPDEST PUSH1 0x0 PUSH1 0x40 MLOAD SWAP1 POP SWAP1 JUMP JUMPDEST PUSH1 0x0 DUP1 REVERT JUMPDEST PUSH1 0x0 DUP1 REVERT JUMPDEST PUSH1 0x0 DUP1 REVERT JUMPDEST PUSH1 0x0 DUP1 REVERT JUMPDEST PUSH1 0x0 PUSH1 0x1F NOT PUSH1 0x1F DUP4 ADD AND SWAP1 POP SWAP2 SWAP1 POP JUMP JUMPDEST PUSH32 0x4E487B7100000000000000000000000000000000000000000000000000000000 PUSH1 0x0 MSTORE PUSH1 0x41 PUSH1 0x4 MSTORE PUSH1 0x24 PUSH1 0x0 REVERT JUMPDEST PUSH3 0x1D9 DUP3 PUSH3 0x18E JUMP JUMPDEST DUP2 ADD DUP2 DUP2 LT PUSH8 0xFFFFFFFFFFFFFFFF DUP3 GT OR ISZERO PUSH3 0x1FB JUMPI PUSH3 0x1FA PUSH3 0x19F JUMP JUMPDEST JUMPDEST DUP1 PUSH1 0x40 MSTORE POP POP POP JUMP JUMPDEST PUSH1 0x0 PUSH3 0x210 PUSH3 0x170 JUMP JUMPDEST SWAP1 POP PUSH3 0x21E DUP3 DUP3 PUSH3 0x1CE JUMP JUMPDEST SWAP2 SWAP1 POP JUMP JUMPDEST PUSH1 0x0 PUSH8 0xFFFFFFFFFFFFFFFF DUP3 GT ISZERO PUSH3 0x241 JUMPI PUSH3 0x240 PUSH3 0x19F JUMP JUMPDEST JUMPDEST PUSH3 0x24C DUP3 PUSH3 0x18E JUMP JUMPDEST SWAP1 POP PUSH1 0x20 DUP2 ADD SWAP1 POP SWAP2 SWAP1 POP JUMP JUMPDEST PUSH1 0x0 JUMPDEST DUP4 DUP2 LT ISZERO PUSH3 0x279 JUMPI DUP1 DUP3 ADD MLOAD DUP2 DUP5 ADD MSTORE PUSH1 0x20 DUP2 ADD SWAP1 POP PUSH3 0x25C JUMP JUMPDEST DUP4 DUP2 GT ISZERO PUSH3 0x289 JUMPI PUSH1 0x0 DUP5 DUP5 ADD MSTORE JUMPDEST POP POP POP POP JUMP JUMPDEST PUSH1 0x0 PUSH3 0x2A6 PUSH3 0x2A0 DUP5 PUSH3 0x223 JUMP JUMPDEST PUSH3 0x204 JUMP JUMPDEST SWAP1 POP DUP3 DUP2 MSTORE PUSH1 0x20 DUP2 ADD DUP5 DUP5 DUP5 ADD GT ISZERO PUSH3 0x2C5 JUMPI PUSH3 0x2C4 PUSH3 0x189 JUMP JUMPDEST JUMPDEST PUSH3 0x2D2 DUP5 DUP3 DUP6 PUSH3 0x259 JUMP JUMPDEST POP SWAP4 SWAP3 POP POP POP JUMP JUMPDEST PUSH1 0x0 DUP3 PUSH1 0x1F DUP4 ADD SLT PUSH3 0x2F2 JUMPI PUSH3 0x2F1 PUSH3 0x184 JUMP JUMPDEST JUMPDEST DUP2 MLOAD PUSH3 0x304 DUP5 DUP3 PUSH1 0x20 DUP7 ADD PUSH3 0x28F JUMP JUMPDEST SWAP2 POP POP SWAP3 SWAP2 POP POP JUMP JUMPDEST PUSH1 0x0 DUP2 SWAP1 POP SWAP2 SWAP1 POP JUMP JUMPDEST PUSH3 0x322 DUP2 PUSH3 0x30D JUMP JUMPDEST DUP2 EQ PUSH3 0x32E JUMPI PUSH1 0x0 DUP1 REVERT JUMPDEST POP JUMP JUMPDEST PUSH1 0x0 DUP2 MLOAD SWAP1 POP PUSH3 0x342 DUP2 PUSH3 0x317 JUMP JUMPDEST SWAP3 SWAP2 POP POP JUMP JUMPDEST PUSH1 0x0 DUP1 PUSH1 0x0 PUSH1 0x60 DUP5 DUP7 SUB SLT ISZERO PUSH3 0x364 JUMPI PUSH3 0x363 PUSH3 0x17A JUMP JUMPDEST JUMPDEST PUSH1 0x0 DUP5 ADD MLOAD PUSH8 0xFFFFFFFFFFFFFFFF DUP2 GT ISZERO PUSH3 0x385 JUMPI PUSH3 0x384 PUSH3 0x17F JUMP JUMPDEST JUMPDEST PUSH3 0x393 DUP7 DUP3 DUP8 ADD PUSH3 0x2DA JUMP JUMPDEST SWAP4 POP POP PUSH1 0x20 PUSH3 0x3A6 DUP7 DUP3 DUP8 ADD PUSH3 0x331 JUMP JUMPDEST SWAP3 POP POP PUSH1 0x40 PUSH3 0x3B9 DUP7 DUP3 DUP8 ADD PUSH3 0x331 JUMP JUMPDEST SWAP2 POP POP SWAP3 POP SWAP3 POP SWAP3 JUMP JUMPDEST PUSH32 0x4E487B7100000000000000000000000000000000000000000000000000000000 PUSH1 0x0 MSTORE PUSH1 0x11 PUSH1 0x4 MSTORE PUSH1 0x24 PUSH1 0x0 REVERT JUMPDEST PUSH1 0x0 PUSH3 0x3FF DUP3 PUSH3 0x30D JUMP JUMPDEST SWAP2 POP PUSH3 0x40C DUP4 PUSH3 0x30D JUMP JUMPDEST SWAP3 POP DUP3 PUSH32 0xFFFFFFFFFFFFFFFFFFFFFFFFFFFFFFFFFFFFFFFFFFFFFFFFFFFFFFFFFFFFFFFF SUB DUP3 GT ISZERO PUSH3 0x444 JUMPI PUSH3 0x443 PUSH3 0x3C3 JUMP JUMPDEST JUMPDEST DUP3 DUP3 ADD SWAP1 POP SWAP3 SWAP2 POP POP JUMP JUMPDEST PUSH1 0x0 DUP2 MLOAD SWAP1 POP SWAP2 SWAP1 POP JUMP JUMPDEST PUSH32 0x4E487B7100000000000000000000000000000000000000000000000000000000 PUSH1 0x0 MSTORE PUSH1 0x22 PUSH1 0x4 MSTORE PUSH1 0x24 PUSH1 0x0 REVERT JUMPDEST PUSH1 0x0 PUSH1 0x2 DUP3 DIV SWAP1 POP PUSH1 0x1 DUP3 AND DUP1 PUSH3 0x4A2 JUMPI PUSH1 0x7F DUP3 AND SWAP2 POP JUMPDEST PUSH1 0x20 DUP3 LT DUP2 SUB PUSH3 0x4B8 JUMPI PUSH3 0x4B7 PUSH3 0x45A JUMP JUMPDEST JUMPDEST POP SWAP2 SWAP1 POP JUMP JUMPDEST PUSH1 0x0 DUP2 SWAP1 POP DUP2 PUSH1 0x0 MSTORE PUSH1 0x20 PUSH1 0x0 KECCAK256 SWAP1 POP SWAP2 SWAP1 POP JUMP JUMPDEST PUSH1 0x0 PUSH1 0x20 PUSH1 0x1F DUP4 ADD DIV SWAP1 POP SWAP2 SWAP1 POP JUMP JUMPDEST PUSH1 0x0 DUP3 DUP3 SHL SWAP1 POP SWAP3 SWAP2 POP POP JUMP JUMPDEST PUSH1 0x0 PUSH1 0x8 DUP4 MUL PUSH3 0x522 PUSH32 0xFFFFFFFFFFFFFFFFFFFFFFFFFFFFFFFFFFFFFFFFFFFFFFFFFFFFFFFFFFFFFFFF DUP3 PUSH3 0x4E3 JUMP JUMPDEST PUSH3 0x52E DUP7 DUP4 PUSH3 0x4E3 JUMP JUMPDEST SWAP6 POP DUP1 NOT DUP5 AND SWAP4 POP DUP1 DUP7 AND DUP5 OR SWAP3 POP POP POP SWAP4 SWAP3 POP POP POP JUMP JUMPDEST PUSH1 0x0 DUP2 SWAP1 POP SWAP2 SWAP1 POP JUMP JUMPDEST PUSH1 0x0 PUSH3 0x571 PUSH3 0x56B PUSH3 0x565 DUP5 PUSH3 0x30D JUMP JUMPDEST PUSH3 0x546 JUMP JUMPDEST PUSH3 0x30D JUMP JUMPDEST SWAP1 POP SWAP2 SWAP1 POP JUMP JUMPDEST PUSH1 0x0 DUP2 SWAP1 POP SWAP2 SWAP1 POP JUMP JUMPDEST PUSH3 0x58D DUP4 PUSH3 0x550 JUMP JUMPDEST PUSH3 0x5A5 PUSH3 0x59C DUP3 PUSH3 0x578 JUMP JUMPDEST DUP5 DUP5 SLOAD PUSH3 0x4F0 JUMP JUMPDEST DUP3 SSTORE POP POP POP POP JUMP JUMPDEST PUSH1 0x0 SWAP1 JUMP JUMPDEST PUSH3 0x5BC PUSH3 0x5AD JUMP JUMPDEST PUSH3 0x5C9 DUP2 DUP5 DUP5 PUSH3 0x582 JUMP JUMPDEST POP POP POP JUMP JUMPDEST JUMPDEST DUP2 DUP2 LT ISZERO PUSH3 0x5F1 JUMPI PUSH3 0x5E5 PUSH1 0x0 DUP3 PUSH3 0x5B2 JUMP JUMPDEST PUSH1 0x1 DUP2 ADD SWAP1 POP PUSH3 0x5CF JUMP JUMPDEST POP POP JUMP JUMPDEST PUSH1 0x1F DUP3 GT ISZERO PUSH3 0x640 JUMPI PUSH3 0x60A DUP2 PUSH3 0x4BE JUMP JUMPDEST PUSH3 0x615 DUP5 PUSH3 0x4D3 JUMP JUMPDEST DUP2 ADD PUSH1 0x20 DUP6 LT ISZERO PUSH3 0x625 JUMPI DUP2 SWAP1 POP JUMPDEST PUSH3 0x63D PUSH3 0x634 DUP6 PUSH3 0x4D3 JUMP JUMPDEST DUP4 ADD DUP3 PUSH3 0x5CE JUMP JUMPDEST POP POP JUMPDEST POP POP POP JUMP JUMPDEST PUSH1 0x0 DUP3 DUP3 SHR SWAP1 POP SWAP3 SWAP2 POP POP JUMP JUMPDEST PUSH1 0x0 PUSH3 0x665 PUSH1 0x0 NOT DUP5 PUSH1 0x8 MUL PUSH3 0x645 JUMP JUMPDEST NOT DUP1 DUP4 AND SWAP2 POP POP SWAP3 SWAP2 POP POP JUMP JUMPDEST PUSH1 0x0 PUSH3 0x680 DUP4 DUP4 PUSH3 0x652 JUMP JUMPDEST SWAP2 POP DUP3 PUSH1 0x2 MUL DUP3 OR SWAP1 POP SWAP3 SWAP2 POP POP JUMP JUMPDEST PUSH3 0x69B DUP3 PUSH3 0x44F JUMP JUMPDEST PUSH8 0xFFFFFFFFFFFFFFFF DUP2 GT ISZERO PUSH3 0x6B7 JUMPI PUSH3 0x6B6 PUSH3 0x19F JUMP JUMPDEST JUMPDEST PUSH3 0x6C3 DUP3 SLOAD PUSH3 0x489 JUMP JUMPDEST PUSH3 0x6D0 DUP3 DUP3 DUP6 PUSH3 0x5F5 JUMP JUMPDEST PUSH1 0x0 PUSH1 0x20 SWAP1 POP PUSH1 0x1F DUP4 GT PUSH1 0x1 DUP2 EQ PUSH3 0x708 JUMPI PUSH1 0x0 DUP5 ISZERO PUSH3 0x6F3 JUMPI DUP3 DUP8 ADD MLOAD SWAP1 POP JUMPDEST PUSH3 0x6FF DUP6 DUP3 PUSH3 0x672 JUMP JUMPDEST DUP7 SSTORE POP PUSH3 0x76F JUMP JUMPDEST PUSH1 0x1F NOT DUP5 AND PUSH3 0x718 DUP7 PUSH3 0x4BE JUMP JUMPDEST PUSH1 0x0 JUMPDEST DUP3 DUP2 LT ISZERO PUSH3 0x742 JUMPI DUP5 DUP10 ADD MLOAD DUP3 SSTORE PUSH1 0x1 DUP3 ADD SWAP2 POP PUSH1 0x20 DUP6 ADD SWAP5 POP PUSH1 0x20 DUP2 ADD SWAP1 POP PUSH3 0x71B JUMP JUMPDEST DUP7 DUP4 LT ISZERO PUSH3 0x762 JUMPI DUP5 DUP10 ADD MLOAD PUSH3 0x75E PUSH1 0x1F DUP10 AND DUP3 PUSH3 0x652 JUMP JUMPDEST DUP4 SSTORE POP JUMPDEST PUSH1 0x1 PUSH1 0x2 DUP9 MUL ADD DUP9 SSTORE POP POP POP JUMPDEST POP POP POP POP POP POP JUMP JUMPDEST PUSH2 0x25ED DUP1 PUSH3 0x787 PUSH1 0x0 CODECOPY PUSH1 0x0 RETURN INVALID PUSH1 0x80 PUSH1 0x40 MSTORE CALLVALUE DUP1 ISZERO PUSH2 0x10 JUMPI PUSH1 0x0 DUP1 REVERT JUMPDEST POP PUSH1 0x4 CALLDATASIZE LT PUSH2 0x100 JUMPI PUSH1 0x0 CALLDATALOAD PUSH1 0xE0 SHR DUP1 PUSH4 0x753EC103 GT PUSH2 0x97 JUMPI DUP1 PUSH4 0xD77AA749 GT PUSH2 0x66 JUMPI DUP1 PUSH4 0xD77AA749 EQ PUSH2 0x294 JUMPI DUP1 PUSH4 0xDA58C7D9 EQ PUSH2 0x2B2 JUMPI DUP1 PUSH4 0xF6B4DFB4 EQ PUSH2 0x2E4 JUMPI DUP1 PUSH4 0xFE8FF236 EQ PUSH2 0x302 JUMPI PUSH2 0x100 JUMP JUMPDEST DUP1 PUSH4 0x753EC103 EQ PUSH2 0x217 JUMPI DUP1 PUSH4 0x95B02DFA EQ PUSH2 0x236 JUMPI DUP1 PUSH4 0x9AA4BBDD EQ PUSH2 0x240 JUMPI DUP1 PUSH4 0xA5EA11DA EQ PUSH2 0x272 JUMPI PUSH2 0x100 JUMP JUMPDEST DUP1 PUSH4 0x5361A0EA GT PUSH2 0xD3 JUMPI DUP1 PUSH4 0x5361A0EA EQ PUSH2 0x18B JUMPI DUP1 PUSH4 0x5C39FCC1 EQ PUSH2 0x1BD JUMPI DUP1 PUSH4 0x604C8333 EQ PUSH2 0x1DB JUMPI DUP1 PUSH4 0x7403C5E5 EQ PUSH2 0x1F9 JUMPI PUSH2 0x100 JUMP JUMPDEST DUP1 PUSH4 0xCB6AAF1 EQ PUSH2 0x105 JUMPI DUP1 PUSH4 0x15FE6F1B EQ PUSH2 0x135 JUMPI DUP1 PUSH4 0x19EB4A90 EQ PUSH2 0x151 JUMPI DUP1 PUSH4 0x323082D7 EQ PUSH2 0x16F JUMPI JUMPDEST PUSH1 0x0 DUP1 REVERT JUMPDEST PUSH2 0x11F PUSH1 0x4 DUP1 CALLDATASIZE SUB DUP2 ADD SWAP1 PUSH2 0x11A SWAP2 SWAP1 PUSH2 0x1740 JUMP JUMPDEST PUSH2 0x322 JUMP JUMPDEST PUSH1 0x40 MLOAD PUSH2 0x12C SWAP2 SWAP1 PUSH2 0x17AE JUMP JUMPDEST PUSH1 0x40 MLOAD DUP1 SWAP2 SUB SWAP1 RETURN JUMPDEST PUSH2 0x14F PUSH1 0x4 DUP1 CALLDATASIZE SUB DUP2 ADD SWAP1 PUSH2 0x14A SWAP2 SWAP1 PUSH2 0x17F5 JUMP JUMPDEST PUSH2 0x361 JUMP JUMPDEST STOP JUMPDEST PUSH2 0x159 PUSH2 0x702 JUMP JUMPDEST PUSH1 0x40 MLOAD PUSH2 0x166 SWAP2 SWAP1 PUSH2 0x18BB JUMP JUMPDEST PUSH1 0x40 MLOAD DUP1 SWAP2 SUB SWAP1 RETURN JUMPDEST PUSH2 0x189 PUSH1 0x4 DUP1 CALLDATASIZE SUB DUP2 ADD SWAP1 PUSH2 0x184 SWAP2 SWAP1 PUSH2 0x1A12 JUMP JUMPDEST PUSH2 0x797 JUMP JUMPDEST STOP JUMPDEST PUSH2 0x1A5 PUSH1 0x4 DUP1 CALLDATASIZE SUB DUP2 ADD SWAP1 PUSH2 0x1A0 SWAP2 SWAP1 PUSH2 0x17F5 JUMP JUMPDEST PUSH2 0xDC3 JUMP JUMPDEST PUSH1 0x40 MLOAD PUSH2 0x1B4 SWAP4 SWAP3 SWAP2 SWAP1 PUSH2 0x1A76 JUMP JUMPDEST PUSH1 0x40 MLOAD DUP1 SWAP2 SUB SWAP1 RETURN JUMPDEST PUSH2 0x1C5 PUSH2 0xED8 JUMP JUMPDEST PUSH1 0x40 MLOAD PUSH2 0x1D2 SWAP2 SWAP1 PUSH2 0x17AE JUMP JUMPDEST PUSH1 0x40 MLOAD DUP1 SWAP2 SUB SWAP1 RETURN JUMPDEST PUSH2 0x1E3 PUSH2 0xEFE JUMP JUMPDEST PUSH1 0x40 MLOAD PUSH2 0x1F0 SWAP2 SWAP1 PUSH2 0x1ABC JUMP JUMPDEST PUSH1 0x40 MLOAD DUP1 SWAP2 SUB SWAP1 RETURN JUMPDEST PUSH2 0x201 PUSH2 0xF04 JUMP JUMPDEST PUSH1 0x40 MLOAD PUSH2 0x20E SWAP2 SWAP1 PUSH2 0x1ABC JUMP JUMPDEST PUSH1 0x40 MLOAD DUP1 SWAP2 SUB SWAP1 RETURN JUMPDEST PUSH2 0x21F PUSH2 0xF0A JUMP JUMPDEST PUSH1 0x40 MLOAD PUSH2 0x22D SWAP3 SWAP2 SWAP1 PUSH2 0x1AD7 JUMP JUMPDEST PUSH1 0x40 MLOAD DUP1 SWAP2 SUB SWAP1 RETURN JUMPDEST PUSH2 0x23E PUSH2 0xFA4 JUMP JUMPDEST STOP JUMPDEST PUSH2 0x25A PUSH1 0x4 DUP1 CALLDATASIZE SUB DUP2 ADD SWAP1 PUSH2 0x255 SWAP2 SWAP1 PUSH2 0x17F5 JUMP JUMPDEST PUSH2 0x128F JUMP JUMPDEST PUSH1 0x40 MLOAD PUSH2 0x269 SWAP4 SWAP3 SWAP2 SWAP1 PUSH2 0x1B07 JUMP JUMPDEST PUSH1 0x40 MLOAD DUP1 SWAP2 SUB SWAP1 RETURN JUMPDEST PUSH2 0x27A PUSH2 0x12F3 JUMP JUMPDEST PUSH1 0x40 MLOAD PUSH2 0x28B SWAP6 SWAP5 SWAP4 SWAP3 SWAP2 SWAP1 PUSH2 0x1B3E JUMP JUMPDEST PUSH1 0x40 MLOAD DUP1 SWAP2 SUB SWAP1 RETURN JUMPDEST PUSH2 0x29C PUSH2 0x13C9 JUMP JUMPDEST PUSH1 0x40 MLOAD PUSH2 0x2A9 SWAP2 SWAP1 PUSH2 0x1ABC JUMP JUMPDEST PUSH1 0x40 MLOAD DUP1 SWAP2 SUB SWAP1 RETURN JUMPDEST PUSH2 0x2CC PUSH1 0x4 DUP1 CALLDATASIZE SUB DUP2 ADD SWAP1 PUSH2 0x2C7 SWAP2 SWAP1 PUSH2 0x1740 JUMP JUMPDEST PUSH2 0x13CF JUMP JUMPDEST PUSH1 0x40 MLOAD PUSH2 0x2DB SWAP4 SWAP3 SWAP2 SWAP1 PUSH2 0x1B07 JUMP JUMPDEST PUSH1 0x40 MLOAD DUP1 SWAP2 SUB SWAP1 RETURN JUMPDEST PUSH2 0x2EC PUSH2 0x143F JUMP JUMPDEST PUSH1 0x40 MLOAD PUSH2 0x2F9 SWAP2 SWAP1 PUSH2 0x17AE JUMP JUMPDEST PUSH1 0x40 MLOAD DUP1 SWAP2 SUB SWAP1 RETURN JUMPDEST PUSH2 0x30A PUSH2 0x1463 JUMP JUMPDEST PUSH1 0x40 MLOAD PUSH2 0x319 SWAP4 SWAP3 SWAP2 SWAP1 PUSH2 0x1D3D JUMP JUMPDEST PUSH1 0x40 MLOAD DUP1 SWAP2 SUB SWAP1 RETURN JUMPDEST PUSH1 0x8 DUP2 DUP2 SLOAD DUP2 LT PUSH2 0x332 JUMPI PUSH1 0x0 DUP1 REVERT JUMPDEST SWAP1 PUSH1 0x0 MSTORE PUSH1 0x20 PUSH1 0x0 KECCAK256 ADD PUSH1 0x0 SWAP2 POP SLOAD SWAP1 PUSH2 0x100 EXP SWAP1 DIV PUSH20 0xFFFFFFFFFFFFFFFFFFFFFFFFFFFFFFFFFFFFFFFF AND DUP2 JUMP JUMPDEST PUSH1 0x3 PUSH1 0x0 SWAP1 SLOAD SWAP1 PUSH2 0x100 EXP SWAP1 DIV PUSH20 0xFFFFFFFFFFFFFFFFFFFFFFFFFFFFFFFFFFFFFFFF AND PUSH20 0xFFFFFFFFFFFFFFFFFFFFFFFFFFFFFFFFFFFFFFFF AND CALLER PUSH20 0xFFFFFFFFFFFFFFFFFFFFFFFFFFFFFFFFFFFFFFFF AND EQ PUSH2 0x3F1 JUMPI PUSH1 0x40 MLOAD PUSH32 0x8C379A000000000000000000000000000000000000000000000000000000000 DUP2 MSTORE PUSH1 0x4 ADD PUSH2 0x3E8 SWAP1 PUSH2 0x1DFB JUMP JUMPDEST PUSH1 0x40 MLOAD DUP1 SWAP2 SUB SWAP1 REVERT JUMPDEST PUSH1 0x3 PUSH1 0x0 SWAP1 SLOAD SWAP1 PUSH2 0x100 EXP SWAP1 DIV PUSH20 0xFFFFFFFFFFFFFFFFFFFFFFFFFFFFFFFFFFFFFFFF AND PUSH20 0xFFFFFFFFFFFFFFFFFFFFFFFFFFFFFFFFFFFFFFFF AND DUP2 PUSH20 0xFFFFFFFFFFFFFFFFFFFFFFFFFFFFFFFFFFFFFFFF AND SUB PUSH2 0x481 JUMPI PUSH1 0x40 MLOAD PUSH32 0x8C379A000000000000000000000000000000000000000000000000000000000 DUP2 MSTORE PUSH1 0x4 ADD PUSH2 0x478 SWAP1 PUSH2 0x1E67 JUMP JUMPDEST PUSH1 0x40 MLOAD DUP1 SWAP2 SUB SWAP1 REVERT JUMPDEST PUSH1 0x0 PUSH20 0xFFFFFFFFFFFFFFFFFFFFFFFFFFFFFFFFFFFFFFFF AND PUSH1 0x9 PUSH1 0x0 DUP4 PUSH20 0xFFFFFFFFFFFFFFFFFFFFFFFFFFFFFFFFFFFFFFFF AND PUSH20 0xFFFFFFFFFFFFFFFFFFFFFFFFFFFFFFFFFFFFFFFF AND DUP2 MSTORE PUSH1 0x20 ADD SWAP1 DUP2 MSTORE PUSH1 0x20 ADD PUSH1 0x0 KECCAK256 PUSH1 0x0 ADD PUSH1 0x1 SWAP1 SLOAD SWAP1 PUSH2 0x100 EXP SWAP1 DIV PUSH20 0xFFFFFFFFFFFFFFFFFFFFFFFFFFFFFFFFFFFFFFFF AND PUSH20 0xFFFFFFFFFFFFFFFFFFFFFFFFFFFFFFFFFFFFFFFF AND EQ PUSH2 0x552 JUMPI PUSH1 0x40 MLOAD PUSH32 0x8C379A000000000000000000000000000000000000000000000000000000000 DUP2 MSTORE PUSH1 0x4 ADD PUSH2 0x549 SWAP1 PUSH2 0x1ED3 JUMP JUMPDEST PUSH1 0x40 MLOAD DUP1 SWAP2 SUB SWAP1 REVERT JUMPDEST PUSH1 0x1 SLOAD TIMESTAMP LT PUSH2 0x596 JUMPI PUSH1 0x40 MLOAD PUSH32 0x8C379A000000000000000000000000000000000000000000000000000000000 DUP2 MSTORE PUSH1 0x4 ADD PUSH2 0x58D SWAP1 PUSH2 0x1F65 JUMP JUMPDEST PUSH1 0x40 MLOAD DUP1 SWAP2 SUB SWAP1 REVERT JUMPDEST PUSH1 0x0 PUSH1 0x40 MLOAD DUP1 PUSH1 0x60 ADD PUSH1 0x40 MSTORE DUP1 PUSH1 0x0 ISZERO ISZERO DUP2 MSTORE PUSH1 0x20 ADD DUP4 PUSH20 0xFFFFFFFFFFFFFFFFFFFFFFFFFFFFFFFFFFFFFFFF AND DUP2 MSTORE PUSH1 0x20 ADD PUSH1 0x0 ISZERO ISZERO DUP2 MSTORE POP SWAP1 POP DUP1 PUSH1 0x9 PUSH1 0x0 DUP5 PUSH20 0xFFFFFFFFFFFFFFFFFFFFFFFFFFFFFFFFFFFFFFFF AND PUSH20 0xFFFFFFFFFFFFFFFFFFFFFFFFFFFFFFFFFFFFFFFF AND DUP2 MSTORE PUSH1 0x20 ADD SWAP1 DUP2 MSTORE PUSH1 0x20 ADD PUSH1 0x0 KECCAK256 PUSH1 0x0 DUP3 ADD MLOAD DUP2 PUSH1 0x0 ADD PUSH1 0x0 PUSH2 0x100 EXP DUP2 SLOAD DUP2 PUSH1 0xFF MUL NOT AND SWAP1 DUP4 ISZERO ISZERO MUL OR SWAP1 SSTORE POP PUSH1 0x20 DUP3 ADD MLOAD DUP2 PUSH1 0x0 ADD PUSH1 0x1 PUSH2 0x100 EXP DUP2 SLOAD DUP2 PUSH20 0xFFFFFFFFFFFFFFFFFFFFFFFFFFFFFFFFFFFFFFFF MUL NOT AND SWAP1 DUP4 PUSH20 0xFFFFFFFFFFFFFFFFFFFFFFFFFFFFFFFFFFFFFFFF AND MUL OR SWAP1 SSTORE POP PUSH1 0x40 DUP3 ADD MLOAD DUP2 PUSH1 0x0 ADD PUSH1 0x15 PUSH2 0x100 EXP DUP2 SLOAD DUP2 PUSH1 0xFF MUL NOT AND SWAP1 DUP4 ISZERO ISZERO MUL OR SWAP1 SSTORE POP SWAP1 POP POP PUSH1 0x8 DUP3 SWAP1 DUP1 PUSH1 0x1 DUP2 SLOAD ADD DUP1 DUP3 SSTORE DUP1 SWAP2 POP POP PUSH1 0x1 SWAP1 SUB SWAP1 PUSH1 0x0 MSTORE PUSH1 0x20 PUSH1 0x0 KECCAK256 ADD PUSH1 0x0 SWAP1 SWAP2 SWAP1 SWAP2 SWAP1 SWAP2 PUSH2 0x100 EXP DUP2 SLOAD DUP2 PUSH20 0xFFFFFFFFFFFFFFFFFFFFFFFFFFFFFFFFFFFFFFFF MUL NOT AND SWAP1 DUP4 PUSH20 0xFFFFFFFFFFFFFFFFFFFFFFFFFFFFFFFFFFFFFFFF AND MUL OR SWAP1 SSTORE POP POP POP JUMP JUMPDEST PUSH1 0x60 PUSH1 0xA PUSH1 0x1 ADD DUP1 SLOAD PUSH2 0x714 SWAP1 PUSH2 0x1FB4 JUMP JUMPDEST DUP1 PUSH1 0x1F ADD PUSH1 0x20 DUP1 SWAP2 DIV MUL PUSH1 0x20 ADD PUSH1 0x40 MLOAD SWAP1 DUP2 ADD PUSH1 0x40 MSTORE DUP1 SWAP3 SWAP2 SWAP1 DUP2 DUP2 MSTORE PUSH1 0x20 ADD DUP3 DUP1 SLOAD PUSH2 0x740 SWAP1 PUSH2 0x1FB4 JUMP JUMPDEST DUP1 ISZERO PUSH2 0x78D JUMPI DUP1 PUSH1 0x1F LT PUSH2 0x762 JUMPI PUSH2 0x100 DUP1 DUP4 SLOAD DIV MUL DUP4 MSTORE SWAP2 PUSH1 0x20 ADD SWAP2 PUSH2 0x78D JUMP JUMPDEST DUP3 ADD SWAP2 SWAP1 PUSH1 0x0 MSTORE PUSH1 0x20 PUSH1 0x0 KECCAK256 SWAP1 JUMPDEST DUP2 SLOAD DUP2 MSTORE SWAP1 PUSH1 0x1 ADD SWAP1 PUSH1 0x20 ADD DUP1 DUP4 GT PUSH2 0x770 JUMPI DUP3 SWAP1 SUB PUSH1 0x1F AND DUP3 ADD SWAP2 JUMPDEST POP POP POP POP POP SWAP1 POP SWAP1 JUMP JUMPDEST PUSH1 0x1 SLOAD TIMESTAMP LT PUSH2 0x7DB JUMPI PUSH1 0x40 MLOAD PUSH32 0x8C379A000000000000000000000000000000000000000000000000000000000 DUP2 MSTORE PUSH1 0x4 ADD PUSH2 0x7D2 SWAP1 PUSH2 0x2031 JUMP JUMPDEST PUSH1 0x40 MLOAD DUP1 SWAP2 SUB SWAP1 REVERT JUMPDEST PUSH1 0x0 PUSH1 0x9 PUSH1 0x0 CALLER PUSH20 0xFFFFFFFFFFFFFFFFFFFFFFFFFFFFFFFFFFFFFFFF AND PUSH20 0xFFFFFFFFFFFFFFFFFFFFFFFFFFFFFFFFFFFFFFFF AND DUP2 MSTORE PUSH1 0x20 ADD SWAP1 DUP2 MSTORE PUSH1 0x20 ADD PUSH1 0x0 KECCAK256 PUSH1 0x40 MLOAD DUP1 PUSH1 0x60 ADD PUSH1 0x40 MSTORE SWAP1 DUP2 PUSH1 0x0 DUP3 ADD PUSH1 0x0 SWAP1 SLOAD SWAP1 PUSH2 0x100 EXP SWAP1 DIV PUSH1 0xFF AND ISZERO ISZERO ISZERO ISZERO DUP2 MSTORE PUSH1 0x20 ADD PUSH1 0x0 DUP3 ADD PUSH1 0x1 SWAP1 SLOAD SWAP1 PUSH2 0x100 EXP SWAP1 DIV PUSH20 0xFFFFFFFFFFFFFFFFFFFFFFFFFFFFFFFFFFFFFFFF AND PUSH20 0xFFFFFFFFFFFFFFFFFFFFFFFFFFFFFFFFFFFFFFFF AND PUSH20 0xFFFFFFFFFFFFFFFFFFFFFFFFFFFFFFFFFFFFFFFF AND DUP2 MSTORE PUSH1 0x20 ADD PUSH1 0x0 DUP3 ADD PUSH1 0x15 SWAP1 SLOAD SWAP1 PUSH2 0x100 EXP SWAP1 DIV PUSH1 0xFF AND ISZERO ISZERO ISZERO ISZERO DUP2 MSTORE POP POP SWAP1 POP PUSH1 0x0 PUSH20 0xFFFFFFFFFFFFFFFFFFFFFFFFFFFFFFFFFFFFFFFF AND DUP2 PUSH1 0x20 ADD MLOAD PUSH20 0xFFFFFFFFFFFFFFFFFFFFFFFFFFFFFFFFFFFFFFFF AND SUB PUSH2 0x928 JUMPI PUSH1 0x40 MLOAD PUSH32 0x8C379A000000000000000000000000000000000000000000000000000000000 DUP2 MSTORE PUSH1 0x4 ADD PUSH2 0x91F SWAP1 PUSH2 0x209D JUMP JUMPDEST PUSH1 0x40 MLOAD DUP1 SWAP2 SUB SWAP1 REVERT JUMPDEST DUP1 PUSH1 0x0 ADD MLOAD ISZERO PUSH2 0x96D JUMPI PUSH1 0x40 MLOAD PUSH32 0x8C379A000000000000000000000000000000000000000000000000000000000 DUP2 MSTORE PUSH1 0x4 ADD PUSH2 0x964 SWAP1 PUSH2 0x2109 JUMP JUMPDEST PUSH1 0x40 MLOAD DUP1 SWAP2 SUB SWAP1 REVERT JUMPDEST PUSH1 0x40 MLOAD DUP1 PUSH1 0x40 ADD PUSH1 0x40 MSTORE DUP1 PUSH1 0x9 DUP2 MSTORE PUSH1 0x20 ADD PUSH32 0x6920617070726F76650000000000000000000000000000000000000000000000 DUP2 MSTORE POP DUP1 MLOAD SWAP1 PUSH1 0x20 ADD KECCAK256 DUP3 DUP1 MLOAD SWAP1 PUSH1 0x20 ADD KECCAK256 SUB PUSH2 0xBD2 JUMPI PUSH1 0x1 PUSH1 0x9 PUSH1 0x0 CALLER PUSH20 0xFFFFFFFFFFFFFFFFFFFFFFFFFFFFFFFFFFFFFFFF AND PUSH20 0xFFFFFFFFFFFFFFFFFFFFFFFFFFFFFFFFFFFFFFFF AND DUP2 MSTORE PUSH1 0x20 ADD SWAP1 DUP2 MSTORE PUSH1 0x20 ADD PUSH1 0x0 KECCAK256 PUSH1 0x0 ADD PUSH1 0x0 PUSH2 0x100 EXP DUP2 SLOAD DUP2 PUSH1 0xFF MUL NOT AND SWAP1 DUP4 ISZERO ISZERO MUL OR SWAP1 SSTORE POP PUSH1 0x1 PUSH1 0x9 PUSH1 0x0 CALLER PUSH20 0xFFFFFFFFFFFFFFFFFFFFFFFFFFFFFFFFFFFFFFFF AND PUSH20 0xFFFFFFFFFFFFFFFFFFFFFFFFFFFFFFFFFFFFFFFF AND DUP2 MSTORE PUSH1 0x20 ADD SWAP1 DUP2 MSTORE PUSH1 0x20 ADD PUSH1 0x0 KECCAK256 PUSH1 0x0 ADD PUSH1 0x15 PUSH2 0x100 EXP DUP2 SLOAD DUP2 PUSH1 0xFF MUL NOT AND SWAP1 DUP4 ISZERO ISZERO MUL OR SWAP1 SSTORE POP PUSH1 0x1 PUSH1 0x6 PUSH1 0x0 DUP3 DUP3 SLOAD PUSH2 0xA80 SWAP2 SWAP1 PUSH2 0x2158 JUMP JUMPDEST SWAP3 POP POP DUP2 SWAP1 SSTORE POP PUSH1 0x1 PUSH1 0xA PUSH1 0x0 ADD PUSH1 0x0 DUP3 DUP3 SLOAD PUSH2 0xA9D SWAP2 SWAP1 PUSH2 0x2158 JUMP JUMPDEST SWAP3 POP POP DUP2 SWAP1 SSTORE POP PUSH1 0x7 PUSH1 0x9 PUSH1 0x0 CALLER PUSH20 0xFFFFFFFFFFFFFFFFFFFFFFFFFFFFFFFFFFFFFFFF AND PUSH20 0xFFFFFFFFFFFFFFFFFFFFFFFFFFFFFFFFFFFFFFFF AND DUP2 MSTORE PUSH1 0x20 ADD SWAP1 DUP2 MSTORE PUSH1 0x20 ADD PUSH1 0x0 KECCAK256 SWAP1 DUP1 PUSH1 0x1 DUP2 SLOAD ADD DUP1 DUP3 SSTORE DUP1 SWAP2 POP POP PUSH1 0x1 SWAP1 SUB SWAP1 PUSH1 0x0 MSTORE PUSH1 0x20 PUSH1 0x0 KECCAK256 ADD PUSH1 0x0 SWAP1 SWAP2 SWAP1 SWAP2 SWAP1 SWAP2 POP PUSH1 0x0 DUP3 ADD PUSH1 0x0 SWAP1 SLOAD SWAP1 PUSH2 0x100 EXP SWAP1 DIV PUSH1 0xFF AND DUP2 PUSH1 0x0 ADD PUSH1 0x0 PUSH2 0x100 EXP DUP2 SLOAD DUP2 PUSH1 0xFF MUL NOT AND SWAP1 DUP4 ISZERO ISZERO MUL OR SWAP1 SSTORE POP PUSH1 0x0 DUP3 ADD PUSH1 0x1 SWAP1 SLOAD SWAP1 PUSH2 0x100 EXP SWAP1 DIV PUSH20 0xFFFFFFFFFFFFFFFFFFFFFFFFFFFFFFFFFFFFFFFF AND DUP2 PUSH1 0x0 ADD PUSH1 0x1 PUSH2 0x100 EXP DUP2 SLOAD DUP2 PUSH20 0xFFFFFFFFFFFFFFFFFFFFFFFFFFFFFFFFFFFFFFFF MUL NOT AND SWAP1 DUP4 PUSH20 0xFFFFFFFFFFFFFFFFFFFFFFFFFFFFFFFFFFFFFFFF AND MUL OR SWAP1 SSTORE POP PUSH1 0x0 DUP3 ADD PUSH1 0x15 SWAP1 SLOAD SWAP1 PUSH2 0x100 EXP SWAP1 DIV PUSH1 0xFF AND DUP2 PUSH1 0x0 ADD PUSH1 0x15 PUSH2 0x100 EXP DUP2 SLOAD DUP2 PUSH1 0xFF MUL NOT AND SWAP1 DUP4 ISZERO ISZERO MUL OR SWAP1 SSTORE POP POP POP PUSH2 0xDBF JUMP JUMPDEST PUSH1 0x40 MLOAD DUP1 PUSH1 0x40 ADD PUSH1 0x40 MSTORE DUP1 PUSH1 0xC DUP2 MSTORE PUSH1 0x20 ADD PUSH32 0x6920646973617070726F76650000000000000000000000000000000000000000 DUP2 MSTORE POP DUP1 MLOAD SWAP1 PUSH1 0x20 ADD KECCAK256 DUP3 DUP1 MLOAD SWAP1 PUSH1 0x20 ADD KECCAK256 SUB PUSH2 0xDBE JUMPI PUSH1 0x1 PUSH1 0x9 PUSH1 0x0 CALLER PUSH20 0xFFFFFFFFFFFFFFFFFFFFFFFFFFFFFFFFFFFFFFFF AND PUSH20 0xFFFFFFFFFFFFFFFFFFFFFFFFFFFFFFFFFFFFFFFF AND DUP2 MSTORE PUSH1 0x20 ADD SWAP1 DUP2 MSTORE PUSH1 0x20 ADD PUSH1 0x0 KECCAK256 PUSH1 0x0 ADD PUSH1 0x0 PUSH2 0x100 EXP DUP2 SLOAD DUP2 PUSH1 0xFF MUL NOT AND SWAP1 DUP4 ISZERO ISZERO MUL OR SWAP1 SSTORE POP PUSH1 0x1 PUSH1 0xA PUSH1 0x0 ADD PUSH1 0x0 DUP3 DUP3 SLOAD PUSH2 0xC8D SWAP2 SWAP1 PUSH2 0x2158 JUMP JUMPDEST SWAP3 POP POP DUP2 SWAP1 SSTORE POP PUSH1 0x7 PUSH1 0x9 PUSH1 0x0 CALLER PUSH20 0xFFFFFFFFFFFFFFFFFFFFFFFFFFFFFFFFFFFFFFFF AND PUSH20 0xFFFFFFFFFFFFFFFFFFFFFFFFFFFFFFFFFFFFFFFF AND DUP2 MSTORE PUSH1 0x20 ADD SWAP1 DUP2 MSTORE PUSH1 0x20 ADD PUSH1 0x0 KECCAK256 SWAP1 DUP1 PUSH1 0x1 DUP2 SLOAD ADD DUP1 DUP3 SSTORE DUP1 SWAP2 POP POP PUSH1 0x1 SWAP1 SUB SWAP1 PUSH1 0x0 MSTORE PUSH1 0x20 PUSH1 0x0 KECCAK256 ADD PUSH1 0x0 SWAP1 SWAP2 SWAP1 SWAP2 SWAP1 SWAP2 POP PUSH1 0x0 DUP3 ADD PUSH1 0x0 SWAP1 SLOAD SWAP1 PUSH2 0x100 EXP SWAP1 DIV PUSH1 0xFF AND DUP2 PUSH1 0x0 ADD PUSH1 0x0 PUSH2 0x100 EXP DUP2 SLOAD DUP2 PUSH1 0xFF MUL NOT AND SWAP1 DUP4 ISZERO ISZERO MUL OR SWAP1 SSTORE POP PUSH1 0x0 DUP3 ADD PUSH1 0x1 SWAP1 SLOAD SWAP1 PUSH2 0x100 EXP SWAP1 DIV PUSH20 0xFFFFFFFFFFFFFFFFFFFFFFFFFFFFFFFFFFFFFFFF AND DUP2 PUSH1 0x0 ADD PUSH1 0x1 PUSH2 0x100 EXP DUP2 SLOAD DUP2 PUSH20 0xFFFFFFFFFFFFFFFFFFFFFFFFFFFFFFFFFFFFFFFF MUL NOT AND SWAP1 DUP4 PUSH20 0xFFFFFFFFFFFFFFFFFFFFFFFFFFFFFFFFFFFFFFFF AND MUL OR SWAP1 SSTORE POP PUSH1 0x0 DUP3 ADD PUSH1 0x15 SWAP1 SLOAD SWAP1 PUSH2 0x100 EXP SWAP1 DIV PUSH1 0xFF AND DUP2 PUSH1 0x0 ADD PUSH1 0x15 PUSH2 0x100 EXP DUP2 SLOAD DUP2 PUSH1 0xFF MUL NOT AND SWAP1 DUP4 ISZERO ISZERO MUL OR SWAP1 SSTORE POP POP POP JUMPDEST JUMPDEST POP POP JUMP JUMPDEST PUSH1 0x0 DUP1 PUSH1 0x0 PUSH1 0x9 PUSH1 0x0 DUP6 PUSH20 0xFFFFFFFFFFFFFFFFFFFFFFFFFFFFFFFFFFFFFFFF AND PUSH20 0xFFFFFFFFFFFFFFFFFFFFFFFFFFFFFFFFFFFFFFFF AND DUP2 MSTORE PUSH1 0x20 ADD SWAP1 DUP2 MSTORE PUSH1 0x20 ADD PUSH1 0x0 KECCAK256 PUSH1 0x0 ADD PUSH1 0x15 SWAP1 SLOAD SWAP1 PUSH2 0x100 EXP SWAP1 DIV PUSH1 0xFF AND PUSH1 0x9 PUSH1 0x0 DUP7 PUSH20 0xFFFFFFFFFFFFFFFFFFFFFFFFFFFFFFFFFFFFFFFF AND PUSH20 0xFFFFFFFFFFFFFFFFFFFFFFFFFFFFFFFFFFFFFFFF AND DUP2 MSTORE PUSH1 0x20 ADD SWAP1 DUP2 MSTORE PUSH1 0x20 ADD PUSH1 0x0 KECCAK256 PUSH1 0x0 ADD PUSH1 0x0 SWAP1 SLOAD SWAP1 PUSH2 0x100 EXP SWAP1 DIV PUSH1 0xFF AND PUSH1 0x9 PUSH1 0x0 DUP8 PUSH20 0xFFFFFFFFFFFFFFFFFFFFFFFFFFFFFFFFFFFFFFFF AND PUSH20 0xFFFFFFFFFFFFFFFFFFFFFFFFFFFFFFFFFFFFFFFF AND DUP2 MSTORE PUSH1 0x20 ADD SWAP1 DUP2 MSTORE PUSH1 0x20 ADD PUSH1 0x0 KECCAK256 PUSH1 0x0 ADD PUSH1 0x1 SWAP1 SLOAD SWAP1 PUSH2 0x100 EXP SWAP1 DIV PUSH20 0xFFFFFFFFFFFFFFFFFFFFFFFFFFFFFFFFFFFFFFFF AND SWAP3 POP SWAP3 POP SWAP3 POP SWAP2 SWAP4 SWAP1 SWAP3 POP JUMP JUMPDEST PUSH1 0x3 PUSH1 0x0 SWAP1 SLOAD SWAP1 PUSH2 0x100 EXP SWAP1 DIV PUSH20 0xFFFFFFFFFFFFFFFFFFFFFFFFFFFFFFFFFFFFFFFF AND DUP2 JUMP JUMPDEST PUSH1 0x5 SLOAD DUP2 JUMP JUMPDEST PUSH1 0x6 SLOAD DUP2 JUMP JUMPDEST PUSH1 0xA DUP1 PUSH1 0x0 ADD SLOAD SWAP1 DUP1 PUSH1 0x1 ADD DUP1 SLOAD PUSH2 0xF21 SWAP1 PUSH2 0x1FB4 JUMP JUMPDEST DUP1 PUSH1 0x1F ADD PUSH1 0x20 DUP1 SWAP2 DIV MUL PUSH1 0x20 ADD PUSH1 0x40 MLOAD SWAP1 DUP2 ADD PUSH1 0x40 MSTORE DUP1 SWAP3 SWAP2 SWAP1 DUP2 DUP2 MSTORE PUSH1 0x20 ADD DUP3 DUP1 SLOAD PUSH2 0xF4D SWAP1 PUSH2 0x1FB4 JUMP JUMPDEST DUP1 ISZERO PUSH2 0xF9A JUMPI DUP1 PUSH1 0x1F LT PUSH2 0xF6F JUMPI PUSH2 0x100 DUP1 DUP4 SLOAD DIV MUL DUP4 MSTORE SWAP2 PUSH1 0x20 ADD SWAP2 PUSH2 0xF9A JUMP JUMPDEST DUP3 ADD SWAP2 SWAP1 PUSH1 0x0 MSTORE PUSH1 0x20 PUSH1 0x0 KECCAK256 SWAP1 JUMPDEST DUP2 SLOAD DUP2 MSTORE SWAP1 PUSH1 0x1 ADD SWAP1 PUSH1 0x20 ADD DUP1 DUP4 GT PUSH2 0xF7D JUMPI DUP3 SWAP1 SUB PUSH1 0x1F AND DUP3 ADD SWAP2 JUMPDEST POP POP POP POP POP SWAP1 POP DUP3 JUMP JUMPDEST PUSH1 0x1 SLOAD TIMESTAMP LT ISZERO PUSH2 0xFE9 JUMPI PUSH1 0x40 MLOAD PUSH32 0x8C379A000000000000000000000000000000000000000000000000000000000 DUP2 MSTORE PUSH1 0x4 ADD PUSH2 0xFE0 SWAP1 PUSH2 0x21FA JUMP JUMPDEST PUSH1 0x40 MLOAD DUP1 SWAP2 SUB SWAP1 REVERT JUMPDEST PUSH1 0x64 PUSH1 0x8 DUP1 SLOAD SWAP1 POP PUSH1 0x6 SLOAD PUSH2 0xFFE SWAP2 SWAP1 PUSH2 0x2249 JUMP JUMPDEST PUSH2 0x1008 SWAP2 SWAP1 PUSH2 0x227A JUMP JUMPDEST PUSH1 0x5 DUP2 SWAP1 SSTORE POP PUSH1 0x4 SLOAD PUSH1 0x5 SLOAD LT PUSH2 0x105F JUMPI PUSH1 0x40 MLOAD DUP1 PUSH1 0x40 ADD PUSH1 0x40 MSTORE DUP1 PUSH1 0x8 DUP2 MSTORE PUSH1 0x20 ADD PUSH32 0x4163636570746564000000000000000000000000000000000000000000000000 DUP2 MSTORE POP PUSH1 0x2 SWAP1 DUP2 PUSH2 0x105D SWAP2 SWAP1 PUSH2 0x2480 JUMP JUMPDEST POP JUMPDEST PUSH1 0x0 JUMPDEST PUSH1 0x8 DUP1 SLOAD SWAP1 POP DUP2 PUSH1 0xFF AND LT ISZERO PUSH2 0x128C JUMPI PUSH1 0x0 ISZERO ISZERO PUSH1 0x9 PUSH1 0x0 PUSH1 0x8 DUP5 PUSH1 0xFF AND DUP2 SLOAD DUP2 LT PUSH2 0x1091 JUMPI PUSH2 0x1090 PUSH2 0x2552 JUMP JUMPDEST JUMPDEST SWAP1 PUSH1 0x0 MSTORE PUSH1 0x20 PUSH1 0x0 KECCAK256 ADD PUSH1 0x0 SWAP1 SLOAD SWAP1 PUSH2 0x100 EXP SWAP1 DIV PUSH20 0xFFFFFFFFFFFFFFFFFFFFFFFFFFFFFFFFFFFFFFFF AND PUSH20 0xFFFFFFFFFFFFFFFFFFFFFFFFFFFFFFFFFFFFFFFF AND PUSH20 0xFFFFFFFFFFFFFFFFFFFFFFFFFFFFFFFFFFFFFFFF AND DUP2 MSTORE PUSH1 0x20 ADD SWAP1 DUP2 MSTORE PUSH1 0x20 ADD PUSH1 0x0 KECCAK256 PUSH1 0x0 ADD PUSH1 0x0 SWAP1 SLOAD SWAP1 PUSH2 0x100 EXP SWAP1 DIV PUSH1 0xFF AND ISZERO ISZERO SUB PUSH2 0x1279 JUMPI PUSH1 0x7 PUSH1 0x9 PUSH1 0x0 PUSH1 0x8 DUP5 PUSH1 0xFF AND DUP2 SLOAD DUP2 LT PUSH2 0x112B JUMPI PUSH2 0x112A PUSH2 0x2552 JUMP JUMPDEST JUMPDEST SWAP1 PUSH1 0x0 MSTORE PUSH1 0x20 PUSH1 0x0 KECCAK256 ADD PUSH1 0x0 SWAP1 SLOAD SWAP1 PUSH2 0x100 EXP SWAP1 DIV PUSH20 0xFFFFFFFFFFFFFFFFFFFFFFFFFFFFFFFFFFFFFFFF AND PUSH20 0xFFFFFFFFFFFFFFFFFFFFFFFFFFFFFFFFFFFFFFFF AND PUSH20 0xFFFFFFFFFFFFFFFFFFFFFFFFFFFFFFFFFFFFFFFF AND DUP2 MSTORE PUSH1 0x20 ADD SWAP1 DUP2 MSTORE PUSH1 0x20 ADD PUSH1 0x0 KECCAK256 SWAP1 DUP1 PUSH1 0x1 DUP2 SLOAD ADD DUP1 DUP3 SSTORE DUP1 SWAP2 POP POP PUSH1 0x1 SWAP1 SUB SWAP1 PUSH1 0x0 MSTORE PUSH1 0x20 PUSH1 0x0 KECCAK256 ADD PUSH1 0x0 SWAP1 SWAP2 SWAP1 SWAP2 SWAP1 SWAP2 POP PUSH1 0x0 DUP3 ADD PUSH1 0x0 SWAP1 SLOAD SWAP1 PUSH2 0x100 EXP SWAP1 DIV PUSH1 0xFF AND DUP2 PUSH1 0x0 ADD PUSH1 0x0 PUSH2 0x100 EXP DUP2 SLOAD DUP2 PUSH1 0xFF MUL NOT AND SWAP1 DUP4 ISZERO ISZERO MUL OR SWAP1 SSTORE POP PUSH1 0x0 DUP3 ADD PUSH1 0x1 SWAP1 SLOAD SWAP1 PUSH2 0x100 EXP SWAP1 DIV PUSH20 0xFFFFFFFFFFFFFFFFFFFFFFFFFFFFFFFFFFFFFFFF AND DUP2 PUSH1 0x0 ADD PUSH1 0x1 PUSH2 0x100 EXP DUP2 SLOAD DUP2 PUSH20 0xFFFFFFFFFFFFFFFFFFFFFFFFFFFFFFFFFFFFFFFF MUL NOT AND SWAP1 DUP4 PUSH20 0xFFFFFFFFFFFFFFFFFFFFFFFFFFFFFFFFFFFFFFFF AND MUL OR SWAP1 SSTORE POP PUSH1 0x0 DUP3 ADD PUSH1 0x15 SWAP1 SLOAD SWAP1 PUSH2 0x100 EXP SWAP1 DIV PUSH1 0xFF AND DUP2 PUSH1 0x0 ADD PUSH1 0x15 PUSH2 0x100 EXP DUP2 SLOAD DUP2 PUSH1 0xFF MUL NOT AND SWAP1 DUP4 ISZERO ISZERO MUL OR SWAP1 SSTORE POP POP POP JUMPDEST DUP1 DUP1 PUSH2 0x1284 SWAP1 PUSH2 0x258E JUMP JUMPDEST SWAP2 POP POP PUSH2 0x1062 JUMP JUMPDEST POP JUMP JUMPDEST PUSH1 0x9 PUSH1 0x20 MSTORE DUP1 PUSH1 0x0 MSTORE PUSH1 0x40 PUSH1 0x0 KECCAK256 PUSH1 0x0 SWAP2 POP SWAP1 POP DUP1 PUSH1 0x0 ADD PUSH1 0x0 SWAP1 SLOAD SWAP1 PUSH2 0x100 EXP SWAP1 DIV PUSH1 0xFF AND SWAP1 DUP1 PUSH1 0x0 ADD PUSH1 0x1 SWAP1 SLOAD SWAP1 PUSH2 0x100 EXP SWAP1 DIV PUSH20 0xFFFFFFFFFFFFFFFFFFFFFFFFFFFFFFFFFFFFFFFF AND SWAP1 DUP1 PUSH1 0x0 ADD PUSH1 0x15 SWAP1 SLOAD SWAP1 PUSH2 0x100 EXP SWAP1 DIV PUSH1 0xFF AND SWAP1 POP DUP4 JUMP JUMPDEST PUSH1 0x60 PUSH1 0x0 DUP1 PUSH1 0x0 DUP1 PUSH1 0xA PUSH1 0x1 ADD PUSH1 0x1 SLOAD PUSH1 0x3 PUSH1 0x0 SWAP1 SLOAD SWAP1 PUSH2 0x100 EXP SWAP1 DIV PUSH20 0xFFFFFFFFFFFFFFFFFFFFFFFFFFFFFFFFFFFFFFFF AND PUSH1 0x4 SLOAD PUSH1 0x6 SLOAD DUP5 DUP1 SLOAD PUSH2 0x1338 SWAP1 PUSH2 0x1FB4 JUMP JUMPDEST DUP1 PUSH1 0x1F ADD PUSH1 0x20 DUP1 SWAP2 DIV MUL PUSH1 0x20 ADD PUSH1 0x40 MLOAD SWAP1 DUP2 ADD PUSH1 0x40 MSTORE DUP1 SWAP3 SWAP2 SWAP1 DUP2 DUP2 MSTORE PUSH1 0x20 ADD DUP3 DUP1 SLOAD PUSH2 0x1364 SWAP1 PUSH2 0x1FB4 JUMP JUMPDEST DUP1 ISZERO PUSH2 0x13B1 JUMPI DUP1 PUSH1 0x1F LT PUSH2 0x1386 JUMPI PUSH2 0x100 DUP1 DUP4 SLOAD DIV MUL DUP4 MSTORE SWAP2 PUSH1 0x20 ADD SWAP2 PUSH2 0x13B1 JUMP JUMPDEST DUP3 ADD SWAP2 SWAP1 PUSH1 0x0 MSTORE PUSH1 0x20 PUSH1 0x0 KECCAK256 SWAP1 JUMPDEST DUP2 SLOAD DUP2 MSTORE SWAP1 PUSH1 0x1 ADD SWAP1 PUSH1 0x20 ADD DUP1 DUP4 GT PUSH2 0x1394 JUMPI DUP3 SWAP1 SUB PUSH1 0x1F AND DUP3 ADD SWAP2 JUMPDEST POP POP POP POP POP SWAP5 POP SWAP5 POP SWAP5 POP SWAP5 POP SWAP5 POP SWAP5 POP SWAP1 SWAP2 SWAP3 SWAP4 SWAP5 JUMP JUMPDEST PUSH1 0x4 SLOAD DUP2 JUMP JUMPDEST PUSH1 0x7 DUP2 DUP2 SLOAD DUP2 LT PUSH2 0x13DF JUMPI PUSH1 0x0 DUP1 REVERT JUMPDEST SWAP1 PUSH1 0x0 MSTORE PUSH1 0x20 PUSH1 0x0 KECCAK256 ADD PUSH1 0x0 SWAP2 POP SWAP1 POP DUP1 PUSH1 0x0 ADD PUSH1 0x0 SWAP1 SLOAD SWAP1 PUSH2 0x100 EXP SWAP1 DIV PUSH1 0xFF AND SWAP1 DUP1 PUSH1 0x0 ADD PUSH1 0x1 SWAP1 SLOAD SWAP1 PUSH2 0x100 EXP SWAP1 DIV PUSH20 0xFFFFFFFFFFFFFFFFFFFFFFFFFFFFFFFFFFFFFFFF AND SWAP1 DUP1 PUSH1 0x0 ADD PUSH1 0x15 SWAP1 SLOAD SWAP1 PUSH2 0x100 EXP SWAP1 DIV PUSH1 0xFF AND SWAP1 POP DUP4 JUMP JUMPDEST PUSH1 0x0 DUP1 SLOAD SWAP1 PUSH2 0x100 EXP SWAP1 DIV PUSH20 0xFFFFFFFFFFFFFFFFFFFFFFFFFFFFFFFFFFFFFFFF AND DUP2 JUMP JUMPDEST PUSH1 0x60 PUSH2 0x146D PUSH2 0x16DC JUMP JUMPDEST PUSH1 0x60 PUSH1 0x1 SLOAD TIMESTAMP LT ISZERO PUSH2 0x14B4 JUMPI PUSH1 0x40 MLOAD PUSH32 0x8C379A000000000000000000000000000000000000000000000000000000000 DUP2 MSTORE PUSH1 0x4 ADD PUSH2 0x14AB SWAP1 PUSH2 0x21FA JUMP JUMPDEST PUSH1 0x40 MLOAD DUP1 SWAP2 SUB SWAP1 REVERT JUMPDEST PUSH1 0x2 PUSH1 0xA PUSH1 0x7 DUP3 DUP1 SLOAD PUSH2 0x14C6 SWAP1 PUSH2 0x1FB4 JUMP JUMPDEST DUP1 PUSH1 0x1F ADD PUSH1 0x20 DUP1 SWAP2 DIV MUL PUSH1 0x20 ADD PUSH1 0x40 MLOAD SWAP1 DUP2 ADD PUSH1 0x40 MSTORE DUP1 SWAP3 SWAP2 SWAP1 DUP2 DUP2 MSTORE PUSH1 0x20 ADD DUP3 DUP1 SLOAD PUSH2 0x14F2 SWAP1 PUSH2 0x1FB4 JUMP JUMPDEST DUP1 ISZERO PUSH2 0x153F JUMPI DUP1 PUSH1 0x1F LT PUSH2 0x1514 JUMPI PUSH2 0x100 DUP1 DUP4 SLOAD DIV MUL DUP4 MSTORE SWAP2 PUSH1 0x20 ADD SWAP2 PUSH2 0x153F JUMP JUMPDEST DUP3 ADD SWAP2 SWAP1 PUSH1 0x0 MSTORE PUSH1 0x20 PUSH1 0x0 KECCAK256 SWAP1 JUMPDEST DUP2 SLOAD DUP2 MSTORE SWAP1 PUSH1 0x1 ADD SWAP1 PUSH1 0x20 ADD DUP1 DUP4 GT PUSH2 0x1522 JUMPI DUP3 SWAP1 SUB PUSH1 0x1F AND DUP3 ADD SWAP2 JUMPDEST POP POP POP POP POP SWAP3 POP DUP2 PUSH1 0x40 MLOAD DUP1 PUSH1 0x40 ADD PUSH1 0x40 MSTORE SWAP1 DUP2 PUSH1 0x0 DUP3 ADD SLOAD DUP2 MSTORE PUSH1 0x20 ADD PUSH1 0x1 DUP3 ADD DUP1 SLOAD PUSH2 0x156C SWAP1 PUSH2 0x1FB4 JUMP JUMPDEST DUP1 PUSH1 0x1F ADD PUSH1 0x20 DUP1 SWAP2 DIV MUL PUSH1 0x20 ADD PUSH1 0x40 MLOAD SWAP1 DUP2 ADD PUSH1 0x40 MSTORE DUP1 SWAP3 SWAP2 SWAP1 DUP2 DUP2 MSTORE PUSH1 0x20 ADD DUP3 DUP1 SLOAD PUSH2 0x1598 SWAP1 PUSH2 0x1FB4 JUMP JUMPDEST DUP1 ISZERO PUSH2 0x15E5 JUMPI DUP1 PUSH1 0x1F LT PUSH2 0x15BA JUMPI PUSH2 0x100 DUP1 DUP4 SLOAD DIV MUL DUP4 MSTORE SWAP2 PUSH1 0x20 ADD SWAP2 PUSH2 0x15E5 JUMP JUMPDEST DUP3 ADD SWAP2 SWAP1 PUSH1 0x0 MSTORE PUSH1 0x20 PUSH1 0x0 KECCAK256 SWAP1 JUMPDEST DUP2 SLOAD DUP2 MSTORE SWAP1 PUSH1 0x1 ADD SWAP1 PUSH1 0x20 ADD DUP1 DUP4 GT PUSH2 0x15C8 JUMPI DUP3 SWAP1 SUB PUSH1 0x1F AND DUP3 ADD SWAP2 JUMPDEST POP POP POP POP POP DUP2 MSTORE POP POP SWAP2 POP DUP1 DUP1 SLOAD DUP1 PUSH1 0x20 MUL PUSH1 0x20 ADD PUSH1 0x40 MLOAD SWAP1 DUP2 ADD PUSH1 0x40 MSTORE DUP1 SWAP3 SWAP2 SWAP1 DUP2 DUP2 MSTORE PUSH1 0x20 ADD PUSH1 0x0 SWAP1 JUMPDEST DUP3 DUP3 LT ISZERO PUSH2 0x16CB JUMPI DUP4 DUP3 SWAP1 PUSH1 0x0 MSTORE PUSH1 0x20 PUSH1 0x0 KECCAK256 ADD PUSH1 0x40 MLOAD DUP1 PUSH1 0x60 ADD PUSH1 0x40 MSTORE SWAP1 DUP2 PUSH1 0x0 DUP3 ADD PUSH1 0x0 SWAP1 SLOAD SWAP1 PUSH2 0x100 EXP SWAP1 DIV PUSH1 0xFF AND ISZERO ISZERO ISZERO ISZERO DUP2 MSTORE PUSH1 0x20 ADD PUSH1 0x0 DUP3 ADD PUSH1 0x1 SWAP1 SLOAD SWAP1 PUSH2 0x100 EXP SWAP1 DIV PUSH20 0xFFFFFFFFFFFFFFFFFFFFFFFFFFFFFFFFFFFFFFFF AND PUSH20 0xFFFFFFFFFFFFFFFFFFFFFFFFFFFFFFFFFFFFFFFF AND PUSH20 0xFFFFFFFFFFFFFFFFFFFFFFFFFFFFFFFFFFFFFFFF AND DUP2 MSTORE PUSH1 0x20 ADD PUSH1 0x0 DUP3 ADD PUSH1 0x15 SWAP1 SLOAD SWAP1 PUSH2 0x100 EXP SWAP1 DIV PUSH1 0xFF AND ISZERO ISZERO ISZERO ISZERO DUP2 MSTORE POP POP DUP2 MSTORE PUSH1 0x20 ADD SWAP1 PUSH1 0x1 ADD SWAP1 PUSH2 0x1611 JUMP JUMPDEST POP POP POP POP SWAP1 POP SWAP3 POP SWAP3 POP SWAP3 POP SWAP1 SWAP2 SWAP3 JUMP JUMPDEST PUSH1 0x40 MLOAD DUP1 PUSH1 0x40 ADD PUSH1 0x40 MSTORE DUP1 PUSH1 0x0 DUP2 MSTORE PUSH1 0x20 ADD PUSH1 0x60 DUP2 MSTORE POP SWAP1 JUMP JUMPDEST PUSH1 0x0 PUSH1 0x40 MLOAD SWAP1 POP SWAP1 JUMP JUMPDEST PUSH1 0x0 DUP1 REVERT JUMPDEST PUSH1 0x0 DUP1 REVERT JUMPDEST PUSH1 0x0 DUP2 SWAP1 POP SWAP2 SWAP1 POP JUMP JUMPDEST PUSH2 0x171D DUP2 PUSH2 0x170A JUMP JUMPDEST DUP2 EQ PUSH2 0x1728 JUMPI PUSH1 0x0 DUP1 REVERT JUMPDEST POP JUMP JUMPDEST PUSH1 0x0 DUP2 CALLDATALOAD SWAP1 POP PUSH2 0x173A DUP2 PUSH2 0x1714 JUMP JUMPDEST SWAP3 SWAP2 POP POP JUMP JUMPDEST PUSH1 0x0 PUSH1 0x20 DUP3 DUP5 SUB SLT ISZERO PUSH2 0x1756 JUMPI PUSH2 0x1755 PUSH2 0x1700 JUMP JUMPDEST JUMPDEST PUSH1 0x0 PUSH2 0x1764 DUP5 DUP3 DUP6 ADD PUSH2 0x172B JUMP JUMPDEST SWAP2 POP POP SWAP3 SWAP2 POP POP JUMP JUMPDEST PUSH1 0x0 PUSH20 0xFFFFFFFFFFFFFFFFFFFFFFFFFFFFFFFFFFFFFFFF DUP3 AND SWAP1 POP SWAP2 SWAP1 POP JUMP JUMPDEST PUSH1 0x0 PUSH2 0x1798 DUP3 PUSH2 0x176D JUMP JUMPDEST SWAP1 POP SWAP2 SWAP1 POP JUMP JUMPDEST PUSH2 0x17A8 DUP2 PUSH2 0x178D JUMP JUMPDEST DUP3 MSTORE POP POP JUMP JUMPDEST PUSH1 0x0 PUSH1 0x20 DUP3 ADD SWAP1 POP PUSH2 0x17C3 PUSH1 0x0 DUP4 ADD DUP5 PUSH2 0x179F JUMP JUMPDEST SWAP3 SWAP2 POP POP JUMP JUMPDEST PUSH2 0x17D2 DUP2 PUSH2 0x178D JUMP JUMPDEST DUP2 EQ PUSH2 0x17DD JUMPI PUSH1 0x0 DUP1 REVERT JUMPDEST POP JUMP JUMPDEST PUSH1 0x0 DUP2 CALLDATALOAD SWAP1 POP PUSH2 0x17EF DUP2 PUSH2 0x17C9 JUMP JUMPDEST SWAP3 SWAP2 POP POP JUMP JUMPDEST PUSH1 0x0 PUSH1 0x20 DUP3 DUP5 SUB SLT ISZERO PUSH2 0x180B JUMPI PUSH2 0x180A PUSH2 0x1700 JUMP JUMPDEST JUMPDEST PUSH1 0x0 PUSH2 0x1819 DUP5 DUP3 DUP6 ADD PUSH2 0x17E0 JUMP JUMPDEST SWAP2 POP POP SWAP3 SWAP2 POP POP JUMP JUMPDEST PUSH1 0x0 DUP2 MLOAD SWAP1 POP SWAP2 SWAP1 POP JUMP JUMPDEST PUSH1 0x0 DUP3 DUP3 MSTORE PUSH1 0x20 DUP3 ADD SWAP1 POP SWAP3 SWAP2 POP POP JUMP JUMPDEST PUSH1 0x0 JUMPDEST DUP4 DUP2 LT ISZERO PUSH2 0x185C JUMPI DUP1 DUP3 ADD MLOAD DUP2 DUP5 ADD MSTORE PUSH1 0x20 DUP2 ADD SWAP1 POP PUSH2 0x1841 JUMP JUMPDEST DUP4 DUP2 GT ISZERO PUSH2 0x186B JUMPI PUSH1 0x0 DUP5 DUP5 ADD MSTORE JUMPDEST POP POP POP POP JUMP JUMPDEST PUSH1 0x0 PUSH1 0x1F NOT PUSH1 0x1F DUP4 ADD AND SWAP1 POP SWAP2 SWAP1 POP JUMP JUMPDEST PUSH1 0x0 PUSH2 0x188D DUP3 PUSH2 0x1822 JUMP JUMPDEST PUSH2 0x1897 DUP2 DUP6 PUSH2 0x182D JUMP JUMPDEST SWAP4 POP PUSH2 0x18A7 DUP2 DUP6 PUSH1 0x20 DUP7 ADD PUSH2 0x183E JUMP JUMPDEST PUSH2 0x18B0 DUP2 PUSH2 0x1871 JUMP JUMPDEST DUP5 ADD SWAP2 POP POP SWAP3 SWAP2 POP POP JUMP JUMPDEST PUSH1 0x0 PUSH1 0x20 DUP3 ADD SWAP1 POP DUP2 DUP2 SUB PUSH1 0x0 DUP4 ADD MSTORE PUSH2 0x18D5 DUP2 DUP5 PUSH2 0x1882 JUMP JUMPDEST SWAP1 POP SWAP3 SWAP2 POP POP JUMP JUMPDEST PUSH1 0x0 DUP1 REVERT JUMPDEST PUSH1 0x0 DUP1 REVERT JUMPDEST PUSH32 0x4E487B7100000000000000000000000000000000000000000000000000000000 PUSH1 0x0 MSTORE PUSH1 0x41 PUSH1 0x4 MSTORE PUSH1 0x24 PUSH1 0x0 REVERT JUMPDEST PUSH2 0x191F DUP3 PUSH2 0x1871 JUMP JUMPDEST DUP2 ADD DUP2 DUP2 LT PUSH8 0xFFFFFFFFFFFFFFFF DUP3 GT OR ISZERO PUSH2 0x193E JUMPI PUSH2 0x193D PUSH2 0x18E7 JUMP JUMPDEST JUMPDEST DUP1 PUSH1 0x40 MSTORE POP POP POP JUMP JUMPDEST PUSH1 0x0 PUSH2 0x1951 PUSH2 0x16F6 JUMP JUMPDEST SWAP1 POP PUSH2 0x195D DUP3 DUP3 PUSH2 0x1916 JUMP JUMPDEST SWAP2 SWAP1 POP JUMP JUMPDEST PUSH1 0x0 PUSH8 0xFFFFFFFFFFFFFFFF DUP3 GT ISZERO PUSH2 0x197D JUMPI PUSH2 0x197C PUSH2 0x18E7 JUMP JUMPDEST JUMPDEST PUSH2 0x1986 DUP3 PUSH2 0x1871 JUMP JUMPDEST SWAP1 POP PUSH1 0x20 DUP2 ADD SWAP1 POP SWAP2 SWAP1 POP JUMP JUMPDEST DUP3 DUP2 DUP4 CALLDATACOPY PUSH1 0x0 DUP4 DUP4 ADD MSTORE POP POP POP JUMP JUMPDEST PUSH1 0x0 PUSH2 0x19B5 PUSH2 0x19B0 DUP5 PUSH2 0x1962 JUMP JUMPDEST PUSH2 0x1947 JUMP JUMPDEST SWAP1 POP DUP3 DUP2 MSTORE PUSH1 0x20 DUP2 ADD DUP5 DUP5 DUP5 ADD GT ISZERO PUSH2 0x19D1 JUMPI PUSH2 0x19D0 PUSH2 0x18E2 JUMP JUMPDEST JUMPDEST PUSH2 0x19DC DUP5 DUP3 DUP6 PUSH2 0x1993 JUMP JUMPDEST POP SWAP4 SWAP3 POP POP POP JUMP JUMPDEST PUSH1 0x0 DUP3 PUSH1 0x1F DUP4 ADD SLT PUSH2 0x19F9 JUMPI PUSH2 0x19F8 PUSH2 0x18DD JUMP JUMPDEST JUMPDEST DUP2 CALLDATALOAD PUSH2 0x1A09 DUP5 DUP3 PUSH1 0x20 DUP7 ADD PUSH2 0x19A2 JUMP JUMPDEST SWAP2 POP POP SWAP3 SWAP2 POP POP JUMP JUMPDEST PUSH1 0x0 PUSH1 0x20 DUP3 DUP5 SUB SLT ISZERO PUSH2 0x1A28 JUMPI PUSH2 0x1A27 PUSH2 0x1700 JUMP JUMPDEST JUMPDEST PUSH1 0x0 DUP3 ADD CALLDATALOAD PUSH8 0xFFFFFFFFFFFFFFFF DUP2 GT ISZERO PUSH2 0x1A46 JUMPI PUSH2 0x1A45 PUSH2 0x1705 JUMP JUMPDEST JUMPDEST PUSH2 0x1A52 DUP5 DUP3 DUP6 ADD PUSH2 0x19E4 JUMP JUMPDEST SWAP2 POP POP SWAP3 SWAP2 POP POP JUMP JUMPDEST PUSH1 0x0 DUP2 ISZERO ISZERO SWAP1 POP SWAP2 SWAP1 POP JUMP JUMPDEST PUSH2 0x1A70 DUP2 PUSH2 0x1A5B JUMP JUMPDEST DUP3 MSTORE POP POP JUMP JUMPDEST PUSH1 0x0 PUSH1 0x60 DUP3 ADD SWAP1 POP PUSH2 0x1A8B PUSH1 0x0 DUP4 ADD DUP7 PUSH2 0x1A67 JUMP JUMPDEST PUSH2 0x1A98 PUSH1 0x20 DUP4 ADD DUP6 PUSH2 0x1A67 JUMP JUMPDEST PUSH2 0x1AA5 PUSH1 0x40 DUP4 ADD DUP5 PUSH2 0x179F JUMP JUMPDEST SWAP5 SWAP4 POP POP POP POP JUMP JUMPDEST PUSH2 0x1AB6 DUP2 PUSH2 0x170A JUMP JUMPDEST DUP3 MSTORE POP POP JUMP JUMPDEST PUSH1 0x0 PUSH1 0x20 DUP3 ADD SWAP1 POP PUSH2 0x1AD1 PUSH1 0x0 DUP4 ADD DUP5 PUSH2 0x1AAD JUMP JUMPDEST SWAP3 SWAP2 POP POP JUMP JUMPDEST PUSH1 0x0 PUSH1 0x40 DUP3 ADD SWAP1 POP PUSH2 0x1AEC PUSH1 0x0 DUP4 ADD DUP6 PUSH2 0x1AAD JUMP JUMPDEST DUP2 DUP2 SUB PUSH1 0x20 DUP4 ADD MSTORE PUSH2 0x1AFE DUP2 DUP5 PUSH2 0x1882 JUMP JUMPDEST SWAP1 POP SWAP4 SWAP3 POP POP POP JUMP JUMPDEST PUSH1 0x0 PUSH1 0x60 DUP3 ADD SWAP1 POP PUSH2 0x1B1C PUSH1 0x0 DUP4 ADD DUP7 PUSH2 0x1A67 JUMP JUMPDEST PUSH2 0x1B29 PUSH1 0x20 DUP4 ADD DUP6 PUSH2 0x179F JUMP JUMPDEST PUSH2 0x1B36 PUSH1 0x40 DUP4 ADD DUP5 PUSH2 0x1A67 JUMP JUMPDEST SWAP5 SWAP4 POP POP POP POP JUMP JUMPDEST PUSH1 0x0 PUSH1 0xA0 DUP3 ADD SWAP1 POP DUP2 DUP2 SUB PUSH1 0x0 DUP4 ADD MSTORE PUSH2 0x1B58 DUP2 DUP9 PUSH2 0x1882 JUMP JUMPDEST SWAP1 POP PUSH2 0x1B67 PUSH1 0x20 DUP4 ADD DUP8 PUSH2 0x1AAD JUMP JUMPDEST PUSH2 0x1B74 PUSH1 0x40 DUP4 ADD DUP7 PUSH2 0x179F JUMP JUMPDEST PUSH2 0x1B81 PUSH1 0x60 DUP4 ADD DUP6 PUSH2 0x1AAD JUMP JUMPDEST PUSH2 0x1B8E PUSH1 0x80 DUP4 ADD DUP5 PUSH2 0x1AAD JUMP JUMPDEST SWAP7 SWAP6 POP POP POP POP POP POP JUMP JUMPDEST PUSH2 0x1BA1 DUP2 PUSH2 0x170A JUMP JUMPDEST DUP3 MSTORE POP POP JUMP JUMPDEST PUSH1 0x0 DUP3 DUP3 MSTORE PUSH1 0x20 DUP3 ADD SWAP1 POP SWAP3 SWAP2 POP POP JUMP JUMPDEST PUSH1 0x0 PUSH2 0x1BC3 DUP3 PUSH2 0x1822 JUMP JUMPDEST PUSH2 0x1BCD DUP2 DUP6 PUSH2 0x1BA7 JUMP JUMPDEST SWAP4 POP PUSH2 0x1BDD DUP2 DUP6 PUSH1 0x20 DUP7 ADD PUSH2 0x183E JUMP JUMPDEST PUSH2 0x1BE6 DUP2 PUSH2 0x1871 JUMP JUMPDEST DUP5 ADD SWAP2 POP POP SWAP3 SWAP2 POP POP JUMP JUMPDEST PUSH1 0x0 PUSH1 0x40 DUP4 ADD PUSH1 0x0 DUP4 ADD MLOAD PUSH2 0x1C09 PUSH1 0x0 DUP7 ADD DUP3 PUSH2 0x1B98 JUMP JUMPDEST POP PUSH1 0x20 DUP4 ADD MLOAD DUP5 DUP3 SUB PUSH1 0x20 DUP7 ADD MSTORE PUSH2 0x1C21 DUP3 DUP3 PUSH2 0x1BB8 JUMP JUMPDEST SWAP2 POP POP DUP1 SWAP2 POP POP SWAP3 SWAP2 POP POP JUMP JUMPDEST PUSH1 0x0 DUP2 MLOAD SWAP1 POP SWAP2 SWAP1 POP JUMP JUMPDEST PUSH1 0x0 DUP3 DUP3 MSTORE PUSH1 0x20 DUP3 ADD SWAP1 POP SWAP3 SWAP2 POP POP JUMP JUMPDEST PUSH1 0x0 DUP2 SWAP1 POP PUSH1 0x20 DUP3 ADD SWAP1 POP SWAP2 SWAP1 POP JUMP JUMPDEST PUSH2 0x1C63 DUP2 PUSH2 0x1A5B JUMP JUMPDEST DUP3 MSTORE POP POP JUMP JUMPDEST PUSH2 0x1C72 DUP2 PUSH2 0x178D JUMP JUMPDEST DUP3 MSTORE POP POP JUMP JUMPDEST PUSH1 0x60 DUP3 ADD PUSH1 0x0 DUP3 ADD MLOAD PUSH2 0x1C8E PUSH1 0x0 DUP6 ADD DUP3 PUSH2 0x1C5A JUMP JUMPDEST POP PUSH1 0x20 DUP3 ADD MLOAD PUSH2 0x1CA1 PUSH1 0x20 DUP6 ADD DUP3 PUSH2 0x1C69 JUMP JUMPDEST POP PUSH1 0x40 DUP3 ADD MLOAD PUSH2 0x1CB4 PUSH1 0x40 DUP6 ADD DUP3 PUSH2 0x1C5A JUMP JUMPDEST POP POP POP POP JUMP JUMPDEST PUSH1 0x0 PUSH2 0x1CC6 DUP4 DUP4 PUSH2 0x1C78 JUMP JUMPDEST PUSH1 0x60 DUP4 ADD SWAP1 POP SWAP3 SWAP2 POP POP JUMP JUMPDEST PUSH1 0x0 PUSH1 0x20 DUP3 ADD SWAP1 POP SWAP2 SWAP1 POP JUMP JUMPDEST PUSH1 0x0 PUSH2 0x1CEA DUP3 PUSH2 0x1C2E JUMP JUMPDEST PUSH2 0x1CF4 DUP2 DUP6 PUSH2 0x1C39 JUMP JUMPDEST SWAP4 POP PUSH2 0x1CFF DUP4 PUSH2 0x1C4A JUMP JUMPDEST DUP1 PUSH1 0x0 JUMPDEST DUP4 DUP2 LT ISZERO PUSH2 0x1D30 JUMPI DUP2 MLOAD PUSH2 0x1D17 DUP9 DUP3 PUSH2 0x1CBA JUMP JUMPDEST SWAP8 POP PUSH2 0x1D22 DUP4 PUSH2 0x1CD2 JUMP JUMPDEST SWAP3 POP POP PUSH1 0x1 DUP2 ADD SWAP1 POP PUSH2 0x1D03 JUMP JUMPDEST POP DUP6 SWAP4 POP POP POP POP SWAP3 SWAP2 POP POP JUMP JUMPDEST PUSH1 0x0 PUSH1 0x60 DUP3 ADD SWAP1 POP DUP2 DUP2 SUB PUSH1 0x0 DUP4 ADD MSTORE PUSH2 0x1D57 DUP2 DUP7 PUSH2 0x1882 JUMP JUMPDEST SWAP1 POP DUP2 DUP2 SUB PUSH1 0x20 DUP4 ADD MSTORE PUSH2 0x1D6B DUP2 DUP6 PUSH2 0x1BF1 JUMP JUMPDEST SWAP1 POP DUP2 DUP2 SUB PUSH1 0x40 DUP4 ADD MSTORE PUSH2 0x1D7F DUP2 DUP5 PUSH2 0x1CDF JUMP JUMPDEST SWAP1 POP SWAP5 SWAP4 POP POP POP POP JUMP JUMPDEST PUSH32 0x4F6E6C7920696E69746961746F722063616E2072656769737465722061207265 PUSH1 0x0 DUP3 ADD MSTORE PUSH32 0x63697069656E742E000000000000000000000000000000000000000000000000 PUSH1 0x20 DUP3 ADD MSTORE POP JUMP JUMPDEST PUSH1 0x0 PUSH2 0x1DE5 PUSH1 0x28 DUP4 PUSH2 0x182D JUMP JUMPDEST SWAP2 POP PUSH2 0x1DF0 DUP3 PUSH2 0x1D89 JUMP JUMPDEST PUSH1 0x40 DUP3 ADD SWAP1 POP SWAP2 SWAP1 POP JUMP JUMPDEST PUSH1 0x0 PUSH1 0x20 DUP3 ADD SWAP1 POP DUP2 DUP2 SUB PUSH1 0x0 DUP4 ADD MSTORE PUSH2 0x1E14 DUP2 PUSH2 0x1DD8 JUMP JUMPDEST SWAP1 POP SWAP2 SWAP1 POP JUMP JUMPDEST PUSH32 0x496E69746961746F722063616E277420766F7465210000000000000000000000 PUSH1 0x0 DUP3 ADD MSTORE POP JUMP JUMPDEST PUSH1 0x0 PUSH2 0x1E51 PUSH1 0x15 DUP4 PUSH2 0x182D JUMP JUMPDEST SWAP2 POP PUSH2 0x1E5C DUP3 PUSH2 0x1E1B JUMP JUMPDEST PUSH1 0x20 DUP3 ADD SWAP1 POP SWAP2 SWAP1 POP JUMP JUMPDEST PUSH1 0x0 PUSH1 0x20 DUP3 ADD SWAP1 POP DUP2 DUP2 SUB PUSH1 0x0 DUP4 ADD MSTORE PUSH2 0x1E80 DUP2 PUSH2 0x1E44 JUMP JUMPDEST SWAP1 POP SWAP2 SWAP1 POP JUMP JUMPDEST PUSH32 0x526563697069656E7420697320616C7265616479207265676973746572656400 PUSH1 0x0 DUP3 ADD MSTORE POP JUMP JUMPDEST PUSH1 0x0 PUSH2 0x1EBD PUSH1 0x1F DUP4 PUSH2 0x182D JUMP JUMPDEST SWAP2 POP PUSH2 0x1EC8 DUP3 PUSH2 0x1E87 JUMP JUMPDEST PUSH1 0x20 DUP3 ADD SWAP1 POP SWAP2 SWAP1 POP JUMP JUMPDEST PUSH1 0x0 PUSH1 0x20 DUP3 ADD SWAP1 POP DUP2 DUP2 SUB PUSH1 0x0 DUP4 ADD MSTORE PUSH2 0x1EEC DUP2 PUSH2 0x1EB0 JUMP JUMPDEST SWAP1 POP SWAP2 SWAP1 POP JUMP JUMPDEST PUSH32 0x50726F706F73616C206861732072656163686564206974732065787069727920 PUSH1 0x0 DUP3 ADD MSTORE PUSH32 0x6461746500000000000000000000000000000000000000000000000000000000 PUSH1 0x20 DUP3 ADD MSTORE POP JUMP JUMPDEST PUSH1 0x0 PUSH2 0x1F4F PUSH1 0x24 DUP4 PUSH2 0x182D JUMP JUMPDEST SWAP2 POP PUSH2 0x1F5A DUP3 PUSH2 0x1EF3 JUMP JUMPDEST PUSH1 0x40 DUP3 ADD SWAP1 POP SWAP2 SWAP1 POP JUMP JUMPDEST PUSH1 0x0 PUSH1 0x20 DUP3 ADD SWAP1 POP DUP2 DUP2 SUB PUSH1 0x0 DUP4 ADD MSTORE PUSH2 0x1F7E DUP2 PUSH2 0x1F42 JUMP JUMPDEST SWAP1 POP SWAP2 SWAP1 POP JUMP JUMPDEST PUSH32 0x4E487B7100000000000000000000000000000000000000000000000000000000 PUSH1 0x0 MSTORE PUSH1 0x22 PUSH1 0x4 MSTORE PUSH1 0x24 PUSH1 0x0 REVERT JUMPDEST PUSH1 0x0 PUSH1 0x2 DUP3 DIV SWAP1 POP PUSH1 0x1 DUP3 AND DUP1 PUSH2 0x1FCC JUMPI PUSH1 0x7F DUP3 AND SWAP2 POP JUMPDEST PUSH1 0x20 DUP3 LT DUP2 SUB PUSH2 0x1FDF JUMPI PUSH2 0x1FDE PUSH2 0x1F85 JUMP JUMPDEST JUMPDEST POP SWAP2 SWAP1 POP JUMP JUMPDEST PUSH32 0x566F74696E672068617320657870697265640000000000000000000000000000 PUSH1 0x0 DUP3 ADD MSTORE POP JUMP JUMPDEST PUSH1 0x0 PUSH2 0x201B PUSH1 0x12 DUP4 PUSH2 0x182D JUMP JUMPDEST SWAP2 POP PUSH2 0x2026 DUP3 PUSH2 0x1FE5 JUMP JUMPDEST PUSH1 0x20 DUP3 ADD SWAP1 POP SWAP2 SWAP1 POP JUMP JUMPDEST PUSH1 0x0 PUSH1 0x20 DUP3 ADD SWAP1 POP DUP2 DUP2 SUB PUSH1 0x0 DUP4 ADD MSTORE PUSH2 0x204A DUP2 PUSH2 0x200E JUMP JUMPDEST SWAP1 POP SWAP2 SWAP1 POP JUMP JUMPDEST PUSH32 0x596F7520617265206E6F74207265676973746572656420746F20766F74650000 PUSH1 0x0 DUP3 ADD MSTORE POP JUMP JUMPDEST PUSH1 0x0 PUSH2 0x2087 PUSH1 0x1E DUP4 PUSH2 0x182D JUMP JUMPDEST SWAP2 POP PUSH2 0x2092 DUP3 PUSH2 0x2051 JUMP JUMPDEST PUSH1 0x20 DUP3 ADD SWAP1 POP SWAP2 SWAP1 POP JUMP JUMPDEST PUSH1 0x0 PUSH1 0x20 DUP3 ADD SWAP1 POP DUP2 DUP2 SUB PUSH1 0x0 DUP4 ADD MSTORE PUSH2 0x20B6 DUP2 PUSH2 0x207A JUMP JUMPDEST SWAP1 POP SWAP2 SWAP1 POP JUMP JUMPDEST PUSH32 0x596F7520616C72656164792073656E74206120726573706F6E73652E00000000 PUSH1 0x0 DUP3 ADD MSTORE POP JUMP JUMPDEST PUSH1 0x0 PUSH2 0x20F3 PUSH1 0x1C DUP4 PUSH2 0x182D JUMP JUMPDEST SWAP2 POP PUSH2 0x20FE DUP3 PUSH2 0x20BD JUMP JUMPDEST PUSH1 0x20 DUP3 ADD SWAP1 POP SWAP2 SWAP1 POP JUMP JUMPDEST PUSH1 0x0 PUSH1 0x20 DUP3 ADD SWAP1 POP DUP2 DUP2 SUB PUSH1 0x0 DUP4 ADD MSTORE PUSH2 0x2122 DUP2 PUSH2 0x20E6 JUMP JUMPDEST SWAP1 POP SWAP2 SWAP1 POP JUMP JUMPDEST PUSH32 0x4E487B7100000000000000000000000000000000000000000000000000000000 PUSH1 0x0 MSTORE PUSH1 0x11 PUSH1 0x4 MSTORE PUSH1 0x24 PUSH1 0x0 REVERT JUMPDEST PUSH1 0x0 PUSH2 0x2163 DUP3 PUSH2 0x170A JUMP JUMPDEST SWAP2 POP PUSH2 0x216E DUP4 PUSH2 0x170A JUMP JUMPDEST SWAP3 POP DUP3 PUSH32 0xFFFFFFFFFFFFFFFFFFFFFFFFFFFFFFFFFFFFFFFFFFFFFFFFFFFFFFFFFFFFFFFF SUB DUP3 GT ISZERO PUSH2 0x21A3 JUMPI PUSH2 0x21A2 PUSH2 0x2129 JUMP JUMPDEST JUMPDEST DUP3 DUP3 ADD SWAP1 POP SWAP3 SWAP2 POP POP JUMP JUMPDEST PUSH32 0x5665726469637420686173206E6F74206265656E207265616368656420796574 PUSH1 0x0 DUP3 ADD MSTORE POP JUMP JUMPDEST PUSH1 0x0 PUSH2 0x21E4 PUSH1 0x20 DUP4 PUSH2 0x182D JUMP JUMPDEST SWAP2 POP PUSH2 0x21EF DUP3 PUSH2 0x21AE JUMP JUMPDEST PUSH1 0x20 DUP3 ADD SWAP1 POP SWAP2 SWAP1 POP JUMP JUMPDEST PUSH1 0x0 PUSH1 0x20 DUP3 ADD SWAP1 POP DUP2 DUP2 SUB PUSH1 0x0 DUP4 ADD MSTORE PUSH2 0x2213 DUP2 PUSH2 0x21D7 JUMP JUMPDEST SWAP1 POP SWAP2 SWAP1 POP JUMP JUMPDEST PUSH32 0x4E487B7100000000000000000000000000000000000000000000000000000000 PUSH1 0x0 MSTORE PUSH1 0x12 PUSH1 0x4 MSTORE PUSH1 0x24 PUSH1 0x0 REVERT JUMPDEST PUSH1 0x0 PUSH2 0x2254 DUP3 PUSH2 0x170A JUMP JUMPDEST SWAP2 POP PUSH2 0x225F DUP4 PUSH2 0x170A JUMP JUMPDEST SWAP3 POP DUP3 PUSH2 0x226F JUMPI PUSH2 0x226E PUSH2 0x221A JUMP JUMPDEST JUMPDEST DUP3 DUP3 DIV SWAP1 POP SWAP3 SWAP2 POP POP JUMP JUMPDEST PUSH1 0x0 PUSH2 0x2285 DUP3 PUSH2 0x170A JUMP JUMPDEST SWAP2 POP PUSH2 0x2290 DUP4 PUSH2 0x170A JUMP JUMPDEST SWAP3 POP DUP2 PUSH32 0xFFFFFFFFFFFFFFFFFFFFFFFFFFFFFFFFFFFFFFFFFFFFFFFFFFFFFFFFFFFFFFFF DIV DUP4 GT DUP3 ISZERO ISZERO AND ISZERO PUSH2 0x22C9 JUMPI PUSH2 0x22C8 PUSH2 0x2129 JUMP JUMPDEST JUMPDEST DUP3 DUP3 MUL SWAP1 POP SWAP3 SWAP2 POP POP JUMP JUMPDEST PUSH1 0x0 DUP2 SWAP1 POP DUP2 PUSH1 0x0 MSTORE PUSH1 0x20 PUSH1 0x0 KECCAK256 SWAP1 POP SWAP2 SWAP1 POP JUMP JUMPDEST PUSH1 0x0 PUSH1 0x20 PUSH1 0x1F DUP4 ADD DIV SWAP1 POP SWAP2 SWAP1 POP JUMP JUMPDEST PUSH1 0x0 DUP3 DUP3 SHL SWAP1 POP SWAP3 SWAP2 POP POP JUMP JUMPDEST PUSH1 0x0 PUSH1 0x8 DUP4 MUL PUSH2 0x2336 PUSH32 0xFFFFFFFFFFFFFFFFFFFFFFFFFFFFFFFFFFFFFFFFFFFFFFFFFFFFFFFFFFFFFFFF DUP3 PUSH2 0x22F9 JUMP JUMPDEST PUSH2 0x2340 DUP7 DUP4 PUSH2 0x22F9 JUMP JUMPDEST SWAP6 POP DUP1 NOT DUP5 AND SWAP4 POP DUP1 DUP7 AND DUP5 OR SWAP3 POP POP POP SWAP4 SWAP3 POP POP POP JUMP JUMPDEST PUSH1 0x0 DUP2 SWAP1 POP SWAP2 SWAP1 POP JUMP JUMPDEST PUSH1 0x0 PUSH2 0x237D PUSH2 0x2378 PUSH2 0x2373 DUP5 PUSH2 0x170A JUMP JUMPDEST PUSH2 0x2358 JUMP JUMPDEST PUSH2 0x170A JUMP JUMPDEST SWAP1 POP SWAP2 SWAP1 POP JUMP JUMPDEST PUSH1 0x0 DUP2 SWAP1 POP SWAP2 SWAP1 POP JUMP JUMPDEST PUSH2 0x2397 DUP4 PUSH2 0x2362 JUMP JUMPDEST PUSH2 0x23AB PUSH2 0x23A3 DUP3 PUSH2 0x2384 JUMP JUMPDEST DUP5 DUP5 SLOAD PUSH2 0x2306 JUMP JUMPDEST DUP3 SSTORE POP POP POP POP JUMP JUMPDEST PUSH1 0x0 SWAP1 JUMP JUMPDEST PUSH2 0x23C0 PUSH2 0x23B3 JUMP JUMPDEST PUSH2 0x23CB DUP2 DUP5 DUP5 PUSH2 0x238E JUMP JUMPDEST POP POP POP JUMP JUMPDEST JUMPDEST DUP2 DUP2 LT ISZERO PUSH2 0x23EF JUMPI PUSH2 0x23E4 PUSH1 0x0 DUP3 PUSH2 0x23B8 JUMP JUMPDEST PUSH1 0x1 DUP2 ADD SWAP1 POP PUSH2 0x23D1 JUMP JUMPDEST POP POP JUMP JUMPDEST PUSH1 0x1F DUP3 GT ISZERO PUSH2 0x2434 JUMPI PUSH2 0x2405 DUP2 PUSH2 0x22D4 JUMP JUMPDEST PUSH2 0x240E DUP5 PUSH2 0x22E9 JUMP JUMPDEST DUP2 ADD PUSH1 0x20 DUP6 LT ISZERO PUSH2 0x241D JUMPI DUP2 SWAP1 POP JUMPDEST PUSH2 0x2431 PUSH2 0x2429 DUP6 PUSH2 0x22E9 JUMP JUMPDEST DUP4 ADD DUP3 PUSH2 0x23D0 JUMP JUMPDEST POP POP JUMPDEST POP POP POP JUMP JUMPDEST PUSH1 0x0 DUP3 DUP3 SHR SWAP1 POP SWAP3 SWAP2 POP POP JUMP JUMPDEST PUSH1 0x0 PUSH2 0x2457 PUSH1 0x0 NOT DUP5 PUSH1 0x8 MUL PUSH2 0x2439 JUMP JUMPDEST NOT DUP1 DUP4 AND SWAP2 POP POP SWAP3 SWAP2 POP POP JUMP JUMPDEST PUSH1 0x0 PUSH2 0x2470 DUP4 DUP4 PUSH2 0x2446 JUMP JUMPDEST SWAP2 POP DUP3 PUSH1 0x2 MUL DUP3 OR SWAP1 POP SWAP3 SWAP2 POP POP JUMP JUMPDEST PUSH2 0x2489 DUP3 PUSH2 0x1822 JUMP JUMPDEST PUSH8 0xFFFFFFFFFFFFFFFF DUP2 GT ISZERO PUSH2 0x24A2 JUMPI PUSH2 0x24A1 PUSH2 0x18E7 JUMP JUMPDEST JUMPDEST PUSH2 0x24AC DUP3 SLOAD PUSH2 0x1FB4 JUMP JUMPDEST PUSH2 0x24B7 DUP3 DUP3 DUP6 PUSH2 0x23F3 JUMP JUMPDEST PUSH1 0x0 PUSH1 0x20 SWAP1 POP PUSH1 0x1F DUP4 GT PUSH1 0x1 DUP2 EQ PUSH2 0x24EA JUMPI PUSH1 0x0 DUP5 ISZERO PUSH2 0x24D8 JUMPI DUP3 DUP8 ADD MLOAD SWAP1 POP JUMPDEST PUSH2 0x24E2 DUP6 DUP3 PUSH2 0x2464 JUMP JUMPDEST DUP7 SSTORE POP PUSH2 0x254A JUMP JUMPDEST PUSH1 0x1F NOT DUP5 AND PUSH2 0x24F8 DUP7 PUSH2 0x22D4 JUMP JUMPDEST PUSH1 0x0 JUMPDEST DUP3 DUP2 LT ISZERO PUSH2 0x2520 JUMPI DUP5 DUP10 ADD MLOAD DUP3 SSTORE PUSH1 0x1 DUP3 ADD SWAP2 POP PUSH1 0x20 DUP6 ADD SWAP5 POP PUSH1 0x20 DUP2 ADD SWAP1 POP PUSH2 0x24FB JUMP JUMPDEST DUP7 DUP4 LT ISZERO PUSH2 0x253D JUMPI DUP5 DUP10 ADD MLOAD PUSH2 0x2539 PUSH1 0x1F DUP10 AND DUP3 PUSH2 0x2446 JUMP JUMPDEST DUP4 SSTORE POP JUMPDEST PUSH1 0x1 PUSH1 0x2 DUP9 MUL ADD DUP9 SSTORE POP POP POP JUMPDEST POP POP POP POP POP POP JUMP JUMPDEST PUSH32 0x4E487B7100000000000000000000000000000000000000000000000000000000 PUSH1 0x0 MSTORE PUSH1 0x32 PUSH1 0x4 MSTORE PUSH1 0x24 PUSH1 0x0 REVERT JUMPDEST PUSH1 0x0 PUSH1 0xFF DUP3 AND SWAP1 POP SWAP2 SWAP1 POP JUMP JUMPDEST PUSH1 0x0 PUSH2 0x2599 DUP3 PUSH2 0x2581 JUMP JUMPDEST SWAP2 POP PUSH1 0xFF DUP3 SUB PUSH2 0x25AC JUMPI PUSH2 0x25AB PUSH2 0x2129 JUMP JUMPDEST JUMPDEST PUSH1 0x1 DUP3 ADD SWAP1 POP SWAP2 SWAP1 POP JUMP INVALID LOG2 PUSH5 0x6970667358 0x22 SLT KECCAK256 0xC7 SMOD 0xAD 0x2E 0xE1 MOD 0x4C COINBASE 0xD6 0xD3 PUSH29 0x865BEAEB25E60D978AC6EFA0E579BB88552E90A82C64736F6C63430008 0xF STOP CALLER "
				},
				"gasEstimates": {
					"creation": {
						"codeDepositCost": "1941800",
						"executionCost": "infinite",
						"totalCost": "infinite"
					},
					"external": {
						"AccumulatedPercentage()": "2496",
						"Bundle()": "infinite",
						"BusinessRequirement()": "2451",
						"Consensus()": "infinite",
						"RegisterVoter(address)": "131014",
						"Vote(string)": "infinite",
						"contractAddress()": "2577",
						"getParameters()": "infinite",
						"getParameters2(address)": "infinite",
						"getValues()": "infinite",
						"initiator()": "2559",
						"keys(uint256)": "4980",
						"numApprovals()": "2518",
						"proposal()": "infinite",
						"voters(uint256)": "infinite",
						"voters_map(address)": "infinite"
					}
				},
				"methodIdentifiers": {
					"AccumulatedPercentage()": "604c8333",
					"Bundle()": "fe8ff236",
					"BusinessRequirement()": "d77aa749",
					"Consensus()": "95b02dfa",
					"RegisterVoter(address)": "15fe6f1b",
					"Vote(string)": "323082d7",
					"contractAddress()": "f6b4dfb4",
					"getParameters()": "a5ea11da",
					"getParameters2(address)": "5361a0ea",
					"getValues()": "19eb4a90",
					"initiator()": "5c39fcc1",
					"keys(uint256)": "0cb6aaf1",
					"numApprovals()": "7403c5e5",
					"proposal()": "753ec103",
					"voters(uint256)": "da58c7d9",
					"voters_map(address)": "9aa4bbdd"
				}
			},
			"storageLayout": {
				"storage": [
					{
						"astId": 15,
						"contract": "contracts/BusinessConsensus.sol:BusinessConsensus",
						"label": "contractAddress",
						"offset": 0,
						"slot": "0",
						"type": "t_address"
					},
					{
						"astId": 17,
						"contract": "contracts/BusinessConsensus.sol:BusinessConsensus",
						"label": "expiryDate",
						"offset": 0,
						"slot": "1",
						"type": "t_uint256"
					},
					{
						"astId": 19,
						"contract": "contracts/BusinessConsensus.sol:BusinessConsensus",
						"label": "finalVerdict",
						"offset": 0,
						"slot": "2",
						"type": "t_string_storage"
					},
					{
						"astId": 23,
						"contract": "contracts/BusinessConsensus.sol:BusinessConsensus",
						"label": "initiator",
						"offset": 0,
						"slot": "3",
						"type": "t_address"
					},
					{
						"astId": 25,
						"contract": "contracts/BusinessConsensus.sol:BusinessConsensus",
						"label": "BusinessRequirement",
						"offset": 0,
						"slot": "4",
						"type": "t_uint256"
					},
					{
						"astId": 27,
						"contract": "contracts/BusinessConsensus.sol:BusinessConsensus",
						"label": "AccumulatedPercentage",
						"offset": 0,
						"slot": "5",
						"type": "t_uint256"
					},
					{
						"astId": 29,
						"contract": "contracts/BusinessConsensus.sol:BusinessConsensus",
						"label": "numApprovals",
						"offset": 0,
						"slot": "6",
						"type": "t_uint256"
					},
					{
						"astId": 33,
						"contract": "contracts/BusinessConsensus.sol:BusinessConsensus",
						"label": "voters",
						"offset": 0,
						"slot": "7",
						"type": "t_array(t_struct(Voter)8_storage)dyn_storage"
					},
					{
						"astId": 36,
						"contract": "contracts/BusinessConsensus.sol:BusinessConsensus",
						"label": "keys",
						"offset": 0,
						"slot": "8",
						"type": "t_array(t_address)dyn_storage"
					},
					{
						"astId": 41,
						"contract": "contracts/BusinessConsensus.sol:BusinessConsensus",
						"label": "voters_map",
						"offset": 0,
						"slot": "9",
						"type": "t_mapping(t_address,t_struct(Voter)8_storage)"
					},
					{
						"astId": 44,
						"contract": "contracts/BusinessConsensus.sol:BusinessConsensus",
						"label": "proposal",
						"offset": 0,
						"slot": "10",
						"type": "t_struct(Proposal)13_storage"
					}
				],
				"types": {
					"t_address": {
						"encoding": "inplace",
						"label": "address",
						"numberOfBytes": "20"
					},
					"t_array(t_address)dyn_storage": {
						"base": "t_address",
						"encoding": "dynamic_array",
						"label": "address[]",
						"numberOfBytes": "32"
					},
					"t_array(t_struct(Voter)8_storage)dyn_storage": {
						"base": "t_struct(Voter)8_storage",
						"encoding": "dynamic_array",
						"label": "struct BusinessConsensus.Voter[]",
						"numberOfBytes": "32"
					},
					"t_bool": {
						"encoding": "inplace",
						"label": "bool",
						"numberOfBytes": "1"
					},
					"t_mapping(t_address,t_struct(Voter)8_storage)": {
						"encoding": "mapping",
						"key": "t_address",
						"label": "mapping(address => struct BusinessConsensus.Voter)",
						"numberOfBytes": "32",
						"value": "t_struct(Voter)8_storage"
					},
					"t_string_storage": {
						"encoding": "bytes",
						"label": "string",
						"numberOfBytes": "32"
					},
					"t_struct(Proposal)13_storage": {
						"encoding": "inplace",
						"label": "struct BusinessConsensus.Proposal",
						"members": [
							{
								"astId": 10,
								"contract": "contracts/BusinessConsensus.sol:BusinessConsensus",
								"label": "voteCount",
								"offset": 0,
								"slot": "0",
								"type": "t_uint256"
							},
							{
								"astId": 12,
								"contract": "contracts/BusinessConsensus.sol:BusinessConsensus",
								"label": "messageID",
								"offset": 0,
								"slot": "1",
								"type": "t_string_storage"
							}
						],
						"numberOfBytes": "64"
					},
					"t_struct(Voter)8_storage": {
						"encoding": "inplace",
						"label": "struct BusinessConsensus.Voter",
						"members": [
							{
								"astId": 3,
								"contract": "contracts/BusinessConsensus.sol:BusinessConsensus",
								"label": "voted",
								"offset": 0,
								"slot": "0",
								"type": "t_bool"
							},
							{
								"astId": 5,
								"contract": "contracts/BusinessConsensus.sol:BusinessConsensus",
								"label": "recipient",
								"offset": 1,
								"slot": "0",
								"type": "t_address"
							},
							{
								"astId": 7,
								"contract": "contracts/BusinessConsensus.sol:BusinessConsensus",
								"label": "vote",
								"offset": 21,
								"slot": "0",
								"type": "t_bool"
							}
						],
						"numberOfBytes": "32"
					},
					"t_uint256": {
						"encoding": "inplace",
						"label": "uint256",
						"numberOfBytes": "32"
					}
				}
			},
			"userdoc": {
				"kind": "user",
				"methods": {
					"Consensus()": {
						"notice": "compile all relevant information into a Bundle"
					},
					"Vote(string)": {
						"notice": "Delegate your vote to the voter `to`."
					}
				},
				"version": 1
			}
		}
	}
}