{
	"contracts/BusinessConsensus.sol": {
		"BusinessConsensus": {
			"abi": [
				{
					"inputs": [
						{
							"internalType": "string",
							"name": "_messageID",
							"type": "string"
						},
						{
							"internalType": "uint256",
							"name": "expiry",
							"type": "uint256"
						},
						{
							"internalType": "uint256",
							"name": "requiredPercentage",
							"type": "uint256"
						},
						{
							"internalType": "bytes32",
							"name": "contents",
							"type": "bytes32"
						},
						{
							"internalType": "string",
							"name": "subject",
							"type": "string"
						},
						{
							"internalType": "string",
							"name": "_messageDate",
							"type": "string"
						}
					],
					"stateMutability": "nonpayable",
					"type": "constructor"
				},
				{
					"inputs": [],
					"name": "BusinessRequirement",
					"outputs": [
						{
							"internalType": "uint256",
							"name": "",
							"type": "uint256"
						}
					],
					"stateMutability": "view",
					"type": "function"
				},
				{
					"inputs": [],
					"name": "Consensus",
					"outputs": [],
					"stateMutability": "nonpayable",
					"type": "function"
				},
				{
					"inputs": [
						{
							"internalType": "address",
							"name": "voter",
							"type": "address"
						}
					],
					"name": "RegisterVoter",
					"outputs": [],
					"stateMutability": "nonpayable",
					"type": "function"
				},
				{
					"inputs": [
						{
							"internalType": "string",
							"name": "response",
							"type": "string"
						}
					],
					"name": "Vote",
					"outputs": [],
					"stateMutability": "nonpayable",
					"type": "function"
				},
				{
					"inputs": [
						{
							"internalType": "string",
							"name": "_subject",
							"type": "string"
						},
						{
							"internalType": "uint256",
							"name": "_businessRequirement",
							"type": "uint256"
						},
						{
							"internalType": "uint256",
							"name": "_expiryLength",
							"type": "uint256"
						},
						{
							"internalType": "bytes32",
							"name": "_contents",
							"type": "bytes32"
						}
					],
					"name": "checkConsistency",
					"outputs": [
						{
							"internalType": "bool",
							"name": "",
							"type": "bool"
						},
						{
							"internalType": "bool",
							"name": "",
							"type": "bool"
						},
						{
							"internalType": "bool",
							"name": "",
							"type": "bool"
						}
					],
					"stateMutability": "view",
					"type": "function"
				},
				{
					"inputs": [],
					"name": "contractAddress",
					"outputs": [
						{
							"internalType": "address",
							"name": "",
							"type": "address"
						}
					],
					"stateMutability": "view",
					"type": "function"
				},
				{
					"inputs": [],
					"name": "getIsCompiled",
					"outputs": [
						{
							"internalType": "bool",
							"name": "",
							"type": "bool"
						}
					],
					"stateMutability": "view",
					"type": "function"
				},
				{
					"inputs": [],
					"name": "getParameters",
					"outputs": [
						{
							"internalType": "string",
							"name": "",
							"type": "string"
						},
						{
							"internalType": "uint256",
							"name": "",
							"type": "uint256"
						},
						{
							"internalType": "address",
							"name": "",
							"type": "address"
						},
						{
							"internalType": "uint256",
							"name": "",
							"type": "uint256"
						},
						{
							"internalType": "uint256",
							"name": "",
							"type": "uint256"
						}
					],
					"stateMutability": "view",
					"type": "function"
				},
				{
					"inputs": [
						{
							"internalType": "address",
							"name": "test_address",
							"type": "address"
						}
					],
					"name": "getParameters2",
					"outputs": [
						{
							"internalType": "bool",
							"name": "",
							"type": "bool"
						},
						{
							"internalType": "bool",
							"name": "",
							"type": "bool"
						},
						{
							"internalType": "address",
							"name": "",
							"type": "address"
						}
					],
					"stateMutability": "view",
					"type": "function"
				},
				{
					"inputs": [],
					"name": "getValues",
					"outputs": [
						{
							"internalType": "string",
							"name": "",
							"type": "string"
						}
					],
					"stateMutability": "view",
					"type": "function"
				},
				{
					"inputs": [],
					"name": "initiator",
					"outputs": [
						{
							"internalType": "address",
							"name": "",
							"type": "address"
						}
					],
					"stateMutability": "view",
					"type": "function"
				},
				{
					"inputs": [
						{
							"internalType": "uint256",
							"name": "",
							"type": "uint256"
						}
					],
					"name": "keys",
					"outputs": [
						{
							"internalType": "address",
							"name": "",
							"type": "address"
						}
					],
					"stateMutability": "view",
					"type": "function"
				},
				{
					"inputs": [],
					"name": "numApprovals",
					"outputs": [
						{
							"internalType": "uint256",
							"name": "",
							"type": "uint256"
						}
					],
					"stateMutability": "view",
					"type": "function"
				},
				{
					"inputs": [],
					"name": "proposal",
					"outputs": [
						{
							"internalType": "uint256",
							"name": "voteCount",
							"type": "uint256"
						},
						{
							"internalType": "string",
							"name": "messageID",
							"type": "string"
						},
						{
							"internalType": "string",
							"name": "messageDate",
							"type": "string"
						},
						{
							"internalType": "string",
							"name": "subject",
							"type": "string"
						},
						{
							"internalType": "bytes32",
							"name": "contents",
							"type": "bytes32"
						},
						{
							"internalType": "uint256",
							"name": "expiryLength",
							"type": "uint256"
						}
					],
					"stateMutability": "view",
					"type": "function"
				},
				{
					"inputs": [],
					"name": "retrieve_bundle",
					"outputs": [
						{
							"internalType": "bytes32",
							"name": "",
							"type": "bytes32"
						},
						{
							"components": [
								{
									"internalType": "uint256",
									"name": "voteCount",
									"type": "uint256"
								},
								{
									"internalType": "string",
									"name": "messageID",
									"type": "string"
								},
								{
									"internalType": "string",
									"name": "messageDate",
									"type": "string"
								},
								{
									"internalType": "string",
									"name": "subject",
									"type": "string"
								},
								{
									"internalType": "bytes32",
									"name": "contents",
									"type": "bytes32"
								},
								{
									"internalType": "uint256",
									"name": "expiryLength",
									"type": "uint256"
								}
							],
							"internalType": "struct BusinessConsensus.Proposal",
							"name": "",
							"type": "tuple"
						},
						{
							"components": [
								{
									"internalType": "bool",
									"name": "voted",
									"type": "bool"
								},
								{
									"internalType": "bool",
									"name": "vote",
									"type": "bool"
								},
								{
									"internalType": "address",
									"name": "recipient",
									"type": "address"
								}
							],
							"internalType": "struct BusinessConsensus.Voter[]",
							"name": "",
							"type": "tuple[]"
						}
					],
					"stateMutability": "view",
					"type": "function"
				},
				{
					"inputs": [
						{
							"internalType": "uint256",
							"name": "",
							"type": "uint256"
						}
					],
					"name": "voters",
					"outputs": [
						{
							"internalType": "bool",
							"name": "voted",
							"type": "bool"
						},
						{
							"internalType": "bool",
							"name": "vote",
							"type": "bool"
						},
						{
							"internalType": "address",
							"name": "recipient",
							"type": "address"
						}
					],
					"stateMutability": "view",
					"type": "function"
				},
				{
					"inputs": [
						{
							"internalType": "address",
							"name": "",
							"type": "address"
						}
					],
					"name": "voters_map",
					"outputs": [
						{
							"internalType": "bool",
							"name": "voted",
							"type": "bool"
						},
						{
							"internalType": "bool",
							"name": "vote",
							"type": "bool"
						},
						{
							"internalType": "address",
							"name": "recipient",
							"type": "address"
						}
					],
					"stateMutability": "view",
					"type": "function"
				}
			],
			"devdoc": {
				"kind": "dev",
				"methods": {},
				"version": 1
			},
			"evm": {
				"assembly": "    /* \"contracts/BusinessConsensus.sol\":33:6338  contract BusinessConsensus{\r... */\n  mstore(0x40, 0x80)\n    /* \"contracts/BusinessConsensus.sol\":1251:2028  constructor(string memory _messageID, uint256 expiry, uint256 requiredPercentage,bytes32 contents,string memory subject,string memory _messageDate){\r... */\n  callvalue\n  dup1\n  iszero\n  tag_1\n  jumpi\n  0x00\n  dup1\n  revert\ntag_1:\n  pop\n  mload(0x40)\n  sub(codesize, bytecodeSize)\n  dup1\n  bytecodeSize\n  dup4\n  codecopy\n  dup2\n  dup2\n  add\n  0x40\n  mstore\n  dup2\n  add\n  swap1\n  tag_2\n  swap2\n  swap1\n  tag_3\n  jump\t// in\ntag_2:\n    /* \"contracts/BusinessConsensus.sol\":1421:1431  msg.sender */\n  caller\n    /* \"contracts/BusinessConsensus.sol\":1409:1418  initiator */\n  0x01\n  0x00\n    /* \"contracts/BusinessConsensus.sol\":1409:1431  initiator = msg.sender */\n  0x0100\n  exp\n  dup2\n  sload\n  dup2\n  0xffffffffffffffffffffffffffffffffffffffff\n  mul\n  not\n  and\n  swap1\n  dup4\n  0xffffffffffffffffffffffffffffffffffffffff\n  and\n  mul\n  or\n  swap1\n  sstore\n  pop\n    /* \"contracts/BusinessConsensus.sol\":1473:1479  expiry */\n  dup5\n    /* \"contracts/BusinessConsensus.sol\":1455:1470  block.timestamp */\n  timestamp\n    /* \"contracts/BusinessConsensus.sol\":1455:1479  block.timestamp + expiry */\n  tag_6\n  swap2\n  swap1\n  tag_7\n  jump\t// in\ntag_6:\n    /* \"contracts/BusinessConsensus.sol\":1442:1452  expiryDate */\n  0x03\n    /* \"contracts/BusinessConsensus.sol\":1442:1479  expiryDate = block.timestamp + expiry */\n  dup2\n  swap1\n  sstore\n  pop\n    /* \"contracts/BusinessConsensus.sol\":1512:1530  requiredPercentage */\n  dup4\n    /* \"contracts/BusinessConsensus.sol\":1490:1509  BusinessRequirement */\n  0x04\n    /* \"contracts/BusinessConsensus.sol\":1490:1530  BusinessRequirement = requiredPercentage */\n  dup2\n  swap1\n  sstore\n  pop\n    /* \"contracts/BusinessConsensus.sol\":1556:1557  0 */\n  0x00\n    /* \"contracts/BusinessConsensus.sol\":1541:1553  numApprovals */\n  0x05\n    /* \"contracts/BusinessConsensus.sol\":1541:1557  numApprovals = 0 */\n  dup2\n  swap1\n  sstore\n  pop\n    /* \"contracts/BusinessConsensus.sol\":1581:1586  false */\n  0x00\n    /* \"contracts/BusinessConsensus.sol\":1568:1578  isCompiled */\n  0x06\n  0x00\n    /* \"contracts/BusinessConsensus.sol\":1568:1586  isCompiled = false */\n  0x0100\n  exp\n  dup2\n  sload\n  dup2\n  0xff\n  mul\n  not\n  and\n  swap1\n  dup4\n  iszero\n  iszero\n  mul\n  or\n  swap1\n  sstore\n  pop\n    /* \"contracts/BusinessConsensus.sol\":1597:1622  finalVerdict = \"Rejected\" */\n  0x52656a6563746564000000000000000000000000000000000000000000000000\n    /* \"contracts/BusinessConsensus.sol\":1597:1609  finalVerdict */\n  0x07\n    /* \"contracts/BusinessConsensus.sol\":1597:1622  finalVerdict = \"Rejected\" */\n  dup2\n  swap1\n  sstore\n  pop\n    /* \"contracts/BusinessConsensus.sol\":1659:1663  this */\n  address\n    /* \"contracts/BusinessConsensus.sol\":1633:1648  contractAddress */\n  0x00\n  dup1\n    /* \"contracts/BusinessConsensus.sol\":1633:1664  contractAddress = address(this) */\n  0x0100\n  exp\n  dup2\n  sload\n  dup2\n  0xffffffffffffffffffffffffffffffffffffffff\n  mul\n  not\n  and\n  swap1\n  dup4\n  0xffffffffffffffffffffffffffffffffffffffff\n  and\n  mul\n  or\n  swap1\n  sstore\n  pop\n    /* \"contracts/BusinessConsensus.sol\":1771:2020  Proposal({\r... */\n  mload(0x40)\n  dup1\n  0xc0\n  add\n  0x40\n  mstore\n  dup1\n    /* \"contracts/BusinessConsensus.sol\":1810:1811  0 */\n  0x00\n    /* \"contracts/BusinessConsensus.sol\":1771:2020  Proposal({\r... */\n  dup2\n  mstore\n  0x20\n  add\n    /* \"contracts/BusinessConsensus.sol\":1841:1851  _messageID */\n  dup8\n    /* \"contracts/BusinessConsensus.sol\":1771:2020  Proposal({\r... */\n  dup2\n  mstore\n  0x20\n  add\n    /* \"contracts/BusinessConsensus.sol\":1882:1894  _messageDate */\n  dup3\n    /* \"contracts/BusinessConsensus.sol\":1771:2020  Proposal({\r... */\n  dup2\n  mstore\n  0x20\n  add\n    /* \"contracts/BusinessConsensus.sol\":1922:1929  subject */\n  dup4\n    /* \"contracts/BusinessConsensus.sol\":1771:2020  Proposal({\r... */\n  dup2\n  mstore\n  0x20\n  add\n    /* \"contracts/BusinessConsensus.sol\":1958:1966  contents */\n  dup5\n    /* \"contracts/BusinessConsensus.sol\":1771:2020  Proposal({\r... */\n  dup2\n  mstore\n  0x20\n  add\n    /* \"contracts/BusinessConsensus.sol\":1998:2004  expiry */\n  dup7\n    /* \"contracts/BusinessConsensus.sol\":1771:2020  Proposal({\r... */\n  dup2\n  mstore\n  pop\n    /* \"contracts/BusinessConsensus.sol\":1760:1768  proposal */\n  0x0a\n    /* \"contracts/BusinessConsensus.sol\":1760:2020  proposal = Proposal({\r... */\n  0x00\n  dup3\n  add\n  mload\n  dup2\n  0x00\n  add\n  sstore\n  0x20\n  dup3\n  add\n  mload\n  dup2\n  0x01\n  add\n  swap1\n  dup1\n  mload\n  swap1\n  0x20\n  add\n  swap1\n  tag_8\n  swap3\n  swap2\n  swap1\n  tag_9\n  jump\t// in\ntag_8:\n  pop\n  0x40\n  dup3\n  add\n  mload\n  dup2\n  0x02\n  add\n  swap1\n  dup1\n  mload\n  swap1\n  0x20\n  add\n  swap1\n  tag_10\n  swap3\n  swap2\n  swap1\n  tag_9\n  jump\t// in\ntag_10:\n  pop\n  0x60\n  dup3\n  add\n  mload\n  dup2\n  0x03\n  add\n  swap1\n  dup1\n  mload\n  swap1\n  0x20\n  add\n  swap1\n  tag_11\n  swap3\n  swap2\n  swap1\n  tag_9\n  jump\t// in\ntag_11:\n  pop\n  0x80\n  dup3\n  add\n  mload\n  dup2\n  0x04\n  add\n  sstore\n  0xa0\n  dup3\n  add\n  mload\n  dup2\n  0x05\n  add\n  sstore\n  swap1\n  pop\n  pop\n    /* \"contracts/BusinessConsensus.sol\":1251:2028  constructor(string memory _messageID, uint256 expiry, uint256 requiredPercentage,bytes32 contents,string memory subject,string memory _messageDate){\r... */\n  pop\n  pop\n  pop\n  pop\n  pop\n  pop\n    /* \"contracts/BusinessConsensus.sol\":33:6338  contract BusinessConsensus{\r... */\n  jump(tag_12)\ntag_9:\n  dup3\n  dup1\n  sload\n  tag_13\n  swap1\n  tag_14\n  jump\t// in\ntag_13:\n  swap1\n  0x00\n  mstore\n  keccak256(0x00, 0x20)\n  swap1\n  0x1f\n  add\n  0x20\n  swap1\n  div\n  dup2\n  add\n  swap3\n  dup3\n  tag_16\n  jumpi\n  0x00\n  dup6\n  sstore\n  jump(tag_15)\ntag_16:\n  dup3\n  0x1f\n  lt\n  tag_17\n  jumpi\n  dup1\n  mload\n  not(0xff)\n  and\n  dup4\n  dup1\n  add\n  or\n  dup6\n  sstore\n  jump(tag_15)\ntag_17:\n  dup3\n  dup1\n  add\n  0x01\n  add\n  dup6\n  sstore\n  dup3\n  iszero\n  tag_15\n  jumpi\n  swap2\n  dup3\n  add\ntag_18:\n  dup3\n  dup2\n  gt\n  iszero\n  tag_19\n  jumpi\n  dup3\n  mload\n  dup3\n  sstore\n  swap2\n  0x20\n  add\n  swap2\n  swap1\n  0x01\n  add\n  swap1\n  jump(tag_18)\ntag_19:\ntag_15:\n  pop\n  swap1\n  pop\n  tag_20\n  swap2\n  swap1\n  tag_21\n  jump\t// in\ntag_20:\n  pop\n  swap1\n  jump\t// out\ntag_21:\ntag_22:\n  dup1\n  dup3\n  gt\n  iszero\n  tag_23\n  jumpi\n  0x00\n  dup2\n  0x00\n  swap1\n  sstore\n  pop\n  0x01\n  add\n  jump(tag_22)\ntag_23:\n  pop\n  swap1\n  jump\t// out\n    /* \"#utility.yul\":7:428   */\ntag_25:\n    /* \"#utility.yul\":96:101   */\n  0x00\n    /* \"#utility.yul\":121:187   */\n  tag_27\n    /* \"#utility.yul\":137:186   */\n  tag_28\n    /* \"#utility.yul\":179:185   */\n  dup5\n    /* \"#utility.yul\":137:186   */\n  tag_29\n  jump\t// in\ntag_28:\n    /* \"#utility.yul\":121:187   */\n  tag_30\n  jump\t// in\ntag_27:\n    /* \"#utility.yul\":112:187   */\n  swap1\n  pop\n    /* \"#utility.yul\":210:216   */\n  dup3\n    /* \"#utility.yul\":203:208   */\n  dup2\n    /* \"#utility.yul\":196:217   */\n  mstore\n    /* \"#utility.yul\":248:252   */\n  0x20\n    /* \"#utility.yul\":241:246   */\n  dup2\n    /* \"#utility.yul\":237:253   */\n  add\n    /* \"#utility.yul\":286:289   */\n  dup5\n    /* \"#utility.yul\":277:283   */\n  dup5\n    /* \"#utility.yul\":272:275   */\n  dup5\n    /* \"#utility.yul\":268:284   */\n  add\n    /* \"#utility.yul\":265:290   */\n  gt\n    /* \"#utility.yul\":262:374   */\n  iszero\n  tag_31\n  jumpi\n    /* \"#utility.yul\":293:372   */\n  tag_32\n  tag_33\n  jump\t// in\ntag_32:\n    /* \"#utility.yul\":262:374   */\ntag_31:\n    /* \"#utility.yul\":383:422   */\n  tag_34\n    /* \"#utility.yul\":415:421   */\n  dup5\n    /* \"#utility.yul\":410:413   */\n  dup3\n    /* \"#utility.yul\":405:408   */\n  dup6\n    /* \"#utility.yul\":383:422   */\n  tag_35\n  jump\t// in\ntag_34:\n    /* \"#utility.yul\":102:428   */\n  pop\n    /* \"#utility.yul\":7:428   */\n  swap4\n  swap3\n  pop\n  pop\n  pop\n  jump\t// out\n    /* \"#utility.yul\":434:577   */\ntag_36:\n    /* \"#utility.yul\":491:496   */\n  0x00\n    /* \"#utility.yul\":522:528   */\n  dup2\n    /* \"#utility.yul\":516:529   */\n  mload\n    /* \"#utility.yul\":507:529   */\n  swap1\n  pop\n    /* \"#utility.yul\":538:571   */\n  tag_38\n    /* \"#utility.yul\":565:570   */\n  dup2\n    /* \"#utility.yul\":538:571   */\n  tag_39\n  jump\t// in\ntag_38:\n    /* \"#utility.yul\":434:577   */\n  swap3\n  swap2\n  pop\n  pop\n  jump\t// out\n    /* \"#utility.yul\":597:952   */\ntag_40:\n    /* \"#utility.yul\":664:669   */\n  0x00\n    /* \"#utility.yul\":713:716   */\n  dup3\n    /* \"#utility.yul\":706:710   */\n  0x1f\n    /* \"#utility.yul\":698:704   */\n  dup4\n    /* \"#utility.yul\":694:711   */\n  add\n    /* \"#utility.yul\":690:717   */\n  slt\n    /* \"#utility.yul\":680:802   */\n  tag_42\n  jumpi\n    /* \"#utility.yul\":721:800   */\n  tag_43\n  tag_44\n  jump\t// in\ntag_43:\n    /* \"#utility.yul\":680:802   */\ntag_42:\n    /* \"#utility.yul\":831:837   */\n  dup2\n    /* \"#utility.yul\":825:838   */\n  mload\n    /* \"#utility.yul\":856:946   */\n  tag_45\n    /* \"#utility.yul\":942:945   */\n  dup5\n    /* \"#utility.yul\":934:940   */\n  dup3\n    /* \"#utility.yul\":927:931   */\n  0x20\n    /* \"#utility.yul\":919:925   */\n  dup7\n    /* \"#utility.yul\":915:932   */\n  add\n    /* \"#utility.yul\":856:946   */\n  tag_25\n  jump\t// in\ntag_45:\n    /* \"#utility.yul\":847:946   */\n  swap2\n  pop\n    /* \"#utility.yul\":670:952   */\n  pop\n    /* \"#utility.yul\":597:952   */\n  swap3\n  swap2\n  pop\n  pop\n  jump\t// out\n    /* \"#utility.yul\":958:1101   */\ntag_46:\n    /* \"#utility.yul\":1015:1020   */\n  0x00\n    /* \"#utility.yul\":1046:1052   */\n  dup2\n    /* \"#utility.yul\":1040:1053   */\n  mload\n    /* \"#utility.yul\":1031:1053   */\n  swap1\n  pop\n    /* \"#utility.yul\":1062:1095   */\n  tag_48\n    /* \"#utility.yul\":1089:1094   */\n  dup2\n    /* \"#utility.yul\":1062:1095   */\n  tag_49\n  jump\t// in\ntag_48:\n    /* \"#utility.yul\":958:1101   */\n  swap3\n  swap2\n  pop\n  pop\n  jump\t// out\n    /* \"#utility.yul\":1107:2760   */\ntag_3:\n    /* \"#utility.yul\":1252:1258   */\n  0x00\n    /* \"#utility.yul\":1260:1266   */\n  dup1\n    /* \"#utility.yul\":1268:1274   */\n  0x00\n    /* \"#utility.yul\":1276:1282   */\n  dup1\n    /* \"#utility.yul\":1284:1290   */\n  0x00\n    /* \"#utility.yul\":1292:1298   */\n  dup1\n    /* \"#utility.yul\":1341:1344   */\n  0xc0\n    /* \"#utility.yul\":1329:1338   */\n  dup8\n    /* \"#utility.yul\":1320:1327   */\n  dup10\n    /* \"#utility.yul\":1316:1339   */\n  sub\n    /* \"#utility.yul\":1312:1345   */\n  slt\n    /* \"#utility.yul\":1309:1429   */\n  iszero\n  tag_51\n  jumpi\n    /* \"#utility.yul\":1348:1427   */\n  tag_52\n  tag_53\n  jump\t// in\ntag_52:\n    /* \"#utility.yul\":1309:1429   */\ntag_51:\n    /* \"#utility.yul\":1489:1490   */\n  0x00\n    /* \"#utility.yul\":1478:1487   */\n  dup8\n    /* \"#utility.yul\":1474:1491   */\n  add\n    /* \"#utility.yul\":1468:1492   */\n  mload\n    /* \"#utility.yul\":1519:1537   */\n  0xffffffffffffffff\n    /* \"#utility.yul\":1511:1517   */\n  dup2\n    /* \"#utility.yul\":1508:1538   */\n  gt\n    /* \"#utility.yul\":1505:1622   */\n  iszero\n  tag_54\n  jumpi\n    /* \"#utility.yul\":1541:1620   */\n  tag_55\n  tag_56\n  jump\t// in\ntag_55:\n    /* \"#utility.yul\":1505:1622   */\ntag_54:\n    /* \"#utility.yul\":1646:1720   */\n  tag_57\n    /* \"#utility.yul\":1712:1719   */\n  dup10\n    /* \"#utility.yul\":1703:1709   */\n  dup3\n    /* \"#utility.yul\":1692:1701   */\n  dup11\n    /* \"#utility.yul\":1688:1710   */\n  add\n    /* \"#utility.yul\":1646:1720   */\n  tag_40\n  jump\t// in\ntag_57:\n    /* \"#utility.yul\":1636:1720   */\n  swap7\n  pop\n    /* \"#utility.yul\":1439:1730   */\n  pop\n    /* \"#utility.yul\":1769:1771   */\n  0x20\n    /* \"#utility.yul\":1795:1859   */\n  tag_58\n    /* \"#utility.yul\":1851:1858   */\n  dup10\n    /* \"#utility.yul\":1842:1848   */\n  dup3\n    /* \"#utility.yul\":1831:1840   */\n  dup11\n    /* \"#utility.yul\":1827:1849   */\n  add\n    /* \"#utility.yul\":1795:1859   */\n  tag_46\n  jump\t// in\ntag_58:\n    /* \"#utility.yul\":1785:1859   */\n  swap6\n  pop\n    /* \"#utility.yul\":1740:1869   */\n  pop\n    /* \"#utility.yul\":1908:1910   */\n  0x40\n    /* \"#utility.yul\":1934:1998   */\n  tag_59\n    /* \"#utility.yul\":1990:1997   */\n  dup10\n    /* \"#utility.yul\":1981:1987   */\n  dup3\n    /* \"#utility.yul\":1970:1979   */\n  dup11\n    /* \"#utility.yul\":1966:1988   */\n  add\n    /* \"#utility.yul\":1934:1998   */\n  tag_46\n  jump\t// in\ntag_59:\n    /* \"#utility.yul\":1924:1998   */\n  swap5\n  pop\n    /* \"#utility.yul\":1879:2008   */\n  pop\n    /* \"#utility.yul\":2047:2049   */\n  0x60\n    /* \"#utility.yul\":2073:2137   */\n  tag_60\n    /* \"#utility.yul\":2129:2136   */\n  dup10\n    /* \"#utility.yul\":2120:2126   */\n  dup3\n    /* \"#utility.yul\":2109:2118   */\n  dup11\n    /* \"#utility.yul\":2105:2127   */\n  add\n    /* \"#utility.yul\":2073:2137   */\n  tag_36\n  jump\t// in\ntag_60:\n    /* \"#utility.yul\":2063:2137   */\n  swap4\n  pop\n    /* \"#utility.yul\":2018:2147   */\n  pop\n    /* \"#utility.yul\":2207:2210   */\n  0x80\n    /* \"#utility.yul\":2196:2205   */\n  dup8\n    /* \"#utility.yul\":2192:2211   */\n  add\n    /* \"#utility.yul\":2186:2212   */\n  mload\n    /* \"#utility.yul\":2239:2257   */\n  0xffffffffffffffff\n    /* \"#utility.yul\":2231:2237   */\n  dup2\n    /* \"#utility.yul\":2228:2258   */\n  gt\n    /* \"#utility.yul\":2225:2342   */\n  iszero\n  tag_61\n  jumpi\n    /* \"#utility.yul\":2261:2340   */\n  tag_62\n  tag_56\n  jump\t// in\ntag_62:\n    /* \"#utility.yul\":2225:2342   */\ntag_61:\n    /* \"#utility.yul\":2366:2440   */\n  tag_63\n    /* \"#utility.yul\":2432:2439   */\n  dup10\n    /* \"#utility.yul\":2423:2429   */\n  dup3\n    /* \"#utility.yul\":2412:2421   */\n  dup11\n    /* \"#utility.yul\":2408:2430   */\n  add\n    /* \"#utility.yul\":2366:2440   */\n  tag_40\n  jump\t// in\ntag_63:\n    /* \"#utility.yul\":2356:2440   */\n  swap3\n  pop\n    /* \"#utility.yul\":2157:2450   */\n  pop\n    /* \"#utility.yul\":2510:2513   */\n  0xa0\n    /* \"#utility.yul\":2499:2508   */\n  dup8\n    /* \"#utility.yul\":2495:2514   */\n  add\n    /* \"#utility.yul\":2489:2515   */\n  mload\n    /* \"#utility.yul\":2542:2560   */\n  0xffffffffffffffff\n    /* \"#utility.yul\":2534:2540   */\n  dup2\n    /* \"#utility.yul\":2531:2561   */\n  gt\n    /* \"#utility.yul\":2528:2645   */\n  iszero\n  tag_64\n  jumpi\n    /* \"#utility.yul\":2564:2643   */\n  tag_65\n  tag_56\n  jump\t// in\ntag_65:\n    /* \"#utility.yul\":2528:2645   */\ntag_64:\n    /* \"#utility.yul\":2669:2743   */\n  tag_66\n    /* \"#utility.yul\":2735:2742   */\n  dup10\n    /* \"#utility.yul\":2726:2732   */\n  dup3\n    /* \"#utility.yul\":2715:2724   */\n  dup11\n    /* \"#utility.yul\":2711:2733   */\n  add\n    /* \"#utility.yul\":2669:2743   */\n  tag_40\n  jump\t// in\ntag_66:\n    /* \"#utility.yul\":2659:2743   */\n  swap2\n  pop\n    /* \"#utility.yul\":2460:2753   */\n  pop\n    /* \"#utility.yul\":1107:2760   */\n  swap3\n  swap6\n  pop\n  swap3\n  swap6\n  pop\n  swap3\n  swap6\n  jump\t// out\n    /* \"#utility.yul\":2766:2895   */\ntag_30:\n    /* \"#utility.yul\":2800:2806   */\n  0x00\n    /* \"#utility.yul\":2827:2847   */\n  tag_68\n  tag_69\n  jump\t// in\ntag_68:\n    /* \"#utility.yul\":2817:2847   */\n  swap1\n  pop\n    /* \"#utility.yul\":2856:2889   */\n  tag_70\n    /* \"#utility.yul\":2884:2888   */\n  dup3\n    /* \"#utility.yul\":2876:2882   */\n  dup3\n    /* \"#utility.yul\":2856:2889   */\n  tag_71\n  jump\t// in\ntag_70:\n    /* \"#utility.yul\":2766:2895   */\n  swap2\n  swap1\n  pop\n  jump\t// out\n    /* \"#utility.yul\":2901:2976   */\ntag_69:\n    /* \"#utility.yul\":2934:2940   */\n  0x00\n    /* \"#utility.yul\":2967:2969   */\n  0x40\n    /* \"#utility.yul\":2961:2970   */\n  mload\n    /* \"#utility.yul\":2951:2970   */\n  swap1\n  pop\n    /* \"#utility.yul\":2901:2976   */\n  swap1\n  jump\t// out\n    /* \"#utility.yul\":2982:3290   */\ntag_29:\n    /* \"#utility.yul\":3044:3048   */\n  0x00\n    /* \"#utility.yul\":3134:3152   */\n  0xffffffffffffffff\n    /* \"#utility.yul\":3126:3132   */\n  dup3\n    /* \"#utility.yul\":3123:3153   */\n  gt\n    /* \"#utility.yul\":3120:3176   */\n  iszero\n  tag_74\n  jumpi\n    /* \"#utility.yul\":3156:3174   */\n  tag_75\n  tag_76\n  jump\t// in\ntag_75:\n    /* \"#utility.yul\":3120:3176   */\ntag_74:\n    /* \"#utility.yul\":3194:3223   */\n  tag_77\n    /* \"#utility.yul\":3216:3222   */\n  dup3\n    /* \"#utility.yul\":3194:3223   */\n  tag_78\n  jump\t// in\ntag_77:\n    /* \"#utility.yul\":3186:3223   */\n  swap1\n  pop\n    /* \"#utility.yul\":3278:3282   */\n  0x20\n    /* \"#utility.yul\":3272:3276   */\n  dup2\n    /* \"#utility.yul\":3268:3283   */\n  add\n    /* \"#utility.yul\":3260:3283   */\n  swap1\n  pop\n    /* \"#utility.yul\":2982:3290   */\n  swap2\n  swap1\n  pop\n  jump\t// out\n    /* \"#utility.yul\":3296:3601   */\ntag_7:\n    /* \"#utility.yul\":3336:3339   */\n  0x00\n    /* \"#utility.yul\":3355:3375   */\n  tag_80\n    /* \"#utility.yul\":3373:3374   */\n  dup3\n    /* \"#utility.yul\":3355:3375   */\n  tag_81\n  jump\t// in\ntag_80:\n    /* \"#utility.yul\":3350:3375   */\n  swap2\n  pop\n    /* \"#utility.yul\":3389:3409   */\n  tag_82\n    /* \"#utility.yul\":3407:3408   */\n  dup4\n    /* \"#utility.yul\":3389:3409   */\n  tag_81\n  jump\t// in\ntag_82:\n    /* \"#utility.yul\":3384:3409   */\n  swap3\n  pop\n    /* \"#utility.yul\":3543:3544   */\n  dup3\n    /* \"#utility.yul\":3475:3541   */\n  0xffffffffffffffffffffffffffffffffffffffffffffffffffffffffffffffff\n    /* \"#utility.yul\":3471:3545   */\n  sub\n    /* \"#utility.yul\":3468:3469   */\n  dup3\n    /* \"#utility.yul\":3465:3546   */\n  gt\n    /* \"#utility.yul\":3462:3569   */\n  iszero\n  tag_83\n  jumpi\n    /* \"#utility.yul\":3549:3567   */\n  tag_84\n  tag_85\n  jump\t// in\ntag_84:\n    /* \"#utility.yul\":3462:3569   */\ntag_83:\n    /* \"#utility.yul\":3593:3594   */\n  dup3\n    /* \"#utility.yul\":3590:3591   */\n  dup3\n    /* \"#utility.yul\":3586:3595   */\n  add\n    /* \"#utility.yul\":3579:3595   */\n  swap1\n  pop\n    /* \"#utility.yul\":3296:3601   */\n  swap3\n  swap2\n  pop\n  pop\n  jump\t// out\n    /* \"#utility.yul\":3607:3684   */\ntag_86:\n    /* \"#utility.yul\":3644:3651   */\n  0x00\n    /* \"#utility.yul\":3673:3678   */\n  dup2\n    /* \"#utility.yul\":3662:3678   */\n  swap1\n  pop\n    /* \"#utility.yul\":3607:3684   */\n  swap2\n  swap1\n  pop\n  jump\t// out\n    /* \"#utility.yul\":3690:3767   */\ntag_81:\n    /* \"#utility.yul\":3727:3734   */\n  0x00\n    /* \"#utility.yul\":3756:3761   */\n  dup2\n    /* \"#utility.yul\":3745:3761   */\n  swap1\n  pop\n    /* \"#utility.yul\":3690:3767   */\n  swap2\n  swap1\n  pop\n  jump\t// out\n    /* \"#utility.yul\":3773:4080   */\ntag_35:\n    /* \"#utility.yul\":3841:3842   */\n  0x00\n    /* \"#utility.yul\":3851:3964   */\ntag_90:\n    /* \"#utility.yul\":3865:3871   */\n  dup4\n    /* \"#utility.yul\":3862:3863   */\n  dup2\n    /* \"#utility.yul\":3859:3872   */\n  lt\n    /* \"#utility.yul\":3851:3964   */\n  iszero\n  tag_92\n  jumpi\n    /* \"#utility.yul\":3950:3951   */\n  dup1\n    /* \"#utility.yul\":3945:3948   */\n  dup3\n    /* \"#utility.yul\":3941:3952   */\n  add\n    /* \"#utility.yul\":3935:3953   */\n  mload\n    /* \"#utility.yul\":3931:3932   */\n  dup2\n    /* \"#utility.yul\":3926:3929   */\n  dup5\n    /* \"#utility.yul\":3922:3933   */\n  add\n    /* \"#utility.yul\":3915:3954   */\n  mstore\n    /* \"#utility.yul\":3887:3889   */\n  0x20\n    /* \"#utility.yul\":3884:3885   */\n  dup2\n    /* \"#utility.yul\":3880:3890   */\n  add\n    /* \"#utility.yul\":3875:3890   */\n  swap1\n  pop\n    /* \"#utility.yul\":3851:3964   */\n  jump(tag_90)\ntag_92:\n    /* \"#utility.yul\":3982:3988   */\n  dup4\n    /* \"#utility.yul\":3979:3980   */\n  dup2\n    /* \"#utility.yul\":3976:3989   */\n  gt\n    /* \"#utility.yul\":3973:4074   */\n  iszero\n  tag_93\n  jumpi\n    /* \"#utility.yul\":4062:4063   */\n  0x00\n    /* \"#utility.yul\":4053:4059   */\n  dup5\n    /* \"#utility.yul\":4048:4051   */\n  dup5\n    /* \"#utility.yul\":4044:4060   */\n  add\n    /* \"#utility.yul\":4037:4064   */\n  mstore\n    /* \"#utility.yul\":3973:4074   */\ntag_93:\n    /* \"#utility.yul\":3822:4080   */\n  pop\n    /* \"#utility.yul\":3773:4080   */\n  pop\n  pop\n  pop\n  jump\t// out\n    /* \"#utility.yul\":4086:4406   */\ntag_14:\n    /* \"#utility.yul\":4130:4136   */\n  0x00\n    /* \"#utility.yul\":4167:4168   */\n  0x02\n    /* \"#utility.yul\":4161:4165   */\n  dup3\n    /* \"#utility.yul\":4157:4169   */\n  div\n    /* \"#utility.yul\":4147:4169   */\n  swap1\n  pop\n    /* \"#utility.yul\":4214:4215   */\n  0x01\n    /* \"#utility.yul\":4208:4212   */\n  dup3\n    /* \"#utility.yul\":4204:4216   */\n  and\n    /* \"#utility.yul\":4235:4253   */\n  dup1\n    /* \"#utility.yul\":4225:4306   */\n  tag_95\n  jumpi\n    /* \"#utility.yul\":4291:4295   */\n  0x7f\n    /* \"#utility.yul\":4283:4289   */\n  dup3\n    /* \"#utility.yul\":4279:4296   */\n  and\n    /* \"#utility.yul\":4269:4296   */\n  swap2\n  pop\n    /* \"#utility.yul\":4225:4306   */\ntag_95:\n    /* \"#utility.yul\":4353:4355   */\n  0x20\n    /* \"#utility.yul\":4345:4351   */\n  dup3\n    /* \"#utility.yul\":4342:4356   */\n  lt\n    /* \"#utility.yul\":4322:4340   */\n  dup2\n    /* \"#utility.yul\":4319:4357   */\n  eq\n    /* \"#utility.yul\":4316:4400   */\n  iszero\n  tag_96\n  jumpi\n    /* \"#utility.yul\":4372:4390   */\n  tag_97\n  tag_98\n  jump\t// in\ntag_97:\n    /* \"#utility.yul\":4316:4400   */\ntag_96:\n    /* \"#utility.yul\":4137:4406   */\n  pop\n    /* \"#utility.yul\":4086:4406   */\n  swap2\n  swap1\n  pop\n  jump\t// out\n    /* \"#utility.yul\":4412:4693   */\ntag_71:\n    /* \"#utility.yul\":4495:4522   */\n  tag_100\n    /* \"#utility.yul\":4517:4521   */\n  dup3\n    /* \"#utility.yul\":4495:4522   */\n  tag_78\n  jump\t// in\ntag_100:\n    /* \"#utility.yul\":4487:4493   */\n  dup2\n    /* \"#utility.yul\":4483:4523   */\n  add\n    /* \"#utility.yul\":4625:4631   */\n  dup2\n    /* \"#utility.yul\":4613:4623   */\n  dup2\n    /* \"#utility.yul\":4610:4632   */\n  lt\n    /* \"#utility.yul\":4589:4607   */\n  0xffffffffffffffff\n    /* \"#utility.yul\":4577:4587   */\n  dup3\n    /* \"#utility.yul\":4574:4608   */\n  gt\n    /* \"#utility.yul\":4571:4633   */\n  or\n    /* \"#utility.yul\":4568:4656   */\n  iszero\n  tag_101\n  jumpi\n    /* \"#utility.yul\":4636:4654   */\n  tag_102\n  tag_76\n  jump\t// in\ntag_102:\n    /* \"#utility.yul\":4568:4656   */\ntag_101:\n    /* \"#utility.yul\":4676:4686   */\n  dup1\n    /* \"#utility.yul\":4672:4674   */\n  0x40\n    /* \"#utility.yul\":4665:4687   */\n  mstore\n    /* \"#utility.yul\":4455:4693   */\n  pop\n    /* \"#utility.yul\":4412:4693   */\n  pop\n  pop\n  jump\t// out\n    /* \"#utility.yul\":4699:4879   */\ntag_85:\n    /* \"#utility.yul\":4747:4824   */\n  0x4e487b7100000000000000000000000000000000000000000000000000000000\n    /* \"#utility.yul\":4744:4745   */\n  0x00\n    /* \"#utility.yul\":4737:4825   */\n  mstore\n    /* \"#utility.yul\":4844:4848   */\n  0x11\n    /* \"#utility.yul\":4841:4842   */\n  0x04\n    /* \"#utility.yul\":4834:4849   */\n  mstore\n    /* \"#utility.yul\":4868:4872   */\n  0x24\n    /* \"#utility.yul\":4865:4866   */\n  0x00\n    /* \"#utility.yul\":4858:4873   */\n  revert\n    /* \"#utility.yul\":4885:5065   */\ntag_98:\n    /* \"#utility.yul\":4933:5010   */\n  0x4e487b7100000000000000000000000000000000000000000000000000000000\n    /* \"#utility.yul\":4930:4931   */\n  0x00\n    /* \"#utility.yul\":4923:5011   */\n  mstore\n    /* \"#utility.yul\":5030:5034   */\n  0x22\n    /* \"#utility.yul\":5027:5028   */\n  0x04\n    /* \"#utility.yul\":5020:5035   */\n  mstore\n    /* \"#utility.yul\":5054:5058   */\n  0x24\n    /* \"#utility.yul\":5051:5052   */\n  0x00\n    /* \"#utility.yul\":5044:5059   */\n  revert\n    /* \"#utility.yul\":5071:5251   */\ntag_76:\n    /* \"#utility.yul\":5119:5196   */\n  0x4e487b7100000000000000000000000000000000000000000000000000000000\n    /* \"#utility.yul\":5116:5117   */\n  0x00\n    /* \"#utility.yul\":5109:5197   */\n  mstore\n    /* \"#utility.yul\":5216:5220   */\n  0x41\n    /* \"#utility.yul\":5213:5214   */\n  0x04\n    /* \"#utility.yul\":5206:5221   */\n  mstore\n    /* \"#utility.yul\":5240:5244   */\n  0x24\n    /* \"#utility.yul\":5237:5238   */\n  0x00\n    /* \"#utility.yul\":5230:5245   */\n  revert\n    /* \"#utility.yul\":5257:5374   */\ntag_44:\n    /* \"#utility.yul\":5366:5367   */\n  0x00\n    /* \"#utility.yul\":5363:5364   */\n  dup1\n    /* \"#utility.yul\":5356:5368   */\n  revert\n    /* \"#utility.yul\":5380:5497   */\ntag_33:\n    /* \"#utility.yul\":5489:5490   */\n  0x00\n    /* \"#utility.yul\":5486:5487   */\n  dup1\n    /* \"#utility.yul\":5479:5491   */\n  revert\n    /* \"#utility.yul\":5503:5620   */\ntag_56:\n    /* \"#utility.yul\":5612:5613   */\n  0x00\n    /* \"#utility.yul\":5609:5610   */\n  dup1\n    /* \"#utility.yul\":5602:5614   */\n  revert\n    /* \"#utility.yul\":5626:5743   */\ntag_53:\n    /* \"#utility.yul\":5735:5736   */\n  0x00\n    /* \"#utility.yul\":5732:5733   */\n  dup1\n    /* \"#utility.yul\":5725:5737   */\n  revert\n    /* \"#utility.yul\":5749:5851   */\ntag_78:\n    /* \"#utility.yul\":5790:5796   */\n  0x00\n    /* \"#utility.yul\":5841:5843   */\n  0x1f\n    /* \"#utility.yul\":5837:5844   */\n  not\n    /* \"#utility.yul\":5832:5834   */\n  0x1f\n    /* \"#utility.yul\":5825:5830   */\n  dup4\n    /* \"#utility.yul\":5821:5835   */\n  add\n    /* \"#utility.yul\":5817:5845   */\n  and\n    /* \"#utility.yul\":5807:5845   */\n  swap1\n  pop\n    /* \"#utility.yul\":5749:5851   */\n  swap2\n  swap1\n  pop\n  jump\t// out\n    /* \"#utility.yul\":5857:5979   */\ntag_39:\n    /* \"#utility.yul\":5930:5954   */\n  tag_112\n    /* \"#utility.yul\":5948:5953   */\n  dup2\n    /* \"#utility.yul\":5930:5954   */\n  tag_86\n  jump\t// in\ntag_112:\n    /* \"#utility.yul\":5923:5928   */\n  dup2\n    /* \"#utility.yul\":5920:5955   */\n  eq\n    /* \"#utility.yul\":5910:5973   */\n  tag_113\n  jumpi\n    /* \"#utility.yul\":5969:5970   */\n  0x00\n    /* \"#utility.yul\":5966:5967   */\n  dup1\n    /* \"#utility.yul\":5959:5971   */\n  revert\n    /* \"#utility.yul\":5910:5973   */\ntag_113:\n    /* \"#utility.yul\":5857:5979   */\n  pop\n  jump\t// out\n    /* \"#utility.yul\":5985:6107   */\ntag_49:\n    /* \"#utility.yul\":6058:6082   */\n  tag_115\n    /* \"#utility.yul\":6076:6081   */\n  dup2\n    /* \"#utility.yul\":6058:6082   */\n  tag_81\n  jump\t// in\ntag_115:\n    /* \"#utility.yul\":6051:6056   */\n  dup2\n    /* \"#utility.yul\":6048:6083   */\n  eq\n    /* \"#utility.yul\":6038:6101   */\n  tag_116\n  jumpi\n    /* \"#utility.yul\":6097:6098   */\n  0x00\n    /* \"#utility.yul\":6094:6095   */\n  dup1\n    /* \"#utility.yul\":6087:6099   */\n  revert\n    /* \"#utility.yul\":6038:6101   */\ntag_116:\n    /* \"#utility.yul\":5985:6107   */\n  pop\n  jump\t// out\n    /* \"contracts/BusinessConsensus.sol\":33:6338  contract BusinessConsensus{\r... */\ntag_12:\n  dataSize(sub_0)\n  dup1\n  dataOffset(sub_0)\n  0x00\n  codecopy\n  0x00\n  return\nstop\n\nsub_0: assembly {\n        /* \"contracts/BusinessConsensus.sol\":33:6338  contract BusinessConsensus{\r... */\n      mstore(0x40, 0x80)\n      callvalue\n      dup1\n      iszero\n      tag_1\n      jumpi\n      0x00\n      dup1\n      revert\n    tag_1:\n      pop\n      jumpi(tag_2, lt(calldatasize, 0x04))\n      shr(0xe0, calldataload(0x00))\n      dup1\n      0x760297e9\n      gt\n      tag_20\n      jumpi\n      dup1\n      0x9d6a3125\n      gt\n      tag_21\n      jumpi\n      dup1\n      0x9d6a3125\n      eq\n      tag_15\n      jumpi\n      dup1\n      0xa5ea11da\n      eq\n      tag_16\n      jumpi\n      dup1\n      0xd77aa749\n      eq\n      tag_17\n      jumpi\n      dup1\n      0xda58c7d9\n      eq\n      tag_18\n      jumpi\n      dup1\n      0xf6b4dfb4\n      eq\n      tag_19\n      jumpi\n      jump(tag_2)\n    tag_21:\n      dup1\n      0x760297e9\n      eq\n      tag_11\n      jumpi\n      dup1\n      0x82316745\n      eq\n      tag_12\n      jumpi\n      dup1\n      0x95b02dfa\n      eq\n      tag_13\n      jumpi\n      dup1\n      0x9aa4bbdd\n      eq\n      tag_14\n      jumpi\n      jump(tag_2)\n    tag_20:\n      dup1\n      0x5361a0ea\n      gt\n      tag_22\n      jumpi\n      dup1\n      0x5361a0ea\n      eq\n      tag_7\n      jumpi\n      dup1\n      0x5c39fcc1\n      eq\n      tag_8\n      jumpi\n      dup1\n      0x7403c5e5\n      eq\n      tag_9\n      jumpi\n      dup1\n      0x753ec103\n      eq\n      tag_10\n      jumpi\n      jump(tag_2)\n    tag_22:\n      dup1\n      0x0cb6aaf1\n      eq\n      tag_3\n      jumpi\n      dup1\n      0x15fe6f1b\n      eq\n      tag_4\n      jumpi\n      dup1\n      0x19eb4a90\n      eq\n      tag_5\n      jumpi\n      dup1\n      0x323082d7\n      eq\n      tag_6\n      jumpi\n    tag_2:\n      0x00\n      dup1\n      revert\n        /* \"contracts/BusinessConsensus.sol\":841:862  address[] public keys */\n    tag_3:\n      tag_23\n      0x04\n      dup1\n      calldatasize\n      sub\n      dup2\n      add\n      swap1\n      tag_24\n      swap2\n      swap1\n      tag_25\n      jump\t// in\n    tag_24:\n      tag_26\n      jump\t// in\n    tag_23:\n      mload(0x40)\n      tag_27\n      swap2\n      swap1\n      tag_28\n      jump\t// in\n    tag_27:\n      mload(0x40)\n      dup1\n      swap2\n      sub\n      swap1\n      return\n        /* \"contracts/BusinessConsensus.sol\":3543:4187  function RegisterVoter(address voter) external {\r... */\n    tag_4:\n      tag_29\n      0x04\n      dup1\n      calldatasize\n      sub\n      dup2\n      add\n      swap1\n      tag_30\n      swap2\n      swap1\n      tag_31\n      jump\t// in\n    tag_30:\n      tag_32\n      jump\t// in\n    tag_29:\n      stop\n        /* \"contracts/BusinessConsensus.sol\":2034:2134  function getValues() public view returns (string memory){\r... */\n    tag_5:\n      tag_33\n      tag_34\n      jump\t// in\n    tag_33:\n      mload(0x40)\n      tag_35\n      swap2\n      swap1\n      tag_36\n      jump\t// in\n    tag_35:\n      mload(0x40)\n      dup1\n      swap2\n      sub\n      swap1\n      return\n        /* \"contracts/BusinessConsensus.sol\":4195:5292  function Vote(string memory response) external {\r... */\n    tag_6:\n      tag_37\n      0x04\n      dup1\n      calldatasize\n      sub\n      dup2\n      add\n      swap1\n      tag_38\n      swap2\n      swap1\n      tag_39\n      jump\t// in\n    tag_38:\n      tag_40\n      jump\t// in\n    tag_37:\n      stop\n        /* \"contracts/BusinessConsensus.sol\":2429:2643  function getParameters2(address test_address) external view returns (bool, bool, address){\r... */\n    tag_7:\n      tag_41\n      0x04\n      dup1\n      calldatasize\n      sub\n      dup2\n      add\n      swap1\n      tag_42\n      swap2\n      swap1\n      tag_31\n      jump\t// in\n    tag_42:\n      tag_43\n      jump\t// in\n    tag_41:\n      mload(0x40)\n      tag_44\n      swap4\n      swap3\n      swap2\n      swap1\n      tag_45\n      jump\t// in\n    tag_44:\n      mload(0x40)\n      dup1\n      swap2\n      sub\n      swap1\n      return\n        /* \"contracts/BusinessConsensus.sol\":808:832  address public initiator */\n    tag_8:\n      tag_46\n      tag_47\n      jump\t// in\n    tag_46:\n      mload(0x40)\n      tag_48\n      swap2\n      swap1\n      tag_28\n      jump\t// in\n    tag_48:\n      mload(0x40)\n      dup1\n      swap2\n      sub\n      swap1\n      return\n        /* \"contracts/BusinessConsensus.sol\":958:985  uint256 public numApprovals */\n    tag_9:\n      tag_49\n      tag_50\n      jump\t// in\n    tag_49:\n      mload(0x40)\n      tag_51\n      swap2\n      swap1\n      tag_52\n      jump\t// in\n    tag_51:\n      mload(0x40)\n      dup1\n      swap2\n      sub\n      swap1\n      return\n        /* \"contracts/BusinessConsensus.sol\":1218:1242  Proposal public proposal */\n    tag_10:\n      tag_53\n      tag_54\n      jump\t// in\n    tag_53:\n      mload(0x40)\n      tag_55\n      swap7\n      swap6\n      swap5\n      swap4\n      swap3\n      swap2\n      swap1\n      tag_56\n      jump\t// in\n    tag_55:\n      mload(0x40)\n      dup1\n      swap2\n      sub\n      swap1\n      return\n        /* \"contracts/BusinessConsensus.sol\":2140:2227  function getIsCompiled() public view returns (bool){\r... */\n    tag_11:\n      tag_57\n      tag_58\n      jump\t// in\n    tag_57:\n      mload(0x40)\n      tag_59\n      swap2\n      swap1\n      tag_60\n      jump\t// in\n    tag_59:\n      mload(0x40)\n      dup1\n      swap2\n      sub\n      swap1\n      return\n        /* \"contracts/BusinessConsensus.sol\":6091:6333  function retrieve_bundle() external view returns (bytes32, Proposal memory, Voter[] memory){\r... */\n    tag_12:\n      tag_61\n      tag_62\n      jump\t// in\n    tag_61:\n      mload(0x40)\n      tag_63\n      swap4\n      swap3\n      swap2\n      swap1\n      tag_64\n      jump\t// in\n    tag_63:\n      mload(0x40)\n      dup1\n      swap2\n      sub\n      swap1\n      return\n        /* \"contracts/BusinessConsensus.sol\":5356:6083  function Consensus() external {\r... */\n    tag_13:\n      tag_65\n      tag_66\n      jump\t// in\n    tag_65:\n      stop\n        /* \"contracts/BusinessConsensus.sol\":1098:1141  mapping(address => Voter) public voters_map */\n    tag_14:\n      tag_67\n      0x04\n      dup1\n      calldatasize\n      sub\n      dup2\n      add\n      swap1\n      tag_68\n      swap2\n      swap1\n      tag_31\n      jump\t// in\n    tag_68:\n      tag_69\n      jump\t// in\n    tag_67:\n      mload(0x40)\n      tag_70\n      swap4\n      swap3\n      swap2\n      swap1\n      tag_45\n      jump\t// in\n    tag_70:\n      mload(0x40)\n      dup1\n      swap2\n      sub\n      swap1\n      return\n        /* \"contracts/BusinessConsensus.sol\":2649:3437  function checkConsistency(string memory _subject, uint256 _businessRequirement, uint256 _expiryLength, bytes32 _contents) public view returns(bool, bool, bool){\r... */\n    tag_15:\n      tag_71\n      0x04\n      dup1\n      calldatasize\n      sub\n      dup2\n      add\n      swap1\n      tag_72\n      swap2\n      swap1\n      tag_73\n      jump\t// in\n    tag_72:\n      tag_74\n      jump\t// in\n    tag_71:\n      mload(0x40)\n      tag_75\n      swap4\n      swap3\n      swap2\n      swap1\n      tag_76\n      jump\t// in\n    tag_75:\n      mload(0x40)\n      dup1\n      swap2\n      sub\n      swap1\n      return\n        /* \"contracts/BusinessConsensus.sol\":2233:2423  function getParameters() external view returns (string memory, uint , address ,uint ,uint){\r... */\n    tag_16:\n      tag_77\n      tag_78\n      jump\t// in\n    tag_77:\n      mload(0x40)\n      tag_79\n      swap6\n      swap5\n      swap4\n      swap3\n      swap2\n      swap1\n      tag_80\n      jump\t// in\n    tag_79:\n      mload(0x40)\n      dup1\n      swap2\n      sub\n      swap1\n      return\n        /* \"contracts/BusinessConsensus.sol\":917:951  uint256 public BusinessRequirement */\n    tag_17:\n      tag_81\n      tag_82\n      jump\t// in\n    tag_81:\n      mload(0x40)\n      tag_83\n      swap2\n      swap1\n      tag_52\n      jump\t// in\n    tag_83:\n      mload(0x40)\n      dup1\n      swap2\n      sub\n      swap1\n      return\n        /* \"contracts/BusinessConsensus.sol\":1068:1089  Voter[] public voters */\n    tag_18:\n      tag_84\n      0x04\n      dup1\n      calldatasize\n      sub\n      dup2\n      add\n      swap1\n      tag_85\n      swap2\n      swap1\n      tag_25\n      jump\t// in\n    tag_85:\n      tag_86\n      jump\t// in\n    tag_84:\n      mload(0x40)\n      tag_87\n      swap4\n      swap3\n      swap2\n      swap1\n      tag_45\n      jump\t// in\n    tag_87:\n      mload(0x40)\n      dup1\n      swap2\n      sub\n      swap1\n      return\n        /* \"contracts/BusinessConsensus.sol\":708:738  address public contractAddress */\n    tag_19:\n      tag_88\n      tag_89\n      jump\t// in\n    tag_88:\n      mload(0x40)\n      tag_90\n      swap2\n      swap1\n      tag_28\n      jump\t// in\n    tag_90:\n      mload(0x40)\n      dup1\n      swap2\n      sub\n      swap1\n      return\n        /* \"contracts/BusinessConsensus.sol\":841:862  address[] public keys */\n    tag_26:\n      0x02\n      dup2\n      dup2\n      sload\n      dup2\n      lt\n      tag_91\n      jumpi\n      0x00\n      dup1\n      revert\n    tag_91:\n      swap1\n      0x00\n      mstore\n      keccak256(0x00, 0x20)\n      add\n      0x00\n      swap2\n      pop\n      sload\n      swap1\n      0x0100\n      exp\n      swap1\n      div\n      0xffffffffffffffffffffffffffffffffffffffff\n      and\n      dup2\n      jump\t// out\n        /* \"contracts/BusinessConsensus.sol\":3543:4187  function RegisterVoter(address voter) external {\r... */\n    tag_32:\n        /* \"contracts/BusinessConsensus.sol\":3711:3720  initiator */\n      0x01\n      0x00\n      swap1\n      sload\n      swap1\n      0x0100\n      exp\n      swap1\n      div\n      0xffffffffffffffffffffffffffffffffffffffff\n      and\n        /* \"contracts/BusinessConsensus.sol\":3697:3720  msg.sender == initiator */\n      0xffffffffffffffffffffffffffffffffffffffff\n      and\n        /* \"contracts/BusinessConsensus.sol\":3697:3707  msg.sender */\n      caller\n        /* \"contracts/BusinessConsensus.sol\":3697:3720  msg.sender == initiator */\n      0xffffffffffffffffffffffffffffffffffffffff\n      and\n      eq\n        /* \"contracts/BusinessConsensus.sol\":3675:3788  require(\r... */\n      tag_94\n      jumpi\n      mload(0x40)\n      0x08c379a000000000000000000000000000000000000000000000000000000000\n      dup2\n      mstore\n      0x04\n      add\n      tag_95\n      swap1\n      tag_96\n      jump\t// in\n    tag_95:\n      mload(0x40)\n      dup1\n      swap2\n      sub\n      swap1\n      revert\n    tag_94:\n        /* \"contracts/BusinessConsensus.sol\":3816:3825  initiator */\n      0x01\n      0x00\n      swap1\n      sload\n      swap1\n      0x0100\n      exp\n      swap1\n      div\n      0xffffffffffffffffffffffffffffffffffffffff\n      and\n        /* \"contracts/BusinessConsensus.sol\":3807:3825  voter != initiator */\n      0xffffffffffffffffffffffffffffffffffffffff\n      and\n        /* \"contracts/BusinessConsensus.sol\":3807:3812  voter */\n      dup2\n        /* \"contracts/BusinessConsensus.sol\":3807:3825  voter != initiator */\n      0xffffffffffffffffffffffffffffffffffffffff\n      and\n      eq\n      iszero\n        /* \"contracts/BusinessConsensus.sol\":3799:3851  require(voter != initiator, \"Initiator can't vote!\") */\n      tag_97\n      jumpi\n      mload(0x40)\n      0x08c379a000000000000000000000000000000000000000000000000000000000\n      dup2\n      mstore\n      0x04\n      add\n      tag_98\n      swap1\n      tag_99\n      jump\t// in\n    tag_98:\n      mload(0x40)\n      dup1\n      swap2\n      sub\n      swap1\n      revert\n    tag_97:\n        /* \"contracts/BusinessConsensus.sol\":3911:3912  0 */\n      0x00\n        /* \"contracts/BusinessConsensus.sol\":3872:3913  voters_map[voter].recipient == address(0) */\n      0xffffffffffffffffffffffffffffffffffffffff\n      and\n        /* \"contracts/BusinessConsensus.sol\":3872:3882  voters_map */\n      0x09\n        /* \"contracts/BusinessConsensus.sol\":3872:3889  voters_map[voter] */\n      0x00\n        /* \"contracts/BusinessConsensus.sol\":3883:3888  voter */\n      dup4\n        /* \"contracts/BusinessConsensus.sol\":3872:3889  voters_map[voter] */\n      0xffffffffffffffffffffffffffffffffffffffff\n      and\n      0xffffffffffffffffffffffffffffffffffffffff\n      and\n      dup2\n      mstore\n      0x20\n      add\n      swap1\n      dup2\n      mstore\n      0x20\n      add\n      0x00\n      keccak256\n        /* \"contracts/BusinessConsensus.sol\":3872:3899  voters_map[voter].recipient */\n      0x00\n      add\n      0x02\n      swap1\n      sload\n      swap1\n      0x0100\n      exp\n      swap1\n      div\n      0xffffffffffffffffffffffffffffffffffffffff\n      and\n        /* \"contracts/BusinessConsensus.sol\":3872:3913  voters_map[voter].recipient == address(0) */\n      0xffffffffffffffffffffffffffffffffffffffff\n      and\n      eq\n        /* \"contracts/BusinessConsensus.sol\":3864:3949  require(voters_map[voter].recipient == address(0), \"Recipient is already registered\") */\n      tag_100\n      jumpi\n      mload(0x40)\n      0x08c379a000000000000000000000000000000000000000000000000000000000\n      dup2\n      mstore\n      0x04\n      add\n      tag_101\n      swap1\n      tag_102\n      jump\t// in\n    tag_101:\n      mload(0x40)\n      dup1\n      swap2\n      sub\n      swap1\n      revert\n    tag_100:\n        /* \"contracts/BusinessConsensus.sol\":3988:3998  expiryDate */\n      sload(0x03)\n        /* \"contracts/BusinessConsensus.sol\":3970:3985  block.timestamp */\n      timestamp\n        /* \"contracts/BusinessConsensus.sol\":3970:3998  block.timestamp < expiryDate */\n      lt\n        /* \"contracts/BusinessConsensus.sol\":3962:4039  require(block.timestamp < expiryDate, \"Proposal has reached its expiry date\") */\n      tag_103\n      jumpi\n      mload(0x40)\n      0x08c379a000000000000000000000000000000000000000000000000000000000\n      dup2\n      mstore\n      0x04\n      add\n      tag_104\n      swap1\n      tag_105\n      jump\t// in\n    tag_104:\n      mload(0x40)\n      dup1\n      swap2\n      sub\n      swap1\n      revert\n    tag_103:\n        /* \"contracts/BusinessConsensus.sol\":4052:4066  Voter memory x */\n      0x00\n        /* \"contracts/BusinessConsensus.sol\":4069:4120  Voter({voted: false,recipient: voter, vote: false}) */\n      mload(0x40)\n      dup1\n      0x60\n      add\n      0x40\n      mstore\n      dup1\n        /* \"contracts/BusinessConsensus.sol\":4083:4088  false */\n      0x00\n        /* \"contracts/BusinessConsensus.sol\":4069:4120  Voter({voted: false,recipient: voter, vote: false}) */\n      iszero\n      iszero\n      dup2\n      mstore\n      0x20\n      add\n        /* \"contracts/BusinessConsensus.sol\":4113:4118  false */\n      0x00\n        /* \"contracts/BusinessConsensus.sol\":4069:4120  Voter({voted: false,recipient: voter, vote: false}) */\n      iszero\n      iszero\n      dup2\n      mstore\n      0x20\n      add\n        /* \"contracts/BusinessConsensus.sol\":4100:4105  voter */\n      dup4\n        /* \"contracts/BusinessConsensus.sol\":4069:4120  Voter({voted: false,recipient: voter, vote: false}) */\n      0xffffffffffffffffffffffffffffffffffffffff\n      and\n      dup2\n      mstore\n      pop\n        /* \"contracts/BusinessConsensus.sol\":4052:4120  Voter memory x = Voter({voted: false,recipient: voter, vote: false}) */\n      swap1\n      pop\n        /* \"contracts/BusinessConsensus.sol\":4151:4152  x */\n      dup1\n        /* \"contracts/BusinessConsensus.sol\":4131:4141  voters_map */\n      0x09\n        /* \"contracts/BusinessConsensus.sol\":4131:4148  voters_map[voter] */\n      0x00\n        /* \"contracts/BusinessConsensus.sol\":4142:4147  voter */\n      dup5\n        /* \"contracts/BusinessConsensus.sol\":4131:4148  voters_map[voter] */\n      0xffffffffffffffffffffffffffffffffffffffff\n      and\n      0xffffffffffffffffffffffffffffffffffffffff\n      and\n      dup2\n      mstore\n      0x20\n      add\n      swap1\n      dup2\n      mstore\n      0x20\n      add\n      0x00\n      keccak256\n        /* \"contracts/BusinessConsensus.sol\":4131:4152  voters_map[voter] = x */\n      0x00\n      dup3\n      add\n      mload\n      dup2\n      0x00\n      add\n      exp(0x0100, 0x00)\n      dup2\n      sload\n      dup2\n      0xff\n      mul\n      not\n      and\n      swap1\n      dup4\n      iszero\n      iszero\n      mul\n      or\n      swap1\n      sstore\n      pop\n      0x20\n      dup3\n      add\n      mload\n      dup2\n      0x00\n      add\n      exp(0x0100, 0x01)\n      dup2\n      sload\n      dup2\n      0xff\n      mul\n      not\n      and\n      swap1\n      dup4\n      iszero\n      iszero\n      mul\n      or\n      swap1\n      sstore\n      pop\n      0x40\n      dup3\n      add\n      mload\n      dup2\n      0x00\n      add\n      exp(0x0100, 0x02)\n      dup2\n      sload\n      dup2\n      0xffffffffffffffffffffffffffffffffffffffff\n      mul\n      not\n      and\n      swap1\n      dup4\n      0xffffffffffffffffffffffffffffffffffffffff\n      and\n      mul\n      or\n      swap1\n      sstore\n      pop\n      swap1\n      pop\n      pop\n        /* \"contracts/BusinessConsensus.sol\":4163:4167  keys */\n      0x02\n        /* \"contracts/BusinessConsensus.sol\":4173:4178  voter */\n      dup3\n        /* \"contracts/BusinessConsensus.sol\":4163:4179  keys.push(voter) */\n      swap1\n      dup1\n      0x01\n      dup2\n      sload\n      add\n      dup1\n      dup3\n      sstore\n      dup1\n      swap2\n      pop\n      pop\n      0x01\n      swap1\n      sub\n      swap1\n      0x00\n      mstore\n      keccak256(0x00, 0x20)\n      add\n      0x00\n      swap1\n      swap2\n      swap1\n      swap2\n      swap1\n      swap2\n      0x0100\n      exp\n      dup2\n      sload\n      dup2\n      0xffffffffffffffffffffffffffffffffffffffff\n      mul\n      not\n      and\n      swap1\n      dup4\n      0xffffffffffffffffffffffffffffffffffffffff\n      and\n      mul\n      or\n      swap1\n      sstore\n      pop\n        /* \"contracts/BusinessConsensus.sol\":3590:4187  {\r... */\n      pop\n        /* \"contracts/BusinessConsensus.sol\":3543:4187  function RegisterVoter(address voter) external {\r... */\n      pop\n      jump\t// out\n        /* \"contracts/BusinessConsensus.sol\":2034:2134  function getValues() public view returns (string memory){\r... */\n    tag_34:\n        /* \"contracts/BusinessConsensus.sol\":2076:2089  string memory */\n      0x60\n        /* \"contracts/BusinessConsensus.sol\":2108:2116  proposal */\n      0x0a\n        /* \"contracts/BusinessConsensus.sol\":2108:2126  proposal.messageID */\n      0x01\n      add\n        /* \"contracts/BusinessConsensus.sol\":2101:2126  return proposal.messageID */\n      dup1\n      sload\n      tag_108\n      swap1\n      tag_109\n      jump\t// in\n    tag_108:\n      dup1\n      0x1f\n      add\n      0x20\n      dup1\n      swap2\n      div\n      mul\n      0x20\n      add\n      mload(0x40)\n      swap1\n      dup2\n      add\n      0x40\n      mstore\n      dup1\n      swap3\n      swap2\n      swap1\n      dup2\n      dup2\n      mstore\n      0x20\n      add\n      dup3\n      dup1\n      sload\n      tag_110\n      swap1\n      tag_109\n      jump\t// in\n    tag_110:\n      dup1\n      iszero\n      tag_111\n      jumpi\n      dup1\n      0x1f\n      lt\n      tag_112\n      jumpi\n      0x0100\n      dup1\n      dup4\n      sload\n      div\n      mul\n      dup4\n      mstore\n      swap2\n      0x20\n      add\n      swap2\n      jump(tag_111)\n    tag_112:\n      dup3\n      add\n      swap2\n      swap1\n      0x00\n      mstore\n      keccak256(0x00, 0x20)\n      swap1\n    tag_113:\n      dup2\n      sload\n      dup2\n      mstore\n      swap1\n      0x01\n      add\n      swap1\n      0x20\n      add\n      dup1\n      dup4\n      gt\n      tag_113\n      jumpi\n      dup3\n      swap1\n      sub\n      0x1f\n      and\n      dup3\n      add\n      swap2\n    tag_111:\n      pop\n      pop\n      pop\n      pop\n      pop\n      swap1\n      pop\n        /* \"contracts/BusinessConsensus.sol\":2034:2134  function getValues() public view returns (string memory){\r... */\n      swap1\n      jump\t// out\n        /* \"contracts/BusinessConsensus.sol\":4195:5292  function Vote(string memory response) external {\r... */\n    tag_40:\n        /* \"contracts/BusinessConsensus.sol\":4281:4291  expiryDate */\n      sload(0x03)\n        /* \"contracts/BusinessConsensus.sol\":4263:4278  block.timestamp */\n      timestamp\n        /* \"contracts/BusinessConsensus.sol\":4263:4291  block.timestamp < expiryDate */\n      lt\n        /* \"contracts/BusinessConsensus.sol\":4255:4314  require(block.timestamp < expiryDate, \"Voting has expired\") */\n      tag_115\n      jumpi\n      mload(0x40)\n      0x08c379a000000000000000000000000000000000000000000000000000000000\n      dup2\n      mstore\n      0x04\n      add\n      tag_116\n      swap1\n      tag_117\n      jump\t// in\n    tag_116:\n      mload(0x40)\n      dup1\n      swap2\n      sub\n      swap1\n      revert\n    tag_115:\n        /* \"contracts/BusinessConsensus.sol\":4377:4380  0x0 */\n      0x00\n        /* \"contracts/BusinessConsensus.sol\":4333:4381  voters_map[msg.sender].recipient != address(0x0) */\n      0xffffffffffffffffffffffffffffffffffffffff\n      and\n        /* \"contracts/BusinessConsensus.sol\":4333:4343  voters_map */\n      0x09\n        /* \"contracts/BusinessConsensus.sol\":4333:4355  voters_map[msg.sender] */\n      0x00\n        /* \"contracts/BusinessConsensus.sol\":4344:4354  msg.sender */\n      caller\n        /* \"contracts/BusinessConsensus.sol\":4333:4355  voters_map[msg.sender] */\n      0xffffffffffffffffffffffffffffffffffffffff\n      and\n      0xffffffffffffffffffffffffffffffffffffffff\n      and\n      dup2\n      mstore\n      0x20\n      add\n      swap1\n      dup2\n      mstore\n      0x20\n      add\n      0x00\n      keccak256\n        /* \"contracts/BusinessConsensus.sol\":4333:4365  voters_map[msg.sender].recipient */\n      0x00\n      add\n      0x02\n      swap1\n      sload\n      swap1\n      0x0100\n      exp\n      swap1\n      div\n      0xffffffffffffffffffffffffffffffffffffffff\n      and\n        /* \"contracts/BusinessConsensus.sol\":4333:4381  voters_map[msg.sender].recipient != address(0x0) */\n      0xffffffffffffffffffffffffffffffffffffffff\n      and\n      eq\n      iszero\n        /* \"contracts/BusinessConsensus.sol\":4325:4416  require(voters_map[msg.sender].recipient != address(0x0), \"You are not registered to vote\") */\n      tag_118\n      jumpi\n      mload(0x40)\n      0x08c379a000000000000000000000000000000000000000000000000000000000\n      dup2\n      mstore\n      0x04\n      add\n      tag_119\n      swap1\n      tag_120\n      jump\t// in\n    tag_119:\n      mload(0x40)\n      dup1\n      swap2\n      sub\n      swap1\n      revert\n    tag_118:\n        /* \"contracts/BusinessConsensus.sol\":4436:4446  voters_map */\n      0x09\n        /* \"contracts/BusinessConsensus.sol\":4436:4458  voters_map[msg.sender] */\n      0x00\n        /* \"contracts/BusinessConsensus.sol\":4447:4457  msg.sender */\n      caller\n        /* \"contracts/BusinessConsensus.sol\":4436:4458  voters_map[msg.sender] */\n      0xffffffffffffffffffffffffffffffffffffffff\n      and\n      0xffffffffffffffffffffffffffffffffffffffff\n      and\n      dup2\n      mstore\n      0x20\n      add\n      swap1\n      dup2\n      mstore\n      0x20\n      add\n      0x00\n      keccak256\n        /* \"contracts/BusinessConsensus.sol\":4436:4464  voters_map[msg.sender].voted */\n      0x00\n      add\n      0x00\n      swap1\n      sload\n      swap1\n      0x0100\n      exp\n      swap1\n      div\n      0xff\n      and\n        /* \"contracts/BusinessConsensus.sol\":4435:4464  !voters_map[msg.sender].voted */\n      iszero\n        /* \"contracts/BusinessConsensus.sol\":4427:4497  require(!voters_map[msg.sender].voted, \"You already sent a response.\") */\n      tag_121\n      jumpi\n      mload(0x40)\n      0x08c379a000000000000000000000000000000000000000000000000000000000\n      dup2\n      mstore\n      0x04\n      add\n      tag_122\n      swap1\n      tag_123\n      jump\t// in\n    tag_122:\n      mload(0x40)\n      dup1\n      swap2\n      sub\n      swap1\n      revert\n    tag_121:\n        /* \"contracts/BusinessConsensus.sol\":4553:4571  bytes(\"i approve\") */\n      mload(0x40)\n      dup1\n      0x40\n      add\n      0x40\n      mstore\n      dup1\n      0x09\n      dup2\n      mstore\n      0x20\n      add\n      0x6920617070726f76650000000000000000000000000000000000000000000000\n      dup2\n      mstore\n      pop\n        /* \"contracts/BusinessConsensus.sol\":4543:4572  keccak256(bytes(\"i approve\")) */\n      dup1\n      mload\n      swap1\n      0x20\n      add\n      keccak256\n        /* \"contracts/BusinessConsensus.sol\":4529:4537  response */\n      dup2\n        /* \"contracts/BusinessConsensus.sol\":4513:4539  keccak256(bytes(response)) */\n      dup1\n      mload\n      swap1\n      0x20\n      add\n      keccak256\n        /* \"contracts/BusinessConsensus.sol\":4513:4572  keccak256(bytes(response)) == keccak256(bytes(\"i approve\")) */\n      eq\n        /* \"contracts/BusinessConsensus.sol\":4510:5275  if(keccak256(bytes(response)) == keccak256(bytes(\"i approve\"))){\r... */\n      iszero\n      tag_124\n      jumpi\n        /* \"contracts/BusinessConsensus.sol\":4619:4623  true */\n      0x01\n        /* \"contracts/BusinessConsensus.sol\":4588:4598  voters_map */\n      0x09\n        /* \"contracts/BusinessConsensus.sol\":4588:4610  voters_map[msg.sender] */\n      0x00\n        /* \"contracts/BusinessConsensus.sol\":4599:4609  msg.sender */\n      caller\n        /* \"contracts/BusinessConsensus.sol\":4588:4610  voters_map[msg.sender] */\n      0xffffffffffffffffffffffffffffffffffffffff\n      and\n      0xffffffffffffffffffffffffffffffffffffffff\n      and\n      dup2\n      mstore\n      0x20\n      add\n      swap1\n      dup2\n      mstore\n      0x20\n      add\n      0x00\n      keccak256\n        /* \"contracts/BusinessConsensus.sol\":4588:4616  voters_map[msg.sender].voted */\n      0x00\n      add\n      0x00\n        /* \"contracts/BusinessConsensus.sol\":4588:4623  voters_map[msg.sender].voted = true */\n      0x0100\n      exp\n      dup2\n      sload\n      dup2\n      0xff\n      mul\n      not\n      and\n      swap1\n      dup4\n      iszero\n      iszero\n      mul\n      or\n      swap1\n      sstore\n      pop\n        /* \"contracts/BusinessConsensus.sol\":4668:4672  true */\n      0x01\n        /* \"contracts/BusinessConsensus.sol\":4638:4648  voters_map */\n      0x09\n        /* \"contracts/BusinessConsensus.sol\":4638:4660  voters_map[msg.sender] */\n      0x00\n        /* \"contracts/BusinessConsensus.sol\":4649:4659  msg.sender */\n      caller\n        /* \"contracts/BusinessConsensus.sol\":4638:4660  voters_map[msg.sender] */\n      0xffffffffffffffffffffffffffffffffffffffff\n      and\n      0xffffffffffffffffffffffffffffffffffffffff\n      and\n      dup2\n      mstore\n      0x20\n      add\n      swap1\n      dup2\n      mstore\n      0x20\n      add\n      0x00\n      keccak256\n        /* \"contracts/BusinessConsensus.sol\":4638:4665  voters_map[msg.sender].vote */\n      0x00\n      add\n      0x01\n        /* \"contracts/BusinessConsensus.sol\":4638:4672  voters_map[msg.sender].vote = true */\n      0x0100\n      exp\n      dup2\n      sload\n      dup2\n      0xff\n      mul\n      not\n      and\n      swap1\n      dup4\n      iszero\n      iszero\n      mul\n      or\n      swap1\n      sstore\n      pop\n        /* \"contracts/BusinessConsensus.sol\":4703:4704  1 */\n      0x01\n        /* \"contracts/BusinessConsensus.sol\":4687:4699  numApprovals */\n      0x05\n      0x00\n        /* \"contracts/BusinessConsensus.sol\":4687:4704  numApprovals += 1 */\n      dup3\n      dup3\n      sload\n      tag_125\n      swap2\n      swap1\n      tag_126\n      jump\t// in\n    tag_125:\n      swap3\n      pop\n      pop\n      dup2\n      swap1\n      sstore\n      pop\n        /* \"contracts/BusinessConsensus.sol\":4741:4742  1 */\n      0x01\n        /* \"contracts/BusinessConsensus.sol\":4719:4727  proposal */\n      0x0a\n        /* \"contracts/BusinessConsensus.sol\":4719:4737  proposal.voteCount */\n      0x00\n      add\n      0x00\n        /* \"contracts/BusinessConsensus.sol\":4719:4742  proposal.voteCount += 1 */\n      dup3\n      dup3\n      sload\n      tag_127\n      swap2\n      swap1\n      tag_126\n      jump\t// in\n    tag_127:\n      swap3\n      pop\n      pop\n      dup2\n      swap1\n      sstore\n      pop\n        /* \"contracts/BusinessConsensus.sol\":4757:4763  voters */\n      0x08\n        /* \"contracts/BusinessConsensus.sol\":4769:4779  voters_map */\n      0x09\n        /* \"contracts/BusinessConsensus.sol\":4769:4791  voters_map[msg.sender] */\n      0x00\n        /* \"contracts/BusinessConsensus.sol\":4780:4790  msg.sender */\n      caller\n        /* \"contracts/BusinessConsensus.sol\":4769:4791  voters_map[msg.sender] */\n      0xffffffffffffffffffffffffffffffffffffffff\n      and\n      0xffffffffffffffffffffffffffffffffffffffff\n      and\n      dup2\n      mstore\n      0x20\n      add\n      swap1\n      dup2\n      mstore\n      0x20\n      add\n      0x00\n      keccak256\n        /* \"contracts/BusinessConsensus.sol\":4757:4792  voters.push(voters_map[msg.sender]) */\n      swap1\n      dup1\n      0x01\n      dup2\n      sload\n      add\n      dup1\n      dup3\n      sstore\n      dup1\n      swap2\n      pop\n      pop\n      0x01\n      swap1\n      sub\n      swap1\n      0x00\n      mstore\n      keccak256(0x00, 0x20)\n      add\n      0x00\n      swap1\n      swap2\n      swap1\n      swap2\n      swap1\n      swap2\n      pop\n      0x00\n      dup3\n      add\n      0x00\n      swap1\n      sload\n      swap1\n      0x0100\n      exp\n      swap1\n      div\n      0xff\n      and\n      dup2\n      0x00\n      add\n      exp(0x0100, 0x00)\n      dup2\n      sload\n      dup2\n      0xff\n      mul\n      not\n      and\n      swap1\n      dup4\n      iszero\n      iszero\n      mul\n      or\n      swap1\n      sstore\n      pop\n      0x00\n      dup3\n      add\n      0x01\n      swap1\n      sload\n      swap1\n      0x0100\n      exp\n      swap1\n      div\n      0xff\n      and\n      dup2\n      0x00\n      add\n      exp(0x0100, 0x01)\n      dup2\n      sload\n      dup2\n      0xff\n      mul\n      not\n      and\n      swap1\n      dup4\n      iszero\n      iszero\n      mul\n      or\n      swap1\n      sstore\n      pop\n      0x00\n      dup3\n      add\n      0x02\n      swap1\n      sload\n      swap1\n      0x0100\n      exp\n      swap1\n      div\n      0xffffffffffffffffffffffffffffffffffffffff\n      and\n      dup2\n      0x00\n      add\n      exp(0x0100, 0x02)\n      dup2\n      sload\n      dup2\n      0xffffffffffffffffffffffffffffffffffffffff\n      mul\n      not\n      and\n      swap1\n      dup4\n      0xffffffffffffffffffffffffffffffffffffffff\n      and\n      mul\n      or\n      swap1\n      sstore\n      pop\n      pop\n      pop\n        /* \"contracts/BusinessConsensus.sol\":4510:5275  if(keccak256(bytes(response)) == keccak256(bytes(\"i approve\"))){\r... */\n      jump(tag_129)\n    tag_124:\n        /* \"contracts/BusinessConsensus.sol\":4864:4885  bytes(\"i disapprove\") */\n      mload(0x40)\n      dup1\n      0x40\n      add\n      0x40\n      mstore\n      dup1\n      0x0c\n      dup2\n      mstore\n      0x20\n      add\n      0x6920646973617070726f76650000000000000000000000000000000000000000\n      dup2\n      mstore\n      pop\n        /* \"contracts/BusinessConsensus.sol\":4854:4886  keccak256(bytes(\"i disapprove\")) */\n      dup1\n      mload\n      swap1\n      0x20\n      add\n      keccak256\n        /* \"contracts/BusinessConsensus.sol\":4840:4848  response */\n      dup2\n        /* \"contracts/BusinessConsensus.sol\":4824:4850  keccak256(bytes(response)) */\n      dup1\n      mload\n      swap1\n      0x20\n      add\n      keccak256\n        /* \"contracts/BusinessConsensus.sol\":4824:4886  keccak256(bytes(response)) == keccak256(bytes(\"i disapprove\")) */\n      eq\n        /* \"contracts/BusinessConsensus.sol\":4821:5275  if(keccak256(bytes(response)) == keccak256(bytes(\"i disapprove\"))){\r... */\n      iszero\n      tag_130\n      jumpi\n        /* \"contracts/BusinessConsensus.sol\":4933:4937  true */\n      0x01\n        /* \"contracts/BusinessConsensus.sol\":4902:4912  voters_map */\n      0x09\n        /* \"contracts/BusinessConsensus.sol\":4902:4924  voters_map[msg.sender] */\n      0x00\n        /* \"contracts/BusinessConsensus.sol\":4913:4923  msg.sender */\n      caller\n        /* \"contracts/BusinessConsensus.sol\":4902:4924  voters_map[msg.sender] */\n      0xffffffffffffffffffffffffffffffffffffffff\n      and\n      0xffffffffffffffffffffffffffffffffffffffff\n      and\n      dup2\n      mstore\n      0x20\n      add\n      swap1\n      dup2\n      mstore\n      0x20\n      add\n      0x00\n      keccak256\n        /* \"contracts/BusinessConsensus.sol\":4902:4930  voters_map[msg.sender].voted */\n      0x00\n      add\n      0x00\n        /* \"contracts/BusinessConsensus.sol\":4902:4937  voters_map[msg.sender].voted = true */\n      0x0100\n      exp\n      dup2\n      sload\n      dup2\n      0xff\n      mul\n      not\n      and\n      swap1\n      dup4\n      iszero\n      iszero\n      mul\n      or\n      swap1\n      sstore\n      pop\n        /* \"contracts/BusinessConsensus.sol\":4974:4975  1 */\n      0x01\n        /* \"contracts/BusinessConsensus.sol\":4952:4960  proposal */\n      0x0a\n        /* \"contracts/BusinessConsensus.sol\":4952:4970  proposal.voteCount */\n      0x00\n      add\n      0x00\n        /* \"contracts/BusinessConsensus.sol\":4952:4975  proposal.voteCount += 1 */\n      dup3\n      dup3\n      sload\n      tag_131\n      swap2\n      swap1\n      tag_126\n      jump\t// in\n    tag_131:\n      swap3\n      pop\n      pop\n      dup2\n      swap1\n      sstore\n      pop\n        /* \"contracts/BusinessConsensus.sol\":4990:4996  voters */\n      0x08\n        /* \"contracts/BusinessConsensus.sol\":5002:5012  voters_map */\n      0x09\n        /* \"contracts/BusinessConsensus.sol\":5002:5024  voters_map[msg.sender] */\n      0x00\n        /* \"contracts/BusinessConsensus.sol\":5013:5023  msg.sender */\n      caller\n        /* \"contracts/BusinessConsensus.sol\":5002:5024  voters_map[msg.sender] */\n      0xffffffffffffffffffffffffffffffffffffffff\n      and\n      0xffffffffffffffffffffffffffffffffffffffff\n      and\n      dup2\n      mstore\n      0x20\n      add\n      swap1\n      dup2\n      mstore\n      0x20\n      add\n      0x00\n      keccak256\n        /* \"contracts/BusinessConsensus.sol\":4990:5025  voters.push(voters_map[msg.sender]) */\n      swap1\n      dup1\n      0x01\n      dup2\n      sload\n      add\n      dup1\n      dup3\n      sstore\n      dup1\n      swap2\n      pop\n      pop\n      0x01\n      swap1\n      sub\n      swap1\n      0x00\n      mstore\n      keccak256(0x00, 0x20)\n      add\n      0x00\n      swap1\n      swap2\n      swap1\n      swap2\n      swap1\n      swap2\n      pop\n      0x00\n      dup3\n      add\n      0x00\n      swap1\n      sload\n      swap1\n      0x0100\n      exp\n      swap1\n      div\n      0xff\n      and\n      dup2\n      0x00\n      add\n      exp(0x0100, 0x00)\n      dup2\n      sload\n      dup2\n      0xff\n      mul\n      not\n      and\n      swap1\n      dup4\n      iszero\n      iszero\n      mul\n      or\n      swap1\n      sstore\n      pop\n      0x00\n      dup3\n      add\n      0x01\n      swap1\n      sload\n      swap1\n      0x0100\n      exp\n      swap1\n      div\n      0xff\n      and\n      dup2\n      0x00\n      add\n      exp(0x0100, 0x01)\n      dup2\n      sload\n      dup2\n      0xff\n      mul\n      not\n      and\n      swap1\n      dup4\n      iszero\n      iszero\n      mul\n      or\n      swap1\n      sstore\n      pop\n      0x00\n      dup3\n      add\n      0x02\n      swap1\n      sload\n      swap1\n      0x0100\n      exp\n      swap1\n      div\n      0xffffffffffffffffffffffffffffffffffffffff\n      and\n      dup2\n      0x00\n      add\n      exp(0x0100, 0x02)\n      dup2\n      sload\n      dup2\n      0xffffffffffffffffffffffffffffffffffffffff\n      mul\n      not\n      and\n      swap1\n      dup4\n      0xffffffffffffffffffffffffffffffffffffffff\n      and\n      mul\n      or\n      swap1\n      sstore\n      pop\n      pop\n      pop\n        /* \"contracts/BusinessConsensus.sol\":4821:5275  if(keccak256(bytes(response)) == keccak256(bytes(\"i disapprove\"))){\r... */\n      jump(tag_133)\n    tag_130:\n        /* \"contracts/BusinessConsensus.sol\":5171:5175  true */\n      0x01\n        /* \"contracts/BusinessConsensus.sol\":5140:5150  voters_map */\n      0x09\n        /* \"contracts/BusinessConsensus.sol\":5140:5162  voters_map[msg.sender] */\n      0x00\n        /* \"contracts/BusinessConsensus.sol\":5151:5161  msg.sender */\n      caller\n        /* \"contracts/BusinessConsensus.sol\":5140:5162  voters_map[msg.sender] */\n      0xffffffffffffffffffffffffffffffffffffffff\n      and\n      0xffffffffffffffffffffffffffffffffffffffff\n      and\n      dup2\n      mstore\n      0x20\n      add\n      swap1\n      dup2\n      mstore\n      0x20\n      add\n      0x00\n      keccak256\n        /* \"contracts/BusinessConsensus.sol\":5140:5168  voters_map[msg.sender].voted */\n      0x00\n      add\n      0x00\n        /* \"contracts/BusinessConsensus.sol\":5140:5175  voters_map[msg.sender].voted = true */\n      0x0100\n      exp\n      dup2\n      sload\n      dup2\n      0xff\n      mul\n      not\n      and\n      swap1\n      dup4\n      iszero\n      iszero\n      mul\n      or\n      swap1\n      sstore\n      pop\n        /* \"contracts/BusinessConsensus.sol\":5212:5213  1 */\n      0x01\n        /* \"contracts/BusinessConsensus.sol\":5190:5198  proposal */\n      0x0a\n        /* \"contracts/BusinessConsensus.sol\":5190:5208  proposal.voteCount */\n      0x00\n      add\n      0x00\n        /* \"contracts/BusinessConsensus.sol\":5190:5213  proposal.voteCount += 1 */\n      dup3\n      dup3\n      sload\n      tag_134\n      swap2\n      swap1\n      tag_126\n      jump\t// in\n    tag_134:\n      swap3\n      pop\n      pop\n      dup2\n      swap1\n      sstore\n      pop\n        /* \"contracts/BusinessConsensus.sol\":5228:5234  voters */\n      0x08\n        /* \"contracts/BusinessConsensus.sol\":5240:5250  voters_map */\n      0x09\n        /* \"contracts/BusinessConsensus.sol\":5240:5262  voters_map[msg.sender] */\n      0x00\n        /* \"contracts/BusinessConsensus.sol\":5251:5261  msg.sender */\n      caller\n        /* \"contracts/BusinessConsensus.sol\":5240:5262  voters_map[msg.sender] */\n      0xffffffffffffffffffffffffffffffffffffffff\n      and\n      0xffffffffffffffffffffffffffffffffffffffff\n      and\n      dup2\n      mstore\n      0x20\n      add\n      swap1\n      dup2\n      mstore\n      0x20\n      add\n      0x00\n      keccak256\n        /* \"contracts/BusinessConsensus.sol\":5228:5263  voters.push(voters_map[msg.sender]) */\n      swap1\n      dup1\n      0x01\n      dup2\n      sload\n      add\n      dup1\n      dup3\n      sstore\n      dup1\n      swap2\n      pop\n      pop\n      0x01\n      swap1\n      sub\n      swap1\n      0x00\n      mstore\n      keccak256(0x00, 0x20)\n      add\n      0x00\n      swap1\n      swap2\n      swap1\n      swap2\n      swap1\n      swap2\n      pop\n      0x00\n      dup3\n      add\n      0x00\n      swap1\n      sload\n      swap1\n      0x0100\n      exp\n      swap1\n      div\n      0xff\n      and\n      dup2\n      0x00\n      add\n      exp(0x0100, 0x00)\n      dup2\n      sload\n      dup2\n      0xff\n      mul\n      not\n      and\n      swap1\n      dup4\n      iszero\n      iszero\n      mul\n      or\n      swap1\n      sstore\n      pop\n      0x00\n      dup3\n      add\n      0x01\n      swap1\n      sload\n      swap1\n      0x0100\n      exp\n      swap1\n      div\n      0xff\n      and\n      dup2\n      0x00\n      add\n      exp(0x0100, 0x01)\n      dup2\n      sload\n      dup2\n      0xff\n      mul\n      not\n      and\n      swap1\n      dup4\n      iszero\n      iszero\n      mul\n      or\n      swap1\n      sstore\n      pop\n      0x00\n      dup3\n      add\n      0x02\n      swap1\n      sload\n      swap1\n      0x0100\n      exp\n      swap1\n      div\n      0xffffffffffffffffffffffffffffffffffffffff\n      and\n      dup2\n      0x00\n      add\n      exp(0x0100, 0x02)\n      dup2\n      sload\n      dup2\n      0xffffffffffffffffffffffffffffffffffffffff\n      mul\n      not\n      and\n      swap1\n      dup4\n      0xffffffffffffffffffffffffffffffffffffffff\n      and\n      mul\n      or\n      swap1\n      sstore\n      pop\n      pop\n      pop\n        /* \"contracts/BusinessConsensus.sol\":4821:5275  if(keccak256(bytes(response)) == keccak256(bytes(\"i disapprove\"))){\r... */\n    tag_133:\n        /* \"contracts/BusinessConsensus.sol\":4510:5275  if(keccak256(bytes(response)) == keccak256(bytes(\"i approve\"))){\r... */\n    tag_129:\n        /* \"contracts/BusinessConsensus.sol\":4195:5292  function Vote(string memory response) external {\r... */\n      pop\n      jump\t// out\n        /* \"contracts/BusinessConsensus.sol\":2429:2643  function getParameters2(address test_address) external view returns (bool, bool, address){\r... */\n    tag_43:\n        /* \"contracts/BusinessConsensus.sol\":2498:2502  bool */\n      0x00\n        /* \"contracts/BusinessConsensus.sol\":2504:2508  bool */\n      dup1\n        /* \"contracts/BusinessConsensus.sol\":2510:2517  address */\n      0x00\n        /* \"contracts/BusinessConsensus.sol\":2537:2547  voters_map */\n      0x09\n        /* \"contracts/BusinessConsensus.sol\":2537:2561  voters_map[test_address] */\n      0x00\n        /* \"contracts/BusinessConsensus.sol\":2548:2560  test_address */\n      dup6\n        /* \"contracts/BusinessConsensus.sol\":2537:2561  voters_map[test_address] */\n      0xffffffffffffffffffffffffffffffffffffffff\n      and\n      0xffffffffffffffffffffffffffffffffffffffff\n      and\n      dup2\n      mstore\n      0x20\n      add\n      swap1\n      dup2\n      mstore\n      0x20\n      add\n      0x00\n      keccak256\n        /* \"contracts/BusinessConsensus.sol\":2537:2566  voters_map[test_address].vote */\n      0x00\n      add\n      0x01\n      swap1\n      sload\n      swap1\n      0x0100\n      exp\n      swap1\n      div\n      0xff\n      and\n        /* \"contracts/BusinessConsensus.sol\":2568:2578  voters_map */\n      0x09\n        /* \"contracts/BusinessConsensus.sol\":2568:2592  voters_map[test_address] */\n      0x00\n        /* \"contracts/BusinessConsensus.sol\":2579:2591  test_address */\n      dup7\n        /* \"contracts/BusinessConsensus.sol\":2568:2592  voters_map[test_address] */\n      0xffffffffffffffffffffffffffffffffffffffff\n      and\n      0xffffffffffffffffffffffffffffffffffffffff\n      and\n      dup2\n      mstore\n      0x20\n      add\n      swap1\n      dup2\n      mstore\n      0x20\n      add\n      0x00\n      keccak256\n        /* \"contracts/BusinessConsensus.sol\":2568:2598  voters_map[test_address].voted */\n      0x00\n      add\n      0x00\n      swap1\n      sload\n      swap1\n      0x0100\n      exp\n      swap1\n      div\n      0xff\n      and\n        /* \"contracts/BusinessConsensus.sol\":2600:2610  voters_map */\n      0x09\n        /* \"contracts/BusinessConsensus.sol\":2600:2624  voters_map[test_address] */\n      0x00\n        /* \"contracts/BusinessConsensus.sol\":2611:2623  test_address */\n      dup8\n        /* \"contracts/BusinessConsensus.sol\":2600:2624  voters_map[test_address] */\n      0xffffffffffffffffffffffffffffffffffffffff\n      and\n      0xffffffffffffffffffffffffffffffffffffffff\n      and\n      dup2\n      mstore\n      0x20\n      add\n      swap1\n      dup2\n      mstore\n      0x20\n      add\n      0x00\n      keccak256\n        /* \"contracts/BusinessConsensus.sol\":2600:2634  voters_map[test_address].recipient */\n      0x00\n      add\n      0x02\n      swap1\n      sload\n      swap1\n      0x0100\n      exp\n      swap1\n      div\n      0xffffffffffffffffffffffffffffffffffffffff\n      and\n        /* \"contracts/BusinessConsensus.sol\":2529:2635  return (voters_map[test_address].vote, voters_map[test_address].voted, voters_map[test_address].recipient) */\n      swap3\n      pop\n      swap3\n      pop\n      swap3\n      pop\n        /* \"contracts/BusinessConsensus.sol\":2429:2643  function getParameters2(address test_address) external view returns (bool, bool, address){\r... */\n      swap2\n      swap4\n      swap1\n      swap3\n      pop\n      jump\t// out\n        /* \"contracts/BusinessConsensus.sol\":808:832  address public initiator */\n    tag_47:\n      0x01\n      0x00\n      swap1\n      sload\n      swap1\n      0x0100\n      exp\n      swap1\n      div\n      0xffffffffffffffffffffffffffffffffffffffff\n      and\n      dup2\n      jump\t// out\n        /* \"contracts/BusinessConsensus.sol\":958:985  uint256 public numApprovals */\n    tag_50:\n      sload(0x05)\n      dup2\n      jump\t// out\n        /* \"contracts/BusinessConsensus.sol\":1218:1242  Proposal public proposal */\n    tag_54:\n      0x0a\n      dup1\n      0x00\n      add\n      sload\n      swap1\n      dup1\n      0x01\n      add\n      dup1\n      sload\n      tag_137\n      swap1\n      tag_109\n      jump\t// in\n    tag_137:\n      dup1\n      0x1f\n      add\n      0x20\n      dup1\n      swap2\n      div\n      mul\n      0x20\n      add\n      mload(0x40)\n      swap1\n      dup2\n      add\n      0x40\n      mstore\n      dup1\n      swap3\n      swap2\n      swap1\n      dup2\n      dup2\n      mstore\n      0x20\n      add\n      dup3\n      dup1\n      sload\n      tag_138\n      swap1\n      tag_109\n      jump\t// in\n    tag_138:\n      dup1\n      iszero\n      tag_139\n      jumpi\n      dup1\n      0x1f\n      lt\n      tag_140\n      jumpi\n      0x0100\n      dup1\n      dup4\n      sload\n      div\n      mul\n      dup4\n      mstore\n      swap2\n      0x20\n      add\n      swap2\n      jump(tag_139)\n    tag_140:\n      dup3\n      add\n      swap2\n      swap1\n      0x00\n      mstore\n      keccak256(0x00, 0x20)\n      swap1\n    tag_141:\n      dup2\n      sload\n      dup2\n      mstore\n      swap1\n      0x01\n      add\n      swap1\n      0x20\n      add\n      dup1\n      dup4\n      gt\n      tag_141\n      jumpi\n      dup3\n      swap1\n      sub\n      0x1f\n      and\n      dup3\n      add\n      swap2\n    tag_139:\n      pop\n      pop\n      pop\n      pop\n      pop\n      swap1\n      dup1\n      0x02\n      add\n      dup1\n      sload\n      tag_142\n      swap1\n      tag_109\n      jump\t// in\n    tag_142:\n      dup1\n      0x1f\n      add\n      0x20\n      dup1\n      swap2\n      div\n      mul\n      0x20\n      add\n      mload(0x40)\n      swap1\n      dup2\n      add\n      0x40\n      mstore\n      dup1\n      swap3\n      swap2\n      swap1\n      dup2\n      dup2\n      mstore\n      0x20\n      add\n      dup3\n      dup1\n      sload\n      tag_143\n      swap1\n      tag_109\n      jump\t// in\n    tag_143:\n      dup1\n      iszero\n      tag_144\n      jumpi\n      dup1\n      0x1f\n      lt\n      tag_145\n      jumpi\n      0x0100\n      dup1\n      dup4\n      sload\n      div\n      mul\n      dup4\n      mstore\n      swap2\n      0x20\n      add\n      swap2\n      jump(tag_144)\n    tag_145:\n      dup3\n      add\n      swap2\n      swap1\n      0x00\n      mstore\n      keccak256(0x00, 0x20)\n      swap1\n    tag_146:\n      dup2\n      sload\n      dup2\n      mstore\n      swap1\n      0x01\n      add\n      swap1\n      0x20\n      add\n      dup1\n      dup4\n      gt\n      tag_146\n      jumpi\n      dup3\n      swap1\n      sub\n      0x1f\n      and\n      dup3\n      add\n      swap2\n    tag_144:\n      pop\n      pop\n      pop\n      pop\n      pop\n      swap1\n      dup1\n      0x03\n      add\n      dup1\n      sload\n      tag_147\n      swap1\n      tag_109\n      jump\t// in\n    tag_147:\n      dup1\n      0x1f\n      add\n      0x20\n      dup1\n      swap2\n      div\n      mul\n      0x20\n      add\n      mload(0x40)\n      swap1\n      dup2\n      add\n      0x40\n      mstore\n      dup1\n      swap3\n      swap2\n      swap1\n      dup2\n      dup2\n      mstore\n      0x20\n      add\n      dup3\n      dup1\n      sload\n      tag_148\n      swap1\n      tag_109\n      jump\t// in\n    tag_148:\n      dup1\n      iszero\n      tag_149\n      jumpi\n      dup1\n      0x1f\n      lt\n      tag_150\n      jumpi\n      0x0100\n      dup1\n      dup4\n      sload\n      div\n      mul\n      dup4\n      mstore\n      swap2\n      0x20\n      add\n      swap2\n      jump(tag_149)\n    tag_150:\n      dup3\n      add\n      swap2\n      swap1\n      0x00\n      mstore\n      keccak256(0x00, 0x20)\n      swap1\n    tag_151:\n      dup2\n      sload\n      dup2\n      mstore\n      swap1\n      0x01\n      add\n      swap1\n      0x20\n      add\n      dup1\n      dup4\n      gt\n      tag_151\n      jumpi\n      dup3\n      swap1\n      sub\n      0x1f\n      and\n      dup3\n      add\n      swap2\n    tag_149:\n      pop\n      pop\n      pop\n      pop\n      pop\n      swap1\n      dup1\n      0x04\n      add\n      sload\n      swap1\n      dup1\n      0x05\n      add\n      sload\n      swap1\n      pop\n      dup7\n      jump\t// out\n        /* \"contracts/BusinessConsensus.sol\":2140:2227  function getIsCompiled() public view returns (bool){\r... */\n    tag_58:\n        /* \"contracts/BusinessConsensus.sol\":2186:2190  bool */\n      0x00\n        /* \"contracts/BusinessConsensus.sol\":2209:2219  isCompiled */\n      0x06\n      0x00\n      swap1\n      sload\n      swap1\n      0x0100\n      exp\n      swap1\n      div\n      0xff\n      and\n        /* \"contracts/BusinessConsensus.sol\":2202:2219  return isCompiled */\n      swap1\n      pop\n        /* \"contracts/BusinessConsensus.sol\":2140:2227  function getIsCompiled() public view returns (bool){\r... */\n      swap1\n      jump\t// out\n        /* \"contracts/BusinessConsensus.sol\":6091:6333  function retrieve_bundle() external view returns (bytes32, Proposal memory, Voter[] memory){\r... */\n    tag_62:\n        /* \"contracts/BusinessConsensus.sol\":6141:6148  bytes32 */\n      0x00\n        /* \"contracts/BusinessConsensus.sol\":6150:6165  Proposal memory */\n      tag_153\n      tag_154\n      jump\t// in\n    tag_153:\n        /* \"contracts/BusinessConsensus.sol\":6167:6181  Voter[] memory */\n      0x60\n        /* \"contracts/BusinessConsensus.sol\":6220:6230  expiryDate */\n      sload(0x03)\n        /* \"contracts/BusinessConsensus.sol\":6201:6216  block.timestamp */\n      timestamp\n        /* \"contracts/BusinessConsensus.sol\":6201:6230  block.timestamp >= expiryDate */\n      lt\n      iszero\n        /* \"contracts/BusinessConsensus.sol\":6193:6267  require(block.timestamp >= expiryDate, \"Verdict has not been reached yet\") */\n      tag_156\n      jumpi\n      mload(0x40)\n      0x08c379a000000000000000000000000000000000000000000000000000000000\n      dup2\n      mstore\n      0x04\n      add\n      tag_157\n      swap1\n      tag_158\n      jump\t// in\n    tag_157:\n      mload(0x40)\n      dup1\n      swap2\n      sub\n      swap1\n      revert\n    tag_156:\n        /* \"contracts/BusinessConsensus.sol\":6286:6298  finalVerdict */\n      sload(0x07)\n        /* \"contracts/BusinessConsensus.sol\":6299:6307  proposal */\n      0x0a\n        /* \"contracts/BusinessConsensus.sol\":6308:6314  voters */\n      0x08\n        /* \"contracts/BusinessConsensus.sol\":6278:6315  return (finalVerdict,proposal,voters) */\n      dup2\n      mload(0x40)\n      dup1\n      0xc0\n      add\n      0x40\n      mstore\n      swap1\n      dup2\n      0x00\n      dup3\n      add\n      sload\n      dup2\n      mstore\n      0x20\n      add\n      0x01\n      dup3\n      add\n      dup1\n      sload\n      tag_159\n      swap1\n      tag_109\n      jump\t// in\n    tag_159:\n      dup1\n      0x1f\n      add\n      0x20\n      dup1\n      swap2\n      div\n      mul\n      0x20\n      add\n      mload(0x40)\n      swap1\n      dup2\n      add\n      0x40\n      mstore\n      dup1\n      swap3\n      swap2\n      swap1\n      dup2\n      dup2\n      mstore\n      0x20\n      add\n      dup3\n      dup1\n      sload\n      tag_160\n      swap1\n      tag_109\n      jump\t// in\n    tag_160:\n      dup1\n      iszero\n      tag_161\n      jumpi\n      dup1\n      0x1f\n      lt\n      tag_162\n      jumpi\n      0x0100\n      dup1\n      dup4\n      sload\n      div\n      mul\n      dup4\n      mstore\n      swap2\n      0x20\n      add\n      swap2\n      jump(tag_161)\n    tag_162:\n      dup3\n      add\n      swap2\n      swap1\n      0x00\n      mstore\n      keccak256(0x00, 0x20)\n      swap1\n    tag_163:\n      dup2\n      sload\n      dup2\n      mstore\n      swap1\n      0x01\n      add\n      swap1\n      0x20\n      add\n      dup1\n      dup4\n      gt\n      tag_163\n      jumpi\n      dup3\n      swap1\n      sub\n      0x1f\n      and\n      dup3\n      add\n      swap2\n    tag_161:\n      pop\n      pop\n      pop\n      pop\n      pop\n      dup2\n      mstore\n      0x20\n      add\n      0x02\n      dup3\n      add\n      dup1\n      sload\n      tag_164\n      swap1\n      tag_109\n      jump\t// in\n    tag_164:\n      dup1\n      0x1f\n      add\n      0x20\n      dup1\n      swap2\n      div\n      mul\n      0x20\n      add\n      mload(0x40)\n      swap1\n      dup2\n      add\n      0x40\n      mstore\n      dup1\n      swap3\n      swap2\n      swap1\n      dup2\n      dup2\n      mstore\n      0x20\n      add\n      dup3\n      dup1\n      sload\n      tag_165\n      swap1\n      tag_109\n      jump\t// in\n    tag_165:\n      dup1\n      iszero\n      tag_166\n      jumpi\n      dup1\n      0x1f\n      lt\n      tag_167\n      jumpi\n      0x0100\n      dup1\n      dup4\n      sload\n      div\n      mul\n      dup4\n      mstore\n      swap2\n      0x20\n      add\n      swap2\n      jump(tag_166)\n    tag_167:\n      dup3\n      add\n      swap2\n      swap1\n      0x00\n      mstore\n      keccak256(0x00, 0x20)\n      swap1\n    tag_168:\n      dup2\n      sload\n      dup2\n      mstore\n      swap1\n      0x01\n      add\n      swap1\n      0x20\n      add\n      dup1\n      dup4\n      gt\n      tag_168\n      jumpi\n      dup3\n      swap1\n      sub\n      0x1f\n      and\n      dup3\n      add\n      swap2\n    tag_166:\n      pop\n      pop\n      pop\n      pop\n      pop\n      dup2\n      mstore\n      0x20\n      add\n      0x03\n      dup3\n      add\n      dup1\n      sload\n      tag_169\n      swap1\n      tag_109\n      jump\t// in\n    tag_169:\n      dup1\n      0x1f\n      add\n      0x20\n      dup1\n      swap2\n      div\n      mul\n      0x20\n      add\n      mload(0x40)\n      swap1\n      dup2\n      add\n      0x40\n      mstore\n      dup1\n      swap3\n      swap2\n      swap1\n      dup2\n      dup2\n      mstore\n      0x20\n      add\n      dup3\n      dup1\n      sload\n      tag_170\n      swap1\n      tag_109\n      jump\t// in\n    tag_170:\n      dup1\n      iszero\n      tag_171\n      jumpi\n      dup1\n      0x1f\n      lt\n      tag_172\n      jumpi\n      0x0100\n      dup1\n      dup4\n      sload\n      div\n      mul\n      dup4\n      mstore\n      swap2\n      0x20\n      add\n      swap2\n      jump(tag_171)\n    tag_172:\n      dup3\n      add\n      swap2\n      swap1\n      0x00\n      mstore\n      keccak256(0x00, 0x20)\n      swap1\n    tag_173:\n      dup2\n      sload\n      dup2\n      mstore\n      swap1\n      0x01\n      add\n      swap1\n      0x20\n      add\n      dup1\n      dup4\n      gt\n      tag_173\n      jumpi\n      dup3\n      swap1\n      sub\n      0x1f\n      and\n      dup3\n      add\n      swap2\n    tag_171:\n      pop\n      pop\n      pop\n      pop\n      pop\n      dup2\n      mstore\n      0x20\n      add\n      0x04\n      dup3\n      add\n      sload\n      dup2\n      mstore\n      0x20\n      add\n      0x05\n      dup3\n      add\n      sload\n      dup2\n      mstore\n      pop\n      pop\n      swap2\n      pop\n      dup1\n      dup1\n      sload\n      dup1\n      0x20\n      mul\n      0x20\n      add\n      mload(0x40)\n      swap1\n      dup2\n      add\n      0x40\n      mstore\n      dup1\n      swap3\n      swap2\n      swap1\n      dup2\n      dup2\n      mstore\n      0x20\n      add\n      0x00\n      swap1\n    tag_174:\n      dup3\n      dup3\n      lt\n      iszero\n      tag_175\n      jumpi\n      dup4\n      dup3\n      swap1\n      0x00\n      mstore\n      keccak256(0x00, 0x20)\n      add\n      mload(0x40)\n      dup1\n      0x60\n      add\n      0x40\n      mstore\n      swap1\n      dup2\n      0x00\n      dup3\n      add\n      0x00\n      swap1\n      sload\n      swap1\n      0x0100\n      exp\n      swap1\n      div\n      0xff\n      and\n      iszero\n      iszero\n      iszero\n      iszero\n      dup2\n      mstore\n      0x20\n      add\n      0x00\n      dup3\n      add\n      0x01\n      swap1\n      sload\n      swap1\n      0x0100\n      exp\n      swap1\n      div\n      0xff\n      and\n      iszero\n      iszero\n      iszero\n      iszero\n      dup2\n      mstore\n      0x20\n      add\n      0x00\n      dup3\n      add\n      0x02\n      swap1\n      sload\n      swap1\n      0x0100\n      exp\n      swap1\n      div\n      0xffffffffffffffffffffffffffffffffffffffff\n      and\n      0xffffffffffffffffffffffffffffffffffffffff\n      and\n      0xffffffffffffffffffffffffffffffffffffffff\n      and\n      dup2\n      mstore\n      pop\n      pop\n      dup2\n      mstore\n      0x20\n      add\n      swap1\n      0x01\n      add\n      swap1\n      jump(tag_174)\n    tag_175:\n      pop\n      pop\n      pop\n      pop\n      swap1\n      pop\n      swap3\n      pop\n      swap3\n      pop\n      swap3\n      pop\n        /* \"contracts/BusinessConsensus.sol\":6091:6333  function retrieve_bundle() external view returns (bytes32, Proposal memory, Voter[] memory){\r... */\n      swap1\n      swap2\n      swap3\n      jump\t// out\n        /* \"contracts/BusinessConsensus.sol\":5356:6083  function Consensus() external {\r... */\n    tag_66:\n        /* \"contracts/BusinessConsensus.sol\":5424:5434  expiryDate */\n      sload(0x03)\n        /* \"contracts/BusinessConsensus.sol\":5405:5420  block.timestamp */\n      timestamp\n        /* \"contracts/BusinessConsensus.sol\":5405:5434  block.timestamp >= expiryDate */\n      lt\n      iszero\n        /* \"contracts/BusinessConsensus.sol\":5397:5471  require(block.timestamp >= expiryDate, \"Verdict has not been reached yet\") */\n      tag_178\n      jumpi\n      mload(0x40)\n      0x08c379a000000000000000000000000000000000000000000000000000000000\n      dup2\n      mstore\n      0x04\n      add\n      tag_179\n      swap1\n      tag_158\n      jump\t// in\n    tag_179:\n      mload(0x40)\n      dup1\n      swap2\n      sub\n      swap1\n      revert\n    tag_178:\n        /* \"contracts/BusinessConsensus.sol\":5504:5509  false */\n      0x00\n        /* \"contracts/BusinessConsensus.sol\":5490:5509  isCompiled == false */\n      iszero\n      iszero\n        /* \"contracts/BusinessConsensus.sol\":5490:5500  isCompiled */\n      0x06\n      0x00\n      swap1\n      sload\n      swap1\n      0x0100\n      exp\n      swap1\n      div\n      0xff\n      and\n        /* \"contracts/BusinessConsensus.sol\":5490:5509  isCompiled == false */\n      iszero\n      iszero\n      eq\n        /* \"contracts/BusinessConsensus.sol\":5482:5551  require(isCompiled == false, \"Consensus has already been calculated\") */\n      tag_180\n      jumpi\n      mload(0x40)\n      0x08c379a000000000000000000000000000000000000000000000000000000000\n      dup2\n      mstore\n      0x04\n      add\n      tag_181\n      swap1\n      tag_182\n      jump\t// in\n    tag_181:\n      mload(0x40)\n      dup1\n      swap2\n      sub\n      swap1\n      revert\n    tag_180:\n        /* \"contracts/BusinessConsensus.sol\":5584:5593  initiator */\n      0x01\n      0x00\n      swap1\n      sload\n      swap1\n      0x0100\n      exp\n      swap1\n      div\n      0xffffffffffffffffffffffffffffffffffffffff\n      and\n        /* \"contracts/BusinessConsensus.sol\":5570:5593  msg.sender == initiator */\n      0xffffffffffffffffffffffffffffffffffffffff\n      and\n        /* \"contracts/BusinessConsensus.sol\":5570:5580  msg.sender */\n      caller\n        /* \"contracts/BusinessConsensus.sol\":5570:5593  msg.sender == initiator */\n      0xffffffffffffffffffffffffffffffffffffffff\n      and\n      eq\n        /* \"contracts/BusinessConsensus.sol\":5570:5645  msg.sender == initiator || voters_map[msg.sender].recipient != address(0x0) */\n      dup1\n      tag_183\n      jumpi\n      pop\n        /* \"contracts/BusinessConsensus.sol\":5641:5644  0x0 */\n      0x00\n        /* \"contracts/BusinessConsensus.sol\":5597:5645  voters_map[msg.sender].recipient != address(0x0) */\n      0xffffffffffffffffffffffffffffffffffffffff\n      and\n        /* \"contracts/BusinessConsensus.sol\":5597:5607  voters_map */\n      0x09\n        /* \"contracts/BusinessConsensus.sol\":5597:5619  voters_map[msg.sender] */\n      0x00\n        /* \"contracts/BusinessConsensus.sol\":5608:5618  msg.sender */\n      caller\n        /* \"contracts/BusinessConsensus.sol\":5597:5619  voters_map[msg.sender] */\n      0xffffffffffffffffffffffffffffffffffffffff\n      and\n      0xffffffffffffffffffffffffffffffffffffffff\n      and\n      dup2\n      mstore\n      0x20\n      add\n      swap1\n      dup2\n      mstore\n      0x20\n      add\n      0x00\n      keccak256\n        /* \"contracts/BusinessConsensus.sol\":5597:5629  voters_map[msg.sender].recipient */\n      0x00\n      add\n      0x02\n      swap1\n      sload\n      swap1\n      0x0100\n      exp\n      swap1\n      div\n      0xffffffffffffffffffffffffffffffffffffffff\n      and\n        /* \"contracts/BusinessConsensus.sol\":5597:5645  voters_map[msg.sender].recipient != address(0x0) */\n      0xffffffffffffffffffffffffffffffffffffffff\n      and\n      eq\n      iszero\n        /* \"contracts/BusinessConsensus.sol\":5570:5645  msg.sender == initiator || voters_map[msg.sender].recipient != address(0x0) */\n    tag_183:\n        /* \"contracts/BusinessConsensus.sol\":5562:5688  require(msg.sender == initiator || voters_map[msg.sender].recipient != address(0x0), \"You aren't authorize to compile Bundle\") */\n      tag_184\n      jumpi\n      mload(0x40)\n      0x08c379a000000000000000000000000000000000000000000000000000000000\n      dup2\n      mstore\n      0x04\n      add\n      tag_185\n      swap1\n      tag_186\n      jump\t// in\n    tag_185:\n      mload(0x40)\n      dup1\n      swap2\n      sub\n      swap1\n      revert\n    tag_184:\n        /* \"contracts/BusinessConsensus.sol\":5699:5728  uint256 AccumulatedPercentage */\n      0x00\n        /* \"contracts/BusinessConsensus.sol\":5758:5761  100 */\n      0x64\n        /* \"contracts/BusinessConsensus.sol\":5745:5749  keys */\n      0x02\n        /* \"contracts/BusinessConsensus.sol\":5745:5756  keys.length */\n      dup1\n      sload\n      swap1\n      pop\n        /* \"contracts/BusinessConsensus.sol\":5732:5744  numApprovals */\n      sload(0x05)\n        /* \"contracts/BusinessConsensus.sol\":5732:5756  numApprovals/keys.length */\n      tag_187\n      swap2\n      swap1\n      tag_188\n      jump\t// in\n    tag_187:\n        /* \"contracts/BusinessConsensus.sol\":5731:5761  (numApprovals/keys.length)*100 */\n      tag_189\n      swap2\n      swap1\n      tag_190\n      jump\t// in\n    tag_189:\n        /* \"contracts/BusinessConsensus.sol\":5699:5761  uint256 AccumulatedPercentage = (numApprovals/keys.length)*100 */\n      swap1\n      pop\n        /* \"contracts/BusinessConsensus.sol\":5800:5819  BusinessRequirement */\n      sload(0x04)\n        /* \"contracts/BusinessConsensus.sol\":5775:5796  AccumulatedPercentage */\n      dup2\n        /* \"contracts/BusinessConsensus.sol\":5775:5819  AccumulatedPercentage >= BusinessRequirement */\n      lt\n        /* \"contracts/BusinessConsensus.sol\":5772:5872  if(AccumulatedPercentage >= BusinessRequirement){\r... */\n      tag_191\n      jumpi\n        /* \"contracts/BusinessConsensus.sol\":5835:5860  finalVerdict = \"Accepted\" */\n      0x4163636570746564000000000000000000000000000000000000000000000000\n        /* \"contracts/BusinessConsensus.sol\":5835:5847  finalVerdict */\n      0x07\n        /* \"contracts/BusinessConsensus.sol\":5835:5860  finalVerdict = \"Accepted\" */\n      dup2\n      swap1\n      sstore\n      pop\n        /* \"contracts/BusinessConsensus.sol\":5772:5872  if(AccumulatedPercentage >= BusinessRequirement){\r... */\n    tag_191:\n        /* \"contracts/BusinessConsensus.sol\":5886:5893  uint8 i */\n      0x00\n        /* \"contracts/BusinessConsensus.sol\":5882:6048  for(uint8 i=0; i< keys.length; i++){\r... */\n    tag_192:\n        /* \"contracts/BusinessConsensus.sol\":5900:5904  keys */\n      0x02\n        /* \"contracts/BusinessConsensus.sol\":5900:5911  keys.length */\n      dup1\n      sload\n      swap1\n      pop\n        /* \"contracts/BusinessConsensus.sol\":5897:5898  i */\n      dup2\n        /* \"contracts/BusinessConsensus.sol\":5897:5911  i< keys.length */\n      0xff\n      and\n      lt\n        /* \"contracts/BusinessConsensus.sol\":5882:6048  for(uint8 i=0; i< keys.length; i++){\r... */\n      iszero\n      tag_193\n      jumpi\n        /* \"contracts/BusinessConsensus.sol\":5964:5969  false */\n      0x00\n        /* \"contracts/BusinessConsensus.sol\":5935:5969  voters_map[keys[i]].voted == false */\n      iszero\n      iszero\n        /* \"contracts/BusinessConsensus.sol\":5935:5945  voters_map */\n      0x09\n        /* \"contracts/BusinessConsensus.sol\":5935:5954  voters_map[keys[i]] */\n      0x00\n        /* \"contracts/BusinessConsensus.sol\":5946:5950  keys */\n      0x02\n        /* \"contracts/BusinessConsensus.sol\":5951:5952  i */\n      dup5\n        /* \"contracts/BusinessConsensus.sol\":5946:5953  keys[i] */\n      0xff\n      and\n      dup2\n      sload\n      dup2\n      lt\n      tag_195\n      jumpi\n      tag_196\n      tag_197\n      jump\t// in\n    tag_196:\n    tag_195:\n      swap1\n      0x00\n      mstore\n      keccak256(0x00, 0x20)\n      add\n      0x00\n      swap1\n      sload\n      swap1\n      0x0100\n      exp\n      swap1\n      div\n      0xffffffffffffffffffffffffffffffffffffffff\n      and\n        /* \"contracts/BusinessConsensus.sol\":5935:5954  voters_map[keys[i]] */\n      0xffffffffffffffffffffffffffffffffffffffff\n      and\n      0xffffffffffffffffffffffffffffffffffffffff\n      and\n      dup2\n      mstore\n      0x20\n      add\n      swap1\n      dup2\n      mstore\n      0x20\n      add\n      0x00\n      keccak256\n        /* \"contracts/BusinessConsensus.sol\":5935:5960  voters_map[keys[i]].voted */\n      0x00\n      add\n      0x00\n      swap1\n      sload\n      swap1\n      0x0100\n      exp\n      swap1\n      div\n      0xff\n      and\n        /* \"contracts/BusinessConsensus.sol\":5935:5969  voters_map[keys[i]].voted == false */\n      iszero\n      iszero\n      eq\n        /* \"contracts/BusinessConsensus.sol\":5932:6037  if(voters_map[keys[i]].voted == false){\r... */\n      iszero\n      tag_199\n      jumpi\n        /* \"contracts/BusinessConsensus.sol\":5989:5995  voters */\n      0x08\n        /* \"contracts/BusinessConsensus.sol\":6001:6011  voters_map */\n      0x09\n        /* \"contracts/BusinessConsensus.sol\":6001:6020  voters_map[keys[i]] */\n      0x00\n        /* \"contracts/BusinessConsensus.sol\":6012:6016  keys */\n      0x02\n        /* \"contracts/BusinessConsensus.sol\":6017:6018  i */\n      dup5\n        /* \"contracts/BusinessConsensus.sol\":6012:6019  keys[i] */\n      0xff\n      and\n      dup2\n      sload\n      dup2\n      lt\n      tag_200\n      jumpi\n      tag_201\n      tag_197\n      jump\t// in\n    tag_201:\n    tag_200:\n      swap1\n      0x00\n      mstore\n      keccak256(0x00, 0x20)\n      add\n      0x00\n      swap1\n      sload\n      swap1\n      0x0100\n      exp\n      swap1\n      div\n      0xffffffffffffffffffffffffffffffffffffffff\n      and\n        /* \"contracts/BusinessConsensus.sol\":6001:6020  voters_map[keys[i]] */\n      0xffffffffffffffffffffffffffffffffffffffff\n      and\n      0xffffffffffffffffffffffffffffffffffffffff\n      and\n      dup2\n      mstore\n      0x20\n      add\n      swap1\n      dup2\n      mstore\n      0x20\n      add\n      0x00\n      keccak256\n        /* \"contracts/BusinessConsensus.sol\":5989:6021  voters.push(voters_map[keys[i]]) */\n      swap1\n      dup1\n      0x01\n      dup2\n      sload\n      add\n      dup1\n      dup3\n      sstore\n      dup1\n      swap2\n      pop\n      pop\n      0x01\n      swap1\n      sub\n      swap1\n      0x00\n      mstore\n      keccak256(0x00, 0x20)\n      add\n      0x00\n      swap1\n      swap2\n      swap1\n      swap2\n      swap1\n      swap2\n      pop\n      0x00\n      dup3\n      add\n      0x00\n      swap1\n      sload\n      swap1\n      0x0100\n      exp\n      swap1\n      div\n      0xff\n      and\n      dup2\n      0x00\n      add\n      exp(0x0100, 0x00)\n      dup2\n      sload\n      dup2\n      0xff\n      mul\n      not\n      and\n      swap1\n      dup4\n      iszero\n      iszero\n      mul\n      or\n      swap1\n      sstore\n      pop\n      0x00\n      dup3\n      add\n      0x01\n      swap1\n      sload\n      swap1\n      0x0100\n      exp\n      swap1\n      div\n      0xff\n      and\n      dup2\n      0x00\n      add\n      exp(0x0100, 0x01)\n      dup2\n      sload\n      dup2\n      0xff\n      mul\n      not\n      and\n      swap1\n      dup4\n      iszero\n      iszero\n      mul\n      or\n      swap1\n      sstore\n      pop\n      0x00\n      dup3\n      add\n      0x02\n      swap1\n      sload\n      swap1\n      0x0100\n      exp\n      swap1\n      div\n      0xffffffffffffffffffffffffffffffffffffffff\n      and\n      dup2\n      0x00\n      add\n      exp(0x0100, 0x02)\n      dup2\n      sload\n      dup2\n      0xffffffffffffffffffffffffffffffffffffffff\n      mul\n      not\n      and\n      swap1\n      dup4\n      0xffffffffffffffffffffffffffffffffffffffff\n      and\n      mul\n      or\n      swap1\n      sstore\n      pop\n      pop\n      pop\n        /* \"contracts/BusinessConsensus.sol\":5932:6037  if(voters_map[keys[i]].voted == false){\r... */\n    tag_199:\n        /* \"contracts/BusinessConsensus.sol\":5913:5916  i++ */\n      dup1\n      dup1\n      tag_204\n      swap1\n      tag_205\n      jump\t// in\n    tag_204:\n      swap2\n      pop\n      pop\n        /* \"contracts/BusinessConsensus.sol\":5882:6048  for(uint8 i=0; i< keys.length; i++){\r... */\n      jump(tag_192)\n    tag_193:\n      pop\n        /* \"contracts/BusinessConsensus.sol\":6071:6075  true */\n      0x01\n        /* \"contracts/BusinessConsensus.sol\":6058:6068  isCompiled */\n      0x06\n      0x00\n        /* \"contracts/BusinessConsensus.sol\":6058:6075  isCompiled = true */\n      0x0100\n      exp\n      dup2\n      sload\n      dup2\n      0xff\n      mul\n      not\n      and\n      swap1\n      dup4\n      iszero\n      iszero\n      mul\n      or\n      swap1\n      sstore\n      pop\n        /* \"contracts/BusinessConsensus.sol\":5386:6083  {\r... */\n      pop\n        /* \"contracts/BusinessConsensus.sol\":5356:6083  function Consensus() external {\r... */\n      jump\t// out\n        /* \"contracts/BusinessConsensus.sol\":1098:1141  mapping(address => Voter) public voters_map */\n    tag_69:\n      mstore(0x20, 0x09)\n      dup1\n      0x00\n      mstore\n      keccak256(0x00, 0x40)\n      0x00\n      swap2\n      pop\n      swap1\n      pop\n      dup1\n      0x00\n      add\n      0x00\n      swap1\n      sload\n      swap1\n      0x0100\n      exp\n      swap1\n      div\n      0xff\n      and\n      swap1\n      dup1\n      0x00\n      add\n      0x01\n      swap1\n      sload\n      swap1\n      0x0100\n      exp\n      swap1\n      div\n      0xff\n      and\n      swap1\n      dup1\n      0x00\n      add\n      0x02\n      swap1\n      sload\n      swap1\n      0x0100\n      exp\n      swap1\n      div\n      0xffffffffffffffffffffffffffffffffffffffff\n      and\n      swap1\n      pop\n      dup4\n      jump\t// out\n        /* \"contracts/BusinessConsensus.sol\":2649:3437  function checkConsistency(string memory _subject, uint256 _businessRequirement, uint256 _expiryLength, bytes32 _contents) public view returns(bool, bool, bool){\r... */\n    tag_74:\n        /* \"contracts/BusinessConsensus.sol\":2791:2795  bool */\n      0x00\n        /* \"contracts/BusinessConsensus.sol\":2797:2801  bool */\n      dup1\n        /* \"contracts/BusinessConsensus.sol\":2803:2807  bool */\n      0x00\n        /* \"contracts/BusinessConsensus.sol\":2841:2850  initiator */\n      0x01\n      0x00\n      swap1\n      sload\n      swap1\n      0x0100\n      exp\n      swap1\n      div\n      0xffffffffffffffffffffffffffffffffffffffff\n      and\n        /* \"contracts/BusinessConsensus.sol\":2827:2850  msg.sender == initiator */\n      0xffffffffffffffffffffffffffffffffffffffff\n      and\n        /* \"contracts/BusinessConsensus.sol\":2827:2837  msg.sender */\n      caller\n        /* \"contracts/BusinessConsensus.sol\":2827:2850  msg.sender == initiator */\n      0xffffffffffffffffffffffffffffffffffffffff\n      and\n      eq\n        /* \"contracts/BusinessConsensus.sol\":2819:2875  require(msg.sender == initiator, \"You aren't Initiator\") */\n      tag_207\n      jumpi\n      mload(0x40)\n      0x08c379a000000000000000000000000000000000000000000000000000000000\n      dup2\n      mstore\n      0x04\n      add\n      tag_208\n      swap1\n      tag_209\n      jump\t// in\n    tag_208:\n      mload(0x40)\n      dup1\n      swap2\n      sub\n      swap1\n      revert\n    tag_207:\n        /* \"contracts/BusinessConsensus.sol\":2886:2897  bool value1 */\n      0x00\n        /* \"contracts/BusinessConsensus.sol\":2900:2904  true */\n      0x01\n        /* \"contracts/BusinessConsensus.sol\":2886:2904  bool value1 = true */\n      swap1\n      pop\n        /* \"contracts/BusinessConsensus.sol\":2915:2926  bool value2 */\n      0x00\n        /* \"contracts/BusinessConsensus.sol\":2929:2933  true */\n      0x01\n        /* \"contracts/BusinessConsensus.sol\":2915:2933  bool value2 = true */\n      swap1\n      pop\n        /* \"contracts/BusinessConsensus.sol\":2944:2955  bool value3 */\n      0x00\n        /* \"contracts/BusinessConsensus.sol\":2958:2962  true */\n      0x01\n        /* \"contracts/BusinessConsensus.sol\":2944:2962  bool value3 = true */\n      swap1\n      pop\n        /* \"contracts/BusinessConsensus.sol\":2997:2998  0 */\n      0x00\n        /* \"contracts/BusinessConsensus.sol\":2976:2999  initiator == address(0) */\n      0xffffffffffffffffffffffffffffffffffffffff\n      and\n        /* \"contracts/BusinessConsensus.sol\":2976:2985  initiator */\n      0x01\n      0x00\n      swap1\n      sload\n      swap1\n      0x0100\n      exp\n      swap1\n      div\n      0xffffffffffffffffffffffffffffffffffffffff\n      and\n        /* \"contracts/BusinessConsensus.sol\":2976:2999  initiator == address(0) */\n      0xffffffffffffffffffffffffffffffffffffffff\n      and\n      eq\n        /* \"contracts/BusinessConsensus.sol\":2973:3430  if(initiator == address(0)){\r... */\n      iszero\n      tag_210\n      jumpi\n        /* \"contracts/BusinessConsensus.sol\":3023:3027  true */\n      0x01\n        /* \"contracts/BusinessConsensus.sol\":3029:3033  true */\n      dup1\n        /* \"contracts/BusinessConsensus.sol\":3035:3039  true */\n      0x01\n        /* \"contracts/BusinessConsensus.sol\":3015:3040  return (true, true, true) */\n      swap6\n      pop\n      swap6\n      pop\n      swap6\n      pop\n      pop\n      pop\n      pop\n      jump(tag_206)\n        /* \"contracts/BusinessConsensus.sol\":2973:3430  if(initiator == address(0)){\r... */\n    tag_210:\n        /* \"contracts/BusinessConsensus.sol\":3108:3127  BusinessRequirement */\n      sload(0x04)\n        /* \"contracts/BusinessConsensus.sol\":3084:3104  _businessRequirement */\n      dup10\n        /* \"contracts/BusinessConsensus.sol\":3084:3127  _businessRequirement != BusinessRequirement */\n      eq\n        /* \"contracts/BusinessConsensus.sol\":3081:3177  if(_businessRequirement != BusinessRequirement){\r... */\n      tag_212\n      jumpi\n        /* \"contracts/BusinessConsensus.sol\":3156:3161  false */\n      0x00\n        /* \"contracts/BusinessConsensus.sol\":3147:3161  value1 = false */\n      swap3\n      pop\n        /* \"contracts/BusinessConsensus.sol\":3081:3177  if(_businessRequirement != BusinessRequirement){\r... */\n    tag_212:\n        /* \"contracts/BusinessConsensus.sol\":3207:3215  proposal */\n      0x0a\n        /* \"contracts/BusinessConsensus.sol\":3207:3224  proposal.contents */\n      0x04\n      add\n      sload\n        /* \"contracts/BusinessConsensus.sol\":3194:3203  _contents */\n      dup8\n        /* \"contracts/BusinessConsensus.sol\":3194:3224  _contents != proposal.contents */\n      eq\n        /* \"contracts/BusinessConsensus.sol\":3191:3274  if(_contents != proposal.contents){\r... */\n      tag_213\n      jumpi\n        /* \"contracts/BusinessConsensus.sol\":3253:3258  false */\n      0x00\n        /* \"contracts/BusinessConsensus.sol\":3244:3258  value2 = false */\n      swap2\n      pop\n        /* \"contracts/BusinessConsensus.sol\":3191:3274  if(_contents != proposal.contents){\r... */\n    tag_213:\n        /* \"contracts/BusinessConsensus.sol\":3316:3329  _expiryLength */\n      dup8\n        /* \"contracts/BusinessConsensus.sol\":3291:3299  proposal */\n      0x0a\n        /* \"contracts/BusinessConsensus.sol\":3291:3312  proposal.expiryLength */\n      0x05\n      add\n      sload\n        /* \"contracts/BusinessConsensus.sol\":3291:3329  proposal.expiryLength != _expiryLength */\n      eq\n        /* \"contracts/BusinessConsensus.sol\":3288:3379  if(proposal.expiryLength != _expiryLength){\r... */\n      tag_214\n      jumpi\n        /* \"contracts/BusinessConsensus.sol\":3358:3363  false */\n      0x00\n        /* \"contracts/BusinessConsensus.sol\":3349:3363  value3 = false */\n      swap1\n      pop\n        /* \"contracts/BusinessConsensus.sol\":3288:3379  if(proposal.expiryLength != _expiryLength){\r... */\n    tag_214:\n        /* \"contracts/BusinessConsensus.sol\":3397:3403  value1 */\n      dup3\n        /* \"contracts/BusinessConsensus.sol\":3404:3410  value2 */\n      dup3\n        /* \"contracts/BusinessConsensus.sol\":3411:3417  value3 */\n      dup3\n        /* \"contracts/BusinessConsensus.sol\":3389:3418  return (value1,value2,value3) */\n      swap6\n      pop\n      swap6\n      pop\n      swap6\n      pop\n      pop\n      pop\n      pop\n        /* \"contracts/BusinessConsensus.sol\":2649:3437  function checkConsistency(string memory _subject, uint256 _businessRequirement, uint256 _expiryLength, bytes32 _contents) public view returns(bool, bool, bool){\r... */\n    tag_206:\n      swap5\n      pop\n      swap5\n      pop\n      swap5\n      swap2\n      pop\n      pop\n      jump\t// out\n        /* \"contracts/BusinessConsensus.sol\":2233:2423  function getParameters() external view returns (string memory, uint , address ,uint ,uint){\r... */\n    tag_78:\n        /* \"contracts/BusinessConsensus.sol\":2281:2294  string memory */\n      0x60\n        /* \"contracts/BusinessConsensus.sol\":2296:2300  uint */\n      0x00\n        /* \"contracts/BusinessConsensus.sol\":2303:2310  address */\n      dup1\n        /* \"contracts/BusinessConsensus.sol\":2312:2316  uint */\n      0x00\n        /* \"contracts/BusinessConsensus.sol\":2318:2322  uint */\n      dup1\n        /* \"contracts/BusinessConsensus.sol\":2342:2350  proposal */\n      0x0a\n        /* \"contracts/BusinessConsensus.sol\":2342:2360  proposal.messageID */\n      0x01\n      add\n        /* \"contracts/BusinessConsensus.sol\":2361:2371  expiryDate */\n      sload(0x03)\n        /* \"contracts/BusinessConsensus.sol\":2372:2381  initiator */\n      0x01\n      0x00\n      swap1\n      sload\n      swap1\n      0x0100\n      exp\n      swap1\n      div\n      0xffffffffffffffffffffffffffffffffffffffff\n      and\n        /* \"contracts/BusinessConsensus.sol\":2382:2401  BusinessRequirement */\n      sload(0x04)\n        /* \"contracts/BusinessConsensus.sol\":2402:2414  numApprovals */\n      sload(0x05)\n        /* \"contracts/BusinessConsensus.sol\":2334:2415  return (proposal.messageID,expiryDate,initiator,BusinessRequirement,numApprovals) */\n      dup5\n      dup1\n      sload\n      tag_216\n      swap1\n      tag_109\n      jump\t// in\n    tag_216:\n      dup1\n      0x1f\n      add\n      0x20\n      dup1\n      swap2\n      div\n      mul\n      0x20\n      add\n      mload(0x40)\n      swap1\n      dup2\n      add\n      0x40\n      mstore\n      dup1\n      swap3\n      swap2\n      swap1\n      dup2\n      dup2\n      mstore\n      0x20\n      add\n      dup3\n      dup1\n      sload\n      tag_217\n      swap1\n      tag_109\n      jump\t// in\n    tag_217:\n      dup1\n      iszero\n      tag_218\n      jumpi\n      dup1\n      0x1f\n      lt\n      tag_219\n      jumpi\n      0x0100\n      dup1\n      dup4\n      sload\n      div\n      mul\n      dup4\n      mstore\n      swap2\n      0x20\n      add\n      swap2\n      jump(tag_218)\n    tag_219:\n      dup3\n      add\n      swap2\n      swap1\n      0x00\n      mstore\n      keccak256(0x00, 0x20)\n      swap1\n    tag_220:\n      dup2\n      sload\n      dup2\n      mstore\n      swap1\n      0x01\n      add\n      swap1\n      0x20\n      add\n      dup1\n      dup4\n      gt\n      tag_220\n      jumpi\n      dup3\n      swap1\n      sub\n      0x1f\n      and\n      dup3\n      add\n      swap2\n    tag_218:\n      pop\n      pop\n      pop\n      pop\n      pop\n      swap5\n      pop\n      swap5\n      pop\n      swap5\n      pop\n      swap5\n      pop\n      swap5\n      pop\n      swap5\n      pop\n        /* \"contracts/BusinessConsensus.sol\":2233:2423  function getParameters() external view returns (string memory, uint , address ,uint ,uint){\r... */\n      swap1\n      swap2\n      swap3\n      swap4\n      swap5\n      jump\t// out\n        /* \"contracts/BusinessConsensus.sol\":917:951  uint256 public BusinessRequirement */\n    tag_82:\n      sload(0x04)\n      dup2\n      jump\t// out\n        /* \"contracts/BusinessConsensus.sol\":1068:1089  Voter[] public voters */\n    tag_86:\n      0x08\n      dup2\n      dup2\n      sload\n      dup2\n      lt\n      tag_221\n      jumpi\n      0x00\n      dup1\n      revert\n    tag_221:\n      swap1\n      0x00\n      mstore\n      keccak256(0x00, 0x20)\n      add\n      0x00\n      swap2\n      pop\n      swap1\n      pop\n      dup1\n      0x00\n      add\n      0x00\n      swap1\n      sload\n      swap1\n      0x0100\n      exp\n      swap1\n      div\n      0xff\n      and\n      swap1\n      dup1\n      0x00\n      add\n      0x01\n      swap1\n      sload\n      swap1\n      0x0100\n      exp\n      swap1\n      div\n      0xff\n      and\n      swap1\n      dup1\n      0x00\n      add\n      0x02\n      swap1\n      sload\n      swap1\n      0x0100\n      exp\n      swap1\n      div\n      0xffffffffffffffffffffffffffffffffffffffff\n      and\n      swap1\n      pop\n      dup4\n      jump\t// out\n        /* \"contracts/BusinessConsensus.sol\":708:738  address public contractAddress */\n    tag_89:\n      0x00\n      dup1\n      sload\n      swap1\n      0x0100\n      exp\n      swap1\n      div\n      0xffffffffffffffffffffffffffffffffffffffff\n      and\n      dup2\n      jump\t// out\n    tag_154:\n      mload(0x40)\n      dup1\n      0xc0\n      add\n      0x40\n      mstore\n      dup1\n      0x00\n      dup2\n      mstore\n      0x20\n      add\n      0x60\n      dup2\n      mstore\n      0x20\n      add\n      0x60\n      dup2\n      mstore\n      0x20\n      add\n      0x60\n      dup2\n      mstore\n      0x20\n      add\n      0x00\n      dup1\n      not\n      and\n      dup2\n      mstore\n      0x20\n      add\n      0x00\n      dup2\n      mstore\n      pop\n      swap1\n      jump\t// out\n        /* \"#utility.yul\":7:419   */\n    tag_224:\n        /* \"#utility.yul\":85:90   */\n      0x00\n        /* \"#utility.yul\":110:176   */\n      tag_226\n        /* \"#utility.yul\":126:175   */\n      tag_227\n        /* \"#utility.yul\":168:174   */\n      dup5\n        /* \"#utility.yul\":126:175   */\n      tag_228\n      jump\t// in\n    tag_227:\n        /* \"#utility.yul\":110:176   */\n      tag_229\n      jump\t// in\n    tag_226:\n        /* \"#utility.yul\":101:176   */\n      swap1\n      pop\n        /* \"#utility.yul\":199:205   */\n      dup3\n        /* \"#utility.yul\":192:197   */\n      dup2\n        /* \"#utility.yul\":185:206   */\n      mstore\n        /* \"#utility.yul\":237:241   */\n      0x20\n        /* \"#utility.yul\":230:235   */\n      dup2\n        /* \"#utility.yul\":226:242   */\n      add\n        /* \"#utility.yul\":275:278   */\n      dup5\n        /* \"#utility.yul\":266:272   */\n      dup5\n        /* \"#utility.yul\":261:264   */\n      dup5\n        /* \"#utility.yul\":257:273   */\n      add\n        /* \"#utility.yul\":254:279   */\n      gt\n        /* \"#utility.yul\":251:363   */\n      iszero\n      tag_230\n      jumpi\n        /* \"#utility.yul\":282:361   */\n      tag_231\n      tag_232\n      jump\t// in\n    tag_231:\n        /* \"#utility.yul\":251:363   */\n    tag_230:\n        /* \"#utility.yul\":372:413   */\n      tag_233\n        /* \"#utility.yul\":406:412   */\n      dup5\n        /* \"#utility.yul\":401:404   */\n      dup3\n        /* \"#utility.yul\":396:399   */\n      dup6\n        /* \"#utility.yul\":372:413   */\n      tag_234\n      jump\t// in\n    tag_233:\n        /* \"#utility.yul\":91:419   */\n      pop\n        /* \"#utility.yul\":7:419   */\n      swap4\n      swap3\n      pop\n      pop\n      pop\n      jump\t// out\n        /* \"#utility.yul\":425:564   */\n    tag_235:\n        /* \"#utility.yul\":471:476   */\n      0x00\n        /* \"#utility.yul\":509:515   */\n      dup2\n        /* \"#utility.yul\":496:516   */\n      calldataload\n        /* \"#utility.yul\":487:516   */\n      swap1\n      pop\n        /* \"#utility.yul\":525:558   */\n      tag_237\n        /* \"#utility.yul\":552:557   */\n      dup2\n        /* \"#utility.yul\":525:558   */\n      tag_238\n      jump\t// in\n    tag_237:\n        /* \"#utility.yul\":425:564   */\n      swap3\n      swap2\n      pop\n      pop\n      jump\t// out\n        /* \"#utility.yul\":570:709   */\n    tag_239:\n        /* \"#utility.yul\":616:621   */\n      0x00\n        /* \"#utility.yul\":654:660   */\n      dup2\n        /* \"#utility.yul\":641:661   */\n      calldataload\n        /* \"#utility.yul\":632:661   */\n      swap1\n      pop\n        /* \"#utility.yul\":670:703   */\n      tag_241\n        /* \"#utility.yul\":697:702   */\n      dup2\n        /* \"#utility.yul\":670:703   */\n      tag_242\n      jump\t// in\n    tag_241:\n        /* \"#utility.yul\":570:709   */\n      swap3\n      swap2\n      pop\n      pop\n      jump\t// out\n        /* \"#utility.yul\":729:1069   */\n    tag_243:\n        /* \"#utility.yul\":785:790   */\n      0x00\n        /* \"#utility.yul\":834:837   */\n      dup3\n        /* \"#utility.yul\":827:831   */\n      0x1f\n        /* \"#utility.yul\":819:825   */\n      dup4\n        /* \"#utility.yul\":815:832   */\n      add\n        /* \"#utility.yul\":811:838   */\n      slt\n        /* \"#utility.yul\":801:923   */\n      tag_245\n      jumpi\n        /* \"#utility.yul\":842:921   */\n      tag_246\n      tag_247\n      jump\t// in\n    tag_246:\n        /* \"#utility.yul\":801:923   */\n    tag_245:\n        /* \"#utility.yul\":959:965   */\n      dup2\n        /* \"#utility.yul\":946:966   */\n      calldataload\n        /* \"#utility.yul\":984:1063   */\n      tag_248\n        /* \"#utility.yul\":1059:1062   */\n      dup5\n        /* \"#utility.yul\":1051:1057   */\n      dup3\n        /* \"#utility.yul\":1044:1048   */\n      0x20\n        /* \"#utility.yul\":1036:1042   */\n      dup7\n        /* \"#utility.yul\":1032:1049   */\n      add\n        /* \"#utility.yul\":984:1063   */\n      tag_224\n      jump\t// in\n    tag_248:\n        /* \"#utility.yul\":975:1063   */\n      swap2\n      pop\n        /* \"#utility.yul\":791:1069   */\n      pop\n        /* \"#utility.yul\":729:1069   */\n      swap3\n      swap2\n      pop\n      pop\n      jump\t// out\n        /* \"#utility.yul\":1075:1214   */\n    tag_249:\n        /* \"#utility.yul\":1121:1126   */\n      0x00\n        /* \"#utility.yul\":1159:1165   */\n      dup2\n        /* \"#utility.yul\":1146:1166   */\n      calldataload\n        /* \"#utility.yul\":1137:1166   */\n      swap1\n      pop\n        /* \"#utility.yul\":1175:1208   */\n      tag_251\n        /* \"#utility.yul\":1202:1207   */\n      dup2\n        /* \"#utility.yul\":1175:1208   */\n      tag_252\n      jump\t// in\n    tag_251:\n        /* \"#utility.yul\":1075:1214   */\n      swap3\n      swap2\n      pop\n      pop\n      jump\t// out\n        /* \"#utility.yul\":1220:1549   */\n    tag_31:\n        /* \"#utility.yul\":1279:1285   */\n      0x00\n        /* \"#utility.yul\":1328:1330   */\n      0x20\n        /* \"#utility.yul\":1316:1325   */\n      dup3\n        /* \"#utility.yul\":1307:1314   */\n      dup5\n        /* \"#utility.yul\":1303:1326   */\n      sub\n        /* \"#utility.yul\":1299:1331   */\n      slt\n        /* \"#utility.yul\":1296:1415   */\n      iszero\n      tag_254\n      jumpi\n        /* \"#utility.yul\":1334:1413   */\n      tag_255\n      tag_256\n      jump\t// in\n    tag_255:\n        /* \"#utility.yul\":1296:1415   */\n    tag_254:\n        /* \"#utility.yul\":1454:1455   */\n      0x00\n        /* \"#utility.yul\":1479:1532   */\n      tag_257\n        /* \"#utility.yul\":1524:1531   */\n      dup5\n        /* \"#utility.yul\":1515:1521   */\n      dup3\n        /* \"#utility.yul\":1504:1513   */\n      dup6\n        /* \"#utility.yul\":1500:1522   */\n      add\n        /* \"#utility.yul\":1479:1532   */\n      tag_235\n      jump\t// in\n    tag_257:\n        /* \"#utility.yul\":1469:1532   */\n      swap2\n      pop\n        /* \"#utility.yul\":1425:1542   */\n      pop\n        /* \"#utility.yul\":1220:1549   */\n      swap3\n      swap2\n      pop\n      pop\n      jump\t// out\n        /* \"#utility.yul\":1555:2064   */\n    tag_39:\n        /* \"#utility.yul\":1624:1630   */\n      0x00\n        /* \"#utility.yul\":1673:1675   */\n      0x20\n        /* \"#utility.yul\":1661:1670   */\n      dup3\n        /* \"#utility.yul\":1652:1659   */\n      dup5\n        /* \"#utility.yul\":1648:1671   */\n      sub\n        /* \"#utility.yul\":1644:1676   */\n      slt\n        /* \"#utility.yul\":1641:1760   */\n      iszero\n      tag_259\n      jumpi\n        /* \"#utility.yul\":1679:1758   */\n      tag_260\n      tag_256\n      jump\t// in\n    tag_260:\n        /* \"#utility.yul\":1641:1760   */\n    tag_259:\n        /* \"#utility.yul\":1827:1828   */\n      0x00\n        /* \"#utility.yul\":1816:1825   */\n      dup3\n        /* \"#utility.yul\":1812:1829   */\n      add\n        /* \"#utility.yul\":1799:1830   */\n      calldataload\n        /* \"#utility.yul\":1857:1875   */\n      0xffffffffffffffff\n        /* \"#utility.yul\":1849:1855   */\n      dup2\n        /* \"#utility.yul\":1846:1876   */\n      gt\n        /* \"#utility.yul\":1843:1960   */\n      iszero\n      tag_261\n      jumpi\n        /* \"#utility.yul\":1879:1958   */\n      tag_262\n      tag_263\n      jump\t// in\n    tag_262:\n        /* \"#utility.yul\":1843:1960   */\n    tag_261:\n        /* \"#utility.yul\":1984:2047   */\n      tag_264\n        /* \"#utility.yul\":2039:2046   */\n      dup5\n        /* \"#utility.yul\":2030:2036   */\n      dup3\n        /* \"#utility.yul\":2019:2028   */\n      dup6\n        /* \"#utility.yul\":2015:2037   */\n      add\n        /* \"#utility.yul\":1984:2047   */\n      tag_243\n      jump\t// in\n    tag_264:\n        /* \"#utility.yul\":1974:2047   */\n      swap2\n      pop\n        /* \"#utility.yul\":1770:2057   */\n      pop\n        /* \"#utility.yul\":1555:2064   */\n      swap3\n      swap2\n      pop\n      pop\n      jump\t// out\n        /* \"#utility.yul\":2070:3015   */\n    tag_73:\n        /* \"#utility.yul\":2166:2172   */\n      0x00\n        /* \"#utility.yul\":2174:2180   */\n      dup1\n        /* \"#utility.yul\":2182:2188   */\n      0x00\n        /* \"#utility.yul\":2190:2196   */\n      dup1\n        /* \"#utility.yul\":2239:2242   */\n      0x80\n        /* \"#utility.yul\":2227:2236   */\n      dup6\n        /* \"#utility.yul\":2218:2225   */\n      dup8\n        /* \"#utility.yul\":2214:2237   */\n      sub\n        /* \"#utility.yul\":2210:2243   */\n      slt\n        /* \"#utility.yul\":2207:2327   */\n      iszero\n      tag_266\n      jumpi\n        /* \"#utility.yul\":2246:2325   */\n      tag_267\n      tag_256\n      jump\t// in\n    tag_267:\n        /* \"#utility.yul\":2207:2327   */\n    tag_266:\n        /* \"#utility.yul\":2394:2395   */\n      0x00\n        /* \"#utility.yul\":2383:2392   */\n      dup6\n        /* \"#utility.yul\":2379:2396   */\n      add\n        /* \"#utility.yul\":2366:2397   */\n      calldataload\n        /* \"#utility.yul\":2424:2442   */\n      0xffffffffffffffff\n        /* \"#utility.yul\":2416:2422   */\n      dup2\n        /* \"#utility.yul\":2413:2443   */\n      gt\n        /* \"#utility.yul\":2410:2527   */\n      iszero\n      tag_268\n      jumpi\n        /* \"#utility.yul\":2446:2525   */\n      tag_269\n      tag_263\n      jump\t// in\n    tag_269:\n        /* \"#utility.yul\":2410:2527   */\n    tag_268:\n        /* \"#utility.yul\":2551:2614   */\n      tag_270\n        /* \"#utility.yul\":2606:2613   */\n      dup8\n        /* \"#utility.yul\":2597:2603   */\n      dup3\n        /* \"#utility.yul\":2586:2595   */\n      dup9\n        /* \"#utility.yul\":2582:2604   */\n      add\n        /* \"#utility.yul\":2551:2614   */\n      tag_243\n      jump\t// in\n    tag_270:\n        /* \"#utility.yul\":2541:2614   */\n      swap5\n      pop\n        /* \"#utility.yul\":2337:2624   */\n      pop\n        /* \"#utility.yul\":2663:2665   */\n      0x20\n        /* \"#utility.yul\":2689:2742   */\n      tag_271\n        /* \"#utility.yul\":2734:2741   */\n      dup8\n        /* \"#utility.yul\":2725:2731   */\n      dup3\n        /* \"#utility.yul\":2714:2723   */\n      dup9\n        /* \"#utility.yul\":2710:2732   */\n      add\n        /* \"#utility.yul\":2689:2742   */\n      tag_249\n      jump\t// in\n    tag_271:\n        /* \"#utility.yul\":2679:2742   */\n      swap4\n      pop\n        /* \"#utility.yul\":2634:2752   */\n      pop\n        /* \"#utility.yul\":2791:2793   */\n      0x40\n        /* \"#utility.yul\":2817:2870   */\n      tag_272\n        /* \"#utility.yul\":2862:2869   */\n      dup8\n        /* \"#utility.yul\":2853:2859   */\n      dup3\n        /* \"#utility.yul\":2842:2851   */\n      dup9\n        /* \"#utility.yul\":2838:2860   */\n      add\n        /* \"#utility.yul\":2817:2870   */\n      tag_249\n      jump\t// in\n    tag_272:\n        /* \"#utility.yul\":2807:2870   */\n      swap3\n      pop\n        /* \"#utility.yul\":2762:2880   */\n      pop\n        /* \"#utility.yul\":2919:2921   */\n      0x60\n        /* \"#utility.yul\":2945:2998   */\n      tag_273\n        /* \"#utility.yul\":2990:2997   */\n      dup8\n        /* \"#utility.yul\":2981:2987   */\n      dup3\n        /* \"#utility.yul\":2970:2979   */\n      dup9\n        /* \"#utility.yul\":2966:2988   */\n      add\n        /* \"#utility.yul\":2945:2998   */\n      tag_239\n      jump\t// in\n    tag_273:\n        /* \"#utility.yul\":2935:2998   */\n      swap2\n      pop\n        /* \"#utility.yul\":2890:3008   */\n      pop\n        /* \"#utility.yul\":2070:3015   */\n      swap3\n      swap6\n      swap2\n      swap5\n      pop\n      swap3\n      pop\n      jump\t// out\n        /* \"#utility.yul\":3021:3350   */\n    tag_25:\n        /* \"#utility.yul\":3080:3086   */\n      0x00\n        /* \"#utility.yul\":3129:3131   */\n      0x20\n        /* \"#utility.yul\":3117:3126   */\n      dup3\n        /* \"#utility.yul\":3108:3115   */\n      dup5\n        /* \"#utility.yul\":3104:3127   */\n      sub\n        /* \"#utility.yul\":3100:3132   */\n      slt\n        /* \"#utility.yul\":3097:3216   */\n      iszero\n      tag_275\n      jumpi\n        /* \"#utility.yul\":3135:3214   */\n      tag_276\n      tag_256\n      jump\t// in\n    tag_276:\n        /* \"#utility.yul\":3097:3216   */\n    tag_275:\n        /* \"#utility.yul\":3255:3256   */\n      0x00\n        /* \"#utility.yul\":3280:3333   */\n      tag_277\n        /* \"#utility.yul\":3325:3332   */\n      dup5\n        /* \"#utility.yul\":3316:3322   */\n      dup3\n        /* \"#utility.yul\":3305:3314   */\n      dup6\n        /* \"#utility.yul\":3301:3323   */\n      add\n        /* \"#utility.yul\":3280:3333   */\n      tag_249\n      jump\t// in\n    tag_277:\n        /* \"#utility.yul\":3270:3333   */\n      swap2\n      pop\n        /* \"#utility.yul\":3226:3343   */\n      pop\n        /* \"#utility.yul\":3021:3350   */\n      swap3\n      swap2\n      pop\n      pop\n      jump\t// out\n        /* \"#utility.yul\":3356:3615   */\n    tag_278:\n        /* \"#utility.yul\":3465:3475   */\n      0x00\n        /* \"#utility.yul\":3486:3572   */\n      tag_280\n        /* \"#utility.yul\":3568:3571   */\n      dup4\n        /* \"#utility.yul\":3560:3566   */\n      dup4\n        /* \"#utility.yul\":3486:3572   */\n      tag_281\n      jump\t// in\n    tag_280:\n        /* \"#utility.yul\":3604:3608   */\n      0x60\n        /* \"#utility.yul\":3599:3602   */\n      dup4\n        /* \"#utility.yul\":3595:3609   */\n      add\n        /* \"#utility.yul\":3581:3609   */\n      swap1\n      pop\n        /* \"#utility.yul\":3356:3615   */\n      swap3\n      swap2\n      pop\n      pop\n      jump\t// out\n        /* \"#utility.yul\":3621:3729   */\n    tag_282:\n        /* \"#utility.yul\":3698:3722   */\n      tag_284\n        /* \"#utility.yul\":3716:3721   */\n      dup2\n        /* \"#utility.yul\":3698:3722   */\n      tag_285\n      jump\t// in\n    tag_284:\n        /* \"#utility.yul\":3693:3696   */\n      dup3\n        /* \"#utility.yul\":3686:3723   */\n      mstore\n        /* \"#utility.yul\":3621:3729   */\n      pop\n      pop\n      jump\t// out\n        /* \"#utility.yul\":3735:3853   */\n    tag_286:\n        /* \"#utility.yul\":3822:3846   */\n      tag_288\n        /* \"#utility.yul\":3840:3845   */\n      dup2\n        /* \"#utility.yul\":3822:3846   */\n      tag_285\n      jump\t// in\n    tag_288:\n        /* \"#utility.yul\":3817:3820   */\n      dup3\n        /* \"#utility.yul\":3810:3847   */\n      mstore\n        /* \"#utility.yul\":3735:3853   */\n      pop\n      pop\n      jump\t// out\n        /* \"#utility.yul\":3935:4827   */\n    tag_289:\n        /* \"#utility.yul\":4094:4097   */\n      0x00\n        /* \"#utility.yul\":4123:4197   */\n      tag_291\n        /* \"#utility.yul\":4191:4196   */\n      dup3\n        /* \"#utility.yul\":4123:4197   */\n      tag_292\n      jump\t// in\n    tag_291:\n        /* \"#utility.yul\":4213:4319   */\n      tag_293\n        /* \"#utility.yul\":4312:4318   */\n      dup2\n        /* \"#utility.yul\":4307:4310   */\n      dup6\n        /* \"#utility.yul\":4213:4319   */\n      tag_294\n      jump\t// in\n    tag_293:\n        /* \"#utility.yul\":4206:4319   */\n      swap4\n      pop\n        /* \"#utility.yul\":4343:4419   */\n      tag_295\n        /* \"#utility.yul\":4413:4418   */\n      dup4\n        /* \"#utility.yul\":4343:4419   */\n      tag_296\n      jump\t// in\n    tag_295:\n        /* \"#utility.yul\":4442:4449   */\n      dup1\n        /* \"#utility.yul\":4473:4474   */\n      0x00\n        /* \"#utility.yul\":4458:4802   */\n    tag_297:\n        /* \"#utility.yul\":4483:4489   */\n      dup4\n        /* \"#utility.yul\":4480:4481   */\n      dup2\n        /* \"#utility.yul\":4477:4490   */\n      lt\n        /* \"#utility.yul\":4458:4802   */\n      iszero\n      tag_299\n      jumpi\n        /* \"#utility.yul\":4559:4565   */\n      dup2\n        /* \"#utility.yul\":4553:4566   */\n      mload\n        /* \"#utility.yul\":4586:4689   */\n      tag_300\n        /* \"#utility.yul\":4685:4688   */\n      dup9\n        /* \"#utility.yul\":4670:4683   */\n      dup3\n        /* \"#utility.yul\":4586:4689   */\n      tag_278\n      jump\t// in\n    tag_300:\n        /* \"#utility.yul\":4579:4689   */\n      swap8\n      pop\n        /* \"#utility.yul\":4712:4792   */\n      tag_301\n        /* \"#utility.yul\":4785:4791   */\n      dup4\n        /* \"#utility.yul\":4712:4792   */\n      tag_302\n      jump\t// in\n    tag_301:\n        /* \"#utility.yul\":4702:4792   */\n      swap3\n      pop\n        /* \"#utility.yul\":4518:4802   */\n      pop\n        /* \"#utility.yul\":4505:4506   */\n      0x01\n        /* \"#utility.yul\":4502:4503   */\n      dup2\n        /* \"#utility.yul\":4498:4507   */\n      add\n        /* \"#utility.yul\":4493:4507   */\n      swap1\n      pop\n        /* \"#utility.yul\":4458:4802   */\n      jump(tag_297)\n    tag_299:\n        /* \"#utility.yul\":4462:4476   */\n      pop\n        /* \"#utility.yul\":4818:4821   */\n      dup6\n        /* \"#utility.yul\":4811:4821   */\n      swap4\n      pop\n        /* \"#utility.yul\":4099:4827   */\n      pop\n      pop\n      pop\n        /* \"#utility.yul\":3935:4827   */\n      swap3\n      swap2\n      pop\n      pop\n      jump\t// out\n        /* \"#utility.yul\":4833:4932   */\n    tag_303:\n        /* \"#utility.yul\":4904:4925   */\n      tag_305\n        /* \"#utility.yul\":4919:4924   */\n      dup2\n        /* \"#utility.yul\":4904:4925   */\n      tag_306\n      jump\t// in\n    tag_305:\n        /* \"#utility.yul\":4899:4902   */\n      dup3\n        /* \"#utility.yul\":4892:4926   */\n      mstore\n        /* \"#utility.yul\":4833:4932   */\n      pop\n      pop\n      jump\t// out\n        /* \"#utility.yul\":4938:5047   */\n    tag_307:\n        /* \"#utility.yul\":5019:5040   */\n      tag_309\n        /* \"#utility.yul\":5034:5039   */\n      dup2\n        /* \"#utility.yul\":5019:5040   */\n      tag_306\n      jump\t// in\n    tag_309:\n        /* \"#utility.yul\":5014:5017   */\n      dup3\n        /* \"#utility.yul\":5007:5041   */\n      mstore\n        /* \"#utility.yul\":4938:5047   */\n      pop\n      pop\n      jump\t// out\n        /* \"#utility.yul\":5053:5161   */\n    tag_310:\n        /* \"#utility.yul\":5130:5154   */\n      tag_312\n        /* \"#utility.yul\":5148:5153   */\n      dup2\n        /* \"#utility.yul\":5130:5154   */\n      tag_313\n      jump\t// in\n    tag_312:\n        /* \"#utility.yul\":5125:5128   */\n      dup3\n        /* \"#utility.yul\":5118:5155   */\n      mstore\n        /* \"#utility.yul\":5053:5161   */\n      pop\n      pop\n      jump\t// out\n        /* \"#utility.yul\":5167:5285   */\n    tag_314:\n        /* \"#utility.yul\":5254:5278   */\n      tag_316\n        /* \"#utility.yul\":5272:5277   */\n      dup2\n        /* \"#utility.yul\":5254:5278   */\n      tag_313\n      jump\t// in\n    tag_316:\n        /* \"#utility.yul\":5249:5252   */\n      dup3\n        /* \"#utility.yul\":5242:5279   */\n      mstore\n        /* \"#utility.yul\":5167:5285   */\n      pop\n      pop\n      jump\t// out\n        /* \"#utility.yul\":5291:5635   */\n    tag_317:\n        /* \"#utility.yul\":5369:5372   */\n      0x00\n        /* \"#utility.yul\":5397:5436   */\n      tag_319\n        /* \"#utility.yul\":5430:5435   */\n      dup3\n        /* \"#utility.yul\":5397:5436   */\n      tag_320\n      jump\t// in\n    tag_319:\n        /* \"#utility.yul\":5452:5513   */\n      tag_321\n        /* \"#utility.yul\":5506:5512   */\n      dup2\n        /* \"#utility.yul\":5501:5504   */\n      dup6\n        /* \"#utility.yul\":5452:5513   */\n      tag_322\n      jump\t// in\n    tag_321:\n        /* \"#utility.yul\":5445:5513   */\n      swap4\n      pop\n        /* \"#utility.yul\":5522:5574   */\n      tag_323\n        /* \"#utility.yul\":5567:5573   */\n      dup2\n        /* \"#utility.yul\":5562:5565   */\n      dup6\n        /* \"#utility.yul\":5555:5559   */\n      0x20\n        /* \"#utility.yul\":5548:5553   */\n      dup7\n        /* \"#utility.yul\":5544:5560   */\n      add\n        /* \"#utility.yul\":5522:5574   */\n      tag_324\n      jump\t// in\n    tag_323:\n        /* \"#utility.yul\":5599:5628   */\n      tag_325\n        /* \"#utility.yul\":5621:5627   */\n      dup2\n        /* \"#utility.yul\":5599:5628   */\n      tag_326\n      jump\t// in\n    tag_325:\n        /* \"#utility.yul\":5594:5597   */\n      dup5\n        /* \"#utility.yul\":5590:5629   */\n      add\n        /* \"#utility.yul\":5583:5629   */\n      swap2\n      pop\n        /* \"#utility.yul\":5373:5635   */\n      pop\n        /* \"#utility.yul\":5291:5635   */\n      swap3\n      swap2\n      pop\n      pop\n      jump\t// out\n        /* \"#utility.yul\":5641:6005   */\n    tag_327:\n        /* \"#utility.yul\":5729:5732   */\n      0x00\n        /* \"#utility.yul\":5757:5796   */\n      tag_329\n        /* \"#utility.yul\":5790:5795   */\n      dup3\n        /* \"#utility.yul\":5757:5796   */\n      tag_320\n      jump\t// in\n    tag_329:\n        /* \"#utility.yul\":5812:5883   */\n      tag_330\n        /* \"#utility.yul\":5876:5882   */\n      dup2\n        /* \"#utility.yul\":5871:5874   */\n      dup6\n        /* \"#utility.yul\":5812:5883   */\n      tag_331\n      jump\t// in\n    tag_330:\n        /* \"#utility.yul\":5805:5883   */\n      swap4\n      pop\n        /* \"#utility.yul\":5892:5944   */\n      tag_332\n        /* \"#utility.yul\":5937:5943   */\n      dup2\n        /* \"#utility.yul\":5932:5935   */\n      dup6\n        /* \"#utility.yul\":5925:5929   */\n      0x20\n        /* \"#utility.yul\":5918:5923   */\n      dup7\n        /* \"#utility.yul\":5914:5930   */\n      add\n        /* \"#utility.yul\":5892:5944   */\n      tag_324\n      jump\t// in\n    tag_332:\n        /* \"#utility.yul\":5969:5998   */\n      tag_333\n        /* \"#utility.yul\":5991:5997   */\n      dup2\n        /* \"#utility.yul\":5969:5998   */\n      tag_326\n      jump\t// in\n    tag_333:\n        /* \"#utility.yul\":5964:5967   */\n      dup5\n        /* \"#utility.yul\":5960:5999   */\n      add\n        /* \"#utility.yul\":5953:5999   */\n      swap2\n      pop\n        /* \"#utility.yul\":5733:6005   */\n      pop\n        /* \"#utility.yul\":5641:6005   */\n      swap3\n      swap2\n      pop\n      pop\n      jump\t// out\n        /* \"#utility.yul\":6011:6377   */\n    tag_334:\n        /* \"#utility.yul\":6153:6156   */\n      0x00\n        /* \"#utility.yul\":6174:6241   */\n      tag_336\n        /* \"#utility.yul\":6238:6240   */\n      0x1f\n        /* \"#utility.yul\":6233:6236   */\n      dup4\n        /* \"#utility.yul\":6174:6241   */\n      tag_331\n      jump\t// in\n    tag_336:\n        /* \"#utility.yul\":6167:6241   */\n      swap2\n      pop\n        /* \"#utility.yul\":6250:6343   */\n      tag_337\n        /* \"#utility.yul\":6339:6342   */\n      dup3\n        /* \"#utility.yul\":6250:6343   */\n      tag_338\n      jump\t// in\n    tag_337:\n        /* \"#utility.yul\":6368:6370   */\n      0x20\n        /* \"#utility.yul\":6363:6366   */\n      dup3\n        /* \"#utility.yul\":6359:6371   */\n      add\n        /* \"#utility.yul\":6352:6371   */\n      swap1\n      pop\n        /* \"#utility.yul\":6011:6377   */\n      swap2\n      swap1\n      pop\n      jump\t// out\n        /* \"#utility.yul\":6383:6749   */\n    tag_339:\n        /* \"#utility.yul\":6525:6528   */\n      0x00\n        /* \"#utility.yul\":6546:6613   */\n      tag_341\n        /* \"#utility.yul\":6610:6612   */\n      0x26\n        /* \"#utility.yul\":6605:6608   */\n      dup4\n        /* \"#utility.yul\":6546:6613   */\n      tag_331\n      jump\t// in\n    tag_341:\n        /* \"#utility.yul\":6539:6613   */\n      swap2\n      pop\n        /* \"#utility.yul\":6622:6715   */\n      tag_342\n        /* \"#utility.yul\":6711:6714   */\n      dup3\n        /* \"#utility.yul\":6622:6715   */\n      tag_343\n      jump\t// in\n    tag_342:\n        /* \"#utility.yul\":6740:6742   */\n      0x40\n        /* \"#utility.yul\":6735:6738   */\n      dup3\n        /* \"#utility.yul\":6731:6743   */\n      add\n        /* \"#utility.yul\":6724:6743   */\n      swap1\n      pop\n        /* \"#utility.yul\":6383:6749   */\n      swap2\n      swap1\n      pop\n      jump\t// out\n        /* \"#utility.yul\":6755:7121   */\n    tag_344:\n        /* \"#utility.yul\":6897:6900   */\n      0x00\n        /* \"#utility.yul\":6918:6985   */\n      tag_346\n        /* \"#utility.yul\":6982:6984   */\n      0x1c\n        /* \"#utility.yul\":6977:6980   */\n      dup4\n        /* \"#utility.yul\":6918:6985   */\n      tag_331\n      jump\t// in\n    tag_346:\n        /* \"#utility.yul\":6911:6985   */\n      swap2\n      pop\n        /* \"#utility.yul\":6994:7087   */\n      tag_347\n        /* \"#utility.yul\":7083:7086   */\n      dup3\n        /* \"#utility.yul\":6994:7087   */\n      tag_348\n      jump\t// in\n    tag_347:\n        /* \"#utility.yul\":7112:7114   */\n      0x20\n        /* \"#utility.yul\":7107:7110   */\n      dup3\n        /* \"#utility.yul\":7103:7115   */\n      add\n        /* \"#utility.yul\":7096:7115   */\n      swap1\n      pop\n        /* \"#utility.yul\":6755:7121   */\n      swap2\n      swap1\n      pop\n      jump\t// out\n        /* \"#utility.yul\":7127:7493   */\n    tag_349:\n        /* \"#utility.yul\":7269:7272   */\n      0x00\n        /* \"#utility.yul\":7290:7357   */\n      tag_351\n        /* \"#utility.yul\":7354:7356   */\n      0x15\n        /* \"#utility.yul\":7349:7352   */\n      dup4\n        /* \"#utility.yul\":7290:7357   */\n      tag_331\n      jump\t// in\n    tag_351:\n        /* \"#utility.yul\":7283:7357   */\n      swap2\n      pop\n        /* \"#utility.yul\":7366:7459   */\n      tag_352\n        /* \"#utility.yul\":7455:7458   */\n      dup3\n        /* \"#utility.yul\":7366:7459   */\n      tag_353\n      jump\t// in\n    tag_352:\n        /* \"#utility.yul\":7484:7486   */\n      0x20\n        /* \"#utility.yul\":7479:7482   */\n      dup3\n        /* \"#utility.yul\":7475:7487   */\n      add\n        /* \"#utility.yul\":7468:7487   */\n      swap1\n      pop\n        /* \"#utility.yul\":7127:7493   */\n      swap2\n      swap1\n      pop\n      jump\t// out\n        /* \"#utility.yul\":7499:7865   */\n    tag_354:\n        /* \"#utility.yul\":7641:7644   */\n      0x00\n        /* \"#utility.yul\":7662:7729   */\n      tag_356\n        /* \"#utility.yul\":7726:7728   */\n      0x1e\n        /* \"#utility.yul\":7721:7724   */\n      dup4\n        /* \"#utility.yul\":7662:7729   */\n      tag_331\n      jump\t// in\n    tag_356:\n        /* \"#utility.yul\":7655:7729   */\n      swap2\n      pop\n        /* \"#utility.yul\":7738:7831   */\n      tag_357\n        /* \"#utility.yul\":7827:7830   */\n      dup3\n        /* \"#utility.yul\":7738:7831   */\n      tag_358\n      jump\t// in\n    tag_357:\n        /* \"#utility.yul\":7856:7858   */\n      0x20\n        /* \"#utility.yul\":7851:7854   */\n      dup3\n        /* \"#utility.yul\":7847:7859   */\n      add\n        /* \"#utility.yul\":7840:7859   */\n      swap1\n      pop\n        /* \"#utility.yul\":7499:7865   */\n      swap2\n      swap1\n      pop\n      jump\t// out\n        /* \"#utility.yul\":7871:8237   */\n    tag_359:\n        /* \"#utility.yul\":8013:8016   */\n      0x00\n        /* \"#utility.yul\":8034:8101   */\n      tag_361\n        /* \"#utility.yul\":8098:8100   */\n      0x24\n        /* \"#utility.yul\":8093:8096   */\n      dup4\n        /* \"#utility.yul\":8034:8101   */\n      tag_331\n      jump\t// in\n    tag_361:\n        /* \"#utility.yul\":8027:8101   */\n      swap2\n      pop\n        /* \"#utility.yul\":8110:8203   */\n      tag_362\n        /* \"#utility.yul\":8199:8202   */\n      dup3\n        /* \"#utility.yul\":8110:8203   */\n      tag_363\n      jump\t// in\n    tag_362:\n        /* \"#utility.yul\":8228:8230   */\n      0x40\n        /* \"#utility.yul\":8223:8226   */\n      dup3\n        /* \"#utility.yul\":8219:8231   */\n      add\n        /* \"#utility.yul\":8212:8231   */\n      swap1\n      pop\n        /* \"#utility.yul\":7871:8237   */\n      swap2\n      swap1\n      pop\n      jump\t// out\n        /* \"#utility.yul\":8243:8609   */\n    tag_364:\n        /* \"#utility.yul\":8385:8388   */\n      0x00\n        /* \"#utility.yul\":8406:8473   */\n      tag_366\n        /* \"#utility.yul\":8470:8472   */\n      0x28\n        /* \"#utility.yul\":8465:8468   */\n      dup4\n        /* \"#utility.yul\":8406:8473   */\n      tag_331\n      jump\t// in\n    tag_366:\n        /* \"#utility.yul\":8399:8473   */\n      swap2\n      pop\n        /* \"#utility.yul\":8482:8575   */\n      tag_367\n        /* \"#utility.yul\":8571:8574   */\n      dup3\n        /* \"#utility.yul\":8482:8575   */\n      tag_368\n      jump\t// in\n    tag_367:\n        /* \"#utility.yul\":8600:8602   */\n      0x40\n        /* \"#utility.yul\":8595:8598   */\n      dup3\n        /* \"#utility.yul\":8591:8603   */\n      add\n        /* \"#utility.yul\":8584:8603   */\n      swap1\n      pop\n        /* \"#utility.yul\":8243:8609   */\n      swap2\n      swap1\n      pop\n      jump\t// out\n        /* \"#utility.yul\":8615:8981   */\n    tag_369:\n        /* \"#utility.yul\":8757:8760   */\n      0x00\n        /* \"#utility.yul\":8778:8845   */\n      tag_371\n        /* \"#utility.yul\":8842:8844   */\n      0x14\n        /* \"#utility.yul\":8837:8840   */\n      dup4\n        /* \"#utility.yul\":8778:8845   */\n      tag_331\n      jump\t// in\n    tag_371:\n        /* \"#utility.yul\":8771:8845   */\n      swap2\n      pop\n        /* \"#utility.yul\":8854:8947   */\n      tag_372\n        /* \"#utility.yul\":8943:8946   */\n      dup3\n        /* \"#utility.yul\":8854:8947   */\n      tag_373\n      jump\t// in\n    tag_372:\n        /* \"#utility.yul\":8972:8974   */\n      0x20\n        /* \"#utility.yul\":8967:8970   */\n      dup3\n        /* \"#utility.yul\":8963:8975   */\n      add\n        /* \"#utility.yul\":8956:8975   */\n      swap1\n      pop\n        /* \"#utility.yul\":8615:8981   */\n      swap2\n      swap1\n      pop\n      jump\t// out\n        /* \"#utility.yul\":8987:9353   */\n    tag_374:\n        /* \"#utility.yul\":9129:9132   */\n      0x00\n        /* \"#utility.yul\":9150:9217   */\n      tag_376\n        /* \"#utility.yul\":9214:9216   */\n      0x20\n        /* \"#utility.yul\":9209:9212   */\n      dup4\n        /* \"#utility.yul\":9150:9217   */\n      tag_331\n      jump\t// in\n    tag_376:\n        /* \"#utility.yul\":9143:9217   */\n      swap2\n      pop\n        /* \"#utility.yul\":9226:9319   */\n      tag_377\n        /* \"#utility.yul\":9315:9318   */\n      dup3\n        /* \"#utility.yul\":9226:9319   */\n      tag_378\n      jump\t// in\n    tag_377:\n        /* \"#utility.yul\":9344:9346   */\n      0x20\n        /* \"#utility.yul\":9339:9342   */\n      dup3\n        /* \"#utility.yul\":9335:9347   */\n      add\n        /* \"#utility.yul\":9328:9347   */\n      swap1\n      pop\n        /* \"#utility.yul\":8987:9353   */\n      swap2\n      swap1\n      pop\n      jump\t// out\n        /* \"#utility.yul\":9359:9725   */\n    tag_379:\n        /* \"#utility.yul\":9501:9504   */\n      0x00\n        /* \"#utility.yul\":9522:9589   */\n      tag_381\n        /* \"#utility.yul\":9586:9588   */\n      0x12\n        /* \"#utility.yul\":9581:9584   */\n      dup4\n        /* \"#utility.yul\":9522:9589   */\n      tag_331\n      jump\t// in\n    tag_381:\n        /* \"#utility.yul\":9515:9589   */\n      swap2\n      pop\n        /* \"#utility.yul\":9598:9691   */\n      tag_382\n        /* \"#utility.yul\":9687:9690   */\n      dup3\n        /* \"#utility.yul\":9598:9691   */\n      tag_383\n      jump\t// in\n    tag_382:\n        /* \"#utility.yul\":9716:9718   */\n      0x20\n        /* \"#utility.yul\":9711:9714   */\n      dup3\n        /* \"#utility.yul\":9707:9719   */\n      add\n        /* \"#utility.yul\":9700:9719   */\n      swap1\n      pop\n        /* \"#utility.yul\":9359:9725   */\n      swap2\n      swap1\n      pop\n      jump\t// out\n        /* \"#utility.yul\":9731:10097   */\n    tag_384:\n        /* \"#utility.yul\":9873:9876   */\n      0x00\n        /* \"#utility.yul\":9894:9961   */\n      tag_386\n        /* \"#utility.yul\":9958:9960   */\n      0x25\n        /* \"#utility.yul\":9953:9956   */\n      dup4\n        /* \"#utility.yul\":9894:9961   */\n      tag_331\n      jump\t// in\n    tag_386:\n        /* \"#utility.yul\":9887:9961   */\n      swap2\n      pop\n        /* \"#utility.yul\":9970:10063   */\n      tag_387\n        /* \"#utility.yul\":10059:10062   */\n      dup3\n        /* \"#utility.yul\":9970:10063   */\n      tag_388\n      jump\t// in\n    tag_387:\n        /* \"#utility.yul\":10088:10090   */\n      0x40\n        /* \"#utility.yul\":10083:10086   */\n      dup3\n        /* \"#utility.yul\":10079:10091   */\n      add\n        /* \"#utility.yul\":10072:10091   */\n      swap1\n      pop\n        /* \"#utility.yul\":9731:10097   */\n      swap2\n      swap1\n      pop\n      jump\t// out\n        /* \"#utility.yul\":10181:11655   */\n    tag_389:\n        /* \"#utility.yul\":10298:10301   */\n      0x00\n        /* \"#utility.yul\":10334:10338   */\n      0xc0\n        /* \"#utility.yul\":10329:10332   */\n      dup4\n        /* \"#utility.yul\":10325:10339   */\n      add\n        /* \"#utility.yul\":10426:10430   */\n      0x00\n        /* \"#utility.yul\":10419:10424   */\n      dup4\n        /* \"#utility.yul\":10415:10431   */\n      add\n        /* \"#utility.yul\":10409:10432   */\n      mload\n        /* \"#utility.yul\":10445:10508   */\n      tag_391\n        /* \"#utility.yul\":10502:10506   */\n      0x00\n        /* \"#utility.yul\":10497:10500   */\n      dup7\n        /* \"#utility.yul\":10493:10507   */\n      add\n        /* \"#utility.yul\":10479:10491   */\n      dup3\n        /* \"#utility.yul\":10445:10508   */\n      tag_392\n      jump\t// in\n    tag_391:\n        /* \"#utility.yul\":10349:10518   */\n      pop\n        /* \"#utility.yul\":10605:10609   */\n      0x20\n        /* \"#utility.yul\":10598:10603   */\n      dup4\n        /* \"#utility.yul\":10594:10610   */\n      add\n        /* \"#utility.yul\":10588:10611   */\n      mload\n        /* \"#utility.yul\":10658:10661   */\n      dup5\n        /* \"#utility.yul\":10652:10656   */\n      dup3\n        /* \"#utility.yul\":10648:10662   */\n      sub\n        /* \"#utility.yul\":10641:10645   */\n      0x20\n        /* \"#utility.yul\":10636:10639   */\n      dup7\n        /* \"#utility.yul\":10632:10646   */\n      add\n        /* \"#utility.yul\":10625:10663   */\n      mstore\n        /* \"#utility.yul\":10684:10757   */\n      tag_393\n        /* \"#utility.yul\":10752:10756   */\n      dup3\n        /* \"#utility.yul\":10738:10750   */\n      dup3\n        /* \"#utility.yul\":10684:10757   */\n      tag_317\n      jump\t// in\n    tag_393:\n        /* \"#utility.yul\":10676:10757   */\n      swap2\n      pop\n        /* \"#utility.yul\":10528:10768   */\n      pop\n        /* \"#utility.yul\":10857:10861   */\n      0x40\n        /* \"#utility.yul\":10850:10855   */\n      dup4\n        /* \"#utility.yul\":10846:10862   */\n      add\n        /* \"#utility.yul\":10840:10863   */\n      mload\n        /* \"#utility.yul\":10910:10913   */\n      dup5\n        /* \"#utility.yul\":10904:10908   */\n      dup3\n        /* \"#utility.yul\":10900:10914   */\n      sub\n        /* \"#utility.yul\":10893:10897   */\n      0x40\n        /* \"#utility.yul\":10888:10891   */\n      dup7\n        /* \"#utility.yul\":10884:10898   */\n      add\n        /* \"#utility.yul\":10877:10915   */\n      mstore\n        /* \"#utility.yul\":10936:11009   */\n      tag_394\n        /* \"#utility.yul\":11004:11008   */\n      dup3\n        /* \"#utility.yul\":10990:11002   */\n      dup3\n        /* \"#utility.yul\":10936:11009   */\n      tag_317\n      jump\t// in\n    tag_394:\n        /* \"#utility.yul\":10928:11009   */\n      swap2\n      pop\n        /* \"#utility.yul\":10778:11020   */\n      pop\n        /* \"#utility.yul\":11105:11109   */\n      0x60\n        /* \"#utility.yul\":11098:11103   */\n      dup4\n        /* \"#utility.yul\":11094:11110   */\n      add\n        /* \"#utility.yul\":11088:11111   */\n      mload\n        /* \"#utility.yul\":11158:11161   */\n      dup5\n        /* \"#utility.yul\":11152:11156   */\n      dup3\n        /* \"#utility.yul\":11148:11162   */\n      sub\n        /* \"#utility.yul\":11141:11145   */\n      0x60\n        /* \"#utility.yul\":11136:11139   */\n      dup7\n        /* \"#utility.yul\":11132:11146   */\n      add\n        /* \"#utility.yul\":11125:11163   */\n      mstore\n        /* \"#utility.yul\":11184:11257   */\n      tag_395\n        /* \"#utility.yul\":11252:11256   */\n      dup3\n        /* \"#utility.yul\":11238:11250   */\n      dup3\n        /* \"#utility.yul\":11184:11257   */\n      tag_317\n      jump\t// in\n    tag_395:\n        /* \"#utility.yul\":11176:11257   */\n      swap2\n      pop\n        /* \"#utility.yul\":11030:11268   */\n      pop\n        /* \"#utility.yul\":11354:11358   */\n      0x80\n        /* \"#utility.yul\":11347:11352   */\n      dup4\n        /* \"#utility.yul\":11343:11359   */\n      add\n        /* \"#utility.yul\":11337:11360   */\n      mload\n        /* \"#utility.yul\":11373:11436   */\n      tag_396\n        /* \"#utility.yul\":11430:11434   */\n      0x80\n        /* \"#utility.yul\":11425:11428   */\n      dup7\n        /* \"#utility.yul\":11421:11435   */\n      add\n        /* \"#utility.yul\":11407:11419   */\n      dup3\n        /* \"#utility.yul\":11373:11436   */\n      tag_310\n      jump\t// in\n    tag_396:\n        /* \"#utility.yul\":11278:11446   */\n      pop\n        /* \"#utility.yul\":11536:11540   */\n      0xa0\n        /* \"#utility.yul\":11529:11534   */\n      dup4\n        /* \"#utility.yul\":11525:11541   */\n      add\n        /* \"#utility.yul\":11519:11542   */\n      mload\n        /* \"#utility.yul\":11555:11618   */\n      tag_397\n        /* \"#utility.yul\":11612:11616   */\n      0xa0\n        /* \"#utility.yul\":11607:11610   */\n      dup7\n        /* \"#utility.yul\":11603:11617   */\n      add\n        /* \"#utility.yul\":11589:11601   */\n      dup3\n        /* \"#utility.yul\":11555:11618   */\n      tag_392\n      jump\t// in\n    tag_397:\n        /* \"#utility.yul\":11456:11628   */\n      pop\n        /* \"#utility.yul\":11645:11649   */\n      dup1\n        /* \"#utility.yul\":11638:11649   */\n      swap2\n      pop\n        /* \"#utility.yul\":10303:11655   */\n      pop\n        /* \"#utility.yul\":10181:11655   */\n      swap3\n      swap2\n      pop\n      pop\n      jump\t// out\n        /* \"#utility.yul\":11733:12388   */\n    tag_281:\n        /* \"#utility.yul\":11860:11864   */\n      0x60\n        /* \"#utility.yul\":11855:11858   */\n      dup3\n        /* \"#utility.yul\":11851:11865   */\n      add\n        /* \"#utility.yul\":11948:11952   */\n      0x00\n        /* \"#utility.yul\":11941:11946   */\n      dup3\n        /* \"#utility.yul\":11937:11953   */\n      add\n        /* \"#utility.yul\":11931:11954   */\n      mload\n        /* \"#utility.yul\":11967:12024   */\n      tag_399\n        /* \"#utility.yul\":12018:12022   */\n      0x00\n        /* \"#utility.yul\":12013:12016   */\n      dup6\n        /* \"#utility.yul\":12009:12023   */\n      add\n        /* \"#utility.yul\":11995:12007   */\n      dup3\n        /* \"#utility.yul\":11967:12024   */\n      tag_303\n      jump\t// in\n    tag_399:\n        /* \"#utility.yul\":11875:12034   */\n      pop\n        /* \"#utility.yul\":12116:12120   */\n      0x20\n        /* \"#utility.yul\":12109:12114   */\n      dup3\n        /* \"#utility.yul\":12105:12121   */\n      add\n        /* \"#utility.yul\":12099:12122   */\n      mload\n        /* \"#utility.yul\":12135:12192   */\n      tag_400\n        /* \"#utility.yul\":12186:12190   */\n      0x20\n        /* \"#utility.yul\":12181:12184   */\n      dup6\n        /* \"#utility.yul\":12177:12191   */\n      add\n        /* \"#utility.yul\":12163:12175   */\n      dup3\n        /* \"#utility.yul\":12135:12192   */\n      tag_303\n      jump\t// in\n    tag_400:\n        /* \"#utility.yul\":12044:12202   */\n      pop\n        /* \"#utility.yul\":12289:12293   */\n      0x40\n        /* \"#utility.yul\":12282:12287   */\n      dup3\n        /* \"#utility.yul\":12278:12294   */\n      add\n        /* \"#utility.yul\":12272:12295   */\n      mload\n        /* \"#utility.yul\":12308:12371   */\n      tag_401\n        /* \"#utility.yul\":12365:12369   */\n      0x40\n        /* \"#utility.yul\":12360:12363   */\n      dup6\n        /* \"#utility.yul\":12356:12370   */\n      add\n        /* \"#utility.yul\":12342:12354   */\n      dup3\n        /* \"#utility.yul\":12308:12371   */\n      tag_282\n      jump\t// in\n    tag_401:\n        /* \"#utility.yul\":12212:12381   */\n      pop\n        /* \"#utility.yul\":11829:12388   */\n      pop\n        /* \"#utility.yul\":11733:12388   */\n      pop\n      pop\n      jump\t// out\n        /* \"#utility.yul\":12394:12502   */\n    tag_392:\n        /* \"#utility.yul\":12471:12495   */\n      tag_403\n        /* \"#utility.yul\":12489:12494   */\n      dup2\n        /* \"#utility.yul\":12471:12495   */\n      tag_404\n      jump\t// in\n    tag_403:\n        /* \"#utility.yul\":12466:12469   */\n      dup3\n        /* \"#utility.yul\":12459:12496   */\n      mstore\n        /* \"#utility.yul\":12394:12502   */\n      pop\n      pop\n      jump\t// out\n        /* \"#utility.yul\":12508:12626   */\n    tag_405:\n        /* \"#utility.yul\":12595:12619   */\n      tag_407\n        /* \"#utility.yul\":12613:12618   */\n      dup2\n        /* \"#utility.yul\":12595:12619   */\n      tag_404\n      jump\t// in\n    tag_407:\n        /* \"#utility.yul\":12590:12593   */\n      dup3\n        /* \"#utility.yul\":12583:12620   */\n      mstore\n        /* \"#utility.yul\":12508:12626   */\n      pop\n      pop\n      jump\t// out\n        /* \"#utility.yul\":12632:12854   */\n    tag_28:\n        /* \"#utility.yul\":12725:12729   */\n      0x00\n        /* \"#utility.yul\":12763:12765   */\n      0x20\n        /* \"#utility.yul\":12752:12761   */\n      dup3\n        /* \"#utility.yul\":12748:12766   */\n      add\n        /* \"#utility.yul\":12740:12766   */\n      swap1\n      pop\n        /* \"#utility.yul\":12776:12847   */\n      tag_409\n        /* \"#utility.yul\":12844:12845   */\n      0x00\n        /* \"#utility.yul\":12833:12842   */\n      dup4\n        /* \"#utility.yul\":12829:12846   */\n      add\n        /* \"#utility.yul\":12820:12826   */\n      dup5\n        /* \"#utility.yul\":12776:12847   */\n      tag_286\n      jump\t// in\n    tag_409:\n        /* \"#utility.yul\":12632:12854   */\n      swap3\n      swap2\n      pop\n      pop\n      jump\t// out\n        /* \"#utility.yul\":12860:13070   */\n    tag_60:\n        /* \"#utility.yul\":12947:12951   */\n      0x00\n        /* \"#utility.yul\":12985:12987   */\n      0x20\n        /* \"#utility.yul\":12974:12983   */\n      dup3\n        /* \"#utility.yul\":12970:12988   */\n      add\n        /* \"#utility.yul\":12962:12988   */\n      swap1\n      pop\n        /* \"#utility.yul\":12998:13063   */\n      tag_411\n        /* \"#utility.yul\":13060:13061   */\n      0x00\n        /* \"#utility.yul\":13049:13058   */\n      dup4\n        /* \"#utility.yul\":13045:13062   */\n      add\n        /* \"#utility.yul\":13036:13042   */\n      dup5\n        /* \"#utility.yul\":12998:13063   */\n      tag_307\n      jump\t// in\n    tag_411:\n        /* \"#utility.yul\":12860:13070   */\n      swap3\n      swap2\n      pop\n      pop\n      jump\t// out\n        /* \"#utility.yul\":13076:13494   */\n    tag_45:\n        /* \"#utility.yul\":13213:13217   */\n      0x00\n        /* \"#utility.yul\":13251:13253   */\n      0x60\n        /* \"#utility.yul\":13240:13249   */\n      dup3\n        /* \"#utility.yul\":13236:13254   */\n      add\n        /* \"#utility.yul\":13228:13254   */\n      swap1\n      pop\n        /* \"#utility.yul\":13264:13329   */\n      tag_413\n        /* \"#utility.yul\":13326:13327   */\n      0x00\n        /* \"#utility.yul\":13315:13324   */\n      dup4\n        /* \"#utility.yul\":13311:13328   */\n      add\n        /* \"#utility.yul\":13302:13308   */\n      dup7\n        /* \"#utility.yul\":13264:13329   */\n      tag_307\n      jump\t// in\n    tag_413:\n        /* \"#utility.yul\":13339:13405   */\n      tag_414\n        /* \"#utility.yul\":13401:13403   */\n      0x20\n        /* \"#utility.yul\":13390:13399   */\n      dup4\n        /* \"#utility.yul\":13386:13404   */\n      add\n        /* \"#utility.yul\":13377:13383   */\n      dup6\n        /* \"#utility.yul\":13339:13405   */\n      tag_307\n      jump\t// in\n    tag_414:\n        /* \"#utility.yul\":13415:13487   */\n      tag_415\n        /* \"#utility.yul\":13483:13485   */\n      0x40\n        /* \"#utility.yul\":13472:13481   */\n      dup4\n        /* \"#utility.yul\":13468:13486   */\n      add\n        /* \"#utility.yul\":13459:13465   */\n      dup5\n        /* \"#utility.yul\":13415:13487   */\n      tag_286\n      jump\t// in\n    tag_415:\n        /* \"#utility.yul\":13076:13494   */\n      swap5\n      swap4\n      pop\n      pop\n      pop\n      pop\n      jump\t// out\n        /* \"#utility.yul\":13500:13906   */\n    tag_76:\n        /* \"#utility.yul\":13631:13635   */\n      0x00\n        /* \"#utility.yul\":13669:13671   */\n      0x60\n        /* \"#utility.yul\":13658:13667   */\n      dup3\n        /* \"#utility.yul\":13654:13672   */\n      add\n        /* \"#utility.yul\":13646:13672   */\n      swap1\n      pop\n        /* \"#utility.yul\":13682:13747   */\n      tag_417\n        /* \"#utility.yul\":13744:13745   */\n      0x00\n        /* \"#utility.yul\":13733:13742   */\n      dup4\n        /* \"#utility.yul\":13729:13746   */\n      add\n        /* \"#utility.yul\":13720:13726   */\n      dup7\n        /* \"#utility.yul\":13682:13747   */\n      tag_307\n      jump\t// in\n    tag_417:\n        /* \"#utility.yul\":13757:13823   */\n      tag_418\n        /* \"#utility.yul\":13819:13821   */\n      0x20\n        /* \"#utility.yul\":13808:13817   */\n      dup4\n        /* \"#utility.yul\":13804:13822   */\n      add\n        /* \"#utility.yul\":13795:13801   */\n      dup6\n        /* \"#utility.yul\":13757:13823   */\n      tag_307\n      jump\t// in\n    tag_418:\n        /* \"#utility.yul\":13833:13899   */\n      tag_419\n        /* \"#utility.yul\":13895:13897   */\n      0x40\n        /* \"#utility.yul\":13884:13893   */\n      dup4\n        /* \"#utility.yul\":13880:13898   */\n      add\n        /* \"#utility.yul\":13871:13877   */\n      dup5\n        /* \"#utility.yul\":13833:13899   */\n      tag_307\n      jump\t// in\n    tag_419:\n        /* \"#utility.yul\":13500:13906   */\n      swap5\n      swap4\n      pop\n      pop\n      pop\n      pop\n      jump\t// out\n        /* \"#utility.yul\":13912:14732   */\n    tag_64:\n        /* \"#utility.yul\":14199:14203   */\n      0x00\n        /* \"#utility.yul\":14237:14239   */\n      0x60\n        /* \"#utility.yul\":14226:14235   */\n      dup3\n        /* \"#utility.yul\":14222:14240   */\n      add\n        /* \"#utility.yul\":14214:14240   */\n      swap1\n      pop\n        /* \"#utility.yul\":14250:14321   */\n      tag_421\n        /* \"#utility.yul\":14318:14319   */\n      0x00\n        /* \"#utility.yul\":14307:14316   */\n      dup4\n        /* \"#utility.yul\":14303:14320   */\n      add\n        /* \"#utility.yul\":14294:14300   */\n      dup7\n        /* \"#utility.yul\":14250:14321   */\n      tag_314\n      jump\t// in\n    tag_421:\n        /* \"#utility.yul\":14368:14377   */\n      dup2\n        /* \"#utility.yul\":14362:14366   */\n      dup2\n        /* \"#utility.yul\":14358:14378   */\n      sub\n        /* \"#utility.yul\":14353:14355   */\n      0x20\n        /* \"#utility.yul\":14342:14351   */\n      dup4\n        /* \"#utility.yul\":14338:14356   */\n      add\n        /* \"#utility.yul\":14331:14379   */\n      mstore\n        /* \"#utility.yul\":14396:14502   */\n      tag_422\n        /* \"#utility.yul\":14497:14501   */\n      dup2\n        /* \"#utility.yul\":14488:14494   */\n      dup6\n        /* \"#utility.yul\":14396:14502   */\n      tag_389\n      jump\t// in\n    tag_422:\n        /* \"#utility.yul\":14388:14502   */\n      swap1\n      pop\n        /* \"#utility.yul\":14549:14558   */\n      dup2\n        /* \"#utility.yul\":14543:14547   */\n      dup2\n        /* \"#utility.yul\":14539:14559   */\n      sub\n        /* \"#utility.yul\":14534:14536   */\n      0x40\n        /* \"#utility.yul\":14523:14532   */\n      dup4\n        /* \"#utility.yul\":14519:14537   */\n      add\n        /* \"#utility.yul\":14512:14560   */\n      mstore\n        /* \"#utility.yul\":14577:14725   */\n      tag_423\n        /* \"#utility.yul\":14720:14724   */\n      dup2\n        /* \"#utility.yul\":14711:14717   */\n      dup5\n        /* \"#utility.yul\":14577:14725   */\n      tag_289\n      jump\t// in\n    tag_423:\n        /* \"#utility.yul\":14569:14725   */\n      swap1\n      pop\n        /* \"#utility.yul\":13912:14732   */\n      swap5\n      swap4\n      pop\n      pop\n      pop\n      pop\n      jump\t// out\n        /* \"#utility.yul\":14738:15051   */\n    tag_36:\n        /* \"#utility.yul\":14851:14855   */\n      0x00\n        /* \"#utility.yul\":14889:14891   */\n      0x20\n        /* \"#utility.yul\":14878:14887   */\n      dup3\n        /* \"#utility.yul\":14874:14892   */\n      add\n        /* \"#utility.yul\":14866:14892   */\n      swap1\n      pop\n        /* \"#utility.yul\":14938:14947   */\n      dup2\n        /* \"#utility.yul\":14932:14936   */\n      dup2\n        /* \"#utility.yul\":14928:14948   */\n      sub\n        /* \"#utility.yul\":14924:14925   */\n      0x00\n        /* \"#utility.yul\":14913:14922   */\n      dup4\n        /* \"#utility.yul\":14909:14926   */\n      add\n        /* \"#utility.yul\":14902:14949   */\n      mstore\n        /* \"#utility.yul\":14966:15044   */\n      tag_425\n        /* \"#utility.yul\":15039:15043   */\n      dup2\n        /* \"#utility.yul\":15030:15036   */\n      dup5\n        /* \"#utility.yul\":14966:15044   */\n      tag_327\n      jump\t// in\n    tag_425:\n        /* \"#utility.yul\":14958:15044   */\n      swap1\n      pop\n        /* \"#utility.yul\":14738:15051   */\n      swap3\n      swap2\n      pop\n      pop\n      jump\t// out\n        /* \"#utility.yul\":15057:15812   */\n    tag_80:\n        /* \"#utility.yul\":15282:15286   */\n      0x00\n        /* \"#utility.yul\":15320:15323   */\n      0xa0\n        /* \"#utility.yul\":15309:15318   */\n      dup3\n        /* \"#utility.yul\":15305:15324   */\n      add\n        /* \"#utility.yul\":15297:15324   */\n      swap1\n      pop\n        /* \"#utility.yul\":15370:15379   */\n      dup2\n        /* \"#utility.yul\":15364:15368   */\n      dup2\n        /* \"#utility.yul\":15360:15380   */\n      sub\n        /* \"#utility.yul\":15356:15357   */\n      0x00\n        /* \"#utility.yul\":15345:15354   */\n      dup4\n        /* \"#utility.yul\":15341:15358   */\n      add\n        /* \"#utility.yul\":15334:15381   */\n      mstore\n        /* \"#utility.yul\":15398:15476   */\n      tag_427\n        /* \"#utility.yul\":15471:15475   */\n      dup2\n        /* \"#utility.yul\":15462:15468   */\n      dup9\n        /* \"#utility.yul\":15398:15476   */\n      tag_327\n      jump\t// in\n    tag_427:\n        /* \"#utility.yul\":15390:15476   */\n      swap1\n      pop\n        /* \"#utility.yul\":15486:15558   */\n      tag_428\n        /* \"#utility.yul\":15554:15556   */\n      0x20\n        /* \"#utility.yul\":15543:15552   */\n      dup4\n        /* \"#utility.yul\":15539:15557   */\n      add\n        /* \"#utility.yul\":15530:15536   */\n      dup8\n        /* \"#utility.yul\":15486:15558   */\n      tag_405\n      jump\t// in\n    tag_428:\n        /* \"#utility.yul\":15568:15640   */\n      tag_429\n        /* \"#utility.yul\":15636:15638   */\n      0x40\n        /* \"#utility.yul\":15625:15634   */\n      dup4\n        /* \"#utility.yul\":15621:15639   */\n      add\n        /* \"#utility.yul\":15612:15618   */\n      dup7\n        /* \"#utility.yul\":15568:15640   */\n      tag_286\n      jump\t// in\n    tag_429:\n        /* \"#utility.yul\":15650:15722   */\n      tag_430\n        /* \"#utility.yul\":15718:15720   */\n      0x60\n        /* \"#utility.yul\":15707:15716   */\n      dup4\n        /* \"#utility.yul\":15703:15721   */\n      add\n        /* \"#utility.yul\":15694:15700   */\n      dup6\n        /* \"#utility.yul\":15650:15722   */\n      tag_405\n      jump\t// in\n    tag_430:\n        /* \"#utility.yul\":15732:15805   */\n      tag_431\n        /* \"#utility.yul\":15800:15803   */\n      0x80\n        /* \"#utility.yul\":15789:15798   */\n      dup4\n        /* \"#utility.yul\":15785:15804   */\n      add\n        /* \"#utility.yul\":15776:15782   */\n      dup5\n        /* \"#utility.yul\":15732:15805   */\n      tag_405\n      jump\t// in\n    tag_431:\n        /* \"#utility.yul\":15057:15812   */\n      swap7\n      swap6\n      pop\n      pop\n      pop\n      pop\n      pop\n      pop\n      jump\t// out\n        /* \"#utility.yul\":15818:16237   */\n    tag_102:\n        /* \"#utility.yul\":15984:15988   */\n      0x00\n        /* \"#utility.yul\":16022:16024   */\n      0x20\n        /* \"#utility.yul\":16011:16020   */\n      dup3\n        /* \"#utility.yul\":16007:16025   */\n      add\n        /* \"#utility.yul\":15999:16025   */\n      swap1\n      pop\n        /* \"#utility.yul\":16071:16080   */\n      dup2\n        /* \"#utility.yul\":16065:16069   */\n      dup2\n        /* \"#utility.yul\":16061:16081   */\n      sub\n        /* \"#utility.yul\":16057:16058   */\n      0x00\n        /* \"#utility.yul\":16046:16055   */\n      dup4\n        /* \"#utility.yul\":16042:16059   */\n      add\n        /* \"#utility.yul\":16035:16082   */\n      mstore\n        /* \"#utility.yul\":16099:16230   */\n      tag_433\n        /* \"#utility.yul\":16225:16229   */\n      dup2\n        /* \"#utility.yul\":16099:16230   */\n      tag_334\n      jump\t// in\n    tag_433:\n        /* \"#utility.yul\":16091:16230   */\n      swap1\n      pop\n        /* \"#utility.yul\":15818:16237   */\n      swap2\n      swap1\n      pop\n      jump\t// out\n        /* \"#utility.yul\":16243:16662   */\n    tag_186:\n        /* \"#utility.yul\":16409:16413   */\n      0x00\n        /* \"#utility.yul\":16447:16449   */\n      0x20\n        /* \"#utility.yul\":16436:16445   */\n      dup3\n        /* \"#utility.yul\":16432:16450   */\n      add\n        /* \"#utility.yul\":16424:16450   */\n      swap1\n      pop\n        /* \"#utility.yul\":16496:16505   */\n      dup2\n        /* \"#utility.yul\":16490:16494   */\n      dup2\n        /* \"#utility.yul\":16486:16506   */\n      sub\n        /* \"#utility.yul\":16482:16483   */\n      0x00\n        /* \"#utility.yul\":16471:16480   */\n      dup4\n        /* \"#utility.yul\":16467:16484   */\n      add\n        /* \"#utility.yul\":16460:16507   */\n      mstore\n        /* \"#utility.yul\":16524:16655   */\n      tag_435\n        /* \"#utility.yul\":16650:16654   */\n      dup2\n        /* \"#utility.yul\":16524:16655   */\n      tag_339\n      jump\t// in\n    tag_435:\n        /* \"#utility.yul\":16516:16655   */\n      swap1\n      pop\n        /* \"#utility.yul\":16243:16662   */\n      swap2\n      swap1\n      pop\n      jump\t// out\n        /* \"#utility.yul\":16668:17087   */\n    tag_123:\n        /* \"#utility.yul\":16834:16838   */\n      0x00\n        /* \"#utility.yul\":16872:16874   */\n      0x20\n        /* \"#utility.yul\":16861:16870   */\n      dup3\n        /* \"#utility.yul\":16857:16875   */\n      add\n        /* \"#utility.yul\":16849:16875   */\n      swap1\n      pop\n        /* \"#utility.yul\":16921:16930   */\n      dup2\n        /* \"#utility.yul\":16915:16919   */\n      dup2\n        /* \"#utility.yul\":16911:16931   */\n      sub\n        /* \"#utility.yul\":16907:16908   */\n      0x00\n        /* \"#utility.yul\":16896:16905   */\n      dup4\n        /* \"#utility.yul\":16892:16909   */\n      add\n        /* \"#utility.yul\":16885:16932   */\n      mstore\n        /* \"#utility.yul\":16949:17080   */\n      tag_437\n        /* \"#utility.yul\":17075:17079   */\n      dup2\n        /* \"#utility.yul\":16949:17080   */\n      tag_344\n      jump\t// in\n    tag_437:\n        /* \"#utility.yul\":16941:17080   */\n      swap1\n      pop\n        /* \"#utility.yul\":16668:17087   */\n      swap2\n      swap1\n      pop\n      jump\t// out\n        /* \"#utility.yul\":17093:17512   */\n    tag_99:\n        /* \"#utility.yul\":17259:17263   */\n      0x00\n        /* \"#utility.yul\":17297:17299   */\n      0x20\n        /* \"#utility.yul\":17286:17295   */\n      dup3\n        /* \"#utility.yul\":17282:17300   */\n      add\n        /* \"#utility.yul\":17274:17300   */\n      swap1\n      pop\n        /* \"#utility.yul\":17346:17355   */\n      dup2\n        /* \"#utility.yul\":17340:17344   */\n      dup2\n        /* \"#utility.yul\":17336:17356   */\n      sub\n        /* \"#utility.yul\":17332:17333   */\n      0x00\n        /* \"#utility.yul\":17321:17330   */\n      dup4\n        /* \"#utility.yul\":17317:17334   */\n      add\n        /* \"#utility.yul\":17310:17357   */\n      mstore\n        /* \"#utility.yul\":17374:17505   */\n      tag_439\n        /* \"#utility.yul\":17500:17504   */\n      dup2\n        /* \"#utility.yul\":17374:17505   */\n      tag_349\n      jump\t// in\n    tag_439:\n        /* \"#utility.yul\":17366:17505   */\n      swap1\n      pop\n        /* \"#utility.yul\":17093:17512   */\n      swap2\n      swap1\n      pop\n      jump\t// out\n        /* \"#utility.yul\":17518:17937   */\n    tag_120:\n        /* \"#utility.yul\":17684:17688   */\n      0x00\n        /* \"#utility.yul\":17722:17724   */\n      0x20\n        /* \"#utility.yul\":17711:17720   */\n      dup3\n        /* \"#utility.yul\":17707:17725   */\n      add\n        /* \"#utility.yul\":17699:17725   */\n      swap1\n      pop\n        /* \"#utility.yul\":17771:17780   */\n      dup2\n        /* \"#utility.yul\":17765:17769   */\n      dup2\n        /* \"#utility.yul\":17761:17781   */\n      sub\n        /* \"#utility.yul\":17757:17758   */\n      0x00\n        /* \"#utility.yul\":17746:17755   */\n      dup4\n        /* \"#utility.yul\":17742:17759   */\n      add\n        /* \"#utility.yul\":17735:17782   */\n      mstore\n        /* \"#utility.yul\":17799:17930   */\n      tag_441\n        /* \"#utility.yul\":17925:17929   */\n      dup2\n        /* \"#utility.yul\":17799:17930   */\n      tag_354\n      jump\t// in\n    tag_441:\n        /* \"#utility.yul\":17791:17930   */\n      swap1\n      pop\n        /* \"#utility.yul\":17518:17937   */\n      swap2\n      swap1\n      pop\n      jump\t// out\n        /* \"#utility.yul\":17943:18362   */\n    tag_105:\n        /* \"#utility.yul\":18109:18113   */\n      0x00\n        /* \"#utility.yul\":18147:18149   */\n      0x20\n        /* \"#utility.yul\":18136:18145   */\n      dup3\n        /* \"#utility.yul\":18132:18150   */\n      add\n        /* \"#utility.yul\":18124:18150   */\n      swap1\n      pop\n        /* \"#utility.yul\":18196:18205   */\n      dup2\n        /* \"#utility.yul\":18190:18194   */\n      dup2\n        /* \"#utility.yul\":18186:18206   */\n      sub\n        /* \"#utility.yul\":18182:18183   */\n      0x00\n        /* \"#utility.yul\":18171:18180   */\n      dup4\n        /* \"#utility.yul\":18167:18184   */\n      add\n        /* \"#utility.yul\":18160:18207   */\n      mstore\n        /* \"#utility.yul\":18224:18355   */\n      tag_443\n        /* \"#utility.yul\":18350:18354   */\n      dup2\n        /* \"#utility.yul\":18224:18355   */\n      tag_359\n      jump\t// in\n    tag_443:\n        /* \"#utility.yul\":18216:18355   */\n      swap1\n      pop\n        /* \"#utility.yul\":17943:18362   */\n      swap2\n      swap1\n      pop\n      jump\t// out\n        /* \"#utility.yul\":18368:18787   */\n    tag_96:\n        /* \"#utility.yul\":18534:18538   */\n      0x00\n        /* \"#utility.yul\":18572:18574   */\n      0x20\n        /* \"#utility.yul\":18561:18570   */\n      dup3\n        /* \"#utility.yul\":18557:18575   */\n      add\n        /* \"#utility.yul\":18549:18575   */\n      swap1\n      pop\n        /* \"#utility.yul\":18621:18630   */\n      dup2\n        /* \"#utility.yul\":18615:18619   */\n      dup2\n        /* \"#utility.yul\":18611:18631   */\n      sub\n        /* \"#utility.yul\":18607:18608   */\n      0x00\n        /* \"#utility.yul\":18596:18605   */\n      dup4\n        /* \"#utility.yul\":18592:18609   */\n      add\n        /* \"#utility.yul\":18585:18632   */\n      mstore\n        /* \"#utility.yul\":18649:18780   */\n      tag_445\n        /* \"#utility.yul\":18775:18779   */\n      dup2\n        /* \"#utility.yul\":18649:18780   */\n      tag_364\n      jump\t// in\n    tag_445:\n        /* \"#utility.yul\":18641:18780   */\n      swap1\n      pop\n        /* \"#utility.yul\":18368:18787   */\n      swap2\n      swap1\n      pop\n      jump\t// out\n        /* \"#utility.yul\":18793:19212   */\n    tag_209:\n        /* \"#utility.yul\":18959:18963   */\n      0x00\n        /* \"#utility.yul\":18997:18999   */\n      0x20\n        /* \"#utility.yul\":18986:18995   */\n      dup3\n        /* \"#utility.yul\":18982:19000   */\n      add\n        /* \"#utility.yul\":18974:19000   */\n      swap1\n      pop\n        /* \"#utility.yul\":19046:19055   */\n      dup2\n        /* \"#utility.yul\":19040:19044   */\n      dup2\n        /* \"#utility.yul\":19036:19056   */\n      sub\n        /* \"#utility.yul\":19032:19033   */\n      0x00\n        /* \"#utility.yul\":19021:19030   */\n      dup4\n        /* \"#utility.yul\":19017:19034   */\n      add\n        /* \"#utility.yul\":19010:19057   */\n      mstore\n        /* \"#utility.yul\":19074:19205   */\n      tag_447\n        /* \"#utility.yul\":19200:19204   */\n      dup2\n        /* \"#utility.yul\":19074:19205   */\n      tag_369\n      jump\t// in\n    tag_447:\n        /* \"#utility.yul\":19066:19205   */\n      swap1\n      pop\n        /* \"#utility.yul\":18793:19212   */\n      swap2\n      swap1\n      pop\n      jump\t// out\n        /* \"#utility.yul\":19218:19637   */\n    tag_158:\n        /* \"#utility.yul\":19384:19388   */\n      0x00\n        /* \"#utility.yul\":19422:19424   */\n      0x20\n        /* \"#utility.yul\":19411:19420   */\n      dup3\n        /* \"#utility.yul\":19407:19425   */\n      add\n        /* \"#utility.yul\":19399:19425   */\n      swap1\n      pop\n        /* \"#utility.yul\":19471:19480   */\n      dup2\n        /* \"#utility.yul\":19465:19469   */\n      dup2\n        /* \"#utility.yul\":19461:19481   */\n      sub\n        /* \"#utility.yul\":19457:19458   */\n      0x00\n        /* \"#utility.yul\":19446:19455   */\n      dup4\n        /* \"#utility.yul\":19442:19459   */\n      add\n        /* \"#utility.yul\":19435:19482   */\n      mstore\n        /* \"#utility.yul\":19499:19630   */\n      tag_449\n        /* \"#utility.yul\":19625:19629   */\n      dup2\n        /* \"#utility.yul\":19499:19630   */\n      tag_374\n      jump\t// in\n    tag_449:\n        /* \"#utility.yul\":19491:19630   */\n      swap1\n      pop\n        /* \"#utility.yul\":19218:19637   */\n      swap2\n      swap1\n      pop\n      jump\t// out\n        /* \"#utility.yul\":19643:20062   */\n    tag_117:\n        /* \"#utility.yul\":19809:19813   */\n      0x00\n        /* \"#utility.yul\":19847:19849   */\n      0x20\n        /* \"#utility.yul\":19836:19845   */\n      dup3\n        /* \"#utility.yul\":19832:19850   */\n      add\n        /* \"#utility.yul\":19824:19850   */\n      swap1\n      pop\n        /* \"#utility.yul\":19896:19905   */\n      dup2\n        /* \"#utility.yul\":19890:19894   */\n      dup2\n        /* \"#utility.yul\":19886:19906   */\n      sub\n        /* \"#utility.yul\":19882:19883   */\n      0x00\n        /* \"#utility.yul\":19871:19880   */\n      dup4\n        /* \"#utility.yul\":19867:19884   */\n      add\n        /* \"#utility.yul\":19860:19907   */\n      mstore\n        /* \"#utility.yul\":19924:20055   */\n      tag_451\n        /* \"#utility.yul\":20050:20054   */\n      dup2\n        /* \"#utility.yul\":19924:20055   */\n      tag_379\n      jump\t// in\n    tag_451:\n        /* \"#utility.yul\":19916:20055   */\n      swap1\n      pop\n        /* \"#utility.yul\":19643:20062   */\n      swap2\n      swap1\n      pop\n      jump\t// out\n        /* \"#utility.yul\":20068:20487   */\n    tag_182:\n        /* \"#utility.yul\":20234:20238   */\n      0x00\n        /* \"#utility.yul\":20272:20274   */\n      0x20\n        /* \"#utility.yul\":20261:20270   */\n      dup3\n        /* \"#utility.yul\":20257:20275   */\n      add\n        /* \"#utility.yul\":20249:20275   */\n      swap1\n      pop\n        /* \"#utility.yul\":20321:20330   */\n      dup2\n        /* \"#utility.yul\":20315:20319   */\n      dup2\n        /* \"#utility.yul\":20311:20331   */\n      sub\n        /* \"#utility.yul\":20307:20308   */\n      0x00\n        /* \"#utility.yul\":20296:20305   */\n      dup4\n        /* \"#utility.yul\":20292:20309   */\n      add\n        /* \"#utility.yul\":20285:20332   */\n      mstore\n        /* \"#utility.yul\":20349:20480   */\n      tag_453\n        /* \"#utility.yul\":20475:20479   */\n      dup2\n        /* \"#utility.yul\":20349:20480   */\n      tag_384\n      jump\t// in\n    tag_453:\n        /* \"#utility.yul\":20341:20480   */\n      swap1\n      pop\n        /* \"#utility.yul\":20068:20487   */\n      swap2\n      swap1\n      pop\n      jump\t// out\n        /* \"#utility.yul\":20493:20715   */\n    tag_52:\n        /* \"#utility.yul\":20586:20590   */\n      0x00\n        /* \"#utility.yul\":20624:20626   */\n      0x20\n        /* \"#utility.yul\":20613:20622   */\n      dup3\n        /* \"#utility.yul\":20609:20627   */\n      add\n        /* \"#utility.yul\":20601:20627   */\n      swap1\n      pop\n        /* \"#utility.yul\":20637:20708   */\n      tag_455\n        /* \"#utility.yul\":20705:20706   */\n      0x00\n        /* \"#utility.yul\":20694:20703   */\n      dup4\n        /* \"#utility.yul\":20690:20707   */\n      add\n        /* \"#utility.yul\":20681:20687   */\n      dup5\n        /* \"#utility.yul\":20637:20708   */\n      tag_405\n      jump\t// in\n    tag_455:\n        /* \"#utility.yul\":20493:20715   */\n      swap3\n      swap2\n      pop\n      pop\n      jump\t// out\n        /* \"#utility.yul\":20721:21769   */\n    tag_56:\n        /* \"#utility.yul\":21014:21018   */\n      0x00\n        /* \"#utility.yul\":21052:21055   */\n      0xc0\n        /* \"#utility.yul\":21041:21050   */\n      dup3\n        /* \"#utility.yul\":21037:21056   */\n      add\n        /* \"#utility.yul\":21029:21056   */\n      swap1\n      pop\n        /* \"#utility.yul\":21066:21137   */\n      tag_457\n        /* \"#utility.yul\":21134:21135   */\n      0x00\n        /* \"#utility.yul\":21123:21132   */\n      dup4\n        /* \"#utility.yul\":21119:21136   */\n      add\n        /* \"#utility.yul\":21110:21116   */\n      dup10\n        /* \"#utility.yul\":21066:21137   */\n      tag_405\n      jump\t// in\n    tag_457:\n        /* \"#utility.yul\":21184:21193   */\n      dup2\n        /* \"#utility.yul\":21178:21182   */\n      dup2\n        /* \"#utility.yul\":21174:21194   */\n      sub\n        /* \"#utility.yul\":21169:21171   */\n      0x20\n        /* \"#utility.yul\":21158:21167   */\n      dup4\n        /* \"#utility.yul\":21154:21172   */\n      add\n        /* \"#utility.yul\":21147:21195   */\n      mstore\n        /* \"#utility.yul\":21212:21290   */\n      tag_458\n        /* \"#utility.yul\":21285:21289   */\n      dup2\n        /* \"#utility.yul\":21276:21282   */\n      dup9\n        /* \"#utility.yul\":21212:21290   */\n      tag_327\n      jump\t// in\n    tag_458:\n        /* \"#utility.yul\":21204:21290   */\n      swap1\n      pop\n        /* \"#utility.yul\":21337:21346   */\n      dup2\n        /* \"#utility.yul\":21331:21335   */\n      dup2\n        /* \"#utility.yul\":21327:21347   */\n      sub\n        /* \"#utility.yul\":21322:21324   */\n      0x40\n        /* \"#utility.yul\":21311:21320   */\n      dup4\n        /* \"#utility.yul\":21307:21325   */\n      add\n        /* \"#utility.yul\":21300:21348   */\n      mstore\n        /* \"#utility.yul\":21365:21443   */\n      tag_459\n        /* \"#utility.yul\":21438:21442   */\n      dup2\n        /* \"#utility.yul\":21429:21435   */\n      dup8\n        /* \"#utility.yul\":21365:21443   */\n      tag_327\n      jump\t// in\n    tag_459:\n        /* \"#utility.yul\":21357:21443   */\n      swap1\n      pop\n        /* \"#utility.yul\":21490:21499   */\n      dup2\n        /* \"#utility.yul\":21484:21488   */\n      dup2\n        /* \"#utility.yul\":21480:21500   */\n      sub\n        /* \"#utility.yul\":21475:21477   */\n      0x60\n        /* \"#utility.yul\":21464:21473   */\n      dup4\n        /* \"#utility.yul\":21460:21478   */\n      add\n        /* \"#utility.yul\":21453:21501   */\n      mstore\n        /* \"#utility.yul\":21518:21596   */\n      tag_460\n        /* \"#utility.yul\":21591:21595   */\n      dup2\n        /* \"#utility.yul\":21582:21588   */\n      dup7\n        /* \"#utility.yul\":21518:21596   */\n      tag_327\n      jump\t// in\n    tag_460:\n        /* \"#utility.yul\":21510:21596   */\n      swap1\n      pop\n        /* \"#utility.yul\":21606:21679   */\n      tag_461\n        /* \"#utility.yul\":21674:21677   */\n      0x80\n        /* \"#utility.yul\":21663:21672   */\n      dup4\n        /* \"#utility.yul\":21659:21678   */\n      add\n        /* \"#utility.yul\":21650:21656   */\n      dup6\n        /* \"#utility.yul\":21606:21679   */\n      tag_314\n      jump\t// in\n    tag_461:\n        /* \"#utility.yul\":21689:21762   */\n      tag_462\n        /* \"#utility.yul\":21757:21760   */\n      0xa0\n        /* \"#utility.yul\":21746:21755   */\n      dup4\n        /* \"#utility.yul\":21742:21761   */\n      add\n        /* \"#utility.yul\":21733:21739   */\n      dup5\n        /* \"#utility.yul\":21689:21762   */\n      tag_405\n      jump\t// in\n    tag_462:\n        /* \"#utility.yul\":20721:21769   */\n      swap8\n      swap7\n      pop\n      pop\n      pop\n      pop\n      pop\n      pop\n      pop\n      jump\t// out\n        /* \"#utility.yul\":21775:21904   */\n    tag_229:\n        /* \"#utility.yul\":21809:21815   */\n      0x00\n        /* \"#utility.yul\":21836:21856   */\n      tag_464\n      tag_465\n      jump\t// in\n    tag_464:\n        /* \"#utility.yul\":21826:21856   */\n      swap1\n      pop\n        /* \"#utility.yul\":21865:21898   */\n      tag_466\n        /* \"#utility.yul\":21893:21897   */\n      dup3\n        /* \"#utility.yul\":21885:21891   */\n      dup3\n        /* \"#utility.yul\":21865:21898   */\n      tag_467\n      jump\t// in\n    tag_466:\n        /* \"#utility.yul\":21775:21904   */\n      swap2\n      swap1\n      pop\n      jump\t// out\n        /* \"#utility.yul\":21910:21985   */\n    tag_465:\n        /* \"#utility.yul\":21943:21949   */\n      0x00\n        /* \"#utility.yul\":21976:21978   */\n      0x40\n        /* \"#utility.yul\":21970:21979   */\n      mload\n        /* \"#utility.yul\":21960:21979   */\n      swap1\n      pop\n        /* \"#utility.yul\":21910:21985   */\n      swap1\n      jump\t// out\n        /* \"#utility.yul\":21991:22299   */\n    tag_228:\n        /* \"#utility.yul\":22053:22057   */\n      0x00\n        /* \"#utility.yul\":22143:22161   */\n      0xffffffffffffffff\n        /* \"#utility.yul\":22135:22141   */\n      dup3\n        /* \"#utility.yul\":22132:22162   */\n      gt\n        /* \"#utility.yul\":22129:22185   */\n      iszero\n      tag_470\n      jumpi\n        /* \"#utility.yul\":22165:22183   */\n      tag_471\n      tag_472\n      jump\t// in\n    tag_471:\n        /* \"#utility.yul\":22129:22185   */\n    tag_470:\n        /* \"#utility.yul\":22203:22232   */\n      tag_473\n        /* \"#utility.yul\":22225:22231   */\n      dup3\n        /* \"#utility.yul\":22203:22232   */\n      tag_326\n      jump\t// in\n    tag_473:\n        /* \"#utility.yul\":22195:22232   */\n      swap1\n      pop\n        /* \"#utility.yul\":22287:22291   */\n      0x20\n        /* \"#utility.yul\":22281:22285   */\n      dup2\n        /* \"#utility.yul\":22277:22292   */\n      add\n        /* \"#utility.yul\":22269:22292   */\n      swap1\n      pop\n        /* \"#utility.yul\":21991:22299   */\n      swap2\n      swap1\n      pop\n      jump\t// out\n        /* \"#utility.yul\":22305:22457   */\n    tag_296:\n        /* \"#utility.yul\":22392:22396   */\n      0x00\n        /* \"#utility.yul\":22415:22418   */\n      dup2\n        /* \"#utility.yul\":22407:22418   */\n      swap1\n      pop\n        /* \"#utility.yul\":22445:22449   */\n      0x20\n        /* \"#utility.yul\":22440:22443   */\n      dup3\n        /* \"#utility.yul\":22436:22450   */\n      add\n        /* \"#utility.yul\":22428:22450   */\n      swap1\n      pop\n        /* \"#utility.yul\":22305:22457   */\n      swap2\n      swap1\n      pop\n      jump\t// out\n        /* \"#utility.yul\":22463:22597   */\n    tag_292:\n        /* \"#utility.yul\":22550:22556   */\n      0x00\n        /* \"#utility.yul\":22584:22589   */\n      dup2\n        /* \"#utility.yul\":22578:22590   */\n      mload\n        /* \"#utility.yul\":22568:22590   */\n      swap1\n      pop\n        /* \"#utility.yul\":22463:22597   */\n      swap2\n      swap1\n      pop\n      jump\t// out\n        /* \"#utility.yul\":22603:22702   */\n    tag_320:\n        /* \"#utility.yul\":22655:22661   */\n      0x00\n        /* \"#utility.yul\":22689:22694   */\n      dup2\n        /* \"#utility.yul\":22683:22695   */\n      mload\n        /* \"#utility.yul\":22673:22695   */\n      swap1\n      pop\n        /* \"#utility.yul\":22603:22702   */\n      swap2\n      swap1\n      pop\n      jump\t// out\n        /* \"#utility.yul\":22708:22841   */\n    tag_302:\n        /* \"#utility.yul\":22798:22802   */\n      0x00\n        /* \"#utility.yul\":22830:22834   */\n      0x20\n        /* \"#utility.yul\":22825:22828   */\n      dup3\n        /* \"#utility.yul\":22821:22835   */\n      add\n        /* \"#utility.yul\":22813:22835   */\n      swap1\n      pop\n        /* \"#utility.yul\":22708:22841   */\n      swap2\n      swap1\n      pop\n      jump\t// out\n        /* \"#utility.yul\":22847:23051   */\n    tag_294:\n        /* \"#utility.yul\":22966:22977   */\n      0x00\n        /* \"#utility.yul\":23000:23006   */\n      dup3\n        /* \"#utility.yul\":22995:22998   */\n      dup3\n        /* \"#utility.yul\":22988:23007   */\n      mstore\n        /* \"#utility.yul\":23040:23044   */\n      0x20\n        /* \"#utility.yul\":23035:23038   */\n      dup3\n        /* \"#utility.yul\":23031:23045   */\n      add\n        /* \"#utility.yul\":23016:23045   */\n      swap1\n      pop\n        /* \"#utility.yul\":22847:23051   */\n      swap3\n      swap2\n      pop\n      pop\n      jump\t// out\n        /* \"#utility.yul\":23057:23216   */\n    tag_322:\n        /* \"#utility.yul\":23131:23142   */\n      0x00\n        /* \"#utility.yul\":23165:23171   */\n      dup3\n        /* \"#utility.yul\":23160:23163   */\n      dup3\n        /* \"#utility.yul\":23153:23172   */\n      mstore\n        /* \"#utility.yul\":23205:23209   */\n      0x20\n        /* \"#utility.yul\":23200:23203   */\n      dup3\n        /* \"#utility.yul\":23196:23210   */\n      add\n        /* \"#utility.yul\":23181:23210   */\n      swap1\n      pop\n        /* \"#utility.yul\":23057:23216   */\n      swap3\n      swap2\n      pop\n      pop\n      jump\t// out\n        /* \"#utility.yul\":23222:23391   */\n    tag_331:\n        /* \"#utility.yul\":23306:23317   */\n      0x00\n        /* \"#utility.yul\":23340:23346   */\n      dup3\n        /* \"#utility.yul\":23335:23338   */\n      dup3\n        /* \"#utility.yul\":23328:23347   */\n      mstore\n        /* \"#utility.yul\":23380:23384   */\n      0x20\n        /* \"#utility.yul\":23375:23378   */\n      dup3\n        /* \"#utility.yul\":23371:23385   */\n      add\n        /* \"#utility.yul\":23356:23385   */\n      swap1\n      pop\n        /* \"#utility.yul\":23222:23391   */\n      swap3\n      swap2\n      pop\n      pop\n      jump\t// out\n        /* \"#utility.yul\":23397:23702   */\n    tag_126:\n        /* \"#utility.yul\":23437:23440   */\n      0x00\n        /* \"#utility.yul\":23456:23476   */\n      tag_482\n        /* \"#utility.yul\":23474:23475   */\n      dup3\n        /* \"#utility.yul\":23456:23476   */\n      tag_404\n      jump\t// in\n    tag_482:\n        /* \"#utility.yul\":23451:23476   */\n      swap2\n      pop\n        /* \"#utility.yul\":23490:23510   */\n      tag_483\n        /* \"#utility.yul\":23508:23509   */\n      dup4\n        /* \"#utility.yul\":23490:23510   */\n      tag_404\n      jump\t// in\n    tag_483:\n        /* \"#utility.yul\":23485:23510   */\n      swap3\n      pop\n        /* \"#utility.yul\":23644:23645   */\n      dup3\n        /* \"#utility.yul\":23576:23642   */\n      0xffffffffffffffffffffffffffffffffffffffffffffffffffffffffffffffff\n        /* \"#utility.yul\":23572:23646   */\n      sub\n        /* \"#utility.yul\":23569:23570   */\n      dup3\n        /* \"#utility.yul\":23566:23647   */\n      gt\n        /* \"#utility.yul\":23563:23670   */\n      iszero\n      tag_484\n      jumpi\n        /* \"#utility.yul\":23650:23668   */\n      tag_485\n      tag_486\n      jump\t// in\n    tag_485:\n        /* \"#utility.yul\":23563:23670   */\n    tag_484:\n        /* \"#utility.yul\":23694:23695   */\n      dup3\n        /* \"#utility.yul\":23691:23692   */\n      dup3\n        /* \"#utility.yul\":23687:23696   */\n      add\n        /* \"#utility.yul\":23680:23696   */\n      swap1\n      pop\n        /* \"#utility.yul\":23397:23702   */\n      swap3\n      swap2\n      pop\n      pop\n      jump\t// out\n        /* \"#utility.yul\":23708:23893   */\n    tag_188:\n        /* \"#utility.yul\":23748:23749   */\n      0x00\n        /* \"#utility.yul\":23765:23785   */\n      tag_488\n        /* \"#utility.yul\":23783:23784   */\n      dup3\n        /* \"#utility.yul\":23765:23785   */\n      tag_404\n      jump\t// in\n    tag_488:\n        /* \"#utility.yul\":23760:23785   */\n      swap2\n      pop\n        /* \"#utility.yul\":23799:23819   */\n      tag_489\n        /* \"#utility.yul\":23817:23818   */\n      dup4\n        /* \"#utility.yul\":23799:23819   */\n      tag_404\n      jump\t// in\n    tag_489:\n        /* \"#utility.yul\":23794:23819   */\n      swap3\n      pop\n        /* \"#utility.yul\":23838:23839   */\n      dup3\n        /* \"#utility.yul\":23828:23863   */\n      tag_490\n      jumpi\n        /* \"#utility.yul\":23843:23861   */\n      tag_491\n      tag_492\n      jump\t// in\n    tag_491:\n        /* \"#utility.yul\":23828:23863   */\n    tag_490:\n        /* \"#utility.yul\":23885:23886   */\n      dup3\n        /* \"#utility.yul\":23882:23883   */\n      dup3\n        /* \"#utility.yul\":23878:23887   */\n      div\n        /* \"#utility.yul\":23873:23887   */\n      swap1\n      pop\n        /* \"#utility.yul\":23708:23893   */\n      swap3\n      swap2\n      pop\n      pop\n      jump\t// out\n        /* \"#utility.yul\":23899:24247   */\n    tag_190:\n        /* \"#utility.yul\":23939:23946   */\n      0x00\n        /* \"#utility.yul\":23962:23982   */\n      tag_494\n        /* \"#utility.yul\":23980:23981   */\n      dup3\n        /* \"#utility.yul\":23962:23982   */\n      tag_404\n      jump\t// in\n    tag_494:\n        /* \"#utility.yul\":23957:23982   */\n      swap2\n      pop\n        /* \"#utility.yul\":23996:24016   */\n      tag_495\n        /* \"#utility.yul\":24014:24015   */\n      dup4\n        /* \"#utility.yul\":23996:24016   */\n      tag_404\n      jump\t// in\n    tag_495:\n        /* \"#utility.yul\":23991:24016   */\n      swap3\n      pop\n        /* \"#utility.yul\":24184:24185   */\n      dup2\n        /* \"#utility.yul\":24116:24182   */\n      0xffffffffffffffffffffffffffffffffffffffffffffffffffffffffffffffff\n        /* \"#utility.yul\":24112:24186   */\n      div\n        /* \"#utility.yul\":24109:24110   */\n      dup4\n        /* \"#utility.yul\":24106:24187   */\n      gt\n        /* \"#utility.yul\":24101:24102   */\n      dup3\n        /* \"#utility.yul\":24094:24103   */\n      iszero\n        /* \"#utility.yul\":24087:24104   */\n      iszero\n        /* \"#utility.yul\":24083:24188   */\n      and\n        /* \"#utility.yul\":24080:24211   */\n      iszero\n      tag_496\n      jumpi\n        /* \"#utility.yul\":24191:24209   */\n      tag_497\n      tag_486\n      jump\t// in\n    tag_497:\n        /* \"#utility.yul\":24080:24211   */\n    tag_496:\n        /* \"#utility.yul\":24239:24240   */\n      dup3\n        /* \"#utility.yul\":24236:24237   */\n      dup3\n        /* \"#utility.yul\":24232:24241   */\n      mul\n        /* \"#utility.yul\":24221:24241   */\n      swap1\n      pop\n        /* \"#utility.yul\":23899:24247   */\n      swap3\n      swap2\n      pop\n      pop\n      jump\t// out\n        /* \"#utility.yul\":24253:24349   */\n    tag_285:\n        /* \"#utility.yul\":24290:24297   */\n      0x00\n        /* \"#utility.yul\":24319:24343   */\n      tag_499\n        /* \"#utility.yul\":24337:24342   */\n      dup3\n        /* \"#utility.yul\":24319:24343   */\n      tag_500\n      jump\t// in\n    tag_499:\n        /* \"#utility.yul\":24308:24343   */\n      swap1\n      pop\n        /* \"#utility.yul\":24253:24349   */\n      swap2\n      swap1\n      pop\n      jump\t// out\n        /* \"#utility.yul\":24355:24445   */\n    tag_306:\n        /* \"#utility.yul\":24389:24396   */\n      0x00\n        /* \"#utility.yul\":24432:24437   */\n      dup2\n        /* \"#utility.yul\":24425:24438   */\n      iszero\n        /* \"#utility.yul\":24418:24439   */\n      iszero\n        /* \"#utility.yul\":24407:24439   */\n      swap1\n      pop\n        /* \"#utility.yul\":24355:24445   */\n      swap2\n      swap1\n      pop\n      jump\t// out\n        /* \"#utility.yul\":24451:24528   */\n    tag_313:\n        /* \"#utility.yul\":24488:24495   */\n      0x00\n        /* \"#utility.yul\":24517:24522   */\n      dup2\n        /* \"#utility.yul\":24506:24522   */\n      swap1\n      pop\n        /* \"#utility.yul\":24451:24528   */\n      swap2\n      swap1\n      pop\n      jump\t// out\n        /* \"#utility.yul\":24534:24660   */\n    tag_500:\n        /* \"#utility.yul\":24571:24578   */\n      0x00\n        /* \"#utility.yul\":24611:24653   */\n      0xffffffffffffffffffffffffffffffffffffffff\n        /* \"#utility.yul\":24604:24609   */\n      dup3\n        /* \"#utility.yul\":24600:24654   */\n      and\n        /* \"#utility.yul\":24589:24654   */\n      swap1\n      pop\n        /* \"#utility.yul\":24534:24660   */\n      swap2\n      swap1\n      pop\n      jump\t// out\n        /* \"#utility.yul\":24666:24743   */\n    tag_404:\n        /* \"#utility.yul\":24703:24710   */\n      0x00\n        /* \"#utility.yul\":24732:24737   */\n      dup2\n        /* \"#utility.yul\":24721:24737   */\n      swap1\n      pop\n        /* \"#utility.yul\":24666:24743   */\n      swap2\n      swap1\n      pop\n      jump\t// out\n        /* \"#utility.yul\":24749:24835   */\n    tag_505:\n        /* \"#utility.yul\":24784:24791   */\n      0x00\n        /* \"#utility.yul\":24824:24828   */\n      0xff\n        /* \"#utility.yul\":24817:24822   */\n      dup3\n        /* \"#utility.yul\":24813:24829   */\n      and\n        /* \"#utility.yul\":24802:24829   */\n      swap1\n      pop\n        /* \"#utility.yul\":24749:24835   */\n      swap2\n      swap1\n      pop\n      jump\t// out\n        /* \"#utility.yul\":24841:24995   */\n    tag_234:\n        /* \"#utility.yul\":24925:24931   */\n      dup3\n        /* \"#utility.yul\":24920:24923   */\n      dup2\n        /* \"#utility.yul\":24915:24918   */\n      dup4\n        /* \"#utility.yul\":24902:24932   */\n      calldatacopy\n        /* \"#utility.yul\":24987:24988   */\n      0x00\n        /* \"#utility.yul\":24978:24984   */\n      dup4\n        /* \"#utility.yul\":24973:24976   */\n      dup4\n        /* \"#utility.yul\":24969:24985   */\n      add\n        /* \"#utility.yul\":24962:24989   */\n      mstore\n        /* \"#utility.yul\":24841:24995   */\n      pop\n      pop\n      pop\n      jump\t// out\n        /* \"#utility.yul\":25001:25308   */\n    tag_324:\n        /* \"#utility.yul\":25069:25070   */\n      0x00\n        /* \"#utility.yul\":25079:25192   */\n    tag_509:\n        /* \"#utility.yul\":25093:25099   */\n      dup4\n        /* \"#utility.yul\":25090:25091   */\n      dup2\n        /* \"#utility.yul\":25087:25100   */\n      lt\n        /* \"#utility.yul\":25079:25192   */\n      iszero\n      tag_511\n      jumpi\n        /* \"#utility.yul\":25178:25179   */\n      dup1\n        /* \"#utility.yul\":25173:25176   */\n      dup3\n        /* \"#utility.yul\":25169:25180   */\n      add\n        /* \"#utility.yul\":25163:25181   */\n      mload\n        /* \"#utility.yul\":25159:25160   */\n      dup2\n        /* \"#utility.yul\":25154:25157   */\n      dup5\n        /* \"#utility.yul\":25150:25161   */\n      add\n        /* \"#utility.yul\":25143:25182   */\n      mstore\n        /* \"#utility.yul\":25115:25117   */\n      0x20\n        /* \"#utility.yul\":25112:25113   */\n      dup2\n        /* \"#utility.yul\":25108:25118   */\n      add\n        /* \"#utility.yul\":25103:25118   */\n      swap1\n      pop\n        /* \"#utility.yul\":25079:25192   */\n      jump(tag_509)\n    tag_511:\n        /* \"#utility.yul\":25210:25216   */\n      dup4\n        /* \"#utility.yul\":25207:25208   */\n      dup2\n        /* \"#utility.yul\":25204:25217   */\n      gt\n        /* \"#utility.yul\":25201:25302   */\n      iszero\n      tag_512\n      jumpi\n        /* \"#utility.yul\":25290:25291   */\n      0x00\n        /* \"#utility.yul\":25281:25287   */\n      dup5\n        /* \"#utility.yul\":25276:25279   */\n      dup5\n        /* \"#utility.yul\":25272:25288   */\n      add\n        /* \"#utility.yul\":25265:25292   */\n      mstore\n        /* \"#utility.yul\":25201:25302   */\n    tag_512:\n        /* \"#utility.yul\":25050:25308   */\n      pop\n        /* \"#utility.yul\":25001:25308   */\n      pop\n      pop\n      pop\n      jump\t// out\n        /* \"#utility.yul\":25314:25634   */\n    tag_109:\n        /* \"#utility.yul\":25358:25364   */\n      0x00\n        /* \"#utility.yul\":25395:25396   */\n      0x02\n        /* \"#utility.yul\":25389:25393   */\n      dup3\n        /* \"#utility.yul\":25385:25397   */\n      div\n        /* \"#utility.yul\":25375:25397   */\n      swap1\n      pop\n        /* \"#utility.yul\":25442:25443   */\n      0x01\n        /* \"#utility.yul\":25436:25440   */\n      dup3\n        /* \"#utility.yul\":25432:25444   */\n      and\n        /* \"#utility.yul\":25463:25481   */\n      dup1\n        /* \"#utility.yul\":25453:25534   */\n      tag_514\n      jumpi\n        /* \"#utility.yul\":25519:25523   */\n      0x7f\n        /* \"#utility.yul\":25511:25517   */\n      dup3\n        /* \"#utility.yul\":25507:25524   */\n      and\n        /* \"#utility.yul\":25497:25524   */\n      swap2\n      pop\n        /* \"#utility.yul\":25453:25534   */\n    tag_514:\n        /* \"#utility.yul\":25581:25583   */\n      0x20\n        /* \"#utility.yul\":25573:25579   */\n      dup3\n        /* \"#utility.yul\":25570:25584   */\n      lt\n        /* \"#utility.yul\":25550:25568   */\n      dup2\n        /* \"#utility.yul\":25547:25585   */\n      eq\n        /* \"#utility.yul\":25544:25628   */\n      iszero\n      tag_515\n      jumpi\n        /* \"#utility.yul\":25600:25618   */\n      tag_516\n      tag_517\n      jump\t// in\n    tag_516:\n        /* \"#utility.yul\":25544:25628   */\n    tag_515:\n        /* \"#utility.yul\":25365:25634   */\n      pop\n        /* \"#utility.yul\":25314:25634   */\n      swap2\n      swap1\n      pop\n      jump\t// out\n        /* \"#utility.yul\":25640:25921   */\n    tag_467:\n        /* \"#utility.yul\":25723:25750   */\n      tag_519\n        /* \"#utility.yul\":25745:25749   */\n      dup3\n        /* \"#utility.yul\":25723:25750   */\n      tag_326\n      jump\t// in\n    tag_519:\n        /* \"#utility.yul\":25715:25721   */\n      dup2\n        /* \"#utility.yul\":25711:25751   */\n      add\n        /* \"#utility.yul\":25853:25859   */\n      dup2\n        /* \"#utility.yul\":25841:25851   */\n      dup2\n        /* \"#utility.yul\":25838:25860   */\n      lt\n        /* \"#utility.yul\":25817:25835   */\n      0xffffffffffffffff\n        /* \"#utility.yul\":25805:25815   */\n      dup3\n        /* \"#utility.yul\":25802:25836   */\n      gt\n        /* \"#utility.yul\":25799:25861   */\n      or\n        /* \"#utility.yul\":25796:25884   */\n      iszero\n      tag_520\n      jumpi\n        /* \"#utility.yul\":25864:25882   */\n      tag_521\n      tag_472\n      jump\t// in\n    tag_521:\n        /* \"#utility.yul\":25796:25884   */\n    tag_520:\n        /* \"#utility.yul\":25904:25914   */\n      dup1\n        /* \"#utility.yul\":25900:25902   */\n      0x40\n        /* \"#utility.yul\":25893:25915   */\n      mstore\n        /* \"#utility.yul\":25683:25921   */\n      pop\n        /* \"#utility.yul\":25640:25921   */\n      pop\n      pop\n      jump\t// out\n        /* \"#utility.yul\":25927:26094   */\n    tag_205:\n        /* \"#utility.yul\":25964:25967   */\n      0x00\n        /* \"#utility.yul\":25987:26009   */\n      tag_523\n        /* \"#utility.yul\":26003:26008   */\n      dup3\n        /* \"#utility.yul\":25987:26009   */\n      tag_505\n      jump\t// in\n    tag_523:\n        /* \"#utility.yul\":25978:26009   */\n      swap2\n      pop\n        /* \"#utility.yul\":26031:26035   */\n      0xff\n        /* \"#utility.yul\":26024:26029   */\n      dup3\n        /* \"#utility.yul\":26021:26036   */\n      eq\n        /* \"#utility.yul\":26018:26059   */\n      iszero\n      tag_524\n      jumpi\n        /* \"#utility.yul\":26039:26057   */\n      tag_525\n      tag_486\n      jump\t// in\n    tag_525:\n        /* \"#utility.yul\":26018:26059   */\n    tag_524:\n        /* \"#utility.yul\":26086:26087   */\n      0x01\n        /* \"#utility.yul\":26079:26084   */\n      dup3\n        /* \"#utility.yul\":26075:26088   */\n      add\n        /* \"#utility.yul\":26068:26088   */\n      swap1\n      pop\n        /* \"#utility.yul\":25927:26094   */\n      swap2\n      swap1\n      pop\n      jump\t// out\n        /* \"#utility.yul\":26100:26280   */\n    tag_486:\n        /* \"#utility.yul\":26148:26225   */\n      0x4e487b7100000000000000000000000000000000000000000000000000000000\n        /* \"#utility.yul\":26145:26146   */\n      0x00\n        /* \"#utility.yul\":26138:26226   */\n      mstore\n        /* \"#utility.yul\":26245:26249   */\n      0x11\n        /* \"#utility.yul\":26242:26243   */\n      0x04\n        /* \"#utility.yul\":26235:26250   */\n      mstore\n        /* \"#utility.yul\":26269:26273   */\n      0x24\n        /* \"#utility.yul\":26266:26267   */\n      0x00\n        /* \"#utility.yul\":26259:26274   */\n      revert\n        /* \"#utility.yul\":26286:26466   */\n    tag_492:\n        /* \"#utility.yul\":26334:26411   */\n      0x4e487b7100000000000000000000000000000000000000000000000000000000\n        /* \"#utility.yul\":26331:26332   */\n      0x00\n        /* \"#utility.yul\":26324:26412   */\n      mstore\n        /* \"#utility.yul\":26431:26435   */\n      0x12\n        /* \"#utility.yul\":26428:26429   */\n      0x04\n        /* \"#utility.yul\":26421:26436   */\n      mstore\n        /* \"#utility.yul\":26455:26459   */\n      0x24\n        /* \"#utility.yul\":26452:26453   */\n      0x00\n        /* \"#utility.yul\":26445:26460   */\n      revert\n        /* \"#utility.yul\":26472:26652   */\n    tag_517:\n        /* \"#utility.yul\":26520:26597   */\n      0x4e487b7100000000000000000000000000000000000000000000000000000000\n        /* \"#utility.yul\":26517:26518   */\n      0x00\n        /* \"#utility.yul\":26510:26598   */\n      mstore\n        /* \"#utility.yul\":26617:26621   */\n      0x22\n        /* \"#utility.yul\":26614:26615   */\n      0x04\n        /* \"#utility.yul\":26607:26622   */\n      mstore\n        /* \"#utility.yul\":26641:26645   */\n      0x24\n        /* \"#utility.yul\":26638:26639   */\n      0x00\n        /* \"#utility.yul\":26631:26646   */\n      revert\n        /* \"#utility.yul\":26658:26838   */\n    tag_197:\n        /* \"#utility.yul\":26706:26783   */\n      0x4e487b7100000000000000000000000000000000000000000000000000000000\n        /* \"#utility.yul\":26703:26704   */\n      0x00\n        /* \"#utility.yul\":26696:26784   */\n      mstore\n        /* \"#utility.yul\":26803:26807   */\n      0x32\n        /* \"#utility.yul\":26800:26801   */\n      0x04\n        /* \"#utility.yul\":26793:26808   */\n      mstore\n        /* \"#utility.yul\":26827:26831   */\n      0x24\n        /* \"#utility.yul\":26824:26825   */\n      0x00\n        /* \"#utility.yul\":26817:26832   */\n      revert\n        /* \"#utility.yul\":26844:27024   */\n    tag_472:\n        /* \"#utility.yul\":26892:26969   */\n      0x4e487b7100000000000000000000000000000000000000000000000000000000\n        /* \"#utility.yul\":26889:26890   */\n      0x00\n        /* \"#utility.yul\":26882:26970   */\n      mstore\n        /* \"#utility.yul\":26989:26993   */\n      0x41\n        /* \"#utility.yul\":26986:26987   */\n      0x04\n        /* \"#utility.yul\":26979:26994   */\n      mstore\n        /* \"#utility.yul\":27013:27017   */\n      0x24\n        /* \"#utility.yul\":27010:27011   */\n      0x00\n        /* \"#utility.yul\":27003:27018   */\n      revert\n        /* \"#utility.yul\":27030:27147   */\n    tag_247:\n        /* \"#utility.yul\":27139:27140   */\n      0x00\n        /* \"#utility.yul\":27136:27137   */\n      dup1\n        /* \"#utility.yul\":27129:27141   */\n      revert\n        /* \"#utility.yul\":27153:27270   */\n    tag_232:\n        /* \"#utility.yul\":27262:27263   */\n      0x00\n        /* \"#utility.yul\":27259:27260   */\n      dup1\n        /* \"#utility.yul\":27252:27264   */\n      revert\n        /* \"#utility.yul\":27276:27393   */\n    tag_263:\n        /* \"#utility.yul\":27385:27386   */\n      0x00\n        /* \"#utility.yul\":27382:27383   */\n      dup1\n        /* \"#utility.yul\":27375:27387   */\n      revert\n        /* \"#utility.yul\":27399:27516   */\n    tag_256:\n        /* \"#utility.yul\":27508:27509   */\n      0x00\n        /* \"#utility.yul\":27505:27506   */\n      dup1\n        /* \"#utility.yul\":27498:27510   */\n      revert\n        /* \"#utility.yul\":27522:27624   */\n    tag_326:\n        /* \"#utility.yul\":27563:27569   */\n      0x00\n        /* \"#utility.yul\":27614:27616   */\n      0x1f\n        /* \"#utility.yul\":27610:27617   */\n      not\n        /* \"#utility.yul\":27605:27607   */\n      0x1f\n        /* \"#utility.yul\":27598:27603   */\n      dup4\n        /* \"#utility.yul\":27594:27608   */\n      add\n        /* \"#utility.yul\":27590:27618   */\n      and\n        /* \"#utility.yul\":27580:27618   */\n      swap1\n      pop\n        /* \"#utility.yul\":27522:27624   */\n      swap2\n      swap1\n      pop\n      jump\t// out\n        /* \"#utility.yul\":27630:27811   */\n    tag_338:\n        /* \"#utility.yul\":27770:27803   */\n      0x526563697069656e7420697320616c7265616479207265676973746572656400\n        /* \"#utility.yul\":27766:27767   */\n      0x00\n        /* \"#utility.yul\":27758:27764   */\n      dup3\n        /* \"#utility.yul\":27754:27768   */\n      add\n        /* \"#utility.yul\":27747:27804   */\n      mstore\n        /* \"#utility.yul\":27630:27811   */\n      pop\n      jump\t// out\n        /* \"#utility.yul\":27817:28042   */\n    tag_343:\n        /* \"#utility.yul\":27957:27991   */\n      0x596f75206172656e277420617574686f72697a6520746f20636f6d70696c6520\n        /* \"#utility.yul\":27953:27954   */\n      0x00\n        /* \"#utility.yul\":27945:27951   */\n      dup3\n        /* \"#utility.yul\":27941:27955   */\n      add\n        /* \"#utility.yul\":27934:27992   */\n      mstore\n        /* \"#utility.yul\":28026:28034   */\n      0x42756e646c650000000000000000000000000000000000000000000000000000\n        /* \"#utility.yul\":28021:28023   */\n      0x20\n        /* \"#utility.yul\":28013:28019   */\n      dup3\n        /* \"#utility.yul\":28009:28024   */\n      add\n        /* \"#utility.yul\":28002:28035   */\n      mstore\n        /* \"#utility.yul\":27817:28042   */\n      pop\n      jump\t// out\n        /* \"#utility.yul\":28048:28226   */\n    tag_348:\n        /* \"#utility.yul\":28188:28218   */\n      0x596f7520616c72656164792073656e74206120726573706f6e73652e00000000\n        /* \"#utility.yul\":28184:28185   */\n      0x00\n        /* \"#utility.yul\":28176:28182   */\n      dup3\n        /* \"#utility.yul\":28172:28186   */\n      add\n        /* \"#utility.yul\":28165:28219   */\n      mstore\n        /* \"#utility.yul\":28048:28226   */\n      pop\n      jump\t// out\n        /* \"#utility.yul\":28232:28403   */\n    tag_353:\n        /* \"#utility.yul\":28372:28395   */\n      0x496e69746961746f722063616e277420766f7465210000000000000000000000\n        /* \"#utility.yul\":28368:28369   */\n      0x00\n        /* \"#utility.yul\":28360:28366   */\n      dup3\n        /* \"#utility.yul\":28356:28370   */\n      add\n        /* \"#utility.yul\":28349:28396   */\n      mstore\n        /* \"#utility.yul\":28232:28403   */\n      pop\n      jump\t// out\n        /* \"#utility.yul\":28409:28589   */\n    tag_358:\n        /* \"#utility.yul\":28549:28581   */\n      0x596f7520617265206e6f74207265676973746572656420746f20766f74650000\n        /* \"#utility.yul\":28545:28546   */\n      0x00\n        /* \"#utility.yul\":28537:28543   */\n      dup3\n        /* \"#utility.yul\":28533:28547   */\n      add\n        /* \"#utility.yul\":28526:28582   */\n      mstore\n        /* \"#utility.yul\":28409:28589   */\n      pop\n      jump\t// out\n        /* \"#utility.yul\":28595:28818   */\n    tag_363:\n        /* \"#utility.yul\":28735:28769   */\n      0x50726f706f73616c206861732072656163686564206974732065787069727920\n        /* \"#utility.yul\":28731:28732   */\n      0x00\n        /* \"#utility.yul\":28723:28729   */\n      dup3\n        /* \"#utility.yul\":28719:28733   */\n      add\n        /* \"#utility.yul\":28712:28770   */\n      mstore\n        /* \"#utility.yul\":28804:28810   */\n      0x6461746500000000000000000000000000000000000000000000000000000000\n        /* \"#utility.yul\":28799:28801   */\n      0x20\n        /* \"#utility.yul\":28791:28797   */\n      dup3\n        /* \"#utility.yul\":28787:28802   */\n      add\n        /* \"#utility.yul\":28780:28811   */\n      mstore\n        /* \"#utility.yul\":28595:28818   */\n      pop\n      jump\t// out\n        /* \"#utility.yul\":28824:29051   */\n    tag_368:\n        /* \"#utility.yul\":28964:28998   */\n      0x4f6e6c7920696e69746961746f722063616e2072656769737465722061207265\n        /* \"#utility.yul\":28960:28961   */\n      0x00\n        /* \"#utility.yul\":28952:28958   */\n      dup3\n        /* \"#utility.yul\":28948:28962   */\n      add\n        /* \"#utility.yul\":28941:28999   */\n      mstore\n        /* \"#utility.yul\":29033:29043   */\n      0x63697069656e742e000000000000000000000000000000000000000000000000\n        /* \"#utility.yul\":29028:29030   */\n      0x20\n        /* \"#utility.yul\":29020:29026   */\n      dup3\n        /* \"#utility.yul\":29016:29031   */\n      add\n        /* \"#utility.yul\":29009:29044   */\n      mstore\n        /* \"#utility.yul\":28824:29051   */\n      pop\n      jump\t// out\n        /* \"#utility.yul\":29057:29227   */\n    tag_373:\n        /* \"#utility.yul\":29197:29219   */\n      0x596f75206172656e277420496e69746961746f72000000000000000000000000\n        /* \"#utility.yul\":29193:29194   */\n      0x00\n        /* \"#utility.yul\":29185:29191   */\n      dup3\n        /* \"#utility.yul\":29181:29195   */\n      add\n        /* \"#utility.yul\":29174:29220   */\n      mstore\n        /* \"#utility.yul\":29057:29227   */\n      pop\n      jump\t// out\n        /* \"#utility.yul\":29233:29415   */\n    tag_378:\n        /* \"#utility.yul\":29373:29407   */\n      0x5665726469637420686173206e6f74206265656e207265616368656420796574\n        /* \"#utility.yul\":29369:29370   */\n      0x00\n        /* \"#utility.yul\":29361:29367   */\n      dup3\n        /* \"#utility.yul\":29357:29371   */\n      add\n        /* \"#utility.yul\":29350:29408   */\n      mstore\n        /* \"#utility.yul\":29233:29415   */\n      pop\n      jump\t// out\n        /* \"#utility.yul\":29421:29589   */\n    tag_383:\n        /* \"#utility.yul\":29561:29581   */\n      0x566f74696e672068617320657870697265640000000000000000000000000000\n        /* \"#utility.yul\":29557:29558   */\n      0x00\n        /* \"#utility.yul\":29549:29555   */\n      dup3\n        /* \"#utility.yul\":29545:29559   */\n      add\n        /* \"#utility.yul\":29538:29582   */\n      mstore\n        /* \"#utility.yul\":29421:29589   */\n      pop\n      jump\t// out\n        /* \"#utility.yul\":29595:29819   */\n    tag_388:\n        /* \"#utility.yul\":29735:29769   */\n      0x436f6e73656e7375732068617320616c7265616479206265656e2063616c6375\n        /* \"#utility.yul\":29731:29732   */\n      0x00\n        /* \"#utility.yul\":29723:29729   */\n      dup3\n        /* \"#utility.yul\":29719:29733   */\n      add\n        /* \"#utility.yul\":29712:29770   */\n      mstore\n        /* \"#utility.yul\":29804:29811   */\n      0x6c61746564000000000000000000000000000000000000000000000000000000\n        /* \"#utility.yul\":29799:29801   */\n      0x20\n        /* \"#utility.yul\":29791:29797   */\n      dup3\n        /* \"#utility.yul\":29787:29802   */\n      add\n        /* \"#utility.yul\":29780:29812   */\n      mstore\n        /* \"#utility.yul\":29595:29819   */\n      pop\n      jump\t// out\n        /* \"#utility.yul\":29825:29947   */\n    tag_238:\n        /* \"#utility.yul\":29898:29922   */\n      tag_548\n        /* \"#utility.yul\":29916:29921   */\n      dup2\n        /* \"#utility.yul\":29898:29922   */\n      tag_285\n      jump\t// in\n    tag_548:\n        /* \"#utility.yul\":29891:29896   */\n      dup2\n        /* \"#utility.yul\":29888:29923   */\n      eq\n        /* \"#utility.yul\":29878:29941   */\n      tag_549\n      jumpi\n        /* \"#utility.yul\":29937:29938   */\n      0x00\n        /* \"#utility.yul\":29934:29935   */\n      dup1\n        /* \"#utility.yul\":29927:29939   */\n      revert\n        /* \"#utility.yul\":29878:29941   */\n    tag_549:\n        /* \"#utility.yul\":29825:29947   */\n      pop\n      jump\t// out\n        /* \"#utility.yul\":29953:30075   */\n    tag_242:\n        /* \"#utility.yul\":30026:30050   */\n      tag_551\n        /* \"#utility.yul\":30044:30049   */\n      dup2\n        /* \"#utility.yul\":30026:30050   */\n      tag_313\n      jump\t// in\n    tag_551:\n        /* \"#utility.yul\":30019:30024   */\n      dup2\n        /* \"#utility.yul\":30016:30051   */\n      eq\n        /* \"#utility.yul\":30006:30069   */\n      tag_552\n      jumpi\n        /* \"#utility.yul\":30065:30066   */\n      0x00\n        /* \"#utility.yul\":30062:30063   */\n      dup1\n        /* \"#utility.yul\":30055:30067   */\n      revert\n        /* \"#utility.yul\":30006:30069   */\n    tag_552:\n        /* \"#utility.yul\":29953:30075   */\n      pop\n      jump\t// out\n        /* \"#utility.yul\":30081:30203   */\n    tag_252:\n        /* \"#utility.yul\":30154:30178   */\n      tag_554\n        /* \"#utility.yul\":30172:30177   */\n      dup2\n        /* \"#utility.yul\":30154:30178   */\n      tag_404\n      jump\t// in\n    tag_554:\n        /* \"#utility.yul\":30147:30152   */\n      dup2\n        /* \"#utility.yul\":30144:30179   */\n      eq\n        /* \"#utility.yul\":30134:30197   */\n      tag_555\n      jumpi\n        /* \"#utility.yul\":30193:30194   */\n      0x00\n        /* \"#utility.yul\":30190:30191   */\n      dup1\n        /* \"#utility.yul\":30183:30195   */\n      revert\n        /* \"#utility.yul\":30134:30197   */\n    tag_555:\n        /* \"#utility.yul\":30081:30203   */\n      pop\n      jump\t// out\n\n    auxdata: 0xa26469706673582212206413e733389c43a90788c9a78a4e5d72a1dcde0adeb43fc136b85522b02d753564736f6c63430008070033\n}\n",
				"bytecode": {
					"linkReferences": {},
					"object": "60806040523480156200001157600080fd5b50604051620033b1380380620033b1833981810160405281019062000037919062000333565b33600160006101000a81548173ffffffffffffffffffffffffffffffffffffffff021916908373ffffffffffffffffffffffffffffffffffffffff16021790555084426200008691906200048b565b6003819055508360048190555060006005819055506000600660006101000a81548160ff0219169083151502179055507f52656a6563746564000000000000000000000000000000000000000000000000600781905550306000806101000a81548173ffffffffffffffffffffffffffffffffffffffff021916908373ffffffffffffffffffffffffffffffffffffffff1602179055506040518060c001604052806000815260200187815260200182815260200183815260200184815260200186815250600a60008201518160000155602082015181600101908051906020019062000175929190620001d7565b50604082015181600201908051906020019062000194929190620001d7565b506060820151816003019080519060200190620001b3929190620001d7565b506080820151816004015560a0820151816005015590505050505050505062000684565b828054620001e59062000532565b90600052602060002090601f01602090048101928262000209576000855562000255565b82601f106200022457805160ff191683800117855562000255565b8280016001018555821562000255579182015b828111156200025457825182559160200191906001019062000237565b5b50905062000264919062000268565b5090565b5b808211156200028357600081600090555060010162000269565b5090565b60006200029e620002988462000455565b6200042c565b905082815260208101848484011115620002bd57620002bc62000630565b5b620002ca848285620004fc565b509392505050565b600081519050620002e38162000650565b92915050565b600082601f8301126200030157620003006200062b565b5b81516200031384826020860162000287565b91505092915050565b6000815190506200032d816200066a565b92915050565b60008060008060008060c087890312156200035357620003526200063a565b5b600087015167ffffffffffffffff81111562000374576200037362000635565b5b6200038289828a01620002e9565b96505060206200039589828a016200031c565b9550506040620003a889828a016200031c565b9450506060620003bb89828a01620002d2565b935050608087015167ffffffffffffffff811115620003df57620003de62000635565b5b620003ed89828a01620002e9565b92505060a087015167ffffffffffffffff81111562000411576200041062000635565b5b6200041f89828a01620002e9565b9150509295509295509295565b6000620004386200044b565b905062000446828262000568565b919050565b6000604051905090565b600067ffffffffffffffff821115620004735762000472620005fc565b5b6200047e826200063f565b9050602081019050919050565b60006200049882620004f2565b9150620004a583620004f2565b9250827fffffffffffffffffffffffffffffffffffffffffffffffffffffffffffffffff03821115620004dd57620004dc6200059e565b5b828201905092915050565b6000819050919050565b6000819050919050565b60005b838110156200051c578082015181840152602081019050620004ff565b838111156200052c576000848401525b50505050565b600060028204905060018216806200054b57607f821691505b60208210811415620005625762000561620005cd565b5b50919050565b62000573826200063f565b810181811067ffffffffffffffff82111715620005955762000594620005fc565b5b80604052505050565b7f4e487b7100000000000000000000000000000000000000000000000000000000600052601160045260246000fd5b7f4e487b7100000000000000000000000000000000000000000000000000000000600052602260045260246000fd5b7f4e487b7100000000000000000000000000000000000000000000000000000000600052604160045260246000fd5b600080fd5b600080fd5b600080fd5b600080fd5b6000601f19601f8301169050919050565b6200065b81620004e8565b81146200066757600080fd5b50565b6200067581620004f2565b81146200068157600080fd5b50565b612d1d80620006946000396000f3fe608060405234801561001057600080fd5b506004361061010b5760003560e01c8063760297e9116100a25780639d6a3125116100715780639d6a3125146102a1578063a5ea11da146102d3578063d77aa749146102f5578063da58c7d914610313578063f6b4dfb4146103455761010b565b8063760297e914610227578063823167451461024557806395b02dfa146102655780639aa4bbdd1461026f5761010b565b80635361a0ea116100de5780635361a0ea146101965780635c39fcc1146101c85780637403c5e5146101e6578063753ec103146102045761010b565b80630cb6aaf11461011057806315fe6f1b1461014057806319eb4a901461015c578063323082d71461017a575b600080fd5b61012a60048036038101906101259190611f2f565b610363565b6040516101379190612316565b60405180910390f35b61015a60048036038101906101559190611e36565b6103a2565b005b610164610744565b60405161017191906123ff565b60405180910390f35b610194600480360381019061018f9190611e63565b6107d9565b005b6101b060048036038101906101ab9190611e36565b610f7c565b6040516101bf9392919061234c565b60405180910390f35b6101d0611091565b6040516101dd9190612316565b60405180910390f35b6101ee6110b7565b6040516101fb91906125db565b60405180910390f35b61020c6110bd565b60405161021e969594939291906125f6565b60405180910390f35b61022f61127f565b60405161023c9190612331565b60405180910390f35b61024d611296565b60405161025c939291906123ba565b60405180910390f35b61026d6115bc565b005b61028960048036038101906102849190611e36565b611a22565b6040516102989392919061234c565b60405180910390f35b6102bb60048036038101906102b69190611eac565b611a86565b6040516102ca93929190612383565b60405180910390f35b6102db611bde565b6040516102ec959493929190612421565b60405180910390f35b6102fd611cb4565b60405161030a91906125db565b60405180910390f35b61032d60048036038101906103289190611f2f565b611cba565b60405161033c9392919061234c565b60405180910390f35b61034d611d2a565b60405161035a9190612316565b60405180910390f35b6002818154811061037357600080fd5b906000526020600020016000915054906101000a900473ffffffffffffffffffffffffffffffffffffffff1681565b600160009054906101000a900473ffffffffffffffffffffffffffffffffffffffff1673ffffffffffffffffffffffffffffffffffffffff163373ffffffffffffffffffffffffffffffffffffffff1614610432576040517f08c379a00000000000000000000000000000000000000000000000000000000081526004016104299061253b565b60405180910390fd5b600160009054906101000a900473ffffffffffffffffffffffffffffffffffffffff1673ffffffffffffffffffffffffffffffffffffffff168173ffffffffffffffffffffffffffffffffffffffff1614156104c3576040517f08c379a00000000000000000000000000000000000000000000000000000000081526004016104ba906124db565b60405180910390fd5b600073ffffffffffffffffffffffffffffffffffffffff16600960008373ffffffffffffffffffffffffffffffffffffffff1673ffffffffffffffffffffffffffffffffffffffff16815260200190815260200160002060000160029054906101000a900473ffffffffffffffffffffffffffffffffffffffff1673ffffffffffffffffffffffffffffffffffffffff1614610594576040517f08c379a000000000000000000000000000000000000000000000000000000000815260040161058b9061247b565b60405180910390fd5b60035442106105d8576040517f08c379a00000000000000000000000000000000000000000000000000000000081526004016105cf9061251b565b60405180910390fd5b600060405180606001604052806000151581526020016000151581526020018373ffffffffffffffffffffffffffffffffffffffff16815250905080600960008473ffffffffffffffffffffffffffffffffffffffff1673ffffffffffffffffffffffffffffffffffffffff16815260200190815260200160002060008201518160000160006101000a81548160ff02191690831515021790555060208201518160000160016101000a81548160ff02191690831515021790555060408201518160000160026101000a81548173ffffffffffffffffffffffffffffffffffffffff021916908373ffffffffffffffffffffffffffffffffffffffff1602179055509050506002829080600181540180825580915050600190039060005260206000200160009091909190916101000a81548173ffffffffffffffffffffffffffffffffffffffff021916908373ffffffffffffffffffffffffffffffffffffffff1602179055505050565b6060600a6001018054610756906128aa565b80601f0160208091040260200160405190810160405280929190818152602001828054610782906128aa565b80156107cf5780601f106107a4576101008083540402835291602001916107cf565b820191906000526020600020905b8154815290600101906020018083116107b257829003601f168201915b5050505050905090565b600354421061081d576040517f08c379a00000000000000000000000000000000000000000000000000000000081526004016108149061259b565b60405180910390fd5b600073ffffffffffffffffffffffffffffffffffffffff16600960003373ffffffffffffffffffffffffffffffffffffffff1673ffffffffffffffffffffffffffffffffffffffff16815260200190815260200160002060000160029054906101000a900473ffffffffffffffffffffffffffffffffffffffff1673ffffffffffffffffffffffffffffffffffffffff1614156108ef576040517f08c379a00000000000000000000000000000000000000000000000000000000081526004016108e6906124fb565b60405180910390fd5b600960003373ffffffffffffffffffffffffffffffffffffffff1673ffffffffffffffffffffffffffffffffffffffff16815260200190815260200160002060000160009054906101000a900460ff161561097f576040517f08c379a0000000000000000000000000000000000000000000000000000000008152600401610976906124bb565b60405180910390fd5b6040518060400160405280600981526020017f6920617070726f766500000000000000000000000000000000000000000000008152508051906020012081805190602001201415610be5576001600960003373ffffffffffffffffffffffffffffffffffffffff1673ffffffffffffffffffffffffffffffffffffffff16815260200190815260200160002060000160006101000a81548160ff0219169083151502179055506001600960003373ffffffffffffffffffffffffffffffffffffffff1673ffffffffffffffffffffffffffffffffffffffff16815260200190815260200160002060000160016101000a81548160ff021916908315150217905550600160056000828254610a939190612728565b925050819055506001600a6000016000828254610ab09190612728565b925050819055506008600960003373ffffffffffffffffffffffffffffffffffffffff1673ffffffffffffffffffffffffffffffffffffffff168152602001908152602001600020908060018154018082558091505060019003906000526020600020016000909190919091506000820160009054906101000a900460ff168160000160006101000a81548160ff0219169083151502179055506000820160019054906101000a900460ff168160000160016101000a81548160ff0219169083151502179055506000820160029054906101000a900473ffffffffffffffffffffffffffffffffffffffff168160000160026101000a81548173ffffffffffffffffffffffffffffffffffffffff021916908373ffffffffffffffffffffffffffffffffffffffff1602179055505050610f79565b6040518060400160405280600c81526020017f6920646973617070726f766500000000000000000000000000000000000000008152508051906020012081805190602001201415610dd6576001600960003373ffffffffffffffffffffffffffffffffffffffff1673ffffffffffffffffffffffffffffffffffffffff16815260200190815260200160002060000160006101000a81548160ff0219169083151502179055506001600a6000016000828254610ca19190612728565b925050819055506008600960003373ffffffffffffffffffffffffffffffffffffffff1673ffffffffffffffffffffffffffffffffffffffff168152602001908152602001600020908060018154018082558091505060019003906000526020600020016000909190919091506000820160009054906101000a900460ff168160000160006101000a81548160ff0219169083151502179055506000820160019054906101000a900460ff168160000160016101000a81548160ff0219169083151502179055506000820160029054906101000a900473ffffffffffffffffffffffffffffffffffffffff168160000160026101000a81548173ffffffffffffffffffffffffffffffffffffffff021916908373ffffffffffffffffffffffffffffffffffffffff1602179055505050610f78565b6001600960003373ffffffffffffffffffffffffffffffffffffffff1673ffffffffffffffffffffffffffffffffffffffff16815260200190815260200160002060000160006101000a81548160ff0219169083151502179055506001600a6000016000828254610e479190612728565b925050819055506008600960003373ffffffffffffffffffffffffffffffffffffffff1673ffffffffffffffffffffffffffffffffffffffff168152602001908152602001600020908060018154018082558091505060019003906000526020600020016000909190919091506000820160009054906101000a900460ff168160000160006101000a81548160ff0219169083151502179055506000820160019054906101000a900460ff168160000160016101000a81548160ff0219169083151502179055506000820160029054906101000a900473ffffffffffffffffffffffffffffffffffffffff168160000160026101000a81548173ffffffffffffffffffffffffffffffffffffffff021916908373ffffffffffffffffffffffffffffffffffffffff16021790555050505b5b50565b6000806000600960008573ffffffffffffffffffffffffffffffffffffffff1673ffffffffffffffffffffffffffffffffffffffff16815260200190815260200160002060000160019054906101000a900460ff16600960008673ffffffffffffffffffffffffffffffffffffffff1673ffffffffffffffffffffffffffffffffffffffff16815260200190815260200160002060000160009054906101000a900460ff16600960008773ffffffffffffffffffffffffffffffffffffffff1673ffffffffffffffffffffffffffffffffffffffff16815260200190815260200160002060000160029054906101000a900473ffffffffffffffffffffffffffffffffffffffff169250925092509193909250565b600160009054906101000a900473ffffffffffffffffffffffffffffffffffffffff1681565b60055481565b600a8060000154908060010180546110d4906128aa565b80601f0160208091040260200160405190810160405280929190818152602001828054611100906128aa565b801561114d5780601f106111225761010080835404028352916020019161114d565b820191906000526020600020905b81548152906001019060200180831161113057829003601f168201915b505050505090806002018054611162906128aa565b80601f016020809104026020016040519081016040528092919081815260200182805461118e906128aa565b80156111db5780601f106111b0576101008083540402835291602001916111db565b820191906000526020600020905b8154815290600101906020018083116111be57829003601f168201915b5050505050908060030180546111f0906128aa565b80601f016020809104026020016040519081016040528092919081815260200182805461121c906128aa565b80156112695780601f1061123e57610100808354040283529160200191611269565b820191906000526020600020905b81548152906001019060200180831161124c57829003601f168201915b5050505050908060040154908060050154905086565b6000600660009054906101000a900460ff16905090565b60006112a0611d4e565b60606003544210156112e7576040517f08c379a00000000000000000000000000000000000000000000000000000000081526004016112de9061257b565b60405180910390fd5b600754600a6008816040518060c001604052908160008201548152602001600182018054611314906128aa565b80601f0160208091040260200160405190810160405280929190818152602001828054611340906128aa565b801561138d5780601f106113625761010080835404028352916020019161138d565b820191906000526020600020905b81548152906001019060200180831161137057829003601f168201915b505050505081526020016002820180546113a6906128aa565b80601f01602080910402602001604051908101604052809291908181526020018280546113d2906128aa565b801561141f5780601f106113f45761010080835404028352916020019161141f565b820191906000526020600020905b81548152906001019060200180831161140257829003601f168201915b50505050508152602001600382018054611438906128aa565b80601f0160208091040260200160405190810160405280929190818152602001828054611464906128aa565b80156114b15780601f10611486576101008083540402835291602001916114b1565b820191906000526020600020905b81548152906001019060200180831161149457829003601f168201915b5050505050815260200160048201548152602001600582015481525050915080805480602002602001604051908101604052809291908181526020016000905b828210156115ab578382906000526020600020016040518060600160405290816000820160009054906101000a900460ff161515151581526020016000820160019054906101000a900460ff161515151581526020016000820160029054906101000a900473ffffffffffffffffffffffffffffffffffffffff1673ffffffffffffffffffffffffffffffffffffffff1673ffffffffffffffffffffffffffffffffffffffff1681525050815260200190600101906114f1565b505050509050925092509250909192565b600354421015611601576040517f08c379a00000000000000000000000000000000000000000000000000000000081526004016115f89061257b565b60405180910390fd5b60001515600660009054906101000a900460ff16151514611657576040517f08c379a000000000000000000000000000000000000000000000000000000000815260040161164e906125bb565b60405180910390fd5b600160009054906101000a900473ffffffffffffffffffffffffffffffffffffffff1673ffffffffffffffffffffffffffffffffffffffff163373ffffffffffffffffffffffffffffffffffffffff1614806117425750600073ffffffffffffffffffffffffffffffffffffffff16600960003373ffffffffffffffffffffffffffffffffffffffff1673ffffffffffffffffffffffffffffffffffffffff16815260200190815260200160002060000160029054906101000a900473ffffffffffffffffffffffffffffffffffffffff1673ffffffffffffffffffffffffffffffffffffffff1614155b611781576040517f08c379a00000000000000000000000000000000000000000000000000000000081526004016117789061249b565b60405180910390fd5b60006064600280549050600554611798919061277e565b6117a291906127af565b905060045481106117d5577f41636365707465640000000000000000000000000000000000000000000000006007819055505b60005b6002805490508160ff161015611a0357600015156009600060028460ff1681548110611807576118066129c4565b5b9060005260206000200160009054906101000a900473ffffffffffffffffffffffffffffffffffffffff1673ffffffffffffffffffffffffffffffffffffffff1673ffffffffffffffffffffffffffffffffffffffff16815260200190815260200160002060000160009054906101000a900460ff16151514156119f05760086009600060028460ff16815481106118a2576118a16129c4565b5b9060005260206000200160009054906101000a900473ffffffffffffffffffffffffffffffffffffffff1673ffffffffffffffffffffffffffffffffffffffff1673ffffffffffffffffffffffffffffffffffffffff168152602001908152602001600020908060018154018082558091505060019003906000526020600020016000909190919091506000820160009054906101000a900460ff168160000160006101000a81548160ff0219169083151502179055506000820160019054906101000a900460ff168160000160016101000a81548160ff0219169083151502179055506000820160029054906101000a900473ffffffffffffffffffffffffffffffffffffffff168160000160026101000a81548173ffffffffffffffffffffffffffffffffffffffff021916908373ffffffffffffffffffffffffffffffffffffffff16021790555050505b80806119fb9061290d565b9150506117d8565b506001600660006101000a81548160ff02191690831515021790555050565b60096020528060005260406000206000915090508060000160009054906101000a900460ff16908060000160019054906101000a900460ff16908060000160029054906101000a900473ffffffffffffffffffffffffffffffffffffffff16905083565b6000806000600160009054906101000a900473ffffffffffffffffffffffffffffffffffffffff1673ffffffffffffffffffffffffffffffffffffffff163373ffffffffffffffffffffffffffffffffffffffff1614611b1b576040517f08c379a0000000000000000000000000000000000000000000000000000000008152600401611b129061255b565b60405180910390fd5b600060019050600060019050600060019050600073ffffffffffffffffffffffffffffffffffffffff16600160009054906101000a900473ffffffffffffffffffffffffffffffffffffffff1673ffffffffffffffffffffffffffffffffffffffff161415611b97576001806001955095509550505050611bd4565b6004548914611ba557600092505b600a600401548714611bb657600091505b87600a6005015414611bc757600090505b8282829550955095505050505b9450945094915050565b6060600080600080600a600101600354600160009054906101000a900473ffffffffffffffffffffffffffffffffffffffff16600454600554848054611c23906128aa565b80601f0160208091040260200160405190810160405280929190818152602001828054611c4f906128aa565b8015611c9c5780601f10611c7157610100808354040283529160200191611c9c565b820191906000526020600020905b815481529060010190602001808311611c7f57829003601f168201915b50505050509450945094509450945094509091929394565b60045481565b60088181548110611cca57600080fd5b906000526020600020016000915090508060000160009054906101000a900460ff16908060000160019054906101000a900460ff16908060000160029054906101000a900473ffffffffffffffffffffffffffffffffffffffff16905083565b60008054906101000a900473ffffffffffffffffffffffffffffffffffffffff1681565b6040518060c001604052806000815260200160608152602001606081526020016060815260200160008019168152602001600081525090565b6000611d9a611d9584612691565b61266c565b905082815260208101848484011115611db657611db5612a27565b5b611dc1848285612868565b509392505050565b600081359050611dd881612ca2565b92915050565b600081359050611ded81612cb9565b92915050565b600082601f830112611e0857611e07612a22565b5b8135611e18848260208601611d87565b91505092915050565b600081359050611e3081612cd0565b92915050565b600060208284031215611e4c57611e4b612a31565b5b6000611e5a84828501611dc9565b91505092915050565b600060208284031215611e7957611e78612a31565b5b600082013567ffffffffffffffff811115611e9757611e96612a2c565b5b611ea384828501611df3565b91505092915050565b60008060008060808587031215611ec657611ec5612a31565b5b600085013567ffffffffffffffff811115611ee457611ee3612a2c565b5b611ef087828801611df3565b9450506020611f0187828801611e21565b9350506040611f1287828801611e21565b9250506060611f2387828801611dde565b91505092959194509250565b600060208284031215611f4557611f44612a31565b5b6000611f5384828501611e21565b91505092915050565b6000611f6883836122b6565b60608301905092915050565b611f7d81612809565b82525050565b611f8c81612809565b82525050565b6000611f9d826126d2565b611fa781856126f5565b9350611fb2836126c2565b8060005b83811015611fe3578151611fca8882611f5c565b9750611fd5836126e8565b925050600181019050611fb6565b5085935050505092915050565b611ff98161281b565b82525050565b6120088161281b565b82525050565b61201781612827565b82525050565b61202681612827565b82525050565b6000612037826126dd565b6120418185612706565b9350612051818560208601612877565b61205a81612a36565b840191505092915050565b6000612070826126dd565b61207a8185612717565b935061208a818560208601612877565b61209381612a36565b840191505092915050565b60006120ab601f83612717565b91506120b682612a47565b602082019050919050565b60006120ce602683612717565b91506120d982612a70565b604082019050919050565b60006120f1601c83612717565b91506120fc82612abf565b602082019050919050565b6000612114601583612717565b915061211f82612ae8565b602082019050919050565b6000612137601e83612717565b915061214282612b11565b602082019050919050565b600061215a602483612717565b915061216582612b3a565b604082019050919050565b600061217d602883612717565b915061218882612b89565b604082019050919050565b60006121a0601483612717565b91506121ab82612bd8565b602082019050919050565b60006121c3602083612717565b91506121ce82612c01565b602082019050919050565b60006121e6601283612717565b91506121f182612c2a565b602082019050919050565b6000612209602583612717565b915061221482612c53565b604082019050919050565b600060c08301600083015161223760008601826122f8565b506020830151848203602086015261224f828261202c565b91505060408301518482036040860152612269828261202c565b91505060608301518482036060860152612283828261202c565b9150506080830151612298608086018261200e565b5060a08301516122ab60a08601826122f8565b508091505092915050565b6060820160008201516122cc6000850182611ff0565b5060208201516122df6020850182611ff0565b5060408201516122f26040850182611f74565b50505050565b61230181612851565b82525050565b61231081612851565b82525050565b600060208201905061232b6000830184611f83565b92915050565b60006020820190506123466000830184611fff565b92915050565b60006060820190506123616000830186611fff565b61236e6020830185611fff565b61237b6040830184611f83565b949350505050565b60006060820190506123986000830186611fff565b6123a56020830185611fff565b6123b26040830184611fff565b949350505050565b60006060820190506123cf600083018661201d565b81810360208301526123e1818561221f565b905081810360408301526123f58184611f92565b9050949350505050565b600060208201905081810360008301526124198184612065565b905092915050565b600060a082019050818103600083015261243b8188612065565b905061244a6020830187612307565b6124576040830186611f83565b6124646060830185612307565b6124716080830184612307565b9695505050505050565b600060208201905081810360008301526124948161209e565b9050919050565b600060208201905081810360008301526124b4816120c1565b9050919050565b600060208201905081810360008301526124d4816120e4565b9050919050565b600060208201905081810360008301526124f481612107565b9050919050565b600060208201905081810360008301526125148161212a565b9050919050565b600060208201905081810360008301526125348161214d565b9050919050565b6000602082019050818103600083015261255481612170565b9050919050565b6000602082019050818103600083015261257481612193565b9050919050565b60006020820190508181036000830152612594816121b6565b9050919050565b600060208201905081810360008301526125b4816121d9565b9050919050565b600060208201905081810360008301526125d4816121fc565b9050919050565b60006020820190506125f06000830184612307565b92915050565b600060c08201905061260b6000830189612307565b818103602083015261261d8188612065565b905081810360408301526126318187612065565b905081810360608301526126458186612065565b9050612654608083018561201d565b61266160a0830184612307565b979650505050505050565b6000612676612687565b905061268282826128dc565b919050565b6000604051905090565b600067ffffffffffffffff8211156126ac576126ab6129f3565b5b6126b582612a36565b9050602081019050919050565b6000819050602082019050919050565b600081519050919050565b600081519050919050565b6000602082019050919050565b600082825260208201905092915050565b600082825260208201905092915050565b600082825260208201905092915050565b600061273382612851565b915061273e83612851565b9250827fffffffffffffffffffffffffffffffffffffffffffffffffffffffffffffffff0382111561277357612772612937565b5b828201905092915050565b600061278982612851565b915061279483612851565b9250826127a4576127a3612966565b5b828204905092915050565b60006127ba82612851565b91506127c583612851565b9250817fffffffffffffffffffffffffffffffffffffffffffffffffffffffffffffffff04831182151516156127fe576127fd612937565b5b828202905092915050565b600061281482612831565b9050919050565b60008115159050919050565b6000819050919050565b600073ffffffffffffffffffffffffffffffffffffffff82169050919050565b6000819050919050565b600060ff82169050919050565b82818337600083830152505050565b60005b8381101561289557808201518184015260208101905061287a565b838111156128a4576000848401525b50505050565b600060028204905060018216806128c257607f821691505b602082108114156128d6576128d5612995565b5b50919050565b6128e582612a36565b810181811067ffffffffffffffff82111715612904576129036129f3565b5b80604052505050565b60006129188261285b565b915060ff82141561292c5761292b612937565b5b600182019050919050565b7f4e487b7100000000000000000000000000000000000000000000000000000000600052601160045260246000fd5b7f4e487b7100000000000000000000000000000000000000000000000000000000600052601260045260246000fd5b7f4e487b7100000000000000000000000000000000000000000000000000000000600052602260045260246000fd5b7f4e487b7100000000000000000000000000000000000000000000000000000000600052603260045260246000fd5b7f4e487b7100000000000000000000000000000000000000000000000000000000600052604160045260246000fd5b600080fd5b600080fd5b600080fd5b600080fd5b6000601f19601f8301169050919050565b7f526563697069656e7420697320616c7265616479207265676973746572656400600082015250565b7f596f75206172656e277420617574686f72697a6520746f20636f6d70696c652060008201527f42756e646c650000000000000000000000000000000000000000000000000000602082015250565b7f596f7520616c72656164792073656e74206120726573706f6e73652e00000000600082015250565b7f496e69746961746f722063616e277420766f7465210000000000000000000000600082015250565b7f596f7520617265206e6f74207265676973746572656420746f20766f74650000600082015250565b7f50726f706f73616c20686173207265616368656420697473206578706972792060008201527f6461746500000000000000000000000000000000000000000000000000000000602082015250565b7f4f6e6c7920696e69746961746f722063616e207265676973746572206120726560008201527f63697069656e742e000000000000000000000000000000000000000000000000602082015250565b7f596f75206172656e277420496e69746961746f72000000000000000000000000600082015250565b7f5665726469637420686173206e6f74206265656e207265616368656420796574600082015250565b7f566f74696e672068617320657870697265640000000000000000000000000000600082015250565b7f436f6e73656e7375732068617320616c7265616479206265656e2063616c637560008201527f6c61746564000000000000000000000000000000000000000000000000000000602082015250565b612cab81612809565b8114612cb657600080fd5b50565b612cc281612827565b8114612ccd57600080fd5b50565b612cd981612851565b8114612ce457600080fd5b5056fea26469706673582212206413e733389c43a90788c9a78a4e5d72a1dcde0adeb43fc136b85522b02d753564736f6c63430008070033",
					"opcodes": "PUSH1 0x80 PUSH1 0x40 MSTORE CALLVALUE DUP1 ISZERO PUSH3 0x11 JUMPI PUSH1 0x0 DUP1 REVERT JUMPDEST POP PUSH1 0x40 MLOAD PUSH3 0x33B1 CODESIZE SUB DUP1 PUSH3 0x33B1 DUP4 CODECOPY DUP2 DUP2 ADD PUSH1 0x40 MSTORE DUP2 ADD SWAP1 PUSH3 0x37 SWAP2 SWAP1 PUSH3 0x333 JUMP JUMPDEST CALLER PUSH1 0x1 PUSH1 0x0 PUSH2 0x100 EXP DUP2 SLOAD DUP2 PUSH20 0xFFFFFFFFFFFFFFFFFFFFFFFFFFFFFFFFFFFFFFFF MUL NOT AND SWAP1 DUP4 PUSH20 0xFFFFFFFFFFFFFFFFFFFFFFFFFFFFFFFFFFFFFFFF AND MUL OR SWAP1 SSTORE POP DUP5 TIMESTAMP PUSH3 0x86 SWAP2 SWAP1 PUSH3 0x48B JUMP JUMPDEST PUSH1 0x3 DUP2 SWAP1 SSTORE POP DUP4 PUSH1 0x4 DUP2 SWAP1 SSTORE POP PUSH1 0x0 PUSH1 0x5 DUP2 SWAP1 SSTORE POP PUSH1 0x0 PUSH1 0x6 PUSH1 0x0 PUSH2 0x100 EXP DUP2 SLOAD DUP2 PUSH1 0xFF MUL NOT AND SWAP1 DUP4 ISZERO ISZERO MUL OR SWAP1 SSTORE POP PUSH32 0x52656A6563746564000000000000000000000000000000000000000000000000 PUSH1 0x7 DUP2 SWAP1 SSTORE POP ADDRESS PUSH1 0x0 DUP1 PUSH2 0x100 EXP DUP2 SLOAD DUP2 PUSH20 0xFFFFFFFFFFFFFFFFFFFFFFFFFFFFFFFFFFFFFFFF MUL NOT AND SWAP1 DUP4 PUSH20 0xFFFFFFFFFFFFFFFFFFFFFFFFFFFFFFFFFFFFFFFF AND MUL OR SWAP1 SSTORE POP PUSH1 0x40 MLOAD DUP1 PUSH1 0xC0 ADD PUSH1 0x40 MSTORE DUP1 PUSH1 0x0 DUP2 MSTORE PUSH1 0x20 ADD DUP8 DUP2 MSTORE PUSH1 0x20 ADD DUP3 DUP2 MSTORE PUSH1 0x20 ADD DUP4 DUP2 MSTORE PUSH1 0x20 ADD DUP5 DUP2 MSTORE PUSH1 0x20 ADD DUP7 DUP2 MSTORE POP PUSH1 0xA PUSH1 0x0 DUP3 ADD MLOAD DUP2 PUSH1 0x0 ADD SSTORE PUSH1 0x20 DUP3 ADD MLOAD DUP2 PUSH1 0x1 ADD SWAP1 DUP1 MLOAD SWAP1 PUSH1 0x20 ADD SWAP1 PUSH3 0x175 SWAP3 SWAP2 SWAP1 PUSH3 0x1D7 JUMP JUMPDEST POP PUSH1 0x40 DUP3 ADD MLOAD DUP2 PUSH1 0x2 ADD SWAP1 DUP1 MLOAD SWAP1 PUSH1 0x20 ADD SWAP1 PUSH3 0x194 SWAP3 SWAP2 SWAP1 PUSH3 0x1D7 JUMP JUMPDEST POP PUSH1 0x60 DUP3 ADD MLOAD DUP2 PUSH1 0x3 ADD SWAP1 DUP1 MLOAD SWAP1 PUSH1 0x20 ADD SWAP1 PUSH3 0x1B3 SWAP3 SWAP2 SWAP1 PUSH3 0x1D7 JUMP JUMPDEST POP PUSH1 0x80 DUP3 ADD MLOAD DUP2 PUSH1 0x4 ADD SSTORE PUSH1 0xA0 DUP3 ADD MLOAD DUP2 PUSH1 0x5 ADD SSTORE SWAP1 POP POP POP POP POP POP POP POP PUSH3 0x684 JUMP JUMPDEST DUP3 DUP1 SLOAD PUSH3 0x1E5 SWAP1 PUSH3 0x532 JUMP JUMPDEST SWAP1 PUSH1 0x0 MSTORE PUSH1 0x20 PUSH1 0x0 KECCAK256 SWAP1 PUSH1 0x1F ADD PUSH1 0x20 SWAP1 DIV DUP2 ADD SWAP3 DUP3 PUSH3 0x209 JUMPI PUSH1 0x0 DUP6 SSTORE PUSH3 0x255 JUMP JUMPDEST DUP3 PUSH1 0x1F LT PUSH3 0x224 JUMPI DUP1 MLOAD PUSH1 0xFF NOT AND DUP4 DUP1 ADD OR DUP6 SSTORE PUSH3 0x255 JUMP JUMPDEST DUP3 DUP1 ADD PUSH1 0x1 ADD DUP6 SSTORE DUP3 ISZERO PUSH3 0x255 JUMPI SWAP2 DUP3 ADD JUMPDEST DUP3 DUP2 GT ISZERO PUSH3 0x254 JUMPI DUP3 MLOAD DUP3 SSTORE SWAP2 PUSH1 0x20 ADD SWAP2 SWAP1 PUSH1 0x1 ADD SWAP1 PUSH3 0x237 JUMP JUMPDEST JUMPDEST POP SWAP1 POP PUSH3 0x264 SWAP2 SWAP1 PUSH3 0x268 JUMP JUMPDEST POP SWAP1 JUMP JUMPDEST JUMPDEST DUP1 DUP3 GT ISZERO PUSH3 0x283 JUMPI PUSH1 0x0 DUP2 PUSH1 0x0 SWAP1 SSTORE POP PUSH1 0x1 ADD PUSH3 0x269 JUMP JUMPDEST POP SWAP1 JUMP JUMPDEST PUSH1 0x0 PUSH3 0x29E PUSH3 0x298 DUP5 PUSH3 0x455 JUMP JUMPDEST PUSH3 0x42C JUMP JUMPDEST SWAP1 POP DUP3 DUP2 MSTORE PUSH1 0x20 DUP2 ADD DUP5 DUP5 DUP5 ADD GT ISZERO PUSH3 0x2BD JUMPI PUSH3 0x2BC PUSH3 0x630 JUMP JUMPDEST JUMPDEST PUSH3 0x2CA DUP5 DUP3 DUP6 PUSH3 0x4FC JUMP JUMPDEST POP SWAP4 SWAP3 POP POP POP JUMP JUMPDEST PUSH1 0x0 DUP2 MLOAD SWAP1 POP PUSH3 0x2E3 DUP2 PUSH3 0x650 JUMP JUMPDEST SWAP3 SWAP2 POP POP JUMP JUMPDEST PUSH1 0x0 DUP3 PUSH1 0x1F DUP4 ADD SLT PUSH3 0x301 JUMPI PUSH3 0x300 PUSH3 0x62B JUMP JUMPDEST JUMPDEST DUP2 MLOAD PUSH3 0x313 DUP5 DUP3 PUSH1 0x20 DUP7 ADD PUSH3 0x287 JUMP JUMPDEST SWAP2 POP POP SWAP3 SWAP2 POP POP JUMP JUMPDEST PUSH1 0x0 DUP2 MLOAD SWAP1 POP PUSH3 0x32D DUP2 PUSH3 0x66A JUMP JUMPDEST SWAP3 SWAP2 POP POP JUMP JUMPDEST PUSH1 0x0 DUP1 PUSH1 0x0 DUP1 PUSH1 0x0 DUP1 PUSH1 0xC0 DUP8 DUP10 SUB SLT ISZERO PUSH3 0x353 JUMPI PUSH3 0x352 PUSH3 0x63A JUMP JUMPDEST JUMPDEST PUSH1 0x0 DUP8 ADD MLOAD PUSH8 0xFFFFFFFFFFFFFFFF DUP2 GT ISZERO PUSH3 0x374 JUMPI PUSH3 0x373 PUSH3 0x635 JUMP JUMPDEST JUMPDEST PUSH3 0x382 DUP10 DUP3 DUP11 ADD PUSH3 0x2E9 JUMP JUMPDEST SWAP7 POP POP PUSH1 0x20 PUSH3 0x395 DUP10 DUP3 DUP11 ADD PUSH3 0x31C JUMP JUMPDEST SWAP6 POP POP PUSH1 0x40 PUSH3 0x3A8 DUP10 DUP3 DUP11 ADD PUSH3 0x31C JUMP JUMPDEST SWAP5 POP POP PUSH1 0x60 PUSH3 0x3BB DUP10 DUP3 DUP11 ADD PUSH3 0x2D2 JUMP JUMPDEST SWAP4 POP POP PUSH1 0x80 DUP8 ADD MLOAD PUSH8 0xFFFFFFFFFFFFFFFF DUP2 GT ISZERO PUSH3 0x3DF JUMPI PUSH3 0x3DE PUSH3 0x635 JUMP JUMPDEST JUMPDEST PUSH3 0x3ED DUP10 DUP3 DUP11 ADD PUSH3 0x2E9 JUMP JUMPDEST SWAP3 POP POP PUSH1 0xA0 DUP8 ADD MLOAD PUSH8 0xFFFFFFFFFFFFFFFF DUP2 GT ISZERO PUSH3 0x411 JUMPI PUSH3 0x410 PUSH3 0x635 JUMP JUMPDEST JUMPDEST PUSH3 0x41F DUP10 DUP3 DUP11 ADD PUSH3 0x2E9 JUMP JUMPDEST SWAP2 POP POP SWAP3 SWAP6 POP SWAP3 SWAP6 POP SWAP3 SWAP6 JUMP JUMPDEST PUSH1 0x0 PUSH3 0x438 PUSH3 0x44B JUMP JUMPDEST SWAP1 POP PUSH3 0x446 DUP3 DUP3 PUSH3 0x568 JUMP JUMPDEST SWAP2 SWAP1 POP JUMP JUMPDEST PUSH1 0x0 PUSH1 0x40 MLOAD SWAP1 POP SWAP1 JUMP JUMPDEST PUSH1 0x0 PUSH8 0xFFFFFFFFFFFFFFFF DUP3 GT ISZERO PUSH3 0x473 JUMPI PUSH3 0x472 PUSH3 0x5FC JUMP JUMPDEST JUMPDEST PUSH3 0x47E DUP3 PUSH3 0x63F JUMP JUMPDEST SWAP1 POP PUSH1 0x20 DUP2 ADD SWAP1 POP SWAP2 SWAP1 POP JUMP JUMPDEST PUSH1 0x0 PUSH3 0x498 DUP3 PUSH3 0x4F2 JUMP JUMPDEST SWAP2 POP PUSH3 0x4A5 DUP4 PUSH3 0x4F2 JUMP JUMPDEST SWAP3 POP DUP3 PUSH32 0xFFFFFFFFFFFFFFFFFFFFFFFFFFFFFFFFFFFFFFFFFFFFFFFFFFFFFFFFFFFFFFFF SUB DUP3 GT ISZERO PUSH3 0x4DD JUMPI PUSH3 0x4DC PUSH3 0x59E JUMP JUMPDEST JUMPDEST DUP3 DUP3 ADD SWAP1 POP SWAP3 SWAP2 POP POP JUMP JUMPDEST PUSH1 0x0 DUP2 SWAP1 POP SWAP2 SWAP1 POP JUMP JUMPDEST PUSH1 0x0 DUP2 SWAP1 POP SWAP2 SWAP1 POP JUMP JUMPDEST PUSH1 0x0 JUMPDEST DUP4 DUP2 LT ISZERO PUSH3 0x51C JUMPI DUP1 DUP3 ADD MLOAD DUP2 DUP5 ADD MSTORE PUSH1 0x20 DUP2 ADD SWAP1 POP PUSH3 0x4FF JUMP JUMPDEST DUP4 DUP2 GT ISZERO PUSH3 0x52C JUMPI PUSH1 0x0 DUP5 DUP5 ADD MSTORE JUMPDEST POP POP POP POP JUMP JUMPDEST PUSH1 0x0 PUSH1 0x2 DUP3 DIV SWAP1 POP PUSH1 0x1 DUP3 AND DUP1 PUSH3 0x54B JUMPI PUSH1 0x7F DUP3 AND SWAP2 POP JUMPDEST PUSH1 0x20 DUP3 LT DUP2 EQ ISZERO PUSH3 0x562 JUMPI PUSH3 0x561 PUSH3 0x5CD JUMP JUMPDEST JUMPDEST POP SWAP2 SWAP1 POP JUMP JUMPDEST PUSH3 0x573 DUP3 PUSH3 0x63F JUMP JUMPDEST DUP2 ADD DUP2 DUP2 LT PUSH8 0xFFFFFFFFFFFFFFFF DUP3 GT OR ISZERO PUSH3 0x595 JUMPI PUSH3 0x594 PUSH3 0x5FC JUMP JUMPDEST JUMPDEST DUP1 PUSH1 0x40 MSTORE POP POP POP JUMP JUMPDEST PUSH32 0x4E487B7100000000000000000000000000000000000000000000000000000000 PUSH1 0x0 MSTORE PUSH1 0x11 PUSH1 0x4 MSTORE PUSH1 0x24 PUSH1 0x0 REVERT JUMPDEST PUSH32 0x4E487B7100000000000000000000000000000000000000000000000000000000 PUSH1 0x0 MSTORE PUSH1 0x22 PUSH1 0x4 MSTORE PUSH1 0x24 PUSH1 0x0 REVERT JUMPDEST PUSH32 0x4E487B7100000000000000000000000000000000000000000000000000000000 PUSH1 0x0 MSTORE PUSH1 0x41 PUSH1 0x4 MSTORE PUSH1 0x24 PUSH1 0x0 REVERT JUMPDEST PUSH1 0x0 DUP1 REVERT JUMPDEST PUSH1 0x0 DUP1 REVERT JUMPDEST PUSH1 0x0 DUP1 REVERT JUMPDEST PUSH1 0x0 DUP1 REVERT JUMPDEST PUSH1 0x0 PUSH1 0x1F NOT PUSH1 0x1F DUP4 ADD AND SWAP1 POP SWAP2 SWAP1 POP JUMP JUMPDEST PUSH3 0x65B DUP2 PUSH3 0x4E8 JUMP JUMPDEST DUP2 EQ PUSH3 0x667 JUMPI PUSH1 0x0 DUP1 REVERT JUMPDEST POP JUMP JUMPDEST PUSH3 0x675 DUP2 PUSH3 0x4F2 JUMP JUMPDEST DUP2 EQ PUSH3 0x681 JUMPI PUSH1 0x0 DUP1 REVERT JUMPDEST POP JUMP JUMPDEST PUSH2 0x2D1D DUP1 PUSH3 0x694 PUSH1 0x0 CODECOPY PUSH1 0x0 RETURN INVALID PUSH1 0x80 PUSH1 0x40 MSTORE CALLVALUE DUP1 ISZERO PUSH2 0x10 JUMPI PUSH1 0x0 DUP1 REVERT JUMPDEST POP PUSH1 0x4 CALLDATASIZE LT PUSH2 0x10B JUMPI PUSH1 0x0 CALLDATALOAD PUSH1 0xE0 SHR DUP1 PUSH4 0x760297E9 GT PUSH2 0xA2 JUMPI DUP1 PUSH4 0x9D6A3125 GT PUSH2 0x71 JUMPI DUP1 PUSH4 0x9D6A3125 EQ PUSH2 0x2A1 JUMPI DUP1 PUSH4 0xA5EA11DA EQ PUSH2 0x2D3 JUMPI DUP1 PUSH4 0xD77AA749 EQ PUSH2 0x2F5 JUMPI DUP1 PUSH4 0xDA58C7D9 EQ PUSH2 0x313 JUMPI DUP1 PUSH4 0xF6B4DFB4 EQ PUSH2 0x345 JUMPI PUSH2 0x10B JUMP JUMPDEST DUP1 PUSH4 0x760297E9 EQ PUSH2 0x227 JUMPI DUP1 PUSH4 0x82316745 EQ PUSH2 0x245 JUMPI DUP1 PUSH4 0x95B02DFA EQ PUSH2 0x265 JUMPI DUP1 PUSH4 0x9AA4BBDD EQ PUSH2 0x26F JUMPI PUSH2 0x10B JUMP JUMPDEST DUP1 PUSH4 0x5361A0EA GT PUSH2 0xDE JUMPI DUP1 PUSH4 0x5361A0EA EQ PUSH2 0x196 JUMPI DUP1 PUSH4 0x5C39FCC1 EQ PUSH2 0x1C8 JUMPI DUP1 PUSH4 0x7403C5E5 EQ PUSH2 0x1E6 JUMPI DUP1 PUSH4 0x753EC103 EQ PUSH2 0x204 JUMPI PUSH2 0x10B JUMP JUMPDEST DUP1 PUSH4 0xCB6AAF1 EQ PUSH2 0x110 JUMPI DUP1 PUSH4 0x15FE6F1B EQ PUSH2 0x140 JUMPI DUP1 PUSH4 0x19EB4A90 EQ PUSH2 0x15C JUMPI DUP1 PUSH4 0x323082D7 EQ PUSH2 0x17A JUMPI JUMPDEST PUSH1 0x0 DUP1 REVERT JUMPDEST PUSH2 0x12A PUSH1 0x4 DUP1 CALLDATASIZE SUB DUP2 ADD SWAP1 PUSH2 0x125 SWAP2 SWAP1 PUSH2 0x1F2F JUMP JUMPDEST PUSH2 0x363 JUMP JUMPDEST PUSH1 0x40 MLOAD PUSH2 0x137 SWAP2 SWAP1 PUSH2 0x2316 JUMP JUMPDEST PUSH1 0x40 MLOAD DUP1 SWAP2 SUB SWAP1 RETURN JUMPDEST PUSH2 0x15A PUSH1 0x4 DUP1 CALLDATASIZE SUB DUP2 ADD SWAP1 PUSH2 0x155 SWAP2 SWAP1 PUSH2 0x1E36 JUMP JUMPDEST PUSH2 0x3A2 JUMP JUMPDEST STOP JUMPDEST PUSH2 0x164 PUSH2 0x744 JUMP JUMPDEST PUSH1 0x40 MLOAD PUSH2 0x171 SWAP2 SWAP1 PUSH2 0x23FF JUMP JUMPDEST PUSH1 0x40 MLOAD DUP1 SWAP2 SUB SWAP1 RETURN JUMPDEST PUSH2 0x194 PUSH1 0x4 DUP1 CALLDATASIZE SUB DUP2 ADD SWAP1 PUSH2 0x18F SWAP2 SWAP1 PUSH2 0x1E63 JUMP JUMPDEST PUSH2 0x7D9 JUMP JUMPDEST STOP JUMPDEST PUSH2 0x1B0 PUSH1 0x4 DUP1 CALLDATASIZE SUB DUP2 ADD SWAP1 PUSH2 0x1AB SWAP2 SWAP1 PUSH2 0x1E36 JUMP JUMPDEST PUSH2 0xF7C JUMP JUMPDEST PUSH1 0x40 MLOAD PUSH2 0x1BF SWAP4 SWAP3 SWAP2 SWAP1 PUSH2 0x234C JUMP JUMPDEST PUSH1 0x40 MLOAD DUP1 SWAP2 SUB SWAP1 RETURN JUMPDEST PUSH2 0x1D0 PUSH2 0x1091 JUMP JUMPDEST PUSH1 0x40 MLOAD PUSH2 0x1DD SWAP2 SWAP1 PUSH2 0x2316 JUMP JUMPDEST PUSH1 0x40 MLOAD DUP1 SWAP2 SUB SWAP1 RETURN JUMPDEST PUSH2 0x1EE PUSH2 0x10B7 JUMP JUMPDEST PUSH1 0x40 MLOAD PUSH2 0x1FB SWAP2 SWAP1 PUSH2 0x25DB JUMP JUMPDEST PUSH1 0x40 MLOAD DUP1 SWAP2 SUB SWAP1 RETURN JUMPDEST PUSH2 0x20C PUSH2 0x10BD JUMP JUMPDEST PUSH1 0x40 MLOAD PUSH2 0x21E SWAP7 SWAP6 SWAP5 SWAP4 SWAP3 SWAP2 SWAP1 PUSH2 0x25F6 JUMP JUMPDEST PUSH1 0x40 MLOAD DUP1 SWAP2 SUB SWAP1 RETURN JUMPDEST PUSH2 0x22F PUSH2 0x127F JUMP JUMPDEST PUSH1 0x40 MLOAD PUSH2 0x23C SWAP2 SWAP1 PUSH2 0x2331 JUMP JUMPDEST PUSH1 0x40 MLOAD DUP1 SWAP2 SUB SWAP1 RETURN JUMPDEST PUSH2 0x24D PUSH2 0x1296 JUMP JUMPDEST PUSH1 0x40 MLOAD PUSH2 0x25C SWAP4 SWAP3 SWAP2 SWAP1 PUSH2 0x23BA JUMP JUMPDEST PUSH1 0x40 MLOAD DUP1 SWAP2 SUB SWAP1 RETURN JUMPDEST PUSH2 0x26D PUSH2 0x15BC JUMP JUMPDEST STOP JUMPDEST PUSH2 0x289 PUSH1 0x4 DUP1 CALLDATASIZE SUB DUP2 ADD SWAP1 PUSH2 0x284 SWAP2 SWAP1 PUSH2 0x1E36 JUMP JUMPDEST PUSH2 0x1A22 JUMP JUMPDEST PUSH1 0x40 MLOAD PUSH2 0x298 SWAP4 SWAP3 SWAP2 SWAP1 PUSH2 0x234C JUMP JUMPDEST PUSH1 0x40 MLOAD DUP1 SWAP2 SUB SWAP1 RETURN JUMPDEST PUSH2 0x2BB PUSH1 0x4 DUP1 CALLDATASIZE SUB DUP2 ADD SWAP1 PUSH2 0x2B6 SWAP2 SWAP1 PUSH2 0x1EAC JUMP JUMPDEST PUSH2 0x1A86 JUMP JUMPDEST PUSH1 0x40 MLOAD PUSH2 0x2CA SWAP4 SWAP3 SWAP2 SWAP1 PUSH2 0x2383 JUMP JUMPDEST PUSH1 0x40 MLOAD DUP1 SWAP2 SUB SWAP1 RETURN JUMPDEST PUSH2 0x2DB PUSH2 0x1BDE JUMP JUMPDEST PUSH1 0x40 MLOAD PUSH2 0x2EC SWAP6 SWAP5 SWAP4 SWAP3 SWAP2 SWAP1 PUSH2 0x2421 JUMP JUMPDEST PUSH1 0x40 MLOAD DUP1 SWAP2 SUB SWAP1 RETURN JUMPDEST PUSH2 0x2FD PUSH2 0x1CB4 JUMP JUMPDEST PUSH1 0x40 MLOAD PUSH2 0x30A SWAP2 SWAP1 PUSH2 0x25DB JUMP JUMPDEST PUSH1 0x40 MLOAD DUP1 SWAP2 SUB SWAP1 RETURN JUMPDEST PUSH2 0x32D PUSH1 0x4 DUP1 CALLDATASIZE SUB DUP2 ADD SWAP1 PUSH2 0x328 SWAP2 SWAP1 PUSH2 0x1F2F JUMP JUMPDEST PUSH2 0x1CBA JUMP JUMPDEST PUSH1 0x40 MLOAD PUSH2 0x33C SWAP4 SWAP3 SWAP2 SWAP1 PUSH2 0x234C JUMP JUMPDEST PUSH1 0x40 MLOAD DUP1 SWAP2 SUB SWAP1 RETURN JUMPDEST PUSH2 0x34D PUSH2 0x1D2A JUMP JUMPDEST PUSH1 0x40 MLOAD PUSH2 0x35A SWAP2 SWAP1 PUSH2 0x2316 JUMP JUMPDEST PUSH1 0x40 MLOAD DUP1 SWAP2 SUB SWAP1 RETURN JUMPDEST PUSH1 0x2 DUP2 DUP2 SLOAD DUP2 LT PUSH2 0x373 JUMPI PUSH1 0x0 DUP1 REVERT JUMPDEST SWAP1 PUSH1 0x0 MSTORE PUSH1 0x20 PUSH1 0x0 KECCAK256 ADD PUSH1 0x0 SWAP2 POP SLOAD SWAP1 PUSH2 0x100 EXP SWAP1 DIV PUSH20 0xFFFFFFFFFFFFFFFFFFFFFFFFFFFFFFFFFFFFFFFF AND DUP2 JUMP JUMPDEST PUSH1 0x1 PUSH1 0x0 SWAP1 SLOAD SWAP1 PUSH2 0x100 EXP SWAP1 DIV PUSH20 0xFFFFFFFFFFFFFFFFFFFFFFFFFFFFFFFFFFFFFFFF AND PUSH20 0xFFFFFFFFFFFFFFFFFFFFFFFFFFFFFFFFFFFFFFFF AND CALLER PUSH20 0xFFFFFFFFFFFFFFFFFFFFFFFFFFFFFFFFFFFFFFFF AND EQ PUSH2 0x432 JUMPI PUSH1 0x40 MLOAD PUSH32 0x8C379A000000000000000000000000000000000000000000000000000000000 DUP2 MSTORE PUSH1 0x4 ADD PUSH2 0x429 SWAP1 PUSH2 0x253B JUMP JUMPDEST PUSH1 0x40 MLOAD DUP1 SWAP2 SUB SWAP1 REVERT JUMPDEST PUSH1 0x1 PUSH1 0x0 SWAP1 SLOAD SWAP1 PUSH2 0x100 EXP SWAP1 DIV PUSH20 0xFFFFFFFFFFFFFFFFFFFFFFFFFFFFFFFFFFFFFFFF AND PUSH20 0xFFFFFFFFFFFFFFFFFFFFFFFFFFFFFFFFFFFFFFFF AND DUP2 PUSH20 0xFFFFFFFFFFFFFFFFFFFFFFFFFFFFFFFFFFFFFFFF AND EQ ISZERO PUSH2 0x4C3 JUMPI PUSH1 0x40 MLOAD PUSH32 0x8C379A000000000000000000000000000000000000000000000000000000000 DUP2 MSTORE PUSH1 0x4 ADD PUSH2 0x4BA SWAP1 PUSH2 0x24DB JUMP JUMPDEST PUSH1 0x40 MLOAD DUP1 SWAP2 SUB SWAP1 REVERT JUMPDEST PUSH1 0x0 PUSH20 0xFFFFFFFFFFFFFFFFFFFFFFFFFFFFFFFFFFFFFFFF AND PUSH1 0x9 PUSH1 0x0 DUP4 PUSH20 0xFFFFFFFFFFFFFFFFFFFFFFFFFFFFFFFFFFFFFFFF AND PUSH20 0xFFFFFFFFFFFFFFFFFFFFFFFFFFFFFFFFFFFFFFFF AND DUP2 MSTORE PUSH1 0x20 ADD SWAP1 DUP2 MSTORE PUSH1 0x20 ADD PUSH1 0x0 KECCAK256 PUSH1 0x0 ADD PUSH1 0x2 SWAP1 SLOAD SWAP1 PUSH2 0x100 EXP SWAP1 DIV PUSH20 0xFFFFFFFFFFFFFFFFFFFFFFFFFFFFFFFFFFFFFFFF AND PUSH20 0xFFFFFFFFFFFFFFFFFFFFFFFFFFFFFFFFFFFFFFFF AND EQ PUSH2 0x594 JUMPI PUSH1 0x40 MLOAD PUSH32 0x8C379A000000000000000000000000000000000000000000000000000000000 DUP2 MSTORE PUSH1 0x4 ADD PUSH2 0x58B SWAP1 PUSH2 0x247B JUMP JUMPDEST PUSH1 0x40 MLOAD DUP1 SWAP2 SUB SWAP1 REVERT JUMPDEST PUSH1 0x3 SLOAD TIMESTAMP LT PUSH2 0x5D8 JUMPI PUSH1 0x40 MLOAD PUSH32 0x8C379A000000000000000000000000000000000000000000000000000000000 DUP2 MSTORE PUSH1 0x4 ADD PUSH2 0x5CF SWAP1 PUSH2 0x251B JUMP JUMPDEST PUSH1 0x40 MLOAD DUP1 SWAP2 SUB SWAP1 REVERT JUMPDEST PUSH1 0x0 PUSH1 0x40 MLOAD DUP1 PUSH1 0x60 ADD PUSH1 0x40 MSTORE DUP1 PUSH1 0x0 ISZERO ISZERO DUP2 MSTORE PUSH1 0x20 ADD PUSH1 0x0 ISZERO ISZERO DUP2 MSTORE PUSH1 0x20 ADD DUP4 PUSH20 0xFFFFFFFFFFFFFFFFFFFFFFFFFFFFFFFFFFFFFFFF AND DUP2 MSTORE POP SWAP1 POP DUP1 PUSH1 0x9 PUSH1 0x0 DUP5 PUSH20 0xFFFFFFFFFFFFFFFFFFFFFFFFFFFFFFFFFFFFFFFF AND PUSH20 0xFFFFFFFFFFFFFFFFFFFFFFFFFFFFFFFFFFFFFFFF AND DUP2 MSTORE PUSH1 0x20 ADD SWAP1 DUP2 MSTORE PUSH1 0x20 ADD PUSH1 0x0 KECCAK256 PUSH1 0x0 DUP3 ADD MLOAD DUP2 PUSH1 0x0 ADD PUSH1 0x0 PUSH2 0x100 EXP DUP2 SLOAD DUP2 PUSH1 0xFF MUL NOT AND SWAP1 DUP4 ISZERO ISZERO MUL OR SWAP1 SSTORE POP PUSH1 0x20 DUP3 ADD MLOAD DUP2 PUSH1 0x0 ADD PUSH1 0x1 PUSH2 0x100 EXP DUP2 SLOAD DUP2 PUSH1 0xFF MUL NOT AND SWAP1 DUP4 ISZERO ISZERO MUL OR SWAP1 SSTORE POP PUSH1 0x40 DUP3 ADD MLOAD DUP2 PUSH1 0x0 ADD PUSH1 0x2 PUSH2 0x100 EXP DUP2 SLOAD DUP2 PUSH20 0xFFFFFFFFFFFFFFFFFFFFFFFFFFFFFFFFFFFFFFFF MUL NOT AND SWAP1 DUP4 PUSH20 0xFFFFFFFFFFFFFFFFFFFFFFFFFFFFFFFFFFFFFFFF AND MUL OR SWAP1 SSTORE POP SWAP1 POP POP PUSH1 0x2 DUP3 SWAP1 DUP1 PUSH1 0x1 DUP2 SLOAD ADD DUP1 DUP3 SSTORE DUP1 SWAP2 POP POP PUSH1 0x1 SWAP1 SUB SWAP1 PUSH1 0x0 MSTORE PUSH1 0x20 PUSH1 0x0 KECCAK256 ADD PUSH1 0x0 SWAP1 SWAP2 SWAP1 SWAP2 SWAP1 SWAP2 PUSH2 0x100 EXP DUP2 SLOAD DUP2 PUSH20 0xFFFFFFFFFFFFFFFFFFFFFFFFFFFFFFFFFFFFFFFF MUL NOT AND SWAP1 DUP4 PUSH20 0xFFFFFFFFFFFFFFFFFFFFFFFFFFFFFFFFFFFFFFFF AND MUL OR SWAP1 SSTORE POP POP POP JUMP JUMPDEST PUSH1 0x60 PUSH1 0xA PUSH1 0x1 ADD DUP1 SLOAD PUSH2 0x756 SWAP1 PUSH2 0x28AA JUMP JUMPDEST DUP1 PUSH1 0x1F ADD PUSH1 0x20 DUP1 SWAP2 DIV MUL PUSH1 0x20 ADD PUSH1 0x40 MLOAD SWAP1 DUP2 ADD PUSH1 0x40 MSTORE DUP1 SWAP3 SWAP2 SWAP1 DUP2 DUP2 MSTORE PUSH1 0x20 ADD DUP3 DUP1 SLOAD PUSH2 0x782 SWAP1 PUSH2 0x28AA JUMP JUMPDEST DUP1 ISZERO PUSH2 0x7CF JUMPI DUP1 PUSH1 0x1F LT PUSH2 0x7A4 JUMPI PUSH2 0x100 DUP1 DUP4 SLOAD DIV MUL DUP4 MSTORE SWAP2 PUSH1 0x20 ADD SWAP2 PUSH2 0x7CF JUMP JUMPDEST DUP3 ADD SWAP2 SWAP1 PUSH1 0x0 MSTORE PUSH1 0x20 PUSH1 0x0 KECCAK256 SWAP1 JUMPDEST DUP2 SLOAD DUP2 MSTORE SWAP1 PUSH1 0x1 ADD SWAP1 PUSH1 0x20 ADD DUP1 DUP4 GT PUSH2 0x7B2 JUMPI DUP3 SWAP1 SUB PUSH1 0x1F AND DUP3 ADD SWAP2 JUMPDEST POP POP POP POP POP SWAP1 POP SWAP1 JUMP JUMPDEST PUSH1 0x3 SLOAD TIMESTAMP LT PUSH2 0x81D JUMPI PUSH1 0x40 MLOAD PUSH32 0x8C379A000000000000000000000000000000000000000000000000000000000 DUP2 MSTORE PUSH1 0x4 ADD PUSH2 0x814 SWAP1 PUSH2 0x259B JUMP JUMPDEST PUSH1 0x40 MLOAD DUP1 SWAP2 SUB SWAP1 REVERT JUMPDEST PUSH1 0x0 PUSH20 0xFFFFFFFFFFFFFFFFFFFFFFFFFFFFFFFFFFFFFFFF AND PUSH1 0x9 PUSH1 0x0 CALLER PUSH20 0xFFFFFFFFFFFFFFFFFFFFFFFFFFFFFFFFFFFFFFFF AND PUSH20 0xFFFFFFFFFFFFFFFFFFFFFFFFFFFFFFFFFFFFFFFF AND DUP2 MSTORE PUSH1 0x20 ADD SWAP1 DUP2 MSTORE PUSH1 0x20 ADD PUSH1 0x0 KECCAK256 PUSH1 0x0 ADD PUSH1 0x2 SWAP1 SLOAD SWAP1 PUSH2 0x100 EXP SWAP1 DIV PUSH20 0xFFFFFFFFFFFFFFFFFFFFFFFFFFFFFFFFFFFFFFFF AND PUSH20 0xFFFFFFFFFFFFFFFFFFFFFFFFFFFFFFFFFFFFFFFF AND EQ ISZERO PUSH2 0x8EF JUMPI PUSH1 0x40 MLOAD PUSH32 0x8C379A000000000000000000000000000000000000000000000000000000000 DUP2 MSTORE PUSH1 0x4 ADD PUSH2 0x8E6 SWAP1 PUSH2 0x24FB JUMP JUMPDEST PUSH1 0x40 MLOAD DUP1 SWAP2 SUB SWAP1 REVERT JUMPDEST PUSH1 0x9 PUSH1 0x0 CALLER PUSH20 0xFFFFFFFFFFFFFFFFFFFFFFFFFFFFFFFFFFFFFFFF AND PUSH20 0xFFFFFFFFFFFFFFFFFFFFFFFFFFFFFFFFFFFFFFFF AND DUP2 MSTORE PUSH1 0x20 ADD SWAP1 DUP2 MSTORE PUSH1 0x20 ADD PUSH1 0x0 KECCAK256 PUSH1 0x0 ADD PUSH1 0x0 SWAP1 SLOAD SWAP1 PUSH2 0x100 EXP SWAP1 DIV PUSH1 0xFF AND ISZERO PUSH2 0x97F JUMPI PUSH1 0x40 MLOAD PUSH32 0x8C379A000000000000000000000000000000000000000000000000000000000 DUP2 MSTORE PUSH1 0x4 ADD PUSH2 0x976 SWAP1 PUSH2 0x24BB JUMP JUMPDEST PUSH1 0x40 MLOAD DUP1 SWAP2 SUB SWAP1 REVERT JUMPDEST PUSH1 0x40 MLOAD DUP1 PUSH1 0x40 ADD PUSH1 0x40 MSTORE DUP1 PUSH1 0x9 DUP2 MSTORE PUSH1 0x20 ADD PUSH32 0x6920617070726F76650000000000000000000000000000000000000000000000 DUP2 MSTORE POP DUP1 MLOAD SWAP1 PUSH1 0x20 ADD KECCAK256 DUP2 DUP1 MLOAD SWAP1 PUSH1 0x20 ADD KECCAK256 EQ ISZERO PUSH2 0xBE5 JUMPI PUSH1 0x1 PUSH1 0x9 PUSH1 0x0 CALLER PUSH20 0xFFFFFFFFFFFFFFFFFFFFFFFFFFFFFFFFFFFFFFFF AND PUSH20 0xFFFFFFFFFFFFFFFFFFFFFFFFFFFFFFFFFFFFFFFF AND DUP2 MSTORE PUSH1 0x20 ADD SWAP1 DUP2 MSTORE PUSH1 0x20 ADD PUSH1 0x0 KECCAK256 PUSH1 0x0 ADD PUSH1 0x0 PUSH2 0x100 EXP DUP2 SLOAD DUP2 PUSH1 0xFF MUL NOT AND SWAP1 DUP4 ISZERO ISZERO MUL OR SWAP1 SSTORE POP PUSH1 0x1 PUSH1 0x9 PUSH1 0x0 CALLER PUSH20 0xFFFFFFFFFFFFFFFFFFFFFFFFFFFFFFFFFFFFFFFF AND PUSH20 0xFFFFFFFFFFFFFFFFFFFFFFFFFFFFFFFFFFFFFFFF AND DUP2 MSTORE PUSH1 0x20 ADD SWAP1 DUP2 MSTORE PUSH1 0x20 ADD PUSH1 0x0 KECCAK256 PUSH1 0x0 ADD PUSH1 0x1 PUSH2 0x100 EXP DUP2 SLOAD DUP2 PUSH1 0xFF MUL NOT AND SWAP1 DUP4 ISZERO ISZERO MUL OR SWAP1 SSTORE POP PUSH1 0x1 PUSH1 0x5 PUSH1 0x0 DUP3 DUP3 SLOAD PUSH2 0xA93 SWAP2 SWAP1 PUSH2 0x2728 JUMP JUMPDEST SWAP3 POP POP DUP2 SWAP1 SSTORE POP PUSH1 0x1 PUSH1 0xA PUSH1 0x0 ADD PUSH1 0x0 DUP3 DUP3 SLOAD PUSH2 0xAB0 SWAP2 SWAP1 PUSH2 0x2728 JUMP JUMPDEST SWAP3 POP POP DUP2 SWAP1 SSTORE POP PUSH1 0x8 PUSH1 0x9 PUSH1 0x0 CALLER PUSH20 0xFFFFFFFFFFFFFFFFFFFFFFFFFFFFFFFFFFFFFFFF AND PUSH20 0xFFFFFFFFFFFFFFFFFFFFFFFFFFFFFFFFFFFFFFFF AND DUP2 MSTORE PUSH1 0x20 ADD SWAP1 DUP2 MSTORE PUSH1 0x20 ADD PUSH1 0x0 KECCAK256 SWAP1 DUP1 PUSH1 0x1 DUP2 SLOAD ADD DUP1 DUP3 SSTORE DUP1 SWAP2 POP POP PUSH1 0x1 SWAP1 SUB SWAP1 PUSH1 0x0 MSTORE PUSH1 0x20 PUSH1 0x0 KECCAK256 ADD PUSH1 0x0 SWAP1 SWAP2 SWAP1 SWAP2 SWAP1 SWAP2 POP PUSH1 0x0 DUP3 ADD PUSH1 0x0 SWAP1 SLOAD SWAP1 PUSH2 0x100 EXP SWAP1 DIV PUSH1 0xFF AND DUP2 PUSH1 0x0 ADD PUSH1 0x0 PUSH2 0x100 EXP DUP2 SLOAD DUP2 PUSH1 0xFF MUL NOT AND SWAP1 DUP4 ISZERO ISZERO MUL OR SWAP1 SSTORE POP PUSH1 0x0 DUP3 ADD PUSH1 0x1 SWAP1 SLOAD SWAP1 PUSH2 0x100 EXP SWAP1 DIV PUSH1 0xFF AND DUP2 PUSH1 0x0 ADD PUSH1 0x1 PUSH2 0x100 EXP DUP2 SLOAD DUP2 PUSH1 0xFF MUL NOT AND SWAP1 DUP4 ISZERO ISZERO MUL OR SWAP1 SSTORE POP PUSH1 0x0 DUP3 ADD PUSH1 0x2 SWAP1 SLOAD SWAP1 PUSH2 0x100 EXP SWAP1 DIV PUSH20 0xFFFFFFFFFFFFFFFFFFFFFFFFFFFFFFFFFFFFFFFF AND DUP2 PUSH1 0x0 ADD PUSH1 0x2 PUSH2 0x100 EXP DUP2 SLOAD DUP2 PUSH20 0xFFFFFFFFFFFFFFFFFFFFFFFFFFFFFFFFFFFFFFFF MUL NOT AND SWAP1 DUP4 PUSH20 0xFFFFFFFFFFFFFFFFFFFFFFFFFFFFFFFFFFFFFFFF AND MUL OR SWAP1 SSTORE POP POP POP PUSH2 0xF79 JUMP JUMPDEST PUSH1 0x40 MLOAD DUP1 PUSH1 0x40 ADD PUSH1 0x40 MSTORE DUP1 PUSH1 0xC DUP2 MSTORE PUSH1 0x20 ADD PUSH32 0x6920646973617070726F76650000000000000000000000000000000000000000 DUP2 MSTORE POP DUP1 MLOAD SWAP1 PUSH1 0x20 ADD KECCAK256 DUP2 DUP1 MLOAD SWAP1 PUSH1 0x20 ADD KECCAK256 EQ ISZERO PUSH2 0xDD6 JUMPI PUSH1 0x1 PUSH1 0x9 PUSH1 0x0 CALLER PUSH20 0xFFFFFFFFFFFFFFFFFFFFFFFFFFFFFFFFFFFFFFFF AND PUSH20 0xFFFFFFFFFFFFFFFFFFFFFFFFFFFFFFFFFFFFFFFF AND DUP2 MSTORE PUSH1 0x20 ADD SWAP1 DUP2 MSTORE PUSH1 0x20 ADD PUSH1 0x0 KECCAK256 PUSH1 0x0 ADD PUSH1 0x0 PUSH2 0x100 EXP DUP2 SLOAD DUP2 PUSH1 0xFF MUL NOT AND SWAP1 DUP4 ISZERO ISZERO MUL OR SWAP1 SSTORE POP PUSH1 0x1 PUSH1 0xA PUSH1 0x0 ADD PUSH1 0x0 DUP3 DUP3 SLOAD PUSH2 0xCA1 SWAP2 SWAP1 PUSH2 0x2728 JUMP JUMPDEST SWAP3 POP POP DUP2 SWAP1 SSTORE POP PUSH1 0x8 PUSH1 0x9 PUSH1 0x0 CALLER PUSH20 0xFFFFFFFFFFFFFFFFFFFFFFFFFFFFFFFFFFFFFFFF AND PUSH20 0xFFFFFFFFFFFFFFFFFFFFFFFFFFFFFFFFFFFFFFFF AND DUP2 MSTORE PUSH1 0x20 ADD SWAP1 DUP2 MSTORE PUSH1 0x20 ADD PUSH1 0x0 KECCAK256 SWAP1 DUP1 PUSH1 0x1 DUP2 SLOAD ADD DUP1 DUP3 SSTORE DUP1 SWAP2 POP POP PUSH1 0x1 SWAP1 SUB SWAP1 PUSH1 0x0 MSTORE PUSH1 0x20 PUSH1 0x0 KECCAK256 ADD PUSH1 0x0 SWAP1 SWAP2 SWAP1 SWAP2 SWAP1 SWAP2 POP PUSH1 0x0 DUP3 ADD PUSH1 0x0 SWAP1 SLOAD SWAP1 PUSH2 0x100 EXP SWAP1 DIV PUSH1 0xFF AND DUP2 PUSH1 0x0 ADD PUSH1 0x0 PUSH2 0x100 EXP DUP2 SLOAD DUP2 PUSH1 0xFF MUL NOT AND SWAP1 DUP4 ISZERO ISZERO MUL OR SWAP1 SSTORE POP PUSH1 0x0 DUP3 ADD PUSH1 0x1 SWAP1 SLOAD SWAP1 PUSH2 0x100 EXP SWAP1 DIV PUSH1 0xFF AND DUP2 PUSH1 0x0 ADD PUSH1 0x1 PUSH2 0x100 EXP DUP2 SLOAD DUP2 PUSH1 0xFF MUL NOT AND SWAP1 DUP4 ISZERO ISZERO MUL OR SWAP1 SSTORE POP PUSH1 0x0 DUP3 ADD PUSH1 0x2 SWAP1 SLOAD SWAP1 PUSH2 0x100 EXP SWAP1 DIV PUSH20 0xFFFFFFFFFFFFFFFFFFFFFFFFFFFFFFFFFFFFFFFF AND DUP2 PUSH1 0x0 ADD PUSH1 0x2 PUSH2 0x100 EXP DUP2 SLOAD DUP2 PUSH20 0xFFFFFFFFFFFFFFFFFFFFFFFFFFFFFFFFFFFFFFFF MUL NOT AND SWAP1 DUP4 PUSH20 0xFFFFFFFFFFFFFFFFFFFFFFFFFFFFFFFFFFFFFFFF AND MUL OR SWAP1 SSTORE POP POP POP PUSH2 0xF78 JUMP JUMPDEST PUSH1 0x1 PUSH1 0x9 PUSH1 0x0 CALLER PUSH20 0xFFFFFFFFFFFFFFFFFFFFFFFFFFFFFFFFFFFFFFFF AND PUSH20 0xFFFFFFFFFFFFFFFFFFFFFFFFFFFFFFFFFFFFFFFF AND DUP2 MSTORE PUSH1 0x20 ADD SWAP1 DUP2 MSTORE PUSH1 0x20 ADD PUSH1 0x0 KECCAK256 PUSH1 0x0 ADD PUSH1 0x0 PUSH2 0x100 EXP DUP2 SLOAD DUP2 PUSH1 0xFF MUL NOT AND SWAP1 DUP4 ISZERO ISZERO MUL OR SWAP1 SSTORE POP PUSH1 0x1 PUSH1 0xA PUSH1 0x0 ADD PUSH1 0x0 DUP3 DUP3 SLOAD PUSH2 0xE47 SWAP2 SWAP1 PUSH2 0x2728 JUMP JUMPDEST SWAP3 POP POP DUP2 SWAP1 SSTORE POP PUSH1 0x8 PUSH1 0x9 PUSH1 0x0 CALLER PUSH20 0xFFFFFFFFFFFFFFFFFFFFFFFFFFFFFFFFFFFFFFFF AND PUSH20 0xFFFFFFFFFFFFFFFFFFFFFFFFFFFFFFFFFFFFFFFF AND DUP2 MSTORE PUSH1 0x20 ADD SWAP1 DUP2 MSTORE PUSH1 0x20 ADD PUSH1 0x0 KECCAK256 SWAP1 DUP1 PUSH1 0x1 DUP2 SLOAD ADD DUP1 DUP3 SSTORE DUP1 SWAP2 POP POP PUSH1 0x1 SWAP1 SUB SWAP1 PUSH1 0x0 MSTORE PUSH1 0x20 PUSH1 0x0 KECCAK256 ADD PUSH1 0x0 SWAP1 SWAP2 SWAP1 SWAP2 SWAP1 SWAP2 POP PUSH1 0x0 DUP3 ADD PUSH1 0x0 SWAP1 SLOAD SWAP1 PUSH2 0x100 EXP SWAP1 DIV PUSH1 0xFF AND DUP2 PUSH1 0x0 ADD PUSH1 0x0 PUSH2 0x100 EXP DUP2 SLOAD DUP2 PUSH1 0xFF MUL NOT AND SWAP1 DUP4 ISZERO ISZERO MUL OR SWAP1 SSTORE POP PUSH1 0x0 DUP3 ADD PUSH1 0x1 SWAP1 SLOAD SWAP1 PUSH2 0x100 EXP SWAP1 DIV PUSH1 0xFF AND DUP2 PUSH1 0x0 ADD PUSH1 0x1 PUSH2 0x100 EXP DUP2 SLOAD DUP2 PUSH1 0xFF MUL NOT AND SWAP1 DUP4 ISZERO ISZERO MUL OR SWAP1 SSTORE POP PUSH1 0x0 DUP3 ADD PUSH1 0x2 SWAP1 SLOAD SWAP1 PUSH2 0x100 EXP SWAP1 DIV PUSH20 0xFFFFFFFFFFFFFFFFFFFFFFFFFFFFFFFFFFFFFFFF AND DUP2 PUSH1 0x0 ADD PUSH1 0x2 PUSH2 0x100 EXP DUP2 SLOAD DUP2 PUSH20 0xFFFFFFFFFFFFFFFFFFFFFFFFFFFFFFFFFFFFFFFF MUL NOT AND SWAP1 DUP4 PUSH20 0xFFFFFFFFFFFFFFFFFFFFFFFFFFFFFFFFFFFFFFFF AND MUL OR SWAP1 SSTORE POP POP POP JUMPDEST JUMPDEST POP JUMP JUMPDEST PUSH1 0x0 DUP1 PUSH1 0x0 PUSH1 0x9 PUSH1 0x0 DUP6 PUSH20 0xFFFFFFFFFFFFFFFFFFFFFFFFFFFFFFFFFFFFFFFF AND PUSH20 0xFFFFFFFFFFFFFFFFFFFFFFFFFFFFFFFFFFFFFFFF AND DUP2 MSTORE PUSH1 0x20 ADD SWAP1 DUP2 MSTORE PUSH1 0x20 ADD PUSH1 0x0 KECCAK256 PUSH1 0x0 ADD PUSH1 0x1 SWAP1 SLOAD SWAP1 PUSH2 0x100 EXP SWAP1 DIV PUSH1 0xFF AND PUSH1 0x9 PUSH1 0x0 DUP7 PUSH20 0xFFFFFFFFFFFFFFFFFFFFFFFFFFFFFFFFFFFFFFFF AND PUSH20 0xFFFFFFFFFFFFFFFFFFFFFFFFFFFFFFFFFFFFFFFF AND DUP2 MSTORE PUSH1 0x20 ADD SWAP1 DUP2 MSTORE PUSH1 0x20 ADD PUSH1 0x0 KECCAK256 PUSH1 0x0 ADD PUSH1 0x0 SWAP1 SLOAD SWAP1 PUSH2 0x100 EXP SWAP1 DIV PUSH1 0xFF AND PUSH1 0x9 PUSH1 0x0 DUP8 PUSH20 0xFFFFFFFFFFFFFFFFFFFFFFFFFFFFFFFFFFFFFFFF AND PUSH20 0xFFFFFFFFFFFFFFFFFFFFFFFFFFFFFFFFFFFFFFFF AND DUP2 MSTORE PUSH1 0x20 ADD SWAP1 DUP2 MSTORE PUSH1 0x20 ADD PUSH1 0x0 KECCAK256 PUSH1 0x0 ADD PUSH1 0x2 SWAP1 SLOAD SWAP1 PUSH2 0x100 EXP SWAP1 DIV PUSH20 0xFFFFFFFFFFFFFFFFFFFFFFFFFFFFFFFFFFFFFFFF AND SWAP3 POP SWAP3 POP SWAP3 POP SWAP2 SWAP4 SWAP1 SWAP3 POP JUMP JUMPDEST PUSH1 0x1 PUSH1 0x0 SWAP1 SLOAD SWAP1 PUSH2 0x100 EXP SWAP1 DIV PUSH20 0xFFFFFFFFFFFFFFFFFFFFFFFFFFFFFFFFFFFFFFFF AND DUP2 JUMP JUMPDEST PUSH1 0x5 SLOAD DUP2 JUMP JUMPDEST PUSH1 0xA DUP1 PUSH1 0x0 ADD SLOAD SWAP1 DUP1 PUSH1 0x1 ADD DUP1 SLOAD PUSH2 0x10D4 SWAP1 PUSH2 0x28AA JUMP JUMPDEST DUP1 PUSH1 0x1F ADD PUSH1 0x20 DUP1 SWAP2 DIV MUL PUSH1 0x20 ADD PUSH1 0x40 MLOAD SWAP1 DUP2 ADD PUSH1 0x40 MSTORE DUP1 SWAP3 SWAP2 SWAP1 DUP2 DUP2 MSTORE PUSH1 0x20 ADD DUP3 DUP1 SLOAD PUSH2 0x1100 SWAP1 PUSH2 0x28AA JUMP JUMPDEST DUP1 ISZERO PUSH2 0x114D JUMPI DUP1 PUSH1 0x1F LT PUSH2 0x1122 JUMPI PUSH2 0x100 DUP1 DUP4 SLOAD DIV MUL DUP4 MSTORE SWAP2 PUSH1 0x20 ADD SWAP2 PUSH2 0x114D JUMP JUMPDEST DUP3 ADD SWAP2 SWAP1 PUSH1 0x0 MSTORE PUSH1 0x20 PUSH1 0x0 KECCAK256 SWAP1 JUMPDEST DUP2 SLOAD DUP2 MSTORE SWAP1 PUSH1 0x1 ADD SWAP1 PUSH1 0x20 ADD DUP1 DUP4 GT PUSH2 0x1130 JUMPI DUP3 SWAP1 SUB PUSH1 0x1F AND DUP3 ADD SWAP2 JUMPDEST POP POP POP POP POP SWAP1 DUP1 PUSH1 0x2 ADD DUP1 SLOAD PUSH2 0x1162 SWAP1 PUSH2 0x28AA JUMP JUMPDEST DUP1 PUSH1 0x1F ADD PUSH1 0x20 DUP1 SWAP2 DIV MUL PUSH1 0x20 ADD PUSH1 0x40 MLOAD SWAP1 DUP2 ADD PUSH1 0x40 MSTORE DUP1 SWAP3 SWAP2 SWAP1 DUP2 DUP2 MSTORE PUSH1 0x20 ADD DUP3 DUP1 SLOAD PUSH2 0x118E SWAP1 PUSH2 0x28AA JUMP JUMPDEST DUP1 ISZERO PUSH2 0x11DB JUMPI DUP1 PUSH1 0x1F LT PUSH2 0x11B0 JUMPI PUSH2 0x100 DUP1 DUP4 SLOAD DIV MUL DUP4 MSTORE SWAP2 PUSH1 0x20 ADD SWAP2 PUSH2 0x11DB JUMP JUMPDEST DUP3 ADD SWAP2 SWAP1 PUSH1 0x0 MSTORE PUSH1 0x20 PUSH1 0x0 KECCAK256 SWAP1 JUMPDEST DUP2 SLOAD DUP2 MSTORE SWAP1 PUSH1 0x1 ADD SWAP1 PUSH1 0x20 ADD DUP1 DUP4 GT PUSH2 0x11BE JUMPI DUP3 SWAP1 SUB PUSH1 0x1F AND DUP3 ADD SWAP2 JUMPDEST POP POP POP POP POP SWAP1 DUP1 PUSH1 0x3 ADD DUP1 SLOAD PUSH2 0x11F0 SWAP1 PUSH2 0x28AA JUMP JUMPDEST DUP1 PUSH1 0x1F ADD PUSH1 0x20 DUP1 SWAP2 DIV MUL PUSH1 0x20 ADD PUSH1 0x40 MLOAD SWAP1 DUP2 ADD PUSH1 0x40 MSTORE DUP1 SWAP3 SWAP2 SWAP1 DUP2 DUP2 MSTORE PUSH1 0x20 ADD DUP3 DUP1 SLOAD PUSH2 0x121C SWAP1 PUSH2 0x28AA JUMP JUMPDEST DUP1 ISZERO PUSH2 0x1269 JUMPI DUP1 PUSH1 0x1F LT PUSH2 0x123E JUMPI PUSH2 0x100 DUP1 DUP4 SLOAD DIV MUL DUP4 MSTORE SWAP2 PUSH1 0x20 ADD SWAP2 PUSH2 0x1269 JUMP JUMPDEST DUP3 ADD SWAP2 SWAP1 PUSH1 0x0 MSTORE PUSH1 0x20 PUSH1 0x0 KECCAK256 SWAP1 JUMPDEST DUP2 SLOAD DUP2 MSTORE SWAP1 PUSH1 0x1 ADD SWAP1 PUSH1 0x20 ADD DUP1 DUP4 GT PUSH2 0x124C JUMPI DUP3 SWAP1 SUB PUSH1 0x1F AND DUP3 ADD SWAP2 JUMPDEST POP POP POP POP POP SWAP1 DUP1 PUSH1 0x4 ADD SLOAD SWAP1 DUP1 PUSH1 0x5 ADD SLOAD SWAP1 POP DUP7 JUMP JUMPDEST PUSH1 0x0 PUSH1 0x6 PUSH1 0x0 SWAP1 SLOAD SWAP1 PUSH2 0x100 EXP SWAP1 DIV PUSH1 0xFF AND SWAP1 POP SWAP1 JUMP JUMPDEST PUSH1 0x0 PUSH2 0x12A0 PUSH2 0x1D4E JUMP JUMPDEST PUSH1 0x60 PUSH1 0x3 SLOAD TIMESTAMP LT ISZERO PUSH2 0x12E7 JUMPI PUSH1 0x40 MLOAD PUSH32 0x8C379A000000000000000000000000000000000000000000000000000000000 DUP2 MSTORE PUSH1 0x4 ADD PUSH2 0x12DE SWAP1 PUSH2 0x257B JUMP JUMPDEST PUSH1 0x40 MLOAD DUP1 SWAP2 SUB SWAP1 REVERT JUMPDEST PUSH1 0x7 SLOAD PUSH1 0xA PUSH1 0x8 DUP2 PUSH1 0x40 MLOAD DUP1 PUSH1 0xC0 ADD PUSH1 0x40 MSTORE SWAP1 DUP2 PUSH1 0x0 DUP3 ADD SLOAD DUP2 MSTORE PUSH1 0x20 ADD PUSH1 0x1 DUP3 ADD DUP1 SLOAD PUSH2 0x1314 SWAP1 PUSH2 0x28AA JUMP JUMPDEST DUP1 PUSH1 0x1F ADD PUSH1 0x20 DUP1 SWAP2 DIV MUL PUSH1 0x20 ADD PUSH1 0x40 MLOAD SWAP1 DUP2 ADD PUSH1 0x40 MSTORE DUP1 SWAP3 SWAP2 SWAP1 DUP2 DUP2 MSTORE PUSH1 0x20 ADD DUP3 DUP1 SLOAD PUSH2 0x1340 SWAP1 PUSH2 0x28AA JUMP JUMPDEST DUP1 ISZERO PUSH2 0x138D JUMPI DUP1 PUSH1 0x1F LT PUSH2 0x1362 JUMPI PUSH2 0x100 DUP1 DUP4 SLOAD DIV MUL DUP4 MSTORE SWAP2 PUSH1 0x20 ADD SWAP2 PUSH2 0x138D JUMP JUMPDEST DUP3 ADD SWAP2 SWAP1 PUSH1 0x0 MSTORE PUSH1 0x20 PUSH1 0x0 KECCAK256 SWAP1 JUMPDEST DUP2 SLOAD DUP2 MSTORE SWAP1 PUSH1 0x1 ADD SWAP1 PUSH1 0x20 ADD DUP1 DUP4 GT PUSH2 0x1370 JUMPI DUP3 SWAP1 SUB PUSH1 0x1F AND DUP3 ADD SWAP2 JUMPDEST POP POP POP POP POP DUP2 MSTORE PUSH1 0x20 ADD PUSH1 0x2 DUP3 ADD DUP1 SLOAD PUSH2 0x13A6 SWAP1 PUSH2 0x28AA JUMP JUMPDEST DUP1 PUSH1 0x1F ADD PUSH1 0x20 DUP1 SWAP2 DIV MUL PUSH1 0x20 ADD PUSH1 0x40 MLOAD SWAP1 DUP2 ADD PUSH1 0x40 MSTORE DUP1 SWAP3 SWAP2 SWAP1 DUP2 DUP2 MSTORE PUSH1 0x20 ADD DUP3 DUP1 SLOAD PUSH2 0x13D2 SWAP1 PUSH2 0x28AA JUMP JUMPDEST DUP1 ISZERO PUSH2 0x141F JUMPI DUP1 PUSH1 0x1F LT PUSH2 0x13F4 JUMPI PUSH2 0x100 DUP1 DUP4 SLOAD DIV MUL DUP4 MSTORE SWAP2 PUSH1 0x20 ADD SWAP2 PUSH2 0x141F JUMP JUMPDEST DUP3 ADD SWAP2 SWAP1 PUSH1 0x0 MSTORE PUSH1 0x20 PUSH1 0x0 KECCAK256 SWAP1 JUMPDEST DUP2 SLOAD DUP2 MSTORE SWAP1 PUSH1 0x1 ADD SWAP1 PUSH1 0x20 ADD DUP1 DUP4 GT PUSH2 0x1402 JUMPI DUP3 SWAP1 SUB PUSH1 0x1F AND DUP3 ADD SWAP2 JUMPDEST POP POP POP POP POP DUP2 MSTORE PUSH1 0x20 ADD PUSH1 0x3 DUP3 ADD DUP1 SLOAD PUSH2 0x1438 SWAP1 PUSH2 0x28AA JUMP JUMPDEST DUP1 PUSH1 0x1F ADD PUSH1 0x20 DUP1 SWAP2 DIV MUL PUSH1 0x20 ADD PUSH1 0x40 MLOAD SWAP1 DUP2 ADD PUSH1 0x40 MSTORE DUP1 SWAP3 SWAP2 SWAP1 DUP2 DUP2 MSTORE PUSH1 0x20 ADD DUP3 DUP1 SLOAD PUSH2 0x1464 SWAP1 PUSH2 0x28AA JUMP JUMPDEST DUP1 ISZERO PUSH2 0x14B1 JUMPI DUP1 PUSH1 0x1F LT PUSH2 0x1486 JUMPI PUSH2 0x100 DUP1 DUP4 SLOAD DIV MUL DUP4 MSTORE SWAP2 PUSH1 0x20 ADD SWAP2 PUSH2 0x14B1 JUMP JUMPDEST DUP3 ADD SWAP2 SWAP1 PUSH1 0x0 MSTORE PUSH1 0x20 PUSH1 0x0 KECCAK256 SWAP1 JUMPDEST DUP2 SLOAD DUP2 MSTORE SWAP1 PUSH1 0x1 ADD SWAP1 PUSH1 0x20 ADD DUP1 DUP4 GT PUSH2 0x1494 JUMPI DUP3 SWAP1 SUB PUSH1 0x1F AND DUP3 ADD SWAP2 JUMPDEST POP POP POP POP POP DUP2 MSTORE PUSH1 0x20 ADD PUSH1 0x4 DUP3 ADD SLOAD DUP2 MSTORE PUSH1 0x20 ADD PUSH1 0x5 DUP3 ADD SLOAD DUP2 MSTORE POP POP SWAP2 POP DUP1 DUP1 SLOAD DUP1 PUSH1 0x20 MUL PUSH1 0x20 ADD PUSH1 0x40 MLOAD SWAP1 DUP2 ADD PUSH1 0x40 MSTORE DUP1 SWAP3 SWAP2 SWAP1 DUP2 DUP2 MSTORE PUSH1 0x20 ADD PUSH1 0x0 SWAP1 JUMPDEST DUP3 DUP3 LT ISZERO PUSH2 0x15AB JUMPI DUP4 DUP3 SWAP1 PUSH1 0x0 MSTORE PUSH1 0x20 PUSH1 0x0 KECCAK256 ADD PUSH1 0x40 MLOAD DUP1 PUSH1 0x60 ADD PUSH1 0x40 MSTORE SWAP1 DUP2 PUSH1 0x0 DUP3 ADD PUSH1 0x0 SWAP1 SLOAD SWAP1 PUSH2 0x100 EXP SWAP1 DIV PUSH1 0xFF AND ISZERO ISZERO ISZERO ISZERO DUP2 MSTORE PUSH1 0x20 ADD PUSH1 0x0 DUP3 ADD PUSH1 0x1 SWAP1 SLOAD SWAP1 PUSH2 0x100 EXP SWAP1 DIV PUSH1 0xFF AND ISZERO ISZERO ISZERO ISZERO DUP2 MSTORE PUSH1 0x20 ADD PUSH1 0x0 DUP3 ADD PUSH1 0x2 SWAP1 SLOAD SWAP1 PUSH2 0x100 EXP SWAP1 DIV PUSH20 0xFFFFFFFFFFFFFFFFFFFFFFFFFFFFFFFFFFFFFFFF AND PUSH20 0xFFFFFFFFFFFFFFFFFFFFFFFFFFFFFFFFFFFFFFFF AND PUSH20 0xFFFFFFFFFFFFFFFFFFFFFFFFFFFFFFFFFFFFFFFF AND DUP2 MSTORE POP POP DUP2 MSTORE PUSH1 0x20 ADD SWAP1 PUSH1 0x1 ADD SWAP1 PUSH2 0x14F1 JUMP JUMPDEST POP POP POP POP SWAP1 POP SWAP3 POP SWAP3 POP SWAP3 POP SWAP1 SWAP2 SWAP3 JUMP JUMPDEST PUSH1 0x3 SLOAD TIMESTAMP LT ISZERO PUSH2 0x1601 JUMPI PUSH1 0x40 MLOAD PUSH32 0x8C379A000000000000000000000000000000000000000000000000000000000 DUP2 MSTORE PUSH1 0x4 ADD PUSH2 0x15F8 SWAP1 PUSH2 0x257B JUMP JUMPDEST PUSH1 0x40 MLOAD DUP1 SWAP2 SUB SWAP1 REVERT JUMPDEST PUSH1 0x0 ISZERO ISZERO PUSH1 0x6 PUSH1 0x0 SWAP1 SLOAD SWAP1 PUSH2 0x100 EXP SWAP1 DIV PUSH1 0xFF AND ISZERO ISZERO EQ PUSH2 0x1657 JUMPI PUSH1 0x40 MLOAD PUSH32 0x8C379A000000000000000000000000000000000000000000000000000000000 DUP2 MSTORE PUSH1 0x4 ADD PUSH2 0x164E SWAP1 PUSH2 0x25BB JUMP JUMPDEST PUSH1 0x40 MLOAD DUP1 SWAP2 SUB SWAP1 REVERT JUMPDEST PUSH1 0x1 PUSH1 0x0 SWAP1 SLOAD SWAP1 PUSH2 0x100 EXP SWAP1 DIV PUSH20 0xFFFFFFFFFFFFFFFFFFFFFFFFFFFFFFFFFFFFFFFF AND PUSH20 0xFFFFFFFFFFFFFFFFFFFFFFFFFFFFFFFFFFFFFFFF AND CALLER PUSH20 0xFFFFFFFFFFFFFFFFFFFFFFFFFFFFFFFFFFFFFFFF AND EQ DUP1 PUSH2 0x1742 JUMPI POP PUSH1 0x0 PUSH20 0xFFFFFFFFFFFFFFFFFFFFFFFFFFFFFFFFFFFFFFFF AND PUSH1 0x9 PUSH1 0x0 CALLER PUSH20 0xFFFFFFFFFFFFFFFFFFFFFFFFFFFFFFFFFFFFFFFF AND PUSH20 0xFFFFFFFFFFFFFFFFFFFFFFFFFFFFFFFFFFFFFFFF AND DUP2 MSTORE PUSH1 0x20 ADD SWAP1 DUP2 MSTORE PUSH1 0x20 ADD PUSH1 0x0 KECCAK256 PUSH1 0x0 ADD PUSH1 0x2 SWAP1 SLOAD SWAP1 PUSH2 0x100 EXP SWAP1 DIV PUSH20 0xFFFFFFFFFFFFFFFFFFFFFFFFFFFFFFFFFFFFFFFF AND PUSH20 0xFFFFFFFFFFFFFFFFFFFFFFFFFFFFFFFFFFFFFFFF AND EQ ISZERO JUMPDEST PUSH2 0x1781 JUMPI PUSH1 0x40 MLOAD PUSH32 0x8C379A000000000000000000000000000000000000000000000000000000000 DUP2 MSTORE PUSH1 0x4 ADD PUSH2 0x1778 SWAP1 PUSH2 0x249B JUMP JUMPDEST PUSH1 0x40 MLOAD DUP1 SWAP2 SUB SWAP1 REVERT JUMPDEST PUSH1 0x0 PUSH1 0x64 PUSH1 0x2 DUP1 SLOAD SWAP1 POP PUSH1 0x5 SLOAD PUSH2 0x1798 SWAP2 SWAP1 PUSH2 0x277E JUMP JUMPDEST PUSH2 0x17A2 SWAP2 SWAP1 PUSH2 0x27AF JUMP JUMPDEST SWAP1 POP PUSH1 0x4 SLOAD DUP2 LT PUSH2 0x17D5 JUMPI PUSH32 0x4163636570746564000000000000000000000000000000000000000000000000 PUSH1 0x7 DUP2 SWAP1 SSTORE POP JUMPDEST PUSH1 0x0 JUMPDEST PUSH1 0x2 DUP1 SLOAD SWAP1 POP DUP2 PUSH1 0xFF AND LT ISZERO PUSH2 0x1A03 JUMPI PUSH1 0x0 ISZERO ISZERO PUSH1 0x9 PUSH1 0x0 PUSH1 0x2 DUP5 PUSH1 0xFF AND DUP2 SLOAD DUP2 LT PUSH2 0x1807 JUMPI PUSH2 0x1806 PUSH2 0x29C4 JUMP JUMPDEST JUMPDEST SWAP1 PUSH1 0x0 MSTORE PUSH1 0x20 PUSH1 0x0 KECCAK256 ADD PUSH1 0x0 SWAP1 SLOAD SWAP1 PUSH2 0x100 EXP SWAP1 DIV PUSH20 0xFFFFFFFFFFFFFFFFFFFFFFFFFFFFFFFFFFFFFFFF AND PUSH20 0xFFFFFFFFFFFFFFFFFFFFFFFFFFFFFFFFFFFFFFFF AND PUSH20 0xFFFFFFFFFFFFFFFFFFFFFFFFFFFFFFFFFFFFFFFF AND DUP2 MSTORE PUSH1 0x20 ADD SWAP1 DUP2 MSTORE PUSH1 0x20 ADD PUSH1 0x0 KECCAK256 PUSH1 0x0 ADD PUSH1 0x0 SWAP1 SLOAD SWAP1 PUSH2 0x100 EXP SWAP1 DIV PUSH1 0xFF AND ISZERO ISZERO EQ ISZERO PUSH2 0x19F0 JUMPI PUSH1 0x8 PUSH1 0x9 PUSH1 0x0 PUSH1 0x2 DUP5 PUSH1 0xFF AND DUP2 SLOAD DUP2 LT PUSH2 0x18A2 JUMPI PUSH2 0x18A1 PUSH2 0x29C4 JUMP JUMPDEST JUMPDEST SWAP1 PUSH1 0x0 MSTORE PUSH1 0x20 PUSH1 0x0 KECCAK256 ADD PUSH1 0x0 SWAP1 SLOAD SWAP1 PUSH2 0x100 EXP SWAP1 DIV PUSH20 0xFFFFFFFFFFFFFFFFFFFFFFFFFFFFFFFFFFFFFFFF AND PUSH20 0xFFFFFFFFFFFFFFFFFFFFFFFFFFFFFFFFFFFFFFFF AND PUSH20 0xFFFFFFFFFFFFFFFFFFFFFFFFFFFFFFFFFFFFFFFF AND DUP2 MSTORE PUSH1 0x20 ADD SWAP1 DUP2 MSTORE PUSH1 0x20 ADD PUSH1 0x0 KECCAK256 SWAP1 DUP1 PUSH1 0x1 DUP2 SLOAD ADD DUP1 DUP3 SSTORE DUP1 SWAP2 POP POP PUSH1 0x1 SWAP1 SUB SWAP1 PUSH1 0x0 MSTORE PUSH1 0x20 PUSH1 0x0 KECCAK256 ADD PUSH1 0x0 SWAP1 SWAP2 SWAP1 SWAP2 SWAP1 SWAP2 POP PUSH1 0x0 DUP3 ADD PUSH1 0x0 SWAP1 SLOAD SWAP1 PUSH2 0x100 EXP SWAP1 DIV PUSH1 0xFF AND DUP2 PUSH1 0x0 ADD PUSH1 0x0 PUSH2 0x100 EXP DUP2 SLOAD DUP2 PUSH1 0xFF MUL NOT AND SWAP1 DUP4 ISZERO ISZERO MUL OR SWAP1 SSTORE POP PUSH1 0x0 DUP3 ADD PUSH1 0x1 SWAP1 SLOAD SWAP1 PUSH2 0x100 EXP SWAP1 DIV PUSH1 0xFF AND DUP2 PUSH1 0x0 ADD PUSH1 0x1 PUSH2 0x100 EXP DUP2 SLOAD DUP2 PUSH1 0xFF MUL NOT AND SWAP1 DUP4 ISZERO ISZERO MUL OR SWAP1 SSTORE POP PUSH1 0x0 DUP3 ADD PUSH1 0x2 SWAP1 SLOAD SWAP1 PUSH2 0x100 EXP SWAP1 DIV PUSH20 0xFFFFFFFFFFFFFFFFFFFFFFFFFFFFFFFFFFFFFFFF AND DUP2 PUSH1 0x0 ADD PUSH1 0x2 PUSH2 0x100 EXP DUP2 SLOAD DUP2 PUSH20 0xFFFFFFFFFFFFFFFFFFFFFFFFFFFFFFFFFFFFFFFF MUL NOT AND SWAP1 DUP4 PUSH20 0xFFFFFFFFFFFFFFFFFFFFFFFFFFFFFFFFFFFFFFFF AND MUL OR SWAP1 SSTORE POP POP POP JUMPDEST DUP1 DUP1 PUSH2 0x19FB SWAP1 PUSH2 0x290D JUMP JUMPDEST SWAP2 POP POP PUSH2 0x17D8 JUMP JUMPDEST POP PUSH1 0x1 PUSH1 0x6 PUSH1 0x0 PUSH2 0x100 EXP DUP2 SLOAD DUP2 PUSH1 0xFF MUL NOT AND SWAP1 DUP4 ISZERO ISZERO MUL OR SWAP1 SSTORE POP POP JUMP JUMPDEST PUSH1 0x9 PUSH1 0x20 MSTORE DUP1 PUSH1 0x0 MSTORE PUSH1 0x40 PUSH1 0x0 KECCAK256 PUSH1 0x0 SWAP2 POP SWAP1 POP DUP1 PUSH1 0x0 ADD PUSH1 0x0 SWAP1 SLOAD SWAP1 PUSH2 0x100 EXP SWAP1 DIV PUSH1 0xFF AND SWAP1 DUP1 PUSH1 0x0 ADD PUSH1 0x1 SWAP1 SLOAD SWAP1 PUSH2 0x100 EXP SWAP1 DIV PUSH1 0xFF AND SWAP1 DUP1 PUSH1 0x0 ADD PUSH1 0x2 SWAP1 SLOAD SWAP1 PUSH2 0x100 EXP SWAP1 DIV PUSH20 0xFFFFFFFFFFFFFFFFFFFFFFFFFFFFFFFFFFFFFFFF AND SWAP1 POP DUP4 JUMP JUMPDEST PUSH1 0x0 DUP1 PUSH1 0x0 PUSH1 0x1 PUSH1 0x0 SWAP1 SLOAD SWAP1 PUSH2 0x100 EXP SWAP1 DIV PUSH20 0xFFFFFFFFFFFFFFFFFFFFFFFFFFFFFFFFFFFFFFFF AND PUSH20 0xFFFFFFFFFFFFFFFFFFFFFFFFFFFFFFFFFFFFFFFF AND CALLER PUSH20 0xFFFFFFFFFFFFFFFFFFFFFFFFFFFFFFFFFFFFFFFF AND EQ PUSH2 0x1B1B JUMPI PUSH1 0x40 MLOAD PUSH32 0x8C379A000000000000000000000000000000000000000000000000000000000 DUP2 MSTORE PUSH1 0x4 ADD PUSH2 0x1B12 SWAP1 PUSH2 0x255B JUMP JUMPDEST PUSH1 0x40 MLOAD DUP1 SWAP2 SUB SWAP1 REVERT JUMPDEST PUSH1 0x0 PUSH1 0x1 SWAP1 POP PUSH1 0x0 PUSH1 0x1 SWAP1 POP PUSH1 0x0 PUSH1 0x1 SWAP1 POP PUSH1 0x0 PUSH20 0xFFFFFFFFFFFFFFFFFFFFFFFFFFFFFFFFFFFFFFFF AND PUSH1 0x1 PUSH1 0x0 SWAP1 SLOAD SWAP1 PUSH2 0x100 EXP SWAP1 DIV PUSH20 0xFFFFFFFFFFFFFFFFFFFFFFFFFFFFFFFFFFFFFFFF AND PUSH20 0xFFFFFFFFFFFFFFFFFFFFFFFFFFFFFFFFFFFFFFFF AND EQ ISZERO PUSH2 0x1B97 JUMPI PUSH1 0x1 DUP1 PUSH1 0x1 SWAP6 POP SWAP6 POP SWAP6 POP POP POP POP PUSH2 0x1BD4 JUMP JUMPDEST PUSH1 0x4 SLOAD DUP10 EQ PUSH2 0x1BA5 JUMPI PUSH1 0x0 SWAP3 POP JUMPDEST PUSH1 0xA PUSH1 0x4 ADD SLOAD DUP8 EQ PUSH2 0x1BB6 JUMPI PUSH1 0x0 SWAP2 POP JUMPDEST DUP8 PUSH1 0xA PUSH1 0x5 ADD SLOAD EQ PUSH2 0x1BC7 JUMPI PUSH1 0x0 SWAP1 POP JUMPDEST DUP3 DUP3 DUP3 SWAP6 POP SWAP6 POP SWAP6 POP POP POP POP JUMPDEST SWAP5 POP SWAP5 POP SWAP5 SWAP2 POP POP JUMP JUMPDEST PUSH1 0x60 PUSH1 0x0 DUP1 PUSH1 0x0 DUP1 PUSH1 0xA PUSH1 0x1 ADD PUSH1 0x3 SLOAD PUSH1 0x1 PUSH1 0x0 SWAP1 SLOAD SWAP1 PUSH2 0x100 EXP SWAP1 DIV PUSH20 0xFFFFFFFFFFFFFFFFFFFFFFFFFFFFFFFFFFFFFFFF AND PUSH1 0x4 SLOAD PUSH1 0x5 SLOAD DUP5 DUP1 SLOAD PUSH2 0x1C23 SWAP1 PUSH2 0x28AA JUMP JUMPDEST DUP1 PUSH1 0x1F ADD PUSH1 0x20 DUP1 SWAP2 DIV MUL PUSH1 0x20 ADD PUSH1 0x40 MLOAD SWAP1 DUP2 ADD PUSH1 0x40 MSTORE DUP1 SWAP3 SWAP2 SWAP1 DUP2 DUP2 MSTORE PUSH1 0x20 ADD DUP3 DUP1 SLOAD PUSH2 0x1C4F SWAP1 PUSH2 0x28AA JUMP JUMPDEST DUP1 ISZERO PUSH2 0x1C9C JUMPI DUP1 PUSH1 0x1F LT PUSH2 0x1C71 JUMPI PUSH2 0x100 DUP1 DUP4 SLOAD DIV MUL DUP4 MSTORE SWAP2 PUSH1 0x20 ADD SWAP2 PUSH2 0x1C9C JUMP JUMPDEST DUP3 ADD SWAP2 SWAP1 PUSH1 0x0 MSTORE PUSH1 0x20 PUSH1 0x0 KECCAK256 SWAP1 JUMPDEST DUP2 SLOAD DUP2 MSTORE SWAP1 PUSH1 0x1 ADD SWAP1 PUSH1 0x20 ADD DUP1 DUP4 GT PUSH2 0x1C7F JUMPI DUP3 SWAP1 SUB PUSH1 0x1F AND DUP3 ADD SWAP2 JUMPDEST POP POP POP POP POP SWAP5 POP SWAP5 POP SWAP5 POP SWAP5 POP SWAP5 POP SWAP5 POP SWAP1 SWAP2 SWAP3 SWAP4 SWAP5 JUMP JUMPDEST PUSH1 0x4 SLOAD DUP2 JUMP JUMPDEST PUSH1 0x8 DUP2 DUP2 SLOAD DUP2 LT PUSH2 0x1CCA JUMPI PUSH1 0x0 DUP1 REVERT JUMPDEST SWAP1 PUSH1 0x0 MSTORE PUSH1 0x20 PUSH1 0x0 KECCAK256 ADD PUSH1 0x0 SWAP2 POP SWAP1 POP DUP1 PUSH1 0x0 ADD PUSH1 0x0 SWAP1 SLOAD SWAP1 PUSH2 0x100 EXP SWAP1 DIV PUSH1 0xFF AND SWAP1 DUP1 PUSH1 0x0 ADD PUSH1 0x1 SWAP1 SLOAD SWAP1 PUSH2 0x100 EXP SWAP1 DIV PUSH1 0xFF AND SWAP1 DUP1 PUSH1 0x0 ADD PUSH1 0x2 SWAP1 SLOAD SWAP1 PUSH2 0x100 EXP SWAP1 DIV PUSH20 0xFFFFFFFFFFFFFFFFFFFFFFFFFFFFFFFFFFFFFFFF AND SWAP1 POP DUP4 JUMP JUMPDEST PUSH1 0x0 DUP1 SLOAD SWAP1 PUSH2 0x100 EXP SWAP1 DIV PUSH20 0xFFFFFFFFFFFFFFFFFFFFFFFFFFFFFFFFFFFFFFFF AND DUP2 JUMP JUMPDEST PUSH1 0x40 MLOAD DUP1 PUSH1 0xC0 ADD PUSH1 0x40 MSTORE DUP1 PUSH1 0x0 DUP2 MSTORE PUSH1 0x20 ADD PUSH1 0x60 DUP2 MSTORE PUSH1 0x20 ADD PUSH1 0x60 DUP2 MSTORE PUSH1 0x20 ADD PUSH1 0x60 DUP2 MSTORE PUSH1 0x20 ADD PUSH1 0x0 DUP1 NOT AND DUP2 MSTORE PUSH1 0x20 ADD PUSH1 0x0 DUP2 MSTORE POP SWAP1 JUMP JUMPDEST PUSH1 0x0 PUSH2 0x1D9A PUSH2 0x1D95 DUP5 PUSH2 0x2691 JUMP JUMPDEST PUSH2 0x266C JUMP JUMPDEST SWAP1 POP DUP3 DUP2 MSTORE PUSH1 0x20 DUP2 ADD DUP5 DUP5 DUP5 ADD GT ISZERO PUSH2 0x1DB6 JUMPI PUSH2 0x1DB5 PUSH2 0x2A27 JUMP JUMPDEST JUMPDEST PUSH2 0x1DC1 DUP5 DUP3 DUP6 PUSH2 0x2868 JUMP JUMPDEST POP SWAP4 SWAP3 POP POP POP JUMP JUMPDEST PUSH1 0x0 DUP2 CALLDATALOAD SWAP1 POP PUSH2 0x1DD8 DUP2 PUSH2 0x2CA2 JUMP JUMPDEST SWAP3 SWAP2 POP POP JUMP JUMPDEST PUSH1 0x0 DUP2 CALLDATALOAD SWAP1 POP PUSH2 0x1DED DUP2 PUSH2 0x2CB9 JUMP JUMPDEST SWAP3 SWAP2 POP POP JUMP JUMPDEST PUSH1 0x0 DUP3 PUSH1 0x1F DUP4 ADD SLT PUSH2 0x1E08 JUMPI PUSH2 0x1E07 PUSH2 0x2A22 JUMP JUMPDEST JUMPDEST DUP2 CALLDATALOAD PUSH2 0x1E18 DUP5 DUP3 PUSH1 0x20 DUP7 ADD PUSH2 0x1D87 JUMP JUMPDEST SWAP2 POP POP SWAP3 SWAP2 POP POP JUMP JUMPDEST PUSH1 0x0 DUP2 CALLDATALOAD SWAP1 POP PUSH2 0x1E30 DUP2 PUSH2 0x2CD0 JUMP JUMPDEST SWAP3 SWAP2 POP POP JUMP JUMPDEST PUSH1 0x0 PUSH1 0x20 DUP3 DUP5 SUB SLT ISZERO PUSH2 0x1E4C JUMPI PUSH2 0x1E4B PUSH2 0x2A31 JUMP JUMPDEST JUMPDEST PUSH1 0x0 PUSH2 0x1E5A DUP5 DUP3 DUP6 ADD PUSH2 0x1DC9 JUMP JUMPDEST SWAP2 POP POP SWAP3 SWAP2 POP POP JUMP JUMPDEST PUSH1 0x0 PUSH1 0x20 DUP3 DUP5 SUB SLT ISZERO PUSH2 0x1E79 JUMPI PUSH2 0x1E78 PUSH2 0x2A31 JUMP JUMPDEST JUMPDEST PUSH1 0x0 DUP3 ADD CALLDATALOAD PUSH8 0xFFFFFFFFFFFFFFFF DUP2 GT ISZERO PUSH2 0x1E97 JUMPI PUSH2 0x1E96 PUSH2 0x2A2C JUMP JUMPDEST JUMPDEST PUSH2 0x1EA3 DUP5 DUP3 DUP6 ADD PUSH2 0x1DF3 JUMP JUMPDEST SWAP2 POP POP SWAP3 SWAP2 POP POP JUMP JUMPDEST PUSH1 0x0 DUP1 PUSH1 0x0 DUP1 PUSH1 0x80 DUP6 DUP8 SUB SLT ISZERO PUSH2 0x1EC6 JUMPI PUSH2 0x1EC5 PUSH2 0x2A31 JUMP JUMPDEST JUMPDEST PUSH1 0x0 DUP6 ADD CALLDATALOAD PUSH8 0xFFFFFFFFFFFFFFFF DUP2 GT ISZERO PUSH2 0x1EE4 JUMPI PUSH2 0x1EE3 PUSH2 0x2A2C JUMP JUMPDEST JUMPDEST PUSH2 0x1EF0 DUP8 DUP3 DUP9 ADD PUSH2 0x1DF3 JUMP JUMPDEST SWAP5 POP POP PUSH1 0x20 PUSH2 0x1F01 DUP8 DUP3 DUP9 ADD PUSH2 0x1E21 JUMP JUMPDEST SWAP4 POP POP PUSH1 0x40 PUSH2 0x1F12 DUP8 DUP3 DUP9 ADD PUSH2 0x1E21 JUMP JUMPDEST SWAP3 POP POP PUSH1 0x60 PUSH2 0x1F23 DUP8 DUP3 DUP9 ADD PUSH2 0x1DDE JUMP JUMPDEST SWAP2 POP POP SWAP3 SWAP6 SWAP2 SWAP5 POP SWAP3 POP JUMP JUMPDEST PUSH1 0x0 PUSH1 0x20 DUP3 DUP5 SUB SLT ISZERO PUSH2 0x1F45 JUMPI PUSH2 0x1F44 PUSH2 0x2A31 JUMP JUMPDEST JUMPDEST PUSH1 0x0 PUSH2 0x1F53 DUP5 DUP3 DUP6 ADD PUSH2 0x1E21 JUMP JUMPDEST SWAP2 POP POP SWAP3 SWAP2 POP POP JUMP JUMPDEST PUSH1 0x0 PUSH2 0x1F68 DUP4 DUP4 PUSH2 0x22B6 JUMP JUMPDEST PUSH1 0x60 DUP4 ADD SWAP1 POP SWAP3 SWAP2 POP POP JUMP JUMPDEST PUSH2 0x1F7D DUP2 PUSH2 0x2809 JUMP JUMPDEST DUP3 MSTORE POP POP JUMP JUMPDEST PUSH2 0x1F8C DUP2 PUSH2 0x2809 JUMP JUMPDEST DUP3 MSTORE POP POP JUMP JUMPDEST PUSH1 0x0 PUSH2 0x1F9D DUP3 PUSH2 0x26D2 JUMP JUMPDEST PUSH2 0x1FA7 DUP2 DUP6 PUSH2 0x26F5 JUMP JUMPDEST SWAP4 POP PUSH2 0x1FB2 DUP4 PUSH2 0x26C2 JUMP JUMPDEST DUP1 PUSH1 0x0 JUMPDEST DUP4 DUP2 LT ISZERO PUSH2 0x1FE3 JUMPI DUP2 MLOAD PUSH2 0x1FCA DUP9 DUP3 PUSH2 0x1F5C JUMP JUMPDEST SWAP8 POP PUSH2 0x1FD5 DUP4 PUSH2 0x26E8 JUMP JUMPDEST SWAP3 POP POP PUSH1 0x1 DUP2 ADD SWAP1 POP PUSH2 0x1FB6 JUMP JUMPDEST POP DUP6 SWAP4 POP POP POP POP SWAP3 SWAP2 POP POP JUMP JUMPDEST PUSH2 0x1FF9 DUP2 PUSH2 0x281B JUMP JUMPDEST DUP3 MSTORE POP POP JUMP JUMPDEST PUSH2 0x2008 DUP2 PUSH2 0x281B JUMP JUMPDEST DUP3 MSTORE POP POP JUMP JUMPDEST PUSH2 0x2017 DUP2 PUSH2 0x2827 JUMP JUMPDEST DUP3 MSTORE POP POP JUMP JUMPDEST PUSH2 0x2026 DUP2 PUSH2 0x2827 JUMP JUMPDEST DUP3 MSTORE POP POP JUMP JUMPDEST PUSH1 0x0 PUSH2 0x2037 DUP3 PUSH2 0x26DD JUMP JUMPDEST PUSH2 0x2041 DUP2 DUP6 PUSH2 0x2706 JUMP JUMPDEST SWAP4 POP PUSH2 0x2051 DUP2 DUP6 PUSH1 0x20 DUP7 ADD PUSH2 0x2877 JUMP JUMPDEST PUSH2 0x205A DUP2 PUSH2 0x2A36 JUMP JUMPDEST DUP5 ADD SWAP2 POP POP SWAP3 SWAP2 POP POP JUMP JUMPDEST PUSH1 0x0 PUSH2 0x2070 DUP3 PUSH2 0x26DD JUMP JUMPDEST PUSH2 0x207A DUP2 DUP6 PUSH2 0x2717 JUMP JUMPDEST SWAP4 POP PUSH2 0x208A DUP2 DUP6 PUSH1 0x20 DUP7 ADD PUSH2 0x2877 JUMP JUMPDEST PUSH2 0x2093 DUP2 PUSH2 0x2A36 JUMP JUMPDEST DUP5 ADD SWAP2 POP POP SWAP3 SWAP2 POP POP JUMP JUMPDEST PUSH1 0x0 PUSH2 0x20AB PUSH1 0x1F DUP4 PUSH2 0x2717 JUMP JUMPDEST SWAP2 POP PUSH2 0x20B6 DUP3 PUSH2 0x2A47 JUMP JUMPDEST PUSH1 0x20 DUP3 ADD SWAP1 POP SWAP2 SWAP1 POP JUMP JUMPDEST PUSH1 0x0 PUSH2 0x20CE PUSH1 0x26 DUP4 PUSH2 0x2717 JUMP JUMPDEST SWAP2 POP PUSH2 0x20D9 DUP3 PUSH2 0x2A70 JUMP JUMPDEST PUSH1 0x40 DUP3 ADD SWAP1 POP SWAP2 SWAP1 POP JUMP JUMPDEST PUSH1 0x0 PUSH2 0x20F1 PUSH1 0x1C DUP4 PUSH2 0x2717 JUMP JUMPDEST SWAP2 POP PUSH2 0x20FC DUP3 PUSH2 0x2ABF JUMP JUMPDEST PUSH1 0x20 DUP3 ADD SWAP1 POP SWAP2 SWAP1 POP JUMP JUMPDEST PUSH1 0x0 PUSH2 0x2114 PUSH1 0x15 DUP4 PUSH2 0x2717 JUMP JUMPDEST SWAP2 POP PUSH2 0x211F DUP3 PUSH2 0x2AE8 JUMP JUMPDEST PUSH1 0x20 DUP3 ADD SWAP1 POP SWAP2 SWAP1 POP JUMP JUMPDEST PUSH1 0x0 PUSH2 0x2137 PUSH1 0x1E DUP4 PUSH2 0x2717 JUMP JUMPDEST SWAP2 POP PUSH2 0x2142 DUP3 PUSH2 0x2B11 JUMP JUMPDEST PUSH1 0x20 DUP3 ADD SWAP1 POP SWAP2 SWAP1 POP JUMP JUMPDEST PUSH1 0x0 PUSH2 0x215A PUSH1 0x24 DUP4 PUSH2 0x2717 JUMP JUMPDEST SWAP2 POP PUSH2 0x2165 DUP3 PUSH2 0x2B3A JUMP JUMPDEST PUSH1 0x40 DUP3 ADD SWAP1 POP SWAP2 SWAP1 POP JUMP JUMPDEST PUSH1 0x0 PUSH2 0x217D PUSH1 0x28 DUP4 PUSH2 0x2717 JUMP JUMPDEST SWAP2 POP PUSH2 0x2188 DUP3 PUSH2 0x2B89 JUMP JUMPDEST PUSH1 0x40 DUP3 ADD SWAP1 POP SWAP2 SWAP1 POP JUMP JUMPDEST PUSH1 0x0 PUSH2 0x21A0 PUSH1 0x14 DUP4 PUSH2 0x2717 JUMP JUMPDEST SWAP2 POP PUSH2 0x21AB DUP3 PUSH2 0x2BD8 JUMP JUMPDEST PUSH1 0x20 DUP3 ADD SWAP1 POP SWAP2 SWAP1 POP JUMP JUMPDEST PUSH1 0x0 PUSH2 0x21C3 PUSH1 0x20 DUP4 PUSH2 0x2717 JUMP JUMPDEST SWAP2 POP PUSH2 0x21CE DUP3 PUSH2 0x2C01 JUMP JUMPDEST PUSH1 0x20 DUP3 ADD SWAP1 POP SWAP2 SWAP1 POP JUMP JUMPDEST PUSH1 0x0 PUSH2 0x21E6 PUSH1 0x12 DUP4 PUSH2 0x2717 JUMP JUMPDEST SWAP2 POP PUSH2 0x21F1 DUP3 PUSH2 0x2C2A JUMP JUMPDEST PUSH1 0x20 DUP3 ADD SWAP1 POP SWAP2 SWAP1 POP JUMP JUMPDEST PUSH1 0x0 PUSH2 0x2209 PUSH1 0x25 DUP4 PUSH2 0x2717 JUMP JUMPDEST SWAP2 POP PUSH2 0x2214 DUP3 PUSH2 0x2C53 JUMP JUMPDEST PUSH1 0x40 DUP3 ADD SWAP1 POP SWAP2 SWAP1 POP JUMP JUMPDEST PUSH1 0x0 PUSH1 0xC0 DUP4 ADD PUSH1 0x0 DUP4 ADD MLOAD PUSH2 0x2237 PUSH1 0x0 DUP7 ADD DUP3 PUSH2 0x22F8 JUMP JUMPDEST POP PUSH1 0x20 DUP4 ADD MLOAD DUP5 DUP3 SUB PUSH1 0x20 DUP7 ADD MSTORE PUSH2 0x224F DUP3 DUP3 PUSH2 0x202C JUMP JUMPDEST SWAP2 POP POP PUSH1 0x40 DUP4 ADD MLOAD DUP5 DUP3 SUB PUSH1 0x40 DUP7 ADD MSTORE PUSH2 0x2269 DUP3 DUP3 PUSH2 0x202C JUMP JUMPDEST SWAP2 POP POP PUSH1 0x60 DUP4 ADD MLOAD DUP5 DUP3 SUB PUSH1 0x60 DUP7 ADD MSTORE PUSH2 0x2283 DUP3 DUP3 PUSH2 0x202C JUMP JUMPDEST SWAP2 POP POP PUSH1 0x80 DUP4 ADD MLOAD PUSH2 0x2298 PUSH1 0x80 DUP7 ADD DUP3 PUSH2 0x200E JUMP JUMPDEST POP PUSH1 0xA0 DUP4 ADD MLOAD PUSH2 0x22AB PUSH1 0xA0 DUP7 ADD DUP3 PUSH2 0x22F8 JUMP JUMPDEST POP DUP1 SWAP2 POP POP SWAP3 SWAP2 POP POP JUMP JUMPDEST PUSH1 0x60 DUP3 ADD PUSH1 0x0 DUP3 ADD MLOAD PUSH2 0x22CC PUSH1 0x0 DUP6 ADD DUP3 PUSH2 0x1FF0 JUMP JUMPDEST POP PUSH1 0x20 DUP3 ADD MLOAD PUSH2 0x22DF PUSH1 0x20 DUP6 ADD DUP3 PUSH2 0x1FF0 JUMP JUMPDEST POP PUSH1 0x40 DUP3 ADD MLOAD PUSH2 0x22F2 PUSH1 0x40 DUP6 ADD DUP3 PUSH2 0x1F74 JUMP JUMPDEST POP POP POP POP JUMP JUMPDEST PUSH2 0x2301 DUP2 PUSH2 0x2851 JUMP JUMPDEST DUP3 MSTORE POP POP JUMP JUMPDEST PUSH2 0x2310 DUP2 PUSH2 0x2851 JUMP JUMPDEST DUP3 MSTORE POP POP JUMP JUMPDEST PUSH1 0x0 PUSH1 0x20 DUP3 ADD SWAP1 POP PUSH2 0x232B PUSH1 0x0 DUP4 ADD DUP5 PUSH2 0x1F83 JUMP JUMPDEST SWAP3 SWAP2 POP POP JUMP JUMPDEST PUSH1 0x0 PUSH1 0x20 DUP3 ADD SWAP1 POP PUSH2 0x2346 PUSH1 0x0 DUP4 ADD DUP5 PUSH2 0x1FFF JUMP JUMPDEST SWAP3 SWAP2 POP POP JUMP JUMPDEST PUSH1 0x0 PUSH1 0x60 DUP3 ADD SWAP1 POP PUSH2 0x2361 PUSH1 0x0 DUP4 ADD DUP7 PUSH2 0x1FFF JUMP JUMPDEST PUSH2 0x236E PUSH1 0x20 DUP4 ADD DUP6 PUSH2 0x1FFF JUMP JUMPDEST PUSH2 0x237B PUSH1 0x40 DUP4 ADD DUP5 PUSH2 0x1F83 JUMP JUMPDEST SWAP5 SWAP4 POP POP POP POP JUMP JUMPDEST PUSH1 0x0 PUSH1 0x60 DUP3 ADD SWAP1 POP PUSH2 0x2398 PUSH1 0x0 DUP4 ADD DUP7 PUSH2 0x1FFF JUMP JUMPDEST PUSH2 0x23A5 PUSH1 0x20 DUP4 ADD DUP6 PUSH2 0x1FFF JUMP JUMPDEST PUSH2 0x23B2 PUSH1 0x40 DUP4 ADD DUP5 PUSH2 0x1FFF JUMP JUMPDEST SWAP5 SWAP4 POP POP POP POP JUMP JUMPDEST PUSH1 0x0 PUSH1 0x60 DUP3 ADD SWAP1 POP PUSH2 0x23CF PUSH1 0x0 DUP4 ADD DUP7 PUSH2 0x201D JUMP JUMPDEST DUP2 DUP2 SUB PUSH1 0x20 DUP4 ADD MSTORE PUSH2 0x23E1 DUP2 DUP6 PUSH2 0x221F JUMP JUMPDEST SWAP1 POP DUP2 DUP2 SUB PUSH1 0x40 DUP4 ADD MSTORE PUSH2 0x23F5 DUP2 DUP5 PUSH2 0x1F92 JUMP JUMPDEST SWAP1 POP SWAP5 SWAP4 POP POP POP POP JUMP JUMPDEST PUSH1 0x0 PUSH1 0x20 DUP3 ADD SWAP1 POP DUP2 DUP2 SUB PUSH1 0x0 DUP4 ADD MSTORE PUSH2 0x2419 DUP2 DUP5 PUSH2 0x2065 JUMP JUMPDEST SWAP1 POP SWAP3 SWAP2 POP POP JUMP JUMPDEST PUSH1 0x0 PUSH1 0xA0 DUP3 ADD SWAP1 POP DUP2 DUP2 SUB PUSH1 0x0 DUP4 ADD MSTORE PUSH2 0x243B DUP2 DUP9 PUSH2 0x2065 JUMP JUMPDEST SWAP1 POP PUSH2 0x244A PUSH1 0x20 DUP4 ADD DUP8 PUSH2 0x2307 JUMP JUMPDEST PUSH2 0x2457 PUSH1 0x40 DUP4 ADD DUP7 PUSH2 0x1F83 JUMP JUMPDEST PUSH2 0x2464 PUSH1 0x60 DUP4 ADD DUP6 PUSH2 0x2307 JUMP JUMPDEST PUSH2 0x2471 PUSH1 0x80 DUP4 ADD DUP5 PUSH2 0x2307 JUMP JUMPDEST SWAP7 SWAP6 POP POP POP POP POP POP JUMP JUMPDEST PUSH1 0x0 PUSH1 0x20 DUP3 ADD SWAP1 POP DUP2 DUP2 SUB PUSH1 0x0 DUP4 ADD MSTORE PUSH2 0x2494 DUP2 PUSH2 0x209E JUMP JUMPDEST SWAP1 POP SWAP2 SWAP1 POP JUMP JUMPDEST PUSH1 0x0 PUSH1 0x20 DUP3 ADD SWAP1 POP DUP2 DUP2 SUB PUSH1 0x0 DUP4 ADD MSTORE PUSH2 0x24B4 DUP2 PUSH2 0x20C1 JUMP JUMPDEST SWAP1 POP SWAP2 SWAP1 POP JUMP JUMPDEST PUSH1 0x0 PUSH1 0x20 DUP3 ADD SWAP1 POP DUP2 DUP2 SUB PUSH1 0x0 DUP4 ADD MSTORE PUSH2 0x24D4 DUP2 PUSH2 0x20E4 JUMP JUMPDEST SWAP1 POP SWAP2 SWAP1 POP JUMP JUMPDEST PUSH1 0x0 PUSH1 0x20 DUP3 ADD SWAP1 POP DUP2 DUP2 SUB PUSH1 0x0 DUP4 ADD MSTORE PUSH2 0x24F4 DUP2 PUSH2 0x2107 JUMP JUMPDEST SWAP1 POP SWAP2 SWAP1 POP JUMP JUMPDEST PUSH1 0x0 PUSH1 0x20 DUP3 ADD SWAP1 POP DUP2 DUP2 SUB PUSH1 0x0 DUP4 ADD MSTORE PUSH2 0x2514 DUP2 PUSH2 0x212A JUMP JUMPDEST SWAP1 POP SWAP2 SWAP1 POP JUMP JUMPDEST PUSH1 0x0 PUSH1 0x20 DUP3 ADD SWAP1 POP DUP2 DUP2 SUB PUSH1 0x0 DUP4 ADD MSTORE PUSH2 0x2534 DUP2 PUSH2 0x214D JUMP JUMPDEST SWAP1 POP SWAP2 SWAP1 POP JUMP JUMPDEST PUSH1 0x0 PUSH1 0x20 DUP3 ADD SWAP1 POP DUP2 DUP2 SUB PUSH1 0x0 DUP4 ADD MSTORE PUSH2 0x2554 DUP2 PUSH2 0x2170 JUMP JUMPDEST SWAP1 POP SWAP2 SWAP1 POP JUMP JUMPDEST PUSH1 0x0 PUSH1 0x20 DUP3 ADD SWAP1 POP DUP2 DUP2 SUB PUSH1 0x0 DUP4 ADD MSTORE PUSH2 0x2574 DUP2 PUSH2 0x2193 JUMP JUMPDEST SWAP1 POP SWAP2 SWAP1 POP JUMP JUMPDEST PUSH1 0x0 PUSH1 0x20 DUP3 ADD SWAP1 POP DUP2 DUP2 SUB PUSH1 0x0 DUP4 ADD MSTORE PUSH2 0x2594 DUP2 PUSH2 0x21B6 JUMP JUMPDEST SWAP1 POP SWAP2 SWAP1 POP JUMP JUMPDEST PUSH1 0x0 PUSH1 0x20 DUP3 ADD SWAP1 POP DUP2 DUP2 SUB PUSH1 0x0 DUP4 ADD MSTORE PUSH2 0x25B4 DUP2 PUSH2 0x21D9 JUMP JUMPDEST SWAP1 POP SWAP2 SWAP1 POP JUMP JUMPDEST PUSH1 0x0 PUSH1 0x20 DUP3 ADD SWAP1 POP DUP2 DUP2 SUB PUSH1 0x0 DUP4 ADD MSTORE PUSH2 0x25D4 DUP2 PUSH2 0x21FC JUMP JUMPDEST SWAP1 POP SWAP2 SWAP1 POP JUMP JUMPDEST PUSH1 0x0 PUSH1 0x20 DUP3 ADD SWAP1 POP PUSH2 0x25F0 PUSH1 0x0 DUP4 ADD DUP5 PUSH2 0x2307 JUMP JUMPDEST SWAP3 SWAP2 POP POP JUMP JUMPDEST PUSH1 0x0 PUSH1 0xC0 DUP3 ADD SWAP1 POP PUSH2 0x260B PUSH1 0x0 DUP4 ADD DUP10 PUSH2 0x2307 JUMP JUMPDEST DUP2 DUP2 SUB PUSH1 0x20 DUP4 ADD MSTORE PUSH2 0x261D DUP2 DUP9 PUSH2 0x2065 JUMP JUMPDEST SWAP1 POP DUP2 DUP2 SUB PUSH1 0x40 DUP4 ADD MSTORE PUSH2 0x2631 DUP2 DUP8 PUSH2 0x2065 JUMP JUMPDEST SWAP1 POP DUP2 DUP2 SUB PUSH1 0x60 DUP4 ADD MSTORE PUSH2 0x2645 DUP2 DUP7 PUSH2 0x2065 JUMP JUMPDEST SWAP1 POP PUSH2 0x2654 PUSH1 0x80 DUP4 ADD DUP6 PUSH2 0x201D JUMP JUMPDEST PUSH2 0x2661 PUSH1 0xA0 DUP4 ADD DUP5 PUSH2 0x2307 JUMP JUMPDEST SWAP8 SWAP7 POP POP POP POP POP POP POP JUMP JUMPDEST PUSH1 0x0 PUSH2 0x2676 PUSH2 0x2687 JUMP JUMPDEST SWAP1 POP PUSH2 0x2682 DUP3 DUP3 PUSH2 0x28DC JUMP JUMPDEST SWAP2 SWAP1 POP JUMP JUMPDEST PUSH1 0x0 PUSH1 0x40 MLOAD SWAP1 POP SWAP1 JUMP JUMPDEST PUSH1 0x0 PUSH8 0xFFFFFFFFFFFFFFFF DUP3 GT ISZERO PUSH2 0x26AC JUMPI PUSH2 0x26AB PUSH2 0x29F3 JUMP JUMPDEST JUMPDEST PUSH2 0x26B5 DUP3 PUSH2 0x2A36 JUMP JUMPDEST SWAP1 POP PUSH1 0x20 DUP2 ADD SWAP1 POP SWAP2 SWAP1 POP JUMP JUMPDEST PUSH1 0x0 DUP2 SWAP1 POP PUSH1 0x20 DUP3 ADD SWAP1 POP SWAP2 SWAP1 POP JUMP JUMPDEST PUSH1 0x0 DUP2 MLOAD SWAP1 POP SWAP2 SWAP1 POP JUMP JUMPDEST PUSH1 0x0 DUP2 MLOAD SWAP1 POP SWAP2 SWAP1 POP JUMP JUMPDEST PUSH1 0x0 PUSH1 0x20 DUP3 ADD SWAP1 POP SWAP2 SWAP1 POP JUMP JUMPDEST PUSH1 0x0 DUP3 DUP3 MSTORE PUSH1 0x20 DUP3 ADD SWAP1 POP SWAP3 SWAP2 POP POP JUMP JUMPDEST PUSH1 0x0 DUP3 DUP3 MSTORE PUSH1 0x20 DUP3 ADD SWAP1 POP SWAP3 SWAP2 POP POP JUMP JUMPDEST PUSH1 0x0 DUP3 DUP3 MSTORE PUSH1 0x20 DUP3 ADD SWAP1 POP SWAP3 SWAP2 POP POP JUMP JUMPDEST PUSH1 0x0 PUSH2 0x2733 DUP3 PUSH2 0x2851 JUMP JUMPDEST SWAP2 POP PUSH2 0x273E DUP4 PUSH2 0x2851 JUMP JUMPDEST SWAP3 POP DUP3 PUSH32 0xFFFFFFFFFFFFFFFFFFFFFFFFFFFFFFFFFFFFFFFFFFFFFFFFFFFFFFFFFFFFFFFF SUB DUP3 GT ISZERO PUSH2 0x2773 JUMPI PUSH2 0x2772 PUSH2 0x2937 JUMP JUMPDEST JUMPDEST DUP3 DUP3 ADD SWAP1 POP SWAP3 SWAP2 POP POP JUMP JUMPDEST PUSH1 0x0 PUSH2 0x2789 DUP3 PUSH2 0x2851 JUMP JUMPDEST SWAP2 POP PUSH2 0x2794 DUP4 PUSH2 0x2851 JUMP JUMPDEST SWAP3 POP DUP3 PUSH2 0x27A4 JUMPI PUSH2 0x27A3 PUSH2 0x2966 JUMP JUMPDEST JUMPDEST DUP3 DUP3 DIV SWAP1 POP SWAP3 SWAP2 POP POP JUMP JUMPDEST PUSH1 0x0 PUSH2 0x27BA DUP3 PUSH2 0x2851 JUMP JUMPDEST SWAP2 POP PUSH2 0x27C5 DUP4 PUSH2 0x2851 JUMP JUMPDEST SWAP3 POP DUP2 PUSH32 0xFFFFFFFFFFFFFFFFFFFFFFFFFFFFFFFFFFFFFFFFFFFFFFFFFFFFFFFFFFFFFFFF DIV DUP4 GT DUP3 ISZERO ISZERO AND ISZERO PUSH2 0x27FE JUMPI PUSH2 0x27FD PUSH2 0x2937 JUMP JUMPDEST JUMPDEST DUP3 DUP3 MUL SWAP1 POP SWAP3 SWAP2 POP POP JUMP JUMPDEST PUSH1 0x0 PUSH2 0x2814 DUP3 PUSH2 0x2831 JUMP JUMPDEST SWAP1 POP SWAP2 SWAP1 POP JUMP JUMPDEST PUSH1 0x0 DUP2 ISZERO ISZERO SWAP1 POP SWAP2 SWAP1 POP JUMP JUMPDEST PUSH1 0x0 DUP2 SWAP1 POP SWAP2 SWAP1 POP JUMP JUMPDEST PUSH1 0x0 PUSH20 0xFFFFFFFFFFFFFFFFFFFFFFFFFFFFFFFFFFFFFFFF DUP3 AND SWAP1 POP SWAP2 SWAP1 POP JUMP JUMPDEST PUSH1 0x0 DUP2 SWAP1 POP SWAP2 SWAP1 POP JUMP JUMPDEST PUSH1 0x0 PUSH1 0xFF DUP3 AND SWAP1 POP SWAP2 SWAP1 POP JUMP JUMPDEST DUP3 DUP2 DUP4 CALLDATACOPY PUSH1 0x0 DUP4 DUP4 ADD MSTORE POP POP POP JUMP JUMPDEST PUSH1 0x0 JUMPDEST DUP4 DUP2 LT ISZERO PUSH2 0x2895 JUMPI DUP1 DUP3 ADD MLOAD DUP2 DUP5 ADD MSTORE PUSH1 0x20 DUP2 ADD SWAP1 POP PUSH2 0x287A JUMP JUMPDEST DUP4 DUP2 GT ISZERO PUSH2 0x28A4 JUMPI PUSH1 0x0 DUP5 DUP5 ADD MSTORE JUMPDEST POP POP POP POP JUMP JUMPDEST PUSH1 0x0 PUSH1 0x2 DUP3 DIV SWAP1 POP PUSH1 0x1 DUP3 AND DUP1 PUSH2 0x28C2 JUMPI PUSH1 0x7F DUP3 AND SWAP2 POP JUMPDEST PUSH1 0x20 DUP3 LT DUP2 EQ ISZERO PUSH2 0x28D6 JUMPI PUSH2 0x28D5 PUSH2 0x2995 JUMP JUMPDEST JUMPDEST POP SWAP2 SWAP1 POP JUMP JUMPDEST PUSH2 0x28E5 DUP3 PUSH2 0x2A36 JUMP JUMPDEST DUP2 ADD DUP2 DUP2 LT PUSH8 0xFFFFFFFFFFFFFFFF DUP3 GT OR ISZERO PUSH2 0x2904 JUMPI PUSH2 0x2903 PUSH2 0x29F3 JUMP JUMPDEST JUMPDEST DUP1 PUSH1 0x40 MSTORE POP POP POP JUMP JUMPDEST PUSH1 0x0 PUSH2 0x2918 DUP3 PUSH2 0x285B JUMP JUMPDEST SWAP2 POP PUSH1 0xFF DUP3 EQ ISZERO PUSH2 0x292C JUMPI PUSH2 0x292B PUSH2 0x2937 JUMP JUMPDEST JUMPDEST PUSH1 0x1 DUP3 ADD SWAP1 POP SWAP2 SWAP1 POP JUMP JUMPDEST PUSH32 0x4E487B7100000000000000000000000000000000000000000000000000000000 PUSH1 0x0 MSTORE PUSH1 0x11 PUSH1 0x4 MSTORE PUSH1 0x24 PUSH1 0x0 REVERT JUMPDEST PUSH32 0x4E487B7100000000000000000000000000000000000000000000000000000000 PUSH1 0x0 MSTORE PUSH1 0x12 PUSH1 0x4 MSTORE PUSH1 0x24 PUSH1 0x0 REVERT JUMPDEST PUSH32 0x4E487B7100000000000000000000000000000000000000000000000000000000 PUSH1 0x0 MSTORE PUSH1 0x22 PUSH1 0x4 MSTORE PUSH1 0x24 PUSH1 0x0 REVERT JUMPDEST PUSH32 0x4E487B7100000000000000000000000000000000000000000000000000000000 PUSH1 0x0 MSTORE PUSH1 0x32 PUSH1 0x4 MSTORE PUSH1 0x24 PUSH1 0x0 REVERT JUMPDEST PUSH32 0x4E487B7100000000000000000000000000000000000000000000000000000000 PUSH1 0x0 MSTORE PUSH1 0x41 PUSH1 0x4 MSTORE PUSH1 0x24 PUSH1 0x0 REVERT JUMPDEST PUSH1 0x0 DUP1 REVERT JUMPDEST PUSH1 0x0 DUP1 REVERT JUMPDEST PUSH1 0x0 DUP1 REVERT JUMPDEST PUSH1 0x0 DUP1 REVERT JUMPDEST PUSH1 0x0 PUSH1 0x1F NOT PUSH1 0x1F DUP4 ADD AND SWAP1 POP SWAP2 SWAP1 POP JUMP JUMPDEST PUSH32 0x526563697069656E7420697320616C7265616479207265676973746572656400 PUSH1 0x0 DUP3 ADD MSTORE POP JUMP JUMPDEST PUSH32 0x596F75206172656E277420617574686F72697A6520746F20636F6D70696C6520 PUSH1 0x0 DUP3 ADD MSTORE PUSH32 0x42756E646C650000000000000000000000000000000000000000000000000000 PUSH1 0x20 DUP3 ADD MSTORE POP JUMP JUMPDEST PUSH32 0x596F7520616C72656164792073656E74206120726573706F6E73652E00000000 PUSH1 0x0 DUP3 ADD MSTORE POP JUMP JUMPDEST PUSH32 0x496E69746961746F722063616E277420766F7465210000000000000000000000 PUSH1 0x0 DUP3 ADD MSTORE POP JUMP JUMPDEST PUSH32 0x596F7520617265206E6F74207265676973746572656420746F20766F74650000 PUSH1 0x0 DUP3 ADD MSTORE POP JUMP JUMPDEST PUSH32 0x50726F706F73616C206861732072656163686564206974732065787069727920 PUSH1 0x0 DUP3 ADD MSTORE PUSH32 0x6461746500000000000000000000000000000000000000000000000000000000 PUSH1 0x20 DUP3 ADD MSTORE POP JUMP JUMPDEST PUSH32 0x4F6E6C7920696E69746961746F722063616E2072656769737465722061207265 PUSH1 0x0 DUP3 ADD MSTORE PUSH32 0x63697069656E742E000000000000000000000000000000000000000000000000 PUSH1 0x20 DUP3 ADD MSTORE POP JUMP JUMPDEST PUSH32 0x596F75206172656E277420496E69746961746F72000000000000000000000000 PUSH1 0x0 DUP3 ADD MSTORE POP JUMP JUMPDEST PUSH32 0x5665726469637420686173206E6F74206265656E207265616368656420796574 PUSH1 0x0 DUP3 ADD MSTORE POP JUMP JUMPDEST PUSH32 0x566F74696E672068617320657870697265640000000000000000000000000000 PUSH1 0x0 DUP3 ADD MSTORE POP JUMP JUMPDEST PUSH32 0x436F6E73656E7375732068617320616C7265616479206265656E2063616C6375 PUSH1 0x0 DUP3 ADD MSTORE PUSH32 0x6C61746564000000000000000000000000000000000000000000000000000000 PUSH1 0x20 DUP3 ADD MSTORE POP JUMP JUMPDEST PUSH2 0x2CAB DUP2 PUSH2 0x2809 JUMP JUMPDEST DUP2 EQ PUSH2 0x2CB6 JUMPI PUSH1 0x0 DUP1 REVERT JUMPDEST POP JUMP JUMPDEST PUSH2 0x2CC2 DUP2 PUSH2 0x2827 JUMP JUMPDEST DUP2 EQ PUSH2 0x2CCD JUMPI PUSH1 0x0 DUP1 REVERT JUMPDEST POP JUMP JUMPDEST PUSH2 0x2CD9 DUP2 PUSH2 0x2851 JUMP JUMPDEST DUP2 EQ PUSH2 0x2CE4 JUMPI PUSH1 0x0 DUP1 REVERT JUMPDEST POP JUMP INVALID LOG2 PUSH5 0x6970667358 0x22 SLT KECCAK256 PUSH5 0x13E733389C NUMBER 0xA9 SMOD DUP9 0xC9 0xA7 DUP11 0x4E 0x5D PUSH19 0xA1DCDE0ADEB43FC136B85522B02D753564736F PUSH13 0x63430008070033000000000000 "
				},
				"gasEstimates": {
					"creation": {
						"codeDepositCost": "2309800",
						"executionCost": "infinite",
						"totalCost": "infinite"
					},
					"external": {
						"BusinessRequirement()": "2495",
						"Consensus()": "infinite",
						"RegisterVoter(address)": "131017",
						"Vote(string)": "infinite",
						"checkConsistency(string,uint256,uint256,bytes32)": "infinite",
						"contractAddress()": "2621",
						"getIsCompiled()": "2502",
						"getParameters()": "infinite",
						"getParameters2(address)": "infinite",
						"getValues()": "infinite",
						"initiator()": "2559",
						"keys(uint256)": "4980",
						"numApprovals()": "2496",
						"proposal()": "infinite",
						"retrieve_bundle()": "infinite",
						"voters(uint256)": "infinite",
						"voters_map(address)": "infinite"
					}
				},
				"methodIdentifiers": {
					"BusinessRequirement()": "d77aa749",
					"Consensus()": "95b02dfa",
					"RegisterVoter(address)": "15fe6f1b",
					"Vote(string)": "323082d7",
					"checkConsistency(string,uint256,uint256,bytes32)": "9d6a3125",
					"contractAddress()": "f6b4dfb4",
					"getIsCompiled()": "760297e9",
					"getParameters()": "a5ea11da",
					"getParameters2(address)": "5361a0ea",
					"getValues()": "19eb4a90",
					"initiator()": "5c39fcc1",
					"keys(uint256)": "0cb6aaf1",
					"numApprovals()": "7403c5e5",
					"proposal()": "753ec103",
					"retrieve_bundle()": "82316745",
					"voters(uint256)": "da58c7d9",
					"voters_map(address)": "9aa4bbdd"
				}
			},
			"storageLayout": {
				"storage": [
					{
						"astId": 23,
						"contract": "contracts/BusinessConsensus.sol:BusinessConsensus",
						"label": "contractAddress",
						"offset": 0,
						"slot": "0",
						"type": "t_address"
					},
					{
						"astId": 25,
						"contract": "contracts/BusinessConsensus.sol:BusinessConsensus",
						"label": "initiator",
						"offset": 0,
						"slot": "1",
						"type": "t_address"
					},
					{
						"astId": 28,
						"contract": "contracts/BusinessConsensus.sol:BusinessConsensus",
						"label": "keys",
						"offset": 0,
						"slot": "2",
						"type": "t_array(t_address)dyn_storage"
					},
					{
						"astId": 30,
						"contract": "contracts/BusinessConsensus.sol:BusinessConsensus",
						"label": "expiryDate",
						"offset": 0,
						"slot": "3",
						"type": "t_uint256"
					},
					{
						"astId": 32,
						"contract": "contracts/BusinessConsensus.sol:BusinessConsensus",
						"label": "BusinessRequirement",
						"offset": 0,
						"slot": "4",
						"type": "t_uint256"
					},
					{
						"astId": 34,
						"contract": "contracts/BusinessConsensus.sol:BusinessConsensus",
						"label": "numApprovals",
						"offset": 0,
						"slot": "5",
						"type": "t_uint256"
					},
					{
						"astId": 36,
						"contract": "contracts/BusinessConsensus.sol:BusinessConsensus",
						"label": "isCompiled",
						"offset": 0,
						"slot": "6",
						"type": "t_bool"
					},
					{
						"astId": 38,
						"contract": "contracts/BusinessConsensus.sol:BusinessConsensus",
						"label": "finalVerdict",
						"offset": 0,
						"slot": "7",
						"type": "t_bytes32"
					},
					{
						"astId": 42,
						"contract": "contracts/BusinessConsensus.sol:BusinessConsensus",
						"label": "voters",
						"offset": 0,
						"slot": "8",
						"type": "t_array(t_struct(Voter)8_storage)dyn_storage"
					},
					{
						"astId": 47,
						"contract": "contracts/BusinessConsensus.sol:BusinessConsensus",
						"label": "voters_map",
						"offset": 0,
						"slot": "9",
						"type": "t_mapping(t_address,t_struct(Voter)8_storage)"
					},
					{
						"astId": 50,
						"contract": "contracts/BusinessConsensus.sol:BusinessConsensus",
						"label": "proposal",
						"offset": 0,
						"slot": "10",
						"type": "t_struct(Proposal)21_storage"
					}
				],
				"types": {
					"t_address": {
						"encoding": "inplace",
						"label": "address",
						"numberOfBytes": "20"
					},
					"t_array(t_address)dyn_storage": {
						"base": "t_address",
						"encoding": "dynamic_array",
						"label": "address[]",
						"numberOfBytes": "32"
					},
					"t_array(t_struct(Voter)8_storage)dyn_storage": {
						"base": "t_struct(Voter)8_storage",
						"encoding": "dynamic_array",
						"label": "struct BusinessConsensus.Voter[]",
						"numberOfBytes": "32"
					},
					"t_bool": {
						"encoding": "inplace",
						"label": "bool",
						"numberOfBytes": "1"
					},
					"t_bytes32": {
						"encoding": "inplace",
						"label": "bytes32",
						"numberOfBytes": "32"
					},
					"t_mapping(t_address,t_struct(Voter)8_storage)": {
						"encoding": "mapping",
						"key": "t_address",
						"label": "mapping(address => struct BusinessConsensus.Voter)",
						"numberOfBytes": "32",
						"value": "t_struct(Voter)8_storage"
					},
					"t_string_storage": {
						"encoding": "bytes",
						"label": "string",
						"numberOfBytes": "32"
					},
					"t_struct(Proposal)21_storage": {
						"encoding": "inplace",
						"label": "struct BusinessConsensus.Proposal",
						"members": [
							{
								"astId": 10,
								"contract": "contracts/BusinessConsensus.sol:BusinessConsensus",
								"label": "voteCount",
								"offset": 0,
								"slot": "0",
								"type": "t_uint256"
							},
							{
								"astId": 12,
								"contract": "contracts/BusinessConsensus.sol:BusinessConsensus",
								"label": "messageID",
								"offset": 0,
								"slot": "1",
								"type": "t_string_storage"
							},
							{
								"astId": 14,
								"contract": "contracts/BusinessConsensus.sol:BusinessConsensus",
								"label": "messageDate",
								"offset": 0,
								"slot": "2",
								"type": "t_string_storage"
							},
							{
								"astId": 16,
								"contract": "contracts/BusinessConsensus.sol:BusinessConsensus",
								"label": "subject",
								"offset": 0,
								"slot": "3",
								"type": "t_string_storage"
							},
							{
								"astId": 18,
								"contract": "contracts/BusinessConsensus.sol:BusinessConsensus",
								"label": "contents",
								"offset": 0,
								"slot": "4",
								"type": "t_bytes32"
							},
							{
								"astId": 20,
								"contract": "contracts/BusinessConsensus.sol:BusinessConsensus",
								"label": "expiryLength",
								"offset": 0,
								"slot": "5",
								"type": "t_uint256"
							}
						],
						"numberOfBytes": "192"
					},
					"t_struct(Voter)8_storage": {
						"encoding": "inplace",
						"label": "struct BusinessConsensus.Voter",
						"members": [
							{
								"astId": 3,
								"contract": "contracts/BusinessConsensus.sol:BusinessConsensus",
								"label": "voted",
								"offset": 0,
								"slot": "0",
								"type": "t_bool"
							},
							{
								"astId": 5,
								"contract": "contracts/BusinessConsensus.sol:BusinessConsensus",
								"label": "vote",
								"offset": 1,
								"slot": "0",
								"type": "t_bool"
							},
							{
								"astId": 7,
								"contract": "contracts/BusinessConsensus.sol:BusinessConsensus",
								"label": "recipient",
								"offset": 2,
								"slot": "0",
								"type": "t_address"
							}
						],
						"numberOfBytes": "32"
					},
					"t_uint256": {
						"encoding": "inplace",
						"label": "uint256",
						"numberOfBytes": "32"
					}
				}
			},
			"userdoc": {
				"kind": "user",
				"methods": {
					"Consensus()": {
						"notice": "compile all relevant information into a Bundle"
					}
				},
				"version": 1
			}
		}
	}
}