{
	"contracts/MotherContract.sol": {
		"MotherContract": {
			"abi": [
				{
					"inputs": [
						{
							"internalType": "string",
							"name": "",
							"type": "string"
						}
					],
					"name": "businessProposals",
					"outputs": [
						{
							"internalType": "bytes32",
							"name": "",
							"type": "bytes32"
						}
					],
					"stateMutability": "view",
					"type": "function"
				},
				{
					"inputs": [
						{
							"internalType": "address",
							"name": "contractAddress",
							"type": "address"
						}
					],
					"name": "createContractInstance",
					"outputs": [],
					"stateMutability": "nonpayable",
					"type": "function"
				},
				{
					"inputs": [
						{
							"internalType": "string",
							"name": "_messageID",
							"type": "string"
						}
					],
					"name": "getContractAddress",
					"outputs": [
						{
							"internalType": "address",
							"name": "",
							"type": "address"
						}
					],
					"stateMutability": "view",
					"type": "function"
				},
				{
					"inputs": [
						{
							"internalType": "bytes32",
							"name": "",
							"type": "bytes32"
						}
					],
					"name": "userContractAddress",
					"outputs": [
						{
							"internalType": "address",
							"name": "",
							"type": "address"
						}
					],
					"stateMutability": "view",
					"type": "function"
				}
			],
			"devdoc": {
				"kind": "dev",
				"methods": {},
				"version": 1
			},
			"evm": {
				"assembly": "    /* \"contracts/MotherContract.sol\":68:700  contract MotherContract{\r... */\n  mstore(0x40, 0x80)\n  callvalue\n  dup1\n  iszero\n  tag_1\n  jumpi\n  0x00\n  dup1\n  revert\ntag_1:\n  pop\n  dataSize(sub_0)\n  dup1\n  dataOffset(sub_0)\n  0x00\n  codecopy\n  0x00\n  return\nstop\n\nsub_0: assembly {\n        /* \"contracts/MotherContract.sol\":68:700  contract MotherContract{\r... */\n      mstore(0x40, 0x80)\n      callvalue\n      dup1\n      iszero\n      tag_1\n      jumpi\n      0x00\n      dup1\n      revert\n    tag_1:\n      pop\n      jumpi(tag_2, lt(calldatasize, 0x04))\n      shr(0xe0, calldataload(0x00))\n      dup1\n      0x04433bbc\n      eq\n      tag_3\n      jumpi\n      dup1\n      0x089a4c60\n      eq\n      tag_4\n      jumpi\n      dup1\n      0xd785403c\n      eq\n      tag_5\n      jumpi\n      dup1\n      0xe9c30288\n      eq\n      tag_6\n      jumpi\n    tag_2:\n      0x00\n      dup1\n      revert\n        /* \"contracts/MotherContract.sol\":505:697  function getContractAddress(string memory _messageID) external view returns (address){\r... */\n    tag_3:\n      tag_7\n      0x04\n      dup1\n      calldatasize\n      sub\n      dup2\n      add\n      swap1\n      tag_8\n      swap2\n      swap1\n      tag_9\n      jump\t// in\n    tag_8:\n      tag_10\n      jump\t// in\n    tag_7:\n      mload(0x40)\n      tag_11\n      swap2\n      swap1\n      tag_12\n      jump\t// in\n    tag_11:\n      mload(0x40)\n      dup1\n      swap2\n      sub\n      swap1\n      return\n        /* \"contracts/MotherContract.sol\":159:210  mapping(string => bytes32) public businessProposals */\n    tag_4:\n      tag_13\n      0x04\n      dup1\n      calldatasize\n      sub\n      dup2\n      add\n      swap1\n      tag_14\n      swap2\n      swap1\n      tag_9\n      jump\t// in\n    tag_14:\n      tag_15\n      jump\t// in\n    tag_13:\n      mload(0x40)\n      tag_16\n      swap2\n      swap1\n      tag_17\n      jump\t// in\n    tag_16:\n      mload(0x40)\n      dup1\n      swap2\n      sub\n      swap1\n      return\n        /* \"contracts/MotherContract.sol\":217:499  function createContractInstance(address contractAddress) external {\r... */\n    tag_5:\n      tag_18\n      0x04\n      dup1\n      calldatasize\n      sub\n      dup2\n      add\n      swap1\n      tag_19\n      swap2\n      swap1\n      tag_20\n      jump\t// in\n    tag_19:\n      tag_21\n      jump\t// in\n    tag_18:\n      stop\n        /* \"contracts/MotherContract.sol\":98:152  mapping(bytes32 => address) public userContractAddress */\n    tag_6:\n      tag_22\n      0x04\n      dup1\n      calldatasize\n      sub\n      dup2\n      add\n      swap1\n      tag_23\n      swap2\n      swap1\n      tag_24\n      jump\t// in\n    tag_23:\n      tag_25\n      jump\t// in\n    tag_22:\n      mload(0x40)\n      tag_26\n      swap2\n      swap1\n      tag_12\n      jump\t// in\n    tag_26:\n      mload(0x40)\n      dup1\n      swap2\n      sub\n      swap1\n      return\n        /* \"contracts/MotherContract.sol\":505:697  function getContractAddress(string memory _messageID) external view returns (address){\r... */\n    tag_10:\n        /* \"contracts/MotherContract.sol\":582:589  address */\n      0x00\n        /* \"contracts/MotherContract.sol\":599:614  bytes32 tempVar */\n      dup1\n        /* \"contracts/MotherContract.sol\":633:643  _messageID */\n      dup3\n        /* \"contracts/MotherContract.sol\":617:645  keccak256(bytes(_messageID)) */\n      dup1\n      mload\n      swap1\n      0x20\n      add\n      keccak256\n        /* \"contracts/MotherContract.sol\":599:645  bytes32 tempVar = keccak256(bytes(_messageID)) */\n      swap1\n      pop\n        /* \"contracts/MotherContract.sol\":661:680  userContractAddress */\n      0x00\n        /* \"contracts/MotherContract.sol\":661:689  userContractAddress[tempVar] */\n      dup1\n        /* \"contracts/MotherContract.sol\":681:688  tempVar */\n      dup3\n        /* \"contracts/MotherContract.sol\":661:689  userContractAddress[tempVar] */\n      dup2\n      mstore\n      0x20\n      add\n      swap1\n      dup2\n      mstore\n      0x20\n      add\n      0x00\n      keccak256\n      0x00\n      swap1\n      sload\n      swap1\n      0x0100\n      exp\n      swap1\n      div\n      0xffffffffffffffffffffffffffffffffffffffff\n      and\n        /* \"contracts/MotherContract.sol\":654:689  return userContractAddress[tempVar] */\n      swap2\n      pop\n      pop\n        /* \"contracts/MotherContract.sol\":505:697  function getContractAddress(string memory _messageID) external view returns (address){\r... */\n      swap2\n      swap1\n      pop\n      jump\t// out\n        /* \"contracts/MotherContract.sol\":159:210  mapping(string => bytes32) public businessProposals */\n    tag_15:\n      0x01\n      dup2\n      dup1\n      mload\n      0x20\n      dup2\n      add\n      dup3\n      add\n      dup1\n      mload\n      dup5\n      dup3\n      mstore\n      0x20\n      dup4\n      add\n      0x20\n      dup6\n      add\n      keccak256\n      dup2\n      dup4\n      mstore\n      dup1\n      swap6\n      pop\n      pop\n      pop\n      pop\n      pop\n      pop\n      0x00\n      swap2\n      pop\n      swap1\n      pop\n      sload\n      dup2\n      jump\t// out\n        /* \"contracts/MotherContract.sol\":217:499  function createContractInstance(address contractAddress) external {\r... */\n    tag_21:\n        /* \"contracts/MotherContract.sol\":292:323  BusinessConsensus smartContract */\n      0x00\n        /* \"contracts/MotherContract.sol\":344:359  contractAddress */\n      dup2\n        /* \"contracts/MotherContract.sol\":292:360  BusinessConsensus smartContract = BusinessConsensus(contractAddress) */\n      swap1\n      pop\n        /* \"contracts/MotherContract.sol\":369:387  bytes32 proposalID */\n      0x00\n        /* \"contracts/MotherContract.sol\":406:419  smartContract */\n      dup2\n        /* \"contracts/MotherContract.sol\":406:429  smartContract.getValues */\n      0xffffffffffffffffffffffffffffffffffffffff\n      and\n      0x19eb4a90\n        /* \"contracts/MotherContract.sol\":406:431  smartContract.getValues() */\n      mload(0x40)\n      dup2\n      0xffffffff\n      and\n      0xe0\n      shl\n      dup2\n      mstore\n      0x04\n      add\n      0x00\n      mload(0x40)\n      dup1\n      dup4\n      sub\n      dup2\n      dup7\n      dup1\n      extcodesize\n      iszero\n      dup1\n      iszero\n      tag_29\n      jumpi\n      0x00\n      dup1\n      revert\n    tag_29:\n      pop\n      gas\n      staticcall\n      iszero\n      dup1\n      iszero\n      tag_31\n      jumpi\n      returndatasize\n      0x00\n      dup1\n      returndatacopy\n      revert(0x00, returndatasize)\n    tag_31:\n      pop\n      pop\n      pop\n      pop\n      mload(0x40)\n      returndatasize\n      0x00\n      dup3\n      returndatacopy\n      returndatasize\n      not(0x1f)\n      0x1f\n      dup3\n      add\n      and\n      dup3\n      add\n      dup1\n      0x40\n      mstore\n      pop\n      dup2\n      add\n      swap1\n      tag_32\n      swap2\n      swap1\n      tag_33\n      jump\t// in\n    tag_32:\n        /* \"contracts/MotherContract.sol\":390:433  keccak256(bytes(smartContract.getValues())) */\n      dup1\n      mload\n      swap1\n      0x20\n      add\n      keccak256\n        /* \"contracts/MotherContract.sol\":369:433  bytes32 proposalID = keccak256(bytes(smartContract.getValues())) */\n      swap1\n      pop\n        /* \"contracts/MotherContract.sol\":476:491  contractAddress */\n      dup3\n        /* \"contracts/MotherContract.sol\":442:461  userContractAddress */\n      0x00\n        /* \"contracts/MotherContract.sol\":442:473  userContractAddress[proposalID] */\n      dup1\n        /* \"contracts/MotherContract.sol\":462:472  proposalID */\n      dup4\n        /* \"contracts/MotherContract.sol\":442:473  userContractAddress[proposalID] */\n      dup2\n      mstore\n      0x20\n      add\n      swap1\n      dup2\n      mstore\n      0x20\n      add\n      0x00\n      keccak256\n      0x00\n        /* \"contracts/MotherContract.sol\":442:491  userContractAddress[proposalID] = contractAddress */\n      0x0100\n      exp\n      dup2\n      sload\n      dup2\n      0xffffffffffffffffffffffffffffffffffffffff\n      mul\n      not\n      and\n      swap1\n      dup4\n      0xffffffffffffffffffffffffffffffffffffffff\n      and\n      mul\n      or\n      swap1\n      sstore\n      pop\n        /* \"contracts/MotherContract.sol\":283:499  {\r... */\n      pop\n      pop\n        /* \"contracts/MotherContract.sol\":217:499  function createContractInstance(address contractAddress) external {\r... */\n      pop\n      jump\t// out\n        /* \"contracts/MotherContract.sol\":98:152  mapping(bytes32 => address) public userContractAddress */\n    tag_25:\n      mstore(0x20, 0x00)\n      dup1\n      0x00\n      mstore\n      keccak256(0x00, 0x40)\n      0x00\n      swap2\n      pop\n      sload\n      swap1\n      0x0100\n      exp\n      swap1\n      div\n      0xffffffffffffffffffffffffffffffffffffffff\n      and\n      dup2\n      jump\t// out\n        /* \"#utility.yul\":7:419   */\n    tag_35:\n        /* \"#utility.yul\":85:90   */\n      0x00\n        /* \"#utility.yul\":110:176   */\n      tag_37\n        /* \"#utility.yul\":126:175   */\n      tag_38\n        /* \"#utility.yul\":168:174   */\n      dup5\n        /* \"#utility.yul\":126:175   */\n      tag_39\n      jump\t// in\n    tag_38:\n        /* \"#utility.yul\":110:176   */\n      tag_40\n      jump\t// in\n    tag_37:\n        /* \"#utility.yul\":101:176   */\n      swap1\n      pop\n        /* \"#utility.yul\":199:205   */\n      dup3\n        /* \"#utility.yul\":192:197   */\n      dup2\n        /* \"#utility.yul\":185:206   */\n      mstore\n        /* \"#utility.yul\":237:241   */\n      0x20\n        /* \"#utility.yul\":230:235   */\n      dup2\n        /* \"#utility.yul\":226:242   */\n      add\n        /* \"#utility.yul\":275:278   */\n      dup5\n        /* \"#utility.yul\":266:272   */\n      dup5\n        /* \"#utility.yul\":261:264   */\n      dup5\n        /* \"#utility.yul\":257:273   */\n      add\n        /* \"#utility.yul\":254:279   */\n      gt\n        /* \"#utility.yul\":251:363   */\n      iszero\n      tag_41\n      jumpi\n        /* \"#utility.yul\":282:361   */\n      tag_42\n      tag_43\n      jump\t// in\n    tag_42:\n        /* \"#utility.yul\":251:363   */\n    tag_41:\n        /* \"#utility.yul\":372:413   */\n      tag_44\n        /* \"#utility.yul\":406:412   */\n      dup5\n        /* \"#utility.yul\":401:404   */\n      dup3\n        /* \"#utility.yul\":396:399   */\n      dup6\n        /* \"#utility.yul\":372:413   */\n      tag_45\n      jump\t// in\n    tag_44:\n        /* \"#utility.yul\":91:419   */\n      pop\n        /* \"#utility.yul\":7:419   */\n      swap4\n      swap3\n      pop\n      pop\n      pop\n      jump\t// out\n        /* \"#utility.yul\":425:846   */\n    tag_46:\n        /* \"#utility.yul\":514:519   */\n      0x00\n        /* \"#utility.yul\":539:605   */\n      tag_48\n        /* \"#utility.yul\":555:604   */\n      tag_49\n        /* \"#utility.yul\":597:603   */\n      dup5\n        /* \"#utility.yul\":555:604   */\n      tag_39\n      jump\t// in\n    tag_49:\n        /* \"#utility.yul\":539:605   */\n      tag_40\n      jump\t// in\n    tag_48:\n        /* \"#utility.yul\":530:605   */\n      swap1\n      pop\n        /* \"#utility.yul\":628:634   */\n      dup3\n        /* \"#utility.yul\":621:626   */\n      dup2\n        /* \"#utility.yul\":614:635   */\n      mstore\n        /* \"#utility.yul\":666:670   */\n      0x20\n        /* \"#utility.yul\":659:664   */\n      dup2\n        /* \"#utility.yul\":655:671   */\n      add\n        /* \"#utility.yul\":704:707   */\n      dup5\n        /* \"#utility.yul\":695:701   */\n      dup5\n        /* \"#utility.yul\":690:693   */\n      dup5\n        /* \"#utility.yul\":686:702   */\n      add\n        /* \"#utility.yul\":683:708   */\n      gt\n        /* \"#utility.yul\":680:792   */\n      iszero\n      tag_50\n      jumpi\n        /* \"#utility.yul\":711:790   */\n      tag_51\n      tag_43\n      jump\t// in\n    tag_51:\n        /* \"#utility.yul\":680:792   */\n    tag_50:\n        /* \"#utility.yul\":801:840   */\n      tag_52\n        /* \"#utility.yul\":833:839   */\n      dup5\n        /* \"#utility.yul\":828:831   */\n      dup3\n        /* \"#utility.yul\":823:826   */\n      dup6\n        /* \"#utility.yul\":801:840   */\n      tag_53\n      jump\t// in\n    tag_52:\n        /* \"#utility.yul\":520:846   */\n      pop\n        /* \"#utility.yul\":425:846   */\n      swap4\n      swap3\n      pop\n      pop\n      pop\n      jump\t// out\n        /* \"#utility.yul\":852:991   */\n    tag_54:\n        /* \"#utility.yul\":898:903   */\n      0x00\n        /* \"#utility.yul\":936:942   */\n      dup2\n        /* \"#utility.yul\":923:943   */\n      calldataload\n        /* \"#utility.yul\":914:943   */\n      swap1\n      pop\n        /* \"#utility.yul\":952:985   */\n      tag_56\n        /* \"#utility.yul\":979:984   */\n      dup2\n        /* \"#utility.yul\":952:985   */\n      tag_57\n      jump\t// in\n    tag_56:\n        /* \"#utility.yul\":852:991   */\n      swap3\n      swap2\n      pop\n      pop\n      jump\t// out\n        /* \"#utility.yul\":997:1136   */\n    tag_58:\n        /* \"#utility.yul\":1043:1048   */\n      0x00\n        /* \"#utility.yul\":1081:1087   */\n      dup2\n        /* \"#utility.yul\":1068:1088   */\n      calldataload\n        /* \"#utility.yul\":1059:1088   */\n      swap1\n      pop\n        /* \"#utility.yul\":1097:1130   */\n      tag_60\n        /* \"#utility.yul\":1124:1129   */\n      dup2\n        /* \"#utility.yul\":1097:1130   */\n      tag_61\n      jump\t// in\n    tag_60:\n        /* \"#utility.yul\":997:1136   */\n      swap3\n      swap2\n      pop\n      pop\n      jump\t// out\n        /* \"#utility.yul\":1156:1496   */\n    tag_62:\n        /* \"#utility.yul\":1212:1217   */\n      0x00\n        /* \"#utility.yul\":1261:1264   */\n      dup3\n        /* \"#utility.yul\":1254:1258   */\n      0x1f\n        /* \"#utility.yul\":1246:1252   */\n      dup4\n        /* \"#utility.yul\":1242:1259   */\n      add\n        /* \"#utility.yul\":1238:1265   */\n      slt\n        /* \"#utility.yul\":1228:1350   */\n      tag_64\n      jumpi\n        /* \"#utility.yul\":1269:1348   */\n      tag_65\n      tag_66\n      jump\t// in\n    tag_65:\n        /* \"#utility.yul\":1228:1350   */\n    tag_64:\n        /* \"#utility.yul\":1386:1392   */\n      dup2\n        /* \"#utility.yul\":1373:1393   */\n      calldataload\n        /* \"#utility.yul\":1411:1490   */\n      tag_67\n        /* \"#utility.yul\":1486:1489   */\n      dup5\n        /* \"#utility.yul\":1478:1484   */\n      dup3\n        /* \"#utility.yul\":1471:1475   */\n      0x20\n        /* \"#utility.yul\":1463:1469   */\n      dup7\n        /* \"#utility.yul\":1459:1476   */\n      add\n        /* \"#utility.yul\":1411:1490   */\n      tag_35\n      jump\t// in\n    tag_67:\n        /* \"#utility.yul\":1402:1490   */\n      swap2\n      pop\n        /* \"#utility.yul\":1218:1496   */\n      pop\n        /* \"#utility.yul\":1156:1496   */\n      swap3\n      swap2\n      pop\n      pop\n      jump\t// out\n        /* \"#utility.yul\":1516:1871   */\n    tag_68:\n        /* \"#utility.yul\":1583:1588   */\n      0x00\n        /* \"#utility.yul\":1632:1635   */\n      dup3\n        /* \"#utility.yul\":1625:1629   */\n      0x1f\n        /* \"#utility.yul\":1617:1623   */\n      dup4\n        /* \"#utility.yul\":1613:1630   */\n      add\n        /* \"#utility.yul\":1609:1636   */\n      slt\n        /* \"#utility.yul\":1599:1721   */\n      tag_70\n      jumpi\n        /* \"#utility.yul\":1640:1719   */\n      tag_71\n      tag_66\n      jump\t// in\n    tag_71:\n        /* \"#utility.yul\":1599:1721   */\n    tag_70:\n        /* \"#utility.yul\":1750:1756   */\n      dup2\n        /* \"#utility.yul\":1744:1757   */\n      mload\n        /* \"#utility.yul\":1775:1865   */\n      tag_72\n        /* \"#utility.yul\":1861:1864   */\n      dup5\n        /* \"#utility.yul\":1853:1859   */\n      dup3\n        /* \"#utility.yul\":1846:1850   */\n      0x20\n        /* \"#utility.yul\":1838:1844   */\n      dup7\n        /* \"#utility.yul\":1834:1851   */\n      add\n        /* \"#utility.yul\":1775:1865   */\n      tag_46\n      jump\t// in\n    tag_72:\n        /* \"#utility.yul\":1766:1865   */\n      swap2\n      pop\n        /* \"#utility.yul\":1589:1871   */\n      pop\n        /* \"#utility.yul\":1516:1871   */\n      swap3\n      swap2\n      pop\n      pop\n      jump\t// out\n        /* \"#utility.yul\":1877:2206   */\n    tag_20:\n        /* \"#utility.yul\":1936:1942   */\n      0x00\n        /* \"#utility.yul\":1985:1987   */\n      0x20\n        /* \"#utility.yul\":1973:1982   */\n      dup3\n        /* \"#utility.yul\":1964:1971   */\n      dup5\n        /* \"#utility.yul\":1960:1983   */\n      sub\n        /* \"#utility.yul\":1956:1988   */\n      slt\n        /* \"#utility.yul\":1953:2072   */\n      iszero\n      tag_74\n      jumpi\n        /* \"#utility.yul\":1991:2070   */\n      tag_75\n      tag_76\n      jump\t// in\n    tag_75:\n        /* \"#utility.yul\":1953:2072   */\n    tag_74:\n        /* \"#utility.yul\":2111:2112   */\n      0x00\n        /* \"#utility.yul\":2136:2189   */\n      tag_77\n        /* \"#utility.yul\":2181:2188   */\n      dup5\n        /* \"#utility.yul\":2172:2178   */\n      dup3\n        /* \"#utility.yul\":2161:2170   */\n      dup6\n        /* \"#utility.yul\":2157:2179   */\n      add\n        /* \"#utility.yul\":2136:2189   */\n      tag_54\n      jump\t// in\n    tag_77:\n        /* \"#utility.yul\":2126:2189   */\n      swap2\n      pop\n        /* \"#utility.yul\":2082:2199   */\n      pop\n        /* \"#utility.yul\":1877:2206   */\n      swap3\n      swap2\n      pop\n      pop\n      jump\t// out\n        /* \"#utility.yul\":2212:2541   */\n    tag_24:\n        /* \"#utility.yul\":2271:2277   */\n      0x00\n        /* \"#utility.yul\":2320:2322   */\n      0x20\n        /* \"#utility.yul\":2308:2317   */\n      dup3\n        /* \"#utility.yul\":2299:2306   */\n      dup5\n        /* \"#utility.yul\":2295:2318   */\n      sub\n        /* \"#utility.yul\":2291:2323   */\n      slt\n        /* \"#utility.yul\":2288:2407   */\n      iszero\n      tag_79\n      jumpi\n        /* \"#utility.yul\":2326:2405   */\n      tag_80\n      tag_76\n      jump\t// in\n    tag_80:\n        /* \"#utility.yul\":2288:2407   */\n    tag_79:\n        /* \"#utility.yul\":2446:2447   */\n      0x00\n        /* \"#utility.yul\":2471:2524   */\n      tag_81\n        /* \"#utility.yul\":2516:2523   */\n      dup5\n        /* \"#utility.yul\":2507:2513   */\n      dup3\n        /* \"#utility.yul\":2496:2505   */\n      dup6\n        /* \"#utility.yul\":2492:2514   */\n      add\n        /* \"#utility.yul\":2471:2524   */\n      tag_58\n      jump\t// in\n    tag_81:\n        /* \"#utility.yul\":2461:2524   */\n      swap2\n      pop\n        /* \"#utility.yul\":2417:2534   */\n      pop\n        /* \"#utility.yul\":2212:2541   */\n      swap3\n      swap2\n      pop\n      pop\n      jump\t// out\n        /* \"#utility.yul\":2547:3056   */\n    tag_9:\n        /* \"#utility.yul\":2616:2622   */\n      0x00\n        /* \"#utility.yul\":2665:2667   */\n      0x20\n        /* \"#utility.yul\":2653:2662   */\n      dup3\n        /* \"#utility.yul\":2644:2651   */\n      dup5\n        /* \"#utility.yul\":2640:2663   */\n      sub\n        /* \"#utility.yul\":2636:2668   */\n      slt\n        /* \"#utility.yul\":2633:2752   */\n      iszero\n      tag_83\n      jumpi\n        /* \"#utility.yul\":2671:2750   */\n      tag_84\n      tag_76\n      jump\t// in\n    tag_84:\n        /* \"#utility.yul\":2633:2752   */\n    tag_83:\n        /* \"#utility.yul\":2819:2820   */\n      0x00\n        /* \"#utility.yul\":2808:2817   */\n      dup3\n        /* \"#utility.yul\":2804:2821   */\n      add\n        /* \"#utility.yul\":2791:2822   */\n      calldataload\n        /* \"#utility.yul\":2849:2867   */\n      0xffffffffffffffff\n        /* \"#utility.yul\":2841:2847   */\n      dup2\n        /* \"#utility.yul\":2838:2868   */\n      gt\n        /* \"#utility.yul\":2835:2952   */\n      iszero\n      tag_85\n      jumpi\n        /* \"#utility.yul\":2871:2950   */\n      tag_86\n      tag_87\n      jump\t// in\n    tag_86:\n        /* \"#utility.yul\":2835:2952   */\n    tag_85:\n        /* \"#utility.yul\":2976:3039   */\n      tag_88\n        /* \"#utility.yul\":3031:3038   */\n      dup5\n        /* \"#utility.yul\":3022:3028   */\n      dup3\n        /* \"#utility.yul\":3011:3020   */\n      dup6\n        /* \"#utility.yul\":3007:3029   */\n      add\n        /* \"#utility.yul\":2976:3039   */\n      tag_62\n      jump\t// in\n    tag_88:\n        /* \"#utility.yul\":2966:3039   */\n      swap2\n      pop\n        /* \"#utility.yul\":2762:3049   */\n      pop\n        /* \"#utility.yul\":2547:3056   */\n      swap3\n      swap2\n      pop\n      pop\n      jump\t// out\n        /* \"#utility.yul\":3062:3586   */\n    tag_33:\n        /* \"#utility.yul\":3142:3148   */\n      0x00\n        /* \"#utility.yul\":3191:3193   */\n      0x20\n        /* \"#utility.yul\":3179:3188   */\n      dup3\n        /* \"#utility.yul\":3170:3177   */\n      dup5\n        /* \"#utility.yul\":3166:3189   */\n      sub\n        /* \"#utility.yul\":3162:3194   */\n      slt\n        /* \"#utility.yul\":3159:3278   */\n      iszero\n      tag_90\n      jumpi\n        /* \"#utility.yul\":3197:3276   */\n      tag_91\n      tag_76\n      jump\t// in\n    tag_91:\n        /* \"#utility.yul\":3159:3278   */\n    tag_90:\n        /* \"#utility.yul\":3338:3339   */\n      0x00\n        /* \"#utility.yul\":3327:3336   */\n      dup3\n        /* \"#utility.yul\":3323:3340   */\n      add\n        /* \"#utility.yul\":3317:3341   */\n      mload\n        /* \"#utility.yul\":3368:3386   */\n      0xffffffffffffffff\n        /* \"#utility.yul\":3360:3366   */\n      dup2\n        /* \"#utility.yul\":3357:3387   */\n      gt\n        /* \"#utility.yul\":3354:3471   */\n      iszero\n      tag_92\n      jumpi\n        /* \"#utility.yul\":3390:3469   */\n      tag_93\n      tag_87\n      jump\t// in\n    tag_93:\n        /* \"#utility.yul\":3354:3471   */\n    tag_92:\n        /* \"#utility.yul\":3495:3569   */\n      tag_94\n        /* \"#utility.yul\":3561:3568   */\n      dup5\n        /* \"#utility.yul\":3552:3558   */\n      dup3\n        /* \"#utility.yul\":3541:3550   */\n      dup6\n        /* \"#utility.yul\":3537:3559   */\n      add\n        /* \"#utility.yul\":3495:3569   */\n      tag_68\n      jump\t// in\n    tag_94:\n        /* \"#utility.yul\":3485:3569   */\n      swap2\n      pop\n        /* \"#utility.yul\":3288:3579   */\n      pop\n        /* \"#utility.yul\":3062:3586   */\n      swap3\n      swap2\n      pop\n      pop\n      jump\t// out\n        /* \"#utility.yul\":3592:3710   */\n    tag_95:\n        /* \"#utility.yul\":3679:3703   */\n      tag_97\n        /* \"#utility.yul\":3697:3702   */\n      dup2\n        /* \"#utility.yul\":3679:3703   */\n      tag_98\n      jump\t// in\n    tag_97:\n        /* \"#utility.yul\":3674:3677   */\n      dup3\n        /* \"#utility.yul\":3667:3704   */\n      mstore\n        /* \"#utility.yul\":3592:3710   */\n      pop\n      pop\n      jump\t// out\n        /* \"#utility.yul\":3716:3834   */\n    tag_99:\n        /* \"#utility.yul\":3803:3827   */\n      tag_101\n        /* \"#utility.yul\":3821:3826   */\n      dup2\n        /* \"#utility.yul\":3803:3827   */\n      tag_102\n      jump\t// in\n    tag_101:\n        /* \"#utility.yul\":3798:3801   */\n      dup3\n        /* \"#utility.yul\":3791:3828   */\n      mstore\n        /* \"#utility.yul\":3716:3834   */\n      pop\n      pop\n      jump\t// out\n        /* \"#utility.yul\":3840:4062   */\n    tag_12:\n        /* \"#utility.yul\":3933:3937   */\n      0x00\n        /* \"#utility.yul\":3971:3973   */\n      0x20\n        /* \"#utility.yul\":3960:3969   */\n      dup3\n        /* \"#utility.yul\":3956:3974   */\n      add\n        /* \"#utility.yul\":3948:3974   */\n      swap1\n      pop\n        /* \"#utility.yul\":3984:4055   */\n      tag_104\n        /* \"#utility.yul\":4052:4053   */\n      0x00\n        /* \"#utility.yul\":4041:4050   */\n      dup4\n        /* \"#utility.yul\":4037:4054   */\n      add\n        /* \"#utility.yul\":4028:4034   */\n      dup5\n        /* \"#utility.yul\":3984:4055   */\n      tag_95\n      jump\t// in\n    tag_104:\n        /* \"#utility.yul\":3840:4062   */\n      swap3\n      swap2\n      pop\n      pop\n      jump\t// out\n        /* \"#utility.yul\":4068:4290   */\n    tag_17:\n        /* \"#utility.yul\":4161:4165   */\n      0x00\n        /* \"#utility.yul\":4199:4201   */\n      0x20\n        /* \"#utility.yul\":4188:4197   */\n      dup3\n        /* \"#utility.yul\":4184:4202   */\n      add\n        /* \"#utility.yul\":4176:4202   */\n      swap1\n      pop\n        /* \"#utility.yul\":4212:4283   */\n      tag_106\n        /* \"#utility.yul\":4280:4281   */\n      0x00\n        /* \"#utility.yul\":4269:4278   */\n      dup4\n        /* \"#utility.yul\":4265:4282   */\n      add\n        /* \"#utility.yul\":4256:4262   */\n      dup5\n        /* \"#utility.yul\":4212:4283   */\n      tag_99\n      jump\t// in\n    tag_106:\n        /* \"#utility.yul\":4068:4290   */\n      swap3\n      swap2\n      pop\n      pop\n      jump\t// out\n        /* \"#utility.yul\":4296:4425   */\n    tag_40:\n        /* \"#utility.yul\":4330:4336   */\n      0x00\n        /* \"#utility.yul\":4357:4377   */\n      tag_108\n      tag_109\n      jump\t// in\n    tag_108:\n        /* \"#utility.yul\":4347:4377   */\n      swap1\n      pop\n        /* \"#utility.yul\":4386:4419   */\n      tag_110\n        /* \"#utility.yul\":4414:4418   */\n      dup3\n        /* \"#utility.yul\":4406:4412   */\n      dup3\n        /* \"#utility.yul\":4386:4419   */\n      tag_111\n      jump\t// in\n    tag_110:\n        /* \"#utility.yul\":4296:4425   */\n      swap2\n      swap1\n      pop\n      jump\t// out\n        /* \"#utility.yul\":4431:4506   */\n    tag_109:\n        /* \"#utility.yul\":4464:4470   */\n      0x00\n        /* \"#utility.yul\":4497:4499   */\n      0x40\n        /* \"#utility.yul\":4491:4500   */\n      mload\n        /* \"#utility.yul\":4481:4500   */\n      swap1\n      pop\n        /* \"#utility.yul\":4431:4506   */\n      swap1\n      jump\t// out\n        /* \"#utility.yul\":4512:4820   */\n    tag_39:\n        /* \"#utility.yul\":4574:4578   */\n      0x00\n        /* \"#utility.yul\":4664:4682   */\n      0xffffffffffffffff\n        /* \"#utility.yul\":4656:4662   */\n      dup3\n        /* \"#utility.yul\":4653:4683   */\n      gt\n        /* \"#utility.yul\":4650:4706   */\n      iszero\n      tag_114\n      jumpi\n        /* \"#utility.yul\":4686:4704   */\n      tag_115\n      tag_116\n      jump\t// in\n    tag_115:\n        /* \"#utility.yul\":4650:4706   */\n    tag_114:\n        /* \"#utility.yul\":4724:4753   */\n      tag_117\n        /* \"#utility.yul\":4746:4752   */\n      dup3\n        /* \"#utility.yul\":4724:4753   */\n      tag_118\n      jump\t// in\n    tag_117:\n        /* \"#utility.yul\":4716:4753   */\n      swap1\n      pop\n        /* \"#utility.yul\":4808:4812   */\n      0x20\n        /* \"#utility.yul\":4802:4806   */\n      dup2\n        /* \"#utility.yul\":4798:4813   */\n      add\n        /* \"#utility.yul\":4790:4813   */\n      swap1\n      pop\n        /* \"#utility.yul\":4512:4820   */\n      swap2\n      swap1\n      pop\n      jump\t// out\n        /* \"#utility.yul\":4826:4922   */\n    tag_98:\n        /* \"#utility.yul\":4863:4870   */\n      0x00\n        /* \"#utility.yul\":4892:4916   */\n      tag_120\n        /* \"#utility.yul\":4910:4915   */\n      dup3\n        /* \"#utility.yul\":4892:4916   */\n      tag_121\n      jump\t// in\n    tag_120:\n        /* \"#utility.yul\":4881:4916   */\n      swap1\n      pop\n        /* \"#utility.yul\":4826:4922   */\n      swap2\n      swap1\n      pop\n      jump\t// out\n        /* \"#utility.yul\":4928:5005   */\n    tag_102:\n        /* \"#utility.yul\":4965:4972   */\n      0x00\n        /* \"#utility.yul\":4994:4999   */\n      dup2\n        /* \"#utility.yul\":4983:4999   */\n      swap1\n      pop\n        /* \"#utility.yul\":4928:5005   */\n      swap2\n      swap1\n      pop\n      jump\t// out\n        /* \"#utility.yul\":5011:5137   */\n    tag_121:\n        /* \"#utility.yul\":5048:5055   */\n      0x00\n        /* \"#utility.yul\":5088:5130   */\n      0xffffffffffffffffffffffffffffffffffffffff\n        /* \"#utility.yul\":5081:5086   */\n      dup3\n        /* \"#utility.yul\":5077:5131   */\n      and\n        /* \"#utility.yul\":5066:5131   */\n      swap1\n      pop\n        /* \"#utility.yul\":5011:5137   */\n      swap2\n      swap1\n      pop\n      jump\t// out\n        /* \"#utility.yul\":5143:5297   */\n    tag_45:\n        /* \"#utility.yul\":5227:5233   */\n      dup3\n        /* \"#utility.yul\":5222:5225   */\n      dup2\n        /* \"#utility.yul\":5217:5220   */\n      dup4\n        /* \"#utility.yul\":5204:5234   */\n      calldatacopy\n        /* \"#utility.yul\":5289:5290   */\n      0x00\n        /* \"#utility.yul\":5280:5286   */\n      dup4\n        /* \"#utility.yul\":5275:5278   */\n      dup4\n        /* \"#utility.yul\":5271:5287   */\n      add\n        /* \"#utility.yul\":5264:5291   */\n      mstore\n        /* \"#utility.yul\":5143:5297   */\n      pop\n      pop\n      pop\n      jump\t// out\n        /* \"#utility.yul\":5303:5610   */\n    tag_53:\n        /* \"#utility.yul\":5371:5372   */\n      0x00\n        /* \"#utility.yul\":5381:5494   */\n    tag_126:\n        /* \"#utility.yul\":5395:5401   */\n      dup4\n        /* \"#utility.yul\":5392:5393   */\n      dup2\n        /* \"#utility.yul\":5389:5402   */\n      lt\n        /* \"#utility.yul\":5381:5494   */\n      iszero\n      tag_128\n      jumpi\n        /* \"#utility.yul\":5480:5481   */\n      dup1\n        /* \"#utility.yul\":5475:5478   */\n      dup3\n        /* \"#utility.yul\":5471:5482   */\n      add\n        /* \"#utility.yul\":5465:5483   */\n      mload\n        /* \"#utility.yul\":5461:5462   */\n      dup2\n        /* \"#utility.yul\":5456:5459   */\n      dup5\n        /* \"#utility.yul\":5452:5463   */\n      add\n        /* \"#utility.yul\":5445:5484   */\n      mstore\n        /* \"#utility.yul\":5417:5419   */\n      0x20\n        /* \"#utility.yul\":5414:5415   */\n      dup2\n        /* \"#utility.yul\":5410:5420   */\n      add\n        /* \"#utility.yul\":5405:5420   */\n      swap1\n      pop\n        /* \"#utility.yul\":5381:5494   */\n      jump(tag_126)\n    tag_128:\n        /* \"#utility.yul\":5512:5518   */\n      dup4\n        /* \"#utility.yul\":5509:5510   */\n      dup2\n        /* \"#utility.yul\":5506:5519   */\n      gt\n        /* \"#utility.yul\":5503:5604   */\n      iszero\n      tag_129\n      jumpi\n        /* \"#utility.yul\":5592:5593   */\n      0x00\n        /* \"#utility.yul\":5583:5589   */\n      dup5\n        /* \"#utility.yul\":5578:5581   */\n      dup5\n        /* \"#utility.yul\":5574:5590   */\n      add\n        /* \"#utility.yul\":5567:5594   */\n      mstore\n        /* \"#utility.yul\":5503:5604   */\n    tag_129:\n        /* \"#utility.yul\":5352:5610   */\n      pop\n        /* \"#utility.yul\":5303:5610   */\n      pop\n      pop\n      pop\n      jump\t// out\n        /* \"#utility.yul\":5616:5897   */\n    tag_111:\n        /* \"#utility.yul\":5699:5726   */\n      tag_131\n        /* \"#utility.yul\":5721:5725   */\n      dup3\n        /* \"#utility.yul\":5699:5726   */\n      tag_118\n      jump\t// in\n    tag_131:\n        /* \"#utility.yul\":5691:5697   */\n      dup2\n        /* \"#utility.yul\":5687:5727   */\n      add\n        /* \"#utility.yul\":5829:5835   */\n      dup2\n        /* \"#utility.yul\":5817:5827   */\n      dup2\n        /* \"#utility.yul\":5814:5836   */\n      lt\n        /* \"#utility.yul\":5793:5811   */\n      0xffffffffffffffff\n        /* \"#utility.yul\":5781:5791   */\n      dup3\n        /* \"#utility.yul\":5778:5812   */\n      gt\n        /* \"#utility.yul\":5775:5837   */\n      or\n        /* \"#utility.yul\":5772:5860   */\n      iszero\n      tag_132\n      jumpi\n        /* \"#utility.yul\":5840:5858   */\n      tag_133\n      tag_116\n      jump\t// in\n    tag_133:\n        /* \"#utility.yul\":5772:5860   */\n    tag_132:\n        /* \"#utility.yul\":5880:5890   */\n      dup1\n        /* \"#utility.yul\":5876:5878   */\n      0x40\n        /* \"#utility.yul\":5869:5891   */\n      mstore\n        /* \"#utility.yul\":5659:5897   */\n      pop\n        /* \"#utility.yul\":5616:5897   */\n      pop\n      pop\n      jump\t// out\n        /* \"#utility.yul\":5903:6083   */\n    tag_116:\n        /* \"#utility.yul\":5951:6028   */\n      0x4e487b7100000000000000000000000000000000000000000000000000000000\n        /* \"#utility.yul\":5948:5949   */\n      0x00\n        /* \"#utility.yul\":5941:6029   */\n      mstore\n        /* \"#utility.yul\":6048:6052   */\n      0x41\n        /* \"#utility.yul\":6045:6046   */\n      0x04\n        /* \"#utility.yul\":6038:6053   */\n      mstore\n        /* \"#utility.yul\":6072:6076   */\n      0x24\n        /* \"#utility.yul\":6069:6070   */\n      0x00\n        /* \"#utility.yul\":6062:6077   */\n      revert\n        /* \"#utility.yul\":6089:6206   */\n    tag_66:\n        /* \"#utility.yul\":6198:6199   */\n      0x00\n        /* \"#utility.yul\":6195:6196   */\n      dup1\n        /* \"#utility.yul\":6188:6200   */\n      revert\n        /* \"#utility.yul\":6212:6329   */\n    tag_43:\n        /* \"#utility.yul\":6321:6322   */\n      0x00\n        /* \"#utility.yul\":6318:6319   */\n      dup1\n        /* \"#utility.yul\":6311:6323   */\n      revert\n        /* \"#utility.yul\":6335:6452   */\n    tag_87:\n        /* \"#utility.yul\":6444:6445   */\n      0x00\n        /* \"#utility.yul\":6441:6442   */\n      dup1\n        /* \"#utility.yul\":6434:6446   */\n      revert\n        /* \"#utility.yul\":6458:6575   */\n    tag_76:\n        /* \"#utility.yul\":6567:6568   */\n      0x00\n        /* \"#utility.yul\":6564:6565   */\n      dup1\n        /* \"#utility.yul\":6557:6569   */\n      revert\n        /* \"#utility.yul\":6581:6683   */\n    tag_118:\n        /* \"#utility.yul\":6622:6628   */\n      0x00\n        /* \"#utility.yul\":6673:6675   */\n      0x1f\n        /* \"#utility.yul\":6669:6676   */\n      not\n        /* \"#utility.yul\":6664:6666   */\n      0x1f\n        /* \"#utility.yul\":6657:6662   */\n      dup4\n        /* \"#utility.yul\":6653:6667   */\n      add\n        /* \"#utility.yul\":6649:6677   */\n      and\n        /* \"#utility.yul\":6639:6677   */\n      swap1\n      pop\n        /* \"#utility.yul\":6581:6683   */\n      swap2\n      swap1\n      pop\n      jump\t// out\n        /* \"#utility.yul\":6689:6811   */\n    tag_57:\n        /* \"#utility.yul\":6762:6786   */\n      tag_141\n        /* \"#utility.yul\":6780:6785   */\n      dup2\n        /* \"#utility.yul\":6762:6786   */\n      tag_98\n      jump\t// in\n    tag_141:\n        /* \"#utility.yul\":6755:6760   */\n      dup2\n        /* \"#utility.yul\":6752:6787   */\n      eq\n        /* \"#utility.yul\":6742:6805   */\n      tag_142\n      jumpi\n        /* \"#utility.yul\":6801:6802   */\n      0x00\n        /* \"#utility.yul\":6798:6799   */\n      dup1\n        /* \"#utility.yul\":6791:6803   */\n      revert\n        /* \"#utility.yul\":6742:6805   */\n    tag_142:\n        /* \"#utility.yul\":6689:6811   */\n      pop\n      jump\t// out\n        /* \"#utility.yul\":6817:6939   */\n    tag_61:\n        /* \"#utility.yul\":6890:6914   */\n      tag_144\n        /* \"#utility.yul\":6908:6913   */\n      dup2\n        /* \"#utility.yul\":6890:6914   */\n      tag_102\n      jump\t// in\n    tag_144:\n        /* \"#utility.yul\":6883:6888   */\n      dup2\n        /* \"#utility.yul\":6880:6915   */\n      eq\n        /* \"#utility.yul\":6870:6933   */\n      tag_145\n      jumpi\n        /* \"#utility.yul\":6929:6930   */\n      0x00\n        /* \"#utility.yul\":6926:6927   */\n      dup1\n        /* \"#utility.yul\":6919:6931   */\n      revert\n        /* \"#utility.yul\":6870:6933   */\n    tag_145:\n        /* \"#utility.yul\":6817:6939   */\n      pop\n      jump\t// out\n\n    auxdata: 0xa26469706673582212201786ef16f3ee61eb82f89edb9037474c5300f5a695d74ecd25e4ae402627205364736f6c63430008070033\n}\n",
				"bytecode": {
					"linkReferences": {},
					"object": "608060405234801561001057600080fd5b50610696806100206000396000f3fe608060405234801561001057600080fd5b506004361061004c5760003560e01c806304433bbc14610051578063089a4c6014610081578063d785403c146100b1578063e9c30288146100cd575b600080fd5b61006b600480360381019061006691906103f3565b6100fd565b60405161007891906104a3565b60405180910390f35b61009b600480360381019061009691906103f3565b610145565b6040516100a891906104be565b60405180910390f35b6100cb60048036038101906100c69190610399565b610173565b005b6100e760048036038101906100e291906103c6565b61025c565b6040516100f491906104a3565b60405180910390f35b6000808280519060200120905060008082815260200190815260200160002060009054906101000a900473ffffffffffffffffffffffffffffffffffffffff16915050919050565b6001818051602081018201805184825260208301602085012081835280955050505050506000915090505481565b600081905060008173ffffffffffffffffffffffffffffffffffffffff166319eb4a906040518163ffffffff1660e01b815260040160006040518083038186803b1580156101c057600080fd5b505afa1580156101d4573d6000803e3d6000fd5b505050506040513d6000823e3d601f19601f820116820180604052508101906101fd919061043c565b8051906020012090508260008083815260200190815260200160002060006101000a81548173ffffffffffffffffffffffffffffffffffffffff021916908373ffffffffffffffffffffffffffffffffffffffff160217905550505050565b60006020528060005260406000206000915054906101000a900473ffffffffffffffffffffffffffffffffffffffff1681565b60006102a261029d846104fe565b6104d9565b9050828152602081018484840111156102be576102bd610612565b5b6102c984828561056b565b509392505050565b60006102e46102df846104fe565b6104d9565b905082815260208101848484011115610300576102ff610612565b5b61030b84828561057a565b509392505050565b60008135905061032281610632565b92915050565b60008135905061033781610649565b92915050565b600082601f8301126103525761035161060d565b5b813561036284826020860161028f565b91505092915050565b600082601f8301126103805761037f61060d565b5b81516103908482602086016102d1565b91505092915050565b6000602082840312156103af576103ae61061c565b5b60006103bd84828501610313565b91505092915050565b6000602082840312156103dc576103db61061c565b5b60006103ea84828501610328565b91505092915050565b6000602082840312156104095761040861061c565b5b600082013567ffffffffffffffff81111561042757610426610617565b5b6104338482850161033d565b91505092915050565b6000602082840312156104525761045161061c565b5b600082015167ffffffffffffffff8111156104705761046f610617565b5b61047c8482850161036b565b91505092915050565b61048e8161052f565b82525050565b61049d81610541565b82525050565b60006020820190506104b86000830184610485565b92915050565b60006020820190506104d36000830184610494565b92915050565b60006104e36104f4565b90506104ef82826105ad565b919050565b6000604051905090565b600067ffffffffffffffff821115610519576105186105de565b5b61052282610621565b9050602081019050919050565b600061053a8261054b565b9050919050565b6000819050919050565b600073ffffffffffffffffffffffffffffffffffffffff82169050919050565b82818337600083830152505050565b60005b8381101561059857808201518184015260208101905061057d565b838111156105a7576000848401525b50505050565b6105b682610621565b810181811067ffffffffffffffff821117156105d5576105d46105de565b5b80604052505050565b7f4e487b7100000000000000000000000000000000000000000000000000000000600052604160045260246000fd5b600080fd5b600080fd5b600080fd5b600080fd5b6000601f19601f8301169050919050565b61063b8161052f565b811461064657600080fd5b50565b61065281610541565b811461065d57600080fd5b5056fea26469706673582212201786ef16f3ee61eb82f89edb9037474c5300f5a695d74ecd25e4ae402627205364736f6c63430008070033",
					"opcodes": "PUSH1 0x80 PUSH1 0x40 MSTORE CALLVALUE DUP1 ISZERO PUSH2 0x10 JUMPI PUSH1 0x0 DUP1 REVERT JUMPDEST POP PUSH2 0x696 DUP1 PUSH2 0x20 PUSH1 0x0 CODECOPY PUSH1 0x0 RETURN INVALID PUSH1 0x80 PUSH1 0x40 MSTORE CALLVALUE DUP1 ISZERO PUSH2 0x10 JUMPI PUSH1 0x0 DUP1 REVERT JUMPDEST POP PUSH1 0x4 CALLDATASIZE LT PUSH2 0x4C JUMPI PUSH1 0x0 CALLDATALOAD PUSH1 0xE0 SHR DUP1 PUSH4 0x4433BBC EQ PUSH2 0x51 JUMPI DUP1 PUSH4 0x89A4C60 EQ PUSH2 0x81 JUMPI DUP1 PUSH4 0xD785403C EQ PUSH2 0xB1 JUMPI DUP1 PUSH4 0xE9C30288 EQ PUSH2 0xCD JUMPI JUMPDEST PUSH1 0x0 DUP1 REVERT JUMPDEST PUSH2 0x6B PUSH1 0x4 DUP1 CALLDATASIZE SUB DUP2 ADD SWAP1 PUSH2 0x66 SWAP2 SWAP1 PUSH2 0x3F3 JUMP JUMPDEST PUSH2 0xFD JUMP JUMPDEST PUSH1 0x40 MLOAD PUSH2 0x78 SWAP2 SWAP1 PUSH2 0x4A3 JUMP JUMPDEST PUSH1 0x40 MLOAD DUP1 SWAP2 SUB SWAP1 RETURN JUMPDEST PUSH2 0x9B PUSH1 0x4 DUP1 CALLDATASIZE SUB DUP2 ADD SWAP1 PUSH2 0x96 SWAP2 SWAP1 PUSH2 0x3F3 JUMP JUMPDEST PUSH2 0x145 JUMP JUMPDEST PUSH1 0x40 MLOAD PUSH2 0xA8 SWAP2 SWAP1 PUSH2 0x4BE JUMP JUMPDEST PUSH1 0x40 MLOAD DUP1 SWAP2 SUB SWAP1 RETURN JUMPDEST PUSH2 0xCB PUSH1 0x4 DUP1 CALLDATASIZE SUB DUP2 ADD SWAP1 PUSH2 0xC6 SWAP2 SWAP1 PUSH2 0x399 JUMP JUMPDEST PUSH2 0x173 JUMP JUMPDEST STOP JUMPDEST PUSH2 0xE7 PUSH1 0x4 DUP1 CALLDATASIZE SUB DUP2 ADD SWAP1 PUSH2 0xE2 SWAP2 SWAP1 PUSH2 0x3C6 JUMP JUMPDEST PUSH2 0x25C JUMP JUMPDEST PUSH1 0x40 MLOAD PUSH2 0xF4 SWAP2 SWAP1 PUSH2 0x4A3 JUMP JUMPDEST PUSH1 0x40 MLOAD DUP1 SWAP2 SUB SWAP1 RETURN JUMPDEST PUSH1 0x0 DUP1 DUP3 DUP1 MLOAD SWAP1 PUSH1 0x20 ADD KECCAK256 SWAP1 POP PUSH1 0x0 DUP1 DUP3 DUP2 MSTORE PUSH1 0x20 ADD SWAP1 DUP2 MSTORE PUSH1 0x20 ADD PUSH1 0x0 KECCAK256 PUSH1 0x0 SWAP1 SLOAD SWAP1 PUSH2 0x100 EXP SWAP1 DIV PUSH20 0xFFFFFFFFFFFFFFFFFFFFFFFFFFFFFFFFFFFFFFFF AND SWAP2 POP POP SWAP2 SWAP1 POP JUMP JUMPDEST PUSH1 0x1 DUP2 DUP1 MLOAD PUSH1 0x20 DUP2 ADD DUP3 ADD DUP1 MLOAD DUP5 DUP3 MSTORE PUSH1 0x20 DUP4 ADD PUSH1 0x20 DUP6 ADD KECCAK256 DUP2 DUP4 MSTORE DUP1 SWAP6 POP POP POP POP POP POP PUSH1 0x0 SWAP2 POP SWAP1 POP SLOAD DUP2 JUMP JUMPDEST PUSH1 0x0 DUP2 SWAP1 POP PUSH1 0x0 DUP2 PUSH20 0xFFFFFFFFFFFFFFFFFFFFFFFFFFFFFFFFFFFFFFFF AND PUSH4 0x19EB4A90 PUSH1 0x40 MLOAD DUP2 PUSH4 0xFFFFFFFF AND PUSH1 0xE0 SHL DUP2 MSTORE PUSH1 0x4 ADD PUSH1 0x0 PUSH1 0x40 MLOAD DUP1 DUP4 SUB DUP2 DUP7 DUP1 EXTCODESIZE ISZERO DUP1 ISZERO PUSH2 0x1C0 JUMPI PUSH1 0x0 DUP1 REVERT JUMPDEST POP GAS STATICCALL ISZERO DUP1 ISZERO PUSH2 0x1D4 JUMPI RETURNDATASIZE PUSH1 0x0 DUP1 RETURNDATACOPY RETURNDATASIZE PUSH1 0x0 REVERT JUMPDEST POP POP POP POP PUSH1 0x40 MLOAD RETURNDATASIZE PUSH1 0x0 DUP3 RETURNDATACOPY RETURNDATASIZE PUSH1 0x1F NOT PUSH1 0x1F DUP3 ADD AND DUP3 ADD DUP1 PUSH1 0x40 MSTORE POP DUP2 ADD SWAP1 PUSH2 0x1FD SWAP2 SWAP1 PUSH2 0x43C JUMP JUMPDEST DUP1 MLOAD SWAP1 PUSH1 0x20 ADD KECCAK256 SWAP1 POP DUP3 PUSH1 0x0 DUP1 DUP4 DUP2 MSTORE PUSH1 0x20 ADD SWAP1 DUP2 MSTORE PUSH1 0x20 ADD PUSH1 0x0 KECCAK256 PUSH1 0x0 PUSH2 0x100 EXP DUP2 SLOAD DUP2 PUSH20 0xFFFFFFFFFFFFFFFFFFFFFFFFFFFFFFFFFFFFFFFF MUL NOT AND SWAP1 DUP4 PUSH20 0xFFFFFFFFFFFFFFFFFFFFFFFFFFFFFFFFFFFFFFFF AND MUL OR SWAP1 SSTORE POP POP POP POP JUMP JUMPDEST PUSH1 0x0 PUSH1 0x20 MSTORE DUP1 PUSH1 0x0 MSTORE PUSH1 0x40 PUSH1 0x0 KECCAK256 PUSH1 0x0 SWAP2 POP SLOAD SWAP1 PUSH2 0x100 EXP SWAP1 DIV PUSH20 0xFFFFFFFFFFFFFFFFFFFFFFFFFFFFFFFFFFFFFFFF AND DUP2 JUMP JUMPDEST PUSH1 0x0 PUSH2 0x2A2 PUSH2 0x29D DUP5 PUSH2 0x4FE JUMP JUMPDEST PUSH2 0x4D9 JUMP JUMPDEST SWAP1 POP DUP3 DUP2 MSTORE PUSH1 0x20 DUP2 ADD DUP5 DUP5 DUP5 ADD GT ISZERO PUSH2 0x2BE JUMPI PUSH2 0x2BD PUSH2 0x612 JUMP JUMPDEST JUMPDEST PUSH2 0x2C9 DUP5 DUP3 DUP6 PUSH2 0x56B JUMP JUMPDEST POP SWAP4 SWAP3 POP POP POP JUMP JUMPDEST PUSH1 0x0 PUSH2 0x2E4 PUSH2 0x2DF DUP5 PUSH2 0x4FE JUMP JUMPDEST PUSH2 0x4D9 JUMP JUMPDEST SWAP1 POP DUP3 DUP2 MSTORE PUSH1 0x20 DUP2 ADD DUP5 DUP5 DUP5 ADD GT ISZERO PUSH2 0x300 JUMPI PUSH2 0x2FF PUSH2 0x612 JUMP JUMPDEST JUMPDEST PUSH2 0x30B DUP5 DUP3 DUP6 PUSH2 0x57A JUMP JUMPDEST POP SWAP4 SWAP3 POP POP POP JUMP JUMPDEST PUSH1 0x0 DUP2 CALLDATALOAD SWAP1 POP PUSH2 0x322 DUP2 PUSH2 0x632 JUMP JUMPDEST SWAP3 SWAP2 POP POP JUMP JUMPDEST PUSH1 0x0 DUP2 CALLDATALOAD SWAP1 POP PUSH2 0x337 DUP2 PUSH2 0x649 JUMP JUMPDEST SWAP3 SWAP2 POP POP JUMP JUMPDEST PUSH1 0x0 DUP3 PUSH1 0x1F DUP4 ADD SLT PUSH2 0x352 JUMPI PUSH2 0x351 PUSH2 0x60D JUMP JUMPDEST JUMPDEST DUP2 CALLDATALOAD PUSH2 0x362 DUP5 DUP3 PUSH1 0x20 DUP7 ADD PUSH2 0x28F JUMP JUMPDEST SWAP2 POP POP SWAP3 SWAP2 POP POP JUMP JUMPDEST PUSH1 0x0 DUP3 PUSH1 0x1F DUP4 ADD SLT PUSH2 0x380 JUMPI PUSH2 0x37F PUSH2 0x60D JUMP JUMPDEST JUMPDEST DUP2 MLOAD PUSH2 0x390 DUP5 DUP3 PUSH1 0x20 DUP7 ADD PUSH2 0x2D1 JUMP JUMPDEST SWAP2 POP POP SWAP3 SWAP2 POP POP JUMP JUMPDEST PUSH1 0x0 PUSH1 0x20 DUP3 DUP5 SUB SLT ISZERO PUSH2 0x3AF JUMPI PUSH2 0x3AE PUSH2 0x61C JUMP JUMPDEST JUMPDEST PUSH1 0x0 PUSH2 0x3BD DUP5 DUP3 DUP6 ADD PUSH2 0x313 JUMP JUMPDEST SWAP2 POP POP SWAP3 SWAP2 POP POP JUMP JUMPDEST PUSH1 0x0 PUSH1 0x20 DUP3 DUP5 SUB SLT ISZERO PUSH2 0x3DC JUMPI PUSH2 0x3DB PUSH2 0x61C JUMP JUMPDEST JUMPDEST PUSH1 0x0 PUSH2 0x3EA DUP5 DUP3 DUP6 ADD PUSH2 0x328 JUMP JUMPDEST SWAP2 POP POP SWAP3 SWAP2 POP POP JUMP JUMPDEST PUSH1 0x0 PUSH1 0x20 DUP3 DUP5 SUB SLT ISZERO PUSH2 0x409 JUMPI PUSH2 0x408 PUSH2 0x61C JUMP JUMPDEST JUMPDEST PUSH1 0x0 DUP3 ADD CALLDATALOAD PUSH8 0xFFFFFFFFFFFFFFFF DUP2 GT ISZERO PUSH2 0x427 JUMPI PUSH2 0x426 PUSH2 0x617 JUMP JUMPDEST JUMPDEST PUSH2 0x433 DUP5 DUP3 DUP6 ADD PUSH2 0x33D JUMP JUMPDEST SWAP2 POP POP SWAP3 SWAP2 POP POP JUMP JUMPDEST PUSH1 0x0 PUSH1 0x20 DUP3 DUP5 SUB SLT ISZERO PUSH2 0x452 JUMPI PUSH2 0x451 PUSH2 0x61C JUMP JUMPDEST JUMPDEST PUSH1 0x0 DUP3 ADD MLOAD PUSH8 0xFFFFFFFFFFFFFFFF DUP2 GT ISZERO PUSH2 0x470 JUMPI PUSH2 0x46F PUSH2 0x617 JUMP JUMPDEST JUMPDEST PUSH2 0x47C DUP5 DUP3 DUP6 ADD PUSH2 0x36B JUMP JUMPDEST SWAP2 POP POP SWAP3 SWAP2 POP POP JUMP JUMPDEST PUSH2 0x48E DUP2 PUSH2 0x52F JUMP JUMPDEST DUP3 MSTORE POP POP JUMP JUMPDEST PUSH2 0x49D DUP2 PUSH2 0x541 JUMP JUMPDEST DUP3 MSTORE POP POP JUMP JUMPDEST PUSH1 0x0 PUSH1 0x20 DUP3 ADD SWAP1 POP PUSH2 0x4B8 PUSH1 0x0 DUP4 ADD DUP5 PUSH2 0x485 JUMP JUMPDEST SWAP3 SWAP2 POP POP JUMP JUMPDEST PUSH1 0x0 PUSH1 0x20 DUP3 ADD SWAP1 POP PUSH2 0x4D3 PUSH1 0x0 DUP4 ADD DUP5 PUSH2 0x494 JUMP JUMPDEST SWAP3 SWAP2 POP POP JUMP JUMPDEST PUSH1 0x0 PUSH2 0x4E3 PUSH2 0x4F4 JUMP JUMPDEST SWAP1 POP PUSH2 0x4EF DUP3 DUP3 PUSH2 0x5AD JUMP JUMPDEST SWAP2 SWAP1 POP JUMP JUMPDEST PUSH1 0x0 PUSH1 0x40 MLOAD SWAP1 POP SWAP1 JUMP JUMPDEST PUSH1 0x0 PUSH8 0xFFFFFFFFFFFFFFFF DUP3 GT ISZERO PUSH2 0x519 JUMPI PUSH2 0x518 PUSH2 0x5DE JUMP JUMPDEST JUMPDEST PUSH2 0x522 DUP3 PUSH2 0x621 JUMP JUMPDEST SWAP1 POP PUSH1 0x20 DUP2 ADD SWAP1 POP SWAP2 SWAP1 POP JUMP JUMPDEST PUSH1 0x0 PUSH2 0x53A DUP3 PUSH2 0x54B JUMP JUMPDEST SWAP1 POP SWAP2 SWAP1 POP JUMP JUMPDEST PUSH1 0x0 DUP2 SWAP1 POP SWAP2 SWAP1 POP JUMP JUMPDEST PUSH1 0x0 PUSH20 0xFFFFFFFFFFFFFFFFFFFFFFFFFFFFFFFFFFFFFFFF DUP3 AND SWAP1 POP SWAP2 SWAP1 POP JUMP JUMPDEST DUP3 DUP2 DUP4 CALLDATACOPY PUSH1 0x0 DUP4 DUP4 ADD MSTORE POP POP POP JUMP JUMPDEST PUSH1 0x0 JUMPDEST DUP4 DUP2 LT ISZERO PUSH2 0x598 JUMPI DUP1 DUP3 ADD MLOAD DUP2 DUP5 ADD MSTORE PUSH1 0x20 DUP2 ADD SWAP1 POP PUSH2 0x57D JUMP JUMPDEST DUP4 DUP2 GT ISZERO PUSH2 0x5A7 JUMPI PUSH1 0x0 DUP5 DUP5 ADD MSTORE JUMPDEST POP POP POP POP JUMP JUMPDEST PUSH2 0x5B6 DUP3 PUSH2 0x621 JUMP JUMPDEST DUP2 ADD DUP2 DUP2 LT PUSH8 0xFFFFFFFFFFFFFFFF DUP3 GT OR ISZERO PUSH2 0x5D5 JUMPI PUSH2 0x5D4 PUSH2 0x5DE JUMP JUMPDEST JUMPDEST DUP1 PUSH1 0x40 MSTORE POP POP POP JUMP JUMPDEST PUSH32 0x4E487B7100000000000000000000000000000000000000000000000000000000 PUSH1 0x0 MSTORE PUSH1 0x41 PUSH1 0x4 MSTORE PUSH1 0x24 PUSH1 0x0 REVERT JUMPDEST PUSH1 0x0 DUP1 REVERT JUMPDEST PUSH1 0x0 DUP1 REVERT JUMPDEST PUSH1 0x0 DUP1 REVERT JUMPDEST PUSH1 0x0 DUP1 REVERT JUMPDEST PUSH1 0x0 PUSH1 0x1F NOT PUSH1 0x1F DUP4 ADD AND SWAP1 POP SWAP2 SWAP1 POP JUMP JUMPDEST PUSH2 0x63B DUP2 PUSH2 0x52F JUMP JUMPDEST DUP2 EQ PUSH2 0x646 JUMPI PUSH1 0x0 DUP1 REVERT JUMPDEST POP JUMP JUMPDEST PUSH2 0x652 DUP2 PUSH2 0x541 JUMP JUMPDEST DUP2 EQ PUSH2 0x65D JUMPI PUSH1 0x0 DUP1 REVERT JUMPDEST POP JUMP INVALID LOG2 PUSH5 0x6970667358 0x22 SLT KECCAK256 OR DUP7 0xEF AND RETURN 0xEE PUSH2 0xEB82 0xF8 SWAP15 0xDB SWAP1 CALLDATACOPY SELFBALANCE 0x4C MSTORE8 STOP CREATE2 0xA6 SWAP6 0xD7 0x4E 0xCD 0x25 0xE4 0xAE BLOCKHASH 0x26 0x27 KECCAK256 MSTORE8 PUSH5 0x736F6C6343 STOP ADDMOD SMOD STOP CALLER "
				},
				"gasEstimates": {
					"creation": {
						"codeDepositCost": "337200",
						"executionCost": "374",
						"totalCost": "337574"
					},
					"external": {
						"businessProposals(string)": "infinite",
						"createContractInstance(address)": "infinite",
						"getContractAddress(string)": "infinite",
						"userContractAddress(bytes32)": "2883"
					}
				},
				"methodIdentifiers": {
					"businessProposals(string)": "089a4c60",
					"createContractInstance(address)": "d785403c",
					"getContractAddress(string)": "04433bbc",
					"userContractAddress(bytes32)": "e9c30288"
				}
			},
			"storageLayout": {
				"storage": [
					{
						"astId": 605,
						"contract": "contracts/MotherContract.sol:MotherContract",
						"label": "userContractAddress",
						"offset": 0,
						"slot": "0",
						"type": "t_mapping(t_bytes32,t_address)"
					},
					{
						"astId": 609,
						"contract": "contracts/MotherContract.sol:MotherContract",
						"label": "businessProposals",
						"offset": 0,
						"slot": "1",
						"type": "t_mapping(t_string_memory_ptr,t_bytes32)"
					}
				],
				"types": {
					"t_address": {
						"encoding": "inplace",
						"label": "address",
						"numberOfBytes": "20"
					},
					"t_bytes32": {
						"encoding": "inplace",
						"label": "bytes32",
						"numberOfBytes": "32"
					},
					"t_mapping(t_bytes32,t_address)": {
						"encoding": "mapping",
						"key": "t_bytes32",
						"label": "mapping(bytes32 => address)",
						"numberOfBytes": "32",
						"value": "t_address"
					},
					"t_mapping(t_string_memory_ptr,t_bytes32)": {
						"encoding": "mapping",
						"key": "t_string_memory_ptr",
						"label": "mapping(string => bytes32)",
						"numberOfBytes": "32",
						"value": "t_bytes32"
					},
					"t_string_memory_ptr": {
						"encoding": "bytes",
						"label": "string",
						"numberOfBytes": "32"
					}
				}
			},
			"userdoc": {
				"kind": "user",
				"methods": {},
				"version": 1
			}
		}
	}
}