{
	"contracts/BusinessConsensus3.sol": {
		"BusinessConsensus3": {
			"abi": [
				{
					"inputs": [
						{
							"internalType": "string",
							"name": "_messageID",
							"type": "string"
						}
					],
					"name": "Consensus",
					"outputs": [],
					"stateMutability": "nonpayable",
					"type": "function"
				},
				{
					"inputs": [
						{
							"internalType": "string",
							"name": "",
							"type": "string"
						}
					],
					"name": "IDs",
					"outputs": [
						{
							"internalType": "string",
							"name": "",
							"type": "string"
						}
					],
					"stateMutability": "view",
					"type": "function"
				},
				{
					"inputs": [
						{
							"internalType": "address",
							"name": "voter",
							"type": "address"
						},
						{
							"internalType": "string",
							"name": "_messageID",
							"type": "string"
						}
					],
					"name": "RegisterVoter",
					"outputs": [],
					"stateMutability": "nonpayable",
					"type": "function"
				},
				{
					"inputs": [
						{
							"internalType": "string",
							"name": "response",
							"type": "string"
						},
						{
							"internalType": "string",
							"name": "_messageID",
							"type": "string"
						}
					],
					"name": "Vote",
					"outputs": [],
					"stateMutability": "nonpayable",
					"type": "function"
				},
				{
					"inputs": [
						{
							"internalType": "string",
							"name": "",
							"type": "string"
						},
						{
							"internalType": "uint256",
							"name": "",
							"type": "uint256"
						}
					],
					"name": "Voters",
					"outputs": [
						{
							"internalType": "bool",
							"name": "voted",
							"type": "bool"
						},
						{
							"internalType": "bool",
							"name": "vote",
							"type": "bool"
						},
						{
							"internalType": "address",
							"name": "recipient",
							"type": "address"
						}
					],
					"stateMutability": "view",
					"type": "function"
				},
				{
					"inputs": [
						{
							"internalType": "string",
							"name": "",
							"type": "string"
						}
					],
					"name": "businessRequirements",
					"outputs": [
						{
							"internalType": "uint256",
							"name": "",
							"type": "uint256"
						}
					],
					"stateMutability": "view",
					"type": "function"
				},
				{
					"inputs": [
						{
							"internalType": "string",
							"name": "_subject",
							"type": "string"
						},
						{
							"internalType": "uint256",
							"name": "_businessRequirement",
							"type": "uint256"
						},
						{
							"internalType": "uint256",
							"name": "_expiryLength",
							"type": "uint256"
						},
						{
							"internalType": "bytes32",
							"name": "_contents",
							"type": "bytes32"
						}
					],
					"name": "checkConsistency",
					"outputs": [
						{
							"internalType": "bool",
							"name": "",
							"type": "bool"
						},
						{
							"internalType": "bool",
							"name": "",
							"type": "bool"
						},
						{
							"internalType": "bool",
							"name": "",
							"type": "bool"
						}
					],
					"stateMutability": "view",
					"type": "function"
				},
				{
					"inputs": [
						{
							"internalType": "string",
							"name": "",
							"type": "string"
						}
					],
					"name": "contents",
					"outputs": [
						{
							"internalType": "bytes32",
							"name": "",
							"type": "bytes32"
						}
					],
					"stateMutability": "view",
					"type": "function"
				},
				{
					"inputs": [
						{
							"internalType": "string",
							"name": "_messageID",
							"type": "string"
						},
						{
							"internalType": "uint256",
							"name": "expiry",
							"type": "uint256"
						},
						{
							"internalType": "uint256",
							"name": "requiredPercentage",
							"type": "uint256"
						},
						{
							"internalType": "bytes32",
							"name": "_contents",
							"type": "bytes32"
						},
						{
							"internalType": "string",
							"name": "subject",
							"type": "string"
						},
						{
							"internalType": "string",
							"name": "_messageDate",
							"type": "string"
						}
					],
					"name": "createContract",
					"outputs": [],
					"stateMutability": "nonpayable",
					"type": "function"
				},
				{
					"inputs": [
						{
							"internalType": "string",
							"name": "",
							"type": "string"
						}
					],
					"name": "expiryDates",
					"outputs": [
						{
							"internalType": "uint256",
							"name": "",
							"type": "uint256"
						}
					],
					"stateMutability": "view",
					"type": "function"
				},
				{
					"inputs": [
						{
							"internalType": "string",
							"name": "",
							"type": "string"
						}
					],
					"name": "expiryLengths",
					"outputs": [
						{
							"internalType": "uint256",
							"name": "",
							"type": "uint256"
						}
					],
					"stateMutability": "view",
					"type": "function"
				},
				{
					"inputs": [
						{
							"internalType": "string",
							"name": "",
							"type": "string"
						}
					],
					"name": "finalVerdicts",
					"outputs": [
						{
							"internalType": "bool",
							"name": "",
							"type": "bool"
						}
					],
					"stateMutability": "view",
					"type": "function"
				},
				{
					"inputs": [
						{
							"internalType": "string",
							"name": "_messageID",
							"type": "string"
						}
					],
					"name": "getIsCompiled",
					"outputs": [
						{
							"internalType": "bool",
							"name": "",
							"type": "bool"
						}
					],
					"stateMutability": "view",
					"type": "function"
				},
				{
					"inputs": [
						{
							"internalType": "string",
							"name": "subject",
							"type": "string"
						}
					],
					"name": "getIsCreated",
					"outputs": [
						{
							"internalType": "string",
							"name": "",
							"type": "string"
						},
						{
							"internalType": "string",
							"name": "",
							"type": "string"
						}
					],
					"stateMutability": "view",
					"type": "function"
				},
				{
					"inputs": [
						{
							"internalType": "string",
							"name": "",
							"type": "string"
						}
					],
					"name": "initiators",
					"outputs": [
						{
							"internalType": "address",
							"name": "",
							"type": "address"
						}
					],
					"stateMutability": "view",
					"type": "function"
				},
				{
					"inputs": [
						{
							"internalType": "string",
							"name": "",
							"type": "string"
						}
					],
					"name": "isCompiled",
					"outputs": [
						{
							"internalType": "bool",
							"name": "",
							"type": "bool"
						}
					],
					"stateMutability": "view",
					"type": "function"
				},
				{
					"inputs": [
						{
							"internalType": "string",
							"name": "",
							"type": "string"
						},
						{
							"internalType": "uint256",
							"name": "",
							"type": "uint256"
						}
					],
					"name": "keys",
					"outputs": [
						{
							"internalType": "address",
							"name": "",
							"type": "address"
						}
					],
					"stateMutability": "view",
					"type": "function"
				},
				{
					"inputs": [
						{
							"internalType": "string",
							"name": "",
							"type": "string"
						}
					],
					"name": "messageDates",
					"outputs": [
						{
							"internalType": "string",
							"name": "",
							"type": "string"
						}
					],
					"stateMutability": "view",
					"type": "function"
				},
				{
					"inputs": [
						{
							"internalType": "string",
							"name": "",
							"type": "string"
						}
					],
					"name": "numApprovals",
					"outputs": [
						{
							"internalType": "uint256",
							"name": "",
							"type": "uint256"
						}
					],
					"stateMutability": "view",
					"type": "function"
				},
				{
					"inputs": [
						{
							"internalType": "string",
							"name": "_messageID",
							"type": "string"
						}
					],
					"name": "retrieve_bundle",
					"outputs": [
						{
							"internalType": "bool",
							"name": "",
							"type": "bool"
						},
						{
							"internalType": "string",
							"name": "",
							"type": "string"
						},
						{
							"internalType": "uint256",
							"name": "",
							"type": "uint256"
						},
						{
							"components": [
								{
									"internalType": "bool",
									"name": "voted",
									"type": "bool"
								},
								{
									"internalType": "bool",
									"name": "vote",
									"type": "bool"
								},
								{
									"internalType": "address",
									"name": "recipient",
									"type": "address"
								}
							],
							"internalType": "struct BusinessConsensus3.Voter[]",
							"name": "",
							"type": "tuple[]"
						}
					],
					"stateMutability": "view",
					"type": "function"
				},
				{
					"inputs": [
						{
							"internalType": "string",
							"name": "",
							"type": "string"
						}
					],
					"name": "subjects",
					"outputs": [
						{
							"internalType": "string",
							"name": "",
							"type": "string"
						}
					],
					"stateMutability": "view",
					"type": "function"
				},
				{
					"inputs": [
						{
							"internalType": "string",
							"name": "",
							"type": "string"
						}
					],
					"name": "voteCounts",
					"outputs": [
						{
							"internalType": "uint256",
							"name": "",
							"type": "uint256"
						}
					],
					"stateMutability": "view",
					"type": "function"
				},
				{
					"inputs": [
						{
							"internalType": "string",
							"name": "",
							"type": "string"
						},
						{
							"internalType": "address",
							"name": "",
							"type": "address"
						}
					],
					"name": "voter_maps",
					"outputs": [
						{
							"internalType": "bool",
							"name": "voted",
							"type": "bool"
						},
						{
							"internalType": "bool",
							"name": "vote",
							"type": "bool"
						},
						{
							"internalType": "address",
							"name": "recipient",
							"type": "address"
						}
					],
					"stateMutability": "view",
					"type": "function"
				}
			],
			"devdoc": {
				"kind": "dev",
				"methods": {},
				"version": 1
			},
			"evm": {
				"assembly": "    /* \"contracts/BusinessConsensus3.sol\":33:7118  contract BusinessConsensus3{\r... */\n  mstore(0x40, 0x80)\n  callvalue\n  dup1\n  iszero\n  tag_1\n  jumpi\n  0x00\n  dup1\n  revert\ntag_1:\n  pop\n  dataSize(sub_0)\n  dup1\n  dataOffset(sub_0)\n  0x00\n  codecopy\n  0x00\n  return\nstop\n\nsub_0: assembly {\n        /* \"contracts/BusinessConsensus3.sol\":33:7118  contract BusinessConsensus3{\r... */\n      mstore(0x40, 0x80)\n      callvalue\n      dup1\n      iszero\n      tag_1\n      jumpi\n      0x00\n      dup1\n      revert\n    tag_1:\n      pop\n      jumpi(tag_2, lt(calldatasize, 0x04))\n      shr(0xe0, calldataload(0x00))\n      dup1\n      0x883a9673\n      gt\n      tag_26\n      jumpi\n      dup1\n      0xbb9a31f3\n      gt\n      tag_27\n      jumpi\n      dup1\n      0xbb9a31f3\n      eq\n      tag_20\n      jumpi\n      dup1\n      0xc5539b03\n      eq\n      tag_21\n      jumpi\n      dup1\n      0xc9bc42ed\n      eq\n      tag_22\n      jumpi\n      dup1\n      0xe5c8d65f\n      eq\n      tag_23\n      jumpi\n      dup1\n      0xec548680\n      eq\n      tag_24\n      jumpi\n      dup1\n      0xfe290423\n      eq\n      tag_25\n      jumpi\n      jump(tag_2)\n    tag_27:\n      dup1\n      0x883a9673\n      eq\n      tag_14\n      jumpi\n      dup1\n      0x8a3b0d02\n      eq\n      tag_15\n      jumpi\n      dup1\n      0x8f6a35b7\n      eq\n      tag_16\n      jumpi\n      dup1\n      0x931da6b3\n      eq\n      tag_17\n      jumpi\n      dup1\n      0x9d6a3125\n      eq\n      tag_18\n      jumpi\n      dup1\n      0xa6acce35\n      eq\n      tag_19\n      jumpi\n      jump(tag_2)\n    tag_26:\n      dup1\n      0x33a0b0ab\n      gt\n      tag_28\n      jumpi\n      dup1\n      0x33a0b0ab\n      eq\n      tag_8\n      jumpi\n      dup1\n      0x37f2e190\n      eq\n      tag_9\n      jumpi\n      dup1\n      0x3d63af0e\n      eq\n      tag_10\n      jumpi\n      dup1\n      0x4205717d\n      eq\n      tag_11\n      jumpi\n      dup1\n      0x538b3cc6\n      eq\n      tag_12\n      jumpi\n      dup1\n      0x7aa18f88\n      eq\n      tag_13\n      jumpi\n      jump(tag_2)\n    tag_28:\n      dup1\n      0x06699b01\n      eq\n      tag_3\n      jumpi\n      dup1\n      0x11c2b413\n      eq\n      tag_4\n      jumpi\n      dup1\n      0x17072d6b\n      eq\n      tag_5\n      jumpi\n      dup1\n      0x233d0fa1\n      eq\n      tag_6\n      jumpi\n      dup1\n      0x31189fe2\n      eq\n      tag_7\n      jumpi\n    tag_2:\n      0x00\n      dup1\n      revert\n        /* \"contracts/BusinessConsensus3.sol\":1132:1170  mapping(string=>address[]) public keys */\n    tag_3:\n      tag_29\n      0x04\n      dup1\n      calldatasize\n      sub\n      dup2\n      add\n      swap1\n      tag_30\n      swap2\n      swap1\n      tag_31\n      jump\t// in\n    tag_30:\n      tag_32\n      jump\t// in\n    tag_29:\n      mload(0x40)\n      tag_33\n      swap2\n      swap1\n      tag_34\n      jump\t// in\n    tag_33:\n      mload(0x40)\n      dup1\n      swap2\n      sub\n      swap1\n      return\n        /* \"contracts/BusinessConsensus3.sol\":461:496  mapping(string =>string) public IDs */\n    tag_4:\n      tag_35\n      0x04\n      dup1\n      calldatasize\n      sub\n      dup2\n      add\n      swap1\n      tag_36\n      swap2\n      swap1\n      tag_37\n      jump\t// in\n    tag_36:\n      tag_38\n      jump\t// in\n    tag_35:\n      mload(0x40)\n      tag_39\n      swap2\n      swap1\n      tag_40\n      jump\t// in\n    tag_39:\n      mload(0x40)\n      dup1\n      swap2\n      sub\n      swap1\n      return\n        /* \"contracts/BusinessConsensus3.sol\":4365:5670  function Vote(string memory response,string calldata _messageID) external {\r... */\n    tag_5:\n      tag_41\n      0x04\n      dup1\n      calldatasize\n      sub\n      dup2\n      add\n      swap1\n      tag_42\n      swap2\n      swap1\n      tag_43\n      jump\t// in\n    tag_42:\n      tag_44\n      jump\t// in\n    tag_41:\n      stop\n        /* \"contracts/BusinessConsensus3.sol\":875:919  mapping(string => bool) public finalVerdicts */\n    tag_6:\n      tag_45\n      0x04\n      dup1\n      calldatasize\n      sub\n      dup2\n      add\n      swap1\n      tag_46\n      swap2\n      swap1\n      tag_37\n      jump\t// in\n    tag_46:\n      tag_47\n      jump\t// in\n    tag_45:\n      mload(0x40)\n      tag_48\n      swap2\n      swap1\n      tag_49\n      jump\t// in\n    tag_48:\n      mload(0x40)\n      dup1\n      swap2\n      sub\n      swap1\n      return\n        /* \"contracts/BusinessConsensus3.sol\":926:967  mapping(string => bool) public isCompiled */\n    tag_7:\n      tag_50\n      0x04\n      dup1\n      calldatasize\n      sub\n      dup2\n      add\n      swap1\n      tag_51\n      swap2\n      swap1\n      tag_37\n      jump\t// in\n    tag_51:\n      tag_52\n      jump\t// in\n    tag_50:\n      mload(0x40)\n      tag_53\n      swap2\n      swap1\n      tag_49\n      jump\t// in\n    tag_53:\n      mload(0x40)\n      dup1\n      swap2\n      sub\n      swap1\n      return\n        /* \"contracts/BusinessConsensus3.sol\":1022:1080  mapping(string=>mapping(address=>Voter)) public voter_maps */\n    tag_8:\n      tag_54\n      0x04\n      dup1\n      calldatasize\n      sub\n      dup2\n      add\n      swap1\n      tag_55\n      swap2\n      swap1\n      tag_56\n      jump\t// in\n    tag_55:\n      tag_57\n      jump\t// in\n    tag_54:\n      mload(0x40)\n      tag_58\n      swap4\n      swap3\n      swap2\n      swap1\n      tag_59\n      jump\t// in\n    tag_58:\n      mload(0x40)\n      dup1\n      swap2\n      sub\n      swap1\n      return\n        /* \"contracts/BusinessConsensus3.sol\":6672:7113  function retrieve_bundle(string calldata _messageID) external view returns (bool, string memory, uint256, Voter[] memory){\r... */\n    tag_9:\n      tag_60\n      0x04\n      dup1\n      calldatasize\n      sub\n      dup2\n      add\n      swap1\n      tag_61\n      swap2\n      swap1\n      tag_62\n      jump\t// in\n    tag_61:\n      tag_63\n      jump\t// in\n    tag_60:\n      mload(0x40)\n      tag_64\n      swap5\n      swap4\n      swap3\n      swap2\n      swap1\n      tag_65\n      jump\t// in\n    tag_64:\n      mload(0x40)\n      dup1\n      swap2\n      sub\n      swap1\n      return\n        /* \"contracts/BusinessConsensus3.sol\":3611:4357  function RegisterVoter(address voter,string calldata _messageID) external {\r... */\n    tag_10:\n      tag_66\n      0x04\n      dup1\n      calldatasize\n      sub\n      dup2\n      add\n      swap1\n      tag_67\n      swap2\n      swap1\n      tag_68\n      jump\t// in\n    tag_67:\n      tag_69\n      jump\t// in\n    tag_66:\n      stop\n        /* \"contracts/BusinessConsensus3.sol\":503:547  mapping(string => uint256) public voteCounts */\n    tag_11:\n      tag_70\n      0x04\n      dup1\n      calldatasize\n      sub\n      dup2\n      add\n      swap1\n      tag_71\n      swap2\n      swap1\n      tag_37\n      jump\t// in\n    tag_71:\n      tag_72\n      jump\t// in\n    tag_70:\n      mload(0x40)\n      tag_73\n      swap2\n      swap1\n      tag_74\n      jump\t// in\n    tag_73:\n      mload(0x40)\n      dup1\n      swap2\n      sub\n      swap1\n      return\n        /* \"contracts/BusinessConsensus3.sol\":608:653  mapping(string => uint256) public expiryDates */\n    tag_12:\n      tag_75\n      0x04\n      dup1\n      calldatasize\n      sub\n      dup2\n      add\n      swap1\n      tag_76\n      swap2\n      swap1\n      tag_37\n      jump\t// in\n    tag_76:\n      tag_77\n      jump\t// in\n    tag_75:\n      mload(0x40)\n      tag_78\n      swap2\n      swap1\n      tag_74\n      jump\t// in\n    tag_78:\n      mload(0x40)\n      dup1\n      swap2\n      sub\n      swap1\n      return\n        /* \"contracts/BusinessConsensus3.sol\":1183:2380  function createContract(string memory _messageID, uint256 expiry, uint256 requiredPercentage,bytes32 _contents,string memory subject,string memory _messageDate) external{\r... */\n    tag_13:\n      tag_79\n      0x04\n      dup1\n      calldatasize\n      sub\n      dup2\n      add\n      swap1\n      tag_80\n      swap2\n      swap1\n      tag_81\n      jump\t// in\n    tag_80:\n      tag_82\n      jump\t// in\n    tag_79:\n      stop\n        /* \"contracts/BusinessConsensus3.sol\":5734:6664  function Consensus(string calldata _messageID) external {\r... */\n    tag_14:\n      tag_83\n      0x04\n      dup1\n      calldatasize\n      sub\n      dup2\n      add\n      swap1\n      tag_84\n      swap2\n      swap1\n      tag_62\n      jump\t// in\n    tag_84:\n      tag_85\n      jump\t// in\n    tag_83:\n      stop\n        /* \"contracts/BusinessConsensus3.sol\":823:868  mapping(string => string) public messageDates */\n    tag_15:\n      tag_86\n      0x04\n      dup1\n      calldatasize\n      sub\n      dup2\n      add\n      swap1\n      tag_87\n      swap2\n      swap1\n      tag_37\n      jump\t// in\n    tag_87:\n      tag_88\n      jump\t// in\n    tag_86:\n      mload(0x40)\n      tag_89\n      swap2\n      swap1\n      tag_40\n      jump\t// in\n    tag_89:\n      mload(0x40)\n      dup1\n      swap2\n      sub\n      swap1\n      return\n        /* \"contracts/BusinessConsensus3.sol\":1087:1125  mapping(string=>Voter[]) public Voters */\n    tag_16:\n      tag_90\n      0x04\n      dup1\n      calldatasize\n      sub\n      dup2\n      add\n      swap1\n      tag_91\n      swap2\n      swap1\n      tag_31\n      jump\t// in\n    tag_91:\n      tag_92\n      jump\t// in\n    tag_90:\n      mload(0x40)\n      tag_93\n      swap4\n      swap3\n      swap2\n      swap1\n      tag_59\n      jump\t// in\n    tag_93:\n      mload(0x40)\n      dup1\n      swap2\n      sub\n      swap1\n      return\n        /* \"contracts/BusinessConsensus3.sol\":709:755  mapping(string => uint256) public numApprovals */\n    tag_17:\n      tag_94\n      0x04\n      dup1\n      calldatasize\n      sub\n      dup2\n      add\n      swap1\n      tag_95\n      swap2\n      swap1\n      tag_37\n      jump\t// in\n    tag_95:\n      tag_96\n      jump\t// in\n    tag_94:\n      mload(0x40)\n      tag_97\n      swap2\n      swap1\n      tag_74\n      jump\t// in\n    tag_97:\n      mload(0x40)\n      dup1\n      swap2\n      sub\n      swap1\n      return\n        /* \"contracts/BusinessConsensus3.sol\":2517:3341  function checkConsistency(string memory _subject, uint256 _businessRequirement, uint256 _expiryLength, bytes32 _contents) public view returns(bool, bool, bool){\r... */\n    tag_18:\n      tag_98\n      0x04\n      dup1\n      calldatasize\n      sub\n      dup2\n      add\n      swap1\n      tag_99\n      swap2\n      swap1\n      tag_100\n      jump\t// in\n    tag_99:\n      tag_101\n      jump\t// in\n    tag_98:\n      mload(0x40)\n      tag_102\n      swap4\n      swap3\n      swap2\n      swap1\n      tag_103\n      jump\t// in\n    tag_102:\n      mload(0x40)\n      dup1\n      swap2\n      sub\n      swap1\n      return\n        /* \"contracts/BusinessConsensus3.sol\":660:702  mapping(string => bytes32) public contents */\n    tag_19:\n      tag_104\n      0x04\n      dup1\n      calldatasize\n      sub\n      dup2\n      add\n      swap1\n      tag_105\n      swap2\n      swap1\n      tag_37\n      jump\t// in\n    tag_105:\n      tag_106\n      jump\t// in\n    tag_104:\n      mload(0x40)\n      tag_107\n      swap2\n      swap1\n      tag_108\n      jump\t// in\n    tag_107:\n      mload(0x40)\n      dup1\n      swap2\n      sub\n      swap1\n      return\n        /* \"contracts/BusinessConsensus3.sol\":554:601  mapping(string => uint256) public expiryLengths */\n    tag_20:\n      tag_109\n      0x04\n      dup1\n      calldatasize\n      sub\n      dup2\n      add\n      swap1\n      tag_110\n      swap2\n      swap1\n      tag_37\n      jump\t// in\n    tag_110:\n      tag_111\n      jump\t// in\n    tag_109:\n      mload(0x40)\n      tag_112\n      swap2\n      swap1\n      tag_74\n      jump\t// in\n    tag_112:\n      mload(0x40)\n      dup1\n      swap2\n      sub\n      swap1\n      return\n        /* \"contracts/BusinessConsensus3.sol\":762:816  mapping(string => uint256) public businessRequirements */\n    tag_21:\n      tag_113\n      0x04\n      dup1\n      calldatasize\n      sub\n      dup2\n      add\n      swap1\n      tag_114\n      swap2\n      swap1\n      tag_37\n      jump\t// in\n    tag_114:\n      tag_115\n      jump\t// in\n    tag_113:\n      mload(0x40)\n      tag_116\n      swap2\n      swap1\n      tag_74\n      jump\t// in\n    tag_116:\n      mload(0x40)\n      dup1\n      swap2\n      sub\n      swap1\n      return\n        /* \"contracts/BusinessConsensus3.sol\":3347:3505  function getIsCreated(string calldata subject) public view returns (string memory,string memory){\r... */\n    tag_22:\n      tag_117\n      0x04\n      dup1\n      calldatasize\n      sub\n      dup2\n      add\n      swap1\n      tag_118\n      swap2\n      swap1\n      tag_62\n      jump\t// in\n    tag_118:\n      tag_119\n      jump\t// in\n    tag_117:\n      mload(0x40)\n      tag_120\n      swap3\n      swap2\n      swap1\n      tag_121\n      jump\t// in\n    tag_120:\n      mload(0x40)\n      dup1\n      swap2\n      sub\n      swap1\n      return\n        /* \"contracts/BusinessConsensus3.sol\":412:454  mapping(string=>address) public initiators */\n    tag_23:\n      tag_122\n      0x04\n      dup1\n      calldatasize\n      sub\n      dup2\n      add\n      swap1\n      tag_123\n      swap2\n      swap1\n      tag_37\n      jump\t// in\n    tag_123:\n      tag_124\n      jump\t// in\n    tag_122:\n      mload(0x40)\n      tag_125\n      swap2\n      swap1\n      tag_34\n      jump\t// in\n    tag_125:\n      mload(0x40)\n      dup1\n      swap2\n      sub\n      swap1\n      return\n        /* \"contracts/BusinessConsensus3.sol\":2386:2511  function getIsCompiled(string calldata _messageID) public view returns (bool){\r... */\n    tag_24:\n      tag_126\n      0x04\n      dup1\n      calldatasize\n      sub\n      dup2\n      add\n      swap1\n      tag_127\n      swap2\n      swap1\n      tag_62\n      jump\t// in\n    tag_127:\n      tag_128\n      jump\t// in\n    tag_126:\n      mload(0x40)\n      tag_129\n      swap2\n      swap1\n      tag_49\n      jump\t// in\n    tag_129:\n      mload(0x40)\n      dup1\n      swap2\n      sub\n      swap1\n      return\n        /* \"contracts/BusinessConsensus3.sol\":974:1015  mapping(string => string) public subjects */\n    tag_25:\n      tag_130\n      0x04\n      dup1\n      calldatasize\n      sub\n      dup2\n      add\n      swap1\n      tag_131\n      swap2\n      swap1\n      tag_37\n      jump\t// in\n    tag_131:\n      tag_132\n      jump\t// in\n    tag_130:\n      mload(0x40)\n      tag_133\n      swap2\n      swap1\n      tag_40\n      jump\t// in\n    tag_133:\n      mload(0x40)\n      dup1\n      swap2\n      sub\n      swap1\n      return\n        /* \"contracts/BusinessConsensus3.sol\":1132:1170  mapping(string=>address[]) public keys */\n    tag_32:\n      0x0e\n      dup3\n      dup1\n      mload\n      0x20\n      dup2\n      add\n      dup3\n      add\n      dup1\n      mload\n      dup5\n      dup3\n      mstore\n      0x20\n      dup4\n      add\n      0x20\n      dup6\n      add\n      keccak256\n      dup2\n      dup4\n      mstore\n      dup1\n      swap6\n      pop\n      pop\n      pop\n      pop\n      pop\n      pop\n      dup2\n      dup2\n      sload\n      dup2\n      lt\n      tag_134\n      jumpi\n      0x00\n      dup1\n      revert\n    tag_134:\n      swap1\n      0x00\n      mstore\n      keccak256(0x00, 0x20)\n      add\n      0x00\n      swap2\n      pop\n      swap2\n      pop\n      swap1\n      sload\n      swap1\n      0x0100\n      exp\n      swap1\n      div\n      0xffffffffffffffffffffffffffffffffffffffff\n      and\n      dup2\n      jump\t// out\n        /* \"contracts/BusinessConsensus3.sol\":461:496  mapping(string =>string) public IDs */\n    tag_38:\n      0x01\n      dup2\n      dup1\n      mload\n      0x20\n      dup2\n      add\n      dup3\n      add\n      dup1\n      mload\n      dup5\n      dup3\n      mstore\n      0x20\n      dup4\n      add\n      0x20\n      dup6\n      add\n      keccak256\n      dup2\n      dup4\n      mstore\n      dup1\n      swap6\n      pop\n      pop\n      pop\n      pop\n      pop\n      pop\n      0x00\n      swap2\n      pop\n      swap1\n      pop\n      dup1\n      sload\n      tag_136\n      swap1\n      tag_137\n      jump\t// in\n    tag_136:\n      dup1\n      0x1f\n      add\n      0x20\n      dup1\n      swap2\n      div\n      mul\n      0x20\n      add\n      mload(0x40)\n      swap1\n      dup2\n      add\n      0x40\n      mstore\n      dup1\n      swap3\n      swap2\n      swap1\n      dup2\n      dup2\n      mstore\n      0x20\n      add\n      dup3\n      dup1\n      sload\n      tag_138\n      swap1\n      tag_137\n      jump\t// in\n    tag_138:\n      dup1\n      iszero\n      tag_139\n      jumpi\n      dup1\n      0x1f\n      lt\n      tag_140\n      jumpi\n      0x0100\n      dup1\n      dup4\n      sload\n      div\n      mul\n      dup4\n      mstore\n      swap2\n      0x20\n      add\n      swap2\n      jump(tag_139)\n    tag_140:\n      dup3\n      add\n      swap2\n      swap1\n      0x00\n      mstore\n      keccak256(0x00, 0x20)\n      swap1\n    tag_141:\n      dup2\n      sload\n      dup2\n      mstore\n      swap1\n      0x01\n      add\n      swap1\n      0x20\n      add\n      dup1\n      dup4\n      gt\n      tag_141\n      jumpi\n      dup3\n      swap1\n      sub\n      0x1f\n      and\n      dup3\n      add\n      swap2\n    tag_139:\n      pop\n      pop\n      pop\n      pop\n      pop\n      dup2\n      jump\t// out\n        /* \"contracts/BusinessConsensus3.sol\":4365:5670  function Vote(string memory response,string calldata _messageID) external {\r... */\n    tag_44:\n        /* \"contracts/BusinessConsensus3.sol\":4478:4489  expiryDates */\n      0x04\n        /* \"contracts/BusinessConsensus3.sol\":4490:4500  _messageID */\n      dup3\n      dup3\n        /* \"contracts/BusinessConsensus3.sol\":4478:4501  expiryDates[_messageID] */\n      mload(0x40)\n      tag_143\n      swap3\n      swap2\n      swap1\n      tag_144\n      jump\t// in\n    tag_143:\n      swap1\n      dup2\n      mstore\n      0x20\n      add\n      mload(0x40)\n      dup1\n      swap2\n      sub\n      swap1\n      keccak256\n      sload\n        /* \"contracts/BusinessConsensus3.sol\":4460:4475  block.timestamp */\n      timestamp\n        /* \"contracts/BusinessConsensus3.sol\":4460:4501  block.timestamp < expiryDates[_messageID] */\n      lt\n        /* \"contracts/BusinessConsensus3.sol\":4452:4524  require(block.timestamp < expiryDates[_messageID], \"Voting has expired\") */\n      tag_145\n      jumpi\n      mload(0x40)\n      0x08c379a000000000000000000000000000000000000000000000000000000000\n      dup2\n      mstore\n      0x04\n      add\n      tag_146\n      swap1\n      tag_147\n      jump\t// in\n    tag_146:\n      mload(0x40)\n      dup1\n      swap2\n      sub\n      swap1\n      revert\n    tag_145:\n        /* \"contracts/BusinessConsensus3.sol\":4599:4602  0x0 */\n      0x00\n        /* \"contracts/BusinessConsensus3.sol\":4543:4603  voter_maps[_messageID][msg.sender].recipient != address(0x0) */\n      0xffffffffffffffffffffffffffffffffffffffff\n      and\n        /* \"contracts/BusinessConsensus3.sol\":4543:4553  voter_maps */\n      0x0c\n        /* \"contracts/BusinessConsensus3.sol\":4554:4564  _messageID */\n      dup4\n      dup4\n        /* \"contracts/BusinessConsensus3.sol\":4543:4565  voter_maps[_messageID] */\n      mload(0x40)\n      tag_148\n      swap3\n      swap2\n      swap1\n      tag_144\n      jump\t// in\n    tag_148:\n      swap1\n      dup2\n      mstore\n      0x20\n      add\n      mload(0x40)\n      dup1\n      swap2\n      sub\n      swap1\n      keccak256\n        /* \"contracts/BusinessConsensus3.sol\":4543:4577  voter_maps[_messageID][msg.sender] */\n      0x00\n        /* \"contracts/BusinessConsensus3.sol\":4566:4576  msg.sender */\n      caller\n        /* \"contracts/BusinessConsensus3.sol\":4543:4577  voter_maps[_messageID][msg.sender] */\n      0xffffffffffffffffffffffffffffffffffffffff\n      and\n      0xffffffffffffffffffffffffffffffffffffffff\n      and\n      dup2\n      mstore\n      0x20\n      add\n      swap1\n      dup2\n      mstore\n      0x20\n      add\n      0x00\n      keccak256\n        /* \"contracts/BusinessConsensus3.sol\":4543:4587  voter_maps[_messageID][msg.sender].recipient */\n      0x00\n      add\n      0x02\n      swap1\n      sload\n      swap1\n      0x0100\n      exp\n      swap1\n      div\n      0xffffffffffffffffffffffffffffffffffffffff\n      and\n        /* \"contracts/BusinessConsensus3.sol\":4543:4603  voter_maps[_messageID][msg.sender].recipient != address(0x0) */\n      0xffffffffffffffffffffffffffffffffffffffff\n      and\n      eq\n      iszero\n        /* \"contracts/BusinessConsensus3.sol\":4535:4638  require(voter_maps[_messageID][msg.sender].recipient != address(0x0), \"You are not registered to vote\") */\n      tag_149\n      jumpi\n      mload(0x40)\n      0x08c379a000000000000000000000000000000000000000000000000000000000\n      dup2\n      mstore\n      0x04\n      add\n      tag_150\n      swap1\n      tag_151\n      jump\t// in\n    tag_150:\n      mload(0x40)\n      dup1\n      swap2\n      sub\n      swap1\n      revert\n    tag_149:\n        /* \"contracts/BusinessConsensus3.sol\":4658:4668  voter_maps */\n      0x0c\n        /* \"contracts/BusinessConsensus3.sol\":4669:4679  _messageID */\n      dup3\n      dup3\n        /* \"contracts/BusinessConsensus3.sol\":4658:4680  voter_maps[_messageID] */\n      mload(0x40)\n      tag_152\n      swap3\n      swap2\n      swap1\n      tag_144\n      jump\t// in\n    tag_152:\n      swap1\n      dup2\n      mstore\n      0x20\n      add\n      mload(0x40)\n      dup1\n      swap2\n      sub\n      swap1\n      keccak256\n        /* \"contracts/BusinessConsensus3.sol\":4658:4692  voter_maps[_messageID][msg.sender] */\n      0x00\n        /* \"contracts/BusinessConsensus3.sol\":4681:4691  msg.sender */\n      caller\n        /* \"contracts/BusinessConsensus3.sol\":4658:4692  voter_maps[_messageID][msg.sender] */\n      0xffffffffffffffffffffffffffffffffffffffff\n      and\n      0xffffffffffffffffffffffffffffffffffffffff\n      and\n      dup2\n      mstore\n      0x20\n      add\n      swap1\n      dup2\n      mstore\n      0x20\n      add\n      0x00\n      keccak256\n        /* \"contracts/BusinessConsensus3.sol\":4658:4698  voter_maps[_messageID][msg.sender].voted */\n      0x00\n      add\n      0x00\n      swap1\n      sload\n      swap1\n      0x0100\n      exp\n      swap1\n      div\n      0xff\n      and\n        /* \"contracts/BusinessConsensus3.sol\":4657:4698  !voter_maps[_messageID][msg.sender].voted */\n      iszero\n        /* \"contracts/BusinessConsensus3.sol\":4649:4731  require(!voter_maps[_messageID][msg.sender].voted, \"You already sent a response.\") */\n      tag_153\n      jumpi\n      mload(0x40)\n      0x08c379a000000000000000000000000000000000000000000000000000000000\n      dup2\n      mstore\n      0x04\n      add\n      tag_154\n      swap1\n      tag_155\n      jump\t// in\n    tag_154:\n      mload(0x40)\n      dup1\n      swap2\n      sub\n      swap1\n      revert\n    tag_153:\n        /* \"contracts/BusinessConsensus3.sol\":4787:4805  bytes(\"i approve\") */\n      mload(0x40)\n      dup1\n      0x40\n      add\n      0x40\n      mstore\n      dup1\n      0x09\n      dup2\n      mstore\n      0x20\n      add\n      0x6920617070726f76650000000000000000000000000000000000000000000000\n      dup2\n      mstore\n      pop\n        /* \"contracts/BusinessConsensus3.sol\":4777:4806  keccak256(bytes(\"i approve\")) */\n      dup1\n      mload\n      swap1\n      0x20\n      add\n      keccak256\n        /* \"contracts/BusinessConsensus3.sol\":4763:4771  response */\n      dup4\n        /* \"contracts/BusinessConsensus3.sol\":4747:4773  keccak256(bytes(response)) */\n      dup1\n      mload\n      swap1\n      0x20\n      add\n      keccak256\n        /* \"contracts/BusinessConsensus3.sol\":4747:4806  keccak256(bytes(response)) == keccak256(bytes(\"i approve\")) */\n      eq\n        /* \"contracts/BusinessConsensus3.sol\":4744:5653  if(keccak256(bytes(response)) == keccak256(bytes(\"i approve\"))){\r... */\n      iszero\n      tag_156\n      jumpi\n        /* \"contracts/BusinessConsensus3.sol\":4865:4869  true */\n      0x01\n        /* \"contracts/BusinessConsensus3.sol\":4822:4832  voter_maps */\n      0x0c\n        /* \"contracts/BusinessConsensus3.sol\":4833:4843  _messageID */\n      dup4\n      dup4\n        /* \"contracts/BusinessConsensus3.sol\":4822:4844  voter_maps[_messageID] */\n      mload(0x40)\n      tag_157\n      swap3\n      swap2\n      swap1\n      tag_144\n      jump\t// in\n    tag_157:\n      swap1\n      dup2\n      mstore\n      0x20\n      add\n      mload(0x40)\n      dup1\n      swap2\n      sub\n      swap1\n      keccak256\n        /* \"contracts/BusinessConsensus3.sol\":4822:4856  voter_maps[_messageID][msg.sender] */\n      0x00\n        /* \"contracts/BusinessConsensus3.sol\":4845:4855  msg.sender */\n      caller\n        /* \"contracts/BusinessConsensus3.sol\":4822:4856  voter_maps[_messageID][msg.sender] */\n      0xffffffffffffffffffffffffffffffffffffffff\n      and\n      0xffffffffffffffffffffffffffffffffffffffff\n      and\n      dup2\n      mstore\n      0x20\n      add\n      swap1\n      dup2\n      mstore\n      0x20\n      add\n      0x00\n      keccak256\n        /* \"contracts/BusinessConsensus3.sol\":4822:4862  voter_maps[_messageID][msg.sender].voted */\n      0x00\n      add\n      0x00\n        /* \"contracts/BusinessConsensus3.sol\":4822:4869  voter_maps[_messageID][msg.sender].voted = true */\n      0x0100\n      exp\n      dup2\n      sload\n      dup2\n      0xff\n      mul\n      not\n      and\n      swap1\n      dup4\n      iszero\n      iszero\n      mul\n      or\n      swap1\n      sstore\n      pop\n        /* \"contracts/BusinessConsensus3.sol\":4926:4930  true */\n      0x01\n        /* \"contracts/BusinessConsensus3.sol\":4884:4894  voter_maps */\n      0x0c\n        /* \"contracts/BusinessConsensus3.sol\":4895:4905  _messageID */\n      dup4\n      dup4\n        /* \"contracts/BusinessConsensus3.sol\":4884:4906  voter_maps[_messageID] */\n      mload(0x40)\n      tag_158\n      swap3\n      swap2\n      swap1\n      tag_144\n      jump\t// in\n    tag_158:\n      swap1\n      dup2\n      mstore\n      0x20\n      add\n      mload(0x40)\n      dup1\n      swap2\n      sub\n      swap1\n      keccak256\n        /* \"contracts/BusinessConsensus3.sol\":4884:4918  voter_maps[_messageID][msg.sender] */\n      0x00\n        /* \"contracts/BusinessConsensus3.sol\":4907:4917  msg.sender */\n      caller\n        /* \"contracts/BusinessConsensus3.sol\":4884:4918  voter_maps[_messageID][msg.sender] */\n      0xffffffffffffffffffffffffffffffffffffffff\n      and\n      0xffffffffffffffffffffffffffffffffffffffff\n      and\n      dup2\n      mstore\n      0x20\n      add\n      swap1\n      dup2\n      mstore\n      0x20\n      add\n      0x00\n      keccak256\n        /* \"contracts/BusinessConsensus3.sol\":4884:4923  voter_maps[_messageID][msg.sender].vote */\n      0x00\n      add\n      0x01\n        /* \"contracts/BusinessConsensus3.sol\":4884:4930  voter_maps[_messageID][msg.sender].vote = true */\n      0x0100\n      exp\n      dup2\n      sload\n      dup2\n      0xff\n      mul\n      not\n      and\n      swap1\n      dup4\n      iszero\n      iszero\n      mul\n      or\n      swap1\n      sstore\n      pop\n        /* \"contracts/BusinessConsensus3.sol\":4973:4974  1 */\n      0x01\n        /* \"contracts/BusinessConsensus3.sol\":4945:4957  numApprovals */\n      0x06\n        /* \"contracts/BusinessConsensus3.sol\":4958:4968  _messageID */\n      dup4\n      dup4\n        /* \"contracts/BusinessConsensus3.sol\":4945:4969  numApprovals[_messageID] */\n      mload(0x40)\n      tag_159\n      swap3\n      swap2\n      swap1\n      tag_144\n      jump\t// in\n    tag_159:\n      swap1\n      dup2\n      mstore\n      0x20\n      add\n      mload(0x40)\n      dup1\n      swap2\n      sub\n      swap1\n      keccak256\n      0x00\n        /* \"contracts/BusinessConsensus3.sol\":4945:4974  numApprovals[_messageID] += 1 */\n      dup3\n      dup3\n      sload\n      tag_160\n      swap2\n      swap1\n      tag_161\n      jump\t// in\n    tag_160:\n      swap3\n      pop\n      pop\n      dup2\n      swap1\n      sstore\n      pop\n        /* \"contracts/BusinessConsensus3.sol\":5015:5016  1 */\n      0x01\n        /* \"contracts/BusinessConsensus3.sol\":4989:4999  voteCounts */\n      0x02\n        /* \"contracts/BusinessConsensus3.sol\":5000:5010  _messageID */\n      dup4\n      dup4\n        /* \"contracts/BusinessConsensus3.sol\":4989:5011  voteCounts[_messageID] */\n      mload(0x40)\n      tag_162\n      swap3\n      swap2\n      swap1\n      tag_144\n      jump\t// in\n    tag_162:\n      swap1\n      dup2\n      mstore\n      0x20\n      add\n      mload(0x40)\n      dup1\n      swap2\n      sub\n      swap1\n      keccak256\n      0x00\n        /* \"contracts/BusinessConsensus3.sol\":4989:5016  voteCounts[_messageID] += 1 */\n      dup3\n      dup3\n      sload\n      tag_163\n      swap2\n      swap1\n      tag_161\n      jump\t// in\n    tag_163:\n      swap3\n      pop\n      pop\n      dup2\n      swap1\n      sstore\n      pop\n        /* \"contracts/BusinessConsensus3.sol\":5031:5037  Voters */\n      0x0d\n        /* \"contracts/BusinessConsensus3.sol\":5038:5048  _messageID */\n      dup3\n      dup3\n        /* \"contracts/BusinessConsensus3.sol\":5031:5049  Voters[_messageID] */\n      mload(0x40)\n      tag_164\n      swap3\n      swap2\n      swap1\n      tag_144\n      jump\t// in\n    tag_164:\n      swap1\n      dup2\n      mstore\n      0x20\n      add\n      mload(0x40)\n      dup1\n      swap2\n      sub\n      swap1\n      keccak256\n        /* \"contracts/BusinessConsensus3.sol\":5055:5065  voter_maps */\n      0x0c\n        /* \"contracts/BusinessConsensus3.sol\":5066:5076  _messageID */\n      dup4\n      dup4\n        /* \"contracts/BusinessConsensus3.sol\":5055:5077  voter_maps[_messageID] */\n      mload(0x40)\n      tag_165\n      swap3\n      swap2\n      swap1\n      tag_144\n      jump\t// in\n    tag_165:\n      swap1\n      dup2\n      mstore\n      0x20\n      add\n      mload(0x40)\n      dup1\n      swap2\n      sub\n      swap1\n      keccak256\n        /* \"contracts/BusinessConsensus3.sol\":5055:5089  voter_maps[_messageID][msg.sender] */\n      0x00\n        /* \"contracts/BusinessConsensus3.sol\":5078:5088  msg.sender */\n      caller\n        /* \"contracts/BusinessConsensus3.sol\":5055:5089  voter_maps[_messageID][msg.sender] */\n      0xffffffffffffffffffffffffffffffffffffffff\n      and\n      0xffffffffffffffffffffffffffffffffffffffff\n      and\n      dup2\n      mstore\n      0x20\n      add\n      swap1\n      dup2\n      mstore\n      0x20\n      add\n      0x00\n      keccak256\n        /* \"contracts/BusinessConsensus3.sol\":5031:5090  Voters[_messageID].push(voter_maps[_messageID][msg.sender]) */\n      swap1\n      dup1\n      0x01\n      dup2\n      sload\n      add\n      dup1\n      dup3\n      sstore\n      dup1\n      swap2\n      pop\n      pop\n      0x01\n      swap1\n      sub\n      swap1\n      0x00\n      mstore\n      keccak256(0x00, 0x20)\n      add\n      0x00\n      swap1\n      swap2\n      swap1\n      swap2\n      swap1\n      swap2\n      pop\n      0x00\n      dup3\n      add\n      0x00\n      swap1\n      sload\n      swap1\n      0x0100\n      exp\n      swap1\n      div\n      0xff\n      and\n      dup2\n      0x00\n      add\n      exp(0x0100, 0x00)\n      dup2\n      sload\n      dup2\n      0xff\n      mul\n      not\n      and\n      swap1\n      dup4\n      iszero\n      iszero\n      mul\n      or\n      swap1\n      sstore\n      pop\n      0x00\n      dup3\n      add\n      0x01\n      swap1\n      sload\n      swap1\n      0x0100\n      exp\n      swap1\n      div\n      0xff\n      and\n      dup2\n      0x00\n      add\n      exp(0x0100, 0x01)\n      dup2\n      sload\n      dup2\n      0xff\n      mul\n      not\n      and\n      swap1\n      dup4\n      iszero\n      iszero\n      mul\n      or\n      swap1\n      sstore\n      pop\n      0x00\n      dup3\n      add\n      0x02\n      swap1\n      sload\n      swap1\n      0x0100\n      exp\n      swap1\n      div\n      0xffffffffffffffffffffffffffffffffffffffff\n      and\n      dup2\n      0x00\n      add\n      exp(0x0100, 0x02)\n      dup2\n      sload\n      dup2\n      0xffffffffffffffffffffffffffffffffffffffff\n      mul\n      not\n      and\n      swap1\n      dup4\n      0xffffffffffffffffffffffffffffffffffffffff\n      and\n      mul\n      or\n      swap1\n      sstore\n      pop\n      pop\n      pop\n        /* \"contracts/BusinessConsensus3.sol\":4744:5653  if(keccak256(bytes(response)) == keccak256(bytes(\"i approve\"))){\r... */\n      jump(tag_167)\n    tag_156:\n        /* \"contracts/BusinessConsensus3.sol\":5162:5183  bytes(\"i disapprove\") */\n      mload(0x40)\n      dup1\n      0x40\n      add\n      0x40\n      mstore\n      dup1\n      0x0c\n      dup2\n      mstore\n      0x20\n      add\n      0x6920646973617070726f76650000000000000000000000000000000000000000\n      dup2\n      mstore\n      pop\n        /* \"contracts/BusinessConsensus3.sol\":5152:5184  keccak256(bytes(\"i disapprove\")) */\n      dup1\n      mload\n      swap1\n      0x20\n      add\n      keccak256\n        /* \"contracts/BusinessConsensus3.sol\":5138:5146  response */\n      dup4\n        /* \"contracts/BusinessConsensus3.sol\":5122:5148  keccak256(bytes(response)) */\n      dup1\n      mload\n      swap1\n      0x20\n      add\n      keccak256\n        /* \"contracts/BusinessConsensus3.sol\":5122:5184  keccak256(bytes(response)) == keccak256(bytes(\"i disapprove\")) */\n      eq\n        /* \"contracts/BusinessConsensus3.sol\":5119:5653  if(keccak256(bytes(response)) == keccak256(bytes(\"i disapprove\"))){\r... */\n      iszero\n      tag_168\n      jumpi\n        /* \"contracts/BusinessConsensus3.sol\":5243:5247  true */\n      0x01\n        /* \"contracts/BusinessConsensus3.sol\":5200:5210  voter_maps */\n      0x0c\n        /* \"contracts/BusinessConsensus3.sol\":5211:5221  _messageID */\n      dup4\n      dup4\n        /* \"contracts/BusinessConsensus3.sol\":5200:5222  voter_maps[_messageID] */\n      mload(0x40)\n      tag_169\n      swap3\n      swap2\n      swap1\n      tag_144\n      jump\t// in\n    tag_169:\n      swap1\n      dup2\n      mstore\n      0x20\n      add\n      mload(0x40)\n      dup1\n      swap2\n      sub\n      swap1\n      keccak256\n        /* \"contracts/BusinessConsensus3.sol\":5200:5234  voter_maps[_messageID][msg.sender] */\n      0x00\n        /* \"contracts/BusinessConsensus3.sol\":5223:5233  msg.sender */\n      caller\n        /* \"contracts/BusinessConsensus3.sol\":5200:5234  voter_maps[_messageID][msg.sender] */\n      0xffffffffffffffffffffffffffffffffffffffff\n      and\n      0xffffffffffffffffffffffffffffffffffffffff\n      and\n      dup2\n      mstore\n      0x20\n      add\n      swap1\n      dup2\n      mstore\n      0x20\n      add\n      0x00\n      keccak256\n        /* \"contracts/BusinessConsensus3.sol\":5200:5240  voter_maps[_messageID][msg.sender].voted */\n      0x00\n      add\n      0x00\n        /* \"contracts/BusinessConsensus3.sol\":5200:5247  voter_maps[_messageID][msg.sender].voted = true */\n      0x0100\n      exp\n      dup2\n      sload\n      dup2\n      0xff\n      mul\n      not\n      and\n      swap1\n      dup4\n      iszero\n      iszero\n      mul\n      or\n      swap1\n      sstore\n      pop\n        /* \"contracts/BusinessConsensus3.sol\":5288:5289  1 */\n      0x01\n        /* \"contracts/BusinessConsensus3.sol\":5262:5272  voteCounts */\n      0x02\n        /* \"contracts/BusinessConsensus3.sol\":5273:5283  _messageID */\n      dup4\n      dup4\n        /* \"contracts/BusinessConsensus3.sol\":5262:5284  voteCounts[_messageID] */\n      mload(0x40)\n      tag_170\n      swap3\n      swap2\n      swap1\n      tag_144\n      jump\t// in\n    tag_170:\n      swap1\n      dup2\n      mstore\n      0x20\n      add\n      mload(0x40)\n      dup1\n      swap2\n      sub\n      swap1\n      keccak256\n      0x00\n        /* \"contracts/BusinessConsensus3.sol\":5262:5289  voteCounts[_messageID] += 1 */\n      dup3\n      dup3\n      sload\n      tag_171\n      swap2\n      swap1\n      tag_161\n      jump\t// in\n    tag_171:\n      swap3\n      pop\n      pop\n      dup2\n      swap1\n      sstore\n      pop\n        /* \"contracts/BusinessConsensus3.sol\":5304:5310  Voters */\n      0x0d\n        /* \"contracts/BusinessConsensus3.sol\":5311:5321  _messageID */\n      dup3\n      dup3\n        /* \"contracts/BusinessConsensus3.sol\":5304:5322  Voters[_messageID] */\n      mload(0x40)\n      tag_172\n      swap3\n      swap2\n      swap1\n      tag_144\n      jump\t// in\n    tag_172:\n      swap1\n      dup2\n      mstore\n      0x20\n      add\n      mload(0x40)\n      dup1\n      swap2\n      sub\n      swap1\n      keccak256\n        /* \"contracts/BusinessConsensus3.sol\":5328:5338  voter_maps */\n      0x0c\n        /* \"contracts/BusinessConsensus3.sol\":5339:5349  _messageID */\n      dup4\n      dup4\n        /* \"contracts/BusinessConsensus3.sol\":5328:5350  voter_maps[_messageID] */\n      mload(0x40)\n      tag_173\n      swap3\n      swap2\n      swap1\n      tag_144\n      jump\t// in\n    tag_173:\n      swap1\n      dup2\n      mstore\n      0x20\n      add\n      mload(0x40)\n      dup1\n      swap2\n      sub\n      swap1\n      keccak256\n        /* \"contracts/BusinessConsensus3.sol\":5328:5362  voter_maps[_messageID][msg.sender] */\n      0x00\n        /* \"contracts/BusinessConsensus3.sol\":5351:5361  msg.sender */\n      caller\n        /* \"contracts/BusinessConsensus3.sol\":5328:5362  voter_maps[_messageID][msg.sender] */\n      0xffffffffffffffffffffffffffffffffffffffff\n      and\n      0xffffffffffffffffffffffffffffffffffffffff\n      and\n      dup2\n      mstore\n      0x20\n      add\n      swap1\n      dup2\n      mstore\n      0x20\n      add\n      0x00\n      keccak256\n        /* \"contracts/BusinessConsensus3.sol\":5304:5363  Voters[_messageID].push(voter_maps[_messageID][msg.sender]) */\n      swap1\n      dup1\n      0x01\n      dup2\n      sload\n      add\n      dup1\n      dup3\n      sstore\n      dup1\n      swap2\n      pop\n      pop\n      0x01\n      swap1\n      sub\n      swap1\n      0x00\n      mstore\n      keccak256(0x00, 0x20)\n      add\n      0x00\n      swap1\n      swap2\n      swap1\n      swap2\n      swap1\n      swap2\n      pop\n      0x00\n      dup3\n      add\n      0x00\n      swap1\n      sload\n      swap1\n      0x0100\n      exp\n      swap1\n      div\n      0xff\n      and\n      dup2\n      0x00\n      add\n      exp(0x0100, 0x00)\n      dup2\n      sload\n      dup2\n      0xff\n      mul\n      not\n      and\n      swap1\n      dup4\n      iszero\n      iszero\n      mul\n      or\n      swap1\n      sstore\n      pop\n      0x00\n      dup3\n      add\n      0x01\n      swap1\n      sload\n      swap1\n      0x0100\n      exp\n      swap1\n      div\n      0xff\n      and\n      dup2\n      0x00\n      add\n      exp(0x0100, 0x01)\n      dup2\n      sload\n      dup2\n      0xff\n      mul\n      not\n      and\n      swap1\n      dup4\n      iszero\n      iszero\n      mul\n      or\n      swap1\n      sstore\n      pop\n      0x00\n      dup3\n      add\n      0x02\n      swap1\n      sload\n      swap1\n      0x0100\n      exp\n      swap1\n      div\n      0xffffffffffffffffffffffffffffffffffffffff\n      and\n      dup2\n      0x00\n      add\n      exp(0x0100, 0x02)\n      dup2\n      sload\n      dup2\n      0xffffffffffffffffffffffffffffffffffffffff\n      mul\n      not\n      and\n      swap1\n      dup4\n      0xffffffffffffffffffffffffffffffffffffffff\n      and\n      mul\n      or\n      swap1\n      sstore\n      pop\n      pop\n      pop\n        /* \"contracts/BusinessConsensus3.sol\":5119:5653  if(keccak256(bytes(response)) == keccak256(bytes(\"i disapprove\"))){\r... */\n      jump(tag_175)\n    tag_168:\n        /* \"contracts/BusinessConsensus3.sol\":5521:5525  true */\n      0x01\n        /* \"contracts/BusinessConsensus3.sol\":5478:5488  voter_maps */\n      0x0c\n        /* \"contracts/BusinessConsensus3.sol\":5489:5499  _messageID */\n      dup4\n      dup4\n        /* \"contracts/BusinessConsensus3.sol\":5478:5500  voter_maps[_messageID] */\n      mload(0x40)\n      tag_176\n      swap3\n      swap2\n      swap1\n      tag_144\n      jump\t// in\n    tag_176:\n      swap1\n      dup2\n      mstore\n      0x20\n      add\n      mload(0x40)\n      dup1\n      swap2\n      sub\n      swap1\n      keccak256\n        /* \"contracts/BusinessConsensus3.sol\":5478:5512  voter_maps[_messageID][msg.sender] */\n      0x00\n        /* \"contracts/BusinessConsensus3.sol\":5501:5511  msg.sender */\n      caller\n        /* \"contracts/BusinessConsensus3.sol\":5478:5512  voter_maps[_messageID][msg.sender] */\n      0xffffffffffffffffffffffffffffffffffffffff\n      and\n      0xffffffffffffffffffffffffffffffffffffffff\n      and\n      dup2\n      mstore\n      0x20\n      add\n      swap1\n      dup2\n      mstore\n      0x20\n      add\n      0x00\n      keccak256\n        /* \"contracts/BusinessConsensus3.sol\":5478:5518  voter_maps[_messageID][msg.sender].voted */\n      0x00\n      add\n      0x00\n        /* \"contracts/BusinessConsensus3.sol\":5478:5525  voter_maps[_messageID][msg.sender].voted = true */\n      0x0100\n      exp\n      dup2\n      sload\n      dup2\n      0xff\n      mul\n      not\n      and\n      swap1\n      dup4\n      iszero\n      iszero\n      mul\n      or\n      swap1\n      sstore\n      pop\n        /* \"contracts/BusinessConsensus3.sol\":5566:5567  1 */\n      0x01\n        /* \"contracts/BusinessConsensus3.sol\":5540:5550  voteCounts */\n      0x02\n        /* \"contracts/BusinessConsensus3.sol\":5551:5561  _messageID */\n      dup4\n      dup4\n        /* \"contracts/BusinessConsensus3.sol\":5540:5562  voteCounts[_messageID] */\n      mload(0x40)\n      tag_177\n      swap3\n      swap2\n      swap1\n      tag_144\n      jump\t// in\n    tag_177:\n      swap1\n      dup2\n      mstore\n      0x20\n      add\n      mload(0x40)\n      dup1\n      swap2\n      sub\n      swap1\n      keccak256\n      0x00\n        /* \"contracts/BusinessConsensus3.sol\":5540:5567  voteCounts[_messageID] += 1 */\n      dup3\n      dup3\n      sload\n      tag_178\n      swap2\n      swap1\n      tag_161\n      jump\t// in\n    tag_178:\n      swap3\n      pop\n      pop\n      dup2\n      swap1\n      sstore\n      pop\n        /* \"contracts/BusinessConsensus3.sol\":5582:5588  Voters */\n      0x0d\n        /* \"contracts/BusinessConsensus3.sol\":5589:5599  _messageID */\n      dup3\n      dup3\n        /* \"contracts/BusinessConsensus3.sol\":5582:5600  Voters[_messageID] */\n      mload(0x40)\n      tag_179\n      swap3\n      swap2\n      swap1\n      tag_144\n      jump\t// in\n    tag_179:\n      swap1\n      dup2\n      mstore\n      0x20\n      add\n      mload(0x40)\n      dup1\n      swap2\n      sub\n      swap1\n      keccak256\n        /* \"contracts/BusinessConsensus3.sol\":5606:5616  voter_maps */\n      0x0c\n        /* \"contracts/BusinessConsensus3.sol\":5617:5627  _messageID */\n      dup4\n      dup4\n        /* \"contracts/BusinessConsensus3.sol\":5606:5628  voter_maps[_messageID] */\n      mload(0x40)\n      tag_180\n      swap3\n      swap2\n      swap1\n      tag_144\n      jump\t// in\n    tag_180:\n      swap1\n      dup2\n      mstore\n      0x20\n      add\n      mload(0x40)\n      dup1\n      swap2\n      sub\n      swap1\n      keccak256\n        /* \"contracts/BusinessConsensus3.sol\":5606:5640  voter_maps[_messageID][msg.sender] */\n      0x00\n        /* \"contracts/BusinessConsensus3.sol\":5629:5639  msg.sender */\n      caller\n        /* \"contracts/BusinessConsensus3.sol\":5606:5640  voter_maps[_messageID][msg.sender] */\n      0xffffffffffffffffffffffffffffffffffffffff\n      and\n      0xffffffffffffffffffffffffffffffffffffffff\n      and\n      dup2\n      mstore\n      0x20\n      add\n      swap1\n      dup2\n      mstore\n      0x20\n      add\n      0x00\n      keccak256\n        /* \"contracts/BusinessConsensus3.sol\":5582:5641  Voters[_messageID].push(voter_maps[_messageID][msg.sender]) */\n      swap1\n      dup1\n      0x01\n      dup2\n      sload\n      add\n      dup1\n      dup3\n      sstore\n      dup1\n      swap2\n      pop\n      pop\n      0x01\n      swap1\n      sub\n      swap1\n      0x00\n      mstore\n      keccak256(0x00, 0x20)\n      add\n      0x00\n      swap1\n      swap2\n      swap1\n      swap2\n      swap1\n      swap2\n      pop\n      0x00\n      dup3\n      add\n      0x00\n      swap1\n      sload\n      swap1\n      0x0100\n      exp\n      swap1\n      div\n      0xff\n      and\n      dup2\n      0x00\n      add\n      exp(0x0100, 0x00)\n      dup2\n      sload\n      dup2\n      0xff\n      mul\n      not\n      and\n      swap1\n      dup4\n      iszero\n      iszero\n      mul\n      or\n      swap1\n      sstore\n      pop\n      0x00\n      dup3\n      add\n      0x01\n      swap1\n      sload\n      swap1\n      0x0100\n      exp\n      swap1\n      div\n      0xff\n      and\n      dup2\n      0x00\n      add\n      exp(0x0100, 0x01)\n      dup2\n      sload\n      dup2\n      0xff\n      mul\n      not\n      and\n      swap1\n      dup4\n      iszero\n      iszero\n      mul\n      or\n      swap1\n      sstore\n      pop\n      0x00\n      dup3\n      add\n      0x02\n      swap1\n      sload\n      swap1\n      0x0100\n      exp\n      swap1\n      div\n      0xffffffffffffffffffffffffffffffffffffffff\n      and\n      dup2\n      0x00\n      add\n      exp(0x0100, 0x02)\n      dup2\n      sload\n      dup2\n      0xffffffffffffffffffffffffffffffffffffffff\n      mul\n      not\n      and\n      swap1\n      dup4\n      0xffffffffffffffffffffffffffffffffffffffff\n      and\n      mul\n      or\n      swap1\n      sstore\n      pop\n      pop\n      pop\n        /* \"contracts/BusinessConsensus3.sol\":5119:5653  if(keccak256(bytes(response)) == keccak256(bytes(\"i disapprove\"))){\r... */\n    tag_175:\n        /* \"contracts/BusinessConsensus3.sol\":4744:5653  if(keccak256(bytes(response)) == keccak256(bytes(\"i approve\"))){\r... */\n    tag_167:\n        /* \"contracts/BusinessConsensus3.sol\":4365:5670  function Vote(string memory response,string calldata _messageID) external {\r... */\n      pop\n      pop\n      pop\n      jump\t// out\n        /* \"contracts/BusinessConsensus3.sol\":875:919  mapping(string => bool) public finalVerdicts */\n    tag_47:\n      0x09\n      dup2\n      dup1\n      mload\n      0x20\n      dup2\n      add\n      dup3\n      add\n      dup1\n      mload\n      dup5\n      dup3\n      mstore\n      0x20\n      dup4\n      add\n      0x20\n      dup6\n      add\n      keccak256\n      dup2\n      dup4\n      mstore\n      dup1\n      swap6\n      pop\n      pop\n      pop\n      pop\n      pop\n      pop\n      0x00\n      swap2\n      pop\n      sload\n      swap1\n      0x0100\n      exp\n      swap1\n      div\n      0xff\n      and\n      dup2\n      jump\t// out\n        /* \"contracts/BusinessConsensus3.sol\":926:967  mapping(string => bool) public isCompiled */\n    tag_52:\n      0x0a\n      dup2\n      dup1\n      mload\n      0x20\n      dup2\n      add\n      dup3\n      add\n      dup1\n      mload\n      dup5\n      dup3\n      mstore\n      0x20\n      dup4\n      add\n      0x20\n      dup6\n      add\n      keccak256\n      dup2\n      dup4\n      mstore\n      dup1\n      swap6\n      pop\n      pop\n      pop\n      pop\n      pop\n      pop\n      0x00\n      swap2\n      pop\n      sload\n      swap1\n      0x0100\n      exp\n      swap1\n      div\n      0xff\n      and\n      dup2\n      jump\t// out\n        /* \"contracts/BusinessConsensus3.sol\":1022:1080  mapping(string=>mapping(address=>Voter)) public voter_maps */\n    tag_57:\n      0x0c\n      dup3\n      dup1\n      mload\n      0x20\n      dup2\n      add\n      dup3\n      add\n      dup1\n      mload\n      dup5\n      dup3\n      mstore\n      0x20\n      dup4\n      add\n      0x20\n      dup6\n      add\n      keccak256\n      dup2\n      dup4\n      mstore\n      dup1\n      swap6\n      pop\n      pop\n      pop\n      pop\n      pop\n      pop\n      0x20\n      mstore\n      dup1\n      0x00\n      mstore\n      keccak256(0x00, 0x40)\n      0x00\n      swap2\n      pop\n      swap2\n      pop\n      pop\n      dup1\n      0x00\n      add\n      0x00\n      swap1\n      sload\n      swap1\n      0x0100\n      exp\n      swap1\n      div\n      0xff\n      and\n      swap1\n      dup1\n      0x00\n      add\n      0x01\n      swap1\n      sload\n      swap1\n      0x0100\n      exp\n      swap1\n      div\n      0xff\n      and\n      swap1\n      dup1\n      0x00\n      add\n      0x02\n      swap1\n      sload\n      swap1\n      0x0100\n      exp\n      swap1\n      div\n      0xffffffffffffffffffffffffffffffffffffffff\n      and\n      swap1\n      pop\n      dup4\n      jump\t// out\n        /* \"contracts/BusinessConsensus3.sol\":6672:7113  function retrieve_bundle(string calldata _messageID) external view returns (bool, string memory, uint256, Voter[] memory){\r... */\n    tag_63:\n        /* \"contracts/BusinessConsensus3.sol\":6748:6752  bool */\n      0x00\n        /* \"contracts/BusinessConsensus3.sol\":6754:6767  string memory */\n      0x60\n        /* \"contracts/BusinessConsensus3.sol\":6769:6776  uint256 */\n      0x00\n        /* \"contracts/BusinessConsensus3.sol\":6778:6792  Voter[] memory */\n      0x60\n        /* \"contracts/BusinessConsensus3.sol\":6831:6842  expiryDates */\n      0x04\n        /* \"contracts/BusinessConsensus3.sol\":6843:6853  _messageID */\n      dup7\n      dup7\n        /* \"contracts/BusinessConsensus3.sol\":6831:6854  expiryDates[_messageID] */\n      mload(0x40)\n      tag_183\n      swap3\n      swap2\n      swap1\n      tag_144\n      jump\t// in\n    tag_183:\n      swap1\n      dup2\n      mstore\n      0x20\n      add\n      mload(0x40)\n      dup1\n      swap2\n      sub\n      swap1\n      keccak256\n      sload\n        /* \"contracts/BusinessConsensus3.sol\":6812:6827  block.timestamp */\n      timestamp\n        /* \"contracts/BusinessConsensus3.sol\":6812:6854  block.timestamp >= expiryDates[_messageID] */\n      lt\n      iszero\n        /* \"contracts/BusinessConsensus3.sol\":6804:6891  require(block.timestamp >= expiryDates[_messageID], \"Verdict has not been reached yet\") */\n      tag_184\n      jumpi\n      mload(0x40)\n      0x08c379a000000000000000000000000000000000000000000000000000000000\n      dup2\n      mstore\n      0x04\n      add\n      tag_185\n      swap1\n      tag_186\n      jump\t// in\n    tag_185:\n      mload(0x40)\n      dup1\n      swap2\n      sub\n      swap1\n      revert\n    tag_184:\n        /* \"contracts/BusinessConsensus3.sol\":6902:6923  Voter[] memory voters */\n      0x00\n        /* \"contracts/BusinessConsensus3.sol\":6926:6932  Voters */\n      0x0d\n        /* \"contracts/BusinessConsensus3.sol\":6933:6943  _messageID */\n      dup8\n      dup8\n        /* \"contracts/BusinessConsensus3.sol\":6926:6944  Voters[_messageID] */\n      mload(0x40)\n      tag_187\n      swap3\n      swap2\n      swap1\n      tag_144\n      jump\t// in\n    tag_187:\n      swap1\n      dup2\n      mstore\n      0x20\n      add\n      mload(0x40)\n      dup1\n      swap2\n      sub\n      swap1\n      keccak256\n        /* \"contracts/BusinessConsensus3.sol\":6902:6944  Voter[] memory voters = Voters[_messageID] */\n      dup1\n      sload\n      dup1\n      0x20\n      mul\n      0x20\n      add\n      mload(0x40)\n      swap1\n      dup2\n      add\n      0x40\n      mstore\n      dup1\n      swap3\n      swap2\n      swap1\n      dup2\n      dup2\n      mstore\n      0x20\n      add\n      0x00\n      swap1\n    tag_188:\n      dup3\n      dup3\n      lt\n      iszero\n      tag_189\n      jumpi\n      dup4\n      dup3\n      swap1\n      0x00\n      mstore\n      keccak256(0x00, 0x20)\n      add\n      mload(0x40)\n      dup1\n      0x60\n      add\n      0x40\n      mstore\n      swap1\n      dup2\n      0x00\n      dup3\n      add\n      0x00\n      swap1\n      sload\n      swap1\n      0x0100\n      exp\n      swap1\n      div\n      0xff\n      and\n      iszero\n      iszero\n      iszero\n      iszero\n      dup2\n      mstore\n      0x20\n      add\n      0x00\n      dup3\n      add\n      0x01\n      swap1\n      sload\n      swap1\n      0x0100\n      exp\n      swap1\n      div\n      0xff\n      and\n      iszero\n      iszero\n      iszero\n      iszero\n      dup2\n      mstore\n      0x20\n      add\n      0x00\n      dup3\n      add\n      0x02\n      swap1\n      sload\n      swap1\n      0x0100\n      exp\n      swap1\n      div\n      0xffffffffffffffffffffffffffffffffffffffff\n      and\n      0xffffffffffffffffffffffffffffffffffffffff\n      and\n      0xffffffffffffffffffffffffffffffffffffffff\n      and\n      dup2\n      mstore\n      pop\n      pop\n      dup2\n      mstore\n      0x20\n      add\n      swap1\n      0x01\n      add\n      swap1\n      jump(tag_188)\n    tag_189:\n      pop\n      pop\n      pop\n      pop\n      swap1\n      pop\n        /* \"contracts/BusinessConsensus3.sol\":6955:6967  bool verdict */\n      0x00\n        /* \"contracts/BusinessConsensus3.sol\":6970:6983  finalVerdicts */\n      0x09\n        /* \"contracts/BusinessConsensus3.sol\":6984:6994  _messageID */\n      dup9\n      dup9\n        /* \"contracts/BusinessConsensus3.sol\":6970:6995  finalVerdicts[_messageID] */\n      mload(0x40)\n      tag_191\n      swap3\n      swap2\n      swap1\n      tag_144\n      jump\t// in\n    tag_191:\n      swap1\n      dup2\n      mstore\n      0x20\n      add\n      mload(0x40)\n      dup1\n      swap2\n      sub\n      swap1\n      keccak256\n      0x00\n      swap1\n      sload\n      swap1\n      0x0100\n      exp\n      swap1\n      div\n      0xff\n      and\n        /* \"contracts/BusinessConsensus3.sol\":6955:6995  bool verdict = finalVerdicts[_messageID] */\n      swap1\n      pop\n        /* \"contracts/BusinessConsensus3.sol\":7006:7019  uint256 count */\n      0x00\n        /* \"contracts/BusinessConsensus3.sol\":7022:7032  voteCounts */\n      0x02\n        /* \"contracts/BusinessConsensus3.sol\":7033:7043  _messageID */\n      dup10\n      dup10\n        /* \"contracts/BusinessConsensus3.sol\":7022:7044  voteCounts[_messageID] */\n      mload(0x40)\n      tag_192\n      swap3\n      swap2\n      swap1\n      tag_144\n      jump\t// in\n    tag_192:\n      swap1\n      dup2\n      mstore\n      0x20\n      add\n      mload(0x40)\n      dup1\n      swap2\n      sub\n      swap1\n      keccak256\n      sload\n        /* \"contracts/BusinessConsensus3.sol\":7006:7044  uint256 count = voteCounts[_messageID] */\n      swap1\n      pop\n        /* \"contracts/BusinessConsensus3.sol\":7063:7070  verdict */\n      dup2\n        /* \"contracts/BusinessConsensus3.sol\":7071:7081  _messageID */\n      dup10\n      dup10\n        /* \"contracts/BusinessConsensus3.sol\":7082:7087  count */\n      dup4\n        /* \"contracts/BusinessConsensus3.sol\":7088:7094  voters */\n      dup7\n        /* \"contracts/BusinessConsensus3.sol\":7055:7095  return (verdict,_messageID,count,voters) */\n      dup4\n      dup4\n      dup1\n      dup1\n      0x1f\n      add\n      0x20\n      dup1\n      swap2\n      div\n      mul\n      0x20\n      add\n      mload(0x40)\n      swap1\n      dup2\n      add\n      0x40\n      mstore\n      dup1\n      swap4\n      swap3\n      swap2\n      swap1\n      dup2\n      dup2\n      mstore\n      0x20\n      add\n      dup4\n      dup4\n      dup1\n      dup3\n      dup5\n      calldatacopy\n      0x00\n      dup2\n      dup5\n      add\n      mstore\n      not(0x1f)\n      0x1f\n      dup3\n      add\n      and\n      swap1\n      pop\n      dup1\n      dup4\n      add\n      swap3\n      pop\n      pop\n      pop\n      pop\n      pop\n      pop\n      pop\n      swap3\n      pop\n      swap1\n      swap2\n      swap3\n      pop\n      swap7\n      pop\n      swap7\n      pop\n      swap7\n      pop\n      swap7\n      pop\n      pop\n      pop\n      pop\n        /* \"contracts/BusinessConsensus3.sol\":6672:7113  function retrieve_bundle(string calldata _messageID) external view returns (bool, string memory, uint256, Voter[] memory){\r... */\n      swap3\n      swap6\n      swap2\n      swap5\n      pop\n      swap3\n      pop\n      jump\t// out\n        /* \"contracts/BusinessConsensus3.sol\":3611:4357  function RegisterVoter(address voter,string calldata _messageID) external {\r... */\n    tag_69:\n        /* \"contracts/BusinessConsensus3.sol\":3806:3816  initiators */\n      0x00\n        /* \"contracts/BusinessConsensus3.sol\":3817:3827  _messageID */\n      dup3\n      dup3\n        /* \"contracts/BusinessConsensus3.sol\":3806:3828  initiators[_messageID] */\n      mload(0x40)\n      tag_194\n      swap3\n      swap2\n      swap1\n      tag_144\n      jump\t// in\n    tag_194:\n      swap1\n      dup2\n      mstore\n      0x20\n      add\n      mload(0x40)\n      dup1\n      swap2\n      sub\n      swap1\n      keccak256\n      0x00\n      swap1\n      sload\n      swap1\n      0x0100\n      exp\n      swap1\n      div\n      0xffffffffffffffffffffffffffffffffffffffff\n      and\n        /* \"contracts/BusinessConsensus3.sol\":3792:3828  msg.sender == initiators[_messageID] */\n      0xffffffffffffffffffffffffffffffffffffffff\n      and\n        /* \"contracts/BusinessConsensus3.sol\":3792:3802  msg.sender */\n      caller\n        /* \"contracts/BusinessConsensus3.sol\":3792:3828  msg.sender == initiators[_messageID] */\n      0xffffffffffffffffffffffffffffffffffffffff\n      and\n      eq\n        /* \"contracts/BusinessConsensus3.sol\":3770:3896  require(\r... */\n      tag_195\n      jumpi\n      mload(0x40)\n      0x08c379a000000000000000000000000000000000000000000000000000000000\n      dup2\n      mstore\n      0x04\n      add\n      tag_196\n      swap1\n      tag_197\n      jump\t// in\n    tag_196:\n      mload(0x40)\n      dup1\n      swap2\n      sub\n      swap1\n      revert\n    tag_195:\n        /* \"contracts/BusinessConsensus3.sol\":3924:3934  initiators */\n      0x00\n        /* \"contracts/BusinessConsensus3.sol\":3935:3945  _messageID */\n      dup3\n      dup3\n        /* \"contracts/BusinessConsensus3.sol\":3924:3946  initiators[_messageID] */\n      mload(0x40)\n      tag_198\n      swap3\n      swap2\n      swap1\n      tag_144\n      jump\t// in\n    tag_198:\n      swap1\n      dup2\n      mstore\n      0x20\n      add\n      mload(0x40)\n      dup1\n      swap2\n      sub\n      swap1\n      keccak256\n      0x00\n      swap1\n      sload\n      swap1\n      0x0100\n      exp\n      swap1\n      div\n      0xffffffffffffffffffffffffffffffffffffffff\n      and\n        /* \"contracts/BusinessConsensus3.sol\":3915:3946  voter != initiators[_messageID] */\n      0xffffffffffffffffffffffffffffffffffffffff\n      and\n        /* \"contracts/BusinessConsensus3.sol\":3915:3920  voter */\n      dup4\n        /* \"contracts/BusinessConsensus3.sol\":3915:3946  voter != initiators[_messageID] */\n      0xffffffffffffffffffffffffffffffffffffffff\n      and\n      eq\n      iszero\n        /* \"contracts/BusinessConsensus3.sol\":3907:3972  require(voter != initiators[_messageID], \"Initiator can't vote!\") */\n      tag_199\n      jumpi\n      mload(0x40)\n      0x08c379a000000000000000000000000000000000000000000000000000000000\n      dup2\n      mstore\n      0x04\n      add\n      tag_200\n      swap1\n      tag_201\n      jump\t// in\n    tag_200:\n      mload(0x40)\n      dup1\n      swap2\n      sub\n      swap1\n      revert\n    tag_199:\n        /* \"contracts/BusinessConsensus3.sol\":4044:4045  0 */\n      0x00\n        /* \"contracts/BusinessConsensus3.sol\":3993:4046  voter_maps[_messageID][voter].recipient == address(0) */\n      0xffffffffffffffffffffffffffffffffffffffff\n      and\n        /* \"contracts/BusinessConsensus3.sol\":3993:4003  voter_maps */\n      0x0c\n        /* \"contracts/BusinessConsensus3.sol\":4004:4014  _messageID */\n      dup4\n      dup4\n        /* \"contracts/BusinessConsensus3.sol\":3993:4015  voter_maps[_messageID] */\n      mload(0x40)\n      tag_202\n      swap3\n      swap2\n      swap1\n      tag_144\n      jump\t// in\n    tag_202:\n      swap1\n      dup2\n      mstore\n      0x20\n      add\n      mload(0x40)\n      dup1\n      swap2\n      sub\n      swap1\n      keccak256\n        /* \"contracts/BusinessConsensus3.sol\":3993:4022  voter_maps[_messageID][voter] */\n      0x00\n        /* \"contracts/BusinessConsensus3.sol\":4016:4021  voter */\n      dup6\n        /* \"contracts/BusinessConsensus3.sol\":3993:4022  voter_maps[_messageID][voter] */\n      0xffffffffffffffffffffffffffffffffffffffff\n      and\n      0xffffffffffffffffffffffffffffffffffffffff\n      and\n      dup2\n      mstore\n      0x20\n      add\n      swap1\n      dup2\n      mstore\n      0x20\n      add\n      0x00\n      keccak256\n        /* \"contracts/BusinessConsensus3.sol\":3993:4032  voter_maps[_messageID][voter].recipient */\n      0x00\n      add\n      0x02\n      swap1\n      sload\n      swap1\n      0x0100\n      exp\n      swap1\n      div\n      0xffffffffffffffffffffffffffffffffffffffff\n      and\n        /* \"contracts/BusinessConsensus3.sol\":3993:4046  voter_maps[_messageID][voter].recipient == address(0) */\n      0xffffffffffffffffffffffffffffffffffffffff\n      and\n      eq\n        /* \"contracts/BusinessConsensus3.sol\":3985:4082  require(voter_maps[_messageID][voter].recipient == address(0), \"Recipient is already registered\") */\n      tag_203\n      jumpi\n      mload(0x40)\n      0x08c379a000000000000000000000000000000000000000000000000000000000\n      dup2\n      mstore\n      0x04\n      add\n      tag_204\n      swap1\n      tag_205\n      jump\t// in\n    tag_204:\n      mload(0x40)\n      dup1\n      swap2\n      sub\n      swap1\n      revert\n    tag_203:\n        /* \"contracts/BusinessConsensus3.sol\":4121:4132  expiryDates */\n      0x04\n        /* \"contracts/BusinessConsensus3.sol\":4133:4143  _messageID */\n      dup3\n      dup3\n        /* \"contracts/BusinessConsensus3.sol\":4121:4144  expiryDates[_messageID] */\n      mload(0x40)\n      tag_206\n      swap3\n      swap2\n      swap1\n      tag_144\n      jump\t// in\n    tag_206:\n      swap1\n      dup2\n      mstore\n      0x20\n      add\n      mload(0x40)\n      dup1\n      swap2\n      sub\n      swap1\n      keccak256\n      sload\n        /* \"contracts/BusinessConsensus3.sol\":4103:4118  block.timestamp */\n      timestamp\n        /* \"contracts/BusinessConsensus3.sol\":4103:4144  block.timestamp < expiryDates[_messageID] */\n      lt\n        /* \"contracts/BusinessConsensus3.sol\":4095:4185  require(block.timestamp < expiryDates[_messageID], \"Proposal has reached its expiry date\") */\n      tag_207\n      jumpi\n      mload(0x40)\n      0x08c379a000000000000000000000000000000000000000000000000000000000\n      dup2\n      mstore\n      0x04\n      add\n      tag_208\n      swap1\n      tag_209\n      jump\t// in\n    tag_208:\n      mload(0x40)\n      dup1\n      swap2\n      sub\n      swap1\n      revert\n    tag_207:\n        /* \"contracts/BusinessConsensus3.sol\":4198:4212  Voter memory x */\n      0x00\n        /* \"contracts/BusinessConsensus3.sol\":4215:4266  Voter({voted: false,recipient: voter, vote: false}) */\n      mload(0x40)\n      dup1\n      0x60\n      add\n      0x40\n      mstore\n      dup1\n        /* \"contracts/BusinessConsensus3.sol\":4229:4234  false */\n      0x00\n        /* \"contracts/BusinessConsensus3.sol\":4215:4266  Voter({voted: false,recipient: voter, vote: false}) */\n      iszero\n      iszero\n      dup2\n      mstore\n      0x20\n      add\n        /* \"contracts/BusinessConsensus3.sol\":4259:4264  false */\n      0x00\n        /* \"contracts/BusinessConsensus3.sol\":4215:4266  Voter({voted: false,recipient: voter, vote: false}) */\n      iszero\n      iszero\n      dup2\n      mstore\n      0x20\n      add\n        /* \"contracts/BusinessConsensus3.sol\":4246:4251  voter */\n      dup6\n        /* \"contracts/BusinessConsensus3.sol\":4215:4266  Voter({voted: false,recipient: voter, vote: false}) */\n      0xffffffffffffffffffffffffffffffffffffffff\n      and\n      dup2\n      mstore\n      pop\n        /* \"contracts/BusinessConsensus3.sol\":4198:4266  Voter memory x = Voter({voted: false,recipient: voter, vote: false}) */\n      swap1\n      pop\n        /* \"contracts/BusinessConsensus3.sol\":4309:4310  x */\n      dup1\n        /* \"contracts/BusinessConsensus3.sol\":4277:4287  voter_maps */\n      0x0c\n        /* \"contracts/BusinessConsensus3.sol\":4288:4298  _messageID */\n      dup5\n      dup5\n        /* \"contracts/BusinessConsensus3.sol\":4277:4299  voter_maps[_messageID] */\n      mload(0x40)\n      tag_210\n      swap3\n      swap2\n      swap1\n      tag_144\n      jump\t// in\n    tag_210:\n      swap1\n      dup2\n      mstore\n      0x20\n      add\n      mload(0x40)\n      dup1\n      swap2\n      sub\n      swap1\n      keccak256\n        /* \"contracts/BusinessConsensus3.sol\":4277:4306  voter_maps[_messageID][voter] */\n      0x00\n        /* \"contracts/BusinessConsensus3.sol\":4300:4305  voter */\n      dup7\n        /* \"contracts/BusinessConsensus3.sol\":4277:4306  voter_maps[_messageID][voter] */\n      0xffffffffffffffffffffffffffffffffffffffff\n      and\n      0xffffffffffffffffffffffffffffffffffffffff\n      and\n      dup2\n      mstore\n      0x20\n      add\n      swap1\n      dup2\n      mstore\n      0x20\n      add\n      0x00\n      keccak256\n        /* \"contracts/BusinessConsensus3.sol\":4277:4310  voter_maps[_messageID][voter] = x */\n      0x00\n      dup3\n      add\n      mload\n      dup2\n      0x00\n      add\n      exp(0x0100, 0x00)\n      dup2\n      sload\n      dup2\n      0xff\n      mul\n      not\n      and\n      swap1\n      dup4\n      iszero\n      iszero\n      mul\n      or\n      swap1\n      sstore\n      pop\n      0x20\n      dup3\n      add\n      mload\n      dup2\n      0x00\n      add\n      exp(0x0100, 0x01)\n      dup2\n      sload\n      dup2\n      0xff\n      mul\n      not\n      and\n      swap1\n      dup4\n      iszero\n      iszero\n      mul\n      or\n      swap1\n      sstore\n      pop\n      0x40\n      dup3\n      add\n      mload\n      dup2\n      0x00\n      add\n      exp(0x0100, 0x02)\n      dup2\n      sload\n      dup2\n      0xffffffffffffffffffffffffffffffffffffffff\n      mul\n      not\n      and\n      swap1\n      dup4\n      0xffffffffffffffffffffffffffffffffffffffff\n      and\n      mul\n      or\n      swap1\n      sstore\n      pop\n      swap1\n      pop\n      pop\n        /* \"contracts/BusinessConsensus3.sol\":4321:4325  keys */\n      0x0e\n        /* \"contracts/BusinessConsensus3.sol\":4326:4336  _messageID */\n      dup4\n      dup4\n        /* \"contracts/BusinessConsensus3.sol\":4321:4337  keys[_messageID] */\n      mload(0x40)\n      tag_211\n      swap3\n      swap2\n      swap1\n      tag_144\n      jump\t// in\n    tag_211:\n      swap1\n      dup2\n      mstore\n      0x20\n      add\n      mload(0x40)\n      dup1\n      swap2\n      sub\n      swap1\n      keccak256\n        /* \"contracts/BusinessConsensus3.sol\":4343:4348  voter */\n      dup5\n        /* \"contracts/BusinessConsensus3.sol\":4321:4349  keys[_messageID].push(voter) */\n      swap1\n      dup1\n      0x01\n      dup2\n      sload\n      add\n      dup1\n      dup3\n      sstore\n      dup1\n      swap2\n      pop\n      pop\n      0x01\n      swap1\n      sub\n      swap1\n      0x00\n      mstore\n      keccak256(0x00, 0x20)\n      add\n      0x00\n      swap1\n      swap2\n      swap1\n      swap2\n      swap1\n      swap2\n      0x0100\n      exp\n      dup2\n      sload\n      dup2\n      0xffffffffffffffffffffffffffffffffffffffff\n      mul\n      not\n      and\n      swap1\n      dup4\n      0xffffffffffffffffffffffffffffffffffffffff\n      and\n      mul\n      or\n      swap1\n      sstore\n      pop\n        /* \"contracts/BusinessConsensus3.sol\":3685:4357  {\r... */\n      pop\n        /* \"contracts/BusinessConsensus3.sol\":3611:4357  function RegisterVoter(address voter,string calldata _messageID) external {\r... */\n      pop\n      pop\n      pop\n      jump\t// out\n        /* \"contracts/BusinessConsensus3.sol\":503:547  mapping(string => uint256) public voteCounts */\n    tag_72:\n      0x02\n      dup2\n      dup1\n      mload\n      0x20\n      dup2\n      add\n      dup3\n      add\n      dup1\n      mload\n      dup5\n      dup3\n      mstore\n      0x20\n      dup4\n      add\n      0x20\n      dup6\n      add\n      keccak256\n      dup2\n      dup4\n      mstore\n      dup1\n      swap6\n      pop\n      pop\n      pop\n      pop\n      pop\n      pop\n      0x00\n      swap2\n      pop\n      swap1\n      pop\n      sload\n      dup2\n      jump\t// out\n        /* \"contracts/BusinessConsensus3.sol\":608:653  mapping(string => uint256) public expiryDates */\n    tag_77:\n      0x04\n      dup2\n      dup1\n      mload\n      0x20\n      dup2\n      add\n      dup3\n      add\n      dup1\n      mload\n      dup5\n      dup3\n      mstore\n      0x20\n      dup4\n      add\n      0x20\n      dup6\n      add\n      keccak256\n      dup2\n      dup4\n      mstore\n      dup1\n      swap6\n      pop\n      pop\n      pop\n      pop\n      pop\n      pop\n      0x00\n      swap2\n      pop\n      swap1\n      pop\n      sload\n      dup2\n      jump\t// out\n        /* \"contracts/BusinessConsensus3.sol\":1183:2380  function createContract(string memory _messageID, uint256 expiry, uint256 requiredPercentage,bytes32 _contents,string memory subject,string memory _messageDate) external{\r... */\n    tag_82:\n        /* \"contracts/BusinessConsensus3.sol\":1490:1491  0 */\n      0x00\n        /* \"contracts/BusinessConsensus3.sol\":1456:1492  initiators[_messageID] == address(0) */\n      0xffffffffffffffffffffffffffffffffffffffff\n      and\n        /* \"contracts/BusinessConsensus3.sol\":1456:1466  initiators */\n      0x00\n        /* \"contracts/BusinessConsensus3.sol\":1467:1477  _messageID */\n      dup8\n        /* \"contracts/BusinessConsensus3.sol\":1456:1478  initiators[_messageID] */\n      mload(0x40)\n      tag_214\n      swap2\n      swap1\n      tag_215\n      jump\t// in\n    tag_214:\n      swap1\n      dup2\n      mstore\n      0x20\n      add\n      mload(0x40)\n      dup1\n      swap2\n      sub\n      swap1\n      keccak256\n      0x00\n      swap1\n      sload\n      swap1\n      0x0100\n      exp\n      swap1\n      div\n      0xffffffffffffffffffffffffffffffffffffffff\n      and\n        /* \"contracts/BusinessConsensus3.sol\":1456:1492  initiators[_messageID] == address(0) */\n      0xffffffffffffffffffffffffffffffffffffffff\n      and\n      eq\n        /* \"contracts/BusinessConsensus3.sol\":1448:1521  require(initiators[_messageID] == address(0),\"Proposal already created!\") */\n      tag_216\n      jumpi\n      mload(0x40)\n      0x08c379a000000000000000000000000000000000000000000000000000000000\n      dup2\n      mstore\n      0x04\n      add\n      tag_217\n      swap1\n      tag_218\n      jump\t// in\n    tag_217:\n      mload(0x40)\n      dup1\n      swap2\n      sub\n      swap1\n      revert\n    tag_216:\n        /* \"contracts/BusinessConsensus3.sol\":1561:1562  0 */\n      0x00\n        /* \"contracts/BusinessConsensus3.sol\":1536:1546  voteCounts */\n      0x02\n        /* \"contracts/BusinessConsensus3.sol\":1547:1557  _messageID */\n      dup8\n        /* \"contracts/BusinessConsensus3.sol\":1536:1558  voteCounts[_messageID] */\n      mload(0x40)\n      tag_219\n      swap2\n      swap1\n      tag_215\n      jump\t// in\n    tag_219:\n      swap1\n      dup2\n      mstore\n      0x20\n      add\n      mload(0x40)\n      dup1\n      swap2\n      sub\n      swap1\n      keccak256\n        /* \"contracts/BusinessConsensus3.sol\":1536:1562  voteCounts[_messageID] = 0 */\n      dup2\n      swap1\n      sstore\n      pop\n        /* \"contracts/BusinessConsensus3.sol\":1622:1628  expiry */\n      dup5\n        /* \"contracts/BusinessConsensus3.sol\":1604:1619  block.timestamp */\n      timestamp\n        /* \"contracts/BusinessConsensus3.sol\":1604:1628  block.timestamp + expiry */\n      tag_220\n      swap2\n      swap1\n      tag_161\n      jump\t// in\n    tag_220:\n        /* \"contracts/BusinessConsensus3.sol\":1577:1588  expiryDates */\n      0x04\n        /* \"contracts/BusinessConsensus3.sol\":1589:1599  _messageID */\n      dup8\n        /* \"contracts/BusinessConsensus3.sol\":1577:1600  expiryDates[_messageID] */\n      mload(0x40)\n      tag_221\n      swap2\n      swap1\n      tag_215\n      jump\t// in\n    tag_221:\n      swap1\n      dup2\n      mstore\n      0x20\n      add\n      mload(0x40)\n      dup1\n      swap2\n      sub\n      swap1\n      keccak256\n        /* \"contracts/BusinessConsensus3.sol\":1577:1628  expiryDates[_messageID] =  block.timestamp + expiry */\n      dup2\n      swap1\n      sstore\n      pop\n        /* \"contracts/BusinessConsensus3.sol\":1658:1668  _messageID */\n      dup6\n        /* \"contracts/BusinessConsensus3.sol\":1643:1646  IDs */\n      0x01\n        /* \"contracts/BusinessConsensus3.sol\":1647:1654  subject */\n      dup4\n        /* \"contracts/BusinessConsensus3.sol\":1643:1655  IDs[subject] */\n      mload(0x40)\n      tag_222\n      swap2\n      swap1\n      tag_215\n      jump\t// in\n    tag_222:\n      swap1\n      dup2\n      mstore\n      0x20\n      add\n      mload(0x40)\n      dup1\n      swap2\n      sub\n      swap1\n      keccak256\n        /* \"contracts/BusinessConsensus3.sol\":1643:1668  IDs[subject] = _messageID */\n      swap1\n      dup1\n      mload\n      swap1\n      0x20\n      add\n      swap1\n      tag_223\n      swap3\n      swap2\n      swap1\n      tag_224\n      jump\t// in\n    tag_223:\n      pop\n        /* \"contracts/BusinessConsensus3.sol\":1708:1713  false */\n      0x00\n        /* \"contracts/BusinessConsensus3.sol\":1683:1693  isCompiled */\n      0x0a\n        /* \"contracts/BusinessConsensus3.sol\":1694:1704  _messageID */\n      dup8\n        /* \"contracts/BusinessConsensus3.sol\":1683:1705  isCompiled[_messageID] */\n      mload(0x40)\n      tag_225\n      swap2\n      swap1\n      tag_215\n      jump\t// in\n    tag_225:\n      swap1\n      dup2\n      mstore\n      0x20\n      add\n      mload(0x40)\n      dup1\n      swap2\n      sub\n      swap1\n      keccak256\n      0x00\n        /* \"contracts/BusinessConsensus3.sol\":1683:1713  isCompiled[_messageID] = false */\n      0x0100\n      exp\n      dup2\n      sload\n      dup2\n      0xff\n      mul\n      not\n      and\n      swap1\n      dup4\n      iszero\n      iszero\n      mul\n      or\n      swap1\n      sstore\n      pop\n        /* \"contracts/BusinessConsensus3.sol\":1763:1781  requiredPercentage */\n      dup4\n        /* \"contracts/BusinessConsensus3.sol\":1728:1748  businessRequirements */\n      0x07\n        /* \"contracts/BusinessConsensus3.sol\":1749:1759  _messageID */\n      dup8\n        /* \"contracts/BusinessConsensus3.sol\":1728:1760  businessRequirements[_messageID] */\n      mload(0x40)\n      tag_226\n      swap2\n      swap1\n      tag_215\n      jump\t// in\n    tag_226:\n      swap1\n      dup2\n      mstore\n      0x20\n      add\n      mload(0x40)\n      dup1\n      swap2\n      sub\n      swap1\n      keccak256\n        /* \"contracts/BusinessConsensus3.sol\":1728:1781  businessRequirements[_messageID] = requiredPercentage */\n      dup2\n      swap1\n      sstore\n      pop\n        /* \"contracts/BusinessConsensus3.sol\":1828:1846  requiredPercentage */\n      dup4\n        /* \"contracts/BusinessConsensus3.sol\":1796:1816  businessRequirements */\n      0x07\n        /* \"contracts/BusinessConsensus3.sol\":1817:1824  subject */\n      dup4\n        /* \"contracts/BusinessConsensus3.sol\":1796:1825  businessRequirements[subject] */\n      mload(0x40)\n      tag_227\n      swap2\n      swap1\n      tag_215\n      jump\t// in\n    tag_227:\n      swap1\n      dup2\n      mstore\n      0x20\n      add\n      mload(0x40)\n      dup1\n      swap2\n      sub\n      swap1\n      keccak256\n        /* \"contracts/BusinessConsensus3.sol\":1796:1846  businessRequirements[subject] = requiredPercentage */\n      dup2\n      swap1\n      sstore\n      pop\n        /* \"contracts/BusinessConsensus3.sol\":1889:1894  false */\n      0x00\n        /* \"contracts/BusinessConsensus3.sol\":1861:1874  finalVerdicts */\n      0x09\n        /* \"contracts/BusinessConsensus3.sol\":1875:1885  _messageID */\n      dup8\n        /* \"contracts/BusinessConsensus3.sol\":1861:1886  finalVerdicts[_messageID] */\n      mload(0x40)\n      tag_228\n      swap2\n      swap1\n      tag_215\n      jump\t// in\n    tag_228:\n      swap1\n      dup2\n      mstore\n      0x20\n      add\n      mload(0x40)\n      dup1\n      swap2\n      sub\n      swap1\n      keccak256\n      0x00\n        /* \"contracts/BusinessConsensus3.sol\":1861:1894  finalVerdicts[_messageID] = false */\n      0x0100\n      exp\n      dup2\n      sload\n      dup2\n      0xff\n      mul\n      not\n      and\n      swap1\n      dup4\n      iszero\n      iszero\n      mul\n      or\n      swap1\n      sstore\n      pop\n        /* \"contracts/BusinessConsensus3.sol\":1937:1943  expiry */\n      dup5\n        /* \"contracts/BusinessConsensus3.sol\":1909:1922  expiryLengths */\n      0x03\n        /* \"contracts/BusinessConsensus3.sol\":1923:1933  _messageID */\n      dup8\n        /* \"contracts/BusinessConsensus3.sol\":1909:1934  expiryLengths[_messageID] */\n      mload(0x40)\n      tag_229\n      swap2\n      swap1\n      tag_215\n      jump\t// in\n    tag_229:\n      swap1\n      dup2\n      mstore\n      0x20\n      add\n      mload(0x40)\n      dup1\n      swap2\n      sub\n      swap1\n      keccak256\n        /* \"contracts/BusinessConsensus3.sol\":1909:1943  expiryLengths[_messageID] = expiry */\n      dup2\n      swap1\n      sstore\n      pop\n        /* \"contracts/BusinessConsensus3.sol\":1983:1989  expiry */\n      dup5\n        /* \"contracts/BusinessConsensus3.sol\":1958:1971  expiryLengths */\n      0x03\n        /* \"contracts/BusinessConsensus3.sol\":1972:1979  subject */\n      dup4\n        /* \"contracts/BusinessConsensus3.sol\":1958:1980  expiryLengths[subject] */\n      mload(0x40)\n      tag_230\n      swap2\n      swap1\n      tag_215\n      jump\t// in\n    tag_230:\n      swap1\n      dup2\n      mstore\n      0x20\n      add\n      mload(0x40)\n      dup1\n      swap2\n      sub\n      swap1\n      keccak256\n        /* \"contracts/BusinessConsensus3.sol\":1958:1989  expiryLengths[subject] = expiry */\n      dup2\n      swap1\n      sstore\n      pop\n        /* \"contracts/BusinessConsensus3.sol\":2027:2036  _contents */\n      dup3\n        /* \"contracts/BusinessConsensus3.sol\":2004:2012  contents */\n      0x05\n        /* \"contracts/BusinessConsensus3.sol\":2013:2023  _messageID */\n      dup8\n        /* \"contracts/BusinessConsensus3.sol\":2004:2024  contents[_messageID] */\n      mload(0x40)\n      tag_231\n      swap2\n      swap1\n      tag_215\n      jump\t// in\n    tag_231:\n      swap1\n      dup2\n      mstore\n      0x20\n      add\n      mload(0x40)\n      dup1\n      swap2\n      sub\n      swap1\n      keccak256\n        /* \"contracts/BusinessConsensus3.sol\":2004:2036  contents[_messageID] = _contents */\n      dup2\n      swap1\n      sstore\n      pop\n        /* \"contracts/BusinessConsensus3.sol\":2071:2080  _contents */\n      dup3\n        /* \"contracts/BusinessConsensus3.sol\":2051:2059  contents */\n      0x05\n        /* \"contracts/BusinessConsensus3.sol\":2060:2067  subject */\n      dup4\n        /* \"contracts/BusinessConsensus3.sol\":2051:2068  contents[subject] */\n      mload(0x40)\n      tag_232\n      swap2\n      swap1\n      tag_215\n      jump\t// in\n    tag_232:\n      swap1\n      dup2\n      mstore\n      0x20\n      add\n      mload(0x40)\n      dup1\n      swap2\n      sub\n      swap1\n      keccak256\n        /* \"contracts/BusinessConsensus3.sol\":2051:2080  contents[subject] = _contents */\n      dup2\n      swap1\n      sstore\n      pop\n        /* \"contracts/BusinessConsensus3.sol\":2118:2125  subject */\n      dup2\n        /* \"contracts/BusinessConsensus3.sol\":2095:2103  subjects */\n      0x0b\n        /* \"contracts/BusinessConsensus3.sol\":2104:2114  _messageID */\n      dup8\n        /* \"contracts/BusinessConsensus3.sol\":2095:2115  subjects[_messageID] */\n      mload(0x40)\n      tag_233\n      swap2\n      swap1\n      tag_215\n      jump\t// in\n    tag_233:\n      swap1\n      dup2\n      mstore\n      0x20\n      add\n      mload(0x40)\n      dup1\n      swap2\n      sub\n      swap1\n      keccak256\n        /* \"contracts/BusinessConsensus3.sol\":2095:2125  subjects[_messageID] = subject */\n      swap1\n      dup1\n      mload\n      swap1\n      0x20\n      add\n      swap1\n      tag_234\n      swap3\n      swap2\n      swap1\n      tag_224\n      jump\t// in\n    tag_234:\n      pop\n        /* \"contracts/BusinessConsensus3.sol\":2167:2179  _messageDate */\n      dup1\n        /* \"contracts/BusinessConsensus3.sol\":2140:2152  messageDates */\n      0x08\n        /* \"contracts/BusinessConsensus3.sol\":2153:2163  _messageID */\n      dup8\n        /* \"contracts/BusinessConsensus3.sol\":2140:2164  messageDates[_messageID] */\n      mload(0x40)\n      tag_235\n      swap2\n      swap1\n      tag_215\n      jump\t// in\n    tag_235:\n      swap1\n      dup2\n      mstore\n      0x20\n      add\n      mload(0x40)\n      dup1\n      swap2\n      sub\n      swap1\n      keccak256\n        /* \"contracts/BusinessConsensus3.sol\":2140:2179  messageDates[_messageID] = _messageDate */\n      swap1\n      dup1\n      mload\n      swap1\n      0x20\n      add\n      swap1\n      tag_236\n      swap3\n      swap2\n      swap1\n      tag_224\n      jump\t// in\n    tag_236:\n      pop\n        /* \"contracts/BusinessConsensus3.sol\":2218:2230  _messageDate */\n      dup1\n        /* \"contracts/BusinessConsensus3.sol\":2194:2206  messageDates */\n      0x08\n        /* \"contracts/BusinessConsensus3.sol\":2207:2214  subject */\n      dup4\n        /* \"contracts/BusinessConsensus3.sol\":2194:2215  messageDates[subject] */\n      mload(0x40)\n      tag_237\n      swap2\n      swap1\n      tag_215\n      jump\t// in\n    tag_237:\n      swap1\n      dup2\n      mstore\n      0x20\n      add\n      mload(0x40)\n      dup1\n      swap2\n      sub\n      swap1\n      keccak256\n        /* \"contracts/BusinessConsensus3.sol\":2194:2230  messageDates[subject] = _messageDate */\n      swap1\n      dup1\n      mload\n      swap1\n      0x20\n      add\n      swap1\n      tag_238\n      swap3\n      swap2\n      swap1\n      tag_224\n      jump\t// in\n    tag_238:\n      pop\n        /* \"contracts/BusinessConsensus3.sol\":2272:2273  0 */\n      0x00\n        /* \"contracts/BusinessConsensus3.sol\":2245:2257  numApprovals */\n      0x06\n        /* \"contracts/BusinessConsensus3.sol\":2258:2268  _messageID */\n      dup8\n        /* \"contracts/BusinessConsensus3.sol\":2245:2269  numApprovals[_messageID] */\n      mload(0x40)\n      tag_239\n      swap2\n      swap1\n      tag_215\n      jump\t// in\n    tag_239:\n      swap1\n      dup2\n      mstore\n      0x20\n      add\n      mload(0x40)\n      dup1\n      swap2\n      sub\n      swap1\n      keccak256\n        /* \"contracts/BusinessConsensus3.sol\":2245:2273  numApprovals[_messageID] = 0 */\n      dup2\n      swap1\n      sstore\n      pop\n        /* \"contracts/BusinessConsensus3.sol\":2313:2323  msg.sender */\n      caller\n        /* \"contracts/BusinessConsensus3.sol\":2288:2298  initiators */\n      0x00\n        /* \"contracts/BusinessConsensus3.sol\":2299:2309  _messageID */\n      dup8\n        /* \"contracts/BusinessConsensus3.sol\":2288:2310  initiators[_messageID] */\n      mload(0x40)\n      tag_240\n      swap2\n      swap1\n      tag_215\n      jump\t// in\n    tag_240:\n      swap1\n      dup2\n      mstore\n      0x20\n      add\n      mload(0x40)\n      dup1\n      swap2\n      sub\n      swap1\n      keccak256\n      0x00\n        /* \"contracts/BusinessConsensus3.sol\":2288:2323  initiators[_messageID] = msg.sender */\n      0x0100\n      exp\n      dup2\n      sload\n      dup2\n      0xffffffffffffffffffffffffffffffffffffffff\n      mul\n      not\n      and\n      swap1\n      dup4\n      0xffffffffffffffffffffffffffffffffffffffff\n      and\n      mul\n      or\n      swap1\n      sstore\n      pop\n        /* \"contracts/BusinessConsensus3.sol\":2360:2370  msg.sender */\n      caller\n        /* \"contracts/BusinessConsensus3.sol\":2338:2348  initiators */\n      0x00\n        /* \"contracts/BusinessConsensus3.sol\":2349:2356  subject */\n      dup4\n        /* \"contracts/BusinessConsensus3.sol\":2338:2357  initiators[subject] */\n      mload(0x40)\n      tag_241\n      swap2\n      swap1\n      tag_215\n      jump\t// in\n    tag_241:\n      swap1\n      dup2\n      mstore\n      0x20\n      add\n      mload(0x40)\n      dup1\n      swap2\n      sub\n      swap1\n      keccak256\n      0x00\n        /* \"contracts/BusinessConsensus3.sol\":2338:2370  initiators[subject] = msg.sender */\n      0x0100\n      exp\n      dup2\n      sload\n      dup2\n      0xffffffffffffffffffffffffffffffffffffffff\n      mul\n      not\n      and\n      swap1\n      dup4\n      0xffffffffffffffffffffffffffffffffffffffff\n      and\n      mul\n      or\n      swap1\n      sstore\n      pop\n        /* \"contracts/BusinessConsensus3.sol\":1183:2380  function createContract(string memory _messageID, uint256 expiry, uint256 requiredPercentage,bytes32 _contents,string memory subject,string memory _messageDate) external{\r... */\n      pop\n      pop\n      pop\n      pop\n      pop\n      pop\n      jump\t// out\n        /* \"contracts/BusinessConsensus3.sol\":5734:6664  function Consensus(string calldata _messageID) external {\r... */\n    tag_85:\n        /* \"contracts/BusinessConsensus3.sol\":5828:5839  expiryDates */\n      0x04\n        /* \"contracts/BusinessConsensus3.sol\":5840:5850  _messageID */\n      dup3\n      dup3\n        /* \"contracts/BusinessConsensus3.sol\":5828:5851  expiryDates[_messageID] */\n      mload(0x40)\n      tag_243\n      swap3\n      swap2\n      swap1\n      tag_144\n      jump\t// in\n    tag_243:\n      swap1\n      dup2\n      mstore\n      0x20\n      add\n      mload(0x40)\n      dup1\n      swap2\n      sub\n      swap1\n      keccak256\n      sload\n        /* \"contracts/BusinessConsensus3.sol\":5809:5824  block.timestamp */\n      timestamp\n        /* \"contracts/BusinessConsensus3.sol\":5809:5851  block.timestamp >= expiryDates[_messageID] */\n      lt\n      iszero\n        /* \"contracts/BusinessConsensus3.sol\":5801:5888  require(block.timestamp >= expiryDates[_messageID], \"Verdict has not been reached yet\") */\n      tag_244\n      jumpi\n      mload(0x40)\n      0x08c379a000000000000000000000000000000000000000000000000000000000\n      dup2\n      mstore\n      0x04\n      add\n      tag_245\n      swap1\n      tag_186\n      jump\t// in\n    tag_245:\n      mload(0x40)\n      dup1\n      swap2\n      sub\n      swap1\n      revert\n    tag_244:\n        /* \"contracts/BusinessConsensus3.sol\":5933:5938  false */\n      0x00\n        /* \"contracts/BusinessConsensus3.sol\":5907:5938  isCompiled[_messageID] == false */\n      iszero\n      iszero\n        /* \"contracts/BusinessConsensus3.sol\":5907:5917  isCompiled */\n      0x0a\n        /* \"contracts/BusinessConsensus3.sol\":5918:5928  _messageID */\n      dup4\n      dup4\n        /* \"contracts/BusinessConsensus3.sol\":5907:5929  isCompiled[_messageID] */\n      mload(0x40)\n      tag_246\n      swap3\n      swap2\n      swap1\n      tag_144\n      jump\t// in\n    tag_246:\n      swap1\n      dup2\n      mstore\n      0x20\n      add\n      mload(0x40)\n      dup1\n      swap2\n      sub\n      swap1\n      keccak256\n      0x00\n      swap1\n      sload\n      swap1\n      0x0100\n      exp\n      swap1\n      div\n      0xff\n      and\n        /* \"contracts/BusinessConsensus3.sol\":5907:5938  isCompiled[_messageID] == false */\n      iszero\n      iszero\n      eq\n        /* \"contracts/BusinessConsensus3.sol\":5899:5980  require(isCompiled[_messageID] == false, \"Consensus has already been calculated\") */\n      tag_247\n      jumpi\n      mload(0x40)\n      0x08c379a000000000000000000000000000000000000000000000000000000000\n      dup2\n      mstore\n      0x04\n      add\n      tag_248\n      swap1\n      tag_249\n      jump\t// in\n    tag_248:\n      mload(0x40)\n      dup1\n      swap2\n      sub\n      swap1\n      revert\n    tag_247:\n        /* \"contracts/BusinessConsensus3.sol\":6013:6023  initiators */\n      0x00\n        /* \"contracts/BusinessConsensus3.sol\":6024:6034  _messageID */\n      dup3\n      dup3\n        /* \"contracts/BusinessConsensus3.sol\":6013:6035  initiators[_messageID] */\n      mload(0x40)\n      tag_250\n      swap3\n      swap2\n      swap1\n      tag_144\n      jump\t// in\n    tag_250:\n      swap1\n      dup2\n      mstore\n      0x20\n      add\n      mload(0x40)\n      dup1\n      swap2\n      sub\n      swap1\n      keccak256\n      0x00\n      swap1\n      sload\n      swap1\n      0x0100\n      exp\n      swap1\n      div\n      0xffffffffffffffffffffffffffffffffffffffff\n      and\n        /* \"contracts/BusinessConsensus3.sol\":5999:6035  msg.sender == initiators[_messageID] */\n      0xffffffffffffffffffffffffffffffffffffffff\n      and\n        /* \"contracts/BusinessConsensus3.sol\":5999:6009  msg.sender */\n      caller\n        /* \"contracts/BusinessConsensus3.sol\":5999:6035  msg.sender == initiators[_messageID] */\n      0xffffffffffffffffffffffffffffffffffffffff\n      and\n      eq\n        /* \"contracts/BusinessConsensus3.sol\":5999:6099  msg.sender == initiators[_messageID] || voter_maps[_messageID][msg.sender].recipient != address(0x0) */\n      dup1\n      tag_251\n      jumpi\n      pop\n        /* \"contracts/BusinessConsensus3.sol\":6095:6098  0x0 */\n      0x00\n        /* \"contracts/BusinessConsensus3.sol\":6039:6099  voter_maps[_messageID][msg.sender].recipient != address(0x0) */\n      0xffffffffffffffffffffffffffffffffffffffff\n      and\n        /* \"contracts/BusinessConsensus3.sol\":6039:6049  voter_maps */\n      0x0c\n        /* \"contracts/BusinessConsensus3.sol\":6050:6060  _messageID */\n      dup4\n      dup4\n        /* \"contracts/BusinessConsensus3.sol\":6039:6061  voter_maps[_messageID] */\n      mload(0x40)\n      tag_252\n      swap3\n      swap2\n      swap1\n      tag_144\n      jump\t// in\n    tag_252:\n      swap1\n      dup2\n      mstore\n      0x20\n      add\n      mload(0x40)\n      dup1\n      swap2\n      sub\n      swap1\n      keccak256\n        /* \"contracts/BusinessConsensus3.sol\":6039:6073  voter_maps[_messageID][msg.sender] */\n      0x00\n        /* \"contracts/BusinessConsensus3.sol\":6062:6072  msg.sender */\n      caller\n        /* \"contracts/BusinessConsensus3.sol\":6039:6073  voter_maps[_messageID][msg.sender] */\n      0xffffffffffffffffffffffffffffffffffffffff\n      and\n      0xffffffffffffffffffffffffffffffffffffffff\n      and\n      dup2\n      mstore\n      0x20\n      add\n      swap1\n      dup2\n      mstore\n      0x20\n      add\n      0x00\n      keccak256\n        /* \"contracts/BusinessConsensus3.sol\":6039:6083  voter_maps[_messageID][msg.sender].recipient */\n      0x00\n      add\n      0x02\n      swap1\n      sload\n      swap1\n      0x0100\n      exp\n      swap1\n      div\n      0xffffffffffffffffffffffffffffffffffffffff\n      and\n        /* \"contracts/BusinessConsensus3.sol\":6039:6099  voter_maps[_messageID][msg.sender].recipient != address(0x0) */\n      0xffffffffffffffffffffffffffffffffffffffff\n      and\n      eq\n      iszero\n        /* \"contracts/BusinessConsensus3.sol\":5999:6099  msg.sender == initiators[_messageID] || voter_maps[_messageID][msg.sender].recipient != address(0x0) */\n    tag_251:\n        /* \"contracts/BusinessConsensus3.sol\":5991:6142  require(msg.sender == initiators[_messageID] || voter_maps[_messageID][msg.sender].recipient != address(0x0), \"You aren't authorize to compile Bundle\") */\n      tag_253\n      jumpi\n      mload(0x40)\n      0x08c379a000000000000000000000000000000000000000000000000000000000\n      dup2\n      mstore\n      0x04\n      add\n      tag_254\n      swap1\n      tag_255\n      jump\t// in\n    tag_254:\n      mload(0x40)\n      dup1\n      swap2\n      sub\n      swap1\n      revert\n    tag_253:\n        /* \"contracts/BusinessConsensus3.sol\":6153:6182  uint256 AccumulatedPercentage */\n      0x00\n        /* \"contracts/BusinessConsensus3.sol\":6236:6239  100 */\n      0x64\n        /* \"contracts/BusinessConsensus3.sol\":6211:6215  keys */\n      0x0e\n        /* \"contracts/BusinessConsensus3.sol\":6216:6226  _messageID */\n      dup5\n      dup5\n        /* \"contracts/BusinessConsensus3.sol\":6211:6227  keys[_messageID] */\n      mload(0x40)\n      tag_256\n      swap3\n      swap2\n      swap1\n      tag_144\n      jump\t// in\n    tag_256:\n      swap1\n      dup2\n      mstore\n      0x20\n      add\n      mload(0x40)\n      dup1\n      swap2\n      sub\n      swap1\n      keccak256\n        /* \"contracts/BusinessConsensus3.sol\":6211:6234  keys[_messageID].length */\n      dup1\n      sload\n      swap1\n      pop\n        /* \"contracts/BusinessConsensus3.sol\":6186:6198  numApprovals */\n      0x06\n        /* \"contracts/BusinessConsensus3.sol\":6199:6209  _messageID */\n      dup6\n      dup6\n        /* \"contracts/BusinessConsensus3.sol\":6186:6210  numApprovals[_messageID] */\n      mload(0x40)\n      tag_257\n      swap3\n      swap2\n      swap1\n      tag_144\n      jump\t// in\n    tag_257:\n      swap1\n      dup2\n      mstore\n      0x20\n      add\n      mload(0x40)\n      dup1\n      swap2\n      sub\n      swap1\n      keccak256\n      sload\n        /* \"contracts/BusinessConsensus3.sol\":6186:6234  numApprovals[_messageID]/keys[_messageID].length */\n      tag_258\n      swap2\n      swap1\n      tag_259\n      jump\t// in\n    tag_258:\n        /* \"contracts/BusinessConsensus3.sol\":6185:6239  (numApprovals[_messageID]/keys[_messageID].length)*100 */\n      tag_260\n      swap2\n      swap1\n      tag_261\n      jump\t// in\n    tag_260:\n        /* \"contracts/BusinessConsensus3.sol\":6153:6239  uint256 AccumulatedPercentage = (numApprovals[_messageID]/keys[_messageID].length)*100 */\n      swap1\n      pop\n        /* \"contracts/BusinessConsensus3.sol\":6278:6298  businessRequirements */\n      0x07\n        /* \"contracts/BusinessConsensus3.sol\":6299:6309  _messageID */\n      dup4\n      dup4\n        /* \"contracts/BusinessConsensus3.sol\":6278:6310  businessRequirements[_messageID] */\n      mload(0x40)\n      tag_262\n      swap3\n      swap2\n      swap1\n      tag_144\n      jump\t// in\n    tag_262:\n      swap1\n      dup2\n      mstore\n      0x20\n      add\n      mload(0x40)\n      dup1\n      swap2\n      sub\n      swap1\n      keccak256\n      sload\n        /* \"contracts/BusinessConsensus3.sol\":6253:6274  AccumulatedPercentage */\n      dup2\n        /* \"contracts/BusinessConsensus3.sol\":6253:6310  AccumulatedPercentage >= businessRequirements[_messageID] */\n      lt\n        /* \"contracts/BusinessConsensus3.sol\":6250:6370  if(AccumulatedPercentage >= businessRequirements[_messageID]){\r... */\n      tag_263\n      jumpi\n        /* \"contracts/BusinessConsensus3.sol\":6354:6358  true */\n      0x01\n        /* \"contracts/BusinessConsensus3.sol\":6326:6339  finalVerdicts */\n      0x09\n        /* \"contracts/BusinessConsensus3.sol\":6340:6350  _messageID */\n      dup5\n      dup5\n        /* \"contracts/BusinessConsensus3.sol\":6326:6351  finalVerdicts[_messageID] */\n      mload(0x40)\n      tag_264\n      swap3\n      swap2\n      swap1\n      tag_144\n      jump\t// in\n    tag_264:\n      swap1\n      dup2\n      mstore\n      0x20\n      add\n      mload(0x40)\n      dup1\n      swap2\n      sub\n      swap1\n      keccak256\n      0x00\n        /* \"contracts/BusinessConsensus3.sol\":6326:6358  finalVerdicts[_messageID] = true */\n      0x0100\n      exp\n      dup2\n      sload\n      dup2\n      0xff\n      mul\n      not\n      and\n      swap1\n      dup4\n      iszero\n      iszero\n      mul\n      or\n      swap1\n      sstore\n      pop\n        /* \"contracts/BusinessConsensus3.sol\":6250:6370  if(AccumulatedPercentage >= businessRequirements[_messageID]){\r... */\n    tag_263:\n        /* \"contracts/BusinessConsensus3.sol\":6384:6390  uint i */\n      0x00\n        /* \"contracts/BusinessConsensus3.sol\":6380:6617  for(uint i=0; i< keys[_messageID].length; i++){\r... */\n    tag_265:\n        /* \"contracts/BusinessConsensus3.sol\":6397:6401  keys */\n      0x0e\n        /* \"contracts/BusinessConsensus3.sol\":6402:6412  _messageID */\n      dup5\n      dup5\n        /* \"contracts/BusinessConsensus3.sol\":6397:6413  keys[_messageID] */\n      mload(0x40)\n      tag_268\n      swap3\n      swap2\n      swap1\n      tag_144\n      jump\t// in\n    tag_268:\n      swap1\n      dup2\n      mstore\n      0x20\n      add\n      mload(0x40)\n      dup1\n      swap2\n      sub\n      swap1\n      keccak256\n        /* \"contracts/BusinessConsensus3.sol\":6397:6420  keys[_messageID].length */\n      dup1\n      sload\n      swap1\n      pop\n        /* \"contracts/BusinessConsensus3.sol\":6394:6395  i */\n      dup2\n        /* \"contracts/BusinessConsensus3.sol\":6394:6420  i< keys[_messageID].length */\n      lt\n        /* \"contracts/BusinessConsensus3.sol\":6380:6617  for(uint i=0; i< keys[_messageID].length; i++){\r... */\n      iszero\n      tag_266\n      jumpi\n        /* \"contracts/BusinessConsensus3.sol\":6497:6502  false */\n      0x00\n        /* \"contracts/BusinessConsensus3.sol\":6444:6502  voter_maps[_messageID][keys[_messageID][i]].voted == false */\n      iszero\n      iszero\n        /* \"contracts/BusinessConsensus3.sol\":6444:6454  voter_maps */\n      0x0c\n        /* \"contracts/BusinessConsensus3.sol\":6455:6465  _messageID */\n      dup6\n      dup6\n        /* \"contracts/BusinessConsensus3.sol\":6444:6466  voter_maps[_messageID] */\n      mload(0x40)\n      tag_269\n      swap3\n      swap2\n      swap1\n      tag_144\n      jump\t// in\n    tag_269:\n      swap1\n      dup2\n      mstore\n      0x20\n      add\n      mload(0x40)\n      dup1\n      swap2\n      sub\n      swap1\n      keccak256\n        /* \"contracts/BusinessConsensus3.sol\":6444:6487  voter_maps[_messageID][keys[_messageID][i]] */\n      0x00\n        /* \"contracts/BusinessConsensus3.sol\":6467:6471  keys */\n      0x0e\n        /* \"contracts/BusinessConsensus3.sol\":6472:6482  _messageID */\n      dup8\n      dup8\n        /* \"contracts/BusinessConsensus3.sol\":6467:6483  keys[_messageID] */\n      mload(0x40)\n      tag_270\n      swap3\n      swap2\n      swap1\n      tag_144\n      jump\t// in\n    tag_270:\n      swap1\n      dup2\n      mstore\n      0x20\n      add\n      mload(0x40)\n      dup1\n      swap2\n      sub\n      swap1\n      keccak256\n        /* \"contracts/BusinessConsensus3.sol\":6484:6485  i */\n      dup5\n        /* \"contracts/BusinessConsensus3.sol\":6467:6486  keys[_messageID][i] */\n      dup2\n      sload\n      dup2\n      lt\n      tag_271\n      jumpi\n      tag_272\n      tag_273\n      jump\t// in\n    tag_272:\n    tag_271:\n      swap1\n      0x00\n      mstore\n      keccak256(0x00, 0x20)\n      add\n      0x00\n      swap1\n      sload\n      swap1\n      0x0100\n      exp\n      swap1\n      div\n      0xffffffffffffffffffffffffffffffffffffffff\n      and\n        /* \"contracts/BusinessConsensus3.sol\":6444:6487  voter_maps[_messageID][keys[_messageID][i]] */\n      0xffffffffffffffffffffffffffffffffffffffff\n      and\n      0xffffffffffffffffffffffffffffffffffffffff\n      and\n      dup2\n      mstore\n      0x20\n      add\n      swap1\n      dup2\n      mstore\n      0x20\n      add\n      0x00\n      keccak256\n        /* \"contracts/BusinessConsensus3.sol\":6444:6493  voter_maps[_messageID][keys[_messageID][i]].voted */\n      0x00\n      add\n      0x00\n      swap1\n      sload\n      swap1\n      0x0100\n      exp\n      swap1\n      div\n      0xff\n      and\n        /* \"contracts/BusinessConsensus3.sol\":6444:6502  voter_maps[_messageID][keys[_messageID][i]].voted == false */\n      iszero\n      iszero\n      eq\n        /* \"contracts/BusinessConsensus3.sol\":6441:6606  if(voter_maps[_messageID][keys[_messageID][i]].voted == false){\r... */\n      iszero\n      tag_275\n      jumpi\n        /* \"contracts/BusinessConsensus3.sol\":6522:6528  Voters */\n      0x0d\n        /* \"contracts/BusinessConsensus3.sol\":6529:6539  _messageID */\n      dup5\n      dup5\n        /* \"contracts/BusinessConsensus3.sol\":6522:6540  Voters[_messageID] */\n      mload(0x40)\n      tag_276\n      swap3\n      swap2\n      swap1\n      tag_144\n      jump\t// in\n    tag_276:\n      swap1\n      dup2\n      mstore\n      0x20\n      add\n      mload(0x40)\n      dup1\n      swap2\n      sub\n      swap1\n      keccak256\n        /* \"contracts/BusinessConsensus3.sol\":6546:6556  voter_maps */\n      0x0c\n        /* \"contracts/BusinessConsensus3.sol\":6557:6567  _messageID */\n      dup6\n      dup6\n        /* \"contracts/BusinessConsensus3.sol\":6546:6568  voter_maps[_messageID] */\n      mload(0x40)\n      tag_277\n      swap3\n      swap2\n      swap1\n      tag_144\n      jump\t// in\n    tag_277:\n      swap1\n      dup2\n      mstore\n      0x20\n      add\n      mload(0x40)\n      dup1\n      swap2\n      sub\n      swap1\n      keccak256\n        /* \"contracts/BusinessConsensus3.sol\":6546:6589  voter_maps[_messageID][keys[_messageID][i]] */\n      0x00\n        /* \"contracts/BusinessConsensus3.sol\":6569:6573  keys */\n      0x0e\n        /* \"contracts/BusinessConsensus3.sol\":6574:6584  _messageID */\n      dup8\n      dup8\n        /* \"contracts/BusinessConsensus3.sol\":6569:6585  keys[_messageID] */\n      mload(0x40)\n      tag_278\n      swap3\n      swap2\n      swap1\n      tag_144\n      jump\t// in\n    tag_278:\n      swap1\n      dup2\n      mstore\n      0x20\n      add\n      mload(0x40)\n      dup1\n      swap2\n      sub\n      swap1\n      keccak256\n        /* \"contracts/BusinessConsensus3.sol\":6586:6587  i */\n      dup5\n        /* \"contracts/BusinessConsensus3.sol\":6569:6588  keys[_messageID][i] */\n      dup2\n      sload\n      dup2\n      lt\n      tag_279\n      jumpi\n      tag_280\n      tag_273\n      jump\t// in\n    tag_280:\n    tag_279:\n      swap1\n      0x00\n      mstore\n      keccak256(0x00, 0x20)\n      add\n      0x00\n      swap1\n      sload\n      swap1\n      0x0100\n      exp\n      swap1\n      div\n      0xffffffffffffffffffffffffffffffffffffffff\n      and\n        /* \"contracts/BusinessConsensus3.sol\":6546:6589  voter_maps[_messageID][keys[_messageID][i]] */\n      0xffffffffffffffffffffffffffffffffffffffff\n      and\n      0xffffffffffffffffffffffffffffffffffffffff\n      and\n      dup2\n      mstore\n      0x20\n      add\n      swap1\n      dup2\n      mstore\n      0x20\n      add\n      0x00\n      keccak256\n        /* \"contracts/BusinessConsensus3.sol\":6522:6590  Voters[_messageID].push(voter_maps[_messageID][keys[_messageID][i]]) */\n      swap1\n      dup1\n      0x01\n      dup2\n      sload\n      add\n      dup1\n      dup3\n      sstore\n      dup1\n      swap2\n      pop\n      pop\n      0x01\n      swap1\n      sub\n      swap1\n      0x00\n      mstore\n      keccak256(0x00, 0x20)\n      add\n      0x00\n      swap1\n      swap2\n      swap1\n      swap2\n      swap1\n      swap2\n      pop\n      0x00\n      dup3\n      add\n      0x00\n      swap1\n      sload\n      swap1\n      0x0100\n      exp\n      swap1\n      div\n      0xff\n      and\n      dup2\n      0x00\n      add\n      exp(0x0100, 0x00)\n      dup2\n      sload\n      dup2\n      0xff\n      mul\n      not\n      and\n      swap1\n      dup4\n      iszero\n      iszero\n      mul\n      or\n      swap1\n      sstore\n      pop\n      0x00\n      dup3\n      add\n      0x01\n      swap1\n      sload\n      swap1\n      0x0100\n      exp\n      swap1\n      div\n      0xff\n      and\n      dup2\n      0x00\n      add\n      exp(0x0100, 0x01)\n      dup2\n      sload\n      dup2\n      0xff\n      mul\n      not\n      and\n      swap1\n      dup4\n      iszero\n      iszero\n      mul\n      or\n      swap1\n      sstore\n      pop\n      0x00\n      dup3\n      add\n      0x02\n      swap1\n      sload\n      swap1\n      0x0100\n      exp\n      swap1\n      div\n      0xffffffffffffffffffffffffffffffffffffffff\n      and\n      dup2\n      0x00\n      add\n      exp(0x0100, 0x02)\n      dup2\n      sload\n      dup2\n      0xffffffffffffffffffffffffffffffffffffffff\n      mul\n      not\n      and\n      swap1\n      dup4\n      0xffffffffffffffffffffffffffffffffffffffff\n      and\n      mul\n      or\n      swap1\n      sstore\n      pop\n      pop\n      pop\n        /* \"contracts/BusinessConsensus3.sol\":6441:6606  if(voter_maps[_messageID][keys[_messageID][i]].voted == false){\r... */\n    tag_275:\n        /* \"contracts/BusinessConsensus3.sol\":6422:6425  i++ */\n      dup1\n      dup1\n      tag_283\n      swap1\n      tag_284\n      jump\t// in\n    tag_283:\n      swap2\n      pop\n      pop\n        /* \"contracts/BusinessConsensus3.sol\":6380:6617  for(uint i=0; i< keys[_messageID].length; i++){\r... */\n      jump(tag_265)\n    tag_266:\n      pop\n        /* \"contracts/BusinessConsensus3.sol\":6652:6656  true */\n      0x01\n        /* \"contracts/BusinessConsensus3.sol\":6627:6637  isCompiled */\n      0x0a\n        /* \"contracts/BusinessConsensus3.sol\":6638:6648  _messageID */\n      dup5\n      dup5\n        /* \"contracts/BusinessConsensus3.sol\":6627:6649  isCompiled[_messageID] */\n      mload(0x40)\n      tag_285\n      swap3\n      swap2\n      swap1\n      tag_144\n      jump\t// in\n    tag_285:\n      swap1\n      dup2\n      mstore\n      0x20\n      add\n      mload(0x40)\n      dup1\n      swap2\n      sub\n      swap1\n      keccak256\n      0x00\n        /* \"contracts/BusinessConsensus3.sol\":6627:6656  isCompiled[_messageID] = true */\n      0x0100\n      exp\n      dup2\n      sload\n      dup2\n      0xff\n      mul\n      not\n      and\n      swap1\n      dup4\n      iszero\n      iszero\n      mul\n      or\n      swap1\n      sstore\n      pop\n        /* \"contracts/BusinessConsensus3.sol\":5790:6664  {\r... */\n      pop\n        /* \"contracts/BusinessConsensus3.sol\":5734:6664  function Consensus(string calldata _messageID) external {\r... */\n      pop\n      pop\n      jump\t// out\n        /* \"contracts/BusinessConsensus3.sol\":823:868  mapping(string => string) public messageDates */\n    tag_88:\n      0x08\n      dup2\n      dup1\n      mload\n      0x20\n      dup2\n      add\n      dup3\n      add\n      dup1\n      mload\n      dup5\n      dup3\n      mstore\n      0x20\n      dup4\n      add\n      0x20\n      dup6\n      add\n      keccak256\n      dup2\n      dup4\n      mstore\n      dup1\n      swap6\n      pop\n      pop\n      pop\n      pop\n      pop\n      pop\n      0x00\n      swap2\n      pop\n      swap1\n      pop\n      dup1\n      sload\n      tag_286\n      swap1\n      tag_137\n      jump\t// in\n    tag_286:\n      dup1\n      0x1f\n      add\n      0x20\n      dup1\n      swap2\n      div\n      mul\n      0x20\n      add\n      mload(0x40)\n      swap1\n      dup2\n      add\n      0x40\n      mstore\n      dup1\n      swap3\n      swap2\n      swap1\n      dup2\n      dup2\n      mstore\n      0x20\n      add\n      dup3\n      dup1\n      sload\n      tag_287\n      swap1\n      tag_137\n      jump\t// in\n    tag_287:\n      dup1\n      iszero\n      tag_288\n      jumpi\n      dup1\n      0x1f\n      lt\n      tag_289\n      jumpi\n      0x0100\n      dup1\n      dup4\n      sload\n      div\n      mul\n      dup4\n      mstore\n      swap2\n      0x20\n      add\n      swap2\n      jump(tag_288)\n    tag_289:\n      dup3\n      add\n      swap2\n      swap1\n      0x00\n      mstore\n      keccak256(0x00, 0x20)\n      swap1\n    tag_290:\n      dup2\n      sload\n      dup2\n      mstore\n      swap1\n      0x01\n      add\n      swap1\n      0x20\n      add\n      dup1\n      dup4\n      gt\n      tag_290\n      jumpi\n      dup3\n      swap1\n      sub\n      0x1f\n      and\n      dup3\n      add\n      swap2\n    tag_288:\n      pop\n      pop\n      pop\n      pop\n      pop\n      dup2\n      jump\t// out\n        /* \"contracts/BusinessConsensus3.sol\":1087:1125  mapping(string=>Voter[]) public Voters */\n    tag_92:\n      0x0d\n      dup3\n      dup1\n      mload\n      0x20\n      dup2\n      add\n      dup3\n      add\n      dup1\n      mload\n      dup5\n      dup3\n      mstore\n      0x20\n      dup4\n      add\n      0x20\n      dup6\n      add\n      keccak256\n      dup2\n      dup4\n      mstore\n      dup1\n      swap6\n      pop\n      pop\n      pop\n      pop\n      pop\n      pop\n      dup2\n      dup2\n      sload\n      dup2\n      lt\n      tag_291\n      jumpi\n      0x00\n      dup1\n      revert\n    tag_291:\n      swap1\n      0x00\n      mstore\n      keccak256(0x00, 0x20)\n      add\n      0x00\n      swap2\n      pop\n      swap2\n      pop\n      pop\n      dup1\n      0x00\n      add\n      0x00\n      swap1\n      sload\n      swap1\n      0x0100\n      exp\n      swap1\n      div\n      0xff\n      and\n      swap1\n      dup1\n      0x00\n      add\n      0x01\n      swap1\n      sload\n      swap1\n      0x0100\n      exp\n      swap1\n      div\n      0xff\n      and\n      swap1\n      dup1\n      0x00\n      add\n      0x02\n      swap1\n      sload\n      swap1\n      0x0100\n      exp\n      swap1\n      div\n      0xffffffffffffffffffffffffffffffffffffffff\n      and\n      swap1\n      pop\n      dup4\n      jump\t// out\n        /* \"contracts/BusinessConsensus3.sol\":709:755  mapping(string => uint256) public numApprovals */\n    tag_96:\n      0x06\n      dup2\n      dup1\n      mload\n      0x20\n      dup2\n      add\n      dup3\n      add\n      dup1\n      mload\n      dup5\n      dup3\n      mstore\n      0x20\n      dup4\n      add\n      0x20\n      dup6\n      add\n      keccak256\n      dup2\n      dup4\n      mstore\n      dup1\n      swap6\n      pop\n      pop\n      pop\n      pop\n      pop\n      pop\n      0x00\n      swap2\n      pop\n      swap1\n      pop\n      sload\n      dup2\n      jump\t// out\n        /* \"contracts/BusinessConsensus3.sol\":2517:3341  function checkConsistency(string memory _subject, uint256 _businessRequirement, uint256 _expiryLength, bytes32 _contents) public view returns(bool, bool, bool){\r... */\n    tag_101:\n        /* \"contracts/BusinessConsensus3.sol\":2659:2663  bool */\n      0x00\n        /* \"contracts/BusinessConsensus3.sol\":2665:2669  bool */\n      dup1\n        /* \"contracts/BusinessConsensus3.sol\":2671:2675  bool */\n      0x00\n        /* \"contracts/BusinessConsensus3.sol\":2709:2719  initiators */\n      dup1\n        /* \"contracts/BusinessConsensus3.sol\":2720:2728  _subject */\n      dup8\n        /* \"contracts/BusinessConsensus3.sol\":2709:2729  initiators[_subject] */\n      mload(0x40)\n      tag_294\n      swap2\n      swap1\n      tag_215\n      jump\t// in\n    tag_294:\n      swap1\n      dup2\n      mstore\n      0x20\n      add\n      mload(0x40)\n      dup1\n      swap2\n      sub\n      swap1\n      keccak256\n      0x00\n      swap1\n      sload\n      swap1\n      0x0100\n      exp\n      swap1\n      div\n      0xffffffffffffffffffffffffffffffffffffffff\n      and\n        /* \"contracts/BusinessConsensus3.sol\":2695:2729  msg.sender == initiators[_subject] */\n      0xffffffffffffffffffffffffffffffffffffffff\n      and\n        /* \"contracts/BusinessConsensus3.sol\":2695:2705  msg.sender */\n      caller\n        /* \"contracts/BusinessConsensus3.sol\":2695:2729  msg.sender == initiators[_subject] */\n      0xffffffffffffffffffffffffffffffffffffffff\n      and\n      eq\n        /* \"contracts/BusinessConsensus3.sol\":2687:2754  require(msg.sender == initiators[_subject], \"You aren't Initiator\") */\n      tag_295\n      jumpi\n      mload(0x40)\n      0x08c379a000000000000000000000000000000000000000000000000000000000\n      dup2\n      mstore\n      0x04\n      add\n      tag_296\n      swap1\n      tag_297\n      jump\t// in\n    tag_296:\n      mload(0x40)\n      dup1\n      swap2\n      sub\n      swap1\n      revert\n    tag_295:\n        /* \"contracts/BusinessConsensus3.sol\":2765:2776  bool value1 */\n      0x00\n        /* \"contracts/BusinessConsensus3.sol\":2779:2783  true */\n      0x01\n        /* \"contracts/BusinessConsensus3.sol\":2765:2783  bool value1 = true */\n      swap1\n      pop\n        /* \"contracts/BusinessConsensus3.sol\":2794:2805  bool value2 */\n      0x00\n        /* \"contracts/BusinessConsensus3.sol\":2808:2812  true */\n      0x01\n        /* \"contracts/BusinessConsensus3.sol\":2794:2812  bool value2 = true */\n      swap1\n      pop\n        /* \"contracts/BusinessConsensus3.sol\":2823:2834  bool value3 */\n      0x00\n        /* \"contracts/BusinessConsensus3.sol\":2837:2841  true */\n      0x01\n        /* \"contracts/BusinessConsensus3.sol\":2823:2841  bool value3 = true */\n      swap1\n      pop\n        /* \"contracts/BusinessConsensus3.sol\":2887:2888  0 */\n      0x00\n        /* \"contracts/BusinessConsensus3.sol\":2855:2889  initiators[_subject] == address(0) */\n      0xffffffffffffffffffffffffffffffffffffffff\n      and\n        /* \"contracts/BusinessConsensus3.sol\":2855:2865  initiators */\n      0x00\n        /* \"contracts/BusinessConsensus3.sol\":2866:2874  _subject */\n      dup12\n        /* \"contracts/BusinessConsensus3.sol\":2855:2875  initiators[_subject] */\n      mload(0x40)\n      tag_298\n      swap2\n      swap1\n      tag_215\n      jump\t// in\n    tag_298:\n      swap1\n      dup2\n      mstore\n      0x20\n      add\n      mload(0x40)\n      dup1\n      swap2\n      sub\n      swap1\n      keccak256\n      0x00\n      swap1\n      sload\n      swap1\n      0x0100\n      exp\n      swap1\n      div\n      0xffffffffffffffffffffffffffffffffffffffff\n      and\n        /* \"contracts/BusinessConsensus3.sol\":2855:2889  initiators[_subject] == address(0) */\n      0xffffffffffffffffffffffffffffffffffffffff\n      and\n      eq\n        /* \"contracts/BusinessConsensus3.sol\":2852:3334  if(initiators[_subject] == address(0)){\r... */\n      iszero\n      tag_299\n      jumpi\n        /* \"contracts/BusinessConsensus3.sol\":2913:2917  true */\n      0x01\n        /* \"contracts/BusinessConsensus3.sol\":2919:2923  true */\n      dup1\n        /* \"contracts/BusinessConsensus3.sol\":2925:2929  true */\n      0x01\n        /* \"contracts/BusinessConsensus3.sol\":2905:2930  return (true, true, true) */\n      swap6\n      pop\n      swap6\n      pop\n      swap6\n      pop\n      pop\n      pop\n      pop\n      jump(tag_293)\n        /* \"contracts/BusinessConsensus3.sol\":2852:3334  if(initiators[_subject] == address(0)){\r... */\n    tag_299:\n        /* \"contracts/BusinessConsensus3.sol\":2998:3018  businessRequirements */\n      0x07\n        /* \"contracts/BusinessConsensus3.sol\":3019:3027  _subject */\n      dup11\n        /* \"contracts/BusinessConsensus3.sol\":2998:3028  businessRequirements[_subject] */\n      mload(0x40)\n      tag_301\n      swap2\n      swap1\n      tag_215\n      jump\t// in\n    tag_301:\n      swap1\n      dup2\n      mstore\n      0x20\n      add\n      mload(0x40)\n      dup1\n      swap2\n      sub\n      swap1\n      keccak256\n      sload\n        /* \"contracts/BusinessConsensus3.sol\":2974:2994  _businessRequirement */\n      dup10\n        /* \"contracts/BusinessConsensus3.sol\":2974:3028  _businessRequirement != businessRequirements[_subject] */\n      eq\n        /* \"contracts/BusinessConsensus3.sol\":2971:3078  if(_businessRequirement != businessRequirements[_subject]){\r... */\n      tag_302\n      jumpi\n        /* \"contracts/BusinessConsensus3.sol\":3057:3062  false */\n      0x00\n        /* \"contracts/BusinessConsensus3.sol\":3048:3062  value1 = false */\n      swap3\n      pop\n        /* \"contracts/BusinessConsensus3.sol\":2971:3078  if(_businessRequirement != businessRequirements[_subject]){\r... */\n    tag_302:\n        /* \"contracts/BusinessConsensus3.sol\":3108:3116  contents */\n      0x05\n        /* \"contracts/BusinessConsensus3.sol\":3117:3125  _subject */\n      dup11\n        /* \"contracts/BusinessConsensus3.sol\":3108:3126  contents[_subject] */\n      mload(0x40)\n      tag_303\n      swap2\n      swap1\n      tag_215\n      jump\t// in\n    tag_303:\n      swap1\n      dup2\n      mstore\n      0x20\n      add\n      mload(0x40)\n      dup1\n      swap2\n      sub\n      swap1\n      keccak256\n      sload\n        /* \"contracts/BusinessConsensus3.sol\":3095:3104  _contents */\n      dup8\n        /* \"contracts/BusinessConsensus3.sol\":3095:3126  _contents != contents[_subject] */\n      eq\n        /* \"contracts/BusinessConsensus3.sol\":3092:3176  if(_contents != contents[_subject]){\r... */\n      tag_304\n      jumpi\n        /* \"contracts/BusinessConsensus3.sol\":3155:3160  false */\n      0x00\n        /* \"contracts/BusinessConsensus3.sol\":3146:3160  value2 = false */\n      swap2\n      pop\n        /* \"contracts/BusinessConsensus3.sol\":3092:3176  if(_contents != contents[_subject]){\r... */\n    tag_304:\n        /* \"contracts/BusinessConsensus3.sol\":3220:3233  _expiryLength */\n      dup8\n        /* \"contracts/BusinessConsensus3.sol\":3193:3206  expiryLengths */\n      0x03\n        /* \"contracts/BusinessConsensus3.sol\":3207:3215  _subject */\n      dup12\n        /* \"contracts/BusinessConsensus3.sol\":3193:3216  expiryLengths[_subject] */\n      mload(0x40)\n      tag_305\n      swap2\n      swap1\n      tag_215\n      jump\t// in\n    tag_305:\n      swap1\n      dup2\n      mstore\n      0x20\n      add\n      mload(0x40)\n      dup1\n      swap2\n      sub\n      swap1\n      keccak256\n      sload\n        /* \"contracts/BusinessConsensus3.sol\":3193:3233  expiryLengths[_subject] != _expiryLength */\n      eq\n        /* \"contracts/BusinessConsensus3.sol\":3190:3283  if(expiryLengths[_subject] != _expiryLength){\r... */\n      tag_306\n      jumpi\n        /* \"contracts/BusinessConsensus3.sol\":3262:3267  false */\n      0x00\n        /* \"contracts/BusinessConsensus3.sol\":3253:3267  value3 = false */\n      swap1\n      pop\n        /* \"contracts/BusinessConsensus3.sol\":3190:3283  if(expiryLengths[_subject] != _expiryLength){\r... */\n    tag_306:\n        /* \"contracts/BusinessConsensus3.sol\":3301:3307  value1 */\n      dup3\n        /* \"contracts/BusinessConsensus3.sol\":3308:3314  value2 */\n      dup3\n        /* \"contracts/BusinessConsensus3.sol\":3315:3321  value3 */\n      dup3\n        /* \"contracts/BusinessConsensus3.sol\":3293:3322  return (value1,value2,value3) */\n      swap6\n      pop\n      swap6\n      pop\n      swap6\n      pop\n      pop\n      pop\n      pop\n        /* \"contracts/BusinessConsensus3.sol\":2517:3341  function checkConsistency(string memory _subject, uint256 _businessRequirement, uint256 _expiryLength, bytes32 _contents) public view returns(bool, bool, bool){\r... */\n    tag_293:\n      swap5\n      pop\n      swap5\n      pop\n      swap5\n      swap2\n      pop\n      pop\n      jump\t// out\n        /* \"contracts/BusinessConsensus3.sol\":660:702  mapping(string => bytes32) public contents */\n    tag_106:\n      0x05\n      dup2\n      dup1\n      mload\n      0x20\n      dup2\n      add\n      dup3\n      add\n      dup1\n      mload\n      dup5\n      dup3\n      mstore\n      0x20\n      dup4\n      add\n      0x20\n      dup6\n      add\n      keccak256\n      dup2\n      dup4\n      mstore\n      dup1\n      swap6\n      pop\n      pop\n      pop\n      pop\n      pop\n      pop\n      0x00\n      swap2\n      pop\n      swap1\n      pop\n      sload\n      dup2\n      jump\t// out\n        /* \"contracts/BusinessConsensus3.sol\":554:601  mapping(string => uint256) public expiryLengths */\n    tag_111:\n      0x03\n      dup2\n      dup1\n      mload\n      0x20\n      dup2\n      add\n      dup3\n      add\n      dup1\n      mload\n      dup5\n      dup3\n      mstore\n      0x20\n      dup4\n      add\n      0x20\n      dup6\n      add\n      keccak256\n      dup2\n      dup4\n      mstore\n      dup1\n      swap6\n      pop\n      pop\n      pop\n      pop\n      pop\n      pop\n      0x00\n      swap2\n      pop\n      swap1\n      pop\n      sload\n      dup2\n      jump\t// out\n        /* \"contracts/BusinessConsensus3.sol\":762:816  mapping(string => uint256) public businessRequirements */\n    tag_115:\n      0x07\n      dup2\n      dup1\n      mload\n      0x20\n      dup2\n      add\n      dup3\n      add\n      dup1\n      mload\n      dup5\n      dup3\n      mstore\n      0x20\n      dup4\n      add\n      0x20\n      dup6\n      add\n      keccak256\n      dup2\n      dup4\n      mstore\n      dup1\n      swap6\n      pop\n      pop\n      pop\n      pop\n      pop\n      pop\n      0x00\n      swap2\n      pop\n      swap1\n      pop\n      sload\n      dup2\n      jump\t// out\n        /* \"contracts/BusinessConsensus3.sol\":3347:3505  function getIsCreated(string calldata subject) public view returns (string memory,string memory){\r... */\n    tag_119:\n        /* \"contracts/BusinessConsensus3.sol\":3415:3428  string memory */\n      0x60\n        /* \"contracts/BusinessConsensus3.sol\":3429:3442  string memory */\n      dup1\n        /* \"contracts/BusinessConsensus3.sol\":3462:3465  IDs */\n      0x01\n        /* \"contracts/BusinessConsensus3.sol\":3466:3473  subject */\n      dup5\n      dup5\n        /* \"contracts/BusinessConsensus3.sol\":3462:3474  IDs[subject] */\n      mload(0x40)\n      tag_308\n      swap3\n      swap2\n      swap1\n      tag_144\n      jump\t// in\n    tag_308:\n      swap1\n      dup2\n      mstore\n      0x20\n      add\n      mload(0x40)\n      dup1\n      swap2\n      sub\n      swap1\n      keccak256\n        /* \"contracts/BusinessConsensus3.sol\":3475:3487  messageDates */\n      0x08\n        /* \"contracts/BusinessConsensus3.sol\":3488:3495  subject */\n      dup6\n      dup6\n        /* \"contracts/BusinessConsensus3.sol\":3475:3496  messageDates[subject] */\n      mload(0x40)\n      tag_309\n      swap3\n      swap2\n      swap1\n      tag_144\n      jump\t// in\n    tag_309:\n      swap1\n      dup2\n      mstore\n      0x20\n      add\n      mload(0x40)\n      dup1\n      swap2\n      sub\n      swap1\n      keccak256\n        /* \"contracts/BusinessConsensus3.sol\":3454:3497  return (IDs[subject],messageDates[subject]) */\n      dup2\n      dup1\n      sload\n      tag_310\n      swap1\n      tag_137\n      jump\t// in\n    tag_310:\n      dup1\n      0x1f\n      add\n      0x20\n      dup1\n      swap2\n      div\n      mul\n      0x20\n      add\n      mload(0x40)\n      swap1\n      dup2\n      add\n      0x40\n      mstore\n      dup1\n      swap3\n      swap2\n      swap1\n      dup2\n      dup2\n      mstore\n      0x20\n      add\n      dup3\n      dup1\n      sload\n      tag_311\n      swap1\n      tag_137\n      jump\t// in\n    tag_311:\n      dup1\n      iszero\n      tag_312\n      jumpi\n      dup1\n      0x1f\n      lt\n      tag_313\n      jumpi\n      0x0100\n      dup1\n      dup4\n      sload\n      div\n      mul\n      dup4\n      mstore\n      swap2\n      0x20\n      add\n      swap2\n      jump(tag_312)\n    tag_313:\n      dup3\n      add\n      swap2\n      swap1\n      0x00\n      mstore\n      keccak256(0x00, 0x20)\n      swap1\n    tag_314:\n      dup2\n      sload\n      dup2\n      mstore\n      swap1\n      0x01\n      add\n      swap1\n      0x20\n      add\n      dup1\n      dup4\n      gt\n      tag_314\n      jumpi\n      dup3\n      swap1\n      sub\n      0x1f\n      and\n      dup3\n      add\n      swap2\n    tag_312:\n      pop\n      pop\n      pop\n      pop\n      pop\n      swap2\n      pop\n      dup1\n      dup1\n      sload\n      tag_315\n      swap1\n      tag_137\n      jump\t// in\n    tag_315:\n      dup1\n      0x1f\n      add\n      0x20\n      dup1\n      swap2\n      div\n      mul\n      0x20\n      add\n      mload(0x40)\n      swap1\n      dup2\n      add\n      0x40\n      mstore\n      dup1\n      swap3\n      swap2\n      swap1\n      dup2\n      dup2\n      mstore\n      0x20\n      add\n      dup3\n      dup1\n      sload\n      tag_316\n      swap1\n      tag_137\n      jump\t// in\n    tag_316:\n      dup1\n      iszero\n      tag_317\n      jumpi\n      dup1\n      0x1f\n      lt\n      tag_318\n      jumpi\n      0x0100\n      dup1\n      dup4\n      sload\n      div\n      mul\n      dup4\n      mstore\n      swap2\n      0x20\n      add\n      swap2\n      jump(tag_317)\n    tag_318:\n      dup3\n      add\n      swap2\n      swap1\n      0x00\n      mstore\n      keccak256(0x00, 0x20)\n      swap1\n    tag_319:\n      dup2\n      sload\n      dup2\n      mstore\n      swap1\n      0x01\n      add\n      swap1\n      0x20\n      add\n      dup1\n      dup4\n      gt\n      tag_319\n      jumpi\n      dup3\n      swap1\n      sub\n      0x1f\n      and\n      dup3\n      add\n      swap2\n    tag_317:\n      pop\n      pop\n      pop\n      pop\n      pop\n      swap1\n      pop\n      swap2\n      pop\n      swap2\n      pop\n        /* \"contracts/BusinessConsensus3.sol\":3347:3505  function getIsCreated(string calldata subject) public view returns (string memory,string memory){\r... */\n      swap3\n      pop\n      swap3\n      swap1\n      pop\n      jump\t// out\n        /* \"contracts/BusinessConsensus3.sol\":412:454  mapping(string=>address) public initiators */\n    tag_124:\n      0x00\n      dup2\n      dup1\n      mload\n      0x20\n      dup2\n      add\n      dup3\n      add\n      dup1\n      mload\n      dup5\n      dup3\n      mstore\n      0x20\n      dup4\n      add\n      0x20\n      dup6\n      add\n      keccak256\n      dup2\n      dup4\n      mstore\n      dup1\n      swap6\n      pop\n      pop\n      pop\n      pop\n      pop\n      pop\n      0x00\n      swap2\n      pop\n      sload\n      swap1\n      0x0100\n      exp\n      swap1\n      div\n      0xffffffffffffffffffffffffffffffffffffffff\n      and\n      dup2\n      jump\t// out\n        /* \"contracts/BusinessConsensus3.sol\":2386:2511  function getIsCompiled(string calldata _messageID) public view returns (bool){\r... */\n    tag_128:\n        /* \"contracts/BusinessConsensus3.sol\":2458:2462  bool */\n      0x00\n        /* \"contracts/BusinessConsensus3.sol\":2481:2491  isCompiled */\n      0x0a\n        /* \"contracts/BusinessConsensus3.sol\":2492:2502  _messageID */\n      dup4\n      dup4\n        /* \"contracts/BusinessConsensus3.sol\":2481:2503  isCompiled[_messageID] */\n      mload(0x40)\n      tag_321\n      swap3\n      swap2\n      swap1\n      tag_144\n      jump\t// in\n    tag_321:\n      swap1\n      dup2\n      mstore\n      0x20\n      add\n      mload(0x40)\n      dup1\n      swap2\n      sub\n      swap1\n      keccak256\n      0x00\n      swap1\n      sload\n      swap1\n      0x0100\n      exp\n      swap1\n      div\n      0xff\n      and\n        /* \"contracts/BusinessConsensus3.sol\":2474:2503  return isCompiled[_messageID] */\n      swap1\n      pop\n        /* \"contracts/BusinessConsensus3.sol\":2386:2511  function getIsCompiled(string calldata _messageID) public view returns (bool){\r... */\n      swap3\n      swap2\n      pop\n      pop\n      jump\t// out\n        /* \"contracts/BusinessConsensus3.sol\":974:1015  mapping(string => string) public subjects */\n    tag_132:\n      0x0b\n      dup2\n      dup1\n      mload\n      0x20\n      dup2\n      add\n      dup3\n      add\n      dup1\n      mload\n      dup5\n      dup3\n      mstore\n      0x20\n      dup4\n      add\n      0x20\n      dup6\n      add\n      keccak256\n      dup2\n      dup4\n      mstore\n      dup1\n      swap6\n      pop\n      pop\n      pop\n      pop\n      pop\n      pop\n      0x00\n      swap2\n      pop\n      swap1\n      pop\n      dup1\n      sload\n      tag_322\n      swap1\n      tag_137\n      jump\t// in\n    tag_322:\n      dup1\n      0x1f\n      add\n      0x20\n      dup1\n      swap2\n      div\n      mul\n      0x20\n      add\n      mload(0x40)\n      swap1\n      dup2\n      add\n      0x40\n      mstore\n      dup1\n      swap3\n      swap2\n      swap1\n      dup2\n      dup2\n      mstore\n      0x20\n      add\n      dup3\n      dup1\n      sload\n      tag_323\n      swap1\n      tag_137\n      jump\t// in\n    tag_323:\n      dup1\n      iszero\n      tag_324\n      jumpi\n      dup1\n      0x1f\n      lt\n      tag_325\n      jumpi\n      0x0100\n      dup1\n      dup4\n      sload\n      div\n      mul\n      dup4\n      mstore\n      swap2\n      0x20\n      add\n      swap2\n      jump(tag_324)\n    tag_325:\n      dup3\n      add\n      swap2\n      swap1\n      0x00\n      mstore\n      keccak256(0x00, 0x20)\n      swap1\n    tag_326:\n      dup2\n      sload\n      dup2\n      mstore\n      swap1\n      0x01\n      add\n      swap1\n      0x20\n      add\n      dup1\n      dup4\n      gt\n      tag_326\n      jumpi\n      dup3\n      swap1\n      sub\n      0x1f\n      and\n      dup3\n      add\n      swap2\n    tag_324:\n      pop\n      pop\n      pop\n      pop\n      pop\n      dup2\n      jump\t// out\n    tag_224:\n      dup3\n      dup1\n      sload\n      tag_327\n      swap1\n      tag_137\n      jump\t// in\n    tag_327:\n      swap1\n      0x00\n      mstore\n      keccak256(0x00, 0x20)\n      swap1\n      0x1f\n      add\n      0x20\n      swap1\n      div\n      dup2\n      add\n      swap3\n      dup3\n      tag_329\n      jumpi\n      0x00\n      dup6\n      sstore\n      jump(tag_328)\n    tag_329:\n      dup3\n      0x1f\n      lt\n      tag_330\n      jumpi\n      dup1\n      mload\n      not(0xff)\n      and\n      dup4\n      dup1\n      add\n      or\n      dup6\n      sstore\n      jump(tag_328)\n    tag_330:\n      dup3\n      dup1\n      add\n      0x01\n      add\n      dup6\n      sstore\n      dup3\n      iszero\n      tag_328\n      jumpi\n      swap2\n      dup3\n      add\n    tag_331:\n      dup3\n      dup2\n      gt\n      iszero\n      tag_332\n      jumpi\n      dup3\n      mload\n      dup3\n      sstore\n      swap2\n      0x20\n      add\n      swap2\n      swap1\n      0x01\n      add\n      swap1\n      jump(tag_331)\n    tag_332:\n    tag_328:\n      pop\n      swap1\n      pop\n      tag_333\n      swap2\n      swap1\n      tag_334\n      jump\t// in\n    tag_333:\n      pop\n      swap1\n      jump\t// out\n    tag_334:\n    tag_335:\n      dup1\n      dup3\n      gt\n      iszero\n      tag_336\n      jumpi\n      0x00\n      dup2\n      0x00\n      swap1\n      sstore\n      pop\n      0x01\n      add\n      jump(tag_335)\n    tag_336:\n      pop\n      swap1\n      jump\t// out\n        /* \"#utility.yul\":7:419   */\n    tag_338:\n        /* \"#utility.yul\":85:90   */\n      0x00\n        /* \"#utility.yul\":110:176   */\n      tag_340\n        /* \"#utility.yul\":126:175   */\n      tag_341\n        /* \"#utility.yul\":168:174   */\n      dup5\n        /* \"#utility.yul\":126:175   */\n      tag_342\n      jump\t// in\n    tag_341:\n        /* \"#utility.yul\":110:176   */\n      tag_343\n      jump\t// in\n    tag_340:\n        /* \"#utility.yul\":101:176   */\n      swap1\n      pop\n        /* \"#utility.yul\":199:205   */\n      dup3\n        /* \"#utility.yul\":192:197   */\n      dup2\n        /* \"#utility.yul\":185:206   */\n      mstore\n        /* \"#utility.yul\":237:241   */\n      0x20\n        /* \"#utility.yul\":230:235   */\n      dup2\n        /* \"#utility.yul\":226:242   */\n      add\n        /* \"#utility.yul\":275:278   */\n      dup5\n        /* \"#utility.yul\":266:272   */\n      dup5\n        /* \"#utility.yul\":261:264   */\n      dup5\n        /* \"#utility.yul\":257:273   */\n      add\n        /* \"#utility.yul\":254:279   */\n      gt\n        /* \"#utility.yul\":251:363   */\n      iszero\n      tag_344\n      jumpi\n        /* \"#utility.yul\":282:361   */\n      tag_345\n      tag_346\n      jump\t// in\n    tag_345:\n        /* \"#utility.yul\":251:363   */\n    tag_344:\n        /* \"#utility.yul\":372:413   */\n      tag_347\n        /* \"#utility.yul\":406:412   */\n      dup5\n        /* \"#utility.yul\":401:404   */\n      dup3\n        /* \"#utility.yul\":396:399   */\n      dup6\n        /* \"#utility.yul\":372:413   */\n      tag_348\n      jump\t// in\n    tag_347:\n        /* \"#utility.yul\":91:419   */\n      pop\n        /* \"#utility.yul\":7:419   */\n      swap4\n      swap3\n      pop\n      pop\n      pop\n      jump\t// out\n        /* \"#utility.yul\":425:564   */\n    tag_349:\n        /* \"#utility.yul\":471:476   */\n      0x00\n        /* \"#utility.yul\":509:515   */\n      dup2\n        /* \"#utility.yul\":496:516   */\n      calldataload\n        /* \"#utility.yul\":487:516   */\n      swap1\n      pop\n        /* \"#utility.yul\":525:558   */\n      tag_351\n        /* \"#utility.yul\":552:557   */\n      dup2\n        /* \"#utility.yul\":525:558   */\n      tag_352\n      jump\t// in\n    tag_351:\n        /* \"#utility.yul\":425:564   */\n      swap3\n      swap2\n      pop\n      pop\n      jump\t// out\n        /* \"#utility.yul\":570:709   */\n    tag_353:\n        /* \"#utility.yul\":616:621   */\n      0x00\n        /* \"#utility.yul\":654:660   */\n      dup2\n        /* \"#utility.yul\":641:661   */\n      calldataload\n        /* \"#utility.yul\":632:661   */\n      swap1\n      pop\n        /* \"#utility.yul\":670:703   */\n      tag_355\n        /* \"#utility.yul\":697:702   */\n      dup2\n        /* \"#utility.yul\":670:703   */\n      tag_356\n      jump\t// in\n    tag_355:\n        /* \"#utility.yul\":570:709   */\n      swap3\n      swap2\n      pop\n      pop\n      jump\t// out\n        /* \"#utility.yul\":729:1282   */\n    tag_357:\n        /* \"#utility.yul\":787:795   */\n      0x00\n        /* \"#utility.yul\":797:803   */\n      dup1\n        /* \"#utility.yul\":847:850   */\n      dup4\n        /* \"#utility.yul\":840:844   */\n      0x1f\n        /* \"#utility.yul\":832:838   */\n      dup5\n        /* \"#utility.yul\":828:845   */\n      add\n        /* \"#utility.yul\":824:851   */\n      slt\n        /* \"#utility.yul\":814:936   */\n      tag_359\n      jumpi\n        /* \"#utility.yul\":855:934   */\n      tag_360\n      tag_361\n      jump\t// in\n    tag_360:\n        /* \"#utility.yul\":814:936   */\n    tag_359:\n        /* \"#utility.yul\":968:974   */\n      dup3\n        /* \"#utility.yul\":955:975   */\n      calldataload\n        /* \"#utility.yul\":945:975   */\n      swap1\n      pop\n        /* \"#utility.yul\":998:1016   */\n      0xffffffffffffffff\n        /* \"#utility.yul\":990:996   */\n      dup2\n        /* \"#utility.yul\":987:1017   */\n      gt\n        /* \"#utility.yul\":984:1101   */\n      iszero\n      tag_362\n      jumpi\n        /* \"#utility.yul\":1020:1099   */\n      tag_363\n      tag_364\n      jump\t// in\n    tag_363:\n        /* \"#utility.yul\":984:1101   */\n    tag_362:\n        /* \"#utility.yul\":1134:1138   */\n      0x20\n        /* \"#utility.yul\":1126:1132   */\n      dup4\n        /* \"#utility.yul\":1122:1139   */\n      add\n        /* \"#utility.yul\":1110:1139   */\n      swap2\n      pop\n        /* \"#utility.yul\":1188:1191   */\n      dup4\n        /* \"#utility.yul\":1180:1184   */\n      0x01\n        /* \"#utility.yul\":1172:1178   */\n      dup3\n        /* \"#utility.yul\":1168:1185   */\n      mul\n        /* \"#utility.yul\":1158:1166   */\n      dup4\n        /* \"#utility.yul\":1154:1186   */\n      add\n        /* \"#utility.yul\":1151:1192   */\n      gt\n        /* \"#utility.yul\":1148:1276   */\n      iszero\n      tag_365\n      jumpi\n        /* \"#utility.yul\":1195:1274   */\n      tag_366\n      tag_367\n      jump\t// in\n    tag_366:\n        /* \"#utility.yul\":1148:1276   */\n    tag_365:\n        /* \"#utility.yul\":729:1282   */\n      swap3\n      pop\n      swap3\n      swap1\n      pop\n      jump\t// out\n        /* \"#utility.yul\":1302:1642   */\n    tag_368:\n        /* \"#utility.yul\":1358:1363   */\n      0x00\n        /* \"#utility.yul\":1407:1410   */\n      dup3\n        /* \"#utility.yul\":1400:1404   */\n      0x1f\n        /* \"#utility.yul\":1392:1398   */\n      dup4\n        /* \"#utility.yul\":1388:1405   */\n      add\n        /* \"#utility.yul\":1384:1411   */\n      slt\n        /* \"#utility.yul\":1374:1496   */\n      tag_370\n      jumpi\n        /* \"#utility.yul\":1415:1494   */\n      tag_371\n      tag_361\n      jump\t// in\n    tag_371:\n        /* \"#utility.yul\":1374:1496   */\n    tag_370:\n        /* \"#utility.yul\":1532:1538   */\n      dup2\n        /* \"#utility.yul\":1519:1539   */\n      calldataload\n        /* \"#utility.yul\":1557:1636   */\n      tag_372\n        /* \"#utility.yul\":1632:1635   */\n      dup5\n        /* \"#utility.yul\":1624:1630   */\n      dup3\n        /* \"#utility.yul\":1617:1621   */\n      0x20\n        /* \"#utility.yul\":1609:1615   */\n      dup7\n        /* \"#utility.yul\":1605:1622   */\n      add\n        /* \"#utility.yul\":1557:1636   */\n      tag_338\n      jump\t// in\n    tag_372:\n        /* \"#utility.yul\":1548:1636   */\n      swap2\n      pop\n        /* \"#utility.yul\":1364:1642   */\n      pop\n        /* \"#utility.yul\":1302:1642   */\n      swap3\n      swap2\n      pop\n      pop\n      jump\t// out\n        /* \"#utility.yul\":1648:1787   */\n    tag_373:\n        /* \"#utility.yul\":1694:1699   */\n      0x00\n        /* \"#utility.yul\":1732:1738   */\n      dup2\n        /* \"#utility.yul\":1719:1739   */\n      calldataload\n        /* \"#utility.yul\":1710:1739   */\n      swap1\n      pop\n        /* \"#utility.yul\":1748:1781   */\n      tag_375\n        /* \"#utility.yul\":1775:1780   */\n      dup2\n        /* \"#utility.yul\":1748:1781   */\n      tag_376\n      jump\t// in\n    tag_375:\n        /* \"#utility.yul\":1648:1787   */\n      swap3\n      swap2\n      pop\n      pop\n      jump\t// out\n        /* \"#utility.yul\":1793:2467   */\n    tag_68:\n        /* \"#utility.yul\":1873:1879   */\n      0x00\n        /* \"#utility.yul\":1881:1887   */\n      dup1\n        /* \"#utility.yul\":1889:1895   */\n      0x00\n        /* \"#utility.yul\":1938:1940   */\n      0x40\n        /* \"#utility.yul\":1926:1935   */\n      dup5\n        /* \"#utility.yul\":1917:1924   */\n      dup7\n        /* \"#utility.yul\":1913:1936   */\n      sub\n        /* \"#utility.yul\":1909:1941   */\n      slt\n        /* \"#utility.yul\":1906:2025   */\n      iszero\n      tag_378\n      jumpi\n        /* \"#utility.yul\":1944:2023   */\n      tag_379\n      tag_380\n      jump\t// in\n    tag_379:\n        /* \"#utility.yul\":1906:2025   */\n    tag_378:\n        /* \"#utility.yul\":2064:2065   */\n      0x00\n        /* \"#utility.yul\":2089:2142   */\n      tag_381\n        /* \"#utility.yul\":2134:2141   */\n      dup7\n        /* \"#utility.yul\":2125:2131   */\n      dup3\n        /* \"#utility.yul\":2114:2123   */\n      dup8\n        /* \"#utility.yul\":2110:2132   */\n      add\n        /* \"#utility.yul\":2089:2142   */\n      tag_349\n      jump\t// in\n    tag_381:\n        /* \"#utility.yul\":2079:2142   */\n      swap4\n      pop\n        /* \"#utility.yul\":2035:2152   */\n      pop\n        /* \"#utility.yul\":2219:2221   */\n      0x20\n        /* \"#utility.yul\":2208:2217   */\n      dup5\n        /* \"#utility.yul\":2204:2222   */\n      add\n        /* \"#utility.yul\":2191:2223   */\n      calldataload\n        /* \"#utility.yul\":2250:2268   */\n      0xffffffffffffffff\n        /* \"#utility.yul\":2242:2248   */\n      dup2\n        /* \"#utility.yul\":2239:2269   */\n      gt\n        /* \"#utility.yul\":2236:2353   */\n      iszero\n      tag_382\n      jumpi\n        /* \"#utility.yul\":2272:2351   */\n      tag_383\n      tag_384\n      jump\t// in\n    tag_383:\n        /* \"#utility.yul\":2236:2353   */\n    tag_382:\n        /* \"#utility.yul\":2385:2450   */\n      tag_385\n        /* \"#utility.yul\":2442:2449   */\n      dup7\n        /* \"#utility.yul\":2433:2439   */\n      dup3\n        /* \"#utility.yul\":2422:2431   */\n      dup8\n        /* \"#utility.yul\":2418:2440   */\n      add\n        /* \"#utility.yul\":2385:2450   */\n      tag_357\n      jump\t// in\n    tag_385:\n        /* \"#utility.yul\":2367:2450   */\n      swap3\n      pop\n      swap3\n      pop\n        /* \"#utility.yul\":2162:2460   */\n      pop\n        /* \"#utility.yul\":1793:2467   */\n      swap3\n      pop\n      swap3\n      pop\n      swap3\n      jump\t// out\n        /* \"#utility.yul\":2473:3002   */\n    tag_62:\n        /* \"#utility.yul\":2544:2550   */\n      0x00\n        /* \"#utility.yul\":2552:2558   */\n      dup1\n        /* \"#utility.yul\":2601:2603   */\n      0x20\n        /* \"#utility.yul\":2589:2598   */\n      dup4\n        /* \"#utility.yul\":2580:2587   */\n      dup6\n        /* \"#utility.yul\":2576:2599   */\n      sub\n        /* \"#utility.yul\":2572:2604   */\n      slt\n        /* \"#utility.yul\":2569:2688   */\n      iszero\n      tag_387\n      jumpi\n        /* \"#utility.yul\":2607:2686   */\n      tag_388\n      tag_380\n      jump\t// in\n    tag_388:\n        /* \"#utility.yul\":2569:2688   */\n    tag_387:\n        /* \"#utility.yul\":2755:2756   */\n      0x00\n        /* \"#utility.yul\":2744:2753   */\n      dup4\n        /* \"#utility.yul\":2740:2757   */\n      add\n        /* \"#utility.yul\":2727:2758   */\n      calldataload\n        /* \"#utility.yul\":2785:2803   */\n      0xffffffffffffffff\n        /* \"#utility.yul\":2777:2783   */\n      dup2\n        /* \"#utility.yul\":2774:2804   */\n      gt\n        /* \"#utility.yul\":2771:2888   */\n      iszero\n      tag_389\n      jumpi\n        /* \"#utility.yul\":2807:2886   */\n      tag_390\n      tag_384\n      jump\t// in\n    tag_390:\n        /* \"#utility.yul\":2771:2888   */\n    tag_389:\n        /* \"#utility.yul\":2920:2985   */\n      tag_391\n        /* \"#utility.yul\":2977:2984   */\n      dup6\n        /* \"#utility.yul\":2968:2974   */\n      dup3\n        /* \"#utility.yul\":2957:2966   */\n      dup7\n        /* \"#utility.yul\":2953:2975   */\n      add\n        /* \"#utility.yul\":2920:2985   */\n      tag_357\n      jump\t// in\n    tag_391:\n        /* \"#utility.yul\":2902:2985   */\n      swap3\n      pop\n      swap3\n      pop\n        /* \"#utility.yul\":2698:2995   */\n      pop\n        /* \"#utility.yul\":2473:3002   */\n      swap3\n      pop\n      swap3\n      swap1\n      pop\n      jump\t// out\n        /* \"#utility.yul\":3008:3517   */\n    tag_37:\n        /* \"#utility.yul\":3077:3083   */\n      0x00\n        /* \"#utility.yul\":3126:3128   */\n      0x20\n        /* \"#utility.yul\":3114:3123   */\n      dup3\n        /* \"#utility.yul\":3105:3112   */\n      dup5\n        /* \"#utility.yul\":3101:3124   */\n      sub\n        /* \"#utility.yul\":3097:3129   */\n      slt\n        /* \"#utility.yul\":3094:3213   */\n      iszero\n      tag_393\n      jumpi\n        /* \"#utility.yul\":3132:3211   */\n      tag_394\n      tag_380\n      jump\t// in\n    tag_394:\n        /* \"#utility.yul\":3094:3213   */\n    tag_393:\n        /* \"#utility.yul\":3280:3281   */\n      0x00\n        /* \"#utility.yul\":3269:3278   */\n      dup3\n        /* \"#utility.yul\":3265:3282   */\n      add\n        /* \"#utility.yul\":3252:3283   */\n      calldataload\n        /* \"#utility.yul\":3310:3328   */\n      0xffffffffffffffff\n        /* \"#utility.yul\":3302:3308   */\n      dup2\n        /* \"#utility.yul\":3299:3329   */\n      gt\n        /* \"#utility.yul\":3296:3413   */\n      iszero\n      tag_395\n      jumpi\n        /* \"#utility.yul\":3332:3411   */\n      tag_396\n      tag_384\n      jump\t// in\n    tag_396:\n        /* \"#utility.yul\":3296:3413   */\n    tag_395:\n        /* \"#utility.yul\":3437:3500   */\n      tag_397\n        /* \"#utility.yul\":3492:3499   */\n      dup5\n        /* \"#utility.yul\":3483:3489   */\n      dup3\n        /* \"#utility.yul\":3472:3481   */\n      dup6\n        /* \"#utility.yul\":3468:3490   */\n      add\n        /* \"#utility.yul\":3437:3500   */\n      tag_368\n      jump\t// in\n    tag_397:\n        /* \"#utility.yul\":3427:3500   */\n      swap2\n      pop\n        /* \"#utility.yul\":3223:3510   */\n      pop\n        /* \"#utility.yul\":3008:3517   */\n      swap3\n      swap2\n      pop\n      pop\n      jump\t// out\n        /* \"#utility.yul\":3523:4177   */\n    tag_56:\n        /* \"#utility.yul\":3601:3607   */\n      0x00\n        /* \"#utility.yul\":3609:3615   */\n      dup1\n        /* \"#utility.yul\":3658:3660   */\n      0x40\n        /* \"#utility.yul\":3646:3655   */\n      dup4\n        /* \"#utility.yul\":3637:3644   */\n      dup6\n        /* \"#utility.yul\":3633:3656   */\n      sub\n        /* \"#utility.yul\":3629:3661   */\n      slt\n        /* \"#utility.yul\":3626:3745   */\n      iszero\n      tag_399\n      jumpi\n        /* \"#utility.yul\":3664:3743   */\n      tag_400\n      tag_380\n      jump\t// in\n    tag_400:\n        /* \"#utility.yul\":3626:3745   */\n    tag_399:\n        /* \"#utility.yul\":3812:3813   */\n      0x00\n        /* \"#utility.yul\":3801:3810   */\n      dup4\n        /* \"#utility.yul\":3797:3814   */\n      add\n        /* \"#utility.yul\":3784:3815   */\n      calldataload\n        /* \"#utility.yul\":3842:3860   */\n      0xffffffffffffffff\n        /* \"#utility.yul\":3834:3840   */\n      dup2\n        /* \"#utility.yul\":3831:3861   */\n      gt\n        /* \"#utility.yul\":3828:3945   */\n      iszero\n      tag_401\n      jumpi\n        /* \"#utility.yul\":3864:3943   */\n      tag_402\n      tag_384\n      jump\t// in\n    tag_402:\n        /* \"#utility.yul\":3828:3945   */\n    tag_401:\n        /* \"#utility.yul\":3969:4032   */\n      tag_403\n        /* \"#utility.yul\":4024:4031   */\n      dup6\n        /* \"#utility.yul\":4015:4021   */\n      dup3\n        /* \"#utility.yul\":4004:4013   */\n      dup7\n        /* \"#utility.yul\":4000:4022   */\n      add\n        /* \"#utility.yul\":3969:4032   */\n      tag_368\n      jump\t// in\n    tag_403:\n        /* \"#utility.yul\":3959:4032   */\n      swap3\n      pop\n        /* \"#utility.yul\":3755:4042   */\n      pop\n        /* \"#utility.yul\":4081:4083   */\n      0x20\n        /* \"#utility.yul\":4107:4160   */\n      tag_404\n        /* \"#utility.yul\":4152:4159   */\n      dup6\n        /* \"#utility.yul\":4143:4149   */\n      dup3\n        /* \"#utility.yul\":4132:4141   */\n      dup7\n        /* \"#utility.yul\":4128:4150   */\n      add\n        /* \"#utility.yul\":4107:4160   */\n      tag_349\n      jump\t// in\n    tag_404:\n        /* \"#utility.yul\":4097:4160   */\n      swap2\n      pop\n        /* \"#utility.yul\":4052:4170   */\n      pop\n        /* \"#utility.yul\":3523:4177   */\n      swap3\n      pop\n      swap3\n      swap1\n      pop\n      jump\t// out\n        /* \"#utility.yul\":4183:5037   */\n    tag_43:\n        /* \"#utility.yul\":4273:4279   */\n      0x00\n        /* \"#utility.yul\":4281:4287   */\n      dup1\n        /* \"#utility.yul\":4289:4295   */\n      0x00\n        /* \"#utility.yul\":4338:4340   */\n      0x40\n        /* \"#utility.yul\":4326:4335   */\n      dup5\n        /* \"#utility.yul\":4317:4324   */\n      dup7\n        /* \"#utility.yul\":4313:4336   */\n      sub\n        /* \"#utility.yul\":4309:4341   */\n      slt\n        /* \"#utility.yul\":4306:4425   */\n      iszero\n      tag_406\n      jumpi\n        /* \"#utility.yul\":4344:4423   */\n      tag_407\n      tag_380\n      jump\t// in\n    tag_407:\n        /* \"#utility.yul\":4306:4425   */\n    tag_406:\n        /* \"#utility.yul\":4492:4493   */\n      0x00\n        /* \"#utility.yul\":4481:4490   */\n      dup5\n        /* \"#utility.yul\":4477:4494   */\n      add\n        /* \"#utility.yul\":4464:4495   */\n      calldataload\n        /* \"#utility.yul\":4522:4540   */\n      0xffffffffffffffff\n        /* \"#utility.yul\":4514:4520   */\n      dup2\n        /* \"#utility.yul\":4511:4541   */\n      gt\n        /* \"#utility.yul\":4508:4625   */\n      iszero\n      tag_408\n      jumpi\n        /* \"#utility.yul\":4544:4623   */\n      tag_409\n      tag_384\n      jump\t// in\n    tag_409:\n        /* \"#utility.yul\":4508:4625   */\n    tag_408:\n        /* \"#utility.yul\":4649:4712   */\n      tag_410\n        /* \"#utility.yul\":4704:4711   */\n      dup7\n        /* \"#utility.yul\":4695:4701   */\n      dup3\n        /* \"#utility.yul\":4684:4693   */\n      dup8\n        /* \"#utility.yul\":4680:4702   */\n      add\n        /* \"#utility.yul\":4649:4712   */\n      tag_368\n      jump\t// in\n    tag_410:\n        /* \"#utility.yul\":4639:4712   */\n      swap4\n      pop\n        /* \"#utility.yul\":4435:4722   */\n      pop\n        /* \"#utility.yul\":4789:4791   */\n      0x20\n        /* \"#utility.yul\":4778:4787   */\n      dup5\n        /* \"#utility.yul\":4774:4792   */\n      add\n        /* \"#utility.yul\":4761:4793   */\n      calldataload\n        /* \"#utility.yul\":4820:4838   */\n      0xffffffffffffffff\n        /* \"#utility.yul\":4812:4818   */\n      dup2\n        /* \"#utility.yul\":4809:4839   */\n      gt\n        /* \"#utility.yul\":4806:4923   */\n      iszero\n      tag_411\n      jumpi\n        /* \"#utility.yul\":4842:4921   */\n      tag_412\n      tag_384\n      jump\t// in\n    tag_412:\n        /* \"#utility.yul\":4806:4923   */\n    tag_411:\n        /* \"#utility.yul\":4955:5020   */\n      tag_413\n        /* \"#utility.yul\":5012:5019   */\n      dup7\n        /* \"#utility.yul\":5003:5009   */\n      dup3\n        /* \"#utility.yul\":4992:5001   */\n      dup8\n        /* \"#utility.yul\":4988:5010   */\n      add\n        /* \"#utility.yul\":4955:5020   */\n      tag_357\n      jump\t// in\n    tag_413:\n        /* \"#utility.yul\":4937:5020   */\n      swap3\n      pop\n      swap3\n      pop\n        /* \"#utility.yul\":4732:5030   */\n      pop\n        /* \"#utility.yul\":4183:5037   */\n      swap3\n      pop\n      swap3\n      pop\n      swap3\n      jump\t// out\n        /* \"#utility.yul\":5043:5697   */\n    tag_31:\n        /* \"#utility.yul\":5121:5127   */\n      0x00\n        /* \"#utility.yul\":5129:5135   */\n      dup1\n        /* \"#utility.yul\":5178:5180   */\n      0x40\n        /* \"#utility.yul\":5166:5175   */\n      dup4\n        /* \"#utility.yul\":5157:5164   */\n      dup6\n        /* \"#utility.yul\":5153:5176   */\n      sub\n        /* \"#utility.yul\":5149:5181   */\n      slt\n        /* \"#utility.yul\":5146:5265   */\n      iszero\n      tag_415\n      jumpi\n        /* \"#utility.yul\":5184:5263   */\n      tag_416\n      tag_380\n      jump\t// in\n    tag_416:\n        /* \"#utility.yul\":5146:5265   */\n    tag_415:\n        /* \"#utility.yul\":5332:5333   */\n      0x00\n        /* \"#utility.yul\":5321:5330   */\n      dup4\n        /* \"#utility.yul\":5317:5334   */\n      add\n        /* \"#utility.yul\":5304:5335   */\n      calldataload\n        /* \"#utility.yul\":5362:5380   */\n      0xffffffffffffffff\n        /* \"#utility.yul\":5354:5360   */\n      dup2\n        /* \"#utility.yul\":5351:5381   */\n      gt\n        /* \"#utility.yul\":5348:5465   */\n      iszero\n      tag_417\n      jumpi\n        /* \"#utility.yul\":5384:5463   */\n      tag_418\n      tag_384\n      jump\t// in\n    tag_418:\n        /* \"#utility.yul\":5348:5465   */\n    tag_417:\n        /* \"#utility.yul\":5489:5552   */\n      tag_419\n        /* \"#utility.yul\":5544:5551   */\n      dup6\n        /* \"#utility.yul\":5535:5541   */\n      dup3\n        /* \"#utility.yul\":5524:5533   */\n      dup7\n        /* \"#utility.yul\":5520:5542   */\n      add\n        /* \"#utility.yul\":5489:5552   */\n      tag_368\n      jump\t// in\n    tag_419:\n        /* \"#utility.yul\":5479:5552   */\n      swap3\n      pop\n        /* \"#utility.yul\":5275:5562   */\n      pop\n        /* \"#utility.yul\":5601:5603   */\n      0x20\n        /* \"#utility.yul\":5627:5680   */\n      tag_420\n        /* \"#utility.yul\":5672:5679   */\n      dup6\n        /* \"#utility.yul\":5663:5669   */\n      dup3\n        /* \"#utility.yul\":5652:5661   */\n      dup7\n        /* \"#utility.yul\":5648:5670   */\n      add\n        /* \"#utility.yul\":5627:5680   */\n      tag_373\n      jump\t// in\n    tag_420:\n        /* \"#utility.yul\":5617:5680   */\n      swap2\n      pop\n        /* \"#utility.yul\":5572:5690   */\n      pop\n        /* \"#utility.yul\":5043:5697   */\n      swap3\n      pop\n      swap3\n      swap1\n      pop\n      jump\t// out\n        /* \"#utility.yul\":5703:6648   */\n    tag_100:\n        /* \"#utility.yul\":5799:5805   */\n      0x00\n        /* \"#utility.yul\":5807:5813   */\n      dup1\n        /* \"#utility.yul\":5815:5821   */\n      0x00\n        /* \"#utility.yul\":5823:5829   */\n      dup1\n        /* \"#utility.yul\":5872:5875   */\n      0x80\n        /* \"#utility.yul\":5860:5869   */\n      dup6\n        /* \"#utility.yul\":5851:5858   */\n      dup8\n        /* \"#utility.yul\":5847:5870   */\n      sub\n        /* \"#utility.yul\":5843:5876   */\n      slt\n        /* \"#utility.yul\":5840:5960   */\n      iszero\n      tag_422\n      jumpi\n        /* \"#utility.yul\":5879:5958   */\n      tag_423\n      tag_380\n      jump\t// in\n    tag_423:\n        /* \"#utility.yul\":5840:5960   */\n    tag_422:\n        /* \"#utility.yul\":6027:6028   */\n      0x00\n        /* \"#utility.yul\":6016:6025   */\n      dup6\n        /* \"#utility.yul\":6012:6029   */\n      add\n        /* \"#utility.yul\":5999:6030   */\n      calldataload\n        /* \"#utility.yul\":6057:6075   */\n      0xffffffffffffffff\n        /* \"#utility.yul\":6049:6055   */\n      dup2\n        /* \"#utility.yul\":6046:6076   */\n      gt\n        /* \"#utility.yul\":6043:6160   */\n      iszero\n      tag_424\n      jumpi\n        /* \"#utility.yul\":6079:6158   */\n      tag_425\n      tag_384\n      jump\t// in\n    tag_425:\n        /* \"#utility.yul\":6043:6160   */\n    tag_424:\n        /* \"#utility.yul\":6184:6247   */\n      tag_426\n        /* \"#utility.yul\":6239:6246   */\n      dup8\n        /* \"#utility.yul\":6230:6236   */\n      dup3\n        /* \"#utility.yul\":6219:6228   */\n      dup9\n        /* \"#utility.yul\":6215:6237   */\n      add\n        /* \"#utility.yul\":6184:6247   */\n      tag_368\n      jump\t// in\n    tag_426:\n        /* \"#utility.yul\":6174:6247   */\n      swap5\n      pop\n        /* \"#utility.yul\":5970:6257   */\n      pop\n        /* \"#utility.yul\":6296:6298   */\n      0x20\n        /* \"#utility.yul\":6322:6375   */\n      tag_427\n        /* \"#utility.yul\":6367:6374   */\n      dup8\n        /* \"#utility.yul\":6358:6364   */\n      dup3\n        /* \"#utility.yul\":6347:6356   */\n      dup9\n        /* \"#utility.yul\":6343:6365   */\n      add\n        /* \"#utility.yul\":6322:6375   */\n      tag_373\n      jump\t// in\n    tag_427:\n        /* \"#utility.yul\":6312:6375   */\n      swap4\n      pop\n        /* \"#utility.yul\":6267:6385   */\n      pop\n        /* \"#utility.yul\":6424:6426   */\n      0x40\n        /* \"#utility.yul\":6450:6503   */\n      tag_428\n        /* \"#utility.yul\":6495:6502   */\n      dup8\n        /* \"#utility.yul\":6486:6492   */\n      dup3\n        /* \"#utility.yul\":6475:6484   */\n      dup9\n        /* \"#utility.yul\":6471:6493   */\n      add\n        /* \"#utility.yul\":6450:6503   */\n      tag_373\n      jump\t// in\n    tag_428:\n        /* \"#utility.yul\":6440:6503   */\n      swap3\n      pop\n        /* \"#utility.yul\":6395:6513   */\n      pop\n        /* \"#utility.yul\":6552:6554   */\n      0x60\n        /* \"#utility.yul\":6578:6631   */\n      tag_429\n        /* \"#utility.yul\":6623:6630   */\n      dup8\n        /* \"#utility.yul\":6614:6620   */\n      dup3\n        /* \"#utility.yul\":6603:6612   */\n      dup9\n        /* \"#utility.yul\":6599:6621   */\n      add\n        /* \"#utility.yul\":6578:6631   */\n      tag_353\n      jump\t// in\n    tag_429:\n        /* \"#utility.yul\":6568:6631   */\n      swap2\n      pop\n        /* \"#utility.yul\":6523:6641   */\n      pop\n        /* \"#utility.yul\":5703:6648   */\n      swap3\n      swap6\n      swap2\n      swap5\n      pop\n      swap3\n      pop\n      jump\t// out\n        /* \"#utility.yul\":6654:8251   */\n    tag_81:\n        /* \"#utility.yul\":6788:6794   */\n      0x00\n        /* \"#utility.yul\":6796:6802   */\n      dup1\n        /* \"#utility.yul\":6804:6810   */\n      0x00\n        /* \"#utility.yul\":6812:6818   */\n      dup1\n        /* \"#utility.yul\":6820:6826   */\n      0x00\n        /* \"#utility.yul\":6828:6834   */\n      dup1\n        /* \"#utility.yul\":6877:6880   */\n      0xc0\n        /* \"#utility.yul\":6865:6874   */\n      dup8\n        /* \"#utility.yul\":6856:6863   */\n      dup10\n        /* \"#utility.yul\":6852:6875   */\n      sub\n        /* \"#utility.yul\":6848:6881   */\n      slt\n        /* \"#utility.yul\":6845:6965   */\n      iszero\n      tag_431\n      jumpi\n        /* \"#utility.yul\":6884:6963   */\n      tag_432\n      tag_380\n      jump\t// in\n    tag_432:\n        /* \"#utility.yul\":6845:6965   */\n    tag_431:\n        /* \"#utility.yul\":7032:7033   */\n      0x00\n        /* \"#utility.yul\":7021:7030   */\n      dup8\n        /* \"#utility.yul\":7017:7034   */\n      add\n        /* \"#utility.yul\":7004:7035   */\n      calldataload\n        /* \"#utility.yul\":7062:7080   */\n      0xffffffffffffffff\n        /* \"#utility.yul\":7054:7060   */\n      dup2\n        /* \"#utility.yul\":7051:7081   */\n      gt\n        /* \"#utility.yul\":7048:7165   */\n      iszero\n      tag_433\n      jumpi\n        /* \"#utility.yul\":7084:7163   */\n      tag_434\n      tag_384\n      jump\t// in\n    tag_434:\n        /* \"#utility.yul\":7048:7165   */\n    tag_433:\n        /* \"#utility.yul\":7189:7252   */\n      tag_435\n        /* \"#utility.yul\":7244:7251   */\n      dup10\n        /* \"#utility.yul\":7235:7241   */\n      dup3\n        /* \"#utility.yul\":7224:7233   */\n      dup11\n        /* \"#utility.yul\":7220:7242   */\n      add\n        /* \"#utility.yul\":7189:7252   */\n      tag_368\n      jump\t// in\n    tag_435:\n        /* \"#utility.yul\":7179:7252   */\n      swap7\n      pop\n        /* \"#utility.yul\":6975:7262   */\n      pop\n        /* \"#utility.yul\":7301:7303   */\n      0x20\n        /* \"#utility.yul\":7327:7380   */\n      tag_436\n        /* \"#utility.yul\":7372:7379   */\n      dup10\n        /* \"#utility.yul\":7363:7369   */\n      dup3\n        /* \"#utility.yul\":7352:7361   */\n      dup11\n        /* \"#utility.yul\":7348:7370   */\n      add\n        /* \"#utility.yul\":7327:7380   */\n      tag_373\n      jump\t// in\n    tag_436:\n        /* \"#utility.yul\":7317:7380   */\n      swap6\n      pop\n        /* \"#utility.yul\":7272:7390   */\n      pop\n        /* \"#utility.yul\":7429:7431   */\n      0x40\n        /* \"#utility.yul\":7455:7508   */\n      tag_437\n        /* \"#utility.yul\":7500:7507   */\n      dup10\n        /* \"#utility.yul\":7491:7497   */\n      dup3\n        /* \"#utility.yul\":7480:7489   */\n      dup11\n        /* \"#utility.yul\":7476:7498   */\n      add\n        /* \"#utility.yul\":7455:7508   */\n      tag_373\n      jump\t// in\n    tag_437:\n        /* \"#utility.yul\":7445:7508   */\n      swap5\n      pop\n        /* \"#utility.yul\":7400:7518   */\n      pop\n        /* \"#utility.yul\":7557:7559   */\n      0x60\n        /* \"#utility.yul\":7583:7636   */\n      tag_438\n        /* \"#utility.yul\":7628:7635   */\n      dup10\n        /* \"#utility.yul\":7619:7625   */\n      dup3\n        /* \"#utility.yul\":7608:7617   */\n      dup11\n        /* \"#utility.yul\":7604:7626   */\n      add\n        /* \"#utility.yul\":7583:7636   */\n      tag_353\n      jump\t// in\n    tag_438:\n        /* \"#utility.yul\":7573:7636   */\n      swap4\n      pop\n        /* \"#utility.yul\":7528:7646   */\n      pop\n        /* \"#utility.yul\":7713:7716   */\n      0x80\n        /* \"#utility.yul\":7702:7711   */\n      dup8\n        /* \"#utility.yul\":7698:7717   */\n      add\n        /* \"#utility.yul\":7685:7718   */\n      calldataload\n        /* \"#utility.yul\":7745:7763   */\n      0xffffffffffffffff\n        /* \"#utility.yul\":7737:7743   */\n      dup2\n        /* \"#utility.yul\":7734:7764   */\n      gt\n        /* \"#utility.yul\":7731:7848   */\n      iszero\n      tag_439\n      jumpi\n        /* \"#utility.yul\":7767:7846   */\n      tag_440\n      tag_384\n      jump\t// in\n    tag_440:\n        /* \"#utility.yul\":7731:7848   */\n    tag_439:\n        /* \"#utility.yul\":7872:7935   */\n      tag_441\n        /* \"#utility.yul\":7927:7934   */\n      dup10\n        /* \"#utility.yul\":7918:7924   */\n      dup3\n        /* \"#utility.yul\":7907:7916   */\n      dup11\n        /* \"#utility.yul\":7903:7925   */\n      add\n        /* \"#utility.yul\":7872:7935   */\n      tag_368\n      jump\t// in\n    tag_441:\n        /* \"#utility.yul\":7862:7935   */\n      swap3\n      pop\n        /* \"#utility.yul\":7656:7945   */\n      pop\n        /* \"#utility.yul\":8012:8015   */\n      0xa0\n        /* \"#utility.yul\":8001:8010   */\n      dup8\n        /* \"#utility.yul\":7997:8016   */\n      add\n        /* \"#utility.yul\":7984:8017   */\n      calldataload\n        /* \"#utility.yul\":8044:8062   */\n      0xffffffffffffffff\n        /* \"#utility.yul\":8036:8042   */\n      dup2\n        /* \"#utility.yul\":8033:8063   */\n      gt\n        /* \"#utility.yul\":8030:8147   */\n      iszero\n      tag_442\n      jumpi\n        /* \"#utility.yul\":8066:8145   */\n      tag_443\n      tag_384\n      jump\t// in\n    tag_443:\n        /* \"#utility.yul\":8030:8147   */\n    tag_442:\n        /* \"#utility.yul\":8171:8234   */\n      tag_444\n        /* \"#utility.yul\":8226:8233   */\n      dup10\n        /* \"#utility.yul\":8217:8223   */\n      dup3\n        /* \"#utility.yul\":8206:8215   */\n      dup11\n        /* \"#utility.yul\":8202:8224   */\n      add\n        /* \"#utility.yul\":8171:8234   */\n      tag_368\n      jump\t// in\n    tag_444:\n        /* \"#utility.yul\":8161:8234   */\n      swap2\n      pop\n        /* \"#utility.yul\":7955:8244   */\n      pop\n        /* \"#utility.yul\":6654:8251   */\n      swap3\n      swap6\n      pop\n      swap3\n      swap6\n      pop\n      swap3\n      swap6\n      jump\t// out\n        /* \"#utility.yul\":8257:8516   */\n    tag_445:\n        /* \"#utility.yul\":8366:8376   */\n      0x00\n        /* \"#utility.yul\":8387:8473   */\n      tag_447\n        /* \"#utility.yul\":8469:8472   */\n      dup4\n        /* \"#utility.yul\":8461:8467   */\n      dup4\n        /* \"#utility.yul\":8387:8473   */\n      tag_448\n      jump\t// in\n    tag_447:\n        /* \"#utility.yul\":8505:8509   */\n      0x60\n        /* \"#utility.yul\":8500:8503   */\n      dup4\n        /* \"#utility.yul\":8496:8510   */\n      add\n        /* \"#utility.yul\":8482:8510   */\n      swap1\n      pop\n        /* \"#utility.yul\":8257:8516   */\n      swap3\n      swap2\n      pop\n      pop\n      jump\t// out\n        /* \"#utility.yul\":8522:8630   */\n    tag_449:\n        /* \"#utility.yul\":8599:8623   */\n      tag_451\n        /* \"#utility.yul\":8617:8622   */\n      dup2\n        /* \"#utility.yul\":8599:8623   */\n      tag_452\n      jump\t// in\n    tag_451:\n        /* \"#utility.yul\":8594:8597   */\n      dup3\n        /* \"#utility.yul\":8587:8624   */\n      mstore\n        /* \"#utility.yul\":8522:8630   */\n      pop\n      pop\n      jump\t// out\n        /* \"#utility.yul\":8636:8754   */\n    tag_453:\n        /* \"#utility.yul\":8723:8747   */\n      tag_455\n        /* \"#utility.yul\":8741:8746   */\n      dup2\n        /* \"#utility.yul\":8723:8747   */\n      tag_452\n      jump\t// in\n    tag_455:\n        /* \"#utility.yul\":8718:8721   */\n      dup3\n        /* \"#utility.yul\":8711:8748   */\n      mstore\n        /* \"#utility.yul\":8636:8754   */\n      pop\n      pop\n      jump\t// out\n        /* \"#utility.yul\":8838:9730   */\n    tag_456:\n        /* \"#utility.yul\":8997:9000   */\n      0x00\n        /* \"#utility.yul\":9026:9100   */\n      tag_458\n        /* \"#utility.yul\":9094:9099   */\n      dup3\n        /* \"#utility.yul\":9026:9100   */\n      tag_459\n      jump\t// in\n    tag_458:\n        /* \"#utility.yul\":9116:9222   */\n      tag_460\n        /* \"#utility.yul\":9215:9221   */\n      dup2\n        /* \"#utility.yul\":9210:9213   */\n      dup6\n        /* \"#utility.yul\":9116:9222   */\n      tag_461\n      jump\t// in\n    tag_460:\n        /* \"#utility.yul\":9109:9222   */\n      swap4\n      pop\n        /* \"#utility.yul\":9246:9322   */\n      tag_462\n        /* \"#utility.yul\":9316:9321   */\n      dup4\n        /* \"#utility.yul\":9246:9322   */\n      tag_463\n      jump\t// in\n    tag_462:\n        /* \"#utility.yul\":9345:9352   */\n      dup1\n        /* \"#utility.yul\":9376:9377   */\n      0x00\n        /* \"#utility.yul\":9361:9705   */\n    tag_464:\n        /* \"#utility.yul\":9386:9392   */\n      dup4\n        /* \"#utility.yul\":9383:9384   */\n      dup2\n        /* \"#utility.yul\":9380:9393   */\n      lt\n        /* \"#utility.yul\":9361:9705   */\n      iszero\n      tag_466\n      jumpi\n        /* \"#utility.yul\":9462:9468   */\n      dup2\n        /* \"#utility.yul\":9456:9469   */\n      mload\n        /* \"#utility.yul\":9489:9592   */\n      tag_467\n        /* \"#utility.yul\":9588:9591   */\n      dup9\n        /* \"#utility.yul\":9573:9586   */\n      dup3\n        /* \"#utility.yul\":9489:9592   */\n      tag_445\n      jump\t// in\n    tag_467:\n        /* \"#utility.yul\":9482:9592   */\n      swap8\n      pop\n        /* \"#utility.yul\":9615:9695   */\n      tag_468\n        /* \"#utility.yul\":9688:9694   */\n      dup4\n        /* \"#utility.yul\":9615:9695   */\n      tag_469\n      jump\t// in\n    tag_468:\n        /* \"#utility.yul\":9605:9695   */\n      swap3\n      pop\n        /* \"#utility.yul\":9421:9705   */\n      pop\n        /* \"#utility.yul\":9408:9409   */\n      0x01\n        /* \"#utility.yul\":9405:9406   */\n      dup2\n        /* \"#utility.yul\":9401:9410   */\n      add\n        /* \"#utility.yul\":9396:9410   */\n      swap1\n      pop\n        /* \"#utility.yul\":9361:9705   */\n      jump(tag_464)\n    tag_466:\n        /* \"#utility.yul\":9365:9379   */\n      pop\n        /* \"#utility.yul\":9721:9724   */\n      dup6\n        /* \"#utility.yul\":9714:9724   */\n      swap4\n      pop\n        /* \"#utility.yul\":9002:9730   */\n      pop\n      pop\n      pop\n        /* \"#utility.yul\":8838:9730   */\n      swap3\n      swap2\n      pop\n      pop\n      jump\t// out\n        /* \"#utility.yul\":9736:9835   */\n    tag_470:\n        /* \"#utility.yul\":9807:9828   */\n      tag_472\n        /* \"#utility.yul\":9822:9827   */\n      dup2\n        /* \"#utility.yul\":9807:9828   */\n      tag_473\n      jump\t// in\n    tag_472:\n        /* \"#utility.yul\":9802:9805   */\n      dup3\n        /* \"#utility.yul\":9795:9829   */\n      mstore\n        /* \"#utility.yul\":9736:9835   */\n      pop\n      pop\n      jump\t// out\n        /* \"#utility.yul\":9841:9950   */\n    tag_474:\n        /* \"#utility.yul\":9922:9943   */\n      tag_476\n        /* \"#utility.yul\":9937:9942   */\n      dup2\n        /* \"#utility.yul\":9922:9943   */\n      tag_473\n      jump\t// in\n    tag_476:\n        /* \"#utility.yul\":9917:9920   */\n      dup3\n        /* \"#utility.yul\":9910:9944   */\n      mstore\n        /* \"#utility.yul\":9841:9950   */\n      pop\n      pop\n      jump\t// out\n        /* \"#utility.yul\":9956:10074   */\n    tag_477:\n        /* \"#utility.yul\":10043:10067   */\n      tag_479\n        /* \"#utility.yul\":10061:10066   */\n      dup2\n        /* \"#utility.yul\":10043:10067   */\n      tag_480\n      jump\t// in\n    tag_479:\n        /* \"#utility.yul\":10038:10041   */\n      dup3\n        /* \"#utility.yul\":10031:10068   */\n      mstore\n        /* \"#utility.yul\":9956:10074   */\n      pop\n      pop\n      jump\t// out\n        /* \"#utility.yul\":10104:10421   */\n    tag_481:\n        /* \"#utility.yul\":10220:10223   */\n      0x00\n        /* \"#utility.yul\":10241:10330   */\n      tag_483\n        /* \"#utility.yul\":10323:10329   */\n      dup4\n        /* \"#utility.yul\":10318:10321   */\n      dup6\n        /* \"#utility.yul\":10241:10330   */\n      tag_484\n      jump\t// in\n    tag_483:\n        /* \"#utility.yul\":10234:10330   */\n      swap4\n      pop\n        /* \"#utility.yul\":10340:10383   */\n      tag_485\n        /* \"#utility.yul\":10376:10382   */\n      dup4\n        /* \"#utility.yul\":10371:10374   */\n      dup6\n        /* \"#utility.yul\":10364:10369   */\n      dup5\n        /* \"#utility.yul\":10340:10383   */\n      tag_348\n      jump\t// in\n    tag_485:\n        /* \"#utility.yul\":10408:10414   */\n      dup3\n        /* \"#utility.yul\":10403:10406   */\n      dup5\n        /* \"#utility.yul\":10399:10415   */\n      add\n        /* \"#utility.yul\":10392:10415   */\n      swap1\n      pop\n        /* \"#utility.yul\":10104:10421   */\n      swap4\n      swap3\n      pop\n      pop\n      pop\n      jump\t// out\n        /* \"#utility.yul\":10427:10791   */\n    tag_486:\n        /* \"#utility.yul\":10515:10518   */\n      0x00\n        /* \"#utility.yul\":10543:10582   */\n      tag_488\n        /* \"#utility.yul\":10576:10581   */\n      dup3\n        /* \"#utility.yul\":10543:10582   */\n      tag_489\n      jump\t// in\n    tag_488:\n        /* \"#utility.yul\":10598:10669   */\n      tag_490\n        /* \"#utility.yul\":10662:10668   */\n      dup2\n        /* \"#utility.yul\":10657:10660   */\n      dup6\n        /* \"#utility.yul\":10598:10669   */\n      tag_491\n      jump\t// in\n    tag_490:\n        /* \"#utility.yul\":10591:10669   */\n      swap4\n      pop\n        /* \"#utility.yul\":10678:10730   */\n      tag_492\n        /* \"#utility.yul\":10723:10729   */\n      dup2\n        /* \"#utility.yul\":10718:10721   */\n      dup6\n        /* \"#utility.yul\":10711:10715   */\n      0x20\n        /* \"#utility.yul\":10704:10709   */\n      dup7\n        /* \"#utility.yul\":10700:10716   */\n      add\n        /* \"#utility.yul\":10678:10730   */\n      tag_493\n      jump\t// in\n    tag_492:\n        /* \"#utility.yul\":10755:10784   */\n      tag_494\n        /* \"#utility.yul\":10777:10783   */\n      dup2\n        /* \"#utility.yul\":10755:10784   */\n      tag_495\n      jump\t// in\n    tag_494:\n        /* \"#utility.yul\":10750:10753   */\n      dup5\n        /* \"#utility.yul\":10746:10785   */\n      add\n        /* \"#utility.yul\":10739:10785   */\n      swap2\n      pop\n        /* \"#utility.yul\":10519:10791   */\n      pop\n        /* \"#utility.yul\":10427:10791   */\n      swap3\n      swap2\n      pop\n      pop\n      jump\t// out\n        /* \"#utility.yul\":10797:11174   */\n    tag_496:\n        /* \"#utility.yul\":10903:10906   */\n      0x00\n        /* \"#utility.yul\":10931:10970   */\n      tag_498\n        /* \"#utility.yul\":10964:10969   */\n      dup3\n        /* \"#utility.yul\":10931:10970   */\n      tag_489\n      jump\t// in\n    tag_498:\n        /* \"#utility.yul\":10986:11075   */\n      tag_499\n        /* \"#utility.yul\":11068:11074   */\n      dup2\n        /* \"#utility.yul\":11063:11066   */\n      dup6\n        /* \"#utility.yul\":10986:11075   */\n      tag_484\n      jump\t// in\n    tag_499:\n        /* \"#utility.yul\":10979:11075   */\n      swap4\n      pop\n        /* \"#utility.yul\":11084:11136   */\n      tag_500\n        /* \"#utility.yul\":11129:11135   */\n      dup2\n        /* \"#utility.yul\":11124:11127   */\n      dup6\n        /* \"#utility.yul\":11117:11121   */\n      0x20\n        /* \"#utility.yul\":11110:11115   */\n      dup7\n        /* \"#utility.yul\":11106:11122   */\n      add\n        /* \"#utility.yul\":11084:11136   */\n      tag_493\n      jump\t// in\n    tag_500:\n        /* \"#utility.yul\":11161:11167   */\n      dup1\n        /* \"#utility.yul\":11156:11159   */\n      dup5\n        /* \"#utility.yul\":11152:11168   */\n      add\n        /* \"#utility.yul\":11145:11168   */\n      swap2\n      pop\n        /* \"#utility.yul\":10907:11174   */\n      pop\n        /* \"#utility.yul\":10797:11174   */\n      swap3\n      swap2\n      pop\n      pop\n      jump\t// out\n        /* \"#utility.yul\":11180:11546   */\n    tag_501:\n        /* \"#utility.yul\":11322:11325   */\n      0x00\n        /* \"#utility.yul\":11343:11410   */\n      tag_503\n        /* \"#utility.yul\":11407:11409   */\n      0x1f\n        /* \"#utility.yul\":11402:11405   */\n      dup4\n        /* \"#utility.yul\":11343:11410   */\n      tag_491\n      jump\t// in\n    tag_503:\n        /* \"#utility.yul\":11336:11410   */\n      swap2\n      pop\n        /* \"#utility.yul\":11419:11512   */\n      tag_504\n        /* \"#utility.yul\":11508:11511   */\n      dup3\n        /* \"#utility.yul\":11419:11512   */\n      tag_505\n      jump\t// in\n    tag_504:\n        /* \"#utility.yul\":11537:11539   */\n      0x20\n        /* \"#utility.yul\":11532:11535   */\n      dup3\n        /* \"#utility.yul\":11528:11540   */\n      add\n        /* \"#utility.yul\":11521:11540   */\n      swap1\n      pop\n        /* \"#utility.yul\":11180:11546   */\n      swap2\n      swap1\n      pop\n      jump\t// out\n        /* \"#utility.yul\":11552:11918   */\n    tag_506:\n        /* \"#utility.yul\":11694:11697   */\n      0x00\n        /* \"#utility.yul\":11715:11782   */\n      tag_508\n        /* \"#utility.yul\":11779:11781   */\n      0x19\n        /* \"#utility.yul\":11774:11777   */\n      dup4\n        /* \"#utility.yul\":11715:11782   */\n      tag_491\n      jump\t// in\n    tag_508:\n        /* \"#utility.yul\":11708:11782   */\n      swap2\n      pop\n        /* \"#utility.yul\":11791:11884   */\n      tag_509\n        /* \"#utility.yul\":11880:11883   */\n      dup3\n        /* \"#utility.yul\":11791:11884   */\n      tag_510\n      jump\t// in\n    tag_509:\n        /* \"#utility.yul\":11909:11911   */\n      0x20\n        /* \"#utility.yul\":11904:11907   */\n      dup3\n        /* \"#utility.yul\":11900:11912   */\n      add\n        /* \"#utility.yul\":11893:11912   */\n      swap1\n      pop\n        /* \"#utility.yul\":11552:11918   */\n      swap2\n      swap1\n      pop\n      jump\t// out\n        /* \"#utility.yul\":11924:12290   */\n    tag_511:\n        /* \"#utility.yul\":12066:12069   */\n      0x00\n        /* \"#utility.yul\":12087:12154   */\n      tag_513\n        /* \"#utility.yul\":12151:12153   */\n      0x26\n        /* \"#utility.yul\":12146:12149   */\n      dup4\n        /* \"#utility.yul\":12087:12154   */\n      tag_491\n      jump\t// in\n    tag_513:\n        /* \"#utility.yul\":12080:12154   */\n      swap2\n      pop\n        /* \"#utility.yul\":12163:12256   */\n      tag_514\n        /* \"#utility.yul\":12252:12255   */\n      dup3\n        /* \"#utility.yul\":12163:12256   */\n      tag_515\n      jump\t// in\n    tag_514:\n        /* \"#utility.yul\":12281:12283   */\n      0x40\n        /* \"#utility.yul\":12276:12279   */\n      dup3\n        /* \"#utility.yul\":12272:12284   */\n      add\n        /* \"#utility.yul\":12265:12284   */\n      swap1\n      pop\n        /* \"#utility.yul\":11924:12290   */\n      swap2\n      swap1\n      pop\n      jump\t// out\n        /* \"#utility.yul\":12296:12662   */\n    tag_516:\n        /* \"#utility.yul\":12438:12441   */\n      0x00\n        /* \"#utility.yul\":12459:12526   */\n      tag_518\n        /* \"#utility.yul\":12523:12525   */\n      0x1c\n        /* \"#utility.yul\":12518:12521   */\n      dup4\n        /* \"#utility.yul\":12459:12526   */\n      tag_491\n      jump\t// in\n    tag_518:\n        /* \"#utility.yul\":12452:12526   */\n      swap2\n      pop\n        /* \"#utility.yul\":12535:12628   */\n      tag_519\n        /* \"#utility.yul\":12624:12627   */\n      dup3\n        /* \"#utility.yul\":12535:12628   */\n      tag_520\n      jump\t// in\n    tag_519:\n        /* \"#utility.yul\":12653:12655   */\n      0x20\n        /* \"#utility.yul\":12648:12651   */\n      dup3\n        /* \"#utility.yul\":12644:12656   */\n      add\n        /* \"#utility.yul\":12637:12656   */\n      swap1\n      pop\n        /* \"#utility.yul\":12296:12662   */\n      swap2\n      swap1\n      pop\n      jump\t// out\n        /* \"#utility.yul\":12668:13034   */\n    tag_521:\n        /* \"#utility.yul\":12810:12813   */\n      0x00\n        /* \"#utility.yul\":12831:12898   */\n      tag_523\n        /* \"#utility.yul\":12895:12897   */\n      0x15\n        /* \"#utility.yul\":12890:12893   */\n      dup4\n        /* \"#utility.yul\":12831:12898   */\n      tag_491\n      jump\t// in\n    tag_523:\n        /* \"#utility.yul\":12824:12898   */\n      swap2\n      pop\n        /* \"#utility.yul\":12907:13000   */\n      tag_524\n        /* \"#utility.yul\":12996:12999   */\n      dup3\n        /* \"#utility.yul\":12907:13000   */\n      tag_525\n      jump\t// in\n    tag_524:\n        /* \"#utility.yul\":13025:13027   */\n      0x20\n        /* \"#utility.yul\":13020:13023   */\n      dup3\n        /* \"#utility.yul\":13016:13028   */\n      add\n        /* \"#utility.yul\":13009:13028   */\n      swap1\n      pop\n        /* \"#utility.yul\":12668:13034   */\n      swap2\n      swap1\n      pop\n      jump\t// out\n        /* \"#utility.yul\":13040:13406   */\n    tag_526:\n        /* \"#utility.yul\":13182:13185   */\n      0x00\n        /* \"#utility.yul\":13203:13270   */\n      tag_528\n        /* \"#utility.yul\":13267:13269   */\n      0x1e\n        /* \"#utility.yul\":13262:13265   */\n      dup4\n        /* \"#utility.yul\":13203:13270   */\n      tag_491\n      jump\t// in\n    tag_528:\n        /* \"#utility.yul\":13196:13270   */\n      swap2\n      pop\n        /* \"#utility.yul\":13279:13372   */\n      tag_529\n        /* \"#utility.yul\":13368:13371   */\n      dup3\n        /* \"#utility.yul\":13279:13372   */\n      tag_530\n      jump\t// in\n    tag_529:\n        /* \"#utility.yul\":13397:13399   */\n      0x20\n        /* \"#utility.yul\":13392:13395   */\n      dup3\n        /* \"#utility.yul\":13388:13400   */\n      add\n        /* \"#utility.yul\":13381:13400   */\n      swap1\n      pop\n        /* \"#utility.yul\":13040:13406   */\n      swap2\n      swap1\n      pop\n      jump\t// out\n        /* \"#utility.yul\":13412:13778   */\n    tag_531:\n        /* \"#utility.yul\":13554:13557   */\n      0x00\n        /* \"#utility.yul\":13575:13642   */\n      tag_533\n        /* \"#utility.yul\":13639:13641   */\n      0x24\n        /* \"#utility.yul\":13634:13637   */\n      dup4\n        /* \"#utility.yul\":13575:13642   */\n      tag_491\n      jump\t// in\n    tag_533:\n        /* \"#utility.yul\":13568:13642   */\n      swap2\n      pop\n        /* \"#utility.yul\":13651:13744   */\n      tag_534\n        /* \"#utility.yul\":13740:13743   */\n      dup3\n        /* \"#utility.yul\":13651:13744   */\n      tag_535\n      jump\t// in\n    tag_534:\n        /* \"#utility.yul\":13769:13771   */\n      0x40\n        /* \"#utility.yul\":13764:13767   */\n      dup3\n        /* \"#utility.yul\":13760:13772   */\n      add\n        /* \"#utility.yul\":13753:13772   */\n      swap1\n      pop\n        /* \"#utility.yul\":13412:13778   */\n      swap2\n      swap1\n      pop\n      jump\t// out\n        /* \"#utility.yul\":13784:14150   */\n    tag_536:\n        /* \"#utility.yul\":13926:13929   */\n      0x00\n        /* \"#utility.yul\":13947:14014   */\n      tag_538\n        /* \"#utility.yul\":14011:14013   */\n      0x28\n        /* \"#utility.yul\":14006:14009   */\n      dup4\n        /* \"#utility.yul\":13947:14014   */\n      tag_491\n      jump\t// in\n    tag_538:\n        /* \"#utility.yul\":13940:14014   */\n      swap2\n      pop\n        /* \"#utility.yul\":14023:14116   */\n      tag_539\n        /* \"#utility.yul\":14112:14115   */\n      dup3\n        /* \"#utility.yul\":14023:14116   */\n      tag_540\n      jump\t// in\n    tag_539:\n        /* \"#utility.yul\":14141:14143   */\n      0x40\n        /* \"#utility.yul\":14136:14139   */\n      dup3\n        /* \"#utility.yul\":14132:14144   */\n      add\n        /* \"#utility.yul\":14125:14144   */\n      swap1\n      pop\n        /* \"#utility.yul\":13784:14150   */\n      swap2\n      swap1\n      pop\n      jump\t// out\n        /* \"#utility.yul\":14156:14522   */\n    tag_541:\n        /* \"#utility.yul\":14298:14301   */\n      0x00\n        /* \"#utility.yul\":14319:14386   */\n      tag_543\n        /* \"#utility.yul\":14383:14385   */\n      0x14\n        /* \"#utility.yul\":14378:14381   */\n      dup4\n        /* \"#utility.yul\":14319:14386   */\n      tag_491\n      jump\t// in\n    tag_543:\n        /* \"#utility.yul\":14312:14386   */\n      swap2\n      pop\n        /* \"#utility.yul\":14395:14488   */\n      tag_544\n        /* \"#utility.yul\":14484:14487   */\n      dup3\n        /* \"#utility.yul\":14395:14488   */\n      tag_545\n      jump\t// in\n    tag_544:\n        /* \"#utility.yul\":14513:14515   */\n      0x20\n        /* \"#utility.yul\":14508:14511   */\n      dup3\n        /* \"#utility.yul\":14504:14516   */\n      add\n        /* \"#utility.yul\":14497:14516   */\n      swap1\n      pop\n        /* \"#utility.yul\":14156:14522   */\n      swap2\n      swap1\n      pop\n      jump\t// out\n        /* \"#utility.yul\":14528:14894   */\n    tag_546:\n        /* \"#utility.yul\":14670:14673   */\n      0x00\n        /* \"#utility.yul\":14691:14758   */\n      tag_548\n        /* \"#utility.yul\":14755:14757   */\n      0x20\n        /* \"#utility.yul\":14750:14753   */\n      dup4\n        /* \"#utility.yul\":14691:14758   */\n      tag_491\n      jump\t// in\n    tag_548:\n        /* \"#utility.yul\":14684:14758   */\n      swap2\n      pop\n        /* \"#utility.yul\":14767:14860   */\n      tag_549\n        /* \"#utility.yul\":14856:14859   */\n      dup3\n        /* \"#utility.yul\":14767:14860   */\n      tag_550\n      jump\t// in\n    tag_549:\n        /* \"#utility.yul\":14885:14887   */\n      0x20\n        /* \"#utility.yul\":14880:14883   */\n      dup3\n        /* \"#utility.yul\":14876:14888   */\n      add\n        /* \"#utility.yul\":14869:14888   */\n      swap1\n      pop\n        /* \"#utility.yul\":14528:14894   */\n      swap2\n      swap1\n      pop\n      jump\t// out\n        /* \"#utility.yul\":14900:15266   */\n    tag_551:\n        /* \"#utility.yul\":15042:15045   */\n      0x00\n        /* \"#utility.yul\":15063:15130   */\n      tag_553\n        /* \"#utility.yul\":15127:15129   */\n      0x12\n        /* \"#utility.yul\":15122:15125   */\n      dup4\n        /* \"#utility.yul\":15063:15130   */\n      tag_491\n      jump\t// in\n    tag_553:\n        /* \"#utility.yul\":15056:15130   */\n      swap2\n      pop\n        /* \"#utility.yul\":15139:15232   */\n      tag_554\n        /* \"#utility.yul\":15228:15231   */\n      dup3\n        /* \"#utility.yul\":15139:15232   */\n      tag_555\n      jump\t// in\n    tag_554:\n        /* \"#utility.yul\":15257:15259   */\n      0x20\n        /* \"#utility.yul\":15252:15255   */\n      dup3\n        /* \"#utility.yul\":15248:15260   */\n      add\n        /* \"#utility.yul\":15241:15260   */\n      swap1\n      pop\n        /* \"#utility.yul\":14900:15266   */\n      swap2\n      swap1\n      pop\n      jump\t// out\n        /* \"#utility.yul\":15272:15638   */\n    tag_556:\n        /* \"#utility.yul\":15414:15417   */\n      0x00\n        /* \"#utility.yul\":15435:15502   */\n      tag_558\n        /* \"#utility.yul\":15499:15501   */\n      0x25\n        /* \"#utility.yul\":15494:15497   */\n      dup4\n        /* \"#utility.yul\":15435:15502   */\n      tag_491\n      jump\t// in\n    tag_558:\n        /* \"#utility.yul\":15428:15502   */\n      swap2\n      pop\n        /* \"#utility.yul\":15511:15604   */\n      tag_559\n        /* \"#utility.yul\":15600:15603   */\n      dup3\n        /* \"#utility.yul\":15511:15604   */\n      tag_560\n      jump\t// in\n    tag_559:\n        /* \"#utility.yul\":15629:15631   */\n      0x40\n        /* \"#utility.yul\":15624:15627   */\n      dup3\n        /* \"#utility.yul\":15620:15632   */\n      add\n        /* \"#utility.yul\":15613:15632   */\n      swap1\n      pop\n        /* \"#utility.yul\":15272:15638   */\n      swap2\n      swap1\n      pop\n      jump\t// out\n        /* \"#utility.yul\":15718:16373   */\n    tag_448:\n        /* \"#utility.yul\":15845:15849   */\n      0x60\n        /* \"#utility.yul\":15840:15843   */\n      dup3\n        /* \"#utility.yul\":15836:15850   */\n      add\n        /* \"#utility.yul\":15933:15937   */\n      0x00\n        /* \"#utility.yul\":15926:15931   */\n      dup3\n        /* \"#utility.yul\":15922:15938   */\n      add\n        /* \"#utility.yul\":15916:15939   */\n      mload\n        /* \"#utility.yul\":15952:16009   */\n      tag_562\n        /* \"#utility.yul\":16003:16007   */\n      0x00\n        /* \"#utility.yul\":15998:16001   */\n      dup6\n        /* \"#utility.yul\":15994:16008   */\n      add\n        /* \"#utility.yul\":15980:15992   */\n      dup3\n        /* \"#utility.yul\":15952:16009   */\n      tag_470\n      jump\t// in\n    tag_562:\n        /* \"#utility.yul\":15860:16019   */\n      pop\n        /* \"#utility.yul\":16101:16105   */\n      0x20\n        /* \"#utility.yul\":16094:16099   */\n      dup3\n        /* \"#utility.yul\":16090:16106   */\n      add\n        /* \"#utility.yul\":16084:16107   */\n      mload\n        /* \"#utility.yul\":16120:16177   */\n      tag_563\n        /* \"#utility.yul\":16171:16175   */\n      0x20\n        /* \"#utility.yul\":16166:16169   */\n      dup6\n        /* \"#utility.yul\":16162:16176   */\n      add\n        /* \"#utility.yul\":16148:16160   */\n      dup3\n        /* \"#utility.yul\":16120:16177   */\n      tag_470\n      jump\t// in\n    tag_563:\n        /* \"#utility.yul\":16029:16187   */\n      pop\n        /* \"#utility.yul\":16274:16278   */\n      0x40\n        /* \"#utility.yul\":16267:16272   */\n      dup3\n        /* \"#utility.yul\":16263:16279   */\n      add\n        /* \"#utility.yul\":16257:16280   */\n      mload\n        /* \"#utility.yul\":16293:16356   */\n      tag_564\n        /* \"#utility.yul\":16350:16354   */\n      0x40\n        /* \"#utility.yul\":16345:16348   */\n      dup6\n        /* \"#utility.yul\":16341:16355   */\n      add\n        /* \"#utility.yul\":16327:16339   */\n      dup3\n        /* \"#utility.yul\":16293:16356   */\n      tag_449\n      jump\t// in\n    tag_564:\n        /* \"#utility.yul\":16197:16366   */\n      pop\n        /* \"#utility.yul\":15814:16373   */\n      pop\n        /* \"#utility.yul\":15718:16373   */\n      pop\n      pop\n      jump\t// out\n        /* \"#utility.yul\":16379:16497   */\n    tag_565:\n        /* \"#utility.yul\":16466:16490   */\n      tag_567\n        /* \"#utility.yul\":16484:16489   */\n      dup2\n        /* \"#utility.yul\":16466:16490   */\n      tag_568\n      jump\t// in\n    tag_567:\n        /* \"#utility.yul\":16461:16464   */\n      dup3\n        /* \"#utility.yul\":16454:16491   */\n      mstore\n        /* \"#utility.yul\":16379:16497   */\n      pop\n      pop\n      jump\t// out\n        /* \"#utility.yul\":16503:16798   */\n    tag_144:\n        /* \"#utility.yul\":16645:16648   */\n      0x00\n        /* \"#utility.yul\":16667:16772   */\n      tag_570\n        /* \"#utility.yul\":16768:16771   */\n      dup3\n        /* \"#utility.yul\":16759:16765   */\n      dup5\n        /* \"#utility.yul\":16751:16757   */\n      dup7\n        /* \"#utility.yul\":16667:16772   */\n      tag_481\n      jump\t// in\n    tag_570:\n        /* \"#utility.yul\":16660:16772   */\n      swap2\n      pop\n        /* \"#utility.yul\":16789:16792   */\n      dup2\n        /* \"#utility.yul\":16782:16792   */\n      swap1\n      pop\n        /* \"#utility.yul\":16503:16798   */\n      swap4\n      swap3\n      pop\n      pop\n      pop\n      jump\t// out\n        /* \"#utility.yul\":16804:17079   */\n    tag_215:\n        /* \"#utility.yul\":16936:16939   */\n      0x00\n        /* \"#utility.yul\":16958:17053   */\n      tag_572\n        /* \"#utility.yul\":17049:17052   */\n      dup3\n        /* \"#utility.yul\":17040:17046   */\n      dup5\n        /* \"#utility.yul\":16958:17053   */\n      tag_496\n      jump\t// in\n    tag_572:\n        /* \"#utility.yul\":16951:17053   */\n      swap2\n      pop\n        /* \"#utility.yul\":17070:17073   */\n      dup2\n        /* \"#utility.yul\":17063:17073   */\n      swap1\n      pop\n        /* \"#utility.yul\":16804:17079   */\n      swap3\n      swap2\n      pop\n      pop\n      jump\t// out\n        /* \"#utility.yul\":17085:17307   */\n    tag_34:\n        /* \"#utility.yul\":17178:17182   */\n      0x00\n        /* \"#utility.yul\":17216:17218   */\n      0x20\n        /* \"#utility.yul\":17205:17214   */\n      dup3\n        /* \"#utility.yul\":17201:17219   */\n      add\n        /* \"#utility.yul\":17193:17219   */\n      swap1\n      pop\n        /* \"#utility.yul\":17229:17300   */\n      tag_574\n        /* \"#utility.yul\":17297:17298   */\n      0x00\n        /* \"#utility.yul\":17286:17295   */\n      dup4\n        /* \"#utility.yul\":17282:17299   */\n      add\n        /* \"#utility.yul\":17273:17279   */\n      dup5\n        /* \"#utility.yul\":17229:17300   */\n      tag_453\n      jump\t// in\n    tag_574:\n        /* \"#utility.yul\":17085:17307   */\n      swap3\n      swap2\n      pop\n      pop\n      jump\t// out\n        /* \"#utility.yul\":17313:17523   */\n    tag_49:\n        /* \"#utility.yul\":17400:17404   */\n      0x00\n        /* \"#utility.yul\":17438:17440   */\n      0x20\n        /* \"#utility.yul\":17427:17436   */\n      dup3\n        /* \"#utility.yul\":17423:17441   */\n      add\n        /* \"#utility.yul\":17415:17441   */\n      swap1\n      pop\n        /* \"#utility.yul\":17451:17516   */\n      tag_576\n        /* \"#utility.yul\":17513:17514   */\n      0x00\n        /* \"#utility.yul\":17502:17511   */\n      dup4\n        /* \"#utility.yul\":17498:17515   */\n      add\n        /* \"#utility.yul\":17489:17495   */\n      dup5\n        /* \"#utility.yul\":17451:17516   */\n      tag_474\n      jump\t// in\n    tag_576:\n        /* \"#utility.yul\":17313:17523   */\n      swap3\n      swap2\n      pop\n      pop\n      jump\t// out\n        /* \"#utility.yul\":17529:17947   */\n    tag_59:\n        /* \"#utility.yul\":17666:17670   */\n      0x00\n        /* \"#utility.yul\":17704:17706   */\n      0x60\n        /* \"#utility.yul\":17693:17702   */\n      dup3\n        /* \"#utility.yul\":17689:17707   */\n      add\n        /* \"#utility.yul\":17681:17707   */\n      swap1\n      pop\n        /* \"#utility.yul\":17717:17782   */\n      tag_578\n        /* \"#utility.yul\":17779:17780   */\n      0x00\n        /* \"#utility.yul\":17768:17777   */\n      dup4\n        /* \"#utility.yul\":17764:17781   */\n      add\n        /* \"#utility.yul\":17755:17761   */\n      dup7\n        /* \"#utility.yul\":17717:17782   */\n      tag_474\n      jump\t// in\n    tag_578:\n        /* \"#utility.yul\":17792:17858   */\n      tag_579\n        /* \"#utility.yul\":17854:17856   */\n      0x20\n        /* \"#utility.yul\":17843:17852   */\n      dup4\n        /* \"#utility.yul\":17839:17857   */\n      add\n        /* \"#utility.yul\":17830:17836   */\n      dup6\n        /* \"#utility.yul\":17792:17858   */\n      tag_474\n      jump\t// in\n    tag_579:\n        /* \"#utility.yul\":17868:17940   */\n      tag_580\n        /* \"#utility.yul\":17936:17938   */\n      0x40\n        /* \"#utility.yul\":17925:17934   */\n      dup4\n        /* \"#utility.yul\":17921:17939   */\n      add\n        /* \"#utility.yul\":17912:17918   */\n      dup5\n        /* \"#utility.yul\":17868:17940   */\n      tag_453\n      jump\t// in\n    tag_580:\n        /* \"#utility.yul\":17529:17947   */\n      swap5\n      swap4\n      pop\n      pop\n      pop\n      pop\n      jump\t// out\n        /* \"#utility.yul\":17953:18359   */\n    tag_103:\n        /* \"#utility.yul\":18084:18088   */\n      0x00\n        /* \"#utility.yul\":18122:18124   */\n      0x60\n        /* \"#utility.yul\":18111:18120   */\n      dup3\n        /* \"#utility.yul\":18107:18125   */\n      add\n        /* \"#utility.yul\":18099:18125   */\n      swap1\n      pop\n        /* \"#utility.yul\":18135:18200   */\n      tag_582\n        /* \"#utility.yul\":18197:18198   */\n      0x00\n        /* \"#utility.yul\":18186:18195   */\n      dup4\n        /* \"#utility.yul\":18182:18199   */\n      add\n        /* \"#utility.yul\":18173:18179   */\n      dup7\n        /* \"#utility.yul\":18135:18200   */\n      tag_474\n      jump\t// in\n    tag_582:\n        /* \"#utility.yul\":18210:18276   */\n      tag_583\n        /* \"#utility.yul\":18272:18274   */\n      0x20\n        /* \"#utility.yul\":18261:18270   */\n      dup4\n        /* \"#utility.yul\":18257:18275   */\n      add\n        /* \"#utility.yul\":18248:18254   */\n      dup6\n        /* \"#utility.yul\":18210:18276   */\n      tag_474\n      jump\t// in\n    tag_583:\n        /* \"#utility.yul\":18286:18352   */\n      tag_584\n        /* \"#utility.yul\":18348:18350   */\n      0x40\n        /* \"#utility.yul\":18337:18346   */\n      dup4\n        /* \"#utility.yul\":18333:18351   */\n      add\n        /* \"#utility.yul\":18324:18330   */\n      dup5\n        /* \"#utility.yul\":18286:18352   */\n      tag_474\n      jump\t// in\n    tag_584:\n        /* \"#utility.yul\":17953:18359   */\n      swap5\n      swap4\n      pop\n      pop\n      pop\n      pop\n      jump\t// out\n        /* \"#utility.yul\":18365:19228   */\n    tag_65:\n        /* \"#utility.yul\":18646:18650   */\n      0x00\n        /* \"#utility.yul\":18684:18687   */\n      0x80\n        /* \"#utility.yul\":18673:18682   */\n      dup3\n        /* \"#utility.yul\":18669:18688   */\n      add\n        /* \"#utility.yul\":18661:18688   */\n      swap1\n      pop\n        /* \"#utility.yul\":18698:18763   */\n      tag_586\n        /* \"#utility.yul\":18760:18761   */\n      0x00\n        /* \"#utility.yul\":18749:18758   */\n      dup4\n        /* \"#utility.yul\":18745:18762   */\n      add\n        /* \"#utility.yul\":18736:18742   */\n      dup8\n        /* \"#utility.yul\":18698:18763   */\n      tag_474\n      jump\t// in\n    tag_586:\n        /* \"#utility.yul\":18810:18819   */\n      dup2\n        /* \"#utility.yul\":18804:18808   */\n      dup2\n        /* \"#utility.yul\":18800:18820   */\n      sub\n        /* \"#utility.yul\":18795:18797   */\n      0x20\n        /* \"#utility.yul\":18784:18793   */\n      dup4\n        /* \"#utility.yul\":18780:18798   */\n      add\n        /* \"#utility.yul\":18773:18821   */\n      mstore\n        /* \"#utility.yul\":18838:18916   */\n      tag_587\n        /* \"#utility.yul\":18911:18915   */\n      dup2\n        /* \"#utility.yul\":18902:18908   */\n      dup7\n        /* \"#utility.yul\":18838:18916   */\n      tag_486\n      jump\t// in\n    tag_587:\n        /* \"#utility.yul\":18830:18916   */\n      swap1\n      pop\n        /* \"#utility.yul\":18926:18998   */\n      tag_588\n        /* \"#utility.yul\":18994:18996   */\n      0x40\n        /* \"#utility.yul\":18983:18992   */\n      dup4\n        /* \"#utility.yul\":18979:18997   */\n      add\n        /* \"#utility.yul\":18970:18976   */\n      dup6\n        /* \"#utility.yul\":18926:18998   */\n      tag_565\n      jump\t// in\n    tag_588:\n        /* \"#utility.yul\":19045:19054   */\n      dup2\n        /* \"#utility.yul\":19039:19043   */\n      dup2\n        /* \"#utility.yul\":19035:19055   */\n      sub\n        /* \"#utility.yul\":19030:19032   */\n      0x60\n        /* \"#utility.yul\":19019:19028   */\n      dup4\n        /* \"#utility.yul\":19015:19033   */\n      add\n        /* \"#utility.yul\":19008:19056   */\n      mstore\n        /* \"#utility.yul\":19073:19221   */\n      tag_589\n        /* \"#utility.yul\":19216:19220   */\n      dup2\n        /* \"#utility.yul\":19207:19213   */\n      dup5\n        /* \"#utility.yul\":19073:19221   */\n      tag_456\n      jump\t// in\n    tag_589:\n        /* \"#utility.yul\":19065:19221   */\n      swap1\n      pop\n        /* \"#utility.yul\":18365:19228   */\n      swap6\n      swap5\n      pop\n      pop\n      pop\n      pop\n      pop\n      jump\t// out\n        /* \"#utility.yul\":19234:19456   */\n    tag_108:\n        /* \"#utility.yul\":19327:19331   */\n      0x00\n        /* \"#utility.yul\":19365:19367   */\n      0x20\n        /* \"#utility.yul\":19354:19363   */\n      dup3\n        /* \"#utility.yul\":19350:19368   */\n      add\n        /* \"#utility.yul\":19342:19368   */\n      swap1\n      pop\n        /* \"#utility.yul\":19378:19449   */\n      tag_591\n        /* \"#utility.yul\":19446:19447   */\n      0x00\n        /* \"#utility.yul\":19435:19444   */\n      dup4\n        /* \"#utility.yul\":19431:19448   */\n      add\n        /* \"#utility.yul\":19422:19428   */\n      dup5\n        /* \"#utility.yul\":19378:19449   */\n      tag_477\n      jump\t// in\n    tag_591:\n        /* \"#utility.yul\":19234:19456   */\n      swap3\n      swap2\n      pop\n      pop\n      jump\t// out\n        /* \"#utility.yul\":19462:19775   */\n    tag_40:\n        /* \"#utility.yul\":19575:19579   */\n      0x00\n        /* \"#utility.yul\":19613:19615   */\n      0x20\n        /* \"#utility.yul\":19602:19611   */\n      dup3\n        /* \"#utility.yul\":19598:19616   */\n      add\n        /* \"#utility.yul\":19590:19616   */\n      swap1\n      pop\n        /* \"#utility.yul\":19662:19671   */\n      dup2\n        /* \"#utility.yul\":19656:19660   */\n      dup2\n        /* \"#utility.yul\":19652:19672   */\n      sub\n        /* \"#utility.yul\":19648:19649   */\n      0x00\n        /* \"#utility.yul\":19637:19646   */\n      dup4\n        /* \"#utility.yul\":19633:19650   */\n      add\n        /* \"#utility.yul\":19626:19673   */\n      mstore\n        /* \"#utility.yul\":19690:19768   */\n      tag_593\n        /* \"#utility.yul\":19763:19767   */\n      dup2\n        /* \"#utility.yul\":19754:19760   */\n      dup5\n        /* \"#utility.yul\":19690:19768   */\n      tag_486\n      jump\t// in\n    tag_593:\n        /* \"#utility.yul\":19682:19768   */\n      swap1\n      pop\n        /* \"#utility.yul\":19462:19775   */\n      swap3\n      swap2\n      pop\n      pop\n      jump\t// out\n        /* \"#utility.yul\":19781:20295   */\n    tag_121:\n        /* \"#utility.yul\":19942:19946   */\n      0x00\n        /* \"#utility.yul\":19980:19982   */\n      0x40\n        /* \"#utility.yul\":19969:19978   */\n      dup3\n        /* \"#utility.yul\":19965:19983   */\n      add\n        /* \"#utility.yul\":19957:19983   */\n      swap1\n      pop\n        /* \"#utility.yul\":20029:20038   */\n      dup2\n        /* \"#utility.yul\":20023:20027   */\n      dup2\n        /* \"#utility.yul\":20019:20039   */\n      sub\n        /* \"#utility.yul\":20015:20016   */\n      0x00\n        /* \"#utility.yul\":20004:20013   */\n      dup4\n        /* \"#utility.yul\":20000:20017   */\n      add\n        /* \"#utility.yul\":19993:20040   */\n      mstore\n        /* \"#utility.yul\":20057:20135   */\n      tag_595\n        /* \"#utility.yul\":20130:20134   */\n      dup2\n        /* \"#utility.yul\":20121:20127   */\n      dup6\n        /* \"#utility.yul\":20057:20135   */\n      tag_486\n      jump\t// in\n    tag_595:\n        /* \"#utility.yul\":20049:20135   */\n      swap1\n      pop\n        /* \"#utility.yul\":20182:20191   */\n      dup2\n        /* \"#utility.yul\":20176:20180   */\n      dup2\n        /* \"#utility.yul\":20172:20192   */\n      sub\n        /* \"#utility.yul\":20167:20169   */\n      0x20\n        /* \"#utility.yul\":20156:20165   */\n      dup4\n        /* \"#utility.yul\":20152:20170   */\n      add\n        /* \"#utility.yul\":20145:20193   */\n      mstore\n        /* \"#utility.yul\":20210:20288   */\n      tag_596\n        /* \"#utility.yul\":20283:20287   */\n      dup2\n        /* \"#utility.yul\":20274:20280   */\n      dup5\n        /* \"#utility.yul\":20210:20288   */\n      tag_486\n      jump\t// in\n    tag_596:\n        /* \"#utility.yul\":20202:20288   */\n      swap1\n      pop\n        /* \"#utility.yul\":19781:20295   */\n      swap4\n      swap3\n      pop\n      pop\n      pop\n      jump\t// out\n        /* \"#utility.yul\":20301:20720   */\n    tag_205:\n        /* \"#utility.yul\":20467:20471   */\n      0x00\n        /* \"#utility.yul\":20505:20507   */\n      0x20\n        /* \"#utility.yul\":20494:20503   */\n      dup3\n        /* \"#utility.yul\":20490:20508   */\n      add\n        /* \"#utility.yul\":20482:20508   */\n      swap1\n      pop\n        /* \"#utility.yul\":20554:20563   */\n      dup2\n        /* \"#utility.yul\":20548:20552   */\n      dup2\n        /* \"#utility.yul\":20544:20564   */\n      sub\n        /* \"#utility.yul\":20540:20541   */\n      0x00\n        /* \"#utility.yul\":20529:20538   */\n      dup4\n        /* \"#utility.yul\":20525:20542   */\n      add\n        /* \"#utility.yul\":20518:20565   */\n      mstore\n        /* \"#utility.yul\":20582:20713   */\n      tag_598\n        /* \"#utility.yul\":20708:20712   */\n      dup2\n        /* \"#utility.yul\":20582:20713   */\n      tag_501\n      jump\t// in\n    tag_598:\n        /* \"#utility.yul\":20574:20713   */\n      swap1\n      pop\n        /* \"#utility.yul\":20301:20720   */\n      swap2\n      swap1\n      pop\n      jump\t// out\n        /* \"#utility.yul\":20726:21145   */\n    tag_218:\n        /* \"#utility.yul\":20892:20896   */\n      0x00\n        /* \"#utility.yul\":20930:20932   */\n      0x20\n        /* \"#utility.yul\":20919:20928   */\n      dup3\n        /* \"#utility.yul\":20915:20933   */\n      add\n        /* \"#utility.yul\":20907:20933   */\n      swap1\n      pop\n        /* \"#utility.yul\":20979:20988   */\n      dup2\n        /* \"#utility.yul\":20973:20977   */\n      dup2\n        /* \"#utility.yul\":20969:20989   */\n      sub\n        /* \"#utility.yul\":20965:20966   */\n      0x00\n        /* \"#utility.yul\":20954:20963   */\n      dup4\n        /* \"#utility.yul\":20950:20967   */\n      add\n        /* \"#utility.yul\":20943:20990   */\n      mstore\n        /* \"#utility.yul\":21007:21138   */\n      tag_600\n        /* \"#utility.yul\":21133:21137   */\n      dup2\n        /* \"#utility.yul\":21007:21138   */\n      tag_506\n      jump\t// in\n    tag_600:\n        /* \"#utility.yul\":20999:21138   */\n      swap1\n      pop\n        /* \"#utility.yul\":20726:21145   */\n      swap2\n      swap1\n      pop\n      jump\t// out\n        /* \"#utility.yul\":21151:21570   */\n    tag_255:\n        /* \"#utility.yul\":21317:21321   */\n      0x00\n        /* \"#utility.yul\":21355:21357   */\n      0x20\n        /* \"#utility.yul\":21344:21353   */\n      dup3\n        /* \"#utility.yul\":21340:21358   */\n      add\n        /* \"#utility.yul\":21332:21358   */\n      swap1\n      pop\n        /* \"#utility.yul\":21404:21413   */\n      dup2\n        /* \"#utility.yul\":21398:21402   */\n      dup2\n        /* \"#utility.yul\":21394:21414   */\n      sub\n        /* \"#utility.yul\":21390:21391   */\n      0x00\n        /* \"#utility.yul\":21379:21388   */\n      dup4\n        /* \"#utility.yul\":21375:21392   */\n      add\n        /* \"#utility.yul\":21368:21415   */\n      mstore\n        /* \"#utility.yul\":21432:21563   */\n      tag_602\n        /* \"#utility.yul\":21558:21562   */\n      dup2\n        /* \"#utility.yul\":21432:21563   */\n      tag_511\n      jump\t// in\n    tag_602:\n        /* \"#utility.yul\":21424:21563   */\n      swap1\n      pop\n        /* \"#utility.yul\":21151:21570   */\n      swap2\n      swap1\n      pop\n      jump\t// out\n        /* \"#utility.yul\":21576:21995   */\n    tag_155:\n        /* \"#utility.yul\":21742:21746   */\n      0x00\n        /* \"#utility.yul\":21780:21782   */\n      0x20\n        /* \"#utility.yul\":21769:21778   */\n      dup3\n        /* \"#utility.yul\":21765:21783   */\n      add\n        /* \"#utility.yul\":21757:21783   */\n      swap1\n      pop\n        /* \"#utility.yul\":21829:21838   */\n      dup2\n        /* \"#utility.yul\":21823:21827   */\n      dup2\n        /* \"#utility.yul\":21819:21839   */\n      sub\n        /* \"#utility.yul\":21815:21816   */\n      0x00\n        /* \"#utility.yul\":21804:21813   */\n      dup4\n        /* \"#utility.yul\":21800:21817   */\n      add\n        /* \"#utility.yul\":21793:21840   */\n      mstore\n        /* \"#utility.yul\":21857:21988   */\n      tag_604\n        /* \"#utility.yul\":21983:21987   */\n      dup2\n        /* \"#utility.yul\":21857:21988   */\n      tag_516\n      jump\t// in\n    tag_604:\n        /* \"#utility.yul\":21849:21988   */\n      swap1\n      pop\n        /* \"#utility.yul\":21576:21995   */\n      swap2\n      swap1\n      pop\n      jump\t// out\n        /* \"#utility.yul\":22001:22420   */\n    tag_201:\n        /* \"#utility.yul\":22167:22171   */\n      0x00\n        /* \"#utility.yul\":22205:22207   */\n      0x20\n        /* \"#utility.yul\":22194:22203   */\n      dup3\n        /* \"#utility.yul\":22190:22208   */\n      add\n        /* \"#utility.yul\":22182:22208   */\n      swap1\n      pop\n        /* \"#utility.yul\":22254:22263   */\n      dup2\n        /* \"#utility.yul\":22248:22252   */\n      dup2\n        /* \"#utility.yul\":22244:22264   */\n      sub\n        /* \"#utility.yul\":22240:22241   */\n      0x00\n        /* \"#utility.yul\":22229:22238   */\n      dup4\n        /* \"#utility.yul\":22225:22242   */\n      add\n        /* \"#utility.yul\":22218:22265   */\n      mstore\n        /* \"#utility.yul\":22282:22413   */\n      tag_606\n        /* \"#utility.yul\":22408:22412   */\n      dup2\n        /* \"#utility.yul\":22282:22413   */\n      tag_521\n      jump\t// in\n    tag_606:\n        /* \"#utility.yul\":22274:22413   */\n      swap1\n      pop\n        /* \"#utility.yul\":22001:22420   */\n      swap2\n      swap1\n      pop\n      jump\t// out\n        /* \"#utility.yul\":22426:22845   */\n    tag_151:\n        /* \"#utility.yul\":22592:22596   */\n      0x00\n        /* \"#utility.yul\":22630:22632   */\n      0x20\n        /* \"#utility.yul\":22619:22628   */\n      dup3\n        /* \"#utility.yul\":22615:22633   */\n      add\n        /* \"#utility.yul\":22607:22633   */\n      swap1\n      pop\n        /* \"#utility.yul\":22679:22688   */\n      dup2\n        /* \"#utility.yul\":22673:22677   */\n      dup2\n        /* \"#utility.yul\":22669:22689   */\n      sub\n        /* \"#utility.yul\":22665:22666   */\n      0x00\n        /* \"#utility.yul\":22654:22663   */\n      dup4\n        /* \"#utility.yul\":22650:22667   */\n      add\n        /* \"#utility.yul\":22643:22690   */\n      mstore\n        /* \"#utility.yul\":22707:22838   */\n      tag_608\n        /* \"#utility.yul\":22833:22837   */\n      dup2\n        /* \"#utility.yul\":22707:22838   */\n      tag_526\n      jump\t// in\n    tag_608:\n        /* \"#utility.yul\":22699:22838   */\n      swap1\n      pop\n        /* \"#utility.yul\":22426:22845   */\n      swap2\n      swap1\n      pop\n      jump\t// out\n        /* \"#utility.yul\":22851:23270   */\n    tag_209:\n        /* \"#utility.yul\":23017:23021   */\n      0x00\n        /* \"#utility.yul\":23055:23057   */\n      0x20\n        /* \"#utility.yul\":23044:23053   */\n      dup3\n        /* \"#utility.yul\":23040:23058   */\n      add\n        /* \"#utility.yul\":23032:23058   */\n      swap1\n      pop\n        /* \"#utility.yul\":23104:23113   */\n      dup2\n        /* \"#utility.yul\":23098:23102   */\n      dup2\n        /* \"#utility.yul\":23094:23114   */\n      sub\n        /* \"#utility.yul\":23090:23091   */\n      0x00\n        /* \"#utility.yul\":23079:23088   */\n      dup4\n        /* \"#utility.yul\":23075:23092   */\n      add\n        /* \"#utility.yul\":23068:23115   */\n      mstore\n        /* \"#utility.yul\":23132:23263   */\n      tag_610\n        /* \"#utility.yul\":23258:23262   */\n      dup2\n        /* \"#utility.yul\":23132:23263   */\n      tag_531\n      jump\t// in\n    tag_610:\n        /* \"#utility.yul\":23124:23263   */\n      swap1\n      pop\n        /* \"#utility.yul\":22851:23270   */\n      swap2\n      swap1\n      pop\n      jump\t// out\n        /* \"#utility.yul\":23276:23695   */\n    tag_197:\n        /* \"#utility.yul\":23442:23446   */\n      0x00\n        /* \"#utility.yul\":23480:23482   */\n      0x20\n        /* \"#utility.yul\":23469:23478   */\n      dup3\n        /* \"#utility.yul\":23465:23483   */\n      add\n        /* \"#utility.yul\":23457:23483   */\n      swap1\n      pop\n        /* \"#utility.yul\":23529:23538   */\n      dup2\n        /* \"#utility.yul\":23523:23527   */\n      dup2\n        /* \"#utility.yul\":23519:23539   */\n      sub\n        /* \"#utility.yul\":23515:23516   */\n      0x00\n        /* \"#utility.yul\":23504:23513   */\n      dup4\n        /* \"#utility.yul\":23500:23517   */\n      add\n        /* \"#utility.yul\":23493:23540   */\n      mstore\n        /* \"#utility.yul\":23557:23688   */\n      tag_612\n        /* \"#utility.yul\":23683:23687   */\n      dup2\n        /* \"#utility.yul\":23557:23688   */\n      tag_536\n      jump\t// in\n    tag_612:\n        /* \"#utility.yul\":23549:23688   */\n      swap1\n      pop\n        /* \"#utility.yul\":23276:23695   */\n      swap2\n      swap1\n      pop\n      jump\t// out\n        /* \"#utility.yul\":23701:24120   */\n    tag_297:\n        /* \"#utility.yul\":23867:23871   */\n      0x00\n        /* \"#utility.yul\":23905:23907   */\n      0x20\n        /* \"#utility.yul\":23894:23903   */\n      dup3\n        /* \"#utility.yul\":23890:23908   */\n      add\n        /* \"#utility.yul\":23882:23908   */\n      swap1\n      pop\n        /* \"#utility.yul\":23954:23963   */\n      dup2\n        /* \"#utility.yul\":23948:23952   */\n      dup2\n        /* \"#utility.yul\":23944:23964   */\n      sub\n        /* \"#utility.yul\":23940:23941   */\n      0x00\n        /* \"#utility.yul\":23929:23938   */\n      dup4\n        /* \"#utility.yul\":23925:23942   */\n      add\n        /* \"#utility.yul\":23918:23965   */\n      mstore\n        /* \"#utility.yul\":23982:24113   */\n      tag_614\n        /* \"#utility.yul\":24108:24112   */\n      dup2\n        /* \"#utility.yul\":23982:24113   */\n      tag_541\n      jump\t// in\n    tag_614:\n        /* \"#utility.yul\":23974:24113   */\n      swap1\n      pop\n        /* \"#utility.yul\":23701:24120   */\n      swap2\n      swap1\n      pop\n      jump\t// out\n        /* \"#utility.yul\":24126:24545   */\n    tag_186:\n        /* \"#utility.yul\":24292:24296   */\n      0x00\n        /* \"#utility.yul\":24330:24332   */\n      0x20\n        /* \"#utility.yul\":24319:24328   */\n      dup3\n        /* \"#utility.yul\":24315:24333   */\n      add\n        /* \"#utility.yul\":24307:24333   */\n      swap1\n      pop\n        /* \"#utility.yul\":24379:24388   */\n      dup2\n        /* \"#utility.yul\":24373:24377   */\n      dup2\n        /* \"#utility.yul\":24369:24389   */\n      sub\n        /* \"#utility.yul\":24365:24366   */\n      0x00\n        /* \"#utility.yul\":24354:24363   */\n      dup4\n        /* \"#utility.yul\":24350:24367   */\n      add\n        /* \"#utility.yul\":24343:24390   */\n      mstore\n        /* \"#utility.yul\":24407:24538   */\n      tag_616\n        /* \"#utility.yul\":24533:24537   */\n      dup2\n        /* \"#utility.yul\":24407:24538   */\n      tag_546\n      jump\t// in\n    tag_616:\n        /* \"#utility.yul\":24399:24538   */\n      swap1\n      pop\n        /* \"#utility.yul\":24126:24545   */\n      swap2\n      swap1\n      pop\n      jump\t// out\n        /* \"#utility.yul\":24551:24970   */\n    tag_147:\n        /* \"#utility.yul\":24717:24721   */\n      0x00\n        /* \"#utility.yul\":24755:24757   */\n      0x20\n        /* \"#utility.yul\":24744:24753   */\n      dup3\n        /* \"#utility.yul\":24740:24758   */\n      add\n        /* \"#utility.yul\":24732:24758   */\n      swap1\n      pop\n        /* \"#utility.yul\":24804:24813   */\n      dup2\n        /* \"#utility.yul\":24798:24802   */\n      dup2\n        /* \"#utility.yul\":24794:24814   */\n      sub\n        /* \"#utility.yul\":24790:24791   */\n      0x00\n        /* \"#utility.yul\":24779:24788   */\n      dup4\n        /* \"#utility.yul\":24775:24792   */\n      add\n        /* \"#utility.yul\":24768:24815   */\n      mstore\n        /* \"#utility.yul\":24832:24963   */\n      tag_618\n        /* \"#utility.yul\":24958:24962   */\n      dup2\n        /* \"#utility.yul\":24832:24963   */\n      tag_551\n      jump\t// in\n    tag_618:\n        /* \"#utility.yul\":24824:24963   */\n      swap1\n      pop\n        /* \"#utility.yul\":24551:24970   */\n      swap2\n      swap1\n      pop\n      jump\t// out\n        /* \"#utility.yul\":24976:25395   */\n    tag_249:\n        /* \"#utility.yul\":25142:25146   */\n      0x00\n        /* \"#utility.yul\":25180:25182   */\n      0x20\n        /* \"#utility.yul\":25169:25178   */\n      dup3\n        /* \"#utility.yul\":25165:25183   */\n      add\n        /* \"#utility.yul\":25157:25183   */\n      swap1\n      pop\n        /* \"#utility.yul\":25229:25238   */\n      dup2\n        /* \"#utility.yul\":25223:25227   */\n      dup2\n        /* \"#utility.yul\":25219:25239   */\n      sub\n        /* \"#utility.yul\":25215:25216   */\n      0x00\n        /* \"#utility.yul\":25204:25213   */\n      dup4\n        /* \"#utility.yul\":25200:25217   */\n      add\n        /* \"#utility.yul\":25193:25240   */\n      mstore\n        /* \"#utility.yul\":25257:25388   */\n      tag_620\n        /* \"#utility.yul\":25383:25387   */\n      dup2\n        /* \"#utility.yul\":25257:25388   */\n      tag_556\n      jump\t// in\n    tag_620:\n        /* \"#utility.yul\":25249:25388   */\n      swap1\n      pop\n        /* \"#utility.yul\":24976:25395   */\n      swap2\n      swap1\n      pop\n      jump\t// out\n        /* \"#utility.yul\":25401:25623   */\n    tag_74:\n        /* \"#utility.yul\":25494:25498   */\n      0x00\n        /* \"#utility.yul\":25532:25534   */\n      0x20\n        /* \"#utility.yul\":25521:25530   */\n      dup3\n        /* \"#utility.yul\":25517:25535   */\n      add\n        /* \"#utility.yul\":25509:25535   */\n      swap1\n      pop\n        /* \"#utility.yul\":25545:25616   */\n      tag_622\n        /* \"#utility.yul\":25613:25614   */\n      0x00\n        /* \"#utility.yul\":25602:25611   */\n      dup4\n        /* \"#utility.yul\":25598:25615   */\n      add\n        /* \"#utility.yul\":25589:25595   */\n      dup5\n        /* \"#utility.yul\":25545:25616   */\n      tag_565\n      jump\t// in\n    tag_622:\n        /* \"#utility.yul\":25401:25623   */\n      swap3\n      swap2\n      pop\n      pop\n      jump\t// out\n        /* \"#utility.yul\":25629:25758   */\n    tag_343:\n        /* \"#utility.yul\":25663:25669   */\n      0x00\n        /* \"#utility.yul\":25690:25710   */\n      tag_624\n      tag_625\n      jump\t// in\n    tag_624:\n        /* \"#utility.yul\":25680:25710   */\n      swap1\n      pop\n        /* \"#utility.yul\":25719:25752   */\n      tag_626\n        /* \"#utility.yul\":25747:25751   */\n      dup3\n        /* \"#utility.yul\":25739:25745   */\n      dup3\n        /* \"#utility.yul\":25719:25752   */\n      tag_627\n      jump\t// in\n    tag_626:\n        /* \"#utility.yul\":25629:25758   */\n      swap2\n      swap1\n      pop\n      jump\t// out\n        /* \"#utility.yul\":25764:25839   */\n    tag_625:\n        /* \"#utility.yul\":25797:25803   */\n      0x00\n        /* \"#utility.yul\":25830:25832   */\n      0x40\n        /* \"#utility.yul\":25824:25833   */\n      mload\n        /* \"#utility.yul\":25814:25833   */\n      swap1\n      pop\n        /* \"#utility.yul\":25764:25839   */\n      swap1\n      jump\t// out\n        /* \"#utility.yul\":25845:26153   */\n    tag_342:\n        /* \"#utility.yul\":25907:25911   */\n      0x00\n        /* \"#utility.yul\":25997:26015   */\n      0xffffffffffffffff\n        /* \"#utility.yul\":25989:25995   */\n      dup3\n        /* \"#utility.yul\":25986:26016   */\n      gt\n        /* \"#utility.yul\":25983:26039   */\n      iszero\n      tag_630\n      jumpi\n        /* \"#utility.yul\":26019:26037   */\n      tag_631\n      tag_632\n      jump\t// in\n    tag_631:\n        /* \"#utility.yul\":25983:26039   */\n    tag_630:\n        /* \"#utility.yul\":26057:26086   */\n      tag_633\n        /* \"#utility.yul\":26079:26085   */\n      dup3\n        /* \"#utility.yul\":26057:26086   */\n      tag_495\n      jump\t// in\n    tag_633:\n        /* \"#utility.yul\":26049:26086   */\n      swap1\n      pop\n        /* \"#utility.yul\":26141:26145   */\n      0x20\n        /* \"#utility.yul\":26135:26139   */\n      dup2\n        /* \"#utility.yul\":26131:26146   */\n      add\n        /* \"#utility.yul\":26123:26146   */\n      swap1\n      pop\n        /* \"#utility.yul\":25845:26153   */\n      swap2\n      swap1\n      pop\n      jump\t// out\n        /* \"#utility.yul\":26159:26311   */\n    tag_463:\n        /* \"#utility.yul\":26246:26250   */\n      0x00\n        /* \"#utility.yul\":26269:26272   */\n      dup2\n        /* \"#utility.yul\":26261:26272   */\n      swap1\n      pop\n        /* \"#utility.yul\":26299:26303   */\n      0x20\n        /* \"#utility.yul\":26294:26297   */\n      dup3\n        /* \"#utility.yul\":26290:26304   */\n      add\n        /* \"#utility.yul\":26282:26304   */\n      swap1\n      pop\n        /* \"#utility.yul\":26159:26311   */\n      swap2\n      swap1\n      pop\n      jump\t// out\n        /* \"#utility.yul\":26317:26451   */\n    tag_459:\n        /* \"#utility.yul\":26404:26410   */\n      0x00\n        /* \"#utility.yul\":26438:26443   */\n      dup2\n        /* \"#utility.yul\":26432:26444   */\n      mload\n        /* \"#utility.yul\":26422:26444   */\n      swap1\n      pop\n        /* \"#utility.yul\":26317:26451   */\n      swap2\n      swap1\n      pop\n      jump\t// out\n        /* \"#utility.yul\":26457:26556   */\n    tag_489:\n        /* \"#utility.yul\":26509:26515   */\n      0x00\n        /* \"#utility.yul\":26543:26548   */\n      dup2\n        /* \"#utility.yul\":26537:26549   */\n      mload\n        /* \"#utility.yul\":26527:26549   */\n      swap1\n      pop\n        /* \"#utility.yul\":26457:26556   */\n      swap2\n      swap1\n      pop\n      jump\t// out\n        /* \"#utility.yul\":26562:26695   */\n    tag_469:\n        /* \"#utility.yul\":26652:26656   */\n      0x00\n        /* \"#utility.yul\":26684:26688   */\n      0x20\n        /* \"#utility.yul\":26679:26682   */\n      dup3\n        /* \"#utility.yul\":26675:26689   */\n      add\n        /* \"#utility.yul\":26667:26689   */\n      swap1\n      pop\n        /* \"#utility.yul\":26562:26695   */\n      swap2\n      swap1\n      pop\n      jump\t// out\n        /* \"#utility.yul\":26701:26905   */\n    tag_461:\n        /* \"#utility.yul\":26820:26831   */\n      0x00\n        /* \"#utility.yul\":26854:26860   */\n      dup3\n        /* \"#utility.yul\":26849:26852   */\n      dup3\n        /* \"#utility.yul\":26842:26861   */\n      mstore\n        /* \"#utility.yul\":26894:26898   */\n      0x20\n        /* \"#utility.yul\":26889:26892   */\n      dup3\n        /* \"#utility.yul\":26885:26899   */\n      add\n        /* \"#utility.yul\":26870:26899   */\n      swap1\n      pop\n        /* \"#utility.yul\":26701:26905   */\n      swap3\n      swap2\n      pop\n      pop\n      jump\t// out\n        /* \"#utility.yul\":26911:27080   */\n    tag_491:\n        /* \"#utility.yul\":26995:27006   */\n      0x00\n        /* \"#utility.yul\":27029:27035   */\n      dup3\n        /* \"#utility.yul\":27024:27027   */\n      dup3\n        /* \"#utility.yul\":27017:27036   */\n      mstore\n        /* \"#utility.yul\":27069:27073   */\n      0x20\n        /* \"#utility.yul\":27064:27067   */\n      dup3\n        /* \"#utility.yul\":27060:27074   */\n      add\n        /* \"#utility.yul\":27045:27074   */\n      swap1\n      pop\n        /* \"#utility.yul\":26911:27080   */\n      swap3\n      swap2\n      pop\n      pop\n      jump\t// out\n        /* \"#utility.yul\":27086:27234   */\n    tag_484:\n        /* \"#utility.yul\":27188:27199   */\n      0x00\n        /* \"#utility.yul\":27225:27228   */\n      dup2\n        /* \"#utility.yul\":27210:27228   */\n      swap1\n      pop\n        /* \"#utility.yul\":27086:27234   */\n      swap3\n      swap2\n      pop\n      pop\n      jump\t// out\n        /* \"#utility.yul\":27240:27545   */\n    tag_161:\n        /* \"#utility.yul\":27280:27283   */\n      0x00\n        /* \"#utility.yul\":27299:27319   */\n      tag_642\n        /* \"#utility.yul\":27317:27318   */\n      dup3\n        /* \"#utility.yul\":27299:27319   */\n      tag_568\n      jump\t// in\n    tag_642:\n        /* \"#utility.yul\":27294:27319   */\n      swap2\n      pop\n        /* \"#utility.yul\":27333:27353   */\n      tag_643\n        /* \"#utility.yul\":27351:27352   */\n      dup4\n        /* \"#utility.yul\":27333:27353   */\n      tag_568\n      jump\t// in\n    tag_643:\n        /* \"#utility.yul\":27328:27353   */\n      swap3\n      pop\n        /* \"#utility.yul\":27487:27488   */\n      dup3\n        /* \"#utility.yul\":27419:27485   */\n      0xffffffffffffffffffffffffffffffffffffffffffffffffffffffffffffffff\n        /* \"#utility.yul\":27415:27489   */\n      sub\n        /* \"#utility.yul\":27412:27413   */\n      dup3\n        /* \"#utility.yul\":27409:27490   */\n      gt\n        /* \"#utility.yul\":27406:27513   */\n      iszero\n      tag_644\n      jumpi\n        /* \"#utility.yul\":27493:27511   */\n      tag_645\n      tag_646\n      jump\t// in\n    tag_645:\n        /* \"#utility.yul\":27406:27513   */\n    tag_644:\n        /* \"#utility.yul\":27537:27538   */\n      dup3\n        /* \"#utility.yul\":27534:27535   */\n      dup3\n        /* \"#utility.yul\":27530:27539   */\n      add\n        /* \"#utility.yul\":27523:27539   */\n      swap1\n      pop\n        /* \"#utility.yul\":27240:27545   */\n      swap3\n      swap2\n      pop\n      pop\n      jump\t// out\n        /* \"#utility.yul\":27551:27736   */\n    tag_259:\n        /* \"#utility.yul\":27591:27592   */\n      0x00\n        /* \"#utility.yul\":27608:27628   */\n      tag_648\n        /* \"#utility.yul\":27626:27627   */\n      dup3\n        /* \"#utility.yul\":27608:27628   */\n      tag_568\n      jump\t// in\n    tag_648:\n        /* \"#utility.yul\":27603:27628   */\n      swap2\n      pop\n        /* \"#utility.yul\":27642:27662   */\n      tag_649\n        /* \"#utility.yul\":27660:27661   */\n      dup4\n        /* \"#utility.yul\":27642:27662   */\n      tag_568\n      jump\t// in\n    tag_649:\n        /* \"#utility.yul\":27637:27662   */\n      swap3\n      pop\n        /* \"#utility.yul\":27681:27682   */\n      dup3\n        /* \"#utility.yul\":27671:27706   */\n      tag_650\n      jumpi\n        /* \"#utility.yul\":27686:27704   */\n      tag_651\n      tag_652\n      jump\t// in\n    tag_651:\n        /* \"#utility.yul\":27671:27706   */\n    tag_650:\n        /* \"#utility.yul\":27728:27729   */\n      dup3\n        /* \"#utility.yul\":27725:27726   */\n      dup3\n        /* \"#utility.yul\":27721:27730   */\n      div\n        /* \"#utility.yul\":27716:27730   */\n      swap1\n      pop\n        /* \"#utility.yul\":27551:27736   */\n      swap3\n      swap2\n      pop\n      pop\n      jump\t// out\n        /* \"#utility.yul\":27742:28090   */\n    tag_261:\n        /* \"#utility.yul\":27782:27789   */\n      0x00\n        /* \"#utility.yul\":27805:27825   */\n      tag_654\n        /* \"#utility.yul\":27823:27824   */\n      dup3\n        /* \"#utility.yul\":27805:27825   */\n      tag_568\n      jump\t// in\n    tag_654:\n        /* \"#utility.yul\":27800:27825   */\n      swap2\n      pop\n        /* \"#utility.yul\":27839:27859   */\n      tag_655\n        /* \"#utility.yul\":27857:27858   */\n      dup4\n        /* \"#utility.yul\":27839:27859   */\n      tag_568\n      jump\t// in\n    tag_655:\n        /* \"#utility.yul\":27834:27859   */\n      swap3\n      pop\n        /* \"#utility.yul\":28027:28028   */\n      dup2\n        /* \"#utility.yul\":27959:28025   */\n      0xffffffffffffffffffffffffffffffffffffffffffffffffffffffffffffffff\n        /* \"#utility.yul\":27955:28029   */\n      div\n        /* \"#utility.yul\":27952:27953   */\n      dup4\n        /* \"#utility.yul\":27949:28030   */\n      gt\n        /* \"#utility.yul\":27944:27945   */\n      dup3\n        /* \"#utility.yul\":27937:27946   */\n      iszero\n        /* \"#utility.yul\":27930:27947   */\n      iszero\n        /* \"#utility.yul\":27926:28031   */\n      and\n        /* \"#utility.yul\":27923:28054   */\n      iszero\n      tag_656\n      jumpi\n        /* \"#utility.yul\":28034:28052   */\n      tag_657\n      tag_646\n      jump\t// in\n    tag_657:\n        /* \"#utility.yul\":27923:28054   */\n    tag_656:\n        /* \"#utility.yul\":28082:28083   */\n      dup3\n        /* \"#utility.yul\":28079:28080   */\n      dup3\n        /* \"#utility.yul\":28075:28084   */\n      mul\n        /* \"#utility.yul\":28064:28084   */\n      swap1\n      pop\n        /* \"#utility.yul\":27742:28090   */\n      swap3\n      swap2\n      pop\n      pop\n      jump\t// out\n        /* \"#utility.yul\":28096:28192   */\n    tag_452:\n        /* \"#utility.yul\":28133:28140   */\n      0x00\n        /* \"#utility.yul\":28162:28186   */\n      tag_659\n        /* \"#utility.yul\":28180:28185   */\n      dup3\n        /* \"#utility.yul\":28162:28186   */\n      tag_660\n      jump\t// in\n    tag_659:\n        /* \"#utility.yul\":28151:28186   */\n      swap1\n      pop\n        /* \"#utility.yul\":28096:28192   */\n      swap2\n      swap1\n      pop\n      jump\t// out\n        /* \"#utility.yul\":28198:28288   */\n    tag_473:\n        /* \"#utility.yul\":28232:28239   */\n      0x00\n        /* \"#utility.yul\":28275:28280   */\n      dup2\n        /* \"#utility.yul\":28268:28281   */\n      iszero\n        /* \"#utility.yul\":28261:28282   */\n      iszero\n        /* \"#utility.yul\":28250:28282   */\n      swap1\n      pop\n        /* \"#utility.yul\":28198:28288   */\n      swap2\n      swap1\n      pop\n      jump\t// out\n        /* \"#utility.yul\":28294:28371   */\n    tag_480:\n        /* \"#utility.yul\":28331:28338   */\n      0x00\n        /* \"#utility.yul\":28360:28365   */\n      dup2\n        /* \"#utility.yul\":28349:28365   */\n      swap1\n      pop\n        /* \"#utility.yul\":28294:28371   */\n      swap2\n      swap1\n      pop\n      jump\t// out\n        /* \"#utility.yul\":28377:28503   */\n    tag_660:\n        /* \"#utility.yul\":28414:28421   */\n      0x00\n        /* \"#utility.yul\":28454:28496   */\n      0xffffffffffffffffffffffffffffffffffffffff\n        /* \"#utility.yul\":28447:28452   */\n      dup3\n        /* \"#utility.yul\":28443:28497   */\n      and\n        /* \"#utility.yul\":28432:28497   */\n      swap1\n      pop\n        /* \"#utility.yul\":28377:28503   */\n      swap2\n      swap1\n      pop\n      jump\t// out\n        /* \"#utility.yul\":28509:28586   */\n    tag_568:\n        /* \"#utility.yul\":28546:28553   */\n      0x00\n        /* \"#utility.yul\":28575:28580   */\n      dup2\n        /* \"#utility.yul\":28564:28580   */\n      swap1\n      pop\n        /* \"#utility.yul\":28509:28586   */\n      swap2\n      swap1\n      pop\n      jump\t// out\n        /* \"#utility.yul\":28592:28746   */\n    tag_348:\n        /* \"#utility.yul\":28676:28682   */\n      dup3\n        /* \"#utility.yul\":28671:28674   */\n      dup2\n        /* \"#utility.yul\":28666:28669   */\n      dup4\n        /* \"#utility.yul\":28653:28683   */\n      calldatacopy\n        /* \"#utility.yul\":28738:28739   */\n      0x00\n        /* \"#utility.yul\":28729:28735   */\n      dup4\n        /* \"#utility.yul\":28724:28727   */\n      dup4\n        /* \"#utility.yul\":28720:28736   */\n      add\n        /* \"#utility.yul\":28713:28740   */\n      mstore\n        /* \"#utility.yul\":28592:28746   */\n      pop\n      pop\n      pop\n      jump\t// out\n        /* \"#utility.yul\":28752:29059   */\n    tag_493:\n        /* \"#utility.yul\":28820:28821   */\n      0x00\n        /* \"#utility.yul\":28830:28943   */\n    tag_667:\n        /* \"#utility.yul\":28844:28850   */\n      dup4\n        /* \"#utility.yul\":28841:28842   */\n      dup2\n        /* \"#utility.yul\":28838:28851   */\n      lt\n        /* \"#utility.yul\":28830:28943   */\n      iszero\n      tag_669\n      jumpi\n        /* \"#utility.yul\":28929:28930   */\n      dup1\n        /* \"#utility.yul\":28924:28927   */\n      dup3\n        /* \"#utility.yul\":28920:28931   */\n      add\n        /* \"#utility.yul\":28914:28932   */\n      mload\n        /* \"#utility.yul\":28910:28911   */\n      dup2\n        /* \"#utility.yul\":28905:28908   */\n      dup5\n        /* \"#utility.yul\":28901:28912   */\n      add\n        /* \"#utility.yul\":28894:28933   */\n      mstore\n        /* \"#utility.yul\":28866:28868   */\n      0x20\n        /* \"#utility.yul\":28863:28864   */\n      dup2\n        /* \"#utility.yul\":28859:28869   */\n      add\n        /* \"#utility.yul\":28854:28869   */\n      swap1\n      pop\n        /* \"#utility.yul\":28830:28943   */\n      jump(tag_667)\n    tag_669:\n        /* \"#utility.yul\":28961:28967   */\n      dup4\n        /* \"#utility.yul\":28958:28959   */\n      dup2\n        /* \"#utility.yul\":28955:28968   */\n      gt\n        /* \"#utility.yul\":28952:29053   */\n      iszero\n      tag_670\n      jumpi\n        /* \"#utility.yul\":29041:29042   */\n      0x00\n        /* \"#utility.yul\":29032:29038   */\n      dup5\n        /* \"#utility.yul\":29027:29030   */\n      dup5\n        /* \"#utility.yul\":29023:29039   */\n      add\n        /* \"#utility.yul\":29016:29043   */\n      mstore\n        /* \"#utility.yul\":28952:29053   */\n    tag_670:\n        /* \"#utility.yul\":28801:29059   */\n      pop\n        /* \"#utility.yul\":28752:29059   */\n      pop\n      pop\n      pop\n      jump\t// out\n        /* \"#utility.yul\":29065:29385   */\n    tag_137:\n        /* \"#utility.yul\":29109:29115   */\n      0x00\n        /* \"#utility.yul\":29146:29147   */\n      0x02\n        /* \"#utility.yul\":29140:29144   */\n      dup3\n        /* \"#utility.yul\":29136:29148   */\n      div\n        /* \"#utility.yul\":29126:29148   */\n      swap1\n      pop\n        /* \"#utility.yul\":29193:29194   */\n      0x01\n        /* \"#utility.yul\":29187:29191   */\n      dup3\n        /* \"#utility.yul\":29183:29195   */\n      and\n        /* \"#utility.yul\":29214:29232   */\n      dup1\n        /* \"#utility.yul\":29204:29285   */\n      tag_672\n      jumpi\n        /* \"#utility.yul\":29270:29274   */\n      0x7f\n        /* \"#utility.yul\":29262:29268   */\n      dup3\n        /* \"#utility.yul\":29258:29275   */\n      and\n        /* \"#utility.yul\":29248:29275   */\n      swap2\n      pop\n        /* \"#utility.yul\":29204:29285   */\n    tag_672:\n        /* \"#utility.yul\":29332:29334   */\n      0x20\n        /* \"#utility.yul\":29324:29330   */\n      dup3\n        /* \"#utility.yul\":29321:29335   */\n      lt\n        /* \"#utility.yul\":29301:29319   */\n      dup2\n        /* \"#utility.yul\":29298:29336   */\n      eq\n        /* \"#utility.yul\":29295:29379   */\n      iszero\n      tag_673\n      jumpi\n        /* \"#utility.yul\":29351:29369   */\n      tag_674\n      tag_675\n      jump\t// in\n    tag_674:\n        /* \"#utility.yul\":29295:29379   */\n    tag_673:\n        /* \"#utility.yul\":29116:29385   */\n      pop\n        /* \"#utility.yul\":29065:29385   */\n      swap2\n      swap1\n      pop\n      jump\t// out\n        /* \"#utility.yul\":29391:29672   */\n    tag_627:\n        /* \"#utility.yul\":29474:29501   */\n      tag_677\n        /* \"#utility.yul\":29496:29500   */\n      dup3\n        /* \"#utility.yul\":29474:29501   */\n      tag_495\n      jump\t// in\n    tag_677:\n        /* \"#utility.yul\":29466:29472   */\n      dup2\n        /* \"#utility.yul\":29462:29502   */\n      add\n        /* \"#utility.yul\":29604:29610   */\n      dup2\n        /* \"#utility.yul\":29592:29602   */\n      dup2\n        /* \"#utility.yul\":29589:29611   */\n      lt\n        /* \"#utility.yul\":29568:29586   */\n      0xffffffffffffffff\n        /* \"#utility.yul\":29556:29566   */\n      dup3\n        /* \"#utility.yul\":29553:29587   */\n      gt\n        /* \"#utility.yul\":29550:29612   */\n      or\n        /* \"#utility.yul\":29547:29635   */\n      iszero\n      tag_678\n      jumpi\n        /* \"#utility.yul\":29615:29633   */\n      tag_679\n      tag_632\n      jump\t// in\n    tag_679:\n        /* \"#utility.yul\":29547:29635   */\n    tag_678:\n        /* \"#utility.yul\":29655:29665   */\n      dup1\n        /* \"#utility.yul\":29651:29653   */\n      0x40\n        /* \"#utility.yul\":29644:29666   */\n      mstore\n        /* \"#utility.yul\":29434:29672   */\n      pop\n        /* \"#utility.yul\":29391:29672   */\n      pop\n      pop\n      jump\t// out\n        /* \"#utility.yul\":29678:29911   */\n    tag_284:\n        /* \"#utility.yul\":29717:29720   */\n      0x00\n        /* \"#utility.yul\":29740:29764   */\n      tag_681\n        /* \"#utility.yul\":29758:29763   */\n      dup3\n        /* \"#utility.yul\":29740:29764   */\n      tag_568\n      jump\t// in\n    tag_681:\n        /* \"#utility.yul\":29731:29764   */\n      swap2\n      pop\n        /* \"#utility.yul\":29786:29852   */\n      0xffffffffffffffffffffffffffffffffffffffffffffffffffffffffffffffff\n        /* \"#utility.yul\":29779:29784   */\n      dup3\n        /* \"#utility.yul\":29776:29853   */\n      eq\n        /* \"#utility.yul\":29773:29876   */\n      iszero\n      tag_682\n      jumpi\n        /* \"#utility.yul\":29856:29874   */\n      tag_683\n      tag_646\n      jump\t// in\n    tag_683:\n        /* \"#utility.yul\":29773:29876   */\n    tag_682:\n        /* \"#utility.yul\":29903:29904   */\n      0x01\n        /* \"#utility.yul\":29896:29901   */\n      dup3\n        /* \"#utility.yul\":29892:29905   */\n      add\n        /* \"#utility.yul\":29885:29905   */\n      swap1\n      pop\n        /* \"#utility.yul\":29678:29911   */\n      swap2\n      swap1\n      pop\n      jump\t// out\n        /* \"#utility.yul\":29917:30097   */\n    tag_646:\n        /* \"#utility.yul\":29965:30042   */\n      0x4e487b7100000000000000000000000000000000000000000000000000000000\n        /* \"#utility.yul\":29962:29963   */\n      0x00\n        /* \"#utility.yul\":29955:30043   */\n      mstore\n        /* \"#utility.yul\":30062:30066   */\n      0x11\n        /* \"#utility.yul\":30059:30060   */\n      0x04\n        /* \"#utility.yul\":30052:30067   */\n      mstore\n        /* \"#utility.yul\":30086:30090   */\n      0x24\n        /* \"#utility.yul\":30083:30084   */\n      0x00\n        /* \"#utility.yul\":30076:30091   */\n      revert\n        /* \"#utility.yul\":30103:30283   */\n    tag_652:\n        /* \"#utility.yul\":30151:30228   */\n      0x4e487b7100000000000000000000000000000000000000000000000000000000\n        /* \"#utility.yul\":30148:30149   */\n      0x00\n        /* \"#utility.yul\":30141:30229   */\n      mstore\n        /* \"#utility.yul\":30248:30252   */\n      0x12\n        /* \"#utility.yul\":30245:30246   */\n      0x04\n        /* \"#utility.yul\":30238:30253   */\n      mstore\n        /* \"#utility.yul\":30272:30276   */\n      0x24\n        /* \"#utility.yul\":30269:30270   */\n      0x00\n        /* \"#utility.yul\":30262:30277   */\n      revert\n        /* \"#utility.yul\":30289:30469   */\n    tag_675:\n        /* \"#utility.yul\":30337:30414   */\n      0x4e487b7100000000000000000000000000000000000000000000000000000000\n        /* \"#utility.yul\":30334:30335   */\n      0x00\n        /* \"#utility.yul\":30327:30415   */\n      mstore\n        /* \"#utility.yul\":30434:30438   */\n      0x22\n        /* \"#utility.yul\":30431:30432   */\n      0x04\n        /* \"#utility.yul\":30424:30439   */\n      mstore\n        /* \"#utility.yul\":30458:30462   */\n      0x24\n        /* \"#utility.yul\":30455:30456   */\n      0x00\n        /* \"#utility.yul\":30448:30463   */\n      revert\n        /* \"#utility.yul\":30475:30655   */\n    tag_273:\n        /* \"#utility.yul\":30523:30600   */\n      0x4e487b7100000000000000000000000000000000000000000000000000000000\n        /* \"#utility.yul\":30520:30521   */\n      0x00\n        /* \"#utility.yul\":30513:30601   */\n      mstore\n        /* \"#utility.yul\":30620:30624   */\n      0x32\n        /* \"#utility.yul\":30617:30618   */\n      0x04\n        /* \"#utility.yul\":30610:30625   */\n      mstore\n        /* \"#utility.yul\":30644:30648   */\n      0x24\n        /* \"#utility.yul\":30641:30642   */\n      0x00\n        /* \"#utility.yul\":30634:30649   */\n      revert\n        /* \"#utility.yul\":30661:30841   */\n    tag_632:\n        /* \"#utility.yul\":30709:30786   */\n      0x4e487b7100000000000000000000000000000000000000000000000000000000\n        /* \"#utility.yul\":30706:30707   */\n      0x00\n        /* \"#utility.yul\":30699:30787   */\n      mstore\n        /* \"#utility.yul\":30806:30810   */\n      0x41\n        /* \"#utility.yul\":30803:30804   */\n      0x04\n        /* \"#utility.yul\":30796:30811   */\n      mstore\n        /* \"#utility.yul\":30830:30834   */\n      0x24\n        /* \"#utility.yul\":30827:30828   */\n      0x00\n        /* \"#utility.yul\":30820:30835   */\n      revert\n        /* \"#utility.yul\":30847:30964   */\n    tag_364:\n        /* \"#utility.yul\":30956:30957   */\n      0x00\n        /* \"#utility.yul\":30953:30954   */\n      dup1\n        /* \"#utility.yul\":30946:30958   */\n      revert\n        /* \"#utility.yul\":30970:31087   */\n    tag_361:\n        /* \"#utility.yul\":31079:31080   */\n      0x00\n        /* \"#utility.yul\":31076:31077   */\n      dup1\n        /* \"#utility.yul\":31069:31081   */\n      revert\n        /* \"#utility.yul\":31093:31210   */\n    tag_367:\n        /* \"#utility.yul\":31202:31203   */\n      0x00\n        /* \"#utility.yul\":31199:31200   */\n      dup1\n        /* \"#utility.yul\":31192:31204   */\n      revert\n        /* \"#utility.yul\":31216:31333   */\n    tag_346:\n        /* \"#utility.yul\":31325:31326   */\n      0x00\n        /* \"#utility.yul\":31322:31323   */\n      dup1\n        /* \"#utility.yul\":31315:31327   */\n      revert\n        /* \"#utility.yul\":31339:31456   */\n    tag_384:\n        /* \"#utility.yul\":31448:31449   */\n      0x00\n        /* \"#utility.yul\":31445:31446   */\n      dup1\n        /* \"#utility.yul\":31438:31450   */\n      revert\n        /* \"#utility.yul\":31462:31579   */\n    tag_380:\n        /* \"#utility.yul\":31571:31572   */\n      0x00\n        /* \"#utility.yul\":31568:31569   */\n      dup1\n        /* \"#utility.yul\":31561:31573   */\n      revert\n        /* \"#utility.yul\":31585:31687   */\n    tag_495:\n        /* \"#utility.yul\":31626:31632   */\n      0x00\n        /* \"#utility.yul\":31677:31679   */\n      0x1f\n        /* \"#utility.yul\":31673:31680   */\n      not\n        /* \"#utility.yul\":31668:31670   */\n      0x1f\n        /* \"#utility.yul\":31661:31666   */\n      dup4\n        /* \"#utility.yul\":31657:31671   */\n      add\n        /* \"#utility.yul\":31653:31681   */\n      and\n        /* \"#utility.yul\":31643:31681   */\n      swap1\n      pop\n        /* \"#utility.yul\":31585:31687   */\n      swap2\n      swap1\n      pop\n      jump\t// out\n        /* \"#utility.yul\":31693:31874   */\n    tag_505:\n        /* \"#utility.yul\":31833:31866   */\n      0x526563697069656e7420697320616c7265616479207265676973746572656400\n        /* \"#utility.yul\":31829:31830   */\n      0x00\n        /* \"#utility.yul\":31821:31827   */\n      dup3\n        /* \"#utility.yul\":31817:31831   */\n      add\n        /* \"#utility.yul\":31810:31867   */\n      mstore\n        /* \"#utility.yul\":31693:31874   */\n      pop\n      jump\t// out\n        /* \"#utility.yul\":31880:32055   */\n    tag_510:\n        /* \"#utility.yul\":32020:32047   */\n      0x50726f706f73616c20616c726561647920637265617465642100000000000000\n        /* \"#utility.yul\":32016:32017   */\n      0x00\n        /* \"#utility.yul\":32008:32014   */\n      dup3\n        /* \"#utility.yul\":32004:32018   */\n      add\n        /* \"#utility.yul\":31997:32048   */\n      mstore\n        /* \"#utility.yul\":31880:32055   */\n      pop\n      jump\t// out\n        /* \"#utility.yul\":32061:32286   */\n    tag_515:\n        /* \"#utility.yul\":32201:32235   */\n      0x596f75206172656e277420617574686f72697a6520746f20636f6d70696c6520\n        /* \"#utility.yul\":32197:32198   */\n      0x00\n        /* \"#utility.yul\":32189:32195   */\n      dup3\n        /* \"#utility.yul\":32185:32199   */\n      add\n        /* \"#utility.yul\":32178:32236   */\n      mstore\n        /* \"#utility.yul\":32270:32278   */\n      0x42756e646c650000000000000000000000000000000000000000000000000000\n        /* \"#utility.yul\":32265:32267   */\n      0x20\n        /* \"#utility.yul\":32257:32263   */\n      dup3\n        /* \"#utility.yul\":32253:32268   */\n      add\n        /* \"#utility.yul\":32246:32279   */\n      mstore\n        /* \"#utility.yul\":32061:32286   */\n      pop\n      jump\t// out\n        /* \"#utility.yul\":32292:32470   */\n    tag_520:\n        /* \"#utility.yul\":32432:32462   */\n      0x596f7520616c72656164792073656e74206120726573706f6e73652e00000000\n        /* \"#utility.yul\":32428:32429   */\n      0x00\n        /* \"#utility.yul\":32420:32426   */\n      dup3\n        /* \"#utility.yul\":32416:32430   */\n      add\n        /* \"#utility.yul\":32409:32463   */\n      mstore\n        /* \"#utility.yul\":32292:32470   */\n      pop\n      jump\t// out\n        /* \"#utility.yul\":32476:32647   */\n    tag_525:\n        /* \"#utility.yul\":32616:32639   */\n      0x496e69746961746f722063616e277420766f7465210000000000000000000000\n        /* \"#utility.yul\":32612:32613   */\n      0x00\n        /* \"#utility.yul\":32604:32610   */\n      dup3\n        /* \"#utility.yul\":32600:32614   */\n      add\n        /* \"#utility.yul\":32593:32640   */\n      mstore\n        /* \"#utility.yul\":32476:32647   */\n      pop\n      jump\t// out\n        /* \"#utility.yul\":32653:32833   */\n    tag_530:\n        /* \"#utility.yul\":32793:32825   */\n      0x596f7520617265206e6f74207265676973746572656420746f20766f74650000\n        /* \"#utility.yul\":32789:32790   */\n      0x00\n        /* \"#utility.yul\":32781:32787   */\n      dup3\n        /* \"#utility.yul\":32777:32791   */\n      add\n        /* \"#utility.yul\":32770:32826   */\n      mstore\n        /* \"#utility.yul\":32653:32833   */\n      pop\n      jump\t// out\n        /* \"#utility.yul\":32839:33062   */\n    tag_535:\n        /* \"#utility.yul\":32979:33013   */\n      0x50726f706f73616c206861732072656163686564206974732065787069727920\n        /* \"#utility.yul\":32975:32976   */\n      0x00\n        /* \"#utility.yul\":32967:32973   */\n      dup3\n        /* \"#utility.yul\":32963:32977   */\n      add\n        /* \"#utility.yul\":32956:33014   */\n      mstore\n        /* \"#utility.yul\":33048:33054   */\n      0x6461746500000000000000000000000000000000000000000000000000000000\n        /* \"#utility.yul\":33043:33045   */\n      0x20\n        /* \"#utility.yul\":33035:33041   */\n      dup3\n        /* \"#utility.yul\":33031:33046   */\n      add\n        /* \"#utility.yul\":33024:33055   */\n      mstore\n        /* \"#utility.yul\":32839:33062   */\n      pop\n      jump\t// out\n        /* \"#utility.yul\":33068:33295   */\n    tag_540:\n        /* \"#utility.yul\":33208:33242   */\n      0x4f6e6c7920696e69746961746f722063616e2072656769737465722061207265\n        /* \"#utility.yul\":33204:33205   */\n      0x00\n        /* \"#utility.yul\":33196:33202   */\n      dup3\n        /* \"#utility.yul\":33192:33206   */\n      add\n        /* \"#utility.yul\":33185:33243   */\n      mstore\n        /* \"#utility.yul\":33277:33287   */\n      0x63697069656e742e000000000000000000000000000000000000000000000000\n        /* \"#utility.yul\":33272:33274   */\n      0x20\n        /* \"#utility.yul\":33264:33270   */\n      dup3\n        /* \"#utility.yul\":33260:33275   */\n      add\n        /* \"#utility.yul\":33253:33288   */\n      mstore\n        /* \"#utility.yul\":33068:33295   */\n      pop\n      jump\t// out\n        /* \"#utility.yul\":33301:33471   */\n    tag_545:\n        /* \"#utility.yul\":33441:33463   */\n      0x596f75206172656e277420496e69746961746f72000000000000000000000000\n        /* \"#utility.yul\":33437:33438   */\n      0x00\n        /* \"#utility.yul\":33429:33435   */\n      dup3\n        /* \"#utility.yul\":33425:33439   */\n      add\n        /* \"#utility.yul\":33418:33464   */\n      mstore\n        /* \"#utility.yul\":33301:33471   */\n      pop\n      jump\t// out\n        /* \"#utility.yul\":33477:33659   */\n    tag_550:\n        /* \"#utility.yul\":33617:33651   */\n      0x5665726469637420686173206e6f74206265656e207265616368656420796574\n        /* \"#utility.yul\":33613:33614   */\n      0x00\n        /* \"#utility.yul\":33605:33611   */\n      dup3\n        /* \"#utility.yul\":33601:33615   */\n      add\n        /* \"#utility.yul\":33594:33652   */\n      mstore\n        /* \"#utility.yul\":33477:33659   */\n      pop\n      jump\t// out\n        /* \"#utility.yul\":33665:33833   */\n    tag_555:\n        /* \"#utility.yul\":33805:33825   */\n      0x566f74696e672068617320657870697265640000000000000000000000000000\n        /* \"#utility.yul\":33801:33802   */\n      0x00\n        /* \"#utility.yul\":33793:33799   */\n      dup3\n        /* \"#utility.yul\":33789:33803   */\n      add\n        /* \"#utility.yul\":33782:33826   */\n      mstore\n        /* \"#utility.yul\":33665:33833   */\n      pop\n      jump\t// out\n        /* \"#utility.yul\":33839:34063   */\n    tag_560:\n        /* \"#utility.yul\":33979:34013   */\n      0x436f6e73656e7375732068617320616c7265616479206265656e2063616c6375\n        /* \"#utility.yul\":33975:33976   */\n      0x00\n        /* \"#utility.yul\":33967:33973   */\n      dup3\n        /* \"#utility.yul\":33963:33977   */\n      add\n        /* \"#utility.yul\":33956:34014   */\n      mstore\n        /* \"#utility.yul\":34048:34055   */\n      0x6c61746564000000000000000000000000000000000000000000000000000000\n        /* \"#utility.yul\":34043:34045   */\n      0x20\n        /* \"#utility.yul\":34035:34041   */\n      dup3\n        /* \"#utility.yul\":34031:34046   */\n      add\n        /* \"#utility.yul\":34024:34056   */\n      mstore\n        /* \"#utility.yul\":33839:34063   */\n      pop\n      jump\t// out\n        /* \"#utility.yul\":34069:34191   */\n    tag_352:\n        /* \"#utility.yul\":34142:34166   */\n      tag_709\n        /* \"#utility.yul\":34160:34165   */\n      dup2\n        /* \"#utility.yul\":34142:34166   */\n      tag_452\n      jump\t// in\n    tag_709:\n        /* \"#utility.yul\":34135:34140   */\n      dup2\n        /* \"#utility.yul\":34132:34167   */\n      eq\n        /* \"#utility.yul\":34122:34185   */\n      tag_710\n      jumpi\n        /* \"#utility.yul\":34181:34182   */\n      0x00\n        /* \"#utility.yul\":34178:34179   */\n      dup1\n        /* \"#utility.yul\":34171:34183   */\n      revert\n        /* \"#utility.yul\":34122:34185   */\n    tag_710:\n        /* \"#utility.yul\":34069:34191   */\n      pop\n      jump\t// out\n        /* \"#utility.yul\":34197:34319   */\n    tag_356:\n        /* \"#utility.yul\":34270:34294   */\n      tag_712\n        /* \"#utility.yul\":34288:34293   */\n      dup2\n        /* \"#utility.yul\":34270:34294   */\n      tag_480\n      jump\t// in\n    tag_712:\n        /* \"#utility.yul\":34263:34268   */\n      dup2\n        /* \"#utility.yul\":34260:34295   */\n      eq\n        /* \"#utility.yul\":34250:34313   */\n      tag_713\n      jumpi\n        /* \"#utility.yul\":34309:34310   */\n      0x00\n        /* \"#utility.yul\":34306:34307   */\n      dup1\n        /* \"#utility.yul\":34299:34311   */\n      revert\n        /* \"#utility.yul\":34250:34313   */\n    tag_713:\n        /* \"#utility.yul\":34197:34319   */\n      pop\n      jump\t// out\n        /* \"#utility.yul\":34325:34447   */\n    tag_376:\n        /* \"#utility.yul\":34398:34422   */\n      tag_715\n        /* \"#utility.yul\":34416:34421   */\n      dup2\n        /* \"#utility.yul\":34398:34422   */\n      tag_568\n      jump\t// in\n    tag_715:\n        /* \"#utility.yul\":34391:34396   */\n      dup2\n        /* \"#utility.yul\":34388:34423   */\n      eq\n        /* \"#utility.yul\":34378:34441   */\n      tag_716\n      jumpi\n        /* \"#utility.yul\":34437:34438   */\n      0x00\n        /* \"#utility.yul\":34434:34435   */\n      dup1\n        /* \"#utility.yul\":34427:34439   */\n      revert\n        /* \"#utility.yul\":34378:34441   */\n    tag_716:\n        /* \"#utility.yul\":34325:34447   */\n      pop\n      jump\t// out\n\n    auxdata: 0xa2646970667358221220b08bd1916e693691c56a344d2d71072787cfd17e8338aa4bbcc5b122a1d49d9c64736f6c63430008070033\n}\n",
				"bytecode": {
					"linkReferences": {},
					"object": "608060405234801561001057600080fd5b50613b01806100206000396000f3fe608060405234801561001057600080fd5b506004361061014d5760003560e01c8063883a9673116100c3578063bb9a31f31161007c578063bb9a31f31461043b578063c5539b031461046b578063c9bc42ed1461049b578063e5c8d65f146104cc578063ec548680146104fc578063fe2904231461052c5761014d565b8063883a96731461032b5780638a3b0d02146103475780638f6a35b714610377578063931da6b3146103a95780639d6a3125146103d9578063a6acce351461040b5761014d565b806333a0b0ab1161011557806333a0b0ab1461022e57806337f2e190146102605780633d63af0e146102935780634205717d146102af578063538b3cc6146102df5780637aa18f881461030f5761014d565b806306699b011461015257806311c2b4131461018257806317072d6b146101b2578063233d0fa1146101ce57806331189fe2146101fe575b600080fd5b61016c60048036038101906101679190612bd6565b61055c565b604051610179919061310b565b60405180910390f35b61019c60048036038101906101979190612ab5565b6105c0565b6040516101a9919061321d565b60405180910390f35b6101cc60048036038101906101c79190612b5a565b610676565b005b6101e860048036038101906101e39190612ab5565b611010565b6040516101f59190613126565b60405180910390f35b61021860048036038101906102139190612ab5565b611046565b6040516102259190613126565b60405180910390f35b61024860048036038101906102439190612afe565b61107c565b60405161025793929190613141565b60405180910390f35b61027a60048036038101906102759190612a68565b611103565b60405161028a94939291906131af565b60405180910390f35b6102ad60048036038101906102a89190612a08565b61132b565b005b6102c960048036038101906102c49190612ab5565b611783565b6040516102d691906133f6565b60405180910390f35b6102f960048036038101906102f49190612ab5565b6117b1565b60405161030691906133f6565b60405180910390f35b61032960048036038101906103249190612cb5565b6117df565b005b61034560048036038101906103409190612a68565b611bd0565b005b610361600480360381019061035c9190612ab5565b6121e5565b60405161036e919061321d565b60405180910390f35b610391600480360381019061038c9190612bd6565b61229b565b6040516103a093929190613141565b60405180910390f35b6103c360048036038101906103be9190612ab5565b61232e565b6040516103d091906133f6565b60405180910390f35b6103f360048036038101906103ee9190612c32565b61235c565b60405161040293929190613178565b60405180910390f35b61042560048036038101906104209190612ab5565b612539565b6040516104329190613202565b60405180910390f35b61045560048036038101906104509190612ab5565b612567565b60405161046291906133f6565b60405180910390f35b61048560048036038101906104809190612ab5565b612595565b60405161049291906133f6565b60405180910390f35b6104b560048036038101906104b09190612a68565b6125c3565b6040516104c392919061323f565b60405180910390f35b6104e660048036038101906104e19190612ab5565b612729565b6040516104f3919061310b565b60405180910390f35b61051660048036038101906105119190612a68565b612772565b6040516105239190613126565b60405180910390f35b61054660048036038101906105419190612ab5565b6127aa565b604051610553919061321d565b60405180910390f35b600e82805160208101820180518482526020830160208501208183528095505050505050818154811061058e57600080fd5b906000526020600020016000915091509054906101000a900473ffffffffffffffffffffffffffffffffffffffff1681565b60018180516020810182018051848252602083016020850120818352809550505050505060009150905080546105f59061363c565b80601f01602080910402602001604051908101604052809291908181526020018280546106219061363c565b801561066e5780601f106106435761010080835404028352916020019161066e565b820191906000526020600020905b81548152906001019060200180831161065157829003601f168201915b505050505081565b600482826040516106889291906130db565b90815260200160405180910390205442106106d8576040517f08c379a00000000000000000000000000000000000000000000000000000000081526004016106cf906133b6565b60405180910390fd5b600073ffffffffffffffffffffffffffffffffffffffff16600c83836040516107029291906130db565b908152602001604051809103902060003373ffffffffffffffffffffffffffffffffffffffff1673ffffffffffffffffffffffffffffffffffffffff16815260200190815260200160002060000160029054906101000a900473ffffffffffffffffffffffffffffffffffffffff1673ffffffffffffffffffffffffffffffffffffffff1614156107c8576040517f08c379a00000000000000000000000000000000000000000000000000000000081526004016107bf90613316565b60405180910390fd5b600c82826040516107da9291906130db565b908152602001604051809103902060003373ffffffffffffffffffffffffffffffffffffffff1673ffffffffffffffffffffffffffffffffffffffff16815260200190815260200160002060000160009054906101000a900460ff1615610876576040517f08c379a000000000000000000000000000000000000000000000000000000000815260040161086d906132d6565b60405180910390fd5b6040518060400160405280600981526020017f6920617070726f766500000000000000000000000000000000000000000000008152508051906020012083805190602001201415610b8d576001600c83836040516108d59291906130db565b908152602001604051809103902060003373ffffffffffffffffffffffffffffffffffffffff1673ffffffffffffffffffffffffffffffffffffffff16815260200190815260200160002060000160006101000a81548160ff0219169083151502179055506001600c838360405161094e9291906130db565b908152602001604051809103902060003373ffffffffffffffffffffffffffffffffffffffff1673ffffffffffffffffffffffffffffffffffffffff16815260200190815260200160002060000160016101000a81548160ff0219169083151502179055506001600683836040516109c79291906130db565b908152602001604051809103902060008282546109e491906134c7565b925050819055506001600283836040516109ff9291906130db565b90815260200160405180910390206000828254610a1c91906134c7565b92505081905550600d8282604051610a359291906130db565b9081526020016040518091039020600c8383604051610a559291906130db565b908152602001604051809103902060003373ffffffffffffffffffffffffffffffffffffffff1673ffffffffffffffffffffffffffffffffffffffff168152602001908152602001600020908060018154018082558091505060019003906000526020600020016000909190919091506000820160009054906101000a900460ff168160000160006101000a81548160ff0219169083151502179055506000820160019054906101000a900460ff168160000160016101000a81548160ff0219169083151502179055506000820160029054906101000a900473ffffffffffffffffffffffffffffffffffffffff168160000160026101000a81548173ffffffffffffffffffffffffffffffffffffffff021916908373ffffffffffffffffffffffffffffffffffffffff160217905550505061100b565b6040518060400160405280600c81526020017f6920646973617070726f766500000000000000000000000000000000000000008152508051906020012083805190602001201415610df3576001600c8383604051610bec9291906130db565b908152602001604051809103902060003373ffffffffffffffffffffffffffffffffffffffff1673ffffffffffffffffffffffffffffffffffffffff16815260200190815260200160002060000160006101000a81548160ff021916908315150217905550600160028383604051610c659291906130db565b90815260200160405180910390206000828254610c8291906134c7565b92505081905550600d8282604051610c9b9291906130db565b9081526020016040518091039020600c8383604051610cbb9291906130db565b908152602001604051809103902060003373ffffffffffffffffffffffffffffffffffffffff1673ffffffffffffffffffffffffffffffffffffffff168152602001908152602001600020908060018154018082558091505060019003906000526020600020016000909190919091506000820160009054906101000a900460ff168160000160006101000a81548160ff0219169083151502179055506000820160019054906101000a900460ff168160000160016101000a81548160ff0219169083151502179055506000820160029054906101000a900473ffffffffffffffffffffffffffffffffffffffff168160000160026101000a81548173ffffffffffffffffffffffffffffffffffffffff021916908373ffffffffffffffffffffffffffffffffffffffff160217905550505061100a565b6001600c8383604051610e079291906130db565b908152602001604051809103902060003373ffffffffffffffffffffffffffffffffffffffff1673ffffffffffffffffffffffffffffffffffffffff16815260200190815260200160002060000160006101000a81548160ff021916908315150217905550600160028383604051610e809291906130db565b90815260200160405180910390206000828254610e9d91906134c7565b92505081905550600d8282604051610eb69291906130db565b9081526020016040518091039020600c8383604051610ed69291906130db565b908152602001604051809103902060003373ffffffffffffffffffffffffffffffffffffffff1673ffffffffffffffffffffffffffffffffffffffff168152602001908152602001600020908060018154018082558091505060019003906000526020600020016000909190919091506000820160009054906101000a900460ff168160000160006101000a81548160ff0219169083151502179055506000820160019054906101000a900460ff168160000160016101000a81548160ff0219169083151502179055506000820160029054906101000a900473ffffffffffffffffffffffffffffffffffffffff168160000160026101000a81548173ffffffffffffffffffffffffffffffffffffffff021916908373ffffffffffffffffffffffffffffffffffffffff16021790555050505b5b505050565b6009818051602081018201805184825260208301602085012081835280955050505050506000915054906101000a900460ff1681565b600a818051602081018201805184825260208301602085012081835280955050505050506000915054906101000a900460ff1681565b600c82805160208101820180518482526020830160208501208183528095505050505050602052806000526040600020600091509150508060000160009054906101000a900460ff16908060000160019054906101000a900460ff16908060000160029054906101000a900473ffffffffffffffffffffffffffffffffffffffff16905083565b60006060600060606004868660405161111d9291906130db565b90815260200160405180910390205442101561116e576040517f08c379a000000000000000000000000000000000000000000000000000000000815260040161116590613396565b60405180910390fd5b6000600d87876040516111829291906130db565b9081526020016040518091039020805480602002602001604051908101604052809291908181526020016000905b8282101561126a578382906000526020600020016040518060600160405290816000820160009054906101000a900460ff161515151581526020016000820160019054906101000a900460ff161515151581526020016000820160029054906101000a900473ffffffffffffffffffffffffffffffffffffffff1673ffffffffffffffffffffffffffffffffffffffff1673ffffffffffffffffffffffffffffffffffffffff1681525050815260200190600101906111b0565b5050505090506000600988886040516112849291906130db565b908152602001604051809103902060009054906101000a900460ff1690506000600289896040516112b69291906130db565b9081526020016040518091039020549050818989838683838080601f016020809104026020016040519081016040528093929190818152602001838380828437600081840152601f19601f82011690508083019250505050505050925090919250965096509650965050505092959194509250565b6000828260405161133d9291906130db565b908152602001604051809103902060009054906101000a900473ffffffffffffffffffffffffffffffffffffffff1673ffffffffffffffffffffffffffffffffffffffff163373ffffffffffffffffffffffffffffffffffffffff16146113d9576040517f08c379a00000000000000000000000000000000000000000000000000000000081526004016113d090613356565b60405180910390fd5b600082826040516113eb9291906130db565b908152602001604051809103902060009054906101000a900473ffffffffffffffffffffffffffffffffffffffff1673ffffffffffffffffffffffffffffffffffffffff168373ffffffffffffffffffffffffffffffffffffffff161415611488576040517f08c379a000000000000000000000000000000000000000000000000000000000815260040161147f906132f6565b60405180910390fd5b600073ffffffffffffffffffffffffffffffffffffffff16600c83836040516114b29291906130db565b908152602001604051809103902060008573ffffffffffffffffffffffffffffffffffffffff1673ffffffffffffffffffffffffffffffffffffffff16815260200190815260200160002060000160029054906101000a900473ffffffffffffffffffffffffffffffffffffffff1673ffffffffffffffffffffffffffffffffffffffff1614611577576040517f08c379a000000000000000000000000000000000000000000000000000000000815260040161156e90613276565b60405180910390fd5b600482826040516115899291906130db565b90815260200160405180910390205442106115d9576040517f08c379a00000000000000000000000000000000000000000000000000000000081526004016115d090613336565b60405180910390fd5b600060405180606001604052806000151581526020016000151581526020018573ffffffffffffffffffffffffffffffffffffffff16815250905080600c84846040516116279291906130db565b908152602001604051809103902060008673ffffffffffffffffffffffffffffffffffffffff1673ffffffffffffffffffffffffffffffffffffffff16815260200190815260200160002060008201518160000160006101000a81548160ff02191690831515021790555060208201518160000160016101000a81548160ff02191690831515021790555060408201518160000160026101000a81548173ffffffffffffffffffffffffffffffffffffffff021916908373ffffffffffffffffffffffffffffffffffffffff160217905550905050600e838360405161170e9291906130db565b9081526020016040518091039020849080600181540180825580915050600190039060005260206000200160009091909190916101000a81548173ffffffffffffffffffffffffffffffffffffffff021916908373ffffffffffffffffffffffffffffffffffffffff16021790555050505050565b6002818051602081018201805184825260208301602085012081835280955050505050506000915090505481565b6004818051602081018201805184825260208301602085012081835280955050505050506000915090505481565b600073ffffffffffffffffffffffffffffffffffffffff1660008760405161180791906130f4565b908152602001604051809103902060009054906101000a900473ffffffffffffffffffffffffffffffffffffffff1673ffffffffffffffffffffffffffffffffffffffff161461188c576040517f08c379a000000000000000000000000000000000000000000000000000000000815260040161188390613296565b60405180910390fd5b600060028760405161189e91906130f4565b90815260200160405180910390208190555084426118bc91906134c7565b6004876040516118cc91906130f4565b908152602001604051809103902081905550856001836040516118ef91906130f4565b90815260200160405180910390209080519060200190611910929190612860565b506000600a8760405161192391906130f4565b908152602001604051809103902060006101000a81548160ff0219169083151502179055508360078760405161195991906130f4565b9081526020016040518091039020819055508360078360405161197c91906130f4565b90815260200160405180910390208190555060006009876040516119a091906130f4565b908152602001604051809103902060006101000a81548160ff021916908315150217905550846003876040516119d691906130f4565b908152602001604051809103902081905550846003836040516119f991906130f4565b90815260200160405180910390208190555082600587604051611a1c91906130f4565b90815260200160405180910390208190555082600583604051611a3f91906130f4565b90815260200160405180910390208190555081600b87604051611a6291906130f4565b90815260200160405180910390209080519060200190611a83929190612860565b5080600887604051611a9591906130f4565b90815260200160405180910390209080519060200190611ab6929190612860565b5080600883604051611ac891906130f4565b90815260200160405180910390209080519060200190611ae9929190612860565b506000600687604051611afc91906130f4565b90815260200160405180910390208190555033600087604051611b1f91906130f4565b908152602001604051809103902060006101000a81548173ffffffffffffffffffffffffffffffffffffffff021916908373ffffffffffffffffffffffffffffffffffffffff16021790555033600083604051611b7c91906130f4565b908152602001604051809103902060006101000a81548173ffffffffffffffffffffffffffffffffffffffff021916908373ffffffffffffffffffffffffffffffffffffffff160217905550505050505050565b60048282604051611be29291906130db565b908152602001604051809103902054421015611c33576040517f08c379a0000000000000000000000000000000000000000000000000000000008152600401611c2a90613396565b60405180910390fd5b60001515600a8383604051611c499291906130db565b908152602001604051809103902060009054906101000a900460ff16151514611ca7576040517f08c379a0000000000000000000000000000000000000000000000000000000008152600401611c9e906133d6565b60405180910390fd5b60008282604051611cb99291906130db565b908152602001604051809103902060009054906101000a900473ffffffffffffffffffffffffffffffffffffffff1673ffffffffffffffffffffffffffffffffffffffff163373ffffffffffffffffffffffffffffffffffffffff161480611dce5750600073ffffffffffffffffffffffffffffffffffffffff16600c8383604051611d469291906130db565b908152602001604051809103902060003373ffffffffffffffffffffffffffffffffffffffff1673ffffffffffffffffffffffffffffffffffffffff16815260200190815260200160002060000160029054906101000a900473ffffffffffffffffffffffffffffffffffffffff1673ffffffffffffffffffffffffffffffffffffffff1614155b611e0d576040517f08c379a0000000000000000000000000000000000000000000000000000000008152600401611e04906132b6565b60405180910390fd5b60006064600e8484604051611e239291906130db565b90815260200160405180910390208054905060068585604051611e479291906130db565b908152602001604051809103902054611e60919061351d565b611e6a919061354e565b905060078383604051611e7e9291906130db565b9081526020016040518091039020548110611ecd57600160098484604051611ea79291906130db565b908152602001604051809103902060006101000a81548160ff0219169083151502179055505b60005b600e8484604051611ee29291906130db565b9081526020016040518091039020805490508110156121a65760001515600c8585604051611f119291906130db565b90815260200160405180910390206000600e8787604051611f339291906130db565b90815260200160405180910390208481548110611f5357611f52613775565b5b9060005260206000200160009054906101000a900473ffffffffffffffffffffffffffffffffffffffff1673ffffffffffffffffffffffffffffffffffffffff1673ffffffffffffffffffffffffffffffffffffffff16815260200190815260200160002060000160009054906101000a900460ff161515141561219357600d8484604051611fe39291906130db565b9081526020016040518091039020600c85856040516120039291906130db565b90815260200160405180910390206000600e87876040516120259291906130db565b9081526020016040518091039020848154811061204557612044613775565b5b9060005260206000200160009054906101000a900473ffffffffffffffffffffffffffffffffffffffff1673ffffffffffffffffffffffffffffffffffffffff1673ffffffffffffffffffffffffffffffffffffffff168152602001908152602001600020908060018154018082558091505060019003906000526020600020016000909190919091506000820160009054906101000a900460ff168160000160006101000a81548160ff0219169083151502179055506000820160019054906101000a900460ff168160000160016101000a81548160ff0219169083151502179055506000820160029054906101000a900473ffffffffffffffffffffffffffffffffffffffff168160000160026101000a81548173ffffffffffffffffffffffffffffffffffffffff021916908373ffffffffffffffffffffffffffffffffffffffff16021790555050505b808061219e9061369f565b915050611ed0565b506001600a84846040516121bb9291906130db565b908152602001604051809103902060006101000a81548160ff021916908315150217905550505050565b600881805160208101820180518482526020830160208501208183528095505050505050600091509050805461221a9061363c565b80601f01602080910402602001604051908101604052809291908181526020018280546122469061363c565b80156122935780601f1061226857610100808354040283529160200191612293565b820191906000526020600020905b81548152906001019060200180831161227657829003601f168201915b505050505081565b600d8280516020810182018051848252602083016020850120818352809550505050505081815481106122cd57600080fd5b90600052602060002001600091509150508060000160009054906101000a900460ff16908060000160019054906101000a900460ff16908060000160029054906101000a900473ffffffffffffffffffffffffffffffffffffffff16905083565b6006818051602081018201805184825260208301602085012081835280955050505050506000915090505481565b6000806000808760405161237091906130f4565b908152602001604051809103902060009054906101000a900473ffffffffffffffffffffffffffffffffffffffff1673ffffffffffffffffffffffffffffffffffffffff163373ffffffffffffffffffffffffffffffffffffffff161461240c576040517f08c379a000000000000000000000000000000000000000000000000000000000815260040161240390613376565b60405180910390fd5b600060019050600060019050600060019050600073ffffffffffffffffffffffffffffffffffffffff1660008b60405161244691906130f4565b908152602001604051809103902060009054906101000a900473ffffffffffffffffffffffffffffffffffffffff1673ffffffffffffffffffffffffffffffffffffffff1614156124a457600180600195509550955050505061252f565b60078a6040516124b491906130f4565b90815260200160405180910390205489146124ce57600092505b60058a6040516124de91906130f4565b90815260200160405180910390205487146124f857600091505b8760038b60405161250991906130f4565b9081526020016040518091039020541461252257600090505b8282829550955095505050505b9450945094915050565b6005818051602081018201805184825260208301602085012081835280955050505050506000915090505481565b6003818051602081018201805184825260208301602085012081835280955050505050506000915090505481565b6007818051602081018201805184825260208301602085012081835280955050505050506000915090505481565b606080600184846040516125d89291906130db565b9081526020016040518091039020600885856040516125f89291906130db565b90815260200160405180910390208180546126129061363c565b80601f016020809104026020016040519081016040528092919081815260200182805461263e9061363c565b801561268b5780601f106126605761010080835404028352916020019161268b565b820191906000526020600020905b81548152906001019060200180831161266e57829003601f168201915b5050505050915080805461269e9061363c565b80601f01602080910402602001604051908101604052809291908181526020018280546126ca9061363c565b80156127175780601f106126ec57610100808354040283529160200191612717565b820191906000526020600020905b8154815290600101906020018083116126fa57829003601f168201915b50505050509050915091509250929050565b6000818051602081018201805184825260208301602085012081835280955050505050506000915054906101000a900473ffffffffffffffffffffffffffffffffffffffff1681565b6000600a83836040516127869291906130db565b908152602001604051809103902060009054906101000a900460ff16905092915050565b600b8180516020810182018051848252602083016020850120818352809550505050505060009150905080546127df9061363c565b80601f016020809104026020016040519081016040528092919081815260200182805461280b9061363c565b80156128585780601f1061282d57610100808354040283529160200191612858565b820191906000526020600020905b81548152906001019060200180831161283b57829003601f168201915b505050505081565b82805461286c9061363c565b90600052602060002090601f01602090048101928261288e57600085556128d5565b82601f106128a757805160ff19168380011785556128d5565b828001600101855582156128d5579182015b828111156128d45782518255916020019190600101906128b9565b5b5090506128e291906128e6565b5090565b5b808211156128ff5760008160009055506001016128e7565b5090565b600061291661291184613436565b613411565b905082815260208101848484011115612932576129316137e2565b5b61293d8482856135fa565b509392505050565b60008135905061295481613a86565b92915050565b60008135905061296981613a9d565b92915050565b60008083601f840112612985576129846137d8565b5b8235905067ffffffffffffffff8111156129a2576129a16137d3565b5b6020830191508360018202830111156129be576129bd6137dd565b5b9250929050565b600082601f8301126129da576129d96137d8565b5b81356129ea848260208601612903565b91505092915050565b600081359050612a0281613ab4565b92915050565b600080600060408486031215612a2157612a206137ec565b5b6000612a2f86828701612945565b935050602084013567ffffffffffffffff811115612a5057612a4f6137e7565b5b612a5c8682870161296f565b92509250509250925092565b60008060208385031215612a7f57612a7e6137ec565b5b600083013567ffffffffffffffff811115612a9d57612a9c6137e7565b5b612aa98582860161296f565b92509250509250929050565b600060208284031215612acb57612aca6137ec565b5b600082013567ffffffffffffffff811115612ae957612ae86137e7565b5b612af5848285016129c5565b91505092915050565b60008060408385031215612b1557612b146137ec565b5b600083013567ffffffffffffffff811115612b3357612b326137e7565b5b612b3f858286016129c5565b9250506020612b5085828601612945565b9150509250929050565b600080600060408486031215612b7357612b726137ec565b5b600084013567ffffffffffffffff811115612b9157612b906137e7565b5b612b9d868287016129c5565b935050602084013567ffffffffffffffff811115612bbe57612bbd6137e7565b5b612bca8682870161296f565b92509250509250925092565b60008060408385031215612bed57612bec6137ec565b5b600083013567ffffffffffffffff811115612c0b57612c0a6137e7565b5b612c17858286016129c5565b9250506020612c28858286016129f3565b9150509250929050565b60008060008060808587031215612c4c57612c4b6137ec565b5b600085013567ffffffffffffffff811115612c6a57612c696137e7565b5b612c76878288016129c5565b9450506020612c87878288016129f3565b9350506040612c98878288016129f3565b9250506060612ca98782880161295a565b91505092959194509250565b60008060008060008060c08789031215612cd257612cd16137ec565b5b600087013567ffffffffffffffff811115612cf057612cef6137e7565b5b612cfc89828a016129c5565b9650506020612d0d89828a016129f3565b9550506040612d1e89828a016129f3565b9450506060612d2f89828a0161295a565b935050608087013567ffffffffffffffff811115612d5057612d4f6137e7565b5b612d5c89828a016129c5565b92505060a087013567ffffffffffffffff811115612d7d57612d7c6137e7565b5b612d8989828a016129c5565b9150509295509295509295565b6000612da2838361308a565b60608301905092915050565b612db7816135a8565b82525050565b612dc6816135a8565b82525050565b6000612dd782613477565b612de1818561349a565b9350612dec83613467565b8060005b83811015612e1d578151612e048882612d96565b9750612e0f8361348d565b925050600181019050612df0565b5085935050505092915050565b612e33816135ba565b82525050565b612e42816135ba565b82525050565b612e51816135c6565b82525050565b6000612e6383856134bc565b9350612e708385846135fa565b82840190509392505050565b6000612e8782613482565b612e9181856134ab565b9350612ea1818560208601613609565b612eaa816137f1565b840191505092915050565b6000612ec082613482565b612eca81856134bc565b9350612eda818560208601613609565b80840191505092915050565b6000612ef3601f836134ab565b9150612efe82613802565b602082019050919050565b6000612f166019836134ab565b9150612f218261382b565b602082019050919050565b6000612f396026836134ab565b9150612f4482613854565b604082019050919050565b6000612f5c601c836134ab565b9150612f67826138a3565b602082019050919050565b6000612f7f6015836134ab565b9150612f8a826138cc565b602082019050919050565b6000612fa2601e836134ab565b9150612fad826138f5565b602082019050919050565b6000612fc56024836134ab565b9150612fd08261391e565b604082019050919050565b6000612fe86028836134ab565b9150612ff38261396d565b604082019050919050565b600061300b6014836134ab565b9150613016826139bc565b602082019050919050565b600061302e6020836134ab565b9150613039826139e5565b602082019050919050565b60006130516012836134ab565b915061305c82613a0e565b602082019050919050565b60006130746025836134ab565b915061307f82613a37565b604082019050919050565b6060820160008201516130a06000850182612e2a565b5060208201516130b36020850182612e2a565b5060408201516130c66040850182612dae565b50505050565b6130d5816135f0565b82525050565b60006130e8828486612e57565b91508190509392505050565b60006131008284612eb5565b915081905092915050565b60006020820190506131206000830184612dbd565b92915050565b600060208201905061313b6000830184612e39565b92915050565b60006060820190506131566000830186612e39565b6131636020830185612e39565b6131706040830184612dbd565b949350505050565b600060608201905061318d6000830186612e39565b61319a6020830185612e39565b6131a76040830184612e39565b949350505050565b60006080820190506131c46000830187612e39565b81810360208301526131d68186612e7c565b90506131e560408301856130cc565b81810360608301526131f78184612dcc565b905095945050505050565b60006020820190506132176000830184612e48565b92915050565b600060208201905081810360008301526132378184612e7c565b905092915050565b600060408201905081810360008301526132598185612e7c565b9050818103602083015261326d8184612e7c565b90509392505050565b6000602082019050818103600083015261328f81612ee6565b9050919050565b600060208201905081810360008301526132af81612f09565b9050919050565b600060208201905081810360008301526132cf81612f2c565b9050919050565b600060208201905081810360008301526132ef81612f4f565b9050919050565b6000602082019050818103600083015261330f81612f72565b9050919050565b6000602082019050818103600083015261332f81612f95565b9050919050565b6000602082019050818103600083015261334f81612fb8565b9050919050565b6000602082019050818103600083015261336f81612fdb565b9050919050565b6000602082019050818103600083015261338f81612ffe565b9050919050565b600060208201905081810360008301526133af81613021565b9050919050565b600060208201905081810360008301526133cf81613044565b9050919050565b600060208201905081810360008301526133ef81613067565b9050919050565b600060208201905061340b60008301846130cc565b92915050565b600061341b61342c565b9050613427828261366e565b919050565b6000604051905090565b600067ffffffffffffffff821115613451576134506137a4565b5b61345a826137f1565b9050602081019050919050565b6000819050602082019050919050565b600081519050919050565b600081519050919050565b6000602082019050919050565b600082825260208201905092915050565b600082825260208201905092915050565b600081905092915050565b60006134d2826135f0565b91506134dd836135f0565b9250827fffffffffffffffffffffffffffffffffffffffffffffffffffffffffffffffff03821115613512576135116136e8565b5b828201905092915050565b6000613528826135f0565b9150613533836135f0565b92508261354357613542613717565b5b828204905092915050565b6000613559826135f0565b9150613564836135f0565b9250817fffffffffffffffffffffffffffffffffffffffffffffffffffffffffffffffff048311821515161561359d5761359c6136e8565b5b828202905092915050565b60006135b3826135d0565b9050919050565b60008115159050919050565b6000819050919050565b600073ffffffffffffffffffffffffffffffffffffffff82169050919050565b6000819050919050565b82818337600083830152505050565b60005b8381101561362757808201518184015260208101905061360c565b83811115613636576000848401525b50505050565b6000600282049050600182168061365457607f821691505b6020821081141561366857613667613746565b5b50919050565b613677826137f1565b810181811067ffffffffffffffff82111715613696576136956137a4565b5b80604052505050565b60006136aa826135f0565b91507fffffffffffffffffffffffffffffffffffffffffffffffffffffffffffffffff8214156136dd576136dc6136e8565b5b600182019050919050565b7f4e487b7100000000000000000000000000000000000000000000000000000000600052601160045260246000fd5b7f4e487b7100000000000000000000000000000000000000000000000000000000600052601260045260246000fd5b7f4e487b7100000000000000000000000000000000000000000000000000000000600052602260045260246000fd5b7f4e487b7100000000000000000000000000000000000000000000000000000000600052603260045260246000fd5b7f4e487b7100000000000000000000000000000000000000000000000000000000600052604160045260246000fd5b600080fd5b600080fd5b600080fd5b600080fd5b600080fd5b600080fd5b6000601f19601f8301169050919050565b7f526563697069656e7420697320616c7265616479207265676973746572656400600082015250565b7f50726f706f73616c20616c726561647920637265617465642100000000000000600082015250565b7f596f75206172656e277420617574686f72697a6520746f20636f6d70696c652060008201527f42756e646c650000000000000000000000000000000000000000000000000000602082015250565b7f596f7520616c72656164792073656e74206120726573706f6e73652e00000000600082015250565b7f496e69746961746f722063616e277420766f7465210000000000000000000000600082015250565b7f596f7520617265206e6f74207265676973746572656420746f20766f74650000600082015250565b7f50726f706f73616c20686173207265616368656420697473206578706972792060008201527f6461746500000000000000000000000000000000000000000000000000000000602082015250565b7f4f6e6c7920696e69746961746f722063616e207265676973746572206120726560008201527f63697069656e742e000000000000000000000000000000000000000000000000602082015250565b7f596f75206172656e277420496e69746961746f72000000000000000000000000600082015250565b7f5665726469637420686173206e6f74206265656e207265616368656420796574600082015250565b7f566f74696e672068617320657870697265640000000000000000000000000000600082015250565b7f436f6e73656e7375732068617320616c7265616479206265656e2063616c637560008201527f6c61746564000000000000000000000000000000000000000000000000000000602082015250565b613a8f816135a8565b8114613a9a57600080fd5b50565b613aa6816135c6565b8114613ab157600080fd5b50565b613abd816135f0565b8114613ac857600080fd5b5056fea2646970667358221220b08bd1916e693691c56a344d2d71072787cfd17e8338aa4bbcc5b122a1d49d9c64736f6c63430008070033",
					"opcodes": "PUSH1 0x80 PUSH1 0x40 MSTORE CALLVALUE DUP1 ISZERO PUSH2 0x10 JUMPI PUSH1 0x0 DUP1 REVERT JUMPDEST POP PUSH2 0x3B01 DUP1 PUSH2 0x20 PUSH1 0x0 CODECOPY PUSH1 0x0 RETURN INVALID PUSH1 0x80 PUSH1 0x40 MSTORE CALLVALUE DUP1 ISZERO PUSH2 0x10 JUMPI PUSH1 0x0 DUP1 REVERT JUMPDEST POP PUSH1 0x4 CALLDATASIZE LT PUSH2 0x14D JUMPI PUSH1 0x0 CALLDATALOAD PUSH1 0xE0 SHR DUP1 PUSH4 0x883A9673 GT PUSH2 0xC3 JUMPI DUP1 PUSH4 0xBB9A31F3 GT PUSH2 0x7C JUMPI DUP1 PUSH4 0xBB9A31F3 EQ PUSH2 0x43B JUMPI DUP1 PUSH4 0xC5539B03 EQ PUSH2 0x46B JUMPI DUP1 PUSH4 0xC9BC42ED EQ PUSH2 0x49B JUMPI DUP1 PUSH4 0xE5C8D65F EQ PUSH2 0x4CC JUMPI DUP1 PUSH4 0xEC548680 EQ PUSH2 0x4FC JUMPI DUP1 PUSH4 0xFE290423 EQ PUSH2 0x52C JUMPI PUSH2 0x14D JUMP JUMPDEST DUP1 PUSH4 0x883A9673 EQ PUSH2 0x32B JUMPI DUP1 PUSH4 0x8A3B0D02 EQ PUSH2 0x347 JUMPI DUP1 PUSH4 0x8F6A35B7 EQ PUSH2 0x377 JUMPI DUP1 PUSH4 0x931DA6B3 EQ PUSH2 0x3A9 JUMPI DUP1 PUSH4 0x9D6A3125 EQ PUSH2 0x3D9 JUMPI DUP1 PUSH4 0xA6ACCE35 EQ PUSH2 0x40B JUMPI PUSH2 0x14D JUMP JUMPDEST DUP1 PUSH4 0x33A0B0AB GT PUSH2 0x115 JUMPI DUP1 PUSH4 0x33A0B0AB EQ PUSH2 0x22E JUMPI DUP1 PUSH4 0x37F2E190 EQ PUSH2 0x260 JUMPI DUP1 PUSH4 0x3D63AF0E EQ PUSH2 0x293 JUMPI DUP1 PUSH4 0x4205717D EQ PUSH2 0x2AF JUMPI DUP1 PUSH4 0x538B3CC6 EQ PUSH2 0x2DF JUMPI DUP1 PUSH4 0x7AA18F88 EQ PUSH2 0x30F JUMPI PUSH2 0x14D JUMP JUMPDEST DUP1 PUSH4 0x6699B01 EQ PUSH2 0x152 JUMPI DUP1 PUSH4 0x11C2B413 EQ PUSH2 0x182 JUMPI DUP1 PUSH4 0x17072D6B EQ PUSH2 0x1B2 JUMPI DUP1 PUSH4 0x233D0FA1 EQ PUSH2 0x1CE JUMPI DUP1 PUSH4 0x31189FE2 EQ PUSH2 0x1FE JUMPI JUMPDEST PUSH1 0x0 DUP1 REVERT JUMPDEST PUSH2 0x16C PUSH1 0x4 DUP1 CALLDATASIZE SUB DUP2 ADD SWAP1 PUSH2 0x167 SWAP2 SWAP1 PUSH2 0x2BD6 JUMP JUMPDEST PUSH2 0x55C JUMP JUMPDEST PUSH1 0x40 MLOAD PUSH2 0x179 SWAP2 SWAP1 PUSH2 0x310B JUMP JUMPDEST PUSH1 0x40 MLOAD DUP1 SWAP2 SUB SWAP1 RETURN JUMPDEST PUSH2 0x19C PUSH1 0x4 DUP1 CALLDATASIZE SUB DUP2 ADD SWAP1 PUSH2 0x197 SWAP2 SWAP1 PUSH2 0x2AB5 JUMP JUMPDEST PUSH2 0x5C0 JUMP JUMPDEST PUSH1 0x40 MLOAD PUSH2 0x1A9 SWAP2 SWAP1 PUSH2 0x321D JUMP JUMPDEST PUSH1 0x40 MLOAD DUP1 SWAP2 SUB SWAP1 RETURN JUMPDEST PUSH2 0x1CC PUSH1 0x4 DUP1 CALLDATASIZE SUB DUP2 ADD SWAP1 PUSH2 0x1C7 SWAP2 SWAP1 PUSH2 0x2B5A JUMP JUMPDEST PUSH2 0x676 JUMP JUMPDEST STOP JUMPDEST PUSH2 0x1E8 PUSH1 0x4 DUP1 CALLDATASIZE SUB DUP2 ADD SWAP1 PUSH2 0x1E3 SWAP2 SWAP1 PUSH2 0x2AB5 JUMP JUMPDEST PUSH2 0x1010 JUMP JUMPDEST PUSH1 0x40 MLOAD PUSH2 0x1F5 SWAP2 SWAP1 PUSH2 0x3126 JUMP JUMPDEST PUSH1 0x40 MLOAD DUP1 SWAP2 SUB SWAP1 RETURN JUMPDEST PUSH2 0x218 PUSH1 0x4 DUP1 CALLDATASIZE SUB DUP2 ADD SWAP1 PUSH2 0x213 SWAP2 SWAP1 PUSH2 0x2AB5 JUMP JUMPDEST PUSH2 0x1046 JUMP JUMPDEST PUSH1 0x40 MLOAD PUSH2 0x225 SWAP2 SWAP1 PUSH2 0x3126 JUMP JUMPDEST PUSH1 0x40 MLOAD DUP1 SWAP2 SUB SWAP1 RETURN JUMPDEST PUSH2 0x248 PUSH1 0x4 DUP1 CALLDATASIZE SUB DUP2 ADD SWAP1 PUSH2 0x243 SWAP2 SWAP1 PUSH2 0x2AFE JUMP JUMPDEST PUSH2 0x107C JUMP JUMPDEST PUSH1 0x40 MLOAD PUSH2 0x257 SWAP4 SWAP3 SWAP2 SWAP1 PUSH2 0x3141 JUMP JUMPDEST PUSH1 0x40 MLOAD DUP1 SWAP2 SUB SWAP1 RETURN JUMPDEST PUSH2 0x27A PUSH1 0x4 DUP1 CALLDATASIZE SUB DUP2 ADD SWAP1 PUSH2 0x275 SWAP2 SWAP1 PUSH2 0x2A68 JUMP JUMPDEST PUSH2 0x1103 JUMP JUMPDEST PUSH1 0x40 MLOAD PUSH2 0x28A SWAP5 SWAP4 SWAP3 SWAP2 SWAP1 PUSH2 0x31AF JUMP JUMPDEST PUSH1 0x40 MLOAD DUP1 SWAP2 SUB SWAP1 RETURN JUMPDEST PUSH2 0x2AD PUSH1 0x4 DUP1 CALLDATASIZE SUB DUP2 ADD SWAP1 PUSH2 0x2A8 SWAP2 SWAP1 PUSH2 0x2A08 JUMP JUMPDEST PUSH2 0x132B JUMP JUMPDEST STOP JUMPDEST PUSH2 0x2C9 PUSH1 0x4 DUP1 CALLDATASIZE SUB DUP2 ADD SWAP1 PUSH2 0x2C4 SWAP2 SWAP1 PUSH2 0x2AB5 JUMP JUMPDEST PUSH2 0x1783 JUMP JUMPDEST PUSH1 0x40 MLOAD PUSH2 0x2D6 SWAP2 SWAP1 PUSH2 0x33F6 JUMP JUMPDEST PUSH1 0x40 MLOAD DUP1 SWAP2 SUB SWAP1 RETURN JUMPDEST PUSH2 0x2F9 PUSH1 0x4 DUP1 CALLDATASIZE SUB DUP2 ADD SWAP1 PUSH2 0x2F4 SWAP2 SWAP1 PUSH2 0x2AB5 JUMP JUMPDEST PUSH2 0x17B1 JUMP JUMPDEST PUSH1 0x40 MLOAD PUSH2 0x306 SWAP2 SWAP1 PUSH2 0x33F6 JUMP JUMPDEST PUSH1 0x40 MLOAD DUP1 SWAP2 SUB SWAP1 RETURN JUMPDEST PUSH2 0x329 PUSH1 0x4 DUP1 CALLDATASIZE SUB DUP2 ADD SWAP1 PUSH2 0x324 SWAP2 SWAP1 PUSH2 0x2CB5 JUMP JUMPDEST PUSH2 0x17DF JUMP JUMPDEST STOP JUMPDEST PUSH2 0x345 PUSH1 0x4 DUP1 CALLDATASIZE SUB DUP2 ADD SWAP1 PUSH2 0x340 SWAP2 SWAP1 PUSH2 0x2A68 JUMP JUMPDEST PUSH2 0x1BD0 JUMP JUMPDEST STOP JUMPDEST PUSH2 0x361 PUSH1 0x4 DUP1 CALLDATASIZE SUB DUP2 ADD SWAP1 PUSH2 0x35C SWAP2 SWAP1 PUSH2 0x2AB5 JUMP JUMPDEST PUSH2 0x21E5 JUMP JUMPDEST PUSH1 0x40 MLOAD PUSH2 0x36E SWAP2 SWAP1 PUSH2 0x321D JUMP JUMPDEST PUSH1 0x40 MLOAD DUP1 SWAP2 SUB SWAP1 RETURN JUMPDEST PUSH2 0x391 PUSH1 0x4 DUP1 CALLDATASIZE SUB DUP2 ADD SWAP1 PUSH2 0x38C SWAP2 SWAP1 PUSH2 0x2BD6 JUMP JUMPDEST PUSH2 0x229B JUMP JUMPDEST PUSH1 0x40 MLOAD PUSH2 0x3A0 SWAP4 SWAP3 SWAP2 SWAP1 PUSH2 0x3141 JUMP JUMPDEST PUSH1 0x40 MLOAD DUP1 SWAP2 SUB SWAP1 RETURN JUMPDEST PUSH2 0x3C3 PUSH1 0x4 DUP1 CALLDATASIZE SUB DUP2 ADD SWAP1 PUSH2 0x3BE SWAP2 SWAP1 PUSH2 0x2AB5 JUMP JUMPDEST PUSH2 0x232E JUMP JUMPDEST PUSH1 0x40 MLOAD PUSH2 0x3D0 SWAP2 SWAP1 PUSH2 0x33F6 JUMP JUMPDEST PUSH1 0x40 MLOAD DUP1 SWAP2 SUB SWAP1 RETURN JUMPDEST PUSH2 0x3F3 PUSH1 0x4 DUP1 CALLDATASIZE SUB DUP2 ADD SWAP1 PUSH2 0x3EE SWAP2 SWAP1 PUSH2 0x2C32 JUMP JUMPDEST PUSH2 0x235C JUMP JUMPDEST PUSH1 0x40 MLOAD PUSH2 0x402 SWAP4 SWAP3 SWAP2 SWAP1 PUSH2 0x3178 JUMP JUMPDEST PUSH1 0x40 MLOAD DUP1 SWAP2 SUB SWAP1 RETURN JUMPDEST PUSH2 0x425 PUSH1 0x4 DUP1 CALLDATASIZE SUB DUP2 ADD SWAP1 PUSH2 0x420 SWAP2 SWAP1 PUSH2 0x2AB5 JUMP JUMPDEST PUSH2 0x2539 JUMP JUMPDEST PUSH1 0x40 MLOAD PUSH2 0x432 SWAP2 SWAP1 PUSH2 0x3202 JUMP JUMPDEST PUSH1 0x40 MLOAD DUP1 SWAP2 SUB SWAP1 RETURN JUMPDEST PUSH2 0x455 PUSH1 0x4 DUP1 CALLDATASIZE SUB DUP2 ADD SWAP1 PUSH2 0x450 SWAP2 SWAP1 PUSH2 0x2AB5 JUMP JUMPDEST PUSH2 0x2567 JUMP JUMPDEST PUSH1 0x40 MLOAD PUSH2 0x462 SWAP2 SWAP1 PUSH2 0x33F6 JUMP JUMPDEST PUSH1 0x40 MLOAD DUP1 SWAP2 SUB SWAP1 RETURN JUMPDEST PUSH2 0x485 PUSH1 0x4 DUP1 CALLDATASIZE SUB DUP2 ADD SWAP1 PUSH2 0x480 SWAP2 SWAP1 PUSH2 0x2AB5 JUMP JUMPDEST PUSH2 0x2595 JUMP JUMPDEST PUSH1 0x40 MLOAD PUSH2 0x492 SWAP2 SWAP1 PUSH2 0x33F6 JUMP JUMPDEST PUSH1 0x40 MLOAD DUP1 SWAP2 SUB SWAP1 RETURN JUMPDEST PUSH2 0x4B5 PUSH1 0x4 DUP1 CALLDATASIZE SUB DUP2 ADD SWAP1 PUSH2 0x4B0 SWAP2 SWAP1 PUSH2 0x2A68 JUMP JUMPDEST PUSH2 0x25C3 JUMP JUMPDEST PUSH1 0x40 MLOAD PUSH2 0x4C3 SWAP3 SWAP2 SWAP1 PUSH2 0x323F JUMP JUMPDEST PUSH1 0x40 MLOAD DUP1 SWAP2 SUB SWAP1 RETURN JUMPDEST PUSH2 0x4E6 PUSH1 0x4 DUP1 CALLDATASIZE SUB DUP2 ADD SWAP1 PUSH2 0x4E1 SWAP2 SWAP1 PUSH2 0x2AB5 JUMP JUMPDEST PUSH2 0x2729 JUMP JUMPDEST PUSH1 0x40 MLOAD PUSH2 0x4F3 SWAP2 SWAP1 PUSH2 0x310B JUMP JUMPDEST PUSH1 0x40 MLOAD DUP1 SWAP2 SUB SWAP1 RETURN JUMPDEST PUSH2 0x516 PUSH1 0x4 DUP1 CALLDATASIZE SUB DUP2 ADD SWAP1 PUSH2 0x511 SWAP2 SWAP1 PUSH2 0x2A68 JUMP JUMPDEST PUSH2 0x2772 JUMP JUMPDEST PUSH1 0x40 MLOAD PUSH2 0x523 SWAP2 SWAP1 PUSH2 0x3126 JUMP JUMPDEST PUSH1 0x40 MLOAD DUP1 SWAP2 SUB SWAP1 RETURN JUMPDEST PUSH2 0x546 PUSH1 0x4 DUP1 CALLDATASIZE SUB DUP2 ADD SWAP1 PUSH2 0x541 SWAP2 SWAP1 PUSH2 0x2AB5 JUMP JUMPDEST PUSH2 0x27AA JUMP JUMPDEST PUSH1 0x40 MLOAD PUSH2 0x553 SWAP2 SWAP1 PUSH2 0x321D JUMP JUMPDEST PUSH1 0x40 MLOAD DUP1 SWAP2 SUB SWAP1 RETURN JUMPDEST PUSH1 0xE DUP3 DUP1 MLOAD PUSH1 0x20 DUP2 ADD DUP3 ADD DUP1 MLOAD DUP5 DUP3 MSTORE PUSH1 0x20 DUP4 ADD PUSH1 0x20 DUP6 ADD KECCAK256 DUP2 DUP4 MSTORE DUP1 SWAP6 POP POP POP POP POP POP DUP2 DUP2 SLOAD DUP2 LT PUSH2 0x58E JUMPI PUSH1 0x0 DUP1 REVERT JUMPDEST SWAP1 PUSH1 0x0 MSTORE PUSH1 0x20 PUSH1 0x0 KECCAK256 ADD PUSH1 0x0 SWAP2 POP SWAP2 POP SWAP1 SLOAD SWAP1 PUSH2 0x100 EXP SWAP1 DIV PUSH20 0xFFFFFFFFFFFFFFFFFFFFFFFFFFFFFFFFFFFFFFFF AND DUP2 JUMP JUMPDEST PUSH1 0x1 DUP2 DUP1 MLOAD PUSH1 0x20 DUP2 ADD DUP3 ADD DUP1 MLOAD DUP5 DUP3 MSTORE PUSH1 0x20 DUP4 ADD PUSH1 0x20 DUP6 ADD KECCAK256 DUP2 DUP4 MSTORE DUP1 SWAP6 POP POP POP POP POP POP PUSH1 0x0 SWAP2 POP SWAP1 POP DUP1 SLOAD PUSH2 0x5F5 SWAP1 PUSH2 0x363C JUMP JUMPDEST DUP1 PUSH1 0x1F ADD PUSH1 0x20 DUP1 SWAP2 DIV MUL PUSH1 0x20 ADD PUSH1 0x40 MLOAD SWAP1 DUP2 ADD PUSH1 0x40 MSTORE DUP1 SWAP3 SWAP2 SWAP1 DUP2 DUP2 MSTORE PUSH1 0x20 ADD DUP3 DUP1 SLOAD PUSH2 0x621 SWAP1 PUSH2 0x363C JUMP JUMPDEST DUP1 ISZERO PUSH2 0x66E JUMPI DUP1 PUSH1 0x1F LT PUSH2 0x643 JUMPI PUSH2 0x100 DUP1 DUP4 SLOAD DIV MUL DUP4 MSTORE SWAP2 PUSH1 0x20 ADD SWAP2 PUSH2 0x66E JUMP JUMPDEST DUP3 ADD SWAP2 SWAP1 PUSH1 0x0 MSTORE PUSH1 0x20 PUSH1 0x0 KECCAK256 SWAP1 JUMPDEST DUP2 SLOAD DUP2 MSTORE SWAP1 PUSH1 0x1 ADD SWAP1 PUSH1 0x20 ADD DUP1 DUP4 GT PUSH2 0x651 JUMPI DUP3 SWAP1 SUB PUSH1 0x1F AND DUP3 ADD SWAP2 JUMPDEST POP POP POP POP POP DUP2 JUMP JUMPDEST PUSH1 0x4 DUP3 DUP3 PUSH1 0x40 MLOAD PUSH2 0x688 SWAP3 SWAP2 SWAP1 PUSH2 0x30DB JUMP JUMPDEST SWAP1 DUP2 MSTORE PUSH1 0x20 ADD PUSH1 0x40 MLOAD DUP1 SWAP2 SUB SWAP1 KECCAK256 SLOAD TIMESTAMP LT PUSH2 0x6D8 JUMPI PUSH1 0x40 MLOAD PUSH32 0x8C379A000000000000000000000000000000000000000000000000000000000 DUP2 MSTORE PUSH1 0x4 ADD PUSH2 0x6CF SWAP1 PUSH2 0x33B6 JUMP JUMPDEST PUSH1 0x40 MLOAD DUP1 SWAP2 SUB SWAP1 REVERT JUMPDEST PUSH1 0x0 PUSH20 0xFFFFFFFFFFFFFFFFFFFFFFFFFFFFFFFFFFFFFFFF AND PUSH1 0xC DUP4 DUP4 PUSH1 0x40 MLOAD PUSH2 0x702 SWAP3 SWAP2 SWAP1 PUSH2 0x30DB JUMP JUMPDEST SWAP1 DUP2 MSTORE PUSH1 0x20 ADD PUSH1 0x40 MLOAD DUP1 SWAP2 SUB SWAP1 KECCAK256 PUSH1 0x0 CALLER PUSH20 0xFFFFFFFFFFFFFFFFFFFFFFFFFFFFFFFFFFFFFFFF AND PUSH20 0xFFFFFFFFFFFFFFFFFFFFFFFFFFFFFFFFFFFFFFFF AND DUP2 MSTORE PUSH1 0x20 ADD SWAP1 DUP2 MSTORE PUSH1 0x20 ADD PUSH1 0x0 KECCAK256 PUSH1 0x0 ADD PUSH1 0x2 SWAP1 SLOAD SWAP1 PUSH2 0x100 EXP SWAP1 DIV PUSH20 0xFFFFFFFFFFFFFFFFFFFFFFFFFFFFFFFFFFFFFFFF AND PUSH20 0xFFFFFFFFFFFFFFFFFFFFFFFFFFFFFFFFFFFFFFFF AND EQ ISZERO PUSH2 0x7C8 JUMPI PUSH1 0x40 MLOAD PUSH32 0x8C379A000000000000000000000000000000000000000000000000000000000 DUP2 MSTORE PUSH1 0x4 ADD PUSH2 0x7BF SWAP1 PUSH2 0x3316 JUMP JUMPDEST PUSH1 0x40 MLOAD DUP1 SWAP2 SUB SWAP1 REVERT JUMPDEST PUSH1 0xC DUP3 DUP3 PUSH1 0x40 MLOAD PUSH2 0x7DA SWAP3 SWAP2 SWAP1 PUSH2 0x30DB JUMP JUMPDEST SWAP1 DUP2 MSTORE PUSH1 0x20 ADD PUSH1 0x40 MLOAD DUP1 SWAP2 SUB SWAP1 KECCAK256 PUSH1 0x0 CALLER PUSH20 0xFFFFFFFFFFFFFFFFFFFFFFFFFFFFFFFFFFFFFFFF AND PUSH20 0xFFFFFFFFFFFFFFFFFFFFFFFFFFFFFFFFFFFFFFFF AND DUP2 MSTORE PUSH1 0x20 ADD SWAP1 DUP2 MSTORE PUSH1 0x20 ADD PUSH1 0x0 KECCAK256 PUSH1 0x0 ADD PUSH1 0x0 SWAP1 SLOAD SWAP1 PUSH2 0x100 EXP SWAP1 DIV PUSH1 0xFF AND ISZERO PUSH2 0x876 JUMPI PUSH1 0x40 MLOAD PUSH32 0x8C379A000000000000000000000000000000000000000000000000000000000 DUP2 MSTORE PUSH1 0x4 ADD PUSH2 0x86D SWAP1 PUSH2 0x32D6 JUMP JUMPDEST PUSH1 0x40 MLOAD DUP1 SWAP2 SUB SWAP1 REVERT JUMPDEST PUSH1 0x40 MLOAD DUP1 PUSH1 0x40 ADD PUSH1 0x40 MSTORE DUP1 PUSH1 0x9 DUP2 MSTORE PUSH1 0x20 ADD PUSH32 0x6920617070726F76650000000000000000000000000000000000000000000000 DUP2 MSTORE POP DUP1 MLOAD SWAP1 PUSH1 0x20 ADD KECCAK256 DUP4 DUP1 MLOAD SWAP1 PUSH1 0x20 ADD KECCAK256 EQ ISZERO PUSH2 0xB8D JUMPI PUSH1 0x1 PUSH1 0xC DUP4 DUP4 PUSH1 0x40 MLOAD PUSH2 0x8D5 SWAP3 SWAP2 SWAP1 PUSH2 0x30DB JUMP JUMPDEST SWAP1 DUP2 MSTORE PUSH1 0x20 ADD PUSH1 0x40 MLOAD DUP1 SWAP2 SUB SWAP1 KECCAK256 PUSH1 0x0 CALLER PUSH20 0xFFFFFFFFFFFFFFFFFFFFFFFFFFFFFFFFFFFFFFFF AND PUSH20 0xFFFFFFFFFFFFFFFFFFFFFFFFFFFFFFFFFFFFFFFF AND DUP2 MSTORE PUSH1 0x20 ADD SWAP1 DUP2 MSTORE PUSH1 0x20 ADD PUSH1 0x0 KECCAK256 PUSH1 0x0 ADD PUSH1 0x0 PUSH2 0x100 EXP DUP2 SLOAD DUP2 PUSH1 0xFF MUL NOT AND SWAP1 DUP4 ISZERO ISZERO MUL OR SWAP1 SSTORE POP PUSH1 0x1 PUSH1 0xC DUP4 DUP4 PUSH1 0x40 MLOAD PUSH2 0x94E SWAP3 SWAP2 SWAP1 PUSH2 0x30DB JUMP JUMPDEST SWAP1 DUP2 MSTORE PUSH1 0x20 ADD PUSH1 0x40 MLOAD DUP1 SWAP2 SUB SWAP1 KECCAK256 PUSH1 0x0 CALLER PUSH20 0xFFFFFFFFFFFFFFFFFFFFFFFFFFFFFFFFFFFFFFFF AND PUSH20 0xFFFFFFFFFFFFFFFFFFFFFFFFFFFFFFFFFFFFFFFF AND DUP2 MSTORE PUSH1 0x20 ADD SWAP1 DUP2 MSTORE PUSH1 0x20 ADD PUSH1 0x0 KECCAK256 PUSH1 0x0 ADD PUSH1 0x1 PUSH2 0x100 EXP DUP2 SLOAD DUP2 PUSH1 0xFF MUL NOT AND SWAP1 DUP4 ISZERO ISZERO MUL OR SWAP1 SSTORE POP PUSH1 0x1 PUSH1 0x6 DUP4 DUP4 PUSH1 0x40 MLOAD PUSH2 0x9C7 SWAP3 SWAP2 SWAP1 PUSH2 0x30DB JUMP JUMPDEST SWAP1 DUP2 MSTORE PUSH1 0x20 ADD PUSH1 0x40 MLOAD DUP1 SWAP2 SUB SWAP1 KECCAK256 PUSH1 0x0 DUP3 DUP3 SLOAD PUSH2 0x9E4 SWAP2 SWAP1 PUSH2 0x34C7 JUMP JUMPDEST SWAP3 POP POP DUP2 SWAP1 SSTORE POP PUSH1 0x1 PUSH1 0x2 DUP4 DUP4 PUSH1 0x40 MLOAD PUSH2 0x9FF SWAP3 SWAP2 SWAP1 PUSH2 0x30DB JUMP JUMPDEST SWAP1 DUP2 MSTORE PUSH1 0x20 ADD PUSH1 0x40 MLOAD DUP1 SWAP2 SUB SWAP1 KECCAK256 PUSH1 0x0 DUP3 DUP3 SLOAD PUSH2 0xA1C SWAP2 SWAP1 PUSH2 0x34C7 JUMP JUMPDEST SWAP3 POP POP DUP2 SWAP1 SSTORE POP PUSH1 0xD DUP3 DUP3 PUSH1 0x40 MLOAD PUSH2 0xA35 SWAP3 SWAP2 SWAP1 PUSH2 0x30DB JUMP JUMPDEST SWAP1 DUP2 MSTORE PUSH1 0x20 ADD PUSH1 0x40 MLOAD DUP1 SWAP2 SUB SWAP1 KECCAK256 PUSH1 0xC DUP4 DUP4 PUSH1 0x40 MLOAD PUSH2 0xA55 SWAP3 SWAP2 SWAP1 PUSH2 0x30DB JUMP JUMPDEST SWAP1 DUP2 MSTORE PUSH1 0x20 ADD PUSH1 0x40 MLOAD DUP1 SWAP2 SUB SWAP1 KECCAK256 PUSH1 0x0 CALLER PUSH20 0xFFFFFFFFFFFFFFFFFFFFFFFFFFFFFFFFFFFFFFFF AND PUSH20 0xFFFFFFFFFFFFFFFFFFFFFFFFFFFFFFFFFFFFFFFF AND DUP2 MSTORE PUSH1 0x20 ADD SWAP1 DUP2 MSTORE PUSH1 0x20 ADD PUSH1 0x0 KECCAK256 SWAP1 DUP1 PUSH1 0x1 DUP2 SLOAD ADD DUP1 DUP3 SSTORE DUP1 SWAP2 POP POP PUSH1 0x1 SWAP1 SUB SWAP1 PUSH1 0x0 MSTORE PUSH1 0x20 PUSH1 0x0 KECCAK256 ADD PUSH1 0x0 SWAP1 SWAP2 SWAP1 SWAP2 SWAP1 SWAP2 POP PUSH1 0x0 DUP3 ADD PUSH1 0x0 SWAP1 SLOAD SWAP1 PUSH2 0x100 EXP SWAP1 DIV PUSH1 0xFF AND DUP2 PUSH1 0x0 ADD PUSH1 0x0 PUSH2 0x100 EXP DUP2 SLOAD DUP2 PUSH1 0xFF MUL NOT AND SWAP1 DUP4 ISZERO ISZERO MUL OR SWAP1 SSTORE POP PUSH1 0x0 DUP3 ADD PUSH1 0x1 SWAP1 SLOAD SWAP1 PUSH2 0x100 EXP SWAP1 DIV PUSH1 0xFF AND DUP2 PUSH1 0x0 ADD PUSH1 0x1 PUSH2 0x100 EXP DUP2 SLOAD DUP2 PUSH1 0xFF MUL NOT AND SWAP1 DUP4 ISZERO ISZERO MUL OR SWAP1 SSTORE POP PUSH1 0x0 DUP3 ADD PUSH1 0x2 SWAP1 SLOAD SWAP1 PUSH2 0x100 EXP SWAP1 DIV PUSH20 0xFFFFFFFFFFFFFFFFFFFFFFFFFFFFFFFFFFFFFFFF AND DUP2 PUSH1 0x0 ADD PUSH1 0x2 PUSH2 0x100 EXP DUP2 SLOAD DUP2 PUSH20 0xFFFFFFFFFFFFFFFFFFFFFFFFFFFFFFFFFFFFFFFF MUL NOT AND SWAP1 DUP4 PUSH20 0xFFFFFFFFFFFFFFFFFFFFFFFFFFFFFFFFFFFFFFFF AND MUL OR SWAP1 SSTORE POP POP POP PUSH2 0x100B JUMP JUMPDEST PUSH1 0x40 MLOAD DUP1 PUSH1 0x40 ADD PUSH1 0x40 MSTORE DUP1 PUSH1 0xC DUP2 MSTORE PUSH1 0x20 ADD PUSH32 0x6920646973617070726F76650000000000000000000000000000000000000000 DUP2 MSTORE POP DUP1 MLOAD SWAP1 PUSH1 0x20 ADD KECCAK256 DUP4 DUP1 MLOAD SWAP1 PUSH1 0x20 ADD KECCAK256 EQ ISZERO PUSH2 0xDF3 JUMPI PUSH1 0x1 PUSH1 0xC DUP4 DUP4 PUSH1 0x40 MLOAD PUSH2 0xBEC SWAP3 SWAP2 SWAP1 PUSH2 0x30DB JUMP JUMPDEST SWAP1 DUP2 MSTORE PUSH1 0x20 ADD PUSH1 0x40 MLOAD DUP1 SWAP2 SUB SWAP1 KECCAK256 PUSH1 0x0 CALLER PUSH20 0xFFFFFFFFFFFFFFFFFFFFFFFFFFFFFFFFFFFFFFFF AND PUSH20 0xFFFFFFFFFFFFFFFFFFFFFFFFFFFFFFFFFFFFFFFF AND DUP2 MSTORE PUSH1 0x20 ADD SWAP1 DUP2 MSTORE PUSH1 0x20 ADD PUSH1 0x0 KECCAK256 PUSH1 0x0 ADD PUSH1 0x0 PUSH2 0x100 EXP DUP2 SLOAD DUP2 PUSH1 0xFF MUL NOT AND SWAP1 DUP4 ISZERO ISZERO MUL OR SWAP1 SSTORE POP PUSH1 0x1 PUSH1 0x2 DUP4 DUP4 PUSH1 0x40 MLOAD PUSH2 0xC65 SWAP3 SWAP2 SWAP1 PUSH2 0x30DB JUMP JUMPDEST SWAP1 DUP2 MSTORE PUSH1 0x20 ADD PUSH1 0x40 MLOAD DUP1 SWAP2 SUB SWAP1 KECCAK256 PUSH1 0x0 DUP3 DUP3 SLOAD PUSH2 0xC82 SWAP2 SWAP1 PUSH2 0x34C7 JUMP JUMPDEST SWAP3 POP POP DUP2 SWAP1 SSTORE POP PUSH1 0xD DUP3 DUP3 PUSH1 0x40 MLOAD PUSH2 0xC9B SWAP3 SWAP2 SWAP1 PUSH2 0x30DB JUMP JUMPDEST SWAP1 DUP2 MSTORE PUSH1 0x20 ADD PUSH1 0x40 MLOAD DUP1 SWAP2 SUB SWAP1 KECCAK256 PUSH1 0xC DUP4 DUP4 PUSH1 0x40 MLOAD PUSH2 0xCBB SWAP3 SWAP2 SWAP1 PUSH2 0x30DB JUMP JUMPDEST SWAP1 DUP2 MSTORE PUSH1 0x20 ADD PUSH1 0x40 MLOAD DUP1 SWAP2 SUB SWAP1 KECCAK256 PUSH1 0x0 CALLER PUSH20 0xFFFFFFFFFFFFFFFFFFFFFFFFFFFFFFFFFFFFFFFF AND PUSH20 0xFFFFFFFFFFFFFFFFFFFFFFFFFFFFFFFFFFFFFFFF AND DUP2 MSTORE PUSH1 0x20 ADD SWAP1 DUP2 MSTORE PUSH1 0x20 ADD PUSH1 0x0 KECCAK256 SWAP1 DUP1 PUSH1 0x1 DUP2 SLOAD ADD DUP1 DUP3 SSTORE DUP1 SWAP2 POP POP PUSH1 0x1 SWAP1 SUB SWAP1 PUSH1 0x0 MSTORE PUSH1 0x20 PUSH1 0x0 KECCAK256 ADD PUSH1 0x0 SWAP1 SWAP2 SWAP1 SWAP2 SWAP1 SWAP2 POP PUSH1 0x0 DUP3 ADD PUSH1 0x0 SWAP1 SLOAD SWAP1 PUSH2 0x100 EXP SWAP1 DIV PUSH1 0xFF AND DUP2 PUSH1 0x0 ADD PUSH1 0x0 PUSH2 0x100 EXP DUP2 SLOAD DUP2 PUSH1 0xFF MUL NOT AND SWAP1 DUP4 ISZERO ISZERO MUL OR SWAP1 SSTORE POP PUSH1 0x0 DUP3 ADD PUSH1 0x1 SWAP1 SLOAD SWAP1 PUSH2 0x100 EXP SWAP1 DIV PUSH1 0xFF AND DUP2 PUSH1 0x0 ADD PUSH1 0x1 PUSH2 0x100 EXP DUP2 SLOAD DUP2 PUSH1 0xFF MUL NOT AND SWAP1 DUP4 ISZERO ISZERO MUL OR SWAP1 SSTORE POP PUSH1 0x0 DUP3 ADD PUSH1 0x2 SWAP1 SLOAD SWAP1 PUSH2 0x100 EXP SWAP1 DIV PUSH20 0xFFFFFFFFFFFFFFFFFFFFFFFFFFFFFFFFFFFFFFFF AND DUP2 PUSH1 0x0 ADD PUSH1 0x2 PUSH2 0x100 EXP DUP2 SLOAD DUP2 PUSH20 0xFFFFFFFFFFFFFFFFFFFFFFFFFFFFFFFFFFFFFFFF MUL NOT AND SWAP1 DUP4 PUSH20 0xFFFFFFFFFFFFFFFFFFFFFFFFFFFFFFFFFFFFFFFF AND MUL OR SWAP1 SSTORE POP POP POP PUSH2 0x100A JUMP JUMPDEST PUSH1 0x1 PUSH1 0xC DUP4 DUP4 PUSH1 0x40 MLOAD PUSH2 0xE07 SWAP3 SWAP2 SWAP1 PUSH2 0x30DB JUMP JUMPDEST SWAP1 DUP2 MSTORE PUSH1 0x20 ADD PUSH1 0x40 MLOAD DUP1 SWAP2 SUB SWAP1 KECCAK256 PUSH1 0x0 CALLER PUSH20 0xFFFFFFFFFFFFFFFFFFFFFFFFFFFFFFFFFFFFFFFF AND PUSH20 0xFFFFFFFFFFFFFFFFFFFFFFFFFFFFFFFFFFFFFFFF AND DUP2 MSTORE PUSH1 0x20 ADD SWAP1 DUP2 MSTORE PUSH1 0x20 ADD PUSH1 0x0 KECCAK256 PUSH1 0x0 ADD PUSH1 0x0 PUSH2 0x100 EXP DUP2 SLOAD DUP2 PUSH1 0xFF MUL NOT AND SWAP1 DUP4 ISZERO ISZERO MUL OR SWAP1 SSTORE POP PUSH1 0x1 PUSH1 0x2 DUP4 DUP4 PUSH1 0x40 MLOAD PUSH2 0xE80 SWAP3 SWAP2 SWAP1 PUSH2 0x30DB JUMP JUMPDEST SWAP1 DUP2 MSTORE PUSH1 0x20 ADD PUSH1 0x40 MLOAD DUP1 SWAP2 SUB SWAP1 KECCAK256 PUSH1 0x0 DUP3 DUP3 SLOAD PUSH2 0xE9D SWAP2 SWAP1 PUSH2 0x34C7 JUMP JUMPDEST SWAP3 POP POP DUP2 SWAP1 SSTORE POP PUSH1 0xD DUP3 DUP3 PUSH1 0x40 MLOAD PUSH2 0xEB6 SWAP3 SWAP2 SWAP1 PUSH2 0x30DB JUMP JUMPDEST SWAP1 DUP2 MSTORE PUSH1 0x20 ADD PUSH1 0x40 MLOAD DUP1 SWAP2 SUB SWAP1 KECCAK256 PUSH1 0xC DUP4 DUP4 PUSH1 0x40 MLOAD PUSH2 0xED6 SWAP3 SWAP2 SWAP1 PUSH2 0x30DB JUMP JUMPDEST SWAP1 DUP2 MSTORE PUSH1 0x20 ADD PUSH1 0x40 MLOAD DUP1 SWAP2 SUB SWAP1 KECCAK256 PUSH1 0x0 CALLER PUSH20 0xFFFFFFFFFFFFFFFFFFFFFFFFFFFFFFFFFFFFFFFF AND PUSH20 0xFFFFFFFFFFFFFFFFFFFFFFFFFFFFFFFFFFFFFFFF AND DUP2 MSTORE PUSH1 0x20 ADD SWAP1 DUP2 MSTORE PUSH1 0x20 ADD PUSH1 0x0 KECCAK256 SWAP1 DUP1 PUSH1 0x1 DUP2 SLOAD ADD DUP1 DUP3 SSTORE DUP1 SWAP2 POP POP PUSH1 0x1 SWAP1 SUB SWAP1 PUSH1 0x0 MSTORE PUSH1 0x20 PUSH1 0x0 KECCAK256 ADD PUSH1 0x0 SWAP1 SWAP2 SWAP1 SWAP2 SWAP1 SWAP2 POP PUSH1 0x0 DUP3 ADD PUSH1 0x0 SWAP1 SLOAD SWAP1 PUSH2 0x100 EXP SWAP1 DIV PUSH1 0xFF AND DUP2 PUSH1 0x0 ADD PUSH1 0x0 PUSH2 0x100 EXP DUP2 SLOAD DUP2 PUSH1 0xFF MUL NOT AND SWAP1 DUP4 ISZERO ISZERO MUL OR SWAP1 SSTORE POP PUSH1 0x0 DUP3 ADD PUSH1 0x1 SWAP1 SLOAD SWAP1 PUSH2 0x100 EXP SWAP1 DIV PUSH1 0xFF AND DUP2 PUSH1 0x0 ADD PUSH1 0x1 PUSH2 0x100 EXP DUP2 SLOAD DUP2 PUSH1 0xFF MUL NOT AND SWAP1 DUP4 ISZERO ISZERO MUL OR SWAP1 SSTORE POP PUSH1 0x0 DUP3 ADD PUSH1 0x2 SWAP1 SLOAD SWAP1 PUSH2 0x100 EXP SWAP1 DIV PUSH20 0xFFFFFFFFFFFFFFFFFFFFFFFFFFFFFFFFFFFFFFFF AND DUP2 PUSH1 0x0 ADD PUSH1 0x2 PUSH2 0x100 EXP DUP2 SLOAD DUP2 PUSH20 0xFFFFFFFFFFFFFFFFFFFFFFFFFFFFFFFFFFFFFFFF MUL NOT AND SWAP1 DUP4 PUSH20 0xFFFFFFFFFFFFFFFFFFFFFFFFFFFFFFFFFFFFFFFF AND MUL OR SWAP1 SSTORE POP POP POP JUMPDEST JUMPDEST POP POP POP JUMP JUMPDEST PUSH1 0x9 DUP2 DUP1 MLOAD PUSH1 0x20 DUP2 ADD DUP3 ADD DUP1 MLOAD DUP5 DUP3 MSTORE PUSH1 0x20 DUP4 ADD PUSH1 0x20 DUP6 ADD KECCAK256 DUP2 DUP4 MSTORE DUP1 SWAP6 POP POP POP POP POP POP PUSH1 0x0 SWAP2 POP SLOAD SWAP1 PUSH2 0x100 EXP SWAP1 DIV PUSH1 0xFF AND DUP2 JUMP JUMPDEST PUSH1 0xA DUP2 DUP1 MLOAD PUSH1 0x20 DUP2 ADD DUP3 ADD DUP1 MLOAD DUP5 DUP3 MSTORE PUSH1 0x20 DUP4 ADD PUSH1 0x20 DUP6 ADD KECCAK256 DUP2 DUP4 MSTORE DUP1 SWAP6 POP POP POP POP POP POP PUSH1 0x0 SWAP2 POP SLOAD SWAP1 PUSH2 0x100 EXP SWAP1 DIV PUSH1 0xFF AND DUP2 JUMP JUMPDEST PUSH1 0xC DUP3 DUP1 MLOAD PUSH1 0x20 DUP2 ADD DUP3 ADD DUP1 MLOAD DUP5 DUP3 MSTORE PUSH1 0x20 DUP4 ADD PUSH1 0x20 DUP6 ADD KECCAK256 DUP2 DUP4 MSTORE DUP1 SWAP6 POP POP POP POP POP POP PUSH1 0x20 MSTORE DUP1 PUSH1 0x0 MSTORE PUSH1 0x40 PUSH1 0x0 KECCAK256 PUSH1 0x0 SWAP2 POP SWAP2 POP POP DUP1 PUSH1 0x0 ADD PUSH1 0x0 SWAP1 SLOAD SWAP1 PUSH2 0x100 EXP SWAP1 DIV PUSH1 0xFF AND SWAP1 DUP1 PUSH1 0x0 ADD PUSH1 0x1 SWAP1 SLOAD SWAP1 PUSH2 0x100 EXP SWAP1 DIV PUSH1 0xFF AND SWAP1 DUP1 PUSH1 0x0 ADD PUSH1 0x2 SWAP1 SLOAD SWAP1 PUSH2 0x100 EXP SWAP1 DIV PUSH20 0xFFFFFFFFFFFFFFFFFFFFFFFFFFFFFFFFFFFFFFFF AND SWAP1 POP DUP4 JUMP JUMPDEST PUSH1 0x0 PUSH1 0x60 PUSH1 0x0 PUSH1 0x60 PUSH1 0x4 DUP7 DUP7 PUSH1 0x40 MLOAD PUSH2 0x111D SWAP3 SWAP2 SWAP1 PUSH2 0x30DB JUMP JUMPDEST SWAP1 DUP2 MSTORE PUSH1 0x20 ADD PUSH1 0x40 MLOAD DUP1 SWAP2 SUB SWAP1 KECCAK256 SLOAD TIMESTAMP LT ISZERO PUSH2 0x116E JUMPI PUSH1 0x40 MLOAD PUSH32 0x8C379A000000000000000000000000000000000000000000000000000000000 DUP2 MSTORE PUSH1 0x4 ADD PUSH2 0x1165 SWAP1 PUSH2 0x3396 JUMP JUMPDEST PUSH1 0x40 MLOAD DUP1 SWAP2 SUB SWAP1 REVERT JUMPDEST PUSH1 0x0 PUSH1 0xD DUP8 DUP8 PUSH1 0x40 MLOAD PUSH2 0x1182 SWAP3 SWAP2 SWAP1 PUSH2 0x30DB JUMP JUMPDEST SWAP1 DUP2 MSTORE PUSH1 0x20 ADD PUSH1 0x40 MLOAD DUP1 SWAP2 SUB SWAP1 KECCAK256 DUP1 SLOAD DUP1 PUSH1 0x20 MUL PUSH1 0x20 ADD PUSH1 0x40 MLOAD SWAP1 DUP2 ADD PUSH1 0x40 MSTORE DUP1 SWAP3 SWAP2 SWAP1 DUP2 DUP2 MSTORE PUSH1 0x20 ADD PUSH1 0x0 SWAP1 JUMPDEST DUP3 DUP3 LT ISZERO PUSH2 0x126A JUMPI DUP4 DUP3 SWAP1 PUSH1 0x0 MSTORE PUSH1 0x20 PUSH1 0x0 KECCAK256 ADD PUSH1 0x40 MLOAD DUP1 PUSH1 0x60 ADD PUSH1 0x40 MSTORE SWAP1 DUP2 PUSH1 0x0 DUP3 ADD PUSH1 0x0 SWAP1 SLOAD SWAP1 PUSH2 0x100 EXP SWAP1 DIV PUSH1 0xFF AND ISZERO ISZERO ISZERO ISZERO DUP2 MSTORE PUSH1 0x20 ADD PUSH1 0x0 DUP3 ADD PUSH1 0x1 SWAP1 SLOAD SWAP1 PUSH2 0x100 EXP SWAP1 DIV PUSH1 0xFF AND ISZERO ISZERO ISZERO ISZERO DUP2 MSTORE PUSH1 0x20 ADD PUSH1 0x0 DUP3 ADD PUSH1 0x2 SWAP1 SLOAD SWAP1 PUSH2 0x100 EXP SWAP1 DIV PUSH20 0xFFFFFFFFFFFFFFFFFFFFFFFFFFFFFFFFFFFFFFFF AND PUSH20 0xFFFFFFFFFFFFFFFFFFFFFFFFFFFFFFFFFFFFFFFF AND PUSH20 0xFFFFFFFFFFFFFFFFFFFFFFFFFFFFFFFFFFFFFFFF AND DUP2 MSTORE POP POP DUP2 MSTORE PUSH1 0x20 ADD SWAP1 PUSH1 0x1 ADD SWAP1 PUSH2 0x11B0 JUMP JUMPDEST POP POP POP POP SWAP1 POP PUSH1 0x0 PUSH1 0x9 DUP9 DUP9 PUSH1 0x40 MLOAD PUSH2 0x1284 SWAP3 SWAP2 SWAP1 PUSH2 0x30DB JUMP JUMPDEST SWAP1 DUP2 MSTORE PUSH1 0x20 ADD PUSH1 0x40 MLOAD DUP1 SWAP2 SUB SWAP1 KECCAK256 PUSH1 0x0 SWAP1 SLOAD SWAP1 PUSH2 0x100 EXP SWAP1 DIV PUSH1 0xFF AND SWAP1 POP PUSH1 0x0 PUSH1 0x2 DUP10 DUP10 PUSH1 0x40 MLOAD PUSH2 0x12B6 SWAP3 SWAP2 SWAP1 PUSH2 0x30DB JUMP JUMPDEST SWAP1 DUP2 MSTORE PUSH1 0x20 ADD PUSH1 0x40 MLOAD DUP1 SWAP2 SUB SWAP1 KECCAK256 SLOAD SWAP1 POP DUP2 DUP10 DUP10 DUP4 DUP7 DUP4 DUP4 DUP1 DUP1 PUSH1 0x1F ADD PUSH1 0x20 DUP1 SWAP2 DIV MUL PUSH1 0x20 ADD PUSH1 0x40 MLOAD SWAP1 DUP2 ADD PUSH1 0x40 MSTORE DUP1 SWAP4 SWAP3 SWAP2 SWAP1 DUP2 DUP2 MSTORE PUSH1 0x20 ADD DUP4 DUP4 DUP1 DUP3 DUP5 CALLDATACOPY PUSH1 0x0 DUP2 DUP5 ADD MSTORE PUSH1 0x1F NOT PUSH1 0x1F DUP3 ADD AND SWAP1 POP DUP1 DUP4 ADD SWAP3 POP POP POP POP POP POP POP SWAP3 POP SWAP1 SWAP2 SWAP3 POP SWAP7 POP SWAP7 POP SWAP7 POP SWAP7 POP POP POP POP SWAP3 SWAP6 SWAP2 SWAP5 POP SWAP3 POP JUMP JUMPDEST PUSH1 0x0 DUP3 DUP3 PUSH1 0x40 MLOAD PUSH2 0x133D SWAP3 SWAP2 SWAP1 PUSH2 0x30DB JUMP JUMPDEST SWAP1 DUP2 MSTORE PUSH1 0x20 ADD PUSH1 0x40 MLOAD DUP1 SWAP2 SUB SWAP1 KECCAK256 PUSH1 0x0 SWAP1 SLOAD SWAP1 PUSH2 0x100 EXP SWAP1 DIV PUSH20 0xFFFFFFFFFFFFFFFFFFFFFFFFFFFFFFFFFFFFFFFF AND PUSH20 0xFFFFFFFFFFFFFFFFFFFFFFFFFFFFFFFFFFFFFFFF AND CALLER PUSH20 0xFFFFFFFFFFFFFFFFFFFFFFFFFFFFFFFFFFFFFFFF AND EQ PUSH2 0x13D9 JUMPI PUSH1 0x40 MLOAD PUSH32 0x8C379A000000000000000000000000000000000000000000000000000000000 DUP2 MSTORE PUSH1 0x4 ADD PUSH2 0x13D0 SWAP1 PUSH2 0x3356 JUMP JUMPDEST PUSH1 0x40 MLOAD DUP1 SWAP2 SUB SWAP1 REVERT JUMPDEST PUSH1 0x0 DUP3 DUP3 PUSH1 0x40 MLOAD PUSH2 0x13EB SWAP3 SWAP2 SWAP1 PUSH2 0x30DB JUMP JUMPDEST SWAP1 DUP2 MSTORE PUSH1 0x20 ADD PUSH1 0x40 MLOAD DUP1 SWAP2 SUB SWAP1 KECCAK256 PUSH1 0x0 SWAP1 SLOAD SWAP1 PUSH2 0x100 EXP SWAP1 DIV PUSH20 0xFFFFFFFFFFFFFFFFFFFFFFFFFFFFFFFFFFFFFFFF AND PUSH20 0xFFFFFFFFFFFFFFFFFFFFFFFFFFFFFFFFFFFFFFFF AND DUP4 PUSH20 0xFFFFFFFFFFFFFFFFFFFFFFFFFFFFFFFFFFFFFFFF AND EQ ISZERO PUSH2 0x1488 JUMPI PUSH1 0x40 MLOAD PUSH32 0x8C379A000000000000000000000000000000000000000000000000000000000 DUP2 MSTORE PUSH1 0x4 ADD PUSH2 0x147F SWAP1 PUSH2 0x32F6 JUMP JUMPDEST PUSH1 0x40 MLOAD DUP1 SWAP2 SUB SWAP1 REVERT JUMPDEST PUSH1 0x0 PUSH20 0xFFFFFFFFFFFFFFFFFFFFFFFFFFFFFFFFFFFFFFFF AND PUSH1 0xC DUP4 DUP4 PUSH1 0x40 MLOAD PUSH2 0x14B2 SWAP3 SWAP2 SWAP1 PUSH2 0x30DB JUMP JUMPDEST SWAP1 DUP2 MSTORE PUSH1 0x20 ADD PUSH1 0x40 MLOAD DUP1 SWAP2 SUB SWAP1 KECCAK256 PUSH1 0x0 DUP6 PUSH20 0xFFFFFFFFFFFFFFFFFFFFFFFFFFFFFFFFFFFFFFFF AND PUSH20 0xFFFFFFFFFFFFFFFFFFFFFFFFFFFFFFFFFFFFFFFF AND DUP2 MSTORE PUSH1 0x20 ADD SWAP1 DUP2 MSTORE PUSH1 0x20 ADD PUSH1 0x0 KECCAK256 PUSH1 0x0 ADD PUSH1 0x2 SWAP1 SLOAD SWAP1 PUSH2 0x100 EXP SWAP1 DIV PUSH20 0xFFFFFFFFFFFFFFFFFFFFFFFFFFFFFFFFFFFFFFFF AND PUSH20 0xFFFFFFFFFFFFFFFFFFFFFFFFFFFFFFFFFFFFFFFF AND EQ PUSH2 0x1577 JUMPI PUSH1 0x40 MLOAD PUSH32 0x8C379A000000000000000000000000000000000000000000000000000000000 DUP2 MSTORE PUSH1 0x4 ADD PUSH2 0x156E SWAP1 PUSH2 0x3276 JUMP JUMPDEST PUSH1 0x40 MLOAD DUP1 SWAP2 SUB SWAP1 REVERT JUMPDEST PUSH1 0x4 DUP3 DUP3 PUSH1 0x40 MLOAD PUSH2 0x1589 SWAP3 SWAP2 SWAP1 PUSH2 0x30DB JUMP JUMPDEST SWAP1 DUP2 MSTORE PUSH1 0x20 ADD PUSH1 0x40 MLOAD DUP1 SWAP2 SUB SWAP1 KECCAK256 SLOAD TIMESTAMP LT PUSH2 0x15D9 JUMPI PUSH1 0x40 MLOAD PUSH32 0x8C379A000000000000000000000000000000000000000000000000000000000 DUP2 MSTORE PUSH1 0x4 ADD PUSH2 0x15D0 SWAP1 PUSH2 0x3336 JUMP JUMPDEST PUSH1 0x40 MLOAD DUP1 SWAP2 SUB SWAP1 REVERT JUMPDEST PUSH1 0x0 PUSH1 0x40 MLOAD DUP1 PUSH1 0x60 ADD PUSH1 0x40 MSTORE DUP1 PUSH1 0x0 ISZERO ISZERO DUP2 MSTORE PUSH1 0x20 ADD PUSH1 0x0 ISZERO ISZERO DUP2 MSTORE PUSH1 0x20 ADD DUP6 PUSH20 0xFFFFFFFFFFFFFFFFFFFFFFFFFFFFFFFFFFFFFFFF AND DUP2 MSTORE POP SWAP1 POP DUP1 PUSH1 0xC DUP5 DUP5 PUSH1 0x40 MLOAD PUSH2 0x1627 SWAP3 SWAP2 SWAP1 PUSH2 0x30DB JUMP JUMPDEST SWAP1 DUP2 MSTORE PUSH1 0x20 ADD PUSH1 0x40 MLOAD DUP1 SWAP2 SUB SWAP1 KECCAK256 PUSH1 0x0 DUP7 PUSH20 0xFFFFFFFFFFFFFFFFFFFFFFFFFFFFFFFFFFFFFFFF AND PUSH20 0xFFFFFFFFFFFFFFFFFFFFFFFFFFFFFFFFFFFFFFFF AND DUP2 MSTORE PUSH1 0x20 ADD SWAP1 DUP2 MSTORE PUSH1 0x20 ADD PUSH1 0x0 KECCAK256 PUSH1 0x0 DUP3 ADD MLOAD DUP2 PUSH1 0x0 ADD PUSH1 0x0 PUSH2 0x100 EXP DUP2 SLOAD DUP2 PUSH1 0xFF MUL NOT AND SWAP1 DUP4 ISZERO ISZERO MUL OR SWAP1 SSTORE POP PUSH1 0x20 DUP3 ADD MLOAD DUP2 PUSH1 0x0 ADD PUSH1 0x1 PUSH2 0x100 EXP DUP2 SLOAD DUP2 PUSH1 0xFF MUL NOT AND SWAP1 DUP4 ISZERO ISZERO MUL OR SWAP1 SSTORE POP PUSH1 0x40 DUP3 ADD MLOAD DUP2 PUSH1 0x0 ADD PUSH1 0x2 PUSH2 0x100 EXP DUP2 SLOAD DUP2 PUSH20 0xFFFFFFFFFFFFFFFFFFFFFFFFFFFFFFFFFFFFFFFF MUL NOT AND SWAP1 DUP4 PUSH20 0xFFFFFFFFFFFFFFFFFFFFFFFFFFFFFFFFFFFFFFFF AND MUL OR SWAP1 SSTORE POP SWAP1 POP POP PUSH1 0xE DUP4 DUP4 PUSH1 0x40 MLOAD PUSH2 0x170E SWAP3 SWAP2 SWAP1 PUSH2 0x30DB JUMP JUMPDEST SWAP1 DUP2 MSTORE PUSH1 0x20 ADD PUSH1 0x40 MLOAD DUP1 SWAP2 SUB SWAP1 KECCAK256 DUP5 SWAP1 DUP1 PUSH1 0x1 DUP2 SLOAD ADD DUP1 DUP3 SSTORE DUP1 SWAP2 POP POP PUSH1 0x1 SWAP1 SUB SWAP1 PUSH1 0x0 MSTORE PUSH1 0x20 PUSH1 0x0 KECCAK256 ADD PUSH1 0x0 SWAP1 SWAP2 SWAP1 SWAP2 SWAP1 SWAP2 PUSH2 0x100 EXP DUP2 SLOAD DUP2 PUSH20 0xFFFFFFFFFFFFFFFFFFFFFFFFFFFFFFFFFFFFFFFF MUL NOT AND SWAP1 DUP4 PUSH20 0xFFFFFFFFFFFFFFFFFFFFFFFFFFFFFFFFFFFFFFFF AND MUL OR SWAP1 SSTORE POP POP POP POP POP JUMP JUMPDEST PUSH1 0x2 DUP2 DUP1 MLOAD PUSH1 0x20 DUP2 ADD DUP3 ADD DUP1 MLOAD DUP5 DUP3 MSTORE PUSH1 0x20 DUP4 ADD PUSH1 0x20 DUP6 ADD KECCAK256 DUP2 DUP4 MSTORE DUP1 SWAP6 POP POP POP POP POP POP PUSH1 0x0 SWAP2 POP SWAP1 POP SLOAD DUP2 JUMP JUMPDEST PUSH1 0x4 DUP2 DUP1 MLOAD PUSH1 0x20 DUP2 ADD DUP3 ADD DUP1 MLOAD DUP5 DUP3 MSTORE PUSH1 0x20 DUP4 ADD PUSH1 0x20 DUP6 ADD KECCAK256 DUP2 DUP4 MSTORE DUP1 SWAP6 POP POP POP POP POP POP PUSH1 0x0 SWAP2 POP SWAP1 POP SLOAD DUP2 JUMP JUMPDEST PUSH1 0x0 PUSH20 0xFFFFFFFFFFFFFFFFFFFFFFFFFFFFFFFFFFFFFFFF AND PUSH1 0x0 DUP8 PUSH1 0x40 MLOAD PUSH2 0x1807 SWAP2 SWAP1 PUSH2 0x30F4 JUMP JUMPDEST SWAP1 DUP2 MSTORE PUSH1 0x20 ADD PUSH1 0x40 MLOAD DUP1 SWAP2 SUB SWAP1 KECCAK256 PUSH1 0x0 SWAP1 SLOAD SWAP1 PUSH2 0x100 EXP SWAP1 DIV PUSH20 0xFFFFFFFFFFFFFFFFFFFFFFFFFFFFFFFFFFFFFFFF AND PUSH20 0xFFFFFFFFFFFFFFFFFFFFFFFFFFFFFFFFFFFFFFFF AND EQ PUSH2 0x188C JUMPI PUSH1 0x40 MLOAD PUSH32 0x8C379A000000000000000000000000000000000000000000000000000000000 DUP2 MSTORE PUSH1 0x4 ADD PUSH2 0x1883 SWAP1 PUSH2 0x3296 JUMP JUMPDEST PUSH1 0x40 MLOAD DUP1 SWAP2 SUB SWAP1 REVERT JUMPDEST PUSH1 0x0 PUSH1 0x2 DUP8 PUSH1 0x40 MLOAD PUSH2 0x189E SWAP2 SWAP1 PUSH2 0x30F4 JUMP JUMPDEST SWAP1 DUP2 MSTORE PUSH1 0x20 ADD PUSH1 0x40 MLOAD DUP1 SWAP2 SUB SWAP1 KECCAK256 DUP2 SWAP1 SSTORE POP DUP5 TIMESTAMP PUSH2 0x18BC SWAP2 SWAP1 PUSH2 0x34C7 JUMP JUMPDEST PUSH1 0x4 DUP8 PUSH1 0x40 MLOAD PUSH2 0x18CC SWAP2 SWAP1 PUSH2 0x30F4 JUMP JUMPDEST SWAP1 DUP2 MSTORE PUSH1 0x20 ADD PUSH1 0x40 MLOAD DUP1 SWAP2 SUB SWAP1 KECCAK256 DUP2 SWAP1 SSTORE POP DUP6 PUSH1 0x1 DUP4 PUSH1 0x40 MLOAD PUSH2 0x18EF SWAP2 SWAP1 PUSH2 0x30F4 JUMP JUMPDEST SWAP1 DUP2 MSTORE PUSH1 0x20 ADD PUSH1 0x40 MLOAD DUP1 SWAP2 SUB SWAP1 KECCAK256 SWAP1 DUP1 MLOAD SWAP1 PUSH1 0x20 ADD SWAP1 PUSH2 0x1910 SWAP3 SWAP2 SWAP1 PUSH2 0x2860 JUMP JUMPDEST POP PUSH1 0x0 PUSH1 0xA DUP8 PUSH1 0x40 MLOAD PUSH2 0x1923 SWAP2 SWAP1 PUSH2 0x30F4 JUMP JUMPDEST SWAP1 DUP2 MSTORE PUSH1 0x20 ADD PUSH1 0x40 MLOAD DUP1 SWAP2 SUB SWAP1 KECCAK256 PUSH1 0x0 PUSH2 0x100 EXP DUP2 SLOAD DUP2 PUSH1 0xFF MUL NOT AND SWAP1 DUP4 ISZERO ISZERO MUL OR SWAP1 SSTORE POP DUP4 PUSH1 0x7 DUP8 PUSH1 0x40 MLOAD PUSH2 0x1959 SWAP2 SWAP1 PUSH2 0x30F4 JUMP JUMPDEST SWAP1 DUP2 MSTORE PUSH1 0x20 ADD PUSH1 0x40 MLOAD DUP1 SWAP2 SUB SWAP1 KECCAK256 DUP2 SWAP1 SSTORE POP DUP4 PUSH1 0x7 DUP4 PUSH1 0x40 MLOAD PUSH2 0x197C SWAP2 SWAP1 PUSH2 0x30F4 JUMP JUMPDEST SWAP1 DUP2 MSTORE PUSH1 0x20 ADD PUSH1 0x40 MLOAD DUP1 SWAP2 SUB SWAP1 KECCAK256 DUP2 SWAP1 SSTORE POP PUSH1 0x0 PUSH1 0x9 DUP8 PUSH1 0x40 MLOAD PUSH2 0x19A0 SWAP2 SWAP1 PUSH2 0x30F4 JUMP JUMPDEST SWAP1 DUP2 MSTORE PUSH1 0x20 ADD PUSH1 0x40 MLOAD DUP1 SWAP2 SUB SWAP1 KECCAK256 PUSH1 0x0 PUSH2 0x100 EXP DUP2 SLOAD DUP2 PUSH1 0xFF MUL NOT AND SWAP1 DUP4 ISZERO ISZERO MUL OR SWAP1 SSTORE POP DUP5 PUSH1 0x3 DUP8 PUSH1 0x40 MLOAD PUSH2 0x19D6 SWAP2 SWAP1 PUSH2 0x30F4 JUMP JUMPDEST SWAP1 DUP2 MSTORE PUSH1 0x20 ADD PUSH1 0x40 MLOAD DUP1 SWAP2 SUB SWAP1 KECCAK256 DUP2 SWAP1 SSTORE POP DUP5 PUSH1 0x3 DUP4 PUSH1 0x40 MLOAD PUSH2 0x19F9 SWAP2 SWAP1 PUSH2 0x30F4 JUMP JUMPDEST SWAP1 DUP2 MSTORE PUSH1 0x20 ADD PUSH1 0x40 MLOAD DUP1 SWAP2 SUB SWAP1 KECCAK256 DUP2 SWAP1 SSTORE POP DUP3 PUSH1 0x5 DUP8 PUSH1 0x40 MLOAD PUSH2 0x1A1C SWAP2 SWAP1 PUSH2 0x30F4 JUMP JUMPDEST SWAP1 DUP2 MSTORE PUSH1 0x20 ADD PUSH1 0x40 MLOAD DUP1 SWAP2 SUB SWAP1 KECCAK256 DUP2 SWAP1 SSTORE POP DUP3 PUSH1 0x5 DUP4 PUSH1 0x40 MLOAD PUSH2 0x1A3F SWAP2 SWAP1 PUSH2 0x30F4 JUMP JUMPDEST SWAP1 DUP2 MSTORE PUSH1 0x20 ADD PUSH1 0x40 MLOAD DUP1 SWAP2 SUB SWAP1 KECCAK256 DUP2 SWAP1 SSTORE POP DUP2 PUSH1 0xB DUP8 PUSH1 0x40 MLOAD PUSH2 0x1A62 SWAP2 SWAP1 PUSH2 0x30F4 JUMP JUMPDEST SWAP1 DUP2 MSTORE PUSH1 0x20 ADD PUSH1 0x40 MLOAD DUP1 SWAP2 SUB SWAP1 KECCAK256 SWAP1 DUP1 MLOAD SWAP1 PUSH1 0x20 ADD SWAP1 PUSH2 0x1A83 SWAP3 SWAP2 SWAP1 PUSH2 0x2860 JUMP JUMPDEST POP DUP1 PUSH1 0x8 DUP8 PUSH1 0x40 MLOAD PUSH2 0x1A95 SWAP2 SWAP1 PUSH2 0x30F4 JUMP JUMPDEST SWAP1 DUP2 MSTORE PUSH1 0x20 ADD PUSH1 0x40 MLOAD DUP1 SWAP2 SUB SWAP1 KECCAK256 SWAP1 DUP1 MLOAD SWAP1 PUSH1 0x20 ADD SWAP1 PUSH2 0x1AB6 SWAP3 SWAP2 SWAP1 PUSH2 0x2860 JUMP JUMPDEST POP DUP1 PUSH1 0x8 DUP4 PUSH1 0x40 MLOAD PUSH2 0x1AC8 SWAP2 SWAP1 PUSH2 0x30F4 JUMP JUMPDEST SWAP1 DUP2 MSTORE PUSH1 0x20 ADD PUSH1 0x40 MLOAD DUP1 SWAP2 SUB SWAP1 KECCAK256 SWAP1 DUP1 MLOAD SWAP1 PUSH1 0x20 ADD SWAP1 PUSH2 0x1AE9 SWAP3 SWAP2 SWAP1 PUSH2 0x2860 JUMP JUMPDEST POP PUSH1 0x0 PUSH1 0x6 DUP8 PUSH1 0x40 MLOAD PUSH2 0x1AFC SWAP2 SWAP1 PUSH2 0x30F4 JUMP JUMPDEST SWAP1 DUP2 MSTORE PUSH1 0x20 ADD PUSH1 0x40 MLOAD DUP1 SWAP2 SUB SWAP1 KECCAK256 DUP2 SWAP1 SSTORE POP CALLER PUSH1 0x0 DUP8 PUSH1 0x40 MLOAD PUSH2 0x1B1F SWAP2 SWAP1 PUSH2 0x30F4 JUMP JUMPDEST SWAP1 DUP2 MSTORE PUSH1 0x20 ADD PUSH1 0x40 MLOAD DUP1 SWAP2 SUB SWAP1 KECCAK256 PUSH1 0x0 PUSH2 0x100 EXP DUP2 SLOAD DUP2 PUSH20 0xFFFFFFFFFFFFFFFFFFFFFFFFFFFFFFFFFFFFFFFF MUL NOT AND SWAP1 DUP4 PUSH20 0xFFFFFFFFFFFFFFFFFFFFFFFFFFFFFFFFFFFFFFFF AND MUL OR SWAP1 SSTORE POP CALLER PUSH1 0x0 DUP4 PUSH1 0x40 MLOAD PUSH2 0x1B7C SWAP2 SWAP1 PUSH2 0x30F4 JUMP JUMPDEST SWAP1 DUP2 MSTORE PUSH1 0x20 ADD PUSH1 0x40 MLOAD DUP1 SWAP2 SUB SWAP1 KECCAK256 PUSH1 0x0 PUSH2 0x100 EXP DUP2 SLOAD DUP2 PUSH20 0xFFFFFFFFFFFFFFFFFFFFFFFFFFFFFFFFFFFFFFFF MUL NOT AND SWAP1 DUP4 PUSH20 0xFFFFFFFFFFFFFFFFFFFFFFFFFFFFFFFFFFFFFFFF AND MUL OR SWAP1 SSTORE POP POP POP POP POP POP POP JUMP JUMPDEST PUSH1 0x4 DUP3 DUP3 PUSH1 0x40 MLOAD PUSH2 0x1BE2 SWAP3 SWAP2 SWAP1 PUSH2 0x30DB JUMP JUMPDEST SWAP1 DUP2 MSTORE PUSH1 0x20 ADD PUSH1 0x40 MLOAD DUP1 SWAP2 SUB SWAP1 KECCAK256 SLOAD TIMESTAMP LT ISZERO PUSH2 0x1C33 JUMPI PUSH1 0x40 MLOAD PUSH32 0x8C379A000000000000000000000000000000000000000000000000000000000 DUP2 MSTORE PUSH1 0x4 ADD PUSH2 0x1C2A SWAP1 PUSH2 0x3396 JUMP JUMPDEST PUSH1 0x40 MLOAD DUP1 SWAP2 SUB SWAP1 REVERT JUMPDEST PUSH1 0x0 ISZERO ISZERO PUSH1 0xA DUP4 DUP4 PUSH1 0x40 MLOAD PUSH2 0x1C49 SWAP3 SWAP2 SWAP1 PUSH2 0x30DB JUMP JUMPDEST SWAP1 DUP2 MSTORE PUSH1 0x20 ADD PUSH1 0x40 MLOAD DUP1 SWAP2 SUB SWAP1 KECCAK256 PUSH1 0x0 SWAP1 SLOAD SWAP1 PUSH2 0x100 EXP SWAP1 DIV PUSH1 0xFF AND ISZERO ISZERO EQ PUSH2 0x1CA7 JUMPI PUSH1 0x40 MLOAD PUSH32 0x8C379A000000000000000000000000000000000000000000000000000000000 DUP2 MSTORE PUSH1 0x4 ADD PUSH2 0x1C9E SWAP1 PUSH2 0x33D6 JUMP JUMPDEST PUSH1 0x40 MLOAD DUP1 SWAP2 SUB SWAP1 REVERT JUMPDEST PUSH1 0x0 DUP3 DUP3 PUSH1 0x40 MLOAD PUSH2 0x1CB9 SWAP3 SWAP2 SWAP1 PUSH2 0x30DB JUMP JUMPDEST SWAP1 DUP2 MSTORE PUSH1 0x20 ADD PUSH1 0x40 MLOAD DUP1 SWAP2 SUB SWAP1 KECCAK256 PUSH1 0x0 SWAP1 SLOAD SWAP1 PUSH2 0x100 EXP SWAP1 DIV PUSH20 0xFFFFFFFFFFFFFFFFFFFFFFFFFFFFFFFFFFFFFFFF AND PUSH20 0xFFFFFFFFFFFFFFFFFFFFFFFFFFFFFFFFFFFFFFFF AND CALLER PUSH20 0xFFFFFFFFFFFFFFFFFFFFFFFFFFFFFFFFFFFFFFFF AND EQ DUP1 PUSH2 0x1DCE JUMPI POP PUSH1 0x0 PUSH20 0xFFFFFFFFFFFFFFFFFFFFFFFFFFFFFFFFFFFFFFFF AND PUSH1 0xC DUP4 DUP4 PUSH1 0x40 MLOAD PUSH2 0x1D46 SWAP3 SWAP2 SWAP1 PUSH2 0x30DB JUMP JUMPDEST SWAP1 DUP2 MSTORE PUSH1 0x20 ADD PUSH1 0x40 MLOAD DUP1 SWAP2 SUB SWAP1 KECCAK256 PUSH1 0x0 CALLER PUSH20 0xFFFFFFFFFFFFFFFFFFFFFFFFFFFFFFFFFFFFFFFF AND PUSH20 0xFFFFFFFFFFFFFFFFFFFFFFFFFFFFFFFFFFFFFFFF AND DUP2 MSTORE PUSH1 0x20 ADD SWAP1 DUP2 MSTORE PUSH1 0x20 ADD PUSH1 0x0 KECCAK256 PUSH1 0x0 ADD PUSH1 0x2 SWAP1 SLOAD SWAP1 PUSH2 0x100 EXP SWAP1 DIV PUSH20 0xFFFFFFFFFFFFFFFFFFFFFFFFFFFFFFFFFFFFFFFF AND PUSH20 0xFFFFFFFFFFFFFFFFFFFFFFFFFFFFFFFFFFFFFFFF AND EQ ISZERO JUMPDEST PUSH2 0x1E0D JUMPI PUSH1 0x40 MLOAD PUSH32 0x8C379A000000000000000000000000000000000000000000000000000000000 DUP2 MSTORE PUSH1 0x4 ADD PUSH2 0x1E04 SWAP1 PUSH2 0x32B6 JUMP JUMPDEST PUSH1 0x40 MLOAD DUP1 SWAP2 SUB SWAP1 REVERT JUMPDEST PUSH1 0x0 PUSH1 0x64 PUSH1 0xE DUP5 DUP5 PUSH1 0x40 MLOAD PUSH2 0x1E23 SWAP3 SWAP2 SWAP1 PUSH2 0x30DB JUMP JUMPDEST SWAP1 DUP2 MSTORE PUSH1 0x20 ADD PUSH1 0x40 MLOAD DUP1 SWAP2 SUB SWAP1 KECCAK256 DUP1 SLOAD SWAP1 POP PUSH1 0x6 DUP6 DUP6 PUSH1 0x40 MLOAD PUSH2 0x1E47 SWAP3 SWAP2 SWAP1 PUSH2 0x30DB JUMP JUMPDEST SWAP1 DUP2 MSTORE PUSH1 0x20 ADD PUSH1 0x40 MLOAD DUP1 SWAP2 SUB SWAP1 KECCAK256 SLOAD PUSH2 0x1E60 SWAP2 SWAP1 PUSH2 0x351D JUMP JUMPDEST PUSH2 0x1E6A SWAP2 SWAP1 PUSH2 0x354E JUMP JUMPDEST SWAP1 POP PUSH1 0x7 DUP4 DUP4 PUSH1 0x40 MLOAD PUSH2 0x1E7E SWAP3 SWAP2 SWAP1 PUSH2 0x30DB JUMP JUMPDEST SWAP1 DUP2 MSTORE PUSH1 0x20 ADD PUSH1 0x40 MLOAD DUP1 SWAP2 SUB SWAP1 KECCAK256 SLOAD DUP2 LT PUSH2 0x1ECD JUMPI PUSH1 0x1 PUSH1 0x9 DUP5 DUP5 PUSH1 0x40 MLOAD PUSH2 0x1EA7 SWAP3 SWAP2 SWAP1 PUSH2 0x30DB JUMP JUMPDEST SWAP1 DUP2 MSTORE PUSH1 0x20 ADD PUSH1 0x40 MLOAD DUP1 SWAP2 SUB SWAP1 KECCAK256 PUSH1 0x0 PUSH2 0x100 EXP DUP2 SLOAD DUP2 PUSH1 0xFF MUL NOT AND SWAP1 DUP4 ISZERO ISZERO MUL OR SWAP1 SSTORE POP JUMPDEST PUSH1 0x0 JUMPDEST PUSH1 0xE DUP5 DUP5 PUSH1 0x40 MLOAD PUSH2 0x1EE2 SWAP3 SWAP2 SWAP1 PUSH2 0x30DB JUMP JUMPDEST SWAP1 DUP2 MSTORE PUSH1 0x20 ADD PUSH1 0x40 MLOAD DUP1 SWAP2 SUB SWAP1 KECCAK256 DUP1 SLOAD SWAP1 POP DUP2 LT ISZERO PUSH2 0x21A6 JUMPI PUSH1 0x0 ISZERO ISZERO PUSH1 0xC DUP6 DUP6 PUSH1 0x40 MLOAD PUSH2 0x1F11 SWAP3 SWAP2 SWAP1 PUSH2 0x30DB JUMP JUMPDEST SWAP1 DUP2 MSTORE PUSH1 0x20 ADD PUSH1 0x40 MLOAD DUP1 SWAP2 SUB SWAP1 KECCAK256 PUSH1 0x0 PUSH1 0xE DUP8 DUP8 PUSH1 0x40 MLOAD PUSH2 0x1F33 SWAP3 SWAP2 SWAP1 PUSH2 0x30DB JUMP JUMPDEST SWAP1 DUP2 MSTORE PUSH1 0x20 ADD PUSH1 0x40 MLOAD DUP1 SWAP2 SUB SWAP1 KECCAK256 DUP5 DUP2 SLOAD DUP2 LT PUSH2 0x1F53 JUMPI PUSH2 0x1F52 PUSH2 0x3775 JUMP JUMPDEST JUMPDEST SWAP1 PUSH1 0x0 MSTORE PUSH1 0x20 PUSH1 0x0 KECCAK256 ADD PUSH1 0x0 SWAP1 SLOAD SWAP1 PUSH2 0x100 EXP SWAP1 DIV PUSH20 0xFFFFFFFFFFFFFFFFFFFFFFFFFFFFFFFFFFFFFFFF AND PUSH20 0xFFFFFFFFFFFFFFFFFFFFFFFFFFFFFFFFFFFFFFFF AND PUSH20 0xFFFFFFFFFFFFFFFFFFFFFFFFFFFFFFFFFFFFFFFF AND DUP2 MSTORE PUSH1 0x20 ADD SWAP1 DUP2 MSTORE PUSH1 0x20 ADD PUSH1 0x0 KECCAK256 PUSH1 0x0 ADD PUSH1 0x0 SWAP1 SLOAD SWAP1 PUSH2 0x100 EXP SWAP1 DIV PUSH1 0xFF AND ISZERO ISZERO EQ ISZERO PUSH2 0x2193 JUMPI PUSH1 0xD DUP5 DUP5 PUSH1 0x40 MLOAD PUSH2 0x1FE3 SWAP3 SWAP2 SWAP1 PUSH2 0x30DB JUMP JUMPDEST SWAP1 DUP2 MSTORE PUSH1 0x20 ADD PUSH1 0x40 MLOAD DUP1 SWAP2 SUB SWAP1 KECCAK256 PUSH1 0xC DUP6 DUP6 PUSH1 0x40 MLOAD PUSH2 0x2003 SWAP3 SWAP2 SWAP1 PUSH2 0x30DB JUMP JUMPDEST SWAP1 DUP2 MSTORE PUSH1 0x20 ADD PUSH1 0x40 MLOAD DUP1 SWAP2 SUB SWAP1 KECCAK256 PUSH1 0x0 PUSH1 0xE DUP8 DUP8 PUSH1 0x40 MLOAD PUSH2 0x2025 SWAP3 SWAP2 SWAP1 PUSH2 0x30DB JUMP JUMPDEST SWAP1 DUP2 MSTORE PUSH1 0x20 ADD PUSH1 0x40 MLOAD DUP1 SWAP2 SUB SWAP1 KECCAK256 DUP5 DUP2 SLOAD DUP2 LT PUSH2 0x2045 JUMPI PUSH2 0x2044 PUSH2 0x3775 JUMP JUMPDEST JUMPDEST SWAP1 PUSH1 0x0 MSTORE PUSH1 0x20 PUSH1 0x0 KECCAK256 ADD PUSH1 0x0 SWAP1 SLOAD SWAP1 PUSH2 0x100 EXP SWAP1 DIV PUSH20 0xFFFFFFFFFFFFFFFFFFFFFFFFFFFFFFFFFFFFFFFF AND PUSH20 0xFFFFFFFFFFFFFFFFFFFFFFFFFFFFFFFFFFFFFFFF AND PUSH20 0xFFFFFFFFFFFFFFFFFFFFFFFFFFFFFFFFFFFFFFFF AND DUP2 MSTORE PUSH1 0x20 ADD SWAP1 DUP2 MSTORE PUSH1 0x20 ADD PUSH1 0x0 KECCAK256 SWAP1 DUP1 PUSH1 0x1 DUP2 SLOAD ADD DUP1 DUP3 SSTORE DUP1 SWAP2 POP POP PUSH1 0x1 SWAP1 SUB SWAP1 PUSH1 0x0 MSTORE PUSH1 0x20 PUSH1 0x0 KECCAK256 ADD PUSH1 0x0 SWAP1 SWAP2 SWAP1 SWAP2 SWAP1 SWAP2 POP PUSH1 0x0 DUP3 ADD PUSH1 0x0 SWAP1 SLOAD SWAP1 PUSH2 0x100 EXP SWAP1 DIV PUSH1 0xFF AND DUP2 PUSH1 0x0 ADD PUSH1 0x0 PUSH2 0x100 EXP DUP2 SLOAD DUP2 PUSH1 0xFF MUL NOT AND SWAP1 DUP4 ISZERO ISZERO MUL OR SWAP1 SSTORE POP PUSH1 0x0 DUP3 ADD PUSH1 0x1 SWAP1 SLOAD SWAP1 PUSH2 0x100 EXP SWAP1 DIV PUSH1 0xFF AND DUP2 PUSH1 0x0 ADD PUSH1 0x1 PUSH2 0x100 EXP DUP2 SLOAD DUP2 PUSH1 0xFF MUL NOT AND SWAP1 DUP4 ISZERO ISZERO MUL OR SWAP1 SSTORE POP PUSH1 0x0 DUP3 ADD PUSH1 0x2 SWAP1 SLOAD SWAP1 PUSH2 0x100 EXP SWAP1 DIV PUSH20 0xFFFFFFFFFFFFFFFFFFFFFFFFFFFFFFFFFFFFFFFF AND DUP2 PUSH1 0x0 ADD PUSH1 0x2 PUSH2 0x100 EXP DUP2 SLOAD DUP2 PUSH20 0xFFFFFFFFFFFFFFFFFFFFFFFFFFFFFFFFFFFFFFFF MUL NOT AND SWAP1 DUP4 PUSH20 0xFFFFFFFFFFFFFFFFFFFFFFFFFFFFFFFFFFFFFFFF AND MUL OR SWAP1 SSTORE POP POP POP JUMPDEST DUP1 DUP1 PUSH2 0x219E SWAP1 PUSH2 0x369F JUMP JUMPDEST SWAP2 POP POP PUSH2 0x1ED0 JUMP JUMPDEST POP PUSH1 0x1 PUSH1 0xA DUP5 DUP5 PUSH1 0x40 MLOAD PUSH2 0x21BB SWAP3 SWAP2 SWAP1 PUSH2 0x30DB JUMP JUMPDEST SWAP1 DUP2 MSTORE PUSH1 0x20 ADD PUSH1 0x40 MLOAD DUP1 SWAP2 SUB SWAP1 KECCAK256 PUSH1 0x0 PUSH2 0x100 EXP DUP2 SLOAD DUP2 PUSH1 0xFF MUL NOT AND SWAP1 DUP4 ISZERO ISZERO MUL OR SWAP1 SSTORE POP POP POP POP JUMP JUMPDEST PUSH1 0x8 DUP2 DUP1 MLOAD PUSH1 0x20 DUP2 ADD DUP3 ADD DUP1 MLOAD DUP5 DUP3 MSTORE PUSH1 0x20 DUP4 ADD PUSH1 0x20 DUP6 ADD KECCAK256 DUP2 DUP4 MSTORE DUP1 SWAP6 POP POP POP POP POP POP PUSH1 0x0 SWAP2 POP SWAP1 POP DUP1 SLOAD PUSH2 0x221A SWAP1 PUSH2 0x363C JUMP JUMPDEST DUP1 PUSH1 0x1F ADD PUSH1 0x20 DUP1 SWAP2 DIV MUL PUSH1 0x20 ADD PUSH1 0x40 MLOAD SWAP1 DUP2 ADD PUSH1 0x40 MSTORE DUP1 SWAP3 SWAP2 SWAP1 DUP2 DUP2 MSTORE PUSH1 0x20 ADD DUP3 DUP1 SLOAD PUSH2 0x2246 SWAP1 PUSH2 0x363C JUMP JUMPDEST DUP1 ISZERO PUSH2 0x2293 JUMPI DUP1 PUSH1 0x1F LT PUSH2 0x2268 JUMPI PUSH2 0x100 DUP1 DUP4 SLOAD DIV MUL DUP4 MSTORE SWAP2 PUSH1 0x20 ADD SWAP2 PUSH2 0x2293 JUMP JUMPDEST DUP3 ADD SWAP2 SWAP1 PUSH1 0x0 MSTORE PUSH1 0x20 PUSH1 0x0 KECCAK256 SWAP1 JUMPDEST DUP2 SLOAD DUP2 MSTORE SWAP1 PUSH1 0x1 ADD SWAP1 PUSH1 0x20 ADD DUP1 DUP4 GT PUSH2 0x2276 JUMPI DUP3 SWAP1 SUB PUSH1 0x1F AND DUP3 ADD SWAP2 JUMPDEST POP POP POP POP POP DUP2 JUMP JUMPDEST PUSH1 0xD DUP3 DUP1 MLOAD PUSH1 0x20 DUP2 ADD DUP3 ADD DUP1 MLOAD DUP5 DUP3 MSTORE PUSH1 0x20 DUP4 ADD PUSH1 0x20 DUP6 ADD KECCAK256 DUP2 DUP4 MSTORE DUP1 SWAP6 POP POP POP POP POP POP DUP2 DUP2 SLOAD DUP2 LT PUSH2 0x22CD JUMPI PUSH1 0x0 DUP1 REVERT JUMPDEST SWAP1 PUSH1 0x0 MSTORE PUSH1 0x20 PUSH1 0x0 KECCAK256 ADD PUSH1 0x0 SWAP2 POP SWAP2 POP POP DUP1 PUSH1 0x0 ADD PUSH1 0x0 SWAP1 SLOAD SWAP1 PUSH2 0x100 EXP SWAP1 DIV PUSH1 0xFF AND SWAP1 DUP1 PUSH1 0x0 ADD PUSH1 0x1 SWAP1 SLOAD SWAP1 PUSH2 0x100 EXP SWAP1 DIV PUSH1 0xFF AND SWAP1 DUP1 PUSH1 0x0 ADD PUSH1 0x2 SWAP1 SLOAD SWAP1 PUSH2 0x100 EXP SWAP1 DIV PUSH20 0xFFFFFFFFFFFFFFFFFFFFFFFFFFFFFFFFFFFFFFFF AND SWAP1 POP DUP4 JUMP JUMPDEST PUSH1 0x6 DUP2 DUP1 MLOAD PUSH1 0x20 DUP2 ADD DUP3 ADD DUP1 MLOAD DUP5 DUP3 MSTORE PUSH1 0x20 DUP4 ADD PUSH1 0x20 DUP6 ADD KECCAK256 DUP2 DUP4 MSTORE DUP1 SWAP6 POP POP POP POP POP POP PUSH1 0x0 SWAP2 POP SWAP1 POP SLOAD DUP2 JUMP JUMPDEST PUSH1 0x0 DUP1 PUSH1 0x0 DUP1 DUP8 PUSH1 0x40 MLOAD PUSH2 0x2370 SWAP2 SWAP1 PUSH2 0x30F4 JUMP JUMPDEST SWAP1 DUP2 MSTORE PUSH1 0x20 ADD PUSH1 0x40 MLOAD DUP1 SWAP2 SUB SWAP1 KECCAK256 PUSH1 0x0 SWAP1 SLOAD SWAP1 PUSH2 0x100 EXP SWAP1 DIV PUSH20 0xFFFFFFFFFFFFFFFFFFFFFFFFFFFFFFFFFFFFFFFF AND PUSH20 0xFFFFFFFFFFFFFFFFFFFFFFFFFFFFFFFFFFFFFFFF AND CALLER PUSH20 0xFFFFFFFFFFFFFFFFFFFFFFFFFFFFFFFFFFFFFFFF AND EQ PUSH2 0x240C JUMPI PUSH1 0x40 MLOAD PUSH32 0x8C379A000000000000000000000000000000000000000000000000000000000 DUP2 MSTORE PUSH1 0x4 ADD PUSH2 0x2403 SWAP1 PUSH2 0x3376 JUMP JUMPDEST PUSH1 0x40 MLOAD DUP1 SWAP2 SUB SWAP1 REVERT JUMPDEST PUSH1 0x0 PUSH1 0x1 SWAP1 POP PUSH1 0x0 PUSH1 0x1 SWAP1 POP PUSH1 0x0 PUSH1 0x1 SWAP1 POP PUSH1 0x0 PUSH20 0xFFFFFFFFFFFFFFFFFFFFFFFFFFFFFFFFFFFFFFFF AND PUSH1 0x0 DUP12 PUSH1 0x40 MLOAD PUSH2 0x2446 SWAP2 SWAP1 PUSH2 0x30F4 JUMP JUMPDEST SWAP1 DUP2 MSTORE PUSH1 0x20 ADD PUSH1 0x40 MLOAD DUP1 SWAP2 SUB SWAP1 KECCAK256 PUSH1 0x0 SWAP1 SLOAD SWAP1 PUSH2 0x100 EXP SWAP1 DIV PUSH20 0xFFFFFFFFFFFFFFFFFFFFFFFFFFFFFFFFFFFFFFFF AND PUSH20 0xFFFFFFFFFFFFFFFFFFFFFFFFFFFFFFFFFFFFFFFF AND EQ ISZERO PUSH2 0x24A4 JUMPI PUSH1 0x1 DUP1 PUSH1 0x1 SWAP6 POP SWAP6 POP SWAP6 POP POP POP POP PUSH2 0x252F JUMP JUMPDEST PUSH1 0x7 DUP11 PUSH1 0x40 MLOAD PUSH2 0x24B4 SWAP2 SWAP1 PUSH2 0x30F4 JUMP JUMPDEST SWAP1 DUP2 MSTORE PUSH1 0x20 ADD PUSH1 0x40 MLOAD DUP1 SWAP2 SUB SWAP1 KECCAK256 SLOAD DUP10 EQ PUSH2 0x24CE JUMPI PUSH1 0x0 SWAP3 POP JUMPDEST PUSH1 0x5 DUP11 PUSH1 0x40 MLOAD PUSH2 0x24DE SWAP2 SWAP1 PUSH2 0x30F4 JUMP JUMPDEST SWAP1 DUP2 MSTORE PUSH1 0x20 ADD PUSH1 0x40 MLOAD DUP1 SWAP2 SUB SWAP1 KECCAK256 SLOAD DUP8 EQ PUSH2 0x24F8 JUMPI PUSH1 0x0 SWAP2 POP JUMPDEST DUP8 PUSH1 0x3 DUP12 PUSH1 0x40 MLOAD PUSH2 0x2509 SWAP2 SWAP1 PUSH2 0x30F4 JUMP JUMPDEST SWAP1 DUP2 MSTORE PUSH1 0x20 ADD PUSH1 0x40 MLOAD DUP1 SWAP2 SUB SWAP1 KECCAK256 SLOAD EQ PUSH2 0x2522 JUMPI PUSH1 0x0 SWAP1 POP JUMPDEST DUP3 DUP3 DUP3 SWAP6 POP SWAP6 POP SWAP6 POP POP POP POP JUMPDEST SWAP5 POP SWAP5 POP SWAP5 SWAP2 POP POP JUMP JUMPDEST PUSH1 0x5 DUP2 DUP1 MLOAD PUSH1 0x20 DUP2 ADD DUP3 ADD DUP1 MLOAD DUP5 DUP3 MSTORE PUSH1 0x20 DUP4 ADD PUSH1 0x20 DUP6 ADD KECCAK256 DUP2 DUP4 MSTORE DUP1 SWAP6 POP POP POP POP POP POP PUSH1 0x0 SWAP2 POP SWAP1 POP SLOAD DUP2 JUMP JUMPDEST PUSH1 0x3 DUP2 DUP1 MLOAD PUSH1 0x20 DUP2 ADD DUP3 ADD DUP1 MLOAD DUP5 DUP3 MSTORE PUSH1 0x20 DUP4 ADD PUSH1 0x20 DUP6 ADD KECCAK256 DUP2 DUP4 MSTORE DUP1 SWAP6 POP POP POP POP POP POP PUSH1 0x0 SWAP2 POP SWAP1 POP SLOAD DUP2 JUMP JUMPDEST PUSH1 0x7 DUP2 DUP1 MLOAD PUSH1 0x20 DUP2 ADD DUP3 ADD DUP1 MLOAD DUP5 DUP3 MSTORE PUSH1 0x20 DUP4 ADD PUSH1 0x20 DUP6 ADD KECCAK256 DUP2 DUP4 MSTORE DUP1 SWAP6 POP POP POP POP POP POP PUSH1 0x0 SWAP2 POP SWAP1 POP SLOAD DUP2 JUMP JUMPDEST PUSH1 0x60 DUP1 PUSH1 0x1 DUP5 DUP5 PUSH1 0x40 MLOAD PUSH2 0x25D8 SWAP3 SWAP2 SWAP1 PUSH2 0x30DB JUMP JUMPDEST SWAP1 DUP2 MSTORE PUSH1 0x20 ADD PUSH1 0x40 MLOAD DUP1 SWAP2 SUB SWAP1 KECCAK256 PUSH1 0x8 DUP6 DUP6 PUSH1 0x40 MLOAD PUSH2 0x25F8 SWAP3 SWAP2 SWAP1 PUSH2 0x30DB JUMP JUMPDEST SWAP1 DUP2 MSTORE PUSH1 0x20 ADD PUSH1 0x40 MLOAD DUP1 SWAP2 SUB SWAP1 KECCAK256 DUP2 DUP1 SLOAD PUSH2 0x2612 SWAP1 PUSH2 0x363C JUMP JUMPDEST DUP1 PUSH1 0x1F ADD PUSH1 0x20 DUP1 SWAP2 DIV MUL PUSH1 0x20 ADD PUSH1 0x40 MLOAD SWAP1 DUP2 ADD PUSH1 0x40 MSTORE DUP1 SWAP3 SWAP2 SWAP1 DUP2 DUP2 MSTORE PUSH1 0x20 ADD DUP3 DUP1 SLOAD PUSH2 0x263E SWAP1 PUSH2 0x363C JUMP JUMPDEST DUP1 ISZERO PUSH2 0x268B JUMPI DUP1 PUSH1 0x1F LT PUSH2 0x2660 JUMPI PUSH2 0x100 DUP1 DUP4 SLOAD DIV MUL DUP4 MSTORE SWAP2 PUSH1 0x20 ADD SWAP2 PUSH2 0x268B JUMP JUMPDEST DUP3 ADD SWAP2 SWAP1 PUSH1 0x0 MSTORE PUSH1 0x20 PUSH1 0x0 KECCAK256 SWAP1 JUMPDEST DUP2 SLOAD DUP2 MSTORE SWAP1 PUSH1 0x1 ADD SWAP1 PUSH1 0x20 ADD DUP1 DUP4 GT PUSH2 0x266E JUMPI DUP3 SWAP1 SUB PUSH1 0x1F AND DUP3 ADD SWAP2 JUMPDEST POP POP POP POP POP SWAP2 POP DUP1 DUP1 SLOAD PUSH2 0x269E SWAP1 PUSH2 0x363C JUMP JUMPDEST DUP1 PUSH1 0x1F ADD PUSH1 0x20 DUP1 SWAP2 DIV MUL PUSH1 0x20 ADD PUSH1 0x40 MLOAD SWAP1 DUP2 ADD PUSH1 0x40 MSTORE DUP1 SWAP3 SWAP2 SWAP1 DUP2 DUP2 MSTORE PUSH1 0x20 ADD DUP3 DUP1 SLOAD PUSH2 0x26CA SWAP1 PUSH2 0x363C JUMP JUMPDEST DUP1 ISZERO PUSH2 0x2717 JUMPI DUP1 PUSH1 0x1F LT PUSH2 0x26EC JUMPI PUSH2 0x100 DUP1 DUP4 SLOAD DIV MUL DUP4 MSTORE SWAP2 PUSH1 0x20 ADD SWAP2 PUSH2 0x2717 JUMP JUMPDEST DUP3 ADD SWAP2 SWAP1 PUSH1 0x0 MSTORE PUSH1 0x20 PUSH1 0x0 KECCAK256 SWAP1 JUMPDEST DUP2 SLOAD DUP2 MSTORE SWAP1 PUSH1 0x1 ADD SWAP1 PUSH1 0x20 ADD DUP1 DUP4 GT PUSH2 0x26FA JUMPI DUP3 SWAP1 SUB PUSH1 0x1F AND DUP3 ADD SWAP2 JUMPDEST POP POP POP POP POP SWAP1 POP SWAP2 POP SWAP2 POP SWAP3 POP SWAP3 SWAP1 POP JUMP JUMPDEST PUSH1 0x0 DUP2 DUP1 MLOAD PUSH1 0x20 DUP2 ADD DUP3 ADD DUP1 MLOAD DUP5 DUP3 MSTORE PUSH1 0x20 DUP4 ADD PUSH1 0x20 DUP6 ADD KECCAK256 DUP2 DUP4 MSTORE DUP1 SWAP6 POP POP POP POP POP POP PUSH1 0x0 SWAP2 POP SLOAD SWAP1 PUSH2 0x100 EXP SWAP1 DIV PUSH20 0xFFFFFFFFFFFFFFFFFFFFFFFFFFFFFFFFFFFFFFFF AND DUP2 JUMP JUMPDEST PUSH1 0x0 PUSH1 0xA DUP4 DUP4 PUSH1 0x40 MLOAD PUSH2 0x2786 SWAP3 SWAP2 SWAP1 PUSH2 0x30DB JUMP JUMPDEST SWAP1 DUP2 MSTORE PUSH1 0x20 ADD PUSH1 0x40 MLOAD DUP1 SWAP2 SUB SWAP1 KECCAK256 PUSH1 0x0 SWAP1 SLOAD SWAP1 PUSH2 0x100 EXP SWAP1 DIV PUSH1 0xFF AND SWAP1 POP SWAP3 SWAP2 POP POP JUMP JUMPDEST PUSH1 0xB DUP2 DUP1 MLOAD PUSH1 0x20 DUP2 ADD DUP3 ADD DUP1 MLOAD DUP5 DUP3 MSTORE PUSH1 0x20 DUP4 ADD PUSH1 0x20 DUP6 ADD KECCAK256 DUP2 DUP4 MSTORE DUP1 SWAP6 POP POP POP POP POP POP PUSH1 0x0 SWAP2 POP SWAP1 POP DUP1 SLOAD PUSH2 0x27DF SWAP1 PUSH2 0x363C JUMP JUMPDEST DUP1 PUSH1 0x1F ADD PUSH1 0x20 DUP1 SWAP2 DIV MUL PUSH1 0x20 ADD PUSH1 0x40 MLOAD SWAP1 DUP2 ADD PUSH1 0x40 MSTORE DUP1 SWAP3 SWAP2 SWAP1 DUP2 DUP2 MSTORE PUSH1 0x20 ADD DUP3 DUP1 SLOAD PUSH2 0x280B SWAP1 PUSH2 0x363C JUMP JUMPDEST DUP1 ISZERO PUSH2 0x2858 JUMPI DUP1 PUSH1 0x1F LT PUSH2 0x282D JUMPI PUSH2 0x100 DUP1 DUP4 SLOAD DIV MUL DUP4 MSTORE SWAP2 PUSH1 0x20 ADD SWAP2 PUSH2 0x2858 JUMP JUMPDEST DUP3 ADD SWAP2 SWAP1 PUSH1 0x0 MSTORE PUSH1 0x20 PUSH1 0x0 KECCAK256 SWAP1 JUMPDEST DUP2 SLOAD DUP2 MSTORE SWAP1 PUSH1 0x1 ADD SWAP1 PUSH1 0x20 ADD DUP1 DUP4 GT PUSH2 0x283B JUMPI DUP3 SWAP1 SUB PUSH1 0x1F AND DUP3 ADD SWAP2 JUMPDEST POP POP POP POP POP DUP2 JUMP JUMPDEST DUP3 DUP1 SLOAD PUSH2 0x286C SWAP1 PUSH2 0x363C JUMP JUMPDEST SWAP1 PUSH1 0x0 MSTORE PUSH1 0x20 PUSH1 0x0 KECCAK256 SWAP1 PUSH1 0x1F ADD PUSH1 0x20 SWAP1 DIV DUP2 ADD SWAP3 DUP3 PUSH2 0x288E JUMPI PUSH1 0x0 DUP6 SSTORE PUSH2 0x28D5 JUMP JUMPDEST DUP3 PUSH1 0x1F LT PUSH2 0x28A7 JUMPI DUP1 MLOAD PUSH1 0xFF NOT AND DUP4 DUP1 ADD OR DUP6 SSTORE PUSH2 0x28D5 JUMP JUMPDEST DUP3 DUP1 ADD PUSH1 0x1 ADD DUP6 SSTORE DUP3 ISZERO PUSH2 0x28D5 JUMPI SWAP2 DUP3 ADD JUMPDEST DUP3 DUP2 GT ISZERO PUSH2 0x28D4 JUMPI DUP3 MLOAD DUP3 SSTORE SWAP2 PUSH1 0x20 ADD SWAP2 SWAP1 PUSH1 0x1 ADD SWAP1 PUSH2 0x28B9 JUMP JUMPDEST JUMPDEST POP SWAP1 POP PUSH2 0x28E2 SWAP2 SWAP1 PUSH2 0x28E6 JUMP JUMPDEST POP SWAP1 JUMP JUMPDEST JUMPDEST DUP1 DUP3 GT ISZERO PUSH2 0x28FF JUMPI PUSH1 0x0 DUP2 PUSH1 0x0 SWAP1 SSTORE POP PUSH1 0x1 ADD PUSH2 0x28E7 JUMP JUMPDEST POP SWAP1 JUMP JUMPDEST PUSH1 0x0 PUSH2 0x2916 PUSH2 0x2911 DUP5 PUSH2 0x3436 JUMP JUMPDEST PUSH2 0x3411 JUMP JUMPDEST SWAP1 POP DUP3 DUP2 MSTORE PUSH1 0x20 DUP2 ADD DUP5 DUP5 DUP5 ADD GT ISZERO PUSH2 0x2932 JUMPI PUSH2 0x2931 PUSH2 0x37E2 JUMP JUMPDEST JUMPDEST PUSH2 0x293D DUP5 DUP3 DUP6 PUSH2 0x35FA JUMP JUMPDEST POP SWAP4 SWAP3 POP POP POP JUMP JUMPDEST PUSH1 0x0 DUP2 CALLDATALOAD SWAP1 POP PUSH2 0x2954 DUP2 PUSH2 0x3A86 JUMP JUMPDEST SWAP3 SWAP2 POP POP JUMP JUMPDEST PUSH1 0x0 DUP2 CALLDATALOAD SWAP1 POP PUSH2 0x2969 DUP2 PUSH2 0x3A9D JUMP JUMPDEST SWAP3 SWAP2 POP POP JUMP JUMPDEST PUSH1 0x0 DUP1 DUP4 PUSH1 0x1F DUP5 ADD SLT PUSH2 0x2985 JUMPI PUSH2 0x2984 PUSH2 0x37D8 JUMP JUMPDEST JUMPDEST DUP3 CALLDATALOAD SWAP1 POP PUSH8 0xFFFFFFFFFFFFFFFF DUP2 GT ISZERO PUSH2 0x29A2 JUMPI PUSH2 0x29A1 PUSH2 0x37D3 JUMP JUMPDEST JUMPDEST PUSH1 0x20 DUP4 ADD SWAP2 POP DUP4 PUSH1 0x1 DUP3 MUL DUP4 ADD GT ISZERO PUSH2 0x29BE JUMPI PUSH2 0x29BD PUSH2 0x37DD JUMP JUMPDEST JUMPDEST SWAP3 POP SWAP3 SWAP1 POP JUMP JUMPDEST PUSH1 0x0 DUP3 PUSH1 0x1F DUP4 ADD SLT PUSH2 0x29DA JUMPI PUSH2 0x29D9 PUSH2 0x37D8 JUMP JUMPDEST JUMPDEST DUP2 CALLDATALOAD PUSH2 0x29EA DUP5 DUP3 PUSH1 0x20 DUP7 ADD PUSH2 0x2903 JUMP JUMPDEST SWAP2 POP POP SWAP3 SWAP2 POP POP JUMP JUMPDEST PUSH1 0x0 DUP2 CALLDATALOAD SWAP1 POP PUSH2 0x2A02 DUP2 PUSH2 0x3AB4 JUMP JUMPDEST SWAP3 SWAP2 POP POP JUMP JUMPDEST PUSH1 0x0 DUP1 PUSH1 0x0 PUSH1 0x40 DUP5 DUP7 SUB SLT ISZERO PUSH2 0x2A21 JUMPI PUSH2 0x2A20 PUSH2 0x37EC JUMP JUMPDEST JUMPDEST PUSH1 0x0 PUSH2 0x2A2F DUP7 DUP3 DUP8 ADD PUSH2 0x2945 JUMP JUMPDEST SWAP4 POP POP PUSH1 0x20 DUP5 ADD CALLDATALOAD PUSH8 0xFFFFFFFFFFFFFFFF DUP2 GT ISZERO PUSH2 0x2A50 JUMPI PUSH2 0x2A4F PUSH2 0x37E7 JUMP JUMPDEST JUMPDEST PUSH2 0x2A5C DUP7 DUP3 DUP8 ADD PUSH2 0x296F JUMP JUMPDEST SWAP3 POP SWAP3 POP POP SWAP3 POP SWAP3 POP SWAP3 JUMP JUMPDEST PUSH1 0x0 DUP1 PUSH1 0x20 DUP4 DUP6 SUB SLT ISZERO PUSH2 0x2A7F JUMPI PUSH2 0x2A7E PUSH2 0x37EC JUMP JUMPDEST JUMPDEST PUSH1 0x0 DUP4 ADD CALLDATALOAD PUSH8 0xFFFFFFFFFFFFFFFF DUP2 GT ISZERO PUSH2 0x2A9D JUMPI PUSH2 0x2A9C PUSH2 0x37E7 JUMP JUMPDEST JUMPDEST PUSH2 0x2AA9 DUP6 DUP3 DUP7 ADD PUSH2 0x296F JUMP JUMPDEST SWAP3 POP SWAP3 POP POP SWAP3 POP SWAP3 SWAP1 POP JUMP JUMPDEST PUSH1 0x0 PUSH1 0x20 DUP3 DUP5 SUB SLT ISZERO PUSH2 0x2ACB JUMPI PUSH2 0x2ACA PUSH2 0x37EC JUMP JUMPDEST JUMPDEST PUSH1 0x0 DUP3 ADD CALLDATALOAD PUSH8 0xFFFFFFFFFFFFFFFF DUP2 GT ISZERO PUSH2 0x2AE9 JUMPI PUSH2 0x2AE8 PUSH2 0x37E7 JUMP JUMPDEST JUMPDEST PUSH2 0x2AF5 DUP5 DUP3 DUP6 ADD PUSH2 0x29C5 JUMP JUMPDEST SWAP2 POP POP SWAP3 SWAP2 POP POP JUMP JUMPDEST PUSH1 0x0 DUP1 PUSH1 0x40 DUP4 DUP6 SUB SLT ISZERO PUSH2 0x2B15 JUMPI PUSH2 0x2B14 PUSH2 0x37EC JUMP JUMPDEST JUMPDEST PUSH1 0x0 DUP4 ADD CALLDATALOAD PUSH8 0xFFFFFFFFFFFFFFFF DUP2 GT ISZERO PUSH2 0x2B33 JUMPI PUSH2 0x2B32 PUSH2 0x37E7 JUMP JUMPDEST JUMPDEST PUSH2 0x2B3F DUP6 DUP3 DUP7 ADD PUSH2 0x29C5 JUMP JUMPDEST SWAP3 POP POP PUSH1 0x20 PUSH2 0x2B50 DUP6 DUP3 DUP7 ADD PUSH2 0x2945 JUMP JUMPDEST SWAP2 POP POP SWAP3 POP SWAP3 SWAP1 POP JUMP JUMPDEST PUSH1 0x0 DUP1 PUSH1 0x0 PUSH1 0x40 DUP5 DUP7 SUB SLT ISZERO PUSH2 0x2B73 JUMPI PUSH2 0x2B72 PUSH2 0x37EC JUMP JUMPDEST JUMPDEST PUSH1 0x0 DUP5 ADD CALLDATALOAD PUSH8 0xFFFFFFFFFFFFFFFF DUP2 GT ISZERO PUSH2 0x2B91 JUMPI PUSH2 0x2B90 PUSH2 0x37E7 JUMP JUMPDEST JUMPDEST PUSH2 0x2B9D DUP7 DUP3 DUP8 ADD PUSH2 0x29C5 JUMP JUMPDEST SWAP4 POP POP PUSH1 0x20 DUP5 ADD CALLDATALOAD PUSH8 0xFFFFFFFFFFFFFFFF DUP2 GT ISZERO PUSH2 0x2BBE JUMPI PUSH2 0x2BBD PUSH2 0x37E7 JUMP JUMPDEST JUMPDEST PUSH2 0x2BCA DUP7 DUP3 DUP8 ADD PUSH2 0x296F JUMP JUMPDEST SWAP3 POP SWAP3 POP POP SWAP3 POP SWAP3 POP SWAP3 JUMP JUMPDEST PUSH1 0x0 DUP1 PUSH1 0x40 DUP4 DUP6 SUB SLT ISZERO PUSH2 0x2BED JUMPI PUSH2 0x2BEC PUSH2 0x37EC JUMP JUMPDEST JUMPDEST PUSH1 0x0 DUP4 ADD CALLDATALOAD PUSH8 0xFFFFFFFFFFFFFFFF DUP2 GT ISZERO PUSH2 0x2C0B JUMPI PUSH2 0x2C0A PUSH2 0x37E7 JUMP JUMPDEST JUMPDEST PUSH2 0x2C17 DUP6 DUP3 DUP7 ADD PUSH2 0x29C5 JUMP JUMPDEST SWAP3 POP POP PUSH1 0x20 PUSH2 0x2C28 DUP6 DUP3 DUP7 ADD PUSH2 0x29F3 JUMP JUMPDEST SWAP2 POP POP SWAP3 POP SWAP3 SWAP1 POP JUMP JUMPDEST PUSH1 0x0 DUP1 PUSH1 0x0 DUP1 PUSH1 0x80 DUP6 DUP8 SUB SLT ISZERO PUSH2 0x2C4C JUMPI PUSH2 0x2C4B PUSH2 0x37EC JUMP JUMPDEST JUMPDEST PUSH1 0x0 DUP6 ADD CALLDATALOAD PUSH8 0xFFFFFFFFFFFFFFFF DUP2 GT ISZERO PUSH2 0x2C6A JUMPI PUSH2 0x2C69 PUSH2 0x37E7 JUMP JUMPDEST JUMPDEST PUSH2 0x2C76 DUP8 DUP3 DUP9 ADD PUSH2 0x29C5 JUMP JUMPDEST SWAP5 POP POP PUSH1 0x20 PUSH2 0x2C87 DUP8 DUP3 DUP9 ADD PUSH2 0x29F3 JUMP JUMPDEST SWAP4 POP POP PUSH1 0x40 PUSH2 0x2C98 DUP8 DUP3 DUP9 ADD PUSH2 0x29F3 JUMP JUMPDEST SWAP3 POP POP PUSH1 0x60 PUSH2 0x2CA9 DUP8 DUP3 DUP9 ADD PUSH2 0x295A JUMP JUMPDEST SWAP2 POP POP SWAP3 SWAP6 SWAP2 SWAP5 POP SWAP3 POP JUMP JUMPDEST PUSH1 0x0 DUP1 PUSH1 0x0 DUP1 PUSH1 0x0 DUP1 PUSH1 0xC0 DUP8 DUP10 SUB SLT ISZERO PUSH2 0x2CD2 JUMPI PUSH2 0x2CD1 PUSH2 0x37EC JUMP JUMPDEST JUMPDEST PUSH1 0x0 DUP8 ADD CALLDATALOAD PUSH8 0xFFFFFFFFFFFFFFFF DUP2 GT ISZERO PUSH2 0x2CF0 JUMPI PUSH2 0x2CEF PUSH2 0x37E7 JUMP JUMPDEST JUMPDEST PUSH2 0x2CFC DUP10 DUP3 DUP11 ADD PUSH2 0x29C5 JUMP JUMPDEST SWAP7 POP POP PUSH1 0x20 PUSH2 0x2D0D DUP10 DUP3 DUP11 ADD PUSH2 0x29F3 JUMP JUMPDEST SWAP6 POP POP PUSH1 0x40 PUSH2 0x2D1E DUP10 DUP3 DUP11 ADD PUSH2 0x29F3 JUMP JUMPDEST SWAP5 POP POP PUSH1 0x60 PUSH2 0x2D2F DUP10 DUP3 DUP11 ADD PUSH2 0x295A JUMP JUMPDEST SWAP4 POP POP PUSH1 0x80 DUP8 ADD CALLDATALOAD PUSH8 0xFFFFFFFFFFFFFFFF DUP2 GT ISZERO PUSH2 0x2D50 JUMPI PUSH2 0x2D4F PUSH2 0x37E7 JUMP JUMPDEST JUMPDEST PUSH2 0x2D5C DUP10 DUP3 DUP11 ADD PUSH2 0x29C5 JUMP JUMPDEST SWAP3 POP POP PUSH1 0xA0 DUP8 ADD CALLDATALOAD PUSH8 0xFFFFFFFFFFFFFFFF DUP2 GT ISZERO PUSH2 0x2D7D JUMPI PUSH2 0x2D7C PUSH2 0x37E7 JUMP JUMPDEST JUMPDEST PUSH2 0x2D89 DUP10 DUP3 DUP11 ADD PUSH2 0x29C5 JUMP JUMPDEST SWAP2 POP POP SWAP3 SWAP6 POP SWAP3 SWAP6 POP SWAP3 SWAP6 JUMP JUMPDEST PUSH1 0x0 PUSH2 0x2DA2 DUP4 DUP4 PUSH2 0x308A JUMP JUMPDEST PUSH1 0x60 DUP4 ADD SWAP1 POP SWAP3 SWAP2 POP POP JUMP JUMPDEST PUSH2 0x2DB7 DUP2 PUSH2 0x35A8 JUMP JUMPDEST DUP3 MSTORE POP POP JUMP JUMPDEST PUSH2 0x2DC6 DUP2 PUSH2 0x35A8 JUMP JUMPDEST DUP3 MSTORE POP POP JUMP JUMPDEST PUSH1 0x0 PUSH2 0x2DD7 DUP3 PUSH2 0x3477 JUMP JUMPDEST PUSH2 0x2DE1 DUP2 DUP6 PUSH2 0x349A JUMP JUMPDEST SWAP4 POP PUSH2 0x2DEC DUP4 PUSH2 0x3467 JUMP JUMPDEST DUP1 PUSH1 0x0 JUMPDEST DUP4 DUP2 LT ISZERO PUSH2 0x2E1D JUMPI DUP2 MLOAD PUSH2 0x2E04 DUP9 DUP3 PUSH2 0x2D96 JUMP JUMPDEST SWAP8 POP PUSH2 0x2E0F DUP4 PUSH2 0x348D JUMP JUMPDEST SWAP3 POP POP PUSH1 0x1 DUP2 ADD SWAP1 POP PUSH2 0x2DF0 JUMP JUMPDEST POP DUP6 SWAP4 POP POP POP POP SWAP3 SWAP2 POP POP JUMP JUMPDEST PUSH2 0x2E33 DUP2 PUSH2 0x35BA JUMP JUMPDEST DUP3 MSTORE POP POP JUMP JUMPDEST PUSH2 0x2E42 DUP2 PUSH2 0x35BA JUMP JUMPDEST DUP3 MSTORE POP POP JUMP JUMPDEST PUSH2 0x2E51 DUP2 PUSH2 0x35C6 JUMP JUMPDEST DUP3 MSTORE POP POP JUMP JUMPDEST PUSH1 0x0 PUSH2 0x2E63 DUP4 DUP6 PUSH2 0x34BC JUMP JUMPDEST SWAP4 POP PUSH2 0x2E70 DUP4 DUP6 DUP5 PUSH2 0x35FA JUMP JUMPDEST DUP3 DUP5 ADD SWAP1 POP SWAP4 SWAP3 POP POP POP JUMP JUMPDEST PUSH1 0x0 PUSH2 0x2E87 DUP3 PUSH2 0x3482 JUMP JUMPDEST PUSH2 0x2E91 DUP2 DUP6 PUSH2 0x34AB JUMP JUMPDEST SWAP4 POP PUSH2 0x2EA1 DUP2 DUP6 PUSH1 0x20 DUP7 ADD PUSH2 0x3609 JUMP JUMPDEST PUSH2 0x2EAA DUP2 PUSH2 0x37F1 JUMP JUMPDEST DUP5 ADD SWAP2 POP POP SWAP3 SWAP2 POP POP JUMP JUMPDEST PUSH1 0x0 PUSH2 0x2EC0 DUP3 PUSH2 0x3482 JUMP JUMPDEST PUSH2 0x2ECA DUP2 DUP6 PUSH2 0x34BC JUMP JUMPDEST SWAP4 POP PUSH2 0x2EDA DUP2 DUP6 PUSH1 0x20 DUP7 ADD PUSH2 0x3609 JUMP JUMPDEST DUP1 DUP5 ADD SWAP2 POP POP SWAP3 SWAP2 POP POP JUMP JUMPDEST PUSH1 0x0 PUSH2 0x2EF3 PUSH1 0x1F DUP4 PUSH2 0x34AB JUMP JUMPDEST SWAP2 POP PUSH2 0x2EFE DUP3 PUSH2 0x3802 JUMP JUMPDEST PUSH1 0x20 DUP3 ADD SWAP1 POP SWAP2 SWAP1 POP JUMP JUMPDEST PUSH1 0x0 PUSH2 0x2F16 PUSH1 0x19 DUP4 PUSH2 0x34AB JUMP JUMPDEST SWAP2 POP PUSH2 0x2F21 DUP3 PUSH2 0x382B JUMP JUMPDEST PUSH1 0x20 DUP3 ADD SWAP1 POP SWAP2 SWAP1 POP JUMP JUMPDEST PUSH1 0x0 PUSH2 0x2F39 PUSH1 0x26 DUP4 PUSH2 0x34AB JUMP JUMPDEST SWAP2 POP PUSH2 0x2F44 DUP3 PUSH2 0x3854 JUMP JUMPDEST PUSH1 0x40 DUP3 ADD SWAP1 POP SWAP2 SWAP1 POP JUMP JUMPDEST PUSH1 0x0 PUSH2 0x2F5C PUSH1 0x1C DUP4 PUSH2 0x34AB JUMP JUMPDEST SWAP2 POP PUSH2 0x2F67 DUP3 PUSH2 0x38A3 JUMP JUMPDEST PUSH1 0x20 DUP3 ADD SWAP1 POP SWAP2 SWAP1 POP JUMP JUMPDEST PUSH1 0x0 PUSH2 0x2F7F PUSH1 0x15 DUP4 PUSH2 0x34AB JUMP JUMPDEST SWAP2 POP PUSH2 0x2F8A DUP3 PUSH2 0x38CC JUMP JUMPDEST PUSH1 0x20 DUP3 ADD SWAP1 POP SWAP2 SWAP1 POP JUMP JUMPDEST PUSH1 0x0 PUSH2 0x2FA2 PUSH1 0x1E DUP4 PUSH2 0x34AB JUMP JUMPDEST SWAP2 POP PUSH2 0x2FAD DUP3 PUSH2 0x38F5 JUMP JUMPDEST PUSH1 0x20 DUP3 ADD SWAP1 POP SWAP2 SWAP1 POP JUMP JUMPDEST PUSH1 0x0 PUSH2 0x2FC5 PUSH1 0x24 DUP4 PUSH2 0x34AB JUMP JUMPDEST SWAP2 POP PUSH2 0x2FD0 DUP3 PUSH2 0x391E JUMP JUMPDEST PUSH1 0x40 DUP3 ADD SWAP1 POP SWAP2 SWAP1 POP JUMP JUMPDEST PUSH1 0x0 PUSH2 0x2FE8 PUSH1 0x28 DUP4 PUSH2 0x34AB JUMP JUMPDEST SWAP2 POP PUSH2 0x2FF3 DUP3 PUSH2 0x396D JUMP JUMPDEST PUSH1 0x40 DUP3 ADD SWAP1 POP SWAP2 SWAP1 POP JUMP JUMPDEST PUSH1 0x0 PUSH2 0x300B PUSH1 0x14 DUP4 PUSH2 0x34AB JUMP JUMPDEST SWAP2 POP PUSH2 0x3016 DUP3 PUSH2 0x39BC JUMP JUMPDEST PUSH1 0x20 DUP3 ADD SWAP1 POP SWAP2 SWAP1 POP JUMP JUMPDEST PUSH1 0x0 PUSH2 0x302E PUSH1 0x20 DUP4 PUSH2 0x34AB JUMP JUMPDEST SWAP2 POP PUSH2 0x3039 DUP3 PUSH2 0x39E5 JUMP JUMPDEST PUSH1 0x20 DUP3 ADD SWAP1 POP SWAP2 SWAP1 POP JUMP JUMPDEST PUSH1 0x0 PUSH2 0x3051 PUSH1 0x12 DUP4 PUSH2 0x34AB JUMP JUMPDEST SWAP2 POP PUSH2 0x305C DUP3 PUSH2 0x3A0E JUMP JUMPDEST PUSH1 0x20 DUP3 ADD SWAP1 POP SWAP2 SWAP1 POP JUMP JUMPDEST PUSH1 0x0 PUSH2 0x3074 PUSH1 0x25 DUP4 PUSH2 0x34AB JUMP JUMPDEST SWAP2 POP PUSH2 0x307F DUP3 PUSH2 0x3A37 JUMP JUMPDEST PUSH1 0x40 DUP3 ADD SWAP1 POP SWAP2 SWAP1 POP JUMP JUMPDEST PUSH1 0x60 DUP3 ADD PUSH1 0x0 DUP3 ADD MLOAD PUSH2 0x30A0 PUSH1 0x0 DUP6 ADD DUP3 PUSH2 0x2E2A JUMP JUMPDEST POP PUSH1 0x20 DUP3 ADD MLOAD PUSH2 0x30B3 PUSH1 0x20 DUP6 ADD DUP3 PUSH2 0x2E2A JUMP JUMPDEST POP PUSH1 0x40 DUP3 ADD MLOAD PUSH2 0x30C6 PUSH1 0x40 DUP6 ADD DUP3 PUSH2 0x2DAE JUMP JUMPDEST POP POP POP POP JUMP JUMPDEST PUSH2 0x30D5 DUP2 PUSH2 0x35F0 JUMP JUMPDEST DUP3 MSTORE POP POP JUMP JUMPDEST PUSH1 0x0 PUSH2 0x30E8 DUP3 DUP5 DUP7 PUSH2 0x2E57 JUMP JUMPDEST SWAP2 POP DUP2 SWAP1 POP SWAP4 SWAP3 POP POP POP JUMP JUMPDEST PUSH1 0x0 PUSH2 0x3100 DUP3 DUP5 PUSH2 0x2EB5 JUMP JUMPDEST SWAP2 POP DUP2 SWAP1 POP SWAP3 SWAP2 POP POP JUMP JUMPDEST PUSH1 0x0 PUSH1 0x20 DUP3 ADD SWAP1 POP PUSH2 0x3120 PUSH1 0x0 DUP4 ADD DUP5 PUSH2 0x2DBD JUMP JUMPDEST SWAP3 SWAP2 POP POP JUMP JUMPDEST PUSH1 0x0 PUSH1 0x20 DUP3 ADD SWAP1 POP PUSH2 0x313B PUSH1 0x0 DUP4 ADD DUP5 PUSH2 0x2E39 JUMP JUMPDEST SWAP3 SWAP2 POP POP JUMP JUMPDEST PUSH1 0x0 PUSH1 0x60 DUP3 ADD SWAP1 POP PUSH2 0x3156 PUSH1 0x0 DUP4 ADD DUP7 PUSH2 0x2E39 JUMP JUMPDEST PUSH2 0x3163 PUSH1 0x20 DUP4 ADD DUP6 PUSH2 0x2E39 JUMP JUMPDEST PUSH2 0x3170 PUSH1 0x40 DUP4 ADD DUP5 PUSH2 0x2DBD JUMP JUMPDEST SWAP5 SWAP4 POP POP POP POP JUMP JUMPDEST PUSH1 0x0 PUSH1 0x60 DUP3 ADD SWAP1 POP PUSH2 0x318D PUSH1 0x0 DUP4 ADD DUP7 PUSH2 0x2E39 JUMP JUMPDEST PUSH2 0x319A PUSH1 0x20 DUP4 ADD DUP6 PUSH2 0x2E39 JUMP JUMPDEST PUSH2 0x31A7 PUSH1 0x40 DUP4 ADD DUP5 PUSH2 0x2E39 JUMP JUMPDEST SWAP5 SWAP4 POP POP POP POP JUMP JUMPDEST PUSH1 0x0 PUSH1 0x80 DUP3 ADD SWAP1 POP PUSH2 0x31C4 PUSH1 0x0 DUP4 ADD DUP8 PUSH2 0x2E39 JUMP JUMPDEST DUP2 DUP2 SUB PUSH1 0x20 DUP4 ADD MSTORE PUSH2 0x31D6 DUP2 DUP7 PUSH2 0x2E7C JUMP JUMPDEST SWAP1 POP PUSH2 0x31E5 PUSH1 0x40 DUP4 ADD DUP6 PUSH2 0x30CC JUMP JUMPDEST DUP2 DUP2 SUB PUSH1 0x60 DUP4 ADD MSTORE PUSH2 0x31F7 DUP2 DUP5 PUSH2 0x2DCC JUMP JUMPDEST SWAP1 POP SWAP6 SWAP5 POP POP POP POP POP JUMP JUMPDEST PUSH1 0x0 PUSH1 0x20 DUP3 ADD SWAP1 POP PUSH2 0x3217 PUSH1 0x0 DUP4 ADD DUP5 PUSH2 0x2E48 JUMP JUMPDEST SWAP3 SWAP2 POP POP JUMP JUMPDEST PUSH1 0x0 PUSH1 0x20 DUP3 ADD SWAP1 POP DUP2 DUP2 SUB PUSH1 0x0 DUP4 ADD MSTORE PUSH2 0x3237 DUP2 DUP5 PUSH2 0x2E7C JUMP JUMPDEST SWAP1 POP SWAP3 SWAP2 POP POP JUMP JUMPDEST PUSH1 0x0 PUSH1 0x40 DUP3 ADD SWAP1 POP DUP2 DUP2 SUB PUSH1 0x0 DUP4 ADD MSTORE PUSH2 0x3259 DUP2 DUP6 PUSH2 0x2E7C JUMP JUMPDEST SWAP1 POP DUP2 DUP2 SUB PUSH1 0x20 DUP4 ADD MSTORE PUSH2 0x326D DUP2 DUP5 PUSH2 0x2E7C JUMP JUMPDEST SWAP1 POP SWAP4 SWAP3 POP POP POP JUMP JUMPDEST PUSH1 0x0 PUSH1 0x20 DUP3 ADD SWAP1 POP DUP2 DUP2 SUB PUSH1 0x0 DUP4 ADD MSTORE PUSH2 0x328F DUP2 PUSH2 0x2EE6 JUMP JUMPDEST SWAP1 POP SWAP2 SWAP1 POP JUMP JUMPDEST PUSH1 0x0 PUSH1 0x20 DUP3 ADD SWAP1 POP DUP2 DUP2 SUB PUSH1 0x0 DUP4 ADD MSTORE PUSH2 0x32AF DUP2 PUSH2 0x2F09 JUMP JUMPDEST SWAP1 POP SWAP2 SWAP1 POP JUMP JUMPDEST PUSH1 0x0 PUSH1 0x20 DUP3 ADD SWAP1 POP DUP2 DUP2 SUB PUSH1 0x0 DUP4 ADD MSTORE PUSH2 0x32CF DUP2 PUSH2 0x2F2C JUMP JUMPDEST SWAP1 POP SWAP2 SWAP1 POP JUMP JUMPDEST PUSH1 0x0 PUSH1 0x20 DUP3 ADD SWAP1 POP DUP2 DUP2 SUB PUSH1 0x0 DUP4 ADD MSTORE PUSH2 0x32EF DUP2 PUSH2 0x2F4F JUMP JUMPDEST SWAP1 POP SWAP2 SWAP1 POP JUMP JUMPDEST PUSH1 0x0 PUSH1 0x20 DUP3 ADD SWAP1 POP DUP2 DUP2 SUB PUSH1 0x0 DUP4 ADD MSTORE PUSH2 0x330F DUP2 PUSH2 0x2F72 JUMP JUMPDEST SWAP1 POP SWAP2 SWAP1 POP JUMP JUMPDEST PUSH1 0x0 PUSH1 0x20 DUP3 ADD SWAP1 POP DUP2 DUP2 SUB PUSH1 0x0 DUP4 ADD MSTORE PUSH2 0x332F DUP2 PUSH2 0x2F95 JUMP JUMPDEST SWAP1 POP SWAP2 SWAP1 POP JUMP JUMPDEST PUSH1 0x0 PUSH1 0x20 DUP3 ADD SWAP1 POP DUP2 DUP2 SUB PUSH1 0x0 DUP4 ADD MSTORE PUSH2 0x334F DUP2 PUSH2 0x2FB8 JUMP JUMPDEST SWAP1 POP SWAP2 SWAP1 POP JUMP JUMPDEST PUSH1 0x0 PUSH1 0x20 DUP3 ADD SWAP1 POP DUP2 DUP2 SUB PUSH1 0x0 DUP4 ADD MSTORE PUSH2 0x336F DUP2 PUSH2 0x2FDB JUMP JUMPDEST SWAP1 POP SWAP2 SWAP1 POP JUMP JUMPDEST PUSH1 0x0 PUSH1 0x20 DUP3 ADD SWAP1 POP DUP2 DUP2 SUB PUSH1 0x0 DUP4 ADD MSTORE PUSH2 0x338F DUP2 PUSH2 0x2FFE JUMP JUMPDEST SWAP1 POP SWAP2 SWAP1 POP JUMP JUMPDEST PUSH1 0x0 PUSH1 0x20 DUP3 ADD SWAP1 POP DUP2 DUP2 SUB PUSH1 0x0 DUP4 ADD MSTORE PUSH2 0x33AF DUP2 PUSH2 0x3021 JUMP JUMPDEST SWAP1 POP SWAP2 SWAP1 POP JUMP JUMPDEST PUSH1 0x0 PUSH1 0x20 DUP3 ADD SWAP1 POP DUP2 DUP2 SUB PUSH1 0x0 DUP4 ADD MSTORE PUSH2 0x33CF DUP2 PUSH2 0x3044 JUMP JUMPDEST SWAP1 POP SWAP2 SWAP1 POP JUMP JUMPDEST PUSH1 0x0 PUSH1 0x20 DUP3 ADD SWAP1 POP DUP2 DUP2 SUB PUSH1 0x0 DUP4 ADD MSTORE PUSH2 0x33EF DUP2 PUSH2 0x3067 JUMP JUMPDEST SWAP1 POP SWAP2 SWAP1 POP JUMP JUMPDEST PUSH1 0x0 PUSH1 0x20 DUP3 ADD SWAP1 POP PUSH2 0x340B PUSH1 0x0 DUP4 ADD DUP5 PUSH2 0x30CC JUMP JUMPDEST SWAP3 SWAP2 POP POP JUMP JUMPDEST PUSH1 0x0 PUSH2 0x341B PUSH2 0x342C JUMP JUMPDEST SWAP1 POP PUSH2 0x3427 DUP3 DUP3 PUSH2 0x366E JUMP JUMPDEST SWAP2 SWAP1 POP JUMP JUMPDEST PUSH1 0x0 PUSH1 0x40 MLOAD SWAP1 POP SWAP1 JUMP JUMPDEST PUSH1 0x0 PUSH8 0xFFFFFFFFFFFFFFFF DUP3 GT ISZERO PUSH2 0x3451 JUMPI PUSH2 0x3450 PUSH2 0x37A4 JUMP JUMPDEST JUMPDEST PUSH2 0x345A DUP3 PUSH2 0x37F1 JUMP JUMPDEST SWAP1 POP PUSH1 0x20 DUP2 ADD SWAP1 POP SWAP2 SWAP1 POP JUMP JUMPDEST PUSH1 0x0 DUP2 SWAP1 POP PUSH1 0x20 DUP3 ADD SWAP1 POP SWAP2 SWAP1 POP JUMP JUMPDEST PUSH1 0x0 DUP2 MLOAD SWAP1 POP SWAP2 SWAP1 POP JUMP JUMPDEST PUSH1 0x0 DUP2 MLOAD SWAP1 POP SWAP2 SWAP1 POP JUMP JUMPDEST PUSH1 0x0 PUSH1 0x20 DUP3 ADD SWAP1 POP SWAP2 SWAP1 POP JUMP JUMPDEST PUSH1 0x0 DUP3 DUP3 MSTORE PUSH1 0x20 DUP3 ADD SWAP1 POP SWAP3 SWAP2 POP POP JUMP JUMPDEST PUSH1 0x0 DUP3 DUP3 MSTORE PUSH1 0x20 DUP3 ADD SWAP1 POP SWAP3 SWAP2 POP POP JUMP JUMPDEST PUSH1 0x0 DUP2 SWAP1 POP SWAP3 SWAP2 POP POP JUMP JUMPDEST PUSH1 0x0 PUSH2 0x34D2 DUP3 PUSH2 0x35F0 JUMP JUMPDEST SWAP2 POP PUSH2 0x34DD DUP4 PUSH2 0x35F0 JUMP JUMPDEST SWAP3 POP DUP3 PUSH32 0xFFFFFFFFFFFFFFFFFFFFFFFFFFFFFFFFFFFFFFFFFFFFFFFFFFFFFFFFFFFFFFFF SUB DUP3 GT ISZERO PUSH2 0x3512 JUMPI PUSH2 0x3511 PUSH2 0x36E8 JUMP JUMPDEST JUMPDEST DUP3 DUP3 ADD SWAP1 POP SWAP3 SWAP2 POP POP JUMP JUMPDEST PUSH1 0x0 PUSH2 0x3528 DUP3 PUSH2 0x35F0 JUMP JUMPDEST SWAP2 POP PUSH2 0x3533 DUP4 PUSH2 0x35F0 JUMP JUMPDEST SWAP3 POP DUP3 PUSH2 0x3543 JUMPI PUSH2 0x3542 PUSH2 0x3717 JUMP JUMPDEST JUMPDEST DUP3 DUP3 DIV SWAP1 POP SWAP3 SWAP2 POP POP JUMP JUMPDEST PUSH1 0x0 PUSH2 0x3559 DUP3 PUSH2 0x35F0 JUMP JUMPDEST SWAP2 POP PUSH2 0x3564 DUP4 PUSH2 0x35F0 JUMP JUMPDEST SWAP3 POP DUP2 PUSH32 0xFFFFFFFFFFFFFFFFFFFFFFFFFFFFFFFFFFFFFFFFFFFFFFFFFFFFFFFFFFFFFFFF DIV DUP4 GT DUP3 ISZERO ISZERO AND ISZERO PUSH2 0x359D JUMPI PUSH2 0x359C PUSH2 0x36E8 JUMP JUMPDEST JUMPDEST DUP3 DUP3 MUL SWAP1 POP SWAP3 SWAP2 POP POP JUMP JUMPDEST PUSH1 0x0 PUSH2 0x35B3 DUP3 PUSH2 0x35D0 JUMP JUMPDEST SWAP1 POP SWAP2 SWAP1 POP JUMP JUMPDEST PUSH1 0x0 DUP2 ISZERO ISZERO SWAP1 POP SWAP2 SWAP1 POP JUMP JUMPDEST PUSH1 0x0 DUP2 SWAP1 POP SWAP2 SWAP1 POP JUMP JUMPDEST PUSH1 0x0 PUSH20 0xFFFFFFFFFFFFFFFFFFFFFFFFFFFFFFFFFFFFFFFF DUP3 AND SWAP1 POP SWAP2 SWAP1 POP JUMP JUMPDEST PUSH1 0x0 DUP2 SWAP1 POP SWAP2 SWAP1 POP JUMP JUMPDEST DUP3 DUP2 DUP4 CALLDATACOPY PUSH1 0x0 DUP4 DUP4 ADD MSTORE POP POP POP JUMP JUMPDEST PUSH1 0x0 JUMPDEST DUP4 DUP2 LT ISZERO PUSH2 0x3627 JUMPI DUP1 DUP3 ADD MLOAD DUP2 DUP5 ADD MSTORE PUSH1 0x20 DUP2 ADD SWAP1 POP PUSH2 0x360C JUMP JUMPDEST DUP4 DUP2 GT ISZERO PUSH2 0x3636 JUMPI PUSH1 0x0 DUP5 DUP5 ADD MSTORE JUMPDEST POP POP POP POP JUMP JUMPDEST PUSH1 0x0 PUSH1 0x2 DUP3 DIV SWAP1 POP PUSH1 0x1 DUP3 AND DUP1 PUSH2 0x3654 JUMPI PUSH1 0x7F DUP3 AND SWAP2 POP JUMPDEST PUSH1 0x20 DUP3 LT DUP2 EQ ISZERO PUSH2 0x3668 JUMPI PUSH2 0x3667 PUSH2 0x3746 JUMP JUMPDEST JUMPDEST POP SWAP2 SWAP1 POP JUMP JUMPDEST PUSH2 0x3677 DUP3 PUSH2 0x37F1 JUMP JUMPDEST DUP2 ADD DUP2 DUP2 LT PUSH8 0xFFFFFFFFFFFFFFFF DUP3 GT OR ISZERO PUSH2 0x3696 JUMPI PUSH2 0x3695 PUSH2 0x37A4 JUMP JUMPDEST JUMPDEST DUP1 PUSH1 0x40 MSTORE POP POP POP JUMP JUMPDEST PUSH1 0x0 PUSH2 0x36AA DUP3 PUSH2 0x35F0 JUMP JUMPDEST SWAP2 POP PUSH32 0xFFFFFFFFFFFFFFFFFFFFFFFFFFFFFFFFFFFFFFFFFFFFFFFFFFFFFFFFFFFFFFFF DUP3 EQ ISZERO PUSH2 0x36DD JUMPI PUSH2 0x36DC PUSH2 0x36E8 JUMP JUMPDEST JUMPDEST PUSH1 0x1 DUP3 ADD SWAP1 POP SWAP2 SWAP1 POP JUMP JUMPDEST PUSH32 0x4E487B7100000000000000000000000000000000000000000000000000000000 PUSH1 0x0 MSTORE PUSH1 0x11 PUSH1 0x4 MSTORE PUSH1 0x24 PUSH1 0x0 REVERT JUMPDEST PUSH32 0x4E487B7100000000000000000000000000000000000000000000000000000000 PUSH1 0x0 MSTORE PUSH1 0x12 PUSH1 0x4 MSTORE PUSH1 0x24 PUSH1 0x0 REVERT JUMPDEST PUSH32 0x4E487B7100000000000000000000000000000000000000000000000000000000 PUSH1 0x0 MSTORE PUSH1 0x22 PUSH1 0x4 MSTORE PUSH1 0x24 PUSH1 0x0 REVERT JUMPDEST PUSH32 0x4E487B7100000000000000000000000000000000000000000000000000000000 PUSH1 0x0 MSTORE PUSH1 0x32 PUSH1 0x4 MSTORE PUSH1 0x24 PUSH1 0x0 REVERT JUMPDEST PUSH32 0x4E487B7100000000000000000000000000000000000000000000000000000000 PUSH1 0x0 MSTORE PUSH1 0x41 PUSH1 0x4 MSTORE PUSH1 0x24 PUSH1 0x0 REVERT JUMPDEST PUSH1 0x0 DUP1 REVERT JUMPDEST PUSH1 0x0 DUP1 REVERT JUMPDEST PUSH1 0x0 DUP1 REVERT JUMPDEST PUSH1 0x0 DUP1 REVERT JUMPDEST PUSH1 0x0 DUP1 REVERT JUMPDEST PUSH1 0x0 DUP1 REVERT JUMPDEST PUSH1 0x0 PUSH1 0x1F NOT PUSH1 0x1F DUP4 ADD AND SWAP1 POP SWAP2 SWAP1 POP JUMP JUMPDEST PUSH32 0x526563697069656E7420697320616C7265616479207265676973746572656400 PUSH1 0x0 DUP3 ADD MSTORE POP JUMP JUMPDEST PUSH32 0x50726F706F73616C20616C726561647920637265617465642100000000000000 PUSH1 0x0 DUP3 ADD MSTORE POP JUMP JUMPDEST PUSH32 0x596F75206172656E277420617574686F72697A6520746F20636F6D70696C6520 PUSH1 0x0 DUP3 ADD MSTORE PUSH32 0x42756E646C650000000000000000000000000000000000000000000000000000 PUSH1 0x20 DUP3 ADD MSTORE POP JUMP JUMPDEST PUSH32 0x596F7520616C72656164792073656E74206120726573706F6E73652E00000000 PUSH1 0x0 DUP3 ADD MSTORE POP JUMP JUMPDEST PUSH32 0x496E69746961746F722063616E277420766F7465210000000000000000000000 PUSH1 0x0 DUP3 ADD MSTORE POP JUMP JUMPDEST PUSH32 0x596F7520617265206E6F74207265676973746572656420746F20766F74650000 PUSH1 0x0 DUP3 ADD MSTORE POP JUMP JUMPDEST PUSH32 0x50726F706F73616C206861732072656163686564206974732065787069727920 PUSH1 0x0 DUP3 ADD MSTORE PUSH32 0x6461746500000000000000000000000000000000000000000000000000000000 PUSH1 0x20 DUP3 ADD MSTORE POP JUMP JUMPDEST PUSH32 0x4F6E6C7920696E69746961746F722063616E2072656769737465722061207265 PUSH1 0x0 DUP3 ADD MSTORE PUSH32 0x63697069656E742E000000000000000000000000000000000000000000000000 PUSH1 0x20 DUP3 ADD MSTORE POP JUMP JUMPDEST PUSH32 0x596F75206172656E277420496E69746961746F72000000000000000000000000 PUSH1 0x0 DUP3 ADD MSTORE POP JUMP JUMPDEST PUSH32 0x5665726469637420686173206E6F74206265656E207265616368656420796574 PUSH1 0x0 DUP3 ADD MSTORE POP JUMP JUMPDEST PUSH32 0x566F74696E672068617320657870697265640000000000000000000000000000 PUSH1 0x0 DUP3 ADD MSTORE POP JUMP JUMPDEST PUSH32 0x436F6E73656E7375732068617320616C7265616479206265656E2063616C6375 PUSH1 0x0 DUP3 ADD MSTORE PUSH32 0x6C61746564000000000000000000000000000000000000000000000000000000 PUSH1 0x20 DUP3 ADD MSTORE POP JUMP JUMPDEST PUSH2 0x3A8F DUP2 PUSH2 0x35A8 JUMP JUMPDEST DUP2 EQ PUSH2 0x3A9A JUMPI PUSH1 0x0 DUP1 REVERT JUMPDEST POP JUMP JUMPDEST PUSH2 0x3AA6 DUP2 PUSH2 0x35C6 JUMP JUMPDEST DUP2 EQ PUSH2 0x3AB1 JUMPI PUSH1 0x0 DUP1 REVERT JUMPDEST POP JUMP JUMPDEST PUSH2 0x3ABD DUP2 PUSH2 0x35F0 JUMP JUMPDEST DUP2 EQ PUSH2 0x3AC8 JUMPI PUSH1 0x0 DUP1 REVERT JUMPDEST POP JUMP INVALID LOG2 PUSH5 0x6970667358 0x22 SLT KECCAK256 0xB0 DUP12 0xD1 SWAP2 PUSH15 0x693691C56A344D2D71072787CFD17E DUP4 CODESIZE 0xAA 0x4B 0xBC 0xC5 0xB1 0x22 LOG1 0xD4 SWAP14 SWAP13 PUSH5 0x736F6C6343 STOP ADDMOD SMOD STOP CALLER "
				},
				"gasEstimates": {
					"creation": {
						"codeDepositCost": "3021000",
						"executionCost": "3325",
						"totalCost": "3024325"
					},
					"external": {
						"Consensus(string)": "infinite",
						"IDs(string)": "infinite",
						"RegisterVoter(address,string)": "infinite",
						"Vote(string,string)": "infinite",
						"Voters(string,uint256)": "infinite",
						"businessRequirements(string)": "infinite",
						"checkConsistency(string,uint256,uint256,bytes32)": "infinite",
						"contents(string)": "infinite",
						"createContract(string,uint256,uint256,bytes32,string,string)": "infinite",
						"expiryDates(string)": "infinite",
						"expiryLengths(string)": "infinite",
						"finalVerdicts(string)": "infinite",
						"getIsCompiled(string)": "infinite",
						"getIsCreated(string)": "infinite",
						"initiators(string)": "infinite",
						"isCompiled(string)": "infinite",
						"keys(string,uint256)": "infinite",
						"messageDates(string)": "infinite",
						"numApprovals(string)": "infinite",
						"retrieve_bundle(string)": "infinite",
						"subjects(string)": "infinite",
						"voteCounts(string)": "infinite",
						"voter_maps(string,address)": "infinite"
					}
				},
				"methodIdentifiers": {
					"Consensus(string)": "883a9673",
					"IDs(string)": "11c2b413",
					"RegisterVoter(address,string)": "3d63af0e",
					"Vote(string,string)": "17072d6b",
					"Voters(string,uint256)": "8f6a35b7",
					"businessRequirements(string)": "c5539b03",
					"checkConsistency(string,uint256,uint256,bytes32)": "9d6a3125",
					"contents(string)": "a6acce35",
					"createContract(string,uint256,uint256,bytes32,string,string)": "7aa18f88",
					"expiryDates(string)": "538b3cc6",
					"expiryLengths(string)": "bb9a31f3",
					"finalVerdicts(string)": "233d0fa1",
					"getIsCompiled(string)": "ec548680",
					"getIsCreated(string)": "c9bc42ed",
					"initiators(string)": "e5c8d65f",
					"isCompiled(string)": "31189fe2",
					"keys(string,uint256)": "06699b01",
					"messageDates(string)": "8a3b0d02",
					"numApprovals(string)": "931da6b3",
					"retrieve_bundle(string)": "37f2e190",
					"subjects(string)": "fe290423",
					"voteCounts(string)": "4205717d",
					"voter_maps(string,address)": "33a0b0ab"
				}
			},
			"storageLayout": {
				"storage": [
					{
						"astId": 12,
						"contract": "contracts/BusinessConsensus3.sol:BusinessConsensus3",
						"label": "initiators",
						"offset": 0,
						"slot": "0",
						"type": "t_mapping(t_string_memory_ptr,t_address)"
					},
					{
						"astId": 16,
						"contract": "contracts/BusinessConsensus3.sol:BusinessConsensus3",
						"label": "IDs",
						"offset": 0,
						"slot": "1",
						"type": "t_mapping(t_string_memory_ptr,t_string_storage)"
					},
					{
						"astId": 20,
						"contract": "contracts/BusinessConsensus3.sol:BusinessConsensus3",
						"label": "voteCounts",
						"offset": 0,
						"slot": "2",
						"type": "t_mapping(t_string_memory_ptr,t_uint256)"
					},
					{
						"astId": 24,
						"contract": "contracts/BusinessConsensus3.sol:BusinessConsensus3",
						"label": "expiryLengths",
						"offset": 0,
						"slot": "3",
						"type": "t_mapping(t_string_memory_ptr,t_uint256)"
					},
					{
						"astId": 28,
						"contract": "contracts/BusinessConsensus3.sol:BusinessConsensus3",
						"label": "expiryDates",
						"offset": 0,
						"slot": "4",
						"type": "t_mapping(t_string_memory_ptr,t_uint256)"
					},
					{
						"astId": 32,
						"contract": "contracts/BusinessConsensus3.sol:BusinessConsensus3",
						"label": "contents",
						"offset": 0,
						"slot": "5",
						"type": "t_mapping(t_string_memory_ptr,t_bytes32)"
					},
					{
						"astId": 36,
						"contract": "contracts/BusinessConsensus3.sol:BusinessConsensus3",
						"label": "numApprovals",
						"offset": 0,
						"slot": "6",
						"type": "t_mapping(t_string_memory_ptr,t_uint256)"
					},
					{
						"astId": 40,
						"contract": "contracts/BusinessConsensus3.sol:BusinessConsensus3",
						"label": "businessRequirements",
						"offset": 0,
						"slot": "7",
						"type": "t_mapping(t_string_memory_ptr,t_uint256)"
					},
					{
						"astId": 44,
						"contract": "contracts/BusinessConsensus3.sol:BusinessConsensus3",
						"label": "messageDates",
						"offset": 0,
						"slot": "8",
						"type": "t_mapping(t_string_memory_ptr,t_string_storage)"
					},
					{
						"astId": 48,
						"contract": "contracts/BusinessConsensus3.sol:BusinessConsensus3",
						"label": "finalVerdicts",
						"offset": 0,
						"slot": "9",
						"type": "t_mapping(t_string_memory_ptr,t_bool)"
					},
					{
						"astId": 52,
						"contract": "contracts/BusinessConsensus3.sol:BusinessConsensus3",
						"label": "isCompiled",
						"offset": 0,
						"slot": "10",
						"type": "t_mapping(t_string_memory_ptr,t_bool)"
					},
					{
						"astId": 56,
						"contract": "contracts/BusinessConsensus3.sol:BusinessConsensus3",
						"label": "subjects",
						"offset": 0,
						"slot": "11",
						"type": "t_mapping(t_string_memory_ptr,t_string_storage)"
					},
					{
						"astId": 63,
						"contract": "contracts/BusinessConsensus3.sol:BusinessConsensus3",
						"label": "voter_maps",
						"offset": 0,
						"slot": "12",
						"type": "t_mapping(t_string_memory_ptr,t_mapping(t_address,t_struct(Voter)8_storage))"
					},
					{
						"astId": 69,
						"contract": "contracts/BusinessConsensus3.sol:BusinessConsensus3",
						"label": "Voters",
						"offset": 0,
						"slot": "13",
						"type": "t_mapping(t_string_memory_ptr,t_array(t_struct(Voter)8_storage)dyn_storage)"
					},
					{
						"astId": 74,
						"contract": "contracts/BusinessConsensus3.sol:BusinessConsensus3",
						"label": "keys",
						"offset": 0,
						"slot": "14",
						"type": "t_mapping(t_string_memory_ptr,t_array(t_address)dyn_storage)"
					}
				],
				"types": {
					"t_address": {
						"encoding": "inplace",
						"label": "address",
						"numberOfBytes": "20"
					},
					"t_array(t_address)dyn_storage": {
						"base": "t_address",
						"encoding": "dynamic_array",
						"label": "address[]",
						"numberOfBytes": "32"
					},
					"t_array(t_struct(Voter)8_storage)dyn_storage": {
						"base": "t_struct(Voter)8_storage",
						"encoding": "dynamic_array",
						"label": "struct BusinessConsensus3.Voter[]",
						"numberOfBytes": "32"
					},
					"t_bool": {
						"encoding": "inplace",
						"label": "bool",
						"numberOfBytes": "1"
					},
					"t_bytes32": {
						"encoding": "inplace",
						"label": "bytes32",
						"numberOfBytes": "32"
					},
					"t_mapping(t_address,t_struct(Voter)8_storage)": {
						"encoding": "mapping",
						"key": "t_address",
						"label": "mapping(address => struct BusinessConsensus3.Voter)",
						"numberOfBytes": "32",
						"value": "t_struct(Voter)8_storage"
					},
					"t_mapping(t_string_memory_ptr,t_address)": {
						"encoding": "mapping",
						"key": "t_string_memory_ptr",
						"label": "mapping(string => address)",
						"numberOfBytes": "32",
						"value": "t_address"
					},
					"t_mapping(t_string_memory_ptr,t_array(t_address)dyn_storage)": {
						"encoding": "mapping",
						"key": "t_string_memory_ptr",
						"label": "mapping(string => address[])",
						"numberOfBytes": "32",
						"value": "t_array(t_address)dyn_storage"
					},
					"t_mapping(t_string_memory_ptr,t_array(t_struct(Voter)8_storage)dyn_storage)": {
						"encoding": "mapping",
						"key": "t_string_memory_ptr",
						"label": "mapping(string => struct BusinessConsensus3.Voter[])",
						"numberOfBytes": "32",
						"value": "t_array(t_struct(Voter)8_storage)dyn_storage"
					},
					"t_mapping(t_string_memory_ptr,t_bool)": {
						"encoding": "mapping",
						"key": "t_string_memory_ptr",
						"label": "mapping(string => bool)",
						"numberOfBytes": "32",
						"value": "t_bool"
					},
					"t_mapping(t_string_memory_ptr,t_bytes32)": {
						"encoding": "mapping",
						"key": "t_string_memory_ptr",
						"label": "mapping(string => bytes32)",
						"numberOfBytes": "32",
						"value": "t_bytes32"
					},
					"t_mapping(t_string_memory_ptr,t_mapping(t_address,t_struct(Voter)8_storage))": {
						"encoding": "mapping",
						"key": "t_string_memory_ptr",
						"label": "mapping(string => mapping(address => struct BusinessConsensus3.Voter))",
						"numberOfBytes": "32",
						"value": "t_mapping(t_address,t_struct(Voter)8_storage)"
					},
					"t_mapping(t_string_memory_ptr,t_string_storage)": {
						"encoding": "mapping",
						"key": "t_string_memory_ptr",
						"label": "mapping(string => string)",
						"numberOfBytes": "32",
						"value": "t_string_storage"
					},
					"t_mapping(t_string_memory_ptr,t_uint256)": {
						"encoding": "mapping",
						"key": "t_string_memory_ptr",
						"label": "mapping(string => uint256)",
						"numberOfBytes": "32",
						"value": "t_uint256"
					},
					"t_string_memory_ptr": {
						"encoding": "bytes",
						"label": "string",
						"numberOfBytes": "32"
					},
					"t_string_storage": {
						"encoding": "bytes",
						"label": "string",
						"numberOfBytes": "32"
					},
					"t_struct(Voter)8_storage": {
						"encoding": "inplace",
						"label": "struct BusinessConsensus3.Voter",
						"members": [
							{
								"astId": 3,
								"contract": "contracts/BusinessConsensus3.sol:BusinessConsensus3",
								"label": "voted",
								"offset": 0,
								"slot": "0",
								"type": "t_bool"
							},
							{
								"astId": 5,
								"contract": "contracts/BusinessConsensus3.sol:BusinessConsensus3",
								"label": "vote",
								"offset": 1,
								"slot": "0",
								"type": "t_bool"
							},
							{
								"astId": 7,
								"contract": "contracts/BusinessConsensus3.sol:BusinessConsensus3",
								"label": "recipient",
								"offset": 2,
								"slot": "0",
								"type": "t_address"
							}
						],
						"numberOfBytes": "32"
					},
					"t_uint256": {
						"encoding": "inplace",
						"label": "uint256",
						"numberOfBytes": "32"
					}
				}
			},
			"userdoc": {
				"kind": "user",
				"methods": {
					"Consensus(string)": {
						"notice": "compile all relevant information into a Bundle"
					}
				},
				"version": 1
			}
		}
	}
}