{
	"contracts/BusinessConsensus.sol": {
		"BusinessConsensus": {
			"abi": [
				{
					"inputs": [
						{
							"internalType": "string",
							"name": "_messageID",
							"type": "string"
						},
						{
							"internalType": "uint256",
							"name": "expiry",
							"type": "uint256"
						},
						{
							"internalType": "uint256",
							"name": "requiredPercentage",
							"type": "uint256"
						}
					],
					"stateMutability": "nonpayable",
					"type": "constructor"
				},
				{
					"inputs": [],
					"name": "AccumulatedPercentage",
					"outputs": [
						{
							"internalType": "uint256",
							"name": "",
							"type": "uint256"
						}
					],
					"stateMutability": "view",
					"type": "function"
				},
				{
					"inputs": [],
					"name": "BusinessRequirement",
					"outputs": [
						{
							"internalType": "uint256",
							"name": "",
							"type": "uint256"
						}
					],
					"stateMutability": "view",
					"type": "function"
				},
				{
					"inputs": [],
					"name": "Consensus",
					"outputs": [],
					"stateMutability": "nonpayable",
					"type": "function"
				},
				{
					"inputs": [
						{
							"internalType": "address",
							"name": "voter",
							"type": "address"
						}
					],
					"name": "RegisterVoter",
					"outputs": [],
					"stateMutability": "nonpayable",
					"type": "function"
				},
				{
					"inputs": [
						{
							"internalType": "string",
							"name": "response",
							"type": "string"
						}
					],
					"name": "Vote",
					"outputs": [],
					"stateMutability": "nonpayable",
					"type": "function"
				},
				{
					"inputs": [],
					"name": "contractAddress",
					"outputs": [
						{
							"internalType": "address",
							"name": "",
							"type": "address"
						}
					],
					"stateMutability": "view",
					"type": "function"
				},
				{
					"inputs": [],
					"name": "getParameters",
					"outputs": [
						{
							"internalType": "string",
							"name": "",
							"type": "string"
						},
						{
							"internalType": "uint256",
							"name": "",
							"type": "uint256"
						},
						{
							"internalType": "address",
							"name": "",
							"type": "address"
						},
						{
							"internalType": "uint256",
							"name": "",
							"type": "uint256"
						},
						{
							"internalType": "uint256",
							"name": "",
							"type": "uint256"
						}
					],
					"stateMutability": "view",
					"type": "function"
				},
				{
					"inputs": [
						{
							"internalType": "address",
							"name": "test_address",
							"type": "address"
						}
					],
					"name": "getParameters2",
					"outputs": [
						{
							"internalType": "bool",
							"name": "",
							"type": "bool"
						},
						{
							"internalType": "bool",
							"name": "",
							"type": "bool"
						},
						{
							"internalType": "address",
							"name": "",
							"type": "address"
						}
					],
					"stateMutability": "view",
					"type": "function"
				},
				{
					"inputs": [],
					"name": "getValues",
					"outputs": [
						{
							"internalType": "string",
							"name": "",
							"type": "string"
						}
					],
					"stateMutability": "view",
					"type": "function"
				},
				{
					"inputs": [],
					"name": "initiator",
					"outputs": [
						{
							"internalType": "address",
							"name": "",
							"type": "address"
						}
					],
					"stateMutability": "view",
					"type": "function"
				},
				{
					"inputs": [
						{
							"internalType": "uint256",
							"name": "",
							"type": "uint256"
						}
					],
					"name": "keys",
					"outputs": [
						{
							"internalType": "address",
							"name": "",
							"type": "address"
						}
					],
					"stateMutability": "view",
					"type": "function"
				},
				{
					"inputs": [],
					"name": "numApprovals",
					"outputs": [
						{
							"internalType": "uint256",
							"name": "",
							"type": "uint256"
						}
					],
					"stateMutability": "view",
					"type": "function"
				},
				{
					"inputs": [],
					"name": "numberCompiled",
					"outputs": [
						{
							"internalType": "uint256",
							"name": "",
							"type": "uint256"
						}
					],
					"stateMutability": "view",
					"type": "function"
				},
				{
					"inputs": [],
					"name": "proposal",
					"outputs": [
						{
							"internalType": "uint256",
							"name": "voteCount",
							"type": "uint256"
						},
						{
							"internalType": "string",
							"name": "messageID",
							"type": "string"
						}
					],
					"stateMutability": "view",
					"type": "function"
				},
				{
					"inputs": [],
					"name": "retrieve_bundle",
					"outputs": [
						{
							"internalType": "string",
							"name": "",
							"type": "string"
						},
						{
							"components": [
								{
									"internalType": "uint256",
									"name": "voteCount",
									"type": "uint256"
								},
								{
									"internalType": "string",
									"name": "messageID",
									"type": "string"
								}
							],
							"internalType": "struct BusinessConsensus.Proposal",
							"name": "",
							"type": "tuple"
						},
						{
							"components": [
								{
									"internalType": "bool",
									"name": "voted",
									"type": "bool"
								},
								{
									"internalType": "address",
									"name": "recipient",
									"type": "address"
								},
								{
									"internalType": "bool",
									"name": "vote",
									"type": "bool"
								}
							],
							"internalType": "struct BusinessConsensus.Voter[]",
							"name": "",
							"type": "tuple[]"
						}
					],
					"stateMutability": "view",
					"type": "function"
				},
				{
					"inputs": [
						{
							"internalType": "uint256",
							"name": "",
							"type": "uint256"
						}
					],
					"name": "voters",
					"outputs": [
						{
							"internalType": "bool",
							"name": "voted",
							"type": "bool"
						},
						{
							"internalType": "address",
							"name": "recipient",
							"type": "address"
						},
						{
							"internalType": "bool",
							"name": "vote",
							"type": "bool"
						}
					],
					"stateMutability": "view",
					"type": "function"
				},
				{
					"inputs": [
						{
							"internalType": "address",
							"name": "",
							"type": "address"
						}
					],
					"name": "voters_map",
					"outputs": [
						{
							"internalType": "bool",
							"name": "voted",
							"type": "bool"
						},
						{
							"internalType": "address",
							"name": "recipient",
							"type": "address"
						},
						{
							"internalType": "bool",
							"name": "vote",
							"type": "bool"
						}
					],
					"stateMutability": "view",
					"type": "function"
				}
			],
			"devdoc": {
				"kind": "dev",
				"methods": {},
				"version": 1
			},
			"evm": {
				"assembly": "    /* \"contracts/BusinessConsensus.sol\":33:5184  contract BusinessConsensus{\r... */\n  mstore(0x40, 0x80)\n    /* \"contracts/BusinessConsensus.sol\":1178:1767  constructor(string memory _messageID, uint expiry, uint requiredPercentage) {\r... */\n  callvalue\n  dup1\n  iszero\n  tag_1\n  jumpi\n  0x00\n  dup1\n  revert\ntag_1:\n  pop\n  mload(0x40)\n  sub(codesize, bytecodeSize)\n  dup1\n  bytecodeSize\n  dup4\n  codecopy\n  dup2\n  dup2\n  add\n  0x40\n  mstore\n  dup2\n  add\n  swap1\n  tag_2\n  swap2\n  swap1\n  tag_3\n  jump\t// in\ntag_2:\n    /* \"contracts/BusinessConsensus.sol\":1277:1287  msg.sender */\n  caller\n    /* \"contracts/BusinessConsensus.sol\":1265:1274  initiator */\n  0x03\n  0x00\n    /* \"contracts/BusinessConsensus.sol\":1265:1287  initiator = msg.sender */\n  0x0100\n  exp\n  dup2\n  sload\n  dup2\n  0xffffffffffffffffffffffffffffffffffffffff\n  mul\n  not\n  and\n  swap1\n  dup4\n  0xffffffffffffffffffffffffffffffffffffffff\n  and\n  mul\n  or\n  swap1\n  sstore\n  pop\n    /* \"contracts/BusinessConsensus.sol\":1329:1335  expiry */\n  dup2\n    /* \"contracts/BusinessConsensus.sol\":1311:1326  block.timestamp */\n  timestamp\n    /* \"contracts/BusinessConsensus.sol\":1311:1335  block.timestamp + expiry */\n  tag_6\n  swap2\n  swap1\n  tag_7\n  jump\t// in\ntag_6:\n    /* \"contracts/BusinessConsensus.sol\":1298:1308  expiryDate */\n  0x01\n    /* \"contracts/BusinessConsensus.sol\":1298:1335  expiryDate = block.timestamp + expiry */\n  dup2\n  swap1\n  sstore\n  pop\n    /* \"contracts/BusinessConsensus.sol\":1368:1386  requiredPercentage */\n  dup1\n    /* \"contracts/BusinessConsensus.sol\":1346:1365  BusinessRequirement */\n  0x04\n    /* \"contracts/BusinessConsensus.sol\":1346:1386  BusinessRequirement = requiredPercentage */\n  dup2\n  swap1\n  sstore\n  pop\n    /* \"contracts/BusinessConsensus.sol\":1421:1422  0 */\n  0x00\n    /* \"contracts/BusinessConsensus.sol\":1397:1418  AccumulatedPercentage */\n  0x05\n    /* \"contracts/BusinessConsensus.sol\":1397:1422  AccumulatedPercentage = 0 */\n  dup2\n  swap1\n  sstore\n  pop\n    /* \"contracts/BusinessConsensus.sol\":1448:1449  0 */\n  0x00\n    /* \"contracts/BusinessConsensus.sol\":1433:1445  numApprovals */\n  0x06\n    /* \"contracts/BusinessConsensus.sol\":1433:1449  numApprovals = 0 */\n  dup2\n  swap1\n  sstore\n  pop\n    /* \"contracts/BusinessConsensus.sol\":1477:1478  0 */\n  0x00\n    /* \"contracts/BusinessConsensus.sol\":1460:1474  numberCompiled */\n  0x07\n    /* \"contracts/BusinessConsensus.sol\":1460:1478  numberCompiled = 0 */\n  dup2\n  swap1\n  sstore\n  pop\n    /* \"contracts/BusinessConsensus.sol\":1489:1514  finalVerdict = \"Rejected\" */\n  mload(0x40)\n  dup1\n  0x40\n  add\n  0x40\n  mstore\n  dup1\n  0x08\n  dup2\n  mstore\n  0x20\n  add\n  0x52656a6563746564000000000000000000000000000000000000000000000000\n  dup2\n  mstore\n  pop\n    /* \"contracts/BusinessConsensus.sol\":1489:1501  finalVerdict */\n  0x02\n    /* \"contracts/BusinessConsensus.sol\":1489:1514  finalVerdict = \"Rejected\" */\n  swap1\n  dup1\n  mload\n  swap1\n  0x20\n  add\n  swap1\n  tag_8\n  swap3\n  swap2\n  swap1\n  tag_9\n  jump\t// in\ntag_8:\n  pop\n    /* \"contracts/BusinessConsensus.sol\":1551:1555  this */\n  address\n    /* \"contracts/BusinessConsensus.sol\":1525:1540  contractAddress */\n  0x00\n  dup1\n    /* \"contracts/BusinessConsensus.sol\":1525:1556  contractAddress = address(this) */\n  0x0100\n  exp\n  dup2\n  sload\n  dup2\n  0xffffffffffffffffffffffffffffffffffffffff\n  mul\n  not\n  and\n  swap1\n  dup4\n  0xffffffffffffffffffffffffffffffffffffffff\n  and\n  mul\n  or\n  swap1\n  sstore\n  pop\n    /* \"contracts/BusinessConsensus.sol\":1663:1759  Proposal({\r... */\n  mload(0x40)\n  dup1\n  0x40\n  add\n  0x40\n  mstore\n  dup1\n    /* \"contracts/BusinessConsensus.sol\":1702:1703  0 */\n  0x00\n    /* \"contracts/BusinessConsensus.sol\":1663:1759  Proposal({\r... */\n  dup2\n  mstore\n  0x20\n  add\n    /* \"contracts/BusinessConsensus.sol\":1733:1743  _messageID */\n  dup5\n    /* \"contracts/BusinessConsensus.sol\":1663:1759  Proposal({\r... */\n  dup2\n  mstore\n  pop\n    /* \"contracts/BusinessConsensus.sol\":1652:1660  proposal */\n  0x0b\n    /* \"contracts/BusinessConsensus.sol\":1652:1759  proposal = Proposal({\r... */\n  0x00\n  dup3\n  add\n  mload\n  dup2\n  0x00\n  add\n  sstore\n  0x20\n  dup3\n  add\n  mload\n  dup2\n  0x01\n  add\n  swap1\n  dup1\n  mload\n  swap1\n  0x20\n  add\n  swap1\n  tag_10\n  swap3\n  swap2\n  swap1\n  tag_9\n  jump\t// in\ntag_10:\n  pop\n  swap1\n  pop\n  pop\n    /* \"contracts/BusinessConsensus.sol\":1178:1767  constructor(string memory _messageID, uint expiry, uint requiredPercentage) {\r... */\n  pop\n  pop\n  pop\n    /* \"contracts/BusinessConsensus.sol\":33:5184  contract BusinessConsensus{\r... */\n  jump(tag_11)\ntag_9:\n  dup3\n  dup1\n  sload\n  tag_12\n  swap1\n  tag_13\n  jump\t// in\ntag_12:\n  swap1\n  0x00\n  mstore\n  keccak256(0x00, 0x20)\n  swap1\n  0x1f\n  add\n  0x20\n  swap1\n  div\n  dup2\n  add\n  swap3\n  dup3\n  tag_15\n  jumpi\n  0x00\n  dup6\n  sstore\n  jump(tag_14)\ntag_15:\n  dup3\n  0x1f\n  lt\n  tag_16\n  jumpi\n  dup1\n  mload\n  not(0xff)\n  and\n  dup4\n  dup1\n  add\n  or\n  dup6\n  sstore\n  jump(tag_14)\ntag_16:\n  dup3\n  dup1\n  add\n  0x01\n  add\n  dup6\n  sstore\n  dup3\n  iszero\n  tag_14\n  jumpi\n  swap2\n  dup3\n  add\ntag_17:\n  dup3\n  dup2\n  gt\n  iszero\n  tag_18\n  jumpi\n  dup3\n  mload\n  dup3\n  sstore\n  swap2\n  0x20\n  add\n  swap2\n  swap1\n  0x01\n  add\n  swap1\n  jump(tag_17)\ntag_18:\ntag_14:\n  pop\n  swap1\n  pop\n  tag_19\n  swap2\n  swap1\n  tag_20\n  jump\t// in\ntag_19:\n  pop\n  swap1\n  jump\t// out\ntag_20:\ntag_21:\n  dup1\n  dup3\n  gt\n  iszero\n  tag_22\n  jumpi\n  0x00\n  dup2\n  0x00\n  swap1\n  sstore\n  pop\n  0x01\n  add\n  jump(tag_21)\ntag_22:\n  pop\n  swap1\n  jump\t// out\n    /* \"#utility.yul\":7:428   */\ntag_24:\n    /* \"#utility.yul\":96:101   */\n  0x00\n    /* \"#utility.yul\":121:187   */\n  tag_26\n    /* \"#utility.yul\":137:186   */\n  tag_27\n    /* \"#utility.yul\":179:185   */\n  dup5\n    /* \"#utility.yul\":137:186   */\n  tag_28\n  jump\t// in\ntag_27:\n    /* \"#utility.yul\":121:187   */\n  tag_29\n  jump\t// in\ntag_26:\n    /* \"#utility.yul\":112:187   */\n  swap1\n  pop\n    /* \"#utility.yul\":210:216   */\n  dup3\n    /* \"#utility.yul\":203:208   */\n  dup2\n    /* \"#utility.yul\":196:217   */\n  mstore\n    /* \"#utility.yul\":248:252   */\n  0x20\n    /* \"#utility.yul\":241:246   */\n  dup2\n    /* \"#utility.yul\":237:253   */\n  add\n    /* \"#utility.yul\":286:289   */\n  dup5\n    /* \"#utility.yul\":277:283   */\n  dup5\n    /* \"#utility.yul\":272:275   */\n  dup5\n    /* \"#utility.yul\":268:284   */\n  add\n    /* \"#utility.yul\":265:290   */\n  gt\n    /* \"#utility.yul\":262:374   */\n  iszero\n  tag_30\n  jumpi\n    /* \"#utility.yul\":293:372   */\n  tag_31\n  tag_32\n  jump\t// in\ntag_31:\n    /* \"#utility.yul\":262:374   */\ntag_30:\n    /* \"#utility.yul\":383:422   */\n  tag_33\n    /* \"#utility.yul\":415:421   */\n  dup5\n    /* \"#utility.yul\":410:413   */\n  dup3\n    /* \"#utility.yul\":405:408   */\n  dup6\n    /* \"#utility.yul\":383:422   */\n  tag_34\n  jump\t// in\ntag_33:\n    /* \"#utility.yul\":102:428   */\n  pop\n    /* \"#utility.yul\":7:428   */\n  swap4\n  swap3\n  pop\n  pop\n  pop\n  jump\t// out\n    /* \"#utility.yul\":448:803   */\ntag_35:\n    /* \"#utility.yul\":515:520   */\n  0x00\n    /* \"#utility.yul\":564:567   */\n  dup3\n    /* \"#utility.yul\":557:561   */\n  0x1f\n    /* \"#utility.yul\":549:555   */\n  dup4\n    /* \"#utility.yul\":545:562   */\n  add\n    /* \"#utility.yul\":541:568   */\n  slt\n    /* \"#utility.yul\":531:653   */\n  tag_37\n  jumpi\n    /* \"#utility.yul\":572:651   */\n  tag_38\n  tag_39\n  jump\t// in\ntag_38:\n    /* \"#utility.yul\":531:653   */\ntag_37:\n    /* \"#utility.yul\":682:688   */\n  dup2\n    /* \"#utility.yul\":676:689   */\n  mload\n    /* \"#utility.yul\":707:797   */\n  tag_40\n    /* \"#utility.yul\":793:796   */\n  dup5\n    /* \"#utility.yul\":785:791   */\n  dup3\n    /* \"#utility.yul\":778:782   */\n  0x20\n    /* \"#utility.yul\":770:776   */\n  dup7\n    /* \"#utility.yul\":766:783   */\n  add\n    /* \"#utility.yul\":707:797   */\n  tag_24\n  jump\t// in\ntag_40:\n    /* \"#utility.yul\":698:797   */\n  swap2\n  pop\n    /* \"#utility.yul\":521:803   */\n  pop\n    /* \"#utility.yul\":448:803   */\n  swap3\n  swap2\n  pop\n  pop\n  jump\t// out\n    /* \"#utility.yul\":809:952   */\ntag_41:\n    /* \"#utility.yul\":866:871   */\n  0x00\n    /* \"#utility.yul\":897:903   */\n  dup2\n    /* \"#utility.yul\":891:904   */\n  mload\n    /* \"#utility.yul\":882:904   */\n  swap1\n  pop\n    /* \"#utility.yul\":913:946   */\n  tag_43\n    /* \"#utility.yul\":940:945   */\n  dup2\n    /* \"#utility.yul\":913:946   */\n  tag_44\n  jump\t// in\ntag_43:\n    /* \"#utility.yul\":809:952   */\n  swap3\n  swap2\n  pop\n  pop\n  jump\t// out\n    /* \"#utility.yul\":958:1794   */\ntag_3:\n    /* \"#utility.yul\":1056:1062   */\n  0x00\n    /* \"#utility.yul\":1064:1070   */\n  dup1\n    /* \"#utility.yul\":1072:1078   */\n  0x00\n    /* \"#utility.yul\":1121:1123   */\n  0x60\n    /* \"#utility.yul\":1109:1118   */\n  dup5\n    /* \"#utility.yul\":1100:1107   */\n  dup7\n    /* \"#utility.yul\":1096:1119   */\n  sub\n    /* \"#utility.yul\":1092:1124   */\n  slt\n    /* \"#utility.yul\":1089:1208   */\n  iszero\n  tag_46\n  jumpi\n    /* \"#utility.yul\":1127:1206   */\n  tag_47\n  tag_48\n  jump\t// in\ntag_47:\n    /* \"#utility.yul\":1089:1208   */\ntag_46:\n    /* \"#utility.yul\":1268:1269   */\n  0x00\n    /* \"#utility.yul\":1257:1266   */\n  dup5\n    /* \"#utility.yul\":1253:1270   */\n  add\n    /* \"#utility.yul\":1247:1271   */\n  mload\n    /* \"#utility.yul\":1298:1316   */\n  0xffffffffffffffff\n    /* \"#utility.yul\":1290:1296   */\n  dup2\n    /* \"#utility.yul\":1287:1317   */\n  gt\n    /* \"#utility.yul\":1284:1401   */\n  iszero\n  tag_49\n  jumpi\n    /* \"#utility.yul\":1320:1399   */\n  tag_50\n  tag_51\n  jump\t// in\ntag_50:\n    /* \"#utility.yul\":1284:1401   */\ntag_49:\n    /* \"#utility.yul\":1425:1499   */\n  tag_52\n    /* \"#utility.yul\":1491:1498   */\n  dup7\n    /* \"#utility.yul\":1482:1488   */\n  dup3\n    /* \"#utility.yul\":1471:1480   */\n  dup8\n    /* \"#utility.yul\":1467:1489   */\n  add\n    /* \"#utility.yul\":1425:1499   */\n  tag_35\n  jump\t// in\ntag_52:\n    /* \"#utility.yul\":1415:1499   */\n  swap4\n  pop\n    /* \"#utility.yul\":1218:1509   */\n  pop\n    /* \"#utility.yul\":1548:1550   */\n  0x20\n    /* \"#utility.yul\":1574:1638   */\n  tag_53\n    /* \"#utility.yul\":1630:1637   */\n  dup7\n    /* \"#utility.yul\":1621:1627   */\n  dup3\n    /* \"#utility.yul\":1610:1619   */\n  dup8\n    /* \"#utility.yul\":1606:1628   */\n  add\n    /* \"#utility.yul\":1574:1638   */\n  tag_41\n  jump\t// in\ntag_53:\n    /* \"#utility.yul\":1564:1638   */\n  swap3\n  pop\n    /* \"#utility.yul\":1519:1648   */\n  pop\n    /* \"#utility.yul\":1687:1689   */\n  0x40\n    /* \"#utility.yul\":1713:1777   */\n  tag_54\n    /* \"#utility.yul\":1769:1776   */\n  dup7\n    /* \"#utility.yul\":1760:1766   */\n  dup3\n    /* \"#utility.yul\":1749:1758   */\n  dup8\n    /* \"#utility.yul\":1745:1767   */\n  add\n    /* \"#utility.yul\":1713:1777   */\n  tag_41\n  jump\t// in\ntag_54:\n    /* \"#utility.yul\":1703:1777   */\n  swap2\n  pop\n    /* \"#utility.yul\":1658:1787   */\n  pop\n    /* \"#utility.yul\":958:1794   */\n  swap3\n  pop\n  swap3\n  pop\n  swap3\n  jump\t// out\n    /* \"#utility.yul\":1800:1929   */\ntag_29:\n    /* \"#utility.yul\":1834:1840   */\n  0x00\n    /* \"#utility.yul\":1861:1881   */\n  tag_56\n  tag_57\n  jump\t// in\ntag_56:\n    /* \"#utility.yul\":1851:1881   */\n  swap1\n  pop\n    /* \"#utility.yul\":1890:1923   */\n  tag_58\n    /* \"#utility.yul\":1918:1922   */\n  dup3\n    /* \"#utility.yul\":1910:1916   */\n  dup3\n    /* \"#utility.yul\":1890:1923   */\n  tag_59\n  jump\t// in\ntag_58:\n    /* \"#utility.yul\":1800:1929   */\n  swap2\n  swap1\n  pop\n  jump\t// out\n    /* \"#utility.yul\":1935:2010   */\ntag_57:\n    /* \"#utility.yul\":1968:1974   */\n  0x00\n    /* \"#utility.yul\":2001:2003   */\n  0x40\n    /* \"#utility.yul\":1995:2004   */\n  mload\n    /* \"#utility.yul\":1985:2004   */\n  swap1\n  pop\n    /* \"#utility.yul\":1935:2010   */\n  swap1\n  jump\t// out\n    /* \"#utility.yul\":2016:2324   */\ntag_28:\n    /* \"#utility.yul\":2078:2082   */\n  0x00\n    /* \"#utility.yul\":2168:2186   */\n  0xffffffffffffffff\n    /* \"#utility.yul\":2160:2166   */\n  dup3\n    /* \"#utility.yul\":2157:2187   */\n  gt\n    /* \"#utility.yul\":2154:2210   */\n  iszero\n  tag_62\n  jumpi\n    /* \"#utility.yul\":2190:2208   */\n  tag_63\n  tag_64\n  jump\t// in\ntag_63:\n    /* \"#utility.yul\":2154:2210   */\ntag_62:\n    /* \"#utility.yul\":2228:2257   */\n  tag_65\n    /* \"#utility.yul\":2250:2256   */\n  dup3\n    /* \"#utility.yul\":2228:2257   */\n  tag_66\n  jump\t// in\ntag_65:\n    /* \"#utility.yul\":2220:2257   */\n  swap1\n  pop\n    /* \"#utility.yul\":2312:2316   */\n  0x20\n    /* \"#utility.yul\":2306:2310   */\n  dup2\n    /* \"#utility.yul\":2302:2317   */\n  add\n    /* \"#utility.yul\":2294:2317   */\n  swap1\n  pop\n    /* \"#utility.yul\":2016:2324   */\n  swap2\n  swap1\n  pop\n  jump\t// out\n    /* \"#utility.yul\":2330:2635   */\ntag_7:\n    /* \"#utility.yul\":2370:2373   */\n  0x00\n    /* \"#utility.yul\":2389:2409   */\n  tag_68\n    /* \"#utility.yul\":2407:2408   */\n  dup3\n    /* \"#utility.yul\":2389:2409   */\n  tag_69\n  jump\t// in\ntag_68:\n    /* \"#utility.yul\":2384:2409   */\n  swap2\n  pop\n    /* \"#utility.yul\":2423:2443   */\n  tag_70\n    /* \"#utility.yul\":2441:2442   */\n  dup4\n    /* \"#utility.yul\":2423:2443   */\n  tag_69\n  jump\t// in\ntag_70:\n    /* \"#utility.yul\":2418:2443   */\n  swap3\n  pop\n    /* \"#utility.yul\":2577:2578   */\n  dup3\n    /* \"#utility.yul\":2509:2575   */\n  0xffffffffffffffffffffffffffffffffffffffffffffffffffffffffffffffff\n    /* \"#utility.yul\":2505:2579   */\n  sub\n    /* \"#utility.yul\":2502:2503   */\n  dup3\n    /* \"#utility.yul\":2499:2580   */\n  gt\n    /* \"#utility.yul\":2496:2603   */\n  iszero\n  tag_71\n  jumpi\n    /* \"#utility.yul\":2583:2601   */\n  tag_72\n  tag_73\n  jump\t// in\ntag_72:\n    /* \"#utility.yul\":2496:2603   */\ntag_71:\n    /* \"#utility.yul\":2627:2628   */\n  dup3\n    /* \"#utility.yul\":2624:2625   */\n  dup3\n    /* \"#utility.yul\":2620:2629   */\n  add\n    /* \"#utility.yul\":2613:2629   */\n  swap1\n  pop\n    /* \"#utility.yul\":2330:2635   */\n  swap3\n  swap2\n  pop\n  pop\n  jump\t// out\n    /* \"#utility.yul\":2641:2718   */\ntag_69:\n    /* \"#utility.yul\":2678:2685   */\n  0x00\n    /* \"#utility.yul\":2707:2712   */\n  dup2\n    /* \"#utility.yul\":2696:2712   */\n  swap1\n  pop\n    /* \"#utility.yul\":2641:2718   */\n  swap2\n  swap1\n  pop\n  jump\t// out\n    /* \"#utility.yul\":2724:3031   */\ntag_34:\n    /* \"#utility.yul\":2792:2793   */\n  0x00\n    /* \"#utility.yul\":2802:2915   */\ntag_76:\n    /* \"#utility.yul\":2816:2822   */\n  dup4\n    /* \"#utility.yul\":2813:2814   */\n  dup2\n    /* \"#utility.yul\":2810:2823   */\n  lt\n    /* \"#utility.yul\":2802:2915   */\n  iszero\n  tag_78\n  jumpi\n    /* \"#utility.yul\":2901:2902   */\n  dup1\n    /* \"#utility.yul\":2896:2899   */\n  dup3\n    /* \"#utility.yul\":2892:2903   */\n  add\n    /* \"#utility.yul\":2886:2904   */\n  mload\n    /* \"#utility.yul\":2882:2883   */\n  dup2\n    /* \"#utility.yul\":2877:2880   */\n  dup5\n    /* \"#utility.yul\":2873:2884   */\n  add\n    /* \"#utility.yul\":2866:2905   */\n  mstore\n    /* \"#utility.yul\":2838:2840   */\n  0x20\n    /* \"#utility.yul\":2835:2836   */\n  dup2\n    /* \"#utility.yul\":2831:2841   */\n  add\n    /* \"#utility.yul\":2826:2841   */\n  swap1\n  pop\n    /* \"#utility.yul\":2802:2915   */\n  jump(tag_76)\ntag_78:\n    /* \"#utility.yul\":2933:2939   */\n  dup4\n    /* \"#utility.yul\":2930:2931   */\n  dup2\n    /* \"#utility.yul\":2927:2940   */\n  gt\n    /* \"#utility.yul\":2924:3025   */\n  iszero\n  tag_79\n  jumpi\n    /* \"#utility.yul\":3013:3014   */\n  0x00\n    /* \"#utility.yul\":3004:3010   */\n  dup5\n    /* \"#utility.yul\":2999:3002   */\n  dup5\n    /* \"#utility.yul\":2995:3011   */\n  add\n    /* \"#utility.yul\":2988:3015   */\n  mstore\n    /* \"#utility.yul\":2924:3025   */\ntag_79:\n    /* \"#utility.yul\":2773:3031   */\n  pop\n    /* \"#utility.yul\":2724:3031   */\n  pop\n  pop\n  pop\n  jump\t// out\n    /* \"#utility.yul\":3037:3357   */\ntag_13:\n    /* \"#utility.yul\":3081:3087   */\n  0x00\n    /* \"#utility.yul\":3118:3119   */\n  0x02\n    /* \"#utility.yul\":3112:3116   */\n  dup3\n    /* \"#utility.yul\":3108:3120   */\n  div\n    /* \"#utility.yul\":3098:3120   */\n  swap1\n  pop\n    /* \"#utility.yul\":3165:3166   */\n  0x01\n    /* \"#utility.yul\":3159:3163   */\n  dup3\n    /* \"#utility.yul\":3155:3167   */\n  and\n    /* \"#utility.yul\":3186:3204   */\n  dup1\n    /* \"#utility.yul\":3176:3257   */\n  tag_81\n  jumpi\n    /* \"#utility.yul\":3242:3246   */\n  0x7f\n    /* \"#utility.yul\":3234:3240   */\n  dup3\n    /* \"#utility.yul\":3230:3247   */\n  and\n    /* \"#utility.yul\":3220:3247   */\n  swap2\n  pop\n    /* \"#utility.yul\":3176:3257   */\ntag_81:\n    /* \"#utility.yul\":3304:3306   */\n  0x20\n    /* \"#utility.yul\":3296:3302   */\n  dup3\n    /* \"#utility.yul\":3293:3307   */\n  lt\n    /* \"#utility.yul\":3273:3291   */\n  dup2\n    /* \"#utility.yul\":3270:3308   */\n  eq\n    /* \"#utility.yul\":3267:3351   */\n  iszero\n  tag_82\n  jumpi\n    /* \"#utility.yul\":3323:3341   */\n  tag_83\n  tag_84\n  jump\t// in\ntag_83:\n    /* \"#utility.yul\":3267:3351   */\ntag_82:\n    /* \"#utility.yul\":3088:3357   */\n  pop\n    /* \"#utility.yul\":3037:3357   */\n  swap2\n  swap1\n  pop\n  jump\t// out\n    /* \"#utility.yul\":3363:3644   */\ntag_59:\n    /* \"#utility.yul\":3446:3473   */\n  tag_86\n    /* \"#utility.yul\":3468:3472   */\n  dup3\n    /* \"#utility.yul\":3446:3473   */\n  tag_66\n  jump\t// in\ntag_86:\n    /* \"#utility.yul\":3438:3444   */\n  dup2\n    /* \"#utility.yul\":3434:3474   */\n  add\n    /* \"#utility.yul\":3576:3582   */\n  dup2\n    /* \"#utility.yul\":3564:3574   */\n  dup2\n    /* \"#utility.yul\":3561:3583   */\n  lt\n    /* \"#utility.yul\":3540:3558   */\n  0xffffffffffffffff\n    /* \"#utility.yul\":3528:3538   */\n  dup3\n    /* \"#utility.yul\":3525:3559   */\n  gt\n    /* \"#utility.yul\":3522:3584   */\n  or\n    /* \"#utility.yul\":3519:3607   */\n  iszero\n  tag_87\n  jumpi\n    /* \"#utility.yul\":3587:3605   */\n  tag_88\n  tag_64\n  jump\t// in\ntag_88:\n    /* \"#utility.yul\":3519:3607   */\ntag_87:\n    /* \"#utility.yul\":3627:3637   */\n  dup1\n    /* \"#utility.yul\":3623:3625   */\n  0x40\n    /* \"#utility.yul\":3616:3638   */\n  mstore\n    /* \"#utility.yul\":3406:3644   */\n  pop\n    /* \"#utility.yul\":3363:3644   */\n  pop\n  pop\n  jump\t// out\n    /* \"#utility.yul\":3650:3830   */\ntag_73:\n    /* \"#utility.yul\":3698:3775   */\n  0x4e487b7100000000000000000000000000000000000000000000000000000000\n    /* \"#utility.yul\":3695:3696   */\n  0x00\n    /* \"#utility.yul\":3688:3776   */\n  mstore\n    /* \"#utility.yul\":3795:3799   */\n  0x11\n    /* \"#utility.yul\":3792:3793   */\n  0x04\n    /* \"#utility.yul\":3785:3800   */\n  mstore\n    /* \"#utility.yul\":3819:3823   */\n  0x24\n    /* \"#utility.yul\":3816:3817   */\n  0x00\n    /* \"#utility.yul\":3809:3824   */\n  revert\n    /* \"#utility.yul\":3836:4016   */\ntag_84:\n    /* \"#utility.yul\":3884:3961   */\n  0x4e487b7100000000000000000000000000000000000000000000000000000000\n    /* \"#utility.yul\":3881:3882   */\n  0x00\n    /* \"#utility.yul\":3874:3962   */\n  mstore\n    /* \"#utility.yul\":3981:3985   */\n  0x22\n    /* \"#utility.yul\":3978:3979   */\n  0x04\n    /* \"#utility.yul\":3971:3986   */\n  mstore\n    /* \"#utility.yul\":4005:4009   */\n  0x24\n    /* \"#utility.yul\":4002:4003   */\n  0x00\n    /* \"#utility.yul\":3995:4010   */\n  revert\n    /* \"#utility.yul\":4022:4202   */\ntag_64:\n    /* \"#utility.yul\":4070:4147   */\n  0x4e487b7100000000000000000000000000000000000000000000000000000000\n    /* \"#utility.yul\":4067:4068   */\n  0x00\n    /* \"#utility.yul\":4060:4148   */\n  mstore\n    /* \"#utility.yul\":4167:4171   */\n  0x41\n    /* \"#utility.yul\":4164:4165   */\n  0x04\n    /* \"#utility.yul\":4157:4172   */\n  mstore\n    /* \"#utility.yul\":4191:4195   */\n  0x24\n    /* \"#utility.yul\":4188:4189   */\n  0x00\n    /* \"#utility.yul\":4181:4196   */\n  revert\n    /* \"#utility.yul\":4208:4325   */\ntag_39:\n    /* \"#utility.yul\":4317:4318   */\n  0x00\n    /* \"#utility.yul\":4314:4315   */\n  dup1\n    /* \"#utility.yul\":4307:4319   */\n  revert\n    /* \"#utility.yul\":4331:4448   */\ntag_32:\n    /* \"#utility.yul\":4440:4441   */\n  0x00\n    /* \"#utility.yul\":4437:4438   */\n  dup1\n    /* \"#utility.yul\":4430:4442   */\n  revert\n    /* \"#utility.yul\":4454:4571   */\ntag_51:\n    /* \"#utility.yul\":4563:4564   */\n  0x00\n    /* \"#utility.yul\":4560:4561   */\n  dup1\n    /* \"#utility.yul\":4553:4565   */\n  revert\n    /* \"#utility.yul\":4577:4694   */\ntag_48:\n    /* \"#utility.yul\":4686:4687   */\n  0x00\n    /* \"#utility.yul\":4683:4684   */\n  dup1\n    /* \"#utility.yul\":4676:4688   */\n  revert\n    /* \"#utility.yul\":4700:4802   */\ntag_66:\n    /* \"#utility.yul\":4741:4747   */\n  0x00\n    /* \"#utility.yul\":4792:4794   */\n  0x1f\n    /* \"#utility.yul\":4788:4795   */\n  not\n    /* \"#utility.yul\":4783:4785   */\n  0x1f\n    /* \"#utility.yul\":4776:4781   */\n  dup4\n    /* \"#utility.yul\":4772:4786   */\n  add\n    /* \"#utility.yul\":4768:4796   */\n  and\n    /* \"#utility.yul\":4758:4796   */\n  swap1\n  pop\n    /* \"#utility.yul\":4700:4802   */\n  swap2\n  swap1\n  pop\n  jump\t// out\n    /* \"#utility.yul\":4808:4930   */\ntag_44:\n    /* \"#utility.yul\":4881:4905   */\n  tag_98\n    /* \"#utility.yul\":4899:4904   */\n  dup2\n    /* \"#utility.yul\":4881:4905   */\n  tag_69\n  jump\t// in\ntag_98:\n    /* \"#utility.yul\":4874:4879   */\n  dup2\n    /* \"#utility.yul\":4871:4906   */\n  eq\n    /* \"#utility.yul\":4861:4924   */\n  tag_99\n  jumpi\n    /* \"#utility.yul\":4920:4921   */\n  0x00\n    /* \"#utility.yul\":4917:4918   */\n  dup1\n    /* \"#utility.yul\":4910:4922   */\n  revert\n    /* \"#utility.yul\":4861:4924   */\ntag_99:\n    /* \"#utility.yul\":4808:4930   */\n  pop\n  jump\t// out\n    /* \"contracts/BusinessConsensus.sol\":33:5184  contract BusinessConsensus{\r... */\ntag_11:\n  dataSize(sub_0)\n  dup1\n  dataOffset(sub_0)\n  0x00\n  codecopy\n  0x00\n  return\nstop\n\nsub_0: assembly {\n        /* \"contracts/BusinessConsensus.sol\":33:5184  contract BusinessConsensus{\r... */\n      mstore(0x40, 0x80)\n      callvalue\n      dup1\n      iszero\n      tag_1\n      jumpi\n      0x00\n      dup1\n      revert\n    tag_1:\n      pop\n      jumpi(tag_2, lt(calldatasize, 0x04))\n      shr(0xe0, calldataload(0x00))\n      dup1\n      0x753ec103\n      gt\n      tag_20\n      jumpi\n      dup1\n      0xa5ea11da\n      gt\n      tag_21\n      jumpi\n      dup1\n      0xa5ea11da\n      eq\n      tag_15\n      jumpi\n      dup1\n      0xb9a29250\n      eq\n      tag_16\n      jumpi\n      dup1\n      0xd77aa749\n      eq\n      tag_17\n      jumpi\n      dup1\n      0xda58c7d9\n      eq\n      tag_18\n      jumpi\n      dup1\n      0xf6b4dfb4\n      eq\n      tag_19\n      jumpi\n      jump(tag_2)\n    tag_21:\n      dup1\n      0x753ec103\n      eq\n      tag_11\n      jumpi\n      dup1\n      0x82316745\n      eq\n      tag_12\n      jumpi\n      dup1\n      0x95b02dfa\n      eq\n      tag_13\n      jumpi\n      dup1\n      0x9aa4bbdd\n      eq\n      tag_14\n      jumpi\n      jump(tag_2)\n    tag_20:\n      dup1\n      0x5361a0ea\n      gt\n      tag_22\n      jumpi\n      dup1\n      0x5361a0ea\n      eq\n      tag_7\n      jumpi\n      dup1\n      0x5c39fcc1\n      eq\n      tag_8\n      jumpi\n      dup1\n      0x604c8333\n      eq\n      tag_9\n      jumpi\n      dup1\n      0x7403c5e5\n      eq\n      tag_10\n      jumpi\n      jump(tag_2)\n    tag_22:\n      dup1\n      0x0cb6aaf1\n      eq\n      tag_3\n      jumpi\n      dup1\n      0x15fe6f1b\n      eq\n      tag_4\n      jumpi\n      dup1\n      0x19eb4a90\n      eq\n      tag_5\n      jumpi\n      dup1\n      0x323082d7\n      eq\n      tag_6\n      jumpi\n    tag_2:\n      0x00\n      dup1\n      revert\n        /* \"contracts/BusinessConsensus.sol\":997:1018  address[] public keys */\n    tag_3:\n      tag_23\n      0x04\n      dup1\n      calldatasize\n      sub\n      dup2\n      add\n      swap1\n      tag_24\n      swap2\n      swap1\n      tag_25\n      jump\t// in\n    tag_24:\n      tag_26\n      jump\t// in\n    tag_23:\n      mload(0x40)\n      tag_27\n      swap2\n      swap1\n      tag_28\n      jump\t// in\n    tag_27:\n      mload(0x40)\n      dup1\n      swap2\n      sub\n      swap1\n      return\n        /* \"contracts/BusinessConsensus.sol\":2391:3035  function RegisterVoter(address voter) external {\r... */\n    tag_4:\n      tag_29\n      0x04\n      dup1\n      calldatasize\n      sub\n      dup2\n      add\n      swap1\n      tag_30\n      swap2\n      swap1\n      tag_31\n      jump\t// in\n    tag_30:\n      tag_32\n      jump\t// in\n    tag_29:\n      stop\n        /* \"contracts/BusinessConsensus.sol\":1773:1873  function getValues() public view returns (string memory){\r... */\n    tag_5:\n      tag_33\n      tag_34\n      jump\t// in\n    tag_33:\n      mload(0x40)\n      tag_35\n      swap2\n      swap1\n      tag_36\n      jump\t// in\n    tag_35:\n      mload(0x40)\n      dup1\n      swap2\n      sub\n      swap1\n      return\n        /* \"contracts/BusinessConsensus.sol\":3043:4140  function Vote(string memory response) external {\r... */\n    tag_6:\n      tag_37\n      0x04\n      dup1\n      calldatasize\n      sub\n      dup2\n      add\n      swap1\n      tag_38\n      swap2\n      swap1\n      tag_39\n      jump\t// in\n    tag_38:\n      tag_40\n      jump\t// in\n    tag_37:\n      stop\n        /* \"contracts/BusinessConsensus.sol\":2073:2285  function getParameters2(address test_address) public view returns (bool, bool, address){\r... */\n    tag_7:\n      tag_41\n      0x04\n      dup1\n      calldatasize\n      sub\n      dup2\n      add\n      swap1\n      tag_42\n      swap2\n      swap1\n      tag_31\n      jump\t// in\n    tag_42:\n      tag_43\n      jump\t// in\n    tag_41:\n      mload(0x40)\n      tag_44\n      swap4\n      swap3\n      swap2\n      swap1\n      tag_45\n      jump\t// in\n    tag_44:\n      mload(0x40)\n      dup1\n      swap2\n      sub\n      swap1\n      return\n        /* \"contracts/BusinessConsensus.sol\":788:812  address public initiator */\n    tag_8:\n      tag_46\n      tag_47\n      jump\t// in\n    tag_46:\n      mload(0x40)\n      tag_48\n      swap2\n      swap1\n      tag_28\n      jump\t// in\n    tag_48:\n      mload(0x40)\n      dup1\n      swap2\n      sub\n      swap1\n      return\n        /* \"contracts/BusinessConsensus.sol\":861:894  uint public AccumulatedPercentage */\n    tag_9:\n      tag_49\n      tag_50\n      jump\t// in\n    tag_49:\n      mload(0x40)\n      tag_51\n      swap2\n      swap1\n      tag_52\n      jump\t// in\n    tag_51:\n      mload(0x40)\n      dup1\n      swap2\n      sub\n      swap1\n      return\n        /* \"contracts/BusinessConsensus.sol\":901:925  uint public numApprovals */\n    tag_10:\n      tag_53\n      tag_54\n      jump\t// in\n    tag_53:\n      mload(0x40)\n      tag_55\n      swap2\n      swap1\n      tag_52\n      jump\t// in\n    tag_55:\n      mload(0x40)\n      dup1\n      swap2\n      sub\n      swap1\n      return\n        /* \"contracts/BusinessConsensus.sol\":1145:1169  Proposal public proposal */\n    tag_11:\n      tag_56\n      tag_57\n      jump\t// in\n    tag_56:\n      mload(0x40)\n      tag_58\n      swap3\n      swap2\n      swap1\n      tag_59\n      jump\t// in\n    tag_58:\n      mload(0x40)\n      dup1\n      swap2\n      sub\n      swap1\n      return\n        /* \"contracts/BusinessConsensus.sol\":4933:5179  function retrieve_bundle() public view returns (string memory, Proposal memory, Voter[] memory){\r... */\n    tag_12:\n      tag_60\n      tag_61\n      jump\t// in\n    tag_60:\n      mload(0x40)\n      tag_62\n      swap4\n      swap3\n      swap2\n      swap1\n      tag_63\n      jump\t// in\n    tag_62:\n      mload(0x40)\n      dup1\n      swap2\n      sub\n      swap1\n      return\n        /* \"contracts/BusinessConsensus.sol\":4204:4925  function Consensus() external {\r... */\n    tag_13:\n      tag_64\n      tag_65\n      jump\t// in\n    tag_64:\n      stop\n        /* \"contracts/BusinessConsensus.sol\":1025:1068  mapping(address => Voter) public voters_map */\n    tag_14:\n      tag_66\n      0x04\n      dup1\n      calldatasize\n      sub\n      dup2\n      add\n      swap1\n      tag_67\n      swap2\n      swap1\n      tag_31\n      jump\t// in\n    tag_67:\n      tag_68\n      jump\t// in\n    tag_66:\n      mload(0x40)\n      tag_69\n      swap4\n      swap3\n      swap2\n      swap1\n      tag_70\n      jump\t// in\n    tag_69:\n      mload(0x40)\n      dup1\n      swap2\n      sub\n      swap1\n      return\n        /* \"contracts/BusinessConsensus.sol\":1879:2067  function getParameters() public view returns (string memory, uint , address ,uint ,uint){\r... */\n    tag_15:\n      tag_71\n      tag_72\n      jump\t// in\n    tag_71:\n      mload(0x40)\n      tag_73\n      swap6\n      swap5\n      swap4\n      swap3\n      swap2\n      swap1\n      tag_74\n      jump\t// in\n    tag_73:\n      mload(0x40)\n      dup1\n      swap2\n      sub\n      swap1\n      return\n        /* \"contracts/BusinessConsensus.sol\":934:960  uint public numberCompiled */\n    tag_16:\n      tag_75\n      tag_76\n      jump\t// in\n    tag_75:\n      mload(0x40)\n      tag_77\n      swap2\n      swap1\n      tag_52\n      jump\t// in\n    tag_77:\n      mload(0x40)\n      dup1\n      swap2\n      sub\n      swap1\n      return\n        /* \"contracts/BusinessConsensus.sol\":823:854  uint public BusinessRequirement */\n    tag_17:\n      tag_78\n      tag_79\n      jump\t// in\n    tag_78:\n      mload(0x40)\n      tag_80\n      swap2\n      swap1\n      tag_52\n      jump\t// in\n    tag_80:\n      mload(0x40)\n      dup1\n      swap2\n      sub\n      swap1\n      return\n        /* \"contracts/BusinessConsensus.sol\":969:990  Voter[] public voters */\n    tag_18:\n      tag_81\n      0x04\n      dup1\n      calldatasize\n      sub\n      dup2\n      add\n      swap1\n      tag_82\n      swap2\n      swap1\n      tag_25\n      jump\t// in\n    tag_82:\n      tag_83\n      jump\t// in\n    tag_81:\n      mload(0x40)\n      tag_84\n      swap4\n      swap3\n      swap2\n      swap1\n      tag_70\n      jump\t// in\n    tag_84:\n      mload(0x40)\n      dup1\n      swap2\n      sub\n      swap1\n      return\n        /* \"contracts/BusinessConsensus.sol\":598:628  address public contractAddress */\n    tag_19:\n      tag_85\n      tag_86\n      jump\t// in\n    tag_85:\n      mload(0x40)\n      tag_87\n      swap2\n      swap1\n      tag_28\n      jump\t// in\n    tag_87:\n      mload(0x40)\n      dup1\n      swap2\n      sub\n      swap1\n      return\n        /* \"contracts/BusinessConsensus.sol\":997:1018  address[] public keys */\n    tag_26:\n      0x09\n      dup2\n      dup2\n      sload\n      dup2\n      lt\n      tag_88\n      jumpi\n      0x00\n      dup1\n      revert\n    tag_88:\n      swap1\n      0x00\n      mstore\n      keccak256(0x00, 0x20)\n      add\n      0x00\n      swap2\n      pop\n      sload\n      swap1\n      0x0100\n      exp\n      swap1\n      div\n      0xffffffffffffffffffffffffffffffffffffffff\n      and\n      dup2\n      jump\t// out\n        /* \"contracts/BusinessConsensus.sol\":2391:3035  function RegisterVoter(address voter) external {\r... */\n    tag_32:\n        /* \"contracts/BusinessConsensus.sol\":2559:2568  initiator */\n      0x03\n      0x00\n      swap1\n      sload\n      swap1\n      0x0100\n      exp\n      swap1\n      div\n      0xffffffffffffffffffffffffffffffffffffffff\n      and\n        /* \"contracts/BusinessConsensus.sol\":2545:2568  msg.sender == initiator */\n      0xffffffffffffffffffffffffffffffffffffffff\n      and\n        /* \"contracts/BusinessConsensus.sol\":2545:2555  msg.sender */\n      caller\n        /* \"contracts/BusinessConsensus.sol\":2545:2568  msg.sender == initiator */\n      0xffffffffffffffffffffffffffffffffffffffff\n      and\n      eq\n        /* \"contracts/BusinessConsensus.sol\":2523:2636  require(\r... */\n      tag_91\n      jumpi\n      mload(0x40)\n      0x08c379a000000000000000000000000000000000000000000000000000000000\n      dup2\n      mstore\n      0x04\n      add\n      tag_92\n      swap1\n      tag_93\n      jump\t// in\n    tag_92:\n      mload(0x40)\n      dup1\n      swap2\n      sub\n      swap1\n      revert\n    tag_91:\n        /* \"contracts/BusinessConsensus.sol\":2664:2673  initiator */\n      0x03\n      0x00\n      swap1\n      sload\n      swap1\n      0x0100\n      exp\n      swap1\n      div\n      0xffffffffffffffffffffffffffffffffffffffff\n      and\n        /* \"contracts/BusinessConsensus.sol\":2655:2673  voter != initiator */\n      0xffffffffffffffffffffffffffffffffffffffff\n      and\n        /* \"contracts/BusinessConsensus.sol\":2655:2660  voter */\n      dup2\n        /* \"contracts/BusinessConsensus.sol\":2655:2673  voter != initiator */\n      0xffffffffffffffffffffffffffffffffffffffff\n      and\n      eq\n      iszero\n        /* \"contracts/BusinessConsensus.sol\":2647:2699  require(voter != initiator, \"Initiator can't vote!\") */\n      tag_94\n      jumpi\n      mload(0x40)\n      0x08c379a000000000000000000000000000000000000000000000000000000000\n      dup2\n      mstore\n      0x04\n      add\n      tag_95\n      swap1\n      tag_96\n      jump\t// in\n    tag_95:\n      mload(0x40)\n      dup1\n      swap2\n      sub\n      swap1\n      revert\n    tag_94:\n        /* \"contracts/BusinessConsensus.sol\":2759:2760  0 */\n      0x00\n        /* \"contracts/BusinessConsensus.sol\":2720:2761  voters_map[voter].recipient == address(0) */\n      0xffffffffffffffffffffffffffffffffffffffff\n      and\n        /* \"contracts/BusinessConsensus.sol\":2720:2730  voters_map */\n      0x0a\n        /* \"contracts/BusinessConsensus.sol\":2720:2737  voters_map[voter] */\n      0x00\n        /* \"contracts/BusinessConsensus.sol\":2731:2736  voter */\n      dup4\n        /* \"contracts/BusinessConsensus.sol\":2720:2737  voters_map[voter] */\n      0xffffffffffffffffffffffffffffffffffffffff\n      and\n      0xffffffffffffffffffffffffffffffffffffffff\n      and\n      dup2\n      mstore\n      0x20\n      add\n      swap1\n      dup2\n      mstore\n      0x20\n      add\n      0x00\n      keccak256\n        /* \"contracts/BusinessConsensus.sol\":2720:2747  voters_map[voter].recipient */\n      0x00\n      add\n      0x01\n      swap1\n      sload\n      swap1\n      0x0100\n      exp\n      swap1\n      div\n      0xffffffffffffffffffffffffffffffffffffffff\n      and\n        /* \"contracts/BusinessConsensus.sol\":2720:2761  voters_map[voter].recipient == address(0) */\n      0xffffffffffffffffffffffffffffffffffffffff\n      and\n      eq\n        /* \"contracts/BusinessConsensus.sol\":2712:2797  require(voters_map[voter].recipient == address(0), \"Recipient is already registered\") */\n      tag_97\n      jumpi\n      mload(0x40)\n      0x08c379a000000000000000000000000000000000000000000000000000000000\n      dup2\n      mstore\n      0x04\n      add\n      tag_98\n      swap1\n      tag_99\n      jump\t// in\n    tag_98:\n      mload(0x40)\n      dup1\n      swap2\n      sub\n      swap1\n      revert\n    tag_97:\n        /* \"contracts/BusinessConsensus.sol\":2836:2846  expiryDate */\n      sload(0x01)\n        /* \"contracts/BusinessConsensus.sol\":2818:2833  block.timestamp */\n      timestamp\n        /* \"contracts/BusinessConsensus.sol\":2818:2846  block.timestamp < expiryDate */\n      lt\n        /* \"contracts/BusinessConsensus.sol\":2810:2887  require(block.timestamp < expiryDate, \"Proposal has reached its expiry date\") */\n      tag_100\n      jumpi\n      mload(0x40)\n      0x08c379a000000000000000000000000000000000000000000000000000000000\n      dup2\n      mstore\n      0x04\n      add\n      tag_101\n      swap1\n      tag_102\n      jump\t// in\n    tag_101:\n      mload(0x40)\n      dup1\n      swap2\n      sub\n      swap1\n      revert\n    tag_100:\n        /* \"contracts/BusinessConsensus.sol\":2900:2914  Voter memory x */\n      0x00\n        /* \"contracts/BusinessConsensus.sol\":2917:2968  Voter({voted: false,recipient: voter, vote: false}) */\n      mload(0x40)\n      dup1\n      0x60\n      add\n      0x40\n      mstore\n      dup1\n        /* \"contracts/BusinessConsensus.sol\":2931:2936  false */\n      0x00\n        /* \"contracts/BusinessConsensus.sol\":2917:2968  Voter({voted: false,recipient: voter, vote: false}) */\n      iszero\n      iszero\n      dup2\n      mstore\n      0x20\n      add\n        /* \"contracts/BusinessConsensus.sol\":2948:2953  voter */\n      dup4\n        /* \"contracts/BusinessConsensus.sol\":2917:2968  Voter({voted: false,recipient: voter, vote: false}) */\n      0xffffffffffffffffffffffffffffffffffffffff\n      and\n      dup2\n      mstore\n      0x20\n      add\n        /* \"contracts/BusinessConsensus.sol\":2961:2966  false */\n      0x00\n        /* \"contracts/BusinessConsensus.sol\":2917:2968  Voter({voted: false,recipient: voter, vote: false}) */\n      iszero\n      iszero\n      dup2\n      mstore\n      pop\n        /* \"contracts/BusinessConsensus.sol\":2900:2968  Voter memory x = Voter({voted: false,recipient: voter, vote: false}) */\n      swap1\n      pop\n        /* \"contracts/BusinessConsensus.sol\":2999:3000  x */\n      dup1\n        /* \"contracts/BusinessConsensus.sol\":2979:2989  voters_map */\n      0x0a\n        /* \"contracts/BusinessConsensus.sol\":2979:2996  voters_map[voter] */\n      0x00\n        /* \"contracts/BusinessConsensus.sol\":2990:2995  voter */\n      dup5\n        /* \"contracts/BusinessConsensus.sol\":2979:2996  voters_map[voter] */\n      0xffffffffffffffffffffffffffffffffffffffff\n      and\n      0xffffffffffffffffffffffffffffffffffffffff\n      and\n      dup2\n      mstore\n      0x20\n      add\n      swap1\n      dup2\n      mstore\n      0x20\n      add\n      0x00\n      keccak256\n        /* \"contracts/BusinessConsensus.sol\":2979:3000  voters_map[voter] = x */\n      0x00\n      dup3\n      add\n      mload\n      dup2\n      0x00\n      add\n      exp(0x0100, 0x00)\n      dup2\n      sload\n      dup2\n      0xff\n      mul\n      not\n      and\n      swap1\n      dup4\n      iszero\n      iszero\n      mul\n      or\n      swap1\n      sstore\n      pop\n      0x20\n      dup3\n      add\n      mload\n      dup2\n      0x00\n      add\n      exp(0x0100, 0x01)\n      dup2\n      sload\n      dup2\n      0xffffffffffffffffffffffffffffffffffffffff\n      mul\n      not\n      and\n      swap1\n      dup4\n      0xffffffffffffffffffffffffffffffffffffffff\n      and\n      mul\n      or\n      swap1\n      sstore\n      pop\n      0x40\n      dup3\n      add\n      mload\n      dup2\n      0x00\n      add\n      exp(0x0100, 0x15)\n      dup2\n      sload\n      dup2\n      0xff\n      mul\n      not\n      and\n      swap1\n      dup4\n      iszero\n      iszero\n      mul\n      or\n      swap1\n      sstore\n      pop\n      swap1\n      pop\n      pop\n        /* \"contracts/BusinessConsensus.sol\":3011:3015  keys */\n      0x09\n        /* \"contracts/BusinessConsensus.sol\":3021:3026  voter */\n      dup3\n        /* \"contracts/BusinessConsensus.sol\":3011:3027  keys.push(voter) */\n      swap1\n      dup1\n      0x01\n      dup2\n      sload\n      add\n      dup1\n      dup3\n      sstore\n      dup1\n      swap2\n      pop\n      pop\n      0x01\n      swap1\n      sub\n      swap1\n      0x00\n      mstore\n      keccak256(0x00, 0x20)\n      add\n      0x00\n      swap1\n      swap2\n      swap1\n      swap2\n      swap1\n      swap2\n      0x0100\n      exp\n      dup2\n      sload\n      dup2\n      0xffffffffffffffffffffffffffffffffffffffff\n      mul\n      not\n      and\n      swap1\n      dup4\n      0xffffffffffffffffffffffffffffffffffffffff\n      and\n      mul\n      or\n      swap1\n      sstore\n      pop\n        /* \"contracts/BusinessConsensus.sol\":2438:3035  {\r... */\n      pop\n        /* \"contracts/BusinessConsensus.sol\":2391:3035  function RegisterVoter(address voter) external {\r... */\n      pop\n      jump\t// out\n        /* \"contracts/BusinessConsensus.sol\":1773:1873  function getValues() public view returns (string memory){\r... */\n    tag_34:\n        /* \"contracts/BusinessConsensus.sol\":1815:1828  string memory */\n      0x60\n        /* \"contracts/BusinessConsensus.sol\":1847:1855  proposal */\n      0x0b\n        /* \"contracts/BusinessConsensus.sol\":1847:1865  proposal.messageID */\n      0x01\n      add\n        /* \"contracts/BusinessConsensus.sol\":1840:1865  return proposal.messageID */\n      dup1\n      sload\n      tag_105\n      swap1\n      tag_106\n      jump\t// in\n    tag_105:\n      dup1\n      0x1f\n      add\n      0x20\n      dup1\n      swap2\n      div\n      mul\n      0x20\n      add\n      mload(0x40)\n      swap1\n      dup2\n      add\n      0x40\n      mstore\n      dup1\n      swap3\n      swap2\n      swap1\n      dup2\n      dup2\n      mstore\n      0x20\n      add\n      dup3\n      dup1\n      sload\n      tag_107\n      swap1\n      tag_106\n      jump\t// in\n    tag_107:\n      dup1\n      iszero\n      tag_108\n      jumpi\n      dup1\n      0x1f\n      lt\n      tag_109\n      jumpi\n      0x0100\n      dup1\n      dup4\n      sload\n      div\n      mul\n      dup4\n      mstore\n      swap2\n      0x20\n      add\n      swap2\n      jump(tag_108)\n    tag_109:\n      dup3\n      add\n      swap2\n      swap1\n      0x00\n      mstore\n      keccak256(0x00, 0x20)\n      swap1\n    tag_110:\n      dup2\n      sload\n      dup2\n      mstore\n      swap1\n      0x01\n      add\n      swap1\n      0x20\n      add\n      dup1\n      dup4\n      gt\n      tag_110\n      jumpi\n      dup3\n      swap1\n      sub\n      0x1f\n      and\n      dup3\n      add\n      swap2\n    tag_108:\n      pop\n      pop\n      pop\n      pop\n      pop\n      swap1\n      pop\n        /* \"contracts/BusinessConsensus.sol\":1773:1873  function getValues() public view returns (string memory){\r... */\n      swap1\n      jump\t// out\n        /* \"contracts/BusinessConsensus.sol\":3043:4140  function Vote(string memory response) external {\r... */\n    tag_40:\n        /* \"contracts/BusinessConsensus.sol\":3129:3139  expiryDate */\n      sload(0x01)\n        /* \"contracts/BusinessConsensus.sol\":3111:3126  block.timestamp */\n      timestamp\n        /* \"contracts/BusinessConsensus.sol\":3111:3139  block.timestamp < expiryDate */\n      lt\n        /* \"contracts/BusinessConsensus.sol\":3103:3162  require(block.timestamp < expiryDate, \"Voting has expired\") */\n      tag_112\n      jumpi\n      mload(0x40)\n      0x08c379a000000000000000000000000000000000000000000000000000000000\n      dup2\n      mstore\n      0x04\n      add\n      tag_113\n      swap1\n      tag_114\n      jump\t// in\n    tag_113:\n      mload(0x40)\n      dup1\n      swap2\n      sub\n      swap1\n      revert\n    tag_112:\n        /* \"contracts/BusinessConsensus.sol\":3225:3228  0x0 */\n      0x00\n        /* \"contracts/BusinessConsensus.sol\":3181:3229  voters_map[msg.sender].recipient != address(0x0) */\n      0xffffffffffffffffffffffffffffffffffffffff\n      and\n        /* \"contracts/BusinessConsensus.sol\":3181:3191  voters_map */\n      0x0a\n        /* \"contracts/BusinessConsensus.sol\":3181:3203  voters_map[msg.sender] */\n      0x00\n        /* \"contracts/BusinessConsensus.sol\":3192:3202  msg.sender */\n      caller\n        /* \"contracts/BusinessConsensus.sol\":3181:3203  voters_map[msg.sender] */\n      0xffffffffffffffffffffffffffffffffffffffff\n      and\n      0xffffffffffffffffffffffffffffffffffffffff\n      and\n      dup2\n      mstore\n      0x20\n      add\n      swap1\n      dup2\n      mstore\n      0x20\n      add\n      0x00\n      keccak256\n        /* \"contracts/BusinessConsensus.sol\":3181:3213  voters_map[msg.sender].recipient */\n      0x00\n      add\n      0x01\n      swap1\n      sload\n      swap1\n      0x0100\n      exp\n      swap1\n      div\n      0xffffffffffffffffffffffffffffffffffffffff\n      and\n        /* \"contracts/BusinessConsensus.sol\":3181:3229  voters_map[msg.sender].recipient != address(0x0) */\n      0xffffffffffffffffffffffffffffffffffffffff\n      and\n      eq\n      iszero\n        /* \"contracts/BusinessConsensus.sol\":3173:3264  require(voters_map[msg.sender].recipient != address(0x0), \"You are not registered to vote\") */\n      tag_115\n      jumpi\n      mload(0x40)\n      0x08c379a000000000000000000000000000000000000000000000000000000000\n      dup2\n      mstore\n      0x04\n      add\n      tag_116\n      swap1\n      tag_117\n      jump\t// in\n    tag_116:\n      mload(0x40)\n      dup1\n      swap2\n      sub\n      swap1\n      revert\n    tag_115:\n        /* \"contracts/BusinessConsensus.sol\":3284:3294  voters_map */\n      0x0a\n        /* \"contracts/BusinessConsensus.sol\":3284:3306  voters_map[msg.sender] */\n      0x00\n        /* \"contracts/BusinessConsensus.sol\":3295:3305  msg.sender */\n      caller\n        /* \"contracts/BusinessConsensus.sol\":3284:3306  voters_map[msg.sender] */\n      0xffffffffffffffffffffffffffffffffffffffff\n      and\n      0xffffffffffffffffffffffffffffffffffffffff\n      and\n      dup2\n      mstore\n      0x20\n      add\n      swap1\n      dup2\n      mstore\n      0x20\n      add\n      0x00\n      keccak256\n        /* \"contracts/BusinessConsensus.sol\":3284:3312  voters_map[msg.sender].voted */\n      0x00\n      add\n      0x00\n      swap1\n      sload\n      swap1\n      0x0100\n      exp\n      swap1\n      div\n      0xff\n      and\n        /* \"contracts/BusinessConsensus.sol\":3283:3312  !voters_map[msg.sender].voted */\n      iszero\n        /* \"contracts/BusinessConsensus.sol\":3275:3345  require(!voters_map[msg.sender].voted, \"You already sent a response.\") */\n      tag_118\n      jumpi\n      mload(0x40)\n      0x08c379a000000000000000000000000000000000000000000000000000000000\n      dup2\n      mstore\n      0x04\n      add\n      tag_119\n      swap1\n      tag_120\n      jump\t// in\n    tag_119:\n      mload(0x40)\n      dup1\n      swap2\n      sub\n      swap1\n      revert\n    tag_118:\n        /* \"contracts/BusinessConsensus.sol\":3401:3419  bytes(\"i approve\") */\n      mload(0x40)\n      dup1\n      0x40\n      add\n      0x40\n      mstore\n      dup1\n      0x09\n      dup2\n      mstore\n      0x20\n      add\n      0x6920617070726f76650000000000000000000000000000000000000000000000\n      dup2\n      mstore\n      pop\n        /* \"contracts/BusinessConsensus.sol\":3391:3420  keccak256(bytes(\"i approve\")) */\n      dup1\n      mload\n      swap1\n      0x20\n      add\n      keccak256\n        /* \"contracts/BusinessConsensus.sol\":3377:3385  response */\n      dup2\n        /* \"contracts/BusinessConsensus.sol\":3361:3387  keccak256(bytes(response)) */\n      dup1\n      mload\n      swap1\n      0x20\n      add\n      keccak256\n        /* \"contracts/BusinessConsensus.sol\":3361:3420  keccak256(bytes(response)) == keccak256(bytes(\"i approve\")) */\n      eq\n        /* \"contracts/BusinessConsensus.sol\":3358:4123  if(keccak256(bytes(response)) == keccak256(bytes(\"i approve\"))){\r... */\n      iszero\n      tag_121\n      jumpi\n        /* \"contracts/BusinessConsensus.sol\":3467:3471  true */\n      0x01\n        /* \"contracts/BusinessConsensus.sol\":3436:3446  voters_map */\n      0x0a\n        /* \"contracts/BusinessConsensus.sol\":3436:3458  voters_map[msg.sender] */\n      0x00\n        /* \"contracts/BusinessConsensus.sol\":3447:3457  msg.sender */\n      caller\n        /* \"contracts/BusinessConsensus.sol\":3436:3458  voters_map[msg.sender] */\n      0xffffffffffffffffffffffffffffffffffffffff\n      and\n      0xffffffffffffffffffffffffffffffffffffffff\n      and\n      dup2\n      mstore\n      0x20\n      add\n      swap1\n      dup2\n      mstore\n      0x20\n      add\n      0x00\n      keccak256\n        /* \"contracts/BusinessConsensus.sol\":3436:3464  voters_map[msg.sender].voted */\n      0x00\n      add\n      0x00\n        /* \"contracts/BusinessConsensus.sol\":3436:3471  voters_map[msg.sender].voted = true */\n      0x0100\n      exp\n      dup2\n      sload\n      dup2\n      0xff\n      mul\n      not\n      and\n      swap1\n      dup4\n      iszero\n      iszero\n      mul\n      or\n      swap1\n      sstore\n      pop\n        /* \"contracts/BusinessConsensus.sol\":3516:3520  true */\n      0x01\n        /* \"contracts/BusinessConsensus.sol\":3486:3496  voters_map */\n      0x0a\n        /* \"contracts/BusinessConsensus.sol\":3486:3508  voters_map[msg.sender] */\n      0x00\n        /* \"contracts/BusinessConsensus.sol\":3497:3507  msg.sender */\n      caller\n        /* \"contracts/BusinessConsensus.sol\":3486:3508  voters_map[msg.sender] */\n      0xffffffffffffffffffffffffffffffffffffffff\n      and\n      0xffffffffffffffffffffffffffffffffffffffff\n      and\n      dup2\n      mstore\n      0x20\n      add\n      swap1\n      dup2\n      mstore\n      0x20\n      add\n      0x00\n      keccak256\n        /* \"contracts/BusinessConsensus.sol\":3486:3513  voters_map[msg.sender].vote */\n      0x00\n      add\n      0x15\n        /* \"contracts/BusinessConsensus.sol\":3486:3520  voters_map[msg.sender].vote = true */\n      0x0100\n      exp\n      dup2\n      sload\n      dup2\n      0xff\n      mul\n      not\n      and\n      swap1\n      dup4\n      iszero\n      iszero\n      mul\n      or\n      swap1\n      sstore\n      pop\n        /* \"contracts/BusinessConsensus.sol\":3551:3552  1 */\n      0x01\n        /* \"contracts/BusinessConsensus.sol\":3535:3547  numApprovals */\n      0x06\n      0x00\n        /* \"contracts/BusinessConsensus.sol\":3535:3552  numApprovals += 1 */\n      dup3\n      dup3\n      sload\n      tag_122\n      swap2\n      swap1\n      tag_123\n      jump\t// in\n    tag_122:\n      swap3\n      pop\n      pop\n      dup2\n      swap1\n      sstore\n      pop\n        /* \"contracts/BusinessConsensus.sol\":3589:3590  1 */\n      0x01\n        /* \"contracts/BusinessConsensus.sol\":3567:3575  proposal */\n      0x0b\n        /* \"contracts/BusinessConsensus.sol\":3567:3585  proposal.voteCount */\n      0x00\n      add\n      0x00\n        /* \"contracts/BusinessConsensus.sol\":3567:3590  proposal.voteCount += 1 */\n      dup3\n      dup3\n      sload\n      tag_124\n      swap2\n      swap1\n      tag_123\n      jump\t// in\n    tag_124:\n      swap3\n      pop\n      pop\n      dup2\n      swap1\n      sstore\n      pop\n        /* \"contracts/BusinessConsensus.sol\":3605:3611  voters */\n      0x08\n        /* \"contracts/BusinessConsensus.sol\":3617:3627  voters_map */\n      0x0a\n        /* \"contracts/BusinessConsensus.sol\":3617:3639  voters_map[msg.sender] */\n      0x00\n        /* \"contracts/BusinessConsensus.sol\":3628:3638  msg.sender */\n      caller\n        /* \"contracts/BusinessConsensus.sol\":3617:3639  voters_map[msg.sender] */\n      0xffffffffffffffffffffffffffffffffffffffff\n      and\n      0xffffffffffffffffffffffffffffffffffffffff\n      and\n      dup2\n      mstore\n      0x20\n      add\n      swap1\n      dup2\n      mstore\n      0x20\n      add\n      0x00\n      keccak256\n        /* \"contracts/BusinessConsensus.sol\":3605:3640  voters.push(voters_map[msg.sender]) */\n      swap1\n      dup1\n      0x01\n      dup2\n      sload\n      add\n      dup1\n      dup3\n      sstore\n      dup1\n      swap2\n      pop\n      pop\n      0x01\n      swap1\n      sub\n      swap1\n      0x00\n      mstore\n      keccak256(0x00, 0x20)\n      add\n      0x00\n      swap1\n      swap2\n      swap1\n      swap2\n      swap1\n      swap2\n      pop\n      0x00\n      dup3\n      add\n      0x00\n      swap1\n      sload\n      swap1\n      0x0100\n      exp\n      swap1\n      div\n      0xff\n      and\n      dup2\n      0x00\n      add\n      exp(0x0100, 0x00)\n      dup2\n      sload\n      dup2\n      0xff\n      mul\n      not\n      and\n      swap1\n      dup4\n      iszero\n      iszero\n      mul\n      or\n      swap1\n      sstore\n      pop\n      0x00\n      dup3\n      add\n      0x01\n      swap1\n      sload\n      swap1\n      0x0100\n      exp\n      swap1\n      div\n      0xffffffffffffffffffffffffffffffffffffffff\n      and\n      dup2\n      0x00\n      add\n      exp(0x0100, 0x01)\n      dup2\n      sload\n      dup2\n      0xffffffffffffffffffffffffffffffffffffffff\n      mul\n      not\n      and\n      swap1\n      dup4\n      0xffffffffffffffffffffffffffffffffffffffff\n      and\n      mul\n      or\n      swap1\n      sstore\n      pop\n      0x00\n      dup3\n      add\n      0x15\n      swap1\n      sload\n      swap1\n      0x0100\n      exp\n      swap1\n      div\n      0xff\n      and\n      dup2\n      0x00\n      add\n      exp(0x0100, 0x15)\n      dup2\n      sload\n      dup2\n      0xff\n      mul\n      not\n      and\n      swap1\n      dup4\n      iszero\n      iszero\n      mul\n      or\n      swap1\n      sstore\n      pop\n      pop\n      pop\n        /* \"contracts/BusinessConsensus.sol\":3358:4123  if(keccak256(bytes(response)) == keccak256(bytes(\"i approve\"))){\r... */\n      jump(tag_126)\n    tag_121:\n        /* \"contracts/BusinessConsensus.sol\":3712:3733  bytes(\"i disapprove\") */\n      mload(0x40)\n      dup1\n      0x40\n      add\n      0x40\n      mstore\n      dup1\n      0x0c\n      dup2\n      mstore\n      0x20\n      add\n      0x6920646973617070726f76650000000000000000000000000000000000000000\n      dup2\n      mstore\n      pop\n        /* \"contracts/BusinessConsensus.sol\":3702:3734  keccak256(bytes(\"i disapprove\")) */\n      dup1\n      mload\n      swap1\n      0x20\n      add\n      keccak256\n        /* \"contracts/BusinessConsensus.sol\":3688:3696  response */\n      dup2\n        /* \"contracts/BusinessConsensus.sol\":3672:3698  keccak256(bytes(response)) */\n      dup1\n      mload\n      swap1\n      0x20\n      add\n      keccak256\n        /* \"contracts/BusinessConsensus.sol\":3672:3734  keccak256(bytes(response)) == keccak256(bytes(\"i disapprove\")) */\n      eq\n        /* \"contracts/BusinessConsensus.sol\":3669:4123  if(keccak256(bytes(response)) == keccak256(bytes(\"i disapprove\"))){\r... */\n      iszero\n      tag_127\n      jumpi\n        /* \"contracts/BusinessConsensus.sol\":3781:3785  true */\n      0x01\n        /* \"contracts/BusinessConsensus.sol\":3750:3760  voters_map */\n      0x0a\n        /* \"contracts/BusinessConsensus.sol\":3750:3772  voters_map[msg.sender] */\n      0x00\n        /* \"contracts/BusinessConsensus.sol\":3761:3771  msg.sender */\n      caller\n        /* \"contracts/BusinessConsensus.sol\":3750:3772  voters_map[msg.sender] */\n      0xffffffffffffffffffffffffffffffffffffffff\n      and\n      0xffffffffffffffffffffffffffffffffffffffff\n      and\n      dup2\n      mstore\n      0x20\n      add\n      swap1\n      dup2\n      mstore\n      0x20\n      add\n      0x00\n      keccak256\n        /* \"contracts/BusinessConsensus.sol\":3750:3778  voters_map[msg.sender].voted */\n      0x00\n      add\n      0x00\n        /* \"contracts/BusinessConsensus.sol\":3750:3785  voters_map[msg.sender].voted = true */\n      0x0100\n      exp\n      dup2\n      sload\n      dup2\n      0xff\n      mul\n      not\n      and\n      swap1\n      dup4\n      iszero\n      iszero\n      mul\n      or\n      swap1\n      sstore\n      pop\n        /* \"contracts/BusinessConsensus.sol\":3822:3823  1 */\n      0x01\n        /* \"contracts/BusinessConsensus.sol\":3800:3808  proposal */\n      0x0b\n        /* \"contracts/BusinessConsensus.sol\":3800:3818  proposal.voteCount */\n      0x00\n      add\n      0x00\n        /* \"contracts/BusinessConsensus.sol\":3800:3823  proposal.voteCount += 1 */\n      dup3\n      dup3\n      sload\n      tag_128\n      swap2\n      swap1\n      tag_123\n      jump\t// in\n    tag_128:\n      swap3\n      pop\n      pop\n      dup2\n      swap1\n      sstore\n      pop\n        /* \"contracts/BusinessConsensus.sol\":3838:3844  voters */\n      0x08\n        /* \"contracts/BusinessConsensus.sol\":3850:3860  voters_map */\n      0x0a\n        /* \"contracts/BusinessConsensus.sol\":3850:3872  voters_map[msg.sender] */\n      0x00\n        /* \"contracts/BusinessConsensus.sol\":3861:3871  msg.sender */\n      caller\n        /* \"contracts/BusinessConsensus.sol\":3850:3872  voters_map[msg.sender] */\n      0xffffffffffffffffffffffffffffffffffffffff\n      and\n      0xffffffffffffffffffffffffffffffffffffffff\n      and\n      dup2\n      mstore\n      0x20\n      add\n      swap1\n      dup2\n      mstore\n      0x20\n      add\n      0x00\n      keccak256\n        /* \"contracts/BusinessConsensus.sol\":3838:3873  voters.push(voters_map[msg.sender]) */\n      swap1\n      dup1\n      0x01\n      dup2\n      sload\n      add\n      dup1\n      dup3\n      sstore\n      dup1\n      swap2\n      pop\n      pop\n      0x01\n      swap1\n      sub\n      swap1\n      0x00\n      mstore\n      keccak256(0x00, 0x20)\n      add\n      0x00\n      swap1\n      swap2\n      swap1\n      swap2\n      swap1\n      swap2\n      pop\n      0x00\n      dup3\n      add\n      0x00\n      swap1\n      sload\n      swap1\n      0x0100\n      exp\n      swap1\n      div\n      0xff\n      and\n      dup2\n      0x00\n      add\n      exp(0x0100, 0x00)\n      dup2\n      sload\n      dup2\n      0xff\n      mul\n      not\n      and\n      swap1\n      dup4\n      iszero\n      iszero\n      mul\n      or\n      swap1\n      sstore\n      pop\n      0x00\n      dup3\n      add\n      0x01\n      swap1\n      sload\n      swap1\n      0x0100\n      exp\n      swap1\n      div\n      0xffffffffffffffffffffffffffffffffffffffff\n      and\n      dup2\n      0x00\n      add\n      exp(0x0100, 0x01)\n      dup2\n      sload\n      dup2\n      0xffffffffffffffffffffffffffffffffffffffff\n      mul\n      not\n      and\n      swap1\n      dup4\n      0xffffffffffffffffffffffffffffffffffffffff\n      and\n      mul\n      or\n      swap1\n      sstore\n      pop\n      0x00\n      dup3\n      add\n      0x15\n      swap1\n      sload\n      swap1\n      0x0100\n      exp\n      swap1\n      div\n      0xff\n      and\n      dup2\n      0x00\n      add\n      exp(0x0100, 0x15)\n      dup2\n      sload\n      dup2\n      0xff\n      mul\n      not\n      and\n      swap1\n      dup4\n      iszero\n      iszero\n      mul\n      or\n      swap1\n      sstore\n      pop\n      pop\n      pop\n        /* \"contracts/BusinessConsensus.sol\":3669:4123  if(keccak256(bytes(response)) == keccak256(bytes(\"i disapprove\"))){\r... */\n      jump(tag_130)\n    tag_127:\n        /* \"contracts/BusinessConsensus.sol\":4019:4023  true */\n      0x01\n        /* \"contracts/BusinessConsensus.sol\":3988:3998  voters_map */\n      0x0a\n        /* \"contracts/BusinessConsensus.sol\":3988:4010  voters_map[msg.sender] */\n      0x00\n        /* \"contracts/BusinessConsensus.sol\":3999:4009  msg.sender */\n      caller\n        /* \"contracts/BusinessConsensus.sol\":3988:4010  voters_map[msg.sender] */\n      0xffffffffffffffffffffffffffffffffffffffff\n      and\n      0xffffffffffffffffffffffffffffffffffffffff\n      and\n      dup2\n      mstore\n      0x20\n      add\n      swap1\n      dup2\n      mstore\n      0x20\n      add\n      0x00\n      keccak256\n        /* \"contracts/BusinessConsensus.sol\":3988:4016  voters_map[msg.sender].voted */\n      0x00\n      add\n      0x00\n        /* \"contracts/BusinessConsensus.sol\":3988:4023  voters_map[msg.sender].voted = true */\n      0x0100\n      exp\n      dup2\n      sload\n      dup2\n      0xff\n      mul\n      not\n      and\n      swap1\n      dup4\n      iszero\n      iszero\n      mul\n      or\n      swap1\n      sstore\n      pop\n        /* \"contracts/BusinessConsensus.sol\":4060:4061  1 */\n      0x01\n        /* \"contracts/BusinessConsensus.sol\":4038:4046  proposal */\n      0x0b\n        /* \"contracts/BusinessConsensus.sol\":4038:4056  proposal.voteCount */\n      0x00\n      add\n      0x00\n        /* \"contracts/BusinessConsensus.sol\":4038:4061  proposal.voteCount += 1 */\n      dup3\n      dup3\n      sload\n      tag_131\n      swap2\n      swap1\n      tag_123\n      jump\t// in\n    tag_131:\n      swap3\n      pop\n      pop\n      dup2\n      swap1\n      sstore\n      pop\n        /* \"contracts/BusinessConsensus.sol\":4076:4082  voters */\n      0x08\n        /* \"contracts/BusinessConsensus.sol\":4088:4098  voters_map */\n      0x0a\n        /* \"contracts/BusinessConsensus.sol\":4088:4110  voters_map[msg.sender] */\n      0x00\n        /* \"contracts/BusinessConsensus.sol\":4099:4109  msg.sender */\n      caller\n        /* \"contracts/BusinessConsensus.sol\":4088:4110  voters_map[msg.sender] */\n      0xffffffffffffffffffffffffffffffffffffffff\n      and\n      0xffffffffffffffffffffffffffffffffffffffff\n      and\n      dup2\n      mstore\n      0x20\n      add\n      swap1\n      dup2\n      mstore\n      0x20\n      add\n      0x00\n      keccak256\n        /* \"contracts/BusinessConsensus.sol\":4076:4111  voters.push(voters_map[msg.sender]) */\n      swap1\n      dup1\n      0x01\n      dup2\n      sload\n      add\n      dup1\n      dup3\n      sstore\n      dup1\n      swap2\n      pop\n      pop\n      0x01\n      swap1\n      sub\n      swap1\n      0x00\n      mstore\n      keccak256(0x00, 0x20)\n      add\n      0x00\n      swap1\n      swap2\n      swap1\n      swap2\n      swap1\n      swap2\n      pop\n      0x00\n      dup3\n      add\n      0x00\n      swap1\n      sload\n      swap1\n      0x0100\n      exp\n      swap1\n      div\n      0xff\n      and\n      dup2\n      0x00\n      add\n      exp(0x0100, 0x00)\n      dup2\n      sload\n      dup2\n      0xff\n      mul\n      not\n      and\n      swap1\n      dup4\n      iszero\n      iszero\n      mul\n      or\n      swap1\n      sstore\n      pop\n      0x00\n      dup3\n      add\n      0x01\n      swap1\n      sload\n      swap1\n      0x0100\n      exp\n      swap1\n      div\n      0xffffffffffffffffffffffffffffffffffffffff\n      and\n      dup2\n      0x00\n      add\n      exp(0x0100, 0x01)\n      dup2\n      sload\n      dup2\n      0xffffffffffffffffffffffffffffffffffffffff\n      mul\n      not\n      and\n      swap1\n      dup4\n      0xffffffffffffffffffffffffffffffffffffffff\n      and\n      mul\n      or\n      swap1\n      sstore\n      pop\n      0x00\n      dup3\n      add\n      0x15\n      swap1\n      sload\n      swap1\n      0x0100\n      exp\n      swap1\n      div\n      0xff\n      and\n      dup2\n      0x00\n      add\n      exp(0x0100, 0x15)\n      dup2\n      sload\n      dup2\n      0xff\n      mul\n      not\n      and\n      swap1\n      dup4\n      iszero\n      iszero\n      mul\n      or\n      swap1\n      sstore\n      pop\n      pop\n      pop\n        /* \"contracts/BusinessConsensus.sol\":3669:4123  if(keccak256(bytes(response)) == keccak256(bytes(\"i disapprove\"))){\r... */\n    tag_130:\n        /* \"contracts/BusinessConsensus.sol\":3358:4123  if(keccak256(bytes(response)) == keccak256(bytes(\"i approve\"))){\r... */\n    tag_126:\n        /* \"contracts/BusinessConsensus.sol\":3043:4140  function Vote(string memory response) external {\r... */\n      pop\n      jump\t// out\n        /* \"contracts/BusinessConsensus.sol\":2073:2285  function getParameters2(address test_address) public view returns (bool, bool, address){\r... */\n    tag_43:\n        /* \"contracts/BusinessConsensus.sol\":2140:2144  bool */\n      0x00\n        /* \"contracts/BusinessConsensus.sol\":2146:2150  bool */\n      dup1\n        /* \"contracts/BusinessConsensus.sol\":2152:2159  address */\n      0x00\n        /* \"contracts/BusinessConsensus.sol\":2179:2189  voters_map */\n      0x0a\n        /* \"contracts/BusinessConsensus.sol\":2179:2203  voters_map[test_address] */\n      0x00\n        /* \"contracts/BusinessConsensus.sol\":2190:2202  test_address */\n      dup6\n        /* \"contracts/BusinessConsensus.sol\":2179:2203  voters_map[test_address] */\n      0xffffffffffffffffffffffffffffffffffffffff\n      and\n      0xffffffffffffffffffffffffffffffffffffffff\n      and\n      dup2\n      mstore\n      0x20\n      add\n      swap1\n      dup2\n      mstore\n      0x20\n      add\n      0x00\n      keccak256\n        /* \"contracts/BusinessConsensus.sol\":2179:2208  voters_map[test_address].vote */\n      0x00\n      add\n      0x15\n      swap1\n      sload\n      swap1\n      0x0100\n      exp\n      swap1\n      div\n      0xff\n      and\n        /* \"contracts/BusinessConsensus.sol\":2210:2220  voters_map */\n      0x0a\n        /* \"contracts/BusinessConsensus.sol\":2210:2234  voters_map[test_address] */\n      0x00\n        /* \"contracts/BusinessConsensus.sol\":2221:2233  test_address */\n      dup7\n        /* \"contracts/BusinessConsensus.sol\":2210:2234  voters_map[test_address] */\n      0xffffffffffffffffffffffffffffffffffffffff\n      and\n      0xffffffffffffffffffffffffffffffffffffffff\n      and\n      dup2\n      mstore\n      0x20\n      add\n      swap1\n      dup2\n      mstore\n      0x20\n      add\n      0x00\n      keccak256\n        /* \"contracts/BusinessConsensus.sol\":2210:2240  voters_map[test_address].voted */\n      0x00\n      add\n      0x00\n      swap1\n      sload\n      swap1\n      0x0100\n      exp\n      swap1\n      div\n      0xff\n      and\n        /* \"contracts/BusinessConsensus.sol\":2242:2252  voters_map */\n      0x0a\n        /* \"contracts/BusinessConsensus.sol\":2242:2266  voters_map[test_address] */\n      0x00\n        /* \"contracts/BusinessConsensus.sol\":2253:2265  test_address */\n      dup8\n        /* \"contracts/BusinessConsensus.sol\":2242:2266  voters_map[test_address] */\n      0xffffffffffffffffffffffffffffffffffffffff\n      and\n      0xffffffffffffffffffffffffffffffffffffffff\n      and\n      dup2\n      mstore\n      0x20\n      add\n      swap1\n      dup2\n      mstore\n      0x20\n      add\n      0x00\n      keccak256\n        /* \"contracts/BusinessConsensus.sol\":2242:2276  voters_map[test_address].recipient */\n      0x00\n      add\n      0x01\n      swap1\n      sload\n      swap1\n      0x0100\n      exp\n      swap1\n      div\n      0xffffffffffffffffffffffffffffffffffffffff\n      and\n        /* \"contracts/BusinessConsensus.sol\":2171:2277  return (voters_map[test_address].vote, voters_map[test_address].voted, voters_map[test_address].recipient) */\n      swap3\n      pop\n      swap3\n      pop\n      swap3\n      pop\n        /* \"contracts/BusinessConsensus.sol\":2073:2285  function getParameters2(address test_address) public view returns (bool, bool, address){\r... */\n      swap2\n      swap4\n      swap1\n      swap3\n      pop\n      jump\t// out\n        /* \"contracts/BusinessConsensus.sol\":788:812  address public initiator */\n    tag_47:\n      0x03\n      0x00\n      swap1\n      sload\n      swap1\n      0x0100\n      exp\n      swap1\n      div\n      0xffffffffffffffffffffffffffffffffffffffff\n      and\n      dup2\n      jump\t// out\n        /* \"contracts/BusinessConsensus.sol\":861:894  uint public AccumulatedPercentage */\n    tag_50:\n      sload(0x05)\n      dup2\n      jump\t// out\n        /* \"contracts/BusinessConsensus.sol\":901:925  uint public numApprovals */\n    tag_54:\n      sload(0x06)\n      dup2\n      jump\t// out\n        /* \"contracts/BusinessConsensus.sol\":1145:1169  Proposal public proposal */\n    tag_57:\n      0x0b\n      dup1\n      0x00\n      add\n      sload\n      swap1\n      dup1\n      0x01\n      add\n      dup1\n      sload\n      tag_134\n      swap1\n      tag_106\n      jump\t// in\n    tag_134:\n      dup1\n      0x1f\n      add\n      0x20\n      dup1\n      swap2\n      div\n      mul\n      0x20\n      add\n      mload(0x40)\n      swap1\n      dup2\n      add\n      0x40\n      mstore\n      dup1\n      swap3\n      swap2\n      swap1\n      dup2\n      dup2\n      mstore\n      0x20\n      add\n      dup3\n      dup1\n      sload\n      tag_135\n      swap1\n      tag_106\n      jump\t// in\n    tag_135:\n      dup1\n      iszero\n      tag_136\n      jumpi\n      dup1\n      0x1f\n      lt\n      tag_137\n      jumpi\n      0x0100\n      dup1\n      dup4\n      sload\n      div\n      mul\n      dup4\n      mstore\n      swap2\n      0x20\n      add\n      swap2\n      jump(tag_136)\n    tag_137:\n      dup3\n      add\n      swap2\n      swap1\n      0x00\n      mstore\n      keccak256(0x00, 0x20)\n      swap1\n    tag_138:\n      dup2\n      sload\n      dup2\n      mstore\n      swap1\n      0x01\n      add\n      swap1\n      0x20\n      add\n      dup1\n      dup4\n      gt\n      tag_138\n      jumpi\n      dup3\n      swap1\n      sub\n      0x1f\n      and\n      dup3\n      add\n      swap2\n    tag_136:\n      pop\n      pop\n      pop\n      pop\n      pop\n      swap1\n      pop\n      dup3\n      jump\t// out\n        /* \"contracts/BusinessConsensus.sol\":4933:5179  function retrieve_bundle() public view returns (string memory, Proposal memory, Voter[] memory){\r... */\n    tag_61:\n        /* \"contracts/BusinessConsensus.sol\":4981:4994  string memory */\n      0x60\n        /* \"contracts/BusinessConsensus.sol\":4996:5011  Proposal memory */\n      tag_139\n      tag_140\n      jump\t// in\n    tag_139:\n        /* \"contracts/BusinessConsensus.sol\":5013:5027  Voter[] memory */\n      0x60\n        /* \"contracts/BusinessConsensus.sol\":5066:5076  expiryDate */\n      sload(0x01)\n        /* \"contracts/BusinessConsensus.sol\":5047:5062  block.timestamp */\n      timestamp\n        /* \"contracts/BusinessConsensus.sol\":5047:5076  block.timestamp >= expiryDate */\n      lt\n      iszero\n        /* \"contracts/BusinessConsensus.sol\":5039:5113  require(block.timestamp >= expiryDate, \"Verdict has not been reached yet\") */\n      tag_142\n      jumpi\n      mload(0x40)\n      0x08c379a000000000000000000000000000000000000000000000000000000000\n      dup2\n      mstore\n      0x04\n      add\n      tag_143\n      swap1\n      tag_144\n      jump\t// in\n    tag_143:\n      mload(0x40)\n      dup1\n      swap2\n      sub\n      swap1\n      revert\n    tag_142:\n        /* \"contracts/BusinessConsensus.sol\":5132:5144  finalVerdict */\n      0x02\n        /* \"contracts/BusinessConsensus.sol\":5145:5153  proposal */\n      0x0b\n        /* \"contracts/BusinessConsensus.sol\":5154:5160  voters */\n      0x08\n        /* \"contracts/BusinessConsensus.sol\":5124:5161  return (finalVerdict,proposal,voters) */\n      dup3\n      dup1\n      sload\n      tag_145\n      swap1\n      tag_106\n      jump\t// in\n    tag_145:\n      dup1\n      0x1f\n      add\n      0x20\n      dup1\n      swap2\n      div\n      mul\n      0x20\n      add\n      mload(0x40)\n      swap1\n      dup2\n      add\n      0x40\n      mstore\n      dup1\n      swap3\n      swap2\n      swap1\n      dup2\n      dup2\n      mstore\n      0x20\n      add\n      dup3\n      dup1\n      sload\n      tag_146\n      swap1\n      tag_106\n      jump\t// in\n    tag_146:\n      dup1\n      iszero\n      tag_147\n      jumpi\n      dup1\n      0x1f\n      lt\n      tag_148\n      jumpi\n      0x0100\n      dup1\n      dup4\n      sload\n      div\n      mul\n      dup4\n      mstore\n      swap2\n      0x20\n      add\n      swap2\n      jump(tag_147)\n    tag_148:\n      dup3\n      add\n      swap2\n      swap1\n      0x00\n      mstore\n      keccak256(0x00, 0x20)\n      swap1\n    tag_149:\n      dup2\n      sload\n      dup2\n      mstore\n      swap1\n      0x01\n      add\n      swap1\n      0x20\n      add\n      dup1\n      dup4\n      gt\n      tag_149\n      jumpi\n      dup3\n      swap1\n      sub\n      0x1f\n      and\n      dup3\n      add\n      swap2\n    tag_147:\n      pop\n      pop\n      pop\n      pop\n      pop\n      swap3\n      pop\n      dup2\n      mload(0x40)\n      dup1\n      0x40\n      add\n      0x40\n      mstore\n      swap1\n      dup2\n      0x00\n      dup3\n      add\n      sload\n      dup2\n      mstore\n      0x20\n      add\n      0x01\n      dup3\n      add\n      dup1\n      sload\n      tag_150\n      swap1\n      tag_106\n      jump\t// in\n    tag_150:\n      dup1\n      0x1f\n      add\n      0x20\n      dup1\n      swap2\n      div\n      mul\n      0x20\n      add\n      mload(0x40)\n      swap1\n      dup2\n      add\n      0x40\n      mstore\n      dup1\n      swap3\n      swap2\n      swap1\n      dup2\n      dup2\n      mstore\n      0x20\n      add\n      dup3\n      dup1\n      sload\n      tag_151\n      swap1\n      tag_106\n      jump\t// in\n    tag_151:\n      dup1\n      iszero\n      tag_152\n      jumpi\n      dup1\n      0x1f\n      lt\n      tag_153\n      jumpi\n      0x0100\n      dup1\n      dup4\n      sload\n      div\n      mul\n      dup4\n      mstore\n      swap2\n      0x20\n      add\n      swap2\n      jump(tag_152)\n    tag_153:\n      dup3\n      add\n      swap2\n      swap1\n      0x00\n      mstore\n      keccak256(0x00, 0x20)\n      swap1\n    tag_154:\n      dup2\n      sload\n      dup2\n      mstore\n      swap1\n      0x01\n      add\n      swap1\n      0x20\n      add\n      dup1\n      dup4\n      gt\n      tag_154\n      jumpi\n      dup3\n      swap1\n      sub\n      0x1f\n      and\n      dup3\n      add\n      swap2\n    tag_152:\n      pop\n      pop\n      pop\n      pop\n      pop\n      dup2\n      mstore\n      pop\n      pop\n      swap2\n      pop\n      dup1\n      dup1\n      sload\n      dup1\n      0x20\n      mul\n      0x20\n      add\n      mload(0x40)\n      swap1\n      dup2\n      add\n      0x40\n      mstore\n      dup1\n      swap3\n      swap2\n      swap1\n      dup2\n      dup2\n      mstore\n      0x20\n      add\n      0x00\n      swap1\n    tag_155:\n      dup3\n      dup3\n      lt\n      iszero\n      tag_156\n      jumpi\n      dup4\n      dup3\n      swap1\n      0x00\n      mstore\n      keccak256(0x00, 0x20)\n      add\n      mload(0x40)\n      dup1\n      0x60\n      add\n      0x40\n      mstore\n      swap1\n      dup2\n      0x00\n      dup3\n      add\n      0x00\n      swap1\n      sload\n      swap1\n      0x0100\n      exp\n      swap1\n      div\n      0xff\n      and\n      iszero\n      iszero\n      iszero\n      iszero\n      dup2\n      mstore\n      0x20\n      add\n      0x00\n      dup3\n      add\n      0x01\n      swap1\n      sload\n      swap1\n      0x0100\n      exp\n      swap1\n      div\n      0xffffffffffffffffffffffffffffffffffffffff\n      and\n      0xffffffffffffffffffffffffffffffffffffffff\n      and\n      0xffffffffffffffffffffffffffffffffffffffff\n      and\n      dup2\n      mstore\n      0x20\n      add\n      0x00\n      dup3\n      add\n      0x15\n      swap1\n      sload\n      swap1\n      0x0100\n      exp\n      swap1\n      div\n      0xff\n      and\n      iszero\n      iszero\n      iszero\n      iszero\n      dup2\n      mstore\n      pop\n      pop\n      dup2\n      mstore\n      0x20\n      add\n      swap1\n      0x01\n      add\n      swap1\n      jump(tag_155)\n    tag_156:\n      pop\n      pop\n      pop\n      pop\n      swap1\n      pop\n      swap3\n      pop\n      swap3\n      pop\n      swap3\n      pop\n        /* \"contracts/BusinessConsensus.sol\":4933:5179  function retrieve_bundle() public view returns (string memory, Proposal memory, Voter[] memory){\r... */\n      swap1\n      swap2\n      swap3\n      jump\t// out\n        /* \"contracts/BusinessConsensus.sol\":4204:4925  function Consensus() external {\r... */\n    tag_65:\n        /* \"contracts/BusinessConsensus.sol\":4272:4282  expiryDate */\n      sload(0x01)\n        /* \"contracts/BusinessConsensus.sol\":4253:4268  block.timestamp */\n      timestamp\n        /* \"contracts/BusinessConsensus.sol\":4253:4282  block.timestamp >= expiryDate */\n      lt\n      iszero\n        /* \"contracts/BusinessConsensus.sol\":4245:4319  require(block.timestamp >= expiryDate, \"Verdict has not been reached yet\") */\n      tag_159\n      jumpi\n      mload(0x40)\n      0x08c379a000000000000000000000000000000000000000000000000000000000\n      dup2\n      mstore\n      0x04\n      add\n      tag_160\n      swap1\n      tag_144\n      jump\t// in\n    tag_160:\n      mload(0x40)\n      dup1\n      swap2\n      sub\n      swap1\n      revert\n    tag_159:\n        /* \"contracts/BusinessConsensus.sol\":4356:4357  0 */\n      0x00\n        /* \"contracts/BusinessConsensus.sol\":4338:4352  numberCompiled */\n      sload(0x07)\n        /* \"contracts/BusinessConsensus.sol\":4338:4357  numberCompiled == 0 */\n      eq\n        /* \"contracts/BusinessConsensus.sol\":4330:4399  require(numberCompiled == 0, \"Consensus has already been calculated\") */\n      tag_161\n      jumpi\n      mload(0x40)\n      0x08c379a000000000000000000000000000000000000000000000000000000000\n      dup2\n      mstore\n      0x04\n      add\n      tag_162\n      swap1\n      tag_163\n      jump\t// in\n    tag_162:\n      mload(0x40)\n      dup1\n      swap2\n      sub\n      swap1\n      revert\n    tag_161:\n        /* \"contracts/BusinessConsensus.sol\":4432:4441  initiator */\n      0x03\n      0x00\n      swap1\n      sload\n      swap1\n      0x0100\n      exp\n      swap1\n      div\n      0xffffffffffffffffffffffffffffffffffffffff\n      and\n        /* \"contracts/BusinessConsensus.sol\":4418:4441  msg.sender == initiator */\n      0xffffffffffffffffffffffffffffffffffffffff\n      and\n        /* \"contracts/BusinessConsensus.sol\":4418:4428  msg.sender */\n      caller\n        /* \"contracts/BusinessConsensus.sol\":4418:4441  msg.sender == initiator */\n      0xffffffffffffffffffffffffffffffffffffffff\n      and\n      eq\n        /* \"contracts/BusinessConsensus.sol\":4418:4493  msg.sender == initiator || voters_map[msg.sender].recipient != address(0x0) */\n      dup1\n      tag_164\n      jumpi\n      pop\n        /* \"contracts/BusinessConsensus.sol\":4489:4492  0x0 */\n      0x00\n        /* \"contracts/BusinessConsensus.sol\":4445:4493  voters_map[msg.sender].recipient != address(0x0) */\n      0xffffffffffffffffffffffffffffffffffffffff\n      and\n        /* \"contracts/BusinessConsensus.sol\":4445:4455  voters_map */\n      0x0a\n        /* \"contracts/BusinessConsensus.sol\":4445:4467  voters_map[msg.sender] */\n      0x00\n        /* \"contracts/BusinessConsensus.sol\":4456:4466  msg.sender */\n      caller\n        /* \"contracts/BusinessConsensus.sol\":4445:4467  voters_map[msg.sender] */\n      0xffffffffffffffffffffffffffffffffffffffff\n      and\n      0xffffffffffffffffffffffffffffffffffffffff\n      and\n      dup2\n      mstore\n      0x20\n      add\n      swap1\n      dup2\n      mstore\n      0x20\n      add\n      0x00\n      keccak256\n        /* \"contracts/BusinessConsensus.sol\":4445:4477  voters_map[msg.sender].recipient */\n      0x00\n      add\n      0x01\n      swap1\n      sload\n      swap1\n      0x0100\n      exp\n      swap1\n      div\n      0xffffffffffffffffffffffffffffffffffffffff\n      and\n        /* \"contracts/BusinessConsensus.sol\":4445:4493  voters_map[msg.sender].recipient != address(0x0) */\n      0xffffffffffffffffffffffffffffffffffffffff\n      and\n      eq\n      iszero\n        /* \"contracts/BusinessConsensus.sol\":4418:4493  msg.sender == initiator || voters_map[msg.sender].recipient != address(0x0) */\n    tag_164:\n        /* \"contracts/BusinessConsensus.sol\":4410:4536  require(msg.sender == initiator || voters_map[msg.sender].recipient != address(0x0), \"You aren't authorize to compile Bundle\") */\n      tag_165\n      jumpi\n      mload(0x40)\n      0x08c379a000000000000000000000000000000000000000000000000000000000\n      dup2\n      mstore\n      0x04\n      add\n      tag_166\n      swap1\n      tag_167\n      jump\t// in\n    tag_166:\n      mload(0x40)\n      dup1\n      swap2\n      sub\n      swap1\n      revert\n    tag_165:\n        /* \"contracts/BusinessConsensus.sol\":4598:4601  100 */\n      0x64\n        /* \"contracts/BusinessConsensus.sol\":4585:4589  keys */\n      0x09\n        /* \"contracts/BusinessConsensus.sol\":4585:4596  keys.length */\n      dup1\n      sload\n      swap1\n      pop\n        /* \"contracts/BusinessConsensus.sol\":4572:4584  numApprovals */\n      sload(0x06)\n        /* \"contracts/BusinessConsensus.sol\":4572:4596  numApprovals/keys.length */\n      tag_168\n      swap2\n      swap1\n      tag_169\n      jump\t// in\n    tag_168:\n        /* \"contracts/BusinessConsensus.sol\":4571:4601  (numApprovals/keys.length)*100 */\n      tag_170\n      swap2\n      swap1\n      tag_171\n      jump\t// in\n    tag_170:\n        /* \"contracts/BusinessConsensus.sol\":4547:4568  AccumulatedPercentage */\n      0x05\n        /* \"contracts/BusinessConsensus.sol\":4547:4601  AccumulatedPercentage = (numApprovals/keys.length)*100 */\n      dup2\n      swap1\n      sstore\n      pop\n        /* \"contracts/BusinessConsensus.sol\":4640:4659  BusinessRequirement */\n      sload(0x04)\n        /* \"contracts/BusinessConsensus.sol\":4615:4636  AccumulatedPercentage */\n      sload(0x05)\n        /* \"contracts/BusinessConsensus.sol\":4615:4659  AccumulatedPercentage >= BusinessRequirement */\n      lt\n        /* \"contracts/BusinessConsensus.sol\":4612:4712  if(AccumulatedPercentage >= BusinessRequirement){\r... */\n      tag_172\n      jumpi\n        /* \"contracts/BusinessConsensus.sol\":4675:4700  finalVerdict = \"Accepted\" */\n      mload(0x40)\n      dup1\n      0x40\n      add\n      0x40\n      mstore\n      dup1\n      0x08\n      dup2\n      mstore\n      0x20\n      add\n      0x4163636570746564000000000000000000000000000000000000000000000000\n      dup2\n      mstore\n      pop\n        /* \"contracts/BusinessConsensus.sol\":4675:4687  finalVerdict */\n      0x02\n        /* \"contracts/BusinessConsensus.sol\":4675:4700  finalVerdict = \"Accepted\" */\n      swap1\n      dup1\n      mload\n      swap1\n      0x20\n      add\n      swap1\n      tag_173\n      swap3\n      swap2\n      swap1\n      tag_174\n      jump\t// in\n    tag_173:\n      pop\n        /* \"contracts/BusinessConsensus.sol\":4612:4712  if(AccumulatedPercentage >= BusinessRequirement){\r... */\n    tag_172:\n        /* \"contracts/BusinessConsensus.sol\":4726:4733  uint8 i */\n      0x00\n        /* \"contracts/BusinessConsensus.sol\":4722:4888  for(uint8 i=0; i< keys.length; i++){\r... */\n    tag_175:\n        /* \"contracts/BusinessConsensus.sol\":4740:4744  keys */\n      0x09\n        /* \"contracts/BusinessConsensus.sol\":4740:4751  keys.length */\n      dup1\n      sload\n      swap1\n      pop\n        /* \"contracts/BusinessConsensus.sol\":4737:4738  i */\n      dup2\n        /* \"contracts/BusinessConsensus.sol\":4737:4751  i< keys.length */\n      0xff\n      and\n      lt\n        /* \"contracts/BusinessConsensus.sol\":4722:4888  for(uint8 i=0; i< keys.length; i++){\r... */\n      iszero\n      tag_176\n      jumpi\n        /* \"contracts/BusinessConsensus.sol\":4804:4809  false */\n      0x00\n        /* \"contracts/BusinessConsensus.sol\":4775:4809  voters_map[keys[i]].voted == false */\n      iszero\n      iszero\n        /* \"contracts/BusinessConsensus.sol\":4775:4785  voters_map */\n      0x0a\n        /* \"contracts/BusinessConsensus.sol\":4775:4794  voters_map[keys[i]] */\n      0x00\n        /* \"contracts/BusinessConsensus.sol\":4786:4790  keys */\n      0x09\n        /* \"contracts/BusinessConsensus.sol\":4791:4792  i */\n      dup5\n        /* \"contracts/BusinessConsensus.sol\":4786:4793  keys[i] */\n      0xff\n      and\n      dup2\n      sload\n      dup2\n      lt\n      tag_178\n      jumpi\n      tag_179\n      tag_180\n      jump\t// in\n    tag_179:\n    tag_178:\n      swap1\n      0x00\n      mstore\n      keccak256(0x00, 0x20)\n      add\n      0x00\n      swap1\n      sload\n      swap1\n      0x0100\n      exp\n      swap1\n      div\n      0xffffffffffffffffffffffffffffffffffffffff\n      and\n        /* \"contracts/BusinessConsensus.sol\":4775:4794  voters_map[keys[i]] */\n      0xffffffffffffffffffffffffffffffffffffffff\n      and\n      0xffffffffffffffffffffffffffffffffffffffff\n      and\n      dup2\n      mstore\n      0x20\n      add\n      swap1\n      dup2\n      mstore\n      0x20\n      add\n      0x00\n      keccak256\n        /* \"contracts/BusinessConsensus.sol\":4775:4800  voters_map[keys[i]].voted */\n      0x00\n      add\n      0x00\n      swap1\n      sload\n      swap1\n      0x0100\n      exp\n      swap1\n      div\n      0xff\n      and\n        /* \"contracts/BusinessConsensus.sol\":4775:4809  voters_map[keys[i]].voted == false */\n      iszero\n      iszero\n      eq\n        /* \"contracts/BusinessConsensus.sol\":4772:4877  if(voters_map[keys[i]].voted == false){\r... */\n      iszero\n      tag_182\n      jumpi\n        /* \"contracts/BusinessConsensus.sol\":4829:4835  voters */\n      0x08\n        /* \"contracts/BusinessConsensus.sol\":4841:4851  voters_map */\n      0x0a\n        /* \"contracts/BusinessConsensus.sol\":4841:4860  voters_map[keys[i]] */\n      0x00\n        /* \"contracts/BusinessConsensus.sol\":4852:4856  keys */\n      0x09\n        /* \"contracts/BusinessConsensus.sol\":4857:4858  i */\n      dup5\n        /* \"contracts/BusinessConsensus.sol\":4852:4859  keys[i] */\n      0xff\n      and\n      dup2\n      sload\n      dup2\n      lt\n      tag_183\n      jumpi\n      tag_184\n      tag_180\n      jump\t// in\n    tag_184:\n    tag_183:\n      swap1\n      0x00\n      mstore\n      keccak256(0x00, 0x20)\n      add\n      0x00\n      swap1\n      sload\n      swap1\n      0x0100\n      exp\n      swap1\n      div\n      0xffffffffffffffffffffffffffffffffffffffff\n      and\n        /* \"contracts/BusinessConsensus.sol\":4841:4860  voters_map[keys[i]] */\n      0xffffffffffffffffffffffffffffffffffffffff\n      and\n      0xffffffffffffffffffffffffffffffffffffffff\n      and\n      dup2\n      mstore\n      0x20\n      add\n      swap1\n      dup2\n      mstore\n      0x20\n      add\n      0x00\n      keccak256\n        /* \"contracts/BusinessConsensus.sol\":4829:4861  voters.push(voters_map[keys[i]]) */\n      swap1\n      dup1\n      0x01\n      dup2\n      sload\n      add\n      dup1\n      dup3\n      sstore\n      dup1\n      swap2\n      pop\n      pop\n      0x01\n      swap1\n      sub\n      swap1\n      0x00\n      mstore\n      keccak256(0x00, 0x20)\n      add\n      0x00\n      swap1\n      swap2\n      swap1\n      swap2\n      swap1\n      swap2\n      pop\n      0x00\n      dup3\n      add\n      0x00\n      swap1\n      sload\n      swap1\n      0x0100\n      exp\n      swap1\n      div\n      0xff\n      and\n      dup2\n      0x00\n      add\n      exp(0x0100, 0x00)\n      dup2\n      sload\n      dup2\n      0xff\n      mul\n      not\n      and\n      swap1\n      dup4\n      iszero\n      iszero\n      mul\n      or\n      swap1\n      sstore\n      pop\n      0x00\n      dup3\n      add\n      0x01\n      swap1\n      sload\n      swap1\n      0x0100\n      exp\n      swap1\n      div\n      0xffffffffffffffffffffffffffffffffffffffff\n      and\n      dup2\n      0x00\n      add\n      exp(0x0100, 0x01)\n      dup2\n      sload\n      dup2\n      0xffffffffffffffffffffffffffffffffffffffff\n      mul\n      not\n      and\n      swap1\n      dup4\n      0xffffffffffffffffffffffffffffffffffffffff\n      and\n      mul\n      or\n      swap1\n      sstore\n      pop\n      0x00\n      dup3\n      add\n      0x15\n      swap1\n      sload\n      swap1\n      0x0100\n      exp\n      swap1\n      div\n      0xff\n      and\n      dup2\n      0x00\n      add\n      exp(0x0100, 0x15)\n      dup2\n      sload\n      dup2\n      0xff\n      mul\n      not\n      and\n      swap1\n      dup4\n      iszero\n      iszero\n      mul\n      or\n      swap1\n      sstore\n      pop\n      pop\n      pop\n        /* \"contracts/BusinessConsensus.sol\":4772:4877  if(voters_map[keys[i]].voted == false){\r... */\n    tag_182:\n        /* \"contracts/BusinessConsensus.sol\":4753:4756  i++ */\n      dup1\n      dup1\n      tag_187\n      swap1\n      tag_188\n      jump\t// in\n    tag_187:\n      swap2\n      pop\n      pop\n        /* \"contracts/BusinessConsensus.sol\":4722:4888  for(uint8 i=0; i< keys.length; i++){\r... */\n      jump(tag_175)\n    tag_176:\n      pop\n        /* \"contracts/BusinessConsensus.sol\":4916:4917  1 */\n      0x01\n        /* \"contracts/BusinessConsensus.sol\":4898:4912  numberCompiled */\n      0x07\n      0x00\n        /* \"contracts/BusinessConsensus.sol\":4898:4917  numberCompiled += 1 */\n      dup3\n      dup3\n      sload\n      tag_189\n      swap2\n      swap1\n      tag_123\n      jump\t// in\n    tag_189:\n      swap3\n      pop\n      pop\n      dup2\n      swap1\n      sstore\n      pop\n        /* \"contracts/BusinessConsensus.sol\":4204:4925  function Consensus() external {\r... */\n      jump\t// out\n        /* \"contracts/BusinessConsensus.sol\":1025:1068  mapping(address => Voter) public voters_map */\n    tag_68:\n      mstore(0x20, 0x0a)\n      dup1\n      0x00\n      mstore\n      keccak256(0x00, 0x40)\n      0x00\n      swap2\n      pop\n      swap1\n      pop\n      dup1\n      0x00\n      add\n      0x00\n      swap1\n      sload\n      swap1\n      0x0100\n      exp\n      swap1\n      div\n      0xff\n      and\n      swap1\n      dup1\n      0x00\n      add\n      0x01\n      swap1\n      sload\n      swap1\n      0x0100\n      exp\n      swap1\n      div\n      0xffffffffffffffffffffffffffffffffffffffff\n      and\n      swap1\n      dup1\n      0x00\n      add\n      0x15\n      swap1\n      sload\n      swap1\n      0x0100\n      exp\n      swap1\n      div\n      0xff\n      and\n      swap1\n      pop\n      dup4\n      jump\t// out\n        /* \"contracts/BusinessConsensus.sol\":1879:2067  function getParameters() public view returns (string memory, uint , address ,uint ,uint){\r... */\n    tag_72:\n        /* \"contracts/BusinessConsensus.sol\":1925:1938  string memory */\n      0x60\n        /* \"contracts/BusinessConsensus.sol\":1940:1944  uint */\n      0x00\n        /* \"contracts/BusinessConsensus.sol\":1947:1954  address */\n      dup1\n        /* \"contracts/BusinessConsensus.sol\":1956:1960  uint */\n      0x00\n        /* \"contracts/BusinessConsensus.sol\":1962:1966  uint */\n      dup1\n        /* \"contracts/BusinessConsensus.sol\":1986:1994  proposal */\n      0x0b\n        /* \"contracts/BusinessConsensus.sol\":1986:2004  proposal.messageID */\n      0x01\n      add\n        /* \"contracts/BusinessConsensus.sol\":2005:2015  expiryDate */\n      sload(0x01)\n        /* \"contracts/BusinessConsensus.sol\":2016:2025  initiator */\n      0x03\n      0x00\n      swap1\n      sload\n      swap1\n      0x0100\n      exp\n      swap1\n      div\n      0xffffffffffffffffffffffffffffffffffffffff\n      and\n        /* \"contracts/BusinessConsensus.sol\":2026:2045  BusinessRequirement */\n      sload(0x04)\n        /* \"contracts/BusinessConsensus.sol\":2046:2058  numApprovals */\n      sload(0x06)\n        /* \"contracts/BusinessConsensus.sol\":1978:2059  return (proposal.messageID,expiryDate,initiator,BusinessRequirement,numApprovals) */\n      dup5\n      dup1\n      sload\n      tag_191\n      swap1\n      tag_106\n      jump\t// in\n    tag_191:\n      dup1\n      0x1f\n      add\n      0x20\n      dup1\n      swap2\n      div\n      mul\n      0x20\n      add\n      mload(0x40)\n      swap1\n      dup2\n      add\n      0x40\n      mstore\n      dup1\n      swap3\n      swap2\n      swap1\n      dup2\n      dup2\n      mstore\n      0x20\n      add\n      dup3\n      dup1\n      sload\n      tag_192\n      swap1\n      tag_106\n      jump\t// in\n    tag_192:\n      dup1\n      iszero\n      tag_193\n      jumpi\n      dup1\n      0x1f\n      lt\n      tag_194\n      jumpi\n      0x0100\n      dup1\n      dup4\n      sload\n      div\n      mul\n      dup4\n      mstore\n      swap2\n      0x20\n      add\n      swap2\n      jump(tag_193)\n    tag_194:\n      dup3\n      add\n      swap2\n      swap1\n      0x00\n      mstore\n      keccak256(0x00, 0x20)\n      swap1\n    tag_195:\n      dup2\n      sload\n      dup2\n      mstore\n      swap1\n      0x01\n      add\n      swap1\n      0x20\n      add\n      dup1\n      dup4\n      gt\n      tag_195\n      jumpi\n      dup3\n      swap1\n      sub\n      0x1f\n      and\n      dup3\n      add\n      swap2\n    tag_193:\n      pop\n      pop\n      pop\n      pop\n      pop\n      swap5\n      pop\n      swap5\n      pop\n      swap5\n      pop\n      swap5\n      pop\n      swap5\n      pop\n      swap5\n      pop\n        /* \"contracts/BusinessConsensus.sol\":1879:2067  function getParameters() public view returns (string memory, uint , address ,uint ,uint){\r... */\n      swap1\n      swap2\n      swap3\n      swap4\n      swap5\n      jump\t// out\n        /* \"contracts/BusinessConsensus.sol\":934:960  uint public numberCompiled */\n    tag_76:\n      sload(0x07)\n      dup2\n      jump\t// out\n        /* \"contracts/BusinessConsensus.sol\":823:854  uint public BusinessRequirement */\n    tag_79:\n      sload(0x04)\n      dup2\n      jump\t// out\n        /* \"contracts/BusinessConsensus.sol\":969:990  Voter[] public voters */\n    tag_83:\n      0x08\n      dup2\n      dup2\n      sload\n      dup2\n      lt\n      tag_196\n      jumpi\n      0x00\n      dup1\n      revert\n    tag_196:\n      swap1\n      0x00\n      mstore\n      keccak256(0x00, 0x20)\n      add\n      0x00\n      swap2\n      pop\n      swap1\n      pop\n      dup1\n      0x00\n      add\n      0x00\n      swap1\n      sload\n      swap1\n      0x0100\n      exp\n      swap1\n      div\n      0xff\n      and\n      swap1\n      dup1\n      0x00\n      add\n      0x01\n      swap1\n      sload\n      swap1\n      0x0100\n      exp\n      swap1\n      div\n      0xffffffffffffffffffffffffffffffffffffffff\n      and\n      swap1\n      dup1\n      0x00\n      add\n      0x15\n      swap1\n      sload\n      swap1\n      0x0100\n      exp\n      swap1\n      div\n      0xff\n      and\n      swap1\n      pop\n      dup4\n      jump\t// out\n        /* \"contracts/BusinessConsensus.sol\":598:628  address public contractAddress */\n    tag_86:\n      0x00\n      dup1\n      sload\n      swap1\n      0x0100\n      exp\n      swap1\n      div\n      0xffffffffffffffffffffffffffffffffffffffff\n      and\n      dup2\n      jump\t// out\n    tag_140:\n      mload(0x40)\n      dup1\n      0x40\n      add\n      0x40\n      mstore\n      dup1\n      0x00\n      dup2\n      mstore\n      0x20\n      add\n      0x60\n      dup2\n      mstore\n      pop\n      swap1\n      jump\t// out\n    tag_174:\n      dup3\n      dup1\n      sload\n      tag_198\n      swap1\n      tag_106\n      jump\t// in\n    tag_198:\n      swap1\n      0x00\n      mstore\n      keccak256(0x00, 0x20)\n      swap1\n      0x1f\n      add\n      0x20\n      swap1\n      div\n      dup2\n      add\n      swap3\n      dup3\n      tag_200\n      jumpi\n      0x00\n      dup6\n      sstore\n      jump(tag_199)\n    tag_200:\n      dup3\n      0x1f\n      lt\n      tag_201\n      jumpi\n      dup1\n      mload\n      not(0xff)\n      and\n      dup4\n      dup1\n      add\n      or\n      dup6\n      sstore\n      jump(tag_199)\n    tag_201:\n      dup3\n      dup1\n      add\n      0x01\n      add\n      dup6\n      sstore\n      dup3\n      iszero\n      tag_199\n      jumpi\n      swap2\n      dup3\n      add\n    tag_202:\n      dup3\n      dup2\n      gt\n      iszero\n      tag_203\n      jumpi\n      dup3\n      mload\n      dup3\n      sstore\n      swap2\n      0x20\n      add\n      swap2\n      swap1\n      0x01\n      add\n      swap1\n      jump(tag_202)\n    tag_203:\n    tag_199:\n      pop\n      swap1\n      pop\n      tag_204\n      swap2\n      swap1\n      tag_205\n      jump\t// in\n    tag_204:\n      pop\n      swap1\n      jump\t// out\n    tag_205:\n    tag_206:\n      dup1\n      dup3\n      gt\n      iszero\n      tag_207\n      jumpi\n      0x00\n      dup2\n      0x00\n      swap1\n      sstore\n      pop\n      0x01\n      add\n      jump(tag_206)\n    tag_207:\n      pop\n      swap1\n      jump\t// out\n        /* \"#utility.yul\":7:419   */\n    tag_209:\n        /* \"#utility.yul\":85:90   */\n      0x00\n        /* \"#utility.yul\":110:176   */\n      tag_211\n        /* \"#utility.yul\":126:175   */\n      tag_212\n        /* \"#utility.yul\":168:174   */\n      dup5\n        /* \"#utility.yul\":126:175   */\n      tag_213\n      jump\t// in\n    tag_212:\n        /* \"#utility.yul\":110:176   */\n      tag_214\n      jump\t// in\n    tag_211:\n        /* \"#utility.yul\":101:176   */\n      swap1\n      pop\n        /* \"#utility.yul\":199:205   */\n      dup3\n        /* \"#utility.yul\":192:197   */\n      dup2\n        /* \"#utility.yul\":185:206   */\n      mstore\n        /* \"#utility.yul\":237:241   */\n      0x20\n        /* \"#utility.yul\":230:235   */\n      dup2\n        /* \"#utility.yul\":226:242   */\n      add\n        /* \"#utility.yul\":275:278   */\n      dup5\n        /* \"#utility.yul\":266:272   */\n      dup5\n        /* \"#utility.yul\":261:264   */\n      dup5\n        /* \"#utility.yul\":257:273   */\n      add\n        /* \"#utility.yul\":254:279   */\n      gt\n        /* \"#utility.yul\":251:363   */\n      iszero\n      tag_215\n      jumpi\n        /* \"#utility.yul\":282:361   */\n      tag_216\n      tag_217\n      jump\t// in\n    tag_216:\n        /* \"#utility.yul\":251:363   */\n    tag_215:\n        /* \"#utility.yul\":372:413   */\n      tag_218\n        /* \"#utility.yul\":406:412   */\n      dup5\n        /* \"#utility.yul\":401:404   */\n      dup3\n        /* \"#utility.yul\":396:399   */\n      dup6\n        /* \"#utility.yul\":372:413   */\n      tag_219\n      jump\t// in\n    tag_218:\n        /* \"#utility.yul\":91:419   */\n      pop\n        /* \"#utility.yul\":7:419   */\n      swap4\n      swap3\n      pop\n      pop\n      pop\n      jump\t// out\n        /* \"#utility.yul\":425:564   */\n    tag_220:\n        /* \"#utility.yul\":471:476   */\n      0x00\n        /* \"#utility.yul\":509:515   */\n      dup2\n        /* \"#utility.yul\":496:516   */\n      calldataload\n        /* \"#utility.yul\":487:516   */\n      swap1\n      pop\n        /* \"#utility.yul\":525:558   */\n      tag_222\n        /* \"#utility.yul\":552:557   */\n      dup2\n        /* \"#utility.yul\":525:558   */\n      tag_223\n      jump\t// in\n    tag_222:\n        /* \"#utility.yul\":425:564   */\n      swap3\n      swap2\n      pop\n      pop\n      jump\t// out\n        /* \"#utility.yul\":584:924   */\n    tag_224:\n        /* \"#utility.yul\":640:645   */\n      0x00\n        /* \"#utility.yul\":689:692   */\n      dup3\n        /* \"#utility.yul\":682:686   */\n      0x1f\n        /* \"#utility.yul\":674:680   */\n      dup4\n        /* \"#utility.yul\":670:687   */\n      add\n        /* \"#utility.yul\":666:693   */\n      slt\n        /* \"#utility.yul\":656:778   */\n      tag_226\n      jumpi\n        /* \"#utility.yul\":697:776   */\n      tag_227\n      tag_228\n      jump\t// in\n    tag_227:\n        /* \"#utility.yul\":656:778   */\n    tag_226:\n        /* \"#utility.yul\":814:820   */\n      dup2\n        /* \"#utility.yul\":801:821   */\n      calldataload\n        /* \"#utility.yul\":839:918   */\n      tag_229\n        /* \"#utility.yul\":914:917   */\n      dup5\n        /* \"#utility.yul\":906:912   */\n      dup3\n        /* \"#utility.yul\":899:903   */\n      0x20\n        /* \"#utility.yul\":891:897   */\n      dup7\n        /* \"#utility.yul\":887:904   */\n      add\n        /* \"#utility.yul\":839:918   */\n      tag_209\n      jump\t// in\n    tag_229:\n        /* \"#utility.yul\":830:918   */\n      swap2\n      pop\n        /* \"#utility.yul\":646:924   */\n      pop\n        /* \"#utility.yul\":584:924   */\n      swap3\n      swap2\n      pop\n      pop\n      jump\t// out\n        /* \"#utility.yul\":930:1069   */\n    tag_230:\n        /* \"#utility.yul\":976:981   */\n      0x00\n        /* \"#utility.yul\":1014:1020   */\n      dup2\n        /* \"#utility.yul\":1001:1021   */\n      calldataload\n        /* \"#utility.yul\":992:1021   */\n      swap1\n      pop\n        /* \"#utility.yul\":1030:1063   */\n      tag_232\n        /* \"#utility.yul\":1057:1062   */\n      dup2\n        /* \"#utility.yul\":1030:1063   */\n      tag_233\n      jump\t// in\n    tag_232:\n        /* \"#utility.yul\":930:1069   */\n      swap3\n      swap2\n      pop\n      pop\n      jump\t// out\n        /* \"#utility.yul\":1075:1404   */\n    tag_31:\n        /* \"#utility.yul\":1134:1140   */\n      0x00\n        /* \"#utility.yul\":1183:1185   */\n      0x20\n        /* \"#utility.yul\":1171:1180   */\n      dup3\n        /* \"#utility.yul\":1162:1169   */\n      dup5\n        /* \"#utility.yul\":1158:1181   */\n      sub\n        /* \"#utility.yul\":1154:1186   */\n      slt\n        /* \"#utility.yul\":1151:1270   */\n      iszero\n      tag_235\n      jumpi\n        /* \"#utility.yul\":1189:1268   */\n      tag_236\n      tag_237\n      jump\t// in\n    tag_236:\n        /* \"#utility.yul\":1151:1270   */\n    tag_235:\n        /* \"#utility.yul\":1309:1310   */\n      0x00\n        /* \"#utility.yul\":1334:1387   */\n      tag_238\n        /* \"#utility.yul\":1379:1386   */\n      dup5\n        /* \"#utility.yul\":1370:1376   */\n      dup3\n        /* \"#utility.yul\":1359:1368   */\n      dup6\n        /* \"#utility.yul\":1355:1377   */\n      add\n        /* \"#utility.yul\":1334:1387   */\n      tag_220\n      jump\t// in\n    tag_238:\n        /* \"#utility.yul\":1324:1387   */\n      swap2\n      pop\n        /* \"#utility.yul\":1280:1397   */\n      pop\n        /* \"#utility.yul\":1075:1404   */\n      swap3\n      swap2\n      pop\n      pop\n      jump\t// out\n        /* \"#utility.yul\":1410:1919   */\n    tag_39:\n        /* \"#utility.yul\":1479:1485   */\n      0x00\n        /* \"#utility.yul\":1528:1530   */\n      0x20\n        /* \"#utility.yul\":1516:1525   */\n      dup3\n        /* \"#utility.yul\":1507:1514   */\n      dup5\n        /* \"#utility.yul\":1503:1526   */\n      sub\n        /* \"#utility.yul\":1499:1531   */\n      slt\n        /* \"#utility.yul\":1496:1615   */\n      iszero\n      tag_240\n      jumpi\n        /* \"#utility.yul\":1534:1613   */\n      tag_241\n      tag_237\n      jump\t// in\n    tag_241:\n        /* \"#utility.yul\":1496:1615   */\n    tag_240:\n        /* \"#utility.yul\":1682:1683   */\n      0x00\n        /* \"#utility.yul\":1671:1680   */\n      dup3\n        /* \"#utility.yul\":1667:1684   */\n      add\n        /* \"#utility.yul\":1654:1685   */\n      calldataload\n        /* \"#utility.yul\":1712:1730   */\n      0xffffffffffffffff\n        /* \"#utility.yul\":1704:1710   */\n      dup2\n        /* \"#utility.yul\":1701:1731   */\n      gt\n        /* \"#utility.yul\":1698:1815   */\n      iszero\n      tag_242\n      jumpi\n        /* \"#utility.yul\":1734:1813   */\n      tag_243\n      tag_244\n      jump\t// in\n    tag_243:\n        /* \"#utility.yul\":1698:1815   */\n    tag_242:\n        /* \"#utility.yul\":1839:1902   */\n      tag_245\n        /* \"#utility.yul\":1894:1901   */\n      dup5\n        /* \"#utility.yul\":1885:1891   */\n      dup3\n        /* \"#utility.yul\":1874:1883   */\n      dup6\n        /* \"#utility.yul\":1870:1892   */\n      add\n        /* \"#utility.yul\":1839:1902   */\n      tag_224\n      jump\t// in\n    tag_245:\n        /* \"#utility.yul\":1829:1902   */\n      swap2\n      pop\n        /* \"#utility.yul\":1625:1912   */\n      pop\n        /* \"#utility.yul\":1410:1919   */\n      swap3\n      swap2\n      pop\n      pop\n      jump\t// out\n        /* \"#utility.yul\":1925:2254   */\n    tag_25:\n        /* \"#utility.yul\":1984:1990   */\n      0x00\n        /* \"#utility.yul\":2033:2035   */\n      0x20\n        /* \"#utility.yul\":2021:2030   */\n      dup3\n        /* \"#utility.yul\":2012:2019   */\n      dup5\n        /* \"#utility.yul\":2008:2031   */\n      sub\n        /* \"#utility.yul\":2004:2036   */\n      slt\n        /* \"#utility.yul\":2001:2120   */\n      iszero\n      tag_247\n      jumpi\n        /* \"#utility.yul\":2039:2118   */\n      tag_248\n      tag_237\n      jump\t// in\n    tag_248:\n        /* \"#utility.yul\":2001:2120   */\n    tag_247:\n        /* \"#utility.yul\":2159:2160   */\n      0x00\n        /* \"#utility.yul\":2184:2237   */\n      tag_249\n        /* \"#utility.yul\":2229:2236   */\n      dup5\n        /* \"#utility.yul\":2220:2226   */\n      dup3\n        /* \"#utility.yul\":2209:2218   */\n      dup6\n        /* \"#utility.yul\":2205:2227   */\n      add\n        /* \"#utility.yul\":2184:2237   */\n      tag_230\n      jump\t// in\n    tag_249:\n        /* \"#utility.yul\":2174:2237   */\n      swap2\n      pop\n        /* \"#utility.yul\":2130:2247   */\n      pop\n        /* \"#utility.yul\":1925:2254   */\n      swap3\n      swap2\n      pop\n      pop\n      jump\t// out\n        /* \"#utility.yul\":2260:2519   */\n    tag_250:\n        /* \"#utility.yul\":2369:2379   */\n      0x00\n        /* \"#utility.yul\":2390:2476   */\n      tag_252\n        /* \"#utility.yul\":2472:2475   */\n      dup4\n        /* \"#utility.yul\":2464:2470   */\n      dup4\n        /* \"#utility.yul\":2390:2476   */\n      tag_253\n      jump\t// in\n    tag_252:\n        /* \"#utility.yul\":2508:2512   */\n      0x60\n        /* \"#utility.yul\":2503:2506   */\n      dup4\n        /* \"#utility.yul\":2499:2513   */\n      add\n        /* \"#utility.yul\":2485:2513   */\n      swap1\n      pop\n        /* \"#utility.yul\":2260:2519   */\n      swap3\n      swap2\n      pop\n      pop\n      jump\t// out\n        /* \"#utility.yul\":2525:2633   */\n    tag_254:\n        /* \"#utility.yul\":2602:2626   */\n      tag_256\n        /* \"#utility.yul\":2620:2625   */\n      dup2\n        /* \"#utility.yul\":2602:2626   */\n      tag_257\n      jump\t// in\n    tag_256:\n        /* \"#utility.yul\":2597:2600   */\n      dup3\n        /* \"#utility.yul\":2590:2627   */\n      mstore\n        /* \"#utility.yul\":2525:2633   */\n      pop\n      pop\n      jump\t// out\n        /* \"#utility.yul\":2639:2757   */\n    tag_258:\n        /* \"#utility.yul\":2726:2750   */\n      tag_260\n        /* \"#utility.yul\":2744:2749   */\n      dup2\n        /* \"#utility.yul\":2726:2750   */\n      tag_257\n      jump\t// in\n    tag_260:\n        /* \"#utility.yul\":2721:2724   */\n      dup3\n        /* \"#utility.yul\":2714:2751   */\n      mstore\n        /* \"#utility.yul\":2639:2757   */\n      pop\n      pop\n      jump\t// out\n        /* \"#utility.yul\":2839:3731   */\n    tag_261:\n        /* \"#utility.yul\":2998:3001   */\n      0x00\n        /* \"#utility.yul\":3027:3101   */\n      tag_263\n        /* \"#utility.yul\":3095:3100   */\n      dup3\n        /* \"#utility.yul\":3027:3101   */\n      tag_264\n      jump\t// in\n    tag_263:\n        /* \"#utility.yul\":3117:3223   */\n      tag_265\n        /* \"#utility.yul\":3216:3222   */\n      dup2\n        /* \"#utility.yul\":3211:3214   */\n      dup6\n        /* \"#utility.yul\":3117:3223   */\n      tag_266\n      jump\t// in\n    tag_265:\n        /* \"#utility.yul\":3110:3223   */\n      swap4\n      pop\n        /* \"#utility.yul\":3247:3323   */\n      tag_267\n        /* \"#utility.yul\":3317:3322   */\n      dup4\n        /* \"#utility.yul\":3247:3323   */\n      tag_268\n      jump\t// in\n    tag_267:\n        /* \"#utility.yul\":3346:3353   */\n      dup1\n        /* \"#utility.yul\":3377:3378   */\n      0x00\n        /* \"#utility.yul\":3362:3706   */\n    tag_269:\n        /* \"#utility.yul\":3387:3393   */\n      dup4\n        /* \"#utility.yul\":3384:3385   */\n      dup2\n        /* \"#utility.yul\":3381:3394   */\n      lt\n        /* \"#utility.yul\":3362:3706   */\n      iszero\n      tag_271\n      jumpi\n        /* \"#utility.yul\":3463:3469   */\n      dup2\n        /* \"#utility.yul\":3457:3470   */\n      mload\n        /* \"#utility.yul\":3490:3593   */\n      tag_272\n        /* \"#utility.yul\":3589:3592   */\n      dup9\n        /* \"#utility.yul\":3574:3587   */\n      dup3\n        /* \"#utility.yul\":3490:3593   */\n      tag_250\n      jump\t// in\n    tag_272:\n        /* \"#utility.yul\":3483:3593   */\n      swap8\n      pop\n        /* \"#utility.yul\":3616:3696   */\n      tag_273\n        /* \"#utility.yul\":3689:3695   */\n      dup4\n        /* \"#utility.yul\":3616:3696   */\n      tag_274\n      jump\t// in\n    tag_273:\n        /* \"#utility.yul\":3606:3696   */\n      swap3\n      pop\n        /* \"#utility.yul\":3422:3706   */\n      pop\n        /* \"#utility.yul\":3409:3410   */\n      0x01\n        /* \"#utility.yul\":3406:3407   */\n      dup2\n        /* \"#utility.yul\":3402:3411   */\n      add\n        /* \"#utility.yul\":3397:3411   */\n      swap1\n      pop\n        /* \"#utility.yul\":3362:3706   */\n      jump(tag_269)\n    tag_271:\n        /* \"#utility.yul\":3366:3380   */\n      pop\n        /* \"#utility.yul\":3722:3725   */\n      dup6\n        /* \"#utility.yul\":3715:3725   */\n      swap4\n      pop\n        /* \"#utility.yul\":3003:3731   */\n      pop\n      pop\n      pop\n        /* \"#utility.yul\":2839:3731   */\n      swap3\n      swap2\n      pop\n      pop\n      jump\t// out\n        /* \"#utility.yul\":3737:3836   */\n    tag_275:\n        /* \"#utility.yul\":3808:3829   */\n      tag_277\n        /* \"#utility.yul\":3823:3828   */\n      dup2\n        /* \"#utility.yul\":3808:3829   */\n      tag_278\n      jump\t// in\n    tag_277:\n        /* \"#utility.yul\":3803:3806   */\n      dup3\n        /* \"#utility.yul\":3796:3830   */\n      mstore\n        /* \"#utility.yul\":3737:3836   */\n      pop\n      pop\n      jump\t// out\n        /* \"#utility.yul\":3842:3951   */\n    tag_279:\n        /* \"#utility.yul\":3923:3944   */\n      tag_281\n        /* \"#utility.yul\":3938:3943   */\n      dup2\n        /* \"#utility.yul\":3923:3944   */\n      tag_278\n      jump\t// in\n    tag_281:\n        /* \"#utility.yul\":3918:3921   */\n      dup3\n        /* \"#utility.yul\":3911:3945   */\n      mstore\n        /* \"#utility.yul\":3842:3951   */\n      pop\n      pop\n      jump\t// out\n        /* \"#utility.yul\":3957:4301   */\n    tag_282:\n        /* \"#utility.yul\":4035:4038   */\n      0x00\n        /* \"#utility.yul\":4063:4102   */\n      tag_284\n        /* \"#utility.yul\":4096:4101   */\n      dup3\n        /* \"#utility.yul\":4063:4102   */\n      tag_285\n      jump\t// in\n    tag_284:\n        /* \"#utility.yul\":4118:4179   */\n      tag_286\n        /* \"#utility.yul\":4172:4178   */\n      dup2\n        /* \"#utility.yul\":4167:4170   */\n      dup6\n        /* \"#utility.yul\":4118:4179   */\n      tag_287\n      jump\t// in\n    tag_286:\n        /* \"#utility.yul\":4111:4179   */\n      swap4\n      pop\n        /* \"#utility.yul\":4188:4240   */\n      tag_288\n        /* \"#utility.yul\":4233:4239   */\n      dup2\n        /* \"#utility.yul\":4228:4231   */\n      dup6\n        /* \"#utility.yul\":4221:4225   */\n      0x20\n        /* \"#utility.yul\":4214:4219   */\n      dup7\n        /* \"#utility.yul\":4210:4226   */\n      add\n        /* \"#utility.yul\":4188:4240   */\n      tag_289\n      jump\t// in\n    tag_288:\n        /* \"#utility.yul\":4265:4294   */\n      tag_290\n        /* \"#utility.yul\":4287:4293   */\n      dup2\n        /* \"#utility.yul\":4265:4294   */\n      tag_291\n      jump\t// in\n    tag_290:\n        /* \"#utility.yul\":4260:4263   */\n      dup5\n        /* \"#utility.yul\":4256:4295   */\n      add\n        /* \"#utility.yul\":4249:4295   */\n      swap2\n      pop\n        /* \"#utility.yul\":4039:4301   */\n      pop\n        /* \"#utility.yul\":3957:4301   */\n      swap3\n      swap2\n      pop\n      pop\n      jump\t// out\n        /* \"#utility.yul\":4307:4671   */\n    tag_292:\n        /* \"#utility.yul\":4395:4398   */\n      0x00\n        /* \"#utility.yul\":4423:4462   */\n      tag_294\n        /* \"#utility.yul\":4456:4461   */\n      dup3\n        /* \"#utility.yul\":4423:4462   */\n      tag_285\n      jump\t// in\n    tag_294:\n        /* \"#utility.yul\":4478:4549   */\n      tag_295\n        /* \"#utility.yul\":4542:4548   */\n      dup2\n        /* \"#utility.yul\":4537:4540   */\n      dup6\n        /* \"#utility.yul\":4478:4549   */\n      tag_296\n      jump\t// in\n    tag_295:\n        /* \"#utility.yul\":4471:4549   */\n      swap4\n      pop\n        /* \"#utility.yul\":4558:4610   */\n      tag_297\n        /* \"#utility.yul\":4603:4609   */\n      dup2\n        /* \"#utility.yul\":4598:4601   */\n      dup6\n        /* \"#utility.yul\":4591:4595   */\n      0x20\n        /* \"#utility.yul\":4584:4589   */\n      dup7\n        /* \"#utility.yul\":4580:4596   */\n      add\n        /* \"#utility.yul\":4558:4610   */\n      tag_289\n      jump\t// in\n    tag_297:\n        /* \"#utility.yul\":4635:4664   */\n      tag_298\n        /* \"#utility.yul\":4657:4663   */\n      dup2\n        /* \"#utility.yul\":4635:4664   */\n      tag_291\n      jump\t// in\n    tag_298:\n        /* \"#utility.yul\":4630:4633   */\n      dup5\n        /* \"#utility.yul\":4626:4665   */\n      add\n        /* \"#utility.yul\":4619:4665   */\n      swap2\n      pop\n        /* \"#utility.yul\":4399:4671   */\n      pop\n        /* \"#utility.yul\":4307:4671   */\n      swap3\n      swap2\n      pop\n      pop\n      jump\t// out\n        /* \"#utility.yul\":4677:5043   */\n    tag_299:\n        /* \"#utility.yul\":4819:4822   */\n      0x00\n        /* \"#utility.yul\":4840:4907   */\n      tag_301\n        /* \"#utility.yul\":4904:4906   */\n      0x1f\n        /* \"#utility.yul\":4899:4902   */\n      dup4\n        /* \"#utility.yul\":4840:4907   */\n      tag_296\n      jump\t// in\n    tag_301:\n        /* \"#utility.yul\":4833:4907   */\n      swap2\n      pop\n        /* \"#utility.yul\":4916:5009   */\n      tag_302\n        /* \"#utility.yul\":5005:5008   */\n      dup3\n        /* \"#utility.yul\":4916:5009   */\n      tag_303\n      jump\t// in\n    tag_302:\n        /* \"#utility.yul\":5034:5036   */\n      0x20\n        /* \"#utility.yul\":5029:5032   */\n      dup3\n        /* \"#utility.yul\":5025:5037   */\n      add\n        /* \"#utility.yul\":5018:5037   */\n      swap1\n      pop\n        /* \"#utility.yul\":4677:5043   */\n      swap2\n      swap1\n      pop\n      jump\t// out\n        /* \"#utility.yul\":5049:5415   */\n    tag_304:\n        /* \"#utility.yul\":5191:5194   */\n      0x00\n        /* \"#utility.yul\":5212:5279   */\n      tag_306\n        /* \"#utility.yul\":5276:5278   */\n      0x26\n        /* \"#utility.yul\":5271:5274   */\n      dup4\n        /* \"#utility.yul\":5212:5279   */\n      tag_296\n      jump\t// in\n    tag_306:\n        /* \"#utility.yul\":5205:5279   */\n      swap2\n      pop\n        /* \"#utility.yul\":5288:5381   */\n      tag_307\n        /* \"#utility.yul\":5377:5380   */\n      dup3\n        /* \"#utility.yul\":5288:5381   */\n      tag_308\n      jump\t// in\n    tag_307:\n        /* \"#utility.yul\":5406:5408   */\n      0x40\n        /* \"#utility.yul\":5401:5404   */\n      dup3\n        /* \"#utility.yul\":5397:5409   */\n      add\n        /* \"#utility.yul\":5390:5409   */\n      swap1\n      pop\n        /* \"#utility.yul\":5049:5415   */\n      swap2\n      swap1\n      pop\n      jump\t// out\n        /* \"#utility.yul\":5421:5787   */\n    tag_309:\n        /* \"#utility.yul\":5563:5566   */\n      0x00\n        /* \"#utility.yul\":5584:5651   */\n      tag_311\n        /* \"#utility.yul\":5648:5650   */\n      0x1c\n        /* \"#utility.yul\":5643:5646   */\n      dup4\n        /* \"#utility.yul\":5584:5651   */\n      tag_296\n      jump\t// in\n    tag_311:\n        /* \"#utility.yul\":5577:5651   */\n      swap2\n      pop\n        /* \"#utility.yul\":5660:5753   */\n      tag_312\n        /* \"#utility.yul\":5749:5752   */\n      dup3\n        /* \"#utility.yul\":5660:5753   */\n      tag_313\n      jump\t// in\n    tag_312:\n        /* \"#utility.yul\":5778:5780   */\n      0x20\n        /* \"#utility.yul\":5773:5776   */\n      dup3\n        /* \"#utility.yul\":5769:5781   */\n      add\n        /* \"#utility.yul\":5762:5781   */\n      swap1\n      pop\n        /* \"#utility.yul\":5421:5787   */\n      swap2\n      swap1\n      pop\n      jump\t// out\n        /* \"#utility.yul\":5793:6159   */\n    tag_314:\n        /* \"#utility.yul\":5935:5938   */\n      0x00\n        /* \"#utility.yul\":5956:6023   */\n      tag_316\n        /* \"#utility.yul\":6020:6022   */\n      0x15\n        /* \"#utility.yul\":6015:6018   */\n      dup4\n        /* \"#utility.yul\":5956:6023   */\n      tag_296\n      jump\t// in\n    tag_316:\n        /* \"#utility.yul\":5949:6023   */\n      swap2\n      pop\n        /* \"#utility.yul\":6032:6125   */\n      tag_317\n        /* \"#utility.yul\":6121:6124   */\n      dup3\n        /* \"#utility.yul\":6032:6125   */\n      tag_318\n      jump\t// in\n    tag_317:\n        /* \"#utility.yul\":6150:6152   */\n      0x20\n        /* \"#utility.yul\":6145:6148   */\n      dup3\n        /* \"#utility.yul\":6141:6153   */\n      add\n        /* \"#utility.yul\":6134:6153   */\n      swap1\n      pop\n        /* \"#utility.yul\":5793:6159   */\n      swap2\n      swap1\n      pop\n      jump\t// out\n        /* \"#utility.yul\":6165:6531   */\n    tag_319:\n        /* \"#utility.yul\":6307:6310   */\n      0x00\n        /* \"#utility.yul\":6328:6395   */\n      tag_321\n        /* \"#utility.yul\":6392:6394   */\n      0x1e\n        /* \"#utility.yul\":6387:6390   */\n      dup4\n        /* \"#utility.yul\":6328:6395   */\n      tag_296\n      jump\t// in\n    tag_321:\n        /* \"#utility.yul\":6321:6395   */\n      swap2\n      pop\n        /* \"#utility.yul\":6404:6497   */\n      tag_322\n        /* \"#utility.yul\":6493:6496   */\n      dup3\n        /* \"#utility.yul\":6404:6497   */\n      tag_323\n      jump\t// in\n    tag_322:\n        /* \"#utility.yul\":6522:6524   */\n      0x20\n        /* \"#utility.yul\":6517:6520   */\n      dup3\n        /* \"#utility.yul\":6513:6525   */\n      add\n        /* \"#utility.yul\":6506:6525   */\n      swap1\n      pop\n        /* \"#utility.yul\":6165:6531   */\n      swap2\n      swap1\n      pop\n      jump\t// out\n        /* \"#utility.yul\":6537:6903   */\n    tag_324:\n        /* \"#utility.yul\":6679:6682   */\n      0x00\n        /* \"#utility.yul\":6700:6767   */\n      tag_326\n        /* \"#utility.yul\":6764:6766   */\n      0x24\n        /* \"#utility.yul\":6759:6762   */\n      dup4\n        /* \"#utility.yul\":6700:6767   */\n      tag_296\n      jump\t// in\n    tag_326:\n        /* \"#utility.yul\":6693:6767   */\n      swap2\n      pop\n        /* \"#utility.yul\":6776:6869   */\n      tag_327\n        /* \"#utility.yul\":6865:6868   */\n      dup3\n        /* \"#utility.yul\":6776:6869   */\n      tag_328\n      jump\t// in\n    tag_327:\n        /* \"#utility.yul\":6894:6896   */\n      0x40\n        /* \"#utility.yul\":6889:6892   */\n      dup3\n        /* \"#utility.yul\":6885:6897   */\n      add\n        /* \"#utility.yul\":6878:6897   */\n      swap1\n      pop\n        /* \"#utility.yul\":6537:6903   */\n      swap2\n      swap1\n      pop\n      jump\t// out\n        /* \"#utility.yul\":6909:7275   */\n    tag_329:\n        /* \"#utility.yul\":7051:7054   */\n      0x00\n        /* \"#utility.yul\":7072:7139   */\n      tag_331\n        /* \"#utility.yul\":7136:7138   */\n      0x28\n        /* \"#utility.yul\":7131:7134   */\n      dup4\n        /* \"#utility.yul\":7072:7139   */\n      tag_296\n      jump\t// in\n    tag_331:\n        /* \"#utility.yul\":7065:7139   */\n      swap2\n      pop\n        /* \"#utility.yul\":7148:7241   */\n      tag_332\n        /* \"#utility.yul\":7237:7240   */\n      dup3\n        /* \"#utility.yul\":7148:7241   */\n      tag_333\n      jump\t// in\n    tag_332:\n        /* \"#utility.yul\":7266:7268   */\n      0x40\n        /* \"#utility.yul\":7261:7264   */\n      dup3\n        /* \"#utility.yul\":7257:7269   */\n      add\n        /* \"#utility.yul\":7250:7269   */\n      swap1\n      pop\n        /* \"#utility.yul\":6909:7275   */\n      swap2\n      swap1\n      pop\n      jump\t// out\n        /* \"#utility.yul\":7281:7647   */\n    tag_334:\n        /* \"#utility.yul\":7423:7426   */\n      0x00\n        /* \"#utility.yul\":7444:7511   */\n      tag_336\n        /* \"#utility.yul\":7508:7510   */\n      0x20\n        /* \"#utility.yul\":7503:7506   */\n      dup4\n        /* \"#utility.yul\":7444:7511   */\n      tag_296\n      jump\t// in\n    tag_336:\n        /* \"#utility.yul\":7437:7511   */\n      swap2\n      pop\n        /* \"#utility.yul\":7520:7613   */\n      tag_337\n        /* \"#utility.yul\":7609:7612   */\n      dup3\n        /* \"#utility.yul\":7520:7613   */\n      tag_338\n      jump\t// in\n    tag_337:\n        /* \"#utility.yul\":7638:7640   */\n      0x20\n        /* \"#utility.yul\":7633:7636   */\n      dup3\n        /* \"#utility.yul\":7629:7641   */\n      add\n        /* \"#utility.yul\":7622:7641   */\n      swap1\n      pop\n        /* \"#utility.yul\":7281:7647   */\n      swap2\n      swap1\n      pop\n      jump\t// out\n        /* \"#utility.yul\":7653:8019   */\n    tag_339:\n        /* \"#utility.yul\":7795:7798   */\n      0x00\n        /* \"#utility.yul\":7816:7883   */\n      tag_341\n        /* \"#utility.yul\":7880:7882   */\n      0x12\n        /* \"#utility.yul\":7875:7878   */\n      dup4\n        /* \"#utility.yul\":7816:7883   */\n      tag_296\n      jump\t// in\n    tag_341:\n        /* \"#utility.yul\":7809:7883   */\n      swap2\n      pop\n        /* \"#utility.yul\":7892:7985   */\n      tag_342\n        /* \"#utility.yul\":7981:7984   */\n      dup3\n        /* \"#utility.yul\":7892:7985   */\n      tag_343\n      jump\t// in\n    tag_342:\n        /* \"#utility.yul\":8010:8012   */\n      0x20\n        /* \"#utility.yul\":8005:8008   */\n      dup3\n        /* \"#utility.yul\":8001:8013   */\n      add\n        /* \"#utility.yul\":7994:8013   */\n      swap1\n      pop\n        /* \"#utility.yul\":7653:8019   */\n      swap2\n      swap1\n      pop\n      jump\t// out\n        /* \"#utility.yul\":8025:8391   */\n    tag_344:\n        /* \"#utility.yul\":8167:8170   */\n      0x00\n        /* \"#utility.yul\":8188:8255   */\n      tag_346\n        /* \"#utility.yul\":8252:8254   */\n      0x25\n        /* \"#utility.yul\":8247:8250   */\n      dup4\n        /* \"#utility.yul\":8188:8255   */\n      tag_296\n      jump\t// in\n    tag_346:\n        /* \"#utility.yul\":8181:8255   */\n      swap2\n      pop\n        /* \"#utility.yul\":8264:8357   */\n      tag_347\n        /* \"#utility.yul\":8353:8356   */\n      dup3\n        /* \"#utility.yul\":8264:8357   */\n      tag_348\n      jump\t// in\n    tag_347:\n        /* \"#utility.yul\":8382:8384   */\n      0x40\n        /* \"#utility.yul\":8377:8380   */\n      dup3\n        /* \"#utility.yul\":8373:8385   */\n      add\n        /* \"#utility.yul\":8366:8385   */\n      swap1\n      pop\n        /* \"#utility.yul\":8025:8391   */\n      swap2\n      swap1\n      pop\n      jump\t// out\n        /* \"#utility.yul\":8475:9089   */\n    tag_349:\n        /* \"#utility.yul\":8592:8595   */\n      0x00\n        /* \"#utility.yul\":8628:8632   */\n      0x40\n        /* \"#utility.yul\":8623:8626   */\n      dup4\n        /* \"#utility.yul\":8619:8633   */\n      add\n        /* \"#utility.yul\":8720:8724   */\n      0x00\n        /* \"#utility.yul\":8713:8718   */\n      dup4\n        /* \"#utility.yul\":8709:8725   */\n      add\n        /* \"#utility.yul\":8703:8726   */\n      mload\n        /* \"#utility.yul\":8739:8802   */\n      tag_351\n        /* \"#utility.yul\":8796:8800   */\n      0x00\n        /* \"#utility.yul\":8791:8794   */\n      dup7\n        /* \"#utility.yul\":8787:8801   */\n      add\n        /* \"#utility.yul\":8773:8785   */\n      dup3\n        /* \"#utility.yul\":8739:8802   */\n      tag_352\n      jump\t// in\n    tag_351:\n        /* \"#utility.yul\":8643:8812   */\n      pop\n        /* \"#utility.yul\":8899:8903   */\n      0x20\n        /* \"#utility.yul\":8892:8897   */\n      dup4\n        /* \"#utility.yul\":8888:8904   */\n      add\n        /* \"#utility.yul\":8882:8905   */\n      mload\n        /* \"#utility.yul\":8952:8955   */\n      dup5\n        /* \"#utility.yul\":8946:8950   */\n      dup3\n        /* \"#utility.yul\":8942:8956   */\n      sub\n        /* \"#utility.yul\":8935:8939   */\n      0x20\n        /* \"#utility.yul\":8930:8933   */\n      dup7\n        /* \"#utility.yul\":8926:8940   */\n      add\n        /* \"#utility.yul\":8919:8957   */\n      mstore\n        /* \"#utility.yul\":8978:9051   */\n      tag_353\n        /* \"#utility.yul\":9046:9050   */\n      dup3\n        /* \"#utility.yul\":9032:9044   */\n      dup3\n        /* \"#utility.yul\":8978:9051   */\n      tag_282\n      jump\t// in\n    tag_353:\n        /* \"#utility.yul\":8970:9051   */\n      swap2\n      pop\n        /* \"#utility.yul\":8822:9062   */\n      pop\n        /* \"#utility.yul\":9079:9083   */\n      dup1\n        /* \"#utility.yul\":9072:9083   */\n      swap2\n      pop\n        /* \"#utility.yul\":8597:9089   */\n      pop\n        /* \"#utility.yul\":8475:9089   */\n      swap3\n      swap2\n      pop\n      pop\n      jump\t// out\n        /* \"#utility.yul\":9167:9822   */\n    tag_253:\n        /* \"#utility.yul\":9294:9298   */\n      0x60\n        /* \"#utility.yul\":9289:9292   */\n      dup3\n        /* \"#utility.yul\":9285:9299   */\n      add\n        /* \"#utility.yul\":9382:9386   */\n      0x00\n        /* \"#utility.yul\":9375:9380   */\n      dup3\n        /* \"#utility.yul\":9371:9387   */\n      add\n        /* \"#utility.yul\":9365:9388   */\n      mload\n        /* \"#utility.yul\":9401:9458   */\n      tag_355\n        /* \"#utility.yul\":9452:9456   */\n      0x00\n        /* \"#utility.yul\":9447:9450   */\n      dup6\n        /* \"#utility.yul\":9443:9457   */\n      add\n        /* \"#utility.yul\":9429:9441   */\n      dup3\n        /* \"#utility.yul\":9401:9458   */\n      tag_275\n      jump\t// in\n    tag_355:\n        /* \"#utility.yul\":9309:9468   */\n      pop\n        /* \"#utility.yul\":9555:9559   */\n      0x20\n        /* \"#utility.yul\":9548:9553   */\n      dup3\n        /* \"#utility.yul\":9544:9560   */\n      add\n        /* \"#utility.yul\":9538:9561   */\n      mload\n        /* \"#utility.yul\":9574:9637   */\n      tag_356\n        /* \"#utility.yul\":9631:9635   */\n      0x20\n        /* \"#utility.yul\":9626:9629   */\n      dup6\n        /* \"#utility.yul\":9622:9636   */\n      add\n        /* \"#utility.yul\":9608:9620   */\n      dup3\n        /* \"#utility.yul\":9574:9637   */\n      tag_254\n      jump\t// in\n    tag_356:\n        /* \"#utility.yul\":9478:9647   */\n      pop\n        /* \"#utility.yul\":9729:9733   */\n      0x40\n        /* \"#utility.yul\":9722:9727   */\n      dup3\n        /* \"#utility.yul\":9718:9734   */\n      add\n        /* \"#utility.yul\":9712:9735   */\n      mload\n        /* \"#utility.yul\":9748:9805   */\n      tag_357\n        /* \"#utility.yul\":9799:9803   */\n      0x40\n        /* \"#utility.yul\":9794:9797   */\n      dup6\n        /* \"#utility.yul\":9790:9804   */\n      add\n        /* \"#utility.yul\":9776:9788   */\n      dup3\n        /* \"#utility.yul\":9748:9805   */\n      tag_275\n      jump\t// in\n    tag_357:\n        /* \"#utility.yul\":9657:9815   */\n      pop\n        /* \"#utility.yul\":9263:9822   */\n      pop\n        /* \"#utility.yul\":9167:9822   */\n      pop\n      pop\n      jump\t// out\n        /* \"#utility.yul\":9828:9936   */\n    tag_352:\n        /* \"#utility.yul\":9905:9929   */\n      tag_359\n        /* \"#utility.yul\":9923:9928   */\n      dup2\n        /* \"#utility.yul\":9905:9929   */\n      tag_360\n      jump\t// in\n    tag_359:\n        /* \"#utility.yul\":9900:9903   */\n      dup3\n        /* \"#utility.yul\":9893:9930   */\n      mstore\n        /* \"#utility.yul\":9828:9936   */\n      pop\n      pop\n      jump\t// out\n        /* \"#utility.yul\":9942:10060   */\n    tag_361:\n        /* \"#utility.yul\":10029:10053   */\n      tag_363\n        /* \"#utility.yul\":10047:10052   */\n      dup2\n        /* \"#utility.yul\":10029:10053   */\n      tag_360\n      jump\t// in\n    tag_363:\n        /* \"#utility.yul\":10024:10027   */\n      dup3\n        /* \"#utility.yul\":10017:10054   */\n      mstore\n        /* \"#utility.yul\":9942:10060   */\n      pop\n      pop\n      jump\t// out\n        /* \"#utility.yul\":10066:10288   */\n    tag_28:\n        /* \"#utility.yul\":10159:10163   */\n      0x00\n        /* \"#utility.yul\":10197:10199   */\n      0x20\n        /* \"#utility.yul\":10186:10195   */\n      dup3\n        /* \"#utility.yul\":10182:10200   */\n      add\n        /* \"#utility.yul\":10174:10200   */\n      swap1\n      pop\n        /* \"#utility.yul\":10210:10281   */\n      tag_365\n        /* \"#utility.yul\":10278:10279   */\n      0x00\n        /* \"#utility.yul\":10267:10276   */\n      dup4\n        /* \"#utility.yul\":10263:10280   */\n      add\n        /* \"#utility.yul\":10254:10260   */\n      dup5\n        /* \"#utility.yul\":10210:10281   */\n      tag_258\n      jump\t// in\n    tag_365:\n        /* \"#utility.yul\":10066:10288   */\n      swap3\n      swap2\n      pop\n      pop\n      jump\t// out\n        /* \"#utility.yul\":10294:10712   */\n    tag_70:\n        /* \"#utility.yul\":10431:10435   */\n      0x00\n        /* \"#utility.yul\":10469:10471   */\n      0x60\n        /* \"#utility.yul\":10458:10467   */\n      dup3\n        /* \"#utility.yul\":10454:10472   */\n      add\n        /* \"#utility.yul\":10446:10472   */\n      swap1\n      pop\n        /* \"#utility.yul\":10482:10547   */\n      tag_367\n        /* \"#utility.yul\":10544:10545   */\n      0x00\n        /* \"#utility.yul\":10533:10542   */\n      dup4\n        /* \"#utility.yul\":10529:10546   */\n      add\n        /* \"#utility.yul\":10520:10526   */\n      dup7\n        /* \"#utility.yul\":10482:10547   */\n      tag_279\n      jump\t// in\n    tag_367:\n        /* \"#utility.yul\":10557:10629   */\n      tag_368\n        /* \"#utility.yul\":10625:10627   */\n      0x20\n        /* \"#utility.yul\":10614:10623   */\n      dup4\n        /* \"#utility.yul\":10610:10628   */\n      add\n        /* \"#utility.yul\":10601:10607   */\n      dup6\n        /* \"#utility.yul\":10557:10629   */\n      tag_258\n      jump\t// in\n    tag_368:\n        /* \"#utility.yul\":10639:10705   */\n      tag_369\n        /* \"#utility.yul\":10701:10703   */\n      0x40\n        /* \"#utility.yul\":10690:10699   */\n      dup4\n        /* \"#utility.yul\":10686:10704   */\n      add\n        /* \"#utility.yul\":10677:10683   */\n      dup5\n        /* \"#utility.yul\":10639:10705   */\n      tag_279\n      jump\t// in\n    tag_369:\n        /* \"#utility.yul\":10294:10712   */\n      swap5\n      swap4\n      pop\n      pop\n      pop\n      pop\n      jump\t// out\n        /* \"#utility.yul\":10718:11136   */\n    tag_45:\n        /* \"#utility.yul\":10855:10859   */\n      0x00\n        /* \"#utility.yul\":10893:10895   */\n      0x60\n        /* \"#utility.yul\":10882:10891   */\n      dup3\n        /* \"#utility.yul\":10878:10896   */\n      add\n        /* \"#utility.yul\":10870:10896   */\n      swap1\n      pop\n        /* \"#utility.yul\":10906:10971   */\n      tag_371\n        /* \"#utility.yul\":10968:10969   */\n      0x00\n        /* \"#utility.yul\":10957:10966   */\n      dup4\n        /* \"#utility.yul\":10953:10970   */\n      add\n        /* \"#utility.yul\":10944:10950   */\n      dup7\n        /* \"#utility.yul\":10906:10971   */\n      tag_279\n      jump\t// in\n    tag_371:\n        /* \"#utility.yul\":10981:11047   */\n      tag_372\n        /* \"#utility.yul\":11043:11045   */\n      0x20\n        /* \"#utility.yul\":11032:11041   */\n      dup4\n        /* \"#utility.yul\":11028:11046   */\n      add\n        /* \"#utility.yul\":11019:11025   */\n      dup6\n        /* \"#utility.yul\":10981:11047   */\n      tag_279\n      jump\t// in\n    tag_372:\n        /* \"#utility.yul\":11057:11129   */\n      tag_373\n        /* \"#utility.yul\":11125:11127   */\n      0x40\n        /* \"#utility.yul\":11114:11123   */\n      dup4\n        /* \"#utility.yul\":11110:11128   */\n      add\n        /* \"#utility.yul\":11101:11107   */\n      dup5\n        /* \"#utility.yul\":11057:11129   */\n      tag_258\n      jump\t// in\n    tag_373:\n        /* \"#utility.yul\":10718:11136   */\n      swap5\n      swap4\n      pop\n      pop\n      pop\n      pop\n      jump\t// out\n        /* \"#utility.yul\":11142:11455   */\n    tag_36:\n        /* \"#utility.yul\":11255:11259   */\n      0x00\n        /* \"#utility.yul\":11293:11295   */\n      0x20\n        /* \"#utility.yul\":11282:11291   */\n      dup3\n        /* \"#utility.yul\":11278:11296   */\n      add\n        /* \"#utility.yul\":11270:11296   */\n      swap1\n      pop\n        /* \"#utility.yul\":11342:11351   */\n      dup2\n        /* \"#utility.yul\":11336:11340   */\n      dup2\n        /* \"#utility.yul\":11332:11352   */\n      sub\n        /* \"#utility.yul\":11328:11329   */\n      0x00\n        /* \"#utility.yul\":11317:11326   */\n      dup4\n        /* \"#utility.yul\":11313:11330   */\n      add\n        /* \"#utility.yul\":11306:11353   */\n      mstore\n        /* \"#utility.yul\":11370:11448   */\n      tag_375\n        /* \"#utility.yul\":11443:11447   */\n      dup2\n        /* \"#utility.yul\":11434:11440   */\n      dup5\n        /* \"#utility.yul\":11370:11448   */\n      tag_292\n      jump\t// in\n    tag_375:\n        /* \"#utility.yul\":11362:11448   */\n      swap1\n      pop\n        /* \"#utility.yul\":11142:11455   */\n      swap3\n      swap2\n      pop\n      pop\n      jump\t// out\n        /* \"#utility.yul\":11461:12372   */\n    tag_63:\n        /* \"#utility.yul\":11768:11772   */\n      0x00\n        /* \"#utility.yul\":11806:11808   */\n      0x60\n        /* \"#utility.yul\":11795:11804   */\n      dup3\n        /* \"#utility.yul\":11791:11809   */\n      add\n        /* \"#utility.yul\":11783:11809   */\n      swap1\n      pop\n        /* \"#utility.yul\":11855:11864   */\n      dup2\n        /* \"#utility.yul\":11849:11853   */\n      dup2\n        /* \"#utility.yul\":11845:11865   */\n      sub\n        /* \"#utility.yul\":11841:11842   */\n      0x00\n        /* \"#utility.yul\":11830:11839   */\n      dup4\n        /* \"#utility.yul\":11826:11843   */\n      add\n        /* \"#utility.yul\":11819:11866   */\n      mstore\n        /* \"#utility.yul\":11883:11961   */\n      tag_377\n        /* \"#utility.yul\":11956:11960   */\n      dup2\n        /* \"#utility.yul\":11947:11953   */\n      dup7\n        /* \"#utility.yul\":11883:11961   */\n      tag_292\n      jump\t// in\n    tag_377:\n        /* \"#utility.yul\":11875:11961   */\n      swap1\n      pop\n        /* \"#utility.yul\":12008:12017   */\n      dup2\n        /* \"#utility.yul\":12002:12006   */\n      dup2\n        /* \"#utility.yul\":11998:12018   */\n      sub\n        /* \"#utility.yul\":11993:11995   */\n      0x20\n        /* \"#utility.yul\":11982:11991   */\n      dup4\n        /* \"#utility.yul\":11978:11996   */\n      add\n        /* \"#utility.yul\":11971:12019   */\n      mstore\n        /* \"#utility.yul\":12036:12142   */\n      tag_378\n        /* \"#utility.yul\":12137:12141   */\n      dup2\n        /* \"#utility.yul\":12128:12134   */\n      dup6\n        /* \"#utility.yul\":12036:12142   */\n      tag_349\n      jump\t// in\n    tag_378:\n        /* \"#utility.yul\":12028:12142   */\n      swap1\n      pop\n        /* \"#utility.yul\":12189:12198   */\n      dup2\n        /* \"#utility.yul\":12183:12187   */\n      dup2\n        /* \"#utility.yul\":12179:12199   */\n      sub\n        /* \"#utility.yul\":12174:12176   */\n      0x40\n        /* \"#utility.yul\":12163:12172   */\n      dup4\n        /* \"#utility.yul\":12159:12177   */\n      add\n        /* \"#utility.yul\":12152:12200   */\n      mstore\n        /* \"#utility.yul\":12217:12365   */\n      tag_379\n        /* \"#utility.yul\":12360:12364   */\n      dup2\n        /* \"#utility.yul\":12351:12357   */\n      dup5\n        /* \"#utility.yul\":12217:12365   */\n      tag_261\n      jump\t// in\n    tag_379:\n        /* \"#utility.yul\":12209:12365   */\n      swap1\n      pop\n        /* \"#utility.yul\":11461:12372   */\n      swap5\n      swap4\n      pop\n      pop\n      pop\n      pop\n      jump\t// out\n        /* \"#utility.yul\":12378:13133   */\n    tag_74:\n        /* \"#utility.yul\":12603:12607   */\n      0x00\n        /* \"#utility.yul\":12641:12644   */\n      0xa0\n        /* \"#utility.yul\":12630:12639   */\n      dup3\n        /* \"#utility.yul\":12626:12645   */\n      add\n        /* \"#utility.yul\":12618:12645   */\n      swap1\n      pop\n        /* \"#utility.yul\":12691:12700   */\n      dup2\n        /* \"#utility.yul\":12685:12689   */\n      dup2\n        /* \"#utility.yul\":12681:12701   */\n      sub\n        /* \"#utility.yul\":12677:12678   */\n      0x00\n        /* \"#utility.yul\":12666:12675   */\n      dup4\n        /* \"#utility.yul\":12662:12679   */\n      add\n        /* \"#utility.yul\":12655:12702   */\n      mstore\n        /* \"#utility.yul\":12719:12797   */\n      tag_381\n        /* \"#utility.yul\":12792:12796   */\n      dup2\n        /* \"#utility.yul\":12783:12789   */\n      dup9\n        /* \"#utility.yul\":12719:12797   */\n      tag_292\n      jump\t// in\n    tag_381:\n        /* \"#utility.yul\":12711:12797   */\n      swap1\n      pop\n        /* \"#utility.yul\":12807:12879   */\n      tag_382\n        /* \"#utility.yul\":12875:12877   */\n      0x20\n        /* \"#utility.yul\":12864:12873   */\n      dup4\n        /* \"#utility.yul\":12860:12878   */\n      add\n        /* \"#utility.yul\":12851:12857   */\n      dup8\n        /* \"#utility.yul\":12807:12879   */\n      tag_361\n      jump\t// in\n    tag_382:\n        /* \"#utility.yul\":12889:12961   */\n      tag_383\n        /* \"#utility.yul\":12957:12959   */\n      0x40\n        /* \"#utility.yul\":12946:12955   */\n      dup4\n        /* \"#utility.yul\":12942:12960   */\n      add\n        /* \"#utility.yul\":12933:12939   */\n      dup7\n        /* \"#utility.yul\":12889:12961   */\n      tag_258\n      jump\t// in\n    tag_383:\n        /* \"#utility.yul\":12971:13043   */\n      tag_384\n        /* \"#utility.yul\":13039:13041   */\n      0x60\n        /* \"#utility.yul\":13028:13037   */\n      dup4\n        /* \"#utility.yul\":13024:13042   */\n      add\n        /* \"#utility.yul\":13015:13021   */\n      dup6\n        /* \"#utility.yul\":12971:13043   */\n      tag_361\n      jump\t// in\n    tag_384:\n        /* \"#utility.yul\":13053:13126   */\n      tag_385\n        /* \"#utility.yul\":13121:13124   */\n      0x80\n        /* \"#utility.yul\":13110:13119   */\n      dup4\n        /* \"#utility.yul\":13106:13125   */\n      add\n        /* \"#utility.yul\":13097:13103   */\n      dup5\n        /* \"#utility.yul\":13053:13126   */\n      tag_361\n      jump\t// in\n    tag_385:\n        /* \"#utility.yul\":12378:13133   */\n      swap7\n      swap6\n      pop\n      pop\n      pop\n      pop\n      pop\n      pop\n      jump\t// out\n        /* \"#utility.yul\":13139:13558   */\n    tag_99:\n        /* \"#utility.yul\":13305:13309   */\n      0x00\n        /* \"#utility.yul\":13343:13345   */\n      0x20\n        /* \"#utility.yul\":13332:13341   */\n      dup3\n        /* \"#utility.yul\":13328:13346   */\n      add\n        /* \"#utility.yul\":13320:13346   */\n      swap1\n      pop\n        /* \"#utility.yul\":13392:13401   */\n      dup2\n        /* \"#utility.yul\":13386:13390   */\n      dup2\n        /* \"#utility.yul\":13382:13402   */\n      sub\n        /* \"#utility.yul\":13378:13379   */\n      0x00\n        /* \"#utility.yul\":13367:13376   */\n      dup4\n        /* \"#utility.yul\":13363:13380   */\n      add\n        /* \"#utility.yul\":13356:13403   */\n      mstore\n        /* \"#utility.yul\":13420:13551   */\n      tag_387\n        /* \"#utility.yul\":13546:13550   */\n      dup2\n        /* \"#utility.yul\":13420:13551   */\n      tag_299\n      jump\t// in\n    tag_387:\n        /* \"#utility.yul\":13412:13551   */\n      swap1\n      pop\n        /* \"#utility.yul\":13139:13558   */\n      swap2\n      swap1\n      pop\n      jump\t// out\n        /* \"#utility.yul\":13564:13983   */\n    tag_167:\n        /* \"#utility.yul\":13730:13734   */\n      0x00\n        /* \"#utility.yul\":13768:13770   */\n      0x20\n        /* \"#utility.yul\":13757:13766   */\n      dup3\n        /* \"#utility.yul\":13753:13771   */\n      add\n        /* \"#utility.yul\":13745:13771   */\n      swap1\n      pop\n        /* \"#utility.yul\":13817:13826   */\n      dup2\n        /* \"#utility.yul\":13811:13815   */\n      dup2\n        /* \"#utility.yul\":13807:13827   */\n      sub\n        /* \"#utility.yul\":13803:13804   */\n      0x00\n        /* \"#utility.yul\":13792:13801   */\n      dup4\n        /* \"#utility.yul\":13788:13805   */\n      add\n        /* \"#utility.yul\":13781:13828   */\n      mstore\n        /* \"#utility.yul\":13845:13976   */\n      tag_389\n        /* \"#utility.yul\":13971:13975   */\n      dup2\n        /* \"#utility.yul\":13845:13976   */\n      tag_304\n      jump\t// in\n    tag_389:\n        /* \"#utility.yul\":13837:13976   */\n      swap1\n      pop\n        /* \"#utility.yul\":13564:13983   */\n      swap2\n      swap1\n      pop\n      jump\t// out\n        /* \"#utility.yul\":13989:14408   */\n    tag_120:\n        /* \"#utility.yul\":14155:14159   */\n      0x00\n        /* \"#utility.yul\":14193:14195   */\n      0x20\n        /* \"#utility.yul\":14182:14191   */\n      dup3\n        /* \"#utility.yul\":14178:14196   */\n      add\n        /* \"#utility.yul\":14170:14196   */\n      swap1\n      pop\n        /* \"#utility.yul\":14242:14251   */\n      dup2\n        /* \"#utility.yul\":14236:14240   */\n      dup2\n        /* \"#utility.yul\":14232:14252   */\n      sub\n        /* \"#utility.yul\":14228:14229   */\n      0x00\n        /* \"#utility.yul\":14217:14226   */\n      dup4\n        /* \"#utility.yul\":14213:14230   */\n      add\n        /* \"#utility.yul\":14206:14253   */\n      mstore\n        /* \"#utility.yul\":14270:14401   */\n      tag_391\n        /* \"#utility.yul\":14396:14400   */\n      dup2\n        /* \"#utility.yul\":14270:14401   */\n      tag_309\n      jump\t// in\n    tag_391:\n        /* \"#utility.yul\":14262:14401   */\n      swap1\n      pop\n        /* \"#utility.yul\":13989:14408   */\n      swap2\n      swap1\n      pop\n      jump\t// out\n        /* \"#utility.yul\":14414:14833   */\n    tag_96:\n        /* \"#utility.yul\":14580:14584   */\n      0x00\n        /* \"#utility.yul\":14618:14620   */\n      0x20\n        /* \"#utility.yul\":14607:14616   */\n      dup3\n        /* \"#utility.yul\":14603:14621   */\n      add\n        /* \"#utility.yul\":14595:14621   */\n      swap1\n      pop\n        /* \"#utility.yul\":14667:14676   */\n      dup2\n        /* \"#utility.yul\":14661:14665   */\n      dup2\n        /* \"#utility.yul\":14657:14677   */\n      sub\n        /* \"#utility.yul\":14653:14654   */\n      0x00\n        /* \"#utility.yul\":14642:14651   */\n      dup4\n        /* \"#utility.yul\":14638:14655   */\n      add\n        /* \"#utility.yul\":14631:14678   */\n      mstore\n        /* \"#utility.yul\":14695:14826   */\n      tag_393\n        /* \"#utility.yul\":14821:14825   */\n      dup2\n        /* \"#utility.yul\":14695:14826   */\n      tag_314\n      jump\t// in\n    tag_393:\n        /* \"#utility.yul\":14687:14826   */\n      swap1\n      pop\n        /* \"#utility.yul\":14414:14833   */\n      swap2\n      swap1\n      pop\n      jump\t// out\n        /* \"#utility.yul\":14839:15258   */\n    tag_117:\n        /* \"#utility.yul\":15005:15009   */\n      0x00\n        /* \"#utility.yul\":15043:15045   */\n      0x20\n        /* \"#utility.yul\":15032:15041   */\n      dup3\n        /* \"#utility.yul\":15028:15046   */\n      add\n        /* \"#utility.yul\":15020:15046   */\n      swap1\n      pop\n        /* \"#utility.yul\":15092:15101   */\n      dup2\n        /* \"#utility.yul\":15086:15090   */\n      dup2\n        /* \"#utility.yul\":15082:15102   */\n      sub\n        /* \"#utility.yul\":15078:15079   */\n      0x00\n        /* \"#utility.yul\":15067:15076   */\n      dup4\n        /* \"#utility.yul\":15063:15080   */\n      add\n        /* \"#utility.yul\":15056:15103   */\n      mstore\n        /* \"#utility.yul\":15120:15251   */\n      tag_395\n        /* \"#utility.yul\":15246:15250   */\n      dup2\n        /* \"#utility.yul\":15120:15251   */\n      tag_319\n      jump\t// in\n    tag_395:\n        /* \"#utility.yul\":15112:15251   */\n      swap1\n      pop\n        /* \"#utility.yul\":14839:15258   */\n      swap2\n      swap1\n      pop\n      jump\t// out\n        /* \"#utility.yul\":15264:15683   */\n    tag_102:\n        /* \"#utility.yul\":15430:15434   */\n      0x00\n        /* \"#utility.yul\":15468:15470   */\n      0x20\n        /* \"#utility.yul\":15457:15466   */\n      dup3\n        /* \"#utility.yul\":15453:15471   */\n      add\n        /* \"#utility.yul\":15445:15471   */\n      swap1\n      pop\n        /* \"#utility.yul\":15517:15526   */\n      dup2\n        /* \"#utility.yul\":15511:15515   */\n      dup2\n        /* \"#utility.yul\":15507:15527   */\n      sub\n        /* \"#utility.yul\":15503:15504   */\n      0x00\n        /* \"#utility.yul\":15492:15501   */\n      dup4\n        /* \"#utility.yul\":15488:15505   */\n      add\n        /* \"#utility.yul\":15481:15528   */\n      mstore\n        /* \"#utility.yul\":15545:15676   */\n      tag_397\n        /* \"#utility.yul\":15671:15675   */\n      dup2\n        /* \"#utility.yul\":15545:15676   */\n      tag_324\n      jump\t// in\n    tag_397:\n        /* \"#utility.yul\":15537:15676   */\n      swap1\n      pop\n        /* \"#utility.yul\":15264:15683   */\n      swap2\n      swap1\n      pop\n      jump\t// out\n        /* \"#utility.yul\":15689:16108   */\n    tag_93:\n        /* \"#utility.yul\":15855:15859   */\n      0x00\n        /* \"#utility.yul\":15893:15895   */\n      0x20\n        /* \"#utility.yul\":15882:15891   */\n      dup3\n        /* \"#utility.yul\":15878:15896   */\n      add\n        /* \"#utility.yul\":15870:15896   */\n      swap1\n      pop\n        /* \"#utility.yul\":15942:15951   */\n      dup2\n        /* \"#utility.yul\":15936:15940   */\n      dup2\n        /* \"#utility.yul\":15932:15952   */\n      sub\n        /* \"#utility.yul\":15928:15929   */\n      0x00\n        /* \"#utility.yul\":15917:15926   */\n      dup4\n        /* \"#utility.yul\":15913:15930   */\n      add\n        /* \"#utility.yul\":15906:15953   */\n      mstore\n        /* \"#utility.yul\":15970:16101   */\n      tag_399\n        /* \"#utility.yul\":16096:16100   */\n      dup2\n        /* \"#utility.yul\":15970:16101   */\n      tag_329\n      jump\t// in\n    tag_399:\n        /* \"#utility.yul\":15962:16101   */\n      swap1\n      pop\n        /* \"#utility.yul\":15689:16108   */\n      swap2\n      swap1\n      pop\n      jump\t// out\n        /* \"#utility.yul\":16114:16533   */\n    tag_144:\n        /* \"#utility.yul\":16280:16284   */\n      0x00\n        /* \"#utility.yul\":16318:16320   */\n      0x20\n        /* \"#utility.yul\":16307:16316   */\n      dup3\n        /* \"#utility.yul\":16303:16321   */\n      add\n        /* \"#utility.yul\":16295:16321   */\n      swap1\n      pop\n        /* \"#utility.yul\":16367:16376   */\n      dup2\n        /* \"#utility.yul\":16361:16365   */\n      dup2\n        /* \"#utility.yul\":16357:16377   */\n      sub\n        /* \"#utility.yul\":16353:16354   */\n      0x00\n        /* \"#utility.yul\":16342:16351   */\n      dup4\n        /* \"#utility.yul\":16338:16355   */\n      add\n        /* \"#utility.yul\":16331:16378   */\n      mstore\n        /* \"#utility.yul\":16395:16526   */\n      tag_401\n        /* \"#utility.yul\":16521:16525   */\n      dup2\n        /* \"#utility.yul\":16395:16526   */\n      tag_334\n      jump\t// in\n    tag_401:\n        /* \"#utility.yul\":16387:16526   */\n      swap1\n      pop\n        /* \"#utility.yul\":16114:16533   */\n      swap2\n      swap1\n      pop\n      jump\t// out\n        /* \"#utility.yul\":16539:16958   */\n    tag_114:\n        /* \"#utility.yul\":16705:16709   */\n      0x00\n        /* \"#utility.yul\":16743:16745   */\n      0x20\n        /* \"#utility.yul\":16732:16741   */\n      dup3\n        /* \"#utility.yul\":16728:16746   */\n      add\n        /* \"#utility.yul\":16720:16746   */\n      swap1\n      pop\n        /* \"#utility.yul\":16792:16801   */\n      dup2\n        /* \"#utility.yul\":16786:16790   */\n      dup2\n        /* \"#utility.yul\":16782:16802   */\n      sub\n        /* \"#utility.yul\":16778:16779   */\n      0x00\n        /* \"#utility.yul\":16767:16776   */\n      dup4\n        /* \"#utility.yul\":16763:16780   */\n      add\n        /* \"#utility.yul\":16756:16803   */\n      mstore\n        /* \"#utility.yul\":16820:16951   */\n      tag_403\n        /* \"#utility.yul\":16946:16950   */\n      dup2\n        /* \"#utility.yul\":16820:16951   */\n      tag_339\n      jump\t// in\n    tag_403:\n        /* \"#utility.yul\":16812:16951   */\n      swap1\n      pop\n        /* \"#utility.yul\":16539:16958   */\n      swap2\n      swap1\n      pop\n      jump\t// out\n        /* \"#utility.yul\":16964:17383   */\n    tag_163:\n        /* \"#utility.yul\":17130:17134   */\n      0x00\n        /* \"#utility.yul\":17168:17170   */\n      0x20\n        /* \"#utility.yul\":17157:17166   */\n      dup3\n        /* \"#utility.yul\":17153:17171   */\n      add\n        /* \"#utility.yul\":17145:17171   */\n      swap1\n      pop\n        /* \"#utility.yul\":17217:17226   */\n      dup2\n        /* \"#utility.yul\":17211:17215   */\n      dup2\n        /* \"#utility.yul\":17207:17227   */\n      sub\n        /* \"#utility.yul\":17203:17204   */\n      0x00\n        /* \"#utility.yul\":17192:17201   */\n      dup4\n        /* \"#utility.yul\":17188:17205   */\n      add\n        /* \"#utility.yul\":17181:17228   */\n      mstore\n        /* \"#utility.yul\":17245:17376   */\n      tag_405\n        /* \"#utility.yul\":17371:17375   */\n      dup2\n        /* \"#utility.yul\":17245:17376   */\n      tag_344\n      jump\t// in\n    tag_405:\n        /* \"#utility.yul\":17237:17376   */\n      swap1\n      pop\n        /* \"#utility.yul\":16964:17383   */\n      swap2\n      swap1\n      pop\n      jump\t// out\n        /* \"#utility.yul\":17389:17611   */\n    tag_52:\n        /* \"#utility.yul\":17482:17486   */\n      0x00\n        /* \"#utility.yul\":17520:17522   */\n      0x20\n        /* \"#utility.yul\":17509:17518   */\n      dup3\n        /* \"#utility.yul\":17505:17523   */\n      add\n        /* \"#utility.yul\":17497:17523   */\n      swap1\n      pop\n        /* \"#utility.yul\":17533:17604   */\n      tag_407\n        /* \"#utility.yul\":17601:17602   */\n      0x00\n        /* \"#utility.yul\":17590:17599   */\n      dup4\n        /* \"#utility.yul\":17586:17603   */\n      add\n        /* \"#utility.yul\":17577:17583   */\n      dup5\n        /* \"#utility.yul\":17533:17604   */\n      tag_361\n      jump\t// in\n    tag_407:\n        /* \"#utility.yul\":17389:17611   */\n      swap3\n      swap2\n      pop\n      pop\n      jump\t// out\n        /* \"#utility.yul\":17617:18040   */\n    tag_59:\n        /* \"#utility.yul\":17758:17762   */\n      0x00\n        /* \"#utility.yul\":17796:17798   */\n      0x40\n        /* \"#utility.yul\":17785:17794   */\n      dup3\n        /* \"#utility.yul\":17781:17799   */\n      add\n        /* \"#utility.yul\":17773:17799   */\n      swap1\n      pop\n        /* \"#utility.yul\":17809:17880   */\n      tag_409\n        /* \"#utility.yul\":17877:17878   */\n      0x00\n        /* \"#utility.yul\":17866:17875   */\n      dup4\n        /* \"#utility.yul\":17862:17879   */\n      add\n        /* \"#utility.yul\":17853:17859   */\n      dup6\n        /* \"#utility.yul\":17809:17880   */\n      tag_361\n      jump\t// in\n    tag_409:\n        /* \"#utility.yul\":17927:17936   */\n      dup2\n        /* \"#utility.yul\":17921:17925   */\n      dup2\n        /* \"#utility.yul\":17917:17937   */\n      sub\n        /* \"#utility.yul\":17912:17914   */\n      0x20\n        /* \"#utility.yul\":17901:17910   */\n      dup4\n        /* \"#utility.yul\":17897:17915   */\n      add\n        /* \"#utility.yul\":17890:17938   */\n      mstore\n        /* \"#utility.yul\":17955:18033   */\n      tag_410\n        /* \"#utility.yul\":18028:18032   */\n      dup2\n        /* \"#utility.yul\":18019:18025   */\n      dup5\n        /* \"#utility.yul\":17955:18033   */\n      tag_292\n      jump\t// in\n    tag_410:\n        /* \"#utility.yul\":17947:18033   */\n      swap1\n      pop\n        /* \"#utility.yul\":17617:18040   */\n      swap4\n      swap3\n      pop\n      pop\n      pop\n      jump\t// out\n        /* \"#utility.yul\":18046:18175   */\n    tag_214:\n        /* \"#utility.yul\":18080:18086   */\n      0x00\n        /* \"#utility.yul\":18107:18127   */\n      tag_412\n      tag_413\n      jump\t// in\n    tag_412:\n        /* \"#utility.yul\":18097:18127   */\n      swap1\n      pop\n        /* \"#utility.yul\":18136:18169   */\n      tag_414\n        /* \"#utility.yul\":18164:18168   */\n      dup3\n        /* \"#utility.yul\":18156:18162   */\n      dup3\n        /* \"#utility.yul\":18136:18169   */\n      tag_415\n      jump\t// in\n    tag_414:\n        /* \"#utility.yul\":18046:18175   */\n      swap2\n      swap1\n      pop\n      jump\t// out\n        /* \"#utility.yul\":18181:18256   */\n    tag_413:\n        /* \"#utility.yul\":18214:18220   */\n      0x00\n        /* \"#utility.yul\":18247:18249   */\n      0x40\n        /* \"#utility.yul\":18241:18250   */\n      mload\n        /* \"#utility.yul\":18231:18250   */\n      swap1\n      pop\n        /* \"#utility.yul\":18181:18256   */\n      swap1\n      jump\t// out\n        /* \"#utility.yul\":18262:18570   */\n    tag_213:\n        /* \"#utility.yul\":18324:18328   */\n      0x00\n        /* \"#utility.yul\":18414:18432   */\n      0xffffffffffffffff\n        /* \"#utility.yul\":18406:18412   */\n      dup3\n        /* \"#utility.yul\":18403:18433   */\n      gt\n        /* \"#utility.yul\":18400:18456   */\n      iszero\n      tag_418\n      jumpi\n        /* \"#utility.yul\":18436:18454   */\n      tag_419\n      tag_420\n      jump\t// in\n    tag_419:\n        /* \"#utility.yul\":18400:18456   */\n    tag_418:\n        /* \"#utility.yul\":18474:18503   */\n      tag_421\n        /* \"#utility.yul\":18496:18502   */\n      dup3\n        /* \"#utility.yul\":18474:18503   */\n      tag_291\n      jump\t// in\n    tag_421:\n        /* \"#utility.yul\":18466:18503   */\n      swap1\n      pop\n        /* \"#utility.yul\":18558:18562   */\n      0x20\n        /* \"#utility.yul\":18552:18556   */\n      dup2\n        /* \"#utility.yul\":18548:18563   */\n      add\n        /* \"#utility.yul\":18540:18563   */\n      swap1\n      pop\n        /* \"#utility.yul\":18262:18570   */\n      swap2\n      swap1\n      pop\n      jump\t// out\n        /* \"#utility.yul\":18576:18728   */\n    tag_268:\n        /* \"#utility.yul\":18663:18667   */\n      0x00\n        /* \"#utility.yul\":18686:18689   */\n      dup2\n        /* \"#utility.yul\":18678:18689   */\n      swap1\n      pop\n        /* \"#utility.yul\":18716:18720   */\n      0x20\n        /* \"#utility.yul\":18711:18714   */\n      dup3\n        /* \"#utility.yul\":18707:18721   */\n      add\n        /* \"#utility.yul\":18699:18721   */\n      swap1\n      pop\n        /* \"#utility.yul\":18576:18728   */\n      swap2\n      swap1\n      pop\n      jump\t// out\n        /* \"#utility.yul\":18734:18868   */\n    tag_264:\n        /* \"#utility.yul\":18821:18827   */\n      0x00\n        /* \"#utility.yul\":18855:18860   */\n      dup2\n        /* \"#utility.yul\":18849:18861   */\n      mload\n        /* \"#utility.yul\":18839:18861   */\n      swap1\n      pop\n        /* \"#utility.yul\":18734:18868   */\n      swap2\n      swap1\n      pop\n      jump\t// out\n        /* \"#utility.yul\":18874:18973   */\n    tag_285:\n        /* \"#utility.yul\":18926:18932   */\n      0x00\n        /* \"#utility.yul\":18960:18965   */\n      dup2\n        /* \"#utility.yul\":18954:18966   */\n      mload\n        /* \"#utility.yul\":18944:18966   */\n      swap1\n      pop\n        /* \"#utility.yul\":18874:18973   */\n      swap2\n      swap1\n      pop\n      jump\t// out\n        /* \"#utility.yul\":18979:19112   */\n    tag_274:\n        /* \"#utility.yul\":19069:19073   */\n      0x00\n        /* \"#utility.yul\":19101:19105   */\n      0x20\n        /* \"#utility.yul\":19096:19099   */\n      dup3\n        /* \"#utility.yul\":19092:19106   */\n      add\n        /* \"#utility.yul\":19084:19106   */\n      swap1\n      pop\n        /* \"#utility.yul\":18979:19112   */\n      swap2\n      swap1\n      pop\n      jump\t// out\n        /* \"#utility.yul\":19118:19322   */\n    tag_266:\n        /* \"#utility.yul\":19237:19248   */\n      0x00\n        /* \"#utility.yul\":19271:19277   */\n      dup3\n        /* \"#utility.yul\":19266:19269   */\n      dup3\n        /* \"#utility.yul\":19259:19278   */\n      mstore\n        /* \"#utility.yul\":19311:19315   */\n      0x20\n        /* \"#utility.yul\":19306:19309   */\n      dup3\n        /* \"#utility.yul\":19302:19316   */\n      add\n        /* \"#utility.yul\":19287:19316   */\n      swap1\n      pop\n        /* \"#utility.yul\":19118:19322   */\n      swap3\n      swap2\n      pop\n      pop\n      jump\t// out\n        /* \"#utility.yul\":19328:19487   */\n    tag_287:\n        /* \"#utility.yul\":19402:19413   */\n      0x00\n        /* \"#utility.yul\":19436:19442   */\n      dup3\n        /* \"#utility.yul\":19431:19434   */\n      dup3\n        /* \"#utility.yul\":19424:19443   */\n      mstore\n        /* \"#utility.yul\":19476:19480   */\n      0x20\n        /* \"#utility.yul\":19471:19474   */\n      dup3\n        /* \"#utility.yul\":19467:19481   */\n      add\n        /* \"#utility.yul\":19452:19481   */\n      swap1\n      pop\n        /* \"#utility.yul\":19328:19487   */\n      swap3\n      swap2\n      pop\n      pop\n      jump\t// out\n        /* \"#utility.yul\":19493:19662   */\n    tag_296:\n        /* \"#utility.yul\":19577:19588   */\n      0x00\n        /* \"#utility.yul\":19611:19617   */\n      dup3\n        /* \"#utility.yul\":19606:19609   */\n      dup3\n        /* \"#utility.yul\":19599:19618   */\n      mstore\n        /* \"#utility.yul\":19651:19655   */\n      0x20\n        /* \"#utility.yul\":19646:19649   */\n      dup3\n        /* \"#utility.yul\":19642:19656   */\n      add\n        /* \"#utility.yul\":19627:19656   */\n      swap1\n      pop\n        /* \"#utility.yul\":19493:19662   */\n      swap3\n      swap2\n      pop\n      pop\n      jump\t// out\n        /* \"#utility.yul\":19668:19973   */\n    tag_123:\n        /* \"#utility.yul\":19708:19711   */\n      0x00\n        /* \"#utility.yul\":19727:19747   */\n      tag_430\n        /* \"#utility.yul\":19745:19746   */\n      dup3\n        /* \"#utility.yul\":19727:19747   */\n      tag_360\n      jump\t// in\n    tag_430:\n        /* \"#utility.yul\":19722:19747   */\n      swap2\n      pop\n        /* \"#utility.yul\":19761:19781   */\n      tag_431\n        /* \"#utility.yul\":19779:19780   */\n      dup4\n        /* \"#utility.yul\":19761:19781   */\n      tag_360\n      jump\t// in\n    tag_431:\n        /* \"#utility.yul\":19756:19781   */\n      swap3\n      pop\n        /* \"#utility.yul\":19915:19916   */\n      dup3\n        /* \"#utility.yul\":19847:19913   */\n      0xffffffffffffffffffffffffffffffffffffffffffffffffffffffffffffffff\n        /* \"#utility.yul\":19843:19917   */\n      sub\n        /* \"#utility.yul\":19840:19841   */\n      dup3\n        /* \"#utility.yul\":19837:19918   */\n      gt\n        /* \"#utility.yul\":19834:19941   */\n      iszero\n      tag_432\n      jumpi\n        /* \"#utility.yul\":19921:19939   */\n      tag_433\n      tag_434\n      jump\t// in\n    tag_433:\n        /* \"#utility.yul\":19834:19941   */\n    tag_432:\n        /* \"#utility.yul\":19965:19966   */\n      dup3\n        /* \"#utility.yul\":19962:19963   */\n      dup3\n        /* \"#utility.yul\":19958:19967   */\n      add\n        /* \"#utility.yul\":19951:19967   */\n      swap1\n      pop\n        /* \"#utility.yul\":19668:19973   */\n      swap3\n      swap2\n      pop\n      pop\n      jump\t// out\n        /* \"#utility.yul\":19979:20164   */\n    tag_169:\n        /* \"#utility.yul\":20019:20020   */\n      0x00\n        /* \"#utility.yul\":20036:20056   */\n      tag_436\n        /* \"#utility.yul\":20054:20055   */\n      dup3\n        /* \"#utility.yul\":20036:20056   */\n      tag_360\n      jump\t// in\n    tag_436:\n        /* \"#utility.yul\":20031:20056   */\n      swap2\n      pop\n        /* \"#utility.yul\":20070:20090   */\n      tag_437\n        /* \"#utility.yul\":20088:20089   */\n      dup4\n        /* \"#utility.yul\":20070:20090   */\n      tag_360\n      jump\t// in\n    tag_437:\n        /* \"#utility.yul\":20065:20090   */\n      swap3\n      pop\n        /* \"#utility.yul\":20109:20110   */\n      dup3\n        /* \"#utility.yul\":20099:20134   */\n      tag_438\n      jumpi\n        /* \"#utility.yul\":20114:20132   */\n      tag_439\n      tag_440\n      jump\t// in\n    tag_439:\n        /* \"#utility.yul\":20099:20134   */\n    tag_438:\n        /* \"#utility.yul\":20156:20157   */\n      dup3\n        /* \"#utility.yul\":20153:20154   */\n      dup3\n        /* \"#utility.yul\":20149:20158   */\n      div\n        /* \"#utility.yul\":20144:20158   */\n      swap1\n      pop\n        /* \"#utility.yul\":19979:20164   */\n      swap3\n      swap2\n      pop\n      pop\n      jump\t// out\n        /* \"#utility.yul\":20170:20518   */\n    tag_171:\n        /* \"#utility.yul\":20210:20217   */\n      0x00\n        /* \"#utility.yul\":20233:20253   */\n      tag_442\n        /* \"#utility.yul\":20251:20252   */\n      dup3\n        /* \"#utility.yul\":20233:20253   */\n      tag_360\n      jump\t// in\n    tag_442:\n        /* \"#utility.yul\":20228:20253   */\n      swap2\n      pop\n        /* \"#utility.yul\":20267:20287   */\n      tag_443\n        /* \"#utility.yul\":20285:20286   */\n      dup4\n        /* \"#utility.yul\":20267:20287   */\n      tag_360\n      jump\t// in\n    tag_443:\n        /* \"#utility.yul\":20262:20287   */\n      swap3\n      pop\n        /* \"#utility.yul\":20455:20456   */\n      dup2\n        /* \"#utility.yul\":20387:20453   */\n      0xffffffffffffffffffffffffffffffffffffffffffffffffffffffffffffffff\n        /* \"#utility.yul\":20383:20457   */\n      div\n        /* \"#utility.yul\":20380:20381   */\n      dup4\n        /* \"#utility.yul\":20377:20458   */\n      gt\n        /* \"#utility.yul\":20372:20373   */\n      dup3\n        /* \"#utility.yul\":20365:20374   */\n      iszero\n        /* \"#utility.yul\":20358:20375   */\n      iszero\n        /* \"#utility.yul\":20354:20459   */\n      and\n        /* \"#utility.yul\":20351:20482   */\n      iszero\n      tag_444\n      jumpi\n        /* \"#utility.yul\":20462:20480   */\n      tag_445\n      tag_434\n      jump\t// in\n    tag_445:\n        /* \"#utility.yul\":20351:20482   */\n    tag_444:\n        /* \"#utility.yul\":20510:20511   */\n      dup3\n        /* \"#utility.yul\":20507:20508   */\n      dup3\n        /* \"#utility.yul\":20503:20512   */\n      mul\n        /* \"#utility.yul\":20492:20512   */\n      swap1\n      pop\n        /* \"#utility.yul\":20170:20518   */\n      swap3\n      swap2\n      pop\n      pop\n      jump\t// out\n        /* \"#utility.yul\":20524:20620   */\n    tag_257:\n        /* \"#utility.yul\":20561:20568   */\n      0x00\n        /* \"#utility.yul\":20590:20614   */\n      tag_447\n        /* \"#utility.yul\":20608:20613   */\n      dup3\n        /* \"#utility.yul\":20590:20614   */\n      tag_448\n      jump\t// in\n    tag_447:\n        /* \"#utility.yul\":20579:20614   */\n      swap1\n      pop\n        /* \"#utility.yul\":20524:20620   */\n      swap2\n      swap1\n      pop\n      jump\t// out\n        /* \"#utility.yul\":20626:20716   */\n    tag_278:\n        /* \"#utility.yul\":20660:20667   */\n      0x00\n        /* \"#utility.yul\":20703:20708   */\n      dup2\n        /* \"#utility.yul\":20696:20709   */\n      iszero\n        /* \"#utility.yul\":20689:20710   */\n      iszero\n        /* \"#utility.yul\":20678:20710   */\n      swap1\n      pop\n        /* \"#utility.yul\":20626:20716   */\n      swap2\n      swap1\n      pop\n      jump\t// out\n        /* \"#utility.yul\":20722:20848   */\n    tag_448:\n        /* \"#utility.yul\":20759:20766   */\n      0x00\n        /* \"#utility.yul\":20799:20841   */\n      0xffffffffffffffffffffffffffffffffffffffff\n        /* \"#utility.yul\":20792:20797   */\n      dup3\n        /* \"#utility.yul\":20788:20842   */\n      and\n        /* \"#utility.yul\":20777:20842   */\n      swap1\n      pop\n        /* \"#utility.yul\":20722:20848   */\n      swap2\n      swap1\n      pop\n      jump\t// out\n        /* \"#utility.yul\":20854:20931   */\n    tag_360:\n        /* \"#utility.yul\":20891:20898   */\n      0x00\n        /* \"#utility.yul\":20920:20925   */\n      dup2\n        /* \"#utility.yul\":20909:20925   */\n      swap1\n      pop\n        /* \"#utility.yul\":20854:20931   */\n      swap2\n      swap1\n      pop\n      jump\t// out\n        /* \"#utility.yul\":20937:21023   */\n    tag_452:\n        /* \"#utility.yul\":20972:20979   */\n      0x00\n        /* \"#utility.yul\":21012:21016   */\n      0xff\n        /* \"#utility.yul\":21005:21010   */\n      dup3\n        /* \"#utility.yul\":21001:21017   */\n      and\n        /* \"#utility.yul\":20990:21017   */\n      swap1\n      pop\n        /* \"#utility.yul\":20937:21023   */\n      swap2\n      swap1\n      pop\n      jump\t// out\n        /* \"#utility.yul\":21029:21183   */\n    tag_219:\n        /* \"#utility.yul\":21113:21119   */\n      dup3\n        /* \"#utility.yul\":21108:21111   */\n      dup2\n        /* \"#utility.yul\":21103:21106   */\n      dup4\n        /* \"#utility.yul\":21090:21120   */\n      calldatacopy\n        /* \"#utility.yul\":21175:21176   */\n      0x00\n        /* \"#utility.yul\":21166:21172   */\n      dup4\n        /* \"#utility.yul\":21161:21164   */\n      dup4\n        /* \"#utility.yul\":21157:21173   */\n      add\n        /* \"#utility.yul\":21150:21177   */\n      mstore\n        /* \"#utility.yul\":21029:21183   */\n      pop\n      pop\n      pop\n      jump\t// out\n        /* \"#utility.yul\":21189:21496   */\n    tag_289:\n        /* \"#utility.yul\":21257:21258   */\n      0x00\n        /* \"#utility.yul\":21267:21380   */\n    tag_456:\n        /* \"#utility.yul\":21281:21287   */\n      dup4\n        /* \"#utility.yul\":21278:21279   */\n      dup2\n        /* \"#utility.yul\":21275:21288   */\n      lt\n        /* \"#utility.yul\":21267:21380   */\n      iszero\n      tag_458\n      jumpi\n        /* \"#utility.yul\":21366:21367   */\n      dup1\n        /* \"#utility.yul\":21361:21364   */\n      dup3\n        /* \"#utility.yul\":21357:21368   */\n      add\n        /* \"#utility.yul\":21351:21369   */\n      mload\n        /* \"#utility.yul\":21347:21348   */\n      dup2\n        /* \"#utility.yul\":21342:21345   */\n      dup5\n        /* \"#utility.yul\":21338:21349   */\n      add\n        /* \"#utility.yul\":21331:21370   */\n      mstore\n        /* \"#utility.yul\":21303:21305   */\n      0x20\n        /* \"#utility.yul\":21300:21301   */\n      dup2\n        /* \"#utility.yul\":21296:21306   */\n      add\n        /* \"#utility.yul\":21291:21306   */\n      swap1\n      pop\n        /* \"#utility.yul\":21267:21380   */\n      jump(tag_456)\n    tag_458:\n        /* \"#utility.yul\":21398:21404   */\n      dup4\n        /* \"#utility.yul\":21395:21396   */\n      dup2\n        /* \"#utility.yul\":21392:21405   */\n      gt\n        /* \"#utility.yul\":21389:21490   */\n      iszero\n      tag_459\n      jumpi\n        /* \"#utility.yul\":21478:21479   */\n      0x00\n        /* \"#utility.yul\":21469:21475   */\n      dup5\n        /* \"#utility.yul\":21464:21467   */\n      dup5\n        /* \"#utility.yul\":21460:21476   */\n      add\n        /* \"#utility.yul\":21453:21480   */\n      mstore\n        /* \"#utility.yul\":21389:21490   */\n    tag_459:\n        /* \"#utility.yul\":21238:21496   */\n      pop\n        /* \"#utility.yul\":21189:21496   */\n      pop\n      pop\n      pop\n      jump\t// out\n        /* \"#utility.yul\":21502:21822   */\n    tag_106:\n        /* \"#utility.yul\":21546:21552   */\n      0x00\n        /* \"#utility.yul\":21583:21584   */\n      0x02\n        /* \"#utility.yul\":21577:21581   */\n      dup3\n        /* \"#utility.yul\":21573:21585   */\n      div\n        /* \"#utility.yul\":21563:21585   */\n      swap1\n      pop\n        /* \"#utility.yul\":21630:21631   */\n      0x01\n        /* \"#utility.yul\":21624:21628   */\n      dup3\n        /* \"#utility.yul\":21620:21632   */\n      and\n        /* \"#utility.yul\":21651:21669   */\n      dup1\n        /* \"#utility.yul\":21641:21722   */\n      tag_461\n      jumpi\n        /* \"#utility.yul\":21707:21711   */\n      0x7f\n        /* \"#utility.yul\":21699:21705   */\n      dup3\n        /* \"#utility.yul\":21695:21712   */\n      and\n        /* \"#utility.yul\":21685:21712   */\n      swap2\n      pop\n        /* \"#utility.yul\":21641:21722   */\n    tag_461:\n        /* \"#utility.yul\":21769:21771   */\n      0x20\n        /* \"#utility.yul\":21761:21767   */\n      dup3\n        /* \"#utility.yul\":21758:21772   */\n      lt\n        /* \"#utility.yul\":21738:21756   */\n      dup2\n        /* \"#utility.yul\":21735:21773   */\n      eq\n        /* \"#utility.yul\":21732:21816   */\n      iszero\n      tag_462\n      jumpi\n        /* \"#utility.yul\":21788:21806   */\n      tag_463\n      tag_464\n      jump\t// in\n    tag_463:\n        /* \"#utility.yul\":21732:21816   */\n    tag_462:\n        /* \"#utility.yul\":21553:21822   */\n      pop\n        /* \"#utility.yul\":21502:21822   */\n      swap2\n      swap1\n      pop\n      jump\t// out\n        /* \"#utility.yul\":21828:22109   */\n    tag_415:\n        /* \"#utility.yul\":21911:21938   */\n      tag_466\n        /* \"#utility.yul\":21933:21937   */\n      dup3\n        /* \"#utility.yul\":21911:21938   */\n      tag_291\n      jump\t// in\n    tag_466:\n        /* \"#utility.yul\":21903:21909   */\n      dup2\n        /* \"#utility.yul\":21899:21939   */\n      add\n        /* \"#utility.yul\":22041:22047   */\n      dup2\n        /* \"#utility.yul\":22029:22039   */\n      dup2\n        /* \"#utility.yul\":22026:22048   */\n      lt\n        /* \"#utility.yul\":22005:22023   */\n      0xffffffffffffffff\n        /* \"#utility.yul\":21993:22003   */\n      dup3\n        /* \"#utility.yul\":21990:22024   */\n      gt\n        /* \"#utility.yul\":21987:22049   */\n      or\n        /* \"#utility.yul\":21984:22072   */\n      iszero\n      tag_467\n      jumpi\n        /* \"#utility.yul\":22052:22070   */\n      tag_468\n      tag_420\n      jump\t// in\n    tag_468:\n        /* \"#utility.yul\":21984:22072   */\n    tag_467:\n        /* \"#utility.yul\":22092:22102   */\n      dup1\n        /* \"#utility.yul\":22088:22090   */\n      0x40\n        /* \"#utility.yul\":22081:22103   */\n      mstore\n        /* \"#utility.yul\":21871:22109   */\n      pop\n        /* \"#utility.yul\":21828:22109   */\n      pop\n      pop\n      jump\t// out\n        /* \"#utility.yul\":22115:22282   */\n    tag_188:\n        /* \"#utility.yul\":22152:22155   */\n      0x00\n        /* \"#utility.yul\":22175:22197   */\n      tag_470\n        /* \"#utility.yul\":22191:22196   */\n      dup3\n        /* \"#utility.yul\":22175:22197   */\n      tag_452\n      jump\t// in\n    tag_470:\n        /* \"#utility.yul\":22166:22197   */\n      swap2\n      pop\n        /* \"#utility.yul\":22219:22223   */\n      0xff\n        /* \"#utility.yul\":22212:22217   */\n      dup3\n        /* \"#utility.yul\":22209:22224   */\n      eq\n        /* \"#utility.yul\":22206:22247   */\n      iszero\n      tag_471\n      jumpi\n        /* \"#utility.yul\":22227:22245   */\n      tag_472\n      tag_434\n      jump\t// in\n    tag_472:\n        /* \"#utility.yul\":22206:22247   */\n    tag_471:\n        /* \"#utility.yul\":22274:22275   */\n      0x01\n        /* \"#utility.yul\":22267:22272   */\n      dup3\n        /* \"#utility.yul\":22263:22276   */\n      add\n        /* \"#utility.yul\":22256:22276   */\n      swap1\n      pop\n        /* \"#utility.yul\":22115:22282   */\n      swap2\n      swap1\n      pop\n      jump\t// out\n        /* \"#utility.yul\":22288:22468   */\n    tag_434:\n        /* \"#utility.yul\":22336:22413   */\n      0x4e487b7100000000000000000000000000000000000000000000000000000000\n        /* \"#utility.yul\":22333:22334   */\n      0x00\n        /* \"#utility.yul\":22326:22414   */\n      mstore\n        /* \"#utility.yul\":22433:22437   */\n      0x11\n        /* \"#utility.yul\":22430:22431   */\n      0x04\n        /* \"#utility.yul\":22423:22438   */\n      mstore\n        /* \"#utility.yul\":22457:22461   */\n      0x24\n        /* \"#utility.yul\":22454:22455   */\n      0x00\n        /* \"#utility.yul\":22447:22462   */\n      revert\n        /* \"#utility.yul\":22474:22654   */\n    tag_440:\n        /* \"#utility.yul\":22522:22599   */\n      0x4e487b7100000000000000000000000000000000000000000000000000000000\n        /* \"#utility.yul\":22519:22520   */\n      0x00\n        /* \"#utility.yul\":22512:22600   */\n      mstore\n        /* \"#utility.yul\":22619:22623   */\n      0x12\n        /* \"#utility.yul\":22616:22617   */\n      0x04\n        /* \"#utility.yul\":22609:22624   */\n      mstore\n        /* \"#utility.yul\":22643:22647   */\n      0x24\n        /* \"#utility.yul\":22640:22641   */\n      0x00\n        /* \"#utility.yul\":22633:22648   */\n      revert\n        /* \"#utility.yul\":22660:22840   */\n    tag_464:\n        /* \"#utility.yul\":22708:22785   */\n      0x4e487b7100000000000000000000000000000000000000000000000000000000\n        /* \"#utility.yul\":22705:22706   */\n      0x00\n        /* \"#utility.yul\":22698:22786   */\n      mstore\n        /* \"#utility.yul\":22805:22809   */\n      0x22\n        /* \"#utility.yul\":22802:22803   */\n      0x04\n        /* \"#utility.yul\":22795:22810   */\n      mstore\n        /* \"#utility.yul\":22829:22833   */\n      0x24\n        /* \"#utility.yul\":22826:22827   */\n      0x00\n        /* \"#utility.yul\":22819:22834   */\n      revert\n        /* \"#utility.yul\":22846:23026   */\n    tag_180:\n        /* \"#utility.yul\":22894:22971   */\n      0x4e487b7100000000000000000000000000000000000000000000000000000000\n        /* \"#utility.yul\":22891:22892   */\n      0x00\n        /* \"#utility.yul\":22884:22972   */\n      mstore\n        /* \"#utility.yul\":22991:22995   */\n      0x32\n        /* \"#utility.yul\":22988:22989   */\n      0x04\n        /* \"#utility.yul\":22981:22996   */\n      mstore\n        /* \"#utility.yul\":23015:23019   */\n      0x24\n        /* \"#utility.yul\":23012:23013   */\n      0x00\n        /* \"#utility.yul\":23005:23020   */\n      revert\n        /* \"#utility.yul\":23032:23212   */\n    tag_420:\n        /* \"#utility.yul\":23080:23157   */\n      0x4e487b7100000000000000000000000000000000000000000000000000000000\n        /* \"#utility.yul\":23077:23078   */\n      0x00\n        /* \"#utility.yul\":23070:23158   */\n      mstore\n        /* \"#utility.yul\":23177:23181   */\n      0x41\n        /* \"#utility.yul\":23174:23175   */\n      0x04\n        /* \"#utility.yul\":23167:23182   */\n      mstore\n        /* \"#utility.yul\":23201:23205   */\n      0x24\n        /* \"#utility.yul\":23198:23199   */\n      0x00\n        /* \"#utility.yul\":23191:23206   */\n      revert\n        /* \"#utility.yul\":23218:23335   */\n    tag_228:\n        /* \"#utility.yul\":23327:23328   */\n      0x00\n        /* \"#utility.yul\":23324:23325   */\n      dup1\n        /* \"#utility.yul\":23317:23329   */\n      revert\n        /* \"#utility.yul\":23341:23458   */\n    tag_217:\n        /* \"#utility.yul\":23450:23451   */\n      0x00\n        /* \"#utility.yul\":23447:23448   */\n      dup1\n        /* \"#utility.yul\":23440:23452   */\n      revert\n        /* \"#utility.yul\":23464:23581   */\n    tag_244:\n        /* \"#utility.yul\":23573:23574   */\n      0x00\n        /* \"#utility.yul\":23570:23571   */\n      dup1\n        /* \"#utility.yul\":23563:23575   */\n      revert\n        /* \"#utility.yul\":23587:23704   */\n    tag_237:\n        /* \"#utility.yul\":23696:23697   */\n      0x00\n        /* \"#utility.yul\":23693:23694   */\n      dup1\n        /* \"#utility.yul\":23686:23698   */\n      revert\n        /* \"#utility.yul\":23710:23812   */\n    tag_291:\n        /* \"#utility.yul\":23751:23757   */\n      0x00\n        /* \"#utility.yul\":23802:23804   */\n      0x1f\n        /* \"#utility.yul\":23798:23805   */\n      not\n        /* \"#utility.yul\":23793:23795   */\n      0x1f\n        /* \"#utility.yul\":23786:23791   */\n      dup4\n        /* \"#utility.yul\":23782:23796   */\n      add\n        /* \"#utility.yul\":23778:23806   */\n      and\n        /* \"#utility.yul\":23768:23806   */\n      swap1\n      pop\n        /* \"#utility.yul\":23710:23812   */\n      swap2\n      swap1\n      pop\n      jump\t// out\n        /* \"#utility.yul\":23818:23999   */\n    tag_303:\n        /* \"#utility.yul\":23958:23991   */\n      0x526563697069656e7420697320616c7265616479207265676973746572656400\n        /* \"#utility.yul\":23954:23955   */\n      0x00\n        /* \"#utility.yul\":23946:23952   */\n      dup3\n        /* \"#utility.yul\":23942:23956   */\n      add\n        /* \"#utility.yul\":23935:23992   */\n      mstore\n        /* \"#utility.yul\":23818:23999   */\n      pop\n      jump\t// out\n        /* \"#utility.yul\":24005:24230   */\n    tag_308:\n        /* \"#utility.yul\":24145:24179   */\n      0x596f75206172656e277420617574686f72697a6520746f20636f6d70696c6520\n        /* \"#utility.yul\":24141:24142   */\n      0x00\n        /* \"#utility.yul\":24133:24139   */\n      dup3\n        /* \"#utility.yul\":24129:24143   */\n      add\n        /* \"#utility.yul\":24122:24180   */\n      mstore\n        /* \"#utility.yul\":24214:24222   */\n      0x42756e646c650000000000000000000000000000000000000000000000000000\n        /* \"#utility.yul\":24209:24211   */\n      0x20\n        /* \"#utility.yul\":24201:24207   */\n      dup3\n        /* \"#utility.yul\":24197:24212   */\n      add\n        /* \"#utility.yul\":24190:24223   */\n      mstore\n        /* \"#utility.yul\":24005:24230   */\n      pop\n      jump\t// out\n        /* \"#utility.yul\":24236:24414   */\n    tag_313:\n        /* \"#utility.yul\":24376:24406   */\n      0x596f7520616c72656164792073656e74206120726573706f6e73652e00000000\n        /* \"#utility.yul\":24372:24373   */\n      0x00\n        /* \"#utility.yul\":24364:24370   */\n      dup3\n        /* \"#utility.yul\":24360:24374   */\n      add\n        /* \"#utility.yul\":24353:24407   */\n      mstore\n        /* \"#utility.yul\":24236:24414   */\n      pop\n      jump\t// out\n        /* \"#utility.yul\":24420:24591   */\n    tag_318:\n        /* \"#utility.yul\":24560:24583   */\n      0x496e69746961746f722063616e277420766f7465210000000000000000000000\n        /* \"#utility.yul\":24556:24557   */\n      0x00\n        /* \"#utility.yul\":24548:24554   */\n      dup3\n        /* \"#utility.yul\":24544:24558   */\n      add\n        /* \"#utility.yul\":24537:24584   */\n      mstore\n        /* \"#utility.yul\":24420:24591   */\n      pop\n      jump\t// out\n        /* \"#utility.yul\":24597:24777   */\n    tag_323:\n        /* \"#utility.yul\":24737:24769   */\n      0x596f7520617265206e6f74207265676973746572656420746f20766f74650000\n        /* \"#utility.yul\":24733:24734   */\n      0x00\n        /* \"#utility.yul\":24725:24731   */\n      dup3\n        /* \"#utility.yul\":24721:24735   */\n      add\n        /* \"#utility.yul\":24714:24770   */\n      mstore\n        /* \"#utility.yul\":24597:24777   */\n      pop\n      jump\t// out\n        /* \"#utility.yul\":24783:25006   */\n    tag_328:\n        /* \"#utility.yul\":24923:24957   */\n      0x50726f706f73616c206861732072656163686564206974732065787069727920\n        /* \"#utility.yul\":24919:24920   */\n      0x00\n        /* \"#utility.yul\":24911:24917   */\n      dup3\n        /* \"#utility.yul\":24907:24921   */\n      add\n        /* \"#utility.yul\":24900:24958   */\n      mstore\n        /* \"#utility.yul\":24992:24998   */\n      0x6461746500000000000000000000000000000000000000000000000000000000\n        /* \"#utility.yul\":24987:24989   */\n      0x20\n        /* \"#utility.yul\":24979:24985   */\n      dup3\n        /* \"#utility.yul\":24975:24990   */\n      add\n        /* \"#utility.yul\":24968:24999   */\n      mstore\n        /* \"#utility.yul\":24783:25006   */\n      pop\n      jump\t// out\n        /* \"#utility.yul\":25012:25239   */\n    tag_333:\n        /* \"#utility.yul\":25152:25186   */\n      0x4f6e6c7920696e69746961746f722063616e2072656769737465722061207265\n        /* \"#utility.yul\":25148:25149   */\n      0x00\n        /* \"#utility.yul\":25140:25146   */\n      dup3\n        /* \"#utility.yul\":25136:25150   */\n      add\n        /* \"#utility.yul\":25129:25187   */\n      mstore\n        /* \"#utility.yul\":25221:25231   */\n      0x63697069656e742e000000000000000000000000000000000000000000000000\n        /* \"#utility.yul\":25216:25218   */\n      0x20\n        /* \"#utility.yul\":25208:25214   */\n      dup3\n        /* \"#utility.yul\":25204:25219   */\n      add\n        /* \"#utility.yul\":25197:25232   */\n      mstore\n        /* \"#utility.yul\":25012:25239   */\n      pop\n      jump\t// out\n        /* \"#utility.yul\":25245:25427   */\n    tag_338:\n        /* \"#utility.yul\":25385:25419   */\n      0x5665726469637420686173206e6f74206265656e207265616368656420796574\n        /* \"#utility.yul\":25381:25382   */\n      0x00\n        /* \"#utility.yul\":25373:25379   */\n      dup3\n        /* \"#utility.yul\":25369:25383   */\n      add\n        /* \"#utility.yul\":25362:25420   */\n      mstore\n        /* \"#utility.yul\":25245:25427   */\n      pop\n      jump\t// out\n        /* \"#utility.yul\":25433:25601   */\n    tag_343:\n        /* \"#utility.yul\":25573:25593   */\n      0x566f74696e672068617320657870697265640000000000000000000000000000\n        /* \"#utility.yul\":25569:25570   */\n      0x00\n        /* \"#utility.yul\":25561:25567   */\n      dup3\n        /* \"#utility.yul\":25557:25571   */\n      add\n        /* \"#utility.yul\":25550:25594   */\n      mstore\n        /* \"#utility.yul\":25433:25601   */\n      pop\n      jump\t// out\n        /* \"#utility.yul\":25607:25831   */\n    tag_348:\n        /* \"#utility.yul\":25747:25781   */\n      0x436f6e73656e7375732068617320616c7265616479206265656e2063616c6375\n        /* \"#utility.yul\":25743:25744   */\n      0x00\n        /* \"#utility.yul\":25735:25741   */\n      dup3\n        /* \"#utility.yul\":25731:25745   */\n      add\n        /* \"#utility.yul\":25724:25782   */\n      mstore\n        /* \"#utility.yul\":25816:25823   */\n      0x6c61746564000000000000000000000000000000000000000000000000000000\n        /* \"#utility.yul\":25811:25813   */\n      0x20\n        /* \"#utility.yul\":25803:25809   */\n      dup3\n        /* \"#utility.yul\":25799:25814   */\n      add\n        /* \"#utility.yul\":25792:25824   */\n      mstore\n        /* \"#utility.yul\":25607:25831   */\n      pop\n      jump\t// out\n        /* \"#utility.yul\":25837:25959   */\n    tag_223:\n        /* \"#utility.yul\":25910:25934   */\n      tag_494\n        /* \"#utility.yul\":25928:25933   */\n      dup2\n        /* \"#utility.yul\":25910:25934   */\n      tag_257\n      jump\t// in\n    tag_494:\n        /* \"#utility.yul\":25903:25908   */\n      dup2\n        /* \"#utility.yul\":25900:25935   */\n      eq\n        /* \"#utility.yul\":25890:25953   */\n      tag_495\n      jumpi\n        /* \"#utility.yul\":25949:25950   */\n      0x00\n        /* \"#utility.yul\":25946:25947   */\n      dup1\n        /* \"#utility.yul\":25939:25951   */\n      revert\n        /* \"#utility.yul\":25890:25953   */\n    tag_495:\n        /* \"#utility.yul\":25837:25959   */\n      pop\n      jump\t// out\n        /* \"#utility.yul\":25965:26087   */\n    tag_233:\n        /* \"#utility.yul\":26038:26062   */\n      tag_497\n        /* \"#utility.yul\":26056:26061   */\n      dup2\n        /* \"#utility.yul\":26038:26062   */\n      tag_360\n      jump\t// in\n    tag_497:\n        /* \"#utility.yul\":26031:26036   */\n      dup2\n        /* \"#utility.yul\":26028:26063   */\n      eq\n        /* \"#utility.yul\":26018:26081   */\n      tag_498\n      jumpi\n        /* \"#utility.yul\":26077:26078   */\n      0x00\n        /* \"#utility.yul\":26074:26075   */\n      dup1\n        /* \"#utility.yul\":26067:26079   */\n      revert\n        /* \"#utility.yul\":26018:26081   */\n    tag_498:\n        /* \"#utility.yul\":25965:26087   */\n      pop\n      jump\t// out\n\n    auxdata: 0xa264697066735822122002270c0df47b5042c8bdc4ce1f652e03dad526ed5590e02b95f6ba22b991e83164736f6c63430008070033\n}\n",
				"bytecode": {
					"linkReferences": {},
					"object": "60806040523480156200001157600080fd5b5060405162002dfa38038062002dfa8339818101604052810190620000379190620002cb565b33600360006101000a81548173ffffffffffffffffffffffffffffffffffffffff021916908373ffffffffffffffffffffffffffffffffffffffff1602179055508142620000869190620003a5565b600181905550806004819055506000600581905550600060068190555060006007819055506040518060400160405280600881526020017f52656a656374656400000000000000000000000000000000000000000000000081525060029080519060200190620000f892919062000186565b50306000806101000a81548173ffffffffffffffffffffffffffffffffffffffff021916908373ffffffffffffffffffffffffffffffffffffffff16021790555060405180604001604052806000815260200184815250600b6000820151816000015560208201518160010190805190602001906200017992919062000186565b509050505050506200057a565b828054620001949062000442565b90600052602060002090601f016020900481019282620001b8576000855562000204565b82601f10620001d357805160ff191683800117855562000204565b8280016001018555821562000204579182015b8281111562000203578251825591602001919060010190620001e6565b5b50905062000213919062000217565b5090565b5b808211156200023257600081600090555060010162000218565b5090565b60006200024d62000247846200036f565b62000346565b9050828152602081018484840111156200026c576200026b62000540565b5b620002798482856200040c565b509392505050565b600082601f8301126200029957620002986200053b565b5b8151620002ab84826020860162000236565b91505092915050565b600081519050620002c58162000560565b92915050565b600080600060608486031215620002e757620002e66200054a565b5b600084015167ffffffffffffffff81111562000308576200030762000545565b5b620003168682870162000281565b93505060206200032986828701620002b4565b92505060406200033c86828701620002b4565b9150509250925092565b60006200035262000365565b905062000360828262000478565b919050565b6000604051905090565b600067ffffffffffffffff8211156200038d576200038c6200050c565b5b62000398826200054f565b9050602081019050919050565b6000620003b28262000402565b9150620003bf8362000402565b9250827fffffffffffffffffffffffffffffffffffffffffffffffffffffffffffffffff03821115620003f757620003f6620004ae565b5b828201905092915050565b6000819050919050565b60005b838110156200042c5780820151818401526020810190506200040f565b838111156200043c576000848401525b50505050565b600060028204905060018216806200045b57607f821691505b60208210811415620004725762000471620004dd565b5b50919050565b62000483826200054f565b810181811067ffffffffffffffff82111715620004a557620004a46200050c565b5b80604052505050565b7f4e487b7100000000000000000000000000000000000000000000000000000000600052601160045260246000fd5b7f4e487b7100000000000000000000000000000000000000000000000000000000600052602260045260246000fd5b7f4e487b7100000000000000000000000000000000000000000000000000000000600052604160045260246000fd5b600080fd5b600080fd5b600080fd5b600080fd5b6000601f19601f8301169050919050565b6200056b8162000402565b81146200057757600080fd5b50565b612870806200058a6000396000f3fe608060405234801561001057600080fd5b506004361061010b5760003560e01c8063753ec103116100a2578063a5ea11da11610071578063a5ea11da1461029d578063b9a29250146102bf578063d77aa749146102dd578063da58c7d9146102fb578063f6b4dfb41461032d5761010b565b8063753ec10314610222578063823167451461024157806395b02dfa146102615780639aa4bbdd1461026b5761010b565b80635361a0ea116100de5780635361a0ea146101965780635c39fcc1146101c8578063604c8333146101e65780637403c5e5146102045761010b565b80630cb6aaf11461011057806315fe6f1b1461014057806319eb4a901461015c578063323082d71461017a575b600080fd5b61012a60048036038101906101259190611be1565b61034b565b6040516101379190611f2d565b60405180910390f35b61015a60048036038101906101559190611b6b565b61038a565b005b61016461072c565b6040516101719190611fb6565b60405180910390f35b610194600480360381019061018f9190611b98565b6107c1565b005b6101b060048036038101906101ab9190611b6b565b610f64565b6040516101bf93929190611f7f565b60405180910390f35b6101d0611079565b6040516101dd9190611f2d565b60405180910390f35b6101ee61109f565b6040516101fb91906121be565b60405180910390f35b61020c6110a5565b60405161021991906121be565b60405180910390f35b61022a6110ab565b6040516102389291906121d9565b60405180910390f35b610249611145565b60405161025893929190611fd8565b60405180910390f35b6102696113be565b005b61028560048036038101906102809190611b6b565b61183a565b60405161029493929190611f48565b60405180910390f35b6102a561189e565b6040516102b6959493929190612024565b60405180910390f35b6102c7611974565b6040516102d491906121be565b60405180910390f35b6102e561197a565b6040516102f291906121be565b60405180910390f35b61031560048036038101906103109190611be1565b611980565b60405161032493929190611f48565b60405180910390f35b6103356119f0565b6040516103429190611f2d565b60405180910390f35b6009818154811061035b57600080fd5b906000526020600020016000915054906101000a900473ffffffffffffffffffffffffffffffffffffffff1681565b600360009054906101000a900473ffffffffffffffffffffffffffffffffffffffff1673ffffffffffffffffffffffffffffffffffffffff163373ffffffffffffffffffffffffffffffffffffffff161461041a576040517f08c379a00000000000000000000000000000000000000000000000000000000081526004016104119061213e565b60405180910390fd5b600360009054906101000a900473ffffffffffffffffffffffffffffffffffffffff1673ffffffffffffffffffffffffffffffffffffffff168173ffffffffffffffffffffffffffffffffffffffff1614156104ab576040517f08c379a00000000000000000000000000000000000000000000000000000000081526004016104a2906120de565b60405180910390fd5b600073ffffffffffffffffffffffffffffffffffffffff16600a60008373ffffffffffffffffffffffffffffffffffffffff1673ffffffffffffffffffffffffffffffffffffffff16815260200190815260200160002060000160019054906101000a900473ffffffffffffffffffffffffffffffffffffffff1673ffffffffffffffffffffffffffffffffffffffff161461057c576040517f08c379a00000000000000000000000000000000000000000000000000000000081526004016105739061207e565b60405180910390fd5b60015442106105c0576040517f08c379a00000000000000000000000000000000000000000000000000000000081526004016105b79061211e565b60405180910390fd5b600060405180606001604052806000151581526020018373ffffffffffffffffffffffffffffffffffffffff16815260200160001515815250905080600a60008473ffffffffffffffffffffffffffffffffffffffff1673ffffffffffffffffffffffffffffffffffffffff16815260200190815260200160002060008201518160000160006101000a81548160ff02191690831515021790555060208201518160000160016101000a81548173ffffffffffffffffffffffffffffffffffffffff021916908373ffffffffffffffffffffffffffffffffffffffff16021790555060408201518160000160156101000a81548160ff0219169083151502179055509050506009829080600181540180825580915050600190039060005260206000200160009091909190916101000a81548173ffffffffffffffffffffffffffffffffffffffff021916908373ffffffffffffffffffffffffffffffffffffffff1602179055505050565b6060600b600101805461073e9061243d565b80601f016020809104026020016040519081016040528092919081815260200182805461076a9061243d565b80156107b75780601f1061078c576101008083540402835291602001916107b7565b820191906000526020600020905b81548152906001019060200180831161079a57829003601f168201915b5050505050905090565b6001544210610805576040517f08c379a00000000000000000000000000000000000000000000000000000000081526004016107fc9061217e565b60405180910390fd5b600073ffffffffffffffffffffffffffffffffffffffff16600a60003373ffffffffffffffffffffffffffffffffffffffff1673ffffffffffffffffffffffffffffffffffffffff16815260200190815260200160002060000160019054906101000a900473ffffffffffffffffffffffffffffffffffffffff1673ffffffffffffffffffffffffffffffffffffffff1614156108d7576040517f08c379a00000000000000000000000000000000000000000000000000000000081526004016108ce906120fe565b60405180910390fd5b600a60003373ffffffffffffffffffffffffffffffffffffffff1673ffffffffffffffffffffffffffffffffffffffff16815260200190815260200160002060000160009054906101000a900460ff1615610967576040517f08c379a000000000000000000000000000000000000000000000000000000000815260040161095e906120be565b60405180910390fd5b6040518060400160405280600981526020017f6920617070726f766500000000000000000000000000000000000000000000008152508051906020012081805190602001201415610bcd576001600a60003373ffffffffffffffffffffffffffffffffffffffff1673ffffffffffffffffffffffffffffffffffffffff16815260200190815260200160002060000160006101000a81548160ff0219169083151502179055506001600a60003373ffffffffffffffffffffffffffffffffffffffff1673ffffffffffffffffffffffffffffffffffffffff16815260200190815260200160002060000160156101000a81548160ff021916908315150217905550600160066000828254610a7b91906122c5565b925050819055506001600b6000016000828254610a9891906122c5565b925050819055506008600a60003373ffffffffffffffffffffffffffffffffffffffff1673ffffffffffffffffffffffffffffffffffffffff168152602001908152602001600020908060018154018082558091505060019003906000526020600020016000909190919091506000820160009054906101000a900460ff168160000160006101000a81548160ff0219169083151502179055506000820160019054906101000a900473ffffffffffffffffffffffffffffffffffffffff168160000160016101000a81548173ffffffffffffffffffffffffffffffffffffffff021916908373ffffffffffffffffffffffffffffffffffffffff1602179055506000820160159054906101000a900460ff168160000160156101000a81548160ff0219169083151502179055505050610f61565b6040518060400160405280600c81526020017f6920646973617070726f766500000000000000000000000000000000000000008152508051906020012081805190602001201415610dbe576001600a60003373ffffffffffffffffffffffffffffffffffffffff1673ffffffffffffffffffffffffffffffffffffffff16815260200190815260200160002060000160006101000a81548160ff0219169083151502179055506001600b6000016000828254610c8991906122c5565b925050819055506008600a60003373ffffffffffffffffffffffffffffffffffffffff1673ffffffffffffffffffffffffffffffffffffffff168152602001908152602001600020908060018154018082558091505060019003906000526020600020016000909190919091506000820160009054906101000a900460ff168160000160006101000a81548160ff0219169083151502179055506000820160019054906101000a900473ffffffffffffffffffffffffffffffffffffffff168160000160016101000a81548173ffffffffffffffffffffffffffffffffffffffff021916908373ffffffffffffffffffffffffffffffffffffffff1602179055506000820160159054906101000a900460ff168160000160156101000a81548160ff0219169083151502179055505050610f60565b6001600a60003373ffffffffffffffffffffffffffffffffffffffff1673ffffffffffffffffffffffffffffffffffffffff16815260200190815260200160002060000160006101000a81548160ff0219169083151502179055506001600b6000016000828254610e2f91906122c5565b925050819055506008600a60003373ffffffffffffffffffffffffffffffffffffffff1673ffffffffffffffffffffffffffffffffffffffff168152602001908152602001600020908060018154018082558091505060019003906000526020600020016000909190919091506000820160009054906101000a900460ff168160000160006101000a81548160ff0219169083151502179055506000820160019054906101000a900473ffffffffffffffffffffffffffffffffffffffff168160000160016101000a81548173ffffffffffffffffffffffffffffffffffffffff021916908373ffffffffffffffffffffffffffffffffffffffff1602179055506000820160159054906101000a900460ff168160000160156101000a81548160ff02191690831515021790555050505b5b50565b6000806000600a60008573ffffffffffffffffffffffffffffffffffffffff1673ffffffffffffffffffffffffffffffffffffffff16815260200190815260200160002060000160159054906101000a900460ff16600a60008673ffffffffffffffffffffffffffffffffffffffff1673ffffffffffffffffffffffffffffffffffffffff16815260200190815260200160002060000160009054906101000a900460ff16600a60008773ffffffffffffffffffffffffffffffffffffffff1673ffffffffffffffffffffffffffffffffffffffff16815260200190815260200160002060000160019054906101000a900473ffffffffffffffffffffffffffffffffffffffff169250925092509193909250565b600360009054906101000a900473ffffffffffffffffffffffffffffffffffffffff1681565b60055481565b60065481565b600b8060000154908060010180546110c29061243d565b80601f01602080910402602001604051908101604052809291908181526020018280546110ee9061243d565b801561113b5780601f106111105761010080835404028352916020019161113b565b820191906000526020600020905b81548152906001019060200180831161111e57829003601f168201915b5050505050905082565b606061114f611a14565b6060600154421015611196576040517f08c379a000000000000000000000000000000000000000000000000000000000815260040161118d9061215e565b60405180910390fd5b6002600b60088280546111a89061243d565b80601f01602080910402602001604051908101604052809291908181526020018280546111d49061243d565b80156112215780601f106111f657610100808354040283529160200191611221565b820191906000526020600020905b81548152906001019060200180831161120457829003601f168201915b50505050509250816040518060400160405290816000820154815260200160018201805461124e9061243d565b80601f016020809104026020016040519081016040528092919081815260200182805461127a9061243d565b80156112c75780601f1061129c576101008083540402835291602001916112c7565b820191906000526020600020905b8154815290600101906020018083116112aa57829003601f168201915b505050505081525050915080805480602002602001604051908101604052809291908181526020016000905b828210156113ad578382906000526020600020016040518060600160405290816000820160009054906101000a900460ff161515151581526020016000820160019054906101000a900473ffffffffffffffffffffffffffffffffffffffff1673ffffffffffffffffffffffffffffffffffffffff1673ffffffffffffffffffffffffffffffffffffffff1681526020016000820160159054906101000a900460ff161515151581525050815260200190600101906112f3565b505050509050925092509250909192565b600154421015611403576040517f08c379a00000000000000000000000000000000000000000000000000000000081526004016113fa9061215e565b60405180910390fd5b600060075414611448576040517f08c379a000000000000000000000000000000000000000000000000000000000815260040161143f9061219e565b60405180910390fd5b600360009054906101000a900473ffffffffffffffffffffffffffffffffffffffff1673ffffffffffffffffffffffffffffffffffffffff163373ffffffffffffffffffffffffffffffffffffffff1614806115335750600073ffffffffffffffffffffffffffffffffffffffff16600a60003373ffffffffffffffffffffffffffffffffffffffff1673ffffffffffffffffffffffffffffffffffffffff16815260200190815260200160002060000160019054906101000a900473ffffffffffffffffffffffffffffffffffffffff1673ffffffffffffffffffffffffffffffffffffffff1614155b611572576040517f08c379a00000000000000000000000000000000000000000000000000000000081526004016115699061209e565b60405180910390fd5b6064600980549050600654611587919061231b565b611591919061234c565b600581905550600454600554106115ef576040518060400160405280600881526020017f4163636570746564000000000000000000000000000000000000000000000000815250600290805190602001906115ed929190611a2e565b505b60005b6009805490508160ff16101561181d5760001515600a600060098460ff168154811061162157611620612557565b5b9060005260206000200160009054906101000a900473ffffffffffffffffffffffffffffffffffffffff1673ffffffffffffffffffffffffffffffffffffffff1673ffffffffffffffffffffffffffffffffffffffff16815260200190815260200160002060000160009054906101000a900460ff161515141561180a576008600a600060098460ff16815481106116bc576116bb612557565b5b9060005260206000200160009054906101000a900473ffffffffffffffffffffffffffffffffffffffff1673ffffffffffffffffffffffffffffffffffffffff1673ffffffffffffffffffffffffffffffffffffffff168152602001908152602001600020908060018154018082558091505060019003906000526020600020016000909190919091506000820160009054906101000a900460ff168160000160006101000a81548160ff0219169083151502179055506000820160019054906101000a900473ffffffffffffffffffffffffffffffffffffffff168160000160016101000a81548173ffffffffffffffffffffffffffffffffffffffff021916908373ffffffffffffffffffffffffffffffffffffffff1602179055506000820160159054906101000a900460ff168160000160156101000a81548160ff02191690831515021790555050505b8080611815906124a0565b9150506115f2565b5060016007600082825461183191906122c5565b92505081905550565b600a6020528060005260406000206000915090508060000160009054906101000a900460ff16908060000160019054906101000a900473ffffffffffffffffffffffffffffffffffffffff16908060000160159054906101000a900460ff16905083565b6060600080600080600b600101600154600360009054906101000a900473ffffffffffffffffffffffffffffffffffffffff166004546006548480546118e39061243d565b80601f016020809104026020016040519081016040528092919081815260200182805461190f9061243d565b801561195c5780601f106119315761010080835404028352916020019161195c565b820191906000526020600020905b81548152906001019060200180831161193f57829003601f168201915b50505050509450945094509450945094509091929394565b60075481565b60045481565b6008818154811061199057600080fd5b906000526020600020016000915090508060000160009054906101000a900460ff16908060000160019054906101000a900473ffffffffffffffffffffffffffffffffffffffff16908060000160159054906101000a900460ff16905083565b60008054906101000a900473ffffffffffffffffffffffffffffffffffffffff1681565b604051806040016040528060008152602001606081525090565b828054611a3a9061243d565b90600052602060002090601f016020900481019282611a5c5760008555611aa3565b82601f10611a7557805160ff1916838001178555611aa3565b82800160010185558215611aa3579182015b82811115611aa2578251825591602001919060010190611a87565b5b509050611ab09190611ab4565b5090565b5b80821115611acd576000816000905550600101611ab5565b5090565b6000611ae4611adf8461222e565b612209565b905082815260208101848484011115611b0057611aff6125ba565b5b611b0b8482856123fb565b509392505050565b600081359050611b228161280c565b92915050565b600082601f830112611b3d57611b3c6125b5565b5b8135611b4d848260208601611ad1565b91505092915050565b600081359050611b6581612823565b92915050565b600060208284031215611b8157611b806125c4565b5b6000611b8f84828501611b13565b91505092915050565b600060208284031215611bae57611bad6125c4565b5b600082013567ffffffffffffffff811115611bcc57611bcb6125bf565b5b611bd884828501611b28565b91505092915050565b600060208284031215611bf757611bf66125c4565b5b6000611c0584828501611b56565b91505092915050565b6000611c1a8383611ecd565b60608301905092915050565b611c2f816123a6565b82525050565b611c3e816123a6565b82525050565b6000611c4f8261226f565b611c598185612292565b9350611c648361225f565b8060005b83811015611c95578151611c7c8882611c0e565b9750611c8783612285565b925050600181019050611c68565b5085935050505092915050565b611cab816123b8565b82525050565b611cba816123b8565b82525050565b6000611ccb8261227a565b611cd581856122a3565b9350611ce581856020860161240a565b611cee816125c9565b840191505092915050565b6000611d048261227a565b611d0e81856122b4565b9350611d1e81856020860161240a565b611d27816125c9565b840191505092915050565b6000611d3f601f836122b4565b9150611d4a826125da565b602082019050919050565b6000611d626026836122b4565b9150611d6d82612603565b604082019050919050565b6000611d85601c836122b4565b9150611d9082612652565b602082019050919050565b6000611da86015836122b4565b9150611db38261267b565b602082019050919050565b6000611dcb601e836122b4565b9150611dd6826126a4565b602082019050919050565b6000611dee6024836122b4565b9150611df9826126cd565b604082019050919050565b6000611e116028836122b4565b9150611e1c8261271c565b604082019050919050565b6000611e346020836122b4565b9150611e3f8261276b565b602082019050919050565b6000611e576012836122b4565b9150611e6282612794565b602082019050919050565b6000611e7a6025836122b4565b9150611e85826127bd565b604082019050919050565b6000604083016000830151611ea86000860182611f0f565b5060208301518482036020860152611ec08282611cc0565b9150508091505092915050565b606082016000820151611ee36000850182611ca2565b506020820151611ef66020850182611c26565b506040820151611f096040850182611ca2565b50505050565b611f18816123e4565b82525050565b611f27816123e4565b82525050565b6000602082019050611f426000830184611c35565b92915050565b6000606082019050611f5d6000830186611cb1565b611f6a6020830185611c35565b611f776040830184611cb1565b949350505050565b6000606082019050611f946000830186611cb1565b611fa16020830185611cb1565b611fae6040830184611c35565b949350505050565b60006020820190508181036000830152611fd08184611cf9565b905092915050565b60006060820190508181036000830152611ff28186611cf9565b905081810360208301526120068185611e90565b9050818103604083015261201a8184611c44565b9050949350505050565b600060a082019050818103600083015261203e8188611cf9565b905061204d6020830187611f1e565b61205a6040830186611c35565b6120676060830185611f1e565b6120746080830184611f1e565b9695505050505050565b6000602082019050818103600083015261209781611d32565b9050919050565b600060208201905081810360008301526120b781611d55565b9050919050565b600060208201905081810360008301526120d781611d78565b9050919050565b600060208201905081810360008301526120f781611d9b565b9050919050565b6000602082019050818103600083015261211781611dbe565b9050919050565b6000602082019050818103600083015261213781611de1565b9050919050565b6000602082019050818103600083015261215781611e04565b9050919050565b6000602082019050818103600083015261217781611e27565b9050919050565b6000602082019050818103600083015261219781611e4a565b9050919050565b600060208201905081810360008301526121b781611e6d565b9050919050565b60006020820190506121d36000830184611f1e565b92915050565b60006040820190506121ee6000830185611f1e565b81810360208301526122008184611cf9565b90509392505050565b6000612213612224565b905061221f828261246f565b919050565b6000604051905090565b600067ffffffffffffffff82111561224957612248612586565b5b612252826125c9565b9050602081019050919050565b6000819050602082019050919050565b600081519050919050565b600081519050919050565b6000602082019050919050565b600082825260208201905092915050565b600082825260208201905092915050565b600082825260208201905092915050565b60006122d0826123e4565b91506122db836123e4565b9250827fffffffffffffffffffffffffffffffffffffffffffffffffffffffffffffffff038211156123105761230f6124ca565b5b828201905092915050565b6000612326826123e4565b9150612331836123e4565b925082612341576123406124f9565b5b828204905092915050565b6000612357826123e4565b9150612362836123e4565b9250817fffffffffffffffffffffffffffffffffffffffffffffffffffffffffffffffff048311821515161561239b5761239a6124ca565b5b828202905092915050565b60006123b1826123c4565b9050919050565b60008115159050919050565b600073ffffffffffffffffffffffffffffffffffffffff82169050919050565b6000819050919050565b600060ff82169050919050565b82818337600083830152505050565b60005b8381101561242857808201518184015260208101905061240d565b83811115612437576000848401525b50505050565b6000600282049050600182168061245557607f821691505b6020821081141561246957612468612528565b5b50919050565b612478826125c9565b810181811067ffffffffffffffff8211171561249757612496612586565b5b80604052505050565b60006124ab826123ee565b915060ff8214156124bf576124be6124ca565b5b600182019050919050565b7f4e487b7100000000000000000000000000000000000000000000000000000000600052601160045260246000fd5b7f4e487b7100000000000000000000000000000000000000000000000000000000600052601260045260246000fd5b7f4e487b7100000000000000000000000000000000000000000000000000000000600052602260045260246000fd5b7f4e487b7100000000000000000000000000000000000000000000000000000000600052603260045260246000fd5b7f4e487b7100000000000000000000000000000000000000000000000000000000600052604160045260246000fd5b600080fd5b600080fd5b600080fd5b600080fd5b6000601f19601f8301169050919050565b7f526563697069656e7420697320616c7265616479207265676973746572656400600082015250565b7f596f75206172656e277420617574686f72697a6520746f20636f6d70696c652060008201527f42756e646c650000000000000000000000000000000000000000000000000000602082015250565b7f596f7520616c72656164792073656e74206120726573706f6e73652e00000000600082015250565b7f496e69746961746f722063616e277420766f7465210000000000000000000000600082015250565b7f596f7520617265206e6f74207265676973746572656420746f20766f74650000600082015250565b7f50726f706f73616c20686173207265616368656420697473206578706972792060008201527f6461746500000000000000000000000000000000000000000000000000000000602082015250565b7f4f6e6c7920696e69746961746f722063616e207265676973746572206120726560008201527f63697069656e742e000000000000000000000000000000000000000000000000602082015250565b7f5665726469637420686173206e6f74206265656e207265616368656420796574600082015250565b7f566f74696e672068617320657870697265640000000000000000000000000000600082015250565b7f436f6e73656e7375732068617320616c7265616479206265656e2063616c637560008201527f6c61746564000000000000000000000000000000000000000000000000000000602082015250565b612815816123a6565b811461282057600080fd5b50565b61282c816123e4565b811461283757600080fd5b5056fea264697066735822122002270c0df47b5042c8bdc4ce1f652e03dad526ed5590e02b95f6ba22b991e83164736f6c63430008070033",
					"opcodes": "PUSH1 0x80 PUSH1 0x40 MSTORE CALLVALUE DUP1 ISZERO PUSH3 0x11 JUMPI PUSH1 0x0 DUP1 REVERT JUMPDEST POP PUSH1 0x40 MLOAD PUSH3 0x2DFA CODESIZE SUB DUP1 PUSH3 0x2DFA DUP4 CODECOPY DUP2 DUP2 ADD PUSH1 0x40 MSTORE DUP2 ADD SWAP1 PUSH3 0x37 SWAP2 SWAP1 PUSH3 0x2CB JUMP JUMPDEST CALLER PUSH1 0x3 PUSH1 0x0 PUSH2 0x100 EXP DUP2 SLOAD DUP2 PUSH20 0xFFFFFFFFFFFFFFFFFFFFFFFFFFFFFFFFFFFFFFFF MUL NOT AND SWAP1 DUP4 PUSH20 0xFFFFFFFFFFFFFFFFFFFFFFFFFFFFFFFFFFFFFFFF AND MUL OR SWAP1 SSTORE POP DUP2 TIMESTAMP PUSH3 0x86 SWAP2 SWAP1 PUSH3 0x3A5 JUMP JUMPDEST PUSH1 0x1 DUP2 SWAP1 SSTORE POP DUP1 PUSH1 0x4 DUP2 SWAP1 SSTORE POP PUSH1 0x0 PUSH1 0x5 DUP2 SWAP1 SSTORE POP PUSH1 0x0 PUSH1 0x6 DUP2 SWAP1 SSTORE POP PUSH1 0x0 PUSH1 0x7 DUP2 SWAP1 SSTORE POP PUSH1 0x40 MLOAD DUP1 PUSH1 0x40 ADD PUSH1 0x40 MSTORE DUP1 PUSH1 0x8 DUP2 MSTORE PUSH1 0x20 ADD PUSH32 0x52656A6563746564000000000000000000000000000000000000000000000000 DUP2 MSTORE POP PUSH1 0x2 SWAP1 DUP1 MLOAD SWAP1 PUSH1 0x20 ADD SWAP1 PUSH3 0xF8 SWAP3 SWAP2 SWAP1 PUSH3 0x186 JUMP JUMPDEST POP ADDRESS PUSH1 0x0 DUP1 PUSH2 0x100 EXP DUP2 SLOAD DUP2 PUSH20 0xFFFFFFFFFFFFFFFFFFFFFFFFFFFFFFFFFFFFFFFF MUL NOT AND SWAP1 DUP4 PUSH20 0xFFFFFFFFFFFFFFFFFFFFFFFFFFFFFFFFFFFFFFFF AND MUL OR SWAP1 SSTORE POP PUSH1 0x40 MLOAD DUP1 PUSH1 0x40 ADD PUSH1 0x40 MSTORE DUP1 PUSH1 0x0 DUP2 MSTORE PUSH1 0x20 ADD DUP5 DUP2 MSTORE POP PUSH1 0xB PUSH1 0x0 DUP3 ADD MLOAD DUP2 PUSH1 0x0 ADD SSTORE PUSH1 0x20 DUP3 ADD MLOAD DUP2 PUSH1 0x1 ADD SWAP1 DUP1 MLOAD SWAP1 PUSH1 0x20 ADD SWAP1 PUSH3 0x179 SWAP3 SWAP2 SWAP1 PUSH3 0x186 JUMP JUMPDEST POP SWAP1 POP POP POP POP POP PUSH3 0x57A JUMP JUMPDEST DUP3 DUP1 SLOAD PUSH3 0x194 SWAP1 PUSH3 0x442 JUMP JUMPDEST SWAP1 PUSH1 0x0 MSTORE PUSH1 0x20 PUSH1 0x0 KECCAK256 SWAP1 PUSH1 0x1F ADD PUSH1 0x20 SWAP1 DIV DUP2 ADD SWAP3 DUP3 PUSH3 0x1B8 JUMPI PUSH1 0x0 DUP6 SSTORE PUSH3 0x204 JUMP JUMPDEST DUP3 PUSH1 0x1F LT PUSH3 0x1D3 JUMPI DUP1 MLOAD PUSH1 0xFF NOT AND DUP4 DUP1 ADD OR DUP6 SSTORE PUSH3 0x204 JUMP JUMPDEST DUP3 DUP1 ADD PUSH1 0x1 ADD DUP6 SSTORE DUP3 ISZERO PUSH3 0x204 JUMPI SWAP2 DUP3 ADD JUMPDEST DUP3 DUP2 GT ISZERO PUSH3 0x203 JUMPI DUP3 MLOAD DUP3 SSTORE SWAP2 PUSH1 0x20 ADD SWAP2 SWAP1 PUSH1 0x1 ADD SWAP1 PUSH3 0x1E6 JUMP JUMPDEST JUMPDEST POP SWAP1 POP PUSH3 0x213 SWAP2 SWAP1 PUSH3 0x217 JUMP JUMPDEST POP SWAP1 JUMP JUMPDEST JUMPDEST DUP1 DUP3 GT ISZERO PUSH3 0x232 JUMPI PUSH1 0x0 DUP2 PUSH1 0x0 SWAP1 SSTORE POP PUSH1 0x1 ADD PUSH3 0x218 JUMP JUMPDEST POP SWAP1 JUMP JUMPDEST PUSH1 0x0 PUSH3 0x24D PUSH3 0x247 DUP5 PUSH3 0x36F JUMP JUMPDEST PUSH3 0x346 JUMP JUMPDEST SWAP1 POP DUP3 DUP2 MSTORE PUSH1 0x20 DUP2 ADD DUP5 DUP5 DUP5 ADD GT ISZERO PUSH3 0x26C JUMPI PUSH3 0x26B PUSH3 0x540 JUMP JUMPDEST JUMPDEST PUSH3 0x279 DUP5 DUP3 DUP6 PUSH3 0x40C JUMP JUMPDEST POP SWAP4 SWAP3 POP POP POP JUMP JUMPDEST PUSH1 0x0 DUP3 PUSH1 0x1F DUP4 ADD SLT PUSH3 0x299 JUMPI PUSH3 0x298 PUSH3 0x53B JUMP JUMPDEST JUMPDEST DUP2 MLOAD PUSH3 0x2AB DUP5 DUP3 PUSH1 0x20 DUP7 ADD PUSH3 0x236 JUMP JUMPDEST SWAP2 POP POP SWAP3 SWAP2 POP POP JUMP JUMPDEST PUSH1 0x0 DUP2 MLOAD SWAP1 POP PUSH3 0x2C5 DUP2 PUSH3 0x560 JUMP JUMPDEST SWAP3 SWAP2 POP POP JUMP JUMPDEST PUSH1 0x0 DUP1 PUSH1 0x0 PUSH1 0x60 DUP5 DUP7 SUB SLT ISZERO PUSH3 0x2E7 JUMPI PUSH3 0x2E6 PUSH3 0x54A JUMP JUMPDEST JUMPDEST PUSH1 0x0 DUP5 ADD MLOAD PUSH8 0xFFFFFFFFFFFFFFFF DUP2 GT ISZERO PUSH3 0x308 JUMPI PUSH3 0x307 PUSH3 0x545 JUMP JUMPDEST JUMPDEST PUSH3 0x316 DUP7 DUP3 DUP8 ADD PUSH3 0x281 JUMP JUMPDEST SWAP4 POP POP PUSH1 0x20 PUSH3 0x329 DUP7 DUP3 DUP8 ADD PUSH3 0x2B4 JUMP JUMPDEST SWAP3 POP POP PUSH1 0x40 PUSH3 0x33C DUP7 DUP3 DUP8 ADD PUSH3 0x2B4 JUMP JUMPDEST SWAP2 POP POP SWAP3 POP SWAP3 POP SWAP3 JUMP JUMPDEST PUSH1 0x0 PUSH3 0x352 PUSH3 0x365 JUMP JUMPDEST SWAP1 POP PUSH3 0x360 DUP3 DUP3 PUSH3 0x478 JUMP JUMPDEST SWAP2 SWAP1 POP JUMP JUMPDEST PUSH1 0x0 PUSH1 0x40 MLOAD SWAP1 POP SWAP1 JUMP JUMPDEST PUSH1 0x0 PUSH8 0xFFFFFFFFFFFFFFFF DUP3 GT ISZERO PUSH3 0x38D JUMPI PUSH3 0x38C PUSH3 0x50C JUMP JUMPDEST JUMPDEST PUSH3 0x398 DUP3 PUSH3 0x54F JUMP JUMPDEST SWAP1 POP PUSH1 0x20 DUP2 ADD SWAP1 POP SWAP2 SWAP1 POP JUMP JUMPDEST PUSH1 0x0 PUSH3 0x3B2 DUP3 PUSH3 0x402 JUMP JUMPDEST SWAP2 POP PUSH3 0x3BF DUP4 PUSH3 0x402 JUMP JUMPDEST SWAP3 POP DUP3 PUSH32 0xFFFFFFFFFFFFFFFFFFFFFFFFFFFFFFFFFFFFFFFFFFFFFFFFFFFFFFFFFFFFFFFF SUB DUP3 GT ISZERO PUSH3 0x3F7 JUMPI PUSH3 0x3F6 PUSH3 0x4AE JUMP JUMPDEST JUMPDEST DUP3 DUP3 ADD SWAP1 POP SWAP3 SWAP2 POP POP JUMP JUMPDEST PUSH1 0x0 DUP2 SWAP1 POP SWAP2 SWAP1 POP JUMP JUMPDEST PUSH1 0x0 JUMPDEST DUP4 DUP2 LT ISZERO PUSH3 0x42C JUMPI DUP1 DUP3 ADD MLOAD DUP2 DUP5 ADD MSTORE PUSH1 0x20 DUP2 ADD SWAP1 POP PUSH3 0x40F JUMP JUMPDEST DUP4 DUP2 GT ISZERO PUSH3 0x43C JUMPI PUSH1 0x0 DUP5 DUP5 ADD MSTORE JUMPDEST POP POP POP POP JUMP JUMPDEST PUSH1 0x0 PUSH1 0x2 DUP3 DIV SWAP1 POP PUSH1 0x1 DUP3 AND DUP1 PUSH3 0x45B JUMPI PUSH1 0x7F DUP3 AND SWAP2 POP JUMPDEST PUSH1 0x20 DUP3 LT DUP2 EQ ISZERO PUSH3 0x472 JUMPI PUSH3 0x471 PUSH3 0x4DD JUMP JUMPDEST JUMPDEST POP SWAP2 SWAP1 POP JUMP JUMPDEST PUSH3 0x483 DUP3 PUSH3 0x54F JUMP JUMPDEST DUP2 ADD DUP2 DUP2 LT PUSH8 0xFFFFFFFFFFFFFFFF DUP3 GT OR ISZERO PUSH3 0x4A5 JUMPI PUSH3 0x4A4 PUSH3 0x50C JUMP JUMPDEST JUMPDEST DUP1 PUSH1 0x40 MSTORE POP POP POP JUMP JUMPDEST PUSH32 0x4E487B7100000000000000000000000000000000000000000000000000000000 PUSH1 0x0 MSTORE PUSH1 0x11 PUSH1 0x4 MSTORE PUSH1 0x24 PUSH1 0x0 REVERT JUMPDEST PUSH32 0x4E487B7100000000000000000000000000000000000000000000000000000000 PUSH1 0x0 MSTORE PUSH1 0x22 PUSH1 0x4 MSTORE PUSH1 0x24 PUSH1 0x0 REVERT JUMPDEST PUSH32 0x4E487B7100000000000000000000000000000000000000000000000000000000 PUSH1 0x0 MSTORE PUSH1 0x41 PUSH1 0x4 MSTORE PUSH1 0x24 PUSH1 0x0 REVERT JUMPDEST PUSH1 0x0 DUP1 REVERT JUMPDEST PUSH1 0x0 DUP1 REVERT JUMPDEST PUSH1 0x0 DUP1 REVERT JUMPDEST PUSH1 0x0 DUP1 REVERT JUMPDEST PUSH1 0x0 PUSH1 0x1F NOT PUSH1 0x1F DUP4 ADD AND SWAP1 POP SWAP2 SWAP1 POP JUMP JUMPDEST PUSH3 0x56B DUP2 PUSH3 0x402 JUMP JUMPDEST DUP2 EQ PUSH3 0x577 JUMPI PUSH1 0x0 DUP1 REVERT JUMPDEST POP JUMP JUMPDEST PUSH2 0x2870 DUP1 PUSH3 0x58A PUSH1 0x0 CODECOPY PUSH1 0x0 RETURN INVALID PUSH1 0x80 PUSH1 0x40 MSTORE CALLVALUE DUP1 ISZERO PUSH2 0x10 JUMPI PUSH1 0x0 DUP1 REVERT JUMPDEST POP PUSH1 0x4 CALLDATASIZE LT PUSH2 0x10B JUMPI PUSH1 0x0 CALLDATALOAD PUSH1 0xE0 SHR DUP1 PUSH4 0x753EC103 GT PUSH2 0xA2 JUMPI DUP1 PUSH4 0xA5EA11DA GT PUSH2 0x71 JUMPI DUP1 PUSH4 0xA5EA11DA EQ PUSH2 0x29D JUMPI DUP1 PUSH4 0xB9A29250 EQ PUSH2 0x2BF JUMPI DUP1 PUSH4 0xD77AA749 EQ PUSH2 0x2DD JUMPI DUP1 PUSH4 0xDA58C7D9 EQ PUSH2 0x2FB JUMPI DUP1 PUSH4 0xF6B4DFB4 EQ PUSH2 0x32D JUMPI PUSH2 0x10B JUMP JUMPDEST DUP1 PUSH4 0x753EC103 EQ PUSH2 0x222 JUMPI DUP1 PUSH4 0x82316745 EQ PUSH2 0x241 JUMPI DUP1 PUSH4 0x95B02DFA EQ PUSH2 0x261 JUMPI DUP1 PUSH4 0x9AA4BBDD EQ PUSH2 0x26B JUMPI PUSH2 0x10B JUMP JUMPDEST DUP1 PUSH4 0x5361A0EA GT PUSH2 0xDE JUMPI DUP1 PUSH4 0x5361A0EA EQ PUSH2 0x196 JUMPI DUP1 PUSH4 0x5C39FCC1 EQ PUSH2 0x1C8 JUMPI DUP1 PUSH4 0x604C8333 EQ PUSH2 0x1E6 JUMPI DUP1 PUSH4 0x7403C5E5 EQ PUSH2 0x204 JUMPI PUSH2 0x10B JUMP JUMPDEST DUP1 PUSH4 0xCB6AAF1 EQ PUSH2 0x110 JUMPI DUP1 PUSH4 0x15FE6F1B EQ PUSH2 0x140 JUMPI DUP1 PUSH4 0x19EB4A90 EQ PUSH2 0x15C JUMPI DUP1 PUSH4 0x323082D7 EQ PUSH2 0x17A JUMPI JUMPDEST PUSH1 0x0 DUP1 REVERT JUMPDEST PUSH2 0x12A PUSH1 0x4 DUP1 CALLDATASIZE SUB DUP2 ADD SWAP1 PUSH2 0x125 SWAP2 SWAP1 PUSH2 0x1BE1 JUMP JUMPDEST PUSH2 0x34B JUMP JUMPDEST PUSH1 0x40 MLOAD PUSH2 0x137 SWAP2 SWAP1 PUSH2 0x1F2D JUMP JUMPDEST PUSH1 0x40 MLOAD DUP1 SWAP2 SUB SWAP1 RETURN JUMPDEST PUSH2 0x15A PUSH1 0x4 DUP1 CALLDATASIZE SUB DUP2 ADD SWAP1 PUSH2 0x155 SWAP2 SWAP1 PUSH2 0x1B6B JUMP JUMPDEST PUSH2 0x38A JUMP JUMPDEST STOP JUMPDEST PUSH2 0x164 PUSH2 0x72C JUMP JUMPDEST PUSH1 0x40 MLOAD PUSH2 0x171 SWAP2 SWAP1 PUSH2 0x1FB6 JUMP JUMPDEST PUSH1 0x40 MLOAD DUP1 SWAP2 SUB SWAP1 RETURN JUMPDEST PUSH2 0x194 PUSH1 0x4 DUP1 CALLDATASIZE SUB DUP2 ADD SWAP1 PUSH2 0x18F SWAP2 SWAP1 PUSH2 0x1B98 JUMP JUMPDEST PUSH2 0x7C1 JUMP JUMPDEST STOP JUMPDEST PUSH2 0x1B0 PUSH1 0x4 DUP1 CALLDATASIZE SUB DUP2 ADD SWAP1 PUSH2 0x1AB SWAP2 SWAP1 PUSH2 0x1B6B JUMP JUMPDEST PUSH2 0xF64 JUMP JUMPDEST PUSH1 0x40 MLOAD PUSH2 0x1BF SWAP4 SWAP3 SWAP2 SWAP1 PUSH2 0x1F7F JUMP JUMPDEST PUSH1 0x40 MLOAD DUP1 SWAP2 SUB SWAP1 RETURN JUMPDEST PUSH2 0x1D0 PUSH2 0x1079 JUMP JUMPDEST PUSH1 0x40 MLOAD PUSH2 0x1DD SWAP2 SWAP1 PUSH2 0x1F2D JUMP JUMPDEST PUSH1 0x40 MLOAD DUP1 SWAP2 SUB SWAP1 RETURN JUMPDEST PUSH2 0x1EE PUSH2 0x109F JUMP JUMPDEST PUSH1 0x40 MLOAD PUSH2 0x1FB SWAP2 SWAP1 PUSH2 0x21BE JUMP JUMPDEST PUSH1 0x40 MLOAD DUP1 SWAP2 SUB SWAP1 RETURN JUMPDEST PUSH2 0x20C PUSH2 0x10A5 JUMP JUMPDEST PUSH1 0x40 MLOAD PUSH2 0x219 SWAP2 SWAP1 PUSH2 0x21BE JUMP JUMPDEST PUSH1 0x40 MLOAD DUP1 SWAP2 SUB SWAP1 RETURN JUMPDEST PUSH2 0x22A PUSH2 0x10AB JUMP JUMPDEST PUSH1 0x40 MLOAD PUSH2 0x238 SWAP3 SWAP2 SWAP1 PUSH2 0x21D9 JUMP JUMPDEST PUSH1 0x40 MLOAD DUP1 SWAP2 SUB SWAP1 RETURN JUMPDEST PUSH2 0x249 PUSH2 0x1145 JUMP JUMPDEST PUSH1 0x40 MLOAD PUSH2 0x258 SWAP4 SWAP3 SWAP2 SWAP1 PUSH2 0x1FD8 JUMP JUMPDEST PUSH1 0x40 MLOAD DUP1 SWAP2 SUB SWAP1 RETURN JUMPDEST PUSH2 0x269 PUSH2 0x13BE JUMP JUMPDEST STOP JUMPDEST PUSH2 0x285 PUSH1 0x4 DUP1 CALLDATASIZE SUB DUP2 ADD SWAP1 PUSH2 0x280 SWAP2 SWAP1 PUSH2 0x1B6B JUMP JUMPDEST PUSH2 0x183A JUMP JUMPDEST PUSH1 0x40 MLOAD PUSH2 0x294 SWAP4 SWAP3 SWAP2 SWAP1 PUSH2 0x1F48 JUMP JUMPDEST PUSH1 0x40 MLOAD DUP1 SWAP2 SUB SWAP1 RETURN JUMPDEST PUSH2 0x2A5 PUSH2 0x189E JUMP JUMPDEST PUSH1 0x40 MLOAD PUSH2 0x2B6 SWAP6 SWAP5 SWAP4 SWAP3 SWAP2 SWAP1 PUSH2 0x2024 JUMP JUMPDEST PUSH1 0x40 MLOAD DUP1 SWAP2 SUB SWAP1 RETURN JUMPDEST PUSH2 0x2C7 PUSH2 0x1974 JUMP JUMPDEST PUSH1 0x40 MLOAD PUSH2 0x2D4 SWAP2 SWAP1 PUSH2 0x21BE JUMP JUMPDEST PUSH1 0x40 MLOAD DUP1 SWAP2 SUB SWAP1 RETURN JUMPDEST PUSH2 0x2E5 PUSH2 0x197A JUMP JUMPDEST PUSH1 0x40 MLOAD PUSH2 0x2F2 SWAP2 SWAP1 PUSH2 0x21BE JUMP JUMPDEST PUSH1 0x40 MLOAD DUP1 SWAP2 SUB SWAP1 RETURN JUMPDEST PUSH2 0x315 PUSH1 0x4 DUP1 CALLDATASIZE SUB DUP2 ADD SWAP1 PUSH2 0x310 SWAP2 SWAP1 PUSH2 0x1BE1 JUMP JUMPDEST PUSH2 0x1980 JUMP JUMPDEST PUSH1 0x40 MLOAD PUSH2 0x324 SWAP4 SWAP3 SWAP2 SWAP1 PUSH2 0x1F48 JUMP JUMPDEST PUSH1 0x40 MLOAD DUP1 SWAP2 SUB SWAP1 RETURN JUMPDEST PUSH2 0x335 PUSH2 0x19F0 JUMP JUMPDEST PUSH1 0x40 MLOAD PUSH2 0x342 SWAP2 SWAP1 PUSH2 0x1F2D JUMP JUMPDEST PUSH1 0x40 MLOAD DUP1 SWAP2 SUB SWAP1 RETURN JUMPDEST PUSH1 0x9 DUP2 DUP2 SLOAD DUP2 LT PUSH2 0x35B JUMPI PUSH1 0x0 DUP1 REVERT JUMPDEST SWAP1 PUSH1 0x0 MSTORE PUSH1 0x20 PUSH1 0x0 KECCAK256 ADD PUSH1 0x0 SWAP2 POP SLOAD SWAP1 PUSH2 0x100 EXP SWAP1 DIV PUSH20 0xFFFFFFFFFFFFFFFFFFFFFFFFFFFFFFFFFFFFFFFF AND DUP2 JUMP JUMPDEST PUSH1 0x3 PUSH1 0x0 SWAP1 SLOAD SWAP1 PUSH2 0x100 EXP SWAP1 DIV PUSH20 0xFFFFFFFFFFFFFFFFFFFFFFFFFFFFFFFFFFFFFFFF AND PUSH20 0xFFFFFFFFFFFFFFFFFFFFFFFFFFFFFFFFFFFFFFFF AND CALLER PUSH20 0xFFFFFFFFFFFFFFFFFFFFFFFFFFFFFFFFFFFFFFFF AND EQ PUSH2 0x41A JUMPI PUSH1 0x40 MLOAD PUSH32 0x8C379A000000000000000000000000000000000000000000000000000000000 DUP2 MSTORE PUSH1 0x4 ADD PUSH2 0x411 SWAP1 PUSH2 0x213E JUMP JUMPDEST PUSH1 0x40 MLOAD DUP1 SWAP2 SUB SWAP1 REVERT JUMPDEST PUSH1 0x3 PUSH1 0x0 SWAP1 SLOAD SWAP1 PUSH2 0x100 EXP SWAP1 DIV PUSH20 0xFFFFFFFFFFFFFFFFFFFFFFFFFFFFFFFFFFFFFFFF AND PUSH20 0xFFFFFFFFFFFFFFFFFFFFFFFFFFFFFFFFFFFFFFFF AND DUP2 PUSH20 0xFFFFFFFFFFFFFFFFFFFFFFFFFFFFFFFFFFFFFFFF AND EQ ISZERO PUSH2 0x4AB JUMPI PUSH1 0x40 MLOAD PUSH32 0x8C379A000000000000000000000000000000000000000000000000000000000 DUP2 MSTORE PUSH1 0x4 ADD PUSH2 0x4A2 SWAP1 PUSH2 0x20DE JUMP JUMPDEST PUSH1 0x40 MLOAD DUP1 SWAP2 SUB SWAP1 REVERT JUMPDEST PUSH1 0x0 PUSH20 0xFFFFFFFFFFFFFFFFFFFFFFFFFFFFFFFFFFFFFFFF AND PUSH1 0xA PUSH1 0x0 DUP4 PUSH20 0xFFFFFFFFFFFFFFFFFFFFFFFFFFFFFFFFFFFFFFFF AND PUSH20 0xFFFFFFFFFFFFFFFFFFFFFFFFFFFFFFFFFFFFFFFF AND DUP2 MSTORE PUSH1 0x20 ADD SWAP1 DUP2 MSTORE PUSH1 0x20 ADD PUSH1 0x0 KECCAK256 PUSH1 0x0 ADD PUSH1 0x1 SWAP1 SLOAD SWAP1 PUSH2 0x100 EXP SWAP1 DIV PUSH20 0xFFFFFFFFFFFFFFFFFFFFFFFFFFFFFFFFFFFFFFFF AND PUSH20 0xFFFFFFFFFFFFFFFFFFFFFFFFFFFFFFFFFFFFFFFF AND EQ PUSH2 0x57C JUMPI PUSH1 0x40 MLOAD PUSH32 0x8C379A000000000000000000000000000000000000000000000000000000000 DUP2 MSTORE PUSH1 0x4 ADD PUSH2 0x573 SWAP1 PUSH2 0x207E JUMP JUMPDEST PUSH1 0x40 MLOAD DUP1 SWAP2 SUB SWAP1 REVERT JUMPDEST PUSH1 0x1 SLOAD TIMESTAMP LT PUSH2 0x5C0 JUMPI PUSH1 0x40 MLOAD PUSH32 0x8C379A000000000000000000000000000000000000000000000000000000000 DUP2 MSTORE PUSH1 0x4 ADD PUSH2 0x5B7 SWAP1 PUSH2 0x211E JUMP JUMPDEST PUSH1 0x40 MLOAD DUP1 SWAP2 SUB SWAP1 REVERT JUMPDEST PUSH1 0x0 PUSH1 0x40 MLOAD DUP1 PUSH1 0x60 ADD PUSH1 0x40 MSTORE DUP1 PUSH1 0x0 ISZERO ISZERO DUP2 MSTORE PUSH1 0x20 ADD DUP4 PUSH20 0xFFFFFFFFFFFFFFFFFFFFFFFFFFFFFFFFFFFFFFFF AND DUP2 MSTORE PUSH1 0x20 ADD PUSH1 0x0 ISZERO ISZERO DUP2 MSTORE POP SWAP1 POP DUP1 PUSH1 0xA PUSH1 0x0 DUP5 PUSH20 0xFFFFFFFFFFFFFFFFFFFFFFFFFFFFFFFFFFFFFFFF AND PUSH20 0xFFFFFFFFFFFFFFFFFFFFFFFFFFFFFFFFFFFFFFFF AND DUP2 MSTORE PUSH1 0x20 ADD SWAP1 DUP2 MSTORE PUSH1 0x20 ADD PUSH1 0x0 KECCAK256 PUSH1 0x0 DUP3 ADD MLOAD DUP2 PUSH1 0x0 ADD PUSH1 0x0 PUSH2 0x100 EXP DUP2 SLOAD DUP2 PUSH1 0xFF MUL NOT AND SWAP1 DUP4 ISZERO ISZERO MUL OR SWAP1 SSTORE POP PUSH1 0x20 DUP3 ADD MLOAD DUP2 PUSH1 0x0 ADD PUSH1 0x1 PUSH2 0x100 EXP DUP2 SLOAD DUP2 PUSH20 0xFFFFFFFFFFFFFFFFFFFFFFFFFFFFFFFFFFFFFFFF MUL NOT AND SWAP1 DUP4 PUSH20 0xFFFFFFFFFFFFFFFFFFFFFFFFFFFFFFFFFFFFFFFF AND MUL OR SWAP1 SSTORE POP PUSH1 0x40 DUP3 ADD MLOAD DUP2 PUSH1 0x0 ADD PUSH1 0x15 PUSH2 0x100 EXP DUP2 SLOAD DUP2 PUSH1 0xFF MUL NOT AND SWAP1 DUP4 ISZERO ISZERO MUL OR SWAP1 SSTORE POP SWAP1 POP POP PUSH1 0x9 DUP3 SWAP1 DUP1 PUSH1 0x1 DUP2 SLOAD ADD DUP1 DUP3 SSTORE DUP1 SWAP2 POP POP PUSH1 0x1 SWAP1 SUB SWAP1 PUSH1 0x0 MSTORE PUSH1 0x20 PUSH1 0x0 KECCAK256 ADD PUSH1 0x0 SWAP1 SWAP2 SWAP1 SWAP2 SWAP1 SWAP2 PUSH2 0x100 EXP DUP2 SLOAD DUP2 PUSH20 0xFFFFFFFFFFFFFFFFFFFFFFFFFFFFFFFFFFFFFFFF MUL NOT AND SWAP1 DUP4 PUSH20 0xFFFFFFFFFFFFFFFFFFFFFFFFFFFFFFFFFFFFFFFF AND MUL OR SWAP1 SSTORE POP POP POP JUMP JUMPDEST PUSH1 0x60 PUSH1 0xB PUSH1 0x1 ADD DUP1 SLOAD PUSH2 0x73E SWAP1 PUSH2 0x243D JUMP JUMPDEST DUP1 PUSH1 0x1F ADD PUSH1 0x20 DUP1 SWAP2 DIV MUL PUSH1 0x20 ADD PUSH1 0x40 MLOAD SWAP1 DUP2 ADD PUSH1 0x40 MSTORE DUP1 SWAP3 SWAP2 SWAP1 DUP2 DUP2 MSTORE PUSH1 0x20 ADD DUP3 DUP1 SLOAD PUSH2 0x76A SWAP1 PUSH2 0x243D JUMP JUMPDEST DUP1 ISZERO PUSH2 0x7B7 JUMPI DUP1 PUSH1 0x1F LT PUSH2 0x78C JUMPI PUSH2 0x100 DUP1 DUP4 SLOAD DIV MUL DUP4 MSTORE SWAP2 PUSH1 0x20 ADD SWAP2 PUSH2 0x7B7 JUMP JUMPDEST DUP3 ADD SWAP2 SWAP1 PUSH1 0x0 MSTORE PUSH1 0x20 PUSH1 0x0 KECCAK256 SWAP1 JUMPDEST DUP2 SLOAD DUP2 MSTORE SWAP1 PUSH1 0x1 ADD SWAP1 PUSH1 0x20 ADD DUP1 DUP4 GT PUSH2 0x79A JUMPI DUP3 SWAP1 SUB PUSH1 0x1F AND DUP3 ADD SWAP2 JUMPDEST POP POP POP POP POP SWAP1 POP SWAP1 JUMP JUMPDEST PUSH1 0x1 SLOAD TIMESTAMP LT PUSH2 0x805 JUMPI PUSH1 0x40 MLOAD PUSH32 0x8C379A000000000000000000000000000000000000000000000000000000000 DUP2 MSTORE PUSH1 0x4 ADD PUSH2 0x7FC SWAP1 PUSH2 0x217E JUMP JUMPDEST PUSH1 0x40 MLOAD DUP1 SWAP2 SUB SWAP1 REVERT JUMPDEST PUSH1 0x0 PUSH20 0xFFFFFFFFFFFFFFFFFFFFFFFFFFFFFFFFFFFFFFFF AND PUSH1 0xA PUSH1 0x0 CALLER PUSH20 0xFFFFFFFFFFFFFFFFFFFFFFFFFFFFFFFFFFFFFFFF AND PUSH20 0xFFFFFFFFFFFFFFFFFFFFFFFFFFFFFFFFFFFFFFFF AND DUP2 MSTORE PUSH1 0x20 ADD SWAP1 DUP2 MSTORE PUSH1 0x20 ADD PUSH1 0x0 KECCAK256 PUSH1 0x0 ADD PUSH1 0x1 SWAP1 SLOAD SWAP1 PUSH2 0x100 EXP SWAP1 DIV PUSH20 0xFFFFFFFFFFFFFFFFFFFFFFFFFFFFFFFFFFFFFFFF AND PUSH20 0xFFFFFFFFFFFFFFFFFFFFFFFFFFFFFFFFFFFFFFFF AND EQ ISZERO PUSH2 0x8D7 JUMPI PUSH1 0x40 MLOAD PUSH32 0x8C379A000000000000000000000000000000000000000000000000000000000 DUP2 MSTORE PUSH1 0x4 ADD PUSH2 0x8CE SWAP1 PUSH2 0x20FE JUMP JUMPDEST PUSH1 0x40 MLOAD DUP1 SWAP2 SUB SWAP1 REVERT JUMPDEST PUSH1 0xA PUSH1 0x0 CALLER PUSH20 0xFFFFFFFFFFFFFFFFFFFFFFFFFFFFFFFFFFFFFFFF AND PUSH20 0xFFFFFFFFFFFFFFFFFFFFFFFFFFFFFFFFFFFFFFFF AND DUP2 MSTORE PUSH1 0x20 ADD SWAP1 DUP2 MSTORE PUSH1 0x20 ADD PUSH1 0x0 KECCAK256 PUSH1 0x0 ADD PUSH1 0x0 SWAP1 SLOAD SWAP1 PUSH2 0x100 EXP SWAP1 DIV PUSH1 0xFF AND ISZERO PUSH2 0x967 JUMPI PUSH1 0x40 MLOAD PUSH32 0x8C379A000000000000000000000000000000000000000000000000000000000 DUP2 MSTORE PUSH1 0x4 ADD PUSH2 0x95E SWAP1 PUSH2 0x20BE JUMP JUMPDEST PUSH1 0x40 MLOAD DUP1 SWAP2 SUB SWAP1 REVERT JUMPDEST PUSH1 0x40 MLOAD DUP1 PUSH1 0x40 ADD PUSH1 0x40 MSTORE DUP1 PUSH1 0x9 DUP2 MSTORE PUSH1 0x20 ADD PUSH32 0x6920617070726F76650000000000000000000000000000000000000000000000 DUP2 MSTORE POP DUP1 MLOAD SWAP1 PUSH1 0x20 ADD KECCAK256 DUP2 DUP1 MLOAD SWAP1 PUSH1 0x20 ADD KECCAK256 EQ ISZERO PUSH2 0xBCD JUMPI PUSH1 0x1 PUSH1 0xA PUSH1 0x0 CALLER PUSH20 0xFFFFFFFFFFFFFFFFFFFFFFFFFFFFFFFFFFFFFFFF AND PUSH20 0xFFFFFFFFFFFFFFFFFFFFFFFFFFFFFFFFFFFFFFFF AND DUP2 MSTORE PUSH1 0x20 ADD SWAP1 DUP2 MSTORE PUSH1 0x20 ADD PUSH1 0x0 KECCAK256 PUSH1 0x0 ADD PUSH1 0x0 PUSH2 0x100 EXP DUP2 SLOAD DUP2 PUSH1 0xFF MUL NOT AND SWAP1 DUP4 ISZERO ISZERO MUL OR SWAP1 SSTORE POP PUSH1 0x1 PUSH1 0xA PUSH1 0x0 CALLER PUSH20 0xFFFFFFFFFFFFFFFFFFFFFFFFFFFFFFFFFFFFFFFF AND PUSH20 0xFFFFFFFFFFFFFFFFFFFFFFFFFFFFFFFFFFFFFFFF AND DUP2 MSTORE PUSH1 0x20 ADD SWAP1 DUP2 MSTORE PUSH1 0x20 ADD PUSH1 0x0 KECCAK256 PUSH1 0x0 ADD PUSH1 0x15 PUSH2 0x100 EXP DUP2 SLOAD DUP2 PUSH1 0xFF MUL NOT AND SWAP1 DUP4 ISZERO ISZERO MUL OR SWAP1 SSTORE POP PUSH1 0x1 PUSH1 0x6 PUSH1 0x0 DUP3 DUP3 SLOAD PUSH2 0xA7B SWAP2 SWAP1 PUSH2 0x22C5 JUMP JUMPDEST SWAP3 POP POP DUP2 SWAP1 SSTORE POP PUSH1 0x1 PUSH1 0xB PUSH1 0x0 ADD PUSH1 0x0 DUP3 DUP3 SLOAD PUSH2 0xA98 SWAP2 SWAP1 PUSH2 0x22C5 JUMP JUMPDEST SWAP3 POP POP DUP2 SWAP1 SSTORE POP PUSH1 0x8 PUSH1 0xA PUSH1 0x0 CALLER PUSH20 0xFFFFFFFFFFFFFFFFFFFFFFFFFFFFFFFFFFFFFFFF AND PUSH20 0xFFFFFFFFFFFFFFFFFFFFFFFFFFFFFFFFFFFFFFFF AND DUP2 MSTORE PUSH1 0x20 ADD SWAP1 DUP2 MSTORE PUSH1 0x20 ADD PUSH1 0x0 KECCAK256 SWAP1 DUP1 PUSH1 0x1 DUP2 SLOAD ADD DUP1 DUP3 SSTORE DUP1 SWAP2 POP POP PUSH1 0x1 SWAP1 SUB SWAP1 PUSH1 0x0 MSTORE PUSH1 0x20 PUSH1 0x0 KECCAK256 ADD PUSH1 0x0 SWAP1 SWAP2 SWAP1 SWAP2 SWAP1 SWAP2 POP PUSH1 0x0 DUP3 ADD PUSH1 0x0 SWAP1 SLOAD SWAP1 PUSH2 0x100 EXP SWAP1 DIV PUSH1 0xFF AND DUP2 PUSH1 0x0 ADD PUSH1 0x0 PUSH2 0x100 EXP DUP2 SLOAD DUP2 PUSH1 0xFF MUL NOT AND SWAP1 DUP4 ISZERO ISZERO MUL OR SWAP1 SSTORE POP PUSH1 0x0 DUP3 ADD PUSH1 0x1 SWAP1 SLOAD SWAP1 PUSH2 0x100 EXP SWAP1 DIV PUSH20 0xFFFFFFFFFFFFFFFFFFFFFFFFFFFFFFFFFFFFFFFF AND DUP2 PUSH1 0x0 ADD PUSH1 0x1 PUSH2 0x100 EXP DUP2 SLOAD DUP2 PUSH20 0xFFFFFFFFFFFFFFFFFFFFFFFFFFFFFFFFFFFFFFFF MUL NOT AND SWAP1 DUP4 PUSH20 0xFFFFFFFFFFFFFFFFFFFFFFFFFFFFFFFFFFFFFFFF AND MUL OR SWAP1 SSTORE POP PUSH1 0x0 DUP3 ADD PUSH1 0x15 SWAP1 SLOAD SWAP1 PUSH2 0x100 EXP SWAP1 DIV PUSH1 0xFF AND DUP2 PUSH1 0x0 ADD PUSH1 0x15 PUSH2 0x100 EXP DUP2 SLOAD DUP2 PUSH1 0xFF MUL NOT AND SWAP1 DUP4 ISZERO ISZERO MUL OR SWAP1 SSTORE POP POP POP PUSH2 0xF61 JUMP JUMPDEST PUSH1 0x40 MLOAD DUP1 PUSH1 0x40 ADD PUSH1 0x40 MSTORE DUP1 PUSH1 0xC DUP2 MSTORE PUSH1 0x20 ADD PUSH32 0x6920646973617070726F76650000000000000000000000000000000000000000 DUP2 MSTORE POP DUP1 MLOAD SWAP1 PUSH1 0x20 ADD KECCAK256 DUP2 DUP1 MLOAD SWAP1 PUSH1 0x20 ADD KECCAK256 EQ ISZERO PUSH2 0xDBE JUMPI PUSH1 0x1 PUSH1 0xA PUSH1 0x0 CALLER PUSH20 0xFFFFFFFFFFFFFFFFFFFFFFFFFFFFFFFFFFFFFFFF AND PUSH20 0xFFFFFFFFFFFFFFFFFFFFFFFFFFFFFFFFFFFFFFFF AND DUP2 MSTORE PUSH1 0x20 ADD SWAP1 DUP2 MSTORE PUSH1 0x20 ADD PUSH1 0x0 KECCAK256 PUSH1 0x0 ADD PUSH1 0x0 PUSH2 0x100 EXP DUP2 SLOAD DUP2 PUSH1 0xFF MUL NOT AND SWAP1 DUP4 ISZERO ISZERO MUL OR SWAP1 SSTORE POP PUSH1 0x1 PUSH1 0xB PUSH1 0x0 ADD PUSH1 0x0 DUP3 DUP3 SLOAD PUSH2 0xC89 SWAP2 SWAP1 PUSH2 0x22C5 JUMP JUMPDEST SWAP3 POP POP DUP2 SWAP1 SSTORE POP PUSH1 0x8 PUSH1 0xA PUSH1 0x0 CALLER PUSH20 0xFFFFFFFFFFFFFFFFFFFFFFFFFFFFFFFFFFFFFFFF AND PUSH20 0xFFFFFFFFFFFFFFFFFFFFFFFFFFFFFFFFFFFFFFFF AND DUP2 MSTORE PUSH1 0x20 ADD SWAP1 DUP2 MSTORE PUSH1 0x20 ADD PUSH1 0x0 KECCAK256 SWAP1 DUP1 PUSH1 0x1 DUP2 SLOAD ADD DUP1 DUP3 SSTORE DUP1 SWAP2 POP POP PUSH1 0x1 SWAP1 SUB SWAP1 PUSH1 0x0 MSTORE PUSH1 0x20 PUSH1 0x0 KECCAK256 ADD PUSH1 0x0 SWAP1 SWAP2 SWAP1 SWAP2 SWAP1 SWAP2 POP PUSH1 0x0 DUP3 ADD PUSH1 0x0 SWAP1 SLOAD SWAP1 PUSH2 0x100 EXP SWAP1 DIV PUSH1 0xFF AND DUP2 PUSH1 0x0 ADD PUSH1 0x0 PUSH2 0x100 EXP DUP2 SLOAD DUP2 PUSH1 0xFF MUL NOT AND SWAP1 DUP4 ISZERO ISZERO MUL OR SWAP1 SSTORE POP PUSH1 0x0 DUP3 ADD PUSH1 0x1 SWAP1 SLOAD SWAP1 PUSH2 0x100 EXP SWAP1 DIV PUSH20 0xFFFFFFFFFFFFFFFFFFFFFFFFFFFFFFFFFFFFFFFF AND DUP2 PUSH1 0x0 ADD PUSH1 0x1 PUSH2 0x100 EXP DUP2 SLOAD DUP2 PUSH20 0xFFFFFFFFFFFFFFFFFFFFFFFFFFFFFFFFFFFFFFFF MUL NOT AND SWAP1 DUP4 PUSH20 0xFFFFFFFFFFFFFFFFFFFFFFFFFFFFFFFFFFFFFFFF AND MUL OR SWAP1 SSTORE POP PUSH1 0x0 DUP3 ADD PUSH1 0x15 SWAP1 SLOAD SWAP1 PUSH2 0x100 EXP SWAP1 DIV PUSH1 0xFF AND DUP2 PUSH1 0x0 ADD PUSH1 0x15 PUSH2 0x100 EXP DUP2 SLOAD DUP2 PUSH1 0xFF MUL NOT AND SWAP1 DUP4 ISZERO ISZERO MUL OR SWAP1 SSTORE POP POP POP PUSH2 0xF60 JUMP JUMPDEST PUSH1 0x1 PUSH1 0xA PUSH1 0x0 CALLER PUSH20 0xFFFFFFFFFFFFFFFFFFFFFFFFFFFFFFFFFFFFFFFF AND PUSH20 0xFFFFFFFFFFFFFFFFFFFFFFFFFFFFFFFFFFFFFFFF AND DUP2 MSTORE PUSH1 0x20 ADD SWAP1 DUP2 MSTORE PUSH1 0x20 ADD PUSH1 0x0 KECCAK256 PUSH1 0x0 ADD PUSH1 0x0 PUSH2 0x100 EXP DUP2 SLOAD DUP2 PUSH1 0xFF MUL NOT AND SWAP1 DUP4 ISZERO ISZERO MUL OR SWAP1 SSTORE POP PUSH1 0x1 PUSH1 0xB PUSH1 0x0 ADD PUSH1 0x0 DUP3 DUP3 SLOAD PUSH2 0xE2F SWAP2 SWAP1 PUSH2 0x22C5 JUMP JUMPDEST SWAP3 POP POP DUP2 SWAP1 SSTORE POP PUSH1 0x8 PUSH1 0xA PUSH1 0x0 CALLER PUSH20 0xFFFFFFFFFFFFFFFFFFFFFFFFFFFFFFFFFFFFFFFF AND PUSH20 0xFFFFFFFFFFFFFFFFFFFFFFFFFFFFFFFFFFFFFFFF AND DUP2 MSTORE PUSH1 0x20 ADD SWAP1 DUP2 MSTORE PUSH1 0x20 ADD PUSH1 0x0 KECCAK256 SWAP1 DUP1 PUSH1 0x1 DUP2 SLOAD ADD DUP1 DUP3 SSTORE DUP1 SWAP2 POP POP PUSH1 0x1 SWAP1 SUB SWAP1 PUSH1 0x0 MSTORE PUSH1 0x20 PUSH1 0x0 KECCAK256 ADD PUSH1 0x0 SWAP1 SWAP2 SWAP1 SWAP2 SWAP1 SWAP2 POP PUSH1 0x0 DUP3 ADD PUSH1 0x0 SWAP1 SLOAD SWAP1 PUSH2 0x100 EXP SWAP1 DIV PUSH1 0xFF AND DUP2 PUSH1 0x0 ADD PUSH1 0x0 PUSH2 0x100 EXP DUP2 SLOAD DUP2 PUSH1 0xFF MUL NOT AND SWAP1 DUP4 ISZERO ISZERO MUL OR SWAP1 SSTORE POP PUSH1 0x0 DUP3 ADD PUSH1 0x1 SWAP1 SLOAD SWAP1 PUSH2 0x100 EXP SWAP1 DIV PUSH20 0xFFFFFFFFFFFFFFFFFFFFFFFFFFFFFFFFFFFFFFFF AND DUP2 PUSH1 0x0 ADD PUSH1 0x1 PUSH2 0x100 EXP DUP2 SLOAD DUP2 PUSH20 0xFFFFFFFFFFFFFFFFFFFFFFFFFFFFFFFFFFFFFFFF MUL NOT AND SWAP1 DUP4 PUSH20 0xFFFFFFFFFFFFFFFFFFFFFFFFFFFFFFFFFFFFFFFF AND MUL OR SWAP1 SSTORE POP PUSH1 0x0 DUP3 ADD PUSH1 0x15 SWAP1 SLOAD SWAP1 PUSH2 0x100 EXP SWAP1 DIV PUSH1 0xFF AND DUP2 PUSH1 0x0 ADD PUSH1 0x15 PUSH2 0x100 EXP DUP2 SLOAD DUP2 PUSH1 0xFF MUL NOT AND SWAP1 DUP4 ISZERO ISZERO MUL OR SWAP1 SSTORE POP POP POP JUMPDEST JUMPDEST POP JUMP JUMPDEST PUSH1 0x0 DUP1 PUSH1 0x0 PUSH1 0xA PUSH1 0x0 DUP6 PUSH20 0xFFFFFFFFFFFFFFFFFFFFFFFFFFFFFFFFFFFFFFFF AND PUSH20 0xFFFFFFFFFFFFFFFFFFFFFFFFFFFFFFFFFFFFFFFF AND DUP2 MSTORE PUSH1 0x20 ADD SWAP1 DUP2 MSTORE PUSH1 0x20 ADD PUSH1 0x0 KECCAK256 PUSH1 0x0 ADD PUSH1 0x15 SWAP1 SLOAD SWAP1 PUSH2 0x100 EXP SWAP1 DIV PUSH1 0xFF AND PUSH1 0xA PUSH1 0x0 DUP7 PUSH20 0xFFFFFFFFFFFFFFFFFFFFFFFFFFFFFFFFFFFFFFFF AND PUSH20 0xFFFFFFFFFFFFFFFFFFFFFFFFFFFFFFFFFFFFFFFF AND DUP2 MSTORE PUSH1 0x20 ADD SWAP1 DUP2 MSTORE PUSH1 0x20 ADD PUSH1 0x0 KECCAK256 PUSH1 0x0 ADD PUSH1 0x0 SWAP1 SLOAD SWAP1 PUSH2 0x100 EXP SWAP1 DIV PUSH1 0xFF AND PUSH1 0xA PUSH1 0x0 DUP8 PUSH20 0xFFFFFFFFFFFFFFFFFFFFFFFFFFFFFFFFFFFFFFFF AND PUSH20 0xFFFFFFFFFFFFFFFFFFFFFFFFFFFFFFFFFFFFFFFF AND DUP2 MSTORE PUSH1 0x20 ADD SWAP1 DUP2 MSTORE PUSH1 0x20 ADD PUSH1 0x0 KECCAK256 PUSH1 0x0 ADD PUSH1 0x1 SWAP1 SLOAD SWAP1 PUSH2 0x100 EXP SWAP1 DIV PUSH20 0xFFFFFFFFFFFFFFFFFFFFFFFFFFFFFFFFFFFFFFFF AND SWAP3 POP SWAP3 POP SWAP3 POP SWAP2 SWAP4 SWAP1 SWAP3 POP JUMP JUMPDEST PUSH1 0x3 PUSH1 0x0 SWAP1 SLOAD SWAP1 PUSH2 0x100 EXP SWAP1 DIV PUSH20 0xFFFFFFFFFFFFFFFFFFFFFFFFFFFFFFFFFFFFFFFF AND DUP2 JUMP JUMPDEST PUSH1 0x5 SLOAD DUP2 JUMP JUMPDEST PUSH1 0x6 SLOAD DUP2 JUMP JUMPDEST PUSH1 0xB DUP1 PUSH1 0x0 ADD SLOAD SWAP1 DUP1 PUSH1 0x1 ADD DUP1 SLOAD PUSH2 0x10C2 SWAP1 PUSH2 0x243D JUMP JUMPDEST DUP1 PUSH1 0x1F ADD PUSH1 0x20 DUP1 SWAP2 DIV MUL PUSH1 0x20 ADD PUSH1 0x40 MLOAD SWAP1 DUP2 ADD PUSH1 0x40 MSTORE DUP1 SWAP3 SWAP2 SWAP1 DUP2 DUP2 MSTORE PUSH1 0x20 ADD DUP3 DUP1 SLOAD PUSH2 0x10EE SWAP1 PUSH2 0x243D JUMP JUMPDEST DUP1 ISZERO PUSH2 0x113B JUMPI DUP1 PUSH1 0x1F LT PUSH2 0x1110 JUMPI PUSH2 0x100 DUP1 DUP4 SLOAD DIV MUL DUP4 MSTORE SWAP2 PUSH1 0x20 ADD SWAP2 PUSH2 0x113B JUMP JUMPDEST DUP3 ADD SWAP2 SWAP1 PUSH1 0x0 MSTORE PUSH1 0x20 PUSH1 0x0 KECCAK256 SWAP1 JUMPDEST DUP2 SLOAD DUP2 MSTORE SWAP1 PUSH1 0x1 ADD SWAP1 PUSH1 0x20 ADD DUP1 DUP4 GT PUSH2 0x111E JUMPI DUP3 SWAP1 SUB PUSH1 0x1F AND DUP3 ADD SWAP2 JUMPDEST POP POP POP POP POP SWAP1 POP DUP3 JUMP JUMPDEST PUSH1 0x60 PUSH2 0x114F PUSH2 0x1A14 JUMP JUMPDEST PUSH1 0x60 PUSH1 0x1 SLOAD TIMESTAMP LT ISZERO PUSH2 0x1196 JUMPI PUSH1 0x40 MLOAD PUSH32 0x8C379A000000000000000000000000000000000000000000000000000000000 DUP2 MSTORE PUSH1 0x4 ADD PUSH2 0x118D SWAP1 PUSH2 0x215E JUMP JUMPDEST PUSH1 0x40 MLOAD DUP1 SWAP2 SUB SWAP1 REVERT JUMPDEST PUSH1 0x2 PUSH1 0xB PUSH1 0x8 DUP3 DUP1 SLOAD PUSH2 0x11A8 SWAP1 PUSH2 0x243D JUMP JUMPDEST DUP1 PUSH1 0x1F ADD PUSH1 0x20 DUP1 SWAP2 DIV MUL PUSH1 0x20 ADD PUSH1 0x40 MLOAD SWAP1 DUP2 ADD PUSH1 0x40 MSTORE DUP1 SWAP3 SWAP2 SWAP1 DUP2 DUP2 MSTORE PUSH1 0x20 ADD DUP3 DUP1 SLOAD PUSH2 0x11D4 SWAP1 PUSH2 0x243D JUMP JUMPDEST DUP1 ISZERO PUSH2 0x1221 JUMPI DUP1 PUSH1 0x1F LT PUSH2 0x11F6 JUMPI PUSH2 0x100 DUP1 DUP4 SLOAD DIV MUL DUP4 MSTORE SWAP2 PUSH1 0x20 ADD SWAP2 PUSH2 0x1221 JUMP JUMPDEST DUP3 ADD SWAP2 SWAP1 PUSH1 0x0 MSTORE PUSH1 0x20 PUSH1 0x0 KECCAK256 SWAP1 JUMPDEST DUP2 SLOAD DUP2 MSTORE SWAP1 PUSH1 0x1 ADD SWAP1 PUSH1 0x20 ADD DUP1 DUP4 GT PUSH2 0x1204 JUMPI DUP3 SWAP1 SUB PUSH1 0x1F AND DUP3 ADD SWAP2 JUMPDEST POP POP POP POP POP SWAP3 POP DUP2 PUSH1 0x40 MLOAD DUP1 PUSH1 0x40 ADD PUSH1 0x40 MSTORE SWAP1 DUP2 PUSH1 0x0 DUP3 ADD SLOAD DUP2 MSTORE PUSH1 0x20 ADD PUSH1 0x1 DUP3 ADD DUP1 SLOAD PUSH2 0x124E SWAP1 PUSH2 0x243D JUMP JUMPDEST DUP1 PUSH1 0x1F ADD PUSH1 0x20 DUP1 SWAP2 DIV MUL PUSH1 0x20 ADD PUSH1 0x40 MLOAD SWAP1 DUP2 ADD PUSH1 0x40 MSTORE DUP1 SWAP3 SWAP2 SWAP1 DUP2 DUP2 MSTORE PUSH1 0x20 ADD DUP3 DUP1 SLOAD PUSH2 0x127A SWAP1 PUSH2 0x243D JUMP JUMPDEST DUP1 ISZERO PUSH2 0x12C7 JUMPI DUP1 PUSH1 0x1F LT PUSH2 0x129C JUMPI PUSH2 0x100 DUP1 DUP4 SLOAD DIV MUL DUP4 MSTORE SWAP2 PUSH1 0x20 ADD SWAP2 PUSH2 0x12C7 JUMP JUMPDEST DUP3 ADD SWAP2 SWAP1 PUSH1 0x0 MSTORE PUSH1 0x20 PUSH1 0x0 KECCAK256 SWAP1 JUMPDEST DUP2 SLOAD DUP2 MSTORE SWAP1 PUSH1 0x1 ADD SWAP1 PUSH1 0x20 ADD DUP1 DUP4 GT PUSH2 0x12AA JUMPI DUP3 SWAP1 SUB PUSH1 0x1F AND DUP3 ADD SWAP2 JUMPDEST POP POP POP POP POP DUP2 MSTORE POP POP SWAP2 POP DUP1 DUP1 SLOAD DUP1 PUSH1 0x20 MUL PUSH1 0x20 ADD PUSH1 0x40 MLOAD SWAP1 DUP2 ADD PUSH1 0x40 MSTORE DUP1 SWAP3 SWAP2 SWAP1 DUP2 DUP2 MSTORE PUSH1 0x20 ADD PUSH1 0x0 SWAP1 JUMPDEST DUP3 DUP3 LT ISZERO PUSH2 0x13AD JUMPI DUP4 DUP3 SWAP1 PUSH1 0x0 MSTORE PUSH1 0x20 PUSH1 0x0 KECCAK256 ADD PUSH1 0x40 MLOAD DUP1 PUSH1 0x60 ADD PUSH1 0x40 MSTORE SWAP1 DUP2 PUSH1 0x0 DUP3 ADD PUSH1 0x0 SWAP1 SLOAD SWAP1 PUSH2 0x100 EXP SWAP1 DIV PUSH1 0xFF AND ISZERO ISZERO ISZERO ISZERO DUP2 MSTORE PUSH1 0x20 ADD PUSH1 0x0 DUP3 ADD PUSH1 0x1 SWAP1 SLOAD SWAP1 PUSH2 0x100 EXP SWAP1 DIV PUSH20 0xFFFFFFFFFFFFFFFFFFFFFFFFFFFFFFFFFFFFFFFF AND PUSH20 0xFFFFFFFFFFFFFFFFFFFFFFFFFFFFFFFFFFFFFFFF AND PUSH20 0xFFFFFFFFFFFFFFFFFFFFFFFFFFFFFFFFFFFFFFFF AND DUP2 MSTORE PUSH1 0x20 ADD PUSH1 0x0 DUP3 ADD PUSH1 0x15 SWAP1 SLOAD SWAP1 PUSH2 0x100 EXP SWAP1 DIV PUSH1 0xFF AND ISZERO ISZERO ISZERO ISZERO DUP2 MSTORE POP POP DUP2 MSTORE PUSH1 0x20 ADD SWAP1 PUSH1 0x1 ADD SWAP1 PUSH2 0x12F3 JUMP JUMPDEST POP POP POP POP SWAP1 POP SWAP3 POP SWAP3 POP SWAP3 POP SWAP1 SWAP2 SWAP3 JUMP JUMPDEST PUSH1 0x1 SLOAD TIMESTAMP LT ISZERO PUSH2 0x1403 JUMPI PUSH1 0x40 MLOAD PUSH32 0x8C379A000000000000000000000000000000000000000000000000000000000 DUP2 MSTORE PUSH1 0x4 ADD PUSH2 0x13FA SWAP1 PUSH2 0x215E JUMP JUMPDEST PUSH1 0x40 MLOAD DUP1 SWAP2 SUB SWAP1 REVERT JUMPDEST PUSH1 0x0 PUSH1 0x7 SLOAD EQ PUSH2 0x1448 JUMPI PUSH1 0x40 MLOAD PUSH32 0x8C379A000000000000000000000000000000000000000000000000000000000 DUP2 MSTORE PUSH1 0x4 ADD PUSH2 0x143F SWAP1 PUSH2 0x219E JUMP JUMPDEST PUSH1 0x40 MLOAD DUP1 SWAP2 SUB SWAP1 REVERT JUMPDEST PUSH1 0x3 PUSH1 0x0 SWAP1 SLOAD SWAP1 PUSH2 0x100 EXP SWAP1 DIV PUSH20 0xFFFFFFFFFFFFFFFFFFFFFFFFFFFFFFFFFFFFFFFF AND PUSH20 0xFFFFFFFFFFFFFFFFFFFFFFFFFFFFFFFFFFFFFFFF AND CALLER PUSH20 0xFFFFFFFFFFFFFFFFFFFFFFFFFFFFFFFFFFFFFFFF AND EQ DUP1 PUSH2 0x1533 JUMPI POP PUSH1 0x0 PUSH20 0xFFFFFFFFFFFFFFFFFFFFFFFFFFFFFFFFFFFFFFFF AND PUSH1 0xA PUSH1 0x0 CALLER PUSH20 0xFFFFFFFFFFFFFFFFFFFFFFFFFFFFFFFFFFFFFFFF AND PUSH20 0xFFFFFFFFFFFFFFFFFFFFFFFFFFFFFFFFFFFFFFFF AND DUP2 MSTORE PUSH1 0x20 ADD SWAP1 DUP2 MSTORE PUSH1 0x20 ADD PUSH1 0x0 KECCAK256 PUSH1 0x0 ADD PUSH1 0x1 SWAP1 SLOAD SWAP1 PUSH2 0x100 EXP SWAP1 DIV PUSH20 0xFFFFFFFFFFFFFFFFFFFFFFFFFFFFFFFFFFFFFFFF AND PUSH20 0xFFFFFFFFFFFFFFFFFFFFFFFFFFFFFFFFFFFFFFFF AND EQ ISZERO JUMPDEST PUSH2 0x1572 JUMPI PUSH1 0x40 MLOAD PUSH32 0x8C379A000000000000000000000000000000000000000000000000000000000 DUP2 MSTORE PUSH1 0x4 ADD PUSH2 0x1569 SWAP1 PUSH2 0x209E JUMP JUMPDEST PUSH1 0x40 MLOAD DUP1 SWAP2 SUB SWAP1 REVERT JUMPDEST PUSH1 0x64 PUSH1 0x9 DUP1 SLOAD SWAP1 POP PUSH1 0x6 SLOAD PUSH2 0x1587 SWAP2 SWAP1 PUSH2 0x231B JUMP JUMPDEST PUSH2 0x1591 SWAP2 SWAP1 PUSH2 0x234C JUMP JUMPDEST PUSH1 0x5 DUP2 SWAP1 SSTORE POP PUSH1 0x4 SLOAD PUSH1 0x5 SLOAD LT PUSH2 0x15EF JUMPI PUSH1 0x40 MLOAD DUP1 PUSH1 0x40 ADD PUSH1 0x40 MSTORE DUP1 PUSH1 0x8 DUP2 MSTORE PUSH1 0x20 ADD PUSH32 0x4163636570746564000000000000000000000000000000000000000000000000 DUP2 MSTORE POP PUSH1 0x2 SWAP1 DUP1 MLOAD SWAP1 PUSH1 0x20 ADD SWAP1 PUSH2 0x15ED SWAP3 SWAP2 SWAP1 PUSH2 0x1A2E JUMP JUMPDEST POP JUMPDEST PUSH1 0x0 JUMPDEST PUSH1 0x9 DUP1 SLOAD SWAP1 POP DUP2 PUSH1 0xFF AND LT ISZERO PUSH2 0x181D JUMPI PUSH1 0x0 ISZERO ISZERO PUSH1 0xA PUSH1 0x0 PUSH1 0x9 DUP5 PUSH1 0xFF AND DUP2 SLOAD DUP2 LT PUSH2 0x1621 JUMPI PUSH2 0x1620 PUSH2 0x2557 JUMP JUMPDEST JUMPDEST SWAP1 PUSH1 0x0 MSTORE PUSH1 0x20 PUSH1 0x0 KECCAK256 ADD PUSH1 0x0 SWAP1 SLOAD SWAP1 PUSH2 0x100 EXP SWAP1 DIV PUSH20 0xFFFFFFFFFFFFFFFFFFFFFFFFFFFFFFFFFFFFFFFF AND PUSH20 0xFFFFFFFFFFFFFFFFFFFFFFFFFFFFFFFFFFFFFFFF AND PUSH20 0xFFFFFFFFFFFFFFFFFFFFFFFFFFFFFFFFFFFFFFFF AND DUP2 MSTORE PUSH1 0x20 ADD SWAP1 DUP2 MSTORE PUSH1 0x20 ADD PUSH1 0x0 KECCAK256 PUSH1 0x0 ADD PUSH1 0x0 SWAP1 SLOAD SWAP1 PUSH2 0x100 EXP SWAP1 DIV PUSH1 0xFF AND ISZERO ISZERO EQ ISZERO PUSH2 0x180A JUMPI PUSH1 0x8 PUSH1 0xA PUSH1 0x0 PUSH1 0x9 DUP5 PUSH1 0xFF AND DUP2 SLOAD DUP2 LT PUSH2 0x16BC JUMPI PUSH2 0x16BB PUSH2 0x2557 JUMP JUMPDEST JUMPDEST SWAP1 PUSH1 0x0 MSTORE PUSH1 0x20 PUSH1 0x0 KECCAK256 ADD PUSH1 0x0 SWAP1 SLOAD SWAP1 PUSH2 0x100 EXP SWAP1 DIV PUSH20 0xFFFFFFFFFFFFFFFFFFFFFFFFFFFFFFFFFFFFFFFF AND PUSH20 0xFFFFFFFFFFFFFFFFFFFFFFFFFFFFFFFFFFFFFFFF AND PUSH20 0xFFFFFFFFFFFFFFFFFFFFFFFFFFFFFFFFFFFFFFFF AND DUP2 MSTORE PUSH1 0x20 ADD SWAP1 DUP2 MSTORE PUSH1 0x20 ADD PUSH1 0x0 KECCAK256 SWAP1 DUP1 PUSH1 0x1 DUP2 SLOAD ADD DUP1 DUP3 SSTORE DUP1 SWAP2 POP POP PUSH1 0x1 SWAP1 SUB SWAP1 PUSH1 0x0 MSTORE PUSH1 0x20 PUSH1 0x0 KECCAK256 ADD PUSH1 0x0 SWAP1 SWAP2 SWAP1 SWAP2 SWAP1 SWAP2 POP PUSH1 0x0 DUP3 ADD PUSH1 0x0 SWAP1 SLOAD SWAP1 PUSH2 0x100 EXP SWAP1 DIV PUSH1 0xFF AND DUP2 PUSH1 0x0 ADD PUSH1 0x0 PUSH2 0x100 EXP DUP2 SLOAD DUP2 PUSH1 0xFF MUL NOT AND SWAP1 DUP4 ISZERO ISZERO MUL OR SWAP1 SSTORE POP PUSH1 0x0 DUP3 ADD PUSH1 0x1 SWAP1 SLOAD SWAP1 PUSH2 0x100 EXP SWAP1 DIV PUSH20 0xFFFFFFFFFFFFFFFFFFFFFFFFFFFFFFFFFFFFFFFF AND DUP2 PUSH1 0x0 ADD PUSH1 0x1 PUSH2 0x100 EXP DUP2 SLOAD DUP2 PUSH20 0xFFFFFFFFFFFFFFFFFFFFFFFFFFFFFFFFFFFFFFFF MUL NOT AND SWAP1 DUP4 PUSH20 0xFFFFFFFFFFFFFFFFFFFFFFFFFFFFFFFFFFFFFFFF AND MUL OR SWAP1 SSTORE POP PUSH1 0x0 DUP3 ADD PUSH1 0x15 SWAP1 SLOAD SWAP1 PUSH2 0x100 EXP SWAP1 DIV PUSH1 0xFF AND DUP2 PUSH1 0x0 ADD PUSH1 0x15 PUSH2 0x100 EXP DUP2 SLOAD DUP2 PUSH1 0xFF MUL NOT AND SWAP1 DUP4 ISZERO ISZERO MUL OR SWAP1 SSTORE POP POP POP JUMPDEST DUP1 DUP1 PUSH2 0x1815 SWAP1 PUSH2 0x24A0 JUMP JUMPDEST SWAP2 POP POP PUSH2 0x15F2 JUMP JUMPDEST POP PUSH1 0x1 PUSH1 0x7 PUSH1 0x0 DUP3 DUP3 SLOAD PUSH2 0x1831 SWAP2 SWAP1 PUSH2 0x22C5 JUMP JUMPDEST SWAP3 POP POP DUP2 SWAP1 SSTORE POP JUMP JUMPDEST PUSH1 0xA PUSH1 0x20 MSTORE DUP1 PUSH1 0x0 MSTORE PUSH1 0x40 PUSH1 0x0 KECCAK256 PUSH1 0x0 SWAP2 POP SWAP1 POP DUP1 PUSH1 0x0 ADD PUSH1 0x0 SWAP1 SLOAD SWAP1 PUSH2 0x100 EXP SWAP1 DIV PUSH1 0xFF AND SWAP1 DUP1 PUSH1 0x0 ADD PUSH1 0x1 SWAP1 SLOAD SWAP1 PUSH2 0x100 EXP SWAP1 DIV PUSH20 0xFFFFFFFFFFFFFFFFFFFFFFFFFFFFFFFFFFFFFFFF AND SWAP1 DUP1 PUSH1 0x0 ADD PUSH1 0x15 SWAP1 SLOAD SWAP1 PUSH2 0x100 EXP SWAP1 DIV PUSH1 0xFF AND SWAP1 POP DUP4 JUMP JUMPDEST PUSH1 0x60 PUSH1 0x0 DUP1 PUSH1 0x0 DUP1 PUSH1 0xB PUSH1 0x1 ADD PUSH1 0x1 SLOAD PUSH1 0x3 PUSH1 0x0 SWAP1 SLOAD SWAP1 PUSH2 0x100 EXP SWAP1 DIV PUSH20 0xFFFFFFFFFFFFFFFFFFFFFFFFFFFFFFFFFFFFFFFF AND PUSH1 0x4 SLOAD PUSH1 0x6 SLOAD DUP5 DUP1 SLOAD PUSH2 0x18E3 SWAP1 PUSH2 0x243D JUMP JUMPDEST DUP1 PUSH1 0x1F ADD PUSH1 0x20 DUP1 SWAP2 DIV MUL PUSH1 0x20 ADD PUSH1 0x40 MLOAD SWAP1 DUP2 ADD PUSH1 0x40 MSTORE DUP1 SWAP3 SWAP2 SWAP1 DUP2 DUP2 MSTORE PUSH1 0x20 ADD DUP3 DUP1 SLOAD PUSH2 0x190F SWAP1 PUSH2 0x243D JUMP JUMPDEST DUP1 ISZERO PUSH2 0x195C JUMPI DUP1 PUSH1 0x1F LT PUSH2 0x1931 JUMPI PUSH2 0x100 DUP1 DUP4 SLOAD DIV MUL DUP4 MSTORE SWAP2 PUSH1 0x20 ADD SWAP2 PUSH2 0x195C JUMP JUMPDEST DUP3 ADD SWAP2 SWAP1 PUSH1 0x0 MSTORE PUSH1 0x20 PUSH1 0x0 KECCAK256 SWAP1 JUMPDEST DUP2 SLOAD DUP2 MSTORE SWAP1 PUSH1 0x1 ADD SWAP1 PUSH1 0x20 ADD DUP1 DUP4 GT PUSH2 0x193F JUMPI DUP3 SWAP1 SUB PUSH1 0x1F AND DUP3 ADD SWAP2 JUMPDEST POP POP POP POP POP SWAP5 POP SWAP5 POP SWAP5 POP SWAP5 POP SWAP5 POP SWAP5 POP SWAP1 SWAP2 SWAP3 SWAP4 SWAP5 JUMP JUMPDEST PUSH1 0x7 SLOAD DUP2 JUMP JUMPDEST PUSH1 0x4 SLOAD DUP2 JUMP JUMPDEST PUSH1 0x8 DUP2 DUP2 SLOAD DUP2 LT PUSH2 0x1990 JUMPI PUSH1 0x0 DUP1 REVERT JUMPDEST SWAP1 PUSH1 0x0 MSTORE PUSH1 0x20 PUSH1 0x0 KECCAK256 ADD PUSH1 0x0 SWAP2 POP SWAP1 POP DUP1 PUSH1 0x0 ADD PUSH1 0x0 SWAP1 SLOAD SWAP1 PUSH2 0x100 EXP SWAP1 DIV PUSH1 0xFF AND SWAP1 DUP1 PUSH1 0x0 ADD PUSH1 0x1 SWAP1 SLOAD SWAP1 PUSH2 0x100 EXP SWAP1 DIV PUSH20 0xFFFFFFFFFFFFFFFFFFFFFFFFFFFFFFFFFFFFFFFF AND SWAP1 DUP1 PUSH1 0x0 ADD PUSH1 0x15 SWAP1 SLOAD SWAP1 PUSH2 0x100 EXP SWAP1 DIV PUSH1 0xFF AND SWAP1 POP DUP4 JUMP JUMPDEST PUSH1 0x0 DUP1 SLOAD SWAP1 PUSH2 0x100 EXP SWAP1 DIV PUSH20 0xFFFFFFFFFFFFFFFFFFFFFFFFFFFFFFFFFFFFFFFF AND DUP2 JUMP JUMPDEST PUSH1 0x40 MLOAD DUP1 PUSH1 0x40 ADD PUSH1 0x40 MSTORE DUP1 PUSH1 0x0 DUP2 MSTORE PUSH1 0x20 ADD PUSH1 0x60 DUP2 MSTORE POP SWAP1 JUMP JUMPDEST DUP3 DUP1 SLOAD PUSH2 0x1A3A SWAP1 PUSH2 0x243D JUMP JUMPDEST SWAP1 PUSH1 0x0 MSTORE PUSH1 0x20 PUSH1 0x0 KECCAK256 SWAP1 PUSH1 0x1F ADD PUSH1 0x20 SWAP1 DIV DUP2 ADD SWAP3 DUP3 PUSH2 0x1A5C JUMPI PUSH1 0x0 DUP6 SSTORE PUSH2 0x1AA3 JUMP JUMPDEST DUP3 PUSH1 0x1F LT PUSH2 0x1A75 JUMPI DUP1 MLOAD PUSH1 0xFF NOT AND DUP4 DUP1 ADD OR DUP6 SSTORE PUSH2 0x1AA3 JUMP JUMPDEST DUP3 DUP1 ADD PUSH1 0x1 ADD DUP6 SSTORE DUP3 ISZERO PUSH2 0x1AA3 JUMPI SWAP2 DUP3 ADD JUMPDEST DUP3 DUP2 GT ISZERO PUSH2 0x1AA2 JUMPI DUP3 MLOAD DUP3 SSTORE SWAP2 PUSH1 0x20 ADD SWAP2 SWAP1 PUSH1 0x1 ADD SWAP1 PUSH2 0x1A87 JUMP JUMPDEST JUMPDEST POP SWAP1 POP PUSH2 0x1AB0 SWAP2 SWAP1 PUSH2 0x1AB4 JUMP JUMPDEST POP SWAP1 JUMP JUMPDEST JUMPDEST DUP1 DUP3 GT ISZERO PUSH2 0x1ACD JUMPI PUSH1 0x0 DUP2 PUSH1 0x0 SWAP1 SSTORE POP PUSH1 0x1 ADD PUSH2 0x1AB5 JUMP JUMPDEST POP SWAP1 JUMP JUMPDEST PUSH1 0x0 PUSH2 0x1AE4 PUSH2 0x1ADF DUP5 PUSH2 0x222E JUMP JUMPDEST PUSH2 0x2209 JUMP JUMPDEST SWAP1 POP DUP3 DUP2 MSTORE PUSH1 0x20 DUP2 ADD DUP5 DUP5 DUP5 ADD GT ISZERO PUSH2 0x1B00 JUMPI PUSH2 0x1AFF PUSH2 0x25BA JUMP JUMPDEST JUMPDEST PUSH2 0x1B0B DUP5 DUP3 DUP6 PUSH2 0x23FB JUMP JUMPDEST POP SWAP4 SWAP3 POP POP POP JUMP JUMPDEST PUSH1 0x0 DUP2 CALLDATALOAD SWAP1 POP PUSH2 0x1B22 DUP2 PUSH2 0x280C JUMP JUMPDEST SWAP3 SWAP2 POP POP JUMP JUMPDEST PUSH1 0x0 DUP3 PUSH1 0x1F DUP4 ADD SLT PUSH2 0x1B3D JUMPI PUSH2 0x1B3C PUSH2 0x25B5 JUMP JUMPDEST JUMPDEST DUP2 CALLDATALOAD PUSH2 0x1B4D DUP5 DUP3 PUSH1 0x20 DUP7 ADD PUSH2 0x1AD1 JUMP JUMPDEST SWAP2 POP POP SWAP3 SWAP2 POP POP JUMP JUMPDEST PUSH1 0x0 DUP2 CALLDATALOAD SWAP1 POP PUSH2 0x1B65 DUP2 PUSH2 0x2823 JUMP JUMPDEST SWAP3 SWAP2 POP POP JUMP JUMPDEST PUSH1 0x0 PUSH1 0x20 DUP3 DUP5 SUB SLT ISZERO PUSH2 0x1B81 JUMPI PUSH2 0x1B80 PUSH2 0x25C4 JUMP JUMPDEST JUMPDEST PUSH1 0x0 PUSH2 0x1B8F DUP5 DUP3 DUP6 ADD PUSH2 0x1B13 JUMP JUMPDEST SWAP2 POP POP SWAP3 SWAP2 POP POP JUMP JUMPDEST PUSH1 0x0 PUSH1 0x20 DUP3 DUP5 SUB SLT ISZERO PUSH2 0x1BAE JUMPI PUSH2 0x1BAD PUSH2 0x25C4 JUMP JUMPDEST JUMPDEST PUSH1 0x0 DUP3 ADD CALLDATALOAD PUSH8 0xFFFFFFFFFFFFFFFF DUP2 GT ISZERO PUSH2 0x1BCC JUMPI PUSH2 0x1BCB PUSH2 0x25BF JUMP JUMPDEST JUMPDEST PUSH2 0x1BD8 DUP5 DUP3 DUP6 ADD PUSH2 0x1B28 JUMP JUMPDEST SWAP2 POP POP SWAP3 SWAP2 POP POP JUMP JUMPDEST PUSH1 0x0 PUSH1 0x20 DUP3 DUP5 SUB SLT ISZERO PUSH2 0x1BF7 JUMPI PUSH2 0x1BF6 PUSH2 0x25C4 JUMP JUMPDEST JUMPDEST PUSH1 0x0 PUSH2 0x1C05 DUP5 DUP3 DUP6 ADD PUSH2 0x1B56 JUMP JUMPDEST SWAP2 POP POP SWAP3 SWAP2 POP POP JUMP JUMPDEST PUSH1 0x0 PUSH2 0x1C1A DUP4 DUP4 PUSH2 0x1ECD JUMP JUMPDEST PUSH1 0x60 DUP4 ADD SWAP1 POP SWAP3 SWAP2 POP POP JUMP JUMPDEST PUSH2 0x1C2F DUP2 PUSH2 0x23A6 JUMP JUMPDEST DUP3 MSTORE POP POP JUMP JUMPDEST PUSH2 0x1C3E DUP2 PUSH2 0x23A6 JUMP JUMPDEST DUP3 MSTORE POP POP JUMP JUMPDEST PUSH1 0x0 PUSH2 0x1C4F DUP3 PUSH2 0x226F JUMP JUMPDEST PUSH2 0x1C59 DUP2 DUP6 PUSH2 0x2292 JUMP JUMPDEST SWAP4 POP PUSH2 0x1C64 DUP4 PUSH2 0x225F JUMP JUMPDEST DUP1 PUSH1 0x0 JUMPDEST DUP4 DUP2 LT ISZERO PUSH2 0x1C95 JUMPI DUP2 MLOAD PUSH2 0x1C7C DUP9 DUP3 PUSH2 0x1C0E JUMP JUMPDEST SWAP8 POP PUSH2 0x1C87 DUP4 PUSH2 0x2285 JUMP JUMPDEST SWAP3 POP POP PUSH1 0x1 DUP2 ADD SWAP1 POP PUSH2 0x1C68 JUMP JUMPDEST POP DUP6 SWAP4 POP POP POP POP SWAP3 SWAP2 POP POP JUMP JUMPDEST PUSH2 0x1CAB DUP2 PUSH2 0x23B8 JUMP JUMPDEST DUP3 MSTORE POP POP JUMP JUMPDEST PUSH2 0x1CBA DUP2 PUSH2 0x23B8 JUMP JUMPDEST DUP3 MSTORE POP POP JUMP JUMPDEST PUSH1 0x0 PUSH2 0x1CCB DUP3 PUSH2 0x227A JUMP JUMPDEST PUSH2 0x1CD5 DUP2 DUP6 PUSH2 0x22A3 JUMP JUMPDEST SWAP4 POP PUSH2 0x1CE5 DUP2 DUP6 PUSH1 0x20 DUP7 ADD PUSH2 0x240A JUMP JUMPDEST PUSH2 0x1CEE DUP2 PUSH2 0x25C9 JUMP JUMPDEST DUP5 ADD SWAP2 POP POP SWAP3 SWAP2 POP POP JUMP JUMPDEST PUSH1 0x0 PUSH2 0x1D04 DUP3 PUSH2 0x227A JUMP JUMPDEST PUSH2 0x1D0E DUP2 DUP6 PUSH2 0x22B4 JUMP JUMPDEST SWAP4 POP PUSH2 0x1D1E DUP2 DUP6 PUSH1 0x20 DUP7 ADD PUSH2 0x240A JUMP JUMPDEST PUSH2 0x1D27 DUP2 PUSH2 0x25C9 JUMP JUMPDEST DUP5 ADD SWAP2 POP POP SWAP3 SWAP2 POP POP JUMP JUMPDEST PUSH1 0x0 PUSH2 0x1D3F PUSH1 0x1F DUP4 PUSH2 0x22B4 JUMP JUMPDEST SWAP2 POP PUSH2 0x1D4A DUP3 PUSH2 0x25DA JUMP JUMPDEST PUSH1 0x20 DUP3 ADD SWAP1 POP SWAP2 SWAP1 POP JUMP JUMPDEST PUSH1 0x0 PUSH2 0x1D62 PUSH1 0x26 DUP4 PUSH2 0x22B4 JUMP JUMPDEST SWAP2 POP PUSH2 0x1D6D DUP3 PUSH2 0x2603 JUMP JUMPDEST PUSH1 0x40 DUP3 ADD SWAP1 POP SWAP2 SWAP1 POP JUMP JUMPDEST PUSH1 0x0 PUSH2 0x1D85 PUSH1 0x1C DUP4 PUSH2 0x22B4 JUMP JUMPDEST SWAP2 POP PUSH2 0x1D90 DUP3 PUSH2 0x2652 JUMP JUMPDEST PUSH1 0x20 DUP3 ADD SWAP1 POP SWAP2 SWAP1 POP JUMP JUMPDEST PUSH1 0x0 PUSH2 0x1DA8 PUSH1 0x15 DUP4 PUSH2 0x22B4 JUMP JUMPDEST SWAP2 POP PUSH2 0x1DB3 DUP3 PUSH2 0x267B JUMP JUMPDEST PUSH1 0x20 DUP3 ADD SWAP1 POP SWAP2 SWAP1 POP JUMP JUMPDEST PUSH1 0x0 PUSH2 0x1DCB PUSH1 0x1E DUP4 PUSH2 0x22B4 JUMP JUMPDEST SWAP2 POP PUSH2 0x1DD6 DUP3 PUSH2 0x26A4 JUMP JUMPDEST PUSH1 0x20 DUP3 ADD SWAP1 POP SWAP2 SWAP1 POP JUMP JUMPDEST PUSH1 0x0 PUSH2 0x1DEE PUSH1 0x24 DUP4 PUSH2 0x22B4 JUMP JUMPDEST SWAP2 POP PUSH2 0x1DF9 DUP3 PUSH2 0x26CD JUMP JUMPDEST PUSH1 0x40 DUP3 ADD SWAP1 POP SWAP2 SWAP1 POP JUMP JUMPDEST PUSH1 0x0 PUSH2 0x1E11 PUSH1 0x28 DUP4 PUSH2 0x22B4 JUMP JUMPDEST SWAP2 POP PUSH2 0x1E1C DUP3 PUSH2 0x271C JUMP JUMPDEST PUSH1 0x40 DUP3 ADD SWAP1 POP SWAP2 SWAP1 POP JUMP JUMPDEST PUSH1 0x0 PUSH2 0x1E34 PUSH1 0x20 DUP4 PUSH2 0x22B4 JUMP JUMPDEST SWAP2 POP PUSH2 0x1E3F DUP3 PUSH2 0x276B JUMP JUMPDEST PUSH1 0x20 DUP3 ADD SWAP1 POP SWAP2 SWAP1 POP JUMP JUMPDEST PUSH1 0x0 PUSH2 0x1E57 PUSH1 0x12 DUP4 PUSH2 0x22B4 JUMP JUMPDEST SWAP2 POP PUSH2 0x1E62 DUP3 PUSH2 0x2794 JUMP JUMPDEST PUSH1 0x20 DUP3 ADD SWAP1 POP SWAP2 SWAP1 POP JUMP JUMPDEST PUSH1 0x0 PUSH2 0x1E7A PUSH1 0x25 DUP4 PUSH2 0x22B4 JUMP JUMPDEST SWAP2 POP PUSH2 0x1E85 DUP3 PUSH2 0x27BD JUMP JUMPDEST PUSH1 0x40 DUP3 ADD SWAP1 POP SWAP2 SWAP1 POP JUMP JUMPDEST PUSH1 0x0 PUSH1 0x40 DUP4 ADD PUSH1 0x0 DUP4 ADD MLOAD PUSH2 0x1EA8 PUSH1 0x0 DUP7 ADD DUP3 PUSH2 0x1F0F JUMP JUMPDEST POP PUSH1 0x20 DUP4 ADD MLOAD DUP5 DUP3 SUB PUSH1 0x20 DUP7 ADD MSTORE PUSH2 0x1EC0 DUP3 DUP3 PUSH2 0x1CC0 JUMP JUMPDEST SWAP2 POP POP DUP1 SWAP2 POP POP SWAP3 SWAP2 POP POP JUMP JUMPDEST PUSH1 0x60 DUP3 ADD PUSH1 0x0 DUP3 ADD MLOAD PUSH2 0x1EE3 PUSH1 0x0 DUP6 ADD DUP3 PUSH2 0x1CA2 JUMP JUMPDEST POP PUSH1 0x20 DUP3 ADD MLOAD PUSH2 0x1EF6 PUSH1 0x20 DUP6 ADD DUP3 PUSH2 0x1C26 JUMP JUMPDEST POP PUSH1 0x40 DUP3 ADD MLOAD PUSH2 0x1F09 PUSH1 0x40 DUP6 ADD DUP3 PUSH2 0x1CA2 JUMP JUMPDEST POP POP POP POP JUMP JUMPDEST PUSH2 0x1F18 DUP2 PUSH2 0x23E4 JUMP JUMPDEST DUP3 MSTORE POP POP JUMP JUMPDEST PUSH2 0x1F27 DUP2 PUSH2 0x23E4 JUMP JUMPDEST DUP3 MSTORE POP POP JUMP JUMPDEST PUSH1 0x0 PUSH1 0x20 DUP3 ADD SWAP1 POP PUSH2 0x1F42 PUSH1 0x0 DUP4 ADD DUP5 PUSH2 0x1C35 JUMP JUMPDEST SWAP3 SWAP2 POP POP JUMP JUMPDEST PUSH1 0x0 PUSH1 0x60 DUP3 ADD SWAP1 POP PUSH2 0x1F5D PUSH1 0x0 DUP4 ADD DUP7 PUSH2 0x1CB1 JUMP JUMPDEST PUSH2 0x1F6A PUSH1 0x20 DUP4 ADD DUP6 PUSH2 0x1C35 JUMP JUMPDEST PUSH2 0x1F77 PUSH1 0x40 DUP4 ADD DUP5 PUSH2 0x1CB1 JUMP JUMPDEST SWAP5 SWAP4 POP POP POP POP JUMP JUMPDEST PUSH1 0x0 PUSH1 0x60 DUP3 ADD SWAP1 POP PUSH2 0x1F94 PUSH1 0x0 DUP4 ADD DUP7 PUSH2 0x1CB1 JUMP JUMPDEST PUSH2 0x1FA1 PUSH1 0x20 DUP4 ADD DUP6 PUSH2 0x1CB1 JUMP JUMPDEST PUSH2 0x1FAE PUSH1 0x40 DUP4 ADD DUP5 PUSH2 0x1C35 JUMP JUMPDEST SWAP5 SWAP4 POP POP POP POP JUMP JUMPDEST PUSH1 0x0 PUSH1 0x20 DUP3 ADD SWAP1 POP DUP2 DUP2 SUB PUSH1 0x0 DUP4 ADD MSTORE PUSH2 0x1FD0 DUP2 DUP5 PUSH2 0x1CF9 JUMP JUMPDEST SWAP1 POP SWAP3 SWAP2 POP POP JUMP JUMPDEST PUSH1 0x0 PUSH1 0x60 DUP3 ADD SWAP1 POP DUP2 DUP2 SUB PUSH1 0x0 DUP4 ADD MSTORE PUSH2 0x1FF2 DUP2 DUP7 PUSH2 0x1CF9 JUMP JUMPDEST SWAP1 POP DUP2 DUP2 SUB PUSH1 0x20 DUP4 ADD MSTORE PUSH2 0x2006 DUP2 DUP6 PUSH2 0x1E90 JUMP JUMPDEST SWAP1 POP DUP2 DUP2 SUB PUSH1 0x40 DUP4 ADD MSTORE PUSH2 0x201A DUP2 DUP5 PUSH2 0x1C44 JUMP JUMPDEST SWAP1 POP SWAP5 SWAP4 POP POP POP POP JUMP JUMPDEST PUSH1 0x0 PUSH1 0xA0 DUP3 ADD SWAP1 POP DUP2 DUP2 SUB PUSH1 0x0 DUP4 ADD MSTORE PUSH2 0x203E DUP2 DUP9 PUSH2 0x1CF9 JUMP JUMPDEST SWAP1 POP PUSH2 0x204D PUSH1 0x20 DUP4 ADD DUP8 PUSH2 0x1F1E JUMP JUMPDEST PUSH2 0x205A PUSH1 0x40 DUP4 ADD DUP7 PUSH2 0x1C35 JUMP JUMPDEST PUSH2 0x2067 PUSH1 0x60 DUP4 ADD DUP6 PUSH2 0x1F1E JUMP JUMPDEST PUSH2 0x2074 PUSH1 0x80 DUP4 ADD DUP5 PUSH2 0x1F1E JUMP JUMPDEST SWAP7 SWAP6 POP POP POP POP POP POP JUMP JUMPDEST PUSH1 0x0 PUSH1 0x20 DUP3 ADD SWAP1 POP DUP2 DUP2 SUB PUSH1 0x0 DUP4 ADD MSTORE PUSH2 0x2097 DUP2 PUSH2 0x1D32 JUMP JUMPDEST SWAP1 POP SWAP2 SWAP1 POP JUMP JUMPDEST PUSH1 0x0 PUSH1 0x20 DUP3 ADD SWAP1 POP DUP2 DUP2 SUB PUSH1 0x0 DUP4 ADD MSTORE PUSH2 0x20B7 DUP2 PUSH2 0x1D55 JUMP JUMPDEST SWAP1 POP SWAP2 SWAP1 POP JUMP JUMPDEST PUSH1 0x0 PUSH1 0x20 DUP3 ADD SWAP1 POP DUP2 DUP2 SUB PUSH1 0x0 DUP4 ADD MSTORE PUSH2 0x20D7 DUP2 PUSH2 0x1D78 JUMP JUMPDEST SWAP1 POP SWAP2 SWAP1 POP JUMP JUMPDEST PUSH1 0x0 PUSH1 0x20 DUP3 ADD SWAP1 POP DUP2 DUP2 SUB PUSH1 0x0 DUP4 ADD MSTORE PUSH2 0x20F7 DUP2 PUSH2 0x1D9B JUMP JUMPDEST SWAP1 POP SWAP2 SWAP1 POP JUMP JUMPDEST PUSH1 0x0 PUSH1 0x20 DUP3 ADD SWAP1 POP DUP2 DUP2 SUB PUSH1 0x0 DUP4 ADD MSTORE PUSH2 0x2117 DUP2 PUSH2 0x1DBE JUMP JUMPDEST SWAP1 POP SWAP2 SWAP1 POP JUMP JUMPDEST PUSH1 0x0 PUSH1 0x20 DUP3 ADD SWAP1 POP DUP2 DUP2 SUB PUSH1 0x0 DUP4 ADD MSTORE PUSH2 0x2137 DUP2 PUSH2 0x1DE1 JUMP JUMPDEST SWAP1 POP SWAP2 SWAP1 POP JUMP JUMPDEST PUSH1 0x0 PUSH1 0x20 DUP3 ADD SWAP1 POP DUP2 DUP2 SUB PUSH1 0x0 DUP4 ADD MSTORE PUSH2 0x2157 DUP2 PUSH2 0x1E04 JUMP JUMPDEST SWAP1 POP SWAP2 SWAP1 POP JUMP JUMPDEST PUSH1 0x0 PUSH1 0x20 DUP3 ADD SWAP1 POP DUP2 DUP2 SUB PUSH1 0x0 DUP4 ADD MSTORE PUSH2 0x2177 DUP2 PUSH2 0x1E27 JUMP JUMPDEST SWAP1 POP SWAP2 SWAP1 POP JUMP JUMPDEST PUSH1 0x0 PUSH1 0x20 DUP3 ADD SWAP1 POP DUP2 DUP2 SUB PUSH1 0x0 DUP4 ADD MSTORE PUSH2 0x2197 DUP2 PUSH2 0x1E4A JUMP JUMPDEST SWAP1 POP SWAP2 SWAP1 POP JUMP JUMPDEST PUSH1 0x0 PUSH1 0x20 DUP3 ADD SWAP1 POP DUP2 DUP2 SUB PUSH1 0x0 DUP4 ADD MSTORE PUSH2 0x21B7 DUP2 PUSH2 0x1E6D JUMP JUMPDEST SWAP1 POP SWAP2 SWAP1 POP JUMP JUMPDEST PUSH1 0x0 PUSH1 0x20 DUP3 ADD SWAP1 POP PUSH2 0x21D3 PUSH1 0x0 DUP4 ADD DUP5 PUSH2 0x1F1E JUMP JUMPDEST SWAP3 SWAP2 POP POP JUMP JUMPDEST PUSH1 0x0 PUSH1 0x40 DUP3 ADD SWAP1 POP PUSH2 0x21EE PUSH1 0x0 DUP4 ADD DUP6 PUSH2 0x1F1E JUMP JUMPDEST DUP2 DUP2 SUB PUSH1 0x20 DUP4 ADD MSTORE PUSH2 0x2200 DUP2 DUP5 PUSH2 0x1CF9 JUMP JUMPDEST SWAP1 POP SWAP4 SWAP3 POP POP POP JUMP JUMPDEST PUSH1 0x0 PUSH2 0x2213 PUSH2 0x2224 JUMP JUMPDEST SWAP1 POP PUSH2 0x221F DUP3 DUP3 PUSH2 0x246F JUMP JUMPDEST SWAP2 SWAP1 POP JUMP JUMPDEST PUSH1 0x0 PUSH1 0x40 MLOAD SWAP1 POP SWAP1 JUMP JUMPDEST PUSH1 0x0 PUSH8 0xFFFFFFFFFFFFFFFF DUP3 GT ISZERO PUSH2 0x2249 JUMPI PUSH2 0x2248 PUSH2 0x2586 JUMP JUMPDEST JUMPDEST PUSH2 0x2252 DUP3 PUSH2 0x25C9 JUMP JUMPDEST SWAP1 POP PUSH1 0x20 DUP2 ADD SWAP1 POP SWAP2 SWAP1 POP JUMP JUMPDEST PUSH1 0x0 DUP2 SWAP1 POP PUSH1 0x20 DUP3 ADD SWAP1 POP SWAP2 SWAP1 POP JUMP JUMPDEST PUSH1 0x0 DUP2 MLOAD SWAP1 POP SWAP2 SWAP1 POP JUMP JUMPDEST PUSH1 0x0 DUP2 MLOAD SWAP1 POP SWAP2 SWAP1 POP JUMP JUMPDEST PUSH1 0x0 PUSH1 0x20 DUP3 ADD SWAP1 POP SWAP2 SWAP1 POP JUMP JUMPDEST PUSH1 0x0 DUP3 DUP3 MSTORE PUSH1 0x20 DUP3 ADD SWAP1 POP SWAP3 SWAP2 POP POP JUMP JUMPDEST PUSH1 0x0 DUP3 DUP3 MSTORE PUSH1 0x20 DUP3 ADD SWAP1 POP SWAP3 SWAP2 POP POP JUMP JUMPDEST PUSH1 0x0 DUP3 DUP3 MSTORE PUSH1 0x20 DUP3 ADD SWAP1 POP SWAP3 SWAP2 POP POP JUMP JUMPDEST PUSH1 0x0 PUSH2 0x22D0 DUP3 PUSH2 0x23E4 JUMP JUMPDEST SWAP2 POP PUSH2 0x22DB DUP4 PUSH2 0x23E4 JUMP JUMPDEST SWAP3 POP DUP3 PUSH32 0xFFFFFFFFFFFFFFFFFFFFFFFFFFFFFFFFFFFFFFFFFFFFFFFFFFFFFFFFFFFFFFFF SUB DUP3 GT ISZERO PUSH2 0x2310 JUMPI PUSH2 0x230F PUSH2 0x24CA JUMP JUMPDEST JUMPDEST DUP3 DUP3 ADD SWAP1 POP SWAP3 SWAP2 POP POP JUMP JUMPDEST PUSH1 0x0 PUSH2 0x2326 DUP3 PUSH2 0x23E4 JUMP JUMPDEST SWAP2 POP PUSH2 0x2331 DUP4 PUSH2 0x23E4 JUMP JUMPDEST SWAP3 POP DUP3 PUSH2 0x2341 JUMPI PUSH2 0x2340 PUSH2 0x24F9 JUMP JUMPDEST JUMPDEST DUP3 DUP3 DIV SWAP1 POP SWAP3 SWAP2 POP POP JUMP JUMPDEST PUSH1 0x0 PUSH2 0x2357 DUP3 PUSH2 0x23E4 JUMP JUMPDEST SWAP2 POP PUSH2 0x2362 DUP4 PUSH2 0x23E4 JUMP JUMPDEST SWAP3 POP DUP2 PUSH32 0xFFFFFFFFFFFFFFFFFFFFFFFFFFFFFFFFFFFFFFFFFFFFFFFFFFFFFFFFFFFFFFFF DIV DUP4 GT DUP3 ISZERO ISZERO AND ISZERO PUSH2 0x239B JUMPI PUSH2 0x239A PUSH2 0x24CA JUMP JUMPDEST JUMPDEST DUP3 DUP3 MUL SWAP1 POP SWAP3 SWAP2 POP POP JUMP JUMPDEST PUSH1 0x0 PUSH2 0x23B1 DUP3 PUSH2 0x23C4 JUMP JUMPDEST SWAP1 POP SWAP2 SWAP1 POP JUMP JUMPDEST PUSH1 0x0 DUP2 ISZERO ISZERO SWAP1 POP SWAP2 SWAP1 POP JUMP JUMPDEST PUSH1 0x0 PUSH20 0xFFFFFFFFFFFFFFFFFFFFFFFFFFFFFFFFFFFFFFFF DUP3 AND SWAP1 POP SWAP2 SWAP1 POP JUMP JUMPDEST PUSH1 0x0 DUP2 SWAP1 POP SWAP2 SWAP1 POP JUMP JUMPDEST PUSH1 0x0 PUSH1 0xFF DUP3 AND SWAP1 POP SWAP2 SWAP1 POP JUMP JUMPDEST DUP3 DUP2 DUP4 CALLDATACOPY PUSH1 0x0 DUP4 DUP4 ADD MSTORE POP POP POP JUMP JUMPDEST PUSH1 0x0 JUMPDEST DUP4 DUP2 LT ISZERO PUSH2 0x2428 JUMPI DUP1 DUP3 ADD MLOAD DUP2 DUP5 ADD MSTORE PUSH1 0x20 DUP2 ADD SWAP1 POP PUSH2 0x240D JUMP JUMPDEST DUP4 DUP2 GT ISZERO PUSH2 0x2437 JUMPI PUSH1 0x0 DUP5 DUP5 ADD MSTORE JUMPDEST POP POP POP POP JUMP JUMPDEST PUSH1 0x0 PUSH1 0x2 DUP3 DIV SWAP1 POP PUSH1 0x1 DUP3 AND DUP1 PUSH2 0x2455 JUMPI PUSH1 0x7F DUP3 AND SWAP2 POP JUMPDEST PUSH1 0x20 DUP3 LT DUP2 EQ ISZERO PUSH2 0x2469 JUMPI PUSH2 0x2468 PUSH2 0x2528 JUMP JUMPDEST JUMPDEST POP SWAP2 SWAP1 POP JUMP JUMPDEST PUSH2 0x2478 DUP3 PUSH2 0x25C9 JUMP JUMPDEST DUP2 ADD DUP2 DUP2 LT PUSH8 0xFFFFFFFFFFFFFFFF DUP3 GT OR ISZERO PUSH2 0x2497 JUMPI PUSH2 0x2496 PUSH2 0x2586 JUMP JUMPDEST JUMPDEST DUP1 PUSH1 0x40 MSTORE POP POP POP JUMP JUMPDEST PUSH1 0x0 PUSH2 0x24AB DUP3 PUSH2 0x23EE JUMP JUMPDEST SWAP2 POP PUSH1 0xFF DUP3 EQ ISZERO PUSH2 0x24BF JUMPI PUSH2 0x24BE PUSH2 0x24CA JUMP JUMPDEST JUMPDEST PUSH1 0x1 DUP3 ADD SWAP1 POP SWAP2 SWAP1 POP JUMP JUMPDEST PUSH32 0x4E487B7100000000000000000000000000000000000000000000000000000000 PUSH1 0x0 MSTORE PUSH1 0x11 PUSH1 0x4 MSTORE PUSH1 0x24 PUSH1 0x0 REVERT JUMPDEST PUSH32 0x4E487B7100000000000000000000000000000000000000000000000000000000 PUSH1 0x0 MSTORE PUSH1 0x12 PUSH1 0x4 MSTORE PUSH1 0x24 PUSH1 0x0 REVERT JUMPDEST PUSH32 0x4E487B7100000000000000000000000000000000000000000000000000000000 PUSH1 0x0 MSTORE PUSH1 0x22 PUSH1 0x4 MSTORE PUSH1 0x24 PUSH1 0x0 REVERT JUMPDEST PUSH32 0x4E487B7100000000000000000000000000000000000000000000000000000000 PUSH1 0x0 MSTORE PUSH1 0x32 PUSH1 0x4 MSTORE PUSH1 0x24 PUSH1 0x0 REVERT JUMPDEST PUSH32 0x4E487B7100000000000000000000000000000000000000000000000000000000 PUSH1 0x0 MSTORE PUSH1 0x41 PUSH1 0x4 MSTORE PUSH1 0x24 PUSH1 0x0 REVERT JUMPDEST PUSH1 0x0 DUP1 REVERT JUMPDEST PUSH1 0x0 DUP1 REVERT JUMPDEST PUSH1 0x0 DUP1 REVERT JUMPDEST PUSH1 0x0 DUP1 REVERT JUMPDEST PUSH1 0x0 PUSH1 0x1F NOT PUSH1 0x1F DUP4 ADD AND SWAP1 POP SWAP2 SWAP1 POP JUMP JUMPDEST PUSH32 0x526563697069656E7420697320616C7265616479207265676973746572656400 PUSH1 0x0 DUP3 ADD MSTORE POP JUMP JUMPDEST PUSH32 0x596F75206172656E277420617574686F72697A6520746F20636F6D70696C6520 PUSH1 0x0 DUP3 ADD MSTORE PUSH32 0x42756E646C650000000000000000000000000000000000000000000000000000 PUSH1 0x20 DUP3 ADD MSTORE POP JUMP JUMPDEST PUSH32 0x596F7520616C72656164792073656E74206120726573706F6E73652E00000000 PUSH1 0x0 DUP3 ADD MSTORE POP JUMP JUMPDEST PUSH32 0x496E69746961746F722063616E277420766F7465210000000000000000000000 PUSH1 0x0 DUP3 ADD MSTORE POP JUMP JUMPDEST PUSH32 0x596F7520617265206E6F74207265676973746572656420746F20766F74650000 PUSH1 0x0 DUP3 ADD MSTORE POP JUMP JUMPDEST PUSH32 0x50726F706F73616C206861732072656163686564206974732065787069727920 PUSH1 0x0 DUP3 ADD MSTORE PUSH32 0x6461746500000000000000000000000000000000000000000000000000000000 PUSH1 0x20 DUP3 ADD MSTORE POP JUMP JUMPDEST PUSH32 0x4F6E6C7920696E69746961746F722063616E2072656769737465722061207265 PUSH1 0x0 DUP3 ADD MSTORE PUSH32 0x63697069656E742E000000000000000000000000000000000000000000000000 PUSH1 0x20 DUP3 ADD MSTORE POP JUMP JUMPDEST PUSH32 0x5665726469637420686173206E6F74206265656E207265616368656420796574 PUSH1 0x0 DUP3 ADD MSTORE POP JUMP JUMPDEST PUSH32 0x566F74696E672068617320657870697265640000000000000000000000000000 PUSH1 0x0 DUP3 ADD MSTORE POP JUMP JUMPDEST PUSH32 0x436F6E73656E7375732068617320616C7265616479206265656E2063616C6375 PUSH1 0x0 DUP3 ADD MSTORE PUSH32 0x6C61746564000000000000000000000000000000000000000000000000000000 PUSH1 0x20 DUP3 ADD MSTORE POP JUMP JUMPDEST PUSH2 0x2815 DUP2 PUSH2 0x23A6 JUMP JUMPDEST DUP2 EQ PUSH2 0x2820 JUMPI PUSH1 0x0 DUP1 REVERT JUMPDEST POP JUMP JUMPDEST PUSH2 0x282C DUP2 PUSH2 0x23E4 JUMP JUMPDEST DUP2 EQ PUSH2 0x2837 JUMPI PUSH1 0x0 DUP1 REVERT JUMPDEST POP JUMP INVALID LOG2 PUSH5 0x6970667358 0x22 SLT KECCAK256 MUL 0x27 0xC 0xD DELEGATECALL PUSH28 0x5042C8BDC4CE1F652E03DAD526ED5590E02B95F6BA22B991E8316473 PUSH16 0x6C634300080700330000000000000000 "
				},
				"gasEstimates": {
					"creation": {
						"codeDepositCost": "2070400",
						"executionCost": "infinite",
						"totalCost": "infinite"
					},
					"external": {
						"AccumulatedPercentage()": "2496",
						"BusinessRequirement()": "2495",
						"Consensus()": "infinite",
						"RegisterVoter(address)": "131017",
						"Vote(string)": "infinite",
						"contractAddress()": "2621",
						"getParameters()": "infinite",
						"getParameters2(address)": "infinite",
						"getValues()": "infinite",
						"initiator()": "2559",
						"keys(uint256)": "4980",
						"numApprovals()": "2518",
						"numberCompiled()": "2473",
						"proposal()": "infinite",
						"retrieve_bundle()": "infinite",
						"voters(uint256)": "infinite",
						"voters_map(address)": "infinite"
					}
				},
				"methodIdentifiers": {
					"AccumulatedPercentage()": "604c8333",
					"BusinessRequirement()": "d77aa749",
					"Consensus()": "95b02dfa",
					"RegisterVoter(address)": "15fe6f1b",
					"Vote(string)": "323082d7",
					"contractAddress()": "f6b4dfb4",
					"getParameters()": "a5ea11da",
					"getParameters2(address)": "5361a0ea",
					"getValues()": "19eb4a90",
					"initiator()": "5c39fcc1",
					"keys(uint256)": "0cb6aaf1",
					"numApprovals()": "7403c5e5",
					"numberCompiled()": "b9a29250",
					"proposal()": "753ec103",
					"retrieve_bundle()": "82316745",
					"voters(uint256)": "da58c7d9",
					"voters_map(address)": "9aa4bbdd"
				}
			},
			"storageLayout": {
				"storage": [
					{
						"astId": 15,
						"contract": "contracts/BusinessConsensus.sol:BusinessConsensus",
						"label": "contractAddress",
						"offset": 0,
						"slot": "0",
						"type": "t_address"
					},
					{
						"astId": 17,
						"contract": "contracts/BusinessConsensus.sol:BusinessConsensus",
						"label": "expiryDate",
						"offset": 0,
						"slot": "1",
						"type": "t_uint256"
					},
					{
						"astId": 19,
						"contract": "contracts/BusinessConsensus.sol:BusinessConsensus",
						"label": "finalVerdict",
						"offset": 0,
						"slot": "2",
						"type": "t_string_storage"
					},
					{
						"astId": 21,
						"contract": "contracts/BusinessConsensus.sol:BusinessConsensus",
						"label": "initiator",
						"offset": 0,
						"slot": "3",
						"type": "t_address"
					},
					{
						"astId": 23,
						"contract": "contracts/BusinessConsensus.sol:BusinessConsensus",
						"label": "BusinessRequirement",
						"offset": 0,
						"slot": "4",
						"type": "t_uint256"
					},
					{
						"astId": 25,
						"contract": "contracts/BusinessConsensus.sol:BusinessConsensus",
						"label": "AccumulatedPercentage",
						"offset": 0,
						"slot": "5",
						"type": "t_uint256"
					},
					{
						"astId": 27,
						"contract": "contracts/BusinessConsensus.sol:BusinessConsensus",
						"label": "numApprovals",
						"offset": 0,
						"slot": "6",
						"type": "t_uint256"
					},
					{
						"astId": 29,
						"contract": "contracts/BusinessConsensus.sol:BusinessConsensus",
						"label": "numberCompiled",
						"offset": 0,
						"slot": "7",
						"type": "t_uint256"
					},
					{
						"astId": 33,
						"contract": "contracts/BusinessConsensus.sol:BusinessConsensus",
						"label": "voters",
						"offset": 0,
						"slot": "8",
						"type": "t_array(t_struct(Voter)8_storage)dyn_storage"
					},
					{
						"astId": 36,
						"contract": "contracts/BusinessConsensus.sol:BusinessConsensus",
						"label": "keys",
						"offset": 0,
						"slot": "9",
						"type": "t_array(t_address)dyn_storage"
					},
					{
						"astId": 41,
						"contract": "contracts/BusinessConsensus.sol:BusinessConsensus",
						"label": "voters_map",
						"offset": 0,
						"slot": "10",
						"type": "t_mapping(t_address,t_struct(Voter)8_storage)"
					},
					{
						"astId": 44,
						"contract": "contracts/BusinessConsensus.sol:BusinessConsensus",
						"label": "proposal",
						"offset": 0,
						"slot": "11",
						"type": "t_struct(Proposal)13_storage"
					}
				],
				"types": {
					"t_address": {
						"encoding": "inplace",
						"label": "address",
						"numberOfBytes": "20"
					},
					"t_array(t_address)dyn_storage": {
						"base": "t_address",
						"encoding": "dynamic_array",
						"label": "address[]",
						"numberOfBytes": "32"
					},
					"t_array(t_struct(Voter)8_storage)dyn_storage": {
						"base": "t_struct(Voter)8_storage",
						"encoding": "dynamic_array",
						"label": "struct BusinessConsensus.Voter[]",
						"numberOfBytes": "32"
					},
					"t_bool": {
						"encoding": "inplace",
						"label": "bool",
						"numberOfBytes": "1"
					},
					"t_mapping(t_address,t_struct(Voter)8_storage)": {
						"encoding": "mapping",
						"key": "t_address",
						"label": "mapping(address => struct BusinessConsensus.Voter)",
						"numberOfBytes": "32",
						"value": "t_struct(Voter)8_storage"
					},
					"t_string_storage": {
						"encoding": "bytes",
						"label": "string",
						"numberOfBytes": "32"
					},
					"t_struct(Proposal)13_storage": {
						"encoding": "inplace",
						"label": "struct BusinessConsensus.Proposal",
						"members": [
							{
								"astId": 10,
								"contract": "contracts/BusinessConsensus.sol:BusinessConsensus",
								"label": "voteCount",
								"offset": 0,
								"slot": "0",
								"type": "t_uint256"
							},
							{
								"astId": 12,
								"contract": "contracts/BusinessConsensus.sol:BusinessConsensus",
								"label": "messageID",
								"offset": 0,
								"slot": "1",
								"type": "t_string_storage"
							}
						],
						"numberOfBytes": "64"
					},
					"t_struct(Voter)8_storage": {
						"encoding": "inplace",
						"label": "struct BusinessConsensus.Voter",
						"members": [
							{
								"astId": 3,
								"contract": "contracts/BusinessConsensus.sol:BusinessConsensus",
								"label": "voted",
								"offset": 0,
								"slot": "0",
								"type": "t_bool"
							},
							{
								"astId": 5,
								"contract": "contracts/BusinessConsensus.sol:BusinessConsensus",
								"label": "recipient",
								"offset": 1,
								"slot": "0",
								"type": "t_address"
							},
							{
								"astId": 7,
								"contract": "contracts/BusinessConsensus.sol:BusinessConsensus",
								"label": "vote",
								"offset": 21,
								"slot": "0",
								"type": "t_bool"
							}
						],
						"numberOfBytes": "32"
					},
					"t_uint256": {
						"encoding": "inplace",
						"label": "uint256",
						"numberOfBytes": "32"
					}
				}
			},
			"userdoc": {
				"kind": "user",
				"methods": {
					"Consensus()": {
						"notice": "compile all relevant information into a Bundle"
					}
				},
				"version": 1
			}
		}
	}
}