{
	"contracts/BusinessConsensus2.sol": {
		"BusinessConsensus2": {
			"abi": [
				{
					"inputs": [
						{
							"internalType": "string",
							"name": "_messageID",
							"type": "string"
						}
					],
					"name": "Consensus",
					"outputs": [],
					"stateMutability": "nonpayable",
					"type": "function"
				},
				{
					"inputs": [
						{
							"internalType": "address",
							"name": "voter",
							"type": "address"
						},
						{
							"internalType": "string",
							"name": "_messageID",
							"type": "string"
						}
					],
					"name": "RegisterVoter",
					"outputs": [],
					"stateMutability": "nonpayable",
					"type": "function"
				},
				{
					"inputs": [
						{
							"internalType": "string",
							"name": "response",
							"type": "string"
						},
						{
							"internalType": "string",
							"name": "_messageID",
							"type": "string"
						}
					],
					"name": "Vote",
					"outputs": [],
					"stateMutability": "nonpayable",
					"type": "function"
				},
				{
					"inputs": [
						{
							"internalType": "string",
							"name": "",
							"type": "string"
						},
						{
							"internalType": "uint256",
							"name": "",
							"type": "uint256"
						}
					],
					"name": "Voters",
					"outputs": [
						{
							"internalType": "bool",
							"name": "voted",
							"type": "bool"
						},
						{
							"internalType": "bool",
							"name": "vote",
							"type": "bool"
						},
						{
							"internalType": "address",
							"name": "recipient",
							"type": "address"
						}
					],
					"stateMutability": "view",
					"type": "function"
				},
				{
					"inputs": [
						{
							"internalType": "string",
							"name": "",
							"type": "string"
						}
					],
					"name": "businessProposals",
					"outputs": [
						{
							"internalType": "string",
							"name": "messageID",
							"type": "string"
						},
						{
							"internalType": "address",
							"name": "initiator",
							"type": "address"
						},
						{
							"internalType": "address",
							"name": "contractAddress",
							"type": "address"
						},
						{
							"internalType": "uint256",
							"name": "voteCount",
							"type": "uint256"
						},
						{
							"internalType": "uint256",
							"name": "expiryDate",
							"type": "uint256"
						},
						{
							"internalType": "uint256",
							"name": "BusinessRequirement",
							"type": "uint256"
						},
						{
							"internalType": "uint256",
							"name": "numApprovals",
							"type": "uint256"
						},
						{
							"internalType": "bool",
							"name": "isCompiled",
							"type": "bool"
						},
						{
							"internalType": "bytes32",
							"name": "finalVerdict",
							"type": "bytes32"
						}
					],
					"stateMutability": "view",
					"type": "function"
				},
				{
					"inputs": [
						{
							"internalType": "string",
							"name": "_messageID",
							"type": "string"
						},
						{
							"internalType": "uint256",
							"name": "expiry",
							"type": "uint256"
						},
						{
							"internalType": "uint256",
							"name": "requiredPercentage",
							"type": "uint256"
						}
					],
					"name": "createContract",
					"outputs": [],
					"stateMutability": "nonpayable",
					"type": "function"
				},
				{
					"inputs": [
						{
							"internalType": "string",
							"name": "_messageID",
							"type": "string"
						}
					],
					"name": "getIsCompiled",
					"outputs": [
						{
							"internalType": "bool",
							"name": "",
							"type": "bool"
						}
					],
					"stateMutability": "view",
					"type": "function"
				},
				{
					"inputs": [
						{
							"internalType": "string",
							"name": "_messageID",
							"type": "string"
						}
					],
					"name": "getParameters",
					"outputs": [
						{
							"internalType": "string",
							"name": "",
							"type": "string"
						},
						{
							"internalType": "uint256",
							"name": "",
							"type": "uint256"
						},
						{
							"internalType": "address",
							"name": "",
							"type": "address"
						},
						{
							"internalType": "uint256",
							"name": "",
							"type": "uint256"
						},
						{
							"internalType": "uint256",
							"name": "",
							"type": "uint256"
						}
					],
					"stateMutability": "view",
					"type": "function"
				},
				{
					"inputs": [
						{
							"internalType": "address",
							"name": "test_address",
							"type": "address"
						},
						{
							"internalType": "string",
							"name": "_messageID",
							"type": "string"
						}
					],
					"name": "getParameters2",
					"outputs": [
						{
							"internalType": "bool",
							"name": "",
							"type": "bool"
						},
						{
							"internalType": "bool",
							"name": "",
							"type": "bool"
						},
						{
							"internalType": "address",
							"name": "",
							"type": "address"
						}
					],
					"stateMutability": "view",
					"type": "function"
				},
				{
					"inputs": [
						{
							"internalType": "string",
							"name": "_messageID",
							"type": "string"
						}
					],
					"name": "getValues",
					"outputs": [
						{
							"internalType": "string",
							"name": "",
							"type": "string"
						}
					],
					"stateMutability": "view",
					"type": "function"
				},
				{
					"inputs": [
						{
							"internalType": "string",
							"name": "",
							"type": "string"
						},
						{
							"internalType": "uint256",
							"name": "",
							"type": "uint256"
						}
					],
					"name": "keys",
					"outputs": [
						{
							"internalType": "address",
							"name": "",
							"type": "address"
						}
					],
					"stateMutability": "view",
					"type": "function"
				},
				{
					"inputs": [
						{
							"internalType": "string",
							"name": "_messageID",
							"type": "string"
						}
					],
					"name": "retrieve_bundle",
					"outputs": [
						{
							"internalType": "bytes32",
							"name": "",
							"type": "bytes32"
						},
						{
							"internalType": "string",
							"name": "",
							"type": "string"
						},
						{
							"internalType": "uint256",
							"name": "",
							"type": "uint256"
						},
						{
							"components": [
								{
									"internalType": "bool",
									"name": "voted",
									"type": "bool"
								},
								{
									"internalType": "bool",
									"name": "vote",
									"type": "bool"
								},
								{
									"internalType": "address",
									"name": "recipient",
									"type": "address"
								}
							],
							"internalType": "struct BusinessConsensus2.Voter[]",
							"name": "",
							"type": "tuple[]"
						}
					],
					"stateMutability": "view",
					"type": "function"
				},
				{
					"inputs": [
						{
							"internalType": "string",
							"name": "",
							"type": "string"
						},
						{
							"internalType": "address",
							"name": "",
							"type": "address"
						}
					],
					"name": "voter_maps",
					"outputs": [
						{
							"internalType": "bool",
							"name": "voted",
							"type": "bool"
						},
						{
							"internalType": "bool",
							"name": "vote",
							"type": "bool"
						},
						{
							"internalType": "address",
							"name": "recipient",
							"type": "address"
						}
					],
					"stateMutability": "view",
					"type": "function"
				}
			],
			"devdoc": {
				"kind": "dev",
				"methods": {},
				"version": 1
			},
			"evm": {
				"assembly": "    /* \"contracts/BusinessConsensus2.sol\":33:6873  contract BusinessConsensus2{\r... */\n  mstore(0x40, 0x80)\n  callvalue\n  dup1\n  iszero\n  tag_1\n  jumpi\n  0x00\n  dup1\n  revert\ntag_1:\n  pop\n  dataSize(sub_0)\n  dup1\n  dataOffset(sub_0)\n  0x00\n  codecopy\n  0x00\n  return\nstop\n\nsub_0: assembly {\n        /* \"contracts/BusinessConsensus2.sol\":33:6873  contract BusinessConsensus2{\r... */\n      mstore(0x40, 0x80)\n      callvalue\n      dup1\n      iszero\n      tag_1\n      jumpi\n      0x00\n      dup1\n      revert\n    tag_1:\n      pop\n      jumpi(tag_2, lt(calldatasize, 0x04))\n      shr(0xe0, calldataload(0x00))\n      dup1\n      0x3d63af0e\n      gt\n      tag_16\n      jumpi\n      dup1\n      0x883a9673\n      gt\n      tag_17\n      jumpi\n      dup1\n      0x883a9673\n      eq\n      tag_12\n      jumpi\n      dup1\n      0x8f6a35b7\n      eq\n      tag_13\n      jumpi\n      dup1\n      0xc99ba896\n      eq\n      tag_14\n      jumpi\n      dup1\n      0xec548680\n      eq\n      tag_15\n      jumpi\n      jump(tag_2)\n    tag_17:\n      dup1\n      0x3d63af0e\n      eq\n      tag_9\n      jumpi\n      dup1\n      0x5a0a1390\n      eq\n      tag_10\n      jumpi\n      dup1\n      0x7b735c46\n      eq\n      tag_11\n      jumpi\n      jump(tag_2)\n    tag_16:\n      dup1\n      0x06699b01\n      eq\n      tag_3\n      jumpi\n      dup1\n      0x089a4c60\n      eq\n      tag_4\n      jumpi\n      dup1\n      0x0a5c8d5e\n      eq\n      tag_5\n      jumpi\n      dup1\n      0x17072d6b\n      eq\n      tag_6\n      jumpi\n      dup1\n      0x33a0b0ab\n      eq\n      tag_7\n      jumpi\n      dup1\n      0x37f2e190\n      eq\n      tag_8\n      jumpi\n    tag_2:\n      0x00\n      dup1\n      revert\n        /* \"contracts/BusinessConsensus2.sol\":1070:1108  mapping(string=>address[]) public keys */\n    tag_3:\n      tag_18\n      0x04\n      dup1\n      calldatasize\n      sub\n      dup2\n      add\n      swap1\n      tag_19\n      swap2\n      swap1\n      tag_20\n      jump\t// in\n    tag_19:\n      tag_21\n      jump\t// in\n    tag_18:\n      mload(0x40)\n      tag_22\n      swap2\n      swap1\n      tag_23\n      jump\t// in\n    tag_22:\n      mload(0x40)\n      dup1\n      swap2\n      sub\n      swap1\n      return\n        /* \"contracts/BusinessConsensus2.sol\":903:953  mapping(string=>Proposal) public businessProposals */\n    tag_4:\n      tag_24\n      0x04\n      dup1\n      calldatasize\n      sub\n      dup2\n      add\n      swap1\n      tag_25\n      swap2\n      swap1\n      tag_26\n      jump\t// in\n    tag_25:\n      tag_27\n      jump\t// in\n    tag_24:\n      mload(0x40)\n      tag_28\n      swap10\n      swap9\n      swap8\n      swap7\n      swap6\n      swap5\n      swap4\n      swap3\n      swap2\n      swap1\n      tag_29\n      jump\t// in\n    tag_28:\n      mload(0x40)\n      dup1\n      swap2\n      sub\n      swap1\n      return\n        /* \"contracts/BusinessConsensus2.sol\":1121:1928  function createContract(string memory _messageID, uint256 expiry, uint256 requiredPercentage) external{\r... */\n    tag_5:\n      tag_30\n      0x04\n      dup1\n      calldatasize\n      sub\n      dup2\n      add\n      swap1\n      tag_31\n      swap2\n      swap1\n      tag_32\n      jump\t// in\n    tag_31:\n      tag_33\n      jump\t// in\n    tag_30:\n      stop\n        /* \"contracts/BusinessConsensus2.sol\":3787:5178  function Vote(string memory response,string calldata _messageID) external {\r... */\n    tag_6:\n      tag_34\n      0x04\n      dup1\n      calldatasize\n      sub\n      dup2\n      add\n      swap1\n      tag_35\n      swap2\n      swap1\n      tag_36\n      jump\t// in\n    tag_35:\n      tag_37\n      jump\t// in\n    tag_34:\n      stop\n        /* \"contracts/BusinessConsensus2.sol\":960:1018  mapping(string=>mapping(address=>Voter)) public voter_maps */\n    tag_7:\n      tag_38\n      0x04\n      dup1\n      calldatasize\n      sub\n      dup2\n      add\n      swap1\n      tag_39\n      swap2\n      swap1\n      tag_40\n      jump\t// in\n    tag_39:\n      tag_41\n      jump\t// in\n    tag_38:\n      mload(0x40)\n      tag_42\n      swap4\n      swap3\n      swap2\n      swap1\n      tag_43\n      jump\t// in\n    tag_42:\n      mload(0x40)\n      dup1\n      swap2\n      sub\n      swap1\n      return\n        /* \"contracts/BusinessConsensus2.sol\":6309:6868  function retrieve_bundle(string calldata _messageID) external view returns (bytes32, string memory, uint256, Voter[] memory){\r... */\n    tag_8:\n      tag_44\n      0x04\n      dup1\n      calldatasize\n      sub\n      dup2\n      add\n      swap1\n      tag_45\n      swap2\n      swap1\n      tag_46\n      jump\t// in\n    tag_45:\n      tag_47\n      jump\t// in\n    tag_44:\n      mload(0x40)\n      tag_48\n      swap5\n      swap4\n      swap3\n      swap2\n      swap1\n      tag_49\n      jump\t// in\n    tag_48:\n      mload(0x40)\n      dup1\n      swap2\n      sub\n      swap1\n      return\n        /* \"contracts/BusinessConsensus2.sol\":2982:3779  function RegisterVoter(address voter,string calldata _messageID) external {\r... */\n    tag_9:\n      tag_50\n      0x04\n      dup1\n      calldatasize\n      sub\n      dup2\n      add\n      swap1\n      tag_51\n      swap2\n      swap1\n      tag_52\n      jump\t// in\n    tag_51:\n      tag_53\n      jump\t// in\n    tag_50:\n      stop\n        /* \"contracts/BusinessConsensus2.sol\":2236:2593  function getParameters(string calldata _messageID) external view returns (string memory, uint , address ,uint ,uint){\r... */\n    tag_10:\n      tag_54\n      0x04\n      dup1\n      calldatasize\n      sub\n      dup2\n      add\n      swap1\n      tag_55\n      swap2\n      swap1\n      tag_46\n      jump\t// in\n    tag_55:\n      tag_56\n      jump\t// in\n    tag_54:\n      mload(0x40)\n      tag_57\n      swap6\n      swap5\n      swap4\n      swap3\n      swap2\n      swap1\n      tag_58\n      jump\t// in\n    tag_57:\n      mload(0x40)\n      dup1\n      swap2\n      sub\n      swap1\n      return\n        /* \"contracts/BusinessConsensus2.sol\":2599:2876  function getParameters2(address test_address,string calldata _messageID) external view returns (bool, bool, address){\r... */\n    tag_11:\n      tag_59\n      0x04\n      dup1\n      calldatasize\n      sub\n      dup2\n      add\n      swap1\n      tag_60\n      swap2\n      swap1\n      tag_52\n      jump\t// in\n    tag_60:\n      tag_61\n      jump\t// in\n    tag_59:\n      mload(0x40)\n      tag_62\n      swap4\n      swap3\n      swap2\n      swap1\n      tag_43\n      jump\t// in\n    tag_62:\n      mload(0x40)\n      dup1\n      swap2\n      sub\n      swap1\n      return\n        /* \"contracts/BusinessConsensus2.sol\":5242:6301  function Consensus(string calldata _messageID) external {\r... */\n    tag_12:\n      tag_63\n      0x04\n      dup1\n      calldatasize\n      sub\n      dup2\n      add\n      swap1\n      tag_64\n      swap2\n      swap1\n      tag_46\n      jump\t// in\n    tag_64:\n      tag_65\n      jump\t// in\n    tag_63:\n      stop\n        /* \"contracts/BusinessConsensus2.sol\":1025:1063  mapping(string=>Voter[]) public Voters */\n    tag_13:\n      tag_66\n      0x04\n      dup1\n      calldatasize\n      sub\n      dup2\n      add\n      swap1\n      tag_67\n      swap2\n      swap1\n      tag_20\n      jump\t// in\n    tag_67:\n      tag_68\n      jump\t// in\n    tag_66:\n      mload(0x40)\n      tag_69\n      swap4\n      swap3\n      swap2\n      swap1\n      tag_43\n      jump\t// in\n    tag_69:\n      mload(0x40)\n      dup1\n      swap2\n      sub\n      swap1\n      return\n        /* \"contracts/BusinessConsensus2.sol\":1934:2081  function getValues(string calldata _messageID) public view returns (string memory){\r... */\n    tag_14:\n      tag_70\n      0x04\n      dup1\n      calldatasize\n      sub\n      dup2\n      add\n      swap1\n      tag_71\n      swap2\n      swap1\n      tag_46\n      jump\t// in\n    tag_71:\n      tag_72\n      jump\t// in\n    tag_70:\n      mload(0x40)\n      tag_73\n      swap2\n      swap1\n      tag_74\n      jump\t// in\n    tag_73:\n      mload(0x40)\n      dup1\n      swap2\n      sub\n      swap1\n      return\n        /* \"contracts/BusinessConsensus2.sol\":2087:2230  function getIsCompiled(string calldata _messageID) public view returns (bool){\r... */\n    tag_15:\n      tag_75\n      0x04\n      dup1\n      calldatasize\n      sub\n      dup2\n      add\n      swap1\n      tag_76\n      swap2\n      swap1\n      tag_46\n      jump\t// in\n    tag_76:\n      tag_77\n      jump\t// in\n    tag_75:\n      mload(0x40)\n      tag_78\n      swap2\n      swap1\n      tag_79\n      jump\t// in\n    tag_78:\n      mload(0x40)\n      dup1\n      swap2\n      sub\n      swap1\n      return\n        /* \"contracts/BusinessConsensus2.sol\":1070:1108  mapping(string=>address[]) public keys */\n    tag_21:\n      0x03\n      dup3\n      dup1\n      mload\n      0x20\n      dup2\n      add\n      dup3\n      add\n      dup1\n      mload\n      dup5\n      dup3\n      mstore\n      0x20\n      dup4\n      add\n      0x20\n      dup6\n      add\n      keccak256\n      dup2\n      dup4\n      mstore\n      dup1\n      swap6\n      pop\n      pop\n      pop\n      pop\n      pop\n      pop\n      dup2\n      dup2\n      sload\n      dup2\n      lt\n      tag_80\n      jumpi\n      0x00\n      dup1\n      revert\n    tag_80:\n      swap1\n      0x00\n      mstore\n      keccak256(0x00, 0x20)\n      add\n      0x00\n      swap2\n      pop\n      swap2\n      pop\n      swap1\n      sload\n      swap1\n      0x0100\n      exp\n      swap1\n      div\n      0xffffffffffffffffffffffffffffffffffffffff\n      and\n      dup2\n      jump\t// out\n        /* \"contracts/BusinessConsensus2.sol\":903:953  mapping(string=>Proposal) public businessProposals */\n    tag_27:\n      0x00\n      dup2\n      dup1\n      mload\n      0x20\n      dup2\n      add\n      dup3\n      add\n      dup1\n      mload\n      dup5\n      dup3\n      mstore\n      0x20\n      dup4\n      add\n      0x20\n      dup6\n      add\n      keccak256\n      dup2\n      dup4\n      mstore\n      dup1\n      swap6\n      pop\n      pop\n      pop\n      pop\n      pop\n      pop\n      0x00\n      swap2\n      pop\n      swap1\n      pop\n      dup1\n      0x00\n      add\n      dup1\n      sload\n      tag_82\n      swap1\n      tag_83\n      jump\t// in\n    tag_82:\n      dup1\n      0x1f\n      add\n      0x20\n      dup1\n      swap2\n      div\n      mul\n      0x20\n      add\n      mload(0x40)\n      swap1\n      dup2\n      add\n      0x40\n      mstore\n      dup1\n      swap3\n      swap2\n      swap1\n      dup2\n      dup2\n      mstore\n      0x20\n      add\n      dup3\n      dup1\n      sload\n      tag_84\n      swap1\n      tag_83\n      jump\t// in\n    tag_84:\n      dup1\n      iszero\n      tag_85\n      jumpi\n      dup1\n      0x1f\n      lt\n      tag_86\n      jumpi\n      0x0100\n      dup1\n      dup4\n      sload\n      div\n      mul\n      dup4\n      mstore\n      swap2\n      0x20\n      add\n      swap2\n      jump(tag_85)\n    tag_86:\n      dup3\n      add\n      swap2\n      swap1\n      0x00\n      mstore\n      keccak256(0x00, 0x20)\n      swap1\n    tag_87:\n      dup2\n      sload\n      dup2\n      mstore\n      swap1\n      0x01\n      add\n      swap1\n      0x20\n      add\n      dup1\n      dup4\n      gt\n      tag_87\n      jumpi\n      dup3\n      swap1\n      sub\n      0x1f\n      and\n      dup3\n      add\n      swap2\n    tag_85:\n      pop\n      pop\n      pop\n      pop\n      pop\n      swap1\n      dup1\n      0x01\n      add\n      0x00\n      swap1\n      sload\n      swap1\n      0x0100\n      exp\n      swap1\n      div\n      0xffffffffffffffffffffffffffffffffffffffff\n      and\n      swap1\n      dup1\n      0x02\n      add\n      0x00\n      swap1\n      sload\n      swap1\n      0x0100\n      exp\n      swap1\n      div\n      0xffffffffffffffffffffffffffffffffffffffff\n      and\n      swap1\n      dup1\n      0x03\n      add\n      sload\n      swap1\n      dup1\n      0x04\n      add\n      sload\n      swap1\n      dup1\n      0x05\n      add\n      sload\n      swap1\n      dup1\n      0x06\n      add\n      sload\n      swap1\n      dup1\n      0x07\n      add\n      0x00\n      swap1\n      sload\n      swap1\n      0x0100\n      exp\n      swap1\n      div\n      0xff\n      and\n      swap1\n      dup1\n      0x08\n      add\n      sload\n      swap1\n      pop\n      dup10\n      jump\t// out\n        /* \"contracts/BusinessConsensus2.sol\":1121:1928  function createContract(string memory _messageID, uint256 expiry, uint256 requiredPercentage) external{\r... */\n    tag_33:\n        /* \"contracts/BusinessConsensus2.sol\":1378:1379  0 */\n      0x00\n        /* \"contracts/BusinessConsensus2.sol\":1327:1380  businessProposals[_messageID].initiator == address(0) */\n      0xffffffffffffffffffffffffffffffffffffffff\n      and\n        /* \"contracts/BusinessConsensus2.sol\":1327:1344  businessProposals */\n      0x00\n        /* \"contracts/BusinessConsensus2.sol\":1345:1355  _messageID */\n      dup5\n        /* \"contracts/BusinessConsensus2.sol\":1327:1356  businessProposals[_messageID] */\n      mload(0x40)\n      tag_89\n      swap2\n      swap1\n      tag_90\n      jump\t// in\n    tag_89:\n      swap1\n      dup2\n      mstore\n      0x20\n      add\n      mload(0x40)\n      dup1\n      swap2\n      sub\n      swap1\n      keccak256\n        /* \"contracts/BusinessConsensus2.sol\":1327:1366  businessProposals[_messageID].initiator */\n      0x01\n      add\n      0x00\n      swap1\n      sload\n      swap1\n      0x0100\n      exp\n      swap1\n      div\n      0xffffffffffffffffffffffffffffffffffffffff\n      and\n        /* \"contracts/BusinessConsensus2.sol\":1327:1380  businessProposals[_messageID].initiator == address(0) */\n      0xffffffffffffffffffffffffffffffffffffffff\n      and\n      eq\n        /* \"contracts/BusinessConsensus2.sol\":1319:1409  require(businessProposals[_messageID].initiator == address(0),\"Proposal already created!\") */\n      tag_91\n      jumpi\n      mload(0x40)\n      0x08c379a000000000000000000000000000000000000000000000000000000000\n      dup2\n      mstore\n      0x04\n      add\n      tag_92\n      swap1\n      tag_93\n      jump\t// in\n    tag_92:\n      mload(0x40)\n      dup1\n      swap2\n      sub\n      swap1\n      revert\n    tag_91:\n        /* \"contracts/BusinessConsensus2.sol\":1420:1444  Proposal memory proposal */\n      0x00\n        /* \"contracts/BusinessConsensus2.sol\":1447:1865  Proposal({\r... */\n      mload(0x40)\n      dup1\n      0x0120\n      add\n      0x40\n      mstore\n      dup1\n        /* \"contracts/BusinessConsensus2.sol\":1517:1527  _messageID */\n      dup6\n        /* \"contracts/BusinessConsensus2.sol\":1447:1865  Proposal({\r... */\n      dup2\n      mstore\n      0x20\n      add\n        /* \"contracts/BusinessConsensus2.sol\":1689:1699  msg.sender */\n      caller\n        /* \"contracts/BusinessConsensus2.sol\":1447:1865  Proposal({\r... */\n      0xffffffffffffffffffffffffffffffffffffffff\n      and\n      dup2\n      mstore\n      0x20\n      add\n        /* \"contracts/BusinessConsensus2.sol\":1572:1576  this */\n      address\n        /* \"contracts/BusinessConsensus2.sol\":1447:1865  Proposal({\r... */\n      0xffffffffffffffffffffffffffffffffffffffff\n      and\n      dup2\n      mstore\n      0x20\n      add\n        /* \"contracts/BusinessConsensus2.sol\":1486:1487  0 */\n      0x00\n        /* \"contracts/BusinessConsensus2.sol\":1447:1865  Proposal({\r... */\n      dup2\n      mstore\n      0x20\n      add\n        /* \"contracts/BusinessConsensus2.sol\":1749:1755  expiry */\n      dup5\n        /* \"contracts/BusinessConsensus2.sol\":1731:1746  block.timestamp */\n      timestamp\n        /* \"contracts/BusinessConsensus2.sol\":1731:1755  block.timestamp + expiry */\n      tag_94\n      swap2\n      swap1\n      tag_95\n      jump\t// in\n    tag_94:\n        /* \"contracts/BusinessConsensus2.sol\":1447:1865  Proposal({\r... */\n      dup2\n      mstore\n      0x20\n      add\n        /* \"contracts/BusinessConsensus2.sol\":1796:1814  requiredPercentage */\n      dup4\n        /* \"contracts/BusinessConsensus2.sol\":1447:1865  Proposal({\r... */\n      dup2\n      mstore\n      0x20\n      add\n        /* \"contracts/BusinessConsensus2.sol\":1848:1849  0 */\n      0x00\n        /* \"contracts/BusinessConsensus2.sol\":1447:1865  Proposal({\r... */\n      dup2\n      mstore\n      0x20\n      add\n        /* \"contracts/BusinessConsensus2.sol\":1653:1658  false */\n      0x00\n        /* \"contracts/BusinessConsensus2.sol\":1447:1865  Proposal({\r... */\n      iszero\n      iszero\n      dup2\n      mstore\n      0x20\n      add\n      0x52656a6563746564000000000000000000000000000000000000000000000000\n      dup2\n      mstore\n      pop\n        /* \"contracts/BusinessConsensus2.sol\":1420:1865  Proposal memory proposal = Proposal({\r... */\n      swap1\n      pop\n        /* \"contracts/BusinessConsensus2.sol\":1912:1920  proposal */\n      dup1\n        /* \"contracts/BusinessConsensus2.sol\":1880:1897  businessProposals */\n      0x00\n        /* \"contracts/BusinessConsensus2.sol\":1898:1908  _messageID */\n      dup6\n        /* \"contracts/BusinessConsensus2.sol\":1880:1909  businessProposals[_messageID] */\n      mload(0x40)\n      tag_96\n      swap2\n      swap1\n      tag_90\n      jump\t// in\n    tag_96:\n      swap1\n      dup2\n      mstore\n      0x20\n      add\n      mload(0x40)\n      dup1\n      swap2\n      sub\n      swap1\n      keccak256\n        /* \"contracts/BusinessConsensus2.sol\":1880:1920  businessProposals[_messageID] = proposal */\n      0x00\n      dup3\n      add\n      mload\n      dup2\n      0x00\n      add\n      swap1\n      dup1\n      mload\n      swap1\n      0x20\n      add\n      swap1\n      tag_97\n      swap3\n      swap2\n      swap1\n      tag_98\n      jump\t// in\n    tag_97:\n      pop\n      0x20\n      dup3\n      add\n      mload\n      dup2\n      0x01\n      add\n      exp(0x0100, 0x00)\n      dup2\n      sload\n      dup2\n      0xffffffffffffffffffffffffffffffffffffffff\n      mul\n      not\n      and\n      swap1\n      dup4\n      0xffffffffffffffffffffffffffffffffffffffff\n      and\n      mul\n      or\n      swap1\n      sstore\n      pop\n      0x40\n      dup3\n      add\n      mload\n      dup2\n      0x02\n      add\n      exp(0x0100, 0x00)\n      dup2\n      sload\n      dup2\n      0xffffffffffffffffffffffffffffffffffffffff\n      mul\n      not\n      and\n      swap1\n      dup4\n      0xffffffffffffffffffffffffffffffffffffffff\n      and\n      mul\n      or\n      swap1\n      sstore\n      pop\n      0x60\n      dup3\n      add\n      mload\n      dup2\n      0x03\n      add\n      sstore\n      0x80\n      dup3\n      add\n      mload\n      dup2\n      0x04\n      add\n      sstore\n      0xa0\n      dup3\n      add\n      mload\n      dup2\n      0x05\n      add\n      sstore\n      0xc0\n      dup3\n      add\n      mload\n      dup2\n      0x06\n      add\n      sstore\n      0xe0\n      dup3\n      add\n      mload\n      dup2\n      0x07\n      add\n      exp(0x0100, 0x00)\n      dup2\n      sload\n      dup2\n      0xff\n      mul\n      not\n      and\n      swap1\n      dup4\n      iszero\n      iszero\n      mul\n      or\n      swap1\n      sstore\n      pop\n      0x0100\n      dup3\n      add\n      mload\n      dup2\n      0x08\n      add\n      sstore\n      swap1\n      pop\n      pop\n        /* \"contracts/BusinessConsensus2.sol\":1223:1928  {\r... */\n      pop\n        /* \"contracts/BusinessConsensus2.sol\":1121:1928  function createContract(string memory _messageID, uint256 expiry, uint256 requiredPercentage) external{\r... */\n      pop\n      pop\n      pop\n      jump\t// out\n        /* \"contracts/BusinessConsensus2.sol\":3787:5178  function Vote(string memory response,string calldata _messageID) external {\r... */\n    tag_37:\n        /* \"contracts/BusinessConsensus2.sol\":3900:3917  businessProposals */\n      0x00\n        /* \"contracts/BusinessConsensus2.sol\":3918:3928  _messageID */\n      dup3\n      dup3\n        /* \"contracts/BusinessConsensus2.sol\":3900:3929  businessProposals[_messageID] */\n      mload(0x40)\n      tag_100\n      swap3\n      swap2\n      swap1\n      tag_101\n      jump\t// in\n    tag_100:\n      swap1\n      dup2\n      mstore\n      0x20\n      add\n      mload(0x40)\n      dup1\n      swap2\n      sub\n      swap1\n      keccak256\n        /* \"contracts/BusinessConsensus2.sol\":3900:3940  businessProposals[_messageID].expiryDate */\n      0x04\n      add\n      sload\n        /* \"contracts/BusinessConsensus2.sol\":3882:3897  block.timestamp */\n      timestamp\n        /* \"contracts/BusinessConsensus2.sol\":3882:3940  block.timestamp < businessProposals[_messageID].expiryDate */\n      lt\n        /* \"contracts/BusinessConsensus2.sol\":3874:3963  require(block.timestamp < businessProposals[_messageID].expiryDate, \"Voting has expired\") */\n      tag_102\n      jumpi\n      mload(0x40)\n      0x08c379a000000000000000000000000000000000000000000000000000000000\n      dup2\n      mstore\n      0x04\n      add\n      tag_103\n      swap1\n      tag_104\n      jump\t// in\n    tag_103:\n      mload(0x40)\n      dup1\n      swap2\n      sub\n      swap1\n      revert\n    tag_102:\n        /* \"contracts/BusinessConsensus2.sol\":4038:4041  0x0 */\n      0x00\n        /* \"contracts/BusinessConsensus2.sol\":3982:4042  voter_maps[_messageID][msg.sender].recipient != address(0x0) */\n      0xffffffffffffffffffffffffffffffffffffffff\n      and\n        /* \"contracts/BusinessConsensus2.sol\":3982:3992  voter_maps */\n      0x01\n        /* \"contracts/BusinessConsensus2.sol\":3993:4003  _messageID */\n      dup4\n      dup4\n        /* \"contracts/BusinessConsensus2.sol\":3982:4004  voter_maps[_messageID] */\n      mload(0x40)\n      tag_105\n      swap3\n      swap2\n      swap1\n      tag_101\n      jump\t// in\n    tag_105:\n      swap1\n      dup2\n      mstore\n      0x20\n      add\n      mload(0x40)\n      dup1\n      swap2\n      sub\n      swap1\n      keccak256\n        /* \"contracts/BusinessConsensus2.sol\":3982:4016  voter_maps[_messageID][msg.sender] */\n      0x00\n        /* \"contracts/BusinessConsensus2.sol\":4005:4015  msg.sender */\n      caller\n        /* \"contracts/BusinessConsensus2.sol\":3982:4016  voter_maps[_messageID][msg.sender] */\n      0xffffffffffffffffffffffffffffffffffffffff\n      and\n      0xffffffffffffffffffffffffffffffffffffffff\n      and\n      dup2\n      mstore\n      0x20\n      add\n      swap1\n      dup2\n      mstore\n      0x20\n      add\n      0x00\n      keccak256\n        /* \"contracts/BusinessConsensus2.sol\":3982:4026  voter_maps[_messageID][msg.sender].recipient */\n      0x00\n      add\n      0x02\n      swap1\n      sload\n      swap1\n      0x0100\n      exp\n      swap1\n      div\n      0xffffffffffffffffffffffffffffffffffffffff\n      and\n        /* \"contracts/BusinessConsensus2.sol\":3982:4042  voter_maps[_messageID][msg.sender].recipient != address(0x0) */\n      0xffffffffffffffffffffffffffffffffffffffff\n      and\n      eq\n      iszero\n        /* \"contracts/BusinessConsensus2.sol\":3974:4077  require(voter_maps[_messageID][msg.sender].recipient != address(0x0), \"You are not registered to vote\") */\n      tag_106\n      jumpi\n      mload(0x40)\n      0x08c379a000000000000000000000000000000000000000000000000000000000\n      dup2\n      mstore\n      0x04\n      add\n      tag_107\n      swap1\n      tag_108\n      jump\t// in\n    tag_107:\n      mload(0x40)\n      dup1\n      swap2\n      sub\n      swap1\n      revert\n    tag_106:\n        /* \"contracts/BusinessConsensus2.sol\":4097:4107  voter_maps */\n      0x01\n        /* \"contracts/BusinessConsensus2.sol\":4108:4118  _messageID */\n      dup3\n      dup3\n        /* \"contracts/BusinessConsensus2.sol\":4097:4119  voter_maps[_messageID] */\n      mload(0x40)\n      tag_109\n      swap3\n      swap2\n      swap1\n      tag_101\n      jump\t// in\n    tag_109:\n      swap1\n      dup2\n      mstore\n      0x20\n      add\n      mload(0x40)\n      dup1\n      swap2\n      sub\n      swap1\n      keccak256\n        /* \"contracts/BusinessConsensus2.sol\":4097:4131  voter_maps[_messageID][msg.sender] */\n      0x00\n        /* \"contracts/BusinessConsensus2.sol\":4120:4130  msg.sender */\n      caller\n        /* \"contracts/BusinessConsensus2.sol\":4097:4131  voter_maps[_messageID][msg.sender] */\n      0xffffffffffffffffffffffffffffffffffffffff\n      and\n      0xffffffffffffffffffffffffffffffffffffffff\n      and\n      dup2\n      mstore\n      0x20\n      add\n      swap1\n      dup2\n      mstore\n      0x20\n      add\n      0x00\n      keccak256\n        /* \"contracts/BusinessConsensus2.sol\":4097:4137  voter_maps[_messageID][msg.sender].voted */\n      0x00\n      add\n      0x00\n      swap1\n      sload\n      swap1\n      0x0100\n      exp\n      swap1\n      div\n      0xff\n      and\n        /* \"contracts/BusinessConsensus2.sol\":4096:4137  !voter_maps[_messageID][msg.sender].voted */\n      iszero\n        /* \"contracts/BusinessConsensus2.sol\":4088:4170  require(!voter_maps[_messageID][msg.sender].voted, \"You already sent a response.\") */\n      tag_110\n      jumpi\n      mload(0x40)\n      0x08c379a000000000000000000000000000000000000000000000000000000000\n      dup2\n      mstore\n      0x04\n      add\n      tag_111\n      swap1\n      tag_112\n      jump\t// in\n    tag_111:\n      mload(0x40)\n      dup1\n      swap2\n      sub\n      swap1\n      revert\n    tag_110:\n        /* \"contracts/BusinessConsensus2.sol\":4226:4244  bytes(\"i approve\") */\n      mload(0x40)\n      dup1\n      0x40\n      add\n      0x40\n      mstore\n      dup1\n      0x09\n      dup2\n      mstore\n      0x20\n      add\n      0x6920617070726f76650000000000000000000000000000000000000000000000\n      dup2\n      mstore\n      pop\n        /* \"contracts/BusinessConsensus2.sol\":4216:4245  keccak256(bytes(\"i approve\")) */\n      dup1\n      mload\n      swap1\n      0x20\n      add\n      keccak256\n        /* \"contracts/BusinessConsensus2.sol\":4202:4210  response */\n      dup4\n        /* \"contracts/BusinessConsensus2.sol\":4186:4212  keccak256(bytes(response)) */\n      dup1\n      mload\n      swap1\n      0x20\n      add\n      keccak256\n        /* \"contracts/BusinessConsensus2.sol\":4186:4245  keccak256(bytes(response)) == keccak256(bytes(\"i approve\")) */\n      eq\n        /* \"contracts/BusinessConsensus2.sol\":4183:5161  if(keccak256(bytes(response)) == keccak256(bytes(\"i approve\"))){\r... */\n      iszero\n      tag_113\n      jumpi\n        /* \"contracts/BusinessConsensus2.sol\":4304:4308  true */\n      0x01\n        /* \"contracts/BusinessConsensus2.sol\":4261:4271  voter_maps */\n      dup1\n        /* \"contracts/BusinessConsensus2.sol\":4272:4282  _messageID */\n      dup4\n      dup4\n        /* \"contracts/BusinessConsensus2.sol\":4261:4283  voter_maps[_messageID] */\n      mload(0x40)\n      tag_114\n      swap3\n      swap2\n      swap1\n      tag_101\n      jump\t// in\n    tag_114:\n      swap1\n      dup2\n      mstore\n      0x20\n      add\n      mload(0x40)\n      dup1\n      swap2\n      sub\n      swap1\n      keccak256\n        /* \"contracts/BusinessConsensus2.sol\":4261:4295  voter_maps[_messageID][msg.sender] */\n      0x00\n        /* \"contracts/BusinessConsensus2.sol\":4284:4294  msg.sender */\n      caller\n        /* \"contracts/BusinessConsensus2.sol\":4261:4295  voter_maps[_messageID][msg.sender] */\n      0xffffffffffffffffffffffffffffffffffffffff\n      and\n      0xffffffffffffffffffffffffffffffffffffffff\n      and\n      dup2\n      mstore\n      0x20\n      add\n      swap1\n      dup2\n      mstore\n      0x20\n      add\n      0x00\n      keccak256\n        /* \"contracts/BusinessConsensus2.sol\":4261:4301  voter_maps[_messageID][msg.sender].voted */\n      0x00\n      add\n      0x00\n        /* \"contracts/BusinessConsensus2.sol\":4261:4308  voter_maps[_messageID][msg.sender].voted = true */\n      0x0100\n      exp\n      dup2\n      sload\n      dup2\n      0xff\n      mul\n      not\n      and\n      swap1\n      dup4\n      iszero\n      iszero\n      mul\n      or\n      swap1\n      sstore\n      pop\n        /* \"contracts/BusinessConsensus2.sol\":4365:4369  true */\n      0x01\n        /* \"contracts/BusinessConsensus2.sol\":4323:4333  voter_maps */\n      dup1\n        /* \"contracts/BusinessConsensus2.sol\":4334:4344  _messageID */\n      dup4\n      dup4\n        /* \"contracts/BusinessConsensus2.sol\":4323:4345  voter_maps[_messageID] */\n      mload(0x40)\n      tag_115\n      swap3\n      swap2\n      swap1\n      tag_101\n      jump\t// in\n    tag_115:\n      swap1\n      dup2\n      mstore\n      0x20\n      add\n      mload(0x40)\n      dup1\n      swap2\n      sub\n      swap1\n      keccak256\n        /* \"contracts/BusinessConsensus2.sol\":4323:4357  voter_maps[_messageID][msg.sender] */\n      0x00\n        /* \"contracts/BusinessConsensus2.sol\":4346:4356  msg.sender */\n      caller\n        /* \"contracts/BusinessConsensus2.sol\":4323:4357  voter_maps[_messageID][msg.sender] */\n      0xffffffffffffffffffffffffffffffffffffffff\n      and\n      0xffffffffffffffffffffffffffffffffffffffff\n      and\n      dup2\n      mstore\n      0x20\n      add\n      swap1\n      dup2\n      mstore\n      0x20\n      add\n      0x00\n      keccak256\n        /* \"contracts/BusinessConsensus2.sol\":4323:4362  voter_maps[_messageID][msg.sender].vote */\n      0x00\n      add\n      0x01\n        /* \"contracts/BusinessConsensus2.sol\":4323:4369  voter_maps[_messageID][msg.sender].vote = true */\n      0x0100\n      exp\n      dup2\n      sload\n      dup2\n      0xff\n      mul\n      not\n      and\n      swap1\n      dup4\n      iszero\n      iszero\n      mul\n      or\n      swap1\n      sstore\n      pop\n        /* \"contracts/BusinessConsensus2.sol\":4430:4431  1 */\n      0x01\n        /* \"contracts/BusinessConsensus2.sol\":4384:4401  businessProposals */\n      0x00\n        /* \"contracts/BusinessConsensus2.sol\":4402:4412  _messageID */\n      dup4\n      dup4\n        /* \"contracts/BusinessConsensus2.sol\":4384:4413  businessProposals[_messageID] */\n      mload(0x40)\n      tag_116\n      swap3\n      swap2\n      swap1\n      tag_101\n      jump\t// in\n    tag_116:\n      swap1\n      dup2\n      mstore\n      0x20\n      add\n      mload(0x40)\n      dup1\n      swap2\n      sub\n      swap1\n      keccak256\n        /* \"contracts/BusinessConsensus2.sol\":4384:4426  businessProposals[_messageID].numApprovals */\n      0x06\n      add\n      0x00\n        /* \"contracts/BusinessConsensus2.sol\":4384:4431  businessProposals[_messageID].numApprovals += 1 */\n      dup3\n      dup3\n      sload\n      tag_117\n      swap2\n      swap1\n      tag_95\n      jump\t// in\n    tag_117:\n      swap3\n      pop\n      pop\n      dup2\n      swap1\n      sstore\n      pop\n        /* \"contracts/BusinessConsensus2.sol\":4489:4490  1 */\n      0x01\n        /* \"contracts/BusinessConsensus2.sol\":4446:4463  businessProposals */\n      0x00\n        /* \"contracts/BusinessConsensus2.sol\":4464:4474  _messageID */\n      dup4\n      dup4\n        /* \"contracts/BusinessConsensus2.sol\":4446:4475  businessProposals[_messageID] */\n      mload(0x40)\n      tag_118\n      swap3\n      swap2\n      swap1\n      tag_101\n      jump\t// in\n    tag_118:\n      swap1\n      dup2\n      mstore\n      0x20\n      add\n      mload(0x40)\n      dup1\n      swap2\n      sub\n      swap1\n      keccak256\n        /* \"contracts/BusinessConsensus2.sol\":4446:4485  businessProposals[_messageID].voteCount */\n      0x03\n      add\n      0x00\n        /* \"contracts/BusinessConsensus2.sol\":4446:4490  businessProposals[_messageID].voteCount += 1 */\n      dup3\n      dup3\n      sload\n      tag_119\n      swap2\n      swap1\n      tag_95\n      jump\t// in\n    tag_119:\n      swap3\n      pop\n      pop\n      dup2\n      swap1\n      sstore\n      pop\n        /* \"contracts/BusinessConsensus2.sol\":4505:4511  Voters */\n      0x02\n        /* \"contracts/BusinessConsensus2.sol\":4512:4522  _messageID */\n      dup3\n      dup3\n        /* \"contracts/BusinessConsensus2.sol\":4505:4523  Voters[_messageID] */\n      mload(0x40)\n      tag_120\n      swap3\n      swap2\n      swap1\n      tag_101\n      jump\t// in\n    tag_120:\n      swap1\n      dup2\n      mstore\n      0x20\n      add\n      mload(0x40)\n      dup1\n      swap2\n      sub\n      swap1\n      keccak256\n        /* \"contracts/BusinessConsensus2.sol\":4529:4539  voter_maps */\n      0x01\n        /* \"contracts/BusinessConsensus2.sol\":4540:4550  _messageID */\n      dup4\n      dup4\n        /* \"contracts/BusinessConsensus2.sol\":4529:4551  voter_maps[_messageID] */\n      mload(0x40)\n      tag_121\n      swap3\n      swap2\n      swap1\n      tag_101\n      jump\t// in\n    tag_121:\n      swap1\n      dup2\n      mstore\n      0x20\n      add\n      mload(0x40)\n      dup1\n      swap2\n      sub\n      swap1\n      keccak256\n        /* \"contracts/BusinessConsensus2.sol\":4529:4563  voter_maps[_messageID][msg.sender] */\n      0x00\n        /* \"contracts/BusinessConsensus2.sol\":4552:4562  msg.sender */\n      caller\n        /* \"contracts/BusinessConsensus2.sol\":4529:4563  voter_maps[_messageID][msg.sender] */\n      0xffffffffffffffffffffffffffffffffffffffff\n      and\n      0xffffffffffffffffffffffffffffffffffffffff\n      and\n      dup2\n      mstore\n      0x20\n      add\n      swap1\n      dup2\n      mstore\n      0x20\n      add\n      0x00\n      keccak256\n        /* \"contracts/BusinessConsensus2.sol\":4505:4564  Voters[_messageID].push(voter_maps[_messageID][msg.sender]) */\n      swap1\n      dup1\n      0x01\n      dup2\n      sload\n      add\n      dup1\n      dup3\n      sstore\n      dup1\n      swap2\n      pop\n      pop\n      0x01\n      swap1\n      sub\n      swap1\n      0x00\n      mstore\n      keccak256(0x00, 0x20)\n      add\n      0x00\n      swap1\n      swap2\n      swap1\n      swap2\n      swap1\n      swap2\n      pop\n      0x00\n      dup3\n      add\n      0x00\n      swap1\n      sload\n      swap1\n      0x0100\n      exp\n      swap1\n      div\n      0xff\n      and\n      dup2\n      0x00\n      add\n      exp(0x0100, 0x00)\n      dup2\n      sload\n      dup2\n      0xff\n      mul\n      not\n      and\n      swap1\n      dup4\n      iszero\n      iszero\n      mul\n      or\n      swap1\n      sstore\n      pop\n      0x00\n      dup3\n      add\n      0x01\n      swap1\n      sload\n      swap1\n      0x0100\n      exp\n      swap1\n      div\n      0xff\n      and\n      dup2\n      0x00\n      add\n      exp(0x0100, 0x01)\n      dup2\n      sload\n      dup2\n      0xff\n      mul\n      not\n      and\n      swap1\n      dup4\n      iszero\n      iszero\n      mul\n      or\n      swap1\n      sstore\n      pop\n      0x00\n      dup3\n      add\n      0x02\n      swap1\n      sload\n      swap1\n      0x0100\n      exp\n      swap1\n      div\n      0xffffffffffffffffffffffffffffffffffffffff\n      and\n      dup2\n      0x00\n      add\n      exp(0x0100, 0x02)\n      dup2\n      sload\n      dup2\n      0xffffffffffffffffffffffffffffffffffffffff\n      mul\n      not\n      and\n      swap1\n      dup4\n      0xffffffffffffffffffffffffffffffffffffffff\n      and\n      mul\n      or\n      swap1\n      sstore\n      pop\n      pop\n      pop\n        /* \"contracts/BusinessConsensus2.sol\":4183:5161  if(keccak256(bytes(response)) == keccak256(bytes(\"i approve\"))){\r... */\n      jump(tag_123)\n    tag_113:\n        /* \"contracts/BusinessConsensus2.sol\":4636:4657  bytes(\"i disapprove\") */\n      mload(0x40)\n      dup1\n      0x40\n      add\n      0x40\n      mstore\n      dup1\n      0x0c\n      dup2\n      mstore\n      0x20\n      add\n      0x6920646973617070726f76650000000000000000000000000000000000000000\n      dup2\n      mstore\n      pop\n        /* \"contracts/BusinessConsensus2.sol\":4626:4658  keccak256(bytes(\"i disapprove\")) */\n      dup1\n      mload\n      swap1\n      0x20\n      add\n      keccak256\n        /* \"contracts/BusinessConsensus2.sol\":4612:4620  response */\n      dup4\n        /* \"contracts/BusinessConsensus2.sol\":4596:4622  keccak256(bytes(response)) */\n      dup1\n      mload\n      swap1\n      0x20\n      add\n      keccak256\n        /* \"contracts/BusinessConsensus2.sol\":4596:4658  keccak256(bytes(response)) == keccak256(bytes(\"i disapprove\")) */\n      eq\n        /* \"contracts/BusinessConsensus2.sol\":4593:5161  if(keccak256(bytes(response)) == keccak256(bytes(\"i disapprove\"))){\r... */\n      iszero\n      tag_124\n      jumpi\n        /* \"contracts/BusinessConsensus2.sol\":4717:4721  true */\n      0x01\n        /* \"contracts/BusinessConsensus2.sol\":4674:4684  voter_maps */\n      dup1\n        /* \"contracts/BusinessConsensus2.sol\":4685:4695  _messageID */\n      dup4\n      dup4\n        /* \"contracts/BusinessConsensus2.sol\":4674:4696  voter_maps[_messageID] */\n      mload(0x40)\n      tag_125\n      swap3\n      swap2\n      swap1\n      tag_101\n      jump\t// in\n    tag_125:\n      swap1\n      dup2\n      mstore\n      0x20\n      add\n      mload(0x40)\n      dup1\n      swap2\n      sub\n      swap1\n      keccak256\n        /* \"contracts/BusinessConsensus2.sol\":4674:4708  voter_maps[_messageID][msg.sender] */\n      0x00\n        /* \"contracts/BusinessConsensus2.sol\":4697:4707  msg.sender */\n      caller\n        /* \"contracts/BusinessConsensus2.sol\":4674:4708  voter_maps[_messageID][msg.sender] */\n      0xffffffffffffffffffffffffffffffffffffffff\n      and\n      0xffffffffffffffffffffffffffffffffffffffff\n      and\n      dup2\n      mstore\n      0x20\n      add\n      swap1\n      dup2\n      mstore\n      0x20\n      add\n      0x00\n      keccak256\n        /* \"contracts/BusinessConsensus2.sol\":4674:4714  voter_maps[_messageID][msg.sender].voted */\n      0x00\n      add\n      0x00\n        /* \"contracts/BusinessConsensus2.sol\":4674:4721  voter_maps[_messageID][msg.sender].voted = true */\n      0x0100\n      exp\n      dup2\n      sload\n      dup2\n      0xff\n      mul\n      not\n      and\n      swap1\n      dup4\n      iszero\n      iszero\n      mul\n      or\n      swap1\n      sstore\n      pop\n        /* \"contracts/BusinessConsensus2.sol\":4779:4780  1 */\n      0x01\n        /* \"contracts/BusinessConsensus2.sol\":4736:4753  businessProposals */\n      0x00\n        /* \"contracts/BusinessConsensus2.sol\":4754:4764  _messageID */\n      dup4\n      dup4\n        /* \"contracts/BusinessConsensus2.sol\":4736:4765  businessProposals[_messageID] */\n      mload(0x40)\n      tag_126\n      swap3\n      swap2\n      swap1\n      tag_101\n      jump\t// in\n    tag_126:\n      swap1\n      dup2\n      mstore\n      0x20\n      add\n      mload(0x40)\n      dup1\n      swap2\n      sub\n      swap1\n      keccak256\n        /* \"contracts/BusinessConsensus2.sol\":4736:4775  businessProposals[_messageID].voteCount */\n      0x03\n      add\n      0x00\n        /* \"contracts/BusinessConsensus2.sol\":4736:4780  businessProposals[_messageID].voteCount += 1 */\n      dup3\n      dup3\n      sload\n      tag_127\n      swap2\n      swap1\n      tag_95\n      jump\t// in\n    tag_127:\n      swap3\n      pop\n      pop\n      dup2\n      swap1\n      sstore\n      pop\n        /* \"contracts/BusinessConsensus2.sol\":4795:4801  Voters */\n      0x02\n        /* \"contracts/BusinessConsensus2.sol\":4802:4812  _messageID */\n      dup3\n      dup3\n        /* \"contracts/BusinessConsensus2.sol\":4795:4813  Voters[_messageID] */\n      mload(0x40)\n      tag_128\n      swap3\n      swap2\n      swap1\n      tag_101\n      jump\t// in\n    tag_128:\n      swap1\n      dup2\n      mstore\n      0x20\n      add\n      mload(0x40)\n      dup1\n      swap2\n      sub\n      swap1\n      keccak256\n        /* \"contracts/BusinessConsensus2.sol\":4819:4829  voter_maps */\n      0x01\n        /* \"contracts/BusinessConsensus2.sol\":4830:4840  _messageID */\n      dup4\n      dup4\n        /* \"contracts/BusinessConsensus2.sol\":4819:4841  voter_maps[_messageID] */\n      mload(0x40)\n      tag_129\n      swap3\n      swap2\n      swap1\n      tag_101\n      jump\t// in\n    tag_129:\n      swap1\n      dup2\n      mstore\n      0x20\n      add\n      mload(0x40)\n      dup1\n      swap2\n      sub\n      swap1\n      keccak256\n        /* \"contracts/BusinessConsensus2.sol\":4819:4853  voter_maps[_messageID][msg.sender] */\n      0x00\n        /* \"contracts/BusinessConsensus2.sol\":4842:4852  msg.sender */\n      caller\n        /* \"contracts/BusinessConsensus2.sol\":4819:4853  voter_maps[_messageID][msg.sender] */\n      0xffffffffffffffffffffffffffffffffffffffff\n      and\n      0xffffffffffffffffffffffffffffffffffffffff\n      and\n      dup2\n      mstore\n      0x20\n      add\n      swap1\n      dup2\n      mstore\n      0x20\n      add\n      0x00\n      keccak256\n        /* \"contracts/BusinessConsensus2.sol\":4795:4854  Voters[_messageID].push(voter_maps[_messageID][msg.sender]) */\n      swap1\n      dup1\n      0x01\n      dup2\n      sload\n      add\n      dup1\n      dup3\n      sstore\n      dup1\n      swap2\n      pop\n      pop\n      0x01\n      swap1\n      sub\n      swap1\n      0x00\n      mstore\n      keccak256(0x00, 0x20)\n      add\n      0x00\n      swap1\n      swap2\n      swap1\n      swap2\n      swap1\n      swap2\n      pop\n      0x00\n      dup3\n      add\n      0x00\n      swap1\n      sload\n      swap1\n      0x0100\n      exp\n      swap1\n      div\n      0xff\n      and\n      dup2\n      0x00\n      add\n      exp(0x0100, 0x00)\n      dup2\n      sload\n      dup2\n      0xff\n      mul\n      not\n      and\n      swap1\n      dup4\n      iszero\n      iszero\n      mul\n      or\n      swap1\n      sstore\n      pop\n      0x00\n      dup3\n      add\n      0x01\n      swap1\n      sload\n      swap1\n      0x0100\n      exp\n      swap1\n      div\n      0xff\n      and\n      dup2\n      0x00\n      add\n      exp(0x0100, 0x01)\n      dup2\n      sload\n      dup2\n      0xff\n      mul\n      not\n      and\n      swap1\n      dup4\n      iszero\n      iszero\n      mul\n      or\n      swap1\n      sstore\n      pop\n      0x00\n      dup3\n      add\n      0x02\n      swap1\n      sload\n      swap1\n      0x0100\n      exp\n      swap1\n      div\n      0xffffffffffffffffffffffffffffffffffffffff\n      and\n      dup2\n      0x00\n      add\n      exp(0x0100, 0x02)\n      dup2\n      sload\n      dup2\n      0xffffffffffffffffffffffffffffffffffffffff\n      mul\n      not\n      and\n      swap1\n      dup4\n      0xffffffffffffffffffffffffffffffffffffffff\n      and\n      mul\n      or\n      swap1\n      sstore\n      pop\n      pop\n      pop\n        /* \"contracts/BusinessConsensus2.sol\":4593:5161  if(keccak256(bytes(response)) == keccak256(bytes(\"i disapprove\"))){\r... */\n      jump(tag_131)\n    tag_124:\n        /* \"contracts/BusinessConsensus2.sol\":5012:5016  true */\n      0x01\n        /* \"contracts/BusinessConsensus2.sol\":4969:4979  voter_maps */\n      dup1\n        /* \"contracts/BusinessConsensus2.sol\":4980:4990  _messageID */\n      dup4\n      dup4\n        /* \"contracts/BusinessConsensus2.sol\":4969:4991  voter_maps[_messageID] */\n      mload(0x40)\n      tag_132\n      swap3\n      swap2\n      swap1\n      tag_101\n      jump\t// in\n    tag_132:\n      swap1\n      dup2\n      mstore\n      0x20\n      add\n      mload(0x40)\n      dup1\n      swap2\n      sub\n      swap1\n      keccak256\n        /* \"contracts/BusinessConsensus2.sol\":4969:5003  voter_maps[_messageID][msg.sender] */\n      0x00\n        /* \"contracts/BusinessConsensus2.sol\":4992:5002  msg.sender */\n      caller\n        /* \"contracts/BusinessConsensus2.sol\":4969:5003  voter_maps[_messageID][msg.sender] */\n      0xffffffffffffffffffffffffffffffffffffffff\n      and\n      0xffffffffffffffffffffffffffffffffffffffff\n      and\n      dup2\n      mstore\n      0x20\n      add\n      swap1\n      dup2\n      mstore\n      0x20\n      add\n      0x00\n      keccak256\n        /* \"contracts/BusinessConsensus2.sol\":4969:5009  voter_maps[_messageID][msg.sender].voted */\n      0x00\n      add\n      0x00\n        /* \"contracts/BusinessConsensus2.sol\":4969:5016  voter_maps[_messageID][msg.sender].voted = true */\n      0x0100\n      exp\n      dup2\n      sload\n      dup2\n      0xff\n      mul\n      not\n      and\n      swap1\n      dup4\n      iszero\n      iszero\n      mul\n      or\n      swap1\n      sstore\n      pop\n        /* \"contracts/BusinessConsensus2.sol\":5074:5075  1 */\n      0x01\n        /* \"contracts/BusinessConsensus2.sol\":5031:5048  businessProposals */\n      0x00\n        /* \"contracts/BusinessConsensus2.sol\":5049:5059  _messageID */\n      dup4\n      dup4\n        /* \"contracts/BusinessConsensus2.sol\":5031:5060  businessProposals[_messageID] */\n      mload(0x40)\n      tag_133\n      swap3\n      swap2\n      swap1\n      tag_101\n      jump\t// in\n    tag_133:\n      swap1\n      dup2\n      mstore\n      0x20\n      add\n      mload(0x40)\n      dup1\n      swap2\n      sub\n      swap1\n      keccak256\n        /* \"contracts/BusinessConsensus2.sol\":5031:5070  businessProposals[_messageID].voteCount */\n      0x03\n      add\n      0x00\n        /* \"contracts/BusinessConsensus2.sol\":5031:5075  businessProposals[_messageID].voteCount += 1 */\n      dup3\n      dup3\n      sload\n      tag_134\n      swap2\n      swap1\n      tag_95\n      jump\t// in\n    tag_134:\n      swap3\n      pop\n      pop\n      dup2\n      swap1\n      sstore\n      pop\n        /* \"contracts/BusinessConsensus2.sol\":5090:5096  Voters */\n      0x02\n        /* \"contracts/BusinessConsensus2.sol\":5097:5107  _messageID */\n      dup3\n      dup3\n        /* \"contracts/BusinessConsensus2.sol\":5090:5108  Voters[_messageID] */\n      mload(0x40)\n      tag_135\n      swap3\n      swap2\n      swap1\n      tag_101\n      jump\t// in\n    tag_135:\n      swap1\n      dup2\n      mstore\n      0x20\n      add\n      mload(0x40)\n      dup1\n      swap2\n      sub\n      swap1\n      keccak256\n        /* \"contracts/BusinessConsensus2.sol\":5114:5124  voter_maps */\n      0x01\n        /* \"contracts/BusinessConsensus2.sol\":5125:5135  _messageID */\n      dup4\n      dup4\n        /* \"contracts/BusinessConsensus2.sol\":5114:5136  voter_maps[_messageID] */\n      mload(0x40)\n      tag_136\n      swap3\n      swap2\n      swap1\n      tag_101\n      jump\t// in\n    tag_136:\n      swap1\n      dup2\n      mstore\n      0x20\n      add\n      mload(0x40)\n      dup1\n      swap2\n      sub\n      swap1\n      keccak256\n        /* \"contracts/BusinessConsensus2.sol\":5114:5148  voter_maps[_messageID][msg.sender] */\n      0x00\n        /* \"contracts/BusinessConsensus2.sol\":5137:5147  msg.sender */\n      caller\n        /* \"contracts/BusinessConsensus2.sol\":5114:5148  voter_maps[_messageID][msg.sender] */\n      0xffffffffffffffffffffffffffffffffffffffff\n      and\n      0xffffffffffffffffffffffffffffffffffffffff\n      and\n      dup2\n      mstore\n      0x20\n      add\n      swap1\n      dup2\n      mstore\n      0x20\n      add\n      0x00\n      keccak256\n        /* \"contracts/BusinessConsensus2.sol\":5090:5149  Voters[_messageID].push(voter_maps[_messageID][msg.sender]) */\n      swap1\n      dup1\n      0x01\n      dup2\n      sload\n      add\n      dup1\n      dup3\n      sstore\n      dup1\n      swap2\n      pop\n      pop\n      0x01\n      swap1\n      sub\n      swap1\n      0x00\n      mstore\n      keccak256(0x00, 0x20)\n      add\n      0x00\n      swap1\n      swap2\n      swap1\n      swap2\n      swap1\n      swap2\n      pop\n      0x00\n      dup3\n      add\n      0x00\n      swap1\n      sload\n      swap1\n      0x0100\n      exp\n      swap1\n      div\n      0xff\n      and\n      dup2\n      0x00\n      add\n      exp(0x0100, 0x00)\n      dup2\n      sload\n      dup2\n      0xff\n      mul\n      not\n      and\n      swap1\n      dup4\n      iszero\n      iszero\n      mul\n      or\n      swap1\n      sstore\n      pop\n      0x00\n      dup3\n      add\n      0x01\n      swap1\n      sload\n      swap1\n      0x0100\n      exp\n      swap1\n      div\n      0xff\n      and\n      dup2\n      0x00\n      add\n      exp(0x0100, 0x01)\n      dup2\n      sload\n      dup2\n      0xff\n      mul\n      not\n      and\n      swap1\n      dup4\n      iszero\n      iszero\n      mul\n      or\n      swap1\n      sstore\n      pop\n      0x00\n      dup3\n      add\n      0x02\n      swap1\n      sload\n      swap1\n      0x0100\n      exp\n      swap1\n      div\n      0xffffffffffffffffffffffffffffffffffffffff\n      and\n      dup2\n      0x00\n      add\n      exp(0x0100, 0x02)\n      dup2\n      sload\n      dup2\n      0xffffffffffffffffffffffffffffffffffffffff\n      mul\n      not\n      and\n      swap1\n      dup4\n      0xffffffffffffffffffffffffffffffffffffffff\n      and\n      mul\n      or\n      swap1\n      sstore\n      pop\n      pop\n      pop\n        /* \"contracts/BusinessConsensus2.sol\":4593:5161  if(keccak256(bytes(response)) == keccak256(bytes(\"i disapprove\"))){\r... */\n    tag_131:\n        /* \"contracts/BusinessConsensus2.sol\":4183:5161  if(keccak256(bytes(response)) == keccak256(bytes(\"i approve\"))){\r... */\n    tag_123:\n        /* \"contracts/BusinessConsensus2.sol\":3787:5178  function Vote(string memory response,string calldata _messageID) external {\r... */\n      pop\n      pop\n      pop\n      jump\t// out\n        /* \"contracts/BusinessConsensus2.sol\":960:1018  mapping(string=>mapping(address=>Voter)) public voter_maps */\n    tag_41:\n      0x01\n      dup3\n      dup1\n      mload\n      0x20\n      dup2\n      add\n      dup3\n      add\n      dup1\n      mload\n      dup5\n      dup3\n      mstore\n      0x20\n      dup4\n      add\n      0x20\n      dup6\n      add\n      keccak256\n      dup2\n      dup4\n      mstore\n      dup1\n      swap6\n      pop\n      pop\n      pop\n      pop\n      pop\n      pop\n      0x20\n      mstore\n      dup1\n      0x00\n      mstore\n      keccak256(0x00, 0x40)\n      0x00\n      swap2\n      pop\n      swap2\n      pop\n      pop\n      dup1\n      0x00\n      add\n      0x00\n      swap1\n      sload\n      swap1\n      0x0100\n      exp\n      swap1\n      div\n      0xff\n      and\n      swap1\n      dup1\n      0x00\n      add\n      0x01\n      swap1\n      sload\n      swap1\n      0x0100\n      exp\n      swap1\n      div\n      0xff\n      and\n      swap1\n      dup1\n      0x00\n      add\n      0x02\n      swap1\n      sload\n      swap1\n      0x0100\n      exp\n      swap1\n      div\n      0xffffffffffffffffffffffffffffffffffffffff\n      and\n      swap1\n      pop\n      dup4\n      jump\t// out\n        /* \"contracts/BusinessConsensus2.sol\":6309:6868  function retrieve_bundle(string calldata _messageID) external view returns (bytes32, string memory, uint256, Voter[] memory){\r... */\n    tag_47:\n        /* \"contracts/BusinessConsensus2.sol\":6385:6392  bytes32 */\n      0x00\n        /* \"contracts/BusinessConsensus2.sol\":6394:6407  string memory */\n      0x60\n        /* \"contracts/BusinessConsensus2.sol\":6409:6416  uint256 */\n      0x00\n        /* \"contracts/BusinessConsensus2.sol\":6418:6432  Voter[] memory */\n      0x60\n        /* \"contracts/BusinessConsensus2.sol\":6471:6488  businessProposals */\n      0x00\n        /* \"contracts/BusinessConsensus2.sol\":6489:6499  _messageID */\n      dup7\n      dup7\n        /* \"contracts/BusinessConsensus2.sol\":6471:6500  businessProposals[_messageID] */\n      mload(0x40)\n      tag_139\n      swap3\n      swap2\n      swap1\n      tag_101\n      jump\t// in\n    tag_139:\n      swap1\n      dup2\n      mstore\n      0x20\n      add\n      mload(0x40)\n      dup1\n      swap2\n      sub\n      swap1\n      keccak256\n        /* \"contracts/BusinessConsensus2.sol\":6471:6511  businessProposals[_messageID].expiryDate */\n      0x04\n      add\n      sload\n        /* \"contracts/BusinessConsensus2.sol\":6452:6467  block.timestamp */\n      timestamp\n        /* \"contracts/BusinessConsensus2.sol\":6452:6511  block.timestamp >= businessProposals[_messageID].expiryDate */\n      lt\n      iszero\n        /* \"contracts/BusinessConsensus2.sol\":6444:6548  require(block.timestamp >= businessProposals[_messageID].expiryDate, \"Verdict has not been reached yet\") */\n      tag_140\n      jumpi\n      mload(0x40)\n      0x08c379a000000000000000000000000000000000000000000000000000000000\n      dup2\n      mstore\n      0x04\n      add\n      tag_141\n      swap1\n      tag_142\n      jump\t// in\n    tag_141:\n      mload(0x40)\n      dup1\n      swap2\n      sub\n      swap1\n      revert\n    tag_140:\n        /* \"contracts/BusinessConsensus2.sol\":6559:6580  Voter[] memory voters */\n      0x00\n        /* \"contracts/BusinessConsensus2.sol\":6583:6589  Voters */\n      0x02\n        /* \"contracts/BusinessConsensus2.sol\":6590:6600  _messageID */\n      dup8\n      dup8\n        /* \"contracts/BusinessConsensus2.sol\":6583:6601  Voters[_messageID] */\n      mload(0x40)\n      tag_143\n      swap3\n      swap2\n      swap1\n      tag_101\n      jump\t// in\n    tag_143:\n      swap1\n      dup2\n      mstore\n      0x20\n      add\n      mload(0x40)\n      dup1\n      swap2\n      sub\n      swap1\n      keccak256\n        /* \"contracts/BusinessConsensus2.sol\":6559:6601  Voter[] memory voters = Voters[_messageID] */\n      dup1\n      sload\n      dup1\n      0x20\n      mul\n      0x20\n      add\n      mload(0x40)\n      swap1\n      dup2\n      add\n      0x40\n      mstore\n      dup1\n      swap3\n      swap2\n      swap1\n      dup2\n      dup2\n      mstore\n      0x20\n      add\n      0x00\n      swap1\n    tag_144:\n      dup3\n      dup3\n      lt\n      iszero\n      tag_145\n      jumpi\n      dup4\n      dup3\n      swap1\n      0x00\n      mstore\n      keccak256(0x00, 0x20)\n      add\n      mload(0x40)\n      dup1\n      0x60\n      add\n      0x40\n      mstore\n      swap1\n      dup2\n      0x00\n      dup3\n      add\n      0x00\n      swap1\n      sload\n      swap1\n      0x0100\n      exp\n      swap1\n      div\n      0xff\n      and\n      iszero\n      iszero\n      iszero\n      iszero\n      dup2\n      mstore\n      0x20\n      add\n      0x00\n      dup3\n      add\n      0x01\n      swap1\n      sload\n      swap1\n      0x0100\n      exp\n      swap1\n      div\n      0xff\n      and\n      iszero\n      iszero\n      iszero\n      iszero\n      dup2\n      mstore\n      0x20\n      add\n      0x00\n      dup3\n      add\n      0x02\n      swap1\n      sload\n      swap1\n      0x0100\n      exp\n      swap1\n      div\n      0xffffffffffffffffffffffffffffffffffffffff\n      and\n      0xffffffffffffffffffffffffffffffffffffffff\n      and\n      0xffffffffffffffffffffffffffffffffffffffff\n      and\n      dup2\n      mstore\n      pop\n      pop\n      dup2\n      mstore\n      0x20\n      add\n      swap1\n      0x01\n      add\n      swap1\n      jump(tag_144)\n    tag_145:\n      pop\n      pop\n      pop\n      pop\n      swap1\n      pop\n        /* \"contracts/BusinessConsensus2.sol\":6612:6628  string memory ID */\n      0x00\n        /* \"contracts/BusinessConsensus2.sol\":6631:6648  businessProposals */\n      dup1\n        /* \"contracts/BusinessConsensus2.sol\":6649:6659  _messageID */\n      dup9\n      dup9\n        /* \"contracts/BusinessConsensus2.sol\":6631:6660  businessProposals[_messageID] */\n      mload(0x40)\n      tag_147\n      swap3\n      swap2\n      swap1\n      tag_101\n      jump\t// in\n    tag_147:\n      swap1\n      dup2\n      mstore\n      0x20\n      add\n      mload(0x40)\n      dup1\n      swap2\n      sub\n      swap1\n      keccak256\n        /* \"contracts/BusinessConsensus2.sol\":6631:6670  businessProposals[_messageID].messageID */\n      0x00\n      add\n        /* \"contracts/BusinessConsensus2.sol\":6612:6670  string memory ID = businessProposals[_messageID].messageID */\n      dup1\n      sload\n      tag_148\n      swap1\n      tag_83\n      jump\t// in\n    tag_148:\n      dup1\n      0x1f\n      add\n      0x20\n      dup1\n      swap2\n      div\n      mul\n      0x20\n      add\n      mload(0x40)\n      swap1\n      dup2\n      add\n      0x40\n      mstore\n      dup1\n      swap3\n      swap2\n      swap1\n      dup2\n      dup2\n      mstore\n      0x20\n      add\n      dup3\n      dup1\n      sload\n      tag_149\n      swap1\n      tag_83\n      jump\t// in\n    tag_149:\n      dup1\n      iszero\n      tag_150\n      jumpi\n      dup1\n      0x1f\n      lt\n      tag_151\n      jumpi\n      0x0100\n      dup1\n      dup4\n      sload\n      div\n      mul\n      dup4\n      mstore\n      swap2\n      0x20\n      add\n      swap2\n      jump(tag_150)\n    tag_151:\n      dup3\n      add\n      swap2\n      swap1\n      0x00\n      mstore\n      keccak256(0x00, 0x20)\n      swap1\n    tag_152:\n      dup2\n      sload\n      dup2\n      mstore\n      swap1\n      0x01\n      add\n      swap1\n      0x20\n      add\n      dup1\n      dup4\n      gt\n      tag_152\n      jumpi\n      dup3\n      swap1\n      sub\n      0x1f\n      and\n      dup3\n      add\n      swap2\n    tag_150:\n      pop\n      pop\n      pop\n      pop\n      pop\n      swap1\n      pop\n        /* \"contracts/BusinessConsensus2.sol\":6681:6696  bytes32 verdict */\n      0x00\n        /* \"contracts/BusinessConsensus2.sol\":6699:6716  businessProposals */\n      dup1\n        /* \"contracts/BusinessConsensus2.sol\":6717:6727  _messageID */\n      dup10\n      dup10\n        /* \"contracts/BusinessConsensus2.sol\":6699:6728  businessProposals[_messageID] */\n      mload(0x40)\n      tag_153\n      swap3\n      swap2\n      swap1\n      tag_101\n      jump\t// in\n    tag_153:\n      swap1\n      dup2\n      mstore\n      0x20\n      add\n      mload(0x40)\n      dup1\n      swap2\n      sub\n      swap1\n      keccak256\n        /* \"contracts/BusinessConsensus2.sol\":6699:6741  businessProposals[_messageID].finalVerdict */\n      0x08\n      add\n      sload\n        /* \"contracts/BusinessConsensus2.sol\":6681:6741  bytes32 verdict = businessProposals[_messageID].finalVerdict */\n      swap1\n      pop\n        /* \"contracts/BusinessConsensus2.sol\":6752:6765  uint256 count */\n      0x00\n        /* \"contracts/BusinessConsensus2.sol\":6768:6785  businessProposals */\n      dup1\n        /* \"contracts/BusinessConsensus2.sol\":6786:6796  _messageID */\n      dup11\n      dup11\n        /* \"contracts/BusinessConsensus2.sol\":6768:6797  businessProposals[_messageID] */\n      mload(0x40)\n      tag_154\n      swap3\n      swap2\n      swap1\n      tag_101\n      jump\t// in\n    tag_154:\n      swap1\n      dup2\n      mstore\n      0x20\n      add\n      mload(0x40)\n      dup1\n      swap2\n      sub\n      swap1\n      keccak256\n        /* \"contracts/BusinessConsensus2.sol\":6768:6807  businessProposals[_messageID].voteCount */\n      0x03\n      add\n      sload\n        /* \"contracts/BusinessConsensus2.sol\":6752:6807  uint256 count = businessProposals[_messageID].voteCount */\n      swap1\n      pop\n        /* \"contracts/BusinessConsensus2.sol\":6826:6833  verdict */\n      dup2\n        /* \"contracts/BusinessConsensus2.sol\":6834:6836  ID */\n      dup4\n        /* \"contracts/BusinessConsensus2.sol\":6837:6842  count */\n      dup3\n        /* \"contracts/BusinessConsensus2.sol\":6843:6849  voters */\n      dup7\n        /* \"contracts/BusinessConsensus2.sol\":6818:6850  return (verdict,ID,count,voters) */\n      swap8\n      pop\n      swap8\n      pop\n      swap8\n      pop\n      swap8\n      pop\n      pop\n      pop\n      pop\n      pop\n        /* \"contracts/BusinessConsensus2.sol\":6309:6868  function retrieve_bundle(string calldata _messageID) external view returns (bytes32, string memory, uint256, Voter[] memory){\r... */\n      swap3\n      swap6\n      swap2\n      swap5\n      pop\n      swap3\n      pop\n      jump\t// out\n        /* \"contracts/BusinessConsensus2.sol\":2982:3779  function RegisterVoter(address voter,string calldata _messageID) external {\r... */\n    tag_53:\n        /* \"contracts/BusinessConsensus2.sol\":3177:3194  businessProposals */\n      0x00\n        /* \"contracts/BusinessConsensus2.sol\":3195:3205  _messageID */\n      dup3\n      dup3\n        /* \"contracts/BusinessConsensus2.sol\":3177:3206  businessProposals[_messageID] */\n      mload(0x40)\n      tag_156\n      swap3\n      swap2\n      swap1\n      tag_101\n      jump\t// in\n    tag_156:\n      swap1\n      dup2\n      mstore\n      0x20\n      add\n      mload(0x40)\n      dup1\n      swap2\n      sub\n      swap1\n      keccak256\n        /* \"contracts/BusinessConsensus2.sol\":3177:3216  businessProposals[_messageID].initiator */\n      0x01\n      add\n      0x00\n      swap1\n      sload\n      swap1\n      0x0100\n      exp\n      swap1\n      div\n      0xffffffffffffffffffffffffffffffffffffffff\n      and\n        /* \"contracts/BusinessConsensus2.sol\":3163:3216  msg.sender == businessProposals[_messageID].initiator */\n      0xffffffffffffffffffffffffffffffffffffffff\n      and\n        /* \"contracts/BusinessConsensus2.sol\":3163:3173  msg.sender */\n      caller\n        /* \"contracts/BusinessConsensus2.sol\":3163:3216  msg.sender == businessProposals[_messageID].initiator */\n      0xffffffffffffffffffffffffffffffffffffffff\n      and\n      eq\n        /* \"contracts/BusinessConsensus2.sol\":3141:3284  require(\r... */\n      tag_157\n      jumpi\n      mload(0x40)\n      0x08c379a000000000000000000000000000000000000000000000000000000000\n      dup2\n      mstore\n      0x04\n      add\n      tag_158\n      swap1\n      tag_159\n      jump\t// in\n    tag_158:\n      mload(0x40)\n      dup1\n      swap2\n      sub\n      swap1\n      revert\n    tag_157:\n        /* \"contracts/BusinessConsensus2.sol\":3312:3329  businessProposals */\n      0x00\n        /* \"contracts/BusinessConsensus2.sol\":3330:3340  _messageID */\n      dup3\n      dup3\n        /* \"contracts/BusinessConsensus2.sol\":3312:3341  businessProposals[_messageID] */\n      mload(0x40)\n      tag_160\n      swap3\n      swap2\n      swap1\n      tag_101\n      jump\t// in\n    tag_160:\n      swap1\n      dup2\n      mstore\n      0x20\n      add\n      mload(0x40)\n      dup1\n      swap2\n      sub\n      swap1\n      keccak256\n        /* \"contracts/BusinessConsensus2.sol\":3312:3351  businessProposals[_messageID].initiator */\n      0x01\n      add\n      0x00\n      swap1\n      sload\n      swap1\n      0x0100\n      exp\n      swap1\n      div\n      0xffffffffffffffffffffffffffffffffffffffff\n      and\n        /* \"contracts/BusinessConsensus2.sol\":3303:3351  voter != businessProposals[_messageID].initiator */\n      0xffffffffffffffffffffffffffffffffffffffff\n      and\n        /* \"contracts/BusinessConsensus2.sol\":3303:3308  voter */\n      dup4\n        /* \"contracts/BusinessConsensus2.sol\":3303:3351  voter != businessProposals[_messageID].initiator */\n      0xffffffffffffffffffffffffffffffffffffffff\n      and\n      eq\n      iszero\n        /* \"contracts/BusinessConsensus2.sol\":3295:3377  require(voter != businessProposals[_messageID].initiator, \"Initiator can't vote!\") */\n      tag_161\n      jumpi\n      mload(0x40)\n      0x08c379a000000000000000000000000000000000000000000000000000000000\n      dup2\n      mstore\n      0x04\n      add\n      tag_162\n      swap1\n      tag_163\n      jump\t// in\n    tag_162:\n      mload(0x40)\n      dup1\n      swap2\n      sub\n      swap1\n      revert\n    tag_161:\n        /* \"contracts/BusinessConsensus2.sol\":3449:3450  0 */\n      0x00\n        /* \"contracts/BusinessConsensus2.sol\":3398:3451  voter_maps[_messageID][voter].recipient == address(0) */\n      0xffffffffffffffffffffffffffffffffffffffff\n      and\n        /* \"contracts/BusinessConsensus2.sol\":3398:3408  voter_maps */\n      0x01\n        /* \"contracts/BusinessConsensus2.sol\":3409:3419  _messageID */\n      dup4\n      dup4\n        /* \"contracts/BusinessConsensus2.sol\":3398:3420  voter_maps[_messageID] */\n      mload(0x40)\n      tag_164\n      swap3\n      swap2\n      swap1\n      tag_101\n      jump\t// in\n    tag_164:\n      swap1\n      dup2\n      mstore\n      0x20\n      add\n      mload(0x40)\n      dup1\n      swap2\n      sub\n      swap1\n      keccak256\n        /* \"contracts/BusinessConsensus2.sol\":3398:3427  voter_maps[_messageID][voter] */\n      0x00\n        /* \"contracts/BusinessConsensus2.sol\":3421:3426  voter */\n      dup6\n        /* \"contracts/BusinessConsensus2.sol\":3398:3427  voter_maps[_messageID][voter] */\n      0xffffffffffffffffffffffffffffffffffffffff\n      and\n      0xffffffffffffffffffffffffffffffffffffffff\n      and\n      dup2\n      mstore\n      0x20\n      add\n      swap1\n      dup2\n      mstore\n      0x20\n      add\n      0x00\n      keccak256\n        /* \"contracts/BusinessConsensus2.sol\":3398:3437  voter_maps[_messageID][voter].recipient */\n      0x00\n      add\n      0x02\n      swap1\n      sload\n      swap1\n      0x0100\n      exp\n      swap1\n      div\n      0xffffffffffffffffffffffffffffffffffffffff\n      and\n        /* \"contracts/BusinessConsensus2.sol\":3398:3451  voter_maps[_messageID][voter].recipient == address(0) */\n      0xffffffffffffffffffffffffffffffffffffffff\n      and\n      eq\n        /* \"contracts/BusinessConsensus2.sol\":3390:3487  require(voter_maps[_messageID][voter].recipient == address(0), \"Recipient is already registered\") */\n      tag_165\n      jumpi\n      mload(0x40)\n      0x08c379a000000000000000000000000000000000000000000000000000000000\n      dup2\n      mstore\n      0x04\n      add\n      tag_166\n      swap1\n      tag_167\n      jump\t// in\n    tag_166:\n      mload(0x40)\n      dup1\n      swap2\n      sub\n      swap1\n      revert\n    tag_165:\n        /* \"contracts/BusinessConsensus2.sol\":3526:3543  businessProposals */\n      0x00\n        /* \"contracts/BusinessConsensus2.sol\":3544:3554  _messageID */\n      dup3\n      dup3\n        /* \"contracts/BusinessConsensus2.sol\":3526:3555  businessProposals[_messageID] */\n      mload(0x40)\n      tag_168\n      swap3\n      swap2\n      swap1\n      tag_101\n      jump\t// in\n    tag_168:\n      swap1\n      dup2\n      mstore\n      0x20\n      add\n      mload(0x40)\n      dup1\n      swap2\n      sub\n      swap1\n      keccak256\n        /* \"contracts/BusinessConsensus2.sol\":3526:3566  businessProposals[_messageID].expiryDate */\n      0x04\n      add\n      sload\n        /* \"contracts/BusinessConsensus2.sol\":3508:3523  block.timestamp */\n      timestamp\n        /* \"contracts/BusinessConsensus2.sol\":3508:3566  block.timestamp < businessProposals[_messageID].expiryDate */\n      lt\n        /* \"contracts/BusinessConsensus2.sol\":3500:3607  require(block.timestamp < businessProposals[_messageID].expiryDate, \"Proposal has reached its expiry date\") */\n      tag_169\n      jumpi\n      mload(0x40)\n      0x08c379a000000000000000000000000000000000000000000000000000000000\n      dup2\n      mstore\n      0x04\n      add\n      tag_170\n      swap1\n      tag_171\n      jump\t// in\n    tag_170:\n      mload(0x40)\n      dup1\n      swap2\n      sub\n      swap1\n      revert\n    tag_169:\n        /* \"contracts/BusinessConsensus2.sol\":3620:3634  Voter memory x */\n      0x00\n        /* \"contracts/BusinessConsensus2.sol\":3637:3688  Voter({voted: false,recipient: voter, vote: false}) */\n      mload(0x40)\n      dup1\n      0x60\n      add\n      0x40\n      mstore\n      dup1\n        /* \"contracts/BusinessConsensus2.sol\":3651:3656  false */\n      0x00\n        /* \"contracts/BusinessConsensus2.sol\":3637:3688  Voter({voted: false,recipient: voter, vote: false}) */\n      iszero\n      iszero\n      dup2\n      mstore\n      0x20\n      add\n        /* \"contracts/BusinessConsensus2.sol\":3681:3686  false */\n      0x00\n        /* \"contracts/BusinessConsensus2.sol\":3637:3688  Voter({voted: false,recipient: voter, vote: false}) */\n      iszero\n      iszero\n      dup2\n      mstore\n      0x20\n      add\n        /* \"contracts/BusinessConsensus2.sol\":3668:3673  voter */\n      dup6\n        /* \"contracts/BusinessConsensus2.sol\":3637:3688  Voter({voted: false,recipient: voter, vote: false}) */\n      0xffffffffffffffffffffffffffffffffffffffff\n      and\n      dup2\n      mstore\n      pop\n        /* \"contracts/BusinessConsensus2.sol\":3620:3688  Voter memory x = Voter({voted: false,recipient: voter, vote: false}) */\n      swap1\n      pop\n        /* \"contracts/BusinessConsensus2.sol\":3731:3732  x */\n      dup1\n        /* \"contracts/BusinessConsensus2.sol\":3699:3709  voter_maps */\n      0x01\n        /* \"contracts/BusinessConsensus2.sol\":3710:3720  _messageID */\n      dup5\n      dup5\n        /* \"contracts/BusinessConsensus2.sol\":3699:3721  voter_maps[_messageID] */\n      mload(0x40)\n      tag_172\n      swap3\n      swap2\n      swap1\n      tag_101\n      jump\t// in\n    tag_172:\n      swap1\n      dup2\n      mstore\n      0x20\n      add\n      mload(0x40)\n      dup1\n      swap2\n      sub\n      swap1\n      keccak256\n        /* \"contracts/BusinessConsensus2.sol\":3699:3728  voter_maps[_messageID][voter] */\n      0x00\n        /* \"contracts/BusinessConsensus2.sol\":3722:3727  voter */\n      dup7\n        /* \"contracts/BusinessConsensus2.sol\":3699:3728  voter_maps[_messageID][voter] */\n      0xffffffffffffffffffffffffffffffffffffffff\n      and\n      0xffffffffffffffffffffffffffffffffffffffff\n      and\n      dup2\n      mstore\n      0x20\n      add\n      swap1\n      dup2\n      mstore\n      0x20\n      add\n      0x00\n      keccak256\n        /* \"contracts/BusinessConsensus2.sol\":3699:3732  voter_maps[_messageID][voter] = x */\n      0x00\n      dup3\n      add\n      mload\n      dup2\n      0x00\n      add\n      exp(0x0100, 0x00)\n      dup2\n      sload\n      dup2\n      0xff\n      mul\n      not\n      and\n      swap1\n      dup4\n      iszero\n      iszero\n      mul\n      or\n      swap1\n      sstore\n      pop\n      0x20\n      dup3\n      add\n      mload\n      dup2\n      0x00\n      add\n      exp(0x0100, 0x01)\n      dup2\n      sload\n      dup2\n      0xff\n      mul\n      not\n      and\n      swap1\n      dup4\n      iszero\n      iszero\n      mul\n      or\n      swap1\n      sstore\n      pop\n      0x40\n      dup3\n      add\n      mload\n      dup2\n      0x00\n      add\n      exp(0x0100, 0x02)\n      dup2\n      sload\n      dup2\n      0xffffffffffffffffffffffffffffffffffffffff\n      mul\n      not\n      and\n      swap1\n      dup4\n      0xffffffffffffffffffffffffffffffffffffffff\n      and\n      mul\n      or\n      swap1\n      sstore\n      pop\n      swap1\n      pop\n      pop\n        /* \"contracts/BusinessConsensus2.sol\":3743:3747  keys */\n      0x03\n        /* \"contracts/BusinessConsensus2.sol\":3748:3758  _messageID */\n      dup4\n      dup4\n        /* \"contracts/BusinessConsensus2.sol\":3743:3759  keys[_messageID] */\n      mload(0x40)\n      tag_173\n      swap3\n      swap2\n      swap1\n      tag_101\n      jump\t// in\n    tag_173:\n      swap1\n      dup2\n      mstore\n      0x20\n      add\n      mload(0x40)\n      dup1\n      swap2\n      sub\n      swap1\n      keccak256\n        /* \"contracts/BusinessConsensus2.sol\":3765:3770  voter */\n      dup5\n        /* \"contracts/BusinessConsensus2.sol\":3743:3771  keys[_messageID].push(voter) */\n      swap1\n      dup1\n      0x01\n      dup2\n      sload\n      add\n      dup1\n      dup3\n      sstore\n      dup1\n      swap2\n      pop\n      pop\n      0x01\n      swap1\n      sub\n      swap1\n      0x00\n      mstore\n      keccak256(0x00, 0x20)\n      add\n      0x00\n      swap1\n      swap2\n      swap1\n      swap2\n      swap1\n      swap2\n      0x0100\n      exp\n      dup2\n      sload\n      dup2\n      0xffffffffffffffffffffffffffffffffffffffff\n      mul\n      not\n      and\n      swap1\n      dup4\n      0xffffffffffffffffffffffffffffffffffffffff\n      and\n      mul\n      or\n      swap1\n      sstore\n      pop\n        /* \"contracts/BusinessConsensus2.sol\":3056:3779  {\r... */\n      pop\n        /* \"contracts/BusinessConsensus2.sol\":2982:3779  function RegisterVoter(address voter,string calldata _messageID) external {\r... */\n      pop\n      pop\n      pop\n      jump\t// out\n        /* \"contracts/BusinessConsensus2.sol\":2236:2593  function getParameters(string calldata _messageID) external view returns (string memory, uint , address ,uint ,uint){\r... */\n    tag_56:\n        /* \"contracts/BusinessConsensus2.sol\":2310:2323  string memory */\n      0x60\n        /* \"contracts/BusinessConsensus2.sol\":2325:2329  uint */\n      0x00\n        /* \"contracts/BusinessConsensus2.sol\":2332:2339  address */\n      dup1\n        /* \"contracts/BusinessConsensus2.sol\":2341:2345  uint */\n      0x00\n        /* \"contracts/BusinessConsensus2.sol\":2347:2351  uint */\n      dup1\n        /* \"contracts/BusinessConsensus2.sol\":2371:2388  businessProposals */\n      0x00\n        /* \"contracts/BusinessConsensus2.sol\":2389:2399  _messageID */\n      dup8\n      dup8\n        /* \"contracts/BusinessConsensus2.sol\":2371:2400  businessProposals[_messageID] */\n      mload(0x40)\n      tag_176\n      swap3\n      swap2\n      swap1\n      tag_101\n      jump\t// in\n    tag_176:\n      swap1\n      dup2\n      mstore\n      0x20\n      add\n      mload(0x40)\n      dup1\n      swap2\n      sub\n      swap1\n      keccak256\n        /* \"contracts/BusinessConsensus2.sol\":2371:2410  businessProposals[_messageID].messageID */\n      0x00\n      add\n        /* \"contracts/BusinessConsensus2.sol\":2411:2428  businessProposals */\n      0x00\n        /* \"contracts/BusinessConsensus2.sol\":2429:2439  _messageID */\n      dup9\n      dup9\n        /* \"contracts/BusinessConsensus2.sol\":2411:2440  businessProposals[_messageID] */\n      mload(0x40)\n      tag_177\n      swap3\n      swap2\n      swap1\n      tag_101\n      jump\t// in\n    tag_177:\n      swap1\n      dup2\n      mstore\n      0x20\n      add\n      mload(0x40)\n      dup1\n      swap2\n      sub\n      swap1\n      keccak256\n        /* \"contracts/BusinessConsensus2.sol\":2411:2451  businessProposals[_messageID].expiryDate */\n      0x04\n      add\n      sload\n        /* \"contracts/BusinessConsensus2.sol\":2452:2469  businessProposals */\n      0x00\n        /* \"contracts/BusinessConsensus2.sol\":2470:2480  _messageID */\n      dup10\n      dup10\n        /* \"contracts/BusinessConsensus2.sol\":2452:2481  businessProposals[_messageID] */\n      mload(0x40)\n      tag_178\n      swap3\n      swap2\n      swap1\n      tag_101\n      jump\t// in\n    tag_178:\n      swap1\n      dup2\n      mstore\n      0x20\n      add\n      mload(0x40)\n      dup1\n      swap2\n      sub\n      swap1\n      keccak256\n        /* \"contracts/BusinessConsensus2.sol\":2452:2491  businessProposals[_messageID].initiator */\n      0x01\n      add\n      0x00\n      swap1\n      sload\n      swap1\n      0x0100\n      exp\n      swap1\n      div\n      0xffffffffffffffffffffffffffffffffffffffff\n      and\n        /* \"contracts/BusinessConsensus2.sol\":2492:2509  businessProposals */\n      0x00\n        /* \"contracts/BusinessConsensus2.sol\":2510:2520  _messageID */\n      dup11\n      dup11\n        /* \"contracts/BusinessConsensus2.sol\":2492:2521  businessProposals[_messageID] */\n      mload(0x40)\n      tag_179\n      swap3\n      swap2\n      swap1\n      tag_101\n      jump\t// in\n    tag_179:\n      swap1\n      dup2\n      mstore\n      0x20\n      add\n      mload(0x40)\n      dup1\n      swap2\n      sub\n      swap1\n      keccak256\n        /* \"contracts/BusinessConsensus2.sol\":2492:2541  businessProposals[_messageID].BusinessRequirement */\n      0x05\n      add\n      sload\n        /* \"contracts/BusinessConsensus2.sol\":2542:2559  businessProposals */\n      0x00\n        /* \"contracts/BusinessConsensus2.sol\":2560:2570  _messageID */\n      dup12\n      dup12\n        /* \"contracts/BusinessConsensus2.sol\":2542:2571  businessProposals[_messageID] */\n      mload(0x40)\n      tag_180\n      swap3\n      swap2\n      swap1\n      tag_101\n      jump\t// in\n    tag_180:\n      swap1\n      dup2\n      mstore\n      0x20\n      add\n      mload(0x40)\n      dup1\n      swap2\n      sub\n      swap1\n      keccak256\n        /* \"contracts/BusinessConsensus2.sol\":2542:2584  businessProposals[_messageID].numApprovals */\n      0x06\n      add\n      sload\n        /* \"contracts/BusinessConsensus2.sol\":2363:2585  return (businessProposals[_messageID].messageID,businessProposals[_messageID].expiryDate,businessProposals[_messageID].initiator,businessProposals[_messageID].BusinessRequirement,businessProposals[_messageID].numApprovals) */\n      dup5\n      dup1\n      sload\n      tag_181\n      swap1\n      tag_83\n      jump\t// in\n    tag_181:\n      dup1\n      0x1f\n      add\n      0x20\n      dup1\n      swap2\n      div\n      mul\n      0x20\n      add\n      mload(0x40)\n      swap1\n      dup2\n      add\n      0x40\n      mstore\n      dup1\n      swap3\n      swap2\n      swap1\n      dup2\n      dup2\n      mstore\n      0x20\n      add\n      dup3\n      dup1\n      sload\n      tag_182\n      swap1\n      tag_83\n      jump\t// in\n    tag_182:\n      dup1\n      iszero\n      tag_183\n      jumpi\n      dup1\n      0x1f\n      lt\n      tag_184\n      jumpi\n      0x0100\n      dup1\n      dup4\n      sload\n      div\n      mul\n      dup4\n      mstore\n      swap2\n      0x20\n      add\n      swap2\n      jump(tag_183)\n    tag_184:\n      dup3\n      add\n      swap2\n      swap1\n      0x00\n      mstore\n      keccak256(0x00, 0x20)\n      swap1\n    tag_185:\n      dup2\n      sload\n      dup2\n      mstore\n      swap1\n      0x01\n      add\n      swap1\n      0x20\n      add\n      dup1\n      dup4\n      gt\n      tag_185\n      jumpi\n      dup3\n      swap1\n      sub\n      0x1f\n      and\n      dup3\n      add\n      swap2\n    tag_183:\n      pop\n      pop\n      pop\n      pop\n      pop\n      swap5\n      pop\n      swap5\n      pop\n      swap5\n      pop\n      swap5\n      pop\n      swap5\n      pop\n      swap5\n      pop\n        /* \"contracts/BusinessConsensus2.sol\":2236:2593  function getParameters(string calldata _messageID) external view returns (string memory, uint , address ,uint ,uint){\r... */\n      swap3\n      swap6\n      pop\n      swap3\n      swap6\n      swap1\n      swap4\n      pop\n      jump\t// out\n        /* \"contracts/BusinessConsensus2.sol\":2599:2876  function getParameters2(address test_address,string calldata _messageID) external view returns (bool, bool, address){\r... */\n    tag_61:\n        /* \"contracts/BusinessConsensus2.sol\":2695:2699  bool */\n      0x00\n        /* \"contracts/BusinessConsensus2.sol\":2701:2705  bool */\n      dup1\n        /* \"contracts/BusinessConsensus2.sol\":2707:2714  address */\n      0x00\n        /* \"contracts/BusinessConsensus2.sol\":2734:2744  voter_maps */\n      0x01\n        /* \"contracts/BusinessConsensus2.sol\":2745:2755  _messageID */\n      dup6\n      dup6\n        /* \"contracts/BusinessConsensus2.sol\":2734:2756  voter_maps[_messageID] */\n      mload(0x40)\n      tag_187\n      swap3\n      swap2\n      swap1\n      tag_101\n      jump\t// in\n    tag_187:\n      swap1\n      dup2\n      mstore\n      0x20\n      add\n      mload(0x40)\n      dup1\n      swap2\n      sub\n      swap1\n      keccak256\n        /* \"contracts/BusinessConsensus2.sol\":2734:2770  voter_maps[_messageID][test_address] */\n      0x00\n        /* \"contracts/BusinessConsensus2.sol\":2757:2769  test_address */\n      dup8\n        /* \"contracts/BusinessConsensus2.sol\":2734:2770  voter_maps[_messageID][test_address] */\n      0xffffffffffffffffffffffffffffffffffffffff\n      and\n      0xffffffffffffffffffffffffffffffffffffffff\n      and\n      dup2\n      mstore\n      0x20\n      add\n      swap1\n      dup2\n      mstore\n      0x20\n      add\n      0x00\n      keccak256\n        /* \"contracts/BusinessConsensus2.sol\":2734:2775  voter_maps[_messageID][test_address].vote */\n      0x00\n      add\n      0x01\n      swap1\n      sload\n      swap1\n      0x0100\n      exp\n      swap1\n      div\n      0xff\n      and\n        /* \"contracts/BusinessConsensus2.sol\":2777:2787  voter_maps */\n      0x01\n        /* \"contracts/BusinessConsensus2.sol\":2788:2798  _messageID */\n      dup7\n      dup7\n        /* \"contracts/BusinessConsensus2.sol\":2777:2799  voter_maps[_messageID] */\n      mload(0x40)\n      tag_188\n      swap3\n      swap2\n      swap1\n      tag_101\n      jump\t// in\n    tag_188:\n      swap1\n      dup2\n      mstore\n      0x20\n      add\n      mload(0x40)\n      dup1\n      swap2\n      sub\n      swap1\n      keccak256\n        /* \"contracts/BusinessConsensus2.sol\":2777:2813  voter_maps[_messageID][test_address] */\n      0x00\n        /* \"contracts/BusinessConsensus2.sol\":2800:2812  test_address */\n      dup9\n        /* \"contracts/BusinessConsensus2.sol\":2777:2813  voter_maps[_messageID][test_address] */\n      0xffffffffffffffffffffffffffffffffffffffff\n      and\n      0xffffffffffffffffffffffffffffffffffffffff\n      and\n      dup2\n      mstore\n      0x20\n      add\n      swap1\n      dup2\n      mstore\n      0x20\n      add\n      0x00\n      keccak256\n        /* \"contracts/BusinessConsensus2.sol\":2777:2819  voter_maps[_messageID][test_address].voted */\n      0x00\n      add\n      0x00\n      swap1\n      sload\n      swap1\n      0x0100\n      exp\n      swap1\n      div\n      0xff\n      and\n        /* \"contracts/BusinessConsensus2.sol\":2821:2831  voter_maps */\n      0x01\n        /* \"contracts/BusinessConsensus2.sol\":2832:2842  _messageID */\n      dup8\n      dup8\n        /* \"contracts/BusinessConsensus2.sol\":2821:2843  voter_maps[_messageID] */\n      mload(0x40)\n      tag_189\n      swap3\n      swap2\n      swap1\n      tag_101\n      jump\t// in\n    tag_189:\n      swap1\n      dup2\n      mstore\n      0x20\n      add\n      mload(0x40)\n      dup1\n      swap2\n      sub\n      swap1\n      keccak256\n        /* \"contracts/BusinessConsensus2.sol\":2821:2857  voter_maps[_messageID][test_address] */\n      0x00\n        /* \"contracts/BusinessConsensus2.sol\":2844:2856  test_address */\n      dup10\n        /* \"contracts/BusinessConsensus2.sol\":2821:2857  voter_maps[_messageID][test_address] */\n      0xffffffffffffffffffffffffffffffffffffffff\n      and\n      0xffffffffffffffffffffffffffffffffffffffff\n      and\n      dup2\n      mstore\n      0x20\n      add\n      swap1\n      dup2\n      mstore\n      0x20\n      add\n      0x00\n      keccak256\n        /* \"contracts/BusinessConsensus2.sol\":2821:2867  voter_maps[_messageID][test_address].recipient */\n      0x00\n      add\n      0x02\n      swap1\n      sload\n      swap1\n      0x0100\n      exp\n      swap1\n      div\n      0xffffffffffffffffffffffffffffffffffffffff\n      and\n        /* \"contracts/BusinessConsensus2.sol\":2726:2868  return (voter_maps[_messageID][test_address].vote, voter_maps[_messageID][test_address].voted, voter_maps[_messageID][test_address].recipient) */\n      swap3\n      pop\n      swap3\n      pop\n      swap3\n      pop\n        /* \"contracts/BusinessConsensus2.sol\":2599:2876  function getParameters2(address test_address,string calldata _messageID) external view returns (bool, bool, address){\r... */\n      swap4\n      pop\n      swap4\n      pop\n      swap4\n      swap1\n      pop\n      jump\t// out\n        /* \"contracts/BusinessConsensus2.sol\":5242:6301  function Consensus(string calldata _messageID) external {\r... */\n    tag_65:\n        /* \"contracts/BusinessConsensus2.sol\":5336:5353  businessProposals */\n      0x00\n        /* \"contracts/BusinessConsensus2.sol\":5354:5364  _messageID */\n      dup3\n      dup3\n        /* \"contracts/BusinessConsensus2.sol\":5336:5365  businessProposals[_messageID] */\n      mload(0x40)\n      tag_191\n      swap3\n      swap2\n      swap1\n      tag_101\n      jump\t// in\n    tag_191:\n      swap1\n      dup2\n      mstore\n      0x20\n      add\n      mload(0x40)\n      dup1\n      swap2\n      sub\n      swap1\n      keccak256\n        /* \"contracts/BusinessConsensus2.sol\":5336:5376  businessProposals[_messageID].expiryDate */\n      0x04\n      add\n      sload\n        /* \"contracts/BusinessConsensus2.sol\":5317:5332  block.timestamp */\n      timestamp\n        /* \"contracts/BusinessConsensus2.sol\":5317:5376  block.timestamp >= businessProposals[_messageID].expiryDate */\n      lt\n      iszero\n        /* \"contracts/BusinessConsensus2.sol\":5309:5413  require(block.timestamp >= businessProposals[_messageID].expiryDate, \"Verdict has not been reached yet\") */\n      tag_192\n      jumpi\n      mload(0x40)\n      0x08c379a000000000000000000000000000000000000000000000000000000000\n      dup2\n      mstore\n      0x04\n      add\n      tag_193\n      swap1\n      tag_142\n      jump\t// in\n    tag_193:\n      mload(0x40)\n      dup1\n      swap2\n      sub\n      swap1\n      revert\n    tag_192:\n        /* \"contracts/BusinessConsensus2.sol\":5476:5481  false */\n      0x00\n        /* \"contracts/BusinessConsensus2.sol\":5432:5481  businessProposals[_messageID].isCompiled == false */\n      iszero\n      iszero\n        /* \"contracts/BusinessConsensus2.sol\":5432:5449  businessProposals */\n      0x00\n        /* \"contracts/BusinessConsensus2.sol\":5450:5460  _messageID */\n      dup4\n      dup4\n        /* \"contracts/BusinessConsensus2.sol\":5432:5461  businessProposals[_messageID] */\n      mload(0x40)\n      tag_194\n      swap3\n      swap2\n      swap1\n      tag_101\n      jump\t// in\n    tag_194:\n      swap1\n      dup2\n      mstore\n      0x20\n      add\n      mload(0x40)\n      dup1\n      swap2\n      sub\n      swap1\n      keccak256\n        /* \"contracts/BusinessConsensus2.sol\":5432:5472  businessProposals[_messageID].isCompiled */\n      0x07\n      add\n      0x00\n      swap1\n      sload\n      swap1\n      0x0100\n      exp\n      swap1\n      div\n      0xff\n      and\n        /* \"contracts/BusinessConsensus2.sol\":5432:5481  businessProposals[_messageID].isCompiled == false */\n      iszero\n      iszero\n      eq\n        /* \"contracts/BusinessConsensus2.sol\":5424:5523  require(businessProposals[_messageID].isCompiled == false, \"Consensus has already been calculated\") */\n      tag_195\n      jumpi\n      mload(0x40)\n      0x08c379a000000000000000000000000000000000000000000000000000000000\n      dup2\n      mstore\n      0x04\n      add\n      tag_196\n      swap1\n      tag_197\n      jump\t// in\n    tag_196:\n      mload(0x40)\n      dup1\n      swap2\n      sub\n      swap1\n      revert\n    tag_195:\n        /* \"contracts/BusinessConsensus2.sol\":5556:5573  businessProposals */\n      0x00\n        /* \"contracts/BusinessConsensus2.sol\":5574:5584  _messageID */\n      dup3\n      dup3\n        /* \"contracts/BusinessConsensus2.sol\":5556:5585  businessProposals[_messageID] */\n      mload(0x40)\n      tag_198\n      swap3\n      swap2\n      swap1\n      tag_101\n      jump\t// in\n    tag_198:\n      swap1\n      dup2\n      mstore\n      0x20\n      add\n      mload(0x40)\n      dup1\n      swap2\n      sub\n      swap1\n      keccak256\n        /* \"contracts/BusinessConsensus2.sol\":5556:5595  businessProposals[_messageID].initiator */\n      0x01\n      add\n      0x00\n      swap1\n      sload\n      swap1\n      0x0100\n      exp\n      swap1\n      div\n      0xffffffffffffffffffffffffffffffffffffffff\n      and\n        /* \"contracts/BusinessConsensus2.sol\":5542:5595  msg.sender == businessProposals[_messageID].initiator */\n      0xffffffffffffffffffffffffffffffffffffffff\n      and\n        /* \"contracts/BusinessConsensus2.sol\":5542:5552  msg.sender */\n      caller\n        /* \"contracts/BusinessConsensus2.sol\":5542:5595  msg.sender == businessProposals[_messageID].initiator */\n      0xffffffffffffffffffffffffffffffffffffffff\n      and\n      eq\n        /* \"contracts/BusinessConsensus2.sol\":5542:5659  msg.sender == businessProposals[_messageID].initiator || voter_maps[_messageID][msg.sender].recipient != address(0x0) */\n      dup1\n      tag_199\n      jumpi\n      pop\n        /* \"contracts/BusinessConsensus2.sol\":5655:5658  0x0 */\n      0x00\n        /* \"contracts/BusinessConsensus2.sol\":5599:5659  voter_maps[_messageID][msg.sender].recipient != address(0x0) */\n      0xffffffffffffffffffffffffffffffffffffffff\n      and\n        /* \"contracts/BusinessConsensus2.sol\":5599:5609  voter_maps */\n      0x01\n        /* \"contracts/BusinessConsensus2.sol\":5610:5620  _messageID */\n      dup4\n      dup4\n        /* \"contracts/BusinessConsensus2.sol\":5599:5621  voter_maps[_messageID] */\n      mload(0x40)\n      tag_200\n      swap3\n      swap2\n      swap1\n      tag_101\n      jump\t// in\n    tag_200:\n      swap1\n      dup2\n      mstore\n      0x20\n      add\n      mload(0x40)\n      dup1\n      swap2\n      sub\n      swap1\n      keccak256\n        /* \"contracts/BusinessConsensus2.sol\":5599:5633  voter_maps[_messageID][msg.sender] */\n      0x00\n        /* \"contracts/BusinessConsensus2.sol\":5622:5632  msg.sender */\n      caller\n        /* \"contracts/BusinessConsensus2.sol\":5599:5633  voter_maps[_messageID][msg.sender] */\n      0xffffffffffffffffffffffffffffffffffffffff\n      and\n      0xffffffffffffffffffffffffffffffffffffffff\n      and\n      dup2\n      mstore\n      0x20\n      add\n      swap1\n      dup2\n      mstore\n      0x20\n      add\n      0x00\n      keccak256\n        /* \"contracts/BusinessConsensus2.sol\":5599:5643  voter_maps[_messageID][msg.sender].recipient */\n      0x00\n      add\n      0x02\n      swap1\n      sload\n      swap1\n      0x0100\n      exp\n      swap1\n      div\n      0xffffffffffffffffffffffffffffffffffffffff\n      and\n        /* \"contracts/BusinessConsensus2.sol\":5599:5659  voter_maps[_messageID][msg.sender].recipient != address(0x0) */\n      0xffffffffffffffffffffffffffffffffffffffff\n      and\n      eq\n      iszero\n        /* \"contracts/BusinessConsensus2.sol\":5542:5659  msg.sender == businessProposals[_messageID].initiator || voter_maps[_messageID][msg.sender].recipient != address(0x0) */\n    tag_199:\n        /* \"contracts/BusinessConsensus2.sol\":5534:5702  require(msg.sender == businessProposals[_messageID].initiator || voter_maps[_messageID][msg.sender].recipient != address(0x0), \"You aren't authorize to compile Bundle\") */\n      tag_201\n      jumpi\n      mload(0x40)\n      0x08c379a000000000000000000000000000000000000000000000000000000000\n      dup2\n      mstore\n      0x04\n      add\n      tag_202\n      swap1\n      tag_203\n      jump\t// in\n    tag_202:\n      mload(0x40)\n      dup1\n      swap2\n      sub\n      swap1\n      revert\n    tag_201:\n        /* \"contracts/BusinessConsensus2.sol\":5713:5742  uint256 AccumulatedPercentage */\n      0x00\n        /* \"contracts/BusinessConsensus2.sol\":5814:5817  100 */\n      0x64\n        /* \"contracts/BusinessConsensus2.sol\":5789:5793  keys */\n      0x03\n        /* \"contracts/BusinessConsensus2.sol\":5794:5804  _messageID */\n      dup5\n      dup5\n        /* \"contracts/BusinessConsensus2.sol\":5789:5805  keys[_messageID] */\n      mload(0x40)\n      tag_204\n      swap3\n      swap2\n      swap1\n      tag_101\n      jump\t// in\n    tag_204:\n      swap1\n      dup2\n      mstore\n      0x20\n      add\n      mload(0x40)\n      dup1\n      swap2\n      sub\n      swap1\n      keccak256\n        /* \"contracts/BusinessConsensus2.sol\":5789:5812  keys[_messageID].length */\n      dup1\n      sload\n      swap1\n      pop\n        /* \"contracts/BusinessConsensus2.sol\":5746:5763  businessProposals */\n      0x00\n        /* \"contracts/BusinessConsensus2.sol\":5764:5774  _messageID */\n      dup6\n      dup6\n        /* \"contracts/BusinessConsensus2.sol\":5746:5775  businessProposals[_messageID] */\n      mload(0x40)\n      tag_205\n      swap3\n      swap2\n      swap1\n      tag_101\n      jump\t// in\n    tag_205:\n      swap1\n      dup2\n      mstore\n      0x20\n      add\n      mload(0x40)\n      dup1\n      swap2\n      sub\n      swap1\n      keccak256\n        /* \"contracts/BusinessConsensus2.sol\":5746:5788  businessProposals[_messageID].numApprovals */\n      0x06\n      add\n      sload\n        /* \"contracts/BusinessConsensus2.sol\":5746:5812  businessProposals[_messageID].numApprovals/keys[_messageID].length */\n      tag_206\n      swap2\n      swap1\n      tag_207\n      jump\t// in\n    tag_206:\n        /* \"contracts/BusinessConsensus2.sol\":5745:5817  (businessProposals[_messageID].numApprovals/keys[_messageID].length)*100 */\n      tag_208\n      swap2\n      swap1\n      tag_209\n      jump\t// in\n    tag_208:\n        /* \"contracts/BusinessConsensus2.sol\":5713:5817  uint256 AccumulatedPercentage = (businessProposals[_messageID].numApprovals/keys[_messageID].length)*100 */\n      swap1\n      pop\n        /* \"contracts/BusinessConsensus2.sol\":5856:5873  businessProposals */\n      0x00\n        /* \"contracts/BusinessConsensus2.sol\":5874:5884  _messageID */\n      dup4\n      dup4\n        /* \"contracts/BusinessConsensus2.sol\":5856:5885  businessProposals[_messageID] */\n      mload(0x40)\n      tag_210\n      swap3\n      swap2\n      swap1\n      tag_101\n      jump\t// in\n    tag_210:\n      swap1\n      dup2\n      mstore\n      0x20\n      add\n      mload(0x40)\n      dup1\n      swap2\n      sub\n      swap1\n      keccak256\n        /* \"contracts/BusinessConsensus2.sol\":5856:5905  businessProposals[_messageID].BusinessRequirement */\n      0x05\n      add\n      sload\n        /* \"contracts/BusinessConsensus2.sol\":5831:5852  AccumulatedPercentage */\n      dup2\n        /* \"contracts/BusinessConsensus2.sol\":5831:5905  AccumulatedPercentage >= businessProposals[_messageID].BusinessRequirement */\n      lt\n        /* \"contracts/BusinessConsensus2.sol\":5828:5988  if(AccumulatedPercentage >= businessProposals[_messageID].BusinessRequirement){\r... */\n      tag_211\n      jumpi\n        /* \"contracts/BusinessConsensus2.sol\":5921:5976  businessProposals[_messageID].finalVerdict = \"Accepted\" */\n      0x4163636570746564000000000000000000000000000000000000000000000000\n        /* \"contracts/BusinessConsensus2.sol\":5921:5938  businessProposals */\n      0x00\n        /* \"contracts/BusinessConsensus2.sol\":5939:5949  _messageID */\n      dup5\n      dup5\n        /* \"contracts/BusinessConsensus2.sol\":5921:5950  businessProposals[_messageID] */\n      mload(0x40)\n      tag_212\n      swap3\n      swap2\n      swap1\n      tag_101\n      jump\t// in\n    tag_212:\n      swap1\n      dup2\n      mstore\n      0x20\n      add\n      mload(0x40)\n      dup1\n      swap2\n      sub\n      swap1\n      keccak256\n        /* \"contracts/BusinessConsensus2.sol\":5921:5963  businessProposals[_messageID].finalVerdict */\n      0x08\n      add\n        /* \"contracts/BusinessConsensus2.sol\":5921:5976  businessProposals[_messageID].finalVerdict = \"Accepted\" */\n      dup2\n      swap1\n      sstore\n      pop\n        /* \"contracts/BusinessConsensus2.sol\":5828:5988  if(AccumulatedPercentage >= businessProposals[_messageID].BusinessRequirement){\r... */\n    tag_211:\n        /* \"contracts/BusinessConsensus2.sol\":6002:6009  uint8 i */\n      0x00\n        /* \"contracts/BusinessConsensus2.sol\":5998:6236  for(uint8 i=0; i< keys[_messageID].length; i++){\r... */\n    tag_213:\n        /* \"contracts/BusinessConsensus2.sol\":6016:6020  keys */\n      0x03\n        /* \"contracts/BusinessConsensus2.sol\":6021:6031  _messageID */\n      dup5\n      dup5\n        /* \"contracts/BusinessConsensus2.sol\":6016:6032  keys[_messageID] */\n      mload(0x40)\n      tag_216\n      swap3\n      swap2\n      swap1\n      tag_101\n      jump\t// in\n    tag_216:\n      swap1\n      dup2\n      mstore\n      0x20\n      add\n      mload(0x40)\n      dup1\n      swap2\n      sub\n      swap1\n      keccak256\n        /* \"contracts/BusinessConsensus2.sol\":6016:6039  keys[_messageID].length */\n      dup1\n      sload\n      swap1\n      pop\n        /* \"contracts/BusinessConsensus2.sol\":6013:6014  i */\n      dup2\n        /* \"contracts/BusinessConsensus2.sol\":6013:6039  i< keys[_messageID].length */\n      0xff\n      and\n      lt\n        /* \"contracts/BusinessConsensus2.sol\":5998:6236  for(uint8 i=0; i< keys[_messageID].length; i++){\r... */\n      iszero\n      tag_214\n      jumpi\n        /* \"contracts/BusinessConsensus2.sol\":6116:6121  false */\n      0x00\n        /* \"contracts/BusinessConsensus2.sol\":6063:6121  voter_maps[_messageID][keys[_messageID][i]].voted == false */\n      iszero\n      iszero\n        /* \"contracts/BusinessConsensus2.sol\":6063:6073  voter_maps */\n      0x01\n        /* \"contracts/BusinessConsensus2.sol\":6074:6084  _messageID */\n      dup6\n      dup6\n        /* \"contracts/BusinessConsensus2.sol\":6063:6085  voter_maps[_messageID] */\n      mload(0x40)\n      tag_217\n      swap3\n      swap2\n      swap1\n      tag_101\n      jump\t// in\n    tag_217:\n      swap1\n      dup2\n      mstore\n      0x20\n      add\n      mload(0x40)\n      dup1\n      swap2\n      sub\n      swap1\n      keccak256\n        /* \"contracts/BusinessConsensus2.sol\":6063:6106  voter_maps[_messageID][keys[_messageID][i]] */\n      0x00\n        /* \"contracts/BusinessConsensus2.sol\":6086:6090  keys */\n      0x03\n        /* \"contracts/BusinessConsensus2.sol\":6091:6101  _messageID */\n      dup8\n      dup8\n        /* \"contracts/BusinessConsensus2.sol\":6086:6102  keys[_messageID] */\n      mload(0x40)\n      tag_218\n      swap3\n      swap2\n      swap1\n      tag_101\n      jump\t// in\n    tag_218:\n      swap1\n      dup2\n      mstore\n      0x20\n      add\n      mload(0x40)\n      dup1\n      swap2\n      sub\n      swap1\n      keccak256\n        /* \"contracts/BusinessConsensus2.sol\":6103:6104  i */\n      dup5\n        /* \"contracts/BusinessConsensus2.sol\":6086:6105  keys[_messageID][i] */\n      0xff\n      and\n      dup2\n      sload\n      dup2\n      lt\n      tag_219\n      jumpi\n      tag_220\n      tag_221\n      jump\t// in\n    tag_220:\n    tag_219:\n      swap1\n      0x00\n      mstore\n      keccak256(0x00, 0x20)\n      add\n      0x00\n      swap1\n      sload\n      swap1\n      0x0100\n      exp\n      swap1\n      div\n      0xffffffffffffffffffffffffffffffffffffffff\n      and\n        /* \"contracts/BusinessConsensus2.sol\":6063:6106  voter_maps[_messageID][keys[_messageID][i]] */\n      0xffffffffffffffffffffffffffffffffffffffff\n      and\n      0xffffffffffffffffffffffffffffffffffffffff\n      and\n      dup2\n      mstore\n      0x20\n      add\n      swap1\n      dup2\n      mstore\n      0x20\n      add\n      0x00\n      keccak256\n        /* \"contracts/BusinessConsensus2.sol\":6063:6112  voter_maps[_messageID][keys[_messageID][i]].voted */\n      0x00\n      add\n      0x00\n      swap1\n      sload\n      swap1\n      0x0100\n      exp\n      swap1\n      div\n      0xff\n      and\n        /* \"contracts/BusinessConsensus2.sol\":6063:6121  voter_maps[_messageID][keys[_messageID][i]].voted == false */\n      iszero\n      iszero\n      eq\n        /* \"contracts/BusinessConsensus2.sol\":6060:6225  if(voter_maps[_messageID][keys[_messageID][i]].voted == false){\r... */\n      iszero\n      tag_223\n      jumpi\n        /* \"contracts/BusinessConsensus2.sol\":6141:6147  Voters */\n      0x02\n        /* \"contracts/BusinessConsensus2.sol\":6148:6158  _messageID */\n      dup5\n      dup5\n        /* \"contracts/BusinessConsensus2.sol\":6141:6159  Voters[_messageID] */\n      mload(0x40)\n      tag_224\n      swap3\n      swap2\n      swap1\n      tag_101\n      jump\t// in\n    tag_224:\n      swap1\n      dup2\n      mstore\n      0x20\n      add\n      mload(0x40)\n      dup1\n      swap2\n      sub\n      swap1\n      keccak256\n        /* \"contracts/BusinessConsensus2.sol\":6165:6175  voter_maps */\n      0x01\n        /* \"contracts/BusinessConsensus2.sol\":6176:6186  _messageID */\n      dup6\n      dup6\n        /* \"contracts/BusinessConsensus2.sol\":6165:6187  voter_maps[_messageID] */\n      mload(0x40)\n      tag_225\n      swap3\n      swap2\n      swap1\n      tag_101\n      jump\t// in\n    tag_225:\n      swap1\n      dup2\n      mstore\n      0x20\n      add\n      mload(0x40)\n      dup1\n      swap2\n      sub\n      swap1\n      keccak256\n        /* \"contracts/BusinessConsensus2.sol\":6165:6208  voter_maps[_messageID][keys[_messageID][i]] */\n      0x00\n        /* \"contracts/BusinessConsensus2.sol\":6188:6192  keys */\n      0x03\n        /* \"contracts/BusinessConsensus2.sol\":6193:6203  _messageID */\n      dup8\n      dup8\n        /* \"contracts/BusinessConsensus2.sol\":6188:6204  keys[_messageID] */\n      mload(0x40)\n      tag_226\n      swap3\n      swap2\n      swap1\n      tag_101\n      jump\t// in\n    tag_226:\n      swap1\n      dup2\n      mstore\n      0x20\n      add\n      mload(0x40)\n      dup1\n      swap2\n      sub\n      swap1\n      keccak256\n        /* \"contracts/BusinessConsensus2.sol\":6205:6206  i */\n      dup5\n        /* \"contracts/BusinessConsensus2.sol\":6188:6207  keys[_messageID][i] */\n      0xff\n      and\n      dup2\n      sload\n      dup2\n      lt\n      tag_227\n      jumpi\n      tag_228\n      tag_221\n      jump\t// in\n    tag_228:\n    tag_227:\n      swap1\n      0x00\n      mstore\n      keccak256(0x00, 0x20)\n      add\n      0x00\n      swap1\n      sload\n      swap1\n      0x0100\n      exp\n      swap1\n      div\n      0xffffffffffffffffffffffffffffffffffffffff\n      and\n        /* \"contracts/BusinessConsensus2.sol\":6165:6208  voter_maps[_messageID][keys[_messageID][i]] */\n      0xffffffffffffffffffffffffffffffffffffffff\n      and\n      0xffffffffffffffffffffffffffffffffffffffff\n      and\n      dup2\n      mstore\n      0x20\n      add\n      swap1\n      dup2\n      mstore\n      0x20\n      add\n      0x00\n      keccak256\n        /* \"contracts/BusinessConsensus2.sol\":6141:6209  Voters[_messageID].push(voter_maps[_messageID][keys[_messageID][i]]) */\n      swap1\n      dup1\n      0x01\n      dup2\n      sload\n      add\n      dup1\n      dup3\n      sstore\n      dup1\n      swap2\n      pop\n      pop\n      0x01\n      swap1\n      sub\n      swap1\n      0x00\n      mstore\n      keccak256(0x00, 0x20)\n      add\n      0x00\n      swap1\n      swap2\n      swap1\n      swap2\n      swap1\n      swap2\n      pop\n      0x00\n      dup3\n      add\n      0x00\n      swap1\n      sload\n      swap1\n      0x0100\n      exp\n      swap1\n      div\n      0xff\n      and\n      dup2\n      0x00\n      add\n      exp(0x0100, 0x00)\n      dup2\n      sload\n      dup2\n      0xff\n      mul\n      not\n      and\n      swap1\n      dup4\n      iszero\n      iszero\n      mul\n      or\n      swap1\n      sstore\n      pop\n      0x00\n      dup3\n      add\n      0x01\n      swap1\n      sload\n      swap1\n      0x0100\n      exp\n      swap1\n      div\n      0xff\n      and\n      dup2\n      0x00\n      add\n      exp(0x0100, 0x01)\n      dup2\n      sload\n      dup2\n      0xff\n      mul\n      not\n      and\n      swap1\n      dup4\n      iszero\n      iszero\n      mul\n      or\n      swap1\n      sstore\n      pop\n      0x00\n      dup3\n      add\n      0x02\n      swap1\n      sload\n      swap1\n      0x0100\n      exp\n      swap1\n      div\n      0xffffffffffffffffffffffffffffffffffffffff\n      and\n      dup2\n      0x00\n      add\n      exp(0x0100, 0x02)\n      dup2\n      sload\n      dup2\n      0xffffffffffffffffffffffffffffffffffffffff\n      mul\n      not\n      and\n      swap1\n      dup4\n      0xffffffffffffffffffffffffffffffffffffffff\n      and\n      mul\n      or\n      swap1\n      sstore\n      pop\n      pop\n      pop\n        /* \"contracts/BusinessConsensus2.sol\":6060:6225  if(voter_maps[_messageID][keys[_messageID][i]].voted == false){\r... */\n    tag_223:\n        /* \"contracts/BusinessConsensus2.sol\":6041:6044  i++ */\n      dup1\n      dup1\n      tag_231\n      swap1\n      tag_232\n      jump\t// in\n    tag_231:\n      swap2\n      pop\n      pop\n        /* \"contracts/BusinessConsensus2.sol\":5998:6236  for(uint8 i=0; i< keys[_messageID].length; i++){\r... */\n      jump(tag_213)\n    tag_214:\n      pop\n        /* \"contracts/BusinessConsensus2.sol\":6289:6293  true */\n      0x01\n        /* \"contracts/BusinessConsensus2.sol\":6246:6263  businessProposals */\n      0x00\n        /* \"contracts/BusinessConsensus2.sol\":6264:6274  _messageID */\n      dup5\n      dup5\n        /* \"contracts/BusinessConsensus2.sol\":6246:6275  businessProposals[_messageID] */\n      mload(0x40)\n      tag_233\n      swap3\n      swap2\n      swap1\n      tag_101\n      jump\t// in\n    tag_233:\n      swap1\n      dup2\n      mstore\n      0x20\n      add\n      mload(0x40)\n      dup1\n      swap2\n      sub\n      swap1\n      keccak256\n        /* \"contracts/BusinessConsensus2.sol\":6246:6286  businessProposals[_messageID].isCompiled */\n      0x07\n      add\n      0x00\n        /* \"contracts/BusinessConsensus2.sol\":6246:6293  businessProposals[_messageID].isCompiled = true */\n      0x0100\n      exp\n      dup2\n      sload\n      dup2\n      0xff\n      mul\n      not\n      and\n      swap1\n      dup4\n      iszero\n      iszero\n      mul\n      or\n      swap1\n      sstore\n      pop\n        /* \"contracts/BusinessConsensus2.sol\":5298:6301  {\r... */\n      pop\n        /* \"contracts/BusinessConsensus2.sol\":5242:6301  function Consensus(string calldata _messageID) external {\r... */\n      pop\n      pop\n      jump\t// out\n        /* \"contracts/BusinessConsensus2.sol\":1025:1063  mapping(string=>Voter[]) public Voters */\n    tag_68:\n      0x02\n      dup3\n      dup1\n      mload\n      0x20\n      dup2\n      add\n      dup3\n      add\n      dup1\n      mload\n      dup5\n      dup3\n      mstore\n      0x20\n      dup4\n      add\n      0x20\n      dup6\n      add\n      keccak256\n      dup2\n      dup4\n      mstore\n      dup1\n      swap6\n      pop\n      pop\n      pop\n      pop\n      pop\n      pop\n      dup2\n      dup2\n      sload\n      dup2\n      lt\n      tag_234\n      jumpi\n      0x00\n      dup1\n      revert\n    tag_234:\n      swap1\n      0x00\n      mstore\n      keccak256(0x00, 0x20)\n      add\n      0x00\n      swap2\n      pop\n      swap2\n      pop\n      pop\n      dup1\n      0x00\n      add\n      0x00\n      swap1\n      sload\n      swap1\n      0x0100\n      exp\n      swap1\n      div\n      0xff\n      and\n      swap1\n      dup1\n      0x00\n      add\n      0x01\n      swap1\n      sload\n      swap1\n      0x0100\n      exp\n      swap1\n      div\n      0xff\n      and\n      swap1\n      dup1\n      0x00\n      add\n      0x02\n      swap1\n      sload\n      swap1\n      0x0100\n      exp\n      swap1\n      div\n      0xffffffffffffffffffffffffffffffffffffffff\n      and\n      swap1\n      pop\n      dup4\n      jump\t// out\n        /* \"contracts/BusinessConsensus2.sol\":1934:2081  function getValues(string calldata _messageID) public view returns (string memory){\r... */\n    tag_72:\n        /* \"contracts/BusinessConsensus2.sol\":2002:2015  string memory */\n      0x60\n        /* \"contracts/BusinessConsensus2.sol\":2034:2051  businessProposals */\n      0x00\n        /* \"contracts/BusinessConsensus2.sol\":2052:2062  _messageID */\n      dup4\n      dup4\n        /* \"contracts/BusinessConsensus2.sol\":2034:2063  businessProposals[_messageID] */\n      mload(0x40)\n      tag_237\n      swap3\n      swap2\n      swap1\n      tag_101\n      jump\t// in\n    tag_237:\n      swap1\n      dup2\n      mstore\n      0x20\n      add\n      mload(0x40)\n      dup1\n      swap2\n      sub\n      swap1\n      keccak256\n        /* \"contracts/BusinessConsensus2.sol\":2034:2073  businessProposals[_messageID].messageID */\n      0x00\n      add\n        /* \"contracts/BusinessConsensus2.sol\":2027:2073  return businessProposals[_messageID].messageID */\n      dup1\n      sload\n      tag_238\n      swap1\n      tag_83\n      jump\t// in\n    tag_238:\n      dup1\n      0x1f\n      add\n      0x20\n      dup1\n      swap2\n      div\n      mul\n      0x20\n      add\n      mload(0x40)\n      swap1\n      dup2\n      add\n      0x40\n      mstore\n      dup1\n      swap3\n      swap2\n      swap1\n      dup2\n      dup2\n      mstore\n      0x20\n      add\n      dup3\n      dup1\n      sload\n      tag_239\n      swap1\n      tag_83\n      jump\t// in\n    tag_239:\n      dup1\n      iszero\n      tag_240\n      jumpi\n      dup1\n      0x1f\n      lt\n      tag_241\n      jumpi\n      0x0100\n      dup1\n      dup4\n      sload\n      div\n      mul\n      dup4\n      mstore\n      swap2\n      0x20\n      add\n      swap2\n      jump(tag_240)\n    tag_241:\n      dup3\n      add\n      swap2\n      swap1\n      0x00\n      mstore\n      keccak256(0x00, 0x20)\n      swap1\n    tag_242:\n      dup2\n      sload\n      dup2\n      mstore\n      swap1\n      0x01\n      add\n      swap1\n      0x20\n      add\n      dup1\n      dup4\n      gt\n      tag_242\n      jumpi\n      dup3\n      swap1\n      sub\n      0x1f\n      and\n      dup3\n      add\n      swap2\n    tag_240:\n      pop\n      pop\n      pop\n      pop\n      pop\n      swap1\n      pop\n        /* \"contracts/BusinessConsensus2.sol\":1934:2081  function getValues(string calldata _messageID) public view returns (string memory){\r... */\n      swap3\n      swap2\n      pop\n      pop\n      jump\t// out\n        /* \"contracts/BusinessConsensus2.sol\":2087:2230  function getIsCompiled(string calldata _messageID) public view returns (bool){\r... */\n    tag_77:\n        /* \"contracts/BusinessConsensus2.sol\":2159:2163  bool */\n      0x00\n        /* \"contracts/BusinessConsensus2.sol\":2182:2199  businessProposals */\n      dup1\n        /* \"contracts/BusinessConsensus2.sol\":2200:2210  _messageID */\n      dup4\n      dup4\n        /* \"contracts/BusinessConsensus2.sol\":2182:2211  businessProposals[_messageID] */\n      mload(0x40)\n      tag_244\n      swap3\n      swap2\n      swap1\n      tag_101\n      jump\t// in\n    tag_244:\n      swap1\n      dup2\n      mstore\n      0x20\n      add\n      mload(0x40)\n      dup1\n      swap2\n      sub\n      swap1\n      keccak256\n        /* \"contracts/BusinessConsensus2.sol\":2182:2222  businessProposals[_messageID].isCompiled */\n      0x07\n      add\n      0x00\n      swap1\n      sload\n      swap1\n      0x0100\n      exp\n      swap1\n      div\n      0xff\n      and\n        /* \"contracts/BusinessConsensus2.sol\":2175:2222  return businessProposals[_messageID].isCompiled */\n      swap1\n      pop\n        /* \"contracts/BusinessConsensus2.sol\":2087:2230  function getIsCompiled(string calldata _messageID) public view returns (bool){\r... */\n      swap3\n      swap2\n      pop\n      pop\n      jump\t// out\n    tag_98:\n      dup3\n      dup1\n      sload\n      tag_245\n      swap1\n      tag_83\n      jump\t// in\n    tag_245:\n      swap1\n      0x00\n      mstore\n      keccak256(0x00, 0x20)\n      swap1\n      0x1f\n      add\n      0x20\n      swap1\n      div\n      dup2\n      add\n      swap3\n      dup3\n      tag_247\n      jumpi\n      0x00\n      dup6\n      sstore\n      jump(tag_246)\n    tag_247:\n      dup3\n      0x1f\n      lt\n      tag_248\n      jumpi\n      dup1\n      mload\n      not(0xff)\n      and\n      dup4\n      dup1\n      add\n      or\n      dup6\n      sstore\n      jump(tag_246)\n    tag_248:\n      dup3\n      dup1\n      add\n      0x01\n      add\n      dup6\n      sstore\n      dup3\n      iszero\n      tag_246\n      jumpi\n      swap2\n      dup3\n      add\n    tag_249:\n      dup3\n      dup2\n      gt\n      iszero\n      tag_250\n      jumpi\n      dup3\n      mload\n      dup3\n      sstore\n      swap2\n      0x20\n      add\n      swap2\n      swap1\n      0x01\n      add\n      swap1\n      jump(tag_249)\n    tag_250:\n    tag_246:\n      pop\n      swap1\n      pop\n      tag_251\n      swap2\n      swap1\n      tag_252\n      jump\t// in\n    tag_251:\n      pop\n      swap1\n      jump\t// out\n    tag_252:\n    tag_253:\n      dup1\n      dup3\n      gt\n      iszero\n      tag_254\n      jumpi\n      0x00\n      dup2\n      0x00\n      swap1\n      sstore\n      pop\n      0x01\n      add\n      jump(tag_253)\n    tag_254:\n      pop\n      swap1\n      jump\t// out\n        /* \"#utility.yul\":7:419   */\n    tag_256:\n        /* \"#utility.yul\":85:90   */\n      0x00\n        /* \"#utility.yul\":110:176   */\n      tag_258\n        /* \"#utility.yul\":126:175   */\n      tag_259\n        /* \"#utility.yul\":168:174   */\n      dup5\n        /* \"#utility.yul\":126:175   */\n      tag_260\n      jump\t// in\n    tag_259:\n        /* \"#utility.yul\":110:176   */\n      tag_261\n      jump\t// in\n    tag_258:\n        /* \"#utility.yul\":101:176   */\n      swap1\n      pop\n        /* \"#utility.yul\":199:205   */\n      dup3\n        /* \"#utility.yul\":192:197   */\n      dup2\n        /* \"#utility.yul\":185:206   */\n      mstore\n        /* \"#utility.yul\":237:241   */\n      0x20\n        /* \"#utility.yul\":230:235   */\n      dup2\n        /* \"#utility.yul\":226:242   */\n      add\n        /* \"#utility.yul\":275:278   */\n      dup5\n        /* \"#utility.yul\":266:272   */\n      dup5\n        /* \"#utility.yul\":261:264   */\n      dup5\n        /* \"#utility.yul\":257:273   */\n      add\n        /* \"#utility.yul\":254:279   */\n      gt\n        /* \"#utility.yul\":251:363   */\n      iszero\n      tag_262\n      jumpi\n        /* \"#utility.yul\":282:361   */\n      tag_263\n      tag_264\n      jump\t// in\n    tag_263:\n        /* \"#utility.yul\":251:363   */\n    tag_262:\n        /* \"#utility.yul\":372:413   */\n      tag_265\n        /* \"#utility.yul\":406:412   */\n      dup5\n        /* \"#utility.yul\":401:404   */\n      dup3\n        /* \"#utility.yul\":396:399   */\n      dup6\n        /* \"#utility.yul\":372:413   */\n      tag_266\n      jump\t// in\n    tag_265:\n        /* \"#utility.yul\":91:419   */\n      pop\n        /* \"#utility.yul\":7:419   */\n      swap4\n      swap3\n      pop\n      pop\n      pop\n      jump\t// out\n        /* \"#utility.yul\":425:564   */\n    tag_267:\n        /* \"#utility.yul\":471:476   */\n      0x00\n        /* \"#utility.yul\":509:515   */\n      dup2\n        /* \"#utility.yul\":496:516   */\n      calldataload\n        /* \"#utility.yul\":487:516   */\n      swap1\n      pop\n        /* \"#utility.yul\":525:558   */\n      tag_269\n        /* \"#utility.yul\":552:557   */\n      dup2\n        /* \"#utility.yul\":525:558   */\n      tag_270\n      jump\t// in\n    tag_269:\n        /* \"#utility.yul\":425:564   */\n      swap3\n      swap2\n      pop\n      pop\n      jump\t// out\n        /* \"#utility.yul\":584:1137   */\n    tag_271:\n        /* \"#utility.yul\":642:650   */\n      0x00\n        /* \"#utility.yul\":652:658   */\n      dup1\n        /* \"#utility.yul\":702:705   */\n      dup4\n        /* \"#utility.yul\":695:699   */\n      0x1f\n        /* \"#utility.yul\":687:693   */\n      dup5\n        /* \"#utility.yul\":683:700   */\n      add\n        /* \"#utility.yul\":679:706   */\n      slt\n        /* \"#utility.yul\":669:791   */\n      tag_273\n      jumpi\n        /* \"#utility.yul\":710:789   */\n      tag_274\n      tag_275\n      jump\t// in\n    tag_274:\n        /* \"#utility.yul\":669:791   */\n    tag_273:\n        /* \"#utility.yul\":823:829   */\n      dup3\n        /* \"#utility.yul\":810:830   */\n      calldataload\n        /* \"#utility.yul\":800:830   */\n      swap1\n      pop\n        /* \"#utility.yul\":853:871   */\n      0xffffffffffffffff\n        /* \"#utility.yul\":845:851   */\n      dup2\n        /* \"#utility.yul\":842:872   */\n      gt\n        /* \"#utility.yul\":839:956   */\n      iszero\n      tag_276\n      jumpi\n        /* \"#utility.yul\":875:954   */\n      tag_277\n      tag_278\n      jump\t// in\n    tag_277:\n        /* \"#utility.yul\":839:956   */\n    tag_276:\n        /* \"#utility.yul\":989:993   */\n      0x20\n        /* \"#utility.yul\":981:987   */\n      dup4\n        /* \"#utility.yul\":977:994   */\n      add\n        /* \"#utility.yul\":965:994   */\n      swap2\n      pop\n        /* \"#utility.yul\":1043:1046   */\n      dup4\n        /* \"#utility.yul\":1035:1039   */\n      0x01\n        /* \"#utility.yul\":1027:1033   */\n      dup3\n        /* \"#utility.yul\":1023:1040   */\n      mul\n        /* \"#utility.yul\":1013:1021   */\n      dup4\n        /* \"#utility.yul\":1009:1041   */\n      add\n        /* \"#utility.yul\":1006:1047   */\n      gt\n        /* \"#utility.yul\":1003:1131   */\n      iszero\n      tag_279\n      jumpi\n        /* \"#utility.yul\":1050:1129   */\n      tag_280\n      tag_281\n      jump\t// in\n    tag_280:\n        /* \"#utility.yul\":1003:1131   */\n    tag_279:\n        /* \"#utility.yul\":584:1137   */\n      swap3\n      pop\n      swap3\n      swap1\n      pop\n      jump\t// out\n        /* \"#utility.yul\":1157:1497   */\n    tag_282:\n        /* \"#utility.yul\":1213:1218   */\n      0x00\n        /* \"#utility.yul\":1262:1265   */\n      dup3\n        /* \"#utility.yul\":1255:1259   */\n      0x1f\n        /* \"#utility.yul\":1247:1253   */\n      dup4\n        /* \"#utility.yul\":1243:1260   */\n      add\n        /* \"#utility.yul\":1239:1266   */\n      slt\n        /* \"#utility.yul\":1229:1351   */\n      tag_284\n      jumpi\n        /* \"#utility.yul\":1270:1349   */\n      tag_285\n      tag_275\n      jump\t// in\n    tag_285:\n        /* \"#utility.yul\":1229:1351   */\n    tag_284:\n        /* \"#utility.yul\":1387:1393   */\n      dup2\n        /* \"#utility.yul\":1374:1394   */\n      calldataload\n        /* \"#utility.yul\":1412:1491   */\n      tag_286\n        /* \"#utility.yul\":1487:1490   */\n      dup5\n        /* \"#utility.yul\":1479:1485   */\n      dup3\n        /* \"#utility.yul\":1472:1476   */\n      0x20\n        /* \"#utility.yul\":1464:1470   */\n      dup7\n        /* \"#utility.yul\":1460:1477   */\n      add\n        /* \"#utility.yul\":1412:1491   */\n      tag_256\n      jump\t// in\n    tag_286:\n        /* \"#utility.yul\":1403:1491   */\n      swap2\n      pop\n        /* \"#utility.yul\":1219:1497   */\n      pop\n        /* \"#utility.yul\":1157:1497   */\n      swap3\n      swap2\n      pop\n      pop\n      jump\t// out\n        /* \"#utility.yul\":1503:1642   */\n    tag_287:\n        /* \"#utility.yul\":1549:1554   */\n      0x00\n        /* \"#utility.yul\":1587:1593   */\n      dup2\n        /* \"#utility.yul\":1574:1594   */\n      calldataload\n        /* \"#utility.yul\":1565:1594   */\n      swap1\n      pop\n        /* \"#utility.yul\":1603:1636   */\n      tag_289\n        /* \"#utility.yul\":1630:1635   */\n      dup2\n        /* \"#utility.yul\":1603:1636   */\n      tag_290\n      jump\t// in\n    tag_289:\n        /* \"#utility.yul\":1503:1642   */\n      swap3\n      swap2\n      pop\n      pop\n      jump\t// out\n        /* \"#utility.yul\":1648:2322   */\n    tag_52:\n        /* \"#utility.yul\":1728:1734   */\n      0x00\n        /* \"#utility.yul\":1736:1742   */\n      dup1\n        /* \"#utility.yul\":1744:1750   */\n      0x00\n        /* \"#utility.yul\":1793:1795   */\n      0x40\n        /* \"#utility.yul\":1781:1790   */\n      dup5\n        /* \"#utility.yul\":1772:1779   */\n      dup7\n        /* \"#utility.yul\":1768:1791   */\n      sub\n        /* \"#utility.yul\":1764:1796   */\n      slt\n        /* \"#utility.yul\":1761:1880   */\n      iszero\n      tag_292\n      jumpi\n        /* \"#utility.yul\":1799:1878   */\n      tag_293\n      tag_294\n      jump\t// in\n    tag_293:\n        /* \"#utility.yul\":1761:1880   */\n    tag_292:\n        /* \"#utility.yul\":1919:1920   */\n      0x00\n        /* \"#utility.yul\":1944:1997   */\n      tag_295\n        /* \"#utility.yul\":1989:1996   */\n      dup7\n        /* \"#utility.yul\":1980:1986   */\n      dup3\n        /* \"#utility.yul\":1969:1978   */\n      dup8\n        /* \"#utility.yul\":1965:1987   */\n      add\n        /* \"#utility.yul\":1944:1997   */\n      tag_267\n      jump\t// in\n    tag_295:\n        /* \"#utility.yul\":1934:1997   */\n      swap4\n      pop\n        /* \"#utility.yul\":1890:2007   */\n      pop\n        /* \"#utility.yul\":2074:2076   */\n      0x20\n        /* \"#utility.yul\":2063:2072   */\n      dup5\n        /* \"#utility.yul\":2059:2077   */\n      add\n        /* \"#utility.yul\":2046:2078   */\n      calldataload\n        /* \"#utility.yul\":2105:2123   */\n      0xffffffffffffffff\n        /* \"#utility.yul\":2097:2103   */\n      dup2\n        /* \"#utility.yul\":2094:2124   */\n      gt\n        /* \"#utility.yul\":2091:2208   */\n      iszero\n      tag_296\n      jumpi\n        /* \"#utility.yul\":2127:2206   */\n      tag_297\n      tag_298\n      jump\t// in\n    tag_297:\n        /* \"#utility.yul\":2091:2208   */\n    tag_296:\n        /* \"#utility.yul\":2240:2305   */\n      tag_299\n        /* \"#utility.yul\":2297:2304   */\n      dup7\n        /* \"#utility.yul\":2288:2294   */\n      dup3\n        /* \"#utility.yul\":2277:2286   */\n      dup8\n        /* \"#utility.yul\":2273:2295   */\n      add\n        /* \"#utility.yul\":2240:2305   */\n      tag_271\n      jump\t// in\n    tag_299:\n        /* \"#utility.yul\":2222:2305   */\n      swap3\n      pop\n      swap3\n      pop\n        /* \"#utility.yul\":2017:2315   */\n      pop\n        /* \"#utility.yul\":1648:2322   */\n      swap3\n      pop\n      swap3\n      pop\n      swap3\n      jump\t// out\n        /* \"#utility.yul\":2328:2857   */\n    tag_46:\n        /* \"#utility.yul\":2399:2405   */\n      0x00\n        /* \"#utility.yul\":2407:2413   */\n      dup1\n        /* \"#utility.yul\":2456:2458   */\n      0x20\n        /* \"#utility.yul\":2444:2453   */\n      dup4\n        /* \"#utility.yul\":2435:2442   */\n      dup6\n        /* \"#utility.yul\":2431:2454   */\n      sub\n        /* \"#utility.yul\":2427:2459   */\n      slt\n        /* \"#utility.yul\":2424:2543   */\n      iszero\n      tag_301\n      jumpi\n        /* \"#utility.yul\":2462:2541   */\n      tag_302\n      tag_294\n      jump\t// in\n    tag_302:\n        /* \"#utility.yul\":2424:2543   */\n    tag_301:\n        /* \"#utility.yul\":2610:2611   */\n      0x00\n        /* \"#utility.yul\":2599:2608   */\n      dup4\n        /* \"#utility.yul\":2595:2612   */\n      add\n        /* \"#utility.yul\":2582:2613   */\n      calldataload\n        /* \"#utility.yul\":2640:2658   */\n      0xffffffffffffffff\n        /* \"#utility.yul\":2632:2638   */\n      dup2\n        /* \"#utility.yul\":2629:2659   */\n      gt\n        /* \"#utility.yul\":2626:2743   */\n      iszero\n      tag_303\n      jumpi\n        /* \"#utility.yul\":2662:2741   */\n      tag_304\n      tag_298\n      jump\t// in\n    tag_304:\n        /* \"#utility.yul\":2626:2743   */\n    tag_303:\n        /* \"#utility.yul\":2775:2840   */\n      tag_305\n        /* \"#utility.yul\":2832:2839   */\n      dup6\n        /* \"#utility.yul\":2823:2829   */\n      dup3\n        /* \"#utility.yul\":2812:2821   */\n      dup7\n        /* \"#utility.yul\":2808:2830   */\n      add\n        /* \"#utility.yul\":2775:2840   */\n      tag_271\n      jump\t// in\n    tag_305:\n        /* \"#utility.yul\":2757:2840   */\n      swap3\n      pop\n      swap3\n      pop\n        /* \"#utility.yul\":2553:2850   */\n      pop\n        /* \"#utility.yul\":2328:2857   */\n      swap3\n      pop\n      swap3\n      swap1\n      pop\n      jump\t// out\n        /* \"#utility.yul\":2863:3372   */\n    tag_26:\n        /* \"#utility.yul\":2932:2938   */\n      0x00\n        /* \"#utility.yul\":2981:2983   */\n      0x20\n        /* \"#utility.yul\":2969:2978   */\n      dup3\n        /* \"#utility.yul\":2960:2967   */\n      dup5\n        /* \"#utility.yul\":2956:2979   */\n      sub\n        /* \"#utility.yul\":2952:2984   */\n      slt\n        /* \"#utility.yul\":2949:3068   */\n      iszero\n      tag_307\n      jumpi\n        /* \"#utility.yul\":2987:3066   */\n      tag_308\n      tag_294\n      jump\t// in\n    tag_308:\n        /* \"#utility.yul\":2949:3068   */\n    tag_307:\n        /* \"#utility.yul\":3135:3136   */\n      0x00\n        /* \"#utility.yul\":3124:3133   */\n      dup3\n        /* \"#utility.yul\":3120:3137   */\n      add\n        /* \"#utility.yul\":3107:3138   */\n      calldataload\n        /* \"#utility.yul\":3165:3183   */\n      0xffffffffffffffff\n        /* \"#utility.yul\":3157:3163   */\n      dup2\n        /* \"#utility.yul\":3154:3184   */\n      gt\n        /* \"#utility.yul\":3151:3268   */\n      iszero\n      tag_309\n      jumpi\n        /* \"#utility.yul\":3187:3266   */\n      tag_310\n      tag_298\n      jump\t// in\n    tag_310:\n        /* \"#utility.yul\":3151:3268   */\n    tag_309:\n        /* \"#utility.yul\":3292:3355   */\n      tag_311\n        /* \"#utility.yul\":3347:3354   */\n      dup5\n        /* \"#utility.yul\":3338:3344   */\n      dup3\n        /* \"#utility.yul\":3327:3336   */\n      dup6\n        /* \"#utility.yul\":3323:3345   */\n      add\n        /* \"#utility.yul\":3292:3355   */\n      tag_282\n      jump\t// in\n    tag_311:\n        /* \"#utility.yul\":3282:3355   */\n      swap2\n      pop\n        /* \"#utility.yul\":3078:3365   */\n      pop\n        /* \"#utility.yul\":2863:3372   */\n      swap3\n      swap2\n      pop\n      pop\n      jump\t// out\n        /* \"#utility.yul\":3378:4032   */\n    tag_40:\n        /* \"#utility.yul\":3456:3462   */\n      0x00\n        /* \"#utility.yul\":3464:3470   */\n      dup1\n        /* \"#utility.yul\":3513:3515   */\n      0x40\n        /* \"#utility.yul\":3501:3510   */\n      dup4\n        /* \"#utility.yul\":3492:3499   */\n      dup6\n        /* \"#utility.yul\":3488:3511   */\n      sub\n        /* \"#utility.yul\":3484:3516   */\n      slt\n        /* \"#utility.yul\":3481:3600   */\n      iszero\n      tag_313\n      jumpi\n        /* \"#utility.yul\":3519:3598   */\n      tag_314\n      tag_294\n      jump\t// in\n    tag_314:\n        /* \"#utility.yul\":3481:3600   */\n    tag_313:\n        /* \"#utility.yul\":3667:3668   */\n      0x00\n        /* \"#utility.yul\":3656:3665   */\n      dup4\n        /* \"#utility.yul\":3652:3669   */\n      add\n        /* \"#utility.yul\":3639:3670   */\n      calldataload\n        /* \"#utility.yul\":3697:3715   */\n      0xffffffffffffffff\n        /* \"#utility.yul\":3689:3695   */\n      dup2\n        /* \"#utility.yul\":3686:3716   */\n      gt\n        /* \"#utility.yul\":3683:3800   */\n      iszero\n      tag_315\n      jumpi\n        /* \"#utility.yul\":3719:3798   */\n      tag_316\n      tag_298\n      jump\t// in\n    tag_316:\n        /* \"#utility.yul\":3683:3800   */\n    tag_315:\n        /* \"#utility.yul\":3824:3887   */\n      tag_317\n        /* \"#utility.yul\":3879:3886   */\n      dup6\n        /* \"#utility.yul\":3870:3876   */\n      dup3\n        /* \"#utility.yul\":3859:3868   */\n      dup7\n        /* \"#utility.yul\":3855:3877   */\n      add\n        /* \"#utility.yul\":3824:3887   */\n      tag_282\n      jump\t// in\n    tag_317:\n        /* \"#utility.yul\":3814:3887   */\n      swap3\n      pop\n        /* \"#utility.yul\":3610:3897   */\n      pop\n        /* \"#utility.yul\":3936:3938   */\n      0x20\n        /* \"#utility.yul\":3962:4015   */\n      tag_318\n        /* \"#utility.yul\":4007:4014   */\n      dup6\n        /* \"#utility.yul\":3998:4004   */\n      dup3\n        /* \"#utility.yul\":3987:3996   */\n      dup7\n        /* \"#utility.yul\":3983:4005   */\n      add\n        /* \"#utility.yul\":3962:4015   */\n      tag_267\n      jump\t// in\n    tag_318:\n        /* \"#utility.yul\":3952:4015   */\n      swap2\n      pop\n        /* \"#utility.yul\":3907:4025   */\n      pop\n        /* \"#utility.yul\":3378:4032   */\n      swap3\n      pop\n      swap3\n      swap1\n      pop\n      jump\t// out\n        /* \"#utility.yul\":4038:4892   */\n    tag_36:\n        /* \"#utility.yul\":4128:4134   */\n      0x00\n        /* \"#utility.yul\":4136:4142   */\n      dup1\n        /* \"#utility.yul\":4144:4150   */\n      0x00\n        /* \"#utility.yul\":4193:4195   */\n      0x40\n        /* \"#utility.yul\":4181:4190   */\n      dup5\n        /* \"#utility.yul\":4172:4179   */\n      dup7\n        /* \"#utility.yul\":4168:4191   */\n      sub\n        /* \"#utility.yul\":4164:4196   */\n      slt\n        /* \"#utility.yul\":4161:4280   */\n      iszero\n      tag_320\n      jumpi\n        /* \"#utility.yul\":4199:4278   */\n      tag_321\n      tag_294\n      jump\t// in\n    tag_321:\n        /* \"#utility.yul\":4161:4280   */\n    tag_320:\n        /* \"#utility.yul\":4347:4348   */\n      0x00\n        /* \"#utility.yul\":4336:4345   */\n      dup5\n        /* \"#utility.yul\":4332:4349   */\n      add\n        /* \"#utility.yul\":4319:4350   */\n      calldataload\n        /* \"#utility.yul\":4377:4395   */\n      0xffffffffffffffff\n        /* \"#utility.yul\":4369:4375   */\n      dup2\n        /* \"#utility.yul\":4366:4396   */\n      gt\n        /* \"#utility.yul\":4363:4480   */\n      iszero\n      tag_322\n      jumpi\n        /* \"#utility.yul\":4399:4478   */\n      tag_323\n      tag_298\n      jump\t// in\n    tag_323:\n        /* \"#utility.yul\":4363:4480   */\n    tag_322:\n        /* \"#utility.yul\":4504:4567   */\n      tag_324\n        /* \"#utility.yul\":4559:4566   */\n      dup7\n        /* \"#utility.yul\":4550:4556   */\n      dup3\n        /* \"#utility.yul\":4539:4548   */\n      dup8\n        /* \"#utility.yul\":4535:4557   */\n      add\n        /* \"#utility.yul\":4504:4567   */\n      tag_282\n      jump\t// in\n    tag_324:\n        /* \"#utility.yul\":4494:4567   */\n      swap4\n      pop\n        /* \"#utility.yul\":4290:4577   */\n      pop\n        /* \"#utility.yul\":4644:4646   */\n      0x20\n        /* \"#utility.yul\":4633:4642   */\n      dup5\n        /* \"#utility.yul\":4629:4647   */\n      add\n        /* \"#utility.yul\":4616:4648   */\n      calldataload\n        /* \"#utility.yul\":4675:4693   */\n      0xffffffffffffffff\n        /* \"#utility.yul\":4667:4673   */\n      dup2\n        /* \"#utility.yul\":4664:4694   */\n      gt\n        /* \"#utility.yul\":4661:4778   */\n      iszero\n      tag_325\n      jumpi\n        /* \"#utility.yul\":4697:4776   */\n      tag_326\n      tag_298\n      jump\t// in\n    tag_326:\n        /* \"#utility.yul\":4661:4778   */\n    tag_325:\n        /* \"#utility.yul\":4810:4875   */\n      tag_327\n        /* \"#utility.yul\":4867:4874   */\n      dup7\n        /* \"#utility.yul\":4858:4864   */\n      dup3\n        /* \"#utility.yul\":4847:4856   */\n      dup8\n        /* \"#utility.yul\":4843:4865   */\n      add\n        /* \"#utility.yul\":4810:4875   */\n      tag_271\n      jump\t// in\n    tag_327:\n        /* \"#utility.yul\":4792:4875   */\n      swap3\n      pop\n      swap3\n      pop\n        /* \"#utility.yul\":4587:4885   */\n      pop\n        /* \"#utility.yul\":4038:4892   */\n      swap3\n      pop\n      swap3\n      pop\n      swap3\n      jump\t// out\n        /* \"#utility.yul\":4898:5552   */\n    tag_20:\n        /* \"#utility.yul\":4976:4982   */\n      0x00\n        /* \"#utility.yul\":4984:4990   */\n      dup1\n        /* \"#utility.yul\":5033:5035   */\n      0x40\n        /* \"#utility.yul\":5021:5030   */\n      dup4\n        /* \"#utility.yul\":5012:5019   */\n      dup6\n        /* \"#utility.yul\":5008:5031   */\n      sub\n        /* \"#utility.yul\":5004:5036   */\n      slt\n        /* \"#utility.yul\":5001:5120   */\n      iszero\n      tag_329\n      jumpi\n        /* \"#utility.yul\":5039:5118   */\n      tag_330\n      tag_294\n      jump\t// in\n    tag_330:\n        /* \"#utility.yul\":5001:5120   */\n    tag_329:\n        /* \"#utility.yul\":5187:5188   */\n      0x00\n        /* \"#utility.yul\":5176:5185   */\n      dup4\n        /* \"#utility.yul\":5172:5189   */\n      add\n        /* \"#utility.yul\":5159:5190   */\n      calldataload\n        /* \"#utility.yul\":5217:5235   */\n      0xffffffffffffffff\n        /* \"#utility.yul\":5209:5215   */\n      dup2\n        /* \"#utility.yul\":5206:5236   */\n      gt\n        /* \"#utility.yul\":5203:5320   */\n      iszero\n      tag_331\n      jumpi\n        /* \"#utility.yul\":5239:5318   */\n      tag_332\n      tag_298\n      jump\t// in\n    tag_332:\n        /* \"#utility.yul\":5203:5320   */\n    tag_331:\n        /* \"#utility.yul\":5344:5407   */\n      tag_333\n        /* \"#utility.yul\":5399:5406   */\n      dup6\n        /* \"#utility.yul\":5390:5396   */\n      dup3\n        /* \"#utility.yul\":5379:5388   */\n      dup7\n        /* \"#utility.yul\":5375:5397   */\n      add\n        /* \"#utility.yul\":5344:5407   */\n      tag_282\n      jump\t// in\n    tag_333:\n        /* \"#utility.yul\":5334:5407   */\n      swap3\n      pop\n        /* \"#utility.yul\":5130:5417   */\n      pop\n        /* \"#utility.yul\":5456:5458   */\n      0x20\n        /* \"#utility.yul\":5482:5535   */\n      tag_334\n        /* \"#utility.yul\":5527:5534   */\n      dup6\n        /* \"#utility.yul\":5518:5524   */\n      dup3\n        /* \"#utility.yul\":5507:5516   */\n      dup7\n        /* \"#utility.yul\":5503:5525   */\n      add\n        /* \"#utility.yul\":5482:5535   */\n      tag_287\n      jump\t// in\n    tag_334:\n        /* \"#utility.yul\":5472:5535   */\n      swap2\n      pop\n        /* \"#utility.yul\":5427:5545   */\n      pop\n        /* \"#utility.yul\":4898:5552   */\n      swap3\n      pop\n      swap3\n      swap1\n      pop\n      jump\t// out\n        /* \"#utility.yul\":5558:6357   */\n    tag_32:\n        /* \"#utility.yul\":5645:5651   */\n      0x00\n        /* \"#utility.yul\":5653:5659   */\n      dup1\n        /* \"#utility.yul\":5661:5667   */\n      0x00\n        /* \"#utility.yul\":5710:5712   */\n      0x60\n        /* \"#utility.yul\":5698:5707   */\n      dup5\n        /* \"#utility.yul\":5689:5696   */\n      dup7\n        /* \"#utility.yul\":5685:5708   */\n      sub\n        /* \"#utility.yul\":5681:5713   */\n      slt\n        /* \"#utility.yul\":5678:5797   */\n      iszero\n      tag_336\n      jumpi\n        /* \"#utility.yul\":5716:5795   */\n      tag_337\n      tag_294\n      jump\t// in\n    tag_337:\n        /* \"#utility.yul\":5678:5797   */\n    tag_336:\n        /* \"#utility.yul\":5864:5865   */\n      0x00\n        /* \"#utility.yul\":5853:5862   */\n      dup5\n        /* \"#utility.yul\":5849:5866   */\n      add\n        /* \"#utility.yul\":5836:5867   */\n      calldataload\n        /* \"#utility.yul\":5894:5912   */\n      0xffffffffffffffff\n        /* \"#utility.yul\":5886:5892   */\n      dup2\n        /* \"#utility.yul\":5883:5913   */\n      gt\n        /* \"#utility.yul\":5880:5997   */\n      iszero\n      tag_338\n      jumpi\n        /* \"#utility.yul\":5916:5995   */\n      tag_339\n      tag_298\n      jump\t// in\n    tag_339:\n        /* \"#utility.yul\":5880:5997   */\n    tag_338:\n        /* \"#utility.yul\":6021:6084   */\n      tag_340\n        /* \"#utility.yul\":6076:6083   */\n      dup7\n        /* \"#utility.yul\":6067:6073   */\n      dup3\n        /* \"#utility.yul\":6056:6065   */\n      dup8\n        /* \"#utility.yul\":6052:6074   */\n      add\n        /* \"#utility.yul\":6021:6084   */\n      tag_282\n      jump\t// in\n    tag_340:\n        /* \"#utility.yul\":6011:6084   */\n      swap4\n      pop\n        /* \"#utility.yul\":5807:6094   */\n      pop\n        /* \"#utility.yul\":6133:6135   */\n      0x20\n        /* \"#utility.yul\":6159:6212   */\n      tag_341\n        /* \"#utility.yul\":6204:6211   */\n      dup7\n        /* \"#utility.yul\":6195:6201   */\n      dup3\n        /* \"#utility.yul\":6184:6193   */\n      dup8\n        /* \"#utility.yul\":6180:6202   */\n      add\n        /* \"#utility.yul\":6159:6212   */\n      tag_287\n      jump\t// in\n    tag_341:\n        /* \"#utility.yul\":6149:6212   */\n      swap3\n      pop\n        /* \"#utility.yul\":6104:6222   */\n      pop\n        /* \"#utility.yul\":6261:6263   */\n      0x40\n        /* \"#utility.yul\":6287:6340   */\n      tag_342\n        /* \"#utility.yul\":6332:6339   */\n      dup7\n        /* \"#utility.yul\":6323:6329   */\n      dup3\n        /* \"#utility.yul\":6312:6321   */\n      dup8\n        /* \"#utility.yul\":6308:6330   */\n      add\n        /* \"#utility.yul\":6287:6340   */\n      tag_287\n      jump\t// in\n    tag_342:\n        /* \"#utility.yul\":6277:6340   */\n      swap2\n      pop\n        /* \"#utility.yul\":6232:6350   */\n      pop\n        /* \"#utility.yul\":5558:6357   */\n      swap3\n      pop\n      swap3\n      pop\n      swap3\n      jump\t// out\n        /* \"#utility.yul\":6363:6622   */\n    tag_343:\n        /* \"#utility.yul\":6472:6482   */\n      0x00\n        /* \"#utility.yul\":6493:6579   */\n      tag_345\n        /* \"#utility.yul\":6575:6578   */\n      dup4\n        /* \"#utility.yul\":6567:6573   */\n      dup4\n        /* \"#utility.yul\":6493:6579   */\n      tag_346\n      jump\t// in\n    tag_345:\n        /* \"#utility.yul\":6611:6615   */\n      0x60\n        /* \"#utility.yul\":6606:6609   */\n      dup4\n        /* \"#utility.yul\":6602:6616   */\n      add\n        /* \"#utility.yul\":6588:6616   */\n      swap1\n      pop\n        /* \"#utility.yul\":6363:6622   */\n      swap3\n      swap2\n      pop\n      pop\n      jump\t// out\n        /* \"#utility.yul\":6628:6736   */\n    tag_347:\n        /* \"#utility.yul\":6705:6729   */\n      tag_349\n        /* \"#utility.yul\":6723:6728   */\n      dup2\n        /* \"#utility.yul\":6705:6729   */\n      tag_350\n      jump\t// in\n    tag_349:\n        /* \"#utility.yul\":6700:6703   */\n      dup3\n        /* \"#utility.yul\":6693:6730   */\n      mstore\n        /* \"#utility.yul\":6628:6736   */\n      pop\n      pop\n      jump\t// out\n        /* \"#utility.yul\":6742:6860   */\n    tag_351:\n        /* \"#utility.yul\":6829:6853   */\n      tag_353\n        /* \"#utility.yul\":6847:6852   */\n      dup2\n        /* \"#utility.yul\":6829:6853   */\n      tag_350\n      jump\t// in\n    tag_353:\n        /* \"#utility.yul\":6824:6827   */\n      dup3\n        /* \"#utility.yul\":6817:6854   */\n      mstore\n        /* \"#utility.yul\":6742:6860   */\n      pop\n      pop\n      jump\t// out\n        /* \"#utility.yul\":6944:7836   */\n    tag_354:\n        /* \"#utility.yul\":7103:7106   */\n      0x00\n        /* \"#utility.yul\":7132:7206   */\n      tag_356\n        /* \"#utility.yul\":7200:7205   */\n      dup3\n        /* \"#utility.yul\":7132:7206   */\n      tag_357\n      jump\t// in\n    tag_356:\n        /* \"#utility.yul\":7222:7328   */\n      tag_358\n        /* \"#utility.yul\":7321:7327   */\n      dup2\n        /* \"#utility.yul\":7316:7319   */\n      dup6\n        /* \"#utility.yul\":7222:7328   */\n      tag_359\n      jump\t// in\n    tag_358:\n        /* \"#utility.yul\":7215:7328   */\n      swap4\n      pop\n        /* \"#utility.yul\":7352:7428   */\n      tag_360\n        /* \"#utility.yul\":7422:7427   */\n      dup4\n        /* \"#utility.yul\":7352:7428   */\n      tag_361\n      jump\t// in\n    tag_360:\n        /* \"#utility.yul\":7451:7458   */\n      dup1\n        /* \"#utility.yul\":7482:7483   */\n      0x00\n        /* \"#utility.yul\":7467:7811   */\n    tag_362:\n        /* \"#utility.yul\":7492:7498   */\n      dup4\n        /* \"#utility.yul\":7489:7490   */\n      dup2\n        /* \"#utility.yul\":7486:7499   */\n      lt\n        /* \"#utility.yul\":7467:7811   */\n      iszero\n      tag_364\n      jumpi\n        /* \"#utility.yul\":7568:7574   */\n      dup2\n        /* \"#utility.yul\":7562:7575   */\n      mload\n        /* \"#utility.yul\":7595:7698   */\n      tag_365\n        /* \"#utility.yul\":7694:7697   */\n      dup9\n        /* \"#utility.yul\":7679:7692   */\n      dup3\n        /* \"#utility.yul\":7595:7698   */\n      tag_343\n      jump\t// in\n    tag_365:\n        /* \"#utility.yul\":7588:7698   */\n      swap8\n      pop\n        /* \"#utility.yul\":7721:7801   */\n      tag_366\n        /* \"#utility.yul\":7794:7800   */\n      dup4\n        /* \"#utility.yul\":7721:7801   */\n      tag_367\n      jump\t// in\n    tag_366:\n        /* \"#utility.yul\":7711:7801   */\n      swap3\n      pop\n        /* \"#utility.yul\":7527:7811   */\n      pop\n        /* \"#utility.yul\":7514:7515   */\n      0x01\n        /* \"#utility.yul\":7511:7512   */\n      dup2\n        /* \"#utility.yul\":7507:7516   */\n      add\n        /* \"#utility.yul\":7502:7516   */\n      swap1\n      pop\n        /* \"#utility.yul\":7467:7811   */\n      jump(tag_362)\n    tag_364:\n        /* \"#utility.yul\":7471:7485   */\n      pop\n        /* \"#utility.yul\":7827:7830   */\n      dup6\n        /* \"#utility.yul\":7820:7830   */\n      swap4\n      pop\n        /* \"#utility.yul\":7108:7836   */\n      pop\n      pop\n      pop\n        /* \"#utility.yul\":6944:7836   */\n      swap3\n      swap2\n      pop\n      pop\n      jump\t// out\n        /* \"#utility.yul\":7842:7941   */\n    tag_368:\n        /* \"#utility.yul\":7913:7934   */\n      tag_370\n        /* \"#utility.yul\":7928:7933   */\n      dup2\n        /* \"#utility.yul\":7913:7934   */\n      tag_371\n      jump\t// in\n    tag_370:\n        /* \"#utility.yul\":7908:7911   */\n      dup3\n        /* \"#utility.yul\":7901:7935   */\n      mstore\n        /* \"#utility.yul\":7842:7941   */\n      pop\n      pop\n      jump\t// out\n        /* \"#utility.yul\":7947:8056   */\n    tag_372:\n        /* \"#utility.yul\":8028:8049   */\n      tag_374\n        /* \"#utility.yul\":8043:8048   */\n      dup2\n        /* \"#utility.yul\":8028:8049   */\n      tag_371\n      jump\t// in\n    tag_374:\n        /* \"#utility.yul\":8023:8026   */\n      dup3\n        /* \"#utility.yul\":8016:8050   */\n      mstore\n        /* \"#utility.yul\":7947:8056   */\n      pop\n      pop\n      jump\t// out\n        /* \"#utility.yul\":8062:8180   */\n    tag_375:\n        /* \"#utility.yul\":8149:8173   */\n      tag_377\n        /* \"#utility.yul\":8167:8172   */\n      dup2\n        /* \"#utility.yul\":8149:8173   */\n      tag_378\n      jump\t// in\n    tag_377:\n        /* \"#utility.yul\":8144:8147   */\n      dup3\n        /* \"#utility.yul\":8137:8174   */\n      mstore\n        /* \"#utility.yul\":8062:8180   */\n      pop\n      pop\n      jump\t// out\n        /* \"#utility.yul\":8210:8527   */\n    tag_379:\n        /* \"#utility.yul\":8326:8329   */\n      0x00\n        /* \"#utility.yul\":8347:8436   */\n      tag_381\n        /* \"#utility.yul\":8429:8435   */\n      dup4\n        /* \"#utility.yul\":8424:8427   */\n      dup6\n        /* \"#utility.yul\":8347:8436   */\n      tag_382\n      jump\t// in\n    tag_381:\n        /* \"#utility.yul\":8340:8436   */\n      swap4\n      pop\n        /* \"#utility.yul\":8446:8489   */\n      tag_383\n        /* \"#utility.yul\":8482:8488   */\n      dup4\n        /* \"#utility.yul\":8477:8480   */\n      dup6\n        /* \"#utility.yul\":8470:8475   */\n      dup5\n        /* \"#utility.yul\":8446:8489   */\n      tag_266\n      jump\t// in\n    tag_383:\n        /* \"#utility.yul\":8514:8520   */\n      dup3\n        /* \"#utility.yul\":8509:8512   */\n      dup5\n        /* \"#utility.yul\":8505:8521   */\n      add\n        /* \"#utility.yul\":8498:8521   */\n      swap1\n      pop\n        /* \"#utility.yul\":8210:8527   */\n      swap4\n      swap3\n      pop\n      pop\n      pop\n      jump\t// out\n        /* \"#utility.yul\":8533:8897   */\n    tag_384:\n        /* \"#utility.yul\":8621:8624   */\n      0x00\n        /* \"#utility.yul\":8649:8688   */\n      tag_386\n        /* \"#utility.yul\":8682:8687   */\n      dup3\n        /* \"#utility.yul\":8649:8688   */\n      tag_387\n      jump\t// in\n    tag_386:\n        /* \"#utility.yul\":8704:8775   */\n      tag_388\n        /* \"#utility.yul\":8768:8774   */\n      dup2\n        /* \"#utility.yul\":8763:8766   */\n      dup6\n        /* \"#utility.yul\":8704:8775   */\n      tag_389\n      jump\t// in\n    tag_388:\n        /* \"#utility.yul\":8697:8775   */\n      swap4\n      pop\n        /* \"#utility.yul\":8784:8836   */\n      tag_390\n        /* \"#utility.yul\":8829:8835   */\n      dup2\n        /* \"#utility.yul\":8824:8827   */\n      dup6\n        /* \"#utility.yul\":8817:8821   */\n      0x20\n        /* \"#utility.yul\":8810:8815   */\n      dup7\n        /* \"#utility.yul\":8806:8822   */\n      add\n        /* \"#utility.yul\":8784:8836   */\n      tag_391\n      jump\t// in\n    tag_390:\n        /* \"#utility.yul\":8861:8890   */\n      tag_392\n        /* \"#utility.yul\":8883:8889   */\n      dup2\n        /* \"#utility.yul\":8861:8890   */\n      tag_393\n      jump\t// in\n    tag_392:\n        /* \"#utility.yul\":8856:8859   */\n      dup5\n        /* \"#utility.yul\":8852:8891   */\n      add\n        /* \"#utility.yul\":8845:8891   */\n      swap2\n      pop\n        /* \"#utility.yul\":8625:8897   */\n      pop\n        /* \"#utility.yul\":8533:8897   */\n      swap3\n      swap2\n      pop\n      pop\n      jump\t// out\n        /* \"#utility.yul\":8903:9280   */\n    tag_394:\n        /* \"#utility.yul\":9009:9012   */\n      0x00\n        /* \"#utility.yul\":9037:9076   */\n      tag_396\n        /* \"#utility.yul\":9070:9075   */\n      dup3\n        /* \"#utility.yul\":9037:9076   */\n      tag_387\n      jump\t// in\n    tag_396:\n        /* \"#utility.yul\":9092:9181   */\n      tag_397\n        /* \"#utility.yul\":9174:9180   */\n      dup2\n        /* \"#utility.yul\":9169:9172   */\n      dup6\n        /* \"#utility.yul\":9092:9181   */\n      tag_382\n      jump\t// in\n    tag_397:\n        /* \"#utility.yul\":9085:9181   */\n      swap4\n      pop\n        /* \"#utility.yul\":9190:9242   */\n      tag_398\n        /* \"#utility.yul\":9235:9241   */\n      dup2\n        /* \"#utility.yul\":9230:9233   */\n      dup6\n        /* \"#utility.yul\":9223:9227   */\n      0x20\n        /* \"#utility.yul\":9216:9221   */\n      dup7\n        /* \"#utility.yul\":9212:9228   */\n      add\n        /* \"#utility.yul\":9190:9242   */\n      tag_391\n      jump\t// in\n    tag_398:\n        /* \"#utility.yul\":9267:9273   */\n      dup1\n        /* \"#utility.yul\":9262:9265   */\n      dup5\n        /* \"#utility.yul\":9258:9274   */\n      add\n        /* \"#utility.yul\":9251:9274   */\n      swap2\n      pop\n        /* \"#utility.yul\":9013:9280   */\n      pop\n        /* \"#utility.yul\":8903:9280   */\n      swap3\n      swap2\n      pop\n      pop\n      jump\t// out\n        /* \"#utility.yul\":9286:9652   */\n    tag_399:\n        /* \"#utility.yul\":9428:9431   */\n      0x00\n        /* \"#utility.yul\":9449:9516   */\n      tag_401\n        /* \"#utility.yul\":9513:9515   */\n      0x1f\n        /* \"#utility.yul\":9508:9511   */\n      dup4\n        /* \"#utility.yul\":9449:9516   */\n      tag_389\n      jump\t// in\n    tag_401:\n        /* \"#utility.yul\":9442:9516   */\n      swap2\n      pop\n        /* \"#utility.yul\":9525:9618   */\n      tag_402\n        /* \"#utility.yul\":9614:9617   */\n      dup3\n        /* \"#utility.yul\":9525:9618   */\n      tag_403\n      jump\t// in\n    tag_402:\n        /* \"#utility.yul\":9643:9645   */\n      0x20\n        /* \"#utility.yul\":9638:9641   */\n      dup3\n        /* \"#utility.yul\":9634:9646   */\n      add\n        /* \"#utility.yul\":9627:9646   */\n      swap1\n      pop\n        /* \"#utility.yul\":9286:9652   */\n      swap2\n      swap1\n      pop\n      jump\t// out\n        /* \"#utility.yul\":9658:10024   */\n    tag_404:\n        /* \"#utility.yul\":9800:9803   */\n      0x00\n        /* \"#utility.yul\":9821:9888   */\n      tag_406\n        /* \"#utility.yul\":9885:9887   */\n      0x19\n        /* \"#utility.yul\":9880:9883   */\n      dup4\n        /* \"#utility.yul\":9821:9888   */\n      tag_389\n      jump\t// in\n    tag_406:\n        /* \"#utility.yul\":9814:9888   */\n      swap2\n      pop\n        /* \"#utility.yul\":9897:9990   */\n      tag_407\n        /* \"#utility.yul\":9986:9989   */\n      dup3\n        /* \"#utility.yul\":9897:9990   */\n      tag_408\n      jump\t// in\n    tag_407:\n        /* \"#utility.yul\":10015:10017   */\n      0x20\n        /* \"#utility.yul\":10010:10013   */\n      dup3\n        /* \"#utility.yul\":10006:10018   */\n      add\n        /* \"#utility.yul\":9999:10018   */\n      swap1\n      pop\n        /* \"#utility.yul\":9658:10024   */\n      swap2\n      swap1\n      pop\n      jump\t// out\n        /* \"#utility.yul\":10030:10396   */\n    tag_409:\n        /* \"#utility.yul\":10172:10175   */\n      0x00\n        /* \"#utility.yul\":10193:10260   */\n      tag_411\n        /* \"#utility.yul\":10257:10259   */\n      0x26\n        /* \"#utility.yul\":10252:10255   */\n      dup4\n        /* \"#utility.yul\":10193:10260   */\n      tag_389\n      jump\t// in\n    tag_411:\n        /* \"#utility.yul\":10186:10260   */\n      swap2\n      pop\n        /* \"#utility.yul\":10269:10362   */\n      tag_412\n        /* \"#utility.yul\":10358:10361   */\n      dup3\n        /* \"#utility.yul\":10269:10362   */\n      tag_413\n      jump\t// in\n    tag_412:\n        /* \"#utility.yul\":10387:10389   */\n      0x40\n        /* \"#utility.yul\":10382:10385   */\n      dup3\n        /* \"#utility.yul\":10378:10390   */\n      add\n        /* \"#utility.yul\":10371:10390   */\n      swap1\n      pop\n        /* \"#utility.yul\":10030:10396   */\n      swap2\n      swap1\n      pop\n      jump\t// out\n        /* \"#utility.yul\":10402:10768   */\n    tag_414:\n        /* \"#utility.yul\":10544:10547   */\n      0x00\n        /* \"#utility.yul\":10565:10632   */\n      tag_416\n        /* \"#utility.yul\":10629:10631   */\n      0x1c\n        /* \"#utility.yul\":10624:10627   */\n      dup4\n        /* \"#utility.yul\":10565:10632   */\n      tag_389\n      jump\t// in\n    tag_416:\n        /* \"#utility.yul\":10558:10632   */\n      swap2\n      pop\n        /* \"#utility.yul\":10641:10734   */\n      tag_417\n        /* \"#utility.yul\":10730:10733   */\n      dup3\n        /* \"#utility.yul\":10641:10734   */\n      tag_418\n      jump\t// in\n    tag_417:\n        /* \"#utility.yul\":10759:10761   */\n      0x20\n        /* \"#utility.yul\":10754:10757   */\n      dup3\n        /* \"#utility.yul\":10750:10762   */\n      add\n        /* \"#utility.yul\":10743:10762   */\n      swap1\n      pop\n        /* \"#utility.yul\":10402:10768   */\n      swap2\n      swap1\n      pop\n      jump\t// out\n        /* \"#utility.yul\":10774:11140   */\n    tag_419:\n        /* \"#utility.yul\":10916:10919   */\n      0x00\n        /* \"#utility.yul\":10937:11004   */\n      tag_421\n        /* \"#utility.yul\":11001:11003   */\n      0x15\n        /* \"#utility.yul\":10996:10999   */\n      dup4\n        /* \"#utility.yul\":10937:11004   */\n      tag_389\n      jump\t// in\n    tag_421:\n        /* \"#utility.yul\":10930:11004   */\n      swap2\n      pop\n        /* \"#utility.yul\":11013:11106   */\n      tag_422\n        /* \"#utility.yul\":11102:11105   */\n      dup3\n        /* \"#utility.yul\":11013:11106   */\n      tag_423\n      jump\t// in\n    tag_422:\n        /* \"#utility.yul\":11131:11133   */\n      0x20\n        /* \"#utility.yul\":11126:11129   */\n      dup3\n        /* \"#utility.yul\":11122:11134   */\n      add\n        /* \"#utility.yul\":11115:11134   */\n      swap1\n      pop\n        /* \"#utility.yul\":10774:11140   */\n      swap2\n      swap1\n      pop\n      jump\t// out\n        /* \"#utility.yul\":11146:11512   */\n    tag_424:\n        /* \"#utility.yul\":11288:11291   */\n      0x00\n        /* \"#utility.yul\":11309:11376   */\n      tag_426\n        /* \"#utility.yul\":11373:11375   */\n      0x1e\n        /* \"#utility.yul\":11368:11371   */\n      dup4\n        /* \"#utility.yul\":11309:11376   */\n      tag_389\n      jump\t// in\n    tag_426:\n        /* \"#utility.yul\":11302:11376   */\n      swap2\n      pop\n        /* \"#utility.yul\":11385:11478   */\n      tag_427\n        /* \"#utility.yul\":11474:11477   */\n      dup3\n        /* \"#utility.yul\":11385:11478   */\n      tag_428\n      jump\t// in\n    tag_427:\n        /* \"#utility.yul\":11503:11505   */\n      0x20\n        /* \"#utility.yul\":11498:11501   */\n      dup3\n        /* \"#utility.yul\":11494:11506   */\n      add\n        /* \"#utility.yul\":11487:11506   */\n      swap1\n      pop\n        /* \"#utility.yul\":11146:11512   */\n      swap2\n      swap1\n      pop\n      jump\t// out\n        /* \"#utility.yul\":11518:11884   */\n    tag_429:\n        /* \"#utility.yul\":11660:11663   */\n      0x00\n        /* \"#utility.yul\":11681:11748   */\n      tag_431\n        /* \"#utility.yul\":11745:11747   */\n      0x24\n        /* \"#utility.yul\":11740:11743   */\n      dup4\n        /* \"#utility.yul\":11681:11748   */\n      tag_389\n      jump\t// in\n    tag_431:\n        /* \"#utility.yul\":11674:11748   */\n      swap2\n      pop\n        /* \"#utility.yul\":11757:11850   */\n      tag_432\n        /* \"#utility.yul\":11846:11849   */\n      dup3\n        /* \"#utility.yul\":11757:11850   */\n      tag_433\n      jump\t// in\n    tag_432:\n        /* \"#utility.yul\":11875:11877   */\n      0x40\n        /* \"#utility.yul\":11870:11873   */\n      dup3\n        /* \"#utility.yul\":11866:11878   */\n      add\n        /* \"#utility.yul\":11859:11878   */\n      swap1\n      pop\n        /* \"#utility.yul\":11518:11884   */\n      swap2\n      swap1\n      pop\n      jump\t// out\n        /* \"#utility.yul\":11890:12256   */\n    tag_434:\n        /* \"#utility.yul\":12032:12035   */\n      0x00\n        /* \"#utility.yul\":12053:12120   */\n      tag_436\n        /* \"#utility.yul\":12117:12119   */\n      0x28\n        /* \"#utility.yul\":12112:12115   */\n      dup4\n        /* \"#utility.yul\":12053:12120   */\n      tag_389\n      jump\t// in\n    tag_436:\n        /* \"#utility.yul\":12046:12120   */\n      swap2\n      pop\n        /* \"#utility.yul\":12129:12222   */\n      tag_437\n        /* \"#utility.yul\":12218:12221   */\n      dup3\n        /* \"#utility.yul\":12129:12222   */\n      tag_438\n      jump\t// in\n    tag_437:\n        /* \"#utility.yul\":12247:12249   */\n      0x40\n        /* \"#utility.yul\":12242:12245   */\n      dup3\n        /* \"#utility.yul\":12238:12250   */\n      add\n        /* \"#utility.yul\":12231:12250   */\n      swap1\n      pop\n        /* \"#utility.yul\":11890:12256   */\n      swap2\n      swap1\n      pop\n      jump\t// out\n        /* \"#utility.yul\":12262:12628   */\n    tag_439:\n        /* \"#utility.yul\":12404:12407   */\n      0x00\n        /* \"#utility.yul\":12425:12492   */\n      tag_441\n        /* \"#utility.yul\":12489:12491   */\n      0x20\n        /* \"#utility.yul\":12484:12487   */\n      dup4\n        /* \"#utility.yul\":12425:12492   */\n      tag_389\n      jump\t// in\n    tag_441:\n        /* \"#utility.yul\":12418:12492   */\n      swap2\n      pop\n        /* \"#utility.yul\":12501:12594   */\n      tag_442\n        /* \"#utility.yul\":12590:12593   */\n      dup3\n        /* \"#utility.yul\":12501:12594   */\n      tag_443\n      jump\t// in\n    tag_442:\n        /* \"#utility.yul\":12619:12621   */\n      0x20\n        /* \"#utility.yul\":12614:12617   */\n      dup3\n        /* \"#utility.yul\":12610:12622   */\n      add\n        /* \"#utility.yul\":12603:12622   */\n      swap1\n      pop\n        /* \"#utility.yul\":12262:12628   */\n      swap2\n      swap1\n      pop\n      jump\t// out\n        /* \"#utility.yul\":12634:13000   */\n    tag_444:\n        /* \"#utility.yul\":12776:12779   */\n      0x00\n        /* \"#utility.yul\":12797:12864   */\n      tag_446\n        /* \"#utility.yul\":12861:12863   */\n      0x12\n        /* \"#utility.yul\":12856:12859   */\n      dup4\n        /* \"#utility.yul\":12797:12864   */\n      tag_389\n      jump\t// in\n    tag_446:\n        /* \"#utility.yul\":12790:12864   */\n      swap2\n      pop\n        /* \"#utility.yul\":12873:12966   */\n      tag_447\n        /* \"#utility.yul\":12962:12965   */\n      dup3\n        /* \"#utility.yul\":12873:12966   */\n      tag_448\n      jump\t// in\n    tag_447:\n        /* \"#utility.yul\":12991:12993   */\n      0x20\n        /* \"#utility.yul\":12986:12989   */\n      dup3\n        /* \"#utility.yul\":12982:12994   */\n      add\n        /* \"#utility.yul\":12975:12994   */\n      swap1\n      pop\n        /* \"#utility.yul\":12634:13000   */\n      swap2\n      swap1\n      pop\n      jump\t// out\n        /* \"#utility.yul\":13006:13372   */\n    tag_449:\n        /* \"#utility.yul\":13148:13151   */\n      0x00\n        /* \"#utility.yul\":13169:13236   */\n      tag_451\n        /* \"#utility.yul\":13233:13235   */\n      0x25\n        /* \"#utility.yul\":13228:13231   */\n      dup4\n        /* \"#utility.yul\":13169:13236   */\n      tag_389\n      jump\t// in\n    tag_451:\n        /* \"#utility.yul\":13162:13236   */\n      swap2\n      pop\n        /* \"#utility.yul\":13245:13338   */\n      tag_452\n        /* \"#utility.yul\":13334:13337   */\n      dup3\n        /* \"#utility.yul\":13245:13338   */\n      tag_453\n      jump\t// in\n    tag_452:\n        /* \"#utility.yul\":13363:13365   */\n      0x40\n        /* \"#utility.yul\":13358:13361   */\n      dup3\n        /* \"#utility.yul\":13354:13366   */\n      add\n        /* \"#utility.yul\":13347:13366   */\n      swap1\n      pop\n        /* \"#utility.yul\":13006:13372   */\n      swap2\n      swap1\n      pop\n      jump\t// out\n        /* \"#utility.yul\":13452:14107   */\n    tag_346:\n        /* \"#utility.yul\":13579:13583   */\n      0x60\n        /* \"#utility.yul\":13574:13577   */\n      dup3\n        /* \"#utility.yul\":13570:13584   */\n      add\n        /* \"#utility.yul\":13667:13671   */\n      0x00\n        /* \"#utility.yul\":13660:13665   */\n      dup3\n        /* \"#utility.yul\":13656:13672   */\n      add\n        /* \"#utility.yul\":13650:13673   */\n      mload\n        /* \"#utility.yul\":13686:13743   */\n      tag_455\n        /* \"#utility.yul\":13737:13741   */\n      0x00\n        /* \"#utility.yul\":13732:13735   */\n      dup6\n        /* \"#utility.yul\":13728:13742   */\n      add\n        /* \"#utility.yul\":13714:13726   */\n      dup3\n        /* \"#utility.yul\":13686:13743   */\n      tag_368\n      jump\t// in\n    tag_455:\n        /* \"#utility.yul\":13594:13753   */\n      pop\n        /* \"#utility.yul\":13835:13839   */\n      0x20\n        /* \"#utility.yul\":13828:13833   */\n      dup3\n        /* \"#utility.yul\":13824:13840   */\n      add\n        /* \"#utility.yul\":13818:13841   */\n      mload\n        /* \"#utility.yul\":13854:13911   */\n      tag_456\n        /* \"#utility.yul\":13905:13909   */\n      0x20\n        /* \"#utility.yul\":13900:13903   */\n      dup6\n        /* \"#utility.yul\":13896:13910   */\n      add\n        /* \"#utility.yul\":13882:13894   */\n      dup3\n        /* \"#utility.yul\":13854:13911   */\n      tag_368\n      jump\t// in\n    tag_456:\n        /* \"#utility.yul\":13763:13921   */\n      pop\n        /* \"#utility.yul\":14008:14012   */\n      0x40\n        /* \"#utility.yul\":14001:14006   */\n      dup3\n        /* \"#utility.yul\":13997:14013   */\n      add\n        /* \"#utility.yul\":13991:14014   */\n      mload\n        /* \"#utility.yul\":14027:14090   */\n      tag_457\n        /* \"#utility.yul\":14084:14088   */\n      0x40\n        /* \"#utility.yul\":14079:14082   */\n      dup6\n        /* \"#utility.yul\":14075:14089   */\n      add\n        /* \"#utility.yul\":14061:14073   */\n      dup3\n        /* \"#utility.yul\":14027:14090   */\n      tag_347\n      jump\t// in\n    tag_457:\n        /* \"#utility.yul\":13931:14100   */\n      pop\n        /* \"#utility.yul\":13548:14107   */\n      pop\n        /* \"#utility.yul\":13452:14107   */\n      pop\n      pop\n      jump\t// out\n        /* \"#utility.yul\":14113:14231   */\n    tag_458:\n        /* \"#utility.yul\":14200:14224   */\n      tag_460\n        /* \"#utility.yul\":14218:14223   */\n      dup2\n        /* \"#utility.yul\":14200:14224   */\n      tag_461\n      jump\t// in\n    tag_460:\n        /* \"#utility.yul\":14195:14198   */\n      dup3\n        /* \"#utility.yul\":14188:14225   */\n      mstore\n        /* \"#utility.yul\":14113:14231   */\n      pop\n      pop\n      jump\t// out\n        /* \"#utility.yul\":14237:14532   */\n    tag_101:\n        /* \"#utility.yul\":14379:14382   */\n      0x00\n        /* \"#utility.yul\":14401:14506   */\n      tag_463\n        /* \"#utility.yul\":14502:14505   */\n      dup3\n        /* \"#utility.yul\":14493:14499   */\n      dup5\n        /* \"#utility.yul\":14485:14491   */\n      dup7\n        /* \"#utility.yul\":14401:14506   */\n      tag_379\n      jump\t// in\n    tag_463:\n        /* \"#utility.yul\":14394:14506   */\n      swap2\n      pop\n        /* \"#utility.yul\":14523:14526   */\n      dup2\n        /* \"#utility.yul\":14516:14526   */\n      swap1\n      pop\n        /* \"#utility.yul\":14237:14532   */\n      swap4\n      swap3\n      pop\n      pop\n      pop\n      jump\t// out\n        /* \"#utility.yul\":14538:14813   */\n    tag_90:\n        /* \"#utility.yul\":14670:14673   */\n      0x00\n        /* \"#utility.yul\":14692:14787   */\n      tag_465\n        /* \"#utility.yul\":14783:14786   */\n      dup3\n        /* \"#utility.yul\":14774:14780   */\n      dup5\n        /* \"#utility.yul\":14692:14787   */\n      tag_394\n      jump\t// in\n    tag_465:\n        /* \"#utility.yul\":14685:14787   */\n      swap2\n      pop\n        /* \"#utility.yul\":14804:14807   */\n      dup2\n        /* \"#utility.yul\":14797:14807   */\n      swap1\n      pop\n        /* \"#utility.yul\":14538:14813   */\n      swap3\n      swap2\n      pop\n      pop\n      jump\t// out\n        /* \"#utility.yul\":14819:15041   */\n    tag_23:\n        /* \"#utility.yul\":14912:14916   */\n      0x00\n        /* \"#utility.yul\":14950:14952   */\n      0x20\n        /* \"#utility.yul\":14939:14948   */\n      dup3\n        /* \"#utility.yul\":14935:14953   */\n      add\n        /* \"#utility.yul\":14927:14953   */\n      swap1\n      pop\n        /* \"#utility.yul\":14963:15034   */\n      tag_467\n        /* \"#utility.yul\":15031:15032   */\n      0x00\n        /* \"#utility.yul\":15020:15029   */\n      dup4\n        /* \"#utility.yul\":15016:15033   */\n      add\n        /* \"#utility.yul\":15007:15013   */\n      dup5\n        /* \"#utility.yul\":14963:15034   */\n      tag_351\n      jump\t// in\n    tag_467:\n        /* \"#utility.yul\":14819:15041   */\n      swap3\n      swap2\n      pop\n      pop\n      jump\t// out\n        /* \"#utility.yul\":15047:15257   */\n    tag_79:\n        /* \"#utility.yul\":15134:15138   */\n      0x00\n        /* \"#utility.yul\":15172:15174   */\n      0x20\n        /* \"#utility.yul\":15161:15170   */\n      dup3\n        /* \"#utility.yul\":15157:15175   */\n      add\n        /* \"#utility.yul\":15149:15175   */\n      swap1\n      pop\n        /* \"#utility.yul\":15185:15250   */\n      tag_469\n        /* \"#utility.yul\":15247:15248   */\n      0x00\n        /* \"#utility.yul\":15236:15245   */\n      dup4\n        /* \"#utility.yul\":15232:15249   */\n      add\n        /* \"#utility.yul\":15223:15229   */\n      dup5\n        /* \"#utility.yul\":15185:15250   */\n      tag_372\n      jump\t// in\n    tag_469:\n        /* \"#utility.yul\":15047:15257   */\n      swap3\n      swap2\n      pop\n      pop\n      jump\t// out\n        /* \"#utility.yul\":15263:15681   */\n    tag_43:\n        /* \"#utility.yul\":15400:15404   */\n      0x00\n        /* \"#utility.yul\":15438:15440   */\n      0x60\n        /* \"#utility.yul\":15427:15436   */\n      dup3\n        /* \"#utility.yul\":15423:15441   */\n      add\n        /* \"#utility.yul\":15415:15441   */\n      swap1\n      pop\n        /* \"#utility.yul\":15451:15516   */\n      tag_471\n        /* \"#utility.yul\":15513:15514   */\n      0x00\n        /* \"#utility.yul\":15502:15511   */\n      dup4\n        /* \"#utility.yul\":15498:15515   */\n      add\n        /* \"#utility.yul\":15489:15495   */\n      dup7\n        /* \"#utility.yul\":15451:15516   */\n      tag_372\n      jump\t// in\n    tag_471:\n        /* \"#utility.yul\":15526:15592   */\n      tag_472\n        /* \"#utility.yul\":15588:15590   */\n      0x20\n        /* \"#utility.yul\":15577:15586   */\n      dup4\n        /* \"#utility.yul\":15573:15591   */\n      add\n        /* \"#utility.yul\":15564:15570   */\n      dup6\n        /* \"#utility.yul\":15526:15592   */\n      tag_372\n      jump\t// in\n    tag_472:\n        /* \"#utility.yul\":15602:15674   */\n      tag_473\n        /* \"#utility.yul\":15670:15672   */\n      0x40\n        /* \"#utility.yul\":15659:15668   */\n      dup4\n        /* \"#utility.yul\":15655:15673   */\n      add\n        /* \"#utility.yul\":15646:15652   */\n      dup5\n        /* \"#utility.yul\":15602:15674   */\n      tag_351\n      jump\t// in\n    tag_473:\n        /* \"#utility.yul\":15263:15681   */\n      swap5\n      swap4\n      pop\n      pop\n      pop\n      pop\n      jump\t// out\n        /* \"#utility.yul\":15687:16562   */\n    tag_49:\n        /* \"#utility.yul\":15974:15978   */\n      0x00\n        /* \"#utility.yul\":16012:16015   */\n      0x80\n        /* \"#utility.yul\":16001:16010   */\n      dup3\n        /* \"#utility.yul\":15997:16016   */\n      add\n        /* \"#utility.yul\":15989:16016   */\n      swap1\n      pop\n        /* \"#utility.yul\":16026:16097   */\n      tag_475\n        /* \"#utility.yul\":16094:16095   */\n      0x00\n        /* \"#utility.yul\":16083:16092   */\n      dup4\n        /* \"#utility.yul\":16079:16096   */\n      add\n        /* \"#utility.yul\":16070:16076   */\n      dup8\n        /* \"#utility.yul\":16026:16097   */\n      tag_375\n      jump\t// in\n    tag_475:\n        /* \"#utility.yul\":16144:16153   */\n      dup2\n        /* \"#utility.yul\":16138:16142   */\n      dup2\n        /* \"#utility.yul\":16134:16154   */\n      sub\n        /* \"#utility.yul\":16129:16131   */\n      0x20\n        /* \"#utility.yul\":16118:16127   */\n      dup4\n        /* \"#utility.yul\":16114:16132   */\n      add\n        /* \"#utility.yul\":16107:16155   */\n      mstore\n        /* \"#utility.yul\":16172:16250   */\n      tag_476\n        /* \"#utility.yul\":16245:16249   */\n      dup2\n        /* \"#utility.yul\":16236:16242   */\n      dup7\n        /* \"#utility.yul\":16172:16250   */\n      tag_384\n      jump\t// in\n    tag_476:\n        /* \"#utility.yul\":16164:16250   */\n      swap1\n      pop\n        /* \"#utility.yul\":16260:16332   */\n      tag_477\n        /* \"#utility.yul\":16328:16330   */\n      0x40\n        /* \"#utility.yul\":16317:16326   */\n      dup4\n        /* \"#utility.yul\":16313:16331   */\n      add\n        /* \"#utility.yul\":16304:16310   */\n      dup6\n        /* \"#utility.yul\":16260:16332   */\n      tag_458\n      jump\t// in\n    tag_477:\n        /* \"#utility.yul\":16379:16388   */\n      dup2\n        /* \"#utility.yul\":16373:16377   */\n      dup2\n        /* \"#utility.yul\":16369:16389   */\n      sub\n        /* \"#utility.yul\":16364:16366   */\n      0x60\n        /* \"#utility.yul\":16353:16362   */\n      dup4\n        /* \"#utility.yul\":16349:16367   */\n      add\n        /* \"#utility.yul\":16342:16390   */\n      mstore\n        /* \"#utility.yul\":16407:16555   */\n      tag_478\n        /* \"#utility.yul\":16550:16554   */\n      dup2\n        /* \"#utility.yul\":16541:16547   */\n      dup5\n        /* \"#utility.yul\":16407:16555   */\n      tag_354\n      jump\t// in\n    tag_478:\n        /* \"#utility.yul\":16399:16555   */\n      swap1\n      pop\n        /* \"#utility.yul\":15687:16562   */\n      swap6\n      swap5\n      pop\n      pop\n      pop\n      pop\n      pop\n      jump\t// out\n        /* \"#utility.yul\":16568:16881   */\n    tag_74:\n        /* \"#utility.yul\":16681:16685   */\n      0x00\n        /* \"#utility.yul\":16719:16721   */\n      0x20\n        /* \"#utility.yul\":16708:16717   */\n      dup3\n        /* \"#utility.yul\":16704:16722   */\n      add\n        /* \"#utility.yul\":16696:16722   */\n      swap1\n      pop\n        /* \"#utility.yul\":16768:16777   */\n      dup2\n        /* \"#utility.yul\":16762:16766   */\n      dup2\n        /* \"#utility.yul\":16758:16778   */\n      sub\n        /* \"#utility.yul\":16754:16755   */\n      0x00\n        /* \"#utility.yul\":16743:16752   */\n      dup4\n        /* \"#utility.yul\":16739:16756   */\n      add\n        /* \"#utility.yul\":16732:16779   */\n      mstore\n        /* \"#utility.yul\":16796:16874   */\n      tag_480\n        /* \"#utility.yul\":16869:16873   */\n      dup2\n        /* \"#utility.yul\":16860:16866   */\n      dup5\n        /* \"#utility.yul\":16796:16874   */\n      tag_384\n      jump\t// in\n    tag_480:\n        /* \"#utility.yul\":16788:16874   */\n      swap1\n      pop\n        /* \"#utility.yul\":16568:16881   */\n      swap3\n      swap2\n      pop\n      pop\n      jump\t// out\n        /* \"#utility.yul\":16887:18074   */\n    tag_29:\n        /* \"#utility.yul\":17218:17222   */\n      0x00\n        /* \"#utility.yul\":17256:17259   */\n      0x0120\n        /* \"#utility.yul\":17245:17254   */\n      dup3\n        /* \"#utility.yul\":17241:17260   */\n      add\n        /* \"#utility.yul\":17233:17260   */\n      swap1\n      pop\n        /* \"#utility.yul\":17306:17315   */\n      dup2\n        /* \"#utility.yul\":17300:17304   */\n      dup2\n        /* \"#utility.yul\":17296:17316   */\n      sub\n        /* \"#utility.yul\":17292:17293   */\n      0x00\n        /* \"#utility.yul\":17281:17290   */\n      dup4\n        /* \"#utility.yul\":17277:17294   */\n      add\n        /* \"#utility.yul\":17270:17317   */\n      mstore\n        /* \"#utility.yul\":17334:17412   */\n      tag_482\n        /* \"#utility.yul\":17407:17411   */\n      dup2\n        /* \"#utility.yul\":17398:17404   */\n      dup13\n        /* \"#utility.yul\":17334:17412   */\n      tag_384\n      jump\t// in\n    tag_482:\n        /* \"#utility.yul\":17326:17412   */\n      swap1\n      pop\n        /* \"#utility.yul\":17422:17494   */\n      tag_483\n        /* \"#utility.yul\":17490:17492   */\n      0x20\n        /* \"#utility.yul\":17479:17488   */\n      dup4\n        /* \"#utility.yul\":17475:17493   */\n      add\n        /* \"#utility.yul\":17466:17472   */\n      dup12\n        /* \"#utility.yul\":17422:17494   */\n      tag_351\n      jump\t// in\n    tag_483:\n        /* \"#utility.yul\":17504:17576   */\n      tag_484\n        /* \"#utility.yul\":17572:17574   */\n      0x40\n        /* \"#utility.yul\":17561:17570   */\n      dup4\n        /* \"#utility.yul\":17557:17575   */\n      add\n        /* \"#utility.yul\":17548:17554   */\n      dup11\n        /* \"#utility.yul\":17504:17576   */\n      tag_351\n      jump\t// in\n    tag_484:\n        /* \"#utility.yul\":17586:17658   */\n      tag_485\n        /* \"#utility.yul\":17654:17656   */\n      0x60\n        /* \"#utility.yul\":17643:17652   */\n      dup4\n        /* \"#utility.yul\":17639:17657   */\n      add\n        /* \"#utility.yul\":17630:17636   */\n      dup10\n        /* \"#utility.yul\":17586:17658   */\n      tag_458\n      jump\t// in\n    tag_485:\n        /* \"#utility.yul\":17668:17741   */\n      tag_486\n        /* \"#utility.yul\":17736:17739   */\n      0x80\n        /* \"#utility.yul\":17725:17734   */\n      dup4\n        /* \"#utility.yul\":17721:17740   */\n      add\n        /* \"#utility.yul\":17712:17718   */\n      dup9\n        /* \"#utility.yul\":17668:17741   */\n      tag_458\n      jump\t// in\n    tag_486:\n        /* \"#utility.yul\":17751:17824   */\n      tag_487\n        /* \"#utility.yul\":17819:17822   */\n      0xa0\n        /* \"#utility.yul\":17808:17817   */\n      dup4\n        /* \"#utility.yul\":17804:17823   */\n      add\n        /* \"#utility.yul\":17795:17801   */\n      dup8\n        /* \"#utility.yul\":17751:17824   */\n      tag_458\n      jump\t// in\n    tag_487:\n        /* \"#utility.yul\":17834:17907   */\n      tag_488\n        /* \"#utility.yul\":17902:17905   */\n      0xc0\n        /* \"#utility.yul\":17891:17900   */\n      dup4\n        /* \"#utility.yul\":17887:17906   */\n      add\n        /* \"#utility.yul\":17878:17884   */\n      dup7\n        /* \"#utility.yul\":17834:17907   */\n      tag_458\n      jump\t// in\n    tag_488:\n        /* \"#utility.yul\":17917:17984   */\n      tag_489\n        /* \"#utility.yul\":17979:17982   */\n      0xe0\n        /* \"#utility.yul\":17968:17977   */\n      dup4\n        /* \"#utility.yul\":17964:17983   */\n      add\n        /* \"#utility.yul\":17955:17961   */\n      dup6\n        /* \"#utility.yul\":17917:17984   */\n      tag_372\n      jump\t// in\n    tag_489:\n        /* \"#utility.yul\":17994:18067   */\n      tag_490\n        /* \"#utility.yul\":18062:18065   */\n      0x0100\n        /* \"#utility.yul\":18051:18060   */\n      dup4\n        /* \"#utility.yul\":18047:18066   */\n      add\n        /* \"#utility.yul\":18038:18044   */\n      dup5\n        /* \"#utility.yul\":17994:18067   */\n      tag_375\n      jump\t// in\n    tag_490:\n        /* \"#utility.yul\":16887:18074   */\n      swap11\n      swap10\n      pop\n      pop\n      pop\n      pop\n      pop\n      pop\n      pop\n      pop\n      pop\n      pop\n      jump\t// out\n        /* \"#utility.yul\":18080:18835   */\n    tag_58:\n        /* \"#utility.yul\":18305:18309   */\n      0x00\n        /* \"#utility.yul\":18343:18346   */\n      0xa0\n        /* \"#utility.yul\":18332:18341   */\n      dup3\n        /* \"#utility.yul\":18328:18347   */\n      add\n        /* \"#utility.yul\":18320:18347   */\n      swap1\n      pop\n        /* \"#utility.yul\":18393:18402   */\n      dup2\n        /* \"#utility.yul\":18387:18391   */\n      dup2\n        /* \"#utility.yul\":18383:18403   */\n      sub\n        /* \"#utility.yul\":18379:18380   */\n      0x00\n        /* \"#utility.yul\":18368:18377   */\n      dup4\n        /* \"#utility.yul\":18364:18381   */\n      add\n        /* \"#utility.yul\":18357:18404   */\n      mstore\n        /* \"#utility.yul\":18421:18499   */\n      tag_492\n        /* \"#utility.yul\":18494:18498   */\n      dup2\n        /* \"#utility.yul\":18485:18491   */\n      dup9\n        /* \"#utility.yul\":18421:18499   */\n      tag_384\n      jump\t// in\n    tag_492:\n        /* \"#utility.yul\":18413:18499   */\n      swap1\n      pop\n        /* \"#utility.yul\":18509:18581   */\n      tag_493\n        /* \"#utility.yul\":18577:18579   */\n      0x20\n        /* \"#utility.yul\":18566:18575   */\n      dup4\n        /* \"#utility.yul\":18562:18580   */\n      add\n        /* \"#utility.yul\":18553:18559   */\n      dup8\n        /* \"#utility.yul\":18509:18581   */\n      tag_458\n      jump\t// in\n    tag_493:\n        /* \"#utility.yul\":18591:18663   */\n      tag_494\n        /* \"#utility.yul\":18659:18661   */\n      0x40\n        /* \"#utility.yul\":18648:18657   */\n      dup4\n        /* \"#utility.yul\":18644:18662   */\n      add\n        /* \"#utility.yul\":18635:18641   */\n      dup7\n        /* \"#utility.yul\":18591:18663   */\n      tag_351\n      jump\t// in\n    tag_494:\n        /* \"#utility.yul\":18673:18745   */\n      tag_495\n        /* \"#utility.yul\":18741:18743   */\n      0x60\n        /* \"#utility.yul\":18730:18739   */\n      dup4\n        /* \"#utility.yul\":18726:18744   */\n      add\n        /* \"#utility.yul\":18717:18723   */\n      dup6\n        /* \"#utility.yul\":18673:18745   */\n      tag_458\n      jump\t// in\n    tag_495:\n        /* \"#utility.yul\":18755:18828   */\n      tag_496\n        /* \"#utility.yul\":18823:18826   */\n      0x80\n        /* \"#utility.yul\":18812:18821   */\n      dup4\n        /* \"#utility.yul\":18808:18827   */\n      add\n        /* \"#utility.yul\":18799:18805   */\n      dup5\n        /* \"#utility.yul\":18755:18828   */\n      tag_458\n      jump\t// in\n    tag_496:\n        /* \"#utility.yul\":18080:18835   */\n      swap7\n      swap6\n      pop\n      pop\n      pop\n      pop\n      pop\n      pop\n      jump\t// out\n        /* \"#utility.yul\":18841:19260   */\n    tag_167:\n        /* \"#utility.yul\":19007:19011   */\n      0x00\n        /* \"#utility.yul\":19045:19047   */\n      0x20\n        /* \"#utility.yul\":19034:19043   */\n      dup3\n        /* \"#utility.yul\":19030:19048   */\n      add\n        /* \"#utility.yul\":19022:19048   */\n      swap1\n      pop\n        /* \"#utility.yul\":19094:19103   */\n      dup2\n        /* \"#utility.yul\":19088:19092   */\n      dup2\n        /* \"#utility.yul\":19084:19104   */\n      sub\n        /* \"#utility.yul\":19080:19081   */\n      0x00\n        /* \"#utility.yul\":19069:19078   */\n      dup4\n        /* \"#utility.yul\":19065:19082   */\n      add\n        /* \"#utility.yul\":19058:19105   */\n      mstore\n        /* \"#utility.yul\":19122:19253   */\n      tag_498\n        /* \"#utility.yul\":19248:19252   */\n      dup2\n        /* \"#utility.yul\":19122:19253   */\n      tag_399\n      jump\t// in\n    tag_498:\n        /* \"#utility.yul\":19114:19253   */\n      swap1\n      pop\n        /* \"#utility.yul\":18841:19260   */\n      swap2\n      swap1\n      pop\n      jump\t// out\n        /* \"#utility.yul\":19266:19685   */\n    tag_93:\n        /* \"#utility.yul\":19432:19436   */\n      0x00\n        /* \"#utility.yul\":19470:19472   */\n      0x20\n        /* \"#utility.yul\":19459:19468   */\n      dup3\n        /* \"#utility.yul\":19455:19473   */\n      add\n        /* \"#utility.yul\":19447:19473   */\n      swap1\n      pop\n        /* \"#utility.yul\":19519:19528   */\n      dup2\n        /* \"#utility.yul\":19513:19517   */\n      dup2\n        /* \"#utility.yul\":19509:19529   */\n      sub\n        /* \"#utility.yul\":19505:19506   */\n      0x00\n        /* \"#utility.yul\":19494:19503   */\n      dup4\n        /* \"#utility.yul\":19490:19507   */\n      add\n        /* \"#utility.yul\":19483:19530   */\n      mstore\n        /* \"#utility.yul\":19547:19678   */\n      tag_500\n        /* \"#utility.yul\":19673:19677   */\n      dup2\n        /* \"#utility.yul\":19547:19678   */\n      tag_404\n      jump\t// in\n    tag_500:\n        /* \"#utility.yul\":19539:19678   */\n      swap1\n      pop\n        /* \"#utility.yul\":19266:19685   */\n      swap2\n      swap1\n      pop\n      jump\t// out\n        /* \"#utility.yul\":19691:20110   */\n    tag_203:\n        /* \"#utility.yul\":19857:19861   */\n      0x00\n        /* \"#utility.yul\":19895:19897   */\n      0x20\n        /* \"#utility.yul\":19884:19893   */\n      dup3\n        /* \"#utility.yul\":19880:19898   */\n      add\n        /* \"#utility.yul\":19872:19898   */\n      swap1\n      pop\n        /* \"#utility.yul\":19944:19953   */\n      dup2\n        /* \"#utility.yul\":19938:19942   */\n      dup2\n        /* \"#utility.yul\":19934:19954   */\n      sub\n        /* \"#utility.yul\":19930:19931   */\n      0x00\n        /* \"#utility.yul\":19919:19928   */\n      dup4\n        /* \"#utility.yul\":19915:19932   */\n      add\n        /* \"#utility.yul\":19908:19955   */\n      mstore\n        /* \"#utility.yul\":19972:20103   */\n      tag_502\n        /* \"#utility.yul\":20098:20102   */\n      dup2\n        /* \"#utility.yul\":19972:20103   */\n      tag_409\n      jump\t// in\n    tag_502:\n        /* \"#utility.yul\":19964:20103   */\n      swap1\n      pop\n        /* \"#utility.yul\":19691:20110   */\n      swap2\n      swap1\n      pop\n      jump\t// out\n        /* \"#utility.yul\":20116:20535   */\n    tag_112:\n        /* \"#utility.yul\":20282:20286   */\n      0x00\n        /* \"#utility.yul\":20320:20322   */\n      0x20\n        /* \"#utility.yul\":20309:20318   */\n      dup3\n        /* \"#utility.yul\":20305:20323   */\n      add\n        /* \"#utility.yul\":20297:20323   */\n      swap1\n      pop\n        /* \"#utility.yul\":20369:20378   */\n      dup2\n        /* \"#utility.yul\":20363:20367   */\n      dup2\n        /* \"#utility.yul\":20359:20379   */\n      sub\n        /* \"#utility.yul\":20355:20356   */\n      0x00\n        /* \"#utility.yul\":20344:20353   */\n      dup4\n        /* \"#utility.yul\":20340:20357   */\n      add\n        /* \"#utility.yul\":20333:20380   */\n      mstore\n        /* \"#utility.yul\":20397:20528   */\n      tag_504\n        /* \"#utility.yul\":20523:20527   */\n      dup2\n        /* \"#utility.yul\":20397:20528   */\n      tag_414\n      jump\t// in\n    tag_504:\n        /* \"#utility.yul\":20389:20528   */\n      swap1\n      pop\n        /* \"#utility.yul\":20116:20535   */\n      swap2\n      swap1\n      pop\n      jump\t// out\n        /* \"#utility.yul\":20541:20960   */\n    tag_163:\n        /* \"#utility.yul\":20707:20711   */\n      0x00\n        /* \"#utility.yul\":20745:20747   */\n      0x20\n        /* \"#utility.yul\":20734:20743   */\n      dup3\n        /* \"#utility.yul\":20730:20748   */\n      add\n        /* \"#utility.yul\":20722:20748   */\n      swap1\n      pop\n        /* \"#utility.yul\":20794:20803   */\n      dup2\n        /* \"#utility.yul\":20788:20792   */\n      dup2\n        /* \"#utility.yul\":20784:20804   */\n      sub\n        /* \"#utility.yul\":20780:20781   */\n      0x00\n        /* \"#utility.yul\":20769:20778   */\n      dup4\n        /* \"#utility.yul\":20765:20782   */\n      add\n        /* \"#utility.yul\":20758:20805   */\n      mstore\n        /* \"#utility.yul\":20822:20953   */\n      tag_506\n        /* \"#utility.yul\":20948:20952   */\n      dup2\n        /* \"#utility.yul\":20822:20953   */\n      tag_419\n      jump\t// in\n    tag_506:\n        /* \"#utility.yul\":20814:20953   */\n      swap1\n      pop\n        /* \"#utility.yul\":20541:20960   */\n      swap2\n      swap1\n      pop\n      jump\t// out\n        /* \"#utility.yul\":20966:21385   */\n    tag_108:\n        /* \"#utility.yul\":21132:21136   */\n      0x00\n        /* \"#utility.yul\":21170:21172   */\n      0x20\n        /* \"#utility.yul\":21159:21168   */\n      dup3\n        /* \"#utility.yul\":21155:21173   */\n      add\n        /* \"#utility.yul\":21147:21173   */\n      swap1\n      pop\n        /* \"#utility.yul\":21219:21228   */\n      dup2\n        /* \"#utility.yul\":21213:21217   */\n      dup2\n        /* \"#utility.yul\":21209:21229   */\n      sub\n        /* \"#utility.yul\":21205:21206   */\n      0x00\n        /* \"#utility.yul\":21194:21203   */\n      dup4\n        /* \"#utility.yul\":21190:21207   */\n      add\n        /* \"#utility.yul\":21183:21230   */\n      mstore\n        /* \"#utility.yul\":21247:21378   */\n      tag_508\n        /* \"#utility.yul\":21373:21377   */\n      dup2\n        /* \"#utility.yul\":21247:21378   */\n      tag_424\n      jump\t// in\n    tag_508:\n        /* \"#utility.yul\":21239:21378   */\n      swap1\n      pop\n        /* \"#utility.yul\":20966:21385   */\n      swap2\n      swap1\n      pop\n      jump\t// out\n        /* \"#utility.yul\":21391:21810   */\n    tag_171:\n        /* \"#utility.yul\":21557:21561   */\n      0x00\n        /* \"#utility.yul\":21595:21597   */\n      0x20\n        /* \"#utility.yul\":21584:21593   */\n      dup3\n        /* \"#utility.yul\":21580:21598   */\n      add\n        /* \"#utility.yul\":21572:21598   */\n      swap1\n      pop\n        /* \"#utility.yul\":21644:21653   */\n      dup2\n        /* \"#utility.yul\":21638:21642   */\n      dup2\n        /* \"#utility.yul\":21634:21654   */\n      sub\n        /* \"#utility.yul\":21630:21631   */\n      0x00\n        /* \"#utility.yul\":21619:21628   */\n      dup4\n        /* \"#utility.yul\":21615:21632   */\n      add\n        /* \"#utility.yul\":21608:21655   */\n      mstore\n        /* \"#utility.yul\":21672:21803   */\n      tag_510\n        /* \"#utility.yul\":21798:21802   */\n      dup2\n        /* \"#utility.yul\":21672:21803   */\n      tag_429\n      jump\t// in\n    tag_510:\n        /* \"#utility.yul\":21664:21803   */\n      swap1\n      pop\n        /* \"#utility.yul\":21391:21810   */\n      swap2\n      swap1\n      pop\n      jump\t// out\n        /* \"#utility.yul\":21816:22235   */\n    tag_159:\n        /* \"#utility.yul\":21982:21986   */\n      0x00\n        /* \"#utility.yul\":22020:22022   */\n      0x20\n        /* \"#utility.yul\":22009:22018   */\n      dup3\n        /* \"#utility.yul\":22005:22023   */\n      add\n        /* \"#utility.yul\":21997:22023   */\n      swap1\n      pop\n        /* \"#utility.yul\":22069:22078   */\n      dup2\n        /* \"#utility.yul\":22063:22067   */\n      dup2\n        /* \"#utility.yul\":22059:22079   */\n      sub\n        /* \"#utility.yul\":22055:22056   */\n      0x00\n        /* \"#utility.yul\":22044:22053   */\n      dup4\n        /* \"#utility.yul\":22040:22057   */\n      add\n        /* \"#utility.yul\":22033:22080   */\n      mstore\n        /* \"#utility.yul\":22097:22228   */\n      tag_512\n        /* \"#utility.yul\":22223:22227   */\n      dup2\n        /* \"#utility.yul\":22097:22228   */\n      tag_434\n      jump\t// in\n    tag_512:\n        /* \"#utility.yul\":22089:22228   */\n      swap1\n      pop\n        /* \"#utility.yul\":21816:22235   */\n      swap2\n      swap1\n      pop\n      jump\t// out\n        /* \"#utility.yul\":22241:22660   */\n    tag_142:\n        /* \"#utility.yul\":22407:22411   */\n      0x00\n        /* \"#utility.yul\":22445:22447   */\n      0x20\n        /* \"#utility.yul\":22434:22443   */\n      dup3\n        /* \"#utility.yul\":22430:22448   */\n      add\n        /* \"#utility.yul\":22422:22448   */\n      swap1\n      pop\n        /* \"#utility.yul\":22494:22503   */\n      dup2\n        /* \"#utility.yul\":22488:22492   */\n      dup2\n        /* \"#utility.yul\":22484:22504   */\n      sub\n        /* \"#utility.yul\":22480:22481   */\n      0x00\n        /* \"#utility.yul\":22469:22478   */\n      dup4\n        /* \"#utility.yul\":22465:22482   */\n      add\n        /* \"#utility.yul\":22458:22505   */\n      mstore\n        /* \"#utility.yul\":22522:22653   */\n      tag_514\n        /* \"#utility.yul\":22648:22652   */\n      dup2\n        /* \"#utility.yul\":22522:22653   */\n      tag_439\n      jump\t// in\n    tag_514:\n        /* \"#utility.yul\":22514:22653   */\n      swap1\n      pop\n        /* \"#utility.yul\":22241:22660   */\n      swap2\n      swap1\n      pop\n      jump\t// out\n        /* \"#utility.yul\":22666:23085   */\n    tag_104:\n        /* \"#utility.yul\":22832:22836   */\n      0x00\n        /* \"#utility.yul\":22870:22872   */\n      0x20\n        /* \"#utility.yul\":22859:22868   */\n      dup3\n        /* \"#utility.yul\":22855:22873   */\n      add\n        /* \"#utility.yul\":22847:22873   */\n      swap1\n      pop\n        /* \"#utility.yul\":22919:22928   */\n      dup2\n        /* \"#utility.yul\":22913:22917   */\n      dup2\n        /* \"#utility.yul\":22909:22929   */\n      sub\n        /* \"#utility.yul\":22905:22906   */\n      0x00\n        /* \"#utility.yul\":22894:22903   */\n      dup4\n        /* \"#utility.yul\":22890:22907   */\n      add\n        /* \"#utility.yul\":22883:22930   */\n      mstore\n        /* \"#utility.yul\":22947:23078   */\n      tag_516\n        /* \"#utility.yul\":23073:23077   */\n      dup2\n        /* \"#utility.yul\":22947:23078   */\n      tag_444\n      jump\t// in\n    tag_516:\n        /* \"#utility.yul\":22939:23078   */\n      swap1\n      pop\n        /* \"#utility.yul\":22666:23085   */\n      swap2\n      swap1\n      pop\n      jump\t// out\n        /* \"#utility.yul\":23091:23510   */\n    tag_197:\n        /* \"#utility.yul\":23257:23261   */\n      0x00\n        /* \"#utility.yul\":23295:23297   */\n      0x20\n        /* \"#utility.yul\":23284:23293   */\n      dup3\n        /* \"#utility.yul\":23280:23298   */\n      add\n        /* \"#utility.yul\":23272:23298   */\n      swap1\n      pop\n        /* \"#utility.yul\":23344:23353   */\n      dup2\n        /* \"#utility.yul\":23338:23342   */\n      dup2\n        /* \"#utility.yul\":23334:23354   */\n      sub\n        /* \"#utility.yul\":23330:23331   */\n      0x00\n        /* \"#utility.yul\":23319:23328   */\n      dup4\n        /* \"#utility.yul\":23315:23332   */\n      add\n        /* \"#utility.yul\":23308:23355   */\n      mstore\n        /* \"#utility.yul\":23372:23503   */\n      tag_518\n        /* \"#utility.yul\":23498:23502   */\n      dup2\n        /* \"#utility.yul\":23372:23503   */\n      tag_449\n      jump\t// in\n    tag_518:\n        /* \"#utility.yul\":23364:23503   */\n      swap1\n      pop\n        /* \"#utility.yul\":23091:23510   */\n      swap2\n      swap1\n      pop\n      jump\t// out\n        /* \"#utility.yul\":23516:23645   */\n    tag_261:\n        /* \"#utility.yul\":23550:23556   */\n      0x00\n        /* \"#utility.yul\":23577:23597   */\n      tag_520\n      tag_521\n      jump\t// in\n    tag_520:\n        /* \"#utility.yul\":23567:23597   */\n      swap1\n      pop\n        /* \"#utility.yul\":23606:23639   */\n      tag_522\n        /* \"#utility.yul\":23634:23638   */\n      dup3\n        /* \"#utility.yul\":23626:23632   */\n      dup3\n        /* \"#utility.yul\":23606:23639   */\n      tag_523\n      jump\t// in\n    tag_522:\n        /* \"#utility.yul\":23516:23645   */\n      swap2\n      swap1\n      pop\n      jump\t// out\n        /* \"#utility.yul\":23651:23726   */\n    tag_521:\n        /* \"#utility.yul\":23684:23690   */\n      0x00\n        /* \"#utility.yul\":23717:23719   */\n      0x40\n        /* \"#utility.yul\":23711:23720   */\n      mload\n        /* \"#utility.yul\":23701:23720   */\n      swap1\n      pop\n        /* \"#utility.yul\":23651:23726   */\n      swap1\n      jump\t// out\n        /* \"#utility.yul\":23732:24040   */\n    tag_260:\n        /* \"#utility.yul\":23794:23798   */\n      0x00\n        /* \"#utility.yul\":23884:23902   */\n      0xffffffffffffffff\n        /* \"#utility.yul\":23876:23882   */\n      dup3\n        /* \"#utility.yul\":23873:23903   */\n      gt\n        /* \"#utility.yul\":23870:23926   */\n      iszero\n      tag_526\n      jumpi\n        /* \"#utility.yul\":23906:23924   */\n      tag_527\n      tag_528\n      jump\t// in\n    tag_527:\n        /* \"#utility.yul\":23870:23926   */\n    tag_526:\n        /* \"#utility.yul\":23944:23973   */\n      tag_529\n        /* \"#utility.yul\":23966:23972   */\n      dup3\n        /* \"#utility.yul\":23944:23973   */\n      tag_393\n      jump\t// in\n    tag_529:\n        /* \"#utility.yul\":23936:23973   */\n      swap1\n      pop\n        /* \"#utility.yul\":24028:24032   */\n      0x20\n        /* \"#utility.yul\":24022:24026   */\n      dup2\n        /* \"#utility.yul\":24018:24033   */\n      add\n        /* \"#utility.yul\":24010:24033   */\n      swap1\n      pop\n        /* \"#utility.yul\":23732:24040   */\n      swap2\n      swap1\n      pop\n      jump\t// out\n        /* \"#utility.yul\":24046:24198   */\n    tag_361:\n        /* \"#utility.yul\":24133:24137   */\n      0x00\n        /* \"#utility.yul\":24156:24159   */\n      dup2\n        /* \"#utility.yul\":24148:24159   */\n      swap1\n      pop\n        /* \"#utility.yul\":24186:24190   */\n      0x20\n        /* \"#utility.yul\":24181:24184   */\n      dup3\n        /* \"#utility.yul\":24177:24191   */\n      add\n        /* \"#utility.yul\":24169:24191   */\n      swap1\n      pop\n        /* \"#utility.yul\":24046:24198   */\n      swap2\n      swap1\n      pop\n      jump\t// out\n        /* \"#utility.yul\":24204:24338   */\n    tag_357:\n        /* \"#utility.yul\":24291:24297   */\n      0x00\n        /* \"#utility.yul\":24325:24330   */\n      dup2\n        /* \"#utility.yul\":24319:24331   */\n      mload\n        /* \"#utility.yul\":24309:24331   */\n      swap1\n      pop\n        /* \"#utility.yul\":24204:24338   */\n      swap2\n      swap1\n      pop\n      jump\t// out\n        /* \"#utility.yul\":24344:24443   */\n    tag_387:\n        /* \"#utility.yul\":24396:24402   */\n      0x00\n        /* \"#utility.yul\":24430:24435   */\n      dup2\n        /* \"#utility.yul\":24424:24436   */\n      mload\n        /* \"#utility.yul\":24414:24436   */\n      swap1\n      pop\n        /* \"#utility.yul\":24344:24443   */\n      swap2\n      swap1\n      pop\n      jump\t// out\n        /* \"#utility.yul\":24449:24582   */\n    tag_367:\n        /* \"#utility.yul\":24539:24543   */\n      0x00\n        /* \"#utility.yul\":24571:24575   */\n      0x20\n        /* \"#utility.yul\":24566:24569   */\n      dup3\n        /* \"#utility.yul\":24562:24576   */\n      add\n        /* \"#utility.yul\":24554:24576   */\n      swap1\n      pop\n        /* \"#utility.yul\":24449:24582   */\n      swap2\n      swap1\n      pop\n      jump\t// out\n        /* \"#utility.yul\":24588:24792   */\n    tag_359:\n        /* \"#utility.yul\":24707:24718   */\n      0x00\n        /* \"#utility.yul\":24741:24747   */\n      dup3\n        /* \"#utility.yul\":24736:24739   */\n      dup3\n        /* \"#utility.yul\":24729:24748   */\n      mstore\n        /* \"#utility.yul\":24781:24785   */\n      0x20\n        /* \"#utility.yul\":24776:24779   */\n      dup3\n        /* \"#utility.yul\":24772:24786   */\n      add\n        /* \"#utility.yul\":24757:24786   */\n      swap1\n      pop\n        /* \"#utility.yul\":24588:24792   */\n      swap3\n      swap2\n      pop\n      pop\n      jump\t// out\n        /* \"#utility.yul\":24798:24967   */\n    tag_389:\n        /* \"#utility.yul\":24882:24893   */\n      0x00\n        /* \"#utility.yul\":24916:24922   */\n      dup3\n        /* \"#utility.yul\":24911:24914   */\n      dup3\n        /* \"#utility.yul\":24904:24923   */\n      mstore\n        /* \"#utility.yul\":24956:24960   */\n      0x20\n        /* \"#utility.yul\":24951:24954   */\n      dup3\n        /* \"#utility.yul\":24947:24961   */\n      add\n        /* \"#utility.yul\":24932:24961   */\n      swap1\n      pop\n        /* \"#utility.yul\":24798:24967   */\n      swap3\n      swap2\n      pop\n      pop\n      jump\t// out\n        /* \"#utility.yul\":24973:25121   */\n    tag_382:\n        /* \"#utility.yul\":25075:25086   */\n      0x00\n        /* \"#utility.yul\":25112:25115   */\n      dup2\n        /* \"#utility.yul\":25097:25115   */\n      swap1\n      pop\n        /* \"#utility.yul\":24973:25121   */\n      swap3\n      swap2\n      pop\n      pop\n      jump\t// out\n        /* \"#utility.yul\":25127:25432   */\n    tag_95:\n        /* \"#utility.yul\":25167:25170   */\n      0x00\n        /* \"#utility.yul\":25186:25206   */\n      tag_538\n        /* \"#utility.yul\":25204:25205   */\n      dup3\n        /* \"#utility.yul\":25186:25206   */\n      tag_461\n      jump\t// in\n    tag_538:\n        /* \"#utility.yul\":25181:25206   */\n      swap2\n      pop\n        /* \"#utility.yul\":25220:25240   */\n      tag_539\n        /* \"#utility.yul\":25238:25239   */\n      dup4\n        /* \"#utility.yul\":25220:25240   */\n      tag_461\n      jump\t// in\n    tag_539:\n        /* \"#utility.yul\":25215:25240   */\n      swap3\n      pop\n        /* \"#utility.yul\":25374:25375   */\n      dup3\n        /* \"#utility.yul\":25306:25372   */\n      0xffffffffffffffffffffffffffffffffffffffffffffffffffffffffffffffff\n        /* \"#utility.yul\":25302:25376   */\n      sub\n        /* \"#utility.yul\":25299:25300   */\n      dup3\n        /* \"#utility.yul\":25296:25377   */\n      gt\n        /* \"#utility.yul\":25293:25400   */\n      iszero\n      tag_540\n      jumpi\n        /* \"#utility.yul\":25380:25398   */\n      tag_541\n      tag_542\n      jump\t// in\n    tag_541:\n        /* \"#utility.yul\":25293:25400   */\n    tag_540:\n        /* \"#utility.yul\":25424:25425   */\n      dup3\n        /* \"#utility.yul\":25421:25422   */\n      dup3\n        /* \"#utility.yul\":25417:25426   */\n      add\n        /* \"#utility.yul\":25410:25426   */\n      swap1\n      pop\n        /* \"#utility.yul\":25127:25432   */\n      swap3\n      swap2\n      pop\n      pop\n      jump\t// out\n        /* \"#utility.yul\":25438:25623   */\n    tag_207:\n        /* \"#utility.yul\":25478:25479   */\n      0x00\n        /* \"#utility.yul\":25495:25515   */\n      tag_544\n        /* \"#utility.yul\":25513:25514   */\n      dup3\n        /* \"#utility.yul\":25495:25515   */\n      tag_461\n      jump\t// in\n    tag_544:\n        /* \"#utility.yul\":25490:25515   */\n      swap2\n      pop\n        /* \"#utility.yul\":25529:25549   */\n      tag_545\n        /* \"#utility.yul\":25547:25548   */\n      dup4\n        /* \"#utility.yul\":25529:25549   */\n      tag_461\n      jump\t// in\n    tag_545:\n        /* \"#utility.yul\":25524:25549   */\n      swap3\n      pop\n        /* \"#utility.yul\":25568:25569   */\n      dup3\n        /* \"#utility.yul\":25558:25593   */\n      tag_546\n      jumpi\n        /* \"#utility.yul\":25573:25591   */\n      tag_547\n      tag_548\n      jump\t// in\n    tag_547:\n        /* \"#utility.yul\":25558:25593   */\n    tag_546:\n        /* \"#utility.yul\":25615:25616   */\n      dup3\n        /* \"#utility.yul\":25612:25613   */\n      dup3\n        /* \"#utility.yul\":25608:25617   */\n      div\n        /* \"#utility.yul\":25603:25617   */\n      swap1\n      pop\n        /* \"#utility.yul\":25438:25623   */\n      swap3\n      swap2\n      pop\n      pop\n      jump\t// out\n        /* \"#utility.yul\":25629:25977   */\n    tag_209:\n        /* \"#utility.yul\":25669:25676   */\n      0x00\n        /* \"#utility.yul\":25692:25712   */\n      tag_550\n        /* \"#utility.yul\":25710:25711   */\n      dup3\n        /* \"#utility.yul\":25692:25712   */\n      tag_461\n      jump\t// in\n    tag_550:\n        /* \"#utility.yul\":25687:25712   */\n      swap2\n      pop\n        /* \"#utility.yul\":25726:25746   */\n      tag_551\n        /* \"#utility.yul\":25744:25745   */\n      dup4\n        /* \"#utility.yul\":25726:25746   */\n      tag_461\n      jump\t// in\n    tag_551:\n        /* \"#utility.yul\":25721:25746   */\n      swap3\n      pop\n        /* \"#utility.yul\":25914:25915   */\n      dup2\n        /* \"#utility.yul\":25846:25912   */\n      0xffffffffffffffffffffffffffffffffffffffffffffffffffffffffffffffff\n        /* \"#utility.yul\":25842:25916   */\n      div\n        /* \"#utility.yul\":25839:25840   */\n      dup4\n        /* \"#utility.yul\":25836:25917   */\n      gt\n        /* \"#utility.yul\":25831:25832   */\n      dup3\n        /* \"#utility.yul\":25824:25833   */\n      iszero\n        /* \"#utility.yul\":25817:25834   */\n      iszero\n        /* \"#utility.yul\":25813:25918   */\n      and\n        /* \"#utility.yul\":25810:25941   */\n      iszero\n      tag_552\n      jumpi\n        /* \"#utility.yul\":25921:25939   */\n      tag_553\n      tag_542\n      jump\t// in\n    tag_553:\n        /* \"#utility.yul\":25810:25941   */\n    tag_552:\n        /* \"#utility.yul\":25969:25970   */\n      dup3\n        /* \"#utility.yul\":25966:25967   */\n      dup3\n        /* \"#utility.yul\":25962:25971   */\n      mul\n        /* \"#utility.yul\":25951:25971   */\n      swap1\n      pop\n        /* \"#utility.yul\":25629:25977   */\n      swap3\n      swap2\n      pop\n      pop\n      jump\t// out\n        /* \"#utility.yul\":25983:26079   */\n    tag_350:\n        /* \"#utility.yul\":26020:26027   */\n      0x00\n        /* \"#utility.yul\":26049:26073   */\n      tag_555\n        /* \"#utility.yul\":26067:26072   */\n      dup3\n        /* \"#utility.yul\":26049:26073   */\n      tag_556\n      jump\t// in\n    tag_555:\n        /* \"#utility.yul\":26038:26073   */\n      swap1\n      pop\n        /* \"#utility.yul\":25983:26079   */\n      swap2\n      swap1\n      pop\n      jump\t// out\n        /* \"#utility.yul\":26085:26175   */\n    tag_371:\n        /* \"#utility.yul\":26119:26126   */\n      0x00\n        /* \"#utility.yul\":26162:26167   */\n      dup2\n        /* \"#utility.yul\":26155:26168   */\n      iszero\n        /* \"#utility.yul\":26148:26169   */\n      iszero\n        /* \"#utility.yul\":26137:26169   */\n      swap1\n      pop\n        /* \"#utility.yul\":26085:26175   */\n      swap2\n      swap1\n      pop\n      jump\t// out\n        /* \"#utility.yul\":26181:26258   */\n    tag_378:\n        /* \"#utility.yul\":26218:26225   */\n      0x00\n        /* \"#utility.yul\":26247:26252   */\n      dup2\n        /* \"#utility.yul\":26236:26252   */\n      swap1\n      pop\n        /* \"#utility.yul\":26181:26258   */\n      swap2\n      swap1\n      pop\n      jump\t// out\n        /* \"#utility.yul\":26264:26390   */\n    tag_556:\n        /* \"#utility.yul\":26301:26308   */\n      0x00\n        /* \"#utility.yul\":26341:26383   */\n      0xffffffffffffffffffffffffffffffffffffffff\n        /* \"#utility.yul\":26334:26339   */\n      dup3\n        /* \"#utility.yul\":26330:26384   */\n      and\n        /* \"#utility.yul\":26319:26384   */\n      swap1\n      pop\n        /* \"#utility.yul\":26264:26390   */\n      swap2\n      swap1\n      pop\n      jump\t// out\n        /* \"#utility.yul\":26396:26473   */\n    tag_461:\n        /* \"#utility.yul\":26433:26440   */\n      0x00\n        /* \"#utility.yul\":26462:26467   */\n      dup2\n        /* \"#utility.yul\":26451:26467   */\n      swap1\n      pop\n        /* \"#utility.yul\":26396:26473   */\n      swap2\n      swap1\n      pop\n      jump\t// out\n        /* \"#utility.yul\":26479:26565   */\n    tag_561:\n        /* \"#utility.yul\":26514:26521   */\n      0x00\n        /* \"#utility.yul\":26554:26558   */\n      0xff\n        /* \"#utility.yul\":26547:26552   */\n      dup3\n        /* \"#utility.yul\":26543:26559   */\n      and\n        /* \"#utility.yul\":26532:26559   */\n      swap1\n      pop\n        /* \"#utility.yul\":26479:26565   */\n      swap2\n      swap1\n      pop\n      jump\t// out\n        /* \"#utility.yul\":26571:26725   */\n    tag_266:\n        /* \"#utility.yul\":26655:26661   */\n      dup3\n        /* \"#utility.yul\":26650:26653   */\n      dup2\n        /* \"#utility.yul\":26645:26648   */\n      dup4\n        /* \"#utility.yul\":26632:26662   */\n      calldatacopy\n        /* \"#utility.yul\":26717:26718   */\n      0x00\n        /* \"#utility.yul\":26708:26714   */\n      dup4\n        /* \"#utility.yul\":26703:26706   */\n      dup4\n        /* \"#utility.yul\":26699:26715   */\n      add\n        /* \"#utility.yul\":26692:26719   */\n      mstore\n        /* \"#utility.yul\":26571:26725   */\n      pop\n      pop\n      pop\n      jump\t// out\n        /* \"#utility.yul\":26731:27038   */\n    tag_391:\n        /* \"#utility.yul\":26799:26800   */\n      0x00\n        /* \"#utility.yul\":26809:26922   */\n    tag_565:\n        /* \"#utility.yul\":26823:26829   */\n      dup4\n        /* \"#utility.yul\":26820:26821   */\n      dup2\n        /* \"#utility.yul\":26817:26830   */\n      lt\n        /* \"#utility.yul\":26809:26922   */\n      iszero\n      tag_567\n      jumpi\n        /* \"#utility.yul\":26908:26909   */\n      dup1\n        /* \"#utility.yul\":26903:26906   */\n      dup3\n        /* \"#utility.yul\":26899:26910   */\n      add\n        /* \"#utility.yul\":26893:26911   */\n      mload\n        /* \"#utility.yul\":26889:26890   */\n      dup2\n        /* \"#utility.yul\":26884:26887   */\n      dup5\n        /* \"#utility.yul\":26880:26891   */\n      add\n        /* \"#utility.yul\":26873:26912   */\n      mstore\n        /* \"#utility.yul\":26845:26847   */\n      0x20\n        /* \"#utility.yul\":26842:26843   */\n      dup2\n        /* \"#utility.yul\":26838:26848   */\n      add\n        /* \"#utility.yul\":26833:26848   */\n      swap1\n      pop\n        /* \"#utility.yul\":26809:26922   */\n      jump(tag_565)\n    tag_567:\n        /* \"#utility.yul\":26940:26946   */\n      dup4\n        /* \"#utility.yul\":26937:26938   */\n      dup2\n        /* \"#utility.yul\":26934:26947   */\n      gt\n        /* \"#utility.yul\":26931:27032   */\n      iszero\n      tag_568\n      jumpi\n        /* \"#utility.yul\":27020:27021   */\n      0x00\n        /* \"#utility.yul\":27011:27017   */\n      dup5\n        /* \"#utility.yul\":27006:27009   */\n      dup5\n        /* \"#utility.yul\":27002:27018   */\n      add\n        /* \"#utility.yul\":26995:27022   */\n      mstore\n        /* \"#utility.yul\":26931:27032   */\n    tag_568:\n        /* \"#utility.yul\":26780:27038   */\n      pop\n        /* \"#utility.yul\":26731:27038   */\n      pop\n      pop\n      pop\n      jump\t// out\n        /* \"#utility.yul\":27044:27364   */\n    tag_83:\n        /* \"#utility.yul\":27088:27094   */\n      0x00\n        /* \"#utility.yul\":27125:27126   */\n      0x02\n        /* \"#utility.yul\":27119:27123   */\n      dup3\n        /* \"#utility.yul\":27115:27127   */\n      div\n        /* \"#utility.yul\":27105:27127   */\n      swap1\n      pop\n        /* \"#utility.yul\":27172:27173   */\n      0x01\n        /* \"#utility.yul\":27166:27170   */\n      dup3\n        /* \"#utility.yul\":27162:27174   */\n      and\n        /* \"#utility.yul\":27193:27211   */\n      dup1\n        /* \"#utility.yul\":27183:27264   */\n      tag_570\n      jumpi\n        /* \"#utility.yul\":27249:27253   */\n      0x7f\n        /* \"#utility.yul\":27241:27247   */\n      dup3\n        /* \"#utility.yul\":27237:27254   */\n      and\n        /* \"#utility.yul\":27227:27254   */\n      swap2\n      pop\n        /* \"#utility.yul\":27183:27264   */\n    tag_570:\n        /* \"#utility.yul\":27311:27313   */\n      0x20\n        /* \"#utility.yul\":27303:27309   */\n      dup3\n        /* \"#utility.yul\":27300:27314   */\n      lt\n        /* \"#utility.yul\":27280:27298   */\n      dup2\n        /* \"#utility.yul\":27277:27315   */\n      eq\n        /* \"#utility.yul\":27274:27358   */\n      iszero\n      tag_571\n      jumpi\n        /* \"#utility.yul\":27330:27348   */\n      tag_572\n      tag_573\n      jump\t// in\n    tag_572:\n        /* \"#utility.yul\":27274:27358   */\n    tag_571:\n        /* \"#utility.yul\":27095:27364   */\n      pop\n        /* \"#utility.yul\":27044:27364   */\n      swap2\n      swap1\n      pop\n      jump\t// out\n        /* \"#utility.yul\":27370:27651   */\n    tag_523:\n        /* \"#utility.yul\":27453:27480   */\n      tag_575\n        /* \"#utility.yul\":27475:27479   */\n      dup3\n        /* \"#utility.yul\":27453:27480   */\n      tag_393\n      jump\t// in\n    tag_575:\n        /* \"#utility.yul\":27445:27451   */\n      dup2\n        /* \"#utility.yul\":27441:27481   */\n      add\n        /* \"#utility.yul\":27583:27589   */\n      dup2\n        /* \"#utility.yul\":27571:27581   */\n      dup2\n        /* \"#utility.yul\":27568:27590   */\n      lt\n        /* \"#utility.yul\":27547:27565   */\n      0xffffffffffffffff\n        /* \"#utility.yul\":27535:27545   */\n      dup3\n        /* \"#utility.yul\":27532:27566   */\n      gt\n        /* \"#utility.yul\":27529:27591   */\n      or\n        /* \"#utility.yul\":27526:27614   */\n      iszero\n      tag_576\n      jumpi\n        /* \"#utility.yul\":27594:27612   */\n      tag_577\n      tag_528\n      jump\t// in\n    tag_577:\n        /* \"#utility.yul\":27526:27614   */\n    tag_576:\n        /* \"#utility.yul\":27634:27644   */\n      dup1\n        /* \"#utility.yul\":27630:27632   */\n      0x40\n        /* \"#utility.yul\":27623:27645   */\n      mstore\n        /* \"#utility.yul\":27413:27651   */\n      pop\n        /* \"#utility.yul\":27370:27651   */\n      pop\n      pop\n      jump\t// out\n        /* \"#utility.yul\":27657:27824   */\n    tag_232:\n        /* \"#utility.yul\":27694:27697   */\n      0x00\n        /* \"#utility.yul\":27717:27739   */\n      tag_579\n        /* \"#utility.yul\":27733:27738   */\n      dup3\n        /* \"#utility.yul\":27717:27739   */\n      tag_561\n      jump\t// in\n    tag_579:\n        /* \"#utility.yul\":27708:27739   */\n      swap2\n      pop\n        /* \"#utility.yul\":27761:27765   */\n      0xff\n        /* \"#utility.yul\":27754:27759   */\n      dup3\n        /* \"#utility.yul\":27751:27766   */\n      eq\n        /* \"#utility.yul\":27748:27789   */\n      iszero\n      tag_580\n      jumpi\n        /* \"#utility.yul\":27769:27787   */\n      tag_581\n      tag_542\n      jump\t// in\n    tag_581:\n        /* \"#utility.yul\":27748:27789   */\n    tag_580:\n        /* \"#utility.yul\":27816:27817   */\n      0x01\n        /* \"#utility.yul\":27809:27814   */\n      dup3\n        /* \"#utility.yul\":27805:27818   */\n      add\n        /* \"#utility.yul\":27798:27818   */\n      swap1\n      pop\n        /* \"#utility.yul\":27657:27824   */\n      swap2\n      swap1\n      pop\n      jump\t// out\n        /* \"#utility.yul\":27830:28010   */\n    tag_542:\n        /* \"#utility.yul\":27878:27955   */\n      0x4e487b7100000000000000000000000000000000000000000000000000000000\n        /* \"#utility.yul\":27875:27876   */\n      0x00\n        /* \"#utility.yul\":27868:27956   */\n      mstore\n        /* \"#utility.yul\":27975:27979   */\n      0x11\n        /* \"#utility.yul\":27972:27973   */\n      0x04\n        /* \"#utility.yul\":27965:27980   */\n      mstore\n        /* \"#utility.yul\":27999:28003   */\n      0x24\n        /* \"#utility.yul\":27996:27997   */\n      0x00\n        /* \"#utility.yul\":27989:28004   */\n      revert\n        /* \"#utility.yul\":28016:28196   */\n    tag_548:\n        /* \"#utility.yul\":28064:28141   */\n      0x4e487b7100000000000000000000000000000000000000000000000000000000\n        /* \"#utility.yul\":28061:28062   */\n      0x00\n        /* \"#utility.yul\":28054:28142   */\n      mstore\n        /* \"#utility.yul\":28161:28165   */\n      0x12\n        /* \"#utility.yul\":28158:28159   */\n      0x04\n        /* \"#utility.yul\":28151:28166   */\n      mstore\n        /* \"#utility.yul\":28185:28189   */\n      0x24\n        /* \"#utility.yul\":28182:28183   */\n      0x00\n        /* \"#utility.yul\":28175:28190   */\n      revert\n        /* \"#utility.yul\":28202:28382   */\n    tag_573:\n        /* \"#utility.yul\":28250:28327   */\n      0x4e487b7100000000000000000000000000000000000000000000000000000000\n        /* \"#utility.yul\":28247:28248   */\n      0x00\n        /* \"#utility.yul\":28240:28328   */\n      mstore\n        /* \"#utility.yul\":28347:28351   */\n      0x22\n        /* \"#utility.yul\":28344:28345   */\n      0x04\n        /* \"#utility.yul\":28337:28352   */\n      mstore\n        /* \"#utility.yul\":28371:28375   */\n      0x24\n        /* \"#utility.yul\":28368:28369   */\n      0x00\n        /* \"#utility.yul\":28361:28376   */\n      revert\n        /* \"#utility.yul\":28388:28568   */\n    tag_221:\n        /* \"#utility.yul\":28436:28513   */\n      0x4e487b7100000000000000000000000000000000000000000000000000000000\n        /* \"#utility.yul\":28433:28434   */\n      0x00\n        /* \"#utility.yul\":28426:28514   */\n      mstore\n        /* \"#utility.yul\":28533:28537   */\n      0x32\n        /* \"#utility.yul\":28530:28531   */\n      0x04\n        /* \"#utility.yul\":28523:28538   */\n      mstore\n        /* \"#utility.yul\":28557:28561   */\n      0x24\n        /* \"#utility.yul\":28554:28555   */\n      0x00\n        /* \"#utility.yul\":28547:28562   */\n      revert\n        /* \"#utility.yul\":28574:28754   */\n    tag_528:\n        /* \"#utility.yul\":28622:28699   */\n      0x4e487b7100000000000000000000000000000000000000000000000000000000\n        /* \"#utility.yul\":28619:28620   */\n      0x00\n        /* \"#utility.yul\":28612:28700   */\n      mstore\n        /* \"#utility.yul\":28719:28723   */\n      0x41\n        /* \"#utility.yul\":28716:28717   */\n      0x04\n        /* \"#utility.yul\":28709:28724   */\n      mstore\n        /* \"#utility.yul\":28743:28747   */\n      0x24\n        /* \"#utility.yul\":28740:28741   */\n      0x00\n        /* \"#utility.yul\":28733:28748   */\n      revert\n        /* \"#utility.yul\":28760:28877   */\n    tag_278:\n        /* \"#utility.yul\":28869:28870   */\n      0x00\n        /* \"#utility.yul\":28866:28867   */\n      dup1\n        /* \"#utility.yul\":28859:28871   */\n      revert\n        /* \"#utility.yul\":28883:29000   */\n    tag_275:\n        /* \"#utility.yul\":28992:28993   */\n      0x00\n        /* \"#utility.yul\":28989:28990   */\n      dup1\n        /* \"#utility.yul\":28982:28994   */\n      revert\n        /* \"#utility.yul\":29006:29123   */\n    tag_281:\n        /* \"#utility.yul\":29115:29116   */\n      0x00\n        /* \"#utility.yul\":29112:29113   */\n      dup1\n        /* \"#utility.yul\":29105:29117   */\n      revert\n        /* \"#utility.yul\":29129:29246   */\n    tag_264:\n        /* \"#utility.yul\":29238:29239   */\n      0x00\n        /* \"#utility.yul\":29235:29236   */\n      dup1\n        /* \"#utility.yul\":29228:29240   */\n      revert\n        /* \"#utility.yul\":29252:29369   */\n    tag_298:\n        /* \"#utility.yul\":29361:29362   */\n      0x00\n        /* \"#utility.yul\":29358:29359   */\n      dup1\n        /* \"#utility.yul\":29351:29363   */\n      revert\n        /* \"#utility.yul\":29375:29492   */\n    tag_294:\n        /* \"#utility.yul\":29484:29485   */\n      0x00\n        /* \"#utility.yul\":29481:29482   */\n      dup1\n        /* \"#utility.yul\":29474:29486   */\n      revert\n        /* \"#utility.yul\":29498:29600   */\n    tag_393:\n        /* \"#utility.yul\":29539:29545   */\n      0x00\n        /* \"#utility.yul\":29590:29592   */\n      0x1f\n        /* \"#utility.yul\":29586:29593   */\n      not\n        /* \"#utility.yul\":29581:29583   */\n      0x1f\n        /* \"#utility.yul\":29574:29579   */\n      dup4\n        /* \"#utility.yul\":29570:29584   */\n      add\n        /* \"#utility.yul\":29566:29594   */\n      and\n        /* \"#utility.yul\":29556:29594   */\n      swap1\n      pop\n        /* \"#utility.yul\":29498:29600   */\n      swap2\n      swap1\n      pop\n      jump\t// out\n        /* \"#utility.yul\":29606:29787   */\n    tag_403:\n        /* \"#utility.yul\":29746:29779   */\n      0x526563697069656e7420697320616c7265616479207265676973746572656400\n        /* \"#utility.yul\":29742:29743   */\n      0x00\n        /* \"#utility.yul\":29734:29740   */\n      dup3\n        /* \"#utility.yul\":29730:29744   */\n      add\n        /* \"#utility.yul\":29723:29780   */\n      mstore\n        /* \"#utility.yul\":29606:29787   */\n      pop\n      jump\t// out\n        /* \"#utility.yul\":29793:29968   */\n    tag_408:\n        /* \"#utility.yul\":29933:29960   */\n      0x50726f706f73616c20616c726561647920637265617465642100000000000000\n        /* \"#utility.yul\":29929:29930   */\n      0x00\n        /* \"#utility.yul\":29921:29927   */\n      dup3\n        /* \"#utility.yul\":29917:29931   */\n      add\n        /* \"#utility.yul\":29910:29961   */\n      mstore\n        /* \"#utility.yul\":29793:29968   */\n      pop\n      jump\t// out\n        /* \"#utility.yul\":29974:30199   */\n    tag_413:\n        /* \"#utility.yul\":30114:30148   */\n      0x596f75206172656e277420617574686f72697a6520746f20636f6d70696c6520\n        /* \"#utility.yul\":30110:30111   */\n      0x00\n        /* \"#utility.yul\":30102:30108   */\n      dup3\n        /* \"#utility.yul\":30098:30112   */\n      add\n        /* \"#utility.yul\":30091:30149   */\n      mstore\n        /* \"#utility.yul\":30183:30191   */\n      0x42756e646c650000000000000000000000000000000000000000000000000000\n        /* \"#utility.yul\":30178:30180   */\n      0x20\n        /* \"#utility.yul\":30170:30176   */\n      dup3\n        /* \"#utility.yul\":30166:30181   */\n      add\n        /* \"#utility.yul\":30159:30192   */\n      mstore\n        /* \"#utility.yul\":29974:30199   */\n      pop\n      jump\t// out\n        /* \"#utility.yul\":30205:30383   */\n    tag_418:\n        /* \"#utility.yul\":30345:30375   */\n      0x596f7520616c72656164792073656e74206120726573706f6e73652e00000000\n        /* \"#utility.yul\":30341:30342   */\n      0x00\n        /* \"#utility.yul\":30333:30339   */\n      dup3\n        /* \"#utility.yul\":30329:30343   */\n      add\n        /* \"#utility.yul\":30322:30376   */\n      mstore\n        /* \"#utility.yul\":30205:30383   */\n      pop\n      jump\t// out\n        /* \"#utility.yul\":30389:30560   */\n    tag_423:\n        /* \"#utility.yul\":30529:30552   */\n      0x496e69746961746f722063616e277420766f7465210000000000000000000000\n        /* \"#utility.yul\":30525:30526   */\n      0x00\n        /* \"#utility.yul\":30517:30523   */\n      dup3\n        /* \"#utility.yul\":30513:30527   */\n      add\n        /* \"#utility.yul\":30506:30553   */\n      mstore\n        /* \"#utility.yul\":30389:30560   */\n      pop\n      jump\t// out\n        /* \"#utility.yul\":30566:30746   */\n    tag_428:\n        /* \"#utility.yul\":30706:30738   */\n      0x596f7520617265206e6f74207265676973746572656420746f20766f74650000\n        /* \"#utility.yul\":30702:30703   */\n      0x00\n        /* \"#utility.yul\":30694:30700   */\n      dup3\n        /* \"#utility.yul\":30690:30704   */\n      add\n        /* \"#utility.yul\":30683:30739   */\n      mstore\n        /* \"#utility.yul\":30566:30746   */\n      pop\n      jump\t// out\n        /* \"#utility.yul\":30752:30975   */\n    tag_433:\n        /* \"#utility.yul\":30892:30926   */\n      0x50726f706f73616c206861732072656163686564206974732065787069727920\n        /* \"#utility.yul\":30888:30889   */\n      0x00\n        /* \"#utility.yul\":30880:30886   */\n      dup3\n        /* \"#utility.yul\":30876:30890   */\n      add\n        /* \"#utility.yul\":30869:30927   */\n      mstore\n        /* \"#utility.yul\":30961:30967   */\n      0x6461746500000000000000000000000000000000000000000000000000000000\n        /* \"#utility.yul\":30956:30958   */\n      0x20\n        /* \"#utility.yul\":30948:30954   */\n      dup3\n        /* \"#utility.yul\":30944:30959   */\n      add\n        /* \"#utility.yul\":30937:30968   */\n      mstore\n        /* \"#utility.yul\":30752:30975   */\n      pop\n      jump\t// out\n        /* \"#utility.yul\":30981:31208   */\n    tag_438:\n        /* \"#utility.yul\":31121:31155   */\n      0x4f6e6c7920696e69746961746f722063616e2072656769737465722061207265\n        /* \"#utility.yul\":31117:31118   */\n      0x00\n        /* \"#utility.yul\":31109:31115   */\n      dup3\n        /* \"#utility.yul\":31105:31119   */\n      add\n        /* \"#utility.yul\":31098:31156   */\n      mstore\n        /* \"#utility.yul\":31190:31200   */\n      0x63697069656e742e000000000000000000000000000000000000000000000000\n        /* \"#utility.yul\":31185:31187   */\n      0x20\n        /* \"#utility.yul\":31177:31183   */\n      dup3\n        /* \"#utility.yul\":31173:31188   */\n      add\n        /* \"#utility.yul\":31166:31201   */\n      mstore\n        /* \"#utility.yul\":30981:31208   */\n      pop\n      jump\t// out\n        /* \"#utility.yul\":31214:31396   */\n    tag_443:\n        /* \"#utility.yul\":31354:31388   */\n      0x5665726469637420686173206e6f74206265656e207265616368656420796574\n        /* \"#utility.yul\":31350:31351   */\n      0x00\n        /* \"#utility.yul\":31342:31348   */\n      dup3\n        /* \"#utility.yul\":31338:31352   */\n      add\n        /* \"#utility.yul\":31331:31389   */\n      mstore\n        /* \"#utility.yul\":31214:31396   */\n      pop\n      jump\t// out\n        /* \"#utility.yul\":31402:31570   */\n    tag_448:\n        /* \"#utility.yul\":31542:31562   */\n      0x566f74696e672068617320657870697265640000000000000000000000000000\n        /* \"#utility.yul\":31538:31539   */\n      0x00\n        /* \"#utility.yul\":31530:31536   */\n      dup3\n        /* \"#utility.yul\":31526:31540   */\n      add\n        /* \"#utility.yul\":31519:31563   */\n      mstore\n        /* \"#utility.yul\":31402:31570   */\n      pop\n      jump\t// out\n        /* \"#utility.yul\":31576:31800   */\n    tag_453:\n        /* \"#utility.yul\":31716:31750   */\n      0x436f6e73656e7375732068617320616c7265616479206265656e2063616c6375\n        /* \"#utility.yul\":31712:31713   */\n      0x00\n        /* \"#utility.yul\":31704:31710   */\n      dup3\n        /* \"#utility.yul\":31700:31714   */\n      add\n        /* \"#utility.yul\":31693:31751   */\n      mstore\n        /* \"#utility.yul\":31785:31792   */\n      0x6c61746564000000000000000000000000000000000000000000000000000000\n        /* \"#utility.yul\":31780:31782   */\n      0x20\n        /* \"#utility.yul\":31772:31778   */\n      dup3\n        /* \"#utility.yul\":31768:31783   */\n      add\n        /* \"#utility.yul\":31761:31793   */\n      mstore\n        /* \"#utility.yul\":31576:31800   */\n      pop\n      jump\t// out\n        /* \"#utility.yul\":31806:31928   */\n    tag_270:\n        /* \"#utility.yul\":31879:31903   */\n      tag_606\n        /* \"#utility.yul\":31897:31902   */\n      dup2\n        /* \"#utility.yul\":31879:31903   */\n      tag_350\n      jump\t// in\n    tag_606:\n        /* \"#utility.yul\":31872:31877   */\n      dup2\n        /* \"#utility.yul\":31869:31904   */\n      eq\n        /* \"#utility.yul\":31859:31922   */\n      tag_607\n      jumpi\n        /* \"#utility.yul\":31918:31919   */\n      0x00\n        /* \"#utility.yul\":31915:31916   */\n      dup1\n        /* \"#utility.yul\":31908:31920   */\n      revert\n        /* \"#utility.yul\":31859:31922   */\n    tag_607:\n        /* \"#utility.yul\":31806:31928   */\n      pop\n      jump\t// out\n        /* \"#utility.yul\":31934:32056   */\n    tag_290:\n        /* \"#utility.yul\":32007:32031   */\n      tag_609\n        /* \"#utility.yul\":32025:32030   */\n      dup2\n        /* \"#utility.yul\":32007:32031   */\n      tag_461\n      jump\t// in\n    tag_609:\n        /* \"#utility.yul\":32000:32005   */\n      dup2\n        /* \"#utility.yul\":31997:32032   */\n      eq\n        /* \"#utility.yul\":31987:32050   */\n      tag_610\n      jumpi\n        /* \"#utility.yul\":32046:32047   */\n      0x00\n        /* \"#utility.yul\":32043:32044   */\n      dup1\n        /* \"#utility.yul\":32036:32048   */\n      revert\n        /* \"#utility.yul\":31987:32050   */\n    tag_610:\n        /* \"#utility.yul\":31934:32056   */\n      pop\n      jump\t// out\n\n    auxdata: 0xa264697066735822122030703482462cf048716436ea2666388d81643633f42d79be45e076002c868fd064736f6c63430008070033\n}\n",
				"bytecode": {
					"linkReferences": {},
					"object": "608060405234801561001057600080fd5b50613429806100206000396000f3fe608060405234801561001057600080fd5b50600436106100cf5760003560e01c80633d63af0e1161008c578063883a967311610066578063883a96731461025b5780638f6a35b714610277578063c99ba896146102a9578063ec548680146102d9576100cf565b80633d63af0e146101d95780635a0a1390146101f55780637b735c4614610229576100cf565b806306699b01146100d4578063089a4c60146101045780630a5c8d5e1461013c57806317072d6b1461015857806333a0b0ab1461017457806337f2e190146101a6575b600080fd5b6100ee60048036038101906100e9919061263e565b610309565b6040516100fb9190612a5b565b60405180910390f35b61011e6004803603810190610119919061251d565b61036d565b60405161013399989796959493929190612b3d565b60405180910390f35b6101566004803603810190610151919061269a565b6104a6565b005b610172600480360381019061016d91906125c2565b61071c565b005b61018e60048036038101906101899190612566565b6110c1565b60405161019d93929190612a91565b60405180910390f35b6101c060048036038101906101bb91906124d0565b611148565b6040516101d09493929190612ac8565b60405180910390f35b6101f360048036038101906101ee9190612470565b6113ce565b005b61020f600480360381019061020a91906124d0565b61182f565b604051610220959493929190612bd1565b60405180910390f35b610243600480360381019061023e9190612470565b6119aa565b60405161025293929190612a91565b60405180910390f35b610275600480360381019061027091906124d0565b611b1b565b005b610291600480360381019061028c919061263e565b61215a565b6040516102a093929190612a91565b60405180910390f35b6102c360048036038101906102be91906124d0565b6121ed565b6040516102d09190612b1b565b60405180910390f35b6102f360048036038101906102ee91906124d0565b6122a3565b6040516103009190612a76565b60405180910390f35b600382805160208101820180518482526020830160208501208183528095505050505050818154811061033b57600080fd5b906000526020600020016000915091509054906101000a900473ffffffffffffffffffffffffffffffffffffffff1681565b6000818051602081018201805184825260208301602085012081835280955050505050506000915090508060000180546103a690612fc3565b80601f01602080910402602001604051908101604052809291908181526020018280546103d290612fc3565b801561041f5780601f106103f45761010080835404028352916020019161041f565b820191906000526020600020905b81548152906001019060200180831161040257829003601f168201915b5050505050908060010160009054906101000a900473ffffffffffffffffffffffffffffffffffffffff16908060020160009054906101000a900473ffffffffffffffffffffffffffffffffffffffff16908060030154908060040154908060050154908060060154908060070160009054906101000a900460ff16908060080154905089565b600073ffffffffffffffffffffffffffffffffffffffff166000846040516104ce9190612a44565b908152602001604051809103902060010160009054906101000a900473ffffffffffffffffffffffffffffffffffffffff1673ffffffffffffffffffffffffffffffffffffffff1614610556576040517f08c379a000000000000000000000000000000000000000000000000000000000815260040161054d90612c4b565b60405180910390fd5b60006040518061012001604052808581526020013373ffffffffffffffffffffffffffffffffffffffff1681526020013073ffffffffffffffffffffffffffffffffffffffff1681526020016000815260200184426105b59190612e41565b8152602001838152602001600081526020016000151581526020017f52656a65637465640000000000000000000000000000000000000000000000008152509050806000856040516106079190612a44565b908152602001604051809103902060008201518160000190805190602001906106319291906122dd565b5060208201518160010160006101000a81548173ffffffffffffffffffffffffffffffffffffffff021916908373ffffffffffffffffffffffffffffffffffffffff16021790555060408201518160020160006101000a81548173ffffffffffffffffffffffffffffffffffffffff021916908373ffffffffffffffffffffffffffffffffffffffff160217905550606082015181600301556080820151816004015560a0820151816005015560c0820151816006015560e08201518160070160006101000a81548160ff021916908315150217905550610100820151816008015590505050505050565b6000828260405161072e929190612a2b565b9081526020016040518091039020600401544210610781576040517f08c379a000000000000000000000000000000000000000000000000000000000815260040161077890612d4b565b60405180910390fd5b600073ffffffffffffffffffffffffffffffffffffffff16600183836040516107ab929190612a2b565b908152602001604051809103902060003373ffffffffffffffffffffffffffffffffffffffff1673ffffffffffffffffffffffffffffffffffffffff16815260200190815260200160002060000160029054906101000a900473ffffffffffffffffffffffffffffffffffffffff1673ffffffffffffffffffffffffffffffffffffffff161415610871576040517f08c379a000000000000000000000000000000000000000000000000000000000815260040161086890612ccb565b60405180910390fd5b60018282604051610883929190612a2b565b908152602001604051809103902060003373ffffffffffffffffffffffffffffffffffffffff1673ffffffffffffffffffffffffffffffffffffffff16815260200190815260200160002060000160009054906101000a900460ff161561091f576040517f08c379a000000000000000000000000000000000000000000000000000000000815260040161091690612c8b565b60405180910390fd5b6040518060400160405280600981526020017f6920617070726f766500000000000000000000000000000000000000000000008152508051906020012083805190602001201415610c3a57600180838360405161097d929190612a2b565b908152602001604051809103902060003373ffffffffffffffffffffffffffffffffffffffff1673ffffffffffffffffffffffffffffffffffffffff16815260200190815260200160002060000160006101000a81548160ff02191690831515021790555060018083836040516109f5929190612a2b565b908152602001604051809103902060003373ffffffffffffffffffffffffffffffffffffffff1673ffffffffffffffffffffffffffffffffffffffff16815260200190815260200160002060000160016101000a81548160ff021916908315150217905550600160008383604051610a6e929190612a2b565b90815260200160405180910390206006016000828254610a8e9190612e41565b92505081905550600160008383604051610aa9929190612a2b565b90815260200160405180910390206003016000828254610ac99190612e41565b9250508190555060028282604051610ae2929190612a2b565b908152602001604051809103902060018383604051610b02929190612a2b565b908152602001604051809103902060003373ffffffffffffffffffffffffffffffffffffffff1673ffffffffffffffffffffffffffffffffffffffff168152602001908152602001600020908060018154018082558091505060019003906000526020600020016000909190919091506000820160009054906101000a900460ff168160000160006101000a81548160ff0219169083151502179055506000820160019054906101000a900460ff168160000160016101000a81548160ff0219169083151502179055506000820160029054906101000a900473ffffffffffffffffffffffffffffffffffffffff168160000160026101000a81548173ffffffffffffffffffffffffffffffffffffffff021916908373ffffffffffffffffffffffffffffffffffffffff16021790555050506110bc565b6040518060400160405280600c81526020017f6920646973617070726f766500000000000000000000000000000000000000008152508051906020012083805190602001201415610ea2576001808383604051610c98929190612a2b565b908152602001604051809103902060003373ffffffffffffffffffffffffffffffffffffffff1673ffffffffffffffffffffffffffffffffffffffff16815260200190815260200160002060000160006101000a81548160ff021916908315150217905550600160008383604051610d11929190612a2b565b90815260200160405180910390206003016000828254610d319190612e41565b9250508190555060028282604051610d4a929190612a2b565b908152602001604051809103902060018383604051610d6a929190612a2b565b908152602001604051809103902060003373ffffffffffffffffffffffffffffffffffffffff1673ffffffffffffffffffffffffffffffffffffffff168152602001908152602001600020908060018154018082558091505060019003906000526020600020016000909190919091506000820160009054906101000a900460ff168160000160006101000a81548160ff0219169083151502179055506000820160019054906101000a900460ff168160000160016101000a81548160ff0219169083151502179055506000820160029054906101000a900473ffffffffffffffffffffffffffffffffffffffff168160000160026101000a81548173ffffffffffffffffffffffffffffffffffffffff021916908373ffffffffffffffffffffffffffffffffffffffff16021790555050506110bb565b6001808383604051610eb5929190612a2b565b908152602001604051809103902060003373ffffffffffffffffffffffffffffffffffffffff1673ffffffffffffffffffffffffffffffffffffffff16815260200190815260200160002060000160006101000a81548160ff021916908315150217905550600160008383604051610f2e929190612a2b565b90815260200160405180910390206003016000828254610f4e9190612e41565b9250508190555060028282604051610f67929190612a2b565b908152602001604051809103902060018383604051610f87929190612a2b565b908152602001604051809103902060003373ffffffffffffffffffffffffffffffffffffffff1673ffffffffffffffffffffffffffffffffffffffff168152602001908152602001600020908060018154018082558091505060019003906000526020600020016000909190919091506000820160009054906101000a900460ff168160000160006101000a81548160ff0219169083151502179055506000820160019054906101000a900460ff168160000160016101000a81548160ff0219169083151502179055506000820160029054906101000a900473ffffffffffffffffffffffffffffffffffffffff168160000160026101000a81548173ffffffffffffffffffffffffffffffffffffffff021916908373ffffffffffffffffffffffffffffffffffffffff16021790555050505b5b505050565b600182805160208101820180518482526020830160208501208183528095505050505050602052806000526040600020600091509150508060000160009054906101000a900460ff16908060000160019054906101000a900460ff16908060000160029054906101000a900473ffffffffffffffffffffffffffffffffffffffff16905083565b600060606000606060008686604051611162929190612a2b565b9081526020016040518091039020600401544210156111b6576040517f08c379a00000000000000000000000000000000000000000000000000000000081526004016111ad90612d2b565b60405180910390fd5b6000600287876040516111ca929190612a2b565b9081526020016040518091039020805480602002602001604051908101604052809291908181526020016000905b828210156112b2578382906000526020600020016040518060600160405290816000820160009054906101000a900460ff161515151581526020016000820160019054906101000a900460ff161515151581526020016000820160029054906101000a900473ffffffffffffffffffffffffffffffffffffffff1673ffffffffffffffffffffffffffffffffffffffff1673ffffffffffffffffffffffffffffffffffffffff1681525050815260200190600101906111f8565b50505050905060008088886040516112cb929190612a2b565b908152602001604051809103902060000180546112e790612fc3565b80601f016020809104026020016040519081016040528092919081815260200182805461131390612fc3565b80156113605780601f1061133557610100808354040283529160200191611360565b820191906000526020600020905b81548152906001019060200180831161134357829003601f168201915b50505050509050600080898960405161137a929190612a2b565b90815260200160405180910390206008015490506000808a8a6040516113a1929190612a2b565b90815260200160405180910390206003015490508183828697509750975097505050505092959194509250565b600082826040516113e0929190612a2b565b908152602001604051809103902060010160009054906101000a900473ffffffffffffffffffffffffffffffffffffffff1673ffffffffffffffffffffffffffffffffffffffff163373ffffffffffffffffffffffffffffffffffffffff161461147f576040517f08c379a000000000000000000000000000000000000000000000000000000000815260040161147690612d0b565b60405180910390fd5b60008282604051611491929190612a2b565b908152602001604051809103902060010160009054906101000a900473ffffffffffffffffffffffffffffffffffffffff1673ffffffffffffffffffffffffffffffffffffffff168373ffffffffffffffffffffffffffffffffffffffff161415611531576040517f08c379a000000000000000000000000000000000000000000000000000000000815260040161152890612cab565b60405180910390fd5b600073ffffffffffffffffffffffffffffffffffffffff166001838360405161155b929190612a2b565b908152602001604051809103902060008573ffffffffffffffffffffffffffffffffffffffff1673ffffffffffffffffffffffffffffffffffffffff16815260200190815260200160002060000160029054906101000a900473ffffffffffffffffffffffffffffffffffffffff1673ffffffffffffffffffffffffffffffffffffffff1614611620576040517f08c379a000000000000000000000000000000000000000000000000000000000815260040161161790612c2b565b60405180910390fd5b60008282604051611632929190612a2b565b9081526020016040518091039020600401544210611685576040517f08c379a000000000000000000000000000000000000000000000000000000000815260040161167c90612ceb565b60405180910390fd5b600060405180606001604052806000151581526020016000151581526020018573ffffffffffffffffffffffffffffffffffffffff16815250905080600184846040516116d3929190612a2b565b908152602001604051809103902060008673ffffffffffffffffffffffffffffffffffffffff1673ffffffffffffffffffffffffffffffffffffffff16815260200190815260200160002060008201518160000160006101000a81548160ff02191690831515021790555060208201518160000160016101000a81548160ff02191690831515021790555060408201518160000160026101000a81548173ffffffffffffffffffffffffffffffffffffffff021916908373ffffffffffffffffffffffffffffffffffffffff160217905550905050600383836040516117ba929190612a2b565b9081526020016040518091039020849080600181540180825580915050600190039060005260206000200160009091909190916101000a81548173ffffffffffffffffffffffffffffffffffffffff021916908373ffffffffffffffffffffffffffffffffffffffff16021790555050505050565b606060008060008060008787604051611849929190612a2b565b90815260200160405180910390206000016000888860405161186c929190612a2b565b90815260200160405180910390206004015460008989604051611890929190612a2b565b908152602001604051809103902060010160009054906101000a900473ffffffffffffffffffffffffffffffffffffffff1660008a8a6040516118d4929190612a2b565b90815260200160405180910390206005015460008b8b6040516118f8929190612a2b565b90815260200160405180910390206006015484805461191690612fc3565b80601f016020809104026020016040519081016040528092919081815260200182805461194290612fc3565b801561198f5780601f106119645761010080835404028352916020019161198f565b820191906000526020600020905b81548152906001019060200180831161197257829003601f168201915b50505050509450945094509450945094509295509295909350565b6000806000600185856040516119c1929190612a2b565b908152602001604051809103902060008773ffffffffffffffffffffffffffffffffffffffff1673ffffffffffffffffffffffffffffffffffffffff16815260200190815260200160002060000160019054906101000a900460ff1660018686604051611a2f929190612a2b565b908152602001604051809103902060008873ffffffffffffffffffffffffffffffffffffffff1673ffffffffffffffffffffffffffffffffffffffff16815260200190815260200160002060000160009054906101000a900460ff1660018787604051611a9d929190612a2b565b908152602001604051809103902060008973ffffffffffffffffffffffffffffffffffffffff1673ffffffffffffffffffffffffffffffffffffffff16815260200190815260200160002060000160029054906101000a900473ffffffffffffffffffffffffffffffffffffffff1692509250925093509350939050565b60008282604051611b2d929190612a2b565b908152602001604051809103902060040154421015611b81576040517f08c379a0000000000000000000000000000000000000000000000000000000008152600401611b7890612d2b565b60405180910390fd5b6000151560008383604051611b97929190612a2b565b908152602001604051809103902060070160009054906101000a900460ff16151514611bf8576040517f08c379a0000000000000000000000000000000000000000000000000000000008152600401611bef90612d6b565b60405180910390fd5b60008282604051611c0a929190612a2b565b908152602001604051809103902060010160009054906101000a900473ffffffffffffffffffffffffffffffffffffffff1673ffffffffffffffffffffffffffffffffffffffff163373ffffffffffffffffffffffffffffffffffffffff161480611d225750600073ffffffffffffffffffffffffffffffffffffffff1660018383604051611c9a929190612a2b565b908152602001604051809103902060003373ffffffffffffffffffffffffffffffffffffffff1673ffffffffffffffffffffffffffffffffffffffff16815260200190815260200160002060000160029054906101000a900473ffffffffffffffffffffffffffffffffffffffff1673ffffffffffffffffffffffffffffffffffffffff1614155b611d61576040517f08c379a0000000000000000000000000000000000000000000000000000000008152600401611d5890612c6b565b60405180910390fd5b6000606460038484604051611d77929190612a2b565b90815260200160405180910390208054905060008585604051611d9b929190612a2b565b908152602001604051809103902060060154611db79190612e97565b611dc19190612ec8565b905060008383604051611dd5929190612a2b565b9081526020016040518091039020600501548110611e36577f416363657074656400000000000000000000000000000000000000000000000060008484604051611e20929190612a2b565b9081526020016040518091039020600801819055505b60005b60038484604051611e4b929190612a2b565b9081526020016040518091039020805490508160ff161015612118576000151560018585604051611e7d929190612a2b565b9081526020016040518091039020600060038787604051611e9f929190612a2b565b90815260200160405180910390208460ff1681548110611ec257611ec16130dd565b5b9060005260206000200160009054906101000a900473ffffffffffffffffffffffffffffffffffffffff1673ffffffffffffffffffffffffffffffffffffffff1673ffffffffffffffffffffffffffffffffffffffff16815260200190815260200160002060000160009054906101000a900460ff16151514156121055760028484604051611f52929190612a2b565b908152602001604051809103902060018585604051611f72929190612a2b565b9081526020016040518091039020600060038787604051611f94929190612a2b565b90815260200160405180910390208460ff1681548110611fb757611fb66130dd565b5b9060005260206000200160009054906101000a900473ffffffffffffffffffffffffffffffffffffffff1673ffffffffffffffffffffffffffffffffffffffff1673ffffffffffffffffffffffffffffffffffffffff168152602001908152602001600020908060018154018082558091505060019003906000526020600020016000909190919091506000820160009054906101000a900460ff168160000160006101000a81548160ff0219169083151502179055506000820160019054906101000a900460ff168160000160016101000a81548160ff0219169083151502179055506000820160029054906101000a900473ffffffffffffffffffffffffffffffffffffffff168160000160026101000a81548173ffffffffffffffffffffffffffffffffffffffff021916908373ffffffffffffffffffffffffffffffffffffffff16021790555050505b808061211090613026565b915050611e39565b5060016000848460405161212d929190612a2b565b908152602001604051809103902060070160006101000a81548160ff021916908315150217905550505050565b600282805160208101820180518482526020830160208501208183528095505050505050818154811061218c57600080fd5b90600052602060002001600091509150508060000160009054906101000a900460ff16908060000160019054906101000a900460ff16908060000160029054906101000a900473ffffffffffffffffffffffffffffffffffffffff16905083565b606060008383604051612201929190612a2b565b9081526020016040518091039020600001805461221d90612fc3565b80601f016020809104026020016040519081016040528092919081815260200182805461224990612fc3565b80156122965780601f1061226b57610100808354040283529160200191612296565b820191906000526020600020905b81548152906001019060200180831161227957829003601f168201915b5050505050905092915050565b60008083836040516122b6929190612a2b565b908152602001604051809103902060070160009054906101000a900460ff16905092915050565b8280546122e990612fc3565b90600052602060002090601f01602090048101928261230b5760008555612352565b82601f1061232457805160ff1916838001178555612352565b82800160010185558215612352579182015b82811115612351578251825591602001919060010190612336565b5b50905061235f9190612363565b5090565b5b8082111561237c576000816000905550600101612364565b5090565b600061239361238e84612db0565b612d8b565b9050828152602081018484840111156123af576123ae61314a565b5b6123ba848285612f81565b509392505050565b6000813590506123d1816133c5565b92915050565b60008083601f8401126123ed576123ec613140565b5b8235905067ffffffffffffffff81111561240a5761240961313b565b5b60208301915083600182028301111561242657612425613145565b5b9250929050565b600082601f83011261244257612441613140565b5b8135612452848260208601612380565b91505092915050565b60008135905061246a816133dc565b92915050565b60008060006040848603121561248957612488613154565b5b6000612497868287016123c2565b935050602084013567ffffffffffffffff8111156124b8576124b761314f565b5b6124c4868287016123d7565b92509250509250925092565b600080602083850312156124e7576124e6613154565b5b600083013567ffffffffffffffff8111156125055761250461314f565b5b612511858286016123d7565b92509250509250929050565b60006020828403121561253357612532613154565b5b600082013567ffffffffffffffff8111156125515761255061314f565b5b61255d8482850161242d565b91505092915050565b6000806040838503121561257d5761257c613154565b5b600083013567ffffffffffffffff81111561259b5761259a61314f565b5b6125a78582860161242d565b92505060206125b8858286016123c2565b9150509250929050565b6000806000604084860312156125db576125da613154565b5b600084013567ffffffffffffffff8111156125f9576125f861314f565b5b6126058682870161242d565b935050602084013567ffffffffffffffff8111156126265761262561314f565b5b612632868287016123d7565b92509250509250925092565b6000806040838503121561265557612654613154565b5b600083013567ffffffffffffffff8111156126735761267261314f565b5b61267f8582860161242d565b92505060206126908582860161245b565b9150509250929050565b6000806000606084860312156126b3576126b2613154565b5b600084013567ffffffffffffffff8111156126d1576126d061314f565b5b6126dd8682870161242d565b93505060206126ee8682870161245b565b92505060406126ff8682870161245b565b9150509250925092565b600061271583836129da565b60608301905092915050565b61272a81612f22565b82525050565b61273981612f22565b82525050565b600061274a82612df1565b6127548185612e14565b935061275f83612de1565b8060005b838110156127905781516127778882612709565b975061278283612e07565b925050600181019050612763565b5085935050505092915050565b6127a681612f34565b82525050565b6127b581612f34565b82525050565b6127c481612f40565b82525050565b60006127d68385612e36565b93506127e3838584612f81565b82840190509392505050565b60006127fa82612dfc565b6128048185612e25565b9350612814818560208601612f90565b61281d81613159565b840191505092915050565b600061283382612dfc565b61283d8185612e36565b935061284d818560208601612f90565b80840191505092915050565b6000612866601f83612e25565b91506128718261316a565b602082019050919050565b6000612889601983612e25565b915061289482613193565b602082019050919050565b60006128ac602683612e25565b91506128b7826131bc565b604082019050919050565b60006128cf601c83612e25565b91506128da8261320b565b602082019050919050565b60006128f2601583612e25565b91506128fd82613234565b602082019050919050565b6000612915601e83612e25565b91506129208261325d565b602082019050919050565b6000612938602483612e25565b915061294382613286565b604082019050919050565b600061295b602883612e25565b9150612966826132d5565b604082019050919050565b600061297e602083612e25565b915061298982613324565b602082019050919050565b60006129a1601283612e25565b91506129ac8261334d565b602082019050919050565b60006129c4602583612e25565b91506129cf82613376565b604082019050919050565b6060820160008201516129f0600085018261279d565b506020820151612a03602085018261279d565b506040820151612a166040850182612721565b50505050565b612a2581612f6a565b82525050565b6000612a388284866127ca565b91508190509392505050565b6000612a508284612828565b915081905092915050565b6000602082019050612a706000830184612730565b92915050565b6000602082019050612a8b60008301846127ac565b92915050565b6000606082019050612aa660008301866127ac565b612ab360208301856127ac565b612ac06040830184612730565b949350505050565b6000608082019050612add60008301876127bb565b8181036020830152612aef81866127ef565b9050612afe6040830185612a1c565b8181036060830152612b10818461273f565b905095945050505050565b60006020820190508181036000830152612b3581846127ef565b905092915050565b6000610120820190508181036000830152612b58818c6127ef565b9050612b67602083018b612730565b612b74604083018a612730565b612b816060830189612a1c565b612b8e6080830188612a1c565b612b9b60a0830187612a1c565b612ba860c0830186612a1c565b612bb560e08301856127ac565b612bc36101008301846127bb565b9a9950505050505050505050565b600060a0820190508181036000830152612beb81886127ef565b9050612bfa6020830187612a1c565b612c076040830186612730565b612c146060830185612a1c565b612c216080830184612a1c565b9695505050505050565b60006020820190508181036000830152612c4481612859565b9050919050565b60006020820190508181036000830152612c648161287c565b9050919050565b60006020820190508181036000830152612c848161289f565b9050919050565b60006020820190508181036000830152612ca4816128c2565b9050919050565b60006020820190508181036000830152612cc4816128e5565b9050919050565b60006020820190508181036000830152612ce481612908565b9050919050565b60006020820190508181036000830152612d048161292b565b9050919050565b60006020820190508181036000830152612d248161294e565b9050919050565b60006020820190508181036000830152612d4481612971565b9050919050565b60006020820190508181036000830152612d6481612994565b9050919050565b60006020820190508181036000830152612d84816129b7565b9050919050565b6000612d95612da6565b9050612da18282612ff5565b919050565b6000604051905090565b600067ffffffffffffffff821115612dcb57612dca61310c565b5b612dd482613159565b9050602081019050919050565b6000819050602082019050919050565b600081519050919050565b600081519050919050565b6000602082019050919050565b600082825260208201905092915050565b600082825260208201905092915050565b600081905092915050565b6000612e4c82612f6a565b9150612e5783612f6a565b9250827fffffffffffffffffffffffffffffffffffffffffffffffffffffffffffffffff03821115612e8c57612e8b613050565b5b828201905092915050565b6000612ea282612f6a565b9150612ead83612f6a565b925082612ebd57612ebc61307f565b5b828204905092915050565b6000612ed382612f6a565b9150612ede83612f6a565b9250817fffffffffffffffffffffffffffffffffffffffffffffffffffffffffffffffff0483118215151615612f1757612f16613050565b5b828202905092915050565b6000612f2d82612f4a565b9050919050565b60008115159050919050565b6000819050919050565b600073ffffffffffffffffffffffffffffffffffffffff82169050919050565b6000819050919050565b600060ff82169050919050565b82818337600083830152505050565b60005b83811015612fae578082015181840152602081019050612f93565b83811115612fbd576000848401525b50505050565b60006002820490506001821680612fdb57607f821691505b60208210811415612fef57612fee6130ae565b5b50919050565b612ffe82613159565b810181811067ffffffffffffffff8211171561301d5761301c61310c565b5b80604052505050565b600061303182612f74565b915060ff82141561304557613044613050565b5b600182019050919050565b7f4e487b7100000000000000000000000000000000000000000000000000000000600052601160045260246000fd5b7f4e487b7100000000000000000000000000000000000000000000000000000000600052601260045260246000fd5b7f4e487b7100000000000000000000000000000000000000000000000000000000600052602260045260246000fd5b7f4e487b7100000000000000000000000000000000000000000000000000000000600052603260045260246000fd5b7f4e487b7100000000000000000000000000000000000000000000000000000000600052604160045260246000fd5b600080fd5b600080fd5b600080fd5b600080fd5b600080fd5b600080fd5b6000601f19601f8301169050919050565b7f526563697069656e7420697320616c7265616479207265676973746572656400600082015250565b7f50726f706f73616c20616c726561647920637265617465642100000000000000600082015250565b7f596f75206172656e277420617574686f72697a6520746f20636f6d70696c652060008201527f42756e646c650000000000000000000000000000000000000000000000000000602082015250565b7f596f7520616c72656164792073656e74206120726573706f6e73652e00000000600082015250565b7f496e69746961746f722063616e277420766f7465210000000000000000000000600082015250565b7f596f7520617265206e6f74207265676973746572656420746f20766f74650000600082015250565b7f50726f706f73616c20686173207265616368656420697473206578706972792060008201527f6461746500000000000000000000000000000000000000000000000000000000602082015250565b7f4f6e6c7920696e69746961746f722063616e207265676973746572206120726560008201527f63697069656e742e000000000000000000000000000000000000000000000000602082015250565b7f5665726469637420686173206e6f74206265656e207265616368656420796574600082015250565b7f566f74696e672068617320657870697265640000000000000000000000000000600082015250565b7f436f6e73656e7375732068617320616c7265616479206265656e2063616c637560008201527f6c61746564000000000000000000000000000000000000000000000000000000602082015250565b6133ce81612f22565b81146133d957600080fd5b50565b6133e581612f6a565b81146133f057600080fd5b5056fea264697066735822122030703482462cf048716436ea2666388d81643633f42d79be45e076002c868fd064736f6c63430008070033",
					"opcodes": "PUSH1 0x80 PUSH1 0x40 MSTORE CALLVALUE DUP1 ISZERO PUSH2 0x10 JUMPI PUSH1 0x0 DUP1 REVERT JUMPDEST POP PUSH2 0x3429 DUP1 PUSH2 0x20 PUSH1 0x0 CODECOPY PUSH1 0x0 RETURN INVALID PUSH1 0x80 PUSH1 0x40 MSTORE CALLVALUE DUP1 ISZERO PUSH2 0x10 JUMPI PUSH1 0x0 DUP1 REVERT JUMPDEST POP PUSH1 0x4 CALLDATASIZE LT PUSH2 0xCF JUMPI PUSH1 0x0 CALLDATALOAD PUSH1 0xE0 SHR DUP1 PUSH4 0x3D63AF0E GT PUSH2 0x8C JUMPI DUP1 PUSH4 0x883A9673 GT PUSH2 0x66 JUMPI DUP1 PUSH4 0x883A9673 EQ PUSH2 0x25B JUMPI DUP1 PUSH4 0x8F6A35B7 EQ PUSH2 0x277 JUMPI DUP1 PUSH4 0xC99BA896 EQ PUSH2 0x2A9 JUMPI DUP1 PUSH4 0xEC548680 EQ PUSH2 0x2D9 JUMPI PUSH2 0xCF JUMP JUMPDEST DUP1 PUSH4 0x3D63AF0E EQ PUSH2 0x1D9 JUMPI DUP1 PUSH4 0x5A0A1390 EQ PUSH2 0x1F5 JUMPI DUP1 PUSH4 0x7B735C46 EQ PUSH2 0x229 JUMPI PUSH2 0xCF JUMP JUMPDEST DUP1 PUSH4 0x6699B01 EQ PUSH2 0xD4 JUMPI DUP1 PUSH4 0x89A4C60 EQ PUSH2 0x104 JUMPI DUP1 PUSH4 0xA5C8D5E EQ PUSH2 0x13C JUMPI DUP1 PUSH4 0x17072D6B EQ PUSH2 0x158 JUMPI DUP1 PUSH4 0x33A0B0AB EQ PUSH2 0x174 JUMPI DUP1 PUSH4 0x37F2E190 EQ PUSH2 0x1A6 JUMPI JUMPDEST PUSH1 0x0 DUP1 REVERT JUMPDEST PUSH2 0xEE PUSH1 0x4 DUP1 CALLDATASIZE SUB DUP2 ADD SWAP1 PUSH2 0xE9 SWAP2 SWAP1 PUSH2 0x263E JUMP JUMPDEST PUSH2 0x309 JUMP JUMPDEST PUSH1 0x40 MLOAD PUSH2 0xFB SWAP2 SWAP1 PUSH2 0x2A5B JUMP JUMPDEST PUSH1 0x40 MLOAD DUP1 SWAP2 SUB SWAP1 RETURN JUMPDEST PUSH2 0x11E PUSH1 0x4 DUP1 CALLDATASIZE SUB DUP2 ADD SWAP1 PUSH2 0x119 SWAP2 SWAP1 PUSH2 0x251D JUMP JUMPDEST PUSH2 0x36D JUMP JUMPDEST PUSH1 0x40 MLOAD PUSH2 0x133 SWAP10 SWAP9 SWAP8 SWAP7 SWAP6 SWAP5 SWAP4 SWAP3 SWAP2 SWAP1 PUSH2 0x2B3D JUMP JUMPDEST PUSH1 0x40 MLOAD DUP1 SWAP2 SUB SWAP1 RETURN JUMPDEST PUSH2 0x156 PUSH1 0x4 DUP1 CALLDATASIZE SUB DUP2 ADD SWAP1 PUSH2 0x151 SWAP2 SWAP1 PUSH2 0x269A JUMP JUMPDEST PUSH2 0x4A6 JUMP JUMPDEST STOP JUMPDEST PUSH2 0x172 PUSH1 0x4 DUP1 CALLDATASIZE SUB DUP2 ADD SWAP1 PUSH2 0x16D SWAP2 SWAP1 PUSH2 0x25C2 JUMP JUMPDEST PUSH2 0x71C JUMP JUMPDEST STOP JUMPDEST PUSH2 0x18E PUSH1 0x4 DUP1 CALLDATASIZE SUB DUP2 ADD SWAP1 PUSH2 0x189 SWAP2 SWAP1 PUSH2 0x2566 JUMP JUMPDEST PUSH2 0x10C1 JUMP JUMPDEST PUSH1 0x40 MLOAD PUSH2 0x19D SWAP4 SWAP3 SWAP2 SWAP1 PUSH2 0x2A91 JUMP JUMPDEST PUSH1 0x40 MLOAD DUP1 SWAP2 SUB SWAP1 RETURN JUMPDEST PUSH2 0x1C0 PUSH1 0x4 DUP1 CALLDATASIZE SUB DUP2 ADD SWAP1 PUSH2 0x1BB SWAP2 SWAP1 PUSH2 0x24D0 JUMP JUMPDEST PUSH2 0x1148 JUMP JUMPDEST PUSH1 0x40 MLOAD PUSH2 0x1D0 SWAP5 SWAP4 SWAP3 SWAP2 SWAP1 PUSH2 0x2AC8 JUMP JUMPDEST PUSH1 0x40 MLOAD DUP1 SWAP2 SUB SWAP1 RETURN JUMPDEST PUSH2 0x1F3 PUSH1 0x4 DUP1 CALLDATASIZE SUB DUP2 ADD SWAP1 PUSH2 0x1EE SWAP2 SWAP1 PUSH2 0x2470 JUMP JUMPDEST PUSH2 0x13CE JUMP JUMPDEST STOP JUMPDEST PUSH2 0x20F PUSH1 0x4 DUP1 CALLDATASIZE SUB DUP2 ADD SWAP1 PUSH2 0x20A SWAP2 SWAP1 PUSH2 0x24D0 JUMP JUMPDEST PUSH2 0x182F JUMP JUMPDEST PUSH1 0x40 MLOAD PUSH2 0x220 SWAP6 SWAP5 SWAP4 SWAP3 SWAP2 SWAP1 PUSH2 0x2BD1 JUMP JUMPDEST PUSH1 0x40 MLOAD DUP1 SWAP2 SUB SWAP1 RETURN JUMPDEST PUSH2 0x243 PUSH1 0x4 DUP1 CALLDATASIZE SUB DUP2 ADD SWAP1 PUSH2 0x23E SWAP2 SWAP1 PUSH2 0x2470 JUMP JUMPDEST PUSH2 0x19AA JUMP JUMPDEST PUSH1 0x40 MLOAD PUSH2 0x252 SWAP4 SWAP3 SWAP2 SWAP1 PUSH2 0x2A91 JUMP JUMPDEST PUSH1 0x40 MLOAD DUP1 SWAP2 SUB SWAP1 RETURN JUMPDEST PUSH2 0x275 PUSH1 0x4 DUP1 CALLDATASIZE SUB DUP2 ADD SWAP1 PUSH2 0x270 SWAP2 SWAP1 PUSH2 0x24D0 JUMP JUMPDEST PUSH2 0x1B1B JUMP JUMPDEST STOP JUMPDEST PUSH2 0x291 PUSH1 0x4 DUP1 CALLDATASIZE SUB DUP2 ADD SWAP1 PUSH2 0x28C SWAP2 SWAP1 PUSH2 0x263E JUMP JUMPDEST PUSH2 0x215A JUMP JUMPDEST PUSH1 0x40 MLOAD PUSH2 0x2A0 SWAP4 SWAP3 SWAP2 SWAP1 PUSH2 0x2A91 JUMP JUMPDEST PUSH1 0x40 MLOAD DUP1 SWAP2 SUB SWAP1 RETURN JUMPDEST PUSH2 0x2C3 PUSH1 0x4 DUP1 CALLDATASIZE SUB DUP2 ADD SWAP1 PUSH2 0x2BE SWAP2 SWAP1 PUSH2 0x24D0 JUMP JUMPDEST PUSH2 0x21ED JUMP JUMPDEST PUSH1 0x40 MLOAD PUSH2 0x2D0 SWAP2 SWAP1 PUSH2 0x2B1B JUMP JUMPDEST PUSH1 0x40 MLOAD DUP1 SWAP2 SUB SWAP1 RETURN JUMPDEST PUSH2 0x2F3 PUSH1 0x4 DUP1 CALLDATASIZE SUB DUP2 ADD SWAP1 PUSH2 0x2EE SWAP2 SWAP1 PUSH2 0x24D0 JUMP JUMPDEST PUSH2 0x22A3 JUMP JUMPDEST PUSH1 0x40 MLOAD PUSH2 0x300 SWAP2 SWAP1 PUSH2 0x2A76 JUMP JUMPDEST PUSH1 0x40 MLOAD DUP1 SWAP2 SUB SWAP1 RETURN JUMPDEST PUSH1 0x3 DUP3 DUP1 MLOAD PUSH1 0x20 DUP2 ADD DUP3 ADD DUP1 MLOAD DUP5 DUP3 MSTORE PUSH1 0x20 DUP4 ADD PUSH1 0x20 DUP6 ADD KECCAK256 DUP2 DUP4 MSTORE DUP1 SWAP6 POP POP POP POP POP POP DUP2 DUP2 SLOAD DUP2 LT PUSH2 0x33B JUMPI PUSH1 0x0 DUP1 REVERT JUMPDEST SWAP1 PUSH1 0x0 MSTORE PUSH1 0x20 PUSH1 0x0 KECCAK256 ADD PUSH1 0x0 SWAP2 POP SWAP2 POP SWAP1 SLOAD SWAP1 PUSH2 0x100 EXP SWAP1 DIV PUSH20 0xFFFFFFFFFFFFFFFFFFFFFFFFFFFFFFFFFFFFFFFF AND DUP2 JUMP JUMPDEST PUSH1 0x0 DUP2 DUP1 MLOAD PUSH1 0x20 DUP2 ADD DUP3 ADD DUP1 MLOAD DUP5 DUP3 MSTORE PUSH1 0x20 DUP4 ADD PUSH1 0x20 DUP6 ADD KECCAK256 DUP2 DUP4 MSTORE DUP1 SWAP6 POP POP POP POP POP POP PUSH1 0x0 SWAP2 POP SWAP1 POP DUP1 PUSH1 0x0 ADD DUP1 SLOAD PUSH2 0x3A6 SWAP1 PUSH2 0x2FC3 JUMP JUMPDEST DUP1 PUSH1 0x1F ADD PUSH1 0x20 DUP1 SWAP2 DIV MUL PUSH1 0x20 ADD PUSH1 0x40 MLOAD SWAP1 DUP2 ADD PUSH1 0x40 MSTORE DUP1 SWAP3 SWAP2 SWAP1 DUP2 DUP2 MSTORE PUSH1 0x20 ADD DUP3 DUP1 SLOAD PUSH2 0x3D2 SWAP1 PUSH2 0x2FC3 JUMP JUMPDEST DUP1 ISZERO PUSH2 0x41F JUMPI DUP1 PUSH1 0x1F LT PUSH2 0x3F4 JUMPI PUSH2 0x100 DUP1 DUP4 SLOAD DIV MUL DUP4 MSTORE SWAP2 PUSH1 0x20 ADD SWAP2 PUSH2 0x41F JUMP JUMPDEST DUP3 ADD SWAP2 SWAP1 PUSH1 0x0 MSTORE PUSH1 0x20 PUSH1 0x0 KECCAK256 SWAP1 JUMPDEST DUP2 SLOAD DUP2 MSTORE SWAP1 PUSH1 0x1 ADD SWAP1 PUSH1 0x20 ADD DUP1 DUP4 GT PUSH2 0x402 JUMPI DUP3 SWAP1 SUB PUSH1 0x1F AND DUP3 ADD SWAP2 JUMPDEST POP POP POP POP POP SWAP1 DUP1 PUSH1 0x1 ADD PUSH1 0x0 SWAP1 SLOAD SWAP1 PUSH2 0x100 EXP SWAP1 DIV PUSH20 0xFFFFFFFFFFFFFFFFFFFFFFFFFFFFFFFFFFFFFFFF AND SWAP1 DUP1 PUSH1 0x2 ADD PUSH1 0x0 SWAP1 SLOAD SWAP1 PUSH2 0x100 EXP SWAP1 DIV PUSH20 0xFFFFFFFFFFFFFFFFFFFFFFFFFFFFFFFFFFFFFFFF AND SWAP1 DUP1 PUSH1 0x3 ADD SLOAD SWAP1 DUP1 PUSH1 0x4 ADD SLOAD SWAP1 DUP1 PUSH1 0x5 ADD SLOAD SWAP1 DUP1 PUSH1 0x6 ADD SLOAD SWAP1 DUP1 PUSH1 0x7 ADD PUSH1 0x0 SWAP1 SLOAD SWAP1 PUSH2 0x100 EXP SWAP1 DIV PUSH1 0xFF AND SWAP1 DUP1 PUSH1 0x8 ADD SLOAD SWAP1 POP DUP10 JUMP JUMPDEST PUSH1 0x0 PUSH20 0xFFFFFFFFFFFFFFFFFFFFFFFFFFFFFFFFFFFFFFFF AND PUSH1 0x0 DUP5 PUSH1 0x40 MLOAD PUSH2 0x4CE SWAP2 SWAP1 PUSH2 0x2A44 JUMP JUMPDEST SWAP1 DUP2 MSTORE PUSH1 0x20 ADD PUSH1 0x40 MLOAD DUP1 SWAP2 SUB SWAP1 KECCAK256 PUSH1 0x1 ADD PUSH1 0x0 SWAP1 SLOAD SWAP1 PUSH2 0x100 EXP SWAP1 DIV PUSH20 0xFFFFFFFFFFFFFFFFFFFFFFFFFFFFFFFFFFFFFFFF AND PUSH20 0xFFFFFFFFFFFFFFFFFFFFFFFFFFFFFFFFFFFFFFFF AND EQ PUSH2 0x556 JUMPI PUSH1 0x40 MLOAD PUSH32 0x8C379A000000000000000000000000000000000000000000000000000000000 DUP2 MSTORE PUSH1 0x4 ADD PUSH2 0x54D SWAP1 PUSH2 0x2C4B JUMP JUMPDEST PUSH1 0x40 MLOAD DUP1 SWAP2 SUB SWAP1 REVERT JUMPDEST PUSH1 0x0 PUSH1 0x40 MLOAD DUP1 PUSH2 0x120 ADD PUSH1 0x40 MSTORE DUP1 DUP6 DUP2 MSTORE PUSH1 0x20 ADD CALLER PUSH20 0xFFFFFFFFFFFFFFFFFFFFFFFFFFFFFFFFFFFFFFFF AND DUP2 MSTORE PUSH1 0x20 ADD ADDRESS PUSH20 0xFFFFFFFFFFFFFFFFFFFFFFFFFFFFFFFFFFFFFFFF AND DUP2 MSTORE PUSH1 0x20 ADD PUSH1 0x0 DUP2 MSTORE PUSH1 0x20 ADD DUP5 TIMESTAMP PUSH2 0x5B5 SWAP2 SWAP1 PUSH2 0x2E41 JUMP JUMPDEST DUP2 MSTORE PUSH1 0x20 ADD DUP4 DUP2 MSTORE PUSH1 0x20 ADD PUSH1 0x0 DUP2 MSTORE PUSH1 0x20 ADD PUSH1 0x0 ISZERO ISZERO DUP2 MSTORE PUSH1 0x20 ADD PUSH32 0x52656A6563746564000000000000000000000000000000000000000000000000 DUP2 MSTORE POP SWAP1 POP DUP1 PUSH1 0x0 DUP6 PUSH1 0x40 MLOAD PUSH2 0x607 SWAP2 SWAP1 PUSH2 0x2A44 JUMP JUMPDEST SWAP1 DUP2 MSTORE PUSH1 0x20 ADD PUSH1 0x40 MLOAD DUP1 SWAP2 SUB SWAP1 KECCAK256 PUSH1 0x0 DUP3 ADD MLOAD DUP2 PUSH1 0x0 ADD SWAP1 DUP1 MLOAD SWAP1 PUSH1 0x20 ADD SWAP1 PUSH2 0x631 SWAP3 SWAP2 SWAP1 PUSH2 0x22DD JUMP JUMPDEST POP PUSH1 0x20 DUP3 ADD MLOAD DUP2 PUSH1 0x1 ADD PUSH1 0x0 PUSH2 0x100 EXP DUP2 SLOAD DUP2 PUSH20 0xFFFFFFFFFFFFFFFFFFFFFFFFFFFFFFFFFFFFFFFF MUL NOT AND SWAP1 DUP4 PUSH20 0xFFFFFFFFFFFFFFFFFFFFFFFFFFFFFFFFFFFFFFFF AND MUL OR SWAP1 SSTORE POP PUSH1 0x40 DUP3 ADD MLOAD DUP2 PUSH1 0x2 ADD PUSH1 0x0 PUSH2 0x100 EXP DUP2 SLOAD DUP2 PUSH20 0xFFFFFFFFFFFFFFFFFFFFFFFFFFFFFFFFFFFFFFFF MUL NOT AND SWAP1 DUP4 PUSH20 0xFFFFFFFFFFFFFFFFFFFFFFFFFFFFFFFFFFFFFFFF AND MUL OR SWAP1 SSTORE POP PUSH1 0x60 DUP3 ADD MLOAD DUP2 PUSH1 0x3 ADD SSTORE PUSH1 0x80 DUP3 ADD MLOAD DUP2 PUSH1 0x4 ADD SSTORE PUSH1 0xA0 DUP3 ADD MLOAD DUP2 PUSH1 0x5 ADD SSTORE PUSH1 0xC0 DUP3 ADD MLOAD DUP2 PUSH1 0x6 ADD SSTORE PUSH1 0xE0 DUP3 ADD MLOAD DUP2 PUSH1 0x7 ADD PUSH1 0x0 PUSH2 0x100 EXP DUP2 SLOAD DUP2 PUSH1 0xFF MUL NOT AND SWAP1 DUP4 ISZERO ISZERO MUL OR SWAP1 SSTORE POP PUSH2 0x100 DUP3 ADD MLOAD DUP2 PUSH1 0x8 ADD SSTORE SWAP1 POP POP POP POP POP POP JUMP JUMPDEST PUSH1 0x0 DUP3 DUP3 PUSH1 0x40 MLOAD PUSH2 0x72E SWAP3 SWAP2 SWAP1 PUSH2 0x2A2B JUMP JUMPDEST SWAP1 DUP2 MSTORE PUSH1 0x20 ADD PUSH1 0x40 MLOAD DUP1 SWAP2 SUB SWAP1 KECCAK256 PUSH1 0x4 ADD SLOAD TIMESTAMP LT PUSH2 0x781 JUMPI PUSH1 0x40 MLOAD PUSH32 0x8C379A000000000000000000000000000000000000000000000000000000000 DUP2 MSTORE PUSH1 0x4 ADD PUSH2 0x778 SWAP1 PUSH2 0x2D4B JUMP JUMPDEST PUSH1 0x40 MLOAD DUP1 SWAP2 SUB SWAP1 REVERT JUMPDEST PUSH1 0x0 PUSH20 0xFFFFFFFFFFFFFFFFFFFFFFFFFFFFFFFFFFFFFFFF AND PUSH1 0x1 DUP4 DUP4 PUSH1 0x40 MLOAD PUSH2 0x7AB SWAP3 SWAP2 SWAP1 PUSH2 0x2A2B JUMP JUMPDEST SWAP1 DUP2 MSTORE PUSH1 0x20 ADD PUSH1 0x40 MLOAD DUP1 SWAP2 SUB SWAP1 KECCAK256 PUSH1 0x0 CALLER PUSH20 0xFFFFFFFFFFFFFFFFFFFFFFFFFFFFFFFFFFFFFFFF AND PUSH20 0xFFFFFFFFFFFFFFFFFFFFFFFFFFFFFFFFFFFFFFFF AND DUP2 MSTORE PUSH1 0x20 ADD SWAP1 DUP2 MSTORE PUSH1 0x20 ADD PUSH1 0x0 KECCAK256 PUSH1 0x0 ADD PUSH1 0x2 SWAP1 SLOAD SWAP1 PUSH2 0x100 EXP SWAP1 DIV PUSH20 0xFFFFFFFFFFFFFFFFFFFFFFFFFFFFFFFFFFFFFFFF AND PUSH20 0xFFFFFFFFFFFFFFFFFFFFFFFFFFFFFFFFFFFFFFFF AND EQ ISZERO PUSH2 0x871 JUMPI PUSH1 0x40 MLOAD PUSH32 0x8C379A000000000000000000000000000000000000000000000000000000000 DUP2 MSTORE PUSH1 0x4 ADD PUSH2 0x868 SWAP1 PUSH2 0x2CCB JUMP JUMPDEST PUSH1 0x40 MLOAD DUP1 SWAP2 SUB SWAP1 REVERT JUMPDEST PUSH1 0x1 DUP3 DUP3 PUSH1 0x40 MLOAD PUSH2 0x883 SWAP3 SWAP2 SWAP1 PUSH2 0x2A2B JUMP JUMPDEST SWAP1 DUP2 MSTORE PUSH1 0x20 ADD PUSH1 0x40 MLOAD DUP1 SWAP2 SUB SWAP1 KECCAK256 PUSH1 0x0 CALLER PUSH20 0xFFFFFFFFFFFFFFFFFFFFFFFFFFFFFFFFFFFFFFFF AND PUSH20 0xFFFFFFFFFFFFFFFFFFFFFFFFFFFFFFFFFFFFFFFF AND DUP2 MSTORE PUSH1 0x20 ADD SWAP1 DUP2 MSTORE PUSH1 0x20 ADD PUSH1 0x0 KECCAK256 PUSH1 0x0 ADD PUSH1 0x0 SWAP1 SLOAD SWAP1 PUSH2 0x100 EXP SWAP1 DIV PUSH1 0xFF AND ISZERO PUSH2 0x91F JUMPI PUSH1 0x40 MLOAD PUSH32 0x8C379A000000000000000000000000000000000000000000000000000000000 DUP2 MSTORE PUSH1 0x4 ADD PUSH2 0x916 SWAP1 PUSH2 0x2C8B JUMP JUMPDEST PUSH1 0x40 MLOAD DUP1 SWAP2 SUB SWAP1 REVERT JUMPDEST PUSH1 0x40 MLOAD DUP1 PUSH1 0x40 ADD PUSH1 0x40 MSTORE DUP1 PUSH1 0x9 DUP2 MSTORE PUSH1 0x20 ADD PUSH32 0x6920617070726F76650000000000000000000000000000000000000000000000 DUP2 MSTORE POP DUP1 MLOAD SWAP1 PUSH1 0x20 ADD KECCAK256 DUP4 DUP1 MLOAD SWAP1 PUSH1 0x20 ADD KECCAK256 EQ ISZERO PUSH2 0xC3A JUMPI PUSH1 0x1 DUP1 DUP4 DUP4 PUSH1 0x40 MLOAD PUSH2 0x97D SWAP3 SWAP2 SWAP1 PUSH2 0x2A2B JUMP JUMPDEST SWAP1 DUP2 MSTORE PUSH1 0x20 ADD PUSH1 0x40 MLOAD DUP1 SWAP2 SUB SWAP1 KECCAK256 PUSH1 0x0 CALLER PUSH20 0xFFFFFFFFFFFFFFFFFFFFFFFFFFFFFFFFFFFFFFFF AND PUSH20 0xFFFFFFFFFFFFFFFFFFFFFFFFFFFFFFFFFFFFFFFF AND DUP2 MSTORE PUSH1 0x20 ADD SWAP1 DUP2 MSTORE PUSH1 0x20 ADD PUSH1 0x0 KECCAK256 PUSH1 0x0 ADD PUSH1 0x0 PUSH2 0x100 EXP DUP2 SLOAD DUP2 PUSH1 0xFF MUL NOT AND SWAP1 DUP4 ISZERO ISZERO MUL OR SWAP1 SSTORE POP PUSH1 0x1 DUP1 DUP4 DUP4 PUSH1 0x40 MLOAD PUSH2 0x9F5 SWAP3 SWAP2 SWAP1 PUSH2 0x2A2B JUMP JUMPDEST SWAP1 DUP2 MSTORE PUSH1 0x20 ADD PUSH1 0x40 MLOAD DUP1 SWAP2 SUB SWAP1 KECCAK256 PUSH1 0x0 CALLER PUSH20 0xFFFFFFFFFFFFFFFFFFFFFFFFFFFFFFFFFFFFFFFF AND PUSH20 0xFFFFFFFFFFFFFFFFFFFFFFFFFFFFFFFFFFFFFFFF AND DUP2 MSTORE PUSH1 0x20 ADD SWAP1 DUP2 MSTORE PUSH1 0x20 ADD PUSH1 0x0 KECCAK256 PUSH1 0x0 ADD PUSH1 0x1 PUSH2 0x100 EXP DUP2 SLOAD DUP2 PUSH1 0xFF MUL NOT AND SWAP1 DUP4 ISZERO ISZERO MUL OR SWAP1 SSTORE POP PUSH1 0x1 PUSH1 0x0 DUP4 DUP4 PUSH1 0x40 MLOAD PUSH2 0xA6E SWAP3 SWAP2 SWAP1 PUSH2 0x2A2B JUMP JUMPDEST SWAP1 DUP2 MSTORE PUSH1 0x20 ADD PUSH1 0x40 MLOAD DUP1 SWAP2 SUB SWAP1 KECCAK256 PUSH1 0x6 ADD PUSH1 0x0 DUP3 DUP3 SLOAD PUSH2 0xA8E SWAP2 SWAP1 PUSH2 0x2E41 JUMP JUMPDEST SWAP3 POP POP DUP2 SWAP1 SSTORE POP PUSH1 0x1 PUSH1 0x0 DUP4 DUP4 PUSH1 0x40 MLOAD PUSH2 0xAA9 SWAP3 SWAP2 SWAP1 PUSH2 0x2A2B JUMP JUMPDEST SWAP1 DUP2 MSTORE PUSH1 0x20 ADD PUSH1 0x40 MLOAD DUP1 SWAP2 SUB SWAP1 KECCAK256 PUSH1 0x3 ADD PUSH1 0x0 DUP3 DUP3 SLOAD PUSH2 0xAC9 SWAP2 SWAP1 PUSH2 0x2E41 JUMP JUMPDEST SWAP3 POP POP DUP2 SWAP1 SSTORE POP PUSH1 0x2 DUP3 DUP3 PUSH1 0x40 MLOAD PUSH2 0xAE2 SWAP3 SWAP2 SWAP1 PUSH2 0x2A2B JUMP JUMPDEST SWAP1 DUP2 MSTORE PUSH1 0x20 ADD PUSH1 0x40 MLOAD DUP1 SWAP2 SUB SWAP1 KECCAK256 PUSH1 0x1 DUP4 DUP4 PUSH1 0x40 MLOAD PUSH2 0xB02 SWAP3 SWAP2 SWAP1 PUSH2 0x2A2B JUMP JUMPDEST SWAP1 DUP2 MSTORE PUSH1 0x20 ADD PUSH1 0x40 MLOAD DUP1 SWAP2 SUB SWAP1 KECCAK256 PUSH1 0x0 CALLER PUSH20 0xFFFFFFFFFFFFFFFFFFFFFFFFFFFFFFFFFFFFFFFF AND PUSH20 0xFFFFFFFFFFFFFFFFFFFFFFFFFFFFFFFFFFFFFFFF AND DUP2 MSTORE PUSH1 0x20 ADD SWAP1 DUP2 MSTORE PUSH1 0x20 ADD PUSH1 0x0 KECCAK256 SWAP1 DUP1 PUSH1 0x1 DUP2 SLOAD ADD DUP1 DUP3 SSTORE DUP1 SWAP2 POP POP PUSH1 0x1 SWAP1 SUB SWAP1 PUSH1 0x0 MSTORE PUSH1 0x20 PUSH1 0x0 KECCAK256 ADD PUSH1 0x0 SWAP1 SWAP2 SWAP1 SWAP2 SWAP1 SWAP2 POP PUSH1 0x0 DUP3 ADD PUSH1 0x0 SWAP1 SLOAD SWAP1 PUSH2 0x100 EXP SWAP1 DIV PUSH1 0xFF AND DUP2 PUSH1 0x0 ADD PUSH1 0x0 PUSH2 0x100 EXP DUP2 SLOAD DUP2 PUSH1 0xFF MUL NOT AND SWAP1 DUP4 ISZERO ISZERO MUL OR SWAP1 SSTORE POP PUSH1 0x0 DUP3 ADD PUSH1 0x1 SWAP1 SLOAD SWAP1 PUSH2 0x100 EXP SWAP1 DIV PUSH1 0xFF AND DUP2 PUSH1 0x0 ADD PUSH1 0x1 PUSH2 0x100 EXP DUP2 SLOAD DUP2 PUSH1 0xFF MUL NOT AND SWAP1 DUP4 ISZERO ISZERO MUL OR SWAP1 SSTORE POP PUSH1 0x0 DUP3 ADD PUSH1 0x2 SWAP1 SLOAD SWAP1 PUSH2 0x100 EXP SWAP1 DIV PUSH20 0xFFFFFFFFFFFFFFFFFFFFFFFFFFFFFFFFFFFFFFFF AND DUP2 PUSH1 0x0 ADD PUSH1 0x2 PUSH2 0x100 EXP DUP2 SLOAD DUP2 PUSH20 0xFFFFFFFFFFFFFFFFFFFFFFFFFFFFFFFFFFFFFFFF MUL NOT AND SWAP1 DUP4 PUSH20 0xFFFFFFFFFFFFFFFFFFFFFFFFFFFFFFFFFFFFFFFF AND MUL OR SWAP1 SSTORE POP POP POP PUSH2 0x10BC JUMP JUMPDEST PUSH1 0x40 MLOAD DUP1 PUSH1 0x40 ADD PUSH1 0x40 MSTORE DUP1 PUSH1 0xC DUP2 MSTORE PUSH1 0x20 ADD PUSH32 0x6920646973617070726F76650000000000000000000000000000000000000000 DUP2 MSTORE POP DUP1 MLOAD SWAP1 PUSH1 0x20 ADD KECCAK256 DUP4 DUP1 MLOAD SWAP1 PUSH1 0x20 ADD KECCAK256 EQ ISZERO PUSH2 0xEA2 JUMPI PUSH1 0x1 DUP1 DUP4 DUP4 PUSH1 0x40 MLOAD PUSH2 0xC98 SWAP3 SWAP2 SWAP1 PUSH2 0x2A2B JUMP JUMPDEST SWAP1 DUP2 MSTORE PUSH1 0x20 ADD PUSH1 0x40 MLOAD DUP1 SWAP2 SUB SWAP1 KECCAK256 PUSH1 0x0 CALLER PUSH20 0xFFFFFFFFFFFFFFFFFFFFFFFFFFFFFFFFFFFFFFFF AND PUSH20 0xFFFFFFFFFFFFFFFFFFFFFFFFFFFFFFFFFFFFFFFF AND DUP2 MSTORE PUSH1 0x20 ADD SWAP1 DUP2 MSTORE PUSH1 0x20 ADD PUSH1 0x0 KECCAK256 PUSH1 0x0 ADD PUSH1 0x0 PUSH2 0x100 EXP DUP2 SLOAD DUP2 PUSH1 0xFF MUL NOT AND SWAP1 DUP4 ISZERO ISZERO MUL OR SWAP1 SSTORE POP PUSH1 0x1 PUSH1 0x0 DUP4 DUP4 PUSH1 0x40 MLOAD PUSH2 0xD11 SWAP3 SWAP2 SWAP1 PUSH2 0x2A2B JUMP JUMPDEST SWAP1 DUP2 MSTORE PUSH1 0x20 ADD PUSH1 0x40 MLOAD DUP1 SWAP2 SUB SWAP1 KECCAK256 PUSH1 0x3 ADD PUSH1 0x0 DUP3 DUP3 SLOAD PUSH2 0xD31 SWAP2 SWAP1 PUSH2 0x2E41 JUMP JUMPDEST SWAP3 POP POP DUP2 SWAP1 SSTORE POP PUSH1 0x2 DUP3 DUP3 PUSH1 0x40 MLOAD PUSH2 0xD4A SWAP3 SWAP2 SWAP1 PUSH2 0x2A2B JUMP JUMPDEST SWAP1 DUP2 MSTORE PUSH1 0x20 ADD PUSH1 0x40 MLOAD DUP1 SWAP2 SUB SWAP1 KECCAK256 PUSH1 0x1 DUP4 DUP4 PUSH1 0x40 MLOAD PUSH2 0xD6A SWAP3 SWAP2 SWAP1 PUSH2 0x2A2B JUMP JUMPDEST SWAP1 DUP2 MSTORE PUSH1 0x20 ADD PUSH1 0x40 MLOAD DUP1 SWAP2 SUB SWAP1 KECCAK256 PUSH1 0x0 CALLER PUSH20 0xFFFFFFFFFFFFFFFFFFFFFFFFFFFFFFFFFFFFFFFF AND PUSH20 0xFFFFFFFFFFFFFFFFFFFFFFFFFFFFFFFFFFFFFFFF AND DUP2 MSTORE PUSH1 0x20 ADD SWAP1 DUP2 MSTORE PUSH1 0x20 ADD PUSH1 0x0 KECCAK256 SWAP1 DUP1 PUSH1 0x1 DUP2 SLOAD ADD DUP1 DUP3 SSTORE DUP1 SWAP2 POP POP PUSH1 0x1 SWAP1 SUB SWAP1 PUSH1 0x0 MSTORE PUSH1 0x20 PUSH1 0x0 KECCAK256 ADD PUSH1 0x0 SWAP1 SWAP2 SWAP1 SWAP2 SWAP1 SWAP2 POP PUSH1 0x0 DUP3 ADD PUSH1 0x0 SWAP1 SLOAD SWAP1 PUSH2 0x100 EXP SWAP1 DIV PUSH1 0xFF AND DUP2 PUSH1 0x0 ADD PUSH1 0x0 PUSH2 0x100 EXP DUP2 SLOAD DUP2 PUSH1 0xFF MUL NOT AND SWAP1 DUP4 ISZERO ISZERO MUL OR SWAP1 SSTORE POP PUSH1 0x0 DUP3 ADD PUSH1 0x1 SWAP1 SLOAD SWAP1 PUSH2 0x100 EXP SWAP1 DIV PUSH1 0xFF AND DUP2 PUSH1 0x0 ADD PUSH1 0x1 PUSH2 0x100 EXP DUP2 SLOAD DUP2 PUSH1 0xFF MUL NOT AND SWAP1 DUP4 ISZERO ISZERO MUL OR SWAP1 SSTORE POP PUSH1 0x0 DUP3 ADD PUSH1 0x2 SWAP1 SLOAD SWAP1 PUSH2 0x100 EXP SWAP1 DIV PUSH20 0xFFFFFFFFFFFFFFFFFFFFFFFFFFFFFFFFFFFFFFFF AND DUP2 PUSH1 0x0 ADD PUSH1 0x2 PUSH2 0x100 EXP DUP2 SLOAD DUP2 PUSH20 0xFFFFFFFFFFFFFFFFFFFFFFFFFFFFFFFFFFFFFFFF MUL NOT AND SWAP1 DUP4 PUSH20 0xFFFFFFFFFFFFFFFFFFFFFFFFFFFFFFFFFFFFFFFF AND MUL OR SWAP1 SSTORE POP POP POP PUSH2 0x10BB JUMP JUMPDEST PUSH1 0x1 DUP1 DUP4 DUP4 PUSH1 0x40 MLOAD PUSH2 0xEB5 SWAP3 SWAP2 SWAP1 PUSH2 0x2A2B JUMP JUMPDEST SWAP1 DUP2 MSTORE PUSH1 0x20 ADD PUSH1 0x40 MLOAD DUP1 SWAP2 SUB SWAP1 KECCAK256 PUSH1 0x0 CALLER PUSH20 0xFFFFFFFFFFFFFFFFFFFFFFFFFFFFFFFFFFFFFFFF AND PUSH20 0xFFFFFFFFFFFFFFFFFFFFFFFFFFFFFFFFFFFFFFFF AND DUP2 MSTORE PUSH1 0x20 ADD SWAP1 DUP2 MSTORE PUSH1 0x20 ADD PUSH1 0x0 KECCAK256 PUSH1 0x0 ADD PUSH1 0x0 PUSH2 0x100 EXP DUP2 SLOAD DUP2 PUSH1 0xFF MUL NOT AND SWAP1 DUP4 ISZERO ISZERO MUL OR SWAP1 SSTORE POP PUSH1 0x1 PUSH1 0x0 DUP4 DUP4 PUSH1 0x40 MLOAD PUSH2 0xF2E SWAP3 SWAP2 SWAP1 PUSH2 0x2A2B JUMP JUMPDEST SWAP1 DUP2 MSTORE PUSH1 0x20 ADD PUSH1 0x40 MLOAD DUP1 SWAP2 SUB SWAP1 KECCAK256 PUSH1 0x3 ADD PUSH1 0x0 DUP3 DUP3 SLOAD PUSH2 0xF4E SWAP2 SWAP1 PUSH2 0x2E41 JUMP JUMPDEST SWAP3 POP POP DUP2 SWAP1 SSTORE POP PUSH1 0x2 DUP3 DUP3 PUSH1 0x40 MLOAD PUSH2 0xF67 SWAP3 SWAP2 SWAP1 PUSH2 0x2A2B JUMP JUMPDEST SWAP1 DUP2 MSTORE PUSH1 0x20 ADD PUSH1 0x40 MLOAD DUP1 SWAP2 SUB SWAP1 KECCAK256 PUSH1 0x1 DUP4 DUP4 PUSH1 0x40 MLOAD PUSH2 0xF87 SWAP3 SWAP2 SWAP1 PUSH2 0x2A2B JUMP JUMPDEST SWAP1 DUP2 MSTORE PUSH1 0x20 ADD PUSH1 0x40 MLOAD DUP1 SWAP2 SUB SWAP1 KECCAK256 PUSH1 0x0 CALLER PUSH20 0xFFFFFFFFFFFFFFFFFFFFFFFFFFFFFFFFFFFFFFFF AND PUSH20 0xFFFFFFFFFFFFFFFFFFFFFFFFFFFFFFFFFFFFFFFF AND DUP2 MSTORE PUSH1 0x20 ADD SWAP1 DUP2 MSTORE PUSH1 0x20 ADD PUSH1 0x0 KECCAK256 SWAP1 DUP1 PUSH1 0x1 DUP2 SLOAD ADD DUP1 DUP3 SSTORE DUP1 SWAP2 POP POP PUSH1 0x1 SWAP1 SUB SWAP1 PUSH1 0x0 MSTORE PUSH1 0x20 PUSH1 0x0 KECCAK256 ADD PUSH1 0x0 SWAP1 SWAP2 SWAP1 SWAP2 SWAP1 SWAP2 POP PUSH1 0x0 DUP3 ADD PUSH1 0x0 SWAP1 SLOAD SWAP1 PUSH2 0x100 EXP SWAP1 DIV PUSH1 0xFF AND DUP2 PUSH1 0x0 ADD PUSH1 0x0 PUSH2 0x100 EXP DUP2 SLOAD DUP2 PUSH1 0xFF MUL NOT AND SWAP1 DUP4 ISZERO ISZERO MUL OR SWAP1 SSTORE POP PUSH1 0x0 DUP3 ADD PUSH1 0x1 SWAP1 SLOAD SWAP1 PUSH2 0x100 EXP SWAP1 DIV PUSH1 0xFF AND DUP2 PUSH1 0x0 ADD PUSH1 0x1 PUSH2 0x100 EXP DUP2 SLOAD DUP2 PUSH1 0xFF MUL NOT AND SWAP1 DUP4 ISZERO ISZERO MUL OR SWAP1 SSTORE POP PUSH1 0x0 DUP3 ADD PUSH1 0x2 SWAP1 SLOAD SWAP1 PUSH2 0x100 EXP SWAP1 DIV PUSH20 0xFFFFFFFFFFFFFFFFFFFFFFFFFFFFFFFFFFFFFFFF AND DUP2 PUSH1 0x0 ADD PUSH1 0x2 PUSH2 0x100 EXP DUP2 SLOAD DUP2 PUSH20 0xFFFFFFFFFFFFFFFFFFFFFFFFFFFFFFFFFFFFFFFF MUL NOT AND SWAP1 DUP4 PUSH20 0xFFFFFFFFFFFFFFFFFFFFFFFFFFFFFFFFFFFFFFFF AND MUL OR SWAP1 SSTORE POP POP POP JUMPDEST JUMPDEST POP POP POP JUMP JUMPDEST PUSH1 0x1 DUP3 DUP1 MLOAD PUSH1 0x20 DUP2 ADD DUP3 ADD DUP1 MLOAD DUP5 DUP3 MSTORE PUSH1 0x20 DUP4 ADD PUSH1 0x20 DUP6 ADD KECCAK256 DUP2 DUP4 MSTORE DUP1 SWAP6 POP POP POP POP POP POP PUSH1 0x20 MSTORE DUP1 PUSH1 0x0 MSTORE PUSH1 0x40 PUSH1 0x0 KECCAK256 PUSH1 0x0 SWAP2 POP SWAP2 POP POP DUP1 PUSH1 0x0 ADD PUSH1 0x0 SWAP1 SLOAD SWAP1 PUSH2 0x100 EXP SWAP1 DIV PUSH1 0xFF AND SWAP1 DUP1 PUSH1 0x0 ADD PUSH1 0x1 SWAP1 SLOAD SWAP1 PUSH2 0x100 EXP SWAP1 DIV PUSH1 0xFF AND SWAP1 DUP1 PUSH1 0x0 ADD PUSH1 0x2 SWAP1 SLOAD SWAP1 PUSH2 0x100 EXP SWAP1 DIV PUSH20 0xFFFFFFFFFFFFFFFFFFFFFFFFFFFFFFFFFFFFFFFF AND SWAP1 POP DUP4 JUMP JUMPDEST PUSH1 0x0 PUSH1 0x60 PUSH1 0x0 PUSH1 0x60 PUSH1 0x0 DUP7 DUP7 PUSH1 0x40 MLOAD PUSH2 0x1162 SWAP3 SWAP2 SWAP1 PUSH2 0x2A2B JUMP JUMPDEST SWAP1 DUP2 MSTORE PUSH1 0x20 ADD PUSH1 0x40 MLOAD DUP1 SWAP2 SUB SWAP1 KECCAK256 PUSH1 0x4 ADD SLOAD TIMESTAMP LT ISZERO PUSH2 0x11B6 JUMPI PUSH1 0x40 MLOAD PUSH32 0x8C379A000000000000000000000000000000000000000000000000000000000 DUP2 MSTORE PUSH1 0x4 ADD PUSH2 0x11AD SWAP1 PUSH2 0x2D2B JUMP JUMPDEST PUSH1 0x40 MLOAD DUP1 SWAP2 SUB SWAP1 REVERT JUMPDEST PUSH1 0x0 PUSH1 0x2 DUP8 DUP8 PUSH1 0x40 MLOAD PUSH2 0x11CA SWAP3 SWAP2 SWAP1 PUSH2 0x2A2B JUMP JUMPDEST SWAP1 DUP2 MSTORE PUSH1 0x20 ADD PUSH1 0x40 MLOAD DUP1 SWAP2 SUB SWAP1 KECCAK256 DUP1 SLOAD DUP1 PUSH1 0x20 MUL PUSH1 0x20 ADD PUSH1 0x40 MLOAD SWAP1 DUP2 ADD PUSH1 0x40 MSTORE DUP1 SWAP3 SWAP2 SWAP1 DUP2 DUP2 MSTORE PUSH1 0x20 ADD PUSH1 0x0 SWAP1 JUMPDEST DUP3 DUP3 LT ISZERO PUSH2 0x12B2 JUMPI DUP4 DUP3 SWAP1 PUSH1 0x0 MSTORE PUSH1 0x20 PUSH1 0x0 KECCAK256 ADD PUSH1 0x40 MLOAD DUP1 PUSH1 0x60 ADD PUSH1 0x40 MSTORE SWAP1 DUP2 PUSH1 0x0 DUP3 ADD PUSH1 0x0 SWAP1 SLOAD SWAP1 PUSH2 0x100 EXP SWAP1 DIV PUSH1 0xFF AND ISZERO ISZERO ISZERO ISZERO DUP2 MSTORE PUSH1 0x20 ADD PUSH1 0x0 DUP3 ADD PUSH1 0x1 SWAP1 SLOAD SWAP1 PUSH2 0x100 EXP SWAP1 DIV PUSH1 0xFF AND ISZERO ISZERO ISZERO ISZERO DUP2 MSTORE PUSH1 0x20 ADD PUSH1 0x0 DUP3 ADD PUSH1 0x2 SWAP1 SLOAD SWAP1 PUSH2 0x100 EXP SWAP1 DIV PUSH20 0xFFFFFFFFFFFFFFFFFFFFFFFFFFFFFFFFFFFFFFFF AND PUSH20 0xFFFFFFFFFFFFFFFFFFFFFFFFFFFFFFFFFFFFFFFF AND PUSH20 0xFFFFFFFFFFFFFFFFFFFFFFFFFFFFFFFFFFFFFFFF AND DUP2 MSTORE POP POP DUP2 MSTORE PUSH1 0x20 ADD SWAP1 PUSH1 0x1 ADD SWAP1 PUSH2 0x11F8 JUMP JUMPDEST POP POP POP POP SWAP1 POP PUSH1 0x0 DUP1 DUP9 DUP9 PUSH1 0x40 MLOAD PUSH2 0x12CB SWAP3 SWAP2 SWAP1 PUSH2 0x2A2B JUMP JUMPDEST SWAP1 DUP2 MSTORE PUSH1 0x20 ADD PUSH1 0x40 MLOAD DUP1 SWAP2 SUB SWAP1 KECCAK256 PUSH1 0x0 ADD DUP1 SLOAD PUSH2 0x12E7 SWAP1 PUSH2 0x2FC3 JUMP JUMPDEST DUP1 PUSH1 0x1F ADD PUSH1 0x20 DUP1 SWAP2 DIV MUL PUSH1 0x20 ADD PUSH1 0x40 MLOAD SWAP1 DUP2 ADD PUSH1 0x40 MSTORE DUP1 SWAP3 SWAP2 SWAP1 DUP2 DUP2 MSTORE PUSH1 0x20 ADD DUP3 DUP1 SLOAD PUSH2 0x1313 SWAP1 PUSH2 0x2FC3 JUMP JUMPDEST DUP1 ISZERO PUSH2 0x1360 JUMPI DUP1 PUSH1 0x1F LT PUSH2 0x1335 JUMPI PUSH2 0x100 DUP1 DUP4 SLOAD DIV MUL DUP4 MSTORE SWAP2 PUSH1 0x20 ADD SWAP2 PUSH2 0x1360 JUMP JUMPDEST DUP3 ADD SWAP2 SWAP1 PUSH1 0x0 MSTORE PUSH1 0x20 PUSH1 0x0 KECCAK256 SWAP1 JUMPDEST DUP2 SLOAD DUP2 MSTORE SWAP1 PUSH1 0x1 ADD SWAP1 PUSH1 0x20 ADD DUP1 DUP4 GT PUSH2 0x1343 JUMPI DUP3 SWAP1 SUB PUSH1 0x1F AND DUP3 ADD SWAP2 JUMPDEST POP POP POP POP POP SWAP1 POP PUSH1 0x0 DUP1 DUP10 DUP10 PUSH1 0x40 MLOAD PUSH2 0x137A SWAP3 SWAP2 SWAP1 PUSH2 0x2A2B JUMP JUMPDEST SWAP1 DUP2 MSTORE PUSH1 0x20 ADD PUSH1 0x40 MLOAD DUP1 SWAP2 SUB SWAP1 KECCAK256 PUSH1 0x8 ADD SLOAD SWAP1 POP PUSH1 0x0 DUP1 DUP11 DUP11 PUSH1 0x40 MLOAD PUSH2 0x13A1 SWAP3 SWAP2 SWAP1 PUSH2 0x2A2B JUMP JUMPDEST SWAP1 DUP2 MSTORE PUSH1 0x20 ADD PUSH1 0x40 MLOAD DUP1 SWAP2 SUB SWAP1 KECCAK256 PUSH1 0x3 ADD SLOAD SWAP1 POP DUP2 DUP4 DUP3 DUP7 SWAP8 POP SWAP8 POP SWAP8 POP SWAP8 POP POP POP POP POP SWAP3 SWAP6 SWAP2 SWAP5 POP SWAP3 POP JUMP JUMPDEST PUSH1 0x0 DUP3 DUP3 PUSH1 0x40 MLOAD PUSH2 0x13E0 SWAP3 SWAP2 SWAP1 PUSH2 0x2A2B JUMP JUMPDEST SWAP1 DUP2 MSTORE PUSH1 0x20 ADD PUSH1 0x40 MLOAD DUP1 SWAP2 SUB SWAP1 KECCAK256 PUSH1 0x1 ADD PUSH1 0x0 SWAP1 SLOAD SWAP1 PUSH2 0x100 EXP SWAP1 DIV PUSH20 0xFFFFFFFFFFFFFFFFFFFFFFFFFFFFFFFFFFFFFFFF AND PUSH20 0xFFFFFFFFFFFFFFFFFFFFFFFFFFFFFFFFFFFFFFFF AND CALLER PUSH20 0xFFFFFFFFFFFFFFFFFFFFFFFFFFFFFFFFFFFFFFFF AND EQ PUSH2 0x147F JUMPI PUSH1 0x40 MLOAD PUSH32 0x8C379A000000000000000000000000000000000000000000000000000000000 DUP2 MSTORE PUSH1 0x4 ADD PUSH2 0x1476 SWAP1 PUSH2 0x2D0B JUMP JUMPDEST PUSH1 0x40 MLOAD DUP1 SWAP2 SUB SWAP1 REVERT JUMPDEST PUSH1 0x0 DUP3 DUP3 PUSH1 0x40 MLOAD PUSH2 0x1491 SWAP3 SWAP2 SWAP1 PUSH2 0x2A2B JUMP JUMPDEST SWAP1 DUP2 MSTORE PUSH1 0x20 ADD PUSH1 0x40 MLOAD DUP1 SWAP2 SUB SWAP1 KECCAK256 PUSH1 0x1 ADD PUSH1 0x0 SWAP1 SLOAD SWAP1 PUSH2 0x100 EXP SWAP1 DIV PUSH20 0xFFFFFFFFFFFFFFFFFFFFFFFFFFFFFFFFFFFFFFFF AND PUSH20 0xFFFFFFFFFFFFFFFFFFFFFFFFFFFFFFFFFFFFFFFF AND DUP4 PUSH20 0xFFFFFFFFFFFFFFFFFFFFFFFFFFFFFFFFFFFFFFFF AND EQ ISZERO PUSH2 0x1531 JUMPI PUSH1 0x40 MLOAD PUSH32 0x8C379A000000000000000000000000000000000000000000000000000000000 DUP2 MSTORE PUSH1 0x4 ADD PUSH2 0x1528 SWAP1 PUSH2 0x2CAB JUMP JUMPDEST PUSH1 0x40 MLOAD DUP1 SWAP2 SUB SWAP1 REVERT JUMPDEST PUSH1 0x0 PUSH20 0xFFFFFFFFFFFFFFFFFFFFFFFFFFFFFFFFFFFFFFFF AND PUSH1 0x1 DUP4 DUP4 PUSH1 0x40 MLOAD PUSH2 0x155B SWAP3 SWAP2 SWAP1 PUSH2 0x2A2B JUMP JUMPDEST SWAP1 DUP2 MSTORE PUSH1 0x20 ADD PUSH1 0x40 MLOAD DUP1 SWAP2 SUB SWAP1 KECCAK256 PUSH1 0x0 DUP6 PUSH20 0xFFFFFFFFFFFFFFFFFFFFFFFFFFFFFFFFFFFFFFFF AND PUSH20 0xFFFFFFFFFFFFFFFFFFFFFFFFFFFFFFFFFFFFFFFF AND DUP2 MSTORE PUSH1 0x20 ADD SWAP1 DUP2 MSTORE PUSH1 0x20 ADD PUSH1 0x0 KECCAK256 PUSH1 0x0 ADD PUSH1 0x2 SWAP1 SLOAD SWAP1 PUSH2 0x100 EXP SWAP1 DIV PUSH20 0xFFFFFFFFFFFFFFFFFFFFFFFFFFFFFFFFFFFFFFFF AND PUSH20 0xFFFFFFFFFFFFFFFFFFFFFFFFFFFFFFFFFFFFFFFF AND EQ PUSH2 0x1620 JUMPI PUSH1 0x40 MLOAD PUSH32 0x8C379A000000000000000000000000000000000000000000000000000000000 DUP2 MSTORE PUSH1 0x4 ADD PUSH2 0x1617 SWAP1 PUSH2 0x2C2B JUMP JUMPDEST PUSH1 0x40 MLOAD DUP1 SWAP2 SUB SWAP1 REVERT JUMPDEST PUSH1 0x0 DUP3 DUP3 PUSH1 0x40 MLOAD PUSH2 0x1632 SWAP3 SWAP2 SWAP1 PUSH2 0x2A2B JUMP JUMPDEST SWAP1 DUP2 MSTORE PUSH1 0x20 ADD PUSH1 0x40 MLOAD DUP1 SWAP2 SUB SWAP1 KECCAK256 PUSH1 0x4 ADD SLOAD TIMESTAMP LT PUSH2 0x1685 JUMPI PUSH1 0x40 MLOAD PUSH32 0x8C379A000000000000000000000000000000000000000000000000000000000 DUP2 MSTORE PUSH1 0x4 ADD PUSH2 0x167C SWAP1 PUSH2 0x2CEB JUMP JUMPDEST PUSH1 0x40 MLOAD DUP1 SWAP2 SUB SWAP1 REVERT JUMPDEST PUSH1 0x0 PUSH1 0x40 MLOAD DUP1 PUSH1 0x60 ADD PUSH1 0x40 MSTORE DUP1 PUSH1 0x0 ISZERO ISZERO DUP2 MSTORE PUSH1 0x20 ADD PUSH1 0x0 ISZERO ISZERO DUP2 MSTORE PUSH1 0x20 ADD DUP6 PUSH20 0xFFFFFFFFFFFFFFFFFFFFFFFFFFFFFFFFFFFFFFFF AND DUP2 MSTORE POP SWAP1 POP DUP1 PUSH1 0x1 DUP5 DUP5 PUSH1 0x40 MLOAD PUSH2 0x16D3 SWAP3 SWAP2 SWAP1 PUSH2 0x2A2B JUMP JUMPDEST SWAP1 DUP2 MSTORE PUSH1 0x20 ADD PUSH1 0x40 MLOAD DUP1 SWAP2 SUB SWAP1 KECCAK256 PUSH1 0x0 DUP7 PUSH20 0xFFFFFFFFFFFFFFFFFFFFFFFFFFFFFFFFFFFFFFFF AND PUSH20 0xFFFFFFFFFFFFFFFFFFFFFFFFFFFFFFFFFFFFFFFF AND DUP2 MSTORE PUSH1 0x20 ADD SWAP1 DUP2 MSTORE PUSH1 0x20 ADD PUSH1 0x0 KECCAK256 PUSH1 0x0 DUP3 ADD MLOAD DUP2 PUSH1 0x0 ADD PUSH1 0x0 PUSH2 0x100 EXP DUP2 SLOAD DUP2 PUSH1 0xFF MUL NOT AND SWAP1 DUP4 ISZERO ISZERO MUL OR SWAP1 SSTORE POP PUSH1 0x20 DUP3 ADD MLOAD DUP2 PUSH1 0x0 ADD PUSH1 0x1 PUSH2 0x100 EXP DUP2 SLOAD DUP2 PUSH1 0xFF MUL NOT AND SWAP1 DUP4 ISZERO ISZERO MUL OR SWAP1 SSTORE POP PUSH1 0x40 DUP3 ADD MLOAD DUP2 PUSH1 0x0 ADD PUSH1 0x2 PUSH2 0x100 EXP DUP2 SLOAD DUP2 PUSH20 0xFFFFFFFFFFFFFFFFFFFFFFFFFFFFFFFFFFFFFFFF MUL NOT AND SWAP1 DUP4 PUSH20 0xFFFFFFFFFFFFFFFFFFFFFFFFFFFFFFFFFFFFFFFF AND MUL OR SWAP1 SSTORE POP SWAP1 POP POP PUSH1 0x3 DUP4 DUP4 PUSH1 0x40 MLOAD PUSH2 0x17BA SWAP3 SWAP2 SWAP1 PUSH2 0x2A2B JUMP JUMPDEST SWAP1 DUP2 MSTORE PUSH1 0x20 ADD PUSH1 0x40 MLOAD DUP1 SWAP2 SUB SWAP1 KECCAK256 DUP5 SWAP1 DUP1 PUSH1 0x1 DUP2 SLOAD ADD DUP1 DUP3 SSTORE DUP1 SWAP2 POP POP PUSH1 0x1 SWAP1 SUB SWAP1 PUSH1 0x0 MSTORE PUSH1 0x20 PUSH1 0x0 KECCAK256 ADD PUSH1 0x0 SWAP1 SWAP2 SWAP1 SWAP2 SWAP1 SWAP2 PUSH2 0x100 EXP DUP2 SLOAD DUP2 PUSH20 0xFFFFFFFFFFFFFFFFFFFFFFFFFFFFFFFFFFFFFFFF MUL NOT AND SWAP1 DUP4 PUSH20 0xFFFFFFFFFFFFFFFFFFFFFFFFFFFFFFFFFFFFFFFF AND MUL OR SWAP1 SSTORE POP POP POP POP POP JUMP JUMPDEST PUSH1 0x60 PUSH1 0x0 DUP1 PUSH1 0x0 DUP1 PUSH1 0x0 DUP8 DUP8 PUSH1 0x40 MLOAD PUSH2 0x1849 SWAP3 SWAP2 SWAP1 PUSH2 0x2A2B JUMP JUMPDEST SWAP1 DUP2 MSTORE PUSH1 0x20 ADD PUSH1 0x40 MLOAD DUP1 SWAP2 SUB SWAP1 KECCAK256 PUSH1 0x0 ADD PUSH1 0x0 DUP9 DUP9 PUSH1 0x40 MLOAD PUSH2 0x186C SWAP3 SWAP2 SWAP1 PUSH2 0x2A2B JUMP JUMPDEST SWAP1 DUP2 MSTORE PUSH1 0x20 ADD PUSH1 0x40 MLOAD DUP1 SWAP2 SUB SWAP1 KECCAK256 PUSH1 0x4 ADD SLOAD PUSH1 0x0 DUP10 DUP10 PUSH1 0x40 MLOAD PUSH2 0x1890 SWAP3 SWAP2 SWAP1 PUSH2 0x2A2B JUMP JUMPDEST SWAP1 DUP2 MSTORE PUSH1 0x20 ADD PUSH1 0x40 MLOAD DUP1 SWAP2 SUB SWAP1 KECCAK256 PUSH1 0x1 ADD PUSH1 0x0 SWAP1 SLOAD SWAP1 PUSH2 0x100 EXP SWAP1 DIV PUSH20 0xFFFFFFFFFFFFFFFFFFFFFFFFFFFFFFFFFFFFFFFF AND PUSH1 0x0 DUP11 DUP11 PUSH1 0x40 MLOAD PUSH2 0x18D4 SWAP3 SWAP2 SWAP1 PUSH2 0x2A2B JUMP JUMPDEST SWAP1 DUP2 MSTORE PUSH1 0x20 ADD PUSH1 0x40 MLOAD DUP1 SWAP2 SUB SWAP1 KECCAK256 PUSH1 0x5 ADD SLOAD PUSH1 0x0 DUP12 DUP12 PUSH1 0x40 MLOAD PUSH2 0x18F8 SWAP3 SWAP2 SWAP1 PUSH2 0x2A2B JUMP JUMPDEST SWAP1 DUP2 MSTORE PUSH1 0x20 ADD PUSH1 0x40 MLOAD DUP1 SWAP2 SUB SWAP1 KECCAK256 PUSH1 0x6 ADD SLOAD DUP5 DUP1 SLOAD PUSH2 0x1916 SWAP1 PUSH2 0x2FC3 JUMP JUMPDEST DUP1 PUSH1 0x1F ADD PUSH1 0x20 DUP1 SWAP2 DIV MUL PUSH1 0x20 ADD PUSH1 0x40 MLOAD SWAP1 DUP2 ADD PUSH1 0x40 MSTORE DUP1 SWAP3 SWAP2 SWAP1 DUP2 DUP2 MSTORE PUSH1 0x20 ADD DUP3 DUP1 SLOAD PUSH2 0x1942 SWAP1 PUSH2 0x2FC3 JUMP JUMPDEST DUP1 ISZERO PUSH2 0x198F JUMPI DUP1 PUSH1 0x1F LT PUSH2 0x1964 JUMPI PUSH2 0x100 DUP1 DUP4 SLOAD DIV MUL DUP4 MSTORE SWAP2 PUSH1 0x20 ADD SWAP2 PUSH2 0x198F JUMP JUMPDEST DUP3 ADD SWAP2 SWAP1 PUSH1 0x0 MSTORE PUSH1 0x20 PUSH1 0x0 KECCAK256 SWAP1 JUMPDEST DUP2 SLOAD DUP2 MSTORE SWAP1 PUSH1 0x1 ADD SWAP1 PUSH1 0x20 ADD DUP1 DUP4 GT PUSH2 0x1972 JUMPI DUP3 SWAP1 SUB PUSH1 0x1F AND DUP3 ADD SWAP2 JUMPDEST POP POP POP POP POP SWAP5 POP SWAP5 POP SWAP5 POP SWAP5 POP SWAP5 POP SWAP5 POP SWAP3 SWAP6 POP SWAP3 SWAP6 SWAP1 SWAP4 POP JUMP JUMPDEST PUSH1 0x0 DUP1 PUSH1 0x0 PUSH1 0x1 DUP6 DUP6 PUSH1 0x40 MLOAD PUSH2 0x19C1 SWAP3 SWAP2 SWAP1 PUSH2 0x2A2B JUMP JUMPDEST SWAP1 DUP2 MSTORE PUSH1 0x20 ADD PUSH1 0x40 MLOAD DUP1 SWAP2 SUB SWAP1 KECCAK256 PUSH1 0x0 DUP8 PUSH20 0xFFFFFFFFFFFFFFFFFFFFFFFFFFFFFFFFFFFFFFFF AND PUSH20 0xFFFFFFFFFFFFFFFFFFFFFFFFFFFFFFFFFFFFFFFF AND DUP2 MSTORE PUSH1 0x20 ADD SWAP1 DUP2 MSTORE PUSH1 0x20 ADD PUSH1 0x0 KECCAK256 PUSH1 0x0 ADD PUSH1 0x1 SWAP1 SLOAD SWAP1 PUSH2 0x100 EXP SWAP1 DIV PUSH1 0xFF AND PUSH1 0x1 DUP7 DUP7 PUSH1 0x40 MLOAD PUSH2 0x1A2F SWAP3 SWAP2 SWAP1 PUSH2 0x2A2B JUMP JUMPDEST SWAP1 DUP2 MSTORE PUSH1 0x20 ADD PUSH1 0x40 MLOAD DUP1 SWAP2 SUB SWAP1 KECCAK256 PUSH1 0x0 DUP9 PUSH20 0xFFFFFFFFFFFFFFFFFFFFFFFFFFFFFFFFFFFFFFFF AND PUSH20 0xFFFFFFFFFFFFFFFFFFFFFFFFFFFFFFFFFFFFFFFF AND DUP2 MSTORE PUSH1 0x20 ADD SWAP1 DUP2 MSTORE PUSH1 0x20 ADD PUSH1 0x0 KECCAK256 PUSH1 0x0 ADD PUSH1 0x0 SWAP1 SLOAD SWAP1 PUSH2 0x100 EXP SWAP1 DIV PUSH1 0xFF AND PUSH1 0x1 DUP8 DUP8 PUSH1 0x40 MLOAD PUSH2 0x1A9D SWAP3 SWAP2 SWAP1 PUSH2 0x2A2B JUMP JUMPDEST SWAP1 DUP2 MSTORE PUSH1 0x20 ADD PUSH1 0x40 MLOAD DUP1 SWAP2 SUB SWAP1 KECCAK256 PUSH1 0x0 DUP10 PUSH20 0xFFFFFFFFFFFFFFFFFFFFFFFFFFFFFFFFFFFFFFFF AND PUSH20 0xFFFFFFFFFFFFFFFFFFFFFFFFFFFFFFFFFFFFFFFF AND DUP2 MSTORE PUSH1 0x20 ADD SWAP1 DUP2 MSTORE PUSH1 0x20 ADD PUSH1 0x0 KECCAK256 PUSH1 0x0 ADD PUSH1 0x2 SWAP1 SLOAD SWAP1 PUSH2 0x100 EXP SWAP1 DIV PUSH20 0xFFFFFFFFFFFFFFFFFFFFFFFFFFFFFFFFFFFFFFFF AND SWAP3 POP SWAP3 POP SWAP3 POP SWAP4 POP SWAP4 POP SWAP4 SWAP1 POP JUMP JUMPDEST PUSH1 0x0 DUP3 DUP3 PUSH1 0x40 MLOAD PUSH2 0x1B2D SWAP3 SWAP2 SWAP1 PUSH2 0x2A2B JUMP JUMPDEST SWAP1 DUP2 MSTORE PUSH1 0x20 ADD PUSH1 0x40 MLOAD DUP1 SWAP2 SUB SWAP1 KECCAK256 PUSH1 0x4 ADD SLOAD TIMESTAMP LT ISZERO PUSH2 0x1B81 JUMPI PUSH1 0x40 MLOAD PUSH32 0x8C379A000000000000000000000000000000000000000000000000000000000 DUP2 MSTORE PUSH1 0x4 ADD PUSH2 0x1B78 SWAP1 PUSH2 0x2D2B JUMP JUMPDEST PUSH1 0x40 MLOAD DUP1 SWAP2 SUB SWAP1 REVERT JUMPDEST PUSH1 0x0 ISZERO ISZERO PUSH1 0x0 DUP4 DUP4 PUSH1 0x40 MLOAD PUSH2 0x1B97 SWAP3 SWAP2 SWAP1 PUSH2 0x2A2B JUMP JUMPDEST SWAP1 DUP2 MSTORE PUSH1 0x20 ADD PUSH1 0x40 MLOAD DUP1 SWAP2 SUB SWAP1 KECCAK256 PUSH1 0x7 ADD PUSH1 0x0 SWAP1 SLOAD SWAP1 PUSH2 0x100 EXP SWAP1 DIV PUSH1 0xFF AND ISZERO ISZERO EQ PUSH2 0x1BF8 JUMPI PUSH1 0x40 MLOAD PUSH32 0x8C379A000000000000000000000000000000000000000000000000000000000 DUP2 MSTORE PUSH1 0x4 ADD PUSH2 0x1BEF SWAP1 PUSH2 0x2D6B JUMP JUMPDEST PUSH1 0x40 MLOAD DUP1 SWAP2 SUB SWAP1 REVERT JUMPDEST PUSH1 0x0 DUP3 DUP3 PUSH1 0x40 MLOAD PUSH2 0x1C0A SWAP3 SWAP2 SWAP1 PUSH2 0x2A2B JUMP JUMPDEST SWAP1 DUP2 MSTORE PUSH1 0x20 ADD PUSH1 0x40 MLOAD DUP1 SWAP2 SUB SWAP1 KECCAK256 PUSH1 0x1 ADD PUSH1 0x0 SWAP1 SLOAD SWAP1 PUSH2 0x100 EXP SWAP1 DIV PUSH20 0xFFFFFFFFFFFFFFFFFFFFFFFFFFFFFFFFFFFFFFFF AND PUSH20 0xFFFFFFFFFFFFFFFFFFFFFFFFFFFFFFFFFFFFFFFF AND CALLER PUSH20 0xFFFFFFFFFFFFFFFFFFFFFFFFFFFFFFFFFFFFFFFF AND EQ DUP1 PUSH2 0x1D22 JUMPI POP PUSH1 0x0 PUSH20 0xFFFFFFFFFFFFFFFFFFFFFFFFFFFFFFFFFFFFFFFF AND PUSH1 0x1 DUP4 DUP4 PUSH1 0x40 MLOAD PUSH2 0x1C9A SWAP3 SWAP2 SWAP1 PUSH2 0x2A2B JUMP JUMPDEST SWAP1 DUP2 MSTORE PUSH1 0x20 ADD PUSH1 0x40 MLOAD DUP1 SWAP2 SUB SWAP1 KECCAK256 PUSH1 0x0 CALLER PUSH20 0xFFFFFFFFFFFFFFFFFFFFFFFFFFFFFFFFFFFFFFFF AND PUSH20 0xFFFFFFFFFFFFFFFFFFFFFFFFFFFFFFFFFFFFFFFF AND DUP2 MSTORE PUSH1 0x20 ADD SWAP1 DUP2 MSTORE PUSH1 0x20 ADD PUSH1 0x0 KECCAK256 PUSH1 0x0 ADD PUSH1 0x2 SWAP1 SLOAD SWAP1 PUSH2 0x100 EXP SWAP1 DIV PUSH20 0xFFFFFFFFFFFFFFFFFFFFFFFFFFFFFFFFFFFFFFFF AND PUSH20 0xFFFFFFFFFFFFFFFFFFFFFFFFFFFFFFFFFFFFFFFF AND EQ ISZERO JUMPDEST PUSH2 0x1D61 JUMPI PUSH1 0x40 MLOAD PUSH32 0x8C379A000000000000000000000000000000000000000000000000000000000 DUP2 MSTORE PUSH1 0x4 ADD PUSH2 0x1D58 SWAP1 PUSH2 0x2C6B JUMP JUMPDEST PUSH1 0x40 MLOAD DUP1 SWAP2 SUB SWAP1 REVERT JUMPDEST PUSH1 0x0 PUSH1 0x64 PUSH1 0x3 DUP5 DUP5 PUSH1 0x40 MLOAD PUSH2 0x1D77 SWAP3 SWAP2 SWAP1 PUSH2 0x2A2B JUMP JUMPDEST SWAP1 DUP2 MSTORE PUSH1 0x20 ADD PUSH1 0x40 MLOAD DUP1 SWAP2 SUB SWAP1 KECCAK256 DUP1 SLOAD SWAP1 POP PUSH1 0x0 DUP6 DUP6 PUSH1 0x40 MLOAD PUSH2 0x1D9B SWAP3 SWAP2 SWAP1 PUSH2 0x2A2B JUMP JUMPDEST SWAP1 DUP2 MSTORE PUSH1 0x20 ADD PUSH1 0x40 MLOAD DUP1 SWAP2 SUB SWAP1 KECCAK256 PUSH1 0x6 ADD SLOAD PUSH2 0x1DB7 SWAP2 SWAP1 PUSH2 0x2E97 JUMP JUMPDEST PUSH2 0x1DC1 SWAP2 SWAP1 PUSH2 0x2EC8 JUMP JUMPDEST SWAP1 POP PUSH1 0x0 DUP4 DUP4 PUSH1 0x40 MLOAD PUSH2 0x1DD5 SWAP3 SWAP2 SWAP1 PUSH2 0x2A2B JUMP JUMPDEST SWAP1 DUP2 MSTORE PUSH1 0x20 ADD PUSH1 0x40 MLOAD DUP1 SWAP2 SUB SWAP1 KECCAK256 PUSH1 0x5 ADD SLOAD DUP2 LT PUSH2 0x1E36 JUMPI PUSH32 0x4163636570746564000000000000000000000000000000000000000000000000 PUSH1 0x0 DUP5 DUP5 PUSH1 0x40 MLOAD PUSH2 0x1E20 SWAP3 SWAP2 SWAP1 PUSH2 0x2A2B JUMP JUMPDEST SWAP1 DUP2 MSTORE PUSH1 0x20 ADD PUSH1 0x40 MLOAD DUP1 SWAP2 SUB SWAP1 KECCAK256 PUSH1 0x8 ADD DUP2 SWAP1 SSTORE POP JUMPDEST PUSH1 0x0 JUMPDEST PUSH1 0x3 DUP5 DUP5 PUSH1 0x40 MLOAD PUSH2 0x1E4B SWAP3 SWAP2 SWAP1 PUSH2 0x2A2B JUMP JUMPDEST SWAP1 DUP2 MSTORE PUSH1 0x20 ADD PUSH1 0x40 MLOAD DUP1 SWAP2 SUB SWAP1 KECCAK256 DUP1 SLOAD SWAP1 POP DUP2 PUSH1 0xFF AND LT ISZERO PUSH2 0x2118 JUMPI PUSH1 0x0 ISZERO ISZERO PUSH1 0x1 DUP6 DUP6 PUSH1 0x40 MLOAD PUSH2 0x1E7D SWAP3 SWAP2 SWAP1 PUSH2 0x2A2B JUMP JUMPDEST SWAP1 DUP2 MSTORE PUSH1 0x20 ADD PUSH1 0x40 MLOAD DUP1 SWAP2 SUB SWAP1 KECCAK256 PUSH1 0x0 PUSH1 0x3 DUP8 DUP8 PUSH1 0x40 MLOAD PUSH2 0x1E9F SWAP3 SWAP2 SWAP1 PUSH2 0x2A2B JUMP JUMPDEST SWAP1 DUP2 MSTORE PUSH1 0x20 ADD PUSH1 0x40 MLOAD DUP1 SWAP2 SUB SWAP1 KECCAK256 DUP5 PUSH1 0xFF AND DUP2 SLOAD DUP2 LT PUSH2 0x1EC2 JUMPI PUSH2 0x1EC1 PUSH2 0x30DD JUMP JUMPDEST JUMPDEST SWAP1 PUSH1 0x0 MSTORE PUSH1 0x20 PUSH1 0x0 KECCAK256 ADD PUSH1 0x0 SWAP1 SLOAD SWAP1 PUSH2 0x100 EXP SWAP1 DIV PUSH20 0xFFFFFFFFFFFFFFFFFFFFFFFFFFFFFFFFFFFFFFFF AND PUSH20 0xFFFFFFFFFFFFFFFFFFFFFFFFFFFFFFFFFFFFFFFF AND PUSH20 0xFFFFFFFFFFFFFFFFFFFFFFFFFFFFFFFFFFFFFFFF AND DUP2 MSTORE PUSH1 0x20 ADD SWAP1 DUP2 MSTORE PUSH1 0x20 ADD PUSH1 0x0 KECCAK256 PUSH1 0x0 ADD PUSH1 0x0 SWAP1 SLOAD SWAP1 PUSH2 0x100 EXP SWAP1 DIV PUSH1 0xFF AND ISZERO ISZERO EQ ISZERO PUSH2 0x2105 JUMPI PUSH1 0x2 DUP5 DUP5 PUSH1 0x40 MLOAD PUSH2 0x1F52 SWAP3 SWAP2 SWAP1 PUSH2 0x2A2B JUMP JUMPDEST SWAP1 DUP2 MSTORE PUSH1 0x20 ADD PUSH1 0x40 MLOAD DUP1 SWAP2 SUB SWAP1 KECCAK256 PUSH1 0x1 DUP6 DUP6 PUSH1 0x40 MLOAD PUSH2 0x1F72 SWAP3 SWAP2 SWAP1 PUSH2 0x2A2B JUMP JUMPDEST SWAP1 DUP2 MSTORE PUSH1 0x20 ADD PUSH1 0x40 MLOAD DUP1 SWAP2 SUB SWAP1 KECCAK256 PUSH1 0x0 PUSH1 0x3 DUP8 DUP8 PUSH1 0x40 MLOAD PUSH2 0x1F94 SWAP3 SWAP2 SWAP1 PUSH2 0x2A2B JUMP JUMPDEST SWAP1 DUP2 MSTORE PUSH1 0x20 ADD PUSH1 0x40 MLOAD DUP1 SWAP2 SUB SWAP1 KECCAK256 DUP5 PUSH1 0xFF AND DUP2 SLOAD DUP2 LT PUSH2 0x1FB7 JUMPI PUSH2 0x1FB6 PUSH2 0x30DD JUMP JUMPDEST JUMPDEST SWAP1 PUSH1 0x0 MSTORE PUSH1 0x20 PUSH1 0x0 KECCAK256 ADD PUSH1 0x0 SWAP1 SLOAD SWAP1 PUSH2 0x100 EXP SWAP1 DIV PUSH20 0xFFFFFFFFFFFFFFFFFFFFFFFFFFFFFFFFFFFFFFFF AND PUSH20 0xFFFFFFFFFFFFFFFFFFFFFFFFFFFFFFFFFFFFFFFF AND PUSH20 0xFFFFFFFFFFFFFFFFFFFFFFFFFFFFFFFFFFFFFFFF AND DUP2 MSTORE PUSH1 0x20 ADD SWAP1 DUP2 MSTORE PUSH1 0x20 ADD PUSH1 0x0 KECCAK256 SWAP1 DUP1 PUSH1 0x1 DUP2 SLOAD ADD DUP1 DUP3 SSTORE DUP1 SWAP2 POP POP PUSH1 0x1 SWAP1 SUB SWAP1 PUSH1 0x0 MSTORE PUSH1 0x20 PUSH1 0x0 KECCAK256 ADD PUSH1 0x0 SWAP1 SWAP2 SWAP1 SWAP2 SWAP1 SWAP2 POP PUSH1 0x0 DUP3 ADD PUSH1 0x0 SWAP1 SLOAD SWAP1 PUSH2 0x100 EXP SWAP1 DIV PUSH1 0xFF AND DUP2 PUSH1 0x0 ADD PUSH1 0x0 PUSH2 0x100 EXP DUP2 SLOAD DUP2 PUSH1 0xFF MUL NOT AND SWAP1 DUP4 ISZERO ISZERO MUL OR SWAP1 SSTORE POP PUSH1 0x0 DUP3 ADD PUSH1 0x1 SWAP1 SLOAD SWAP1 PUSH2 0x100 EXP SWAP1 DIV PUSH1 0xFF AND DUP2 PUSH1 0x0 ADD PUSH1 0x1 PUSH2 0x100 EXP DUP2 SLOAD DUP2 PUSH1 0xFF MUL NOT AND SWAP1 DUP4 ISZERO ISZERO MUL OR SWAP1 SSTORE POP PUSH1 0x0 DUP3 ADD PUSH1 0x2 SWAP1 SLOAD SWAP1 PUSH2 0x100 EXP SWAP1 DIV PUSH20 0xFFFFFFFFFFFFFFFFFFFFFFFFFFFFFFFFFFFFFFFF AND DUP2 PUSH1 0x0 ADD PUSH1 0x2 PUSH2 0x100 EXP DUP2 SLOAD DUP2 PUSH20 0xFFFFFFFFFFFFFFFFFFFFFFFFFFFFFFFFFFFFFFFF MUL NOT AND SWAP1 DUP4 PUSH20 0xFFFFFFFFFFFFFFFFFFFFFFFFFFFFFFFFFFFFFFFF AND MUL OR SWAP1 SSTORE POP POP POP JUMPDEST DUP1 DUP1 PUSH2 0x2110 SWAP1 PUSH2 0x3026 JUMP JUMPDEST SWAP2 POP POP PUSH2 0x1E39 JUMP JUMPDEST POP PUSH1 0x1 PUSH1 0x0 DUP5 DUP5 PUSH1 0x40 MLOAD PUSH2 0x212D SWAP3 SWAP2 SWAP1 PUSH2 0x2A2B JUMP JUMPDEST SWAP1 DUP2 MSTORE PUSH1 0x20 ADD PUSH1 0x40 MLOAD DUP1 SWAP2 SUB SWAP1 KECCAK256 PUSH1 0x7 ADD PUSH1 0x0 PUSH2 0x100 EXP DUP2 SLOAD DUP2 PUSH1 0xFF MUL NOT AND SWAP1 DUP4 ISZERO ISZERO MUL OR SWAP1 SSTORE POP POP POP POP JUMP JUMPDEST PUSH1 0x2 DUP3 DUP1 MLOAD PUSH1 0x20 DUP2 ADD DUP3 ADD DUP1 MLOAD DUP5 DUP3 MSTORE PUSH1 0x20 DUP4 ADD PUSH1 0x20 DUP6 ADD KECCAK256 DUP2 DUP4 MSTORE DUP1 SWAP6 POP POP POP POP POP POP DUP2 DUP2 SLOAD DUP2 LT PUSH2 0x218C JUMPI PUSH1 0x0 DUP1 REVERT JUMPDEST SWAP1 PUSH1 0x0 MSTORE PUSH1 0x20 PUSH1 0x0 KECCAK256 ADD PUSH1 0x0 SWAP2 POP SWAP2 POP POP DUP1 PUSH1 0x0 ADD PUSH1 0x0 SWAP1 SLOAD SWAP1 PUSH2 0x100 EXP SWAP1 DIV PUSH1 0xFF AND SWAP1 DUP1 PUSH1 0x0 ADD PUSH1 0x1 SWAP1 SLOAD SWAP1 PUSH2 0x100 EXP SWAP1 DIV PUSH1 0xFF AND SWAP1 DUP1 PUSH1 0x0 ADD PUSH1 0x2 SWAP1 SLOAD SWAP1 PUSH2 0x100 EXP SWAP1 DIV PUSH20 0xFFFFFFFFFFFFFFFFFFFFFFFFFFFFFFFFFFFFFFFF AND SWAP1 POP DUP4 JUMP JUMPDEST PUSH1 0x60 PUSH1 0x0 DUP4 DUP4 PUSH1 0x40 MLOAD PUSH2 0x2201 SWAP3 SWAP2 SWAP1 PUSH2 0x2A2B JUMP JUMPDEST SWAP1 DUP2 MSTORE PUSH1 0x20 ADD PUSH1 0x40 MLOAD DUP1 SWAP2 SUB SWAP1 KECCAK256 PUSH1 0x0 ADD DUP1 SLOAD PUSH2 0x221D SWAP1 PUSH2 0x2FC3 JUMP JUMPDEST DUP1 PUSH1 0x1F ADD PUSH1 0x20 DUP1 SWAP2 DIV MUL PUSH1 0x20 ADD PUSH1 0x40 MLOAD SWAP1 DUP2 ADD PUSH1 0x40 MSTORE DUP1 SWAP3 SWAP2 SWAP1 DUP2 DUP2 MSTORE PUSH1 0x20 ADD DUP3 DUP1 SLOAD PUSH2 0x2249 SWAP1 PUSH2 0x2FC3 JUMP JUMPDEST DUP1 ISZERO PUSH2 0x2296 JUMPI DUP1 PUSH1 0x1F LT PUSH2 0x226B JUMPI PUSH2 0x100 DUP1 DUP4 SLOAD DIV MUL DUP4 MSTORE SWAP2 PUSH1 0x20 ADD SWAP2 PUSH2 0x2296 JUMP JUMPDEST DUP3 ADD SWAP2 SWAP1 PUSH1 0x0 MSTORE PUSH1 0x20 PUSH1 0x0 KECCAK256 SWAP1 JUMPDEST DUP2 SLOAD DUP2 MSTORE SWAP1 PUSH1 0x1 ADD SWAP1 PUSH1 0x20 ADD DUP1 DUP4 GT PUSH2 0x2279 JUMPI DUP3 SWAP1 SUB PUSH1 0x1F AND DUP3 ADD SWAP2 JUMPDEST POP POP POP POP POP SWAP1 POP SWAP3 SWAP2 POP POP JUMP JUMPDEST PUSH1 0x0 DUP1 DUP4 DUP4 PUSH1 0x40 MLOAD PUSH2 0x22B6 SWAP3 SWAP2 SWAP1 PUSH2 0x2A2B JUMP JUMPDEST SWAP1 DUP2 MSTORE PUSH1 0x20 ADD PUSH1 0x40 MLOAD DUP1 SWAP2 SUB SWAP1 KECCAK256 PUSH1 0x7 ADD PUSH1 0x0 SWAP1 SLOAD SWAP1 PUSH2 0x100 EXP SWAP1 DIV PUSH1 0xFF AND SWAP1 POP SWAP3 SWAP2 POP POP JUMP JUMPDEST DUP3 DUP1 SLOAD PUSH2 0x22E9 SWAP1 PUSH2 0x2FC3 JUMP JUMPDEST SWAP1 PUSH1 0x0 MSTORE PUSH1 0x20 PUSH1 0x0 KECCAK256 SWAP1 PUSH1 0x1F ADD PUSH1 0x20 SWAP1 DIV DUP2 ADD SWAP3 DUP3 PUSH2 0x230B JUMPI PUSH1 0x0 DUP6 SSTORE PUSH2 0x2352 JUMP JUMPDEST DUP3 PUSH1 0x1F LT PUSH2 0x2324 JUMPI DUP1 MLOAD PUSH1 0xFF NOT AND DUP4 DUP1 ADD OR DUP6 SSTORE PUSH2 0x2352 JUMP JUMPDEST DUP3 DUP1 ADD PUSH1 0x1 ADD DUP6 SSTORE DUP3 ISZERO PUSH2 0x2352 JUMPI SWAP2 DUP3 ADD JUMPDEST DUP3 DUP2 GT ISZERO PUSH2 0x2351 JUMPI DUP3 MLOAD DUP3 SSTORE SWAP2 PUSH1 0x20 ADD SWAP2 SWAP1 PUSH1 0x1 ADD SWAP1 PUSH2 0x2336 JUMP JUMPDEST JUMPDEST POP SWAP1 POP PUSH2 0x235F SWAP2 SWAP1 PUSH2 0x2363 JUMP JUMPDEST POP SWAP1 JUMP JUMPDEST JUMPDEST DUP1 DUP3 GT ISZERO PUSH2 0x237C JUMPI PUSH1 0x0 DUP2 PUSH1 0x0 SWAP1 SSTORE POP PUSH1 0x1 ADD PUSH2 0x2364 JUMP JUMPDEST POP SWAP1 JUMP JUMPDEST PUSH1 0x0 PUSH2 0x2393 PUSH2 0x238E DUP5 PUSH2 0x2DB0 JUMP JUMPDEST PUSH2 0x2D8B JUMP JUMPDEST SWAP1 POP DUP3 DUP2 MSTORE PUSH1 0x20 DUP2 ADD DUP5 DUP5 DUP5 ADD GT ISZERO PUSH2 0x23AF JUMPI PUSH2 0x23AE PUSH2 0x314A JUMP JUMPDEST JUMPDEST PUSH2 0x23BA DUP5 DUP3 DUP6 PUSH2 0x2F81 JUMP JUMPDEST POP SWAP4 SWAP3 POP POP POP JUMP JUMPDEST PUSH1 0x0 DUP2 CALLDATALOAD SWAP1 POP PUSH2 0x23D1 DUP2 PUSH2 0x33C5 JUMP JUMPDEST SWAP3 SWAP2 POP POP JUMP JUMPDEST PUSH1 0x0 DUP1 DUP4 PUSH1 0x1F DUP5 ADD SLT PUSH2 0x23ED JUMPI PUSH2 0x23EC PUSH2 0x3140 JUMP JUMPDEST JUMPDEST DUP3 CALLDATALOAD SWAP1 POP PUSH8 0xFFFFFFFFFFFFFFFF DUP2 GT ISZERO PUSH2 0x240A JUMPI PUSH2 0x2409 PUSH2 0x313B JUMP JUMPDEST JUMPDEST PUSH1 0x20 DUP4 ADD SWAP2 POP DUP4 PUSH1 0x1 DUP3 MUL DUP4 ADD GT ISZERO PUSH2 0x2426 JUMPI PUSH2 0x2425 PUSH2 0x3145 JUMP JUMPDEST JUMPDEST SWAP3 POP SWAP3 SWAP1 POP JUMP JUMPDEST PUSH1 0x0 DUP3 PUSH1 0x1F DUP4 ADD SLT PUSH2 0x2442 JUMPI PUSH2 0x2441 PUSH2 0x3140 JUMP JUMPDEST JUMPDEST DUP2 CALLDATALOAD PUSH2 0x2452 DUP5 DUP3 PUSH1 0x20 DUP7 ADD PUSH2 0x2380 JUMP JUMPDEST SWAP2 POP POP SWAP3 SWAP2 POP POP JUMP JUMPDEST PUSH1 0x0 DUP2 CALLDATALOAD SWAP1 POP PUSH2 0x246A DUP2 PUSH2 0x33DC JUMP JUMPDEST SWAP3 SWAP2 POP POP JUMP JUMPDEST PUSH1 0x0 DUP1 PUSH1 0x0 PUSH1 0x40 DUP5 DUP7 SUB SLT ISZERO PUSH2 0x2489 JUMPI PUSH2 0x2488 PUSH2 0x3154 JUMP JUMPDEST JUMPDEST PUSH1 0x0 PUSH2 0x2497 DUP7 DUP3 DUP8 ADD PUSH2 0x23C2 JUMP JUMPDEST SWAP4 POP POP PUSH1 0x20 DUP5 ADD CALLDATALOAD PUSH8 0xFFFFFFFFFFFFFFFF DUP2 GT ISZERO PUSH2 0x24B8 JUMPI PUSH2 0x24B7 PUSH2 0x314F JUMP JUMPDEST JUMPDEST PUSH2 0x24C4 DUP7 DUP3 DUP8 ADD PUSH2 0x23D7 JUMP JUMPDEST SWAP3 POP SWAP3 POP POP SWAP3 POP SWAP3 POP SWAP3 JUMP JUMPDEST PUSH1 0x0 DUP1 PUSH1 0x20 DUP4 DUP6 SUB SLT ISZERO PUSH2 0x24E7 JUMPI PUSH2 0x24E6 PUSH2 0x3154 JUMP JUMPDEST JUMPDEST PUSH1 0x0 DUP4 ADD CALLDATALOAD PUSH8 0xFFFFFFFFFFFFFFFF DUP2 GT ISZERO PUSH2 0x2505 JUMPI PUSH2 0x2504 PUSH2 0x314F JUMP JUMPDEST JUMPDEST PUSH2 0x2511 DUP6 DUP3 DUP7 ADD PUSH2 0x23D7 JUMP JUMPDEST SWAP3 POP SWAP3 POP POP SWAP3 POP SWAP3 SWAP1 POP JUMP JUMPDEST PUSH1 0x0 PUSH1 0x20 DUP3 DUP5 SUB SLT ISZERO PUSH2 0x2533 JUMPI PUSH2 0x2532 PUSH2 0x3154 JUMP JUMPDEST JUMPDEST PUSH1 0x0 DUP3 ADD CALLDATALOAD PUSH8 0xFFFFFFFFFFFFFFFF DUP2 GT ISZERO PUSH2 0x2551 JUMPI PUSH2 0x2550 PUSH2 0x314F JUMP JUMPDEST JUMPDEST PUSH2 0x255D DUP5 DUP3 DUP6 ADD PUSH2 0x242D JUMP JUMPDEST SWAP2 POP POP SWAP3 SWAP2 POP POP JUMP JUMPDEST PUSH1 0x0 DUP1 PUSH1 0x40 DUP4 DUP6 SUB SLT ISZERO PUSH2 0x257D JUMPI PUSH2 0x257C PUSH2 0x3154 JUMP JUMPDEST JUMPDEST PUSH1 0x0 DUP4 ADD CALLDATALOAD PUSH8 0xFFFFFFFFFFFFFFFF DUP2 GT ISZERO PUSH2 0x259B JUMPI PUSH2 0x259A PUSH2 0x314F JUMP JUMPDEST JUMPDEST PUSH2 0x25A7 DUP6 DUP3 DUP7 ADD PUSH2 0x242D JUMP JUMPDEST SWAP3 POP POP PUSH1 0x20 PUSH2 0x25B8 DUP6 DUP3 DUP7 ADD PUSH2 0x23C2 JUMP JUMPDEST SWAP2 POP POP SWAP3 POP SWAP3 SWAP1 POP JUMP JUMPDEST PUSH1 0x0 DUP1 PUSH1 0x0 PUSH1 0x40 DUP5 DUP7 SUB SLT ISZERO PUSH2 0x25DB JUMPI PUSH2 0x25DA PUSH2 0x3154 JUMP JUMPDEST JUMPDEST PUSH1 0x0 DUP5 ADD CALLDATALOAD PUSH8 0xFFFFFFFFFFFFFFFF DUP2 GT ISZERO PUSH2 0x25F9 JUMPI PUSH2 0x25F8 PUSH2 0x314F JUMP JUMPDEST JUMPDEST PUSH2 0x2605 DUP7 DUP3 DUP8 ADD PUSH2 0x242D JUMP JUMPDEST SWAP4 POP POP PUSH1 0x20 DUP5 ADD CALLDATALOAD PUSH8 0xFFFFFFFFFFFFFFFF DUP2 GT ISZERO PUSH2 0x2626 JUMPI PUSH2 0x2625 PUSH2 0x314F JUMP JUMPDEST JUMPDEST PUSH2 0x2632 DUP7 DUP3 DUP8 ADD PUSH2 0x23D7 JUMP JUMPDEST SWAP3 POP SWAP3 POP POP SWAP3 POP SWAP3 POP SWAP3 JUMP JUMPDEST PUSH1 0x0 DUP1 PUSH1 0x40 DUP4 DUP6 SUB SLT ISZERO PUSH2 0x2655 JUMPI PUSH2 0x2654 PUSH2 0x3154 JUMP JUMPDEST JUMPDEST PUSH1 0x0 DUP4 ADD CALLDATALOAD PUSH8 0xFFFFFFFFFFFFFFFF DUP2 GT ISZERO PUSH2 0x2673 JUMPI PUSH2 0x2672 PUSH2 0x314F JUMP JUMPDEST JUMPDEST PUSH2 0x267F DUP6 DUP3 DUP7 ADD PUSH2 0x242D JUMP JUMPDEST SWAP3 POP POP PUSH1 0x20 PUSH2 0x2690 DUP6 DUP3 DUP7 ADD PUSH2 0x245B JUMP JUMPDEST SWAP2 POP POP SWAP3 POP SWAP3 SWAP1 POP JUMP JUMPDEST PUSH1 0x0 DUP1 PUSH1 0x0 PUSH1 0x60 DUP5 DUP7 SUB SLT ISZERO PUSH2 0x26B3 JUMPI PUSH2 0x26B2 PUSH2 0x3154 JUMP JUMPDEST JUMPDEST PUSH1 0x0 DUP5 ADD CALLDATALOAD PUSH8 0xFFFFFFFFFFFFFFFF DUP2 GT ISZERO PUSH2 0x26D1 JUMPI PUSH2 0x26D0 PUSH2 0x314F JUMP JUMPDEST JUMPDEST PUSH2 0x26DD DUP7 DUP3 DUP8 ADD PUSH2 0x242D JUMP JUMPDEST SWAP4 POP POP PUSH1 0x20 PUSH2 0x26EE DUP7 DUP3 DUP8 ADD PUSH2 0x245B JUMP JUMPDEST SWAP3 POP POP PUSH1 0x40 PUSH2 0x26FF DUP7 DUP3 DUP8 ADD PUSH2 0x245B JUMP JUMPDEST SWAP2 POP POP SWAP3 POP SWAP3 POP SWAP3 JUMP JUMPDEST PUSH1 0x0 PUSH2 0x2715 DUP4 DUP4 PUSH2 0x29DA JUMP JUMPDEST PUSH1 0x60 DUP4 ADD SWAP1 POP SWAP3 SWAP2 POP POP JUMP JUMPDEST PUSH2 0x272A DUP2 PUSH2 0x2F22 JUMP JUMPDEST DUP3 MSTORE POP POP JUMP JUMPDEST PUSH2 0x2739 DUP2 PUSH2 0x2F22 JUMP JUMPDEST DUP3 MSTORE POP POP JUMP JUMPDEST PUSH1 0x0 PUSH2 0x274A DUP3 PUSH2 0x2DF1 JUMP JUMPDEST PUSH2 0x2754 DUP2 DUP6 PUSH2 0x2E14 JUMP JUMPDEST SWAP4 POP PUSH2 0x275F DUP4 PUSH2 0x2DE1 JUMP JUMPDEST DUP1 PUSH1 0x0 JUMPDEST DUP4 DUP2 LT ISZERO PUSH2 0x2790 JUMPI DUP2 MLOAD PUSH2 0x2777 DUP9 DUP3 PUSH2 0x2709 JUMP JUMPDEST SWAP8 POP PUSH2 0x2782 DUP4 PUSH2 0x2E07 JUMP JUMPDEST SWAP3 POP POP PUSH1 0x1 DUP2 ADD SWAP1 POP PUSH2 0x2763 JUMP JUMPDEST POP DUP6 SWAP4 POP POP POP POP SWAP3 SWAP2 POP POP JUMP JUMPDEST PUSH2 0x27A6 DUP2 PUSH2 0x2F34 JUMP JUMPDEST DUP3 MSTORE POP POP JUMP JUMPDEST PUSH2 0x27B5 DUP2 PUSH2 0x2F34 JUMP JUMPDEST DUP3 MSTORE POP POP JUMP JUMPDEST PUSH2 0x27C4 DUP2 PUSH2 0x2F40 JUMP JUMPDEST DUP3 MSTORE POP POP JUMP JUMPDEST PUSH1 0x0 PUSH2 0x27D6 DUP4 DUP6 PUSH2 0x2E36 JUMP JUMPDEST SWAP4 POP PUSH2 0x27E3 DUP4 DUP6 DUP5 PUSH2 0x2F81 JUMP JUMPDEST DUP3 DUP5 ADD SWAP1 POP SWAP4 SWAP3 POP POP POP JUMP JUMPDEST PUSH1 0x0 PUSH2 0x27FA DUP3 PUSH2 0x2DFC JUMP JUMPDEST PUSH2 0x2804 DUP2 DUP6 PUSH2 0x2E25 JUMP JUMPDEST SWAP4 POP PUSH2 0x2814 DUP2 DUP6 PUSH1 0x20 DUP7 ADD PUSH2 0x2F90 JUMP JUMPDEST PUSH2 0x281D DUP2 PUSH2 0x3159 JUMP JUMPDEST DUP5 ADD SWAP2 POP POP SWAP3 SWAP2 POP POP JUMP JUMPDEST PUSH1 0x0 PUSH2 0x2833 DUP3 PUSH2 0x2DFC JUMP JUMPDEST PUSH2 0x283D DUP2 DUP6 PUSH2 0x2E36 JUMP JUMPDEST SWAP4 POP PUSH2 0x284D DUP2 DUP6 PUSH1 0x20 DUP7 ADD PUSH2 0x2F90 JUMP JUMPDEST DUP1 DUP5 ADD SWAP2 POP POP SWAP3 SWAP2 POP POP JUMP JUMPDEST PUSH1 0x0 PUSH2 0x2866 PUSH1 0x1F DUP4 PUSH2 0x2E25 JUMP JUMPDEST SWAP2 POP PUSH2 0x2871 DUP3 PUSH2 0x316A JUMP JUMPDEST PUSH1 0x20 DUP3 ADD SWAP1 POP SWAP2 SWAP1 POP JUMP JUMPDEST PUSH1 0x0 PUSH2 0x2889 PUSH1 0x19 DUP4 PUSH2 0x2E25 JUMP JUMPDEST SWAP2 POP PUSH2 0x2894 DUP3 PUSH2 0x3193 JUMP JUMPDEST PUSH1 0x20 DUP3 ADD SWAP1 POP SWAP2 SWAP1 POP JUMP JUMPDEST PUSH1 0x0 PUSH2 0x28AC PUSH1 0x26 DUP4 PUSH2 0x2E25 JUMP JUMPDEST SWAP2 POP PUSH2 0x28B7 DUP3 PUSH2 0x31BC JUMP JUMPDEST PUSH1 0x40 DUP3 ADD SWAP1 POP SWAP2 SWAP1 POP JUMP JUMPDEST PUSH1 0x0 PUSH2 0x28CF PUSH1 0x1C DUP4 PUSH2 0x2E25 JUMP JUMPDEST SWAP2 POP PUSH2 0x28DA DUP3 PUSH2 0x320B JUMP JUMPDEST PUSH1 0x20 DUP3 ADD SWAP1 POP SWAP2 SWAP1 POP JUMP JUMPDEST PUSH1 0x0 PUSH2 0x28F2 PUSH1 0x15 DUP4 PUSH2 0x2E25 JUMP JUMPDEST SWAP2 POP PUSH2 0x28FD DUP3 PUSH2 0x3234 JUMP JUMPDEST PUSH1 0x20 DUP3 ADD SWAP1 POP SWAP2 SWAP1 POP JUMP JUMPDEST PUSH1 0x0 PUSH2 0x2915 PUSH1 0x1E DUP4 PUSH2 0x2E25 JUMP JUMPDEST SWAP2 POP PUSH2 0x2920 DUP3 PUSH2 0x325D JUMP JUMPDEST PUSH1 0x20 DUP3 ADD SWAP1 POP SWAP2 SWAP1 POP JUMP JUMPDEST PUSH1 0x0 PUSH2 0x2938 PUSH1 0x24 DUP4 PUSH2 0x2E25 JUMP JUMPDEST SWAP2 POP PUSH2 0x2943 DUP3 PUSH2 0x3286 JUMP JUMPDEST PUSH1 0x40 DUP3 ADD SWAP1 POP SWAP2 SWAP1 POP JUMP JUMPDEST PUSH1 0x0 PUSH2 0x295B PUSH1 0x28 DUP4 PUSH2 0x2E25 JUMP JUMPDEST SWAP2 POP PUSH2 0x2966 DUP3 PUSH2 0x32D5 JUMP JUMPDEST PUSH1 0x40 DUP3 ADD SWAP1 POP SWAP2 SWAP1 POP JUMP JUMPDEST PUSH1 0x0 PUSH2 0x297E PUSH1 0x20 DUP4 PUSH2 0x2E25 JUMP JUMPDEST SWAP2 POP PUSH2 0x2989 DUP3 PUSH2 0x3324 JUMP JUMPDEST PUSH1 0x20 DUP3 ADD SWAP1 POP SWAP2 SWAP1 POP JUMP JUMPDEST PUSH1 0x0 PUSH2 0x29A1 PUSH1 0x12 DUP4 PUSH2 0x2E25 JUMP JUMPDEST SWAP2 POP PUSH2 0x29AC DUP3 PUSH2 0x334D JUMP JUMPDEST PUSH1 0x20 DUP3 ADD SWAP1 POP SWAP2 SWAP1 POP JUMP JUMPDEST PUSH1 0x0 PUSH2 0x29C4 PUSH1 0x25 DUP4 PUSH2 0x2E25 JUMP JUMPDEST SWAP2 POP PUSH2 0x29CF DUP3 PUSH2 0x3376 JUMP JUMPDEST PUSH1 0x40 DUP3 ADD SWAP1 POP SWAP2 SWAP1 POP JUMP JUMPDEST PUSH1 0x60 DUP3 ADD PUSH1 0x0 DUP3 ADD MLOAD PUSH2 0x29F0 PUSH1 0x0 DUP6 ADD DUP3 PUSH2 0x279D JUMP JUMPDEST POP PUSH1 0x20 DUP3 ADD MLOAD PUSH2 0x2A03 PUSH1 0x20 DUP6 ADD DUP3 PUSH2 0x279D JUMP JUMPDEST POP PUSH1 0x40 DUP3 ADD MLOAD PUSH2 0x2A16 PUSH1 0x40 DUP6 ADD DUP3 PUSH2 0x2721 JUMP JUMPDEST POP POP POP POP JUMP JUMPDEST PUSH2 0x2A25 DUP2 PUSH2 0x2F6A JUMP JUMPDEST DUP3 MSTORE POP POP JUMP JUMPDEST PUSH1 0x0 PUSH2 0x2A38 DUP3 DUP5 DUP7 PUSH2 0x27CA JUMP JUMPDEST SWAP2 POP DUP2 SWAP1 POP SWAP4 SWAP3 POP POP POP JUMP JUMPDEST PUSH1 0x0 PUSH2 0x2A50 DUP3 DUP5 PUSH2 0x2828 JUMP JUMPDEST SWAP2 POP DUP2 SWAP1 POP SWAP3 SWAP2 POP POP JUMP JUMPDEST PUSH1 0x0 PUSH1 0x20 DUP3 ADD SWAP1 POP PUSH2 0x2A70 PUSH1 0x0 DUP4 ADD DUP5 PUSH2 0x2730 JUMP JUMPDEST SWAP3 SWAP2 POP POP JUMP JUMPDEST PUSH1 0x0 PUSH1 0x20 DUP3 ADD SWAP1 POP PUSH2 0x2A8B PUSH1 0x0 DUP4 ADD DUP5 PUSH2 0x27AC JUMP JUMPDEST SWAP3 SWAP2 POP POP JUMP JUMPDEST PUSH1 0x0 PUSH1 0x60 DUP3 ADD SWAP1 POP PUSH2 0x2AA6 PUSH1 0x0 DUP4 ADD DUP7 PUSH2 0x27AC JUMP JUMPDEST PUSH2 0x2AB3 PUSH1 0x20 DUP4 ADD DUP6 PUSH2 0x27AC JUMP JUMPDEST PUSH2 0x2AC0 PUSH1 0x40 DUP4 ADD DUP5 PUSH2 0x2730 JUMP JUMPDEST SWAP5 SWAP4 POP POP POP POP JUMP JUMPDEST PUSH1 0x0 PUSH1 0x80 DUP3 ADD SWAP1 POP PUSH2 0x2ADD PUSH1 0x0 DUP4 ADD DUP8 PUSH2 0x27BB JUMP JUMPDEST DUP2 DUP2 SUB PUSH1 0x20 DUP4 ADD MSTORE PUSH2 0x2AEF DUP2 DUP7 PUSH2 0x27EF JUMP JUMPDEST SWAP1 POP PUSH2 0x2AFE PUSH1 0x40 DUP4 ADD DUP6 PUSH2 0x2A1C JUMP JUMPDEST DUP2 DUP2 SUB PUSH1 0x60 DUP4 ADD MSTORE PUSH2 0x2B10 DUP2 DUP5 PUSH2 0x273F JUMP JUMPDEST SWAP1 POP SWAP6 SWAP5 POP POP POP POP POP JUMP JUMPDEST PUSH1 0x0 PUSH1 0x20 DUP3 ADD SWAP1 POP DUP2 DUP2 SUB PUSH1 0x0 DUP4 ADD MSTORE PUSH2 0x2B35 DUP2 DUP5 PUSH2 0x27EF JUMP JUMPDEST SWAP1 POP SWAP3 SWAP2 POP POP JUMP JUMPDEST PUSH1 0x0 PUSH2 0x120 DUP3 ADD SWAP1 POP DUP2 DUP2 SUB PUSH1 0x0 DUP4 ADD MSTORE PUSH2 0x2B58 DUP2 DUP13 PUSH2 0x27EF JUMP JUMPDEST SWAP1 POP PUSH2 0x2B67 PUSH1 0x20 DUP4 ADD DUP12 PUSH2 0x2730 JUMP JUMPDEST PUSH2 0x2B74 PUSH1 0x40 DUP4 ADD DUP11 PUSH2 0x2730 JUMP JUMPDEST PUSH2 0x2B81 PUSH1 0x60 DUP4 ADD DUP10 PUSH2 0x2A1C JUMP JUMPDEST PUSH2 0x2B8E PUSH1 0x80 DUP4 ADD DUP9 PUSH2 0x2A1C JUMP JUMPDEST PUSH2 0x2B9B PUSH1 0xA0 DUP4 ADD DUP8 PUSH2 0x2A1C JUMP JUMPDEST PUSH2 0x2BA8 PUSH1 0xC0 DUP4 ADD DUP7 PUSH2 0x2A1C JUMP JUMPDEST PUSH2 0x2BB5 PUSH1 0xE0 DUP4 ADD DUP6 PUSH2 0x27AC JUMP JUMPDEST PUSH2 0x2BC3 PUSH2 0x100 DUP4 ADD DUP5 PUSH2 0x27BB JUMP JUMPDEST SWAP11 SWAP10 POP POP POP POP POP POP POP POP POP POP JUMP JUMPDEST PUSH1 0x0 PUSH1 0xA0 DUP3 ADD SWAP1 POP DUP2 DUP2 SUB PUSH1 0x0 DUP4 ADD MSTORE PUSH2 0x2BEB DUP2 DUP9 PUSH2 0x27EF JUMP JUMPDEST SWAP1 POP PUSH2 0x2BFA PUSH1 0x20 DUP4 ADD DUP8 PUSH2 0x2A1C JUMP JUMPDEST PUSH2 0x2C07 PUSH1 0x40 DUP4 ADD DUP7 PUSH2 0x2730 JUMP JUMPDEST PUSH2 0x2C14 PUSH1 0x60 DUP4 ADD DUP6 PUSH2 0x2A1C JUMP JUMPDEST PUSH2 0x2C21 PUSH1 0x80 DUP4 ADD DUP5 PUSH2 0x2A1C JUMP JUMPDEST SWAP7 SWAP6 POP POP POP POP POP POP JUMP JUMPDEST PUSH1 0x0 PUSH1 0x20 DUP3 ADD SWAP1 POP DUP2 DUP2 SUB PUSH1 0x0 DUP4 ADD MSTORE PUSH2 0x2C44 DUP2 PUSH2 0x2859 JUMP JUMPDEST SWAP1 POP SWAP2 SWAP1 POP JUMP JUMPDEST PUSH1 0x0 PUSH1 0x20 DUP3 ADD SWAP1 POP DUP2 DUP2 SUB PUSH1 0x0 DUP4 ADD MSTORE PUSH2 0x2C64 DUP2 PUSH2 0x287C JUMP JUMPDEST SWAP1 POP SWAP2 SWAP1 POP JUMP JUMPDEST PUSH1 0x0 PUSH1 0x20 DUP3 ADD SWAP1 POP DUP2 DUP2 SUB PUSH1 0x0 DUP4 ADD MSTORE PUSH2 0x2C84 DUP2 PUSH2 0x289F JUMP JUMPDEST SWAP1 POP SWAP2 SWAP1 POP JUMP JUMPDEST PUSH1 0x0 PUSH1 0x20 DUP3 ADD SWAP1 POP DUP2 DUP2 SUB PUSH1 0x0 DUP4 ADD MSTORE PUSH2 0x2CA4 DUP2 PUSH2 0x28C2 JUMP JUMPDEST SWAP1 POP SWAP2 SWAP1 POP JUMP JUMPDEST PUSH1 0x0 PUSH1 0x20 DUP3 ADD SWAP1 POP DUP2 DUP2 SUB PUSH1 0x0 DUP4 ADD MSTORE PUSH2 0x2CC4 DUP2 PUSH2 0x28E5 JUMP JUMPDEST SWAP1 POP SWAP2 SWAP1 POP JUMP JUMPDEST PUSH1 0x0 PUSH1 0x20 DUP3 ADD SWAP1 POP DUP2 DUP2 SUB PUSH1 0x0 DUP4 ADD MSTORE PUSH2 0x2CE4 DUP2 PUSH2 0x2908 JUMP JUMPDEST SWAP1 POP SWAP2 SWAP1 POP JUMP JUMPDEST PUSH1 0x0 PUSH1 0x20 DUP3 ADD SWAP1 POP DUP2 DUP2 SUB PUSH1 0x0 DUP4 ADD MSTORE PUSH2 0x2D04 DUP2 PUSH2 0x292B JUMP JUMPDEST SWAP1 POP SWAP2 SWAP1 POP JUMP JUMPDEST PUSH1 0x0 PUSH1 0x20 DUP3 ADD SWAP1 POP DUP2 DUP2 SUB PUSH1 0x0 DUP4 ADD MSTORE PUSH2 0x2D24 DUP2 PUSH2 0x294E JUMP JUMPDEST SWAP1 POP SWAP2 SWAP1 POP JUMP JUMPDEST PUSH1 0x0 PUSH1 0x20 DUP3 ADD SWAP1 POP DUP2 DUP2 SUB PUSH1 0x0 DUP4 ADD MSTORE PUSH2 0x2D44 DUP2 PUSH2 0x2971 JUMP JUMPDEST SWAP1 POP SWAP2 SWAP1 POP JUMP JUMPDEST PUSH1 0x0 PUSH1 0x20 DUP3 ADD SWAP1 POP DUP2 DUP2 SUB PUSH1 0x0 DUP4 ADD MSTORE PUSH2 0x2D64 DUP2 PUSH2 0x2994 JUMP JUMPDEST SWAP1 POP SWAP2 SWAP1 POP JUMP JUMPDEST PUSH1 0x0 PUSH1 0x20 DUP3 ADD SWAP1 POP DUP2 DUP2 SUB PUSH1 0x0 DUP4 ADD MSTORE PUSH2 0x2D84 DUP2 PUSH2 0x29B7 JUMP JUMPDEST SWAP1 POP SWAP2 SWAP1 POP JUMP JUMPDEST PUSH1 0x0 PUSH2 0x2D95 PUSH2 0x2DA6 JUMP JUMPDEST SWAP1 POP PUSH2 0x2DA1 DUP3 DUP3 PUSH2 0x2FF5 JUMP JUMPDEST SWAP2 SWAP1 POP JUMP JUMPDEST PUSH1 0x0 PUSH1 0x40 MLOAD SWAP1 POP SWAP1 JUMP JUMPDEST PUSH1 0x0 PUSH8 0xFFFFFFFFFFFFFFFF DUP3 GT ISZERO PUSH2 0x2DCB JUMPI PUSH2 0x2DCA PUSH2 0x310C JUMP JUMPDEST JUMPDEST PUSH2 0x2DD4 DUP3 PUSH2 0x3159 JUMP JUMPDEST SWAP1 POP PUSH1 0x20 DUP2 ADD SWAP1 POP SWAP2 SWAP1 POP JUMP JUMPDEST PUSH1 0x0 DUP2 SWAP1 POP PUSH1 0x20 DUP3 ADD SWAP1 POP SWAP2 SWAP1 POP JUMP JUMPDEST PUSH1 0x0 DUP2 MLOAD SWAP1 POP SWAP2 SWAP1 POP JUMP JUMPDEST PUSH1 0x0 DUP2 MLOAD SWAP1 POP SWAP2 SWAP1 POP JUMP JUMPDEST PUSH1 0x0 PUSH1 0x20 DUP3 ADD SWAP1 POP SWAP2 SWAP1 POP JUMP JUMPDEST PUSH1 0x0 DUP3 DUP3 MSTORE PUSH1 0x20 DUP3 ADD SWAP1 POP SWAP3 SWAP2 POP POP JUMP JUMPDEST PUSH1 0x0 DUP3 DUP3 MSTORE PUSH1 0x20 DUP3 ADD SWAP1 POP SWAP3 SWAP2 POP POP JUMP JUMPDEST PUSH1 0x0 DUP2 SWAP1 POP SWAP3 SWAP2 POP POP JUMP JUMPDEST PUSH1 0x0 PUSH2 0x2E4C DUP3 PUSH2 0x2F6A JUMP JUMPDEST SWAP2 POP PUSH2 0x2E57 DUP4 PUSH2 0x2F6A JUMP JUMPDEST SWAP3 POP DUP3 PUSH32 0xFFFFFFFFFFFFFFFFFFFFFFFFFFFFFFFFFFFFFFFFFFFFFFFFFFFFFFFFFFFFFFFF SUB DUP3 GT ISZERO PUSH2 0x2E8C JUMPI PUSH2 0x2E8B PUSH2 0x3050 JUMP JUMPDEST JUMPDEST DUP3 DUP3 ADD SWAP1 POP SWAP3 SWAP2 POP POP JUMP JUMPDEST PUSH1 0x0 PUSH2 0x2EA2 DUP3 PUSH2 0x2F6A JUMP JUMPDEST SWAP2 POP PUSH2 0x2EAD DUP4 PUSH2 0x2F6A JUMP JUMPDEST SWAP3 POP DUP3 PUSH2 0x2EBD JUMPI PUSH2 0x2EBC PUSH2 0x307F JUMP JUMPDEST JUMPDEST DUP3 DUP3 DIV SWAP1 POP SWAP3 SWAP2 POP POP JUMP JUMPDEST PUSH1 0x0 PUSH2 0x2ED3 DUP3 PUSH2 0x2F6A JUMP JUMPDEST SWAP2 POP PUSH2 0x2EDE DUP4 PUSH2 0x2F6A JUMP JUMPDEST SWAP3 POP DUP2 PUSH32 0xFFFFFFFFFFFFFFFFFFFFFFFFFFFFFFFFFFFFFFFFFFFFFFFFFFFFFFFFFFFFFFFF DIV DUP4 GT DUP3 ISZERO ISZERO AND ISZERO PUSH2 0x2F17 JUMPI PUSH2 0x2F16 PUSH2 0x3050 JUMP JUMPDEST JUMPDEST DUP3 DUP3 MUL SWAP1 POP SWAP3 SWAP2 POP POP JUMP JUMPDEST PUSH1 0x0 PUSH2 0x2F2D DUP3 PUSH2 0x2F4A JUMP JUMPDEST SWAP1 POP SWAP2 SWAP1 POP JUMP JUMPDEST PUSH1 0x0 DUP2 ISZERO ISZERO SWAP1 POP SWAP2 SWAP1 POP JUMP JUMPDEST PUSH1 0x0 DUP2 SWAP1 POP SWAP2 SWAP1 POP JUMP JUMPDEST PUSH1 0x0 PUSH20 0xFFFFFFFFFFFFFFFFFFFFFFFFFFFFFFFFFFFFFFFF DUP3 AND SWAP1 POP SWAP2 SWAP1 POP JUMP JUMPDEST PUSH1 0x0 DUP2 SWAP1 POP SWAP2 SWAP1 POP JUMP JUMPDEST PUSH1 0x0 PUSH1 0xFF DUP3 AND SWAP1 POP SWAP2 SWAP1 POP JUMP JUMPDEST DUP3 DUP2 DUP4 CALLDATACOPY PUSH1 0x0 DUP4 DUP4 ADD MSTORE POP POP POP JUMP JUMPDEST PUSH1 0x0 JUMPDEST DUP4 DUP2 LT ISZERO PUSH2 0x2FAE JUMPI DUP1 DUP3 ADD MLOAD DUP2 DUP5 ADD MSTORE PUSH1 0x20 DUP2 ADD SWAP1 POP PUSH2 0x2F93 JUMP JUMPDEST DUP4 DUP2 GT ISZERO PUSH2 0x2FBD JUMPI PUSH1 0x0 DUP5 DUP5 ADD MSTORE JUMPDEST POP POP POP POP JUMP JUMPDEST PUSH1 0x0 PUSH1 0x2 DUP3 DIV SWAP1 POP PUSH1 0x1 DUP3 AND DUP1 PUSH2 0x2FDB JUMPI PUSH1 0x7F DUP3 AND SWAP2 POP JUMPDEST PUSH1 0x20 DUP3 LT DUP2 EQ ISZERO PUSH2 0x2FEF JUMPI PUSH2 0x2FEE PUSH2 0x30AE JUMP JUMPDEST JUMPDEST POP SWAP2 SWAP1 POP JUMP JUMPDEST PUSH2 0x2FFE DUP3 PUSH2 0x3159 JUMP JUMPDEST DUP2 ADD DUP2 DUP2 LT PUSH8 0xFFFFFFFFFFFFFFFF DUP3 GT OR ISZERO PUSH2 0x301D JUMPI PUSH2 0x301C PUSH2 0x310C JUMP JUMPDEST JUMPDEST DUP1 PUSH1 0x40 MSTORE POP POP POP JUMP JUMPDEST PUSH1 0x0 PUSH2 0x3031 DUP3 PUSH2 0x2F74 JUMP JUMPDEST SWAP2 POP PUSH1 0xFF DUP3 EQ ISZERO PUSH2 0x3045 JUMPI PUSH2 0x3044 PUSH2 0x3050 JUMP JUMPDEST JUMPDEST PUSH1 0x1 DUP3 ADD SWAP1 POP SWAP2 SWAP1 POP JUMP JUMPDEST PUSH32 0x4E487B7100000000000000000000000000000000000000000000000000000000 PUSH1 0x0 MSTORE PUSH1 0x11 PUSH1 0x4 MSTORE PUSH1 0x24 PUSH1 0x0 REVERT JUMPDEST PUSH32 0x4E487B7100000000000000000000000000000000000000000000000000000000 PUSH1 0x0 MSTORE PUSH1 0x12 PUSH1 0x4 MSTORE PUSH1 0x24 PUSH1 0x0 REVERT JUMPDEST PUSH32 0x4E487B7100000000000000000000000000000000000000000000000000000000 PUSH1 0x0 MSTORE PUSH1 0x22 PUSH1 0x4 MSTORE PUSH1 0x24 PUSH1 0x0 REVERT JUMPDEST PUSH32 0x4E487B7100000000000000000000000000000000000000000000000000000000 PUSH1 0x0 MSTORE PUSH1 0x32 PUSH1 0x4 MSTORE PUSH1 0x24 PUSH1 0x0 REVERT JUMPDEST PUSH32 0x4E487B7100000000000000000000000000000000000000000000000000000000 PUSH1 0x0 MSTORE PUSH1 0x41 PUSH1 0x4 MSTORE PUSH1 0x24 PUSH1 0x0 REVERT JUMPDEST PUSH1 0x0 DUP1 REVERT JUMPDEST PUSH1 0x0 DUP1 REVERT JUMPDEST PUSH1 0x0 DUP1 REVERT JUMPDEST PUSH1 0x0 DUP1 REVERT JUMPDEST PUSH1 0x0 DUP1 REVERT JUMPDEST PUSH1 0x0 DUP1 REVERT JUMPDEST PUSH1 0x0 PUSH1 0x1F NOT PUSH1 0x1F DUP4 ADD AND SWAP1 POP SWAP2 SWAP1 POP JUMP JUMPDEST PUSH32 0x526563697069656E7420697320616C7265616479207265676973746572656400 PUSH1 0x0 DUP3 ADD MSTORE POP JUMP JUMPDEST PUSH32 0x50726F706F73616C20616C726561647920637265617465642100000000000000 PUSH1 0x0 DUP3 ADD MSTORE POP JUMP JUMPDEST PUSH32 0x596F75206172656E277420617574686F72697A6520746F20636F6D70696C6520 PUSH1 0x0 DUP3 ADD MSTORE PUSH32 0x42756E646C650000000000000000000000000000000000000000000000000000 PUSH1 0x20 DUP3 ADD MSTORE POP JUMP JUMPDEST PUSH32 0x596F7520616C72656164792073656E74206120726573706F6E73652E00000000 PUSH1 0x0 DUP3 ADD MSTORE POP JUMP JUMPDEST PUSH32 0x496E69746961746F722063616E277420766F7465210000000000000000000000 PUSH1 0x0 DUP3 ADD MSTORE POP JUMP JUMPDEST PUSH32 0x596F7520617265206E6F74207265676973746572656420746F20766F74650000 PUSH1 0x0 DUP3 ADD MSTORE POP JUMP JUMPDEST PUSH32 0x50726F706F73616C206861732072656163686564206974732065787069727920 PUSH1 0x0 DUP3 ADD MSTORE PUSH32 0x6461746500000000000000000000000000000000000000000000000000000000 PUSH1 0x20 DUP3 ADD MSTORE POP JUMP JUMPDEST PUSH32 0x4F6E6C7920696E69746961746F722063616E2072656769737465722061207265 PUSH1 0x0 DUP3 ADD MSTORE PUSH32 0x63697069656E742E000000000000000000000000000000000000000000000000 PUSH1 0x20 DUP3 ADD MSTORE POP JUMP JUMPDEST PUSH32 0x5665726469637420686173206E6F74206265656E207265616368656420796574 PUSH1 0x0 DUP3 ADD MSTORE POP JUMP JUMPDEST PUSH32 0x566F74696E672068617320657870697265640000000000000000000000000000 PUSH1 0x0 DUP3 ADD MSTORE POP JUMP JUMPDEST PUSH32 0x436F6E73656E7375732068617320616C7265616479206265656E2063616C6375 PUSH1 0x0 DUP3 ADD MSTORE PUSH32 0x6C61746564000000000000000000000000000000000000000000000000000000 PUSH1 0x20 DUP3 ADD MSTORE POP JUMP JUMPDEST PUSH2 0x33CE DUP2 PUSH2 0x2F22 JUMP JUMPDEST DUP2 EQ PUSH2 0x33D9 JUMPI PUSH1 0x0 DUP1 REVERT JUMPDEST POP JUMP JUMPDEST PUSH2 0x33E5 DUP2 PUSH2 0x2F6A JUMP JUMPDEST DUP2 EQ PUSH2 0x33F0 JUMPI PUSH1 0x0 DUP1 REVERT JUMPDEST POP JUMP INVALID LOG2 PUSH5 0x6970667358 0x22 SLT KECCAK256 ADDRESS PUSH17 0x3482462CF048716436EA2666388D816436 CALLER DELEGATECALL 0x2D PUSH26 0xBE45E076002C868FD064736F6C63430008070033000000000000 "
				},
				"gasEstimates": {
					"creation": {
						"codeDepositCost": "2670600",
						"executionCost": "2900",
						"totalCost": "2673500"
					},
					"external": {
						"Consensus(string)": "infinite",
						"RegisterVoter(address,string)": "infinite",
						"Vote(string,string)": "infinite",
						"Voters(string,uint256)": "infinite",
						"businessProposals(string)": "infinite",
						"createContract(string,uint256,uint256)": "infinite",
						"getIsCompiled(string)": "infinite",
						"getParameters(string)": "infinite",
						"getParameters2(address,string)": "infinite",
						"getValues(string)": "infinite",
						"keys(string,uint256)": "infinite",
						"retrieve_bundle(string)": "infinite",
						"voter_maps(string,address)": "infinite"
					}
				},
				"methodIdentifiers": {
					"Consensus(string)": "883a9673",
					"RegisterVoter(address,string)": "3d63af0e",
					"Vote(string,string)": "17072d6b",
					"Voters(string,uint256)": "8f6a35b7",
					"businessProposals(string)": "089a4c60",
					"createContract(string,uint256,uint256)": "0a5c8d5e",
					"getIsCompiled(string)": "ec548680",
					"getParameters(string)": "5a0a1390",
					"getParameters2(address,string)": "7b735c46",
					"getValues(string)": "c99ba896",
					"keys(string,uint256)": "06699b01",
					"retrieve_bundle(string)": "37f2e190",
					"voter_maps(string,address)": "33a0b0ab"
				}
			},
			"storageLayout": {
				"storage": [
					{
						"astId": 32,
						"contract": "contracts/BusinessConsensus2.sol:BusinessConsensus2",
						"label": "businessProposals",
						"offset": 0,
						"slot": "0",
						"type": "t_mapping(t_string_memory_ptr,t_struct(Proposal)27_storage)"
					},
					{
						"astId": 39,
						"contract": "contracts/BusinessConsensus2.sol:BusinessConsensus2",
						"label": "voter_maps",
						"offset": 0,
						"slot": "1",
						"type": "t_mapping(t_string_memory_ptr,t_mapping(t_address,t_struct(Voter)8_storage))"
					},
					{
						"astId": 45,
						"contract": "contracts/BusinessConsensus2.sol:BusinessConsensus2",
						"label": "Voters",
						"offset": 0,
						"slot": "2",
						"type": "t_mapping(t_string_memory_ptr,t_array(t_struct(Voter)8_storage)dyn_storage)"
					},
					{
						"astId": 50,
						"contract": "contracts/BusinessConsensus2.sol:BusinessConsensus2",
						"label": "keys",
						"offset": 0,
						"slot": "3",
						"type": "t_mapping(t_string_memory_ptr,t_array(t_address)dyn_storage)"
					}
				],
				"types": {
					"t_address": {
						"encoding": "inplace",
						"label": "address",
						"numberOfBytes": "20"
					},
					"t_array(t_address)dyn_storage": {
						"base": "t_address",
						"encoding": "dynamic_array",
						"label": "address[]",
						"numberOfBytes": "32"
					},
					"t_array(t_struct(Voter)8_storage)dyn_storage": {
						"base": "t_struct(Voter)8_storage",
						"encoding": "dynamic_array",
						"label": "struct BusinessConsensus2.Voter[]",
						"numberOfBytes": "32"
					},
					"t_bool": {
						"encoding": "inplace",
						"label": "bool",
						"numberOfBytes": "1"
					},
					"t_bytes32": {
						"encoding": "inplace",
						"label": "bytes32",
						"numberOfBytes": "32"
					},
					"t_mapping(t_address,t_struct(Voter)8_storage)": {
						"encoding": "mapping",
						"key": "t_address",
						"label": "mapping(address => struct BusinessConsensus2.Voter)",
						"numberOfBytes": "32",
						"value": "t_struct(Voter)8_storage"
					},
					"t_mapping(t_string_memory_ptr,t_array(t_address)dyn_storage)": {
						"encoding": "mapping",
						"key": "t_string_memory_ptr",
						"label": "mapping(string => address[])",
						"numberOfBytes": "32",
						"value": "t_array(t_address)dyn_storage"
					},
					"t_mapping(t_string_memory_ptr,t_array(t_struct(Voter)8_storage)dyn_storage)": {
						"encoding": "mapping",
						"key": "t_string_memory_ptr",
						"label": "mapping(string => struct BusinessConsensus2.Voter[])",
						"numberOfBytes": "32",
						"value": "t_array(t_struct(Voter)8_storage)dyn_storage"
					},
					"t_mapping(t_string_memory_ptr,t_mapping(t_address,t_struct(Voter)8_storage))": {
						"encoding": "mapping",
						"key": "t_string_memory_ptr",
						"label": "mapping(string => mapping(address => struct BusinessConsensus2.Voter))",
						"numberOfBytes": "32",
						"value": "t_mapping(t_address,t_struct(Voter)8_storage)"
					},
					"t_mapping(t_string_memory_ptr,t_struct(Proposal)27_storage)": {
						"encoding": "mapping",
						"key": "t_string_memory_ptr",
						"label": "mapping(string => struct BusinessConsensus2.Proposal)",
						"numberOfBytes": "32",
						"value": "t_struct(Proposal)27_storage"
					},
					"t_string_memory_ptr": {
						"encoding": "bytes",
						"label": "string",
						"numberOfBytes": "32"
					},
					"t_string_storage": {
						"encoding": "bytes",
						"label": "string",
						"numberOfBytes": "32"
					},
					"t_struct(Proposal)27_storage": {
						"encoding": "inplace",
						"label": "struct BusinessConsensus2.Proposal",
						"members": [
							{
								"astId": 10,
								"contract": "contracts/BusinessConsensus2.sol:BusinessConsensus2",
								"label": "messageID",
								"offset": 0,
								"slot": "0",
								"type": "t_string_storage"
							},
							{
								"astId": 12,
								"contract": "contracts/BusinessConsensus2.sol:BusinessConsensus2",
								"label": "initiator",
								"offset": 0,
								"slot": "1",
								"type": "t_address"
							},
							{
								"astId": 14,
								"contract": "contracts/BusinessConsensus2.sol:BusinessConsensus2",
								"label": "contractAddress",
								"offset": 0,
								"slot": "2",
								"type": "t_address"
							},
							{
								"astId": 16,
								"contract": "contracts/BusinessConsensus2.sol:BusinessConsensus2",
								"label": "voteCount",
								"offset": 0,
								"slot": "3",
								"type": "t_uint256"
							},
							{
								"astId": 18,
								"contract": "contracts/BusinessConsensus2.sol:BusinessConsensus2",
								"label": "expiryDate",
								"offset": 0,
								"slot": "4",
								"type": "t_uint256"
							},
							{
								"astId": 20,
								"contract": "contracts/BusinessConsensus2.sol:BusinessConsensus2",
								"label": "BusinessRequirement",
								"offset": 0,
								"slot": "5",
								"type": "t_uint256"
							},
							{
								"astId": 22,
								"contract": "contracts/BusinessConsensus2.sol:BusinessConsensus2",
								"label": "numApprovals",
								"offset": 0,
								"slot": "6",
								"type": "t_uint256"
							},
							{
								"astId": 24,
								"contract": "contracts/BusinessConsensus2.sol:BusinessConsensus2",
								"label": "isCompiled",
								"offset": 0,
								"slot": "7",
								"type": "t_bool"
							},
							{
								"astId": 26,
								"contract": "contracts/BusinessConsensus2.sol:BusinessConsensus2",
								"label": "finalVerdict",
								"offset": 0,
								"slot": "8",
								"type": "t_bytes32"
							}
						],
						"numberOfBytes": "288"
					},
					"t_struct(Voter)8_storage": {
						"encoding": "inplace",
						"label": "struct BusinessConsensus2.Voter",
						"members": [
							{
								"astId": 3,
								"contract": "contracts/BusinessConsensus2.sol:BusinessConsensus2",
								"label": "voted",
								"offset": 0,
								"slot": "0",
								"type": "t_bool"
							},
							{
								"astId": 5,
								"contract": "contracts/BusinessConsensus2.sol:BusinessConsensus2",
								"label": "vote",
								"offset": 1,
								"slot": "0",
								"type": "t_bool"
							},
							{
								"astId": 7,
								"contract": "contracts/BusinessConsensus2.sol:BusinessConsensus2",
								"label": "recipient",
								"offset": 2,
								"slot": "0",
								"type": "t_address"
							}
						],
						"numberOfBytes": "32"
					},
					"t_uint256": {
						"encoding": "inplace",
						"label": "uint256",
						"numberOfBytes": "32"
					}
				}
			},
			"userdoc": {
				"kind": "user",
				"methods": {
					"Consensus(string)": {
						"notice": "compile all relevant information into a Bundle"
					}
				},
				"version": 1
			}
		}
	}
}