{
	"contracts/BusinessConsensus2.sol": {
		"BusinessConsensus2": {
			"abi": [
				{
					"inputs": [
						{
							"internalType": "string",
							"name": "_messageID",
							"type": "string"
						}
					],
					"name": "Consensus",
					"outputs": [],
					"stateMutability": "nonpayable",
					"type": "function"
				},
				{
					"inputs": [
						{
							"internalType": "address",
							"name": "voter",
							"type": "address"
						},
						{
							"internalType": "string",
							"name": "_messageID",
							"type": "string"
						}
					],
					"name": "RegisterVoter",
					"outputs": [],
					"stateMutability": "nonpayable",
					"type": "function"
				},
				{
					"inputs": [
						{
							"internalType": "string",
							"name": "response",
							"type": "string"
						},
						{
							"internalType": "string",
							"name": "_messageID",
							"type": "string"
						}
					],
					"name": "Vote",
					"outputs": [],
					"stateMutability": "nonpayable",
					"type": "function"
				},
				{
					"inputs": [
						{
							"internalType": "string",
							"name": "",
							"type": "string"
						},
						{
							"internalType": "uint256",
							"name": "",
							"type": "uint256"
						}
					],
					"name": "Voters",
					"outputs": [
						{
							"internalType": "bool",
							"name": "voted",
							"type": "bool"
						},
						{
							"internalType": "bool",
							"name": "vote",
							"type": "bool"
						},
						{
							"internalType": "address",
							"name": "recipient",
							"type": "address"
						}
					],
					"stateMutability": "view",
					"type": "function"
				},
				{
					"inputs": [
						{
							"internalType": "string",
							"name": "",
							"type": "string"
						}
					],
					"name": "businessProposals",
					"outputs": [
						{
							"internalType": "string",
							"name": "messageID",
							"type": "string"
						},
						{
							"internalType": "address",
							"name": "initiator",
							"type": "address"
						},
						{
							"internalType": "address",
							"name": "contractAddress",
							"type": "address"
						},
						{
							"internalType": "uint256",
							"name": "voteCount",
							"type": "uint256"
						},
						{
							"internalType": "uint256",
							"name": "expiryDate",
							"type": "uint256"
						},
						{
							"internalType": "uint256",
							"name": "BusinessRequirement",
							"type": "uint256"
						},
						{
							"internalType": "uint256",
							"name": "numApprovals",
							"type": "uint256"
						},
						{
							"internalType": "bool",
							"name": "isCompiled",
							"type": "bool"
						},
						{
							"internalType": "bytes32",
							"name": "finalVerdict",
							"type": "bytes32"
						},
						{
							"internalType": "string",
							"name": "subject",
							"type": "string"
						},
						{
							"internalType": "string",
							"name": "contents",
							"type": "string"
						}
					],
					"stateMutability": "view",
					"type": "function"
				},
				{
					"inputs": [
						{
							"internalType": "string",
							"name": "_messageID",
							"type": "string"
						},
						{
							"internalType": "uint256",
							"name": "expiry",
							"type": "uint256"
						},
						{
							"internalType": "uint256",
							"name": "requiredPercentage",
							"type": "uint256"
						},
						{
							"internalType": "string",
							"name": "contents",
							"type": "string"
						},
						{
							"internalType": "string",
							"name": "subject",
							"type": "string"
						}
					],
					"name": "createContract",
					"outputs": [],
					"stateMutability": "nonpayable",
					"type": "function"
				},
				{
					"inputs": [
						{
							"internalType": "string",
							"name": "_messageID",
							"type": "string"
						}
					],
					"name": "getIsCompiled",
					"outputs": [
						{
							"internalType": "bool",
							"name": "",
							"type": "bool"
						}
					],
					"stateMutability": "view",
					"type": "function"
				},
				{
					"inputs": [
						{
							"internalType": "string",
							"name": "subject",
							"type": "string"
						}
					],
					"name": "getIsCreated",
					"outputs": [
						{
							"components": [
								{
									"internalType": "string",
									"name": "messageID",
									"type": "string"
								},
								{
									"internalType": "address",
									"name": "initiator",
									"type": "address"
								},
								{
									"internalType": "address",
									"name": "contractAddress",
									"type": "address"
								},
								{
									"internalType": "uint256",
									"name": "voteCount",
									"type": "uint256"
								},
								{
									"internalType": "uint256",
									"name": "expiryDate",
									"type": "uint256"
								},
								{
									"internalType": "uint256",
									"name": "BusinessRequirement",
									"type": "uint256"
								},
								{
									"internalType": "uint256",
									"name": "numApprovals",
									"type": "uint256"
								},
								{
									"internalType": "bool",
									"name": "isCompiled",
									"type": "bool"
								},
								{
									"internalType": "bytes32",
									"name": "finalVerdict",
									"type": "bytes32"
								},
								{
									"internalType": "string",
									"name": "subject",
									"type": "string"
								},
								{
									"internalType": "string",
									"name": "contents",
									"type": "string"
								}
							],
							"internalType": "struct BusinessConsensus2.Proposal",
							"name": "",
							"type": "tuple"
						}
					],
					"stateMutability": "view",
					"type": "function"
				},
				{
					"inputs": [
						{
							"internalType": "string",
							"name": "_messageID",
							"type": "string"
						}
					],
					"name": "getParameters",
					"outputs": [
						{
							"internalType": "string",
							"name": "",
							"type": "string"
						},
						{
							"internalType": "uint256",
							"name": "",
							"type": "uint256"
						},
						{
							"internalType": "address",
							"name": "",
							"type": "address"
						},
						{
							"internalType": "uint256",
							"name": "",
							"type": "uint256"
						},
						{
							"internalType": "uint256",
							"name": "",
							"type": "uint256"
						}
					],
					"stateMutability": "view",
					"type": "function"
				},
				{
					"inputs": [
						{
							"internalType": "address",
							"name": "test_address",
							"type": "address"
						},
						{
							"internalType": "string",
							"name": "_messageID",
							"type": "string"
						}
					],
					"name": "getParameters2",
					"outputs": [
						{
							"internalType": "bool",
							"name": "",
							"type": "bool"
						},
						{
							"internalType": "bool",
							"name": "",
							"type": "bool"
						},
						{
							"internalType": "address",
							"name": "",
							"type": "address"
						}
					],
					"stateMutability": "view",
					"type": "function"
				},
				{
					"inputs": [
						{
							"internalType": "string",
							"name": "_messageID",
							"type": "string"
						}
					],
					"name": "getValues",
					"outputs": [
						{
							"internalType": "string",
							"name": "",
							"type": "string"
						}
					],
					"stateMutability": "view",
					"type": "function"
				},
				{
					"inputs": [
						{
							"internalType": "string",
							"name": "",
							"type": "string"
						},
						{
							"internalType": "uint256",
							"name": "",
							"type": "uint256"
						}
					],
					"name": "keys",
					"outputs": [
						{
							"internalType": "address",
							"name": "",
							"type": "address"
						}
					],
					"stateMutability": "view",
					"type": "function"
				},
				{
					"inputs": [
						{
							"internalType": "string",
							"name": "_messageID",
							"type": "string"
						}
					],
					"name": "retrieve_bundle",
					"outputs": [
						{
							"internalType": "bytes32",
							"name": "",
							"type": "bytes32"
						},
						{
							"internalType": "string",
							"name": "",
							"type": "string"
						},
						{
							"internalType": "uint256",
							"name": "",
							"type": "uint256"
						},
						{
							"components": [
								{
									"internalType": "bool",
									"name": "voted",
									"type": "bool"
								},
								{
									"internalType": "bool",
									"name": "vote",
									"type": "bool"
								},
								{
									"internalType": "address",
									"name": "recipient",
									"type": "address"
								}
							],
							"internalType": "struct BusinessConsensus2.Voter[]",
							"name": "",
							"type": "tuple[]"
						}
					],
					"stateMutability": "view",
					"type": "function"
				},
				{
					"inputs": [
						{
							"internalType": "string",
							"name": "",
							"type": "string"
						},
						{
							"internalType": "address",
							"name": "",
							"type": "address"
						}
					],
					"name": "voter_maps",
					"outputs": [
						{
							"internalType": "bool",
							"name": "voted",
							"type": "bool"
						},
						{
							"internalType": "bool",
							"name": "vote",
							"type": "bool"
						},
						{
							"internalType": "address",
							"name": "recipient",
							"type": "address"
						}
					],
					"stateMutability": "view",
					"type": "function"
				}
			],
			"devdoc": {
				"kind": "dev",
				"methods": {},
				"version": 1
			},
			"evm": {
				"assembly": "    /* \"contracts/BusinessConsensus2.sol\":33:7235  contract BusinessConsensus2{\r... */\n  mstore(0x40, 0x80)\n  callvalue\n  dup1\n  iszero\n  tag_1\n  jumpi\n  0x00\n  dup1\n  revert\ntag_1:\n  pop\n  dataSize(sub_0)\n  dup1\n  dataOffset(sub_0)\n  0x00\n  codecopy\n  0x00\n  return\nstop\n\nsub_0: assembly {\n        /* \"contracts/BusinessConsensus2.sol\":33:7235  contract BusinessConsensus2{\r... */\n      mstore(0x40, 0x80)\n      callvalue\n      dup1\n      iszero\n      tag_1\n      jumpi\n      0x00\n      dup1\n      revert\n    tag_1:\n      pop\n      jumpi(tag_2, lt(calldatasize, 0x04))\n      shr(0xe0, calldataload(0x00))\n      dup1\n      0x5a0a1390\n      gt\n      tag_17\n      jumpi\n      dup1\n      0x8f6a35b7\n      gt\n      tag_18\n      jumpi\n      dup1\n      0x8f6a35b7\n      eq\n      tag_13\n      jumpi\n      dup1\n      0xc99ba896\n      eq\n      tag_14\n      jumpi\n      dup1\n      0xc9bc42ed\n      eq\n      tag_15\n      jumpi\n      dup1\n      0xec548680\n      eq\n      tag_16\n      jumpi\n      jump(tag_2)\n    tag_18:\n      dup1\n      0x5a0a1390\n      eq\n      tag_10\n      jumpi\n      dup1\n      0x7b735c46\n      eq\n      tag_11\n      jumpi\n      dup1\n      0x883a9673\n      eq\n      tag_12\n      jumpi\n      jump(tag_2)\n    tag_17:\n      dup1\n      0x17072d6b\n      gt\n      tag_19\n      jumpi\n      dup1\n      0x17072d6b\n      eq\n      tag_6\n      jumpi\n      dup1\n      0x33a0b0ab\n      eq\n      tag_7\n      jumpi\n      dup1\n      0x37f2e190\n      eq\n      tag_8\n      jumpi\n      dup1\n      0x3d63af0e\n      eq\n      tag_9\n      jumpi\n      jump(tag_2)\n    tag_19:\n      dup1\n      0x06699b01\n      eq\n      tag_3\n      jumpi\n      dup1\n      0x089a4c60\n      eq\n      tag_4\n      jumpi\n      dup1\n      0x0952ed75\n      eq\n      tag_5\n      jumpi\n    tag_2:\n      0x00\n      dup1\n      revert\n        /* \"contracts/BusinessConsensus2.sol\":1121:1159  mapping(string=>address[]) public keys */\n    tag_3:\n      tag_20\n      0x04\n      dup1\n      calldatasize\n      sub\n      dup2\n      add\n      swap1\n      tag_21\n      swap2\n      swap1\n      tag_22\n      jump\t// in\n    tag_21:\n      tag_23\n      jump\t// in\n    tag_20:\n      mload(0x40)\n      tag_24\n      swap2\n      swap1\n      tag_25\n      jump\t// in\n    tag_24:\n      mload(0x40)\n      dup1\n      swap2\n      sub\n      swap1\n      return\n        /* \"contracts/BusinessConsensus2.sol\":954:1004  mapping(string=>Proposal) public businessProposals */\n    tag_4:\n      tag_26\n      0x04\n      dup1\n      calldatasize\n      sub\n      dup2\n      add\n      swap1\n      tag_27\n      swap2\n      swap1\n      tag_28\n      jump\t// in\n    tag_27:\n      tag_29\n      jump\t// in\n    tag_26:\n      mload(0x40)\n      tag_30\n      swap12\n      swap11\n      swap10\n      swap9\n      swap8\n      swap7\n      swap6\n      swap5\n      swap4\n      swap3\n      swap2\n      swap1\n      tag_31\n      jump\t// in\n    tag_30:\n      mload(0x40)\n      dup1\n      swap2\n      sub\n      swap1\n      return\n        /* \"contracts/BusinessConsensus2.sol\":1172:2148  function createContract(string memory _messageID, uint256 expiry, uint256 requiredPercentage,string memory contents,string memory subject) external{\r... */\n    tag_5:\n      tag_32\n      0x04\n      dup1\n      calldatasize\n      sub\n      dup2\n      add\n      swap1\n      tag_33\n      swap2\n      swap1\n      tag_34\n      jump\t// in\n    tag_33:\n      tag_35\n      jump\t// in\n    tag_32:\n      stop\n        /* \"contracts/BusinessConsensus2.sol\":4149:5540  function Vote(string memory response,string calldata _messageID) external {\r... */\n    tag_6:\n      tag_36\n      0x04\n      dup1\n      calldatasize\n      sub\n      dup2\n      add\n      swap1\n      tag_37\n      swap2\n      swap1\n      tag_38\n      jump\t// in\n    tag_37:\n      tag_39\n      jump\t// in\n    tag_36:\n      stop\n        /* \"contracts/BusinessConsensus2.sol\":1011:1069  mapping(string=>mapping(address=>Voter)) public voter_maps */\n    tag_7:\n      tag_40\n      0x04\n      dup1\n      calldatasize\n      sub\n      dup2\n      add\n      swap1\n      tag_41\n      swap2\n      swap1\n      tag_42\n      jump\t// in\n    tag_41:\n      tag_43\n      jump\t// in\n    tag_40:\n      mload(0x40)\n      tag_44\n      swap4\n      swap3\n      swap2\n      swap1\n      tag_45\n      jump\t// in\n    tag_44:\n      mload(0x40)\n      dup1\n      swap2\n      sub\n      swap1\n      return\n        /* \"contracts/BusinessConsensus2.sol\":6671:7230  function retrieve_bundle(string calldata _messageID) external view returns (bytes32, string memory, uint256, Voter[] memory){\r... */\n    tag_8:\n      tag_46\n      0x04\n      dup1\n      calldatasize\n      sub\n      dup2\n      add\n      swap1\n      tag_47\n      swap2\n      swap1\n      tag_48\n      jump\t// in\n    tag_47:\n      tag_49\n      jump\t// in\n    tag_46:\n      mload(0x40)\n      tag_50\n      swap5\n      swap4\n      swap3\n      swap2\n      swap1\n      tag_51\n      jump\t// in\n    tag_50:\n      mload(0x40)\n      dup1\n      swap2\n      sub\n      swap1\n      return\n        /* \"contracts/BusinessConsensus2.sol\":3344:4141  function RegisterVoter(address voter,string calldata _messageID) external {\r... */\n    tag_9:\n      tag_52\n      0x04\n      dup1\n      calldatasize\n      sub\n      dup2\n      add\n      swap1\n      tag_53\n      swap2\n      swap1\n      tag_54\n      jump\t// in\n    tag_53:\n      tag_55\n      jump\t// in\n    tag_52:\n      stop\n        /* \"contracts/BusinessConsensus2.sol\":2598:2955  function getParameters(string calldata _messageID) external view returns (string memory, uint , address ,uint ,uint){\r... */\n    tag_10:\n      tag_56\n      0x04\n      dup1\n      calldatasize\n      sub\n      dup2\n      add\n      swap1\n      tag_57\n      swap2\n      swap1\n      tag_48\n      jump\t// in\n    tag_57:\n      tag_58\n      jump\t// in\n    tag_56:\n      mload(0x40)\n      tag_59\n      swap6\n      swap5\n      swap4\n      swap3\n      swap2\n      swap1\n      tag_60\n      jump\t// in\n    tag_59:\n      mload(0x40)\n      dup1\n      swap2\n      sub\n      swap1\n      return\n        /* \"contracts/BusinessConsensus2.sol\":2961:3238  function getParameters2(address test_address,string calldata _messageID) external view returns (bool, bool, address){\r... */\n    tag_11:\n      tag_61\n      0x04\n      dup1\n      calldatasize\n      sub\n      dup2\n      add\n      swap1\n      tag_62\n      swap2\n      swap1\n      tag_54\n      jump\t// in\n    tag_62:\n      tag_63\n      jump\t// in\n    tag_61:\n      mload(0x40)\n      tag_64\n      swap4\n      swap3\n      swap2\n      swap1\n      tag_45\n      jump\t// in\n    tag_64:\n      mload(0x40)\n      dup1\n      swap2\n      sub\n      swap1\n      return\n        /* \"contracts/BusinessConsensus2.sol\":5604:6663  function Consensus(string calldata _messageID) external {\r... */\n    tag_12:\n      tag_65\n      0x04\n      dup1\n      calldatasize\n      sub\n      dup2\n      add\n      swap1\n      tag_66\n      swap2\n      swap1\n      tag_48\n      jump\t// in\n    tag_66:\n      tag_67\n      jump\t// in\n    tag_65:\n      stop\n        /* \"contracts/BusinessConsensus2.sol\":1076:1114  mapping(string=>Voter[]) public Voters */\n    tag_13:\n      tag_68\n      0x04\n      dup1\n      calldatasize\n      sub\n      dup2\n      add\n      swap1\n      tag_69\n      swap2\n      swap1\n      tag_22\n      jump\t// in\n    tag_69:\n      tag_70\n      jump\t// in\n    tag_68:\n      mload(0x40)\n      tag_71\n      swap4\n      swap3\n      swap2\n      swap1\n      tag_45\n      jump\t// in\n    tag_71:\n      mload(0x40)\n      dup1\n      swap2\n      sub\n      swap1\n      return\n        /* \"contracts/BusinessConsensus2.sol\":2154:2301  function getValues(string calldata _messageID) public view returns (string memory){\r... */\n    tag_14:\n      tag_72\n      0x04\n      dup1\n      calldatasize\n      sub\n      dup2\n      add\n      swap1\n      tag_73\n      swap2\n      swap1\n      tag_48\n      jump\t// in\n    tag_73:\n      tag_74\n      jump\t// in\n    tag_72:\n      mload(0x40)\n      tag_75\n      swap2\n      swap1\n      tag_76\n      jump\t// in\n    tag_75:\n      mload(0x40)\n      dup1\n      swap2\n      sub\n      swap1\n      return\n        /* \"contracts/BusinessConsensus2.sol\":2456:2592  function getIsCreated(string calldata subject) public view returns (Proposal memory){\r... */\n    tag_15:\n      tag_77\n      0x04\n      dup1\n      calldatasize\n      sub\n      dup2\n      add\n      swap1\n      tag_78\n      swap2\n      swap1\n      tag_48\n      jump\t// in\n    tag_78:\n      tag_79\n      jump\t// in\n    tag_77:\n      mload(0x40)\n      tag_80\n      swap2\n      swap1\n      tag_81\n      jump\t// in\n    tag_80:\n      mload(0x40)\n      dup1\n      swap2\n      sub\n      swap1\n      return\n        /* \"contracts/BusinessConsensus2.sol\":2307:2450  function getIsCompiled(string calldata _messageID) public view returns (bool){\r... */\n    tag_16:\n      tag_82\n      0x04\n      dup1\n      calldatasize\n      sub\n      dup2\n      add\n      swap1\n      tag_83\n      swap2\n      swap1\n      tag_48\n      jump\t// in\n    tag_83:\n      tag_84\n      jump\t// in\n    tag_82:\n      mload(0x40)\n      tag_85\n      swap2\n      swap1\n      tag_86\n      jump\t// in\n    tag_85:\n      mload(0x40)\n      dup1\n      swap2\n      sub\n      swap1\n      return\n        /* \"contracts/BusinessConsensus2.sol\":1121:1159  mapping(string=>address[]) public keys */\n    tag_23:\n      0x03\n      dup3\n      dup1\n      mload\n      0x20\n      dup2\n      add\n      dup3\n      add\n      dup1\n      mload\n      dup5\n      dup3\n      mstore\n      0x20\n      dup4\n      add\n      0x20\n      dup6\n      add\n      keccak256\n      dup2\n      dup4\n      mstore\n      dup1\n      swap6\n      pop\n      pop\n      pop\n      pop\n      pop\n      pop\n      dup2\n      dup2\n      sload\n      dup2\n      lt\n      tag_87\n      jumpi\n      0x00\n      dup1\n      revert\n    tag_87:\n      swap1\n      0x00\n      mstore\n      keccak256(0x00, 0x20)\n      add\n      0x00\n      swap2\n      pop\n      swap2\n      pop\n      swap1\n      sload\n      swap1\n      0x0100\n      exp\n      swap1\n      div\n      0xffffffffffffffffffffffffffffffffffffffff\n      and\n      dup2\n      jump\t// out\n        /* \"contracts/BusinessConsensus2.sol\":954:1004  mapping(string=>Proposal) public businessProposals */\n    tag_29:\n      0x00\n      dup2\n      dup1\n      mload\n      0x20\n      dup2\n      add\n      dup3\n      add\n      dup1\n      mload\n      dup5\n      dup3\n      mstore\n      0x20\n      dup4\n      add\n      0x20\n      dup6\n      add\n      keccak256\n      dup2\n      dup4\n      mstore\n      dup1\n      swap6\n      pop\n      pop\n      pop\n      pop\n      pop\n      pop\n      0x00\n      swap2\n      pop\n      swap1\n      pop\n      dup1\n      0x00\n      add\n      dup1\n      sload\n      tag_89\n      swap1\n      tag_90\n      jump\t// in\n    tag_89:\n      dup1\n      0x1f\n      add\n      0x20\n      dup1\n      swap2\n      div\n      mul\n      0x20\n      add\n      mload(0x40)\n      swap1\n      dup2\n      add\n      0x40\n      mstore\n      dup1\n      swap3\n      swap2\n      swap1\n      dup2\n      dup2\n      mstore\n      0x20\n      add\n      dup3\n      dup1\n      sload\n      tag_91\n      swap1\n      tag_90\n      jump\t// in\n    tag_91:\n      dup1\n      iszero\n      tag_92\n      jumpi\n      dup1\n      0x1f\n      lt\n      tag_93\n      jumpi\n      0x0100\n      dup1\n      dup4\n      sload\n      div\n      mul\n      dup4\n      mstore\n      swap2\n      0x20\n      add\n      swap2\n      jump(tag_92)\n    tag_93:\n      dup3\n      add\n      swap2\n      swap1\n      0x00\n      mstore\n      keccak256(0x00, 0x20)\n      swap1\n    tag_94:\n      dup2\n      sload\n      dup2\n      mstore\n      swap1\n      0x01\n      add\n      swap1\n      0x20\n      add\n      dup1\n      dup4\n      gt\n      tag_94\n      jumpi\n      dup3\n      swap1\n      sub\n      0x1f\n      and\n      dup3\n      add\n      swap2\n    tag_92:\n      pop\n      pop\n      pop\n      pop\n      pop\n      swap1\n      dup1\n      0x01\n      add\n      0x00\n      swap1\n      sload\n      swap1\n      0x0100\n      exp\n      swap1\n      div\n      0xffffffffffffffffffffffffffffffffffffffff\n      and\n      swap1\n      dup1\n      0x02\n      add\n      0x00\n      swap1\n      sload\n      swap1\n      0x0100\n      exp\n      swap1\n      div\n      0xffffffffffffffffffffffffffffffffffffffff\n      and\n      swap1\n      dup1\n      0x03\n      add\n      sload\n      swap1\n      dup1\n      0x04\n      add\n      sload\n      swap1\n      dup1\n      0x05\n      add\n      sload\n      swap1\n      dup1\n      0x06\n      add\n      sload\n      swap1\n      dup1\n      0x07\n      add\n      0x00\n      swap1\n      sload\n      swap1\n      0x0100\n      exp\n      swap1\n      div\n      0xff\n      and\n      swap1\n      dup1\n      0x08\n      add\n      sload\n      swap1\n      dup1\n      0x09\n      add\n      dup1\n      sload\n      tag_95\n      swap1\n      tag_90\n      jump\t// in\n    tag_95:\n      dup1\n      0x1f\n      add\n      0x20\n      dup1\n      swap2\n      div\n      mul\n      0x20\n      add\n      mload(0x40)\n      swap1\n      dup2\n      add\n      0x40\n      mstore\n      dup1\n      swap3\n      swap2\n      swap1\n      dup2\n      dup2\n      mstore\n      0x20\n      add\n      dup3\n      dup1\n      sload\n      tag_96\n      swap1\n      tag_90\n      jump\t// in\n    tag_96:\n      dup1\n      iszero\n      tag_97\n      jumpi\n      dup1\n      0x1f\n      lt\n      tag_98\n      jumpi\n      0x0100\n      dup1\n      dup4\n      sload\n      div\n      mul\n      dup4\n      mstore\n      swap2\n      0x20\n      add\n      swap2\n      jump(tag_97)\n    tag_98:\n      dup3\n      add\n      swap2\n      swap1\n      0x00\n      mstore\n      keccak256(0x00, 0x20)\n      swap1\n    tag_99:\n      dup2\n      sload\n      dup2\n      mstore\n      swap1\n      0x01\n      add\n      swap1\n      0x20\n      add\n      dup1\n      dup4\n      gt\n      tag_99\n      jumpi\n      dup3\n      swap1\n      sub\n      0x1f\n      and\n      dup3\n      add\n      swap2\n    tag_97:\n      pop\n      pop\n      pop\n      pop\n      pop\n      swap1\n      dup1\n      0x0a\n      add\n      dup1\n      sload\n      tag_100\n      swap1\n      tag_90\n      jump\t// in\n    tag_100:\n      dup1\n      0x1f\n      add\n      0x20\n      dup1\n      swap2\n      div\n      mul\n      0x20\n      add\n      mload(0x40)\n      swap1\n      dup2\n      add\n      0x40\n      mstore\n      dup1\n      swap3\n      swap2\n      swap1\n      dup2\n      dup2\n      mstore\n      0x20\n      add\n      dup3\n      dup1\n      sload\n      tag_101\n      swap1\n      tag_90\n      jump\t// in\n    tag_101:\n      dup1\n      iszero\n      tag_102\n      jumpi\n      dup1\n      0x1f\n      lt\n      tag_103\n      jumpi\n      0x0100\n      dup1\n      dup4\n      sload\n      div\n      mul\n      dup4\n      mstore\n      swap2\n      0x20\n      add\n      swap2\n      jump(tag_102)\n    tag_103:\n      dup3\n      add\n      swap2\n      swap1\n      0x00\n      mstore\n      keccak256(0x00, 0x20)\n      swap1\n    tag_104:\n      dup2\n      sload\n      dup2\n      mstore\n      swap1\n      0x01\n      add\n      swap1\n      0x20\n      add\n      dup1\n      dup4\n      gt\n      tag_104\n      jumpi\n      dup3\n      swap1\n      sub\n      0x1f\n      and\n      dup3\n      add\n      swap2\n    tag_102:\n      pop\n      pop\n      pop\n      pop\n      pop\n      swap1\n      pop\n      dup12\n      jump\t// out\n        /* \"contracts/BusinessConsensus2.sol\":1172:2148  function createContract(string memory _messageID, uint256 expiry, uint256 requiredPercentage,string memory contents,string memory subject) external{\r... */\n    tag_35:\n        /* \"contracts/BusinessConsensus2.sol\":1474:1475  0 */\n      0x00\n        /* \"contracts/BusinessConsensus2.sol\":1423:1476  businessProposals[_messageID].initiator == address(0) */\n      0xffffffffffffffffffffffffffffffffffffffff\n      and\n        /* \"contracts/BusinessConsensus2.sol\":1423:1440  businessProposals */\n      0x00\n        /* \"contracts/BusinessConsensus2.sol\":1441:1451  _messageID */\n      dup7\n        /* \"contracts/BusinessConsensus2.sol\":1423:1452  businessProposals[_messageID] */\n      mload(0x40)\n      tag_106\n      swap2\n      swap1\n      tag_107\n      jump\t// in\n    tag_106:\n      swap1\n      dup2\n      mstore\n      0x20\n      add\n      mload(0x40)\n      dup1\n      swap2\n      sub\n      swap1\n      keccak256\n        /* \"contracts/BusinessConsensus2.sol\":1423:1462  businessProposals[_messageID].initiator */\n      0x01\n      add\n      0x00\n      swap1\n      sload\n      swap1\n      0x0100\n      exp\n      swap1\n      div\n      0xffffffffffffffffffffffffffffffffffffffff\n      and\n        /* \"contracts/BusinessConsensus2.sol\":1423:1476  businessProposals[_messageID].initiator == address(0) */\n      0xffffffffffffffffffffffffffffffffffffffff\n      and\n      eq\n        /* \"contracts/BusinessConsensus2.sol\":1415:1505  require(businessProposals[_messageID].initiator == address(0),\"Proposal already created!\") */\n      tag_108\n      jumpi\n      mload(0x40)\n      0x08c379a000000000000000000000000000000000000000000000000000000000\n      dup2\n      mstore\n      0x04\n      add\n      tag_109\n      swap1\n      tag_110\n      jump\t// in\n    tag_109:\n      mload(0x40)\n      dup1\n      swap2\n      sub\n      swap1\n      revert\n    tag_108:\n        /* \"contracts/BusinessConsensus2.sol\":1516:1540  Proposal memory proposal */\n      0x00\n        /* \"contracts/BusinessConsensus2.sol\":1543:2033  Proposal({\r... */\n      mload(0x40)\n      dup1\n      0x0160\n      add\n      0x40\n      mstore\n      dup1\n        /* \"contracts/BusinessConsensus2.sol\":1613:1623  _messageID */\n      dup8\n        /* \"contracts/BusinessConsensus2.sol\":1543:2033  Proposal({\r... */\n      dup2\n      mstore\n      0x20\n      add\n        /* \"contracts/BusinessConsensus2.sol\":1785:1795  msg.sender */\n      caller\n        /* \"contracts/BusinessConsensus2.sol\":1543:2033  Proposal({\r... */\n      0xffffffffffffffffffffffffffffffffffffffff\n      and\n      dup2\n      mstore\n      0x20\n      add\n        /* \"contracts/BusinessConsensus2.sol\":1668:1672  this */\n      address\n        /* \"contracts/BusinessConsensus2.sol\":1543:2033  Proposal({\r... */\n      0xffffffffffffffffffffffffffffffffffffffff\n      and\n      dup2\n      mstore\n      0x20\n      add\n        /* \"contracts/BusinessConsensus2.sol\":1582:1583  0 */\n      0x00\n        /* \"contracts/BusinessConsensus2.sol\":1543:2033  Proposal({\r... */\n      dup2\n      mstore\n      0x20\n      add\n        /* \"contracts/BusinessConsensus2.sol\":1845:1851  expiry */\n      dup7\n        /* \"contracts/BusinessConsensus2.sol\":1827:1842  block.timestamp */\n      timestamp\n        /* \"contracts/BusinessConsensus2.sol\":1827:1851  block.timestamp + expiry */\n      tag_111\n      swap2\n      swap1\n      tag_112\n      jump\t// in\n    tag_111:\n        /* \"contracts/BusinessConsensus2.sol\":1543:2033  Proposal({\r... */\n      dup2\n      mstore\n      0x20\n      add\n        /* \"contracts/BusinessConsensus2.sol\":1892:1910  requiredPercentage */\n      dup6\n        /* \"contracts/BusinessConsensus2.sol\":1543:2033  Proposal({\r... */\n      dup2\n      mstore\n      0x20\n      add\n        /* \"contracts/BusinessConsensus2.sol\":1944:1945  0 */\n      0x00\n        /* \"contracts/BusinessConsensus2.sol\":1543:2033  Proposal({\r... */\n      dup2\n      mstore\n      0x20\n      add\n        /* \"contracts/BusinessConsensus2.sol\":1749:1754  false */\n      0x00\n        /* \"contracts/BusinessConsensus2.sol\":1543:2033  Proposal({\r... */\n      iszero\n      iszero\n      dup2\n      mstore\n      0x20\n      add\n      0x52656a6563746564000000000000000000000000000000000000000000000000\n      dup2\n      mstore\n      0x20\n      add\n        /* \"contracts/BusinessConsensus2.sol\":1973:1980  subject */\n      dup4\n        /* \"contracts/BusinessConsensus2.sol\":1543:2033  Proposal({\r... */\n      dup2\n      mstore\n      0x20\n      add\n        /* \"contracts/BusinessConsensus2.sol\":2009:2017  contents */\n      dup5\n        /* \"contracts/BusinessConsensus2.sol\":1543:2033  Proposal({\r... */\n      dup2\n      mstore\n      pop\n        /* \"contracts/BusinessConsensus2.sol\":1516:2033  Proposal memory proposal = Proposal({\r... */\n      swap1\n      pop\n        /* \"contracts/BusinessConsensus2.sol\":2080:2088  proposal */\n      dup1\n        /* \"contracts/BusinessConsensus2.sol\":2048:2065  businessProposals */\n      0x00\n        /* \"contracts/BusinessConsensus2.sol\":2066:2076  _messageID */\n      dup8\n        /* \"contracts/BusinessConsensus2.sol\":2048:2077  businessProposals[_messageID] */\n      mload(0x40)\n      tag_113\n      swap2\n      swap1\n      tag_107\n      jump\t// in\n    tag_113:\n      swap1\n      dup2\n      mstore\n      0x20\n      add\n      mload(0x40)\n      dup1\n      swap2\n      sub\n      swap1\n      keccak256\n        /* \"contracts/BusinessConsensus2.sol\":2048:2088  businessProposals[_messageID] = proposal */\n      0x00\n      dup3\n      add\n      mload\n      dup2\n      0x00\n      add\n      swap1\n      dup1\n      mload\n      swap1\n      0x20\n      add\n      swap1\n      tag_114\n      swap3\n      swap2\n      swap1\n      tag_115\n      jump\t// in\n    tag_114:\n      pop\n      0x20\n      dup3\n      add\n      mload\n      dup2\n      0x01\n      add\n      exp(0x0100, 0x00)\n      dup2\n      sload\n      dup2\n      0xffffffffffffffffffffffffffffffffffffffff\n      mul\n      not\n      and\n      swap1\n      dup4\n      0xffffffffffffffffffffffffffffffffffffffff\n      and\n      mul\n      or\n      swap1\n      sstore\n      pop\n      0x40\n      dup3\n      add\n      mload\n      dup2\n      0x02\n      add\n      exp(0x0100, 0x00)\n      dup2\n      sload\n      dup2\n      0xffffffffffffffffffffffffffffffffffffffff\n      mul\n      not\n      and\n      swap1\n      dup4\n      0xffffffffffffffffffffffffffffffffffffffff\n      and\n      mul\n      or\n      swap1\n      sstore\n      pop\n      0x60\n      dup3\n      add\n      mload\n      dup2\n      0x03\n      add\n      sstore\n      0x80\n      dup3\n      add\n      mload\n      dup2\n      0x04\n      add\n      sstore\n      0xa0\n      dup3\n      add\n      mload\n      dup2\n      0x05\n      add\n      sstore\n      0xc0\n      dup3\n      add\n      mload\n      dup2\n      0x06\n      add\n      sstore\n      0xe0\n      dup3\n      add\n      mload\n      dup2\n      0x07\n      add\n      exp(0x0100, 0x00)\n      dup2\n      sload\n      dup2\n      0xff\n      mul\n      not\n      and\n      swap1\n      dup4\n      iszero\n      iszero\n      mul\n      or\n      swap1\n      sstore\n      pop\n      0x0100\n      dup3\n      add\n      mload\n      dup2\n      0x08\n      add\n      sstore\n      0x0120\n      dup3\n      add\n      mload\n      dup2\n      0x09\n      add\n      swap1\n      dup1\n      mload\n      swap1\n      0x20\n      add\n      swap1\n      tag_116\n      swap3\n      swap2\n      swap1\n      tag_115\n      jump\t// in\n    tag_116:\n      pop\n      0x0140\n      dup3\n      add\n      mload\n      dup2\n      0x0a\n      add\n      swap1\n      dup1\n      mload\n      swap1\n      0x20\n      add\n      swap1\n      tag_117\n      swap3\n      swap2\n      swap1\n      tag_115\n      jump\t// in\n    tag_117:\n      pop\n      swap1\n      pop\n      pop\n        /* \"contracts/BusinessConsensus2.sol\":2132:2140  proposal */\n      dup1\n        /* \"contracts/BusinessConsensus2.sol\":2103:2120  businessProposals */\n      0x00\n        /* \"contracts/BusinessConsensus2.sol\":2121:2128  subject */\n      dup4\n        /* \"contracts/BusinessConsensus2.sol\":2103:2129  businessProposals[subject] */\n      mload(0x40)\n      tag_118\n      swap2\n      swap1\n      tag_107\n      jump\t// in\n    tag_118:\n      swap1\n      dup2\n      mstore\n      0x20\n      add\n      mload(0x40)\n      dup1\n      swap2\n      sub\n      swap1\n      keccak256\n        /* \"contracts/BusinessConsensus2.sol\":2103:2140  businessProposals[subject] = proposal */\n      0x00\n      dup3\n      add\n      mload\n      dup2\n      0x00\n      add\n      swap1\n      dup1\n      mload\n      swap1\n      0x20\n      add\n      swap1\n      tag_119\n      swap3\n      swap2\n      swap1\n      tag_115\n      jump\t// in\n    tag_119:\n      pop\n      0x20\n      dup3\n      add\n      mload\n      dup2\n      0x01\n      add\n      exp(0x0100, 0x00)\n      dup2\n      sload\n      dup2\n      0xffffffffffffffffffffffffffffffffffffffff\n      mul\n      not\n      and\n      swap1\n      dup4\n      0xffffffffffffffffffffffffffffffffffffffff\n      and\n      mul\n      or\n      swap1\n      sstore\n      pop\n      0x40\n      dup3\n      add\n      mload\n      dup2\n      0x02\n      add\n      exp(0x0100, 0x00)\n      dup2\n      sload\n      dup2\n      0xffffffffffffffffffffffffffffffffffffffff\n      mul\n      not\n      and\n      swap1\n      dup4\n      0xffffffffffffffffffffffffffffffffffffffff\n      and\n      mul\n      or\n      swap1\n      sstore\n      pop\n      0x60\n      dup3\n      add\n      mload\n      dup2\n      0x03\n      add\n      sstore\n      0x80\n      dup3\n      add\n      mload\n      dup2\n      0x04\n      add\n      sstore\n      0xa0\n      dup3\n      add\n      mload\n      dup2\n      0x05\n      add\n      sstore\n      0xc0\n      dup3\n      add\n      mload\n      dup2\n      0x06\n      add\n      sstore\n      0xe0\n      dup3\n      add\n      mload\n      dup2\n      0x07\n      add\n      exp(0x0100, 0x00)\n      dup2\n      sload\n      dup2\n      0xff\n      mul\n      not\n      and\n      swap1\n      dup4\n      iszero\n      iszero\n      mul\n      or\n      swap1\n      sstore\n      pop\n      0x0100\n      dup3\n      add\n      mload\n      dup2\n      0x08\n      add\n      sstore\n      0x0120\n      dup3\n      add\n      mload\n      dup2\n      0x09\n      add\n      swap1\n      dup1\n      mload\n      swap1\n      0x20\n      add\n      swap1\n      tag_120\n      swap3\n      swap2\n      swap1\n      tag_115\n      jump\t// in\n    tag_120:\n      pop\n      0x0140\n      dup3\n      add\n      mload\n      dup2\n      0x0a\n      add\n      swap1\n      dup1\n      mload\n      swap1\n      0x20\n      add\n      swap1\n      tag_121\n      swap3\n      swap2\n      swap1\n      tag_115\n      jump\t// in\n    tag_121:\n      pop\n      swap1\n      pop\n      pop\n        /* \"contracts/BusinessConsensus2.sol\":1319:2148  {\r... */\n      pop\n        /* \"contracts/BusinessConsensus2.sol\":1172:2148  function createContract(string memory _messageID, uint256 expiry, uint256 requiredPercentage,string memory contents,string memory subject) external{\r... */\n      pop\n      pop\n      pop\n      pop\n      pop\n      jump\t// out\n        /* \"contracts/BusinessConsensus2.sol\":4149:5540  function Vote(string memory response,string calldata _messageID) external {\r... */\n    tag_39:\n        /* \"contracts/BusinessConsensus2.sol\":4262:4279  businessProposals */\n      0x00\n        /* \"contracts/BusinessConsensus2.sol\":4280:4290  _messageID */\n      dup3\n      dup3\n        /* \"contracts/BusinessConsensus2.sol\":4262:4291  businessProposals[_messageID] */\n      mload(0x40)\n      tag_123\n      swap3\n      swap2\n      swap1\n      tag_124\n      jump\t// in\n    tag_123:\n      swap1\n      dup2\n      mstore\n      0x20\n      add\n      mload(0x40)\n      dup1\n      swap2\n      sub\n      swap1\n      keccak256\n        /* \"contracts/BusinessConsensus2.sol\":4262:4302  businessProposals[_messageID].expiryDate */\n      0x04\n      add\n      sload\n        /* \"contracts/BusinessConsensus2.sol\":4244:4259  block.timestamp */\n      timestamp\n        /* \"contracts/BusinessConsensus2.sol\":4244:4302  block.timestamp < businessProposals[_messageID].expiryDate */\n      lt\n        /* \"contracts/BusinessConsensus2.sol\":4236:4325  require(block.timestamp < businessProposals[_messageID].expiryDate, \"Voting has expired\") */\n      tag_125\n      jumpi\n      mload(0x40)\n      0x08c379a000000000000000000000000000000000000000000000000000000000\n      dup2\n      mstore\n      0x04\n      add\n      tag_126\n      swap1\n      tag_127\n      jump\t// in\n    tag_126:\n      mload(0x40)\n      dup1\n      swap2\n      sub\n      swap1\n      revert\n    tag_125:\n        /* \"contracts/BusinessConsensus2.sol\":4400:4403  0x0 */\n      0x00\n        /* \"contracts/BusinessConsensus2.sol\":4344:4404  voter_maps[_messageID][msg.sender].recipient != address(0x0) */\n      0xffffffffffffffffffffffffffffffffffffffff\n      and\n        /* \"contracts/BusinessConsensus2.sol\":4344:4354  voter_maps */\n      0x01\n        /* \"contracts/BusinessConsensus2.sol\":4355:4365  _messageID */\n      dup4\n      dup4\n        /* \"contracts/BusinessConsensus2.sol\":4344:4366  voter_maps[_messageID] */\n      mload(0x40)\n      tag_128\n      swap3\n      swap2\n      swap1\n      tag_124\n      jump\t// in\n    tag_128:\n      swap1\n      dup2\n      mstore\n      0x20\n      add\n      mload(0x40)\n      dup1\n      swap2\n      sub\n      swap1\n      keccak256\n        /* \"contracts/BusinessConsensus2.sol\":4344:4378  voter_maps[_messageID][msg.sender] */\n      0x00\n        /* \"contracts/BusinessConsensus2.sol\":4367:4377  msg.sender */\n      caller\n        /* \"contracts/BusinessConsensus2.sol\":4344:4378  voter_maps[_messageID][msg.sender] */\n      0xffffffffffffffffffffffffffffffffffffffff\n      and\n      0xffffffffffffffffffffffffffffffffffffffff\n      and\n      dup2\n      mstore\n      0x20\n      add\n      swap1\n      dup2\n      mstore\n      0x20\n      add\n      0x00\n      keccak256\n        /* \"contracts/BusinessConsensus2.sol\":4344:4388  voter_maps[_messageID][msg.sender].recipient */\n      0x00\n      add\n      0x02\n      swap1\n      sload\n      swap1\n      0x0100\n      exp\n      swap1\n      div\n      0xffffffffffffffffffffffffffffffffffffffff\n      and\n        /* \"contracts/BusinessConsensus2.sol\":4344:4404  voter_maps[_messageID][msg.sender].recipient != address(0x0) */\n      0xffffffffffffffffffffffffffffffffffffffff\n      and\n      eq\n      iszero\n        /* \"contracts/BusinessConsensus2.sol\":4336:4439  require(voter_maps[_messageID][msg.sender].recipient != address(0x0), \"You are not registered to vote\") */\n      tag_129\n      jumpi\n      mload(0x40)\n      0x08c379a000000000000000000000000000000000000000000000000000000000\n      dup2\n      mstore\n      0x04\n      add\n      tag_130\n      swap1\n      tag_131\n      jump\t// in\n    tag_130:\n      mload(0x40)\n      dup1\n      swap2\n      sub\n      swap1\n      revert\n    tag_129:\n        /* \"contracts/BusinessConsensus2.sol\":4459:4469  voter_maps */\n      0x01\n        /* \"contracts/BusinessConsensus2.sol\":4470:4480  _messageID */\n      dup3\n      dup3\n        /* \"contracts/BusinessConsensus2.sol\":4459:4481  voter_maps[_messageID] */\n      mload(0x40)\n      tag_132\n      swap3\n      swap2\n      swap1\n      tag_124\n      jump\t// in\n    tag_132:\n      swap1\n      dup2\n      mstore\n      0x20\n      add\n      mload(0x40)\n      dup1\n      swap2\n      sub\n      swap1\n      keccak256\n        /* \"contracts/BusinessConsensus2.sol\":4459:4493  voter_maps[_messageID][msg.sender] */\n      0x00\n        /* \"contracts/BusinessConsensus2.sol\":4482:4492  msg.sender */\n      caller\n        /* \"contracts/BusinessConsensus2.sol\":4459:4493  voter_maps[_messageID][msg.sender] */\n      0xffffffffffffffffffffffffffffffffffffffff\n      and\n      0xffffffffffffffffffffffffffffffffffffffff\n      and\n      dup2\n      mstore\n      0x20\n      add\n      swap1\n      dup2\n      mstore\n      0x20\n      add\n      0x00\n      keccak256\n        /* \"contracts/BusinessConsensus2.sol\":4459:4499  voter_maps[_messageID][msg.sender].voted */\n      0x00\n      add\n      0x00\n      swap1\n      sload\n      swap1\n      0x0100\n      exp\n      swap1\n      div\n      0xff\n      and\n        /* \"contracts/BusinessConsensus2.sol\":4458:4499  !voter_maps[_messageID][msg.sender].voted */\n      iszero\n        /* \"contracts/BusinessConsensus2.sol\":4450:4532  require(!voter_maps[_messageID][msg.sender].voted, \"You already sent a response.\") */\n      tag_133\n      jumpi\n      mload(0x40)\n      0x08c379a000000000000000000000000000000000000000000000000000000000\n      dup2\n      mstore\n      0x04\n      add\n      tag_134\n      swap1\n      tag_135\n      jump\t// in\n    tag_134:\n      mload(0x40)\n      dup1\n      swap2\n      sub\n      swap1\n      revert\n    tag_133:\n        /* \"contracts/BusinessConsensus2.sol\":4588:4606  bytes(\"i approve\") */\n      mload(0x40)\n      dup1\n      0x40\n      add\n      0x40\n      mstore\n      dup1\n      0x09\n      dup2\n      mstore\n      0x20\n      add\n      0x6920617070726f76650000000000000000000000000000000000000000000000\n      dup2\n      mstore\n      pop\n        /* \"contracts/BusinessConsensus2.sol\":4578:4607  keccak256(bytes(\"i approve\")) */\n      dup1\n      mload\n      swap1\n      0x20\n      add\n      keccak256\n        /* \"contracts/BusinessConsensus2.sol\":4564:4572  response */\n      dup4\n        /* \"contracts/BusinessConsensus2.sol\":4548:4574  keccak256(bytes(response)) */\n      dup1\n      mload\n      swap1\n      0x20\n      add\n      keccak256\n        /* \"contracts/BusinessConsensus2.sol\":4548:4607  keccak256(bytes(response)) == keccak256(bytes(\"i approve\")) */\n      eq\n        /* \"contracts/BusinessConsensus2.sol\":4545:5523  if(keccak256(bytes(response)) == keccak256(bytes(\"i approve\"))){\r... */\n      iszero\n      tag_136\n      jumpi\n        /* \"contracts/BusinessConsensus2.sol\":4666:4670  true */\n      0x01\n        /* \"contracts/BusinessConsensus2.sol\":4623:4633  voter_maps */\n      dup1\n        /* \"contracts/BusinessConsensus2.sol\":4634:4644  _messageID */\n      dup4\n      dup4\n        /* \"contracts/BusinessConsensus2.sol\":4623:4645  voter_maps[_messageID] */\n      mload(0x40)\n      tag_137\n      swap3\n      swap2\n      swap1\n      tag_124\n      jump\t// in\n    tag_137:\n      swap1\n      dup2\n      mstore\n      0x20\n      add\n      mload(0x40)\n      dup1\n      swap2\n      sub\n      swap1\n      keccak256\n        /* \"contracts/BusinessConsensus2.sol\":4623:4657  voter_maps[_messageID][msg.sender] */\n      0x00\n        /* \"contracts/BusinessConsensus2.sol\":4646:4656  msg.sender */\n      caller\n        /* \"contracts/BusinessConsensus2.sol\":4623:4657  voter_maps[_messageID][msg.sender] */\n      0xffffffffffffffffffffffffffffffffffffffff\n      and\n      0xffffffffffffffffffffffffffffffffffffffff\n      and\n      dup2\n      mstore\n      0x20\n      add\n      swap1\n      dup2\n      mstore\n      0x20\n      add\n      0x00\n      keccak256\n        /* \"contracts/BusinessConsensus2.sol\":4623:4663  voter_maps[_messageID][msg.sender].voted */\n      0x00\n      add\n      0x00\n        /* \"contracts/BusinessConsensus2.sol\":4623:4670  voter_maps[_messageID][msg.sender].voted = true */\n      0x0100\n      exp\n      dup2\n      sload\n      dup2\n      0xff\n      mul\n      not\n      and\n      swap1\n      dup4\n      iszero\n      iszero\n      mul\n      or\n      swap1\n      sstore\n      pop\n        /* \"contracts/BusinessConsensus2.sol\":4727:4731  true */\n      0x01\n        /* \"contracts/BusinessConsensus2.sol\":4685:4695  voter_maps */\n      dup1\n        /* \"contracts/BusinessConsensus2.sol\":4696:4706  _messageID */\n      dup4\n      dup4\n        /* \"contracts/BusinessConsensus2.sol\":4685:4707  voter_maps[_messageID] */\n      mload(0x40)\n      tag_138\n      swap3\n      swap2\n      swap1\n      tag_124\n      jump\t// in\n    tag_138:\n      swap1\n      dup2\n      mstore\n      0x20\n      add\n      mload(0x40)\n      dup1\n      swap2\n      sub\n      swap1\n      keccak256\n        /* \"contracts/BusinessConsensus2.sol\":4685:4719  voter_maps[_messageID][msg.sender] */\n      0x00\n        /* \"contracts/BusinessConsensus2.sol\":4708:4718  msg.sender */\n      caller\n        /* \"contracts/BusinessConsensus2.sol\":4685:4719  voter_maps[_messageID][msg.sender] */\n      0xffffffffffffffffffffffffffffffffffffffff\n      and\n      0xffffffffffffffffffffffffffffffffffffffff\n      and\n      dup2\n      mstore\n      0x20\n      add\n      swap1\n      dup2\n      mstore\n      0x20\n      add\n      0x00\n      keccak256\n        /* \"contracts/BusinessConsensus2.sol\":4685:4724  voter_maps[_messageID][msg.sender].vote */\n      0x00\n      add\n      0x01\n        /* \"contracts/BusinessConsensus2.sol\":4685:4731  voter_maps[_messageID][msg.sender].vote = true */\n      0x0100\n      exp\n      dup2\n      sload\n      dup2\n      0xff\n      mul\n      not\n      and\n      swap1\n      dup4\n      iszero\n      iszero\n      mul\n      or\n      swap1\n      sstore\n      pop\n        /* \"contracts/BusinessConsensus2.sol\":4792:4793  1 */\n      0x01\n        /* \"contracts/BusinessConsensus2.sol\":4746:4763  businessProposals */\n      0x00\n        /* \"contracts/BusinessConsensus2.sol\":4764:4774  _messageID */\n      dup4\n      dup4\n        /* \"contracts/BusinessConsensus2.sol\":4746:4775  businessProposals[_messageID] */\n      mload(0x40)\n      tag_139\n      swap3\n      swap2\n      swap1\n      tag_124\n      jump\t// in\n    tag_139:\n      swap1\n      dup2\n      mstore\n      0x20\n      add\n      mload(0x40)\n      dup1\n      swap2\n      sub\n      swap1\n      keccak256\n        /* \"contracts/BusinessConsensus2.sol\":4746:4788  businessProposals[_messageID].numApprovals */\n      0x06\n      add\n      0x00\n        /* \"contracts/BusinessConsensus2.sol\":4746:4793  businessProposals[_messageID].numApprovals += 1 */\n      dup3\n      dup3\n      sload\n      tag_140\n      swap2\n      swap1\n      tag_112\n      jump\t// in\n    tag_140:\n      swap3\n      pop\n      pop\n      dup2\n      swap1\n      sstore\n      pop\n        /* \"contracts/BusinessConsensus2.sol\":4851:4852  1 */\n      0x01\n        /* \"contracts/BusinessConsensus2.sol\":4808:4825  businessProposals */\n      0x00\n        /* \"contracts/BusinessConsensus2.sol\":4826:4836  _messageID */\n      dup4\n      dup4\n        /* \"contracts/BusinessConsensus2.sol\":4808:4837  businessProposals[_messageID] */\n      mload(0x40)\n      tag_141\n      swap3\n      swap2\n      swap1\n      tag_124\n      jump\t// in\n    tag_141:\n      swap1\n      dup2\n      mstore\n      0x20\n      add\n      mload(0x40)\n      dup1\n      swap2\n      sub\n      swap1\n      keccak256\n        /* \"contracts/BusinessConsensus2.sol\":4808:4847  businessProposals[_messageID].voteCount */\n      0x03\n      add\n      0x00\n        /* \"contracts/BusinessConsensus2.sol\":4808:4852  businessProposals[_messageID].voteCount += 1 */\n      dup3\n      dup3\n      sload\n      tag_142\n      swap2\n      swap1\n      tag_112\n      jump\t// in\n    tag_142:\n      swap3\n      pop\n      pop\n      dup2\n      swap1\n      sstore\n      pop\n        /* \"contracts/BusinessConsensus2.sol\":4867:4873  Voters */\n      0x02\n        /* \"contracts/BusinessConsensus2.sol\":4874:4884  _messageID */\n      dup3\n      dup3\n        /* \"contracts/BusinessConsensus2.sol\":4867:4885  Voters[_messageID] */\n      mload(0x40)\n      tag_143\n      swap3\n      swap2\n      swap1\n      tag_124\n      jump\t// in\n    tag_143:\n      swap1\n      dup2\n      mstore\n      0x20\n      add\n      mload(0x40)\n      dup1\n      swap2\n      sub\n      swap1\n      keccak256\n        /* \"contracts/BusinessConsensus2.sol\":4891:4901  voter_maps */\n      0x01\n        /* \"contracts/BusinessConsensus2.sol\":4902:4912  _messageID */\n      dup4\n      dup4\n        /* \"contracts/BusinessConsensus2.sol\":4891:4913  voter_maps[_messageID] */\n      mload(0x40)\n      tag_144\n      swap3\n      swap2\n      swap1\n      tag_124\n      jump\t// in\n    tag_144:\n      swap1\n      dup2\n      mstore\n      0x20\n      add\n      mload(0x40)\n      dup1\n      swap2\n      sub\n      swap1\n      keccak256\n        /* \"contracts/BusinessConsensus2.sol\":4891:4925  voter_maps[_messageID][msg.sender] */\n      0x00\n        /* \"contracts/BusinessConsensus2.sol\":4914:4924  msg.sender */\n      caller\n        /* \"contracts/BusinessConsensus2.sol\":4891:4925  voter_maps[_messageID][msg.sender] */\n      0xffffffffffffffffffffffffffffffffffffffff\n      and\n      0xffffffffffffffffffffffffffffffffffffffff\n      and\n      dup2\n      mstore\n      0x20\n      add\n      swap1\n      dup2\n      mstore\n      0x20\n      add\n      0x00\n      keccak256\n        /* \"contracts/BusinessConsensus2.sol\":4867:4926  Voters[_messageID].push(voter_maps[_messageID][msg.sender]) */\n      swap1\n      dup1\n      0x01\n      dup2\n      sload\n      add\n      dup1\n      dup3\n      sstore\n      dup1\n      swap2\n      pop\n      pop\n      0x01\n      swap1\n      sub\n      swap1\n      0x00\n      mstore\n      keccak256(0x00, 0x20)\n      add\n      0x00\n      swap1\n      swap2\n      swap1\n      swap2\n      swap1\n      swap2\n      pop\n      0x00\n      dup3\n      add\n      0x00\n      swap1\n      sload\n      swap1\n      0x0100\n      exp\n      swap1\n      div\n      0xff\n      and\n      dup2\n      0x00\n      add\n      exp(0x0100, 0x00)\n      dup2\n      sload\n      dup2\n      0xff\n      mul\n      not\n      and\n      swap1\n      dup4\n      iszero\n      iszero\n      mul\n      or\n      swap1\n      sstore\n      pop\n      0x00\n      dup3\n      add\n      0x01\n      swap1\n      sload\n      swap1\n      0x0100\n      exp\n      swap1\n      div\n      0xff\n      and\n      dup2\n      0x00\n      add\n      exp(0x0100, 0x01)\n      dup2\n      sload\n      dup2\n      0xff\n      mul\n      not\n      and\n      swap1\n      dup4\n      iszero\n      iszero\n      mul\n      or\n      swap1\n      sstore\n      pop\n      0x00\n      dup3\n      add\n      0x02\n      swap1\n      sload\n      swap1\n      0x0100\n      exp\n      swap1\n      div\n      0xffffffffffffffffffffffffffffffffffffffff\n      and\n      dup2\n      0x00\n      add\n      exp(0x0100, 0x02)\n      dup2\n      sload\n      dup2\n      0xffffffffffffffffffffffffffffffffffffffff\n      mul\n      not\n      and\n      swap1\n      dup4\n      0xffffffffffffffffffffffffffffffffffffffff\n      and\n      mul\n      or\n      swap1\n      sstore\n      pop\n      pop\n      pop\n        /* \"contracts/BusinessConsensus2.sol\":4545:5523  if(keccak256(bytes(response)) == keccak256(bytes(\"i approve\"))){\r... */\n      jump(tag_146)\n    tag_136:\n        /* \"contracts/BusinessConsensus2.sol\":4998:5019  bytes(\"i disapprove\") */\n      mload(0x40)\n      dup1\n      0x40\n      add\n      0x40\n      mstore\n      dup1\n      0x0c\n      dup2\n      mstore\n      0x20\n      add\n      0x6920646973617070726f76650000000000000000000000000000000000000000\n      dup2\n      mstore\n      pop\n        /* \"contracts/BusinessConsensus2.sol\":4988:5020  keccak256(bytes(\"i disapprove\")) */\n      dup1\n      mload\n      swap1\n      0x20\n      add\n      keccak256\n        /* \"contracts/BusinessConsensus2.sol\":4974:4982  response */\n      dup4\n        /* \"contracts/BusinessConsensus2.sol\":4958:4984  keccak256(bytes(response)) */\n      dup1\n      mload\n      swap1\n      0x20\n      add\n      keccak256\n        /* \"contracts/BusinessConsensus2.sol\":4958:5020  keccak256(bytes(response)) == keccak256(bytes(\"i disapprove\")) */\n      eq\n        /* \"contracts/BusinessConsensus2.sol\":4955:5523  if(keccak256(bytes(response)) == keccak256(bytes(\"i disapprove\"))){\r... */\n      iszero\n      tag_147\n      jumpi\n        /* \"contracts/BusinessConsensus2.sol\":5079:5083  true */\n      0x01\n        /* \"contracts/BusinessConsensus2.sol\":5036:5046  voter_maps */\n      dup1\n        /* \"contracts/BusinessConsensus2.sol\":5047:5057  _messageID */\n      dup4\n      dup4\n        /* \"contracts/BusinessConsensus2.sol\":5036:5058  voter_maps[_messageID] */\n      mload(0x40)\n      tag_148\n      swap3\n      swap2\n      swap1\n      tag_124\n      jump\t// in\n    tag_148:\n      swap1\n      dup2\n      mstore\n      0x20\n      add\n      mload(0x40)\n      dup1\n      swap2\n      sub\n      swap1\n      keccak256\n        /* \"contracts/BusinessConsensus2.sol\":5036:5070  voter_maps[_messageID][msg.sender] */\n      0x00\n        /* \"contracts/BusinessConsensus2.sol\":5059:5069  msg.sender */\n      caller\n        /* \"contracts/BusinessConsensus2.sol\":5036:5070  voter_maps[_messageID][msg.sender] */\n      0xffffffffffffffffffffffffffffffffffffffff\n      and\n      0xffffffffffffffffffffffffffffffffffffffff\n      and\n      dup2\n      mstore\n      0x20\n      add\n      swap1\n      dup2\n      mstore\n      0x20\n      add\n      0x00\n      keccak256\n        /* \"contracts/BusinessConsensus2.sol\":5036:5076  voter_maps[_messageID][msg.sender].voted */\n      0x00\n      add\n      0x00\n        /* \"contracts/BusinessConsensus2.sol\":5036:5083  voter_maps[_messageID][msg.sender].voted = true */\n      0x0100\n      exp\n      dup2\n      sload\n      dup2\n      0xff\n      mul\n      not\n      and\n      swap1\n      dup4\n      iszero\n      iszero\n      mul\n      or\n      swap1\n      sstore\n      pop\n        /* \"contracts/BusinessConsensus2.sol\":5141:5142  1 */\n      0x01\n        /* \"contracts/BusinessConsensus2.sol\":5098:5115  businessProposals */\n      0x00\n        /* \"contracts/BusinessConsensus2.sol\":5116:5126  _messageID */\n      dup4\n      dup4\n        /* \"contracts/BusinessConsensus2.sol\":5098:5127  businessProposals[_messageID] */\n      mload(0x40)\n      tag_149\n      swap3\n      swap2\n      swap1\n      tag_124\n      jump\t// in\n    tag_149:\n      swap1\n      dup2\n      mstore\n      0x20\n      add\n      mload(0x40)\n      dup1\n      swap2\n      sub\n      swap1\n      keccak256\n        /* \"contracts/BusinessConsensus2.sol\":5098:5137  businessProposals[_messageID].voteCount */\n      0x03\n      add\n      0x00\n        /* \"contracts/BusinessConsensus2.sol\":5098:5142  businessProposals[_messageID].voteCount += 1 */\n      dup3\n      dup3\n      sload\n      tag_150\n      swap2\n      swap1\n      tag_112\n      jump\t// in\n    tag_150:\n      swap3\n      pop\n      pop\n      dup2\n      swap1\n      sstore\n      pop\n        /* \"contracts/BusinessConsensus2.sol\":5157:5163  Voters */\n      0x02\n        /* \"contracts/BusinessConsensus2.sol\":5164:5174  _messageID */\n      dup3\n      dup3\n        /* \"contracts/BusinessConsensus2.sol\":5157:5175  Voters[_messageID] */\n      mload(0x40)\n      tag_151\n      swap3\n      swap2\n      swap1\n      tag_124\n      jump\t// in\n    tag_151:\n      swap1\n      dup2\n      mstore\n      0x20\n      add\n      mload(0x40)\n      dup1\n      swap2\n      sub\n      swap1\n      keccak256\n        /* \"contracts/BusinessConsensus2.sol\":5181:5191  voter_maps */\n      0x01\n        /* \"contracts/BusinessConsensus2.sol\":5192:5202  _messageID */\n      dup4\n      dup4\n        /* \"contracts/BusinessConsensus2.sol\":5181:5203  voter_maps[_messageID] */\n      mload(0x40)\n      tag_152\n      swap3\n      swap2\n      swap1\n      tag_124\n      jump\t// in\n    tag_152:\n      swap1\n      dup2\n      mstore\n      0x20\n      add\n      mload(0x40)\n      dup1\n      swap2\n      sub\n      swap1\n      keccak256\n        /* \"contracts/BusinessConsensus2.sol\":5181:5215  voter_maps[_messageID][msg.sender] */\n      0x00\n        /* \"contracts/BusinessConsensus2.sol\":5204:5214  msg.sender */\n      caller\n        /* \"contracts/BusinessConsensus2.sol\":5181:5215  voter_maps[_messageID][msg.sender] */\n      0xffffffffffffffffffffffffffffffffffffffff\n      and\n      0xffffffffffffffffffffffffffffffffffffffff\n      and\n      dup2\n      mstore\n      0x20\n      add\n      swap1\n      dup2\n      mstore\n      0x20\n      add\n      0x00\n      keccak256\n        /* \"contracts/BusinessConsensus2.sol\":5157:5216  Voters[_messageID].push(voter_maps[_messageID][msg.sender]) */\n      swap1\n      dup1\n      0x01\n      dup2\n      sload\n      add\n      dup1\n      dup3\n      sstore\n      dup1\n      swap2\n      pop\n      pop\n      0x01\n      swap1\n      sub\n      swap1\n      0x00\n      mstore\n      keccak256(0x00, 0x20)\n      add\n      0x00\n      swap1\n      swap2\n      swap1\n      swap2\n      swap1\n      swap2\n      pop\n      0x00\n      dup3\n      add\n      0x00\n      swap1\n      sload\n      swap1\n      0x0100\n      exp\n      swap1\n      div\n      0xff\n      and\n      dup2\n      0x00\n      add\n      exp(0x0100, 0x00)\n      dup2\n      sload\n      dup2\n      0xff\n      mul\n      not\n      and\n      swap1\n      dup4\n      iszero\n      iszero\n      mul\n      or\n      swap1\n      sstore\n      pop\n      0x00\n      dup3\n      add\n      0x01\n      swap1\n      sload\n      swap1\n      0x0100\n      exp\n      swap1\n      div\n      0xff\n      and\n      dup2\n      0x00\n      add\n      exp(0x0100, 0x01)\n      dup2\n      sload\n      dup2\n      0xff\n      mul\n      not\n      and\n      swap1\n      dup4\n      iszero\n      iszero\n      mul\n      or\n      swap1\n      sstore\n      pop\n      0x00\n      dup3\n      add\n      0x02\n      swap1\n      sload\n      swap1\n      0x0100\n      exp\n      swap1\n      div\n      0xffffffffffffffffffffffffffffffffffffffff\n      and\n      dup2\n      0x00\n      add\n      exp(0x0100, 0x02)\n      dup2\n      sload\n      dup2\n      0xffffffffffffffffffffffffffffffffffffffff\n      mul\n      not\n      and\n      swap1\n      dup4\n      0xffffffffffffffffffffffffffffffffffffffff\n      and\n      mul\n      or\n      swap1\n      sstore\n      pop\n      pop\n      pop\n        /* \"contracts/BusinessConsensus2.sol\":4955:5523  if(keccak256(bytes(response)) == keccak256(bytes(\"i disapprove\"))){\r... */\n      jump(tag_154)\n    tag_147:\n        /* \"contracts/BusinessConsensus2.sol\":5374:5378  true */\n      0x01\n        /* \"contracts/BusinessConsensus2.sol\":5331:5341  voter_maps */\n      dup1\n        /* \"contracts/BusinessConsensus2.sol\":5342:5352  _messageID */\n      dup4\n      dup4\n        /* \"contracts/BusinessConsensus2.sol\":5331:5353  voter_maps[_messageID] */\n      mload(0x40)\n      tag_155\n      swap3\n      swap2\n      swap1\n      tag_124\n      jump\t// in\n    tag_155:\n      swap1\n      dup2\n      mstore\n      0x20\n      add\n      mload(0x40)\n      dup1\n      swap2\n      sub\n      swap1\n      keccak256\n        /* \"contracts/BusinessConsensus2.sol\":5331:5365  voter_maps[_messageID][msg.sender] */\n      0x00\n        /* \"contracts/BusinessConsensus2.sol\":5354:5364  msg.sender */\n      caller\n        /* \"contracts/BusinessConsensus2.sol\":5331:5365  voter_maps[_messageID][msg.sender] */\n      0xffffffffffffffffffffffffffffffffffffffff\n      and\n      0xffffffffffffffffffffffffffffffffffffffff\n      and\n      dup2\n      mstore\n      0x20\n      add\n      swap1\n      dup2\n      mstore\n      0x20\n      add\n      0x00\n      keccak256\n        /* \"contracts/BusinessConsensus2.sol\":5331:5371  voter_maps[_messageID][msg.sender].voted */\n      0x00\n      add\n      0x00\n        /* \"contracts/BusinessConsensus2.sol\":5331:5378  voter_maps[_messageID][msg.sender].voted = true */\n      0x0100\n      exp\n      dup2\n      sload\n      dup2\n      0xff\n      mul\n      not\n      and\n      swap1\n      dup4\n      iszero\n      iszero\n      mul\n      or\n      swap1\n      sstore\n      pop\n        /* \"contracts/BusinessConsensus2.sol\":5436:5437  1 */\n      0x01\n        /* \"contracts/BusinessConsensus2.sol\":5393:5410  businessProposals */\n      0x00\n        /* \"contracts/BusinessConsensus2.sol\":5411:5421  _messageID */\n      dup4\n      dup4\n        /* \"contracts/BusinessConsensus2.sol\":5393:5422  businessProposals[_messageID] */\n      mload(0x40)\n      tag_156\n      swap3\n      swap2\n      swap1\n      tag_124\n      jump\t// in\n    tag_156:\n      swap1\n      dup2\n      mstore\n      0x20\n      add\n      mload(0x40)\n      dup1\n      swap2\n      sub\n      swap1\n      keccak256\n        /* \"contracts/BusinessConsensus2.sol\":5393:5432  businessProposals[_messageID].voteCount */\n      0x03\n      add\n      0x00\n        /* \"contracts/BusinessConsensus2.sol\":5393:5437  businessProposals[_messageID].voteCount += 1 */\n      dup3\n      dup3\n      sload\n      tag_157\n      swap2\n      swap1\n      tag_112\n      jump\t// in\n    tag_157:\n      swap3\n      pop\n      pop\n      dup2\n      swap1\n      sstore\n      pop\n        /* \"contracts/BusinessConsensus2.sol\":5452:5458  Voters */\n      0x02\n        /* \"contracts/BusinessConsensus2.sol\":5459:5469  _messageID */\n      dup3\n      dup3\n        /* \"contracts/BusinessConsensus2.sol\":5452:5470  Voters[_messageID] */\n      mload(0x40)\n      tag_158\n      swap3\n      swap2\n      swap1\n      tag_124\n      jump\t// in\n    tag_158:\n      swap1\n      dup2\n      mstore\n      0x20\n      add\n      mload(0x40)\n      dup1\n      swap2\n      sub\n      swap1\n      keccak256\n        /* \"contracts/BusinessConsensus2.sol\":5476:5486  voter_maps */\n      0x01\n        /* \"contracts/BusinessConsensus2.sol\":5487:5497  _messageID */\n      dup4\n      dup4\n        /* \"contracts/BusinessConsensus2.sol\":5476:5498  voter_maps[_messageID] */\n      mload(0x40)\n      tag_159\n      swap3\n      swap2\n      swap1\n      tag_124\n      jump\t// in\n    tag_159:\n      swap1\n      dup2\n      mstore\n      0x20\n      add\n      mload(0x40)\n      dup1\n      swap2\n      sub\n      swap1\n      keccak256\n        /* \"contracts/BusinessConsensus2.sol\":5476:5510  voter_maps[_messageID][msg.sender] */\n      0x00\n        /* \"contracts/BusinessConsensus2.sol\":5499:5509  msg.sender */\n      caller\n        /* \"contracts/BusinessConsensus2.sol\":5476:5510  voter_maps[_messageID][msg.sender] */\n      0xffffffffffffffffffffffffffffffffffffffff\n      and\n      0xffffffffffffffffffffffffffffffffffffffff\n      and\n      dup2\n      mstore\n      0x20\n      add\n      swap1\n      dup2\n      mstore\n      0x20\n      add\n      0x00\n      keccak256\n        /* \"contracts/BusinessConsensus2.sol\":5452:5511  Voters[_messageID].push(voter_maps[_messageID][msg.sender]) */\n      swap1\n      dup1\n      0x01\n      dup2\n      sload\n      add\n      dup1\n      dup3\n      sstore\n      dup1\n      swap2\n      pop\n      pop\n      0x01\n      swap1\n      sub\n      swap1\n      0x00\n      mstore\n      keccak256(0x00, 0x20)\n      add\n      0x00\n      swap1\n      swap2\n      swap1\n      swap2\n      swap1\n      swap2\n      pop\n      0x00\n      dup3\n      add\n      0x00\n      swap1\n      sload\n      swap1\n      0x0100\n      exp\n      swap1\n      div\n      0xff\n      and\n      dup2\n      0x00\n      add\n      exp(0x0100, 0x00)\n      dup2\n      sload\n      dup2\n      0xff\n      mul\n      not\n      and\n      swap1\n      dup4\n      iszero\n      iszero\n      mul\n      or\n      swap1\n      sstore\n      pop\n      0x00\n      dup3\n      add\n      0x01\n      swap1\n      sload\n      swap1\n      0x0100\n      exp\n      swap1\n      div\n      0xff\n      and\n      dup2\n      0x00\n      add\n      exp(0x0100, 0x01)\n      dup2\n      sload\n      dup2\n      0xff\n      mul\n      not\n      and\n      swap1\n      dup4\n      iszero\n      iszero\n      mul\n      or\n      swap1\n      sstore\n      pop\n      0x00\n      dup3\n      add\n      0x02\n      swap1\n      sload\n      swap1\n      0x0100\n      exp\n      swap1\n      div\n      0xffffffffffffffffffffffffffffffffffffffff\n      and\n      dup2\n      0x00\n      add\n      exp(0x0100, 0x02)\n      dup2\n      sload\n      dup2\n      0xffffffffffffffffffffffffffffffffffffffff\n      mul\n      not\n      and\n      swap1\n      dup4\n      0xffffffffffffffffffffffffffffffffffffffff\n      and\n      mul\n      or\n      swap1\n      sstore\n      pop\n      pop\n      pop\n        /* \"contracts/BusinessConsensus2.sol\":4955:5523  if(keccak256(bytes(response)) == keccak256(bytes(\"i disapprove\"))){\r... */\n    tag_154:\n        /* \"contracts/BusinessConsensus2.sol\":4545:5523  if(keccak256(bytes(response)) == keccak256(bytes(\"i approve\"))){\r... */\n    tag_146:\n        /* \"contracts/BusinessConsensus2.sol\":4149:5540  function Vote(string memory response,string calldata _messageID) external {\r... */\n      pop\n      pop\n      pop\n      jump\t// out\n        /* \"contracts/BusinessConsensus2.sol\":1011:1069  mapping(string=>mapping(address=>Voter)) public voter_maps */\n    tag_43:\n      0x01\n      dup3\n      dup1\n      mload\n      0x20\n      dup2\n      add\n      dup3\n      add\n      dup1\n      mload\n      dup5\n      dup3\n      mstore\n      0x20\n      dup4\n      add\n      0x20\n      dup6\n      add\n      keccak256\n      dup2\n      dup4\n      mstore\n      dup1\n      swap6\n      pop\n      pop\n      pop\n      pop\n      pop\n      pop\n      0x20\n      mstore\n      dup1\n      0x00\n      mstore\n      keccak256(0x00, 0x40)\n      0x00\n      swap2\n      pop\n      swap2\n      pop\n      pop\n      dup1\n      0x00\n      add\n      0x00\n      swap1\n      sload\n      swap1\n      0x0100\n      exp\n      swap1\n      div\n      0xff\n      and\n      swap1\n      dup1\n      0x00\n      add\n      0x01\n      swap1\n      sload\n      swap1\n      0x0100\n      exp\n      swap1\n      div\n      0xff\n      and\n      swap1\n      dup1\n      0x00\n      add\n      0x02\n      swap1\n      sload\n      swap1\n      0x0100\n      exp\n      swap1\n      div\n      0xffffffffffffffffffffffffffffffffffffffff\n      and\n      swap1\n      pop\n      dup4\n      jump\t// out\n        /* \"contracts/BusinessConsensus2.sol\":6671:7230  function retrieve_bundle(string calldata _messageID) external view returns (bytes32, string memory, uint256, Voter[] memory){\r... */\n    tag_49:\n        /* \"contracts/BusinessConsensus2.sol\":6747:6754  bytes32 */\n      0x00\n        /* \"contracts/BusinessConsensus2.sol\":6756:6769  string memory */\n      0x60\n        /* \"contracts/BusinessConsensus2.sol\":6771:6778  uint256 */\n      0x00\n        /* \"contracts/BusinessConsensus2.sol\":6780:6794  Voter[] memory */\n      0x60\n        /* \"contracts/BusinessConsensus2.sol\":6833:6850  businessProposals */\n      0x00\n        /* \"contracts/BusinessConsensus2.sol\":6851:6861  _messageID */\n      dup7\n      dup7\n        /* \"contracts/BusinessConsensus2.sol\":6833:6862  businessProposals[_messageID] */\n      mload(0x40)\n      tag_162\n      swap3\n      swap2\n      swap1\n      tag_124\n      jump\t// in\n    tag_162:\n      swap1\n      dup2\n      mstore\n      0x20\n      add\n      mload(0x40)\n      dup1\n      swap2\n      sub\n      swap1\n      keccak256\n        /* \"contracts/BusinessConsensus2.sol\":6833:6873  businessProposals[_messageID].expiryDate */\n      0x04\n      add\n      sload\n        /* \"contracts/BusinessConsensus2.sol\":6814:6829  block.timestamp */\n      timestamp\n        /* \"contracts/BusinessConsensus2.sol\":6814:6873  block.timestamp >= businessProposals[_messageID].expiryDate */\n      lt\n      iszero\n        /* \"contracts/BusinessConsensus2.sol\":6806:6910  require(block.timestamp >= businessProposals[_messageID].expiryDate, \"Verdict has not been reached yet\") */\n      tag_163\n      jumpi\n      mload(0x40)\n      0x08c379a000000000000000000000000000000000000000000000000000000000\n      dup2\n      mstore\n      0x04\n      add\n      tag_164\n      swap1\n      tag_165\n      jump\t// in\n    tag_164:\n      mload(0x40)\n      dup1\n      swap2\n      sub\n      swap1\n      revert\n    tag_163:\n        /* \"contracts/BusinessConsensus2.sol\":6921:6942  Voter[] memory voters */\n      0x00\n        /* \"contracts/BusinessConsensus2.sol\":6945:6951  Voters */\n      0x02\n        /* \"contracts/BusinessConsensus2.sol\":6952:6962  _messageID */\n      dup8\n      dup8\n        /* \"contracts/BusinessConsensus2.sol\":6945:6963  Voters[_messageID] */\n      mload(0x40)\n      tag_166\n      swap3\n      swap2\n      swap1\n      tag_124\n      jump\t// in\n    tag_166:\n      swap1\n      dup2\n      mstore\n      0x20\n      add\n      mload(0x40)\n      dup1\n      swap2\n      sub\n      swap1\n      keccak256\n        /* \"contracts/BusinessConsensus2.sol\":6921:6963  Voter[] memory voters = Voters[_messageID] */\n      dup1\n      sload\n      dup1\n      0x20\n      mul\n      0x20\n      add\n      mload(0x40)\n      swap1\n      dup2\n      add\n      0x40\n      mstore\n      dup1\n      swap3\n      swap2\n      swap1\n      dup2\n      dup2\n      mstore\n      0x20\n      add\n      0x00\n      swap1\n    tag_167:\n      dup3\n      dup3\n      lt\n      iszero\n      tag_168\n      jumpi\n      dup4\n      dup3\n      swap1\n      0x00\n      mstore\n      keccak256(0x00, 0x20)\n      add\n      mload(0x40)\n      dup1\n      0x60\n      add\n      0x40\n      mstore\n      swap1\n      dup2\n      0x00\n      dup3\n      add\n      0x00\n      swap1\n      sload\n      swap1\n      0x0100\n      exp\n      swap1\n      div\n      0xff\n      and\n      iszero\n      iszero\n      iszero\n      iszero\n      dup2\n      mstore\n      0x20\n      add\n      0x00\n      dup3\n      add\n      0x01\n      swap1\n      sload\n      swap1\n      0x0100\n      exp\n      swap1\n      div\n      0xff\n      and\n      iszero\n      iszero\n      iszero\n      iszero\n      dup2\n      mstore\n      0x20\n      add\n      0x00\n      dup3\n      add\n      0x02\n      swap1\n      sload\n      swap1\n      0x0100\n      exp\n      swap1\n      div\n      0xffffffffffffffffffffffffffffffffffffffff\n      and\n      0xffffffffffffffffffffffffffffffffffffffff\n      and\n      0xffffffffffffffffffffffffffffffffffffffff\n      and\n      dup2\n      mstore\n      pop\n      pop\n      dup2\n      mstore\n      0x20\n      add\n      swap1\n      0x01\n      add\n      swap1\n      jump(tag_167)\n    tag_168:\n      pop\n      pop\n      pop\n      pop\n      swap1\n      pop\n        /* \"contracts/BusinessConsensus2.sol\":6974:6990  string memory ID */\n      0x00\n        /* \"contracts/BusinessConsensus2.sol\":6993:7010  businessProposals */\n      dup1\n        /* \"contracts/BusinessConsensus2.sol\":7011:7021  _messageID */\n      dup9\n      dup9\n        /* \"contracts/BusinessConsensus2.sol\":6993:7022  businessProposals[_messageID] */\n      mload(0x40)\n      tag_170\n      swap3\n      swap2\n      swap1\n      tag_124\n      jump\t// in\n    tag_170:\n      swap1\n      dup2\n      mstore\n      0x20\n      add\n      mload(0x40)\n      dup1\n      swap2\n      sub\n      swap1\n      keccak256\n        /* \"contracts/BusinessConsensus2.sol\":6993:7032  businessProposals[_messageID].messageID */\n      0x00\n      add\n        /* \"contracts/BusinessConsensus2.sol\":6974:7032  string memory ID = businessProposals[_messageID].messageID */\n      dup1\n      sload\n      tag_171\n      swap1\n      tag_90\n      jump\t// in\n    tag_171:\n      dup1\n      0x1f\n      add\n      0x20\n      dup1\n      swap2\n      div\n      mul\n      0x20\n      add\n      mload(0x40)\n      swap1\n      dup2\n      add\n      0x40\n      mstore\n      dup1\n      swap3\n      swap2\n      swap1\n      dup2\n      dup2\n      mstore\n      0x20\n      add\n      dup3\n      dup1\n      sload\n      tag_172\n      swap1\n      tag_90\n      jump\t// in\n    tag_172:\n      dup1\n      iszero\n      tag_173\n      jumpi\n      dup1\n      0x1f\n      lt\n      tag_174\n      jumpi\n      0x0100\n      dup1\n      dup4\n      sload\n      div\n      mul\n      dup4\n      mstore\n      swap2\n      0x20\n      add\n      swap2\n      jump(tag_173)\n    tag_174:\n      dup3\n      add\n      swap2\n      swap1\n      0x00\n      mstore\n      keccak256(0x00, 0x20)\n      swap1\n    tag_175:\n      dup2\n      sload\n      dup2\n      mstore\n      swap1\n      0x01\n      add\n      swap1\n      0x20\n      add\n      dup1\n      dup4\n      gt\n      tag_175\n      jumpi\n      dup3\n      swap1\n      sub\n      0x1f\n      and\n      dup3\n      add\n      swap2\n    tag_173:\n      pop\n      pop\n      pop\n      pop\n      pop\n      swap1\n      pop\n        /* \"contracts/BusinessConsensus2.sol\":7043:7058  bytes32 verdict */\n      0x00\n        /* \"contracts/BusinessConsensus2.sol\":7061:7078  businessProposals */\n      dup1\n        /* \"contracts/BusinessConsensus2.sol\":7079:7089  _messageID */\n      dup10\n      dup10\n        /* \"contracts/BusinessConsensus2.sol\":7061:7090  businessProposals[_messageID] */\n      mload(0x40)\n      tag_176\n      swap3\n      swap2\n      swap1\n      tag_124\n      jump\t// in\n    tag_176:\n      swap1\n      dup2\n      mstore\n      0x20\n      add\n      mload(0x40)\n      dup1\n      swap2\n      sub\n      swap1\n      keccak256\n        /* \"contracts/BusinessConsensus2.sol\":7061:7103  businessProposals[_messageID].finalVerdict */\n      0x08\n      add\n      sload\n        /* \"contracts/BusinessConsensus2.sol\":7043:7103  bytes32 verdict = businessProposals[_messageID].finalVerdict */\n      swap1\n      pop\n        /* \"contracts/BusinessConsensus2.sol\":7114:7127  uint256 count */\n      0x00\n        /* \"contracts/BusinessConsensus2.sol\":7130:7147  businessProposals */\n      dup1\n        /* \"contracts/BusinessConsensus2.sol\":7148:7158  _messageID */\n      dup11\n      dup11\n        /* \"contracts/BusinessConsensus2.sol\":7130:7159  businessProposals[_messageID] */\n      mload(0x40)\n      tag_177\n      swap3\n      swap2\n      swap1\n      tag_124\n      jump\t// in\n    tag_177:\n      swap1\n      dup2\n      mstore\n      0x20\n      add\n      mload(0x40)\n      dup1\n      swap2\n      sub\n      swap1\n      keccak256\n        /* \"contracts/BusinessConsensus2.sol\":7130:7169  businessProposals[_messageID].voteCount */\n      0x03\n      add\n      sload\n        /* \"contracts/BusinessConsensus2.sol\":7114:7169  uint256 count = businessProposals[_messageID].voteCount */\n      swap1\n      pop\n        /* \"contracts/BusinessConsensus2.sol\":7188:7195  verdict */\n      dup2\n        /* \"contracts/BusinessConsensus2.sol\":7196:7198  ID */\n      dup4\n        /* \"contracts/BusinessConsensus2.sol\":7199:7204  count */\n      dup3\n        /* \"contracts/BusinessConsensus2.sol\":7205:7211  voters */\n      dup7\n        /* \"contracts/BusinessConsensus2.sol\":7180:7212  return (verdict,ID,count,voters) */\n      swap8\n      pop\n      swap8\n      pop\n      swap8\n      pop\n      swap8\n      pop\n      pop\n      pop\n      pop\n      pop\n        /* \"contracts/BusinessConsensus2.sol\":6671:7230  function retrieve_bundle(string calldata _messageID) external view returns (bytes32, string memory, uint256, Voter[] memory){\r... */\n      swap3\n      swap6\n      swap2\n      swap5\n      pop\n      swap3\n      pop\n      jump\t// out\n        /* \"contracts/BusinessConsensus2.sol\":3344:4141  function RegisterVoter(address voter,string calldata _messageID) external {\r... */\n    tag_55:\n        /* \"contracts/BusinessConsensus2.sol\":3539:3556  businessProposals */\n      0x00\n        /* \"contracts/BusinessConsensus2.sol\":3557:3567  _messageID */\n      dup3\n      dup3\n        /* \"contracts/BusinessConsensus2.sol\":3539:3568  businessProposals[_messageID] */\n      mload(0x40)\n      tag_179\n      swap3\n      swap2\n      swap1\n      tag_124\n      jump\t// in\n    tag_179:\n      swap1\n      dup2\n      mstore\n      0x20\n      add\n      mload(0x40)\n      dup1\n      swap2\n      sub\n      swap1\n      keccak256\n        /* \"contracts/BusinessConsensus2.sol\":3539:3578  businessProposals[_messageID].initiator */\n      0x01\n      add\n      0x00\n      swap1\n      sload\n      swap1\n      0x0100\n      exp\n      swap1\n      div\n      0xffffffffffffffffffffffffffffffffffffffff\n      and\n        /* \"contracts/BusinessConsensus2.sol\":3525:3578  msg.sender == businessProposals[_messageID].initiator */\n      0xffffffffffffffffffffffffffffffffffffffff\n      and\n        /* \"contracts/BusinessConsensus2.sol\":3525:3535  msg.sender */\n      caller\n        /* \"contracts/BusinessConsensus2.sol\":3525:3578  msg.sender == businessProposals[_messageID].initiator */\n      0xffffffffffffffffffffffffffffffffffffffff\n      and\n      eq\n        /* \"contracts/BusinessConsensus2.sol\":3503:3646  require(\r... */\n      tag_180\n      jumpi\n      mload(0x40)\n      0x08c379a000000000000000000000000000000000000000000000000000000000\n      dup2\n      mstore\n      0x04\n      add\n      tag_181\n      swap1\n      tag_182\n      jump\t// in\n    tag_181:\n      mload(0x40)\n      dup1\n      swap2\n      sub\n      swap1\n      revert\n    tag_180:\n        /* \"contracts/BusinessConsensus2.sol\":3674:3691  businessProposals */\n      0x00\n        /* \"contracts/BusinessConsensus2.sol\":3692:3702  _messageID */\n      dup3\n      dup3\n        /* \"contracts/BusinessConsensus2.sol\":3674:3703  businessProposals[_messageID] */\n      mload(0x40)\n      tag_183\n      swap3\n      swap2\n      swap1\n      tag_124\n      jump\t// in\n    tag_183:\n      swap1\n      dup2\n      mstore\n      0x20\n      add\n      mload(0x40)\n      dup1\n      swap2\n      sub\n      swap1\n      keccak256\n        /* \"contracts/BusinessConsensus2.sol\":3674:3713  businessProposals[_messageID].initiator */\n      0x01\n      add\n      0x00\n      swap1\n      sload\n      swap1\n      0x0100\n      exp\n      swap1\n      div\n      0xffffffffffffffffffffffffffffffffffffffff\n      and\n        /* \"contracts/BusinessConsensus2.sol\":3665:3713  voter != businessProposals[_messageID].initiator */\n      0xffffffffffffffffffffffffffffffffffffffff\n      and\n        /* \"contracts/BusinessConsensus2.sol\":3665:3670  voter */\n      dup4\n        /* \"contracts/BusinessConsensus2.sol\":3665:3713  voter != businessProposals[_messageID].initiator */\n      0xffffffffffffffffffffffffffffffffffffffff\n      and\n      eq\n      iszero\n        /* \"contracts/BusinessConsensus2.sol\":3657:3739  require(voter != businessProposals[_messageID].initiator, \"Initiator can't vote!\") */\n      tag_184\n      jumpi\n      mload(0x40)\n      0x08c379a000000000000000000000000000000000000000000000000000000000\n      dup2\n      mstore\n      0x04\n      add\n      tag_185\n      swap1\n      tag_186\n      jump\t// in\n    tag_185:\n      mload(0x40)\n      dup1\n      swap2\n      sub\n      swap1\n      revert\n    tag_184:\n        /* \"contracts/BusinessConsensus2.sol\":3811:3812  0 */\n      0x00\n        /* \"contracts/BusinessConsensus2.sol\":3760:3813  voter_maps[_messageID][voter].recipient == address(0) */\n      0xffffffffffffffffffffffffffffffffffffffff\n      and\n        /* \"contracts/BusinessConsensus2.sol\":3760:3770  voter_maps */\n      0x01\n        /* \"contracts/BusinessConsensus2.sol\":3771:3781  _messageID */\n      dup4\n      dup4\n        /* \"contracts/BusinessConsensus2.sol\":3760:3782  voter_maps[_messageID] */\n      mload(0x40)\n      tag_187\n      swap3\n      swap2\n      swap1\n      tag_124\n      jump\t// in\n    tag_187:\n      swap1\n      dup2\n      mstore\n      0x20\n      add\n      mload(0x40)\n      dup1\n      swap2\n      sub\n      swap1\n      keccak256\n        /* \"contracts/BusinessConsensus2.sol\":3760:3789  voter_maps[_messageID][voter] */\n      0x00\n        /* \"contracts/BusinessConsensus2.sol\":3783:3788  voter */\n      dup6\n        /* \"contracts/BusinessConsensus2.sol\":3760:3789  voter_maps[_messageID][voter] */\n      0xffffffffffffffffffffffffffffffffffffffff\n      and\n      0xffffffffffffffffffffffffffffffffffffffff\n      and\n      dup2\n      mstore\n      0x20\n      add\n      swap1\n      dup2\n      mstore\n      0x20\n      add\n      0x00\n      keccak256\n        /* \"contracts/BusinessConsensus2.sol\":3760:3799  voter_maps[_messageID][voter].recipient */\n      0x00\n      add\n      0x02\n      swap1\n      sload\n      swap1\n      0x0100\n      exp\n      swap1\n      div\n      0xffffffffffffffffffffffffffffffffffffffff\n      and\n        /* \"contracts/BusinessConsensus2.sol\":3760:3813  voter_maps[_messageID][voter].recipient == address(0) */\n      0xffffffffffffffffffffffffffffffffffffffff\n      and\n      eq\n        /* \"contracts/BusinessConsensus2.sol\":3752:3849  require(voter_maps[_messageID][voter].recipient == address(0), \"Recipient is already registered\") */\n      tag_188\n      jumpi\n      mload(0x40)\n      0x08c379a000000000000000000000000000000000000000000000000000000000\n      dup2\n      mstore\n      0x04\n      add\n      tag_189\n      swap1\n      tag_190\n      jump\t// in\n    tag_189:\n      mload(0x40)\n      dup1\n      swap2\n      sub\n      swap1\n      revert\n    tag_188:\n        /* \"contracts/BusinessConsensus2.sol\":3888:3905  businessProposals */\n      0x00\n        /* \"contracts/BusinessConsensus2.sol\":3906:3916  _messageID */\n      dup3\n      dup3\n        /* \"contracts/BusinessConsensus2.sol\":3888:3917  businessProposals[_messageID] */\n      mload(0x40)\n      tag_191\n      swap3\n      swap2\n      swap1\n      tag_124\n      jump\t// in\n    tag_191:\n      swap1\n      dup2\n      mstore\n      0x20\n      add\n      mload(0x40)\n      dup1\n      swap2\n      sub\n      swap1\n      keccak256\n        /* \"contracts/BusinessConsensus2.sol\":3888:3928  businessProposals[_messageID].expiryDate */\n      0x04\n      add\n      sload\n        /* \"contracts/BusinessConsensus2.sol\":3870:3885  block.timestamp */\n      timestamp\n        /* \"contracts/BusinessConsensus2.sol\":3870:3928  block.timestamp < businessProposals[_messageID].expiryDate */\n      lt\n        /* \"contracts/BusinessConsensus2.sol\":3862:3969  require(block.timestamp < businessProposals[_messageID].expiryDate, \"Proposal has reached its expiry date\") */\n      tag_192\n      jumpi\n      mload(0x40)\n      0x08c379a000000000000000000000000000000000000000000000000000000000\n      dup2\n      mstore\n      0x04\n      add\n      tag_193\n      swap1\n      tag_194\n      jump\t// in\n    tag_193:\n      mload(0x40)\n      dup1\n      swap2\n      sub\n      swap1\n      revert\n    tag_192:\n        /* \"contracts/BusinessConsensus2.sol\":3982:3996  Voter memory x */\n      0x00\n        /* \"contracts/BusinessConsensus2.sol\":3999:4050  Voter({voted: false,recipient: voter, vote: false}) */\n      mload(0x40)\n      dup1\n      0x60\n      add\n      0x40\n      mstore\n      dup1\n        /* \"contracts/BusinessConsensus2.sol\":4013:4018  false */\n      0x00\n        /* \"contracts/BusinessConsensus2.sol\":3999:4050  Voter({voted: false,recipient: voter, vote: false}) */\n      iszero\n      iszero\n      dup2\n      mstore\n      0x20\n      add\n        /* \"contracts/BusinessConsensus2.sol\":4043:4048  false */\n      0x00\n        /* \"contracts/BusinessConsensus2.sol\":3999:4050  Voter({voted: false,recipient: voter, vote: false}) */\n      iszero\n      iszero\n      dup2\n      mstore\n      0x20\n      add\n        /* \"contracts/BusinessConsensus2.sol\":4030:4035  voter */\n      dup6\n        /* \"contracts/BusinessConsensus2.sol\":3999:4050  Voter({voted: false,recipient: voter, vote: false}) */\n      0xffffffffffffffffffffffffffffffffffffffff\n      and\n      dup2\n      mstore\n      pop\n        /* \"contracts/BusinessConsensus2.sol\":3982:4050  Voter memory x = Voter({voted: false,recipient: voter, vote: false}) */\n      swap1\n      pop\n        /* \"contracts/BusinessConsensus2.sol\":4093:4094  x */\n      dup1\n        /* \"contracts/BusinessConsensus2.sol\":4061:4071  voter_maps */\n      0x01\n        /* \"contracts/BusinessConsensus2.sol\":4072:4082  _messageID */\n      dup5\n      dup5\n        /* \"contracts/BusinessConsensus2.sol\":4061:4083  voter_maps[_messageID] */\n      mload(0x40)\n      tag_195\n      swap3\n      swap2\n      swap1\n      tag_124\n      jump\t// in\n    tag_195:\n      swap1\n      dup2\n      mstore\n      0x20\n      add\n      mload(0x40)\n      dup1\n      swap2\n      sub\n      swap1\n      keccak256\n        /* \"contracts/BusinessConsensus2.sol\":4061:4090  voter_maps[_messageID][voter] */\n      0x00\n        /* \"contracts/BusinessConsensus2.sol\":4084:4089  voter */\n      dup7\n        /* \"contracts/BusinessConsensus2.sol\":4061:4090  voter_maps[_messageID][voter] */\n      0xffffffffffffffffffffffffffffffffffffffff\n      and\n      0xffffffffffffffffffffffffffffffffffffffff\n      and\n      dup2\n      mstore\n      0x20\n      add\n      swap1\n      dup2\n      mstore\n      0x20\n      add\n      0x00\n      keccak256\n        /* \"contracts/BusinessConsensus2.sol\":4061:4094  voter_maps[_messageID][voter] = x */\n      0x00\n      dup3\n      add\n      mload\n      dup2\n      0x00\n      add\n      exp(0x0100, 0x00)\n      dup2\n      sload\n      dup2\n      0xff\n      mul\n      not\n      and\n      swap1\n      dup4\n      iszero\n      iszero\n      mul\n      or\n      swap1\n      sstore\n      pop\n      0x20\n      dup3\n      add\n      mload\n      dup2\n      0x00\n      add\n      exp(0x0100, 0x01)\n      dup2\n      sload\n      dup2\n      0xff\n      mul\n      not\n      and\n      swap1\n      dup4\n      iszero\n      iszero\n      mul\n      or\n      swap1\n      sstore\n      pop\n      0x40\n      dup3\n      add\n      mload\n      dup2\n      0x00\n      add\n      exp(0x0100, 0x02)\n      dup2\n      sload\n      dup2\n      0xffffffffffffffffffffffffffffffffffffffff\n      mul\n      not\n      and\n      swap1\n      dup4\n      0xffffffffffffffffffffffffffffffffffffffff\n      and\n      mul\n      or\n      swap1\n      sstore\n      pop\n      swap1\n      pop\n      pop\n        /* \"contracts/BusinessConsensus2.sol\":4105:4109  keys */\n      0x03\n        /* \"contracts/BusinessConsensus2.sol\":4110:4120  _messageID */\n      dup4\n      dup4\n        /* \"contracts/BusinessConsensus2.sol\":4105:4121  keys[_messageID] */\n      mload(0x40)\n      tag_196\n      swap3\n      swap2\n      swap1\n      tag_124\n      jump\t// in\n    tag_196:\n      swap1\n      dup2\n      mstore\n      0x20\n      add\n      mload(0x40)\n      dup1\n      swap2\n      sub\n      swap1\n      keccak256\n        /* \"contracts/BusinessConsensus2.sol\":4127:4132  voter */\n      dup5\n        /* \"contracts/BusinessConsensus2.sol\":4105:4133  keys[_messageID].push(voter) */\n      swap1\n      dup1\n      0x01\n      dup2\n      sload\n      add\n      dup1\n      dup3\n      sstore\n      dup1\n      swap2\n      pop\n      pop\n      0x01\n      swap1\n      sub\n      swap1\n      0x00\n      mstore\n      keccak256(0x00, 0x20)\n      add\n      0x00\n      swap1\n      swap2\n      swap1\n      swap2\n      swap1\n      swap2\n      0x0100\n      exp\n      dup2\n      sload\n      dup2\n      0xffffffffffffffffffffffffffffffffffffffff\n      mul\n      not\n      and\n      swap1\n      dup4\n      0xffffffffffffffffffffffffffffffffffffffff\n      and\n      mul\n      or\n      swap1\n      sstore\n      pop\n        /* \"contracts/BusinessConsensus2.sol\":3418:4141  {\r... */\n      pop\n        /* \"contracts/BusinessConsensus2.sol\":3344:4141  function RegisterVoter(address voter,string calldata _messageID) external {\r... */\n      pop\n      pop\n      pop\n      jump\t// out\n        /* \"contracts/BusinessConsensus2.sol\":2598:2955  function getParameters(string calldata _messageID) external view returns (string memory, uint , address ,uint ,uint){\r... */\n    tag_58:\n        /* \"contracts/BusinessConsensus2.sol\":2672:2685  string memory */\n      0x60\n        /* \"contracts/BusinessConsensus2.sol\":2687:2691  uint */\n      0x00\n        /* \"contracts/BusinessConsensus2.sol\":2694:2701  address */\n      dup1\n        /* \"contracts/BusinessConsensus2.sol\":2703:2707  uint */\n      0x00\n        /* \"contracts/BusinessConsensus2.sol\":2709:2713  uint */\n      dup1\n        /* \"contracts/BusinessConsensus2.sol\":2733:2750  businessProposals */\n      0x00\n        /* \"contracts/BusinessConsensus2.sol\":2751:2761  _messageID */\n      dup8\n      dup8\n        /* \"contracts/BusinessConsensus2.sol\":2733:2762  businessProposals[_messageID] */\n      mload(0x40)\n      tag_199\n      swap3\n      swap2\n      swap1\n      tag_124\n      jump\t// in\n    tag_199:\n      swap1\n      dup2\n      mstore\n      0x20\n      add\n      mload(0x40)\n      dup1\n      swap2\n      sub\n      swap1\n      keccak256\n        /* \"contracts/BusinessConsensus2.sol\":2733:2772  businessProposals[_messageID].messageID */\n      0x00\n      add\n        /* \"contracts/BusinessConsensus2.sol\":2773:2790  businessProposals */\n      0x00\n        /* \"contracts/BusinessConsensus2.sol\":2791:2801  _messageID */\n      dup9\n      dup9\n        /* \"contracts/BusinessConsensus2.sol\":2773:2802  businessProposals[_messageID] */\n      mload(0x40)\n      tag_200\n      swap3\n      swap2\n      swap1\n      tag_124\n      jump\t// in\n    tag_200:\n      swap1\n      dup2\n      mstore\n      0x20\n      add\n      mload(0x40)\n      dup1\n      swap2\n      sub\n      swap1\n      keccak256\n        /* \"contracts/BusinessConsensus2.sol\":2773:2813  businessProposals[_messageID].expiryDate */\n      0x04\n      add\n      sload\n        /* \"contracts/BusinessConsensus2.sol\":2814:2831  businessProposals */\n      0x00\n        /* \"contracts/BusinessConsensus2.sol\":2832:2842  _messageID */\n      dup10\n      dup10\n        /* \"contracts/BusinessConsensus2.sol\":2814:2843  businessProposals[_messageID] */\n      mload(0x40)\n      tag_201\n      swap3\n      swap2\n      swap1\n      tag_124\n      jump\t// in\n    tag_201:\n      swap1\n      dup2\n      mstore\n      0x20\n      add\n      mload(0x40)\n      dup1\n      swap2\n      sub\n      swap1\n      keccak256\n        /* \"contracts/BusinessConsensus2.sol\":2814:2853  businessProposals[_messageID].initiator */\n      0x01\n      add\n      0x00\n      swap1\n      sload\n      swap1\n      0x0100\n      exp\n      swap1\n      div\n      0xffffffffffffffffffffffffffffffffffffffff\n      and\n        /* \"contracts/BusinessConsensus2.sol\":2854:2871  businessProposals */\n      0x00\n        /* \"contracts/BusinessConsensus2.sol\":2872:2882  _messageID */\n      dup11\n      dup11\n        /* \"contracts/BusinessConsensus2.sol\":2854:2883  businessProposals[_messageID] */\n      mload(0x40)\n      tag_202\n      swap3\n      swap2\n      swap1\n      tag_124\n      jump\t// in\n    tag_202:\n      swap1\n      dup2\n      mstore\n      0x20\n      add\n      mload(0x40)\n      dup1\n      swap2\n      sub\n      swap1\n      keccak256\n        /* \"contracts/BusinessConsensus2.sol\":2854:2903  businessProposals[_messageID].BusinessRequirement */\n      0x05\n      add\n      sload\n        /* \"contracts/BusinessConsensus2.sol\":2904:2921  businessProposals */\n      0x00\n        /* \"contracts/BusinessConsensus2.sol\":2922:2932  _messageID */\n      dup12\n      dup12\n        /* \"contracts/BusinessConsensus2.sol\":2904:2933  businessProposals[_messageID] */\n      mload(0x40)\n      tag_203\n      swap3\n      swap2\n      swap1\n      tag_124\n      jump\t// in\n    tag_203:\n      swap1\n      dup2\n      mstore\n      0x20\n      add\n      mload(0x40)\n      dup1\n      swap2\n      sub\n      swap1\n      keccak256\n        /* \"contracts/BusinessConsensus2.sol\":2904:2946  businessProposals[_messageID].numApprovals */\n      0x06\n      add\n      sload\n        /* \"contracts/BusinessConsensus2.sol\":2725:2947  return (businessProposals[_messageID].messageID,businessProposals[_messageID].expiryDate,businessProposals[_messageID].initiator,businessProposals[_messageID].BusinessRequirement,businessProposals[_messageID].numApprovals) */\n      dup5\n      dup1\n      sload\n      tag_204\n      swap1\n      tag_90\n      jump\t// in\n    tag_204:\n      dup1\n      0x1f\n      add\n      0x20\n      dup1\n      swap2\n      div\n      mul\n      0x20\n      add\n      mload(0x40)\n      swap1\n      dup2\n      add\n      0x40\n      mstore\n      dup1\n      swap3\n      swap2\n      swap1\n      dup2\n      dup2\n      mstore\n      0x20\n      add\n      dup3\n      dup1\n      sload\n      tag_205\n      swap1\n      tag_90\n      jump\t// in\n    tag_205:\n      dup1\n      iszero\n      tag_206\n      jumpi\n      dup1\n      0x1f\n      lt\n      tag_207\n      jumpi\n      0x0100\n      dup1\n      dup4\n      sload\n      div\n      mul\n      dup4\n      mstore\n      swap2\n      0x20\n      add\n      swap2\n      jump(tag_206)\n    tag_207:\n      dup3\n      add\n      swap2\n      swap1\n      0x00\n      mstore\n      keccak256(0x00, 0x20)\n      swap1\n    tag_208:\n      dup2\n      sload\n      dup2\n      mstore\n      swap1\n      0x01\n      add\n      swap1\n      0x20\n      add\n      dup1\n      dup4\n      gt\n      tag_208\n      jumpi\n      dup3\n      swap1\n      sub\n      0x1f\n      and\n      dup3\n      add\n      swap2\n    tag_206:\n      pop\n      pop\n      pop\n      pop\n      pop\n      swap5\n      pop\n      swap5\n      pop\n      swap5\n      pop\n      swap5\n      pop\n      swap5\n      pop\n      swap5\n      pop\n        /* \"contracts/BusinessConsensus2.sol\":2598:2955  function getParameters(string calldata _messageID) external view returns (string memory, uint , address ,uint ,uint){\r... */\n      swap3\n      swap6\n      pop\n      swap3\n      swap6\n      swap1\n      swap4\n      pop\n      jump\t// out\n        /* \"contracts/BusinessConsensus2.sol\":2961:3238  function getParameters2(address test_address,string calldata _messageID) external view returns (bool, bool, address){\r... */\n    tag_63:\n        /* \"contracts/BusinessConsensus2.sol\":3057:3061  bool */\n      0x00\n        /* \"contracts/BusinessConsensus2.sol\":3063:3067  bool */\n      dup1\n        /* \"contracts/BusinessConsensus2.sol\":3069:3076  address */\n      0x00\n        /* \"contracts/BusinessConsensus2.sol\":3096:3106  voter_maps */\n      0x01\n        /* \"contracts/BusinessConsensus2.sol\":3107:3117  _messageID */\n      dup6\n      dup6\n        /* \"contracts/BusinessConsensus2.sol\":3096:3118  voter_maps[_messageID] */\n      mload(0x40)\n      tag_210\n      swap3\n      swap2\n      swap1\n      tag_124\n      jump\t// in\n    tag_210:\n      swap1\n      dup2\n      mstore\n      0x20\n      add\n      mload(0x40)\n      dup1\n      swap2\n      sub\n      swap1\n      keccak256\n        /* \"contracts/BusinessConsensus2.sol\":3096:3132  voter_maps[_messageID][test_address] */\n      0x00\n        /* \"contracts/BusinessConsensus2.sol\":3119:3131  test_address */\n      dup8\n        /* \"contracts/BusinessConsensus2.sol\":3096:3132  voter_maps[_messageID][test_address] */\n      0xffffffffffffffffffffffffffffffffffffffff\n      and\n      0xffffffffffffffffffffffffffffffffffffffff\n      and\n      dup2\n      mstore\n      0x20\n      add\n      swap1\n      dup2\n      mstore\n      0x20\n      add\n      0x00\n      keccak256\n        /* \"contracts/BusinessConsensus2.sol\":3096:3137  voter_maps[_messageID][test_address].vote */\n      0x00\n      add\n      0x01\n      swap1\n      sload\n      swap1\n      0x0100\n      exp\n      swap1\n      div\n      0xff\n      and\n        /* \"contracts/BusinessConsensus2.sol\":3139:3149  voter_maps */\n      0x01\n        /* \"contracts/BusinessConsensus2.sol\":3150:3160  _messageID */\n      dup7\n      dup7\n        /* \"contracts/BusinessConsensus2.sol\":3139:3161  voter_maps[_messageID] */\n      mload(0x40)\n      tag_211\n      swap3\n      swap2\n      swap1\n      tag_124\n      jump\t// in\n    tag_211:\n      swap1\n      dup2\n      mstore\n      0x20\n      add\n      mload(0x40)\n      dup1\n      swap2\n      sub\n      swap1\n      keccak256\n        /* \"contracts/BusinessConsensus2.sol\":3139:3175  voter_maps[_messageID][test_address] */\n      0x00\n        /* \"contracts/BusinessConsensus2.sol\":3162:3174  test_address */\n      dup9\n        /* \"contracts/BusinessConsensus2.sol\":3139:3175  voter_maps[_messageID][test_address] */\n      0xffffffffffffffffffffffffffffffffffffffff\n      and\n      0xffffffffffffffffffffffffffffffffffffffff\n      and\n      dup2\n      mstore\n      0x20\n      add\n      swap1\n      dup2\n      mstore\n      0x20\n      add\n      0x00\n      keccak256\n        /* \"contracts/BusinessConsensus2.sol\":3139:3181  voter_maps[_messageID][test_address].voted */\n      0x00\n      add\n      0x00\n      swap1\n      sload\n      swap1\n      0x0100\n      exp\n      swap1\n      div\n      0xff\n      and\n        /* \"contracts/BusinessConsensus2.sol\":3183:3193  voter_maps */\n      0x01\n        /* \"contracts/BusinessConsensus2.sol\":3194:3204  _messageID */\n      dup8\n      dup8\n        /* \"contracts/BusinessConsensus2.sol\":3183:3205  voter_maps[_messageID] */\n      mload(0x40)\n      tag_212\n      swap3\n      swap2\n      swap1\n      tag_124\n      jump\t// in\n    tag_212:\n      swap1\n      dup2\n      mstore\n      0x20\n      add\n      mload(0x40)\n      dup1\n      swap2\n      sub\n      swap1\n      keccak256\n        /* \"contracts/BusinessConsensus2.sol\":3183:3219  voter_maps[_messageID][test_address] */\n      0x00\n        /* \"contracts/BusinessConsensus2.sol\":3206:3218  test_address */\n      dup10\n        /* \"contracts/BusinessConsensus2.sol\":3183:3219  voter_maps[_messageID][test_address] */\n      0xffffffffffffffffffffffffffffffffffffffff\n      and\n      0xffffffffffffffffffffffffffffffffffffffff\n      and\n      dup2\n      mstore\n      0x20\n      add\n      swap1\n      dup2\n      mstore\n      0x20\n      add\n      0x00\n      keccak256\n        /* \"contracts/BusinessConsensus2.sol\":3183:3229  voter_maps[_messageID][test_address].recipient */\n      0x00\n      add\n      0x02\n      swap1\n      sload\n      swap1\n      0x0100\n      exp\n      swap1\n      div\n      0xffffffffffffffffffffffffffffffffffffffff\n      and\n        /* \"contracts/BusinessConsensus2.sol\":3088:3230  return (voter_maps[_messageID][test_address].vote, voter_maps[_messageID][test_address].voted, voter_maps[_messageID][test_address].recipient) */\n      swap3\n      pop\n      swap3\n      pop\n      swap3\n      pop\n        /* \"contracts/BusinessConsensus2.sol\":2961:3238  function getParameters2(address test_address,string calldata _messageID) external view returns (bool, bool, address){\r... */\n      swap4\n      pop\n      swap4\n      pop\n      swap4\n      swap1\n      pop\n      jump\t// out\n        /* \"contracts/BusinessConsensus2.sol\":5604:6663  function Consensus(string calldata _messageID) external {\r... */\n    tag_67:\n        /* \"contracts/BusinessConsensus2.sol\":5698:5715  businessProposals */\n      0x00\n        /* \"contracts/BusinessConsensus2.sol\":5716:5726  _messageID */\n      dup3\n      dup3\n        /* \"contracts/BusinessConsensus2.sol\":5698:5727  businessProposals[_messageID] */\n      mload(0x40)\n      tag_214\n      swap3\n      swap2\n      swap1\n      tag_124\n      jump\t// in\n    tag_214:\n      swap1\n      dup2\n      mstore\n      0x20\n      add\n      mload(0x40)\n      dup1\n      swap2\n      sub\n      swap1\n      keccak256\n        /* \"contracts/BusinessConsensus2.sol\":5698:5738  businessProposals[_messageID].expiryDate */\n      0x04\n      add\n      sload\n        /* \"contracts/BusinessConsensus2.sol\":5679:5694  block.timestamp */\n      timestamp\n        /* \"contracts/BusinessConsensus2.sol\":5679:5738  block.timestamp >= businessProposals[_messageID].expiryDate */\n      lt\n      iszero\n        /* \"contracts/BusinessConsensus2.sol\":5671:5775  require(block.timestamp >= businessProposals[_messageID].expiryDate, \"Verdict has not been reached yet\") */\n      tag_215\n      jumpi\n      mload(0x40)\n      0x08c379a000000000000000000000000000000000000000000000000000000000\n      dup2\n      mstore\n      0x04\n      add\n      tag_216\n      swap1\n      tag_165\n      jump\t// in\n    tag_216:\n      mload(0x40)\n      dup1\n      swap2\n      sub\n      swap1\n      revert\n    tag_215:\n        /* \"contracts/BusinessConsensus2.sol\":5838:5843  false */\n      0x00\n        /* \"contracts/BusinessConsensus2.sol\":5794:5843  businessProposals[_messageID].isCompiled == false */\n      iszero\n      iszero\n        /* \"contracts/BusinessConsensus2.sol\":5794:5811  businessProposals */\n      0x00\n        /* \"contracts/BusinessConsensus2.sol\":5812:5822  _messageID */\n      dup4\n      dup4\n        /* \"contracts/BusinessConsensus2.sol\":5794:5823  businessProposals[_messageID] */\n      mload(0x40)\n      tag_217\n      swap3\n      swap2\n      swap1\n      tag_124\n      jump\t// in\n    tag_217:\n      swap1\n      dup2\n      mstore\n      0x20\n      add\n      mload(0x40)\n      dup1\n      swap2\n      sub\n      swap1\n      keccak256\n        /* \"contracts/BusinessConsensus2.sol\":5794:5834  businessProposals[_messageID].isCompiled */\n      0x07\n      add\n      0x00\n      swap1\n      sload\n      swap1\n      0x0100\n      exp\n      swap1\n      div\n      0xff\n      and\n        /* \"contracts/BusinessConsensus2.sol\":5794:5843  businessProposals[_messageID].isCompiled == false */\n      iszero\n      iszero\n      eq\n        /* \"contracts/BusinessConsensus2.sol\":5786:5885  require(businessProposals[_messageID].isCompiled == false, \"Consensus has already been calculated\") */\n      tag_218\n      jumpi\n      mload(0x40)\n      0x08c379a000000000000000000000000000000000000000000000000000000000\n      dup2\n      mstore\n      0x04\n      add\n      tag_219\n      swap1\n      tag_220\n      jump\t// in\n    tag_219:\n      mload(0x40)\n      dup1\n      swap2\n      sub\n      swap1\n      revert\n    tag_218:\n        /* \"contracts/BusinessConsensus2.sol\":5918:5935  businessProposals */\n      0x00\n        /* \"contracts/BusinessConsensus2.sol\":5936:5946  _messageID */\n      dup3\n      dup3\n        /* \"contracts/BusinessConsensus2.sol\":5918:5947  businessProposals[_messageID] */\n      mload(0x40)\n      tag_221\n      swap3\n      swap2\n      swap1\n      tag_124\n      jump\t// in\n    tag_221:\n      swap1\n      dup2\n      mstore\n      0x20\n      add\n      mload(0x40)\n      dup1\n      swap2\n      sub\n      swap1\n      keccak256\n        /* \"contracts/BusinessConsensus2.sol\":5918:5957  businessProposals[_messageID].initiator */\n      0x01\n      add\n      0x00\n      swap1\n      sload\n      swap1\n      0x0100\n      exp\n      swap1\n      div\n      0xffffffffffffffffffffffffffffffffffffffff\n      and\n        /* \"contracts/BusinessConsensus2.sol\":5904:5957  msg.sender == businessProposals[_messageID].initiator */\n      0xffffffffffffffffffffffffffffffffffffffff\n      and\n        /* \"contracts/BusinessConsensus2.sol\":5904:5914  msg.sender */\n      caller\n        /* \"contracts/BusinessConsensus2.sol\":5904:5957  msg.sender == businessProposals[_messageID].initiator */\n      0xffffffffffffffffffffffffffffffffffffffff\n      and\n      eq\n        /* \"contracts/BusinessConsensus2.sol\":5904:6021  msg.sender == businessProposals[_messageID].initiator || voter_maps[_messageID][msg.sender].recipient != address(0x0) */\n      dup1\n      tag_222\n      jumpi\n      pop\n        /* \"contracts/BusinessConsensus2.sol\":6017:6020  0x0 */\n      0x00\n        /* \"contracts/BusinessConsensus2.sol\":5961:6021  voter_maps[_messageID][msg.sender].recipient != address(0x0) */\n      0xffffffffffffffffffffffffffffffffffffffff\n      and\n        /* \"contracts/BusinessConsensus2.sol\":5961:5971  voter_maps */\n      0x01\n        /* \"contracts/BusinessConsensus2.sol\":5972:5982  _messageID */\n      dup4\n      dup4\n        /* \"contracts/BusinessConsensus2.sol\":5961:5983  voter_maps[_messageID] */\n      mload(0x40)\n      tag_223\n      swap3\n      swap2\n      swap1\n      tag_124\n      jump\t// in\n    tag_223:\n      swap1\n      dup2\n      mstore\n      0x20\n      add\n      mload(0x40)\n      dup1\n      swap2\n      sub\n      swap1\n      keccak256\n        /* \"contracts/BusinessConsensus2.sol\":5961:5995  voter_maps[_messageID][msg.sender] */\n      0x00\n        /* \"contracts/BusinessConsensus2.sol\":5984:5994  msg.sender */\n      caller\n        /* \"contracts/BusinessConsensus2.sol\":5961:5995  voter_maps[_messageID][msg.sender] */\n      0xffffffffffffffffffffffffffffffffffffffff\n      and\n      0xffffffffffffffffffffffffffffffffffffffff\n      and\n      dup2\n      mstore\n      0x20\n      add\n      swap1\n      dup2\n      mstore\n      0x20\n      add\n      0x00\n      keccak256\n        /* \"contracts/BusinessConsensus2.sol\":5961:6005  voter_maps[_messageID][msg.sender].recipient */\n      0x00\n      add\n      0x02\n      swap1\n      sload\n      swap1\n      0x0100\n      exp\n      swap1\n      div\n      0xffffffffffffffffffffffffffffffffffffffff\n      and\n        /* \"contracts/BusinessConsensus2.sol\":5961:6021  voter_maps[_messageID][msg.sender].recipient != address(0x0) */\n      0xffffffffffffffffffffffffffffffffffffffff\n      and\n      eq\n      iszero\n        /* \"contracts/BusinessConsensus2.sol\":5904:6021  msg.sender == businessProposals[_messageID].initiator || voter_maps[_messageID][msg.sender].recipient != address(0x0) */\n    tag_222:\n        /* \"contracts/BusinessConsensus2.sol\":5896:6064  require(msg.sender == businessProposals[_messageID].initiator || voter_maps[_messageID][msg.sender].recipient != address(0x0), \"You aren't authorize to compile Bundle\") */\n      tag_224\n      jumpi\n      mload(0x40)\n      0x08c379a000000000000000000000000000000000000000000000000000000000\n      dup2\n      mstore\n      0x04\n      add\n      tag_225\n      swap1\n      tag_226\n      jump\t// in\n    tag_225:\n      mload(0x40)\n      dup1\n      swap2\n      sub\n      swap1\n      revert\n    tag_224:\n        /* \"contracts/BusinessConsensus2.sol\":6075:6104  uint256 AccumulatedPercentage */\n      0x00\n        /* \"contracts/BusinessConsensus2.sol\":6176:6179  100 */\n      0x64\n        /* \"contracts/BusinessConsensus2.sol\":6151:6155  keys */\n      0x03\n        /* \"contracts/BusinessConsensus2.sol\":6156:6166  _messageID */\n      dup5\n      dup5\n        /* \"contracts/BusinessConsensus2.sol\":6151:6167  keys[_messageID] */\n      mload(0x40)\n      tag_227\n      swap3\n      swap2\n      swap1\n      tag_124\n      jump\t// in\n    tag_227:\n      swap1\n      dup2\n      mstore\n      0x20\n      add\n      mload(0x40)\n      dup1\n      swap2\n      sub\n      swap1\n      keccak256\n        /* \"contracts/BusinessConsensus2.sol\":6151:6174  keys[_messageID].length */\n      dup1\n      sload\n      swap1\n      pop\n        /* \"contracts/BusinessConsensus2.sol\":6108:6125  businessProposals */\n      0x00\n        /* \"contracts/BusinessConsensus2.sol\":6126:6136  _messageID */\n      dup6\n      dup6\n        /* \"contracts/BusinessConsensus2.sol\":6108:6137  businessProposals[_messageID] */\n      mload(0x40)\n      tag_228\n      swap3\n      swap2\n      swap1\n      tag_124\n      jump\t// in\n    tag_228:\n      swap1\n      dup2\n      mstore\n      0x20\n      add\n      mload(0x40)\n      dup1\n      swap2\n      sub\n      swap1\n      keccak256\n        /* \"contracts/BusinessConsensus2.sol\":6108:6150  businessProposals[_messageID].numApprovals */\n      0x06\n      add\n      sload\n        /* \"contracts/BusinessConsensus2.sol\":6108:6174  businessProposals[_messageID].numApprovals/keys[_messageID].length */\n      tag_229\n      swap2\n      swap1\n      tag_230\n      jump\t// in\n    tag_229:\n        /* \"contracts/BusinessConsensus2.sol\":6107:6179  (businessProposals[_messageID].numApprovals/keys[_messageID].length)*100 */\n      tag_231\n      swap2\n      swap1\n      tag_232\n      jump\t// in\n    tag_231:\n        /* \"contracts/BusinessConsensus2.sol\":6075:6179  uint256 AccumulatedPercentage = (businessProposals[_messageID].numApprovals/keys[_messageID].length)*100 */\n      swap1\n      pop\n        /* \"contracts/BusinessConsensus2.sol\":6218:6235  businessProposals */\n      0x00\n        /* \"contracts/BusinessConsensus2.sol\":6236:6246  _messageID */\n      dup4\n      dup4\n        /* \"contracts/BusinessConsensus2.sol\":6218:6247  businessProposals[_messageID] */\n      mload(0x40)\n      tag_233\n      swap3\n      swap2\n      swap1\n      tag_124\n      jump\t// in\n    tag_233:\n      swap1\n      dup2\n      mstore\n      0x20\n      add\n      mload(0x40)\n      dup1\n      swap2\n      sub\n      swap1\n      keccak256\n        /* \"contracts/BusinessConsensus2.sol\":6218:6267  businessProposals[_messageID].BusinessRequirement */\n      0x05\n      add\n      sload\n        /* \"contracts/BusinessConsensus2.sol\":6193:6214  AccumulatedPercentage */\n      dup2\n        /* \"contracts/BusinessConsensus2.sol\":6193:6267  AccumulatedPercentage >= businessProposals[_messageID].BusinessRequirement */\n      lt\n        /* \"contracts/BusinessConsensus2.sol\":6190:6350  if(AccumulatedPercentage >= businessProposals[_messageID].BusinessRequirement){\r... */\n      tag_234\n      jumpi\n        /* \"contracts/BusinessConsensus2.sol\":6283:6338  businessProposals[_messageID].finalVerdict = \"Accepted\" */\n      0x4163636570746564000000000000000000000000000000000000000000000000\n        /* \"contracts/BusinessConsensus2.sol\":6283:6300  businessProposals */\n      0x00\n        /* \"contracts/BusinessConsensus2.sol\":6301:6311  _messageID */\n      dup5\n      dup5\n        /* \"contracts/BusinessConsensus2.sol\":6283:6312  businessProposals[_messageID] */\n      mload(0x40)\n      tag_235\n      swap3\n      swap2\n      swap1\n      tag_124\n      jump\t// in\n    tag_235:\n      swap1\n      dup2\n      mstore\n      0x20\n      add\n      mload(0x40)\n      dup1\n      swap2\n      sub\n      swap1\n      keccak256\n        /* \"contracts/BusinessConsensus2.sol\":6283:6325  businessProposals[_messageID].finalVerdict */\n      0x08\n      add\n        /* \"contracts/BusinessConsensus2.sol\":6283:6338  businessProposals[_messageID].finalVerdict = \"Accepted\" */\n      dup2\n      swap1\n      sstore\n      pop\n        /* \"contracts/BusinessConsensus2.sol\":6190:6350  if(AccumulatedPercentage >= businessProposals[_messageID].BusinessRequirement){\r... */\n    tag_234:\n        /* \"contracts/BusinessConsensus2.sol\":6364:6371  uint8 i */\n      0x00\n        /* \"contracts/BusinessConsensus2.sol\":6360:6598  for(uint8 i=0; i< keys[_messageID].length; i++){\r... */\n    tag_236:\n        /* \"contracts/BusinessConsensus2.sol\":6378:6382  keys */\n      0x03\n        /* \"contracts/BusinessConsensus2.sol\":6383:6393  _messageID */\n      dup5\n      dup5\n        /* \"contracts/BusinessConsensus2.sol\":6378:6394  keys[_messageID] */\n      mload(0x40)\n      tag_239\n      swap3\n      swap2\n      swap1\n      tag_124\n      jump\t// in\n    tag_239:\n      swap1\n      dup2\n      mstore\n      0x20\n      add\n      mload(0x40)\n      dup1\n      swap2\n      sub\n      swap1\n      keccak256\n        /* \"contracts/BusinessConsensus2.sol\":6378:6401  keys[_messageID].length */\n      dup1\n      sload\n      swap1\n      pop\n        /* \"contracts/BusinessConsensus2.sol\":6375:6376  i */\n      dup2\n        /* \"contracts/BusinessConsensus2.sol\":6375:6401  i< keys[_messageID].length */\n      0xff\n      and\n      lt\n        /* \"contracts/BusinessConsensus2.sol\":6360:6598  for(uint8 i=0; i< keys[_messageID].length; i++){\r... */\n      iszero\n      tag_237\n      jumpi\n        /* \"contracts/BusinessConsensus2.sol\":6478:6483  false */\n      0x00\n        /* \"contracts/BusinessConsensus2.sol\":6425:6483  voter_maps[_messageID][keys[_messageID][i]].voted == false */\n      iszero\n      iszero\n        /* \"contracts/BusinessConsensus2.sol\":6425:6435  voter_maps */\n      0x01\n        /* \"contracts/BusinessConsensus2.sol\":6436:6446  _messageID */\n      dup6\n      dup6\n        /* \"contracts/BusinessConsensus2.sol\":6425:6447  voter_maps[_messageID] */\n      mload(0x40)\n      tag_240\n      swap3\n      swap2\n      swap1\n      tag_124\n      jump\t// in\n    tag_240:\n      swap1\n      dup2\n      mstore\n      0x20\n      add\n      mload(0x40)\n      dup1\n      swap2\n      sub\n      swap1\n      keccak256\n        /* \"contracts/BusinessConsensus2.sol\":6425:6468  voter_maps[_messageID][keys[_messageID][i]] */\n      0x00\n        /* \"contracts/BusinessConsensus2.sol\":6448:6452  keys */\n      0x03\n        /* \"contracts/BusinessConsensus2.sol\":6453:6463  _messageID */\n      dup8\n      dup8\n        /* \"contracts/BusinessConsensus2.sol\":6448:6464  keys[_messageID] */\n      mload(0x40)\n      tag_241\n      swap3\n      swap2\n      swap1\n      tag_124\n      jump\t// in\n    tag_241:\n      swap1\n      dup2\n      mstore\n      0x20\n      add\n      mload(0x40)\n      dup1\n      swap2\n      sub\n      swap1\n      keccak256\n        /* \"contracts/BusinessConsensus2.sol\":6465:6466  i */\n      dup5\n        /* \"contracts/BusinessConsensus2.sol\":6448:6467  keys[_messageID][i] */\n      0xff\n      and\n      dup2\n      sload\n      dup2\n      lt\n      tag_242\n      jumpi\n      tag_243\n      tag_244\n      jump\t// in\n    tag_243:\n    tag_242:\n      swap1\n      0x00\n      mstore\n      keccak256(0x00, 0x20)\n      add\n      0x00\n      swap1\n      sload\n      swap1\n      0x0100\n      exp\n      swap1\n      div\n      0xffffffffffffffffffffffffffffffffffffffff\n      and\n        /* \"contracts/BusinessConsensus2.sol\":6425:6468  voter_maps[_messageID][keys[_messageID][i]] */\n      0xffffffffffffffffffffffffffffffffffffffff\n      and\n      0xffffffffffffffffffffffffffffffffffffffff\n      and\n      dup2\n      mstore\n      0x20\n      add\n      swap1\n      dup2\n      mstore\n      0x20\n      add\n      0x00\n      keccak256\n        /* \"contracts/BusinessConsensus2.sol\":6425:6474  voter_maps[_messageID][keys[_messageID][i]].voted */\n      0x00\n      add\n      0x00\n      swap1\n      sload\n      swap1\n      0x0100\n      exp\n      swap1\n      div\n      0xff\n      and\n        /* \"contracts/BusinessConsensus2.sol\":6425:6483  voter_maps[_messageID][keys[_messageID][i]].voted == false */\n      iszero\n      iszero\n      eq\n        /* \"contracts/BusinessConsensus2.sol\":6422:6587  if(voter_maps[_messageID][keys[_messageID][i]].voted == false){\r... */\n      iszero\n      tag_246\n      jumpi\n        /* \"contracts/BusinessConsensus2.sol\":6503:6509  Voters */\n      0x02\n        /* \"contracts/BusinessConsensus2.sol\":6510:6520  _messageID */\n      dup5\n      dup5\n        /* \"contracts/BusinessConsensus2.sol\":6503:6521  Voters[_messageID] */\n      mload(0x40)\n      tag_247\n      swap3\n      swap2\n      swap1\n      tag_124\n      jump\t// in\n    tag_247:\n      swap1\n      dup2\n      mstore\n      0x20\n      add\n      mload(0x40)\n      dup1\n      swap2\n      sub\n      swap1\n      keccak256\n        /* \"contracts/BusinessConsensus2.sol\":6527:6537  voter_maps */\n      0x01\n        /* \"contracts/BusinessConsensus2.sol\":6538:6548  _messageID */\n      dup6\n      dup6\n        /* \"contracts/BusinessConsensus2.sol\":6527:6549  voter_maps[_messageID] */\n      mload(0x40)\n      tag_248\n      swap3\n      swap2\n      swap1\n      tag_124\n      jump\t// in\n    tag_248:\n      swap1\n      dup2\n      mstore\n      0x20\n      add\n      mload(0x40)\n      dup1\n      swap2\n      sub\n      swap1\n      keccak256\n        /* \"contracts/BusinessConsensus2.sol\":6527:6570  voter_maps[_messageID][keys[_messageID][i]] */\n      0x00\n        /* \"contracts/BusinessConsensus2.sol\":6550:6554  keys */\n      0x03\n        /* \"contracts/BusinessConsensus2.sol\":6555:6565  _messageID */\n      dup8\n      dup8\n        /* \"contracts/BusinessConsensus2.sol\":6550:6566  keys[_messageID] */\n      mload(0x40)\n      tag_249\n      swap3\n      swap2\n      swap1\n      tag_124\n      jump\t// in\n    tag_249:\n      swap1\n      dup2\n      mstore\n      0x20\n      add\n      mload(0x40)\n      dup1\n      swap2\n      sub\n      swap1\n      keccak256\n        /* \"contracts/BusinessConsensus2.sol\":6567:6568  i */\n      dup5\n        /* \"contracts/BusinessConsensus2.sol\":6550:6569  keys[_messageID][i] */\n      0xff\n      and\n      dup2\n      sload\n      dup2\n      lt\n      tag_250\n      jumpi\n      tag_251\n      tag_244\n      jump\t// in\n    tag_251:\n    tag_250:\n      swap1\n      0x00\n      mstore\n      keccak256(0x00, 0x20)\n      add\n      0x00\n      swap1\n      sload\n      swap1\n      0x0100\n      exp\n      swap1\n      div\n      0xffffffffffffffffffffffffffffffffffffffff\n      and\n        /* \"contracts/BusinessConsensus2.sol\":6527:6570  voter_maps[_messageID][keys[_messageID][i]] */\n      0xffffffffffffffffffffffffffffffffffffffff\n      and\n      0xffffffffffffffffffffffffffffffffffffffff\n      and\n      dup2\n      mstore\n      0x20\n      add\n      swap1\n      dup2\n      mstore\n      0x20\n      add\n      0x00\n      keccak256\n        /* \"contracts/BusinessConsensus2.sol\":6503:6571  Voters[_messageID].push(voter_maps[_messageID][keys[_messageID][i]]) */\n      swap1\n      dup1\n      0x01\n      dup2\n      sload\n      add\n      dup1\n      dup3\n      sstore\n      dup1\n      swap2\n      pop\n      pop\n      0x01\n      swap1\n      sub\n      swap1\n      0x00\n      mstore\n      keccak256(0x00, 0x20)\n      add\n      0x00\n      swap1\n      swap2\n      swap1\n      swap2\n      swap1\n      swap2\n      pop\n      0x00\n      dup3\n      add\n      0x00\n      swap1\n      sload\n      swap1\n      0x0100\n      exp\n      swap1\n      div\n      0xff\n      and\n      dup2\n      0x00\n      add\n      exp(0x0100, 0x00)\n      dup2\n      sload\n      dup2\n      0xff\n      mul\n      not\n      and\n      swap1\n      dup4\n      iszero\n      iszero\n      mul\n      or\n      swap1\n      sstore\n      pop\n      0x00\n      dup3\n      add\n      0x01\n      swap1\n      sload\n      swap1\n      0x0100\n      exp\n      swap1\n      div\n      0xff\n      and\n      dup2\n      0x00\n      add\n      exp(0x0100, 0x01)\n      dup2\n      sload\n      dup2\n      0xff\n      mul\n      not\n      and\n      swap1\n      dup4\n      iszero\n      iszero\n      mul\n      or\n      swap1\n      sstore\n      pop\n      0x00\n      dup3\n      add\n      0x02\n      swap1\n      sload\n      swap1\n      0x0100\n      exp\n      swap1\n      div\n      0xffffffffffffffffffffffffffffffffffffffff\n      and\n      dup2\n      0x00\n      add\n      exp(0x0100, 0x02)\n      dup2\n      sload\n      dup2\n      0xffffffffffffffffffffffffffffffffffffffff\n      mul\n      not\n      and\n      swap1\n      dup4\n      0xffffffffffffffffffffffffffffffffffffffff\n      and\n      mul\n      or\n      swap1\n      sstore\n      pop\n      pop\n      pop\n        /* \"contracts/BusinessConsensus2.sol\":6422:6587  if(voter_maps[_messageID][keys[_messageID][i]].voted == false){\r... */\n    tag_246:\n        /* \"contracts/BusinessConsensus2.sol\":6403:6406  i++ */\n      dup1\n      dup1\n      tag_254\n      swap1\n      tag_255\n      jump\t// in\n    tag_254:\n      swap2\n      pop\n      pop\n        /* \"contracts/BusinessConsensus2.sol\":6360:6598  for(uint8 i=0; i< keys[_messageID].length; i++){\r... */\n      jump(tag_236)\n    tag_237:\n      pop\n        /* \"contracts/BusinessConsensus2.sol\":6651:6655  true */\n      0x01\n        /* \"contracts/BusinessConsensus2.sol\":6608:6625  businessProposals */\n      0x00\n        /* \"contracts/BusinessConsensus2.sol\":6626:6636  _messageID */\n      dup5\n      dup5\n        /* \"contracts/BusinessConsensus2.sol\":6608:6637  businessProposals[_messageID] */\n      mload(0x40)\n      tag_256\n      swap3\n      swap2\n      swap1\n      tag_124\n      jump\t// in\n    tag_256:\n      swap1\n      dup2\n      mstore\n      0x20\n      add\n      mload(0x40)\n      dup1\n      swap2\n      sub\n      swap1\n      keccak256\n        /* \"contracts/BusinessConsensus2.sol\":6608:6648  businessProposals[_messageID].isCompiled */\n      0x07\n      add\n      0x00\n        /* \"contracts/BusinessConsensus2.sol\":6608:6655  businessProposals[_messageID].isCompiled = true */\n      0x0100\n      exp\n      dup2\n      sload\n      dup2\n      0xff\n      mul\n      not\n      and\n      swap1\n      dup4\n      iszero\n      iszero\n      mul\n      or\n      swap1\n      sstore\n      pop\n        /* \"contracts/BusinessConsensus2.sol\":5660:6663  {\r... */\n      pop\n        /* \"contracts/BusinessConsensus2.sol\":5604:6663  function Consensus(string calldata _messageID) external {\r... */\n      pop\n      pop\n      jump\t// out\n        /* \"contracts/BusinessConsensus2.sol\":1076:1114  mapping(string=>Voter[]) public Voters */\n    tag_70:\n      0x02\n      dup3\n      dup1\n      mload\n      0x20\n      dup2\n      add\n      dup3\n      add\n      dup1\n      mload\n      dup5\n      dup3\n      mstore\n      0x20\n      dup4\n      add\n      0x20\n      dup6\n      add\n      keccak256\n      dup2\n      dup4\n      mstore\n      dup1\n      swap6\n      pop\n      pop\n      pop\n      pop\n      pop\n      pop\n      dup2\n      dup2\n      sload\n      dup2\n      lt\n      tag_257\n      jumpi\n      0x00\n      dup1\n      revert\n    tag_257:\n      swap1\n      0x00\n      mstore\n      keccak256(0x00, 0x20)\n      add\n      0x00\n      swap2\n      pop\n      swap2\n      pop\n      pop\n      dup1\n      0x00\n      add\n      0x00\n      swap1\n      sload\n      swap1\n      0x0100\n      exp\n      swap1\n      div\n      0xff\n      and\n      swap1\n      dup1\n      0x00\n      add\n      0x01\n      swap1\n      sload\n      swap1\n      0x0100\n      exp\n      swap1\n      div\n      0xff\n      and\n      swap1\n      dup1\n      0x00\n      add\n      0x02\n      swap1\n      sload\n      swap1\n      0x0100\n      exp\n      swap1\n      div\n      0xffffffffffffffffffffffffffffffffffffffff\n      and\n      swap1\n      pop\n      dup4\n      jump\t// out\n        /* \"contracts/BusinessConsensus2.sol\":2154:2301  function getValues(string calldata _messageID) public view returns (string memory){\r... */\n    tag_74:\n        /* \"contracts/BusinessConsensus2.sol\":2222:2235  string memory */\n      0x60\n        /* \"contracts/BusinessConsensus2.sol\":2254:2271  businessProposals */\n      0x00\n        /* \"contracts/BusinessConsensus2.sol\":2272:2282  _messageID */\n      dup4\n      dup4\n        /* \"contracts/BusinessConsensus2.sol\":2254:2283  businessProposals[_messageID] */\n      mload(0x40)\n      tag_260\n      swap3\n      swap2\n      swap1\n      tag_124\n      jump\t// in\n    tag_260:\n      swap1\n      dup2\n      mstore\n      0x20\n      add\n      mload(0x40)\n      dup1\n      swap2\n      sub\n      swap1\n      keccak256\n        /* \"contracts/BusinessConsensus2.sol\":2254:2293  businessProposals[_messageID].messageID */\n      0x00\n      add\n        /* \"contracts/BusinessConsensus2.sol\":2247:2293  return businessProposals[_messageID].messageID */\n      dup1\n      sload\n      tag_261\n      swap1\n      tag_90\n      jump\t// in\n    tag_261:\n      dup1\n      0x1f\n      add\n      0x20\n      dup1\n      swap2\n      div\n      mul\n      0x20\n      add\n      mload(0x40)\n      swap1\n      dup2\n      add\n      0x40\n      mstore\n      dup1\n      swap3\n      swap2\n      swap1\n      dup2\n      dup2\n      mstore\n      0x20\n      add\n      dup3\n      dup1\n      sload\n      tag_262\n      swap1\n      tag_90\n      jump\t// in\n    tag_262:\n      dup1\n      iszero\n      tag_263\n      jumpi\n      dup1\n      0x1f\n      lt\n      tag_264\n      jumpi\n      0x0100\n      dup1\n      dup4\n      sload\n      div\n      mul\n      dup4\n      mstore\n      swap2\n      0x20\n      add\n      swap2\n      jump(tag_263)\n    tag_264:\n      dup3\n      add\n      swap2\n      swap1\n      0x00\n      mstore\n      keccak256(0x00, 0x20)\n      swap1\n    tag_265:\n      dup2\n      sload\n      dup2\n      mstore\n      swap1\n      0x01\n      add\n      swap1\n      0x20\n      add\n      dup1\n      dup4\n      gt\n      tag_265\n      jumpi\n      dup3\n      swap1\n      sub\n      0x1f\n      and\n      dup3\n      add\n      swap2\n    tag_263:\n      pop\n      pop\n      pop\n      pop\n      pop\n      swap1\n      pop\n        /* \"contracts/BusinessConsensus2.sol\":2154:2301  function getValues(string calldata _messageID) public view returns (string memory){\r... */\n      swap3\n      swap2\n      pop\n      pop\n      jump\t// out\n        /* \"contracts/BusinessConsensus2.sol\":2456:2592  function getIsCreated(string calldata subject) public view returns (Proposal memory){\r... */\n    tag_79:\n        /* \"contracts/BusinessConsensus2.sol\":2524:2539  Proposal memory */\n      tag_266\n      tag_267\n      jump\t// in\n    tag_266:\n        /* \"contracts/BusinessConsensus2.sol\":2558:2575  businessProposals */\n      0x00\n        /* \"contracts/BusinessConsensus2.sol\":2576:2583  subject */\n      dup4\n      dup4\n        /* \"contracts/BusinessConsensus2.sol\":2558:2584  businessProposals[subject] */\n      mload(0x40)\n      tag_269\n      swap3\n      swap2\n      swap1\n      tag_124\n      jump\t// in\n    tag_269:\n      swap1\n      dup2\n      mstore\n      0x20\n      add\n      mload(0x40)\n      dup1\n      swap2\n      sub\n      swap1\n      keccak256\n        /* \"contracts/BusinessConsensus2.sol\":2551:2584  return businessProposals[subject] */\n      mload(0x40)\n      dup1\n      0x0160\n      add\n      0x40\n      mstore\n      swap1\n      dup2\n      0x00\n      dup3\n      add\n      dup1\n      sload\n      tag_270\n      swap1\n      tag_90\n      jump\t// in\n    tag_270:\n      dup1\n      0x1f\n      add\n      0x20\n      dup1\n      swap2\n      div\n      mul\n      0x20\n      add\n      mload(0x40)\n      swap1\n      dup2\n      add\n      0x40\n      mstore\n      dup1\n      swap3\n      swap2\n      swap1\n      dup2\n      dup2\n      mstore\n      0x20\n      add\n      dup3\n      dup1\n      sload\n      tag_271\n      swap1\n      tag_90\n      jump\t// in\n    tag_271:\n      dup1\n      iszero\n      tag_272\n      jumpi\n      dup1\n      0x1f\n      lt\n      tag_273\n      jumpi\n      0x0100\n      dup1\n      dup4\n      sload\n      div\n      mul\n      dup4\n      mstore\n      swap2\n      0x20\n      add\n      swap2\n      jump(tag_272)\n    tag_273:\n      dup3\n      add\n      swap2\n      swap1\n      0x00\n      mstore\n      keccak256(0x00, 0x20)\n      swap1\n    tag_274:\n      dup2\n      sload\n      dup2\n      mstore\n      swap1\n      0x01\n      add\n      swap1\n      0x20\n      add\n      dup1\n      dup4\n      gt\n      tag_274\n      jumpi\n      dup3\n      swap1\n      sub\n      0x1f\n      and\n      dup3\n      add\n      swap2\n    tag_272:\n      pop\n      pop\n      pop\n      pop\n      pop\n      dup2\n      mstore\n      0x20\n      add\n      0x01\n      dup3\n      add\n      0x00\n      swap1\n      sload\n      swap1\n      0x0100\n      exp\n      swap1\n      div\n      0xffffffffffffffffffffffffffffffffffffffff\n      and\n      0xffffffffffffffffffffffffffffffffffffffff\n      and\n      0xffffffffffffffffffffffffffffffffffffffff\n      and\n      dup2\n      mstore\n      0x20\n      add\n      0x02\n      dup3\n      add\n      0x00\n      swap1\n      sload\n      swap1\n      0x0100\n      exp\n      swap1\n      div\n      0xffffffffffffffffffffffffffffffffffffffff\n      and\n      0xffffffffffffffffffffffffffffffffffffffff\n      and\n      0xffffffffffffffffffffffffffffffffffffffff\n      and\n      dup2\n      mstore\n      0x20\n      add\n      0x03\n      dup3\n      add\n      sload\n      dup2\n      mstore\n      0x20\n      add\n      0x04\n      dup3\n      add\n      sload\n      dup2\n      mstore\n      0x20\n      add\n      0x05\n      dup3\n      add\n      sload\n      dup2\n      mstore\n      0x20\n      add\n      0x06\n      dup3\n      add\n      sload\n      dup2\n      mstore\n      0x20\n      add\n      0x07\n      dup3\n      add\n      0x00\n      swap1\n      sload\n      swap1\n      0x0100\n      exp\n      swap1\n      div\n      0xff\n      and\n      iszero\n      iszero\n      iszero\n      iszero\n      dup2\n      mstore\n      0x20\n      add\n      0x08\n      dup3\n      add\n      sload\n      dup2\n      mstore\n      0x20\n      add\n      0x09\n      dup3\n      add\n      dup1\n      sload\n      tag_275\n      swap1\n      tag_90\n      jump\t// in\n    tag_275:\n      dup1\n      0x1f\n      add\n      0x20\n      dup1\n      swap2\n      div\n      mul\n      0x20\n      add\n      mload(0x40)\n      swap1\n      dup2\n      add\n      0x40\n      mstore\n      dup1\n      swap3\n      swap2\n      swap1\n      dup2\n      dup2\n      mstore\n      0x20\n      add\n      dup3\n      dup1\n      sload\n      tag_276\n      swap1\n      tag_90\n      jump\t// in\n    tag_276:\n      dup1\n      iszero\n      tag_277\n      jumpi\n      dup1\n      0x1f\n      lt\n      tag_278\n      jumpi\n      0x0100\n      dup1\n      dup4\n      sload\n      div\n      mul\n      dup4\n      mstore\n      swap2\n      0x20\n      add\n      swap2\n      jump(tag_277)\n    tag_278:\n      dup3\n      add\n      swap2\n      swap1\n      0x00\n      mstore\n      keccak256(0x00, 0x20)\n      swap1\n    tag_279:\n      dup2\n      sload\n      dup2\n      mstore\n      swap1\n      0x01\n      add\n      swap1\n      0x20\n      add\n      dup1\n      dup4\n      gt\n      tag_279\n      jumpi\n      dup3\n      swap1\n      sub\n      0x1f\n      and\n      dup3\n      add\n      swap2\n    tag_277:\n      pop\n      pop\n      pop\n      pop\n      pop\n      dup2\n      mstore\n      0x20\n      add\n      0x0a\n      dup3\n      add\n      dup1\n      sload\n      tag_280\n      swap1\n      tag_90\n      jump\t// in\n    tag_280:\n      dup1\n      0x1f\n      add\n      0x20\n      dup1\n      swap2\n      div\n      mul\n      0x20\n      add\n      mload(0x40)\n      swap1\n      dup2\n      add\n      0x40\n      mstore\n      dup1\n      swap3\n      swap2\n      swap1\n      dup2\n      dup2\n      mstore\n      0x20\n      add\n      dup3\n      dup1\n      sload\n      tag_281\n      swap1\n      tag_90\n      jump\t// in\n    tag_281:\n      dup1\n      iszero\n      tag_282\n      jumpi\n      dup1\n      0x1f\n      lt\n      tag_283\n      jumpi\n      0x0100\n      dup1\n      dup4\n      sload\n      div\n      mul\n      dup4\n      mstore\n      swap2\n      0x20\n      add\n      swap2\n      jump(tag_282)\n    tag_283:\n      dup3\n      add\n      swap2\n      swap1\n      0x00\n      mstore\n      keccak256(0x00, 0x20)\n      swap1\n    tag_284:\n      dup2\n      sload\n      dup2\n      mstore\n      swap1\n      0x01\n      add\n      swap1\n      0x20\n      add\n      dup1\n      dup4\n      gt\n      tag_284\n      jumpi\n      dup3\n      swap1\n      sub\n      0x1f\n      and\n      dup3\n      add\n      swap2\n    tag_282:\n      pop\n      pop\n      pop\n      pop\n      pop\n      dup2\n      mstore\n      pop\n      pop\n      swap1\n      pop\n        /* \"contracts/BusinessConsensus2.sol\":2456:2592  function getIsCreated(string calldata subject) public view returns (Proposal memory){\r... */\n      swap3\n      swap2\n      pop\n      pop\n      jump\t// out\n        /* \"contracts/BusinessConsensus2.sol\":2307:2450  function getIsCompiled(string calldata _messageID) public view returns (bool){\r... */\n    tag_84:\n        /* \"contracts/BusinessConsensus2.sol\":2379:2383  bool */\n      0x00\n        /* \"contracts/BusinessConsensus2.sol\":2402:2419  businessProposals */\n      dup1\n        /* \"contracts/BusinessConsensus2.sol\":2420:2430  _messageID */\n      dup4\n      dup4\n        /* \"contracts/BusinessConsensus2.sol\":2402:2431  businessProposals[_messageID] */\n      mload(0x40)\n      tag_286\n      swap3\n      swap2\n      swap1\n      tag_124\n      jump\t// in\n    tag_286:\n      swap1\n      dup2\n      mstore\n      0x20\n      add\n      mload(0x40)\n      dup1\n      swap2\n      sub\n      swap1\n      keccak256\n        /* \"contracts/BusinessConsensus2.sol\":2402:2442  businessProposals[_messageID].isCompiled */\n      0x07\n      add\n      0x00\n      swap1\n      sload\n      swap1\n      0x0100\n      exp\n      swap1\n      div\n      0xff\n      and\n        /* \"contracts/BusinessConsensus2.sol\":2395:2442  return businessProposals[_messageID].isCompiled */\n      swap1\n      pop\n        /* \"contracts/BusinessConsensus2.sol\":2307:2450  function getIsCompiled(string calldata _messageID) public view returns (bool){\r... */\n      swap3\n      swap2\n      pop\n      pop\n      jump\t// out\n    tag_115:\n      dup3\n      dup1\n      sload\n      tag_287\n      swap1\n      tag_90\n      jump\t// in\n    tag_287:\n      swap1\n      0x00\n      mstore\n      keccak256(0x00, 0x20)\n      swap1\n      0x1f\n      add\n      0x20\n      swap1\n      div\n      dup2\n      add\n      swap3\n      dup3\n      tag_289\n      jumpi\n      0x00\n      dup6\n      sstore\n      jump(tag_288)\n    tag_289:\n      dup3\n      0x1f\n      lt\n      tag_290\n      jumpi\n      dup1\n      mload\n      not(0xff)\n      and\n      dup4\n      dup1\n      add\n      or\n      dup6\n      sstore\n      jump(tag_288)\n    tag_290:\n      dup3\n      dup1\n      add\n      0x01\n      add\n      dup6\n      sstore\n      dup3\n      iszero\n      tag_288\n      jumpi\n      swap2\n      dup3\n      add\n    tag_291:\n      dup3\n      dup2\n      gt\n      iszero\n      tag_292\n      jumpi\n      dup3\n      mload\n      dup3\n      sstore\n      swap2\n      0x20\n      add\n      swap2\n      swap1\n      0x01\n      add\n      swap1\n      jump(tag_291)\n    tag_292:\n    tag_288:\n      pop\n      swap1\n      pop\n      tag_293\n      swap2\n      swap1\n      tag_294\n      jump\t// in\n    tag_293:\n      pop\n      swap1\n      jump\t// out\n    tag_267:\n      mload(0x40)\n      dup1\n      0x0160\n      add\n      0x40\n      mstore\n      dup1\n      0x60\n      dup2\n      mstore\n      0x20\n      add\n      and(0xffffffffffffffffffffffffffffffffffffffff, 0x00)\n      dup2\n      mstore\n      0x20\n      add\n      and(0xffffffffffffffffffffffffffffffffffffffff, 0x00)\n      dup2\n      mstore\n      0x20\n      add\n      0x00\n      dup2\n      mstore\n      0x20\n      add\n      0x00\n      dup2\n      mstore\n      0x20\n      add\n      0x00\n      dup2\n      mstore\n      0x20\n      add\n      0x00\n      dup2\n      mstore\n      0x20\n      add\n      iszero(iszero(0x00))\n      dup2\n      mstore\n      0x20\n      add\n      0x00\n      dup1\n      not\n      and\n      dup2\n      mstore\n      0x20\n      add\n      0x60\n      dup2\n      mstore\n      0x20\n      add\n      0x60\n      dup2\n      mstore\n      pop\n      swap1\n      jump\t// out\n    tag_294:\n    tag_295:\n      dup1\n      dup3\n      gt\n      iszero\n      tag_296\n      jumpi\n      0x00\n      dup2\n      0x00\n      swap1\n      sstore\n      pop\n      0x01\n      add\n      jump(tag_295)\n    tag_296:\n      pop\n      swap1\n      jump\t// out\n        /* \"#utility.yul\":7:419   */\n    tag_298:\n        /* \"#utility.yul\":85:90   */\n      0x00\n        /* \"#utility.yul\":110:176   */\n      tag_300\n        /* \"#utility.yul\":126:175   */\n      tag_301\n        /* \"#utility.yul\":168:174   */\n      dup5\n        /* \"#utility.yul\":126:175   */\n      tag_302\n      jump\t// in\n    tag_301:\n        /* \"#utility.yul\":110:176   */\n      tag_303\n      jump\t// in\n    tag_300:\n        /* \"#utility.yul\":101:176   */\n      swap1\n      pop\n        /* \"#utility.yul\":199:205   */\n      dup3\n        /* \"#utility.yul\":192:197   */\n      dup2\n        /* \"#utility.yul\":185:206   */\n      mstore\n        /* \"#utility.yul\":237:241   */\n      0x20\n        /* \"#utility.yul\":230:235   */\n      dup2\n        /* \"#utility.yul\":226:242   */\n      add\n        /* \"#utility.yul\":275:278   */\n      dup5\n        /* \"#utility.yul\":266:272   */\n      dup5\n        /* \"#utility.yul\":261:264   */\n      dup5\n        /* \"#utility.yul\":257:273   */\n      add\n        /* \"#utility.yul\":254:279   */\n      gt\n        /* \"#utility.yul\":251:363   */\n      iszero\n      tag_304\n      jumpi\n        /* \"#utility.yul\":282:361   */\n      tag_305\n      tag_306\n      jump\t// in\n    tag_305:\n        /* \"#utility.yul\":251:363   */\n    tag_304:\n        /* \"#utility.yul\":372:413   */\n      tag_307\n        /* \"#utility.yul\":406:412   */\n      dup5\n        /* \"#utility.yul\":401:404   */\n      dup3\n        /* \"#utility.yul\":396:399   */\n      dup6\n        /* \"#utility.yul\":372:413   */\n      tag_308\n      jump\t// in\n    tag_307:\n        /* \"#utility.yul\":91:419   */\n      pop\n        /* \"#utility.yul\":7:419   */\n      swap4\n      swap3\n      pop\n      pop\n      pop\n      jump\t// out\n        /* \"#utility.yul\":425:564   */\n    tag_309:\n        /* \"#utility.yul\":471:476   */\n      0x00\n        /* \"#utility.yul\":509:515   */\n      dup2\n        /* \"#utility.yul\":496:516   */\n      calldataload\n        /* \"#utility.yul\":487:516   */\n      swap1\n      pop\n        /* \"#utility.yul\":525:558   */\n      tag_311\n        /* \"#utility.yul\":552:557   */\n      dup2\n        /* \"#utility.yul\":525:558   */\n      tag_312\n      jump\t// in\n    tag_311:\n        /* \"#utility.yul\":425:564   */\n      swap3\n      swap2\n      pop\n      pop\n      jump\t// out\n        /* \"#utility.yul\":584:1137   */\n    tag_313:\n        /* \"#utility.yul\":642:650   */\n      0x00\n        /* \"#utility.yul\":652:658   */\n      dup1\n        /* \"#utility.yul\":702:705   */\n      dup4\n        /* \"#utility.yul\":695:699   */\n      0x1f\n        /* \"#utility.yul\":687:693   */\n      dup5\n        /* \"#utility.yul\":683:700   */\n      add\n        /* \"#utility.yul\":679:706   */\n      slt\n        /* \"#utility.yul\":669:791   */\n      tag_315\n      jumpi\n        /* \"#utility.yul\":710:789   */\n      tag_316\n      tag_317\n      jump\t// in\n    tag_316:\n        /* \"#utility.yul\":669:791   */\n    tag_315:\n        /* \"#utility.yul\":823:829   */\n      dup3\n        /* \"#utility.yul\":810:830   */\n      calldataload\n        /* \"#utility.yul\":800:830   */\n      swap1\n      pop\n        /* \"#utility.yul\":853:871   */\n      0xffffffffffffffff\n        /* \"#utility.yul\":845:851   */\n      dup2\n        /* \"#utility.yul\":842:872   */\n      gt\n        /* \"#utility.yul\":839:956   */\n      iszero\n      tag_318\n      jumpi\n        /* \"#utility.yul\":875:954   */\n      tag_319\n      tag_320\n      jump\t// in\n    tag_319:\n        /* \"#utility.yul\":839:956   */\n    tag_318:\n        /* \"#utility.yul\":989:993   */\n      0x20\n        /* \"#utility.yul\":981:987   */\n      dup4\n        /* \"#utility.yul\":977:994   */\n      add\n        /* \"#utility.yul\":965:994   */\n      swap2\n      pop\n        /* \"#utility.yul\":1043:1046   */\n      dup4\n        /* \"#utility.yul\":1035:1039   */\n      0x01\n        /* \"#utility.yul\":1027:1033   */\n      dup3\n        /* \"#utility.yul\":1023:1040   */\n      mul\n        /* \"#utility.yul\":1013:1021   */\n      dup4\n        /* \"#utility.yul\":1009:1041   */\n      add\n        /* \"#utility.yul\":1006:1047   */\n      gt\n        /* \"#utility.yul\":1003:1131   */\n      iszero\n      tag_321\n      jumpi\n        /* \"#utility.yul\":1050:1129   */\n      tag_322\n      tag_323\n      jump\t// in\n    tag_322:\n        /* \"#utility.yul\":1003:1131   */\n    tag_321:\n        /* \"#utility.yul\":584:1137   */\n      swap3\n      pop\n      swap3\n      swap1\n      pop\n      jump\t// out\n        /* \"#utility.yul\":1157:1497   */\n    tag_324:\n        /* \"#utility.yul\":1213:1218   */\n      0x00\n        /* \"#utility.yul\":1262:1265   */\n      dup3\n        /* \"#utility.yul\":1255:1259   */\n      0x1f\n        /* \"#utility.yul\":1247:1253   */\n      dup4\n        /* \"#utility.yul\":1243:1260   */\n      add\n        /* \"#utility.yul\":1239:1266   */\n      slt\n        /* \"#utility.yul\":1229:1351   */\n      tag_326\n      jumpi\n        /* \"#utility.yul\":1270:1349   */\n      tag_327\n      tag_317\n      jump\t// in\n    tag_327:\n        /* \"#utility.yul\":1229:1351   */\n    tag_326:\n        /* \"#utility.yul\":1387:1393   */\n      dup2\n        /* \"#utility.yul\":1374:1394   */\n      calldataload\n        /* \"#utility.yul\":1412:1491   */\n      tag_328\n        /* \"#utility.yul\":1487:1490   */\n      dup5\n        /* \"#utility.yul\":1479:1485   */\n      dup3\n        /* \"#utility.yul\":1472:1476   */\n      0x20\n        /* \"#utility.yul\":1464:1470   */\n      dup7\n        /* \"#utility.yul\":1460:1477   */\n      add\n        /* \"#utility.yul\":1412:1491   */\n      tag_298\n      jump\t// in\n    tag_328:\n        /* \"#utility.yul\":1403:1491   */\n      swap2\n      pop\n        /* \"#utility.yul\":1219:1497   */\n      pop\n        /* \"#utility.yul\":1157:1497   */\n      swap3\n      swap2\n      pop\n      pop\n      jump\t// out\n        /* \"#utility.yul\":1503:1642   */\n    tag_329:\n        /* \"#utility.yul\":1549:1554   */\n      0x00\n        /* \"#utility.yul\":1587:1593   */\n      dup2\n        /* \"#utility.yul\":1574:1594   */\n      calldataload\n        /* \"#utility.yul\":1565:1594   */\n      swap1\n      pop\n        /* \"#utility.yul\":1603:1636   */\n      tag_331\n        /* \"#utility.yul\":1630:1635   */\n      dup2\n        /* \"#utility.yul\":1603:1636   */\n      tag_332\n      jump\t// in\n    tag_331:\n        /* \"#utility.yul\":1503:1642   */\n      swap3\n      swap2\n      pop\n      pop\n      jump\t// out\n        /* \"#utility.yul\":1648:2322   */\n    tag_54:\n        /* \"#utility.yul\":1728:1734   */\n      0x00\n        /* \"#utility.yul\":1736:1742   */\n      dup1\n        /* \"#utility.yul\":1744:1750   */\n      0x00\n        /* \"#utility.yul\":1793:1795   */\n      0x40\n        /* \"#utility.yul\":1781:1790   */\n      dup5\n        /* \"#utility.yul\":1772:1779   */\n      dup7\n        /* \"#utility.yul\":1768:1791   */\n      sub\n        /* \"#utility.yul\":1764:1796   */\n      slt\n        /* \"#utility.yul\":1761:1880   */\n      iszero\n      tag_334\n      jumpi\n        /* \"#utility.yul\":1799:1878   */\n      tag_335\n      tag_336\n      jump\t// in\n    tag_335:\n        /* \"#utility.yul\":1761:1880   */\n    tag_334:\n        /* \"#utility.yul\":1919:1920   */\n      0x00\n        /* \"#utility.yul\":1944:1997   */\n      tag_337\n        /* \"#utility.yul\":1989:1996   */\n      dup7\n        /* \"#utility.yul\":1980:1986   */\n      dup3\n        /* \"#utility.yul\":1969:1978   */\n      dup8\n        /* \"#utility.yul\":1965:1987   */\n      add\n        /* \"#utility.yul\":1944:1997   */\n      tag_309\n      jump\t// in\n    tag_337:\n        /* \"#utility.yul\":1934:1997   */\n      swap4\n      pop\n        /* \"#utility.yul\":1890:2007   */\n      pop\n        /* \"#utility.yul\":2074:2076   */\n      0x20\n        /* \"#utility.yul\":2063:2072   */\n      dup5\n        /* \"#utility.yul\":2059:2077   */\n      add\n        /* \"#utility.yul\":2046:2078   */\n      calldataload\n        /* \"#utility.yul\":2105:2123   */\n      0xffffffffffffffff\n        /* \"#utility.yul\":2097:2103   */\n      dup2\n        /* \"#utility.yul\":2094:2124   */\n      gt\n        /* \"#utility.yul\":2091:2208   */\n      iszero\n      tag_338\n      jumpi\n        /* \"#utility.yul\":2127:2206   */\n      tag_339\n      tag_340\n      jump\t// in\n    tag_339:\n        /* \"#utility.yul\":2091:2208   */\n    tag_338:\n        /* \"#utility.yul\":2240:2305   */\n      tag_341\n        /* \"#utility.yul\":2297:2304   */\n      dup7\n        /* \"#utility.yul\":2288:2294   */\n      dup3\n        /* \"#utility.yul\":2277:2286   */\n      dup8\n        /* \"#utility.yul\":2273:2295   */\n      add\n        /* \"#utility.yul\":2240:2305   */\n      tag_313\n      jump\t// in\n    tag_341:\n        /* \"#utility.yul\":2222:2305   */\n      swap3\n      pop\n      swap3\n      pop\n        /* \"#utility.yul\":2017:2315   */\n      pop\n        /* \"#utility.yul\":1648:2322   */\n      swap3\n      pop\n      swap3\n      pop\n      swap3\n      jump\t// out\n        /* \"#utility.yul\":2328:2857   */\n    tag_48:\n        /* \"#utility.yul\":2399:2405   */\n      0x00\n        /* \"#utility.yul\":2407:2413   */\n      dup1\n        /* \"#utility.yul\":2456:2458   */\n      0x20\n        /* \"#utility.yul\":2444:2453   */\n      dup4\n        /* \"#utility.yul\":2435:2442   */\n      dup6\n        /* \"#utility.yul\":2431:2454   */\n      sub\n        /* \"#utility.yul\":2427:2459   */\n      slt\n        /* \"#utility.yul\":2424:2543   */\n      iszero\n      tag_343\n      jumpi\n        /* \"#utility.yul\":2462:2541   */\n      tag_344\n      tag_336\n      jump\t// in\n    tag_344:\n        /* \"#utility.yul\":2424:2543   */\n    tag_343:\n        /* \"#utility.yul\":2610:2611   */\n      0x00\n        /* \"#utility.yul\":2599:2608   */\n      dup4\n        /* \"#utility.yul\":2595:2612   */\n      add\n        /* \"#utility.yul\":2582:2613   */\n      calldataload\n        /* \"#utility.yul\":2640:2658   */\n      0xffffffffffffffff\n        /* \"#utility.yul\":2632:2638   */\n      dup2\n        /* \"#utility.yul\":2629:2659   */\n      gt\n        /* \"#utility.yul\":2626:2743   */\n      iszero\n      tag_345\n      jumpi\n        /* \"#utility.yul\":2662:2741   */\n      tag_346\n      tag_340\n      jump\t// in\n    tag_346:\n        /* \"#utility.yul\":2626:2743   */\n    tag_345:\n        /* \"#utility.yul\":2775:2840   */\n      tag_347\n        /* \"#utility.yul\":2832:2839   */\n      dup6\n        /* \"#utility.yul\":2823:2829   */\n      dup3\n        /* \"#utility.yul\":2812:2821   */\n      dup7\n        /* \"#utility.yul\":2808:2830   */\n      add\n        /* \"#utility.yul\":2775:2840   */\n      tag_313\n      jump\t// in\n    tag_347:\n        /* \"#utility.yul\":2757:2840   */\n      swap3\n      pop\n      swap3\n      pop\n        /* \"#utility.yul\":2553:2850   */\n      pop\n        /* \"#utility.yul\":2328:2857   */\n      swap3\n      pop\n      swap3\n      swap1\n      pop\n      jump\t// out\n        /* \"#utility.yul\":2863:3372   */\n    tag_28:\n        /* \"#utility.yul\":2932:2938   */\n      0x00\n        /* \"#utility.yul\":2981:2983   */\n      0x20\n        /* \"#utility.yul\":2969:2978   */\n      dup3\n        /* \"#utility.yul\":2960:2967   */\n      dup5\n        /* \"#utility.yul\":2956:2979   */\n      sub\n        /* \"#utility.yul\":2952:2984   */\n      slt\n        /* \"#utility.yul\":2949:3068   */\n      iszero\n      tag_349\n      jumpi\n        /* \"#utility.yul\":2987:3066   */\n      tag_350\n      tag_336\n      jump\t// in\n    tag_350:\n        /* \"#utility.yul\":2949:3068   */\n    tag_349:\n        /* \"#utility.yul\":3135:3136   */\n      0x00\n        /* \"#utility.yul\":3124:3133   */\n      dup3\n        /* \"#utility.yul\":3120:3137   */\n      add\n        /* \"#utility.yul\":3107:3138   */\n      calldataload\n        /* \"#utility.yul\":3165:3183   */\n      0xffffffffffffffff\n        /* \"#utility.yul\":3157:3163   */\n      dup2\n        /* \"#utility.yul\":3154:3184   */\n      gt\n        /* \"#utility.yul\":3151:3268   */\n      iszero\n      tag_351\n      jumpi\n        /* \"#utility.yul\":3187:3266   */\n      tag_352\n      tag_340\n      jump\t// in\n    tag_352:\n        /* \"#utility.yul\":3151:3268   */\n    tag_351:\n        /* \"#utility.yul\":3292:3355   */\n      tag_353\n        /* \"#utility.yul\":3347:3354   */\n      dup5\n        /* \"#utility.yul\":3338:3344   */\n      dup3\n        /* \"#utility.yul\":3327:3336   */\n      dup6\n        /* \"#utility.yul\":3323:3345   */\n      add\n        /* \"#utility.yul\":3292:3355   */\n      tag_324\n      jump\t// in\n    tag_353:\n        /* \"#utility.yul\":3282:3355   */\n      swap2\n      pop\n        /* \"#utility.yul\":3078:3365   */\n      pop\n        /* \"#utility.yul\":2863:3372   */\n      swap3\n      swap2\n      pop\n      pop\n      jump\t// out\n        /* \"#utility.yul\":3378:4032   */\n    tag_42:\n        /* \"#utility.yul\":3456:3462   */\n      0x00\n        /* \"#utility.yul\":3464:3470   */\n      dup1\n        /* \"#utility.yul\":3513:3515   */\n      0x40\n        /* \"#utility.yul\":3501:3510   */\n      dup4\n        /* \"#utility.yul\":3492:3499   */\n      dup6\n        /* \"#utility.yul\":3488:3511   */\n      sub\n        /* \"#utility.yul\":3484:3516   */\n      slt\n        /* \"#utility.yul\":3481:3600   */\n      iszero\n      tag_355\n      jumpi\n        /* \"#utility.yul\":3519:3598   */\n      tag_356\n      tag_336\n      jump\t// in\n    tag_356:\n        /* \"#utility.yul\":3481:3600   */\n    tag_355:\n        /* \"#utility.yul\":3667:3668   */\n      0x00\n        /* \"#utility.yul\":3656:3665   */\n      dup4\n        /* \"#utility.yul\":3652:3669   */\n      add\n        /* \"#utility.yul\":3639:3670   */\n      calldataload\n        /* \"#utility.yul\":3697:3715   */\n      0xffffffffffffffff\n        /* \"#utility.yul\":3689:3695   */\n      dup2\n        /* \"#utility.yul\":3686:3716   */\n      gt\n        /* \"#utility.yul\":3683:3800   */\n      iszero\n      tag_357\n      jumpi\n        /* \"#utility.yul\":3719:3798   */\n      tag_358\n      tag_340\n      jump\t// in\n    tag_358:\n        /* \"#utility.yul\":3683:3800   */\n    tag_357:\n        /* \"#utility.yul\":3824:3887   */\n      tag_359\n        /* \"#utility.yul\":3879:3886   */\n      dup6\n        /* \"#utility.yul\":3870:3876   */\n      dup3\n        /* \"#utility.yul\":3859:3868   */\n      dup7\n        /* \"#utility.yul\":3855:3877   */\n      add\n        /* \"#utility.yul\":3824:3887   */\n      tag_324\n      jump\t// in\n    tag_359:\n        /* \"#utility.yul\":3814:3887   */\n      swap3\n      pop\n        /* \"#utility.yul\":3610:3897   */\n      pop\n        /* \"#utility.yul\":3936:3938   */\n      0x20\n        /* \"#utility.yul\":3962:4015   */\n      tag_360\n        /* \"#utility.yul\":4007:4014   */\n      dup6\n        /* \"#utility.yul\":3998:4004   */\n      dup3\n        /* \"#utility.yul\":3987:3996   */\n      dup7\n        /* \"#utility.yul\":3983:4005   */\n      add\n        /* \"#utility.yul\":3962:4015   */\n      tag_309\n      jump\t// in\n    tag_360:\n        /* \"#utility.yul\":3952:4015   */\n      swap2\n      pop\n        /* \"#utility.yul\":3907:4025   */\n      pop\n        /* \"#utility.yul\":3378:4032   */\n      swap3\n      pop\n      swap3\n      swap1\n      pop\n      jump\t// out\n        /* \"#utility.yul\":4038:4892   */\n    tag_38:\n        /* \"#utility.yul\":4128:4134   */\n      0x00\n        /* \"#utility.yul\":4136:4142   */\n      dup1\n        /* \"#utility.yul\":4144:4150   */\n      0x00\n        /* \"#utility.yul\":4193:4195   */\n      0x40\n        /* \"#utility.yul\":4181:4190   */\n      dup5\n        /* \"#utility.yul\":4172:4179   */\n      dup7\n        /* \"#utility.yul\":4168:4191   */\n      sub\n        /* \"#utility.yul\":4164:4196   */\n      slt\n        /* \"#utility.yul\":4161:4280   */\n      iszero\n      tag_362\n      jumpi\n        /* \"#utility.yul\":4199:4278   */\n      tag_363\n      tag_336\n      jump\t// in\n    tag_363:\n        /* \"#utility.yul\":4161:4280   */\n    tag_362:\n        /* \"#utility.yul\":4347:4348   */\n      0x00\n        /* \"#utility.yul\":4336:4345   */\n      dup5\n        /* \"#utility.yul\":4332:4349   */\n      add\n        /* \"#utility.yul\":4319:4350   */\n      calldataload\n        /* \"#utility.yul\":4377:4395   */\n      0xffffffffffffffff\n        /* \"#utility.yul\":4369:4375   */\n      dup2\n        /* \"#utility.yul\":4366:4396   */\n      gt\n        /* \"#utility.yul\":4363:4480   */\n      iszero\n      tag_364\n      jumpi\n        /* \"#utility.yul\":4399:4478   */\n      tag_365\n      tag_340\n      jump\t// in\n    tag_365:\n        /* \"#utility.yul\":4363:4480   */\n    tag_364:\n        /* \"#utility.yul\":4504:4567   */\n      tag_366\n        /* \"#utility.yul\":4559:4566   */\n      dup7\n        /* \"#utility.yul\":4550:4556   */\n      dup3\n        /* \"#utility.yul\":4539:4548   */\n      dup8\n        /* \"#utility.yul\":4535:4557   */\n      add\n        /* \"#utility.yul\":4504:4567   */\n      tag_324\n      jump\t// in\n    tag_366:\n        /* \"#utility.yul\":4494:4567   */\n      swap4\n      pop\n        /* \"#utility.yul\":4290:4577   */\n      pop\n        /* \"#utility.yul\":4644:4646   */\n      0x20\n        /* \"#utility.yul\":4633:4642   */\n      dup5\n        /* \"#utility.yul\":4629:4647   */\n      add\n        /* \"#utility.yul\":4616:4648   */\n      calldataload\n        /* \"#utility.yul\":4675:4693   */\n      0xffffffffffffffff\n        /* \"#utility.yul\":4667:4673   */\n      dup2\n        /* \"#utility.yul\":4664:4694   */\n      gt\n        /* \"#utility.yul\":4661:4778   */\n      iszero\n      tag_367\n      jumpi\n        /* \"#utility.yul\":4697:4776   */\n      tag_368\n      tag_340\n      jump\t// in\n    tag_368:\n        /* \"#utility.yul\":4661:4778   */\n    tag_367:\n        /* \"#utility.yul\":4810:4875   */\n      tag_369\n        /* \"#utility.yul\":4867:4874   */\n      dup7\n        /* \"#utility.yul\":4858:4864   */\n      dup3\n        /* \"#utility.yul\":4847:4856   */\n      dup8\n        /* \"#utility.yul\":4843:4865   */\n      add\n        /* \"#utility.yul\":4810:4875   */\n      tag_313\n      jump\t// in\n    tag_369:\n        /* \"#utility.yul\":4792:4875   */\n      swap3\n      pop\n      swap3\n      pop\n        /* \"#utility.yul\":4587:4885   */\n      pop\n        /* \"#utility.yul\":4038:4892   */\n      swap3\n      pop\n      swap3\n      pop\n      swap3\n      jump\t// out\n        /* \"#utility.yul\":4898:5552   */\n    tag_22:\n        /* \"#utility.yul\":4976:4982   */\n      0x00\n        /* \"#utility.yul\":4984:4990   */\n      dup1\n        /* \"#utility.yul\":5033:5035   */\n      0x40\n        /* \"#utility.yul\":5021:5030   */\n      dup4\n        /* \"#utility.yul\":5012:5019   */\n      dup6\n        /* \"#utility.yul\":5008:5031   */\n      sub\n        /* \"#utility.yul\":5004:5036   */\n      slt\n        /* \"#utility.yul\":5001:5120   */\n      iszero\n      tag_371\n      jumpi\n        /* \"#utility.yul\":5039:5118   */\n      tag_372\n      tag_336\n      jump\t// in\n    tag_372:\n        /* \"#utility.yul\":5001:5120   */\n    tag_371:\n        /* \"#utility.yul\":5187:5188   */\n      0x00\n        /* \"#utility.yul\":5176:5185   */\n      dup4\n        /* \"#utility.yul\":5172:5189   */\n      add\n        /* \"#utility.yul\":5159:5190   */\n      calldataload\n        /* \"#utility.yul\":5217:5235   */\n      0xffffffffffffffff\n        /* \"#utility.yul\":5209:5215   */\n      dup2\n        /* \"#utility.yul\":5206:5236   */\n      gt\n        /* \"#utility.yul\":5203:5320   */\n      iszero\n      tag_373\n      jumpi\n        /* \"#utility.yul\":5239:5318   */\n      tag_374\n      tag_340\n      jump\t// in\n    tag_374:\n        /* \"#utility.yul\":5203:5320   */\n    tag_373:\n        /* \"#utility.yul\":5344:5407   */\n      tag_375\n        /* \"#utility.yul\":5399:5406   */\n      dup6\n        /* \"#utility.yul\":5390:5396   */\n      dup3\n        /* \"#utility.yul\":5379:5388   */\n      dup7\n        /* \"#utility.yul\":5375:5397   */\n      add\n        /* \"#utility.yul\":5344:5407   */\n      tag_324\n      jump\t// in\n    tag_375:\n        /* \"#utility.yul\":5334:5407   */\n      swap3\n      pop\n        /* \"#utility.yul\":5130:5417   */\n      pop\n        /* \"#utility.yul\":5456:5458   */\n      0x20\n        /* \"#utility.yul\":5482:5535   */\n      tag_376\n        /* \"#utility.yul\":5527:5534   */\n      dup6\n        /* \"#utility.yul\":5518:5524   */\n      dup3\n        /* \"#utility.yul\":5507:5516   */\n      dup7\n        /* \"#utility.yul\":5503:5525   */\n      add\n        /* \"#utility.yul\":5482:5535   */\n      tag_329\n      jump\t// in\n    tag_376:\n        /* \"#utility.yul\":5472:5535   */\n      swap2\n      pop\n        /* \"#utility.yul\":5427:5545   */\n      pop\n        /* \"#utility.yul\":4898:5552   */\n      swap3\n      pop\n      swap3\n      swap1\n      pop\n      jump\t// out\n        /* \"#utility.yul\":5558:7009   */\n    tag_34:\n        /* \"#utility.yul\":5683:5689   */\n      0x00\n        /* \"#utility.yul\":5691:5697   */\n      dup1\n        /* \"#utility.yul\":5699:5705   */\n      0x00\n        /* \"#utility.yul\":5707:5713   */\n      dup1\n        /* \"#utility.yul\":5715:5721   */\n      0x00\n        /* \"#utility.yul\":5764:5767   */\n      0xa0\n        /* \"#utility.yul\":5752:5761   */\n      dup7\n        /* \"#utility.yul\":5743:5750   */\n      dup9\n        /* \"#utility.yul\":5739:5762   */\n      sub\n        /* \"#utility.yul\":5735:5768   */\n      slt\n        /* \"#utility.yul\":5732:5852   */\n      iszero\n      tag_378\n      jumpi\n        /* \"#utility.yul\":5771:5850   */\n      tag_379\n      tag_336\n      jump\t// in\n    tag_379:\n        /* \"#utility.yul\":5732:5852   */\n    tag_378:\n        /* \"#utility.yul\":5919:5920   */\n      0x00\n        /* \"#utility.yul\":5908:5917   */\n      dup7\n        /* \"#utility.yul\":5904:5921   */\n      add\n        /* \"#utility.yul\":5891:5922   */\n      calldataload\n        /* \"#utility.yul\":5949:5967   */\n      0xffffffffffffffff\n        /* \"#utility.yul\":5941:5947   */\n      dup2\n        /* \"#utility.yul\":5938:5968   */\n      gt\n        /* \"#utility.yul\":5935:6052   */\n      iszero\n      tag_380\n      jumpi\n        /* \"#utility.yul\":5971:6050   */\n      tag_381\n      tag_340\n      jump\t// in\n    tag_381:\n        /* \"#utility.yul\":5935:6052   */\n    tag_380:\n        /* \"#utility.yul\":6076:6139   */\n      tag_382\n        /* \"#utility.yul\":6131:6138   */\n      dup9\n        /* \"#utility.yul\":6122:6128   */\n      dup3\n        /* \"#utility.yul\":6111:6120   */\n      dup10\n        /* \"#utility.yul\":6107:6129   */\n      add\n        /* \"#utility.yul\":6076:6139   */\n      tag_324\n      jump\t// in\n    tag_382:\n        /* \"#utility.yul\":6066:6139   */\n      swap6\n      pop\n        /* \"#utility.yul\":5862:6149   */\n      pop\n        /* \"#utility.yul\":6188:6190   */\n      0x20\n        /* \"#utility.yul\":6214:6267   */\n      tag_383\n        /* \"#utility.yul\":6259:6266   */\n      dup9\n        /* \"#utility.yul\":6250:6256   */\n      dup3\n        /* \"#utility.yul\":6239:6248   */\n      dup10\n        /* \"#utility.yul\":6235:6257   */\n      add\n        /* \"#utility.yul\":6214:6267   */\n      tag_329\n      jump\t// in\n    tag_383:\n        /* \"#utility.yul\":6204:6267   */\n      swap5\n      pop\n        /* \"#utility.yul\":6159:6277   */\n      pop\n        /* \"#utility.yul\":6316:6318   */\n      0x40\n        /* \"#utility.yul\":6342:6395   */\n      tag_384\n        /* \"#utility.yul\":6387:6394   */\n      dup9\n        /* \"#utility.yul\":6378:6384   */\n      dup3\n        /* \"#utility.yul\":6367:6376   */\n      dup10\n        /* \"#utility.yul\":6363:6385   */\n      add\n        /* \"#utility.yul\":6342:6395   */\n      tag_329\n      jump\t// in\n    tag_384:\n        /* \"#utility.yul\":6332:6395   */\n      swap4\n      pop\n        /* \"#utility.yul\":6287:6405   */\n      pop\n        /* \"#utility.yul\":6472:6474   */\n      0x60\n        /* \"#utility.yul\":6461:6470   */\n      dup7\n        /* \"#utility.yul\":6457:6475   */\n      add\n        /* \"#utility.yul\":6444:6476   */\n      calldataload\n        /* \"#utility.yul\":6503:6521   */\n      0xffffffffffffffff\n        /* \"#utility.yul\":6495:6501   */\n      dup2\n        /* \"#utility.yul\":6492:6522   */\n      gt\n        /* \"#utility.yul\":6489:6606   */\n      iszero\n      tag_385\n      jumpi\n        /* \"#utility.yul\":6525:6604   */\n      tag_386\n      tag_340\n      jump\t// in\n    tag_386:\n        /* \"#utility.yul\":6489:6606   */\n    tag_385:\n        /* \"#utility.yul\":6630:6693   */\n      tag_387\n        /* \"#utility.yul\":6685:6692   */\n      dup9\n        /* \"#utility.yul\":6676:6682   */\n      dup3\n        /* \"#utility.yul\":6665:6674   */\n      dup10\n        /* \"#utility.yul\":6661:6683   */\n      add\n        /* \"#utility.yul\":6630:6693   */\n      tag_324\n      jump\t// in\n    tag_387:\n        /* \"#utility.yul\":6620:6693   */\n      swap3\n      pop\n        /* \"#utility.yul\":6415:6703   */\n      pop\n        /* \"#utility.yul\":6770:6773   */\n      0x80\n        /* \"#utility.yul\":6759:6768   */\n      dup7\n        /* \"#utility.yul\":6755:6774   */\n      add\n        /* \"#utility.yul\":6742:6775   */\n      calldataload\n        /* \"#utility.yul\":6802:6820   */\n      0xffffffffffffffff\n        /* \"#utility.yul\":6794:6800   */\n      dup2\n        /* \"#utility.yul\":6791:6821   */\n      gt\n        /* \"#utility.yul\":6788:6905   */\n      iszero\n      tag_388\n      jumpi\n        /* \"#utility.yul\":6824:6903   */\n      tag_389\n      tag_340\n      jump\t// in\n    tag_389:\n        /* \"#utility.yul\":6788:6905   */\n    tag_388:\n        /* \"#utility.yul\":6929:6992   */\n      tag_390\n        /* \"#utility.yul\":6984:6991   */\n      dup9\n        /* \"#utility.yul\":6975:6981   */\n      dup3\n        /* \"#utility.yul\":6964:6973   */\n      dup10\n        /* \"#utility.yul\":6960:6982   */\n      add\n        /* \"#utility.yul\":6929:6992   */\n      tag_324\n      jump\t// in\n    tag_390:\n        /* \"#utility.yul\":6919:6992   */\n      swap2\n      pop\n        /* \"#utility.yul\":6713:7002   */\n      pop\n        /* \"#utility.yul\":5558:7009   */\n      swap3\n      swap6\n      pop\n      swap3\n      swap6\n      swap1\n      swap4\n      pop\n      jump\t// out\n        /* \"#utility.yul\":7015:7274   */\n    tag_391:\n        /* \"#utility.yul\":7124:7134   */\n      0x00\n        /* \"#utility.yul\":7145:7231   */\n      tag_393\n        /* \"#utility.yul\":7227:7230   */\n      dup4\n        /* \"#utility.yul\":7219:7225   */\n      dup4\n        /* \"#utility.yul\":7145:7231   */\n      tag_394\n      jump\t// in\n    tag_393:\n        /* \"#utility.yul\":7263:7267   */\n      0x60\n        /* \"#utility.yul\":7258:7261   */\n      dup4\n        /* \"#utility.yul\":7254:7268   */\n      add\n        /* \"#utility.yul\":7240:7268   */\n      swap1\n      pop\n        /* \"#utility.yul\":7015:7274   */\n      swap3\n      swap2\n      pop\n      pop\n      jump\t// out\n        /* \"#utility.yul\":7280:7388   */\n    tag_395:\n        /* \"#utility.yul\":7357:7381   */\n      tag_397\n        /* \"#utility.yul\":7375:7380   */\n      dup2\n        /* \"#utility.yul\":7357:7381   */\n      tag_398\n      jump\t// in\n    tag_397:\n        /* \"#utility.yul\":7352:7355   */\n      dup3\n        /* \"#utility.yul\":7345:7382   */\n      mstore\n        /* \"#utility.yul\":7280:7388   */\n      pop\n      pop\n      jump\t// out\n        /* \"#utility.yul\":7394:7512   */\n    tag_399:\n        /* \"#utility.yul\":7481:7505   */\n      tag_401\n        /* \"#utility.yul\":7499:7504   */\n      dup2\n        /* \"#utility.yul\":7481:7505   */\n      tag_398\n      jump\t// in\n    tag_401:\n        /* \"#utility.yul\":7476:7479   */\n      dup3\n        /* \"#utility.yul\":7469:7506   */\n      mstore\n        /* \"#utility.yul\":7394:7512   */\n      pop\n      pop\n      jump\t// out\n        /* \"#utility.yul\":7596:8488   */\n    tag_402:\n        /* \"#utility.yul\":7755:7758   */\n      0x00\n        /* \"#utility.yul\":7784:7858   */\n      tag_404\n        /* \"#utility.yul\":7852:7857   */\n      dup3\n        /* \"#utility.yul\":7784:7858   */\n      tag_405\n      jump\t// in\n    tag_404:\n        /* \"#utility.yul\":7874:7980   */\n      tag_406\n        /* \"#utility.yul\":7973:7979   */\n      dup2\n        /* \"#utility.yul\":7968:7971   */\n      dup6\n        /* \"#utility.yul\":7874:7980   */\n      tag_407\n      jump\t// in\n    tag_406:\n        /* \"#utility.yul\":7867:7980   */\n      swap4\n      pop\n        /* \"#utility.yul\":8004:8080   */\n      tag_408\n        /* \"#utility.yul\":8074:8079   */\n      dup4\n        /* \"#utility.yul\":8004:8080   */\n      tag_409\n      jump\t// in\n    tag_408:\n        /* \"#utility.yul\":8103:8110   */\n      dup1\n        /* \"#utility.yul\":8134:8135   */\n      0x00\n        /* \"#utility.yul\":8119:8463   */\n    tag_410:\n        /* \"#utility.yul\":8144:8150   */\n      dup4\n        /* \"#utility.yul\":8141:8142   */\n      dup2\n        /* \"#utility.yul\":8138:8151   */\n      lt\n        /* \"#utility.yul\":8119:8463   */\n      iszero\n      tag_412\n      jumpi\n        /* \"#utility.yul\":8220:8226   */\n      dup2\n        /* \"#utility.yul\":8214:8227   */\n      mload\n        /* \"#utility.yul\":8247:8350   */\n      tag_413\n        /* \"#utility.yul\":8346:8349   */\n      dup9\n        /* \"#utility.yul\":8331:8344   */\n      dup3\n        /* \"#utility.yul\":8247:8350   */\n      tag_391\n      jump\t// in\n    tag_413:\n        /* \"#utility.yul\":8240:8350   */\n      swap8\n      pop\n        /* \"#utility.yul\":8373:8453   */\n      tag_414\n        /* \"#utility.yul\":8446:8452   */\n      dup4\n        /* \"#utility.yul\":8373:8453   */\n      tag_415\n      jump\t// in\n    tag_414:\n        /* \"#utility.yul\":8363:8453   */\n      swap3\n      pop\n        /* \"#utility.yul\":8179:8463   */\n      pop\n        /* \"#utility.yul\":8166:8167   */\n      0x01\n        /* \"#utility.yul\":8163:8164   */\n      dup2\n        /* \"#utility.yul\":8159:8168   */\n      add\n        /* \"#utility.yul\":8154:8168   */\n      swap1\n      pop\n        /* \"#utility.yul\":8119:8463   */\n      jump(tag_410)\n    tag_412:\n        /* \"#utility.yul\":8123:8137   */\n      pop\n        /* \"#utility.yul\":8479:8482   */\n      dup6\n        /* \"#utility.yul\":8472:8482   */\n      swap4\n      pop\n        /* \"#utility.yul\":7760:8488   */\n      pop\n      pop\n      pop\n        /* \"#utility.yul\":7596:8488   */\n      swap3\n      swap2\n      pop\n      pop\n      jump\t// out\n        /* \"#utility.yul\":8494:8593   */\n    tag_416:\n        /* \"#utility.yul\":8565:8586   */\n      tag_418\n        /* \"#utility.yul\":8580:8585   */\n      dup2\n        /* \"#utility.yul\":8565:8586   */\n      tag_419\n      jump\t// in\n    tag_418:\n        /* \"#utility.yul\":8560:8563   */\n      dup3\n        /* \"#utility.yul\":8553:8587   */\n      mstore\n        /* \"#utility.yul\":8494:8593   */\n      pop\n      pop\n      jump\t// out\n        /* \"#utility.yul\":8599:8708   */\n    tag_420:\n        /* \"#utility.yul\":8680:8701   */\n      tag_422\n        /* \"#utility.yul\":8695:8700   */\n      dup2\n        /* \"#utility.yul\":8680:8701   */\n      tag_419\n      jump\t// in\n    tag_422:\n        /* \"#utility.yul\":8675:8678   */\n      dup3\n        /* \"#utility.yul\":8668:8702   */\n      mstore\n        /* \"#utility.yul\":8599:8708   */\n      pop\n      pop\n      jump\t// out\n        /* \"#utility.yul\":8714:8822   */\n    tag_423:\n        /* \"#utility.yul\":8791:8815   */\n      tag_425\n        /* \"#utility.yul\":8809:8814   */\n      dup2\n        /* \"#utility.yul\":8791:8815   */\n      tag_426\n      jump\t// in\n    tag_425:\n        /* \"#utility.yul\":8786:8789   */\n      dup3\n        /* \"#utility.yul\":8779:8816   */\n      mstore\n        /* \"#utility.yul\":8714:8822   */\n      pop\n      pop\n      jump\t// out\n        /* \"#utility.yul\":8828:8946   */\n    tag_427:\n        /* \"#utility.yul\":8915:8939   */\n      tag_429\n        /* \"#utility.yul\":8933:8938   */\n      dup2\n        /* \"#utility.yul\":8915:8939   */\n      tag_426\n      jump\t// in\n    tag_429:\n        /* \"#utility.yul\":8910:8913   */\n      dup3\n        /* \"#utility.yul\":8903:8940   */\n      mstore\n        /* \"#utility.yul\":8828:8946   */\n      pop\n      pop\n      jump\t// out\n        /* \"#utility.yul\":8976:9293   */\n    tag_430:\n        /* \"#utility.yul\":9092:9095   */\n      0x00\n        /* \"#utility.yul\":9113:9202   */\n      tag_432\n        /* \"#utility.yul\":9195:9201   */\n      dup4\n        /* \"#utility.yul\":9190:9193   */\n      dup6\n        /* \"#utility.yul\":9113:9202   */\n      tag_433\n      jump\t// in\n    tag_432:\n        /* \"#utility.yul\":9106:9202   */\n      swap4\n      pop\n        /* \"#utility.yul\":9212:9255   */\n      tag_434\n        /* \"#utility.yul\":9248:9254   */\n      dup4\n        /* \"#utility.yul\":9243:9246   */\n      dup6\n        /* \"#utility.yul\":9236:9241   */\n      dup5\n        /* \"#utility.yul\":9212:9255   */\n      tag_308\n      jump\t// in\n    tag_434:\n        /* \"#utility.yul\":9280:9286   */\n      dup3\n        /* \"#utility.yul\":9275:9278   */\n      dup5\n        /* \"#utility.yul\":9271:9287   */\n      add\n        /* \"#utility.yul\":9264:9287   */\n      swap1\n      pop\n        /* \"#utility.yul\":8976:9293   */\n      swap4\n      swap3\n      pop\n      pop\n      pop\n      jump\t// out\n        /* \"#utility.yul\":9299:9643   */\n    tag_435:\n        /* \"#utility.yul\":9377:9380   */\n      0x00\n        /* \"#utility.yul\":9405:9444   */\n      tag_437\n        /* \"#utility.yul\":9438:9443   */\n      dup3\n        /* \"#utility.yul\":9405:9444   */\n      tag_438\n      jump\t// in\n    tag_437:\n        /* \"#utility.yul\":9460:9521   */\n      tag_439\n        /* \"#utility.yul\":9514:9520   */\n      dup2\n        /* \"#utility.yul\":9509:9512   */\n      dup6\n        /* \"#utility.yul\":9460:9521   */\n      tag_440\n      jump\t// in\n    tag_439:\n        /* \"#utility.yul\":9453:9521   */\n      swap4\n      pop\n        /* \"#utility.yul\":9530:9582   */\n      tag_441\n        /* \"#utility.yul\":9575:9581   */\n      dup2\n        /* \"#utility.yul\":9570:9573   */\n      dup6\n        /* \"#utility.yul\":9563:9567   */\n      0x20\n        /* \"#utility.yul\":9556:9561   */\n      dup7\n        /* \"#utility.yul\":9552:9568   */\n      add\n        /* \"#utility.yul\":9530:9582   */\n      tag_442\n      jump\t// in\n    tag_441:\n        /* \"#utility.yul\":9607:9636   */\n      tag_443\n        /* \"#utility.yul\":9629:9635   */\n      dup2\n        /* \"#utility.yul\":9607:9636   */\n      tag_444\n      jump\t// in\n    tag_443:\n        /* \"#utility.yul\":9602:9605   */\n      dup5\n        /* \"#utility.yul\":9598:9637   */\n      add\n        /* \"#utility.yul\":9591:9637   */\n      swap2\n      pop\n        /* \"#utility.yul\":9381:9643   */\n      pop\n        /* \"#utility.yul\":9299:9643   */\n      swap3\n      swap2\n      pop\n      pop\n      jump\t// out\n        /* \"#utility.yul\":9649:10013   */\n    tag_445:\n        /* \"#utility.yul\":9737:9740   */\n      0x00\n        /* \"#utility.yul\":9765:9804   */\n      tag_447\n        /* \"#utility.yul\":9798:9803   */\n      dup3\n        /* \"#utility.yul\":9765:9804   */\n      tag_438\n      jump\t// in\n    tag_447:\n        /* \"#utility.yul\":9820:9891   */\n      tag_448\n        /* \"#utility.yul\":9884:9890   */\n      dup2\n        /* \"#utility.yul\":9879:9882   */\n      dup6\n        /* \"#utility.yul\":9820:9891   */\n      tag_449\n      jump\t// in\n    tag_448:\n        /* \"#utility.yul\":9813:9891   */\n      swap4\n      pop\n        /* \"#utility.yul\":9900:9952   */\n      tag_450\n        /* \"#utility.yul\":9945:9951   */\n      dup2\n        /* \"#utility.yul\":9940:9943   */\n      dup6\n        /* \"#utility.yul\":9933:9937   */\n      0x20\n        /* \"#utility.yul\":9926:9931   */\n      dup7\n        /* \"#utility.yul\":9922:9938   */\n      add\n        /* \"#utility.yul\":9900:9952   */\n      tag_442\n      jump\t// in\n    tag_450:\n        /* \"#utility.yul\":9977:10006   */\n      tag_451\n        /* \"#utility.yul\":9999:10005   */\n      dup2\n        /* \"#utility.yul\":9977:10006   */\n      tag_444\n      jump\t// in\n    tag_451:\n        /* \"#utility.yul\":9972:9975   */\n      dup5\n        /* \"#utility.yul\":9968:10007   */\n      add\n        /* \"#utility.yul\":9961:10007   */\n      swap2\n      pop\n        /* \"#utility.yul\":9741:10013   */\n      pop\n        /* \"#utility.yul\":9649:10013   */\n      swap3\n      swap2\n      pop\n      pop\n      jump\t// out\n        /* \"#utility.yul\":10019:10396   */\n    tag_452:\n        /* \"#utility.yul\":10125:10128   */\n      0x00\n        /* \"#utility.yul\":10153:10192   */\n      tag_454\n        /* \"#utility.yul\":10186:10191   */\n      dup3\n        /* \"#utility.yul\":10153:10192   */\n      tag_438\n      jump\t// in\n    tag_454:\n        /* \"#utility.yul\":10208:10297   */\n      tag_455\n        /* \"#utility.yul\":10290:10296   */\n      dup2\n        /* \"#utility.yul\":10285:10288   */\n      dup6\n        /* \"#utility.yul\":10208:10297   */\n      tag_433\n      jump\t// in\n    tag_455:\n        /* \"#utility.yul\":10201:10297   */\n      swap4\n      pop\n        /* \"#utility.yul\":10306:10358   */\n      tag_456\n        /* \"#utility.yul\":10351:10357   */\n      dup2\n        /* \"#utility.yul\":10346:10349   */\n      dup6\n        /* \"#utility.yul\":10339:10343   */\n      0x20\n        /* \"#utility.yul\":10332:10337   */\n      dup7\n        /* \"#utility.yul\":10328:10344   */\n      add\n        /* \"#utility.yul\":10306:10358   */\n      tag_442\n      jump\t// in\n    tag_456:\n        /* \"#utility.yul\":10383:10389   */\n      dup1\n        /* \"#utility.yul\":10378:10381   */\n      dup5\n        /* \"#utility.yul\":10374:10390   */\n      add\n        /* \"#utility.yul\":10367:10390   */\n      swap2\n      pop\n        /* \"#utility.yul\":10129:10396   */\n      pop\n        /* \"#utility.yul\":10019:10396   */\n      swap3\n      swap2\n      pop\n      pop\n      jump\t// out\n        /* \"#utility.yul\":10402:10768   */\n    tag_457:\n        /* \"#utility.yul\":10544:10547   */\n      0x00\n        /* \"#utility.yul\":10565:10632   */\n      tag_459\n        /* \"#utility.yul\":10629:10631   */\n      0x1f\n        /* \"#utility.yul\":10624:10627   */\n      dup4\n        /* \"#utility.yul\":10565:10632   */\n      tag_449\n      jump\t// in\n    tag_459:\n        /* \"#utility.yul\":10558:10632   */\n      swap2\n      pop\n        /* \"#utility.yul\":10641:10734   */\n      tag_460\n        /* \"#utility.yul\":10730:10733   */\n      dup3\n        /* \"#utility.yul\":10641:10734   */\n      tag_461\n      jump\t// in\n    tag_460:\n        /* \"#utility.yul\":10759:10761   */\n      0x20\n        /* \"#utility.yul\":10754:10757   */\n      dup3\n        /* \"#utility.yul\":10750:10762   */\n      add\n        /* \"#utility.yul\":10743:10762   */\n      swap1\n      pop\n        /* \"#utility.yul\":10402:10768   */\n      swap2\n      swap1\n      pop\n      jump\t// out\n        /* \"#utility.yul\":10774:11140   */\n    tag_462:\n        /* \"#utility.yul\":10916:10919   */\n      0x00\n        /* \"#utility.yul\":10937:11004   */\n      tag_464\n        /* \"#utility.yul\":11001:11003   */\n      0x19\n        /* \"#utility.yul\":10996:10999   */\n      dup4\n        /* \"#utility.yul\":10937:11004   */\n      tag_449\n      jump\t// in\n    tag_464:\n        /* \"#utility.yul\":10930:11004   */\n      swap2\n      pop\n        /* \"#utility.yul\":11013:11106   */\n      tag_465\n        /* \"#utility.yul\":11102:11105   */\n      dup3\n        /* \"#utility.yul\":11013:11106   */\n      tag_466\n      jump\t// in\n    tag_465:\n        /* \"#utility.yul\":11131:11133   */\n      0x20\n        /* \"#utility.yul\":11126:11129   */\n      dup3\n        /* \"#utility.yul\":11122:11134   */\n      add\n        /* \"#utility.yul\":11115:11134   */\n      swap1\n      pop\n        /* \"#utility.yul\":10774:11140   */\n      swap2\n      swap1\n      pop\n      jump\t// out\n        /* \"#utility.yul\":11146:11512   */\n    tag_467:\n        /* \"#utility.yul\":11288:11291   */\n      0x00\n        /* \"#utility.yul\":11309:11376   */\n      tag_469\n        /* \"#utility.yul\":11373:11375   */\n      0x26\n        /* \"#utility.yul\":11368:11371   */\n      dup4\n        /* \"#utility.yul\":11309:11376   */\n      tag_449\n      jump\t// in\n    tag_469:\n        /* \"#utility.yul\":11302:11376   */\n      swap2\n      pop\n        /* \"#utility.yul\":11385:11478   */\n      tag_470\n        /* \"#utility.yul\":11474:11477   */\n      dup3\n        /* \"#utility.yul\":11385:11478   */\n      tag_471\n      jump\t// in\n    tag_470:\n        /* \"#utility.yul\":11503:11505   */\n      0x40\n        /* \"#utility.yul\":11498:11501   */\n      dup3\n        /* \"#utility.yul\":11494:11506   */\n      add\n        /* \"#utility.yul\":11487:11506   */\n      swap1\n      pop\n        /* \"#utility.yul\":11146:11512   */\n      swap2\n      swap1\n      pop\n      jump\t// out\n        /* \"#utility.yul\":11518:11884   */\n    tag_472:\n        /* \"#utility.yul\":11660:11663   */\n      0x00\n        /* \"#utility.yul\":11681:11748   */\n      tag_474\n        /* \"#utility.yul\":11745:11747   */\n      0x1c\n        /* \"#utility.yul\":11740:11743   */\n      dup4\n        /* \"#utility.yul\":11681:11748   */\n      tag_449\n      jump\t// in\n    tag_474:\n        /* \"#utility.yul\":11674:11748   */\n      swap2\n      pop\n        /* \"#utility.yul\":11757:11850   */\n      tag_475\n        /* \"#utility.yul\":11846:11849   */\n      dup3\n        /* \"#utility.yul\":11757:11850   */\n      tag_476\n      jump\t// in\n    tag_475:\n        /* \"#utility.yul\":11875:11877   */\n      0x20\n        /* \"#utility.yul\":11870:11873   */\n      dup3\n        /* \"#utility.yul\":11866:11878   */\n      add\n        /* \"#utility.yul\":11859:11878   */\n      swap1\n      pop\n        /* \"#utility.yul\":11518:11884   */\n      swap2\n      swap1\n      pop\n      jump\t// out\n        /* \"#utility.yul\":11890:12256   */\n    tag_477:\n        /* \"#utility.yul\":12032:12035   */\n      0x00\n        /* \"#utility.yul\":12053:12120   */\n      tag_479\n        /* \"#utility.yul\":12117:12119   */\n      0x15\n        /* \"#utility.yul\":12112:12115   */\n      dup4\n        /* \"#utility.yul\":12053:12120   */\n      tag_449\n      jump\t// in\n    tag_479:\n        /* \"#utility.yul\":12046:12120   */\n      swap2\n      pop\n        /* \"#utility.yul\":12129:12222   */\n      tag_480\n        /* \"#utility.yul\":12218:12221   */\n      dup3\n        /* \"#utility.yul\":12129:12222   */\n      tag_481\n      jump\t// in\n    tag_480:\n        /* \"#utility.yul\":12247:12249   */\n      0x20\n        /* \"#utility.yul\":12242:12245   */\n      dup3\n        /* \"#utility.yul\":12238:12250   */\n      add\n        /* \"#utility.yul\":12231:12250   */\n      swap1\n      pop\n        /* \"#utility.yul\":11890:12256   */\n      swap2\n      swap1\n      pop\n      jump\t// out\n        /* \"#utility.yul\":12262:12628   */\n    tag_482:\n        /* \"#utility.yul\":12404:12407   */\n      0x00\n        /* \"#utility.yul\":12425:12492   */\n      tag_484\n        /* \"#utility.yul\":12489:12491   */\n      0x1e\n        /* \"#utility.yul\":12484:12487   */\n      dup4\n        /* \"#utility.yul\":12425:12492   */\n      tag_449\n      jump\t// in\n    tag_484:\n        /* \"#utility.yul\":12418:12492   */\n      swap2\n      pop\n        /* \"#utility.yul\":12501:12594   */\n      tag_485\n        /* \"#utility.yul\":12590:12593   */\n      dup3\n        /* \"#utility.yul\":12501:12594   */\n      tag_486\n      jump\t// in\n    tag_485:\n        /* \"#utility.yul\":12619:12621   */\n      0x20\n        /* \"#utility.yul\":12614:12617   */\n      dup3\n        /* \"#utility.yul\":12610:12622   */\n      add\n        /* \"#utility.yul\":12603:12622   */\n      swap1\n      pop\n        /* \"#utility.yul\":12262:12628   */\n      swap2\n      swap1\n      pop\n      jump\t// out\n        /* \"#utility.yul\":12634:13000   */\n    tag_487:\n        /* \"#utility.yul\":12776:12779   */\n      0x00\n        /* \"#utility.yul\":12797:12864   */\n      tag_489\n        /* \"#utility.yul\":12861:12863   */\n      0x24\n        /* \"#utility.yul\":12856:12859   */\n      dup4\n        /* \"#utility.yul\":12797:12864   */\n      tag_449\n      jump\t// in\n    tag_489:\n        /* \"#utility.yul\":12790:12864   */\n      swap2\n      pop\n        /* \"#utility.yul\":12873:12966   */\n      tag_490\n        /* \"#utility.yul\":12962:12965   */\n      dup3\n        /* \"#utility.yul\":12873:12966   */\n      tag_491\n      jump\t// in\n    tag_490:\n        /* \"#utility.yul\":12991:12993   */\n      0x40\n        /* \"#utility.yul\":12986:12989   */\n      dup3\n        /* \"#utility.yul\":12982:12994   */\n      add\n        /* \"#utility.yul\":12975:12994   */\n      swap1\n      pop\n        /* \"#utility.yul\":12634:13000   */\n      swap2\n      swap1\n      pop\n      jump\t// out\n        /* \"#utility.yul\":13006:13372   */\n    tag_492:\n        /* \"#utility.yul\":13148:13151   */\n      0x00\n        /* \"#utility.yul\":13169:13236   */\n      tag_494\n        /* \"#utility.yul\":13233:13235   */\n      0x28\n        /* \"#utility.yul\":13228:13231   */\n      dup4\n        /* \"#utility.yul\":13169:13236   */\n      tag_449\n      jump\t// in\n    tag_494:\n        /* \"#utility.yul\":13162:13236   */\n      swap2\n      pop\n        /* \"#utility.yul\":13245:13338   */\n      tag_495\n        /* \"#utility.yul\":13334:13337   */\n      dup3\n        /* \"#utility.yul\":13245:13338   */\n      tag_496\n      jump\t// in\n    tag_495:\n        /* \"#utility.yul\":13363:13365   */\n      0x40\n        /* \"#utility.yul\":13358:13361   */\n      dup3\n        /* \"#utility.yul\":13354:13366   */\n      add\n        /* \"#utility.yul\":13347:13366   */\n      swap1\n      pop\n        /* \"#utility.yul\":13006:13372   */\n      swap2\n      swap1\n      pop\n      jump\t// out\n        /* \"#utility.yul\":13378:13744   */\n    tag_497:\n        /* \"#utility.yul\":13520:13523   */\n      0x00\n        /* \"#utility.yul\":13541:13608   */\n      tag_499\n        /* \"#utility.yul\":13605:13607   */\n      0x20\n        /* \"#utility.yul\":13600:13603   */\n      dup4\n        /* \"#utility.yul\":13541:13608   */\n      tag_449\n      jump\t// in\n    tag_499:\n        /* \"#utility.yul\":13534:13608   */\n      swap2\n      pop\n        /* \"#utility.yul\":13617:13710   */\n      tag_500\n        /* \"#utility.yul\":13706:13709   */\n      dup3\n        /* \"#utility.yul\":13617:13710   */\n      tag_501\n      jump\t// in\n    tag_500:\n        /* \"#utility.yul\":13735:13737   */\n      0x20\n        /* \"#utility.yul\":13730:13733   */\n      dup3\n        /* \"#utility.yul\":13726:13738   */\n      add\n        /* \"#utility.yul\":13719:13738   */\n      swap1\n      pop\n        /* \"#utility.yul\":13378:13744   */\n      swap2\n      swap1\n      pop\n      jump\t// out\n        /* \"#utility.yul\":13750:14116   */\n    tag_502:\n        /* \"#utility.yul\":13892:13895   */\n      0x00\n        /* \"#utility.yul\":13913:13980   */\n      tag_504\n        /* \"#utility.yul\":13977:13979   */\n      0x12\n        /* \"#utility.yul\":13972:13975   */\n      dup4\n        /* \"#utility.yul\":13913:13980   */\n      tag_449\n      jump\t// in\n    tag_504:\n        /* \"#utility.yul\":13906:13980   */\n      swap2\n      pop\n        /* \"#utility.yul\":13989:14082   */\n      tag_505\n        /* \"#utility.yul\":14078:14081   */\n      dup3\n        /* \"#utility.yul\":13989:14082   */\n      tag_506\n      jump\t// in\n    tag_505:\n        /* \"#utility.yul\":14107:14109   */\n      0x20\n        /* \"#utility.yul\":14102:14105   */\n      dup3\n        /* \"#utility.yul\":14098:14110   */\n      add\n        /* \"#utility.yul\":14091:14110   */\n      swap1\n      pop\n        /* \"#utility.yul\":13750:14116   */\n      swap2\n      swap1\n      pop\n      jump\t// out\n        /* \"#utility.yul\":14122:14488   */\n    tag_507:\n        /* \"#utility.yul\":14264:14267   */\n      0x00\n        /* \"#utility.yul\":14285:14352   */\n      tag_509\n        /* \"#utility.yul\":14349:14351   */\n      0x25\n        /* \"#utility.yul\":14344:14347   */\n      dup4\n        /* \"#utility.yul\":14285:14352   */\n      tag_449\n      jump\t// in\n    tag_509:\n        /* \"#utility.yul\":14278:14352   */\n      swap2\n      pop\n        /* \"#utility.yul\":14361:14454   */\n      tag_510\n        /* \"#utility.yul\":14450:14453   */\n      dup3\n        /* \"#utility.yul\":14361:14454   */\n      tag_511\n      jump\t// in\n    tag_510:\n        /* \"#utility.yul\":14479:14481   */\n      0x40\n        /* \"#utility.yul\":14474:14477   */\n      dup3\n        /* \"#utility.yul\":14470:14482   */\n      add\n        /* \"#utility.yul\":14463:14482   */\n      swap1\n      pop\n        /* \"#utility.yul\":14122:14488   */\n      swap2\n      swap1\n      pop\n      jump\t// out\n        /* \"#utility.yul\":14574:16970   */\n    tag_512:\n        /* \"#utility.yul\":14691:14694   */\n      0x00\n        /* \"#utility.yul\":14727:14733   */\n      0x0160\n        /* \"#utility.yul\":14722:14725   */\n      dup4\n        /* \"#utility.yul\":14718:14734   */\n      add\n        /* \"#utility.yul\":14821:14825   */\n      0x00\n        /* \"#utility.yul\":14814:14819   */\n      dup4\n        /* \"#utility.yul\":14810:14826   */\n      add\n        /* \"#utility.yul\":14804:14827   */\n      mload\n        /* \"#utility.yul\":14874:14877   */\n      dup5\n        /* \"#utility.yul\":14868:14872   */\n      dup3\n        /* \"#utility.yul\":14864:14878   */\n      sub\n        /* \"#utility.yul\":14857:14861   */\n      0x00\n        /* \"#utility.yul\":14852:14855   */\n      dup7\n        /* \"#utility.yul\":14848:14862   */\n      add\n        /* \"#utility.yul\":14841:14879   */\n      mstore\n        /* \"#utility.yul\":14900:14973   */\n      tag_514\n        /* \"#utility.yul\":14968:14972   */\n      dup3\n        /* \"#utility.yul\":14954:14966   */\n      dup3\n        /* \"#utility.yul\":14900:14973   */\n      tag_435\n      jump\t// in\n    tag_514:\n        /* \"#utility.yul\":14892:14973   */\n      swap2\n      pop\n        /* \"#utility.yul\":14744:14984   */\n      pop\n        /* \"#utility.yul\":15071:15075   */\n      0x20\n        /* \"#utility.yul\":15064:15069   */\n      dup4\n        /* \"#utility.yul\":15060:15076   */\n      add\n        /* \"#utility.yul\":15054:15077   */\n      mload\n        /* \"#utility.yul\":15090:15153   */\n      tag_515\n        /* \"#utility.yul\":15147:15151   */\n      0x20\n        /* \"#utility.yul\":15142:15145   */\n      dup7\n        /* \"#utility.yul\":15138:15152   */\n      add\n        /* \"#utility.yul\":15124:15136   */\n      dup3\n        /* \"#utility.yul\":15090:15153   */\n      tag_395\n      jump\t// in\n    tag_515:\n        /* \"#utility.yul\":14994:15163   */\n      pop\n        /* \"#utility.yul\":15256:15260   */\n      0x40\n        /* \"#utility.yul\":15249:15254   */\n      dup4\n        /* \"#utility.yul\":15245:15261   */\n      add\n        /* \"#utility.yul\":15239:15262   */\n      mload\n        /* \"#utility.yul\":15275:15338   */\n      tag_516\n        /* \"#utility.yul\":15332:15336   */\n      0x40\n        /* \"#utility.yul\":15327:15330   */\n      dup7\n        /* \"#utility.yul\":15323:15337   */\n      add\n        /* \"#utility.yul\":15309:15321   */\n      dup3\n        /* \"#utility.yul\":15275:15338   */\n      tag_395\n      jump\t// in\n    tag_516:\n        /* \"#utility.yul\":15173:15348   */\n      pop\n        /* \"#utility.yul\":15435:15439   */\n      0x60\n        /* \"#utility.yul\":15428:15433   */\n      dup4\n        /* \"#utility.yul\":15424:15440   */\n      add\n        /* \"#utility.yul\":15418:15441   */\n      mload\n        /* \"#utility.yul\":15454:15517   */\n      tag_517\n        /* \"#utility.yul\":15511:15515   */\n      0x60\n        /* \"#utility.yul\":15506:15509   */\n      dup7\n        /* \"#utility.yul\":15502:15516   */\n      add\n        /* \"#utility.yul\":15488:15500   */\n      dup3\n        /* \"#utility.yul\":15454:15517   */\n      tag_518\n      jump\t// in\n    tag_517:\n        /* \"#utility.yul\":15358:15527   */\n      pop\n        /* \"#utility.yul\":15615:15619   */\n      0x80\n        /* \"#utility.yul\":15608:15613   */\n      dup4\n        /* \"#utility.yul\":15604:15620   */\n      add\n        /* \"#utility.yul\":15598:15621   */\n      mload\n        /* \"#utility.yul\":15634:15697   */\n      tag_519\n        /* \"#utility.yul\":15691:15695   */\n      0x80\n        /* \"#utility.yul\":15686:15689   */\n      dup7\n        /* \"#utility.yul\":15682:15696   */\n      add\n        /* \"#utility.yul\":15668:15680   */\n      dup3\n        /* \"#utility.yul\":15634:15697   */\n      tag_518\n      jump\t// in\n    tag_519:\n        /* \"#utility.yul\":15537:15707   */\n      pop\n        /* \"#utility.yul\":15804:15808   */\n      0xa0\n        /* \"#utility.yul\":15797:15802   */\n      dup4\n        /* \"#utility.yul\":15793:15809   */\n      add\n        /* \"#utility.yul\":15787:15810   */\n      mload\n        /* \"#utility.yul\":15823:15886   */\n      tag_520\n        /* \"#utility.yul\":15880:15884   */\n      0xa0\n        /* \"#utility.yul\":15875:15878   */\n      dup7\n        /* \"#utility.yul\":15871:15885   */\n      add\n        /* \"#utility.yul\":15857:15869   */\n      dup3\n        /* \"#utility.yul\":15823:15886   */\n      tag_518\n      jump\t// in\n    tag_520:\n        /* \"#utility.yul\":15717:15896   */\n      pop\n        /* \"#utility.yul\":15986:15990   */\n      0xc0\n        /* \"#utility.yul\":15979:15984   */\n      dup4\n        /* \"#utility.yul\":15975:15991   */\n      add\n        /* \"#utility.yul\":15969:15992   */\n      mload\n        /* \"#utility.yul\":16005:16068   */\n      tag_521\n        /* \"#utility.yul\":16062:16066   */\n      0xc0\n        /* \"#utility.yul\":16057:16060   */\n      dup7\n        /* \"#utility.yul\":16053:16067   */\n      add\n        /* \"#utility.yul\":16039:16051   */\n      dup3\n        /* \"#utility.yul\":16005:16068   */\n      tag_518\n      jump\t// in\n    tag_521:\n        /* \"#utility.yul\":15906:16078   */\n      pop\n        /* \"#utility.yul\":16166:16170   */\n      0xe0\n        /* \"#utility.yul\":16159:16164   */\n      dup4\n        /* \"#utility.yul\":16155:16171   */\n      add\n        /* \"#utility.yul\":16149:16172   */\n      mload\n        /* \"#utility.yul\":16185:16242   */\n      tag_522\n        /* \"#utility.yul\":16236:16240   */\n      0xe0\n        /* \"#utility.yul\":16231:16234   */\n      dup7\n        /* \"#utility.yul\":16227:16241   */\n      add\n        /* \"#utility.yul\":16213:16225   */\n      dup3\n        /* \"#utility.yul\":16185:16242   */\n      tag_416\n      jump\t// in\n    tag_522:\n        /* \"#utility.yul\":16088:16252   */\n      pop\n        /* \"#utility.yul\":16342:16348   */\n      0x0100\n        /* \"#utility.yul\":16335:16340   */\n      dup4\n        /* \"#utility.yul\":16331:16349   */\n      add\n        /* \"#utility.yul\":16325:16350   */\n      mload\n        /* \"#utility.yul\":16363:16428   */\n      tag_523\n        /* \"#utility.yul\":16420:16426   */\n      0x0100\n        /* \"#utility.yul\":16415:16418   */\n      dup7\n        /* \"#utility.yul\":16411:16427   */\n      add\n        /* \"#utility.yul\":16397:16409   */\n      dup3\n        /* \"#utility.yul\":16363:16428   */\n      tag_423\n      jump\t// in\n    tag_523:\n        /* \"#utility.yul\":16262:16438   */\n      pop\n        /* \"#utility.yul\":16523:16529   */\n      0x0120\n        /* \"#utility.yul\":16516:16521   */\n      dup4\n        /* \"#utility.yul\":16512:16530   */\n      add\n        /* \"#utility.yul\":16506:16531   */\n      mload\n        /* \"#utility.yul\":16580:16583   */\n      dup5\n        /* \"#utility.yul\":16574:16578   */\n      dup3\n        /* \"#utility.yul\":16570:16584   */\n      sub\n        /* \"#utility.yul\":16561:16567   */\n      0x0120\n        /* \"#utility.yul\":16556:16559   */\n      dup7\n        /* \"#utility.yul\":16552:16568   */\n      add\n        /* \"#utility.yul\":16545:16585   */\n      mstore\n        /* \"#utility.yul\":16606:16679   */\n      tag_524\n        /* \"#utility.yul\":16674:16678   */\n      dup3\n        /* \"#utility.yul\":16660:16672   */\n      dup3\n        /* \"#utility.yul\":16606:16679   */\n      tag_435\n      jump\t// in\n    tag_524:\n        /* \"#utility.yul\":16598:16679   */\n      swap2\n      pop\n        /* \"#utility.yul\":16448:16690   */\n      pop\n        /* \"#utility.yul\":16776:16782   */\n      0x0140\n        /* \"#utility.yul\":16769:16774   */\n      dup4\n        /* \"#utility.yul\":16765:16783   */\n      add\n        /* \"#utility.yul\":16759:16784   */\n      mload\n        /* \"#utility.yul\":16833:16836   */\n      dup5\n        /* \"#utility.yul\":16827:16831   */\n      dup3\n        /* \"#utility.yul\":16823:16837   */\n      sub\n        /* \"#utility.yul\":16814:16820   */\n      0x0140\n        /* \"#utility.yul\":16809:16812   */\n      dup7\n        /* \"#utility.yul\":16805:16821   */\n      add\n        /* \"#utility.yul\":16798:16838   */\n      mstore\n        /* \"#utility.yul\":16859:16932   */\n      tag_525\n        /* \"#utility.yul\":16927:16931   */\n      dup3\n        /* \"#utility.yul\":16913:16925   */\n      dup3\n        /* \"#utility.yul\":16859:16932   */\n      tag_435\n      jump\t// in\n    tag_525:\n        /* \"#utility.yul\":16851:16932   */\n      swap2\n      pop\n        /* \"#utility.yul\":16700:16943   */\n      pop\n        /* \"#utility.yul\":16960:16964   */\n      dup1\n        /* \"#utility.yul\":16953:16964   */\n      swap2\n      pop\n        /* \"#utility.yul\":14696:16970   */\n      pop\n        /* \"#utility.yul\":14574:16970   */\n      swap3\n      swap2\n      pop\n      pop\n      jump\t// out\n        /* \"#utility.yul\":17050:17705   */\n    tag_394:\n        /* \"#utility.yul\":17177:17181   */\n      0x60\n        /* \"#utility.yul\":17172:17175   */\n      dup3\n        /* \"#utility.yul\":17168:17182   */\n      add\n        /* \"#utility.yul\":17265:17269   */\n      0x00\n        /* \"#utility.yul\":17258:17263   */\n      dup3\n        /* \"#utility.yul\":17254:17270   */\n      add\n        /* \"#utility.yul\":17248:17271   */\n      mload\n        /* \"#utility.yul\":17284:17341   */\n      tag_527\n        /* \"#utility.yul\":17335:17339   */\n      0x00\n        /* \"#utility.yul\":17330:17333   */\n      dup6\n        /* \"#utility.yul\":17326:17340   */\n      add\n        /* \"#utility.yul\":17312:17324   */\n      dup3\n        /* \"#utility.yul\":17284:17341   */\n      tag_416\n      jump\t// in\n    tag_527:\n        /* \"#utility.yul\":17192:17351   */\n      pop\n        /* \"#utility.yul\":17433:17437   */\n      0x20\n        /* \"#utility.yul\":17426:17431   */\n      dup3\n        /* \"#utility.yul\":17422:17438   */\n      add\n        /* \"#utility.yul\":17416:17439   */\n      mload\n        /* \"#utility.yul\":17452:17509   */\n      tag_528\n        /* \"#utility.yul\":17503:17507   */\n      0x20\n        /* \"#utility.yul\":17498:17501   */\n      dup6\n        /* \"#utility.yul\":17494:17508   */\n      add\n        /* \"#utility.yul\":17480:17492   */\n      dup3\n        /* \"#utility.yul\":17452:17509   */\n      tag_416\n      jump\t// in\n    tag_528:\n        /* \"#utility.yul\":17361:17519   */\n      pop\n        /* \"#utility.yul\":17606:17610   */\n      0x40\n        /* \"#utility.yul\":17599:17604   */\n      dup3\n        /* \"#utility.yul\":17595:17611   */\n      add\n        /* \"#utility.yul\":17589:17612   */\n      mload\n        /* \"#utility.yul\":17625:17688   */\n      tag_529\n        /* \"#utility.yul\":17682:17686   */\n      0x40\n        /* \"#utility.yul\":17677:17680   */\n      dup6\n        /* \"#utility.yul\":17673:17687   */\n      add\n        /* \"#utility.yul\":17659:17671   */\n      dup3\n        /* \"#utility.yul\":17625:17688   */\n      tag_395\n      jump\t// in\n    tag_529:\n        /* \"#utility.yul\":17529:17698   */\n      pop\n        /* \"#utility.yul\":17146:17705   */\n      pop\n        /* \"#utility.yul\":17050:17705   */\n      pop\n      pop\n      jump\t// out\n        /* \"#utility.yul\":17711:17819   */\n    tag_518:\n        /* \"#utility.yul\":17788:17812   */\n      tag_531\n        /* \"#utility.yul\":17806:17811   */\n      dup2\n        /* \"#utility.yul\":17788:17812   */\n      tag_532\n      jump\t// in\n    tag_531:\n        /* \"#utility.yul\":17783:17786   */\n      dup3\n        /* \"#utility.yul\":17776:17813   */\n      mstore\n        /* \"#utility.yul\":17711:17819   */\n      pop\n      pop\n      jump\t// out\n        /* \"#utility.yul\":17825:17943   */\n    tag_533:\n        /* \"#utility.yul\":17912:17936   */\n      tag_535\n        /* \"#utility.yul\":17930:17935   */\n      dup2\n        /* \"#utility.yul\":17912:17936   */\n      tag_532\n      jump\t// in\n    tag_535:\n        /* \"#utility.yul\":17907:17910   */\n      dup3\n        /* \"#utility.yul\":17900:17937   */\n      mstore\n        /* \"#utility.yul\":17825:17943   */\n      pop\n      pop\n      jump\t// out\n        /* \"#utility.yul\":17949:18244   */\n    tag_124:\n        /* \"#utility.yul\":18091:18094   */\n      0x00\n        /* \"#utility.yul\":18113:18218   */\n      tag_537\n        /* \"#utility.yul\":18214:18217   */\n      dup3\n        /* \"#utility.yul\":18205:18211   */\n      dup5\n        /* \"#utility.yul\":18197:18203   */\n      dup7\n        /* \"#utility.yul\":18113:18218   */\n      tag_430\n      jump\t// in\n    tag_537:\n        /* \"#utility.yul\":18106:18218   */\n      swap2\n      pop\n        /* \"#utility.yul\":18235:18238   */\n      dup2\n        /* \"#utility.yul\":18228:18238   */\n      swap1\n      pop\n        /* \"#utility.yul\":17949:18244   */\n      swap4\n      swap3\n      pop\n      pop\n      pop\n      jump\t// out\n        /* \"#utility.yul\":18250:18525   */\n    tag_107:\n        /* \"#utility.yul\":18382:18385   */\n      0x00\n        /* \"#utility.yul\":18404:18499   */\n      tag_539\n        /* \"#utility.yul\":18495:18498   */\n      dup3\n        /* \"#utility.yul\":18486:18492   */\n      dup5\n        /* \"#utility.yul\":18404:18499   */\n      tag_452\n      jump\t// in\n    tag_539:\n        /* \"#utility.yul\":18397:18499   */\n      swap2\n      pop\n        /* \"#utility.yul\":18516:18519   */\n      dup2\n        /* \"#utility.yul\":18509:18519   */\n      swap1\n      pop\n        /* \"#utility.yul\":18250:18525   */\n      swap3\n      swap2\n      pop\n      pop\n      jump\t// out\n        /* \"#utility.yul\":18531:18753   */\n    tag_25:\n        /* \"#utility.yul\":18624:18628   */\n      0x00\n        /* \"#utility.yul\":18662:18664   */\n      0x20\n        /* \"#utility.yul\":18651:18660   */\n      dup3\n        /* \"#utility.yul\":18647:18665   */\n      add\n        /* \"#utility.yul\":18639:18665   */\n      swap1\n      pop\n        /* \"#utility.yul\":18675:18746   */\n      tag_541\n        /* \"#utility.yul\":18743:18744   */\n      0x00\n        /* \"#utility.yul\":18732:18741   */\n      dup4\n        /* \"#utility.yul\":18728:18745   */\n      add\n        /* \"#utility.yul\":18719:18725   */\n      dup5\n        /* \"#utility.yul\":18675:18746   */\n      tag_399\n      jump\t// in\n    tag_541:\n        /* \"#utility.yul\":18531:18753   */\n      swap3\n      swap2\n      pop\n      pop\n      jump\t// out\n        /* \"#utility.yul\":18759:18969   */\n    tag_86:\n        /* \"#utility.yul\":18846:18850   */\n      0x00\n        /* \"#utility.yul\":18884:18886   */\n      0x20\n        /* \"#utility.yul\":18873:18882   */\n      dup3\n        /* \"#utility.yul\":18869:18887   */\n      add\n        /* \"#utility.yul\":18861:18887   */\n      swap1\n      pop\n        /* \"#utility.yul\":18897:18962   */\n      tag_543\n        /* \"#utility.yul\":18959:18960   */\n      0x00\n        /* \"#utility.yul\":18948:18957   */\n      dup4\n        /* \"#utility.yul\":18944:18961   */\n      add\n        /* \"#utility.yul\":18935:18941   */\n      dup5\n        /* \"#utility.yul\":18897:18962   */\n      tag_420\n      jump\t// in\n    tag_543:\n        /* \"#utility.yul\":18759:18969   */\n      swap3\n      swap2\n      pop\n      pop\n      jump\t// out\n        /* \"#utility.yul\":18975:19393   */\n    tag_45:\n        /* \"#utility.yul\":19112:19116   */\n      0x00\n        /* \"#utility.yul\":19150:19152   */\n      0x60\n        /* \"#utility.yul\":19139:19148   */\n      dup3\n        /* \"#utility.yul\":19135:19153   */\n      add\n        /* \"#utility.yul\":19127:19153   */\n      swap1\n      pop\n        /* \"#utility.yul\":19163:19228   */\n      tag_545\n        /* \"#utility.yul\":19225:19226   */\n      0x00\n        /* \"#utility.yul\":19214:19223   */\n      dup4\n        /* \"#utility.yul\":19210:19227   */\n      add\n        /* \"#utility.yul\":19201:19207   */\n      dup7\n        /* \"#utility.yul\":19163:19228   */\n      tag_420\n      jump\t// in\n    tag_545:\n        /* \"#utility.yul\":19238:19304   */\n      tag_546\n        /* \"#utility.yul\":19300:19302   */\n      0x20\n        /* \"#utility.yul\":19289:19298   */\n      dup4\n        /* \"#utility.yul\":19285:19303   */\n      add\n        /* \"#utility.yul\":19276:19282   */\n      dup6\n        /* \"#utility.yul\":19238:19304   */\n      tag_420\n      jump\t// in\n    tag_546:\n        /* \"#utility.yul\":19314:19386   */\n      tag_547\n        /* \"#utility.yul\":19382:19384   */\n      0x40\n        /* \"#utility.yul\":19371:19380   */\n      dup4\n        /* \"#utility.yul\":19367:19385   */\n      add\n        /* \"#utility.yul\":19358:19364   */\n      dup5\n        /* \"#utility.yul\":19314:19386   */\n      tag_399\n      jump\t// in\n    tag_547:\n        /* \"#utility.yul\":18975:19393   */\n      swap5\n      swap4\n      pop\n      pop\n      pop\n      pop\n      jump\t// out\n        /* \"#utility.yul\":19399:20274   */\n    tag_51:\n        /* \"#utility.yul\":19686:19690   */\n      0x00\n        /* \"#utility.yul\":19724:19727   */\n      0x80\n        /* \"#utility.yul\":19713:19722   */\n      dup3\n        /* \"#utility.yul\":19709:19728   */\n      add\n        /* \"#utility.yul\":19701:19728   */\n      swap1\n      pop\n        /* \"#utility.yul\":19738:19809   */\n      tag_549\n        /* \"#utility.yul\":19806:19807   */\n      0x00\n        /* \"#utility.yul\":19795:19804   */\n      dup4\n        /* \"#utility.yul\":19791:19808   */\n      add\n        /* \"#utility.yul\":19782:19788   */\n      dup8\n        /* \"#utility.yul\":19738:19809   */\n      tag_427\n      jump\t// in\n    tag_549:\n        /* \"#utility.yul\":19856:19865   */\n      dup2\n        /* \"#utility.yul\":19850:19854   */\n      dup2\n        /* \"#utility.yul\":19846:19866   */\n      sub\n        /* \"#utility.yul\":19841:19843   */\n      0x20\n        /* \"#utility.yul\":19830:19839   */\n      dup4\n        /* \"#utility.yul\":19826:19844   */\n      add\n        /* \"#utility.yul\":19819:19867   */\n      mstore\n        /* \"#utility.yul\":19884:19962   */\n      tag_550\n        /* \"#utility.yul\":19957:19961   */\n      dup2\n        /* \"#utility.yul\":19948:19954   */\n      dup7\n        /* \"#utility.yul\":19884:19962   */\n      tag_445\n      jump\t// in\n    tag_550:\n        /* \"#utility.yul\":19876:19962   */\n      swap1\n      pop\n        /* \"#utility.yul\":19972:20044   */\n      tag_551\n        /* \"#utility.yul\":20040:20042   */\n      0x40\n        /* \"#utility.yul\":20029:20038   */\n      dup4\n        /* \"#utility.yul\":20025:20043   */\n      add\n        /* \"#utility.yul\":20016:20022   */\n      dup6\n        /* \"#utility.yul\":19972:20044   */\n      tag_533\n      jump\t// in\n    tag_551:\n        /* \"#utility.yul\":20091:20100   */\n      dup2\n        /* \"#utility.yul\":20085:20089   */\n      dup2\n        /* \"#utility.yul\":20081:20101   */\n      sub\n        /* \"#utility.yul\":20076:20078   */\n      0x60\n        /* \"#utility.yul\":20065:20074   */\n      dup4\n        /* \"#utility.yul\":20061:20079   */\n      add\n        /* \"#utility.yul\":20054:20102   */\n      mstore\n        /* \"#utility.yul\":20119:20267   */\n      tag_552\n        /* \"#utility.yul\":20262:20266   */\n      dup2\n        /* \"#utility.yul\":20253:20259   */\n      dup5\n        /* \"#utility.yul\":20119:20267   */\n      tag_402\n      jump\t// in\n    tag_552:\n        /* \"#utility.yul\":20111:20267   */\n      swap1\n      pop\n        /* \"#utility.yul\":19399:20274   */\n      swap6\n      swap5\n      pop\n      pop\n      pop\n      pop\n      pop\n      jump\t// out\n        /* \"#utility.yul\":20280:20593   */\n    tag_76:\n        /* \"#utility.yul\":20393:20397   */\n      0x00\n        /* \"#utility.yul\":20431:20433   */\n      0x20\n        /* \"#utility.yul\":20420:20429   */\n      dup3\n        /* \"#utility.yul\":20416:20434   */\n      add\n        /* \"#utility.yul\":20408:20434   */\n      swap1\n      pop\n        /* \"#utility.yul\":20480:20489   */\n      dup2\n        /* \"#utility.yul\":20474:20478   */\n      dup2\n        /* \"#utility.yul\":20470:20490   */\n      sub\n        /* \"#utility.yul\":20466:20467   */\n      0x00\n        /* \"#utility.yul\":20455:20464   */\n      dup4\n        /* \"#utility.yul\":20451:20468   */\n      add\n        /* \"#utility.yul\":20444:20491   */\n      mstore\n        /* \"#utility.yul\":20508:20586   */\n      tag_554\n        /* \"#utility.yul\":20581:20585   */\n      dup2\n        /* \"#utility.yul\":20572:20578   */\n      dup5\n        /* \"#utility.yul\":20508:20586   */\n      tag_445\n      jump\t// in\n    tag_554:\n        /* \"#utility.yul\":20500:20586   */\n      swap1\n      pop\n        /* \"#utility.yul\":20280:20593   */\n      swap3\n      swap2\n      pop\n      pop\n      jump\t// out\n        /* \"#utility.yul\":20599:22192   */\n    tag_31:\n        /* \"#utility.yul\":21027:21031   */\n      0x00\n        /* \"#utility.yul\":21065:21068   */\n      0x0160\n        /* \"#utility.yul\":21054:21063   */\n      dup3\n        /* \"#utility.yul\":21050:21069   */\n      add\n        /* \"#utility.yul\":21042:21069   */\n      swap1\n      pop\n        /* \"#utility.yul\":21115:21124   */\n      dup2\n        /* \"#utility.yul\":21109:21113   */\n      dup2\n        /* \"#utility.yul\":21105:21125   */\n      sub\n        /* \"#utility.yul\":21101:21102   */\n      0x00\n        /* \"#utility.yul\":21090:21099   */\n      dup4\n        /* \"#utility.yul\":21086:21103   */\n      add\n        /* \"#utility.yul\":21079:21126   */\n      mstore\n        /* \"#utility.yul\":21143:21221   */\n      tag_556\n        /* \"#utility.yul\":21216:21220   */\n      dup2\n        /* \"#utility.yul\":21207:21213   */\n      dup15\n        /* \"#utility.yul\":21143:21221   */\n      tag_445\n      jump\t// in\n    tag_556:\n        /* \"#utility.yul\":21135:21221   */\n      swap1\n      pop\n        /* \"#utility.yul\":21231:21303   */\n      tag_557\n        /* \"#utility.yul\":21299:21301   */\n      0x20\n        /* \"#utility.yul\":21288:21297   */\n      dup4\n        /* \"#utility.yul\":21284:21302   */\n      add\n        /* \"#utility.yul\":21275:21281   */\n      dup14\n        /* \"#utility.yul\":21231:21303   */\n      tag_399\n      jump\t// in\n    tag_557:\n        /* \"#utility.yul\":21313:21385   */\n      tag_558\n        /* \"#utility.yul\":21381:21383   */\n      0x40\n        /* \"#utility.yul\":21370:21379   */\n      dup4\n        /* \"#utility.yul\":21366:21384   */\n      add\n        /* \"#utility.yul\":21357:21363   */\n      dup13\n        /* \"#utility.yul\":21313:21385   */\n      tag_399\n      jump\t// in\n    tag_558:\n        /* \"#utility.yul\":21395:21467   */\n      tag_559\n        /* \"#utility.yul\":21463:21465   */\n      0x60\n        /* \"#utility.yul\":21452:21461   */\n      dup4\n        /* \"#utility.yul\":21448:21466   */\n      add\n        /* \"#utility.yul\":21439:21445   */\n      dup12\n        /* \"#utility.yul\":21395:21467   */\n      tag_533\n      jump\t// in\n    tag_559:\n        /* \"#utility.yul\":21477:21550   */\n      tag_560\n        /* \"#utility.yul\":21545:21548   */\n      0x80\n        /* \"#utility.yul\":21534:21543   */\n      dup4\n        /* \"#utility.yul\":21530:21549   */\n      add\n        /* \"#utility.yul\":21521:21527   */\n      dup11\n        /* \"#utility.yul\":21477:21550   */\n      tag_533\n      jump\t// in\n    tag_560:\n        /* \"#utility.yul\":21560:21633   */\n      tag_561\n        /* \"#utility.yul\":21628:21631   */\n      0xa0\n        /* \"#utility.yul\":21617:21626   */\n      dup4\n        /* \"#utility.yul\":21613:21632   */\n      add\n        /* \"#utility.yul\":21604:21610   */\n      dup10\n        /* \"#utility.yul\":21560:21633   */\n      tag_533\n      jump\t// in\n    tag_561:\n        /* \"#utility.yul\":21643:21716   */\n      tag_562\n        /* \"#utility.yul\":21711:21714   */\n      0xc0\n        /* \"#utility.yul\":21700:21709   */\n      dup4\n        /* \"#utility.yul\":21696:21715   */\n      add\n        /* \"#utility.yul\":21687:21693   */\n      dup9\n        /* \"#utility.yul\":21643:21716   */\n      tag_533\n      jump\t// in\n    tag_562:\n        /* \"#utility.yul\":21726:21793   */\n      tag_563\n        /* \"#utility.yul\":21788:21791   */\n      0xe0\n        /* \"#utility.yul\":21777:21786   */\n      dup4\n        /* \"#utility.yul\":21773:21792   */\n      add\n        /* \"#utility.yul\":21764:21770   */\n      dup8\n        /* \"#utility.yul\":21726:21793   */\n      tag_420\n      jump\t// in\n    tag_563:\n        /* \"#utility.yul\":21803:21876   */\n      tag_564\n        /* \"#utility.yul\":21871:21874   */\n      0x0100\n        /* \"#utility.yul\":21860:21869   */\n      dup4\n        /* \"#utility.yul\":21856:21875   */\n      add\n        /* \"#utility.yul\":21847:21853   */\n      dup7\n        /* \"#utility.yul\":21803:21876   */\n      tag_427\n      jump\t// in\n    tag_564:\n        /* \"#utility.yul\":21924:21933   */\n      dup2\n        /* \"#utility.yul\":21918:21922   */\n      dup2\n        /* \"#utility.yul\":21914:21934   */\n      sub\n        /* \"#utility.yul\":21908:21911   */\n      0x0120\n        /* \"#utility.yul\":21897:21906   */\n      dup4\n        /* \"#utility.yul\":21893:21912   */\n      add\n        /* \"#utility.yul\":21886:21935   */\n      mstore\n        /* \"#utility.yul\":21952:22030   */\n      tag_565\n        /* \"#utility.yul\":22025:22029   */\n      dup2\n        /* \"#utility.yul\":22016:22022   */\n      dup6\n        /* \"#utility.yul\":21952:22030   */\n      tag_445\n      jump\t// in\n    tag_565:\n        /* \"#utility.yul\":21944:22030   */\n      swap1\n      pop\n        /* \"#utility.yul\":22078:22087   */\n      dup2\n        /* \"#utility.yul\":22072:22076   */\n      dup2\n        /* \"#utility.yul\":22068:22088   */\n      sub\n        /* \"#utility.yul\":22062:22065   */\n      0x0140\n        /* \"#utility.yul\":22051:22060   */\n      dup4\n        /* \"#utility.yul\":22047:22066   */\n      add\n        /* \"#utility.yul\":22040:22089   */\n      mstore\n        /* \"#utility.yul\":22106:22185   */\n      tag_566\n        /* \"#utility.yul\":22180:22184   */\n      dup2\n        /* \"#utility.yul\":22170:22177   */\n      dup5\n        /* \"#utility.yul\":22106:22185   */\n      tag_445\n      jump\t// in\n    tag_566:\n        /* \"#utility.yul\":22098:22185   */\n      swap1\n      pop\n        /* \"#utility.yul\":20599:22192   */\n      swap13\n      swap12\n      pop\n      pop\n      pop\n      pop\n      pop\n      pop\n      pop\n      pop\n      pop\n      pop\n      pop\n      pop\n      jump\t// out\n        /* \"#utility.yul\":22198:22953   */\n    tag_60:\n        /* \"#utility.yul\":22423:22427   */\n      0x00\n        /* \"#utility.yul\":22461:22464   */\n      0xa0\n        /* \"#utility.yul\":22450:22459   */\n      dup3\n        /* \"#utility.yul\":22446:22465   */\n      add\n        /* \"#utility.yul\":22438:22465   */\n      swap1\n      pop\n        /* \"#utility.yul\":22511:22520   */\n      dup2\n        /* \"#utility.yul\":22505:22509   */\n      dup2\n        /* \"#utility.yul\":22501:22521   */\n      sub\n        /* \"#utility.yul\":22497:22498   */\n      0x00\n        /* \"#utility.yul\":22486:22495   */\n      dup4\n        /* \"#utility.yul\":22482:22499   */\n      add\n        /* \"#utility.yul\":22475:22522   */\n      mstore\n        /* \"#utility.yul\":22539:22617   */\n      tag_568\n        /* \"#utility.yul\":22612:22616   */\n      dup2\n        /* \"#utility.yul\":22603:22609   */\n      dup9\n        /* \"#utility.yul\":22539:22617   */\n      tag_445\n      jump\t// in\n    tag_568:\n        /* \"#utility.yul\":22531:22617   */\n      swap1\n      pop\n        /* \"#utility.yul\":22627:22699   */\n      tag_569\n        /* \"#utility.yul\":22695:22697   */\n      0x20\n        /* \"#utility.yul\":22684:22693   */\n      dup4\n        /* \"#utility.yul\":22680:22698   */\n      add\n        /* \"#utility.yul\":22671:22677   */\n      dup8\n        /* \"#utility.yul\":22627:22699   */\n      tag_533\n      jump\t// in\n    tag_569:\n        /* \"#utility.yul\":22709:22781   */\n      tag_570\n        /* \"#utility.yul\":22777:22779   */\n      0x40\n        /* \"#utility.yul\":22766:22775   */\n      dup4\n        /* \"#utility.yul\":22762:22780   */\n      add\n        /* \"#utility.yul\":22753:22759   */\n      dup7\n        /* \"#utility.yul\":22709:22781   */\n      tag_399\n      jump\t// in\n    tag_570:\n        /* \"#utility.yul\":22791:22863   */\n      tag_571\n        /* \"#utility.yul\":22859:22861   */\n      0x60\n        /* \"#utility.yul\":22848:22857   */\n      dup4\n        /* \"#utility.yul\":22844:22862   */\n      add\n        /* \"#utility.yul\":22835:22841   */\n      dup6\n        /* \"#utility.yul\":22791:22863   */\n      tag_533\n      jump\t// in\n    tag_571:\n        /* \"#utility.yul\":22873:22946   */\n      tag_572\n        /* \"#utility.yul\":22941:22944   */\n      0x80\n        /* \"#utility.yul\":22930:22939   */\n      dup4\n        /* \"#utility.yul\":22926:22945   */\n      add\n        /* \"#utility.yul\":22917:22923   */\n      dup5\n        /* \"#utility.yul\":22873:22946   */\n      tag_533\n      jump\t// in\n    tag_572:\n        /* \"#utility.yul\":22198:22953   */\n      swap7\n      swap6\n      pop\n      pop\n      pop\n      pop\n      pop\n      pop\n      jump\t// out\n        /* \"#utility.yul\":22959:23378   */\n    tag_190:\n        /* \"#utility.yul\":23125:23129   */\n      0x00\n        /* \"#utility.yul\":23163:23165   */\n      0x20\n        /* \"#utility.yul\":23152:23161   */\n      dup3\n        /* \"#utility.yul\":23148:23166   */\n      add\n        /* \"#utility.yul\":23140:23166   */\n      swap1\n      pop\n        /* \"#utility.yul\":23212:23221   */\n      dup2\n        /* \"#utility.yul\":23206:23210   */\n      dup2\n        /* \"#utility.yul\":23202:23222   */\n      sub\n        /* \"#utility.yul\":23198:23199   */\n      0x00\n        /* \"#utility.yul\":23187:23196   */\n      dup4\n        /* \"#utility.yul\":23183:23200   */\n      add\n        /* \"#utility.yul\":23176:23223   */\n      mstore\n        /* \"#utility.yul\":23240:23371   */\n      tag_574\n        /* \"#utility.yul\":23366:23370   */\n      dup2\n        /* \"#utility.yul\":23240:23371   */\n      tag_457\n      jump\t// in\n    tag_574:\n        /* \"#utility.yul\":23232:23371   */\n      swap1\n      pop\n        /* \"#utility.yul\":22959:23378   */\n      swap2\n      swap1\n      pop\n      jump\t// out\n        /* \"#utility.yul\":23384:23803   */\n    tag_110:\n        /* \"#utility.yul\":23550:23554   */\n      0x00\n        /* \"#utility.yul\":23588:23590   */\n      0x20\n        /* \"#utility.yul\":23577:23586   */\n      dup3\n        /* \"#utility.yul\":23573:23591   */\n      add\n        /* \"#utility.yul\":23565:23591   */\n      swap1\n      pop\n        /* \"#utility.yul\":23637:23646   */\n      dup2\n        /* \"#utility.yul\":23631:23635   */\n      dup2\n        /* \"#utility.yul\":23627:23647   */\n      sub\n        /* \"#utility.yul\":23623:23624   */\n      0x00\n        /* \"#utility.yul\":23612:23621   */\n      dup4\n        /* \"#utility.yul\":23608:23625   */\n      add\n        /* \"#utility.yul\":23601:23648   */\n      mstore\n        /* \"#utility.yul\":23665:23796   */\n      tag_576\n        /* \"#utility.yul\":23791:23795   */\n      dup2\n        /* \"#utility.yul\":23665:23796   */\n      tag_462\n      jump\t// in\n    tag_576:\n        /* \"#utility.yul\":23657:23796   */\n      swap1\n      pop\n        /* \"#utility.yul\":23384:23803   */\n      swap2\n      swap1\n      pop\n      jump\t// out\n        /* \"#utility.yul\":23809:24228   */\n    tag_226:\n        /* \"#utility.yul\":23975:23979   */\n      0x00\n        /* \"#utility.yul\":24013:24015   */\n      0x20\n        /* \"#utility.yul\":24002:24011   */\n      dup3\n        /* \"#utility.yul\":23998:24016   */\n      add\n        /* \"#utility.yul\":23990:24016   */\n      swap1\n      pop\n        /* \"#utility.yul\":24062:24071   */\n      dup2\n        /* \"#utility.yul\":24056:24060   */\n      dup2\n        /* \"#utility.yul\":24052:24072   */\n      sub\n        /* \"#utility.yul\":24048:24049   */\n      0x00\n        /* \"#utility.yul\":24037:24046   */\n      dup4\n        /* \"#utility.yul\":24033:24050   */\n      add\n        /* \"#utility.yul\":24026:24073   */\n      mstore\n        /* \"#utility.yul\":24090:24221   */\n      tag_578\n        /* \"#utility.yul\":24216:24220   */\n      dup2\n        /* \"#utility.yul\":24090:24221   */\n      tag_467\n      jump\t// in\n    tag_578:\n        /* \"#utility.yul\":24082:24221   */\n      swap1\n      pop\n        /* \"#utility.yul\":23809:24228   */\n      swap2\n      swap1\n      pop\n      jump\t// out\n        /* \"#utility.yul\":24234:24653   */\n    tag_135:\n        /* \"#utility.yul\":24400:24404   */\n      0x00\n        /* \"#utility.yul\":24438:24440   */\n      0x20\n        /* \"#utility.yul\":24427:24436   */\n      dup3\n        /* \"#utility.yul\":24423:24441   */\n      add\n        /* \"#utility.yul\":24415:24441   */\n      swap1\n      pop\n        /* \"#utility.yul\":24487:24496   */\n      dup2\n        /* \"#utility.yul\":24481:24485   */\n      dup2\n        /* \"#utility.yul\":24477:24497   */\n      sub\n        /* \"#utility.yul\":24473:24474   */\n      0x00\n        /* \"#utility.yul\":24462:24471   */\n      dup4\n        /* \"#utility.yul\":24458:24475   */\n      add\n        /* \"#utility.yul\":24451:24498   */\n      mstore\n        /* \"#utility.yul\":24515:24646   */\n      tag_580\n        /* \"#utility.yul\":24641:24645   */\n      dup2\n        /* \"#utility.yul\":24515:24646   */\n      tag_472\n      jump\t// in\n    tag_580:\n        /* \"#utility.yul\":24507:24646   */\n      swap1\n      pop\n        /* \"#utility.yul\":24234:24653   */\n      swap2\n      swap1\n      pop\n      jump\t// out\n        /* \"#utility.yul\":24659:25078   */\n    tag_186:\n        /* \"#utility.yul\":24825:24829   */\n      0x00\n        /* \"#utility.yul\":24863:24865   */\n      0x20\n        /* \"#utility.yul\":24852:24861   */\n      dup3\n        /* \"#utility.yul\":24848:24866   */\n      add\n        /* \"#utility.yul\":24840:24866   */\n      swap1\n      pop\n        /* \"#utility.yul\":24912:24921   */\n      dup2\n        /* \"#utility.yul\":24906:24910   */\n      dup2\n        /* \"#utility.yul\":24902:24922   */\n      sub\n        /* \"#utility.yul\":24898:24899   */\n      0x00\n        /* \"#utility.yul\":24887:24896   */\n      dup4\n        /* \"#utility.yul\":24883:24900   */\n      add\n        /* \"#utility.yul\":24876:24923   */\n      mstore\n        /* \"#utility.yul\":24940:25071   */\n      tag_582\n        /* \"#utility.yul\":25066:25070   */\n      dup2\n        /* \"#utility.yul\":24940:25071   */\n      tag_477\n      jump\t// in\n    tag_582:\n        /* \"#utility.yul\":24932:25071   */\n      swap1\n      pop\n        /* \"#utility.yul\":24659:25078   */\n      swap2\n      swap1\n      pop\n      jump\t// out\n        /* \"#utility.yul\":25084:25503   */\n    tag_131:\n        /* \"#utility.yul\":25250:25254   */\n      0x00\n        /* \"#utility.yul\":25288:25290   */\n      0x20\n        /* \"#utility.yul\":25277:25286   */\n      dup3\n        /* \"#utility.yul\":25273:25291   */\n      add\n        /* \"#utility.yul\":25265:25291   */\n      swap1\n      pop\n        /* \"#utility.yul\":25337:25346   */\n      dup2\n        /* \"#utility.yul\":25331:25335   */\n      dup2\n        /* \"#utility.yul\":25327:25347   */\n      sub\n        /* \"#utility.yul\":25323:25324   */\n      0x00\n        /* \"#utility.yul\":25312:25321   */\n      dup4\n        /* \"#utility.yul\":25308:25325   */\n      add\n        /* \"#utility.yul\":25301:25348   */\n      mstore\n        /* \"#utility.yul\":25365:25496   */\n      tag_584\n        /* \"#utility.yul\":25491:25495   */\n      dup2\n        /* \"#utility.yul\":25365:25496   */\n      tag_482\n      jump\t// in\n    tag_584:\n        /* \"#utility.yul\":25357:25496   */\n      swap1\n      pop\n        /* \"#utility.yul\":25084:25503   */\n      swap2\n      swap1\n      pop\n      jump\t// out\n        /* \"#utility.yul\":25509:25928   */\n    tag_194:\n        /* \"#utility.yul\":25675:25679   */\n      0x00\n        /* \"#utility.yul\":25713:25715   */\n      0x20\n        /* \"#utility.yul\":25702:25711   */\n      dup3\n        /* \"#utility.yul\":25698:25716   */\n      add\n        /* \"#utility.yul\":25690:25716   */\n      swap1\n      pop\n        /* \"#utility.yul\":25762:25771   */\n      dup2\n        /* \"#utility.yul\":25756:25760   */\n      dup2\n        /* \"#utility.yul\":25752:25772   */\n      sub\n        /* \"#utility.yul\":25748:25749   */\n      0x00\n        /* \"#utility.yul\":25737:25746   */\n      dup4\n        /* \"#utility.yul\":25733:25750   */\n      add\n        /* \"#utility.yul\":25726:25773   */\n      mstore\n        /* \"#utility.yul\":25790:25921   */\n      tag_586\n        /* \"#utility.yul\":25916:25920   */\n      dup2\n        /* \"#utility.yul\":25790:25921   */\n      tag_487\n      jump\t// in\n    tag_586:\n        /* \"#utility.yul\":25782:25921   */\n      swap1\n      pop\n        /* \"#utility.yul\":25509:25928   */\n      swap2\n      swap1\n      pop\n      jump\t// out\n        /* \"#utility.yul\":25934:26353   */\n    tag_182:\n        /* \"#utility.yul\":26100:26104   */\n      0x00\n        /* \"#utility.yul\":26138:26140   */\n      0x20\n        /* \"#utility.yul\":26127:26136   */\n      dup3\n        /* \"#utility.yul\":26123:26141   */\n      add\n        /* \"#utility.yul\":26115:26141   */\n      swap1\n      pop\n        /* \"#utility.yul\":26187:26196   */\n      dup2\n        /* \"#utility.yul\":26181:26185   */\n      dup2\n        /* \"#utility.yul\":26177:26197   */\n      sub\n        /* \"#utility.yul\":26173:26174   */\n      0x00\n        /* \"#utility.yul\":26162:26171   */\n      dup4\n        /* \"#utility.yul\":26158:26175   */\n      add\n        /* \"#utility.yul\":26151:26198   */\n      mstore\n        /* \"#utility.yul\":26215:26346   */\n      tag_588\n        /* \"#utility.yul\":26341:26345   */\n      dup2\n        /* \"#utility.yul\":26215:26346   */\n      tag_492\n      jump\t// in\n    tag_588:\n        /* \"#utility.yul\":26207:26346   */\n      swap1\n      pop\n        /* \"#utility.yul\":25934:26353   */\n      swap2\n      swap1\n      pop\n      jump\t// out\n        /* \"#utility.yul\":26359:26778   */\n    tag_165:\n        /* \"#utility.yul\":26525:26529   */\n      0x00\n        /* \"#utility.yul\":26563:26565   */\n      0x20\n        /* \"#utility.yul\":26552:26561   */\n      dup3\n        /* \"#utility.yul\":26548:26566   */\n      add\n        /* \"#utility.yul\":26540:26566   */\n      swap1\n      pop\n        /* \"#utility.yul\":26612:26621   */\n      dup2\n        /* \"#utility.yul\":26606:26610   */\n      dup2\n        /* \"#utility.yul\":26602:26622   */\n      sub\n        /* \"#utility.yul\":26598:26599   */\n      0x00\n        /* \"#utility.yul\":26587:26596   */\n      dup4\n        /* \"#utility.yul\":26583:26600   */\n      add\n        /* \"#utility.yul\":26576:26623   */\n      mstore\n        /* \"#utility.yul\":26640:26771   */\n      tag_590\n        /* \"#utility.yul\":26766:26770   */\n      dup2\n        /* \"#utility.yul\":26640:26771   */\n      tag_497\n      jump\t// in\n    tag_590:\n        /* \"#utility.yul\":26632:26771   */\n      swap1\n      pop\n        /* \"#utility.yul\":26359:26778   */\n      swap2\n      swap1\n      pop\n      jump\t// out\n        /* \"#utility.yul\":26784:27203   */\n    tag_127:\n        /* \"#utility.yul\":26950:26954   */\n      0x00\n        /* \"#utility.yul\":26988:26990   */\n      0x20\n        /* \"#utility.yul\":26977:26986   */\n      dup3\n        /* \"#utility.yul\":26973:26991   */\n      add\n        /* \"#utility.yul\":26965:26991   */\n      swap1\n      pop\n        /* \"#utility.yul\":27037:27046   */\n      dup2\n        /* \"#utility.yul\":27031:27035   */\n      dup2\n        /* \"#utility.yul\":27027:27047   */\n      sub\n        /* \"#utility.yul\":27023:27024   */\n      0x00\n        /* \"#utility.yul\":27012:27021   */\n      dup4\n        /* \"#utility.yul\":27008:27025   */\n      add\n        /* \"#utility.yul\":27001:27048   */\n      mstore\n        /* \"#utility.yul\":27065:27196   */\n      tag_592\n        /* \"#utility.yul\":27191:27195   */\n      dup2\n        /* \"#utility.yul\":27065:27196   */\n      tag_502\n      jump\t// in\n    tag_592:\n        /* \"#utility.yul\":27057:27196   */\n      swap1\n      pop\n        /* \"#utility.yul\":26784:27203   */\n      swap2\n      swap1\n      pop\n      jump\t// out\n        /* \"#utility.yul\":27209:27628   */\n    tag_220:\n        /* \"#utility.yul\":27375:27379   */\n      0x00\n        /* \"#utility.yul\":27413:27415   */\n      0x20\n        /* \"#utility.yul\":27402:27411   */\n      dup3\n        /* \"#utility.yul\":27398:27416   */\n      add\n        /* \"#utility.yul\":27390:27416   */\n      swap1\n      pop\n        /* \"#utility.yul\":27462:27471   */\n      dup2\n        /* \"#utility.yul\":27456:27460   */\n      dup2\n        /* \"#utility.yul\":27452:27472   */\n      sub\n        /* \"#utility.yul\":27448:27449   */\n      0x00\n        /* \"#utility.yul\":27437:27446   */\n      dup4\n        /* \"#utility.yul\":27433:27450   */\n      add\n        /* \"#utility.yul\":27426:27473   */\n      mstore\n        /* \"#utility.yul\":27490:27621   */\n      tag_594\n        /* \"#utility.yul\":27616:27620   */\n      dup2\n        /* \"#utility.yul\":27490:27621   */\n      tag_507\n      jump\t// in\n    tag_594:\n        /* \"#utility.yul\":27482:27621   */\n      swap1\n      pop\n        /* \"#utility.yul\":27209:27628   */\n      swap2\n      swap1\n      pop\n      jump\t// out\n        /* \"#utility.yul\":27634:28003   */\n    tag_81:\n        /* \"#utility.yul\":27775:27779   */\n      0x00\n        /* \"#utility.yul\":27813:27815   */\n      0x20\n        /* \"#utility.yul\":27802:27811   */\n      dup3\n        /* \"#utility.yul\":27798:27816   */\n      add\n        /* \"#utility.yul\":27790:27816   */\n      swap1\n      pop\n        /* \"#utility.yul\":27862:27871   */\n      dup2\n        /* \"#utility.yul\":27856:27860   */\n      dup2\n        /* \"#utility.yul\":27852:27872   */\n      sub\n        /* \"#utility.yul\":27848:27849   */\n      0x00\n        /* \"#utility.yul\":27837:27846   */\n      dup4\n        /* \"#utility.yul\":27833:27850   */\n      add\n        /* \"#utility.yul\":27826:27873   */\n      mstore\n        /* \"#utility.yul\":27890:27996   */\n      tag_596\n        /* \"#utility.yul\":27991:27995   */\n      dup2\n        /* \"#utility.yul\":27982:27988   */\n      dup5\n        /* \"#utility.yul\":27890:27996   */\n      tag_512\n      jump\t// in\n    tag_596:\n        /* \"#utility.yul\":27882:27996   */\n      swap1\n      pop\n        /* \"#utility.yul\":27634:28003   */\n      swap3\n      swap2\n      pop\n      pop\n      jump\t// out\n        /* \"#utility.yul\":28009:28138   */\n    tag_303:\n        /* \"#utility.yul\":28043:28049   */\n      0x00\n        /* \"#utility.yul\":28070:28090   */\n      tag_598\n      tag_599\n      jump\t// in\n    tag_598:\n        /* \"#utility.yul\":28060:28090   */\n      swap1\n      pop\n        /* \"#utility.yul\":28099:28132   */\n      tag_600\n        /* \"#utility.yul\":28127:28131   */\n      dup3\n        /* \"#utility.yul\":28119:28125   */\n      dup3\n        /* \"#utility.yul\":28099:28132   */\n      tag_601\n      jump\t// in\n    tag_600:\n        /* \"#utility.yul\":28009:28138   */\n      swap2\n      swap1\n      pop\n      jump\t// out\n        /* \"#utility.yul\":28144:28219   */\n    tag_599:\n        /* \"#utility.yul\":28177:28183   */\n      0x00\n        /* \"#utility.yul\":28210:28212   */\n      0x40\n        /* \"#utility.yul\":28204:28213   */\n      mload\n        /* \"#utility.yul\":28194:28213   */\n      swap1\n      pop\n        /* \"#utility.yul\":28144:28219   */\n      swap1\n      jump\t// out\n        /* \"#utility.yul\":28225:28533   */\n    tag_302:\n        /* \"#utility.yul\":28287:28291   */\n      0x00\n        /* \"#utility.yul\":28377:28395   */\n      0xffffffffffffffff\n        /* \"#utility.yul\":28369:28375   */\n      dup3\n        /* \"#utility.yul\":28366:28396   */\n      gt\n        /* \"#utility.yul\":28363:28419   */\n      iszero\n      tag_604\n      jumpi\n        /* \"#utility.yul\":28399:28417   */\n      tag_605\n      tag_606\n      jump\t// in\n    tag_605:\n        /* \"#utility.yul\":28363:28419   */\n    tag_604:\n        /* \"#utility.yul\":28437:28466   */\n      tag_607\n        /* \"#utility.yul\":28459:28465   */\n      dup3\n        /* \"#utility.yul\":28437:28466   */\n      tag_444\n      jump\t// in\n    tag_607:\n        /* \"#utility.yul\":28429:28466   */\n      swap1\n      pop\n        /* \"#utility.yul\":28521:28525   */\n      0x20\n        /* \"#utility.yul\":28515:28519   */\n      dup2\n        /* \"#utility.yul\":28511:28526   */\n      add\n        /* \"#utility.yul\":28503:28526   */\n      swap1\n      pop\n        /* \"#utility.yul\":28225:28533   */\n      swap2\n      swap1\n      pop\n      jump\t// out\n        /* \"#utility.yul\":28539:28691   */\n    tag_409:\n        /* \"#utility.yul\":28626:28630   */\n      0x00\n        /* \"#utility.yul\":28649:28652   */\n      dup2\n        /* \"#utility.yul\":28641:28652   */\n      swap1\n      pop\n        /* \"#utility.yul\":28679:28683   */\n      0x20\n        /* \"#utility.yul\":28674:28677   */\n      dup3\n        /* \"#utility.yul\":28670:28684   */\n      add\n        /* \"#utility.yul\":28662:28684   */\n      swap1\n      pop\n        /* \"#utility.yul\":28539:28691   */\n      swap2\n      swap1\n      pop\n      jump\t// out\n        /* \"#utility.yul\":28697:28831   */\n    tag_405:\n        /* \"#utility.yul\":28784:28790   */\n      0x00\n        /* \"#utility.yul\":28818:28823   */\n      dup2\n        /* \"#utility.yul\":28812:28824   */\n      mload\n        /* \"#utility.yul\":28802:28824   */\n      swap1\n      pop\n        /* \"#utility.yul\":28697:28831   */\n      swap2\n      swap1\n      pop\n      jump\t// out\n        /* \"#utility.yul\":28837:28936   */\n    tag_438:\n        /* \"#utility.yul\":28889:28895   */\n      0x00\n        /* \"#utility.yul\":28923:28928   */\n      dup2\n        /* \"#utility.yul\":28917:28929   */\n      mload\n        /* \"#utility.yul\":28907:28929   */\n      swap1\n      pop\n        /* \"#utility.yul\":28837:28936   */\n      swap2\n      swap1\n      pop\n      jump\t// out\n        /* \"#utility.yul\":28942:29075   */\n    tag_415:\n        /* \"#utility.yul\":29032:29036   */\n      0x00\n        /* \"#utility.yul\":29064:29068   */\n      0x20\n        /* \"#utility.yul\":29059:29062   */\n      dup3\n        /* \"#utility.yul\":29055:29069   */\n      add\n        /* \"#utility.yul\":29047:29069   */\n      swap1\n      pop\n        /* \"#utility.yul\":28942:29075   */\n      swap2\n      swap1\n      pop\n      jump\t// out\n        /* \"#utility.yul\":29081:29285   */\n    tag_407:\n        /* \"#utility.yul\":29200:29211   */\n      0x00\n        /* \"#utility.yul\":29234:29240   */\n      dup3\n        /* \"#utility.yul\":29229:29232   */\n      dup3\n        /* \"#utility.yul\":29222:29241   */\n      mstore\n        /* \"#utility.yul\":29274:29278   */\n      0x20\n        /* \"#utility.yul\":29269:29272   */\n      dup3\n        /* \"#utility.yul\":29265:29279   */\n      add\n        /* \"#utility.yul\":29250:29279   */\n      swap1\n      pop\n        /* \"#utility.yul\":29081:29285   */\n      swap3\n      swap2\n      pop\n      pop\n      jump\t// out\n        /* \"#utility.yul\":29291:29450   */\n    tag_440:\n        /* \"#utility.yul\":29365:29376   */\n      0x00\n        /* \"#utility.yul\":29399:29405   */\n      dup3\n        /* \"#utility.yul\":29394:29397   */\n      dup3\n        /* \"#utility.yul\":29387:29406   */\n      mstore\n        /* \"#utility.yul\":29439:29443   */\n      0x20\n        /* \"#utility.yul\":29434:29437   */\n      dup3\n        /* \"#utility.yul\":29430:29444   */\n      add\n        /* \"#utility.yul\":29415:29444   */\n      swap1\n      pop\n        /* \"#utility.yul\":29291:29450   */\n      swap3\n      swap2\n      pop\n      pop\n      jump\t// out\n        /* \"#utility.yul\":29456:29625   */\n    tag_449:\n        /* \"#utility.yul\":29540:29551   */\n      0x00\n        /* \"#utility.yul\":29574:29580   */\n      dup3\n        /* \"#utility.yul\":29569:29572   */\n      dup3\n        /* \"#utility.yul\":29562:29581   */\n      mstore\n        /* \"#utility.yul\":29614:29618   */\n      0x20\n        /* \"#utility.yul\":29609:29612   */\n      dup3\n        /* \"#utility.yul\":29605:29619   */\n      add\n        /* \"#utility.yul\":29590:29619   */\n      swap1\n      pop\n        /* \"#utility.yul\":29456:29625   */\n      swap3\n      swap2\n      pop\n      pop\n      jump\t// out\n        /* \"#utility.yul\":29631:29779   */\n    tag_433:\n        /* \"#utility.yul\":29733:29744   */\n      0x00\n        /* \"#utility.yul\":29770:29773   */\n      dup2\n        /* \"#utility.yul\":29755:29773   */\n      swap1\n      pop\n        /* \"#utility.yul\":29631:29779   */\n      swap3\n      swap2\n      pop\n      pop\n      jump\t// out\n        /* \"#utility.yul\":29785:30090   */\n    tag_112:\n        /* \"#utility.yul\":29825:29828   */\n      0x00\n        /* \"#utility.yul\":29844:29864   */\n      tag_617\n        /* \"#utility.yul\":29862:29863   */\n      dup3\n        /* \"#utility.yul\":29844:29864   */\n      tag_532\n      jump\t// in\n    tag_617:\n        /* \"#utility.yul\":29839:29864   */\n      swap2\n      pop\n        /* \"#utility.yul\":29878:29898   */\n      tag_618\n        /* \"#utility.yul\":29896:29897   */\n      dup4\n        /* \"#utility.yul\":29878:29898   */\n      tag_532\n      jump\t// in\n    tag_618:\n        /* \"#utility.yul\":29873:29898   */\n      swap3\n      pop\n        /* \"#utility.yul\":30032:30033   */\n      dup3\n        /* \"#utility.yul\":29964:30030   */\n      0xffffffffffffffffffffffffffffffffffffffffffffffffffffffffffffffff\n        /* \"#utility.yul\":29960:30034   */\n      sub\n        /* \"#utility.yul\":29957:29958   */\n      dup3\n        /* \"#utility.yul\":29954:30035   */\n      gt\n        /* \"#utility.yul\":29951:30058   */\n      iszero\n      tag_619\n      jumpi\n        /* \"#utility.yul\":30038:30056   */\n      tag_620\n      tag_621\n      jump\t// in\n    tag_620:\n        /* \"#utility.yul\":29951:30058   */\n    tag_619:\n        /* \"#utility.yul\":30082:30083   */\n      dup3\n        /* \"#utility.yul\":30079:30080   */\n      dup3\n        /* \"#utility.yul\":30075:30084   */\n      add\n        /* \"#utility.yul\":30068:30084   */\n      swap1\n      pop\n        /* \"#utility.yul\":29785:30090   */\n      swap3\n      swap2\n      pop\n      pop\n      jump\t// out\n        /* \"#utility.yul\":30096:30281   */\n    tag_230:\n        /* \"#utility.yul\":30136:30137   */\n      0x00\n        /* \"#utility.yul\":30153:30173   */\n      tag_623\n        /* \"#utility.yul\":30171:30172   */\n      dup3\n        /* \"#utility.yul\":30153:30173   */\n      tag_532\n      jump\t// in\n    tag_623:\n        /* \"#utility.yul\":30148:30173   */\n      swap2\n      pop\n        /* \"#utility.yul\":30187:30207   */\n      tag_624\n        /* \"#utility.yul\":30205:30206   */\n      dup4\n        /* \"#utility.yul\":30187:30207   */\n      tag_532\n      jump\t// in\n    tag_624:\n        /* \"#utility.yul\":30182:30207   */\n      swap3\n      pop\n        /* \"#utility.yul\":30226:30227   */\n      dup3\n        /* \"#utility.yul\":30216:30251   */\n      tag_625\n      jumpi\n        /* \"#utility.yul\":30231:30249   */\n      tag_626\n      tag_627\n      jump\t// in\n    tag_626:\n        /* \"#utility.yul\":30216:30251   */\n    tag_625:\n        /* \"#utility.yul\":30273:30274   */\n      dup3\n        /* \"#utility.yul\":30270:30271   */\n      dup3\n        /* \"#utility.yul\":30266:30275   */\n      div\n        /* \"#utility.yul\":30261:30275   */\n      swap1\n      pop\n        /* \"#utility.yul\":30096:30281   */\n      swap3\n      swap2\n      pop\n      pop\n      jump\t// out\n        /* \"#utility.yul\":30287:30635   */\n    tag_232:\n        /* \"#utility.yul\":30327:30334   */\n      0x00\n        /* \"#utility.yul\":30350:30370   */\n      tag_629\n        /* \"#utility.yul\":30368:30369   */\n      dup3\n        /* \"#utility.yul\":30350:30370   */\n      tag_532\n      jump\t// in\n    tag_629:\n        /* \"#utility.yul\":30345:30370   */\n      swap2\n      pop\n        /* \"#utility.yul\":30384:30404   */\n      tag_630\n        /* \"#utility.yul\":30402:30403   */\n      dup4\n        /* \"#utility.yul\":30384:30404   */\n      tag_532\n      jump\t// in\n    tag_630:\n        /* \"#utility.yul\":30379:30404   */\n      swap3\n      pop\n        /* \"#utility.yul\":30572:30573   */\n      dup2\n        /* \"#utility.yul\":30504:30570   */\n      0xffffffffffffffffffffffffffffffffffffffffffffffffffffffffffffffff\n        /* \"#utility.yul\":30500:30574   */\n      div\n        /* \"#utility.yul\":30497:30498   */\n      dup4\n        /* \"#utility.yul\":30494:30575   */\n      gt\n        /* \"#utility.yul\":30489:30490   */\n      dup3\n        /* \"#utility.yul\":30482:30491   */\n      iszero\n        /* \"#utility.yul\":30475:30492   */\n      iszero\n        /* \"#utility.yul\":30471:30576   */\n      and\n        /* \"#utility.yul\":30468:30599   */\n      iszero\n      tag_631\n      jumpi\n        /* \"#utility.yul\":30579:30597   */\n      tag_632\n      tag_621\n      jump\t// in\n    tag_632:\n        /* \"#utility.yul\":30468:30599   */\n    tag_631:\n        /* \"#utility.yul\":30627:30628   */\n      dup3\n        /* \"#utility.yul\":30624:30625   */\n      dup3\n        /* \"#utility.yul\":30620:30629   */\n      mul\n        /* \"#utility.yul\":30609:30629   */\n      swap1\n      pop\n        /* \"#utility.yul\":30287:30635   */\n      swap3\n      swap2\n      pop\n      pop\n      jump\t// out\n        /* \"#utility.yul\":30641:30737   */\n    tag_398:\n        /* \"#utility.yul\":30678:30685   */\n      0x00\n        /* \"#utility.yul\":30707:30731   */\n      tag_634\n        /* \"#utility.yul\":30725:30730   */\n      dup3\n        /* \"#utility.yul\":30707:30731   */\n      tag_635\n      jump\t// in\n    tag_634:\n        /* \"#utility.yul\":30696:30731   */\n      swap1\n      pop\n        /* \"#utility.yul\":30641:30737   */\n      swap2\n      swap1\n      pop\n      jump\t// out\n        /* \"#utility.yul\":30743:30833   */\n    tag_419:\n        /* \"#utility.yul\":30777:30784   */\n      0x00\n        /* \"#utility.yul\":30820:30825   */\n      dup2\n        /* \"#utility.yul\":30813:30826   */\n      iszero\n        /* \"#utility.yul\":30806:30827   */\n      iszero\n        /* \"#utility.yul\":30795:30827   */\n      swap1\n      pop\n        /* \"#utility.yul\":30743:30833   */\n      swap2\n      swap1\n      pop\n      jump\t// out\n        /* \"#utility.yul\":30839:30916   */\n    tag_426:\n        /* \"#utility.yul\":30876:30883   */\n      0x00\n        /* \"#utility.yul\":30905:30910   */\n      dup2\n        /* \"#utility.yul\":30894:30910   */\n      swap1\n      pop\n        /* \"#utility.yul\":30839:30916   */\n      swap2\n      swap1\n      pop\n      jump\t// out\n        /* \"#utility.yul\":30922:31048   */\n    tag_635:\n        /* \"#utility.yul\":30959:30966   */\n      0x00\n        /* \"#utility.yul\":30999:31041   */\n      0xffffffffffffffffffffffffffffffffffffffff\n        /* \"#utility.yul\":30992:30997   */\n      dup3\n        /* \"#utility.yul\":30988:31042   */\n      and\n        /* \"#utility.yul\":30977:31042   */\n      swap1\n      pop\n        /* \"#utility.yul\":30922:31048   */\n      swap2\n      swap1\n      pop\n      jump\t// out\n        /* \"#utility.yul\":31054:31131   */\n    tag_532:\n        /* \"#utility.yul\":31091:31098   */\n      0x00\n        /* \"#utility.yul\":31120:31125   */\n      dup2\n        /* \"#utility.yul\":31109:31125   */\n      swap1\n      pop\n        /* \"#utility.yul\":31054:31131   */\n      swap2\n      swap1\n      pop\n      jump\t// out\n        /* \"#utility.yul\":31137:31223   */\n    tag_640:\n        /* \"#utility.yul\":31172:31179   */\n      0x00\n        /* \"#utility.yul\":31212:31216   */\n      0xff\n        /* \"#utility.yul\":31205:31210   */\n      dup3\n        /* \"#utility.yul\":31201:31217   */\n      and\n        /* \"#utility.yul\":31190:31217   */\n      swap1\n      pop\n        /* \"#utility.yul\":31137:31223   */\n      swap2\n      swap1\n      pop\n      jump\t// out\n        /* \"#utility.yul\":31229:31383   */\n    tag_308:\n        /* \"#utility.yul\":31313:31319   */\n      dup3\n        /* \"#utility.yul\":31308:31311   */\n      dup2\n        /* \"#utility.yul\":31303:31306   */\n      dup4\n        /* \"#utility.yul\":31290:31320   */\n      calldatacopy\n        /* \"#utility.yul\":31375:31376   */\n      0x00\n        /* \"#utility.yul\":31366:31372   */\n      dup4\n        /* \"#utility.yul\":31361:31364   */\n      dup4\n        /* \"#utility.yul\":31357:31373   */\n      add\n        /* \"#utility.yul\":31350:31377   */\n      mstore\n        /* \"#utility.yul\":31229:31383   */\n      pop\n      pop\n      pop\n      jump\t// out\n        /* \"#utility.yul\":31389:31696   */\n    tag_442:\n        /* \"#utility.yul\":31457:31458   */\n      0x00\n        /* \"#utility.yul\":31467:31580   */\n    tag_644:\n        /* \"#utility.yul\":31481:31487   */\n      dup4\n        /* \"#utility.yul\":31478:31479   */\n      dup2\n        /* \"#utility.yul\":31475:31488   */\n      lt\n        /* \"#utility.yul\":31467:31580   */\n      iszero\n      tag_646\n      jumpi\n        /* \"#utility.yul\":31566:31567   */\n      dup1\n        /* \"#utility.yul\":31561:31564   */\n      dup3\n        /* \"#utility.yul\":31557:31568   */\n      add\n        /* \"#utility.yul\":31551:31569   */\n      mload\n        /* \"#utility.yul\":31547:31548   */\n      dup2\n        /* \"#utility.yul\":31542:31545   */\n      dup5\n        /* \"#utility.yul\":31538:31549   */\n      add\n        /* \"#utility.yul\":31531:31570   */\n      mstore\n        /* \"#utility.yul\":31503:31505   */\n      0x20\n        /* \"#utility.yul\":31500:31501   */\n      dup2\n        /* \"#utility.yul\":31496:31506   */\n      add\n        /* \"#utility.yul\":31491:31506   */\n      swap1\n      pop\n        /* \"#utility.yul\":31467:31580   */\n      jump(tag_644)\n    tag_646:\n        /* \"#utility.yul\":31598:31604   */\n      dup4\n        /* \"#utility.yul\":31595:31596   */\n      dup2\n        /* \"#utility.yul\":31592:31605   */\n      gt\n        /* \"#utility.yul\":31589:31690   */\n      iszero\n      tag_647\n      jumpi\n        /* \"#utility.yul\":31678:31679   */\n      0x00\n        /* \"#utility.yul\":31669:31675   */\n      dup5\n        /* \"#utility.yul\":31664:31667   */\n      dup5\n        /* \"#utility.yul\":31660:31676   */\n      add\n        /* \"#utility.yul\":31653:31680   */\n      mstore\n        /* \"#utility.yul\":31589:31690   */\n    tag_647:\n        /* \"#utility.yul\":31438:31696   */\n      pop\n        /* \"#utility.yul\":31389:31696   */\n      pop\n      pop\n      pop\n      jump\t// out\n        /* \"#utility.yul\":31702:32022   */\n    tag_90:\n        /* \"#utility.yul\":31746:31752   */\n      0x00\n        /* \"#utility.yul\":31783:31784   */\n      0x02\n        /* \"#utility.yul\":31777:31781   */\n      dup3\n        /* \"#utility.yul\":31773:31785   */\n      div\n        /* \"#utility.yul\":31763:31785   */\n      swap1\n      pop\n        /* \"#utility.yul\":31830:31831   */\n      0x01\n        /* \"#utility.yul\":31824:31828   */\n      dup3\n        /* \"#utility.yul\":31820:31832   */\n      and\n        /* \"#utility.yul\":31851:31869   */\n      dup1\n        /* \"#utility.yul\":31841:31922   */\n      tag_649\n      jumpi\n        /* \"#utility.yul\":31907:31911   */\n      0x7f\n        /* \"#utility.yul\":31899:31905   */\n      dup3\n        /* \"#utility.yul\":31895:31912   */\n      and\n        /* \"#utility.yul\":31885:31912   */\n      swap2\n      pop\n        /* \"#utility.yul\":31841:31922   */\n    tag_649:\n        /* \"#utility.yul\":31969:31971   */\n      0x20\n        /* \"#utility.yul\":31961:31967   */\n      dup3\n        /* \"#utility.yul\":31958:31972   */\n      lt\n        /* \"#utility.yul\":31938:31956   */\n      dup2\n        /* \"#utility.yul\":31935:31973   */\n      eq\n        /* \"#utility.yul\":31932:32016   */\n      iszero\n      tag_650\n      jumpi\n        /* \"#utility.yul\":31988:32006   */\n      tag_651\n      tag_652\n      jump\t// in\n    tag_651:\n        /* \"#utility.yul\":31932:32016   */\n    tag_650:\n        /* \"#utility.yul\":31753:32022   */\n      pop\n        /* \"#utility.yul\":31702:32022   */\n      swap2\n      swap1\n      pop\n      jump\t// out\n        /* \"#utility.yul\":32028:32309   */\n    tag_601:\n        /* \"#utility.yul\":32111:32138   */\n      tag_654\n        /* \"#utility.yul\":32133:32137   */\n      dup3\n        /* \"#utility.yul\":32111:32138   */\n      tag_444\n      jump\t// in\n    tag_654:\n        /* \"#utility.yul\":32103:32109   */\n      dup2\n        /* \"#utility.yul\":32099:32139   */\n      add\n        /* \"#utility.yul\":32241:32247   */\n      dup2\n        /* \"#utility.yul\":32229:32239   */\n      dup2\n        /* \"#utility.yul\":32226:32248   */\n      lt\n        /* \"#utility.yul\":32205:32223   */\n      0xffffffffffffffff\n        /* \"#utility.yul\":32193:32203   */\n      dup3\n        /* \"#utility.yul\":32190:32224   */\n      gt\n        /* \"#utility.yul\":32187:32249   */\n      or\n        /* \"#utility.yul\":32184:32272   */\n      iszero\n      tag_655\n      jumpi\n        /* \"#utility.yul\":32252:32270   */\n      tag_656\n      tag_606\n      jump\t// in\n    tag_656:\n        /* \"#utility.yul\":32184:32272   */\n    tag_655:\n        /* \"#utility.yul\":32292:32302   */\n      dup1\n        /* \"#utility.yul\":32288:32290   */\n      0x40\n        /* \"#utility.yul\":32281:32303   */\n      mstore\n        /* \"#utility.yul\":32071:32309   */\n      pop\n        /* \"#utility.yul\":32028:32309   */\n      pop\n      pop\n      jump\t// out\n        /* \"#utility.yul\":32315:32482   */\n    tag_255:\n        /* \"#utility.yul\":32352:32355   */\n      0x00\n        /* \"#utility.yul\":32375:32397   */\n      tag_658\n        /* \"#utility.yul\":32391:32396   */\n      dup3\n        /* \"#utility.yul\":32375:32397   */\n      tag_640\n      jump\t// in\n    tag_658:\n        /* \"#utility.yul\":32366:32397   */\n      swap2\n      pop\n        /* \"#utility.yul\":32419:32423   */\n      0xff\n        /* \"#utility.yul\":32412:32417   */\n      dup3\n        /* \"#utility.yul\":32409:32424   */\n      eq\n        /* \"#utility.yul\":32406:32447   */\n      iszero\n      tag_659\n      jumpi\n        /* \"#utility.yul\":32427:32445   */\n      tag_660\n      tag_621\n      jump\t// in\n    tag_660:\n        /* \"#utility.yul\":32406:32447   */\n    tag_659:\n        /* \"#utility.yul\":32474:32475   */\n      0x01\n        /* \"#utility.yul\":32467:32472   */\n      dup3\n        /* \"#utility.yul\":32463:32476   */\n      add\n        /* \"#utility.yul\":32456:32476   */\n      swap1\n      pop\n        /* \"#utility.yul\":32315:32482   */\n      swap2\n      swap1\n      pop\n      jump\t// out\n        /* \"#utility.yul\":32488:32668   */\n    tag_621:\n        /* \"#utility.yul\":32536:32613   */\n      0x4e487b7100000000000000000000000000000000000000000000000000000000\n        /* \"#utility.yul\":32533:32534   */\n      0x00\n        /* \"#utility.yul\":32526:32614   */\n      mstore\n        /* \"#utility.yul\":32633:32637   */\n      0x11\n        /* \"#utility.yul\":32630:32631   */\n      0x04\n        /* \"#utility.yul\":32623:32638   */\n      mstore\n        /* \"#utility.yul\":32657:32661   */\n      0x24\n        /* \"#utility.yul\":32654:32655   */\n      0x00\n        /* \"#utility.yul\":32647:32662   */\n      revert\n        /* \"#utility.yul\":32674:32854   */\n    tag_627:\n        /* \"#utility.yul\":32722:32799   */\n      0x4e487b7100000000000000000000000000000000000000000000000000000000\n        /* \"#utility.yul\":32719:32720   */\n      0x00\n        /* \"#utility.yul\":32712:32800   */\n      mstore\n        /* \"#utility.yul\":32819:32823   */\n      0x12\n        /* \"#utility.yul\":32816:32817   */\n      0x04\n        /* \"#utility.yul\":32809:32824   */\n      mstore\n        /* \"#utility.yul\":32843:32847   */\n      0x24\n        /* \"#utility.yul\":32840:32841   */\n      0x00\n        /* \"#utility.yul\":32833:32848   */\n      revert\n        /* \"#utility.yul\":32860:33040   */\n    tag_652:\n        /* \"#utility.yul\":32908:32985   */\n      0x4e487b7100000000000000000000000000000000000000000000000000000000\n        /* \"#utility.yul\":32905:32906   */\n      0x00\n        /* \"#utility.yul\":32898:32986   */\n      mstore\n        /* \"#utility.yul\":33005:33009   */\n      0x22\n        /* \"#utility.yul\":33002:33003   */\n      0x04\n        /* \"#utility.yul\":32995:33010   */\n      mstore\n        /* \"#utility.yul\":33029:33033   */\n      0x24\n        /* \"#utility.yul\":33026:33027   */\n      0x00\n        /* \"#utility.yul\":33019:33034   */\n      revert\n        /* \"#utility.yul\":33046:33226   */\n    tag_244:\n        /* \"#utility.yul\":33094:33171   */\n      0x4e487b7100000000000000000000000000000000000000000000000000000000\n        /* \"#utility.yul\":33091:33092   */\n      0x00\n        /* \"#utility.yul\":33084:33172   */\n      mstore\n        /* \"#utility.yul\":33191:33195   */\n      0x32\n        /* \"#utility.yul\":33188:33189   */\n      0x04\n        /* \"#utility.yul\":33181:33196   */\n      mstore\n        /* \"#utility.yul\":33215:33219   */\n      0x24\n        /* \"#utility.yul\":33212:33213   */\n      0x00\n        /* \"#utility.yul\":33205:33220   */\n      revert\n        /* \"#utility.yul\":33232:33412   */\n    tag_606:\n        /* \"#utility.yul\":33280:33357   */\n      0x4e487b7100000000000000000000000000000000000000000000000000000000\n        /* \"#utility.yul\":33277:33278   */\n      0x00\n        /* \"#utility.yul\":33270:33358   */\n      mstore\n        /* \"#utility.yul\":33377:33381   */\n      0x41\n        /* \"#utility.yul\":33374:33375   */\n      0x04\n        /* \"#utility.yul\":33367:33382   */\n      mstore\n        /* \"#utility.yul\":33401:33405   */\n      0x24\n        /* \"#utility.yul\":33398:33399   */\n      0x00\n        /* \"#utility.yul\":33391:33406   */\n      revert\n        /* \"#utility.yul\":33418:33535   */\n    tag_320:\n        /* \"#utility.yul\":33527:33528   */\n      0x00\n        /* \"#utility.yul\":33524:33525   */\n      dup1\n        /* \"#utility.yul\":33517:33529   */\n      revert\n        /* \"#utility.yul\":33541:33658   */\n    tag_317:\n        /* \"#utility.yul\":33650:33651   */\n      0x00\n        /* \"#utility.yul\":33647:33648   */\n      dup1\n        /* \"#utility.yul\":33640:33652   */\n      revert\n        /* \"#utility.yul\":33664:33781   */\n    tag_323:\n        /* \"#utility.yul\":33773:33774   */\n      0x00\n        /* \"#utility.yul\":33770:33771   */\n      dup1\n        /* \"#utility.yul\":33763:33775   */\n      revert\n        /* \"#utility.yul\":33787:33904   */\n    tag_306:\n        /* \"#utility.yul\":33896:33897   */\n      0x00\n        /* \"#utility.yul\":33893:33894   */\n      dup1\n        /* \"#utility.yul\":33886:33898   */\n      revert\n        /* \"#utility.yul\":33910:34027   */\n    tag_340:\n        /* \"#utility.yul\":34019:34020   */\n      0x00\n        /* \"#utility.yul\":34016:34017   */\n      dup1\n        /* \"#utility.yul\":34009:34021   */\n      revert\n        /* \"#utility.yul\":34033:34150   */\n    tag_336:\n        /* \"#utility.yul\":34142:34143   */\n      0x00\n        /* \"#utility.yul\":34139:34140   */\n      dup1\n        /* \"#utility.yul\":34132:34144   */\n      revert\n        /* \"#utility.yul\":34156:34258   */\n    tag_444:\n        /* \"#utility.yul\":34197:34203   */\n      0x00\n        /* \"#utility.yul\":34248:34250   */\n      0x1f\n        /* \"#utility.yul\":34244:34251   */\n      not\n        /* \"#utility.yul\":34239:34241   */\n      0x1f\n        /* \"#utility.yul\":34232:34237   */\n      dup4\n        /* \"#utility.yul\":34228:34242   */\n      add\n        /* \"#utility.yul\":34224:34252   */\n      and\n        /* \"#utility.yul\":34214:34252   */\n      swap1\n      pop\n        /* \"#utility.yul\":34156:34258   */\n      swap2\n      swap1\n      pop\n      jump\t// out\n        /* \"#utility.yul\":34264:34445   */\n    tag_461:\n        /* \"#utility.yul\":34404:34437   */\n      0x526563697069656e7420697320616c7265616479207265676973746572656400\n        /* \"#utility.yul\":34400:34401   */\n      0x00\n        /* \"#utility.yul\":34392:34398   */\n      dup3\n        /* \"#utility.yul\":34388:34402   */\n      add\n        /* \"#utility.yul\":34381:34438   */\n      mstore\n        /* \"#utility.yul\":34264:34445   */\n      pop\n      jump\t// out\n        /* \"#utility.yul\":34451:34626   */\n    tag_466:\n        /* \"#utility.yul\":34591:34618   */\n      0x50726f706f73616c20616c726561647920637265617465642100000000000000\n        /* \"#utility.yul\":34587:34588   */\n      0x00\n        /* \"#utility.yul\":34579:34585   */\n      dup3\n        /* \"#utility.yul\":34575:34589   */\n      add\n        /* \"#utility.yul\":34568:34619   */\n      mstore\n        /* \"#utility.yul\":34451:34626   */\n      pop\n      jump\t// out\n        /* \"#utility.yul\":34632:34857   */\n    tag_471:\n        /* \"#utility.yul\":34772:34806   */\n      0x596f75206172656e277420617574686f72697a6520746f20636f6d70696c6520\n        /* \"#utility.yul\":34768:34769   */\n      0x00\n        /* \"#utility.yul\":34760:34766   */\n      dup3\n        /* \"#utility.yul\":34756:34770   */\n      add\n        /* \"#utility.yul\":34749:34807   */\n      mstore\n        /* \"#utility.yul\":34841:34849   */\n      0x42756e646c650000000000000000000000000000000000000000000000000000\n        /* \"#utility.yul\":34836:34838   */\n      0x20\n        /* \"#utility.yul\":34828:34834   */\n      dup3\n        /* \"#utility.yul\":34824:34839   */\n      add\n        /* \"#utility.yul\":34817:34850   */\n      mstore\n        /* \"#utility.yul\":34632:34857   */\n      pop\n      jump\t// out\n        /* \"#utility.yul\":34863:35041   */\n    tag_476:\n        /* \"#utility.yul\":35003:35033   */\n      0x596f7520616c72656164792073656e74206120726573706f6e73652e00000000\n        /* \"#utility.yul\":34999:35000   */\n      0x00\n        /* \"#utility.yul\":34991:34997   */\n      dup3\n        /* \"#utility.yul\":34987:35001   */\n      add\n        /* \"#utility.yul\":34980:35034   */\n      mstore\n        /* \"#utility.yul\":34863:35041   */\n      pop\n      jump\t// out\n        /* \"#utility.yul\":35047:35218   */\n    tag_481:\n        /* \"#utility.yul\":35187:35210   */\n      0x496e69746961746f722063616e277420766f7465210000000000000000000000\n        /* \"#utility.yul\":35183:35184   */\n      0x00\n        /* \"#utility.yul\":35175:35181   */\n      dup3\n        /* \"#utility.yul\":35171:35185   */\n      add\n        /* \"#utility.yul\":35164:35211   */\n      mstore\n        /* \"#utility.yul\":35047:35218   */\n      pop\n      jump\t// out\n        /* \"#utility.yul\":35224:35404   */\n    tag_486:\n        /* \"#utility.yul\":35364:35396   */\n      0x596f7520617265206e6f74207265676973746572656420746f20766f74650000\n        /* \"#utility.yul\":35360:35361   */\n      0x00\n        /* \"#utility.yul\":35352:35358   */\n      dup3\n        /* \"#utility.yul\":35348:35362   */\n      add\n        /* \"#utility.yul\":35341:35397   */\n      mstore\n        /* \"#utility.yul\":35224:35404   */\n      pop\n      jump\t// out\n        /* \"#utility.yul\":35410:35633   */\n    tag_491:\n        /* \"#utility.yul\":35550:35584   */\n      0x50726f706f73616c206861732072656163686564206974732065787069727920\n        /* \"#utility.yul\":35546:35547   */\n      0x00\n        /* \"#utility.yul\":35538:35544   */\n      dup3\n        /* \"#utility.yul\":35534:35548   */\n      add\n        /* \"#utility.yul\":35527:35585   */\n      mstore\n        /* \"#utility.yul\":35619:35625   */\n      0x6461746500000000000000000000000000000000000000000000000000000000\n        /* \"#utility.yul\":35614:35616   */\n      0x20\n        /* \"#utility.yul\":35606:35612   */\n      dup3\n        /* \"#utility.yul\":35602:35617   */\n      add\n        /* \"#utility.yul\":35595:35626   */\n      mstore\n        /* \"#utility.yul\":35410:35633   */\n      pop\n      jump\t// out\n        /* \"#utility.yul\":35639:35866   */\n    tag_496:\n        /* \"#utility.yul\":35779:35813   */\n      0x4f6e6c7920696e69746961746f722063616e2072656769737465722061207265\n        /* \"#utility.yul\":35775:35776   */\n      0x00\n        /* \"#utility.yul\":35767:35773   */\n      dup3\n        /* \"#utility.yul\":35763:35777   */\n      add\n        /* \"#utility.yul\":35756:35814   */\n      mstore\n        /* \"#utility.yul\":35848:35858   */\n      0x63697069656e742e000000000000000000000000000000000000000000000000\n        /* \"#utility.yul\":35843:35845   */\n      0x20\n        /* \"#utility.yul\":35835:35841   */\n      dup3\n        /* \"#utility.yul\":35831:35846   */\n      add\n        /* \"#utility.yul\":35824:35859   */\n      mstore\n        /* \"#utility.yul\":35639:35866   */\n      pop\n      jump\t// out\n        /* \"#utility.yul\":35872:36054   */\n    tag_501:\n        /* \"#utility.yul\":36012:36046   */\n      0x5665726469637420686173206e6f74206265656e207265616368656420796574\n        /* \"#utility.yul\":36008:36009   */\n      0x00\n        /* \"#utility.yul\":36000:36006   */\n      dup3\n        /* \"#utility.yul\":35996:36010   */\n      add\n        /* \"#utility.yul\":35989:36047   */\n      mstore\n        /* \"#utility.yul\":35872:36054   */\n      pop\n      jump\t// out\n        /* \"#utility.yul\":36060:36228   */\n    tag_506:\n        /* \"#utility.yul\":36200:36220   */\n      0x566f74696e672068617320657870697265640000000000000000000000000000\n        /* \"#utility.yul\":36196:36197   */\n      0x00\n        /* \"#utility.yul\":36188:36194   */\n      dup3\n        /* \"#utility.yul\":36184:36198   */\n      add\n        /* \"#utility.yul\":36177:36221   */\n      mstore\n        /* \"#utility.yul\":36060:36228   */\n      pop\n      jump\t// out\n        /* \"#utility.yul\":36234:36458   */\n    tag_511:\n        /* \"#utility.yul\":36374:36408   */\n      0x436f6e73656e7375732068617320616c7265616479206265656e2063616c6375\n        /* \"#utility.yul\":36370:36371   */\n      0x00\n        /* \"#utility.yul\":36362:36368   */\n      dup3\n        /* \"#utility.yul\":36358:36372   */\n      add\n        /* \"#utility.yul\":36351:36409   */\n      mstore\n        /* \"#utility.yul\":36443:36450   */\n      0x6c61746564000000000000000000000000000000000000000000000000000000\n        /* \"#utility.yul\":36438:36440   */\n      0x20\n        /* \"#utility.yul\":36430:36436   */\n      dup3\n        /* \"#utility.yul\":36426:36441   */\n      add\n        /* \"#utility.yul\":36419:36451   */\n      mstore\n        /* \"#utility.yul\":36234:36458   */\n      pop\n      jump\t// out\n        /* \"#utility.yul\":36464:36586   */\n    tag_312:\n        /* \"#utility.yul\":36537:36561   */\n      tag_685\n        /* \"#utility.yul\":36555:36560   */\n      dup2\n        /* \"#utility.yul\":36537:36561   */\n      tag_398\n      jump\t// in\n    tag_685:\n        /* \"#utility.yul\":36530:36535   */\n      dup2\n        /* \"#utility.yul\":36527:36562   */\n      eq\n        /* \"#utility.yul\":36517:36580   */\n      tag_686\n      jumpi\n        /* \"#utility.yul\":36576:36577   */\n      0x00\n        /* \"#utility.yul\":36573:36574   */\n      dup1\n        /* \"#utility.yul\":36566:36578   */\n      revert\n        /* \"#utility.yul\":36517:36580   */\n    tag_686:\n        /* \"#utility.yul\":36464:36586   */\n      pop\n      jump\t// out\n        /* \"#utility.yul\":36592:36714   */\n    tag_332:\n        /* \"#utility.yul\":36665:36689   */\n      tag_688\n        /* \"#utility.yul\":36683:36688   */\n      dup2\n        /* \"#utility.yul\":36665:36689   */\n      tag_532\n      jump\t// in\n    tag_688:\n        /* \"#utility.yul\":36658:36663   */\n      dup2\n        /* \"#utility.yul\":36655:36690   */\n      eq\n        /* \"#utility.yul\":36645:36708   */\n      tag_689\n      jumpi\n        /* \"#utility.yul\":36704:36705   */\n      0x00\n        /* \"#utility.yul\":36701:36702   */\n      dup1\n        /* \"#utility.yul\":36694:36706   */\n      revert\n        /* \"#utility.yul\":36645:36708   */\n    tag_689:\n        /* \"#utility.yul\":36592:36714   */\n      pop\n      jump\t// out\n\n    auxdata: 0xa2646970667358221220405284ba9e16c2c7c6716026300860f18b4c92ce544277b4288f7c26ff38a4d664736f6c63430008070033\n}\n",
				"bytecode": {
					"linkReferences": {},
					"object": "608060405234801561001057600080fd5b50613cc1806100206000396000f3fe608060405234801561001057600080fd5b50600436106100ea5760003560e01c80635a0a13901161008c5780638f6a35b7116100665780638f6a35b714610294578063c99ba896146102c6578063c9bc42ed146102f6578063ec54868014610326576100ea565b80635a0a1390146102125780637b735c4614610246578063883a967314610278576100ea565b806317072d6b116100c857806317072d6b1461017557806333a0b0ab1461019157806337f2e190146101c35780633d63af0e146101f6576100ea565b806306699b01146100ef578063089a4c601461011f5780630952ed7514610159575b600080fd5b61010960048036038101906101049190612cc3565b610356565b6040516101169190613294565b60405180910390f35b61013960048036038101906101349190612ba2565b6103ba565b6040516101509b9a99989796959493929190613376565b60405180910390f35b610173600480360381019061016e9190612d1f565b61060f565b005b61018f600480360381019061018a9190612c47565b610a2b565b005b6101ab60048036038101906101a69190612beb565b6113d0565b6040516101ba939291906132ca565b60405180910390f35b6101dd60048036038101906101d89190612b55565b611457565b6040516101ed9493929190613301565b60405180910390f35b610210600480360381019061020b9190612af5565b6116dd565b005b61022c60048036038101906102279190612b55565b611b3e565b60405161023d959493929190613436565b60405180910390f35b610260600480360381019061025b9190612af5565b611cb9565b60405161026f939291906132ca565b60405180910390f35b610292600480360381019061028d9190612b55565b611e2a565b005b6102ae60048036038101906102a99190612cc3565b612469565b6040516102bd939291906132ca565b60405180910390f35b6102e060048036038101906102db9190612b55565b6124fc565b6040516102ed9190613354565b60405180910390f35b610310600480360381019061030b9190612b55565b6125b2565b60405161031d91906135f0565b60405180910390f35b610340600480360381019061033b9190612b55565b61289d565b60405161034d91906132af565b60405180910390f35b600382805160208101820180518482526020830160208501208183528095505050505050818154811061038857600080fd5b906000526020600020016000915091509054906101000a900473ffffffffffffffffffffffffffffffffffffffff1681565b6000818051602081018201805184825260208301602085012081835280955050505050506000915090508060000180546103f39061385b565b80601f016020809104026020016040519081016040528092919081815260200182805461041f9061385b565b801561046c5780601f106104415761010080835404028352916020019161046c565b820191906000526020600020905b81548152906001019060200180831161044f57829003601f168201915b5050505050908060010160009054906101000a900473ffffffffffffffffffffffffffffffffffffffff16908060020160009054906101000a900473ffffffffffffffffffffffffffffffffffffffff16908060030154908060040154908060050154908060060154908060070160009054906101000a900460ff16908060080154908060090180546104fe9061385b565b80601f016020809104026020016040519081016040528092919081815260200182805461052a9061385b565b80156105775780601f1061054c57610100808354040283529160200191610577565b820191906000526020600020905b81548152906001019060200180831161055a57829003601f168201915b50505050509080600a01805461058c9061385b565b80601f01602080910402602001604051908101604052809291908181526020018280546105b89061385b565b80156106055780601f106105da57610100808354040283529160200191610605565b820191906000526020600020905b8154815290600101906020018083116105e857829003601f168201915b505050505090508b565b600073ffffffffffffffffffffffffffffffffffffffff16600086604051610637919061327d565b908152602001604051809103902060010160009054906101000a900473ffffffffffffffffffffffffffffffffffffffff1673ffffffffffffffffffffffffffffffffffffffff16146106bf576040517f08c379a00000000000000000000000000000000000000000000000000000000081526004016106b6906134b0565b60405180910390fd5b60006040518061016001604052808781526020013373ffffffffffffffffffffffffffffffffffffffff1681526020013073ffffffffffffffffffffffffffffffffffffffff16815260200160008152602001864261071e91906136d9565b8152602001858152602001600081526020016000151581526020017f52656a656374656400000000000000000000000000000000000000000000000081526020018381526020018481525090508060008760405161077c919061327d565b908152602001604051809103902060008201518160000190805190602001906107a69291906128d7565b5060208201518160010160006101000a81548173ffffffffffffffffffffffffffffffffffffffff021916908373ffffffffffffffffffffffffffffffffffffffff16021790555060408201518160020160006101000a81548173ffffffffffffffffffffffffffffffffffffffff021916908373ffffffffffffffffffffffffffffffffffffffff160217905550606082015181600301556080820151816004015560a0820151816005015560c0820151816006015560e08201518160070160006101000a81548160ff02191690831515021790555061010082015181600801556101208201518160090190805190602001906108a59291906128d7565b5061014082015181600a0190805190602001906108c39291906128d7565b50905050806000836040516108d8919061327d565b908152602001604051809103902060008201518160000190805190602001906109029291906128d7565b5060208201518160010160006101000a81548173ffffffffffffffffffffffffffffffffffffffff021916908373ffffffffffffffffffffffffffffffffffffffff16021790555060408201518160020160006101000a81548173ffffffffffffffffffffffffffffffffffffffff021916908373ffffffffffffffffffffffffffffffffffffffff160217905550606082015181600301556080820151816004015560a0820151816005015560c0820151816006015560e08201518160070160006101000a81548160ff0219169083151502179055506101008201518160080155610120820151816009019080519060200190610a019291906128d7565b5061014082015181600a019080519060200190610a1f9291906128d7565b50905050505050505050565b60008282604051610a3d929190613264565b9081526020016040518091039020600401544210610a90576040517f08c379a0000000000000000000000000000000000000000000000000000000008152600401610a87906135b0565b60405180910390fd5b600073ffffffffffffffffffffffffffffffffffffffff1660018383604051610aba929190613264565b908152602001604051809103902060003373ffffffffffffffffffffffffffffffffffffffff1673ffffffffffffffffffffffffffffffffffffffff16815260200190815260200160002060000160029054906101000a900473ffffffffffffffffffffffffffffffffffffffff1673ffffffffffffffffffffffffffffffffffffffff161415610b80576040517f08c379a0000000000000000000000000000000000000000000000000000000008152600401610b7790613530565b60405180910390fd5b60018282604051610b92929190613264565b908152602001604051809103902060003373ffffffffffffffffffffffffffffffffffffffff1673ffffffffffffffffffffffffffffffffffffffff16815260200190815260200160002060000160009054906101000a900460ff1615610c2e576040517f08c379a0000000000000000000000000000000000000000000000000000000008152600401610c25906134f0565b60405180910390fd5b6040518060400160405280600981526020017f6920617070726f766500000000000000000000000000000000000000000000008152508051906020012083805190602001201415610f49576001808383604051610c8c929190613264565b908152602001604051809103902060003373ffffffffffffffffffffffffffffffffffffffff1673ffffffffffffffffffffffffffffffffffffffff16815260200190815260200160002060000160006101000a81548160ff0219169083151502179055506001808383604051610d04929190613264565b908152602001604051809103902060003373ffffffffffffffffffffffffffffffffffffffff1673ffffffffffffffffffffffffffffffffffffffff16815260200190815260200160002060000160016101000a81548160ff021916908315150217905550600160008383604051610d7d929190613264565b90815260200160405180910390206006016000828254610d9d91906136d9565b92505081905550600160008383604051610db8929190613264565b90815260200160405180910390206003016000828254610dd891906136d9565b9250508190555060028282604051610df1929190613264565b908152602001604051809103902060018383604051610e11929190613264565b908152602001604051809103902060003373ffffffffffffffffffffffffffffffffffffffff1673ffffffffffffffffffffffffffffffffffffffff168152602001908152602001600020908060018154018082558091505060019003906000526020600020016000909190919091506000820160009054906101000a900460ff168160000160006101000a81548160ff0219169083151502179055506000820160019054906101000a900460ff168160000160016101000a81548160ff0219169083151502179055506000820160029054906101000a900473ffffffffffffffffffffffffffffffffffffffff168160000160026101000a81548173ffffffffffffffffffffffffffffffffffffffff021916908373ffffffffffffffffffffffffffffffffffffffff16021790555050506113cb565b6040518060400160405280600c81526020017f6920646973617070726f7665000000000000000000000000000000000000000081525080519060200120838051906020012014156111b1576001808383604051610fa7929190613264565b908152602001604051809103902060003373ffffffffffffffffffffffffffffffffffffffff1673ffffffffffffffffffffffffffffffffffffffff16815260200190815260200160002060000160006101000a81548160ff021916908315150217905550600160008383604051611020929190613264565b9081526020016040518091039020600301600082825461104091906136d9565b9250508190555060028282604051611059929190613264565b908152602001604051809103902060018383604051611079929190613264565b908152602001604051809103902060003373ffffffffffffffffffffffffffffffffffffffff1673ffffffffffffffffffffffffffffffffffffffff168152602001908152602001600020908060018154018082558091505060019003906000526020600020016000909190919091506000820160009054906101000a900460ff168160000160006101000a81548160ff0219169083151502179055506000820160019054906101000a900460ff168160000160016101000a81548160ff0219169083151502179055506000820160029054906101000a900473ffffffffffffffffffffffffffffffffffffffff168160000160026101000a81548173ffffffffffffffffffffffffffffffffffffffff021916908373ffffffffffffffffffffffffffffffffffffffff16021790555050506113ca565b60018083836040516111c4929190613264565b908152602001604051809103902060003373ffffffffffffffffffffffffffffffffffffffff1673ffffffffffffffffffffffffffffffffffffffff16815260200190815260200160002060000160006101000a81548160ff02191690831515021790555060016000838360405161123d929190613264565b9081526020016040518091039020600301600082825461125d91906136d9565b9250508190555060028282604051611276929190613264565b908152602001604051809103902060018383604051611296929190613264565b908152602001604051809103902060003373ffffffffffffffffffffffffffffffffffffffff1673ffffffffffffffffffffffffffffffffffffffff168152602001908152602001600020908060018154018082558091505060019003906000526020600020016000909190919091506000820160009054906101000a900460ff168160000160006101000a81548160ff0219169083151502179055506000820160019054906101000a900460ff168160000160016101000a81548160ff0219169083151502179055506000820160029054906101000a900473ffffffffffffffffffffffffffffffffffffffff168160000160026101000a81548173ffffffffffffffffffffffffffffffffffffffff021916908373ffffffffffffffffffffffffffffffffffffffff16021790555050505b5b505050565b600182805160208101820180518482526020830160208501208183528095505050505050602052806000526040600020600091509150508060000160009054906101000a900460ff16908060000160019054906101000a900460ff16908060000160029054906101000a900473ffffffffffffffffffffffffffffffffffffffff16905083565b600060606000606060008686604051611471929190613264565b9081526020016040518091039020600401544210156114c5576040517f08c379a00000000000000000000000000000000000000000000000000000000081526004016114bc90613590565b60405180910390fd5b6000600287876040516114d9929190613264565b9081526020016040518091039020805480602002602001604051908101604052809291908181526020016000905b828210156115c1578382906000526020600020016040518060600160405290816000820160009054906101000a900460ff161515151581526020016000820160019054906101000a900460ff161515151581526020016000820160029054906101000a900473ffffffffffffffffffffffffffffffffffffffff1673ffffffffffffffffffffffffffffffffffffffff1673ffffffffffffffffffffffffffffffffffffffff168152505081526020019060010190611507565b50505050905060008088886040516115da929190613264565b908152602001604051809103902060000180546115f69061385b565b80601f01602080910402602001604051908101604052809291908181526020018280546116229061385b565b801561166f5780601f106116445761010080835404028352916020019161166f565b820191906000526020600020905b81548152906001019060200180831161165257829003601f168201915b505050505090506000808989604051611689929190613264565b90815260200160405180910390206008015490506000808a8a6040516116b0929190613264565b90815260200160405180910390206003015490508183828697509750975097505050505092959194509250565b600082826040516116ef929190613264565b908152602001604051809103902060010160009054906101000a900473ffffffffffffffffffffffffffffffffffffffff1673ffffffffffffffffffffffffffffffffffffffff163373ffffffffffffffffffffffffffffffffffffffff161461178e576040517f08c379a000000000000000000000000000000000000000000000000000000000815260040161178590613570565b60405180910390fd5b600082826040516117a0929190613264565b908152602001604051809103902060010160009054906101000a900473ffffffffffffffffffffffffffffffffffffffff1673ffffffffffffffffffffffffffffffffffffffff168373ffffffffffffffffffffffffffffffffffffffff161415611840576040517f08c379a000000000000000000000000000000000000000000000000000000000815260040161183790613510565b60405180910390fd5b600073ffffffffffffffffffffffffffffffffffffffff166001838360405161186a929190613264565b908152602001604051809103902060008573ffffffffffffffffffffffffffffffffffffffff1673ffffffffffffffffffffffffffffffffffffffff16815260200190815260200160002060000160029054906101000a900473ffffffffffffffffffffffffffffffffffffffff1673ffffffffffffffffffffffffffffffffffffffff161461192f576040517f08c379a000000000000000000000000000000000000000000000000000000000815260040161192690613490565b60405180910390fd5b60008282604051611941929190613264565b9081526020016040518091039020600401544210611994576040517f08c379a000000000000000000000000000000000000000000000000000000000815260040161198b90613550565b60405180910390fd5b600060405180606001604052806000151581526020016000151581526020018573ffffffffffffffffffffffffffffffffffffffff16815250905080600184846040516119e2929190613264565b908152602001604051809103902060008673ffffffffffffffffffffffffffffffffffffffff1673ffffffffffffffffffffffffffffffffffffffff16815260200190815260200160002060008201518160000160006101000a81548160ff02191690831515021790555060208201518160000160016101000a81548160ff02191690831515021790555060408201518160000160026101000a81548173ffffffffffffffffffffffffffffffffffffffff021916908373ffffffffffffffffffffffffffffffffffffffff16021790555090505060038383604051611ac9929190613264565b9081526020016040518091039020849080600181540180825580915050600190039060005260206000200160009091909190916101000a81548173ffffffffffffffffffffffffffffffffffffffff021916908373ffffffffffffffffffffffffffffffffffffffff16021790555050505050565b606060008060008060008787604051611b58929190613264565b908152602001604051809103902060000160008888604051611b7b929190613264565b90815260200160405180910390206004015460008989604051611b9f929190613264565b908152602001604051809103902060010160009054906101000a900473ffffffffffffffffffffffffffffffffffffffff1660008a8a604051611be3929190613264565b90815260200160405180910390206005015460008b8b604051611c07929190613264565b908152602001604051809103902060060154848054611c259061385b565b80601f0160208091040260200160405190810160405280929190818152602001828054611c519061385b565b8015611c9e5780601f10611c7357610100808354040283529160200191611c9e565b820191906000526020600020905b815481529060010190602001808311611c8157829003601f168201915b50505050509450945094509450945094509295509295909350565b600080600060018585604051611cd0929190613264565b908152602001604051809103902060008773ffffffffffffffffffffffffffffffffffffffff1673ffffffffffffffffffffffffffffffffffffffff16815260200190815260200160002060000160019054906101000a900460ff1660018686604051611d3e929190613264565b908152602001604051809103902060008873ffffffffffffffffffffffffffffffffffffffff1673ffffffffffffffffffffffffffffffffffffffff16815260200190815260200160002060000160009054906101000a900460ff1660018787604051611dac929190613264565b908152602001604051809103902060008973ffffffffffffffffffffffffffffffffffffffff1673ffffffffffffffffffffffffffffffffffffffff16815260200190815260200160002060000160029054906101000a900473ffffffffffffffffffffffffffffffffffffffff1692509250925093509350939050565b60008282604051611e3c929190613264565b908152602001604051809103902060040154421015611e90576040517f08c379a0000000000000000000000000000000000000000000000000000000008152600401611e8790613590565b60405180910390fd5b6000151560008383604051611ea6929190613264565b908152602001604051809103902060070160009054906101000a900460ff16151514611f07576040517f08c379a0000000000000000000000000000000000000000000000000000000008152600401611efe906135d0565b60405180910390fd5b60008282604051611f19929190613264565b908152602001604051809103902060010160009054906101000a900473ffffffffffffffffffffffffffffffffffffffff1673ffffffffffffffffffffffffffffffffffffffff163373ffffffffffffffffffffffffffffffffffffffff1614806120315750600073ffffffffffffffffffffffffffffffffffffffff1660018383604051611fa9929190613264565b908152602001604051809103902060003373ffffffffffffffffffffffffffffffffffffffff1673ffffffffffffffffffffffffffffffffffffffff16815260200190815260200160002060000160029054906101000a900473ffffffffffffffffffffffffffffffffffffffff1673ffffffffffffffffffffffffffffffffffffffff1614155b612070576040517f08c379a0000000000000000000000000000000000000000000000000000000008152600401612067906134d0565b60405180910390fd5b6000606460038484604051612086929190613264565b908152602001604051809103902080549050600085856040516120aa929190613264565b9081526020016040518091039020600601546120c6919061372f565b6120d09190613760565b9050600083836040516120e4929190613264565b9081526020016040518091039020600501548110612145577f41636365707465640000000000000000000000000000000000000000000000006000848460405161212f929190613264565b9081526020016040518091039020600801819055505b60005b6003848460405161215a929190613264565b9081526020016040518091039020805490508160ff16101561242757600015156001858560405161218c929190613264565b90815260200160405180910390206000600387876040516121ae929190613264565b90815260200160405180910390208460ff16815481106121d1576121d0613975565b5b9060005260206000200160009054906101000a900473ffffffffffffffffffffffffffffffffffffffff1673ffffffffffffffffffffffffffffffffffffffff1673ffffffffffffffffffffffffffffffffffffffff16815260200190815260200160002060000160009054906101000a900460ff16151514156124145760028484604051612261929190613264565b908152602001604051809103902060018585604051612281929190613264565b90815260200160405180910390206000600387876040516122a3929190613264565b90815260200160405180910390208460ff16815481106122c6576122c5613975565b5b9060005260206000200160009054906101000a900473ffffffffffffffffffffffffffffffffffffffff1673ffffffffffffffffffffffffffffffffffffffff1673ffffffffffffffffffffffffffffffffffffffff168152602001908152602001600020908060018154018082558091505060019003906000526020600020016000909190919091506000820160009054906101000a900460ff168160000160006101000a81548160ff0219169083151502179055506000820160019054906101000a900460ff168160000160016101000a81548160ff0219169083151502179055506000820160029054906101000a900473ffffffffffffffffffffffffffffffffffffffff168160000160026101000a81548173ffffffffffffffffffffffffffffffffffffffff021916908373ffffffffffffffffffffffffffffffffffffffff16021790555050505b808061241f906138be565b915050612148565b5060016000848460405161243c929190613264565b908152602001604051809103902060070160006101000a81548160ff021916908315150217905550505050565b600282805160208101820180518482526020830160208501208183528095505050505050818154811061249b57600080fd5b90600052602060002001600091509150508060000160009054906101000a900460ff16908060000160019054906101000a900460ff16908060000160029054906101000a900473ffffffffffffffffffffffffffffffffffffffff16905083565b606060008383604051612510929190613264565b9081526020016040518091039020600001805461252c9061385b565b80601f01602080910402602001604051908101604052809291908181526020018280546125589061385b565b80156125a55780601f1061257a576101008083540402835291602001916125a5565b820191906000526020600020905b81548152906001019060200180831161258857829003601f168201915b5050505050905092915050565b6125ba61295d565b600083836040516125cc929190613264565b9081526020016040518091039020604051806101600160405290816000820180546125f69061385b565b80601f01602080910402602001604051908101604052809291908181526020018280546126229061385b565b801561266f5780601f106126445761010080835404028352916020019161266f565b820191906000526020600020905b81548152906001019060200180831161265257829003601f168201915b505050505081526020016001820160009054906101000a900473ffffffffffffffffffffffffffffffffffffffff1673ffffffffffffffffffffffffffffffffffffffff1673ffffffffffffffffffffffffffffffffffffffff1681526020016002820160009054906101000a900473ffffffffffffffffffffffffffffffffffffffff1673ffffffffffffffffffffffffffffffffffffffff1673ffffffffffffffffffffffffffffffffffffffff168152602001600382015481526020016004820154815260200160058201548152602001600682015481526020016007820160009054906101000a900460ff16151515158152602001600882015481526020016009820180546127819061385b565b80601f01602080910402602001604051908101604052809291908181526020018280546127ad9061385b565b80156127fa5780601f106127cf576101008083540402835291602001916127fa565b820191906000526020600020905b8154815290600101906020018083116127dd57829003601f168201915b50505050508152602001600a820180546128139061385b565b80601f016020809104026020016040519081016040528092919081815260200182805461283f9061385b565b801561288c5780601f106128615761010080835404028352916020019161288c565b820191906000526020600020905b81548152906001019060200180831161286f57829003601f168201915b505050505081525050905092915050565b60008083836040516128b0929190613264565b908152602001604051809103902060070160009054906101000a900460ff16905092915050565b8280546128e39061385b565b90600052602060002090601f016020900481019282612905576000855561294c565b82601f1061291e57805160ff191683800117855561294c565b8280016001018555821561294c579182015b8281111561294b578251825591602001919060010190612930565b5b50905061295991906129e8565b5090565b60405180610160016040528060608152602001600073ffffffffffffffffffffffffffffffffffffffff168152602001600073ffffffffffffffffffffffffffffffffffffffff168152602001600081526020016000815260200160008152602001600081526020016000151581526020016000801916815260200160608152602001606081525090565b5b80821115612a015760008160009055506001016129e9565b5090565b6000612a18612a1384613637565b613612565b905082815260208101848484011115612a3457612a336139e2565b5b612a3f848285613819565b509392505050565b600081359050612a5681613c5d565b92915050565b60008083601f840112612a7257612a716139d8565b5b8235905067ffffffffffffffff811115612a8f57612a8e6139d3565b5b602083019150836001820283011115612aab57612aaa6139dd565b5b9250929050565b600082601f830112612ac757612ac66139d8565b5b8135612ad7848260208601612a05565b91505092915050565b600081359050612aef81613c74565b92915050565b600080600060408486031215612b0e57612b0d6139ec565b5b6000612b1c86828701612a47565b935050602084013567ffffffffffffffff811115612b3d57612b3c6139e7565b5b612b4986828701612a5c565b92509250509250925092565b60008060208385031215612b6c57612b6b6139ec565b5b600083013567ffffffffffffffff811115612b8a57612b896139e7565b5b612b9685828601612a5c565b92509250509250929050565b600060208284031215612bb857612bb76139ec565b5b600082013567ffffffffffffffff811115612bd657612bd56139e7565b5b612be284828501612ab2565b91505092915050565b60008060408385031215612c0257612c016139ec565b5b600083013567ffffffffffffffff811115612c2057612c1f6139e7565b5b612c2c85828601612ab2565b9250506020612c3d85828601612a47565b9150509250929050565b600080600060408486031215612c6057612c5f6139ec565b5b600084013567ffffffffffffffff811115612c7e57612c7d6139e7565b5b612c8a86828701612ab2565b935050602084013567ffffffffffffffff811115612cab57612caa6139e7565b5b612cb786828701612a5c565b92509250509250925092565b60008060408385031215612cda57612cd96139ec565b5b600083013567ffffffffffffffff811115612cf857612cf76139e7565b5b612d0485828601612ab2565b9250506020612d1585828601612ae0565b9150509250929050565b600080600080600060a08688031215612d3b57612d3a6139ec565b5b600086013567ffffffffffffffff811115612d5957612d586139e7565b5b612d6588828901612ab2565b9550506020612d7688828901612ae0565b9450506040612d8788828901612ae0565b935050606086013567ffffffffffffffff811115612da857612da76139e7565b5b612db488828901612ab2565b925050608086013567ffffffffffffffff811115612dd557612dd46139e7565b5b612de188828901612ab2565b9150509295509295909350565b6000612dfa8383613204565b60608301905092915050565b612e0f816137ba565b82525050565b612e1e816137ba565b82525050565b6000612e2f82613678565b612e39818561369b565b9350612e4483613668565b8060005b83811015612e75578151612e5c8882612dee565b9750612e678361368e565b925050600181019050612e48565b5085935050505092915050565b612e8b816137cc565b82525050565b612e9a816137cc565b82525050565b612ea9816137d8565b82525050565b612eb8816137d8565b82525050565b6000612eca83856136ce565b9350612ed7838584613819565b82840190509392505050565b6000612eee82613683565b612ef881856136ac565b9350612f08818560208601613828565b612f11816139f1565b840191505092915050565b6000612f2782613683565b612f3181856136bd565b9350612f41818560208601613828565b612f4a816139f1565b840191505092915050565b6000612f6082613683565b612f6a81856136ce565b9350612f7a818560208601613828565b80840191505092915050565b6000612f93601f836136bd565b9150612f9e82613a02565b602082019050919050565b6000612fb66019836136bd565b9150612fc182613a2b565b602082019050919050565b6000612fd96026836136bd565b9150612fe482613a54565b604082019050919050565b6000612ffc601c836136bd565b915061300782613aa3565b602082019050919050565b600061301f6015836136bd565b915061302a82613acc565b602082019050919050565b6000613042601e836136bd565b915061304d82613af5565b602082019050919050565b60006130656024836136bd565b915061307082613b1e565b604082019050919050565b60006130886028836136bd565b915061309382613b6d565b604082019050919050565b60006130ab6020836136bd565b91506130b682613bbc565b602082019050919050565b60006130ce6012836136bd565b91506130d982613be5565b602082019050919050565b60006130f16025836136bd565b91506130fc82613c0e565b604082019050919050565b60006101608301600083015184820360008601526131258282612ee3565b915050602083015161313a6020860182612e06565b50604083015161314d6040860182612e06565b5060608301516131606060860182613246565b5060808301516131736080860182613246565b5060a083015161318660a0860182613246565b5060c083015161319960c0860182613246565b5060e08301516131ac60e0860182612e82565b506101008301516131c1610100860182612ea0565b506101208301518482036101208601526131db8282612ee3565b9150506101408301518482036101408601526131f78282612ee3565b9150508091505092915050565b60608201600082015161321a6000850182612e82565b50602082015161322d6020850182612e82565b5060408201516132406040850182612e06565b50505050565b61324f81613802565b82525050565b61325e81613802565b82525050565b6000613271828486612ebe565b91508190509392505050565b60006132898284612f55565b915081905092915050565b60006020820190506132a96000830184612e15565b92915050565b60006020820190506132c46000830184612e91565b92915050565b60006060820190506132df6000830186612e91565b6132ec6020830185612e91565b6132f96040830184612e15565b949350505050565b60006080820190506133166000830187612eaf565b81810360208301526133288186612f1c565b90506133376040830185613255565b81810360608301526133498184612e24565b905095945050505050565b6000602082019050818103600083015261336e8184612f1c565b905092915050565b6000610160820190508181036000830152613391818e612f1c565b90506133a0602083018d612e15565b6133ad604083018c612e15565b6133ba606083018b613255565b6133c7608083018a613255565b6133d460a0830189613255565b6133e160c0830188613255565b6133ee60e0830187612e91565b6133fc610100830186612eaf565b81810361012083015261340f8185612f1c565b90508181036101408301526134248184612f1c565b90509c9b505050505050505050505050565b600060a08201905081810360008301526134508188612f1c565b905061345f6020830187613255565b61346c6040830186612e15565b6134796060830185613255565b6134866080830184613255565b9695505050505050565b600060208201905081810360008301526134a981612f86565b9050919050565b600060208201905081810360008301526134c981612fa9565b9050919050565b600060208201905081810360008301526134e981612fcc565b9050919050565b6000602082019050818103600083015261350981612fef565b9050919050565b6000602082019050818103600083015261352981613012565b9050919050565b6000602082019050818103600083015261354981613035565b9050919050565b6000602082019050818103600083015261356981613058565b9050919050565b600060208201905081810360008301526135898161307b565b9050919050565b600060208201905081810360008301526135a98161309e565b9050919050565b600060208201905081810360008301526135c9816130c1565b9050919050565b600060208201905081810360008301526135e9816130e4565b9050919050565b6000602082019050818103600083015261360a8184613107565b905092915050565b600061361c61362d565b9050613628828261388d565b919050565b6000604051905090565b600067ffffffffffffffff821115613652576136516139a4565b5b61365b826139f1565b9050602081019050919050565b6000819050602082019050919050565b600081519050919050565b600081519050919050565b6000602082019050919050565b600082825260208201905092915050565b600082825260208201905092915050565b600082825260208201905092915050565b600081905092915050565b60006136e482613802565b91506136ef83613802565b9250827fffffffffffffffffffffffffffffffffffffffffffffffffffffffffffffffff03821115613724576137236138e8565b5b828201905092915050565b600061373a82613802565b915061374583613802565b92508261375557613754613917565b5b828204905092915050565b600061376b82613802565b915061377683613802565b9250817fffffffffffffffffffffffffffffffffffffffffffffffffffffffffffffffff04831182151516156137af576137ae6138e8565b5b828202905092915050565b60006137c5826137e2565b9050919050565b60008115159050919050565b6000819050919050565b600073ffffffffffffffffffffffffffffffffffffffff82169050919050565b6000819050919050565b600060ff82169050919050565b82818337600083830152505050565b60005b8381101561384657808201518184015260208101905061382b565b83811115613855576000848401525b50505050565b6000600282049050600182168061387357607f821691505b6020821081141561388757613886613946565b5b50919050565b613896826139f1565b810181811067ffffffffffffffff821117156138b5576138b46139a4565b5b80604052505050565b60006138c98261380c565b915060ff8214156138dd576138dc6138e8565b5b600182019050919050565b7f4e487b7100000000000000000000000000000000000000000000000000000000600052601160045260246000fd5b7f4e487b7100000000000000000000000000000000000000000000000000000000600052601260045260246000fd5b7f4e487b7100000000000000000000000000000000000000000000000000000000600052602260045260246000fd5b7f4e487b7100000000000000000000000000000000000000000000000000000000600052603260045260246000fd5b7f4e487b7100000000000000000000000000000000000000000000000000000000600052604160045260246000fd5b600080fd5b600080fd5b600080fd5b600080fd5b600080fd5b600080fd5b6000601f19601f8301169050919050565b7f526563697069656e7420697320616c7265616479207265676973746572656400600082015250565b7f50726f706f73616c20616c726561647920637265617465642100000000000000600082015250565b7f596f75206172656e277420617574686f72697a6520746f20636f6d70696c652060008201527f42756e646c650000000000000000000000000000000000000000000000000000602082015250565b7f596f7520616c72656164792073656e74206120726573706f6e73652e00000000600082015250565b7f496e69746961746f722063616e277420766f7465210000000000000000000000600082015250565b7f596f7520617265206e6f74207265676973746572656420746f20766f74650000600082015250565b7f50726f706f73616c20686173207265616368656420697473206578706972792060008201527f6461746500000000000000000000000000000000000000000000000000000000602082015250565b7f4f6e6c7920696e69746961746f722063616e207265676973746572206120726560008201527f63697069656e742e000000000000000000000000000000000000000000000000602082015250565b7f5665726469637420686173206e6f74206265656e207265616368656420796574600082015250565b7f566f74696e672068617320657870697265640000000000000000000000000000600082015250565b7f436f6e73656e7375732068617320616c7265616479206265656e2063616c637560008201527f6c61746564000000000000000000000000000000000000000000000000000000602082015250565b613c66816137ba565b8114613c7157600080fd5b50565b613c7d81613802565b8114613c8857600080fd5b5056fea2646970667358221220405284ba9e16c2c7c6716026300860f18b4c92ce544277b4288f7c26ff38a4d664736f6c63430008070033",
					"opcodes": "PUSH1 0x80 PUSH1 0x40 MSTORE CALLVALUE DUP1 ISZERO PUSH2 0x10 JUMPI PUSH1 0x0 DUP1 REVERT JUMPDEST POP PUSH2 0x3CC1 DUP1 PUSH2 0x20 PUSH1 0x0 CODECOPY PUSH1 0x0 RETURN INVALID PUSH1 0x80 PUSH1 0x40 MSTORE CALLVALUE DUP1 ISZERO PUSH2 0x10 JUMPI PUSH1 0x0 DUP1 REVERT JUMPDEST POP PUSH1 0x4 CALLDATASIZE LT PUSH2 0xEA JUMPI PUSH1 0x0 CALLDATALOAD PUSH1 0xE0 SHR DUP1 PUSH4 0x5A0A1390 GT PUSH2 0x8C JUMPI DUP1 PUSH4 0x8F6A35B7 GT PUSH2 0x66 JUMPI DUP1 PUSH4 0x8F6A35B7 EQ PUSH2 0x294 JUMPI DUP1 PUSH4 0xC99BA896 EQ PUSH2 0x2C6 JUMPI DUP1 PUSH4 0xC9BC42ED EQ PUSH2 0x2F6 JUMPI DUP1 PUSH4 0xEC548680 EQ PUSH2 0x326 JUMPI PUSH2 0xEA JUMP JUMPDEST DUP1 PUSH4 0x5A0A1390 EQ PUSH2 0x212 JUMPI DUP1 PUSH4 0x7B735C46 EQ PUSH2 0x246 JUMPI DUP1 PUSH4 0x883A9673 EQ PUSH2 0x278 JUMPI PUSH2 0xEA JUMP JUMPDEST DUP1 PUSH4 0x17072D6B GT PUSH2 0xC8 JUMPI DUP1 PUSH4 0x17072D6B EQ PUSH2 0x175 JUMPI DUP1 PUSH4 0x33A0B0AB EQ PUSH2 0x191 JUMPI DUP1 PUSH4 0x37F2E190 EQ PUSH2 0x1C3 JUMPI DUP1 PUSH4 0x3D63AF0E EQ PUSH2 0x1F6 JUMPI PUSH2 0xEA JUMP JUMPDEST DUP1 PUSH4 0x6699B01 EQ PUSH2 0xEF JUMPI DUP1 PUSH4 0x89A4C60 EQ PUSH2 0x11F JUMPI DUP1 PUSH4 0x952ED75 EQ PUSH2 0x159 JUMPI JUMPDEST PUSH1 0x0 DUP1 REVERT JUMPDEST PUSH2 0x109 PUSH1 0x4 DUP1 CALLDATASIZE SUB DUP2 ADD SWAP1 PUSH2 0x104 SWAP2 SWAP1 PUSH2 0x2CC3 JUMP JUMPDEST PUSH2 0x356 JUMP JUMPDEST PUSH1 0x40 MLOAD PUSH2 0x116 SWAP2 SWAP1 PUSH2 0x3294 JUMP JUMPDEST PUSH1 0x40 MLOAD DUP1 SWAP2 SUB SWAP1 RETURN JUMPDEST PUSH2 0x139 PUSH1 0x4 DUP1 CALLDATASIZE SUB DUP2 ADD SWAP1 PUSH2 0x134 SWAP2 SWAP1 PUSH2 0x2BA2 JUMP JUMPDEST PUSH2 0x3BA JUMP JUMPDEST PUSH1 0x40 MLOAD PUSH2 0x150 SWAP12 SWAP11 SWAP10 SWAP9 SWAP8 SWAP7 SWAP6 SWAP5 SWAP4 SWAP3 SWAP2 SWAP1 PUSH2 0x3376 JUMP JUMPDEST PUSH1 0x40 MLOAD DUP1 SWAP2 SUB SWAP1 RETURN JUMPDEST PUSH2 0x173 PUSH1 0x4 DUP1 CALLDATASIZE SUB DUP2 ADD SWAP1 PUSH2 0x16E SWAP2 SWAP1 PUSH2 0x2D1F JUMP JUMPDEST PUSH2 0x60F JUMP JUMPDEST STOP JUMPDEST PUSH2 0x18F PUSH1 0x4 DUP1 CALLDATASIZE SUB DUP2 ADD SWAP1 PUSH2 0x18A SWAP2 SWAP1 PUSH2 0x2C47 JUMP JUMPDEST PUSH2 0xA2B JUMP JUMPDEST STOP JUMPDEST PUSH2 0x1AB PUSH1 0x4 DUP1 CALLDATASIZE SUB DUP2 ADD SWAP1 PUSH2 0x1A6 SWAP2 SWAP1 PUSH2 0x2BEB JUMP JUMPDEST PUSH2 0x13D0 JUMP JUMPDEST PUSH1 0x40 MLOAD PUSH2 0x1BA SWAP4 SWAP3 SWAP2 SWAP1 PUSH2 0x32CA JUMP JUMPDEST PUSH1 0x40 MLOAD DUP1 SWAP2 SUB SWAP1 RETURN JUMPDEST PUSH2 0x1DD PUSH1 0x4 DUP1 CALLDATASIZE SUB DUP2 ADD SWAP1 PUSH2 0x1D8 SWAP2 SWAP1 PUSH2 0x2B55 JUMP JUMPDEST PUSH2 0x1457 JUMP JUMPDEST PUSH1 0x40 MLOAD PUSH2 0x1ED SWAP5 SWAP4 SWAP3 SWAP2 SWAP1 PUSH2 0x3301 JUMP JUMPDEST PUSH1 0x40 MLOAD DUP1 SWAP2 SUB SWAP1 RETURN JUMPDEST PUSH2 0x210 PUSH1 0x4 DUP1 CALLDATASIZE SUB DUP2 ADD SWAP1 PUSH2 0x20B SWAP2 SWAP1 PUSH2 0x2AF5 JUMP JUMPDEST PUSH2 0x16DD JUMP JUMPDEST STOP JUMPDEST PUSH2 0x22C PUSH1 0x4 DUP1 CALLDATASIZE SUB DUP2 ADD SWAP1 PUSH2 0x227 SWAP2 SWAP1 PUSH2 0x2B55 JUMP JUMPDEST PUSH2 0x1B3E JUMP JUMPDEST PUSH1 0x40 MLOAD PUSH2 0x23D SWAP6 SWAP5 SWAP4 SWAP3 SWAP2 SWAP1 PUSH2 0x3436 JUMP JUMPDEST PUSH1 0x40 MLOAD DUP1 SWAP2 SUB SWAP1 RETURN JUMPDEST PUSH2 0x260 PUSH1 0x4 DUP1 CALLDATASIZE SUB DUP2 ADD SWAP1 PUSH2 0x25B SWAP2 SWAP1 PUSH2 0x2AF5 JUMP JUMPDEST PUSH2 0x1CB9 JUMP JUMPDEST PUSH1 0x40 MLOAD PUSH2 0x26F SWAP4 SWAP3 SWAP2 SWAP1 PUSH2 0x32CA JUMP JUMPDEST PUSH1 0x40 MLOAD DUP1 SWAP2 SUB SWAP1 RETURN JUMPDEST PUSH2 0x292 PUSH1 0x4 DUP1 CALLDATASIZE SUB DUP2 ADD SWAP1 PUSH2 0x28D SWAP2 SWAP1 PUSH2 0x2B55 JUMP JUMPDEST PUSH2 0x1E2A JUMP JUMPDEST STOP JUMPDEST PUSH2 0x2AE PUSH1 0x4 DUP1 CALLDATASIZE SUB DUP2 ADD SWAP1 PUSH2 0x2A9 SWAP2 SWAP1 PUSH2 0x2CC3 JUMP JUMPDEST PUSH2 0x2469 JUMP JUMPDEST PUSH1 0x40 MLOAD PUSH2 0x2BD SWAP4 SWAP3 SWAP2 SWAP1 PUSH2 0x32CA JUMP JUMPDEST PUSH1 0x40 MLOAD DUP1 SWAP2 SUB SWAP1 RETURN JUMPDEST PUSH2 0x2E0 PUSH1 0x4 DUP1 CALLDATASIZE SUB DUP2 ADD SWAP1 PUSH2 0x2DB SWAP2 SWAP1 PUSH2 0x2B55 JUMP JUMPDEST PUSH2 0x24FC JUMP JUMPDEST PUSH1 0x40 MLOAD PUSH2 0x2ED SWAP2 SWAP1 PUSH2 0x3354 JUMP JUMPDEST PUSH1 0x40 MLOAD DUP1 SWAP2 SUB SWAP1 RETURN JUMPDEST PUSH2 0x310 PUSH1 0x4 DUP1 CALLDATASIZE SUB DUP2 ADD SWAP1 PUSH2 0x30B SWAP2 SWAP1 PUSH2 0x2B55 JUMP JUMPDEST PUSH2 0x25B2 JUMP JUMPDEST PUSH1 0x40 MLOAD PUSH2 0x31D SWAP2 SWAP1 PUSH2 0x35F0 JUMP JUMPDEST PUSH1 0x40 MLOAD DUP1 SWAP2 SUB SWAP1 RETURN JUMPDEST PUSH2 0x340 PUSH1 0x4 DUP1 CALLDATASIZE SUB DUP2 ADD SWAP1 PUSH2 0x33B SWAP2 SWAP1 PUSH2 0x2B55 JUMP JUMPDEST PUSH2 0x289D JUMP JUMPDEST PUSH1 0x40 MLOAD PUSH2 0x34D SWAP2 SWAP1 PUSH2 0x32AF JUMP JUMPDEST PUSH1 0x40 MLOAD DUP1 SWAP2 SUB SWAP1 RETURN JUMPDEST PUSH1 0x3 DUP3 DUP1 MLOAD PUSH1 0x20 DUP2 ADD DUP3 ADD DUP1 MLOAD DUP5 DUP3 MSTORE PUSH1 0x20 DUP4 ADD PUSH1 0x20 DUP6 ADD KECCAK256 DUP2 DUP4 MSTORE DUP1 SWAP6 POP POP POP POP POP POP DUP2 DUP2 SLOAD DUP2 LT PUSH2 0x388 JUMPI PUSH1 0x0 DUP1 REVERT JUMPDEST SWAP1 PUSH1 0x0 MSTORE PUSH1 0x20 PUSH1 0x0 KECCAK256 ADD PUSH1 0x0 SWAP2 POP SWAP2 POP SWAP1 SLOAD SWAP1 PUSH2 0x100 EXP SWAP1 DIV PUSH20 0xFFFFFFFFFFFFFFFFFFFFFFFFFFFFFFFFFFFFFFFF AND DUP2 JUMP JUMPDEST PUSH1 0x0 DUP2 DUP1 MLOAD PUSH1 0x20 DUP2 ADD DUP3 ADD DUP1 MLOAD DUP5 DUP3 MSTORE PUSH1 0x20 DUP4 ADD PUSH1 0x20 DUP6 ADD KECCAK256 DUP2 DUP4 MSTORE DUP1 SWAP6 POP POP POP POP POP POP PUSH1 0x0 SWAP2 POP SWAP1 POP DUP1 PUSH1 0x0 ADD DUP1 SLOAD PUSH2 0x3F3 SWAP1 PUSH2 0x385B JUMP JUMPDEST DUP1 PUSH1 0x1F ADD PUSH1 0x20 DUP1 SWAP2 DIV MUL PUSH1 0x20 ADD PUSH1 0x40 MLOAD SWAP1 DUP2 ADD PUSH1 0x40 MSTORE DUP1 SWAP3 SWAP2 SWAP1 DUP2 DUP2 MSTORE PUSH1 0x20 ADD DUP3 DUP1 SLOAD PUSH2 0x41F SWAP1 PUSH2 0x385B JUMP JUMPDEST DUP1 ISZERO PUSH2 0x46C JUMPI DUP1 PUSH1 0x1F LT PUSH2 0x441 JUMPI PUSH2 0x100 DUP1 DUP4 SLOAD DIV MUL DUP4 MSTORE SWAP2 PUSH1 0x20 ADD SWAP2 PUSH2 0x46C JUMP JUMPDEST DUP3 ADD SWAP2 SWAP1 PUSH1 0x0 MSTORE PUSH1 0x20 PUSH1 0x0 KECCAK256 SWAP1 JUMPDEST DUP2 SLOAD DUP2 MSTORE SWAP1 PUSH1 0x1 ADD SWAP1 PUSH1 0x20 ADD DUP1 DUP4 GT PUSH2 0x44F JUMPI DUP3 SWAP1 SUB PUSH1 0x1F AND DUP3 ADD SWAP2 JUMPDEST POP POP POP POP POP SWAP1 DUP1 PUSH1 0x1 ADD PUSH1 0x0 SWAP1 SLOAD SWAP1 PUSH2 0x100 EXP SWAP1 DIV PUSH20 0xFFFFFFFFFFFFFFFFFFFFFFFFFFFFFFFFFFFFFFFF AND SWAP1 DUP1 PUSH1 0x2 ADD PUSH1 0x0 SWAP1 SLOAD SWAP1 PUSH2 0x100 EXP SWAP1 DIV PUSH20 0xFFFFFFFFFFFFFFFFFFFFFFFFFFFFFFFFFFFFFFFF AND SWAP1 DUP1 PUSH1 0x3 ADD SLOAD SWAP1 DUP1 PUSH1 0x4 ADD SLOAD SWAP1 DUP1 PUSH1 0x5 ADD SLOAD SWAP1 DUP1 PUSH1 0x6 ADD SLOAD SWAP1 DUP1 PUSH1 0x7 ADD PUSH1 0x0 SWAP1 SLOAD SWAP1 PUSH2 0x100 EXP SWAP1 DIV PUSH1 0xFF AND SWAP1 DUP1 PUSH1 0x8 ADD SLOAD SWAP1 DUP1 PUSH1 0x9 ADD DUP1 SLOAD PUSH2 0x4FE SWAP1 PUSH2 0x385B JUMP JUMPDEST DUP1 PUSH1 0x1F ADD PUSH1 0x20 DUP1 SWAP2 DIV MUL PUSH1 0x20 ADD PUSH1 0x40 MLOAD SWAP1 DUP2 ADD PUSH1 0x40 MSTORE DUP1 SWAP3 SWAP2 SWAP1 DUP2 DUP2 MSTORE PUSH1 0x20 ADD DUP3 DUP1 SLOAD PUSH2 0x52A SWAP1 PUSH2 0x385B JUMP JUMPDEST DUP1 ISZERO PUSH2 0x577 JUMPI DUP1 PUSH1 0x1F LT PUSH2 0x54C JUMPI PUSH2 0x100 DUP1 DUP4 SLOAD DIV MUL DUP4 MSTORE SWAP2 PUSH1 0x20 ADD SWAP2 PUSH2 0x577 JUMP JUMPDEST DUP3 ADD SWAP2 SWAP1 PUSH1 0x0 MSTORE PUSH1 0x20 PUSH1 0x0 KECCAK256 SWAP1 JUMPDEST DUP2 SLOAD DUP2 MSTORE SWAP1 PUSH1 0x1 ADD SWAP1 PUSH1 0x20 ADD DUP1 DUP4 GT PUSH2 0x55A JUMPI DUP3 SWAP1 SUB PUSH1 0x1F AND DUP3 ADD SWAP2 JUMPDEST POP POP POP POP POP SWAP1 DUP1 PUSH1 0xA ADD DUP1 SLOAD PUSH2 0x58C SWAP1 PUSH2 0x385B JUMP JUMPDEST DUP1 PUSH1 0x1F ADD PUSH1 0x20 DUP1 SWAP2 DIV MUL PUSH1 0x20 ADD PUSH1 0x40 MLOAD SWAP1 DUP2 ADD PUSH1 0x40 MSTORE DUP1 SWAP3 SWAP2 SWAP1 DUP2 DUP2 MSTORE PUSH1 0x20 ADD DUP3 DUP1 SLOAD PUSH2 0x5B8 SWAP1 PUSH2 0x385B JUMP JUMPDEST DUP1 ISZERO PUSH2 0x605 JUMPI DUP1 PUSH1 0x1F LT PUSH2 0x5DA JUMPI PUSH2 0x100 DUP1 DUP4 SLOAD DIV MUL DUP4 MSTORE SWAP2 PUSH1 0x20 ADD SWAP2 PUSH2 0x605 JUMP JUMPDEST DUP3 ADD SWAP2 SWAP1 PUSH1 0x0 MSTORE PUSH1 0x20 PUSH1 0x0 KECCAK256 SWAP1 JUMPDEST DUP2 SLOAD DUP2 MSTORE SWAP1 PUSH1 0x1 ADD SWAP1 PUSH1 0x20 ADD DUP1 DUP4 GT PUSH2 0x5E8 JUMPI DUP3 SWAP1 SUB PUSH1 0x1F AND DUP3 ADD SWAP2 JUMPDEST POP POP POP POP POP SWAP1 POP DUP12 JUMP JUMPDEST PUSH1 0x0 PUSH20 0xFFFFFFFFFFFFFFFFFFFFFFFFFFFFFFFFFFFFFFFF AND PUSH1 0x0 DUP7 PUSH1 0x40 MLOAD PUSH2 0x637 SWAP2 SWAP1 PUSH2 0x327D JUMP JUMPDEST SWAP1 DUP2 MSTORE PUSH1 0x20 ADD PUSH1 0x40 MLOAD DUP1 SWAP2 SUB SWAP1 KECCAK256 PUSH1 0x1 ADD PUSH1 0x0 SWAP1 SLOAD SWAP1 PUSH2 0x100 EXP SWAP1 DIV PUSH20 0xFFFFFFFFFFFFFFFFFFFFFFFFFFFFFFFFFFFFFFFF AND PUSH20 0xFFFFFFFFFFFFFFFFFFFFFFFFFFFFFFFFFFFFFFFF AND EQ PUSH2 0x6BF JUMPI PUSH1 0x40 MLOAD PUSH32 0x8C379A000000000000000000000000000000000000000000000000000000000 DUP2 MSTORE PUSH1 0x4 ADD PUSH2 0x6B6 SWAP1 PUSH2 0x34B0 JUMP JUMPDEST PUSH1 0x40 MLOAD DUP1 SWAP2 SUB SWAP1 REVERT JUMPDEST PUSH1 0x0 PUSH1 0x40 MLOAD DUP1 PUSH2 0x160 ADD PUSH1 0x40 MSTORE DUP1 DUP8 DUP2 MSTORE PUSH1 0x20 ADD CALLER PUSH20 0xFFFFFFFFFFFFFFFFFFFFFFFFFFFFFFFFFFFFFFFF AND DUP2 MSTORE PUSH1 0x20 ADD ADDRESS PUSH20 0xFFFFFFFFFFFFFFFFFFFFFFFFFFFFFFFFFFFFFFFF AND DUP2 MSTORE PUSH1 0x20 ADD PUSH1 0x0 DUP2 MSTORE PUSH1 0x20 ADD DUP7 TIMESTAMP PUSH2 0x71E SWAP2 SWAP1 PUSH2 0x36D9 JUMP JUMPDEST DUP2 MSTORE PUSH1 0x20 ADD DUP6 DUP2 MSTORE PUSH1 0x20 ADD PUSH1 0x0 DUP2 MSTORE PUSH1 0x20 ADD PUSH1 0x0 ISZERO ISZERO DUP2 MSTORE PUSH1 0x20 ADD PUSH32 0x52656A6563746564000000000000000000000000000000000000000000000000 DUP2 MSTORE PUSH1 0x20 ADD DUP4 DUP2 MSTORE PUSH1 0x20 ADD DUP5 DUP2 MSTORE POP SWAP1 POP DUP1 PUSH1 0x0 DUP8 PUSH1 0x40 MLOAD PUSH2 0x77C SWAP2 SWAP1 PUSH2 0x327D JUMP JUMPDEST SWAP1 DUP2 MSTORE PUSH1 0x20 ADD PUSH1 0x40 MLOAD DUP1 SWAP2 SUB SWAP1 KECCAK256 PUSH1 0x0 DUP3 ADD MLOAD DUP2 PUSH1 0x0 ADD SWAP1 DUP1 MLOAD SWAP1 PUSH1 0x20 ADD SWAP1 PUSH2 0x7A6 SWAP3 SWAP2 SWAP1 PUSH2 0x28D7 JUMP JUMPDEST POP PUSH1 0x20 DUP3 ADD MLOAD DUP2 PUSH1 0x1 ADD PUSH1 0x0 PUSH2 0x100 EXP DUP2 SLOAD DUP2 PUSH20 0xFFFFFFFFFFFFFFFFFFFFFFFFFFFFFFFFFFFFFFFF MUL NOT AND SWAP1 DUP4 PUSH20 0xFFFFFFFFFFFFFFFFFFFFFFFFFFFFFFFFFFFFFFFF AND MUL OR SWAP1 SSTORE POP PUSH1 0x40 DUP3 ADD MLOAD DUP2 PUSH1 0x2 ADD PUSH1 0x0 PUSH2 0x100 EXP DUP2 SLOAD DUP2 PUSH20 0xFFFFFFFFFFFFFFFFFFFFFFFFFFFFFFFFFFFFFFFF MUL NOT AND SWAP1 DUP4 PUSH20 0xFFFFFFFFFFFFFFFFFFFFFFFFFFFFFFFFFFFFFFFF AND MUL OR SWAP1 SSTORE POP PUSH1 0x60 DUP3 ADD MLOAD DUP2 PUSH1 0x3 ADD SSTORE PUSH1 0x80 DUP3 ADD MLOAD DUP2 PUSH1 0x4 ADD SSTORE PUSH1 0xA0 DUP3 ADD MLOAD DUP2 PUSH1 0x5 ADD SSTORE PUSH1 0xC0 DUP3 ADD MLOAD DUP2 PUSH1 0x6 ADD SSTORE PUSH1 0xE0 DUP3 ADD MLOAD DUP2 PUSH1 0x7 ADD PUSH1 0x0 PUSH2 0x100 EXP DUP2 SLOAD DUP2 PUSH1 0xFF MUL NOT AND SWAP1 DUP4 ISZERO ISZERO MUL OR SWAP1 SSTORE POP PUSH2 0x100 DUP3 ADD MLOAD DUP2 PUSH1 0x8 ADD SSTORE PUSH2 0x120 DUP3 ADD MLOAD DUP2 PUSH1 0x9 ADD SWAP1 DUP1 MLOAD SWAP1 PUSH1 0x20 ADD SWAP1 PUSH2 0x8A5 SWAP3 SWAP2 SWAP1 PUSH2 0x28D7 JUMP JUMPDEST POP PUSH2 0x140 DUP3 ADD MLOAD DUP2 PUSH1 0xA ADD SWAP1 DUP1 MLOAD SWAP1 PUSH1 0x20 ADD SWAP1 PUSH2 0x8C3 SWAP3 SWAP2 SWAP1 PUSH2 0x28D7 JUMP JUMPDEST POP SWAP1 POP POP DUP1 PUSH1 0x0 DUP4 PUSH1 0x40 MLOAD PUSH2 0x8D8 SWAP2 SWAP1 PUSH2 0x327D JUMP JUMPDEST SWAP1 DUP2 MSTORE PUSH1 0x20 ADD PUSH1 0x40 MLOAD DUP1 SWAP2 SUB SWAP1 KECCAK256 PUSH1 0x0 DUP3 ADD MLOAD DUP2 PUSH1 0x0 ADD SWAP1 DUP1 MLOAD SWAP1 PUSH1 0x20 ADD SWAP1 PUSH2 0x902 SWAP3 SWAP2 SWAP1 PUSH2 0x28D7 JUMP JUMPDEST POP PUSH1 0x20 DUP3 ADD MLOAD DUP2 PUSH1 0x1 ADD PUSH1 0x0 PUSH2 0x100 EXP DUP2 SLOAD DUP2 PUSH20 0xFFFFFFFFFFFFFFFFFFFFFFFFFFFFFFFFFFFFFFFF MUL NOT AND SWAP1 DUP4 PUSH20 0xFFFFFFFFFFFFFFFFFFFFFFFFFFFFFFFFFFFFFFFF AND MUL OR SWAP1 SSTORE POP PUSH1 0x40 DUP3 ADD MLOAD DUP2 PUSH1 0x2 ADD PUSH1 0x0 PUSH2 0x100 EXP DUP2 SLOAD DUP2 PUSH20 0xFFFFFFFFFFFFFFFFFFFFFFFFFFFFFFFFFFFFFFFF MUL NOT AND SWAP1 DUP4 PUSH20 0xFFFFFFFFFFFFFFFFFFFFFFFFFFFFFFFFFFFFFFFF AND MUL OR SWAP1 SSTORE POP PUSH1 0x60 DUP3 ADD MLOAD DUP2 PUSH1 0x3 ADD SSTORE PUSH1 0x80 DUP3 ADD MLOAD DUP2 PUSH1 0x4 ADD SSTORE PUSH1 0xA0 DUP3 ADD MLOAD DUP2 PUSH1 0x5 ADD SSTORE PUSH1 0xC0 DUP3 ADD MLOAD DUP2 PUSH1 0x6 ADD SSTORE PUSH1 0xE0 DUP3 ADD MLOAD DUP2 PUSH1 0x7 ADD PUSH1 0x0 PUSH2 0x100 EXP DUP2 SLOAD DUP2 PUSH1 0xFF MUL NOT AND SWAP1 DUP4 ISZERO ISZERO MUL OR SWAP1 SSTORE POP PUSH2 0x100 DUP3 ADD MLOAD DUP2 PUSH1 0x8 ADD SSTORE PUSH2 0x120 DUP3 ADD MLOAD DUP2 PUSH1 0x9 ADD SWAP1 DUP1 MLOAD SWAP1 PUSH1 0x20 ADD SWAP1 PUSH2 0xA01 SWAP3 SWAP2 SWAP1 PUSH2 0x28D7 JUMP JUMPDEST POP PUSH2 0x140 DUP3 ADD MLOAD DUP2 PUSH1 0xA ADD SWAP1 DUP1 MLOAD SWAP1 PUSH1 0x20 ADD SWAP1 PUSH2 0xA1F SWAP3 SWAP2 SWAP1 PUSH2 0x28D7 JUMP JUMPDEST POP SWAP1 POP POP POP POP POP POP POP POP JUMP JUMPDEST PUSH1 0x0 DUP3 DUP3 PUSH1 0x40 MLOAD PUSH2 0xA3D SWAP3 SWAP2 SWAP1 PUSH2 0x3264 JUMP JUMPDEST SWAP1 DUP2 MSTORE PUSH1 0x20 ADD PUSH1 0x40 MLOAD DUP1 SWAP2 SUB SWAP1 KECCAK256 PUSH1 0x4 ADD SLOAD TIMESTAMP LT PUSH2 0xA90 JUMPI PUSH1 0x40 MLOAD PUSH32 0x8C379A000000000000000000000000000000000000000000000000000000000 DUP2 MSTORE PUSH1 0x4 ADD PUSH2 0xA87 SWAP1 PUSH2 0x35B0 JUMP JUMPDEST PUSH1 0x40 MLOAD DUP1 SWAP2 SUB SWAP1 REVERT JUMPDEST PUSH1 0x0 PUSH20 0xFFFFFFFFFFFFFFFFFFFFFFFFFFFFFFFFFFFFFFFF AND PUSH1 0x1 DUP4 DUP4 PUSH1 0x40 MLOAD PUSH2 0xABA SWAP3 SWAP2 SWAP1 PUSH2 0x3264 JUMP JUMPDEST SWAP1 DUP2 MSTORE PUSH1 0x20 ADD PUSH1 0x40 MLOAD DUP1 SWAP2 SUB SWAP1 KECCAK256 PUSH1 0x0 CALLER PUSH20 0xFFFFFFFFFFFFFFFFFFFFFFFFFFFFFFFFFFFFFFFF AND PUSH20 0xFFFFFFFFFFFFFFFFFFFFFFFFFFFFFFFFFFFFFFFF AND DUP2 MSTORE PUSH1 0x20 ADD SWAP1 DUP2 MSTORE PUSH1 0x20 ADD PUSH1 0x0 KECCAK256 PUSH1 0x0 ADD PUSH1 0x2 SWAP1 SLOAD SWAP1 PUSH2 0x100 EXP SWAP1 DIV PUSH20 0xFFFFFFFFFFFFFFFFFFFFFFFFFFFFFFFFFFFFFFFF AND PUSH20 0xFFFFFFFFFFFFFFFFFFFFFFFFFFFFFFFFFFFFFFFF AND EQ ISZERO PUSH2 0xB80 JUMPI PUSH1 0x40 MLOAD PUSH32 0x8C379A000000000000000000000000000000000000000000000000000000000 DUP2 MSTORE PUSH1 0x4 ADD PUSH2 0xB77 SWAP1 PUSH2 0x3530 JUMP JUMPDEST PUSH1 0x40 MLOAD DUP1 SWAP2 SUB SWAP1 REVERT JUMPDEST PUSH1 0x1 DUP3 DUP3 PUSH1 0x40 MLOAD PUSH2 0xB92 SWAP3 SWAP2 SWAP1 PUSH2 0x3264 JUMP JUMPDEST SWAP1 DUP2 MSTORE PUSH1 0x20 ADD PUSH1 0x40 MLOAD DUP1 SWAP2 SUB SWAP1 KECCAK256 PUSH1 0x0 CALLER PUSH20 0xFFFFFFFFFFFFFFFFFFFFFFFFFFFFFFFFFFFFFFFF AND PUSH20 0xFFFFFFFFFFFFFFFFFFFFFFFFFFFFFFFFFFFFFFFF AND DUP2 MSTORE PUSH1 0x20 ADD SWAP1 DUP2 MSTORE PUSH1 0x20 ADD PUSH1 0x0 KECCAK256 PUSH1 0x0 ADD PUSH1 0x0 SWAP1 SLOAD SWAP1 PUSH2 0x100 EXP SWAP1 DIV PUSH1 0xFF AND ISZERO PUSH2 0xC2E JUMPI PUSH1 0x40 MLOAD PUSH32 0x8C379A000000000000000000000000000000000000000000000000000000000 DUP2 MSTORE PUSH1 0x4 ADD PUSH2 0xC25 SWAP1 PUSH2 0x34F0 JUMP JUMPDEST PUSH1 0x40 MLOAD DUP1 SWAP2 SUB SWAP1 REVERT JUMPDEST PUSH1 0x40 MLOAD DUP1 PUSH1 0x40 ADD PUSH1 0x40 MSTORE DUP1 PUSH1 0x9 DUP2 MSTORE PUSH1 0x20 ADD PUSH32 0x6920617070726F76650000000000000000000000000000000000000000000000 DUP2 MSTORE POP DUP1 MLOAD SWAP1 PUSH1 0x20 ADD KECCAK256 DUP4 DUP1 MLOAD SWAP1 PUSH1 0x20 ADD KECCAK256 EQ ISZERO PUSH2 0xF49 JUMPI PUSH1 0x1 DUP1 DUP4 DUP4 PUSH1 0x40 MLOAD PUSH2 0xC8C SWAP3 SWAP2 SWAP1 PUSH2 0x3264 JUMP JUMPDEST SWAP1 DUP2 MSTORE PUSH1 0x20 ADD PUSH1 0x40 MLOAD DUP1 SWAP2 SUB SWAP1 KECCAK256 PUSH1 0x0 CALLER PUSH20 0xFFFFFFFFFFFFFFFFFFFFFFFFFFFFFFFFFFFFFFFF AND PUSH20 0xFFFFFFFFFFFFFFFFFFFFFFFFFFFFFFFFFFFFFFFF AND DUP2 MSTORE PUSH1 0x20 ADD SWAP1 DUP2 MSTORE PUSH1 0x20 ADD PUSH1 0x0 KECCAK256 PUSH1 0x0 ADD PUSH1 0x0 PUSH2 0x100 EXP DUP2 SLOAD DUP2 PUSH1 0xFF MUL NOT AND SWAP1 DUP4 ISZERO ISZERO MUL OR SWAP1 SSTORE POP PUSH1 0x1 DUP1 DUP4 DUP4 PUSH1 0x40 MLOAD PUSH2 0xD04 SWAP3 SWAP2 SWAP1 PUSH2 0x3264 JUMP JUMPDEST SWAP1 DUP2 MSTORE PUSH1 0x20 ADD PUSH1 0x40 MLOAD DUP1 SWAP2 SUB SWAP1 KECCAK256 PUSH1 0x0 CALLER PUSH20 0xFFFFFFFFFFFFFFFFFFFFFFFFFFFFFFFFFFFFFFFF AND PUSH20 0xFFFFFFFFFFFFFFFFFFFFFFFFFFFFFFFFFFFFFFFF AND DUP2 MSTORE PUSH1 0x20 ADD SWAP1 DUP2 MSTORE PUSH1 0x20 ADD PUSH1 0x0 KECCAK256 PUSH1 0x0 ADD PUSH1 0x1 PUSH2 0x100 EXP DUP2 SLOAD DUP2 PUSH1 0xFF MUL NOT AND SWAP1 DUP4 ISZERO ISZERO MUL OR SWAP1 SSTORE POP PUSH1 0x1 PUSH1 0x0 DUP4 DUP4 PUSH1 0x40 MLOAD PUSH2 0xD7D SWAP3 SWAP2 SWAP1 PUSH2 0x3264 JUMP JUMPDEST SWAP1 DUP2 MSTORE PUSH1 0x20 ADD PUSH1 0x40 MLOAD DUP1 SWAP2 SUB SWAP1 KECCAK256 PUSH1 0x6 ADD PUSH1 0x0 DUP3 DUP3 SLOAD PUSH2 0xD9D SWAP2 SWAP1 PUSH2 0x36D9 JUMP JUMPDEST SWAP3 POP POP DUP2 SWAP1 SSTORE POP PUSH1 0x1 PUSH1 0x0 DUP4 DUP4 PUSH1 0x40 MLOAD PUSH2 0xDB8 SWAP3 SWAP2 SWAP1 PUSH2 0x3264 JUMP JUMPDEST SWAP1 DUP2 MSTORE PUSH1 0x20 ADD PUSH1 0x40 MLOAD DUP1 SWAP2 SUB SWAP1 KECCAK256 PUSH1 0x3 ADD PUSH1 0x0 DUP3 DUP3 SLOAD PUSH2 0xDD8 SWAP2 SWAP1 PUSH2 0x36D9 JUMP JUMPDEST SWAP3 POP POP DUP2 SWAP1 SSTORE POP PUSH1 0x2 DUP3 DUP3 PUSH1 0x40 MLOAD PUSH2 0xDF1 SWAP3 SWAP2 SWAP1 PUSH2 0x3264 JUMP JUMPDEST SWAP1 DUP2 MSTORE PUSH1 0x20 ADD PUSH1 0x40 MLOAD DUP1 SWAP2 SUB SWAP1 KECCAK256 PUSH1 0x1 DUP4 DUP4 PUSH1 0x40 MLOAD PUSH2 0xE11 SWAP3 SWAP2 SWAP1 PUSH2 0x3264 JUMP JUMPDEST SWAP1 DUP2 MSTORE PUSH1 0x20 ADD PUSH1 0x40 MLOAD DUP1 SWAP2 SUB SWAP1 KECCAK256 PUSH1 0x0 CALLER PUSH20 0xFFFFFFFFFFFFFFFFFFFFFFFFFFFFFFFFFFFFFFFF AND PUSH20 0xFFFFFFFFFFFFFFFFFFFFFFFFFFFFFFFFFFFFFFFF AND DUP2 MSTORE PUSH1 0x20 ADD SWAP1 DUP2 MSTORE PUSH1 0x20 ADD PUSH1 0x0 KECCAK256 SWAP1 DUP1 PUSH1 0x1 DUP2 SLOAD ADD DUP1 DUP3 SSTORE DUP1 SWAP2 POP POP PUSH1 0x1 SWAP1 SUB SWAP1 PUSH1 0x0 MSTORE PUSH1 0x20 PUSH1 0x0 KECCAK256 ADD PUSH1 0x0 SWAP1 SWAP2 SWAP1 SWAP2 SWAP1 SWAP2 POP PUSH1 0x0 DUP3 ADD PUSH1 0x0 SWAP1 SLOAD SWAP1 PUSH2 0x100 EXP SWAP1 DIV PUSH1 0xFF AND DUP2 PUSH1 0x0 ADD PUSH1 0x0 PUSH2 0x100 EXP DUP2 SLOAD DUP2 PUSH1 0xFF MUL NOT AND SWAP1 DUP4 ISZERO ISZERO MUL OR SWAP1 SSTORE POP PUSH1 0x0 DUP3 ADD PUSH1 0x1 SWAP1 SLOAD SWAP1 PUSH2 0x100 EXP SWAP1 DIV PUSH1 0xFF AND DUP2 PUSH1 0x0 ADD PUSH1 0x1 PUSH2 0x100 EXP DUP2 SLOAD DUP2 PUSH1 0xFF MUL NOT AND SWAP1 DUP4 ISZERO ISZERO MUL OR SWAP1 SSTORE POP PUSH1 0x0 DUP3 ADD PUSH1 0x2 SWAP1 SLOAD SWAP1 PUSH2 0x100 EXP SWAP1 DIV PUSH20 0xFFFFFFFFFFFFFFFFFFFFFFFFFFFFFFFFFFFFFFFF AND DUP2 PUSH1 0x0 ADD PUSH1 0x2 PUSH2 0x100 EXP DUP2 SLOAD DUP2 PUSH20 0xFFFFFFFFFFFFFFFFFFFFFFFFFFFFFFFFFFFFFFFF MUL NOT AND SWAP1 DUP4 PUSH20 0xFFFFFFFFFFFFFFFFFFFFFFFFFFFFFFFFFFFFFFFF AND MUL OR SWAP1 SSTORE POP POP POP PUSH2 0x13CB JUMP JUMPDEST PUSH1 0x40 MLOAD DUP1 PUSH1 0x40 ADD PUSH1 0x40 MSTORE DUP1 PUSH1 0xC DUP2 MSTORE PUSH1 0x20 ADD PUSH32 0x6920646973617070726F76650000000000000000000000000000000000000000 DUP2 MSTORE POP DUP1 MLOAD SWAP1 PUSH1 0x20 ADD KECCAK256 DUP4 DUP1 MLOAD SWAP1 PUSH1 0x20 ADD KECCAK256 EQ ISZERO PUSH2 0x11B1 JUMPI PUSH1 0x1 DUP1 DUP4 DUP4 PUSH1 0x40 MLOAD PUSH2 0xFA7 SWAP3 SWAP2 SWAP1 PUSH2 0x3264 JUMP JUMPDEST SWAP1 DUP2 MSTORE PUSH1 0x20 ADD PUSH1 0x40 MLOAD DUP1 SWAP2 SUB SWAP1 KECCAK256 PUSH1 0x0 CALLER PUSH20 0xFFFFFFFFFFFFFFFFFFFFFFFFFFFFFFFFFFFFFFFF AND PUSH20 0xFFFFFFFFFFFFFFFFFFFFFFFFFFFFFFFFFFFFFFFF AND DUP2 MSTORE PUSH1 0x20 ADD SWAP1 DUP2 MSTORE PUSH1 0x20 ADD PUSH1 0x0 KECCAK256 PUSH1 0x0 ADD PUSH1 0x0 PUSH2 0x100 EXP DUP2 SLOAD DUP2 PUSH1 0xFF MUL NOT AND SWAP1 DUP4 ISZERO ISZERO MUL OR SWAP1 SSTORE POP PUSH1 0x1 PUSH1 0x0 DUP4 DUP4 PUSH1 0x40 MLOAD PUSH2 0x1020 SWAP3 SWAP2 SWAP1 PUSH2 0x3264 JUMP JUMPDEST SWAP1 DUP2 MSTORE PUSH1 0x20 ADD PUSH1 0x40 MLOAD DUP1 SWAP2 SUB SWAP1 KECCAK256 PUSH1 0x3 ADD PUSH1 0x0 DUP3 DUP3 SLOAD PUSH2 0x1040 SWAP2 SWAP1 PUSH2 0x36D9 JUMP JUMPDEST SWAP3 POP POP DUP2 SWAP1 SSTORE POP PUSH1 0x2 DUP3 DUP3 PUSH1 0x40 MLOAD PUSH2 0x1059 SWAP3 SWAP2 SWAP1 PUSH2 0x3264 JUMP JUMPDEST SWAP1 DUP2 MSTORE PUSH1 0x20 ADD PUSH1 0x40 MLOAD DUP1 SWAP2 SUB SWAP1 KECCAK256 PUSH1 0x1 DUP4 DUP4 PUSH1 0x40 MLOAD PUSH2 0x1079 SWAP3 SWAP2 SWAP1 PUSH2 0x3264 JUMP JUMPDEST SWAP1 DUP2 MSTORE PUSH1 0x20 ADD PUSH1 0x40 MLOAD DUP1 SWAP2 SUB SWAP1 KECCAK256 PUSH1 0x0 CALLER PUSH20 0xFFFFFFFFFFFFFFFFFFFFFFFFFFFFFFFFFFFFFFFF AND PUSH20 0xFFFFFFFFFFFFFFFFFFFFFFFFFFFFFFFFFFFFFFFF AND DUP2 MSTORE PUSH1 0x20 ADD SWAP1 DUP2 MSTORE PUSH1 0x20 ADD PUSH1 0x0 KECCAK256 SWAP1 DUP1 PUSH1 0x1 DUP2 SLOAD ADD DUP1 DUP3 SSTORE DUP1 SWAP2 POP POP PUSH1 0x1 SWAP1 SUB SWAP1 PUSH1 0x0 MSTORE PUSH1 0x20 PUSH1 0x0 KECCAK256 ADD PUSH1 0x0 SWAP1 SWAP2 SWAP1 SWAP2 SWAP1 SWAP2 POP PUSH1 0x0 DUP3 ADD PUSH1 0x0 SWAP1 SLOAD SWAP1 PUSH2 0x100 EXP SWAP1 DIV PUSH1 0xFF AND DUP2 PUSH1 0x0 ADD PUSH1 0x0 PUSH2 0x100 EXP DUP2 SLOAD DUP2 PUSH1 0xFF MUL NOT AND SWAP1 DUP4 ISZERO ISZERO MUL OR SWAP1 SSTORE POP PUSH1 0x0 DUP3 ADD PUSH1 0x1 SWAP1 SLOAD SWAP1 PUSH2 0x100 EXP SWAP1 DIV PUSH1 0xFF AND DUP2 PUSH1 0x0 ADD PUSH1 0x1 PUSH2 0x100 EXP DUP2 SLOAD DUP2 PUSH1 0xFF MUL NOT AND SWAP1 DUP4 ISZERO ISZERO MUL OR SWAP1 SSTORE POP PUSH1 0x0 DUP3 ADD PUSH1 0x2 SWAP1 SLOAD SWAP1 PUSH2 0x100 EXP SWAP1 DIV PUSH20 0xFFFFFFFFFFFFFFFFFFFFFFFFFFFFFFFFFFFFFFFF AND DUP2 PUSH1 0x0 ADD PUSH1 0x2 PUSH2 0x100 EXP DUP2 SLOAD DUP2 PUSH20 0xFFFFFFFFFFFFFFFFFFFFFFFFFFFFFFFFFFFFFFFF MUL NOT AND SWAP1 DUP4 PUSH20 0xFFFFFFFFFFFFFFFFFFFFFFFFFFFFFFFFFFFFFFFF AND MUL OR SWAP1 SSTORE POP POP POP PUSH2 0x13CA JUMP JUMPDEST PUSH1 0x1 DUP1 DUP4 DUP4 PUSH1 0x40 MLOAD PUSH2 0x11C4 SWAP3 SWAP2 SWAP1 PUSH2 0x3264 JUMP JUMPDEST SWAP1 DUP2 MSTORE PUSH1 0x20 ADD PUSH1 0x40 MLOAD DUP1 SWAP2 SUB SWAP1 KECCAK256 PUSH1 0x0 CALLER PUSH20 0xFFFFFFFFFFFFFFFFFFFFFFFFFFFFFFFFFFFFFFFF AND PUSH20 0xFFFFFFFFFFFFFFFFFFFFFFFFFFFFFFFFFFFFFFFF AND DUP2 MSTORE PUSH1 0x20 ADD SWAP1 DUP2 MSTORE PUSH1 0x20 ADD PUSH1 0x0 KECCAK256 PUSH1 0x0 ADD PUSH1 0x0 PUSH2 0x100 EXP DUP2 SLOAD DUP2 PUSH1 0xFF MUL NOT AND SWAP1 DUP4 ISZERO ISZERO MUL OR SWAP1 SSTORE POP PUSH1 0x1 PUSH1 0x0 DUP4 DUP4 PUSH1 0x40 MLOAD PUSH2 0x123D SWAP3 SWAP2 SWAP1 PUSH2 0x3264 JUMP JUMPDEST SWAP1 DUP2 MSTORE PUSH1 0x20 ADD PUSH1 0x40 MLOAD DUP1 SWAP2 SUB SWAP1 KECCAK256 PUSH1 0x3 ADD PUSH1 0x0 DUP3 DUP3 SLOAD PUSH2 0x125D SWAP2 SWAP1 PUSH2 0x36D9 JUMP JUMPDEST SWAP3 POP POP DUP2 SWAP1 SSTORE POP PUSH1 0x2 DUP3 DUP3 PUSH1 0x40 MLOAD PUSH2 0x1276 SWAP3 SWAP2 SWAP1 PUSH2 0x3264 JUMP JUMPDEST SWAP1 DUP2 MSTORE PUSH1 0x20 ADD PUSH1 0x40 MLOAD DUP1 SWAP2 SUB SWAP1 KECCAK256 PUSH1 0x1 DUP4 DUP4 PUSH1 0x40 MLOAD PUSH2 0x1296 SWAP3 SWAP2 SWAP1 PUSH2 0x3264 JUMP JUMPDEST SWAP1 DUP2 MSTORE PUSH1 0x20 ADD PUSH1 0x40 MLOAD DUP1 SWAP2 SUB SWAP1 KECCAK256 PUSH1 0x0 CALLER PUSH20 0xFFFFFFFFFFFFFFFFFFFFFFFFFFFFFFFFFFFFFFFF AND PUSH20 0xFFFFFFFFFFFFFFFFFFFFFFFFFFFFFFFFFFFFFFFF AND DUP2 MSTORE PUSH1 0x20 ADD SWAP1 DUP2 MSTORE PUSH1 0x20 ADD PUSH1 0x0 KECCAK256 SWAP1 DUP1 PUSH1 0x1 DUP2 SLOAD ADD DUP1 DUP3 SSTORE DUP1 SWAP2 POP POP PUSH1 0x1 SWAP1 SUB SWAP1 PUSH1 0x0 MSTORE PUSH1 0x20 PUSH1 0x0 KECCAK256 ADD PUSH1 0x0 SWAP1 SWAP2 SWAP1 SWAP2 SWAP1 SWAP2 POP PUSH1 0x0 DUP3 ADD PUSH1 0x0 SWAP1 SLOAD SWAP1 PUSH2 0x100 EXP SWAP1 DIV PUSH1 0xFF AND DUP2 PUSH1 0x0 ADD PUSH1 0x0 PUSH2 0x100 EXP DUP2 SLOAD DUP2 PUSH1 0xFF MUL NOT AND SWAP1 DUP4 ISZERO ISZERO MUL OR SWAP1 SSTORE POP PUSH1 0x0 DUP3 ADD PUSH1 0x1 SWAP1 SLOAD SWAP1 PUSH2 0x100 EXP SWAP1 DIV PUSH1 0xFF AND DUP2 PUSH1 0x0 ADD PUSH1 0x1 PUSH2 0x100 EXP DUP2 SLOAD DUP2 PUSH1 0xFF MUL NOT AND SWAP1 DUP4 ISZERO ISZERO MUL OR SWAP1 SSTORE POP PUSH1 0x0 DUP3 ADD PUSH1 0x2 SWAP1 SLOAD SWAP1 PUSH2 0x100 EXP SWAP1 DIV PUSH20 0xFFFFFFFFFFFFFFFFFFFFFFFFFFFFFFFFFFFFFFFF AND DUP2 PUSH1 0x0 ADD PUSH1 0x2 PUSH2 0x100 EXP DUP2 SLOAD DUP2 PUSH20 0xFFFFFFFFFFFFFFFFFFFFFFFFFFFFFFFFFFFFFFFF MUL NOT AND SWAP1 DUP4 PUSH20 0xFFFFFFFFFFFFFFFFFFFFFFFFFFFFFFFFFFFFFFFF AND MUL OR SWAP1 SSTORE POP POP POP JUMPDEST JUMPDEST POP POP POP JUMP JUMPDEST PUSH1 0x1 DUP3 DUP1 MLOAD PUSH1 0x20 DUP2 ADD DUP3 ADD DUP1 MLOAD DUP5 DUP3 MSTORE PUSH1 0x20 DUP4 ADD PUSH1 0x20 DUP6 ADD KECCAK256 DUP2 DUP4 MSTORE DUP1 SWAP6 POP POP POP POP POP POP PUSH1 0x20 MSTORE DUP1 PUSH1 0x0 MSTORE PUSH1 0x40 PUSH1 0x0 KECCAK256 PUSH1 0x0 SWAP2 POP SWAP2 POP POP DUP1 PUSH1 0x0 ADD PUSH1 0x0 SWAP1 SLOAD SWAP1 PUSH2 0x100 EXP SWAP1 DIV PUSH1 0xFF AND SWAP1 DUP1 PUSH1 0x0 ADD PUSH1 0x1 SWAP1 SLOAD SWAP1 PUSH2 0x100 EXP SWAP1 DIV PUSH1 0xFF AND SWAP1 DUP1 PUSH1 0x0 ADD PUSH1 0x2 SWAP1 SLOAD SWAP1 PUSH2 0x100 EXP SWAP1 DIV PUSH20 0xFFFFFFFFFFFFFFFFFFFFFFFFFFFFFFFFFFFFFFFF AND SWAP1 POP DUP4 JUMP JUMPDEST PUSH1 0x0 PUSH1 0x60 PUSH1 0x0 PUSH1 0x60 PUSH1 0x0 DUP7 DUP7 PUSH1 0x40 MLOAD PUSH2 0x1471 SWAP3 SWAP2 SWAP1 PUSH2 0x3264 JUMP JUMPDEST SWAP1 DUP2 MSTORE PUSH1 0x20 ADD PUSH1 0x40 MLOAD DUP1 SWAP2 SUB SWAP1 KECCAK256 PUSH1 0x4 ADD SLOAD TIMESTAMP LT ISZERO PUSH2 0x14C5 JUMPI PUSH1 0x40 MLOAD PUSH32 0x8C379A000000000000000000000000000000000000000000000000000000000 DUP2 MSTORE PUSH1 0x4 ADD PUSH2 0x14BC SWAP1 PUSH2 0x3590 JUMP JUMPDEST PUSH1 0x40 MLOAD DUP1 SWAP2 SUB SWAP1 REVERT JUMPDEST PUSH1 0x0 PUSH1 0x2 DUP8 DUP8 PUSH1 0x40 MLOAD PUSH2 0x14D9 SWAP3 SWAP2 SWAP1 PUSH2 0x3264 JUMP JUMPDEST SWAP1 DUP2 MSTORE PUSH1 0x20 ADD PUSH1 0x40 MLOAD DUP1 SWAP2 SUB SWAP1 KECCAK256 DUP1 SLOAD DUP1 PUSH1 0x20 MUL PUSH1 0x20 ADD PUSH1 0x40 MLOAD SWAP1 DUP2 ADD PUSH1 0x40 MSTORE DUP1 SWAP3 SWAP2 SWAP1 DUP2 DUP2 MSTORE PUSH1 0x20 ADD PUSH1 0x0 SWAP1 JUMPDEST DUP3 DUP3 LT ISZERO PUSH2 0x15C1 JUMPI DUP4 DUP3 SWAP1 PUSH1 0x0 MSTORE PUSH1 0x20 PUSH1 0x0 KECCAK256 ADD PUSH1 0x40 MLOAD DUP1 PUSH1 0x60 ADD PUSH1 0x40 MSTORE SWAP1 DUP2 PUSH1 0x0 DUP3 ADD PUSH1 0x0 SWAP1 SLOAD SWAP1 PUSH2 0x100 EXP SWAP1 DIV PUSH1 0xFF AND ISZERO ISZERO ISZERO ISZERO DUP2 MSTORE PUSH1 0x20 ADD PUSH1 0x0 DUP3 ADD PUSH1 0x1 SWAP1 SLOAD SWAP1 PUSH2 0x100 EXP SWAP1 DIV PUSH1 0xFF AND ISZERO ISZERO ISZERO ISZERO DUP2 MSTORE PUSH1 0x20 ADD PUSH1 0x0 DUP3 ADD PUSH1 0x2 SWAP1 SLOAD SWAP1 PUSH2 0x100 EXP SWAP1 DIV PUSH20 0xFFFFFFFFFFFFFFFFFFFFFFFFFFFFFFFFFFFFFFFF AND PUSH20 0xFFFFFFFFFFFFFFFFFFFFFFFFFFFFFFFFFFFFFFFF AND PUSH20 0xFFFFFFFFFFFFFFFFFFFFFFFFFFFFFFFFFFFFFFFF AND DUP2 MSTORE POP POP DUP2 MSTORE PUSH1 0x20 ADD SWAP1 PUSH1 0x1 ADD SWAP1 PUSH2 0x1507 JUMP JUMPDEST POP POP POP POP SWAP1 POP PUSH1 0x0 DUP1 DUP9 DUP9 PUSH1 0x40 MLOAD PUSH2 0x15DA SWAP3 SWAP2 SWAP1 PUSH2 0x3264 JUMP JUMPDEST SWAP1 DUP2 MSTORE PUSH1 0x20 ADD PUSH1 0x40 MLOAD DUP1 SWAP2 SUB SWAP1 KECCAK256 PUSH1 0x0 ADD DUP1 SLOAD PUSH2 0x15F6 SWAP1 PUSH2 0x385B JUMP JUMPDEST DUP1 PUSH1 0x1F ADD PUSH1 0x20 DUP1 SWAP2 DIV MUL PUSH1 0x20 ADD PUSH1 0x40 MLOAD SWAP1 DUP2 ADD PUSH1 0x40 MSTORE DUP1 SWAP3 SWAP2 SWAP1 DUP2 DUP2 MSTORE PUSH1 0x20 ADD DUP3 DUP1 SLOAD PUSH2 0x1622 SWAP1 PUSH2 0x385B JUMP JUMPDEST DUP1 ISZERO PUSH2 0x166F JUMPI DUP1 PUSH1 0x1F LT PUSH2 0x1644 JUMPI PUSH2 0x100 DUP1 DUP4 SLOAD DIV MUL DUP4 MSTORE SWAP2 PUSH1 0x20 ADD SWAP2 PUSH2 0x166F JUMP JUMPDEST DUP3 ADD SWAP2 SWAP1 PUSH1 0x0 MSTORE PUSH1 0x20 PUSH1 0x0 KECCAK256 SWAP1 JUMPDEST DUP2 SLOAD DUP2 MSTORE SWAP1 PUSH1 0x1 ADD SWAP1 PUSH1 0x20 ADD DUP1 DUP4 GT PUSH2 0x1652 JUMPI DUP3 SWAP1 SUB PUSH1 0x1F AND DUP3 ADD SWAP2 JUMPDEST POP POP POP POP POP SWAP1 POP PUSH1 0x0 DUP1 DUP10 DUP10 PUSH1 0x40 MLOAD PUSH2 0x1689 SWAP3 SWAP2 SWAP1 PUSH2 0x3264 JUMP JUMPDEST SWAP1 DUP2 MSTORE PUSH1 0x20 ADD PUSH1 0x40 MLOAD DUP1 SWAP2 SUB SWAP1 KECCAK256 PUSH1 0x8 ADD SLOAD SWAP1 POP PUSH1 0x0 DUP1 DUP11 DUP11 PUSH1 0x40 MLOAD PUSH2 0x16B0 SWAP3 SWAP2 SWAP1 PUSH2 0x3264 JUMP JUMPDEST SWAP1 DUP2 MSTORE PUSH1 0x20 ADD PUSH1 0x40 MLOAD DUP1 SWAP2 SUB SWAP1 KECCAK256 PUSH1 0x3 ADD SLOAD SWAP1 POP DUP2 DUP4 DUP3 DUP7 SWAP8 POP SWAP8 POP SWAP8 POP SWAP8 POP POP POP POP POP SWAP3 SWAP6 SWAP2 SWAP5 POP SWAP3 POP JUMP JUMPDEST PUSH1 0x0 DUP3 DUP3 PUSH1 0x40 MLOAD PUSH2 0x16EF SWAP3 SWAP2 SWAP1 PUSH2 0x3264 JUMP JUMPDEST SWAP1 DUP2 MSTORE PUSH1 0x20 ADD PUSH1 0x40 MLOAD DUP1 SWAP2 SUB SWAP1 KECCAK256 PUSH1 0x1 ADD PUSH1 0x0 SWAP1 SLOAD SWAP1 PUSH2 0x100 EXP SWAP1 DIV PUSH20 0xFFFFFFFFFFFFFFFFFFFFFFFFFFFFFFFFFFFFFFFF AND PUSH20 0xFFFFFFFFFFFFFFFFFFFFFFFFFFFFFFFFFFFFFFFF AND CALLER PUSH20 0xFFFFFFFFFFFFFFFFFFFFFFFFFFFFFFFFFFFFFFFF AND EQ PUSH2 0x178E JUMPI PUSH1 0x40 MLOAD PUSH32 0x8C379A000000000000000000000000000000000000000000000000000000000 DUP2 MSTORE PUSH1 0x4 ADD PUSH2 0x1785 SWAP1 PUSH2 0x3570 JUMP JUMPDEST PUSH1 0x40 MLOAD DUP1 SWAP2 SUB SWAP1 REVERT JUMPDEST PUSH1 0x0 DUP3 DUP3 PUSH1 0x40 MLOAD PUSH2 0x17A0 SWAP3 SWAP2 SWAP1 PUSH2 0x3264 JUMP JUMPDEST SWAP1 DUP2 MSTORE PUSH1 0x20 ADD PUSH1 0x40 MLOAD DUP1 SWAP2 SUB SWAP1 KECCAK256 PUSH1 0x1 ADD PUSH1 0x0 SWAP1 SLOAD SWAP1 PUSH2 0x100 EXP SWAP1 DIV PUSH20 0xFFFFFFFFFFFFFFFFFFFFFFFFFFFFFFFFFFFFFFFF AND PUSH20 0xFFFFFFFFFFFFFFFFFFFFFFFFFFFFFFFFFFFFFFFF AND DUP4 PUSH20 0xFFFFFFFFFFFFFFFFFFFFFFFFFFFFFFFFFFFFFFFF AND EQ ISZERO PUSH2 0x1840 JUMPI PUSH1 0x40 MLOAD PUSH32 0x8C379A000000000000000000000000000000000000000000000000000000000 DUP2 MSTORE PUSH1 0x4 ADD PUSH2 0x1837 SWAP1 PUSH2 0x3510 JUMP JUMPDEST PUSH1 0x40 MLOAD DUP1 SWAP2 SUB SWAP1 REVERT JUMPDEST PUSH1 0x0 PUSH20 0xFFFFFFFFFFFFFFFFFFFFFFFFFFFFFFFFFFFFFFFF AND PUSH1 0x1 DUP4 DUP4 PUSH1 0x40 MLOAD PUSH2 0x186A SWAP3 SWAP2 SWAP1 PUSH2 0x3264 JUMP JUMPDEST SWAP1 DUP2 MSTORE PUSH1 0x20 ADD PUSH1 0x40 MLOAD DUP1 SWAP2 SUB SWAP1 KECCAK256 PUSH1 0x0 DUP6 PUSH20 0xFFFFFFFFFFFFFFFFFFFFFFFFFFFFFFFFFFFFFFFF AND PUSH20 0xFFFFFFFFFFFFFFFFFFFFFFFFFFFFFFFFFFFFFFFF AND DUP2 MSTORE PUSH1 0x20 ADD SWAP1 DUP2 MSTORE PUSH1 0x20 ADD PUSH1 0x0 KECCAK256 PUSH1 0x0 ADD PUSH1 0x2 SWAP1 SLOAD SWAP1 PUSH2 0x100 EXP SWAP1 DIV PUSH20 0xFFFFFFFFFFFFFFFFFFFFFFFFFFFFFFFFFFFFFFFF AND PUSH20 0xFFFFFFFFFFFFFFFFFFFFFFFFFFFFFFFFFFFFFFFF AND EQ PUSH2 0x192F JUMPI PUSH1 0x40 MLOAD PUSH32 0x8C379A000000000000000000000000000000000000000000000000000000000 DUP2 MSTORE PUSH1 0x4 ADD PUSH2 0x1926 SWAP1 PUSH2 0x3490 JUMP JUMPDEST PUSH1 0x40 MLOAD DUP1 SWAP2 SUB SWAP1 REVERT JUMPDEST PUSH1 0x0 DUP3 DUP3 PUSH1 0x40 MLOAD PUSH2 0x1941 SWAP3 SWAP2 SWAP1 PUSH2 0x3264 JUMP JUMPDEST SWAP1 DUP2 MSTORE PUSH1 0x20 ADD PUSH1 0x40 MLOAD DUP1 SWAP2 SUB SWAP1 KECCAK256 PUSH1 0x4 ADD SLOAD TIMESTAMP LT PUSH2 0x1994 JUMPI PUSH1 0x40 MLOAD PUSH32 0x8C379A000000000000000000000000000000000000000000000000000000000 DUP2 MSTORE PUSH1 0x4 ADD PUSH2 0x198B SWAP1 PUSH2 0x3550 JUMP JUMPDEST PUSH1 0x40 MLOAD DUP1 SWAP2 SUB SWAP1 REVERT JUMPDEST PUSH1 0x0 PUSH1 0x40 MLOAD DUP1 PUSH1 0x60 ADD PUSH1 0x40 MSTORE DUP1 PUSH1 0x0 ISZERO ISZERO DUP2 MSTORE PUSH1 0x20 ADD PUSH1 0x0 ISZERO ISZERO DUP2 MSTORE PUSH1 0x20 ADD DUP6 PUSH20 0xFFFFFFFFFFFFFFFFFFFFFFFFFFFFFFFFFFFFFFFF AND DUP2 MSTORE POP SWAP1 POP DUP1 PUSH1 0x1 DUP5 DUP5 PUSH1 0x40 MLOAD PUSH2 0x19E2 SWAP3 SWAP2 SWAP1 PUSH2 0x3264 JUMP JUMPDEST SWAP1 DUP2 MSTORE PUSH1 0x20 ADD PUSH1 0x40 MLOAD DUP1 SWAP2 SUB SWAP1 KECCAK256 PUSH1 0x0 DUP7 PUSH20 0xFFFFFFFFFFFFFFFFFFFFFFFFFFFFFFFFFFFFFFFF AND PUSH20 0xFFFFFFFFFFFFFFFFFFFFFFFFFFFFFFFFFFFFFFFF AND DUP2 MSTORE PUSH1 0x20 ADD SWAP1 DUP2 MSTORE PUSH1 0x20 ADD PUSH1 0x0 KECCAK256 PUSH1 0x0 DUP3 ADD MLOAD DUP2 PUSH1 0x0 ADD PUSH1 0x0 PUSH2 0x100 EXP DUP2 SLOAD DUP2 PUSH1 0xFF MUL NOT AND SWAP1 DUP4 ISZERO ISZERO MUL OR SWAP1 SSTORE POP PUSH1 0x20 DUP3 ADD MLOAD DUP2 PUSH1 0x0 ADD PUSH1 0x1 PUSH2 0x100 EXP DUP2 SLOAD DUP2 PUSH1 0xFF MUL NOT AND SWAP1 DUP4 ISZERO ISZERO MUL OR SWAP1 SSTORE POP PUSH1 0x40 DUP3 ADD MLOAD DUP2 PUSH1 0x0 ADD PUSH1 0x2 PUSH2 0x100 EXP DUP2 SLOAD DUP2 PUSH20 0xFFFFFFFFFFFFFFFFFFFFFFFFFFFFFFFFFFFFFFFF MUL NOT AND SWAP1 DUP4 PUSH20 0xFFFFFFFFFFFFFFFFFFFFFFFFFFFFFFFFFFFFFFFF AND MUL OR SWAP1 SSTORE POP SWAP1 POP POP PUSH1 0x3 DUP4 DUP4 PUSH1 0x40 MLOAD PUSH2 0x1AC9 SWAP3 SWAP2 SWAP1 PUSH2 0x3264 JUMP JUMPDEST SWAP1 DUP2 MSTORE PUSH1 0x20 ADD PUSH1 0x40 MLOAD DUP1 SWAP2 SUB SWAP1 KECCAK256 DUP5 SWAP1 DUP1 PUSH1 0x1 DUP2 SLOAD ADD DUP1 DUP3 SSTORE DUP1 SWAP2 POP POP PUSH1 0x1 SWAP1 SUB SWAP1 PUSH1 0x0 MSTORE PUSH1 0x20 PUSH1 0x0 KECCAK256 ADD PUSH1 0x0 SWAP1 SWAP2 SWAP1 SWAP2 SWAP1 SWAP2 PUSH2 0x100 EXP DUP2 SLOAD DUP2 PUSH20 0xFFFFFFFFFFFFFFFFFFFFFFFFFFFFFFFFFFFFFFFF MUL NOT AND SWAP1 DUP4 PUSH20 0xFFFFFFFFFFFFFFFFFFFFFFFFFFFFFFFFFFFFFFFF AND MUL OR SWAP1 SSTORE POP POP POP POP POP JUMP JUMPDEST PUSH1 0x60 PUSH1 0x0 DUP1 PUSH1 0x0 DUP1 PUSH1 0x0 DUP8 DUP8 PUSH1 0x40 MLOAD PUSH2 0x1B58 SWAP3 SWAP2 SWAP1 PUSH2 0x3264 JUMP JUMPDEST SWAP1 DUP2 MSTORE PUSH1 0x20 ADD PUSH1 0x40 MLOAD DUP1 SWAP2 SUB SWAP1 KECCAK256 PUSH1 0x0 ADD PUSH1 0x0 DUP9 DUP9 PUSH1 0x40 MLOAD PUSH2 0x1B7B SWAP3 SWAP2 SWAP1 PUSH2 0x3264 JUMP JUMPDEST SWAP1 DUP2 MSTORE PUSH1 0x20 ADD PUSH1 0x40 MLOAD DUP1 SWAP2 SUB SWAP1 KECCAK256 PUSH1 0x4 ADD SLOAD PUSH1 0x0 DUP10 DUP10 PUSH1 0x40 MLOAD PUSH2 0x1B9F SWAP3 SWAP2 SWAP1 PUSH2 0x3264 JUMP JUMPDEST SWAP1 DUP2 MSTORE PUSH1 0x20 ADD PUSH1 0x40 MLOAD DUP1 SWAP2 SUB SWAP1 KECCAK256 PUSH1 0x1 ADD PUSH1 0x0 SWAP1 SLOAD SWAP1 PUSH2 0x100 EXP SWAP1 DIV PUSH20 0xFFFFFFFFFFFFFFFFFFFFFFFFFFFFFFFFFFFFFFFF AND PUSH1 0x0 DUP11 DUP11 PUSH1 0x40 MLOAD PUSH2 0x1BE3 SWAP3 SWAP2 SWAP1 PUSH2 0x3264 JUMP JUMPDEST SWAP1 DUP2 MSTORE PUSH1 0x20 ADD PUSH1 0x40 MLOAD DUP1 SWAP2 SUB SWAP1 KECCAK256 PUSH1 0x5 ADD SLOAD PUSH1 0x0 DUP12 DUP12 PUSH1 0x40 MLOAD PUSH2 0x1C07 SWAP3 SWAP2 SWAP1 PUSH2 0x3264 JUMP JUMPDEST SWAP1 DUP2 MSTORE PUSH1 0x20 ADD PUSH1 0x40 MLOAD DUP1 SWAP2 SUB SWAP1 KECCAK256 PUSH1 0x6 ADD SLOAD DUP5 DUP1 SLOAD PUSH2 0x1C25 SWAP1 PUSH2 0x385B JUMP JUMPDEST DUP1 PUSH1 0x1F ADD PUSH1 0x20 DUP1 SWAP2 DIV MUL PUSH1 0x20 ADD PUSH1 0x40 MLOAD SWAP1 DUP2 ADD PUSH1 0x40 MSTORE DUP1 SWAP3 SWAP2 SWAP1 DUP2 DUP2 MSTORE PUSH1 0x20 ADD DUP3 DUP1 SLOAD PUSH2 0x1C51 SWAP1 PUSH2 0x385B JUMP JUMPDEST DUP1 ISZERO PUSH2 0x1C9E JUMPI DUP1 PUSH1 0x1F LT PUSH2 0x1C73 JUMPI PUSH2 0x100 DUP1 DUP4 SLOAD DIV MUL DUP4 MSTORE SWAP2 PUSH1 0x20 ADD SWAP2 PUSH2 0x1C9E JUMP JUMPDEST DUP3 ADD SWAP2 SWAP1 PUSH1 0x0 MSTORE PUSH1 0x20 PUSH1 0x0 KECCAK256 SWAP1 JUMPDEST DUP2 SLOAD DUP2 MSTORE SWAP1 PUSH1 0x1 ADD SWAP1 PUSH1 0x20 ADD DUP1 DUP4 GT PUSH2 0x1C81 JUMPI DUP3 SWAP1 SUB PUSH1 0x1F AND DUP3 ADD SWAP2 JUMPDEST POP POP POP POP POP SWAP5 POP SWAP5 POP SWAP5 POP SWAP5 POP SWAP5 POP SWAP5 POP SWAP3 SWAP6 POP SWAP3 SWAP6 SWAP1 SWAP4 POP JUMP JUMPDEST PUSH1 0x0 DUP1 PUSH1 0x0 PUSH1 0x1 DUP6 DUP6 PUSH1 0x40 MLOAD PUSH2 0x1CD0 SWAP3 SWAP2 SWAP1 PUSH2 0x3264 JUMP JUMPDEST SWAP1 DUP2 MSTORE PUSH1 0x20 ADD PUSH1 0x40 MLOAD DUP1 SWAP2 SUB SWAP1 KECCAK256 PUSH1 0x0 DUP8 PUSH20 0xFFFFFFFFFFFFFFFFFFFFFFFFFFFFFFFFFFFFFFFF AND PUSH20 0xFFFFFFFFFFFFFFFFFFFFFFFFFFFFFFFFFFFFFFFF AND DUP2 MSTORE PUSH1 0x20 ADD SWAP1 DUP2 MSTORE PUSH1 0x20 ADD PUSH1 0x0 KECCAK256 PUSH1 0x0 ADD PUSH1 0x1 SWAP1 SLOAD SWAP1 PUSH2 0x100 EXP SWAP1 DIV PUSH1 0xFF AND PUSH1 0x1 DUP7 DUP7 PUSH1 0x40 MLOAD PUSH2 0x1D3E SWAP3 SWAP2 SWAP1 PUSH2 0x3264 JUMP JUMPDEST SWAP1 DUP2 MSTORE PUSH1 0x20 ADD PUSH1 0x40 MLOAD DUP1 SWAP2 SUB SWAP1 KECCAK256 PUSH1 0x0 DUP9 PUSH20 0xFFFFFFFFFFFFFFFFFFFFFFFFFFFFFFFFFFFFFFFF AND PUSH20 0xFFFFFFFFFFFFFFFFFFFFFFFFFFFFFFFFFFFFFFFF AND DUP2 MSTORE PUSH1 0x20 ADD SWAP1 DUP2 MSTORE PUSH1 0x20 ADD PUSH1 0x0 KECCAK256 PUSH1 0x0 ADD PUSH1 0x0 SWAP1 SLOAD SWAP1 PUSH2 0x100 EXP SWAP1 DIV PUSH1 0xFF AND PUSH1 0x1 DUP8 DUP8 PUSH1 0x40 MLOAD PUSH2 0x1DAC SWAP3 SWAP2 SWAP1 PUSH2 0x3264 JUMP JUMPDEST SWAP1 DUP2 MSTORE PUSH1 0x20 ADD PUSH1 0x40 MLOAD DUP1 SWAP2 SUB SWAP1 KECCAK256 PUSH1 0x0 DUP10 PUSH20 0xFFFFFFFFFFFFFFFFFFFFFFFFFFFFFFFFFFFFFFFF AND PUSH20 0xFFFFFFFFFFFFFFFFFFFFFFFFFFFFFFFFFFFFFFFF AND DUP2 MSTORE PUSH1 0x20 ADD SWAP1 DUP2 MSTORE PUSH1 0x20 ADD PUSH1 0x0 KECCAK256 PUSH1 0x0 ADD PUSH1 0x2 SWAP1 SLOAD SWAP1 PUSH2 0x100 EXP SWAP1 DIV PUSH20 0xFFFFFFFFFFFFFFFFFFFFFFFFFFFFFFFFFFFFFFFF AND SWAP3 POP SWAP3 POP SWAP3 POP SWAP4 POP SWAP4 POP SWAP4 SWAP1 POP JUMP JUMPDEST PUSH1 0x0 DUP3 DUP3 PUSH1 0x40 MLOAD PUSH2 0x1E3C SWAP3 SWAP2 SWAP1 PUSH2 0x3264 JUMP JUMPDEST SWAP1 DUP2 MSTORE PUSH1 0x20 ADD PUSH1 0x40 MLOAD DUP1 SWAP2 SUB SWAP1 KECCAK256 PUSH1 0x4 ADD SLOAD TIMESTAMP LT ISZERO PUSH2 0x1E90 JUMPI PUSH1 0x40 MLOAD PUSH32 0x8C379A000000000000000000000000000000000000000000000000000000000 DUP2 MSTORE PUSH1 0x4 ADD PUSH2 0x1E87 SWAP1 PUSH2 0x3590 JUMP JUMPDEST PUSH1 0x40 MLOAD DUP1 SWAP2 SUB SWAP1 REVERT JUMPDEST PUSH1 0x0 ISZERO ISZERO PUSH1 0x0 DUP4 DUP4 PUSH1 0x40 MLOAD PUSH2 0x1EA6 SWAP3 SWAP2 SWAP1 PUSH2 0x3264 JUMP JUMPDEST SWAP1 DUP2 MSTORE PUSH1 0x20 ADD PUSH1 0x40 MLOAD DUP1 SWAP2 SUB SWAP1 KECCAK256 PUSH1 0x7 ADD PUSH1 0x0 SWAP1 SLOAD SWAP1 PUSH2 0x100 EXP SWAP1 DIV PUSH1 0xFF AND ISZERO ISZERO EQ PUSH2 0x1F07 JUMPI PUSH1 0x40 MLOAD PUSH32 0x8C379A000000000000000000000000000000000000000000000000000000000 DUP2 MSTORE PUSH1 0x4 ADD PUSH2 0x1EFE SWAP1 PUSH2 0x35D0 JUMP JUMPDEST PUSH1 0x40 MLOAD DUP1 SWAP2 SUB SWAP1 REVERT JUMPDEST PUSH1 0x0 DUP3 DUP3 PUSH1 0x40 MLOAD PUSH2 0x1F19 SWAP3 SWAP2 SWAP1 PUSH2 0x3264 JUMP JUMPDEST SWAP1 DUP2 MSTORE PUSH1 0x20 ADD PUSH1 0x40 MLOAD DUP1 SWAP2 SUB SWAP1 KECCAK256 PUSH1 0x1 ADD PUSH1 0x0 SWAP1 SLOAD SWAP1 PUSH2 0x100 EXP SWAP1 DIV PUSH20 0xFFFFFFFFFFFFFFFFFFFFFFFFFFFFFFFFFFFFFFFF AND PUSH20 0xFFFFFFFFFFFFFFFFFFFFFFFFFFFFFFFFFFFFFFFF AND CALLER PUSH20 0xFFFFFFFFFFFFFFFFFFFFFFFFFFFFFFFFFFFFFFFF AND EQ DUP1 PUSH2 0x2031 JUMPI POP PUSH1 0x0 PUSH20 0xFFFFFFFFFFFFFFFFFFFFFFFFFFFFFFFFFFFFFFFF AND PUSH1 0x1 DUP4 DUP4 PUSH1 0x40 MLOAD PUSH2 0x1FA9 SWAP3 SWAP2 SWAP1 PUSH2 0x3264 JUMP JUMPDEST SWAP1 DUP2 MSTORE PUSH1 0x20 ADD PUSH1 0x40 MLOAD DUP1 SWAP2 SUB SWAP1 KECCAK256 PUSH1 0x0 CALLER PUSH20 0xFFFFFFFFFFFFFFFFFFFFFFFFFFFFFFFFFFFFFFFF AND PUSH20 0xFFFFFFFFFFFFFFFFFFFFFFFFFFFFFFFFFFFFFFFF AND DUP2 MSTORE PUSH1 0x20 ADD SWAP1 DUP2 MSTORE PUSH1 0x20 ADD PUSH1 0x0 KECCAK256 PUSH1 0x0 ADD PUSH1 0x2 SWAP1 SLOAD SWAP1 PUSH2 0x100 EXP SWAP1 DIV PUSH20 0xFFFFFFFFFFFFFFFFFFFFFFFFFFFFFFFFFFFFFFFF AND PUSH20 0xFFFFFFFFFFFFFFFFFFFFFFFFFFFFFFFFFFFFFFFF AND EQ ISZERO JUMPDEST PUSH2 0x2070 JUMPI PUSH1 0x40 MLOAD PUSH32 0x8C379A000000000000000000000000000000000000000000000000000000000 DUP2 MSTORE PUSH1 0x4 ADD PUSH2 0x2067 SWAP1 PUSH2 0x34D0 JUMP JUMPDEST PUSH1 0x40 MLOAD DUP1 SWAP2 SUB SWAP1 REVERT JUMPDEST PUSH1 0x0 PUSH1 0x64 PUSH1 0x3 DUP5 DUP5 PUSH1 0x40 MLOAD PUSH2 0x2086 SWAP3 SWAP2 SWAP1 PUSH2 0x3264 JUMP JUMPDEST SWAP1 DUP2 MSTORE PUSH1 0x20 ADD PUSH1 0x40 MLOAD DUP1 SWAP2 SUB SWAP1 KECCAK256 DUP1 SLOAD SWAP1 POP PUSH1 0x0 DUP6 DUP6 PUSH1 0x40 MLOAD PUSH2 0x20AA SWAP3 SWAP2 SWAP1 PUSH2 0x3264 JUMP JUMPDEST SWAP1 DUP2 MSTORE PUSH1 0x20 ADD PUSH1 0x40 MLOAD DUP1 SWAP2 SUB SWAP1 KECCAK256 PUSH1 0x6 ADD SLOAD PUSH2 0x20C6 SWAP2 SWAP1 PUSH2 0x372F JUMP JUMPDEST PUSH2 0x20D0 SWAP2 SWAP1 PUSH2 0x3760 JUMP JUMPDEST SWAP1 POP PUSH1 0x0 DUP4 DUP4 PUSH1 0x40 MLOAD PUSH2 0x20E4 SWAP3 SWAP2 SWAP1 PUSH2 0x3264 JUMP JUMPDEST SWAP1 DUP2 MSTORE PUSH1 0x20 ADD PUSH1 0x40 MLOAD DUP1 SWAP2 SUB SWAP1 KECCAK256 PUSH1 0x5 ADD SLOAD DUP2 LT PUSH2 0x2145 JUMPI PUSH32 0x4163636570746564000000000000000000000000000000000000000000000000 PUSH1 0x0 DUP5 DUP5 PUSH1 0x40 MLOAD PUSH2 0x212F SWAP3 SWAP2 SWAP1 PUSH2 0x3264 JUMP JUMPDEST SWAP1 DUP2 MSTORE PUSH1 0x20 ADD PUSH1 0x40 MLOAD DUP1 SWAP2 SUB SWAP1 KECCAK256 PUSH1 0x8 ADD DUP2 SWAP1 SSTORE POP JUMPDEST PUSH1 0x0 JUMPDEST PUSH1 0x3 DUP5 DUP5 PUSH1 0x40 MLOAD PUSH2 0x215A SWAP3 SWAP2 SWAP1 PUSH2 0x3264 JUMP JUMPDEST SWAP1 DUP2 MSTORE PUSH1 0x20 ADD PUSH1 0x40 MLOAD DUP1 SWAP2 SUB SWAP1 KECCAK256 DUP1 SLOAD SWAP1 POP DUP2 PUSH1 0xFF AND LT ISZERO PUSH2 0x2427 JUMPI PUSH1 0x0 ISZERO ISZERO PUSH1 0x1 DUP6 DUP6 PUSH1 0x40 MLOAD PUSH2 0x218C SWAP3 SWAP2 SWAP1 PUSH2 0x3264 JUMP JUMPDEST SWAP1 DUP2 MSTORE PUSH1 0x20 ADD PUSH1 0x40 MLOAD DUP1 SWAP2 SUB SWAP1 KECCAK256 PUSH1 0x0 PUSH1 0x3 DUP8 DUP8 PUSH1 0x40 MLOAD PUSH2 0x21AE SWAP3 SWAP2 SWAP1 PUSH2 0x3264 JUMP JUMPDEST SWAP1 DUP2 MSTORE PUSH1 0x20 ADD PUSH1 0x40 MLOAD DUP1 SWAP2 SUB SWAP1 KECCAK256 DUP5 PUSH1 0xFF AND DUP2 SLOAD DUP2 LT PUSH2 0x21D1 JUMPI PUSH2 0x21D0 PUSH2 0x3975 JUMP JUMPDEST JUMPDEST SWAP1 PUSH1 0x0 MSTORE PUSH1 0x20 PUSH1 0x0 KECCAK256 ADD PUSH1 0x0 SWAP1 SLOAD SWAP1 PUSH2 0x100 EXP SWAP1 DIV PUSH20 0xFFFFFFFFFFFFFFFFFFFFFFFFFFFFFFFFFFFFFFFF AND PUSH20 0xFFFFFFFFFFFFFFFFFFFFFFFFFFFFFFFFFFFFFFFF AND PUSH20 0xFFFFFFFFFFFFFFFFFFFFFFFFFFFFFFFFFFFFFFFF AND DUP2 MSTORE PUSH1 0x20 ADD SWAP1 DUP2 MSTORE PUSH1 0x20 ADD PUSH1 0x0 KECCAK256 PUSH1 0x0 ADD PUSH1 0x0 SWAP1 SLOAD SWAP1 PUSH2 0x100 EXP SWAP1 DIV PUSH1 0xFF AND ISZERO ISZERO EQ ISZERO PUSH2 0x2414 JUMPI PUSH1 0x2 DUP5 DUP5 PUSH1 0x40 MLOAD PUSH2 0x2261 SWAP3 SWAP2 SWAP1 PUSH2 0x3264 JUMP JUMPDEST SWAP1 DUP2 MSTORE PUSH1 0x20 ADD PUSH1 0x40 MLOAD DUP1 SWAP2 SUB SWAP1 KECCAK256 PUSH1 0x1 DUP6 DUP6 PUSH1 0x40 MLOAD PUSH2 0x2281 SWAP3 SWAP2 SWAP1 PUSH2 0x3264 JUMP JUMPDEST SWAP1 DUP2 MSTORE PUSH1 0x20 ADD PUSH1 0x40 MLOAD DUP1 SWAP2 SUB SWAP1 KECCAK256 PUSH1 0x0 PUSH1 0x3 DUP8 DUP8 PUSH1 0x40 MLOAD PUSH2 0x22A3 SWAP3 SWAP2 SWAP1 PUSH2 0x3264 JUMP JUMPDEST SWAP1 DUP2 MSTORE PUSH1 0x20 ADD PUSH1 0x40 MLOAD DUP1 SWAP2 SUB SWAP1 KECCAK256 DUP5 PUSH1 0xFF AND DUP2 SLOAD DUP2 LT PUSH2 0x22C6 JUMPI PUSH2 0x22C5 PUSH2 0x3975 JUMP JUMPDEST JUMPDEST SWAP1 PUSH1 0x0 MSTORE PUSH1 0x20 PUSH1 0x0 KECCAK256 ADD PUSH1 0x0 SWAP1 SLOAD SWAP1 PUSH2 0x100 EXP SWAP1 DIV PUSH20 0xFFFFFFFFFFFFFFFFFFFFFFFFFFFFFFFFFFFFFFFF AND PUSH20 0xFFFFFFFFFFFFFFFFFFFFFFFFFFFFFFFFFFFFFFFF AND PUSH20 0xFFFFFFFFFFFFFFFFFFFFFFFFFFFFFFFFFFFFFFFF AND DUP2 MSTORE PUSH1 0x20 ADD SWAP1 DUP2 MSTORE PUSH1 0x20 ADD PUSH1 0x0 KECCAK256 SWAP1 DUP1 PUSH1 0x1 DUP2 SLOAD ADD DUP1 DUP3 SSTORE DUP1 SWAP2 POP POP PUSH1 0x1 SWAP1 SUB SWAP1 PUSH1 0x0 MSTORE PUSH1 0x20 PUSH1 0x0 KECCAK256 ADD PUSH1 0x0 SWAP1 SWAP2 SWAP1 SWAP2 SWAP1 SWAP2 POP PUSH1 0x0 DUP3 ADD PUSH1 0x0 SWAP1 SLOAD SWAP1 PUSH2 0x100 EXP SWAP1 DIV PUSH1 0xFF AND DUP2 PUSH1 0x0 ADD PUSH1 0x0 PUSH2 0x100 EXP DUP2 SLOAD DUP2 PUSH1 0xFF MUL NOT AND SWAP1 DUP4 ISZERO ISZERO MUL OR SWAP1 SSTORE POP PUSH1 0x0 DUP3 ADD PUSH1 0x1 SWAP1 SLOAD SWAP1 PUSH2 0x100 EXP SWAP1 DIV PUSH1 0xFF AND DUP2 PUSH1 0x0 ADD PUSH1 0x1 PUSH2 0x100 EXP DUP2 SLOAD DUP2 PUSH1 0xFF MUL NOT AND SWAP1 DUP4 ISZERO ISZERO MUL OR SWAP1 SSTORE POP PUSH1 0x0 DUP3 ADD PUSH1 0x2 SWAP1 SLOAD SWAP1 PUSH2 0x100 EXP SWAP1 DIV PUSH20 0xFFFFFFFFFFFFFFFFFFFFFFFFFFFFFFFFFFFFFFFF AND DUP2 PUSH1 0x0 ADD PUSH1 0x2 PUSH2 0x100 EXP DUP2 SLOAD DUP2 PUSH20 0xFFFFFFFFFFFFFFFFFFFFFFFFFFFFFFFFFFFFFFFF MUL NOT AND SWAP1 DUP4 PUSH20 0xFFFFFFFFFFFFFFFFFFFFFFFFFFFFFFFFFFFFFFFF AND MUL OR SWAP1 SSTORE POP POP POP JUMPDEST DUP1 DUP1 PUSH2 0x241F SWAP1 PUSH2 0x38BE JUMP JUMPDEST SWAP2 POP POP PUSH2 0x2148 JUMP JUMPDEST POP PUSH1 0x1 PUSH1 0x0 DUP5 DUP5 PUSH1 0x40 MLOAD PUSH2 0x243C SWAP3 SWAP2 SWAP1 PUSH2 0x3264 JUMP JUMPDEST SWAP1 DUP2 MSTORE PUSH1 0x20 ADD PUSH1 0x40 MLOAD DUP1 SWAP2 SUB SWAP1 KECCAK256 PUSH1 0x7 ADD PUSH1 0x0 PUSH2 0x100 EXP DUP2 SLOAD DUP2 PUSH1 0xFF MUL NOT AND SWAP1 DUP4 ISZERO ISZERO MUL OR SWAP1 SSTORE POP POP POP POP JUMP JUMPDEST PUSH1 0x2 DUP3 DUP1 MLOAD PUSH1 0x20 DUP2 ADD DUP3 ADD DUP1 MLOAD DUP5 DUP3 MSTORE PUSH1 0x20 DUP4 ADD PUSH1 0x20 DUP6 ADD KECCAK256 DUP2 DUP4 MSTORE DUP1 SWAP6 POP POP POP POP POP POP DUP2 DUP2 SLOAD DUP2 LT PUSH2 0x249B JUMPI PUSH1 0x0 DUP1 REVERT JUMPDEST SWAP1 PUSH1 0x0 MSTORE PUSH1 0x20 PUSH1 0x0 KECCAK256 ADD PUSH1 0x0 SWAP2 POP SWAP2 POP POP DUP1 PUSH1 0x0 ADD PUSH1 0x0 SWAP1 SLOAD SWAP1 PUSH2 0x100 EXP SWAP1 DIV PUSH1 0xFF AND SWAP1 DUP1 PUSH1 0x0 ADD PUSH1 0x1 SWAP1 SLOAD SWAP1 PUSH2 0x100 EXP SWAP1 DIV PUSH1 0xFF AND SWAP1 DUP1 PUSH1 0x0 ADD PUSH1 0x2 SWAP1 SLOAD SWAP1 PUSH2 0x100 EXP SWAP1 DIV PUSH20 0xFFFFFFFFFFFFFFFFFFFFFFFFFFFFFFFFFFFFFFFF AND SWAP1 POP DUP4 JUMP JUMPDEST PUSH1 0x60 PUSH1 0x0 DUP4 DUP4 PUSH1 0x40 MLOAD PUSH2 0x2510 SWAP3 SWAP2 SWAP1 PUSH2 0x3264 JUMP JUMPDEST SWAP1 DUP2 MSTORE PUSH1 0x20 ADD PUSH1 0x40 MLOAD DUP1 SWAP2 SUB SWAP1 KECCAK256 PUSH1 0x0 ADD DUP1 SLOAD PUSH2 0x252C SWAP1 PUSH2 0x385B JUMP JUMPDEST DUP1 PUSH1 0x1F ADD PUSH1 0x20 DUP1 SWAP2 DIV MUL PUSH1 0x20 ADD PUSH1 0x40 MLOAD SWAP1 DUP2 ADD PUSH1 0x40 MSTORE DUP1 SWAP3 SWAP2 SWAP1 DUP2 DUP2 MSTORE PUSH1 0x20 ADD DUP3 DUP1 SLOAD PUSH2 0x2558 SWAP1 PUSH2 0x385B JUMP JUMPDEST DUP1 ISZERO PUSH2 0x25A5 JUMPI DUP1 PUSH1 0x1F LT PUSH2 0x257A JUMPI PUSH2 0x100 DUP1 DUP4 SLOAD DIV MUL DUP4 MSTORE SWAP2 PUSH1 0x20 ADD SWAP2 PUSH2 0x25A5 JUMP JUMPDEST DUP3 ADD SWAP2 SWAP1 PUSH1 0x0 MSTORE PUSH1 0x20 PUSH1 0x0 KECCAK256 SWAP1 JUMPDEST DUP2 SLOAD DUP2 MSTORE SWAP1 PUSH1 0x1 ADD SWAP1 PUSH1 0x20 ADD DUP1 DUP4 GT PUSH2 0x2588 JUMPI DUP3 SWAP1 SUB PUSH1 0x1F AND DUP3 ADD SWAP2 JUMPDEST POP POP POP POP POP SWAP1 POP SWAP3 SWAP2 POP POP JUMP JUMPDEST PUSH2 0x25BA PUSH2 0x295D JUMP JUMPDEST PUSH1 0x0 DUP4 DUP4 PUSH1 0x40 MLOAD PUSH2 0x25CC SWAP3 SWAP2 SWAP1 PUSH2 0x3264 JUMP JUMPDEST SWAP1 DUP2 MSTORE PUSH1 0x20 ADD PUSH1 0x40 MLOAD DUP1 SWAP2 SUB SWAP1 KECCAK256 PUSH1 0x40 MLOAD DUP1 PUSH2 0x160 ADD PUSH1 0x40 MSTORE SWAP1 DUP2 PUSH1 0x0 DUP3 ADD DUP1 SLOAD PUSH2 0x25F6 SWAP1 PUSH2 0x385B JUMP JUMPDEST DUP1 PUSH1 0x1F ADD PUSH1 0x20 DUP1 SWAP2 DIV MUL PUSH1 0x20 ADD PUSH1 0x40 MLOAD SWAP1 DUP2 ADD PUSH1 0x40 MSTORE DUP1 SWAP3 SWAP2 SWAP1 DUP2 DUP2 MSTORE PUSH1 0x20 ADD DUP3 DUP1 SLOAD PUSH2 0x2622 SWAP1 PUSH2 0x385B JUMP JUMPDEST DUP1 ISZERO PUSH2 0x266F JUMPI DUP1 PUSH1 0x1F LT PUSH2 0x2644 JUMPI PUSH2 0x100 DUP1 DUP4 SLOAD DIV MUL DUP4 MSTORE SWAP2 PUSH1 0x20 ADD SWAP2 PUSH2 0x266F JUMP JUMPDEST DUP3 ADD SWAP2 SWAP1 PUSH1 0x0 MSTORE PUSH1 0x20 PUSH1 0x0 KECCAK256 SWAP1 JUMPDEST DUP2 SLOAD DUP2 MSTORE SWAP1 PUSH1 0x1 ADD SWAP1 PUSH1 0x20 ADD DUP1 DUP4 GT PUSH2 0x2652 JUMPI DUP3 SWAP1 SUB PUSH1 0x1F AND DUP3 ADD SWAP2 JUMPDEST POP POP POP POP POP DUP2 MSTORE PUSH1 0x20 ADD PUSH1 0x1 DUP3 ADD PUSH1 0x0 SWAP1 SLOAD SWAP1 PUSH2 0x100 EXP SWAP1 DIV PUSH20 0xFFFFFFFFFFFFFFFFFFFFFFFFFFFFFFFFFFFFFFFF AND PUSH20 0xFFFFFFFFFFFFFFFFFFFFFFFFFFFFFFFFFFFFFFFF AND PUSH20 0xFFFFFFFFFFFFFFFFFFFFFFFFFFFFFFFFFFFFFFFF AND DUP2 MSTORE PUSH1 0x20 ADD PUSH1 0x2 DUP3 ADD PUSH1 0x0 SWAP1 SLOAD SWAP1 PUSH2 0x100 EXP SWAP1 DIV PUSH20 0xFFFFFFFFFFFFFFFFFFFFFFFFFFFFFFFFFFFFFFFF AND PUSH20 0xFFFFFFFFFFFFFFFFFFFFFFFFFFFFFFFFFFFFFFFF AND PUSH20 0xFFFFFFFFFFFFFFFFFFFFFFFFFFFFFFFFFFFFFFFF AND DUP2 MSTORE PUSH1 0x20 ADD PUSH1 0x3 DUP3 ADD SLOAD DUP2 MSTORE PUSH1 0x20 ADD PUSH1 0x4 DUP3 ADD SLOAD DUP2 MSTORE PUSH1 0x20 ADD PUSH1 0x5 DUP3 ADD SLOAD DUP2 MSTORE PUSH1 0x20 ADD PUSH1 0x6 DUP3 ADD SLOAD DUP2 MSTORE PUSH1 0x20 ADD PUSH1 0x7 DUP3 ADD PUSH1 0x0 SWAP1 SLOAD SWAP1 PUSH2 0x100 EXP SWAP1 DIV PUSH1 0xFF AND ISZERO ISZERO ISZERO ISZERO DUP2 MSTORE PUSH1 0x20 ADD PUSH1 0x8 DUP3 ADD SLOAD DUP2 MSTORE PUSH1 0x20 ADD PUSH1 0x9 DUP3 ADD DUP1 SLOAD PUSH2 0x2781 SWAP1 PUSH2 0x385B JUMP JUMPDEST DUP1 PUSH1 0x1F ADD PUSH1 0x20 DUP1 SWAP2 DIV MUL PUSH1 0x20 ADD PUSH1 0x40 MLOAD SWAP1 DUP2 ADD PUSH1 0x40 MSTORE DUP1 SWAP3 SWAP2 SWAP1 DUP2 DUP2 MSTORE PUSH1 0x20 ADD DUP3 DUP1 SLOAD PUSH2 0x27AD SWAP1 PUSH2 0x385B JUMP JUMPDEST DUP1 ISZERO PUSH2 0x27FA JUMPI DUP1 PUSH1 0x1F LT PUSH2 0x27CF JUMPI PUSH2 0x100 DUP1 DUP4 SLOAD DIV MUL DUP4 MSTORE SWAP2 PUSH1 0x20 ADD SWAP2 PUSH2 0x27FA JUMP JUMPDEST DUP3 ADD SWAP2 SWAP1 PUSH1 0x0 MSTORE PUSH1 0x20 PUSH1 0x0 KECCAK256 SWAP1 JUMPDEST DUP2 SLOAD DUP2 MSTORE SWAP1 PUSH1 0x1 ADD SWAP1 PUSH1 0x20 ADD DUP1 DUP4 GT PUSH2 0x27DD JUMPI DUP3 SWAP1 SUB PUSH1 0x1F AND DUP3 ADD SWAP2 JUMPDEST POP POP POP POP POP DUP2 MSTORE PUSH1 0x20 ADD PUSH1 0xA DUP3 ADD DUP1 SLOAD PUSH2 0x2813 SWAP1 PUSH2 0x385B JUMP JUMPDEST DUP1 PUSH1 0x1F ADD PUSH1 0x20 DUP1 SWAP2 DIV MUL PUSH1 0x20 ADD PUSH1 0x40 MLOAD SWAP1 DUP2 ADD PUSH1 0x40 MSTORE DUP1 SWAP3 SWAP2 SWAP1 DUP2 DUP2 MSTORE PUSH1 0x20 ADD DUP3 DUP1 SLOAD PUSH2 0x283F SWAP1 PUSH2 0x385B JUMP JUMPDEST DUP1 ISZERO PUSH2 0x288C JUMPI DUP1 PUSH1 0x1F LT PUSH2 0x2861 JUMPI PUSH2 0x100 DUP1 DUP4 SLOAD DIV MUL DUP4 MSTORE SWAP2 PUSH1 0x20 ADD SWAP2 PUSH2 0x288C JUMP JUMPDEST DUP3 ADD SWAP2 SWAP1 PUSH1 0x0 MSTORE PUSH1 0x20 PUSH1 0x0 KECCAK256 SWAP1 JUMPDEST DUP2 SLOAD DUP2 MSTORE SWAP1 PUSH1 0x1 ADD SWAP1 PUSH1 0x20 ADD DUP1 DUP4 GT PUSH2 0x286F JUMPI DUP3 SWAP1 SUB PUSH1 0x1F AND DUP3 ADD SWAP2 JUMPDEST POP POP POP POP POP DUP2 MSTORE POP POP SWAP1 POP SWAP3 SWAP2 POP POP JUMP JUMPDEST PUSH1 0x0 DUP1 DUP4 DUP4 PUSH1 0x40 MLOAD PUSH2 0x28B0 SWAP3 SWAP2 SWAP1 PUSH2 0x3264 JUMP JUMPDEST SWAP1 DUP2 MSTORE PUSH1 0x20 ADD PUSH1 0x40 MLOAD DUP1 SWAP2 SUB SWAP1 KECCAK256 PUSH1 0x7 ADD PUSH1 0x0 SWAP1 SLOAD SWAP1 PUSH2 0x100 EXP SWAP1 DIV PUSH1 0xFF AND SWAP1 POP SWAP3 SWAP2 POP POP JUMP JUMPDEST DUP3 DUP1 SLOAD PUSH2 0x28E3 SWAP1 PUSH2 0x385B JUMP JUMPDEST SWAP1 PUSH1 0x0 MSTORE PUSH1 0x20 PUSH1 0x0 KECCAK256 SWAP1 PUSH1 0x1F ADD PUSH1 0x20 SWAP1 DIV DUP2 ADD SWAP3 DUP3 PUSH2 0x2905 JUMPI PUSH1 0x0 DUP6 SSTORE PUSH2 0x294C JUMP JUMPDEST DUP3 PUSH1 0x1F LT PUSH2 0x291E JUMPI DUP1 MLOAD PUSH1 0xFF NOT AND DUP4 DUP1 ADD OR DUP6 SSTORE PUSH2 0x294C JUMP JUMPDEST DUP3 DUP1 ADD PUSH1 0x1 ADD DUP6 SSTORE DUP3 ISZERO PUSH2 0x294C JUMPI SWAP2 DUP3 ADD JUMPDEST DUP3 DUP2 GT ISZERO PUSH2 0x294B JUMPI DUP3 MLOAD DUP3 SSTORE SWAP2 PUSH1 0x20 ADD SWAP2 SWAP1 PUSH1 0x1 ADD SWAP1 PUSH2 0x2930 JUMP JUMPDEST JUMPDEST POP SWAP1 POP PUSH2 0x2959 SWAP2 SWAP1 PUSH2 0x29E8 JUMP JUMPDEST POP SWAP1 JUMP JUMPDEST PUSH1 0x40 MLOAD DUP1 PUSH2 0x160 ADD PUSH1 0x40 MSTORE DUP1 PUSH1 0x60 DUP2 MSTORE PUSH1 0x20 ADD PUSH1 0x0 PUSH20 0xFFFFFFFFFFFFFFFFFFFFFFFFFFFFFFFFFFFFFFFF AND DUP2 MSTORE PUSH1 0x20 ADD PUSH1 0x0 PUSH20 0xFFFFFFFFFFFFFFFFFFFFFFFFFFFFFFFFFFFFFFFF AND DUP2 MSTORE PUSH1 0x20 ADD PUSH1 0x0 DUP2 MSTORE PUSH1 0x20 ADD PUSH1 0x0 DUP2 MSTORE PUSH1 0x20 ADD PUSH1 0x0 DUP2 MSTORE PUSH1 0x20 ADD PUSH1 0x0 DUP2 MSTORE PUSH1 0x20 ADD PUSH1 0x0 ISZERO ISZERO DUP2 MSTORE PUSH1 0x20 ADD PUSH1 0x0 DUP1 NOT AND DUP2 MSTORE PUSH1 0x20 ADD PUSH1 0x60 DUP2 MSTORE PUSH1 0x20 ADD PUSH1 0x60 DUP2 MSTORE POP SWAP1 JUMP JUMPDEST JUMPDEST DUP1 DUP3 GT ISZERO PUSH2 0x2A01 JUMPI PUSH1 0x0 DUP2 PUSH1 0x0 SWAP1 SSTORE POP PUSH1 0x1 ADD PUSH2 0x29E9 JUMP JUMPDEST POP SWAP1 JUMP JUMPDEST PUSH1 0x0 PUSH2 0x2A18 PUSH2 0x2A13 DUP5 PUSH2 0x3637 JUMP JUMPDEST PUSH2 0x3612 JUMP JUMPDEST SWAP1 POP DUP3 DUP2 MSTORE PUSH1 0x20 DUP2 ADD DUP5 DUP5 DUP5 ADD GT ISZERO PUSH2 0x2A34 JUMPI PUSH2 0x2A33 PUSH2 0x39E2 JUMP JUMPDEST JUMPDEST PUSH2 0x2A3F DUP5 DUP3 DUP6 PUSH2 0x3819 JUMP JUMPDEST POP SWAP4 SWAP3 POP POP POP JUMP JUMPDEST PUSH1 0x0 DUP2 CALLDATALOAD SWAP1 POP PUSH2 0x2A56 DUP2 PUSH2 0x3C5D JUMP JUMPDEST SWAP3 SWAP2 POP POP JUMP JUMPDEST PUSH1 0x0 DUP1 DUP4 PUSH1 0x1F DUP5 ADD SLT PUSH2 0x2A72 JUMPI PUSH2 0x2A71 PUSH2 0x39D8 JUMP JUMPDEST JUMPDEST DUP3 CALLDATALOAD SWAP1 POP PUSH8 0xFFFFFFFFFFFFFFFF DUP2 GT ISZERO PUSH2 0x2A8F JUMPI PUSH2 0x2A8E PUSH2 0x39D3 JUMP JUMPDEST JUMPDEST PUSH1 0x20 DUP4 ADD SWAP2 POP DUP4 PUSH1 0x1 DUP3 MUL DUP4 ADD GT ISZERO PUSH2 0x2AAB JUMPI PUSH2 0x2AAA PUSH2 0x39DD JUMP JUMPDEST JUMPDEST SWAP3 POP SWAP3 SWAP1 POP JUMP JUMPDEST PUSH1 0x0 DUP3 PUSH1 0x1F DUP4 ADD SLT PUSH2 0x2AC7 JUMPI PUSH2 0x2AC6 PUSH2 0x39D8 JUMP JUMPDEST JUMPDEST DUP2 CALLDATALOAD PUSH2 0x2AD7 DUP5 DUP3 PUSH1 0x20 DUP7 ADD PUSH2 0x2A05 JUMP JUMPDEST SWAP2 POP POP SWAP3 SWAP2 POP POP JUMP JUMPDEST PUSH1 0x0 DUP2 CALLDATALOAD SWAP1 POP PUSH2 0x2AEF DUP2 PUSH2 0x3C74 JUMP JUMPDEST SWAP3 SWAP2 POP POP JUMP JUMPDEST PUSH1 0x0 DUP1 PUSH1 0x0 PUSH1 0x40 DUP5 DUP7 SUB SLT ISZERO PUSH2 0x2B0E JUMPI PUSH2 0x2B0D PUSH2 0x39EC JUMP JUMPDEST JUMPDEST PUSH1 0x0 PUSH2 0x2B1C DUP7 DUP3 DUP8 ADD PUSH2 0x2A47 JUMP JUMPDEST SWAP4 POP POP PUSH1 0x20 DUP5 ADD CALLDATALOAD PUSH8 0xFFFFFFFFFFFFFFFF DUP2 GT ISZERO PUSH2 0x2B3D JUMPI PUSH2 0x2B3C PUSH2 0x39E7 JUMP JUMPDEST JUMPDEST PUSH2 0x2B49 DUP7 DUP3 DUP8 ADD PUSH2 0x2A5C JUMP JUMPDEST SWAP3 POP SWAP3 POP POP SWAP3 POP SWAP3 POP SWAP3 JUMP JUMPDEST PUSH1 0x0 DUP1 PUSH1 0x20 DUP4 DUP6 SUB SLT ISZERO PUSH2 0x2B6C JUMPI PUSH2 0x2B6B PUSH2 0x39EC JUMP JUMPDEST JUMPDEST PUSH1 0x0 DUP4 ADD CALLDATALOAD PUSH8 0xFFFFFFFFFFFFFFFF DUP2 GT ISZERO PUSH2 0x2B8A JUMPI PUSH2 0x2B89 PUSH2 0x39E7 JUMP JUMPDEST JUMPDEST PUSH2 0x2B96 DUP6 DUP3 DUP7 ADD PUSH2 0x2A5C JUMP JUMPDEST SWAP3 POP SWAP3 POP POP SWAP3 POP SWAP3 SWAP1 POP JUMP JUMPDEST PUSH1 0x0 PUSH1 0x20 DUP3 DUP5 SUB SLT ISZERO PUSH2 0x2BB8 JUMPI PUSH2 0x2BB7 PUSH2 0x39EC JUMP JUMPDEST JUMPDEST PUSH1 0x0 DUP3 ADD CALLDATALOAD PUSH8 0xFFFFFFFFFFFFFFFF DUP2 GT ISZERO PUSH2 0x2BD6 JUMPI PUSH2 0x2BD5 PUSH2 0x39E7 JUMP JUMPDEST JUMPDEST PUSH2 0x2BE2 DUP5 DUP3 DUP6 ADD PUSH2 0x2AB2 JUMP JUMPDEST SWAP2 POP POP SWAP3 SWAP2 POP POP JUMP JUMPDEST PUSH1 0x0 DUP1 PUSH1 0x40 DUP4 DUP6 SUB SLT ISZERO PUSH2 0x2C02 JUMPI PUSH2 0x2C01 PUSH2 0x39EC JUMP JUMPDEST JUMPDEST PUSH1 0x0 DUP4 ADD CALLDATALOAD PUSH8 0xFFFFFFFFFFFFFFFF DUP2 GT ISZERO PUSH2 0x2C20 JUMPI PUSH2 0x2C1F PUSH2 0x39E7 JUMP JUMPDEST JUMPDEST PUSH2 0x2C2C DUP6 DUP3 DUP7 ADD PUSH2 0x2AB2 JUMP JUMPDEST SWAP3 POP POP PUSH1 0x20 PUSH2 0x2C3D DUP6 DUP3 DUP7 ADD PUSH2 0x2A47 JUMP JUMPDEST SWAP2 POP POP SWAP3 POP SWAP3 SWAP1 POP JUMP JUMPDEST PUSH1 0x0 DUP1 PUSH1 0x0 PUSH1 0x40 DUP5 DUP7 SUB SLT ISZERO PUSH2 0x2C60 JUMPI PUSH2 0x2C5F PUSH2 0x39EC JUMP JUMPDEST JUMPDEST PUSH1 0x0 DUP5 ADD CALLDATALOAD PUSH8 0xFFFFFFFFFFFFFFFF DUP2 GT ISZERO PUSH2 0x2C7E JUMPI PUSH2 0x2C7D PUSH2 0x39E7 JUMP JUMPDEST JUMPDEST PUSH2 0x2C8A DUP7 DUP3 DUP8 ADD PUSH2 0x2AB2 JUMP JUMPDEST SWAP4 POP POP PUSH1 0x20 DUP5 ADD CALLDATALOAD PUSH8 0xFFFFFFFFFFFFFFFF DUP2 GT ISZERO PUSH2 0x2CAB JUMPI PUSH2 0x2CAA PUSH2 0x39E7 JUMP JUMPDEST JUMPDEST PUSH2 0x2CB7 DUP7 DUP3 DUP8 ADD PUSH2 0x2A5C JUMP JUMPDEST SWAP3 POP SWAP3 POP POP SWAP3 POP SWAP3 POP SWAP3 JUMP JUMPDEST PUSH1 0x0 DUP1 PUSH1 0x40 DUP4 DUP6 SUB SLT ISZERO PUSH2 0x2CDA JUMPI PUSH2 0x2CD9 PUSH2 0x39EC JUMP JUMPDEST JUMPDEST PUSH1 0x0 DUP4 ADD CALLDATALOAD PUSH8 0xFFFFFFFFFFFFFFFF DUP2 GT ISZERO PUSH2 0x2CF8 JUMPI PUSH2 0x2CF7 PUSH2 0x39E7 JUMP JUMPDEST JUMPDEST PUSH2 0x2D04 DUP6 DUP3 DUP7 ADD PUSH2 0x2AB2 JUMP JUMPDEST SWAP3 POP POP PUSH1 0x20 PUSH2 0x2D15 DUP6 DUP3 DUP7 ADD PUSH2 0x2AE0 JUMP JUMPDEST SWAP2 POP POP SWAP3 POP SWAP3 SWAP1 POP JUMP JUMPDEST PUSH1 0x0 DUP1 PUSH1 0x0 DUP1 PUSH1 0x0 PUSH1 0xA0 DUP7 DUP9 SUB SLT ISZERO PUSH2 0x2D3B JUMPI PUSH2 0x2D3A PUSH2 0x39EC JUMP JUMPDEST JUMPDEST PUSH1 0x0 DUP7 ADD CALLDATALOAD PUSH8 0xFFFFFFFFFFFFFFFF DUP2 GT ISZERO PUSH2 0x2D59 JUMPI PUSH2 0x2D58 PUSH2 0x39E7 JUMP JUMPDEST JUMPDEST PUSH2 0x2D65 DUP9 DUP3 DUP10 ADD PUSH2 0x2AB2 JUMP JUMPDEST SWAP6 POP POP PUSH1 0x20 PUSH2 0x2D76 DUP9 DUP3 DUP10 ADD PUSH2 0x2AE0 JUMP JUMPDEST SWAP5 POP POP PUSH1 0x40 PUSH2 0x2D87 DUP9 DUP3 DUP10 ADD PUSH2 0x2AE0 JUMP JUMPDEST SWAP4 POP POP PUSH1 0x60 DUP7 ADD CALLDATALOAD PUSH8 0xFFFFFFFFFFFFFFFF DUP2 GT ISZERO PUSH2 0x2DA8 JUMPI PUSH2 0x2DA7 PUSH2 0x39E7 JUMP JUMPDEST JUMPDEST PUSH2 0x2DB4 DUP9 DUP3 DUP10 ADD PUSH2 0x2AB2 JUMP JUMPDEST SWAP3 POP POP PUSH1 0x80 DUP7 ADD CALLDATALOAD PUSH8 0xFFFFFFFFFFFFFFFF DUP2 GT ISZERO PUSH2 0x2DD5 JUMPI PUSH2 0x2DD4 PUSH2 0x39E7 JUMP JUMPDEST JUMPDEST PUSH2 0x2DE1 DUP9 DUP3 DUP10 ADD PUSH2 0x2AB2 JUMP JUMPDEST SWAP2 POP POP SWAP3 SWAP6 POP SWAP3 SWAP6 SWAP1 SWAP4 POP JUMP JUMPDEST PUSH1 0x0 PUSH2 0x2DFA DUP4 DUP4 PUSH2 0x3204 JUMP JUMPDEST PUSH1 0x60 DUP4 ADD SWAP1 POP SWAP3 SWAP2 POP POP JUMP JUMPDEST PUSH2 0x2E0F DUP2 PUSH2 0x37BA JUMP JUMPDEST DUP3 MSTORE POP POP JUMP JUMPDEST PUSH2 0x2E1E DUP2 PUSH2 0x37BA JUMP JUMPDEST DUP3 MSTORE POP POP JUMP JUMPDEST PUSH1 0x0 PUSH2 0x2E2F DUP3 PUSH2 0x3678 JUMP JUMPDEST PUSH2 0x2E39 DUP2 DUP6 PUSH2 0x369B JUMP JUMPDEST SWAP4 POP PUSH2 0x2E44 DUP4 PUSH2 0x3668 JUMP JUMPDEST DUP1 PUSH1 0x0 JUMPDEST DUP4 DUP2 LT ISZERO PUSH2 0x2E75 JUMPI DUP2 MLOAD PUSH2 0x2E5C DUP9 DUP3 PUSH2 0x2DEE JUMP JUMPDEST SWAP8 POP PUSH2 0x2E67 DUP4 PUSH2 0x368E JUMP JUMPDEST SWAP3 POP POP PUSH1 0x1 DUP2 ADD SWAP1 POP PUSH2 0x2E48 JUMP JUMPDEST POP DUP6 SWAP4 POP POP POP POP SWAP3 SWAP2 POP POP JUMP JUMPDEST PUSH2 0x2E8B DUP2 PUSH2 0x37CC JUMP JUMPDEST DUP3 MSTORE POP POP JUMP JUMPDEST PUSH2 0x2E9A DUP2 PUSH2 0x37CC JUMP JUMPDEST DUP3 MSTORE POP POP JUMP JUMPDEST PUSH2 0x2EA9 DUP2 PUSH2 0x37D8 JUMP JUMPDEST DUP3 MSTORE POP POP JUMP JUMPDEST PUSH2 0x2EB8 DUP2 PUSH2 0x37D8 JUMP JUMPDEST DUP3 MSTORE POP POP JUMP JUMPDEST PUSH1 0x0 PUSH2 0x2ECA DUP4 DUP6 PUSH2 0x36CE JUMP JUMPDEST SWAP4 POP PUSH2 0x2ED7 DUP4 DUP6 DUP5 PUSH2 0x3819 JUMP JUMPDEST DUP3 DUP5 ADD SWAP1 POP SWAP4 SWAP3 POP POP POP JUMP JUMPDEST PUSH1 0x0 PUSH2 0x2EEE DUP3 PUSH2 0x3683 JUMP JUMPDEST PUSH2 0x2EF8 DUP2 DUP6 PUSH2 0x36AC JUMP JUMPDEST SWAP4 POP PUSH2 0x2F08 DUP2 DUP6 PUSH1 0x20 DUP7 ADD PUSH2 0x3828 JUMP JUMPDEST PUSH2 0x2F11 DUP2 PUSH2 0x39F1 JUMP JUMPDEST DUP5 ADD SWAP2 POP POP SWAP3 SWAP2 POP POP JUMP JUMPDEST PUSH1 0x0 PUSH2 0x2F27 DUP3 PUSH2 0x3683 JUMP JUMPDEST PUSH2 0x2F31 DUP2 DUP6 PUSH2 0x36BD JUMP JUMPDEST SWAP4 POP PUSH2 0x2F41 DUP2 DUP6 PUSH1 0x20 DUP7 ADD PUSH2 0x3828 JUMP JUMPDEST PUSH2 0x2F4A DUP2 PUSH2 0x39F1 JUMP JUMPDEST DUP5 ADD SWAP2 POP POP SWAP3 SWAP2 POP POP JUMP JUMPDEST PUSH1 0x0 PUSH2 0x2F60 DUP3 PUSH2 0x3683 JUMP JUMPDEST PUSH2 0x2F6A DUP2 DUP6 PUSH2 0x36CE JUMP JUMPDEST SWAP4 POP PUSH2 0x2F7A DUP2 DUP6 PUSH1 0x20 DUP7 ADD PUSH2 0x3828 JUMP JUMPDEST DUP1 DUP5 ADD SWAP2 POP POP SWAP3 SWAP2 POP POP JUMP JUMPDEST PUSH1 0x0 PUSH2 0x2F93 PUSH1 0x1F DUP4 PUSH2 0x36BD JUMP JUMPDEST SWAP2 POP PUSH2 0x2F9E DUP3 PUSH2 0x3A02 JUMP JUMPDEST PUSH1 0x20 DUP3 ADD SWAP1 POP SWAP2 SWAP1 POP JUMP JUMPDEST PUSH1 0x0 PUSH2 0x2FB6 PUSH1 0x19 DUP4 PUSH2 0x36BD JUMP JUMPDEST SWAP2 POP PUSH2 0x2FC1 DUP3 PUSH2 0x3A2B JUMP JUMPDEST PUSH1 0x20 DUP3 ADD SWAP1 POP SWAP2 SWAP1 POP JUMP JUMPDEST PUSH1 0x0 PUSH2 0x2FD9 PUSH1 0x26 DUP4 PUSH2 0x36BD JUMP JUMPDEST SWAP2 POP PUSH2 0x2FE4 DUP3 PUSH2 0x3A54 JUMP JUMPDEST PUSH1 0x40 DUP3 ADD SWAP1 POP SWAP2 SWAP1 POP JUMP JUMPDEST PUSH1 0x0 PUSH2 0x2FFC PUSH1 0x1C DUP4 PUSH2 0x36BD JUMP JUMPDEST SWAP2 POP PUSH2 0x3007 DUP3 PUSH2 0x3AA3 JUMP JUMPDEST PUSH1 0x20 DUP3 ADD SWAP1 POP SWAP2 SWAP1 POP JUMP JUMPDEST PUSH1 0x0 PUSH2 0x301F PUSH1 0x15 DUP4 PUSH2 0x36BD JUMP JUMPDEST SWAP2 POP PUSH2 0x302A DUP3 PUSH2 0x3ACC JUMP JUMPDEST PUSH1 0x20 DUP3 ADD SWAP1 POP SWAP2 SWAP1 POP JUMP JUMPDEST PUSH1 0x0 PUSH2 0x3042 PUSH1 0x1E DUP4 PUSH2 0x36BD JUMP JUMPDEST SWAP2 POP PUSH2 0x304D DUP3 PUSH2 0x3AF5 JUMP JUMPDEST PUSH1 0x20 DUP3 ADD SWAP1 POP SWAP2 SWAP1 POP JUMP JUMPDEST PUSH1 0x0 PUSH2 0x3065 PUSH1 0x24 DUP4 PUSH2 0x36BD JUMP JUMPDEST SWAP2 POP PUSH2 0x3070 DUP3 PUSH2 0x3B1E JUMP JUMPDEST PUSH1 0x40 DUP3 ADD SWAP1 POP SWAP2 SWAP1 POP JUMP JUMPDEST PUSH1 0x0 PUSH2 0x3088 PUSH1 0x28 DUP4 PUSH2 0x36BD JUMP JUMPDEST SWAP2 POP PUSH2 0x3093 DUP3 PUSH2 0x3B6D JUMP JUMPDEST PUSH1 0x40 DUP3 ADD SWAP1 POP SWAP2 SWAP1 POP JUMP JUMPDEST PUSH1 0x0 PUSH2 0x30AB PUSH1 0x20 DUP4 PUSH2 0x36BD JUMP JUMPDEST SWAP2 POP PUSH2 0x30B6 DUP3 PUSH2 0x3BBC JUMP JUMPDEST PUSH1 0x20 DUP3 ADD SWAP1 POP SWAP2 SWAP1 POP JUMP JUMPDEST PUSH1 0x0 PUSH2 0x30CE PUSH1 0x12 DUP4 PUSH2 0x36BD JUMP JUMPDEST SWAP2 POP PUSH2 0x30D9 DUP3 PUSH2 0x3BE5 JUMP JUMPDEST PUSH1 0x20 DUP3 ADD SWAP1 POP SWAP2 SWAP1 POP JUMP JUMPDEST PUSH1 0x0 PUSH2 0x30F1 PUSH1 0x25 DUP4 PUSH2 0x36BD JUMP JUMPDEST SWAP2 POP PUSH2 0x30FC DUP3 PUSH2 0x3C0E JUMP JUMPDEST PUSH1 0x40 DUP3 ADD SWAP1 POP SWAP2 SWAP1 POP JUMP JUMPDEST PUSH1 0x0 PUSH2 0x160 DUP4 ADD PUSH1 0x0 DUP4 ADD MLOAD DUP5 DUP3 SUB PUSH1 0x0 DUP7 ADD MSTORE PUSH2 0x3125 DUP3 DUP3 PUSH2 0x2EE3 JUMP JUMPDEST SWAP2 POP POP PUSH1 0x20 DUP4 ADD MLOAD PUSH2 0x313A PUSH1 0x20 DUP7 ADD DUP3 PUSH2 0x2E06 JUMP JUMPDEST POP PUSH1 0x40 DUP4 ADD MLOAD PUSH2 0x314D PUSH1 0x40 DUP7 ADD DUP3 PUSH2 0x2E06 JUMP JUMPDEST POP PUSH1 0x60 DUP4 ADD MLOAD PUSH2 0x3160 PUSH1 0x60 DUP7 ADD DUP3 PUSH2 0x3246 JUMP JUMPDEST POP PUSH1 0x80 DUP4 ADD MLOAD PUSH2 0x3173 PUSH1 0x80 DUP7 ADD DUP3 PUSH2 0x3246 JUMP JUMPDEST POP PUSH1 0xA0 DUP4 ADD MLOAD PUSH2 0x3186 PUSH1 0xA0 DUP7 ADD DUP3 PUSH2 0x3246 JUMP JUMPDEST POP PUSH1 0xC0 DUP4 ADD MLOAD PUSH2 0x3199 PUSH1 0xC0 DUP7 ADD DUP3 PUSH2 0x3246 JUMP JUMPDEST POP PUSH1 0xE0 DUP4 ADD MLOAD PUSH2 0x31AC PUSH1 0xE0 DUP7 ADD DUP3 PUSH2 0x2E82 JUMP JUMPDEST POP PUSH2 0x100 DUP4 ADD MLOAD PUSH2 0x31C1 PUSH2 0x100 DUP7 ADD DUP3 PUSH2 0x2EA0 JUMP JUMPDEST POP PUSH2 0x120 DUP4 ADD MLOAD DUP5 DUP3 SUB PUSH2 0x120 DUP7 ADD MSTORE PUSH2 0x31DB DUP3 DUP3 PUSH2 0x2EE3 JUMP JUMPDEST SWAP2 POP POP PUSH2 0x140 DUP4 ADD MLOAD DUP5 DUP3 SUB PUSH2 0x140 DUP7 ADD MSTORE PUSH2 0x31F7 DUP3 DUP3 PUSH2 0x2EE3 JUMP JUMPDEST SWAP2 POP POP DUP1 SWAP2 POP POP SWAP3 SWAP2 POP POP JUMP JUMPDEST PUSH1 0x60 DUP3 ADD PUSH1 0x0 DUP3 ADD MLOAD PUSH2 0x321A PUSH1 0x0 DUP6 ADD DUP3 PUSH2 0x2E82 JUMP JUMPDEST POP PUSH1 0x20 DUP3 ADD MLOAD PUSH2 0x322D PUSH1 0x20 DUP6 ADD DUP3 PUSH2 0x2E82 JUMP JUMPDEST POP PUSH1 0x40 DUP3 ADD MLOAD PUSH2 0x3240 PUSH1 0x40 DUP6 ADD DUP3 PUSH2 0x2E06 JUMP JUMPDEST POP POP POP POP JUMP JUMPDEST PUSH2 0x324F DUP2 PUSH2 0x3802 JUMP JUMPDEST DUP3 MSTORE POP POP JUMP JUMPDEST PUSH2 0x325E DUP2 PUSH2 0x3802 JUMP JUMPDEST DUP3 MSTORE POP POP JUMP JUMPDEST PUSH1 0x0 PUSH2 0x3271 DUP3 DUP5 DUP7 PUSH2 0x2EBE JUMP JUMPDEST SWAP2 POP DUP2 SWAP1 POP SWAP4 SWAP3 POP POP POP JUMP JUMPDEST PUSH1 0x0 PUSH2 0x3289 DUP3 DUP5 PUSH2 0x2F55 JUMP JUMPDEST SWAP2 POP DUP2 SWAP1 POP SWAP3 SWAP2 POP POP JUMP JUMPDEST PUSH1 0x0 PUSH1 0x20 DUP3 ADD SWAP1 POP PUSH2 0x32A9 PUSH1 0x0 DUP4 ADD DUP5 PUSH2 0x2E15 JUMP JUMPDEST SWAP3 SWAP2 POP POP JUMP JUMPDEST PUSH1 0x0 PUSH1 0x20 DUP3 ADD SWAP1 POP PUSH2 0x32C4 PUSH1 0x0 DUP4 ADD DUP5 PUSH2 0x2E91 JUMP JUMPDEST SWAP3 SWAP2 POP POP JUMP JUMPDEST PUSH1 0x0 PUSH1 0x60 DUP3 ADD SWAP1 POP PUSH2 0x32DF PUSH1 0x0 DUP4 ADD DUP7 PUSH2 0x2E91 JUMP JUMPDEST PUSH2 0x32EC PUSH1 0x20 DUP4 ADD DUP6 PUSH2 0x2E91 JUMP JUMPDEST PUSH2 0x32F9 PUSH1 0x40 DUP4 ADD DUP5 PUSH2 0x2E15 JUMP JUMPDEST SWAP5 SWAP4 POP POP POP POP JUMP JUMPDEST PUSH1 0x0 PUSH1 0x80 DUP3 ADD SWAP1 POP PUSH2 0x3316 PUSH1 0x0 DUP4 ADD DUP8 PUSH2 0x2EAF JUMP JUMPDEST DUP2 DUP2 SUB PUSH1 0x20 DUP4 ADD MSTORE PUSH2 0x3328 DUP2 DUP7 PUSH2 0x2F1C JUMP JUMPDEST SWAP1 POP PUSH2 0x3337 PUSH1 0x40 DUP4 ADD DUP6 PUSH2 0x3255 JUMP JUMPDEST DUP2 DUP2 SUB PUSH1 0x60 DUP4 ADD MSTORE PUSH2 0x3349 DUP2 DUP5 PUSH2 0x2E24 JUMP JUMPDEST SWAP1 POP SWAP6 SWAP5 POP POP POP POP POP JUMP JUMPDEST PUSH1 0x0 PUSH1 0x20 DUP3 ADD SWAP1 POP DUP2 DUP2 SUB PUSH1 0x0 DUP4 ADD MSTORE PUSH2 0x336E DUP2 DUP5 PUSH2 0x2F1C JUMP JUMPDEST SWAP1 POP SWAP3 SWAP2 POP POP JUMP JUMPDEST PUSH1 0x0 PUSH2 0x160 DUP3 ADD SWAP1 POP DUP2 DUP2 SUB PUSH1 0x0 DUP4 ADD MSTORE PUSH2 0x3391 DUP2 DUP15 PUSH2 0x2F1C JUMP JUMPDEST SWAP1 POP PUSH2 0x33A0 PUSH1 0x20 DUP4 ADD DUP14 PUSH2 0x2E15 JUMP JUMPDEST PUSH2 0x33AD PUSH1 0x40 DUP4 ADD DUP13 PUSH2 0x2E15 JUMP JUMPDEST PUSH2 0x33BA PUSH1 0x60 DUP4 ADD DUP12 PUSH2 0x3255 JUMP JUMPDEST PUSH2 0x33C7 PUSH1 0x80 DUP4 ADD DUP11 PUSH2 0x3255 JUMP JUMPDEST PUSH2 0x33D4 PUSH1 0xA0 DUP4 ADD DUP10 PUSH2 0x3255 JUMP JUMPDEST PUSH2 0x33E1 PUSH1 0xC0 DUP4 ADD DUP9 PUSH2 0x3255 JUMP JUMPDEST PUSH2 0x33EE PUSH1 0xE0 DUP4 ADD DUP8 PUSH2 0x2E91 JUMP JUMPDEST PUSH2 0x33FC PUSH2 0x100 DUP4 ADD DUP7 PUSH2 0x2EAF JUMP JUMPDEST DUP2 DUP2 SUB PUSH2 0x120 DUP4 ADD MSTORE PUSH2 0x340F DUP2 DUP6 PUSH2 0x2F1C JUMP JUMPDEST SWAP1 POP DUP2 DUP2 SUB PUSH2 0x140 DUP4 ADD MSTORE PUSH2 0x3424 DUP2 DUP5 PUSH2 0x2F1C JUMP JUMPDEST SWAP1 POP SWAP13 SWAP12 POP POP POP POP POP POP POP POP POP POP POP POP JUMP JUMPDEST PUSH1 0x0 PUSH1 0xA0 DUP3 ADD SWAP1 POP DUP2 DUP2 SUB PUSH1 0x0 DUP4 ADD MSTORE PUSH2 0x3450 DUP2 DUP9 PUSH2 0x2F1C JUMP JUMPDEST SWAP1 POP PUSH2 0x345F PUSH1 0x20 DUP4 ADD DUP8 PUSH2 0x3255 JUMP JUMPDEST PUSH2 0x346C PUSH1 0x40 DUP4 ADD DUP7 PUSH2 0x2E15 JUMP JUMPDEST PUSH2 0x3479 PUSH1 0x60 DUP4 ADD DUP6 PUSH2 0x3255 JUMP JUMPDEST PUSH2 0x3486 PUSH1 0x80 DUP4 ADD DUP5 PUSH2 0x3255 JUMP JUMPDEST SWAP7 SWAP6 POP POP POP POP POP POP JUMP JUMPDEST PUSH1 0x0 PUSH1 0x20 DUP3 ADD SWAP1 POP DUP2 DUP2 SUB PUSH1 0x0 DUP4 ADD MSTORE PUSH2 0x34A9 DUP2 PUSH2 0x2F86 JUMP JUMPDEST SWAP1 POP SWAP2 SWAP1 POP JUMP JUMPDEST PUSH1 0x0 PUSH1 0x20 DUP3 ADD SWAP1 POP DUP2 DUP2 SUB PUSH1 0x0 DUP4 ADD MSTORE PUSH2 0x34C9 DUP2 PUSH2 0x2FA9 JUMP JUMPDEST SWAP1 POP SWAP2 SWAP1 POP JUMP JUMPDEST PUSH1 0x0 PUSH1 0x20 DUP3 ADD SWAP1 POP DUP2 DUP2 SUB PUSH1 0x0 DUP4 ADD MSTORE PUSH2 0x34E9 DUP2 PUSH2 0x2FCC JUMP JUMPDEST SWAP1 POP SWAP2 SWAP1 POP JUMP JUMPDEST PUSH1 0x0 PUSH1 0x20 DUP3 ADD SWAP1 POP DUP2 DUP2 SUB PUSH1 0x0 DUP4 ADD MSTORE PUSH2 0x3509 DUP2 PUSH2 0x2FEF JUMP JUMPDEST SWAP1 POP SWAP2 SWAP1 POP JUMP JUMPDEST PUSH1 0x0 PUSH1 0x20 DUP3 ADD SWAP1 POP DUP2 DUP2 SUB PUSH1 0x0 DUP4 ADD MSTORE PUSH2 0x3529 DUP2 PUSH2 0x3012 JUMP JUMPDEST SWAP1 POP SWAP2 SWAP1 POP JUMP JUMPDEST PUSH1 0x0 PUSH1 0x20 DUP3 ADD SWAP1 POP DUP2 DUP2 SUB PUSH1 0x0 DUP4 ADD MSTORE PUSH2 0x3549 DUP2 PUSH2 0x3035 JUMP JUMPDEST SWAP1 POP SWAP2 SWAP1 POP JUMP JUMPDEST PUSH1 0x0 PUSH1 0x20 DUP3 ADD SWAP1 POP DUP2 DUP2 SUB PUSH1 0x0 DUP4 ADD MSTORE PUSH2 0x3569 DUP2 PUSH2 0x3058 JUMP JUMPDEST SWAP1 POP SWAP2 SWAP1 POP JUMP JUMPDEST PUSH1 0x0 PUSH1 0x20 DUP3 ADD SWAP1 POP DUP2 DUP2 SUB PUSH1 0x0 DUP4 ADD MSTORE PUSH2 0x3589 DUP2 PUSH2 0x307B JUMP JUMPDEST SWAP1 POP SWAP2 SWAP1 POP JUMP JUMPDEST PUSH1 0x0 PUSH1 0x20 DUP3 ADD SWAP1 POP DUP2 DUP2 SUB PUSH1 0x0 DUP4 ADD MSTORE PUSH2 0x35A9 DUP2 PUSH2 0x309E JUMP JUMPDEST SWAP1 POP SWAP2 SWAP1 POP JUMP JUMPDEST PUSH1 0x0 PUSH1 0x20 DUP3 ADD SWAP1 POP DUP2 DUP2 SUB PUSH1 0x0 DUP4 ADD MSTORE PUSH2 0x35C9 DUP2 PUSH2 0x30C1 JUMP JUMPDEST SWAP1 POP SWAP2 SWAP1 POP JUMP JUMPDEST PUSH1 0x0 PUSH1 0x20 DUP3 ADD SWAP1 POP DUP2 DUP2 SUB PUSH1 0x0 DUP4 ADD MSTORE PUSH2 0x35E9 DUP2 PUSH2 0x30E4 JUMP JUMPDEST SWAP1 POP SWAP2 SWAP1 POP JUMP JUMPDEST PUSH1 0x0 PUSH1 0x20 DUP3 ADD SWAP1 POP DUP2 DUP2 SUB PUSH1 0x0 DUP4 ADD MSTORE PUSH2 0x360A DUP2 DUP5 PUSH2 0x3107 JUMP JUMPDEST SWAP1 POP SWAP3 SWAP2 POP POP JUMP JUMPDEST PUSH1 0x0 PUSH2 0x361C PUSH2 0x362D JUMP JUMPDEST SWAP1 POP PUSH2 0x3628 DUP3 DUP3 PUSH2 0x388D JUMP JUMPDEST SWAP2 SWAP1 POP JUMP JUMPDEST PUSH1 0x0 PUSH1 0x40 MLOAD SWAP1 POP SWAP1 JUMP JUMPDEST PUSH1 0x0 PUSH8 0xFFFFFFFFFFFFFFFF DUP3 GT ISZERO PUSH2 0x3652 JUMPI PUSH2 0x3651 PUSH2 0x39A4 JUMP JUMPDEST JUMPDEST PUSH2 0x365B DUP3 PUSH2 0x39F1 JUMP JUMPDEST SWAP1 POP PUSH1 0x20 DUP2 ADD SWAP1 POP SWAP2 SWAP1 POP JUMP JUMPDEST PUSH1 0x0 DUP2 SWAP1 POP PUSH1 0x20 DUP3 ADD SWAP1 POP SWAP2 SWAP1 POP JUMP JUMPDEST PUSH1 0x0 DUP2 MLOAD SWAP1 POP SWAP2 SWAP1 POP JUMP JUMPDEST PUSH1 0x0 DUP2 MLOAD SWAP1 POP SWAP2 SWAP1 POP JUMP JUMPDEST PUSH1 0x0 PUSH1 0x20 DUP3 ADD SWAP1 POP SWAP2 SWAP1 POP JUMP JUMPDEST PUSH1 0x0 DUP3 DUP3 MSTORE PUSH1 0x20 DUP3 ADD SWAP1 POP SWAP3 SWAP2 POP POP JUMP JUMPDEST PUSH1 0x0 DUP3 DUP3 MSTORE PUSH1 0x20 DUP3 ADD SWAP1 POP SWAP3 SWAP2 POP POP JUMP JUMPDEST PUSH1 0x0 DUP3 DUP3 MSTORE PUSH1 0x20 DUP3 ADD SWAP1 POP SWAP3 SWAP2 POP POP JUMP JUMPDEST PUSH1 0x0 DUP2 SWAP1 POP SWAP3 SWAP2 POP POP JUMP JUMPDEST PUSH1 0x0 PUSH2 0x36E4 DUP3 PUSH2 0x3802 JUMP JUMPDEST SWAP2 POP PUSH2 0x36EF DUP4 PUSH2 0x3802 JUMP JUMPDEST SWAP3 POP DUP3 PUSH32 0xFFFFFFFFFFFFFFFFFFFFFFFFFFFFFFFFFFFFFFFFFFFFFFFFFFFFFFFFFFFFFFFF SUB DUP3 GT ISZERO PUSH2 0x3724 JUMPI PUSH2 0x3723 PUSH2 0x38E8 JUMP JUMPDEST JUMPDEST DUP3 DUP3 ADD SWAP1 POP SWAP3 SWAP2 POP POP JUMP JUMPDEST PUSH1 0x0 PUSH2 0x373A DUP3 PUSH2 0x3802 JUMP JUMPDEST SWAP2 POP PUSH2 0x3745 DUP4 PUSH2 0x3802 JUMP JUMPDEST SWAP3 POP DUP3 PUSH2 0x3755 JUMPI PUSH2 0x3754 PUSH2 0x3917 JUMP JUMPDEST JUMPDEST DUP3 DUP3 DIV SWAP1 POP SWAP3 SWAP2 POP POP JUMP JUMPDEST PUSH1 0x0 PUSH2 0x376B DUP3 PUSH2 0x3802 JUMP JUMPDEST SWAP2 POP PUSH2 0x3776 DUP4 PUSH2 0x3802 JUMP JUMPDEST SWAP3 POP DUP2 PUSH32 0xFFFFFFFFFFFFFFFFFFFFFFFFFFFFFFFFFFFFFFFFFFFFFFFFFFFFFFFFFFFFFFFF DIV DUP4 GT DUP3 ISZERO ISZERO AND ISZERO PUSH2 0x37AF JUMPI PUSH2 0x37AE PUSH2 0x38E8 JUMP JUMPDEST JUMPDEST DUP3 DUP3 MUL SWAP1 POP SWAP3 SWAP2 POP POP JUMP JUMPDEST PUSH1 0x0 PUSH2 0x37C5 DUP3 PUSH2 0x37E2 JUMP JUMPDEST SWAP1 POP SWAP2 SWAP1 POP JUMP JUMPDEST PUSH1 0x0 DUP2 ISZERO ISZERO SWAP1 POP SWAP2 SWAP1 POP JUMP JUMPDEST PUSH1 0x0 DUP2 SWAP1 POP SWAP2 SWAP1 POP JUMP JUMPDEST PUSH1 0x0 PUSH20 0xFFFFFFFFFFFFFFFFFFFFFFFFFFFFFFFFFFFFFFFF DUP3 AND SWAP1 POP SWAP2 SWAP1 POP JUMP JUMPDEST PUSH1 0x0 DUP2 SWAP1 POP SWAP2 SWAP1 POP JUMP JUMPDEST PUSH1 0x0 PUSH1 0xFF DUP3 AND SWAP1 POP SWAP2 SWAP1 POP JUMP JUMPDEST DUP3 DUP2 DUP4 CALLDATACOPY PUSH1 0x0 DUP4 DUP4 ADD MSTORE POP POP POP JUMP JUMPDEST PUSH1 0x0 JUMPDEST DUP4 DUP2 LT ISZERO PUSH2 0x3846 JUMPI DUP1 DUP3 ADD MLOAD DUP2 DUP5 ADD MSTORE PUSH1 0x20 DUP2 ADD SWAP1 POP PUSH2 0x382B JUMP JUMPDEST DUP4 DUP2 GT ISZERO PUSH2 0x3855 JUMPI PUSH1 0x0 DUP5 DUP5 ADD MSTORE JUMPDEST POP POP POP POP JUMP JUMPDEST PUSH1 0x0 PUSH1 0x2 DUP3 DIV SWAP1 POP PUSH1 0x1 DUP3 AND DUP1 PUSH2 0x3873 JUMPI PUSH1 0x7F DUP3 AND SWAP2 POP JUMPDEST PUSH1 0x20 DUP3 LT DUP2 EQ ISZERO PUSH2 0x3887 JUMPI PUSH2 0x3886 PUSH2 0x3946 JUMP JUMPDEST JUMPDEST POP SWAP2 SWAP1 POP JUMP JUMPDEST PUSH2 0x3896 DUP3 PUSH2 0x39F1 JUMP JUMPDEST DUP2 ADD DUP2 DUP2 LT PUSH8 0xFFFFFFFFFFFFFFFF DUP3 GT OR ISZERO PUSH2 0x38B5 JUMPI PUSH2 0x38B4 PUSH2 0x39A4 JUMP JUMPDEST JUMPDEST DUP1 PUSH1 0x40 MSTORE POP POP POP JUMP JUMPDEST PUSH1 0x0 PUSH2 0x38C9 DUP3 PUSH2 0x380C JUMP JUMPDEST SWAP2 POP PUSH1 0xFF DUP3 EQ ISZERO PUSH2 0x38DD JUMPI PUSH2 0x38DC PUSH2 0x38E8 JUMP JUMPDEST JUMPDEST PUSH1 0x1 DUP3 ADD SWAP1 POP SWAP2 SWAP1 POP JUMP JUMPDEST PUSH32 0x4E487B7100000000000000000000000000000000000000000000000000000000 PUSH1 0x0 MSTORE PUSH1 0x11 PUSH1 0x4 MSTORE PUSH1 0x24 PUSH1 0x0 REVERT JUMPDEST PUSH32 0x4E487B7100000000000000000000000000000000000000000000000000000000 PUSH1 0x0 MSTORE PUSH1 0x12 PUSH1 0x4 MSTORE PUSH1 0x24 PUSH1 0x0 REVERT JUMPDEST PUSH32 0x4E487B7100000000000000000000000000000000000000000000000000000000 PUSH1 0x0 MSTORE PUSH1 0x22 PUSH1 0x4 MSTORE PUSH1 0x24 PUSH1 0x0 REVERT JUMPDEST PUSH32 0x4E487B7100000000000000000000000000000000000000000000000000000000 PUSH1 0x0 MSTORE PUSH1 0x32 PUSH1 0x4 MSTORE PUSH1 0x24 PUSH1 0x0 REVERT JUMPDEST PUSH32 0x4E487B7100000000000000000000000000000000000000000000000000000000 PUSH1 0x0 MSTORE PUSH1 0x41 PUSH1 0x4 MSTORE PUSH1 0x24 PUSH1 0x0 REVERT JUMPDEST PUSH1 0x0 DUP1 REVERT JUMPDEST PUSH1 0x0 DUP1 REVERT JUMPDEST PUSH1 0x0 DUP1 REVERT JUMPDEST PUSH1 0x0 DUP1 REVERT JUMPDEST PUSH1 0x0 DUP1 REVERT JUMPDEST PUSH1 0x0 DUP1 REVERT JUMPDEST PUSH1 0x0 PUSH1 0x1F NOT PUSH1 0x1F DUP4 ADD AND SWAP1 POP SWAP2 SWAP1 POP JUMP JUMPDEST PUSH32 0x526563697069656E7420697320616C7265616479207265676973746572656400 PUSH1 0x0 DUP3 ADD MSTORE POP JUMP JUMPDEST PUSH32 0x50726F706F73616C20616C726561647920637265617465642100000000000000 PUSH1 0x0 DUP3 ADD MSTORE POP JUMP JUMPDEST PUSH32 0x596F75206172656E277420617574686F72697A6520746F20636F6D70696C6520 PUSH1 0x0 DUP3 ADD MSTORE PUSH32 0x42756E646C650000000000000000000000000000000000000000000000000000 PUSH1 0x20 DUP3 ADD MSTORE POP JUMP JUMPDEST PUSH32 0x596F7520616C72656164792073656E74206120726573706F6E73652E00000000 PUSH1 0x0 DUP3 ADD MSTORE POP JUMP JUMPDEST PUSH32 0x496E69746961746F722063616E277420766F7465210000000000000000000000 PUSH1 0x0 DUP3 ADD MSTORE POP JUMP JUMPDEST PUSH32 0x596F7520617265206E6F74207265676973746572656420746F20766F74650000 PUSH1 0x0 DUP3 ADD MSTORE POP JUMP JUMPDEST PUSH32 0x50726F706F73616C206861732072656163686564206974732065787069727920 PUSH1 0x0 DUP3 ADD MSTORE PUSH32 0x6461746500000000000000000000000000000000000000000000000000000000 PUSH1 0x20 DUP3 ADD MSTORE POP JUMP JUMPDEST PUSH32 0x4F6E6C7920696E69746961746F722063616E2072656769737465722061207265 PUSH1 0x0 DUP3 ADD MSTORE PUSH32 0x63697069656E742E000000000000000000000000000000000000000000000000 PUSH1 0x20 DUP3 ADD MSTORE POP JUMP JUMPDEST PUSH32 0x5665726469637420686173206E6F74206265656E207265616368656420796574 PUSH1 0x0 DUP3 ADD MSTORE POP JUMP JUMPDEST PUSH32 0x566F74696E672068617320657870697265640000000000000000000000000000 PUSH1 0x0 DUP3 ADD MSTORE POP JUMP JUMPDEST PUSH32 0x436F6E73656E7375732068617320616C7265616479206265656E2063616C6375 PUSH1 0x0 DUP3 ADD MSTORE PUSH32 0x6C61746564000000000000000000000000000000000000000000000000000000 PUSH1 0x20 DUP3 ADD MSTORE POP JUMP JUMPDEST PUSH2 0x3C66 DUP2 PUSH2 0x37BA JUMP JUMPDEST DUP2 EQ PUSH2 0x3C71 JUMPI PUSH1 0x0 DUP1 REVERT JUMPDEST POP JUMP JUMPDEST PUSH2 0x3C7D DUP2 PUSH2 0x3802 JUMP JUMPDEST DUP2 EQ PUSH2 0x3C88 JUMPI PUSH1 0x0 DUP1 REVERT JUMPDEST POP JUMP INVALID LOG2 PUSH5 0x6970667358 0x22 SLT KECCAK256 BLOCKHASH MSTORE DUP5 0xBA SWAP15 AND 0xC2 0xC7 0xC6 PUSH18 0x6026300860F18B4C92CE544277B4288F7C26 SELFDESTRUCT CODESIZE LOG4 0xD6 PUSH5 0x736F6C6343 STOP ADDMOD SMOD STOP CALLER "
				},
				"gasEstimates": {
					"creation": {
						"codeDepositCost": "3110600",
						"executionCost": "3436",
						"totalCost": "3114036"
					},
					"external": {
						"Consensus(string)": "infinite",
						"RegisterVoter(address,string)": "infinite",
						"Vote(string,string)": "infinite",
						"Voters(string,uint256)": "infinite",
						"businessProposals(string)": "infinite",
						"createContract(string,uint256,uint256,string,string)": "infinite",
						"getIsCompiled(string)": "infinite",
						"getIsCreated(string)": "infinite",
						"getParameters(string)": "infinite",
						"getParameters2(address,string)": "infinite",
						"getValues(string)": "infinite",
						"keys(string,uint256)": "infinite",
						"retrieve_bundle(string)": "infinite",
						"voter_maps(string,address)": "infinite"
					}
				},
				"methodIdentifiers": {
					"Consensus(string)": "883a9673",
					"RegisterVoter(address,string)": "3d63af0e",
					"Vote(string,string)": "17072d6b",
					"Voters(string,uint256)": "8f6a35b7",
					"businessProposals(string)": "089a4c60",
					"createContract(string,uint256,uint256,string,string)": "0952ed75",
					"getIsCompiled(string)": "ec548680",
					"getIsCreated(string)": "c9bc42ed",
					"getParameters(string)": "5a0a1390",
					"getParameters2(address,string)": "7b735c46",
					"getValues(string)": "c99ba896",
					"keys(string,uint256)": "06699b01",
					"retrieve_bundle(string)": "37f2e190",
					"voter_maps(string,address)": "33a0b0ab"
				}
			},
			"storageLayout": {
				"storage": [
					{
						"astId": 36,
						"contract": "contracts/BusinessConsensus2.sol:BusinessConsensus2",
						"label": "businessProposals",
						"offset": 0,
						"slot": "0",
						"type": "t_mapping(t_string_memory_ptr,t_struct(Proposal)31_storage)"
					},
					{
						"astId": 43,
						"contract": "contracts/BusinessConsensus2.sol:BusinessConsensus2",
						"label": "voter_maps",
						"offset": 0,
						"slot": "1",
						"type": "t_mapping(t_string_memory_ptr,t_mapping(t_address,t_struct(Voter)8_storage))"
					},
					{
						"astId": 49,
						"contract": "contracts/BusinessConsensus2.sol:BusinessConsensus2",
						"label": "Voters",
						"offset": 0,
						"slot": "2",
						"type": "t_mapping(t_string_memory_ptr,t_array(t_struct(Voter)8_storage)dyn_storage)"
					},
					{
						"astId": 54,
						"contract": "contracts/BusinessConsensus2.sol:BusinessConsensus2",
						"label": "keys",
						"offset": 0,
						"slot": "3",
						"type": "t_mapping(t_string_memory_ptr,t_array(t_address)dyn_storage)"
					}
				],
				"types": {
					"t_address": {
						"encoding": "inplace",
						"label": "address",
						"numberOfBytes": "20"
					},
					"t_array(t_address)dyn_storage": {
						"base": "t_address",
						"encoding": "dynamic_array",
						"label": "address[]",
						"numberOfBytes": "32"
					},
					"t_array(t_struct(Voter)8_storage)dyn_storage": {
						"base": "t_struct(Voter)8_storage",
						"encoding": "dynamic_array",
						"label": "struct BusinessConsensus2.Voter[]",
						"numberOfBytes": "32"
					},
					"t_bool": {
						"encoding": "inplace",
						"label": "bool",
						"numberOfBytes": "1"
					},
					"t_bytes32": {
						"encoding": "inplace",
						"label": "bytes32",
						"numberOfBytes": "32"
					},
					"t_mapping(t_address,t_struct(Voter)8_storage)": {
						"encoding": "mapping",
						"key": "t_address",
						"label": "mapping(address => struct BusinessConsensus2.Voter)",
						"numberOfBytes": "32",
						"value": "t_struct(Voter)8_storage"
					},
					"t_mapping(t_string_memory_ptr,t_array(t_address)dyn_storage)": {
						"encoding": "mapping",
						"key": "t_string_memory_ptr",
						"label": "mapping(string => address[])",
						"numberOfBytes": "32",
						"value": "t_array(t_address)dyn_storage"
					},
					"t_mapping(t_string_memory_ptr,t_array(t_struct(Voter)8_storage)dyn_storage)": {
						"encoding": "mapping",
						"key": "t_string_memory_ptr",
						"label": "mapping(string => struct BusinessConsensus2.Voter[])",
						"numberOfBytes": "32",
						"value": "t_array(t_struct(Voter)8_storage)dyn_storage"
					},
					"t_mapping(t_string_memory_ptr,t_mapping(t_address,t_struct(Voter)8_storage))": {
						"encoding": "mapping",
						"key": "t_string_memory_ptr",
						"label": "mapping(string => mapping(address => struct BusinessConsensus2.Voter))",
						"numberOfBytes": "32",
						"value": "t_mapping(t_address,t_struct(Voter)8_storage)"
					},
					"t_mapping(t_string_memory_ptr,t_struct(Proposal)31_storage)": {
						"encoding": "mapping",
						"key": "t_string_memory_ptr",
						"label": "mapping(string => struct BusinessConsensus2.Proposal)",
						"numberOfBytes": "32",
						"value": "t_struct(Proposal)31_storage"
					},
					"t_string_memory_ptr": {
						"encoding": "bytes",
						"label": "string",
						"numberOfBytes": "32"
					},
					"t_string_storage": {
						"encoding": "bytes",
						"label": "string",
						"numberOfBytes": "32"
					},
					"t_struct(Proposal)31_storage": {
						"encoding": "inplace",
						"label": "struct BusinessConsensus2.Proposal",
						"members": [
							{
								"astId": 10,
								"contract": "contracts/BusinessConsensus2.sol:BusinessConsensus2",
								"label": "messageID",
								"offset": 0,
								"slot": "0",
								"type": "t_string_storage"
							},
							{
								"astId": 12,
								"contract": "contracts/BusinessConsensus2.sol:BusinessConsensus2",
								"label": "initiator",
								"offset": 0,
								"slot": "1",
								"type": "t_address"
							},
							{
								"astId": 14,
								"contract": "contracts/BusinessConsensus2.sol:BusinessConsensus2",
								"label": "contractAddress",
								"offset": 0,
								"slot": "2",
								"type": "t_address"
							},
							{
								"astId": 16,
								"contract": "contracts/BusinessConsensus2.sol:BusinessConsensus2",
								"label": "voteCount",
								"offset": 0,
								"slot": "3",
								"type": "t_uint256"
							},
							{
								"astId": 18,
								"contract": "contracts/BusinessConsensus2.sol:BusinessConsensus2",
								"label": "expiryDate",
								"offset": 0,
								"slot": "4",
								"type": "t_uint256"
							},
							{
								"astId": 20,
								"contract": "contracts/BusinessConsensus2.sol:BusinessConsensus2",
								"label": "BusinessRequirement",
								"offset": 0,
								"slot": "5",
								"type": "t_uint256"
							},
							{
								"astId": 22,
								"contract": "contracts/BusinessConsensus2.sol:BusinessConsensus2",
								"label": "numApprovals",
								"offset": 0,
								"slot": "6",
								"type": "t_uint256"
							},
							{
								"astId": 24,
								"contract": "contracts/BusinessConsensus2.sol:BusinessConsensus2",
								"label": "isCompiled",
								"offset": 0,
								"slot": "7",
								"type": "t_bool"
							},
							{
								"astId": 26,
								"contract": "contracts/BusinessConsensus2.sol:BusinessConsensus2",
								"label": "finalVerdict",
								"offset": 0,
								"slot": "8",
								"type": "t_bytes32"
							},
							{
								"astId": 28,
								"contract": "contracts/BusinessConsensus2.sol:BusinessConsensus2",
								"label": "subject",
								"offset": 0,
								"slot": "9",
								"type": "t_string_storage"
							},
							{
								"astId": 30,
								"contract": "contracts/BusinessConsensus2.sol:BusinessConsensus2",
								"label": "contents",
								"offset": 0,
								"slot": "10",
								"type": "t_string_storage"
							}
						],
						"numberOfBytes": "352"
					},
					"t_struct(Voter)8_storage": {
						"encoding": "inplace",
						"label": "struct BusinessConsensus2.Voter",
						"members": [
							{
								"astId": 3,
								"contract": "contracts/BusinessConsensus2.sol:BusinessConsensus2",
								"label": "voted",
								"offset": 0,
								"slot": "0",
								"type": "t_bool"
							},
							{
								"astId": 5,
								"contract": "contracts/BusinessConsensus2.sol:BusinessConsensus2",
								"label": "vote",
								"offset": 1,
								"slot": "0",
								"type": "t_bool"
							},
							{
								"astId": 7,
								"contract": "contracts/BusinessConsensus2.sol:BusinessConsensus2",
								"label": "recipient",
								"offset": 2,
								"slot": "0",
								"type": "t_address"
							}
						],
						"numberOfBytes": "32"
					},
					"t_uint256": {
						"encoding": "inplace",
						"label": "uint256",
						"numberOfBytes": "32"
					}
				}
			},
			"userdoc": {
				"kind": "user",
				"methods": {
					"Consensus(string)": {
						"notice": "compile all relevant information into a Bundle"
					}
				},
				"version": 1
			}
		}
	}
}