{
	"contracts/BusinessConsensus2.sol": {
		"BusinessConsensus2": {
			"abi": [
				{
					"inputs": [
						{
							"internalType": "string",
							"name": "_messageID",
							"type": "string"
						}
					],
					"name": "Consensus",
					"outputs": [],
					"stateMutability": "nonpayable",
					"type": "function"
				},
				{
					"inputs": [
						{
							"internalType": "address",
							"name": "voter",
							"type": "address"
						},
						{
							"internalType": "string",
							"name": "_messageID",
							"type": "string"
						}
					],
					"name": "RegisterVoter",
					"outputs": [],
					"stateMutability": "nonpayable",
					"type": "function"
				},
				{
					"inputs": [
						{
							"internalType": "string",
							"name": "response",
							"type": "string"
						},
						{
							"internalType": "string",
							"name": "_messageID",
							"type": "string"
						}
					],
					"name": "Vote",
					"outputs": [],
					"stateMutability": "nonpayable",
					"type": "function"
				},
				{
					"inputs": [
						{
							"internalType": "string",
							"name": "",
							"type": "string"
						},
						{
							"internalType": "uint256",
							"name": "",
							"type": "uint256"
						}
					],
					"name": "Voters",
					"outputs": [
						{
							"internalType": "bool",
							"name": "voted",
							"type": "bool"
						},
						{
							"internalType": "bool",
							"name": "vote",
							"type": "bool"
						},
						{
							"internalType": "address",
							"name": "recipient",
							"type": "address"
						}
					],
					"stateMutability": "view",
					"type": "function"
				},
				{
					"inputs": [
						{
							"internalType": "string",
							"name": "",
							"type": "string"
						}
					],
					"name": "businessProposals",
					"outputs": [
						{
							"internalType": "string",
							"name": "messageID",
							"type": "string"
						},
						{
							"internalType": "address",
							"name": "initiator",
							"type": "address"
						},
						{
							"internalType": "address",
							"name": "contractAddress",
							"type": "address"
						},
						{
							"internalType": "uint256",
							"name": "voteCount",
							"type": "uint256"
						},
						{
							"internalType": "uint256",
							"name": "expiryDate",
							"type": "uint256"
						},
						{
							"internalType": "uint256",
							"name": "BusinessRequirement",
							"type": "uint256"
						},
						{
							"internalType": "uint256",
							"name": "numApprovals",
							"type": "uint256"
						},
						{
							"internalType": "bool",
							"name": "isCompiled",
							"type": "bool"
						},
						{
							"internalType": "bytes32",
							"name": "finalVerdict",
							"type": "bytes32"
						},
						{
							"internalType": "string",
							"name": "messageDate",
							"type": "string"
						},
						{
							"internalType": "string",
							"name": "subject",
							"type": "string"
						},
						{
							"internalType": "bytes32",
							"name": "contents",
							"type": "bytes32"
						}
					],
					"stateMutability": "view",
					"type": "function"
				},
				{
					"inputs": [
						{
							"internalType": "string",
							"name": "_subject",
							"type": "string"
						},
						{
							"internalType": "uint256",
							"name": "_businessRequirement",
							"type": "uint256"
						},
						{
							"internalType": "uint256",
							"name": "_expiry",
							"type": "uint256"
						},
						{
							"internalType": "bytes32",
							"name": "_contents",
							"type": "bytes32"
						}
					],
					"name": "checkConsistency",
					"outputs": [
						{
							"internalType": "bool",
							"name": "",
							"type": "bool"
						},
						{
							"internalType": "bool",
							"name": "",
							"type": "bool"
						},
						{
							"internalType": "bool",
							"name": "",
							"type": "bool"
						}
					],
					"stateMutability": "view",
					"type": "function"
				},
				{
					"inputs": [
						{
							"internalType": "string",
							"name": "_messageID",
							"type": "string"
						},
						{
							"internalType": "uint256",
							"name": "expiry",
							"type": "uint256"
						},
						{
							"internalType": "uint256",
							"name": "requiredPercentage",
							"type": "uint256"
						},
						{
							"internalType": "bytes32",
							"name": "contents",
							"type": "bytes32"
						},
						{
							"internalType": "string",
							"name": "subject",
							"type": "string"
						},
						{
							"internalType": "string",
							"name": "_messageDate",
							"type": "string"
						}
					],
					"name": "createContract",
					"outputs": [],
					"stateMutability": "nonpayable",
					"type": "function"
				},
				{
					"inputs": [
						{
							"internalType": "string",
							"name": "_messageID",
							"type": "string"
						}
					],
					"name": "getIsCompiled",
					"outputs": [
						{
							"internalType": "bool",
							"name": "",
							"type": "bool"
						}
					],
					"stateMutability": "view",
					"type": "function"
				},
				{
					"inputs": [
						{
							"internalType": "string",
							"name": "subject",
							"type": "string"
						}
					],
					"name": "getIsCreated",
					"outputs": [
						{
							"components": [
								{
									"internalType": "string",
									"name": "messageID",
									"type": "string"
								},
								{
									"internalType": "address",
									"name": "initiator",
									"type": "address"
								},
								{
									"internalType": "address",
									"name": "contractAddress",
									"type": "address"
								},
								{
									"internalType": "uint256",
									"name": "voteCount",
									"type": "uint256"
								},
								{
									"internalType": "uint256",
									"name": "expiryDate",
									"type": "uint256"
								},
								{
									"internalType": "uint256",
									"name": "BusinessRequirement",
									"type": "uint256"
								},
								{
									"internalType": "uint256",
									"name": "numApprovals",
									"type": "uint256"
								},
								{
									"internalType": "bool",
									"name": "isCompiled",
									"type": "bool"
								},
								{
									"internalType": "bytes32",
									"name": "finalVerdict",
									"type": "bytes32"
								},
								{
									"internalType": "string",
									"name": "messageDate",
									"type": "string"
								},
								{
									"internalType": "string",
									"name": "subject",
									"type": "string"
								},
								{
									"internalType": "bytes32",
									"name": "contents",
									"type": "bytes32"
								}
							],
							"internalType": "struct BusinessConsensus2.Proposal",
							"name": "",
							"type": "tuple"
						}
					],
					"stateMutability": "view",
					"type": "function"
				},
				{
					"inputs": [
						{
							"internalType": "string",
							"name": "_messageID",
							"type": "string"
						}
					],
					"name": "getParameters",
					"outputs": [
						{
							"internalType": "string",
							"name": "",
							"type": "string"
						},
						{
							"internalType": "uint256",
							"name": "",
							"type": "uint256"
						},
						{
							"internalType": "address",
							"name": "",
							"type": "address"
						},
						{
							"internalType": "uint256",
							"name": "",
							"type": "uint256"
						},
						{
							"internalType": "uint256",
							"name": "",
							"type": "uint256"
						}
					],
					"stateMutability": "view",
					"type": "function"
				},
				{
					"inputs": [
						{
							"internalType": "address",
							"name": "test_address",
							"type": "address"
						},
						{
							"internalType": "string",
							"name": "_messageID",
							"type": "string"
						}
					],
					"name": "getParameters2",
					"outputs": [
						{
							"internalType": "bool",
							"name": "",
							"type": "bool"
						},
						{
							"internalType": "bool",
							"name": "",
							"type": "bool"
						},
						{
							"internalType": "address",
							"name": "",
							"type": "address"
						}
					],
					"stateMutability": "view",
					"type": "function"
				},
				{
					"inputs": [
						{
							"internalType": "string",
							"name": "_messageID",
							"type": "string"
						}
					],
					"name": "getValues",
					"outputs": [
						{
							"internalType": "string",
							"name": "",
							"type": "string"
						}
					],
					"stateMutability": "view",
					"type": "function"
				},
				{
					"inputs": [
						{
							"internalType": "string",
							"name": "",
							"type": "string"
						},
						{
							"internalType": "uint256",
							"name": "",
							"type": "uint256"
						}
					],
					"name": "keys",
					"outputs": [
						{
							"internalType": "address",
							"name": "",
							"type": "address"
						}
					],
					"stateMutability": "view",
					"type": "function"
				},
				{
					"inputs": [
						{
							"internalType": "string",
							"name": "_messageID",
							"type": "string"
						}
					],
					"name": "retrieve_bundle",
					"outputs": [
						{
							"internalType": "bytes32",
							"name": "",
							"type": "bytes32"
						},
						{
							"internalType": "string",
							"name": "",
							"type": "string"
						},
						{
							"internalType": "uint256",
							"name": "",
							"type": "uint256"
						},
						{
							"components": [
								{
									"internalType": "bool",
									"name": "voted",
									"type": "bool"
								},
								{
									"internalType": "bool",
									"name": "vote",
									"type": "bool"
								},
								{
									"internalType": "address",
									"name": "recipient",
									"type": "address"
								}
							],
							"internalType": "struct BusinessConsensus2.Voter[]",
							"name": "",
							"type": "tuple[]"
						}
					],
					"stateMutability": "view",
					"type": "function"
				},
				{
					"inputs": [
						{
							"internalType": "string",
							"name": "",
							"type": "string"
						},
						{
							"internalType": "address",
							"name": "",
							"type": "address"
						}
					],
					"name": "voter_maps",
					"outputs": [
						{
							"internalType": "bool",
							"name": "voted",
							"type": "bool"
						},
						{
							"internalType": "bool",
							"name": "vote",
							"type": "bool"
						},
						{
							"internalType": "address",
							"name": "recipient",
							"type": "address"
						}
					],
					"stateMutability": "view",
					"type": "function"
				}
			],
			"devdoc": {
				"kind": "dev",
				"methods": {},
				"version": 1
			},
			"evm": {
				"assembly": "    /* \"contracts/BusinessConsensus2.sol\":33:8251  contract BusinessConsensus2{\r... */\n  mstore(0x40, 0x80)\n  callvalue\n  dup1\n  iszero\n  tag_1\n  jumpi\n  0x00\n  dup1\n  revert\ntag_1:\n  pop\n  dataSize(sub_0)\n  dup1\n  dataOffset(sub_0)\n  0x00\n  codecopy\n  0x00\n  return\nstop\n\nsub_0: assembly {\n        /* \"contracts/BusinessConsensus2.sol\":33:8251  contract BusinessConsensus2{\r... */\n      mstore(0x40, 0x80)\n      callvalue\n      dup1\n      iszero\n      tag_1\n      jumpi\n      0x00\n      dup1\n      revert\n    tag_1:\n      pop\n      jumpi(tag_2, lt(calldatasize, 0x04))\n      shr(0xe0, calldataload(0x00))\n      dup1\n      0x7aa18f88\n      gt\n      tag_18\n      jumpi\n      dup1\n      0x9d6a3125\n      gt\n      tag_19\n      jumpi\n      dup1\n      0x9d6a3125\n      eq\n      tag_14\n      jumpi\n      dup1\n      0xc99ba896\n      eq\n      tag_15\n      jumpi\n      dup1\n      0xc9bc42ed\n      eq\n      tag_16\n      jumpi\n      dup1\n      0xec548680\n      eq\n      tag_17\n      jumpi\n      jump(tag_2)\n    tag_19:\n      dup1\n      0x7aa18f88\n      eq\n      tag_10\n      jumpi\n      dup1\n      0x7b735c46\n      eq\n      tag_11\n      jumpi\n      dup1\n      0x883a9673\n      eq\n      tag_12\n      jumpi\n      dup1\n      0x8f6a35b7\n      eq\n      tag_13\n      jumpi\n      jump(tag_2)\n    tag_18:\n      dup1\n      0x33a0b0ab\n      gt\n      tag_20\n      jumpi\n      dup1\n      0x33a0b0ab\n      eq\n      tag_6\n      jumpi\n      dup1\n      0x37f2e190\n      eq\n      tag_7\n      jumpi\n      dup1\n      0x3d63af0e\n      eq\n      tag_8\n      jumpi\n      dup1\n      0x5a0a1390\n      eq\n      tag_9\n      jumpi\n      jump(tag_2)\n    tag_20:\n      dup1\n      0x06699b01\n      eq\n      tag_3\n      jumpi\n      dup1\n      0x089a4c60\n      eq\n      tag_4\n      jumpi\n      dup1\n      0x17072d6b\n      eq\n      tag_5\n      jumpi\n    tag_2:\n      0x00\n      dup1\n      revert\n        /* \"contracts/BusinessConsensus2.sol\":1151:1189  mapping(string=>address[]) public keys */\n    tag_3:\n      tag_21\n      0x04\n      dup1\n      calldatasize\n      sub\n      dup2\n      add\n      swap1\n      tag_22\n      swap2\n      swap1\n      tag_23\n      jump\t// in\n    tag_22:\n      tag_24\n      jump\t// in\n    tag_21:\n      mload(0x40)\n      tag_25\n      swap2\n      swap1\n      tag_26\n      jump\t// in\n    tag_25:\n      mload(0x40)\n      dup1\n      swap2\n      sub\n      swap1\n      return\n        /* \"contracts/BusinessConsensus2.sol\":984:1034  mapping(string=>Proposal) public businessProposals */\n    tag_4:\n      tag_27\n      0x04\n      dup1\n      calldatasize\n      sub\n      dup2\n      add\n      swap1\n      tag_28\n      swap2\n      swap1\n      tag_29\n      jump\t// in\n    tag_28:\n      tag_30\n      jump\t// in\n    tag_27:\n      mload(0x40)\n      tag_31\n      swap13\n      swap12\n      swap11\n      swap10\n      swap9\n      swap8\n      swap7\n      swap6\n      swap5\n      swap4\n      swap3\n      swap2\n      swap1\n      tag_32\n      jump\t// in\n    tag_31:\n      mload(0x40)\n      dup1\n      swap2\n      sub\n      swap1\n      return\n        /* \"contracts/BusinessConsensus2.sol\":5165:6556  function Vote(string memory response,string calldata _messageID) external {\r... */\n    tag_5:\n      tag_33\n      0x04\n      dup1\n      calldatasize\n      sub\n      dup2\n      add\n      swap1\n      tag_34\n      swap2\n      swap1\n      tag_35\n      jump\t// in\n    tag_34:\n      tag_36\n      jump\t// in\n    tag_33:\n      stop\n        /* \"contracts/BusinessConsensus2.sol\":1041:1099  mapping(string=>mapping(address=>Voter)) public voter_maps */\n    tag_6:\n      tag_37\n      0x04\n      dup1\n      calldatasize\n      sub\n      dup2\n      add\n      swap1\n      tag_38\n      swap2\n      swap1\n      tag_39\n      jump\t// in\n    tag_38:\n      tag_40\n      jump\t// in\n    tag_37:\n      mload(0x40)\n      tag_41\n      swap4\n      swap3\n      swap2\n      swap1\n      tag_42\n      jump\t// in\n    tag_41:\n      mload(0x40)\n      dup1\n      swap2\n      sub\n      swap1\n      return\n        /* \"contracts/BusinessConsensus2.sol\":7687:8246  function retrieve_bundle(string calldata _messageID) external view returns (bytes32, string memory, uint256, Voter[] memory){\r... */\n    tag_7:\n      tag_43\n      0x04\n      dup1\n      calldatasize\n      sub\n      dup2\n      add\n      swap1\n      tag_44\n      swap2\n      swap1\n      tag_45\n      jump\t// in\n    tag_44:\n      tag_46\n      jump\t// in\n    tag_43:\n      mload(0x40)\n      tag_47\n      swap5\n      swap4\n      swap3\n      swap2\n      swap1\n      tag_48\n      jump\t// in\n    tag_47:\n      mload(0x40)\n      dup1\n      swap2\n      sub\n      swap1\n      return\n        /* \"contracts/BusinessConsensus2.sol\":4360:5157  function RegisterVoter(address voter,string calldata _messageID) external {\r... */\n    tag_8:\n      tag_49\n      0x04\n      dup1\n      calldatasize\n      sub\n      dup2\n      add\n      swap1\n      tag_50\n      swap2\n      swap1\n      tag_51\n      jump\t// in\n    tag_50:\n      tag_52\n      jump\t// in\n    tag_49:\n      stop\n        /* \"contracts/BusinessConsensus2.sol\":3614:3971  function getParameters(string calldata _messageID) external view returns (string memory, uint , address ,uint ,uint){\r... */\n    tag_9:\n      tag_53\n      0x04\n      dup1\n      calldatasize\n      sub\n      dup2\n      add\n      swap1\n      tag_54\n      swap2\n      swap1\n      tag_45\n      jump\t// in\n    tag_54:\n      tag_55\n      jump\t// in\n    tag_53:\n      mload(0x40)\n      tag_56\n      swap6\n      swap5\n      swap4\n      swap3\n      swap2\n      swap1\n      tag_57\n      jump\t// in\n    tag_56:\n      mload(0x40)\n      dup1\n      swap2\n      sub\n      swap1\n      return\n        /* \"contracts/BusinessConsensus2.sol\":1202:2242  function createContract(string memory _messageID, uint256 expiry, uint256 requiredPercentage,bytes32 contents,string memory subject,string memory _messageDate) external{\r... */\n    tag_10:\n      tag_58\n      0x04\n      dup1\n      calldatasize\n      sub\n      dup2\n      add\n      swap1\n      tag_59\n      swap2\n      swap1\n      tag_60\n      jump\t// in\n    tag_59:\n      tag_61\n      jump\t// in\n    tag_58:\n      stop\n        /* \"contracts/BusinessConsensus2.sol\":3977:4254  function getParameters2(address test_address,string calldata _messageID) external view returns (bool, bool, address){\r... */\n    tag_11:\n      tag_62\n      0x04\n      dup1\n      calldatasize\n      sub\n      dup2\n      add\n      swap1\n      tag_63\n      swap2\n      swap1\n      tag_51\n      jump\t// in\n    tag_63:\n      tag_64\n      jump\t// in\n    tag_62:\n      mload(0x40)\n      tag_65\n      swap4\n      swap3\n      swap2\n      swap1\n      tag_42\n      jump\t// in\n    tag_65:\n      mload(0x40)\n      dup1\n      swap2\n      sub\n      swap1\n      return\n        /* \"contracts/BusinessConsensus2.sol\":6620:7679  function Consensus(string calldata _messageID) external {\r... */\n    tag_12:\n      tag_66\n      0x04\n      dup1\n      calldatasize\n      sub\n      dup2\n      add\n      swap1\n      tag_67\n      swap2\n      swap1\n      tag_45\n      jump\t// in\n    tag_67:\n      tag_68\n      jump\t// in\n    tag_66:\n      stop\n        /* \"contracts/BusinessConsensus2.sol\":1106:1144  mapping(string=>Voter[]) public Voters */\n    tag_13:\n      tag_69\n      0x04\n      dup1\n      calldatasize\n      sub\n      dup2\n      add\n      swap1\n      tag_70\n      swap2\n      swap1\n      tag_23\n      jump\t// in\n    tag_70:\n      tag_71\n      jump\t// in\n    tag_69:\n      mload(0x40)\n      tag_72\n      swap4\n      swap3\n      swap2\n      swap1\n      tag_42\n      jump\t// in\n    tag_72:\n      mload(0x40)\n      dup1\n      swap2\n      sub\n      swap1\n      return\n        /* \"contracts/BusinessConsensus2.sol\":2550:3466  function checkConsistency(string memory _subject, uint256 _businessRequirement, uint256 _expiry, bytes32 _contents) public view returns(bool, bool, bool){\r... */\n    tag_14:\n      tag_73\n      0x04\n      dup1\n      calldatasize\n      sub\n      dup2\n      add\n      swap1\n      tag_74\n      swap2\n      swap1\n      tag_75\n      jump\t// in\n    tag_74:\n      tag_76\n      jump\t// in\n    tag_73:\n      mload(0x40)\n      tag_77\n      swap4\n      swap3\n      swap2\n      swap1\n      tag_78\n      jump\t// in\n    tag_77:\n      mload(0x40)\n      dup1\n      swap2\n      sub\n      swap1\n      return\n        /* \"contracts/BusinessConsensus2.sol\":2248:2395  function getValues(string calldata _messageID) public view returns (string memory){\r... */\n    tag_15:\n      tag_79\n      0x04\n      dup1\n      calldatasize\n      sub\n      dup2\n      add\n      swap1\n      tag_80\n      swap2\n      swap1\n      tag_45\n      jump\t// in\n    tag_80:\n      tag_81\n      jump\t// in\n    tag_79:\n      mload(0x40)\n      tag_82\n      swap2\n      swap1\n      tag_83\n      jump\t// in\n    tag_82:\n      mload(0x40)\n      dup1\n      swap2\n      sub\n      swap1\n      return\n        /* \"contracts/BusinessConsensus2.sol\":3472:3608  function getIsCreated(string calldata subject) public view returns (Proposal memory){\r... */\n    tag_16:\n      tag_84\n      0x04\n      dup1\n      calldatasize\n      sub\n      dup2\n      add\n      swap1\n      tag_85\n      swap2\n      swap1\n      tag_45\n      jump\t// in\n    tag_85:\n      tag_86\n      jump\t// in\n    tag_84:\n      mload(0x40)\n      tag_87\n      swap2\n      swap1\n      tag_88\n      jump\t// in\n    tag_87:\n      mload(0x40)\n      dup1\n      swap2\n      sub\n      swap1\n      return\n        /* \"contracts/BusinessConsensus2.sol\":2401:2544  function getIsCompiled(string calldata _messageID) public view returns (bool){\r... */\n    tag_17:\n      tag_89\n      0x04\n      dup1\n      calldatasize\n      sub\n      dup2\n      add\n      swap1\n      tag_90\n      swap2\n      swap1\n      tag_45\n      jump\t// in\n    tag_90:\n      tag_91\n      jump\t// in\n    tag_89:\n      mload(0x40)\n      tag_92\n      swap2\n      swap1\n      tag_93\n      jump\t// in\n    tag_92:\n      mload(0x40)\n      dup1\n      swap2\n      sub\n      swap1\n      return\n        /* \"contracts/BusinessConsensus2.sol\":1151:1189  mapping(string=>address[]) public keys */\n    tag_24:\n      0x03\n      dup3\n      dup1\n      mload\n      0x20\n      dup2\n      add\n      dup3\n      add\n      dup1\n      mload\n      dup5\n      dup3\n      mstore\n      0x20\n      dup4\n      add\n      0x20\n      dup6\n      add\n      keccak256\n      dup2\n      dup4\n      mstore\n      dup1\n      swap6\n      pop\n      pop\n      pop\n      pop\n      pop\n      pop\n      dup2\n      dup2\n      sload\n      dup2\n      lt\n      tag_94\n      jumpi\n      0x00\n      dup1\n      revert\n    tag_94:\n      swap1\n      0x00\n      mstore\n      keccak256(0x00, 0x20)\n      add\n      0x00\n      swap2\n      pop\n      swap2\n      pop\n      swap1\n      sload\n      swap1\n      0x0100\n      exp\n      swap1\n      div\n      0xffffffffffffffffffffffffffffffffffffffff\n      and\n      dup2\n      jump\t// out\n        /* \"contracts/BusinessConsensus2.sol\":984:1034  mapping(string=>Proposal) public businessProposals */\n    tag_30:\n      0x00\n      dup2\n      dup1\n      mload\n      0x20\n      dup2\n      add\n      dup3\n      add\n      dup1\n      mload\n      dup5\n      dup3\n      mstore\n      0x20\n      dup4\n      add\n      0x20\n      dup6\n      add\n      keccak256\n      dup2\n      dup4\n      mstore\n      dup1\n      swap6\n      pop\n      pop\n      pop\n      pop\n      pop\n      pop\n      0x00\n      swap2\n      pop\n      swap1\n      pop\n      dup1\n      0x00\n      add\n      dup1\n      sload\n      tag_96\n      swap1\n      tag_97\n      jump\t// in\n    tag_96:\n      dup1\n      0x1f\n      add\n      0x20\n      dup1\n      swap2\n      div\n      mul\n      0x20\n      add\n      mload(0x40)\n      swap1\n      dup2\n      add\n      0x40\n      mstore\n      dup1\n      swap3\n      swap2\n      swap1\n      dup2\n      dup2\n      mstore\n      0x20\n      add\n      dup3\n      dup1\n      sload\n      tag_98\n      swap1\n      tag_97\n      jump\t// in\n    tag_98:\n      dup1\n      iszero\n      tag_99\n      jumpi\n      dup1\n      0x1f\n      lt\n      tag_100\n      jumpi\n      0x0100\n      dup1\n      dup4\n      sload\n      div\n      mul\n      dup4\n      mstore\n      swap2\n      0x20\n      add\n      swap2\n      jump(tag_99)\n    tag_100:\n      dup3\n      add\n      swap2\n      swap1\n      0x00\n      mstore\n      keccak256(0x00, 0x20)\n      swap1\n    tag_101:\n      dup2\n      sload\n      dup2\n      mstore\n      swap1\n      0x01\n      add\n      swap1\n      0x20\n      add\n      dup1\n      dup4\n      gt\n      tag_101\n      jumpi\n      dup3\n      swap1\n      sub\n      0x1f\n      and\n      dup3\n      add\n      swap2\n    tag_99:\n      pop\n      pop\n      pop\n      pop\n      pop\n      swap1\n      dup1\n      0x01\n      add\n      0x00\n      swap1\n      sload\n      swap1\n      0x0100\n      exp\n      swap1\n      div\n      0xffffffffffffffffffffffffffffffffffffffff\n      and\n      swap1\n      dup1\n      0x02\n      add\n      0x00\n      swap1\n      sload\n      swap1\n      0x0100\n      exp\n      swap1\n      div\n      0xffffffffffffffffffffffffffffffffffffffff\n      and\n      swap1\n      dup1\n      0x03\n      add\n      sload\n      swap1\n      dup1\n      0x04\n      add\n      sload\n      swap1\n      dup1\n      0x05\n      add\n      sload\n      swap1\n      dup1\n      0x06\n      add\n      sload\n      swap1\n      dup1\n      0x07\n      add\n      0x00\n      swap1\n      sload\n      swap1\n      0x0100\n      exp\n      swap1\n      div\n      0xff\n      and\n      swap1\n      dup1\n      0x08\n      add\n      sload\n      swap1\n      dup1\n      0x09\n      add\n      dup1\n      sload\n      tag_102\n      swap1\n      tag_97\n      jump\t// in\n    tag_102:\n      dup1\n      0x1f\n      add\n      0x20\n      dup1\n      swap2\n      div\n      mul\n      0x20\n      add\n      mload(0x40)\n      swap1\n      dup2\n      add\n      0x40\n      mstore\n      dup1\n      swap3\n      swap2\n      swap1\n      dup2\n      dup2\n      mstore\n      0x20\n      add\n      dup3\n      dup1\n      sload\n      tag_103\n      swap1\n      tag_97\n      jump\t// in\n    tag_103:\n      dup1\n      iszero\n      tag_104\n      jumpi\n      dup1\n      0x1f\n      lt\n      tag_105\n      jumpi\n      0x0100\n      dup1\n      dup4\n      sload\n      div\n      mul\n      dup4\n      mstore\n      swap2\n      0x20\n      add\n      swap2\n      jump(tag_104)\n    tag_105:\n      dup3\n      add\n      swap2\n      swap1\n      0x00\n      mstore\n      keccak256(0x00, 0x20)\n      swap1\n    tag_106:\n      dup2\n      sload\n      dup2\n      mstore\n      swap1\n      0x01\n      add\n      swap1\n      0x20\n      add\n      dup1\n      dup4\n      gt\n      tag_106\n      jumpi\n      dup3\n      swap1\n      sub\n      0x1f\n      and\n      dup3\n      add\n      swap2\n    tag_104:\n      pop\n      pop\n      pop\n      pop\n      pop\n      swap1\n      dup1\n      0x0a\n      add\n      dup1\n      sload\n      tag_107\n      swap1\n      tag_97\n      jump\t// in\n    tag_107:\n      dup1\n      0x1f\n      add\n      0x20\n      dup1\n      swap2\n      div\n      mul\n      0x20\n      add\n      mload(0x40)\n      swap1\n      dup2\n      add\n      0x40\n      mstore\n      dup1\n      swap3\n      swap2\n      swap1\n      dup2\n      dup2\n      mstore\n      0x20\n      add\n      dup3\n      dup1\n      sload\n      tag_108\n      swap1\n      tag_97\n      jump\t// in\n    tag_108:\n      dup1\n      iszero\n      tag_109\n      jumpi\n      dup1\n      0x1f\n      lt\n      tag_110\n      jumpi\n      0x0100\n      dup1\n      dup4\n      sload\n      div\n      mul\n      dup4\n      mstore\n      swap2\n      0x20\n      add\n      swap2\n      jump(tag_109)\n    tag_110:\n      dup3\n      add\n      swap2\n      swap1\n      0x00\n      mstore\n      keccak256(0x00, 0x20)\n      swap1\n    tag_111:\n      dup2\n      sload\n      dup2\n      mstore\n      swap1\n      0x01\n      add\n      swap1\n      0x20\n      add\n      dup1\n      dup4\n      gt\n      tag_111\n      jumpi\n      dup3\n      swap1\n      sub\n      0x1f\n      and\n      dup3\n      add\n      swap2\n    tag_109:\n      pop\n      pop\n      pop\n      pop\n      pop\n      swap1\n      dup1\n      0x0b\n      add\n      sload\n      swap1\n      pop\n      dup13\n      jump\t// out\n        /* \"contracts/BusinessConsensus2.sol\":5165:6556  function Vote(string memory response,string calldata _messageID) external {\r... */\n    tag_36:\n        /* \"contracts/BusinessConsensus2.sol\":5278:5295  businessProposals */\n      0x00\n        /* \"contracts/BusinessConsensus2.sol\":5296:5306  _messageID */\n      dup3\n      dup3\n        /* \"contracts/BusinessConsensus2.sol\":5278:5307  businessProposals[_messageID] */\n      mload(0x40)\n      tag_113\n      swap3\n      swap2\n      swap1\n      tag_114\n      jump\t// in\n    tag_113:\n      swap1\n      dup2\n      mstore\n      0x20\n      add\n      mload(0x40)\n      dup1\n      swap2\n      sub\n      swap1\n      keccak256\n        /* \"contracts/BusinessConsensus2.sol\":5278:5318  businessProposals[_messageID].expiryDate */\n      0x04\n      add\n      sload\n        /* \"contracts/BusinessConsensus2.sol\":5260:5275  block.timestamp */\n      timestamp\n        /* \"contracts/BusinessConsensus2.sol\":5260:5318  block.timestamp < businessProposals[_messageID].expiryDate */\n      lt\n        /* \"contracts/BusinessConsensus2.sol\":5252:5341  require(block.timestamp < businessProposals[_messageID].expiryDate, \"Voting has expired\") */\n      tag_115\n      jumpi\n      mload(0x40)\n      0x08c379a000000000000000000000000000000000000000000000000000000000\n      dup2\n      mstore\n      0x04\n      add\n      tag_116\n      swap1\n      tag_117\n      jump\t// in\n    tag_116:\n      mload(0x40)\n      dup1\n      swap2\n      sub\n      swap1\n      revert\n    tag_115:\n        /* \"contracts/BusinessConsensus2.sol\":5416:5419  0x0 */\n      0x00\n        /* \"contracts/BusinessConsensus2.sol\":5360:5420  voter_maps[_messageID][msg.sender].recipient != address(0x0) */\n      0xffffffffffffffffffffffffffffffffffffffff\n      and\n        /* \"contracts/BusinessConsensus2.sol\":5360:5370  voter_maps */\n      0x01\n        /* \"contracts/BusinessConsensus2.sol\":5371:5381  _messageID */\n      dup4\n      dup4\n        /* \"contracts/BusinessConsensus2.sol\":5360:5382  voter_maps[_messageID] */\n      mload(0x40)\n      tag_118\n      swap3\n      swap2\n      swap1\n      tag_114\n      jump\t// in\n    tag_118:\n      swap1\n      dup2\n      mstore\n      0x20\n      add\n      mload(0x40)\n      dup1\n      swap2\n      sub\n      swap1\n      keccak256\n        /* \"contracts/BusinessConsensus2.sol\":5360:5394  voter_maps[_messageID][msg.sender] */\n      0x00\n        /* \"contracts/BusinessConsensus2.sol\":5383:5393  msg.sender */\n      caller\n        /* \"contracts/BusinessConsensus2.sol\":5360:5394  voter_maps[_messageID][msg.sender] */\n      0xffffffffffffffffffffffffffffffffffffffff\n      and\n      0xffffffffffffffffffffffffffffffffffffffff\n      and\n      dup2\n      mstore\n      0x20\n      add\n      swap1\n      dup2\n      mstore\n      0x20\n      add\n      0x00\n      keccak256\n        /* \"contracts/BusinessConsensus2.sol\":5360:5404  voter_maps[_messageID][msg.sender].recipient */\n      0x00\n      add\n      0x02\n      swap1\n      sload\n      swap1\n      0x0100\n      exp\n      swap1\n      div\n      0xffffffffffffffffffffffffffffffffffffffff\n      and\n        /* \"contracts/BusinessConsensus2.sol\":5360:5420  voter_maps[_messageID][msg.sender].recipient != address(0x0) */\n      0xffffffffffffffffffffffffffffffffffffffff\n      and\n      eq\n      iszero\n        /* \"contracts/BusinessConsensus2.sol\":5352:5455  require(voter_maps[_messageID][msg.sender].recipient != address(0x0), \"You are not registered to vote\") */\n      tag_119\n      jumpi\n      mload(0x40)\n      0x08c379a000000000000000000000000000000000000000000000000000000000\n      dup2\n      mstore\n      0x04\n      add\n      tag_120\n      swap1\n      tag_121\n      jump\t// in\n    tag_120:\n      mload(0x40)\n      dup1\n      swap2\n      sub\n      swap1\n      revert\n    tag_119:\n        /* \"contracts/BusinessConsensus2.sol\":5475:5485  voter_maps */\n      0x01\n        /* \"contracts/BusinessConsensus2.sol\":5486:5496  _messageID */\n      dup3\n      dup3\n        /* \"contracts/BusinessConsensus2.sol\":5475:5497  voter_maps[_messageID] */\n      mload(0x40)\n      tag_122\n      swap3\n      swap2\n      swap1\n      tag_114\n      jump\t// in\n    tag_122:\n      swap1\n      dup2\n      mstore\n      0x20\n      add\n      mload(0x40)\n      dup1\n      swap2\n      sub\n      swap1\n      keccak256\n        /* \"contracts/BusinessConsensus2.sol\":5475:5509  voter_maps[_messageID][msg.sender] */\n      0x00\n        /* \"contracts/BusinessConsensus2.sol\":5498:5508  msg.sender */\n      caller\n        /* \"contracts/BusinessConsensus2.sol\":5475:5509  voter_maps[_messageID][msg.sender] */\n      0xffffffffffffffffffffffffffffffffffffffff\n      and\n      0xffffffffffffffffffffffffffffffffffffffff\n      and\n      dup2\n      mstore\n      0x20\n      add\n      swap1\n      dup2\n      mstore\n      0x20\n      add\n      0x00\n      keccak256\n        /* \"contracts/BusinessConsensus2.sol\":5475:5515  voter_maps[_messageID][msg.sender].voted */\n      0x00\n      add\n      0x00\n      swap1\n      sload\n      swap1\n      0x0100\n      exp\n      swap1\n      div\n      0xff\n      and\n        /* \"contracts/BusinessConsensus2.sol\":5474:5515  !voter_maps[_messageID][msg.sender].voted */\n      iszero\n        /* \"contracts/BusinessConsensus2.sol\":5466:5548  require(!voter_maps[_messageID][msg.sender].voted, \"You already sent a response.\") */\n      tag_123\n      jumpi\n      mload(0x40)\n      0x08c379a000000000000000000000000000000000000000000000000000000000\n      dup2\n      mstore\n      0x04\n      add\n      tag_124\n      swap1\n      tag_125\n      jump\t// in\n    tag_124:\n      mload(0x40)\n      dup1\n      swap2\n      sub\n      swap1\n      revert\n    tag_123:\n        /* \"contracts/BusinessConsensus2.sol\":5604:5622  bytes(\"i approve\") */\n      mload(0x40)\n      dup1\n      0x40\n      add\n      0x40\n      mstore\n      dup1\n      0x09\n      dup2\n      mstore\n      0x20\n      add\n      0x6920617070726f76650000000000000000000000000000000000000000000000\n      dup2\n      mstore\n      pop\n        /* \"contracts/BusinessConsensus2.sol\":5594:5623  keccak256(bytes(\"i approve\")) */\n      dup1\n      mload\n      swap1\n      0x20\n      add\n      keccak256\n        /* \"contracts/BusinessConsensus2.sol\":5580:5588  response */\n      dup4\n        /* \"contracts/BusinessConsensus2.sol\":5564:5590  keccak256(bytes(response)) */\n      dup1\n      mload\n      swap1\n      0x20\n      add\n      keccak256\n        /* \"contracts/BusinessConsensus2.sol\":5564:5623  keccak256(bytes(response)) == keccak256(bytes(\"i approve\")) */\n      eq\n        /* \"contracts/BusinessConsensus2.sol\":5561:6539  if(keccak256(bytes(response)) == keccak256(bytes(\"i approve\"))){\r... */\n      iszero\n      tag_126\n      jumpi\n        /* \"contracts/BusinessConsensus2.sol\":5682:5686  true */\n      0x01\n        /* \"contracts/BusinessConsensus2.sol\":5639:5649  voter_maps */\n      dup1\n        /* \"contracts/BusinessConsensus2.sol\":5650:5660  _messageID */\n      dup4\n      dup4\n        /* \"contracts/BusinessConsensus2.sol\":5639:5661  voter_maps[_messageID] */\n      mload(0x40)\n      tag_127\n      swap3\n      swap2\n      swap1\n      tag_114\n      jump\t// in\n    tag_127:\n      swap1\n      dup2\n      mstore\n      0x20\n      add\n      mload(0x40)\n      dup1\n      swap2\n      sub\n      swap1\n      keccak256\n        /* \"contracts/BusinessConsensus2.sol\":5639:5673  voter_maps[_messageID][msg.sender] */\n      0x00\n        /* \"contracts/BusinessConsensus2.sol\":5662:5672  msg.sender */\n      caller\n        /* \"contracts/BusinessConsensus2.sol\":5639:5673  voter_maps[_messageID][msg.sender] */\n      0xffffffffffffffffffffffffffffffffffffffff\n      and\n      0xffffffffffffffffffffffffffffffffffffffff\n      and\n      dup2\n      mstore\n      0x20\n      add\n      swap1\n      dup2\n      mstore\n      0x20\n      add\n      0x00\n      keccak256\n        /* \"contracts/BusinessConsensus2.sol\":5639:5679  voter_maps[_messageID][msg.sender].voted */\n      0x00\n      add\n      0x00\n        /* \"contracts/BusinessConsensus2.sol\":5639:5686  voter_maps[_messageID][msg.sender].voted = true */\n      0x0100\n      exp\n      dup2\n      sload\n      dup2\n      0xff\n      mul\n      not\n      and\n      swap1\n      dup4\n      iszero\n      iszero\n      mul\n      or\n      swap1\n      sstore\n      pop\n        /* \"contracts/BusinessConsensus2.sol\":5743:5747  true */\n      0x01\n        /* \"contracts/BusinessConsensus2.sol\":5701:5711  voter_maps */\n      dup1\n        /* \"contracts/BusinessConsensus2.sol\":5712:5722  _messageID */\n      dup4\n      dup4\n        /* \"contracts/BusinessConsensus2.sol\":5701:5723  voter_maps[_messageID] */\n      mload(0x40)\n      tag_128\n      swap3\n      swap2\n      swap1\n      tag_114\n      jump\t// in\n    tag_128:\n      swap1\n      dup2\n      mstore\n      0x20\n      add\n      mload(0x40)\n      dup1\n      swap2\n      sub\n      swap1\n      keccak256\n        /* \"contracts/BusinessConsensus2.sol\":5701:5735  voter_maps[_messageID][msg.sender] */\n      0x00\n        /* \"contracts/BusinessConsensus2.sol\":5724:5734  msg.sender */\n      caller\n        /* \"contracts/BusinessConsensus2.sol\":5701:5735  voter_maps[_messageID][msg.sender] */\n      0xffffffffffffffffffffffffffffffffffffffff\n      and\n      0xffffffffffffffffffffffffffffffffffffffff\n      and\n      dup2\n      mstore\n      0x20\n      add\n      swap1\n      dup2\n      mstore\n      0x20\n      add\n      0x00\n      keccak256\n        /* \"contracts/BusinessConsensus2.sol\":5701:5740  voter_maps[_messageID][msg.sender].vote */\n      0x00\n      add\n      0x01\n        /* \"contracts/BusinessConsensus2.sol\":5701:5747  voter_maps[_messageID][msg.sender].vote = true */\n      0x0100\n      exp\n      dup2\n      sload\n      dup2\n      0xff\n      mul\n      not\n      and\n      swap1\n      dup4\n      iszero\n      iszero\n      mul\n      or\n      swap1\n      sstore\n      pop\n        /* \"contracts/BusinessConsensus2.sol\":5808:5809  1 */\n      0x01\n        /* \"contracts/BusinessConsensus2.sol\":5762:5779  businessProposals */\n      0x00\n        /* \"contracts/BusinessConsensus2.sol\":5780:5790  _messageID */\n      dup4\n      dup4\n        /* \"contracts/BusinessConsensus2.sol\":5762:5791  businessProposals[_messageID] */\n      mload(0x40)\n      tag_129\n      swap3\n      swap2\n      swap1\n      tag_114\n      jump\t// in\n    tag_129:\n      swap1\n      dup2\n      mstore\n      0x20\n      add\n      mload(0x40)\n      dup1\n      swap2\n      sub\n      swap1\n      keccak256\n        /* \"contracts/BusinessConsensus2.sol\":5762:5804  businessProposals[_messageID].numApprovals */\n      0x06\n      add\n      0x00\n        /* \"contracts/BusinessConsensus2.sol\":5762:5809  businessProposals[_messageID].numApprovals += 1 */\n      dup3\n      dup3\n      sload\n      tag_130\n      swap2\n      swap1\n      tag_131\n      jump\t// in\n    tag_130:\n      swap3\n      pop\n      pop\n      dup2\n      swap1\n      sstore\n      pop\n        /* \"contracts/BusinessConsensus2.sol\":5867:5868  1 */\n      0x01\n        /* \"contracts/BusinessConsensus2.sol\":5824:5841  businessProposals */\n      0x00\n        /* \"contracts/BusinessConsensus2.sol\":5842:5852  _messageID */\n      dup4\n      dup4\n        /* \"contracts/BusinessConsensus2.sol\":5824:5853  businessProposals[_messageID] */\n      mload(0x40)\n      tag_132\n      swap3\n      swap2\n      swap1\n      tag_114\n      jump\t// in\n    tag_132:\n      swap1\n      dup2\n      mstore\n      0x20\n      add\n      mload(0x40)\n      dup1\n      swap2\n      sub\n      swap1\n      keccak256\n        /* \"contracts/BusinessConsensus2.sol\":5824:5863  businessProposals[_messageID].voteCount */\n      0x03\n      add\n      0x00\n        /* \"contracts/BusinessConsensus2.sol\":5824:5868  businessProposals[_messageID].voteCount += 1 */\n      dup3\n      dup3\n      sload\n      tag_133\n      swap2\n      swap1\n      tag_131\n      jump\t// in\n    tag_133:\n      swap3\n      pop\n      pop\n      dup2\n      swap1\n      sstore\n      pop\n        /* \"contracts/BusinessConsensus2.sol\":5883:5889  Voters */\n      0x02\n        /* \"contracts/BusinessConsensus2.sol\":5890:5900  _messageID */\n      dup3\n      dup3\n        /* \"contracts/BusinessConsensus2.sol\":5883:5901  Voters[_messageID] */\n      mload(0x40)\n      tag_134\n      swap3\n      swap2\n      swap1\n      tag_114\n      jump\t// in\n    tag_134:\n      swap1\n      dup2\n      mstore\n      0x20\n      add\n      mload(0x40)\n      dup1\n      swap2\n      sub\n      swap1\n      keccak256\n        /* \"contracts/BusinessConsensus2.sol\":5907:5917  voter_maps */\n      0x01\n        /* \"contracts/BusinessConsensus2.sol\":5918:5928  _messageID */\n      dup4\n      dup4\n        /* \"contracts/BusinessConsensus2.sol\":5907:5929  voter_maps[_messageID] */\n      mload(0x40)\n      tag_135\n      swap3\n      swap2\n      swap1\n      tag_114\n      jump\t// in\n    tag_135:\n      swap1\n      dup2\n      mstore\n      0x20\n      add\n      mload(0x40)\n      dup1\n      swap2\n      sub\n      swap1\n      keccak256\n        /* \"contracts/BusinessConsensus2.sol\":5907:5941  voter_maps[_messageID][msg.sender] */\n      0x00\n        /* \"contracts/BusinessConsensus2.sol\":5930:5940  msg.sender */\n      caller\n        /* \"contracts/BusinessConsensus2.sol\":5907:5941  voter_maps[_messageID][msg.sender] */\n      0xffffffffffffffffffffffffffffffffffffffff\n      and\n      0xffffffffffffffffffffffffffffffffffffffff\n      and\n      dup2\n      mstore\n      0x20\n      add\n      swap1\n      dup2\n      mstore\n      0x20\n      add\n      0x00\n      keccak256\n        /* \"contracts/BusinessConsensus2.sol\":5883:5942  Voters[_messageID].push(voter_maps[_messageID][msg.sender]) */\n      swap1\n      dup1\n      0x01\n      dup2\n      sload\n      add\n      dup1\n      dup3\n      sstore\n      dup1\n      swap2\n      pop\n      pop\n      0x01\n      swap1\n      sub\n      swap1\n      0x00\n      mstore\n      keccak256(0x00, 0x20)\n      add\n      0x00\n      swap1\n      swap2\n      swap1\n      swap2\n      swap1\n      swap2\n      pop\n      0x00\n      dup3\n      add\n      0x00\n      swap1\n      sload\n      swap1\n      0x0100\n      exp\n      swap1\n      div\n      0xff\n      and\n      dup2\n      0x00\n      add\n      exp(0x0100, 0x00)\n      dup2\n      sload\n      dup2\n      0xff\n      mul\n      not\n      and\n      swap1\n      dup4\n      iszero\n      iszero\n      mul\n      or\n      swap1\n      sstore\n      pop\n      0x00\n      dup3\n      add\n      0x01\n      swap1\n      sload\n      swap1\n      0x0100\n      exp\n      swap1\n      div\n      0xff\n      and\n      dup2\n      0x00\n      add\n      exp(0x0100, 0x01)\n      dup2\n      sload\n      dup2\n      0xff\n      mul\n      not\n      and\n      swap1\n      dup4\n      iszero\n      iszero\n      mul\n      or\n      swap1\n      sstore\n      pop\n      0x00\n      dup3\n      add\n      0x02\n      swap1\n      sload\n      swap1\n      0x0100\n      exp\n      swap1\n      div\n      0xffffffffffffffffffffffffffffffffffffffff\n      and\n      dup2\n      0x00\n      add\n      exp(0x0100, 0x02)\n      dup2\n      sload\n      dup2\n      0xffffffffffffffffffffffffffffffffffffffff\n      mul\n      not\n      and\n      swap1\n      dup4\n      0xffffffffffffffffffffffffffffffffffffffff\n      and\n      mul\n      or\n      swap1\n      sstore\n      pop\n      pop\n      pop\n        /* \"contracts/BusinessConsensus2.sol\":5561:6539  if(keccak256(bytes(response)) == keccak256(bytes(\"i approve\"))){\r... */\n      jump(tag_137)\n    tag_126:\n        /* \"contracts/BusinessConsensus2.sol\":6014:6035  bytes(\"i disapprove\") */\n      mload(0x40)\n      dup1\n      0x40\n      add\n      0x40\n      mstore\n      dup1\n      0x0c\n      dup2\n      mstore\n      0x20\n      add\n      0x6920646973617070726f76650000000000000000000000000000000000000000\n      dup2\n      mstore\n      pop\n        /* \"contracts/BusinessConsensus2.sol\":6004:6036  keccak256(bytes(\"i disapprove\")) */\n      dup1\n      mload\n      swap1\n      0x20\n      add\n      keccak256\n        /* \"contracts/BusinessConsensus2.sol\":5990:5998  response */\n      dup4\n        /* \"contracts/BusinessConsensus2.sol\":5974:6000  keccak256(bytes(response)) */\n      dup1\n      mload\n      swap1\n      0x20\n      add\n      keccak256\n        /* \"contracts/BusinessConsensus2.sol\":5974:6036  keccak256(bytes(response)) == keccak256(bytes(\"i disapprove\")) */\n      eq\n        /* \"contracts/BusinessConsensus2.sol\":5971:6539  if(keccak256(bytes(response)) == keccak256(bytes(\"i disapprove\"))){\r... */\n      iszero\n      tag_138\n      jumpi\n        /* \"contracts/BusinessConsensus2.sol\":6095:6099  true */\n      0x01\n        /* \"contracts/BusinessConsensus2.sol\":6052:6062  voter_maps */\n      dup1\n        /* \"contracts/BusinessConsensus2.sol\":6063:6073  _messageID */\n      dup4\n      dup4\n        /* \"contracts/BusinessConsensus2.sol\":6052:6074  voter_maps[_messageID] */\n      mload(0x40)\n      tag_139\n      swap3\n      swap2\n      swap1\n      tag_114\n      jump\t// in\n    tag_139:\n      swap1\n      dup2\n      mstore\n      0x20\n      add\n      mload(0x40)\n      dup1\n      swap2\n      sub\n      swap1\n      keccak256\n        /* \"contracts/BusinessConsensus2.sol\":6052:6086  voter_maps[_messageID][msg.sender] */\n      0x00\n        /* \"contracts/BusinessConsensus2.sol\":6075:6085  msg.sender */\n      caller\n        /* \"contracts/BusinessConsensus2.sol\":6052:6086  voter_maps[_messageID][msg.sender] */\n      0xffffffffffffffffffffffffffffffffffffffff\n      and\n      0xffffffffffffffffffffffffffffffffffffffff\n      and\n      dup2\n      mstore\n      0x20\n      add\n      swap1\n      dup2\n      mstore\n      0x20\n      add\n      0x00\n      keccak256\n        /* \"contracts/BusinessConsensus2.sol\":6052:6092  voter_maps[_messageID][msg.sender].voted */\n      0x00\n      add\n      0x00\n        /* \"contracts/BusinessConsensus2.sol\":6052:6099  voter_maps[_messageID][msg.sender].voted = true */\n      0x0100\n      exp\n      dup2\n      sload\n      dup2\n      0xff\n      mul\n      not\n      and\n      swap1\n      dup4\n      iszero\n      iszero\n      mul\n      or\n      swap1\n      sstore\n      pop\n        /* \"contracts/BusinessConsensus2.sol\":6157:6158  1 */\n      0x01\n        /* \"contracts/BusinessConsensus2.sol\":6114:6131  businessProposals */\n      0x00\n        /* \"contracts/BusinessConsensus2.sol\":6132:6142  _messageID */\n      dup4\n      dup4\n        /* \"contracts/BusinessConsensus2.sol\":6114:6143  businessProposals[_messageID] */\n      mload(0x40)\n      tag_140\n      swap3\n      swap2\n      swap1\n      tag_114\n      jump\t// in\n    tag_140:\n      swap1\n      dup2\n      mstore\n      0x20\n      add\n      mload(0x40)\n      dup1\n      swap2\n      sub\n      swap1\n      keccak256\n        /* \"contracts/BusinessConsensus2.sol\":6114:6153  businessProposals[_messageID].voteCount */\n      0x03\n      add\n      0x00\n        /* \"contracts/BusinessConsensus2.sol\":6114:6158  businessProposals[_messageID].voteCount += 1 */\n      dup3\n      dup3\n      sload\n      tag_141\n      swap2\n      swap1\n      tag_131\n      jump\t// in\n    tag_141:\n      swap3\n      pop\n      pop\n      dup2\n      swap1\n      sstore\n      pop\n        /* \"contracts/BusinessConsensus2.sol\":6173:6179  Voters */\n      0x02\n        /* \"contracts/BusinessConsensus2.sol\":6180:6190  _messageID */\n      dup3\n      dup3\n        /* \"contracts/BusinessConsensus2.sol\":6173:6191  Voters[_messageID] */\n      mload(0x40)\n      tag_142\n      swap3\n      swap2\n      swap1\n      tag_114\n      jump\t// in\n    tag_142:\n      swap1\n      dup2\n      mstore\n      0x20\n      add\n      mload(0x40)\n      dup1\n      swap2\n      sub\n      swap1\n      keccak256\n        /* \"contracts/BusinessConsensus2.sol\":6197:6207  voter_maps */\n      0x01\n        /* \"contracts/BusinessConsensus2.sol\":6208:6218  _messageID */\n      dup4\n      dup4\n        /* \"contracts/BusinessConsensus2.sol\":6197:6219  voter_maps[_messageID] */\n      mload(0x40)\n      tag_143\n      swap3\n      swap2\n      swap1\n      tag_114\n      jump\t// in\n    tag_143:\n      swap1\n      dup2\n      mstore\n      0x20\n      add\n      mload(0x40)\n      dup1\n      swap2\n      sub\n      swap1\n      keccak256\n        /* \"contracts/BusinessConsensus2.sol\":6197:6231  voter_maps[_messageID][msg.sender] */\n      0x00\n        /* \"contracts/BusinessConsensus2.sol\":6220:6230  msg.sender */\n      caller\n        /* \"contracts/BusinessConsensus2.sol\":6197:6231  voter_maps[_messageID][msg.sender] */\n      0xffffffffffffffffffffffffffffffffffffffff\n      and\n      0xffffffffffffffffffffffffffffffffffffffff\n      and\n      dup2\n      mstore\n      0x20\n      add\n      swap1\n      dup2\n      mstore\n      0x20\n      add\n      0x00\n      keccak256\n        /* \"contracts/BusinessConsensus2.sol\":6173:6232  Voters[_messageID].push(voter_maps[_messageID][msg.sender]) */\n      swap1\n      dup1\n      0x01\n      dup2\n      sload\n      add\n      dup1\n      dup3\n      sstore\n      dup1\n      swap2\n      pop\n      pop\n      0x01\n      swap1\n      sub\n      swap1\n      0x00\n      mstore\n      keccak256(0x00, 0x20)\n      add\n      0x00\n      swap1\n      swap2\n      swap1\n      swap2\n      swap1\n      swap2\n      pop\n      0x00\n      dup3\n      add\n      0x00\n      swap1\n      sload\n      swap1\n      0x0100\n      exp\n      swap1\n      div\n      0xff\n      and\n      dup2\n      0x00\n      add\n      exp(0x0100, 0x00)\n      dup2\n      sload\n      dup2\n      0xff\n      mul\n      not\n      and\n      swap1\n      dup4\n      iszero\n      iszero\n      mul\n      or\n      swap1\n      sstore\n      pop\n      0x00\n      dup3\n      add\n      0x01\n      swap1\n      sload\n      swap1\n      0x0100\n      exp\n      swap1\n      div\n      0xff\n      and\n      dup2\n      0x00\n      add\n      exp(0x0100, 0x01)\n      dup2\n      sload\n      dup2\n      0xff\n      mul\n      not\n      and\n      swap1\n      dup4\n      iszero\n      iszero\n      mul\n      or\n      swap1\n      sstore\n      pop\n      0x00\n      dup3\n      add\n      0x02\n      swap1\n      sload\n      swap1\n      0x0100\n      exp\n      swap1\n      div\n      0xffffffffffffffffffffffffffffffffffffffff\n      and\n      dup2\n      0x00\n      add\n      exp(0x0100, 0x02)\n      dup2\n      sload\n      dup2\n      0xffffffffffffffffffffffffffffffffffffffff\n      mul\n      not\n      and\n      swap1\n      dup4\n      0xffffffffffffffffffffffffffffffffffffffff\n      and\n      mul\n      or\n      swap1\n      sstore\n      pop\n      pop\n      pop\n        /* \"contracts/BusinessConsensus2.sol\":5971:6539  if(keccak256(bytes(response)) == keccak256(bytes(\"i disapprove\"))){\r... */\n      jump(tag_145)\n    tag_138:\n        /* \"contracts/BusinessConsensus2.sol\":6390:6394  true */\n      0x01\n        /* \"contracts/BusinessConsensus2.sol\":6347:6357  voter_maps */\n      dup1\n        /* \"contracts/BusinessConsensus2.sol\":6358:6368  _messageID */\n      dup4\n      dup4\n        /* \"contracts/BusinessConsensus2.sol\":6347:6369  voter_maps[_messageID] */\n      mload(0x40)\n      tag_146\n      swap3\n      swap2\n      swap1\n      tag_114\n      jump\t// in\n    tag_146:\n      swap1\n      dup2\n      mstore\n      0x20\n      add\n      mload(0x40)\n      dup1\n      swap2\n      sub\n      swap1\n      keccak256\n        /* \"contracts/BusinessConsensus2.sol\":6347:6381  voter_maps[_messageID][msg.sender] */\n      0x00\n        /* \"contracts/BusinessConsensus2.sol\":6370:6380  msg.sender */\n      caller\n        /* \"contracts/BusinessConsensus2.sol\":6347:6381  voter_maps[_messageID][msg.sender] */\n      0xffffffffffffffffffffffffffffffffffffffff\n      and\n      0xffffffffffffffffffffffffffffffffffffffff\n      and\n      dup2\n      mstore\n      0x20\n      add\n      swap1\n      dup2\n      mstore\n      0x20\n      add\n      0x00\n      keccak256\n        /* \"contracts/BusinessConsensus2.sol\":6347:6387  voter_maps[_messageID][msg.sender].voted */\n      0x00\n      add\n      0x00\n        /* \"contracts/BusinessConsensus2.sol\":6347:6394  voter_maps[_messageID][msg.sender].voted = true */\n      0x0100\n      exp\n      dup2\n      sload\n      dup2\n      0xff\n      mul\n      not\n      and\n      swap1\n      dup4\n      iszero\n      iszero\n      mul\n      or\n      swap1\n      sstore\n      pop\n        /* \"contracts/BusinessConsensus2.sol\":6452:6453  1 */\n      0x01\n        /* \"contracts/BusinessConsensus2.sol\":6409:6426  businessProposals */\n      0x00\n        /* \"contracts/BusinessConsensus2.sol\":6427:6437  _messageID */\n      dup4\n      dup4\n        /* \"contracts/BusinessConsensus2.sol\":6409:6438  businessProposals[_messageID] */\n      mload(0x40)\n      tag_147\n      swap3\n      swap2\n      swap1\n      tag_114\n      jump\t// in\n    tag_147:\n      swap1\n      dup2\n      mstore\n      0x20\n      add\n      mload(0x40)\n      dup1\n      swap2\n      sub\n      swap1\n      keccak256\n        /* \"contracts/BusinessConsensus2.sol\":6409:6448  businessProposals[_messageID].voteCount */\n      0x03\n      add\n      0x00\n        /* \"contracts/BusinessConsensus2.sol\":6409:6453  businessProposals[_messageID].voteCount += 1 */\n      dup3\n      dup3\n      sload\n      tag_148\n      swap2\n      swap1\n      tag_131\n      jump\t// in\n    tag_148:\n      swap3\n      pop\n      pop\n      dup2\n      swap1\n      sstore\n      pop\n        /* \"contracts/BusinessConsensus2.sol\":6468:6474  Voters */\n      0x02\n        /* \"contracts/BusinessConsensus2.sol\":6475:6485  _messageID */\n      dup3\n      dup3\n        /* \"contracts/BusinessConsensus2.sol\":6468:6486  Voters[_messageID] */\n      mload(0x40)\n      tag_149\n      swap3\n      swap2\n      swap1\n      tag_114\n      jump\t// in\n    tag_149:\n      swap1\n      dup2\n      mstore\n      0x20\n      add\n      mload(0x40)\n      dup1\n      swap2\n      sub\n      swap1\n      keccak256\n        /* \"contracts/BusinessConsensus2.sol\":6492:6502  voter_maps */\n      0x01\n        /* \"contracts/BusinessConsensus2.sol\":6503:6513  _messageID */\n      dup4\n      dup4\n        /* \"contracts/BusinessConsensus2.sol\":6492:6514  voter_maps[_messageID] */\n      mload(0x40)\n      tag_150\n      swap3\n      swap2\n      swap1\n      tag_114\n      jump\t// in\n    tag_150:\n      swap1\n      dup2\n      mstore\n      0x20\n      add\n      mload(0x40)\n      dup1\n      swap2\n      sub\n      swap1\n      keccak256\n        /* \"contracts/BusinessConsensus2.sol\":6492:6526  voter_maps[_messageID][msg.sender] */\n      0x00\n        /* \"contracts/BusinessConsensus2.sol\":6515:6525  msg.sender */\n      caller\n        /* \"contracts/BusinessConsensus2.sol\":6492:6526  voter_maps[_messageID][msg.sender] */\n      0xffffffffffffffffffffffffffffffffffffffff\n      and\n      0xffffffffffffffffffffffffffffffffffffffff\n      and\n      dup2\n      mstore\n      0x20\n      add\n      swap1\n      dup2\n      mstore\n      0x20\n      add\n      0x00\n      keccak256\n        /* \"contracts/BusinessConsensus2.sol\":6468:6527  Voters[_messageID].push(voter_maps[_messageID][msg.sender]) */\n      swap1\n      dup1\n      0x01\n      dup2\n      sload\n      add\n      dup1\n      dup3\n      sstore\n      dup1\n      swap2\n      pop\n      pop\n      0x01\n      swap1\n      sub\n      swap1\n      0x00\n      mstore\n      keccak256(0x00, 0x20)\n      add\n      0x00\n      swap1\n      swap2\n      swap1\n      swap2\n      swap1\n      swap2\n      pop\n      0x00\n      dup3\n      add\n      0x00\n      swap1\n      sload\n      swap1\n      0x0100\n      exp\n      swap1\n      div\n      0xff\n      and\n      dup2\n      0x00\n      add\n      exp(0x0100, 0x00)\n      dup2\n      sload\n      dup2\n      0xff\n      mul\n      not\n      and\n      swap1\n      dup4\n      iszero\n      iszero\n      mul\n      or\n      swap1\n      sstore\n      pop\n      0x00\n      dup3\n      add\n      0x01\n      swap1\n      sload\n      swap1\n      0x0100\n      exp\n      swap1\n      div\n      0xff\n      and\n      dup2\n      0x00\n      add\n      exp(0x0100, 0x01)\n      dup2\n      sload\n      dup2\n      0xff\n      mul\n      not\n      and\n      swap1\n      dup4\n      iszero\n      iszero\n      mul\n      or\n      swap1\n      sstore\n      pop\n      0x00\n      dup3\n      add\n      0x02\n      swap1\n      sload\n      swap1\n      0x0100\n      exp\n      swap1\n      div\n      0xffffffffffffffffffffffffffffffffffffffff\n      and\n      dup2\n      0x00\n      add\n      exp(0x0100, 0x02)\n      dup2\n      sload\n      dup2\n      0xffffffffffffffffffffffffffffffffffffffff\n      mul\n      not\n      and\n      swap1\n      dup4\n      0xffffffffffffffffffffffffffffffffffffffff\n      and\n      mul\n      or\n      swap1\n      sstore\n      pop\n      pop\n      pop\n        /* \"contracts/BusinessConsensus2.sol\":5971:6539  if(keccak256(bytes(response)) == keccak256(bytes(\"i disapprove\"))){\r... */\n    tag_145:\n        /* \"contracts/BusinessConsensus2.sol\":5561:6539  if(keccak256(bytes(response)) == keccak256(bytes(\"i approve\"))){\r... */\n    tag_137:\n        /* \"contracts/BusinessConsensus2.sol\":5165:6556  function Vote(string memory response,string calldata _messageID) external {\r... */\n      pop\n      pop\n      pop\n      jump\t// out\n        /* \"contracts/BusinessConsensus2.sol\":1041:1099  mapping(string=>mapping(address=>Voter)) public voter_maps */\n    tag_40:\n      0x01\n      dup3\n      dup1\n      mload\n      0x20\n      dup2\n      add\n      dup3\n      add\n      dup1\n      mload\n      dup5\n      dup3\n      mstore\n      0x20\n      dup4\n      add\n      0x20\n      dup6\n      add\n      keccak256\n      dup2\n      dup4\n      mstore\n      dup1\n      swap6\n      pop\n      pop\n      pop\n      pop\n      pop\n      pop\n      0x20\n      mstore\n      dup1\n      0x00\n      mstore\n      keccak256(0x00, 0x40)\n      0x00\n      swap2\n      pop\n      swap2\n      pop\n      pop\n      dup1\n      0x00\n      add\n      0x00\n      swap1\n      sload\n      swap1\n      0x0100\n      exp\n      swap1\n      div\n      0xff\n      and\n      swap1\n      dup1\n      0x00\n      add\n      0x01\n      swap1\n      sload\n      swap1\n      0x0100\n      exp\n      swap1\n      div\n      0xff\n      and\n      swap1\n      dup1\n      0x00\n      add\n      0x02\n      swap1\n      sload\n      swap1\n      0x0100\n      exp\n      swap1\n      div\n      0xffffffffffffffffffffffffffffffffffffffff\n      and\n      swap1\n      pop\n      dup4\n      jump\t// out\n        /* \"contracts/BusinessConsensus2.sol\":7687:8246  function retrieve_bundle(string calldata _messageID) external view returns (bytes32, string memory, uint256, Voter[] memory){\r... */\n    tag_46:\n        /* \"contracts/BusinessConsensus2.sol\":7763:7770  bytes32 */\n      0x00\n        /* \"contracts/BusinessConsensus2.sol\":7772:7785  string memory */\n      0x60\n        /* \"contracts/BusinessConsensus2.sol\":7787:7794  uint256 */\n      0x00\n        /* \"contracts/BusinessConsensus2.sol\":7796:7810  Voter[] memory */\n      0x60\n        /* \"contracts/BusinessConsensus2.sol\":7849:7866  businessProposals */\n      0x00\n        /* \"contracts/BusinessConsensus2.sol\":7867:7877  _messageID */\n      dup7\n      dup7\n        /* \"contracts/BusinessConsensus2.sol\":7849:7878  businessProposals[_messageID] */\n      mload(0x40)\n      tag_153\n      swap3\n      swap2\n      swap1\n      tag_114\n      jump\t// in\n    tag_153:\n      swap1\n      dup2\n      mstore\n      0x20\n      add\n      mload(0x40)\n      dup1\n      swap2\n      sub\n      swap1\n      keccak256\n        /* \"contracts/BusinessConsensus2.sol\":7849:7889  businessProposals[_messageID].expiryDate */\n      0x04\n      add\n      sload\n        /* \"contracts/BusinessConsensus2.sol\":7830:7845  block.timestamp */\n      timestamp\n        /* \"contracts/BusinessConsensus2.sol\":7830:7889  block.timestamp >= businessProposals[_messageID].expiryDate */\n      lt\n      iszero\n        /* \"contracts/BusinessConsensus2.sol\":7822:7926  require(block.timestamp >= businessProposals[_messageID].expiryDate, \"Verdict has not been reached yet\") */\n      tag_154\n      jumpi\n      mload(0x40)\n      0x08c379a000000000000000000000000000000000000000000000000000000000\n      dup2\n      mstore\n      0x04\n      add\n      tag_155\n      swap1\n      tag_156\n      jump\t// in\n    tag_155:\n      mload(0x40)\n      dup1\n      swap2\n      sub\n      swap1\n      revert\n    tag_154:\n        /* \"contracts/BusinessConsensus2.sol\":7937:7958  Voter[] memory voters */\n      0x00\n        /* \"contracts/BusinessConsensus2.sol\":7961:7967  Voters */\n      0x02\n        /* \"contracts/BusinessConsensus2.sol\":7968:7978  _messageID */\n      dup8\n      dup8\n        /* \"contracts/BusinessConsensus2.sol\":7961:7979  Voters[_messageID] */\n      mload(0x40)\n      tag_157\n      swap3\n      swap2\n      swap1\n      tag_114\n      jump\t// in\n    tag_157:\n      swap1\n      dup2\n      mstore\n      0x20\n      add\n      mload(0x40)\n      dup1\n      swap2\n      sub\n      swap1\n      keccak256\n        /* \"contracts/BusinessConsensus2.sol\":7937:7979  Voter[] memory voters = Voters[_messageID] */\n      dup1\n      sload\n      dup1\n      0x20\n      mul\n      0x20\n      add\n      mload(0x40)\n      swap1\n      dup2\n      add\n      0x40\n      mstore\n      dup1\n      swap3\n      swap2\n      swap1\n      dup2\n      dup2\n      mstore\n      0x20\n      add\n      0x00\n      swap1\n    tag_158:\n      dup3\n      dup3\n      lt\n      iszero\n      tag_159\n      jumpi\n      dup4\n      dup3\n      swap1\n      0x00\n      mstore\n      keccak256(0x00, 0x20)\n      add\n      mload(0x40)\n      dup1\n      0x60\n      add\n      0x40\n      mstore\n      swap1\n      dup2\n      0x00\n      dup3\n      add\n      0x00\n      swap1\n      sload\n      swap1\n      0x0100\n      exp\n      swap1\n      div\n      0xff\n      and\n      iszero\n      iszero\n      iszero\n      iszero\n      dup2\n      mstore\n      0x20\n      add\n      0x00\n      dup3\n      add\n      0x01\n      swap1\n      sload\n      swap1\n      0x0100\n      exp\n      swap1\n      div\n      0xff\n      and\n      iszero\n      iszero\n      iszero\n      iszero\n      dup2\n      mstore\n      0x20\n      add\n      0x00\n      dup3\n      add\n      0x02\n      swap1\n      sload\n      swap1\n      0x0100\n      exp\n      swap1\n      div\n      0xffffffffffffffffffffffffffffffffffffffff\n      and\n      0xffffffffffffffffffffffffffffffffffffffff\n      and\n      0xffffffffffffffffffffffffffffffffffffffff\n      and\n      dup2\n      mstore\n      pop\n      pop\n      dup2\n      mstore\n      0x20\n      add\n      swap1\n      0x01\n      add\n      swap1\n      jump(tag_158)\n    tag_159:\n      pop\n      pop\n      pop\n      pop\n      swap1\n      pop\n        /* \"contracts/BusinessConsensus2.sol\":7990:8006  string memory ID */\n      0x00\n        /* \"contracts/BusinessConsensus2.sol\":8009:8026  businessProposals */\n      dup1\n        /* \"contracts/BusinessConsensus2.sol\":8027:8037  _messageID */\n      dup9\n      dup9\n        /* \"contracts/BusinessConsensus2.sol\":8009:8038  businessProposals[_messageID] */\n      mload(0x40)\n      tag_161\n      swap3\n      swap2\n      swap1\n      tag_114\n      jump\t// in\n    tag_161:\n      swap1\n      dup2\n      mstore\n      0x20\n      add\n      mload(0x40)\n      dup1\n      swap2\n      sub\n      swap1\n      keccak256\n        /* \"contracts/BusinessConsensus2.sol\":8009:8048  businessProposals[_messageID].messageID */\n      0x00\n      add\n        /* \"contracts/BusinessConsensus2.sol\":7990:8048  string memory ID = businessProposals[_messageID].messageID */\n      dup1\n      sload\n      tag_162\n      swap1\n      tag_97\n      jump\t// in\n    tag_162:\n      dup1\n      0x1f\n      add\n      0x20\n      dup1\n      swap2\n      div\n      mul\n      0x20\n      add\n      mload(0x40)\n      swap1\n      dup2\n      add\n      0x40\n      mstore\n      dup1\n      swap3\n      swap2\n      swap1\n      dup2\n      dup2\n      mstore\n      0x20\n      add\n      dup3\n      dup1\n      sload\n      tag_163\n      swap1\n      tag_97\n      jump\t// in\n    tag_163:\n      dup1\n      iszero\n      tag_164\n      jumpi\n      dup1\n      0x1f\n      lt\n      tag_165\n      jumpi\n      0x0100\n      dup1\n      dup4\n      sload\n      div\n      mul\n      dup4\n      mstore\n      swap2\n      0x20\n      add\n      swap2\n      jump(tag_164)\n    tag_165:\n      dup3\n      add\n      swap2\n      swap1\n      0x00\n      mstore\n      keccak256(0x00, 0x20)\n      swap1\n    tag_166:\n      dup2\n      sload\n      dup2\n      mstore\n      swap1\n      0x01\n      add\n      swap1\n      0x20\n      add\n      dup1\n      dup4\n      gt\n      tag_166\n      jumpi\n      dup3\n      swap1\n      sub\n      0x1f\n      and\n      dup3\n      add\n      swap2\n    tag_164:\n      pop\n      pop\n      pop\n      pop\n      pop\n      swap1\n      pop\n        /* \"contracts/BusinessConsensus2.sol\":8059:8074  bytes32 verdict */\n      0x00\n        /* \"contracts/BusinessConsensus2.sol\":8077:8094  businessProposals */\n      dup1\n        /* \"contracts/BusinessConsensus2.sol\":8095:8105  _messageID */\n      dup10\n      dup10\n        /* \"contracts/BusinessConsensus2.sol\":8077:8106  businessProposals[_messageID] */\n      mload(0x40)\n      tag_167\n      swap3\n      swap2\n      swap1\n      tag_114\n      jump\t// in\n    tag_167:\n      swap1\n      dup2\n      mstore\n      0x20\n      add\n      mload(0x40)\n      dup1\n      swap2\n      sub\n      swap1\n      keccak256\n        /* \"contracts/BusinessConsensus2.sol\":8077:8119  businessProposals[_messageID].finalVerdict */\n      0x08\n      add\n      sload\n        /* \"contracts/BusinessConsensus2.sol\":8059:8119  bytes32 verdict = businessProposals[_messageID].finalVerdict */\n      swap1\n      pop\n        /* \"contracts/BusinessConsensus2.sol\":8130:8143  uint256 count */\n      0x00\n        /* \"contracts/BusinessConsensus2.sol\":8146:8163  businessProposals */\n      dup1\n        /* \"contracts/BusinessConsensus2.sol\":8164:8174  _messageID */\n      dup11\n      dup11\n        /* \"contracts/BusinessConsensus2.sol\":8146:8175  businessProposals[_messageID] */\n      mload(0x40)\n      tag_168\n      swap3\n      swap2\n      swap1\n      tag_114\n      jump\t// in\n    tag_168:\n      swap1\n      dup2\n      mstore\n      0x20\n      add\n      mload(0x40)\n      dup1\n      swap2\n      sub\n      swap1\n      keccak256\n        /* \"contracts/BusinessConsensus2.sol\":8146:8185  businessProposals[_messageID].voteCount */\n      0x03\n      add\n      sload\n        /* \"contracts/BusinessConsensus2.sol\":8130:8185  uint256 count = businessProposals[_messageID].voteCount */\n      swap1\n      pop\n        /* \"contracts/BusinessConsensus2.sol\":8204:8211  verdict */\n      dup2\n        /* \"contracts/BusinessConsensus2.sol\":8212:8214  ID */\n      dup4\n        /* \"contracts/BusinessConsensus2.sol\":8215:8220  count */\n      dup3\n        /* \"contracts/BusinessConsensus2.sol\":8221:8227  voters */\n      dup7\n        /* \"contracts/BusinessConsensus2.sol\":8196:8228  return (verdict,ID,count,voters) */\n      swap8\n      pop\n      swap8\n      pop\n      swap8\n      pop\n      swap8\n      pop\n      pop\n      pop\n      pop\n      pop\n        /* \"contracts/BusinessConsensus2.sol\":7687:8246  function retrieve_bundle(string calldata _messageID) external view returns (bytes32, string memory, uint256, Voter[] memory){\r... */\n      swap3\n      swap6\n      swap2\n      swap5\n      pop\n      swap3\n      pop\n      jump\t// out\n        /* \"contracts/BusinessConsensus2.sol\":4360:5157  function RegisterVoter(address voter,string calldata _messageID) external {\r... */\n    tag_52:\n        /* \"contracts/BusinessConsensus2.sol\":4555:4572  businessProposals */\n      0x00\n        /* \"contracts/BusinessConsensus2.sol\":4573:4583  _messageID */\n      dup3\n      dup3\n        /* \"contracts/BusinessConsensus2.sol\":4555:4584  businessProposals[_messageID] */\n      mload(0x40)\n      tag_170\n      swap3\n      swap2\n      swap1\n      tag_114\n      jump\t// in\n    tag_170:\n      swap1\n      dup2\n      mstore\n      0x20\n      add\n      mload(0x40)\n      dup1\n      swap2\n      sub\n      swap1\n      keccak256\n        /* \"contracts/BusinessConsensus2.sol\":4555:4594  businessProposals[_messageID].initiator */\n      0x01\n      add\n      0x00\n      swap1\n      sload\n      swap1\n      0x0100\n      exp\n      swap1\n      div\n      0xffffffffffffffffffffffffffffffffffffffff\n      and\n        /* \"contracts/BusinessConsensus2.sol\":4541:4594  msg.sender == businessProposals[_messageID].initiator */\n      0xffffffffffffffffffffffffffffffffffffffff\n      and\n        /* \"contracts/BusinessConsensus2.sol\":4541:4551  msg.sender */\n      caller\n        /* \"contracts/BusinessConsensus2.sol\":4541:4594  msg.sender == businessProposals[_messageID].initiator */\n      0xffffffffffffffffffffffffffffffffffffffff\n      and\n      eq\n        /* \"contracts/BusinessConsensus2.sol\":4519:4662  require(\r... */\n      tag_171\n      jumpi\n      mload(0x40)\n      0x08c379a000000000000000000000000000000000000000000000000000000000\n      dup2\n      mstore\n      0x04\n      add\n      tag_172\n      swap1\n      tag_173\n      jump\t// in\n    tag_172:\n      mload(0x40)\n      dup1\n      swap2\n      sub\n      swap1\n      revert\n    tag_171:\n        /* \"contracts/BusinessConsensus2.sol\":4690:4707  businessProposals */\n      0x00\n        /* \"contracts/BusinessConsensus2.sol\":4708:4718  _messageID */\n      dup3\n      dup3\n        /* \"contracts/BusinessConsensus2.sol\":4690:4719  businessProposals[_messageID] */\n      mload(0x40)\n      tag_174\n      swap3\n      swap2\n      swap1\n      tag_114\n      jump\t// in\n    tag_174:\n      swap1\n      dup2\n      mstore\n      0x20\n      add\n      mload(0x40)\n      dup1\n      swap2\n      sub\n      swap1\n      keccak256\n        /* \"contracts/BusinessConsensus2.sol\":4690:4729  businessProposals[_messageID].initiator */\n      0x01\n      add\n      0x00\n      swap1\n      sload\n      swap1\n      0x0100\n      exp\n      swap1\n      div\n      0xffffffffffffffffffffffffffffffffffffffff\n      and\n        /* \"contracts/BusinessConsensus2.sol\":4681:4729  voter != businessProposals[_messageID].initiator */\n      0xffffffffffffffffffffffffffffffffffffffff\n      and\n        /* \"contracts/BusinessConsensus2.sol\":4681:4686  voter */\n      dup4\n        /* \"contracts/BusinessConsensus2.sol\":4681:4729  voter != businessProposals[_messageID].initiator */\n      0xffffffffffffffffffffffffffffffffffffffff\n      and\n      eq\n      iszero\n        /* \"contracts/BusinessConsensus2.sol\":4673:4755  require(voter != businessProposals[_messageID].initiator, \"Initiator can't vote!\") */\n      tag_175\n      jumpi\n      mload(0x40)\n      0x08c379a000000000000000000000000000000000000000000000000000000000\n      dup2\n      mstore\n      0x04\n      add\n      tag_176\n      swap1\n      tag_177\n      jump\t// in\n    tag_176:\n      mload(0x40)\n      dup1\n      swap2\n      sub\n      swap1\n      revert\n    tag_175:\n        /* \"contracts/BusinessConsensus2.sol\":4827:4828  0 */\n      0x00\n        /* \"contracts/BusinessConsensus2.sol\":4776:4829  voter_maps[_messageID][voter].recipient == address(0) */\n      0xffffffffffffffffffffffffffffffffffffffff\n      and\n        /* \"contracts/BusinessConsensus2.sol\":4776:4786  voter_maps */\n      0x01\n        /* \"contracts/BusinessConsensus2.sol\":4787:4797  _messageID */\n      dup4\n      dup4\n        /* \"contracts/BusinessConsensus2.sol\":4776:4798  voter_maps[_messageID] */\n      mload(0x40)\n      tag_178\n      swap3\n      swap2\n      swap1\n      tag_114\n      jump\t// in\n    tag_178:\n      swap1\n      dup2\n      mstore\n      0x20\n      add\n      mload(0x40)\n      dup1\n      swap2\n      sub\n      swap1\n      keccak256\n        /* \"contracts/BusinessConsensus2.sol\":4776:4805  voter_maps[_messageID][voter] */\n      0x00\n        /* \"contracts/BusinessConsensus2.sol\":4799:4804  voter */\n      dup6\n        /* \"contracts/BusinessConsensus2.sol\":4776:4805  voter_maps[_messageID][voter] */\n      0xffffffffffffffffffffffffffffffffffffffff\n      and\n      0xffffffffffffffffffffffffffffffffffffffff\n      and\n      dup2\n      mstore\n      0x20\n      add\n      swap1\n      dup2\n      mstore\n      0x20\n      add\n      0x00\n      keccak256\n        /* \"contracts/BusinessConsensus2.sol\":4776:4815  voter_maps[_messageID][voter].recipient */\n      0x00\n      add\n      0x02\n      swap1\n      sload\n      swap1\n      0x0100\n      exp\n      swap1\n      div\n      0xffffffffffffffffffffffffffffffffffffffff\n      and\n        /* \"contracts/BusinessConsensus2.sol\":4776:4829  voter_maps[_messageID][voter].recipient == address(0) */\n      0xffffffffffffffffffffffffffffffffffffffff\n      and\n      eq\n        /* \"contracts/BusinessConsensus2.sol\":4768:4865  require(voter_maps[_messageID][voter].recipient == address(0), \"Recipient is already registered\") */\n      tag_179\n      jumpi\n      mload(0x40)\n      0x08c379a000000000000000000000000000000000000000000000000000000000\n      dup2\n      mstore\n      0x04\n      add\n      tag_180\n      swap1\n      tag_181\n      jump\t// in\n    tag_180:\n      mload(0x40)\n      dup1\n      swap2\n      sub\n      swap1\n      revert\n    tag_179:\n        /* \"contracts/BusinessConsensus2.sol\":4904:4921  businessProposals */\n      0x00\n        /* \"contracts/BusinessConsensus2.sol\":4922:4932  _messageID */\n      dup3\n      dup3\n        /* \"contracts/BusinessConsensus2.sol\":4904:4933  businessProposals[_messageID] */\n      mload(0x40)\n      tag_182\n      swap3\n      swap2\n      swap1\n      tag_114\n      jump\t// in\n    tag_182:\n      swap1\n      dup2\n      mstore\n      0x20\n      add\n      mload(0x40)\n      dup1\n      swap2\n      sub\n      swap1\n      keccak256\n        /* \"contracts/BusinessConsensus2.sol\":4904:4944  businessProposals[_messageID].expiryDate */\n      0x04\n      add\n      sload\n        /* \"contracts/BusinessConsensus2.sol\":4886:4901  block.timestamp */\n      timestamp\n        /* \"contracts/BusinessConsensus2.sol\":4886:4944  block.timestamp < businessProposals[_messageID].expiryDate */\n      lt\n        /* \"contracts/BusinessConsensus2.sol\":4878:4985  require(block.timestamp < businessProposals[_messageID].expiryDate, \"Proposal has reached its expiry date\") */\n      tag_183\n      jumpi\n      mload(0x40)\n      0x08c379a000000000000000000000000000000000000000000000000000000000\n      dup2\n      mstore\n      0x04\n      add\n      tag_184\n      swap1\n      tag_185\n      jump\t// in\n    tag_184:\n      mload(0x40)\n      dup1\n      swap2\n      sub\n      swap1\n      revert\n    tag_183:\n        /* \"contracts/BusinessConsensus2.sol\":4998:5012  Voter memory x */\n      0x00\n        /* \"contracts/BusinessConsensus2.sol\":5015:5066  Voter({voted: false,recipient: voter, vote: false}) */\n      mload(0x40)\n      dup1\n      0x60\n      add\n      0x40\n      mstore\n      dup1\n        /* \"contracts/BusinessConsensus2.sol\":5029:5034  false */\n      0x00\n        /* \"contracts/BusinessConsensus2.sol\":5015:5066  Voter({voted: false,recipient: voter, vote: false}) */\n      iszero\n      iszero\n      dup2\n      mstore\n      0x20\n      add\n        /* \"contracts/BusinessConsensus2.sol\":5059:5064  false */\n      0x00\n        /* \"contracts/BusinessConsensus2.sol\":5015:5066  Voter({voted: false,recipient: voter, vote: false}) */\n      iszero\n      iszero\n      dup2\n      mstore\n      0x20\n      add\n        /* \"contracts/BusinessConsensus2.sol\":5046:5051  voter */\n      dup6\n        /* \"contracts/BusinessConsensus2.sol\":5015:5066  Voter({voted: false,recipient: voter, vote: false}) */\n      0xffffffffffffffffffffffffffffffffffffffff\n      and\n      dup2\n      mstore\n      pop\n        /* \"contracts/BusinessConsensus2.sol\":4998:5066  Voter memory x = Voter({voted: false,recipient: voter, vote: false}) */\n      swap1\n      pop\n        /* \"contracts/BusinessConsensus2.sol\":5109:5110  x */\n      dup1\n        /* \"contracts/BusinessConsensus2.sol\":5077:5087  voter_maps */\n      0x01\n        /* \"contracts/BusinessConsensus2.sol\":5088:5098  _messageID */\n      dup5\n      dup5\n        /* \"contracts/BusinessConsensus2.sol\":5077:5099  voter_maps[_messageID] */\n      mload(0x40)\n      tag_186\n      swap3\n      swap2\n      swap1\n      tag_114\n      jump\t// in\n    tag_186:\n      swap1\n      dup2\n      mstore\n      0x20\n      add\n      mload(0x40)\n      dup1\n      swap2\n      sub\n      swap1\n      keccak256\n        /* \"contracts/BusinessConsensus2.sol\":5077:5106  voter_maps[_messageID][voter] */\n      0x00\n        /* \"contracts/BusinessConsensus2.sol\":5100:5105  voter */\n      dup7\n        /* \"contracts/BusinessConsensus2.sol\":5077:5106  voter_maps[_messageID][voter] */\n      0xffffffffffffffffffffffffffffffffffffffff\n      and\n      0xffffffffffffffffffffffffffffffffffffffff\n      and\n      dup2\n      mstore\n      0x20\n      add\n      swap1\n      dup2\n      mstore\n      0x20\n      add\n      0x00\n      keccak256\n        /* \"contracts/BusinessConsensus2.sol\":5077:5110  voter_maps[_messageID][voter] = x */\n      0x00\n      dup3\n      add\n      mload\n      dup2\n      0x00\n      add\n      exp(0x0100, 0x00)\n      dup2\n      sload\n      dup2\n      0xff\n      mul\n      not\n      and\n      swap1\n      dup4\n      iszero\n      iszero\n      mul\n      or\n      swap1\n      sstore\n      pop\n      0x20\n      dup3\n      add\n      mload\n      dup2\n      0x00\n      add\n      exp(0x0100, 0x01)\n      dup2\n      sload\n      dup2\n      0xff\n      mul\n      not\n      and\n      swap1\n      dup4\n      iszero\n      iszero\n      mul\n      or\n      swap1\n      sstore\n      pop\n      0x40\n      dup3\n      add\n      mload\n      dup2\n      0x00\n      add\n      exp(0x0100, 0x02)\n      dup2\n      sload\n      dup2\n      0xffffffffffffffffffffffffffffffffffffffff\n      mul\n      not\n      and\n      swap1\n      dup4\n      0xffffffffffffffffffffffffffffffffffffffff\n      and\n      mul\n      or\n      swap1\n      sstore\n      pop\n      swap1\n      pop\n      pop\n        /* \"contracts/BusinessConsensus2.sol\":5121:5125  keys */\n      0x03\n        /* \"contracts/BusinessConsensus2.sol\":5126:5136  _messageID */\n      dup4\n      dup4\n        /* \"contracts/BusinessConsensus2.sol\":5121:5137  keys[_messageID] */\n      mload(0x40)\n      tag_187\n      swap3\n      swap2\n      swap1\n      tag_114\n      jump\t// in\n    tag_187:\n      swap1\n      dup2\n      mstore\n      0x20\n      add\n      mload(0x40)\n      dup1\n      swap2\n      sub\n      swap1\n      keccak256\n        /* \"contracts/BusinessConsensus2.sol\":5143:5148  voter */\n      dup5\n        /* \"contracts/BusinessConsensus2.sol\":5121:5149  keys[_messageID].push(voter) */\n      swap1\n      dup1\n      0x01\n      dup2\n      sload\n      add\n      dup1\n      dup3\n      sstore\n      dup1\n      swap2\n      pop\n      pop\n      0x01\n      swap1\n      sub\n      swap1\n      0x00\n      mstore\n      keccak256(0x00, 0x20)\n      add\n      0x00\n      swap1\n      swap2\n      swap1\n      swap2\n      swap1\n      swap2\n      0x0100\n      exp\n      dup2\n      sload\n      dup2\n      0xffffffffffffffffffffffffffffffffffffffff\n      mul\n      not\n      and\n      swap1\n      dup4\n      0xffffffffffffffffffffffffffffffffffffffff\n      and\n      mul\n      or\n      swap1\n      sstore\n      pop\n        /* \"contracts/BusinessConsensus2.sol\":4434:5157  {\r... */\n      pop\n        /* \"contracts/BusinessConsensus2.sol\":4360:5157  function RegisterVoter(address voter,string calldata _messageID) external {\r... */\n      pop\n      pop\n      pop\n      jump\t// out\n        /* \"contracts/BusinessConsensus2.sol\":3614:3971  function getParameters(string calldata _messageID) external view returns (string memory, uint , address ,uint ,uint){\r... */\n    tag_55:\n        /* \"contracts/BusinessConsensus2.sol\":3688:3701  string memory */\n      0x60\n        /* \"contracts/BusinessConsensus2.sol\":3703:3707  uint */\n      0x00\n        /* \"contracts/BusinessConsensus2.sol\":3710:3717  address */\n      dup1\n        /* \"contracts/BusinessConsensus2.sol\":3719:3723  uint */\n      0x00\n        /* \"contracts/BusinessConsensus2.sol\":3725:3729  uint */\n      dup1\n        /* \"contracts/BusinessConsensus2.sol\":3749:3766  businessProposals */\n      0x00\n        /* \"contracts/BusinessConsensus2.sol\":3767:3777  _messageID */\n      dup8\n      dup8\n        /* \"contracts/BusinessConsensus2.sol\":3749:3778  businessProposals[_messageID] */\n      mload(0x40)\n      tag_190\n      swap3\n      swap2\n      swap1\n      tag_114\n      jump\t// in\n    tag_190:\n      swap1\n      dup2\n      mstore\n      0x20\n      add\n      mload(0x40)\n      dup1\n      swap2\n      sub\n      swap1\n      keccak256\n        /* \"contracts/BusinessConsensus2.sol\":3749:3788  businessProposals[_messageID].messageID */\n      0x00\n      add\n        /* \"contracts/BusinessConsensus2.sol\":3789:3806  businessProposals */\n      0x00\n        /* \"contracts/BusinessConsensus2.sol\":3807:3817  _messageID */\n      dup9\n      dup9\n        /* \"contracts/BusinessConsensus2.sol\":3789:3818  businessProposals[_messageID] */\n      mload(0x40)\n      tag_191\n      swap3\n      swap2\n      swap1\n      tag_114\n      jump\t// in\n    tag_191:\n      swap1\n      dup2\n      mstore\n      0x20\n      add\n      mload(0x40)\n      dup1\n      swap2\n      sub\n      swap1\n      keccak256\n        /* \"contracts/BusinessConsensus2.sol\":3789:3829  businessProposals[_messageID].expiryDate */\n      0x04\n      add\n      sload\n        /* \"contracts/BusinessConsensus2.sol\":3830:3847  businessProposals */\n      0x00\n        /* \"contracts/BusinessConsensus2.sol\":3848:3858  _messageID */\n      dup10\n      dup10\n        /* \"contracts/BusinessConsensus2.sol\":3830:3859  businessProposals[_messageID] */\n      mload(0x40)\n      tag_192\n      swap3\n      swap2\n      swap1\n      tag_114\n      jump\t// in\n    tag_192:\n      swap1\n      dup2\n      mstore\n      0x20\n      add\n      mload(0x40)\n      dup1\n      swap2\n      sub\n      swap1\n      keccak256\n        /* \"contracts/BusinessConsensus2.sol\":3830:3869  businessProposals[_messageID].initiator */\n      0x01\n      add\n      0x00\n      swap1\n      sload\n      swap1\n      0x0100\n      exp\n      swap1\n      div\n      0xffffffffffffffffffffffffffffffffffffffff\n      and\n        /* \"contracts/BusinessConsensus2.sol\":3870:3887  businessProposals */\n      0x00\n        /* \"contracts/BusinessConsensus2.sol\":3888:3898  _messageID */\n      dup11\n      dup11\n        /* \"contracts/BusinessConsensus2.sol\":3870:3899  businessProposals[_messageID] */\n      mload(0x40)\n      tag_193\n      swap3\n      swap2\n      swap1\n      tag_114\n      jump\t// in\n    tag_193:\n      swap1\n      dup2\n      mstore\n      0x20\n      add\n      mload(0x40)\n      dup1\n      swap2\n      sub\n      swap1\n      keccak256\n        /* \"contracts/BusinessConsensus2.sol\":3870:3919  businessProposals[_messageID].BusinessRequirement */\n      0x05\n      add\n      sload\n        /* \"contracts/BusinessConsensus2.sol\":3920:3937  businessProposals */\n      0x00\n        /* \"contracts/BusinessConsensus2.sol\":3938:3948  _messageID */\n      dup12\n      dup12\n        /* \"contracts/BusinessConsensus2.sol\":3920:3949  businessProposals[_messageID] */\n      mload(0x40)\n      tag_194\n      swap3\n      swap2\n      swap1\n      tag_114\n      jump\t// in\n    tag_194:\n      swap1\n      dup2\n      mstore\n      0x20\n      add\n      mload(0x40)\n      dup1\n      swap2\n      sub\n      swap1\n      keccak256\n        /* \"contracts/BusinessConsensus2.sol\":3920:3962  businessProposals[_messageID].numApprovals */\n      0x06\n      add\n      sload\n        /* \"contracts/BusinessConsensus2.sol\":3741:3963  return (businessProposals[_messageID].messageID,businessProposals[_messageID].expiryDate,businessProposals[_messageID].initiator,businessProposals[_messageID].BusinessRequirement,businessProposals[_messageID].numApprovals) */\n      dup5\n      dup1\n      sload\n      tag_195\n      swap1\n      tag_97\n      jump\t// in\n    tag_195:\n      dup1\n      0x1f\n      add\n      0x20\n      dup1\n      swap2\n      div\n      mul\n      0x20\n      add\n      mload(0x40)\n      swap1\n      dup2\n      add\n      0x40\n      mstore\n      dup1\n      swap3\n      swap2\n      swap1\n      dup2\n      dup2\n      mstore\n      0x20\n      add\n      dup3\n      dup1\n      sload\n      tag_196\n      swap1\n      tag_97\n      jump\t// in\n    tag_196:\n      dup1\n      iszero\n      tag_197\n      jumpi\n      dup1\n      0x1f\n      lt\n      tag_198\n      jumpi\n      0x0100\n      dup1\n      dup4\n      sload\n      div\n      mul\n      dup4\n      mstore\n      swap2\n      0x20\n      add\n      swap2\n      jump(tag_197)\n    tag_198:\n      dup3\n      add\n      swap2\n      swap1\n      0x00\n      mstore\n      keccak256(0x00, 0x20)\n      swap1\n    tag_199:\n      dup2\n      sload\n      dup2\n      mstore\n      swap1\n      0x01\n      add\n      swap1\n      0x20\n      add\n      dup1\n      dup4\n      gt\n      tag_199\n      jumpi\n      dup3\n      swap1\n      sub\n      0x1f\n      and\n      dup3\n      add\n      swap2\n    tag_197:\n      pop\n      pop\n      pop\n      pop\n      pop\n      swap5\n      pop\n      swap5\n      pop\n      swap5\n      pop\n      swap5\n      pop\n      swap5\n      pop\n      swap5\n      pop\n        /* \"contracts/BusinessConsensus2.sol\":3614:3971  function getParameters(string calldata _messageID) external view returns (string memory, uint , address ,uint ,uint){\r... */\n      swap3\n      swap6\n      pop\n      swap3\n      swap6\n      swap1\n      swap4\n      pop\n      jump\t// out\n        /* \"contracts/BusinessConsensus2.sol\":1202:2242  function createContract(string memory _messageID, uint256 expiry, uint256 requiredPercentage,bytes32 contents,string memory subject,string memory _messageDate) external{\r... */\n    tag_61:\n        /* \"contracts/BusinessConsensus2.sol\":1525:1526  0 */\n      0x00\n        /* \"contracts/BusinessConsensus2.sol\":1474:1527  businessProposals[_messageID].initiator == address(0) */\n      0xffffffffffffffffffffffffffffffffffffffff\n      and\n        /* \"contracts/BusinessConsensus2.sol\":1474:1491  businessProposals */\n      0x00\n        /* \"contracts/BusinessConsensus2.sol\":1492:1502  _messageID */\n      dup8\n        /* \"contracts/BusinessConsensus2.sol\":1474:1503  businessProposals[_messageID] */\n      mload(0x40)\n      tag_201\n      swap2\n      swap1\n      tag_202\n      jump\t// in\n    tag_201:\n      swap1\n      dup2\n      mstore\n      0x20\n      add\n      mload(0x40)\n      dup1\n      swap2\n      sub\n      swap1\n      keccak256\n        /* \"contracts/BusinessConsensus2.sol\":1474:1513  businessProposals[_messageID].initiator */\n      0x01\n      add\n      0x00\n      swap1\n      sload\n      swap1\n      0x0100\n      exp\n      swap1\n      div\n      0xffffffffffffffffffffffffffffffffffffffff\n      and\n        /* \"contracts/BusinessConsensus2.sol\":1474:1527  businessProposals[_messageID].initiator == address(0) */\n      0xffffffffffffffffffffffffffffffffffffffff\n      and\n      eq\n        /* \"contracts/BusinessConsensus2.sol\":1466:1556  require(businessProposals[_messageID].initiator == address(0),\"Proposal already created!\") */\n      tag_203\n      jumpi\n      mload(0x40)\n      0x08c379a000000000000000000000000000000000000000000000000000000000\n      dup2\n      mstore\n      0x04\n      add\n      tag_204\n      swap1\n      tag_205\n      jump\t// in\n    tag_204:\n      mload(0x40)\n      dup1\n      swap2\n      sub\n      swap1\n      revert\n    tag_203:\n        /* \"contracts/BusinessConsensus2.sol\":1567:1591  Proposal memory proposal */\n      0x00\n        /* \"contracts/BusinessConsensus2.sol\":1594:2127  Proposal({\r... */\n      mload(0x40)\n      dup1\n      0x0180\n      add\n      0x40\n      mstore\n      dup1\n        /* \"contracts/BusinessConsensus2.sol\":1664:1674  _messageID */\n      dup9\n        /* \"contracts/BusinessConsensus2.sol\":1594:2127  Proposal({\r... */\n      dup2\n      mstore\n      0x20\n      add\n        /* \"contracts/BusinessConsensus2.sol\":1836:1846  msg.sender */\n      caller\n        /* \"contracts/BusinessConsensus2.sol\":1594:2127  Proposal({\r... */\n      0xffffffffffffffffffffffffffffffffffffffff\n      and\n      dup2\n      mstore\n      0x20\n      add\n        /* \"contracts/BusinessConsensus2.sol\":1719:1723  this */\n      address\n        /* \"contracts/BusinessConsensus2.sol\":1594:2127  Proposal({\r... */\n      0xffffffffffffffffffffffffffffffffffffffff\n      and\n      dup2\n      mstore\n      0x20\n      add\n        /* \"contracts/BusinessConsensus2.sol\":1633:1634  0 */\n      0x00\n        /* \"contracts/BusinessConsensus2.sol\":1594:2127  Proposal({\r... */\n      dup2\n      mstore\n      0x20\n      add\n        /* \"contracts/BusinessConsensus2.sol\":1896:1902  expiry */\n      dup8\n        /* \"contracts/BusinessConsensus2.sol\":1878:1893  block.timestamp */\n      timestamp\n        /* \"contracts/BusinessConsensus2.sol\":1878:1902  block.timestamp + expiry */\n      tag_206\n      swap2\n      swap1\n      tag_131\n      jump\t// in\n    tag_206:\n        /* \"contracts/BusinessConsensus2.sol\":1594:2127  Proposal({\r... */\n      dup2\n      mstore\n      0x20\n      add\n        /* \"contracts/BusinessConsensus2.sol\":1943:1961  requiredPercentage */\n      dup7\n        /* \"contracts/BusinessConsensus2.sol\":1594:2127  Proposal({\r... */\n      dup2\n      mstore\n      0x20\n      add\n        /* \"contracts/BusinessConsensus2.sol\":1995:1996  0 */\n      0x00\n        /* \"contracts/BusinessConsensus2.sol\":1594:2127  Proposal({\r... */\n      dup2\n      mstore\n      0x20\n      add\n        /* \"contracts/BusinessConsensus2.sol\":1800:1805  false */\n      0x00\n        /* \"contracts/BusinessConsensus2.sol\":1594:2127  Proposal({\r... */\n      iszero\n      iszero\n      dup2\n      mstore\n      0x20\n      add\n      0x52656a6563746564000000000000000000000000000000000000000000000000\n      dup2\n      mstore\n      0x20\n      add\n        /* \"contracts/BusinessConsensus2.sol\":2027:2039  _messageDate */\n      dup4\n        /* \"contracts/BusinessConsensus2.sol\":1594:2127  Proposal({\r... */\n      dup2\n      mstore\n      0x20\n      add\n        /* \"contracts/BusinessConsensus2.sol\":2067:2074  subject */\n      dup5\n        /* \"contracts/BusinessConsensus2.sol\":1594:2127  Proposal({\r... */\n      dup2\n      mstore\n      0x20\n      add\n        /* \"contracts/BusinessConsensus2.sol\":2103:2111  contents */\n      dup6\n        /* \"contracts/BusinessConsensus2.sol\":1594:2127  Proposal({\r... */\n      dup2\n      mstore\n      pop\n        /* \"contracts/BusinessConsensus2.sol\":1567:2127  Proposal memory proposal = Proposal({\r... */\n      swap1\n      pop\n        /* \"contracts/BusinessConsensus2.sol\":2174:2182  proposal */\n      dup1\n        /* \"contracts/BusinessConsensus2.sol\":2142:2159  businessProposals */\n      0x00\n        /* \"contracts/BusinessConsensus2.sol\":2160:2170  _messageID */\n      dup9\n        /* \"contracts/BusinessConsensus2.sol\":2142:2171  businessProposals[_messageID] */\n      mload(0x40)\n      tag_207\n      swap2\n      swap1\n      tag_202\n      jump\t// in\n    tag_207:\n      swap1\n      dup2\n      mstore\n      0x20\n      add\n      mload(0x40)\n      dup1\n      swap2\n      sub\n      swap1\n      keccak256\n        /* \"contracts/BusinessConsensus2.sol\":2142:2182  businessProposals[_messageID] = proposal */\n      0x00\n      dup3\n      add\n      mload\n      dup2\n      0x00\n      add\n      swap1\n      dup1\n      mload\n      swap1\n      0x20\n      add\n      swap1\n      tag_208\n      swap3\n      swap2\n      swap1\n      tag_209\n      jump\t// in\n    tag_208:\n      pop\n      0x20\n      dup3\n      add\n      mload\n      dup2\n      0x01\n      add\n      exp(0x0100, 0x00)\n      dup2\n      sload\n      dup2\n      0xffffffffffffffffffffffffffffffffffffffff\n      mul\n      not\n      and\n      swap1\n      dup4\n      0xffffffffffffffffffffffffffffffffffffffff\n      and\n      mul\n      or\n      swap1\n      sstore\n      pop\n      0x40\n      dup3\n      add\n      mload\n      dup2\n      0x02\n      add\n      exp(0x0100, 0x00)\n      dup2\n      sload\n      dup2\n      0xffffffffffffffffffffffffffffffffffffffff\n      mul\n      not\n      and\n      swap1\n      dup4\n      0xffffffffffffffffffffffffffffffffffffffff\n      and\n      mul\n      or\n      swap1\n      sstore\n      pop\n      0x60\n      dup3\n      add\n      mload\n      dup2\n      0x03\n      add\n      sstore\n      0x80\n      dup3\n      add\n      mload\n      dup2\n      0x04\n      add\n      sstore\n      0xa0\n      dup3\n      add\n      mload\n      dup2\n      0x05\n      add\n      sstore\n      0xc0\n      dup3\n      add\n      mload\n      dup2\n      0x06\n      add\n      sstore\n      0xe0\n      dup3\n      add\n      mload\n      dup2\n      0x07\n      add\n      exp(0x0100, 0x00)\n      dup2\n      sload\n      dup2\n      0xff\n      mul\n      not\n      and\n      swap1\n      dup4\n      iszero\n      iszero\n      mul\n      or\n      swap1\n      sstore\n      pop\n      0x0100\n      dup3\n      add\n      mload\n      dup2\n      0x08\n      add\n      sstore\n      0x0120\n      dup3\n      add\n      mload\n      dup2\n      0x09\n      add\n      swap1\n      dup1\n      mload\n      swap1\n      0x20\n      add\n      swap1\n      tag_210\n      swap3\n      swap2\n      swap1\n      tag_209\n      jump\t// in\n    tag_210:\n      pop\n      0x0140\n      dup3\n      add\n      mload\n      dup2\n      0x0a\n      add\n      swap1\n      dup1\n      mload\n      swap1\n      0x20\n      add\n      swap1\n      tag_211\n      swap3\n      swap2\n      swap1\n      tag_209\n      jump\t// in\n    tag_211:\n      pop\n      0x0160\n      dup3\n      add\n      mload\n      dup2\n      0x0b\n      add\n      sstore\n      swap1\n      pop\n      pop\n        /* \"contracts/BusinessConsensus2.sol\":2226:2234  proposal */\n      dup1\n        /* \"contracts/BusinessConsensus2.sol\":2197:2214  businessProposals */\n      0x00\n        /* \"contracts/BusinessConsensus2.sol\":2215:2222  subject */\n      dup5\n        /* \"contracts/BusinessConsensus2.sol\":2197:2223  businessProposals[subject] */\n      mload(0x40)\n      tag_212\n      swap2\n      swap1\n      tag_202\n      jump\t// in\n    tag_212:\n      swap1\n      dup2\n      mstore\n      0x20\n      add\n      mload(0x40)\n      dup1\n      swap2\n      sub\n      swap1\n      keccak256\n        /* \"contracts/BusinessConsensus2.sol\":2197:2234  businessProposals[subject] = proposal */\n      0x00\n      dup3\n      add\n      mload\n      dup2\n      0x00\n      add\n      swap1\n      dup1\n      mload\n      swap1\n      0x20\n      add\n      swap1\n      tag_213\n      swap3\n      swap2\n      swap1\n      tag_209\n      jump\t// in\n    tag_213:\n      pop\n      0x20\n      dup3\n      add\n      mload\n      dup2\n      0x01\n      add\n      exp(0x0100, 0x00)\n      dup2\n      sload\n      dup2\n      0xffffffffffffffffffffffffffffffffffffffff\n      mul\n      not\n      and\n      swap1\n      dup4\n      0xffffffffffffffffffffffffffffffffffffffff\n      and\n      mul\n      or\n      swap1\n      sstore\n      pop\n      0x40\n      dup3\n      add\n      mload\n      dup2\n      0x02\n      add\n      exp(0x0100, 0x00)\n      dup2\n      sload\n      dup2\n      0xffffffffffffffffffffffffffffffffffffffff\n      mul\n      not\n      and\n      swap1\n      dup4\n      0xffffffffffffffffffffffffffffffffffffffff\n      and\n      mul\n      or\n      swap1\n      sstore\n      pop\n      0x60\n      dup3\n      add\n      mload\n      dup2\n      0x03\n      add\n      sstore\n      0x80\n      dup3\n      add\n      mload\n      dup2\n      0x04\n      add\n      sstore\n      0xa0\n      dup3\n      add\n      mload\n      dup2\n      0x05\n      add\n      sstore\n      0xc0\n      dup3\n      add\n      mload\n      dup2\n      0x06\n      add\n      sstore\n      0xe0\n      dup3\n      add\n      mload\n      dup2\n      0x07\n      add\n      exp(0x0100, 0x00)\n      dup2\n      sload\n      dup2\n      0xff\n      mul\n      not\n      and\n      swap1\n      dup4\n      iszero\n      iszero\n      mul\n      or\n      swap1\n      sstore\n      pop\n      0x0100\n      dup3\n      add\n      mload\n      dup2\n      0x08\n      add\n      sstore\n      0x0120\n      dup3\n      add\n      mload\n      dup2\n      0x09\n      add\n      swap1\n      dup1\n      mload\n      swap1\n      0x20\n      add\n      swap1\n      tag_214\n      swap3\n      swap2\n      swap1\n      tag_209\n      jump\t// in\n    tag_214:\n      pop\n      0x0140\n      dup3\n      add\n      mload\n      dup2\n      0x0a\n      add\n      swap1\n      dup1\n      mload\n      swap1\n      0x20\n      add\n      swap1\n      tag_215\n      swap3\n      swap2\n      swap1\n      tag_209\n      jump\t// in\n    tag_215:\n      pop\n      0x0160\n      dup3\n      add\n      mload\n      dup2\n      0x0b\n      add\n      sstore\n      swap1\n      pop\n      pop\n        /* \"contracts/BusinessConsensus2.sol\":1370:2242  {\r... */\n      pop\n        /* \"contracts/BusinessConsensus2.sol\":1202:2242  function createContract(string memory _messageID, uint256 expiry, uint256 requiredPercentage,bytes32 contents,string memory subject,string memory _messageDate) external{\r... */\n      pop\n      pop\n      pop\n      pop\n      pop\n      pop\n      jump\t// out\n        /* \"contracts/BusinessConsensus2.sol\":3977:4254  function getParameters2(address test_address,string calldata _messageID) external view returns (bool, bool, address){\r... */\n    tag_64:\n        /* \"contracts/BusinessConsensus2.sol\":4073:4077  bool */\n      0x00\n        /* \"contracts/BusinessConsensus2.sol\":4079:4083  bool */\n      dup1\n        /* \"contracts/BusinessConsensus2.sol\":4085:4092  address */\n      0x00\n        /* \"contracts/BusinessConsensus2.sol\":4112:4122  voter_maps */\n      0x01\n        /* \"contracts/BusinessConsensus2.sol\":4123:4133  _messageID */\n      dup6\n      dup6\n        /* \"contracts/BusinessConsensus2.sol\":4112:4134  voter_maps[_messageID] */\n      mload(0x40)\n      tag_217\n      swap3\n      swap2\n      swap1\n      tag_114\n      jump\t// in\n    tag_217:\n      swap1\n      dup2\n      mstore\n      0x20\n      add\n      mload(0x40)\n      dup1\n      swap2\n      sub\n      swap1\n      keccak256\n        /* \"contracts/BusinessConsensus2.sol\":4112:4148  voter_maps[_messageID][test_address] */\n      0x00\n        /* \"contracts/BusinessConsensus2.sol\":4135:4147  test_address */\n      dup8\n        /* \"contracts/BusinessConsensus2.sol\":4112:4148  voter_maps[_messageID][test_address] */\n      0xffffffffffffffffffffffffffffffffffffffff\n      and\n      0xffffffffffffffffffffffffffffffffffffffff\n      and\n      dup2\n      mstore\n      0x20\n      add\n      swap1\n      dup2\n      mstore\n      0x20\n      add\n      0x00\n      keccak256\n        /* \"contracts/BusinessConsensus2.sol\":4112:4153  voter_maps[_messageID][test_address].vote */\n      0x00\n      add\n      0x01\n      swap1\n      sload\n      swap1\n      0x0100\n      exp\n      swap1\n      div\n      0xff\n      and\n        /* \"contracts/BusinessConsensus2.sol\":4155:4165  voter_maps */\n      0x01\n        /* \"contracts/BusinessConsensus2.sol\":4166:4176  _messageID */\n      dup7\n      dup7\n        /* \"contracts/BusinessConsensus2.sol\":4155:4177  voter_maps[_messageID] */\n      mload(0x40)\n      tag_218\n      swap3\n      swap2\n      swap1\n      tag_114\n      jump\t// in\n    tag_218:\n      swap1\n      dup2\n      mstore\n      0x20\n      add\n      mload(0x40)\n      dup1\n      swap2\n      sub\n      swap1\n      keccak256\n        /* \"contracts/BusinessConsensus2.sol\":4155:4191  voter_maps[_messageID][test_address] */\n      0x00\n        /* \"contracts/BusinessConsensus2.sol\":4178:4190  test_address */\n      dup9\n        /* \"contracts/BusinessConsensus2.sol\":4155:4191  voter_maps[_messageID][test_address] */\n      0xffffffffffffffffffffffffffffffffffffffff\n      and\n      0xffffffffffffffffffffffffffffffffffffffff\n      and\n      dup2\n      mstore\n      0x20\n      add\n      swap1\n      dup2\n      mstore\n      0x20\n      add\n      0x00\n      keccak256\n        /* \"contracts/BusinessConsensus2.sol\":4155:4197  voter_maps[_messageID][test_address].voted */\n      0x00\n      add\n      0x00\n      swap1\n      sload\n      swap1\n      0x0100\n      exp\n      swap1\n      div\n      0xff\n      and\n        /* \"contracts/BusinessConsensus2.sol\":4199:4209  voter_maps */\n      0x01\n        /* \"contracts/BusinessConsensus2.sol\":4210:4220  _messageID */\n      dup8\n      dup8\n        /* \"contracts/BusinessConsensus2.sol\":4199:4221  voter_maps[_messageID] */\n      mload(0x40)\n      tag_219\n      swap3\n      swap2\n      swap1\n      tag_114\n      jump\t// in\n    tag_219:\n      swap1\n      dup2\n      mstore\n      0x20\n      add\n      mload(0x40)\n      dup1\n      swap2\n      sub\n      swap1\n      keccak256\n        /* \"contracts/BusinessConsensus2.sol\":4199:4235  voter_maps[_messageID][test_address] */\n      0x00\n        /* \"contracts/BusinessConsensus2.sol\":4222:4234  test_address */\n      dup10\n        /* \"contracts/BusinessConsensus2.sol\":4199:4235  voter_maps[_messageID][test_address] */\n      0xffffffffffffffffffffffffffffffffffffffff\n      and\n      0xffffffffffffffffffffffffffffffffffffffff\n      and\n      dup2\n      mstore\n      0x20\n      add\n      swap1\n      dup2\n      mstore\n      0x20\n      add\n      0x00\n      keccak256\n        /* \"contracts/BusinessConsensus2.sol\":4199:4245  voter_maps[_messageID][test_address].recipient */\n      0x00\n      add\n      0x02\n      swap1\n      sload\n      swap1\n      0x0100\n      exp\n      swap1\n      div\n      0xffffffffffffffffffffffffffffffffffffffff\n      and\n        /* \"contracts/BusinessConsensus2.sol\":4104:4246  return (voter_maps[_messageID][test_address].vote, voter_maps[_messageID][test_address].voted, voter_maps[_messageID][test_address].recipient) */\n      swap3\n      pop\n      swap3\n      pop\n      swap3\n      pop\n        /* \"contracts/BusinessConsensus2.sol\":3977:4254  function getParameters2(address test_address,string calldata _messageID) external view returns (bool, bool, address){\r... */\n      swap4\n      pop\n      swap4\n      pop\n      swap4\n      swap1\n      pop\n      jump\t// out\n        /* \"contracts/BusinessConsensus2.sol\":6620:7679  function Consensus(string calldata _messageID) external {\r... */\n    tag_68:\n        /* \"contracts/BusinessConsensus2.sol\":6714:6731  businessProposals */\n      0x00\n        /* \"contracts/BusinessConsensus2.sol\":6732:6742  _messageID */\n      dup3\n      dup3\n        /* \"contracts/BusinessConsensus2.sol\":6714:6743  businessProposals[_messageID] */\n      mload(0x40)\n      tag_221\n      swap3\n      swap2\n      swap1\n      tag_114\n      jump\t// in\n    tag_221:\n      swap1\n      dup2\n      mstore\n      0x20\n      add\n      mload(0x40)\n      dup1\n      swap2\n      sub\n      swap1\n      keccak256\n        /* \"contracts/BusinessConsensus2.sol\":6714:6754  businessProposals[_messageID].expiryDate */\n      0x04\n      add\n      sload\n        /* \"contracts/BusinessConsensus2.sol\":6695:6710  block.timestamp */\n      timestamp\n        /* \"contracts/BusinessConsensus2.sol\":6695:6754  block.timestamp >= businessProposals[_messageID].expiryDate */\n      lt\n      iszero\n        /* \"contracts/BusinessConsensus2.sol\":6687:6791  require(block.timestamp >= businessProposals[_messageID].expiryDate, \"Verdict has not been reached yet\") */\n      tag_222\n      jumpi\n      mload(0x40)\n      0x08c379a000000000000000000000000000000000000000000000000000000000\n      dup2\n      mstore\n      0x04\n      add\n      tag_223\n      swap1\n      tag_156\n      jump\t// in\n    tag_223:\n      mload(0x40)\n      dup1\n      swap2\n      sub\n      swap1\n      revert\n    tag_222:\n        /* \"contracts/BusinessConsensus2.sol\":6854:6859  false */\n      0x00\n        /* \"contracts/BusinessConsensus2.sol\":6810:6859  businessProposals[_messageID].isCompiled == false */\n      iszero\n      iszero\n        /* \"contracts/BusinessConsensus2.sol\":6810:6827  businessProposals */\n      0x00\n        /* \"contracts/BusinessConsensus2.sol\":6828:6838  _messageID */\n      dup4\n      dup4\n        /* \"contracts/BusinessConsensus2.sol\":6810:6839  businessProposals[_messageID] */\n      mload(0x40)\n      tag_224\n      swap3\n      swap2\n      swap1\n      tag_114\n      jump\t// in\n    tag_224:\n      swap1\n      dup2\n      mstore\n      0x20\n      add\n      mload(0x40)\n      dup1\n      swap2\n      sub\n      swap1\n      keccak256\n        /* \"contracts/BusinessConsensus2.sol\":6810:6850  businessProposals[_messageID].isCompiled */\n      0x07\n      add\n      0x00\n      swap1\n      sload\n      swap1\n      0x0100\n      exp\n      swap1\n      div\n      0xff\n      and\n        /* \"contracts/BusinessConsensus2.sol\":6810:6859  businessProposals[_messageID].isCompiled == false */\n      iszero\n      iszero\n      eq\n        /* \"contracts/BusinessConsensus2.sol\":6802:6901  require(businessProposals[_messageID].isCompiled == false, \"Consensus has already been calculated\") */\n      tag_225\n      jumpi\n      mload(0x40)\n      0x08c379a000000000000000000000000000000000000000000000000000000000\n      dup2\n      mstore\n      0x04\n      add\n      tag_226\n      swap1\n      tag_227\n      jump\t// in\n    tag_226:\n      mload(0x40)\n      dup1\n      swap2\n      sub\n      swap1\n      revert\n    tag_225:\n        /* \"contracts/BusinessConsensus2.sol\":6934:6951  businessProposals */\n      0x00\n        /* \"contracts/BusinessConsensus2.sol\":6952:6962  _messageID */\n      dup3\n      dup3\n        /* \"contracts/BusinessConsensus2.sol\":6934:6963  businessProposals[_messageID] */\n      mload(0x40)\n      tag_228\n      swap3\n      swap2\n      swap1\n      tag_114\n      jump\t// in\n    tag_228:\n      swap1\n      dup2\n      mstore\n      0x20\n      add\n      mload(0x40)\n      dup1\n      swap2\n      sub\n      swap1\n      keccak256\n        /* \"contracts/BusinessConsensus2.sol\":6934:6973  businessProposals[_messageID].initiator */\n      0x01\n      add\n      0x00\n      swap1\n      sload\n      swap1\n      0x0100\n      exp\n      swap1\n      div\n      0xffffffffffffffffffffffffffffffffffffffff\n      and\n        /* \"contracts/BusinessConsensus2.sol\":6920:6973  msg.sender == businessProposals[_messageID].initiator */\n      0xffffffffffffffffffffffffffffffffffffffff\n      and\n        /* \"contracts/BusinessConsensus2.sol\":6920:6930  msg.sender */\n      caller\n        /* \"contracts/BusinessConsensus2.sol\":6920:6973  msg.sender == businessProposals[_messageID].initiator */\n      0xffffffffffffffffffffffffffffffffffffffff\n      and\n      eq\n        /* \"contracts/BusinessConsensus2.sol\":6920:7037  msg.sender == businessProposals[_messageID].initiator || voter_maps[_messageID][msg.sender].recipient != address(0x0) */\n      dup1\n      tag_229\n      jumpi\n      pop\n        /* \"contracts/BusinessConsensus2.sol\":7033:7036  0x0 */\n      0x00\n        /* \"contracts/BusinessConsensus2.sol\":6977:7037  voter_maps[_messageID][msg.sender].recipient != address(0x0) */\n      0xffffffffffffffffffffffffffffffffffffffff\n      and\n        /* \"contracts/BusinessConsensus2.sol\":6977:6987  voter_maps */\n      0x01\n        /* \"contracts/BusinessConsensus2.sol\":6988:6998  _messageID */\n      dup4\n      dup4\n        /* \"contracts/BusinessConsensus2.sol\":6977:6999  voter_maps[_messageID] */\n      mload(0x40)\n      tag_230\n      swap3\n      swap2\n      swap1\n      tag_114\n      jump\t// in\n    tag_230:\n      swap1\n      dup2\n      mstore\n      0x20\n      add\n      mload(0x40)\n      dup1\n      swap2\n      sub\n      swap1\n      keccak256\n        /* \"contracts/BusinessConsensus2.sol\":6977:7011  voter_maps[_messageID][msg.sender] */\n      0x00\n        /* \"contracts/BusinessConsensus2.sol\":7000:7010  msg.sender */\n      caller\n        /* \"contracts/BusinessConsensus2.sol\":6977:7011  voter_maps[_messageID][msg.sender] */\n      0xffffffffffffffffffffffffffffffffffffffff\n      and\n      0xffffffffffffffffffffffffffffffffffffffff\n      and\n      dup2\n      mstore\n      0x20\n      add\n      swap1\n      dup2\n      mstore\n      0x20\n      add\n      0x00\n      keccak256\n        /* \"contracts/BusinessConsensus2.sol\":6977:7021  voter_maps[_messageID][msg.sender].recipient */\n      0x00\n      add\n      0x02\n      swap1\n      sload\n      swap1\n      0x0100\n      exp\n      swap1\n      div\n      0xffffffffffffffffffffffffffffffffffffffff\n      and\n        /* \"contracts/BusinessConsensus2.sol\":6977:7037  voter_maps[_messageID][msg.sender].recipient != address(0x0) */\n      0xffffffffffffffffffffffffffffffffffffffff\n      and\n      eq\n      iszero\n        /* \"contracts/BusinessConsensus2.sol\":6920:7037  msg.sender == businessProposals[_messageID].initiator || voter_maps[_messageID][msg.sender].recipient != address(0x0) */\n    tag_229:\n        /* \"contracts/BusinessConsensus2.sol\":6912:7080  require(msg.sender == businessProposals[_messageID].initiator || voter_maps[_messageID][msg.sender].recipient != address(0x0), \"You aren't authorize to compile Bundle\") */\n      tag_231\n      jumpi\n      mload(0x40)\n      0x08c379a000000000000000000000000000000000000000000000000000000000\n      dup2\n      mstore\n      0x04\n      add\n      tag_232\n      swap1\n      tag_233\n      jump\t// in\n    tag_232:\n      mload(0x40)\n      dup1\n      swap2\n      sub\n      swap1\n      revert\n    tag_231:\n        /* \"contracts/BusinessConsensus2.sol\":7091:7120  uint256 AccumulatedPercentage */\n      0x00\n        /* \"contracts/BusinessConsensus2.sol\":7192:7195  100 */\n      0x64\n        /* \"contracts/BusinessConsensus2.sol\":7167:7171  keys */\n      0x03\n        /* \"contracts/BusinessConsensus2.sol\":7172:7182  _messageID */\n      dup5\n      dup5\n        /* \"contracts/BusinessConsensus2.sol\":7167:7183  keys[_messageID] */\n      mload(0x40)\n      tag_234\n      swap3\n      swap2\n      swap1\n      tag_114\n      jump\t// in\n    tag_234:\n      swap1\n      dup2\n      mstore\n      0x20\n      add\n      mload(0x40)\n      dup1\n      swap2\n      sub\n      swap1\n      keccak256\n        /* \"contracts/BusinessConsensus2.sol\":7167:7190  keys[_messageID].length */\n      dup1\n      sload\n      swap1\n      pop\n        /* \"contracts/BusinessConsensus2.sol\":7124:7141  businessProposals */\n      0x00\n        /* \"contracts/BusinessConsensus2.sol\":7142:7152  _messageID */\n      dup6\n      dup6\n        /* \"contracts/BusinessConsensus2.sol\":7124:7153  businessProposals[_messageID] */\n      mload(0x40)\n      tag_235\n      swap3\n      swap2\n      swap1\n      tag_114\n      jump\t// in\n    tag_235:\n      swap1\n      dup2\n      mstore\n      0x20\n      add\n      mload(0x40)\n      dup1\n      swap2\n      sub\n      swap1\n      keccak256\n        /* \"contracts/BusinessConsensus2.sol\":7124:7166  businessProposals[_messageID].numApprovals */\n      0x06\n      add\n      sload\n        /* \"contracts/BusinessConsensus2.sol\":7124:7190  businessProposals[_messageID].numApprovals/keys[_messageID].length */\n      tag_236\n      swap2\n      swap1\n      tag_237\n      jump\t// in\n    tag_236:\n        /* \"contracts/BusinessConsensus2.sol\":7123:7195  (businessProposals[_messageID].numApprovals/keys[_messageID].length)*100 */\n      tag_238\n      swap2\n      swap1\n      tag_239\n      jump\t// in\n    tag_238:\n        /* \"contracts/BusinessConsensus2.sol\":7091:7195  uint256 AccumulatedPercentage = (businessProposals[_messageID].numApprovals/keys[_messageID].length)*100 */\n      swap1\n      pop\n        /* \"contracts/BusinessConsensus2.sol\":7234:7251  businessProposals */\n      0x00\n        /* \"contracts/BusinessConsensus2.sol\":7252:7262  _messageID */\n      dup4\n      dup4\n        /* \"contracts/BusinessConsensus2.sol\":7234:7263  businessProposals[_messageID] */\n      mload(0x40)\n      tag_240\n      swap3\n      swap2\n      swap1\n      tag_114\n      jump\t// in\n    tag_240:\n      swap1\n      dup2\n      mstore\n      0x20\n      add\n      mload(0x40)\n      dup1\n      swap2\n      sub\n      swap1\n      keccak256\n        /* \"contracts/BusinessConsensus2.sol\":7234:7283  businessProposals[_messageID].BusinessRequirement */\n      0x05\n      add\n      sload\n        /* \"contracts/BusinessConsensus2.sol\":7209:7230  AccumulatedPercentage */\n      dup2\n        /* \"contracts/BusinessConsensus2.sol\":7209:7283  AccumulatedPercentage >= businessProposals[_messageID].BusinessRequirement */\n      lt\n        /* \"contracts/BusinessConsensus2.sol\":7206:7366  if(AccumulatedPercentage >= businessProposals[_messageID].BusinessRequirement){\r... */\n      tag_241\n      jumpi\n        /* \"contracts/BusinessConsensus2.sol\":7299:7354  businessProposals[_messageID].finalVerdict = \"Accepted\" */\n      0x4163636570746564000000000000000000000000000000000000000000000000\n        /* \"contracts/BusinessConsensus2.sol\":7299:7316  businessProposals */\n      0x00\n        /* \"contracts/BusinessConsensus2.sol\":7317:7327  _messageID */\n      dup5\n      dup5\n        /* \"contracts/BusinessConsensus2.sol\":7299:7328  businessProposals[_messageID] */\n      mload(0x40)\n      tag_242\n      swap3\n      swap2\n      swap1\n      tag_114\n      jump\t// in\n    tag_242:\n      swap1\n      dup2\n      mstore\n      0x20\n      add\n      mload(0x40)\n      dup1\n      swap2\n      sub\n      swap1\n      keccak256\n        /* \"contracts/BusinessConsensus2.sol\":7299:7341  businessProposals[_messageID].finalVerdict */\n      0x08\n      add\n        /* \"contracts/BusinessConsensus2.sol\":7299:7354  businessProposals[_messageID].finalVerdict = \"Accepted\" */\n      dup2\n      swap1\n      sstore\n      pop\n        /* \"contracts/BusinessConsensus2.sol\":7206:7366  if(AccumulatedPercentage >= businessProposals[_messageID].BusinessRequirement){\r... */\n    tag_241:\n        /* \"contracts/BusinessConsensus2.sol\":7380:7387  uint8 i */\n      0x00\n        /* \"contracts/BusinessConsensus2.sol\":7376:7614  for(uint8 i=0; i< keys[_messageID].length; i++){\r... */\n    tag_243:\n        /* \"contracts/BusinessConsensus2.sol\":7394:7398  keys */\n      0x03\n        /* \"contracts/BusinessConsensus2.sol\":7399:7409  _messageID */\n      dup5\n      dup5\n        /* \"contracts/BusinessConsensus2.sol\":7394:7410  keys[_messageID] */\n      mload(0x40)\n      tag_246\n      swap3\n      swap2\n      swap1\n      tag_114\n      jump\t// in\n    tag_246:\n      swap1\n      dup2\n      mstore\n      0x20\n      add\n      mload(0x40)\n      dup1\n      swap2\n      sub\n      swap1\n      keccak256\n        /* \"contracts/BusinessConsensus2.sol\":7394:7417  keys[_messageID].length */\n      dup1\n      sload\n      swap1\n      pop\n        /* \"contracts/BusinessConsensus2.sol\":7391:7392  i */\n      dup2\n        /* \"contracts/BusinessConsensus2.sol\":7391:7417  i< keys[_messageID].length */\n      0xff\n      and\n      lt\n        /* \"contracts/BusinessConsensus2.sol\":7376:7614  for(uint8 i=0; i< keys[_messageID].length; i++){\r... */\n      iszero\n      tag_244\n      jumpi\n        /* \"contracts/BusinessConsensus2.sol\":7494:7499  false */\n      0x00\n        /* \"contracts/BusinessConsensus2.sol\":7441:7499  voter_maps[_messageID][keys[_messageID][i]].voted == false */\n      iszero\n      iszero\n        /* \"contracts/BusinessConsensus2.sol\":7441:7451  voter_maps */\n      0x01\n        /* \"contracts/BusinessConsensus2.sol\":7452:7462  _messageID */\n      dup6\n      dup6\n        /* \"contracts/BusinessConsensus2.sol\":7441:7463  voter_maps[_messageID] */\n      mload(0x40)\n      tag_247\n      swap3\n      swap2\n      swap1\n      tag_114\n      jump\t// in\n    tag_247:\n      swap1\n      dup2\n      mstore\n      0x20\n      add\n      mload(0x40)\n      dup1\n      swap2\n      sub\n      swap1\n      keccak256\n        /* \"contracts/BusinessConsensus2.sol\":7441:7484  voter_maps[_messageID][keys[_messageID][i]] */\n      0x00\n        /* \"contracts/BusinessConsensus2.sol\":7464:7468  keys */\n      0x03\n        /* \"contracts/BusinessConsensus2.sol\":7469:7479  _messageID */\n      dup8\n      dup8\n        /* \"contracts/BusinessConsensus2.sol\":7464:7480  keys[_messageID] */\n      mload(0x40)\n      tag_248\n      swap3\n      swap2\n      swap1\n      tag_114\n      jump\t// in\n    tag_248:\n      swap1\n      dup2\n      mstore\n      0x20\n      add\n      mload(0x40)\n      dup1\n      swap2\n      sub\n      swap1\n      keccak256\n        /* \"contracts/BusinessConsensus2.sol\":7481:7482  i */\n      dup5\n        /* \"contracts/BusinessConsensus2.sol\":7464:7483  keys[_messageID][i] */\n      0xff\n      and\n      dup2\n      sload\n      dup2\n      lt\n      tag_249\n      jumpi\n      tag_250\n      tag_251\n      jump\t// in\n    tag_250:\n    tag_249:\n      swap1\n      0x00\n      mstore\n      keccak256(0x00, 0x20)\n      add\n      0x00\n      swap1\n      sload\n      swap1\n      0x0100\n      exp\n      swap1\n      div\n      0xffffffffffffffffffffffffffffffffffffffff\n      and\n        /* \"contracts/BusinessConsensus2.sol\":7441:7484  voter_maps[_messageID][keys[_messageID][i]] */\n      0xffffffffffffffffffffffffffffffffffffffff\n      and\n      0xffffffffffffffffffffffffffffffffffffffff\n      and\n      dup2\n      mstore\n      0x20\n      add\n      swap1\n      dup2\n      mstore\n      0x20\n      add\n      0x00\n      keccak256\n        /* \"contracts/BusinessConsensus2.sol\":7441:7490  voter_maps[_messageID][keys[_messageID][i]].voted */\n      0x00\n      add\n      0x00\n      swap1\n      sload\n      swap1\n      0x0100\n      exp\n      swap1\n      div\n      0xff\n      and\n        /* \"contracts/BusinessConsensus2.sol\":7441:7499  voter_maps[_messageID][keys[_messageID][i]].voted == false */\n      iszero\n      iszero\n      eq\n        /* \"contracts/BusinessConsensus2.sol\":7438:7603  if(voter_maps[_messageID][keys[_messageID][i]].voted == false){\r... */\n      iszero\n      tag_253\n      jumpi\n        /* \"contracts/BusinessConsensus2.sol\":7519:7525  Voters */\n      0x02\n        /* \"contracts/BusinessConsensus2.sol\":7526:7536  _messageID */\n      dup5\n      dup5\n        /* \"contracts/BusinessConsensus2.sol\":7519:7537  Voters[_messageID] */\n      mload(0x40)\n      tag_254\n      swap3\n      swap2\n      swap1\n      tag_114\n      jump\t// in\n    tag_254:\n      swap1\n      dup2\n      mstore\n      0x20\n      add\n      mload(0x40)\n      dup1\n      swap2\n      sub\n      swap1\n      keccak256\n        /* \"contracts/BusinessConsensus2.sol\":7543:7553  voter_maps */\n      0x01\n        /* \"contracts/BusinessConsensus2.sol\":7554:7564  _messageID */\n      dup6\n      dup6\n        /* \"contracts/BusinessConsensus2.sol\":7543:7565  voter_maps[_messageID] */\n      mload(0x40)\n      tag_255\n      swap3\n      swap2\n      swap1\n      tag_114\n      jump\t// in\n    tag_255:\n      swap1\n      dup2\n      mstore\n      0x20\n      add\n      mload(0x40)\n      dup1\n      swap2\n      sub\n      swap1\n      keccak256\n        /* \"contracts/BusinessConsensus2.sol\":7543:7586  voter_maps[_messageID][keys[_messageID][i]] */\n      0x00\n        /* \"contracts/BusinessConsensus2.sol\":7566:7570  keys */\n      0x03\n        /* \"contracts/BusinessConsensus2.sol\":7571:7581  _messageID */\n      dup8\n      dup8\n        /* \"contracts/BusinessConsensus2.sol\":7566:7582  keys[_messageID] */\n      mload(0x40)\n      tag_256\n      swap3\n      swap2\n      swap1\n      tag_114\n      jump\t// in\n    tag_256:\n      swap1\n      dup2\n      mstore\n      0x20\n      add\n      mload(0x40)\n      dup1\n      swap2\n      sub\n      swap1\n      keccak256\n        /* \"contracts/BusinessConsensus2.sol\":7583:7584  i */\n      dup5\n        /* \"contracts/BusinessConsensus2.sol\":7566:7585  keys[_messageID][i] */\n      0xff\n      and\n      dup2\n      sload\n      dup2\n      lt\n      tag_257\n      jumpi\n      tag_258\n      tag_251\n      jump\t// in\n    tag_258:\n    tag_257:\n      swap1\n      0x00\n      mstore\n      keccak256(0x00, 0x20)\n      add\n      0x00\n      swap1\n      sload\n      swap1\n      0x0100\n      exp\n      swap1\n      div\n      0xffffffffffffffffffffffffffffffffffffffff\n      and\n        /* \"contracts/BusinessConsensus2.sol\":7543:7586  voter_maps[_messageID][keys[_messageID][i]] */\n      0xffffffffffffffffffffffffffffffffffffffff\n      and\n      0xffffffffffffffffffffffffffffffffffffffff\n      and\n      dup2\n      mstore\n      0x20\n      add\n      swap1\n      dup2\n      mstore\n      0x20\n      add\n      0x00\n      keccak256\n        /* \"contracts/BusinessConsensus2.sol\":7519:7587  Voters[_messageID].push(voter_maps[_messageID][keys[_messageID][i]]) */\n      swap1\n      dup1\n      0x01\n      dup2\n      sload\n      add\n      dup1\n      dup3\n      sstore\n      dup1\n      swap2\n      pop\n      pop\n      0x01\n      swap1\n      sub\n      swap1\n      0x00\n      mstore\n      keccak256(0x00, 0x20)\n      add\n      0x00\n      swap1\n      swap2\n      swap1\n      swap2\n      swap1\n      swap2\n      pop\n      0x00\n      dup3\n      add\n      0x00\n      swap1\n      sload\n      swap1\n      0x0100\n      exp\n      swap1\n      div\n      0xff\n      and\n      dup2\n      0x00\n      add\n      exp(0x0100, 0x00)\n      dup2\n      sload\n      dup2\n      0xff\n      mul\n      not\n      and\n      swap1\n      dup4\n      iszero\n      iszero\n      mul\n      or\n      swap1\n      sstore\n      pop\n      0x00\n      dup3\n      add\n      0x01\n      swap1\n      sload\n      swap1\n      0x0100\n      exp\n      swap1\n      div\n      0xff\n      and\n      dup2\n      0x00\n      add\n      exp(0x0100, 0x01)\n      dup2\n      sload\n      dup2\n      0xff\n      mul\n      not\n      and\n      swap1\n      dup4\n      iszero\n      iszero\n      mul\n      or\n      swap1\n      sstore\n      pop\n      0x00\n      dup3\n      add\n      0x02\n      swap1\n      sload\n      swap1\n      0x0100\n      exp\n      swap1\n      div\n      0xffffffffffffffffffffffffffffffffffffffff\n      and\n      dup2\n      0x00\n      add\n      exp(0x0100, 0x02)\n      dup2\n      sload\n      dup2\n      0xffffffffffffffffffffffffffffffffffffffff\n      mul\n      not\n      and\n      swap1\n      dup4\n      0xffffffffffffffffffffffffffffffffffffffff\n      and\n      mul\n      or\n      swap1\n      sstore\n      pop\n      pop\n      pop\n        /* \"contracts/BusinessConsensus2.sol\":7438:7603  if(voter_maps[_messageID][keys[_messageID][i]].voted == false){\r... */\n    tag_253:\n        /* \"contracts/BusinessConsensus2.sol\":7419:7422  i++ */\n      dup1\n      dup1\n      tag_261\n      swap1\n      tag_262\n      jump\t// in\n    tag_261:\n      swap2\n      pop\n      pop\n        /* \"contracts/BusinessConsensus2.sol\":7376:7614  for(uint8 i=0; i< keys[_messageID].length; i++){\r... */\n      jump(tag_243)\n    tag_244:\n      pop\n        /* \"contracts/BusinessConsensus2.sol\":7667:7671  true */\n      0x01\n        /* \"contracts/BusinessConsensus2.sol\":7624:7641  businessProposals */\n      0x00\n        /* \"contracts/BusinessConsensus2.sol\":7642:7652  _messageID */\n      dup5\n      dup5\n        /* \"contracts/BusinessConsensus2.sol\":7624:7653  businessProposals[_messageID] */\n      mload(0x40)\n      tag_263\n      swap3\n      swap2\n      swap1\n      tag_114\n      jump\t// in\n    tag_263:\n      swap1\n      dup2\n      mstore\n      0x20\n      add\n      mload(0x40)\n      dup1\n      swap2\n      sub\n      swap1\n      keccak256\n        /* \"contracts/BusinessConsensus2.sol\":7624:7664  businessProposals[_messageID].isCompiled */\n      0x07\n      add\n      0x00\n        /* \"contracts/BusinessConsensus2.sol\":7624:7671  businessProposals[_messageID].isCompiled = true */\n      0x0100\n      exp\n      dup2\n      sload\n      dup2\n      0xff\n      mul\n      not\n      and\n      swap1\n      dup4\n      iszero\n      iszero\n      mul\n      or\n      swap1\n      sstore\n      pop\n        /* \"contracts/BusinessConsensus2.sol\":6676:7679  {\r... */\n      pop\n        /* \"contracts/BusinessConsensus2.sol\":6620:7679  function Consensus(string calldata _messageID) external {\r... */\n      pop\n      pop\n      jump\t// out\n        /* \"contracts/BusinessConsensus2.sol\":1106:1144  mapping(string=>Voter[]) public Voters */\n    tag_71:\n      0x02\n      dup3\n      dup1\n      mload\n      0x20\n      dup2\n      add\n      dup3\n      add\n      dup1\n      mload\n      dup5\n      dup3\n      mstore\n      0x20\n      dup4\n      add\n      0x20\n      dup6\n      add\n      keccak256\n      dup2\n      dup4\n      mstore\n      dup1\n      swap6\n      pop\n      pop\n      pop\n      pop\n      pop\n      pop\n      dup2\n      dup2\n      sload\n      dup2\n      lt\n      tag_264\n      jumpi\n      0x00\n      dup1\n      revert\n    tag_264:\n      swap1\n      0x00\n      mstore\n      keccak256(0x00, 0x20)\n      add\n      0x00\n      swap2\n      pop\n      swap2\n      pop\n      pop\n      dup1\n      0x00\n      add\n      0x00\n      swap1\n      sload\n      swap1\n      0x0100\n      exp\n      swap1\n      div\n      0xff\n      and\n      swap1\n      dup1\n      0x00\n      add\n      0x01\n      swap1\n      sload\n      swap1\n      0x0100\n      exp\n      swap1\n      div\n      0xff\n      and\n      swap1\n      dup1\n      0x00\n      add\n      0x02\n      swap1\n      sload\n      swap1\n      0x0100\n      exp\n      swap1\n      div\n      0xffffffffffffffffffffffffffffffffffffffff\n      and\n      swap1\n      pop\n      dup4\n      jump\t// out\n        /* \"contracts/BusinessConsensus2.sol\":2550:3466  function checkConsistency(string memory _subject, uint256 _businessRequirement, uint256 _expiry, bytes32 _contents) public view returns(bool, bool, bool){\r... */\n    tag_76:\n        /* \"contracts/BusinessConsensus2.sol\":2686:2690  bool */\n      0x00\n        /* \"contracts/BusinessConsensus2.sol\":2692:2696  bool */\n      dup1\n        /* \"contracts/BusinessConsensus2.sol\":2698:2702  bool */\n      0x00\n        /* \"contracts/BusinessConsensus2.sol\":2736:2753  businessProposals */\n      dup1\n        /* \"contracts/BusinessConsensus2.sol\":2754:2762  _subject */\n      dup8\n        /* \"contracts/BusinessConsensus2.sol\":2736:2763  businessProposals[_subject] */\n      mload(0x40)\n      tag_267\n      swap2\n      swap1\n      tag_202\n      jump\t// in\n    tag_267:\n      swap1\n      dup2\n      mstore\n      0x20\n      add\n      mload(0x40)\n      dup1\n      swap2\n      sub\n      swap1\n      keccak256\n        /* \"contracts/BusinessConsensus2.sol\":2736:2773  businessProposals[_subject].initiator */\n      0x01\n      add\n      0x00\n      swap1\n      sload\n      swap1\n      0x0100\n      exp\n      swap1\n      div\n      0xffffffffffffffffffffffffffffffffffffffff\n      and\n        /* \"contracts/BusinessConsensus2.sol\":2722:2773  msg.sender == businessProposals[_subject].initiator */\n      0xffffffffffffffffffffffffffffffffffffffff\n      and\n        /* \"contracts/BusinessConsensus2.sol\":2722:2732  msg.sender */\n      caller\n        /* \"contracts/BusinessConsensus2.sol\":2722:2773  msg.sender == businessProposals[_subject].initiator */\n      0xffffffffffffffffffffffffffffffffffffffff\n      and\n      eq\n        /* \"contracts/BusinessConsensus2.sol\":2714:2798  require(msg.sender == businessProposals[_subject].initiator, \"You aren't Initiator\") */\n      tag_268\n      jumpi\n      mload(0x40)\n      0x08c379a000000000000000000000000000000000000000000000000000000000\n      dup2\n      mstore\n      0x04\n      add\n      tag_269\n      swap1\n      tag_270\n      jump\t// in\n    tag_269:\n      mload(0x40)\n      dup1\n      swap2\n      sub\n      swap1\n      revert\n    tag_268:\n        /* \"contracts/BusinessConsensus2.sol\":2809:2820  bool value1 */\n      0x00\n        /* \"contracts/BusinessConsensus2.sol\":2823:2827  true */\n      0x01\n        /* \"contracts/BusinessConsensus2.sol\":2809:2827  bool value1 = true */\n      swap1\n      pop\n        /* \"contracts/BusinessConsensus2.sol\":2838:2849  bool value2 */\n      0x00\n        /* \"contracts/BusinessConsensus2.sol\":2852:2856  true */\n      0x01\n        /* \"contracts/BusinessConsensus2.sol\":2838:2856  bool value2 = true */\n      swap1\n      pop\n        /* \"contracts/BusinessConsensus2.sol\":2867:2878  bool value3 */\n      0x00\n        /* \"contracts/BusinessConsensus2.sol\":2881:2885  true */\n      0x01\n        /* \"contracts/BusinessConsensus2.sol\":2867:2885  bool value3 = true */\n      swap1\n      pop\n        /* \"contracts/BusinessConsensus2.sol\":2948:2949  0 */\n      0x00\n        /* \"contracts/BusinessConsensus2.sol\":2899:2950  businessProposals[_subject].initiator == address(0) */\n      0xffffffffffffffffffffffffffffffffffffffff\n      and\n        /* \"contracts/BusinessConsensus2.sol\":2899:2916  businessProposals */\n      0x00\n        /* \"contracts/BusinessConsensus2.sol\":2917:2925  _subject */\n      dup12\n        /* \"contracts/BusinessConsensus2.sol\":2899:2926  businessProposals[_subject] */\n      mload(0x40)\n      tag_271\n      swap2\n      swap1\n      tag_202\n      jump\t// in\n    tag_271:\n      swap1\n      dup2\n      mstore\n      0x20\n      add\n      mload(0x40)\n      dup1\n      swap2\n      sub\n      swap1\n      keccak256\n        /* \"contracts/BusinessConsensus2.sol\":2899:2936  businessProposals[_subject].initiator */\n      0x01\n      add\n      0x00\n      swap1\n      sload\n      swap1\n      0x0100\n      exp\n      swap1\n      div\n      0xffffffffffffffffffffffffffffffffffffffff\n      and\n        /* \"contracts/BusinessConsensus2.sol\":2899:2950  businessProposals[_subject].initiator == address(0) */\n      0xffffffffffffffffffffffffffffffffffffffff\n      and\n      eq\n        /* \"contracts/BusinessConsensus2.sol\":2896:3459  if(businessProposals[_subject].initiator == address(0)){\r... */\n      iszero\n      tag_272\n      jumpi\n        /* \"contracts/BusinessConsensus2.sol\":2974:2978  true */\n      0x01\n        /* \"contracts/BusinessConsensus2.sol\":2980:2984  true */\n      dup1\n        /* \"contracts/BusinessConsensus2.sol\":2986:2990  true */\n      0x01\n        /* \"contracts/BusinessConsensus2.sol\":2966:2991  return (true, true, true) */\n      swap6\n      pop\n      swap6\n      pop\n      swap6\n      pop\n      pop\n      pop\n      pop\n      jump(tag_266)\n        /* \"contracts/BusinessConsensus2.sol\":2896:3459  if(businessProposals[_subject].initiator == address(0)){\r... */\n    tag_272:\n        /* \"contracts/BusinessConsensus2.sol\":3059:3076  businessProposals */\n      0x00\n        /* \"contracts/BusinessConsensus2.sol\":3077:3085  _subject */\n      dup11\n        /* \"contracts/BusinessConsensus2.sol\":3059:3086  businessProposals[_subject] */\n      mload(0x40)\n      tag_274\n      swap2\n      swap1\n      tag_202\n      jump\t// in\n    tag_274:\n      swap1\n      dup2\n      mstore\n      0x20\n      add\n      mload(0x40)\n      dup1\n      swap2\n      sub\n      swap1\n      keccak256\n        /* \"contracts/BusinessConsensus2.sol\":3059:3106  businessProposals[_subject].BusinessRequirement */\n      0x05\n      add\n      sload\n        /* \"contracts/BusinessConsensus2.sol\":3035:3055  _businessRequirement */\n      dup10\n        /* \"contracts/BusinessConsensus2.sol\":3035:3106  _businessRequirement != businessProposals[_subject].BusinessRequirement */\n      eq\n        /* \"contracts/BusinessConsensus2.sol\":3032:3156  if(_businessRequirement != businessProposals[_subject].BusinessRequirement){\r... */\n      tag_275\n      jumpi\n        /* \"contracts/BusinessConsensus2.sol\":3135:3140  false */\n      0x00\n        /* \"contracts/BusinessConsensus2.sol\":3126:3140  value1 = false */\n      swap3\n      pop\n        /* \"contracts/BusinessConsensus2.sol\":3032:3156  if(_businessRequirement != businessProposals[_subject].BusinessRequirement){\r... */\n    tag_275:\n        /* \"contracts/BusinessConsensus2.sol\":3186:3203  businessProposals */\n      0x00\n        /* \"contracts/BusinessConsensus2.sol\":3204:3212  _subject */\n      dup11\n        /* \"contracts/BusinessConsensus2.sol\":3186:3213  businessProposals[_subject] */\n      mload(0x40)\n      tag_276\n      swap2\n      swap1\n      tag_202\n      jump\t// in\n    tag_276:\n      swap1\n      dup2\n      mstore\n      0x20\n      add\n      mload(0x40)\n      dup1\n      swap2\n      sub\n      swap1\n      keccak256\n        /* \"contracts/BusinessConsensus2.sol\":3186:3222  businessProposals[_subject].contents */\n      0x0b\n      add\n      sload\n        /* \"contracts/BusinessConsensus2.sol\":3173:3182  _contents */\n      dup8\n        /* \"contracts/BusinessConsensus2.sol\":3173:3222  _contents != businessProposals[_subject].contents */\n      eq\n        /* \"contracts/BusinessConsensus2.sol\":3170:3272  if(_contents != businessProposals[_subject].contents){\r... */\n      tag_277\n      jumpi\n        /* \"contracts/BusinessConsensus2.sol\":3251:3256  false */\n      0x00\n        /* \"contracts/BusinessConsensus2.sol\":3242:3256  value2 = false */\n      swap2\n      pop\n        /* \"contracts/BusinessConsensus2.sol\":3170:3272  if(_contents != businessProposals[_subject].contents){\r... */\n    tag_277:\n        /* \"contracts/BusinessConsensus2.sol\":3350:3357  _expiry */\n      dup8\n        /* \"contracts/BusinessConsensus2.sol\":3332:3347  block.timestamp */\n      timestamp\n        /* \"contracts/BusinessConsensus2.sol\":3332:3357  block.timestamp + _expiry */\n      tag_278\n      swap2\n      swap1\n      tag_131\n      jump\t// in\n    tag_278:\n        /* \"contracts/BusinessConsensus2.sol\":3289:3306  businessProposals */\n      0x00\n        /* \"contracts/BusinessConsensus2.sol\":3307:3315  _subject */\n      dup12\n        /* \"contracts/BusinessConsensus2.sol\":3289:3316  businessProposals[_subject] */\n      mload(0x40)\n      tag_279\n      swap2\n      swap1\n      tag_202\n      jump\t// in\n    tag_279:\n      swap1\n      dup2\n      mstore\n      0x20\n      add\n      mload(0x40)\n      dup1\n      swap2\n      sub\n      swap1\n      keccak256\n        /* \"contracts/BusinessConsensus2.sol\":3289:3327  businessProposals[_subject].expiryDate */\n      0x04\n      add\n      sload\n        /* \"contracts/BusinessConsensus2.sol\":3289:3358  businessProposals[_subject].expiryDate != (block.timestamp + _expiry) */\n      eq\n        /* \"contracts/BusinessConsensus2.sol\":3286:3408  if(businessProposals[_subject].expiryDate != (block.timestamp + _expiry)){\r... */\n      tag_280\n      jumpi\n        /* \"contracts/BusinessConsensus2.sol\":3387:3392  false */\n      0x00\n        /* \"contracts/BusinessConsensus2.sol\":3378:3392  value3 = false */\n      swap1\n      pop\n        /* \"contracts/BusinessConsensus2.sol\":3286:3408  if(businessProposals[_subject].expiryDate != (block.timestamp + _expiry)){\r... */\n    tag_280:\n        /* \"contracts/BusinessConsensus2.sol\":3426:3432  value1 */\n      dup3\n        /* \"contracts/BusinessConsensus2.sol\":3433:3439  value2 */\n      dup3\n        /* \"contracts/BusinessConsensus2.sol\":3440:3446  value3 */\n      dup3\n        /* \"contracts/BusinessConsensus2.sol\":3418:3447  return (value1,value2,value3) */\n      swap6\n      pop\n      swap6\n      pop\n      swap6\n      pop\n      pop\n      pop\n      pop\n        /* \"contracts/BusinessConsensus2.sol\":2550:3466  function checkConsistency(string memory _subject, uint256 _businessRequirement, uint256 _expiry, bytes32 _contents) public view returns(bool, bool, bool){\r... */\n    tag_266:\n      swap5\n      pop\n      swap5\n      pop\n      swap5\n      swap2\n      pop\n      pop\n      jump\t// out\n        /* \"contracts/BusinessConsensus2.sol\":2248:2395  function getValues(string calldata _messageID) public view returns (string memory){\r... */\n    tag_81:\n        /* \"contracts/BusinessConsensus2.sol\":2316:2329  string memory */\n      0x60\n        /* \"contracts/BusinessConsensus2.sol\":2348:2365  businessProposals */\n      0x00\n        /* \"contracts/BusinessConsensus2.sol\":2366:2376  _messageID */\n      dup4\n      dup4\n        /* \"contracts/BusinessConsensus2.sol\":2348:2377  businessProposals[_messageID] */\n      mload(0x40)\n      tag_282\n      swap3\n      swap2\n      swap1\n      tag_114\n      jump\t// in\n    tag_282:\n      swap1\n      dup2\n      mstore\n      0x20\n      add\n      mload(0x40)\n      dup1\n      swap2\n      sub\n      swap1\n      keccak256\n        /* \"contracts/BusinessConsensus2.sol\":2348:2387  businessProposals[_messageID].messageID */\n      0x00\n      add\n        /* \"contracts/BusinessConsensus2.sol\":2341:2387  return businessProposals[_messageID].messageID */\n      dup1\n      sload\n      tag_283\n      swap1\n      tag_97\n      jump\t// in\n    tag_283:\n      dup1\n      0x1f\n      add\n      0x20\n      dup1\n      swap2\n      div\n      mul\n      0x20\n      add\n      mload(0x40)\n      swap1\n      dup2\n      add\n      0x40\n      mstore\n      dup1\n      swap3\n      swap2\n      swap1\n      dup2\n      dup2\n      mstore\n      0x20\n      add\n      dup3\n      dup1\n      sload\n      tag_284\n      swap1\n      tag_97\n      jump\t// in\n    tag_284:\n      dup1\n      iszero\n      tag_285\n      jumpi\n      dup1\n      0x1f\n      lt\n      tag_286\n      jumpi\n      0x0100\n      dup1\n      dup4\n      sload\n      div\n      mul\n      dup4\n      mstore\n      swap2\n      0x20\n      add\n      swap2\n      jump(tag_285)\n    tag_286:\n      dup3\n      add\n      swap2\n      swap1\n      0x00\n      mstore\n      keccak256(0x00, 0x20)\n      swap1\n    tag_287:\n      dup2\n      sload\n      dup2\n      mstore\n      swap1\n      0x01\n      add\n      swap1\n      0x20\n      add\n      dup1\n      dup4\n      gt\n      tag_287\n      jumpi\n      dup3\n      swap1\n      sub\n      0x1f\n      and\n      dup3\n      add\n      swap2\n    tag_285:\n      pop\n      pop\n      pop\n      pop\n      pop\n      swap1\n      pop\n        /* \"contracts/BusinessConsensus2.sol\":2248:2395  function getValues(string calldata _messageID) public view returns (string memory){\r... */\n      swap3\n      swap2\n      pop\n      pop\n      jump\t// out\n        /* \"contracts/BusinessConsensus2.sol\":3472:3608  function getIsCreated(string calldata subject) public view returns (Proposal memory){\r... */\n    tag_86:\n        /* \"contracts/BusinessConsensus2.sol\":3540:3555  Proposal memory */\n      tag_288\n      tag_289\n      jump\t// in\n    tag_288:\n        /* \"contracts/BusinessConsensus2.sol\":3574:3591  businessProposals */\n      0x00\n        /* \"contracts/BusinessConsensus2.sol\":3592:3599  subject */\n      dup4\n      dup4\n        /* \"contracts/BusinessConsensus2.sol\":3574:3600  businessProposals[subject] */\n      mload(0x40)\n      tag_291\n      swap3\n      swap2\n      swap1\n      tag_114\n      jump\t// in\n    tag_291:\n      swap1\n      dup2\n      mstore\n      0x20\n      add\n      mload(0x40)\n      dup1\n      swap2\n      sub\n      swap1\n      keccak256\n        /* \"contracts/BusinessConsensus2.sol\":3567:3600  return businessProposals[subject] */\n      mload(0x40)\n      dup1\n      0x0180\n      add\n      0x40\n      mstore\n      swap1\n      dup2\n      0x00\n      dup3\n      add\n      dup1\n      sload\n      tag_292\n      swap1\n      tag_97\n      jump\t// in\n    tag_292:\n      dup1\n      0x1f\n      add\n      0x20\n      dup1\n      swap2\n      div\n      mul\n      0x20\n      add\n      mload(0x40)\n      swap1\n      dup2\n      add\n      0x40\n      mstore\n      dup1\n      swap3\n      swap2\n      swap1\n      dup2\n      dup2\n      mstore\n      0x20\n      add\n      dup3\n      dup1\n      sload\n      tag_293\n      swap1\n      tag_97\n      jump\t// in\n    tag_293:\n      dup1\n      iszero\n      tag_294\n      jumpi\n      dup1\n      0x1f\n      lt\n      tag_295\n      jumpi\n      0x0100\n      dup1\n      dup4\n      sload\n      div\n      mul\n      dup4\n      mstore\n      swap2\n      0x20\n      add\n      swap2\n      jump(tag_294)\n    tag_295:\n      dup3\n      add\n      swap2\n      swap1\n      0x00\n      mstore\n      keccak256(0x00, 0x20)\n      swap1\n    tag_296:\n      dup2\n      sload\n      dup2\n      mstore\n      swap1\n      0x01\n      add\n      swap1\n      0x20\n      add\n      dup1\n      dup4\n      gt\n      tag_296\n      jumpi\n      dup3\n      swap1\n      sub\n      0x1f\n      and\n      dup3\n      add\n      swap2\n    tag_294:\n      pop\n      pop\n      pop\n      pop\n      pop\n      dup2\n      mstore\n      0x20\n      add\n      0x01\n      dup3\n      add\n      0x00\n      swap1\n      sload\n      swap1\n      0x0100\n      exp\n      swap1\n      div\n      0xffffffffffffffffffffffffffffffffffffffff\n      and\n      0xffffffffffffffffffffffffffffffffffffffff\n      and\n      0xffffffffffffffffffffffffffffffffffffffff\n      and\n      dup2\n      mstore\n      0x20\n      add\n      0x02\n      dup3\n      add\n      0x00\n      swap1\n      sload\n      swap1\n      0x0100\n      exp\n      swap1\n      div\n      0xffffffffffffffffffffffffffffffffffffffff\n      and\n      0xffffffffffffffffffffffffffffffffffffffff\n      and\n      0xffffffffffffffffffffffffffffffffffffffff\n      and\n      dup2\n      mstore\n      0x20\n      add\n      0x03\n      dup3\n      add\n      sload\n      dup2\n      mstore\n      0x20\n      add\n      0x04\n      dup3\n      add\n      sload\n      dup2\n      mstore\n      0x20\n      add\n      0x05\n      dup3\n      add\n      sload\n      dup2\n      mstore\n      0x20\n      add\n      0x06\n      dup3\n      add\n      sload\n      dup2\n      mstore\n      0x20\n      add\n      0x07\n      dup3\n      add\n      0x00\n      swap1\n      sload\n      swap1\n      0x0100\n      exp\n      swap1\n      div\n      0xff\n      and\n      iszero\n      iszero\n      iszero\n      iszero\n      dup2\n      mstore\n      0x20\n      add\n      0x08\n      dup3\n      add\n      sload\n      dup2\n      mstore\n      0x20\n      add\n      0x09\n      dup3\n      add\n      dup1\n      sload\n      tag_297\n      swap1\n      tag_97\n      jump\t// in\n    tag_297:\n      dup1\n      0x1f\n      add\n      0x20\n      dup1\n      swap2\n      div\n      mul\n      0x20\n      add\n      mload(0x40)\n      swap1\n      dup2\n      add\n      0x40\n      mstore\n      dup1\n      swap3\n      swap2\n      swap1\n      dup2\n      dup2\n      mstore\n      0x20\n      add\n      dup3\n      dup1\n      sload\n      tag_298\n      swap1\n      tag_97\n      jump\t// in\n    tag_298:\n      dup1\n      iszero\n      tag_299\n      jumpi\n      dup1\n      0x1f\n      lt\n      tag_300\n      jumpi\n      0x0100\n      dup1\n      dup4\n      sload\n      div\n      mul\n      dup4\n      mstore\n      swap2\n      0x20\n      add\n      swap2\n      jump(tag_299)\n    tag_300:\n      dup3\n      add\n      swap2\n      swap1\n      0x00\n      mstore\n      keccak256(0x00, 0x20)\n      swap1\n    tag_301:\n      dup2\n      sload\n      dup2\n      mstore\n      swap1\n      0x01\n      add\n      swap1\n      0x20\n      add\n      dup1\n      dup4\n      gt\n      tag_301\n      jumpi\n      dup3\n      swap1\n      sub\n      0x1f\n      and\n      dup3\n      add\n      swap2\n    tag_299:\n      pop\n      pop\n      pop\n      pop\n      pop\n      dup2\n      mstore\n      0x20\n      add\n      0x0a\n      dup3\n      add\n      dup1\n      sload\n      tag_302\n      swap1\n      tag_97\n      jump\t// in\n    tag_302:\n      dup1\n      0x1f\n      add\n      0x20\n      dup1\n      swap2\n      div\n      mul\n      0x20\n      add\n      mload(0x40)\n      swap1\n      dup2\n      add\n      0x40\n      mstore\n      dup1\n      swap3\n      swap2\n      swap1\n      dup2\n      dup2\n      mstore\n      0x20\n      add\n      dup3\n      dup1\n      sload\n      tag_303\n      swap1\n      tag_97\n      jump\t// in\n    tag_303:\n      dup1\n      iszero\n      tag_304\n      jumpi\n      dup1\n      0x1f\n      lt\n      tag_305\n      jumpi\n      0x0100\n      dup1\n      dup4\n      sload\n      div\n      mul\n      dup4\n      mstore\n      swap2\n      0x20\n      add\n      swap2\n      jump(tag_304)\n    tag_305:\n      dup3\n      add\n      swap2\n      swap1\n      0x00\n      mstore\n      keccak256(0x00, 0x20)\n      swap1\n    tag_306:\n      dup2\n      sload\n      dup2\n      mstore\n      swap1\n      0x01\n      add\n      swap1\n      0x20\n      add\n      dup1\n      dup4\n      gt\n      tag_306\n      jumpi\n      dup3\n      swap1\n      sub\n      0x1f\n      and\n      dup3\n      add\n      swap2\n    tag_304:\n      pop\n      pop\n      pop\n      pop\n      pop\n      dup2\n      mstore\n      0x20\n      add\n      0x0b\n      dup3\n      add\n      sload\n      dup2\n      mstore\n      pop\n      pop\n      swap1\n      pop\n        /* \"contracts/BusinessConsensus2.sol\":3472:3608  function getIsCreated(string calldata subject) public view returns (Proposal memory){\r... */\n      swap3\n      swap2\n      pop\n      pop\n      jump\t// out\n        /* \"contracts/BusinessConsensus2.sol\":2401:2544  function getIsCompiled(string calldata _messageID) public view returns (bool){\r... */\n    tag_91:\n        /* \"contracts/BusinessConsensus2.sol\":2473:2477  bool */\n      0x00\n        /* \"contracts/BusinessConsensus2.sol\":2496:2513  businessProposals */\n      dup1\n        /* \"contracts/BusinessConsensus2.sol\":2514:2524  _messageID */\n      dup4\n      dup4\n        /* \"contracts/BusinessConsensus2.sol\":2496:2525  businessProposals[_messageID] */\n      mload(0x40)\n      tag_308\n      swap3\n      swap2\n      swap1\n      tag_114\n      jump\t// in\n    tag_308:\n      swap1\n      dup2\n      mstore\n      0x20\n      add\n      mload(0x40)\n      dup1\n      swap2\n      sub\n      swap1\n      keccak256\n        /* \"contracts/BusinessConsensus2.sol\":2496:2536  businessProposals[_messageID].isCompiled */\n      0x07\n      add\n      0x00\n      swap1\n      sload\n      swap1\n      0x0100\n      exp\n      swap1\n      div\n      0xff\n      and\n        /* \"contracts/BusinessConsensus2.sol\":2489:2536  return businessProposals[_messageID].isCompiled */\n      swap1\n      pop\n        /* \"contracts/BusinessConsensus2.sol\":2401:2544  function getIsCompiled(string calldata _messageID) public view returns (bool){\r... */\n      swap3\n      swap2\n      pop\n      pop\n      jump\t// out\n    tag_209:\n      dup3\n      dup1\n      sload\n      tag_309\n      swap1\n      tag_97\n      jump\t// in\n    tag_309:\n      swap1\n      0x00\n      mstore\n      keccak256(0x00, 0x20)\n      swap1\n      0x1f\n      add\n      0x20\n      swap1\n      div\n      dup2\n      add\n      swap3\n      dup3\n      tag_311\n      jumpi\n      0x00\n      dup6\n      sstore\n      jump(tag_310)\n    tag_311:\n      dup3\n      0x1f\n      lt\n      tag_312\n      jumpi\n      dup1\n      mload\n      not(0xff)\n      and\n      dup4\n      dup1\n      add\n      or\n      dup6\n      sstore\n      jump(tag_310)\n    tag_312:\n      dup3\n      dup1\n      add\n      0x01\n      add\n      dup6\n      sstore\n      dup3\n      iszero\n      tag_310\n      jumpi\n      swap2\n      dup3\n      add\n    tag_313:\n      dup3\n      dup2\n      gt\n      iszero\n      tag_314\n      jumpi\n      dup3\n      mload\n      dup3\n      sstore\n      swap2\n      0x20\n      add\n      swap2\n      swap1\n      0x01\n      add\n      swap1\n      jump(tag_313)\n    tag_314:\n    tag_310:\n      pop\n      swap1\n      pop\n      tag_315\n      swap2\n      swap1\n      tag_316\n      jump\t// in\n    tag_315:\n      pop\n      swap1\n      jump\t// out\n    tag_289:\n      mload(0x40)\n      dup1\n      0x0180\n      add\n      0x40\n      mstore\n      dup1\n      0x60\n      dup2\n      mstore\n      0x20\n      add\n      and(0xffffffffffffffffffffffffffffffffffffffff, 0x00)\n      dup2\n      mstore\n      0x20\n      add\n      and(0xffffffffffffffffffffffffffffffffffffffff, 0x00)\n      dup2\n      mstore\n      0x20\n      add\n      0x00\n      dup2\n      mstore\n      0x20\n      add\n      0x00\n      dup2\n      mstore\n      0x20\n      add\n      0x00\n      dup2\n      mstore\n      0x20\n      add\n      0x00\n      dup2\n      mstore\n      0x20\n      add\n      iszero(iszero(0x00))\n      dup2\n      mstore\n      0x20\n      add\n      0x00\n      dup1\n      not\n      and\n      dup2\n      mstore\n      0x20\n      add\n      0x60\n      dup2\n      mstore\n      0x20\n      add\n      0x60\n      dup2\n      mstore\n      0x20\n      add\n      0x00\n      dup1\n      not\n      and\n      dup2\n      mstore\n      pop\n      swap1\n      jump\t// out\n    tag_316:\n    tag_317:\n      dup1\n      dup3\n      gt\n      iszero\n      tag_318\n      jumpi\n      0x00\n      dup2\n      0x00\n      swap1\n      sstore\n      pop\n      0x01\n      add\n      jump(tag_317)\n    tag_318:\n      pop\n      swap1\n      jump\t// out\n        /* \"#utility.yul\":7:419   */\n    tag_320:\n        /* \"#utility.yul\":85:90   */\n      0x00\n        /* \"#utility.yul\":110:176   */\n      tag_322\n        /* \"#utility.yul\":126:175   */\n      tag_323\n        /* \"#utility.yul\":168:174   */\n      dup5\n        /* \"#utility.yul\":126:175   */\n      tag_324\n      jump\t// in\n    tag_323:\n        /* \"#utility.yul\":110:176   */\n      tag_325\n      jump\t// in\n    tag_322:\n        /* \"#utility.yul\":101:176   */\n      swap1\n      pop\n        /* \"#utility.yul\":199:205   */\n      dup3\n        /* \"#utility.yul\":192:197   */\n      dup2\n        /* \"#utility.yul\":185:206   */\n      mstore\n        /* \"#utility.yul\":237:241   */\n      0x20\n        /* \"#utility.yul\":230:235   */\n      dup2\n        /* \"#utility.yul\":226:242   */\n      add\n        /* \"#utility.yul\":275:278   */\n      dup5\n        /* \"#utility.yul\":266:272   */\n      dup5\n        /* \"#utility.yul\":261:264   */\n      dup5\n        /* \"#utility.yul\":257:273   */\n      add\n        /* \"#utility.yul\":254:279   */\n      gt\n        /* \"#utility.yul\":251:363   */\n      iszero\n      tag_326\n      jumpi\n        /* \"#utility.yul\":282:361   */\n      tag_327\n      tag_328\n      jump\t// in\n    tag_327:\n        /* \"#utility.yul\":251:363   */\n    tag_326:\n        /* \"#utility.yul\":372:413   */\n      tag_329\n        /* \"#utility.yul\":406:412   */\n      dup5\n        /* \"#utility.yul\":401:404   */\n      dup3\n        /* \"#utility.yul\":396:399   */\n      dup6\n        /* \"#utility.yul\":372:413   */\n      tag_330\n      jump\t// in\n    tag_329:\n        /* \"#utility.yul\":91:419   */\n      pop\n        /* \"#utility.yul\":7:419   */\n      swap4\n      swap3\n      pop\n      pop\n      pop\n      jump\t// out\n        /* \"#utility.yul\":425:564   */\n    tag_331:\n        /* \"#utility.yul\":471:476   */\n      0x00\n        /* \"#utility.yul\":509:515   */\n      dup2\n        /* \"#utility.yul\":496:516   */\n      calldataload\n        /* \"#utility.yul\":487:516   */\n      swap1\n      pop\n        /* \"#utility.yul\":525:558   */\n      tag_333\n        /* \"#utility.yul\":552:557   */\n      dup2\n        /* \"#utility.yul\":525:558   */\n      tag_334\n      jump\t// in\n    tag_333:\n        /* \"#utility.yul\":425:564   */\n      swap3\n      swap2\n      pop\n      pop\n      jump\t// out\n        /* \"#utility.yul\":570:709   */\n    tag_335:\n        /* \"#utility.yul\":616:621   */\n      0x00\n        /* \"#utility.yul\":654:660   */\n      dup2\n        /* \"#utility.yul\":641:661   */\n      calldataload\n        /* \"#utility.yul\":632:661   */\n      swap1\n      pop\n        /* \"#utility.yul\":670:703   */\n      tag_337\n        /* \"#utility.yul\":697:702   */\n      dup2\n        /* \"#utility.yul\":670:703   */\n      tag_338\n      jump\t// in\n    tag_337:\n        /* \"#utility.yul\":570:709   */\n      swap3\n      swap2\n      pop\n      pop\n      jump\t// out\n        /* \"#utility.yul\":729:1282   */\n    tag_339:\n        /* \"#utility.yul\":787:795   */\n      0x00\n        /* \"#utility.yul\":797:803   */\n      dup1\n        /* \"#utility.yul\":847:850   */\n      dup4\n        /* \"#utility.yul\":840:844   */\n      0x1f\n        /* \"#utility.yul\":832:838   */\n      dup5\n        /* \"#utility.yul\":828:845   */\n      add\n        /* \"#utility.yul\":824:851   */\n      slt\n        /* \"#utility.yul\":814:936   */\n      tag_341\n      jumpi\n        /* \"#utility.yul\":855:934   */\n      tag_342\n      tag_343\n      jump\t// in\n    tag_342:\n        /* \"#utility.yul\":814:936   */\n    tag_341:\n        /* \"#utility.yul\":968:974   */\n      dup3\n        /* \"#utility.yul\":955:975   */\n      calldataload\n        /* \"#utility.yul\":945:975   */\n      swap1\n      pop\n        /* \"#utility.yul\":998:1016   */\n      0xffffffffffffffff\n        /* \"#utility.yul\":990:996   */\n      dup2\n        /* \"#utility.yul\":987:1017   */\n      gt\n        /* \"#utility.yul\":984:1101   */\n      iszero\n      tag_344\n      jumpi\n        /* \"#utility.yul\":1020:1099   */\n      tag_345\n      tag_346\n      jump\t// in\n    tag_345:\n        /* \"#utility.yul\":984:1101   */\n    tag_344:\n        /* \"#utility.yul\":1134:1138   */\n      0x20\n        /* \"#utility.yul\":1126:1132   */\n      dup4\n        /* \"#utility.yul\":1122:1139   */\n      add\n        /* \"#utility.yul\":1110:1139   */\n      swap2\n      pop\n        /* \"#utility.yul\":1188:1191   */\n      dup4\n        /* \"#utility.yul\":1180:1184   */\n      0x01\n        /* \"#utility.yul\":1172:1178   */\n      dup3\n        /* \"#utility.yul\":1168:1185   */\n      mul\n        /* \"#utility.yul\":1158:1166   */\n      dup4\n        /* \"#utility.yul\":1154:1186   */\n      add\n        /* \"#utility.yul\":1151:1192   */\n      gt\n        /* \"#utility.yul\":1148:1276   */\n      iszero\n      tag_347\n      jumpi\n        /* \"#utility.yul\":1195:1274   */\n      tag_348\n      tag_349\n      jump\t// in\n    tag_348:\n        /* \"#utility.yul\":1148:1276   */\n    tag_347:\n        /* \"#utility.yul\":729:1282   */\n      swap3\n      pop\n      swap3\n      swap1\n      pop\n      jump\t// out\n        /* \"#utility.yul\":1302:1642   */\n    tag_350:\n        /* \"#utility.yul\":1358:1363   */\n      0x00\n        /* \"#utility.yul\":1407:1410   */\n      dup3\n        /* \"#utility.yul\":1400:1404   */\n      0x1f\n        /* \"#utility.yul\":1392:1398   */\n      dup4\n        /* \"#utility.yul\":1388:1405   */\n      add\n        /* \"#utility.yul\":1384:1411   */\n      slt\n        /* \"#utility.yul\":1374:1496   */\n      tag_352\n      jumpi\n        /* \"#utility.yul\":1415:1494   */\n      tag_353\n      tag_343\n      jump\t// in\n    tag_353:\n        /* \"#utility.yul\":1374:1496   */\n    tag_352:\n        /* \"#utility.yul\":1532:1538   */\n      dup2\n        /* \"#utility.yul\":1519:1539   */\n      calldataload\n        /* \"#utility.yul\":1557:1636   */\n      tag_354\n        /* \"#utility.yul\":1632:1635   */\n      dup5\n        /* \"#utility.yul\":1624:1630   */\n      dup3\n        /* \"#utility.yul\":1617:1621   */\n      0x20\n        /* \"#utility.yul\":1609:1615   */\n      dup7\n        /* \"#utility.yul\":1605:1622   */\n      add\n        /* \"#utility.yul\":1557:1636   */\n      tag_320\n      jump\t// in\n    tag_354:\n        /* \"#utility.yul\":1548:1636   */\n      swap2\n      pop\n        /* \"#utility.yul\":1364:1642   */\n      pop\n        /* \"#utility.yul\":1302:1642   */\n      swap3\n      swap2\n      pop\n      pop\n      jump\t// out\n        /* \"#utility.yul\":1648:1787   */\n    tag_355:\n        /* \"#utility.yul\":1694:1699   */\n      0x00\n        /* \"#utility.yul\":1732:1738   */\n      dup2\n        /* \"#utility.yul\":1719:1739   */\n      calldataload\n        /* \"#utility.yul\":1710:1739   */\n      swap1\n      pop\n        /* \"#utility.yul\":1748:1781   */\n      tag_357\n        /* \"#utility.yul\":1775:1780   */\n      dup2\n        /* \"#utility.yul\":1748:1781   */\n      tag_358\n      jump\t// in\n    tag_357:\n        /* \"#utility.yul\":1648:1787   */\n      swap3\n      swap2\n      pop\n      pop\n      jump\t// out\n        /* \"#utility.yul\":1793:2467   */\n    tag_51:\n        /* \"#utility.yul\":1873:1879   */\n      0x00\n        /* \"#utility.yul\":1881:1887   */\n      dup1\n        /* \"#utility.yul\":1889:1895   */\n      0x00\n        /* \"#utility.yul\":1938:1940   */\n      0x40\n        /* \"#utility.yul\":1926:1935   */\n      dup5\n        /* \"#utility.yul\":1917:1924   */\n      dup7\n        /* \"#utility.yul\":1913:1936   */\n      sub\n        /* \"#utility.yul\":1909:1941   */\n      slt\n        /* \"#utility.yul\":1906:2025   */\n      iszero\n      tag_360\n      jumpi\n        /* \"#utility.yul\":1944:2023   */\n      tag_361\n      tag_362\n      jump\t// in\n    tag_361:\n        /* \"#utility.yul\":1906:2025   */\n    tag_360:\n        /* \"#utility.yul\":2064:2065   */\n      0x00\n        /* \"#utility.yul\":2089:2142   */\n      tag_363\n        /* \"#utility.yul\":2134:2141   */\n      dup7\n        /* \"#utility.yul\":2125:2131   */\n      dup3\n        /* \"#utility.yul\":2114:2123   */\n      dup8\n        /* \"#utility.yul\":2110:2132   */\n      add\n        /* \"#utility.yul\":2089:2142   */\n      tag_331\n      jump\t// in\n    tag_363:\n        /* \"#utility.yul\":2079:2142   */\n      swap4\n      pop\n        /* \"#utility.yul\":2035:2152   */\n      pop\n        /* \"#utility.yul\":2219:2221   */\n      0x20\n        /* \"#utility.yul\":2208:2217   */\n      dup5\n        /* \"#utility.yul\":2204:2222   */\n      add\n        /* \"#utility.yul\":2191:2223   */\n      calldataload\n        /* \"#utility.yul\":2250:2268   */\n      0xffffffffffffffff\n        /* \"#utility.yul\":2242:2248   */\n      dup2\n        /* \"#utility.yul\":2239:2269   */\n      gt\n        /* \"#utility.yul\":2236:2353   */\n      iszero\n      tag_364\n      jumpi\n        /* \"#utility.yul\":2272:2351   */\n      tag_365\n      tag_366\n      jump\t// in\n    tag_365:\n        /* \"#utility.yul\":2236:2353   */\n    tag_364:\n        /* \"#utility.yul\":2385:2450   */\n      tag_367\n        /* \"#utility.yul\":2442:2449   */\n      dup7\n        /* \"#utility.yul\":2433:2439   */\n      dup3\n        /* \"#utility.yul\":2422:2431   */\n      dup8\n        /* \"#utility.yul\":2418:2440   */\n      add\n        /* \"#utility.yul\":2385:2450   */\n      tag_339\n      jump\t// in\n    tag_367:\n        /* \"#utility.yul\":2367:2450   */\n      swap3\n      pop\n      swap3\n      pop\n        /* \"#utility.yul\":2162:2460   */\n      pop\n        /* \"#utility.yul\":1793:2467   */\n      swap3\n      pop\n      swap3\n      pop\n      swap3\n      jump\t// out\n        /* \"#utility.yul\":2473:3002   */\n    tag_45:\n        /* \"#utility.yul\":2544:2550   */\n      0x00\n        /* \"#utility.yul\":2552:2558   */\n      dup1\n        /* \"#utility.yul\":2601:2603   */\n      0x20\n        /* \"#utility.yul\":2589:2598   */\n      dup4\n        /* \"#utility.yul\":2580:2587   */\n      dup6\n        /* \"#utility.yul\":2576:2599   */\n      sub\n        /* \"#utility.yul\":2572:2604   */\n      slt\n        /* \"#utility.yul\":2569:2688   */\n      iszero\n      tag_369\n      jumpi\n        /* \"#utility.yul\":2607:2686   */\n      tag_370\n      tag_362\n      jump\t// in\n    tag_370:\n        /* \"#utility.yul\":2569:2688   */\n    tag_369:\n        /* \"#utility.yul\":2755:2756   */\n      0x00\n        /* \"#utility.yul\":2744:2753   */\n      dup4\n        /* \"#utility.yul\":2740:2757   */\n      add\n        /* \"#utility.yul\":2727:2758   */\n      calldataload\n        /* \"#utility.yul\":2785:2803   */\n      0xffffffffffffffff\n        /* \"#utility.yul\":2777:2783   */\n      dup2\n        /* \"#utility.yul\":2774:2804   */\n      gt\n        /* \"#utility.yul\":2771:2888   */\n      iszero\n      tag_371\n      jumpi\n        /* \"#utility.yul\":2807:2886   */\n      tag_372\n      tag_366\n      jump\t// in\n    tag_372:\n        /* \"#utility.yul\":2771:2888   */\n    tag_371:\n        /* \"#utility.yul\":2920:2985   */\n      tag_373\n        /* \"#utility.yul\":2977:2984   */\n      dup6\n        /* \"#utility.yul\":2968:2974   */\n      dup3\n        /* \"#utility.yul\":2957:2966   */\n      dup7\n        /* \"#utility.yul\":2953:2975   */\n      add\n        /* \"#utility.yul\":2920:2985   */\n      tag_339\n      jump\t// in\n    tag_373:\n        /* \"#utility.yul\":2902:2985   */\n      swap3\n      pop\n      swap3\n      pop\n        /* \"#utility.yul\":2698:2995   */\n      pop\n        /* \"#utility.yul\":2473:3002   */\n      swap3\n      pop\n      swap3\n      swap1\n      pop\n      jump\t// out\n        /* \"#utility.yul\":3008:3517   */\n    tag_29:\n        /* \"#utility.yul\":3077:3083   */\n      0x00\n        /* \"#utility.yul\":3126:3128   */\n      0x20\n        /* \"#utility.yul\":3114:3123   */\n      dup3\n        /* \"#utility.yul\":3105:3112   */\n      dup5\n        /* \"#utility.yul\":3101:3124   */\n      sub\n        /* \"#utility.yul\":3097:3129   */\n      slt\n        /* \"#utility.yul\":3094:3213   */\n      iszero\n      tag_375\n      jumpi\n        /* \"#utility.yul\":3132:3211   */\n      tag_376\n      tag_362\n      jump\t// in\n    tag_376:\n        /* \"#utility.yul\":3094:3213   */\n    tag_375:\n        /* \"#utility.yul\":3280:3281   */\n      0x00\n        /* \"#utility.yul\":3269:3278   */\n      dup3\n        /* \"#utility.yul\":3265:3282   */\n      add\n        /* \"#utility.yul\":3252:3283   */\n      calldataload\n        /* \"#utility.yul\":3310:3328   */\n      0xffffffffffffffff\n        /* \"#utility.yul\":3302:3308   */\n      dup2\n        /* \"#utility.yul\":3299:3329   */\n      gt\n        /* \"#utility.yul\":3296:3413   */\n      iszero\n      tag_377\n      jumpi\n        /* \"#utility.yul\":3332:3411   */\n      tag_378\n      tag_366\n      jump\t// in\n    tag_378:\n        /* \"#utility.yul\":3296:3413   */\n    tag_377:\n        /* \"#utility.yul\":3437:3500   */\n      tag_379\n        /* \"#utility.yul\":3492:3499   */\n      dup5\n        /* \"#utility.yul\":3483:3489   */\n      dup3\n        /* \"#utility.yul\":3472:3481   */\n      dup6\n        /* \"#utility.yul\":3468:3490   */\n      add\n        /* \"#utility.yul\":3437:3500   */\n      tag_350\n      jump\t// in\n    tag_379:\n        /* \"#utility.yul\":3427:3500   */\n      swap2\n      pop\n        /* \"#utility.yul\":3223:3510   */\n      pop\n        /* \"#utility.yul\":3008:3517   */\n      swap3\n      swap2\n      pop\n      pop\n      jump\t// out\n        /* \"#utility.yul\":3523:4177   */\n    tag_39:\n        /* \"#utility.yul\":3601:3607   */\n      0x00\n        /* \"#utility.yul\":3609:3615   */\n      dup1\n        /* \"#utility.yul\":3658:3660   */\n      0x40\n        /* \"#utility.yul\":3646:3655   */\n      dup4\n        /* \"#utility.yul\":3637:3644   */\n      dup6\n        /* \"#utility.yul\":3633:3656   */\n      sub\n        /* \"#utility.yul\":3629:3661   */\n      slt\n        /* \"#utility.yul\":3626:3745   */\n      iszero\n      tag_381\n      jumpi\n        /* \"#utility.yul\":3664:3743   */\n      tag_382\n      tag_362\n      jump\t// in\n    tag_382:\n        /* \"#utility.yul\":3626:3745   */\n    tag_381:\n        /* \"#utility.yul\":3812:3813   */\n      0x00\n        /* \"#utility.yul\":3801:3810   */\n      dup4\n        /* \"#utility.yul\":3797:3814   */\n      add\n        /* \"#utility.yul\":3784:3815   */\n      calldataload\n        /* \"#utility.yul\":3842:3860   */\n      0xffffffffffffffff\n        /* \"#utility.yul\":3834:3840   */\n      dup2\n        /* \"#utility.yul\":3831:3861   */\n      gt\n        /* \"#utility.yul\":3828:3945   */\n      iszero\n      tag_383\n      jumpi\n        /* \"#utility.yul\":3864:3943   */\n      tag_384\n      tag_366\n      jump\t// in\n    tag_384:\n        /* \"#utility.yul\":3828:3945   */\n    tag_383:\n        /* \"#utility.yul\":3969:4032   */\n      tag_385\n        /* \"#utility.yul\":4024:4031   */\n      dup6\n        /* \"#utility.yul\":4015:4021   */\n      dup3\n        /* \"#utility.yul\":4004:4013   */\n      dup7\n        /* \"#utility.yul\":4000:4022   */\n      add\n        /* \"#utility.yul\":3969:4032   */\n      tag_350\n      jump\t// in\n    tag_385:\n        /* \"#utility.yul\":3959:4032   */\n      swap3\n      pop\n        /* \"#utility.yul\":3755:4042   */\n      pop\n        /* \"#utility.yul\":4081:4083   */\n      0x20\n        /* \"#utility.yul\":4107:4160   */\n      tag_386\n        /* \"#utility.yul\":4152:4159   */\n      dup6\n        /* \"#utility.yul\":4143:4149   */\n      dup3\n        /* \"#utility.yul\":4132:4141   */\n      dup7\n        /* \"#utility.yul\":4128:4150   */\n      add\n        /* \"#utility.yul\":4107:4160   */\n      tag_331\n      jump\t// in\n    tag_386:\n        /* \"#utility.yul\":4097:4160   */\n      swap2\n      pop\n        /* \"#utility.yul\":4052:4170   */\n      pop\n        /* \"#utility.yul\":3523:4177   */\n      swap3\n      pop\n      swap3\n      swap1\n      pop\n      jump\t// out\n        /* \"#utility.yul\":4183:5037   */\n    tag_35:\n        /* \"#utility.yul\":4273:4279   */\n      0x00\n        /* \"#utility.yul\":4281:4287   */\n      dup1\n        /* \"#utility.yul\":4289:4295   */\n      0x00\n        /* \"#utility.yul\":4338:4340   */\n      0x40\n        /* \"#utility.yul\":4326:4335   */\n      dup5\n        /* \"#utility.yul\":4317:4324   */\n      dup7\n        /* \"#utility.yul\":4313:4336   */\n      sub\n        /* \"#utility.yul\":4309:4341   */\n      slt\n        /* \"#utility.yul\":4306:4425   */\n      iszero\n      tag_388\n      jumpi\n        /* \"#utility.yul\":4344:4423   */\n      tag_389\n      tag_362\n      jump\t// in\n    tag_389:\n        /* \"#utility.yul\":4306:4425   */\n    tag_388:\n        /* \"#utility.yul\":4492:4493   */\n      0x00\n        /* \"#utility.yul\":4481:4490   */\n      dup5\n        /* \"#utility.yul\":4477:4494   */\n      add\n        /* \"#utility.yul\":4464:4495   */\n      calldataload\n        /* \"#utility.yul\":4522:4540   */\n      0xffffffffffffffff\n        /* \"#utility.yul\":4514:4520   */\n      dup2\n        /* \"#utility.yul\":4511:4541   */\n      gt\n        /* \"#utility.yul\":4508:4625   */\n      iszero\n      tag_390\n      jumpi\n        /* \"#utility.yul\":4544:4623   */\n      tag_391\n      tag_366\n      jump\t// in\n    tag_391:\n        /* \"#utility.yul\":4508:4625   */\n    tag_390:\n        /* \"#utility.yul\":4649:4712   */\n      tag_392\n        /* \"#utility.yul\":4704:4711   */\n      dup7\n        /* \"#utility.yul\":4695:4701   */\n      dup3\n        /* \"#utility.yul\":4684:4693   */\n      dup8\n        /* \"#utility.yul\":4680:4702   */\n      add\n        /* \"#utility.yul\":4649:4712   */\n      tag_350\n      jump\t// in\n    tag_392:\n        /* \"#utility.yul\":4639:4712   */\n      swap4\n      pop\n        /* \"#utility.yul\":4435:4722   */\n      pop\n        /* \"#utility.yul\":4789:4791   */\n      0x20\n        /* \"#utility.yul\":4778:4787   */\n      dup5\n        /* \"#utility.yul\":4774:4792   */\n      add\n        /* \"#utility.yul\":4761:4793   */\n      calldataload\n        /* \"#utility.yul\":4820:4838   */\n      0xffffffffffffffff\n        /* \"#utility.yul\":4812:4818   */\n      dup2\n        /* \"#utility.yul\":4809:4839   */\n      gt\n        /* \"#utility.yul\":4806:4923   */\n      iszero\n      tag_393\n      jumpi\n        /* \"#utility.yul\":4842:4921   */\n      tag_394\n      tag_366\n      jump\t// in\n    tag_394:\n        /* \"#utility.yul\":4806:4923   */\n    tag_393:\n        /* \"#utility.yul\":4955:5020   */\n      tag_395\n        /* \"#utility.yul\":5012:5019   */\n      dup7\n        /* \"#utility.yul\":5003:5009   */\n      dup3\n        /* \"#utility.yul\":4992:5001   */\n      dup8\n        /* \"#utility.yul\":4988:5010   */\n      add\n        /* \"#utility.yul\":4955:5020   */\n      tag_339\n      jump\t// in\n    tag_395:\n        /* \"#utility.yul\":4937:5020   */\n      swap3\n      pop\n      swap3\n      pop\n        /* \"#utility.yul\":4732:5030   */\n      pop\n        /* \"#utility.yul\":4183:5037   */\n      swap3\n      pop\n      swap3\n      pop\n      swap3\n      jump\t// out\n        /* \"#utility.yul\":5043:5697   */\n    tag_23:\n        /* \"#utility.yul\":5121:5127   */\n      0x00\n        /* \"#utility.yul\":5129:5135   */\n      dup1\n        /* \"#utility.yul\":5178:5180   */\n      0x40\n        /* \"#utility.yul\":5166:5175   */\n      dup4\n        /* \"#utility.yul\":5157:5164   */\n      dup6\n        /* \"#utility.yul\":5153:5176   */\n      sub\n        /* \"#utility.yul\":5149:5181   */\n      slt\n        /* \"#utility.yul\":5146:5265   */\n      iszero\n      tag_397\n      jumpi\n        /* \"#utility.yul\":5184:5263   */\n      tag_398\n      tag_362\n      jump\t// in\n    tag_398:\n        /* \"#utility.yul\":5146:5265   */\n    tag_397:\n        /* \"#utility.yul\":5332:5333   */\n      0x00\n        /* \"#utility.yul\":5321:5330   */\n      dup4\n        /* \"#utility.yul\":5317:5334   */\n      add\n        /* \"#utility.yul\":5304:5335   */\n      calldataload\n        /* \"#utility.yul\":5362:5380   */\n      0xffffffffffffffff\n        /* \"#utility.yul\":5354:5360   */\n      dup2\n        /* \"#utility.yul\":5351:5381   */\n      gt\n        /* \"#utility.yul\":5348:5465   */\n      iszero\n      tag_399\n      jumpi\n        /* \"#utility.yul\":5384:5463   */\n      tag_400\n      tag_366\n      jump\t// in\n    tag_400:\n        /* \"#utility.yul\":5348:5465   */\n    tag_399:\n        /* \"#utility.yul\":5489:5552   */\n      tag_401\n        /* \"#utility.yul\":5544:5551   */\n      dup6\n        /* \"#utility.yul\":5535:5541   */\n      dup3\n        /* \"#utility.yul\":5524:5533   */\n      dup7\n        /* \"#utility.yul\":5520:5542   */\n      add\n        /* \"#utility.yul\":5489:5552   */\n      tag_350\n      jump\t// in\n    tag_401:\n        /* \"#utility.yul\":5479:5552   */\n      swap3\n      pop\n        /* \"#utility.yul\":5275:5562   */\n      pop\n        /* \"#utility.yul\":5601:5603   */\n      0x20\n        /* \"#utility.yul\":5627:5680   */\n      tag_402\n        /* \"#utility.yul\":5672:5679   */\n      dup6\n        /* \"#utility.yul\":5663:5669   */\n      dup3\n        /* \"#utility.yul\":5652:5661   */\n      dup7\n        /* \"#utility.yul\":5648:5670   */\n      add\n        /* \"#utility.yul\":5627:5680   */\n      tag_355\n      jump\t// in\n    tag_402:\n        /* \"#utility.yul\":5617:5680   */\n      swap2\n      pop\n        /* \"#utility.yul\":5572:5690   */\n      pop\n        /* \"#utility.yul\":5043:5697   */\n      swap3\n      pop\n      swap3\n      swap1\n      pop\n      jump\t// out\n        /* \"#utility.yul\":5703:6648   */\n    tag_75:\n        /* \"#utility.yul\":5799:5805   */\n      0x00\n        /* \"#utility.yul\":5807:5813   */\n      dup1\n        /* \"#utility.yul\":5815:5821   */\n      0x00\n        /* \"#utility.yul\":5823:5829   */\n      dup1\n        /* \"#utility.yul\":5872:5875   */\n      0x80\n        /* \"#utility.yul\":5860:5869   */\n      dup6\n        /* \"#utility.yul\":5851:5858   */\n      dup8\n        /* \"#utility.yul\":5847:5870   */\n      sub\n        /* \"#utility.yul\":5843:5876   */\n      slt\n        /* \"#utility.yul\":5840:5960   */\n      iszero\n      tag_404\n      jumpi\n        /* \"#utility.yul\":5879:5958   */\n      tag_405\n      tag_362\n      jump\t// in\n    tag_405:\n        /* \"#utility.yul\":5840:5960   */\n    tag_404:\n        /* \"#utility.yul\":6027:6028   */\n      0x00\n        /* \"#utility.yul\":6016:6025   */\n      dup6\n        /* \"#utility.yul\":6012:6029   */\n      add\n        /* \"#utility.yul\":5999:6030   */\n      calldataload\n        /* \"#utility.yul\":6057:6075   */\n      0xffffffffffffffff\n        /* \"#utility.yul\":6049:6055   */\n      dup2\n        /* \"#utility.yul\":6046:6076   */\n      gt\n        /* \"#utility.yul\":6043:6160   */\n      iszero\n      tag_406\n      jumpi\n        /* \"#utility.yul\":6079:6158   */\n      tag_407\n      tag_366\n      jump\t// in\n    tag_407:\n        /* \"#utility.yul\":6043:6160   */\n    tag_406:\n        /* \"#utility.yul\":6184:6247   */\n      tag_408\n        /* \"#utility.yul\":6239:6246   */\n      dup8\n        /* \"#utility.yul\":6230:6236   */\n      dup3\n        /* \"#utility.yul\":6219:6228   */\n      dup9\n        /* \"#utility.yul\":6215:6237   */\n      add\n        /* \"#utility.yul\":6184:6247   */\n      tag_350\n      jump\t// in\n    tag_408:\n        /* \"#utility.yul\":6174:6247   */\n      swap5\n      pop\n        /* \"#utility.yul\":5970:6257   */\n      pop\n        /* \"#utility.yul\":6296:6298   */\n      0x20\n        /* \"#utility.yul\":6322:6375   */\n      tag_409\n        /* \"#utility.yul\":6367:6374   */\n      dup8\n        /* \"#utility.yul\":6358:6364   */\n      dup3\n        /* \"#utility.yul\":6347:6356   */\n      dup9\n        /* \"#utility.yul\":6343:6365   */\n      add\n        /* \"#utility.yul\":6322:6375   */\n      tag_355\n      jump\t// in\n    tag_409:\n        /* \"#utility.yul\":6312:6375   */\n      swap4\n      pop\n        /* \"#utility.yul\":6267:6385   */\n      pop\n        /* \"#utility.yul\":6424:6426   */\n      0x40\n        /* \"#utility.yul\":6450:6503   */\n      tag_410\n        /* \"#utility.yul\":6495:6502   */\n      dup8\n        /* \"#utility.yul\":6486:6492   */\n      dup3\n        /* \"#utility.yul\":6475:6484   */\n      dup9\n        /* \"#utility.yul\":6471:6493   */\n      add\n        /* \"#utility.yul\":6450:6503   */\n      tag_355\n      jump\t// in\n    tag_410:\n        /* \"#utility.yul\":6440:6503   */\n      swap3\n      pop\n        /* \"#utility.yul\":6395:6513   */\n      pop\n        /* \"#utility.yul\":6552:6554   */\n      0x60\n        /* \"#utility.yul\":6578:6631   */\n      tag_411\n        /* \"#utility.yul\":6623:6630   */\n      dup8\n        /* \"#utility.yul\":6614:6620   */\n      dup3\n        /* \"#utility.yul\":6603:6612   */\n      dup9\n        /* \"#utility.yul\":6599:6621   */\n      add\n        /* \"#utility.yul\":6578:6631   */\n      tag_335\n      jump\t// in\n    tag_411:\n        /* \"#utility.yul\":6568:6631   */\n      swap2\n      pop\n        /* \"#utility.yul\":6523:6641   */\n      pop\n        /* \"#utility.yul\":5703:6648   */\n      swap3\n      swap6\n      swap2\n      swap5\n      pop\n      swap3\n      pop\n      jump\t// out\n        /* \"#utility.yul\":6654:8251   */\n    tag_60:\n        /* \"#utility.yul\":6788:6794   */\n      0x00\n        /* \"#utility.yul\":6796:6802   */\n      dup1\n        /* \"#utility.yul\":6804:6810   */\n      0x00\n        /* \"#utility.yul\":6812:6818   */\n      dup1\n        /* \"#utility.yul\":6820:6826   */\n      0x00\n        /* \"#utility.yul\":6828:6834   */\n      dup1\n        /* \"#utility.yul\":6877:6880   */\n      0xc0\n        /* \"#utility.yul\":6865:6874   */\n      dup8\n        /* \"#utility.yul\":6856:6863   */\n      dup10\n        /* \"#utility.yul\":6852:6875   */\n      sub\n        /* \"#utility.yul\":6848:6881   */\n      slt\n        /* \"#utility.yul\":6845:6965   */\n      iszero\n      tag_413\n      jumpi\n        /* \"#utility.yul\":6884:6963   */\n      tag_414\n      tag_362\n      jump\t// in\n    tag_414:\n        /* \"#utility.yul\":6845:6965   */\n    tag_413:\n        /* \"#utility.yul\":7032:7033   */\n      0x00\n        /* \"#utility.yul\":7021:7030   */\n      dup8\n        /* \"#utility.yul\":7017:7034   */\n      add\n        /* \"#utility.yul\":7004:7035   */\n      calldataload\n        /* \"#utility.yul\":7062:7080   */\n      0xffffffffffffffff\n        /* \"#utility.yul\":7054:7060   */\n      dup2\n        /* \"#utility.yul\":7051:7081   */\n      gt\n        /* \"#utility.yul\":7048:7165   */\n      iszero\n      tag_415\n      jumpi\n        /* \"#utility.yul\":7084:7163   */\n      tag_416\n      tag_366\n      jump\t// in\n    tag_416:\n        /* \"#utility.yul\":7048:7165   */\n    tag_415:\n        /* \"#utility.yul\":7189:7252   */\n      tag_417\n        /* \"#utility.yul\":7244:7251   */\n      dup10\n        /* \"#utility.yul\":7235:7241   */\n      dup3\n        /* \"#utility.yul\":7224:7233   */\n      dup11\n        /* \"#utility.yul\":7220:7242   */\n      add\n        /* \"#utility.yul\":7189:7252   */\n      tag_350\n      jump\t// in\n    tag_417:\n        /* \"#utility.yul\":7179:7252   */\n      swap7\n      pop\n        /* \"#utility.yul\":6975:7262   */\n      pop\n        /* \"#utility.yul\":7301:7303   */\n      0x20\n        /* \"#utility.yul\":7327:7380   */\n      tag_418\n        /* \"#utility.yul\":7372:7379   */\n      dup10\n        /* \"#utility.yul\":7363:7369   */\n      dup3\n        /* \"#utility.yul\":7352:7361   */\n      dup11\n        /* \"#utility.yul\":7348:7370   */\n      add\n        /* \"#utility.yul\":7327:7380   */\n      tag_355\n      jump\t// in\n    tag_418:\n        /* \"#utility.yul\":7317:7380   */\n      swap6\n      pop\n        /* \"#utility.yul\":7272:7390   */\n      pop\n        /* \"#utility.yul\":7429:7431   */\n      0x40\n        /* \"#utility.yul\":7455:7508   */\n      tag_419\n        /* \"#utility.yul\":7500:7507   */\n      dup10\n        /* \"#utility.yul\":7491:7497   */\n      dup3\n        /* \"#utility.yul\":7480:7489   */\n      dup11\n        /* \"#utility.yul\":7476:7498   */\n      add\n        /* \"#utility.yul\":7455:7508   */\n      tag_355\n      jump\t// in\n    tag_419:\n        /* \"#utility.yul\":7445:7508   */\n      swap5\n      pop\n        /* \"#utility.yul\":7400:7518   */\n      pop\n        /* \"#utility.yul\":7557:7559   */\n      0x60\n        /* \"#utility.yul\":7583:7636   */\n      tag_420\n        /* \"#utility.yul\":7628:7635   */\n      dup10\n        /* \"#utility.yul\":7619:7625   */\n      dup3\n        /* \"#utility.yul\":7608:7617   */\n      dup11\n        /* \"#utility.yul\":7604:7626   */\n      add\n        /* \"#utility.yul\":7583:7636   */\n      tag_335\n      jump\t// in\n    tag_420:\n        /* \"#utility.yul\":7573:7636   */\n      swap4\n      pop\n        /* \"#utility.yul\":7528:7646   */\n      pop\n        /* \"#utility.yul\":7713:7716   */\n      0x80\n        /* \"#utility.yul\":7702:7711   */\n      dup8\n        /* \"#utility.yul\":7698:7717   */\n      add\n        /* \"#utility.yul\":7685:7718   */\n      calldataload\n        /* \"#utility.yul\":7745:7763   */\n      0xffffffffffffffff\n        /* \"#utility.yul\":7737:7743   */\n      dup2\n        /* \"#utility.yul\":7734:7764   */\n      gt\n        /* \"#utility.yul\":7731:7848   */\n      iszero\n      tag_421\n      jumpi\n        /* \"#utility.yul\":7767:7846   */\n      tag_422\n      tag_366\n      jump\t// in\n    tag_422:\n        /* \"#utility.yul\":7731:7848   */\n    tag_421:\n        /* \"#utility.yul\":7872:7935   */\n      tag_423\n        /* \"#utility.yul\":7927:7934   */\n      dup10\n        /* \"#utility.yul\":7918:7924   */\n      dup3\n        /* \"#utility.yul\":7907:7916   */\n      dup11\n        /* \"#utility.yul\":7903:7925   */\n      add\n        /* \"#utility.yul\":7872:7935   */\n      tag_350\n      jump\t// in\n    tag_423:\n        /* \"#utility.yul\":7862:7935   */\n      swap3\n      pop\n        /* \"#utility.yul\":7656:7945   */\n      pop\n        /* \"#utility.yul\":8012:8015   */\n      0xa0\n        /* \"#utility.yul\":8001:8010   */\n      dup8\n        /* \"#utility.yul\":7997:8016   */\n      add\n        /* \"#utility.yul\":7984:8017   */\n      calldataload\n        /* \"#utility.yul\":8044:8062   */\n      0xffffffffffffffff\n        /* \"#utility.yul\":8036:8042   */\n      dup2\n        /* \"#utility.yul\":8033:8063   */\n      gt\n        /* \"#utility.yul\":8030:8147   */\n      iszero\n      tag_424\n      jumpi\n        /* \"#utility.yul\":8066:8145   */\n      tag_425\n      tag_366\n      jump\t// in\n    tag_425:\n        /* \"#utility.yul\":8030:8147   */\n    tag_424:\n        /* \"#utility.yul\":8171:8234   */\n      tag_426\n        /* \"#utility.yul\":8226:8233   */\n      dup10\n        /* \"#utility.yul\":8217:8223   */\n      dup3\n        /* \"#utility.yul\":8206:8215   */\n      dup11\n        /* \"#utility.yul\":8202:8224   */\n      add\n        /* \"#utility.yul\":8171:8234   */\n      tag_350\n      jump\t// in\n    tag_426:\n        /* \"#utility.yul\":8161:8234   */\n      swap2\n      pop\n        /* \"#utility.yul\":7955:8244   */\n      pop\n        /* \"#utility.yul\":6654:8251   */\n      swap3\n      swap6\n      pop\n      swap3\n      swap6\n      pop\n      swap3\n      swap6\n      jump\t// out\n        /* \"#utility.yul\":8257:8516   */\n    tag_427:\n        /* \"#utility.yul\":8366:8376   */\n      0x00\n        /* \"#utility.yul\":8387:8473   */\n      tag_429\n        /* \"#utility.yul\":8469:8472   */\n      dup4\n        /* \"#utility.yul\":8461:8467   */\n      dup4\n        /* \"#utility.yul\":8387:8473   */\n      tag_430\n      jump\t// in\n    tag_429:\n        /* \"#utility.yul\":8505:8509   */\n      0x60\n        /* \"#utility.yul\":8500:8503   */\n      dup4\n        /* \"#utility.yul\":8496:8510   */\n      add\n        /* \"#utility.yul\":8482:8510   */\n      swap1\n      pop\n        /* \"#utility.yul\":8257:8516   */\n      swap3\n      swap2\n      pop\n      pop\n      jump\t// out\n        /* \"#utility.yul\":8522:8630   */\n    tag_431:\n        /* \"#utility.yul\":8599:8623   */\n      tag_433\n        /* \"#utility.yul\":8617:8622   */\n      dup2\n        /* \"#utility.yul\":8599:8623   */\n      tag_434\n      jump\t// in\n    tag_433:\n        /* \"#utility.yul\":8594:8597   */\n      dup3\n        /* \"#utility.yul\":8587:8624   */\n      mstore\n        /* \"#utility.yul\":8522:8630   */\n      pop\n      pop\n      jump\t// out\n        /* \"#utility.yul\":8636:8754   */\n    tag_435:\n        /* \"#utility.yul\":8723:8747   */\n      tag_437\n        /* \"#utility.yul\":8741:8746   */\n      dup2\n        /* \"#utility.yul\":8723:8747   */\n      tag_434\n      jump\t// in\n    tag_437:\n        /* \"#utility.yul\":8718:8721   */\n      dup3\n        /* \"#utility.yul\":8711:8748   */\n      mstore\n        /* \"#utility.yul\":8636:8754   */\n      pop\n      pop\n      jump\t// out\n        /* \"#utility.yul\":8838:9730   */\n    tag_438:\n        /* \"#utility.yul\":8997:9000   */\n      0x00\n        /* \"#utility.yul\":9026:9100   */\n      tag_440\n        /* \"#utility.yul\":9094:9099   */\n      dup3\n        /* \"#utility.yul\":9026:9100   */\n      tag_441\n      jump\t// in\n    tag_440:\n        /* \"#utility.yul\":9116:9222   */\n      tag_442\n        /* \"#utility.yul\":9215:9221   */\n      dup2\n        /* \"#utility.yul\":9210:9213   */\n      dup6\n        /* \"#utility.yul\":9116:9222   */\n      tag_443\n      jump\t// in\n    tag_442:\n        /* \"#utility.yul\":9109:9222   */\n      swap4\n      pop\n        /* \"#utility.yul\":9246:9322   */\n      tag_444\n        /* \"#utility.yul\":9316:9321   */\n      dup4\n        /* \"#utility.yul\":9246:9322   */\n      tag_445\n      jump\t// in\n    tag_444:\n        /* \"#utility.yul\":9345:9352   */\n      dup1\n        /* \"#utility.yul\":9376:9377   */\n      0x00\n        /* \"#utility.yul\":9361:9705   */\n    tag_446:\n        /* \"#utility.yul\":9386:9392   */\n      dup4\n        /* \"#utility.yul\":9383:9384   */\n      dup2\n        /* \"#utility.yul\":9380:9393   */\n      lt\n        /* \"#utility.yul\":9361:9705   */\n      iszero\n      tag_448\n      jumpi\n        /* \"#utility.yul\":9462:9468   */\n      dup2\n        /* \"#utility.yul\":9456:9469   */\n      mload\n        /* \"#utility.yul\":9489:9592   */\n      tag_449\n        /* \"#utility.yul\":9588:9591   */\n      dup9\n        /* \"#utility.yul\":9573:9586   */\n      dup3\n        /* \"#utility.yul\":9489:9592   */\n      tag_427\n      jump\t// in\n    tag_449:\n        /* \"#utility.yul\":9482:9592   */\n      swap8\n      pop\n        /* \"#utility.yul\":9615:9695   */\n      tag_450\n        /* \"#utility.yul\":9688:9694   */\n      dup4\n        /* \"#utility.yul\":9615:9695   */\n      tag_451\n      jump\t// in\n    tag_450:\n        /* \"#utility.yul\":9605:9695   */\n      swap3\n      pop\n        /* \"#utility.yul\":9421:9705   */\n      pop\n        /* \"#utility.yul\":9408:9409   */\n      0x01\n        /* \"#utility.yul\":9405:9406   */\n      dup2\n        /* \"#utility.yul\":9401:9410   */\n      add\n        /* \"#utility.yul\":9396:9410   */\n      swap1\n      pop\n        /* \"#utility.yul\":9361:9705   */\n      jump(tag_446)\n    tag_448:\n        /* \"#utility.yul\":9365:9379   */\n      pop\n        /* \"#utility.yul\":9721:9724   */\n      dup6\n        /* \"#utility.yul\":9714:9724   */\n      swap4\n      pop\n        /* \"#utility.yul\":9002:9730   */\n      pop\n      pop\n      pop\n        /* \"#utility.yul\":8838:9730   */\n      swap3\n      swap2\n      pop\n      pop\n      jump\t// out\n        /* \"#utility.yul\":9736:9835   */\n    tag_452:\n        /* \"#utility.yul\":9807:9828   */\n      tag_454\n        /* \"#utility.yul\":9822:9827   */\n      dup2\n        /* \"#utility.yul\":9807:9828   */\n      tag_455\n      jump\t// in\n    tag_454:\n        /* \"#utility.yul\":9802:9805   */\n      dup3\n        /* \"#utility.yul\":9795:9829   */\n      mstore\n        /* \"#utility.yul\":9736:9835   */\n      pop\n      pop\n      jump\t// out\n        /* \"#utility.yul\":9841:9950   */\n    tag_456:\n        /* \"#utility.yul\":9922:9943   */\n      tag_458\n        /* \"#utility.yul\":9937:9942   */\n      dup2\n        /* \"#utility.yul\":9922:9943   */\n      tag_455\n      jump\t// in\n    tag_458:\n        /* \"#utility.yul\":9917:9920   */\n      dup3\n        /* \"#utility.yul\":9910:9944   */\n      mstore\n        /* \"#utility.yul\":9841:9950   */\n      pop\n      pop\n      jump\t// out\n        /* \"#utility.yul\":9956:10064   */\n    tag_459:\n        /* \"#utility.yul\":10033:10057   */\n      tag_461\n        /* \"#utility.yul\":10051:10056   */\n      dup2\n        /* \"#utility.yul\":10033:10057   */\n      tag_462\n      jump\t// in\n    tag_461:\n        /* \"#utility.yul\":10028:10031   */\n      dup3\n        /* \"#utility.yul\":10021:10058   */\n      mstore\n        /* \"#utility.yul\":9956:10064   */\n      pop\n      pop\n      jump\t// out\n        /* \"#utility.yul\":10070:10188   */\n    tag_463:\n        /* \"#utility.yul\":10157:10181   */\n      tag_465\n        /* \"#utility.yul\":10175:10180   */\n      dup2\n        /* \"#utility.yul\":10157:10181   */\n      tag_462\n      jump\t// in\n    tag_465:\n        /* \"#utility.yul\":10152:10155   */\n      dup3\n        /* \"#utility.yul\":10145:10182   */\n      mstore\n        /* \"#utility.yul\":10070:10188   */\n      pop\n      pop\n      jump\t// out\n        /* \"#utility.yul\":10218:10535   */\n    tag_466:\n        /* \"#utility.yul\":10334:10337   */\n      0x00\n        /* \"#utility.yul\":10355:10444   */\n      tag_468\n        /* \"#utility.yul\":10437:10443   */\n      dup4\n        /* \"#utility.yul\":10432:10435   */\n      dup6\n        /* \"#utility.yul\":10355:10444   */\n      tag_469\n      jump\t// in\n    tag_468:\n        /* \"#utility.yul\":10348:10444   */\n      swap4\n      pop\n        /* \"#utility.yul\":10454:10497   */\n      tag_470\n        /* \"#utility.yul\":10490:10496   */\n      dup4\n        /* \"#utility.yul\":10485:10488   */\n      dup6\n        /* \"#utility.yul\":10478:10483   */\n      dup5\n        /* \"#utility.yul\":10454:10497   */\n      tag_330\n      jump\t// in\n    tag_470:\n        /* \"#utility.yul\":10522:10528   */\n      dup3\n        /* \"#utility.yul\":10517:10520   */\n      dup5\n        /* \"#utility.yul\":10513:10529   */\n      add\n        /* \"#utility.yul\":10506:10529   */\n      swap1\n      pop\n        /* \"#utility.yul\":10218:10535   */\n      swap4\n      swap3\n      pop\n      pop\n      pop\n      jump\t// out\n        /* \"#utility.yul\":10541:10885   */\n    tag_471:\n        /* \"#utility.yul\":10619:10622   */\n      0x00\n        /* \"#utility.yul\":10647:10686   */\n      tag_473\n        /* \"#utility.yul\":10680:10685   */\n      dup3\n        /* \"#utility.yul\":10647:10686   */\n      tag_474\n      jump\t// in\n    tag_473:\n        /* \"#utility.yul\":10702:10763   */\n      tag_475\n        /* \"#utility.yul\":10756:10762   */\n      dup2\n        /* \"#utility.yul\":10751:10754   */\n      dup6\n        /* \"#utility.yul\":10702:10763   */\n      tag_476\n      jump\t// in\n    tag_475:\n        /* \"#utility.yul\":10695:10763   */\n      swap4\n      pop\n        /* \"#utility.yul\":10772:10824   */\n      tag_477\n        /* \"#utility.yul\":10817:10823   */\n      dup2\n        /* \"#utility.yul\":10812:10815   */\n      dup6\n        /* \"#utility.yul\":10805:10809   */\n      0x20\n        /* \"#utility.yul\":10798:10803   */\n      dup7\n        /* \"#utility.yul\":10794:10810   */\n      add\n        /* \"#utility.yul\":10772:10824   */\n      tag_478\n      jump\t// in\n    tag_477:\n        /* \"#utility.yul\":10849:10878   */\n      tag_479\n        /* \"#utility.yul\":10871:10877   */\n      dup2\n        /* \"#utility.yul\":10849:10878   */\n      tag_480\n      jump\t// in\n    tag_479:\n        /* \"#utility.yul\":10844:10847   */\n      dup5\n        /* \"#utility.yul\":10840:10879   */\n      add\n        /* \"#utility.yul\":10833:10879   */\n      swap2\n      pop\n        /* \"#utility.yul\":10623:10885   */\n      pop\n        /* \"#utility.yul\":10541:10885   */\n      swap3\n      swap2\n      pop\n      pop\n      jump\t// out\n        /* \"#utility.yul\":10891:11255   */\n    tag_481:\n        /* \"#utility.yul\":10979:10982   */\n      0x00\n        /* \"#utility.yul\":11007:11046   */\n      tag_483\n        /* \"#utility.yul\":11040:11045   */\n      dup3\n        /* \"#utility.yul\":11007:11046   */\n      tag_474\n      jump\t// in\n    tag_483:\n        /* \"#utility.yul\":11062:11133   */\n      tag_484\n        /* \"#utility.yul\":11126:11132   */\n      dup2\n        /* \"#utility.yul\":11121:11124   */\n      dup6\n        /* \"#utility.yul\":11062:11133   */\n      tag_485\n      jump\t// in\n    tag_484:\n        /* \"#utility.yul\":11055:11133   */\n      swap4\n      pop\n        /* \"#utility.yul\":11142:11194   */\n      tag_486\n        /* \"#utility.yul\":11187:11193   */\n      dup2\n        /* \"#utility.yul\":11182:11185   */\n      dup6\n        /* \"#utility.yul\":11175:11179   */\n      0x20\n        /* \"#utility.yul\":11168:11173   */\n      dup7\n        /* \"#utility.yul\":11164:11180   */\n      add\n        /* \"#utility.yul\":11142:11194   */\n      tag_478\n      jump\t// in\n    tag_486:\n        /* \"#utility.yul\":11219:11248   */\n      tag_487\n        /* \"#utility.yul\":11241:11247   */\n      dup2\n        /* \"#utility.yul\":11219:11248   */\n      tag_480\n      jump\t// in\n    tag_487:\n        /* \"#utility.yul\":11214:11217   */\n      dup5\n        /* \"#utility.yul\":11210:11249   */\n      add\n        /* \"#utility.yul\":11203:11249   */\n      swap2\n      pop\n        /* \"#utility.yul\":10983:11255   */\n      pop\n        /* \"#utility.yul\":10891:11255   */\n      swap3\n      swap2\n      pop\n      pop\n      jump\t// out\n        /* \"#utility.yul\":11261:11638   */\n    tag_488:\n        /* \"#utility.yul\":11367:11370   */\n      0x00\n        /* \"#utility.yul\":11395:11434   */\n      tag_490\n        /* \"#utility.yul\":11428:11433   */\n      dup3\n        /* \"#utility.yul\":11395:11434   */\n      tag_474\n      jump\t// in\n    tag_490:\n        /* \"#utility.yul\":11450:11539   */\n      tag_491\n        /* \"#utility.yul\":11532:11538   */\n      dup2\n        /* \"#utility.yul\":11527:11530   */\n      dup6\n        /* \"#utility.yul\":11450:11539   */\n      tag_469\n      jump\t// in\n    tag_491:\n        /* \"#utility.yul\":11443:11539   */\n      swap4\n      pop\n        /* \"#utility.yul\":11548:11600   */\n      tag_492\n        /* \"#utility.yul\":11593:11599   */\n      dup2\n        /* \"#utility.yul\":11588:11591   */\n      dup6\n        /* \"#utility.yul\":11581:11585   */\n      0x20\n        /* \"#utility.yul\":11574:11579   */\n      dup7\n        /* \"#utility.yul\":11570:11586   */\n      add\n        /* \"#utility.yul\":11548:11600   */\n      tag_478\n      jump\t// in\n    tag_492:\n        /* \"#utility.yul\":11625:11631   */\n      dup1\n        /* \"#utility.yul\":11620:11623   */\n      dup5\n        /* \"#utility.yul\":11616:11632   */\n      add\n        /* \"#utility.yul\":11609:11632   */\n      swap2\n      pop\n        /* \"#utility.yul\":11371:11638   */\n      pop\n        /* \"#utility.yul\":11261:11638   */\n      swap3\n      swap2\n      pop\n      pop\n      jump\t// out\n        /* \"#utility.yul\":11644:12010   */\n    tag_493:\n        /* \"#utility.yul\":11786:11789   */\n      0x00\n        /* \"#utility.yul\":11807:11874   */\n      tag_495\n        /* \"#utility.yul\":11871:11873   */\n      0x1f\n        /* \"#utility.yul\":11866:11869   */\n      dup4\n        /* \"#utility.yul\":11807:11874   */\n      tag_485\n      jump\t// in\n    tag_495:\n        /* \"#utility.yul\":11800:11874   */\n      swap2\n      pop\n        /* \"#utility.yul\":11883:11976   */\n      tag_496\n        /* \"#utility.yul\":11972:11975   */\n      dup3\n        /* \"#utility.yul\":11883:11976   */\n      tag_497\n      jump\t// in\n    tag_496:\n        /* \"#utility.yul\":12001:12003   */\n      0x20\n        /* \"#utility.yul\":11996:11999   */\n      dup3\n        /* \"#utility.yul\":11992:12004   */\n      add\n        /* \"#utility.yul\":11985:12004   */\n      swap1\n      pop\n        /* \"#utility.yul\":11644:12010   */\n      swap2\n      swap1\n      pop\n      jump\t// out\n        /* \"#utility.yul\":12016:12382   */\n    tag_498:\n        /* \"#utility.yul\":12158:12161   */\n      0x00\n        /* \"#utility.yul\":12179:12246   */\n      tag_500\n        /* \"#utility.yul\":12243:12245   */\n      0x19\n        /* \"#utility.yul\":12238:12241   */\n      dup4\n        /* \"#utility.yul\":12179:12246   */\n      tag_485\n      jump\t// in\n    tag_500:\n        /* \"#utility.yul\":12172:12246   */\n      swap2\n      pop\n        /* \"#utility.yul\":12255:12348   */\n      tag_501\n        /* \"#utility.yul\":12344:12347   */\n      dup3\n        /* \"#utility.yul\":12255:12348   */\n      tag_502\n      jump\t// in\n    tag_501:\n        /* \"#utility.yul\":12373:12375   */\n      0x20\n        /* \"#utility.yul\":12368:12371   */\n      dup3\n        /* \"#utility.yul\":12364:12376   */\n      add\n        /* \"#utility.yul\":12357:12376   */\n      swap1\n      pop\n        /* \"#utility.yul\":12016:12382   */\n      swap2\n      swap1\n      pop\n      jump\t// out\n        /* \"#utility.yul\":12388:12754   */\n    tag_503:\n        /* \"#utility.yul\":12530:12533   */\n      0x00\n        /* \"#utility.yul\":12551:12618   */\n      tag_505\n        /* \"#utility.yul\":12615:12617   */\n      0x26\n        /* \"#utility.yul\":12610:12613   */\n      dup4\n        /* \"#utility.yul\":12551:12618   */\n      tag_485\n      jump\t// in\n    tag_505:\n        /* \"#utility.yul\":12544:12618   */\n      swap2\n      pop\n        /* \"#utility.yul\":12627:12720   */\n      tag_506\n        /* \"#utility.yul\":12716:12719   */\n      dup3\n        /* \"#utility.yul\":12627:12720   */\n      tag_507\n      jump\t// in\n    tag_506:\n        /* \"#utility.yul\":12745:12747   */\n      0x40\n        /* \"#utility.yul\":12740:12743   */\n      dup3\n        /* \"#utility.yul\":12736:12748   */\n      add\n        /* \"#utility.yul\":12729:12748   */\n      swap1\n      pop\n        /* \"#utility.yul\":12388:12754   */\n      swap2\n      swap1\n      pop\n      jump\t// out\n        /* \"#utility.yul\":12760:13126   */\n    tag_508:\n        /* \"#utility.yul\":12902:12905   */\n      0x00\n        /* \"#utility.yul\":12923:12990   */\n      tag_510\n        /* \"#utility.yul\":12987:12989   */\n      0x1c\n        /* \"#utility.yul\":12982:12985   */\n      dup4\n        /* \"#utility.yul\":12923:12990   */\n      tag_485\n      jump\t// in\n    tag_510:\n        /* \"#utility.yul\":12916:12990   */\n      swap2\n      pop\n        /* \"#utility.yul\":12999:13092   */\n      tag_511\n        /* \"#utility.yul\":13088:13091   */\n      dup3\n        /* \"#utility.yul\":12999:13092   */\n      tag_512\n      jump\t// in\n    tag_511:\n        /* \"#utility.yul\":13117:13119   */\n      0x20\n        /* \"#utility.yul\":13112:13115   */\n      dup3\n        /* \"#utility.yul\":13108:13120   */\n      add\n        /* \"#utility.yul\":13101:13120   */\n      swap1\n      pop\n        /* \"#utility.yul\":12760:13126   */\n      swap2\n      swap1\n      pop\n      jump\t// out\n        /* \"#utility.yul\":13132:13498   */\n    tag_513:\n        /* \"#utility.yul\":13274:13277   */\n      0x00\n        /* \"#utility.yul\":13295:13362   */\n      tag_515\n        /* \"#utility.yul\":13359:13361   */\n      0x15\n        /* \"#utility.yul\":13354:13357   */\n      dup4\n        /* \"#utility.yul\":13295:13362   */\n      tag_485\n      jump\t// in\n    tag_515:\n        /* \"#utility.yul\":13288:13362   */\n      swap2\n      pop\n        /* \"#utility.yul\":13371:13464   */\n      tag_516\n        /* \"#utility.yul\":13460:13463   */\n      dup3\n        /* \"#utility.yul\":13371:13464   */\n      tag_517\n      jump\t// in\n    tag_516:\n        /* \"#utility.yul\":13489:13491   */\n      0x20\n        /* \"#utility.yul\":13484:13487   */\n      dup3\n        /* \"#utility.yul\":13480:13492   */\n      add\n        /* \"#utility.yul\":13473:13492   */\n      swap1\n      pop\n        /* \"#utility.yul\":13132:13498   */\n      swap2\n      swap1\n      pop\n      jump\t// out\n        /* \"#utility.yul\":13504:13870   */\n    tag_518:\n        /* \"#utility.yul\":13646:13649   */\n      0x00\n        /* \"#utility.yul\":13667:13734   */\n      tag_520\n        /* \"#utility.yul\":13731:13733   */\n      0x1e\n        /* \"#utility.yul\":13726:13729   */\n      dup4\n        /* \"#utility.yul\":13667:13734   */\n      tag_485\n      jump\t// in\n    tag_520:\n        /* \"#utility.yul\":13660:13734   */\n      swap2\n      pop\n        /* \"#utility.yul\":13743:13836   */\n      tag_521\n        /* \"#utility.yul\":13832:13835   */\n      dup3\n        /* \"#utility.yul\":13743:13836   */\n      tag_522\n      jump\t// in\n    tag_521:\n        /* \"#utility.yul\":13861:13863   */\n      0x20\n        /* \"#utility.yul\":13856:13859   */\n      dup3\n        /* \"#utility.yul\":13852:13864   */\n      add\n        /* \"#utility.yul\":13845:13864   */\n      swap1\n      pop\n        /* \"#utility.yul\":13504:13870   */\n      swap2\n      swap1\n      pop\n      jump\t// out\n        /* \"#utility.yul\":13876:14242   */\n    tag_523:\n        /* \"#utility.yul\":14018:14021   */\n      0x00\n        /* \"#utility.yul\":14039:14106   */\n      tag_525\n        /* \"#utility.yul\":14103:14105   */\n      0x24\n        /* \"#utility.yul\":14098:14101   */\n      dup4\n        /* \"#utility.yul\":14039:14106   */\n      tag_485\n      jump\t// in\n    tag_525:\n        /* \"#utility.yul\":14032:14106   */\n      swap2\n      pop\n        /* \"#utility.yul\":14115:14208   */\n      tag_526\n        /* \"#utility.yul\":14204:14207   */\n      dup3\n        /* \"#utility.yul\":14115:14208   */\n      tag_527\n      jump\t// in\n    tag_526:\n        /* \"#utility.yul\":14233:14235   */\n      0x40\n        /* \"#utility.yul\":14228:14231   */\n      dup3\n        /* \"#utility.yul\":14224:14236   */\n      add\n        /* \"#utility.yul\":14217:14236   */\n      swap1\n      pop\n        /* \"#utility.yul\":13876:14242   */\n      swap2\n      swap1\n      pop\n      jump\t// out\n        /* \"#utility.yul\":14248:14614   */\n    tag_528:\n        /* \"#utility.yul\":14390:14393   */\n      0x00\n        /* \"#utility.yul\":14411:14478   */\n      tag_530\n        /* \"#utility.yul\":14475:14477   */\n      0x28\n        /* \"#utility.yul\":14470:14473   */\n      dup4\n        /* \"#utility.yul\":14411:14478   */\n      tag_485\n      jump\t// in\n    tag_530:\n        /* \"#utility.yul\":14404:14478   */\n      swap2\n      pop\n        /* \"#utility.yul\":14487:14580   */\n      tag_531\n        /* \"#utility.yul\":14576:14579   */\n      dup3\n        /* \"#utility.yul\":14487:14580   */\n      tag_532\n      jump\t// in\n    tag_531:\n        /* \"#utility.yul\":14605:14607   */\n      0x40\n        /* \"#utility.yul\":14600:14603   */\n      dup3\n        /* \"#utility.yul\":14596:14608   */\n      add\n        /* \"#utility.yul\":14589:14608   */\n      swap1\n      pop\n        /* \"#utility.yul\":14248:14614   */\n      swap2\n      swap1\n      pop\n      jump\t// out\n        /* \"#utility.yul\":14620:14986   */\n    tag_533:\n        /* \"#utility.yul\":14762:14765   */\n      0x00\n        /* \"#utility.yul\":14783:14850   */\n      tag_535\n        /* \"#utility.yul\":14847:14849   */\n      0x14\n        /* \"#utility.yul\":14842:14845   */\n      dup4\n        /* \"#utility.yul\":14783:14850   */\n      tag_485\n      jump\t// in\n    tag_535:\n        /* \"#utility.yul\":14776:14850   */\n      swap2\n      pop\n        /* \"#utility.yul\":14859:14952   */\n      tag_536\n        /* \"#utility.yul\":14948:14951   */\n      dup3\n        /* \"#utility.yul\":14859:14952   */\n      tag_537\n      jump\t// in\n    tag_536:\n        /* \"#utility.yul\":14977:14979   */\n      0x20\n        /* \"#utility.yul\":14972:14975   */\n      dup3\n        /* \"#utility.yul\":14968:14980   */\n      add\n        /* \"#utility.yul\":14961:14980   */\n      swap1\n      pop\n        /* \"#utility.yul\":14620:14986   */\n      swap2\n      swap1\n      pop\n      jump\t// out\n        /* \"#utility.yul\":14992:15358   */\n    tag_538:\n        /* \"#utility.yul\":15134:15137   */\n      0x00\n        /* \"#utility.yul\":15155:15222   */\n      tag_540\n        /* \"#utility.yul\":15219:15221   */\n      0x20\n        /* \"#utility.yul\":15214:15217   */\n      dup4\n        /* \"#utility.yul\":15155:15222   */\n      tag_485\n      jump\t// in\n    tag_540:\n        /* \"#utility.yul\":15148:15222   */\n      swap2\n      pop\n        /* \"#utility.yul\":15231:15324   */\n      tag_541\n        /* \"#utility.yul\":15320:15323   */\n      dup3\n        /* \"#utility.yul\":15231:15324   */\n      tag_542\n      jump\t// in\n    tag_541:\n        /* \"#utility.yul\":15349:15351   */\n      0x20\n        /* \"#utility.yul\":15344:15347   */\n      dup3\n        /* \"#utility.yul\":15340:15352   */\n      add\n        /* \"#utility.yul\":15333:15352   */\n      swap1\n      pop\n        /* \"#utility.yul\":14992:15358   */\n      swap2\n      swap1\n      pop\n      jump\t// out\n        /* \"#utility.yul\":15364:15730   */\n    tag_543:\n        /* \"#utility.yul\":15506:15509   */\n      0x00\n        /* \"#utility.yul\":15527:15594   */\n      tag_545\n        /* \"#utility.yul\":15591:15593   */\n      0x12\n        /* \"#utility.yul\":15586:15589   */\n      dup4\n        /* \"#utility.yul\":15527:15594   */\n      tag_485\n      jump\t// in\n    tag_545:\n        /* \"#utility.yul\":15520:15594   */\n      swap2\n      pop\n        /* \"#utility.yul\":15603:15696   */\n      tag_546\n        /* \"#utility.yul\":15692:15695   */\n      dup3\n        /* \"#utility.yul\":15603:15696   */\n      tag_547\n      jump\t// in\n    tag_546:\n        /* \"#utility.yul\":15721:15723   */\n      0x20\n        /* \"#utility.yul\":15716:15719   */\n      dup3\n        /* \"#utility.yul\":15712:15724   */\n      add\n        /* \"#utility.yul\":15705:15724   */\n      swap1\n      pop\n        /* \"#utility.yul\":15364:15730   */\n      swap2\n      swap1\n      pop\n      jump\t// out\n        /* \"#utility.yul\":15736:16102   */\n    tag_548:\n        /* \"#utility.yul\":15878:15881   */\n      0x00\n        /* \"#utility.yul\":15899:15966   */\n      tag_550\n        /* \"#utility.yul\":15963:15965   */\n      0x25\n        /* \"#utility.yul\":15958:15961   */\n      dup4\n        /* \"#utility.yul\":15899:15966   */\n      tag_485\n      jump\t// in\n    tag_550:\n        /* \"#utility.yul\":15892:15966   */\n      swap2\n      pop\n        /* \"#utility.yul\":15975:16068   */\n      tag_551\n        /* \"#utility.yul\":16064:16067   */\n      dup3\n        /* \"#utility.yul\":15975:16068   */\n      tag_552\n      jump\t// in\n    tag_551:\n        /* \"#utility.yul\":16093:16095   */\n      0x40\n        /* \"#utility.yul\":16088:16091   */\n      dup3\n        /* \"#utility.yul\":16084:16096   */\n      add\n        /* \"#utility.yul\":16077:16096   */\n      swap1\n      pop\n        /* \"#utility.yul\":15736:16102   */\n      swap2\n      swap1\n      pop\n      jump\t// out\n        /* \"#utility.yul\":16188:18769   */\n    tag_553:\n        /* \"#utility.yul\":16305:16308   */\n      0x00\n        /* \"#utility.yul\":16341:16347   */\n      0x0180\n        /* \"#utility.yul\":16336:16339   */\n      dup4\n        /* \"#utility.yul\":16332:16348   */\n      add\n        /* \"#utility.yul\":16435:16439   */\n      0x00\n        /* \"#utility.yul\":16428:16433   */\n      dup4\n        /* \"#utility.yul\":16424:16440   */\n      add\n        /* \"#utility.yul\":16418:16441   */\n      mload\n        /* \"#utility.yul\":16488:16491   */\n      dup5\n        /* \"#utility.yul\":16482:16486   */\n      dup3\n        /* \"#utility.yul\":16478:16492   */\n      sub\n        /* \"#utility.yul\":16471:16475   */\n      0x00\n        /* \"#utility.yul\":16466:16469   */\n      dup7\n        /* \"#utility.yul\":16462:16476   */\n      add\n        /* \"#utility.yul\":16455:16493   */\n      mstore\n        /* \"#utility.yul\":16514:16587   */\n      tag_555\n        /* \"#utility.yul\":16582:16586   */\n      dup3\n        /* \"#utility.yul\":16568:16580   */\n      dup3\n        /* \"#utility.yul\":16514:16587   */\n      tag_471\n      jump\t// in\n    tag_555:\n        /* \"#utility.yul\":16506:16587   */\n      swap2\n      pop\n        /* \"#utility.yul\":16358:16598   */\n      pop\n        /* \"#utility.yul\":16685:16689   */\n      0x20\n        /* \"#utility.yul\":16678:16683   */\n      dup4\n        /* \"#utility.yul\":16674:16690   */\n      add\n        /* \"#utility.yul\":16668:16691   */\n      mload\n        /* \"#utility.yul\":16704:16767   */\n      tag_556\n        /* \"#utility.yul\":16761:16765   */\n      0x20\n        /* \"#utility.yul\":16756:16759   */\n      dup7\n        /* \"#utility.yul\":16752:16766   */\n      add\n        /* \"#utility.yul\":16738:16750   */\n      dup3\n        /* \"#utility.yul\":16704:16767   */\n      tag_431\n      jump\t// in\n    tag_556:\n        /* \"#utility.yul\":16608:16777   */\n      pop\n        /* \"#utility.yul\":16870:16874   */\n      0x40\n        /* \"#utility.yul\":16863:16868   */\n      dup4\n        /* \"#utility.yul\":16859:16875   */\n      add\n        /* \"#utility.yul\":16853:16876   */\n      mload\n        /* \"#utility.yul\":16889:16952   */\n      tag_557\n        /* \"#utility.yul\":16946:16950   */\n      0x40\n        /* \"#utility.yul\":16941:16944   */\n      dup7\n        /* \"#utility.yul\":16937:16951   */\n      add\n        /* \"#utility.yul\":16923:16935   */\n      dup3\n        /* \"#utility.yul\":16889:16952   */\n      tag_431\n      jump\t// in\n    tag_557:\n        /* \"#utility.yul\":16787:16962   */\n      pop\n        /* \"#utility.yul\":17049:17053   */\n      0x60\n        /* \"#utility.yul\":17042:17047   */\n      dup4\n        /* \"#utility.yul\":17038:17054   */\n      add\n        /* \"#utility.yul\":17032:17055   */\n      mload\n        /* \"#utility.yul\":17068:17131   */\n      tag_558\n        /* \"#utility.yul\":17125:17129   */\n      0x60\n        /* \"#utility.yul\":17120:17123   */\n      dup7\n        /* \"#utility.yul\":17116:17130   */\n      add\n        /* \"#utility.yul\":17102:17114   */\n      dup3\n        /* \"#utility.yul\":17068:17131   */\n      tag_559\n      jump\t// in\n    tag_558:\n        /* \"#utility.yul\":16972:17141   */\n      pop\n        /* \"#utility.yul\":17229:17233   */\n      0x80\n        /* \"#utility.yul\":17222:17227   */\n      dup4\n        /* \"#utility.yul\":17218:17234   */\n      add\n        /* \"#utility.yul\":17212:17235   */\n      mload\n        /* \"#utility.yul\":17248:17311   */\n      tag_560\n        /* \"#utility.yul\":17305:17309   */\n      0x80\n        /* \"#utility.yul\":17300:17303   */\n      dup7\n        /* \"#utility.yul\":17296:17310   */\n      add\n        /* \"#utility.yul\":17282:17294   */\n      dup3\n        /* \"#utility.yul\":17248:17311   */\n      tag_559\n      jump\t// in\n    tag_560:\n        /* \"#utility.yul\":17151:17321   */\n      pop\n        /* \"#utility.yul\":17418:17422   */\n      0xa0\n        /* \"#utility.yul\":17411:17416   */\n      dup4\n        /* \"#utility.yul\":17407:17423   */\n      add\n        /* \"#utility.yul\":17401:17424   */\n      mload\n        /* \"#utility.yul\":17437:17500   */\n      tag_561\n        /* \"#utility.yul\":17494:17498   */\n      0xa0\n        /* \"#utility.yul\":17489:17492   */\n      dup7\n        /* \"#utility.yul\":17485:17499   */\n      add\n        /* \"#utility.yul\":17471:17483   */\n      dup3\n        /* \"#utility.yul\":17437:17500   */\n      tag_559\n      jump\t// in\n    tag_561:\n        /* \"#utility.yul\":17331:17510   */\n      pop\n        /* \"#utility.yul\":17600:17604   */\n      0xc0\n        /* \"#utility.yul\":17593:17598   */\n      dup4\n        /* \"#utility.yul\":17589:17605   */\n      add\n        /* \"#utility.yul\":17583:17606   */\n      mload\n        /* \"#utility.yul\":17619:17682   */\n      tag_562\n        /* \"#utility.yul\":17676:17680   */\n      0xc0\n        /* \"#utility.yul\":17671:17674   */\n      dup7\n        /* \"#utility.yul\":17667:17681   */\n      add\n        /* \"#utility.yul\":17653:17665   */\n      dup3\n        /* \"#utility.yul\":17619:17682   */\n      tag_559\n      jump\t// in\n    tag_562:\n        /* \"#utility.yul\":17520:17692   */\n      pop\n        /* \"#utility.yul\":17780:17784   */\n      0xe0\n        /* \"#utility.yul\":17773:17778   */\n      dup4\n        /* \"#utility.yul\":17769:17785   */\n      add\n        /* \"#utility.yul\":17763:17786   */\n      mload\n        /* \"#utility.yul\":17799:17856   */\n      tag_563\n        /* \"#utility.yul\":17850:17854   */\n      0xe0\n        /* \"#utility.yul\":17845:17848   */\n      dup7\n        /* \"#utility.yul\":17841:17855   */\n      add\n        /* \"#utility.yul\":17827:17839   */\n      dup3\n        /* \"#utility.yul\":17799:17856   */\n      tag_452\n      jump\t// in\n    tag_563:\n        /* \"#utility.yul\":17702:17866   */\n      pop\n        /* \"#utility.yul\":17956:17962   */\n      0x0100\n        /* \"#utility.yul\":17949:17954   */\n      dup4\n        /* \"#utility.yul\":17945:17963   */\n      add\n        /* \"#utility.yul\":17939:17964   */\n      mload\n        /* \"#utility.yul\":17977:18042   */\n      tag_564\n        /* \"#utility.yul\":18034:18040   */\n      0x0100\n        /* \"#utility.yul\":18029:18032   */\n      dup7\n        /* \"#utility.yul\":18025:18041   */\n      add\n        /* \"#utility.yul\":18011:18023   */\n      dup3\n        /* \"#utility.yul\":17977:18042   */\n      tag_459\n      jump\t// in\n    tag_564:\n        /* \"#utility.yul\":17876:18052   */\n      pop\n        /* \"#utility.yul\":18141:18147   */\n      0x0120\n        /* \"#utility.yul\":18134:18139   */\n      dup4\n        /* \"#utility.yul\":18130:18148   */\n      add\n        /* \"#utility.yul\":18124:18149   */\n      mload\n        /* \"#utility.yul\":18198:18201   */\n      dup5\n        /* \"#utility.yul\":18192:18196   */\n      dup3\n        /* \"#utility.yul\":18188:18202   */\n      sub\n        /* \"#utility.yul\":18179:18185   */\n      0x0120\n        /* \"#utility.yul\":18174:18177   */\n      dup7\n        /* \"#utility.yul\":18170:18186   */\n      add\n        /* \"#utility.yul\":18163:18203   */\n      mstore\n        /* \"#utility.yul\":18224:18297   */\n      tag_565\n        /* \"#utility.yul\":18292:18296   */\n      dup3\n        /* \"#utility.yul\":18278:18290   */\n      dup3\n        /* \"#utility.yul\":18224:18297   */\n      tag_471\n      jump\t// in\n    tag_565:\n        /* \"#utility.yul\":18216:18297   */\n      swap2\n      pop\n        /* \"#utility.yul\":18062:18308   */\n      pop\n        /* \"#utility.yul\":18393:18399   */\n      0x0140\n        /* \"#utility.yul\":18386:18391   */\n      dup4\n        /* \"#utility.yul\":18382:18400   */\n      add\n        /* \"#utility.yul\":18376:18401   */\n      mload\n        /* \"#utility.yul\":18450:18453   */\n      dup5\n        /* \"#utility.yul\":18444:18448   */\n      dup3\n        /* \"#utility.yul\":18440:18454   */\n      sub\n        /* \"#utility.yul\":18431:18437   */\n      0x0140\n        /* \"#utility.yul\":18426:18429   */\n      dup7\n        /* \"#utility.yul\":18422:18438   */\n      add\n        /* \"#utility.yul\":18415:18455   */\n      mstore\n        /* \"#utility.yul\":18476:18549   */\n      tag_566\n        /* \"#utility.yul\":18544:18548   */\n      dup3\n        /* \"#utility.yul\":18530:18542   */\n      dup3\n        /* \"#utility.yul\":18476:18549   */\n      tag_471\n      jump\t// in\n    tag_566:\n        /* \"#utility.yul\":18468:18549   */\n      swap2\n      pop\n        /* \"#utility.yul\":18318:18560   */\n      pop\n        /* \"#utility.yul\":18646:18652   */\n      0x0160\n        /* \"#utility.yul\":18639:18644   */\n      dup4\n        /* \"#utility.yul\":18635:18653   */\n      add\n        /* \"#utility.yul\":18629:18654   */\n      mload\n        /* \"#utility.yul\":18667:18732   */\n      tag_567\n        /* \"#utility.yul\":18724:18730   */\n      0x0160\n        /* \"#utility.yul\":18719:18722   */\n      dup7\n        /* \"#utility.yul\":18715:18731   */\n      add\n        /* \"#utility.yul\":18701:18713   */\n      dup3\n        /* \"#utility.yul\":18667:18732   */\n      tag_459\n      jump\t// in\n    tag_567:\n        /* \"#utility.yul\":18570:18742   */\n      pop\n        /* \"#utility.yul\":18759:18763   */\n      dup1\n        /* \"#utility.yul\":18752:18763   */\n      swap2\n      pop\n        /* \"#utility.yul\":16310:18769   */\n      pop\n        /* \"#utility.yul\":16188:18769   */\n      swap3\n      swap2\n      pop\n      pop\n      jump\t// out\n        /* \"#utility.yul\":18849:19504   */\n    tag_430:\n        /* \"#utility.yul\":18976:18980   */\n      0x60\n        /* \"#utility.yul\":18971:18974   */\n      dup3\n        /* \"#utility.yul\":18967:18981   */\n      add\n        /* \"#utility.yul\":19064:19068   */\n      0x00\n        /* \"#utility.yul\":19057:19062   */\n      dup3\n        /* \"#utility.yul\":19053:19069   */\n      add\n        /* \"#utility.yul\":19047:19070   */\n      mload\n        /* \"#utility.yul\":19083:19140   */\n      tag_569\n        /* \"#utility.yul\":19134:19138   */\n      0x00\n        /* \"#utility.yul\":19129:19132   */\n      dup6\n        /* \"#utility.yul\":19125:19139   */\n      add\n        /* \"#utility.yul\":19111:19123   */\n      dup3\n        /* \"#utility.yul\":19083:19140   */\n      tag_452\n      jump\t// in\n    tag_569:\n        /* \"#utility.yul\":18991:19150   */\n      pop\n        /* \"#utility.yul\":19232:19236   */\n      0x20\n        /* \"#utility.yul\":19225:19230   */\n      dup3\n        /* \"#utility.yul\":19221:19237   */\n      add\n        /* \"#utility.yul\":19215:19238   */\n      mload\n        /* \"#utility.yul\":19251:19308   */\n      tag_570\n        /* \"#utility.yul\":19302:19306   */\n      0x20\n        /* \"#utility.yul\":19297:19300   */\n      dup6\n        /* \"#utility.yul\":19293:19307   */\n      add\n        /* \"#utility.yul\":19279:19291   */\n      dup3\n        /* \"#utility.yul\":19251:19308   */\n      tag_452\n      jump\t// in\n    tag_570:\n        /* \"#utility.yul\":19160:19318   */\n      pop\n        /* \"#utility.yul\":19405:19409   */\n      0x40\n        /* \"#utility.yul\":19398:19403   */\n      dup3\n        /* \"#utility.yul\":19394:19410   */\n      add\n        /* \"#utility.yul\":19388:19411   */\n      mload\n        /* \"#utility.yul\":19424:19487   */\n      tag_571\n        /* \"#utility.yul\":19481:19485   */\n      0x40\n        /* \"#utility.yul\":19476:19479   */\n      dup6\n        /* \"#utility.yul\":19472:19486   */\n      add\n        /* \"#utility.yul\":19458:19470   */\n      dup3\n        /* \"#utility.yul\":19424:19487   */\n      tag_431\n      jump\t// in\n    tag_571:\n        /* \"#utility.yul\":19328:19497   */\n      pop\n        /* \"#utility.yul\":18945:19504   */\n      pop\n        /* \"#utility.yul\":18849:19504   */\n      pop\n      pop\n      jump\t// out\n        /* \"#utility.yul\":19510:19618   */\n    tag_559:\n        /* \"#utility.yul\":19587:19611   */\n      tag_573\n        /* \"#utility.yul\":19605:19610   */\n      dup2\n        /* \"#utility.yul\":19587:19611   */\n      tag_574\n      jump\t// in\n    tag_573:\n        /* \"#utility.yul\":19582:19585   */\n      dup3\n        /* \"#utility.yul\":19575:19612   */\n      mstore\n        /* \"#utility.yul\":19510:19618   */\n      pop\n      pop\n      jump\t// out\n        /* \"#utility.yul\":19624:19742   */\n    tag_575:\n        /* \"#utility.yul\":19711:19735   */\n      tag_577\n        /* \"#utility.yul\":19729:19734   */\n      dup2\n        /* \"#utility.yul\":19711:19735   */\n      tag_574\n      jump\t// in\n    tag_577:\n        /* \"#utility.yul\":19706:19709   */\n      dup3\n        /* \"#utility.yul\":19699:19736   */\n      mstore\n        /* \"#utility.yul\":19624:19742   */\n      pop\n      pop\n      jump\t// out\n        /* \"#utility.yul\":19748:20043   */\n    tag_114:\n        /* \"#utility.yul\":19890:19893   */\n      0x00\n        /* \"#utility.yul\":19912:20017   */\n      tag_579\n        /* \"#utility.yul\":20013:20016   */\n      dup3\n        /* \"#utility.yul\":20004:20010   */\n      dup5\n        /* \"#utility.yul\":19996:20002   */\n      dup7\n        /* \"#utility.yul\":19912:20017   */\n      tag_466\n      jump\t// in\n    tag_579:\n        /* \"#utility.yul\":19905:20017   */\n      swap2\n      pop\n        /* \"#utility.yul\":20034:20037   */\n      dup2\n        /* \"#utility.yul\":20027:20037   */\n      swap1\n      pop\n        /* \"#utility.yul\":19748:20043   */\n      swap4\n      swap3\n      pop\n      pop\n      pop\n      jump\t// out\n        /* \"#utility.yul\":20049:20324   */\n    tag_202:\n        /* \"#utility.yul\":20181:20184   */\n      0x00\n        /* \"#utility.yul\":20203:20298   */\n      tag_581\n        /* \"#utility.yul\":20294:20297   */\n      dup3\n        /* \"#utility.yul\":20285:20291   */\n      dup5\n        /* \"#utility.yul\":20203:20298   */\n      tag_488\n      jump\t// in\n    tag_581:\n        /* \"#utility.yul\":20196:20298   */\n      swap2\n      pop\n        /* \"#utility.yul\":20315:20318   */\n      dup2\n        /* \"#utility.yul\":20308:20318   */\n      swap1\n      pop\n        /* \"#utility.yul\":20049:20324   */\n      swap3\n      swap2\n      pop\n      pop\n      jump\t// out\n        /* \"#utility.yul\":20330:20552   */\n    tag_26:\n        /* \"#utility.yul\":20423:20427   */\n      0x00\n        /* \"#utility.yul\":20461:20463   */\n      0x20\n        /* \"#utility.yul\":20450:20459   */\n      dup3\n        /* \"#utility.yul\":20446:20464   */\n      add\n        /* \"#utility.yul\":20438:20464   */\n      swap1\n      pop\n        /* \"#utility.yul\":20474:20545   */\n      tag_583\n        /* \"#utility.yul\":20542:20543   */\n      0x00\n        /* \"#utility.yul\":20531:20540   */\n      dup4\n        /* \"#utility.yul\":20527:20544   */\n      add\n        /* \"#utility.yul\":20518:20524   */\n      dup5\n        /* \"#utility.yul\":20474:20545   */\n      tag_435\n      jump\t// in\n    tag_583:\n        /* \"#utility.yul\":20330:20552   */\n      swap3\n      swap2\n      pop\n      pop\n      jump\t// out\n        /* \"#utility.yul\":20558:20768   */\n    tag_93:\n        /* \"#utility.yul\":20645:20649   */\n      0x00\n        /* \"#utility.yul\":20683:20685   */\n      0x20\n        /* \"#utility.yul\":20672:20681   */\n      dup3\n        /* \"#utility.yul\":20668:20686   */\n      add\n        /* \"#utility.yul\":20660:20686   */\n      swap1\n      pop\n        /* \"#utility.yul\":20696:20761   */\n      tag_585\n        /* \"#utility.yul\":20758:20759   */\n      0x00\n        /* \"#utility.yul\":20747:20756   */\n      dup4\n        /* \"#utility.yul\":20743:20760   */\n      add\n        /* \"#utility.yul\":20734:20740   */\n      dup5\n        /* \"#utility.yul\":20696:20761   */\n      tag_456\n      jump\t// in\n    tag_585:\n        /* \"#utility.yul\":20558:20768   */\n      swap3\n      swap2\n      pop\n      pop\n      jump\t// out\n        /* \"#utility.yul\":20774:21192   */\n    tag_42:\n        /* \"#utility.yul\":20911:20915   */\n      0x00\n        /* \"#utility.yul\":20949:20951   */\n      0x60\n        /* \"#utility.yul\":20938:20947   */\n      dup3\n        /* \"#utility.yul\":20934:20952   */\n      add\n        /* \"#utility.yul\":20926:20952   */\n      swap1\n      pop\n        /* \"#utility.yul\":20962:21027   */\n      tag_587\n        /* \"#utility.yul\":21024:21025   */\n      0x00\n        /* \"#utility.yul\":21013:21022   */\n      dup4\n        /* \"#utility.yul\":21009:21026   */\n      add\n        /* \"#utility.yul\":21000:21006   */\n      dup7\n        /* \"#utility.yul\":20962:21027   */\n      tag_456\n      jump\t// in\n    tag_587:\n        /* \"#utility.yul\":21037:21103   */\n      tag_588\n        /* \"#utility.yul\":21099:21101   */\n      0x20\n        /* \"#utility.yul\":21088:21097   */\n      dup4\n        /* \"#utility.yul\":21084:21102   */\n      add\n        /* \"#utility.yul\":21075:21081   */\n      dup6\n        /* \"#utility.yul\":21037:21103   */\n      tag_456\n      jump\t// in\n    tag_588:\n        /* \"#utility.yul\":21113:21185   */\n      tag_589\n        /* \"#utility.yul\":21181:21183   */\n      0x40\n        /* \"#utility.yul\":21170:21179   */\n      dup4\n        /* \"#utility.yul\":21166:21184   */\n      add\n        /* \"#utility.yul\":21157:21163   */\n      dup5\n        /* \"#utility.yul\":21113:21185   */\n      tag_435\n      jump\t// in\n    tag_589:\n        /* \"#utility.yul\":20774:21192   */\n      swap5\n      swap4\n      pop\n      pop\n      pop\n      pop\n      jump\t// out\n        /* \"#utility.yul\":21198:21604   */\n    tag_78:\n        /* \"#utility.yul\":21329:21333   */\n      0x00\n        /* \"#utility.yul\":21367:21369   */\n      0x60\n        /* \"#utility.yul\":21356:21365   */\n      dup3\n        /* \"#utility.yul\":21352:21370   */\n      add\n        /* \"#utility.yul\":21344:21370   */\n      swap1\n      pop\n        /* \"#utility.yul\":21380:21445   */\n      tag_591\n        /* \"#utility.yul\":21442:21443   */\n      0x00\n        /* \"#utility.yul\":21431:21440   */\n      dup4\n        /* \"#utility.yul\":21427:21444   */\n      add\n        /* \"#utility.yul\":21418:21424   */\n      dup7\n        /* \"#utility.yul\":21380:21445   */\n      tag_456\n      jump\t// in\n    tag_591:\n        /* \"#utility.yul\":21455:21521   */\n      tag_592\n        /* \"#utility.yul\":21517:21519   */\n      0x20\n        /* \"#utility.yul\":21506:21515   */\n      dup4\n        /* \"#utility.yul\":21502:21520   */\n      add\n        /* \"#utility.yul\":21493:21499   */\n      dup6\n        /* \"#utility.yul\":21455:21521   */\n      tag_456\n      jump\t// in\n    tag_592:\n        /* \"#utility.yul\":21531:21597   */\n      tag_593\n        /* \"#utility.yul\":21593:21595   */\n      0x40\n        /* \"#utility.yul\":21582:21591   */\n      dup4\n        /* \"#utility.yul\":21578:21596   */\n      add\n        /* \"#utility.yul\":21569:21575   */\n      dup5\n        /* \"#utility.yul\":21531:21597   */\n      tag_456\n      jump\t// in\n    tag_593:\n        /* \"#utility.yul\":21198:21604   */\n      swap5\n      swap4\n      pop\n      pop\n      pop\n      pop\n      jump\t// out\n        /* \"#utility.yul\":21610:22485   */\n    tag_48:\n        /* \"#utility.yul\":21897:21901   */\n      0x00\n        /* \"#utility.yul\":21935:21938   */\n      0x80\n        /* \"#utility.yul\":21924:21933   */\n      dup3\n        /* \"#utility.yul\":21920:21939   */\n      add\n        /* \"#utility.yul\":21912:21939   */\n      swap1\n      pop\n        /* \"#utility.yul\":21949:22020   */\n      tag_595\n        /* \"#utility.yul\":22017:22018   */\n      0x00\n        /* \"#utility.yul\":22006:22015   */\n      dup4\n        /* \"#utility.yul\":22002:22019   */\n      add\n        /* \"#utility.yul\":21993:21999   */\n      dup8\n        /* \"#utility.yul\":21949:22020   */\n      tag_463\n      jump\t// in\n    tag_595:\n        /* \"#utility.yul\":22067:22076   */\n      dup2\n        /* \"#utility.yul\":22061:22065   */\n      dup2\n        /* \"#utility.yul\":22057:22077   */\n      sub\n        /* \"#utility.yul\":22052:22054   */\n      0x20\n        /* \"#utility.yul\":22041:22050   */\n      dup4\n        /* \"#utility.yul\":22037:22055   */\n      add\n        /* \"#utility.yul\":22030:22078   */\n      mstore\n        /* \"#utility.yul\":22095:22173   */\n      tag_596\n        /* \"#utility.yul\":22168:22172   */\n      dup2\n        /* \"#utility.yul\":22159:22165   */\n      dup7\n        /* \"#utility.yul\":22095:22173   */\n      tag_481\n      jump\t// in\n    tag_596:\n        /* \"#utility.yul\":22087:22173   */\n      swap1\n      pop\n        /* \"#utility.yul\":22183:22255   */\n      tag_597\n        /* \"#utility.yul\":22251:22253   */\n      0x40\n        /* \"#utility.yul\":22240:22249   */\n      dup4\n        /* \"#utility.yul\":22236:22254   */\n      add\n        /* \"#utility.yul\":22227:22233   */\n      dup6\n        /* \"#utility.yul\":22183:22255   */\n      tag_575\n      jump\t// in\n    tag_597:\n        /* \"#utility.yul\":22302:22311   */\n      dup2\n        /* \"#utility.yul\":22296:22300   */\n      dup2\n        /* \"#utility.yul\":22292:22312   */\n      sub\n        /* \"#utility.yul\":22287:22289   */\n      0x60\n        /* \"#utility.yul\":22276:22285   */\n      dup4\n        /* \"#utility.yul\":22272:22290   */\n      add\n        /* \"#utility.yul\":22265:22313   */\n      mstore\n        /* \"#utility.yul\":22330:22478   */\n      tag_598\n        /* \"#utility.yul\":22473:22477   */\n      dup2\n        /* \"#utility.yul\":22464:22470   */\n      dup5\n        /* \"#utility.yul\":22330:22478   */\n      tag_438\n      jump\t// in\n    tag_598:\n        /* \"#utility.yul\":22322:22478   */\n      swap1\n      pop\n        /* \"#utility.yul\":21610:22485   */\n      swap6\n      swap5\n      pop\n      pop\n      pop\n      pop\n      pop\n      jump\t// out\n        /* \"#utility.yul\":22491:22804   */\n    tag_83:\n        /* \"#utility.yul\":22604:22608   */\n      0x00\n        /* \"#utility.yul\":22642:22644   */\n      0x20\n        /* \"#utility.yul\":22631:22640   */\n      dup3\n        /* \"#utility.yul\":22627:22645   */\n      add\n        /* \"#utility.yul\":22619:22645   */\n      swap1\n      pop\n        /* \"#utility.yul\":22691:22700   */\n      dup2\n        /* \"#utility.yul\":22685:22689   */\n      dup2\n        /* \"#utility.yul\":22681:22701   */\n      sub\n        /* \"#utility.yul\":22677:22678   */\n      0x00\n        /* \"#utility.yul\":22666:22675   */\n      dup4\n        /* \"#utility.yul\":22662:22679   */\n      add\n        /* \"#utility.yul\":22655:22702   */\n      mstore\n        /* \"#utility.yul\":22719:22797   */\n      tag_600\n        /* \"#utility.yul\":22792:22796   */\n      dup2\n        /* \"#utility.yul\":22783:22789   */\n      dup5\n        /* \"#utility.yul\":22719:22797   */\n      tag_481\n      jump\t// in\n    tag_600:\n        /* \"#utility.yul\":22711:22797   */\n      swap1\n      pop\n        /* \"#utility.yul\":22491:22804   */\n      swap3\n      swap2\n      pop\n      pop\n      jump\t// out\n        /* \"#utility.yul\":22810:24516   */\n    tag_32:\n        /* \"#utility.yul\":23267:23271   */\n      0x00\n        /* \"#utility.yul\":23305:23308   */\n      0x0180\n        /* \"#utility.yul\":23294:23303   */\n      dup3\n        /* \"#utility.yul\":23290:23309   */\n      add\n        /* \"#utility.yul\":23282:23309   */\n      swap1\n      pop\n        /* \"#utility.yul\":23355:23364   */\n      dup2\n        /* \"#utility.yul\":23349:23353   */\n      dup2\n        /* \"#utility.yul\":23345:23365   */\n      sub\n        /* \"#utility.yul\":23341:23342   */\n      0x00\n        /* \"#utility.yul\":23330:23339   */\n      dup4\n        /* \"#utility.yul\":23326:23343   */\n      add\n        /* \"#utility.yul\":23319:23366   */\n      mstore\n        /* \"#utility.yul\":23383:23461   */\n      tag_602\n        /* \"#utility.yul\":23456:23460   */\n      dup2\n        /* \"#utility.yul\":23447:23453   */\n      dup16\n        /* \"#utility.yul\":23383:23461   */\n      tag_481\n      jump\t// in\n    tag_602:\n        /* \"#utility.yul\":23375:23461   */\n      swap1\n      pop\n        /* \"#utility.yul\":23471:23543   */\n      tag_603\n        /* \"#utility.yul\":23539:23541   */\n      0x20\n        /* \"#utility.yul\":23528:23537   */\n      dup4\n        /* \"#utility.yul\":23524:23542   */\n      add\n        /* \"#utility.yul\":23515:23521   */\n      dup15\n        /* \"#utility.yul\":23471:23543   */\n      tag_435\n      jump\t// in\n    tag_603:\n        /* \"#utility.yul\":23553:23625   */\n      tag_604\n        /* \"#utility.yul\":23621:23623   */\n      0x40\n        /* \"#utility.yul\":23610:23619   */\n      dup4\n        /* \"#utility.yul\":23606:23624   */\n      add\n        /* \"#utility.yul\":23597:23603   */\n      dup14\n        /* \"#utility.yul\":23553:23625   */\n      tag_435\n      jump\t// in\n    tag_604:\n        /* \"#utility.yul\":23635:23707   */\n      tag_605\n        /* \"#utility.yul\":23703:23705   */\n      0x60\n        /* \"#utility.yul\":23692:23701   */\n      dup4\n        /* \"#utility.yul\":23688:23706   */\n      add\n        /* \"#utility.yul\":23679:23685   */\n      dup13\n        /* \"#utility.yul\":23635:23707   */\n      tag_575\n      jump\t// in\n    tag_605:\n        /* \"#utility.yul\":23717:23790   */\n      tag_606\n        /* \"#utility.yul\":23785:23788   */\n      0x80\n        /* \"#utility.yul\":23774:23783   */\n      dup4\n        /* \"#utility.yul\":23770:23789   */\n      add\n        /* \"#utility.yul\":23761:23767   */\n      dup12\n        /* \"#utility.yul\":23717:23790   */\n      tag_575\n      jump\t// in\n    tag_606:\n        /* \"#utility.yul\":23800:23873   */\n      tag_607\n        /* \"#utility.yul\":23868:23871   */\n      0xa0\n        /* \"#utility.yul\":23857:23866   */\n      dup4\n        /* \"#utility.yul\":23853:23872   */\n      add\n        /* \"#utility.yul\":23844:23850   */\n      dup11\n        /* \"#utility.yul\":23800:23873   */\n      tag_575\n      jump\t// in\n    tag_607:\n        /* \"#utility.yul\":23883:23956   */\n      tag_608\n        /* \"#utility.yul\":23951:23954   */\n      0xc0\n        /* \"#utility.yul\":23940:23949   */\n      dup4\n        /* \"#utility.yul\":23936:23955   */\n      add\n        /* \"#utility.yul\":23927:23933   */\n      dup10\n        /* \"#utility.yul\":23883:23956   */\n      tag_575\n      jump\t// in\n    tag_608:\n        /* \"#utility.yul\":23966:24033   */\n      tag_609\n        /* \"#utility.yul\":24028:24031   */\n      0xe0\n        /* \"#utility.yul\":24017:24026   */\n      dup4\n        /* \"#utility.yul\":24013:24032   */\n      add\n        /* \"#utility.yul\":24004:24010   */\n      dup9\n        /* \"#utility.yul\":23966:24033   */\n      tag_456\n      jump\t// in\n    tag_609:\n        /* \"#utility.yul\":24043:24116   */\n      tag_610\n        /* \"#utility.yul\":24111:24114   */\n      0x0100\n        /* \"#utility.yul\":24100:24109   */\n      dup4\n        /* \"#utility.yul\":24096:24115   */\n      add\n        /* \"#utility.yul\":24087:24093   */\n      dup8\n        /* \"#utility.yul\":24043:24116   */\n      tag_463\n      jump\t// in\n    tag_610:\n        /* \"#utility.yul\":24164:24173   */\n      dup2\n        /* \"#utility.yul\":24158:24162   */\n      dup2\n        /* \"#utility.yul\":24154:24174   */\n      sub\n        /* \"#utility.yul\":24148:24151   */\n      0x0120\n        /* \"#utility.yul\":24137:24146   */\n      dup4\n        /* \"#utility.yul\":24133:24152   */\n      add\n        /* \"#utility.yul\":24126:24175   */\n      mstore\n        /* \"#utility.yul\":24192:24270   */\n      tag_611\n        /* \"#utility.yul\":24265:24269   */\n      dup2\n        /* \"#utility.yul\":24256:24262   */\n      dup7\n        /* \"#utility.yul\":24192:24270   */\n      tag_481\n      jump\t// in\n    tag_611:\n        /* \"#utility.yul\":24184:24270   */\n      swap1\n      pop\n        /* \"#utility.yul\":24318:24327   */\n      dup2\n        /* \"#utility.yul\":24312:24316   */\n      dup2\n        /* \"#utility.yul\":24308:24328   */\n      sub\n        /* \"#utility.yul\":24302:24305   */\n      0x0140\n        /* \"#utility.yul\":24291:24300   */\n      dup4\n        /* \"#utility.yul\":24287:24306   */\n      add\n        /* \"#utility.yul\":24280:24329   */\n      mstore\n        /* \"#utility.yul\":24346:24425   */\n      tag_612\n        /* \"#utility.yul\":24420:24424   */\n      dup2\n        /* \"#utility.yul\":24410:24417   */\n      dup6\n        /* \"#utility.yul\":24346:24425   */\n      tag_481\n      jump\t// in\n    tag_612:\n        /* \"#utility.yul\":24338:24425   */\n      swap1\n      pop\n        /* \"#utility.yul\":24435:24509   */\n      tag_613\n        /* \"#utility.yul\":24504:24507   */\n      0x0160\n        /* \"#utility.yul\":24493:24502   */\n      dup4\n        /* \"#utility.yul\":24489:24508   */\n      add\n        /* \"#utility.yul\":24479:24486   */\n      dup5\n        /* \"#utility.yul\":24435:24509   */\n      tag_463\n      jump\t// in\n    tag_613:\n        /* \"#utility.yul\":22810:24516   */\n      swap14\n      swap13\n      pop\n      pop\n      pop\n      pop\n      pop\n      pop\n      pop\n      pop\n      pop\n      pop\n      pop\n      pop\n      pop\n      jump\t// out\n        /* \"#utility.yul\":24522:25277   */\n    tag_57:\n        /* \"#utility.yul\":24747:24751   */\n      0x00\n        /* \"#utility.yul\":24785:24788   */\n      0xa0\n        /* \"#utility.yul\":24774:24783   */\n      dup3\n        /* \"#utility.yul\":24770:24789   */\n      add\n        /* \"#utility.yul\":24762:24789   */\n      swap1\n      pop\n        /* \"#utility.yul\":24835:24844   */\n      dup2\n        /* \"#utility.yul\":24829:24833   */\n      dup2\n        /* \"#utility.yul\":24825:24845   */\n      sub\n        /* \"#utility.yul\":24821:24822   */\n      0x00\n        /* \"#utility.yul\":24810:24819   */\n      dup4\n        /* \"#utility.yul\":24806:24823   */\n      add\n        /* \"#utility.yul\":24799:24846   */\n      mstore\n        /* \"#utility.yul\":24863:24941   */\n      tag_615\n        /* \"#utility.yul\":24936:24940   */\n      dup2\n        /* \"#utility.yul\":24927:24933   */\n      dup9\n        /* \"#utility.yul\":24863:24941   */\n      tag_481\n      jump\t// in\n    tag_615:\n        /* \"#utility.yul\":24855:24941   */\n      swap1\n      pop\n        /* \"#utility.yul\":24951:25023   */\n      tag_616\n        /* \"#utility.yul\":25019:25021   */\n      0x20\n        /* \"#utility.yul\":25008:25017   */\n      dup4\n        /* \"#utility.yul\":25004:25022   */\n      add\n        /* \"#utility.yul\":24995:25001   */\n      dup8\n        /* \"#utility.yul\":24951:25023   */\n      tag_575\n      jump\t// in\n    tag_616:\n        /* \"#utility.yul\":25033:25105   */\n      tag_617\n        /* \"#utility.yul\":25101:25103   */\n      0x40\n        /* \"#utility.yul\":25090:25099   */\n      dup4\n        /* \"#utility.yul\":25086:25104   */\n      add\n        /* \"#utility.yul\":25077:25083   */\n      dup7\n        /* \"#utility.yul\":25033:25105   */\n      tag_435\n      jump\t// in\n    tag_617:\n        /* \"#utility.yul\":25115:25187   */\n      tag_618\n        /* \"#utility.yul\":25183:25185   */\n      0x60\n        /* \"#utility.yul\":25172:25181   */\n      dup4\n        /* \"#utility.yul\":25168:25186   */\n      add\n        /* \"#utility.yul\":25159:25165   */\n      dup6\n        /* \"#utility.yul\":25115:25187   */\n      tag_575\n      jump\t// in\n    tag_618:\n        /* \"#utility.yul\":25197:25270   */\n      tag_619\n        /* \"#utility.yul\":25265:25268   */\n      0x80\n        /* \"#utility.yul\":25254:25263   */\n      dup4\n        /* \"#utility.yul\":25250:25269   */\n      add\n        /* \"#utility.yul\":25241:25247   */\n      dup5\n        /* \"#utility.yul\":25197:25270   */\n      tag_575\n      jump\t// in\n    tag_619:\n        /* \"#utility.yul\":24522:25277   */\n      swap7\n      swap6\n      pop\n      pop\n      pop\n      pop\n      pop\n      pop\n      jump\t// out\n        /* \"#utility.yul\":25283:25702   */\n    tag_181:\n        /* \"#utility.yul\":25449:25453   */\n      0x00\n        /* \"#utility.yul\":25487:25489   */\n      0x20\n        /* \"#utility.yul\":25476:25485   */\n      dup3\n        /* \"#utility.yul\":25472:25490   */\n      add\n        /* \"#utility.yul\":25464:25490   */\n      swap1\n      pop\n        /* \"#utility.yul\":25536:25545   */\n      dup2\n        /* \"#utility.yul\":25530:25534   */\n      dup2\n        /* \"#utility.yul\":25526:25546   */\n      sub\n        /* \"#utility.yul\":25522:25523   */\n      0x00\n        /* \"#utility.yul\":25511:25520   */\n      dup4\n        /* \"#utility.yul\":25507:25524   */\n      add\n        /* \"#utility.yul\":25500:25547   */\n      mstore\n        /* \"#utility.yul\":25564:25695   */\n      tag_621\n        /* \"#utility.yul\":25690:25694   */\n      dup2\n        /* \"#utility.yul\":25564:25695   */\n      tag_493\n      jump\t// in\n    tag_621:\n        /* \"#utility.yul\":25556:25695   */\n      swap1\n      pop\n        /* \"#utility.yul\":25283:25702   */\n      swap2\n      swap1\n      pop\n      jump\t// out\n        /* \"#utility.yul\":25708:26127   */\n    tag_205:\n        /* \"#utility.yul\":25874:25878   */\n      0x00\n        /* \"#utility.yul\":25912:25914   */\n      0x20\n        /* \"#utility.yul\":25901:25910   */\n      dup3\n        /* \"#utility.yul\":25897:25915   */\n      add\n        /* \"#utility.yul\":25889:25915   */\n      swap1\n      pop\n        /* \"#utility.yul\":25961:25970   */\n      dup2\n        /* \"#utility.yul\":25955:25959   */\n      dup2\n        /* \"#utility.yul\":25951:25971   */\n      sub\n        /* \"#utility.yul\":25947:25948   */\n      0x00\n        /* \"#utility.yul\":25936:25945   */\n      dup4\n        /* \"#utility.yul\":25932:25949   */\n      add\n        /* \"#utility.yul\":25925:25972   */\n      mstore\n        /* \"#utility.yul\":25989:26120   */\n      tag_623\n        /* \"#utility.yul\":26115:26119   */\n      dup2\n        /* \"#utility.yul\":25989:26120   */\n      tag_498\n      jump\t// in\n    tag_623:\n        /* \"#utility.yul\":25981:26120   */\n      swap1\n      pop\n        /* \"#utility.yul\":25708:26127   */\n      swap2\n      swap1\n      pop\n      jump\t// out\n        /* \"#utility.yul\":26133:26552   */\n    tag_233:\n        /* \"#utility.yul\":26299:26303   */\n      0x00\n        /* \"#utility.yul\":26337:26339   */\n      0x20\n        /* \"#utility.yul\":26326:26335   */\n      dup3\n        /* \"#utility.yul\":26322:26340   */\n      add\n        /* \"#utility.yul\":26314:26340   */\n      swap1\n      pop\n        /* \"#utility.yul\":26386:26395   */\n      dup2\n        /* \"#utility.yul\":26380:26384   */\n      dup2\n        /* \"#utility.yul\":26376:26396   */\n      sub\n        /* \"#utility.yul\":26372:26373   */\n      0x00\n        /* \"#utility.yul\":26361:26370   */\n      dup4\n        /* \"#utility.yul\":26357:26374   */\n      add\n        /* \"#utility.yul\":26350:26397   */\n      mstore\n        /* \"#utility.yul\":26414:26545   */\n      tag_625\n        /* \"#utility.yul\":26540:26544   */\n      dup2\n        /* \"#utility.yul\":26414:26545   */\n      tag_503\n      jump\t// in\n    tag_625:\n        /* \"#utility.yul\":26406:26545   */\n      swap1\n      pop\n        /* \"#utility.yul\":26133:26552   */\n      swap2\n      swap1\n      pop\n      jump\t// out\n        /* \"#utility.yul\":26558:26977   */\n    tag_125:\n        /* \"#utility.yul\":26724:26728   */\n      0x00\n        /* \"#utility.yul\":26762:26764   */\n      0x20\n        /* \"#utility.yul\":26751:26760   */\n      dup3\n        /* \"#utility.yul\":26747:26765   */\n      add\n        /* \"#utility.yul\":26739:26765   */\n      swap1\n      pop\n        /* \"#utility.yul\":26811:26820   */\n      dup2\n        /* \"#utility.yul\":26805:26809   */\n      dup2\n        /* \"#utility.yul\":26801:26821   */\n      sub\n        /* \"#utility.yul\":26797:26798   */\n      0x00\n        /* \"#utility.yul\":26786:26795   */\n      dup4\n        /* \"#utility.yul\":26782:26799   */\n      add\n        /* \"#utility.yul\":26775:26822   */\n      mstore\n        /* \"#utility.yul\":26839:26970   */\n      tag_627\n        /* \"#utility.yul\":26965:26969   */\n      dup2\n        /* \"#utility.yul\":26839:26970   */\n      tag_508\n      jump\t// in\n    tag_627:\n        /* \"#utility.yul\":26831:26970   */\n      swap1\n      pop\n        /* \"#utility.yul\":26558:26977   */\n      swap2\n      swap1\n      pop\n      jump\t// out\n        /* \"#utility.yul\":26983:27402   */\n    tag_177:\n        /* \"#utility.yul\":27149:27153   */\n      0x00\n        /* \"#utility.yul\":27187:27189   */\n      0x20\n        /* \"#utility.yul\":27176:27185   */\n      dup3\n        /* \"#utility.yul\":27172:27190   */\n      add\n        /* \"#utility.yul\":27164:27190   */\n      swap1\n      pop\n        /* \"#utility.yul\":27236:27245   */\n      dup2\n        /* \"#utility.yul\":27230:27234   */\n      dup2\n        /* \"#utility.yul\":27226:27246   */\n      sub\n        /* \"#utility.yul\":27222:27223   */\n      0x00\n        /* \"#utility.yul\":27211:27220   */\n      dup4\n        /* \"#utility.yul\":27207:27224   */\n      add\n        /* \"#utility.yul\":27200:27247   */\n      mstore\n        /* \"#utility.yul\":27264:27395   */\n      tag_629\n        /* \"#utility.yul\":27390:27394   */\n      dup2\n        /* \"#utility.yul\":27264:27395   */\n      tag_513\n      jump\t// in\n    tag_629:\n        /* \"#utility.yul\":27256:27395   */\n      swap1\n      pop\n        /* \"#utility.yul\":26983:27402   */\n      swap2\n      swap1\n      pop\n      jump\t// out\n        /* \"#utility.yul\":27408:27827   */\n    tag_121:\n        /* \"#utility.yul\":27574:27578   */\n      0x00\n        /* \"#utility.yul\":27612:27614   */\n      0x20\n        /* \"#utility.yul\":27601:27610   */\n      dup3\n        /* \"#utility.yul\":27597:27615   */\n      add\n        /* \"#utility.yul\":27589:27615   */\n      swap1\n      pop\n        /* \"#utility.yul\":27661:27670   */\n      dup2\n        /* \"#utility.yul\":27655:27659   */\n      dup2\n        /* \"#utility.yul\":27651:27671   */\n      sub\n        /* \"#utility.yul\":27647:27648   */\n      0x00\n        /* \"#utility.yul\":27636:27645   */\n      dup4\n        /* \"#utility.yul\":27632:27649   */\n      add\n        /* \"#utility.yul\":27625:27672   */\n      mstore\n        /* \"#utility.yul\":27689:27820   */\n      tag_631\n        /* \"#utility.yul\":27815:27819   */\n      dup2\n        /* \"#utility.yul\":27689:27820   */\n      tag_518\n      jump\t// in\n    tag_631:\n        /* \"#utility.yul\":27681:27820   */\n      swap1\n      pop\n        /* \"#utility.yul\":27408:27827   */\n      swap2\n      swap1\n      pop\n      jump\t// out\n        /* \"#utility.yul\":27833:28252   */\n    tag_185:\n        /* \"#utility.yul\":27999:28003   */\n      0x00\n        /* \"#utility.yul\":28037:28039   */\n      0x20\n        /* \"#utility.yul\":28026:28035   */\n      dup3\n        /* \"#utility.yul\":28022:28040   */\n      add\n        /* \"#utility.yul\":28014:28040   */\n      swap1\n      pop\n        /* \"#utility.yul\":28086:28095   */\n      dup2\n        /* \"#utility.yul\":28080:28084   */\n      dup2\n        /* \"#utility.yul\":28076:28096   */\n      sub\n        /* \"#utility.yul\":28072:28073   */\n      0x00\n        /* \"#utility.yul\":28061:28070   */\n      dup4\n        /* \"#utility.yul\":28057:28074   */\n      add\n        /* \"#utility.yul\":28050:28097   */\n      mstore\n        /* \"#utility.yul\":28114:28245   */\n      tag_633\n        /* \"#utility.yul\":28240:28244   */\n      dup2\n        /* \"#utility.yul\":28114:28245   */\n      tag_523\n      jump\t// in\n    tag_633:\n        /* \"#utility.yul\":28106:28245   */\n      swap1\n      pop\n        /* \"#utility.yul\":27833:28252   */\n      swap2\n      swap1\n      pop\n      jump\t// out\n        /* \"#utility.yul\":28258:28677   */\n    tag_173:\n        /* \"#utility.yul\":28424:28428   */\n      0x00\n        /* \"#utility.yul\":28462:28464   */\n      0x20\n        /* \"#utility.yul\":28451:28460   */\n      dup3\n        /* \"#utility.yul\":28447:28465   */\n      add\n        /* \"#utility.yul\":28439:28465   */\n      swap1\n      pop\n        /* \"#utility.yul\":28511:28520   */\n      dup2\n        /* \"#utility.yul\":28505:28509   */\n      dup2\n        /* \"#utility.yul\":28501:28521   */\n      sub\n        /* \"#utility.yul\":28497:28498   */\n      0x00\n        /* \"#utility.yul\":28486:28495   */\n      dup4\n        /* \"#utility.yul\":28482:28499   */\n      add\n        /* \"#utility.yul\":28475:28522   */\n      mstore\n        /* \"#utility.yul\":28539:28670   */\n      tag_635\n        /* \"#utility.yul\":28665:28669   */\n      dup2\n        /* \"#utility.yul\":28539:28670   */\n      tag_528\n      jump\t// in\n    tag_635:\n        /* \"#utility.yul\":28531:28670   */\n      swap1\n      pop\n        /* \"#utility.yul\":28258:28677   */\n      swap2\n      swap1\n      pop\n      jump\t// out\n        /* \"#utility.yul\":28683:29102   */\n    tag_270:\n        /* \"#utility.yul\":28849:28853   */\n      0x00\n        /* \"#utility.yul\":28887:28889   */\n      0x20\n        /* \"#utility.yul\":28876:28885   */\n      dup3\n        /* \"#utility.yul\":28872:28890   */\n      add\n        /* \"#utility.yul\":28864:28890   */\n      swap1\n      pop\n        /* \"#utility.yul\":28936:28945   */\n      dup2\n        /* \"#utility.yul\":28930:28934   */\n      dup2\n        /* \"#utility.yul\":28926:28946   */\n      sub\n        /* \"#utility.yul\":28922:28923   */\n      0x00\n        /* \"#utility.yul\":28911:28920   */\n      dup4\n        /* \"#utility.yul\":28907:28924   */\n      add\n        /* \"#utility.yul\":28900:28947   */\n      mstore\n        /* \"#utility.yul\":28964:29095   */\n      tag_637\n        /* \"#utility.yul\":29090:29094   */\n      dup2\n        /* \"#utility.yul\":28964:29095   */\n      tag_533\n      jump\t// in\n    tag_637:\n        /* \"#utility.yul\":28956:29095   */\n      swap1\n      pop\n        /* \"#utility.yul\":28683:29102   */\n      swap2\n      swap1\n      pop\n      jump\t// out\n        /* \"#utility.yul\":29108:29527   */\n    tag_156:\n        /* \"#utility.yul\":29274:29278   */\n      0x00\n        /* \"#utility.yul\":29312:29314   */\n      0x20\n        /* \"#utility.yul\":29301:29310   */\n      dup3\n        /* \"#utility.yul\":29297:29315   */\n      add\n        /* \"#utility.yul\":29289:29315   */\n      swap1\n      pop\n        /* \"#utility.yul\":29361:29370   */\n      dup2\n        /* \"#utility.yul\":29355:29359   */\n      dup2\n        /* \"#utility.yul\":29351:29371   */\n      sub\n        /* \"#utility.yul\":29347:29348   */\n      0x00\n        /* \"#utility.yul\":29336:29345   */\n      dup4\n        /* \"#utility.yul\":29332:29349   */\n      add\n        /* \"#utility.yul\":29325:29372   */\n      mstore\n        /* \"#utility.yul\":29389:29520   */\n      tag_639\n        /* \"#utility.yul\":29515:29519   */\n      dup2\n        /* \"#utility.yul\":29389:29520   */\n      tag_538\n      jump\t// in\n    tag_639:\n        /* \"#utility.yul\":29381:29520   */\n      swap1\n      pop\n        /* \"#utility.yul\":29108:29527   */\n      swap2\n      swap1\n      pop\n      jump\t// out\n        /* \"#utility.yul\":29533:29952   */\n    tag_117:\n        /* \"#utility.yul\":29699:29703   */\n      0x00\n        /* \"#utility.yul\":29737:29739   */\n      0x20\n        /* \"#utility.yul\":29726:29735   */\n      dup3\n        /* \"#utility.yul\":29722:29740   */\n      add\n        /* \"#utility.yul\":29714:29740   */\n      swap1\n      pop\n        /* \"#utility.yul\":29786:29795   */\n      dup2\n        /* \"#utility.yul\":29780:29784   */\n      dup2\n        /* \"#utility.yul\":29776:29796   */\n      sub\n        /* \"#utility.yul\":29772:29773   */\n      0x00\n        /* \"#utility.yul\":29761:29770   */\n      dup4\n        /* \"#utility.yul\":29757:29774   */\n      add\n        /* \"#utility.yul\":29750:29797   */\n      mstore\n        /* \"#utility.yul\":29814:29945   */\n      tag_641\n        /* \"#utility.yul\":29940:29944   */\n      dup2\n        /* \"#utility.yul\":29814:29945   */\n      tag_543\n      jump\t// in\n    tag_641:\n        /* \"#utility.yul\":29806:29945   */\n      swap1\n      pop\n        /* \"#utility.yul\":29533:29952   */\n      swap2\n      swap1\n      pop\n      jump\t// out\n        /* \"#utility.yul\":29958:30377   */\n    tag_227:\n        /* \"#utility.yul\":30124:30128   */\n      0x00\n        /* \"#utility.yul\":30162:30164   */\n      0x20\n        /* \"#utility.yul\":30151:30160   */\n      dup3\n        /* \"#utility.yul\":30147:30165   */\n      add\n        /* \"#utility.yul\":30139:30165   */\n      swap1\n      pop\n        /* \"#utility.yul\":30211:30220   */\n      dup2\n        /* \"#utility.yul\":30205:30209   */\n      dup2\n        /* \"#utility.yul\":30201:30221   */\n      sub\n        /* \"#utility.yul\":30197:30198   */\n      0x00\n        /* \"#utility.yul\":30186:30195   */\n      dup4\n        /* \"#utility.yul\":30182:30199   */\n      add\n        /* \"#utility.yul\":30175:30222   */\n      mstore\n        /* \"#utility.yul\":30239:30370   */\n      tag_643\n        /* \"#utility.yul\":30365:30369   */\n      dup2\n        /* \"#utility.yul\":30239:30370   */\n      tag_548\n      jump\t// in\n    tag_643:\n        /* \"#utility.yul\":30231:30370   */\n      swap1\n      pop\n        /* \"#utility.yul\":29958:30377   */\n      swap2\n      swap1\n      pop\n      jump\t// out\n        /* \"#utility.yul\":30383:30752   */\n    tag_88:\n        /* \"#utility.yul\":30524:30528   */\n      0x00\n        /* \"#utility.yul\":30562:30564   */\n      0x20\n        /* \"#utility.yul\":30551:30560   */\n      dup3\n        /* \"#utility.yul\":30547:30565   */\n      add\n        /* \"#utility.yul\":30539:30565   */\n      swap1\n      pop\n        /* \"#utility.yul\":30611:30620   */\n      dup2\n        /* \"#utility.yul\":30605:30609   */\n      dup2\n        /* \"#utility.yul\":30601:30621   */\n      sub\n        /* \"#utility.yul\":30597:30598   */\n      0x00\n        /* \"#utility.yul\":30586:30595   */\n      dup4\n        /* \"#utility.yul\":30582:30599   */\n      add\n        /* \"#utility.yul\":30575:30622   */\n      mstore\n        /* \"#utility.yul\":30639:30745   */\n      tag_645\n        /* \"#utility.yul\":30740:30744   */\n      dup2\n        /* \"#utility.yul\":30731:30737   */\n      dup5\n        /* \"#utility.yul\":30639:30745   */\n      tag_553\n      jump\t// in\n    tag_645:\n        /* \"#utility.yul\":30631:30745   */\n      swap1\n      pop\n        /* \"#utility.yul\":30383:30752   */\n      swap3\n      swap2\n      pop\n      pop\n      jump\t// out\n        /* \"#utility.yul\":30758:30887   */\n    tag_325:\n        /* \"#utility.yul\":30792:30798   */\n      0x00\n        /* \"#utility.yul\":30819:30839   */\n      tag_647\n      tag_648\n      jump\t// in\n    tag_647:\n        /* \"#utility.yul\":30809:30839   */\n      swap1\n      pop\n        /* \"#utility.yul\":30848:30881   */\n      tag_649\n        /* \"#utility.yul\":30876:30880   */\n      dup3\n        /* \"#utility.yul\":30868:30874   */\n      dup3\n        /* \"#utility.yul\":30848:30881   */\n      tag_650\n      jump\t// in\n    tag_649:\n        /* \"#utility.yul\":30758:30887   */\n      swap2\n      swap1\n      pop\n      jump\t// out\n        /* \"#utility.yul\":30893:30968   */\n    tag_648:\n        /* \"#utility.yul\":30926:30932   */\n      0x00\n        /* \"#utility.yul\":30959:30961   */\n      0x40\n        /* \"#utility.yul\":30953:30962   */\n      mload\n        /* \"#utility.yul\":30943:30962   */\n      swap1\n      pop\n        /* \"#utility.yul\":30893:30968   */\n      swap1\n      jump\t// out\n        /* \"#utility.yul\":30974:31282   */\n    tag_324:\n        /* \"#utility.yul\":31036:31040   */\n      0x00\n        /* \"#utility.yul\":31126:31144   */\n      0xffffffffffffffff\n        /* \"#utility.yul\":31118:31124   */\n      dup3\n        /* \"#utility.yul\":31115:31145   */\n      gt\n        /* \"#utility.yul\":31112:31168   */\n      iszero\n      tag_653\n      jumpi\n        /* \"#utility.yul\":31148:31166   */\n      tag_654\n      tag_655\n      jump\t// in\n    tag_654:\n        /* \"#utility.yul\":31112:31168   */\n    tag_653:\n        /* \"#utility.yul\":31186:31215   */\n      tag_656\n        /* \"#utility.yul\":31208:31214   */\n      dup3\n        /* \"#utility.yul\":31186:31215   */\n      tag_480\n      jump\t// in\n    tag_656:\n        /* \"#utility.yul\":31178:31215   */\n      swap1\n      pop\n        /* \"#utility.yul\":31270:31274   */\n      0x20\n        /* \"#utility.yul\":31264:31268   */\n      dup2\n        /* \"#utility.yul\":31260:31275   */\n      add\n        /* \"#utility.yul\":31252:31275   */\n      swap1\n      pop\n        /* \"#utility.yul\":30974:31282   */\n      swap2\n      swap1\n      pop\n      jump\t// out\n        /* \"#utility.yul\":31288:31440   */\n    tag_445:\n        /* \"#utility.yul\":31375:31379   */\n      0x00\n        /* \"#utility.yul\":31398:31401   */\n      dup2\n        /* \"#utility.yul\":31390:31401   */\n      swap1\n      pop\n        /* \"#utility.yul\":31428:31432   */\n      0x20\n        /* \"#utility.yul\":31423:31426   */\n      dup3\n        /* \"#utility.yul\":31419:31433   */\n      add\n        /* \"#utility.yul\":31411:31433   */\n      swap1\n      pop\n        /* \"#utility.yul\":31288:31440   */\n      swap2\n      swap1\n      pop\n      jump\t// out\n        /* \"#utility.yul\":31446:31580   */\n    tag_441:\n        /* \"#utility.yul\":31533:31539   */\n      0x00\n        /* \"#utility.yul\":31567:31572   */\n      dup2\n        /* \"#utility.yul\":31561:31573   */\n      mload\n        /* \"#utility.yul\":31551:31573   */\n      swap1\n      pop\n        /* \"#utility.yul\":31446:31580   */\n      swap2\n      swap1\n      pop\n      jump\t// out\n        /* \"#utility.yul\":31586:31685   */\n    tag_474:\n        /* \"#utility.yul\":31638:31644   */\n      0x00\n        /* \"#utility.yul\":31672:31677   */\n      dup2\n        /* \"#utility.yul\":31666:31678   */\n      mload\n        /* \"#utility.yul\":31656:31678   */\n      swap1\n      pop\n        /* \"#utility.yul\":31586:31685   */\n      swap2\n      swap1\n      pop\n      jump\t// out\n        /* \"#utility.yul\":31691:31824   */\n    tag_451:\n        /* \"#utility.yul\":31781:31785   */\n      0x00\n        /* \"#utility.yul\":31813:31817   */\n      0x20\n        /* \"#utility.yul\":31808:31811   */\n      dup3\n        /* \"#utility.yul\":31804:31818   */\n      add\n        /* \"#utility.yul\":31796:31818   */\n      swap1\n      pop\n        /* \"#utility.yul\":31691:31824   */\n      swap2\n      swap1\n      pop\n      jump\t// out\n        /* \"#utility.yul\":31830:32034   */\n    tag_443:\n        /* \"#utility.yul\":31949:31960   */\n      0x00\n        /* \"#utility.yul\":31983:31989   */\n      dup3\n        /* \"#utility.yul\":31978:31981   */\n      dup3\n        /* \"#utility.yul\":31971:31990   */\n      mstore\n        /* \"#utility.yul\":32023:32027   */\n      0x20\n        /* \"#utility.yul\":32018:32021   */\n      dup3\n        /* \"#utility.yul\":32014:32028   */\n      add\n        /* \"#utility.yul\":31999:32028   */\n      swap1\n      pop\n        /* \"#utility.yul\":31830:32034   */\n      swap3\n      swap2\n      pop\n      pop\n      jump\t// out\n        /* \"#utility.yul\":32040:32199   */\n    tag_476:\n        /* \"#utility.yul\":32114:32125   */\n      0x00\n        /* \"#utility.yul\":32148:32154   */\n      dup3\n        /* \"#utility.yul\":32143:32146   */\n      dup3\n        /* \"#utility.yul\":32136:32155   */\n      mstore\n        /* \"#utility.yul\":32188:32192   */\n      0x20\n        /* \"#utility.yul\":32183:32186   */\n      dup3\n        /* \"#utility.yul\":32179:32193   */\n      add\n        /* \"#utility.yul\":32164:32193   */\n      swap1\n      pop\n        /* \"#utility.yul\":32040:32199   */\n      swap3\n      swap2\n      pop\n      pop\n      jump\t// out\n        /* \"#utility.yul\":32205:32374   */\n    tag_485:\n        /* \"#utility.yul\":32289:32300   */\n      0x00\n        /* \"#utility.yul\":32323:32329   */\n      dup3\n        /* \"#utility.yul\":32318:32321   */\n      dup3\n        /* \"#utility.yul\":32311:32330   */\n      mstore\n        /* \"#utility.yul\":32363:32367   */\n      0x20\n        /* \"#utility.yul\":32358:32361   */\n      dup3\n        /* \"#utility.yul\":32354:32368   */\n      add\n        /* \"#utility.yul\":32339:32368   */\n      swap1\n      pop\n        /* \"#utility.yul\":32205:32374   */\n      swap3\n      swap2\n      pop\n      pop\n      jump\t// out\n        /* \"#utility.yul\":32380:32528   */\n    tag_469:\n        /* \"#utility.yul\":32482:32493   */\n      0x00\n        /* \"#utility.yul\":32519:32522   */\n      dup2\n        /* \"#utility.yul\":32504:32522   */\n      swap1\n      pop\n        /* \"#utility.yul\":32380:32528   */\n      swap3\n      swap2\n      pop\n      pop\n      jump\t// out\n        /* \"#utility.yul\":32534:32839   */\n    tag_131:\n        /* \"#utility.yul\":32574:32577   */\n      0x00\n        /* \"#utility.yul\":32593:32613   */\n      tag_666\n        /* \"#utility.yul\":32611:32612   */\n      dup3\n        /* \"#utility.yul\":32593:32613   */\n      tag_574\n      jump\t// in\n    tag_666:\n        /* \"#utility.yul\":32588:32613   */\n      swap2\n      pop\n        /* \"#utility.yul\":32627:32647   */\n      tag_667\n        /* \"#utility.yul\":32645:32646   */\n      dup4\n        /* \"#utility.yul\":32627:32647   */\n      tag_574\n      jump\t// in\n    tag_667:\n        /* \"#utility.yul\":32622:32647   */\n      swap3\n      pop\n        /* \"#utility.yul\":32781:32782   */\n      dup3\n        /* \"#utility.yul\":32713:32779   */\n      0xffffffffffffffffffffffffffffffffffffffffffffffffffffffffffffffff\n        /* \"#utility.yul\":32709:32783   */\n      sub\n        /* \"#utility.yul\":32706:32707   */\n      dup3\n        /* \"#utility.yul\":32703:32784   */\n      gt\n        /* \"#utility.yul\":32700:32807   */\n      iszero\n      tag_668\n      jumpi\n        /* \"#utility.yul\":32787:32805   */\n      tag_669\n      tag_670\n      jump\t// in\n    tag_669:\n        /* \"#utility.yul\":32700:32807   */\n    tag_668:\n        /* \"#utility.yul\":32831:32832   */\n      dup3\n        /* \"#utility.yul\":32828:32829   */\n      dup3\n        /* \"#utility.yul\":32824:32833   */\n      add\n        /* \"#utility.yul\":32817:32833   */\n      swap1\n      pop\n        /* \"#utility.yul\":32534:32839   */\n      swap3\n      swap2\n      pop\n      pop\n      jump\t// out\n        /* \"#utility.yul\":32845:33030   */\n    tag_237:\n        /* \"#utility.yul\":32885:32886   */\n      0x00\n        /* \"#utility.yul\":32902:32922   */\n      tag_672\n        /* \"#utility.yul\":32920:32921   */\n      dup3\n        /* \"#utility.yul\":32902:32922   */\n      tag_574\n      jump\t// in\n    tag_672:\n        /* \"#utility.yul\":32897:32922   */\n      swap2\n      pop\n        /* \"#utility.yul\":32936:32956   */\n      tag_673\n        /* \"#utility.yul\":32954:32955   */\n      dup4\n        /* \"#utility.yul\":32936:32956   */\n      tag_574\n      jump\t// in\n    tag_673:\n        /* \"#utility.yul\":32931:32956   */\n      swap3\n      pop\n        /* \"#utility.yul\":32975:32976   */\n      dup3\n        /* \"#utility.yul\":32965:33000   */\n      tag_674\n      jumpi\n        /* \"#utility.yul\":32980:32998   */\n      tag_675\n      tag_676\n      jump\t// in\n    tag_675:\n        /* \"#utility.yul\":32965:33000   */\n    tag_674:\n        /* \"#utility.yul\":33022:33023   */\n      dup3\n        /* \"#utility.yul\":33019:33020   */\n      dup3\n        /* \"#utility.yul\":33015:33024   */\n      div\n        /* \"#utility.yul\":33010:33024   */\n      swap1\n      pop\n        /* \"#utility.yul\":32845:33030   */\n      swap3\n      swap2\n      pop\n      pop\n      jump\t// out\n        /* \"#utility.yul\":33036:33384   */\n    tag_239:\n        /* \"#utility.yul\":33076:33083   */\n      0x00\n        /* \"#utility.yul\":33099:33119   */\n      tag_678\n        /* \"#utility.yul\":33117:33118   */\n      dup3\n        /* \"#utility.yul\":33099:33119   */\n      tag_574\n      jump\t// in\n    tag_678:\n        /* \"#utility.yul\":33094:33119   */\n      swap2\n      pop\n        /* \"#utility.yul\":33133:33153   */\n      tag_679\n        /* \"#utility.yul\":33151:33152   */\n      dup4\n        /* \"#utility.yul\":33133:33153   */\n      tag_574\n      jump\t// in\n    tag_679:\n        /* \"#utility.yul\":33128:33153   */\n      swap3\n      pop\n        /* \"#utility.yul\":33321:33322   */\n      dup2\n        /* \"#utility.yul\":33253:33319   */\n      0xffffffffffffffffffffffffffffffffffffffffffffffffffffffffffffffff\n        /* \"#utility.yul\":33249:33323   */\n      div\n        /* \"#utility.yul\":33246:33247   */\n      dup4\n        /* \"#utility.yul\":33243:33324   */\n      gt\n        /* \"#utility.yul\":33238:33239   */\n      dup3\n        /* \"#utility.yul\":33231:33240   */\n      iszero\n        /* \"#utility.yul\":33224:33241   */\n      iszero\n        /* \"#utility.yul\":33220:33325   */\n      and\n        /* \"#utility.yul\":33217:33348   */\n      iszero\n      tag_680\n      jumpi\n        /* \"#utility.yul\":33328:33346   */\n      tag_681\n      tag_670\n      jump\t// in\n    tag_681:\n        /* \"#utility.yul\":33217:33348   */\n    tag_680:\n        /* \"#utility.yul\":33376:33377   */\n      dup3\n        /* \"#utility.yul\":33373:33374   */\n      dup3\n        /* \"#utility.yul\":33369:33378   */\n      mul\n        /* \"#utility.yul\":33358:33378   */\n      swap1\n      pop\n        /* \"#utility.yul\":33036:33384   */\n      swap3\n      swap2\n      pop\n      pop\n      jump\t// out\n        /* \"#utility.yul\":33390:33486   */\n    tag_434:\n        /* \"#utility.yul\":33427:33434   */\n      0x00\n        /* \"#utility.yul\":33456:33480   */\n      tag_683\n        /* \"#utility.yul\":33474:33479   */\n      dup3\n        /* \"#utility.yul\":33456:33480   */\n      tag_684\n      jump\t// in\n    tag_683:\n        /* \"#utility.yul\":33445:33480   */\n      swap1\n      pop\n        /* \"#utility.yul\":33390:33486   */\n      swap2\n      swap1\n      pop\n      jump\t// out\n        /* \"#utility.yul\":33492:33582   */\n    tag_455:\n        /* \"#utility.yul\":33526:33533   */\n      0x00\n        /* \"#utility.yul\":33569:33574   */\n      dup2\n        /* \"#utility.yul\":33562:33575   */\n      iszero\n        /* \"#utility.yul\":33555:33576   */\n      iszero\n        /* \"#utility.yul\":33544:33576   */\n      swap1\n      pop\n        /* \"#utility.yul\":33492:33582   */\n      swap2\n      swap1\n      pop\n      jump\t// out\n        /* \"#utility.yul\":33588:33665   */\n    tag_462:\n        /* \"#utility.yul\":33625:33632   */\n      0x00\n        /* \"#utility.yul\":33654:33659   */\n      dup2\n        /* \"#utility.yul\":33643:33659   */\n      swap1\n      pop\n        /* \"#utility.yul\":33588:33665   */\n      swap2\n      swap1\n      pop\n      jump\t// out\n        /* \"#utility.yul\":33671:33797   */\n    tag_684:\n        /* \"#utility.yul\":33708:33715   */\n      0x00\n        /* \"#utility.yul\":33748:33790   */\n      0xffffffffffffffffffffffffffffffffffffffff\n        /* \"#utility.yul\":33741:33746   */\n      dup3\n        /* \"#utility.yul\":33737:33791   */\n      and\n        /* \"#utility.yul\":33726:33791   */\n      swap1\n      pop\n        /* \"#utility.yul\":33671:33797   */\n      swap2\n      swap1\n      pop\n      jump\t// out\n        /* \"#utility.yul\":33803:33880   */\n    tag_574:\n        /* \"#utility.yul\":33840:33847   */\n      0x00\n        /* \"#utility.yul\":33869:33874   */\n      dup2\n        /* \"#utility.yul\":33858:33874   */\n      swap1\n      pop\n        /* \"#utility.yul\":33803:33880   */\n      swap2\n      swap1\n      pop\n      jump\t// out\n        /* \"#utility.yul\":33886:33972   */\n    tag_689:\n        /* \"#utility.yul\":33921:33928   */\n      0x00\n        /* \"#utility.yul\":33961:33965   */\n      0xff\n        /* \"#utility.yul\":33954:33959   */\n      dup3\n        /* \"#utility.yul\":33950:33966   */\n      and\n        /* \"#utility.yul\":33939:33966   */\n      swap1\n      pop\n        /* \"#utility.yul\":33886:33972   */\n      swap2\n      swap1\n      pop\n      jump\t// out\n        /* \"#utility.yul\":33978:34132   */\n    tag_330:\n        /* \"#utility.yul\":34062:34068   */\n      dup3\n        /* \"#utility.yul\":34057:34060   */\n      dup2\n        /* \"#utility.yul\":34052:34055   */\n      dup4\n        /* \"#utility.yul\":34039:34069   */\n      calldatacopy\n        /* \"#utility.yul\":34124:34125   */\n      0x00\n        /* \"#utility.yul\":34115:34121   */\n      dup4\n        /* \"#utility.yul\":34110:34113   */\n      dup4\n        /* \"#utility.yul\":34106:34122   */\n      add\n        /* \"#utility.yul\":34099:34126   */\n      mstore\n        /* \"#utility.yul\":33978:34132   */\n      pop\n      pop\n      pop\n      jump\t// out\n        /* \"#utility.yul\":34138:34445   */\n    tag_478:\n        /* \"#utility.yul\":34206:34207   */\n      0x00\n        /* \"#utility.yul\":34216:34329   */\n    tag_693:\n        /* \"#utility.yul\":34230:34236   */\n      dup4\n        /* \"#utility.yul\":34227:34228   */\n      dup2\n        /* \"#utility.yul\":34224:34237   */\n      lt\n        /* \"#utility.yul\":34216:34329   */\n      iszero\n      tag_695\n      jumpi\n        /* \"#utility.yul\":34315:34316   */\n      dup1\n        /* \"#utility.yul\":34310:34313   */\n      dup3\n        /* \"#utility.yul\":34306:34317   */\n      add\n        /* \"#utility.yul\":34300:34318   */\n      mload\n        /* \"#utility.yul\":34296:34297   */\n      dup2\n        /* \"#utility.yul\":34291:34294   */\n      dup5\n        /* \"#utility.yul\":34287:34298   */\n      add\n        /* \"#utility.yul\":34280:34319   */\n      mstore\n        /* \"#utility.yul\":34252:34254   */\n      0x20\n        /* \"#utility.yul\":34249:34250   */\n      dup2\n        /* \"#utility.yul\":34245:34255   */\n      add\n        /* \"#utility.yul\":34240:34255   */\n      swap1\n      pop\n        /* \"#utility.yul\":34216:34329   */\n      jump(tag_693)\n    tag_695:\n        /* \"#utility.yul\":34347:34353   */\n      dup4\n        /* \"#utility.yul\":34344:34345   */\n      dup2\n        /* \"#utility.yul\":34341:34354   */\n      gt\n        /* \"#utility.yul\":34338:34439   */\n      iszero\n      tag_696\n      jumpi\n        /* \"#utility.yul\":34427:34428   */\n      0x00\n        /* \"#utility.yul\":34418:34424   */\n      dup5\n        /* \"#utility.yul\":34413:34416   */\n      dup5\n        /* \"#utility.yul\":34409:34425   */\n      add\n        /* \"#utility.yul\":34402:34429   */\n      mstore\n        /* \"#utility.yul\":34338:34439   */\n    tag_696:\n        /* \"#utility.yul\":34187:34445   */\n      pop\n        /* \"#utility.yul\":34138:34445   */\n      pop\n      pop\n      pop\n      jump\t// out\n        /* \"#utility.yul\":34451:34771   */\n    tag_97:\n        /* \"#utility.yul\":34495:34501   */\n      0x00\n        /* \"#utility.yul\":34532:34533   */\n      0x02\n        /* \"#utility.yul\":34526:34530   */\n      dup3\n        /* \"#utility.yul\":34522:34534   */\n      div\n        /* \"#utility.yul\":34512:34534   */\n      swap1\n      pop\n        /* \"#utility.yul\":34579:34580   */\n      0x01\n        /* \"#utility.yul\":34573:34577   */\n      dup3\n        /* \"#utility.yul\":34569:34581   */\n      and\n        /* \"#utility.yul\":34600:34618   */\n      dup1\n        /* \"#utility.yul\":34590:34671   */\n      tag_698\n      jumpi\n        /* \"#utility.yul\":34656:34660   */\n      0x7f\n        /* \"#utility.yul\":34648:34654   */\n      dup3\n        /* \"#utility.yul\":34644:34661   */\n      and\n        /* \"#utility.yul\":34634:34661   */\n      swap2\n      pop\n        /* \"#utility.yul\":34590:34671   */\n    tag_698:\n        /* \"#utility.yul\":34718:34720   */\n      0x20\n        /* \"#utility.yul\":34710:34716   */\n      dup3\n        /* \"#utility.yul\":34707:34721   */\n      lt\n        /* \"#utility.yul\":34687:34705   */\n      dup2\n        /* \"#utility.yul\":34684:34722   */\n      eq\n        /* \"#utility.yul\":34681:34765   */\n      iszero\n      tag_699\n      jumpi\n        /* \"#utility.yul\":34737:34755   */\n      tag_700\n      tag_701\n      jump\t// in\n    tag_700:\n        /* \"#utility.yul\":34681:34765   */\n    tag_699:\n        /* \"#utility.yul\":34502:34771   */\n      pop\n        /* \"#utility.yul\":34451:34771   */\n      swap2\n      swap1\n      pop\n      jump\t// out\n        /* \"#utility.yul\":34777:35058   */\n    tag_650:\n        /* \"#utility.yul\":34860:34887   */\n      tag_703\n        /* \"#utility.yul\":34882:34886   */\n      dup3\n        /* \"#utility.yul\":34860:34887   */\n      tag_480\n      jump\t// in\n    tag_703:\n        /* \"#utility.yul\":34852:34858   */\n      dup2\n        /* \"#utility.yul\":34848:34888   */\n      add\n        /* \"#utility.yul\":34990:34996   */\n      dup2\n        /* \"#utility.yul\":34978:34988   */\n      dup2\n        /* \"#utility.yul\":34975:34997   */\n      lt\n        /* \"#utility.yul\":34954:34972   */\n      0xffffffffffffffff\n        /* \"#utility.yul\":34942:34952   */\n      dup3\n        /* \"#utility.yul\":34939:34973   */\n      gt\n        /* \"#utility.yul\":34936:34998   */\n      or\n        /* \"#utility.yul\":34933:35021   */\n      iszero\n      tag_704\n      jumpi\n        /* \"#utility.yul\":35001:35019   */\n      tag_705\n      tag_655\n      jump\t// in\n    tag_705:\n        /* \"#utility.yul\":34933:35021   */\n    tag_704:\n        /* \"#utility.yul\":35041:35051   */\n      dup1\n        /* \"#utility.yul\":35037:35039   */\n      0x40\n        /* \"#utility.yul\":35030:35052   */\n      mstore\n        /* \"#utility.yul\":34820:35058   */\n      pop\n        /* \"#utility.yul\":34777:35058   */\n      pop\n      pop\n      jump\t// out\n        /* \"#utility.yul\":35064:35231   */\n    tag_262:\n        /* \"#utility.yul\":35101:35104   */\n      0x00\n        /* \"#utility.yul\":35124:35146   */\n      tag_707\n        /* \"#utility.yul\":35140:35145   */\n      dup3\n        /* \"#utility.yul\":35124:35146   */\n      tag_689\n      jump\t// in\n    tag_707:\n        /* \"#utility.yul\":35115:35146   */\n      swap2\n      pop\n        /* \"#utility.yul\":35168:35172   */\n      0xff\n        /* \"#utility.yul\":35161:35166   */\n      dup3\n        /* \"#utility.yul\":35158:35173   */\n      eq\n        /* \"#utility.yul\":35155:35196   */\n      iszero\n      tag_708\n      jumpi\n        /* \"#utility.yul\":35176:35194   */\n      tag_709\n      tag_670\n      jump\t// in\n    tag_709:\n        /* \"#utility.yul\":35155:35196   */\n    tag_708:\n        /* \"#utility.yul\":35223:35224   */\n      0x01\n        /* \"#utility.yul\":35216:35221   */\n      dup3\n        /* \"#utility.yul\":35212:35225   */\n      add\n        /* \"#utility.yul\":35205:35225   */\n      swap1\n      pop\n        /* \"#utility.yul\":35064:35231   */\n      swap2\n      swap1\n      pop\n      jump\t// out\n        /* \"#utility.yul\":35237:35417   */\n    tag_670:\n        /* \"#utility.yul\":35285:35362   */\n      0x4e487b7100000000000000000000000000000000000000000000000000000000\n        /* \"#utility.yul\":35282:35283   */\n      0x00\n        /* \"#utility.yul\":35275:35363   */\n      mstore\n        /* \"#utility.yul\":35382:35386   */\n      0x11\n        /* \"#utility.yul\":35379:35380   */\n      0x04\n        /* \"#utility.yul\":35372:35387   */\n      mstore\n        /* \"#utility.yul\":35406:35410   */\n      0x24\n        /* \"#utility.yul\":35403:35404   */\n      0x00\n        /* \"#utility.yul\":35396:35411   */\n      revert\n        /* \"#utility.yul\":35423:35603   */\n    tag_676:\n        /* \"#utility.yul\":35471:35548   */\n      0x4e487b7100000000000000000000000000000000000000000000000000000000\n        /* \"#utility.yul\":35468:35469   */\n      0x00\n        /* \"#utility.yul\":35461:35549   */\n      mstore\n        /* \"#utility.yul\":35568:35572   */\n      0x12\n        /* \"#utility.yul\":35565:35566   */\n      0x04\n        /* \"#utility.yul\":35558:35573   */\n      mstore\n        /* \"#utility.yul\":35592:35596   */\n      0x24\n        /* \"#utility.yul\":35589:35590   */\n      0x00\n        /* \"#utility.yul\":35582:35597   */\n      revert\n        /* \"#utility.yul\":35609:35789   */\n    tag_701:\n        /* \"#utility.yul\":35657:35734   */\n      0x4e487b7100000000000000000000000000000000000000000000000000000000\n        /* \"#utility.yul\":35654:35655   */\n      0x00\n        /* \"#utility.yul\":35647:35735   */\n      mstore\n        /* \"#utility.yul\":35754:35758   */\n      0x22\n        /* \"#utility.yul\":35751:35752   */\n      0x04\n        /* \"#utility.yul\":35744:35759   */\n      mstore\n        /* \"#utility.yul\":35778:35782   */\n      0x24\n        /* \"#utility.yul\":35775:35776   */\n      0x00\n        /* \"#utility.yul\":35768:35783   */\n      revert\n        /* \"#utility.yul\":35795:35975   */\n    tag_251:\n        /* \"#utility.yul\":35843:35920   */\n      0x4e487b7100000000000000000000000000000000000000000000000000000000\n        /* \"#utility.yul\":35840:35841   */\n      0x00\n        /* \"#utility.yul\":35833:35921   */\n      mstore\n        /* \"#utility.yul\":35940:35944   */\n      0x32\n        /* \"#utility.yul\":35937:35938   */\n      0x04\n        /* \"#utility.yul\":35930:35945   */\n      mstore\n        /* \"#utility.yul\":35964:35968   */\n      0x24\n        /* \"#utility.yul\":35961:35962   */\n      0x00\n        /* \"#utility.yul\":35954:35969   */\n      revert\n        /* \"#utility.yul\":35981:36161   */\n    tag_655:\n        /* \"#utility.yul\":36029:36106   */\n      0x4e487b7100000000000000000000000000000000000000000000000000000000\n        /* \"#utility.yul\":36026:36027   */\n      0x00\n        /* \"#utility.yul\":36019:36107   */\n      mstore\n        /* \"#utility.yul\":36126:36130   */\n      0x41\n        /* \"#utility.yul\":36123:36124   */\n      0x04\n        /* \"#utility.yul\":36116:36131   */\n      mstore\n        /* \"#utility.yul\":36150:36154   */\n      0x24\n        /* \"#utility.yul\":36147:36148   */\n      0x00\n        /* \"#utility.yul\":36140:36155   */\n      revert\n        /* \"#utility.yul\":36167:36284   */\n    tag_346:\n        /* \"#utility.yul\":36276:36277   */\n      0x00\n        /* \"#utility.yul\":36273:36274   */\n      dup1\n        /* \"#utility.yul\":36266:36278   */\n      revert\n        /* \"#utility.yul\":36290:36407   */\n    tag_343:\n        /* \"#utility.yul\":36399:36400   */\n      0x00\n        /* \"#utility.yul\":36396:36397   */\n      dup1\n        /* \"#utility.yul\":36389:36401   */\n      revert\n        /* \"#utility.yul\":36413:36530   */\n    tag_349:\n        /* \"#utility.yul\":36522:36523   */\n      0x00\n        /* \"#utility.yul\":36519:36520   */\n      dup1\n        /* \"#utility.yul\":36512:36524   */\n      revert\n        /* \"#utility.yul\":36536:36653   */\n    tag_328:\n        /* \"#utility.yul\":36645:36646   */\n      0x00\n        /* \"#utility.yul\":36642:36643   */\n      dup1\n        /* \"#utility.yul\":36635:36647   */\n      revert\n        /* \"#utility.yul\":36659:36776   */\n    tag_366:\n        /* \"#utility.yul\":36768:36769   */\n      0x00\n        /* \"#utility.yul\":36765:36766   */\n      dup1\n        /* \"#utility.yul\":36758:36770   */\n      revert\n        /* \"#utility.yul\":36782:36899   */\n    tag_362:\n        /* \"#utility.yul\":36891:36892   */\n      0x00\n        /* \"#utility.yul\":36888:36889   */\n      dup1\n        /* \"#utility.yul\":36881:36893   */\n      revert\n        /* \"#utility.yul\":36905:37007   */\n    tag_480:\n        /* \"#utility.yul\":36946:36952   */\n      0x00\n        /* \"#utility.yul\":36997:36999   */\n      0x1f\n        /* \"#utility.yul\":36993:37000   */\n      not\n        /* \"#utility.yul\":36988:36990   */\n      0x1f\n        /* \"#utility.yul\":36981:36986   */\n      dup4\n        /* \"#utility.yul\":36977:36991   */\n      add\n        /* \"#utility.yul\":36973:37001   */\n      and\n        /* \"#utility.yul\":36963:37001   */\n      swap1\n      pop\n        /* \"#utility.yul\":36905:37007   */\n      swap2\n      swap1\n      pop\n      jump\t// out\n        /* \"#utility.yul\":37013:37194   */\n    tag_497:\n        /* \"#utility.yul\":37153:37186   */\n      0x526563697069656e7420697320616c7265616479207265676973746572656400\n        /* \"#utility.yul\":37149:37150   */\n      0x00\n        /* \"#utility.yul\":37141:37147   */\n      dup3\n        /* \"#utility.yul\":37137:37151   */\n      add\n        /* \"#utility.yul\":37130:37187   */\n      mstore\n        /* \"#utility.yul\":37013:37194   */\n      pop\n      jump\t// out\n        /* \"#utility.yul\":37200:37375   */\n    tag_502:\n        /* \"#utility.yul\":37340:37367   */\n      0x50726f706f73616c20616c726561647920637265617465642100000000000000\n        /* \"#utility.yul\":37336:37337   */\n      0x00\n        /* \"#utility.yul\":37328:37334   */\n      dup3\n        /* \"#utility.yul\":37324:37338   */\n      add\n        /* \"#utility.yul\":37317:37368   */\n      mstore\n        /* \"#utility.yul\":37200:37375   */\n      pop\n      jump\t// out\n        /* \"#utility.yul\":37381:37606   */\n    tag_507:\n        /* \"#utility.yul\":37521:37555   */\n      0x596f75206172656e277420617574686f72697a6520746f20636f6d70696c6520\n        /* \"#utility.yul\":37517:37518   */\n      0x00\n        /* \"#utility.yul\":37509:37515   */\n      dup3\n        /* \"#utility.yul\":37505:37519   */\n      add\n        /* \"#utility.yul\":37498:37556   */\n      mstore\n        /* \"#utility.yul\":37590:37598   */\n      0x42756e646c650000000000000000000000000000000000000000000000000000\n        /* \"#utility.yul\":37585:37587   */\n      0x20\n        /* \"#utility.yul\":37577:37583   */\n      dup3\n        /* \"#utility.yul\":37573:37588   */\n      add\n        /* \"#utility.yul\":37566:37599   */\n      mstore\n        /* \"#utility.yul\":37381:37606   */\n      pop\n      jump\t// out\n        /* \"#utility.yul\":37612:37790   */\n    tag_512:\n        /* \"#utility.yul\":37752:37782   */\n      0x596f7520616c72656164792073656e74206120726573706f6e73652e00000000\n        /* \"#utility.yul\":37748:37749   */\n      0x00\n        /* \"#utility.yul\":37740:37746   */\n      dup3\n        /* \"#utility.yul\":37736:37750   */\n      add\n        /* \"#utility.yul\":37729:37783   */\n      mstore\n        /* \"#utility.yul\":37612:37790   */\n      pop\n      jump\t// out\n        /* \"#utility.yul\":37796:37967   */\n    tag_517:\n        /* \"#utility.yul\":37936:37959   */\n      0x496e69746961746f722063616e277420766f7465210000000000000000000000\n        /* \"#utility.yul\":37932:37933   */\n      0x00\n        /* \"#utility.yul\":37924:37930   */\n      dup3\n        /* \"#utility.yul\":37920:37934   */\n      add\n        /* \"#utility.yul\":37913:37960   */\n      mstore\n        /* \"#utility.yul\":37796:37967   */\n      pop\n      jump\t// out\n        /* \"#utility.yul\":37973:38153   */\n    tag_522:\n        /* \"#utility.yul\":38113:38145   */\n      0x596f7520617265206e6f74207265676973746572656420746f20766f74650000\n        /* \"#utility.yul\":38109:38110   */\n      0x00\n        /* \"#utility.yul\":38101:38107   */\n      dup3\n        /* \"#utility.yul\":38097:38111   */\n      add\n        /* \"#utility.yul\":38090:38146   */\n      mstore\n        /* \"#utility.yul\":37973:38153   */\n      pop\n      jump\t// out\n        /* \"#utility.yul\":38159:38382   */\n    tag_527:\n        /* \"#utility.yul\":38299:38333   */\n      0x50726f706f73616c206861732072656163686564206974732065787069727920\n        /* \"#utility.yul\":38295:38296   */\n      0x00\n        /* \"#utility.yul\":38287:38293   */\n      dup3\n        /* \"#utility.yul\":38283:38297   */\n      add\n        /* \"#utility.yul\":38276:38334   */\n      mstore\n        /* \"#utility.yul\":38368:38374   */\n      0x6461746500000000000000000000000000000000000000000000000000000000\n        /* \"#utility.yul\":38363:38365   */\n      0x20\n        /* \"#utility.yul\":38355:38361   */\n      dup3\n        /* \"#utility.yul\":38351:38366   */\n      add\n        /* \"#utility.yul\":38344:38375   */\n      mstore\n        /* \"#utility.yul\":38159:38382   */\n      pop\n      jump\t// out\n        /* \"#utility.yul\":38388:38615   */\n    tag_532:\n        /* \"#utility.yul\":38528:38562   */\n      0x4f6e6c7920696e69746961746f722063616e2072656769737465722061207265\n        /* \"#utility.yul\":38524:38525   */\n      0x00\n        /* \"#utility.yul\":38516:38522   */\n      dup3\n        /* \"#utility.yul\":38512:38526   */\n      add\n        /* \"#utility.yul\":38505:38563   */\n      mstore\n        /* \"#utility.yul\":38597:38607   */\n      0x63697069656e742e000000000000000000000000000000000000000000000000\n        /* \"#utility.yul\":38592:38594   */\n      0x20\n        /* \"#utility.yul\":38584:38590   */\n      dup3\n        /* \"#utility.yul\":38580:38595   */\n      add\n        /* \"#utility.yul\":38573:38608   */\n      mstore\n        /* \"#utility.yul\":38388:38615   */\n      pop\n      jump\t// out\n        /* \"#utility.yul\":38621:38791   */\n    tag_537:\n        /* \"#utility.yul\":38761:38783   */\n      0x596f75206172656e277420496e69746961746f72000000000000000000000000\n        /* \"#utility.yul\":38757:38758   */\n      0x00\n        /* \"#utility.yul\":38749:38755   */\n      dup3\n        /* \"#utility.yul\":38745:38759   */\n      add\n        /* \"#utility.yul\":38738:38784   */\n      mstore\n        /* \"#utility.yul\":38621:38791   */\n      pop\n      jump\t// out\n        /* \"#utility.yul\":38797:38979   */\n    tag_542:\n        /* \"#utility.yul\":38937:38971   */\n      0x5665726469637420686173206e6f74206265656e207265616368656420796574\n        /* \"#utility.yul\":38933:38934   */\n      0x00\n        /* \"#utility.yul\":38925:38931   */\n      dup3\n        /* \"#utility.yul\":38921:38935   */\n      add\n        /* \"#utility.yul\":38914:38972   */\n      mstore\n        /* \"#utility.yul\":38797:38979   */\n      pop\n      jump\t// out\n        /* \"#utility.yul\":38985:39153   */\n    tag_547:\n        /* \"#utility.yul\":39125:39145   */\n      0x566f74696e672068617320657870697265640000000000000000000000000000\n        /* \"#utility.yul\":39121:39122   */\n      0x00\n        /* \"#utility.yul\":39113:39119   */\n      dup3\n        /* \"#utility.yul\":39109:39123   */\n      add\n        /* \"#utility.yul\":39102:39146   */\n      mstore\n        /* \"#utility.yul\":38985:39153   */\n      pop\n      jump\t// out\n        /* \"#utility.yul\":39159:39383   */\n    tag_552:\n        /* \"#utility.yul\":39299:39333   */\n      0x436f6e73656e7375732068617320616c7265616479206265656e2063616c6375\n        /* \"#utility.yul\":39295:39296   */\n      0x00\n        /* \"#utility.yul\":39287:39293   */\n      dup3\n        /* \"#utility.yul\":39283:39297   */\n      add\n        /* \"#utility.yul\":39276:39334   */\n      mstore\n        /* \"#utility.yul\":39368:39375   */\n      0x6c61746564000000000000000000000000000000000000000000000000000000\n        /* \"#utility.yul\":39363:39365   */\n      0x20\n        /* \"#utility.yul\":39355:39361   */\n      dup3\n        /* \"#utility.yul\":39351:39366   */\n      add\n        /* \"#utility.yul\":39344:39376   */\n      mstore\n        /* \"#utility.yul\":39159:39383   */\n      pop\n      jump\t// out\n        /* \"#utility.yul\":39389:39511   */\n    tag_334:\n        /* \"#utility.yul\":39462:39486   */\n      tag_735\n        /* \"#utility.yul\":39480:39485   */\n      dup2\n        /* \"#utility.yul\":39462:39486   */\n      tag_434\n      jump\t// in\n    tag_735:\n        /* \"#utility.yul\":39455:39460   */\n      dup2\n        /* \"#utility.yul\":39452:39487   */\n      eq\n        /* \"#utility.yul\":39442:39505   */\n      tag_736\n      jumpi\n        /* \"#utility.yul\":39501:39502   */\n      0x00\n        /* \"#utility.yul\":39498:39499   */\n      dup1\n        /* \"#utility.yul\":39491:39503   */\n      revert\n        /* \"#utility.yul\":39442:39505   */\n    tag_736:\n        /* \"#utility.yul\":39389:39511   */\n      pop\n      jump\t// out\n        /* \"#utility.yul\":39517:39639   */\n    tag_338:\n        /* \"#utility.yul\":39590:39614   */\n      tag_738\n        /* \"#utility.yul\":39608:39613   */\n      dup2\n        /* \"#utility.yul\":39590:39614   */\n      tag_462\n      jump\t// in\n    tag_738:\n        /* \"#utility.yul\":39583:39588   */\n      dup2\n        /* \"#utility.yul\":39580:39615   */\n      eq\n        /* \"#utility.yul\":39570:39633   */\n      tag_739\n      jumpi\n        /* \"#utility.yul\":39629:39630   */\n      0x00\n        /* \"#utility.yul\":39626:39627   */\n      dup1\n        /* \"#utility.yul\":39619:39631   */\n      revert\n        /* \"#utility.yul\":39570:39633   */\n    tag_739:\n        /* \"#utility.yul\":39517:39639   */\n      pop\n      jump\t// out\n        /* \"#utility.yul\":39645:39767   */\n    tag_358:\n        /* \"#utility.yul\":39718:39742   */\n      tag_741\n        /* \"#utility.yul\":39736:39741   */\n      dup2\n        /* \"#utility.yul\":39718:39742   */\n      tag_574\n      jump\t// in\n    tag_741:\n        /* \"#utility.yul\":39711:39716   */\n      dup2\n        /* \"#utility.yul\":39708:39743   */\n      eq\n        /* \"#utility.yul\":39698:39761   */\n      tag_742\n      jumpi\n        /* \"#utility.yul\":39757:39758   */\n      0x00\n        /* \"#utility.yul\":39754:39755   */\n      dup1\n        /* \"#utility.yul\":39747:39759   */\n      revert\n        /* \"#utility.yul\":39698:39761   */\n    tag_742:\n        /* \"#utility.yul\":39645:39767   */\n      pop\n      jump\t// out\n\n    auxdata: 0xa26469706673582212205faa703c49b07cd908aa8bff0371ba4040fb9339be24317223fb55a185bebbca64736f6c63430008070033\n}\n",
				"bytecode": {
					"linkReferences": {},
					"object": "608060405234801561001057600080fd5b506140b5806100206000396000f3fe608060405234801561001057600080fd5b50600436106100f55760003560e01c80637aa18f88116100975780639d6a3125116100665780639d6a3125146102d2578063c99ba89614610304578063c9bc42ed14610334578063ec54868014610364576100f5565b80637aa18f88146102365780637b735c4614610252578063883a9673146102845780638f6a35b7146102a0576100f5565b806333a0b0ab116100d357806333a0b0ab1461018157806337f2e190146101b35780633d63af0e146101e65780635a0a139014610202576100f5565b806306699b01146100fa578063089a4c601461012a57806317072d6b14610165575b600080fd5b610114600480360381019061010f9190612f44565b610394565b60405161012191906135e2565b60405180910390f35b610144600480360381019061013f9190612e23565b6103f8565b60405161015c9c9b9a999897969594939291906136fb565b60405180910390f35b61017f600480360381019061017a9190612ec8565b610653565b005b61019b60048036038101906101969190612e6c565b610ff8565b6040516101aa93929190613618565b60405180910390f35b6101cd60048036038101906101c89190612dd6565b61107f565b6040516101dd9493929190613686565b60405180910390f35b61020060048036038101906101fb9190612d76565b611305565b005b61021c60048036038101906102179190612dd6565b611766565b60405161022d9594939291906137ca565b60405180910390f35b610250600480360381019061024b9190613023565b6118e1565b005b61026c60048036038101906102679190612d76565b611d1a565b60405161027b93929190613618565b60405180910390f35b61029e60048036038101906102999190612dd6565b611e8b565b005b6102ba60048036038101906102b59190612f44565b6124ca565b6040516102c993929190613618565b60405180910390f35b6102ec60048036038101906102e79190612fa0565b61255d565b6040516102fb9392919061364f565b60405180910390f35b61031e60048036038101906103199190612dd6565b612754565b60405161032b91906136d9565b60405180910390f35b61034e60048036038101906103499190612dd6565b61280a565b60405161035b91906139a4565b60405180910390f35b61037e60048036038101906103799190612dd6565b612aff565b60405161038b91906135fd565b60405180910390f35b60038280516020810182018051848252602083016020850120818352809550505050505081815481106103c657600080fd5b906000526020600020016000915091509054906101000a900473ffffffffffffffffffffffffffffffffffffffff1681565b60008180516020810182018051848252602083016020850120818352809550505050505060009150905080600001805461043190613c0f565b80601f016020809104026020016040519081016040528092919081815260200182805461045d90613c0f565b80156104aa5780601f1061047f576101008083540402835291602001916104aa565b820191906000526020600020905b81548152906001019060200180831161048d57829003601f168201915b5050505050908060010160009054906101000a900473ffffffffffffffffffffffffffffffffffffffff16908060020160009054906101000a900473ffffffffffffffffffffffffffffffffffffffff16908060030154908060040154908060050154908060060154908060070160009054906101000a900460ff169080600801549080600901805461053c90613c0f565b80601f016020809104026020016040519081016040528092919081815260200182805461056890613c0f565b80156105b55780601f1061058a576101008083540402835291602001916105b5565b820191906000526020600020905b81548152906001019060200180831161059857829003601f168201915b50505050509080600a0180546105ca90613c0f565b80601f01602080910402602001604051908101604052809291908181526020018280546105f690613c0f565b80156106435780601f1061061857610100808354040283529160200191610643565b820191906000526020600020905b81548152906001019060200180831161062657829003601f168201915b50505050509080600b015490508c565b600082826040516106659291906135b2565b90815260200160405180910390206004015442106106b8576040517f08c379a00000000000000000000000000000000000000000000000000000000081526004016106af90613964565b60405180910390fd5b600073ffffffffffffffffffffffffffffffffffffffff16600183836040516106e29291906135b2565b908152602001604051809103902060003373ffffffffffffffffffffffffffffffffffffffff1673ffffffffffffffffffffffffffffffffffffffff16815260200190815260200160002060000160029054906101000a900473ffffffffffffffffffffffffffffffffffffffff1673ffffffffffffffffffffffffffffffffffffffff1614156107a8576040517f08c379a000000000000000000000000000000000000000000000000000000000815260040161079f906138c4565b60405180910390fd5b600182826040516107ba9291906135b2565b908152602001604051809103902060003373ffffffffffffffffffffffffffffffffffffffff1673ffffffffffffffffffffffffffffffffffffffff16815260200190815260200160002060000160009054906101000a900460ff1615610856576040517f08c379a000000000000000000000000000000000000000000000000000000000815260040161084d90613884565b60405180910390fd5b6040518060400160405280600981526020017f6920617070726f766500000000000000000000000000000000000000000000008152508051906020012083805190602001201415610b715760018083836040516108b49291906135b2565b908152602001604051809103902060003373ffffffffffffffffffffffffffffffffffffffff1673ffffffffffffffffffffffffffffffffffffffff16815260200190815260200160002060000160006101000a81548160ff021916908315150217905550600180838360405161092c9291906135b2565b908152602001604051809103902060003373ffffffffffffffffffffffffffffffffffffffff1673ffffffffffffffffffffffffffffffffffffffff16815260200190815260200160002060000160016101000a81548160ff0219169083151502179055506001600083836040516109a59291906135b2565b908152602001604051809103902060060160008282546109c59190613a8d565b925050819055506001600083836040516109e09291906135b2565b90815260200160405180910390206003016000828254610a009190613a8d565b9250508190555060028282604051610a199291906135b2565b908152602001604051809103902060018383604051610a399291906135b2565b908152602001604051809103902060003373ffffffffffffffffffffffffffffffffffffffff1673ffffffffffffffffffffffffffffffffffffffff168152602001908152602001600020908060018154018082558091505060019003906000526020600020016000909190919091506000820160009054906101000a900460ff168160000160006101000a81548160ff0219169083151502179055506000820160019054906101000a900460ff168160000160016101000a81548160ff0219169083151502179055506000820160029054906101000a900473ffffffffffffffffffffffffffffffffffffffff168160000160026101000a81548173ffffffffffffffffffffffffffffffffffffffff021916908373ffffffffffffffffffffffffffffffffffffffff1602179055505050610ff3565b6040518060400160405280600c81526020017f6920646973617070726f766500000000000000000000000000000000000000008152508051906020012083805190602001201415610dd9576001808383604051610bcf9291906135b2565b908152602001604051809103902060003373ffffffffffffffffffffffffffffffffffffffff1673ffffffffffffffffffffffffffffffffffffffff16815260200190815260200160002060000160006101000a81548160ff021916908315150217905550600160008383604051610c489291906135b2565b90815260200160405180910390206003016000828254610c689190613a8d565b9250508190555060028282604051610c819291906135b2565b908152602001604051809103902060018383604051610ca19291906135b2565b908152602001604051809103902060003373ffffffffffffffffffffffffffffffffffffffff1673ffffffffffffffffffffffffffffffffffffffff168152602001908152602001600020908060018154018082558091505060019003906000526020600020016000909190919091506000820160009054906101000a900460ff168160000160006101000a81548160ff0219169083151502179055506000820160019054906101000a900460ff168160000160016101000a81548160ff0219169083151502179055506000820160029054906101000a900473ffffffffffffffffffffffffffffffffffffffff168160000160026101000a81548173ffffffffffffffffffffffffffffffffffffffff021916908373ffffffffffffffffffffffffffffffffffffffff1602179055505050610ff2565b6001808383604051610dec9291906135b2565b908152602001604051809103902060003373ffffffffffffffffffffffffffffffffffffffff1673ffffffffffffffffffffffffffffffffffffffff16815260200190815260200160002060000160006101000a81548160ff021916908315150217905550600160008383604051610e659291906135b2565b90815260200160405180910390206003016000828254610e859190613a8d565b9250508190555060028282604051610e9e9291906135b2565b908152602001604051809103902060018383604051610ebe9291906135b2565b908152602001604051809103902060003373ffffffffffffffffffffffffffffffffffffffff1673ffffffffffffffffffffffffffffffffffffffff168152602001908152602001600020908060018154018082558091505060019003906000526020600020016000909190919091506000820160009054906101000a900460ff168160000160006101000a81548160ff0219169083151502179055506000820160019054906101000a900460ff168160000160016101000a81548160ff0219169083151502179055506000820160029054906101000a900473ffffffffffffffffffffffffffffffffffffffff168160000160026101000a81548173ffffffffffffffffffffffffffffffffffffffff021916908373ffffffffffffffffffffffffffffffffffffffff16021790555050505b5b505050565b600182805160208101820180518482526020830160208501208183528095505050505050602052806000526040600020600091509150508060000160009054906101000a900460ff16908060000160019054906101000a900460ff16908060000160029054906101000a900473ffffffffffffffffffffffffffffffffffffffff16905083565b6000606060006060600086866040516110999291906135b2565b9081526020016040518091039020600401544210156110ed576040517f08c379a00000000000000000000000000000000000000000000000000000000081526004016110e490613944565b60405180910390fd5b6000600287876040516111019291906135b2565b9081526020016040518091039020805480602002602001604051908101604052809291908181526020016000905b828210156111e9578382906000526020600020016040518060600160405290816000820160009054906101000a900460ff161515151581526020016000820160019054906101000a900460ff161515151581526020016000820160029054906101000a900473ffffffffffffffffffffffffffffffffffffffff1673ffffffffffffffffffffffffffffffffffffffff1673ffffffffffffffffffffffffffffffffffffffff16815250508152602001906001019061112f565b50505050905060008088886040516112029291906135b2565b9081526020016040518091039020600001805461121e90613c0f565b80601f016020809104026020016040519081016040528092919081815260200182805461124a90613c0f565b80156112975780601f1061126c57610100808354040283529160200191611297565b820191906000526020600020905b81548152906001019060200180831161127a57829003601f168201915b5050505050905060008089896040516112b19291906135b2565b90815260200160405180910390206008015490506000808a8a6040516112d89291906135b2565b90815260200160405180910390206003015490508183828697509750975097505050505092959194509250565b600082826040516113179291906135b2565b908152602001604051809103902060010160009054906101000a900473ffffffffffffffffffffffffffffffffffffffff1673ffffffffffffffffffffffffffffffffffffffff163373ffffffffffffffffffffffffffffffffffffffff16146113b6576040517f08c379a00000000000000000000000000000000000000000000000000000000081526004016113ad90613904565b60405180910390fd5b600082826040516113c89291906135b2565b908152602001604051809103902060010160009054906101000a900473ffffffffffffffffffffffffffffffffffffffff1673ffffffffffffffffffffffffffffffffffffffff168373ffffffffffffffffffffffffffffffffffffffff161415611468576040517f08c379a000000000000000000000000000000000000000000000000000000000815260040161145f906138a4565b60405180910390fd5b600073ffffffffffffffffffffffffffffffffffffffff16600183836040516114929291906135b2565b908152602001604051809103902060008573ffffffffffffffffffffffffffffffffffffffff1673ffffffffffffffffffffffffffffffffffffffff16815260200190815260200160002060000160029054906101000a900473ffffffffffffffffffffffffffffffffffffffff1673ffffffffffffffffffffffffffffffffffffffff1614611557576040517f08c379a000000000000000000000000000000000000000000000000000000000815260040161154e90613824565b60405180910390fd5b600082826040516115699291906135b2565b90815260200160405180910390206004015442106115bc576040517f08c379a00000000000000000000000000000000000000000000000000000000081526004016115b3906138e4565b60405180910390fd5b600060405180606001604052806000151581526020016000151581526020018573ffffffffffffffffffffffffffffffffffffffff168152509050806001848460405161160a9291906135b2565b908152602001604051809103902060008673ffffffffffffffffffffffffffffffffffffffff1673ffffffffffffffffffffffffffffffffffffffff16815260200190815260200160002060008201518160000160006101000a81548160ff02191690831515021790555060208201518160000160016101000a81548160ff02191690831515021790555060408201518160000160026101000a81548173ffffffffffffffffffffffffffffffffffffffff021916908373ffffffffffffffffffffffffffffffffffffffff160217905550905050600383836040516116f19291906135b2565b9081526020016040518091039020849080600181540180825580915050600190039060005260206000200160009091909190916101000a81548173ffffffffffffffffffffffffffffffffffffffff021916908373ffffffffffffffffffffffffffffffffffffffff16021790555050505050565b6060600080600080600087876040516117809291906135b2565b9081526020016040518091039020600001600088886040516117a39291906135b2565b908152602001604051809103902060040154600089896040516117c79291906135b2565b908152602001604051809103902060010160009054906101000a900473ffffffffffffffffffffffffffffffffffffffff1660008a8a60405161180b9291906135b2565b90815260200160405180910390206005015460008b8b60405161182f9291906135b2565b90815260200160405180910390206006015484805461184d90613c0f565b80601f016020809104026020016040519081016040528092919081815260200182805461187990613c0f565b80156118c65780601f1061189b576101008083540402835291602001916118c6565b820191906000526020600020905b8154815290600101906020018083116118a957829003601f168201915b50505050509450945094509450945094509295509295909350565b600073ffffffffffffffffffffffffffffffffffffffff1660008760405161190991906135cb565b908152602001604051809103902060010160009054906101000a900473ffffffffffffffffffffffffffffffffffffffff1673ffffffffffffffffffffffffffffffffffffffff1614611991576040517f08c379a000000000000000000000000000000000000000000000000000000000815260040161198890613844565b60405180910390fd5b60006040518061018001604052808881526020013373ffffffffffffffffffffffffffffffffffffffff1681526020013073ffffffffffffffffffffffffffffffffffffffff1681526020016000815260200187426119f09190613a8d565b8152602001868152602001600081526020016000151581526020017f52656a6563746564000000000000000000000000000000000000000000000000815260200183815260200184815260200185815250905080600088604051611a5491906135cb565b90815260200160405180910390206000820151816000019080519060200190611a7e929190612b39565b5060208201518160010160006101000a81548173ffffffffffffffffffffffffffffffffffffffff021916908373ffffffffffffffffffffffffffffffffffffffff16021790555060408201518160020160006101000a81548173ffffffffffffffffffffffffffffffffffffffff021916908373ffffffffffffffffffffffffffffffffffffffff160217905550606082015181600301556080820151816004015560a0820151816005015560c0820151816006015560e08201518160070160006101000a81548160ff0219169083151502179055506101008201518160080155610120820151816009019080519060200190611b7d929190612b39565b5061014082015181600a019080519060200190611b9b929190612b39565b5061016082015181600b015590505080600084604051611bbb91906135cb565b90815260200160405180910390206000820151816000019080519060200190611be5929190612b39565b5060208201518160010160006101000a81548173ffffffffffffffffffffffffffffffffffffffff021916908373ffffffffffffffffffffffffffffffffffffffff16021790555060408201518160020160006101000a81548173ffffffffffffffffffffffffffffffffffffffff021916908373ffffffffffffffffffffffffffffffffffffffff160217905550606082015181600301556080820151816004015560a0820151816005015560c0820151816006015560e08201518160070160006101000a81548160ff0219169083151502179055506101008201518160080155610120820151816009019080519060200190611ce4929190612b39565b5061014082015181600a019080519060200190611d02929190612b39565b5061016082015181600b015590505050505050505050565b600080600060018585604051611d319291906135b2565b908152602001604051809103902060008773ffffffffffffffffffffffffffffffffffffffff1673ffffffffffffffffffffffffffffffffffffffff16815260200190815260200160002060000160019054906101000a900460ff1660018686604051611d9f9291906135b2565b908152602001604051809103902060008873ffffffffffffffffffffffffffffffffffffffff1673ffffffffffffffffffffffffffffffffffffffff16815260200190815260200160002060000160009054906101000a900460ff1660018787604051611e0d9291906135b2565b908152602001604051809103902060008973ffffffffffffffffffffffffffffffffffffffff1673ffffffffffffffffffffffffffffffffffffffff16815260200190815260200160002060000160029054906101000a900473ffffffffffffffffffffffffffffffffffffffff1692509250925093509350939050565b60008282604051611e9d9291906135b2565b908152602001604051809103902060040154421015611ef1576040517f08c379a0000000000000000000000000000000000000000000000000000000008152600401611ee890613944565b60405180910390fd5b6000151560008383604051611f079291906135b2565b908152602001604051809103902060070160009054906101000a900460ff16151514611f68576040517f08c379a0000000000000000000000000000000000000000000000000000000008152600401611f5f90613984565b60405180910390fd5b60008282604051611f7a9291906135b2565b908152602001604051809103902060010160009054906101000a900473ffffffffffffffffffffffffffffffffffffffff1673ffffffffffffffffffffffffffffffffffffffff163373ffffffffffffffffffffffffffffffffffffffff1614806120925750600073ffffffffffffffffffffffffffffffffffffffff166001838360405161200a9291906135b2565b908152602001604051809103902060003373ffffffffffffffffffffffffffffffffffffffff1673ffffffffffffffffffffffffffffffffffffffff16815260200190815260200160002060000160029054906101000a900473ffffffffffffffffffffffffffffffffffffffff1673ffffffffffffffffffffffffffffffffffffffff1614155b6120d1576040517f08c379a00000000000000000000000000000000000000000000000000000000081526004016120c890613864565b60405180910390fd5b60006064600384846040516120e79291906135b2565b9081526020016040518091039020805490506000858560405161210b9291906135b2565b9081526020016040518091039020600601546121279190613ae3565b6121319190613b14565b9050600083836040516121459291906135b2565b90815260200160405180910390206005015481106121a6577f4163636570746564000000000000000000000000000000000000000000000000600084846040516121909291906135b2565b9081526020016040518091039020600801819055505b60005b600384846040516121bb9291906135b2565b9081526020016040518091039020805490508160ff1610156124885760001515600185856040516121ed9291906135b2565b908152602001604051809103902060006003878760405161220f9291906135b2565b90815260200160405180910390208460ff168154811061223257612231613d29565b5b9060005260206000200160009054906101000a900473ffffffffffffffffffffffffffffffffffffffff1673ffffffffffffffffffffffffffffffffffffffff1673ffffffffffffffffffffffffffffffffffffffff16815260200190815260200160002060000160009054906101000a900460ff161515141561247557600284846040516122c29291906135b2565b9081526020016040518091039020600185856040516122e29291906135b2565b90815260200160405180910390206000600387876040516123049291906135b2565b90815260200160405180910390208460ff168154811061232757612326613d29565b5b9060005260206000200160009054906101000a900473ffffffffffffffffffffffffffffffffffffffff1673ffffffffffffffffffffffffffffffffffffffff1673ffffffffffffffffffffffffffffffffffffffff168152602001908152602001600020908060018154018082558091505060019003906000526020600020016000909190919091506000820160009054906101000a900460ff168160000160006101000a81548160ff0219169083151502179055506000820160019054906101000a900460ff168160000160016101000a81548160ff0219169083151502179055506000820160029054906101000a900473ffffffffffffffffffffffffffffffffffffffff168160000160026101000a81548173ffffffffffffffffffffffffffffffffffffffff021916908373ffffffffffffffffffffffffffffffffffffffff16021790555050505b808061248090613c72565b9150506121a9565b5060016000848460405161249d9291906135b2565b908152602001604051809103902060070160006101000a81548160ff021916908315150217905550505050565b60028280516020810182018051848252602083016020850120818352809550505050505081815481106124fc57600080fd5b90600052602060002001600091509150508060000160009054906101000a900460ff16908060000160019054906101000a900460ff16908060000160029054906101000a900473ffffffffffffffffffffffffffffffffffffffff16905083565b6000806000808760405161257191906135cb565b908152602001604051809103902060010160009054906101000a900473ffffffffffffffffffffffffffffffffffffffff1673ffffffffffffffffffffffffffffffffffffffff163373ffffffffffffffffffffffffffffffffffffffff1614612610576040517f08c379a000000000000000000000000000000000000000000000000000000000815260040161260790613924565b60405180910390fd5b600060019050600060019050600060019050600073ffffffffffffffffffffffffffffffffffffffff1660008b60405161264a91906135cb565b908152602001604051809103902060010160009054906101000a900473ffffffffffffffffffffffffffffffffffffffff1673ffffffffffffffffffffffffffffffffffffffff1614156126ab57600180600195509550955050505061274a565b60008a6040516126bb91906135cb565b90815260200160405180910390206005015489146126d857600092505b60008a6040516126e891906135cb565b9081526020016040518091039020600b0154871461270557600091505b87426127119190613a8d565b60008b60405161272191906135cb565b9081526020016040518091039020600401541461273d57600090505b8282829550955095505050505b9450945094915050565b6060600083836040516127689291906135b2565b9081526020016040518091039020600001805461278490613c0f565b80601f01602080910402602001604051908101604052809291908181526020018280546127b090613c0f565b80156127fd5780601f106127d2576101008083540402835291602001916127fd565b820191906000526020600020905b8154815290600101906020018083116127e057829003601f168201915b5050505050905092915050565b612812612bbf565b600083836040516128249291906135b2565b90815260200160405180910390206040518061018001604052908160008201805461284e90613c0f565b80601f016020809104026020016040519081016040528092919081815260200182805461287a90613c0f565b80156128c75780601f1061289c576101008083540402835291602001916128c7565b820191906000526020600020905b8154815290600101906020018083116128aa57829003601f168201915b505050505081526020016001820160009054906101000a900473ffffffffffffffffffffffffffffffffffffffff1673ffffffffffffffffffffffffffffffffffffffff1673ffffffffffffffffffffffffffffffffffffffff1681526020016002820160009054906101000a900473ffffffffffffffffffffffffffffffffffffffff1673ffffffffffffffffffffffffffffffffffffffff1673ffffffffffffffffffffffffffffffffffffffff168152602001600382015481526020016004820154815260200160058201548152602001600682015481526020016007820160009054906101000a900460ff16151515158152602001600882015481526020016009820180546129d990613c0f565b80601f0160208091040260200160405190810160405280929190818152602001828054612a0590613c0f565b8015612a525780601f10612a2757610100808354040283529160200191612a52565b820191906000526020600020905b815481529060010190602001808311612a3557829003601f168201915b50505050508152602001600a82018054612a6b90613c0f565b80601f0160208091040260200160405190810160405280929190818152602001828054612a9790613c0f565b8015612ae45780601f10612ab957610100808354040283529160200191612ae4565b820191906000526020600020905b815481529060010190602001808311612ac757829003601f168201915b50505050508152602001600b82015481525050905092915050565b6000808383604051612b129291906135b2565b908152602001604051809103902060070160009054906101000a900460ff16905092915050565b828054612b4590613c0f565b90600052602060002090601f016020900481019282612b675760008555612bae565b82601f10612b8057805160ff1916838001178555612bae565b82800160010185558215612bae579182015b82811115612bad578251825591602001919060010190612b92565b5b509050612bbb9190612c54565b5090565b60405180610180016040528060608152602001600073ffffffffffffffffffffffffffffffffffffffff168152602001600073ffffffffffffffffffffffffffffffffffffffff16815260200160008152602001600081526020016000815260200160008152602001600015158152602001600080191681526020016060815260200160608152602001600080191681525090565b5b80821115612c6d576000816000905550600101612c55565b5090565b6000612c84612c7f846139eb565b6139c6565b905082815260208101848484011115612ca057612c9f613d96565b5b612cab848285613bcd565b509392505050565b600081359050612cc28161403a565b92915050565b600081359050612cd781614051565b92915050565b60008083601f840112612cf357612cf2613d8c565b5b8235905067ffffffffffffffff811115612d1057612d0f613d87565b5b602083019150836001820283011115612d2c57612d2b613d91565b5b9250929050565b600082601f830112612d4857612d47613d8c565b5b8135612d58848260208601612c71565b91505092915050565b600081359050612d7081614068565b92915050565b600080600060408486031215612d8f57612d8e613da0565b5b6000612d9d86828701612cb3565b935050602084013567ffffffffffffffff811115612dbe57612dbd613d9b565b5b612dca86828701612cdd565b92509250509250925092565b60008060208385031215612ded57612dec613da0565b5b600083013567ffffffffffffffff811115612e0b57612e0a613d9b565b5b612e1785828601612cdd565b92509250509250929050565b600060208284031215612e3957612e38613da0565b5b600082013567ffffffffffffffff811115612e5757612e56613d9b565b5b612e6384828501612d33565b91505092915050565b60008060408385031215612e8357612e82613da0565b5b600083013567ffffffffffffffff811115612ea157612ea0613d9b565b5b612ead85828601612d33565b9250506020612ebe85828601612cb3565b9150509250929050565b600080600060408486031215612ee157612ee0613da0565b5b600084013567ffffffffffffffff811115612eff57612efe613d9b565b5b612f0b86828701612d33565b935050602084013567ffffffffffffffff811115612f2c57612f2b613d9b565b5b612f3886828701612cdd565b92509250509250925092565b60008060408385031215612f5b57612f5a613da0565b5b600083013567ffffffffffffffff811115612f7957612f78613d9b565b5b612f8585828601612d33565b9250506020612f9685828601612d61565b9150509250929050565b60008060008060808587031215612fba57612fb9613da0565b5b600085013567ffffffffffffffff811115612fd857612fd7613d9b565b5b612fe487828801612d33565b9450506020612ff587828801612d61565b935050604061300687828801612d61565b925050606061301787828801612cc8565b91505092959194509250565b60008060008060008060c087890312156130405761303f613da0565b5b600087013567ffffffffffffffff81111561305e5761305d613d9b565b5b61306a89828a01612d33565b965050602061307b89828a01612d61565b955050604061308c89828a01612d61565b945050606061309d89828a01612cc8565b935050608087013567ffffffffffffffff8111156130be576130bd613d9b565b5b6130ca89828a01612d33565b92505060a087013567ffffffffffffffff8111156130eb576130ea613d9b565b5b6130f789828a01612d33565b9150509295509295509295565b60006131108383613552565b60608301905092915050565b61312581613b6e565b82525050565b61313481613b6e565b82525050565b600061314582613a2c565b61314f8185613a4f565b935061315a83613a1c565b8060005b8381101561318b5781516131728882613104565b975061317d83613a42565b92505060018101905061315e565b5085935050505092915050565b6131a181613b80565b82525050565b6131b081613b80565b82525050565b6131bf81613b8c565b82525050565b6131ce81613b8c565b82525050565b60006131e08385613a82565b93506131ed838584613bcd565b82840190509392505050565b600061320482613a37565b61320e8185613a60565b935061321e818560208601613bdc565b61322781613da5565b840191505092915050565b600061323d82613a37565b6132478185613a71565b9350613257818560208601613bdc565b61326081613da5565b840191505092915050565b600061327682613a37565b6132808185613a82565b9350613290818560208601613bdc565b80840191505092915050565b60006132a9601f83613a71565b91506132b482613db6565b602082019050919050565b60006132cc601983613a71565b91506132d782613ddf565b602082019050919050565b60006132ef602683613a71565b91506132fa82613e08565b604082019050919050565b6000613312601c83613a71565b915061331d82613e57565b602082019050919050565b6000613335601583613a71565b915061334082613e80565b602082019050919050565b6000613358601e83613a71565b915061336382613ea9565b602082019050919050565b600061337b602483613a71565b915061338682613ed2565b604082019050919050565b600061339e602883613a71565b91506133a982613f21565b604082019050919050565b60006133c1601483613a71565b91506133cc82613f70565b602082019050919050565b60006133e4602083613a71565b91506133ef82613f99565b602082019050919050565b6000613407601283613a71565b915061341282613fc2565b602082019050919050565b600061342a602583613a71565b915061343582613feb565b604082019050919050565b600061018083016000830151848203600086015261345e82826131f9565b9150506020830151613473602086018261311c565b506040830151613486604086018261311c565b5060608301516134996060860182613594565b5060808301516134ac6080860182613594565b5060a08301516134bf60a0860182613594565b5060c08301516134d260c0860182613594565b5060e08301516134e560e0860182613198565b506101008301516134fa6101008601826131b6565b5061012083015184820361012086015261351482826131f9565b91505061014083015184820361014086015261353082826131f9565b9150506101608301516135476101608601826131b6565b508091505092915050565b6060820160008201516135686000850182613198565b50602082015161357b6020850182613198565b50604082015161358e604085018261311c565b50505050565b61359d81613bb6565b82525050565b6135ac81613bb6565b82525050565b60006135bf8284866131d4565b91508190509392505050565b60006135d7828461326b565b915081905092915050565b60006020820190506135f7600083018461312b565b92915050565b600060208201905061361260008301846131a7565b92915050565b600060608201905061362d60008301866131a7565b61363a60208301856131a7565b613647604083018461312b565b949350505050565b600060608201905061366460008301866131a7565b61367160208301856131a7565b61367e60408301846131a7565b949350505050565b600060808201905061369b60008301876131c5565b81810360208301526136ad8186613232565b90506136bc60408301856135a3565b81810360608301526136ce818461313a565b905095945050505050565b600060208201905081810360008301526136f38184613232565b905092915050565b6000610180820190508181036000830152613716818f613232565b9050613725602083018e61312b565b613732604083018d61312b565b61373f606083018c6135a3565b61374c608083018b6135a3565b61375960a083018a6135a3565b61376660c08301896135a3565b61377360e08301886131a7565b6137816101008301876131c5565b8181036101208301526137948186613232565b90508181036101408301526137a98185613232565b90506137b96101608301846131c5565b9d9c50505050505050505050505050565b600060a08201905081810360008301526137e48188613232565b90506137f360208301876135a3565b613800604083018661312b565b61380d60608301856135a3565b61381a60808301846135a3565b9695505050505050565b6000602082019050818103600083015261383d8161329c565b9050919050565b6000602082019050818103600083015261385d816132bf565b9050919050565b6000602082019050818103600083015261387d816132e2565b9050919050565b6000602082019050818103600083015261389d81613305565b9050919050565b600060208201905081810360008301526138bd81613328565b9050919050565b600060208201905081810360008301526138dd8161334b565b9050919050565b600060208201905081810360008301526138fd8161336e565b9050919050565b6000602082019050818103600083015261391d81613391565b9050919050565b6000602082019050818103600083015261393d816133b4565b9050919050565b6000602082019050818103600083015261395d816133d7565b9050919050565b6000602082019050818103600083015261397d816133fa565b9050919050565b6000602082019050818103600083015261399d8161341d565b9050919050565b600060208201905081810360008301526139be8184613440565b905092915050565b60006139d06139e1565b90506139dc8282613c41565b919050565b6000604051905090565b600067ffffffffffffffff821115613a0657613a05613d58565b5b613a0f82613da5565b9050602081019050919050565b6000819050602082019050919050565b600081519050919050565b600081519050919050565b6000602082019050919050565b600082825260208201905092915050565b600082825260208201905092915050565b600082825260208201905092915050565b600081905092915050565b6000613a9882613bb6565b9150613aa383613bb6565b9250827fffffffffffffffffffffffffffffffffffffffffffffffffffffffffffffffff03821115613ad857613ad7613c9c565b5b828201905092915050565b6000613aee82613bb6565b9150613af983613bb6565b925082613b0957613b08613ccb565b5b828204905092915050565b6000613b1f82613bb6565b9150613b2a83613bb6565b9250817fffffffffffffffffffffffffffffffffffffffffffffffffffffffffffffffff0483118215151615613b6357613b62613c9c565b5b828202905092915050565b6000613b7982613b96565b9050919050565b60008115159050919050565b6000819050919050565b600073ffffffffffffffffffffffffffffffffffffffff82169050919050565b6000819050919050565b600060ff82169050919050565b82818337600083830152505050565b60005b83811015613bfa578082015181840152602081019050613bdf565b83811115613c09576000848401525b50505050565b60006002820490506001821680613c2757607f821691505b60208210811415613c3b57613c3a613cfa565b5b50919050565b613c4a82613da5565b810181811067ffffffffffffffff82111715613c6957613c68613d58565b5b80604052505050565b6000613c7d82613bc0565b915060ff821415613c9157613c90613c9c565b5b600182019050919050565b7f4e487b7100000000000000000000000000000000000000000000000000000000600052601160045260246000fd5b7f4e487b7100000000000000000000000000000000000000000000000000000000600052601260045260246000fd5b7f4e487b7100000000000000000000000000000000000000000000000000000000600052602260045260246000fd5b7f4e487b7100000000000000000000000000000000000000000000000000000000600052603260045260246000fd5b7f4e487b7100000000000000000000000000000000000000000000000000000000600052604160045260246000fd5b600080fd5b600080fd5b600080fd5b600080fd5b600080fd5b600080fd5b6000601f19601f8301169050919050565b7f526563697069656e7420697320616c7265616479207265676973746572656400600082015250565b7f50726f706f73616c20616c726561647920637265617465642100000000000000600082015250565b7f596f75206172656e277420617574686f72697a6520746f20636f6d70696c652060008201527f42756e646c650000000000000000000000000000000000000000000000000000602082015250565b7f596f7520616c72656164792073656e74206120726573706f6e73652e00000000600082015250565b7f496e69746961746f722063616e277420766f7465210000000000000000000000600082015250565b7f596f7520617265206e6f74207265676973746572656420746f20766f74650000600082015250565b7f50726f706f73616c20686173207265616368656420697473206578706972792060008201527f6461746500000000000000000000000000000000000000000000000000000000602082015250565b7f4f6e6c7920696e69746961746f722063616e207265676973746572206120726560008201527f63697069656e742e000000000000000000000000000000000000000000000000602082015250565b7f596f75206172656e277420496e69746961746f72000000000000000000000000600082015250565b7f5665726469637420686173206e6f74206265656e207265616368656420796574600082015250565b7f566f74696e672068617320657870697265640000000000000000000000000000600082015250565b7f436f6e73656e7375732068617320616c7265616479206265656e2063616c637560008201527f6c61746564000000000000000000000000000000000000000000000000000000602082015250565b61404381613b6e565b811461404e57600080fd5b50565b61405a81613b8c565b811461406557600080fd5b50565b61407181613bb6565b811461407c57600080fd5b5056fea26469706673582212205faa703c49b07cd908aa8bff0371ba4040fb9339be24317223fb55a185bebbca64736f6c63430008070033",
					"opcodes": "PUSH1 0x80 PUSH1 0x40 MSTORE CALLVALUE DUP1 ISZERO PUSH2 0x10 JUMPI PUSH1 0x0 DUP1 REVERT JUMPDEST POP PUSH2 0x40B5 DUP1 PUSH2 0x20 PUSH1 0x0 CODECOPY PUSH1 0x0 RETURN INVALID PUSH1 0x80 PUSH1 0x40 MSTORE CALLVALUE DUP1 ISZERO PUSH2 0x10 JUMPI PUSH1 0x0 DUP1 REVERT JUMPDEST POP PUSH1 0x4 CALLDATASIZE LT PUSH2 0xF5 JUMPI PUSH1 0x0 CALLDATALOAD PUSH1 0xE0 SHR DUP1 PUSH4 0x7AA18F88 GT PUSH2 0x97 JUMPI DUP1 PUSH4 0x9D6A3125 GT PUSH2 0x66 JUMPI DUP1 PUSH4 0x9D6A3125 EQ PUSH2 0x2D2 JUMPI DUP1 PUSH4 0xC99BA896 EQ PUSH2 0x304 JUMPI DUP1 PUSH4 0xC9BC42ED EQ PUSH2 0x334 JUMPI DUP1 PUSH4 0xEC548680 EQ PUSH2 0x364 JUMPI PUSH2 0xF5 JUMP JUMPDEST DUP1 PUSH4 0x7AA18F88 EQ PUSH2 0x236 JUMPI DUP1 PUSH4 0x7B735C46 EQ PUSH2 0x252 JUMPI DUP1 PUSH4 0x883A9673 EQ PUSH2 0x284 JUMPI DUP1 PUSH4 0x8F6A35B7 EQ PUSH2 0x2A0 JUMPI PUSH2 0xF5 JUMP JUMPDEST DUP1 PUSH4 0x33A0B0AB GT PUSH2 0xD3 JUMPI DUP1 PUSH4 0x33A0B0AB EQ PUSH2 0x181 JUMPI DUP1 PUSH4 0x37F2E190 EQ PUSH2 0x1B3 JUMPI DUP1 PUSH4 0x3D63AF0E EQ PUSH2 0x1E6 JUMPI DUP1 PUSH4 0x5A0A1390 EQ PUSH2 0x202 JUMPI PUSH2 0xF5 JUMP JUMPDEST DUP1 PUSH4 0x6699B01 EQ PUSH2 0xFA JUMPI DUP1 PUSH4 0x89A4C60 EQ PUSH2 0x12A JUMPI DUP1 PUSH4 0x17072D6B EQ PUSH2 0x165 JUMPI JUMPDEST PUSH1 0x0 DUP1 REVERT JUMPDEST PUSH2 0x114 PUSH1 0x4 DUP1 CALLDATASIZE SUB DUP2 ADD SWAP1 PUSH2 0x10F SWAP2 SWAP1 PUSH2 0x2F44 JUMP JUMPDEST PUSH2 0x394 JUMP JUMPDEST PUSH1 0x40 MLOAD PUSH2 0x121 SWAP2 SWAP1 PUSH2 0x35E2 JUMP JUMPDEST PUSH1 0x40 MLOAD DUP1 SWAP2 SUB SWAP1 RETURN JUMPDEST PUSH2 0x144 PUSH1 0x4 DUP1 CALLDATASIZE SUB DUP2 ADD SWAP1 PUSH2 0x13F SWAP2 SWAP1 PUSH2 0x2E23 JUMP JUMPDEST PUSH2 0x3F8 JUMP JUMPDEST PUSH1 0x40 MLOAD PUSH2 0x15C SWAP13 SWAP12 SWAP11 SWAP10 SWAP9 SWAP8 SWAP7 SWAP6 SWAP5 SWAP4 SWAP3 SWAP2 SWAP1 PUSH2 0x36FB JUMP JUMPDEST PUSH1 0x40 MLOAD DUP1 SWAP2 SUB SWAP1 RETURN JUMPDEST PUSH2 0x17F PUSH1 0x4 DUP1 CALLDATASIZE SUB DUP2 ADD SWAP1 PUSH2 0x17A SWAP2 SWAP1 PUSH2 0x2EC8 JUMP JUMPDEST PUSH2 0x653 JUMP JUMPDEST STOP JUMPDEST PUSH2 0x19B PUSH1 0x4 DUP1 CALLDATASIZE SUB DUP2 ADD SWAP1 PUSH2 0x196 SWAP2 SWAP1 PUSH2 0x2E6C JUMP JUMPDEST PUSH2 0xFF8 JUMP JUMPDEST PUSH1 0x40 MLOAD PUSH2 0x1AA SWAP4 SWAP3 SWAP2 SWAP1 PUSH2 0x3618 JUMP JUMPDEST PUSH1 0x40 MLOAD DUP1 SWAP2 SUB SWAP1 RETURN JUMPDEST PUSH2 0x1CD PUSH1 0x4 DUP1 CALLDATASIZE SUB DUP2 ADD SWAP1 PUSH2 0x1C8 SWAP2 SWAP1 PUSH2 0x2DD6 JUMP JUMPDEST PUSH2 0x107F JUMP JUMPDEST PUSH1 0x40 MLOAD PUSH2 0x1DD SWAP5 SWAP4 SWAP3 SWAP2 SWAP1 PUSH2 0x3686 JUMP JUMPDEST PUSH1 0x40 MLOAD DUP1 SWAP2 SUB SWAP1 RETURN JUMPDEST PUSH2 0x200 PUSH1 0x4 DUP1 CALLDATASIZE SUB DUP2 ADD SWAP1 PUSH2 0x1FB SWAP2 SWAP1 PUSH2 0x2D76 JUMP JUMPDEST PUSH2 0x1305 JUMP JUMPDEST STOP JUMPDEST PUSH2 0x21C PUSH1 0x4 DUP1 CALLDATASIZE SUB DUP2 ADD SWAP1 PUSH2 0x217 SWAP2 SWAP1 PUSH2 0x2DD6 JUMP JUMPDEST PUSH2 0x1766 JUMP JUMPDEST PUSH1 0x40 MLOAD PUSH2 0x22D SWAP6 SWAP5 SWAP4 SWAP3 SWAP2 SWAP1 PUSH2 0x37CA JUMP JUMPDEST PUSH1 0x40 MLOAD DUP1 SWAP2 SUB SWAP1 RETURN JUMPDEST PUSH2 0x250 PUSH1 0x4 DUP1 CALLDATASIZE SUB DUP2 ADD SWAP1 PUSH2 0x24B SWAP2 SWAP1 PUSH2 0x3023 JUMP JUMPDEST PUSH2 0x18E1 JUMP JUMPDEST STOP JUMPDEST PUSH2 0x26C PUSH1 0x4 DUP1 CALLDATASIZE SUB DUP2 ADD SWAP1 PUSH2 0x267 SWAP2 SWAP1 PUSH2 0x2D76 JUMP JUMPDEST PUSH2 0x1D1A JUMP JUMPDEST PUSH1 0x40 MLOAD PUSH2 0x27B SWAP4 SWAP3 SWAP2 SWAP1 PUSH2 0x3618 JUMP JUMPDEST PUSH1 0x40 MLOAD DUP1 SWAP2 SUB SWAP1 RETURN JUMPDEST PUSH2 0x29E PUSH1 0x4 DUP1 CALLDATASIZE SUB DUP2 ADD SWAP1 PUSH2 0x299 SWAP2 SWAP1 PUSH2 0x2DD6 JUMP JUMPDEST PUSH2 0x1E8B JUMP JUMPDEST STOP JUMPDEST PUSH2 0x2BA PUSH1 0x4 DUP1 CALLDATASIZE SUB DUP2 ADD SWAP1 PUSH2 0x2B5 SWAP2 SWAP1 PUSH2 0x2F44 JUMP JUMPDEST PUSH2 0x24CA JUMP JUMPDEST PUSH1 0x40 MLOAD PUSH2 0x2C9 SWAP4 SWAP3 SWAP2 SWAP1 PUSH2 0x3618 JUMP JUMPDEST PUSH1 0x40 MLOAD DUP1 SWAP2 SUB SWAP1 RETURN JUMPDEST PUSH2 0x2EC PUSH1 0x4 DUP1 CALLDATASIZE SUB DUP2 ADD SWAP1 PUSH2 0x2E7 SWAP2 SWAP1 PUSH2 0x2FA0 JUMP JUMPDEST PUSH2 0x255D JUMP JUMPDEST PUSH1 0x40 MLOAD PUSH2 0x2FB SWAP4 SWAP3 SWAP2 SWAP1 PUSH2 0x364F JUMP JUMPDEST PUSH1 0x40 MLOAD DUP1 SWAP2 SUB SWAP1 RETURN JUMPDEST PUSH2 0x31E PUSH1 0x4 DUP1 CALLDATASIZE SUB DUP2 ADD SWAP1 PUSH2 0x319 SWAP2 SWAP1 PUSH2 0x2DD6 JUMP JUMPDEST PUSH2 0x2754 JUMP JUMPDEST PUSH1 0x40 MLOAD PUSH2 0x32B SWAP2 SWAP1 PUSH2 0x36D9 JUMP JUMPDEST PUSH1 0x40 MLOAD DUP1 SWAP2 SUB SWAP1 RETURN JUMPDEST PUSH2 0x34E PUSH1 0x4 DUP1 CALLDATASIZE SUB DUP2 ADD SWAP1 PUSH2 0x349 SWAP2 SWAP1 PUSH2 0x2DD6 JUMP JUMPDEST PUSH2 0x280A JUMP JUMPDEST PUSH1 0x40 MLOAD PUSH2 0x35B SWAP2 SWAP1 PUSH2 0x39A4 JUMP JUMPDEST PUSH1 0x40 MLOAD DUP1 SWAP2 SUB SWAP1 RETURN JUMPDEST PUSH2 0x37E PUSH1 0x4 DUP1 CALLDATASIZE SUB DUP2 ADD SWAP1 PUSH2 0x379 SWAP2 SWAP1 PUSH2 0x2DD6 JUMP JUMPDEST PUSH2 0x2AFF JUMP JUMPDEST PUSH1 0x40 MLOAD PUSH2 0x38B SWAP2 SWAP1 PUSH2 0x35FD JUMP JUMPDEST PUSH1 0x40 MLOAD DUP1 SWAP2 SUB SWAP1 RETURN JUMPDEST PUSH1 0x3 DUP3 DUP1 MLOAD PUSH1 0x20 DUP2 ADD DUP3 ADD DUP1 MLOAD DUP5 DUP3 MSTORE PUSH1 0x20 DUP4 ADD PUSH1 0x20 DUP6 ADD KECCAK256 DUP2 DUP4 MSTORE DUP1 SWAP6 POP POP POP POP POP POP DUP2 DUP2 SLOAD DUP2 LT PUSH2 0x3C6 JUMPI PUSH1 0x0 DUP1 REVERT JUMPDEST SWAP1 PUSH1 0x0 MSTORE PUSH1 0x20 PUSH1 0x0 KECCAK256 ADD PUSH1 0x0 SWAP2 POP SWAP2 POP SWAP1 SLOAD SWAP1 PUSH2 0x100 EXP SWAP1 DIV PUSH20 0xFFFFFFFFFFFFFFFFFFFFFFFFFFFFFFFFFFFFFFFF AND DUP2 JUMP JUMPDEST PUSH1 0x0 DUP2 DUP1 MLOAD PUSH1 0x20 DUP2 ADD DUP3 ADD DUP1 MLOAD DUP5 DUP3 MSTORE PUSH1 0x20 DUP4 ADD PUSH1 0x20 DUP6 ADD KECCAK256 DUP2 DUP4 MSTORE DUP1 SWAP6 POP POP POP POP POP POP PUSH1 0x0 SWAP2 POP SWAP1 POP DUP1 PUSH1 0x0 ADD DUP1 SLOAD PUSH2 0x431 SWAP1 PUSH2 0x3C0F JUMP JUMPDEST DUP1 PUSH1 0x1F ADD PUSH1 0x20 DUP1 SWAP2 DIV MUL PUSH1 0x20 ADD PUSH1 0x40 MLOAD SWAP1 DUP2 ADD PUSH1 0x40 MSTORE DUP1 SWAP3 SWAP2 SWAP1 DUP2 DUP2 MSTORE PUSH1 0x20 ADD DUP3 DUP1 SLOAD PUSH2 0x45D SWAP1 PUSH2 0x3C0F JUMP JUMPDEST DUP1 ISZERO PUSH2 0x4AA JUMPI DUP1 PUSH1 0x1F LT PUSH2 0x47F JUMPI PUSH2 0x100 DUP1 DUP4 SLOAD DIV MUL DUP4 MSTORE SWAP2 PUSH1 0x20 ADD SWAP2 PUSH2 0x4AA JUMP JUMPDEST DUP3 ADD SWAP2 SWAP1 PUSH1 0x0 MSTORE PUSH1 0x20 PUSH1 0x0 KECCAK256 SWAP1 JUMPDEST DUP2 SLOAD DUP2 MSTORE SWAP1 PUSH1 0x1 ADD SWAP1 PUSH1 0x20 ADD DUP1 DUP4 GT PUSH2 0x48D JUMPI DUP3 SWAP1 SUB PUSH1 0x1F AND DUP3 ADD SWAP2 JUMPDEST POP POP POP POP POP SWAP1 DUP1 PUSH1 0x1 ADD PUSH1 0x0 SWAP1 SLOAD SWAP1 PUSH2 0x100 EXP SWAP1 DIV PUSH20 0xFFFFFFFFFFFFFFFFFFFFFFFFFFFFFFFFFFFFFFFF AND SWAP1 DUP1 PUSH1 0x2 ADD PUSH1 0x0 SWAP1 SLOAD SWAP1 PUSH2 0x100 EXP SWAP1 DIV PUSH20 0xFFFFFFFFFFFFFFFFFFFFFFFFFFFFFFFFFFFFFFFF AND SWAP1 DUP1 PUSH1 0x3 ADD SLOAD SWAP1 DUP1 PUSH1 0x4 ADD SLOAD SWAP1 DUP1 PUSH1 0x5 ADD SLOAD SWAP1 DUP1 PUSH1 0x6 ADD SLOAD SWAP1 DUP1 PUSH1 0x7 ADD PUSH1 0x0 SWAP1 SLOAD SWAP1 PUSH2 0x100 EXP SWAP1 DIV PUSH1 0xFF AND SWAP1 DUP1 PUSH1 0x8 ADD SLOAD SWAP1 DUP1 PUSH1 0x9 ADD DUP1 SLOAD PUSH2 0x53C SWAP1 PUSH2 0x3C0F JUMP JUMPDEST DUP1 PUSH1 0x1F ADD PUSH1 0x20 DUP1 SWAP2 DIV MUL PUSH1 0x20 ADD PUSH1 0x40 MLOAD SWAP1 DUP2 ADD PUSH1 0x40 MSTORE DUP1 SWAP3 SWAP2 SWAP1 DUP2 DUP2 MSTORE PUSH1 0x20 ADD DUP3 DUP1 SLOAD PUSH2 0x568 SWAP1 PUSH2 0x3C0F JUMP JUMPDEST DUP1 ISZERO PUSH2 0x5B5 JUMPI DUP1 PUSH1 0x1F LT PUSH2 0x58A JUMPI PUSH2 0x100 DUP1 DUP4 SLOAD DIV MUL DUP4 MSTORE SWAP2 PUSH1 0x20 ADD SWAP2 PUSH2 0x5B5 JUMP JUMPDEST DUP3 ADD SWAP2 SWAP1 PUSH1 0x0 MSTORE PUSH1 0x20 PUSH1 0x0 KECCAK256 SWAP1 JUMPDEST DUP2 SLOAD DUP2 MSTORE SWAP1 PUSH1 0x1 ADD SWAP1 PUSH1 0x20 ADD DUP1 DUP4 GT PUSH2 0x598 JUMPI DUP3 SWAP1 SUB PUSH1 0x1F AND DUP3 ADD SWAP2 JUMPDEST POP POP POP POP POP SWAP1 DUP1 PUSH1 0xA ADD DUP1 SLOAD PUSH2 0x5CA SWAP1 PUSH2 0x3C0F JUMP JUMPDEST DUP1 PUSH1 0x1F ADD PUSH1 0x20 DUP1 SWAP2 DIV MUL PUSH1 0x20 ADD PUSH1 0x40 MLOAD SWAP1 DUP2 ADD PUSH1 0x40 MSTORE DUP1 SWAP3 SWAP2 SWAP1 DUP2 DUP2 MSTORE PUSH1 0x20 ADD DUP3 DUP1 SLOAD PUSH2 0x5F6 SWAP1 PUSH2 0x3C0F JUMP JUMPDEST DUP1 ISZERO PUSH2 0x643 JUMPI DUP1 PUSH1 0x1F LT PUSH2 0x618 JUMPI PUSH2 0x100 DUP1 DUP4 SLOAD DIV MUL DUP4 MSTORE SWAP2 PUSH1 0x20 ADD SWAP2 PUSH2 0x643 JUMP JUMPDEST DUP3 ADD SWAP2 SWAP1 PUSH1 0x0 MSTORE PUSH1 0x20 PUSH1 0x0 KECCAK256 SWAP1 JUMPDEST DUP2 SLOAD DUP2 MSTORE SWAP1 PUSH1 0x1 ADD SWAP1 PUSH1 0x20 ADD DUP1 DUP4 GT PUSH2 0x626 JUMPI DUP3 SWAP1 SUB PUSH1 0x1F AND DUP3 ADD SWAP2 JUMPDEST POP POP POP POP POP SWAP1 DUP1 PUSH1 0xB ADD SLOAD SWAP1 POP DUP13 JUMP JUMPDEST PUSH1 0x0 DUP3 DUP3 PUSH1 0x40 MLOAD PUSH2 0x665 SWAP3 SWAP2 SWAP1 PUSH2 0x35B2 JUMP JUMPDEST SWAP1 DUP2 MSTORE PUSH1 0x20 ADD PUSH1 0x40 MLOAD DUP1 SWAP2 SUB SWAP1 KECCAK256 PUSH1 0x4 ADD SLOAD TIMESTAMP LT PUSH2 0x6B8 JUMPI PUSH1 0x40 MLOAD PUSH32 0x8C379A000000000000000000000000000000000000000000000000000000000 DUP2 MSTORE PUSH1 0x4 ADD PUSH2 0x6AF SWAP1 PUSH2 0x3964 JUMP JUMPDEST PUSH1 0x40 MLOAD DUP1 SWAP2 SUB SWAP1 REVERT JUMPDEST PUSH1 0x0 PUSH20 0xFFFFFFFFFFFFFFFFFFFFFFFFFFFFFFFFFFFFFFFF AND PUSH1 0x1 DUP4 DUP4 PUSH1 0x40 MLOAD PUSH2 0x6E2 SWAP3 SWAP2 SWAP1 PUSH2 0x35B2 JUMP JUMPDEST SWAP1 DUP2 MSTORE PUSH1 0x20 ADD PUSH1 0x40 MLOAD DUP1 SWAP2 SUB SWAP1 KECCAK256 PUSH1 0x0 CALLER PUSH20 0xFFFFFFFFFFFFFFFFFFFFFFFFFFFFFFFFFFFFFFFF AND PUSH20 0xFFFFFFFFFFFFFFFFFFFFFFFFFFFFFFFFFFFFFFFF AND DUP2 MSTORE PUSH1 0x20 ADD SWAP1 DUP2 MSTORE PUSH1 0x20 ADD PUSH1 0x0 KECCAK256 PUSH1 0x0 ADD PUSH1 0x2 SWAP1 SLOAD SWAP1 PUSH2 0x100 EXP SWAP1 DIV PUSH20 0xFFFFFFFFFFFFFFFFFFFFFFFFFFFFFFFFFFFFFFFF AND PUSH20 0xFFFFFFFFFFFFFFFFFFFFFFFFFFFFFFFFFFFFFFFF AND EQ ISZERO PUSH2 0x7A8 JUMPI PUSH1 0x40 MLOAD PUSH32 0x8C379A000000000000000000000000000000000000000000000000000000000 DUP2 MSTORE PUSH1 0x4 ADD PUSH2 0x79F SWAP1 PUSH2 0x38C4 JUMP JUMPDEST PUSH1 0x40 MLOAD DUP1 SWAP2 SUB SWAP1 REVERT JUMPDEST PUSH1 0x1 DUP3 DUP3 PUSH1 0x40 MLOAD PUSH2 0x7BA SWAP3 SWAP2 SWAP1 PUSH2 0x35B2 JUMP JUMPDEST SWAP1 DUP2 MSTORE PUSH1 0x20 ADD PUSH1 0x40 MLOAD DUP1 SWAP2 SUB SWAP1 KECCAK256 PUSH1 0x0 CALLER PUSH20 0xFFFFFFFFFFFFFFFFFFFFFFFFFFFFFFFFFFFFFFFF AND PUSH20 0xFFFFFFFFFFFFFFFFFFFFFFFFFFFFFFFFFFFFFFFF AND DUP2 MSTORE PUSH1 0x20 ADD SWAP1 DUP2 MSTORE PUSH1 0x20 ADD PUSH1 0x0 KECCAK256 PUSH1 0x0 ADD PUSH1 0x0 SWAP1 SLOAD SWAP1 PUSH2 0x100 EXP SWAP1 DIV PUSH1 0xFF AND ISZERO PUSH2 0x856 JUMPI PUSH1 0x40 MLOAD PUSH32 0x8C379A000000000000000000000000000000000000000000000000000000000 DUP2 MSTORE PUSH1 0x4 ADD PUSH2 0x84D SWAP1 PUSH2 0x3884 JUMP JUMPDEST PUSH1 0x40 MLOAD DUP1 SWAP2 SUB SWAP1 REVERT JUMPDEST PUSH1 0x40 MLOAD DUP1 PUSH1 0x40 ADD PUSH1 0x40 MSTORE DUP1 PUSH1 0x9 DUP2 MSTORE PUSH1 0x20 ADD PUSH32 0x6920617070726F76650000000000000000000000000000000000000000000000 DUP2 MSTORE POP DUP1 MLOAD SWAP1 PUSH1 0x20 ADD KECCAK256 DUP4 DUP1 MLOAD SWAP1 PUSH1 0x20 ADD KECCAK256 EQ ISZERO PUSH2 0xB71 JUMPI PUSH1 0x1 DUP1 DUP4 DUP4 PUSH1 0x40 MLOAD PUSH2 0x8B4 SWAP3 SWAP2 SWAP1 PUSH2 0x35B2 JUMP JUMPDEST SWAP1 DUP2 MSTORE PUSH1 0x20 ADD PUSH1 0x40 MLOAD DUP1 SWAP2 SUB SWAP1 KECCAK256 PUSH1 0x0 CALLER PUSH20 0xFFFFFFFFFFFFFFFFFFFFFFFFFFFFFFFFFFFFFFFF AND PUSH20 0xFFFFFFFFFFFFFFFFFFFFFFFFFFFFFFFFFFFFFFFF AND DUP2 MSTORE PUSH1 0x20 ADD SWAP1 DUP2 MSTORE PUSH1 0x20 ADD PUSH1 0x0 KECCAK256 PUSH1 0x0 ADD PUSH1 0x0 PUSH2 0x100 EXP DUP2 SLOAD DUP2 PUSH1 0xFF MUL NOT AND SWAP1 DUP4 ISZERO ISZERO MUL OR SWAP1 SSTORE POP PUSH1 0x1 DUP1 DUP4 DUP4 PUSH1 0x40 MLOAD PUSH2 0x92C SWAP3 SWAP2 SWAP1 PUSH2 0x35B2 JUMP JUMPDEST SWAP1 DUP2 MSTORE PUSH1 0x20 ADD PUSH1 0x40 MLOAD DUP1 SWAP2 SUB SWAP1 KECCAK256 PUSH1 0x0 CALLER PUSH20 0xFFFFFFFFFFFFFFFFFFFFFFFFFFFFFFFFFFFFFFFF AND PUSH20 0xFFFFFFFFFFFFFFFFFFFFFFFFFFFFFFFFFFFFFFFF AND DUP2 MSTORE PUSH1 0x20 ADD SWAP1 DUP2 MSTORE PUSH1 0x20 ADD PUSH1 0x0 KECCAK256 PUSH1 0x0 ADD PUSH1 0x1 PUSH2 0x100 EXP DUP2 SLOAD DUP2 PUSH1 0xFF MUL NOT AND SWAP1 DUP4 ISZERO ISZERO MUL OR SWAP1 SSTORE POP PUSH1 0x1 PUSH1 0x0 DUP4 DUP4 PUSH1 0x40 MLOAD PUSH2 0x9A5 SWAP3 SWAP2 SWAP1 PUSH2 0x35B2 JUMP JUMPDEST SWAP1 DUP2 MSTORE PUSH1 0x20 ADD PUSH1 0x40 MLOAD DUP1 SWAP2 SUB SWAP1 KECCAK256 PUSH1 0x6 ADD PUSH1 0x0 DUP3 DUP3 SLOAD PUSH2 0x9C5 SWAP2 SWAP1 PUSH2 0x3A8D JUMP JUMPDEST SWAP3 POP POP DUP2 SWAP1 SSTORE POP PUSH1 0x1 PUSH1 0x0 DUP4 DUP4 PUSH1 0x40 MLOAD PUSH2 0x9E0 SWAP3 SWAP2 SWAP1 PUSH2 0x35B2 JUMP JUMPDEST SWAP1 DUP2 MSTORE PUSH1 0x20 ADD PUSH1 0x40 MLOAD DUP1 SWAP2 SUB SWAP1 KECCAK256 PUSH1 0x3 ADD PUSH1 0x0 DUP3 DUP3 SLOAD PUSH2 0xA00 SWAP2 SWAP1 PUSH2 0x3A8D JUMP JUMPDEST SWAP3 POP POP DUP2 SWAP1 SSTORE POP PUSH1 0x2 DUP3 DUP3 PUSH1 0x40 MLOAD PUSH2 0xA19 SWAP3 SWAP2 SWAP1 PUSH2 0x35B2 JUMP JUMPDEST SWAP1 DUP2 MSTORE PUSH1 0x20 ADD PUSH1 0x40 MLOAD DUP1 SWAP2 SUB SWAP1 KECCAK256 PUSH1 0x1 DUP4 DUP4 PUSH1 0x40 MLOAD PUSH2 0xA39 SWAP3 SWAP2 SWAP1 PUSH2 0x35B2 JUMP JUMPDEST SWAP1 DUP2 MSTORE PUSH1 0x20 ADD PUSH1 0x40 MLOAD DUP1 SWAP2 SUB SWAP1 KECCAK256 PUSH1 0x0 CALLER PUSH20 0xFFFFFFFFFFFFFFFFFFFFFFFFFFFFFFFFFFFFFFFF AND PUSH20 0xFFFFFFFFFFFFFFFFFFFFFFFFFFFFFFFFFFFFFFFF AND DUP2 MSTORE PUSH1 0x20 ADD SWAP1 DUP2 MSTORE PUSH1 0x20 ADD PUSH1 0x0 KECCAK256 SWAP1 DUP1 PUSH1 0x1 DUP2 SLOAD ADD DUP1 DUP3 SSTORE DUP1 SWAP2 POP POP PUSH1 0x1 SWAP1 SUB SWAP1 PUSH1 0x0 MSTORE PUSH1 0x20 PUSH1 0x0 KECCAK256 ADD PUSH1 0x0 SWAP1 SWAP2 SWAP1 SWAP2 SWAP1 SWAP2 POP PUSH1 0x0 DUP3 ADD PUSH1 0x0 SWAP1 SLOAD SWAP1 PUSH2 0x100 EXP SWAP1 DIV PUSH1 0xFF AND DUP2 PUSH1 0x0 ADD PUSH1 0x0 PUSH2 0x100 EXP DUP2 SLOAD DUP2 PUSH1 0xFF MUL NOT AND SWAP1 DUP4 ISZERO ISZERO MUL OR SWAP1 SSTORE POP PUSH1 0x0 DUP3 ADD PUSH1 0x1 SWAP1 SLOAD SWAP1 PUSH2 0x100 EXP SWAP1 DIV PUSH1 0xFF AND DUP2 PUSH1 0x0 ADD PUSH1 0x1 PUSH2 0x100 EXP DUP2 SLOAD DUP2 PUSH1 0xFF MUL NOT AND SWAP1 DUP4 ISZERO ISZERO MUL OR SWAP1 SSTORE POP PUSH1 0x0 DUP3 ADD PUSH1 0x2 SWAP1 SLOAD SWAP1 PUSH2 0x100 EXP SWAP1 DIV PUSH20 0xFFFFFFFFFFFFFFFFFFFFFFFFFFFFFFFFFFFFFFFF AND DUP2 PUSH1 0x0 ADD PUSH1 0x2 PUSH2 0x100 EXP DUP2 SLOAD DUP2 PUSH20 0xFFFFFFFFFFFFFFFFFFFFFFFFFFFFFFFFFFFFFFFF MUL NOT AND SWAP1 DUP4 PUSH20 0xFFFFFFFFFFFFFFFFFFFFFFFFFFFFFFFFFFFFFFFF AND MUL OR SWAP1 SSTORE POP POP POP PUSH2 0xFF3 JUMP JUMPDEST PUSH1 0x40 MLOAD DUP1 PUSH1 0x40 ADD PUSH1 0x40 MSTORE DUP1 PUSH1 0xC DUP2 MSTORE PUSH1 0x20 ADD PUSH32 0x6920646973617070726F76650000000000000000000000000000000000000000 DUP2 MSTORE POP DUP1 MLOAD SWAP1 PUSH1 0x20 ADD KECCAK256 DUP4 DUP1 MLOAD SWAP1 PUSH1 0x20 ADD KECCAK256 EQ ISZERO PUSH2 0xDD9 JUMPI PUSH1 0x1 DUP1 DUP4 DUP4 PUSH1 0x40 MLOAD PUSH2 0xBCF SWAP3 SWAP2 SWAP1 PUSH2 0x35B2 JUMP JUMPDEST SWAP1 DUP2 MSTORE PUSH1 0x20 ADD PUSH1 0x40 MLOAD DUP1 SWAP2 SUB SWAP1 KECCAK256 PUSH1 0x0 CALLER PUSH20 0xFFFFFFFFFFFFFFFFFFFFFFFFFFFFFFFFFFFFFFFF AND PUSH20 0xFFFFFFFFFFFFFFFFFFFFFFFFFFFFFFFFFFFFFFFF AND DUP2 MSTORE PUSH1 0x20 ADD SWAP1 DUP2 MSTORE PUSH1 0x20 ADD PUSH1 0x0 KECCAK256 PUSH1 0x0 ADD PUSH1 0x0 PUSH2 0x100 EXP DUP2 SLOAD DUP2 PUSH1 0xFF MUL NOT AND SWAP1 DUP4 ISZERO ISZERO MUL OR SWAP1 SSTORE POP PUSH1 0x1 PUSH1 0x0 DUP4 DUP4 PUSH1 0x40 MLOAD PUSH2 0xC48 SWAP3 SWAP2 SWAP1 PUSH2 0x35B2 JUMP JUMPDEST SWAP1 DUP2 MSTORE PUSH1 0x20 ADD PUSH1 0x40 MLOAD DUP1 SWAP2 SUB SWAP1 KECCAK256 PUSH1 0x3 ADD PUSH1 0x0 DUP3 DUP3 SLOAD PUSH2 0xC68 SWAP2 SWAP1 PUSH2 0x3A8D JUMP JUMPDEST SWAP3 POP POP DUP2 SWAP1 SSTORE POP PUSH1 0x2 DUP3 DUP3 PUSH1 0x40 MLOAD PUSH2 0xC81 SWAP3 SWAP2 SWAP1 PUSH2 0x35B2 JUMP JUMPDEST SWAP1 DUP2 MSTORE PUSH1 0x20 ADD PUSH1 0x40 MLOAD DUP1 SWAP2 SUB SWAP1 KECCAK256 PUSH1 0x1 DUP4 DUP4 PUSH1 0x40 MLOAD PUSH2 0xCA1 SWAP3 SWAP2 SWAP1 PUSH2 0x35B2 JUMP JUMPDEST SWAP1 DUP2 MSTORE PUSH1 0x20 ADD PUSH1 0x40 MLOAD DUP1 SWAP2 SUB SWAP1 KECCAK256 PUSH1 0x0 CALLER PUSH20 0xFFFFFFFFFFFFFFFFFFFFFFFFFFFFFFFFFFFFFFFF AND PUSH20 0xFFFFFFFFFFFFFFFFFFFFFFFFFFFFFFFFFFFFFFFF AND DUP2 MSTORE PUSH1 0x20 ADD SWAP1 DUP2 MSTORE PUSH1 0x20 ADD PUSH1 0x0 KECCAK256 SWAP1 DUP1 PUSH1 0x1 DUP2 SLOAD ADD DUP1 DUP3 SSTORE DUP1 SWAP2 POP POP PUSH1 0x1 SWAP1 SUB SWAP1 PUSH1 0x0 MSTORE PUSH1 0x20 PUSH1 0x0 KECCAK256 ADD PUSH1 0x0 SWAP1 SWAP2 SWAP1 SWAP2 SWAP1 SWAP2 POP PUSH1 0x0 DUP3 ADD PUSH1 0x0 SWAP1 SLOAD SWAP1 PUSH2 0x100 EXP SWAP1 DIV PUSH1 0xFF AND DUP2 PUSH1 0x0 ADD PUSH1 0x0 PUSH2 0x100 EXP DUP2 SLOAD DUP2 PUSH1 0xFF MUL NOT AND SWAP1 DUP4 ISZERO ISZERO MUL OR SWAP1 SSTORE POP PUSH1 0x0 DUP3 ADD PUSH1 0x1 SWAP1 SLOAD SWAP1 PUSH2 0x100 EXP SWAP1 DIV PUSH1 0xFF AND DUP2 PUSH1 0x0 ADD PUSH1 0x1 PUSH2 0x100 EXP DUP2 SLOAD DUP2 PUSH1 0xFF MUL NOT AND SWAP1 DUP4 ISZERO ISZERO MUL OR SWAP1 SSTORE POP PUSH1 0x0 DUP3 ADD PUSH1 0x2 SWAP1 SLOAD SWAP1 PUSH2 0x100 EXP SWAP1 DIV PUSH20 0xFFFFFFFFFFFFFFFFFFFFFFFFFFFFFFFFFFFFFFFF AND DUP2 PUSH1 0x0 ADD PUSH1 0x2 PUSH2 0x100 EXP DUP2 SLOAD DUP2 PUSH20 0xFFFFFFFFFFFFFFFFFFFFFFFFFFFFFFFFFFFFFFFF MUL NOT AND SWAP1 DUP4 PUSH20 0xFFFFFFFFFFFFFFFFFFFFFFFFFFFFFFFFFFFFFFFF AND MUL OR SWAP1 SSTORE POP POP POP PUSH2 0xFF2 JUMP JUMPDEST PUSH1 0x1 DUP1 DUP4 DUP4 PUSH1 0x40 MLOAD PUSH2 0xDEC SWAP3 SWAP2 SWAP1 PUSH2 0x35B2 JUMP JUMPDEST SWAP1 DUP2 MSTORE PUSH1 0x20 ADD PUSH1 0x40 MLOAD DUP1 SWAP2 SUB SWAP1 KECCAK256 PUSH1 0x0 CALLER PUSH20 0xFFFFFFFFFFFFFFFFFFFFFFFFFFFFFFFFFFFFFFFF AND PUSH20 0xFFFFFFFFFFFFFFFFFFFFFFFFFFFFFFFFFFFFFFFF AND DUP2 MSTORE PUSH1 0x20 ADD SWAP1 DUP2 MSTORE PUSH1 0x20 ADD PUSH1 0x0 KECCAK256 PUSH1 0x0 ADD PUSH1 0x0 PUSH2 0x100 EXP DUP2 SLOAD DUP2 PUSH1 0xFF MUL NOT AND SWAP1 DUP4 ISZERO ISZERO MUL OR SWAP1 SSTORE POP PUSH1 0x1 PUSH1 0x0 DUP4 DUP4 PUSH1 0x40 MLOAD PUSH2 0xE65 SWAP3 SWAP2 SWAP1 PUSH2 0x35B2 JUMP JUMPDEST SWAP1 DUP2 MSTORE PUSH1 0x20 ADD PUSH1 0x40 MLOAD DUP1 SWAP2 SUB SWAP1 KECCAK256 PUSH1 0x3 ADD PUSH1 0x0 DUP3 DUP3 SLOAD PUSH2 0xE85 SWAP2 SWAP1 PUSH2 0x3A8D JUMP JUMPDEST SWAP3 POP POP DUP2 SWAP1 SSTORE POP PUSH1 0x2 DUP3 DUP3 PUSH1 0x40 MLOAD PUSH2 0xE9E SWAP3 SWAP2 SWAP1 PUSH2 0x35B2 JUMP JUMPDEST SWAP1 DUP2 MSTORE PUSH1 0x20 ADD PUSH1 0x40 MLOAD DUP1 SWAP2 SUB SWAP1 KECCAK256 PUSH1 0x1 DUP4 DUP4 PUSH1 0x40 MLOAD PUSH2 0xEBE SWAP3 SWAP2 SWAP1 PUSH2 0x35B2 JUMP JUMPDEST SWAP1 DUP2 MSTORE PUSH1 0x20 ADD PUSH1 0x40 MLOAD DUP1 SWAP2 SUB SWAP1 KECCAK256 PUSH1 0x0 CALLER PUSH20 0xFFFFFFFFFFFFFFFFFFFFFFFFFFFFFFFFFFFFFFFF AND PUSH20 0xFFFFFFFFFFFFFFFFFFFFFFFFFFFFFFFFFFFFFFFF AND DUP2 MSTORE PUSH1 0x20 ADD SWAP1 DUP2 MSTORE PUSH1 0x20 ADD PUSH1 0x0 KECCAK256 SWAP1 DUP1 PUSH1 0x1 DUP2 SLOAD ADD DUP1 DUP3 SSTORE DUP1 SWAP2 POP POP PUSH1 0x1 SWAP1 SUB SWAP1 PUSH1 0x0 MSTORE PUSH1 0x20 PUSH1 0x0 KECCAK256 ADD PUSH1 0x0 SWAP1 SWAP2 SWAP1 SWAP2 SWAP1 SWAP2 POP PUSH1 0x0 DUP3 ADD PUSH1 0x0 SWAP1 SLOAD SWAP1 PUSH2 0x100 EXP SWAP1 DIV PUSH1 0xFF AND DUP2 PUSH1 0x0 ADD PUSH1 0x0 PUSH2 0x100 EXP DUP2 SLOAD DUP2 PUSH1 0xFF MUL NOT AND SWAP1 DUP4 ISZERO ISZERO MUL OR SWAP1 SSTORE POP PUSH1 0x0 DUP3 ADD PUSH1 0x1 SWAP1 SLOAD SWAP1 PUSH2 0x100 EXP SWAP1 DIV PUSH1 0xFF AND DUP2 PUSH1 0x0 ADD PUSH1 0x1 PUSH2 0x100 EXP DUP2 SLOAD DUP2 PUSH1 0xFF MUL NOT AND SWAP1 DUP4 ISZERO ISZERO MUL OR SWAP1 SSTORE POP PUSH1 0x0 DUP3 ADD PUSH1 0x2 SWAP1 SLOAD SWAP1 PUSH2 0x100 EXP SWAP1 DIV PUSH20 0xFFFFFFFFFFFFFFFFFFFFFFFFFFFFFFFFFFFFFFFF AND DUP2 PUSH1 0x0 ADD PUSH1 0x2 PUSH2 0x100 EXP DUP2 SLOAD DUP2 PUSH20 0xFFFFFFFFFFFFFFFFFFFFFFFFFFFFFFFFFFFFFFFF MUL NOT AND SWAP1 DUP4 PUSH20 0xFFFFFFFFFFFFFFFFFFFFFFFFFFFFFFFFFFFFFFFF AND MUL OR SWAP1 SSTORE POP POP POP JUMPDEST JUMPDEST POP POP POP JUMP JUMPDEST PUSH1 0x1 DUP3 DUP1 MLOAD PUSH1 0x20 DUP2 ADD DUP3 ADD DUP1 MLOAD DUP5 DUP3 MSTORE PUSH1 0x20 DUP4 ADD PUSH1 0x20 DUP6 ADD KECCAK256 DUP2 DUP4 MSTORE DUP1 SWAP6 POP POP POP POP POP POP PUSH1 0x20 MSTORE DUP1 PUSH1 0x0 MSTORE PUSH1 0x40 PUSH1 0x0 KECCAK256 PUSH1 0x0 SWAP2 POP SWAP2 POP POP DUP1 PUSH1 0x0 ADD PUSH1 0x0 SWAP1 SLOAD SWAP1 PUSH2 0x100 EXP SWAP1 DIV PUSH1 0xFF AND SWAP1 DUP1 PUSH1 0x0 ADD PUSH1 0x1 SWAP1 SLOAD SWAP1 PUSH2 0x100 EXP SWAP1 DIV PUSH1 0xFF AND SWAP1 DUP1 PUSH1 0x0 ADD PUSH1 0x2 SWAP1 SLOAD SWAP1 PUSH2 0x100 EXP SWAP1 DIV PUSH20 0xFFFFFFFFFFFFFFFFFFFFFFFFFFFFFFFFFFFFFFFF AND SWAP1 POP DUP4 JUMP JUMPDEST PUSH1 0x0 PUSH1 0x60 PUSH1 0x0 PUSH1 0x60 PUSH1 0x0 DUP7 DUP7 PUSH1 0x40 MLOAD PUSH2 0x1099 SWAP3 SWAP2 SWAP1 PUSH2 0x35B2 JUMP JUMPDEST SWAP1 DUP2 MSTORE PUSH1 0x20 ADD PUSH1 0x40 MLOAD DUP1 SWAP2 SUB SWAP1 KECCAK256 PUSH1 0x4 ADD SLOAD TIMESTAMP LT ISZERO PUSH2 0x10ED JUMPI PUSH1 0x40 MLOAD PUSH32 0x8C379A000000000000000000000000000000000000000000000000000000000 DUP2 MSTORE PUSH1 0x4 ADD PUSH2 0x10E4 SWAP1 PUSH2 0x3944 JUMP JUMPDEST PUSH1 0x40 MLOAD DUP1 SWAP2 SUB SWAP1 REVERT JUMPDEST PUSH1 0x0 PUSH1 0x2 DUP8 DUP8 PUSH1 0x40 MLOAD PUSH2 0x1101 SWAP3 SWAP2 SWAP1 PUSH2 0x35B2 JUMP JUMPDEST SWAP1 DUP2 MSTORE PUSH1 0x20 ADD PUSH1 0x40 MLOAD DUP1 SWAP2 SUB SWAP1 KECCAK256 DUP1 SLOAD DUP1 PUSH1 0x20 MUL PUSH1 0x20 ADD PUSH1 0x40 MLOAD SWAP1 DUP2 ADD PUSH1 0x40 MSTORE DUP1 SWAP3 SWAP2 SWAP1 DUP2 DUP2 MSTORE PUSH1 0x20 ADD PUSH1 0x0 SWAP1 JUMPDEST DUP3 DUP3 LT ISZERO PUSH2 0x11E9 JUMPI DUP4 DUP3 SWAP1 PUSH1 0x0 MSTORE PUSH1 0x20 PUSH1 0x0 KECCAK256 ADD PUSH1 0x40 MLOAD DUP1 PUSH1 0x60 ADD PUSH1 0x40 MSTORE SWAP1 DUP2 PUSH1 0x0 DUP3 ADD PUSH1 0x0 SWAP1 SLOAD SWAP1 PUSH2 0x100 EXP SWAP1 DIV PUSH1 0xFF AND ISZERO ISZERO ISZERO ISZERO DUP2 MSTORE PUSH1 0x20 ADD PUSH1 0x0 DUP3 ADD PUSH1 0x1 SWAP1 SLOAD SWAP1 PUSH2 0x100 EXP SWAP1 DIV PUSH1 0xFF AND ISZERO ISZERO ISZERO ISZERO DUP2 MSTORE PUSH1 0x20 ADD PUSH1 0x0 DUP3 ADD PUSH1 0x2 SWAP1 SLOAD SWAP1 PUSH2 0x100 EXP SWAP1 DIV PUSH20 0xFFFFFFFFFFFFFFFFFFFFFFFFFFFFFFFFFFFFFFFF AND PUSH20 0xFFFFFFFFFFFFFFFFFFFFFFFFFFFFFFFFFFFFFFFF AND PUSH20 0xFFFFFFFFFFFFFFFFFFFFFFFFFFFFFFFFFFFFFFFF AND DUP2 MSTORE POP POP DUP2 MSTORE PUSH1 0x20 ADD SWAP1 PUSH1 0x1 ADD SWAP1 PUSH2 0x112F JUMP JUMPDEST POP POP POP POP SWAP1 POP PUSH1 0x0 DUP1 DUP9 DUP9 PUSH1 0x40 MLOAD PUSH2 0x1202 SWAP3 SWAP2 SWAP1 PUSH2 0x35B2 JUMP JUMPDEST SWAP1 DUP2 MSTORE PUSH1 0x20 ADD PUSH1 0x40 MLOAD DUP1 SWAP2 SUB SWAP1 KECCAK256 PUSH1 0x0 ADD DUP1 SLOAD PUSH2 0x121E SWAP1 PUSH2 0x3C0F JUMP JUMPDEST DUP1 PUSH1 0x1F ADD PUSH1 0x20 DUP1 SWAP2 DIV MUL PUSH1 0x20 ADD PUSH1 0x40 MLOAD SWAP1 DUP2 ADD PUSH1 0x40 MSTORE DUP1 SWAP3 SWAP2 SWAP1 DUP2 DUP2 MSTORE PUSH1 0x20 ADD DUP3 DUP1 SLOAD PUSH2 0x124A SWAP1 PUSH2 0x3C0F JUMP JUMPDEST DUP1 ISZERO PUSH2 0x1297 JUMPI DUP1 PUSH1 0x1F LT PUSH2 0x126C JUMPI PUSH2 0x100 DUP1 DUP4 SLOAD DIV MUL DUP4 MSTORE SWAP2 PUSH1 0x20 ADD SWAP2 PUSH2 0x1297 JUMP JUMPDEST DUP3 ADD SWAP2 SWAP1 PUSH1 0x0 MSTORE PUSH1 0x20 PUSH1 0x0 KECCAK256 SWAP1 JUMPDEST DUP2 SLOAD DUP2 MSTORE SWAP1 PUSH1 0x1 ADD SWAP1 PUSH1 0x20 ADD DUP1 DUP4 GT PUSH2 0x127A JUMPI DUP3 SWAP1 SUB PUSH1 0x1F AND DUP3 ADD SWAP2 JUMPDEST POP POP POP POP POP SWAP1 POP PUSH1 0x0 DUP1 DUP10 DUP10 PUSH1 0x40 MLOAD PUSH2 0x12B1 SWAP3 SWAP2 SWAP1 PUSH2 0x35B2 JUMP JUMPDEST SWAP1 DUP2 MSTORE PUSH1 0x20 ADD PUSH1 0x40 MLOAD DUP1 SWAP2 SUB SWAP1 KECCAK256 PUSH1 0x8 ADD SLOAD SWAP1 POP PUSH1 0x0 DUP1 DUP11 DUP11 PUSH1 0x40 MLOAD PUSH2 0x12D8 SWAP3 SWAP2 SWAP1 PUSH2 0x35B2 JUMP JUMPDEST SWAP1 DUP2 MSTORE PUSH1 0x20 ADD PUSH1 0x40 MLOAD DUP1 SWAP2 SUB SWAP1 KECCAK256 PUSH1 0x3 ADD SLOAD SWAP1 POP DUP2 DUP4 DUP3 DUP7 SWAP8 POP SWAP8 POP SWAP8 POP SWAP8 POP POP POP POP POP SWAP3 SWAP6 SWAP2 SWAP5 POP SWAP3 POP JUMP JUMPDEST PUSH1 0x0 DUP3 DUP3 PUSH1 0x40 MLOAD PUSH2 0x1317 SWAP3 SWAP2 SWAP1 PUSH2 0x35B2 JUMP JUMPDEST SWAP1 DUP2 MSTORE PUSH1 0x20 ADD PUSH1 0x40 MLOAD DUP1 SWAP2 SUB SWAP1 KECCAK256 PUSH1 0x1 ADD PUSH1 0x0 SWAP1 SLOAD SWAP1 PUSH2 0x100 EXP SWAP1 DIV PUSH20 0xFFFFFFFFFFFFFFFFFFFFFFFFFFFFFFFFFFFFFFFF AND PUSH20 0xFFFFFFFFFFFFFFFFFFFFFFFFFFFFFFFFFFFFFFFF AND CALLER PUSH20 0xFFFFFFFFFFFFFFFFFFFFFFFFFFFFFFFFFFFFFFFF AND EQ PUSH2 0x13B6 JUMPI PUSH1 0x40 MLOAD PUSH32 0x8C379A000000000000000000000000000000000000000000000000000000000 DUP2 MSTORE PUSH1 0x4 ADD PUSH2 0x13AD SWAP1 PUSH2 0x3904 JUMP JUMPDEST PUSH1 0x40 MLOAD DUP1 SWAP2 SUB SWAP1 REVERT JUMPDEST PUSH1 0x0 DUP3 DUP3 PUSH1 0x40 MLOAD PUSH2 0x13C8 SWAP3 SWAP2 SWAP1 PUSH2 0x35B2 JUMP JUMPDEST SWAP1 DUP2 MSTORE PUSH1 0x20 ADD PUSH1 0x40 MLOAD DUP1 SWAP2 SUB SWAP1 KECCAK256 PUSH1 0x1 ADD PUSH1 0x0 SWAP1 SLOAD SWAP1 PUSH2 0x100 EXP SWAP1 DIV PUSH20 0xFFFFFFFFFFFFFFFFFFFFFFFFFFFFFFFFFFFFFFFF AND PUSH20 0xFFFFFFFFFFFFFFFFFFFFFFFFFFFFFFFFFFFFFFFF AND DUP4 PUSH20 0xFFFFFFFFFFFFFFFFFFFFFFFFFFFFFFFFFFFFFFFF AND EQ ISZERO PUSH2 0x1468 JUMPI PUSH1 0x40 MLOAD PUSH32 0x8C379A000000000000000000000000000000000000000000000000000000000 DUP2 MSTORE PUSH1 0x4 ADD PUSH2 0x145F SWAP1 PUSH2 0x38A4 JUMP JUMPDEST PUSH1 0x40 MLOAD DUP1 SWAP2 SUB SWAP1 REVERT JUMPDEST PUSH1 0x0 PUSH20 0xFFFFFFFFFFFFFFFFFFFFFFFFFFFFFFFFFFFFFFFF AND PUSH1 0x1 DUP4 DUP4 PUSH1 0x40 MLOAD PUSH2 0x1492 SWAP3 SWAP2 SWAP1 PUSH2 0x35B2 JUMP JUMPDEST SWAP1 DUP2 MSTORE PUSH1 0x20 ADD PUSH1 0x40 MLOAD DUP1 SWAP2 SUB SWAP1 KECCAK256 PUSH1 0x0 DUP6 PUSH20 0xFFFFFFFFFFFFFFFFFFFFFFFFFFFFFFFFFFFFFFFF AND PUSH20 0xFFFFFFFFFFFFFFFFFFFFFFFFFFFFFFFFFFFFFFFF AND DUP2 MSTORE PUSH1 0x20 ADD SWAP1 DUP2 MSTORE PUSH1 0x20 ADD PUSH1 0x0 KECCAK256 PUSH1 0x0 ADD PUSH1 0x2 SWAP1 SLOAD SWAP1 PUSH2 0x100 EXP SWAP1 DIV PUSH20 0xFFFFFFFFFFFFFFFFFFFFFFFFFFFFFFFFFFFFFFFF AND PUSH20 0xFFFFFFFFFFFFFFFFFFFFFFFFFFFFFFFFFFFFFFFF AND EQ PUSH2 0x1557 JUMPI PUSH1 0x40 MLOAD PUSH32 0x8C379A000000000000000000000000000000000000000000000000000000000 DUP2 MSTORE PUSH1 0x4 ADD PUSH2 0x154E SWAP1 PUSH2 0x3824 JUMP JUMPDEST PUSH1 0x40 MLOAD DUP1 SWAP2 SUB SWAP1 REVERT JUMPDEST PUSH1 0x0 DUP3 DUP3 PUSH1 0x40 MLOAD PUSH2 0x1569 SWAP3 SWAP2 SWAP1 PUSH2 0x35B2 JUMP JUMPDEST SWAP1 DUP2 MSTORE PUSH1 0x20 ADD PUSH1 0x40 MLOAD DUP1 SWAP2 SUB SWAP1 KECCAK256 PUSH1 0x4 ADD SLOAD TIMESTAMP LT PUSH2 0x15BC JUMPI PUSH1 0x40 MLOAD PUSH32 0x8C379A000000000000000000000000000000000000000000000000000000000 DUP2 MSTORE PUSH1 0x4 ADD PUSH2 0x15B3 SWAP1 PUSH2 0x38E4 JUMP JUMPDEST PUSH1 0x40 MLOAD DUP1 SWAP2 SUB SWAP1 REVERT JUMPDEST PUSH1 0x0 PUSH1 0x40 MLOAD DUP1 PUSH1 0x60 ADD PUSH1 0x40 MSTORE DUP1 PUSH1 0x0 ISZERO ISZERO DUP2 MSTORE PUSH1 0x20 ADD PUSH1 0x0 ISZERO ISZERO DUP2 MSTORE PUSH1 0x20 ADD DUP6 PUSH20 0xFFFFFFFFFFFFFFFFFFFFFFFFFFFFFFFFFFFFFFFF AND DUP2 MSTORE POP SWAP1 POP DUP1 PUSH1 0x1 DUP5 DUP5 PUSH1 0x40 MLOAD PUSH2 0x160A SWAP3 SWAP2 SWAP1 PUSH2 0x35B2 JUMP JUMPDEST SWAP1 DUP2 MSTORE PUSH1 0x20 ADD PUSH1 0x40 MLOAD DUP1 SWAP2 SUB SWAP1 KECCAK256 PUSH1 0x0 DUP7 PUSH20 0xFFFFFFFFFFFFFFFFFFFFFFFFFFFFFFFFFFFFFFFF AND PUSH20 0xFFFFFFFFFFFFFFFFFFFFFFFFFFFFFFFFFFFFFFFF AND DUP2 MSTORE PUSH1 0x20 ADD SWAP1 DUP2 MSTORE PUSH1 0x20 ADD PUSH1 0x0 KECCAK256 PUSH1 0x0 DUP3 ADD MLOAD DUP2 PUSH1 0x0 ADD PUSH1 0x0 PUSH2 0x100 EXP DUP2 SLOAD DUP2 PUSH1 0xFF MUL NOT AND SWAP1 DUP4 ISZERO ISZERO MUL OR SWAP1 SSTORE POP PUSH1 0x20 DUP3 ADD MLOAD DUP2 PUSH1 0x0 ADD PUSH1 0x1 PUSH2 0x100 EXP DUP2 SLOAD DUP2 PUSH1 0xFF MUL NOT AND SWAP1 DUP4 ISZERO ISZERO MUL OR SWAP1 SSTORE POP PUSH1 0x40 DUP3 ADD MLOAD DUP2 PUSH1 0x0 ADD PUSH1 0x2 PUSH2 0x100 EXP DUP2 SLOAD DUP2 PUSH20 0xFFFFFFFFFFFFFFFFFFFFFFFFFFFFFFFFFFFFFFFF MUL NOT AND SWAP1 DUP4 PUSH20 0xFFFFFFFFFFFFFFFFFFFFFFFFFFFFFFFFFFFFFFFF AND MUL OR SWAP1 SSTORE POP SWAP1 POP POP PUSH1 0x3 DUP4 DUP4 PUSH1 0x40 MLOAD PUSH2 0x16F1 SWAP3 SWAP2 SWAP1 PUSH2 0x35B2 JUMP JUMPDEST SWAP1 DUP2 MSTORE PUSH1 0x20 ADD PUSH1 0x40 MLOAD DUP1 SWAP2 SUB SWAP1 KECCAK256 DUP5 SWAP1 DUP1 PUSH1 0x1 DUP2 SLOAD ADD DUP1 DUP3 SSTORE DUP1 SWAP2 POP POP PUSH1 0x1 SWAP1 SUB SWAP1 PUSH1 0x0 MSTORE PUSH1 0x20 PUSH1 0x0 KECCAK256 ADD PUSH1 0x0 SWAP1 SWAP2 SWAP1 SWAP2 SWAP1 SWAP2 PUSH2 0x100 EXP DUP2 SLOAD DUP2 PUSH20 0xFFFFFFFFFFFFFFFFFFFFFFFFFFFFFFFFFFFFFFFF MUL NOT AND SWAP1 DUP4 PUSH20 0xFFFFFFFFFFFFFFFFFFFFFFFFFFFFFFFFFFFFFFFF AND MUL OR SWAP1 SSTORE POP POP POP POP POP JUMP JUMPDEST PUSH1 0x60 PUSH1 0x0 DUP1 PUSH1 0x0 DUP1 PUSH1 0x0 DUP8 DUP8 PUSH1 0x40 MLOAD PUSH2 0x1780 SWAP3 SWAP2 SWAP1 PUSH2 0x35B2 JUMP JUMPDEST SWAP1 DUP2 MSTORE PUSH1 0x20 ADD PUSH1 0x40 MLOAD DUP1 SWAP2 SUB SWAP1 KECCAK256 PUSH1 0x0 ADD PUSH1 0x0 DUP9 DUP9 PUSH1 0x40 MLOAD PUSH2 0x17A3 SWAP3 SWAP2 SWAP1 PUSH2 0x35B2 JUMP JUMPDEST SWAP1 DUP2 MSTORE PUSH1 0x20 ADD PUSH1 0x40 MLOAD DUP1 SWAP2 SUB SWAP1 KECCAK256 PUSH1 0x4 ADD SLOAD PUSH1 0x0 DUP10 DUP10 PUSH1 0x40 MLOAD PUSH2 0x17C7 SWAP3 SWAP2 SWAP1 PUSH2 0x35B2 JUMP JUMPDEST SWAP1 DUP2 MSTORE PUSH1 0x20 ADD PUSH1 0x40 MLOAD DUP1 SWAP2 SUB SWAP1 KECCAK256 PUSH1 0x1 ADD PUSH1 0x0 SWAP1 SLOAD SWAP1 PUSH2 0x100 EXP SWAP1 DIV PUSH20 0xFFFFFFFFFFFFFFFFFFFFFFFFFFFFFFFFFFFFFFFF AND PUSH1 0x0 DUP11 DUP11 PUSH1 0x40 MLOAD PUSH2 0x180B SWAP3 SWAP2 SWAP1 PUSH2 0x35B2 JUMP JUMPDEST SWAP1 DUP2 MSTORE PUSH1 0x20 ADD PUSH1 0x40 MLOAD DUP1 SWAP2 SUB SWAP1 KECCAK256 PUSH1 0x5 ADD SLOAD PUSH1 0x0 DUP12 DUP12 PUSH1 0x40 MLOAD PUSH2 0x182F SWAP3 SWAP2 SWAP1 PUSH2 0x35B2 JUMP JUMPDEST SWAP1 DUP2 MSTORE PUSH1 0x20 ADD PUSH1 0x40 MLOAD DUP1 SWAP2 SUB SWAP1 KECCAK256 PUSH1 0x6 ADD SLOAD DUP5 DUP1 SLOAD PUSH2 0x184D SWAP1 PUSH2 0x3C0F JUMP JUMPDEST DUP1 PUSH1 0x1F ADD PUSH1 0x20 DUP1 SWAP2 DIV MUL PUSH1 0x20 ADD PUSH1 0x40 MLOAD SWAP1 DUP2 ADD PUSH1 0x40 MSTORE DUP1 SWAP3 SWAP2 SWAP1 DUP2 DUP2 MSTORE PUSH1 0x20 ADD DUP3 DUP1 SLOAD PUSH2 0x1879 SWAP1 PUSH2 0x3C0F JUMP JUMPDEST DUP1 ISZERO PUSH2 0x18C6 JUMPI DUP1 PUSH1 0x1F LT PUSH2 0x189B JUMPI PUSH2 0x100 DUP1 DUP4 SLOAD DIV MUL DUP4 MSTORE SWAP2 PUSH1 0x20 ADD SWAP2 PUSH2 0x18C6 JUMP JUMPDEST DUP3 ADD SWAP2 SWAP1 PUSH1 0x0 MSTORE PUSH1 0x20 PUSH1 0x0 KECCAK256 SWAP1 JUMPDEST DUP2 SLOAD DUP2 MSTORE SWAP1 PUSH1 0x1 ADD SWAP1 PUSH1 0x20 ADD DUP1 DUP4 GT PUSH2 0x18A9 JUMPI DUP3 SWAP1 SUB PUSH1 0x1F AND DUP3 ADD SWAP2 JUMPDEST POP POP POP POP POP SWAP5 POP SWAP5 POP SWAP5 POP SWAP5 POP SWAP5 POP SWAP5 POP SWAP3 SWAP6 POP SWAP3 SWAP6 SWAP1 SWAP4 POP JUMP JUMPDEST PUSH1 0x0 PUSH20 0xFFFFFFFFFFFFFFFFFFFFFFFFFFFFFFFFFFFFFFFF AND PUSH1 0x0 DUP8 PUSH1 0x40 MLOAD PUSH2 0x1909 SWAP2 SWAP1 PUSH2 0x35CB JUMP JUMPDEST SWAP1 DUP2 MSTORE PUSH1 0x20 ADD PUSH1 0x40 MLOAD DUP1 SWAP2 SUB SWAP1 KECCAK256 PUSH1 0x1 ADD PUSH1 0x0 SWAP1 SLOAD SWAP1 PUSH2 0x100 EXP SWAP1 DIV PUSH20 0xFFFFFFFFFFFFFFFFFFFFFFFFFFFFFFFFFFFFFFFF AND PUSH20 0xFFFFFFFFFFFFFFFFFFFFFFFFFFFFFFFFFFFFFFFF AND EQ PUSH2 0x1991 JUMPI PUSH1 0x40 MLOAD PUSH32 0x8C379A000000000000000000000000000000000000000000000000000000000 DUP2 MSTORE PUSH1 0x4 ADD PUSH2 0x1988 SWAP1 PUSH2 0x3844 JUMP JUMPDEST PUSH1 0x40 MLOAD DUP1 SWAP2 SUB SWAP1 REVERT JUMPDEST PUSH1 0x0 PUSH1 0x40 MLOAD DUP1 PUSH2 0x180 ADD PUSH1 0x40 MSTORE DUP1 DUP9 DUP2 MSTORE PUSH1 0x20 ADD CALLER PUSH20 0xFFFFFFFFFFFFFFFFFFFFFFFFFFFFFFFFFFFFFFFF AND DUP2 MSTORE PUSH1 0x20 ADD ADDRESS PUSH20 0xFFFFFFFFFFFFFFFFFFFFFFFFFFFFFFFFFFFFFFFF AND DUP2 MSTORE PUSH1 0x20 ADD PUSH1 0x0 DUP2 MSTORE PUSH1 0x20 ADD DUP8 TIMESTAMP PUSH2 0x19F0 SWAP2 SWAP1 PUSH2 0x3A8D JUMP JUMPDEST DUP2 MSTORE PUSH1 0x20 ADD DUP7 DUP2 MSTORE PUSH1 0x20 ADD PUSH1 0x0 DUP2 MSTORE PUSH1 0x20 ADD PUSH1 0x0 ISZERO ISZERO DUP2 MSTORE PUSH1 0x20 ADD PUSH32 0x52656A6563746564000000000000000000000000000000000000000000000000 DUP2 MSTORE PUSH1 0x20 ADD DUP4 DUP2 MSTORE PUSH1 0x20 ADD DUP5 DUP2 MSTORE PUSH1 0x20 ADD DUP6 DUP2 MSTORE POP SWAP1 POP DUP1 PUSH1 0x0 DUP9 PUSH1 0x40 MLOAD PUSH2 0x1A54 SWAP2 SWAP1 PUSH2 0x35CB JUMP JUMPDEST SWAP1 DUP2 MSTORE PUSH1 0x20 ADD PUSH1 0x40 MLOAD DUP1 SWAP2 SUB SWAP1 KECCAK256 PUSH1 0x0 DUP3 ADD MLOAD DUP2 PUSH1 0x0 ADD SWAP1 DUP1 MLOAD SWAP1 PUSH1 0x20 ADD SWAP1 PUSH2 0x1A7E SWAP3 SWAP2 SWAP1 PUSH2 0x2B39 JUMP JUMPDEST POP PUSH1 0x20 DUP3 ADD MLOAD DUP2 PUSH1 0x1 ADD PUSH1 0x0 PUSH2 0x100 EXP DUP2 SLOAD DUP2 PUSH20 0xFFFFFFFFFFFFFFFFFFFFFFFFFFFFFFFFFFFFFFFF MUL NOT AND SWAP1 DUP4 PUSH20 0xFFFFFFFFFFFFFFFFFFFFFFFFFFFFFFFFFFFFFFFF AND MUL OR SWAP1 SSTORE POP PUSH1 0x40 DUP3 ADD MLOAD DUP2 PUSH1 0x2 ADD PUSH1 0x0 PUSH2 0x100 EXP DUP2 SLOAD DUP2 PUSH20 0xFFFFFFFFFFFFFFFFFFFFFFFFFFFFFFFFFFFFFFFF MUL NOT AND SWAP1 DUP4 PUSH20 0xFFFFFFFFFFFFFFFFFFFFFFFFFFFFFFFFFFFFFFFF AND MUL OR SWAP1 SSTORE POP PUSH1 0x60 DUP3 ADD MLOAD DUP2 PUSH1 0x3 ADD SSTORE PUSH1 0x80 DUP3 ADD MLOAD DUP2 PUSH1 0x4 ADD SSTORE PUSH1 0xA0 DUP3 ADD MLOAD DUP2 PUSH1 0x5 ADD SSTORE PUSH1 0xC0 DUP3 ADD MLOAD DUP2 PUSH1 0x6 ADD SSTORE PUSH1 0xE0 DUP3 ADD MLOAD DUP2 PUSH1 0x7 ADD PUSH1 0x0 PUSH2 0x100 EXP DUP2 SLOAD DUP2 PUSH1 0xFF MUL NOT AND SWAP1 DUP4 ISZERO ISZERO MUL OR SWAP1 SSTORE POP PUSH2 0x100 DUP3 ADD MLOAD DUP2 PUSH1 0x8 ADD SSTORE PUSH2 0x120 DUP3 ADD MLOAD DUP2 PUSH1 0x9 ADD SWAP1 DUP1 MLOAD SWAP1 PUSH1 0x20 ADD SWAP1 PUSH2 0x1B7D SWAP3 SWAP2 SWAP1 PUSH2 0x2B39 JUMP JUMPDEST POP PUSH2 0x140 DUP3 ADD MLOAD DUP2 PUSH1 0xA ADD SWAP1 DUP1 MLOAD SWAP1 PUSH1 0x20 ADD SWAP1 PUSH2 0x1B9B SWAP3 SWAP2 SWAP1 PUSH2 0x2B39 JUMP JUMPDEST POP PUSH2 0x160 DUP3 ADD MLOAD DUP2 PUSH1 0xB ADD SSTORE SWAP1 POP POP DUP1 PUSH1 0x0 DUP5 PUSH1 0x40 MLOAD PUSH2 0x1BBB SWAP2 SWAP1 PUSH2 0x35CB JUMP JUMPDEST SWAP1 DUP2 MSTORE PUSH1 0x20 ADD PUSH1 0x40 MLOAD DUP1 SWAP2 SUB SWAP1 KECCAK256 PUSH1 0x0 DUP3 ADD MLOAD DUP2 PUSH1 0x0 ADD SWAP1 DUP1 MLOAD SWAP1 PUSH1 0x20 ADD SWAP1 PUSH2 0x1BE5 SWAP3 SWAP2 SWAP1 PUSH2 0x2B39 JUMP JUMPDEST POP PUSH1 0x20 DUP3 ADD MLOAD DUP2 PUSH1 0x1 ADD PUSH1 0x0 PUSH2 0x100 EXP DUP2 SLOAD DUP2 PUSH20 0xFFFFFFFFFFFFFFFFFFFFFFFFFFFFFFFFFFFFFFFF MUL NOT AND SWAP1 DUP4 PUSH20 0xFFFFFFFFFFFFFFFFFFFFFFFFFFFFFFFFFFFFFFFF AND MUL OR SWAP1 SSTORE POP PUSH1 0x40 DUP3 ADD MLOAD DUP2 PUSH1 0x2 ADD PUSH1 0x0 PUSH2 0x100 EXP DUP2 SLOAD DUP2 PUSH20 0xFFFFFFFFFFFFFFFFFFFFFFFFFFFFFFFFFFFFFFFF MUL NOT AND SWAP1 DUP4 PUSH20 0xFFFFFFFFFFFFFFFFFFFFFFFFFFFFFFFFFFFFFFFF AND MUL OR SWAP1 SSTORE POP PUSH1 0x60 DUP3 ADD MLOAD DUP2 PUSH1 0x3 ADD SSTORE PUSH1 0x80 DUP3 ADD MLOAD DUP2 PUSH1 0x4 ADD SSTORE PUSH1 0xA0 DUP3 ADD MLOAD DUP2 PUSH1 0x5 ADD SSTORE PUSH1 0xC0 DUP3 ADD MLOAD DUP2 PUSH1 0x6 ADD SSTORE PUSH1 0xE0 DUP3 ADD MLOAD DUP2 PUSH1 0x7 ADD PUSH1 0x0 PUSH2 0x100 EXP DUP2 SLOAD DUP2 PUSH1 0xFF MUL NOT AND SWAP1 DUP4 ISZERO ISZERO MUL OR SWAP1 SSTORE POP PUSH2 0x100 DUP3 ADD MLOAD DUP2 PUSH1 0x8 ADD SSTORE PUSH2 0x120 DUP3 ADD MLOAD DUP2 PUSH1 0x9 ADD SWAP1 DUP1 MLOAD SWAP1 PUSH1 0x20 ADD SWAP1 PUSH2 0x1CE4 SWAP3 SWAP2 SWAP1 PUSH2 0x2B39 JUMP JUMPDEST POP PUSH2 0x140 DUP3 ADD MLOAD DUP2 PUSH1 0xA ADD SWAP1 DUP1 MLOAD SWAP1 PUSH1 0x20 ADD SWAP1 PUSH2 0x1D02 SWAP3 SWAP2 SWAP1 PUSH2 0x2B39 JUMP JUMPDEST POP PUSH2 0x160 DUP3 ADD MLOAD DUP2 PUSH1 0xB ADD SSTORE SWAP1 POP POP POP POP POP POP POP POP POP JUMP JUMPDEST PUSH1 0x0 DUP1 PUSH1 0x0 PUSH1 0x1 DUP6 DUP6 PUSH1 0x40 MLOAD PUSH2 0x1D31 SWAP3 SWAP2 SWAP1 PUSH2 0x35B2 JUMP JUMPDEST SWAP1 DUP2 MSTORE PUSH1 0x20 ADD PUSH1 0x40 MLOAD DUP1 SWAP2 SUB SWAP1 KECCAK256 PUSH1 0x0 DUP8 PUSH20 0xFFFFFFFFFFFFFFFFFFFFFFFFFFFFFFFFFFFFFFFF AND PUSH20 0xFFFFFFFFFFFFFFFFFFFFFFFFFFFFFFFFFFFFFFFF AND DUP2 MSTORE PUSH1 0x20 ADD SWAP1 DUP2 MSTORE PUSH1 0x20 ADD PUSH1 0x0 KECCAK256 PUSH1 0x0 ADD PUSH1 0x1 SWAP1 SLOAD SWAP1 PUSH2 0x100 EXP SWAP1 DIV PUSH1 0xFF AND PUSH1 0x1 DUP7 DUP7 PUSH1 0x40 MLOAD PUSH2 0x1D9F SWAP3 SWAP2 SWAP1 PUSH2 0x35B2 JUMP JUMPDEST SWAP1 DUP2 MSTORE PUSH1 0x20 ADD PUSH1 0x40 MLOAD DUP1 SWAP2 SUB SWAP1 KECCAK256 PUSH1 0x0 DUP9 PUSH20 0xFFFFFFFFFFFFFFFFFFFFFFFFFFFFFFFFFFFFFFFF AND PUSH20 0xFFFFFFFFFFFFFFFFFFFFFFFFFFFFFFFFFFFFFFFF AND DUP2 MSTORE PUSH1 0x20 ADD SWAP1 DUP2 MSTORE PUSH1 0x20 ADD PUSH1 0x0 KECCAK256 PUSH1 0x0 ADD PUSH1 0x0 SWAP1 SLOAD SWAP1 PUSH2 0x100 EXP SWAP1 DIV PUSH1 0xFF AND PUSH1 0x1 DUP8 DUP8 PUSH1 0x40 MLOAD PUSH2 0x1E0D SWAP3 SWAP2 SWAP1 PUSH2 0x35B2 JUMP JUMPDEST SWAP1 DUP2 MSTORE PUSH1 0x20 ADD PUSH1 0x40 MLOAD DUP1 SWAP2 SUB SWAP1 KECCAK256 PUSH1 0x0 DUP10 PUSH20 0xFFFFFFFFFFFFFFFFFFFFFFFFFFFFFFFFFFFFFFFF AND PUSH20 0xFFFFFFFFFFFFFFFFFFFFFFFFFFFFFFFFFFFFFFFF AND DUP2 MSTORE PUSH1 0x20 ADD SWAP1 DUP2 MSTORE PUSH1 0x20 ADD PUSH1 0x0 KECCAK256 PUSH1 0x0 ADD PUSH1 0x2 SWAP1 SLOAD SWAP1 PUSH2 0x100 EXP SWAP1 DIV PUSH20 0xFFFFFFFFFFFFFFFFFFFFFFFFFFFFFFFFFFFFFFFF AND SWAP3 POP SWAP3 POP SWAP3 POP SWAP4 POP SWAP4 POP SWAP4 SWAP1 POP JUMP JUMPDEST PUSH1 0x0 DUP3 DUP3 PUSH1 0x40 MLOAD PUSH2 0x1E9D SWAP3 SWAP2 SWAP1 PUSH2 0x35B2 JUMP JUMPDEST SWAP1 DUP2 MSTORE PUSH1 0x20 ADD PUSH1 0x40 MLOAD DUP1 SWAP2 SUB SWAP1 KECCAK256 PUSH1 0x4 ADD SLOAD TIMESTAMP LT ISZERO PUSH2 0x1EF1 JUMPI PUSH1 0x40 MLOAD PUSH32 0x8C379A000000000000000000000000000000000000000000000000000000000 DUP2 MSTORE PUSH1 0x4 ADD PUSH2 0x1EE8 SWAP1 PUSH2 0x3944 JUMP JUMPDEST PUSH1 0x40 MLOAD DUP1 SWAP2 SUB SWAP1 REVERT JUMPDEST PUSH1 0x0 ISZERO ISZERO PUSH1 0x0 DUP4 DUP4 PUSH1 0x40 MLOAD PUSH2 0x1F07 SWAP3 SWAP2 SWAP1 PUSH2 0x35B2 JUMP JUMPDEST SWAP1 DUP2 MSTORE PUSH1 0x20 ADD PUSH1 0x40 MLOAD DUP1 SWAP2 SUB SWAP1 KECCAK256 PUSH1 0x7 ADD PUSH1 0x0 SWAP1 SLOAD SWAP1 PUSH2 0x100 EXP SWAP1 DIV PUSH1 0xFF AND ISZERO ISZERO EQ PUSH2 0x1F68 JUMPI PUSH1 0x40 MLOAD PUSH32 0x8C379A000000000000000000000000000000000000000000000000000000000 DUP2 MSTORE PUSH1 0x4 ADD PUSH2 0x1F5F SWAP1 PUSH2 0x3984 JUMP JUMPDEST PUSH1 0x40 MLOAD DUP1 SWAP2 SUB SWAP1 REVERT JUMPDEST PUSH1 0x0 DUP3 DUP3 PUSH1 0x40 MLOAD PUSH2 0x1F7A SWAP3 SWAP2 SWAP1 PUSH2 0x35B2 JUMP JUMPDEST SWAP1 DUP2 MSTORE PUSH1 0x20 ADD PUSH1 0x40 MLOAD DUP1 SWAP2 SUB SWAP1 KECCAK256 PUSH1 0x1 ADD PUSH1 0x0 SWAP1 SLOAD SWAP1 PUSH2 0x100 EXP SWAP1 DIV PUSH20 0xFFFFFFFFFFFFFFFFFFFFFFFFFFFFFFFFFFFFFFFF AND PUSH20 0xFFFFFFFFFFFFFFFFFFFFFFFFFFFFFFFFFFFFFFFF AND CALLER PUSH20 0xFFFFFFFFFFFFFFFFFFFFFFFFFFFFFFFFFFFFFFFF AND EQ DUP1 PUSH2 0x2092 JUMPI POP PUSH1 0x0 PUSH20 0xFFFFFFFFFFFFFFFFFFFFFFFFFFFFFFFFFFFFFFFF AND PUSH1 0x1 DUP4 DUP4 PUSH1 0x40 MLOAD PUSH2 0x200A SWAP3 SWAP2 SWAP1 PUSH2 0x35B2 JUMP JUMPDEST SWAP1 DUP2 MSTORE PUSH1 0x20 ADD PUSH1 0x40 MLOAD DUP1 SWAP2 SUB SWAP1 KECCAK256 PUSH1 0x0 CALLER PUSH20 0xFFFFFFFFFFFFFFFFFFFFFFFFFFFFFFFFFFFFFFFF AND PUSH20 0xFFFFFFFFFFFFFFFFFFFFFFFFFFFFFFFFFFFFFFFF AND DUP2 MSTORE PUSH1 0x20 ADD SWAP1 DUP2 MSTORE PUSH1 0x20 ADD PUSH1 0x0 KECCAK256 PUSH1 0x0 ADD PUSH1 0x2 SWAP1 SLOAD SWAP1 PUSH2 0x100 EXP SWAP1 DIV PUSH20 0xFFFFFFFFFFFFFFFFFFFFFFFFFFFFFFFFFFFFFFFF AND PUSH20 0xFFFFFFFFFFFFFFFFFFFFFFFFFFFFFFFFFFFFFFFF AND EQ ISZERO JUMPDEST PUSH2 0x20D1 JUMPI PUSH1 0x40 MLOAD PUSH32 0x8C379A000000000000000000000000000000000000000000000000000000000 DUP2 MSTORE PUSH1 0x4 ADD PUSH2 0x20C8 SWAP1 PUSH2 0x3864 JUMP JUMPDEST PUSH1 0x40 MLOAD DUP1 SWAP2 SUB SWAP1 REVERT JUMPDEST PUSH1 0x0 PUSH1 0x64 PUSH1 0x3 DUP5 DUP5 PUSH1 0x40 MLOAD PUSH2 0x20E7 SWAP3 SWAP2 SWAP1 PUSH2 0x35B2 JUMP JUMPDEST SWAP1 DUP2 MSTORE PUSH1 0x20 ADD PUSH1 0x40 MLOAD DUP1 SWAP2 SUB SWAP1 KECCAK256 DUP1 SLOAD SWAP1 POP PUSH1 0x0 DUP6 DUP6 PUSH1 0x40 MLOAD PUSH2 0x210B SWAP3 SWAP2 SWAP1 PUSH2 0x35B2 JUMP JUMPDEST SWAP1 DUP2 MSTORE PUSH1 0x20 ADD PUSH1 0x40 MLOAD DUP1 SWAP2 SUB SWAP1 KECCAK256 PUSH1 0x6 ADD SLOAD PUSH2 0x2127 SWAP2 SWAP1 PUSH2 0x3AE3 JUMP JUMPDEST PUSH2 0x2131 SWAP2 SWAP1 PUSH2 0x3B14 JUMP JUMPDEST SWAP1 POP PUSH1 0x0 DUP4 DUP4 PUSH1 0x40 MLOAD PUSH2 0x2145 SWAP3 SWAP2 SWAP1 PUSH2 0x35B2 JUMP JUMPDEST SWAP1 DUP2 MSTORE PUSH1 0x20 ADD PUSH1 0x40 MLOAD DUP1 SWAP2 SUB SWAP1 KECCAK256 PUSH1 0x5 ADD SLOAD DUP2 LT PUSH2 0x21A6 JUMPI PUSH32 0x4163636570746564000000000000000000000000000000000000000000000000 PUSH1 0x0 DUP5 DUP5 PUSH1 0x40 MLOAD PUSH2 0x2190 SWAP3 SWAP2 SWAP1 PUSH2 0x35B2 JUMP JUMPDEST SWAP1 DUP2 MSTORE PUSH1 0x20 ADD PUSH1 0x40 MLOAD DUP1 SWAP2 SUB SWAP1 KECCAK256 PUSH1 0x8 ADD DUP2 SWAP1 SSTORE POP JUMPDEST PUSH1 0x0 JUMPDEST PUSH1 0x3 DUP5 DUP5 PUSH1 0x40 MLOAD PUSH2 0x21BB SWAP3 SWAP2 SWAP1 PUSH2 0x35B2 JUMP JUMPDEST SWAP1 DUP2 MSTORE PUSH1 0x20 ADD PUSH1 0x40 MLOAD DUP1 SWAP2 SUB SWAP1 KECCAK256 DUP1 SLOAD SWAP1 POP DUP2 PUSH1 0xFF AND LT ISZERO PUSH2 0x2488 JUMPI PUSH1 0x0 ISZERO ISZERO PUSH1 0x1 DUP6 DUP6 PUSH1 0x40 MLOAD PUSH2 0x21ED SWAP3 SWAP2 SWAP1 PUSH2 0x35B2 JUMP JUMPDEST SWAP1 DUP2 MSTORE PUSH1 0x20 ADD PUSH1 0x40 MLOAD DUP1 SWAP2 SUB SWAP1 KECCAK256 PUSH1 0x0 PUSH1 0x3 DUP8 DUP8 PUSH1 0x40 MLOAD PUSH2 0x220F SWAP3 SWAP2 SWAP1 PUSH2 0x35B2 JUMP JUMPDEST SWAP1 DUP2 MSTORE PUSH1 0x20 ADD PUSH1 0x40 MLOAD DUP1 SWAP2 SUB SWAP1 KECCAK256 DUP5 PUSH1 0xFF AND DUP2 SLOAD DUP2 LT PUSH2 0x2232 JUMPI PUSH2 0x2231 PUSH2 0x3D29 JUMP JUMPDEST JUMPDEST SWAP1 PUSH1 0x0 MSTORE PUSH1 0x20 PUSH1 0x0 KECCAK256 ADD PUSH1 0x0 SWAP1 SLOAD SWAP1 PUSH2 0x100 EXP SWAP1 DIV PUSH20 0xFFFFFFFFFFFFFFFFFFFFFFFFFFFFFFFFFFFFFFFF AND PUSH20 0xFFFFFFFFFFFFFFFFFFFFFFFFFFFFFFFFFFFFFFFF AND PUSH20 0xFFFFFFFFFFFFFFFFFFFFFFFFFFFFFFFFFFFFFFFF AND DUP2 MSTORE PUSH1 0x20 ADD SWAP1 DUP2 MSTORE PUSH1 0x20 ADD PUSH1 0x0 KECCAK256 PUSH1 0x0 ADD PUSH1 0x0 SWAP1 SLOAD SWAP1 PUSH2 0x100 EXP SWAP1 DIV PUSH1 0xFF AND ISZERO ISZERO EQ ISZERO PUSH2 0x2475 JUMPI PUSH1 0x2 DUP5 DUP5 PUSH1 0x40 MLOAD PUSH2 0x22C2 SWAP3 SWAP2 SWAP1 PUSH2 0x35B2 JUMP JUMPDEST SWAP1 DUP2 MSTORE PUSH1 0x20 ADD PUSH1 0x40 MLOAD DUP1 SWAP2 SUB SWAP1 KECCAK256 PUSH1 0x1 DUP6 DUP6 PUSH1 0x40 MLOAD PUSH2 0x22E2 SWAP3 SWAP2 SWAP1 PUSH2 0x35B2 JUMP JUMPDEST SWAP1 DUP2 MSTORE PUSH1 0x20 ADD PUSH1 0x40 MLOAD DUP1 SWAP2 SUB SWAP1 KECCAK256 PUSH1 0x0 PUSH1 0x3 DUP8 DUP8 PUSH1 0x40 MLOAD PUSH2 0x2304 SWAP3 SWAP2 SWAP1 PUSH2 0x35B2 JUMP JUMPDEST SWAP1 DUP2 MSTORE PUSH1 0x20 ADD PUSH1 0x40 MLOAD DUP1 SWAP2 SUB SWAP1 KECCAK256 DUP5 PUSH1 0xFF AND DUP2 SLOAD DUP2 LT PUSH2 0x2327 JUMPI PUSH2 0x2326 PUSH2 0x3D29 JUMP JUMPDEST JUMPDEST SWAP1 PUSH1 0x0 MSTORE PUSH1 0x20 PUSH1 0x0 KECCAK256 ADD PUSH1 0x0 SWAP1 SLOAD SWAP1 PUSH2 0x100 EXP SWAP1 DIV PUSH20 0xFFFFFFFFFFFFFFFFFFFFFFFFFFFFFFFFFFFFFFFF AND PUSH20 0xFFFFFFFFFFFFFFFFFFFFFFFFFFFFFFFFFFFFFFFF AND PUSH20 0xFFFFFFFFFFFFFFFFFFFFFFFFFFFFFFFFFFFFFFFF AND DUP2 MSTORE PUSH1 0x20 ADD SWAP1 DUP2 MSTORE PUSH1 0x20 ADD PUSH1 0x0 KECCAK256 SWAP1 DUP1 PUSH1 0x1 DUP2 SLOAD ADD DUP1 DUP3 SSTORE DUP1 SWAP2 POP POP PUSH1 0x1 SWAP1 SUB SWAP1 PUSH1 0x0 MSTORE PUSH1 0x20 PUSH1 0x0 KECCAK256 ADD PUSH1 0x0 SWAP1 SWAP2 SWAP1 SWAP2 SWAP1 SWAP2 POP PUSH1 0x0 DUP3 ADD PUSH1 0x0 SWAP1 SLOAD SWAP1 PUSH2 0x100 EXP SWAP1 DIV PUSH1 0xFF AND DUP2 PUSH1 0x0 ADD PUSH1 0x0 PUSH2 0x100 EXP DUP2 SLOAD DUP2 PUSH1 0xFF MUL NOT AND SWAP1 DUP4 ISZERO ISZERO MUL OR SWAP1 SSTORE POP PUSH1 0x0 DUP3 ADD PUSH1 0x1 SWAP1 SLOAD SWAP1 PUSH2 0x100 EXP SWAP1 DIV PUSH1 0xFF AND DUP2 PUSH1 0x0 ADD PUSH1 0x1 PUSH2 0x100 EXP DUP2 SLOAD DUP2 PUSH1 0xFF MUL NOT AND SWAP1 DUP4 ISZERO ISZERO MUL OR SWAP1 SSTORE POP PUSH1 0x0 DUP3 ADD PUSH1 0x2 SWAP1 SLOAD SWAP1 PUSH2 0x100 EXP SWAP1 DIV PUSH20 0xFFFFFFFFFFFFFFFFFFFFFFFFFFFFFFFFFFFFFFFF AND DUP2 PUSH1 0x0 ADD PUSH1 0x2 PUSH2 0x100 EXP DUP2 SLOAD DUP2 PUSH20 0xFFFFFFFFFFFFFFFFFFFFFFFFFFFFFFFFFFFFFFFF MUL NOT AND SWAP1 DUP4 PUSH20 0xFFFFFFFFFFFFFFFFFFFFFFFFFFFFFFFFFFFFFFFF AND MUL OR SWAP1 SSTORE POP POP POP JUMPDEST DUP1 DUP1 PUSH2 0x2480 SWAP1 PUSH2 0x3C72 JUMP JUMPDEST SWAP2 POP POP PUSH2 0x21A9 JUMP JUMPDEST POP PUSH1 0x1 PUSH1 0x0 DUP5 DUP5 PUSH1 0x40 MLOAD PUSH2 0x249D SWAP3 SWAP2 SWAP1 PUSH2 0x35B2 JUMP JUMPDEST SWAP1 DUP2 MSTORE PUSH1 0x20 ADD PUSH1 0x40 MLOAD DUP1 SWAP2 SUB SWAP1 KECCAK256 PUSH1 0x7 ADD PUSH1 0x0 PUSH2 0x100 EXP DUP2 SLOAD DUP2 PUSH1 0xFF MUL NOT AND SWAP1 DUP4 ISZERO ISZERO MUL OR SWAP1 SSTORE POP POP POP POP JUMP JUMPDEST PUSH1 0x2 DUP3 DUP1 MLOAD PUSH1 0x20 DUP2 ADD DUP3 ADD DUP1 MLOAD DUP5 DUP3 MSTORE PUSH1 0x20 DUP4 ADD PUSH1 0x20 DUP6 ADD KECCAK256 DUP2 DUP4 MSTORE DUP1 SWAP6 POP POP POP POP POP POP DUP2 DUP2 SLOAD DUP2 LT PUSH2 0x24FC JUMPI PUSH1 0x0 DUP1 REVERT JUMPDEST SWAP1 PUSH1 0x0 MSTORE PUSH1 0x20 PUSH1 0x0 KECCAK256 ADD PUSH1 0x0 SWAP2 POP SWAP2 POP POP DUP1 PUSH1 0x0 ADD PUSH1 0x0 SWAP1 SLOAD SWAP1 PUSH2 0x100 EXP SWAP1 DIV PUSH1 0xFF AND SWAP1 DUP1 PUSH1 0x0 ADD PUSH1 0x1 SWAP1 SLOAD SWAP1 PUSH2 0x100 EXP SWAP1 DIV PUSH1 0xFF AND SWAP1 DUP1 PUSH1 0x0 ADD PUSH1 0x2 SWAP1 SLOAD SWAP1 PUSH2 0x100 EXP SWAP1 DIV PUSH20 0xFFFFFFFFFFFFFFFFFFFFFFFFFFFFFFFFFFFFFFFF AND SWAP1 POP DUP4 JUMP JUMPDEST PUSH1 0x0 DUP1 PUSH1 0x0 DUP1 DUP8 PUSH1 0x40 MLOAD PUSH2 0x2571 SWAP2 SWAP1 PUSH2 0x35CB JUMP JUMPDEST SWAP1 DUP2 MSTORE PUSH1 0x20 ADD PUSH1 0x40 MLOAD DUP1 SWAP2 SUB SWAP1 KECCAK256 PUSH1 0x1 ADD PUSH1 0x0 SWAP1 SLOAD SWAP1 PUSH2 0x100 EXP SWAP1 DIV PUSH20 0xFFFFFFFFFFFFFFFFFFFFFFFFFFFFFFFFFFFFFFFF AND PUSH20 0xFFFFFFFFFFFFFFFFFFFFFFFFFFFFFFFFFFFFFFFF AND CALLER PUSH20 0xFFFFFFFFFFFFFFFFFFFFFFFFFFFFFFFFFFFFFFFF AND EQ PUSH2 0x2610 JUMPI PUSH1 0x40 MLOAD PUSH32 0x8C379A000000000000000000000000000000000000000000000000000000000 DUP2 MSTORE PUSH1 0x4 ADD PUSH2 0x2607 SWAP1 PUSH2 0x3924 JUMP JUMPDEST PUSH1 0x40 MLOAD DUP1 SWAP2 SUB SWAP1 REVERT JUMPDEST PUSH1 0x0 PUSH1 0x1 SWAP1 POP PUSH1 0x0 PUSH1 0x1 SWAP1 POP PUSH1 0x0 PUSH1 0x1 SWAP1 POP PUSH1 0x0 PUSH20 0xFFFFFFFFFFFFFFFFFFFFFFFFFFFFFFFFFFFFFFFF AND PUSH1 0x0 DUP12 PUSH1 0x40 MLOAD PUSH2 0x264A SWAP2 SWAP1 PUSH2 0x35CB JUMP JUMPDEST SWAP1 DUP2 MSTORE PUSH1 0x20 ADD PUSH1 0x40 MLOAD DUP1 SWAP2 SUB SWAP1 KECCAK256 PUSH1 0x1 ADD PUSH1 0x0 SWAP1 SLOAD SWAP1 PUSH2 0x100 EXP SWAP1 DIV PUSH20 0xFFFFFFFFFFFFFFFFFFFFFFFFFFFFFFFFFFFFFFFF AND PUSH20 0xFFFFFFFFFFFFFFFFFFFFFFFFFFFFFFFFFFFFFFFF AND EQ ISZERO PUSH2 0x26AB JUMPI PUSH1 0x1 DUP1 PUSH1 0x1 SWAP6 POP SWAP6 POP SWAP6 POP POP POP POP PUSH2 0x274A JUMP JUMPDEST PUSH1 0x0 DUP11 PUSH1 0x40 MLOAD PUSH2 0x26BB SWAP2 SWAP1 PUSH2 0x35CB JUMP JUMPDEST SWAP1 DUP2 MSTORE PUSH1 0x20 ADD PUSH1 0x40 MLOAD DUP1 SWAP2 SUB SWAP1 KECCAK256 PUSH1 0x5 ADD SLOAD DUP10 EQ PUSH2 0x26D8 JUMPI PUSH1 0x0 SWAP3 POP JUMPDEST PUSH1 0x0 DUP11 PUSH1 0x40 MLOAD PUSH2 0x26E8 SWAP2 SWAP1 PUSH2 0x35CB JUMP JUMPDEST SWAP1 DUP2 MSTORE PUSH1 0x20 ADD PUSH1 0x40 MLOAD DUP1 SWAP2 SUB SWAP1 KECCAK256 PUSH1 0xB ADD SLOAD DUP8 EQ PUSH2 0x2705 JUMPI PUSH1 0x0 SWAP2 POP JUMPDEST DUP8 TIMESTAMP PUSH2 0x2711 SWAP2 SWAP1 PUSH2 0x3A8D JUMP JUMPDEST PUSH1 0x0 DUP12 PUSH1 0x40 MLOAD PUSH2 0x2721 SWAP2 SWAP1 PUSH2 0x35CB JUMP JUMPDEST SWAP1 DUP2 MSTORE PUSH1 0x20 ADD PUSH1 0x40 MLOAD DUP1 SWAP2 SUB SWAP1 KECCAK256 PUSH1 0x4 ADD SLOAD EQ PUSH2 0x273D JUMPI PUSH1 0x0 SWAP1 POP JUMPDEST DUP3 DUP3 DUP3 SWAP6 POP SWAP6 POP SWAP6 POP POP POP POP JUMPDEST SWAP5 POP SWAP5 POP SWAP5 SWAP2 POP POP JUMP JUMPDEST PUSH1 0x60 PUSH1 0x0 DUP4 DUP4 PUSH1 0x40 MLOAD PUSH2 0x2768 SWAP3 SWAP2 SWAP1 PUSH2 0x35B2 JUMP JUMPDEST SWAP1 DUP2 MSTORE PUSH1 0x20 ADD PUSH1 0x40 MLOAD DUP1 SWAP2 SUB SWAP1 KECCAK256 PUSH1 0x0 ADD DUP1 SLOAD PUSH2 0x2784 SWAP1 PUSH2 0x3C0F JUMP JUMPDEST DUP1 PUSH1 0x1F ADD PUSH1 0x20 DUP1 SWAP2 DIV MUL PUSH1 0x20 ADD PUSH1 0x40 MLOAD SWAP1 DUP2 ADD PUSH1 0x40 MSTORE DUP1 SWAP3 SWAP2 SWAP1 DUP2 DUP2 MSTORE PUSH1 0x20 ADD DUP3 DUP1 SLOAD PUSH2 0x27B0 SWAP1 PUSH2 0x3C0F JUMP JUMPDEST DUP1 ISZERO PUSH2 0x27FD JUMPI DUP1 PUSH1 0x1F LT PUSH2 0x27D2 JUMPI PUSH2 0x100 DUP1 DUP4 SLOAD DIV MUL DUP4 MSTORE SWAP2 PUSH1 0x20 ADD SWAP2 PUSH2 0x27FD JUMP JUMPDEST DUP3 ADD SWAP2 SWAP1 PUSH1 0x0 MSTORE PUSH1 0x20 PUSH1 0x0 KECCAK256 SWAP1 JUMPDEST DUP2 SLOAD DUP2 MSTORE SWAP1 PUSH1 0x1 ADD SWAP1 PUSH1 0x20 ADD DUP1 DUP4 GT PUSH2 0x27E0 JUMPI DUP3 SWAP1 SUB PUSH1 0x1F AND DUP3 ADD SWAP2 JUMPDEST POP POP POP POP POP SWAP1 POP SWAP3 SWAP2 POP POP JUMP JUMPDEST PUSH2 0x2812 PUSH2 0x2BBF JUMP JUMPDEST PUSH1 0x0 DUP4 DUP4 PUSH1 0x40 MLOAD PUSH2 0x2824 SWAP3 SWAP2 SWAP1 PUSH2 0x35B2 JUMP JUMPDEST SWAP1 DUP2 MSTORE PUSH1 0x20 ADD PUSH1 0x40 MLOAD DUP1 SWAP2 SUB SWAP1 KECCAK256 PUSH1 0x40 MLOAD DUP1 PUSH2 0x180 ADD PUSH1 0x40 MSTORE SWAP1 DUP2 PUSH1 0x0 DUP3 ADD DUP1 SLOAD PUSH2 0x284E SWAP1 PUSH2 0x3C0F JUMP JUMPDEST DUP1 PUSH1 0x1F ADD PUSH1 0x20 DUP1 SWAP2 DIV MUL PUSH1 0x20 ADD PUSH1 0x40 MLOAD SWAP1 DUP2 ADD PUSH1 0x40 MSTORE DUP1 SWAP3 SWAP2 SWAP1 DUP2 DUP2 MSTORE PUSH1 0x20 ADD DUP3 DUP1 SLOAD PUSH2 0x287A SWAP1 PUSH2 0x3C0F JUMP JUMPDEST DUP1 ISZERO PUSH2 0x28C7 JUMPI DUP1 PUSH1 0x1F LT PUSH2 0x289C JUMPI PUSH2 0x100 DUP1 DUP4 SLOAD DIV MUL DUP4 MSTORE SWAP2 PUSH1 0x20 ADD SWAP2 PUSH2 0x28C7 JUMP JUMPDEST DUP3 ADD SWAP2 SWAP1 PUSH1 0x0 MSTORE PUSH1 0x20 PUSH1 0x0 KECCAK256 SWAP1 JUMPDEST DUP2 SLOAD DUP2 MSTORE SWAP1 PUSH1 0x1 ADD SWAP1 PUSH1 0x20 ADD DUP1 DUP4 GT PUSH2 0x28AA JUMPI DUP3 SWAP1 SUB PUSH1 0x1F AND DUP3 ADD SWAP2 JUMPDEST POP POP POP POP POP DUP2 MSTORE PUSH1 0x20 ADD PUSH1 0x1 DUP3 ADD PUSH1 0x0 SWAP1 SLOAD SWAP1 PUSH2 0x100 EXP SWAP1 DIV PUSH20 0xFFFFFFFFFFFFFFFFFFFFFFFFFFFFFFFFFFFFFFFF AND PUSH20 0xFFFFFFFFFFFFFFFFFFFFFFFFFFFFFFFFFFFFFFFF AND PUSH20 0xFFFFFFFFFFFFFFFFFFFFFFFFFFFFFFFFFFFFFFFF AND DUP2 MSTORE PUSH1 0x20 ADD PUSH1 0x2 DUP3 ADD PUSH1 0x0 SWAP1 SLOAD SWAP1 PUSH2 0x100 EXP SWAP1 DIV PUSH20 0xFFFFFFFFFFFFFFFFFFFFFFFFFFFFFFFFFFFFFFFF AND PUSH20 0xFFFFFFFFFFFFFFFFFFFFFFFFFFFFFFFFFFFFFFFF AND PUSH20 0xFFFFFFFFFFFFFFFFFFFFFFFFFFFFFFFFFFFFFFFF AND DUP2 MSTORE PUSH1 0x20 ADD PUSH1 0x3 DUP3 ADD SLOAD DUP2 MSTORE PUSH1 0x20 ADD PUSH1 0x4 DUP3 ADD SLOAD DUP2 MSTORE PUSH1 0x20 ADD PUSH1 0x5 DUP3 ADD SLOAD DUP2 MSTORE PUSH1 0x20 ADD PUSH1 0x6 DUP3 ADD SLOAD DUP2 MSTORE PUSH1 0x20 ADD PUSH1 0x7 DUP3 ADD PUSH1 0x0 SWAP1 SLOAD SWAP1 PUSH2 0x100 EXP SWAP1 DIV PUSH1 0xFF AND ISZERO ISZERO ISZERO ISZERO DUP2 MSTORE PUSH1 0x20 ADD PUSH1 0x8 DUP3 ADD SLOAD DUP2 MSTORE PUSH1 0x20 ADD PUSH1 0x9 DUP3 ADD DUP1 SLOAD PUSH2 0x29D9 SWAP1 PUSH2 0x3C0F JUMP JUMPDEST DUP1 PUSH1 0x1F ADD PUSH1 0x20 DUP1 SWAP2 DIV MUL PUSH1 0x20 ADD PUSH1 0x40 MLOAD SWAP1 DUP2 ADD PUSH1 0x40 MSTORE DUP1 SWAP3 SWAP2 SWAP1 DUP2 DUP2 MSTORE PUSH1 0x20 ADD DUP3 DUP1 SLOAD PUSH2 0x2A05 SWAP1 PUSH2 0x3C0F JUMP JUMPDEST DUP1 ISZERO PUSH2 0x2A52 JUMPI DUP1 PUSH1 0x1F LT PUSH2 0x2A27 JUMPI PUSH2 0x100 DUP1 DUP4 SLOAD DIV MUL DUP4 MSTORE SWAP2 PUSH1 0x20 ADD SWAP2 PUSH2 0x2A52 JUMP JUMPDEST DUP3 ADD SWAP2 SWAP1 PUSH1 0x0 MSTORE PUSH1 0x20 PUSH1 0x0 KECCAK256 SWAP1 JUMPDEST DUP2 SLOAD DUP2 MSTORE SWAP1 PUSH1 0x1 ADD SWAP1 PUSH1 0x20 ADD DUP1 DUP4 GT PUSH2 0x2A35 JUMPI DUP3 SWAP1 SUB PUSH1 0x1F AND DUP3 ADD SWAP2 JUMPDEST POP POP POP POP POP DUP2 MSTORE PUSH1 0x20 ADD PUSH1 0xA DUP3 ADD DUP1 SLOAD PUSH2 0x2A6B SWAP1 PUSH2 0x3C0F JUMP JUMPDEST DUP1 PUSH1 0x1F ADD PUSH1 0x20 DUP1 SWAP2 DIV MUL PUSH1 0x20 ADD PUSH1 0x40 MLOAD SWAP1 DUP2 ADD PUSH1 0x40 MSTORE DUP1 SWAP3 SWAP2 SWAP1 DUP2 DUP2 MSTORE PUSH1 0x20 ADD DUP3 DUP1 SLOAD PUSH2 0x2A97 SWAP1 PUSH2 0x3C0F JUMP JUMPDEST DUP1 ISZERO PUSH2 0x2AE4 JUMPI DUP1 PUSH1 0x1F LT PUSH2 0x2AB9 JUMPI PUSH2 0x100 DUP1 DUP4 SLOAD DIV MUL DUP4 MSTORE SWAP2 PUSH1 0x20 ADD SWAP2 PUSH2 0x2AE4 JUMP JUMPDEST DUP3 ADD SWAP2 SWAP1 PUSH1 0x0 MSTORE PUSH1 0x20 PUSH1 0x0 KECCAK256 SWAP1 JUMPDEST DUP2 SLOAD DUP2 MSTORE SWAP1 PUSH1 0x1 ADD SWAP1 PUSH1 0x20 ADD DUP1 DUP4 GT PUSH2 0x2AC7 JUMPI DUP3 SWAP1 SUB PUSH1 0x1F AND DUP3 ADD SWAP2 JUMPDEST POP POP POP POP POP DUP2 MSTORE PUSH1 0x20 ADD PUSH1 0xB DUP3 ADD SLOAD DUP2 MSTORE POP POP SWAP1 POP SWAP3 SWAP2 POP POP JUMP JUMPDEST PUSH1 0x0 DUP1 DUP4 DUP4 PUSH1 0x40 MLOAD PUSH2 0x2B12 SWAP3 SWAP2 SWAP1 PUSH2 0x35B2 JUMP JUMPDEST SWAP1 DUP2 MSTORE PUSH1 0x20 ADD PUSH1 0x40 MLOAD DUP1 SWAP2 SUB SWAP1 KECCAK256 PUSH1 0x7 ADD PUSH1 0x0 SWAP1 SLOAD SWAP1 PUSH2 0x100 EXP SWAP1 DIV PUSH1 0xFF AND SWAP1 POP SWAP3 SWAP2 POP POP JUMP JUMPDEST DUP3 DUP1 SLOAD PUSH2 0x2B45 SWAP1 PUSH2 0x3C0F JUMP JUMPDEST SWAP1 PUSH1 0x0 MSTORE PUSH1 0x20 PUSH1 0x0 KECCAK256 SWAP1 PUSH1 0x1F ADD PUSH1 0x20 SWAP1 DIV DUP2 ADD SWAP3 DUP3 PUSH2 0x2B67 JUMPI PUSH1 0x0 DUP6 SSTORE PUSH2 0x2BAE JUMP JUMPDEST DUP3 PUSH1 0x1F LT PUSH2 0x2B80 JUMPI DUP1 MLOAD PUSH1 0xFF NOT AND DUP4 DUP1 ADD OR DUP6 SSTORE PUSH2 0x2BAE JUMP JUMPDEST DUP3 DUP1 ADD PUSH1 0x1 ADD DUP6 SSTORE DUP3 ISZERO PUSH2 0x2BAE JUMPI SWAP2 DUP3 ADD JUMPDEST DUP3 DUP2 GT ISZERO PUSH2 0x2BAD JUMPI DUP3 MLOAD DUP3 SSTORE SWAP2 PUSH1 0x20 ADD SWAP2 SWAP1 PUSH1 0x1 ADD SWAP1 PUSH2 0x2B92 JUMP JUMPDEST JUMPDEST POP SWAP1 POP PUSH2 0x2BBB SWAP2 SWAP1 PUSH2 0x2C54 JUMP JUMPDEST POP SWAP1 JUMP JUMPDEST PUSH1 0x40 MLOAD DUP1 PUSH2 0x180 ADD PUSH1 0x40 MSTORE DUP1 PUSH1 0x60 DUP2 MSTORE PUSH1 0x20 ADD PUSH1 0x0 PUSH20 0xFFFFFFFFFFFFFFFFFFFFFFFFFFFFFFFFFFFFFFFF AND DUP2 MSTORE PUSH1 0x20 ADD PUSH1 0x0 PUSH20 0xFFFFFFFFFFFFFFFFFFFFFFFFFFFFFFFFFFFFFFFF AND DUP2 MSTORE PUSH1 0x20 ADD PUSH1 0x0 DUP2 MSTORE PUSH1 0x20 ADD PUSH1 0x0 DUP2 MSTORE PUSH1 0x20 ADD PUSH1 0x0 DUP2 MSTORE PUSH1 0x20 ADD PUSH1 0x0 DUP2 MSTORE PUSH1 0x20 ADD PUSH1 0x0 ISZERO ISZERO DUP2 MSTORE PUSH1 0x20 ADD PUSH1 0x0 DUP1 NOT AND DUP2 MSTORE PUSH1 0x20 ADD PUSH1 0x60 DUP2 MSTORE PUSH1 0x20 ADD PUSH1 0x60 DUP2 MSTORE PUSH1 0x20 ADD PUSH1 0x0 DUP1 NOT AND DUP2 MSTORE POP SWAP1 JUMP JUMPDEST JUMPDEST DUP1 DUP3 GT ISZERO PUSH2 0x2C6D JUMPI PUSH1 0x0 DUP2 PUSH1 0x0 SWAP1 SSTORE POP PUSH1 0x1 ADD PUSH2 0x2C55 JUMP JUMPDEST POP SWAP1 JUMP JUMPDEST PUSH1 0x0 PUSH2 0x2C84 PUSH2 0x2C7F DUP5 PUSH2 0x39EB JUMP JUMPDEST PUSH2 0x39C6 JUMP JUMPDEST SWAP1 POP DUP3 DUP2 MSTORE PUSH1 0x20 DUP2 ADD DUP5 DUP5 DUP5 ADD GT ISZERO PUSH2 0x2CA0 JUMPI PUSH2 0x2C9F PUSH2 0x3D96 JUMP JUMPDEST JUMPDEST PUSH2 0x2CAB DUP5 DUP3 DUP6 PUSH2 0x3BCD JUMP JUMPDEST POP SWAP4 SWAP3 POP POP POP JUMP JUMPDEST PUSH1 0x0 DUP2 CALLDATALOAD SWAP1 POP PUSH2 0x2CC2 DUP2 PUSH2 0x403A JUMP JUMPDEST SWAP3 SWAP2 POP POP JUMP JUMPDEST PUSH1 0x0 DUP2 CALLDATALOAD SWAP1 POP PUSH2 0x2CD7 DUP2 PUSH2 0x4051 JUMP JUMPDEST SWAP3 SWAP2 POP POP JUMP JUMPDEST PUSH1 0x0 DUP1 DUP4 PUSH1 0x1F DUP5 ADD SLT PUSH2 0x2CF3 JUMPI PUSH2 0x2CF2 PUSH2 0x3D8C JUMP JUMPDEST JUMPDEST DUP3 CALLDATALOAD SWAP1 POP PUSH8 0xFFFFFFFFFFFFFFFF DUP2 GT ISZERO PUSH2 0x2D10 JUMPI PUSH2 0x2D0F PUSH2 0x3D87 JUMP JUMPDEST JUMPDEST PUSH1 0x20 DUP4 ADD SWAP2 POP DUP4 PUSH1 0x1 DUP3 MUL DUP4 ADD GT ISZERO PUSH2 0x2D2C JUMPI PUSH2 0x2D2B PUSH2 0x3D91 JUMP JUMPDEST JUMPDEST SWAP3 POP SWAP3 SWAP1 POP JUMP JUMPDEST PUSH1 0x0 DUP3 PUSH1 0x1F DUP4 ADD SLT PUSH2 0x2D48 JUMPI PUSH2 0x2D47 PUSH2 0x3D8C JUMP JUMPDEST JUMPDEST DUP2 CALLDATALOAD PUSH2 0x2D58 DUP5 DUP3 PUSH1 0x20 DUP7 ADD PUSH2 0x2C71 JUMP JUMPDEST SWAP2 POP POP SWAP3 SWAP2 POP POP JUMP JUMPDEST PUSH1 0x0 DUP2 CALLDATALOAD SWAP1 POP PUSH2 0x2D70 DUP2 PUSH2 0x4068 JUMP JUMPDEST SWAP3 SWAP2 POP POP JUMP JUMPDEST PUSH1 0x0 DUP1 PUSH1 0x0 PUSH1 0x40 DUP5 DUP7 SUB SLT ISZERO PUSH2 0x2D8F JUMPI PUSH2 0x2D8E PUSH2 0x3DA0 JUMP JUMPDEST JUMPDEST PUSH1 0x0 PUSH2 0x2D9D DUP7 DUP3 DUP8 ADD PUSH2 0x2CB3 JUMP JUMPDEST SWAP4 POP POP PUSH1 0x20 DUP5 ADD CALLDATALOAD PUSH8 0xFFFFFFFFFFFFFFFF DUP2 GT ISZERO PUSH2 0x2DBE JUMPI PUSH2 0x2DBD PUSH2 0x3D9B JUMP JUMPDEST JUMPDEST PUSH2 0x2DCA DUP7 DUP3 DUP8 ADD PUSH2 0x2CDD JUMP JUMPDEST SWAP3 POP SWAP3 POP POP SWAP3 POP SWAP3 POP SWAP3 JUMP JUMPDEST PUSH1 0x0 DUP1 PUSH1 0x20 DUP4 DUP6 SUB SLT ISZERO PUSH2 0x2DED JUMPI PUSH2 0x2DEC PUSH2 0x3DA0 JUMP JUMPDEST JUMPDEST PUSH1 0x0 DUP4 ADD CALLDATALOAD PUSH8 0xFFFFFFFFFFFFFFFF DUP2 GT ISZERO PUSH2 0x2E0B JUMPI PUSH2 0x2E0A PUSH2 0x3D9B JUMP JUMPDEST JUMPDEST PUSH2 0x2E17 DUP6 DUP3 DUP7 ADD PUSH2 0x2CDD JUMP JUMPDEST SWAP3 POP SWAP3 POP POP SWAP3 POP SWAP3 SWAP1 POP JUMP JUMPDEST PUSH1 0x0 PUSH1 0x20 DUP3 DUP5 SUB SLT ISZERO PUSH2 0x2E39 JUMPI PUSH2 0x2E38 PUSH2 0x3DA0 JUMP JUMPDEST JUMPDEST PUSH1 0x0 DUP3 ADD CALLDATALOAD PUSH8 0xFFFFFFFFFFFFFFFF DUP2 GT ISZERO PUSH2 0x2E57 JUMPI PUSH2 0x2E56 PUSH2 0x3D9B JUMP JUMPDEST JUMPDEST PUSH2 0x2E63 DUP5 DUP3 DUP6 ADD PUSH2 0x2D33 JUMP JUMPDEST SWAP2 POP POP SWAP3 SWAP2 POP POP JUMP JUMPDEST PUSH1 0x0 DUP1 PUSH1 0x40 DUP4 DUP6 SUB SLT ISZERO PUSH2 0x2E83 JUMPI PUSH2 0x2E82 PUSH2 0x3DA0 JUMP JUMPDEST JUMPDEST PUSH1 0x0 DUP4 ADD CALLDATALOAD PUSH8 0xFFFFFFFFFFFFFFFF DUP2 GT ISZERO PUSH2 0x2EA1 JUMPI PUSH2 0x2EA0 PUSH2 0x3D9B JUMP JUMPDEST JUMPDEST PUSH2 0x2EAD DUP6 DUP3 DUP7 ADD PUSH2 0x2D33 JUMP JUMPDEST SWAP3 POP POP PUSH1 0x20 PUSH2 0x2EBE DUP6 DUP3 DUP7 ADD PUSH2 0x2CB3 JUMP JUMPDEST SWAP2 POP POP SWAP3 POP SWAP3 SWAP1 POP JUMP JUMPDEST PUSH1 0x0 DUP1 PUSH1 0x0 PUSH1 0x40 DUP5 DUP7 SUB SLT ISZERO PUSH2 0x2EE1 JUMPI PUSH2 0x2EE0 PUSH2 0x3DA0 JUMP JUMPDEST JUMPDEST PUSH1 0x0 DUP5 ADD CALLDATALOAD PUSH8 0xFFFFFFFFFFFFFFFF DUP2 GT ISZERO PUSH2 0x2EFF JUMPI PUSH2 0x2EFE PUSH2 0x3D9B JUMP JUMPDEST JUMPDEST PUSH2 0x2F0B DUP7 DUP3 DUP8 ADD PUSH2 0x2D33 JUMP JUMPDEST SWAP4 POP POP PUSH1 0x20 DUP5 ADD CALLDATALOAD PUSH8 0xFFFFFFFFFFFFFFFF DUP2 GT ISZERO PUSH2 0x2F2C JUMPI PUSH2 0x2F2B PUSH2 0x3D9B JUMP JUMPDEST JUMPDEST PUSH2 0x2F38 DUP7 DUP3 DUP8 ADD PUSH2 0x2CDD JUMP JUMPDEST SWAP3 POP SWAP3 POP POP SWAP3 POP SWAP3 POP SWAP3 JUMP JUMPDEST PUSH1 0x0 DUP1 PUSH1 0x40 DUP4 DUP6 SUB SLT ISZERO PUSH2 0x2F5B JUMPI PUSH2 0x2F5A PUSH2 0x3DA0 JUMP JUMPDEST JUMPDEST PUSH1 0x0 DUP4 ADD CALLDATALOAD PUSH8 0xFFFFFFFFFFFFFFFF DUP2 GT ISZERO PUSH2 0x2F79 JUMPI PUSH2 0x2F78 PUSH2 0x3D9B JUMP JUMPDEST JUMPDEST PUSH2 0x2F85 DUP6 DUP3 DUP7 ADD PUSH2 0x2D33 JUMP JUMPDEST SWAP3 POP POP PUSH1 0x20 PUSH2 0x2F96 DUP6 DUP3 DUP7 ADD PUSH2 0x2D61 JUMP JUMPDEST SWAP2 POP POP SWAP3 POP SWAP3 SWAP1 POP JUMP JUMPDEST PUSH1 0x0 DUP1 PUSH1 0x0 DUP1 PUSH1 0x80 DUP6 DUP8 SUB SLT ISZERO PUSH2 0x2FBA JUMPI PUSH2 0x2FB9 PUSH2 0x3DA0 JUMP JUMPDEST JUMPDEST PUSH1 0x0 DUP6 ADD CALLDATALOAD PUSH8 0xFFFFFFFFFFFFFFFF DUP2 GT ISZERO PUSH2 0x2FD8 JUMPI PUSH2 0x2FD7 PUSH2 0x3D9B JUMP JUMPDEST JUMPDEST PUSH2 0x2FE4 DUP8 DUP3 DUP9 ADD PUSH2 0x2D33 JUMP JUMPDEST SWAP5 POP POP PUSH1 0x20 PUSH2 0x2FF5 DUP8 DUP3 DUP9 ADD PUSH2 0x2D61 JUMP JUMPDEST SWAP4 POP POP PUSH1 0x40 PUSH2 0x3006 DUP8 DUP3 DUP9 ADD PUSH2 0x2D61 JUMP JUMPDEST SWAP3 POP POP PUSH1 0x60 PUSH2 0x3017 DUP8 DUP3 DUP9 ADD PUSH2 0x2CC8 JUMP JUMPDEST SWAP2 POP POP SWAP3 SWAP6 SWAP2 SWAP5 POP SWAP3 POP JUMP JUMPDEST PUSH1 0x0 DUP1 PUSH1 0x0 DUP1 PUSH1 0x0 DUP1 PUSH1 0xC0 DUP8 DUP10 SUB SLT ISZERO PUSH2 0x3040 JUMPI PUSH2 0x303F PUSH2 0x3DA0 JUMP JUMPDEST JUMPDEST PUSH1 0x0 DUP8 ADD CALLDATALOAD PUSH8 0xFFFFFFFFFFFFFFFF DUP2 GT ISZERO PUSH2 0x305E JUMPI PUSH2 0x305D PUSH2 0x3D9B JUMP JUMPDEST JUMPDEST PUSH2 0x306A DUP10 DUP3 DUP11 ADD PUSH2 0x2D33 JUMP JUMPDEST SWAP7 POP POP PUSH1 0x20 PUSH2 0x307B DUP10 DUP3 DUP11 ADD PUSH2 0x2D61 JUMP JUMPDEST SWAP6 POP POP PUSH1 0x40 PUSH2 0x308C DUP10 DUP3 DUP11 ADD PUSH2 0x2D61 JUMP JUMPDEST SWAP5 POP POP PUSH1 0x60 PUSH2 0x309D DUP10 DUP3 DUP11 ADD PUSH2 0x2CC8 JUMP JUMPDEST SWAP4 POP POP PUSH1 0x80 DUP8 ADD CALLDATALOAD PUSH8 0xFFFFFFFFFFFFFFFF DUP2 GT ISZERO PUSH2 0x30BE JUMPI PUSH2 0x30BD PUSH2 0x3D9B JUMP JUMPDEST JUMPDEST PUSH2 0x30CA DUP10 DUP3 DUP11 ADD PUSH2 0x2D33 JUMP JUMPDEST SWAP3 POP POP PUSH1 0xA0 DUP8 ADD CALLDATALOAD PUSH8 0xFFFFFFFFFFFFFFFF DUP2 GT ISZERO PUSH2 0x30EB JUMPI PUSH2 0x30EA PUSH2 0x3D9B JUMP JUMPDEST JUMPDEST PUSH2 0x30F7 DUP10 DUP3 DUP11 ADD PUSH2 0x2D33 JUMP JUMPDEST SWAP2 POP POP SWAP3 SWAP6 POP SWAP3 SWAP6 POP SWAP3 SWAP6 JUMP JUMPDEST PUSH1 0x0 PUSH2 0x3110 DUP4 DUP4 PUSH2 0x3552 JUMP JUMPDEST PUSH1 0x60 DUP4 ADD SWAP1 POP SWAP3 SWAP2 POP POP JUMP JUMPDEST PUSH2 0x3125 DUP2 PUSH2 0x3B6E JUMP JUMPDEST DUP3 MSTORE POP POP JUMP JUMPDEST PUSH2 0x3134 DUP2 PUSH2 0x3B6E JUMP JUMPDEST DUP3 MSTORE POP POP JUMP JUMPDEST PUSH1 0x0 PUSH2 0x3145 DUP3 PUSH2 0x3A2C JUMP JUMPDEST PUSH2 0x314F DUP2 DUP6 PUSH2 0x3A4F JUMP JUMPDEST SWAP4 POP PUSH2 0x315A DUP4 PUSH2 0x3A1C JUMP JUMPDEST DUP1 PUSH1 0x0 JUMPDEST DUP4 DUP2 LT ISZERO PUSH2 0x318B JUMPI DUP2 MLOAD PUSH2 0x3172 DUP9 DUP3 PUSH2 0x3104 JUMP JUMPDEST SWAP8 POP PUSH2 0x317D DUP4 PUSH2 0x3A42 JUMP JUMPDEST SWAP3 POP POP PUSH1 0x1 DUP2 ADD SWAP1 POP PUSH2 0x315E JUMP JUMPDEST POP DUP6 SWAP4 POP POP POP POP SWAP3 SWAP2 POP POP JUMP JUMPDEST PUSH2 0x31A1 DUP2 PUSH2 0x3B80 JUMP JUMPDEST DUP3 MSTORE POP POP JUMP JUMPDEST PUSH2 0x31B0 DUP2 PUSH2 0x3B80 JUMP JUMPDEST DUP3 MSTORE POP POP JUMP JUMPDEST PUSH2 0x31BF DUP2 PUSH2 0x3B8C JUMP JUMPDEST DUP3 MSTORE POP POP JUMP JUMPDEST PUSH2 0x31CE DUP2 PUSH2 0x3B8C JUMP JUMPDEST DUP3 MSTORE POP POP JUMP JUMPDEST PUSH1 0x0 PUSH2 0x31E0 DUP4 DUP6 PUSH2 0x3A82 JUMP JUMPDEST SWAP4 POP PUSH2 0x31ED DUP4 DUP6 DUP5 PUSH2 0x3BCD JUMP JUMPDEST DUP3 DUP5 ADD SWAP1 POP SWAP4 SWAP3 POP POP POP JUMP JUMPDEST PUSH1 0x0 PUSH2 0x3204 DUP3 PUSH2 0x3A37 JUMP JUMPDEST PUSH2 0x320E DUP2 DUP6 PUSH2 0x3A60 JUMP JUMPDEST SWAP4 POP PUSH2 0x321E DUP2 DUP6 PUSH1 0x20 DUP7 ADD PUSH2 0x3BDC JUMP JUMPDEST PUSH2 0x3227 DUP2 PUSH2 0x3DA5 JUMP JUMPDEST DUP5 ADD SWAP2 POP POP SWAP3 SWAP2 POP POP JUMP JUMPDEST PUSH1 0x0 PUSH2 0x323D DUP3 PUSH2 0x3A37 JUMP JUMPDEST PUSH2 0x3247 DUP2 DUP6 PUSH2 0x3A71 JUMP JUMPDEST SWAP4 POP PUSH2 0x3257 DUP2 DUP6 PUSH1 0x20 DUP7 ADD PUSH2 0x3BDC JUMP JUMPDEST PUSH2 0x3260 DUP2 PUSH2 0x3DA5 JUMP JUMPDEST DUP5 ADD SWAP2 POP POP SWAP3 SWAP2 POP POP JUMP JUMPDEST PUSH1 0x0 PUSH2 0x3276 DUP3 PUSH2 0x3A37 JUMP JUMPDEST PUSH2 0x3280 DUP2 DUP6 PUSH2 0x3A82 JUMP JUMPDEST SWAP4 POP PUSH2 0x3290 DUP2 DUP6 PUSH1 0x20 DUP7 ADD PUSH2 0x3BDC JUMP JUMPDEST DUP1 DUP5 ADD SWAP2 POP POP SWAP3 SWAP2 POP POP JUMP JUMPDEST PUSH1 0x0 PUSH2 0x32A9 PUSH1 0x1F DUP4 PUSH2 0x3A71 JUMP JUMPDEST SWAP2 POP PUSH2 0x32B4 DUP3 PUSH2 0x3DB6 JUMP JUMPDEST PUSH1 0x20 DUP3 ADD SWAP1 POP SWAP2 SWAP1 POP JUMP JUMPDEST PUSH1 0x0 PUSH2 0x32CC PUSH1 0x19 DUP4 PUSH2 0x3A71 JUMP JUMPDEST SWAP2 POP PUSH2 0x32D7 DUP3 PUSH2 0x3DDF JUMP JUMPDEST PUSH1 0x20 DUP3 ADD SWAP1 POP SWAP2 SWAP1 POP JUMP JUMPDEST PUSH1 0x0 PUSH2 0x32EF PUSH1 0x26 DUP4 PUSH2 0x3A71 JUMP JUMPDEST SWAP2 POP PUSH2 0x32FA DUP3 PUSH2 0x3E08 JUMP JUMPDEST PUSH1 0x40 DUP3 ADD SWAP1 POP SWAP2 SWAP1 POP JUMP JUMPDEST PUSH1 0x0 PUSH2 0x3312 PUSH1 0x1C DUP4 PUSH2 0x3A71 JUMP JUMPDEST SWAP2 POP PUSH2 0x331D DUP3 PUSH2 0x3E57 JUMP JUMPDEST PUSH1 0x20 DUP3 ADD SWAP1 POP SWAP2 SWAP1 POP JUMP JUMPDEST PUSH1 0x0 PUSH2 0x3335 PUSH1 0x15 DUP4 PUSH2 0x3A71 JUMP JUMPDEST SWAP2 POP PUSH2 0x3340 DUP3 PUSH2 0x3E80 JUMP JUMPDEST PUSH1 0x20 DUP3 ADD SWAP1 POP SWAP2 SWAP1 POP JUMP JUMPDEST PUSH1 0x0 PUSH2 0x3358 PUSH1 0x1E DUP4 PUSH2 0x3A71 JUMP JUMPDEST SWAP2 POP PUSH2 0x3363 DUP3 PUSH2 0x3EA9 JUMP JUMPDEST PUSH1 0x20 DUP3 ADD SWAP1 POP SWAP2 SWAP1 POP JUMP JUMPDEST PUSH1 0x0 PUSH2 0x337B PUSH1 0x24 DUP4 PUSH2 0x3A71 JUMP JUMPDEST SWAP2 POP PUSH2 0x3386 DUP3 PUSH2 0x3ED2 JUMP JUMPDEST PUSH1 0x40 DUP3 ADD SWAP1 POP SWAP2 SWAP1 POP JUMP JUMPDEST PUSH1 0x0 PUSH2 0x339E PUSH1 0x28 DUP4 PUSH2 0x3A71 JUMP JUMPDEST SWAP2 POP PUSH2 0x33A9 DUP3 PUSH2 0x3F21 JUMP JUMPDEST PUSH1 0x40 DUP3 ADD SWAP1 POP SWAP2 SWAP1 POP JUMP JUMPDEST PUSH1 0x0 PUSH2 0x33C1 PUSH1 0x14 DUP4 PUSH2 0x3A71 JUMP JUMPDEST SWAP2 POP PUSH2 0x33CC DUP3 PUSH2 0x3F70 JUMP JUMPDEST PUSH1 0x20 DUP3 ADD SWAP1 POP SWAP2 SWAP1 POP JUMP JUMPDEST PUSH1 0x0 PUSH2 0x33E4 PUSH1 0x20 DUP4 PUSH2 0x3A71 JUMP JUMPDEST SWAP2 POP PUSH2 0x33EF DUP3 PUSH2 0x3F99 JUMP JUMPDEST PUSH1 0x20 DUP3 ADD SWAP1 POP SWAP2 SWAP1 POP JUMP JUMPDEST PUSH1 0x0 PUSH2 0x3407 PUSH1 0x12 DUP4 PUSH2 0x3A71 JUMP JUMPDEST SWAP2 POP PUSH2 0x3412 DUP3 PUSH2 0x3FC2 JUMP JUMPDEST PUSH1 0x20 DUP3 ADD SWAP1 POP SWAP2 SWAP1 POP JUMP JUMPDEST PUSH1 0x0 PUSH2 0x342A PUSH1 0x25 DUP4 PUSH2 0x3A71 JUMP JUMPDEST SWAP2 POP PUSH2 0x3435 DUP3 PUSH2 0x3FEB JUMP JUMPDEST PUSH1 0x40 DUP3 ADD SWAP1 POP SWAP2 SWAP1 POP JUMP JUMPDEST PUSH1 0x0 PUSH2 0x180 DUP4 ADD PUSH1 0x0 DUP4 ADD MLOAD DUP5 DUP3 SUB PUSH1 0x0 DUP7 ADD MSTORE PUSH2 0x345E DUP3 DUP3 PUSH2 0x31F9 JUMP JUMPDEST SWAP2 POP POP PUSH1 0x20 DUP4 ADD MLOAD PUSH2 0x3473 PUSH1 0x20 DUP7 ADD DUP3 PUSH2 0x311C JUMP JUMPDEST POP PUSH1 0x40 DUP4 ADD MLOAD PUSH2 0x3486 PUSH1 0x40 DUP7 ADD DUP3 PUSH2 0x311C JUMP JUMPDEST POP PUSH1 0x60 DUP4 ADD MLOAD PUSH2 0x3499 PUSH1 0x60 DUP7 ADD DUP3 PUSH2 0x3594 JUMP JUMPDEST POP PUSH1 0x80 DUP4 ADD MLOAD PUSH2 0x34AC PUSH1 0x80 DUP7 ADD DUP3 PUSH2 0x3594 JUMP JUMPDEST POP PUSH1 0xA0 DUP4 ADD MLOAD PUSH2 0x34BF PUSH1 0xA0 DUP7 ADD DUP3 PUSH2 0x3594 JUMP JUMPDEST POP PUSH1 0xC0 DUP4 ADD MLOAD PUSH2 0x34D2 PUSH1 0xC0 DUP7 ADD DUP3 PUSH2 0x3594 JUMP JUMPDEST POP PUSH1 0xE0 DUP4 ADD MLOAD PUSH2 0x34E5 PUSH1 0xE0 DUP7 ADD DUP3 PUSH2 0x3198 JUMP JUMPDEST POP PUSH2 0x100 DUP4 ADD MLOAD PUSH2 0x34FA PUSH2 0x100 DUP7 ADD DUP3 PUSH2 0x31B6 JUMP JUMPDEST POP PUSH2 0x120 DUP4 ADD MLOAD DUP5 DUP3 SUB PUSH2 0x120 DUP7 ADD MSTORE PUSH2 0x3514 DUP3 DUP3 PUSH2 0x31F9 JUMP JUMPDEST SWAP2 POP POP PUSH2 0x140 DUP4 ADD MLOAD DUP5 DUP3 SUB PUSH2 0x140 DUP7 ADD MSTORE PUSH2 0x3530 DUP3 DUP3 PUSH2 0x31F9 JUMP JUMPDEST SWAP2 POP POP PUSH2 0x160 DUP4 ADD MLOAD PUSH2 0x3547 PUSH2 0x160 DUP7 ADD DUP3 PUSH2 0x31B6 JUMP JUMPDEST POP DUP1 SWAP2 POP POP SWAP3 SWAP2 POP POP JUMP JUMPDEST PUSH1 0x60 DUP3 ADD PUSH1 0x0 DUP3 ADD MLOAD PUSH2 0x3568 PUSH1 0x0 DUP6 ADD DUP3 PUSH2 0x3198 JUMP JUMPDEST POP PUSH1 0x20 DUP3 ADD MLOAD PUSH2 0x357B PUSH1 0x20 DUP6 ADD DUP3 PUSH2 0x3198 JUMP JUMPDEST POP PUSH1 0x40 DUP3 ADD MLOAD PUSH2 0x358E PUSH1 0x40 DUP6 ADD DUP3 PUSH2 0x311C JUMP JUMPDEST POP POP POP POP JUMP JUMPDEST PUSH2 0x359D DUP2 PUSH2 0x3BB6 JUMP JUMPDEST DUP3 MSTORE POP POP JUMP JUMPDEST PUSH2 0x35AC DUP2 PUSH2 0x3BB6 JUMP JUMPDEST DUP3 MSTORE POP POP JUMP JUMPDEST PUSH1 0x0 PUSH2 0x35BF DUP3 DUP5 DUP7 PUSH2 0x31D4 JUMP JUMPDEST SWAP2 POP DUP2 SWAP1 POP SWAP4 SWAP3 POP POP POP JUMP JUMPDEST PUSH1 0x0 PUSH2 0x35D7 DUP3 DUP5 PUSH2 0x326B JUMP JUMPDEST SWAP2 POP DUP2 SWAP1 POP SWAP3 SWAP2 POP POP JUMP JUMPDEST PUSH1 0x0 PUSH1 0x20 DUP3 ADD SWAP1 POP PUSH2 0x35F7 PUSH1 0x0 DUP4 ADD DUP5 PUSH2 0x312B JUMP JUMPDEST SWAP3 SWAP2 POP POP JUMP JUMPDEST PUSH1 0x0 PUSH1 0x20 DUP3 ADD SWAP1 POP PUSH2 0x3612 PUSH1 0x0 DUP4 ADD DUP5 PUSH2 0x31A7 JUMP JUMPDEST SWAP3 SWAP2 POP POP JUMP JUMPDEST PUSH1 0x0 PUSH1 0x60 DUP3 ADD SWAP1 POP PUSH2 0x362D PUSH1 0x0 DUP4 ADD DUP7 PUSH2 0x31A7 JUMP JUMPDEST PUSH2 0x363A PUSH1 0x20 DUP4 ADD DUP6 PUSH2 0x31A7 JUMP JUMPDEST PUSH2 0x3647 PUSH1 0x40 DUP4 ADD DUP5 PUSH2 0x312B JUMP JUMPDEST SWAP5 SWAP4 POP POP POP POP JUMP JUMPDEST PUSH1 0x0 PUSH1 0x60 DUP3 ADD SWAP1 POP PUSH2 0x3664 PUSH1 0x0 DUP4 ADD DUP7 PUSH2 0x31A7 JUMP JUMPDEST PUSH2 0x3671 PUSH1 0x20 DUP4 ADD DUP6 PUSH2 0x31A7 JUMP JUMPDEST PUSH2 0x367E PUSH1 0x40 DUP4 ADD DUP5 PUSH2 0x31A7 JUMP JUMPDEST SWAP5 SWAP4 POP POP POP POP JUMP JUMPDEST PUSH1 0x0 PUSH1 0x80 DUP3 ADD SWAP1 POP PUSH2 0x369B PUSH1 0x0 DUP4 ADD DUP8 PUSH2 0x31C5 JUMP JUMPDEST DUP2 DUP2 SUB PUSH1 0x20 DUP4 ADD MSTORE PUSH2 0x36AD DUP2 DUP7 PUSH2 0x3232 JUMP JUMPDEST SWAP1 POP PUSH2 0x36BC PUSH1 0x40 DUP4 ADD DUP6 PUSH2 0x35A3 JUMP JUMPDEST DUP2 DUP2 SUB PUSH1 0x60 DUP4 ADD MSTORE PUSH2 0x36CE DUP2 DUP5 PUSH2 0x313A JUMP JUMPDEST SWAP1 POP SWAP6 SWAP5 POP POP POP POP POP JUMP JUMPDEST PUSH1 0x0 PUSH1 0x20 DUP3 ADD SWAP1 POP DUP2 DUP2 SUB PUSH1 0x0 DUP4 ADD MSTORE PUSH2 0x36F3 DUP2 DUP5 PUSH2 0x3232 JUMP JUMPDEST SWAP1 POP SWAP3 SWAP2 POP POP JUMP JUMPDEST PUSH1 0x0 PUSH2 0x180 DUP3 ADD SWAP1 POP DUP2 DUP2 SUB PUSH1 0x0 DUP4 ADD MSTORE PUSH2 0x3716 DUP2 DUP16 PUSH2 0x3232 JUMP JUMPDEST SWAP1 POP PUSH2 0x3725 PUSH1 0x20 DUP4 ADD DUP15 PUSH2 0x312B JUMP JUMPDEST PUSH2 0x3732 PUSH1 0x40 DUP4 ADD DUP14 PUSH2 0x312B JUMP JUMPDEST PUSH2 0x373F PUSH1 0x60 DUP4 ADD DUP13 PUSH2 0x35A3 JUMP JUMPDEST PUSH2 0x374C PUSH1 0x80 DUP4 ADD DUP12 PUSH2 0x35A3 JUMP JUMPDEST PUSH2 0x3759 PUSH1 0xA0 DUP4 ADD DUP11 PUSH2 0x35A3 JUMP JUMPDEST PUSH2 0x3766 PUSH1 0xC0 DUP4 ADD DUP10 PUSH2 0x35A3 JUMP JUMPDEST PUSH2 0x3773 PUSH1 0xE0 DUP4 ADD DUP9 PUSH2 0x31A7 JUMP JUMPDEST PUSH2 0x3781 PUSH2 0x100 DUP4 ADD DUP8 PUSH2 0x31C5 JUMP JUMPDEST DUP2 DUP2 SUB PUSH2 0x120 DUP4 ADD MSTORE PUSH2 0x3794 DUP2 DUP7 PUSH2 0x3232 JUMP JUMPDEST SWAP1 POP DUP2 DUP2 SUB PUSH2 0x140 DUP4 ADD MSTORE PUSH2 0x37A9 DUP2 DUP6 PUSH2 0x3232 JUMP JUMPDEST SWAP1 POP PUSH2 0x37B9 PUSH2 0x160 DUP4 ADD DUP5 PUSH2 0x31C5 JUMP JUMPDEST SWAP14 SWAP13 POP POP POP POP POP POP POP POP POP POP POP POP POP JUMP JUMPDEST PUSH1 0x0 PUSH1 0xA0 DUP3 ADD SWAP1 POP DUP2 DUP2 SUB PUSH1 0x0 DUP4 ADD MSTORE PUSH2 0x37E4 DUP2 DUP9 PUSH2 0x3232 JUMP JUMPDEST SWAP1 POP PUSH2 0x37F3 PUSH1 0x20 DUP4 ADD DUP8 PUSH2 0x35A3 JUMP JUMPDEST PUSH2 0x3800 PUSH1 0x40 DUP4 ADD DUP7 PUSH2 0x312B JUMP JUMPDEST PUSH2 0x380D PUSH1 0x60 DUP4 ADD DUP6 PUSH2 0x35A3 JUMP JUMPDEST PUSH2 0x381A PUSH1 0x80 DUP4 ADD DUP5 PUSH2 0x35A3 JUMP JUMPDEST SWAP7 SWAP6 POP POP POP POP POP POP JUMP JUMPDEST PUSH1 0x0 PUSH1 0x20 DUP3 ADD SWAP1 POP DUP2 DUP2 SUB PUSH1 0x0 DUP4 ADD MSTORE PUSH2 0x383D DUP2 PUSH2 0x329C JUMP JUMPDEST SWAP1 POP SWAP2 SWAP1 POP JUMP JUMPDEST PUSH1 0x0 PUSH1 0x20 DUP3 ADD SWAP1 POP DUP2 DUP2 SUB PUSH1 0x0 DUP4 ADD MSTORE PUSH2 0x385D DUP2 PUSH2 0x32BF JUMP JUMPDEST SWAP1 POP SWAP2 SWAP1 POP JUMP JUMPDEST PUSH1 0x0 PUSH1 0x20 DUP3 ADD SWAP1 POP DUP2 DUP2 SUB PUSH1 0x0 DUP4 ADD MSTORE PUSH2 0x387D DUP2 PUSH2 0x32E2 JUMP JUMPDEST SWAP1 POP SWAP2 SWAP1 POP JUMP JUMPDEST PUSH1 0x0 PUSH1 0x20 DUP3 ADD SWAP1 POP DUP2 DUP2 SUB PUSH1 0x0 DUP4 ADD MSTORE PUSH2 0x389D DUP2 PUSH2 0x3305 JUMP JUMPDEST SWAP1 POP SWAP2 SWAP1 POP JUMP JUMPDEST PUSH1 0x0 PUSH1 0x20 DUP3 ADD SWAP1 POP DUP2 DUP2 SUB PUSH1 0x0 DUP4 ADD MSTORE PUSH2 0x38BD DUP2 PUSH2 0x3328 JUMP JUMPDEST SWAP1 POP SWAP2 SWAP1 POP JUMP JUMPDEST PUSH1 0x0 PUSH1 0x20 DUP3 ADD SWAP1 POP DUP2 DUP2 SUB PUSH1 0x0 DUP4 ADD MSTORE PUSH2 0x38DD DUP2 PUSH2 0x334B JUMP JUMPDEST SWAP1 POP SWAP2 SWAP1 POP JUMP JUMPDEST PUSH1 0x0 PUSH1 0x20 DUP3 ADD SWAP1 POP DUP2 DUP2 SUB PUSH1 0x0 DUP4 ADD MSTORE PUSH2 0x38FD DUP2 PUSH2 0x336E JUMP JUMPDEST SWAP1 POP SWAP2 SWAP1 POP JUMP JUMPDEST PUSH1 0x0 PUSH1 0x20 DUP3 ADD SWAP1 POP DUP2 DUP2 SUB PUSH1 0x0 DUP4 ADD MSTORE PUSH2 0x391D DUP2 PUSH2 0x3391 JUMP JUMPDEST SWAP1 POP SWAP2 SWAP1 POP JUMP JUMPDEST PUSH1 0x0 PUSH1 0x20 DUP3 ADD SWAP1 POP DUP2 DUP2 SUB PUSH1 0x0 DUP4 ADD MSTORE PUSH2 0x393D DUP2 PUSH2 0x33B4 JUMP JUMPDEST SWAP1 POP SWAP2 SWAP1 POP JUMP JUMPDEST PUSH1 0x0 PUSH1 0x20 DUP3 ADD SWAP1 POP DUP2 DUP2 SUB PUSH1 0x0 DUP4 ADD MSTORE PUSH2 0x395D DUP2 PUSH2 0x33D7 JUMP JUMPDEST SWAP1 POP SWAP2 SWAP1 POP JUMP JUMPDEST PUSH1 0x0 PUSH1 0x20 DUP3 ADD SWAP1 POP DUP2 DUP2 SUB PUSH1 0x0 DUP4 ADD MSTORE PUSH2 0x397D DUP2 PUSH2 0x33FA JUMP JUMPDEST SWAP1 POP SWAP2 SWAP1 POP JUMP JUMPDEST PUSH1 0x0 PUSH1 0x20 DUP3 ADD SWAP1 POP DUP2 DUP2 SUB PUSH1 0x0 DUP4 ADD MSTORE PUSH2 0x399D DUP2 PUSH2 0x341D JUMP JUMPDEST SWAP1 POP SWAP2 SWAP1 POP JUMP JUMPDEST PUSH1 0x0 PUSH1 0x20 DUP3 ADD SWAP1 POP DUP2 DUP2 SUB PUSH1 0x0 DUP4 ADD MSTORE PUSH2 0x39BE DUP2 DUP5 PUSH2 0x3440 JUMP JUMPDEST SWAP1 POP SWAP3 SWAP2 POP POP JUMP JUMPDEST PUSH1 0x0 PUSH2 0x39D0 PUSH2 0x39E1 JUMP JUMPDEST SWAP1 POP PUSH2 0x39DC DUP3 DUP3 PUSH2 0x3C41 JUMP JUMPDEST SWAP2 SWAP1 POP JUMP JUMPDEST PUSH1 0x0 PUSH1 0x40 MLOAD SWAP1 POP SWAP1 JUMP JUMPDEST PUSH1 0x0 PUSH8 0xFFFFFFFFFFFFFFFF DUP3 GT ISZERO PUSH2 0x3A06 JUMPI PUSH2 0x3A05 PUSH2 0x3D58 JUMP JUMPDEST JUMPDEST PUSH2 0x3A0F DUP3 PUSH2 0x3DA5 JUMP JUMPDEST SWAP1 POP PUSH1 0x20 DUP2 ADD SWAP1 POP SWAP2 SWAP1 POP JUMP JUMPDEST PUSH1 0x0 DUP2 SWAP1 POP PUSH1 0x20 DUP3 ADD SWAP1 POP SWAP2 SWAP1 POP JUMP JUMPDEST PUSH1 0x0 DUP2 MLOAD SWAP1 POP SWAP2 SWAP1 POP JUMP JUMPDEST PUSH1 0x0 DUP2 MLOAD SWAP1 POP SWAP2 SWAP1 POP JUMP JUMPDEST PUSH1 0x0 PUSH1 0x20 DUP3 ADD SWAP1 POP SWAP2 SWAP1 POP JUMP JUMPDEST PUSH1 0x0 DUP3 DUP3 MSTORE PUSH1 0x20 DUP3 ADD SWAP1 POP SWAP3 SWAP2 POP POP JUMP JUMPDEST PUSH1 0x0 DUP3 DUP3 MSTORE PUSH1 0x20 DUP3 ADD SWAP1 POP SWAP3 SWAP2 POP POP JUMP JUMPDEST PUSH1 0x0 DUP3 DUP3 MSTORE PUSH1 0x20 DUP3 ADD SWAP1 POP SWAP3 SWAP2 POP POP JUMP JUMPDEST PUSH1 0x0 DUP2 SWAP1 POP SWAP3 SWAP2 POP POP JUMP JUMPDEST PUSH1 0x0 PUSH2 0x3A98 DUP3 PUSH2 0x3BB6 JUMP JUMPDEST SWAP2 POP PUSH2 0x3AA3 DUP4 PUSH2 0x3BB6 JUMP JUMPDEST SWAP3 POP DUP3 PUSH32 0xFFFFFFFFFFFFFFFFFFFFFFFFFFFFFFFFFFFFFFFFFFFFFFFFFFFFFFFFFFFFFFFF SUB DUP3 GT ISZERO PUSH2 0x3AD8 JUMPI PUSH2 0x3AD7 PUSH2 0x3C9C JUMP JUMPDEST JUMPDEST DUP3 DUP3 ADD SWAP1 POP SWAP3 SWAP2 POP POP JUMP JUMPDEST PUSH1 0x0 PUSH2 0x3AEE DUP3 PUSH2 0x3BB6 JUMP JUMPDEST SWAP2 POP PUSH2 0x3AF9 DUP4 PUSH2 0x3BB6 JUMP JUMPDEST SWAP3 POP DUP3 PUSH2 0x3B09 JUMPI PUSH2 0x3B08 PUSH2 0x3CCB JUMP JUMPDEST JUMPDEST DUP3 DUP3 DIV SWAP1 POP SWAP3 SWAP2 POP POP JUMP JUMPDEST PUSH1 0x0 PUSH2 0x3B1F DUP3 PUSH2 0x3BB6 JUMP JUMPDEST SWAP2 POP PUSH2 0x3B2A DUP4 PUSH2 0x3BB6 JUMP JUMPDEST SWAP3 POP DUP2 PUSH32 0xFFFFFFFFFFFFFFFFFFFFFFFFFFFFFFFFFFFFFFFFFFFFFFFFFFFFFFFFFFFFFFFF DIV DUP4 GT DUP3 ISZERO ISZERO AND ISZERO PUSH2 0x3B63 JUMPI PUSH2 0x3B62 PUSH2 0x3C9C JUMP JUMPDEST JUMPDEST DUP3 DUP3 MUL SWAP1 POP SWAP3 SWAP2 POP POP JUMP JUMPDEST PUSH1 0x0 PUSH2 0x3B79 DUP3 PUSH2 0x3B96 JUMP JUMPDEST SWAP1 POP SWAP2 SWAP1 POP JUMP JUMPDEST PUSH1 0x0 DUP2 ISZERO ISZERO SWAP1 POP SWAP2 SWAP1 POP JUMP JUMPDEST PUSH1 0x0 DUP2 SWAP1 POP SWAP2 SWAP1 POP JUMP JUMPDEST PUSH1 0x0 PUSH20 0xFFFFFFFFFFFFFFFFFFFFFFFFFFFFFFFFFFFFFFFF DUP3 AND SWAP1 POP SWAP2 SWAP1 POP JUMP JUMPDEST PUSH1 0x0 DUP2 SWAP1 POP SWAP2 SWAP1 POP JUMP JUMPDEST PUSH1 0x0 PUSH1 0xFF DUP3 AND SWAP1 POP SWAP2 SWAP1 POP JUMP JUMPDEST DUP3 DUP2 DUP4 CALLDATACOPY PUSH1 0x0 DUP4 DUP4 ADD MSTORE POP POP POP JUMP JUMPDEST PUSH1 0x0 JUMPDEST DUP4 DUP2 LT ISZERO PUSH2 0x3BFA JUMPI DUP1 DUP3 ADD MLOAD DUP2 DUP5 ADD MSTORE PUSH1 0x20 DUP2 ADD SWAP1 POP PUSH2 0x3BDF JUMP JUMPDEST DUP4 DUP2 GT ISZERO PUSH2 0x3C09 JUMPI PUSH1 0x0 DUP5 DUP5 ADD MSTORE JUMPDEST POP POP POP POP JUMP JUMPDEST PUSH1 0x0 PUSH1 0x2 DUP3 DIV SWAP1 POP PUSH1 0x1 DUP3 AND DUP1 PUSH2 0x3C27 JUMPI PUSH1 0x7F DUP3 AND SWAP2 POP JUMPDEST PUSH1 0x20 DUP3 LT DUP2 EQ ISZERO PUSH2 0x3C3B JUMPI PUSH2 0x3C3A PUSH2 0x3CFA JUMP JUMPDEST JUMPDEST POP SWAP2 SWAP1 POP JUMP JUMPDEST PUSH2 0x3C4A DUP3 PUSH2 0x3DA5 JUMP JUMPDEST DUP2 ADD DUP2 DUP2 LT PUSH8 0xFFFFFFFFFFFFFFFF DUP3 GT OR ISZERO PUSH2 0x3C69 JUMPI PUSH2 0x3C68 PUSH2 0x3D58 JUMP JUMPDEST JUMPDEST DUP1 PUSH1 0x40 MSTORE POP POP POP JUMP JUMPDEST PUSH1 0x0 PUSH2 0x3C7D DUP3 PUSH2 0x3BC0 JUMP JUMPDEST SWAP2 POP PUSH1 0xFF DUP3 EQ ISZERO PUSH2 0x3C91 JUMPI PUSH2 0x3C90 PUSH2 0x3C9C JUMP JUMPDEST JUMPDEST PUSH1 0x1 DUP3 ADD SWAP1 POP SWAP2 SWAP1 POP JUMP JUMPDEST PUSH32 0x4E487B7100000000000000000000000000000000000000000000000000000000 PUSH1 0x0 MSTORE PUSH1 0x11 PUSH1 0x4 MSTORE PUSH1 0x24 PUSH1 0x0 REVERT JUMPDEST PUSH32 0x4E487B7100000000000000000000000000000000000000000000000000000000 PUSH1 0x0 MSTORE PUSH1 0x12 PUSH1 0x4 MSTORE PUSH1 0x24 PUSH1 0x0 REVERT JUMPDEST PUSH32 0x4E487B7100000000000000000000000000000000000000000000000000000000 PUSH1 0x0 MSTORE PUSH1 0x22 PUSH1 0x4 MSTORE PUSH1 0x24 PUSH1 0x0 REVERT JUMPDEST PUSH32 0x4E487B7100000000000000000000000000000000000000000000000000000000 PUSH1 0x0 MSTORE PUSH1 0x32 PUSH1 0x4 MSTORE PUSH1 0x24 PUSH1 0x0 REVERT JUMPDEST PUSH32 0x4E487B7100000000000000000000000000000000000000000000000000000000 PUSH1 0x0 MSTORE PUSH1 0x41 PUSH1 0x4 MSTORE PUSH1 0x24 PUSH1 0x0 REVERT JUMPDEST PUSH1 0x0 DUP1 REVERT JUMPDEST PUSH1 0x0 DUP1 REVERT JUMPDEST PUSH1 0x0 DUP1 REVERT JUMPDEST PUSH1 0x0 DUP1 REVERT JUMPDEST PUSH1 0x0 DUP1 REVERT JUMPDEST PUSH1 0x0 DUP1 REVERT JUMPDEST PUSH1 0x0 PUSH1 0x1F NOT PUSH1 0x1F DUP4 ADD AND SWAP1 POP SWAP2 SWAP1 POP JUMP JUMPDEST PUSH32 0x526563697069656E7420697320616C7265616479207265676973746572656400 PUSH1 0x0 DUP3 ADD MSTORE POP JUMP JUMPDEST PUSH32 0x50726F706F73616C20616C726561647920637265617465642100000000000000 PUSH1 0x0 DUP3 ADD MSTORE POP JUMP JUMPDEST PUSH32 0x596F75206172656E277420617574686F72697A6520746F20636F6D70696C6520 PUSH1 0x0 DUP3 ADD MSTORE PUSH32 0x42756E646C650000000000000000000000000000000000000000000000000000 PUSH1 0x20 DUP3 ADD MSTORE POP JUMP JUMPDEST PUSH32 0x596F7520616C72656164792073656E74206120726573706F6E73652E00000000 PUSH1 0x0 DUP3 ADD MSTORE POP JUMP JUMPDEST PUSH32 0x496E69746961746F722063616E277420766F7465210000000000000000000000 PUSH1 0x0 DUP3 ADD MSTORE POP JUMP JUMPDEST PUSH32 0x596F7520617265206E6F74207265676973746572656420746F20766F74650000 PUSH1 0x0 DUP3 ADD MSTORE POP JUMP JUMPDEST PUSH32 0x50726F706F73616C206861732072656163686564206974732065787069727920 PUSH1 0x0 DUP3 ADD MSTORE PUSH32 0x6461746500000000000000000000000000000000000000000000000000000000 PUSH1 0x20 DUP3 ADD MSTORE POP JUMP JUMPDEST PUSH32 0x4F6E6C7920696E69746961746F722063616E2072656769737465722061207265 PUSH1 0x0 DUP3 ADD MSTORE PUSH32 0x63697069656E742E000000000000000000000000000000000000000000000000 PUSH1 0x20 DUP3 ADD MSTORE POP JUMP JUMPDEST PUSH32 0x596F75206172656E277420496E69746961746F72000000000000000000000000 PUSH1 0x0 DUP3 ADD MSTORE POP JUMP JUMPDEST PUSH32 0x5665726469637420686173206E6F74206265656E207265616368656420796574 PUSH1 0x0 DUP3 ADD MSTORE POP JUMP JUMPDEST PUSH32 0x566F74696E672068617320657870697265640000000000000000000000000000 PUSH1 0x0 DUP3 ADD MSTORE POP JUMP JUMPDEST PUSH32 0x436F6E73656E7375732068617320616C7265616479206265656E2063616C6375 PUSH1 0x0 DUP3 ADD MSTORE PUSH32 0x6C61746564000000000000000000000000000000000000000000000000000000 PUSH1 0x20 DUP3 ADD MSTORE POP JUMP JUMPDEST PUSH2 0x4043 DUP2 PUSH2 0x3B6E JUMP JUMPDEST DUP2 EQ PUSH2 0x404E JUMPI PUSH1 0x0 DUP1 REVERT JUMPDEST POP JUMP JUMPDEST PUSH2 0x405A DUP2 PUSH2 0x3B8C JUMP JUMPDEST DUP2 EQ PUSH2 0x4065 JUMPI PUSH1 0x0 DUP1 REVERT JUMPDEST POP JUMP JUMPDEST PUSH2 0x4071 DUP2 PUSH2 0x3BB6 JUMP JUMPDEST DUP2 EQ PUSH2 0x407C JUMPI PUSH1 0x0 DUP1 REVERT JUMPDEST POP JUMP INVALID LOG2 PUSH5 0x6970667358 0x22 SLT KECCAK256 0x5F 0xAA PUSH17 0x3C49B07CD908AA8BFF0371BA4040FB9339 0xBE 0x24 BALANCE PUSH19 0x23FB55A185BEBBCA64736F6C63430008070033 "
				},
				"gasEstimates": {
					"creation": {
						"codeDepositCost": "3313000",
						"executionCost": "3683",
						"totalCost": "3316683"
					},
					"external": {
						"Consensus(string)": "infinite",
						"RegisterVoter(address,string)": "infinite",
						"Vote(string,string)": "infinite",
						"Voters(string,uint256)": "infinite",
						"businessProposals(string)": "infinite",
						"checkConsistency(string,uint256,uint256,bytes32)": "infinite",
						"createContract(string,uint256,uint256,bytes32,string,string)": "infinite",
						"getIsCompiled(string)": "infinite",
						"getIsCreated(string)": "infinite",
						"getParameters(string)": "infinite",
						"getParameters2(address,string)": "infinite",
						"getValues(string)": "infinite",
						"keys(string,uint256)": "infinite",
						"retrieve_bundle(string)": "infinite",
						"voter_maps(string,address)": "infinite"
					}
				},
				"methodIdentifiers": {
					"Consensus(string)": "883a9673",
					"RegisterVoter(address,string)": "3d63af0e",
					"Vote(string,string)": "17072d6b",
					"Voters(string,uint256)": "8f6a35b7",
					"businessProposals(string)": "089a4c60",
					"checkConsistency(string,uint256,uint256,bytes32)": "9d6a3125",
					"createContract(string,uint256,uint256,bytes32,string,string)": "7aa18f88",
					"getIsCompiled(string)": "ec548680",
					"getIsCreated(string)": "c9bc42ed",
					"getParameters(string)": "5a0a1390",
					"getParameters2(address,string)": "7b735c46",
					"getValues(string)": "c99ba896",
					"keys(string,uint256)": "06699b01",
					"retrieve_bundle(string)": "37f2e190",
					"voter_maps(string,address)": "33a0b0ab"
				}
			},
			"storageLayout": {
				"storage": [
					{
						"astId": 38,
						"contract": "contracts/BusinessConsensus2.sol:BusinessConsensus2",
						"label": "businessProposals",
						"offset": 0,
						"slot": "0",
						"type": "t_mapping(t_string_memory_ptr,t_struct(Proposal)33_storage)"
					},
					{
						"astId": 45,
						"contract": "contracts/BusinessConsensus2.sol:BusinessConsensus2",
						"label": "voter_maps",
						"offset": 0,
						"slot": "1",
						"type": "t_mapping(t_string_memory_ptr,t_mapping(t_address,t_struct(Voter)8_storage))"
					},
					{
						"astId": 51,
						"contract": "contracts/BusinessConsensus2.sol:BusinessConsensus2",
						"label": "Voters",
						"offset": 0,
						"slot": "2",
						"type": "t_mapping(t_string_memory_ptr,t_array(t_struct(Voter)8_storage)dyn_storage)"
					},
					{
						"astId": 56,
						"contract": "contracts/BusinessConsensus2.sol:BusinessConsensus2",
						"label": "keys",
						"offset": 0,
						"slot": "3",
						"type": "t_mapping(t_string_memory_ptr,t_array(t_address)dyn_storage)"
					}
				],
				"types": {
					"t_address": {
						"encoding": "inplace",
						"label": "address",
						"numberOfBytes": "20"
					},
					"t_array(t_address)dyn_storage": {
						"base": "t_address",
						"encoding": "dynamic_array",
						"label": "address[]",
						"numberOfBytes": "32"
					},
					"t_array(t_struct(Voter)8_storage)dyn_storage": {
						"base": "t_struct(Voter)8_storage",
						"encoding": "dynamic_array",
						"label": "struct BusinessConsensus2.Voter[]",
						"numberOfBytes": "32"
					},
					"t_bool": {
						"encoding": "inplace",
						"label": "bool",
						"numberOfBytes": "1"
					},
					"t_bytes32": {
						"encoding": "inplace",
						"label": "bytes32",
						"numberOfBytes": "32"
					},
					"t_mapping(t_address,t_struct(Voter)8_storage)": {
						"encoding": "mapping",
						"key": "t_address",
						"label": "mapping(address => struct BusinessConsensus2.Voter)",
						"numberOfBytes": "32",
						"value": "t_struct(Voter)8_storage"
					},
					"t_mapping(t_string_memory_ptr,t_array(t_address)dyn_storage)": {
						"encoding": "mapping",
						"key": "t_string_memory_ptr",
						"label": "mapping(string => address[])",
						"numberOfBytes": "32",
						"value": "t_array(t_address)dyn_storage"
					},
					"t_mapping(t_string_memory_ptr,t_array(t_struct(Voter)8_storage)dyn_storage)": {
						"encoding": "mapping",
						"key": "t_string_memory_ptr",
						"label": "mapping(string => struct BusinessConsensus2.Voter[])",
						"numberOfBytes": "32",
						"value": "t_array(t_struct(Voter)8_storage)dyn_storage"
					},
					"t_mapping(t_string_memory_ptr,t_mapping(t_address,t_struct(Voter)8_storage))": {
						"encoding": "mapping",
						"key": "t_string_memory_ptr",
						"label": "mapping(string => mapping(address => struct BusinessConsensus2.Voter))",
						"numberOfBytes": "32",
						"value": "t_mapping(t_address,t_struct(Voter)8_storage)"
					},
					"t_mapping(t_string_memory_ptr,t_struct(Proposal)33_storage)": {
						"encoding": "mapping",
						"key": "t_string_memory_ptr",
						"label": "mapping(string => struct BusinessConsensus2.Proposal)",
						"numberOfBytes": "32",
						"value": "t_struct(Proposal)33_storage"
					},
					"t_string_memory_ptr": {
						"encoding": "bytes",
						"label": "string",
						"numberOfBytes": "32"
					},
					"t_string_storage": {
						"encoding": "bytes",
						"label": "string",
						"numberOfBytes": "32"
					},
					"t_struct(Proposal)33_storage": {
						"encoding": "inplace",
						"label": "struct BusinessConsensus2.Proposal",
						"members": [
							{
								"astId": 10,
								"contract": "contracts/BusinessConsensus2.sol:BusinessConsensus2",
								"label": "messageID",
								"offset": 0,
								"slot": "0",
								"type": "t_string_storage"
							},
							{
								"astId": 12,
								"contract": "contracts/BusinessConsensus2.sol:BusinessConsensus2",
								"label": "initiator",
								"offset": 0,
								"slot": "1",
								"type": "t_address"
							},
							{
								"astId": 14,
								"contract": "contracts/BusinessConsensus2.sol:BusinessConsensus2",
								"label": "contractAddress",
								"offset": 0,
								"slot": "2",
								"type": "t_address"
							},
							{
								"astId": 16,
								"contract": "contracts/BusinessConsensus2.sol:BusinessConsensus2",
								"label": "voteCount",
								"offset": 0,
								"slot": "3",
								"type": "t_uint256"
							},
							{
								"astId": 18,
								"contract": "contracts/BusinessConsensus2.sol:BusinessConsensus2",
								"label": "expiryDate",
								"offset": 0,
								"slot": "4",
								"type": "t_uint256"
							},
							{
								"astId": 20,
								"contract": "contracts/BusinessConsensus2.sol:BusinessConsensus2",
								"label": "BusinessRequirement",
								"offset": 0,
								"slot": "5",
								"type": "t_uint256"
							},
							{
								"astId": 22,
								"contract": "contracts/BusinessConsensus2.sol:BusinessConsensus2",
								"label": "numApprovals",
								"offset": 0,
								"slot": "6",
								"type": "t_uint256"
							},
							{
								"astId": 24,
								"contract": "contracts/BusinessConsensus2.sol:BusinessConsensus2",
								"label": "isCompiled",
								"offset": 0,
								"slot": "7",
								"type": "t_bool"
							},
							{
								"astId": 26,
								"contract": "contracts/BusinessConsensus2.sol:BusinessConsensus2",
								"label": "finalVerdict",
								"offset": 0,
								"slot": "8",
								"type": "t_bytes32"
							},
							{
								"astId": 28,
								"contract": "contracts/BusinessConsensus2.sol:BusinessConsensus2",
								"label": "messageDate",
								"offset": 0,
								"slot": "9",
								"type": "t_string_storage"
							},
							{
								"astId": 30,
								"contract": "contracts/BusinessConsensus2.sol:BusinessConsensus2",
								"label": "subject",
								"offset": 0,
								"slot": "10",
								"type": "t_string_storage"
							},
							{
								"astId": 32,
								"contract": "contracts/BusinessConsensus2.sol:BusinessConsensus2",
								"label": "contents",
								"offset": 0,
								"slot": "11",
								"type": "t_bytes32"
							}
						],
						"numberOfBytes": "384"
					},
					"t_struct(Voter)8_storage": {
						"encoding": "inplace",
						"label": "struct BusinessConsensus2.Voter",
						"members": [
							{
								"astId": 3,
								"contract": "contracts/BusinessConsensus2.sol:BusinessConsensus2",
								"label": "voted",
								"offset": 0,
								"slot": "0",
								"type": "t_bool"
							},
							{
								"astId": 5,
								"contract": "contracts/BusinessConsensus2.sol:BusinessConsensus2",
								"label": "vote",
								"offset": 1,
								"slot": "0",
								"type": "t_bool"
							},
							{
								"astId": 7,
								"contract": "contracts/BusinessConsensus2.sol:BusinessConsensus2",
								"label": "recipient",
								"offset": 2,
								"slot": "0",
								"type": "t_address"
							}
						],
						"numberOfBytes": "32"
					},
					"t_uint256": {
						"encoding": "inplace",
						"label": "uint256",
						"numberOfBytes": "32"
					}
				}
			},
			"userdoc": {
				"kind": "user",
				"methods": {
					"Consensus(string)": {
						"notice": "compile all relevant information into a Bundle"
					}
				},
				"version": 1
			}
		}
	}
}