{
	"contracts/BusinessConsensus.sol": {
		"BusinessConsensus": {
			"abi": [
				{
					"inputs": [
						{
							"internalType": "string",
							"name": "_messageID",
							"type": "string"
						},
						{
							"internalType": "uint256",
							"name": "expiry",
							"type": "uint256"
						},
						{
							"internalType": "uint256",
							"name": "requiredPercentage",
							"type": "uint256"
						}
					],
					"stateMutability": "nonpayable",
					"type": "constructor"
				},
				{
					"inputs": [],
					"name": "AccumulatedPercentage",
					"outputs": [
						{
							"internalType": "uint256",
							"name": "",
							"type": "uint256"
						}
					],
					"stateMutability": "view",
					"type": "function"
				},
				{
					"inputs": [],
					"name": "BusinessRequirement",
					"outputs": [
						{
							"internalType": "uint256",
							"name": "",
							"type": "uint256"
						}
					],
					"stateMutability": "view",
					"type": "function"
				},
				{
					"inputs": [],
					"name": "Consensus",
					"outputs": [],
					"stateMutability": "nonpayable",
					"type": "function"
				},
				{
					"inputs": [
						{
							"internalType": "address",
							"name": "voter",
							"type": "address"
						}
					],
					"name": "RegisterVoter",
					"outputs": [],
					"stateMutability": "nonpayable",
					"type": "function"
				},
				{
					"inputs": [
						{
							"internalType": "string",
							"name": "response",
							"type": "string"
						}
					],
					"name": "Vote",
					"outputs": [],
					"stateMutability": "nonpayable",
					"type": "function"
				},
				{
					"inputs": [],
					"name": "contractAddress",
					"outputs": [
						{
							"internalType": "address",
							"name": "",
							"type": "address"
						}
					],
					"stateMutability": "view",
					"type": "function"
				},
				{
					"inputs": [],
					"name": "getParameters",
					"outputs": [
						{
							"internalType": "string",
							"name": "",
							"type": "string"
						},
						{
							"internalType": "uint256",
							"name": "",
							"type": "uint256"
						},
						{
							"internalType": "address",
							"name": "",
							"type": "address"
						},
						{
							"internalType": "uint256",
							"name": "",
							"type": "uint256"
						},
						{
							"internalType": "uint256",
							"name": "",
							"type": "uint256"
						}
					],
					"stateMutability": "view",
					"type": "function"
				},
				{
					"inputs": [
						{
							"internalType": "address",
							"name": "test_address",
							"type": "address"
						}
					],
					"name": "getParameters2",
					"outputs": [
						{
							"internalType": "bool",
							"name": "",
							"type": "bool"
						},
						{
							"internalType": "bool",
							"name": "",
							"type": "bool"
						},
						{
							"internalType": "address",
							"name": "",
							"type": "address"
						}
					],
					"stateMutability": "view",
					"type": "function"
				},
				{
					"inputs": [],
					"name": "getValues",
					"outputs": [
						{
							"internalType": "string",
							"name": "",
							"type": "string"
						}
					],
					"stateMutability": "view",
					"type": "function"
				},
				{
					"inputs": [],
					"name": "initiator",
					"outputs": [
						{
							"internalType": "address",
							"name": "",
							"type": "address"
						}
					],
					"stateMutability": "view",
					"type": "function"
				},
				{
					"inputs": [
						{
							"internalType": "uint256",
							"name": "",
							"type": "uint256"
						}
					],
					"name": "keys",
					"outputs": [
						{
							"internalType": "address",
							"name": "",
							"type": "address"
						}
					],
					"stateMutability": "view",
					"type": "function"
				},
				{
					"inputs": [],
					"name": "numApprovals",
					"outputs": [
						{
							"internalType": "uint256",
							"name": "",
							"type": "uint256"
						}
					],
					"stateMutability": "view",
					"type": "function"
				},
				{
					"inputs": [],
					"name": "numberCompiled",
					"outputs": [
						{
							"internalType": "uint256",
							"name": "",
							"type": "uint256"
						}
					],
					"stateMutability": "view",
					"type": "function"
				},
				{
					"inputs": [],
					"name": "proposal",
					"outputs": [
						{
							"internalType": "uint256",
							"name": "voteCount",
							"type": "uint256"
						},
						{
							"internalType": "string",
							"name": "messageID",
							"type": "string"
						}
					],
					"stateMutability": "view",
					"type": "function"
				},
				{
					"inputs": [],
					"name": "retrieve_bundle",
					"outputs": [
						{
							"internalType": "bytes32",
							"name": "",
							"type": "bytes32"
						},
						{
							"components": [
								{
									"internalType": "uint256",
									"name": "voteCount",
									"type": "uint256"
								},
								{
									"internalType": "string",
									"name": "messageID",
									"type": "string"
								}
							],
							"internalType": "struct BusinessConsensus.Proposal",
							"name": "",
							"type": "tuple"
						},
						{
							"components": [
								{
									"internalType": "bool",
									"name": "voted",
									"type": "bool"
								},
								{
									"internalType": "bool",
									"name": "vote",
									"type": "bool"
								},
								{
									"internalType": "address",
									"name": "recipient",
									"type": "address"
								}
							],
							"internalType": "struct BusinessConsensus.Voter[]",
							"name": "",
							"type": "tuple[]"
						}
					],
					"stateMutability": "view",
					"type": "function"
				},
				{
					"inputs": [
						{
							"internalType": "uint256",
							"name": "",
							"type": "uint256"
						}
					],
					"name": "voters",
					"outputs": [
						{
							"internalType": "bool",
							"name": "voted",
							"type": "bool"
						},
						{
							"internalType": "bool",
							"name": "vote",
							"type": "bool"
						},
						{
							"internalType": "address",
							"name": "recipient",
							"type": "address"
						}
					],
					"stateMutability": "view",
					"type": "function"
				},
				{
					"inputs": [
						{
							"internalType": "address",
							"name": "",
							"type": "address"
						}
					],
					"name": "voters_map",
					"outputs": [
						{
							"internalType": "bool",
							"name": "voted",
							"type": "bool"
						},
						{
							"internalType": "bool",
							"name": "vote",
							"type": "bool"
						},
						{
							"internalType": "address",
							"name": "recipient",
							"type": "address"
						}
					],
					"stateMutability": "view",
					"type": "function"
				}
			],
			"devdoc": {
				"kind": "dev",
				"methods": {},
				"version": 1
			},
			"evm": {
				"assembly": "    /* \"contracts/BusinessConsensus.sol\":33:5201  contract BusinessConsensus{\r... */\n  mstore(0x40, 0x80)\n    /* \"contracts/BusinessConsensus.sol\":1196:1784  constructor(string memory _messageID, uint expiry, uint requiredPercentage){\r... */\n  callvalue\n  dup1\n  iszero\n  tag_1\n  jumpi\n  0x00\n  dup1\n  revert\ntag_1:\n  pop\n  mload(0x40)\n  sub(codesize, bytecodeSize)\n  dup1\n  bytecodeSize\n  dup4\n  codecopy\n  dup2\n  dup2\n  add\n  0x40\n  mstore\n  dup2\n  add\n  swap1\n  tag_2\n  swap2\n  swap1\n  tag_3\n  jump\t// in\ntag_2:\n    /* \"contracts/BusinessConsensus.sol\":1294:1304  msg.sender */\n  caller\n    /* \"contracts/BusinessConsensus.sol\":1282:1291  initiator */\n  0x01\n  0x00\n    /* \"contracts/BusinessConsensus.sol\":1282:1304  initiator = msg.sender */\n  0x0100\n  exp\n  dup2\n  sload\n  dup2\n  0xffffffffffffffffffffffffffffffffffffffff\n  mul\n  not\n  and\n  swap1\n  dup4\n  0xffffffffffffffffffffffffffffffffffffffff\n  and\n  mul\n  or\n  swap1\n  sstore\n  pop\n    /* \"contracts/BusinessConsensus.sol\":1346:1352  expiry */\n  dup2\n    /* \"contracts/BusinessConsensus.sol\":1328:1343  block.timestamp */\n  timestamp\n    /* \"contracts/BusinessConsensus.sol\":1328:1352  block.timestamp + expiry */\n  tag_6\n  swap2\n  swap1\n  tag_7\n  jump\t// in\ntag_6:\n    /* \"contracts/BusinessConsensus.sol\":1315:1325  expiryDate */\n  0x03\n    /* \"contracts/BusinessConsensus.sol\":1315:1352  expiryDate = block.timestamp + expiry */\n  dup2\n  swap1\n  sstore\n  pop\n    /* \"contracts/BusinessConsensus.sol\":1385:1403  requiredPercentage */\n  dup1\n    /* \"contracts/BusinessConsensus.sol\":1363:1382  BusinessRequirement */\n  0x04\n    /* \"contracts/BusinessConsensus.sol\":1363:1403  BusinessRequirement = requiredPercentage */\n  dup2\n  swap1\n  sstore\n  pop\n    /* \"contracts/BusinessConsensus.sol\":1438:1439  0 */\n  0x00\n    /* \"contracts/BusinessConsensus.sol\":1414:1435  AccumulatedPercentage */\n  0x05\n    /* \"contracts/BusinessConsensus.sol\":1414:1439  AccumulatedPercentage = 0 */\n  dup2\n  swap1\n  sstore\n  pop\n    /* \"contracts/BusinessConsensus.sol\":1465:1466  0 */\n  0x00\n    /* \"contracts/BusinessConsensus.sol\":1450:1462  numApprovals */\n  0x06\n    /* \"contracts/BusinessConsensus.sol\":1450:1466  numApprovals = 0 */\n  dup2\n  swap1\n  sstore\n  pop\n    /* \"contracts/BusinessConsensus.sol\":1494:1495  0 */\n  0x00\n    /* \"contracts/BusinessConsensus.sol\":1477:1491  numberCompiled */\n  0x07\n    /* \"contracts/BusinessConsensus.sol\":1477:1495  numberCompiled = 0 */\n  dup2\n  swap1\n  sstore\n  pop\n    /* \"contracts/BusinessConsensus.sol\":1506:1531  finalVerdict = \"Rejected\" */\n  0x52656a6563746564000000000000000000000000000000000000000000000000\n    /* \"contracts/BusinessConsensus.sol\":1506:1518  finalVerdict */\n  0x08\n    /* \"contracts/BusinessConsensus.sol\":1506:1531  finalVerdict = \"Rejected\" */\n  dup2\n  swap1\n  sstore\n  pop\n    /* \"contracts/BusinessConsensus.sol\":1568:1572  this */\n  address\n    /* \"contracts/BusinessConsensus.sol\":1542:1557  contractAddress */\n  0x00\n  dup1\n    /* \"contracts/BusinessConsensus.sol\":1542:1573  contractAddress = address(this) */\n  0x0100\n  exp\n  dup2\n  sload\n  dup2\n  0xffffffffffffffffffffffffffffffffffffffff\n  mul\n  not\n  and\n  swap1\n  dup4\n  0xffffffffffffffffffffffffffffffffffffffff\n  and\n  mul\n  or\n  swap1\n  sstore\n  pop\n    /* \"contracts/BusinessConsensus.sol\":1680:1776  Proposal({\r... */\n  mload(0x40)\n  dup1\n  0x40\n  add\n  0x40\n  mstore\n  dup1\n    /* \"contracts/BusinessConsensus.sol\":1719:1720  0 */\n  0x00\n    /* \"contracts/BusinessConsensus.sol\":1680:1776  Proposal({\r... */\n  dup2\n  mstore\n  0x20\n  add\n    /* \"contracts/BusinessConsensus.sol\":1750:1760  _messageID */\n  dup5\n    /* \"contracts/BusinessConsensus.sol\":1680:1776  Proposal({\r... */\n  dup2\n  mstore\n  pop\n    /* \"contracts/BusinessConsensus.sol\":1669:1677  proposal */\n  0x0b\n    /* \"contracts/BusinessConsensus.sol\":1669:1776  proposal = Proposal({\r... */\n  0x00\n  dup3\n  add\n  mload\n  dup2\n  0x00\n  add\n  sstore\n  0x20\n  dup3\n  add\n  mload\n  dup2\n  0x01\n  add\n  swap1\n  dup1\n  mload\n  swap1\n  0x20\n  add\n  swap1\n  tag_8\n  swap3\n  swap2\n  swap1\n  tag_9\n  jump\t// in\ntag_8:\n  pop\n  swap1\n  pop\n  pop\n    /* \"contracts/BusinessConsensus.sol\":1196:1784  constructor(string memory _messageID, uint expiry, uint requiredPercentage){\r... */\n  pop\n  pop\n  pop\n    /* \"contracts/BusinessConsensus.sol\":33:5201  contract BusinessConsensus{\r... */\n  jump(tag_10)\ntag_9:\n  dup3\n  dup1\n  sload\n  tag_11\n  swap1\n  tag_12\n  jump\t// in\ntag_11:\n  swap1\n  0x00\n  mstore\n  keccak256(0x00, 0x20)\n  swap1\n  0x1f\n  add\n  0x20\n  swap1\n  div\n  dup2\n  add\n  swap3\n  dup3\n  tag_14\n  jumpi\n  0x00\n  dup6\n  sstore\n  jump(tag_13)\ntag_14:\n  dup3\n  0x1f\n  lt\n  tag_15\n  jumpi\n  dup1\n  mload\n  not(0xff)\n  and\n  dup4\n  dup1\n  add\n  or\n  dup6\n  sstore\n  jump(tag_13)\ntag_15:\n  dup3\n  dup1\n  add\n  0x01\n  add\n  dup6\n  sstore\n  dup3\n  iszero\n  tag_13\n  jumpi\n  swap2\n  dup3\n  add\ntag_16:\n  dup3\n  dup2\n  gt\n  iszero\n  tag_17\n  jumpi\n  dup3\n  mload\n  dup3\n  sstore\n  swap2\n  0x20\n  add\n  swap2\n  swap1\n  0x01\n  add\n  swap1\n  jump(tag_16)\ntag_17:\ntag_13:\n  pop\n  swap1\n  pop\n  tag_18\n  swap2\n  swap1\n  tag_19\n  jump\t// in\ntag_18:\n  pop\n  swap1\n  jump\t// out\ntag_19:\ntag_20:\n  dup1\n  dup3\n  gt\n  iszero\n  tag_21\n  jumpi\n  0x00\n  dup2\n  0x00\n  swap1\n  sstore\n  pop\n  0x01\n  add\n  jump(tag_20)\ntag_21:\n  pop\n  swap1\n  jump\t// out\n    /* \"#utility.yul\":7:428   */\ntag_23:\n    /* \"#utility.yul\":96:101   */\n  0x00\n    /* \"#utility.yul\":121:187   */\n  tag_25\n    /* \"#utility.yul\":137:186   */\n  tag_26\n    /* \"#utility.yul\":179:185   */\n  dup5\n    /* \"#utility.yul\":137:186   */\n  tag_27\n  jump\t// in\ntag_26:\n    /* \"#utility.yul\":121:187   */\n  tag_28\n  jump\t// in\ntag_25:\n    /* \"#utility.yul\":112:187   */\n  swap1\n  pop\n    /* \"#utility.yul\":210:216   */\n  dup3\n    /* \"#utility.yul\":203:208   */\n  dup2\n    /* \"#utility.yul\":196:217   */\n  mstore\n    /* \"#utility.yul\":248:252   */\n  0x20\n    /* \"#utility.yul\":241:246   */\n  dup2\n    /* \"#utility.yul\":237:253   */\n  add\n    /* \"#utility.yul\":286:289   */\n  dup5\n    /* \"#utility.yul\":277:283   */\n  dup5\n    /* \"#utility.yul\":272:275   */\n  dup5\n    /* \"#utility.yul\":268:284   */\n  add\n    /* \"#utility.yul\":265:290   */\n  gt\n    /* \"#utility.yul\":262:374   */\n  iszero\n  tag_29\n  jumpi\n    /* \"#utility.yul\":293:372   */\n  tag_30\n  tag_31\n  jump\t// in\ntag_30:\n    /* \"#utility.yul\":262:374   */\ntag_29:\n    /* \"#utility.yul\":383:422   */\n  tag_32\n    /* \"#utility.yul\":415:421   */\n  dup5\n    /* \"#utility.yul\":410:413   */\n  dup3\n    /* \"#utility.yul\":405:408   */\n  dup6\n    /* \"#utility.yul\":383:422   */\n  tag_33\n  jump\t// in\ntag_32:\n    /* \"#utility.yul\":102:428   */\n  pop\n    /* \"#utility.yul\":7:428   */\n  swap4\n  swap3\n  pop\n  pop\n  pop\n  jump\t// out\n    /* \"#utility.yul\":448:803   */\ntag_34:\n    /* \"#utility.yul\":515:520   */\n  0x00\n    /* \"#utility.yul\":564:567   */\n  dup3\n    /* \"#utility.yul\":557:561   */\n  0x1f\n    /* \"#utility.yul\":549:555   */\n  dup4\n    /* \"#utility.yul\":545:562   */\n  add\n    /* \"#utility.yul\":541:568   */\n  slt\n    /* \"#utility.yul\":531:653   */\n  tag_36\n  jumpi\n    /* \"#utility.yul\":572:651   */\n  tag_37\n  tag_38\n  jump\t// in\ntag_37:\n    /* \"#utility.yul\":531:653   */\ntag_36:\n    /* \"#utility.yul\":682:688   */\n  dup2\n    /* \"#utility.yul\":676:689   */\n  mload\n    /* \"#utility.yul\":707:797   */\n  tag_39\n    /* \"#utility.yul\":793:796   */\n  dup5\n    /* \"#utility.yul\":785:791   */\n  dup3\n    /* \"#utility.yul\":778:782   */\n  0x20\n    /* \"#utility.yul\":770:776   */\n  dup7\n    /* \"#utility.yul\":766:783   */\n  add\n    /* \"#utility.yul\":707:797   */\n  tag_23\n  jump\t// in\ntag_39:\n    /* \"#utility.yul\":698:797   */\n  swap2\n  pop\n    /* \"#utility.yul\":521:803   */\n  pop\n    /* \"#utility.yul\":448:803   */\n  swap3\n  swap2\n  pop\n  pop\n  jump\t// out\n    /* \"#utility.yul\":809:952   */\ntag_40:\n    /* \"#utility.yul\":866:871   */\n  0x00\n    /* \"#utility.yul\":897:903   */\n  dup2\n    /* \"#utility.yul\":891:904   */\n  mload\n    /* \"#utility.yul\":882:904   */\n  swap1\n  pop\n    /* \"#utility.yul\":913:946   */\n  tag_42\n    /* \"#utility.yul\":940:945   */\n  dup2\n    /* \"#utility.yul\":913:946   */\n  tag_43\n  jump\t// in\ntag_42:\n    /* \"#utility.yul\":809:952   */\n  swap3\n  swap2\n  pop\n  pop\n  jump\t// out\n    /* \"#utility.yul\":958:1794   */\ntag_3:\n    /* \"#utility.yul\":1056:1062   */\n  0x00\n    /* \"#utility.yul\":1064:1070   */\n  dup1\n    /* \"#utility.yul\":1072:1078   */\n  0x00\n    /* \"#utility.yul\":1121:1123   */\n  0x60\n    /* \"#utility.yul\":1109:1118   */\n  dup5\n    /* \"#utility.yul\":1100:1107   */\n  dup7\n    /* \"#utility.yul\":1096:1119   */\n  sub\n    /* \"#utility.yul\":1092:1124   */\n  slt\n    /* \"#utility.yul\":1089:1208   */\n  iszero\n  tag_45\n  jumpi\n    /* \"#utility.yul\":1127:1206   */\n  tag_46\n  tag_47\n  jump\t// in\ntag_46:\n    /* \"#utility.yul\":1089:1208   */\ntag_45:\n    /* \"#utility.yul\":1268:1269   */\n  0x00\n    /* \"#utility.yul\":1257:1266   */\n  dup5\n    /* \"#utility.yul\":1253:1270   */\n  add\n    /* \"#utility.yul\":1247:1271   */\n  mload\n    /* \"#utility.yul\":1298:1316   */\n  0xffffffffffffffff\n    /* \"#utility.yul\":1290:1296   */\n  dup2\n    /* \"#utility.yul\":1287:1317   */\n  gt\n    /* \"#utility.yul\":1284:1401   */\n  iszero\n  tag_48\n  jumpi\n    /* \"#utility.yul\":1320:1399   */\n  tag_49\n  tag_50\n  jump\t// in\ntag_49:\n    /* \"#utility.yul\":1284:1401   */\ntag_48:\n    /* \"#utility.yul\":1425:1499   */\n  tag_51\n    /* \"#utility.yul\":1491:1498   */\n  dup7\n    /* \"#utility.yul\":1482:1488   */\n  dup3\n    /* \"#utility.yul\":1471:1480   */\n  dup8\n    /* \"#utility.yul\":1467:1489   */\n  add\n    /* \"#utility.yul\":1425:1499   */\n  tag_34\n  jump\t// in\ntag_51:\n    /* \"#utility.yul\":1415:1499   */\n  swap4\n  pop\n    /* \"#utility.yul\":1218:1509   */\n  pop\n    /* \"#utility.yul\":1548:1550   */\n  0x20\n    /* \"#utility.yul\":1574:1638   */\n  tag_52\n    /* \"#utility.yul\":1630:1637   */\n  dup7\n    /* \"#utility.yul\":1621:1627   */\n  dup3\n    /* \"#utility.yul\":1610:1619   */\n  dup8\n    /* \"#utility.yul\":1606:1628   */\n  add\n    /* \"#utility.yul\":1574:1638   */\n  tag_40\n  jump\t// in\ntag_52:\n    /* \"#utility.yul\":1564:1638   */\n  swap3\n  pop\n    /* \"#utility.yul\":1519:1648   */\n  pop\n    /* \"#utility.yul\":1687:1689   */\n  0x40\n    /* \"#utility.yul\":1713:1777   */\n  tag_53\n    /* \"#utility.yul\":1769:1776   */\n  dup7\n    /* \"#utility.yul\":1760:1766   */\n  dup3\n    /* \"#utility.yul\":1749:1758   */\n  dup8\n    /* \"#utility.yul\":1745:1767   */\n  add\n    /* \"#utility.yul\":1713:1777   */\n  tag_40\n  jump\t// in\ntag_53:\n    /* \"#utility.yul\":1703:1777   */\n  swap2\n  pop\n    /* \"#utility.yul\":1658:1787   */\n  pop\n    /* \"#utility.yul\":958:1794   */\n  swap3\n  pop\n  swap3\n  pop\n  swap3\n  jump\t// out\n    /* \"#utility.yul\":1800:1929   */\ntag_28:\n    /* \"#utility.yul\":1834:1840   */\n  0x00\n    /* \"#utility.yul\":1861:1881   */\n  tag_55\n  tag_56\n  jump\t// in\ntag_55:\n    /* \"#utility.yul\":1851:1881   */\n  swap1\n  pop\n    /* \"#utility.yul\":1890:1923   */\n  tag_57\n    /* \"#utility.yul\":1918:1922   */\n  dup3\n    /* \"#utility.yul\":1910:1916   */\n  dup3\n    /* \"#utility.yul\":1890:1923   */\n  tag_58\n  jump\t// in\ntag_57:\n    /* \"#utility.yul\":1800:1929   */\n  swap2\n  swap1\n  pop\n  jump\t// out\n    /* \"#utility.yul\":1935:2010   */\ntag_56:\n    /* \"#utility.yul\":1968:1974   */\n  0x00\n    /* \"#utility.yul\":2001:2003   */\n  0x40\n    /* \"#utility.yul\":1995:2004   */\n  mload\n    /* \"#utility.yul\":1985:2004   */\n  swap1\n  pop\n    /* \"#utility.yul\":1935:2010   */\n  swap1\n  jump\t// out\n    /* \"#utility.yul\":2016:2324   */\ntag_27:\n    /* \"#utility.yul\":2078:2082   */\n  0x00\n    /* \"#utility.yul\":2168:2186   */\n  0xffffffffffffffff\n    /* \"#utility.yul\":2160:2166   */\n  dup3\n    /* \"#utility.yul\":2157:2187   */\n  gt\n    /* \"#utility.yul\":2154:2210   */\n  iszero\n  tag_61\n  jumpi\n    /* \"#utility.yul\":2190:2208   */\n  tag_62\n  tag_63\n  jump\t// in\ntag_62:\n    /* \"#utility.yul\":2154:2210   */\ntag_61:\n    /* \"#utility.yul\":2228:2257   */\n  tag_64\n    /* \"#utility.yul\":2250:2256   */\n  dup3\n    /* \"#utility.yul\":2228:2257   */\n  tag_65\n  jump\t// in\ntag_64:\n    /* \"#utility.yul\":2220:2257   */\n  swap1\n  pop\n    /* \"#utility.yul\":2312:2316   */\n  0x20\n    /* \"#utility.yul\":2306:2310   */\n  dup2\n    /* \"#utility.yul\":2302:2317   */\n  add\n    /* \"#utility.yul\":2294:2317   */\n  swap1\n  pop\n    /* \"#utility.yul\":2016:2324   */\n  swap2\n  swap1\n  pop\n  jump\t// out\n    /* \"#utility.yul\":2330:2635   */\ntag_7:\n    /* \"#utility.yul\":2370:2373   */\n  0x00\n    /* \"#utility.yul\":2389:2409   */\n  tag_67\n    /* \"#utility.yul\":2407:2408   */\n  dup3\n    /* \"#utility.yul\":2389:2409   */\n  tag_68\n  jump\t// in\ntag_67:\n    /* \"#utility.yul\":2384:2409   */\n  swap2\n  pop\n    /* \"#utility.yul\":2423:2443   */\n  tag_69\n    /* \"#utility.yul\":2441:2442   */\n  dup4\n    /* \"#utility.yul\":2423:2443   */\n  tag_68\n  jump\t// in\ntag_69:\n    /* \"#utility.yul\":2418:2443   */\n  swap3\n  pop\n    /* \"#utility.yul\":2577:2578   */\n  dup3\n    /* \"#utility.yul\":2509:2575   */\n  0xffffffffffffffffffffffffffffffffffffffffffffffffffffffffffffffff\n    /* \"#utility.yul\":2505:2579   */\n  sub\n    /* \"#utility.yul\":2502:2503   */\n  dup3\n    /* \"#utility.yul\":2499:2580   */\n  gt\n    /* \"#utility.yul\":2496:2603   */\n  iszero\n  tag_70\n  jumpi\n    /* \"#utility.yul\":2583:2601   */\n  tag_71\n  tag_72\n  jump\t// in\ntag_71:\n    /* \"#utility.yul\":2496:2603   */\ntag_70:\n    /* \"#utility.yul\":2627:2628   */\n  dup3\n    /* \"#utility.yul\":2624:2625   */\n  dup3\n    /* \"#utility.yul\":2620:2629   */\n  add\n    /* \"#utility.yul\":2613:2629   */\n  swap1\n  pop\n    /* \"#utility.yul\":2330:2635   */\n  swap3\n  swap2\n  pop\n  pop\n  jump\t// out\n    /* \"#utility.yul\":2641:2718   */\ntag_68:\n    /* \"#utility.yul\":2678:2685   */\n  0x00\n    /* \"#utility.yul\":2707:2712   */\n  dup2\n    /* \"#utility.yul\":2696:2712   */\n  swap1\n  pop\n    /* \"#utility.yul\":2641:2718   */\n  swap2\n  swap1\n  pop\n  jump\t// out\n    /* \"#utility.yul\":2724:3031   */\ntag_33:\n    /* \"#utility.yul\":2792:2793   */\n  0x00\n    /* \"#utility.yul\":2802:2915   */\ntag_75:\n    /* \"#utility.yul\":2816:2822   */\n  dup4\n    /* \"#utility.yul\":2813:2814   */\n  dup2\n    /* \"#utility.yul\":2810:2823   */\n  lt\n    /* \"#utility.yul\":2802:2915   */\n  iszero\n  tag_77\n  jumpi\n    /* \"#utility.yul\":2901:2902   */\n  dup1\n    /* \"#utility.yul\":2896:2899   */\n  dup3\n    /* \"#utility.yul\":2892:2903   */\n  add\n    /* \"#utility.yul\":2886:2904   */\n  mload\n    /* \"#utility.yul\":2882:2883   */\n  dup2\n    /* \"#utility.yul\":2877:2880   */\n  dup5\n    /* \"#utility.yul\":2873:2884   */\n  add\n    /* \"#utility.yul\":2866:2905   */\n  mstore\n    /* \"#utility.yul\":2838:2840   */\n  0x20\n    /* \"#utility.yul\":2835:2836   */\n  dup2\n    /* \"#utility.yul\":2831:2841   */\n  add\n    /* \"#utility.yul\":2826:2841   */\n  swap1\n  pop\n    /* \"#utility.yul\":2802:2915   */\n  jump(tag_75)\ntag_77:\n    /* \"#utility.yul\":2933:2939   */\n  dup4\n    /* \"#utility.yul\":2930:2931   */\n  dup2\n    /* \"#utility.yul\":2927:2940   */\n  gt\n    /* \"#utility.yul\":2924:3025   */\n  iszero\n  tag_78\n  jumpi\n    /* \"#utility.yul\":3013:3014   */\n  0x00\n    /* \"#utility.yul\":3004:3010   */\n  dup5\n    /* \"#utility.yul\":2999:3002   */\n  dup5\n    /* \"#utility.yul\":2995:3011   */\n  add\n    /* \"#utility.yul\":2988:3015   */\n  mstore\n    /* \"#utility.yul\":2924:3025   */\ntag_78:\n    /* \"#utility.yul\":2773:3031   */\n  pop\n    /* \"#utility.yul\":2724:3031   */\n  pop\n  pop\n  pop\n  jump\t// out\n    /* \"#utility.yul\":3037:3357   */\ntag_12:\n    /* \"#utility.yul\":3081:3087   */\n  0x00\n    /* \"#utility.yul\":3118:3119   */\n  0x02\n    /* \"#utility.yul\":3112:3116   */\n  dup3\n    /* \"#utility.yul\":3108:3120   */\n  div\n    /* \"#utility.yul\":3098:3120   */\n  swap1\n  pop\n    /* \"#utility.yul\":3165:3166   */\n  0x01\n    /* \"#utility.yul\":3159:3163   */\n  dup3\n    /* \"#utility.yul\":3155:3167   */\n  and\n    /* \"#utility.yul\":3186:3204   */\n  dup1\n    /* \"#utility.yul\":3176:3257   */\n  tag_80\n  jumpi\n    /* \"#utility.yul\":3242:3246   */\n  0x7f\n    /* \"#utility.yul\":3234:3240   */\n  dup3\n    /* \"#utility.yul\":3230:3247   */\n  and\n    /* \"#utility.yul\":3220:3247   */\n  swap2\n  pop\n    /* \"#utility.yul\":3176:3257   */\ntag_80:\n    /* \"#utility.yul\":3304:3306   */\n  0x20\n    /* \"#utility.yul\":3296:3302   */\n  dup3\n    /* \"#utility.yul\":3293:3307   */\n  lt\n    /* \"#utility.yul\":3273:3291   */\n  dup2\n    /* \"#utility.yul\":3270:3308   */\n  eq\n    /* \"#utility.yul\":3267:3351   */\n  iszero\n  tag_81\n  jumpi\n    /* \"#utility.yul\":3323:3341   */\n  tag_82\n  tag_83\n  jump\t// in\ntag_82:\n    /* \"#utility.yul\":3267:3351   */\ntag_81:\n    /* \"#utility.yul\":3088:3357   */\n  pop\n    /* \"#utility.yul\":3037:3357   */\n  swap2\n  swap1\n  pop\n  jump\t// out\n    /* \"#utility.yul\":3363:3644   */\ntag_58:\n    /* \"#utility.yul\":3446:3473   */\n  tag_85\n    /* \"#utility.yul\":3468:3472   */\n  dup3\n    /* \"#utility.yul\":3446:3473   */\n  tag_65\n  jump\t// in\ntag_85:\n    /* \"#utility.yul\":3438:3444   */\n  dup2\n    /* \"#utility.yul\":3434:3474   */\n  add\n    /* \"#utility.yul\":3576:3582   */\n  dup2\n    /* \"#utility.yul\":3564:3574   */\n  dup2\n    /* \"#utility.yul\":3561:3583   */\n  lt\n    /* \"#utility.yul\":3540:3558   */\n  0xffffffffffffffff\n    /* \"#utility.yul\":3528:3538   */\n  dup3\n    /* \"#utility.yul\":3525:3559   */\n  gt\n    /* \"#utility.yul\":3522:3584   */\n  or\n    /* \"#utility.yul\":3519:3607   */\n  iszero\n  tag_86\n  jumpi\n    /* \"#utility.yul\":3587:3605   */\n  tag_87\n  tag_63\n  jump\t// in\ntag_87:\n    /* \"#utility.yul\":3519:3607   */\ntag_86:\n    /* \"#utility.yul\":3627:3637   */\n  dup1\n    /* \"#utility.yul\":3623:3625   */\n  0x40\n    /* \"#utility.yul\":3616:3638   */\n  mstore\n    /* \"#utility.yul\":3406:3644   */\n  pop\n    /* \"#utility.yul\":3363:3644   */\n  pop\n  pop\n  jump\t// out\n    /* \"#utility.yul\":3650:3830   */\ntag_72:\n    /* \"#utility.yul\":3698:3775   */\n  0x4e487b7100000000000000000000000000000000000000000000000000000000\n    /* \"#utility.yul\":3695:3696   */\n  0x00\n    /* \"#utility.yul\":3688:3776   */\n  mstore\n    /* \"#utility.yul\":3795:3799   */\n  0x11\n    /* \"#utility.yul\":3792:3793   */\n  0x04\n    /* \"#utility.yul\":3785:3800   */\n  mstore\n    /* \"#utility.yul\":3819:3823   */\n  0x24\n    /* \"#utility.yul\":3816:3817   */\n  0x00\n    /* \"#utility.yul\":3809:3824   */\n  revert\n    /* \"#utility.yul\":3836:4016   */\ntag_83:\n    /* \"#utility.yul\":3884:3961   */\n  0x4e487b7100000000000000000000000000000000000000000000000000000000\n    /* \"#utility.yul\":3881:3882   */\n  0x00\n    /* \"#utility.yul\":3874:3962   */\n  mstore\n    /* \"#utility.yul\":3981:3985   */\n  0x22\n    /* \"#utility.yul\":3978:3979   */\n  0x04\n    /* \"#utility.yul\":3971:3986   */\n  mstore\n    /* \"#utility.yul\":4005:4009   */\n  0x24\n    /* \"#utility.yul\":4002:4003   */\n  0x00\n    /* \"#utility.yul\":3995:4010   */\n  revert\n    /* \"#utility.yul\":4022:4202   */\ntag_63:\n    /* \"#utility.yul\":4070:4147   */\n  0x4e487b7100000000000000000000000000000000000000000000000000000000\n    /* \"#utility.yul\":4067:4068   */\n  0x00\n    /* \"#utility.yul\":4060:4148   */\n  mstore\n    /* \"#utility.yul\":4167:4171   */\n  0x41\n    /* \"#utility.yul\":4164:4165   */\n  0x04\n    /* \"#utility.yul\":4157:4172   */\n  mstore\n    /* \"#utility.yul\":4191:4195   */\n  0x24\n    /* \"#utility.yul\":4188:4189   */\n  0x00\n    /* \"#utility.yul\":4181:4196   */\n  revert\n    /* \"#utility.yul\":4208:4325   */\ntag_38:\n    /* \"#utility.yul\":4317:4318   */\n  0x00\n    /* \"#utility.yul\":4314:4315   */\n  dup1\n    /* \"#utility.yul\":4307:4319   */\n  revert\n    /* \"#utility.yul\":4331:4448   */\ntag_31:\n    /* \"#utility.yul\":4440:4441   */\n  0x00\n    /* \"#utility.yul\":4437:4438   */\n  dup1\n    /* \"#utility.yul\":4430:4442   */\n  revert\n    /* \"#utility.yul\":4454:4571   */\ntag_50:\n    /* \"#utility.yul\":4563:4564   */\n  0x00\n    /* \"#utility.yul\":4560:4561   */\n  dup1\n    /* \"#utility.yul\":4553:4565   */\n  revert\n    /* \"#utility.yul\":4577:4694   */\ntag_47:\n    /* \"#utility.yul\":4686:4687   */\n  0x00\n    /* \"#utility.yul\":4683:4684   */\n  dup1\n    /* \"#utility.yul\":4676:4688   */\n  revert\n    /* \"#utility.yul\":4700:4802   */\ntag_65:\n    /* \"#utility.yul\":4741:4747   */\n  0x00\n    /* \"#utility.yul\":4792:4794   */\n  0x1f\n    /* \"#utility.yul\":4788:4795   */\n  not\n    /* \"#utility.yul\":4783:4785   */\n  0x1f\n    /* \"#utility.yul\":4776:4781   */\n  dup4\n    /* \"#utility.yul\":4772:4786   */\n  add\n    /* \"#utility.yul\":4768:4796   */\n  and\n    /* \"#utility.yul\":4758:4796   */\n  swap1\n  pop\n    /* \"#utility.yul\":4700:4802   */\n  swap2\n  swap1\n  pop\n  jump\t// out\n    /* \"#utility.yul\":4808:4930   */\ntag_43:\n    /* \"#utility.yul\":4881:4905   */\n  tag_97\n    /* \"#utility.yul\":4899:4904   */\n  dup2\n    /* \"#utility.yul\":4881:4905   */\n  tag_68\n  jump\t// in\ntag_97:\n    /* \"#utility.yul\":4874:4879   */\n  dup2\n    /* \"#utility.yul\":4871:4906   */\n  eq\n    /* \"#utility.yul\":4861:4924   */\n  tag_98\n  jumpi\n    /* \"#utility.yul\":4920:4921   */\n  0x00\n    /* \"#utility.yul\":4917:4918   */\n  dup1\n    /* \"#utility.yul\":4910:4922   */\n  revert\n    /* \"#utility.yul\":4861:4924   */\ntag_98:\n    /* \"#utility.yul\":4808:4930   */\n  pop\n  jump\t// out\n    /* \"contracts/BusinessConsensus.sol\":33:5201  contract BusinessConsensus{\r... */\ntag_10:\n  dataSize(sub_0)\n  dup1\n  dataOffset(sub_0)\n  0x00\n  codecopy\n  0x00\n  return\nstop\n\nsub_0: assembly {\n        /* \"contracts/BusinessConsensus.sol\":33:5201  contract BusinessConsensus{\r... */\n      mstore(0x40, 0x80)\n      callvalue\n      dup1\n      iszero\n      tag_1\n      jumpi\n      0x00\n      dup1\n      revert\n    tag_1:\n      pop\n      jumpi(tag_2, lt(calldatasize, 0x04))\n      shr(0xe0, calldataload(0x00))\n      dup1\n      0x753ec103\n      gt\n      tag_20\n      jumpi\n      dup1\n      0xa5ea11da\n      gt\n      tag_21\n      jumpi\n      dup1\n      0xa5ea11da\n      eq\n      tag_15\n      jumpi\n      dup1\n      0xb9a29250\n      eq\n      tag_16\n      jumpi\n      dup1\n      0xd77aa749\n      eq\n      tag_17\n      jumpi\n      dup1\n      0xda58c7d9\n      eq\n      tag_18\n      jumpi\n      dup1\n      0xf6b4dfb4\n      eq\n      tag_19\n      jumpi\n      jump(tag_2)\n    tag_21:\n      dup1\n      0x753ec103\n      eq\n      tag_11\n      jumpi\n      dup1\n      0x82316745\n      eq\n      tag_12\n      jumpi\n      dup1\n      0x95b02dfa\n      eq\n      tag_13\n      jumpi\n      dup1\n      0x9aa4bbdd\n      eq\n      tag_14\n      jumpi\n      jump(tag_2)\n    tag_20:\n      dup1\n      0x5361a0ea\n      gt\n      tag_22\n      jumpi\n      dup1\n      0x5361a0ea\n      eq\n      tag_7\n      jumpi\n      dup1\n      0x5c39fcc1\n      eq\n      tag_8\n      jumpi\n      dup1\n      0x604c8333\n      eq\n      tag_9\n      jumpi\n      dup1\n      0x7403c5e5\n      eq\n      tag_10\n      jumpi\n      jump(tag_2)\n    tag_22:\n      dup1\n      0x0cb6aaf1\n      eq\n      tag_3\n      jumpi\n      dup1\n      0x15fe6f1b\n      eq\n      tag_4\n      jumpi\n      dup1\n      0x19eb4a90\n      eq\n      tag_5\n      jumpi\n      dup1\n      0x323082d7\n      eq\n      tag_6\n      jumpi\n    tag_2:\n      0x00\n      dup1\n      revert\n        /* \"contracts/BusinessConsensus.sol\":729:750  address[] public keys */\n    tag_3:\n      tag_23\n      0x04\n      dup1\n      calldatasize\n      sub\n      dup2\n      add\n      swap1\n      tag_24\n      swap2\n      swap1\n      tag_25\n      jump\t// in\n    tag_24:\n      tag_26\n      jump\t// in\n    tag_23:\n      mload(0x40)\n      tag_27\n      swap2\n      swap1\n      tag_28\n      jump\t// in\n    tag_27:\n      mload(0x40)\n      dup1\n      swap2\n      sub\n      swap1\n      return\n        /* \"contracts/BusinessConsensus.sol\":2412:3056  function RegisterVoter(address voter) external {\r... */\n    tag_4:\n      tag_29\n      0x04\n      dup1\n      calldatasize\n      sub\n      dup2\n      add\n      swap1\n      tag_30\n      swap2\n      swap1\n      tag_31\n      jump\t// in\n    tag_30:\n      tag_32\n      jump\t// in\n    tag_29:\n      stop\n        /* \"contracts/BusinessConsensus.sol\":1790:1890  function getValues() public view returns (string memory){\r... */\n    tag_5:\n      tag_33\n      tag_34\n      jump\t// in\n    tag_33:\n      mload(0x40)\n      tag_35\n      swap2\n      swap1\n      tag_36\n      jump\t// in\n    tag_35:\n      mload(0x40)\n      dup1\n      swap2\n      sub\n      swap1\n      return\n        /* \"contracts/BusinessConsensus.sol\":3064:4161  function Vote(string memory response) external {\r... */\n    tag_6:\n      tag_37\n      0x04\n      dup1\n      calldatasize\n      sub\n      dup2\n      add\n      swap1\n      tag_38\n      swap2\n      swap1\n      tag_39\n      jump\t// in\n    tag_38:\n      tag_40\n      jump\t// in\n    tag_37:\n      stop\n        /* \"contracts/BusinessConsensus.sol\":2092:2306  function getParameters2(address test_address) external view returns (bool, bool, address){\r... */\n    tag_7:\n      tag_41\n      0x04\n      dup1\n      calldatasize\n      sub\n      dup2\n      add\n      swap1\n      tag_42\n      swap2\n      swap1\n      tag_31\n      jump\t// in\n    tag_42:\n      tag_43\n      jump\t// in\n    tag_41:\n      mload(0x40)\n      tag_44\n      swap4\n      swap3\n      swap2\n      swap1\n      tag_45\n      jump\t// in\n    tag_44:\n      mload(0x40)\n      dup1\n      swap2\n      sub\n      swap1\n      return\n        /* \"contracts/BusinessConsensus.sol\":696:720  address public initiator */\n    tag_8:\n      tag_46\n      tag_47\n      jump\t// in\n    tag_46:\n      mload(0x40)\n      tag_48\n      swap2\n      swap1\n      tag_28\n      jump\t// in\n    tag_48:\n      mload(0x40)\n      dup1\n      swap2\n      sub\n      swap1\n      return\n        /* \"contracts/BusinessConsensus.sol\":846:882  uint256 public AccumulatedPercentage */\n    tag_9:\n      tag_49\n      tag_50\n      jump\t// in\n    tag_49:\n      mload(0x40)\n      tag_51\n      swap2\n      swap1\n      tag_52\n      jump\t// in\n    tag_51:\n      mload(0x40)\n      dup1\n      swap2\n      sub\n      swap1\n      return\n        /* \"contracts/BusinessConsensus.sol\":889:916  uint256 public numApprovals */\n    tag_10:\n      tag_53\n      tag_54\n      jump\t// in\n    tag_53:\n      mload(0x40)\n      tag_55\n      swap2\n      swap1\n      tag_52\n      jump\t// in\n    tag_55:\n      mload(0x40)\n      dup1\n      swap2\n      sub\n      swap1\n      return\n        /* \"contracts/BusinessConsensus.sol\":1163:1187  Proposal public proposal */\n    tag_11:\n      tag_56\n      tag_57\n      jump\t// in\n    tag_56:\n      mload(0x40)\n      tag_58\n      swap3\n      swap2\n      swap1\n      tag_59\n      jump\t// in\n    tag_58:\n      mload(0x40)\n      dup1\n      swap2\n      sub\n      swap1\n      return\n        /* \"contracts/BusinessConsensus.sol\":4954:5196  function retrieve_bundle() external view returns (bytes32, Proposal memory, Voter[] memory){\r... */\n    tag_12:\n      tag_60\n      tag_61\n      jump\t// in\n    tag_60:\n      mload(0x40)\n      tag_62\n      swap4\n      swap3\n      swap2\n      swap1\n      tag_63\n      jump\t// in\n    tag_62:\n      mload(0x40)\n      dup1\n      swap2\n      sub\n      swap1\n      return\n        /* \"contracts/BusinessConsensus.sol\":4225:4946  function Consensus() external {\r... */\n    tag_13:\n      tag_64\n      tag_65\n      jump\t// in\n    tag_64:\n      stop\n        /* \"contracts/BusinessConsensus.sol\":1043:1086  mapping(address => Voter) public voters_map */\n    tag_14:\n      tag_66\n      0x04\n      dup1\n      calldatasize\n      sub\n      dup2\n      add\n      swap1\n      tag_67\n      swap2\n      swap1\n      tag_31\n      jump\t// in\n    tag_67:\n      tag_68\n      jump\t// in\n    tag_66:\n      mload(0x40)\n      tag_69\n      swap4\n      swap3\n      swap2\n      swap1\n      tag_45\n      jump\t// in\n    tag_69:\n      mload(0x40)\n      dup1\n      swap2\n      sub\n      swap1\n      return\n        /* \"contracts/BusinessConsensus.sol\":1896:2086  function getParameters() external view returns (string memory, uint , address ,uint ,uint){\r... */\n    tag_15:\n      tag_70\n      tag_71\n      jump\t// in\n    tag_70:\n      mload(0x40)\n      tag_72\n      swap6\n      swap5\n      swap4\n      swap3\n      swap2\n      swap1\n      tag_73\n      jump\t// in\n    tag_72:\n      mload(0x40)\n      dup1\n      swap2\n      sub\n      swap1\n      return\n        /* \"contracts/BusinessConsensus.sol\":925:954  uint256 public numberCompiled */\n    tag_16:\n      tag_74\n      tag_75\n      jump\t// in\n    tag_74:\n      mload(0x40)\n      tag_76\n      swap2\n      swap1\n      tag_52\n      jump\t// in\n    tag_76:\n      mload(0x40)\n      dup1\n      swap2\n      sub\n      swap1\n      return\n        /* \"contracts/BusinessConsensus.sol\":805:839  uint256 public BusinessRequirement */\n    tag_17:\n      tag_77\n      tag_78\n      jump\t// in\n    tag_77:\n      mload(0x40)\n      tag_79\n      swap2\n      swap1\n      tag_52\n      jump\t// in\n    tag_79:\n      mload(0x40)\n      dup1\n      swap2\n      sub\n      swap1\n      return\n        /* \"contracts/BusinessConsensus.sol\":1013:1034  Voter[] public voters */\n    tag_18:\n      tag_80\n      0x04\n      dup1\n      calldatasize\n      sub\n      dup2\n      add\n      swap1\n      tag_81\n      swap2\n      swap1\n      tag_25\n      jump\t// in\n    tag_81:\n      tag_82\n      jump\t// in\n    tag_80:\n      mload(0x40)\n      tag_83\n      swap4\n      swap3\n      swap2\n      swap1\n      tag_45\n      jump\t// in\n    tag_83:\n      mload(0x40)\n      dup1\n      swap2\n      sub\n      swap1\n      return\n        /* \"contracts/BusinessConsensus.sol\":596:626  address public contractAddress */\n    tag_19:\n      tag_84\n      tag_85\n      jump\t// in\n    tag_84:\n      mload(0x40)\n      tag_86\n      swap2\n      swap1\n      tag_28\n      jump\t// in\n    tag_86:\n      mload(0x40)\n      dup1\n      swap2\n      sub\n      swap1\n      return\n        /* \"contracts/BusinessConsensus.sol\":729:750  address[] public keys */\n    tag_26:\n      0x02\n      dup2\n      dup2\n      sload\n      dup2\n      lt\n      tag_87\n      jumpi\n      0x00\n      dup1\n      revert\n    tag_87:\n      swap1\n      0x00\n      mstore\n      keccak256(0x00, 0x20)\n      add\n      0x00\n      swap2\n      pop\n      sload\n      swap1\n      0x0100\n      exp\n      swap1\n      div\n      0xffffffffffffffffffffffffffffffffffffffff\n      and\n      dup2\n      jump\t// out\n        /* \"contracts/BusinessConsensus.sol\":2412:3056  function RegisterVoter(address voter) external {\r... */\n    tag_32:\n        /* \"contracts/BusinessConsensus.sol\":2580:2589  initiator */\n      0x01\n      0x00\n      swap1\n      sload\n      swap1\n      0x0100\n      exp\n      swap1\n      div\n      0xffffffffffffffffffffffffffffffffffffffff\n      and\n        /* \"contracts/BusinessConsensus.sol\":2566:2589  msg.sender == initiator */\n      0xffffffffffffffffffffffffffffffffffffffff\n      and\n        /* \"contracts/BusinessConsensus.sol\":2566:2576  msg.sender */\n      caller\n        /* \"contracts/BusinessConsensus.sol\":2566:2589  msg.sender == initiator */\n      0xffffffffffffffffffffffffffffffffffffffff\n      and\n      eq\n        /* \"contracts/BusinessConsensus.sol\":2544:2657  require(\r... */\n      tag_90\n      jumpi\n      mload(0x40)\n      0x08c379a000000000000000000000000000000000000000000000000000000000\n      dup2\n      mstore\n      0x04\n      add\n      tag_91\n      swap1\n      tag_92\n      jump\t// in\n    tag_91:\n      mload(0x40)\n      dup1\n      swap2\n      sub\n      swap1\n      revert\n    tag_90:\n        /* \"contracts/BusinessConsensus.sol\":2685:2694  initiator */\n      0x01\n      0x00\n      swap1\n      sload\n      swap1\n      0x0100\n      exp\n      swap1\n      div\n      0xffffffffffffffffffffffffffffffffffffffff\n      and\n        /* \"contracts/BusinessConsensus.sol\":2676:2694  voter != initiator */\n      0xffffffffffffffffffffffffffffffffffffffff\n      and\n        /* \"contracts/BusinessConsensus.sol\":2676:2681  voter */\n      dup2\n        /* \"contracts/BusinessConsensus.sol\":2676:2694  voter != initiator */\n      0xffffffffffffffffffffffffffffffffffffffff\n      and\n      eq\n      iszero\n        /* \"contracts/BusinessConsensus.sol\":2668:2720  require(voter != initiator, \"Initiator can't vote!\") */\n      tag_93\n      jumpi\n      mload(0x40)\n      0x08c379a000000000000000000000000000000000000000000000000000000000\n      dup2\n      mstore\n      0x04\n      add\n      tag_94\n      swap1\n      tag_95\n      jump\t// in\n    tag_94:\n      mload(0x40)\n      dup1\n      swap2\n      sub\n      swap1\n      revert\n    tag_93:\n        /* \"contracts/BusinessConsensus.sol\":2780:2781  0 */\n      0x00\n        /* \"contracts/BusinessConsensus.sol\":2741:2782  voters_map[voter].recipient == address(0) */\n      0xffffffffffffffffffffffffffffffffffffffff\n      and\n        /* \"contracts/BusinessConsensus.sol\":2741:2751  voters_map */\n      0x0a\n        /* \"contracts/BusinessConsensus.sol\":2741:2758  voters_map[voter] */\n      0x00\n        /* \"contracts/BusinessConsensus.sol\":2752:2757  voter */\n      dup4\n        /* \"contracts/BusinessConsensus.sol\":2741:2758  voters_map[voter] */\n      0xffffffffffffffffffffffffffffffffffffffff\n      and\n      0xffffffffffffffffffffffffffffffffffffffff\n      and\n      dup2\n      mstore\n      0x20\n      add\n      swap1\n      dup2\n      mstore\n      0x20\n      add\n      0x00\n      keccak256\n        /* \"contracts/BusinessConsensus.sol\":2741:2768  voters_map[voter].recipient */\n      0x00\n      add\n      0x02\n      swap1\n      sload\n      swap1\n      0x0100\n      exp\n      swap1\n      div\n      0xffffffffffffffffffffffffffffffffffffffff\n      and\n        /* \"contracts/BusinessConsensus.sol\":2741:2782  voters_map[voter].recipient == address(0) */\n      0xffffffffffffffffffffffffffffffffffffffff\n      and\n      eq\n        /* \"contracts/BusinessConsensus.sol\":2733:2818  require(voters_map[voter].recipient == address(0), \"Recipient is already registered\") */\n      tag_96\n      jumpi\n      mload(0x40)\n      0x08c379a000000000000000000000000000000000000000000000000000000000\n      dup2\n      mstore\n      0x04\n      add\n      tag_97\n      swap1\n      tag_98\n      jump\t// in\n    tag_97:\n      mload(0x40)\n      dup1\n      swap2\n      sub\n      swap1\n      revert\n    tag_96:\n        /* \"contracts/BusinessConsensus.sol\":2857:2867  expiryDate */\n      sload(0x03)\n        /* \"contracts/BusinessConsensus.sol\":2839:2854  block.timestamp */\n      timestamp\n        /* \"contracts/BusinessConsensus.sol\":2839:2867  block.timestamp < expiryDate */\n      lt\n        /* \"contracts/BusinessConsensus.sol\":2831:2908  require(block.timestamp < expiryDate, \"Proposal has reached its expiry date\") */\n      tag_99\n      jumpi\n      mload(0x40)\n      0x08c379a000000000000000000000000000000000000000000000000000000000\n      dup2\n      mstore\n      0x04\n      add\n      tag_100\n      swap1\n      tag_101\n      jump\t// in\n    tag_100:\n      mload(0x40)\n      dup1\n      swap2\n      sub\n      swap1\n      revert\n    tag_99:\n        /* \"contracts/BusinessConsensus.sol\":2921:2935  Voter memory x */\n      0x00\n        /* \"contracts/BusinessConsensus.sol\":2938:2989  Voter({voted: false,recipient: voter, vote: false}) */\n      mload(0x40)\n      dup1\n      0x60\n      add\n      0x40\n      mstore\n      dup1\n        /* \"contracts/BusinessConsensus.sol\":2952:2957  false */\n      0x00\n        /* \"contracts/BusinessConsensus.sol\":2938:2989  Voter({voted: false,recipient: voter, vote: false}) */\n      iszero\n      iszero\n      dup2\n      mstore\n      0x20\n      add\n        /* \"contracts/BusinessConsensus.sol\":2982:2987  false */\n      0x00\n        /* \"contracts/BusinessConsensus.sol\":2938:2989  Voter({voted: false,recipient: voter, vote: false}) */\n      iszero\n      iszero\n      dup2\n      mstore\n      0x20\n      add\n        /* \"contracts/BusinessConsensus.sol\":2969:2974  voter */\n      dup4\n        /* \"contracts/BusinessConsensus.sol\":2938:2989  Voter({voted: false,recipient: voter, vote: false}) */\n      0xffffffffffffffffffffffffffffffffffffffff\n      and\n      dup2\n      mstore\n      pop\n        /* \"contracts/BusinessConsensus.sol\":2921:2989  Voter memory x = Voter({voted: false,recipient: voter, vote: false}) */\n      swap1\n      pop\n        /* \"contracts/BusinessConsensus.sol\":3020:3021  x */\n      dup1\n        /* \"contracts/BusinessConsensus.sol\":3000:3010  voters_map */\n      0x0a\n        /* \"contracts/BusinessConsensus.sol\":3000:3017  voters_map[voter] */\n      0x00\n        /* \"contracts/BusinessConsensus.sol\":3011:3016  voter */\n      dup5\n        /* \"contracts/BusinessConsensus.sol\":3000:3017  voters_map[voter] */\n      0xffffffffffffffffffffffffffffffffffffffff\n      and\n      0xffffffffffffffffffffffffffffffffffffffff\n      and\n      dup2\n      mstore\n      0x20\n      add\n      swap1\n      dup2\n      mstore\n      0x20\n      add\n      0x00\n      keccak256\n        /* \"contracts/BusinessConsensus.sol\":3000:3021  voters_map[voter] = x */\n      0x00\n      dup3\n      add\n      mload\n      dup2\n      0x00\n      add\n      exp(0x0100, 0x00)\n      dup2\n      sload\n      dup2\n      0xff\n      mul\n      not\n      and\n      swap1\n      dup4\n      iszero\n      iszero\n      mul\n      or\n      swap1\n      sstore\n      pop\n      0x20\n      dup3\n      add\n      mload\n      dup2\n      0x00\n      add\n      exp(0x0100, 0x01)\n      dup2\n      sload\n      dup2\n      0xff\n      mul\n      not\n      and\n      swap1\n      dup4\n      iszero\n      iszero\n      mul\n      or\n      swap1\n      sstore\n      pop\n      0x40\n      dup3\n      add\n      mload\n      dup2\n      0x00\n      add\n      exp(0x0100, 0x02)\n      dup2\n      sload\n      dup2\n      0xffffffffffffffffffffffffffffffffffffffff\n      mul\n      not\n      and\n      swap1\n      dup4\n      0xffffffffffffffffffffffffffffffffffffffff\n      and\n      mul\n      or\n      swap1\n      sstore\n      pop\n      swap1\n      pop\n      pop\n        /* \"contracts/BusinessConsensus.sol\":3032:3036  keys */\n      0x02\n        /* \"contracts/BusinessConsensus.sol\":3042:3047  voter */\n      dup3\n        /* \"contracts/BusinessConsensus.sol\":3032:3048  keys.push(voter) */\n      swap1\n      dup1\n      0x01\n      dup2\n      sload\n      add\n      dup1\n      dup3\n      sstore\n      dup1\n      swap2\n      pop\n      pop\n      0x01\n      swap1\n      sub\n      swap1\n      0x00\n      mstore\n      keccak256(0x00, 0x20)\n      add\n      0x00\n      swap1\n      swap2\n      swap1\n      swap2\n      swap1\n      swap2\n      0x0100\n      exp\n      dup2\n      sload\n      dup2\n      0xffffffffffffffffffffffffffffffffffffffff\n      mul\n      not\n      and\n      swap1\n      dup4\n      0xffffffffffffffffffffffffffffffffffffffff\n      and\n      mul\n      or\n      swap1\n      sstore\n      pop\n        /* \"contracts/BusinessConsensus.sol\":2459:3056  {\r... */\n      pop\n        /* \"contracts/BusinessConsensus.sol\":2412:3056  function RegisterVoter(address voter) external {\r... */\n      pop\n      jump\t// out\n        /* \"contracts/BusinessConsensus.sol\":1790:1890  function getValues() public view returns (string memory){\r... */\n    tag_34:\n        /* \"contracts/BusinessConsensus.sol\":1832:1845  string memory */\n      0x60\n        /* \"contracts/BusinessConsensus.sol\":1864:1872  proposal */\n      0x0b\n        /* \"contracts/BusinessConsensus.sol\":1864:1882  proposal.messageID */\n      0x01\n      add\n        /* \"contracts/BusinessConsensus.sol\":1857:1882  return proposal.messageID */\n      dup1\n      sload\n      tag_104\n      swap1\n      tag_105\n      jump\t// in\n    tag_104:\n      dup1\n      0x1f\n      add\n      0x20\n      dup1\n      swap2\n      div\n      mul\n      0x20\n      add\n      mload(0x40)\n      swap1\n      dup2\n      add\n      0x40\n      mstore\n      dup1\n      swap3\n      swap2\n      swap1\n      dup2\n      dup2\n      mstore\n      0x20\n      add\n      dup3\n      dup1\n      sload\n      tag_106\n      swap1\n      tag_105\n      jump\t// in\n    tag_106:\n      dup1\n      iszero\n      tag_107\n      jumpi\n      dup1\n      0x1f\n      lt\n      tag_108\n      jumpi\n      0x0100\n      dup1\n      dup4\n      sload\n      div\n      mul\n      dup4\n      mstore\n      swap2\n      0x20\n      add\n      swap2\n      jump(tag_107)\n    tag_108:\n      dup3\n      add\n      swap2\n      swap1\n      0x00\n      mstore\n      keccak256(0x00, 0x20)\n      swap1\n    tag_109:\n      dup2\n      sload\n      dup2\n      mstore\n      swap1\n      0x01\n      add\n      swap1\n      0x20\n      add\n      dup1\n      dup4\n      gt\n      tag_109\n      jumpi\n      dup3\n      swap1\n      sub\n      0x1f\n      and\n      dup3\n      add\n      swap2\n    tag_107:\n      pop\n      pop\n      pop\n      pop\n      pop\n      swap1\n      pop\n        /* \"contracts/BusinessConsensus.sol\":1790:1890  function getValues() public view returns (string memory){\r... */\n      swap1\n      jump\t// out\n        /* \"contracts/BusinessConsensus.sol\":3064:4161  function Vote(string memory response) external {\r... */\n    tag_40:\n        /* \"contracts/BusinessConsensus.sol\":3150:3160  expiryDate */\n      sload(0x03)\n        /* \"contracts/BusinessConsensus.sol\":3132:3147  block.timestamp */\n      timestamp\n        /* \"contracts/BusinessConsensus.sol\":3132:3160  block.timestamp < expiryDate */\n      lt\n        /* \"contracts/BusinessConsensus.sol\":3124:3183  require(block.timestamp < expiryDate, \"Voting has expired\") */\n      tag_111\n      jumpi\n      mload(0x40)\n      0x08c379a000000000000000000000000000000000000000000000000000000000\n      dup2\n      mstore\n      0x04\n      add\n      tag_112\n      swap1\n      tag_113\n      jump\t// in\n    tag_112:\n      mload(0x40)\n      dup1\n      swap2\n      sub\n      swap1\n      revert\n    tag_111:\n        /* \"contracts/BusinessConsensus.sol\":3246:3249  0x0 */\n      0x00\n        /* \"contracts/BusinessConsensus.sol\":3202:3250  voters_map[msg.sender].recipient != address(0x0) */\n      0xffffffffffffffffffffffffffffffffffffffff\n      and\n        /* \"contracts/BusinessConsensus.sol\":3202:3212  voters_map */\n      0x0a\n        /* \"contracts/BusinessConsensus.sol\":3202:3224  voters_map[msg.sender] */\n      0x00\n        /* \"contracts/BusinessConsensus.sol\":3213:3223  msg.sender */\n      caller\n        /* \"contracts/BusinessConsensus.sol\":3202:3224  voters_map[msg.sender] */\n      0xffffffffffffffffffffffffffffffffffffffff\n      and\n      0xffffffffffffffffffffffffffffffffffffffff\n      and\n      dup2\n      mstore\n      0x20\n      add\n      swap1\n      dup2\n      mstore\n      0x20\n      add\n      0x00\n      keccak256\n        /* \"contracts/BusinessConsensus.sol\":3202:3234  voters_map[msg.sender].recipient */\n      0x00\n      add\n      0x02\n      swap1\n      sload\n      swap1\n      0x0100\n      exp\n      swap1\n      div\n      0xffffffffffffffffffffffffffffffffffffffff\n      and\n        /* \"contracts/BusinessConsensus.sol\":3202:3250  voters_map[msg.sender].recipient != address(0x0) */\n      0xffffffffffffffffffffffffffffffffffffffff\n      and\n      eq\n      iszero\n        /* \"contracts/BusinessConsensus.sol\":3194:3285  require(voters_map[msg.sender].recipient != address(0x0), \"You are not registered to vote\") */\n      tag_114\n      jumpi\n      mload(0x40)\n      0x08c379a000000000000000000000000000000000000000000000000000000000\n      dup2\n      mstore\n      0x04\n      add\n      tag_115\n      swap1\n      tag_116\n      jump\t// in\n    tag_115:\n      mload(0x40)\n      dup1\n      swap2\n      sub\n      swap1\n      revert\n    tag_114:\n        /* \"contracts/BusinessConsensus.sol\":3305:3315  voters_map */\n      0x0a\n        /* \"contracts/BusinessConsensus.sol\":3305:3327  voters_map[msg.sender] */\n      0x00\n        /* \"contracts/BusinessConsensus.sol\":3316:3326  msg.sender */\n      caller\n        /* \"contracts/BusinessConsensus.sol\":3305:3327  voters_map[msg.sender] */\n      0xffffffffffffffffffffffffffffffffffffffff\n      and\n      0xffffffffffffffffffffffffffffffffffffffff\n      and\n      dup2\n      mstore\n      0x20\n      add\n      swap1\n      dup2\n      mstore\n      0x20\n      add\n      0x00\n      keccak256\n        /* \"contracts/BusinessConsensus.sol\":3305:3333  voters_map[msg.sender].voted */\n      0x00\n      add\n      0x00\n      swap1\n      sload\n      swap1\n      0x0100\n      exp\n      swap1\n      div\n      0xff\n      and\n        /* \"contracts/BusinessConsensus.sol\":3304:3333  !voters_map[msg.sender].voted */\n      iszero\n        /* \"contracts/BusinessConsensus.sol\":3296:3366  require(!voters_map[msg.sender].voted, \"You already sent a response.\") */\n      tag_117\n      jumpi\n      mload(0x40)\n      0x08c379a000000000000000000000000000000000000000000000000000000000\n      dup2\n      mstore\n      0x04\n      add\n      tag_118\n      swap1\n      tag_119\n      jump\t// in\n    tag_118:\n      mload(0x40)\n      dup1\n      swap2\n      sub\n      swap1\n      revert\n    tag_117:\n        /* \"contracts/BusinessConsensus.sol\":3422:3440  bytes(\"i approve\") */\n      mload(0x40)\n      dup1\n      0x40\n      add\n      0x40\n      mstore\n      dup1\n      0x09\n      dup2\n      mstore\n      0x20\n      add\n      0x6920617070726f76650000000000000000000000000000000000000000000000\n      dup2\n      mstore\n      pop\n        /* \"contracts/BusinessConsensus.sol\":3412:3441  keccak256(bytes(\"i approve\")) */\n      dup1\n      mload\n      swap1\n      0x20\n      add\n      keccak256\n        /* \"contracts/BusinessConsensus.sol\":3398:3406  response */\n      dup2\n        /* \"contracts/BusinessConsensus.sol\":3382:3408  keccak256(bytes(response)) */\n      dup1\n      mload\n      swap1\n      0x20\n      add\n      keccak256\n        /* \"contracts/BusinessConsensus.sol\":3382:3441  keccak256(bytes(response)) == keccak256(bytes(\"i approve\")) */\n      eq\n        /* \"contracts/BusinessConsensus.sol\":3379:4144  if(keccak256(bytes(response)) == keccak256(bytes(\"i approve\"))){\r... */\n      iszero\n      tag_120\n      jumpi\n        /* \"contracts/BusinessConsensus.sol\":3488:3492  true */\n      0x01\n        /* \"contracts/BusinessConsensus.sol\":3457:3467  voters_map */\n      0x0a\n        /* \"contracts/BusinessConsensus.sol\":3457:3479  voters_map[msg.sender] */\n      0x00\n        /* \"contracts/BusinessConsensus.sol\":3468:3478  msg.sender */\n      caller\n        /* \"contracts/BusinessConsensus.sol\":3457:3479  voters_map[msg.sender] */\n      0xffffffffffffffffffffffffffffffffffffffff\n      and\n      0xffffffffffffffffffffffffffffffffffffffff\n      and\n      dup2\n      mstore\n      0x20\n      add\n      swap1\n      dup2\n      mstore\n      0x20\n      add\n      0x00\n      keccak256\n        /* \"contracts/BusinessConsensus.sol\":3457:3485  voters_map[msg.sender].voted */\n      0x00\n      add\n      0x00\n        /* \"contracts/BusinessConsensus.sol\":3457:3492  voters_map[msg.sender].voted = true */\n      0x0100\n      exp\n      dup2\n      sload\n      dup2\n      0xff\n      mul\n      not\n      and\n      swap1\n      dup4\n      iszero\n      iszero\n      mul\n      or\n      swap1\n      sstore\n      pop\n        /* \"contracts/BusinessConsensus.sol\":3537:3541  true */\n      0x01\n        /* \"contracts/BusinessConsensus.sol\":3507:3517  voters_map */\n      0x0a\n        /* \"contracts/BusinessConsensus.sol\":3507:3529  voters_map[msg.sender] */\n      0x00\n        /* \"contracts/BusinessConsensus.sol\":3518:3528  msg.sender */\n      caller\n        /* \"contracts/BusinessConsensus.sol\":3507:3529  voters_map[msg.sender] */\n      0xffffffffffffffffffffffffffffffffffffffff\n      and\n      0xffffffffffffffffffffffffffffffffffffffff\n      and\n      dup2\n      mstore\n      0x20\n      add\n      swap1\n      dup2\n      mstore\n      0x20\n      add\n      0x00\n      keccak256\n        /* \"contracts/BusinessConsensus.sol\":3507:3534  voters_map[msg.sender].vote */\n      0x00\n      add\n      0x01\n        /* \"contracts/BusinessConsensus.sol\":3507:3541  voters_map[msg.sender].vote = true */\n      0x0100\n      exp\n      dup2\n      sload\n      dup2\n      0xff\n      mul\n      not\n      and\n      swap1\n      dup4\n      iszero\n      iszero\n      mul\n      or\n      swap1\n      sstore\n      pop\n        /* \"contracts/BusinessConsensus.sol\":3572:3573  1 */\n      0x01\n        /* \"contracts/BusinessConsensus.sol\":3556:3568  numApprovals */\n      0x06\n      0x00\n        /* \"contracts/BusinessConsensus.sol\":3556:3573  numApprovals += 1 */\n      dup3\n      dup3\n      sload\n      tag_121\n      swap2\n      swap1\n      tag_122\n      jump\t// in\n    tag_121:\n      swap3\n      pop\n      pop\n      dup2\n      swap1\n      sstore\n      pop\n        /* \"contracts/BusinessConsensus.sol\":3610:3611  1 */\n      0x01\n        /* \"contracts/BusinessConsensus.sol\":3588:3596  proposal */\n      0x0b\n        /* \"contracts/BusinessConsensus.sol\":3588:3606  proposal.voteCount */\n      0x00\n      add\n      0x00\n        /* \"contracts/BusinessConsensus.sol\":3588:3611  proposal.voteCount += 1 */\n      dup3\n      dup3\n      sload\n      tag_123\n      swap2\n      swap1\n      tag_122\n      jump\t// in\n    tag_123:\n      swap3\n      pop\n      pop\n      dup2\n      swap1\n      sstore\n      pop\n        /* \"contracts/BusinessConsensus.sol\":3626:3632  voters */\n      0x09\n        /* \"contracts/BusinessConsensus.sol\":3638:3648  voters_map */\n      0x0a\n        /* \"contracts/BusinessConsensus.sol\":3638:3660  voters_map[msg.sender] */\n      0x00\n        /* \"contracts/BusinessConsensus.sol\":3649:3659  msg.sender */\n      caller\n        /* \"contracts/BusinessConsensus.sol\":3638:3660  voters_map[msg.sender] */\n      0xffffffffffffffffffffffffffffffffffffffff\n      and\n      0xffffffffffffffffffffffffffffffffffffffff\n      and\n      dup2\n      mstore\n      0x20\n      add\n      swap1\n      dup2\n      mstore\n      0x20\n      add\n      0x00\n      keccak256\n        /* \"contracts/BusinessConsensus.sol\":3626:3661  voters.push(voters_map[msg.sender]) */\n      swap1\n      dup1\n      0x01\n      dup2\n      sload\n      add\n      dup1\n      dup3\n      sstore\n      dup1\n      swap2\n      pop\n      pop\n      0x01\n      swap1\n      sub\n      swap1\n      0x00\n      mstore\n      keccak256(0x00, 0x20)\n      add\n      0x00\n      swap1\n      swap2\n      swap1\n      swap2\n      swap1\n      swap2\n      pop\n      0x00\n      dup3\n      add\n      0x00\n      swap1\n      sload\n      swap1\n      0x0100\n      exp\n      swap1\n      div\n      0xff\n      and\n      dup2\n      0x00\n      add\n      exp(0x0100, 0x00)\n      dup2\n      sload\n      dup2\n      0xff\n      mul\n      not\n      and\n      swap1\n      dup4\n      iszero\n      iszero\n      mul\n      or\n      swap1\n      sstore\n      pop\n      0x00\n      dup3\n      add\n      0x01\n      swap1\n      sload\n      swap1\n      0x0100\n      exp\n      swap1\n      div\n      0xff\n      and\n      dup2\n      0x00\n      add\n      exp(0x0100, 0x01)\n      dup2\n      sload\n      dup2\n      0xff\n      mul\n      not\n      and\n      swap1\n      dup4\n      iszero\n      iszero\n      mul\n      or\n      swap1\n      sstore\n      pop\n      0x00\n      dup3\n      add\n      0x02\n      swap1\n      sload\n      swap1\n      0x0100\n      exp\n      swap1\n      div\n      0xffffffffffffffffffffffffffffffffffffffff\n      and\n      dup2\n      0x00\n      add\n      exp(0x0100, 0x02)\n      dup2\n      sload\n      dup2\n      0xffffffffffffffffffffffffffffffffffffffff\n      mul\n      not\n      and\n      swap1\n      dup4\n      0xffffffffffffffffffffffffffffffffffffffff\n      and\n      mul\n      or\n      swap1\n      sstore\n      pop\n      pop\n      pop\n        /* \"contracts/BusinessConsensus.sol\":3379:4144  if(keccak256(bytes(response)) == keccak256(bytes(\"i approve\"))){\r... */\n      jump(tag_125)\n    tag_120:\n        /* \"contracts/BusinessConsensus.sol\":3733:3754  bytes(\"i disapprove\") */\n      mload(0x40)\n      dup1\n      0x40\n      add\n      0x40\n      mstore\n      dup1\n      0x0c\n      dup2\n      mstore\n      0x20\n      add\n      0x6920646973617070726f76650000000000000000000000000000000000000000\n      dup2\n      mstore\n      pop\n        /* \"contracts/BusinessConsensus.sol\":3723:3755  keccak256(bytes(\"i disapprove\")) */\n      dup1\n      mload\n      swap1\n      0x20\n      add\n      keccak256\n        /* \"contracts/BusinessConsensus.sol\":3709:3717  response */\n      dup2\n        /* \"contracts/BusinessConsensus.sol\":3693:3719  keccak256(bytes(response)) */\n      dup1\n      mload\n      swap1\n      0x20\n      add\n      keccak256\n        /* \"contracts/BusinessConsensus.sol\":3693:3755  keccak256(bytes(response)) == keccak256(bytes(\"i disapprove\")) */\n      eq\n        /* \"contracts/BusinessConsensus.sol\":3690:4144  if(keccak256(bytes(response)) == keccak256(bytes(\"i disapprove\"))){\r... */\n      iszero\n      tag_126\n      jumpi\n        /* \"contracts/BusinessConsensus.sol\":3802:3806  true */\n      0x01\n        /* \"contracts/BusinessConsensus.sol\":3771:3781  voters_map */\n      0x0a\n        /* \"contracts/BusinessConsensus.sol\":3771:3793  voters_map[msg.sender] */\n      0x00\n        /* \"contracts/BusinessConsensus.sol\":3782:3792  msg.sender */\n      caller\n        /* \"contracts/BusinessConsensus.sol\":3771:3793  voters_map[msg.sender] */\n      0xffffffffffffffffffffffffffffffffffffffff\n      and\n      0xffffffffffffffffffffffffffffffffffffffff\n      and\n      dup2\n      mstore\n      0x20\n      add\n      swap1\n      dup2\n      mstore\n      0x20\n      add\n      0x00\n      keccak256\n        /* \"contracts/BusinessConsensus.sol\":3771:3799  voters_map[msg.sender].voted */\n      0x00\n      add\n      0x00\n        /* \"contracts/BusinessConsensus.sol\":3771:3806  voters_map[msg.sender].voted = true */\n      0x0100\n      exp\n      dup2\n      sload\n      dup2\n      0xff\n      mul\n      not\n      and\n      swap1\n      dup4\n      iszero\n      iszero\n      mul\n      or\n      swap1\n      sstore\n      pop\n        /* \"contracts/BusinessConsensus.sol\":3843:3844  1 */\n      0x01\n        /* \"contracts/BusinessConsensus.sol\":3821:3829  proposal */\n      0x0b\n        /* \"contracts/BusinessConsensus.sol\":3821:3839  proposal.voteCount */\n      0x00\n      add\n      0x00\n        /* \"contracts/BusinessConsensus.sol\":3821:3844  proposal.voteCount += 1 */\n      dup3\n      dup3\n      sload\n      tag_127\n      swap2\n      swap1\n      tag_122\n      jump\t// in\n    tag_127:\n      swap3\n      pop\n      pop\n      dup2\n      swap1\n      sstore\n      pop\n        /* \"contracts/BusinessConsensus.sol\":3859:3865  voters */\n      0x09\n        /* \"contracts/BusinessConsensus.sol\":3871:3881  voters_map */\n      0x0a\n        /* \"contracts/BusinessConsensus.sol\":3871:3893  voters_map[msg.sender] */\n      0x00\n        /* \"contracts/BusinessConsensus.sol\":3882:3892  msg.sender */\n      caller\n        /* \"contracts/BusinessConsensus.sol\":3871:3893  voters_map[msg.sender] */\n      0xffffffffffffffffffffffffffffffffffffffff\n      and\n      0xffffffffffffffffffffffffffffffffffffffff\n      and\n      dup2\n      mstore\n      0x20\n      add\n      swap1\n      dup2\n      mstore\n      0x20\n      add\n      0x00\n      keccak256\n        /* \"contracts/BusinessConsensus.sol\":3859:3894  voters.push(voters_map[msg.sender]) */\n      swap1\n      dup1\n      0x01\n      dup2\n      sload\n      add\n      dup1\n      dup3\n      sstore\n      dup1\n      swap2\n      pop\n      pop\n      0x01\n      swap1\n      sub\n      swap1\n      0x00\n      mstore\n      keccak256(0x00, 0x20)\n      add\n      0x00\n      swap1\n      swap2\n      swap1\n      swap2\n      swap1\n      swap2\n      pop\n      0x00\n      dup3\n      add\n      0x00\n      swap1\n      sload\n      swap1\n      0x0100\n      exp\n      swap1\n      div\n      0xff\n      and\n      dup2\n      0x00\n      add\n      exp(0x0100, 0x00)\n      dup2\n      sload\n      dup2\n      0xff\n      mul\n      not\n      and\n      swap1\n      dup4\n      iszero\n      iszero\n      mul\n      or\n      swap1\n      sstore\n      pop\n      0x00\n      dup3\n      add\n      0x01\n      swap1\n      sload\n      swap1\n      0x0100\n      exp\n      swap1\n      div\n      0xff\n      and\n      dup2\n      0x00\n      add\n      exp(0x0100, 0x01)\n      dup2\n      sload\n      dup2\n      0xff\n      mul\n      not\n      and\n      swap1\n      dup4\n      iszero\n      iszero\n      mul\n      or\n      swap1\n      sstore\n      pop\n      0x00\n      dup3\n      add\n      0x02\n      swap1\n      sload\n      swap1\n      0x0100\n      exp\n      swap1\n      div\n      0xffffffffffffffffffffffffffffffffffffffff\n      and\n      dup2\n      0x00\n      add\n      exp(0x0100, 0x02)\n      dup2\n      sload\n      dup2\n      0xffffffffffffffffffffffffffffffffffffffff\n      mul\n      not\n      and\n      swap1\n      dup4\n      0xffffffffffffffffffffffffffffffffffffffff\n      and\n      mul\n      or\n      swap1\n      sstore\n      pop\n      pop\n      pop\n        /* \"contracts/BusinessConsensus.sol\":3690:4144  if(keccak256(bytes(response)) == keccak256(bytes(\"i disapprove\"))){\r... */\n      jump(tag_129)\n    tag_126:\n        /* \"contracts/BusinessConsensus.sol\":4040:4044  true */\n      0x01\n        /* \"contracts/BusinessConsensus.sol\":4009:4019  voters_map */\n      0x0a\n        /* \"contracts/BusinessConsensus.sol\":4009:4031  voters_map[msg.sender] */\n      0x00\n        /* \"contracts/BusinessConsensus.sol\":4020:4030  msg.sender */\n      caller\n        /* \"contracts/BusinessConsensus.sol\":4009:4031  voters_map[msg.sender] */\n      0xffffffffffffffffffffffffffffffffffffffff\n      and\n      0xffffffffffffffffffffffffffffffffffffffff\n      and\n      dup2\n      mstore\n      0x20\n      add\n      swap1\n      dup2\n      mstore\n      0x20\n      add\n      0x00\n      keccak256\n        /* \"contracts/BusinessConsensus.sol\":4009:4037  voters_map[msg.sender].voted */\n      0x00\n      add\n      0x00\n        /* \"contracts/BusinessConsensus.sol\":4009:4044  voters_map[msg.sender].voted = true */\n      0x0100\n      exp\n      dup2\n      sload\n      dup2\n      0xff\n      mul\n      not\n      and\n      swap1\n      dup4\n      iszero\n      iszero\n      mul\n      or\n      swap1\n      sstore\n      pop\n        /* \"contracts/BusinessConsensus.sol\":4081:4082  1 */\n      0x01\n        /* \"contracts/BusinessConsensus.sol\":4059:4067  proposal */\n      0x0b\n        /* \"contracts/BusinessConsensus.sol\":4059:4077  proposal.voteCount */\n      0x00\n      add\n      0x00\n        /* \"contracts/BusinessConsensus.sol\":4059:4082  proposal.voteCount += 1 */\n      dup3\n      dup3\n      sload\n      tag_130\n      swap2\n      swap1\n      tag_122\n      jump\t// in\n    tag_130:\n      swap3\n      pop\n      pop\n      dup2\n      swap1\n      sstore\n      pop\n        /* \"contracts/BusinessConsensus.sol\":4097:4103  voters */\n      0x09\n        /* \"contracts/BusinessConsensus.sol\":4109:4119  voters_map */\n      0x0a\n        /* \"contracts/BusinessConsensus.sol\":4109:4131  voters_map[msg.sender] */\n      0x00\n        /* \"contracts/BusinessConsensus.sol\":4120:4130  msg.sender */\n      caller\n        /* \"contracts/BusinessConsensus.sol\":4109:4131  voters_map[msg.sender] */\n      0xffffffffffffffffffffffffffffffffffffffff\n      and\n      0xffffffffffffffffffffffffffffffffffffffff\n      and\n      dup2\n      mstore\n      0x20\n      add\n      swap1\n      dup2\n      mstore\n      0x20\n      add\n      0x00\n      keccak256\n        /* \"contracts/BusinessConsensus.sol\":4097:4132  voters.push(voters_map[msg.sender]) */\n      swap1\n      dup1\n      0x01\n      dup2\n      sload\n      add\n      dup1\n      dup3\n      sstore\n      dup1\n      swap2\n      pop\n      pop\n      0x01\n      swap1\n      sub\n      swap1\n      0x00\n      mstore\n      keccak256(0x00, 0x20)\n      add\n      0x00\n      swap1\n      swap2\n      swap1\n      swap2\n      swap1\n      swap2\n      pop\n      0x00\n      dup3\n      add\n      0x00\n      swap1\n      sload\n      swap1\n      0x0100\n      exp\n      swap1\n      div\n      0xff\n      and\n      dup2\n      0x00\n      add\n      exp(0x0100, 0x00)\n      dup2\n      sload\n      dup2\n      0xff\n      mul\n      not\n      and\n      swap1\n      dup4\n      iszero\n      iszero\n      mul\n      or\n      swap1\n      sstore\n      pop\n      0x00\n      dup3\n      add\n      0x01\n      swap1\n      sload\n      swap1\n      0x0100\n      exp\n      swap1\n      div\n      0xff\n      and\n      dup2\n      0x00\n      add\n      exp(0x0100, 0x01)\n      dup2\n      sload\n      dup2\n      0xff\n      mul\n      not\n      and\n      swap1\n      dup4\n      iszero\n      iszero\n      mul\n      or\n      swap1\n      sstore\n      pop\n      0x00\n      dup3\n      add\n      0x02\n      swap1\n      sload\n      swap1\n      0x0100\n      exp\n      swap1\n      div\n      0xffffffffffffffffffffffffffffffffffffffff\n      and\n      dup2\n      0x00\n      add\n      exp(0x0100, 0x02)\n      dup2\n      sload\n      dup2\n      0xffffffffffffffffffffffffffffffffffffffff\n      mul\n      not\n      and\n      swap1\n      dup4\n      0xffffffffffffffffffffffffffffffffffffffff\n      and\n      mul\n      or\n      swap1\n      sstore\n      pop\n      pop\n      pop\n        /* \"contracts/BusinessConsensus.sol\":3690:4144  if(keccak256(bytes(response)) == keccak256(bytes(\"i disapprove\"))){\r... */\n    tag_129:\n        /* \"contracts/BusinessConsensus.sol\":3379:4144  if(keccak256(bytes(response)) == keccak256(bytes(\"i approve\"))){\r... */\n    tag_125:\n        /* \"contracts/BusinessConsensus.sol\":3064:4161  function Vote(string memory response) external {\r... */\n      pop\n      jump\t// out\n        /* \"contracts/BusinessConsensus.sol\":2092:2306  function getParameters2(address test_address) external view returns (bool, bool, address){\r... */\n    tag_43:\n        /* \"contracts/BusinessConsensus.sol\":2161:2165  bool */\n      0x00\n        /* \"contracts/BusinessConsensus.sol\":2167:2171  bool */\n      dup1\n        /* \"contracts/BusinessConsensus.sol\":2173:2180  address */\n      0x00\n        /* \"contracts/BusinessConsensus.sol\":2200:2210  voters_map */\n      0x0a\n        /* \"contracts/BusinessConsensus.sol\":2200:2224  voters_map[test_address] */\n      0x00\n        /* \"contracts/BusinessConsensus.sol\":2211:2223  test_address */\n      dup6\n        /* \"contracts/BusinessConsensus.sol\":2200:2224  voters_map[test_address] */\n      0xffffffffffffffffffffffffffffffffffffffff\n      and\n      0xffffffffffffffffffffffffffffffffffffffff\n      and\n      dup2\n      mstore\n      0x20\n      add\n      swap1\n      dup2\n      mstore\n      0x20\n      add\n      0x00\n      keccak256\n        /* \"contracts/BusinessConsensus.sol\":2200:2229  voters_map[test_address].vote */\n      0x00\n      add\n      0x01\n      swap1\n      sload\n      swap1\n      0x0100\n      exp\n      swap1\n      div\n      0xff\n      and\n        /* \"contracts/BusinessConsensus.sol\":2231:2241  voters_map */\n      0x0a\n        /* \"contracts/BusinessConsensus.sol\":2231:2255  voters_map[test_address] */\n      0x00\n        /* \"contracts/BusinessConsensus.sol\":2242:2254  test_address */\n      dup7\n        /* \"contracts/BusinessConsensus.sol\":2231:2255  voters_map[test_address] */\n      0xffffffffffffffffffffffffffffffffffffffff\n      and\n      0xffffffffffffffffffffffffffffffffffffffff\n      and\n      dup2\n      mstore\n      0x20\n      add\n      swap1\n      dup2\n      mstore\n      0x20\n      add\n      0x00\n      keccak256\n        /* \"contracts/BusinessConsensus.sol\":2231:2261  voters_map[test_address].voted */\n      0x00\n      add\n      0x00\n      swap1\n      sload\n      swap1\n      0x0100\n      exp\n      swap1\n      div\n      0xff\n      and\n        /* \"contracts/BusinessConsensus.sol\":2263:2273  voters_map */\n      0x0a\n        /* \"contracts/BusinessConsensus.sol\":2263:2287  voters_map[test_address] */\n      0x00\n        /* \"contracts/BusinessConsensus.sol\":2274:2286  test_address */\n      dup8\n        /* \"contracts/BusinessConsensus.sol\":2263:2287  voters_map[test_address] */\n      0xffffffffffffffffffffffffffffffffffffffff\n      and\n      0xffffffffffffffffffffffffffffffffffffffff\n      and\n      dup2\n      mstore\n      0x20\n      add\n      swap1\n      dup2\n      mstore\n      0x20\n      add\n      0x00\n      keccak256\n        /* \"contracts/BusinessConsensus.sol\":2263:2297  voters_map[test_address].recipient */\n      0x00\n      add\n      0x02\n      swap1\n      sload\n      swap1\n      0x0100\n      exp\n      swap1\n      div\n      0xffffffffffffffffffffffffffffffffffffffff\n      and\n        /* \"contracts/BusinessConsensus.sol\":2192:2298  return (voters_map[test_address].vote, voters_map[test_address].voted, voters_map[test_address].recipient) */\n      swap3\n      pop\n      swap3\n      pop\n      swap3\n      pop\n        /* \"contracts/BusinessConsensus.sol\":2092:2306  function getParameters2(address test_address) external view returns (bool, bool, address){\r... */\n      swap2\n      swap4\n      swap1\n      swap3\n      pop\n      jump\t// out\n        /* \"contracts/BusinessConsensus.sol\":696:720  address public initiator */\n    tag_47:\n      0x01\n      0x00\n      swap1\n      sload\n      swap1\n      0x0100\n      exp\n      swap1\n      div\n      0xffffffffffffffffffffffffffffffffffffffff\n      and\n      dup2\n      jump\t// out\n        /* \"contracts/BusinessConsensus.sol\":846:882  uint256 public AccumulatedPercentage */\n    tag_50:\n      sload(0x05)\n      dup2\n      jump\t// out\n        /* \"contracts/BusinessConsensus.sol\":889:916  uint256 public numApprovals */\n    tag_54:\n      sload(0x06)\n      dup2\n      jump\t// out\n        /* \"contracts/BusinessConsensus.sol\":1163:1187  Proposal public proposal */\n    tag_57:\n      0x0b\n      dup1\n      0x00\n      add\n      sload\n      swap1\n      dup1\n      0x01\n      add\n      dup1\n      sload\n      tag_133\n      swap1\n      tag_105\n      jump\t// in\n    tag_133:\n      dup1\n      0x1f\n      add\n      0x20\n      dup1\n      swap2\n      div\n      mul\n      0x20\n      add\n      mload(0x40)\n      swap1\n      dup2\n      add\n      0x40\n      mstore\n      dup1\n      swap3\n      swap2\n      swap1\n      dup2\n      dup2\n      mstore\n      0x20\n      add\n      dup3\n      dup1\n      sload\n      tag_134\n      swap1\n      tag_105\n      jump\t// in\n    tag_134:\n      dup1\n      iszero\n      tag_135\n      jumpi\n      dup1\n      0x1f\n      lt\n      tag_136\n      jumpi\n      0x0100\n      dup1\n      dup4\n      sload\n      div\n      mul\n      dup4\n      mstore\n      swap2\n      0x20\n      add\n      swap2\n      jump(tag_135)\n    tag_136:\n      dup3\n      add\n      swap2\n      swap1\n      0x00\n      mstore\n      keccak256(0x00, 0x20)\n      swap1\n    tag_137:\n      dup2\n      sload\n      dup2\n      mstore\n      swap1\n      0x01\n      add\n      swap1\n      0x20\n      add\n      dup1\n      dup4\n      gt\n      tag_137\n      jumpi\n      dup3\n      swap1\n      sub\n      0x1f\n      and\n      dup3\n      add\n      swap2\n    tag_135:\n      pop\n      pop\n      pop\n      pop\n      pop\n      swap1\n      pop\n      dup3\n      jump\t// out\n        /* \"contracts/BusinessConsensus.sol\":4954:5196  function retrieve_bundle() external view returns (bytes32, Proposal memory, Voter[] memory){\r... */\n    tag_61:\n        /* \"contracts/BusinessConsensus.sol\":5004:5011  bytes32 */\n      0x00\n        /* \"contracts/BusinessConsensus.sol\":5013:5028  Proposal memory */\n      tag_138\n      tag_139\n      jump\t// in\n    tag_138:\n        /* \"contracts/BusinessConsensus.sol\":5030:5044  Voter[] memory */\n      0x60\n        /* \"contracts/BusinessConsensus.sol\":5083:5093  expiryDate */\n      sload(0x03)\n        /* \"contracts/BusinessConsensus.sol\":5064:5079  block.timestamp */\n      timestamp\n        /* \"contracts/BusinessConsensus.sol\":5064:5093  block.timestamp >= expiryDate */\n      lt\n      iszero\n        /* \"contracts/BusinessConsensus.sol\":5056:5130  require(block.timestamp >= expiryDate, \"Verdict has not been reached yet\") */\n      tag_141\n      jumpi\n      mload(0x40)\n      0x08c379a000000000000000000000000000000000000000000000000000000000\n      dup2\n      mstore\n      0x04\n      add\n      tag_142\n      swap1\n      tag_143\n      jump\t// in\n    tag_142:\n      mload(0x40)\n      dup1\n      swap2\n      sub\n      swap1\n      revert\n    tag_141:\n        /* \"contracts/BusinessConsensus.sol\":5149:5161  finalVerdict */\n      sload(0x08)\n        /* \"contracts/BusinessConsensus.sol\":5162:5170  proposal */\n      0x0b\n        /* \"contracts/BusinessConsensus.sol\":5171:5177  voters */\n      0x09\n        /* \"contracts/BusinessConsensus.sol\":5141:5178  return (finalVerdict,proposal,voters) */\n      dup2\n      mload(0x40)\n      dup1\n      0x40\n      add\n      0x40\n      mstore\n      swap1\n      dup2\n      0x00\n      dup3\n      add\n      sload\n      dup2\n      mstore\n      0x20\n      add\n      0x01\n      dup3\n      add\n      dup1\n      sload\n      tag_144\n      swap1\n      tag_105\n      jump\t// in\n    tag_144:\n      dup1\n      0x1f\n      add\n      0x20\n      dup1\n      swap2\n      div\n      mul\n      0x20\n      add\n      mload(0x40)\n      swap1\n      dup2\n      add\n      0x40\n      mstore\n      dup1\n      swap3\n      swap2\n      swap1\n      dup2\n      dup2\n      mstore\n      0x20\n      add\n      dup3\n      dup1\n      sload\n      tag_145\n      swap1\n      tag_105\n      jump\t// in\n    tag_145:\n      dup1\n      iszero\n      tag_146\n      jumpi\n      dup1\n      0x1f\n      lt\n      tag_147\n      jumpi\n      0x0100\n      dup1\n      dup4\n      sload\n      div\n      mul\n      dup4\n      mstore\n      swap2\n      0x20\n      add\n      swap2\n      jump(tag_146)\n    tag_147:\n      dup3\n      add\n      swap2\n      swap1\n      0x00\n      mstore\n      keccak256(0x00, 0x20)\n      swap1\n    tag_148:\n      dup2\n      sload\n      dup2\n      mstore\n      swap1\n      0x01\n      add\n      swap1\n      0x20\n      add\n      dup1\n      dup4\n      gt\n      tag_148\n      jumpi\n      dup3\n      swap1\n      sub\n      0x1f\n      and\n      dup3\n      add\n      swap2\n    tag_146:\n      pop\n      pop\n      pop\n      pop\n      pop\n      dup2\n      mstore\n      pop\n      pop\n      swap2\n      pop\n      dup1\n      dup1\n      sload\n      dup1\n      0x20\n      mul\n      0x20\n      add\n      mload(0x40)\n      swap1\n      dup2\n      add\n      0x40\n      mstore\n      dup1\n      swap3\n      swap2\n      swap1\n      dup2\n      dup2\n      mstore\n      0x20\n      add\n      0x00\n      swap1\n    tag_149:\n      dup3\n      dup3\n      lt\n      iszero\n      tag_150\n      jumpi\n      dup4\n      dup3\n      swap1\n      0x00\n      mstore\n      keccak256(0x00, 0x20)\n      add\n      mload(0x40)\n      dup1\n      0x60\n      add\n      0x40\n      mstore\n      swap1\n      dup2\n      0x00\n      dup3\n      add\n      0x00\n      swap1\n      sload\n      swap1\n      0x0100\n      exp\n      swap1\n      div\n      0xff\n      and\n      iszero\n      iszero\n      iszero\n      iszero\n      dup2\n      mstore\n      0x20\n      add\n      0x00\n      dup3\n      add\n      0x01\n      swap1\n      sload\n      swap1\n      0x0100\n      exp\n      swap1\n      div\n      0xff\n      and\n      iszero\n      iszero\n      iszero\n      iszero\n      dup2\n      mstore\n      0x20\n      add\n      0x00\n      dup3\n      add\n      0x02\n      swap1\n      sload\n      swap1\n      0x0100\n      exp\n      swap1\n      div\n      0xffffffffffffffffffffffffffffffffffffffff\n      and\n      0xffffffffffffffffffffffffffffffffffffffff\n      and\n      0xffffffffffffffffffffffffffffffffffffffff\n      and\n      dup2\n      mstore\n      pop\n      pop\n      dup2\n      mstore\n      0x20\n      add\n      swap1\n      0x01\n      add\n      swap1\n      jump(tag_149)\n    tag_150:\n      pop\n      pop\n      pop\n      pop\n      swap1\n      pop\n      swap3\n      pop\n      swap3\n      pop\n      swap3\n      pop\n        /* \"contracts/BusinessConsensus.sol\":4954:5196  function retrieve_bundle() external view returns (bytes32, Proposal memory, Voter[] memory){\r... */\n      swap1\n      swap2\n      swap3\n      jump\t// out\n        /* \"contracts/BusinessConsensus.sol\":4225:4946  function Consensus() external {\r... */\n    tag_65:\n        /* \"contracts/BusinessConsensus.sol\":4293:4303  expiryDate */\n      sload(0x03)\n        /* \"contracts/BusinessConsensus.sol\":4274:4289  block.timestamp */\n      timestamp\n        /* \"contracts/BusinessConsensus.sol\":4274:4303  block.timestamp >= expiryDate */\n      lt\n      iszero\n        /* \"contracts/BusinessConsensus.sol\":4266:4340  require(block.timestamp >= expiryDate, \"Verdict has not been reached yet\") */\n      tag_153\n      jumpi\n      mload(0x40)\n      0x08c379a000000000000000000000000000000000000000000000000000000000\n      dup2\n      mstore\n      0x04\n      add\n      tag_154\n      swap1\n      tag_143\n      jump\t// in\n    tag_154:\n      mload(0x40)\n      dup1\n      swap2\n      sub\n      swap1\n      revert\n    tag_153:\n        /* \"contracts/BusinessConsensus.sol\":4377:4378  0 */\n      0x00\n        /* \"contracts/BusinessConsensus.sol\":4359:4373  numberCompiled */\n      sload(0x07)\n        /* \"contracts/BusinessConsensus.sol\":4359:4378  numberCompiled == 0 */\n      eq\n        /* \"contracts/BusinessConsensus.sol\":4351:4420  require(numberCompiled == 0, \"Consensus has already been calculated\") */\n      tag_155\n      jumpi\n      mload(0x40)\n      0x08c379a000000000000000000000000000000000000000000000000000000000\n      dup2\n      mstore\n      0x04\n      add\n      tag_156\n      swap1\n      tag_157\n      jump\t// in\n    tag_156:\n      mload(0x40)\n      dup1\n      swap2\n      sub\n      swap1\n      revert\n    tag_155:\n        /* \"contracts/BusinessConsensus.sol\":4453:4462  initiator */\n      0x01\n      0x00\n      swap1\n      sload\n      swap1\n      0x0100\n      exp\n      swap1\n      div\n      0xffffffffffffffffffffffffffffffffffffffff\n      and\n        /* \"contracts/BusinessConsensus.sol\":4439:4462  msg.sender == initiator */\n      0xffffffffffffffffffffffffffffffffffffffff\n      and\n        /* \"contracts/BusinessConsensus.sol\":4439:4449  msg.sender */\n      caller\n        /* \"contracts/BusinessConsensus.sol\":4439:4462  msg.sender == initiator */\n      0xffffffffffffffffffffffffffffffffffffffff\n      and\n      eq\n        /* \"contracts/BusinessConsensus.sol\":4439:4514  msg.sender == initiator || voters_map[msg.sender].recipient != address(0x0) */\n      dup1\n      tag_158\n      jumpi\n      pop\n        /* \"contracts/BusinessConsensus.sol\":4510:4513  0x0 */\n      0x00\n        /* \"contracts/BusinessConsensus.sol\":4466:4514  voters_map[msg.sender].recipient != address(0x0) */\n      0xffffffffffffffffffffffffffffffffffffffff\n      and\n        /* \"contracts/BusinessConsensus.sol\":4466:4476  voters_map */\n      0x0a\n        /* \"contracts/BusinessConsensus.sol\":4466:4488  voters_map[msg.sender] */\n      0x00\n        /* \"contracts/BusinessConsensus.sol\":4477:4487  msg.sender */\n      caller\n        /* \"contracts/BusinessConsensus.sol\":4466:4488  voters_map[msg.sender] */\n      0xffffffffffffffffffffffffffffffffffffffff\n      and\n      0xffffffffffffffffffffffffffffffffffffffff\n      and\n      dup2\n      mstore\n      0x20\n      add\n      swap1\n      dup2\n      mstore\n      0x20\n      add\n      0x00\n      keccak256\n        /* \"contracts/BusinessConsensus.sol\":4466:4498  voters_map[msg.sender].recipient */\n      0x00\n      add\n      0x02\n      swap1\n      sload\n      swap1\n      0x0100\n      exp\n      swap1\n      div\n      0xffffffffffffffffffffffffffffffffffffffff\n      and\n        /* \"contracts/BusinessConsensus.sol\":4466:4514  voters_map[msg.sender].recipient != address(0x0) */\n      0xffffffffffffffffffffffffffffffffffffffff\n      and\n      eq\n      iszero\n        /* \"contracts/BusinessConsensus.sol\":4439:4514  msg.sender == initiator || voters_map[msg.sender].recipient != address(0x0) */\n    tag_158:\n        /* \"contracts/BusinessConsensus.sol\":4431:4557  require(msg.sender == initiator || voters_map[msg.sender].recipient != address(0x0), \"You aren't authorize to compile Bundle\") */\n      tag_159\n      jumpi\n      mload(0x40)\n      0x08c379a000000000000000000000000000000000000000000000000000000000\n      dup2\n      mstore\n      0x04\n      add\n      tag_160\n      swap1\n      tag_161\n      jump\t// in\n    tag_160:\n      mload(0x40)\n      dup1\n      swap2\n      sub\n      swap1\n      revert\n    tag_159:\n        /* \"contracts/BusinessConsensus.sol\":4619:4622  100 */\n      0x64\n        /* \"contracts/BusinessConsensus.sol\":4606:4610  keys */\n      0x02\n        /* \"contracts/BusinessConsensus.sol\":4606:4617  keys.length */\n      dup1\n      sload\n      swap1\n      pop\n        /* \"contracts/BusinessConsensus.sol\":4593:4605  numApprovals */\n      sload(0x06)\n        /* \"contracts/BusinessConsensus.sol\":4593:4617  numApprovals/keys.length */\n      tag_162\n      swap2\n      swap1\n      tag_163\n      jump\t// in\n    tag_162:\n        /* \"contracts/BusinessConsensus.sol\":4592:4622  (numApprovals/keys.length)*100 */\n      tag_164\n      swap2\n      swap1\n      tag_165\n      jump\t// in\n    tag_164:\n        /* \"contracts/BusinessConsensus.sol\":4568:4589  AccumulatedPercentage */\n      0x05\n        /* \"contracts/BusinessConsensus.sol\":4568:4622  AccumulatedPercentage = (numApprovals/keys.length)*100 */\n      dup2\n      swap1\n      sstore\n      pop\n        /* \"contracts/BusinessConsensus.sol\":4661:4680  BusinessRequirement */\n      sload(0x04)\n        /* \"contracts/BusinessConsensus.sol\":4636:4657  AccumulatedPercentage */\n      sload(0x05)\n        /* \"contracts/BusinessConsensus.sol\":4636:4680  AccumulatedPercentage >= BusinessRequirement */\n      lt\n        /* \"contracts/BusinessConsensus.sol\":4633:4733  if(AccumulatedPercentage >= BusinessRequirement){\r... */\n      tag_166\n      jumpi\n        /* \"contracts/BusinessConsensus.sol\":4696:4721  finalVerdict = \"Accepted\" */\n      0x4163636570746564000000000000000000000000000000000000000000000000\n        /* \"contracts/BusinessConsensus.sol\":4696:4708  finalVerdict */\n      0x08\n        /* \"contracts/BusinessConsensus.sol\":4696:4721  finalVerdict = \"Accepted\" */\n      dup2\n      swap1\n      sstore\n      pop\n        /* \"contracts/BusinessConsensus.sol\":4633:4733  if(AccumulatedPercentage >= BusinessRequirement){\r... */\n    tag_166:\n        /* \"contracts/BusinessConsensus.sol\":4747:4754  uint8 i */\n      0x00\n        /* \"contracts/BusinessConsensus.sol\":4743:4909  for(uint8 i=0; i< keys.length; i++){\r... */\n    tag_167:\n        /* \"contracts/BusinessConsensus.sol\":4761:4765  keys */\n      0x02\n        /* \"contracts/BusinessConsensus.sol\":4761:4772  keys.length */\n      dup1\n      sload\n      swap1\n      pop\n        /* \"contracts/BusinessConsensus.sol\":4758:4759  i */\n      dup2\n        /* \"contracts/BusinessConsensus.sol\":4758:4772  i< keys.length */\n      0xff\n      and\n      lt\n        /* \"contracts/BusinessConsensus.sol\":4743:4909  for(uint8 i=0; i< keys.length; i++){\r... */\n      iszero\n      tag_168\n      jumpi\n        /* \"contracts/BusinessConsensus.sol\":4825:4830  false */\n      0x00\n        /* \"contracts/BusinessConsensus.sol\":4796:4830  voters_map[keys[i]].voted == false */\n      iszero\n      iszero\n        /* \"contracts/BusinessConsensus.sol\":4796:4806  voters_map */\n      0x0a\n        /* \"contracts/BusinessConsensus.sol\":4796:4815  voters_map[keys[i]] */\n      0x00\n        /* \"contracts/BusinessConsensus.sol\":4807:4811  keys */\n      0x02\n        /* \"contracts/BusinessConsensus.sol\":4812:4813  i */\n      dup5\n        /* \"contracts/BusinessConsensus.sol\":4807:4814  keys[i] */\n      0xff\n      and\n      dup2\n      sload\n      dup2\n      lt\n      tag_170\n      jumpi\n      tag_171\n      tag_172\n      jump\t// in\n    tag_171:\n    tag_170:\n      swap1\n      0x00\n      mstore\n      keccak256(0x00, 0x20)\n      add\n      0x00\n      swap1\n      sload\n      swap1\n      0x0100\n      exp\n      swap1\n      div\n      0xffffffffffffffffffffffffffffffffffffffff\n      and\n        /* \"contracts/BusinessConsensus.sol\":4796:4815  voters_map[keys[i]] */\n      0xffffffffffffffffffffffffffffffffffffffff\n      and\n      0xffffffffffffffffffffffffffffffffffffffff\n      and\n      dup2\n      mstore\n      0x20\n      add\n      swap1\n      dup2\n      mstore\n      0x20\n      add\n      0x00\n      keccak256\n        /* \"contracts/BusinessConsensus.sol\":4796:4821  voters_map[keys[i]].voted */\n      0x00\n      add\n      0x00\n      swap1\n      sload\n      swap1\n      0x0100\n      exp\n      swap1\n      div\n      0xff\n      and\n        /* \"contracts/BusinessConsensus.sol\":4796:4830  voters_map[keys[i]].voted == false */\n      iszero\n      iszero\n      eq\n        /* \"contracts/BusinessConsensus.sol\":4793:4898  if(voters_map[keys[i]].voted == false){\r... */\n      iszero\n      tag_174\n      jumpi\n        /* \"contracts/BusinessConsensus.sol\":4850:4856  voters */\n      0x09\n        /* \"contracts/BusinessConsensus.sol\":4862:4872  voters_map */\n      0x0a\n        /* \"contracts/BusinessConsensus.sol\":4862:4881  voters_map[keys[i]] */\n      0x00\n        /* \"contracts/BusinessConsensus.sol\":4873:4877  keys */\n      0x02\n        /* \"contracts/BusinessConsensus.sol\":4878:4879  i */\n      dup5\n        /* \"contracts/BusinessConsensus.sol\":4873:4880  keys[i] */\n      0xff\n      and\n      dup2\n      sload\n      dup2\n      lt\n      tag_175\n      jumpi\n      tag_176\n      tag_172\n      jump\t// in\n    tag_176:\n    tag_175:\n      swap1\n      0x00\n      mstore\n      keccak256(0x00, 0x20)\n      add\n      0x00\n      swap1\n      sload\n      swap1\n      0x0100\n      exp\n      swap1\n      div\n      0xffffffffffffffffffffffffffffffffffffffff\n      and\n        /* \"contracts/BusinessConsensus.sol\":4862:4881  voters_map[keys[i]] */\n      0xffffffffffffffffffffffffffffffffffffffff\n      and\n      0xffffffffffffffffffffffffffffffffffffffff\n      and\n      dup2\n      mstore\n      0x20\n      add\n      swap1\n      dup2\n      mstore\n      0x20\n      add\n      0x00\n      keccak256\n        /* \"contracts/BusinessConsensus.sol\":4850:4882  voters.push(voters_map[keys[i]]) */\n      swap1\n      dup1\n      0x01\n      dup2\n      sload\n      add\n      dup1\n      dup3\n      sstore\n      dup1\n      swap2\n      pop\n      pop\n      0x01\n      swap1\n      sub\n      swap1\n      0x00\n      mstore\n      keccak256(0x00, 0x20)\n      add\n      0x00\n      swap1\n      swap2\n      swap1\n      swap2\n      swap1\n      swap2\n      pop\n      0x00\n      dup3\n      add\n      0x00\n      swap1\n      sload\n      swap1\n      0x0100\n      exp\n      swap1\n      div\n      0xff\n      and\n      dup2\n      0x00\n      add\n      exp(0x0100, 0x00)\n      dup2\n      sload\n      dup2\n      0xff\n      mul\n      not\n      and\n      swap1\n      dup4\n      iszero\n      iszero\n      mul\n      or\n      swap1\n      sstore\n      pop\n      0x00\n      dup3\n      add\n      0x01\n      swap1\n      sload\n      swap1\n      0x0100\n      exp\n      swap1\n      div\n      0xff\n      and\n      dup2\n      0x00\n      add\n      exp(0x0100, 0x01)\n      dup2\n      sload\n      dup2\n      0xff\n      mul\n      not\n      and\n      swap1\n      dup4\n      iszero\n      iszero\n      mul\n      or\n      swap1\n      sstore\n      pop\n      0x00\n      dup3\n      add\n      0x02\n      swap1\n      sload\n      swap1\n      0x0100\n      exp\n      swap1\n      div\n      0xffffffffffffffffffffffffffffffffffffffff\n      and\n      dup2\n      0x00\n      add\n      exp(0x0100, 0x02)\n      dup2\n      sload\n      dup2\n      0xffffffffffffffffffffffffffffffffffffffff\n      mul\n      not\n      and\n      swap1\n      dup4\n      0xffffffffffffffffffffffffffffffffffffffff\n      and\n      mul\n      or\n      swap1\n      sstore\n      pop\n      pop\n      pop\n        /* \"contracts/BusinessConsensus.sol\":4793:4898  if(voters_map[keys[i]].voted == false){\r... */\n    tag_174:\n        /* \"contracts/BusinessConsensus.sol\":4774:4777  i++ */\n      dup1\n      dup1\n      tag_179\n      swap1\n      tag_180\n      jump\t// in\n    tag_179:\n      swap2\n      pop\n      pop\n        /* \"contracts/BusinessConsensus.sol\":4743:4909  for(uint8 i=0; i< keys.length; i++){\r... */\n      jump(tag_167)\n    tag_168:\n      pop\n        /* \"contracts/BusinessConsensus.sol\":4937:4938  1 */\n      0x01\n        /* \"contracts/BusinessConsensus.sol\":4919:4933  numberCompiled */\n      0x07\n      0x00\n        /* \"contracts/BusinessConsensus.sol\":4919:4938  numberCompiled += 1 */\n      dup3\n      dup3\n      sload\n      tag_181\n      swap2\n      swap1\n      tag_122\n      jump\t// in\n    tag_181:\n      swap3\n      pop\n      pop\n      dup2\n      swap1\n      sstore\n      pop\n        /* \"contracts/BusinessConsensus.sol\":4225:4946  function Consensus() external {\r... */\n      jump\t// out\n        /* \"contracts/BusinessConsensus.sol\":1043:1086  mapping(address => Voter) public voters_map */\n    tag_68:\n      mstore(0x20, 0x0a)\n      dup1\n      0x00\n      mstore\n      keccak256(0x00, 0x40)\n      0x00\n      swap2\n      pop\n      swap1\n      pop\n      dup1\n      0x00\n      add\n      0x00\n      swap1\n      sload\n      swap1\n      0x0100\n      exp\n      swap1\n      div\n      0xff\n      and\n      swap1\n      dup1\n      0x00\n      add\n      0x01\n      swap1\n      sload\n      swap1\n      0x0100\n      exp\n      swap1\n      div\n      0xff\n      and\n      swap1\n      dup1\n      0x00\n      add\n      0x02\n      swap1\n      sload\n      swap1\n      0x0100\n      exp\n      swap1\n      div\n      0xffffffffffffffffffffffffffffffffffffffff\n      and\n      swap1\n      pop\n      dup4\n      jump\t// out\n        /* \"contracts/BusinessConsensus.sol\":1896:2086  function getParameters() external view returns (string memory, uint , address ,uint ,uint){\r... */\n    tag_71:\n        /* \"contracts/BusinessConsensus.sol\":1944:1957  string memory */\n      0x60\n        /* \"contracts/BusinessConsensus.sol\":1959:1963  uint */\n      0x00\n        /* \"contracts/BusinessConsensus.sol\":1966:1973  address */\n      dup1\n        /* \"contracts/BusinessConsensus.sol\":1975:1979  uint */\n      0x00\n        /* \"contracts/BusinessConsensus.sol\":1981:1985  uint */\n      dup1\n        /* \"contracts/BusinessConsensus.sol\":2005:2013  proposal */\n      0x0b\n        /* \"contracts/BusinessConsensus.sol\":2005:2023  proposal.messageID */\n      0x01\n      add\n        /* \"contracts/BusinessConsensus.sol\":2024:2034  expiryDate */\n      sload(0x03)\n        /* \"contracts/BusinessConsensus.sol\":2035:2044  initiator */\n      0x01\n      0x00\n      swap1\n      sload\n      swap1\n      0x0100\n      exp\n      swap1\n      div\n      0xffffffffffffffffffffffffffffffffffffffff\n      and\n        /* \"contracts/BusinessConsensus.sol\":2045:2064  BusinessRequirement */\n      sload(0x04)\n        /* \"contracts/BusinessConsensus.sol\":2065:2077  numApprovals */\n      sload(0x06)\n        /* \"contracts/BusinessConsensus.sol\":1997:2078  return (proposal.messageID,expiryDate,initiator,BusinessRequirement,numApprovals) */\n      dup5\n      dup1\n      sload\n      tag_183\n      swap1\n      tag_105\n      jump\t// in\n    tag_183:\n      dup1\n      0x1f\n      add\n      0x20\n      dup1\n      swap2\n      div\n      mul\n      0x20\n      add\n      mload(0x40)\n      swap1\n      dup2\n      add\n      0x40\n      mstore\n      dup1\n      swap3\n      swap2\n      swap1\n      dup2\n      dup2\n      mstore\n      0x20\n      add\n      dup3\n      dup1\n      sload\n      tag_184\n      swap1\n      tag_105\n      jump\t// in\n    tag_184:\n      dup1\n      iszero\n      tag_185\n      jumpi\n      dup1\n      0x1f\n      lt\n      tag_186\n      jumpi\n      0x0100\n      dup1\n      dup4\n      sload\n      div\n      mul\n      dup4\n      mstore\n      swap2\n      0x20\n      add\n      swap2\n      jump(tag_185)\n    tag_186:\n      dup3\n      add\n      swap2\n      swap1\n      0x00\n      mstore\n      keccak256(0x00, 0x20)\n      swap1\n    tag_187:\n      dup2\n      sload\n      dup2\n      mstore\n      swap1\n      0x01\n      add\n      swap1\n      0x20\n      add\n      dup1\n      dup4\n      gt\n      tag_187\n      jumpi\n      dup3\n      swap1\n      sub\n      0x1f\n      and\n      dup3\n      add\n      swap2\n    tag_185:\n      pop\n      pop\n      pop\n      pop\n      pop\n      swap5\n      pop\n      swap5\n      pop\n      swap5\n      pop\n      swap5\n      pop\n      swap5\n      pop\n      swap5\n      pop\n        /* \"contracts/BusinessConsensus.sol\":1896:2086  function getParameters() external view returns (string memory, uint , address ,uint ,uint){\r... */\n      swap1\n      swap2\n      swap3\n      swap4\n      swap5\n      jump\t// out\n        /* \"contracts/BusinessConsensus.sol\":925:954  uint256 public numberCompiled */\n    tag_75:\n      sload(0x07)\n      dup2\n      jump\t// out\n        /* \"contracts/BusinessConsensus.sol\":805:839  uint256 public BusinessRequirement */\n    tag_78:\n      sload(0x04)\n      dup2\n      jump\t// out\n        /* \"contracts/BusinessConsensus.sol\":1013:1034  Voter[] public voters */\n    tag_82:\n      0x09\n      dup2\n      dup2\n      sload\n      dup2\n      lt\n      tag_188\n      jumpi\n      0x00\n      dup1\n      revert\n    tag_188:\n      swap1\n      0x00\n      mstore\n      keccak256(0x00, 0x20)\n      add\n      0x00\n      swap2\n      pop\n      swap1\n      pop\n      dup1\n      0x00\n      add\n      0x00\n      swap1\n      sload\n      swap1\n      0x0100\n      exp\n      swap1\n      div\n      0xff\n      and\n      swap1\n      dup1\n      0x00\n      add\n      0x01\n      swap1\n      sload\n      swap1\n      0x0100\n      exp\n      swap1\n      div\n      0xff\n      and\n      swap1\n      dup1\n      0x00\n      add\n      0x02\n      swap1\n      sload\n      swap1\n      0x0100\n      exp\n      swap1\n      div\n      0xffffffffffffffffffffffffffffffffffffffff\n      and\n      swap1\n      pop\n      dup4\n      jump\t// out\n        /* \"contracts/BusinessConsensus.sol\":596:626  address public contractAddress */\n    tag_85:\n      0x00\n      dup1\n      sload\n      swap1\n      0x0100\n      exp\n      swap1\n      div\n      0xffffffffffffffffffffffffffffffffffffffff\n      and\n      dup2\n      jump\t// out\n    tag_139:\n      mload(0x40)\n      dup1\n      0x40\n      add\n      0x40\n      mstore\n      dup1\n      0x00\n      dup2\n      mstore\n      0x20\n      add\n      0x60\n      dup2\n      mstore\n      pop\n      swap1\n      jump\t// out\n        /* \"#utility.yul\":7:419   */\n    tag_191:\n        /* \"#utility.yul\":85:90   */\n      0x00\n        /* \"#utility.yul\":110:176   */\n      tag_193\n        /* \"#utility.yul\":126:175   */\n      tag_194\n        /* \"#utility.yul\":168:174   */\n      dup5\n        /* \"#utility.yul\":126:175   */\n      tag_195\n      jump\t// in\n    tag_194:\n        /* \"#utility.yul\":110:176   */\n      tag_196\n      jump\t// in\n    tag_193:\n        /* \"#utility.yul\":101:176   */\n      swap1\n      pop\n        /* \"#utility.yul\":199:205   */\n      dup3\n        /* \"#utility.yul\":192:197   */\n      dup2\n        /* \"#utility.yul\":185:206   */\n      mstore\n        /* \"#utility.yul\":237:241   */\n      0x20\n        /* \"#utility.yul\":230:235   */\n      dup2\n        /* \"#utility.yul\":226:242   */\n      add\n        /* \"#utility.yul\":275:278   */\n      dup5\n        /* \"#utility.yul\":266:272   */\n      dup5\n        /* \"#utility.yul\":261:264   */\n      dup5\n        /* \"#utility.yul\":257:273   */\n      add\n        /* \"#utility.yul\":254:279   */\n      gt\n        /* \"#utility.yul\":251:363   */\n      iszero\n      tag_197\n      jumpi\n        /* \"#utility.yul\":282:361   */\n      tag_198\n      tag_199\n      jump\t// in\n    tag_198:\n        /* \"#utility.yul\":251:363   */\n    tag_197:\n        /* \"#utility.yul\":372:413   */\n      tag_200\n        /* \"#utility.yul\":406:412   */\n      dup5\n        /* \"#utility.yul\":401:404   */\n      dup3\n        /* \"#utility.yul\":396:399   */\n      dup6\n        /* \"#utility.yul\":372:413   */\n      tag_201\n      jump\t// in\n    tag_200:\n        /* \"#utility.yul\":91:419   */\n      pop\n        /* \"#utility.yul\":7:419   */\n      swap4\n      swap3\n      pop\n      pop\n      pop\n      jump\t// out\n        /* \"#utility.yul\":425:564   */\n    tag_202:\n        /* \"#utility.yul\":471:476   */\n      0x00\n        /* \"#utility.yul\":509:515   */\n      dup2\n        /* \"#utility.yul\":496:516   */\n      calldataload\n        /* \"#utility.yul\":487:516   */\n      swap1\n      pop\n        /* \"#utility.yul\":525:558   */\n      tag_204\n        /* \"#utility.yul\":552:557   */\n      dup2\n        /* \"#utility.yul\":525:558   */\n      tag_205\n      jump\t// in\n    tag_204:\n        /* \"#utility.yul\":425:564   */\n      swap3\n      swap2\n      pop\n      pop\n      jump\t// out\n        /* \"#utility.yul\":584:924   */\n    tag_206:\n        /* \"#utility.yul\":640:645   */\n      0x00\n        /* \"#utility.yul\":689:692   */\n      dup3\n        /* \"#utility.yul\":682:686   */\n      0x1f\n        /* \"#utility.yul\":674:680   */\n      dup4\n        /* \"#utility.yul\":670:687   */\n      add\n        /* \"#utility.yul\":666:693   */\n      slt\n        /* \"#utility.yul\":656:778   */\n      tag_208\n      jumpi\n        /* \"#utility.yul\":697:776   */\n      tag_209\n      tag_210\n      jump\t// in\n    tag_209:\n        /* \"#utility.yul\":656:778   */\n    tag_208:\n        /* \"#utility.yul\":814:820   */\n      dup2\n        /* \"#utility.yul\":801:821   */\n      calldataload\n        /* \"#utility.yul\":839:918   */\n      tag_211\n        /* \"#utility.yul\":914:917   */\n      dup5\n        /* \"#utility.yul\":906:912   */\n      dup3\n        /* \"#utility.yul\":899:903   */\n      0x20\n        /* \"#utility.yul\":891:897   */\n      dup7\n        /* \"#utility.yul\":887:904   */\n      add\n        /* \"#utility.yul\":839:918   */\n      tag_191\n      jump\t// in\n    tag_211:\n        /* \"#utility.yul\":830:918   */\n      swap2\n      pop\n        /* \"#utility.yul\":646:924   */\n      pop\n        /* \"#utility.yul\":584:924   */\n      swap3\n      swap2\n      pop\n      pop\n      jump\t// out\n        /* \"#utility.yul\":930:1069   */\n    tag_212:\n        /* \"#utility.yul\":976:981   */\n      0x00\n        /* \"#utility.yul\":1014:1020   */\n      dup2\n        /* \"#utility.yul\":1001:1021   */\n      calldataload\n        /* \"#utility.yul\":992:1021   */\n      swap1\n      pop\n        /* \"#utility.yul\":1030:1063   */\n      tag_214\n        /* \"#utility.yul\":1057:1062   */\n      dup2\n        /* \"#utility.yul\":1030:1063   */\n      tag_215\n      jump\t// in\n    tag_214:\n        /* \"#utility.yul\":930:1069   */\n      swap3\n      swap2\n      pop\n      pop\n      jump\t// out\n        /* \"#utility.yul\":1075:1404   */\n    tag_31:\n        /* \"#utility.yul\":1134:1140   */\n      0x00\n        /* \"#utility.yul\":1183:1185   */\n      0x20\n        /* \"#utility.yul\":1171:1180   */\n      dup3\n        /* \"#utility.yul\":1162:1169   */\n      dup5\n        /* \"#utility.yul\":1158:1181   */\n      sub\n        /* \"#utility.yul\":1154:1186   */\n      slt\n        /* \"#utility.yul\":1151:1270   */\n      iszero\n      tag_217\n      jumpi\n        /* \"#utility.yul\":1189:1268   */\n      tag_218\n      tag_219\n      jump\t// in\n    tag_218:\n        /* \"#utility.yul\":1151:1270   */\n    tag_217:\n        /* \"#utility.yul\":1309:1310   */\n      0x00\n        /* \"#utility.yul\":1334:1387   */\n      tag_220\n        /* \"#utility.yul\":1379:1386   */\n      dup5\n        /* \"#utility.yul\":1370:1376   */\n      dup3\n        /* \"#utility.yul\":1359:1368   */\n      dup6\n        /* \"#utility.yul\":1355:1377   */\n      add\n        /* \"#utility.yul\":1334:1387   */\n      tag_202\n      jump\t// in\n    tag_220:\n        /* \"#utility.yul\":1324:1387   */\n      swap2\n      pop\n        /* \"#utility.yul\":1280:1397   */\n      pop\n        /* \"#utility.yul\":1075:1404   */\n      swap3\n      swap2\n      pop\n      pop\n      jump\t// out\n        /* \"#utility.yul\":1410:1919   */\n    tag_39:\n        /* \"#utility.yul\":1479:1485   */\n      0x00\n        /* \"#utility.yul\":1528:1530   */\n      0x20\n        /* \"#utility.yul\":1516:1525   */\n      dup3\n        /* \"#utility.yul\":1507:1514   */\n      dup5\n        /* \"#utility.yul\":1503:1526   */\n      sub\n        /* \"#utility.yul\":1499:1531   */\n      slt\n        /* \"#utility.yul\":1496:1615   */\n      iszero\n      tag_222\n      jumpi\n        /* \"#utility.yul\":1534:1613   */\n      tag_223\n      tag_219\n      jump\t// in\n    tag_223:\n        /* \"#utility.yul\":1496:1615   */\n    tag_222:\n        /* \"#utility.yul\":1682:1683   */\n      0x00\n        /* \"#utility.yul\":1671:1680   */\n      dup3\n        /* \"#utility.yul\":1667:1684   */\n      add\n        /* \"#utility.yul\":1654:1685   */\n      calldataload\n        /* \"#utility.yul\":1712:1730   */\n      0xffffffffffffffff\n        /* \"#utility.yul\":1704:1710   */\n      dup2\n        /* \"#utility.yul\":1701:1731   */\n      gt\n        /* \"#utility.yul\":1698:1815   */\n      iszero\n      tag_224\n      jumpi\n        /* \"#utility.yul\":1734:1813   */\n      tag_225\n      tag_226\n      jump\t// in\n    tag_225:\n        /* \"#utility.yul\":1698:1815   */\n    tag_224:\n        /* \"#utility.yul\":1839:1902   */\n      tag_227\n        /* \"#utility.yul\":1894:1901   */\n      dup5\n        /* \"#utility.yul\":1885:1891   */\n      dup3\n        /* \"#utility.yul\":1874:1883   */\n      dup6\n        /* \"#utility.yul\":1870:1892   */\n      add\n        /* \"#utility.yul\":1839:1902   */\n      tag_206\n      jump\t// in\n    tag_227:\n        /* \"#utility.yul\":1829:1902   */\n      swap2\n      pop\n        /* \"#utility.yul\":1625:1912   */\n      pop\n        /* \"#utility.yul\":1410:1919   */\n      swap3\n      swap2\n      pop\n      pop\n      jump\t// out\n        /* \"#utility.yul\":1925:2254   */\n    tag_25:\n        /* \"#utility.yul\":1984:1990   */\n      0x00\n        /* \"#utility.yul\":2033:2035   */\n      0x20\n        /* \"#utility.yul\":2021:2030   */\n      dup3\n        /* \"#utility.yul\":2012:2019   */\n      dup5\n        /* \"#utility.yul\":2008:2031   */\n      sub\n        /* \"#utility.yul\":2004:2036   */\n      slt\n        /* \"#utility.yul\":2001:2120   */\n      iszero\n      tag_229\n      jumpi\n        /* \"#utility.yul\":2039:2118   */\n      tag_230\n      tag_219\n      jump\t// in\n    tag_230:\n        /* \"#utility.yul\":2001:2120   */\n    tag_229:\n        /* \"#utility.yul\":2159:2160   */\n      0x00\n        /* \"#utility.yul\":2184:2237   */\n      tag_231\n        /* \"#utility.yul\":2229:2236   */\n      dup5\n        /* \"#utility.yul\":2220:2226   */\n      dup3\n        /* \"#utility.yul\":2209:2218   */\n      dup6\n        /* \"#utility.yul\":2205:2227   */\n      add\n        /* \"#utility.yul\":2184:2237   */\n      tag_212\n      jump\t// in\n    tag_231:\n        /* \"#utility.yul\":2174:2237   */\n      swap2\n      pop\n        /* \"#utility.yul\":2130:2247   */\n      pop\n        /* \"#utility.yul\":1925:2254   */\n      swap3\n      swap2\n      pop\n      pop\n      jump\t// out\n        /* \"#utility.yul\":2260:2519   */\n    tag_232:\n        /* \"#utility.yul\":2369:2379   */\n      0x00\n        /* \"#utility.yul\":2390:2476   */\n      tag_234\n        /* \"#utility.yul\":2472:2475   */\n      dup4\n        /* \"#utility.yul\":2464:2470   */\n      dup4\n        /* \"#utility.yul\":2390:2476   */\n      tag_235\n      jump\t// in\n    tag_234:\n        /* \"#utility.yul\":2508:2512   */\n      0x60\n        /* \"#utility.yul\":2503:2506   */\n      dup4\n        /* \"#utility.yul\":2499:2513   */\n      add\n        /* \"#utility.yul\":2485:2513   */\n      swap1\n      pop\n        /* \"#utility.yul\":2260:2519   */\n      swap3\n      swap2\n      pop\n      pop\n      jump\t// out\n        /* \"#utility.yul\":2525:2633   */\n    tag_236:\n        /* \"#utility.yul\":2602:2626   */\n      tag_238\n        /* \"#utility.yul\":2620:2625   */\n      dup2\n        /* \"#utility.yul\":2602:2626   */\n      tag_239\n      jump\t// in\n    tag_238:\n        /* \"#utility.yul\":2597:2600   */\n      dup3\n        /* \"#utility.yul\":2590:2627   */\n      mstore\n        /* \"#utility.yul\":2525:2633   */\n      pop\n      pop\n      jump\t// out\n        /* \"#utility.yul\":2639:2757   */\n    tag_240:\n        /* \"#utility.yul\":2726:2750   */\n      tag_242\n        /* \"#utility.yul\":2744:2749   */\n      dup2\n        /* \"#utility.yul\":2726:2750   */\n      tag_239\n      jump\t// in\n    tag_242:\n        /* \"#utility.yul\":2721:2724   */\n      dup3\n        /* \"#utility.yul\":2714:2751   */\n      mstore\n        /* \"#utility.yul\":2639:2757   */\n      pop\n      pop\n      jump\t// out\n        /* \"#utility.yul\":2839:3731   */\n    tag_243:\n        /* \"#utility.yul\":2998:3001   */\n      0x00\n        /* \"#utility.yul\":3027:3101   */\n      tag_245\n        /* \"#utility.yul\":3095:3100   */\n      dup3\n        /* \"#utility.yul\":3027:3101   */\n      tag_246\n      jump\t// in\n    tag_245:\n        /* \"#utility.yul\":3117:3223   */\n      tag_247\n        /* \"#utility.yul\":3216:3222   */\n      dup2\n        /* \"#utility.yul\":3211:3214   */\n      dup6\n        /* \"#utility.yul\":3117:3223   */\n      tag_248\n      jump\t// in\n    tag_247:\n        /* \"#utility.yul\":3110:3223   */\n      swap4\n      pop\n        /* \"#utility.yul\":3247:3323   */\n      tag_249\n        /* \"#utility.yul\":3317:3322   */\n      dup4\n        /* \"#utility.yul\":3247:3323   */\n      tag_250\n      jump\t// in\n    tag_249:\n        /* \"#utility.yul\":3346:3353   */\n      dup1\n        /* \"#utility.yul\":3377:3378   */\n      0x00\n        /* \"#utility.yul\":3362:3706   */\n    tag_251:\n        /* \"#utility.yul\":3387:3393   */\n      dup4\n        /* \"#utility.yul\":3384:3385   */\n      dup2\n        /* \"#utility.yul\":3381:3394   */\n      lt\n        /* \"#utility.yul\":3362:3706   */\n      iszero\n      tag_253\n      jumpi\n        /* \"#utility.yul\":3463:3469   */\n      dup2\n        /* \"#utility.yul\":3457:3470   */\n      mload\n        /* \"#utility.yul\":3490:3593   */\n      tag_254\n        /* \"#utility.yul\":3589:3592   */\n      dup9\n        /* \"#utility.yul\":3574:3587   */\n      dup3\n        /* \"#utility.yul\":3490:3593   */\n      tag_232\n      jump\t// in\n    tag_254:\n        /* \"#utility.yul\":3483:3593   */\n      swap8\n      pop\n        /* \"#utility.yul\":3616:3696   */\n      tag_255\n        /* \"#utility.yul\":3689:3695   */\n      dup4\n        /* \"#utility.yul\":3616:3696   */\n      tag_256\n      jump\t// in\n    tag_255:\n        /* \"#utility.yul\":3606:3696   */\n      swap3\n      pop\n        /* \"#utility.yul\":3422:3706   */\n      pop\n        /* \"#utility.yul\":3409:3410   */\n      0x01\n        /* \"#utility.yul\":3406:3407   */\n      dup2\n        /* \"#utility.yul\":3402:3411   */\n      add\n        /* \"#utility.yul\":3397:3411   */\n      swap1\n      pop\n        /* \"#utility.yul\":3362:3706   */\n      jump(tag_251)\n    tag_253:\n        /* \"#utility.yul\":3366:3380   */\n      pop\n        /* \"#utility.yul\":3722:3725   */\n      dup6\n        /* \"#utility.yul\":3715:3725   */\n      swap4\n      pop\n        /* \"#utility.yul\":3003:3731   */\n      pop\n      pop\n      pop\n        /* \"#utility.yul\":2839:3731   */\n      swap3\n      swap2\n      pop\n      pop\n      jump\t// out\n        /* \"#utility.yul\":3737:3836   */\n    tag_257:\n        /* \"#utility.yul\":3808:3829   */\n      tag_259\n        /* \"#utility.yul\":3823:3828   */\n      dup2\n        /* \"#utility.yul\":3808:3829   */\n      tag_260\n      jump\t// in\n    tag_259:\n        /* \"#utility.yul\":3803:3806   */\n      dup3\n        /* \"#utility.yul\":3796:3830   */\n      mstore\n        /* \"#utility.yul\":3737:3836   */\n      pop\n      pop\n      jump\t// out\n        /* \"#utility.yul\":3842:3951   */\n    tag_261:\n        /* \"#utility.yul\":3923:3944   */\n      tag_263\n        /* \"#utility.yul\":3938:3943   */\n      dup2\n        /* \"#utility.yul\":3923:3944   */\n      tag_260\n      jump\t// in\n    tag_263:\n        /* \"#utility.yul\":3918:3921   */\n      dup3\n        /* \"#utility.yul\":3911:3945   */\n      mstore\n        /* \"#utility.yul\":3842:3951   */\n      pop\n      pop\n      jump\t// out\n        /* \"#utility.yul\":3957:4075   */\n    tag_264:\n        /* \"#utility.yul\":4044:4068   */\n      tag_266\n        /* \"#utility.yul\":4062:4067   */\n      dup2\n        /* \"#utility.yul\":4044:4068   */\n      tag_267\n      jump\t// in\n    tag_266:\n        /* \"#utility.yul\":4039:4042   */\n      dup3\n        /* \"#utility.yul\":4032:4069   */\n      mstore\n        /* \"#utility.yul\":3957:4075   */\n      pop\n      pop\n      jump\t// out\n        /* \"#utility.yul\":4081:4425   */\n    tag_268:\n        /* \"#utility.yul\":4159:4162   */\n      0x00\n        /* \"#utility.yul\":4187:4226   */\n      tag_270\n        /* \"#utility.yul\":4220:4225   */\n      dup3\n        /* \"#utility.yul\":4187:4226   */\n      tag_271\n      jump\t// in\n    tag_270:\n        /* \"#utility.yul\":4242:4303   */\n      tag_272\n        /* \"#utility.yul\":4296:4302   */\n      dup2\n        /* \"#utility.yul\":4291:4294   */\n      dup6\n        /* \"#utility.yul\":4242:4303   */\n      tag_273\n      jump\t// in\n    tag_272:\n        /* \"#utility.yul\":4235:4303   */\n      swap4\n      pop\n        /* \"#utility.yul\":4312:4364   */\n      tag_274\n        /* \"#utility.yul\":4357:4363   */\n      dup2\n        /* \"#utility.yul\":4352:4355   */\n      dup6\n        /* \"#utility.yul\":4345:4349   */\n      0x20\n        /* \"#utility.yul\":4338:4343   */\n      dup7\n        /* \"#utility.yul\":4334:4350   */\n      add\n        /* \"#utility.yul\":4312:4364   */\n      tag_275\n      jump\t// in\n    tag_274:\n        /* \"#utility.yul\":4389:4418   */\n      tag_276\n        /* \"#utility.yul\":4411:4417   */\n      dup2\n        /* \"#utility.yul\":4389:4418   */\n      tag_277\n      jump\t// in\n    tag_276:\n        /* \"#utility.yul\":4384:4387   */\n      dup5\n        /* \"#utility.yul\":4380:4419   */\n      add\n        /* \"#utility.yul\":4373:4419   */\n      swap2\n      pop\n        /* \"#utility.yul\":4163:4425   */\n      pop\n        /* \"#utility.yul\":4081:4425   */\n      swap3\n      swap2\n      pop\n      pop\n      jump\t// out\n        /* \"#utility.yul\":4431:4795   */\n    tag_278:\n        /* \"#utility.yul\":4519:4522   */\n      0x00\n        /* \"#utility.yul\":4547:4586   */\n      tag_280\n        /* \"#utility.yul\":4580:4585   */\n      dup3\n        /* \"#utility.yul\":4547:4586   */\n      tag_271\n      jump\t// in\n    tag_280:\n        /* \"#utility.yul\":4602:4673   */\n      tag_281\n        /* \"#utility.yul\":4666:4672   */\n      dup2\n        /* \"#utility.yul\":4661:4664   */\n      dup6\n        /* \"#utility.yul\":4602:4673   */\n      tag_282\n      jump\t// in\n    tag_281:\n        /* \"#utility.yul\":4595:4673   */\n      swap4\n      pop\n        /* \"#utility.yul\":4682:4734   */\n      tag_283\n        /* \"#utility.yul\":4727:4733   */\n      dup2\n        /* \"#utility.yul\":4722:4725   */\n      dup6\n        /* \"#utility.yul\":4715:4719   */\n      0x20\n        /* \"#utility.yul\":4708:4713   */\n      dup7\n        /* \"#utility.yul\":4704:4720   */\n      add\n        /* \"#utility.yul\":4682:4734   */\n      tag_275\n      jump\t// in\n    tag_283:\n        /* \"#utility.yul\":4759:4788   */\n      tag_284\n        /* \"#utility.yul\":4781:4787   */\n      dup2\n        /* \"#utility.yul\":4759:4788   */\n      tag_277\n      jump\t// in\n    tag_284:\n        /* \"#utility.yul\":4754:4757   */\n      dup5\n        /* \"#utility.yul\":4750:4789   */\n      add\n        /* \"#utility.yul\":4743:4789   */\n      swap2\n      pop\n        /* \"#utility.yul\":4523:4795   */\n      pop\n        /* \"#utility.yul\":4431:4795   */\n      swap3\n      swap2\n      pop\n      pop\n      jump\t// out\n        /* \"#utility.yul\":4801:5167   */\n    tag_285:\n        /* \"#utility.yul\":4943:4946   */\n      0x00\n        /* \"#utility.yul\":4964:5031   */\n      tag_287\n        /* \"#utility.yul\":5028:5030   */\n      0x1f\n        /* \"#utility.yul\":5023:5026   */\n      dup4\n        /* \"#utility.yul\":4964:5031   */\n      tag_282\n      jump\t// in\n    tag_287:\n        /* \"#utility.yul\":4957:5031   */\n      swap2\n      pop\n        /* \"#utility.yul\":5040:5133   */\n      tag_288\n        /* \"#utility.yul\":5129:5132   */\n      dup3\n        /* \"#utility.yul\":5040:5133   */\n      tag_289\n      jump\t// in\n    tag_288:\n        /* \"#utility.yul\":5158:5160   */\n      0x20\n        /* \"#utility.yul\":5153:5156   */\n      dup3\n        /* \"#utility.yul\":5149:5161   */\n      add\n        /* \"#utility.yul\":5142:5161   */\n      swap1\n      pop\n        /* \"#utility.yul\":4801:5167   */\n      swap2\n      swap1\n      pop\n      jump\t// out\n        /* \"#utility.yul\":5173:5539   */\n    tag_290:\n        /* \"#utility.yul\":5315:5318   */\n      0x00\n        /* \"#utility.yul\":5336:5403   */\n      tag_292\n        /* \"#utility.yul\":5400:5402   */\n      0x26\n        /* \"#utility.yul\":5395:5398   */\n      dup4\n        /* \"#utility.yul\":5336:5403   */\n      tag_282\n      jump\t// in\n    tag_292:\n        /* \"#utility.yul\":5329:5403   */\n      swap2\n      pop\n        /* \"#utility.yul\":5412:5505   */\n      tag_293\n        /* \"#utility.yul\":5501:5504   */\n      dup3\n        /* \"#utility.yul\":5412:5505   */\n      tag_294\n      jump\t// in\n    tag_293:\n        /* \"#utility.yul\":5530:5532   */\n      0x40\n        /* \"#utility.yul\":5525:5528   */\n      dup3\n        /* \"#utility.yul\":5521:5533   */\n      add\n        /* \"#utility.yul\":5514:5533   */\n      swap1\n      pop\n        /* \"#utility.yul\":5173:5539   */\n      swap2\n      swap1\n      pop\n      jump\t// out\n        /* \"#utility.yul\":5545:5911   */\n    tag_295:\n        /* \"#utility.yul\":5687:5690   */\n      0x00\n        /* \"#utility.yul\":5708:5775   */\n      tag_297\n        /* \"#utility.yul\":5772:5774   */\n      0x1c\n        /* \"#utility.yul\":5767:5770   */\n      dup4\n        /* \"#utility.yul\":5708:5775   */\n      tag_282\n      jump\t// in\n    tag_297:\n        /* \"#utility.yul\":5701:5775   */\n      swap2\n      pop\n        /* \"#utility.yul\":5784:5877   */\n      tag_298\n        /* \"#utility.yul\":5873:5876   */\n      dup3\n        /* \"#utility.yul\":5784:5877   */\n      tag_299\n      jump\t// in\n    tag_298:\n        /* \"#utility.yul\":5902:5904   */\n      0x20\n        /* \"#utility.yul\":5897:5900   */\n      dup3\n        /* \"#utility.yul\":5893:5905   */\n      add\n        /* \"#utility.yul\":5886:5905   */\n      swap1\n      pop\n        /* \"#utility.yul\":5545:5911   */\n      swap2\n      swap1\n      pop\n      jump\t// out\n        /* \"#utility.yul\":5917:6283   */\n    tag_300:\n        /* \"#utility.yul\":6059:6062   */\n      0x00\n        /* \"#utility.yul\":6080:6147   */\n      tag_302\n        /* \"#utility.yul\":6144:6146   */\n      0x15\n        /* \"#utility.yul\":6139:6142   */\n      dup4\n        /* \"#utility.yul\":6080:6147   */\n      tag_282\n      jump\t// in\n    tag_302:\n        /* \"#utility.yul\":6073:6147   */\n      swap2\n      pop\n        /* \"#utility.yul\":6156:6249   */\n      tag_303\n        /* \"#utility.yul\":6245:6248   */\n      dup3\n        /* \"#utility.yul\":6156:6249   */\n      tag_304\n      jump\t// in\n    tag_303:\n        /* \"#utility.yul\":6274:6276   */\n      0x20\n        /* \"#utility.yul\":6269:6272   */\n      dup3\n        /* \"#utility.yul\":6265:6277   */\n      add\n        /* \"#utility.yul\":6258:6277   */\n      swap1\n      pop\n        /* \"#utility.yul\":5917:6283   */\n      swap2\n      swap1\n      pop\n      jump\t// out\n        /* \"#utility.yul\":6289:6655   */\n    tag_305:\n        /* \"#utility.yul\":6431:6434   */\n      0x00\n        /* \"#utility.yul\":6452:6519   */\n      tag_307\n        /* \"#utility.yul\":6516:6518   */\n      0x1e\n        /* \"#utility.yul\":6511:6514   */\n      dup4\n        /* \"#utility.yul\":6452:6519   */\n      tag_282\n      jump\t// in\n    tag_307:\n        /* \"#utility.yul\":6445:6519   */\n      swap2\n      pop\n        /* \"#utility.yul\":6528:6621   */\n      tag_308\n        /* \"#utility.yul\":6617:6620   */\n      dup3\n        /* \"#utility.yul\":6528:6621   */\n      tag_309\n      jump\t// in\n    tag_308:\n        /* \"#utility.yul\":6646:6648   */\n      0x20\n        /* \"#utility.yul\":6641:6644   */\n      dup3\n        /* \"#utility.yul\":6637:6649   */\n      add\n        /* \"#utility.yul\":6630:6649   */\n      swap1\n      pop\n        /* \"#utility.yul\":6289:6655   */\n      swap2\n      swap1\n      pop\n      jump\t// out\n        /* \"#utility.yul\":6661:7027   */\n    tag_310:\n        /* \"#utility.yul\":6803:6806   */\n      0x00\n        /* \"#utility.yul\":6824:6891   */\n      tag_312\n        /* \"#utility.yul\":6888:6890   */\n      0x24\n        /* \"#utility.yul\":6883:6886   */\n      dup4\n        /* \"#utility.yul\":6824:6891   */\n      tag_282\n      jump\t// in\n    tag_312:\n        /* \"#utility.yul\":6817:6891   */\n      swap2\n      pop\n        /* \"#utility.yul\":6900:6993   */\n      tag_313\n        /* \"#utility.yul\":6989:6992   */\n      dup3\n        /* \"#utility.yul\":6900:6993   */\n      tag_314\n      jump\t// in\n    tag_313:\n        /* \"#utility.yul\":7018:7020   */\n      0x40\n        /* \"#utility.yul\":7013:7016   */\n      dup3\n        /* \"#utility.yul\":7009:7021   */\n      add\n        /* \"#utility.yul\":7002:7021   */\n      swap1\n      pop\n        /* \"#utility.yul\":6661:7027   */\n      swap2\n      swap1\n      pop\n      jump\t// out\n        /* \"#utility.yul\":7033:7399   */\n    tag_315:\n        /* \"#utility.yul\":7175:7178   */\n      0x00\n        /* \"#utility.yul\":7196:7263   */\n      tag_317\n        /* \"#utility.yul\":7260:7262   */\n      0x28\n        /* \"#utility.yul\":7255:7258   */\n      dup4\n        /* \"#utility.yul\":7196:7263   */\n      tag_282\n      jump\t// in\n    tag_317:\n        /* \"#utility.yul\":7189:7263   */\n      swap2\n      pop\n        /* \"#utility.yul\":7272:7365   */\n      tag_318\n        /* \"#utility.yul\":7361:7364   */\n      dup3\n        /* \"#utility.yul\":7272:7365   */\n      tag_319\n      jump\t// in\n    tag_318:\n        /* \"#utility.yul\":7390:7392   */\n      0x40\n        /* \"#utility.yul\":7385:7388   */\n      dup3\n        /* \"#utility.yul\":7381:7393   */\n      add\n        /* \"#utility.yul\":7374:7393   */\n      swap1\n      pop\n        /* \"#utility.yul\":7033:7399   */\n      swap2\n      swap1\n      pop\n      jump\t// out\n        /* \"#utility.yul\":7405:7771   */\n    tag_320:\n        /* \"#utility.yul\":7547:7550   */\n      0x00\n        /* \"#utility.yul\":7568:7635   */\n      tag_322\n        /* \"#utility.yul\":7632:7634   */\n      0x20\n        /* \"#utility.yul\":7627:7630   */\n      dup4\n        /* \"#utility.yul\":7568:7635   */\n      tag_282\n      jump\t// in\n    tag_322:\n        /* \"#utility.yul\":7561:7635   */\n      swap2\n      pop\n        /* \"#utility.yul\":7644:7737   */\n      tag_323\n        /* \"#utility.yul\":7733:7736   */\n      dup3\n        /* \"#utility.yul\":7644:7737   */\n      tag_324\n      jump\t// in\n    tag_323:\n        /* \"#utility.yul\":7762:7764   */\n      0x20\n        /* \"#utility.yul\":7757:7760   */\n      dup3\n        /* \"#utility.yul\":7753:7765   */\n      add\n        /* \"#utility.yul\":7746:7765   */\n      swap1\n      pop\n        /* \"#utility.yul\":7405:7771   */\n      swap2\n      swap1\n      pop\n      jump\t// out\n        /* \"#utility.yul\":7777:8143   */\n    tag_325:\n        /* \"#utility.yul\":7919:7922   */\n      0x00\n        /* \"#utility.yul\":7940:8007   */\n      tag_327\n        /* \"#utility.yul\":8004:8006   */\n      0x12\n        /* \"#utility.yul\":7999:8002   */\n      dup4\n        /* \"#utility.yul\":7940:8007   */\n      tag_282\n      jump\t// in\n    tag_327:\n        /* \"#utility.yul\":7933:8007   */\n      swap2\n      pop\n        /* \"#utility.yul\":8016:8109   */\n      tag_328\n        /* \"#utility.yul\":8105:8108   */\n      dup3\n        /* \"#utility.yul\":8016:8109   */\n      tag_329\n      jump\t// in\n    tag_328:\n        /* \"#utility.yul\":8134:8136   */\n      0x20\n        /* \"#utility.yul\":8129:8132   */\n      dup3\n        /* \"#utility.yul\":8125:8137   */\n      add\n        /* \"#utility.yul\":8118:8137   */\n      swap1\n      pop\n        /* \"#utility.yul\":7777:8143   */\n      swap2\n      swap1\n      pop\n      jump\t// out\n        /* \"#utility.yul\":8149:8515   */\n    tag_330:\n        /* \"#utility.yul\":8291:8294   */\n      0x00\n        /* \"#utility.yul\":8312:8379   */\n      tag_332\n        /* \"#utility.yul\":8376:8378   */\n      0x25\n        /* \"#utility.yul\":8371:8374   */\n      dup4\n        /* \"#utility.yul\":8312:8379   */\n      tag_282\n      jump\t// in\n    tag_332:\n        /* \"#utility.yul\":8305:8379   */\n      swap2\n      pop\n        /* \"#utility.yul\":8388:8481   */\n      tag_333\n        /* \"#utility.yul\":8477:8480   */\n      dup3\n        /* \"#utility.yul\":8388:8481   */\n      tag_334\n      jump\t// in\n    tag_333:\n        /* \"#utility.yul\":8506:8508   */\n      0x40\n        /* \"#utility.yul\":8501:8504   */\n      dup3\n        /* \"#utility.yul\":8497:8509   */\n      add\n        /* \"#utility.yul\":8490:8509   */\n      swap1\n      pop\n        /* \"#utility.yul\":8149:8515   */\n      swap2\n      swap1\n      pop\n      jump\t// out\n        /* \"#utility.yul\":8599:9213   */\n    tag_335:\n        /* \"#utility.yul\":8716:8719   */\n      0x00\n        /* \"#utility.yul\":8752:8756   */\n      0x40\n        /* \"#utility.yul\":8747:8750   */\n      dup4\n        /* \"#utility.yul\":8743:8757   */\n      add\n        /* \"#utility.yul\":8844:8848   */\n      0x00\n        /* \"#utility.yul\":8837:8842   */\n      dup4\n        /* \"#utility.yul\":8833:8849   */\n      add\n        /* \"#utility.yul\":8827:8850   */\n      mload\n        /* \"#utility.yul\":8863:8926   */\n      tag_337\n        /* \"#utility.yul\":8920:8924   */\n      0x00\n        /* \"#utility.yul\":8915:8918   */\n      dup7\n        /* \"#utility.yul\":8911:8925   */\n      add\n        /* \"#utility.yul\":8897:8909   */\n      dup3\n        /* \"#utility.yul\":8863:8926   */\n      tag_338\n      jump\t// in\n    tag_337:\n        /* \"#utility.yul\":8767:8936   */\n      pop\n        /* \"#utility.yul\":9023:9027   */\n      0x20\n        /* \"#utility.yul\":9016:9021   */\n      dup4\n        /* \"#utility.yul\":9012:9028   */\n      add\n        /* \"#utility.yul\":9006:9029   */\n      mload\n        /* \"#utility.yul\":9076:9079   */\n      dup5\n        /* \"#utility.yul\":9070:9074   */\n      dup3\n        /* \"#utility.yul\":9066:9080   */\n      sub\n        /* \"#utility.yul\":9059:9063   */\n      0x20\n        /* \"#utility.yul\":9054:9057   */\n      dup7\n        /* \"#utility.yul\":9050:9064   */\n      add\n        /* \"#utility.yul\":9043:9081   */\n      mstore\n        /* \"#utility.yul\":9102:9175   */\n      tag_339\n        /* \"#utility.yul\":9170:9174   */\n      dup3\n        /* \"#utility.yul\":9156:9168   */\n      dup3\n        /* \"#utility.yul\":9102:9175   */\n      tag_268\n      jump\t// in\n    tag_339:\n        /* \"#utility.yul\":9094:9175   */\n      swap2\n      pop\n        /* \"#utility.yul\":8946:9186   */\n      pop\n        /* \"#utility.yul\":9203:9207   */\n      dup1\n        /* \"#utility.yul\":9196:9207   */\n      swap2\n      pop\n        /* \"#utility.yul\":8721:9213   */\n      pop\n        /* \"#utility.yul\":8599:9213   */\n      swap3\n      swap2\n      pop\n      pop\n      jump\t// out\n        /* \"#utility.yul\":9291:9946   */\n    tag_235:\n        /* \"#utility.yul\":9418:9422   */\n      0x60\n        /* \"#utility.yul\":9413:9416   */\n      dup3\n        /* \"#utility.yul\":9409:9423   */\n      add\n        /* \"#utility.yul\":9506:9510   */\n      0x00\n        /* \"#utility.yul\":9499:9504   */\n      dup3\n        /* \"#utility.yul\":9495:9511   */\n      add\n        /* \"#utility.yul\":9489:9512   */\n      mload\n        /* \"#utility.yul\":9525:9582   */\n      tag_341\n        /* \"#utility.yul\":9576:9580   */\n      0x00\n        /* \"#utility.yul\":9571:9574   */\n      dup6\n        /* \"#utility.yul\":9567:9581   */\n      add\n        /* \"#utility.yul\":9553:9565   */\n      dup3\n        /* \"#utility.yul\":9525:9582   */\n      tag_257\n      jump\t// in\n    tag_341:\n        /* \"#utility.yul\":9433:9592   */\n      pop\n        /* \"#utility.yul\":9674:9678   */\n      0x20\n        /* \"#utility.yul\":9667:9672   */\n      dup3\n        /* \"#utility.yul\":9663:9679   */\n      add\n        /* \"#utility.yul\":9657:9680   */\n      mload\n        /* \"#utility.yul\":9693:9750   */\n      tag_342\n        /* \"#utility.yul\":9744:9748   */\n      0x20\n        /* \"#utility.yul\":9739:9742   */\n      dup6\n        /* \"#utility.yul\":9735:9749   */\n      add\n        /* \"#utility.yul\":9721:9733   */\n      dup3\n        /* \"#utility.yul\":9693:9750   */\n      tag_257\n      jump\t// in\n    tag_342:\n        /* \"#utility.yul\":9602:9760   */\n      pop\n        /* \"#utility.yul\":9847:9851   */\n      0x40\n        /* \"#utility.yul\":9840:9845   */\n      dup3\n        /* \"#utility.yul\":9836:9852   */\n      add\n        /* \"#utility.yul\":9830:9853   */\n      mload\n        /* \"#utility.yul\":9866:9929   */\n      tag_343\n        /* \"#utility.yul\":9923:9927   */\n      0x40\n        /* \"#utility.yul\":9918:9921   */\n      dup6\n        /* \"#utility.yul\":9914:9928   */\n      add\n        /* \"#utility.yul\":9900:9912   */\n      dup3\n        /* \"#utility.yul\":9866:9929   */\n      tag_236\n      jump\t// in\n    tag_343:\n        /* \"#utility.yul\":9770:9939   */\n      pop\n        /* \"#utility.yul\":9387:9946   */\n      pop\n        /* \"#utility.yul\":9291:9946   */\n      pop\n      pop\n      jump\t// out\n        /* \"#utility.yul\":9952:10060   */\n    tag_338:\n        /* \"#utility.yul\":10029:10053   */\n      tag_345\n        /* \"#utility.yul\":10047:10052   */\n      dup2\n        /* \"#utility.yul\":10029:10053   */\n      tag_346\n      jump\t// in\n    tag_345:\n        /* \"#utility.yul\":10024:10027   */\n      dup3\n        /* \"#utility.yul\":10017:10054   */\n      mstore\n        /* \"#utility.yul\":9952:10060   */\n      pop\n      pop\n      jump\t// out\n        /* \"#utility.yul\":10066:10184   */\n    tag_347:\n        /* \"#utility.yul\":10153:10177   */\n      tag_349\n        /* \"#utility.yul\":10171:10176   */\n      dup2\n        /* \"#utility.yul\":10153:10177   */\n      tag_346\n      jump\t// in\n    tag_349:\n        /* \"#utility.yul\":10148:10151   */\n      dup3\n        /* \"#utility.yul\":10141:10178   */\n      mstore\n        /* \"#utility.yul\":10066:10184   */\n      pop\n      pop\n      jump\t// out\n        /* \"#utility.yul\":10190:10412   */\n    tag_28:\n        /* \"#utility.yul\":10283:10287   */\n      0x00\n        /* \"#utility.yul\":10321:10323   */\n      0x20\n        /* \"#utility.yul\":10310:10319   */\n      dup3\n        /* \"#utility.yul\":10306:10324   */\n      add\n        /* \"#utility.yul\":10298:10324   */\n      swap1\n      pop\n        /* \"#utility.yul\":10334:10405   */\n      tag_351\n        /* \"#utility.yul\":10402:10403   */\n      0x00\n        /* \"#utility.yul\":10391:10400   */\n      dup4\n        /* \"#utility.yul\":10387:10404   */\n      add\n        /* \"#utility.yul\":10378:10384   */\n      dup5\n        /* \"#utility.yul\":10334:10405   */\n      tag_240\n      jump\t// in\n    tag_351:\n        /* \"#utility.yul\":10190:10412   */\n      swap3\n      swap2\n      pop\n      pop\n      jump\t// out\n        /* \"#utility.yul\":10418:10836   */\n    tag_45:\n        /* \"#utility.yul\":10555:10559   */\n      0x00\n        /* \"#utility.yul\":10593:10595   */\n      0x60\n        /* \"#utility.yul\":10582:10591   */\n      dup3\n        /* \"#utility.yul\":10578:10596   */\n      add\n        /* \"#utility.yul\":10570:10596   */\n      swap1\n      pop\n        /* \"#utility.yul\":10606:10671   */\n      tag_353\n        /* \"#utility.yul\":10668:10669   */\n      0x00\n        /* \"#utility.yul\":10657:10666   */\n      dup4\n        /* \"#utility.yul\":10653:10670   */\n      add\n        /* \"#utility.yul\":10644:10650   */\n      dup7\n        /* \"#utility.yul\":10606:10671   */\n      tag_261\n      jump\t// in\n    tag_353:\n        /* \"#utility.yul\":10681:10747   */\n      tag_354\n        /* \"#utility.yul\":10743:10745   */\n      0x20\n        /* \"#utility.yul\":10732:10741   */\n      dup4\n        /* \"#utility.yul\":10728:10746   */\n      add\n        /* \"#utility.yul\":10719:10725   */\n      dup6\n        /* \"#utility.yul\":10681:10747   */\n      tag_261\n      jump\t// in\n    tag_354:\n        /* \"#utility.yul\":10757:10829   */\n      tag_355\n        /* \"#utility.yul\":10825:10827   */\n      0x40\n        /* \"#utility.yul\":10814:10823   */\n      dup4\n        /* \"#utility.yul\":10810:10828   */\n      add\n        /* \"#utility.yul\":10801:10807   */\n      dup5\n        /* \"#utility.yul\":10757:10829   */\n      tag_240\n      jump\t// in\n    tag_355:\n        /* \"#utility.yul\":10418:10836   */\n      swap5\n      swap4\n      pop\n      pop\n      pop\n      pop\n      jump\t// out\n        /* \"#utility.yul\":10842:11662   */\n    tag_63:\n        /* \"#utility.yul\":11129:11133   */\n      0x00\n        /* \"#utility.yul\":11167:11169   */\n      0x60\n        /* \"#utility.yul\":11156:11165   */\n      dup3\n        /* \"#utility.yul\":11152:11170   */\n      add\n        /* \"#utility.yul\":11144:11170   */\n      swap1\n      pop\n        /* \"#utility.yul\":11180:11251   */\n      tag_357\n        /* \"#utility.yul\":11248:11249   */\n      0x00\n        /* \"#utility.yul\":11237:11246   */\n      dup4\n        /* \"#utility.yul\":11233:11250   */\n      add\n        /* \"#utility.yul\":11224:11230   */\n      dup7\n        /* \"#utility.yul\":11180:11251   */\n      tag_264\n      jump\t// in\n    tag_357:\n        /* \"#utility.yul\":11298:11307   */\n      dup2\n        /* \"#utility.yul\":11292:11296   */\n      dup2\n        /* \"#utility.yul\":11288:11308   */\n      sub\n        /* \"#utility.yul\":11283:11285   */\n      0x20\n        /* \"#utility.yul\":11272:11281   */\n      dup4\n        /* \"#utility.yul\":11268:11286   */\n      add\n        /* \"#utility.yul\":11261:11309   */\n      mstore\n        /* \"#utility.yul\":11326:11432   */\n      tag_358\n        /* \"#utility.yul\":11427:11431   */\n      dup2\n        /* \"#utility.yul\":11418:11424   */\n      dup6\n        /* \"#utility.yul\":11326:11432   */\n      tag_335\n      jump\t// in\n    tag_358:\n        /* \"#utility.yul\":11318:11432   */\n      swap1\n      pop\n        /* \"#utility.yul\":11479:11488   */\n      dup2\n        /* \"#utility.yul\":11473:11477   */\n      dup2\n        /* \"#utility.yul\":11469:11489   */\n      sub\n        /* \"#utility.yul\":11464:11466   */\n      0x40\n        /* \"#utility.yul\":11453:11462   */\n      dup4\n        /* \"#utility.yul\":11449:11467   */\n      add\n        /* \"#utility.yul\":11442:11490   */\n      mstore\n        /* \"#utility.yul\":11507:11655   */\n      tag_359\n        /* \"#utility.yul\":11650:11654   */\n      dup2\n        /* \"#utility.yul\":11641:11647   */\n      dup5\n        /* \"#utility.yul\":11507:11655   */\n      tag_243\n      jump\t// in\n    tag_359:\n        /* \"#utility.yul\":11499:11655   */\n      swap1\n      pop\n        /* \"#utility.yul\":10842:11662   */\n      swap5\n      swap4\n      pop\n      pop\n      pop\n      pop\n      jump\t// out\n        /* \"#utility.yul\":11668:11981   */\n    tag_36:\n        /* \"#utility.yul\":11781:11785   */\n      0x00\n        /* \"#utility.yul\":11819:11821   */\n      0x20\n        /* \"#utility.yul\":11808:11817   */\n      dup3\n        /* \"#utility.yul\":11804:11822   */\n      add\n        /* \"#utility.yul\":11796:11822   */\n      swap1\n      pop\n        /* \"#utility.yul\":11868:11877   */\n      dup2\n        /* \"#utility.yul\":11862:11866   */\n      dup2\n        /* \"#utility.yul\":11858:11878   */\n      sub\n        /* \"#utility.yul\":11854:11855   */\n      0x00\n        /* \"#utility.yul\":11843:11852   */\n      dup4\n        /* \"#utility.yul\":11839:11856   */\n      add\n        /* \"#utility.yul\":11832:11879   */\n      mstore\n        /* \"#utility.yul\":11896:11974   */\n      tag_361\n        /* \"#utility.yul\":11969:11973   */\n      dup2\n        /* \"#utility.yul\":11960:11966   */\n      dup5\n        /* \"#utility.yul\":11896:11974   */\n      tag_278\n      jump\t// in\n    tag_361:\n        /* \"#utility.yul\":11888:11974   */\n      swap1\n      pop\n        /* \"#utility.yul\":11668:11981   */\n      swap3\n      swap2\n      pop\n      pop\n      jump\t// out\n        /* \"#utility.yul\":11987:12742   */\n    tag_73:\n        /* \"#utility.yul\":12212:12216   */\n      0x00\n        /* \"#utility.yul\":12250:12253   */\n      0xa0\n        /* \"#utility.yul\":12239:12248   */\n      dup3\n        /* \"#utility.yul\":12235:12254   */\n      add\n        /* \"#utility.yul\":12227:12254   */\n      swap1\n      pop\n        /* \"#utility.yul\":12300:12309   */\n      dup2\n        /* \"#utility.yul\":12294:12298   */\n      dup2\n        /* \"#utility.yul\":12290:12310   */\n      sub\n        /* \"#utility.yul\":12286:12287   */\n      0x00\n        /* \"#utility.yul\":12275:12284   */\n      dup4\n        /* \"#utility.yul\":12271:12288   */\n      add\n        /* \"#utility.yul\":12264:12311   */\n      mstore\n        /* \"#utility.yul\":12328:12406   */\n      tag_363\n        /* \"#utility.yul\":12401:12405   */\n      dup2\n        /* \"#utility.yul\":12392:12398   */\n      dup9\n        /* \"#utility.yul\":12328:12406   */\n      tag_278\n      jump\t// in\n    tag_363:\n        /* \"#utility.yul\":12320:12406   */\n      swap1\n      pop\n        /* \"#utility.yul\":12416:12488   */\n      tag_364\n        /* \"#utility.yul\":12484:12486   */\n      0x20\n        /* \"#utility.yul\":12473:12482   */\n      dup4\n        /* \"#utility.yul\":12469:12487   */\n      add\n        /* \"#utility.yul\":12460:12466   */\n      dup8\n        /* \"#utility.yul\":12416:12488   */\n      tag_347\n      jump\t// in\n    tag_364:\n        /* \"#utility.yul\":12498:12570   */\n      tag_365\n        /* \"#utility.yul\":12566:12568   */\n      0x40\n        /* \"#utility.yul\":12555:12564   */\n      dup4\n        /* \"#utility.yul\":12551:12569   */\n      add\n        /* \"#utility.yul\":12542:12548   */\n      dup7\n        /* \"#utility.yul\":12498:12570   */\n      tag_240\n      jump\t// in\n    tag_365:\n        /* \"#utility.yul\":12580:12652   */\n      tag_366\n        /* \"#utility.yul\":12648:12650   */\n      0x60\n        /* \"#utility.yul\":12637:12646   */\n      dup4\n        /* \"#utility.yul\":12633:12651   */\n      add\n        /* \"#utility.yul\":12624:12630   */\n      dup6\n        /* \"#utility.yul\":12580:12652   */\n      tag_347\n      jump\t// in\n    tag_366:\n        /* \"#utility.yul\":12662:12735   */\n      tag_367\n        /* \"#utility.yul\":12730:12733   */\n      0x80\n        /* \"#utility.yul\":12719:12728   */\n      dup4\n        /* \"#utility.yul\":12715:12734   */\n      add\n        /* \"#utility.yul\":12706:12712   */\n      dup5\n        /* \"#utility.yul\":12662:12735   */\n      tag_347\n      jump\t// in\n    tag_367:\n        /* \"#utility.yul\":11987:12742   */\n      swap7\n      swap6\n      pop\n      pop\n      pop\n      pop\n      pop\n      pop\n      jump\t// out\n        /* \"#utility.yul\":12748:13167   */\n    tag_98:\n        /* \"#utility.yul\":12914:12918   */\n      0x00\n        /* \"#utility.yul\":12952:12954   */\n      0x20\n        /* \"#utility.yul\":12941:12950   */\n      dup3\n        /* \"#utility.yul\":12937:12955   */\n      add\n        /* \"#utility.yul\":12929:12955   */\n      swap1\n      pop\n        /* \"#utility.yul\":13001:13010   */\n      dup2\n        /* \"#utility.yul\":12995:12999   */\n      dup2\n        /* \"#utility.yul\":12991:13011   */\n      sub\n        /* \"#utility.yul\":12987:12988   */\n      0x00\n        /* \"#utility.yul\":12976:12985   */\n      dup4\n        /* \"#utility.yul\":12972:12989   */\n      add\n        /* \"#utility.yul\":12965:13012   */\n      mstore\n        /* \"#utility.yul\":13029:13160   */\n      tag_369\n        /* \"#utility.yul\":13155:13159   */\n      dup2\n        /* \"#utility.yul\":13029:13160   */\n      tag_285\n      jump\t// in\n    tag_369:\n        /* \"#utility.yul\":13021:13160   */\n      swap1\n      pop\n        /* \"#utility.yul\":12748:13167   */\n      swap2\n      swap1\n      pop\n      jump\t// out\n        /* \"#utility.yul\":13173:13592   */\n    tag_161:\n        /* \"#utility.yul\":13339:13343   */\n      0x00\n        /* \"#utility.yul\":13377:13379   */\n      0x20\n        /* \"#utility.yul\":13366:13375   */\n      dup3\n        /* \"#utility.yul\":13362:13380   */\n      add\n        /* \"#utility.yul\":13354:13380   */\n      swap1\n      pop\n        /* \"#utility.yul\":13426:13435   */\n      dup2\n        /* \"#utility.yul\":13420:13424   */\n      dup2\n        /* \"#utility.yul\":13416:13436   */\n      sub\n        /* \"#utility.yul\":13412:13413   */\n      0x00\n        /* \"#utility.yul\":13401:13410   */\n      dup4\n        /* \"#utility.yul\":13397:13414   */\n      add\n        /* \"#utility.yul\":13390:13437   */\n      mstore\n        /* \"#utility.yul\":13454:13585   */\n      tag_371\n        /* \"#utility.yul\":13580:13584   */\n      dup2\n        /* \"#utility.yul\":13454:13585   */\n      tag_290\n      jump\t// in\n    tag_371:\n        /* \"#utility.yul\":13446:13585   */\n      swap1\n      pop\n        /* \"#utility.yul\":13173:13592   */\n      swap2\n      swap1\n      pop\n      jump\t// out\n        /* \"#utility.yul\":13598:14017   */\n    tag_119:\n        /* \"#utility.yul\":13764:13768   */\n      0x00\n        /* \"#utility.yul\":13802:13804   */\n      0x20\n        /* \"#utility.yul\":13791:13800   */\n      dup3\n        /* \"#utility.yul\":13787:13805   */\n      add\n        /* \"#utility.yul\":13779:13805   */\n      swap1\n      pop\n        /* \"#utility.yul\":13851:13860   */\n      dup2\n        /* \"#utility.yul\":13845:13849   */\n      dup2\n        /* \"#utility.yul\":13841:13861   */\n      sub\n        /* \"#utility.yul\":13837:13838   */\n      0x00\n        /* \"#utility.yul\":13826:13835   */\n      dup4\n        /* \"#utility.yul\":13822:13839   */\n      add\n        /* \"#utility.yul\":13815:13862   */\n      mstore\n        /* \"#utility.yul\":13879:14010   */\n      tag_373\n        /* \"#utility.yul\":14005:14009   */\n      dup2\n        /* \"#utility.yul\":13879:14010   */\n      tag_295\n      jump\t// in\n    tag_373:\n        /* \"#utility.yul\":13871:14010   */\n      swap1\n      pop\n        /* \"#utility.yul\":13598:14017   */\n      swap2\n      swap1\n      pop\n      jump\t// out\n        /* \"#utility.yul\":14023:14442   */\n    tag_95:\n        /* \"#utility.yul\":14189:14193   */\n      0x00\n        /* \"#utility.yul\":14227:14229   */\n      0x20\n        /* \"#utility.yul\":14216:14225   */\n      dup3\n        /* \"#utility.yul\":14212:14230   */\n      add\n        /* \"#utility.yul\":14204:14230   */\n      swap1\n      pop\n        /* \"#utility.yul\":14276:14285   */\n      dup2\n        /* \"#utility.yul\":14270:14274   */\n      dup2\n        /* \"#utility.yul\":14266:14286   */\n      sub\n        /* \"#utility.yul\":14262:14263   */\n      0x00\n        /* \"#utility.yul\":14251:14260   */\n      dup4\n        /* \"#utility.yul\":14247:14264   */\n      add\n        /* \"#utility.yul\":14240:14287   */\n      mstore\n        /* \"#utility.yul\":14304:14435   */\n      tag_375\n        /* \"#utility.yul\":14430:14434   */\n      dup2\n        /* \"#utility.yul\":14304:14435   */\n      tag_300\n      jump\t// in\n    tag_375:\n        /* \"#utility.yul\":14296:14435   */\n      swap1\n      pop\n        /* \"#utility.yul\":14023:14442   */\n      swap2\n      swap1\n      pop\n      jump\t// out\n        /* \"#utility.yul\":14448:14867   */\n    tag_116:\n        /* \"#utility.yul\":14614:14618   */\n      0x00\n        /* \"#utility.yul\":14652:14654   */\n      0x20\n        /* \"#utility.yul\":14641:14650   */\n      dup3\n        /* \"#utility.yul\":14637:14655   */\n      add\n        /* \"#utility.yul\":14629:14655   */\n      swap1\n      pop\n        /* \"#utility.yul\":14701:14710   */\n      dup2\n        /* \"#utility.yul\":14695:14699   */\n      dup2\n        /* \"#utility.yul\":14691:14711   */\n      sub\n        /* \"#utility.yul\":14687:14688   */\n      0x00\n        /* \"#utility.yul\":14676:14685   */\n      dup4\n        /* \"#utility.yul\":14672:14689   */\n      add\n        /* \"#utility.yul\":14665:14712   */\n      mstore\n        /* \"#utility.yul\":14729:14860   */\n      tag_377\n        /* \"#utility.yul\":14855:14859   */\n      dup2\n        /* \"#utility.yul\":14729:14860   */\n      tag_305\n      jump\t// in\n    tag_377:\n        /* \"#utility.yul\":14721:14860   */\n      swap1\n      pop\n        /* \"#utility.yul\":14448:14867   */\n      swap2\n      swap1\n      pop\n      jump\t// out\n        /* \"#utility.yul\":14873:15292   */\n    tag_101:\n        /* \"#utility.yul\":15039:15043   */\n      0x00\n        /* \"#utility.yul\":15077:15079   */\n      0x20\n        /* \"#utility.yul\":15066:15075   */\n      dup3\n        /* \"#utility.yul\":15062:15080   */\n      add\n        /* \"#utility.yul\":15054:15080   */\n      swap1\n      pop\n        /* \"#utility.yul\":15126:15135   */\n      dup2\n        /* \"#utility.yul\":15120:15124   */\n      dup2\n        /* \"#utility.yul\":15116:15136   */\n      sub\n        /* \"#utility.yul\":15112:15113   */\n      0x00\n        /* \"#utility.yul\":15101:15110   */\n      dup4\n        /* \"#utility.yul\":15097:15114   */\n      add\n        /* \"#utility.yul\":15090:15137   */\n      mstore\n        /* \"#utility.yul\":15154:15285   */\n      tag_379\n        /* \"#utility.yul\":15280:15284   */\n      dup2\n        /* \"#utility.yul\":15154:15285   */\n      tag_310\n      jump\t// in\n    tag_379:\n        /* \"#utility.yul\":15146:15285   */\n      swap1\n      pop\n        /* \"#utility.yul\":14873:15292   */\n      swap2\n      swap1\n      pop\n      jump\t// out\n        /* \"#utility.yul\":15298:15717   */\n    tag_92:\n        /* \"#utility.yul\":15464:15468   */\n      0x00\n        /* \"#utility.yul\":15502:15504   */\n      0x20\n        /* \"#utility.yul\":15491:15500   */\n      dup3\n        /* \"#utility.yul\":15487:15505   */\n      add\n        /* \"#utility.yul\":15479:15505   */\n      swap1\n      pop\n        /* \"#utility.yul\":15551:15560   */\n      dup2\n        /* \"#utility.yul\":15545:15549   */\n      dup2\n        /* \"#utility.yul\":15541:15561   */\n      sub\n        /* \"#utility.yul\":15537:15538   */\n      0x00\n        /* \"#utility.yul\":15526:15535   */\n      dup4\n        /* \"#utility.yul\":15522:15539   */\n      add\n        /* \"#utility.yul\":15515:15562   */\n      mstore\n        /* \"#utility.yul\":15579:15710   */\n      tag_381\n        /* \"#utility.yul\":15705:15709   */\n      dup2\n        /* \"#utility.yul\":15579:15710   */\n      tag_315\n      jump\t// in\n    tag_381:\n        /* \"#utility.yul\":15571:15710   */\n      swap1\n      pop\n        /* \"#utility.yul\":15298:15717   */\n      swap2\n      swap1\n      pop\n      jump\t// out\n        /* \"#utility.yul\":15723:16142   */\n    tag_143:\n        /* \"#utility.yul\":15889:15893   */\n      0x00\n        /* \"#utility.yul\":15927:15929   */\n      0x20\n        /* \"#utility.yul\":15916:15925   */\n      dup3\n        /* \"#utility.yul\":15912:15930   */\n      add\n        /* \"#utility.yul\":15904:15930   */\n      swap1\n      pop\n        /* \"#utility.yul\":15976:15985   */\n      dup2\n        /* \"#utility.yul\":15970:15974   */\n      dup2\n        /* \"#utility.yul\":15966:15986   */\n      sub\n        /* \"#utility.yul\":15962:15963   */\n      0x00\n        /* \"#utility.yul\":15951:15960   */\n      dup4\n        /* \"#utility.yul\":15947:15964   */\n      add\n        /* \"#utility.yul\":15940:15987   */\n      mstore\n        /* \"#utility.yul\":16004:16135   */\n      tag_383\n        /* \"#utility.yul\":16130:16134   */\n      dup2\n        /* \"#utility.yul\":16004:16135   */\n      tag_320\n      jump\t// in\n    tag_383:\n        /* \"#utility.yul\":15996:16135   */\n      swap1\n      pop\n        /* \"#utility.yul\":15723:16142   */\n      swap2\n      swap1\n      pop\n      jump\t// out\n        /* \"#utility.yul\":16148:16567   */\n    tag_113:\n        /* \"#utility.yul\":16314:16318   */\n      0x00\n        /* \"#utility.yul\":16352:16354   */\n      0x20\n        /* \"#utility.yul\":16341:16350   */\n      dup3\n        /* \"#utility.yul\":16337:16355   */\n      add\n        /* \"#utility.yul\":16329:16355   */\n      swap1\n      pop\n        /* \"#utility.yul\":16401:16410   */\n      dup2\n        /* \"#utility.yul\":16395:16399   */\n      dup2\n        /* \"#utility.yul\":16391:16411   */\n      sub\n        /* \"#utility.yul\":16387:16388   */\n      0x00\n        /* \"#utility.yul\":16376:16385   */\n      dup4\n        /* \"#utility.yul\":16372:16389   */\n      add\n        /* \"#utility.yul\":16365:16412   */\n      mstore\n        /* \"#utility.yul\":16429:16560   */\n      tag_385\n        /* \"#utility.yul\":16555:16559   */\n      dup2\n        /* \"#utility.yul\":16429:16560   */\n      tag_325\n      jump\t// in\n    tag_385:\n        /* \"#utility.yul\":16421:16560   */\n      swap1\n      pop\n        /* \"#utility.yul\":16148:16567   */\n      swap2\n      swap1\n      pop\n      jump\t// out\n        /* \"#utility.yul\":16573:16992   */\n    tag_157:\n        /* \"#utility.yul\":16739:16743   */\n      0x00\n        /* \"#utility.yul\":16777:16779   */\n      0x20\n        /* \"#utility.yul\":16766:16775   */\n      dup3\n        /* \"#utility.yul\":16762:16780   */\n      add\n        /* \"#utility.yul\":16754:16780   */\n      swap1\n      pop\n        /* \"#utility.yul\":16826:16835   */\n      dup2\n        /* \"#utility.yul\":16820:16824   */\n      dup2\n        /* \"#utility.yul\":16816:16836   */\n      sub\n        /* \"#utility.yul\":16812:16813   */\n      0x00\n        /* \"#utility.yul\":16801:16810   */\n      dup4\n        /* \"#utility.yul\":16797:16814   */\n      add\n        /* \"#utility.yul\":16790:16837   */\n      mstore\n        /* \"#utility.yul\":16854:16985   */\n      tag_387\n        /* \"#utility.yul\":16980:16984   */\n      dup2\n        /* \"#utility.yul\":16854:16985   */\n      tag_330\n      jump\t// in\n    tag_387:\n        /* \"#utility.yul\":16846:16985   */\n      swap1\n      pop\n        /* \"#utility.yul\":16573:16992   */\n      swap2\n      swap1\n      pop\n      jump\t// out\n        /* \"#utility.yul\":16998:17220   */\n    tag_52:\n        /* \"#utility.yul\":17091:17095   */\n      0x00\n        /* \"#utility.yul\":17129:17131   */\n      0x20\n        /* \"#utility.yul\":17118:17127   */\n      dup3\n        /* \"#utility.yul\":17114:17132   */\n      add\n        /* \"#utility.yul\":17106:17132   */\n      swap1\n      pop\n        /* \"#utility.yul\":17142:17213   */\n      tag_389\n        /* \"#utility.yul\":17210:17211   */\n      0x00\n        /* \"#utility.yul\":17199:17208   */\n      dup4\n        /* \"#utility.yul\":17195:17212   */\n      add\n        /* \"#utility.yul\":17186:17192   */\n      dup5\n        /* \"#utility.yul\":17142:17213   */\n      tag_347\n      jump\t// in\n    tag_389:\n        /* \"#utility.yul\":16998:17220   */\n      swap3\n      swap2\n      pop\n      pop\n      jump\t// out\n        /* \"#utility.yul\":17226:17649   */\n    tag_59:\n        /* \"#utility.yul\":17367:17371   */\n      0x00\n        /* \"#utility.yul\":17405:17407   */\n      0x40\n        /* \"#utility.yul\":17394:17403   */\n      dup3\n        /* \"#utility.yul\":17390:17408   */\n      add\n        /* \"#utility.yul\":17382:17408   */\n      swap1\n      pop\n        /* \"#utility.yul\":17418:17489   */\n      tag_391\n        /* \"#utility.yul\":17486:17487   */\n      0x00\n        /* \"#utility.yul\":17475:17484   */\n      dup4\n        /* \"#utility.yul\":17471:17488   */\n      add\n        /* \"#utility.yul\":17462:17468   */\n      dup6\n        /* \"#utility.yul\":17418:17489   */\n      tag_347\n      jump\t// in\n    tag_391:\n        /* \"#utility.yul\":17536:17545   */\n      dup2\n        /* \"#utility.yul\":17530:17534   */\n      dup2\n        /* \"#utility.yul\":17526:17546   */\n      sub\n        /* \"#utility.yul\":17521:17523   */\n      0x20\n        /* \"#utility.yul\":17510:17519   */\n      dup4\n        /* \"#utility.yul\":17506:17524   */\n      add\n        /* \"#utility.yul\":17499:17547   */\n      mstore\n        /* \"#utility.yul\":17564:17642   */\n      tag_392\n        /* \"#utility.yul\":17637:17641   */\n      dup2\n        /* \"#utility.yul\":17628:17634   */\n      dup5\n        /* \"#utility.yul\":17564:17642   */\n      tag_278\n      jump\t// in\n    tag_392:\n        /* \"#utility.yul\":17556:17642   */\n      swap1\n      pop\n        /* \"#utility.yul\":17226:17649   */\n      swap4\n      swap3\n      pop\n      pop\n      pop\n      jump\t// out\n        /* \"#utility.yul\":17655:17784   */\n    tag_196:\n        /* \"#utility.yul\":17689:17695   */\n      0x00\n        /* \"#utility.yul\":17716:17736   */\n      tag_394\n      tag_395\n      jump\t// in\n    tag_394:\n        /* \"#utility.yul\":17706:17736   */\n      swap1\n      pop\n        /* \"#utility.yul\":17745:17778   */\n      tag_396\n        /* \"#utility.yul\":17773:17777   */\n      dup3\n        /* \"#utility.yul\":17765:17771   */\n      dup3\n        /* \"#utility.yul\":17745:17778   */\n      tag_397\n      jump\t// in\n    tag_396:\n        /* \"#utility.yul\":17655:17784   */\n      swap2\n      swap1\n      pop\n      jump\t// out\n        /* \"#utility.yul\":17790:17865   */\n    tag_395:\n        /* \"#utility.yul\":17823:17829   */\n      0x00\n        /* \"#utility.yul\":17856:17858   */\n      0x40\n        /* \"#utility.yul\":17850:17859   */\n      mload\n        /* \"#utility.yul\":17840:17859   */\n      swap1\n      pop\n        /* \"#utility.yul\":17790:17865   */\n      swap1\n      jump\t// out\n        /* \"#utility.yul\":17871:18179   */\n    tag_195:\n        /* \"#utility.yul\":17933:17937   */\n      0x00\n        /* \"#utility.yul\":18023:18041   */\n      0xffffffffffffffff\n        /* \"#utility.yul\":18015:18021   */\n      dup3\n        /* \"#utility.yul\":18012:18042   */\n      gt\n        /* \"#utility.yul\":18009:18065   */\n      iszero\n      tag_400\n      jumpi\n        /* \"#utility.yul\":18045:18063   */\n      tag_401\n      tag_402\n      jump\t// in\n    tag_401:\n        /* \"#utility.yul\":18009:18065   */\n    tag_400:\n        /* \"#utility.yul\":18083:18112   */\n      tag_403\n        /* \"#utility.yul\":18105:18111   */\n      dup3\n        /* \"#utility.yul\":18083:18112   */\n      tag_277\n      jump\t// in\n    tag_403:\n        /* \"#utility.yul\":18075:18112   */\n      swap1\n      pop\n        /* \"#utility.yul\":18167:18171   */\n      0x20\n        /* \"#utility.yul\":18161:18165   */\n      dup2\n        /* \"#utility.yul\":18157:18172   */\n      add\n        /* \"#utility.yul\":18149:18172   */\n      swap1\n      pop\n        /* \"#utility.yul\":17871:18179   */\n      swap2\n      swap1\n      pop\n      jump\t// out\n        /* \"#utility.yul\":18185:18337   */\n    tag_250:\n        /* \"#utility.yul\":18272:18276   */\n      0x00\n        /* \"#utility.yul\":18295:18298   */\n      dup2\n        /* \"#utility.yul\":18287:18298   */\n      swap1\n      pop\n        /* \"#utility.yul\":18325:18329   */\n      0x20\n        /* \"#utility.yul\":18320:18323   */\n      dup3\n        /* \"#utility.yul\":18316:18330   */\n      add\n        /* \"#utility.yul\":18308:18330   */\n      swap1\n      pop\n        /* \"#utility.yul\":18185:18337   */\n      swap2\n      swap1\n      pop\n      jump\t// out\n        /* \"#utility.yul\":18343:18477   */\n    tag_246:\n        /* \"#utility.yul\":18430:18436   */\n      0x00\n        /* \"#utility.yul\":18464:18469   */\n      dup2\n        /* \"#utility.yul\":18458:18470   */\n      mload\n        /* \"#utility.yul\":18448:18470   */\n      swap1\n      pop\n        /* \"#utility.yul\":18343:18477   */\n      swap2\n      swap1\n      pop\n      jump\t// out\n        /* \"#utility.yul\":18483:18582   */\n    tag_271:\n        /* \"#utility.yul\":18535:18541   */\n      0x00\n        /* \"#utility.yul\":18569:18574   */\n      dup2\n        /* \"#utility.yul\":18563:18575   */\n      mload\n        /* \"#utility.yul\":18553:18575   */\n      swap1\n      pop\n        /* \"#utility.yul\":18483:18582   */\n      swap2\n      swap1\n      pop\n      jump\t// out\n        /* \"#utility.yul\":18588:18721   */\n    tag_256:\n        /* \"#utility.yul\":18678:18682   */\n      0x00\n        /* \"#utility.yul\":18710:18714   */\n      0x20\n        /* \"#utility.yul\":18705:18708   */\n      dup3\n        /* \"#utility.yul\":18701:18715   */\n      add\n        /* \"#utility.yul\":18693:18715   */\n      swap1\n      pop\n        /* \"#utility.yul\":18588:18721   */\n      swap2\n      swap1\n      pop\n      jump\t// out\n        /* \"#utility.yul\":18727:18931   */\n    tag_248:\n        /* \"#utility.yul\":18846:18857   */\n      0x00\n        /* \"#utility.yul\":18880:18886   */\n      dup3\n        /* \"#utility.yul\":18875:18878   */\n      dup3\n        /* \"#utility.yul\":18868:18887   */\n      mstore\n        /* \"#utility.yul\":18920:18924   */\n      0x20\n        /* \"#utility.yul\":18915:18918   */\n      dup3\n        /* \"#utility.yul\":18911:18925   */\n      add\n        /* \"#utility.yul\":18896:18925   */\n      swap1\n      pop\n        /* \"#utility.yul\":18727:18931   */\n      swap3\n      swap2\n      pop\n      pop\n      jump\t// out\n        /* \"#utility.yul\":18937:19096   */\n    tag_273:\n        /* \"#utility.yul\":19011:19022   */\n      0x00\n        /* \"#utility.yul\":19045:19051   */\n      dup3\n        /* \"#utility.yul\":19040:19043   */\n      dup3\n        /* \"#utility.yul\":19033:19052   */\n      mstore\n        /* \"#utility.yul\":19085:19089   */\n      0x20\n        /* \"#utility.yul\":19080:19083   */\n      dup3\n        /* \"#utility.yul\":19076:19090   */\n      add\n        /* \"#utility.yul\":19061:19090   */\n      swap1\n      pop\n        /* \"#utility.yul\":18937:19096   */\n      swap3\n      swap2\n      pop\n      pop\n      jump\t// out\n        /* \"#utility.yul\":19102:19271   */\n    tag_282:\n        /* \"#utility.yul\":19186:19197   */\n      0x00\n        /* \"#utility.yul\":19220:19226   */\n      dup3\n        /* \"#utility.yul\":19215:19218   */\n      dup3\n        /* \"#utility.yul\":19208:19227   */\n      mstore\n        /* \"#utility.yul\":19260:19264   */\n      0x20\n        /* \"#utility.yul\":19255:19258   */\n      dup3\n        /* \"#utility.yul\":19251:19265   */\n      add\n        /* \"#utility.yul\":19236:19265   */\n      swap1\n      pop\n        /* \"#utility.yul\":19102:19271   */\n      swap3\n      swap2\n      pop\n      pop\n      jump\t// out\n        /* \"#utility.yul\":19277:19582   */\n    tag_122:\n        /* \"#utility.yul\":19317:19320   */\n      0x00\n        /* \"#utility.yul\":19336:19356   */\n      tag_412\n        /* \"#utility.yul\":19354:19355   */\n      dup3\n        /* \"#utility.yul\":19336:19356   */\n      tag_346\n      jump\t// in\n    tag_412:\n        /* \"#utility.yul\":19331:19356   */\n      swap2\n      pop\n        /* \"#utility.yul\":19370:19390   */\n      tag_413\n        /* \"#utility.yul\":19388:19389   */\n      dup4\n        /* \"#utility.yul\":19370:19390   */\n      tag_346\n      jump\t// in\n    tag_413:\n        /* \"#utility.yul\":19365:19390   */\n      swap3\n      pop\n        /* \"#utility.yul\":19524:19525   */\n      dup3\n        /* \"#utility.yul\":19456:19522   */\n      0xffffffffffffffffffffffffffffffffffffffffffffffffffffffffffffffff\n        /* \"#utility.yul\":19452:19526   */\n      sub\n        /* \"#utility.yul\":19449:19450   */\n      dup3\n        /* \"#utility.yul\":19446:19527   */\n      gt\n        /* \"#utility.yul\":19443:19550   */\n      iszero\n      tag_414\n      jumpi\n        /* \"#utility.yul\":19530:19548   */\n      tag_415\n      tag_416\n      jump\t// in\n    tag_415:\n        /* \"#utility.yul\":19443:19550   */\n    tag_414:\n        /* \"#utility.yul\":19574:19575   */\n      dup3\n        /* \"#utility.yul\":19571:19572   */\n      dup3\n        /* \"#utility.yul\":19567:19576   */\n      add\n        /* \"#utility.yul\":19560:19576   */\n      swap1\n      pop\n        /* \"#utility.yul\":19277:19582   */\n      swap3\n      swap2\n      pop\n      pop\n      jump\t// out\n        /* \"#utility.yul\":19588:19773   */\n    tag_163:\n        /* \"#utility.yul\":19628:19629   */\n      0x00\n        /* \"#utility.yul\":19645:19665   */\n      tag_418\n        /* \"#utility.yul\":19663:19664   */\n      dup3\n        /* \"#utility.yul\":19645:19665   */\n      tag_346\n      jump\t// in\n    tag_418:\n        /* \"#utility.yul\":19640:19665   */\n      swap2\n      pop\n        /* \"#utility.yul\":19679:19699   */\n      tag_419\n        /* \"#utility.yul\":19697:19698   */\n      dup4\n        /* \"#utility.yul\":19679:19699   */\n      tag_346\n      jump\t// in\n    tag_419:\n        /* \"#utility.yul\":19674:19699   */\n      swap3\n      pop\n        /* \"#utility.yul\":19718:19719   */\n      dup3\n        /* \"#utility.yul\":19708:19743   */\n      tag_420\n      jumpi\n        /* \"#utility.yul\":19723:19741   */\n      tag_421\n      tag_422\n      jump\t// in\n    tag_421:\n        /* \"#utility.yul\":19708:19743   */\n    tag_420:\n        /* \"#utility.yul\":19765:19766   */\n      dup3\n        /* \"#utility.yul\":19762:19763   */\n      dup3\n        /* \"#utility.yul\":19758:19767   */\n      div\n        /* \"#utility.yul\":19753:19767   */\n      swap1\n      pop\n        /* \"#utility.yul\":19588:19773   */\n      swap3\n      swap2\n      pop\n      pop\n      jump\t// out\n        /* \"#utility.yul\":19779:20127   */\n    tag_165:\n        /* \"#utility.yul\":19819:19826   */\n      0x00\n        /* \"#utility.yul\":19842:19862   */\n      tag_424\n        /* \"#utility.yul\":19860:19861   */\n      dup3\n        /* \"#utility.yul\":19842:19862   */\n      tag_346\n      jump\t// in\n    tag_424:\n        /* \"#utility.yul\":19837:19862   */\n      swap2\n      pop\n        /* \"#utility.yul\":19876:19896   */\n      tag_425\n        /* \"#utility.yul\":19894:19895   */\n      dup4\n        /* \"#utility.yul\":19876:19896   */\n      tag_346\n      jump\t// in\n    tag_425:\n        /* \"#utility.yul\":19871:19896   */\n      swap3\n      pop\n        /* \"#utility.yul\":20064:20065   */\n      dup2\n        /* \"#utility.yul\":19996:20062   */\n      0xffffffffffffffffffffffffffffffffffffffffffffffffffffffffffffffff\n        /* \"#utility.yul\":19992:20066   */\n      div\n        /* \"#utility.yul\":19989:19990   */\n      dup4\n        /* \"#utility.yul\":19986:20067   */\n      gt\n        /* \"#utility.yul\":19981:19982   */\n      dup3\n        /* \"#utility.yul\":19974:19983   */\n      iszero\n        /* \"#utility.yul\":19967:19984   */\n      iszero\n        /* \"#utility.yul\":19963:20068   */\n      and\n        /* \"#utility.yul\":19960:20091   */\n      iszero\n      tag_426\n      jumpi\n        /* \"#utility.yul\":20071:20089   */\n      tag_427\n      tag_416\n      jump\t// in\n    tag_427:\n        /* \"#utility.yul\":19960:20091   */\n    tag_426:\n        /* \"#utility.yul\":20119:20120   */\n      dup3\n        /* \"#utility.yul\":20116:20117   */\n      dup3\n        /* \"#utility.yul\":20112:20121   */\n      mul\n        /* \"#utility.yul\":20101:20121   */\n      swap1\n      pop\n        /* \"#utility.yul\":19779:20127   */\n      swap3\n      swap2\n      pop\n      pop\n      jump\t// out\n        /* \"#utility.yul\":20133:20229   */\n    tag_239:\n        /* \"#utility.yul\":20170:20177   */\n      0x00\n        /* \"#utility.yul\":20199:20223   */\n      tag_429\n        /* \"#utility.yul\":20217:20222   */\n      dup3\n        /* \"#utility.yul\":20199:20223   */\n      tag_430\n      jump\t// in\n    tag_429:\n        /* \"#utility.yul\":20188:20223   */\n      swap1\n      pop\n        /* \"#utility.yul\":20133:20229   */\n      swap2\n      swap1\n      pop\n      jump\t// out\n        /* \"#utility.yul\":20235:20325   */\n    tag_260:\n        /* \"#utility.yul\":20269:20276   */\n      0x00\n        /* \"#utility.yul\":20312:20317   */\n      dup2\n        /* \"#utility.yul\":20305:20318   */\n      iszero\n        /* \"#utility.yul\":20298:20319   */\n      iszero\n        /* \"#utility.yul\":20287:20319   */\n      swap1\n      pop\n        /* \"#utility.yul\":20235:20325   */\n      swap2\n      swap1\n      pop\n      jump\t// out\n        /* \"#utility.yul\":20331:20408   */\n    tag_267:\n        /* \"#utility.yul\":20368:20375   */\n      0x00\n        /* \"#utility.yul\":20397:20402   */\n      dup2\n        /* \"#utility.yul\":20386:20402   */\n      swap1\n      pop\n        /* \"#utility.yul\":20331:20408   */\n      swap2\n      swap1\n      pop\n      jump\t// out\n        /* \"#utility.yul\":20414:20540   */\n    tag_430:\n        /* \"#utility.yul\":20451:20458   */\n      0x00\n        /* \"#utility.yul\":20491:20533   */\n      0xffffffffffffffffffffffffffffffffffffffff\n        /* \"#utility.yul\":20484:20489   */\n      dup3\n        /* \"#utility.yul\":20480:20534   */\n      and\n        /* \"#utility.yul\":20469:20534   */\n      swap1\n      pop\n        /* \"#utility.yul\":20414:20540   */\n      swap2\n      swap1\n      pop\n      jump\t// out\n        /* \"#utility.yul\":20546:20623   */\n    tag_346:\n        /* \"#utility.yul\":20583:20590   */\n      0x00\n        /* \"#utility.yul\":20612:20617   */\n      dup2\n        /* \"#utility.yul\":20601:20617   */\n      swap1\n      pop\n        /* \"#utility.yul\":20546:20623   */\n      swap2\n      swap1\n      pop\n      jump\t// out\n        /* \"#utility.yul\":20629:20715   */\n    tag_435:\n        /* \"#utility.yul\":20664:20671   */\n      0x00\n        /* \"#utility.yul\":20704:20708   */\n      0xff\n        /* \"#utility.yul\":20697:20702   */\n      dup3\n        /* \"#utility.yul\":20693:20709   */\n      and\n        /* \"#utility.yul\":20682:20709   */\n      swap1\n      pop\n        /* \"#utility.yul\":20629:20715   */\n      swap2\n      swap1\n      pop\n      jump\t// out\n        /* \"#utility.yul\":20721:20875   */\n    tag_201:\n        /* \"#utility.yul\":20805:20811   */\n      dup3\n        /* \"#utility.yul\":20800:20803   */\n      dup2\n        /* \"#utility.yul\":20795:20798   */\n      dup4\n        /* \"#utility.yul\":20782:20812   */\n      calldatacopy\n        /* \"#utility.yul\":20867:20868   */\n      0x00\n        /* \"#utility.yul\":20858:20864   */\n      dup4\n        /* \"#utility.yul\":20853:20856   */\n      dup4\n        /* \"#utility.yul\":20849:20865   */\n      add\n        /* \"#utility.yul\":20842:20869   */\n      mstore\n        /* \"#utility.yul\":20721:20875   */\n      pop\n      pop\n      pop\n      jump\t// out\n        /* \"#utility.yul\":20881:21188   */\n    tag_275:\n        /* \"#utility.yul\":20949:20950   */\n      0x00\n        /* \"#utility.yul\":20959:21072   */\n    tag_439:\n        /* \"#utility.yul\":20973:20979   */\n      dup4\n        /* \"#utility.yul\":20970:20971   */\n      dup2\n        /* \"#utility.yul\":20967:20980   */\n      lt\n        /* \"#utility.yul\":20959:21072   */\n      iszero\n      tag_441\n      jumpi\n        /* \"#utility.yul\":21058:21059   */\n      dup1\n        /* \"#utility.yul\":21053:21056   */\n      dup3\n        /* \"#utility.yul\":21049:21060   */\n      add\n        /* \"#utility.yul\":21043:21061   */\n      mload\n        /* \"#utility.yul\":21039:21040   */\n      dup2\n        /* \"#utility.yul\":21034:21037   */\n      dup5\n        /* \"#utility.yul\":21030:21041   */\n      add\n        /* \"#utility.yul\":21023:21062   */\n      mstore\n        /* \"#utility.yul\":20995:20997   */\n      0x20\n        /* \"#utility.yul\":20992:20993   */\n      dup2\n        /* \"#utility.yul\":20988:20998   */\n      add\n        /* \"#utility.yul\":20983:20998   */\n      swap1\n      pop\n        /* \"#utility.yul\":20959:21072   */\n      jump(tag_439)\n    tag_441:\n        /* \"#utility.yul\":21090:21096   */\n      dup4\n        /* \"#utility.yul\":21087:21088   */\n      dup2\n        /* \"#utility.yul\":21084:21097   */\n      gt\n        /* \"#utility.yul\":21081:21182   */\n      iszero\n      tag_442\n      jumpi\n        /* \"#utility.yul\":21170:21171   */\n      0x00\n        /* \"#utility.yul\":21161:21167   */\n      dup5\n        /* \"#utility.yul\":21156:21159   */\n      dup5\n        /* \"#utility.yul\":21152:21168   */\n      add\n        /* \"#utility.yul\":21145:21172   */\n      mstore\n        /* \"#utility.yul\":21081:21182   */\n    tag_442:\n        /* \"#utility.yul\":20930:21188   */\n      pop\n        /* \"#utility.yul\":20881:21188   */\n      pop\n      pop\n      pop\n      jump\t// out\n        /* \"#utility.yul\":21194:21514   */\n    tag_105:\n        /* \"#utility.yul\":21238:21244   */\n      0x00\n        /* \"#utility.yul\":21275:21276   */\n      0x02\n        /* \"#utility.yul\":21269:21273   */\n      dup3\n        /* \"#utility.yul\":21265:21277   */\n      div\n        /* \"#utility.yul\":21255:21277   */\n      swap1\n      pop\n        /* \"#utility.yul\":21322:21323   */\n      0x01\n        /* \"#utility.yul\":21316:21320   */\n      dup3\n        /* \"#utility.yul\":21312:21324   */\n      and\n        /* \"#utility.yul\":21343:21361   */\n      dup1\n        /* \"#utility.yul\":21333:21414   */\n      tag_444\n      jumpi\n        /* \"#utility.yul\":21399:21403   */\n      0x7f\n        /* \"#utility.yul\":21391:21397   */\n      dup3\n        /* \"#utility.yul\":21387:21404   */\n      and\n        /* \"#utility.yul\":21377:21404   */\n      swap2\n      pop\n        /* \"#utility.yul\":21333:21414   */\n    tag_444:\n        /* \"#utility.yul\":21461:21463   */\n      0x20\n        /* \"#utility.yul\":21453:21459   */\n      dup3\n        /* \"#utility.yul\":21450:21464   */\n      lt\n        /* \"#utility.yul\":21430:21448   */\n      dup2\n        /* \"#utility.yul\":21427:21465   */\n      eq\n        /* \"#utility.yul\":21424:21508   */\n      iszero\n      tag_445\n      jumpi\n        /* \"#utility.yul\":21480:21498   */\n      tag_446\n      tag_447\n      jump\t// in\n    tag_446:\n        /* \"#utility.yul\":21424:21508   */\n    tag_445:\n        /* \"#utility.yul\":21245:21514   */\n      pop\n        /* \"#utility.yul\":21194:21514   */\n      swap2\n      swap1\n      pop\n      jump\t// out\n        /* \"#utility.yul\":21520:21801   */\n    tag_397:\n        /* \"#utility.yul\":21603:21630   */\n      tag_449\n        /* \"#utility.yul\":21625:21629   */\n      dup3\n        /* \"#utility.yul\":21603:21630   */\n      tag_277\n      jump\t// in\n    tag_449:\n        /* \"#utility.yul\":21595:21601   */\n      dup2\n        /* \"#utility.yul\":21591:21631   */\n      add\n        /* \"#utility.yul\":21733:21739   */\n      dup2\n        /* \"#utility.yul\":21721:21731   */\n      dup2\n        /* \"#utility.yul\":21718:21740   */\n      lt\n        /* \"#utility.yul\":21697:21715   */\n      0xffffffffffffffff\n        /* \"#utility.yul\":21685:21695   */\n      dup3\n        /* \"#utility.yul\":21682:21716   */\n      gt\n        /* \"#utility.yul\":21679:21741   */\n      or\n        /* \"#utility.yul\":21676:21764   */\n      iszero\n      tag_450\n      jumpi\n        /* \"#utility.yul\":21744:21762   */\n      tag_451\n      tag_402\n      jump\t// in\n    tag_451:\n        /* \"#utility.yul\":21676:21764   */\n    tag_450:\n        /* \"#utility.yul\":21784:21794   */\n      dup1\n        /* \"#utility.yul\":21780:21782   */\n      0x40\n        /* \"#utility.yul\":21773:21795   */\n      mstore\n        /* \"#utility.yul\":21563:21801   */\n      pop\n        /* \"#utility.yul\":21520:21801   */\n      pop\n      pop\n      jump\t// out\n        /* \"#utility.yul\":21807:21974   */\n    tag_180:\n        /* \"#utility.yul\":21844:21847   */\n      0x00\n        /* \"#utility.yul\":21867:21889   */\n      tag_453\n        /* \"#utility.yul\":21883:21888   */\n      dup3\n        /* \"#utility.yul\":21867:21889   */\n      tag_435\n      jump\t// in\n    tag_453:\n        /* \"#utility.yul\":21858:21889   */\n      swap2\n      pop\n        /* \"#utility.yul\":21911:21915   */\n      0xff\n        /* \"#utility.yul\":21904:21909   */\n      dup3\n        /* \"#utility.yul\":21901:21916   */\n      eq\n        /* \"#utility.yul\":21898:21939   */\n      iszero\n      tag_454\n      jumpi\n        /* \"#utility.yul\":21919:21937   */\n      tag_455\n      tag_416\n      jump\t// in\n    tag_455:\n        /* \"#utility.yul\":21898:21939   */\n    tag_454:\n        /* \"#utility.yul\":21966:21967   */\n      0x01\n        /* \"#utility.yul\":21959:21964   */\n      dup3\n        /* \"#utility.yul\":21955:21968   */\n      add\n        /* \"#utility.yul\":21948:21968   */\n      swap1\n      pop\n        /* \"#utility.yul\":21807:21974   */\n      swap2\n      swap1\n      pop\n      jump\t// out\n        /* \"#utility.yul\":21980:22160   */\n    tag_416:\n        /* \"#utility.yul\":22028:22105   */\n      0x4e487b7100000000000000000000000000000000000000000000000000000000\n        /* \"#utility.yul\":22025:22026   */\n      0x00\n        /* \"#utility.yul\":22018:22106   */\n      mstore\n        /* \"#utility.yul\":22125:22129   */\n      0x11\n        /* \"#utility.yul\":22122:22123   */\n      0x04\n        /* \"#utility.yul\":22115:22130   */\n      mstore\n        /* \"#utility.yul\":22149:22153   */\n      0x24\n        /* \"#utility.yul\":22146:22147   */\n      0x00\n        /* \"#utility.yul\":22139:22154   */\n      revert\n        /* \"#utility.yul\":22166:22346   */\n    tag_422:\n        /* \"#utility.yul\":22214:22291   */\n      0x4e487b7100000000000000000000000000000000000000000000000000000000\n        /* \"#utility.yul\":22211:22212   */\n      0x00\n        /* \"#utility.yul\":22204:22292   */\n      mstore\n        /* \"#utility.yul\":22311:22315   */\n      0x12\n        /* \"#utility.yul\":22308:22309   */\n      0x04\n        /* \"#utility.yul\":22301:22316   */\n      mstore\n        /* \"#utility.yul\":22335:22339   */\n      0x24\n        /* \"#utility.yul\":22332:22333   */\n      0x00\n        /* \"#utility.yul\":22325:22340   */\n      revert\n        /* \"#utility.yul\":22352:22532   */\n    tag_447:\n        /* \"#utility.yul\":22400:22477   */\n      0x4e487b7100000000000000000000000000000000000000000000000000000000\n        /* \"#utility.yul\":22397:22398   */\n      0x00\n        /* \"#utility.yul\":22390:22478   */\n      mstore\n        /* \"#utility.yul\":22497:22501   */\n      0x22\n        /* \"#utility.yul\":22494:22495   */\n      0x04\n        /* \"#utility.yul\":22487:22502   */\n      mstore\n        /* \"#utility.yul\":22521:22525   */\n      0x24\n        /* \"#utility.yul\":22518:22519   */\n      0x00\n        /* \"#utility.yul\":22511:22526   */\n      revert\n        /* \"#utility.yul\":22538:22718   */\n    tag_172:\n        /* \"#utility.yul\":22586:22663   */\n      0x4e487b7100000000000000000000000000000000000000000000000000000000\n        /* \"#utility.yul\":22583:22584   */\n      0x00\n        /* \"#utility.yul\":22576:22664   */\n      mstore\n        /* \"#utility.yul\":22683:22687   */\n      0x32\n        /* \"#utility.yul\":22680:22681   */\n      0x04\n        /* \"#utility.yul\":22673:22688   */\n      mstore\n        /* \"#utility.yul\":22707:22711   */\n      0x24\n        /* \"#utility.yul\":22704:22705   */\n      0x00\n        /* \"#utility.yul\":22697:22712   */\n      revert\n        /* \"#utility.yul\":22724:22904   */\n    tag_402:\n        /* \"#utility.yul\":22772:22849   */\n      0x4e487b7100000000000000000000000000000000000000000000000000000000\n        /* \"#utility.yul\":22769:22770   */\n      0x00\n        /* \"#utility.yul\":22762:22850   */\n      mstore\n        /* \"#utility.yul\":22869:22873   */\n      0x41\n        /* \"#utility.yul\":22866:22867   */\n      0x04\n        /* \"#utility.yul\":22859:22874   */\n      mstore\n        /* \"#utility.yul\":22893:22897   */\n      0x24\n        /* \"#utility.yul\":22890:22891   */\n      0x00\n        /* \"#utility.yul\":22883:22898   */\n      revert\n        /* \"#utility.yul\":22910:23027   */\n    tag_210:\n        /* \"#utility.yul\":23019:23020   */\n      0x00\n        /* \"#utility.yul\":23016:23017   */\n      dup1\n        /* \"#utility.yul\":23009:23021   */\n      revert\n        /* \"#utility.yul\":23033:23150   */\n    tag_199:\n        /* \"#utility.yul\":23142:23143   */\n      0x00\n        /* \"#utility.yul\":23139:23140   */\n      dup1\n        /* \"#utility.yul\":23132:23144   */\n      revert\n        /* \"#utility.yul\":23156:23273   */\n    tag_226:\n        /* \"#utility.yul\":23265:23266   */\n      0x00\n        /* \"#utility.yul\":23262:23263   */\n      dup1\n        /* \"#utility.yul\":23255:23267   */\n      revert\n        /* \"#utility.yul\":23279:23396   */\n    tag_219:\n        /* \"#utility.yul\":23388:23389   */\n      0x00\n        /* \"#utility.yul\":23385:23386   */\n      dup1\n        /* \"#utility.yul\":23378:23390   */\n      revert\n        /* \"#utility.yul\":23402:23504   */\n    tag_277:\n        /* \"#utility.yul\":23443:23449   */\n      0x00\n        /* \"#utility.yul\":23494:23496   */\n      0x1f\n        /* \"#utility.yul\":23490:23497   */\n      not\n        /* \"#utility.yul\":23485:23487   */\n      0x1f\n        /* \"#utility.yul\":23478:23483   */\n      dup4\n        /* \"#utility.yul\":23474:23488   */\n      add\n        /* \"#utility.yul\":23470:23498   */\n      and\n        /* \"#utility.yul\":23460:23498   */\n      swap1\n      pop\n        /* \"#utility.yul\":23402:23504   */\n      swap2\n      swap1\n      pop\n      jump\t// out\n        /* \"#utility.yul\":23510:23691   */\n    tag_289:\n        /* \"#utility.yul\":23650:23683   */\n      0x526563697069656e7420697320616c7265616479207265676973746572656400\n        /* \"#utility.yul\":23646:23647   */\n      0x00\n        /* \"#utility.yul\":23638:23644   */\n      dup3\n        /* \"#utility.yul\":23634:23648   */\n      add\n        /* \"#utility.yul\":23627:23684   */\n      mstore\n        /* \"#utility.yul\":23510:23691   */\n      pop\n      jump\t// out\n        /* \"#utility.yul\":23697:23922   */\n    tag_294:\n        /* \"#utility.yul\":23837:23871   */\n      0x596f75206172656e277420617574686f72697a6520746f20636f6d70696c6520\n        /* \"#utility.yul\":23833:23834   */\n      0x00\n        /* \"#utility.yul\":23825:23831   */\n      dup3\n        /* \"#utility.yul\":23821:23835   */\n      add\n        /* \"#utility.yul\":23814:23872   */\n      mstore\n        /* \"#utility.yul\":23906:23914   */\n      0x42756e646c650000000000000000000000000000000000000000000000000000\n        /* \"#utility.yul\":23901:23903   */\n      0x20\n        /* \"#utility.yul\":23893:23899   */\n      dup3\n        /* \"#utility.yul\":23889:23904   */\n      add\n        /* \"#utility.yul\":23882:23915   */\n      mstore\n        /* \"#utility.yul\":23697:23922   */\n      pop\n      jump\t// out\n        /* \"#utility.yul\":23928:24106   */\n    tag_299:\n        /* \"#utility.yul\":24068:24098   */\n      0x596f7520616c72656164792073656e74206120726573706f6e73652e00000000\n        /* \"#utility.yul\":24064:24065   */\n      0x00\n        /* \"#utility.yul\":24056:24062   */\n      dup3\n        /* \"#utility.yul\":24052:24066   */\n      add\n        /* \"#utility.yul\":24045:24099   */\n      mstore\n        /* \"#utility.yul\":23928:24106   */\n      pop\n      jump\t// out\n        /* \"#utility.yul\":24112:24283   */\n    tag_304:\n        /* \"#utility.yul\":24252:24275   */\n      0x496e69746961746f722063616e277420766f7465210000000000000000000000\n        /* \"#utility.yul\":24248:24249   */\n      0x00\n        /* \"#utility.yul\":24240:24246   */\n      dup3\n        /* \"#utility.yul\":24236:24250   */\n      add\n        /* \"#utility.yul\":24229:24276   */\n      mstore\n        /* \"#utility.yul\":24112:24283   */\n      pop\n      jump\t// out\n        /* \"#utility.yul\":24289:24469   */\n    tag_309:\n        /* \"#utility.yul\":24429:24461   */\n      0x596f7520617265206e6f74207265676973746572656420746f20766f74650000\n        /* \"#utility.yul\":24425:24426   */\n      0x00\n        /* \"#utility.yul\":24417:24423   */\n      dup3\n        /* \"#utility.yul\":24413:24427   */\n      add\n        /* \"#utility.yul\":24406:24462   */\n      mstore\n        /* \"#utility.yul\":24289:24469   */\n      pop\n      jump\t// out\n        /* \"#utility.yul\":24475:24698   */\n    tag_314:\n        /* \"#utility.yul\":24615:24649   */\n      0x50726f706f73616c206861732072656163686564206974732065787069727920\n        /* \"#utility.yul\":24611:24612   */\n      0x00\n        /* \"#utility.yul\":24603:24609   */\n      dup3\n        /* \"#utility.yul\":24599:24613   */\n      add\n        /* \"#utility.yul\":24592:24650   */\n      mstore\n        /* \"#utility.yul\":24684:24690   */\n      0x6461746500000000000000000000000000000000000000000000000000000000\n        /* \"#utility.yul\":24679:24681   */\n      0x20\n        /* \"#utility.yul\":24671:24677   */\n      dup3\n        /* \"#utility.yul\":24667:24682   */\n      add\n        /* \"#utility.yul\":24660:24691   */\n      mstore\n        /* \"#utility.yul\":24475:24698   */\n      pop\n      jump\t// out\n        /* \"#utility.yul\":24704:24931   */\n    tag_319:\n        /* \"#utility.yul\":24844:24878   */\n      0x4f6e6c7920696e69746961746f722063616e2072656769737465722061207265\n        /* \"#utility.yul\":24840:24841   */\n      0x00\n        /* \"#utility.yul\":24832:24838   */\n      dup3\n        /* \"#utility.yul\":24828:24842   */\n      add\n        /* \"#utility.yul\":24821:24879   */\n      mstore\n        /* \"#utility.yul\":24913:24923   */\n      0x63697069656e742e000000000000000000000000000000000000000000000000\n        /* \"#utility.yul\":24908:24910   */\n      0x20\n        /* \"#utility.yul\":24900:24906   */\n      dup3\n        /* \"#utility.yul\":24896:24911   */\n      add\n        /* \"#utility.yul\":24889:24924   */\n      mstore\n        /* \"#utility.yul\":24704:24931   */\n      pop\n      jump\t// out\n        /* \"#utility.yul\":24937:25119   */\n    tag_324:\n        /* \"#utility.yul\":25077:25111   */\n      0x5665726469637420686173206e6f74206265656e207265616368656420796574\n        /* \"#utility.yul\":25073:25074   */\n      0x00\n        /* \"#utility.yul\":25065:25071   */\n      dup3\n        /* \"#utility.yul\":25061:25075   */\n      add\n        /* \"#utility.yul\":25054:25112   */\n      mstore\n        /* \"#utility.yul\":24937:25119   */\n      pop\n      jump\t// out\n        /* \"#utility.yul\":25125:25293   */\n    tag_329:\n        /* \"#utility.yul\":25265:25285   */\n      0x566f74696e672068617320657870697265640000000000000000000000000000\n        /* \"#utility.yul\":25261:25262   */\n      0x00\n        /* \"#utility.yul\":25253:25259   */\n      dup3\n        /* \"#utility.yul\":25249:25263   */\n      add\n        /* \"#utility.yul\":25242:25286   */\n      mstore\n        /* \"#utility.yul\":25125:25293   */\n      pop\n      jump\t// out\n        /* \"#utility.yul\":25299:25523   */\n    tag_334:\n        /* \"#utility.yul\":25439:25473   */\n      0x436f6e73656e7375732068617320616c7265616479206265656e2063616c6375\n        /* \"#utility.yul\":25435:25436   */\n      0x00\n        /* \"#utility.yul\":25427:25433   */\n      dup3\n        /* \"#utility.yul\":25423:25437   */\n      add\n        /* \"#utility.yul\":25416:25474   */\n      mstore\n        /* \"#utility.yul\":25508:25515   */\n      0x6c61746564000000000000000000000000000000000000000000000000000000\n        /* \"#utility.yul\":25503:25505   */\n      0x20\n        /* \"#utility.yul\":25495:25501   */\n      dup3\n        /* \"#utility.yul\":25491:25506   */\n      add\n        /* \"#utility.yul\":25484:25516   */\n      mstore\n        /* \"#utility.yul\":25299:25523   */\n      pop\n      jump\t// out\n        /* \"#utility.yul\":25529:25651   */\n    tag_205:\n        /* \"#utility.yul\":25602:25626   */\n      tag_477\n        /* \"#utility.yul\":25620:25625   */\n      dup2\n        /* \"#utility.yul\":25602:25626   */\n      tag_239\n      jump\t// in\n    tag_477:\n        /* \"#utility.yul\":25595:25600   */\n      dup2\n        /* \"#utility.yul\":25592:25627   */\n      eq\n        /* \"#utility.yul\":25582:25645   */\n      tag_478\n      jumpi\n        /* \"#utility.yul\":25641:25642   */\n      0x00\n        /* \"#utility.yul\":25638:25639   */\n      dup1\n        /* \"#utility.yul\":25631:25643   */\n      revert\n        /* \"#utility.yul\":25582:25645   */\n    tag_478:\n        /* \"#utility.yul\":25529:25651   */\n      pop\n      jump\t// out\n        /* \"#utility.yul\":25657:25779   */\n    tag_215:\n        /* \"#utility.yul\":25730:25754   */\n      tag_480\n        /* \"#utility.yul\":25748:25753   */\n      dup2\n        /* \"#utility.yul\":25730:25754   */\n      tag_346\n      jump\t// in\n    tag_480:\n        /* \"#utility.yul\":25723:25728   */\n      dup2\n        /* \"#utility.yul\":25720:25755   */\n      eq\n        /* \"#utility.yul\":25710:25773   */\n      tag_481\n      jumpi\n        /* \"#utility.yul\":25769:25770   */\n      0x00\n        /* \"#utility.yul\":25766:25767   */\n      dup1\n        /* \"#utility.yul\":25759:25771   */\n      revert\n        /* \"#utility.yul\":25710:25773   */\n    tag_481:\n        /* \"#utility.yul\":25657:25779   */\n      pop\n      jump\t// out\n\n    auxdata: 0xa2646970667358221220520d879a236b2f98cfa7448146d8e12c2722c46c04e21589a14fd1042ae2733964736f6c63430008070033\n}\n",
				"bytecode": {
					"linkReferences": {},
					"object": "60806040523480156200001157600080fd5b5060405162002c5b38038062002c5b8339818101604052810190620000379190620002a4565b33600160006101000a81548173ffffffffffffffffffffffffffffffffffffffff021916908373ffffffffffffffffffffffffffffffffffffffff16021790555081426200008691906200037e565b600381905550806004819055506000600581905550600060068190555060006007819055507f52656a6563746564000000000000000000000000000000000000000000000000600881905550306000806101000a81548173ffffffffffffffffffffffffffffffffffffffff021916908373ffffffffffffffffffffffffffffffffffffffff16021790555060405180604001604052806000815260200184815250600b600082015181600001556020820151816001019080519060200190620001529291906200015f565b5090505050505062000553565b8280546200016d906200041b565b90600052602060002090601f016020900481019282620001915760008555620001dd565b82601f10620001ac57805160ff1916838001178555620001dd565b82800160010185558215620001dd579182015b82811115620001dc578251825591602001919060010190620001bf565b5b509050620001ec9190620001f0565b5090565b5b808211156200020b576000816000905550600101620001f1565b5090565b600062000226620002208462000348565b6200031f565b90508281526020810184848401111562000245576200024462000519565b5b62000252848285620003e5565b509392505050565b600082601f83011262000272576200027162000514565b5b8151620002848482602086016200020f565b91505092915050565b6000815190506200029e8162000539565b92915050565b600080600060608486031215620002c057620002bf62000523565b5b600084015167ffffffffffffffff811115620002e157620002e06200051e565b5b620002ef868287016200025a565b935050602062000302868287016200028d565b925050604062000315868287016200028d565b9150509250925092565b60006200032b6200033e565b905062000339828262000451565b919050565b6000604051905090565b600067ffffffffffffffff821115620003665762000365620004e5565b5b620003718262000528565b9050602081019050919050565b60006200038b82620003db565b91506200039883620003db565b9250827fffffffffffffffffffffffffffffffffffffffffffffffffffffffffffffffff03821115620003d057620003cf62000487565b5b828201905092915050565b6000819050919050565b60005b8381101562000405578082015181840152602081019050620003e8565b8381111562000415576000848401525b50505050565b600060028204905060018216806200043457607f821691505b602082108114156200044b576200044a620004b6565b5b50919050565b6200045c8262000528565b810181811067ffffffffffffffff821117156200047e576200047d620004e5565b5b80604052505050565b7f4e487b7100000000000000000000000000000000000000000000000000000000600052601160045260246000fd5b7f4e487b7100000000000000000000000000000000000000000000000000000000600052602260045260246000fd5b7f4e487b7100000000000000000000000000000000000000000000000000000000600052604160045260246000fd5b600080fd5b600080fd5b600080fd5b600080fd5b6000601f19601f8301169050919050565b6200054481620003db565b81146200055057600080fd5b50565b6126f880620005636000396000f3fe608060405234801561001057600080fd5b506004361061010b5760003560e01c8063753ec103116100a2578063a5ea11da11610071578063a5ea11da1461029d578063b9a29250146102bf578063d77aa749146102dd578063da58c7d9146102fb578063f6b4dfb41461032d5761010b565b8063753ec10314610222578063823167451461024157806395b02dfa146102615780639aa4bbdd1461026b5761010b565b80635361a0ea116100de5780635361a0ea146101965780635c39fcc1146101c8578063604c8333146101e65780637403c5e5146102045761010b565b80630cb6aaf11461011057806315fe6f1b1461014057806319eb4a901461015c578063323082d71461017a575b600080fd5b61012a60048036038101906101259190611a8e565b61034b565b6040516101379190611de9565b60405180910390f35b61015a60048036038101906101559190611a18565b61038a565b005b61016461072c565b6040516101719190611e80565b60405180910390f35b610194600480360381019061018f9190611a45565b6107c1565b005b6101b060048036038101906101ab9190611a18565b610f64565b6040516101bf93929190611e04565b60405180910390f35b6101d0611079565b6040516101dd9190611de9565b60405180910390f35b6101ee61109f565b6040516101fb919061203c565b60405180910390f35b61020c6110a5565b604051610219919061203c565b60405180910390f35b61022a6110ab565b604051610238929190612057565b60405180910390f35b610249611145565b60405161025893929190611e3b565b60405180910390f35b610269611333565b005b61028560048036038101906102809190611a18565b61178a565b60405161029493929190611e04565b60405180910390f35b6102a56117ee565b6040516102b6959493929190611ea2565b60405180910390f35b6102c76118c4565b6040516102d4919061203c565b60405180910390f35b6102e56118ca565b6040516102f2919061203c565b60405180910390f35b61031560048036038101906103109190611a8e565b6118d0565b60405161032493929190611e04565b60405180910390f35b610335611940565b6040516103429190611de9565b60405180910390f35b6002818154811061035b57600080fd5b906000526020600020016000915054906101000a900473ffffffffffffffffffffffffffffffffffffffff1681565b600160009054906101000a900473ffffffffffffffffffffffffffffffffffffffff1673ffffffffffffffffffffffffffffffffffffffff163373ffffffffffffffffffffffffffffffffffffffff161461041a576040517f08c379a000000000000000000000000000000000000000000000000000000000815260040161041190611fbc565b60405180910390fd5b600160009054906101000a900473ffffffffffffffffffffffffffffffffffffffff1673ffffffffffffffffffffffffffffffffffffffff168173ffffffffffffffffffffffffffffffffffffffff1614156104ab576040517f08c379a00000000000000000000000000000000000000000000000000000000081526004016104a290611f5c565b60405180910390fd5b600073ffffffffffffffffffffffffffffffffffffffff16600a60008373ffffffffffffffffffffffffffffffffffffffff1673ffffffffffffffffffffffffffffffffffffffff16815260200190815260200160002060000160029054906101000a900473ffffffffffffffffffffffffffffffffffffffff1673ffffffffffffffffffffffffffffffffffffffff161461057c576040517f08c379a000000000000000000000000000000000000000000000000000000000815260040161057390611efc565b60405180910390fd5b60035442106105c0576040517f08c379a00000000000000000000000000000000000000000000000000000000081526004016105b790611f9c565b60405180910390fd5b600060405180606001604052806000151581526020016000151581526020018373ffffffffffffffffffffffffffffffffffffffff16815250905080600a60008473ffffffffffffffffffffffffffffffffffffffff1673ffffffffffffffffffffffffffffffffffffffff16815260200190815260200160002060008201518160000160006101000a81548160ff02191690831515021790555060208201518160000160016101000a81548160ff02191690831515021790555060408201518160000160026101000a81548173ffffffffffffffffffffffffffffffffffffffff021916908373ffffffffffffffffffffffffffffffffffffffff1602179055509050506002829080600181540180825580915050600190039060005260206000200160009091909190916101000a81548173ffffffffffffffffffffffffffffffffffffffff021916908373ffffffffffffffffffffffffffffffffffffffff1602179055505050565b6060600b600101805461073e906122c5565b80601f016020809104026020016040519081016040528092919081815260200182805461076a906122c5565b80156107b75780601f1061078c576101008083540402835291602001916107b7565b820191906000526020600020905b81548152906001019060200180831161079a57829003601f168201915b5050505050905090565b6003544210610805576040517f08c379a00000000000000000000000000000000000000000000000000000000081526004016107fc90611ffc565b60405180910390fd5b600073ffffffffffffffffffffffffffffffffffffffff16600a60003373ffffffffffffffffffffffffffffffffffffffff1673ffffffffffffffffffffffffffffffffffffffff16815260200190815260200160002060000160029054906101000a900473ffffffffffffffffffffffffffffffffffffffff1673ffffffffffffffffffffffffffffffffffffffff1614156108d7576040517f08c379a00000000000000000000000000000000000000000000000000000000081526004016108ce90611f7c565b60405180910390fd5b600a60003373ffffffffffffffffffffffffffffffffffffffff1673ffffffffffffffffffffffffffffffffffffffff16815260200190815260200160002060000160009054906101000a900460ff1615610967576040517f08c379a000000000000000000000000000000000000000000000000000000000815260040161095e90611f3c565b60405180910390fd5b6040518060400160405280600981526020017f6920617070726f766500000000000000000000000000000000000000000000008152508051906020012081805190602001201415610bcd576001600a60003373ffffffffffffffffffffffffffffffffffffffff1673ffffffffffffffffffffffffffffffffffffffff16815260200190815260200160002060000160006101000a81548160ff0219169083151502179055506001600a60003373ffffffffffffffffffffffffffffffffffffffff1673ffffffffffffffffffffffffffffffffffffffff16815260200190815260200160002060000160016101000a81548160ff021916908315150217905550600160066000828254610a7b9190612143565b925050819055506001600b6000016000828254610a989190612143565b925050819055506009600a60003373ffffffffffffffffffffffffffffffffffffffff1673ffffffffffffffffffffffffffffffffffffffff168152602001908152602001600020908060018154018082558091505060019003906000526020600020016000909190919091506000820160009054906101000a900460ff168160000160006101000a81548160ff0219169083151502179055506000820160019054906101000a900460ff168160000160016101000a81548160ff0219169083151502179055506000820160029054906101000a900473ffffffffffffffffffffffffffffffffffffffff168160000160026101000a81548173ffffffffffffffffffffffffffffffffffffffff021916908373ffffffffffffffffffffffffffffffffffffffff1602179055505050610f61565b6040518060400160405280600c81526020017f6920646973617070726f766500000000000000000000000000000000000000008152508051906020012081805190602001201415610dbe576001600a60003373ffffffffffffffffffffffffffffffffffffffff1673ffffffffffffffffffffffffffffffffffffffff16815260200190815260200160002060000160006101000a81548160ff0219169083151502179055506001600b6000016000828254610c899190612143565b925050819055506009600a60003373ffffffffffffffffffffffffffffffffffffffff1673ffffffffffffffffffffffffffffffffffffffff168152602001908152602001600020908060018154018082558091505060019003906000526020600020016000909190919091506000820160009054906101000a900460ff168160000160006101000a81548160ff0219169083151502179055506000820160019054906101000a900460ff168160000160016101000a81548160ff0219169083151502179055506000820160029054906101000a900473ffffffffffffffffffffffffffffffffffffffff168160000160026101000a81548173ffffffffffffffffffffffffffffffffffffffff021916908373ffffffffffffffffffffffffffffffffffffffff1602179055505050610f60565b6001600a60003373ffffffffffffffffffffffffffffffffffffffff1673ffffffffffffffffffffffffffffffffffffffff16815260200190815260200160002060000160006101000a81548160ff0219169083151502179055506001600b6000016000828254610e2f9190612143565b925050819055506009600a60003373ffffffffffffffffffffffffffffffffffffffff1673ffffffffffffffffffffffffffffffffffffffff168152602001908152602001600020908060018154018082558091505060019003906000526020600020016000909190919091506000820160009054906101000a900460ff168160000160006101000a81548160ff0219169083151502179055506000820160019054906101000a900460ff168160000160016101000a81548160ff0219169083151502179055506000820160029054906101000a900473ffffffffffffffffffffffffffffffffffffffff168160000160026101000a81548173ffffffffffffffffffffffffffffffffffffffff021916908373ffffffffffffffffffffffffffffffffffffffff16021790555050505b5b50565b6000806000600a60008573ffffffffffffffffffffffffffffffffffffffff1673ffffffffffffffffffffffffffffffffffffffff16815260200190815260200160002060000160019054906101000a900460ff16600a60008673ffffffffffffffffffffffffffffffffffffffff1673ffffffffffffffffffffffffffffffffffffffff16815260200190815260200160002060000160009054906101000a900460ff16600a60008773ffffffffffffffffffffffffffffffffffffffff1673ffffffffffffffffffffffffffffffffffffffff16815260200190815260200160002060000160029054906101000a900473ffffffffffffffffffffffffffffffffffffffff169250925092509193909250565b600160009054906101000a900473ffffffffffffffffffffffffffffffffffffffff1681565b60055481565b60065481565b600b8060000154908060010180546110c2906122c5565b80601f01602080910402602001604051908101604052809291908181526020018280546110ee906122c5565b801561113b5780601f106111105761010080835404028352916020019161113b565b820191906000526020600020905b81548152906001019060200180831161111e57829003601f168201915b5050505050905082565b600061114f611964565b6060600354421015611196576040517f08c379a000000000000000000000000000000000000000000000000000000000815260040161118d90611fdc565b60405180910390fd5b600854600b600981604051806040016040529081600082015481526020016001820180546111c3906122c5565b80601f01602080910402602001604051908101604052809291908181526020018280546111ef906122c5565b801561123c5780601f106112115761010080835404028352916020019161123c565b820191906000526020600020905b81548152906001019060200180831161121f57829003601f168201915b505050505081525050915080805480602002602001604051908101604052809291908181526020016000905b82821015611322578382906000526020600020016040518060600160405290816000820160009054906101000a900460ff161515151581526020016000820160019054906101000a900460ff161515151581526020016000820160029054906101000a900473ffffffffffffffffffffffffffffffffffffffff1673ffffffffffffffffffffffffffffffffffffffff1673ffffffffffffffffffffffffffffffffffffffff168152505081526020019060010190611268565b505050509050925092509250909192565b600354421015611378576040517f08c379a000000000000000000000000000000000000000000000000000000000815260040161136f90611fdc565b60405180910390fd5b6000600754146113bd576040517f08c379a00000000000000000000000000000000000000000000000000000000081526004016113b49061201c565b60405180910390fd5b600160009054906101000a900473ffffffffffffffffffffffffffffffffffffffff1673ffffffffffffffffffffffffffffffffffffffff163373ffffffffffffffffffffffffffffffffffffffff1614806114a85750600073ffffffffffffffffffffffffffffffffffffffff16600a60003373ffffffffffffffffffffffffffffffffffffffff1673ffffffffffffffffffffffffffffffffffffffff16815260200190815260200160002060000160029054906101000a900473ffffffffffffffffffffffffffffffffffffffff1673ffffffffffffffffffffffffffffffffffffffff1614155b6114e7576040517f08c379a00000000000000000000000000000000000000000000000000000000081526004016114de90611f1c565b60405180910390fd5b60646002805490506006546114fc9190612199565b61150691906121ca565b6005819055506004546005541061153f577f41636365707465640000000000000000000000000000000000000000000000006008819055505b60005b6002805490508160ff16101561176d5760001515600a600060028460ff1681548110611571576115706123df565b5b9060005260206000200160009054906101000a900473ffffffffffffffffffffffffffffffffffffffff1673ffffffffffffffffffffffffffffffffffffffff1673ffffffffffffffffffffffffffffffffffffffff16815260200190815260200160002060000160009054906101000a900460ff161515141561175a576009600a600060028460ff168154811061160c5761160b6123df565b5b9060005260206000200160009054906101000a900473ffffffffffffffffffffffffffffffffffffffff1673ffffffffffffffffffffffffffffffffffffffff1673ffffffffffffffffffffffffffffffffffffffff168152602001908152602001600020908060018154018082558091505060019003906000526020600020016000909190919091506000820160009054906101000a900460ff168160000160006101000a81548160ff0219169083151502179055506000820160019054906101000a900460ff168160000160016101000a81548160ff0219169083151502179055506000820160029054906101000a900473ffffffffffffffffffffffffffffffffffffffff168160000160026101000a81548173ffffffffffffffffffffffffffffffffffffffff021916908373ffffffffffffffffffffffffffffffffffffffff16021790555050505b808061176590612328565b915050611542565b506001600760008282546117819190612143565b92505081905550565b600a6020528060005260406000206000915090508060000160009054906101000a900460ff16908060000160019054906101000a900460ff16908060000160029054906101000a900473ffffffffffffffffffffffffffffffffffffffff16905083565b6060600080600080600b600101600354600160009054906101000a900473ffffffffffffffffffffffffffffffffffffffff16600454600654848054611833906122c5565b80601f016020809104026020016040519081016040528092919081815260200182805461185f906122c5565b80156118ac5780601f10611881576101008083540402835291602001916118ac565b820191906000526020600020905b81548152906001019060200180831161188f57829003601f168201915b50505050509450945094509450945094509091929394565b60075481565b60045481565b600981815481106118e057600080fd5b906000526020600020016000915090508060000160009054906101000a900460ff16908060000160019054906101000a900460ff16908060000160029054906101000a900473ffffffffffffffffffffffffffffffffffffffff16905083565b60008054906101000a900473ffffffffffffffffffffffffffffffffffffffff1681565b604051806040016040528060008152602001606081525090565b600061199161198c846120ac565b612087565b9050828152602081018484840111156119ad576119ac612442565b5b6119b8848285612283565b509392505050565b6000813590506119cf81612694565b92915050565b600082601f8301126119ea576119e961243d565b5b81356119fa84826020860161197e565b91505092915050565b600081359050611a12816126ab565b92915050565b600060208284031215611a2e57611a2d61244c565b5b6000611a3c848285016119c0565b91505092915050565b600060208284031215611a5b57611a5a61244c565b5b600082013567ffffffffffffffff811115611a7957611a78612447565b5b611a85848285016119d5565b91505092915050565b600060208284031215611aa457611aa361244c565b5b6000611ab284828501611a03565b91505092915050565b6000611ac78383611d89565b60608301905092915050565b611adc81612224565b82525050565b611aeb81612224565b82525050565b6000611afc826120ed565b611b068185612110565b9350611b11836120dd565b8060005b83811015611b42578151611b298882611abb565b9750611b3483612103565b925050600181019050611b15565b5085935050505092915050565b611b5881612236565b82525050565b611b6781612236565b82525050565b611b7681612242565b82525050565b6000611b87826120f8565b611b918185612121565b9350611ba1818560208601612292565b611baa81612451565b840191505092915050565b6000611bc0826120f8565b611bca8185612132565b9350611bda818560208601612292565b611be381612451565b840191505092915050565b6000611bfb601f83612132565b9150611c0682612462565b602082019050919050565b6000611c1e602683612132565b9150611c298261248b565b604082019050919050565b6000611c41601c83612132565b9150611c4c826124da565b602082019050919050565b6000611c64601583612132565b9150611c6f82612503565b602082019050919050565b6000611c87601e83612132565b9150611c928261252c565b602082019050919050565b6000611caa602483612132565b9150611cb582612555565b604082019050919050565b6000611ccd602883612132565b9150611cd8826125a4565b604082019050919050565b6000611cf0602083612132565b9150611cfb826125f3565b602082019050919050565b6000611d13601283612132565b9150611d1e8261261c565b602082019050919050565b6000611d36602583612132565b9150611d4182612645565b604082019050919050565b6000604083016000830151611d646000860182611dcb565b5060208301518482036020860152611d7c8282611b7c565b9150508091505092915050565b606082016000820151611d9f6000850182611b4f565b506020820151611db26020850182611b4f565b506040820151611dc56040850182611ad3565b50505050565b611dd48161226c565b82525050565b611de38161226c565b82525050565b6000602082019050611dfe6000830184611ae2565b92915050565b6000606082019050611e196000830186611b5e565b611e266020830185611b5e565b611e336040830184611ae2565b949350505050565b6000606082019050611e506000830186611b6d565b8181036020830152611e628185611d4c565b90508181036040830152611e768184611af1565b9050949350505050565b60006020820190508181036000830152611e9a8184611bb5565b905092915050565b600060a0820190508181036000830152611ebc8188611bb5565b9050611ecb6020830187611dda565b611ed86040830186611ae2565b611ee56060830185611dda565b611ef26080830184611dda565b9695505050505050565b60006020820190508181036000830152611f1581611bee565b9050919050565b60006020820190508181036000830152611f3581611c11565b9050919050565b60006020820190508181036000830152611f5581611c34565b9050919050565b60006020820190508181036000830152611f7581611c57565b9050919050565b60006020820190508181036000830152611f9581611c7a565b9050919050565b60006020820190508181036000830152611fb581611c9d565b9050919050565b60006020820190508181036000830152611fd581611cc0565b9050919050565b60006020820190508181036000830152611ff581611ce3565b9050919050565b6000602082019050818103600083015261201581611d06565b9050919050565b6000602082019050818103600083015261203581611d29565b9050919050565b60006020820190506120516000830184611dda565b92915050565b600060408201905061206c6000830185611dda565b818103602083015261207e8184611bb5565b90509392505050565b60006120916120a2565b905061209d82826122f7565b919050565b6000604051905090565b600067ffffffffffffffff8211156120c7576120c661240e565b5b6120d082612451565b9050602081019050919050565b6000819050602082019050919050565b600081519050919050565b600081519050919050565b6000602082019050919050565b600082825260208201905092915050565b600082825260208201905092915050565b600082825260208201905092915050565b600061214e8261226c565b91506121598361226c565b9250827fffffffffffffffffffffffffffffffffffffffffffffffffffffffffffffffff0382111561218e5761218d612352565b5b828201905092915050565b60006121a48261226c565b91506121af8361226c565b9250826121bf576121be612381565b5b828204905092915050565b60006121d58261226c565b91506121e08361226c565b9250817fffffffffffffffffffffffffffffffffffffffffffffffffffffffffffffffff048311821515161561221957612218612352565b5b828202905092915050565b600061222f8261224c565b9050919050565b60008115159050919050565b6000819050919050565b600073ffffffffffffffffffffffffffffffffffffffff82169050919050565b6000819050919050565b600060ff82169050919050565b82818337600083830152505050565b60005b838110156122b0578082015181840152602081019050612295565b838111156122bf576000848401525b50505050565b600060028204905060018216806122dd57607f821691505b602082108114156122f1576122f06123b0565b5b50919050565b61230082612451565b810181811067ffffffffffffffff8211171561231f5761231e61240e565b5b80604052505050565b600061233382612276565b915060ff82141561234757612346612352565b5b600182019050919050565b7f4e487b7100000000000000000000000000000000000000000000000000000000600052601160045260246000fd5b7f4e487b7100000000000000000000000000000000000000000000000000000000600052601260045260246000fd5b7f4e487b7100000000000000000000000000000000000000000000000000000000600052602260045260246000fd5b7f4e487b7100000000000000000000000000000000000000000000000000000000600052603260045260246000fd5b7f4e487b7100000000000000000000000000000000000000000000000000000000600052604160045260246000fd5b600080fd5b600080fd5b600080fd5b600080fd5b6000601f19601f8301169050919050565b7f526563697069656e7420697320616c7265616479207265676973746572656400600082015250565b7f596f75206172656e277420617574686f72697a6520746f20636f6d70696c652060008201527f42756e646c650000000000000000000000000000000000000000000000000000602082015250565b7f596f7520616c72656164792073656e74206120726573706f6e73652e00000000600082015250565b7f496e69746961746f722063616e277420766f7465210000000000000000000000600082015250565b7f596f7520617265206e6f74207265676973746572656420746f20766f74650000600082015250565b7f50726f706f73616c20686173207265616368656420697473206578706972792060008201527f6461746500000000000000000000000000000000000000000000000000000000602082015250565b7f4f6e6c7920696e69746961746f722063616e207265676973746572206120726560008201527f63697069656e742e000000000000000000000000000000000000000000000000602082015250565b7f5665726469637420686173206e6f74206265656e207265616368656420796574600082015250565b7f566f74696e672068617320657870697265640000000000000000000000000000600082015250565b7f436f6e73656e7375732068617320616c7265616479206265656e2063616c637560008201527f6c61746564000000000000000000000000000000000000000000000000000000602082015250565b61269d81612224565b81146126a857600080fd5b50565b6126b48161226c565b81146126bf57600080fd5b5056fea2646970667358221220520d879a236b2f98cfa7448146d8e12c2722c46c04e21589a14fd1042ae2733964736f6c63430008070033",
					"opcodes": "PUSH1 0x80 PUSH1 0x40 MSTORE CALLVALUE DUP1 ISZERO PUSH3 0x11 JUMPI PUSH1 0x0 DUP1 REVERT JUMPDEST POP PUSH1 0x40 MLOAD PUSH3 0x2C5B CODESIZE SUB DUP1 PUSH3 0x2C5B DUP4 CODECOPY DUP2 DUP2 ADD PUSH1 0x40 MSTORE DUP2 ADD SWAP1 PUSH3 0x37 SWAP2 SWAP1 PUSH3 0x2A4 JUMP JUMPDEST CALLER PUSH1 0x1 PUSH1 0x0 PUSH2 0x100 EXP DUP2 SLOAD DUP2 PUSH20 0xFFFFFFFFFFFFFFFFFFFFFFFFFFFFFFFFFFFFFFFF MUL NOT AND SWAP1 DUP4 PUSH20 0xFFFFFFFFFFFFFFFFFFFFFFFFFFFFFFFFFFFFFFFF AND MUL OR SWAP1 SSTORE POP DUP2 TIMESTAMP PUSH3 0x86 SWAP2 SWAP1 PUSH3 0x37E JUMP JUMPDEST PUSH1 0x3 DUP2 SWAP1 SSTORE POP DUP1 PUSH1 0x4 DUP2 SWAP1 SSTORE POP PUSH1 0x0 PUSH1 0x5 DUP2 SWAP1 SSTORE POP PUSH1 0x0 PUSH1 0x6 DUP2 SWAP1 SSTORE POP PUSH1 0x0 PUSH1 0x7 DUP2 SWAP1 SSTORE POP PUSH32 0x52656A6563746564000000000000000000000000000000000000000000000000 PUSH1 0x8 DUP2 SWAP1 SSTORE POP ADDRESS PUSH1 0x0 DUP1 PUSH2 0x100 EXP DUP2 SLOAD DUP2 PUSH20 0xFFFFFFFFFFFFFFFFFFFFFFFFFFFFFFFFFFFFFFFF MUL NOT AND SWAP1 DUP4 PUSH20 0xFFFFFFFFFFFFFFFFFFFFFFFFFFFFFFFFFFFFFFFF AND MUL OR SWAP1 SSTORE POP PUSH1 0x40 MLOAD DUP1 PUSH1 0x40 ADD PUSH1 0x40 MSTORE DUP1 PUSH1 0x0 DUP2 MSTORE PUSH1 0x20 ADD DUP5 DUP2 MSTORE POP PUSH1 0xB PUSH1 0x0 DUP3 ADD MLOAD DUP2 PUSH1 0x0 ADD SSTORE PUSH1 0x20 DUP3 ADD MLOAD DUP2 PUSH1 0x1 ADD SWAP1 DUP1 MLOAD SWAP1 PUSH1 0x20 ADD SWAP1 PUSH3 0x152 SWAP3 SWAP2 SWAP1 PUSH3 0x15F JUMP JUMPDEST POP SWAP1 POP POP POP POP POP PUSH3 0x553 JUMP JUMPDEST DUP3 DUP1 SLOAD PUSH3 0x16D SWAP1 PUSH3 0x41B JUMP JUMPDEST SWAP1 PUSH1 0x0 MSTORE PUSH1 0x20 PUSH1 0x0 KECCAK256 SWAP1 PUSH1 0x1F ADD PUSH1 0x20 SWAP1 DIV DUP2 ADD SWAP3 DUP3 PUSH3 0x191 JUMPI PUSH1 0x0 DUP6 SSTORE PUSH3 0x1DD JUMP JUMPDEST DUP3 PUSH1 0x1F LT PUSH3 0x1AC JUMPI DUP1 MLOAD PUSH1 0xFF NOT AND DUP4 DUP1 ADD OR DUP6 SSTORE PUSH3 0x1DD JUMP JUMPDEST DUP3 DUP1 ADD PUSH1 0x1 ADD DUP6 SSTORE DUP3 ISZERO PUSH3 0x1DD JUMPI SWAP2 DUP3 ADD JUMPDEST DUP3 DUP2 GT ISZERO PUSH3 0x1DC JUMPI DUP3 MLOAD DUP3 SSTORE SWAP2 PUSH1 0x20 ADD SWAP2 SWAP1 PUSH1 0x1 ADD SWAP1 PUSH3 0x1BF JUMP JUMPDEST JUMPDEST POP SWAP1 POP PUSH3 0x1EC SWAP2 SWAP1 PUSH3 0x1F0 JUMP JUMPDEST POP SWAP1 JUMP JUMPDEST JUMPDEST DUP1 DUP3 GT ISZERO PUSH3 0x20B JUMPI PUSH1 0x0 DUP2 PUSH1 0x0 SWAP1 SSTORE POP PUSH1 0x1 ADD PUSH3 0x1F1 JUMP JUMPDEST POP SWAP1 JUMP JUMPDEST PUSH1 0x0 PUSH3 0x226 PUSH3 0x220 DUP5 PUSH3 0x348 JUMP JUMPDEST PUSH3 0x31F JUMP JUMPDEST SWAP1 POP DUP3 DUP2 MSTORE PUSH1 0x20 DUP2 ADD DUP5 DUP5 DUP5 ADD GT ISZERO PUSH3 0x245 JUMPI PUSH3 0x244 PUSH3 0x519 JUMP JUMPDEST JUMPDEST PUSH3 0x252 DUP5 DUP3 DUP6 PUSH3 0x3E5 JUMP JUMPDEST POP SWAP4 SWAP3 POP POP POP JUMP JUMPDEST PUSH1 0x0 DUP3 PUSH1 0x1F DUP4 ADD SLT PUSH3 0x272 JUMPI PUSH3 0x271 PUSH3 0x514 JUMP JUMPDEST JUMPDEST DUP2 MLOAD PUSH3 0x284 DUP5 DUP3 PUSH1 0x20 DUP7 ADD PUSH3 0x20F JUMP JUMPDEST SWAP2 POP POP SWAP3 SWAP2 POP POP JUMP JUMPDEST PUSH1 0x0 DUP2 MLOAD SWAP1 POP PUSH3 0x29E DUP2 PUSH3 0x539 JUMP JUMPDEST SWAP3 SWAP2 POP POP JUMP JUMPDEST PUSH1 0x0 DUP1 PUSH1 0x0 PUSH1 0x60 DUP5 DUP7 SUB SLT ISZERO PUSH3 0x2C0 JUMPI PUSH3 0x2BF PUSH3 0x523 JUMP JUMPDEST JUMPDEST PUSH1 0x0 DUP5 ADD MLOAD PUSH8 0xFFFFFFFFFFFFFFFF DUP2 GT ISZERO PUSH3 0x2E1 JUMPI PUSH3 0x2E0 PUSH3 0x51E JUMP JUMPDEST JUMPDEST PUSH3 0x2EF DUP7 DUP3 DUP8 ADD PUSH3 0x25A JUMP JUMPDEST SWAP4 POP POP PUSH1 0x20 PUSH3 0x302 DUP7 DUP3 DUP8 ADD PUSH3 0x28D JUMP JUMPDEST SWAP3 POP POP PUSH1 0x40 PUSH3 0x315 DUP7 DUP3 DUP8 ADD PUSH3 0x28D JUMP JUMPDEST SWAP2 POP POP SWAP3 POP SWAP3 POP SWAP3 JUMP JUMPDEST PUSH1 0x0 PUSH3 0x32B PUSH3 0x33E JUMP JUMPDEST SWAP1 POP PUSH3 0x339 DUP3 DUP3 PUSH3 0x451 JUMP JUMPDEST SWAP2 SWAP1 POP JUMP JUMPDEST PUSH1 0x0 PUSH1 0x40 MLOAD SWAP1 POP SWAP1 JUMP JUMPDEST PUSH1 0x0 PUSH8 0xFFFFFFFFFFFFFFFF DUP3 GT ISZERO PUSH3 0x366 JUMPI PUSH3 0x365 PUSH3 0x4E5 JUMP JUMPDEST JUMPDEST PUSH3 0x371 DUP3 PUSH3 0x528 JUMP JUMPDEST SWAP1 POP PUSH1 0x20 DUP2 ADD SWAP1 POP SWAP2 SWAP1 POP JUMP JUMPDEST PUSH1 0x0 PUSH3 0x38B DUP3 PUSH3 0x3DB JUMP JUMPDEST SWAP2 POP PUSH3 0x398 DUP4 PUSH3 0x3DB JUMP JUMPDEST SWAP3 POP DUP3 PUSH32 0xFFFFFFFFFFFFFFFFFFFFFFFFFFFFFFFFFFFFFFFFFFFFFFFFFFFFFFFFFFFFFFFF SUB DUP3 GT ISZERO PUSH3 0x3D0 JUMPI PUSH3 0x3CF PUSH3 0x487 JUMP JUMPDEST JUMPDEST DUP3 DUP3 ADD SWAP1 POP SWAP3 SWAP2 POP POP JUMP JUMPDEST PUSH1 0x0 DUP2 SWAP1 POP SWAP2 SWAP1 POP JUMP JUMPDEST PUSH1 0x0 JUMPDEST DUP4 DUP2 LT ISZERO PUSH3 0x405 JUMPI DUP1 DUP3 ADD MLOAD DUP2 DUP5 ADD MSTORE PUSH1 0x20 DUP2 ADD SWAP1 POP PUSH3 0x3E8 JUMP JUMPDEST DUP4 DUP2 GT ISZERO PUSH3 0x415 JUMPI PUSH1 0x0 DUP5 DUP5 ADD MSTORE JUMPDEST POP POP POP POP JUMP JUMPDEST PUSH1 0x0 PUSH1 0x2 DUP3 DIV SWAP1 POP PUSH1 0x1 DUP3 AND DUP1 PUSH3 0x434 JUMPI PUSH1 0x7F DUP3 AND SWAP2 POP JUMPDEST PUSH1 0x20 DUP3 LT DUP2 EQ ISZERO PUSH3 0x44B JUMPI PUSH3 0x44A PUSH3 0x4B6 JUMP JUMPDEST JUMPDEST POP SWAP2 SWAP1 POP JUMP JUMPDEST PUSH3 0x45C DUP3 PUSH3 0x528 JUMP JUMPDEST DUP2 ADD DUP2 DUP2 LT PUSH8 0xFFFFFFFFFFFFFFFF DUP3 GT OR ISZERO PUSH3 0x47E JUMPI PUSH3 0x47D PUSH3 0x4E5 JUMP JUMPDEST JUMPDEST DUP1 PUSH1 0x40 MSTORE POP POP POP JUMP JUMPDEST PUSH32 0x4E487B7100000000000000000000000000000000000000000000000000000000 PUSH1 0x0 MSTORE PUSH1 0x11 PUSH1 0x4 MSTORE PUSH1 0x24 PUSH1 0x0 REVERT JUMPDEST PUSH32 0x4E487B7100000000000000000000000000000000000000000000000000000000 PUSH1 0x0 MSTORE PUSH1 0x22 PUSH1 0x4 MSTORE PUSH1 0x24 PUSH1 0x0 REVERT JUMPDEST PUSH32 0x4E487B7100000000000000000000000000000000000000000000000000000000 PUSH1 0x0 MSTORE PUSH1 0x41 PUSH1 0x4 MSTORE PUSH1 0x24 PUSH1 0x0 REVERT JUMPDEST PUSH1 0x0 DUP1 REVERT JUMPDEST PUSH1 0x0 DUP1 REVERT JUMPDEST PUSH1 0x0 DUP1 REVERT JUMPDEST PUSH1 0x0 DUP1 REVERT JUMPDEST PUSH1 0x0 PUSH1 0x1F NOT PUSH1 0x1F DUP4 ADD AND SWAP1 POP SWAP2 SWAP1 POP JUMP JUMPDEST PUSH3 0x544 DUP2 PUSH3 0x3DB JUMP JUMPDEST DUP2 EQ PUSH3 0x550 JUMPI PUSH1 0x0 DUP1 REVERT JUMPDEST POP JUMP JUMPDEST PUSH2 0x26F8 DUP1 PUSH3 0x563 PUSH1 0x0 CODECOPY PUSH1 0x0 RETURN INVALID PUSH1 0x80 PUSH1 0x40 MSTORE CALLVALUE DUP1 ISZERO PUSH2 0x10 JUMPI PUSH1 0x0 DUP1 REVERT JUMPDEST POP PUSH1 0x4 CALLDATASIZE LT PUSH2 0x10B JUMPI PUSH1 0x0 CALLDATALOAD PUSH1 0xE0 SHR DUP1 PUSH4 0x753EC103 GT PUSH2 0xA2 JUMPI DUP1 PUSH4 0xA5EA11DA GT PUSH2 0x71 JUMPI DUP1 PUSH4 0xA5EA11DA EQ PUSH2 0x29D JUMPI DUP1 PUSH4 0xB9A29250 EQ PUSH2 0x2BF JUMPI DUP1 PUSH4 0xD77AA749 EQ PUSH2 0x2DD JUMPI DUP1 PUSH4 0xDA58C7D9 EQ PUSH2 0x2FB JUMPI DUP1 PUSH4 0xF6B4DFB4 EQ PUSH2 0x32D JUMPI PUSH2 0x10B JUMP JUMPDEST DUP1 PUSH4 0x753EC103 EQ PUSH2 0x222 JUMPI DUP1 PUSH4 0x82316745 EQ PUSH2 0x241 JUMPI DUP1 PUSH4 0x95B02DFA EQ PUSH2 0x261 JUMPI DUP1 PUSH4 0x9AA4BBDD EQ PUSH2 0x26B JUMPI PUSH2 0x10B JUMP JUMPDEST DUP1 PUSH4 0x5361A0EA GT PUSH2 0xDE JUMPI DUP1 PUSH4 0x5361A0EA EQ PUSH2 0x196 JUMPI DUP1 PUSH4 0x5C39FCC1 EQ PUSH2 0x1C8 JUMPI DUP1 PUSH4 0x604C8333 EQ PUSH2 0x1E6 JUMPI DUP1 PUSH4 0x7403C5E5 EQ PUSH2 0x204 JUMPI PUSH2 0x10B JUMP JUMPDEST DUP1 PUSH4 0xCB6AAF1 EQ PUSH2 0x110 JUMPI DUP1 PUSH4 0x15FE6F1B EQ PUSH2 0x140 JUMPI DUP1 PUSH4 0x19EB4A90 EQ PUSH2 0x15C JUMPI DUP1 PUSH4 0x323082D7 EQ PUSH2 0x17A JUMPI JUMPDEST PUSH1 0x0 DUP1 REVERT JUMPDEST PUSH2 0x12A PUSH1 0x4 DUP1 CALLDATASIZE SUB DUP2 ADD SWAP1 PUSH2 0x125 SWAP2 SWAP1 PUSH2 0x1A8E JUMP JUMPDEST PUSH2 0x34B JUMP JUMPDEST PUSH1 0x40 MLOAD PUSH2 0x137 SWAP2 SWAP1 PUSH2 0x1DE9 JUMP JUMPDEST PUSH1 0x40 MLOAD DUP1 SWAP2 SUB SWAP1 RETURN JUMPDEST PUSH2 0x15A PUSH1 0x4 DUP1 CALLDATASIZE SUB DUP2 ADD SWAP1 PUSH2 0x155 SWAP2 SWAP1 PUSH2 0x1A18 JUMP JUMPDEST PUSH2 0x38A JUMP JUMPDEST STOP JUMPDEST PUSH2 0x164 PUSH2 0x72C JUMP JUMPDEST PUSH1 0x40 MLOAD PUSH2 0x171 SWAP2 SWAP1 PUSH2 0x1E80 JUMP JUMPDEST PUSH1 0x40 MLOAD DUP1 SWAP2 SUB SWAP1 RETURN JUMPDEST PUSH2 0x194 PUSH1 0x4 DUP1 CALLDATASIZE SUB DUP2 ADD SWAP1 PUSH2 0x18F SWAP2 SWAP1 PUSH2 0x1A45 JUMP JUMPDEST PUSH2 0x7C1 JUMP JUMPDEST STOP JUMPDEST PUSH2 0x1B0 PUSH1 0x4 DUP1 CALLDATASIZE SUB DUP2 ADD SWAP1 PUSH2 0x1AB SWAP2 SWAP1 PUSH2 0x1A18 JUMP JUMPDEST PUSH2 0xF64 JUMP JUMPDEST PUSH1 0x40 MLOAD PUSH2 0x1BF SWAP4 SWAP3 SWAP2 SWAP1 PUSH2 0x1E04 JUMP JUMPDEST PUSH1 0x40 MLOAD DUP1 SWAP2 SUB SWAP1 RETURN JUMPDEST PUSH2 0x1D0 PUSH2 0x1079 JUMP JUMPDEST PUSH1 0x40 MLOAD PUSH2 0x1DD SWAP2 SWAP1 PUSH2 0x1DE9 JUMP JUMPDEST PUSH1 0x40 MLOAD DUP1 SWAP2 SUB SWAP1 RETURN JUMPDEST PUSH2 0x1EE PUSH2 0x109F JUMP JUMPDEST PUSH1 0x40 MLOAD PUSH2 0x1FB SWAP2 SWAP1 PUSH2 0x203C JUMP JUMPDEST PUSH1 0x40 MLOAD DUP1 SWAP2 SUB SWAP1 RETURN JUMPDEST PUSH2 0x20C PUSH2 0x10A5 JUMP JUMPDEST PUSH1 0x40 MLOAD PUSH2 0x219 SWAP2 SWAP1 PUSH2 0x203C JUMP JUMPDEST PUSH1 0x40 MLOAD DUP1 SWAP2 SUB SWAP1 RETURN JUMPDEST PUSH2 0x22A PUSH2 0x10AB JUMP JUMPDEST PUSH1 0x40 MLOAD PUSH2 0x238 SWAP3 SWAP2 SWAP1 PUSH2 0x2057 JUMP JUMPDEST PUSH1 0x40 MLOAD DUP1 SWAP2 SUB SWAP1 RETURN JUMPDEST PUSH2 0x249 PUSH2 0x1145 JUMP JUMPDEST PUSH1 0x40 MLOAD PUSH2 0x258 SWAP4 SWAP3 SWAP2 SWAP1 PUSH2 0x1E3B JUMP JUMPDEST PUSH1 0x40 MLOAD DUP1 SWAP2 SUB SWAP1 RETURN JUMPDEST PUSH2 0x269 PUSH2 0x1333 JUMP JUMPDEST STOP JUMPDEST PUSH2 0x285 PUSH1 0x4 DUP1 CALLDATASIZE SUB DUP2 ADD SWAP1 PUSH2 0x280 SWAP2 SWAP1 PUSH2 0x1A18 JUMP JUMPDEST PUSH2 0x178A JUMP JUMPDEST PUSH1 0x40 MLOAD PUSH2 0x294 SWAP4 SWAP3 SWAP2 SWAP1 PUSH2 0x1E04 JUMP JUMPDEST PUSH1 0x40 MLOAD DUP1 SWAP2 SUB SWAP1 RETURN JUMPDEST PUSH2 0x2A5 PUSH2 0x17EE JUMP JUMPDEST PUSH1 0x40 MLOAD PUSH2 0x2B6 SWAP6 SWAP5 SWAP4 SWAP3 SWAP2 SWAP1 PUSH2 0x1EA2 JUMP JUMPDEST PUSH1 0x40 MLOAD DUP1 SWAP2 SUB SWAP1 RETURN JUMPDEST PUSH2 0x2C7 PUSH2 0x18C4 JUMP JUMPDEST PUSH1 0x40 MLOAD PUSH2 0x2D4 SWAP2 SWAP1 PUSH2 0x203C JUMP JUMPDEST PUSH1 0x40 MLOAD DUP1 SWAP2 SUB SWAP1 RETURN JUMPDEST PUSH2 0x2E5 PUSH2 0x18CA JUMP JUMPDEST PUSH1 0x40 MLOAD PUSH2 0x2F2 SWAP2 SWAP1 PUSH2 0x203C JUMP JUMPDEST PUSH1 0x40 MLOAD DUP1 SWAP2 SUB SWAP1 RETURN JUMPDEST PUSH2 0x315 PUSH1 0x4 DUP1 CALLDATASIZE SUB DUP2 ADD SWAP1 PUSH2 0x310 SWAP2 SWAP1 PUSH2 0x1A8E JUMP JUMPDEST PUSH2 0x18D0 JUMP JUMPDEST PUSH1 0x40 MLOAD PUSH2 0x324 SWAP4 SWAP3 SWAP2 SWAP1 PUSH2 0x1E04 JUMP JUMPDEST PUSH1 0x40 MLOAD DUP1 SWAP2 SUB SWAP1 RETURN JUMPDEST PUSH2 0x335 PUSH2 0x1940 JUMP JUMPDEST PUSH1 0x40 MLOAD PUSH2 0x342 SWAP2 SWAP1 PUSH2 0x1DE9 JUMP JUMPDEST PUSH1 0x40 MLOAD DUP1 SWAP2 SUB SWAP1 RETURN JUMPDEST PUSH1 0x2 DUP2 DUP2 SLOAD DUP2 LT PUSH2 0x35B JUMPI PUSH1 0x0 DUP1 REVERT JUMPDEST SWAP1 PUSH1 0x0 MSTORE PUSH1 0x20 PUSH1 0x0 KECCAK256 ADD PUSH1 0x0 SWAP2 POP SLOAD SWAP1 PUSH2 0x100 EXP SWAP1 DIV PUSH20 0xFFFFFFFFFFFFFFFFFFFFFFFFFFFFFFFFFFFFFFFF AND DUP2 JUMP JUMPDEST PUSH1 0x1 PUSH1 0x0 SWAP1 SLOAD SWAP1 PUSH2 0x100 EXP SWAP1 DIV PUSH20 0xFFFFFFFFFFFFFFFFFFFFFFFFFFFFFFFFFFFFFFFF AND PUSH20 0xFFFFFFFFFFFFFFFFFFFFFFFFFFFFFFFFFFFFFFFF AND CALLER PUSH20 0xFFFFFFFFFFFFFFFFFFFFFFFFFFFFFFFFFFFFFFFF AND EQ PUSH2 0x41A JUMPI PUSH1 0x40 MLOAD PUSH32 0x8C379A000000000000000000000000000000000000000000000000000000000 DUP2 MSTORE PUSH1 0x4 ADD PUSH2 0x411 SWAP1 PUSH2 0x1FBC JUMP JUMPDEST PUSH1 0x40 MLOAD DUP1 SWAP2 SUB SWAP1 REVERT JUMPDEST PUSH1 0x1 PUSH1 0x0 SWAP1 SLOAD SWAP1 PUSH2 0x100 EXP SWAP1 DIV PUSH20 0xFFFFFFFFFFFFFFFFFFFFFFFFFFFFFFFFFFFFFFFF AND PUSH20 0xFFFFFFFFFFFFFFFFFFFFFFFFFFFFFFFFFFFFFFFF AND DUP2 PUSH20 0xFFFFFFFFFFFFFFFFFFFFFFFFFFFFFFFFFFFFFFFF AND EQ ISZERO PUSH2 0x4AB JUMPI PUSH1 0x40 MLOAD PUSH32 0x8C379A000000000000000000000000000000000000000000000000000000000 DUP2 MSTORE PUSH1 0x4 ADD PUSH2 0x4A2 SWAP1 PUSH2 0x1F5C JUMP JUMPDEST PUSH1 0x40 MLOAD DUP1 SWAP2 SUB SWAP1 REVERT JUMPDEST PUSH1 0x0 PUSH20 0xFFFFFFFFFFFFFFFFFFFFFFFFFFFFFFFFFFFFFFFF AND PUSH1 0xA PUSH1 0x0 DUP4 PUSH20 0xFFFFFFFFFFFFFFFFFFFFFFFFFFFFFFFFFFFFFFFF AND PUSH20 0xFFFFFFFFFFFFFFFFFFFFFFFFFFFFFFFFFFFFFFFF AND DUP2 MSTORE PUSH1 0x20 ADD SWAP1 DUP2 MSTORE PUSH1 0x20 ADD PUSH1 0x0 KECCAK256 PUSH1 0x0 ADD PUSH1 0x2 SWAP1 SLOAD SWAP1 PUSH2 0x100 EXP SWAP1 DIV PUSH20 0xFFFFFFFFFFFFFFFFFFFFFFFFFFFFFFFFFFFFFFFF AND PUSH20 0xFFFFFFFFFFFFFFFFFFFFFFFFFFFFFFFFFFFFFFFF AND EQ PUSH2 0x57C JUMPI PUSH1 0x40 MLOAD PUSH32 0x8C379A000000000000000000000000000000000000000000000000000000000 DUP2 MSTORE PUSH1 0x4 ADD PUSH2 0x573 SWAP1 PUSH2 0x1EFC JUMP JUMPDEST PUSH1 0x40 MLOAD DUP1 SWAP2 SUB SWAP1 REVERT JUMPDEST PUSH1 0x3 SLOAD TIMESTAMP LT PUSH2 0x5C0 JUMPI PUSH1 0x40 MLOAD PUSH32 0x8C379A000000000000000000000000000000000000000000000000000000000 DUP2 MSTORE PUSH1 0x4 ADD PUSH2 0x5B7 SWAP1 PUSH2 0x1F9C JUMP JUMPDEST PUSH1 0x40 MLOAD DUP1 SWAP2 SUB SWAP1 REVERT JUMPDEST PUSH1 0x0 PUSH1 0x40 MLOAD DUP1 PUSH1 0x60 ADD PUSH1 0x40 MSTORE DUP1 PUSH1 0x0 ISZERO ISZERO DUP2 MSTORE PUSH1 0x20 ADD PUSH1 0x0 ISZERO ISZERO DUP2 MSTORE PUSH1 0x20 ADD DUP4 PUSH20 0xFFFFFFFFFFFFFFFFFFFFFFFFFFFFFFFFFFFFFFFF AND DUP2 MSTORE POP SWAP1 POP DUP1 PUSH1 0xA PUSH1 0x0 DUP5 PUSH20 0xFFFFFFFFFFFFFFFFFFFFFFFFFFFFFFFFFFFFFFFF AND PUSH20 0xFFFFFFFFFFFFFFFFFFFFFFFFFFFFFFFFFFFFFFFF AND DUP2 MSTORE PUSH1 0x20 ADD SWAP1 DUP2 MSTORE PUSH1 0x20 ADD PUSH1 0x0 KECCAK256 PUSH1 0x0 DUP3 ADD MLOAD DUP2 PUSH1 0x0 ADD PUSH1 0x0 PUSH2 0x100 EXP DUP2 SLOAD DUP2 PUSH1 0xFF MUL NOT AND SWAP1 DUP4 ISZERO ISZERO MUL OR SWAP1 SSTORE POP PUSH1 0x20 DUP3 ADD MLOAD DUP2 PUSH1 0x0 ADD PUSH1 0x1 PUSH2 0x100 EXP DUP2 SLOAD DUP2 PUSH1 0xFF MUL NOT AND SWAP1 DUP4 ISZERO ISZERO MUL OR SWAP1 SSTORE POP PUSH1 0x40 DUP3 ADD MLOAD DUP2 PUSH1 0x0 ADD PUSH1 0x2 PUSH2 0x100 EXP DUP2 SLOAD DUP2 PUSH20 0xFFFFFFFFFFFFFFFFFFFFFFFFFFFFFFFFFFFFFFFF MUL NOT AND SWAP1 DUP4 PUSH20 0xFFFFFFFFFFFFFFFFFFFFFFFFFFFFFFFFFFFFFFFF AND MUL OR SWAP1 SSTORE POP SWAP1 POP POP PUSH1 0x2 DUP3 SWAP1 DUP1 PUSH1 0x1 DUP2 SLOAD ADD DUP1 DUP3 SSTORE DUP1 SWAP2 POP POP PUSH1 0x1 SWAP1 SUB SWAP1 PUSH1 0x0 MSTORE PUSH1 0x20 PUSH1 0x0 KECCAK256 ADD PUSH1 0x0 SWAP1 SWAP2 SWAP1 SWAP2 SWAP1 SWAP2 PUSH2 0x100 EXP DUP2 SLOAD DUP2 PUSH20 0xFFFFFFFFFFFFFFFFFFFFFFFFFFFFFFFFFFFFFFFF MUL NOT AND SWAP1 DUP4 PUSH20 0xFFFFFFFFFFFFFFFFFFFFFFFFFFFFFFFFFFFFFFFF AND MUL OR SWAP1 SSTORE POP POP POP JUMP JUMPDEST PUSH1 0x60 PUSH1 0xB PUSH1 0x1 ADD DUP1 SLOAD PUSH2 0x73E SWAP1 PUSH2 0x22C5 JUMP JUMPDEST DUP1 PUSH1 0x1F ADD PUSH1 0x20 DUP1 SWAP2 DIV MUL PUSH1 0x20 ADD PUSH1 0x40 MLOAD SWAP1 DUP2 ADD PUSH1 0x40 MSTORE DUP1 SWAP3 SWAP2 SWAP1 DUP2 DUP2 MSTORE PUSH1 0x20 ADD DUP3 DUP1 SLOAD PUSH2 0x76A SWAP1 PUSH2 0x22C5 JUMP JUMPDEST DUP1 ISZERO PUSH2 0x7B7 JUMPI DUP1 PUSH1 0x1F LT PUSH2 0x78C JUMPI PUSH2 0x100 DUP1 DUP4 SLOAD DIV MUL DUP4 MSTORE SWAP2 PUSH1 0x20 ADD SWAP2 PUSH2 0x7B7 JUMP JUMPDEST DUP3 ADD SWAP2 SWAP1 PUSH1 0x0 MSTORE PUSH1 0x20 PUSH1 0x0 KECCAK256 SWAP1 JUMPDEST DUP2 SLOAD DUP2 MSTORE SWAP1 PUSH1 0x1 ADD SWAP1 PUSH1 0x20 ADD DUP1 DUP4 GT PUSH2 0x79A JUMPI DUP3 SWAP1 SUB PUSH1 0x1F AND DUP3 ADD SWAP2 JUMPDEST POP POP POP POP POP SWAP1 POP SWAP1 JUMP JUMPDEST PUSH1 0x3 SLOAD TIMESTAMP LT PUSH2 0x805 JUMPI PUSH1 0x40 MLOAD PUSH32 0x8C379A000000000000000000000000000000000000000000000000000000000 DUP2 MSTORE PUSH1 0x4 ADD PUSH2 0x7FC SWAP1 PUSH2 0x1FFC JUMP JUMPDEST PUSH1 0x40 MLOAD DUP1 SWAP2 SUB SWAP1 REVERT JUMPDEST PUSH1 0x0 PUSH20 0xFFFFFFFFFFFFFFFFFFFFFFFFFFFFFFFFFFFFFFFF AND PUSH1 0xA PUSH1 0x0 CALLER PUSH20 0xFFFFFFFFFFFFFFFFFFFFFFFFFFFFFFFFFFFFFFFF AND PUSH20 0xFFFFFFFFFFFFFFFFFFFFFFFFFFFFFFFFFFFFFFFF AND DUP2 MSTORE PUSH1 0x20 ADD SWAP1 DUP2 MSTORE PUSH1 0x20 ADD PUSH1 0x0 KECCAK256 PUSH1 0x0 ADD PUSH1 0x2 SWAP1 SLOAD SWAP1 PUSH2 0x100 EXP SWAP1 DIV PUSH20 0xFFFFFFFFFFFFFFFFFFFFFFFFFFFFFFFFFFFFFFFF AND PUSH20 0xFFFFFFFFFFFFFFFFFFFFFFFFFFFFFFFFFFFFFFFF AND EQ ISZERO PUSH2 0x8D7 JUMPI PUSH1 0x40 MLOAD PUSH32 0x8C379A000000000000000000000000000000000000000000000000000000000 DUP2 MSTORE PUSH1 0x4 ADD PUSH2 0x8CE SWAP1 PUSH2 0x1F7C JUMP JUMPDEST PUSH1 0x40 MLOAD DUP1 SWAP2 SUB SWAP1 REVERT JUMPDEST PUSH1 0xA PUSH1 0x0 CALLER PUSH20 0xFFFFFFFFFFFFFFFFFFFFFFFFFFFFFFFFFFFFFFFF AND PUSH20 0xFFFFFFFFFFFFFFFFFFFFFFFFFFFFFFFFFFFFFFFF AND DUP2 MSTORE PUSH1 0x20 ADD SWAP1 DUP2 MSTORE PUSH1 0x20 ADD PUSH1 0x0 KECCAK256 PUSH1 0x0 ADD PUSH1 0x0 SWAP1 SLOAD SWAP1 PUSH2 0x100 EXP SWAP1 DIV PUSH1 0xFF AND ISZERO PUSH2 0x967 JUMPI PUSH1 0x40 MLOAD PUSH32 0x8C379A000000000000000000000000000000000000000000000000000000000 DUP2 MSTORE PUSH1 0x4 ADD PUSH2 0x95E SWAP1 PUSH2 0x1F3C JUMP JUMPDEST PUSH1 0x40 MLOAD DUP1 SWAP2 SUB SWAP1 REVERT JUMPDEST PUSH1 0x40 MLOAD DUP1 PUSH1 0x40 ADD PUSH1 0x40 MSTORE DUP1 PUSH1 0x9 DUP2 MSTORE PUSH1 0x20 ADD PUSH32 0x6920617070726F76650000000000000000000000000000000000000000000000 DUP2 MSTORE POP DUP1 MLOAD SWAP1 PUSH1 0x20 ADD KECCAK256 DUP2 DUP1 MLOAD SWAP1 PUSH1 0x20 ADD KECCAK256 EQ ISZERO PUSH2 0xBCD JUMPI PUSH1 0x1 PUSH1 0xA PUSH1 0x0 CALLER PUSH20 0xFFFFFFFFFFFFFFFFFFFFFFFFFFFFFFFFFFFFFFFF AND PUSH20 0xFFFFFFFFFFFFFFFFFFFFFFFFFFFFFFFFFFFFFFFF AND DUP2 MSTORE PUSH1 0x20 ADD SWAP1 DUP2 MSTORE PUSH1 0x20 ADD PUSH1 0x0 KECCAK256 PUSH1 0x0 ADD PUSH1 0x0 PUSH2 0x100 EXP DUP2 SLOAD DUP2 PUSH1 0xFF MUL NOT AND SWAP1 DUP4 ISZERO ISZERO MUL OR SWAP1 SSTORE POP PUSH1 0x1 PUSH1 0xA PUSH1 0x0 CALLER PUSH20 0xFFFFFFFFFFFFFFFFFFFFFFFFFFFFFFFFFFFFFFFF AND PUSH20 0xFFFFFFFFFFFFFFFFFFFFFFFFFFFFFFFFFFFFFFFF AND DUP2 MSTORE PUSH1 0x20 ADD SWAP1 DUP2 MSTORE PUSH1 0x20 ADD PUSH1 0x0 KECCAK256 PUSH1 0x0 ADD PUSH1 0x1 PUSH2 0x100 EXP DUP2 SLOAD DUP2 PUSH1 0xFF MUL NOT AND SWAP1 DUP4 ISZERO ISZERO MUL OR SWAP1 SSTORE POP PUSH1 0x1 PUSH1 0x6 PUSH1 0x0 DUP3 DUP3 SLOAD PUSH2 0xA7B SWAP2 SWAP1 PUSH2 0x2143 JUMP JUMPDEST SWAP3 POP POP DUP2 SWAP1 SSTORE POP PUSH1 0x1 PUSH1 0xB PUSH1 0x0 ADD PUSH1 0x0 DUP3 DUP3 SLOAD PUSH2 0xA98 SWAP2 SWAP1 PUSH2 0x2143 JUMP JUMPDEST SWAP3 POP POP DUP2 SWAP1 SSTORE POP PUSH1 0x9 PUSH1 0xA PUSH1 0x0 CALLER PUSH20 0xFFFFFFFFFFFFFFFFFFFFFFFFFFFFFFFFFFFFFFFF AND PUSH20 0xFFFFFFFFFFFFFFFFFFFFFFFFFFFFFFFFFFFFFFFF AND DUP2 MSTORE PUSH1 0x20 ADD SWAP1 DUP2 MSTORE PUSH1 0x20 ADD PUSH1 0x0 KECCAK256 SWAP1 DUP1 PUSH1 0x1 DUP2 SLOAD ADD DUP1 DUP3 SSTORE DUP1 SWAP2 POP POP PUSH1 0x1 SWAP1 SUB SWAP1 PUSH1 0x0 MSTORE PUSH1 0x20 PUSH1 0x0 KECCAK256 ADD PUSH1 0x0 SWAP1 SWAP2 SWAP1 SWAP2 SWAP1 SWAP2 POP PUSH1 0x0 DUP3 ADD PUSH1 0x0 SWAP1 SLOAD SWAP1 PUSH2 0x100 EXP SWAP1 DIV PUSH1 0xFF AND DUP2 PUSH1 0x0 ADD PUSH1 0x0 PUSH2 0x100 EXP DUP2 SLOAD DUP2 PUSH1 0xFF MUL NOT AND SWAP1 DUP4 ISZERO ISZERO MUL OR SWAP1 SSTORE POP PUSH1 0x0 DUP3 ADD PUSH1 0x1 SWAP1 SLOAD SWAP1 PUSH2 0x100 EXP SWAP1 DIV PUSH1 0xFF AND DUP2 PUSH1 0x0 ADD PUSH1 0x1 PUSH2 0x100 EXP DUP2 SLOAD DUP2 PUSH1 0xFF MUL NOT AND SWAP1 DUP4 ISZERO ISZERO MUL OR SWAP1 SSTORE POP PUSH1 0x0 DUP3 ADD PUSH1 0x2 SWAP1 SLOAD SWAP1 PUSH2 0x100 EXP SWAP1 DIV PUSH20 0xFFFFFFFFFFFFFFFFFFFFFFFFFFFFFFFFFFFFFFFF AND DUP2 PUSH1 0x0 ADD PUSH1 0x2 PUSH2 0x100 EXP DUP2 SLOAD DUP2 PUSH20 0xFFFFFFFFFFFFFFFFFFFFFFFFFFFFFFFFFFFFFFFF MUL NOT AND SWAP1 DUP4 PUSH20 0xFFFFFFFFFFFFFFFFFFFFFFFFFFFFFFFFFFFFFFFF AND MUL OR SWAP1 SSTORE POP POP POP PUSH2 0xF61 JUMP JUMPDEST PUSH1 0x40 MLOAD DUP1 PUSH1 0x40 ADD PUSH1 0x40 MSTORE DUP1 PUSH1 0xC DUP2 MSTORE PUSH1 0x20 ADD PUSH32 0x6920646973617070726F76650000000000000000000000000000000000000000 DUP2 MSTORE POP DUP1 MLOAD SWAP1 PUSH1 0x20 ADD KECCAK256 DUP2 DUP1 MLOAD SWAP1 PUSH1 0x20 ADD KECCAK256 EQ ISZERO PUSH2 0xDBE JUMPI PUSH1 0x1 PUSH1 0xA PUSH1 0x0 CALLER PUSH20 0xFFFFFFFFFFFFFFFFFFFFFFFFFFFFFFFFFFFFFFFF AND PUSH20 0xFFFFFFFFFFFFFFFFFFFFFFFFFFFFFFFFFFFFFFFF AND DUP2 MSTORE PUSH1 0x20 ADD SWAP1 DUP2 MSTORE PUSH1 0x20 ADD PUSH1 0x0 KECCAK256 PUSH1 0x0 ADD PUSH1 0x0 PUSH2 0x100 EXP DUP2 SLOAD DUP2 PUSH1 0xFF MUL NOT AND SWAP1 DUP4 ISZERO ISZERO MUL OR SWAP1 SSTORE POP PUSH1 0x1 PUSH1 0xB PUSH1 0x0 ADD PUSH1 0x0 DUP3 DUP3 SLOAD PUSH2 0xC89 SWAP2 SWAP1 PUSH2 0x2143 JUMP JUMPDEST SWAP3 POP POP DUP2 SWAP1 SSTORE POP PUSH1 0x9 PUSH1 0xA PUSH1 0x0 CALLER PUSH20 0xFFFFFFFFFFFFFFFFFFFFFFFFFFFFFFFFFFFFFFFF AND PUSH20 0xFFFFFFFFFFFFFFFFFFFFFFFFFFFFFFFFFFFFFFFF AND DUP2 MSTORE PUSH1 0x20 ADD SWAP1 DUP2 MSTORE PUSH1 0x20 ADD PUSH1 0x0 KECCAK256 SWAP1 DUP1 PUSH1 0x1 DUP2 SLOAD ADD DUP1 DUP3 SSTORE DUP1 SWAP2 POP POP PUSH1 0x1 SWAP1 SUB SWAP1 PUSH1 0x0 MSTORE PUSH1 0x20 PUSH1 0x0 KECCAK256 ADD PUSH1 0x0 SWAP1 SWAP2 SWAP1 SWAP2 SWAP1 SWAP2 POP PUSH1 0x0 DUP3 ADD PUSH1 0x0 SWAP1 SLOAD SWAP1 PUSH2 0x100 EXP SWAP1 DIV PUSH1 0xFF AND DUP2 PUSH1 0x0 ADD PUSH1 0x0 PUSH2 0x100 EXP DUP2 SLOAD DUP2 PUSH1 0xFF MUL NOT AND SWAP1 DUP4 ISZERO ISZERO MUL OR SWAP1 SSTORE POP PUSH1 0x0 DUP3 ADD PUSH1 0x1 SWAP1 SLOAD SWAP1 PUSH2 0x100 EXP SWAP1 DIV PUSH1 0xFF AND DUP2 PUSH1 0x0 ADD PUSH1 0x1 PUSH2 0x100 EXP DUP2 SLOAD DUP2 PUSH1 0xFF MUL NOT AND SWAP1 DUP4 ISZERO ISZERO MUL OR SWAP1 SSTORE POP PUSH1 0x0 DUP3 ADD PUSH1 0x2 SWAP1 SLOAD SWAP1 PUSH2 0x100 EXP SWAP1 DIV PUSH20 0xFFFFFFFFFFFFFFFFFFFFFFFFFFFFFFFFFFFFFFFF AND DUP2 PUSH1 0x0 ADD PUSH1 0x2 PUSH2 0x100 EXP DUP2 SLOAD DUP2 PUSH20 0xFFFFFFFFFFFFFFFFFFFFFFFFFFFFFFFFFFFFFFFF MUL NOT AND SWAP1 DUP4 PUSH20 0xFFFFFFFFFFFFFFFFFFFFFFFFFFFFFFFFFFFFFFFF AND MUL OR SWAP1 SSTORE POP POP POP PUSH2 0xF60 JUMP JUMPDEST PUSH1 0x1 PUSH1 0xA PUSH1 0x0 CALLER PUSH20 0xFFFFFFFFFFFFFFFFFFFFFFFFFFFFFFFFFFFFFFFF AND PUSH20 0xFFFFFFFFFFFFFFFFFFFFFFFFFFFFFFFFFFFFFFFF AND DUP2 MSTORE PUSH1 0x20 ADD SWAP1 DUP2 MSTORE PUSH1 0x20 ADD PUSH1 0x0 KECCAK256 PUSH1 0x0 ADD PUSH1 0x0 PUSH2 0x100 EXP DUP2 SLOAD DUP2 PUSH1 0xFF MUL NOT AND SWAP1 DUP4 ISZERO ISZERO MUL OR SWAP1 SSTORE POP PUSH1 0x1 PUSH1 0xB PUSH1 0x0 ADD PUSH1 0x0 DUP3 DUP3 SLOAD PUSH2 0xE2F SWAP2 SWAP1 PUSH2 0x2143 JUMP JUMPDEST SWAP3 POP POP DUP2 SWAP1 SSTORE POP PUSH1 0x9 PUSH1 0xA PUSH1 0x0 CALLER PUSH20 0xFFFFFFFFFFFFFFFFFFFFFFFFFFFFFFFFFFFFFFFF AND PUSH20 0xFFFFFFFFFFFFFFFFFFFFFFFFFFFFFFFFFFFFFFFF AND DUP2 MSTORE PUSH1 0x20 ADD SWAP1 DUP2 MSTORE PUSH1 0x20 ADD PUSH1 0x0 KECCAK256 SWAP1 DUP1 PUSH1 0x1 DUP2 SLOAD ADD DUP1 DUP3 SSTORE DUP1 SWAP2 POP POP PUSH1 0x1 SWAP1 SUB SWAP1 PUSH1 0x0 MSTORE PUSH1 0x20 PUSH1 0x0 KECCAK256 ADD PUSH1 0x0 SWAP1 SWAP2 SWAP1 SWAP2 SWAP1 SWAP2 POP PUSH1 0x0 DUP3 ADD PUSH1 0x0 SWAP1 SLOAD SWAP1 PUSH2 0x100 EXP SWAP1 DIV PUSH1 0xFF AND DUP2 PUSH1 0x0 ADD PUSH1 0x0 PUSH2 0x100 EXP DUP2 SLOAD DUP2 PUSH1 0xFF MUL NOT AND SWAP1 DUP4 ISZERO ISZERO MUL OR SWAP1 SSTORE POP PUSH1 0x0 DUP3 ADD PUSH1 0x1 SWAP1 SLOAD SWAP1 PUSH2 0x100 EXP SWAP1 DIV PUSH1 0xFF AND DUP2 PUSH1 0x0 ADD PUSH1 0x1 PUSH2 0x100 EXP DUP2 SLOAD DUP2 PUSH1 0xFF MUL NOT AND SWAP1 DUP4 ISZERO ISZERO MUL OR SWAP1 SSTORE POP PUSH1 0x0 DUP3 ADD PUSH1 0x2 SWAP1 SLOAD SWAP1 PUSH2 0x100 EXP SWAP1 DIV PUSH20 0xFFFFFFFFFFFFFFFFFFFFFFFFFFFFFFFFFFFFFFFF AND DUP2 PUSH1 0x0 ADD PUSH1 0x2 PUSH2 0x100 EXP DUP2 SLOAD DUP2 PUSH20 0xFFFFFFFFFFFFFFFFFFFFFFFFFFFFFFFFFFFFFFFF MUL NOT AND SWAP1 DUP4 PUSH20 0xFFFFFFFFFFFFFFFFFFFFFFFFFFFFFFFFFFFFFFFF AND MUL OR SWAP1 SSTORE POP POP POP JUMPDEST JUMPDEST POP JUMP JUMPDEST PUSH1 0x0 DUP1 PUSH1 0x0 PUSH1 0xA PUSH1 0x0 DUP6 PUSH20 0xFFFFFFFFFFFFFFFFFFFFFFFFFFFFFFFFFFFFFFFF AND PUSH20 0xFFFFFFFFFFFFFFFFFFFFFFFFFFFFFFFFFFFFFFFF AND DUP2 MSTORE PUSH1 0x20 ADD SWAP1 DUP2 MSTORE PUSH1 0x20 ADD PUSH1 0x0 KECCAK256 PUSH1 0x0 ADD PUSH1 0x1 SWAP1 SLOAD SWAP1 PUSH2 0x100 EXP SWAP1 DIV PUSH1 0xFF AND PUSH1 0xA PUSH1 0x0 DUP7 PUSH20 0xFFFFFFFFFFFFFFFFFFFFFFFFFFFFFFFFFFFFFFFF AND PUSH20 0xFFFFFFFFFFFFFFFFFFFFFFFFFFFFFFFFFFFFFFFF AND DUP2 MSTORE PUSH1 0x20 ADD SWAP1 DUP2 MSTORE PUSH1 0x20 ADD PUSH1 0x0 KECCAK256 PUSH1 0x0 ADD PUSH1 0x0 SWAP1 SLOAD SWAP1 PUSH2 0x100 EXP SWAP1 DIV PUSH1 0xFF AND PUSH1 0xA PUSH1 0x0 DUP8 PUSH20 0xFFFFFFFFFFFFFFFFFFFFFFFFFFFFFFFFFFFFFFFF AND PUSH20 0xFFFFFFFFFFFFFFFFFFFFFFFFFFFFFFFFFFFFFFFF AND DUP2 MSTORE PUSH1 0x20 ADD SWAP1 DUP2 MSTORE PUSH1 0x20 ADD PUSH1 0x0 KECCAK256 PUSH1 0x0 ADD PUSH1 0x2 SWAP1 SLOAD SWAP1 PUSH2 0x100 EXP SWAP1 DIV PUSH20 0xFFFFFFFFFFFFFFFFFFFFFFFFFFFFFFFFFFFFFFFF AND SWAP3 POP SWAP3 POP SWAP3 POP SWAP2 SWAP4 SWAP1 SWAP3 POP JUMP JUMPDEST PUSH1 0x1 PUSH1 0x0 SWAP1 SLOAD SWAP1 PUSH2 0x100 EXP SWAP1 DIV PUSH20 0xFFFFFFFFFFFFFFFFFFFFFFFFFFFFFFFFFFFFFFFF AND DUP2 JUMP JUMPDEST PUSH1 0x5 SLOAD DUP2 JUMP JUMPDEST PUSH1 0x6 SLOAD DUP2 JUMP JUMPDEST PUSH1 0xB DUP1 PUSH1 0x0 ADD SLOAD SWAP1 DUP1 PUSH1 0x1 ADD DUP1 SLOAD PUSH2 0x10C2 SWAP1 PUSH2 0x22C5 JUMP JUMPDEST DUP1 PUSH1 0x1F ADD PUSH1 0x20 DUP1 SWAP2 DIV MUL PUSH1 0x20 ADD PUSH1 0x40 MLOAD SWAP1 DUP2 ADD PUSH1 0x40 MSTORE DUP1 SWAP3 SWAP2 SWAP1 DUP2 DUP2 MSTORE PUSH1 0x20 ADD DUP3 DUP1 SLOAD PUSH2 0x10EE SWAP1 PUSH2 0x22C5 JUMP JUMPDEST DUP1 ISZERO PUSH2 0x113B JUMPI DUP1 PUSH1 0x1F LT PUSH2 0x1110 JUMPI PUSH2 0x100 DUP1 DUP4 SLOAD DIV MUL DUP4 MSTORE SWAP2 PUSH1 0x20 ADD SWAP2 PUSH2 0x113B JUMP JUMPDEST DUP3 ADD SWAP2 SWAP1 PUSH1 0x0 MSTORE PUSH1 0x20 PUSH1 0x0 KECCAK256 SWAP1 JUMPDEST DUP2 SLOAD DUP2 MSTORE SWAP1 PUSH1 0x1 ADD SWAP1 PUSH1 0x20 ADD DUP1 DUP4 GT PUSH2 0x111E JUMPI DUP3 SWAP1 SUB PUSH1 0x1F AND DUP3 ADD SWAP2 JUMPDEST POP POP POP POP POP SWAP1 POP DUP3 JUMP JUMPDEST PUSH1 0x0 PUSH2 0x114F PUSH2 0x1964 JUMP JUMPDEST PUSH1 0x60 PUSH1 0x3 SLOAD TIMESTAMP LT ISZERO PUSH2 0x1196 JUMPI PUSH1 0x40 MLOAD PUSH32 0x8C379A000000000000000000000000000000000000000000000000000000000 DUP2 MSTORE PUSH1 0x4 ADD PUSH2 0x118D SWAP1 PUSH2 0x1FDC JUMP JUMPDEST PUSH1 0x40 MLOAD DUP1 SWAP2 SUB SWAP1 REVERT JUMPDEST PUSH1 0x8 SLOAD PUSH1 0xB PUSH1 0x9 DUP2 PUSH1 0x40 MLOAD DUP1 PUSH1 0x40 ADD PUSH1 0x40 MSTORE SWAP1 DUP2 PUSH1 0x0 DUP3 ADD SLOAD DUP2 MSTORE PUSH1 0x20 ADD PUSH1 0x1 DUP3 ADD DUP1 SLOAD PUSH2 0x11C3 SWAP1 PUSH2 0x22C5 JUMP JUMPDEST DUP1 PUSH1 0x1F ADD PUSH1 0x20 DUP1 SWAP2 DIV MUL PUSH1 0x20 ADD PUSH1 0x40 MLOAD SWAP1 DUP2 ADD PUSH1 0x40 MSTORE DUP1 SWAP3 SWAP2 SWAP1 DUP2 DUP2 MSTORE PUSH1 0x20 ADD DUP3 DUP1 SLOAD PUSH2 0x11EF SWAP1 PUSH2 0x22C5 JUMP JUMPDEST DUP1 ISZERO PUSH2 0x123C JUMPI DUP1 PUSH1 0x1F LT PUSH2 0x1211 JUMPI PUSH2 0x100 DUP1 DUP4 SLOAD DIV MUL DUP4 MSTORE SWAP2 PUSH1 0x20 ADD SWAP2 PUSH2 0x123C JUMP JUMPDEST DUP3 ADD SWAP2 SWAP1 PUSH1 0x0 MSTORE PUSH1 0x20 PUSH1 0x0 KECCAK256 SWAP1 JUMPDEST DUP2 SLOAD DUP2 MSTORE SWAP1 PUSH1 0x1 ADD SWAP1 PUSH1 0x20 ADD DUP1 DUP4 GT PUSH2 0x121F JUMPI DUP3 SWAP1 SUB PUSH1 0x1F AND DUP3 ADD SWAP2 JUMPDEST POP POP POP POP POP DUP2 MSTORE POP POP SWAP2 POP DUP1 DUP1 SLOAD DUP1 PUSH1 0x20 MUL PUSH1 0x20 ADD PUSH1 0x40 MLOAD SWAP1 DUP2 ADD PUSH1 0x40 MSTORE DUP1 SWAP3 SWAP2 SWAP1 DUP2 DUP2 MSTORE PUSH1 0x20 ADD PUSH1 0x0 SWAP1 JUMPDEST DUP3 DUP3 LT ISZERO PUSH2 0x1322 JUMPI DUP4 DUP3 SWAP1 PUSH1 0x0 MSTORE PUSH1 0x20 PUSH1 0x0 KECCAK256 ADD PUSH1 0x40 MLOAD DUP1 PUSH1 0x60 ADD PUSH1 0x40 MSTORE SWAP1 DUP2 PUSH1 0x0 DUP3 ADD PUSH1 0x0 SWAP1 SLOAD SWAP1 PUSH2 0x100 EXP SWAP1 DIV PUSH1 0xFF AND ISZERO ISZERO ISZERO ISZERO DUP2 MSTORE PUSH1 0x20 ADD PUSH1 0x0 DUP3 ADD PUSH1 0x1 SWAP1 SLOAD SWAP1 PUSH2 0x100 EXP SWAP1 DIV PUSH1 0xFF AND ISZERO ISZERO ISZERO ISZERO DUP2 MSTORE PUSH1 0x20 ADD PUSH1 0x0 DUP3 ADD PUSH1 0x2 SWAP1 SLOAD SWAP1 PUSH2 0x100 EXP SWAP1 DIV PUSH20 0xFFFFFFFFFFFFFFFFFFFFFFFFFFFFFFFFFFFFFFFF AND PUSH20 0xFFFFFFFFFFFFFFFFFFFFFFFFFFFFFFFFFFFFFFFF AND PUSH20 0xFFFFFFFFFFFFFFFFFFFFFFFFFFFFFFFFFFFFFFFF AND DUP2 MSTORE POP POP DUP2 MSTORE PUSH1 0x20 ADD SWAP1 PUSH1 0x1 ADD SWAP1 PUSH2 0x1268 JUMP JUMPDEST POP POP POP POP SWAP1 POP SWAP3 POP SWAP3 POP SWAP3 POP SWAP1 SWAP2 SWAP3 JUMP JUMPDEST PUSH1 0x3 SLOAD TIMESTAMP LT ISZERO PUSH2 0x1378 JUMPI PUSH1 0x40 MLOAD PUSH32 0x8C379A000000000000000000000000000000000000000000000000000000000 DUP2 MSTORE PUSH1 0x4 ADD PUSH2 0x136F SWAP1 PUSH2 0x1FDC JUMP JUMPDEST PUSH1 0x40 MLOAD DUP1 SWAP2 SUB SWAP1 REVERT JUMPDEST PUSH1 0x0 PUSH1 0x7 SLOAD EQ PUSH2 0x13BD JUMPI PUSH1 0x40 MLOAD PUSH32 0x8C379A000000000000000000000000000000000000000000000000000000000 DUP2 MSTORE PUSH1 0x4 ADD PUSH2 0x13B4 SWAP1 PUSH2 0x201C JUMP JUMPDEST PUSH1 0x40 MLOAD DUP1 SWAP2 SUB SWAP1 REVERT JUMPDEST PUSH1 0x1 PUSH1 0x0 SWAP1 SLOAD SWAP1 PUSH2 0x100 EXP SWAP1 DIV PUSH20 0xFFFFFFFFFFFFFFFFFFFFFFFFFFFFFFFFFFFFFFFF AND PUSH20 0xFFFFFFFFFFFFFFFFFFFFFFFFFFFFFFFFFFFFFFFF AND CALLER PUSH20 0xFFFFFFFFFFFFFFFFFFFFFFFFFFFFFFFFFFFFFFFF AND EQ DUP1 PUSH2 0x14A8 JUMPI POP PUSH1 0x0 PUSH20 0xFFFFFFFFFFFFFFFFFFFFFFFFFFFFFFFFFFFFFFFF AND PUSH1 0xA PUSH1 0x0 CALLER PUSH20 0xFFFFFFFFFFFFFFFFFFFFFFFFFFFFFFFFFFFFFFFF AND PUSH20 0xFFFFFFFFFFFFFFFFFFFFFFFFFFFFFFFFFFFFFFFF AND DUP2 MSTORE PUSH1 0x20 ADD SWAP1 DUP2 MSTORE PUSH1 0x20 ADD PUSH1 0x0 KECCAK256 PUSH1 0x0 ADD PUSH1 0x2 SWAP1 SLOAD SWAP1 PUSH2 0x100 EXP SWAP1 DIV PUSH20 0xFFFFFFFFFFFFFFFFFFFFFFFFFFFFFFFFFFFFFFFF AND PUSH20 0xFFFFFFFFFFFFFFFFFFFFFFFFFFFFFFFFFFFFFFFF AND EQ ISZERO JUMPDEST PUSH2 0x14E7 JUMPI PUSH1 0x40 MLOAD PUSH32 0x8C379A000000000000000000000000000000000000000000000000000000000 DUP2 MSTORE PUSH1 0x4 ADD PUSH2 0x14DE SWAP1 PUSH2 0x1F1C JUMP JUMPDEST PUSH1 0x40 MLOAD DUP1 SWAP2 SUB SWAP1 REVERT JUMPDEST PUSH1 0x64 PUSH1 0x2 DUP1 SLOAD SWAP1 POP PUSH1 0x6 SLOAD PUSH2 0x14FC SWAP2 SWAP1 PUSH2 0x2199 JUMP JUMPDEST PUSH2 0x1506 SWAP2 SWAP1 PUSH2 0x21CA JUMP JUMPDEST PUSH1 0x5 DUP2 SWAP1 SSTORE POP PUSH1 0x4 SLOAD PUSH1 0x5 SLOAD LT PUSH2 0x153F JUMPI PUSH32 0x4163636570746564000000000000000000000000000000000000000000000000 PUSH1 0x8 DUP2 SWAP1 SSTORE POP JUMPDEST PUSH1 0x0 JUMPDEST PUSH1 0x2 DUP1 SLOAD SWAP1 POP DUP2 PUSH1 0xFF AND LT ISZERO PUSH2 0x176D JUMPI PUSH1 0x0 ISZERO ISZERO PUSH1 0xA PUSH1 0x0 PUSH1 0x2 DUP5 PUSH1 0xFF AND DUP2 SLOAD DUP2 LT PUSH2 0x1571 JUMPI PUSH2 0x1570 PUSH2 0x23DF JUMP JUMPDEST JUMPDEST SWAP1 PUSH1 0x0 MSTORE PUSH1 0x20 PUSH1 0x0 KECCAK256 ADD PUSH1 0x0 SWAP1 SLOAD SWAP1 PUSH2 0x100 EXP SWAP1 DIV PUSH20 0xFFFFFFFFFFFFFFFFFFFFFFFFFFFFFFFFFFFFFFFF AND PUSH20 0xFFFFFFFFFFFFFFFFFFFFFFFFFFFFFFFFFFFFFFFF AND PUSH20 0xFFFFFFFFFFFFFFFFFFFFFFFFFFFFFFFFFFFFFFFF AND DUP2 MSTORE PUSH1 0x20 ADD SWAP1 DUP2 MSTORE PUSH1 0x20 ADD PUSH1 0x0 KECCAK256 PUSH1 0x0 ADD PUSH1 0x0 SWAP1 SLOAD SWAP1 PUSH2 0x100 EXP SWAP1 DIV PUSH1 0xFF AND ISZERO ISZERO EQ ISZERO PUSH2 0x175A JUMPI PUSH1 0x9 PUSH1 0xA PUSH1 0x0 PUSH1 0x2 DUP5 PUSH1 0xFF AND DUP2 SLOAD DUP2 LT PUSH2 0x160C JUMPI PUSH2 0x160B PUSH2 0x23DF JUMP JUMPDEST JUMPDEST SWAP1 PUSH1 0x0 MSTORE PUSH1 0x20 PUSH1 0x0 KECCAK256 ADD PUSH1 0x0 SWAP1 SLOAD SWAP1 PUSH2 0x100 EXP SWAP1 DIV PUSH20 0xFFFFFFFFFFFFFFFFFFFFFFFFFFFFFFFFFFFFFFFF AND PUSH20 0xFFFFFFFFFFFFFFFFFFFFFFFFFFFFFFFFFFFFFFFF AND PUSH20 0xFFFFFFFFFFFFFFFFFFFFFFFFFFFFFFFFFFFFFFFF AND DUP2 MSTORE PUSH1 0x20 ADD SWAP1 DUP2 MSTORE PUSH1 0x20 ADD PUSH1 0x0 KECCAK256 SWAP1 DUP1 PUSH1 0x1 DUP2 SLOAD ADD DUP1 DUP3 SSTORE DUP1 SWAP2 POP POP PUSH1 0x1 SWAP1 SUB SWAP1 PUSH1 0x0 MSTORE PUSH1 0x20 PUSH1 0x0 KECCAK256 ADD PUSH1 0x0 SWAP1 SWAP2 SWAP1 SWAP2 SWAP1 SWAP2 POP PUSH1 0x0 DUP3 ADD PUSH1 0x0 SWAP1 SLOAD SWAP1 PUSH2 0x100 EXP SWAP1 DIV PUSH1 0xFF AND DUP2 PUSH1 0x0 ADD PUSH1 0x0 PUSH2 0x100 EXP DUP2 SLOAD DUP2 PUSH1 0xFF MUL NOT AND SWAP1 DUP4 ISZERO ISZERO MUL OR SWAP1 SSTORE POP PUSH1 0x0 DUP3 ADD PUSH1 0x1 SWAP1 SLOAD SWAP1 PUSH2 0x100 EXP SWAP1 DIV PUSH1 0xFF AND DUP2 PUSH1 0x0 ADD PUSH1 0x1 PUSH2 0x100 EXP DUP2 SLOAD DUP2 PUSH1 0xFF MUL NOT AND SWAP1 DUP4 ISZERO ISZERO MUL OR SWAP1 SSTORE POP PUSH1 0x0 DUP3 ADD PUSH1 0x2 SWAP1 SLOAD SWAP1 PUSH2 0x100 EXP SWAP1 DIV PUSH20 0xFFFFFFFFFFFFFFFFFFFFFFFFFFFFFFFFFFFFFFFF AND DUP2 PUSH1 0x0 ADD PUSH1 0x2 PUSH2 0x100 EXP DUP2 SLOAD DUP2 PUSH20 0xFFFFFFFFFFFFFFFFFFFFFFFFFFFFFFFFFFFFFFFF MUL NOT AND SWAP1 DUP4 PUSH20 0xFFFFFFFFFFFFFFFFFFFFFFFFFFFFFFFFFFFFFFFF AND MUL OR SWAP1 SSTORE POP POP POP JUMPDEST DUP1 DUP1 PUSH2 0x1765 SWAP1 PUSH2 0x2328 JUMP JUMPDEST SWAP2 POP POP PUSH2 0x1542 JUMP JUMPDEST POP PUSH1 0x1 PUSH1 0x7 PUSH1 0x0 DUP3 DUP3 SLOAD PUSH2 0x1781 SWAP2 SWAP1 PUSH2 0x2143 JUMP JUMPDEST SWAP3 POP POP DUP2 SWAP1 SSTORE POP JUMP JUMPDEST PUSH1 0xA PUSH1 0x20 MSTORE DUP1 PUSH1 0x0 MSTORE PUSH1 0x40 PUSH1 0x0 KECCAK256 PUSH1 0x0 SWAP2 POP SWAP1 POP DUP1 PUSH1 0x0 ADD PUSH1 0x0 SWAP1 SLOAD SWAP1 PUSH2 0x100 EXP SWAP1 DIV PUSH1 0xFF AND SWAP1 DUP1 PUSH1 0x0 ADD PUSH1 0x1 SWAP1 SLOAD SWAP1 PUSH2 0x100 EXP SWAP1 DIV PUSH1 0xFF AND SWAP1 DUP1 PUSH1 0x0 ADD PUSH1 0x2 SWAP1 SLOAD SWAP1 PUSH2 0x100 EXP SWAP1 DIV PUSH20 0xFFFFFFFFFFFFFFFFFFFFFFFFFFFFFFFFFFFFFFFF AND SWAP1 POP DUP4 JUMP JUMPDEST PUSH1 0x60 PUSH1 0x0 DUP1 PUSH1 0x0 DUP1 PUSH1 0xB PUSH1 0x1 ADD PUSH1 0x3 SLOAD PUSH1 0x1 PUSH1 0x0 SWAP1 SLOAD SWAP1 PUSH2 0x100 EXP SWAP1 DIV PUSH20 0xFFFFFFFFFFFFFFFFFFFFFFFFFFFFFFFFFFFFFFFF AND PUSH1 0x4 SLOAD PUSH1 0x6 SLOAD DUP5 DUP1 SLOAD PUSH2 0x1833 SWAP1 PUSH2 0x22C5 JUMP JUMPDEST DUP1 PUSH1 0x1F ADD PUSH1 0x20 DUP1 SWAP2 DIV MUL PUSH1 0x20 ADD PUSH1 0x40 MLOAD SWAP1 DUP2 ADD PUSH1 0x40 MSTORE DUP1 SWAP3 SWAP2 SWAP1 DUP2 DUP2 MSTORE PUSH1 0x20 ADD DUP3 DUP1 SLOAD PUSH2 0x185F SWAP1 PUSH2 0x22C5 JUMP JUMPDEST DUP1 ISZERO PUSH2 0x18AC JUMPI DUP1 PUSH1 0x1F LT PUSH2 0x1881 JUMPI PUSH2 0x100 DUP1 DUP4 SLOAD DIV MUL DUP4 MSTORE SWAP2 PUSH1 0x20 ADD SWAP2 PUSH2 0x18AC JUMP JUMPDEST DUP3 ADD SWAP2 SWAP1 PUSH1 0x0 MSTORE PUSH1 0x20 PUSH1 0x0 KECCAK256 SWAP1 JUMPDEST DUP2 SLOAD DUP2 MSTORE SWAP1 PUSH1 0x1 ADD SWAP1 PUSH1 0x20 ADD DUP1 DUP4 GT PUSH2 0x188F JUMPI DUP3 SWAP1 SUB PUSH1 0x1F AND DUP3 ADD SWAP2 JUMPDEST POP POP POP POP POP SWAP5 POP SWAP5 POP SWAP5 POP SWAP5 POP SWAP5 POP SWAP5 POP SWAP1 SWAP2 SWAP3 SWAP4 SWAP5 JUMP JUMPDEST PUSH1 0x7 SLOAD DUP2 JUMP JUMPDEST PUSH1 0x4 SLOAD DUP2 JUMP JUMPDEST PUSH1 0x9 DUP2 DUP2 SLOAD DUP2 LT PUSH2 0x18E0 JUMPI PUSH1 0x0 DUP1 REVERT JUMPDEST SWAP1 PUSH1 0x0 MSTORE PUSH1 0x20 PUSH1 0x0 KECCAK256 ADD PUSH1 0x0 SWAP2 POP SWAP1 POP DUP1 PUSH1 0x0 ADD PUSH1 0x0 SWAP1 SLOAD SWAP1 PUSH2 0x100 EXP SWAP1 DIV PUSH1 0xFF AND SWAP1 DUP1 PUSH1 0x0 ADD PUSH1 0x1 SWAP1 SLOAD SWAP1 PUSH2 0x100 EXP SWAP1 DIV PUSH1 0xFF AND SWAP1 DUP1 PUSH1 0x0 ADD PUSH1 0x2 SWAP1 SLOAD SWAP1 PUSH2 0x100 EXP SWAP1 DIV PUSH20 0xFFFFFFFFFFFFFFFFFFFFFFFFFFFFFFFFFFFFFFFF AND SWAP1 POP DUP4 JUMP JUMPDEST PUSH1 0x0 DUP1 SLOAD SWAP1 PUSH2 0x100 EXP SWAP1 DIV PUSH20 0xFFFFFFFFFFFFFFFFFFFFFFFFFFFFFFFFFFFFFFFF AND DUP2 JUMP JUMPDEST PUSH1 0x40 MLOAD DUP1 PUSH1 0x40 ADD PUSH1 0x40 MSTORE DUP1 PUSH1 0x0 DUP2 MSTORE PUSH1 0x20 ADD PUSH1 0x60 DUP2 MSTORE POP SWAP1 JUMP JUMPDEST PUSH1 0x0 PUSH2 0x1991 PUSH2 0x198C DUP5 PUSH2 0x20AC JUMP JUMPDEST PUSH2 0x2087 JUMP JUMPDEST SWAP1 POP DUP3 DUP2 MSTORE PUSH1 0x20 DUP2 ADD DUP5 DUP5 DUP5 ADD GT ISZERO PUSH2 0x19AD JUMPI PUSH2 0x19AC PUSH2 0x2442 JUMP JUMPDEST JUMPDEST PUSH2 0x19B8 DUP5 DUP3 DUP6 PUSH2 0x2283 JUMP JUMPDEST POP SWAP4 SWAP3 POP POP POP JUMP JUMPDEST PUSH1 0x0 DUP2 CALLDATALOAD SWAP1 POP PUSH2 0x19CF DUP2 PUSH2 0x2694 JUMP JUMPDEST SWAP3 SWAP2 POP POP JUMP JUMPDEST PUSH1 0x0 DUP3 PUSH1 0x1F DUP4 ADD SLT PUSH2 0x19EA JUMPI PUSH2 0x19E9 PUSH2 0x243D JUMP JUMPDEST JUMPDEST DUP2 CALLDATALOAD PUSH2 0x19FA DUP5 DUP3 PUSH1 0x20 DUP7 ADD PUSH2 0x197E JUMP JUMPDEST SWAP2 POP POP SWAP3 SWAP2 POP POP JUMP JUMPDEST PUSH1 0x0 DUP2 CALLDATALOAD SWAP1 POP PUSH2 0x1A12 DUP2 PUSH2 0x26AB JUMP JUMPDEST SWAP3 SWAP2 POP POP JUMP JUMPDEST PUSH1 0x0 PUSH1 0x20 DUP3 DUP5 SUB SLT ISZERO PUSH2 0x1A2E JUMPI PUSH2 0x1A2D PUSH2 0x244C JUMP JUMPDEST JUMPDEST PUSH1 0x0 PUSH2 0x1A3C DUP5 DUP3 DUP6 ADD PUSH2 0x19C0 JUMP JUMPDEST SWAP2 POP POP SWAP3 SWAP2 POP POP JUMP JUMPDEST PUSH1 0x0 PUSH1 0x20 DUP3 DUP5 SUB SLT ISZERO PUSH2 0x1A5B JUMPI PUSH2 0x1A5A PUSH2 0x244C JUMP JUMPDEST JUMPDEST PUSH1 0x0 DUP3 ADD CALLDATALOAD PUSH8 0xFFFFFFFFFFFFFFFF DUP2 GT ISZERO PUSH2 0x1A79 JUMPI PUSH2 0x1A78 PUSH2 0x2447 JUMP JUMPDEST JUMPDEST PUSH2 0x1A85 DUP5 DUP3 DUP6 ADD PUSH2 0x19D5 JUMP JUMPDEST SWAP2 POP POP SWAP3 SWAP2 POP POP JUMP JUMPDEST PUSH1 0x0 PUSH1 0x20 DUP3 DUP5 SUB SLT ISZERO PUSH2 0x1AA4 JUMPI PUSH2 0x1AA3 PUSH2 0x244C JUMP JUMPDEST JUMPDEST PUSH1 0x0 PUSH2 0x1AB2 DUP5 DUP3 DUP6 ADD PUSH2 0x1A03 JUMP JUMPDEST SWAP2 POP POP SWAP3 SWAP2 POP POP JUMP JUMPDEST PUSH1 0x0 PUSH2 0x1AC7 DUP4 DUP4 PUSH2 0x1D89 JUMP JUMPDEST PUSH1 0x60 DUP4 ADD SWAP1 POP SWAP3 SWAP2 POP POP JUMP JUMPDEST PUSH2 0x1ADC DUP2 PUSH2 0x2224 JUMP JUMPDEST DUP3 MSTORE POP POP JUMP JUMPDEST PUSH2 0x1AEB DUP2 PUSH2 0x2224 JUMP JUMPDEST DUP3 MSTORE POP POP JUMP JUMPDEST PUSH1 0x0 PUSH2 0x1AFC DUP3 PUSH2 0x20ED JUMP JUMPDEST PUSH2 0x1B06 DUP2 DUP6 PUSH2 0x2110 JUMP JUMPDEST SWAP4 POP PUSH2 0x1B11 DUP4 PUSH2 0x20DD JUMP JUMPDEST DUP1 PUSH1 0x0 JUMPDEST DUP4 DUP2 LT ISZERO PUSH2 0x1B42 JUMPI DUP2 MLOAD PUSH2 0x1B29 DUP9 DUP3 PUSH2 0x1ABB JUMP JUMPDEST SWAP8 POP PUSH2 0x1B34 DUP4 PUSH2 0x2103 JUMP JUMPDEST SWAP3 POP POP PUSH1 0x1 DUP2 ADD SWAP1 POP PUSH2 0x1B15 JUMP JUMPDEST POP DUP6 SWAP4 POP POP POP POP SWAP3 SWAP2 POP POP JUMP JUMPDEST PUSH2 0x1B58 DUP2 PUSH2 0x2236 JUMP JUMPDEST DUP3 MSTORE POP POP JUMP JUMPDEST PUSH2 0x1B67 DUP2 PUSH2 0x2236 JUMP JUMPDEST DUP3 MSTORE POP POP JUMP JUMPDEST PUSH2 0x1B76 DUP2 PUSH2 0x2242 JUMP JUMPDEST DUP3 MSTORE POP POP JUMP JUMPDEST PUSH1 0x0 PUSH2 0x1B87 DUP3 PUSH2 0x20F8 JUMP JUMPDEST PUSH2 0x1B91 DUP2 DUP6 PUSH2 0x2121 JUMP JUMPDEST SWAP4 POP PUSH2 0x1BA1 DUP2 DUP6 PUSH1 0x20 DUP7 ADD PUSH2 0x2292 JUMP JUMPDEST PUSH2 0x1BAA DUP2 PUSH2 0x2451 JUMP JUMPDEST DUP5 ADD SWAP2 POP POP SWAP3 SWAP2 POP POP JUMP JUMPDEST PUSH1 0x0 PUSH2 0x1BC0 DUP3 PUSH2 0x20F8 JUMP JUMPDEST PUSH2 0x1BCA DUP2 DUP6 PUSH2 0x2132 JUMP JUMPDEST SWAP4 POP PUSH2 0x1BDA DUP2 DUP6 PUSH1 0x20 DUP7 ADD PUSH2 0x2292 JUMP JUMPDEST PUSH2 0x1BE3 DUP2 PUSH2 0x2451 JUMP JUMPDEST DUP5 ADD SWAP2 POP POP SWAP3 SWAP2 POP POP JUMP JUMPDEST PUSH1 0x0 PUSH2 0x1BFB PUSH1 0x1F DUP4 PUSH2 0x2132 JUMP JUMPDEST SWAP2 POP PUSH2 0x1C06 DUP3 PUSH2 0x2462 JUMP JUMPDEST PUSH1 0x20 DUP3 ADD SWAP1 POP SWAP2 SWAP1 POP JUMP JUMPDEST PUSH1 0x0 PUSH2 0x1C1E PUSH1 0x26 DUP4 PUSH2 0x2132 JUMP JUMPDEST SWAP2 POP PUSH2 0x1C29 DUP3 PUSH2 0x248B JUMP JUMPDEST PUSH1 0x40 DUP3 ADD SWAP1 POP SWAP2 SWAP1 POP JUMP JUMPDEST PUSH1 0x0 PUSH2 0x1C41 PUSH1 0x1C DUP4 PUSH2 0x2132 JUMP JUMPDEST SWAP2 POP PUSH2 0x1C4C DUP3 PUSH2 0x24DA JUMP JUMPDEST PUSH1 0x20 DUP3 ADD SWAP1 POP SWAP2 SWAP1 POP JUMP JUMPDEST PUSH1 0x0 PUSH2 0x1C64 PUSH1 0x15 DUP4 PUSH2 0x2132 JUMP JUMPDEST SWAP2 POP PUSH2 0x1C6F DUP3 PUSH2 0x2503 JUMP JUMPDEST PUSH1 0x20 DUP3 ADD SWAP1 POP SWAP2 SWAP1 POP JUMP JUMPDEST PUSH1 0x0 PUSH2 0x1C87 PUSH1 0x1E DUP4 PUSH2 0x2132 JUMP JUMPDEST SWAP2 POP PUSH2 0x1C92 DUP3 PUSH2 0x252C JUMP JUMPDEST PUSH1 0x20 DUP3 ADD SWAP1 POP SWAP2 SWAP1 POP JUMP JUMPDEST PUSH1 0x0 PUSH2 0x1CAA PUSH1 0x24 DUP4 PUSH2 0x2132 JUMP JUMPDEST SWAP2 POP PUSH2 0x1CB5 DUP3 PUSH2 0x2555 JUMP JUMPDEST PUSH1 0x40 DUP3 ADD SWAP1 POP SWAP2 SWAP1 POP JUMP JUMPDEST PUSH1 0x0 PUSH2 0x1CCD PUSH1 0x28 DUP4 PUSH2 0x2132 JUMP JUMPDEST SWAP2 POP PUSH2 0x1CD8 DUP3 PUSH2 0x25A4 JUMP JUMPDEST PUSH1 0x40 DUP3 ADD SWAP1 POP SWAP2 SWAP1 POP JUMP JUMPDEST PUSH1 0x0 PUSH2 0x1CF0 PUSH1 0x20 DUP4 PUSH2 0x2132 JUMP JUMPDEST SWAP2 POP PUSH2 0x1CFB DUP3 PUSH2 0x25F3 JUMP JUMPDEST PUSH1 0x20 DUP3 ADD SWAP1 POP SWAP2 SWAP1 POP JUMP JUMPDEST PUSH1 0x0 PUSH2 0x1D13 PUSH1 0x12 DUP4 PUSH2 0x2132 JUMP JUMPDEST SWAP2 POP PUSH2 0x1D1E DUP3 PUSH2 0x261C JUMP JUMPDEST PUSH1 0x20 DUP3 ADD SWAP1 POP SWAP2 SWAP1 POP JUMP JUMPDEST PUSH1 0x0 PUSH2 0x1D36 PUSH1 0x25 DUP4 PUSH2 0x2132 JUMP JUMPDEST SWAP2 POP PUSH2 0x1D41 DUP3 PUSH2 0x2645 JUMP JUMPDEST PUSH1 0x40 DUP3 ADD SWAP1 POP SWAP2 SWAP1 POP JUMP JUMPDEST PUSH1 0x0 PUSH1 0x40 DUP4 ADD PUSH1 0x0 DUP4 ADD MLOAD PUSH2 0x1D64 PUSH1 0x0 DUP7 ADD DUP3 PUSH2 0x1DCB JUMP JUMPDEST POP PUSH1 0x20 DUP4 ADD MLOAD DUP5 DUP3 SUB PUSH1 0x20 DUP7 ADD MSTORE PUSH2 0x1D7C DUP3 DUP3 PUSH2 0x1B7C JUMP JUMPDEST SWAP2 POP POP DUP1 SWAP2 POP POP SWAP3 SWAP2 POP POP JUMP JUMPDEST PUSH1 0x60 DUP3 ADD PUSH1 0x0 DUP3 ADD MLOAD PUSH2 0x1D9F PUSH1 0x0 DUP6 ADD DUP3 PUSH2 0x1B4F JUMP JUMPDEST POP PUSH1 0x20 DUP3 ADD MLOAD PUSH2 0x1DB2 PUSH1 0x20 DUP6 ADD DUP3 PUSH2 0x1B4F JUMP JUMPDEST POP PUSH1 0x40 DUP3 ADD MLOAD PUSH2 0x1DC5 PUSH1 0x40 DUP6 ADD DUP3 PUSH2 0x1AD3 JUMP JUMPDEST POP POP POP POP JUMP JUMPDEST PUSH2 0x1DD4 DUP2 PUSH2 0x226C JUMP JUMPDEST DUP3 MSTORE POP POP JUMP JUMPDEST PUSH2 0x1DE3 DUP2 PUSH2 0x226C JUMP JUMPDEST DUP3 MSTORE POP POP JUMP JUMPDEST PUSH1 0x0 PUSH1 0x20 DUP3 ADD SWAP1 POP PUSH2 0x1DFE PUSH1 0x0 DUP4 ADD DUP5 PUSH2 0x1AE2 JUMP JUMPDEST SWAP3 SWAP2 POP POP JUMP JUMPDEST PUSH1 0x0 PUSH1 0x60 DUP3 ADD SWAP1 POP PUSH2 0x1E19 PUSH1 0x0 DUP4 ADD DUP7 PUSH2 0x1B5E JUMP JUMPDEST PUSH2 0x1E26 PUSH1 0x20 DUP4 ADD DUP6 PUSH2 0x1B5E JUMP JUMPDEST PUSH2 0x1E33 PUSH1 0x40 DUP4 ADD DUP5 PUSH2 0x1AE2 JUMP JUMPDEST SWAP5 SWAP4 POP POP POP POP JUMP JUMPDEST PUSH1 0x0 PUSH1 0x60 DUP3 ADD SWAP1 POP PUSH2 0x1E50 PUSH1 0x0 DUP4 ADD DUP7 PUSH2 0x1B6D JUMP JUMPDEST DUP2 DUP2 SUB PUSH1 0x20 DUP4 ADD MSTORE PUSH2 0x1E62 DUP2 DUP6 PUSH2 0x1D4C JUMP JUMPDEST SWAP1 POP DUP2 DUP2 SUB PUSH1 0x40 DUP4 ADD MSTORE PUSH2 0x1E76 DUP2 DUP5 PUSH2 0x1AF1 JUMP JUMPDEST SWAP1 POP SWAP5 SWAP4 POP POP POP POP JUMP JUMPDEST PUSH1 0x0 PUSH1 0x20 DUP3 ADD SWAP1 POP DUP2 DUP2 SUB PUSH1 0x0 DUP4 ADD MSTORE PUSH2 0x1E9A DUP2 DUP5 PUSH2 0x1BB5 JUMP JUMPDEST SWAP1 POP SWAP3 SWAP2 POP POP JUMP JUMPDEST PUSH1 0x0 PUSH1 0xA0 DUP3 ADD SWAP1 POP DUP2 DUP2 SUB PUSH1 0x0 DUP4 ADD MSTORE PUSH2 0x1EBC DUP2 DUP9 PUSH2 0x1BB5 JUMP JUMPDEST SWAP1 POP PUSH2 0x1ECB PUSH1 0x20 DUP4 ADD DUP8 PUSH2 0x1DDA JUMP JUMPDEST PUSH2 0x1ED8 PUSH1 0x40 DUP4 ADD DUP7 PUSH2 0x1AE2 JUMP JUMPDEST PUSH2 0x1EE5 PUSH1 0x60 DUP4 ADD DUP6 PUSH2 0x1DDA JUMP JUMPDEST PUSH2 0x1EF2 PUSH1 0x80 DUP4 ADD DUP5 PUSH2 0x1DDA JUMP JUMPDEST SWAP7 SWAP6 POP POP POP POP POP POP JUMP JUMPDEST PUSH1 0x0 PUSH1 0x20 DUP3 ADD SWAP1 POP DUP2 DUP2 SUB PUSH1 0x0 DUP4 ADD MSTORE PUSH2 0x1F15 DUP2 PUSH2 0x1BEE JUMP JUMPDEST SWAP1 POP SWAP2 SWAP1 POP JUMP JUMPDEST PUSH1 0x0 PUSH1 0x20 DUP3 ADD SWAP1 POP DUP2 DUP2 SUB PUSH1 0x0 DUP4 ADD MSTORE PUSH2 0x1F35 DUP2 PUSH2 0x1C11 JUMP JUMPDEST SWAP1 POP SWAP2 SWAP1 POP JUMP JUMPDEST PUSH1 0x0 PUSH1 0x20 DUP3 ADD SWAP1 POP DUP2 DUP2 SUB PUSH1 0x0 DUP4 ADD MSTORE PUSH2 0x1F55 DUP2 PUSH2 0x1C34 JUMP JUMPDEST SWAP1 POP SWAP2 SWAP1 POP JUMP JUMPDEST PUSH1 0x0 PUSH1 0x20 DUP3 ADD SWAP1 POP DUP2 DUP2 SUB PUSH1 0x0 DUP4 ADD MSTORE PUSH2 0x1F75 DUP2 PUSH2 0x1C57 JUMP JUMPDEST SWAP1 POP SWAP2 SWAP1 POP JUMP JUMPDEST PUSH1 0x0 PUSH1 0x20 DUP3 ADD SWAP1 POP DUP2 DUP2 SUB PUSH1 0x0 DUP4 ADD MSTORE PUSH2 0x1F95 DUP2 PUSH2 0x1C7A JUMP JUMPDEST SWAP1 POP SWAP2 SWAP1 POP JUMP JUMPDEST PUSH1 0x0 PUSH1 0x20 DUP3 ADD SWAP1 POP DUP2 DUP2 SUB PUSH1 0x0 DUP4 ADD MSTORE PUSH2 0x1FB5 DUP2 PUSH2 0x1C9D JUMP JUMPDEST SWAP1 POP SWAP2 SWAP1 POP JUMP JUMPDEST PUSH1 0x0 PUSH1 0x20 DUP3 ADD SWAP1 POP DUP2 DUP2 SUB PUSH1 0x0 DUP4 ADD MSTORE PUSH2 0x1FD5 DUP2 PUSH2 0x1CC0 JUMP JUMPDEST SWAP1 POP SWAP2 SWAP1 POP JUMP JUMPDEST PUSH1 0x0 PUSH1 0x20 DUP3 ADD SWAP1 POP DUP2 DUP2 SUB PUSH1 0x0 DUP4 ADD MSTORE PUSH2 0x1FF5 DUP2 PUSH2 0x1CE3 JUMP JUMPDEST SWAP1 POP SWAP2 SWAP1 POP JUMP JUMPDEST PUSH1 0x0 PUSH1 0x20 DUP3 ADD SWAP1 POP DUP2 DUP2 SUB PUSH1 0x0 DUP4 ADD MSTORE PUSH2 0x2015 DUP2 PUSH2 0x1D06 JUMP JUMPDEST SWAP1 POP SWAP2 SWAP1 POP JUMP JUMPDEST PUSH1 0x0 PUSH1 0x20 DUP3 ADD SWAP1 POP DUP2 DUP2 SUB PUSH1 0x0 DUP4 ADD MSTORE PUSH2 0x2035 DUP2 PUSH2 0x1D29 JUMP JUMPDEST SWAP1 POP SWAP2 SWAP1 POP JUMP JUMPDEST PUSH1 0x0 PUSH1 0x20 DUP3 ADD SWAP1 POP PUSH2 0x2051 PUSH1 0x0 DUP4 ADD DUP5 PUSH2 0x1DDA JUMP JUMPDEST SWAP3 SWAP2 POP POP JUMP JUMPDEST PUSH1 0x0 PUSH1 0x40 DUP3 ADD SWAP1 POP PUSH2 0x206C PUSH1 0x0 DUP4 ADD DUP6 PUSH2 0x1DDA JUMP JUMPDEST DUP2 DUP2 SUB PUSH1 0x20 DUP4 ADD MSTORE PUSH2 0x207E DUP2 DUP5 PUSH2 0x1BB5 JUMP JUMPDEST SWAP1 POP SWAP4 SWAP3 POP POP POP JUMP JUMPDEST PUSH1 0x0 PUSH2 0x2091 PUSH2 0x20A2 JUMP JUMPDEST SWAP1 POP PUSH2 0x209D DUP3 DUP3 PUSH2 0x22F7 JUMP JUMPDEST SWAP2 SWAP1 POP JUMP JUMPDEST PUSH1 0x0 PUSH1 0x40 MLOAD SWAP1 POP SWAP1 JUMP JUMPDEST PUSH1 0x0 PUSH8 0xFFFFFFFFFFFFFFFF DUP3 GT ISZERO PUSH2 0x20C7 JUMPI PUSH2 0x20C6 PUSH2 0x240E JUMP JUMPDEST JUMPDEST PUSH2 0x20D0 DUP3 PUSH2 0x2451 JUMP JUMPDEST SWAP1 POP PUSH1 0x20 DUP2 ADD SWAP1 POP SWAP2 SWAP1 POP JUMP JUMPDEST PUSH1 0x0 DUP2 SWAP1 POP PUSH1 0x20 DUP3 ADD SWAP1 POP SWAP2 SWAP1 POP JUMP JUMPDEST PUSH1 0x0 DUP2 MLOAD SWAP1 POP SWAP2 SWAP1 POP JUMP JUMPDEST PUSH1 0x0 DUP2 MLOAD SWAP1 POP SWAP2 SWAP1 POP JUMP JUMPDEST PUSH1 0x0 PUSH1 0x20 DUP3 ADD SWAP1 POP SWAP2 SWAP1 POP JUMP JUMPDEST PUSH1 0x0 DUP3 DUP3 MSTORE PUSH1 0x20 DUP3 ADD SWAP1 POP SWAP3 SWAP2 POP POP JUMP JUMPDEST PUSH1 0x0 DUP3 DUP3 MSTORE PUSH1 0x20 DUP3 ADD SWAP1 POP SWAP3 SWAP2 POP POP JUMP JUMPDEST PUSH1 0x0 DUP3 DUP3 MSTORE PUSH1 0x20 DUP3 ADD SWAP1 POP SWAP3 SWAP2 POP POP JUMP JUMPDEST PUSH1 0x0 PUSH2 0x214E DUP3 PUSH2 0x226C JUMP JUMPDEST SWAP2 POP PUSH2 0x2159 DUP4 PUSH2 0x226C JUMP JUMPDEST SWAP3 POP DUP3 PUSH32 0xFFFFFFFFFFFFFFFFFFFFFFFFFFFFFFFFFFFFFFFFFFFFFFFFFFFFFFFFFFFFFFFF SUB DUP3 GT ISZERO PUSH2 0x218E JUMPI PUSH2 0x218D PUSH2 0x2352 JUMP JUMPDEST JUMPDEST DUP3 DUP3 ADD SWAP1 POP SWAP3 SWAP2 POP POP JUMP JUMPDEST PUSH1 0x0 PUSH2 0x21A4 DUP3 PUSH2 0x226C JUMP JUMPDEST SWAP2 POP PUSH2 0x21AF DUP4 PUSH2 0x226C JUMP JUMPDEST SWAP3 POP DUP3 PUSH2 0x21BF JUMPI PUSH2 0x21BE PUSH2 0x2381 JUMP JUMPDEST JUMPDEST DUP3 DUP3 DIV SWAP1 POP SWAP3 SWAP2 POP POP JUMP JUMPDEST PUSH1 0x0 PUSH2 0x21D5 DUP3 PUSH2 0x226C JUMP JUMPDEST SWAP2 POP PUSH2 0x21E0 DUP4 PUSH2 0x226C JUMP JUMPDEST SWAP3 POP DUP2 PUSH32 0xFFFFFFFFFFFFFFFFFFFFFFFFFFFFFFFFFFFFFFFFFFFFFFFFFFFFFFFFFFFFFFFF DIV DUP4 GT DUP3 ISZERO ISZERO AND ISZERO PUSH2 0x2219 JUMPI PUSH2 0x2218 PUSH2 0x2352 JUMP JUMPDEST JUMPDEST DUP3 DUP3 MUL SWAP1 POP SWAP3 SWAP2 POP POP JUMP JUMPDEST PUSH1 0x0 PUSH2 0x222F DUP3 PUSH2 0x224C JUMP JUMPDEST SWAP1 POP SWAP2 SWAP1 POP JUMP JUMPDEST PUSH1 0x0 DUP2 ISZERO ISZERO SWAP1 POP SWAP2 SWAP1 POP JUMP JUMPDEST PUSH1 0x0 DUP2 SWAP1 POP SWAP2 SWAP1 POP JUMP JUMPDEST PUSH1 0x0 PUSH20 0xFFFFFFFFFFFFFFFFFFFFFFFFFFFFFFFFFFFFFFFF DUP3 AND SWAP1 POP SWAP2 SWAP1 POP JUMP JUMPDEST PUSH1 0x0 DUP2 SWAP1 POP SWAP2 SWAP1 POP JUMP JUMPDEST PUSH1 0x0 PUSH1 0xFF DUP3 AND SWAP1 POP SWAP2 SWAP1 POP JUMP JUMPDEST DUP3 DUP2 DUP4 CALLDATACOPY PUSH1 0x0 DUP4 DUP4 ADD MSTORE POP POP POP JUMP JUMPDEST PUSH1 0x0 JUMPDEST DUP4 DUP2 LT ISZERO PUSH2 0x22B0 JUMPI DUP1 DUP3 ADD MLOAD DUP2 DUP5 ADD MSTORE PUSH1 0x20 DUP2 ADD SWAP1 POP PUSH2 0x2295 JUMP JUMPDEST DUP4 DUP2 GT ISZERO PUSH2 0x22BF JUMPI PUSH1 0x0 DUP5 DUP5 ADD MSTORE JUMPDEST POP POP POP POP JUMP JUMPDEST PUSH1 0x0 PUSH1 0x2 DUP3 DIV SWAP1 POP PUSH1 0x1 DUP3 AND DUP1 PUSH2 0x22DD JUMPI PUSH1 0x7F DUP3 AND SWAP2 POP JUMPDEST PUSH1 0x20 DUP3 LT DUP2 EQ ISZERO PUSH2 0x22F1 JUMPI PUSH2 0x22F0 PUSH2 0x23B0 JUMP JUMPDEST JUMPDEST POP SWAP2 SWAP1 POP JUMP JUMPDEST PUSH2 0x2300 DUP3 PUSH2 0x2451 JUMP JUMPDEST DUP2 ADD DUP2 DUP2 LT PUSH8 0xFFFFFFFFFFFFFFFF DUP3 GT OR ISZERO PUSH2 0x231F JUMPI PUSH2 0x231E PUSH2 0x240E JUMP JUMPDEST JUMPDEST DUP1 PUSH1 0x40 MSTORE POP POP POP JUMP JUMPDEST PUSH1 0x0 PUSH2 0x2333 DUP3 PUSH2 0x2276 JUMP JUMPDEST SWAP2 POP PUSH1 0xFF DUP3 EQ ISZERO PUSH2 0x2347 JUMPI PUSH2 0x2346 PUSH2 0x2352 JUMP JUMPDEST JUMPDEST PUSH1 0x1 DUP3 ADD SWAP1 POP SWAP2 SWAP1 POP JUMP JUMPDEST PUSH32 0x4E487B7100000000000000000000000000000000000000000000000000000000 PUSH1 0x0 MSTORE PUSH1 0x11 PUSH1 0x4 MSTORE PUSH1 0x24 PUSH1 0x0 REVERT JUMPDEST PUSH32 0x4E487B7100000000000000000000000000000000000000000000000000000000 PUSH1 0x0 MSTORE PUSH1 0x12 PUSH1 0x4 MSTORE PUSH1 0x24 PUSH1 0x0 REVERT JUMPDEST PUSH32 0x4E487B7100000000000000000000000000000000000000000000000000000000 PUSH1 0x0 MSTORE PUSH1 0x22 PUSH1 0x4 MSTORE PUSH1 0x24 PUSH1 0x0 REVERT JUMPDEST PUSH32 0x4E487B7100000000000000000000000000000000000000000000000000000000 PUSH1 0x0 MSTORE PUSH1 0x32 PUSH1 0x4 MSTORE PUSH1 0x24 PUSH1 0x0 REVERT JUMPDEST PUSH32 0x4E487B7100000000000000000000000000000000000000000000000000000000 PUSH1 0x0 MSTORE PUSH1 0x41 PUSH1 0x4 MSTORE PUSH1 0x24 PUSH1 0x0 REVERT JUMPDEST PUSH1 0x0 DUP1 REVERT JUMPDEST PUSH1 0x0 DUP1 REVERT JUMPDEST PUSH1 0x0 DUP1 REVERT JUMPDEST PUSH1 0x0 DUP1 REVERT JUMPDEST PUSH1 0x0 PUSH1 0x1F NOT PUSH1 0x1F DUP4 ADD AND SWAP1 POP SWAP2 SWAP1 POP JUMP JUMPDEST PUSH32 0x526563697069656E7420697320616C7265616479207265676973746572656400 PUSH1 0x0 DUP3 ADD MSTORE POP JUMP JUMPDEST PUSH32 0x596F75206172656E277420617574686F72697A6520746F20636F6D70696C6520 PUSH1 0x0 DUP3 ADD MSTORE PUSH32 0x42756E646C650000000000000000000000000000000000000000000000000000 PUSH1 0x20 DUP3 ADD MSTORE POP JUMP JUMPDEST PUSH32 0x596F7520616C72656164792073656E74206120726573706F6E73652E00000000 PUSH1 0x0 DUP3 ADD MSTORE POP JUMP JUMPDEST PUSH32 0x496E69746961746F722063616E277420766F7465210000000000000000000000 PUSH1 0x0 DUP3 ADD MSTORE POP JUMP JUMPDEST PUSH32 0x596F7520617265206E6F74207265676973746572656420746F20766F74650000 PUSH1 0x0 DUP3 ADD MSTORE POP JUMP JUMPDEST PUSH32 0x50726F706F73616C206861732072656163686564206974732065787069727920 PUSH1 0x0 DUP3 ADD MSTORE PUSH32 0x6461746500000000000000000000000000000000000000000000000000000000 PUSH1 0x20 DUP3 ADD MSTORE POP JUMP JUMPDEST PUSH32 0x4F6E6C7920696E69746961746F722063616E2072656769737465722061207265 PUSH1 0x0 DUP3 ADD MSTORE PUSH32 0x63697069656E742E000000000000000000000000000000000000000000000000 PUSH1 0x20 DUP3 ADD MSTORE POP JUMP JUMPDEST PUSH32 0x5665726469637420686173206E6F74206265656E207265616368656420796574 PUSH1 0x0 DUP3 ADD MSTORE POP JUMP JUMPDEST PUSH32 0x566F74696E672068617320657870697265640000000000000000000000000000 PUSH1 0x0 DUP3 ADD MSTORE POP JUMP JUMPDEST PUSH32 0x436F6E73656E7375732068617320616C7265616479206265656E2063616C6375 PUSH1 0x0 DUP3 ADD MSTORE PUSH32 0x6C61746564000000000000000000000000000000000000000000000000000000 PUSH1 0x20 DUP3 ADD MSTORE POP JUMP JUMPDEST PUSH2 0x269D DUP2 PUSH2 0x2224 JUMP JUMPDEST DUP2 EQ PUSH2 0x26A8 JUMPI PUSH1 0x0 DUP1 REVERT JUMPDEST POP JUMP JUMPDEST PUSH2 0x26B4 DUP2 PUSH2 0x226C JUMP JUMPDEST DUP2 EQ PUSH2 0x26BF JUMPI PUSH1 0x0 DUP1 REVERT JUMPDEST POP JUMP INVALID LOG2 PUSH5 0x6970667358 0x22 SLT KECCAK256 MSTORE 0xD DUP8 SWAP11 0x23 PUSH12 0x2F98CFA7448146D8E12C2722 0xC4 PUSH13 0x4E21589A14FD1042AE2733964 PUSH20 0x6F6C634300080700330000000000000000000000 "
				},
				"gasEstimates": {
					"creation": {
						"codeDepositCost": "1995200",
						"executionCost": "infinite",
						"totalCost": "infinite"
					},
					"external": {
						"AccumulatedPercentage()": "2496",
						"BusinessRequirement()": "2495",
						"Consensus()": "infinite",
						"RegisterVoter(address)": "131017",
						"Vote(string)": "infinite",
						"contractAddress()": "2621",
						"getParameters()": "infinite",
						"getParameters2(address)": "infinite",
						"getValues()": "infinite",
						"initiator()": "2559",
						"keys(uint256)": "4980",
						"numApprovals()": "2518",
						"numberCompiled()": "2473",
						"proposal()": "infinite",
						"retrieve_bundle()": "infinite",
						"voters(uint256)": "infinite",
						"voters_map(address)": "infinite"
					}
				},
				"methodIdentifiers": {
					"AccumulatedPercentage()": "604c8333",
					"BusinessRequirement()": "d77aa749",
					"Consensus()": "95b02dfa",
					"RegisterVoter(address)": "15fe6f1b",
					"Vote(string)": "323082d7",
					"contractAddress()": "f6b4dfb4",
					"getParameters()": "a5ea11da",
					"getParameters2(address)": "5361a0ea",
					"getValues()": "19eb4a90",
					"initiator()": "5c39fcc1",
					"keys(uint256)": "0cb6aaf1",
					"numApprovals()": "7403c5e5",
					"numberCompiled()": "b9a29250",
					"proposal()": "753ec103",
					"retrieve_bundle()": "82316745",
					"voters(uint256)": "da58c7d9",
					"voters_map(address)": "9aa4bbdd"
				}
			},
			"storageLayout": {
				"storage": [
					{
						"astId": 15,
						"contract": "contracts/BusinessConsensus.sol:BusinessConsensus",
						"label": "contractAddress",
						"offset": 0,
						"slot": "0",
						"type": "t_address"
					},
					{
						"astId": 17,
						"contract": "contracts/BusinessConsensus.sol:BusinessConsensus",
						"label": "initiator",
						"offset": 0,
						"slot": "1",
						"type": "t_address"
					},
					{
						"astId": 20,
						"contract": "contracts/BusinessConsensus.sol:BusinessConsensus",
						"label": "keys",
						"offset": 0,
						"slot": "2",
						"type": "t_array(t_address)dyn_storage"
					},
					{
						"astId": 22,
						"contract": "contracts/BusinessConsensus.sol:BusinessConsensus",
						"label": "expiryDate",
						"offset": 0,
						"slot": "3",
						"type": "t_uint256"
					},
					{
						"astId": 24,
						"contract": "contracts/BusinessConsensus.sol:BusinessConsensus",
						"label": "BusinessRequirement",
						"offset": 0,
						"slot": "4",
						"type": "t_uint256"
					},
					{
						"astId": 26,
						"contract": "contracts/BusinessConsensus.sol:BusinessConsensus",
						"label": "AccumulatedPercentage",
						"offset": 0,
						"slot": "5",
						"type": "t_uint256"
					},
					{
						"astId": 28,
						"contract": "contracts/BusinessConsensus.sol:BusinessConsensus",
						"label": "numApprovals",
						"offset": 0,
						"slot": "6",
						"type": "t_uint256"
					},
					{
						"astId": 30,
						"contract": "contracts/BusinessConsensus.sol:BusinessConsensus",
						"label": "numberCompiled",
						"offset": 0,
						"slot": "7",
						"type": "t_uint256"
					},
					{
						"astId": 32,
						"contract": "contracts/BusinessConsensus.sol:BusinessConsensus",
						"label": "finalVerdict",
						"offset": 0,
						"slot": "8",
						"type": "t_bytes32"
					},
					{
						"astId": 36,
						"contract": "contracts/BusinessConsensus.sol:BusinessConsensus",
						"label": "voters",
						"offset": 0,
						"slot": "9",
						"type": "t_array(t_struct(Voter)8_storage)dyn_storage"
					},
					{
						"astId": 41,
						"contract": "contracts/BusinessConsensus.sol:BusinessConsensus",
						"label": "voters_map",
						"offset": 0,
						"slot": "10",
						"type": "t_mapping(t_address,t_struct(Voter)8_storage)"
					},
					{
						"astId": 44,
						"contract": "contracts/BusinessConsensus.sol:BusinessConsensus",
						"label": "proposal",
						"offset": 0,
						"slot": "11",
						"type": "t_struct(Proposal)13_storage"
					}
				],
				"types": {
					"t_address": {
						"encoding": "inplace",
						"label": "address",
						"numberOfBytes": "20"
					},
					"t_array(t_address)dyn_storage": {
						"base": "t_address",
						"encoding": "dynamic_array",
						"label": "address[]",
						"numberOfBytes": "32"
					},
					"t_array(t_struct(Voter)8_storage)dyn_storage": {
						"base": "t_struct(Voter)8_storage",
						"encoding": "dynamic_array",
						"label": "struct BusinessConsensus.Voter[]",
						"numberOfBytes": "32"
					},
					"t_bool": {
						"encoding": "inplace",
						"label": "bool",
						"numberOfBytes": "1"
					},
					"t_bytes32": {
						"encoding": "inplace",
						"label": "bytes32",
						"numberOfBytes": "32"
					},
					"t_mapping(t_address,t_struct(Voter)8_storage)": {
						"encoding": "mapping",
						"key": "t_address",
						"label": "mapping(address => struct BusinessConsensus.Voter)",
						"numberOfBytes": "32",
						"value": "t_struct(Voter)8_storage"
					},
					"t_string_storage": {
						"encoding": "bytes",
						"label": "string",
						"numberOfBytes": "32"
					},
					"t_struct(Proposal)13_storage": {
						"encoding": "inplace",
						"label": "struct BusinessConsensus.Proposal",
						"members": [
							{
								"astId": 10,
								"contract": "contracts/BusinessConsensus.sol:BusinessConsensus",
								"label": "voteCount",
								"offset": 0,
								"slot": "0",
								"type": "t_uint256"
							},
							{
								"astId": 12,
								"contract": "contracts/BusinessConsensus.sol:BusinessConsensus",
								"label": "messageID",
								"offset": 0,
								"slot": "1",
								"type": "t_string_storage"
							}
						],
						"numberOfBytes": "64"
					},
					"t_struct(Voter)8_storage": {
						"encoding": "inplace",
						"label": "struct BusinessConsensus.Voter",
						"members": [
							{
								"astId": 3,
								"contract": "contracts/BusinessConsensus.sol:BusinessConsensus",
								"label": "voted",
								"offset": 0,
								"slot": "0",
								"type": "t_bool"
							},
							{
								"astId": 5,
								"contract": "contracts/BusinessConsensus.sol:BusinessConsensus",
								"label": "vote",
								"offset": 1,
								"slot": "0",
								"type": "t_bool"
							},
							{
								"astId": 7,
								"contract": "contracts/BusinessConsensus.sol:BusinessConsensus",
								"label": "recipient",
								"offset": 2,
								"slot": "0",
								"type": "t_address"
							}
						],
						"numberOfBytes": "32"
					},
					"t_uint256": {
						"encoding": "inplace",
						"label": "uint256",
						"numberOfBytes": "32"
					}
				}
			},
			"userdoc": {
				"kind": "user",
				"methods": {
					"Consensus()": {
						"notice": "compile all relevant information into a Bundle"
					}
				},
				"version": 1
			}
		}
	}
}