{
	"contracts/MotherContract.sol": {
		"MotherContract": {
			"abi": [
				{
					"inputs": [
						{
							"internalType": "address",
							"name": "contractAddress",
							"type": "address"
						}
					],
					"name": "createContractInstance",
					"outputs": [],
					"stateMutability": "nonpayable",
					"type": "function"
				},
				{
					"inputs": [
						{
							"internalType": "string",
							"name": "_messageID",
							"type": "string"
						}
					],
					"name": "getContractAddress",
					"outputs": [
						{
							"internalType": "address",
							"name": "",
							"type": "address"
						}
					],
					"stateMutability": "view",
					"type": "function"
				},
				{
					"inputs": [
						{
							"internalType": "bytes32",
							"name": "",
							"type": "bytes32"
						}
					],
					"name": "userContractAddress",
					"outputs": [
						{
							"internalType": "address",
							"name": "",
							"type": "address"
						}
					],
					"stateMutability": "view",
					"type": "function"
				}
			],
			"devdoc": {
				"kind": "dev",
				"methods": {},
				"version": 1
			},
			"evm": {
				"assembly": "    /* \"contracts/MotherContract.sol\":68:610  contract MotherContract{\r... */\n  mstore(0x40, 0x80)\n  callvalue\n  dup1\n  iszero\n  tag_1\n  jumpi\n  0x00\n  dup1\n  revert\ntag_1:\n  pop\n  dataSize(sub_0)\n  dup1\n  dataOffset(sub_0)\n  0x00\n  codecopy\n  0x00\n  return\nstop\n\nsub_0: assembly {\n        /* \"contracts/MotherContract.sol\":68:610  contract MotherContract{\r... */\n      mstore(0x40, 0x80)\n      callvalue\n      dup1\n      iszero\n      tag_1\n      jumpi\n      0x00\n      dup1\n      revert\n    tag_1:\n      pop\n      jumpi(tag_2, lt(calldatasize, 0x04))\n      shr(0xe0, calldataload(0x00))\n      dup1\n      0x04433bbc\n      eq\n      tag_3\n      jumpi\n      dup1\n      0xd785403c\n      eq\n      tag_4\n      jumpi\n      dup1\n      0xe9c30288\n      eq\n      tag_5\n      jumpi\n    tag_2:\n      0x00\n      dup1\n      revert\n        /* \"contracts/MotherContract.sol\":447:607  function getContractAddress(string memory _messageID) external view returns (address){\r... */\n    tag_3:\n      tag_6\n      0x04\n      dup1\n      calldatasize\n      sub\n      dup2\n      add\n      swap1\n      tag_7\n      swap2\n      swap1\n      tag_8\n      jump\t// in\n    tag_7:\n      tag_9\n      jump\t// in\n    tag_6:\n      mload(0x40)\n      tag_10\n      swap2\n      swap1\n      tag_11\n      jump\t// in\n    tag_10:\n      mload(0x40)\n      dup1\n      swap2\n      sub\n      swap1\n      return\n        /* \"contracts/MotherContract.sol\":159:441  function createContractInstance(address contractAddress) external {\r... */\n    tag_4:\n      tag_12\n      0x04\n      dup1\n      calldatasize\n      sub\n      dup2\n      add\n      swap1\n      tag_13\n      swap2\n      swap1\n      tag_14\n      jump\t// in\n    tag_13:\n      tag_15\n      jump\t// in\n    tag_12:\n      stop\n        /* \"contracts/MotherContract.sol\":98:152  mapping(bytes32 => address) public userContractAddress */\n    tag_5:\n      tag_16\n      0x04\n      dup1\n      calldatasize\n      sub\n      dup2\n      add\n      swap1\n      tag_17\n      swap2\n      swap1\n      tag_18\n      jump\t// in\n    tag_17:\n      tag_19\n      jump\t// in\n    tag_16:\n      mload(0x40)\n      tag_20\n      swap2\n      swap1\n      tag_11\n      jump\t// in\n    tag_20:\n      mload(0x40)\n      dup1\n      swap2\n      sub\n      swap1\n      return\n        /* \"contracts/MotherContract.sol\":447:607  function getContractAddress(string memory _messageID) external view returns (address){\r... */\n    tag_9:\n        /* \"contracts/MotherContract.sol\":524:531  address */\n      0x00\n        /* \"contracts/MotherContract.sol\":550:569  userContractAddress */\n      dup1\n        /* \"contracts/MotherContract.sol\":550:599  userContractAddress[keccak256(bytes(_messageID))] */\n      0x00\n        /* \"contracts/MotherContract.sol\":586:596  _messageID */\n      dup4\n        /* \"contracts/MotherContract.sol\":570:598  keccak256(bytes(_messageID)) */\n      dup1\n      mload\n      swap1\n      0x20\n      add\n      keccak256\n        /* \"contracts/MotherContract.sol\":550:599  userContractAddress[keccak256(bytes(_messageID))] */\n      dup2\n      mstore\n      0x20\n      add\n      swap1\n      dup2\n      mstore\n      0x20\n      add\n      0x00\n      keccak256\n      0x00\n      swap1\n      sload\n      swap1\n      0x0100\n      exp\n      swap1\n      div\n      0xffffffffffffffffffffffffffffffffffffffff\n      and\n        /* \"contracts/MotherContract.sol\":543:599  return userContractAddress[keccak256(bytes(_messageID))] */\n      swap1\n      pop\n        /* \"contracts/MotherContract.sol\":447:607  function getContractAddress(string memory _messageID) external view returns (address){\r... */\n      swap2\n      swap1\n      pop\n      jump\t// out\n        /* \"contracts/MotherContract.sol\":159:441  function createContractInstance(address contractAddress) external {\r... */\n    tag_15:\n        /* \"contracts/MotherContract.sol\":234:265  BusinessConsensus smartContract */\n      0x00\n        /* \"contracts/MotherContract.sol\":286:301  contractAddress */\n      dup2\n        /* \"contracts/MotherContract.sol\":234:302  BusinessConsensus smartContract = BusinessConsensus(contractAddress) */\n      swap1\n      pop\n        /* \"contracts/MotherContract.sol\":311:329  bytes32 proposalID */\n      0x00\n        /* \"contracts/MotherContract.sol\":348:361  smartContract */\n      dup2\n        /* \"contracts/MotherContract.sol\":348:371  smartContract.getValues */\n      0xffffffffffffffffffffffffffffffffffffffff\n      and\n      0x19eb4a90\n        /* \"contracts/MotherContract.sol\":348:373  smartContract.getValues() */\n      mload(0x40)\n      dup2\n      0xffffffff\n      and\n      0xe0\n      shl\n      dup2\n      mstore\n      0x04\n      add\n      0x00\n      mload(0x40)\n      dup1\n      dup4\n      sub\n      dup2\n      dup7\n      dup1\n      extcodesize\n      iszero\n      dup1\n      iszero\n      tag_23\n      jumpi\n      0x00\n      dup1\n      revert\n    tag_23:\n      pop\n      gas\n      staticcall\n      iszero\n      dup1\n      iszero\n      tag_25\n      jumpi\n      returndatasize\n      0x00\n      dup1\n      returndatacopy\n      revert(0x00, returndatasize)\n    tag_25:\n      pop\n      pop\n      pop\n      pop\n      mload(0x40)\n      returndatasize\n      0x00\n      dup3\n      returndatacopy\n      returndatasize\n      not(0x1f)\n      0x1f\n      dup3\n      add\n      and\n      dup3\n      add\n      dup1\n      0x40\n      mstore\n      pop\n      dup2\n      add\n      swap1\n      tag_26\n      swap2\n      swap1\n      tag_27\n      jump\t// in\n    tag_26:\n        /* \"contracts/MotherContract.sol\":332:375  keccak256(bytes(smartContract.getValues())) */\n      dup1\n      mload\n      swap1\n      0x20\n      add\n      keccak256\n        /* \"contracts/MotherContract.sol\":311:375  bytes32 proposalID = keccak256(bytes(smartContract.getValues())) */\n      swap1\n      pop\n        /* \"contracts/MotherContract.sol\":418:433  contractAddress */\n      dup3\n        /* \"contracts/MotherContract.sol\":384:403  userContractAddress */\n      0x00\n        /* \"contracts/MotherContract.sol\":384:415  userContractAddress[proposalID] */\n      dup1\n        /* \"contracts/MotherContract.sol\":404:414  proposalID */\n      dup4\n        /* \"contracts/MotherContract.sol\":384:415  userContractAddress[proposalID] */\n      dup2\n      mstore\n      0x20\n      add\n      swap1\n      dup2\n      mstore\n      0x20\n      add\n      0x00\n      keccak256\n      0x00\n        /* \"contracts/MotherContract.sol\":384:433  userContractAddress[proposalID] = contractAddress */\n      0x0100\n      exp\n      dup2\n      sload\n      dup2\n      0xffffffffffffffffffffffffffffffffffffffff\n      mul\n      not\n      and\n      swap1\n      dup4\n      0xffffffffffffffffffffffffffffffffffffffff\n      and\n      mul\n      or\n      swap1\n      sstore\n      pop\n        /* \"contracts/MotherContract.sol\":225:441  {\r... */\n      pop\n      pop\n        /* \"contracts/MotherContract.sol\":159:441  function createContractInstance(address contractAddress) external {\r... */\n      pop\n      jump\t// out\n        /* \"contracts/MotherContract.sol\":98:152  mapping(bytes32 => address) public userContractAddress */\n    tag_19:\n      mstore(0x20, 0x00)\n      dup1\n      0x00\n      mstore\n      keccak256(0x00, 0x40)\n      0x00\n      swap2\n      pop\n      sload\n      swap1\n      0x0100\n      exp\n      swap1\n      div\n      0xffffffffffffffffffffffffffffffffffffffff\n      and\n      dup2\n      jump\t// out\n        /* \"#utility.yul\":7:419   */\n    tag_29:\n        /* \"#utility.yul\":85:90   */\n      0x00\n        /* \"#utility.yul\":110:176   */\n      tag_31\n        /* \"#utility.yul\":126:175   */\n      tag_32\n        /* \"#utility.yul\":168:174   */\n      dup5\n        /* \"#utility.yul\":126:175   */\n      tag_33\n      jump\t// in\n    tag_32:\n        /* \"#utility.yul\":110:176   */\n      tag_34\n      jump\t// in\n    tag_31:\n        /* \"#utility.yul\":101:176   */\n      swap1\n      pop\n        /* \"#utility.yul\":199:205   */\n      dup3\n        /* \"#utility.yul\":192:197   */\n      dup2\n        /* \"#utility.yul\":185:206   */\n      mstore\n        /* \"#utility.yul\":237:241   */\n      0x20\n        /* \"#utility.yul\":230:235   */\n      dup2\n        /* \"#utility.yul\":226:242   */\n      add\n        /* \"#utility.yul\":275:278   */\n      dup5\n        /* \"#utility.yul\":266:272   */\n      dup5\n        /* \"#utility.yul\":261:264   */\n      dup5\n        /* \"#utility.yul\":257:273   */\n      add\n        /* \"#utility.yul\":254:279   */\n      gt\n        /* \"#utility.yul\":251:363   */\n      iszero\n      tag_35\n      jumpi\n        /* \"#utility.yul\":282:361   */\n      tag_36\n      tag_37\n      jump\t// in\n    tag_36:\n        /* \"#utility.yul\":251:363   */\n    tag_35:\n        /* \"#utility.yul\":372:413   */\n      tag_38\n        /* \"#utility.yul\":406:412   */\n      dup5\n        /* \"#utility.yul\":401:404   */\n      dup3\n        /* \"#utility.yul\":396:399   */\n      dup6\n        /* \"#utility.yul\":372:413   */\n      tag_39\n      jump\t// in\n    tag_38:\n        /* \"#utility.yul\":91:419   */\n      pop\n        /* \"#utility.yul\":7:419   */\n      swap4\n      swap3\n      pop\n      pop\n      pop\n      jump\t// out\n        /* \"#utility.yul\":425:846   */\n    tag_40:\n        /* \"#utility.yul\":514:519   */\n      0x00\n        /* \"#utility.yul\":539:605   */\n      tag_42\n        /* \"#utility.yul\":555:604   */\n      tag_43\n        /* \"#utility.yul\":597:603   */\n      dup5\n        /* \"#utility.yul\":555:604   */\n      tag_33\n      jump\t// in\n    tag_43:\n        /* \"#utility.yul\":539:605   */\n      tag_34\n      jump\t// in\n    tag_42:\n        /* \"#utility.yul\":530:605   */\n      swap1\n      pop\n        /* \"#utility.yul\":628:634   */\n      dup3\n        /* \"#utility.yul\":621:626   */\n      dup2\n        /* \"#utility.yul\":614:635   */\n      mstore\n        /* \"#utility.yul\":666:670   */\n      0x20\n        /* \"#utility.yul\":659:664   */\n      dup2\n        /* \"#utility.yul\":655:671   */\n      add\n        /* \"#utility.yul\":704:707   */\n      dup5\n        /* \"#utility.yul\":695:701   */\n      dup5\n        /* \"#utility.yul\":690:693   */\n      dup5\n        /* \"#utility.yul\":686:702   */\n      add\n        /* \"#utility.yul\":683:708   */\n      gt\n        /* \"#utility.yul\":680:792   */\n      iszero\n      tag_44\n      jumpi\n        /* \"#utility.yul\":711:790   */\n      tag_45\n      tag_37\n      jump\t// in\n    tag_45:\n        /* \"#utility.yul\":680:792   */\n    tag_44:\n        /* \"#utility.yul\":801:840   */\n      tag_46\n        /* \"#utility.yul\":833:839   */\n      dup5\n        /* \"#utility.yul\":828:831   */\n      dup3\n        /* \"#utility.yul\":823:826   */\n      dup6\n        /* \"#utility.yul\":801:840   */\n      tag_47\n      jump\t// in\n    tag_46:\n        /* \"#utility.yul\":520:846   */\n      pop\n        /* \"#utility.yul\":425:846   */\n      swap4\n      swap3\n      pop\n      pop\n      pop\n      jump\t// out\n        /* \"#utility.yul\":852:991   */\n    tag_48:\n        /* \"#utility.yul\":898:903   */\n      0x00\n        /* \"#utility.yul\":936:942   */\n      dup2\n        /* \"#utility.yul\":923:943   */\n      calldataload\n        /* \"#utility.yul\":914:943   */\n      swap1\n      pop\n        /* \"#utility.yul\":952:985   */\n      tag_50\n        /* \"#utility.yul\":979:984   */\n      dup2\n        /* \"#utility.yul\":952:985   */\n      tag_51\n      jump\t// in\n    tag_50:\n        /* \"#utility.yul\":852:991   */\n      swap3\n      swap2\n      pop\n      pop\n      jump\t// out\n        /* \"#utility.yul\":997:1136   */\n    tag_52:\n        /* \"#utility.yul\":1043:1048   */\n      0x00\n        /* \"#utility.yul\":1081:1087   */\n      dup2\n        /* \"#utility.yul\":1068:1088   */\n      calldataload\n        /* \"#utility.yul\":1059:1088   */\n      swap1\n      pop\n        /* \"#utility.yul\":1097:1130   */\n      tag_54\n        /* \"#utility.yul\":1124:1129   */\n      dup2\n        /* \"#utility.yul\":1097:1130   */\n      tag_55\n      jump\t// in\n    tag_54:\n        /* \"#utility.yul\":997:1136   */\n      swap3\n      swap2\n      pop\n      pop\n      jump\t// out\n        /* \"#utility.yul\":1156:1496   */\n    tag_56:\n        /* \"#utility.yul\":1212:1217   */\n      0x00\n        /* \"#utility.yul\":1261:1264   */\n      dup3\n        /* \"#utility.yul\":1254:1258   */\n      0x1f\n        /* \"#utility.yul\":1246:1252   */\n      dup4\n        /* \"#utility.yul\":1242:1259   */\n      add\n        /* \"#utility.yul\":1238:1265   */\n      slt\n        /* \"#utility.yul\":1228:1350   */\n      tag_58\n      jumpi\n        /* \"#utility.yul\":1269:1348   */\n      tag_59\n      tag_60\n      jump\t// in\n    tag_59:\n        /* \"#utility.yul\":1228:1350   */\n    tag_58:\n        /* \"#utility.yul\":1386:1392   */\n      dup2\n        /* \"#utility.yul\":1373:1393   */\n      calldataload\n        /* \"#utility.yul\":1411:1490   */\n      tag_61\n        /* \"#utility.yul\":1486:1489   */\n      dup5\n        /* \"#utility.yul\":1478:1484   */\n      dup3\n        /* \"#utility.yul\":1471:1475   */\n      0x20\n        /* \"#utility.yul\":1463:1469   */\n      dup7\n        /* \"#utility.yul\":1459:1476   */\n      add\n        /* \"#utility.yul\":1411:1490   */\n      tag_29\n      jump\t// in\n    tag_61:\n        /* \"#utility.yul\":1402:1490   */\n      swap2\n      pop\n        /* \"#utility.yul\":1218:1496   */\n      pop\n        /* \"#utility.yul\":1156:1496   */\n      swap3\n      swap2\n      pop\n      pop\n      jump\t// out\n        /* \"#utility.yul\":1516:1871   */\n    tag_62:\n        /* \"#utility.yul\":1583:1588   */\n      0x00\n        /* \"#utility.yul\":1632:1635   */\n      dup3\n        /* \"#utility.yul\":1625:1629   */\n      0x1f\n        /* \"#utility.yul\":1617:1623   */\n      dup4\n        /* \"#utility.yul\":1613:1630   */\n      add\n        /* \"#utility.yul\":1609:1636   */\n      slt\n        /* \"#utility.yul\":1599:1721   */\n      tag_64\n      jumpi\n        /* \"#utility.yul\":1640:1719   */\n      tag_65\n      tag_60\n      jump\t// in\n    tag_65:\n        /* \"#utility.yul\":1599:1721   */\n    tag_64:\n        /* \"#utility.yul\":1750:1756   */\n      dup2\n        /* \"#utility.yul\":1744:1757   */\n      mload\n        /* \"#utility.yul\":1775:1865   */\n      tag_66\n        /* \"#utility.yul\":1861:1864   */\n      dup5\n        /* \"#utility.yul\":1853:1859   */\n      dup3\n        /* \"#utility.yul\":1846:1850   */\n      0x20\n        /* \"#utility.yul\":1838:1844   */\n      dup7\n        /* \"#utility.yul\":1834:1851   */\n      add\n        /* \"#utility.yul\":1775:1865   */\n      tag_40\n      jump\t// in\n    tag_66:\n        /* \"#utility.yul\":1766:1865   */\n      swap2\n      pop\n        /* \"#utility.yul\":1589:1871   */\n      pop\n        /* \"#utility.yul\":1516:1871   */\n      swap3\n      swap2\n      pop\n      pop\n      jump\t// out\n        /* \"#utility.yul\":1877:2206   */\n    tag_14:\n        /* \"#utility.yul\":1936:1942   */\n      0x00\n        /* \"#utility.yul\":1985:1987   */\n      0x20\n        /* \"#utility.yul\":1973:1982   */\n      dup3\n        /* \"#utility.yul\":1964:1971   */\n      dup5\n        /* \"#utility.yul\":1960:1983   */\n      sub\n        /* \"#utility.yul\":1956:1988   */\n      slt\n        /* \"#utility.yul\":1953:2072   */\n      iszero\n      tag_68\n      jumpi\n        /* \"#utility.yul\":1991:2070   */\n      tag_69\n      tag_70\n      jump\t// in\n    tag_69:\n        /* \"#utility.yul\":1953:2072   */\n    tag_68:\n        /* \"#utility.yul\":2111:2112   */\n      0x00\n        /* \"#utility.yul\":2136:2189   */\n      tag_71\n        /* \"#utility.yul\":2181:2188   */\n      dup5\n        /* \"#utility.yul\":2172:2178   */\n      dup3\n        /* \"#utility.yul\":2161:2170   */\n      dup6\n        /* \"#utility.yul\":2157:2179   */\n      add\n        /* \"#utility.yul\":2136:2189   */\n      tag_48\n      jump\t// in\n    tag_71:\n        /* \"#utility.yul\":2126:2189   */\n      swap2\n      pop\n        /* \"#utility.yul\":2082:2199   */\n      pop\n        /* \"#utility.yul\":1877:2206   */\n      swap3\n      swap2\n      pop\n      pop\n      jump\t// out\n        /* \"#utility.yul\":2212:2541   */\n    tag_18:\n        /* \"#utility.yul\":2271:2277   */\n      0x00\n        /* \"#utility.yul\":2320:2322   */\n      0x20\n        /* \"#utility.yul\":2308:2317   */\n      dup3\n        /* \"#utility.yul\":2299:2306   */\n      dup5\n        /* \"#utility.yul\":2295:2318   */\n      sub\n        /* \"#utility.yul\":2291:2323   */\n      slt\n        /* \"#utility.yul\":2288:2407   */\n      iszero\n      tag_73\n      jumpi\n        /* \"#utility.yul\":2326:2405   */\n      tag_74\n      tag_70\n      jump\t// in\n    tag_74:\n        /* \"#utility.yul\":2288:2407   */\n    tag_73:\n        /* \"#utility.yul\":2446:2447   */\n      0x00\n        /* \"#utility.yul\":2471:2524   */\n      tag_75\n        /* \"#utility.yul\":2516:2523   */\n      dup5\n        /* \"#utility.yul\":2507:2513   */\n      dup3\n        /* \"#utility.yul\":2496:2505   */\n      dup6\n        /* \"#utility.yul\":2492:2514   */\n      add\n        /* \"#utility.yul\":2471:2524   */\n      tag_52\n      jump\t// in\n    tag_75:\n        /* \"#utility.yul\":2461:2524   */\n      swap2\n      pop\n        /* \"#utility.yul\":2417:2534   */\n      pop\n        /* \"#utility.yul\":2212:2541   */\n      swap3\n      swap2\n      pop\n      pop\n      jump\t// out\n        /* \"#utility.yul\":2547:3056   */\n    tag_8:\n        /* \"#utility.yul\":2616:2622   */\n      0x00\n        /* \"#utility.yul\":2665:2667   */\n      0x20\n        /* \"#utility.yul\":2653:2662   */\n      dup3\n        /* \"#utility.yul\":2644:2651   */\n      dup5\n        /* \"#utility.yul\":2640:2663   */\n      sub\n        /* \"#utility.yul\":2636:2668   */\n      slt\n        /* \"#utility.yul\":2633:2752   */\n      iszero\n      tag_77\n      jumpi\n        /* \"#utility.yul\":2671:2750   */\n      tag_78\n      tag_70\n      jump\t// in\n    tag_78:\n        /* \"#utility.yul\":2633:2752   */\n    tag_77:\n        /* \"#utility.yul\":2819:2820   */\n      0x00\n        /* \"#utility.yul\":2808:2817   */\n      dup3\n        /* \"#utility.yul\":2804:2821   */\n      add\n        /* \"#utility.yul\":2791:2822   */\n      calldataload\n        /* \"#utility.yul\":2849:2867   */\n      0xffffffffffffffff\n        /* \"#utility.yul\":2841:2847   */\n      dup2\n        /* \"#utility.yul\":2838:2868   */\n      gt\n        /* \"#utility.yul\":2835:2952   */\n      iszero\n      tag_79\n      jumpi\n        /* \"#utility.yul\":2871:2950   */\n      tag_80\n      tag_81\n      jump\t// in\n    tag_80:\n        /* \"#utility.yul\":2835:2952   */\n    tag_79:\n        /* \"#utility.yul\":2976:3039   */\n      tag_82\n        /* \"#utility.yul\":3031:3038   */\n      dup5\n        /* \"#utility.yul\":3022:3028   */\n      dup3\n        /* \"#utility.yul\":3011:3020   */\n      dup6\n        /* \"#utility.yul\":3007:3029   */\n      add\n        /* \"#utility.yul\":2976:3039   */\n      tag_56\n      jump\t// in\n    tag_82:\n        /* \"#utility.yul\":2966:3039   */\n      swap2\n      pop\n        /* \"#utility.yul\":2762:3049   */\n      pop\n        /* \"#utility.yul\":2547:3056   */\n      swap3\n      swap2\n      pop\n      pop\n      jump\t// out\n        /* \"#utility.yul\":3062:3586   */\n    tag_27:\n        /* \"#utility.yul\":3142:3148   */\n      0x00\n        /* \"#utility.yul\":3191:3193   */\n      0x20\n        /* \"#utility.yul\":3179:3188   */\n      dup3\n        /* \"#utility.yul\":3170:3177   */\n      dup5\n        /* \"#utility.yul\":3166:3189   */\n      sub\n        /* \"#utility.yul\":3162:3194   */\n      slt\n        /* \"#utility.yul\":3159:3278   */\n      iszero\n      tag_84\n      jumpi\n        /* \"#utility.yul\":3197:3276   */\n      tag_85\n      tag_70\n      jump\t// in\n    tag_85:\n        /* \"#utility.yul\":3159:3278   */\n    tag_84:\n        /* \"#utility.yul\":3338:3339   */\n      0x00\n        /* \"#utility.yul\":3327:3336   */\n      dup3\n        /* \"#utility.yul\":3323:3340   */\n      add\n        /* \"#utility.yul\":3317:3341   */\n      mload\n        /* \"#utility.yul\":3368:3386   */\n      0xffffffffffffffff\n        /* \"#utility.yul\":3360:3366   */\n      dup2\n        /* \"#utility.yul\":3357:3387   */\n      gt\n        /* \"#utility.yul\":3354:3471   */\n      iszero\n      tag_86\n      jumpi\n        /* \"#utility.yul\":3390:3469   */\n      tag_87\n      tag_81\n      jump\t// in\n    tag_87:\n        /* \"#utility.yul\":3354:3471   */\n    tag_86:\n        /* \"#utility.yul\":3495:3569   */\n      tag_88\n        /* \"#utility.yul\":3561:3568   */\n      dup5\n        /* \"#utility.yul\":3552:3558   */\n      dup3\n        /* \"#utility.yul\":3541:3550   */\n      dup6\n        /* \"#utility.yul\":3537:3559   */\n      add\n        /* \"#utility.yul\":3495:3569   */\n      tag_62\n      jump\t// in\n    tag_88:\n        /* \"#utility.yul\":3485:3569   */\n      swap2\n      pop\n        /* \"#utility.yul\":3288:3579   */\n      pop\n        /* \"#utility.yul\":3062:3586   */\n      swap3\n      swap2\n      pop\n      pop\n      jump\t// out\n        /* \"#utility.yul\":3592:3710   */\n    tag_89:\n        /* \"#utility.yul\":3679:3703   */\n      tag_91\n        /* \"#utility.yul\":3697:3702   */\n      dup2\n        /* \"#utility.yul\":3679:3703   */\n      tag_92\n      jump\t// in\n    tag_91:\n        /* \"#utility.yul\":3674:3677   */\n      dup3\n        /* \"#utility.yul\":3667:3704   */\n      mstore\n        /* \"#utility.yul\":3592:3710   */\n      pop\n      pop\n      jump\t// out\n        /* \"#utility.yul\":3716:3938   */\n    tag_11:\n        /* \"#utility.yul\":3809:3813   */\n      0x00\n        /* \"#utility.yul\":3847:3849   */\n      0x20\n        /* \"#utility.yul\":3836:3845   */\n      dup3\n        /* \"#utility.yul\":3832:3850   */\n      add\n        /* \"#utility.yul\":3824:3850   */\n      swap1\n      pop\n        /* \"#utility.yul\":3860:3931   */\n      tag_94\n        /* \"#utility.yul\":3928:3929   */\n      0x00\n        /* \"#utility.yul\":3917:3926   */\n      dup4\n        /* \"#utility.yul\":3913:3930   */\n      add\n        /* \"#utility.yul\":3904:3910   */\n      dup5\n        /* \"#utility.yul\":3860:3931   */\n      tag_89\n      jump\t// in\n    tag_94:\n        /* \"#utility.yul\":3716:3938   */\n      swap3\n      swap2\n      pop\n      pop\n      jump\t// out\n        /* \"#utility.yul\":3944:4073   */\n    tag_34:\n        /* \"#utility.yul\":3978:3984   */\n      0x00\n        /* \"#utility.yul\":4005:4025   */\n      tag_96\n      tag_97\n      jump\t// in\n    tag_96:\n        /* \"#utility.yul\":3995:4025   */\n      swap1\n      pop\n        /* \"#utility.yul\":4034:4067   */\n      tag_98\n        /* \"#utility.yul\":4062:4066   */\n      dup3\n        /* \"#utility.yul\":4054:4060   */\n      dup3\n        /* \"#utility.yul\":4034:4067   */\n      tag_99\n      jump\t// in\n    tag_98:\n        /* \"#utility.yul\":3944:4073   */\n      swap2\n      swap1\n      pop\n      jump\t// out\n        /* \"#utility.yul\":4079:4154   */\n    tag_97:\n        /* \"#utility.yul\":4112:4118   */\n      0x00\n        /* \"#utility.yul\":4145:4147   */\n      0x40\n        /* \"#utility.yul\":4139:4148   */\n      mload\n        /* \"#utility.yul\":4129:4148   */\n      swap1\n      pop\n        /* \"#utility.yul\":4079:4154   */\n      swap1\n      jump\t// out\n        /* \"#utility.yul\":4160:4468   */\n    tag_33:\n        /* \"#utility.yul\":4222:4226   */\n      0x00\n        /* \"#utility.yul\":4312:4330   */\n      0xffffffffffffffff\n        /* \"#utility.yul\":4304:4310   */\n      dup3\n        /* \"#utility.yul\":4301:4331   */\n      gt\n        /* \"#utility.yul\":4298:4354   */\n      iszero\n      tag_102\n      jumpi\n        /* \"#utility.yul\":4334:4352   */\n      tag_103\n      tag_104\n      jump\t// in\n    tag_103:\n        /* \"#utility.yul\":4298:4354   */\n    tag_102:\n        /* \"#utility.yul\":4372:4401   */\n      tag_105\n        /* \"#utility.yul\":4394:4400   */\n      dup3\n        /* \"#utility.yul\":4372:4401   */\n      tag_106\n      jump\t// in\n    tag_105:\n        /* \"#utility.yul\":4364:4401   */\n      swap1\n      pop\n        /* \"#utility.yul\":4456:4460   */\n      0x20\n        /* \"#utility.yul\":4450:4454   */\n      dup2\n        /* \"#utility.yul\":4446:4461   */\n      add\n        /* \"#utility.yul\":4438:4461   */\n      swap1\n      pop\n        /* \"#utility.yul\":4160:4468   */\n      swap2\n      swap1\n      pop\n      jump\t// out\n        /* \"#utility.yul\":4474:4570   */\n    tag_92:\n        /* \"#utility.yul\":4511:4518   */\n      0x00\n        /* \"#utility.yul\":4540:4564   */\n      tag_108\n        /* \"#utility.yul\":4558:4563   */\n      dup3\n        /* \"#utility.yul\":4540:4564   */\n      tag_109\n      jump\t// in\n    tag_108:\n        /* \"#utility.yul\":4529:4564   */\n      swap1\n      pop\n        /* \"#utility.yul\":4474:4570   */\n      swap2\n      swap1\n      pop\n      jump\t// out\n        /* \"#utility.yul\":4576:4653   */\n    tag_110:\n        /* \"#utility.yul\":4613:4620   */\n      0x00\n        /* \"#utility.yul\":4642:4647   */\n      dup2\n        /* \"#utility.yul\":4631:4647   */\n      swap1\n      pop\n        /* \"#utility.yul\":4576:4653   */\n      swap2\n      swap1\n      pop\n      jump\t// out\n        /* \"#utility.yul\":4659:4785   */\n    tag_109:\n        /* \"#utility.yul\":4696:4703   */\n      0x00\n        /* \"#utility.yul\":4736:4778   */\n      0xffffffffffffffffffffffffffffffffffffffff\n        /* \"#utility.yul\":4729:4734   */\n      dup3\n        /* \"#utility.yul\":4725:4779   */\n      and\n        /* \"#utility.yul\":4714:4779   */\n      swap1\n      pop\n        /* \"#utility.yul\":4659:4785   */\n      swap2\n      swap1\n      pop\n      jump\t// out\n        /* \"#utility.yul\":4791:4945   */\n    tag_39:\n        /* \"#utility.yul\":4875:4881   */\n      dup3\n        /* \"#utility.yul\":4870:4873   */\n      dup2\n        /* \"#utility.yul\":4865:4868   */\n      dup4\n        /* \"#utility.yul\":4852:4882   */\n      calldatacopy\n        /* \"#utility.yul\":4937:4938   */\n      0x00\n        /* \"#utility.yul\":4928:4934   */\n      dup4\n        /* \"#utility.yul\":4923:4926   */\n      dup4\n        /* \"#utility.yul\":4919:4935   */\n      add\n        /* \"#utility.yul\":4912:4939   */\n      mstore\n        /* \"#utility.yul\":4791:4945   */\n      pop\n      pop\n      pop\n      jump\t// out\n        /* \"#utility.yul\":4951:5258   */\n    tag_47:\n        /* \"#utility.yul\":5019:5020   */\n      0x00\n        /* \"#utility.yul\":5029:5142   */\n    tag_115:\n        /* \"#utility.yul\":5043:5049   */\n      dup4\n        /* \"#utility.yul\":5040:5041   */\n      dup2\n        /* \"#utility.yul\":5037:5050   */\n      lt\n        /* \"#utility.yul\":5029:5142   */\n      iszero\n      tag_117\n      jumpi\n        /* \"#utility.yul\":5128:5129   */\n      dup1\n        /* \"#utility.yul\":5123:5126   */\n      dup3\n        /* \"#utility.yul\":5119:5130   */\n      add\n        /* \"#utility.yul\":5113:5131   */\n      mload\n        /* \"#utility.yul\":5109:5110   */\n      dup2\n        /* \"#utility.yul\":5104:5107   */\n      dup5\n        /* \"#utility.yul\":5100:5111   */\n      add\n        /* \"#utility.yul\":5093:5132   */\n      mstore\n        /* \"#utility.yul\":5065:5067   */\n      0x20\n        /* \"#utility.yul\":5062:5063   */\n      dup2\n        /* \"#utility.yul\":5058:5068   */\n      add\n        /* \"#utility.yul\":5053:5068   */\n      swap1\n      pop\n        /* \"#utility.yul\":5029:5142   */\n      jump(tag_115)\n    tag_117:\n        /* \"#utility.yul\":5160:5166   */\n      dup4\n        /* \"#utility.yul\":5157:5158   */\n      dup2\n        /* \"#utility.yul\":5154:5167   */\n      gt\n        /* \"#utility.yul\":5151:5252   */\n      iszero\n      tag_118\n      jumpi\n        /* \"#utility.yul\":5240:5241   */\n      0x00\n        /* \"#utility.yul\":5231:5237   */\n      dup5\n        /* \"#utility.yul\":5226:5229   */\n      dup5\n        /* \"#utility.yul\":5222:5238   */\n      add\n        /* \"#utility.yul\":5215:5242   */\n      mstore\n        /* \"#utility.yul\":5151:5252   */\n    tag_118:\n        /* \"#utility.yul\":5000:5258   */\n      pop\n        /* \"#utility.yul\":4951:5258   */\n      pop\n      pop\n      pop\n      jump\t// out\n        /* \"#utility.yul\":5264:5545   */\n    tag_99:\n        /* \"#utility.yul\":5347:5374   */\n      tag_120\n        /* \"#utility.yul\":5369:5373   */\n      dup3\n        /* \"#utility.yul\":5347:5374   */\n      tag_106\n      jump\t// in\n    tag_120:\n        /* \"#utility.yul\":5339:5345   */\n      dup2\n        /* \"#utility.yul\":5335:5375   */\n      add\n        /* \"#utility.yul\":5477:5483   */\n      dup2\n        /* \"#utility.yul\":5465:5475   */\n      dup2\n        /* \"#utility.yul\":5462:5484   */\n      lt\n        /* \"#utility.yul\":5441:5459   */\n      0xffffffffffffffff\n        /* \"#utility.yul\":5429:5439   */\n      dup3\n        /* \"#utility.yul\":5426:5460   */\n      gt\n        /* \"#utility.yul\":5423:5485   */\n      or\n        /* \"#utility.yul\":5420:5508   */\n      iszero\n      tag_121\n      jumpi\n        /* \"#utility.yul\":5488:5506   */\n      tag_122\n      tag_104\n      jump\t// in\n    tag_122:\n        /* \"#utility.yul\":5420:5508   */\n    tag_121:\n        /* \"#utility.yul\":5528:5538   */\n      dup1\n        /* \"#utility.yul\":5524:5526   */\n      0x40\n        /* \"#utility.yul\":5517:5539   */\n      mstore\n        /* \"#utility.yul\":5307:5545   */\n      pop\n        /* \"#utility.yul\":5264:5545   */\n      pop\n      pop\n      jump\t// out\n        /* \"#utility.yul\":5551:5731   */\n    tag_104:\n        /* \"#utility.yul\":5599:5676   */\n      0x4e487b7100000000000000000000000000000000000000000000000000000000\n        /* \"#utility.yul\":5596:5597   */\n      0x00\n        /* \"#utility.yul\":5589:5677   */\n      mstore\n        /* \"#utility.yul\":5696:5700   */\n      0x41\n        /* \"#utility.yul\":5693:5694   */\n      0x04\n        /* \"#utility.yul\":5686:5701   */\n      mstore\n        /* \"#utility.yul\":5720:5724   */\n      0x24\n        /* \"#utility.yul\":5717:5718   */\n      0x00\n        /* \"#utility.yul\":5710:5725   */\n      revert\n        /* \"#utility.yul\":5737:5854   */\n    tag_60:\n        /* \"#utility.yul\":5846:5847   */\n      0x00\n        /* \"#utility.yul\":5843:5844   */\n      dup1\n        /* \"#utility.yul\":5836:5848   */\n      revert\n        /* \"#utility.yul\":5860:5977   */\n    tag_37:\n        /* \"#utility.yul\":5969:5970   */\n      0x00\n        /* \"#utility.yul\":5966:5967   */\n      dup1\n        /* \"#utility.yul\":5959:5971   */\n      revert\n        /* \"#utility.yul\":5983:6100   */\n    tag_81:\n        /* \"#utility.yul\":6092:6093   */\n      0x00\n        /* \"#utility.yul\":6089:6090   */\n      dup1\n        /* \"#utility.yul\":6082:6094   */\n      revert\n        /* \"#utility.yul\":6106:6223   */\n    tag_70:\n        /* \"#utility.yul\":6215:6216   */\n      0x00\n        /* \"#utility.yul\":6212:6213   */\n      dup1\n        /* \"#utility.yul\":6205:6217   */\n      revert\n        /* \"#utility.yul\":6229:6331   */\n    tag_106:\n        /* \"#utility.yul\":6270:6276   */\n      0x00\n        /* \"#utility.yul\":6321:6323   */\n      0x1f\n        /* \"#utility.yul\":6317:6324   */\n      not\n        /* \"#utility.yul\":6312:6314   */\n      0x1f\n        /* \"#utility.yul\":6305:6310   */\n      dup4\n        /* \"#utility.yul\":6301:6315   */\n      add\n        /* \"#utility.yul\":6297:6325   */\n      and\n        /* \"#utility.yul\":6287:6325   */\n      swap1\n      pop\n        /* \"#utility.yul\":6229:6331   */\n      swap2\n      swap1\n      pop\n      jump\t// out\n        /* \"#utility.yul\":6337:6459   */\n    tag_51:\n        /* \"#utility.yul\":6410:6434   */\n      tag_130\n        /* \"#utility.yul\":6428:6433   */\n      dup2\n        /* \"#utility.yul\":6410:6434   */\n      tag_92\n      jump\t// in\n    tag_130:\n        /* \"#utility.yul\":6403:6408   */\n      dup2\n        /* \"#utility.yul\":6400:6435   */\n      eq\n        /* \"#utility.yul\":6390:6453   */\n      tag_131\n      jumpi\n        /* \"#utility.yul\":6449:6450   */\n      0x00\n        /* \"#utility.yul\":6446:6447   */\n      dup1\n        /* \"#utility.yul\":6439:6451   */\n      revert\n        /* \"#utility.yul\":6390:6453   */\n    tag_131:\n        /* \"#utility.yul\":6337:6459   */\n      pop\n      jump\t// out\n        /* \"#utility.yul\":6465:6587   */\n    tag_55:\n        /* \"#utility.yul\":6538:6562   */\n      tag_133\n        /* \"#utility.yul\":6556:6561   */\n      dup2\n        /* \"#utility.yul\":6538:6562   */\n      tag_110\n      jump\t// in\n    tag_133:\n        /* \"#utility.yul\":6531:6536   */\n      dup2\n        /* \"#utility.yul\":6528:6563   */\n      eq\n        /* \"#utility.yul\":6518:6581   */\n      tag_134\n      jumpi\n        /* \"#utility.yul\":6577:6578   */\n      0x00\n        /* \"#utility.yul\":6574:6575   */\n      dup1\n        /* \"#utility.yul\":6567:6579   */\n      revert\n        /* \"#utility.yul\":6518:6581   */\n    tag_134:\n        /* \"#utility.yul\":6465:6587   */\n      pop\n      jump\t// out\n\n    auxdata: 0xa26469706673582212206f7fbb43088b28928a099eee7f3ecb5471542868b7495dfff7dfb1079437a16c64736f6c63430008070033\n}\n",
				"bytecode": {
					"linkReferences": {},
					"object": "608060405234801561001057600080fd5b506105fe806100206000396000f3fe608060405234801561001057600080fd5b50600436106100415760003560e01c806304433bbc14610046578063d785403c14610076578063e9c3028814610092575b600080fd5b610060600480360381019061005b9190610385565b6100c2565b60405161006d9190610426565b60405180910390f35b610090600480360381019061008b919061032b565b610105565b005b6100ac60048036038101906100a79190610358565b6101ee565b6040516100b99190610426565b60405180910390f35b60008060008380519060200120815260200190815260200160002060009054906101000a900473ffffffffffffffffffffffffffffffffffffffff169050919050565b600081905060008173ffffffffffffffffffffffffffffffffffffffff166319eb4a906040518163ffffffff1660e01b815260040160006040518083038186803b15801561015257600080fd5b505afa158015610166573d6000803e3d6000fd5b505050506040513d6000823e3d601f19601f8201168201806040525081019061018f91906103ce565b8051906020012090508260008083815260200190815260200160002060006101000a81548173ffffffffffffffffffffffffffffffffffffffff021916908373ffffffffffffffffffffffffffffffffffffffff160217905550505050565b60006020528060005260406000206000915054906101000a900473ffffffffffffffffffffffffffffffffffffffff1681565b600061023461022f84610466565b610441565b9050828152602081018484840111156102505761024f61057a565b5b61025b8482856104d3565b509392505050565b600061027661027184610466565b610441565b9050828152602081018484840111156102925761029161057a565b5b61029d8482856104e2565b509392505050565b6000813590506102b48161059a565b92915050565b6000813590506102c9816105b1565b92915050565b600082601f8301126102e4576102e3610575565b5b81356102f4848260208601610221565b91505092915050565b600082601f83011261031257610311610575565b5b8151610322848260208601610263565b91505092915050565b60006020828403121561034157610340610584565b5b600061034f848285016102a5565b91505092915050565b60006020828403121561036e5761036d610584565b5b600061037c848285016102ba565b91505092915050565b60006020828403121561039b5761039a610584565b5b600082013567ffffffffffffffff8111156103b9576103b861057f565b5b6103c5848285016102cf565b91505092915050565b6000602082840312156103e4576103e3610584565b5b600082015167ffffffffffffffff8111156104025761040161057f565b5b61040e848285016102fd565b91505092915050565b61042081610497565b82525050565b600060208201905061043b6000830184610417565b92915050565b600061044b61045c565b90506104578282610515565b919050565b6000604051905090565b600067ffffffffffffffff82111561048157610480610546565b5b61048a82610589565b9050602081019050919050565b60006104a2826104b3565b9050919050565b6000819050919050565b600073ffffffffffffffffffffffffffffffffffffffff82169050919050565b82818337600083830152505050565b60005b838110156105005780820151818401526020810190506104e5565b8381111561050f576000848401525b50505050565b61051e82610589565b810181811067ffffffffffffffff8211171561053d5761053c610546565b5b80604052505050565b7f4e487b7100000000000000000000000000000000000000000000000000000000600052604160045260246000fd5b600080fd5b600080fd5b600080fd5b600080fd5b6000601f19601f8301169050919050565b6105a381610497565b81146105ae57600080fd5b50565b6105ba816104a9565b81146105c557600080fd5b5056fea26469706673582212206f7fbb43088b28928a099eee7f3ecb5471542868b7495dfff7dfb1079437a16c64736f6c63430008070033",
					"opcodes": "PUSH1 0x80 PUSH1 0x40 MSTORE CALLVALUE DUP1 ISZERO PUSH2 0x10 JUMPI PUSH1 0x0 DUP1 REVERT JUMPDEST POP PUSH2 0x5FE DUP1 PUSH2 0x20 PUSH1 0x0 CODECOPY PUSH1 0x0 RETURN INVALID PUSH1 0x80 PUSH1 0x40 MSTORE CALLVALUE DUP1 ISZERO PUSH2 0x10 JUMPI PUSH1 0x0 DUP1 REVERT JUMPDEST POP PUSH1 0x4 CALLDATASIZE LT PUSH2 0x41 JUMPI PUSH1 0x0 CALLDATALOAD PUSH1 0xE0 SHR DUP1 PUSH4 0x4433BBC EQ PUSH2 0x46 JUMPI DUP1 PUSH4 0xD785403C EQ PUSH2 0x76 JUMPI DUP1 PUSH4 0xE9C30288 EQ PUSH2 0x92 JUMPI JUMPDEST PUSH1 0x0 DUP1 REVERT JUMPDEST PUSH2 0x60 PUSH1 0x4 DUP1 CALLDATASIZE SUB DUP2 ADD SWAP1 PUSH2 0x5B SWAP2 SWAP1 PUSH2 0x385 JUMP JUMPDEST PUSH2 0xC2 JUMP JUMPDEST PUSH1 0x40 MLOAD PUSH2 0x6D SWAP2 SWAP1 PUSH2 0x426 JUMP JUMPDEST PUSH1 0x40 MLOAD DUP1 SWAP2 SUB SWAP1 RETURN JUMPDEST PUSH2 0x90 PUSH1 0x4 DUP1 CALLDATASIZE SUB DUP2 ADD SWAP1 PUSH2 0x8B SWAP2 SWAP1 PUSH2 0x32B JUMP JUMPDEST PUSH2 0x105 JUMP JUMPDEST STOP JUMPDEST PUSH2 0xAC PUSH1 0x4 DUP1 CALLDATASIZE SUB DUP2 ADD SWAP1 PUSH2 0xA7 SWAP2 SWAP1 PUSH2 0x358 JUMP JUMPDEST PUSH2 0x1EE JUMP JUMPDEST PUSH1 0x40 MLOAD PUSH2 0xB9 SWAP2 SWAP1 PUSH2 0x426 JUMP JUMPDEST PUSH1 0x40 MLOAD DUP1 SWAP2 SUB SWAP1 RETURN JUMPDEST PUSH1 0x0 DUP1 PUSH1 0x0 DUP4 DUP1 MLOAD SWAP1 PUSH1 0x20 ADD KECCAK256 DUP2 MSTORE PUSH1 0x20 ADD SWAP1 DUP2 MSTORE PUSH1 0x20 ADD PUSH1 0x0 KECCAK256 PUSH1 0x0 SWAP1 SLOAD SWAP1 PUSH2 0x100 EXP SWAP1 DIV PUSH20 0xFFFFFFFFFFFFFFFFFFFFFFFFFFFFFFFFFFFFFFFF AND SWAP1 POP SWAP2 SWAP1 POP JUMP JUMPDEST PUSH1 0x0 DUP2 SWAP1 POP PUSH1 0x0 DUP2 PUSH20 0xFFFFFFFFFFFFFFFFFFFFFFFFFFFFFFFFFFFFFFFF AND PUSH4 0x19EB4A90 PUSH1 0x40 MLOAD DUP2 PUSH4 0xFFFFFFFF AND PUSH1 0xE0 SHL DUP2 MSTORE PUSH1 0x4 ADD PUSH1 0x0 PUSH1 0x40 MLOAD DUP1 DUP4 SUB DUP2 DUP7 DUP1 EXTCODESIZE ISZERO DUP1 ISZERO PUSH2 0x152 JUMPI PUSH1 0x0 DUP1 REVERT JUMPDEST POP GAS STATICCALL ISZERO DUP1 ISZERO PUSH2 0x166 JUMPI RETURNDATASIZE PUSH1 0x0 DUP1 RETURNDATACOPY RETURNDATASIZE PUSH1 0x0 REVERT JUMPDEST POP POP POP POP PUSH1 0x40 MLOAD RETURNDATASIZE PUSH1 0x0 DUP3 RETURNDATACOPY RETURNDATASIZE PUSH1 0x1F NOT PUSH1 0x1F DUP3 ADD AND DUP3 ADD DUP1 PUSH1 0x40 MSTORE POP DUP2 ADD SWAP1 PUSH2 0x18F SWAP2 SWAP1 PUSH2 0x3CE JUMP JUMPDEST DUP1 MLOAD SWAP1 PUSH1 0x20 ADD KECCAK256 SWAP1 POP DUP3 PUSH1 0x0 DUP1 DUP4 DUP2 MSTORE PUSH1 0x20 ADD SWAP1 DUP2 MSTORE PUSH1 0x20 ADD PUSH1 0x0 KECCAK256 PUSH1 0x0 PUSH2 0x100 EXP DUP2 SLOAD DUP2 PUSH20 0xFFFFFFFFFFFFFFFFFFFFFFFFFFFFFFFFFFFFFFFF MUL NOT AND SWAP1 DUP4 PUSH20 0xFFFFFFFFFFFFFFFFFFFFFFFFFFFFFFFFFFFFFFFF AND MUL OR SWAP1 SSTORE POP POP POP POP JUMP JUMPDEST PUSH1 0x0 PUSH1 0x20 MSTORE DUP1 PUSH1 0x0 MSTORE PUSH1 0x40 PUSH1 0x0 KECCAK256 PUSH1 0x0 SWAP2 POP SLOAD SWAP1 PUSH2 0x100 EXP SWAP1 DIV PUSH20 0xFFFFFFFFFFFFFFFFFFFFFFFFFFFFFFFFFFFFFFFF AND DUP2 JUMP JUMPDEST PUSH1 0x0 PUSH2 0x234 PUSH2 0x22F DUP5 PUSH2 0x466 JUMP JUMPDEST PUSH2 0x441 JUMP JUMPDEST SWAP1 POP DUP3 DUP2 MSTORE PUSH1 0x20 DUP2 ADD DUP5 DUP5 DUP5 ADD GT ISZERO PUSH2 0x250 JUMPI PUSH2 0x24F PUSH2 0x57A JUMP JUMPDEST JUMPDEST PUSH2 0x25B DUP5 DUP3 DUP6 PUSH2 0x4D3 JUMP JUMPDEST POP SWAP4 SWAP3 POP POP POP JUMP JUMPDEST PUSH1 0x0 PUSH2 0x276 PUSH2 0x271 DUP5 PUSH2 0x466 JUMP JUMPDEST PUSH2 0x441 JUMP JUMPDEST SWAP1 POP DUP3 DUP2 MSTORE PUSH1 0x20 DUP2 ADD DUP5 DUP5 DUP5 ADD GT ISZERO PUSH2 0x292 JUMPI PUSH2 0x291 PUSH2 0x57A JUMP JUMPDEST JUMPDEST PUSH2 0x29D DUP5 DUP3 DUP6 PUSH2 0x4E2 JUMP JUMPDEST POP SWAP4 SWAP3 POP POP POP JUMP JUMPDEST PUSH1 0x0 DUP2 CALLDATALOAD SWAP1 POP PUSH2 0x2B4 DUP2 PUSH2 0x59A JUMP JUMPDEST SWAP3 SWAP2 POP POP JUMP JUMPDEST PUSH1 0x0 DUP2 CALLDATALOAD SWAP1 POP PUSH2 0x2C9 DUP2 PUSH2 0x5B1 JUMP JUMPDEST SWAP3 SWAP2 POP POP JUMP JUMPDEST PUSH1 0x0 DUP3 PUSH1 0x1F DUP4 ADD SLT PUSH2 0x2E4 JUMPI PUSH2 0x2E3 PUSH2 0x575 JUMP JUMPDEST JUMPDEST DUP2 CALLDATALOAD PUSH2 0x2F4 DUP5 DUP3 PUSH1 0x20 DUP7 ADD PUSH2 0x221 JUMP JUMPDEST SWAP2 POP POP SWAP3 SWAP2 POP POP JUMP JUMPDEST PUSH1 0x0 DUP3 PUSH1 0x1F DUP4 ADD SLT PUSH2 0x312 JUMPI PUSH2 0x311 PUSH2 0x575 JUMP JUMPDEST JUMPDEST DUP2 MLOAD PUSH2 0x322 DUP5 DUP3 PUSH1 0x20 DUP7 ADD PUSH2 0x263 JUMP JUMPDEST SWAP2 POP POP SWAP3 SWAP2 POP POP JUMP JUMPDEST PUSH1 0x0 PUSH1 0x20 DUP3 DUP5 SUB SLT ISZERO PUSH2 0x341 JUMPI PUSH2 0x340 PUSH2 0x584 JUMP JUMPDEST JUMPDEST PUSH1 0x0 PUSH2 0x34F DUP5 DUP3 DUP6 ADD PUSH2 0x2A5 JUMP JUMPDEST SWAP2 POP POP SWAP3 SWAP2 POP POP JUMP JUMPDEST PUSH1 0x0 PUSH1 0x20 DUP3 DUP5 SUB SLT ISZERO PUSH2 0x36E JUMPI PUSH2 0x36D PUSH2 0x584 JUMP JUMPDEST JUMPDEST PUSH1 0x0 PUSH2 0x37C DUP5 DUP3 DUP6 ADD PUSH2 0x2BA JUMP JUMPDEST SWAP2 POP POP SWAP3 SWAP2 POP POP JUMP JUMPDEST PUSH1 0x0 PUSH1 0x20 DUP3 DUP5 SUB SLT ISZERO PUSH2 0x39B JUMPI PUSH2 0x39A PUSH2 0x584 JUMP JUMPDEST JUMPDEST PUSH1 0x0 DUP3 ADD CALLDATALOAD PUSH8 0xFFFFFFFFFFFFFFFF DUP2 GT ISZERO PUSH2 0x3B9 JUMPI PUSH2 0x3B8 PUSH2 0x57F JUMP JUMPDEST JUMPDEST PUSH2 0x3C5 DUP5 DUP3 DUP6 ADD PUSH2 0x2CF JUMP JUMPDEST SWAP2 POP POP SWAP3 SWAP2 POP POP JUMP JUMPDEST PUSH1 0x0 PUSH1 0x20 DUP3 DUP5 SUB SLT ISZERO PUSH2 0x3E4 JUMPI PUSH2 0x3E3 PUSH2 0x584 JUMP JUMPDEST JUMPDEST PUSH1 0x0 DUP3 ADD MLOAD PUSH8 0xFFFFFFFFFFFFFFFF DUP2 GT ISZERO PUSH2 0x402 JUMPI PUSH2 0x401 PUSH2 0x57F JUMP JUMPDEST JUMPDEST PUSH2 0x40E DUP5 DUP3 DUP6 ADD PUSH2 0x2FD JUMP JUMPDEST SWAP2 POP POP SWAP3 SWAP2 POP POP JUMP JUMPDEST PUSH2 0x420 DUP2 PUSH2 0x497 JUMP JUMPDEST DUP3 MSTORE POP POP JUMP JUMPDEST PUSH1 0x0 PUSH1 0x20 DUP3 ADD SWAP1 POP PUSH2 0x43B PUSH1 0x0 DUP4 ADD DUP5 PUSH2 0x417 JUMP JUMPDEST SWAP3 SWAP2 POP POP JUMP JUMPDEST PUSH1 0x0 PUSH2 0x44B PUSH2 0x45C JUMP JUMPDEST SWAP1 POP PUSH2 0x457 DUP3 DUP3 PUSH2 0x515 JUMP JUMPDEST SWAP2 SWAP1 POP JUMP JUMPDEST PUSH1 0x0 PUSH1 0x40 MLOAD SWAP1 POP SWAP1 JUMP JUMPDEST PUSH1 0x0 PUSH8 0xFFFFFFFFFFFFFFFF DUP3 GT ISZERO PUSH2 0x481 JUMPI PUSH2 0x480 PUSH2 0x546 JUMP JUMPDEST JUMPDEST PUSH2 0x48A DUP3 PUSH2 0x589 JUMP JUMPDEST SWAP1 POP PUSH1 0x20 DUP2 ADD SWAP1 POP SWAP2 SWAP1 POP JUMP JUMPDEST PUSH1 0x0 PUSH2 0x4A2 DUP3 PUSH2 0x4B3 JUMP JUMPDEST SWAP1 POP SWAP2 SWAP1 POP JUMP JUMPDEST PUSH1 0x0 DUP2 SWAP1 POP SWAP2 SWAP1 POP JUMP JUMPDEST PUSH1 0x0 PUSH20 0xFFFFFFFFFFFFFFFFFFFFFFFFFFFFFFFFFFFFFFFF DUP3 AND SWAP1 POP SWAP2 SWAP1 POP JUMP JUMPDEST DUP3 DUP2 DUP4 CALLDATACOPY PUSH1 0x0 DUP4 DUP4 ADD MSTORE POP POP POP JUMP JUMPDEST PUSH1 0x0 JUMPDEST DUP4 DUP2 LT ISZERO PUSH2 0x500 JUMPI DUP1 DUP3 ADD MLOAD DUP2 DUP5 ADD MSTORE PUSH1 0x20 DUP2 ADD SWAP1 POP PUSH2 0x4E5 JUMP JUMPDEST DUP4 DUP2 GT ISZERO PUSH2 0x50F JUMPI PUSH1 0x0 DUP5 DUP5 ADD MSTORE JUMPDEST POP POP POP POP JUMP JUMPDEST PUSH2 0x51E DUP3 PUSH2 0x589 JUMP JUMPDEST DUP2 ADD DUP2 DUP2 LT PUSH8 0xFFFFFFFFFFFFFFFF DUP3 GT OR ISZERO PUSH2 0x53D JUMPI PUSH2 0x53C PUSH2 0x546 JUMP JUMPDEST JUMPDEST DUP1 PUSH1 0x40 MSTORE POP POP POP JUMP JUMPDEST PUSH32 0x4E487B7100000000000000000000000000000000000000000000000000000000 PUSH1 0x0 MSTORE PUSH1 0x41 PUSH1 0x4 MSTORE PUSH1 0x24 PUSH1 0x0 REVERT JUMPDEST PUSH1 0x0 DUP1 REVERT JUMPDEST PUSH1 0x0 DUP1 REVERT JUMPDEST PUSH1 0x0 DUP1 REVERT JUMPDEST PUSH1 0x0 DUP1 REVERT JUMPDEST PUSH1 0x0 PUSH1 0x1F NOT PUSH1 0x1F DUP4 ADD AND SWAP1 POP SWAP2 SWAP1 POP JUMP JUMPDEST PUSH2 0x5A3 DUP2 PUSH2 0x497 JUMP JUMPDEST DUP2 EQ PUSH2 0x5AE JUMPI PUSH1 0x0 DUP1 REVERT JUMPDEST POP JUMP JUMPDEST PUSH2 0x5BA DUP2 PUSH2 0x4A9 JUMP JUMPDEST DUP2 EQ PUSH2 0x5C5 JUMPI PUSH1 0x0 DUP1 REVERT JUMPDEST POP JUMP INVALID LOG2 PUSH5 0x6970667358 0x22 SLT KECCAK256 PUSH16 0x7FBB43088B28928A099EEE7F3ECB5471 SLOAD 0x28 PUSH9 0xB7495DFFF7DFB10794 CALLDATACOPY LOG1 PUSH13 0x64736F6C634300080700330000 "
				},
				"gasEstimates": {
					"creation": {
						"codeDepositCost": "306800",
						"executionCost": "343",
						"totalCost": "307143"
					},
					"external": {
						"createContractInstance(address)": "infinite",
						"getContractAddress(string)": "infinite",
						"userContractAddress(bytes32)": "2861"
					}
				},
				"methodIdentifiers": {
					"createContractInstance(address)": "d785403c",
					"getContractAddress(string)": "04433bbc",
					"userContractAddress(bytes32)": "e9c30288"
				}
			},
			"storageLayout": {
				"storage": [
					{
						"astId": 499,
						"contract": "contracts/MotherContract.sol:MotherContract",
						"label": "userContractAddress",
						"offset": 0,
						"slot": "0",
						"type": "t_mapping(t_bytes32,t_address)"
					}
				],
				"types": {
					"t_address": {
						"encoding": "inplace",
						"label": "address",
						"numberOfBytes": "20"
					},
					"t_bytes32": {
						"encoding": "inplace",
						"label": "bytes32",
						"numberOfBytes": "32"
					},
					"t_mapping(t_bytes32,t_address)": {
						"encoding": "mapping",
						"key": "t_bytes32",
						"label": "mapping(bytes32 => address)",
						"numberOfBytes": "32",
						"value": "t_address"
					}
				}
			},
			"userdoc": {
				"kind": "user",
				"methods": {},
				"version": 1
			}
		}
	}
}