{
	"contracts/BusinessConsensus3.sol": {
		"BusinessConsensus3": {
			"abi": [
				{
					"inputs": [
						{
							"internalType": "string",
							"name": "_messageID",
							"type": "string"
						}
					],
					"name": "Consensus",
					"outputs": [],
					"stateMutability": "nonpayable",
					"type": "function"
				},
				{
					"inputs": [
						{
							"internalType": "string",
							"name": "",
							"type": "string"
						}
					],
					"name": "IDs",
					"outputs": [
						{
							"internalType": "string",
							"name": "",
							"type": "string"
						}
					],
					"stateMutability": "view",
					"type": "function"
				},
				{
					"inputs": [
						{
							"internalType": "address",
							"name": "voter",
							"type": "address"
						},
						{
							"internalType": "string",
							"name": "_messageID",
							"type": "string"
						}
					],
					"name": "RegisterVoter",
					"outputs": [],
					"stateMutability": "nonpayable",
					"type": "function"
				},
				{
					"inputs": [
						{
							"internalType": "string",
							"name": "response",
							"type": "string"
						},
						{
							"internalType": "string",
							"name": "_messageID",
							"type": "string"
						}
					],
					"name": "Vote",
					"outputs": [],
					"stateMutability": "nonpayable",
					"type": "function"
				},
				{
					"inputs": [
						{
							"internalType": "string",
							"name": "",
							"type": "string"
						},
						{
							"internalType": "uint256",
							"name": "",
							"type": "uint256"
						}
					],
					"name": "Voters",
					"outputs": [
						{
							"internalType": "bool",
							"name": "voted",
							"type": "bool"
						},
						{
							"internalType": "bool",
							"name": "vote",
							"type": "bool"
						},
						{
							"internalType": "address",
							"name": "recipient",
							"type": "address"
						}
					],
					"stateMutability": "view",
					"type": "function"
				},
				{
					"inputs": [
						{
							"internalType": "string",
							"name": "",
							"type": "string"
						}
					],
					"name": "businessProposals",
					"outputs": [
						{
							"internalType": "uint256",
							"name": "voteCount",
							"type": "uint256"
						},
						{
							"internalType": "uint256",
							"name": "expiryDate",
							"type": "uint256"
						},
						{
							"internalType": "uint256",
							"name": "BusinessRequirement",
							"type": "uint256"
						}
					],
					"stateMutability": "view",
					"type": "function"
				},
				{
					"inputs": [
						{
							"internalType": "string",
							"name": "_subject",
							"type": "string"
						},
						{
							"internalType": "uint256",
							"name": "_businessRequirement",
							"type": "uint256"
						},
						{
							"internalType": "uint256",
							"name": "_expiryLength",
							"type": "uint256"
						},
						{
							"internalType": "bytes32",
							"name": "_contents",
							"type": "bytes32"
						}
					],
					"name": "checkConsistency",
					"outputs": [
						{
							"internalType": "bool",
							"name": "",
							"type": "bool"
						},
						{
							"internalType": "bool",
							"name": "",
							"type": "bool"
						},
						{
							"internalType": "bool",
							"name": "",
							"type": "bool"
						}
					],
					"stateMutability": "view",
					"type": "function"
				},
				{
					"inputs": [
						{
							"internalType": "string",
							"name": "",
							"type": "string"
						}
					],
					"name": "contents",
					"outputs": [
						{
							"internalType": "bytes32",
							"name": "",
							"type": "bytes32"
						}
					],
					"stateMutability": "view",
					"type": "function"
				},
				{
					"inputs": [
						{
							"internalType": "string",
							"name": "_messageID",
							"type": "string"
						},
						{
							"internalType": "uint256",
							"name": "expiry",
							"type": "uint256"
						},
						{
							"internalType": "uint256",
							"name": "requiredPercentage",
							"type": "uint256"
						},
						{
							"internalType": "bytes32",
							"name": "_contents",
							"type": "bytes32"
						},
						{
							"internalType": "string",
							"name": "subject",
							"type": "string"
						},
						{
							"internalType": "string",
							"name": "_messageDate",
							"type": "string"
						}
					],
					"name": "createContract",
					"outputs": [],
					"stateMutability": "nonpayable",
					"type": "function"
				},
				{
					"inputs": [
						{
							"internalType": "string",
							"name": "",
							"type": "string"
						}
					],
					"name": "expiryLengths",
					"outputs": [
						{
							"internalType": "uint256",
							"name": "",
							"type": "uint256"
						}
					],
					"stateMutability": "view",
					"type": "function"
				},
				{
					"inputs": [
						{
							"internalType": "string",
							"name": "",
							"type": "string"
						}
					],
					"name": "finalVerdicts",
					"outputs": [
						{
							"internalType": "bytes32",
							"name": "",
							"type": "bytes32"
						}
					],
					"stateMutability": "view",
					"type": "function"
				},
				{
					"inputs": [
						{
							"internalType": "string",
							"name": "_messageID",
							"type": "string"
						}
					],
					"name": "getIsCompiled",
					"outputs": [
						{
							"internalType": "bool",
							"name": "",
							"type": "bool"
						}
					],
					"stateMutability": "view",
					"type": "function"
				},
				{
					"inputs": [
						{
							"internalType": "string",
							"name": "subject",
							"type": "string"
						}
					],
					"name": "getIsCreated",
					"outputs": [
						{
							"internalType": "string",
							"name": "",
							"type": "string"
						},
						{
							"internalType": "string",
							"name": "",
							"type": "string"
						},
						{
							"components": [
								{
									"internalType": "uint256",
									"name": "voteCount",
									"type": "uint256"
								},
								{
									"internalType": "uint256",
									"name": "expiryDate",
									"type": "uint256"
								},
								{
									"internalType": "uint256",
									"name": "BusinessRequirement",
									"type": "uint256"
								}
							],
							"internalType": "struct BusinessConsensus3.Proposal",
							"name": "",
							"type": "tuple"
						}
					],
					"stateMutability": "view",
					"type": "function"
				},
				{
					"inputs": [
						{
							"internalType": "string",
							"name": "",
							"type": "string"
						}
					],
					"name": "initiators",
					"outputs": [
						{
							"internalType": "address",
							"name": "",
							"type": "address"
						}
					],
					"stateMutability": "view",
					"type": "function"
				},
				{
					"inputs": [
						{
							"internalType": "string",
							"name": "",
							"type": "string"
						}
					],
					"name": "isCompiled",
					"outputs": [
						{
							"internalType": "bool",
							"name": "",
							"type": "bool"
						}
					],
					"stateMutability": "view",
					"type": "function"
				},
				{
					"inputs": [
						{
							"internalType": "string",
							"name": "",
							"type": "string"
						},
						{
							"internalType": "uint256",
							"name": "",
							"type": "uint256"
						}
					],
					"name": "keys",
					"outputs": [
						{
							"internalType": "address",
							"name": "",
							"type": "address"
						}
					],
					"stateMutability": "view",
					"type": "function"
				},
				{
					"inputs": [
						{
							"internalType": "string",
							"name": "",
							"type": "string"
						}
					],
					"name": "messageDates",
					"outputs": [
						{
							"internalType": "string",
							"name": "",
							"type": "string"
						}
					],
					"stateMutability": "view",
					"type": "function"
				},
				{
					"inputs": [
						{
							"internalType": "string",
							"name": "",
							"type": "string"
						}
					],
					"name": "numApprovals",
					"outputs": [
						{
							"internalType": "uint256",
							"name": "",
							"type": "uint256"
						}
					],
					"stateMutability": "view",
					"type": "function"
				},
				{
					"inputs": [
						{
							"internalType": "string",
							"name": "_messageID",
							"type": "string"
						}
					],
					"name": "retrieve_bundle",
					"outputs": [
						{
							"internalType": "bytes32",
							"name": "",
							"type": "bytes32"
						},
						{
							"internalType": "string",
							"name": "",
							"type": "string"
						},
						{
							"internalType": "uint256",
							"name": "",
							"type": "uint256"
						},
						{
							"components": [
								{
									"internalType": "bool",
									"name": "voted",
									"type": "bool"
								},
								{
									"internalType": "bool",
									"name": "vote",
									"type": "bool"
								},
								{
									"internalType": "address",
									"name": "recipient",
									"type": "address"
								}
							],
							"internalType": "struct BusinessConsensus3.Voter[]",
							"name": "",
							"type": "tuple[]"
						}
					],
					"stateMutability": "view",
					"type": "function"
				},
				{
					"inputs": [
						{
							"internalType": "string",
							"name": "",
							"type": "string"
						}
					],
					"name": "subjects",
					"outputs": [
						{
							"internalType": "string",
							"name": "",
							"type": "string"
						}
					],
					"stateMutability": "view",
					"type": "function"
				},
				{
					"inputs": [
						{
							"internalType": "string",
							"name": "",
							"type": "string"
						},
						{
							"internalType": "address",
							"name": "",
							"type": "address"
						}
					],
					"name": "voter_maps",
					"outputs": [
						{
							"internalType": "bool",
							"name": "voted",
							"type": "bool"
						},
						{
							"internalType": "bool",
							"name": "vote",
							"type": "bool"
						},
						{
							"internalType": "address",
							"name": "recipient",
							"type": "address"
						}
					],
					"stateMutability": "view",
					"type": "function"
				}
			],
			"devdoc": {
				"kind": "dev",
				"methods": {},
				"version": 1
			},
			"evm": {
				"assembly": "    /* \"contracts/BusinessConsensus3.sol\":33:7486  contract BusinessConsensus3{\r... */\n  mstore(0x40, 0x80)\n  callvalue\n  dup1\n  iszero\n  tag_1\n  jumpi\n  0x00\n  dup1\n  revert\ntag_1:\n  pop\n  dataSize(sub_0)\n  dup1\n  dataOffset(sub_0)\n  0x00\n  codecopy\n  0x00\n  return\nstop\n\nsub_0: assembly {\n        /* \"contracts/BusinessConsensus3.sol\":33:7486  contract BusinessConsensus3{\r... */\n      mstore(0x40, 0x80)\n      callvalue\n      dup1\n      iszero\n      tag_1\n      jumpi\n      0x00\n      dup1\n      revert\n    tag_1:\n      pop\n      jumpi(tag_2, lt(calldatasize, 0x04))\n      shr(0xe0, calldataload(0x00))\n      dup1\n      0x883a9673\n      gt\n      tag_24\n      jumpi\n      dup1\n      0xa6acce35\n      gt\n      tag_25\n      jumpi\n      dup1\n      0xa6acce35\n      eq\n      tag_18\n      jumpi\n      dup1\n      0xbb9a31f3\n      eq\n      tag_19\n      jumpi\n      dup1\n      0xc9bc42ed\n      eq\n      tag_20\n      jumpi\n      dup1\n      0xe5c8d65f\n      eq\n      tag_21\n      jumpi\n      dup1\n      0xec548680\n      eq\n      tag_22\n      jumpi\n      dup1\n      0xfe290423\n      eq\n      tag_23\n      jumpi\n      jump(tag_2)\n    tag_25:\n      dup1\n      0x883a9673\n      eq\n      tag_13\n      jumpi\n      dup1\n      0x8a3b0d02\n      eq\n      tag_14\n      jumpi\n      dup1\n      0x8f6a35b7\n      eq\n      tag_15\n      jumpi\n      dup1\n      0x931da6b3\n      eq\n      tag_16\n      jumpi\n      dup1\n      0x9d6a3125\n      eq\n      tag_17\n      jumpi\n      jump(tag_2)\n    tag_24:\n      dup1\n      0x31189fe2\n      gt\n      tag_26\n      jumpi\n      dup1\n      0x31189fe2\n      eq\n      tag_8\n      jumpi\n      dup1\n      0x33a0b0ab\n      eq\n      tag_9\n      jumpi\n      dup1\n      0x37f2e190\n      eq\n      tag_10\n      jumpi\n      dup1\n      0x3d63af0e\n      eq\n      tag_11\n      jumpi\n      dup1\n      0x7aa18f88\n      eq\n      tag_12\n      jumpi\n      jump(tag_2)\n    tag_26:\n      dup1\n      0x06699b01\n      eq\n      tag_3\n      jumpi\n      dup1\n      0x089a4c60\n      eq\n      tag_4\n      jumpi\n      dup1\n      0x11c2b413\n      eq\n      tag_5\n      jumpi\n      dup1\n      0x17072d6b\n      eq\n      tag_6\n      jumpi\n      dup1\n      0x233d0fa1\n      eq\n      tag_7\n      jumpi\n    tag_2:\n      0x00\n      dup1\n      revert\n        /* \"contracts/BusinessConsensus3.sol\":1244:1282  mapping(string=>address[]) public keys */\n    tag_3:\n      tag_27\n      0x04\n      dup1\n      calldatasize\n      sub\n      dup2\n      add\n      swap1\n      tag_28\n      swap2\n      swap1\n      tag_29\n      jump\t// in\n    tag_28:\n      tag_30\n      jump\t// in\n    tag_27:\n      mload(0x40)\n      tag_31\n      swap2\n      swap1\n      tag_32\n      jump\t// in\n    tag_31:\n      mload(0x40)\n      dup1\n      swap2\n      sub\n      swap1\n      return\n        /* \"contracts/BusinessConsensus3.sol\":628:678  mapping(string=>Proposal) public businessProposals */\n    tag_4:\n      tag_33\n      0x04\n      dup1\n      calldatasize\n      sub\n      dup2\n      add\n      swap1\n      tag_34\n      swap2\n      swap1\n      tag_35\n      jump\t// in\n    tag_34:\n      tag_36\n      jump\t// in\n    tag_33:\n      mload(0x40)\n      tag_37\n      swap4\n      swap3\n      swap2\n      swap1\n      tag_38\n      jump\t// in\n    tag_37:\n      mload(0x40)\n      dup1\n      swap2\n      sub\n      swap1\n      return\n        /* \"contracts/BusinessConsensus3.sol\":734:769  mapping(string =>string) public IDs */\n    tag_5:\n      tag_39\n      0x04\n      dup1\n      calldatasize\n      sub\n      dup2\n      add\n      swap1\n      tag_40\n      swap2\n      swap1\n      tag_35\n      jump\t// in\n    tag_40:\n      tag_41\n      jump\t// in\n    tag_39:\n      mload(0x40)\n      tag_42\n      swap2\n      swap1\n      tag_43\n      jump\t// in\n    tag_42:\n      mload(0x40)\n      dup1\n      swap2\n      sub\n      swap1\n      return\n        /* \"contracts/BusinessConsensus3.sol\":4584:5957  function Vote(string memory response,string calldata _messageID) external {\r... */\n    tag_6:\n      tag_44\n      0x04\n      dup1\n      calldatasize\n      sub\n      dup2\n      add\n      swap1\n      tag_45\n      swap2\n      swap1\n      tag_46\n      jump\t// in\n    tag_45:\n      tag_47\n      jump\t// in\n    tag_44:\n      stop\n        /* \"contracts/BusinessConsensus3.sol\":984:1031  mapping(string => bytes32) public finalVerdicts */\n    tag_7:\n      tag_48\n      0x04\n      dup1\n      calldatasize\n      sub\n      dup2\n      add\n      swap1\n      tag_49\n      swap2\n      swap1\n      tag_35\n      jump\t// in\n    tag_49:\n      tag_50\n      jump\t// in\n    tag_48:\n      mload(0x40)\n      tag_51\n      swap2\n      swap1\n      tag_52\n      jump\t// in\n    tag_51:\n      mload(0x40)\n      dup1\n      swap2\n      sub\n      swap1\n      return\n        /* \"contracts/BusinessConsensus3.sol\":1038:1079  mapping(string => bool) public isCompiled */\n    tag_8:\n      tag_53\n      0x04\n      dup1\n      calldatasize\n      sub\n      dup2\n      add\n      swap1\n      tag_54\n      swap2\n      swap1\n      tag_35\n      jump\t// in\n    tag_54:\n      tag_55\n      jump\t// in\n    tag_53:\n      mload(0x40)\n      tag_56\n      swap2\n      swap1\n      tag_57\n      jump\t// in\n    tag_56:\n      mload(0x40)\n      dup1\n      swap2\n      sub\n      swap1\n      return\n        /* \"contracts/BusinessConsensus3.sol\":1134:1192  mapping(string=>mapping(address=>Voter)) public voter_maps */\n    tag_9:\n      tag_58\n      0x04\n      dup1\n      calldatasize\n      sub\n      dup2\n      add\n      swap1\n      tag_59\n      swap2\n      swap1\n      tag_60\n      jump\t// in\n    tag_59:\n      tag_61\n      jump\t// in\n    tag_58:\n      mload(0x40)\n      tag_62\n      swap4\n      swap3\n      swap2\n      swap1\n      tag_63\n      jump\t// in\n    tag_62:\n      mload(0x40)\n      dup1\n      swap2\n      sub\n      swap1\n      return\n        /* \"contracts/BusinessConsensus3.sol\":7000:7481  function retrieve_bundle(string calldata _messageID) external view returns (bytes32, string memory, uint256, Voter[] memory){\r... */\n    tag_10:\n      tag_64\n      0x04\n      dup1\n      calldatasize\n      sub\n      dup2\n      add\n      swap1\n      tag_65\n      swap2\n      swap1\n      tag_66\n      jump\t// in\n    tag_65:\n      tag_67\n      jump\t// in\n    tag_64:\n      mload(0x40)\n      tag_68\n      swap5\n      swap4\n      swap3\n      swap2\n      swap1\n      tag_69\n      jump\t// in\n    tag_68:\n      mload(0x40)\n      dup1\n      swap2\n      sub\n      swap1\n      return\n        /* \"contracts/BusinessConsensus3.sol\":3813:4576  function RegisterVoter(address voter,string calldata _messageID) external {\r... */\n    tag_11:\n      tag_70\n      0x04\n      dup1\n      calldatasize\n      sub\n      dup2\n      add\n      swap1\n      tag_71\n      swap2\n      swap1\n      tag_72\n      jump\t// in\n    tag_71:\n      tag_73\n      jump\t// in\n    tag_70:\n      stop\n        /* \"contracts/BusinessConsensus3.sol\":1295:2522  function createContract(string memory _messageID, uint256 expiry, uint256 requiredPercentage,bytes32 _contents,string memory subject,string memory _messageDate) external{\r... */\n    tag_12:\n      tag_74\n      0x04\n      dup1\n      calldatasize\n      sub\n      dup2\n      add\n      swap1\n      tag_75\n      swap2\n      swap1\n      tag_76\n      jump\t// in\n    tag_75:\n      tag_77\n      jump\t// in\n    tag_74:\n      stop\n        /* \"contracts/BusinessConsensus3.sol\":6021:6992  function Consensus(string calldata _messageID) external {\r... */\n    tag_13:\n      tag_78\n      0x04\n      dup1\n      calldatasize\n      sub\n      dup2\n      add\n      swap1\n      tag_79\n      swap2\n      swap1\n      tag_66\n      jump\t// in\n    tag_79:\n      tag_80\n      jump\t// in\n    tag_78:\n      stop\n        /* \"contracts/BusinessConsensus3.sol\":932:977  mapping(string => string) public messageDates */\n    tag_14:\n      tag_81\n      0x04\n      dup1\n      calldatasize\n      sub\n      dup2\n      add\n      swap1\n      tag_82\n      swap2\n      swap1\n      tag_35\n      jump\t// in\n    tag_82:\n      tag_83\n      jump\t// in\n    tag_81:\n      mload(0x40)\n      tag_84\n      swap2\n      swap1\n      tag_43\n      jump\t// in\n    tag_84:\n      mload(0x40)\n      dup1\n      swap2\n      sub\n      swap1\n      return\n        /* \"contracts/BusinessConsensus3.sol\":1199:1237  mapping(string=>Voter[]) public Voters */\n    tag_15:\n      tag_85\n      0x04\n      dup1\n      calldatasize\n      sub\n      dup2\n      add\n      swap1\n      tag_86\n      swap2\n      swap1\n      tag_29\n      jump\t// in\n    tag_86:\n      tag_87\n      jump\t// in\n    tag_85:\n      mload(0x40)\n      tag_88\n      swap4\n      swap3\n      swap2\n      swap1\n      tag_63\n      jump\t// in\n    tag_88:\n      mload(0x40)\n      dup1\n      swap2\n      sub\n      swap1\n      return\n        /* \"contracts/BusinessConsensus3.sol\":879:925  mapping(string => uint256) public numApprovals */\n    tag_16:\n      tag_89\n      0x04\n      dup1\n      calldatasize\n      sub\n      dup2\n      add\n      swap1\n      tag_90\n      swap2\n      swap1\n      tag_35\n      jump\t// in\n    tag_90:\n      tag_91\n      jump\t// in\n    tag_89:\n      mload(0x40)\n      tag_92\n      swap2\n      swap1\n      tag_93\n      jump\t// in\n    tag_92:\n      mload(0x40)\n      dup1\n      swap2\n      sub\n      swap1\n      return\n        /* \"contracts/BusinessConsensus3.sol\":2659:3500  function checkConsistency(string memory _subject, uint256 _businessRequirement, uint256 _expiryLength, bytes32 _contents) public view returns(bool, bool, bool){\r... */\n    tag_17:\n      tag_94\n      0x04\n      dup1\n      calldatasize\n      sub\n      dup2\n      add\n      swap1\n      tag_95\n      swap2\n      swap1\n      tag_96\n      jump\t// in\n    tag_95:\n      tag_97\n      jump\t// in\n    tag_94:\n      mload(0x40)\n      tag_98\n      swap4\n      swap3\n      swap2\n      swap1\n      tag_99\n      jump\t// in\n    tag_98:\n      mload(0x40)\n      dup1\n      swap2\n      sub\n      swap1\n      return\n        /* \"contracts/BusinessConsensus3.sol\":830:872  mapping(string => bytes32) public contents */\n    tag_18:\n      tag_100\n      0x04\n      dup1\n      calldatasize\n      sub\n      dup2\n      add\n      swap1\n      tag_101\n      swap2\n      swap1\n      tag_35\n      jump\t// in\n    tag_101:\n      tag_102\n      jump\t// in\n    tag_100:\n      mload(0x40)\n      tag_103\n      swap2\n      swap1\n      tag_52\n      jump\t// in\n    tag_103:\n      mload(0x40)\n      dup1\n      swap2\n      sub\n      swap1\n      return\n        /* \"contracts/BusinessConsensus3.sol\":776:823  mapping(string => uint256) public expiryLengths */\n    tag_19:\n      tag_104\n      0x04\n      dup1\n      calldatasize\n      sub\n      dup2\n      add\n      swap1\n      tag_105\n      swap2\n      swap1\n      tag_35\n      jump\t// in\n    tag_105:\n      tag_106\n      jump\t// in\n    tag_104:\n      mload(0x40)\n      tag_107\n      swap2\n      swap1\n      tag_93\n      jump\t// in\n    tag_107:\n      mload(0x40)\n      dup1\n      swap2\n      sub\n      swap1\n      return\n        /* \"contracts/BusinessConsensus3.sol\":3506:3707  function getIsCreated(string calldata subject) public view returns (string memory,string memory,Proposal memory){\r... */\n    tag_20:\n      tag_108\n      0x04\n      dup1\n      calldatasize\n      sub\n      dup2\n      add\n      swap1\n      tag_109\n      swap2\n      swap1\n      tag_66\n      jump\t// in\n    tag_109:\n      tag_110\n      jump\t// in\n    tag_108:\n      mload(0x40)\n      tag_111\n      swap4\n      swap3\n      swap2\n      swap1\n      tag_112\n      jump\t// in\n    tag_111:\n      mload(0x40)\n      dup1\n      swap2\n      sub\n      swap1\n      return\n        /* \"contracts/BusinessConsensus3.sol\":685:727  mapping(string=>address) public initiators */\n    tag_21:\n      tag_113\n      0x04\n      dup1\n      calldatasize\n      sub\n      dup2\n      add\n      swap1\n      tag_114\n      swap2\n      swap1\n      tag_35\n      jump\t// in\n    tag_114:\n      tag_115\n      jump\t// in\n    tag_113:\n      mload(0x40)\n      tag_116\n      swap2\n      swap1\n      tag_32\n      jump\t// in\n    tag_116:\n      mload(0x40)\n      dup1\n      swap2\n      sub\n      swap1\n      return\n        /* \"contracts/BusinessConsensus3.sol\":2528:2653  function getIsCompiled(string calldata _messageID) public view returns (bool){\r... */\n    tag_22:\n      tag_117\n      0x04\n      dup1\n      calldatasize\n      sub\n      dup2\n      add\n      swap1\n      tag_118\n      swap2\n      swap1\n      tag_66\n      jump\t// in\n    tag_118:\n      tag_119\n      jump\t// in\n    tag_117:\n      mload(0x40)\n      tag_120\n      swap2\n      swap1\n      tag_57\n      jump\t// in\n    tag_120:\n      mload(0x40)\n      dup1\n      swap2\n      sub\n      swap1\n      return\n        /* \"contracts/BusinessConsensus3.sol\":1086:1127  mapping(string => string) public subjects */\n    tag_23:\n      tag_121\n      0x04\n      dup1\n      calldatasize\n      sub\n      dup2\n      add\n      swap1\n      tag_122\n      swap2\n      swap1\n      tag_35\n      jump\t// in\n    tag_122:\n      tag_123\n      jump\t// in\n    tag_121:\n      mload(0x40)\n      tag_124\n      swap2\n      swap1\n      tag_43\n      jump\t// in\n    tag_124:\n      mload(0x40)\n      dup1\n      swap2\n      sub\n      swap1\n      return\n        /* \"contracts/BusinessConsensus3.sol\":1244:1282  mapping(string=>address[]) public keys */\n    tag_30:\n      0x0c\n      dup3\n      dup1\n      mload\n      0x20\n      dup2\n      add\n      dup3\n      add\n      dup1\n      mload\n      dup5\n      dup3\n      mstore\n      0x20\n      dup4\n      add\n      0x20\n      dup6\n      add\n      keccak256\n      dup2\n      dup4\n      mstore\n      dup1\n      swap6\n      pop\n      pop\n      pop\n      pop\n      pop\n      pop\n      dup2\n      dup2\n      sload\n      dup2\n      lt\n      tag_125\n      jumpi\n      0x00\n      dup1\n      revert\n    tag_125:\n      swap1\n      0x00\n      mstore\n      keccak256(0x00, 0x20)\n      add\n      0x00\n      swap2\n      pop\n      swap2\n      pop\n      swap1\n      sload\n      swap1\n      0x0100\n      exp\n      swap1\n      div\n      0xffffffffffffffffffffffffffffffffffffffff\n      and\n      dup2\n      jump\t// out\n        /* \"contracts/BusinessConsensus3.sol\":628:678  mapping(string=>Proposal) public businessProposals */\n    tag_36:\n      0x00\n      dup2\n      dup1\n      mload\n      0x20\n      dup2\n      add\n      dup3\n      add\n      dup1\n      mload\n      dup5\n      dup3\n      mstore\n      0x20\n      dup4\n      add\n      0x20\n      dup6\n      add\n      keccak256\n      dup2\n      dup4\n      mstore\n      dup1\n      swap6\n      pop\n      pop\n      pop\n      pop\n      pop\n      pop\n      0x00\n      swap2\n      pop\n      swap1\n      pop\n      dup1\n      0x00\n      add\n      sload\n      swap1\n      dup1\n      0x01\n      add\n      sload\n      swap1\n      dup1\n      0x02\n      add\n      sload\n      swap1\n      pop\n      dup4\n      jump\t// out\n        /* \"contracts/BusinessConsensus3.sol\":734:769  mapping(string =>string) public IDs */\n    tag_41:\n      0x02\n      dup2\n      dup1\n      mload\n      0x20\n      dup2\n      add\n      dup3\n      add\n      dup1\n      mload\n      dup5\n      dup3\n      mstore\n      0x20\n      dup4\n      add\n      0x20\n      dup6\n      add\n      keccak256\n      dup2\n      dup4\n      mstore\n      dup1\n      swap6\n      pop\n      pop\n      pop\n      pop\n      pop\n      pop\n      0x00\n      swap2\n      pop\n      swap1\n      pop\n      dup1\n      sload\n      tag_127\n      swap1\n      tag_128\n      jump\t// in\n    tag_127:\n      dup1\n      0x1f\n      add\n      0x20\n      dup1\n      swap2\n      div\n      mul\n      0x20\n      add\n      mload(0x40)\n      swap1\n      dup2\n      add\n      0x40\n      mstore\n      dup1\n      swap3\n      swap2\n      swap1\n      dup2\n      dup2\n      mstore\n      0x20\n      add\n      dup3\n      dup1\n      sload\n      tag_129\n      swap1\n      tag_128\n      jump\t// in\n    tag_129:\n      dup1\n      iszero\n      tag_130\n      jumpi\n      dup1\n      0x1f\n      lt\n      tag_131\n      jumpi\n      0x0100\n      dup1\n      dup4\n      sload\n      div\n      mul\n      dup4\n      mstore\n      swap2\n      0x20\n      add\n      swap2\n      jump(tag_130)\n    tag_131:\n      dup3\n      add\n      swap2\n      swap1\n      0x00\n      mstore\n      keccak256(0x00, 0x20)\n      swap1\n    tag_132:\n      dup2\n      sload\n      dup2\n      mstore\n      swap1\n      0x01\n      add\n      swap1\n      0x20\n      add\n      dup1\n      dup4\n      gt\n      tag_132\n      jumpi\n      dup3\n      swap1\n      sub\n      0x1f\n      and\n      dup3\n      add\n      swap2\n    tag_130:\n      pop\n      pop\n      pop\n      pop\n      pop\n      dup2\n      jump\t// out\n        /* \"contracts/BusinessConsensus3.sol\":4584:5957  function Vote(string memory response,string calldata _messageID) external {\r... */\n    tag_47:\n        /* \"contracts/BusinessConsensus3.sol\":4697:4714  businessProposals */\n      0x00\n        /* \"contracts/BusinessConsensus3.sol\":4715:4725  _messageID */\n      dup3\n      dup3\n        /* \"contracts/BusinessConsensus3.sol\":4697:4726  businessProposals[_messageID] */\n      mload(0x40)\n      tag_134\n      swap3\n      swap2\n      swap1\n      tag_135\n      jump\t// in\n    tag_134:\n      swap1\n      dup2\n      mstore\n      0x20\n      add\n      mload(0x40)\n      dup1\n      swap2\n      sub\n      swap1\n      keccak256\n        /* \"contracts/BusinessConsensus3.sol\":4697:4737  businessProposals[_messageID].expiryDate */\n      0x01\n      add\n      sload\n        /* \"contracts/BusinessConsensus3.sol\":4679:4694  block.timestamp */\n      timestamp\n        /* \"contracts/BusinessConsensus3.sol\":4679:4737  block.timestamp < businessProposals[_messageID].expiryDate */\n      lt\n        /* \"contracts/BusinessConsensus3.sol\":4671:4760  require(block.timestamp < businessProposals[_messageID].expiryDate, \"Voting has expired\") */\n      tag_136\n      jumpi\n      mload(0x40)\n      0x08c379a000000000000000000000000000000000000000000000000000000000\n      dup2\n      mstore\n      0x04\n      add\n      tag_137\n      swap1\n      tag_138\n      jump\t// in\n    tag_137:\n      mload(0x40)\n      dup1\n      swap2\n      sub\n      swap1\n      revert\n    tag_136:\n        /* \"contracts/BusinessConsensus3.sol\":4835:4838  0x0 */\n      0x00\n        /* \"contracts/BusinessConsensus3.sol\":4779:4839  voter_maps[_messageID][msg.sender].recipient != address(0x0) */\n      0xffffffffffffffffffffffffffffffffffffffff\n      and\n        /* \"contracts/BusinessConsensus3.sol\":4779:4789  voter_maps */\n      0x0a\n        /* \"contracts/BusinessConsensus3.sol\":4790:4800  _messageID */\n      dup4\n      dup4\n        /* \"contracts/BusinessConsensus3.sol\":4779:4801  voter_maps[_messageID] */\n      mload(0x40)\n      tag_139\n      swap3\n      swap2\n      swap1\n      tag_135\n      jump\t// in\n    tag_139:\n      swap1\n      dup2\n      mstore\n      0x20\n      add\n      mload(0x40)\n      dup1\n      swap2\n      sub\n      swap1\n      keccak256\n        /* \"contracts/BusinessConsensus3.sol\":4779:4813  voter_maps[_messageID][msg.sender] */\n      0x00\n        /* \"contracts/BusinessConsensus3.sol\":4802:4812  msg.sender */\n      caller\n        /* \"contracts/BusinessConsensus3.sol\":4779:4813  voter_maps[_messageID][msg.sender] */\n      0xffffffffffffffffffffffffffffffffffffffff\n      and\n      0xffffffffffffffffffffffffffffffffffffffff\n      and\n      dup2\n      mstore\n      0x20\n      add\n      swap1\n      dup2\n      mstore\n      0x20\n      add\n      0x00\n      keccak256\n        /* \"contracts/BusinessConsensus3.sol\":4779:4823  voter_maps[_messageID][msg.sender].recipient */\n      0x00\n      add\n      0x02\n      swap1\n      sload\n      swap1\n      0x0100\n      exp\n      swap1\n      div\n      0xffffffffffffffffffffffffffffffffffffffff\n      and\n        /* \"contracts/BusinessConsensus3.sol\":4779:4839  voter_maps[_messageID][msg.sender].recipient != address(0x0) */\n      0xffffffffffffffffffffffffffffffffffffffff\n      and\n      eq\n      iszero\n        /* \"contracts/BusinessConsensus3.sol\":4771:4874  require(voter_maps[_messageID][msg.sender].recipient != address(0x0), \"You are not registered to vote\") */\n      tag_140\n      jumpi\n      mload(0x40)\n      0x08c379a000000000000000000000000000000000000000000000000000000000\n      dup2\n      mstore\n      0x04\n      add\n      tag_141\n      swap1\n      tag_142\n      jump\t// in\n    tag_141:\n      mload(0x40)\n      dup1\n      swap2\n      sub\n      swap1\n      revert\n    tag_140:\n        /* \"contracts/BusinessConsensus3.sol\":4894:4904  voter_maps */\n      0x0a\n        /* \"contracts/BusinessConsensus3.sol\":4905:4915  _messageID */\n      dup3\n      dup3\n        /* \"contracts/BusinessConsensus3.sol\":4894:4916  voter_maps[_messageID] */\n      mload(0x40)\n      tag_143\n      swap3\n      swap2\n      swap1\n      tag_135\n      jump\t// in\n    tag_143:\n      swap1\n      dup2\n      mstore\n      0x20\n      add\n      mload(0x40)\n      dup1\n      swap2\n      sub\n      swap1\n      keccak256\n        /* \"contracts/BusinessConsensus3.sol\":4894:4928  voter_maps[_messageID][msg.sender] */\n      0x00\n        /* \"contracts/BusinessConsensus3.sol\":4917:4927  msg.sender */\n      caller\n        /* \"contracts/BusinessConsensus3.sol\":4894:4928  voter_maps[_messageID][msg.sender] */\n      0xffffffffffffffffffffffffffffffffffffffff\n      and\n      0xffffffffffffffffffffffffffffffffffffffff\n      and\n      dup2\n      mstore\n      0x20\n      add\n      swap1\n      dup2\n      mstore\n      0x20\n      add\n      0x00\n      keccak256\n        /* \"contracts/BusinessConsensus3.sol\":4894:4934  voter_maps[_messageID][msg.sender].voted */\n      0x00\n      add\n      0x00\n      swap1\n      sload\n      swap1\n      0x0100\n      exp\n      swap1\n      div\n      0xff\n      and\n        /* \"contracts/BusinessConsensus3.sol\":4893:4934  !voter_maps[_messageID][msg.sender].voted */\n      iszero\n        /* \"contracts/BusinessConsensus3.sol\":4885:4967  require(!voter_maps[_messageID][msg.sender].voted, \"You already sent a response.\") */\n      tag_144\n      jumpi\n      mload(0x40)\n      0x08c379a000000000000000000000000000000000000000000000000000000000\n      dup2\n      mstore\n      0x04\n      add\n      tag_145\n      swap1\n      tag_146\n      jump\t// in\n    tag_145:\n      mload(0x40)\n      dup1\n      swap2\n      sub\n      swap1\n      revert\n    tag_144:\n        /* \"contracts/BusinessConsensus3.sol\":5023:5041  bytes(\"i approve\") */\n      mload(0x40)\n      dup1\n      0x40\n      add\n      0x40\n      mstore\n      dup1\n      0x09\n      dup2\n      mstore\n      0x20\n      add\n      0x6920617070726f76650000000000000000000000000000000000000000000000\n      dup2\n      mstore\n      pop\n        /* \"contracts/BusinessConsensus3.sol\":5013:5042  keccak256(bytes(\"i approve\")) */\n      dup1\n      mload\n      swap1\n      0x20\n      add\n      keccak256\n        /* \"contracts/BusinessConsensus3.sol\":4999:5007  response */\n      dup4\n        /* \"contracts/BusinessConsensus3.sol\":4983:5009  keccak256(bytes(response)) */\n      dup1\n      mload\n      swap1\n      0x20\n      add\n      keccak256\n        /* \"contracts/BusinessConsensus3.sol\":4983:5042  keccak256(bytes(response)) == keccak256(bytes(\"i approve\")) */\n      eq\n        /* \"contracts/BusinessConsensus3.sol\":4980:5940  if(keccak256(bytes(response)) == keccak256(bytes(\"i approve\"))){\r... */\n      iszero\n      tag_147\n      jumpi\n        /* \"contracts/BusinessConsensus3.sol\":5101:5105  true */\n      0x01\n        /* \"contracts/BusinessConsensus3.sol\":5058:5068  voter_maps */\n      0x0a\n        /* \"contracts/BusinessConsensus3.sol\":5069:5079  _messageID */\n      dup4\n      dup4\n        /* \"contracts/BusinessConsensus3.sol\":5058:5080  voter_maps[_messageID] */\n      mload(0x40)\n      tag_148\n      swap3\n      swap2\n      swap1\n      tag_135\n      jump\t// in\n    tag_148:\n      swap1\n      dup2\n      mstore\n      0x20\n      add\n      mload(0x40)\n      dup1\n      swap2\n      sub\n      swap1\n      keccak256\n        /* \"contracts/BusinessConsensus3.sol\":5058:5092  voter_maps[_messageID][msg.sender] */\n      0x00\n        /* \"contracts/BusinessConsensus3.sol\":5081:5091  msg.sender */\n      caller\n        /* \"contracts/BusinessConsensus3.sol\":5058:5092  voter_maps[_messageID][msg.sender] */\n      0xffffffffffffffffffffffffffffffffffffffff\n      and\n      0xffffffffffffffffffffffffffffffffffffffff\n      and\n      dup2\n      mstore\n      0x20\n      add\n      swap1\n      dup2\n      mstore\n      0x20\n      add\n      0x00\n      keccak256\n        /* \"contracts/BusinessConsensus3.sol\":5058:5098  voter_maps[_messageID][msg.sender].voted */\n      0x00\n      add\n      0x00\n        /* \"contracts/BusinessConsensus3.sol\":5058:5105  voter_maps[_messageID][msg.sender].voted = true */\n      0x0100\n      exp\n      dup2\n      sload\n      dup2\n      0xff\n      mul\n      not\n      and\n      swap1\n      dup4\n      iszero\n      iszero\n      mul\n      or\n      swap1\n      sstore\n      pop\n        /* \"contracts/BusinessConsensus3.sol\":5162:5166  true */\n      0x01\n        /* \"contracts/BusinessConsensus3.sol\":5120:5130  voter_maps */\n      0x0a\n        /* \"contracts/BusinessConsensus3.sol\":5131:5141  _messageID */\n      dup4\n      dup4\n        /* \"contracts/BusinessConsensus3.sol\":5120:5142  voter_maps[_messageID] */\n      mload(0x40)\n      tag_149\n      swap3\n      swap2\n      swap1\n      tag_135\n      jump\t// in\n    tag_149:\n      swap1\n      dup2\n      mstore\n      0x20\n      add\n      mload(0x40)\n      dup1\n      swap2\n      sub\n      swap1\n      keccak256\n        /* \"contracts/BusinessConsensus3.sol\":5120:5154  voter_maps[_messageID][msg.sender] */\n      0x00\n        /* \"contracts/BusinessConsensus3.sol\":5143:5153  msg.sender */\n      caller\n        /* \"contracts/BusinessConsensus3.sol\":5120:5154  voter_maps[_messageID][msg.sender] */\n      0xffffffffffffffffffffffffffffffffffffffff\n      and\n      0xffffffffffffffffffffffffffffffffffffffff\n      and\n      dup2\n      mstore\n      0x20\n      add\n      swap1\n      dup2\n      mstore\n      0x20\n      add\n      0x00\n      keccak256\n        /* \"contracts/BusinessConsensus3.sol\":5120:5159  voter_maps[_messageID][msg.sender].vote */\n      0x00\n      add\n      0x01\n        /* \"contracts/BusinessConsensus3.sol\":5120:5166  voter_maps[_messageID][msg.sender].vote = true */\n      0x0100\n      exp\n      dup2\n      sload\n      dup2\n      0xff\n      mul\n      not\n      and\n      swap1\n      dup4\n      iszero\n      iszero\n      mul\n      or\n      swap1\n      sstore\n      pop\n        /* \"contracts/BusinessConsensus3.sol\":5209:5210  1 */\n      0x01\n        /* \"contracts/BusinessConsensus3.sol\":5181:5193  numApprovals */\n      0x05\n        /* \"contracts/BusinessConsensus3.sol\":5194:5204  _messageID */\n      dup4\n      dup4\n        /* \"contracts/BusinessConsensus3.sol\":5181:5205  numApprovals[_messageID] */\n      mload(0x40)\n      tag_150\n      swap3\n      swap2\n      swap1\n      tag_135\n      jump\t// in\n    tag_150:\n      swap1\n      dup2\n      mstore\n      0x20\n      add\n      mload(0x40)\n      dup1\n      swap2\n      sub\n      swap1\n      keccak256\n      0x00\n        /* \"contracts/BusinessConsensus3.sol\":5181:5210  numApprovals[_messageID] += 1 */\n      dup3\n      dup3\n      sload\n      tag_151\n      swap2\n      swap1\n      tag_152\n      jump\t// in\n    tag_151:\n      swap3\n      pop\n      pop\n      dup2\n      swap1\n      sstore\n      pop\n        /* \"contracts/BusinessConsensus3.sol\":5268:5269  1 */\n      0x01\n        /* \"contracts/BusinessConsensus3.sol\":5225:5242  businessProposals */\n      0x00\n        /* \"contracts/BusinessConsensus3.sol\":5243:5253  _messageID */\n      dup4\n      dup4\n        /* \"contracts/BusinessConsensus3.sol\":5225:5254  businessProposals[_messageID] */\n      mload(0x40)\n      tag_153\n      swap3\n      swap2\n      swap1\n      tag_135\n      jump\t// in\n    tag_153:\n      swap1\n      dup2\n      mstore\n      0x20\n      add\n      mload(0x40)\n      dup1\n      swap2\n      sub\n      swap1\n      keccak256\n        /* \"contracts/BusinessConsensus3.sol\":5225:5264  businessProposals[_messageID].voteCount */\n      0x00\n      add\n      0x00\n        /* \"contracts/BusinessConsensus3.sol\":5225:5269  businessProposals[_messageID].voteCount += 1 */\n      dup3\n      dup3\n      sload\n      tag_154\n      swap2\n      swap1\n      tag_152\n      jump\t// in\n    tag_154:\n      swap3\n      pop\n      pop\n      dup2\n      swap1\n      sstore\n      pop\n        /* \"contracts/BusinessConsensus3.sol\":5284:5290  Voters */\n      0x0b\n        /* \"contracts/BusinessConsensus3.sol\":5291:5301  _messageID */\n      dup3\n      dup3\n        /* \"contracts/BusinessConsensus3.sol\":5284:5302  Voters[_messageID] */\n      mload(0x40)\n      tag_155\n      swap3\n      swap2\n      swap1\n      tag_135\n      jump\t// in\n    tag_155:\n      swap1\n      dup2\n      mstore\n      0x20\n      add\n      mload(0x40)\n      dup1\n      swap2\n      sub\n      swap1\n      keccak256\n        /* \"contracts/BusinessConsensus3.sol\":5308:5318  voter_maps */\n      0x0a\n        /* \"contracts/BusinessConsensus3.sol\":5319:5329  _messageID */\n      dup4\n      dup4\n        /* \"contracts/BusinessConsensus3.sol\":5308:5330  voter_maps[_messageID] */\n      mload(0x40)\n      tag_156\n      swap3\n      swap2\n      swap1\n      tag_135\n      jump\t// in\n    tag_156:\n      swap1\n      dup2\n      mstore\n      0x20\n      add\n      mload(0x40)\n      dup1\n      swap2\n      sub\n      swap1\n      keccak256\n        /* \"contracts/BusinessConsensus3.sol\":5308:5342  voter_maps[_messageID][msg.sender] */\n      0x00\n        /* \"contracts/BusinessConsensus3.sol\":5331:5341  msg.sender */\n      caller\n        /* \"contracts/BusinessConsensus3.sol\":5308:5342  voter_maps[_messageID][msg.sender] */\n      0xffffffffffffffffffffffffffffffffffffffff\n      and\n      0xffffffffffffffffffffffffffffffffffffffff\n      and\n      dup2\n      mstore\n      0x20\n      add\n      swap1\n      dup2\n      mstore\n      0x20\n      add\n      0x00\n      keccak256\n        /* \"contracts/BusinessConsensus3.sol\":5284:5343  Voters[_messageID].push(voter_maps[_messageID][msg.sender]) */\n      swap1\n      dup1\n      0x01\n      dup2\n      sload\n      add\n      dup1\n      dup3\n      sstore\n      dup1\n      swap2\n      pop\n      pop\n      0x01\n      swap1\n      sub\n      swap1\n      0x00\n      mstore\n      keccak256(0x00, 0x20)\n      add\n      0x00\n      swap1\n      swap2\n      swap1\n      swap2\n      swap1\n      swap2\n      pop\n      0x00\n      dup3\n      add\n      0x00\n      swap1\n      sload\n      swap1\n      0x0100\n      exp\n      swap1\n      div\n      0xff\n      and\n      dup2\n      0x00\n      add\n      exp(0x0100, 0x00)\n      dup2\n      sload\n      dup2\n      0xff\n      mul\n      not\n      and\n      swap1\n      dup4\n      iszero\n      iszero\n      mul\n      or\n      swap1\n      sstore\n      pop\n      0x00\n      dup3\n      add\n      0x01\n      swap1\n      sload\n      swap1\n      0x0100\n      exp\n      swap1\n      div\n      0xff\n      and\n      dup2\n      0x00\n      add\n      exp(0x0100, 0x01)\n      dup2\n      sload\n      dup2\n      0xff\n      mul\n      not\n      and\n      swap1\n      dup4\n      iszero\n      iszero\n      mul\n      or\n      swap1\n      sstore\n      pop\n      0x00\n      dup3\n      add\n      0x02\n      swap1\n      sload\n      swap1\n      0x0100\n      exp\n      swap1\n      div\n      0xffffffffffffffffffffffffffffffffffffffff\n      and\n      dup2\n      0x00\n      add\n      exp(0x0100, 0x02)\n      dup2\n      sload\n      dup2\n      0xffffffffffffffffffffffffffffffffffffffff\n      mul\n      not\n      and\n      swap1\n      dup4\n      0xffffffffffffffffffffffffffffffffffffffff\n      and\n      mul\n      or\n      swap1\n      sstore\n      pop\n      pop\n      pop\n        /* \"contracts/BusinessConsensus3.sol\":4980:5940  if(keccak256(bytes(response)) == keccak256(bytes(\"i approve\"))){\r... */\n      jump(tag_158)\n    tag_147:\n        /* \"contracts/BusinessConsensus3.sol\":5415:5436  bytes(\"i disapprove\") */\n      mload(0x40)\n      dup1\n      0x40\n      add\n      0x40\n      mstore\n      dup1\n      0x0c\n      dup2\n      mstore\n      0x20\n      add\n      0x6920646973617070726f76650000000000000000000000000000000000000000\n      dup2\n      mstore\n      pop\n        /* \"contracts/BusinessConsensus3.sol\":5405:5437  keccak256(bytes(\"i disapprove\")) */\n      dup1\n      mload\n      swap1\n      0x20\n      add\n      keccak256\n        /* \"contracts/BusinessConsensus3.sol\":5391:5399  response */\n      dup4\n        /* \"contracts/BusinessConsensus3.sol\":5375:5401  keccak256(bytes(response)) */\n      dup1\n      mload\n      swap1\n      0x20\n      add\n      keccak256\n        /* \"contracts/BusinessConsensus3.sol\":5375:5437  keccak256(bytes(response)) == keccak256(bytes(\"i disapprove\")) */\n      eq\n        /* \"contracts/BusinessConsensus3.sol\":5372:5940  if(keccak256(bytes(response)) == keccak256(bytes(\"i disapprove\"))){\r... */\n      iszero\n      tag_159\n      jumpi\n        /* \"contracts/BusinessConsensus3.sol\":5496:5500  true */\n      0x01\n        /* \"contracts/BusinessConsensus3.sol\":5453:5463  voter_maps */\n      0x0a\n        /* \"contracts/BusinessConsensus3.sol\":5464:5474  _messageID */\n      dup4\n      dup4\n        /* \"contracts/BusinessConsensus3.sol\":5453:5475  voter_maps[_messageID] */\n      mload(0x40)\n      tag_160\n      swap3\n      swap2\n      swap1\n      tag_135\n      jump\t// in\n    tag_160:\n      swap1\n      dup2\n      mstore\n      0x20\n      add\n      mload(0x40)\n      dup1\n      swap2\n      sub\n      swap1\n      keccak256\n        /* \"contracts/BusinessConsensus3.sol\":5453:5487  voter_maps[_messageID][msg.sender] */\n      0x00\n        /* \"contracts/BusinessConsensus3.sol\":5476:5486  msg.sender */\n      caller\n        /* \"contracts/BusinessConsensus3.sol\":5453:5487  voter_maps[_messageID][msg.sender] */\n      0xffffffffffffffffffffffffffffffffffffffff\n      and\n      0xffffffffffffffffffffffffffffffffffffffff\n      and\n      dup2\n      mstore\n      0x20\n      add\n      swap1\n      dup2\n      mstore\n      0x20\n      add\n      0x00\n      keccak256\n        /* \"contracts/BusinessConsensus3.sol\":5453:5493  voter_maps[_messageID][msg.sender].voted */\n      0x00\n      add\n      0x00\n        /* \"contracts/BusinessConsensus3.sol\":5453:5500  voter_maps[_messageID][msg.sender].voted = true */\n      0x0100\n      exp\n      dup2\n      sload\n      dup2\n      0xff\n      mul\n      not\n      and\n      swap1\n      dup4\n      iszero\n      iszero\n      mul\n      or\n      swap1\n      sstore\n      pop\n        /* \"contracts/BusinessConsensus3.sol\":5558:5559  1 */\n      0x01\n        /* \"contracts/BusinessConsensus3.sol\":5515:5532  businessProposals */\n      0x00\n        /* \"contracts/BusinessConsensus3.sol\":5533:5543  _messageID */\n      dup4\n      dup4\n        /* \"contracts/BusinessConsensus3.sol\":5515:5544  businessProposals[_messageID] */\n      mload(0x40)\n      tag_161\n      swap3\n      swap2\n      swap1\n      tag_135\n      jump\t// in\n    tag_161:\n      swap1\n      dup2\n      mstore\n      0x20\n      add\n      mload(0x40)\n      dup1\n      swap2\n      sub\n      swap1\n      keccak256\n        /* \"contracts/BusinessConsensus3.sol\":5515:5554  businessProposals[_messageID].voteCount */\n      0x00\n      add\n      0x00\n        /* \"contracts/BusinessConsensus3.sol\":5515:5559  businessProposals[_messageID].voteCount += 1 */\n      dup3\n      dup3\n      sload\n      tag_162\n      swap2\n      swap1\n      tag_152\n      jump\t// in\n    tag_162:\n      swap3\n      pop\n      pop\n      dup2\n      swap1\n      sstore\n      pop\n        /* \"contracts/BusinessConsensus3.sol\":5574:5580  Voters */\n      0x0b\n        /* \"contracts/BusinessConsensus3.sol\":5581:5591  _messageID */\n      dup3\n      dup3\n        /* \"contracts/BusinessConsensus3.sol\":5574:5592  Voters[_messageID] */\n      mload(0x40)\n      tag_163\n      swap3\n      swap2\n      swap1\n      tag_135\n      jump\t// in\n    tag_163:\n      swap1\n      dup2\n      mstore\n      0x20\n      add\n      mload(0x40)\n      dup1\n      swap2\n      sub\n      swap1\n      keccak256\n        /* \"contracts/BusinessConsensus3.sol\":5598:5608  voter_maps */\n      0x0a\n        /* \"contracts/BusinessConsensus3.sol\":5609:5619  _messageID */\n      dup4\n      dup4\n        /* \"contracts/BusinessConsensus3.sol\":5598:5620  voter_maps[_messageID] */\n      mload(0x40)\n      tag_164\n      swap3\n      swap2\n      swap1\n      tag_135\n      jump\t// in\n    tag_164:\n      swap1\n      dup2\n      mstore\n      0x20\n      add\n      mload(0x40)\n      dup1\n      swap2\n      sub\n      swap1\n      keccak256\n        /* \"contracts/BusinessConsensus3.sol\":5598:5632  voter_maps[_messageID][msg.sender] */\n      0x00\n        /* \"contracts/BusinessConsensus3.sol\":5621:5631  msg.sender */\n      caller\n        /* \"contracts/BusinessConsensus3.sol\":5598:5632  voter_maps[_messageID][msg.sender] */\n      0xffffffffffffffffffffffffffffffffffffffff\n      and\n      0xffffffffffffffffffffffffffffffffffffffff\n      and\n      dup2\n      mstore\n      0x20\n      add\n      swap1\n      dup2\n      mstore\n      0x20\n      add\n      0x00\n      keccak256\n        /* \"contracts/BusinessConsensus3.sol\":5574:5633  Voters[_messageID].push(voter_maps[_messageID][msg.sender]) */\n      swap1\n      dup1\n      0x01\n      dup2\n      sload\n      add\n      dup1\n      dup3\n      sstore\n      dup1\n      swap2\n      pop\n      pop\n      0x01\n      swap1\n      sub\n      swap1\n      0x00\n      mstore\n      keccak256(0x00, 0x20)\n      add\n      0x00\n      swap1\n      swap2\n      swap1\n      swap2\n      swap1\n      swap2\n      pop\n      0x00\n      dup3\n      add\n      0x00\n      swap1\n      sload\n      swap1\n      0x0100\n      exp\n      swap1\n      div\n      0xff\n      and\n      dup2\n      0x00\n      add\n      exp(0x0100, 0x00)\n      dup2\n      sload\n      dup2\n      0xff\n      mul\n      not\n      and\n      swap1\n      dup4\n      iszero\n      iszero\n      mul\n      or\n      swap1\n      sstore\n      pop\n      0x00\n      dup3\n      add\n      0x01\n      swap1\n      sload\n      swap1\n      0x0100\n      exp\n      swap1\n      div\n      0xff\n      and\n      dup2\n      0x00\n      add\n      exp(0x0100, 0x01)\n      dup2\n      sload\n      dup2\n      0xff\n      mul\n      not\n      and\n      swap1\n      dup4\n      iszero\n      iszero\n      mul\n      or\n      swap1\n      sstore\n      pop\n      0x00\n      dup3\n      add\n      0x02\n      swap1\n      sload\n      swap1\n      0x0100\n      exp\n      swap1\n      div\n      0xffffffffffffffffffffffffffffffffffffffff\n      and\n      dup2\n      0x00\n      add\n      exp(0x0100, 0x02)\n      dup2\n      sload\n      dup2\n      0xffffffffffffffffffffffffffffffffffffffff\n      mul\n      not\n      and\n      swap1\n      dup4\n      0xffffffffffffffffffffffffffffffffffffffff\n      and\n      mul\n      or\n      swap1\n      sstore\n      pop\n      pop\n      pop\n        /* \"contracts/BusinessConsensus3.sol\":5372:5940  if(keccak256(bytes(response)) == keccak256(bytes(\"i disapprove\"))){\r... */\n      jump(tag_166)\n    tag_159:\n        /* \"contracts/BusinessConsensus3.sol\":5791:5795  true */\n      0x01\n        /* \"contracts/BusinessConsensus3.sol\":5748:5758  voter_maps */\n      0x0a\n        /* \"contracts/BusinessConsensus3.sol\":5759:5769  _messageID */\n      dup4\n      dup4\n        /* \"contracts/BusinessConsensus3.sol\":5748:5770  voter_maps[_messageID] */\n      mload(0x40)\n      tag_167\n      swap3\n      swap2\n      swap1\n      tag_135\n      jump\t// in\n    tag_167:\n      swap1\n      dup2\n      mstore\n      0x20\n      add\n      mload(0x40)\n      dup1\n      swap2\n      sub\n      swap1\n      keccak256\n        /* \"contracts/BusinessConsensus3.sol\":5748:5782  voter_maps[_messageID][msg.sender] */\n      0x00\n        /* \"contracts/BusinessConsensus3.sol\":5771:5781  msg.sender */\n      caller\n        /* \"contracts/BusinessConsensus3.sol\":5748:5782  voter_maps[_messageID][msg.sender] */\n      0xffffffffffffffffffffffffffffffffffffffff\n      and\n      0xffffffffffffffffffffffffffffffffffffffff\n      and\n      dup2\n      mstore\n      0x20\n      add\n      swap1\n      dup2\n      mstore\n      0x20\n      add\n      0x00\n      keccak256\n        /* \"contracts/BusinessConsensus3.sol\":5748:5788  voter_maps[_messageID][msg.sender].voted */\n      0x00\n      add\n      0x00\n        /* \"contracts/BusinessConsensus3.sol\":5748:5795  voter_maps[_messageID][msg.sender].voted = true */\n      0x0100\n      exp\n      dup2\n      sload\n      dup2\n      0xff\n      mul\n      not\n      and\n      swap1\n      dup4\n      iszero\n      iszero\n      mul\n      or\n      swap1\n      sstore\n      pop\n        /* \"contracts/BusinessConsensus3.sol\":5853:5854  1 */\n      0x01\n        /* \"contracts/BusinessConsensus3.sol\":5810:5827  businessProposals */\n      0x00\n        /* \"contracts/BusinessConsensus3.sol\":5828:5838  _messageID */\n      dup4\n      dup4\n        /* \"contracts/BusinessConsensus3.sol\":5810:5839  businessProposals[_messageID] */\n      mload(0x40)\n      tag_168\n      swap3\n      swap2\n      swap1\n      tag_135\n      jump\t// in\n    tag_168:\n      swap1\n      dup2\n      mstore\n      0x20\n      add\n      mload(0x40)\n      dup1\n      swap2\n      sub\n      swap1\n      keccak256\n        /* \"contracts/BusinessConsensus3.sol\":5810:5849  businessProposals[_messageID].voteCount */\n      0x00\n      add\n      0x00\n        /* \"contracts/BusinessConsensus3.sol\":5810:5854  businessProposals[_messageID].voteCount += 1 */\n      dup3\n      dup3\n      sload\n      tag_169\n      swap2\n      swap1\n      tag_152\n      jump\t// in\n    tag_169:\n      swap3\n      pop\n      pop\n      dup2\n      swap1\n      sstore\n      pop\n        /* \"contracts/BusinessConsensus3.sol\":5869:5875  Voters */\n      0x0b\n        /* \"contracts/BusinessConsensus3.sol\":5876:5886  _messageID */\n      dup3\n      dup3\n        /* \"contracts/BusinessConsensus3.sol\":5869:5887  Voters[_messageID] */\n      mload(0x40)\n      tag_170\n      swap3\n      swap2\n      swap1\n      tag_135\n      jump\t// in\n    tag_170:\n      swap1\n      dup2\n      mstore\n      0x20\n      add\n      mload(0x40)\n      dup1\n      swap2\n      sub\n      swap1\n      keccak256\n        /* \"contracts/BusinessConsensus3.sol\":5893:5903  voter_maps */\n      0x0a\n        /* \"contracts/BusinessConsensus3.sol\":5904:5914  _messageID */\n      dup4\n      dup4\n        /* \"contracts/BusinessConsensus3.sol\":5893:5915  voter_maps[_messageID] */\n      mload(0x40)\n      tag_171\n      swap3\n      swap2\n      swap1\n      tag_135\n      jump\t// in\n    tag_171:\n      swap1\n      dup2\n      mstore\n      0x20\n      add\n      mload(0x40)\n      dup1\n      swap2\n      sub\n      swap1\n      keccak256\n        /* \"contracts/BusinessConsensus3.sol\":5893:5927  voter_maps[_messageID][msg.sender] */\n      0x00\n        /* \"contracts/BusinessConsensus3.sol\":5916:5926  msg.sender */\n      caller\n        /* \"contracts/BusinessConsensus3.sol\":5893:5927  voter_maps[_messageID][msg.sender] */\n      0xffffffffffffffffffffffffffffffffffffffff\n      and\n      0xffffffffffffffffffffffffffffffffffffffff\n      and\n      dup2\n      mstore\n      0x20\n      add\n      swap1\n      dup2\n      mstore\n      0x20\n      add\n      0x00\n      keccak256\n        /* \"contracts/BusinessConsensus3.sol\":5869:5928  Voters[_messageID].push(voter_maps[_messageID][msg.sender]) */\n      swap1\n      dup1\n      0x01\n      dup2\n      sload\n      add\n      dup1\n      dup3\n      sstore\n      dup1\n      swap2\n      pop\n      pop\n      0x01\n      swap1\n      sub\n      swap1\n      0x00\n      mstore\n      keccak256(0x00, 0x20)\n      add\n      0x00\n      swap1\n      swap2\n      swap1\n      swap2\n      swap1\n      swap2\n      pop\n      0x00\n      dup3\n      add\n      0x00\n      swap1\n      sload\n      swap1\n      0x0100\n      exp\n      swap1\n      div\n      0xff\n      and\n      dup2\n      0x00\n      add\n      exp(0x0100, 0x00)\n      dup2\n      sload\n      dup2\n      0xff\n      mul\n      not\n      and\n      swap1\n      dup4\n      iszero\n      iszero\n      mul\n      or\n      swap1\n      sstore\n      pop\n      0x00\n      dup3\n      add\n      0x01\n      swap1\n      sload\n      swap1\n      0x0100\n      exp\n      swap1\n      div\n      0xff\n      and\n      dup2\n      0x00\n      add\n      exp(0x0100, 0x01)\n      dup2\n      sload\n      dup2\n      0xff\n      mul\n      not\n      and\n      swap1\n      dup4\n      iszero\n      iszero\n      mul\n      or\n      swap1\n      sstore\n      pop\n      0x00\n      dup3\n      add\n      0x02\n      swap1\n      sload\n      swap1\n      0x0100\n      exp\n      swap1\n      div\n      0xffffffffffffffffffffffffffffffffffffffff\n      and\n      dup2\n      0x00\n      add\n      exp(0x0100, 0x02)\n      dup2\n      sload\n      dup2\n      0xffffffffffffffffffffffffffffffffffffffff\n      mul\n      not\n      and\n      swap1\n      dup4\n      0xffffffffffffffffffffffffffffffffffffffff\n      and\n      mul\n      or\n      swap1\n      sstore\n      pop\n      pop\n      pop\n        /* \"contracts/BusinessConsensus3.sol\":5372:5940  if(keccak256(bytes(response)) == keccak256(bytes(\"i disapprove\"))){\r... */\n    tag_166:\n        /* \"contracts/BusinessConsensus3.sol\":4980:5940  if(keccak256(bytes(response)) == keccak256(bytes(\"i approve\"))){\r... */\n    tag_158:\n        /* \"contracts/BusinessConsensus3.sol\":4584:5957  function Vote(string memory response,string calldata _messageID) external {\r... */\n      pop\n      pop\n      pop\n      jump\t// out\n        /* \"contracts/BusinessConsensus3.sol\":984:1031  mapping(string => bytes32) public finalVerdicts */\n    tag_50:\n      0x07\n      dup2\n      dup1\n      mload\n      0x20\n      dup2\n      add\n      dup3\n      add\n      dup1\n      mload\n      dup5\n      dup3\n      mstore\n      0x20\n      dup4\n      add\n      0x20\n      dup6\n      add\n      keccak256\n      dup2\n      dup4\n      mstore\n      dup1\n      swap6\n      pop\n      pop\n      pop\n      pop\n      pop\n      pop\n      0x00\n      swap2\n      pop\n      swap1\n      pop\n      sload\n      dup2\n      jump\t// out\n        /* \"contracts/BusinessConsensus3.sol\":1038:1079  mapping(string => bool) public isCompiled */\n    tag_55:\n      0x08\n      dup2\n      dup1\n      mload\n      0x20\n      dup2\n      add\n      dup3\n      add\n      dup1\n      mload\n      dup5\n      dup3\n      mstore\n      0x20\n      dup4\n      add\n      0x20\n      dup6\n      add\n      keccak256\n      dup2\n      dup4\n      mstore\n      dup1\n      swap6\n      pop\n      pop\n      pop\n      pop\n      pop\n      pop\n      0x00\n      swap2\n      pop\n      sload\n      swap1\n      0x0100\n      exp\n      swap1\n      div\n      0xff\n      and\n      dup2\n      jump\t// out\n        /* \"contracts/BusinessConsensus3.sol\":1134:1192  mapping(string=>mapping(address=>Voter)) public voter_maps */\n    tag_61:\n      0x0a\n      dup3\n      dup1\n      mload\n      0x20\n      dup2\n      add\n      dup3\n      add\n      dup1\n      mload\n      dup5\n      dup3\n      mstore\n      0x20\n      dup4\n      add\n      0x20\n      dup6\n      add\n      keccak256\n      dup2\n      dup4\n      mstore\n      dup1\n      swap6\n      pop\n      pop\n      pop\n      pop\n      pop\n      pop\n      0x20\n      mstore\n      dup1\n      0x00\n      mstore\n      keccak256(0x00, 0x40)\n      0x00\n      swap2\n      pop\n      swap2\n      pop\n      pop\n      dup1\n      0x00\n      add\n      0x00\n      swap1\n      sload\n      swap1\n      0x0100\n      exp\n      swap1\n      div\n      0xff\n      and\n      swap1\n      dup1\n      0x00\n      add\n      0x01\n      swap1\n      sload\n      swap1\n      0x0100\n      exp\n      swap1\n      div\n      0xff\n      and\n      swap1\n      dup1\n      0x00\n      add\n      0x02\n      swap1\n      sload\n      swap1\n      0x0100\n      exp\n      swap1\n      div\n      0xffffffffffffffffffffffffffffffffffffffff\n      and\n      swap1\n      pop\n      dup4\n      jump\t// out\n        /* \"contracts/BusinessConsensus3.sol\":7000:7481  function retrieve_bundle(string calldata _messageID) external view returns (bytes32, string memory, uint256, Voter[] memory){\r... */\n    tag_67:\n        /* \"contracts/BusinessConsensus3.sol\":7076:7083  bytes32 */\n      0x00\n        /* \"contracts/BusinessConsensus3.sol\":7085:7098  string memory */\n      0x60\n        /* \"contracts/BusinessConsensus3.sol\":7100:7107  uint256 */\n      0x00\n        /* \"contracts/BusinessConsensus3.sol\":7109:7123  Voter[] memory */\n      0x60\n        /* \"contracts/BusinessConsensus3.sol\":7162:7179  businessProposals */\n      0x00\n        /* \"contracts/BusinessConsensus3.sol\":7180:7190  _messageID */\n      dup7\n      dup7\n        /* \"contracts/BusinessConsensus3.sol\":7162:7191  businessProposals[_messageID] */\n      mload(0x40)\n      tag_174\n      swap3\n      swap2\n      swap1\n      tag_135\n      jump\t// in\n    tag_174:\n      swap1\n      dup2\n      mstore\n      0x20\n      add\n      mload(0x40)\n      dup1\n      swap2\n      sub\n      swap1\n      keccak256\n        /* \"contracts/BusinessConsensus3.sol\":7162:7202  businessProposals[_messageID].expiryDate */\n      0x01\n      add\n      sload\n        /* \"contracts/BusinessConsensus3.sol\":7143:7158  block.timestamp */\n      timestamp\n        /* \"contracts/BusinessConsensus3.sol\":7143:7202  block.timestamp >= businessProposals[_messageID].expiryDate */\n      lt\n      iszero\n        /* \"contracts/BusinessConsensus3.sol\":7135:7239  require(block.timestamp >= businessProposals[_messageID].expiryDate, \"Verdict has not been reached yet\") */\n      tag_175\n      jumpi\n      mload(0x40)\n      0x08c379a000000000000000000000000000000000000000000000000000000000\n      dup2\n      mstore\n      0x04\n      add\n      tag_176\n      swap1\n      tag_177\n      jump\t// in\n    tag_176:\n      mload(0x40)\n      dup1\n      swap2\n      sub\n      swap1\n      revert\n    tag_175:\n        /* \"contracts/BusinessConsensus3.sol\":7250:7271  Voter[] memory voters */\n      0x00\n        /* \"contracts/BusinessConsensus3.sol\":7274:7280  Voters */\n      0x0b\n        /* \"contracts/BusinessConsensus3.sol\":7281:7291  _messageID */\n      dup8\n      dup8\n        /* \"contracts/BusinessConsensus3.sol\":7274:7292  Voters[_messageID] */\n      mload(0x40)\n      tag_178\n      swap3\n      swap2\n      swap1\n      tag_135\n      jump\t// in\n    tag_178:\n      swap1\n      dup2\n      mstore\n      0x20\n      add\n      mload(0x40)\n      dup1\n      swap2\n      sub\n      swap1\n      keccak256\n        /* \"contracts/BusinessConsensus3.sol\":7250:7292  Voter[] memory voters = Voters[_messageID] */\n      dup1\n      sload\n      dup1\n      0x20\n      mul\n      0x20\n      add\n      mload(0x40)\n      swap1\n      dup2\n      add\n      0x40\n      mstore\n      dup1\n      swap3\n      swap2\n      swap1\n      dup2\n      dup2\n      mstore\n      0x20\n      add\n      0x00\n      swap1\n    tag_179:\n      dup3\n      dup3\n      lt\n      iszero\n      tag_180\n      jumpi\n      dup4\n      dup3\n      swap1\n      0x00\n      mstore\n      keccak256(0x00, 0x20)\n      add\n      mload(0x40)\n      dup1\n      0x60\n      add\n      0x40\n      mstore\n      swap1\n      dup2\n      0x00\n      dup3\n      add\n      0x00\n      swap1\n      sload\n      swap1\n      0x0100\n      exp\n      swap1\n      div\n      0xff\n      and\n      iszero\n      iszero\n      iszero\n      iszero\n      dup2\n      mstore\n      0x20\n      add\n      0x00\n      dup3\n      add\n      0x01\n      swap1\n      sload\n      swap1\n      0x0100\n      exp\n      swap1\n      div\n      0xff\n      and\n      iszero\n      iszero\n      iszero\n      iszero\n      dup2\n      mstore\n      0x20\n      add\n      0x00\n      dup3\n      add\n      0x02\n      swap1\n      sload\n      swap1\n      0x0100\n      exp\n      swap1\n      div\n      0xffffffffffffffffffffffffffffffffffffffff\n      and\n      0xffffffffffffffffffffffffffffffffffffffff\n      and\n      0xffffffffffffffffffffffffffffffffffffffff\n      and\n      dup2\n      mstore\n      pop\n      pop\n      dup2\n      mstore\n      0x20\n      add\n      swap1\n      0x01\n      add\n      swap1\n      jump(tag_179)\n    tag_180:\n      pop\n      pop\n      pop\n      pop\n      swap1\n      pop\n        /* \"contracts/BusinessConsensus3.sol\":7303:7318  bytes32 verdict */\n      0x00\n        /* \"contracts/BusinessConsensus3.sol\":7321:7334  finalVerdicts */\n      0x07\n        /* \"contracts/BusinessConsensus3.sol\":7335:7345  _messageID */\n      dup9\n      dup9\n        /* \"contracts/BusinessConsensus3.sol\":7321:7346  finalVerdicts[_messageID] */\n      mload(0x40)\n      tag_182\n      swap3\n      swap2\n      swap1\n      tag_135\n      jump\t// in\n    tag_182:\n      swap1\n      dup2\n      mstore\n      0x20\n      add\n      mload(0x40)\n      dup1\n      swap2\n      sub\n      swap1\n      keccak256\n      sload\n        /* \"contracts/BusinessConsensus3.sol\":7303:7346  bytes32 verdict = finalVerdicts[_messageID] */\n      swap1\n      pop\n        /* \"contracts/BusinessConsensus3.sol\":7357:7370  uint256 count */\n      0x00\n        /* \"contracts/BusinessConsensus3.sol\":7373:7390  businessProposals */\n      dup1\n        /* \"contracts/BusinessConsensus3.sol\":7391:7401  _messageID */\n      dup10\n      dup10\n        /* \"contracts/BusinessConsensus3.sol\":7373:7402  businessProposals[_messageID] */\n      mload(0x40)\n      tag_183\n      swap3\n      swap2\n      swap1\n      tag_135\n      jump\t// in\n    tag_183:\n      swap1\n      dup2\n      mstore\n      0x20\n      add\n      mload(0x40)\n      dup1\n      swap2\n      sub\n      swap1\n      keccak256\n        /* \"contracts/BusinessConsensus3.sol\":7373:7412  businessProposals[_messageID].voteCount */\n      0x00\n      add\n      sload\n        /* \"contracts/BusinessConsensus3.sol\":7357:7412  uint256 count = businessProposals[_messageID].voteCount */\n      swap1\n      pop\n        /* \"contracts/BusinessConsensus3.sol\":7431:7438  verdict */\n      dup2\n        /* \"contracts/BusinessConsensus3.sol\":7439:7449  _messageID */\n      dup10\n      dup10\n        /* \"contracts/BusinessConsensus3.sol\":7450:7455  count */\n      dup4\n        /* \"contracts/BusinessConsensus3.sol\":7456:7462  voters */\n      dup7\n        /* \"contracts/BusinessConsensus3.sol\":7423:7463  return (verdict,_messageID,count,voters) */\n      dup4\n      dup4\n      dup1\n      dup1\n      0x1f\n      add\n      0x20\n      dup1\n      swap2\n      div\n      mul\n      0x20\n      add\n      mload(0x40)\n      swap1\n      dup2\n      add\n      0x40\n      mstore\n      dup1\n      swap4\n      swap3\n      swap2\n      swap1\n      dup2\n      dup2\n      mstore\n      0x20\n      add\n      dup4\n      dup4\n      dup1\n      dup3\n      dup5\n      calldatacopy\n      0x00\n      dup2\n      dup5\n      add\n      mstore\n      not(0x1f)\n      0x1f\n      dup3\n      add\n      and\n      swap1\n      pop\n      dup1\n      dup4\n      add\n      swap3\n      pop\n      pop\n      pop\n      pop\n      pop\n      pop\n      pop\n      swap3\n      pop\n      swap1\n      swap2\n      swap3\n      pop\n      swap7\n      pop\n      swap7\n      pop\n      swap7\n      pop\n      swap7\n      pop\n      pop\n      pop\n      pop\n        /* \"contracts/BusinessConsensus3.sol\":7000:7481  function retrieve_bundle(string calldata _messageID) external view returns (bytes32, string memory, uint256, Voter[] memory){\r... */\n      swap3\n      swap6\n      swap2\n      swap5\n      pop\n      swap3\n      pop\n      jump\t// out\n        /* \"contracts/BusinessConsensus3.sol\":3813:4576  function RegisterVoter(address voter,string calldata _messageID) external {\r... */\n    tag_73:\n        /* \"contracts/BusinessConsensus3.sol\":4008:4018  initiators */\n      0x01\n        /* \"contracts/BusinessConsensus3.sol\":4019:4029  _messageID */\n      dup3\n      dup3\n        /* \"contracts/BusinessConsensus3.sol\":4008:4030  initiators[_messageID] */\n      mload(0x40)\n      tag_185\n      swap3\n      swap2\n      swap1\n      tag_135\n      jump\t// in\n    tag_185:\n      swap1\n      dup2\n      mstore\n      0x20\n      add\n      mload(0x40)\n      dup1\n      swap2\n      sub\n      swap1\n      keccak256\n      0x00\n      swap1\n      sload\n      swap1\n      0x0100\n      exp\n      swap1\n      div\n      0xffffffffffffffffffffffffffffffffffffffff\n      and\n        /* \"contracts/BusinessConsensus3.sol\":3994:4030  msg.sender == initiators[_messageID] */\n      0xffffffffffffffffffffffffffffffffffffffff\n      and\n        /* \"contracts/BusinessConsensus3.sol\":3994:4004  msg.sender */\n      caller\n        /* \"contracts/BusinessConsensus3.sol\":3994:4030  msg.sender == initiators[_messageID] */\n      0xffffffffffffffffffffffffffffffffffffffff\n      and\n      eq\n        /* \"contracts/BusinessConsensus3.sol\":3972:4098  require(\r... */\n      tag_186\n      jumpi\n      mload(0x40)\n      0x08c379a000000000000000000000000000000000000000000000000000000000\n      dup2\n      mstore\n      0x04\n      add\n      tag_187\n      swap1\n      tag_188\n      jump\t// in\n    tag_187:\n      mload(0x40)\n      dup1\n      swap2\n      sub\n      swap1\n      revert\n    tag_186:\n        /* \"contracts/BusinessConsensus3.sol\":4126:4136  initiators */\n      0x01\n        /* \"contracts/BusinessConsensus3.sol\":4137:4147  _messageID */\n      dup3\n      dup3\n        /* \"contracts/BusinessConsensus3.sol\":4126:4148  initiators[_messageID] */\n      mload(0x40)\n      tag_189\n      swap3\n      swap2\n      swap1\n      tag_135\n      jump\t// in\n    tag_189:\n      swap1\n      dup2\n      mstore\n      0x20\n      add\n      mload(0x40)\n      dup1\n      swap2\n      sub\n      swap1\n      keccak256\n      0x00\n      swap1\n      sload\n      swap1\n      0x0100\n      exp\n      swap1\n      div\n      0xffffffffffffffffffffffffffffffffffffffff\n      and\n        /* \"contracts/BusinessConsensus3.sol\":4117:4148  voter != initiators[_messageID] */\n      0xffffffffffffffffffffffffffffffffffffffff\n      and\n        /* \"contracts/BusinessConsensus3.sol\":4117:4122  voter */\n      dup4\n        /* \"contracts/BusinessConsensus3.sol\":4117:4148  voter != initiators[_messageID] */\n      0xffffffffffffffffffffffffffffffffffffffff\n      and\n      eq\n      iszero\n        /* \"contracts/BusinessConsensus3.sol\":4109:4174  require(voter != initiators[_messageID], \"Initiator can't vote!\") */\n      tag_190\n      jumpi\n      mload(0x40)\n      0x08c379a000000000000000000000000000000000000000000000000000000000\n      dup2\n      mstore\n      0x04\n      add\n      tag_191\n      swap1\n      tag_192\n      jump\t// in\n    tag_191:\n      mload(0x40)\n      dup1\n      swap2\n      sub\n      swap1\n      revert\n    tag_190:\n        /* \"contracts/BusinessConsensus3.sol\":4246:4247  0 */\n      0x00\n        /* \"contracts/BusinessConsensus3.sol\":4195:4248  voter_maps[_messageID][voter].recipient == address(0) */\n      0xffffffffffffffffffffffffffffffffffffffff\n      and\n        /* \"contracts/BusinessConsensus3.sol\":4195:4205  voter_maps */\n      0x0a\n        /* \"contracts/BusinessConsensus3.sol\":4206:4216  _messageID */\n      dup4\n      dup4\n        /* \"contracts/BusinessConsensus3.sol\":4195:4217  voter_maps[_messageID] */\n      mload(0x40)\n      tag_193\n      swap3\n      swap2\n      swap1\n      tag_135\n      jump\t// in\n    tag_193:\n      swap1\n      dup2\n      mstore\n      0x20\n      add\n      mload(0x40)\n      dup1\n      swap2\n      sub\n      swap1\n      keccak256\n        /* \"contracts/BusinessConsensus3.sol\":4195:4224  voter_maps[_messageID][voter] */\n      0x00\n        /* \"contracts/BusinessConsensus3.sol\":4218:4223  voter */\n      dup6\n        /* \"contracts/BusinessConsensus3.sol\":4195:4224  voter_maps[_messageID][voter] */\n      0xffffffffffffffffffffffffffffffffffffffff\n      and\n      0xffffffffffffffffffffffffffffffffffffffff\n      and\n      dup2\n      mstore\n      0x20\n      add\n      swap1\n      dup2\n      mstore\n      0x20\n      add\n      0x00\n      keccak256\n        /* \"contracts/BusinessConsensus3.sol\":4195:4234  voter_maps[_messageID][voter].recipient */\n      0x00\n      add\n      0x02\n      swap1\n      sload\n      swap1\n      0x0100\n      exp\n      swap1\n      div\n      0xffffffffffffffffffffffffffffffffffffffff\n      and\n        /* \"contracts/BusinessConsensus3.sol\":4195:4248  voter_maps[_messageID][voter].recipient == address(0) */\n      0xffffffffffffffffffffffffffffffffffffffff\n      and\n      eq\n        /* \"contracts/BusinessConsensus3.sol\":4187:4284  require(voter_maps[_messageID][voter].recipient == address(0), \"Recipient is already registered\") */\n      tag_194\n      jumpi\n      mload(0x40)\n      0x08c379a000000000000000000000000000000000000000000000000000000000\n      dup2\n      mstore\n      0x04\n      add\n      tag_195\n      swap1\n      tag_196\n      jump\t// in\n    tag_195:\n      mload(0x40)\n      dup1\n      swap2\n      sub\n      swap1\n      revert\n    tag_194:\n        /* \"contracts/BusinessConsensus3.sol\":4323:4340  businessProposals */\n      0x00\n        /* \"contracts/BusinessConsensus3.sol\":4341:4351  _messageID */\n      dup3\n      dup3\n        /* \"contracts/BusinessConsensus3.sol\":4323:4352  businessProposals[_messageID] */\n      mload(0x40)\n      tag_197\n      swap3\n      swap2\n      swap1\n      tag_135\n      jump\t// in\n    tag_197:\n      swap1\n      dup2\n      mstore\n      0x20\n      add\n      mload(0x40)\n      dup1\n      swap2\n      sub\n      swap1\n      keccak256\n        /* \"contracts/BusinessConsensus3.sol\":4323:4363  businessProposals[_messageID].expiryDate */\n      0x01\n      add\n      sload\n        /* \"contracts/BusinessConsensus3.sol\":4305:4320  block.timestamp */\n      timestamp\n        /* \"contracts/BusinessConsensus3.sol\":4305:4363  block.timestamp < businessProposals[_messageID].expiryDate */\n      lt\n        /* \"contracts/BusinessConsensus3.sol\":4297:4404  require(block.timestamp < businessProposals[_messageID].expiryDate, \"Proposal has reached its expiry date\") */\n      tag_198\n      jumpi\n      mload(0x40)\n      0x08c379a000000000000000000000000000000000000000000000000000000000\n      dup2\n      mstore\n      0x04\n      add\n      tag_199\n      swap1\n      tag_200\n      jump\t// in\n    tag_199:\n      mload(0x40)\n      dup1\n      swap2\n      sub\n      swap1\n      revert\n    tag_198:\n        /* \"contracts/BusinessConsensus3.sol\":4417:4431  Voter memory x */\n      0x00\n        /* \"contracts/BusinessConsensus3.sol\":4434:4485  Voter({voted: false,recipient: voter, vote: false}) */\n      mload(0x40)\n      dup1\n      0x60\n      add\n      0x40\n      mstore\n      dup1\n        /* \"contracts/BusinessConsensus3.sol\":4448:4453  false */\n      0x00\n        /* \"contracts/BusinessConsensus3.sol\":4434:4485  Voter({voted: false,recipient: voter, vote: false}) */\n      iszero\n      iszero\n      dup2\n      mstore\n      0x20\n      add\n        /* \"contracts/BusinessConsensus3.sol\":4478:4483  false */\n      0x00\n        /* \"contracts/BusinessConsensus3.sol\":4434:4485  Voter({voted: false,recipient: voter, vote: false}) */\n      iszero\n      iszero\n      dup2\n      mstore\n      0x20\n      add\n        /* \"contracts/BusinessConsensus3.sol\":4465:4470  voter */\n      dup6\n        /* \"contracts/BusinessConsensus3.sol\":4434:4485  Voter({voted: false,recipient: voter, vote: false}) */\n      0xffffffffffffffffffffffffffffffffffffffff\n      and\n      dup2\n      mstore\n      pop\n        /* \"contracts/BusinessConsensus3.sol\":4417:4485  Voter memory x = Voter({voted: false,recipient: voter, vote: false}) */\n      swap1\n      pop\n        /* \"contracts/BusinessConsensus3.sol\":4528:4529  x */\n      dup1\n        /* \"contracts/BusinessConsensus3.sol\":4496:4506  voter_maps */\n      0x0a\n        /* \"contracts/BusinessConsensus3.sol\":4507:4517  _messageID */\n      dup5\n      dup5\n        /* \"contracts/BusinessConsensus3.sol\":4496:4518  voter_maps[_messageID] */\n      mload(0x40)\n      tag_201\n      swap3\n      swap2\n      swap1\n      tag_135\n      jump\t// in\n    tag_201:\n      swap1\n      dup2\n      mstore\n      0x20\n      add\n      mload(0x40)\n      dup1\n      swap2\n      sub\n      swap1\n      keccak256\n        /* \"contracts/BusinessConsensus3.sol\":4496:4525  voter_maps[_messageID][voter] */\n      0x00\n        /* \"contracts/BusinessConsensus3.sol\":4519:4524  voter */\n      dup7\n        /* \"contracts/BusinessConsensus3.sol\":4496:4525  voter_maps[_messageID][voter] */\n      0xffffffffffffffffffffffffffffffffffffffff\n      and\n      0xffffffffffffffffffffffffffffffffffffffff\n      and\n      dup2\n      mstore\n      0x20\n      add\n      swap1\n      dup2\n      mstore\n      0x20\n      add\n      0x00\n      keccak256\n        /* \"contracts/BusinessConsensus3.sol\":4496:4529  voter_maps[_messageID][voter] = x */\n      0x00\n      dup3\n      add\n      mload\n      dup2\n      0x00\n      add\n      exp(0x0100, 0x00)\n      dup2\n      sload\n      dup2\n      0xff\n      mul\n      not\n      and\n      swap1\n      dup4\n      iszero\n      iszero\n      mul\n      or\n      swap1\n      sstore\n      pop\n      0x20\n      dup3\n      add\n      mload\n      dup2\n      0x00\n      add\n      exp(0x0100, 0x01)\n      dup2\n      sload\n      dup2\n      0xff\n      mul\n      not\n      and\n      swap1\n      dup4\n      iszero\n      iszero\n      mul\n      or\n      swap1\n      sstore\n      pop\n      0x40\n      dup3\n      add\n      mload\n      dup2\n      0x00\n      add\n      exp(0x0100, 0x02)\n      dup2\n      sload\n      dup2\n      0xffffffffffffffffffffffffffffffffffffffff\n      mul\n      not\n      and\n      swap1\n      dup4\n      0xffffffffffffffffffffffffffffffffffffffff\n      and\n      mul\n      or\n      swap1\n      sstore\n      pop\n      swap1\n      pop\n      pop\n        /* \"contracts/BusinessConsensus3.sol\":4540:4544  keys */\n      0x0c\n        /* \"contracts/BusinessConsensus3.sol\":4545:4555  _messageID */\n      dup4\n      dup4\n        /* \"contracts/BusinessConsensus3.sol\":4540:4556  keys[_messageID] */\n      mload(0x40)\n      tag_202\n      swap3\n      swap2\n      swap1\n      tag_135\n      jump\t// in\n    tag_202:\n      swap1\n      dup2\n      mstore\n      0x20\n      add\n      mload(0x40)\n      dup1\n      swap2\n      sub\n      swap1\n      keccak256\n        /* \"contracts/BusinessConsensus3.sol\":4562:4567  voter */\n      dup5\n        /* \"contracts/BusinessConsensus3.sol\":4540:4568  keys[_messageID].push(voter) */\n      swap1\n      dup1\n      0x01\n      dup2\n      sload\n      add\n      dup1\n      dup3\n      sstore\n      dup1\n      swap2\n      pop\n      pop\n      0x01\n      swap1\n      sub\n      swap1\n      0x00\n      mstore\n      keccak256(0x00, 0x20)\n      add\n      0x00\n      swap1\n      swap2\n      swap1\n      swap2\n      swap1\n      swap2\n      0x0100\n      exp\n      dup2\n      sload\n      dup2\n      0xffffffffffffffffffffffffffffffffffffffff\n      mul\n      not\n      and\n      swap1\n      dup4\n      0xffffffffffffffffffffffffffffffffffffffff\n      and\n      mul\n      or\n      swap1\n      sstore\n      pop\n        /* \"contracts/BusinessConsensus3.sol\":3887:4576  {\r... */\n      pop\n        /* \"contracts/BusinessConsensus3.sol\":3813:4576  function RegisterVoter(address voter,string calldata _messageID) external {\r... */\n      pop\n      pop\n      pop\n      jump\t// out\n        /* \"contracts/BusinessConsensus3.sol\":1295:2522  function createContract(string memory _messageID, uint256 expiry, uint256 requiredPercentage,bytes32 _contents,string memory subject,string memory _messageDate) external{\r... */\n    tag_77:\n        /* \"contracts/BusinessConsensus3.sol\":1602:1603  0 */\n      0x00\n        /* \"contracts/BusinessConsensus3.sol\":1568:1604  initiators[_messageID] == address(0) */\n      0xffffffffffffffffffffffffffffffffffffffff\n      and\n        /* \"contracts/BusinessConsensus3.sol\":1568:1578  initiators */\n      0x01\n        /* \"contracts/BusinessConsensus3.sol\":1579:1589  _messageID */\n      dup8\n        /* \"contracts/BusinessConsensus3.sol\":1568:1590  initiators[_messageID] */\n      mload(0x40)\n      tag_205\n      swap2\n      swap1\n      tag_206\n      jump\t// in\n    tag_205:\n      swap1\n      dup2\n      mstore\n      0x20\n      add\n      mload(0x40)\n      dup1\n      swap2\n      sub\n      swap1\n      keccak256\n      0x00\n      swap1\n      sload\n      swap1\n      0x0100\n      exp\n      swap1\n      div\n      0xffffffffffffffffffffffffffffffffffffffff\n      and\n        /* \"contracts/BusinessConsensus3.sol\":1568:1604  initiators[_messageID] == address(0) */\n      0xffffffffffffffffffffffffffffffffffffffff\n      and\n      eq\n        /* \"contracts/BusinessConsensus3.sol\":1560:1633  require(initiators[_messageID] == address(0),\"Proposal already created!\") */\n      tag_207\n      jumpi\n      mload(0x40)\n      0x08c379a000000000000000000000000000000000000000000000000000000000\n      dup2\n      mstore\n      0x04\n      add\n      tag_208\n      swap1\n      tag_209\n      jump\t// in\n    tag_208:\n      mload(0x40)\n      dup1\n      swap2\n      sub\n      swap1\n      revert\n    tag_207:\n        /* \"contracts/BusinessConsensus3.sol\":1644:1668  Proposal memory proposal */\n      0x00\n        /* \"contracts/BusinessConsensus3.sol\":1671:1842  Proposal({\r... */\n      mload(0x40)\n      dup1\n      0x60\n      add\n      0x40\n      mstore\n      dup1\n        /* \"contracts/BusinessConsensus3.sol\":1710:1711  0 */\n      0x00\n        /* \"contracts/BusinessConsensus3.sol\":1671:1842  Proposal({\r... */\n      dup2\n      mstore\n      0x20\n      add\n        /* \"contracts/BusinessConsensus3.sol\":1761:1767  expiry */\n      dup8\n        /* \"contracts/BusinessConsensus3.sol\":1743:1758  block.timestamp */\n      timestamp\n        /* \"contracts/BusinessConsensus3.sol\":1743:1767  block.timestamp + expiry */\n      tag_210\n      swap2\n      swap1\n      tag_152\n      jump\t// in\n    tag_210:\n        /* \"contracts/BusinessConsensus3.sol\":1671:1842  Proposal({\r... */\n      dup2\n      mstore\n      0x20\n      add\n        /* \"contracts/BusinessConsensus3.sol\":1808:1826  requiredPercentage */\n      dup7\n        /* \"contracts/BusinessConsensus3.sol\":1671:1842  Proposal({\r... */\n      dup2\n      mstore\n      pop\n        /* \"contracts/BusinessConsensus3.sol\":1644:1842  Proposal memory proposal = Proposal({\r... */\n      swap1\n      pop\n        /* \"contracts/BusinessConsensus3.sol\":1872:1882  _messageID */\n      dup7\n        /* \"contracts/BusinessConsensus3.sol\":1857:1860  IDs */\n      0x02\n        /* \"contracts/BusinessConsensus3.sol\":1861:1868  subject */\n      dup5\n        /* \"contracts/BusinessConsensus3.sol\":1857:1869  IDs[subject] */\n      mload(0x40)\n      tag_211\n      swap2\n      swap1\n      tag_206\n      jump\t// in\n    tag_211:\n      swap1\n      dup2\n      mstore\n      0x20\n      add\n      mload(0x40)\n      dup1\n      swap2\n      sub\n      swap1\n      keccak256\n        /* \"contracts/BusinessConsensus3.sol\":1857:1882  IDs[subject] = _messageID */\n      swap1\n      dup1\n      mload\n      swap1\n      0x20\n      add\n      swap1\n      tag_212\n      swap3\n      swap2\n      swap1\n      tag_213\n      jump\t// in\n    tag_212:\n      pop\n        /* \"contracts/BusinessConsensus3.sol\":1922:1927  false */\n      0x00\n        /* \"contracts/BusinessConsensus3.sol\":1897:1907  isCompiled */\n      0x08\n        /* \"contracts/BusinessConsensus3.sol\":1908:1918  _messageID */\n      dup9\n        /* \"contracts/BusinessConsensus3.sol\":1897:1919  isCompiled[_messageID] */\n      mload(0x40)\n      tag_214\n      swap2\n      swap1\n      tag_206\n      jump\t// in\n    tag_214:\n      swap1\n      dup2\n      mstore\n      0x20\n      add\n      mload(0x40)\n      dup1\n      swap2\n      sub\n      swap1\n      keccak256\n      0x00\n        /* \"contracts/BusinessConsensus3.sol\":1897:1927  isCompiled[_messageID] = false */\n      0x0100\n      exp\n      dup2\n      sload\n      dup2\n      0xff\n      mul\n      not\n      and\n      swap1\n      dup4\n      iszero\n      iszero\n      mul\n      or\n      swap1\n      sstore\n      pop\n        /* \"contracts/BusinessConsensus3.sol\":1942:1980  finalVerdicts[_messageID] = \"Rejected\" */\n      0x52656a6563746564000000000000000000000000000000000000000000000000\n        /* \"contracts/BusinessConsensus3.sol\":1942:1955  finalVerdicts */\n      0x07\n        /* \"contracts/BusinessConsensus3.sol\":1956:1966  _messageID */\n      dup9\n        /* \"contracts/BusinessConsensus3.sol\":1942:1967  finalVerdicts[_messageID] */\n      mload(0x40)\n      tag_215\n      swap2\n      swap1\n      tag_206\n      jump\t// in\n    tag_215:\n      swap1\n      dup2\n      mstore\n      0x20\n      add\n      mload(0x40)\n      dup1\n      swap2\n      sub\n      swap1\n      keccak256\n        /* \"contracts/BusinessConsensus3.sol\":1942:1980  finalVerdicts[_messageID] = \"Rejected\" */\n      dup2\n      swap1\n      sstore\n      pop\n        /* \"contracts/BusinessConsensus3.sol\":2023:2029  expiry */\n      dup6\n        /* \"contracts/BusinessConsensus3.sol\":1995:2008  expiryLengths */\n      0x03\n        /* \"contracts/BusinessConsensus3.sol\":2009:2019  _messageID */\n      dup9\n        /* \"contracts/BusinessConsensus3.sol\":1995:2020  expiryLengths[_messageID] */\n      mload(0x40)\n      tag_216\n      swap2\n      swap1\n      tag_206\n      jump\t// in\n    tag_216:\n      swap1\n      dup2\n      mstore\n      0x20\n      add\n      mload(0x40)\n      dup1\n      swap2\n      sub\n      swap1\n      keccak256\n        /* \"contracts/BusinessConsensus3.sol\":1995:2029  expiryLengths[_messageID] = expiry */\n      dup2\n      swap1\n      sstore\n      pop\n        /* \"contracts/BusinessConsensus3.sol\":2069:2075  expiry */\n      dup6\n        /* \"contracts/BusinessConsensus3.sol\":2044:2057  expiryLengths */\n      0x03\n        /* \"contracts/BusinessConsensus3.sol\":2058:2065  subject */\n      dup5\n        /* \"contracts/BusinessConsensus3.sol\":2044:2066  expiryLengths[subject] */\n      mload(0x40)\n      tag_217\n      swap2\n      swap1\n      tag_206\n      jump\t// in\n    tag_217:\n      swap1\n      dup2\n      mstore\n      0x20\n      add\n      mload(0x40)\n      dup1\n      swap2\n      sub\n      swap1\n      keccak256\n        /* \"contracts/BusinessConsensus3.sol\":2044:2075  expiryLengths[subject] = expiry */\n      dup2\n      swap1\n      sstore\n      pop\n        /* \"contracts/BusinessConsensus3.sol\":2113:2122  _contents */\n      dup4\n        /* \"contracts/BusinessConsensus3.sol\":2090:2098  contents */\n      0x04\n        /* \"contracts/BusinessConsensus3.sol\":2099:2109  _messageID */\n      dup9\n        /* \"contracts/BusinessConsensus3.sol\":2090:2110  contents[_messageID] */\n      mload(0x40)\n      tag_218\n      swap2\n      swap1\n      tag_206\n      jump\t// in\n    tag_218:\n      swap1\n      dup2\n      mstore\n      0x20\n      add\n      mload(0x40)\n      dup1\n      swap2\n      sub\n      swap1\n      keccak256\n        /* \"contracts/BusinessConsensus3.sol\":2090:2122  contents[_messageID] = _contents */\n      dup2\n      swap1\n      sstore\n      pop\n        /* \"contracts/BusinessConsensus3.sol\":2157:2166  _contents */\n      dup4\n        /* \"contracts/BusinessConsensus3.sol\":2137:2145  contents */\n      0x04\n        /* \"contracts/BusinessConsensus3.sol\":2146:2153  subject */\n      dup5\n        /* \"contracts/BusinessConsensus3.sol\":2137:2154  contents[subject] */\n      mload(0x40)\n      tag_219\n      swap2\n      swap1\n      tag_206\n      jump\t// in\n    tag_219:\n      swap1\n      dup2\n      mstore\n      0x20\n      add\n      mload(0x40)\n      dup1\n      swap2\n      sub\n      swap1\n      keccak256\n        /* \"contracts/BusinessConsensus3.sol\":2137:2166  contents[subject] = _contents */\n      dup2\n      swap1\n      sstore\n      pop\n        /* \"contracts/BusinessConsensus3.sol\":2204:2211  subject */\n      dup3\n        /* \"contracts/BusinessConsensus3.sol\":2181:2189  subjects */\n      0x09\n        /* \"contracts/BusinessConsensus3.sol\":2190:2200  _messageID */\n      dup9\n        /* \"contracts/BusinessConsensus3.sol\":2181:2201  subjects[_messageID] */\n      mload(0x40)\n      tag_220\n      swap2\n      swap1\n      tag_206\n      jump\t// in\n    tag_220:\n      swap1\n      dup2\n      mstore\n      0x20\n      add\n      mload(0x40)\n      dup1\n      swap2\n      sub\n      swap1\n      keccak256\n        /* \"contracts/BusinessConsensus3.sol\":2181:2211  subjects[_messageID] = subject */\n      swap1\n      dup1\n      mload\n      swap1\n      0x20\n      add\n      swap1\n      tag_221\n      swap3\n      swap2\n      swap1\n      tag_213\n      jump\t// in\n    tag_221:\n      pop\n        /* \"contracts/BusinessConsensus3.sol\":2253:2265  _messageDate */\n      dup2\n        /* \"contracts/BusinessConsensus3.sol\":2226:2238  messageDates */\n      0x06\n        /* \"contracts/BusinessConsensus3.sol\":2239:2249  _messageID */\n      dup9\n        /* \"contracts/BusinessConsensus3.sol\":2226:2250  messageDates[_messageID] */\n      mload(0x40)\n      tag_222\n      swap2\n      swap1\n      tag_206\n      jump\t// in\n    tag_222:\n      swap1\n      dup2\n      mstore\n      0x20\n      add\n      mload(0x40)\n      dup1\n      swap2\n      sub\n      swap1\n      keccak256\n        /* \"contracts/BusinessConsensus3.sol\":2226:2265  messageDates[_messageID] = _messageDate */\n      swap1\n      dup1\n      mload\n      swap1\n      0x20\n      add\n      swap1\n      tag_223\n      swap3\n      swap2\n      swap1\n      tag_213\n      jump\t// in\n    tag_223:\n      pop\n        /* \"contracts/BusinessConsensus3.sol\":2307:2308  0 */\n      0x00\n        /* \"contracts/BusinessConsensus3.sol\":2280:2292  numApprovals */\n      0x05\n        /* \"contracts/BusinessConsensus3.sol\":2293:2303  _messageID */\n      dup9\n        /* \"contracts/BusinessConsensus3.sol\":2280:2304  numApprovals[_messageID] */\n      mload(0x40)\n      tag_224\n      swap2\n      swap1\n      tag_206\n      jump\t// in\n    tag_224:\n      swap1\n      dup2\n      mstore\n      0x20\n      add\n      mload(0x40)\n      dup1\n      swap2\n      sub\n      swap1\n      keccak256\n        /* \"contracts/BusinessConsensus3.sol\":2280:2308  numApprovals[_messageID] = 0 */\n      dup2\n      swap1\n      sstore\n      pop\n        /* \"contracts/BusinessConsensus3.sol\":2348:2358  msg.sender */\n      caller\n        /* \"contracts/BusinessConsensus3.sol\":2323:2333  initiators */\n      0x01\n        /* \"contracts/BusinessConsensus3.sol\":2334:2344  _messageID */\n      dup9\n        /* \"contracts/BusinessConsensus3.sol\":2323:2345  initiators[_messageID] */\n      mload(0x40)\n      tag_225\n      swap2\n      swap1\n      tag_206\n      jump\t// in\n    tag_225:\n      swap1\n      dup2\n      mstore\n      0x20\n      add\n      mload(0x40)\n      dup1\n      swap2\n      sub\n      swap1\n      keccak256\n      0x00\n        /* \"contracts/BusinessConsensus3.sol\":2323:2358  initiators[_messageID] = msg.sender */\n      0x0100\n      exp\n      dup2\n      sload\n      dup2\n      0xffffffffffffffffffffffffffffffffffffffff\n      mul\n      not\n      and\n      swap1\n      dup4\n      0xffffffffffffffffffffffffffffffffffffffff\n      and\n      mul\n      or\n      swap1\n      sstore\n      pop\n        /* \"contracts/BusinessConsensus3.sol\":2395:2405  msg.sender */\n      caller\n        /* \"contracts/BusinessConsensus3.sol\":2373:2383  initiators */\n      0x01\n        /* \"contracts/BusinessConsensus3.sol\":2384:2391  subject */\n      dup5\n        /* \"contracts/BusinessConsensus3.sol\":2373:2392  initiators[subject] */\n      mload(0x40)\n      tag_226\n      swap2\n      swap1\n      tag_206\n      jump\t// in\n    tag_226:\n      swap1\n      dup2\n      mstore\n      0x20\n      add\n      mload(0x40)\n      dup1\n      swap2\n      sub\n      swap1\n      keccak256\n      0x00\n        /* \"contracts/BusinessConsensus3.sol\":2373:2405  initiators[subject] = msg.sender */\n      0x0100\n      exp\n      dup2\n      sload\n      dup2\n      0xffffffffffffffffffffffffffffffffffffffff\n      mul\n      not\n      and\n      swap1\n      dup4\n      0xffffffffffffffffffffffffffffffffffffffff\n      and\n      mul\n      or\n      swap1\n      sstore\n      pop\n        /* \"contracts/BusinessConsensus3.sol\":2452:2460  proposal */\n      dup1\n        /* \"contracts/BusinessConsensus3.sol\":2420:2437  businessProposals */\n      0x00\n        /* \"contracts/BusinessConsensus3.sol\":2438:2448  _messageID */\n      dup9\n        /* \"contracts/BusinessConsensus3.sol\":2420:2449  businessProposals[_messageID] */\n      mload(0x40)\n      tag_227\n      swap2\n      swap1\n      tag_206\n      jump\t// in\n    tag_227:\n      swap1\n      dup2\n      mstore\n      0x20\n      add\n      mload(0x40)\n      dup1\n      swap2\n      sub\n      swap1\n      keccak256\n        /* \"contracts/BusinessConsensus3.sol\":2420:2460  businessProposals[_messageID] = proposal */\n      0x00\n      dup3\n      add\n      mload\n      dup2\n      0x00\n      add\n      sstore\n      0x20\n      dup3\n      add\n      mload\n      dup2\n      0x01\n      add\n      sstore\n      0x40\n      dup3\n      add\n      mload\n      dup2\n      0x02\n      add\n      sstore\n      swap1\n      pop\n      pop\n        /* \"contracts/BusinessConsensus3.sol\":2504:2512  proposal */\n      dup1\n        /* \"contracts/BusinessConsensus3.sol\":2475:2492  businessProposals */\n      0x00\n        /* \"contracts/BusinessConsensus3.sol\":2493:2500  subject */\n      dup5\n        /* \"contracts/BusinessConsensus3.sol\":2475:2501  businessProposals[subject] */\n      mload(0x40)\n      tag_228\n      swap2\n      swap1\n      tag_206\n      jump\t// in\n    tag_228:\n      swap1\n      dup2\n      mstore\n      0x20\n      add\n      mload(0x40)\n      dup1\n      swap2\n      sub\n      swap1\n      keccak256\n        /* \"contracts/BusinessConsensus3.sol\":2475:2512  businessProposals[subject] = proposal */\n      0x00\n      dup3\n      add\n      mload\n      dup2\n      0x00\n      add\n      sstore\n      0x20\n      dup3\n      add\n      mload\n      dup2\n      0x01\n      add\n      sstore\n      0x40\n      dup3\n      add\n      mload\n      dup2\n      0x02\n      add\n      sstore\n      swap1\n      pop\n      pop\n        /* \"contracts/BusinessConsensus3.sol\":1464:2522  {\r... */\n      pop\n        /* \"contracts/BusinessConsensus3.sol\":1295:2522  function createContract(string memory _messageID, uint256 expiry, uint256 requiredPercentage,bytes32 _contents,string memory subject,string memory _messageDate) external{\r... */\n      pop\n      pop\n      pop\n      pop\n      pop\n      pop\n      jump\t// out\n        /* \"contracts/BusinessConsensus3.sol\":6021:6992  function Consensus(string calldata _messageID) external {\r... */\n    tag_80:\n        /* \"contracts/BusinessConsensus3.sol\":6115:6132  businessProposals */\n      0x00\n        /* \"contracts/BusinessConsensus3.sol\":6133:6143  _messageID */\n      dup3\n      dup3\n        /* \"contracts/BusinessConsensus3.sol\":6115:6144  businessProposals[_messageID] */\n      mload(0x40)\n      tag_230\n      swap3\n      swap2\n      swap1\n      tag_135\n      jump\t// in\n    tag_230:\n      swap1\n      dup2\n      mstore\n      0x20\n      add\n      mload(0x40)\n      dup1\n      swap2\n      sub\n      swap1\n      keccak256\n        /* \"contracts/BusinessConsensus3.sol\":6115:6155  businessProposals[_messageID].expiryDate */\n      0x01\n      add\n      sload\n        /* \"contracts/BusinessConsensus3.sol\":6096:6111  block.timestamp */\n      timestamp\n        /* \"contracts/BusinessConsensus3.sol\":6096:6155  block.timestamp >= businessProposals[_messageID].expiryDate */\n      lt\n      iszero\n        /* \"contracts/BusinessConsensus3.sol\":6088:6192  require(block.timestamp >= businessProposals[_messageID].expiryDate, \"Verdict has not been reached yet\") */\n      tag_231\n      jumpi\n      mload(0x40)\n      0x08c379a000000000000000000000000000000000000000000000000000000000\n      dup2\n      mstore\n      0x04\n      add\n      tag_232\n      swap1\n      tag_177\n      jump\t// in\n    tag_232:\n      mload(0x40)\n      dup1\n      swap2\n      sub\n      swap1\n      revert\n    tag_231:\n        /* \"contracts/BusinessConsensus3.sol\":6237:6242  false */\n      0x00\n        /* \"contracts/BusinessConsensus3.sol\":6211:6242  isCompiled[_messageID] == false */\n      iszero\n      iszero\n        /* \"contracts/BusinessConsensus3.sol\":6211:6221  isCompiled */\n      0x08\n        /* \"contracts/BusinessConsensus3.sol\":6222:6232  _messageID */\n      dup4\n      dup4\n        /* \"contracts/BusinessConsensus3.sol\":6211:6233  isCompiled[_messageID] */\n      mload(0x40)\n      tag_233\n      swap3\n      swap2\n      swap1\n      tag_135\n      jump\t// in\n    tag_233:\n      swap1\n      dup2\n      mstore\n      0x20\n      add\n      mload(0x40)\n      dup1\n      swap2\n      sub\n      swap1\n      keccak256\n      0x00\n      swap1\n      sload\n      swap1\n      0x0100\n      exp\n      swap1\n      div\n      0xff\n      and\n        /* \"contracts/BusinessConsensus3.sol\":6211:6242  isCompiled[_messageID] == false */\n      iszero\n      iszero\n      eq\n        /* \"contracts/BusinessConsensus3.sol\":6203:6284  require(isCompiled[_messageID] == false, \"Consensus has already been calculated\") */\n      tag_234\n      jumpi\n      mload(0x40)\n      0x08c379a000000000000000000000000000000000000000000000000000000000\n      dup2\n      mstore\n      0x04\n      add\n      tag_235\n      swap1\n      tag_236\n      jump\t// in\n    tag_235:\n      mload(0x40)\n      dup1\n      swap2\n      sub\n      swap1\n      revert\n    tag_234:\n        /* \"contracts/BusinessConsensus3.sol\":6317:6327  initiators */\n      0x01\n        /* \"contracts/BusinessConsensus3.sol\":6328:6338  _messageID */\n      dup3\n      dup3\n        /* \"contracts/BusinessConsensus3.sol\":6317:6339  initiators[_messageID] */\n      mload(0x40)\n      tag_237\n      swap3\n      swap2\n      swap1\n      tag_135\n      jump\t// in\n    tag_237:\n      swap1\n      dup2\n      mstore\n      0x20\n      add\n      mload(0x40)\n      dup1\n      swap2\n      sub\n      swap1\n      keccak256\n      0x00\n      swap1\n      sload\n      swap1\n      0x0100\n      exp\n      swap1\n      div\n      0xffffffffffffffffffffffffffffffffffffffff\n      and\n        /* \"contracts/BusinessConsensus3.sol\":6303:6339  msg.sender == initiators[_messageID] */\n      0xffffffffffffffffffffffffffffffffffffffff\n      and\n        /* \"contracts/BusinessConsensus3.sol\":6303:6313  msg.sender */\n      caller\n        /* \"contracts/BusinessConsensus3.sol\":6303:6339  msg.sender == initiators[_messageID] */\n      0xffffffffffffffffffffffffffffffffffffffff\n      and\n      eq\n        /* \"contracts/BusinessConsensus3.sol\":6303:6403  msg.sender == initiators[_messageID] || voter_maps[_messageID][msg.sender].recipient != address(0x0) */\n      dup1\n      tag_238\n      jumpi\n      pop\n        /* \"contracts/BusinessConsensus3.sol\":6399:6402  0x0 */\n      0x00\n        /* \"contracts/BusinessConsensus3.sol\":6343:6403  voter_maps[_messageID][msg.sender].recipient != address(0x0) */\n      0xffffffffffffffffffffffffffffffffffffffff\n      and\n        /* \"contracts/BusinessConsensus3.sol\":6343:6353  voter_maps */\n      0x0a\n        /* \"contracts/BusinessConsensus3.sol\":6354:6364  _messageID */\n      dup4\n      dup4\n        /* \"contracts/BusinessConsensus3.sol\":6343:6365  voter_maps[_messageID] */\n      mload(0x40)\n      tag_239\n      swap3\n      swap2\n      swap1\n      tag_135\n      jump\t// in\n    tag_239:\n      swap1\n      dup2\n      mstore\n      0x20\n      add\n      mload(0x40)\n      dup1\n      swap2\n      sub\n      swap1\n      keccak256\n        /* \"contracts/BusinessConsensus3.sol\":6343:6377  voter_maps[_messageID][msg.sender] */\n      0x00\n        /* \"contracts/BusinessConsensus3.sol\":6366:6376  msg.sender */\n      caller\n        /* \"contracts/BusinessConsensus3.sol\":6343:6377  voter_maps[_messageID][msg.sender] */\n      0xffffffffffffffffffffffffffffffffffffffff\n      and\n      0xffffffffffffffffffffffffffffffffffffffff\n      and\n      dup2\n      mstore\n      0x20\n      add\n      swap1\n      dup2\n      mstore\n      0x20\n      add\n      0x00\n      keccak256\n        /* \"contracts/BusinessConsensus3.sol\":6343:6387  voter_maps[_messageID][msg.sender].recipient */\n      0x00\n      add\n      0x02\n      swap1\n      sload\n      swap1\n      0x0100\n      exp\n      swap1\n      div\n      0xffffffffffffffffffffffffffffffffffffffff\n      and\n        /* \"contracts/BusinessConsensus3.sol\":6343:6403  voter_maps[_messageID][msg.sender].recipient != address(0x0) */\n      0xffffffffffffffffffffffffffffffffffffffff\n      and\n      eq\n      iszero\n        /* \"contracts/BusinessConsensus3.sol\":6303:6403  msg.sender == initiators[_messageID] || voter_maps[_messageID][msg.sender].recipient != address(0x0) */\n    tag_238:\n        /* \"contracts/BusinessConsensus3.sol\":6295:6446  require(msg.sender == initiators[_messageID] || voter_maps[_messageID][msg.sender].recipient != address(0x0), \"You aren't authorize to compile Bundle\") */\n      tag_240\n      jumpi\n      mload(0x40)\n      0x08c379a000000000000000000000000000000000000000000000000000000000\n      dup2\n      mstore\n      0x04\n      add\n      tag_241\n      swap1\n      tag_242\n      jump\t// in\n    tag_241:\n      mload(0x40)\n      dup1\n      swap2\n      sub\n      swap1\n      revert\n    tag_240:\n        /* \"contracts/BusinessConsensus3.sol\":6457:6486  uint256 AccumulatedPercentage */\n      0x00\n        /* \"contracts/BusinessConsensus3.sol\":6540:6543  100 */\n      0x64\n        /* \"contracts/BusinessConsensus3.sol\":6515:6519  keys */\n      0x0c\n        /* \"contracts/BusinessConsensus3.sol\":6520:6530  _messageID */\n      dup5\n      dup5\n        /* \"contracts/BusinessConsensus3.sol\":6515:6531  keys[_messageID] */\n      mload(0x40)\n      tag_243\n      swap3\n      swap2\n      swap1\n      tag_135\n      jump\t// in\n    tag_243:\n      swap1\n      dup2\n      mstore\n      0x20\n      add\n      mload(0x40)\n      dup1\n      swap2\n      sub\n      swap1\n      keccak256\n        /* \"contracts/BusinessConsensus3.sol\":6515:6538  keys[_messageID].length */\n      dup1\n      sload\n      swap1\n      pop\n        /* \"contracts/BusinessConsensus3.sol\":6490:6502  numApprovals */\n      0x05\n        /* \"contracts/BusinessConsensus3.sol\":6503:6513  _messageID */\n      dup6\n      dup6\n        /* \"contracts/BusinessConsensus3.sol\":6490:6514  numApprovals[_messageID] */\n      mload(0x40)\n      tag_244\n      swap3\n      swap2\n      swap1\n      tag_135\n      jump\t// in\n    tag_244:\n      swap1\n      dup2\n      mstore\n      0x20\n      add\n      mload(0x40)\n      dup1\n      swap2\n      sub\n      swap1\n      keccak256\n      sload\n        /* \"contracts/BusinessConsensus3.sol\":6490:6538  numApprovals[_messageID]/keys[_messageID].length */\n      tag_245\n      swap2\n      swap1\n      tag_246\n      jump\t// in\n    tag_245:\n        /* \"contracts/BusinessConsensus3.sol\":6489:6543  (numApprovals[_messageID]/keys[_messageID].length)*100 */\n      tag_247\n      swap2\n      swap1\n      tag_248\n      jump\t// in\n    tag_247:\n        /* \"contracts/BusinessConsensus3.sol\":6457:6543  uint256 AccumulatedPercentage = (numApprovals[_messageID]/keys[_messageID].length)*100 */\n      swap1\n      pop\n        /* \"contracts/BusinessConsensus3.sol\":6582:6599  businessProposals */\n      0x00\n        /* \"contracts/BusinessConsensus3.sol\":6600:6610  _messageID */\n      dup4\n      dup4\n        /* \"contracts/BusinessConsensus3.sol\":6582:6611  businessProposals[_messageID] */\n      mload(0x40)\n      tag_249\n      swap3\n      swap2\n      swap1\n      tag_135\n      jump\t// in\n    tag_249:\n      swap1\n      dup2\n      mstore\n      0x20\n      add\n      mload(0x40)\n      dup1\n      swap2\n      sub\n      swap1\n      keccak256\n        /* \"contracts/BusinessConsensus3.sol\":6582:6631  businessProposals[_messageID].BusinessRequirement */\n      0x02\n      add\n      sload\n        /* \"contracts/BusinessConsensus3.sol\":6557:6578  AccumulatedPercentage */\n      dup2\n        /* \"contracts/BusinessConsensus3.sol\":6557:6631  AccumulatedPercentage >= businessProposals[_messageID].BusinessRequirement */\n      lt\n        /* \"contracts/BusinessConsensus3.sol\":6554:6697  if(AccumulatedPercentage >= businessProposals[_messageID].BusinessRequirement){\r... */\n      tag_250\n      jumpi\n        /* \"contracts/BusinessConsensus3.sol\":6647:6685  finalVerdicts[_messageID] = \"Accepted\" */\n      0x4163636570746564000000000000000000000000000000000000000000000000\n        /* \"contracts/BusinessConsensus3.sol\":6647:6660  finalVerdicts */\n      0x07\n        /* \"contracts/BusinessConsensus3.sol\":6661:6671  _messageID */\n      dup5\n      dup5\n        /* \"contracts/BusinessConsensus3.sol\":6647:6672  finalVerdicts[_messageID] */\n      mload(0x40)\n      tag_251\n      swap3\n      swap2\n      swap1\n      tag_135\n      jump\t// in\n    tag_251:\n      swap1\n      dup2\n      mstore\n      0x20\n      add\n      mload(0x40)\n      dup1\n      swap2\n      sub\n      swap1\n      keccak256\n        /* \"contracts/BusinessConsensus3.sol\":6647:6685  finalVerdicts[_messageID] = \"Accepted\" */\n      dup2\n      swap1\n      sstore\n      pop\n        /* \"contracts/BusinessConsensus3.sol\":6554:6697  if(AccumulatedPercentage >= businessProposals[_messageID].BusinessRequirement){\r... */\n    tag_250:\n        /* \"contracts/BusinessConsensus3.sol\":6711:6718  uint8 i */\n      0x00\n        /* \"contracts/BusinessConsensus3.sol\":6707:6945  for(uint8 i=0; i< keys[_messageID].length; i++){\r... */\n    tag_252:\n        /* \"contracts/BusinessConsensus3.sol\":6725:6729  keys */\n      0x0c\n        /* \"contracts/BusinessConsensus3.sol\":6730:6740  _messageID */\n      dup5\n      dup5\n        /* \"contracts/BusinessConsensus3.sol\":6725:6741  keys[_messageID] */\n      mload(0x40)\n      tag_255\n      swap3\n      swap2\n      swap1\n      tag_135\n      jump\t// in\n    tag_255:\n      swap1\n      dup2\n      mstore\n      0x20\n      add\n      mload(0x40)\n      dup1\n      swap2\n      sub\n      swap1\n      keccak256\n        /* \"contracts/BusinessConsensus3.sol\":6725:6748  keys[_messageID].length */\n      dup1\n      sload\n      swap1\n      pop\n        /* \"contracts/BusinessConsensus3.sol\":6722:6723  i */\n      dup2\n        /* \"contracts/BusinessConsensus3.sol\":6722:6748  i< keys[_messageID].length */\n      0xff\n      and\n      lt\n        /* \"contracts/BusinessConsensus3.sol\":6707:6945  for(uint8 i=0; i< keys[_messageID].length; i++){\r... */\n      iszero\n      tag_253\n      jumpi\n        /* \"contracts/BusinessConsensus3.sol\":6825:6830  false */\n      0x00\n        /* \"contracts/BusinessConsensus3.sol\":6772:6830  voter_maps[_messageID][keys[_messageID][i]].voted == false */\n      iszero\n      iszero\n        /* \"contracts/BusinessConsensus3.sol\":6772:6782  voter_maps */\n      0x0a\n        /* \"contracts/BusinessConsensus3.sol\":6783:6793  _messageID */\n      dup6\n      dup6\n        /* \"contracts/BusinessConsensus3.sol\":6772:6794  voter_maps[_messageID] */\n      mload(0x40)\n      tag_256\n      swap3\n      swap2\n      swap1\n      tag_135\n      jump\t// in\n    tag_256:\n      swap1\n      dup2\n      mstore\n      0x20\n      add\n      mload(0x40)\n      dup1\n      swap2\n      sub\n      swap1\n      keccak256\n        /* \"contracts/BusinessConsensus3.sol\":6772:6815  voter_maps[_messageID][keys[_messageID][i]] */\n      0x00\n        /* \"contracts/BusinessConsensus3.sol\":6795:6799  keys */\n      0x0c\n        /* \"contracts/BusinessConsensus3.sol\":6800:6810  _messageID */\n      dup8\n      dup8\n        /* \"contracts/BusinessConsensus3.sol\":6795:6811  keys[_messageID] */\n      mload(0x40)\n      tag_257\n      swap3\n      swap2\n      swap1\n      tag_135\n      jump\t// in\n    tag_257:\n      swap1\n      dup2\n      mstore\n      0x20\n      add\n      mload(0x40)\n      dup1\n      swap2\n      sub\n      swap1\n      keccak256\n        /* \"contracts/BusinessConsensus3.sol\":6812:6813  i */\n      dup5\n        /* \"contracts/BusinessConsensus3.sol\":6795:6814  keys[_messageID][i] */\n      0xff\n      and\n      dup2\n      sload\n      dup2\n      lt\n      tag_258\n      jumpi\n      tag_259\n      tag_260\n      jump\t// in\n    tag_259:\n    tag_258:\n      swap1\n      0x00\n      mstore\n      keccak256(0x00, 0x20)\n      add\n      0x00\n      swap1\n      sload\n      swap1\n      0x0100\n      exp\n      swap1\n      div\n      0xffffffffffffffffffffffffffffffffffffffff\n      and\n        /* \"contracts/BusinessConsensus3.sol\":6772:6815  voter_maps[_messageID][keys[_messageID][i]] */\n      0xffffffffffffffffffffffffffffffffffffffff\n      and\n      0xffffffffffffffffffffffffffffffffffffffff\n      and\n      dup2\n      mstore\n      0x20\n      add\n      swap1\n      dup2\n      mstore\n      0x20\n      add\n      0x00\n      keccak256\n        /* \"contracts/BusinessConsensus3.sol\":6772:6821  voter_maps[_messageID][keys[_messageID][i]].voted */\n      0x00\n      add\n      0x00\n      swap1\n      sload\n      swap1\n      0x0100\n      exp\n      swap1\n      div\n      0xff\n      and\n        /* \"contracts/BusinessConsensus3.sol\":6772:6830  voter_maps[_messageID][keys[_messageID][i]].voted == false */\n      iszero\n      iszero\n      eq\n        /* \"contracts/BusinessConsensus3.sol\":6769:6934  if(voter_maps[_messageID][keys[_messageID][i]].voted == false){\r... */\n      iszero\n      tag_262\n      jumpi\n        /* \"contracts/BusinessConsensus3.sol\":6850:6856  Voters */\n      0x0b\n        /* \"contracts/BusinessConsensus3.sol\":6857:6867  _messageID */\n      dup5\n      dup5\n        /* \"contracts/BusinessConsensus3.sol\":6850:6868  Voters[_messageID] */\n      mload(0x40)\n      tag_263\n      swap3\n      swap2\n      swap1\n      tag_135\n      jump\t// in\n    tag_263:\n      swap1\n      dup2\n      mstore\n      0x20\n      add\n      mload(0x40)\n      dup1\n      swap2\n      sub\n      swap1\n      keccak256\n        /* \"contracts/BusinessConsensus3.sol\":6874:6884  voter_maps */\n      0x0a\n        /* \"contracts/BusinessConsensus3.sol\":6885:6895  _messageID */\n      dup6\n      dup6\n        /* \"contracts/BusinessConsensus3.sol\":6874:6896  voter_maps[_messageID] */\n      mload(0x40)\n      tag_264\n      swap3\n      swap2\n      swap1\n      tag_135\n      jump\t// in\n    tag_264:\n      swap1\n      dup2\n      mstore\n      0x20\n      add\n      mload(0x40)\n      dup1\n      swap2\n      sub\n      swap1\n      keccak256\n        /* \"contracts/BusinessConsensus3.sol\":6874:6917  voter_maps[_messageID][keys[_messageID][i]] */\n      0x00\n        /* \"contracts/BusinessConsensus3.sol\":6897:6901  keys */\n      0x0c\n        /* \"contracts/BusinessConsensus3.sol\":6902:6912  _messageID */\n      dup8\n      dup8\n        /* \"contracts/BusinessConsensus3.sol\":6897:6913  keys[_messageID] */\n      mload(0x40)\n      tag_265\n      swap3\n      swap2\n      swap1\n      tag_135\n      jump\t// in\n    tag_265:\n      swap1\n      dup2\n      mstore\n      0x20\n      add\n      mload(0x40)\n      dup1\n      swap2\n      sub\n      swap1\n      keccak256\n        /* \"contracts/BusinessConsensus3.sol\":6914:6915  i */\n      dup5\n        /* \"contracts/BusinessConsensus3.sol\":6897:6916  keys[_messageID][i] */\n      0xff\n      and\n      dup2\n      sload\n      dup2\n      lt\n      tag_266\n      jumpi\n      tag_267\n      tag_260\n      jump\t// in\n    tag_267:\n    tag_266:\n      swap1\n      0x00\n      mstore\n      keccak256(0x00, 0x20)\n      add\n      0x00\n      swap1\n      sload\n      swap1\n      0x0100\n      exp\n      swap1\n      div\n      0xffffffffffffffffffffffffffffffffffffffff\n      and\n        /* \"contracts/BusinessConsensus3.sol\":6874:6917  voter_maps[_messageID][keys[_messageID][i]] */\n      0xffffffffffffffffffffffffffffffffffffffff\n      and\n      0xffffffffffffffffffffffffffffffffffffffff\n      and\n      dup2\n      mstore\n      0x20\n      add\n      swap1\n      dup2\n      mstore\n      0x20\n      add\n      0x00\n      keccak256\n        /* \"contracts/BusinessConsensus3.sol\":6850:6918  Voters[_messageID].push(voter_maps[_messageID][keys[_messageID][i]]) */\n      swap1\n      dup1\n      0x01\n      dup2\n      sload\n      add\n      dup1\n      dup3\n      sstore\n      dup1\n      swap2\n      pop\n      pop\n      0x01\n      swap1\n      sub\n      swap1\n      0x00\n      mstore\n      keccak256(0x00, 0x20)\n      add\n      0x00\n      swap1\n      swap2\n      swap1\n      swap2\n      swap1\n      swap2\n      pop\n      0x00\n      dup3\n      add\n      0x00\n      swap1\n      sload\n      swap1\n      0x0100\n      exp\n      swap1\n      div\n      0xff\n      and\n      dup2\n      0x00\n      add\n      exp(0x0100, 0x00)\n      dup2\n      sload\n      dup2\n      0xff\n      mul\n      not\n      and\n      swap1\n      dup4\n      iszero\n      iszero\n      mul\n      or\n      swap1\n      sstore\n      pop\n      0x00\n      dup3\n      add\n      0x01\n      swap1\n      sload\n      swap1\n      0x0100\n      exp\n      swap1\n      div\n      0xff\n      and\n      dup2\n      0x00\n      add\n      exp(0x0100, 0x01)\n      dup2\n      sload\n      dup2\n      0xff\n      mul\n      not\n      and\n      swap1\n      dup4\n      iszero\n      iszero\n      mul\n      or\n      swap1\n      sstore\n      pop\n      0x00\n      dup3\n      add\n      0x02\n      swap1\n      sload\n      swap1\n      0x0100\n      exp\n      swap1\n      div\n      0xffffffffffffffffffffffffffffffffffffffff\n      and\n      dup2\n      0x00\n      add\n      exp(0x0100, 0x02)\n      dup2\n      sload\n      dup2\n      0xffffffffffffffffffffffffffffffffffffffff\n      mul\n      not\n      and\n      swap1\n      dup4\n      0xffffffffffffffffffffffffffffffffffffffff\n      and\n      mul\n      or\n      swap1\n      sstore\n      pop\n      pop\n      pop\n        /* \"contracts/BusinessConsensus3.sol\":6769:6934  if(voter_maps[_messageID][keys[_messageID][i]].voted == false){\r... */\n    tag_262:\n        /* \"contracts/BusinessConsensus3.sol\":6750:6753  i++ */\n      dup1\n      dup1\n      tag_270\n      swap1\n      tag_271\n      jump\t// in\n    tag_270:\n      swap2\n      pop\n      pop\n        /* \"contracts/BusinessConsensus3.sol\":6707:6945  for(uint8 i=0; i< keys[_messageID].length; i++){\r... */\n      jump(tag_252)\n    tag_253:\n      pop\n        /* \"contracts/BusinessConsensus3.sol\":6980:6984  true */\n      0x01\n        /* \"contracts/BusinessConsensus3.sol\":6955:6965  isCompiled */\n      0x08\n        /* \"contracts/BusinessConsensus3.sol\":6966:6976  _messageID */\n      dup5\n      dup5\n        /* \"contracts/BusinessConsensus3.sol\":6955:6977  isCompiled[_messageID] */\n      mload(0x40)\n      tag_272\n      swap3\n      swap2\n      swap1\n      tag_135\n      jump\t// in\n    tag_272:\n      swap1\n      dup2\n      mstore\n      0x20\n      add\n      mload(0x40)\n      dup1\n      swap2\n      sub\n      swap1\n      keccak256\n      0x00\n        /* \"contracts/BusinessConsensus3.sol\":6955:6984  isCompiled[_messageID] = true */\n      0x0100\n      exp\n      dup2\n      sload\n      dup2\n      0xff\n      mul\n      not\n      and\n      swap1\n      dup4\n      iszero\n      iszero\n      mul\n      or\n      swap1\n      sstore\n      pop\n        /* \"contracts/BusinessConsensus3.sol\":6077:6992  {\r... */\n      pop\n        /* \"contracts/BusinessConsensus3.sol\":6021:6992  function Consensus(string calldata _messageID) external {\r... */\n      pop\n      pop\n      jump\t// out\n        /* \"contracts/BusinessConsensus3.sol\":932:977  mapping(string => string) public messageDates */\n    tag_83:\n      0x06\n      dup2\n      dup1\n      mload\n      0x20\n      dup2\n      add\n      dup3\n      add\n      dup1\n      mload\n      dup5\n      dup3\n      mstore\n      0x20\n      dup4\n      add\n      0x20\n      dup6\n      add\n      keccak256\n      dup2\n      dup4\n      mstore\n      dup1\n      swap6\n      pop\n      pop\n      pop\n      pop\n      pop\n      pop\n      0x00\n      swap2\n      pop\n      swap1\n      pop\n      dup1\n      sload\n      tag_273\n      swap1\n      tag_128\n      jump\t// in\n    tag_273:\n      dup1\n      0x1f\n      add\n      0x20\n      dup1\n      swap2\n      div\n      mul\n      0x20\n      add\n      mload(0x40)\n      swap1\n      dup2\n      add\n      0x40\n      mstore\n      dup1\n      swap3\n      swap2\n      swap1\n      dup2\n      dup2\n      mstore\n      0x20\n      add\n      dup3\n      dup1\n      sload\n      tag_274\n      swap1\n      tag_128\n      jump\t// in\n    tag_274:\n      dup1\n      iszero\n      tag_275\n      jumpi\n      dup1\n      0x1f\n      lt\n      tag_276\n      jumpi\n      0x0100\n      dup1\n      dup4\n      sload\n      div\n      mul\n      dup4\n      mstore\n      swap2\n      0x20\n      add\n      swap2\n      jump(tag_275)\n    tag_276:\n      dup3\n      add\n      swap2\n      swap1\n      0x00\n      mstore\n      keccak256(0x00, 0x20)\n      swap1\n    tag_277:\n      dup2\n      sload\n      dup2\n      mstore\n      swap1\n      0x01\n      add\n      swap1\n      0x20\n      add\n      dup1\n      dup4\n      gt\n      tag_277\n      jumpi\n      dup3\n      swap1\n      sub\n      0x1f\n      and\n      dup3\n      add\n      swap2\n    tag_275:\n      pop\n      pop\n      pop\n      pop\n      pop\n      dup2\n      jump\t// out\n        /* \"contracts/BusinessConsensus3.sol\":1199:1237  mapping(string=>Voter[]) public Voters */\n    tag_87:\n      0x0b\n      dup3\n      dup1\n      mload\n      0x20\n      dup2\n      add\n      dup3\n      add\n      dup1\n      mload\n      dup5\n      dup3\n      mstore\n      0x20\n      dup4\n      add\n      0x20\n      dup6\n      add\n      keccak256\n      dup2\n      dup4\n      mstore\n      dup1\n      swap6\n      pop\n      pop\n      pop\n      pop\n      pop\n      pop\n      dup2\n      dup2\n      sload\n      dup2\n      lt\n      tag_278\n      jumpi\n      0x00\n      dup1\n      revert\n    tag_278:\n      swap1\n      0x00\n      mstore\n      keccak256(0x00, 0x20)\n      add\n      0x00\n      swap2\n      pop\n      swap2\n      pop\n      pop\n      dup1\n      0x00\n      add\n      0x00\n      swap1\n      sload\n      swap1\n      0x0100\n      exp\n      swap1\n      div\n      0xff\n      and\n      swap1\n      dup1\n      0x00\n      add\n      0x01\n      swap1\n      sload\n      swap1\n      0x0100\n      exp\n      swap1\n      div\n      0xff\n      and\n      swap1\n      dup1\n      0x00\n      add\n      0x02\n      swap1\n      sload\n      swap1\n      0x0100\n      exp\n      swap1\n      div\n      0xffffffffffffffffffffffffffffffffffffffff\n      and\n      swap1\n      pop\n      dup4\n      jump\t// out\n        /* \"contracts/BusinessConsensus3.sol\":879:925  mapping(string => uint256) public numApprovals */\n    tag_91:\n      0x05\n      dup2\n      dup1\n      mload\n      0x20\n      dup2\n      add\n      dup3\n      add\n      dup1\n      mload\n      dup5\n      dup3\n      mstore\n      0x20\n      dup4\n      add\n      0x20\n      dup6\n      add\n      keccak256\n      dup2\n      dup4\n      mstore\n      dup1\n      swap6\n      pop\n      pop\n      pop\n      pop\n      pop\n      pop\n      0x00\n      swap2\n      pop\n      swap1\n      pop\n      sload\n      dup2\n      jump\t// out\n        /* \"contracts/BusinessConsensus3.sol\":2659:3500  function checkConsistency(string memory _subject, uint256 _businessRequirement, uint256 _expiryLength, bytes32 _contents) public view returns(bool, bool, bool){\r... */\n    tag_97:\n        /* \"contracts/BusinessConsensus3.sol\":2801:2805  bool */\n      0x00\n        /* \"contracts/BusinessConsensus3.sol\":2807:2811  bool */\n      dup1\n        /* \"contracts/BusinessConsensus3.sol\":2813:2817  bool */\n      0x00\n        /* \"contracts/BusinessConsensus3.sol\":2851:2861  initiators */\n      0x01\n        /* \"contracts/BusinessConsensus3.sol\":2862:2870  _subject */\n      dup8\n        /* \"contracts/BusinessConsensus3.sol\":2851:2871  initiators[_subject] */\n      mload(0x40)\n      tag_281\n      swap2\n      swap1\n      tag_206\n      jump\t// in\n    tag_281:\n      swap1\n      dup2\n      mstore\n      0x20\n      add\n      mload(0x40)\n      dup1\n      swap2\n      sub\n      swap1\n      keccak256\n      0x00\n      swap1\n      sload\n      swap1\n      0x0100\n      exp\n      swap1\n      div\n      0xffffffffffffffffffffffffffffffffffffffff\n      and\n        /* \"contracts/BusinessConsensus3.sol\":2837:2871  msg.sender == initiators[_subject] */\n      0xffffffffffffffffffffffffffffffffffffffff\n      and\n        /* \"contracts/BusinessConsensus3.sol\":2837:2847  msg.sender */\n      caller\n        /* \"contracts/BusinessConsensus3.sol\":2837:2871  msg.sender == initiators[_subject] */\n      0xffffffffffffffffffffffffffffffffffffffff\n      and\n      eq\n        /* \"contracts/BusinessConsensus3.sol\":2829:2896  require(msg.sender == initiators[_subject], \"You aren't Initiator\") */\n      tag_282\n      jumpi\n      mload(0x40)\n      0x08c379a000000000000000000000000000000000000000000000000000000000\n      dup2\n      mstore\n      0x04\n      add\n      tag_283\n      swap1\n      tag_284\n      jump\t// in\n    tag_283:\n      mload(0x40)\n      dup1\n      swap2\n      sub\n      swap1\n      revert\n    tag_282:\n        /* \"contracts/BusinessConsensus3.sol\":2907:2918  bool value1 */\n      0x00\n        /* \"contracts/BusinessConsensus3.sol\":2921:2925  true */\n      0x01\n        /* \"contracts/BusinessConsensus3.sol\":2907:2925  bool value1 = true */\n      swap1\n      pop\n        /* \"contracts/BusinessConsensus3.sol\":2936:2947  bool value2 */\n      0x00\n        /* \"contracts/BusinessConsensus3.sol\":2950:2954  true */\n      0x01\n        /* \"contracts/BusinessConsensus3.sol\":2936:2954  bool value2 = true */\n      swap1\n      pop\n        /* \"contracts/BusinessConsensus3.sol\":2965:2976  bool value3 */\n      0x00\n        /* \"contracts/BusinessConsensus3.sol\":2979:2983  true */\n      0x01\n        /* \"contracts/BusinessConsensus3.sol\":2965:2983  bool value3 = true */\n      swap1\n      pop\n        /* \"contracts/BusinessConsensus3.sol\":3029:3030  0 */\n      0x00\n        /* \"contracts/BusinessConsensus3.sol\":2997:3031  initiators[_subject] == address(0) */\n      0xffffffffffffffffffffffffffffffffffffffff\n      and\n        /* \"contracts/BusinessConsensus3.sol\":2997:3007  initiators */\n      0x01\n        /* \"contracts/BusinessConsensus3.sol\":3008:3016  _subject */\n      dup12\n        /* \"contracts/BusinessConsensus3.sol\":2997:3017  initiators[_subject] */\n      mload(0x40)\n      tag_285\n      swap2\n      swap1\n      tag_206\n      jump\t// in\n    tag_285:\n      swap1\n      dup2\n      mstore\n      0x20\n      add\n      mload(0x40)\n      dup1\n      swap2\n      sub\n      swap1\n      keccak256\n      0x00\n      swap1\n      sload\n      swap1\n      0x0100\n      exp\n      swap1\n      div\n      0xffffffffffffffffffffffffffffffffffffffff\n      and\n        /* \"contracts/BusinessConsensus3.sol\":2997:3031  initiators[_subject] == address(0) */\n      0xffffffffffffffffffffffffffffffffffffffff\n      and\n      eq\n        /* \"contracts/BusinessConsensus3.sol\":2994:3493  if(initiators[_subject] == address(0)){\r... */\n      iszero\n      tag_286\n      jumpi\n        /* \"contracts/BusinessConsensus3.sol\":3055:3059  true */\n      0x01\n        /* \"contracts/BusinessConsensus3.sol\":3061:3065  true */\n      dup1\n        /* \"contracts/BusinessConsensus3.sol\":3067:3071  true */\n      0x01\n        /* \"contracts/BusinessConsensus3.sol\":3047:3072  return (true, true, true) */\n      swap6\n      pop\n      swap6\n      pop\n      swap6\n      pop\n      pop\n      pop\n      pop\n      jump(tag_280)\n        /* \"contracts/BusinessConsensus3.sol\":2994:3493  if(initiators[_subject] == address(0)){\r... */\n    tag_286:\n        /* \"contracts/BusinessConsensus3.sol\":3140:3157  businessProposals */\n      0x00\n        /* \"contracts/BusinessConsensus3.sol\":3158:3166  _subject */\n      dup11\n        /* \"contracts/BusinessConsensus3.sol\":3140:3167  businessProposals[_subject] */\n      mload(0x40)\n      tag_288\n      swap2\n      swap1\n      tag_206\n      jump\t// in\n    tag_288:\n      swap1\n      dup2\n      mstore\n      0x20\n      add\n      mload(0x40)\n      dup1\n      swap2\n      sub\n      swap1\n      keccak256\n        /* \"contracts/BusinessConsensus3.sol\":3140:3187  businessProposals[_subject].BusinessRequirement */\n      0x02\n      add\n      sload\n        /* \"contracts/BusinessConsensus3.sol\":3116:3136  _businessRequirement */\n      dup10\n        /* \"contracts/BusinessConsensus3.sol\":3116:3187  _businessRequirement != businessProposals[_subject].BusinessRequirement */\n      eq\n        /* \"contracts/BusinessConsensus3.sol\":3113:3237  if(_businessRequirement != businessProposals[_subject].BusinessRequirement){\r... */\n      tag_289\n      jumpi\n        /* \"contracts/BusinessConsensus3.sol\":3216:3221  false */\n      0x00\n        /* \"contracts/BusinessConsensus3.sol\":3207:3221  value1 = false */\n      swap3\n      pop\n        /* \"contracts/BusinessConsensus3.sol\":3113:3237  if(_businessRequirement != businessProposals[_subject].BusinessRequirement){\r... */\n    tag_289:\n        /* \"contracts/BusinessConsensus3.sol\":3267:3275  contents */\n      0x04\n        /* \"contracts/BusinessConsensus3.sol\":3276:3284  _subject */\n      dup11\n        /* \"contracts/BusinessConsensus3.sol\":3267:3285  contents[_subject] */\n      mload(0x40)\n      tag_290\n      swap2\n      swap1\n      tag_206\n      jump\t// in\n    tag_290:\n      swap1\n      dup2\n      mstore\n      0x20\n      add\n      mload(0x40)\n      dup1\n      swap2\n      sub\n      swap1\n      keccak256\n      sload\n        /* \"contracts/BusinessConsensus3.sol\":3254:3263  _contents */\n      dup8\n        /* \"contracts/BusinessConsensus3.sol\":3254:3285  _contents != contents[_subject] */\n      eq\n        /* \"contracts/BusinessConsensus3.sol\":3251:3335  if(_contents != contents[_subject]){\r... */\n      tag_291\n      jumpi\n        /* \"contracts/BusinessConsensus3.sol\":3314:3319  false */\n      0x00\n        /* \"contracts/BusinessConsensus3.sol\":3305:3319  value2 = false */\n      swap2\n      pop\n        /* \"contracts/BusinessConsensus3.sol\":3251:3335  if(_contents != contents[_subject]){\r... */\n    tag_291:\n        /* \"contracts/BusinessConsensus3.sol\":3379:3392  _expiryLength */\n      dup8\n        /* \"contracts/BusinessConsensus3.sol\":3352:3365  expiryLengths */\n      0x03\n        /* \"contracts/BusinessConsensus3.sol\":3366:3374  _subject */\n      dup12\n        /* \"contracts/BusinessConsensus3.sol\":3352:3375  expiryLengths[_subject] */\n      mload(0x40)\n      tag_292\n      swap2\n      swap1\n      tag_206\n      jump\t// in\n    tag_292:\n      swap1\n      dup2\n      mstore\n      0x20\n      add\n      mload(0x40)\n      dup1\n      swap2\n      sub\n      swap1\n      keccak256\n      sload\n        /* \"contracts/BusinessConsensus3.sol\":3352:3392  expiryLengths[_subject] != _expiryLength */\n      eq\n        /* \"contracts/BusinessConsensus3.sol\":3349:3442  if(expiryLengths[_subject] != _expiryLength){\r... */\n      tag_293\n      jumpi\n        /* \"contracts/BusinessConsensus3.sol\":3421:3426  false */\n      0x00\n        /* \"contracts/BusinessConsensus3.sol\":3412:3426  value3 = false */\n      swap1\n      pop\n        /* \"contracts/BusinessConsensus3.sol\":3349:3442  if(expiryLengths[_subject] != _expiryLength){\r... */\n    tag_293:\n        /* \"contracts/BusinessConsensus3.sol\":3460:3466  value1 */\n      dup3\n        /* \"contracts/BusinessConsensus3.sol\":3467:3473  value2 */\n      dup3\n        /* \"contracts/BusinessConsensus3.sol\":3474:3480  value3 */\n      dup3\n        /* \"contracts/BusinessConsensus3.sol\":3452:3481  return (value1,value2,value3) */\n      swap6\n      pop\n      swap6\n      pop\n      swap6\n      pop\n      pop\n      pop\n      pop\n        /* \"contracts/BusinessConsensus3.sol\":2659:3500  function checkConsistency(string memory _subject, uint256 _businessRequirement, uint256 _expiryLength, bytes32 _contents) public view returns(bool, bool, bool){\r... */\n    tag_280:\n      swap5\n      pop\n      swap5\n      pop\n      swap5\n      swap2\n      pop\n      pop\n      jump\t// out\n        /* \"contracts/BusinessConsensus3.sol\":830:872  mapping(string => bytes32) public contents */\n    tag_102:\n      0x04\n      dup2\n      dup1\n      mload\n      0x20\n      dup2\n      add\n      dup3\n      add\n      dup1\n      mload\n      dup5\n      dup3\n      mstore\n      0x20\n      dup4\n      add\n      0x20\n      dup6\n      add\n      keccak256\n      dup2\n      dup4\n      mstore\n      dup1\n      swap6\n      pop\n      pop\n      pop\n      pop\n      pop\n      pop\n      0x00\n      swap2\n      pop\n      swap1\n      pop\n      sload\n      dup2\n      jump\t// out\n        /* \"contracts/BusinessConsensus3.sol\":776:823  mapping(string => uint256) public expiryLengths */\n    tag_106:\n      0x03\n      dup2\n      dup1\n      mload\n      0x20\n      dup2\n      add\n      dup3\n      add\n      dup1\n      mload\n      dup5\n      dup3\n      mstore\n      0x20\n      dup4\n      add\n      0x20\n      dup6\n      add\n      keccak256\n      dup2\n      dup4\n      mstore\n      dup1\n      swap6\n      pop\n      pop\n      pop\n      pop\n      pop\n      pop\n      0x00\n      swap2\n      pop\n      swap1\n      pop\n      sload\n      dup2\n      jump\t// out\n        /* \"contracts/BusinessConsensus3.sol\":3506:3707  function getIsCreated(string calldata subject) public view returns (string memory,string memory,Proposal memory){\r... */\n    tag_110:\n        /* \"contracts/BusinessConsensus3.sol\":3574:3587  string memory */\n      0x60\n        /* \"contracts/BusinessConsensus3.sol\":3588:3601  string memory */\n      dup1\n        /* \"contracts/BusinessConsensus3.sol\":3602:3617  Proposal memory */\n      tag_294\n      tag_295\n      jump\t// in\n    tag_294:\n        /* \"contracts/BusinessConsensus3.sol\":3637:3640  IDs */\n      0x02\n        /* \"contracts/BusinessConsensus3.sol\":3641:3648  subject */\n      dup6\n      dup6\n        /* \"contracts/BusinessConsensus3.sol\":3637:3649  IDs[subject] */\n      mload(0x40)\n      tag_297\n      swap3\n      swap2\n      swap1\n      tag_135\n      jump\t// in\n    tag_297:\n      swap1\n      dup2\n      mstore\n      0x20\n      add\n      mload(0x40)\n      dup1\n      swap2\n      sub\n      swap1\n      keccak256\n        /* \"contracts/BusinessConsensus3.sol\":3650:3662  messageDates */\n      0x06\n        /* \"contracts/BusinessConsensus3.sol\":3663:3670  subject */\n      dup7\n      dup7\n        /* \"contracts/BusinessConsensus3.sol\":3650:3671  messageDates[subject] */\n      mload(0x40)\n      tag_298\n      swap3\n      swap2\n      swap1\n      tag_135\n      jump\t// in\n    tag_298:\n      swap1\n      dup2\n      mstore\n      0x20\n      add\n      mload(0x40)\n      dup1\n      swap2\n      sub\n      swap1\n      keccak256\n        /* \"contracts/BusinessConsensus3.sol\":3672:3689  businessProposals */\n      0x00\n        /* \"contracts/BusinessConsensus3.sol\":3690:3697  subject */\n      dup8\n      dup8\n        /* \"contracts/BusinessConsensus3.sol\":3672:3698  businessProposals[subject] */\n      mload(0x40)\n      tag_299\n      swap3\n      swap2\n      swap1\n      tag_135\n      jump\t// in\n    tag_299:\n      swap1\n      dup2\n      mstore\n      0x20\n      add\n      mload(0x40)\n      dup1\n      swap2\n      sub\n      swap1\n      keccak256\n        /* \"contracts/BusinessConsensus3.sol\":3629:3699  return (IDs[subject],messageDates[subject],businessProposals[subject]) */\n      dup3\n      dup1\n      sload\n      tag_300\n      swap1\n      tag_128\n      jump\t// in\n    tag_300:\n      dup1\n      0x1f\n      add\n      0x20\n      dup1\n      swap2\n      div\n      mul\n      0x20\n      add\n      mload(0x40)\n      swap1\n      dup2\n      add\n      0x40\n      mstore\n      dup1\n      swap3\n      swap2\n      swap1\n      dup2\n      dup2\n      mstore\n      0x20\n      add\n      dup3\n      dup1\n      sload\n      tag_301\n      swap1\n      tag_128\n      jump\t// in\n    tag_301:\n      dup1\n      iszero\n      tag_302\n      jumpi\n      dup1\n      0x1f\n      lt\n      tag_303\n      jumpi\n      0x0100\n      dup1\n      dup4\n      sload\n      div\n      mul\n      dup4\n      mstore\n      swap2\n      0x20\n      add\n      swap2\n      jump(tag_302)\n    tag_303:\n      dup3\n      add\n      swap2\n      swap1\n      0x00\n      mstore\n      keccak256(0x00, 0x20)\n      swap1\n    tag_304:\n      dup2\n      sload\n      dup2\n      mstore\n      swap1\n      0x01\n      add\n      swap1\n      0x20\n      add\n      dup1\n      dup4\n      gt\n      tag_304\n      jumpi\n      dup3\n      swap1\n      sub\n      0x1f\n      and\n      dup3\n      add\n      swap2\n    tag_302:\n      pop\n      pop\n      pop\n      pop\n      pop\n      swap3\n      pop\n      dup2\n      dup1\n      sload\n      tag_305\n      swap1\n      tag_128\n      jump\t// in\n    tag_305:\n      dup1\n      0x1f\n      add\n      0x20\n      dup1\n      swap2\n      div\n      mul\n      0x20\n      add\n      mload(0x40)\n      swap1\n      dup2\n      add\n      0x40\n      mstore\n      dup1\n      swap3\n      swap2\n      swap1\n      dup2\n      dup2\n      mstore\n      0x20\n      add\n      dup3\n      dup1\n      sload\n      tag_306\n      swap1\n      tag_128\n      jump\t// in\n    tag_306:\n      dup1\n      iszero\n      tag_307\n      jumpi\n      dup1\n      0x1f\n      lt\n      tag_308\n      jumpi\n      0x0100\n      dup1\n      dup4\n      sload\n      div\n      mul\n      dup4\n      mstore\n      swap2\n      0x20\n      add\n      swap2\n      jump(tag_307)\n    tag_308:\n      dup3\n      add\n      swap2\n      swap1\n      0x00\n      mstore\n      keccak256(0x00, 0x20)\n      swap1\n    tag_309:\n      dup2\n      sload\n      dup2\n      mstore\n      swap1\n      0x01\n      add\n      swap1\n      0x20\n      add\n      dup1\n      dup4\n      gt\n      tag_309\n      jumpi\n      dup3\n      swap1\n      sub\n      0x1f\n      and\n      dup3\n      add\n      swap2\n    tag_307:\n      pop\n      pop\n      pop\n      pop\n      pop\n      swap2\n      pop\n      dup1\n      mload(0x40)\n      dup1\n      0x60\n      add\n      0x40\n      mstore\n      swap1\n      dup2\n      0x00\n      dup3\n      add\n      sload\n      dup2\n      mstore\n      0x20\n      add\n      0x01\n      dup3\n      add\n      sload\n      dup2\n      mstore\n      0x20\n      add\n      0x02\n      dup3\n      add\n      sload\n      dup2\n      mstore\n      pop\n      pop\n      swap1\n      pop\n      swap3\n      pop\n      swap3\n      pop\n      swap3\n      pop\n        /* \"contracts/BusinessConsensus3.sol\":3506:3707  function getIsCreated(string calldata subject) public view returns (string memory,string memory,Proposal memory){\r... */\n      swap3\n      pop\n      swap3\n      pop\n      swap3\n      jump\t// out\n        /* \"contracts/BusinessConsensus3.sol\":685:727  mapping(string=>address) public initiators */\n    tag_115:\n      0x01\n      dup2\n      dup1\n      mload\n      0x20\n      dup2\n      add\n      dup3\n      add\n      dup1\n      mload\n      dup5\n      dup3\n      mstore\n      0x20\n      dup4\n      add\n      0x20\n      dup6\n      add\n      keccak256\n      dup2\n      dup4\n      mstore\n      dup1\n      swap6\n      pop\n      pop\n      pop\n      pop\n      pop\n      pop\n      0x00\n      swap2\n      pop\n      sload\n      swap1\n      0x0100\n      exp\n      swap1\n      div\n      0xffffffffffffffffffffffffffffffffffffffff\n      and\n      dup2\n      jump\t// out\n        /* \"contracts/BusinessConsensus3.sol\":2528:2653  function getIsCompiled(string calldata _messageID) public view returns (bool){\r... */\n    tag_119:\n        /* \"contracts/BusinessConsensus3.sol\":2600:2604  bool */\n      0x00\n        /* \"contracts/BusinessConsensus3.sol\":2623:2633  isCompiled */\n      0x08\n        /* \"contracts/BusinessConsensus3.sol\":2634:2644  _messageID */\n      dup4\n      dup4\n        /* \"contracts/BusinessConsensus3.sol\":2623:2645  isCompiled[_messageID] */\n      mload(0x40)\n      tag_311\n      swap3\n      swap2\n      swap1\n      tag_135\n      jump\t// in\n    tag_311:\n      swap1\n      dup2\n      mstore\n      0x20\n      add\n      mload(0x40)\n      dup1\n      swap2\n      sub\n      swap1\n      keccak256\n      0x00\n      swap1\n      sload\n      swap1\n      0x0100\n      exp\n      swap1\n      div\n      0xff\n      and\n        /* \"contracts/BusinessConsensus3.sol\":2616:2645  return isCompiled[_messageID] */\n      swap1\n      pop\n        /* \"contracts/BusinessConsensus3.sol\":2528:2653  function getIsCompiled(string calldata _messageID) public view returns (bool){\r... */\n      swap3\n      swap2\n      pop\n      pop\n      jump\t// out\n        /* \"contracts/BusinessConsensus3.sol\":1086:1127  mapping(string => string) public subjects */\n    tag_123:\n      0x09\n      dup2\n      dup1\n      mload\n      0x20\n      dup2\n      add\n      dup3\n      add\n      dup1\n      mload\n      dup5\n      dup3\n      mstore\n      0x20\n      dup4\n      add\n      0x20\n      dup6\n      add\n      keccak256\n      dup2\n      dup4\n      mstore\n      dup1\n      swap6\n      pop\n      pop\n      pop\n      pop\n      pop\n      pop\n      0x00\n      swap2\n      pop\n      swap1\n      pop\n      dup1\n      sload\n      tag_312\n      swap1\n      tag_128\n      jump\t// in\n    tag_312:\n      dup1\n      0x1f\n      add\n      0x20\n      dup1\n      swap2\n      div\n      mul\n      0x20\n      add\n      mload(0x40)\n      swap1\n      dup2\n      add\n      0x40\n      mstore\n      dup1\n      swap3\n      swap2\n      swap1\n      dup2\n      dup2\n      mstore\n      0x20\n      add\n      dup3\n      dup1\n      sload\n      tag_313\n      swap1\n      tag_128\n      jump\t// in\n    tag_313:\n      dup1\n      iszero\n      tag_314\n      jumpi\n      dup1\n      0x1f\n      lt\n      tag_315\n      jumpi\n      0x0100\n      dup1\n      dup4\n      sload\n      div\n      mul\n      dup4\n      mstore\n      swap2\n      0x20\n      add\n      swap2\n      jump(tag_314)\n    tag_315:\n      dup3\n      add\n      swap2\n      swap1\n      0x00\n      mstore\n      keccak256(0x00, 0x20)\n      swap1\n    tag_316:\n      dup2\n      sload\n      dup2\n      mstore\n      swap1\n      0x01\n      add\n      swap1\n      0x20\n      add\n      dup1\n      dup4\n      gt\n      tag_316\n      jumpi\n      dup3\n      swap1\n      sub\n      0x1f\n      and\n      dup3\n      add\n      swap2\n    tag_314:\n      pop\n      pop\n      pop\n      pop\n      pop\n      dup2\n      jump\t// out\n    tag_213:\n      dup3\n      dup1\n      sload\n      tag_317\n      swap1\n      tag_128\n      jump\t// in\n    tag_317:\n      swap1\n      0x00\n      mstore\n      keccak256(0x00, 0x20)\n      swap1\n      0x1f\n      add\n      0x20\n      swap1\n      div\n      dup2\n      add\n      swap3\n      dup3\n      tag_319\n      jumpi\n      0x00\n      dup6\n      sstore\n      jump(tag_318)\n    tag_319:\n      dup3\n      0x1f\n      lt\n      tag_320\n      jumpi\n      dup1\n      mload\n      not(0xff)\n      and\n      dup4\n      dup1\n      add\n      or\n      dup6\n      sstore\n      jump(tag_318)\n    tag_320:\n      dup3\n      dup1\n      add\n      0x01\n      add\n      dup6\n      sstore\n      dup3\n      iszero\n      tag_318\n      jumpi\n      swap2\n      dup3\n      add\n    tag_321:\n      dup3\n      dup2\n      gt\n      iszero\n      tag_322\n      jumpi\n      dup3\n      mload\n      dup3\n      sstore\n      swap2\n      0x20\n      add\n      swap2\n      swap1\n      0x01\n      add\n      swap1\n      jump(tag_321)\n    tag_322:\n    tag_318:\n      pop\n      swap1\n      pop\n      tag_323\n      swap2\n      swap1\n      tag_324\n      jump\t// in\n    tag_323:\n      pop\n      swap1\n      jump\t// out\n    tag_295:\n      mload(0x40)\n      dup1\n      0x60\n      add\n      0x40\n      mstore\n      dup1\n      0x00\n      dup2\n      mstore\n      0x20\n      add\n      0x00\n      dup2\n      mstore\n      0x20\n      add\n      0x00\n      dup2\n      mstore\n      pop\n      swap1\n      jump\t// out\n    tag_324:\n    tag_325:\n      dup1\n      dup3\n      gt\n      iszero\n      tag_326\n      jumpi\n      0x00\n      dup2\n      0x00\n      swap1\n      sstore\n      pop\n      0x01\n      add\n      jump(tag_325)\n    tag_326:\n      pop\n      swap1\n      jump\t// out\n        /* \"#utility.yul\":7:419   */\n    tag_328:\n        /* \"#utility.yul\":85:90   */\n      0x00\n        /* \"#utility.yul\":110:176   */\n      tag_330\n        /* \"#utility.yul\":126:175   */\n      tag_331\n        /* \"#utility.yul\":168:174   */\n      dup5\n        /* \"#utility.yul\":126:175   */\n      tag_332\n      jump\t// in\n    tag_331:\n        /* \"#utility.yul\":110:176   */\n      tag_333\n      jump\t// in\n    tag_330:\n        /* \"#utility.yul\":101:176   */\n      swap1\n      pop\n        /* \"#utility.yul\":199:205   */\n      dup3\n        /* \"#utility.yul\":192:197   */\n      dup2\n        /* \"#utility.yul\":185:206   */\n      mstore\n        /* \"#utility.yul\":237:241   */\n      0x20\n        /* \"#utility.yul\":230:235   */\n      dup2\n        /* \"#utility.yul\":226:242   */\n      add\n        /* \"#utility.yul\":275:278   */\n      dup5\n        /* \"#utility.yul\":266:272   */\n      dup5\n        /* \"#utility.yul\":261:264   */\n      dup5\n        /* \"#utility.yul\":257:273   */\n      add\n        /* \"#utility.yul\":254:279   */\n      gt\n        /* \"#utility.yul\":251:363   */\n      iszero\n      tag_334\n      jumpi\n        /* \"#utility.yul\":282:361   */\n      tag_335\n      tag_336\n      jump\t// in\n    tag_335:\n        /* \"#utility.yul\":251:363   */\n    tag_334:\n        /* \"#utility.yul\":372:413   */\n      tag_337\n        /* \"#utility.yul\":406:412   */\n      dup5\n        /* \"#utility.yul\":401:404   */\n      dup3\n        /* \"#utility.yul\":396:399   */\n      dup6\n        /* \"#utility.yul\":372:413   */\n      tag_338\n      jump\t// in\n    tag_337:\n        /* \"#utility.yul\":91:419   */\n      pop\n        /* \"#utility.yul\":7:419   */\n      swap4\n      swap3\n      pop\n      pop\n      pop\n      jump\t// out\n        /* \"#utility.yul\":425:564   */\n    tag_339:\n        /* \"#utility.yul\":471:476   */\n      0x00\n        /* \"#utility.yul\":509:515   */\n      dup2\n        /* \"#utility.yul\":496:516   */\n      calldataload\n        /* \"#utility.yul\":487:516   */\n      swap1\n      pop\n        /* \"#utility.yul\":525:558   */\n      tag_341\n        /* \"#utility.yul\":552:557   */\n      dup2\n        /* \"#utility.yul\":525:558   */\n      tag_342\n      jump\t// in\n    tag_341:\n        /* \"#utility.yul\":425:564   */\n      swap3\n      swap2\n      pop\n      pop\n      jump\t// out\n        /* \"#utility.yul\":570:709   */\n    tag_343:\n        /* \"#utility.yul\":616:621   */\n      0x00\n        /* \"#utility.yul\":654:660   */\n      dup2\n        /* \"#utility.yul\":641:661   */\n      calldataload\n        /* \"#utility.yul\":632:661   */\n      swap1\n      pop\n        /* \"#utility.yul\":670:703   */\n      tag_345\n        /* \"#utility.yul\":697:702   */\n      dup2\n        /* \"#utility.yul\":670:703   */\n      tag_346\n      jump\t// in\n    tag_345:\n        /* \"#utility.yul\":570:709   */\n      swap3\n      swap2\n      pop\n      pop\n      jump\t// out\n        /* \"#utility.yul\":729:1282   */\n    tag_347:\n        /* \"#utility.yul\":787:795   */\n      0x00\n        /* \"#utility.yul\":797:803   */\n      dup1\n        /* \"#utility.yul\":847:850   */\n      dup4\n        /* \"#utility.yul\":840:844   */\n      0x1f\n        /* \"#utility.yul\":832:838   */\n      dup5\n        /* \"#utility.yul\":828:845   */\n      add\n        /* \"#utility.yul\":824:851   */\n      slt\n        /* \"#utility.yul\":814:936   */\n      tag_349\n      jumpi\n        /* \"#utility.yul\":855:934   */\n      tag_350\n      tag_351\n      jump\t// in\n    tag_350:\n        /* \"#utility.yul\":814:936   */\n    tag_349:\n        /* \"#utility.yul\":968:974   */\n      dup3\n        /* \"#utility.yul\":955:975   */\n      calldataload\n        /* \"#utility.yul\":945:975   */\n      swap1\n      pop\n        /* \"#utility.yul\":998:1016   */\n      0xffffffffffffffff\n        /* \"#utility.yul\":990:996   */\n      dup2\n        /* \"#utility.yul\":987:1017   */\n      gt\n        /* \"#utility.yul\":984:1101   */\n      iszero\n      tag_352\n      jumpi\n        /* \"#utility.yul\":1020:1099   */\n      tag_353\n      tag_354\n      jump\t// in\n    tag_353:\n        /* \"#utility.yul\":984:1101   */\n    tag_352:\n        /* \"#utility.yul\":1134:1138   */\n      0x20\n        /* \"#utility.yul\":1126:1132   */\n      dup4\n        /* \"#utility.yul\":1122:1139   */\n      add\n        /* \"#utility.yul\":1110:1139   */\n      swap2\n      pop\n        /* \"#utility.yul\":1188:1191   */\n      dup4\n        /* \"#utility.yul\":1180:1184   */\n      0x01\n        /* \"#utility.yul\":1172:1178   */\n      dup3\n        /* \"#utility.yul\":1168:1185   */\n      mul\n        /* \"#utility.yul\":1158:1166   */\n      dup4\n        /* \"#utility.yul\":1154:1186   */\n      add\n        /* \"#utility.yul\":1151:1192   */\n      gt\n        /* \"#utility.yul\":1148:1276   */\n      iszero\n      tag_355\n      jumpi\n        /* \"#utility.yul\":1195:1274   */\n      tag_356\n      tag_357\n      jump\t// in\n    tag_356:\n        /* \"#utility.yul\":1148:1276   */\n    tag_355:\n        /* \"#utility.yul\":729:1282   */\n      swap3\n      pop\n      swap3\n      swap1\n      pop\n      jump\t// out\n        /* \"#utility.yul\":1302:1642   */\n    tag_358:\n        /* \"#utility.yul\":1358:1363   */\n      0x00\n        /* \"#utility.yul\":1407:1410   */\n      dup3\n        /* \"#utility.yul\":1400:1404   */\n      0x1f\n        /* \"#utility.yul\":1392:1398   */\n      dup4\n        /* \"#utility.yul\":1388:1405   */\n      add\n        /* \"#utility.yul\":1384:1411   */\n      slt\n        /* \"#utility.yul\":1374:1496   */\n      tag_360\n      jumpi\n        /* \"#utility.yul\":1415:1494   */\n      tag_361\n      tag_351\n      jump\t// in\n    tag_361:\n        /* \"#utility.yul\":1374:1496   */\n    tag_360:\n        /* \"#utility.yul\":1532:1538   */\n      dup2\n        /* \"#utility.yul\":1519:1539   */\n      calldataload\n        /* \"#utility.yul\":1557:1636   */\n      tag_362\n        /* \"#utility.yul\":1632:1635   */\n      dup5\n        /* \"#utility.yul\":1624:1630   */\n      dup3\n        /* \"#utility.yul\":1617:1621   */\n      0x20\n        /* \"#utility.yul\":1609:1615   */\n      dup7\n        /* \"#utility.yul\":1605:1622   */\n      add\n        /* \"#utility.yul\":1557:1636   */\n      tag_328\n      jump\t// in\n    tag_362:\n        /* \"#utility.yul\":1548:1636   */\n      swap2\n      pop\n        /* \"#utility.yul\":1364:1642   */\n      pop\n        /* \"#utility.yul\":1302:1642   */\n      swap3\n      swap2\n      pop\n      pop\n      jump\t// out\n        /* \"#utility.yul\":1648:1787   */\n    tag_363:\n        /* \"#utility.yul\":1694:1699   */\n      0x00\n        /* \"#utility.yul\":1732:1738   */\n      dup2\n        /* \"#utility.yul\":1719:1739   */\n      calldataload\n        /* \"#utility.yul\":1710:1739   */\n      swap1\n      pop\n        /* \"#utility.yul\":1748:1781   */\n      tag_365\n        /* \"#utility.yul\":1775:1780   */\n      dup2\n        /* \"#utility.yul\":1748:1781   */\n      tag_366\n      jump\t// in\n    tag_365:\n        /* \"#utility.yul\":1648:1787   */\n      swap3\n      swap2\n      pop\n      pop\n      jump\t// out\n        /* \"#utility.yul\":1793:2467   */\n    tag_72:\n        /* \"#utility.yul\":1873:1879   */\n      0x00\n        /* \"#utility.yul\":1881:1887   */\n      dup1\n        /* \"#utility.yul\":1889:1895   */\n      0x00\n        /* \"#utility.yul\":1938:1940   */\n      0x40\n        /* \"#utility.yul\":1926:1935   */\n      dup5\n        /* \"#utility.yul\":1917:1924   */\n      dup7\n        /* \"#utility.yul\":1913:1936   */\n      sub\n        /* \"#utility.yul\":1909:1941   */\n      slt\n        /* \"#utility.yul\":1906:2025   */\n      iszero\n      tag_368\n      jumpi\n        /* \"#utility.yul\":1944:2023   */\n      tag_369\n      tag_370\n      jump\t// in\n    tag_369:\n        /* \"#utility.yul\":1906:2025   */\n    tag_368:\n        /* \"#utility.yul\":2064:2065   */\n      0x00\n        /* \"#utility.yul\":2089:2142   */\n      tag_371\n        /* \"#utility.yul\":2134:2141   */\n      dup7\n        /* \"#utility.yul\":2125:2131   */\n      dup3\n        /* \"#utility.yul\":2114:2123   */\n      dup8\n        /* \"#utility.yul\":2110:2132   */\n      add\n        /* \"#utility.yul\":2089:2142   */\n      tag_339\n      jump\t// in\n    tag_371:\n        /* \"#utility.yul\":2079:2142   */\n      swap4\n      pop\n        /* \"#utility.yul\":2035:2152   */\n      pop\n        /* \"#utility.yul\":2219:2221   */\n      0x20\n        /* \"#utility.yul\":2208:2217   */\n      dup5\n        /* \"#utility.yul\":2204:2222   */\n      add\n        /* \"#utility.yul\":2191:2223   */\n      calldataload\n        /* \"#utility.yul\":2250:2268   */\n      0xffffffffffffffff\n        /* \"#utility.yul\":2242:2248   */\n      dup2\n        /* \"#utility.yul\":2239:2269   */\n      gt\n        /* \"#utility.yul\":2236:2353   */\n      iszero\n      tag_372\n      jumpi\n        /* \"#utility.yul\":2272:2351   */\n      tag_373\n      tag_374\n      jump\t// in\n    tag_373:\n        /* \"#utility.yul\":2236:2353   */\n    tag_372:\n        /* \"#utility.yul\":2385:2450   */\n      tag_375\n        /* \"#utility.yul\":2442:2449   */\n      dup7\n        /* \"#utility.yul\":2433:2439   */\n      dup3\n        /* \"#utility.yul\":2422:2431   */\n      dup8\n        /* \"#utility.yul\":2418:2440   */\n      add\n        /* \"#utility.yul\":2385:2450   */\n      tag_347\n      jump\t// in\n    tag_375:\n        /* \"#utility.yul\":2367:2450   */\n      swap3\n      pop\n      swap3\n      pop\n        /* \"#utility.yul\":2162:2460   */\n      pop\n        /* \"#utility.yul\":1793:2467   */\n      swap3\n      pop\n      swap3\n      pop\n      swap3\n      jump\t// out\n        /* \"#utility.yul\":2473:3002   */\n    tag_66:\n        /* \"#utility.yul\":2544:2550   */\n      0x00\n        /* \"#utility.yul\":2552:2558   */\n      dup1\n        /* \"#utility.yul\":2601:2603   */\n      0x20\n        /* \"#utility.yul\":2589:2598   */\n      dup4\n        /* \"#utility.yul\":2580:2587   */\n      dup6\n        /* \"#utility.yul\":2576:2599   */\n      sub\n        /* \"#utility.yul\":2572:2604   */\n      slt\n        /* \"#utility.yul\":2569:2688   */\n      iszero\n      tag_377\n      jumpi\n        /* \"#utility.yul\":2607:2686   */\n      tag_378\n      tag_370\n      jump\t// in\n    tag_378:\n        /* \"#utility.yul\":2569:2688   */\n    tag_377:\n        /* \"#utility.yul\":2755:2756   */\n      0x00\n        /* \"#utility.yul\":2744:2753   */\n      dup4\n        /* \"#utility.yul\":2740:2757   */\n      add\n        /* \"#utility.yul\":2727:2758   */\n      calldataload\n        /* \"#utility.yul\":2785:2803   */\n      0xffffffffffffffff\n        /* \"#utility.yul\":2777:2783   */\n      dup2\n        /* \"#utility.yul\":2774:2804   */\n      gt\n        /* \"#utility.yul\":2771:2888   */\n      iszero\n      tag_379\n      jumpi\n        /* \"#utility.yul\":2807:2886   */\n      tag_380\n      tag_374\n      jump\t// in\n    tag_380:\n        /* \"#utility.yul\":2771:2888   */\n    tag_379:\n        /* \"#utility.yul\":2920:2985   */\n      tag_381\n        /* \"#utility.yul\":2977:2984   */\n      dup6\n        /* \"#utility.yul\":2968:2974   */\n      dup3\n        /* \"#utility.yul\":2957:2966   */\n      dup7\n        /* \"#utility.yul\":2953:2975   */\n      add\n        /* \"#utility.yul\":2920:2985   */\n      tag_347\n      jump\t// in\n    tag_381:\n        /* \"#utility.yul\":2902:2985   */\n      swap3\n      pop\n      swap3\n      pop\n        /* \"#utility.yul\":2698:2995   */\n      pop\n        /* \"#utility.yul\":2473:3002   */\n      swap3\n      pop\n      swap3\n      swap1\n      pop\n      jump\t// out\n        /* \"#utility.yul\":3008:3517   */\n    tag_35:\n        /* \"#utility.yul\":3077:3083   */\n      0x00\n        /* \"#utility.yul\":3126:3128   */\n      0x20\n        /* \"#utility.yul\":3114:3123   */\n      dup3\n        /* \"#utility.yul\":3105:3112   */\n      dup5\n        /* \"#utility.yul\":3101:3124   */\n      sub\n        /* \"#utility.yul\":3097:3129   */\n      slt\n        /* \"#utility.yul\":3094:3213   */\n      iszero\n      tag_383\n      jumpi\n        /* \"#utility.yul\":3132:3211   */\n      tag_384\n      tag_370\n      jump\t// in\n    tag_384:\n        /* \"#utility.yul\":3094:3213   */\n    tag_383:\n        /* \"#utility.yul\":3280:3281   */\n      0x00\n        /* \"#utility.yul\":3269:3278   */\n      dup3\n        /* \"#utility.yul\":3265:3282   */\n      add\n        /* \"#utility.yul\":3252:3283   */\n      calldataload\n        /* \"#utility.yul\":3310:3328   */\n      0xffffffffffffffff\n        /* \"#utility.yul\":3302:3308   */\n      dup2\n        /* \"#utility.yul\":3299:3329   */\n      gt\n        /* \"#utility.yul\":3296:3413   */\n      iszero\n      tag_385\n      jumpi\n        /* \"#utility.yul\":3332:3411   */\n      tag_386\n      tag_374\n      jump\t// in\n    tag_386:\n        /* \"#utility.yul\":3296:3413   */\n    tag_385:\n        /* \"#utility.yul\":3437:3500   */\n      tag_387\n        /* \"#utility.yul\":3492:3499   */\n      dup5\n        /* \"#utility.yul\":3483:3489   */\n      dup3\n        /* \"#utility.yul\":3472:3481   */\n      dup6\n        /* \"#utility.yul\":3468:3490   */\n      add\n        /* \"#utility.yul\":3437:3500   */\n      tag_358\n      jump\t// in\n    tag_387:\n        /* \"#utility.yul\":3427:3500   */\n      swap2\n      pop\n        /* \"#utility.yul\":3223:3510   */\n      pop\n        /* \"#utility.yul\":3008:3517   */\n      swap3\n      swap2\n      pop\n      pop\n      jump\t// out\n        /* \"#utility.yul\":3523:4177   */\n    tag_60:\n        /* \"#utility.yul\":3601:3607   */\n      0x00\n        /* \"#utility.yul\":3609:3615   */\n      dup1\n        /* \"#utility.yul\":3658:3660   */\n      0x40\n        /* \"#utility.yul\":3646:3655   */\n      dup4\n        /* \"#utility.yul\":3637:3644   */\n      dup6\n        /* \"#utility.yul\":3633:3656   */\n      sub\n        /* \"#utility.yul\":3629:3661   */\n      slt\n        /* \"#utility.yul\":3626:3745   */\n      iszero\n      tag_389\n      jumpi\n        /* \"#utility.yul\":3664:3743   */\n      tag_390\n      tag_370\n      jump\t// in\n    tag_390:\n        /* \"#utility.yul\":3626:3745   */\n    tag_389:\n        /* \"#utility.yul\":3812:3813   */\n      0x00\n        /* \"#utility.yul\":3801:3810   */\n      dup4\n        /* \"#utility.yul\":3797:3814   */\n      add\n        /* \"#utility.yul\":3784:3815   */\n      calldataload\n        /* \"#utility.yul\":3842:3860   */\n      0xffffffffffffffff\n        /* \"#utility.yul\":3834:3840   */\n      dup2\n        /* \"#utility.yul\":3831:3861   */\n      gt\n        /* \"#utility.yul\":3828:3945   */\n      iszero\n      tag_391\n      jumpi\n        /* \"#utility.yul\":3864:3943   */\n      tag_392\n      tag_374\n      jump\t// in\n    tag_392:\n        /* \"#utility.yul\":3828:3945   */\n    tag_391:\n        /* \"#utility.yul\":3969:4032   */\n      tag_393\n        /* \"#utility.yul\":4024:4031   */\n      dup6\n        /* \"#utility.yul\":4015:4021   */\n      dup3\n        /* \"#utility.yul\":4004:4013   */\n      dup7\n        /* \"#utility.yul\":4000:4022   */\n      add\n        /* \"#utility.yul\":3969:4032   */\n      tag_358\n      jump\t// in\n    tag_393:\n        /* \"#utility.yul\":3959:4032   */\n      swap3\n      pop\n        /* \"#utility.yul\":3755:4042   */\n      pop\n        /* \"#utility.yul\":4081:4083   */\n      0x20\n        /* \"#utility.yul\":4107:4160   */\n      tag_394\n        /* \"#utility.yul\":4152:4159   */\n      dup6\n        /* \"#utility.yul\":4143:4149   */\n      dup3\n        /* \"#utility.yul\":4132:4141   */\n      dup7\n        /* \"#utility.yul\":4128:4150   */\n      add\n        /* \"#utility.yul\":4107:4160   */\n      tag_339\n      jump\t// in\n    tag_394:\n        /* \"#utility.yul\":4097:4160   */\n      swap2\n      pop\n        /* \"#utility.yul\":4052:4170   */\n      pop\n        /* \"#utility.yul\":3523:4177   */\n      swap3\n      pop\n      swap3\n      swap1\n      pop\n      jump\t// out\n        /* \"#utility.yul\":4183:5037   */\n    tag_46:\n        /* \"#utility.yul\":4273:4279   */\n      0x00\n        /* \"#utility.yul\":4281:4287   */\n      dup1\n        /* \"#utility.yul\":4289:4295   */\n      0x00\n        /* \"#utility.yul\":4338:4340   */\n      0x40\n        /* \"#utility.yul\":4326:4335   */\n      dup5\n        /* \"#utility.yul\":4317:4324   */\n      dup7\n        /* \"#utility.yul\":4313:4336   */\n      sub\n        /* \"#utility.yul\":4309:4341   */\n      slt\n        /* \"#utility.yul\":4306:4425   */\n      iszero\n      tag_396\n      jumpi\n        /* \"#utility.yul\":4344:4423   */\n      tag_397\n      tag_370\n      jump\t// in\n    tag_397:\n        /* \"#utility.yul\":4306:4425   */\n    tag_396:\n        /* \"#utility.yul\":4492:4493   */\n      0x00\n        /* \"#utility.yul\":4481:4490   */\n      dup5\n        /* \"#utility.yul\":4477:4494   */\n      add\n        /* \"#utility.yul\":4464:4495   */\n      calldataload\n        /* \"#utility.yul\":4522:4540   */\n      0xffffffffffffffff\n        /* \"#utility.yul\":4514:4520   */\n      dup2\n        /* \"#utility.yul\":4511:4541   */\n      gt\n        /* \"#utility.yul\":4508:4625   */\n      iszero\n      tag_398\n      jumpi\n        /* \"#utility.yul\":4544:4623   */\n      tag_399\n      tag_374\n      jump\t// in\n    tag_399:\n        /* \"#utility.yul\":4508:4625   */\n    tag_398:\n        /* \"#utility.yul\":4649:4712   */\n      tag_400\n        /* \"#utility.yul\":4704:4711   */\n      dup7\n        /* \"#utility.yul\":4695:4701   */\n      dup3\n        /* \"#utility.yul\":4684:4693   */\n      dup8\n        /* \"#utility.yul\":4680:4702   */\n      add\n        /* \"#utility.yul\":4649:4712   */\n      tag_358\n      jump\t// in\n    tag_400:\n        /* \"#utility.yul\":4639:4712   */\n      swap4\n      pop\n        /* \"#utility.yul\":4435:4722   */\n      pop\n        /* \"#utility.yul\":4789:4791   */\n      0x20\n        /* \"#utility.yul\":4778:4787   */\n      dup5\n        /* \"#utility.yul\":4774:4792   */\n      add\n        /* \"#utility.yul\":4761:4793   */\n      calldataload\n        /* \"#utility.yul\":4820:4838   */\n      0xffffffffffffffff\n        /* \"#utility.yul\":4812:4818   */\n      dup2\n        /* \"#utility.yul\":4809:4839   */\n      gt\n        /* \"#utility.yul\":4806:4923   */\n      iszero\n      tag_401\n      jumpi\n        /* \"#utility.yul\":4842:4921   */\n      tag_402\n      tag_374\n      jump\t// in\n    tag_402:\n        /* \"#utility.yul\":4806:4923   */\n    tag_401:\n        /* \"#utility.yul\":4955:5020   */\n      tag_403\n        /* \"#utility.yul\":5012:5019   */\n      dup7\n        /* \"#utility.yul\":5003:5009   */\n      dup3\n        /* \"#utility.yul\":4992:5001   */\n      dup8\n        /* \"#utility.yul\":4988:5010   */\n      add\n        /* \"#utility.yul\":4955:5020   */\n      tag_347\n      jump\t// in\n    tag_403:\n        /* \"#utility.yul\":4937:5020   */\n      swap3\n      pop\n      swap3\n      pop\n        /* \"#utility.yul\":4732:5030   */\n      pop\n        /* \"#utility.yul\":4183:5037   */\n      swap3\n      pop\n      swap3\n      pop\n      swap3\n      jump\t// out\n        /* \"#utility.yul\":5043:5697   */\n    tag_29:\n        /* \"#utility.yul\":5121:5127   */\n      0x00\n        /* \"#utility.yul\":5129:5135   */\n      dup1\n        /* \"#utility.yul\":5178:5180   */\n      0x40\n        /* \"#utility.yul\":5166:5175   */\n      dup4\n        /* \"#utility.yul\":5157:5164   */\n      dup6\n        /* \"#utility.yul\":5153:5176   */\n      sub\n        /* \"#utility.yul\":5149:5181   */\n      slt\n        /* \"#utility.yul\":5146:5265   */\n      iszero\n      tag_405\n      jumpi\n        /* \"#utility.yul\":5184:5263   */\n      tag_406\n      tag_370\n      jump\t// in\n    tag_406:\n        /* \"#utility.yul\":5146:5265   */\n    tag_405:\n        /* \"#utility.yul\":5332:5333   */\n      0x00\n        /* \"#utility.yul\":5321:5330   */\n      dup4\n        /* \"#utility.yul\":5317:5334   */\n      add\n        /* \"#utility.yul\":5304:5335   */\n      calldataload\n        /* \"#utility.yul\":5362:5380   */\n      0xffffffffffffffff\n        /* \"#utility.yul\":5354:5360   */\n      dup2\n        /* \"#utility.yul\":5351:5381   */\n      gt\n        /* \"#utility.yul\":5348:5465   */\n      iszero\n      tag_407\n      jumpi\n        /* \"#utility.yul\":5384:5463   */\n      tag_408\n      tag_374\n      jump\t// in\n    tag_408:\n        /* \"#utility.yul\":5348:5465   */\n    tag_407:\n        /* \"#utility.yul\":5489:5552   */\n      tag_409\n        /* \"#utility.yul\":5544:5551   */\n      dup6\n        /* \"#utility.yul\":5535:5541   */\n      dup3\n        /* \"#utility.yul\":5524:5533   */\n      dup7\n        /* \"#utility.yul\":5520:5542   */\n      add\n        /* \"#utility.yul\":5489:5552   */\n      tag_358\n      jump\t// in\n    tag_409:\n        /* \"#utility.yul\":5479:5552   */\n      swap3\n      pop\n        /* \"#utility.yul\":5275:5562   */\n      pop\n        /* \"#utility.yul\":5601:5603   */\n      0x20\n        /* \"#utility.yul\":5627:5680   */\n      tag_410\n        /* \"#utility.yul\":5672:5679   */\n      dup6\n        /* \"#utility.yul\":5663:5669   */\n      dup3\n        /* \"#utility.yul\":5652:5661   */\n      dup7\n        /* \"#utility.yul\":5648:5670   */\n      add\n        /* \"#utility.yul\":5627:5680   */\n      tag_363\n      jump\t// in\n    tag_410:\n        /* \"#utility.yul\":5617:5680   */\n      swap2\n      pop\n        /* \"#utility.yul\":5572:5690   */\n      pop\n        /* \"#utility.yul\":5043:5697   */\n      swap3\n      pop\n      swap3\n      swap1\n      pop\n      jump\t// out\n        /* \"#utility.yul\":5703:6648   */\n    tag_96:\n        /* \"#utility.yul\":5799:5805   */\n      0x00\n        /* \"#utility.yul\":5807:5813   */\n      dup1\n        /* \"#utility.yul\":5815:5821   */\n      0x00\n        /* \"#utility.yul\":5823:5829   */\n      dup1\n        /* \"#utility.yul\":5872:5875   */\n      0x80\n        /* \"#utility.yul\":5860:5869   */\n      dup6\n        /* \"#utility.yul\":5851:5858   */\n      dup8\n        /* \"#utility.yul\":5847:5870   */\n      sub\n        /* \"#utility.yul\":5843:5876   */\n      slt\n        /* \"#utility.yul\":5840:5960   */\n      iszero\n      tag_412\n      jumpi\n        /* \"#utility.yul\":5879:5958   */\n      tag_413\n      tag_370\n      jump\t// in\n    tag_413:\n        /* \"#utility.yul\":5840:5960   */\n    tag_412:\n        /* \"#utility.yul\":6027:6028   */\n      0x00\n        /* \"#utility.yul\":6016:6025   */\n      dup6\n        /* \"#utility.yul\":6012:6029   */\n      add\n        /* \"#utility.yul\":5999:6030   */\n      calldataload\n        /* \"#utility.yul\":6057:6075   */\n      0xffffffffffffffff\n        /* \"#utility.yul\":6049:6055   */\n      dup2\n        /* \"#utility.yul\":6046:6076   */\n      gt\n        /* \"#utility.yul\":6043:6160   */\n      iszero\n      tag_414\n      jumpi\n        /* \"#utility.yul\":6079:6158   */\n      tag_415\n      tag_374\n      jump\t// in\n    tag_415:\n        /* \"#utility.yul\":6043:6160   */\n    tag_414:\n        /* \"#utility.yul\":6184:6247   */\n      tag_416\n        /* \"#utility.yul\":6239:6246   */\n      dup8\n        /* \"#utility.yul\":6230:6236   */\n      dup3\n        /* \"#utility.yul\":6219:6228   */\n      dup9\n        /* \"#utility.yul\":6215:6237   */\n      add\n        /* \"#utility.yul\":6184:6247   */\n      tag_358\n      jump\t// in\n    tag_416:\n        /* \"#utility.yul\":6174:6247   */\n      swap5\n      pop\n        /* \"#utility.yul\":5970:6257   */\n      pop\n        /* \"#utility.yul\":6296:6298   */\n      0x20\n        /* \"#utility.yul\":6322:6375   */\n      tag_417\n        /* \"#utility.yul\":6367:6374   */\n      dup8\n        /* \"#utility.yul\":6358:6364   */\n      dup3\n        /* \"#utility.yul\":6347:6356   */\n      dup9\n        /* \"#utility.yul\":6343:6365   */\n      add\n        /* \"#utility.yul\":6322:6375   */\n      tag_363\n      jump\t// in\n    tag_417:\n        /* \"#utility.yul\":6312:6375   */\n      swap4\n      pop\n        /* \"#utility.yul\":6267:6385   */\n      pop\n        /* \"#utility.yul\":6424:6426   */\n      0x40\n        /* \"#utility.yul\":6450:6503   */\n      tag_418\n        /* \"#utility.yul\":6495:6502   */\n      dup8\n        /* \"#utility.yul\":6486:6492   */\n      dup3\n        /* \"#utility.yul\":6475:6484   */\n      dup9\n        /* \"#utility.yul\":6471:6493   */\n      add\n        /* \"#utility.yul\":6450:6503   */\n      tag_363\n      jump\t// in\n    tag_418:\n        /* \"#utility.yul\":6440:6503   */\n      swap3\n      pop\n        /* \"#utility.yul\":6395:6513   */\n      pop\n        /* \"#utility.yul\":6552:6554   */\n      0x60\n        /* \"#utility.yul\":6578:6631   */\n      tag_419\n        /* \"#utility.yul\":6623:6630   */\n      dup8\n        /* \"#utility.yul\":6614:6620   */\n      dup3\n        /* \"#utility.yul\":6603:6612   */\n      dup9\n        /* \"#utility.yul\":6599:6621   */\n      add\n        /* \"#utility.yul\":6578:6631   */\n      tag_343\n      jump\t// in\n    tag_419:\n        /* \"#utility.yul\":6568:6631   */\n      swap2\n      pop\n        /* \"#utility.yul\":6523:6641   */\n      pop\n        /* \"#utility.yul\":5703:6648   */\n      swap3\n      swap6\n      swap2\n      swap5\n      pop\n      swap3\n      pop\n      jump\t// out\n        /* \"#utility.yul\":6654:8251   */\n    tag_76:\n        /* \"#utility.yul\":6788:6794   */\n      0x00\n        /* \"#utility.yul\":6796:6802   */\n      dup1\n        /* \"#utility.yul\":6804:6810   */\n      0x00\n        /* \"#utility.yul\":6812:6818   */\n      dup1\n        /* \"#utility.yul\":6820:6826   */\n      0x00\n        /* \"#utility.yul\":6828:6834   */\n      dup1\n        /* \"#utility.yul\":6877:6880   */\n      0xc0\n        /* \"#utility.yul\":6865:6874   */\n      dup8\n        /* \"#utility.yul\":6856:6863   */\n      dup10\n        /* \"#utility.yul\":6852:6875   */\n      sub\n        /* \"#utility.yul\":6848:6881   */\n      slt\n        /* \"#utility.yul\":6845:6965   */\n      iszero\n      tag_421\n      jumpi\n        /* \"#utility.yul\":6884:6963   */\n      tag_422\n      tag_370\n      jump\t// in\n    tag_422:\n        /* \"#utility.yul\":6845:6965   */\n    tag_421:\n        /* \"#utility.yul\":7032:7033   */\n      0x00\n        /* \"#utility.yul\":7021:7030   */\n      dup8\n        /* \"#utility.yul\":7017:7034   */\n      add\n        /* \"#utility.yul\":7004:7035   */\n      calldataload\n        /* \"#utility.yul\":7062:7080   */\n      0xffffffffffffffff\n        /* \"#utility.yul\":7054:7060   */\n      dup2\n        /* \"#utility.yul\":7051:7081   */\n      gt\n        /* \"#utility.yul\":7048:7165   */\n      iszero\n      tag_423\n      jumpi\n        /* \"#utility.yul\":7084:7163   */\n      tag_424\n      tag_374\n      jump\t// in\n    tag_424:\n        /* \"#utility.yul\":7048:7165   */\n    tag_423:\n        /* \"#utility.yul\":7189:7252   */\n      tag_425\n        /* \"#utility.yul\":7244:7251   */\n      dup10\n        /* \"#utility.yul\":7235:7241   */\n      dup3\n        /* \"#utility.yul\":7224:7233   */\n      dup11\n        /* \"#utility.yul\":7220:7242   */\n      add\n        /* \"#utility.yul\":7189:7252   */\n      tag_358\n      jump\t// in\n    tag_425:\n        /* \"#utility.yul\":7179:7252   */\n      swap7\n      pop\n        /* \"#utility.yul\":6975:7262   */\n      pop\n        /* \"#utility.yul\":7301:7303   */\n      0x20\n        /* \"#utility.yul\":7327:7380   */\n      tag_426\n        /* \"#utility.yul\":7372:7379   */\n      dup10\n        /* \"#utility.yul\":7363:7369   */\n      dup3\n        /* \"#utility.yul\":7352:7361   */\n      dup11\n        /* \"#utility.yul\":7348:7370   */\n      add\n        /* \"#utility.yul\":7327:7380   */\n      tag_363\n      jump\t// in\n    tag_426:\n        /* \"#utility.yul\":7317:7380   */\n      swap6\n      pop\n        /* \"#utility.yul\":7272:7390   */\n      pop\n        /* \"#utility.yul\":7429:7431   */\n      0x40\n        /* \"#utility.yul\":7455:7508   */\n      tag_427\n        /* \"#utility.yul\":7500:7507   */\n      dup10\n        /* \"#utility.yul\":7491:7497   */\n      dup3\n        /* \"#utility.yul\":7480:7489   */\n      dup11\n        /* \"#utility.yul\":7476:7498   */\n      add\n        /* \"#utility.yul\":7455:7508   */\n      tag_363\n      jump\t// in\n    tag_427:\n        /* \"#utility.yul\":7445:7508   */\n      swap5\n      pop\n        /* \"#utility.yul\":7400:7518   */\n      pop\n        /* \"#utility.yul\":7557:7559   */\n      0x60\n        /* \"#utility.yul\":7583:7636   */\n      tag_428\n        /* \"#utility.yul\":7628:7635   */\n      dup10\n        /* \"#utility.yul\":7619:7625   */\n      dup3\n        /* \"#utility.yul\":7608:7617   */\n      dup11\n        /* \"#utility.yul\":7604:7626   */\n      add\n        /* \"#utility.yul\":7583:7636   */\n      tag_343\n      jump\t// in\n    tag_428:\n        /* \"#utility.yul\":7573:7636   */\n      swap4\n      pop\n        /* \"#utility.yul\":7528:7646   */\n      pop\n        /* \"#utility.yul\":7713:7716   */\n      0x80\n        /* \"#utility.yul\":7702:7711   */\n      dup8\n        /* \"#utility.yul\":7698:7717   */\n      add\n        /* \"#utility.yul\":7685:7718   */\n      calldataload\n        /* \"#utility.yul\":7745:7763   */\n      0xffffffffffffffff\n        /* \"#utility.yul\":7737:7743   */\n      dup2\n        /* \"#utility.yul\":7734:7764   */\n      gt\n        /* \"#utility.yul\":7731:7848   */\n      iszero\n      tag_429\n      jumpi\n        /* \"#utility.yul\":7767:7846   */\n      tag_430\n      tag_374\n      jump\t// in\n    tag_430:\n        /* \"#utility.yul\":7731:7848   */\n    tag_429:\n        /* \"#utility.yul\":7872:7935   */\n      tag_431\n        /* \"#utility.yul\":7927:7934   */\n      dup10\n        /* \"#utility.yul\":7918:7924   */\n      dup3\n        /* \"#utility.yul\":7907:7916   */\n      dup11\n        /* \"#utility.yul\":7903:7925   */\n      add\n        /* \"#utility.yul\":7872:7935   */\n      tag_358\n      jump\t// in\n    tag_431:\n        /* \"#utility.yul\":7862:7935   */\n      swap3\n      pop\n        /* \"#utility.yul\":7656:7945   */\n      pop\n        /* \"#utility.yul\":8012:8015   */\n      0xa0\n        /* \"#utility.yul\":8001:8010   */\n      dup8\n        /* \"#utility.yul\":7997:8016   */\n      add\n        /* \"#utility.yul\":7984:8017   */\n      calldataload\n        /* \"#utility.yul\":8044:8062   */\n      0xffffffffffffffff\n        /* \"#utility.yul\":8036:8042   */\n      dup2\n        /* \"#utility.yul\":8033:8063   */\n      gt\n        /* \"#utility.yul\":8030:8147   */\n      iszero\n      tag_432\n      jumpi\n        /* \"#utility.yul\":8066:8145   */\n      tag_433\n      tag_374\n      jump\t// in\n    tag_433:\n        /* \"#utility.yul\":8030:8147   */\n    tag_432:\n        /* \"#utility.yul\":8171:8234   */\n      tag_434\n        /* \"#utility.yul\":8226:8233   */\n      dup10\n        /* \"#utility.yul\":8217:8223   */\n      dup3\n        /* \"#utility.yul\":8206:8215   */\n      dup11\n        /* \"#utility.yul\":8202:8224   */\n      add\n        /* \"#utility.yul\":8171:8234   */\n      tag_358\n      jump\t// in\n    tag_434:\n        /* \"#utility.yul\":8161:8234   */\n      swap2\n      pop\n        /* \"#utility.yul\":7955:8244   */\n      pop\n        /* \"#utility.yul\":6654:8251   */\n      swap3\n      swap6\n      pop\n      swap3\n      swap6\n      pop\n      swap3\n      swap6\n      jump\t// out\n        /* \"#utility.yul\":8257:8516   */\n    tag_435:\n        /* \"#utility.yul\":8366:8376   */\n      0x00\n        /* \"#utility.yul\":8387:8473   */\n      tag_437\n        /* \"#utility.yul\":8469:8472   */\n      dup4\n        /* \"#utility.yul\":8461:8467   */\n      dup4\n        /* \"#utility.yul\":8387:8473   */\n      tag_438\n      jump\t// in\n    tag_437:\n        /* \"#utility.yul\":8505:8509   */\n      0x60\n        /* \"#utility.yul\":8500:8503   */\n      dup4\n        /* \"#utility.yul\":8496:8510   */\n      add\n        /* \"#utility.yul\":8482:8510   */\n      swap1\n      pop\n        /* \"#utility.yul\":8257:8516   */\n      swap3\n      swap2\n      pop\n      pop\n      jump\t// out\n        /* \"#utility.yul\":8522:8630   */\n    tag_439:\n        /* \"#utility.yul\":8599:8623   */\n      tag_441\n        /* \"#utility.yul\":8617:8622   */\n      dup2\n        /* \"#utility.yul\":8599:8623   */\n      tag_442\n      jump\t// in\n    tag_441:\n        /* \"#utility.yul\":8594:8597   */\n      dup3\n        /* \"#utility.yul\":8587:8624   */\n      mstore\n        /* \"#utility.yul\":8522:8630   */\n      pop\n      pop\n      jump\t// out\n        /* \"#utility.yul\":8636:8754   */\n    tag_443:\n        /* \"#utility.yul\":8723:8747   */\n      tag_445\n        /* \"#utility.yul\":8741:8746   */\n      dup2\n        /* \"#utility.yul\":8723:8747   */\n      tag_442\n      jump\t// in\n    tag_445:\n        /* \"#utility.yul\":8718:8721   */\n      dup3\n        /* \"#utility.yul\":8711:8748   */\n      mstore\n        /* \"#utility.yul\":8636:8754   */\n      pop\n      pop\n      jump\t// out\n        /* \"#utility.yul\":8838:9730   */\n    tag_446:\n        /* \"#utility.yul\":8997:9000   */\n      0x00\n        /* \"#utility.yul\":9026:9100   */\n      tag_448\n        /* \"#utility.yul\":9094:9099   */\n      dup3\n        /* \"#utility.yul\":9026:9100   */\n      tag_449\n      jump\t// in\n    tag_448:\n        /* \"#utility.yul\":9116:9222   */\n      tag_450\n        /* \"#utility.yul\":9215:9221   */\n      dup2\n        /* \"#utility.yul\":9210:9213   */\n      dup6\n        /* \"#utility.yul\":9116:9222   */\n      tag_451\n      jump\t// in\n    tag_450:\n        /* \"#utility.yul\":9109:9222   */\n      swap4\n      pop\n        /* \"#utility.yul\":9246:9322   */\n      tag_452\n        /* \"#utility.yul\":9316:9321   */\n      dup4\n        /* \"#utility.yul\":9246:9322   */\n      tag_453\n      jump\t// in\n    tag_452:\n        /* \"#utility.yul\":9345:9352   */\n      dup1\n        /* \"#utility.yul\":9376:9377   */\n      0x00\n        /* \"#utility.yul\":9361:9705   */\n    tag_454:\n        /* \"#utility.yul\":9386:9392   */\n      dup4\n        /* \"#utility.yul\":9383:9384   */\n      dup2\n        /* \"#utility.yul\":9380:9393   */\n      lt\n        /* \"#utility.yul\":9361:9705   */\n      iszero\n      tag_456\n      jumpi\n        /* \"#utility.yul\":9462:9468   */\n      dup2\n        /* \"#utility.yul\":9456:9469   */\n      mload\n        /* \"#utility.yul\":9489:9592   */\n      tag_457\n        /* \"#utility.yul\":9588:9591   */\n      dup9\n        /* \"#utility.yul\":9573:9586   */\n      dup3\n        /* \"#utility.yul\":9489:9592   */\n      tag_435\n      jump\t// in\n    tag_457:\n        /* \"#utility.yul\":9482:9592   */\n      swap8\n      pop\n        /* \"#utility.yul\":9615:9695   */\n      tag_458\n        /* \"#utility.yul\":9688:9694   */\n      dup4\n        /* \"#utility.yul\":9615:9695   */\n      tag_459\n      jump\t// in\n    tag_458:\n        /* \"#utility.yul\":9605:9695   */\n      swap3\n      pop\n        /* \"#utility.yul\":9421:9705   */\n      pop\n        /* \"#utility.yul\":9408:9409   */\n      0x01\n        /* \"#utility.yul\":9405:9406   */\n      dup2\n        /* \"#utility.yul\":9401:9410   */\n      add\n        /* \"#utility.yul\":9396:9410   */\n      swap1\n      pop\n        /* \"#utility.yul\":9361:9705   */\n      jump(tag_454)\n    tag_456:\n        /* \"#utility.yul\":9365:9379   */\n      pop\n        /* \"#utility.yul\":9721:9724   */\n      dup6\n        /* \"#utility.yul\":9714:9724   */\n      swap4\n      pop\n        /* \"#utility.yul\":9002:9730   */\n      pop\n      pop\n      pop\n        /* \"#utility.yul\":8838:9730   */\n      swap3\n      swap2\n      pop\n      pop\n      jump\t// out\n        /* \"#utility.yul\":9736:9835   */\n    tag_460:\n        /* \"#utility.yul\":9807:9828   */\n      tag_462\n        /* \"#utility.yul\":9822:9827   */\n      dup2\n        /* \"#utility.yul\":9807:9828   */\n      tag_463\n      jump\t// in\n    tag_462:\n        /* \"#utility.yul\":9802:9805   */\n      dup3\n        /* \"#utility.yul\":9795:9829   */\n      mstore\n        /* \"#utility.yul\":9736:9835   */\n      pop\n      pop\n      jump\t// out\n        /* \"#utility.yul\":9841:9950   */\n    tag_464:\n        /* \"#utility.yul\":9922:9943   */\n      tag_466\n        /* \"#utility.yul\":9937:9942   */\n      dup2\n        /* \"#utility.yul\":9922:9943   */\n      tag_463\n      jump\t// in\n    tag_466:\n        /* \"#utility.yul\":9917:9920   */\n      dup3\n        /* \"#utility.yul\":9910:9944   */\n      mstore\n        /* \"#utility.yul\":9841:9950   */\n      pop\n      pop\n      jump\t// out\n        /* \"#utility.yul\":9956:10074   */\n    tag_467:\n        /* \"#utility.yul\":10043:10067   */\n      tag_469\n        /* \"#utility.yul\":10061:10066   */\n      dup2\n        /* \"#utility.yul\":10043:10067   */\n      tag_470\n      jump\t// in\n    tag_469:\n        /* \"#utility.yul\":10038:10041   */\n      dup3\n        /* \"#utility.yul\":10031:10068   */\n      mstore\n        /* \"#utility.yul\":9956:10074   */\n      pop\n      pop\n      jump\t// out\n        /* \"#utility.yul\":10104:10421   */\n    tag_471:\n        /* \"#utility.yul\":10220:10223   */\n      0x00\n        /* \"#utility.yul\":10241:10330   */\n      tag_473\n        /* \"#utility.yul\":10323:10329   */\n      dup4\n        /* \"#utility.yul\":10318:10321   */\n      dup6\n        /* \"#utility.yul\":10241:10330   */\n      tag_474\n      jump\t// in\n    tag_473:\n        /* \"#utility.yul\":10234:10330   */\n      swap4\n      pop\n        /* \"#utility.yul\":10340:10383   */\n      tag_475\n        /* \"#utility.yul\":10376:10382   */\n      dup4\n        /* \"#utility.yul\":10371:10374   */\n      dup6\n        /* \"#utility.yul\":10364:10369   */\n      dup5\n        /* \"#utility.yul\":10340:10383   */\n      tag_338\n      jump\t// in\n    tag_475:\n        /* \"#utility.yul\":10408:10414   */\n      dup3\n        /* \"#utility.yul\":10403:10406   */\n      dup5\n        /* \"#utility.yul\":10399:10415   */\n      add\n        /* \"#utility.yul\":10392:10415   */\n      swap1\n      pop\n        /* \"#utility.yul\":10104:10421   */\n      swap4\n      swap3\n      pop\n      pop\n      pop\n      jump\t// out\n        /* \"#utility.yul\":10427:10791   */\n    tag_476:\n        /* \"#utility.yul\":10515:10518   */\n      0x00\n        /* \"#utility.yul\":10543:10582   */\n      tag_478\n        /* \"#utility.yul\":10576:10581   */\n      dup3\n        /* \"#utility.yul\":10543:10582   */\n      tag_479\n      jump\t// in\n    tag_478:\n        /* \"#utility.yul\":10598:10669   */\n      tag_480\n        /* \"#utility.yul\":10662:10668   */\n      dup2\n        /* \"#utility.yul\":10657:10660   */\n      dup6\n        /* \"#utility.yul\":10598:10669   */\n      tag_481\n      jump\t// in\n    tag_480:\n        /* \"#utility.yul\":10591:10669   */\n      swap4\n      pop\n        /* \"#utility.yul\":10678:10730   */\n      tag_482\n        /* \"#utility.yul\":10723:10729   */\n      dup2\n        /* \"#utility.yul\":10718:10721   */\n      dup6\n        /* \"#utility.yul\":10711:10715   */\n      0x20\n        /* \"#utility.yul\":10704:10709   */\n      dup7\n        /* \"#utility.yul\":10700:10716   */\n      add\n        /* \"#utility.yul\":10678:10730   */\n      tag_483\n      jump\t// in\n    tag_482:\n        /* \"#utility.yul\":10755:10784   */\n      tag_484\n        /* \"#utility.yul\":10777:10783   */\n      dup2\n        /* \"#utility.yul\":10755:10784   */\n      tag_485\n      jump\t// in\n    tag_484:\n        /* \"#utility.yul\":10750:10753   */\n      dup5\n        /* \"#utility.yul\":10746:10785   */\n      add\n        /* \"#utility.yul\":10739:10785   */\n      swap2\n      pop\n        /* \"#utility.yul\":10519:10791   */\n      pop\n        /* \"#utility.yul\":10427:10791   */\n      swap3\n      swap2\n      pop\n      pop\n      jump\t// out\n        /* \"#utility.yul\":10797:11174   */\n    tag_486:\n        /* \"#utility.yul\":10903:10906   */\n      0x00\n        /* \"#utility.yul\":10931:10970   */\n      tag_488\n        /* \"#utility.yul\":10964:10969   */\n      dup3\n        /* \"#utility.yul\":10931:10970   */\n      tag_479\n      jump\t// in\n    tag_488:\n        /* \"#utility.yul\":10986:11075   */\n      tag_489\n        /* \"#utility.yul\":11068:11074   */\n      dup2\n        /* \"#utility.yul\":11063:11066   */\n      dup6\n        /* \"#utility.yul\":10986:11075   */\n      tag_474\n      jump\t// in\n    tag_489:\n        /* \"#utility.yul\":10979:11075   */\n      swap4\n      pop\n        /* \"#utility.yul\":11084:11136   */\n      tag_490\n        /* \"#utility.yul\":11129:11135   */\n      dup2\n        /* \"#utility.yul\":11124:11127   */\n      dup6\n        /* \"#utility.yul\":11117:11121   */\n      0x20\n        /* \"#utility.yul\":11110:11115   */\n      dup7\n        /* \"#utility.yul\":11106:11122   */\n      add\n        /* \"#utility.yul\":11084:11136   */\n      tag_483\n      jump\t// in\n    tag_490:\n        /* \"#utility.yul\":11161:11167   */\n      dup1\n        /* \"#utility.yul\":11156:11159   */\n      dup5\n        /* \"#utility.yul\":11152:11168   */\n      add\n        /* \"#utility.yul\":11145:11168   */\n      swap2\n      pop\n        /* \"#utility.yul\":10907:11174   */\n      pop\n        /* \"#utility.yul\":10797:11174   */\n      swap3\n      swap2\n      pop\n      pop\n      jump\t// out\n        /* \"#utility.yul\":11180:11546   */\n    tag_491:\n        /* \"#utility.yul\":11322:11325   */\n      0x00\n        /* \"#utility.yul\":11343:11410   */\n      tag_493\n        /* \"#utility.yul\":11407:11409   */\n      0x1f\n        /* \"#utility.yul\":11402:11405   */\n      dup4\n        /* \"#utility.yul\":11343:11410   */\n      tag_481\n      jump\t// in\n    tag_493:\n        /* \"#utility.yul\":11336:11410   */\n      swap2\n      pop\n        /* \"#utility.yul\":11419:11512   */\n      tag_494\n        /* \"#utility.yul\":11508:11511   */\n      dup3\n        /* \"#utility.yul\":11419:11512   */\n      tag_495\n      jump\t// in\n    tag_494:\n        /* \"#utility.yul\":11537:11539   */\n      0x20\n        /* \"#utility.yul\":11532:11535   */\n      dup3\n        /* \"#utility.yul\":11528:11540   */\n      add\n        /* \"#utility.yul\":11521:11540   */\n      swap1\n      pop\n        /* \"#utility.yul\":11180:11546   */\n      swap2\n      swap1\n      pop\n      jump\t// out\n        /* \"#utility.yul\":11552:11918   */\n    tag_496:\n        /* \"#utility.yul\":11694:11697   */\n      0x00\n        /* \"#utility.yul\":11715:11782   */\n      tag_498\n        /* \"#utility.yul\":11779:11781   */\n      0x19\n        /* \"#utility.yul\":11774:11777   */\n      dup4\n        /* \"#utility.yul\":11715:11782   */\n      tag_481\n      jump\t// in\n    tag_498:\n        /* \"#utility.yul\":11708:11782   */\n      swap2\n      pop\n        /* \"#utility.yul\":11791:11884   */\n      tag_499\n        /* \"#utility.yul\":11880:11883   */\n      dup3\n        /* \"#utility.yul\":11791:11884   */\n      tag_500\n      jump\t// in\n    tag_499:\n        /* \"#utility.yul\":11909:11911   */\n      0x20\n        /* \"#utility.yul\":11904:11907   */\n      dup3\n        /* \"#utility.yul\":11900:11912   */\n      add\n        /* \"#utility.yul\":11893:11912   */\n      swap1\n      pop\n        /* \"#utility.yul\":11552:11918   */\n      swap2\n      swap1\n      pop\n      jump\t// out\n        /* \"#utility.yul\":11924:12290   */\n    tag_501:\n        /* \"#utility.yul\":12066:12069   */\n      0x00\n        /* \"#utility.yul\":12087:12154   */\n      tag_503\n        /* \"#utility.yul\":12151:12153   */\n      0x26\n        /* \"#utility.yul\":12146:12149   */\n      dup4\n        /* \"#utility.yul\":12087:12154   */\n      tag_481\n      jump\t// in\n    tag_503:\n        /* \"#utility.yul\":12080:12154   */\n      swap2\n      pop\n        /* \"#utility.yul\":12163:12256   */\n      tag_504\n        /* \"#utility.yul\":12252:12255   */\n      dup3\n        /* \"#utility.yul\":12163:12256   */\n      tag_505\n      jump\t// in\n    tag_504:\n        /* \"#utility.yul\":12281:12283   */\n      0x40\n        /* \"#utility.yul\":12276:12279   */\n      dup3\n        /* \"#utility.yul\":12272:12284   */\n      add\n        /* \"#utility.yul\":12265:12284   */\n      swap1\n      pop\n        /* \"#utility.yul\":11924:12290   */\n      swap2\n      swap1\n      pop\n      jump\t// out\n        /* \"#utility.yul\":12296:12662   */\n    tag_506:\n        /* \"#utility.yul\":12438:12441   */\n      0x00\n        /* \"#utility.yul\":12459:12526   */\n      tag_508\n        /* \"#utility.yul\":12523:12525   */\n      0x1c\n        /* \"#utility.yul\":12518:12521   */\n      dup4\n        /* \"#utility.yul\":12459:12526   */\n      tag_481\n      jump\t// in\n    tag_508:\n        /* \"#utility.yul\":12452:12526   */\n      swap2\n      pop\n        /* \"#utility.yul\":12535:12628   */\n      tag_509\n        /* \"#utility.yul\":12624:12627   */\n      dup3\n        /* \"#utility.yul\":12535:12628   */\n      tag_510\n      jump\t// in\n    tag_509:\n        /* \"#utility.yul\":12653:12655   */\n      0x20\n        /* \"#utility.yul\":12648:12651   */\n      dup3\n        /* \"#utility.yul\":12644:12656   */\n      add\n        /* \"#utility.yul\":12637:12656   */\n      swap1\n      pop\n        /* \"#utility.yul\":12296:12662   */\n      swap2\n      swap1\n      pop\n      jump\t// out\n        /* \"#utility.yul\":12668:13034   */\n    tag_511:\n        /* \"#utility.yul\":12810:12813   */\n      0x00\n        /* \"#utility.yul\":12831:12898   */\n      tag_513\n        /* \"#utility.yul\":12895:12897   */\n      0x15\n        /* \"#utility.yul\":12890:12893   */\n      dup4\n        /* \"#utility.yul\":12831:12898   */\n      tag_481\n      jump\t// in\n    tag_513:\n        /* \"#utility.yul\":12824:12898   */\n      swap2\n      pop\n        /* \"#utility.yul\":12907:13000   */\n      tag_514\n        /* \"#utility.yul\":12996:12999   */\n      dup3\n        /* \"#utility.yul\":12907:13000   */\n      tag_515\n      jump\t// in\n    tag_514:\n        /* \"#utility.yul\":13025:13027   */\n      0x20\n        /* \"#utility.yul\":13020:13023   */\n      dup3\n        /* \"#utility.yul\":13016:13028   */\n      add\n        /* \"#utility.yul\":13009:13028   */\n      swap1\n      pop\n        /* \"#utility.yul\":12668:13034   */\n      swap2\n      swap1\n      pop\n      jump\t// out\n        /* \"#utility.yul\":13040:13406   */\n    tag_516:\n        /* \"#utility.yul\":13182:13185   */\n      0x00\n        /* \"#utility.yul\":13203:13270   */\n      tag_518\n        /* \"#utility.yul\":13267:13269   */\n      0x1e\n        /* \"#utility.yul\":13262:13265   */\n      dup4\n        /* \"#utility.yul\":13203:13270   */\n      tag_481\n      jump\t// in\n    tag_518:\n        /* \"#utility.yul\":13196:13270   */\n      swap2\n      pop\n        /* \"#utility.yul\":13279:13372   */\n      tag_519\n        /* \"#utility.yul\":13368:13371   */\n      dup3\n        /* \"#utility.yul\":13279:13372   */\n      tag_520\n      jump\t// in\n    tag_519:\n        /* \"#utility.yul\":13397:13399   */\n      0x20\n        /* \"#utility.yul\":13392:13395   */\n      dup3\n        /* \"#utility.yul\":13388:13400   */\n      add\n        /* \"#utility.yul\":13381:13400   */\n      swap1\n      pop\n        /* \"#utility.yul\":13040:13406   */\n      swap2\n      swap1\n      pop\n      jump\t// out\n        /* \"#utility.yul\":13412:13778   */\n    tag_521:\n        /* \"#utility.yul\":13554:13557   */\n      0x00\n        /* \"#utility.yul\":13575:13642   */\n      tag_523\n        /* \"#utility.yul\":13639:13641   */\n      0x24\n        /* \"#utility.yul\":13634:13637   */\n      dup4\n        /* \"#utility.yul\":13575:13642   */\n      tag_481\n      jump\t// in\n    tag_523:\n        /* \"#utility.yul\":13568:13642   */\n      swap2\n      pop\n        /* \"#utility.yul\":13651:13744   */\n      tag_524\n        /* \"#utility.yul\":13740:13743   */\n      dup3\n        /* \"#utility.yul\":13651:13744   */\n      tag_525\n      jump\t// in\n    tag_524:\n        /* \"#utility.yul\":13769:13771   */\n      0x40\n        /* \"#utility.yul\":13764:13767   */\n      dup3\n        /* \"#utility.yul\":13760:13772   */\n      add\n        /* \"#utility.yul\":13753:13772   */\n      swap1\n      pop\n        /* \"#utility.yul\":13412:13778   */\n      swap2\n      swap1\n      pop\n      jump\t// out\n        /* \"#utility.yul\":13784:14150   */\n    tag_526:\n        /* \"#utility.yul\":13926:13929   */\n      0x00\n        /* \"#utility.yul\":13947:14014   */\n      tag_528\n        /* \"#utility.yul\":14011:14013   */\n      0x28\n        /* \"#utility.yul\":14006:14009   */\n      dup4\n        /* \"#utility.yul\":13947:14014   */\n      tag_481\n      jump\t// in\n    tag_528:\n        /* \"#utility.yul\":13940:14014   */\n      swap2\n      pop\n        /* \"#utility.yul\":14023:14116   */\n      tag_529\n        /* \"#utility.yul\":14112:14115   */\n      dup3\n        /* \"#utility.yul\":14023:14116   */\n      tag_530\n      jump\t// in\n    tag_529:\n        /* \"#utility.yul\":14141:14143   */\n      0x40\n        /* \"#utility.yul\":14136:14139   */\n      dup3\n        /* \"#utility.yul\":14132:14144   */\n      add\n        /* \"#utility.yul\":14125:14144   */\n      swap1\n      pop\n        /* \"#utility.yul\":13784:14150   */\n      swap2\n      swap1\n      pop\n      jump\t// out\n        /* \"#utility.yul\":14156:14522   */\n    tag_531:\n        /* \"#utility.yul\":14298:14301   */\n      0x00\n        /* \"#utility.yul\":14319:14386   */\n      tag_533\n        /* \"#utility.yul\":14383:14385   */\n      0x14\n        /* \"#utility.yul\":14378:14381   */\n      dup4\n        /* \"#utility.yul\":14319:14386   */\n      tag_481\n      jump\t// in\n    tag_533:\n        /* \"#utility.yul\":14312:14386   */\n      swap2\n      pop\n        /* \"#utility.yul\":14395:14488   */\n      tag_534\n        /* \"#utility.yul\":14484:14487   */\n      dup3\n        /* \"#utility.yul\":14395:14488   */\n      tag_535\n      jump\t// in\n    tag_534:\n        /* \"#utility.yul\":14513:14515   */\n      0x20\n        /* \"#utility.yul\":14508:14511   */\n      dup3\n        /* \"#utility.yul\":14504:14516   */\n      add\n        /* \"#utility.yul\":14497:14516   */\n      swap1\n      pop\n        /* \"#utility.yul\":14156:14522   */\n      swap2\n      swap1\n      pop\n      jump\t// out\n        /* \"#utility.yul\":14528:14894   */\n    tag_536:\n        /* \"#utility.yul\":14670:14673   */\n      0x00\n        /* \"#utility.yul\":14691:14758   */\n      tag_538\n        /* \"#utility.yul\":14755:14757   */\n      0x20\n        /* \"#utility.yul\":14750:14753   */\n      dup4\n        /* \"#utility.yul\":14691:14758   */\n      tag_481\n      jump\t// in\n    tag_538:\n        /* \"#utility.yul\":14684:14758   */\n      swap2\n      pop\n        /* \"#utility.yul\":14767:14860   */\n      tag_539\n        /* \"#utility.yul\":14856:14859   */\n      dup3\n        /* \"#utility.yul\":14767:14860   */\n      tag_540\n      jump\t// in\n    tag_539:\n        /* \"#utility.yul\":14885:14887   */\n      0x20\n        /* \"#utility.yul\":14880:14883   */\n      dup3\n        /* \"#utility.yul\":14876:14888   */\n      add\n        /* \"#utility.yul\":14869:14888   */\n      swap1\n      pop\n        /* \"#utility.yul\":14528:14894   */\n      swap2\n      swap1\n      pop\n      jump\t// out\n        /* \"#utility.yul\":14900:15266   */\n    tag_541:\n        /* \"#utility.yul\":15042:15045   */\n      0x00\n        /* \"#utility.yul\":15063:15130   */\n      tag_543\n        /* \"#utility.yul\":15127:15129   */\n      0x12\n        /* \"#utility.yul\":15122:15125   */\n      dup4\n        /* \"#utility.yul\":15063:15130   */\n      tag_481\n      jump\t// in\n    tag_543:\n        /* \"#utility.yul\":15056:15130   */\n      swap2\n      pop\n        /* \"#utility.yul\":15139:15232   */\n      tag_544\n        /* \"#utility.yul\":15228:15231   */\n      dup3\n        /* \"#utility.yul\":15139:15232   */\n      tag_545\n      jump\t// in\n    tag_544:\n        /* \"#utility.yul\":15257:15259   */\n      0x20\n        /* \"#utility.yul\":15252:15255   */\n      dup3\n        /* \"#utility.yul\":15248:15260   */\n      add\n        /* \"#utility.yul\":15241:15260   */\n      swap1\n      pop\n        /* \"#utility.yul\":14900:15266   */\n      swap2\n      swap1\n      pop\n      jump\t// out\n        /* \"#utility.yul\":15272:15638   */\n    tag_546:\n        /* \"#utility.yul\":15414:15417   */\n      0x00\n        /* \"#utility.yul\":15435:15502   */\n      tag_548\n        /* \"#utility.yul\":15499:15501   */\n      0x25\n        /* \"#utility.yul\":15494:15497   */\n      dup4\n        /* \"#utility.yul\":15435:15502   */\n      tag_481\n      jump\t// in\n    tag_548:\n        /* \"#utility.yul\":15428:15502   */\n      swap2\n      pop\n        /* \"#utility.yul\":15511:15604   */\n      tag_549\n        /* \"#utility.yul\":15600:15603   */\n      dup3\n        /* \"#utility.yul\":15511:15604   */\n      tag_550\n      jump\t// in\n    tag_549:\n        /* \"#utility.yul\":15629:15631   */\n      0x40\n        /* \"#utility.yul\":15624:15627   */\n      dup3\n        /* \"#utility.yul\":15620:15632   */\n      add\n        /* \"#utility.yul\":15613:15632   */\n      swap1\n      pop\n        /* \"#utility.yul\":15272:15638   */\n      swap2\n      swap1\n      pop\n      jump\t// out\n        /* \"#utility.yul\":15724:16429   */\n    tag_551:\n        /* \"#utility.yul\":15869:15873   */\n      0x60\n        /* \"#utility.yul\":15864:15867   */\n      dup3\n        /* \"#utility.yul\":15860:15874   */\n      add\n        /* \"#utility.yul\":15961:15965   */\n      0x00\n        /* \"#utility.yul\":15954:15959   */\n      dup3\n        /* \"#utility.yul\":15950:15966   */\n      add\n        /* \"#utility.yul\":15944:15967   */\n      mload\n        /* \"#utility.yul\":15980:16043   */\n      tag_553\n        /* \"#utility.yul\":16037:16041   */\n      0x00\n        /* \"#utility.yul\":16032:16035   */\n      dup6\n        /* \"#utility.yul\":16028:16042   */\n      add\n        /* \"#utility.yul\":16014:16026   */\n      dup3\n        /* \"#utility.yul\":15980:16043   */\n      tag_554\n      jump\t// in\n    tag_553:\n        /* \"#utility.yul\":15884:16053   */\n      pop\n        /* \"#utility.yul\":16141:16145   */\n      0x20\n        /* \"#utility.yul\":16134:16139   */\n      dup3\n        /* \"#utility.yul\":16130:16146   */\n      add\n        /* \"#utility.yul\":16124:16147   */\n      mload\n        /* \"#utility.yul\":16160:16223   */\n      tag_555\n        /* \"#utility.yul\":16217:16221   */\n      0x20\n        /* \"#utility.yul\":16212:16215   */\n      dup6\n        /* \"#utility.yul\":16208:16222   */\n      add\n        /* \"#utility.yul\":16194:16206   */\n      dup3\n        /* \"#utility.yul\":16160:16223   */\n      tag_554\n      jump\t// in\n    tag_555:\n        /* \"#utility.yul\":16063:16233   */\n      pop\n        /* \"#utility.yul\":16330:16334   */\n      0x40\n        /* \"#utility.yul\":16323:16328   */\n      dup3\n        /* \"#utility.yul\":16319:16335   */\n      add\n        /* \"#utility.yul\":16313:16336   */\n      mload\n        /* \"#utility.yul\":16349:16412   */\n      tag_556\n        /* \"#utility.yul\":16406:16410   */\n      0x40\n        /* \"#utility.yul\":16401:16404   */\n      dup6\n        /* \"#utility.yul\":16397:16411   */\n      add\n        /* \"#utility.yul\":16383:16395   */\n      dup3\n        /* \"#utility.yul\":16349:16412   */\n      tag_554\n      jump\t// in\n    tag_556:\n        /* \"#utility.yul\":16243:16422   */\n      pop\n        /* \"#utility.yul\":15838:16429   */\n      pop\n        /* \"#utility.yul\":15724:16429   */\n      pop\n      pop\n      jump\t// out\n        /* \"#utility.yul\":16509:17164   */\n    tag_438:\n        /* \"#utility.yul\":16636:16640   */\n      0x60\n        /* \"#utility.yul\":16631:16634   */\n      dup3\n        /* \"#utility.yul\":16627:16641   */\n      add\n        /* \"#utility.yul\":16724:16728   */\n      0x00\n        /* \"#utility.yul\":16717:16722   */\n      dup3\n        /* \"#utility.yul\":16713:16729   */\n      add\n        /* \"#utility.yul\":16707:16730   */\n      mload\n        /* \"#utility.yul\":16743:16800   */\n      tag_558\n        /* \"#utility.yul\":16794:16798   */\n      0x00\n        /* \"#utility.yul\":16789:16792   */\n      dup6\n        /* \"#utility.yul\":16785:16799   */\n      add\n        /* \"#utility.yul\":16771:16783   */\n      dup3\n        /* \"#utility.yul\":16743:16800   */\n      tag_460\n      jump\t// in\n    tag_558:\n        /* \"#utility.yul\":16651:16810   */\n      pop\n        /* \"#utility.yul\":16892:16896   */\n      0x20\n        /* \"#utility.yul\":16885:16890   */\n      dup3\n        /* \"#utility.yul\":16881:16897   */\n      add\n        /* \"#utility.yul\":16875:16898   */\n      mload\n        /* \"#utility.yul\":16911:16968   */\n      tag_559\n        /* \"#utility.yul\":16962:16966   */\n      0x20\n        /* \"#utility.yul\":16957:16960   */\n      dup6\n        /* \"#utility.yul\":16953:16967   */\n      add\n        /* \"#utility.yul\":16939:16951   */\n      dup3\n        /* \"#utility.yul\":16911:16968   */\n      tag_460\n      jump\t// in\n    tag_559:\n        /* \"#utility.yul\":16820:16978   */\n      pop\n        /* \"#utility.yul\":17065:17069   */\n      0x40\n        /* \"#utility.yul\":17058:17063   */\n      dup3\n        /* \"#utility.yul\":17054:17070   */\n      add\n        /* \"#utility.yul\":17048:17071   */\n      mload\n        /* \"#utility.yul\":17084:17147   */\n      tag_560\n        /* \"#utility.yul\":17141:17145   */\n      0x40\n        /* \"#utility.yul\":17136:17139   */\n      dup6\n        /* \"#utility.yul\":17132:17146   */\n      add\n        /* \"#utility.yul\":17118:17130   */\n      dup3\n        /* \"#utility.yul\":17084:17147   */\n      tag_439\n      jump\t// in\n    tag_560:\n        /* \"#utility.yul\":16988:17157   */\n      pop\n        /* \"#utility.yul\":16605:17164   */\n      pop\n        /* \"#utility.yul\":16509:17164   */\n      pop\n      pop\n      jump\t// out\n        /* \"#utility.yul\":17170:17278   */\n    tag_554:\n        /* \"#utility.yul\":17247:17271   */\n      tag_562\n        /* \"#utility.yul\":17265:17270   */\n      dup2\n        /* \"#utility.yul\":17247:17271   */\n      tag_563\n      jump\t// in\n    tag_562:\n        /* \"#utility.yul\":17242:17245   */\n      dup3\n        /* \"#utility.yul\":17235:17272   */\n      mstore\n        /* \"#utility.yul\":17170:17278   */\n      pop\n      pop\n      jump\t// out\n        /* \"#utility.yul\":17284:17402   */\n    tag_564:\n        /* \"#utility.yul\":17371:17395   */\n      tag_566\n        /* \"#utility.yul\":17389:17394   */\n      dup2\n        /* \"#utility.yul\":17371:17395   */\n      tag_563\n      jump\t// in\n    tag_566:\n        /* \"#utility.yul\":17366:17369   */\n      dup3\n        /* \"#utility.yul\":17359:17396   */\n      mstore\n        /* \"#utility.yul\":17284:17402   */\n      pop\n      pop\n      jump\t// out\n        /* \"#utility.yul\":17408:17703   */\n    tag_135:\n        /* \"#utility.yul\":17550:17553   */\n      0x00\n        /* \"#utility.yul\":17572:17677   */\n      tag_568\n        /* \"#utility.yul\":17673:17676   */\n      dup3\n        /* \"#utility.yul\":17664:17670   */\n      dup5\n        /* \"#utility.yul\":17656:17662   */\n      dup7\n        /* \"#utility.yul\":17572:17677   */\n      tag_471\n      jump\t// in\n    tag_568:\n        /* \"#utility.yul\":17565:17677   */\n      swap2\n      pop\n        /* \"#utility.yul\":17694:17697   */\n      dup2\n        /* \"#utility.yul\":17687:17697   */\n      swap1\n      pop\n        /* \"#utility.yul\":17408:17703   */\n      swap4\n      swap3\n      pop\n      pop\n      pop\n      jump\t// out\n        /* \"#utility.yul\":17709:17984   */\n    tag_206:\n        /* \"#utility.yul\":17841:17844   */\n      0x00\n        /* \"#utility.yul\":17863:17958   */\n      tag_570\n        /* \"#utility.yul\":17954:17957   */\n      dup3\n        /* \"#utility.yul\":17945:17951   */\n      dup5\n        /* \"#utility.yul\":17863:17958   */\n      tag_486\n      jump\t// in\n    tag_570:\n        /* \"#utility.yul\":17856:17958   */\n      swap2\n      pop\n        /* \"#utility.yul\":17975:17978   */\n      dup2\n        /* \"#utility.yul\":17968:17978   */\n      swap1\n      pop\n        /* \"#utility.yul\":17709:17984   */\n      swap3\n      swap2\n      pop\n      pop\n      jump\t// out\n        /* \"#utility.yul\":17990:18212   */\n    tag_32:\n        /* \"#utility.yul\":18083:18087   */\n      0x00\n        /* \"#utility.yul\":18121:18123   */\n      0x20\n        /* \"#utility.yul\":18110:18119   */\n      dup3\n        /* \"#utility.yul\":18106:18124   */\n      add\n        /* \"#utility.yul\":18098:18124   */\n      swap1\n      pop\n        /* \"#utility.yul\":18134:18205   */\n      tag_572\n        /* \"#utility.yul\":18202:18203   */\n      0x00\n        /* \"#utility.yul\":18191:18200   */\n      dup4\n        /* \"#utility.yul\":18187:18204   */\n      add\n        /* \"#utility.yul\":18178:18184   */\n      dup5\n        /* \"#utility.yul\":18134:18205   */\n      tag_443\n      jump\t// in\n    tag_572:\n        /* \"#utility.yul\":17990:18212   */\n      swap3\n      swap2\n      pop\n      pop\n      jump\t// out\n        /* \"#utility.yul\":18218:18428   */\n    tag_57:\n        /* \"#utility.yul\":18305:18309   */\n      0x00\n        /* \"#utility.yul\":18343:18345   */\n      0x20\n        /* \"#utility.yul\":18332:18341   */\n      dup3\n        /* \"#utility.yul\":18328:18346   */\n      add\n        /* \"#utility.yul\":18320:18346   */\n      swap1\n      pop\n        /* \"#utility.yul\":18356:18421   */\n      tag_574\n        /* \"#utility.yul\":18418:18419   */\n      0x00\n        /* \"#utility.yul\":18407:18416   */\n      dup4\n        /* \"#utility.yul\":18403:18420   */\n      add\n        /* \"#utility.yul\":18394:18400   */\n      dup5\n        /* \"#utility.yul\":18356:18421   */\n      tag_464\n      jump\t// in\n    tag_574:\n        /* \"#utility.yul\":18218:18428   */\n      swap3\n      swap2\n      pop\n      pop\n      jump\t// out\n        /* \"#utility.yul\":18434:18852   */\n    tag_63:\n        /* \"#utility.yul\":18571:18575   */\n      0x00\n        /* \"#utility.yul\":18609:18611   */\n      0x60\n        /* \"#utility.yul\":18598:18607   */\n      dup3\n        /* \"#utility.yul\":18594:18612   */\n      add\n        /* \"#utility.yul\":18586:18612   */\n      swap1\n      pop\n        /* \"#utility.yul\":18622:18687   */\n      tag_576\n        /* \"#utility.yul\":18684:18685   */\n      0x00\n        /* \"#utility.yul\":18673:18682   */\n      dup4\n        /* \"#utility.yul\":18669:18686   */\n      add\n        /* \"#utility.yul\":18660:18666   */\n      dup7\n        /* \"#utility.yul\":18622:18687   */\n      tag_464\n      jump\t// in\n    tag_576:\n        /* \"#utility.yul\":18697:18763   */\n      tag_577\n        /* \"#utility.yul\":18759:18761   */\n      0x20\n        /* \"#utility.yul\":18748:18757   */\n      dup4\n        /* \"#utility.yul\":18744:18762   */\n      add\n        /* \"#utility.yul\":18735:18741   */\n      dup6\n        /* \"#utility.yul\":18697:18763   */\n      tag_464\n      jump\t// in\n    tag_577:\n        /* \"#utility.yul\":18773:18845   */\n      tag_578\n        /* \"#utility.yul\":18841:18843   */\n      0x40\n        /* \"#utility.yul\":18830:18839   */\n      dup4\n        /* \"#utility.yul\":18826:18844   */\n      add\n        /* \"#utility.yul\":18817:18823   */\n      dup5\n        /* \"#utility.yul\":18773:18845   */\n      tag_443\n      jump\t// in\n    tag_578:\n        /* \"#utility.yul\":18434:18852   */\n      swap5\n      swap4\n      pop\n      pop\n      pop\n      pop\n      jump\t// out\n        /* \"#utility.yul\":18858:19264   */\n    tag_99:\n        /* \"#utility.yul\":18989:18993   */\n      0x00\n        /* \"#utility.yul\":19027:19029   */\n      0x60\n        /* \"#utility.yul\":19016:19025   */\n      dup3\n        /* \"#utility.yul\":19012:19030   */\n      add\n        /* \"#utility.yul\":19004:19030   */\n      swap1\n      pop\n        /* \"#utility.yul\":19040:19105   */\n      tag_580\n        /* \"#utility.yul\":19102:19103   */\n      0x00\n        /* \"#utility.yul\":19091:19100   */\n      dup4\n        /* \"#utility.yul\":19087:19104   */\n      add\n        /* \"#utility.yul\":19078:19084   */\n      dup7\n        /* \"#utility.yul\":19040:19105   */\n      tag_464\n      jump\t// in\n    tag_580:\n        /* \"#utility.yul\":19115:19181   */\n      tag_581\n        /* \"#utility.yul\":19177:19179   */\n      0x20\n        /* \"#utility.yul\":19166:19175   */\n      dup4\n        /* \"#utility.yul\":19162:19180   */\n      add\n        /* \"#utility.yul\":19153:19159   */\n      dup6\n        /* \"#utility.yul\":19115:19181   */\n      tag_464\n      jump\t// in\n    tag_581:\n        /* \"#utility.yul\":19191:19257   */\n      tag_582\n        /* \"#utility.yul\":19253:19255   */\n      0x40\n        /* \"#utility.yul\":19242:19251   */\n      dup4\n        /* \"#utility.yul\":19238:19256   */\n      add\n        /* \"#utility.yul\":19229:19235   */\n      dup5\n        /* \"#utility.yul\":19191:19257   */\n      tag_464\n      jump\t// in\n    tag_582:\n        /* \"#utility.yul\":18858:19264   */\n      swap5\n      swap4\n      pop\n      pop\n      pop\n      pop\n      jump\t// out\n        /* \"#utility.yul\":19270:19492   */\n    tag_52:\n        /* \"#utility.yul\":19363:19367   */\n      0x00\n        /* \"#utility.yul\":19401:19403   */\n      0x20\n        /* \"#utility.yul\":19390:19399   */\n      dup3\n        /* \"#utility.yul\":19386:19404   */\n      add\n        /* \"#utility.yul\":19378:19404   */\n      swap1\n      pop\n        /* \"#utility.yul\":19414:19485   */\n      tag_584\n        /* \"#utility.yul\":19482:19483   */\n      0x00\n        /* \"#utility.yul\":19471:19480   */\n      dup4\n        /* \"#utility.yul\":19467:19484   */\n      add\n        /* \"#utility.yul\":19458:19464   */\n      dup5\n        /* \"#utility.yul\":19414:19485   */\n      tag_467\n      jump\t// in\n    tag_584:\n        /* \"#utility.yul\":19270:19492   */\n      swap3\n      swap2\n      pop\n      pop\n      jump\t// out\n        /* \"#utility.yul\":19498:20373   */\n    tag_69:\n        /* \"#utility.yul\":19785:19789   */\n      0x00\n        /* \"#utility.yul\":19823:19826   */\n      0x80\n        /* \"#utility.yul\":19812:19821   */\n      dup3\n        /* \"#utility.yul\":19808:19827   */\n      add\n        /* \"#utility.yul\":19800:19827   */\n      swap1\n      pop\n        /* \"#utility.yul\":19837:19908   */\n      tag_586\n        /* \"#utility.yul\":19905:19906   */\n      0x00\n        /* \"#utility.yul\":19894:19903   */\n      dup4\n        /* \"#utility.yul\":19890:19907   */\n      add\n        /* \"#utility.yul\":19881:19887   */\n      dup8\n        /* \"#utility.yul\":19837:19908   */\n      tag_467\n      jump\t// in\n    tag_586:\n        /* \"#utility.yul\":19955:19964   */\n      dup2\n        /* \"#utility.yul\":19949:19953   */\n      dup2\n        /* \"#utility.yul\":19945:19965   */\n      sub\n        /* \"#utility.yul\":19940:19942   */\n      0x20\n        /* \"#utility.yul\":19929:19938   */\n      dup4\n        /* \"#utility.yul\":19925:19943   */\n      add\n        /* \"#utility.yul\":19918:19966   */\n      mstore\n        /* \"#utility.yul\":19983:20061   */\n      tag_587\n        /* \"#utility.yul\":20056:20060   */\n      dup2\n        /* \"#utility.yul\":20047:20053   */\n      dup7\n        /* \"#utility.yul\":19983:20061   */\n      tag_476\n      jump\t// in\n    tag_587:\n        /* \"#utility.yul\":19975:20061   */\n      swap1\n      pop\n        /* \"#utility.yul\":20071:20143   */\n      tag_588\n        /* \"#utility.yul\":20139:20141   */\n      0x40\n        /* \"#utility.yul\":20128:20137   */\n      dup4\n        /* \"#utility.yul\":20124:20142   */\n      add\n        /* \"#utility.yul\":20115:20121   */\n      dup6\n        /* \"#utility.yul\":20071:20143   */\n      tag_564\n      jump\t// in\n    tag_588:\n        /* \"#utility.yul\":20190:20199   */\n      dup2\n        /* \"#utility.yul\":20184:20188   */\n      dup2\n        /* \"#utility.yul\":20180:20200   */\n      sub\n        /* \"#utility.yul\":20175:20177   */\n      0x60\n        /* \"#utility.yul\":20164:20173   */\n      dup4\n        /* \"#utility.yul\":20160:20178   */\n      add\n        /* \"#utility.yul\":20153:20201   */\n      mstore\n        /* \"#utility.yul\":20218:20366   */\n      tag_589\n        /* \"#utility.yul\":20361:20365   */\n      dup2\n        /* \"#utility.yul\":20352:20358   */\n      dup5\n        /* \"#utility.yul\":20218:20366   */\n      tag_446\n      jump\t// in\n    tag_589:\n        /* \"#utility.yul\":20210:20366   */\n      swap1\n      pop\n        /* \"#utility.yul\":19498:20373   */\n      swap6\n      swap5\n      pop\n      pop\n      pop\n      pop\n      pop\n      jump\t// out\n        /* \"#utility.yul\":20379:20692   */\n    tag_43:\n        /* \"#utility.yul\":20492:20496   */\n      0x00\n        /* \"#utility.yul\":20530:20532   */\n      0x20\n        /* \"#utility.yul\":20519:20528   */\n      dup3\n        /* \"#utility.yul\":20515:20533   */\n      add\n        /* \"#utility.yul\":20507:20533   */\n      swap1\n      pop\n        /* \"#utility.yul\":20579:20588   */\n      dup2\n        /* \"#utility.yul\":20573:20577   */\n      dup2\n        /* \"#utility.yul\":20569:20589   */\n      sub\n        /* \"#utility.yul\":20565:20566   */\n      0x00\n        /* \"#utility.yul\":20554:20563   */\n      dup4\n        /* \"#utility.yul\":20550:20567   */\n      add\n        /* \"#utility.yul\":20543:20590   */\n      mstore\n        /* \"#utility.yul\":20607:20685   */\n      tag_591\n        /* \"#utility.yul\":20680:20684   */\n      dup2\n        /* \"#utility.yul\":20671:20677   */\n      dup5\n        /* \"#utility.yul\":20607:20685   */\n      tag_476\n      jump\t// in\n    tag_591:\n        /* \"#utility.yul\":20599:20685   */\n      swap1\n      pop\n        /* \"#utility.yul\":20379:20692   */\n      swap3\n      swap2\n      pop\n      pop\n      jump\t// out\n        /* \"#utility.yul\":20698:21419   */\n    tag_112:\n        /* \"#utility.yul\":20935:20939   */\n      0x00\n        /* \"#utility.yul\":20973:20976   */\n      0xa0\n        /* \"#utility.yul\":20962:20971   */\n      dup3\n        /* \"#utility.yul\":20958:20977   */\n      add\n        /* \"#utility.yul\":20950:20977   */\n      swap1\n      pop\n        /* \"#utility.yul\":21023:21032   */\n      dup2\n        /* \"#utility.yul\":21017:21021   */\n      dup2\n        /* \"#utility.yul\":21013:21033   */\n      sub\n        /* \"#utility.yul\":21009:21010   */\n      0x00\n        /* \"#utility.yul\":20998:21007   */\n      dup4\n        /* \"#utility.yul\":20994:21011   */\n      add\n        /* \"#utility.yul\":20987:21034   */\n      mstore\n        /* \"#utility.yul\":21051:21129   */\n      tag_593\n        /* \"#utility.yul\":21124:21128   */\n      dup2\n        /* \"#utility.yul\":21115:21121   */\n      dup7\n        /* \"#utility.yul\":21051:21129   */\n      tag_476\n      jump\t// in\n    tag_593:\n        /* \"#utility.yul\":21043:21129   */\n      swap1\n      pop\n        /* \"#utility.yul\":21176:21185   */\n      dup2\n        /* \"#utility.yul\":21170:21174   */\n      dup2\n        /* \"#utility.yul\":21166:21186   */\n      sub\n        /* \"#utility.yul\":21161:21163   */\n      0x20\n        /* \"#utility.yul\":21150:21159   */\n      dup4\n        /* \"#utility.yul\":21146:21164   */\n      add\n        /* \"#utility.yul\":21139:21187   */\n      mstore\n        /* \"#utility.yul\":21204:21282   */\n      tag_594\n        /* \"#utility.yul\":21277:21281   */\n      dup2\n        /* \"#utility.yul\":21268:21274   */\n      dup6\n        /* \"#utility.yul\":21204:21282   */\n      tag_476\n      jump\t// in\n    tag_594:\n        /* \"#utility.yul\":21196:21282   */\n      swap1\n      pop\n        /* \"#utility.yul\":21292:21412   */\n      tag_595\n        /* \"#utility.yul\":21408:21410   */\n      0x40\n        /* \"#utility.yul\":21397:21406   */\n      dup4\n        /* \"#utility.yul\":21393:21411   */\n      add\n        /* \"#utility.yul\":21384:21390   */\n      dup5\n        /* \"#utility.yul\":21292:21412   */\n      tag_551\n      jump\t// in\n    tag_595:\n        /* \"#utility.yul\":20698:21419   */\n      swap5\n      swap4\n      pop\n      pop\n      pop\n      pop\n      jump\t// out\n        /* \"#utility.yul\":21425:21844   */\n    tag_196:\n        /* \"#utility.yul\":21591:21595   */\n      0x00\n        /* \"#utility.yul\":21629:21631   */\n      0x20\n        /* \"#utility.yul\":21618:21627   */\n      dup3\n        /* \"#utility.yul\":21614:21632   */\n      add\n        /* \"#utility.yul\":21606:21632   */\n      swap1\n      pop\n        /* \"#utility.yul\":21678:21687   */\n      dup2\n        /* \"#utility.yul\":21672:21676   */\n      dup2\n        /* \"#utility.yul\":21668:21688   */\n      sub\n        /* \"#utility.yul\":21664:21665   */\n      0x00\n        /* \"#utility.yul\":21653:21662   */\n      dup4\n        /* \"#utility.yul\":21649:21666   */\n      add\n        /* \"#utility.yul\":21642:21689   */\n      mstore\n        /* \"#utility.yul\":21706:21837   */\n      tag_597\n        /* \"#utility.yul\":21832:21836   */\n      dup2\n        /* \"#utility.yul\":21706:21837   */\n      tag_491\n      jump\t// in\n    tag_597:\n        /* \"#utility.yul\":21698:21837   */\n      swap1\n      pop\n        /* \"#utility.yul\":21425:21844   */\n      swap2\n      swap1\n      pop\n      jump\t// out\n        /* \"#utility.yul\":21850:22269   */\n    tag_209:\n        /* \"#utility.yul\":22016:22020   */\n      0x00\n        /* \"#utility.yul\":22054:22056   */\n      0x20\n        /* \"#utility.yul\":22043:22052   */\n      dup3\n        /* \"#utility.yul\":22039:22057   */\n      add\n        /* \"#utility.yul\":22031:22057   */\n      swap1\n      pop\n        /* \"#utility.yul\":22103:22112   */\n      dup2\n        /* \"#utility.yul\":22097:22101   */\n      dup2\n        /* \"#utility.yul\":22093:22113   */\n      sub\n        /* \"#utility.yul\":22089:22090   */\n      0x00\n        /* \"#utility.yul\":22078:22087   */\n      dup4\n        /* \"#utility.yul\":22074:22091   */\n      add\n        /* \"#utility.yul\":22067:22114   */\n      mstore\n        /* \"#utility.yul\":22131:22262   */\n      tag_599\n        /* \"#utility.yul\":22257:22261   */\n      dup2\n        /* \"#utility.yul\":22131:22262   */\n      tag_496\n      jump\t// in\n    tag_599:\n        /* \"#utility.yul\":22123:22262   */\n      swap1\n      pop\n        /* \"#utility.yul\":21850:22269   */\n      swap2\n      swap1\n      pop\n      jump\t// out\n        /* \"#utility.yul\":22275:22694   */\n    tag_242:\n        /* \"#utility.yul\":22441:22445   */\n      0x00\n        /* \"#utility.yul\":22479:22481   */\n      0x20\n        /* \"#utility.yul\":22468:22477   */\n      dup3\n        /* \"#utility.yul\":22464:22482   */\n      add\n        /* \"#utility.yul\":22456:22482   */\n      swap1\n      pop\n        /* \"#utility.yul\":22528:22537   */\n      dup2\n        /* \"#utility.yul\":22522:22526   */\n      dup2\n        /* \"#utility.yul\":22518:22538   */\n      sub\n        /* \"#utility.yul\":22514:22515   */\n      0x00\n        /* \"#utility.yul\":22503:22512   */\n      dup4\n        /* \"#utility.yul\":22499:22516   */\n      add\n        /* \"#utility.yul\":22492:22539   */\n      mstore\n        /* \"#utility.yul\":22556:22687   */\n      tag_601\n        /* \"#utility.yul\":22682:22686   */\n      dup2\n        /* \"#utility.yul\":22556:22687   */\n      tag_501\n      jump\t// in\n    tag_601:\n        /* \"#utility.yul\":22548:22687   */\n      swap1\n      pop\n        /* \"#utility.yul\":22275:22694   */\n      swap2\n      swap1\n      pop\n      jump\t// out\n        /* \"#utility.yul\":22700:23119   */\n    tag_146:\n        /* \"#utility.yul\":22866:22870   */\n      0x00\n        /* \"#utility.yul\":22904:22906   */\n      0x20\n        /* \"#utility.yul\":22893:22902   */\n      dup3\n        /* \"#utility.yul\":22889:22907   */\n      add\n        /* \"#utility.yul\":22881:22907   */\n      swap1\n      pop\n        /* \"#utility.yul\":22953:22962   */\n      dup2\n        /* \"#utility.yul\":22947:22951   */\n      dup2\n        /* \"#utility.yul\":22943:22963   */\n      sub\n        /* \"#utility.yul\":22939:22940   */\n      0x00\n        /* \"#utility.yul\":22928:22937   */\n      dup4\n        /* \"#utility.yul\":22924:22941   */\n      add\n        /* \"#utility.yul\":22917:22964   */\n      mstore\n        /* \"#utility.yul\":22981:23112   */\n      tag_603\n        /* \"#utility.yul\":23107:23111   */\n      dup2\n        /* \"#utility.yul\":22981:23112   */\n      tag_506\n      jump\t// in\n    tag_603:\n        /* \"#utility.yul\":22973:23112   */\n      swap1\n      pop\n        /* \"#utility.yul\":22700:23119   */\n      swap2\n      swap1\n      pop\n      jump\t// out\n        /* \"#utility.yul\":23125:23544   */\n    tag_192:\n        /* \"#utility.yul\":23291:23295   */\n      0x00\n        /* \"#utility.yul\":23329:23331   */\n      0x20\n        /* \"#utility.yul\":23318:23327   */\n      dup3\n        /* \"#utility.yul\":23314:23332   */\n      add\n        /* \"#utility.yul\":23306:23332   */\n      swap1\n      pop\n        /* \"#utility.yul\":23378:23387   */\n      dup2\n        /* \"#utility.yul\":23372:23376   */\n      dup2\n        /* \"#utility.yul\":23368:23388   */\n      sub\n        /* \"#utility.yul\":23364:23365   */\n      0x00\n        /* \"#utility.yul\":23353:23362   */\n      dup4\n        /* \"#utility.yul\":23349:23366   */\n      add\n        /* \"#utility.yul\":23342:23389   */\n      mstore\n        /* \"#utility.yul\":23406:23537   */\n      tag_605\n        /* \"#utility.yul\":23532:23536   */\n      dup2\n        /* \"#utility.yul\":23406:23537   */\n      tag_511\n      jump\t// in\n    tag_605:\n        /* \"#utility.yul\":23398:23537   */\n      swap1\n      pop\n        /* \"#utility.yul\":23125:23544   */\n      swap2\n      swap1\n      pop\n      jump\t// out\n        /* \"#utility.yul\":23550:23969   */\n    tag_142:\n        /* \"#utility.yul\":23716:23720   */\n      0x00\n        /* \"#utility.yul\":23754:23756   */\n      0x20\n        /* \"#utility.yul\":23743:23752   */\n      dup3\n        /* \"#utility.yul\":23739:23757   */\n      add\n        /* \"#utility.yul\":23731:23757   */\n      swap1\n      pop\n        /* \"#utility.yul\":23803:23812   */\n      dup2\n        /* \"#utility.yul\":23797:23801   */\n      dup2\n        /* \"#utility.yul\":23793:23813   */\n      sub\n        /* \"#utility.yul\":23789:23790   */\n      0x00\n        /* \"#utility.yul\":23778:23787   */\n      dup4\n        /* \"#utility.yul\":23774:23791   */\n      add\n        /* \"#utility.yul\":23767:23814   */\n      mstore\n        /* \"#utility.yul\":23831:23962   */\n      tag_607\n        /* \"#utility.yul\":23957:23961   */\n      dup2\n        /* \"#utility.yul\":23831:23962   */\n      tag_516\n      jump\t// in\n    tag_607:\n        /* \"#utility.yul\":23823:23962   */\n      swap1\n      pop\n        /* \"#utility.yul\":23550:23969   */\n      swap2\n      swap1\n      pop\n      jump\t// out\n        /* \"#utility.yul\":23975:24394   */\n    tag_200:\n        /* \"#utility.yul\":24141:24145   */\n      0x00\n        /* \"#utility.yul\":24179:24181   */\n      0x20\n        /* \"#utility.yul\":24168:24177   */\n      dup3\n        /* \"#utility.yul\":24164:24182   */\n      add\n        /* \"#utility.yul\":24156:24182   */\n      swap1\n      pop\n        /* \"#utility.yul\":24228:24237   */\n      dup2\n        /* \"#utility.yul\":24222:24226   */\n      dup2\n        /* \"#utility.yul\":24218:24238   */\n      sub\n        /* \"#utility.yul\":24214:24215   */\n      0x00\n        /* \"#utility.yul\":24203:24212   */\n      dup4\n        /* \"#utility.yul\":24199:24216   */\n      add\n        /* \"#utility.yul\":24192:24239   */\n      mstore\n        /* \"#utility.yul\":24256:24387   */\n      tag_609\n        /* \"#utility.yul\":24382:24386   */\n      dup2\n        /* \"#utility.yul\":24256:24387   */\n      tag_521\n      jump\t// in\n    tag_609:\n        /* \"#utility.yul\":24248:24387   */\n      swap1\n      pop\n        /* \"#utility.yul\":23975:24394   */\n      swap2\n      swap1\n      pop\n      jump\t// out\n        /* \"#utility.yul\":24400:24819   */\n    tag_188:\n        /* \"#utility.yul\":24566:24570   */\n      0x00\n        /* \"#utility.yul\":24604:24606   */\n      0x20\n        /* \"#utility.yul\":24593:24602   */\n      dup3\n        /* \"#utility.yul\":24589:24607   */\n      add\n        /* \"#utility.yul\":24581:24607   */\n      swap1\n      pop\n        /* \"#utility.yul\":24653:24662   */\n      dup2\n        /* \"#utility.yul\":24647:24651   */\n      dup2\n        /* \"#utility.yul\":24643:24663   */\n      sub\n        /* \"#utility.yul\":24639:24640   */\n      0x00\n        /* \"#utility.yul\":24628:24637   */\n      dup4\n        /* \"#utility.yul\":24624:24641   */\n      add\n        /* \"#utility.yul\":24617:24664   */\n      mstore\n        /* \"#utility.yul\":24681:24812   */\n      tag_611\n        /* \"#utility.yul\":24807:24811   */\n      dup2\n        /* \"#utility.yul\":24681:24812   */\n      tag_526\n      jump\t// in\n    tag_611:\n        /* \"#utility.yul\":24673:24812   */\n      swap1\n      pop\n        /* \"#utility.yul\":24400:24819   */\n      swap2\n      swap1\n      pop\n      jump\t// out\n        /* \"#utility.yul\":24825:25244   */\n    tag_284:\n        /* \"#utility.yul\":24991:24995   */\n      0x00\n        /* \"#utility.yul\":25029:25031   */\n      0x20\n        /* \"#utility.yul\":25018:25027   */\n      dup3\n        /* \"#utility.yul\":25014:25032   */\n      add\n        /* \"#utility.yul\":25006:25032   */\n      swap1\n      pop\n        /* \"#utility.yul\":25078:25087   */\n      dup2\n        /* \"#utility.yul\":25072:25076   */\n      dup2\n        /* \"#utility.yul\":25068:25088   */\n      sub\n        /* \"#utility.yul\":25064:25065   */\n      0x00\n        /* \"#utility.yul\":25053:25062   */\n      dup4\n        /* \"#utility.yul\":25049:25066   */\n      add\n        /* \"#utility.yul\":25042:25089   */\n      mstore\n        /* \"#utility.yul\":25106:25237   */\n      tag_613\n        /* \"#utility.yul\":25232:25236   */\n      dup2\n        /* \"#utility.yul\":25106:25237   */\n      tag_531\n      jump\t// in\n    tag_613:\n        /* \"#utility.yul\":25098:25237   */\n      swap1\n      pop\n        /* \"#utility.yul\":24825:25244   */\n      swap2\n      swap1\n      pop\n      jump\t// out\n        /* \"#utility.yul\":25250:25669   */\n    tag_177:\n        /* \"#utility.yul\":25416:25420   */\n      0x00\n        /* \"#utility.yul\":25454:25456   */\n      0x20\n        /* \"#utility.yul\":25443:25452   */\n      dup3\n        /* \"#utility.yul\":25439:25457   */\n      add\n        /* \"#utility.yul\":25431:25457   */\n      swap1\n      pop\n        /* \"#utility.yul\":25503:25512   */\n      dup2\n        /* \"#utility.yul\":25497:25501   */\n      dup2\n        /* \"#utility.yul\":25493:25513   */\n      sub\n        /* \"#utility.yul\":25489:25490   */\n      0x00\n        /* \"#utility.yul\":25478:25487   */\n      dup4\n        /* \"#utility.yul\":25474:25491   */\n      add\n        /* \"#utility.yul\":25467:25514   */\n      mstore\n        /* \"#utility.yul\":25531:25662   */\n      tag_615\n        /* \"#utility.yul\":25657:25661   */\n      dup2\n        /* \"#utility.yul\":25531:25662   */\n      tag_536\n      jump\t// in\n    tag_615:\n        /* \"#utility.yul\":25523:25662   */\n      swap1\n      pop\n        /* \"#utility.yul\":25250:25669   */\n      swap2\n      swap1\n      pop\n      jump\t// out\n        /* \"#utility.yul\":25675:26094   */\n    tag_138:\n        /* \"#utility.yul\":25841:25845   */\n      0x00\n        /* \"#utility.yul\":25879:25881   */\n      0x20\n        /* \"#utility.yul\":25868:25877   */\n      dup3\n        /* \"#utility.yul\":25864:25882   */\n      add\n        /* \"#utility.yul\":25856:25882   */\n      swap1\n      pop\n        /* \"#utility.yul\":25928:25937   */\n      dup2\n        /* \"#utility.yul\":25922:25926   */\n      dup2\n        /* \"#utility.yul\":25918:25938   */\n      sub\n        /* \"#utility.yul\":25914:25915   */\n      0x00\n        /* \"#utility.yul\":25903:25912   */\n      dup4\n        /* \"#utility.yul\":25899:25916   */\n      add\n        /* \"#utility.yul\":25892:25939   */\n      mstore\n        /* \"#utility.yul\":25956:26087   */\n      tag_617\n        /* \"#utility.yul\":26082:26086   */\n      dup2\n        /* \"#utility.yul\":25956:26087   */\n      tag_541\n      jump\t// in\n    tag_617:\n        /* \"#utility.yul\":25948:26087   */\n      swap1\n      pop\n        /* \"#utility.yul\":25675:26094   */\n      swap2\n      swap1\n      pop\n      jump\t// out\n        /* \"#utility.yul\":26100:26519   */\n    tag_236:\n        /* \"#utility.yul\":26266:26270   */\n      0x00\n        /* \"#utility.yul\":26304:26306   */\n      0x20\n        /* \"#utility.yul\":26293:26302   */\n      dup3\n        /* \"#utility.yul\":26289:26307   */\n      add\n        /* \"#utility.yul\":26281:26307   */\n      swap1\n      pop\n        /* \"#utility.yul\":26353:26362   */\n      dup2\n        /* \"#utility.yul\":26347:26351   */\n      dup2\n        /* \"#utility.yul\":26343:26363   */\n      sub\n        /* \"#utility.yul\":26339:26340   */\n      0x00\n        /* \"#utility.yul\":26328:26337   */\n      dup4\n        /* \"#utility.yul\":26324:26341   */\n      add\n        /* \"#utility.yul\":26317:26364   */\n      mstore\n        /* \"#utility.yul\":26381:26512   */\n      tag_619\n        /* \"#utility.yul\":26507:26511   */\n      dup2\n        /* \"#utility.yul\":26381:26512   */\n      tag_546\n      jump\t// in\n    tag_619:\n        /* \"#utility.yul\":26373:26512   */\n      swap1\n      pop\n        /* \"#utility.yul\":26100:26519   */\n      swap2\n      swap1\n      pop\n      jump\t// out\n        /* \"#utility.yul\":26525:26747   */\n    tag_93:\n        /* \"#utility.yul\":26618:26622   */\n      0x00\n        /* \"#utility.yul\":26656:26658   */\n      0x20\n        /* \"#utility.yul\":26645:26654   */\n      dup3\n        /* \"#utility.yul\":26641:26659   */\n      add\n        /* \"#utility.yul\":26633:26659   */\n      swap1\n      pop\n        /* \"#utility.yul\":26669:26740   */\n      tag_621\n        /* \"#utility.yul\":26737:26738   */\n      0x00\n        /* \"#utility.yul\":26726:26735   */\n      dup4\n        /* \"#utility.yul\":26722:26739   */\n      add\n        /* \"#utility.yul\":26713:26719   */\n      dup5\n        /* \"#utility.yul\":26669:26740   */\n      tag_564\n      jump\t// in\n    tag_621:\n        /* \"#utility.yul\":26525:26747   */\n      swap3\n      swap2\n      pop\n      pop\n      jump\t// out\n        /* \"#utility.yul\":26753:27195   */\n    tag_38:\n        /* \"#utility.yul\":26902:26906   */\n      0x00\n        /* \"#utility.yul\":26940:26942   */\n      0x60\n        /* \"#utility.yul\":26929:26938   */\n      dup3\n        /* \"#utility.yul\":26925:26943   */\n      add\n        /* \"#utility.yul\":26917:26943   */\n      swap1\n      pop\n        /* \"#utility.yul\":26953:27024   */\n      tag_623\n        /* \"#utility.yul\":27021:27022   */\n      0x00\n        /* \"#utility.yul\":27010:27019   */\n      dup4\n        /* \"#utility.yul\":27006:27023   */\n      add\n        /* \"#utility.yul\":26997:27003   */\n      dup7\n        /* \"#utility.yul\":26953:27024   */\n      tag_564\n      jump\t// in\n    tag_623:\n        /* \"#utility.yul\":27034:27106   */\n      tag_624\n        /* \"#utility.yul\":27102:27104   */\n      0x20\n        /* \"#utility.yul\":27091:27100   */\n      dup4\n        /* \"#utility.yul\":27087:27105   */\n      add\n        /* \"#utility.yul\":27078:27084   */\n      dup6\n        /* \"#utility.yul\":27034:27106   */\n      tag_564\n      jump\t// in\n    tag_624:\n        /* \"#utility.yul\":27116:27188   */\n      tag_625\n        /* \"#utility.yul\":27184:27186   */\n      0x40\n        /* \"#utility.yul\":27173:27182   */\n      dup4\n        /* \"#utility.yul\":27169:27187   */\n      add\n        /* \"#utility.yul\":27160:27166   */\n      dup5\n        /* \"#utility.yul\":27116:27188   */\n      tag_564\n      jump\t// in\n    tag_625:\n        /* \"#utility.yul\":26753:27195   */\n      swap5\n      swap4\n      pop\n      pop\n      pop\n      pop\n      jump\t// out\n        /* \"#utility.yul\":27201:27330   */\n    tag_333:\n        /* \"#utility.yul\":27235:27241   */\n      0x00\n        /* \"#utility.yul\":27262:27282   */\n      tag_627\n      tag_628\n      jump\t// in\n    tag_627:\n        /* \"#utility.yul\":27252:27282   */\n      swap1\n      pop\n        /* \"#utility.yul\":27291:27324   */\n      tag_629\n        /* \"#utility.yul\":27319:27323   */\n      dup3\n        /* \"#utility.yul\":27311:27317   */\n      dup3\n        /* \"#utility.yul\":27291:27324   */\n      tag_630\n      jump\t// in\n    tag_629:\n        /* \"#utility.yul\":27201:27330   */\n      swap2\n      swap1\n      pop\n      jump\t// out\n        /* \"#utility.yul\":27336:27411   */\n    tag_628:\n        /* \"#utility.yul\":27369:27375   */\n      0x00\n        /* \"#utility.yul\":27402:27404   */\n      0x40\n        /* \"#utility.yul\":27396:27405   */\n      mload\n        /* \"#utility.yul\":27386:27405   */\n      swap1\n      pop\n        /* \"#utility.yul\":27336:27411   */\n      swap1\n      jump\t// out\n        /* \"#utility.yul\":27417:27725   */\n    tag_332:\n        /* \"#utility.yul\":27479:27483   */\n      0x00\n        /* \"#utility.yul\":27569:27587   */\n      0xffffffffffffffff\n        /* \"#utility.yul\":27561:27567   */\n      dup3\n        /* \"#utility.yul\":27558:27588   */\n      gt\n        /* \"#utility.yul\":27555:27611   */\n      iszero\n      tag_633\n      jumpi\n        /* \"#utility.yul\":27591:27609   */\n      tag_634\n      tag_635\n      jump\t// in\n    tag_634:\n        /* \"#utility.yul\":27555:27611   */\n    tag_633:\n        /* \"#utility.yul\":27629:27658   */\n      tag_636\n        /* \"#utility.yul\":27651:27657   */\n      dup3\n        /* \"#utility.yul\":27629:27658   */\n      tag_485\n      jump\t// in\n    tag_636:\n        /* \"#utility.yul\":27621:27658   */\n      swap1\n      pop\n        /* \"#utility.yul\":27713:27717   */\n      0x20\n        /* \"#utility.yul\":27707:27711   */\n      dup2\n        /* \"#utility.yul\":27703:27718   */\n      add\n        /* \"#utility.yul\":27695:27718   */\n      swap1\n      pop\n        /* \"#utility.yul\":27417:27725   */\n      swap2\n      swap1\n      pop\n      jump\t// out\n        /* \"#utility.yul\":27731:27883   */\n    tag_453:\n        /* \"#utility.yul\":27818:27822   */\n      0x00\n        /* \"#utility.yul\":27841:27844   */\n      dup2\n        /* \"#utility.yul\":27833:27844   */\n      swap1\n      pop\n        /* \"#utility.yul\":27871:27875   */\n      0x20\n        /* \"#utility.yul\":27866:27869   */\n      dup3\n        /* \"#utility.yul\":27862:27876   */\n      add\n        /* \"#utility.yul\":27854:27876   */\n      swap1\n      pop\n        /* \"#utility.yul\":27731:27883   */\n      swap2\n      swap1\n      pop\n      jump\t// out\n        /* \"#utility.yul\":27889:28023   */\n    tag_449:\n        /* \"#utility.yul\":27976:27982   */\n      0x00\n        /* \"#utility.yul\":28010:28015   */\n      dup2\n        /* \"#utility.yul\":28004:28016   */\n      mload\n        /* \"#utility.yul\":27994:28016   */\n      swap1\n      pop\n        /* \"#utility.yul\":27889:28023   */\n      swap2\n      swap1\n      pop\n      jump\t// out\n        /* \"#utility.yul\":28029:28128   */\n    tag_479:\n        /* \"#utility.yul\":28081:28087   */\n      0x00\n        /* \"#utility.yul\":28115:28120   */\n      dup2\n        /* \"#utility.yul\":28109:28121   */\n      mload\n        /* \"#utility.yul\":28099:28121   */\n      swap1\n      pop\n        /* \"#utility.yul\":28029:28128   */\n      swap2\n      swap1\n      pop\n      jump\t// out\n        /* \"#utility.yul\":28134:28267   */\n    tag_459:\n        /* \"#utility.yul\":28224:28228   */\n      0x00\n        /* \"#utility.yul\":28256:28260   */\n      0x20\n        /* \"#utility.yul\":28251:28254   */\n      dup3\n        /* \"#utility.yul\":28247:28261   */\n      add\n        /* \"#utility.yul\":28239:28261   */\n      swap1\n      pop\n        /* \"#utility.yul\":28134:28267   */\n      swap2\n      swap1\n      pop\n      jump\t// out\n        /* \"#utility.yul\":28273:28477   */\n    tag_451:\n        /* \"#utility.yul\":28392:28403   */\n      0x00\n        /* \"#utility.yul\":28426:28432   */\n      dup3\n        /* \"#utility.yul\":28421:28424   */\n      dup3\n        /* \"#utility.yul\":28414:28433   */\n      mstore\n        /* \"#utility.yul\":28466:28470   */\n      0x20\n        /* \"#utility.yul\":28461:28464   */\n      dup3\n        /* \"#utility.yul\":28457:28471   */\n      add\n        /* \"#utility.yul\":28442:28471   */\n      swap1\n      pop\n        /* \"#utility.yul\":28273:28477   */\n      swap3\n      swap2\n      pop\n      pop\n      jump\t// out\n        /* \"#utility.yul\":28483:28652   */\n    tag_481:\n        /* \"#utility.yul\":28567:28578   */\n      0x00\n        /* \"#utility.yul\":28601:28607   */\n      dup3\n        /* \"#utility.yul\":28596:28599   */\n      dup3\n        /* \"#utility.yul\":28589:28608   */\n      mstore\n        /* \"#utility.yul\":28641:28645   */\n      0x20\n        /* \"#utility.yul\":28636:28639   */\n      dup3\n        /* \"#utility.yul\":28632:28646   */\n      add\n        /* \"#utility.yul\":28617:28646   */\n      swap1\n      pop\n        /* \"#utility.yul\":28483:28652   */\n      swap3\n      swap2\n      pop\n      pop\n      jump\t// out\n        /* \"#utility.yul\":28658:28806   */\n    tag_474:\n        /* \"#utility.yul\":28760:28771   */\n      0x00\n        /* \"#utility.yul\":28797:28800   */\n      dup2\n        /* \"#utility.yul\":28782:28800   */\n      swap1\n      pop\n        /* \"#utility.yul\":28658:28806   */\n      swap3\n      swap2\n      pop\n      pop\n      jump\t// out\n        /* \"#utility.yul\":28812:29117   */\n    tag_152:\n        /* \"#utility.yul\":28852:28855   */\n      0x00\n        /* \"#utility.yul\":28871:28891   */\n      tag_645\n        /* \"#utility.yul\":28889:28890   */\n      dup3\n        /* \"#utility.yul\":28871:28891   */\n      tag_563\n      jump\t// in\n    tag_645:\n        /* \"#utility.yul\":28866:28891   */\n      swap2\n      pop\n        /* \"#utility.yul\":28905:28925   */\n      tag_646\n        /* \"#utility.yul\":28923:28924   */\n      dup4\n        /* \"#utility.yul\":28905:28925   */\n      tag_563\n      jump\t// in\n    tag_646:\n        /* \"#utility.yul\":28900:28925   */\n      swap3\n      pop\n        /* \"#utility.yul\":29059:29060   */\n      dup3\n        /* \"#utility.yul\":28991:29057   */\n      0xffffffffffffffffffffffffffffffffffffffffffffffffffffffffffffffff\n        /* \"#utility.yul\":28987:29061   */\n      sub\n        /* \"#utility.yul\":28984:28985   */\n      dup3\n        /* \"#utility.yul\":28981:29062   */\n      gt\n        /* \"#utility.yul\":28978:29085   */\n      iszero\n      tag_647\n      jumpi\n        /* \"#utility.yul\":29065:29083   */\n      tag_648\n      tag_649\n      jump\t// in\n    tag_648:\n        /* \"#utility.yul\":28978:29085   */\n    tag_647:\n        /* \"#utility.yul\":29109:29110   */\n      dup3\n        /* \"#utility.yul\":29106:29107   */\n      dup3\n        /* \"#utility.yul\":29102:29111   */\n      add\n        /* \"#utility.yul\":29095:29111   */\n      swap1\n      pop\n        /* \"#utility.yul\":28812:29117   */\n      swap3\n      swap2\n      pop\n      pop\n      jump\t// out\n        /* \"#utility.yul\":29123:29308   */\n    tag_246:\n        /* \"#utility.yul\":29163:29164   */\n      0x00\n        /* \"#utility.yul\":29180:29200   */\n      tag_651\n        /* \"#utility.yul\":29198:29199   */\n      dup3\n        /* \"#utility.yul\":29180:29200   */\n      tag_563\n      jump\t// in\n    tag_651:\n        /* \"#utility.yul\":29175:29200   */\n      swap2\n      pop\n        /* \"#utility.yul\":29214:29234   */\n      tag_652\n        /* \"#utility.yul\":29232:29233   */\n      dup4\n        /* \"#utility.yul\":29214:29234   */\n      tag_563\n      jump\t// in\n    tag_652:\n        /* \"#utility.yul\":29209:29234   */\n      swap3\n      pop\n        /* \"#utility.yul\":29253:29254   */\n      dup3\n        /* \"#utility.yul\":29243:29278   */\n      tag_653\n      jumpi\n        /* \"#utility.yul\":29258:29276   */\n      tag_654\n      tag_655\n      jump\t// in\n    tag_654:\n        /* \"#utility.yul\":29243:29278   */\n    tag_653:\n        /* \"#utility.yul\":29300:29301   */\n      dup3\n        /* \"#utility.yul\":29297:29298   */\n      dup3\n        /* \"#utility.yul\":29293:29302   */\n      div\n        /* \"#utility.yul\":29288:29302   */\n      swap1\n      pop\n        /* \"#utility.yul\":29123:29308   */\n      swap3\n      swap2\n      pop\n      pop\n      jump\t// out\n        /* \"#utility.yul\":29314:29662   */\n    tag_248:\n        /* \"#utility.yul\":29354:29361   */\n      0x00\n        /* \"#utility.yul\":29377:29397   */\n      tag_657\n        /* \"#utility.yul\":29395:29396   */\n      dup3\n        /* \"#utility.yul\":29377:29397   */\n      tag_563\n      jump\t// in\n    tag_657:\n        /* \"#utility.yul\":29372:29397   */\n      swap2\n      pop\n        /* \"#utility.yul\":29411:29431   */\n      tag_658\n        /* \"#utility.yul\":29429:29430   */\n      dup4\n        /* \"#utility.yul\":29411:29431   */\n      tag_563\n      jump\t// in\n    tag_658:\n        /* \"#utility.yul\":29406:29431   */\n      swap3\n      pop\n        /* \"#utility.yul\":29599:29600   */\n      dup2\n        /* \"#utility.yul\":29531:29597   */\n      0xffffffffffffffffffffffffffffffffffffffffffffffffffffffffffffffff\n        /* \"#utility.yul\":29527:29601   */\n      div\n        /* \"#utility.yul\":29524:29525   */\n      dup4\n        /* \"#utility.yul\":29521:29602   */\n      gt\n        /* \"#utility.yul\":29516:29517   */\n      dup3\n        /* \"#utility.yul\":29509:29518   */\n      iszero\n        /* \"#utility.yul\":29502:29519   */\n      iszero\n        /* \"#utility.yul\":29498:29603   */\n      and\n        /* \"#utility.yul\":29495:29626   */\n      iszero\n      tag_659\n      jumpi\n        /* \"#utility.yul\":29606:29624   */\n      tag_660\n      tag_649\n      jump\t// in\n    tag_660:\n        /* \"#utility.yul\":29495:29626   */\n    tag_659:\n        /* \"#utility.yul\":29654:29655   */\n      dup3\n        /* \"#utility.yul\":29651:29652   */\n      dup3\n        /* \"#utility.yul\":29647:29656   */\n      mul\n        /* \"#utility.yul\":29636:29656   */\n      swap1\n      pop\n        /* \"#utility.yul\":29314:29662   */\n      swap3\n      swap2\n      pop\n      pop\n      jump\t// out\n        /* \"#utility.yul\":29668:29764   */\n    tag_442:\n        /* \"#utility.yul\":29705:29712   */\n      0x00\n        /* \"#utility.yul\":29734:29758   */\n      tag_662\n        /* \"#utility.yul\":29752:29757   */\n      dup3\n        /* \"#utility.yul\":29734:29758   */\n      tag_663\n      jump\t// in\n    tag_662:\n        /* \"#utility.yul\":29723:29758   */\n      swap1\n      pop\n        /* \"#utility.yul\":29668:29764   */\n      swap2\n      swap1\n      pop\n      jump\t// out\n        /* \"#utility.yul\":29770:29860   */\n    tag_463:\n        /* \"#utility.yul\":29804:29811   */\n      0x00\n        /* \"#utility.yul\":29847:29852   */\n      dup2\n        /* \"#utility.yul\":29840:29853   */\n      iszero\n        /* \"#utility.yul\":29833:29854   */\n      iszero\n        /* \"#utility.yul\":29822:29854   */\n      swap1\n      pop\n        /* \"#utility.yul\":29770:29860   */\n      swap2\n      swap1\n      pop\n      jump\t// out\n        /* \"#utility.yul\":29866:29943   */\n    tag_470:\n        /* \"#utility.yul\":29903:29910   */\n      0x00\n        /* \"#utility.yul\":29932:29937   */\n      dup2\n        /* \"#utility.yul\":29921:29937   */\n      swap1\n      pop\n        /* \"#utility.yul\":29866:29943   */\n      swap2\n      swap1\n      pop\n      jump\t// out\n        /* \"#utility.yul\":29949:30075   */\n    tag_663:\n        /* \"#utility.yul\":29986:29993   */\n      0x00\n        /* \"#utility.yul\":30026:30068   */\n      0xffffffffffffffffffffffffffffffffffffffff\n        /* \"#utility.yul\":30019:30024   */\n      dup3\n        /* \"#utility.yul\":30015:30069   */\n      and\n        /* \"#utility.yul\":30004:30069   */\n      swap1\n      pop\n        /* \"#utility.yul\":29949:30075   */\n      swap2\n      swap1\n      pop\n      jump\t// out\n        /* \"#utility.yul\":30081:30158   */\n    tag_563:\n        /* \"#utility.yul\":30118:30125   */\n      0x00\n        /* \"#utility.yul\":30147:30152   */\n      dup2\n        /* \"#utility.yul\":30136:30152   */\n      swap1\n      pop\n        /* \"#utility.yul\":30081:30158   */\n      swap2\n      swap1\n      pop\n      jump\t// out\n        /* \"#utility.yul\":30164:30250   */\n    tag_668:\n        /* \"#utility.yul\":30199:30206   */\n      0x00\n        /* \"#utility.yul\":30239:30243   */\n      0xff\n        /* \"#utility.yul\":30232:30237   */\n      dup3\n        /* \"#utility.yul\":30228:30244   */\n      and\n        /* \"#utility.yul\":30217:30244   */\n      swap1\n      pop\n        /* \"#utility.yul\":30164:30250   */\n      swap2\n      swap1\n      pop\n      jump\t// out\n        /* \"#utility.yul\":30256:30410   */\n    tag_338:\n        /* \"#utility.yul\":30340:30346   */\n      dup3\n        /* \"#utility.yul\":30335:30338   */\n      dup2\n        /* \"#utility.yul\":30330:30333   */\n      dup4\n        /* \"#utility.yul\":30317:30347   */\n      calldatacopy\n        /* \"#utility.yul\":30402:30403   */\n      0x00\n        /* \"#utility.yul\":30393:30399   */\n      dup4\n        /* \"#utility.yul\":30388:30391   */\n      dup4\n        /* \"#utility.yul\":30384:30400   */\n      add\n        /* \"#utility.yul\":30377:30404   */\n      mstore\n        /* \"#utility.yul\":30256:30410   */\n      pop\n      pop\n      pop\n      jump\t// out\n        /* \"#utility.yul\":30416:30723   */\n    tag_483:\n        /* \"#utility.yul\":30484:30485   */\n      0x00\n        /* \"#utility.yul\":30494:30607   */\n    tag_672:\n        /* \"#utility.yul\":30508:30514   */\n      dup4\n        /* \"#utility.yul\":30505:30506   */\n      dup2\n        /* \"#utility.yul\":30502:30515   */\n      lt\n        /* \"#utility.yul\":30494:30607   */\n      iszero\n      tag_674\n      jumpi\n        /* \"#utility.yul\":30593:30594   */\n      dup1\n        /* \"#utility.yul\":30588:30591   */\n      dup3\n        /* \"#utility.yul\":30584:30595   */\n      add\n        /* \"#utility.yul\":30578:30596   */\n      mload\n        /* \"#utility.yul\":30574:30575   */\n      dup2\n        /* \"#utility.yul\":30569:30572   */\n      dup5\n        /* \"#utility.yul\":30565:30576   */\n      add\n        /* \"#utility.yul\":30558:30597   */\n      mstore\n        /* \"#utility.yul\":30530:30532   */\n      0x20\n        /* \"#utility.yul\":30527:30528   */\n      dup2\n        /* \"#utility.yul\":30523:30533   */\n      add\n        /* \"#utility.yul\":30518:30533   */\n      swap1\n      pop\n        /* \"#utility.yul\":30494:30607   */\n      jump(tag_672)\n    tag_674:\n        /* \"#utility.yul\":30625:30631   */\n      dup4\n        /* \"#utility.yul\":30622:30623   */\n      dup2\n        /* \"#utility.yul\":30619:30632   */\n      gt\n        /* \"#utility.yul\":30616:30717   */\n      iszero\n      tag_675\n      jumpi\n        /* \"#utility.yul\":30705:30706   */\n      0x00\n        /* \"#utility.yul\":30696:30702   */\n      dup5\n        /* \"#utility.yul\":30691:30694   */\n      dup5\n        /* \"#utility.yul\":30687:30703   */\n      add\n        /* \"#utility.yul\":30680:30707   */\n      mstore\n        /* \"#utility.yul\":30616:30717   */\n    tag_675:\n        /* \"#utility.yul\":30465:30723   */\n      pop\n        /* \"#utility.yul\":30416:30723   */\n      pop\n      pop\n      pop\n      jump\t// out\n        /* \"#utility.yul\":30729:31049   */\n    tag_128:\n        /* \"#utility.yul\":30773:30779   */\n      0x00\n        /* \"#utility.yul\":30810:30811   */\n      0x02\n        /* \"#utility.yul\":30804:30808   */\n      dup3\n        /* \"#utility.yul\":30800:30812   */\n      div\n        /* \"#utility.yul\":30790:30812   */\n      swap1\n      pop\n        /* \"#utility.yul\":30857:30858   */\n      0x01\n        /* \"#utility.yul\":30851:30855   */\n      dup3\n        /* \"#utility.yul\":30847:30859   */\n      and\n        /* \"#utility.yul\":30878:30896   */\n      dup1\n        /* \"#utility.yul\":30868:30949   */\n      tag_677\n      jumpi\n        /* \"#utility.yul\":30934:30938   */\n      0x7f\n        /* \"#utility.yul\":30926:30932   */\n      dup3\n        /* \"#utility.yul\":30922:30939   */\n      and\n        /* \"#utility.yul\":30912:30939   */\n      swap2\n      pop\n        /* \"#utility.yul\":30868:30949   */\n    tag_677:\n        /* \"#utility.yul\":30996:30998   */\n      0x20\n        /* \"#utility.yul\":30988:30994   */\n      dup3\n        /* \"#utility.yul\":30985:30999   */\n      lt\n        /* \"#utility.yul\":30965:30983   */\n      dup2\n        /* \"#utility.yul\":30962:31000   */\n      eq\n        /* \"#utility.yul\":30959:31043   */\n      iszero\n      tag_678\n      jumpi\n        /* \"#utility.yul\":31015:31033   */\n      tag_679\n      tag_680\n      jump\t// in\n    tag_679:\n        /* \"#utility.yul\":30959:31043   */\n    tag_678:\n        /* \"#utility.yul\":30780:31049   */\n      pop\n        /* \"#utility.yul\":30729:31049   */\n      swap2\n      swap1\n      pop\n      jump\t// out\n        /* \"#utility.yul\":31055:31336   */\n    tag_630:\n        /* \"#utility.yul\":31138:31165   */\n      tag_682\n        /* \"#utility.yul\":31160:31164   */\n      dup3\n        /* \"#utility.yul\":31138:31165   */\n      tag_485\n      jump\t// in\n    tag_682:\n        /* \"#utility.yul\":31130:31136   */\n      dup2\n        /* \"#utility.yul\":31126:31166   */\n      add\n        /* \"#utility.yul\":31268:31274   */\n      dup2\n        /* \"#utility.yul\":31256:31266   */\n      dup2\n        /* \"#utility.yul\":31253:31275   */\n      lt\n        /* \"#utility.yul\":31232:31250   */\n      0xffffffffffffffff\n        /* \"#utility.yul\":31220:31230   */\n      dup3\n        /* \"#utility.yul\":31217:31251   */\n      gt\n        /* \"#utility.yul\":31214:31276   */\n      or\n        /* \"#utility.yul\":31211:31299   */\n      iszero\n      tag_683\n      jumpi\n        /* \"#utility.yul\":31279:31297   */\n      tag_684\n      tag_635\n      jump\t// in\n    tag_684:\n        /* \"#utility.yul\":31211:31299   */\n    tag_683:\n        /* \"#utility.yul\":31319:31329   */\n      dup1\n        /* \"#utility.yul\":31315:31317   */\n      0x40\n        /* \"#utility.yul\":31308:31330   */\n      mstore\n        /* \"#utility.yul\":31098:31336   */\n      pop\n        /* \"#utility.yul\":31055:31336   */\n      pop\n      pop\n      jump\t// out\n        /* \"#utility.yul\":31342:31509   */\n    tag_271:\n        /* \"#utility.yul\":31379:31382   */\n      0x00\n        /* \"#utility.yul\":31402:31424   */\n      tag_686\n        /* \"#utility.yul\":31418:31423   */\n      dup3\n        /* \"#utility.yul\":31402:31424   */\n      tag_668\n      jump\t// in\n    tag_686:\n        /* \"#utility.yul\":31393:31424   */\n      swap2\n      pop\n        /* \"#utility.yul\":31446:31450   */\n      0xff\n        /* \"#utility.yul\":31439:31444   */\n      dup3\n        /* \"#utility.yul\":31436:31451   */\n      eq\n        /* \"#utility.yul\":31433:31474   */\n      iszero\n      tag_687\n      jumpi\n        /* \"#utility.yul\":31454:31472   */\n      tag_688\n      tag_649\n      jump\t// in\n    tag_688:\n        /* \"#utility.yul\":31433:31474   */\n    tag_687:\n        /* \"#utility.yul\":31501:31502   */\n      0x01\n        /* \"#utility.yul\":31494:31499   */\n      dup3\n        /* \"#utility.yul\":31490:31503   */\n      add\n        /* \"#utility.yul\":31483:31503   */\n      swap1\n      pop\n        /* \"#utility.yul\":31342:31509   */\n      swap2\n      swap1\n      pop\n      jump\t// out\n        /* \"#utility.yul\":31515:31695   */\n    tag_649:\n        /* \"#utility.yul\":31563:31640   */\n      0x4e487b7100000000000000000000000000000000000000000000000000000000\n        /* \"#utility.yul\":31560:31561   */\n      0x00\n        /* \"#utility.yul\":31553:31641   */\n      mstore\n        /* \"#utility.yul\":31660:31664   */\n      0x11\n        /* \"#utility.yul\":31657:31658   */\n      0x04\n        /* \"#utility.yul\":31650:31665   */\n      mstore\n        /* \"#utility.yul\":31684:31688   */\n      0x24\n        /* \"#utility.yul\":31681:31682   */\n      0x00\n        /* \"#utility.yul\":31674:31689   */\n      revert\n        /* \"#utility.yul\":31701:31881   */\n    tag_655:\n        /* \"#utility.yul\":31749:31826   */\n      0x4e487b7100000000000000000000000000000000000000000000000000000000\n        /* \"#utility.yul\":31746:31747   */\n      0x00\n        /* \"#utility.yul\":31739:31827   */\n      mstore\n        /* \"#utility.yul\":31846:31850   */\n      0x12\n        /* \"#utility.yul\":31843:31844   */\n      0x04\n        /* \"#utility.yul\":31836:31851   */\n      mstore\n        /* \"#utility.yul\":31870:31874   */\n      0x24\n        /* \"#utility.yul\":31867:31868   */\n      0x00\n        /* \"#utility.yul\":31860:31875   */\n      revert\n        /* \"#utility.yul\":31887:32067   */\n    tag_680:\n        /* \"#utility.yul\":31935:32012   */\n      0x4e487b7100000000000000000000000000000000000000000000000000000000\n        /* \"#utility.yul\":31932:31933   */\n      0x00\n        /* \"#utility.yul\":31925:32013   */\n      mstore\n        /* \"#utility.yul\":32032:32036   */\n      0x22\n        /* \"#utility.yul\":32029:32030   */\n      0x04\n        /* \"#utility.yul\":32022:32037   */\n      mstore\n        /* \"#utility.yul\":32056:32060   */\n      0x24\n        /* \"#utility.yul\":32053:32054   */\n      0x00\n        /* \"#utility.yul\":32046:32061   */\n      revert\n        /* \"#utility.yul\":32073:32253   */\n    tag_260:\n        /* \"#utility.yul\":32121:32198   */\n      0x4e487b7100000000000000000000000000000000000000000000000000000000\n        /* \"#utility.yul\":32118:32119   */\n      0x00\n        /* \"#utility.yul\":32111:32199   */\n      mstore\n        /* \"#utility.yul\":32218:32222   */\n      0x32\n        /* \"#utility.yul\":32215:32216   */\n      0x04\n        /* \"#utility.yul\":32208:32223   */\n      mstore\n        /* \"#utility.yul\":32242:32246   */\n      0x24\n        /* \"#utility.yul\":32239:32240   */\n      0x00\n        /* \"#utility.yul\":32232:32247   */\n      revert\n        /* \"#utility.yul\":32259:32439   */\n    tag_635:\n        /* \"#utility.yul\":32307:32384   */\n      0x4e487b7100000000000000000000000000000000000000000000000000000000\n        /* \"#utility.yul\":32304:32305   */\n      0x00\n        /* \"#utility.yul\":32297:32385   */\n      mstore\n        /* \"#utility.yul\":32404:32408   */\n      0x41\n        /* \"#utility.yul\":32401:32402   */\n      0x04\n        /* \"#utility.yul\":32394:32409   */\n      mstore\n        /* \"#utility.yul\":32428:32432   */\n      0x24\n        /* \"#utility.yul\":32425:32426   */\n      0x00\n        /* \"#utility.yul\":32418:32433   */\n      revert\n        /* \"#utility.yul\":32445:32562   */\n    tag_354:\n        /* \"#utility.yul\":32554:32555   */\n      0x00\n        /* \"#utility.yul\":32551:32552   */\n      dup1\n        /* \"#utility.yul\":32544:32556   */\n      revert\n        /* \"#utility.yul\":32568:32685   */\n    tag_351:\n        /* \"#utility.yul\":32677:32678   */\n      0x00\n        /* \"#utility.yul\":32674:32675   */\n      dup1\n        /* \"#utility.yul\":32667:32679   */\n      revert\n        /* \"#utility.yul\":32691:32808   */\n    tag_357:\n        /* \"#utility.yul\":32800:32801   */\n      0x00\n        /* \"#utility.yul\":32797:32798   */\n      dup1\n        /* \"#utility.yul\":32790:32802   */\n      revert\n        /* \"#utility.yul\":32814:32931   */\n    tag_336:\n        /* \"#utility.yul\":32923:32924   */\n      0x00\n        /* \"#utility.yul\":32920:32921   */\n      dup1\n        /* \"#utility.yul\":32913:32925   */\n      revert\n        /* \"#utility.yul\":32937:33054   */\n    tag_374:\n        /* \"#utility.yul\":33046:33047   */\n      0x00\n        /* \"#utility.yul\":33043:33044   */\n      dup1\n        /* \"#utility.yul\":33036:33048   */\n      revert\n        /* \"#utility.yul\":33060:33177   */\n    tag_370:\n        /* \"#utility.yul\":33169:33170   */\n      0x00\n        /* \"#utility.yul\":33166:33167   */\n      dup1\n        /* \"#utility.yul\":33159:33171   */\n      revert\n        /* \"#utility.yul\":33183:33285   */\n    tag_485:\n        /* \"#utility.yul\":33224:33230   */\n      0x00\n        /* \"#utility.yul\":33275:33277   */\n      0x1f\n        /* \"#utility.yul\":33271:33278   */\n      not\n        /* \"#utility.yul\":33266:33268   */\n      0x1f\n        /* \"#utility.yul\":33259:33264   */\n      dup4\n        /* \"#utility.yul\":33255:33269   */\n      add\n        /* \"#utility.yul\":33251:33279   */\n      and\n        /* \"#utility.yul\":33241:33279   */\n      swap1\n      pop\n        /* \"#utility.yul\":33183:33285   */\n      swap2\n      swap1\n      pop\n      jump\t// out\n        /* \"#utility.yul\":33291:33472   */\n    tag_495:\n        /* \"#utility.yul\":33431:33464   */\n      0x526563697069656e7420697320616c7265616479207265676973746572656400\n        /* \"#utility.yul\":33427:33428   */\n      0x00\n        /* \"#utility.yul\":33419:33425   */\n      dup3\n        /* \"#utility.yul\":33415:33429   */\n      add\n        /* \"#utility.yul\":33408:33465   */\n      mstore\n        /* \"#utility.yul\":33291:33472   */\n      pop\n      jump\t// out\n        /* \"#utility.yul\":33478:33653   */\n    tag_500:\n        /* \"#utility.yul\":33618:33645   */\n      0x50726f706f73616c20616c726561647920637265617465642100000000000000\n        /* \"#utility.yul\":33614:33615   */\n      0x00\n        /* \"#utility.yul\":33606:33612   */\n      dup3\n        /* \"#utility.yul\":33602:33616   */\n      add\n        /* \"#utility.yul\":33595:33646   */\n      mstore\n        /* \"#utility.yul\":33478:33653   */\n      pop\n      jump\t// out\n        /* \"#utility.yul\":33659:33884   */\n    tag_505:\n        /* \"#utility.yul\":33799:33833   */\n      0x596f75206172656e277420617574686f72697a6520746f20636f6d70696c6520\n        /* \"#utility.yul\":33795:33796   */\n      0x00\n        /* \"#utility.yul\":33787:33793   */\n      dup3\n        /* \"#utility.yul\":33783:33797   */\n      add\n        /* \"#utility.yul\":33776:33834   */\n      mstore\n        /* \"#utility.yul\":33868:33876   */\n      0x42756e646c650000000000000000000000000000000000000000000000000000\n        /* \"#utility.yul\":33863:33865   */\n      0x20\n        /* \"#utility.yul\":33855:33861   */\n      dup3\n        /* \"#utility.yul\":33851:33866   */\n      add\n        /* \"#utility.yul\":33844:33877   */\n      mstore\n        /* \"#utility.yul\":33659:33884   */\n      pop\n      jump\t// out\n        /* \"#utility.yul\":33890:34068   */\n    tag_510:\n        /* \"#utility.yul\":34030:34060   */\n      0x596f7520616c72656164792073656e74206120726573706f6e73652e00000000\n        /* \"#utility.yul\":34026:34027   */\n      0x00\n        /* \"#utility.yul\":34018:34024   */\n      dup3\n        /* \"#utility.yul\":34014:34028   */\n      add\n        /* \"#utility.yul\":34007:34061   */\n      mstore\n        /* \"#utility.yul\":33890:34068   */\n      pop\n      jump\t// out\n        /* \"#utility.yul\":34074:34245   */\n    tag_515:\n        /* \"#utility.yul\":34214:34237   */\n      0x496e69746961746f722063616e277420766f7465210000000000000000000000\n        /* \"#utility.yul\":34210:34211   */\n      0x00\n        /* \"#utility.yul\":34202:34208   */\n      dup3\n        /* \"#utility.yul\":34198:34212   */\n      add\n        /* \"#utility.yul\":34191:34238   */\n      mstore\n        /* \"#utility.yul\":34074:34245   */\n      pop\n      jump\t// out\n        /* \"#utility.yul\":34251:34431   */\n    tag_520:\n        /* \"#utility.yul\":34391:34423   */\n      0x596f7520617265206e6f74207265676973746572656420746f20766f74650000\n        /* \"#utility.yul\":34387:34388   */\n      0x00\n        /* \"#utility.yul\":34379:34385   */\n      dup3\n        /* \"#utility.yul\":34375:34389   */\n      add\n        /* \"#utility.yul\":34368:34424   */\n      mstore\n        /* \"#utility.yul\":34251:34431   */\n      pop\n      jump\t// out\n        /* \"#utility.yul\":34437:34660   */\n    tag_525:\n        /* \"#utility.yul\":34577:34611   */\n      0x50726f706f73616c206861732072656163686564206974732065787069727920\n        /* \"#utility.yul\":34573:34574   */\n      0x00\n        /* \"#utility.yul\":34565:34571   */\n      dup3\n        /* \"#utility.yul\":34561:34575   */\n      add\n        /* \"#utility.yul\":34554:34612   */\n      mstore\n        /* \"#utility.yul\":34646:34652   */\n      0x6461746500000000000000000000000000000000000000000000000000000000\n        /* \"#utility.yul\":34641:34643   */\n      0x20\n        /* \"#utility.yul\":34633:34639   */\n      dup3\n        /* \"#utility.yul\":34629:34644   */\n      add\n        /* \"#utility.yul\":34622:34653   */\n      mstore\n        /* \"#utility.yul\":34437:34660   */\n      pop\n      jump\t// out\n        /* \"#utility.yul\":34666:34893   */\n    tag_530:\n        /* \"#utility.yul\":34806:34840   */\n      0x4f6e6c7920696e69746961746f722063616e2072656769737465722061207265\n        /* \"#utility.yul\":34802:34803   */\n      0x00\n        /* \"#utility.yul\":34794:34800   */\n      dup3\n        /* \"#utility.yul\":34790:34804   */\n      add\n        /* \"#utility.yul\":34783:34841   */\n      mstore\n        /* \"#utility.yul\":34875:34885   */\n      0x63697069656e742e000000000000000000000000000000000000000000000000\n        /* \"#utility.yul\":34870:34872   */\n      0x20\n        /* \"#utility.yul\":34862:34868   */\n      dup3\n        /* \"#utility.yul\":34858:34873   */\n      add\n        /* \"#utility.yul\":34851:34886   */\n      mstore\n        /* \"#utility.yul\":34666:34893   */\n      pop\n      jump\t// out\n        /* \"#utility.yul\":34899:35069   */\n    tag_535:\n        /* \"#utility.yul\":35039:35061   */\n      0x596f75206172656e277420496e69746961746f72000000000000000000000000\n        /* \"#utility.yul\":35035:35036   */\n      0x00\n        /* \"#utility.yul\":35027:35033   */\n      dup3\n        /* \"#utility.yul\":35023:35037   */\n      add\n        /* \"#utility.yul\":35016:35062   */\n      mstore\n        /* \"#utility.yul\":34899:35069   */\n      pop\n      jump\t// out\n        /* \"#utility.yul\":35075:35257   */\n    tag_540:\n        /* \"#utility.yul\":35215:35249   */\n      0x5665726469637420686173206e6f74206265656e207265616368656420796574\n        /* \"#utility.yul\":35211:35212   */\n      0x00\n        /* \"#utility.yul\":35203:35209   */\n      dup3\n        /* \"#utility.yul\":35199:35213   */\n      add\n        /* \"#utility.yul\":35192:35250   */\n      mstore\n        /* \"#utility.yul\":35075:35257   */\n      pop\n      jump\t// out\n        /* \"#utility.yul\":35263:35431   */\n    tag_545:\n        /* \"#utility.yul\":35403:35423   */\n      0x566f74696e672068617320657870697265640000000000000000000000000000\n        /* \"#utility.yul\":35399:35400   */\n      0x00\n        /* \"#utility.yul\":35391:35397   */\n      dup3\n        /* \"#utility.yul\":35387:35401   */\n      add\n        /* \"#utility.yul\":35380:35424   */\n      mstore\n        /* \"#utility.yul\":35263:35431   */\n      pop\n      jump\t// out\n        /* \"#utility.yul\":35437:35661   */\n    tag_550:\n        /* \"#utility.yul\":35577:35611   */\n      0x436f6e73656e7375732068617320616c7265616479206265656e2063616c6375\n        /* \"#utility.yul\":35573:35574   */\n      0x00\n        /* \"#utility.yul\":35565:35571   */\n      dup3\n        /* \"#utility.yul\":35561:35575   */\n      add\n        /* \"#utility.yul\":35554:35612   */\n      mstore\n        /* \"#utility.yul\":35646:35653   */\n      0x6c61746564000000000000000000000000000000000000000000000000000000\n        /* \"#utility.yul\":35641:35643   */\n      0x20\n        /* \"#utility.yul\":35633:35639   */\n      dup3\n        /* \"#utility.yul\":35629:35644   */\n      add\n        /* \"#utility.yul\":35622:35654   */\n      mstore\n        /* \"#utility.yul\":35437:35661   */\n      pop\n      jump\t// out\n        /* \"#utility.yul\":35667:35789   */\n    tag_342:\n        /* \"#utility.yul\":35740:35764   */\n      tag_714\n        /* \"#utility.yul\":35758:35763   */\n      dup2\n        /* \"#utility.yul\":35740:35764   */\n      tag_442\n      jump\t// in\n    tag_714:\n        /* \"#utility.yul\":35733:35738   */\n      dup2\n        /* \"#utility.yul\":35730:35765   */\n      eq\n        /* \"#utility.yul\":35720:35783   */\n      tag_715\n      jumpi\n        /* \"#utility.yul\":35779:35780   */\n      0x00\n        /* \"#utility.yul\":35776:35777   */\n      dup1\n        /* \"#utility.yul\":35769:35781   */\n      revert\n        /* \"#utility.yul\":35720:35783   */\n    tag_715:\n        /* \"#utility.yul\":35667:35789   */\n      pop\n      jump\t// out\n        /* \"#utility.yul\":35795:35917   */\n    tag_346:\n        /* \"#utility.yul\":35868:35892   */\n      tag_717\n        /* \"#utility.yul\":35886:35891   */\n      dup2\n        /* \"#utility.yul\":35868:35892   */\n      tag_470\n      jump\t// in\n    tag_717:\n        /* \"#utility.yul\":35861:35866   */\n      dup2\n        /* \"#utility.yul\":35858:35893   */\n      eq\n        /* \"#utility.yul\":35848:35911   */\n      tag_718\n      jumpi\n        /* \"#utility.yul\":35907:35908   */\n      0x00\n        /* \"#utility.yul\":35904:35905   */\n      dup1\n        /* \"#utility.yul\":35897:35909   */\n      revert\n        /* \"#utility.yul\":35848:35911   */\n    tag_718:\n        /* \"#utility.yul\":35795:35917   */\n      pop\n      jump\t// out\n        /* \"#utility.yul\":35923:36045   */\n    tag_366:\n        /* \"#utility.yul\":35996:36020   */\n      tag_720\n        /* \"#utility.yul\":36014:36019   */\n      dup2\n        /* \"#utility.yul\":35996:36020   */\n      tag_563\n      jump\t// in\n    tag_720:\n        /* \"#utility.yul\":35989:35994   */\n      dup2\n        /* \"#utility.yul\":35986:36021   */\n      eq\n        /* \"#utility.yul\":35976:36039   */\n      tag_721\n      jumpi\n        /* \"#utility.yul\":36035:36036   */\n      0x00\n        /* \"#utility.yul\":36032:36033   */\n      dup1\n        /* \"#utility.yul\":36025:36037   */\n      revert\n        /* \"#utility.yul\":35976:36039   */\n    tag_721:\n        /* \"#utility.yul\":35923:36045   */\n      pop\n      jump\t// out\n\n    auxdata: 0xa26469706673582212203902136f688464aac3da15f66030fbcecf718f0fdd9efd2456d53dd1a527e53664736f6c63430008070033\n}\n",
				"bytecode": {
					"linkReferences": {},
					"object": "608060405234801561001057600080fd5b50613b4a806100206000396000f3fe608060405234801561001057600080fd5b50600436106101375760003560e01c8063883a9673116100b8578063a6acce351161007c578063a6acce35146103c7578063bb9a31f3146103f7578063c9bc42ed14610427578063e5c8d65f14610459578063ec54868014610489578063fe290423146104b957610137565b8063883a9673146102e75780638a3b0d02146103035780638f6a35b714610333578063931da6b3146103655780639d6a31251461039557610137565b806331189fe2116100ff57806331189fe21461021a57806333a0b0ab1461024a57806337f2e1901461027c5780633d63af0e146102af5780637aa18f88146102cb57610137565b806306699b011461013c578063089a4c601461016c57806311c2b4131461019e57806317072d6b146101ce578063233d0fa1146101ea575b600080fd5b61015660048036038101906101519190612b9b565b6104e9565b6040516101639190613121565b60405180910390f35b61018660048036038101906101819190612a7a565b61054d565b60405161019593929190613435565b60405180910390f35b6101b860048036038101906101b39190612a7a565b61058d565b6040516101c59190613233565b60405180910390f35b6101e860048036038101906101e39190612b1f565b610643565b005b61020460048036038101906101ff9190612a7a565b610fe9565b60405161021191906131c5565b60405180910390f35b610234600480360381019061022f9190612a7a565b611017565b604051610241919061313c565b60405180910390f35b610264600480360381019061025f9190612ac3565b61104d565b60405161027393929190613157565b60405180910390f35b61029660048036038101906102919190612a2d565b6110d4565b6040516102a694939291906131e0565b60405180910390f35b6102c960048036038101906102c491906129cd565b6112f4565b005b6102e560048036038101906102e09190612c7a565b61174f565b005b61030160048036038101906102fc9190612a2d565b611b2d565b005b61031d60048036038101906103189190612a7a565b61215d565b60405161032a9190613233565b60405180910390f35b61034d60048036038101906103489190612b9b565b612213565b60405161035c93929190613157565b60405180910390f35b61037f600480360381019061037a9190612a7a565b6122a6565b60405161038c919061341a565b60405180910390f35b6103af60048036038101906103aa9190612bf7565b6122d4565b6040516103be9392919061318e565b60405180910390f35b6103e160048036038101906103dc9190612a7a565b6124b5565b6040516103ee91906131c5565b60405180910390f35b610411600480360381019061040c9190612a7a565b6124e3565b60405161041e919061341a565b60405180910390f35b610441600480360381019061043c9190612a2d565b612511565b60405161045093929190613255565b60405180910390f35b610473600480360381019061046e9190612a7a565b6126cd565b6040516104809190613121565b60405180910390f35b6104a3600480360381019061049e9190612a2d565b612716565b6040516104b0919061313c565b60405180910390f35b6104d360048036038101906104ce9190612a7a565b61274e565b6040516104e09190613233565b60405180910390f35b600c82805160208101820180518482526020830160208501208183528095505050505050818154811061051b57600080fd5b906000526020600020016000915091509054906101000a900473ffffffffffffffffffffffffffffffffffffffff1681565b6000818051602081018201805184825260208301602085012081835280955050505050506000915090508060000154908060010154908060020154905083565b60028180516020810182018051848252602083016020850120818352809550505050505060009150905080546105c2906136a4565b80601f01602080910402602001604051908101604052809291908181526020018280546105ee906136a4565b801561063b5780601f106106105761010080835404028352916020019161063b565b820191906000526020600020905b81548152906001019060200180831161061e57829003601f168201915b505050505081565b600082826040516106559291906130f1565b90815260200160405180910390206001015442106106a8576040517f08c379a000000000000000000000000000000000000000000000000000000000815260040161069f906133da565b60405180910390fd5b600073ffffffffffffffffffffffffffffffffffffffff16600a83836040516106d29291906130f1565b908152602001604051809103902060003373ffffffffffffffffffffffffffffffffffffffff1673ffffffffffffffffffffffffffffffffffffffff16815260200190815260200160002060000160029054906101000a900473ffffffffffffffffffffffffffffffffffffffff1673ffffffffffffffffffffffffffffffffffffffff161415610798576040517f08c379a000000000000000000000000000000000000000000000000000000000815260040161078f9061333a565b60405180910390fd5b600a82826040516107aa9291906130f1565b908152602001604051809103902060003373ffffffffffffffffffffffffffffffffffffffff1673ffffffffffffffffffffffffffffffffffffffff16815260200190815260200160002060000160009054906101000a900460ff1615610846576040517f08c379a000000000000000000000000000000000000000000000000000000000815260040161083d906132fa565b60405180910390fd5b6040518060400160405280600981526020017f6920617070726f766500000000000000000000000000000000000000000000008152508051906020012083805190602001201415610b60576001600a83836040516108a59291906130f1565b908152602001604051809103902060003373ffffffffffffffffffffffffffffffffffffffff1673ffffffffffffffffffffffffffffffffffffffff16815260200190815260200160002060000160006101000a81548160ff0219169083151502179055506001600a838360405161091e9291906130f1565b908152602001604051809103902060003373ffffffffffffffffffffffffffffffffffffffff1673ffffffffffffffffffffffffffffffffffffffff16815260200190815260200160002060000160016101000a81548160ff0219169083151502179055506001600583836040516109979291906130f1565b908152602001604051809103902060008282546109b49190613522565b925050819055506001600083836040516109cf9291906130f1565b908152602001604051809103902060000160008282546109ef9190613522565b92505081905550600b8282604051610a089291906130f1565b9081526020016040518091039020600a8383604051610a289291906130f1565b908152602001604051809103902060003373ffffffffffffffffffffffffffffffffffffffff1673ffffffffffffffffffffffffffffffffffffffff168152602001908152602001600020908060018154018082558091505060019003906000526020600020016000909190919091506000820160009054906101000a900460ff168160000160006101000a81548160ff0219169083151502179055506000820160019054906101000a900460ff168160000160016101000a81548160ff0219169083151502179055506000820160029054906101000a900473ffffffffffffffffffffffffffffffffffffffff168160000160026101000a81548173ffffffffffffffffffffffffffffffffffffffff021916908373ffffffffffffffffffffffffffffffffffffffff1602179055505050610fe4565b6040518060400160405280600c81526020017f6920646973617070726f766500000000000000000000000000000000000000008152508051906020012083805190602001201415610dc9576001600a8383604051610bbf9291906130f1565b908152602001604051809103902060003373ffffffffffffffffffffffffffffffffffffffff1673ffffffffffffffffffffffffffffffffffffffff16815260200190815260200160002060000160006101000a81548160ff021916908315150217905550600160008383604051610c389291906130f1565b90815260200160405180910390206000016000828254610c589190613522565b92505081905550600b8282604051610c719291906130f1565b9081526020016040518091039020600a8383604051610c919291906130f1565b908152602001604051809103902060003373ffffffffffffffffffffffffffffffffffffffff1673ffffffffffffffffffffffffffffffffffffffff168152602001908152602001600020908060018154018082558091505060019003906000526020600020016000909190919091506000820160009054906101000a900460ff168160000160006101000a81548160ff0219169083151502179055506000820160019054906101000a900460ff168160000160016101000a81548160ff0219169083151502179055506000820160029054906101000a900473ffffffffffffffffffffffffffffffffffffffff168160000160026101000a81548173ffffffffffffffffffffffffffffffffffffffff021916908373ffffffffffffffffffffffffffffffffffffffff1602179055505050610fe3565b6001600a8383604051610ddd9291906130f1565b908152602001604051809103902060003373ffffffffffffffffffffffffffffffffffffffff1673ffffffffffffffffffffffffffffffffffffffff16815260200190815260200160002060000160006101000a81548160ff021916908315150217905550600160008383604051610e569291906130f1565b90815260200160405180910390206000016000828254610e769190613522565b92505081905550600b8282604051610e8f9291906130f1565b9081526020016040518091039020600a8383604051610eaf9291906130f1565b908152602001604051809103902060003373ffffffffffffffffffffffffffffffffffffffff1673ffffffffffffffffffffffffffffffffffffffff168152602001908152602001600020908060018154018082558091505060019003906000526020600020016000909190919091506000820160009054906101000a900460ff168160000160006101000a81548160ff0219169083151502179055506000820160019054906101000a900460ff168160000160016101000a81548160ff0219169083151502179055506000820160029054906101000a900473ffffffffffffffffffffffffffffffffffffffff168160000160026101000a81548173ffffffffffffffffffffffffffffffffffffffff021916908373ffffffffffffffffffffffffffffffffffffffff16021790555050505b5b505050565b6007818051602081018201805184825260208301602085012081835280955050505050506000915090505481565b6008818051602081018201805184825260208301602085012081835280955050505050506000915054906101000a900460ff1681565b600a82805160208101820180518482526020830160208501208183528095505050505050602052806000526040600020600091509150508060000160009054906101000a900460ff16908060000160019054906101000a900460ff16908060000160029054906101000a900473ffffffffffffffffffffffffffffffffffffffff16905083565b6000606060006060600086866040516110ee9291906130f1565b908152602001604051809103902060010154421015611142576040517f08c379a0000000000000000000000000000000000000000000000000000000008152600401611139906133ba565b60405180910390fd5b6000600b87876040516111569291906130f1565b9081526020016040518091039020805480602002602001604051908101604052809291908181526020016000905b8282101561123e578382906000526020600020016040518060600160405290816000820160009054906101000a900460ff161515151581526020016000820160019054906101000a900460ff161515151581526020016000820160029054906101000a900473ffffffffffffffffffffffffffffffffffffffff1673ffffffffffffffffffffffffffffffffffffffff1673ffffffffffffffffffffffffffffffffffffffff168152505081526020019060010190611184565b5050505090506000600788886040516112589291906130f1565b9081526020016040518091039020549050600080898960405161127c9291906130f1565b9081526020016040518091039020600001549050818989838683838080601f016020809104026020016040519081016040528093929190818152602001838380828437600081840152601f19601f82011690508083019250505050505050925090919250965096509650965050505092959194509250565b600182826040516113069291906130f1565b908152602001604051809103902060009054906101000a900473ffffffffffffffffffffffffffffffffffffffff1673ffffffffffffffffffffffffffffffffffffffff163373ffffffffffffffffffffffffffffffffffffffff16146113a2576040517f08c379a00000000000000000000000000000000000000000000000000000000081526004016113999061337a565b60405180910390fd5b600182826040516113b49291906130f1565b908152602001604051809103902060009054906101000a900473ffffffffffffffffffffffffffffffffffffffff1673ffffffffffffffffffffffffffffffffffffffff168373ffffffffffffffffffffffffffffffffffffffff161415611451576040517f08c379a00000000000000000000000000000000000000000000000000000000081526004016114489061331a565b60405180910390fd5b600073ffffffffffffffffffffffffffffffffffffffff16600a838360405161147b9291906130f1565b908152602001604051809103902060008573ffffffffffffffffffffffffffffffffffffffff1673ffffffffffffffffffffffffffffffffffffffff16815260200190815260200160002060000160029054906101000a900473ffffffffffffffffffffffffffffffffffffffff1673ffffffffffffffffffffffffffffffffffffffff1614611540576040517f08c379a00000000000000000000000000000000000000000000000000000000081526004016115379061329a565b60405180910390fd5b600082826040516115529291906130f1565b90815260200160405180910390206001015442106115a5576040517f08c379a000000000000000000000000000000000000000000000000000000000815260040161159c9061335a565b60405180910390fd5b600060405180606001604052806000151581526020016000151581526020018573ffffffffffffffffffffffffffffffffffffffff16815250905080600a84846040516115f39291906130f1565b908152602001604051809103902060008673ffffffffffffffffffffffffffffffffffffffff1673ffffffffffffffffffffffffffffffffffffffff16815260200190815260200160002060008201518160000160006101000a81548160ff02191690831515021790555060208201518160000160016101000a81548160ff02191690831515021790555060408201518160000160026101000a81548173ffffffffffffffffffffffffffffffffffffffff021916908373ffffffffffffffffffffffffffffffffffffffff160217905550905050600c83836040516116da9291906130f1565b9081526020016040518091039020849080600181540180825580915050600190039060005260206000200160009091909190916101000a81548173ffffffffffffffffffffffffffffffffffffffff021916908373ffffffffffffffffffffffffffffffffffffffff16021790555050505050565b600073ffffffffffffffffffffffffffffffffffffffff16600187604051611777919061310a565b908152602001604051809103902060009054906101000a900473ffffffffffffffffffffffffffffffffffffffff1673ffffffffffffffffffffffffffffffffffffffff16146117fc576040517f08c379a00000000000000000000000000000000000000000000000000000000081526004016117f3906132ba565b60405180910390fd5b6000604051806060016040528060008152602001874261181c9190613522565b815260200186815250905086600284604051611838919061310a565b90815260200160405180910390209080519060200190611859929190612804565b50600060088860405161186c919061310a565b908152602001604051809103902060006101000a81548160ff0219169083151502179055507f52656a65637465640000000000000000000000000000000000000000000000006007886040516118c2919061310a565b908152602001604051809103902081905550856003886040516118e5919061310a565b90815260200160405180910390208190555085600384604051611908919061310a565b9081526020016040518091039020819055508360048860405161192b919061310a565b9081526020016040518091039020819055508360048460405161194e919061310a565b90815260200160405180910390208190555082600988604051611971919061310a565b90815260200160405180910390209080519060200190611992929190612804565b50816006886040516119a4919061310a565b908152602001604051809103902090805190602001906119c5929190612804565b5060006005886040516119d8919061310a565b908152602001604051809103902081905550336001886040516119fb919061310a565b908152602001604051809103902060006101000a81548173ffffffffffffffffffffffffffffffffffffffff021916908373ffffffffffffffffffffffffffffffffffffffff16021790555033600184604051611a58919061310a565b908152602001604051809103902060006101000a81548173ffffffffffffffffffffffffffffffffffffffff021916908373ffffffffffffffffffffffffffffffffffffffff16021790555080600088604051611ab5919061310a565b908152602001604051809103902060008201518160000155602082015181600101556040820151816002015590505080600084604051611af5919061310a565b908152602001604051809103902060008201518160000155602082015181600101556040820151816002015590505050505050505050565b60008282604051611b3f9291906130f1565b908152602001604051809103902060010154421015611b93576040517f08c379a0000000000000000000000000000000000000000000000000000000008152600401611b8a906133ba565b60405180910390fd5b6000151560088383604051611ba99291906130f1565b908152602001604051809103902060009054906101000a900460ff16151514611c07576040517f08c379a0000000000000000000000000000000000000000000000000000000008152600401611bfe906133fa565b60405180910390fd5b60018282604051611c199291906130f1565b908152602001604051809103902060009054906101000a900473ffffffffffffffffffffffffffffffffffffffff1673ffffffffffffffffffffffffffffffffffffffff163373ffffffffffffffffffffffffffffffffffffffff161480611d2e5750600073ffffffffffffffffffffffffffffffffffffffff16600a8383604051611ca69291906130f1565b908152602001604051809103902060003373ffffffffffffffffffffffffffffffffffffffff1673ffffffffffffffffffffffffffffffffffffffff16815260200190815260200160002060000160029054906101000a900473ffffffffffffffffffffffffffffffffffffffff1673ffffffffffffffffffffffffffffffffffffffff1614155b611d6d576040517f08c379a0000000000000000000000000000000000000000000000000000000008152600401611d64906132da565b60405180910390fd5b60006064600c8484604051611d839291906130f1565b90815260200160405180910390208054905060058585604051611da79291906130f1565b908152602001604051809103902054611dc09190613578565b611dca91906135a9565b905060008383604051611dde9291906130f1565b9081526020016040518091039020600201548110611e3c577f416363657074656400000000000000000000000000000000000000000000000060078484604051611e299291906130f1565b9081526020016040518091039020819055505b60005b600c8484604051611e519291906130f1565b9081526020016040518091039020805490508160ff16101561211e5760001515600a8585604051611e839291906130f1565b90815260200160405180910390206000600c8787604051611ea59291906130f1565b90815260200160405180910390208460ff1681548110611ec857611ec76137be565b5b9060005260206000200160009054906101000a900473ffffffffffffffffffffffffffffffffffffffff1673ffffffffffffffffffffffffffffffffffffffff1673ffffffffffffffffffffffffffffffffffffffff16815260200190815260200160002060000160009054906101000a900460ff161515141561210b57600b8484604051611f589291906130f1565b9081526020016040518091039020600a8585604051611f789291906130f1565b90815260200160405180910390206000600c8787604051611f9a9291906130f1565b90815260200160405180910390208460ff1681548110611fbd57611fbc6137be565b5b9060005260206000200160009054906101000a900473ffffffffffffffffffffffffffffffffffffffff1673ffffffffffffffffffffffffffffffffffffffff1673ffffffffffffffffffffffffffffffffffffffff168152602001908152602001600020908060018154018082558091505060019003906000526020600020016000909190919091506000820160009054906101000a900460ff168160000160006101000a81548160ff0219169083151502179055506000820160019054906101000a900460ff168160000160016101000a81548160ff0219169083151502179055506000820160029054906101000a900473ffffffffffffffffffffffffffffffffffffffff168160000160026101000a81548173ffffffffffffffffffffffffffffffffffffffff021916908373ffffffffffffffffffffffffffffffffffffffff16021790555050505b808061211690613707565b915050611e3f565b506001600884846040516121339291906130f1565b908152602001604051809103902060006101000a81548160ff021916908315150217905550505050565b6006818051602081018201805184825260208301602085012081835280955050505050506000915090508054612192906136a4565b80601f01602080910402602001604051908101604052809291908181526020018280546121be906136a4565b801561220b5780601f106121e05761010080835404028352916020019161220b565b820191906000526020600020905b8154815290600101906020018083116121ee57829003601f168201915b505050505081565b600b82805160208101820180518482526020830160208501208183528095505050505050818154811061224557600080fd5b90600052602060002001600091509150508060000160009054906101000a900460ff16908060000160019054906101000a900460ff16908060000160029054906101000a900473ffffffffffffffffffffffffffffffffffffffff16905083565b6005818051602081018201805184825260208301602085012081835280955050505050506000915090505481565b60008060006001876040516122e9919061310a565b908152602001604051809103902060009054906101000a900473ffffffffffffffffffffffffffffffffffffffff1673ffffffffffffffffffffffffffffffffffffffff163373ffffffffffffffffffffffffffffffffffffffff1614612385576040517f08c379a000000000000000000000000000000000000000000000000000000000815260040161237c9061339a565b60405180910390fd5b600060019050600060019050600060019050600073ffffffffffffffffffffffffffffffffffffffff1660018b6040516123bf919061310a565b908152602001604051809103902060009054906101000a900473ffffffffffffffffffffffffffffffffffffffff1673ffffffffffffffffffffffffffffffffffffffff16141561241d5760018060019550955095505050506124ab565b60008a60405161242d919061310a565b908152602001604051809103902060020154891461244a57600092505b60048a60405161245a919061310a565b908152602001604051809103902054871461247457600091505b8760038b604051612485919061310a565b9081526020016040518091039020541461249e57600090505b8282829550955095505050505b9450945094915050565b6004818051602081018201805184825260208301602085012081835280955050505050506000915090505481565b6003818051602081018201805184825260208301602085012081835280955050505050506000915090505481565b60608061251c61288a565b6002858560405161252e9291906130f1565b90815260200160405180910390206006868660405161254e9291906130f1565b90815260200160405180910390206000878760405161256e9291906130f1565b9081526020016040518091039020828054612588906136a4565b80601f01602080910402602001604051908101604052809291908181526020018280546125b4906136a4565b80156126015780601f106125d657610100808354040283529160200191612601565b820191906000526020600020905b8154815290600101906020018083116125e457829003601f168201915b50505050509250818054612614906136a4565b80601f0160208091040260200160405190810160405280929190818152602001828054612640906136a4565b801561268d5780601f106126625761010080835404028352916020019161268d565b820191906000526020600020905b81548152906001019060200180831161267057829003601f168201915b5050505050915080604051806060016040529081600082015481526020016001820154815260200160028201548152505090509250925092509250925092565b6001818051602081018201805184825260208301602085012081835280955050505050506000915054906101000a900473ffffffffffffffffffffffffffffffffffffffff1681565b60006008838360405161272a9291906130f1565b908152602001604051809103902060009054906101000a900460ff16905092915050565b6009818051602081018201805184825260208301602085012081835280955050505050506000915090508054612783906136a4565b80601f01602080910402602001604051908101604052809291908181526020018280546127af906136a4565b80156127fc5780601f106127d1576101008083540402835291602001916127fc565b820191906000526020600020905b8154815290600101906020018083116127df57829003601f168201915b505050505081565b828054612810906136a4565b90600052602060002090601f0160209004810192826128325760008555612879565b82601f1061284b57805160ff1916838001178555612879565b82800160010185558215612879579182015b8281111561287857825182559160200191906001019061285d565b5b50905061288691906128ab565b5090565b60405180606001604052806000815260200160008152602001600081525090565b5b808211156128c45760008160009055506001016128ac565b5090565b60006128db6128d684613491565b61346c565b9050828152602081018484840111156128f7576128f661382b565b5b612902848285613662565b509392505050565b60008135905061291981613acf565b92915050565b60008135905061292e81613ae6565b92915050565b60008083601f84011261294a57612949613821565b5b8235905067ffffffffffffffff8111156129675761296661381c565b5b60208301915083600182028301111561298357612982613826565b5b9250929050565b600082601f83011261299f5761299e613821565b5b81356129af8482602086016128c8565b91505092915050565b6000813590506129c781613afd565b92915050565b6000806000604084860312156129e6576129e5613835565b5b60006129f48682870161290a565b935050602084013567ffffffffffffffff811115612a1557612a14613830565b5b612a2186828701612934565b92509250509250925092565b60008060208385031215612a4457612a43613835565b5b600083013567ffffffffffffffff811115612a6257612a61613830565b5b612a6e85828601612934565b92509250509250929050565b600060208284031215612a9057612a8f613835565b5b600082013567ffffffffffffffff811115612aae57612aad613830565b5b612aba8482850161298a565b91505092915050565b60008060408385031215612ada57612ad9613835565b5b600083013567ffffffffffffffff811115612af857612af7613830565b5b612b048582860161298a565b9250506020612b158582860161290a565b9150509250929050565b600080600060408486031215612b3857612b37613835565b5b600084013567ffffffffffffffff811115612b5657612b55613830565b5b612b628682870161298a565b935050602084013567ffffffffffffffff811115612b8357612b82613830565b5b612b8f86828701612934565b92509250509250925092565b60008060408385031215612bb257612bb1613835565b5b600083013567ffffffffffffffff811115612bd057612bcf613830565b5b612bdc8582860161298a565b9250506020612bed858286016129b8565b9150509250929050565b60008060008060808587031215612c1157612c10613835565b5b600085013567ffffffffffffffff811115612c2f57612c2e613830565b5b612c3b8782880161298a565b9450506020612c4c878288016129b8565b9350506040612c5d878288016129b8565b9250506060612c6e8782880161291f565b91505092959194509250565b60008060008060008060c08789031215612c9757612c96613835565b5b600087013567ffffffffffffffff811115612cb557612cb4613830565b5b612cc189828a0161298a565b9650506020612cd289828a016129b8565b9550506040612ce389828a016129b8565b9450506060612cf489828a0161291f565b935050608087013567ffffffffffffffff811115612d1557612d14613830565b5b612d2189828a0161298a565b92505060a087013567ffffffffffffffff811115612d4257612d41613830565b5b612d4e89828a0161298a565b9150509295509295509295565b6000612d678383613091565b60608301905092915050565b612d7c81613603565b82525050565b612d8b81613603565b82525050565b6000612d9c826134d2565b612da681856134f5565b9350612db1836134c2565b8060005b83811015612de2578151612dc98882612d5b565b9750612dd4836134e8565b925050600181019050612db5565b5085935050505092915050565b612df881613615565b82525050565b612e0781613615565b82525050565b612e1681613621565b82525050565b6000612e288385613517565b9350612e35838584613662565b82840190509392505050565b6000612e4c826134dd565b612e568185613506565b9350612e66818560208601613671565b612e6f8161383a565b840191505092915050565b6000612e85826134dd565b612e8f8185613517565b9350612e9f818560208601613671565b80840191505092915050565b6000612eb8601f83613506565b9150612ec38261384b565b602082019050919050565b6000612edb601983613506565b9150612ee682613874565b602082019050919050565b6000612efe602683613506565b9150612f098261389d565b604082019050919050565b6000612f21601c83613506565b9150612f2c826138ec565b602082019050919050565b6000612f44601583613506565b9150612f4f82613915565b602082019050919050565b6000612f67601e83613506565b9150612f728261393e565b602082019050919050565b6000612f8a602483613506565b9150612f9582613967565b604082019050919050565b6000612fad602883613506565b9150612fb8826139b6565b604082019050919050565b6000612fd0601483613506565b9150612fdb82613a05565b602082019050919050565b6000612ff3602083613506565b9150612ffe82613a2e565b602082019050919050565b6000613016601283613506565b915061302182613a57565b602082019050919050565b6000613039602583613506565b915061304482613a80565b604082019050919050565b60608201600082015161306560008501826130d3565b50602082015161307860208501826130d3565b50604082015161308b60408501826130d3565b50505050565b6060820160008201516130a76000850182612def565b5060208201516130ba6020850182612def565b5060408201516130cd6040850182612d73565b50505050565b6130dc8161364b565b82525050565b6130eb8161364b565b82525050565b60006130fe828486612e1c565b91508190509392505050565b60006131168284612e7a565b915081905092915050565b60006020820190506131366000830184612d82565b92915050565b60006020820190506131516000830184612dfe565b92915050565b600060608201905061316c6000830186612dfe565b6131796020830185612dfe565b6131866040830184612d82565b949350505050565b60006060820190506131a36000830186612dfe565b6131b06020830185612dfe565b6131bd6040830184612dfe565b949350505050565b60006020820190506131da6000830184612e0d565b92915050565b60006080820190506131f56000830187612e0d565b81810360208301526132078186612e41565b905061321660408301856130e2565b81810360608301526132288184612d91565b905095945050505050565b6000602082019050818103600083015261324d8184612e41565b905092915050565b600060a082019050818103600083015261326f8186612e41565b905081810360208301526132838185612e41565b9050613292604083018461304f565b949350505050565b600060208201905081810360008301526132b381612eab565b9050919050565b600060208201905081810360008301526132d381612ece565b9050919050565b600060208201905081810360008301526132f381612ef1565b9050919050565b6000602082019050818103600083015261331381612f14565b9050919050565b6000602082019050818103600083015261333381612f37565b9050919050565b6000602082019050818103600083015261335381612f5a565b9050919050565b6000602082019050818103600083015261337381612f7d565b9050919050565b6000602082019050818103600083015261339381612fa0565b9050919050565b600060208201905081810360008301526133b381612fc3565b9050919050565b600060208201905081810360008301526133d381612fe6565b9050919050565b600060208201905081810360008301526133f381613009565b9050919050565b600060208201905081810360008301526134138161302c565b9050919050565b600060208201905061342f60008301846130e2565b92915050565b600060608201905061344a60008301866130e2565b61345760208301856130e2565b61346460408301846130e2565b949350505050565b6000613476613487565b905061348282826136d6565b919050565b6000604051905090565b600067ffffffffffffffff8211156134ac576134ab6137ed565b5b6134b58261383a565b9050602081019050919050565b6000819050602082019050919050565b600081519050919050565b600081519050919050565b6000602082019050919050565b600082825260208201905092915050565b600082825260208201905092915050565b600081905092915050565b600061352d8261364b565b91506135388361364b565b9250827fffffffffffffffffffffffffffffffffffffffffffffffffffffffffffffffff0382111561356d5761356c613731565b5b828201905092915050565b60006135838261364b565b915061358e8361364b565b92508261359e5761359d613760565b5b828204905092915050565b60006135b48261364b565b91506135bf8361364b565b9250817fffffffffffffffffffffffffffffffffffffffffffffffffffffffffffffffff04831182151516156135f8576135f7613731565b5b828202905092915050565b600061360e8261362b565b9050919050565b60008115159050919050565b6000819050919050565b600073ffffffffffffffffffffffffffffffffffffffff82169050919050565b6000819050919050565b600060ff82169050919050565b82818337600083830152505050565b60005b8381101561368f578082015181840152602081019050613674565b8381111561369e576000848401525b50505050565b600060028204905060018216806136bc57607f821691505b602082108114156136d0576136cf61378f565b5b50919050565b6136df8261383a565b810181811067ffffffffffffffff821117156136fe576136fd6137ed565b5b80604052505050565b600061371282613655565b915060ff82141561372657613725613731565b5b600182019050919050565b7f4e487b7100000000000000000000000000000000000000000000000000000000600052601160045260246000fd5b7f4e487b7100000000000000000000000000000000000000000000000000000000600052601260045260246000fd5b7f4e487b7100000000000000000000000000000000000000000000000000000000600052602260045260246000fd5b7f4e487b7100000000000000000000000000000000000000000000000000000000600052603260045260246000fd5b7f4e487b7100000000000000000000000000000000000000000000000000000000600052604160045260246000fd5b600080fd5b600080fd5b600080fd5b600080fd5b600080fd5b600080fd5b6000601f19601f8301169050919050565b7f526563697069656e7420697320616c7265616479207265676973746572656400600082015250565b7f50726f706f73616c20616c726561647920637265617465642100000000000000600082015250565b7f596f75206172656e277420617574686f72697a6520746f20636f6d70696c652060008201527f42756e646c650000000000000000000000000000000000000000000000000000602082015250565b7f596f7520616c72656164792073656e74206120726573706f6e73652e00000000600082015250565b7f496e69746961746f722063616e277420766f7465210000000000000000000000600082015250565b7f596f7520617265206e6f74207265676973746572656420746f20766f74650000600082015250565b7f50726f706f73616c20686173207265616368656420697473206578706972792060008201527f6461746500000000000000000000000000000000000000000000000000000000602082015250565b7f4f6e6c7920696e69746961746f722063616e207265676973746572206120726560008201527f63697069656e742e000000000000000000000000000000000000000000000000602082015250565b7f596f75206172656e277420496e69746961746f72000000000000000000000000600082015250565b7f5665726469637420686173206e6f74206265656e207265616368656420796574600082015250565b7f566f74696e672068617320657870697265640000000000000000000000000000600082015250565b7f436f6e73656e7375732068617320616c7265616479206265656e2063616c637560008201527f6c61746564000000000000000000000000000000000000000000000000000000602082015250565b613ad881613603565b8114613ae357600080fd5b50565b613aef81613621565b8114613afa57600080fd5b50565b613b068161364b565b8114613b1157600080fd5b5056fea26469706673582212203902136f688464aac3da15f66030fbcecf718f0fdd9efd2456d53dd1a527e53664736f6c63430008070033",
					"opcodes": "PUSH1 0x80 PUSH1 0x40 MSTORE CALLVALUE DUP1 ISZERO PUSH2 0x10 JUMPI PUSH1 0x0 DUP1 REVERT JUMPDEST POP PUSH2 0x3B4A DUP1 PUSH2 0x20 PUSH1 0x0 CODECOPY PUSH1 0x0 RETURN INVALID PUSH1 0x80 PUSH1 0x40 MSTORE CALLVALUE DUP1 ISZERO PUSH2 0x10 JUMPI PUSH1 0x0 DUP1 REVERT JUMPDEST POP PUSH1 0x4 CALLDATASIZE LT PUSH2 0x137 JUMPI PUSH1 0x0 CALLDATALOAD PUSH1 0xE0 SHR DUP1 PUSH4 0x883A9673 GT PUSH2 0xB8 JUMPI DUP1 PUSH4 0xA6ACCE35 GT PUSH2 0x7C JUMPI DUP1 PUSH4 0xA6ACCE35 EQ PUSH2 0x3C7 JUMPI DUP1 PUSH4 0xBB9A31F3 EQ PUSH2 0x3F7 JUMPI DUP1 PUSH4 0xC9BC42ED EQ PUSH2 0x427 JUMPI DUP1 PUSH4 0xE5C8D65F EQ PUSH2 0x459 JUMPI DUP1 PUSH4 0xEC548680 EQ PUSH2 0x489 JUMPI DUP1 PUSH4 0xFE290423 EQ PUSH2 0x4B9 JUMPI PUSH2 0x137 JUMP JUMPDEST DUP1 PUSH4 0x883A9673 EQ PUSH2 0x2E7 JUMPI DUP1 PUSH4 0x8A3B0D02 EQ PUSH2 0x303 JUMPI DUP1 PUSH4 0x8F6A35B7 EQ PUSH2 0x333 JUMPI DUP1 PUSH4 0x931DA6B3 EQ PUSH2 0x365 JUMPI DUP1 PUSH4 0x9D6A3125 EQ PUSH2 0x395 JUMPI PUSH2 0x137 JUMP JUMPDEST DUP1 PUSH4 0x31189FE2 GT PUSH2 0xFF JUMPI DUP1 PUSH4 0x31189FE2 EQ PUSH2 0x21A JUMPI DUP1 PUSH4 0x33A0B0AB EQ PUSH2 0x24A JUMPI DUP1 PUSH4 0x37F2E190 EQ PUSH2 0x27C JUMPI DUP1 PUSH4 0x3D63AF0E EQ PUSH2 0x2AF JUMPI DUP1 PUSH4 0x7AA18F88 EQ PUSH2 0x2CB JUMPI PUSH2 0x137 JUMP JUMPDEST DUP1 PUSH4 0x6699B01 EQ PUSH2 0x13C JUMPI DUP1 PUSH4 0x89A4C60 EQ PUSH2 0x16C JUMPI DUP1 PUSH4 0x11C2B413 EQ PUSH2 0x19E JUMPI DUP1 PUSH4 0x17072D6B EQ PUSH2 0x1CE JUMPI DUP1 PUSH4 0x233D0FA1 EQ PUSH2 0x1EA JUMPI JUMPDEST PUSH1 0x0 DUP1 REVERT JUMPDEST PUSH2 0x156 PUSH1 0x4 DUP1 CALLDATASIZE SUB DUP2 ADD SWAP1 PUSH2 0x151 SWAP2 SWAP1 PUSH2 0x2B9B JUMP JUMPDEST PUSH2 0x4E9 JUMP JUMPDEST PUSH1 0x40 MLOAD PUSH2 0x163 SWAP2 SWAP1 PUSH2 0x3121 JUMP JUMPDEST PUSH1 0x40 MLOAD DUP1 SWAP2 SUB SWAP1 RETURN JUMPDEST PUSH2 0x186 PUSH1 0x4 DUP1 CALLDATASIZE SUB DUP2 ADD SWAP1 PUSH2 0x181 SWAP2 SWAP1 PUSH2 0x2A7A JUMP JUMPDEST PUSH2 0x54D JUMP JUMPDEST PUSH1 0x40 MLOAD PUSH2 0x195 SWAP4 SWAP3 SWAP2 SWAP1 PUSH2 0x3435 JUMP JUMPDEST PUSH1 0x40 MLOAD DUP1 SWAP2 SUB SWAP1 RETURN JUMPDEST PUSH2 0x1B8 PUSH1 0x4 DUP1 CALLDATASIZE SUB DUP2 ADD SWAP1 PUSH2 0x1B3 SWAP2 SWAP1 PUSH2 0x2A7A JUMP JUMPDEST PUSH2 0x58D JUMP JUMPDEST PUSH1 0x40 MLOAD PUSH2 0x1C5 SWAP2 SWAP1 PUSH2 0x3233 JUMP JUMPDEST PUSH1 0x40 MLOAD DUP1 SWAP2 SUB SWAP1 RETURN JUMPDEST PUSH2 0x1E8 PUSH1 0x4 DUP1 CALLDATASIZE SUB DUP2 ADD SWAP1 PUSH2 0x1E3 SWAP2 SWAP1 PUSH2 0x2B1F JUMP JUMPDEST PUSH2 0x643 JUMP JUMPDEST STOP JUMPDEST PUSH2 0x204 PUSH1 0x4 DUP1 CALLDATASIZE SUB DUP2 ADD SWAP1 PUSH2 0x1FF SWAP2 SWAP1 PUSH2 0x2A7A JUMP JUMPDEST PUSH2 0xFE9 JUMP JUMPDEST PUSH1 0x40 MLOAD PUSH2 0x211 SWAP2 SWAP1 PUSH2 0x31C5 JUMP JUMPDEST PUSH1 0x40 MLOAD DUP1 SWAP2 SUB SWAP1 RETURN JUMPDEST PUSH2 0x234 PUSH1 0x4 DUP1 CALLDATASIZE SUB DUP2 ADD SWAP1 PUSH2 0x22F SWAP2 SWAP1 PUSH2 0x2A7A JUMP JUMPDEST PUSH2 0x1017 JUMP JUMPDEST PUSH1 0x40 MLOAD PUSH2 0x241 SWAP2 SWAP1 PUSH2 0x313C JUMP JUMPDEST PUSH1 0x40 MLOAD DUP1 SWAP2 SUB SWAP1 RETURN JUMPDEST PUSH2 0x264 PUSH1 0x4 DUP1 CALLDATASIZE SUB DUP2 ADD SWAP1 PUSH2 0x25F SWAP2 SWAP1 PUSH2 0x2AC3 JUMP JUMPDEST PUSH2 0x104D JUMP JUMPDEST PUSH1 0x40 MLOAD PUSH2 0x273 SWAP4 SWAP3 SWAP2 SWAP1 PUSH2 0x3157 JUMP JUMPDEST PUSH1 0x40 MLOAD DUP1 SWAP2 SUB SWAP1 RETURN JUMPDEST PUSH2 0x296 PUSH1 0x4 DUP1 CALLDATASIZE SUB DUP2 ADD SWAP1 PUSH2 0x291 SWAP2 SWAP1 PUSH2 0x2A2D JUMP JUMPDEST PUSH2 0x10D4 JUMP JUMPDEST PUSH1 0x40 MLOAD PUSH2 0x2A6 SWAP5 SWAP4 SWAP3 SWAP2 SWAP1 PUSH2 0x31E0 JUMP JUMPDEST PUSH1 0x40 MLOAD DUP1 SWAP2 SUB SWAP1 RETURN JUMPDEST PUSH2 0x2C9 PUSH1 0x4 DUP1 CALLDATASIZE SUB DUP2 ADD SWAP1 PUSH2 0x2C4 SWAP2 SWAP1 PUSH2 0x29CD JUMP JUMPDEST PUSH2 0x12F4 JUMP JUMPDEST STOP JUMPDEST PUSH2 0x2E5 PUSH1 0x4 DUP1 CALLDATASIZE SUB DUP2 ADD SWAP1 PUSH2 0x2E0 SWAP2 SWAP1 PUSH2 0x2C7A JUMP JUMPDEST PUSH2 0x174F JUMP JUMPDEST STOP JUMPDEST PUSH2 0x301 PUSH1 0x4 DUP1 CALLDATASIZE SUB DUP2 ADD SWAP1 PUSH2 0x2FC SWAP2 SWAP1 PUSH2 0x2A2D JUMP JUMPDEST PUSH2 0x1B2D JUMP JUMPDEST STOP JUMPDEST PUSH2 0x31D PUSH1 0x4 DUP1 CALLDATASIZE SUB DUP2 ADD SWAP1 PUSH2 0x318 SWAP2 SWAP1 PUSH2 0x2A7A JUMP JUMPDEST PUSH2 0x215D JUMP JUMPDEST PUSH1 0x40 MLOAD PUSH2 0x32A SWAP2 SWAP1 PUSH2 0x3233 JUMP JUMPDEST PUSH1 0x40 MLOAD DUP1 SWAP2 SUB SWAP1 RETURN JUMPDEST PUSH2 0x34D PUSH1 0x4 DUP1 CALLDATASIZE SUB DUP2 ADD SWAP1 PUSH2 0x348 SWAP2 SWAP1 PUSH2 0x2B9B JUMP JUMPDEST PUSH2 0x2213 JUMP JUMPDEST PUSH1 0x40 MLOAD PUSH2 0x35C SWAP4 SWAP3 SWAP2 SWAP1 PUSH2 0x3157 JUMP JUMPDEST PUSH1 0x40 MLOAD DUP1 SWAP2 SUB SWAP1 RETURN JUMPDEST PUSH2 0x37F PUSH1 0x4 DUP1 CALLDATASIZE SUB DUP2 ADD SWAP1 PUSH2 0x37A SWAP2 SWAP1 PUSH2 0x2A7A JUMP JUMPDEST PUSH2 0x22A6 JUMP JUMPDEST PUSH1 0x40 MLOAD PUSH2 0x38C SWAP2 SWAP1 PUSH2 0x341A JUMP JUMPDEST PUSH1 0x40 MLOAD DUP1 SWAP2 SUB SWAP1 RETURN JUMPDEST PUSH2 0x3AF PUSH1 0x4 DUP1 CALLDATASIZE SUB DUP2 ADD SWAP1 PUSH2 0x3AA SWAP2 SWAP1 PUSH2 0x2BF7 JUMP JUMPDEST PUSH2 0x22D4 JUMP JUMPDEST PUSH1 0x40 MLOAD PUSH2 0x3BE SWAP4 SWAP3 SWAP2 SWAP1 PUSH2 0x318E JUMP JUMPDEST PUSH1 0x40 MLOAD DUP1 SWAP2 SUB SWAP1 RETURN JUMPDEST PUSH2 0x3E1 PUSH1 0x4 DUP1 CALLDATASIZE SUB DUP2 ADD SWAP1 PUSH2 0x3DC SWAP2 SWAP1 PUSH2 0x2A7A JUMP JUMPDEST PUSH2 0x24B5 JUMP JUMPDEST PUSH1 0x40 MLOAD PUSH2 0x3EE SWAP2 SWAP1 PUSH2 0x31C5 JUMP JUMPDEST PUSH1 0x40 MLOAD DUP1 SWAP2 SUB SWAP1 RETURN JUMPDEST PUSH2 0x411 PUSH1 0x4 DUP1 CALLDATASIZE SUB DUP2 ADD SWAP1 PUSH2 0x40C SWAP2 SWAP1 PUSH2 0x2A7A JUMP JUMPDEST PUSH2 0x24E3 JUMP JUMPDEST PUSH1 0x40 MLOAD PUSH2 0x41E SWAP2 SWAP1 PUSH2 0x341A JUMP JUMPDEST PUSH1 0x40 MLOAD DUP1 SWAP2 SUB SWAP1 RETURN JUMPDEST PUSH2 0x441 PUSH1 0x4 DUP1 CALLDATASIZE SUB DUP2 ADD SWAP1 PUSH2 0x43C SWAP2 SWAP1 PUSH2 0x2A2D JUMP JUMPDEST PUSH2 0x2511 JUMP JUMPDEST PUSH1 0x40 MLOAD PUSH2 0x450 SWAP4 SWAP3 SWAP2 SWAP1 PUSH2 0x3255 JUMP JUMPDEST PUSH1 0x40 MLOAD DUP1 SWAP2 SUB SWAP1 RETURN JUMPDEST PUSH2 0x473 PUSH1 0x4 DUP1 CALLDATASIZE SUB DUP2 ADD SWAP1 PUSH2 0x46E SWAP2 SWAP1 PUSH2 0x2A7A JUMP JUMPDEST PUSH2 0x26CD JUMP JUMPDEST PUSH1 0x40 MLOAD PUSH2 0x480 SWAP2 SWAP1 PUSH2 0x3121 JUMP JUMPDEST PUSH1 0x40 MLOAD DUP1 SWAP2 SUB SWAP1 RETURN JUMPDEST PUSH2 0x4A3 PUSH1 0x4 DUP1 CALLDATASIZE SUB DUP2 ADD SWAP1 PUSH2 0x49E SWAP2 SWAP1 PUSH2 0x2A2D JUMP JUMPDEST PUSH2 0x2716 JUMP JUMPDEST PUSH1 0x40 MLOAD PUSH2 0x4B0 SWAP2 SWAP1 PUSH2 0x313C JUMP JUMPDEST PUSH1 0x40 MLOAD DUP1 SWAP2 SUB SWAP1 RETURN JUMPDEST PUSH2 0x4D3 PUSH1 0x4 DUP1 CALLDATASIZE SUB DUP2 ADD SWAP1 PUSH2 0x4CE SWAP2 SWAP1 PUSH2 0x2A7A JUMP JUMPDEST PUSH2 0x274E JUMP JUMPDEST PUSH1 0x40 MLOAD PUSH2 0x4E0 SWAP2 SWAP1 PUSH2 0x3233 JUMP JUMPDEST PUSH1 0x40 MLOAD DUP1 SWAP2 SUB SWAP1 RETURN JUMPDEST PUSH1 0xC DUP3 DUP1 MLOAD PUSH1 0x20 DUP2 ADD DUP3 ADD DUP1 MLOAD DUP5 DUP3 MSTORE PUSH1 0x20 DUP4 ADD PUSH1 0x20 DUP6 ADD KECCAK256 DUP2 DUP4 MSTORE DUP1 SWAP6 POP POP POP POP POP POP DUP2 DUP2 SLOAD DUP2 LT PUSH2 0x51B JUMPI PUSH1 0x0 DUP1 REVERT JUMPDEST SWAP1 PUSH1 0x0 MSTORE PUSH1 0x20 PUSH1 0x0 KECCAK256 ADD PUSH1 0x0 SWAP2 POP SWAP2 POP SWAP1 SLOAD SWAP1 PUSH2 0x100 EXP SWAP1 DIV PUSH20 0xFFFFFFFFFFFFFFFFFFFFFFFFFFFFFFFFFFFFFFFF AND DUP2 JUMP JUMPDEST PUSH1 0x0 DUP2 DUP1 MLOAD PUSH1 0x20 DUP2 ADD DUP3 ADD DUP1 MLOAD DUP5 DUP3 MSTORE PUSH1 0x20 DUP4 ADD PUSH1 0x20 DUP6 ADD KECCAK256 DUP2 DUP4 MSTORE DUP1 SWAP6 POP POP POP POP POP POP PUSH1 0x0 SWAP2 POP SWAP1 POP DUP1 PUSH1 0x0 ADD SLOAD SWAP1 DUP1 PUSH1 0x1 ADD SLOAD SWAP1 DUP1 PUSH1 0x2 ADD SLOAD SWAP1 POP DUP4 JUMP JUMPDEST PUSH1 0x2 DUP2 DUP1 MLOAD PUSH1 0x20 DUP2 ADD DUP3 ADD DUP1 MLOAD DUP5 DUP3 MSTORE PUSH1 0x20 DUP4 ADD PUSH1 0x20 DUP6 ADD KECCAK256 DUP2 DUP4 MSTORE DUP1 SWAP6 POP POP POP POP POP POP PUSH1 0x0 SWAP2 POP SWAP1 POP DUP1 SLOAD PUSH2 0x5C2 SWAP1 PUSH2 0x36A4 JUMP JUMPDEST DUP1 PUSH1 0x1F ADD PUSH1 0x20 DUP1 SWAP2 DIV MUL PUSH1 0x20 ADD PUSH1 0x40 MLOAD SWAP1 DUP2 ADD PUSH1 0x40 MSTORE DUP1 SWAP3 SWAP2 SWAP1 DUP2 DUP2 MSTORE PUSH1 0x20 ADD DUP3 DUP1 SLOAD PUSH2 0x5EE SWAP1 PUSH2 0x36A4 JUMP JUMPDEST DUP1 ISZERO PUSH2 0x63B JUMPI DUP1 PUSH1 0x1F LT PUSH2 0x610 JUMPI PUSH2 0x100 DUP1 DUP4 SLOAD DIV MUL DUP4 MSTORE SWAP2 PUSH1 0x20 ADD SWAP2 PUSH2 0x63B JUMP JUMPDEST DUP3 ADD SWAP2 SWAP1 PUSH1 0x0 MSTORE PUSH1 0x20 PUSH1 0x0 KECCAK256 SWAP1 JUMPDEST DUP2 SLOAD DUP2 MSTORE SWAP1 PUSH1 0x1 ADD SWAP1 PUSH1 0x20 ADD DUP1 DUP4 GT PUSH2 0x61E JUMPI DUP3 SWAP1 SUB PUSH1 0x1F AND DUP3 ADD SWAP2 JUMPDEST POP POP POP POP POP DUP2 JUMP JUMPDEST PUSH1 0x0 DUP3 DUP3 PUSH1 0x40 MLOAD PUSH2 0x655 SWAP3 SWAP2 SWAP1 PUSH2 0x30F1 JUMP JUMPDEST SWAP1 DUP2 MSTORE PUSH1 0x20 ADD PUSH1 0x40 MLOAD DUP1 SWAP2 SUB SWAP1 KECCAK256 PUSH1 0x1 ADD SLOAD TIMESTAMP LT PUSH2 0x6A8 JUMPI PUSH1 0x40 MLOAD PUSH32 0x8C379A000000000000000000000000000000000000000000000000000000000 DUP2 MSTORE PUSH1 0x4 ADD PUSH2 0x69F SWAP1 PUSH2 0x33DA JUMP JUMPDEST PUSH1 0x40 MLOAD DUP1 SWAP2 SUB SWAP1 REVERT JUMPDEST PUSH1 0x0 PUSH20 0xFFFFFFFFFFFFFFFFFFFFFFFFFFFFFFFFFFFFFFFF AND PUSH1 0xA DUP4 DUP4 PUSH1 0x40 MLOAD PUSH2 0x6D2 SWAP3 SWAP2 SWAP1 PUSH2 0x30F1 JUMP JUMPDEST SWAP1 DUP2 MSTORE PUSH1 0x20 ADD PUSH1 0x40 MLOAD DUP1 SWAP2 SUB SWAP1 KECCAK256 PUSH1 0x0 CALLER PUSH20 0xFFFFFFFFFFFFFFFFFFFFFFFFFFFFFFFFFFFFFFFF AND PUSH20 0xFFFFFFFFFFFFFFFFFFFFFFFFFFFFFFFFFFFFFFFF AND DUP2 MSTORE PUSH1 0x20 ADD SWAP1 DUP2 MSTORE PUSH1 0x20 ADD PUSH1 0x0 KECCAK256 PUSH1 0x0 ADD PUSH1 0x2 SWAP1 SLOAD SWAP1 PUSH2 0x100 EXP SWAP1 DIV PUSH20 0xFFFFFFFFFFFFFFFFFFFFFFFFFFFFFFFFFFFFFFFF AND PUSH20 0xFFFFFFFFFFFFFFFFFFFFFFFFFFFFFFFFFFFFFFFF AND EQ ISZERO PUSH2 0x798 JUMPI PUSH1 0x40 MLOAD PUSH32 0x8C379A000000000000000000000000000000000000000000000000000000000 DUP2 MSTORE PUSH1 0x4 ADD PUSH2 0x78F SWAP1 PUSH2 0x333A JUMP JUMPDEST PUSH1 0x40 MLOAD DUP1 SWAP2 SUB SWAP1 REVERT JUMPDEST PUSH1 0xA DUP3 DUP3 PUSH1 0x40 MLOAD PUSH2 0x7AA SWAP3 SWAP2 SWAP1 PUSH2 0x30F1 JUMP JUMPDEST SWAP1 DUP2 MSTORE PUSH1 0x20 ADD PUSH1 0x40 MLOAD DUP1 SWAP2 SUB SWAP1 KECCAK256 PUSH1 0x0 CALLER PUSH20 0xFFFFFFFFFFFFFFFFFFFFFFFFFFFFFFFFFFFFFFFF AND PUSH20 0xFFFFFFFFFFFFFFFFFFFFFFFFFFFFFFFFFFFFFFFF AND DUP2 MSTORE PUSH1 0x20 ADD SWAP1 DUP2 MSTORE PUSH1 0x20 ADD PUSH1 0x0 KECCAK256 PUSH1 0x0 ADD PUSH1 0x0 SWAP1 SLOAD SWAP1 PUSH2 0x100 EXP SWAP1 DIV PUSH1 0xFF AND ISZERO PUSH2 0x846 JUMPI PUSH1 0x40 MLOAD PUSH32 0x8C379A000000000000000000000000000000000000000000000000000000000 DUP2 MSTORE PUSH1 0x4 ADD PUSH2 0x83D SWAP1 PUSH2 0x32FA JUMP JUMPDEST PUSH1 0x40 MLOAD DUP1 SWAP2 SUB SWAP1 REVERT JUMPDEST PUSH1 0x40 MLOAD DUP1 PUSH1 0x40 ADD PUSH1 0x40 MSTORE DUP1 PUSH1 0x9 DUP2 MSTORE PUSH1 0x20 ADD PUSH32 0x6920617070726F76650000000000000000000000000000000000000000000000 DUP2 MSTORE POP DUP1 MLOAD SWAP1 PUSH1 0x20 ADD KECCAK256 DUP4 DUP1 MLOAD SWAP1 PUSH1 0x20 ADD KECCAK256 EQ ISZERO PUSH2 0xB60 JUMPI PUSH1 0x1 PUSH1 0xA DUP4 DUP4 PUSH1 0x40 MLOAD PUSH2 0x8A5 SWAP3 SWAP2 SWAP1 PUSH2 0x30F1 JUMP JUMPDEST SWAP1 DUP2 MSTORE PUSH1 0x20 ADD PUSH1 0x40 MLOAD DUP1 SWAP2 SUB SWAP1 KECCAK256 PUSH1 0x0 CALLER PUSH20 0xFFFFFFFFFFFFFFFFFFFFFFFFFFFFFFFFFFFFFFFF AND PUSH20 0xFFFFFFFFFFFFFFFFFFFFFFFFFFFFFFFFFFFFFFFF AND DUP2 MSTORE PUSH1 0x20 ADD SWAP1 DUP2 MSTORE PUSH1 0x20 ADD PUSH1 0x0 KECCAK256 PUSH1 0x0 ADD PUSH1 0x0 PUSH2 0x100 EXP DUP2 SLOAD DUP2 PUSH1 0xFF MUL NOT AND SWAP1 DUP4 ISZERO ISZERO MUL OR SWAP1 SSTORE POP PUSH1 0x1 PUSH1 0xA DUP4 DUP4 PUSH1 0x40 MLOAD PUSH2 0x91E SWAP3 SWAP2 SWAP1 PUSH2 0x30F1 JUMP JUMPDEST SWAP1 DUP2 MSTORE PUSH1 0x20 ADD PUSH1 0x40 MLOAD DUP1 SWAP2 SUB SWAP1 KECCAK256 PUSH1 0x0 CALLER PUSH20 0xFFFFFFFFFFFFFFFFFFFFFFFFFFFFFFFFFFFFFFFF AND PUSH20 0xFFFFFFFFFFFFFFFFFFFFFFFFFFFFFFFFFFFFFFFF AND DUP2 MSTORE PUSH1 0x20 ADD SWAP1 DUP2 MSTORE PUSH1 0x20 ADD PUSH1 0x0 KECCAK256 PUSH1 0x0 ADD PUSH1 0x1 PUSH2 0x100 EXP DUP2 SLOAD DUP2 PUSH1 0xFF MUL NOT AND SWAP1 DUP4 ISZERO ISZERO MUL OR SWAP1 SSTORE POP PUSH1 0x1 PUSH1 0x5 DUP4 DUP4 PUSH1 0x40 MLOAD PUSH2 0x997 SWAP3 SWAP2 SWAP1 PUSH2 0x30F1 JUMP JUMPDEST SWAP1 DUP2 MSTORE PUSH1 0x20 ADD PUSH1 0x40 MLOAD DUP1 SWAP2 SUB SWAP1 KECCAK256 PUSH1 0x0 DUP3 DUP3 SLOAD PUSH2 0x9B4 SWAP2 SWAP1 PUSH2 0x3522 JUMP JUMPDEST SWAP3 POP POP DUP2 SWAP1 SSTORE POP PUSH1 0x1 PUSH1 0x0 DUP4 DUP4 PUSH1 0x40 MLOAD PUSH2 0x9CF SWAP3 SWAP2 SWAP1 PUSH2 0x30F1 JUMP JUMPDEST SWAP1 DUP2 MSTORE PUSH1 0x20 ADD PUSH1 0x40 MLOAD DUP1 SWAP2 SUB SWAP1 KECCAK256 PUSH1 0x0 ADD PUSH1 0x0 DUP3 DUP3 SLOAD PUSH2 0x9EF SWAP2 SWAP1 PUSH2 0x3522 JUMP JUMPDEST SWAP3 POP POP DUP2 SWAP1 SSTORE POP PUSH1 0xB DUP3 DUP3 PUSH1 0x40 MLOAD PUSH2 0xA08 SWAP3 SWAP2 SWAP1 PUSH2 0x30F1 JUMP JUMPDEST SWAP1 DUP2 MSTORE PUSH1 0x20 ADD PUSH1 0x40 MLOAD DUP1 SWAP2 SUB SWAP1 KECCAK256 PUSH1 0xA DUP4 DUP4 PUSH1 0x40 MLOAD PUSH2 0xA28 SWAP3 SWAP2 SWAP1 PUSH2 0x30F1 JUMP JUMPDEST SWAP1 DUP2 MSTORE PUSH1 0x20 ADD PUSH1 0x40 MLOAD DUP1 SWAP2 SUB SWAP1 KECCAK256 PUSH1 0x0 CALLER PUSH20 0xFFFFFFFFFFFFFFFFFFFFFFFFFFFFFFFFFFFFFFFF AND PUSH20 0xFFFFFFFFFFFFFFFFFFFFFFFFFFFFFFFFFFFFFFFF AND DUP2 MSTORE PUSH1 0x20 ADD SWAP1 DUP2 MSTORE PUSH1 0x20 ADD PUSH1 0x0 KECCAK256 SWAP1 DUP1 PUSH1 0x1 DUP2 SLOAD ADD DUP1 DUP3 SSTORE DUP1 SWAP2 POP POP PUSH1 0x1 SWAP1 SUB SWAP1 PUSH1 0x0 MSTORE PUSH1 0x20 PUSH1 0x0 KECCAK256 ADD PUSH1 0x0 SWAP1 SWAP2 SWAP1 SWAP2 SWAP1 SWAP2 POP PUSH1 0x0 DUP3 ADD PUSH1 0x0 SWAP1 SLOAD SWAP1 PUSH2 0x100 EXP SWAP1 DIV PUSH1 0xFF AND DUP2 PUSH1 0x0 ADD PUSH1 0x0 PUSH2 0x100 EXP DUP2 SLOAD DUP2 PUSH1 0xFF MUL NOT AND SWAP1 DUP4 ISZERO ISZERO MUL OR SWAP1 SSTORE POP PUSH1 0x0 DUP3 ADD PUSH1 0x1 SWAP1 SLOAD SWAP1 PUSH2 0x100 EXP SWAP1 DIV PUSH1 0xFF AND DUP2 PUSH1 0x0 ADD PUSH1 0x1 PUSH2 0x100 EXP DUP2 SLOAD DUP2 PUSH1 0xFF MUL NOT AND SWAP1 DUP4 ISZERO ISZERO MUL OR SWAP1 SSTORE POP PUSH1 0x0 DUP3 ADD PUSH1 0x2 SWAP1 SLOAD SWAP1 PUSH2 0x100 EXP SWAP1 DIV PUSH20 0xFFFFFFFFFFFFFFFFFFFFFFFFFFFFFFFFFFFFFFFF AND DUP2 PUSH1 0x0 ADD PUSH1 0x2 PUSH2 0x100 EXP DUP2 SLOAD DUP2 PUSH20 0xFFFFFFFFFFFFFFFFFFFFFFFFFFFFFFFFFFFFFFFF MUL NOT AND SWAP1 DUP4 PUSH20 0xFFFFFFFFFFFFFFFFFFFFFFFFFFFFFFFFFFFFFFFF AND MUL OR SWAP1 SSTORE POP POP POP PUSH2 0xFE4 JUMP JUMPDEST PUSH1 0x40 MLOAD DUP1 PUSH1 0x40 ADD PUSH1 0x40 MSTORE DUP1 PUSH1 0xC DUP2 MSTORE PUSH1 0x20 ADD PUSH32 0x6920646973617070726F76650000000000000000000000000000000000000000 DUP2 MSTORE POP DUP1 MLOAD SWAP1 PUSH1 0x20 ADD KECCAK256 DUP4 DUP1 MLOAD SWAP1 PUSH1 0x20 ADD KECCAK256 EQ ISZERO PUSH2 0xDC9 JUMPI PUSH1 0x1 PUSH1 0xA DUP4 DUP4 PUSH1 0x40 MLOAD PUSH2 0xBBF SWAP3 SWAP2 SWAP1 PUSH2 0x30F1 JUMP JUMPDEST SWAP1 DUP2 MSTORE PUSH1 0x20 ADD PUSH1 0x40 MLOAD DUP1 SWAP2 SUB SWAP1 KECCAK256 PUSH1 0x0 CALLER PUSH20 0xFFFFFFFFFFFFFFFFFFFFFFFFFFFFFFFFFFFFFFFF AND PUSH20 0xFFFFFFFFFFFFFFFFFFFFFFFFFFFFFFFFFFFFFFFF AND DUP2 MSTORE PUSH1 0x20 ADD SWAP1 DUP2 MSTORE PUSH1 0x20 ADD PUSH1 0x0 KECCAK256 PUSH1 0x0 ADD PUSH1 0x0 PUSH2 0x100 EXP DUP2 SLOAD DUP2 PUSH1 0xFF MUL NOT AND SWAP1 DUP4 ISZERO ISZERO MUL OR SWAP1 SSTORE POP PUSH1 0x1 PUSH1 0x0 DUP4 DUP4 PUSH1 0x40 MLOAD PUSH2 0xC38 SWAP3 SWAP2 SWAP1 PUSH2 0x30F1 JUMP JUMPDEST SWAP1 DUP2 MSTORE PUSH1 0x20 ADD PUSH1 0x40 MLOAD DUP1 SWAP2 SUB SWAP1 KECCAK256 PUSH1 0x0 ADD PUSH1 0x0 DUP3 DUP3 SLOAD PUSH2 0xC58 SWAP2 SWAP1 PUSH2 0x3522 JUMP JUMPDEST SWAP3 POP POP DUP2 SWAP1 SSTORE POP PUSH1 0xB DUP3 DUP3 PUSH1 0x40 MLOAD PUSH2 0xC71 SWAP3 SWAP2 SWAP1 PUSH2 0x30F1 JUMP JUMPDEST SWAP1 DUP2 MSTORE PUSH1 0x20 ADD PUSH1 0x40 MLOAD DUP1 SWAP2 SUB SWAP1 KECCAK256 PUSH1 0xA DUP4 DUP4 PUSH1 0x40 MLOAD PUSH2 0xC91 SWAP3 SWAP2 SWAP1 PUSH2 0x30F1 JUMP JUMPDEST SWAP1 DUP2 MSTORE PUSH1 0x20 ADD PUSH1 0x40 MLOAD DUP1 SWAP2 SUB SWAP1 KECCAK256 PUSH1 0x0 CALLER PUSH20 0xFFFFFFFFFFFFFFFFFFFFFFFFFFFFFFFFFFFFFFFF AND PUSH20 0xFFFFFFFFFFFFFFFFFFFFFFFFFFFFFFFFFFFFFFFF AND DUP2 MSTORE PUSH1 0x20 ADD SWAP1 DUP2 MSTORE PUSH1 0x20 ADD PUSH1 0x0 KECCAK256 SWAP1 DUP1 PUSH1 0x1 DUP2 SLOAD ADD DUP1 DUP3 SSTORE DUP1 SWAP2 POP POP PUSH1 0x1 SWAP1 SUB SWAP1 PUSH1 0x0 MSTORE PUSH1 0x20 PUSH1 0x0 KECCAK256 ADD PUSH1 0x0 SWAP1 SWAP2 SWAP1 SWAP2 SWAP1 SWAP2 POP PUSH1 0x0 DUP3 ADD PUSH1 0x0 SWAP1 SLOAD SWAP1 PUSH2 0x100 EXP SWAP1 DIV PUSH1 0xFF AND DUP2 PUSH1 0x0 ADD PUSH1 0x0 PUSH2 0x100 EXP DUP2 SLOAD DUP2 PUSH1 0xFF MUL NOT AND SWAP1 DUP4 ISZERO ISZERO MUL OR SWAP1 SSTORE POP PUSH1 0x0 DUP3 ADD PUSH1 0x1 SWAP1 SLOAD SWAP1 PUSH2 0x100 EXP SWAP1 DIV PUSH1 0xFF AND DUP2 PUSH1 0x0 ADD PUSH1 0x1 PUSH2 0x100 EXP DUP2 SLOAD DUP2 PUSH1 0xFF MUL NOT AND SWAP1 DUP4 ISZERO ISZERO MUL OR SWAP1 SSTORE POP PUSH1 0x0 DUP3 ADD PUSH1 0x2 SWAP1 SLOAD SWAP1 PUSH2 0x100 EXP SWAP1 DIV PUSH20 0xFFFFFFFFFFFFFFFFFFFFFFFFFFFFFFFFFFFFFFFF AND DUP2 PUSH1 0x0 ADD PUSH1 0x2 PUSH2 0x100 EXP DUP2 SLOAD DUP2 PUSH20 0xFFFFFFFFFFFFFFFFFFFFFFFFFFFFFFFFFFFFFFFF MUL NOT AND SWAP1 DUP4 PUSH20 0xFFFFFFFFFFFFFFFFFFFFFFFFFFFFFFFFFFFFFFFF AND MUL OR SWAP1 SSTORE POP POP POP PUSH2 0xFE3 JUMP JUMPDEST PUSH1 0x1 PUSH1 0xA DUP4 DUP4 PUSH1 0x40 MLOAD PUSH2 0xDDD SWAP3 SWAP2 SWAP1 PUSH2 0x30F1 JUMP JUMPDEST SWAP1 DUP2 MSTORE PUSH1 0x20 ADD PUSH1 0x40 MLOAD DUP1 SWAP2 SUB SWAP1 KECCAK256 PUSH1 0x0 CALLER PUSH20 0xFFFFFFFFFFFFFFFFFFFFFFFFFFFFFFFFFFFFFFFF AND PUSH20 0xFFFFFFFFFFFFFFFFFFFFFFFFFFFFFFFFFFFFFFFF AND DUP2 MSTORE PUSH1 0x20 ADD SWAP1 DUP2 MSTORE PUSH1 0x20 ADD PUSH1 0x0 KECCAK256 PUSH1 0x0 ADD PUSH1 0x0 PUSH2 0x100 EXP DUP2 SLOAD DUP2 PUSH1 0xFF MUL NOT AND SWAP1 DUP4 ISZERO ISZERO MUL OR SWAP1 SSTORE POP PUSH1 0x1 PUSH1 0x0 DUP4 DUP4 PUSH1 0x40 MLOAD PUSH2 0xE56 SWAP3 SWAP2 SWAP1 PUSH2 0x30F1 JUMP JUMPDEST SWAP1 DUP2 MSTORE PUSH1 0x20 ADD PUSH1 0x40 MLOAD DUP1 SWAP2 SUB SWAP1 KECCAK256 PUSH1 0x0 ADD PUSH1 0x0 DUP3 DUP3 SLOAD PUSH2 0xE76 SWAP2 SWAP1 PUSH2 0x3522 JUMP JUMPDEST SWAP3 POP POP DUP2 SWAP1 SSTORE POP PUSH1 0xB DUP3 DUP3 PUSH1 0x40 MLOAD PUSH2 0xE8F SWAP3 SWAP2 SWAP1 PUSH2 0x30F1 JUMP JUMPDEST SWAP1 DUP2 MSTORE PUSH1 0x20 ADD PUSH1 0x40 MLOAD DUP1 SWAP2 SUB SWAP1 KECCAK256 PUSH1 0xA DUP4 DUP4 PUSH1 0x40 MLOAD PUSH2 0xEAF SWAP3 SWAP2 SWAP1 PUSH2 0x30F1 JUMP JUMPDEST SWAP1 DUP2 MSTORE PUSH1 0x20 ADD PUSH1 0x40 MLOAD DUP1 SWAP2 SUB SWAP1 KECCAK256 PUSH1 0x0 CALLER PUSH20 0xFFFFFFFFFFFFFFFFFFFFFFFFFFFFFFFFFFFFFFFF AND PUSH20 0xFFFFFFFFFFFFFFFFFFFFFFFFFFFFFFFFFFFFFFFF AND DUP2 MSTORE PUSH1 0x20 ADD SWAP1 DUP2 MSTORE PUSH1 0x20 ADD PUSH1 0x0 KECCAK256 SWAP1 DUP1 PUSH1 0x1 DUP2 SLOAD ADD DUP1 DUP3 SSTORE DUP1 SWAP2 POP POP PUSH1 0x1 SWAP1 SUB SWAP1 PUSH1 0x0 MSTORE PUSH1 0x20 PUSH1 0x0 KECCAK256 ADD PUSH1 0x0 SWAP1 SWAP2 SWAP1 SWAP2 SWAP1 SWAP2 POP PUSH1 0x0 DUP3 ADD PUSH1 0x0 SWAP1 SLOAD SWAP1 PUSH2 0x100 EXP SWAP1 DIV PUSH1 0xFF AND DUP2 PUSH1 0x0 ADD PUSH1 0x0 PUSH2 0x100 EXP DUP2 SLOAD DUP2 PUSH1 0xFF MUL NOT AND SWAP1 DUP4 ISZERO ISZERO MUL OR SWAP1 SSTORE POP PUSH1 0x0 DUP3 ADD PUSH1 0x1 SWAP1 SLOAD SWAP1 PUSH2 0x100 EXP SWAP1 DIV PUSH1 0xFF AND DUP2 PUSH1 0x0 ADD PUSH1 0x1 PUSH2 0x100 EXP DUP2 SLOAD DUP2 PUSH1 0xFF MUL NOT AND SWAP1 DUP4 ISZERO ISZERO MUL OR SWAP1 SSTORE POP PUSH1 0x0 DUP3 ADD PUSH1 0x2 SWAP1 SLOAD SWAP1 PUSH2 0x100 EXP SWAP1 DIV PUSH20 0xFFFFFFFFFFFFFFFFFFFFFFFFFFFFFFFFFFFFFFFF AND DUP2 PUSH1 0x0 ADD PUSH1 0x2 PUSH2 0x100 EXP DUP2 SLOAD DUP2 PUSH20 0xFFFFFFFFFFFFFFFFFFFFFFFFFFFFFFFFFFFFFFFF MUL NOT AND SWAP1 DUP4 PUSH20 0xFFFFFFFFFFFFFFFFFFFFFFFFFFFFFFFFFFFFFFFF AND MUL OR SWAP1 SSTORE POP POP POP JUMPDEST JUMPDEST POP POP POP JUMP JUMPDEST PUSH1 0x7 DUP2 DUP1 MLOAD PUSH1 0x20 DUP2 ADD DUP3 ADD DUP1 MLOAD DUP5 DUP3 MSTORE PUSH1 0x20 DUP4 ADD PUSH1 0x20 DUP6 ADD KECCAK256 DUP2 DUP4 MSTORE DUP1 SWAP6 POP POP POP POP POP POP PUSH1 0x0 SWAP2 POP SWAP1 POP SLOAD DUP2 JUMP JUMPDEST PUSH1 0x8 DUP2 DUP1 MLOAD PUSH1 0x20 DUP2 ADD DUP3 ADD DUP1 MLOAD DUP5 DUP3 MSTORE PUSH1 0x20 DUP4 ADD PUSH1 0x20 DUP6 ADD KECCAK256 DUP2 DUP4 MSTORE DUP1 SWAP6 POP POP POP POP POP POP PUSH1 0x0 SWAP2 POP SLOAD SWAP1 PUSH2 0x100 EXP SWAP1 DIV PUSH1 0xFF AND DUP2 JUMP JUMPDEST PUSH1 0xA DUP3 DUP1 MLOAD PUSH1 0x20 DUP2 ADD DUP3 ADD DUP1 MLOAD DUP5 DUP3 MSTORE PUSH1 0x20 DUP4 ADD PUSH1 0x20 DUP6 ADD KECCAK256 DUP2 DUP4 MSTORE DUP1 SWAP6 POP POP POP POP POP POP PUSH1 0x20 MSTORE DUP1 PUSH1 0x0 MSTORE PUSH1 0x40 PUSH1 0x0 KECCAK256 PUSH1 0x0 SWAP2 POP SWAP2 POP POP DUP1 PUSH1 0x0 ADD PUSH1 0x0 SWAP1 SLOAD SWAP1 PUSH2 0x100 EXP SWAP1 DIV PUSH1 0xFF AND SWAP1 DUP1 PUSH1 0x0 ADD PUSH1 0x1 SWAP1 SLOAD SWAP1 PUSH2 0x100 EXP SWAP1 DIV PUSH1 0xFF AND SWAP1 DUP1 PUSH1 0x0 ADD PUSH1 0x2 SWAP1 SLOAD SWAP1 PUSH2 0x100 EXP SWAP1 DIV PUSH20 0xFFFFFFFFFFFFFFFFFFFFFFFFFFFFFFFFFFFFFFFF AND SWAP1 POP DUP4 JUMP JUMPDEST PUSH1 0x0 PUSH1 0x60 PUSH1 0x0 PUSH1 0x60 PUSH1 0x0 DUP7 DUP7 PUSH1 0x40 MLOAD PUSH2 0x10EE SWAP3 SWAP2 SWAP1 PUSH2 0x30F1 JUMP JUMPDEST SWAP1 DUP2 MSTORE PUSH1 0x20 ADD PUSH1 0x40 MLOAD DUP1 SWAP2 SUB SWAP1 KECCAK256 PUSH1 0x1 ADD SLOAD TIMESTAMP LT ISZERO PUSH2 0x1142 JUMPI PUSH1 0x40 MLOAD PUSH32 0x8C379A000000000000000000000000000000000000000000000000000000000 DUP2 MSTORE PUSH1 0x4 ADD PUSH2 0x1139 SWAP1 PUSH2 0x33BA JUMP JUMPDEST PUSH1 0x40 MLOAD DUP1 SWAP2 SUB SWAP1 REVERT JUMPDEST PUSH1 0x0 PUSH1 0xB DUP8 DUP8 PUSH1 0x40 MLOAD PUSH2 0x1156 SWAP3 SWAP2 SWAP1 PUSH2 0x30F1 JUMP JUMPDEST SWAP1 DUP2 MSTORE PUSH1 0x20 ADD PUSH1 0x40 MLOAD DUP1 SWAP2 SUB SWAP1 KECCAK256 DUP1 SLOAD DUP1 PUSH1 0x20 MUL PUSH1 0x20 ADD PUSH1 0x40 MLOAD SWAP1 DUP2 ADD PUSH1 0x40 MSTORE DUP1 SWAP3 SWAP2 SWAP1 DUP2 DUP2 MSTORE PUSH1 0x20 ADD PUSH1 0x0 SWAP1 JUMPDEST DUP3 DUP3 LT ISZERO PUSH2 0x123E JUMPI DUP4 DUP3 SWAP1 PUSH1 0x0 MSTORE PUSH1 0x20 PUSH1 0x0 KECCAK256 ADD PUSH1 0x40 MLOAD DUP1 PUSH1 0x60 ADD PUSH1 0x40 MSTORE SWAP1 DUP2 PUSH1 0x0 DUP3 ADD PUSH1 0x0 SWAP1 SLOAD SWAP1 PUSH2 0x100 EXP SWAP1 DIV PUSH1 0xFF AND ISZERO ISZERO ISZERO ISZERO DUP2 MSTORE PUSH1 0x20 ADD PUSH1 0x0 DUP3 ADD PUSH1 0x1 SWAP1 SLOAD SWAP1 PUSH2 0x100 EXP SWAP1 DIV PUSH1 0xFF AND ISZERO ISZERO ISZERO ISZERO DUP2 MSTORE PUSH1 0x20 ADD PUSH1 0x0 DUP3 ADD PUSH1 0x2 SWAP1 SLOAD SWAP1 PUSH2 0x100 EXP SWAP1 DIV PUSH20 0xFFFFFFFFFFFFFFFFFFFFFFFFFFFFFFFFFFFFFFFF AND PUSH20 0xFFFFFFFFFFFFFFFFFFFFFFFFFFFFFFFFFFFFFFFF AND PUSH20 0xFFFFFFFFFFFFFFFFFFFFFFFFFFFFFFFFFFFFFFFF AND DUP2 MSTORE POP POP DUP2 MSTORE PUSH1 0x20 ADD SWAP1 PUSH1 0x1 ADD SWAP1 PUSH2 0x1184 JUMP JUMPDEST POP POP POP POP SWAP1 POP PUSH1 0x0 PUSH1 0x7 DUP9 DUP9 PUSH1 0x40 MLOAD PUSH2 0x1258 SWAP3 SWAP2 SWAP1 PUSH2 0x30F1 JUMP JUMPDEST SWAP1 DUP2 MSTORE PUSH1 0x20 ADD PUSH1 0x40 MLOAD DUP1 SWAP2 SUB SWAP1 KECCAK256 SLOAD SWAP1 POP PUSH1 0x0 DUP1 DUP10 DUP10 PUSH1 0x40 MLOAD PUSH2 0x127C SWAP3 SWAP2 SWAP1 PUSH2 0x30F1 JUMP JUMPDEST SWAP1 DUP2 MSTORE PUSH1 0x20 ADD PUSH1 0x40 MLOAD DUP1 SWAP2 SUB SWAP1 KECCAK256 PUSH1 0x0 ADD SLOAD SWAP1 POP DUP2 DUP10 DUP10 DUP4 DUP7 DUP4 DUP4 DUP1 DUP1 PUSH1 0x1F ADD PUSH1 0x20 DUP1 SWAP2 DIV MUL PUSH1 0x20 ADD PUSH1 0x40 MLOAD SWAP1 DUP2 ADD PUSH1 0x40 MSTORE DUP1 SWAP4 SWAP3 SWAP2 SWAP1 DUP2 DUP2 MSTORE PUSH1 0x20 ADD DUP4 DUP4 DUP1 DUP3 DUP5 CALLDATACOPY PUSH1 0x0 DUP2 DUP5 ADD MSTORE PUSH1 0x1F NOT PUSH1 0x1F DUP3 ADD AND SWAP1 POP DUP1 DUP4 ADD SWAP3 POP POP POP POP POP POP POP SWAP3 POP SWAP1 SWAP2 SWAP3 POP SWAP7 POP SWAP7 POP SWAP7 POP SWAP7 POP POP POP POP SWAP3 SWAP6 SWAP2 SWAP5 POP SWAP3 POP JUMP JUMPDEST PUSH1 0x1 DUP3 DUP3 PUSH1 0x40 MLOAD PUSH2 0x1306 SWAP3 SWAP2 SWAP1 PUSH2 0x30F1 JUMP JUMPDEST SWAP1 DUP2 MSTORE PUSH1 0x20 ADD PUSH1 0x40 MLOAD DUP1 SWAP2 SUB SWAP1 KECCAK256 PUSH1 0x0 SWAP1 SLOAD SWAP1 PUSH2 0x100 EXP SWAP1 DIV PUSH20 0xFFFFFFFFFFFFFFFFFFFFFFFFFFFFFFFFFFFFFFFF AND PUSH20 0xFFFFFFFFFFFFFFFFFFFFFFFFFFFFFFFFFFFFFFFF AND CALLER PUSH20 0xFFFFFFFFFFFFFFFFFFFFFFFFFFFFFFFFFFFFFFFF AND EQ PUSH2 0x13A2 JUMPI PUSH1 0x40 MLOAD PUSH32 0x8C379A000000000000000000000000000000000000000000000000000000000 DUP2 MSTORE PUSH1 0x4 ADD PUSH2 0x1399 SWAP1 PUSH2 0x337A JUMP JUMPDEST PUSH1 0x40 MLOAD DUP1 SWAP2 SUB SWAP1 REVERT JUMPDEST PUSH1 0x1 DUP3 DUP3 PUSH1 0x40 MLOAD PUSH2 0x13B4 SWAP3 SWAP2 SWAP1 PUSH2 0x30F1 JUMP JUMPDEST SWAP1 DUP2 MSTORE PUSH1 0x20 ADD PUSH1 0x40 MLOAD DUP1 SWAP2 SUB SWAP1 KECCAK256 PUSH1 0x0 SWAP1 SLOAD SWAP1 PUSH2 0x100 EXP SWAP1 DIV PUSH20 0xFFFFFFFFFFFFFFFFFFFFFFFFFFFFFFFFFFFFFFFF AND PUSH20 0xFFFFFFFFFFFFFFFFFFFFFFFFFFFFFFFFFFFFFFFF AND DUP4 PUSH20 0xFFFFFFFFFFFFFFFFFFFFFFFFFFFFFFFFFFFFFFFF AND EQ ISZERO PUSH2 0x1451 JUMPI PUSH1 0x40 MLOAD PUSH32 0x8C379A000000000000000000000000000000000000000000000000000000000 DUP2 MSTORE PUSH1 0x4 ADD PUSH2 0x1448 SWAP1 PUSH2 0x331A JUMP JUMPDEST PUSH1 0x40 MLOAD DUP1 SWAP2 SUB SWAP1 REVERT JUMPDEST PUSH1 0x0 PUSH20 0xFFFFFFFFFFFFFFFFFFFFFFFFFFFFFFFFFFFFFFFF AND PUSH1 0xA DUP4 DUP4 PUSH1 0x40 MLOAD PUSH2 0x147B SWAP3 SWAP2 SWAP1 PUSH2 0x30F1 JUMP JUMPDEST SWAP1 DUP2 MSTORE PUSH1 0x20 ADD PUSH1 0x40 MLOAD DUP1 SWAP2 SUB SWAP1 KECCAK256 PUSH1 0x0 DUP6 PUSH20 0xFFFFFFFFFFFFFFFFFFFFFFFFFFFFFFFFFFFFFFFF AND PUSH20 0xFFFFFFFFFFFFFFFFFFFFFFFFFFFFFFFFFFFFFFFF AND DUP2 MSTORE PUSH1 0x20 ADD SWAP1 DUP2 MSTORE PUSH1 0x20 ADD PUSH1 0x0 KECCAK256 PUSH1 0x0 ADD PUSH1 0x2 SWAP1 SLOAD SWAP1 PUSH2 0x100 EXP SWAP1 DIV PUSH20 0xFFFFFFFFFFFFFFFFFFFFFFFFFFFFFFFFFFFFFFFF AND PUSH20 0xFFFFFFFFFFFFFFFFFFFFFFFFFFFFFFFFFFFFFFFF AND EQ PUSH2 0x1540 JUMPI PUSH1 0x40 MLOAD PUSH32 0x8C379A000000000000000000000000000000000000000000000000000000000 DUP2 MSTORE PUSH1 0x4 ADD PUSH2 0x1537 SWAP1 PUSH2 0x329A JUMP JUMPDEST PUSH1 0x40 MLOAD DUP1 SWAP2 SUB SWAP1 REVERT JUMPDEST PUSH1 0x0 DUP3 DUP3 PUSH1 0x40 MLOAD PUSH2 0x1552 SWAP3 SWAP2 SWAP1 PUSH2 0x30F1 JUMP JUMPDEST SWAP1 DUP2 MSTORE PUSH1 0x20 ADD PUSH1 0x40 MLOAD DUP1 SWAP2 SUB SWAP1 KECCAK256 PUSH1 0x1 ADD SLOAD TIMESTAMP LT PUSH2 0x15A5 JUMPI PUSH1 0x40 MLOAD PUSH32 0x8C379A000000000000000000000000000000000000000000000000000000000 DUP2 MSTORE PUSH1 0x4 ADD PUSH2 0x159C SWAP1 PUSH2 0x335A JUMP JUMPDEST PUSH1 0x40 MLOAD DUP1 SWAP2 SUB SWAP1 REVERT JUMPDEST PUSH1 0x0 PUSH1 0x40 MLOAD DUP1 PUSH1 0x60 ADD PUSH1 0x40 MSTORE DUP1 PUSH1 0x0 ISZERO ISZERO DUP2 MSTORE PUSH1 0x20 ADD PUSH1 0x0 ISZERO ISZERO DUP2 MSTORE PUSH1 0x20 ADD DUP6 PUSH20 0xFFFFFFFFFFFFFFFFFFFFFFFFFFFFFFFFFFFFFFFF AND DUP2 MSTORE POP SWAP1 POP DUP1 PUSH1 0xA DUP5 DUP5 PUSH1 0x40 MLOAD PUSH2 0x15F3 SWAP3 SWAP2 SWAP1 PUSH2 0x30F1 JUMP JUMPDEST SWAP1 DUP2 MSTORE PUSH1 0x20 ADD PUSH1 0x40 MLOAD DUP1 SWAP2 SUB SWAP1 KECCAK256 PUSH1 0x0 DUP7 PUSH20 0xFFFFFFFFFFFFFFFFFFFFFFFFFFFFFFFFFFFFFFFF AND PUSH20 0xFFFFFFFFFFFFFFFFFFFFFFFFFFFFFFFFFFFFFFFF AND DUP2 MSTORE PUSH1 0x20 ADD SWAP1 DUP2 MSTORE PUSH1 0x20 ADD PUSH1 0x0 KECCAK256 PUSH1 0x0 DUP3 ADD MLOAD DUP2 PUSH1 0x0 ADD PUSH1 0x0 PUSH2 0x100 EXP DUP2 SLOAD DUP2 PUSH1 0xFF MUL NOT AND SWAP1 DUP4 ISZERO ISZERO MUL OR SWAP1 SSTORE POP PUSH1 0x20 DUP3 ADD MLOAD DUP2 PUSH1 0x0 ADD PUSH1 0x1 PUSH2 0x100 EXP DUP2 SLOAD DUP2 PUSH1 0xFF MUL NOT AND SWAP1 DUP4 ISZERO ISZERO MUL OR SWAP1 SSTORE POP PUSH1 0x40 DUP3 ADD MLOAD DUP2 PUSH1 0x0 ADD PUSH1 0x2 PUSH2 0x100 EXP DUP2 SLOAD DUP2 PUSH20 0xFFFFFFFFFFFFFFFFFFFFFFFFFFFFFFFFFFFFFFFF MUL NOT AND SWAP1 DUP4 PUSH20 0xFFFFFFFFFFFFFFFFFFFFFFFFFFFFFFFFFFFFFFFF AND MUL OR SWAP1 SSTORE POP SWAP1 POP POP PUSH1 0xC DUP4 DUP4 PUSH1 0x40 MLOAD PUSH2 0x16DA SWAP3 SWAP2 SWAP1 PUSH2 0x30F1 JUMP JUMPDEST SWAP1 DUP2 MSTORE PUSH1 0x20 ADD PUSH1 0x40 MLOAD DUP1 SWAP2 SUB SWAP1 KECCAK256 DUP5 SWAP1 DUP1 PUSH1 0x1 DUP2 SLOAD ADD DUP1 DUP3 SSTORE DUP1 SWAP2 POP POP PUSH1 0x1 SWAP1 SUB SWAP1 PUSH1 0x0 MSTORE PUSH1 0x20 PUSH1 0x0 KECCAK256 ADD PUSH1 0x0 SWAP1 SWAP2 SWAP1 SWAP2 SWAP1 SWAP2 PUSH2 0x100 EXP DUP2 SLOAD DUP2 PUSH20 0xFFFFFFFFFFFFFFFFFFFFFFFFFFFFFFFFFFFFFFFF MUL NOT AND SWAP1 DUP4 PUSH20 0xFFFFFFFFFFFFFFFFFFFFFFFFFFFFFFFFFFFFFFFF AND MUL OR SWAP1 SSTORE POP POP POP POP POP JUMP JUMPDEST PUSH1 0x0 PUSH20 0xFFFFFFFFFFFFFFFFFFFFFFFFFFFFFFFFFFFFFFFF AND PUSH1 0x1 DUP8 PUSH1 0x40 MLOAD PUSH2 0x1777 SWAP2 SWAP1 PUSH2 0x310A JUMP JUMPDEST SWAP1 DUP2 MSTORE PUSH1 0x20 ADD PUSH1 0x40 MLOAD DUP1 SWAP2 SUB SWAP1 KECCAK256 PUSH1 0x0 SWAP1 SLOAD SWAP1 PUSH2 0x100 EXP SWAP1 DIV PUSH20 0xFFFFFFFFFFFFFFFFFFFFFFFFFFFFFFFFFFFFFFFF AND PUSH20 0xFFFFFFFFFFFFFFFFFFFFFFFFFFFFFFFFFFFFFFFF AND EQ PUSH2 0x17FC JUMPI PUSH1 0x40 MLOAD PUSH32 0x8C379A000000000000000000000000000000000000000000000000000000000 DUP2 MSTORE PUSH1 0x4 ADD PUSH2 0x17F3 SWAP1 PUSH2 0x32BA JUMP JUMPDEST PUSH1 0x40 MLOAD DUP1 SWAP2 SUB SWAP1 REVERT JUMPDEST PUSH1 0x0 PUSH1 0x40 MLOAD DUP1 PUSH1 0x60 ADD PUSH1 0x40 MSTORE DUP1 PUSH1 0x0 DUP2 MSTORE PUSH1 0x20 ADD DUP8 TIMESTAMP PUSH2 0x181C SWAP2 SWAP1 PUSH2 0x3522 JUMP JUMPDEST DUP2 MSTORE PUSH1 0x20 ADD DUP7 DUP2 MSTORE POP SWAP1 POP DUP7 PUSH1 0x2 DUP5 PUSH1 0x40 MLOAD PUSH2 0x1838 SWAP2 SWAP1 PUSH2 0x310A JUMP JUMPDEST SWAP1 DUP2 MSTORE PUSH1 0x20 ADD PUSH1 0x40 MLOAD DUP1 SWAP2 SUB SWAP1 KECCAK256 SWAP1 DUP1 MLOAD SWAP1 PUSH1 0x20 ADD SWAP1 PUSH2 0x1859 SWAP3 SWAP2 SWAP1 PUSH2 0x2804 JUMP JUMPDEST POP PUSH1 0x0 PUSH1 0x8 DUP9 PUSH1 0x40 MLOAD PUSH2 0x186C SWAP2 SWAP1 PUSH2 0x310A JUMP JUMPDEST SWAP1 DUP2 MSTORE PUSH1 0x20 ADD PUSH1 0x40 MLOAD DUP1 SWAP2 SUB SWAP1 KECCAK256 PUSH1 0x0 PUSH2 0x100 EXP DUP2 SLOAD DUP2 PUSH1 0xFF MUL NOT AND SWAP1 DUP4 ISZERO ISZERO MUL OR SWAP1 SSTORE POP PUSH32 0x52656A6563746564000000000000000000000000000000000000000000000000 PUSH1 0x7 DUP9 PUSH1 0x40 MLOAD PUSH2 0x18C2 SWAP2 SWAP1 PUSH2 0x310A JUMP JUMPDEST SWAP1 DUP2 MSTORE PUSH1 0x20 ADD PUSH1 0x40 MLOAD DUP1 SWAP2 SUB SWAP1 KECCAK256 DUP2 SWAP1 SSTORE POP DUP6 PUSH1 0x3 DUP9 PUSH1 0x40 MLOAD PUSH2 0x18E5 SWAP2 SWAP1 PUSH2 0x310A JUMP JUMPDEST SWAP1 DUP2 MSTORE PUSH1 0x20 ADD PUSH1 0x40 MLOAD DUP1 SWAP2 SUB SWAP1 KECCAK256 DUP2 SWAP1 SSTORE POP DUP6 PUSH1 0x3 DUP5 PUSH1 0x40 MLOAD PUSH2 0x1908 SWAP2 SWAP1 PUSH2 0x310A JUMP JUMPDEST SWAP1 DUP2 MSTORE PUSH1 0x20 ADD PUSH1 0x40 MLOAD DUP1 SWAP2 SUB SWAP1 KECCAK256 DUP2 SWAP1 SSTORE POP DUP4 PUSH1 0x4 DUP9 PUSH1 0x40 MLOAD PUSH2 0x192B SWAP2 SWAP1 PUSH2 0x310A JUMP JUMPDEST SWAP1 DUP2 MSTORE PUSH1 0x20 ADD PUSH1 0x40 MLOAD DUP1 SWAP2 SUB SWAP1 KECCAK256 DUP2 SWAP1 SSTORE POP DUP4 PUSH1 0x4 DUP5 PUSH1 0x40 MLOAD PUSH2 0x194E SWAP2 SWAP1 PUSH2 0x310A JUMP JUMPDEST SWAP1 DUP2 MSTORE PUSH1 0x20 ADD PUSH1 0x40 MLOAD DUP1 SWAP2 SUB SWAP1 KECCAK256 DUP2 SWAP1 SSTORE POP DUP3 PUSH1 0x9 DUP9 PUSH1 0x40 MLOAD PUSH2 0x1971 SWAP2 SWAP1 PUSH2 0x310A JUMP JUMPDEST SWAP1 DUP2 MSTORE PUSH1 0x20 ADD PUSH1 0x40 MLOAD DUP1 SWAP2 SUB SWAP1 KECCAK256 SWAP1 DUP1 MLOAD SWAP1 PUSH1 0x20 ADD SWAP1 PUSH2 0x1992 SWAP3 SWAP2 SWAP1 PUSH2 0x2804 JUMP JUMPDEST POP DUP2 PUSH1 0x6 DUP9 PUSH1 0x40 MLOAD PUSH2 0x19A4 SWAP2 SWAP1 PUSH2 0x310A JUMP JUMPDEST SWAP1 DUP2 MSTORE PUSH1 0x20 ADD PUSH1 0x40 MLOAD DUP1 SWAP2 SUB SWAP1 KECCAK256 SWAP1 DUP1 MLOAD SWAP1 PUSH1 0x20 ADD SWAP1 PUSH2 0x19C5 SWAP3 SWAP2 SWAP1 PUSH2 0x2804 JUMP JUMPDEST POP PUSH1 0x0 PUSH1 0x5 DUP9 PUSH1 0x40 MLOAD PUSH2 0x19D8 SWAP2 SWAP1 PUSH2 0x310A JUMP JUMPDEST SWAP1 DUP2 MSTORE PUSH1 0x20 ADD PUSH1 0x40 MLOAD DUP1 SWAP2 SUB SWAP1 KECCAK256 DUP2 SWAP1 SSTORE POP CALLER PUSH1 0x1 DUP9 PUSH1 0x40 MLOAD PUSH2 0x19FB SWAP2 SWAP1 PUSH2 0x310A JUMP JUMPDEST SWAP1 DUP2 MSTORE PUSH1 0x20 ADD PUSH1 0x40 MLOAD DUP1 SWAP2 SUB SWAP1 KECCAK256 PUSH1 0x0 PUSH2 0x100 EXP DUP2 SLOAD DUP2 PUSH20 0xFFFFFFFFFFFFFFFFFFFFFFFFFFFFFFFFFFFFFFFF MUL NOT AND SWAP1 DUP4 PUSH20 0xFFFFFFFFFFFFFFFFFFFFFFFFFFFFFFFFFFFFFFFF AND MUL OR SWAP1 SSTORE POP CALLER PUSH1 0x1 DUP5 PUSH1 0x40 MLOAD PUSH2 0x1A58 SWAP2 SWAP1 PUSH2 0x310A JUMP JUMPDEST SWAP1 DUP2 MSTORE PUSH1 0x20 ADD PUSH1 0x40 MLOAD DUP1 SWAP2 SUB SWAP1 KECCAK256 PUSH1 0x0 PUSH2 0x100 EXP DUP2 SLOAD DUP2 PUSH20 0xFFFFFFFFFFFFFFFFFFFFFFFFFFFFFFFFFFFFFFFF MUL NOT AND SWAP1 DUP4 PUSH20 0xFFFFFFFFFFFFFFFFFFFFFFFFFFFFFFFFFFFFFFFF AND MUL OR SWAP1 SSTORE POP DUP1 PUSH1 0x0 DUP9 PUSH1 0x40 MLOAD PUSH2 0x1AB5 SWAP2 SWAP1 PUSH2 0x310A JUMP JUMPDEST SWAP1 DUP2 MSTORE PUSH1 0x20 ADD PUSH1 0x40 MLOAD DUP1 SWAP2 SUB SWAP1 KECCAK256 PUSH1 0x0 DUP3 ADD MLOAD DUP2 PUSH1 0x0 ADD SSTORE PUSH1 0x20 DUP3 ADD MLOAD DUP2 PUSH1 0x1 ADD SSTORE PUSH1 0x40 DUP3 ADD MLOAD DUP2 PUSH1 0x2 ADD SSTORE SWAP1 POP POP DUP1 PUSH1 0x0 DUP5 PUSH1 0x40 MLOAD PUSH2 0x1AF5 SWAP2 SWAP1 PUSH2 0x310A JUMP JUMPDEST SWAP1 DUP2 MSTORE PUSH1 0x20 ADD PUSH1 0x40 MLOAD DUP1 SWAP2 SUB SWAP1 KECCAK256 PUSH1 0x0 DUP3 ADD MLOAD DUP2 PUSH1 0x0 ADD SSTORE PUSH1 0x20 DUP3 ADD MLOAD DUP2 PUSH1 0x1 ADD SSTORE PUSH1 0x40 DUP3 ADD MLOAD DUP2 PUSH1 0x2 ADD SSTORE SWAP1 POP POP POP POP POP POP POP POP POP JUMP JUMPDEST PUSH1 0x0 DUP3 DUP3 PUSH1 0x40 MLOAD PUSH2 0x1B3F SWAP3 SWAP2 SWAP1 PUSH2 0x30F1 JUMP JUMPDEST SWAP1 DUP2 MSTORE PUSH1 0x20 ADD PUSH1 0x40 MLOAD DUP1 SWAP2 SUB SWAP1 KECCAK256 PUSH1 0x1 ADD SLOAD TIMESTAMP LT ISZERO PUSH2 0x1B93 JUMPI PUSH1 0x40 MLOAD PUSH32 0x8C379A000000000000000000000000000000000000000000000000000000000 DUP2 MSTORE PUSH1 0x4 ADD PUSH2 0x1B8A SWAP1 PUSH2 0x33BA JUMP JUMPDEST PUSH1 0x40 MLOAD DUP1 SWAP2 SUB SWAP1 REVERT JUMPDEST PUSH1 0x0 ISZERO ISZERO PUSH1 0x8 DUP4 DUP4 PUSH1 0x40 MLOAD PUSH2 0x1BA9 SWAP3 SWAP2 SWAP1 PUSH2 0x30F1 JUMP JUMPDEST SWAP1 DUP2 MSTORE PUSH1 0x20 ADD PUSH1 0x40 MLOAD DUP1 SWAP2 SUB SWAP1 KECCAK256 PUSH1 0x0 SWAP1 SLOAD SWAP1 PUSH2 0x100 EXP SWAP1 DIV PUSH1 0xFF AND ISZERO ISZERO EQ PUSH2 0x1C07 JUMPI PUSH1 0x40 MLOAD PUSH32 0x8C379A000000000000000000000000000000000000000000000000000000000 DUP2 MSTORE PUSH1 0x4 ADD PUSH2 0x1BFE SWAP1 PUSH2 0x33FA JUMP JUMPDEST PUSH1 0x40 MLOAD DUP1 SWAP2 SUB SWAP1 REVERT JUMPDEST PUSH1 0x1 DUP3 DUP3 PUSH1 0x40 MLOAD PUSH2 0x1C19 SWAP3 SWAP2 SWAP1 PUSH2 0x30F1 JUMP JUMPDEST SWAP1 DUP2 MSTORE PUSH1 0x20 ADD PUSH1 0x40 MLOAD DUP1 SWAP2 SUB SWAP1 KECCAK256 PUSH1 0x0 SWAP1 SLOAD SWAP1 PUSH2 0x100 EXP SWAP1 DIV PUSH20 0xFFFFFFFFFFFFFFFFFFFFFFFFFFFFFFFFFFFFFFFF AND PUSH20 0xFFFFFFFFFFFFFFFFFFFFFFFFFFFFFFFFFFFFFFFF AND CALLER PUSH20 0xFFFFFFFFFFFFFFFFFFFFFFFFFFFFFFFFFFFFFFFF AND EQ DUP1 PUSH2 0x1D2E JUMPI POP PUSH1 0x0 PUSH20 0xFFFFFFFFFFFFFFFFFFFFFFFFFFFFFFFFFFFFFFFF AND PUSH1 0xA DUP4 DUP4 PUSH1 0x40 MLOAD PUSH2 0x1CA6 SWAP3 SWAP2 SWAP1 PUSH2 0x30F1 JUMP JUMPDEST SWAP1 DUP2 MSTORE PUSH1 0x20 ADD PUSH1 0x40 MLOAD DUP1 SWAP2 SUB SWAP1 KECCAK256 PUSH1 0x0 CALLER PUSH20 0xFFFFFFFFFFFFFFFFFFFFFFFFFFFFFFFFFFFFFFFF AND PUSH20 0xFFFFFFFFFFFFFFFFFFFFFFFFFFFFFFFFFFFFFFFF AND DUP2 MSTORE PUSH1 0x20 ADD SWAP1 DUP2 MSTORE PUSH1 0x20 ADD PUSH1 0x0 KECCAK256 PUSH1 0x0 ADD PUSH1 0x2 SWAP1 SLOAD SWAP1 PUSH2 0x100 EXP SWAP1 DIV PUSH20 0xFFFFFFFFFFFFFFFFFFFFFFFFFFFFFFFFFFFFFFFF AND PUSH20 0xFFFFFFFFFFFFFFFFFFFFFFFFFFFFFFFFFFFFFFFF AND EQ ISZERO JUMPDEST PUSH2 0x1D6D JUMPI PUSH1 0x40 MLOAD PUSH32 0x8C379A000000000000000000000000000000000000000000000000000000000 DUP2 MSTORE PUSH1 0x4 ADD PUSH2 0x1D64 SWAP1 PUSH2 0x32DA JUMP JUMPDEST PUSH1 0x40 MLOAD DUP1 SWAP2 SUB SWAP1 REVERT JUMPDEST PUSH1 0x0 PUSH1 0x64 PUSH1 0xC DUP5 DUP5 PUSH1 0x40 MLOAD PUSH2 0x1D83 SWAP3 SWAP2 SWAP1 PUSH2 0x30F1 JUMP JUMPDEST SWAP1 DUP2 MSTORE PUSH1 0x20 ADD PUSH1 0x40 MLOAD DUP1 SWAP2 SUB SWAP1 KECCAK256 DUP1 SLOAD SWAP1 POP PUSH1 0x5 DUP6 DUP6 PUSH1 0x40 MLOAD PUSH2 0x1DA7 SWAP3 SWAP2 SWAP1 PUSH2 0x30F1 JUMP JUMPDEST SWAP1 DUP2 MSTORE PUSH1 0x20 ADD PUSH1 0x40 MLOAD DUP1 SWAP2 SUB SWAP1 KECCAK256 SLOAD PUSH2 0x1DC0 SWAP2 SWAP1 PUSH2 0x3578 JUMP JUMPDEST PUSH2 0x1DCA SWAP2 SWAP1 PUSH2 0x35A9 JUMP JUMPDEST SWAP1 POP PUSH1 0x0 DUP4 DUP4 PUSH1 0x40 MLOAD PUSH2 0x1DDE SWAP3 SWAP2 SWAP1 PUSH2 0x30F1 JUMP JUMPDEST SWAP1 DUP2 MSTORE PUSH1 0x20 ADD PUSH1 0x40 MLOAD DUP1 SWAP2 SUB SWAP1 KECCAK256 PUSH1 0x2 ADD SLOAD DUP2 LT PUSH2 0x1E3C JUMPI PUSH32 0x4163636570746564000000000000000000000000000000000000000000000000 PUSH1 0x7 DUP5 DUP5 PUSH1 0x40 MLOAD PUSH2 0x1E29 SWAP3 SWAP2 SWAP1 PUSH2 0x30F1 JUMP JUMPDEST SWAP1 DUP2 MSTORE PUSH1 0x20 ADD PUSH1 0x40 MLOAD DUP1 SWAP2 SUB SWAP1 KECCAK256 DUP2 SWAP1 SSTORE POP JUMPDEST PUSH1 0x0 JUMPDEST PUSH1 0xC DUP5 DUP5 PUSH1 0x40 MLOAD PUSH2 0x1E51 SWAP3 SWAP2 SWAP1 PUSH2 0x30F1 JUMP JUMPDEST SWAP1 DUP2 MSTORE PUSH1 0x20 ADD PUSH1 0x40 MLOAD DUP1 SWAP2 SUB SWAP1 KECCAK256 DUP1 SLOAD SWAP1 POP DUP2 PUSH1 0xFF AND LT ISZERO PUSH2 0x211E JUMPI PUSH1 0x0 ISZERO ISZERO PUSH1 0xA DUP6 DUP6 PUSH1 0x40 MLOAD PUSH2 0x1E83 SWAP3 SWAP2 SWAP1 PUSH2 0x30F1 JUMP JUMPDEST SWAP1 DUP2 MSTORE PUSH1 0x20 ADD PUSH1 0x40 MLOAD DUP1 SWAP2 SUB SWAP1 KECCAK256 PUSH1 0x0 PUSH1 0xC DUP8 DUP8 PUSH1 0x40 MLOAD PUSH2 0x1EA5 SWAP3 SWAP2 SWAP1 PUSH2 0x30F1 JUMP JUMPDEST SWAP1 DUP2 MSTORE PUSH1 0x20 ADD PUSH1 0x40 MLOAD DUP1 SWAP2 SUB SWAP1 KECCAK256 DUP5 PUSH1 0xFF AND DUP2 SLOAD DUP2 LT PUSH2 0x1EC8 JUMPI PUSH2 0x1EC7 PUSH2 0x37BE JUMP JUMPDEST JUMPDEST SWAP1 PUSH1 0x0 MSTORE PUSH1 0x20 PUSH1 0x0 KECCAK256 ADD PUSH1 0x0 SWAP1 SLOAD SWAP1 PUSH2 0x100 EXP SWAP1 DIV PUSH20 0xFFFFFFFFFFFFFFFFFFFFFFFFFFFFFFFFFFFFFFFF AND PUSH20 0xFFFFFFFFFFFFFFFFFFFFFFFFFFFFFFFFFFFFFFFF AND PUSH20 0xFFFFFFFFFFFFFFFFFFFFFFFFFFFFFFFFFFFFFFFF AND DUP2 MSTORE PUSH1 0x20 ADD SWAP1 DUP2 MSTORE PUSH1 0x20 ADD PUSH1 0x0 KECCAK256 PUSH1 0x0 ADD PUSH1 0x0 SWAP1 SLOAD SWAP1 PUSH2 0x100 EXP SWAP1 DIV PUSH1 0xFF AND ISZERO ISZERO EQ ISZERO PUSH2 0x210B JUMPI PUSH1 0xB DUP5 DUP5 PUSH1 0x40 MLOAD PUSH2 0x1F58 SWAP3 SWAP2 SWAP1 PUSH2 0x30F1 JUMP JUMPDEST SWAP1 DUP2 MSTORE PUSH1 0x20 ADD PUSH1 0x40 MLOAD DUP1 SWAP2 SUB SWAP1 KECCAK256 PUSH1 0xA DUP6 DUP6 PUSH1 0x40 MLOAD PUSH2 0x1F78 SWAP3 SWAP2 SWAP1 PUSH2 0x30F1 JUMP JUMPDEST SWAP1 DUP2 MSTORE PUSH1 0x20 ADD PUSH1 0x40 MLOAD DUP1 SWAP2 SUB SWAP1 KECCAK256 PUSH1 0x0 PUSH1 0xC DUP8 DUP8 PUSH1 0x40 MLOAD PUSH2 0x1F9A SWAP3 SWAP2 SWAP1 PUSH2 0x30F1 JUMP JUMPDEST SWAP1 DUP2 MSTORE PUSH1 0x20 ADD PUSH1 0x40 MLOAD DUP1 SWAP2 SUB SWAP1 KECCAK256 DUP5 PUSH1 0xFF AND DUP2 SLOAD DUP2 LT PUSH2 0x1FBD JUMPI PUSH2 0x1FBC PUSH2 0x37BE JUMP JUMPDEST JUMPDEST SWAP1 PUSH1 0x0 MSTORE PUSH1 0x20 PUSH1 0x0 KECCAK256 ADD PUSH1 0x0 SWAP1 SLOAD SWAP1 PUSH2 0x100 EXP SWAP1 DIV PUSH20 0xFFFFFFFFFFFFFFFFFFFFFFFFFFFFFFFFFFFFFFFF AND PUSH20 0xFFFFFFFFFFFFFFFFFFFFFFFFFFFFFFFFFFFFFFFF AND PUSH20 0xFFFFFFFFFFFFFFFFFFFFFFFFFFFFFFFFFFFFFFFF AND DUP2 MSTORE PUSH1 0x20 ADD SWAP1 DUP2 MSTORE PUSH1 0x20 ADD PUSH1 0x0 KECCAK256 SWAP1 DUP1 PUSH1 0x1 DUP2 SLOAD ADD DUP1 DUP3 SSTORE DUP1 SWAP2 POP POP PUSH1 0x1 SWAP1 SUB SWAP1 PUSH1 0x0 MSTORE PUSH1 0x20 PUSH1 0x0 KECCAK256 ADD PUSH1 0x0 SWAP1 SWAP2 SWAP1 SWAP2 SWAP1 SWAP2 POP PUSH1 0x0 DUP3 ADD PUSH1 0x0 SWAP1 SLOAD SWAP1 PUSH2 0x100 EXP SWAP1 DIV PUSH1 0xFF AND DUP2 PUSH1 0x0 ADD PUSH1 0x0 PUSH2 0x100 EXP DUP2 SLOAD DUP2 PUSH1 0xFF MUL NOT AND SWAP1 DUP4 ISZERO ISZERO MUL OR SWAP1 SSTORE POP PUSH1 0x0 DUP3 ADD PUSH1 0x1 SWAP1 SLOAD SWAP1 PUSH2 0x100 EXP SWAP1 DIV PUSH1 0xFF AND DUP2 PUSH1 0x0 ADD PUSH1 0x1 PUSH2 0x100 EXP DUP2 SLOAD DUP2 PUSH1 0xFF MUL NOT AND SWAP1 DUP4 ISZERO ISZERO MUL OR SWAP1 SSTORE POP PUSH1 0x0 DUP3 ADD PUSH1 0x2 SWAP1 SLOAD SWAP1 PUSH2 0x100 EXP SWAP1 DIV PUSH20 0xFFFFFFFFFFFFFFFFFFFFFFFFFFFFFFFFFFFFFFFF AND DUP2 PUSH1 0x0 ADD PUSH1 0x2 PUSH2 0x100 EXP DUP2 SLOAD DUP2 PUSH20 0xFFFFFFFFFFFFFFFFFFFFFFFFFFFFFFFFFFFFFFFF MUL NOT AND SWAP1 DUP4 PUSH20 0xFFFFFFFFFFFFFFFFFFFFFFFFFFFFFFFFFFFFFFFF AND MUL OR SWAP1 SSTORE POP POP POP JUMPDEST DUP1 DUP1 PUSH2 0x2116 SWAP1 PUSH2 0x3707 JUMP JUMPDEST SWAP2 POP POP PUSH2 0x1E3F JUMP JUMPDEST POP PUSH1 0x1 PUSH1 0x8 DUP5 DUP5 PUSH1 0x40 MLOAD PUSH2 0x2133 SWAP3 SWAP2 SWAP1 PUSH2 0x30F1 JUMP JUMPDEST SWAP1 DUP2 MSTORE PUSH1 0x20 ADD PUSH1 0x40 MLOAD DUP1 SWAP2 SUB SWAP1 KECCAK256 PUSH1 0x0 PUSH2 0x100 EXP DUP2 SLOAD DUP2 PUSH1 0xFF MUL NOT AND SWAP1 DUP4 ISZERO ISZERO MUL OR SWAP1 SSTORE POP POP POP POP JUMP JUMPDEST PUSH1 0x6 DUP2 DUP1 MLOAD PUSH1 0x20 DUP2 ADD DUP3 ADD DUP1 MLOAD DUP5 DUP3 MSTORE PUSH1 0x20 DUP4 ADD PUSH1 0x20 DUP6 ADD KECCAK256 DUP2 DUP4 MSTORE DUP1 SWAP6 POP POP POP POP POP POP PUSH1 0x0 SWAP2 POP SWAP1 POP DUP1 SLOAD PUSH2 0x2192 SWAP1 PUSH2 0x36A4 JUMP JUMPDEST DUP1 PUSH1 0x1F ADD PUSH1 0x20 DUP1 SWAP2 DIV MUL PUSH1 0x20 ADD PUSH1 0x40 MLOAD SWAP1 DUP2 ADD PUSH1 0x40 MSTORE DUP1 SWAP3 SWAP2 SWAP1 DUP2 DUP2 MSTORE PUSH1 0x20 ADD DUP3 DUP1 SLOAD PUSH2 0x21BE SWAP1 PUSH2 0x36A4 JUMP JUMPDEST DUP1 ISZERO PUSH2 0x220B JUMPI DUP1 PUSH1 0x1F LT PUSH2 0x21E0 JUMPI PUSH2 0x100 DUP1 DUP4 SLOAD DIV MUL DUP4 MSTORE SWAP2 PUSH1 0x20 ADD SWAP2 PUSH2 0x220B JUMP JUMPDEST DUP3 ADD SWAP2 SWAP1 PUSH1 0x0 MSTORE PUSH1 0x20 PUSH1 0x0 KECCAK256 SWAP1 JUMPDEST DUP2 SLOAD DUP2 MSTORE SWAP1 PUSH1 0x1 ADD SWAP1 PUSH1 0x20 ADD DUP1 DUP4 GT PUSH2 0x21EE JUMPI DUP3 SWAP1 SUB PUSH1 0x1F AND DUP3 ADD SWAP2 JUMPDEST POP POP POP POP POP DUP2 JUMP JUMPDEST PUSH1 0xB DUP3 DUP1 MLOAD PUSH1 0x20 DUP2 ADD DUP3 ADD DUP1 MLOAD DUP5 DUP3 MSTORE PUSH1 0x20 DUP4 ADD PUSH1 0x20 DUP6 ADD KECCAK256 DUP2 DUP4 MSTORE DUP1 SWAP6 POP POP POP POP POP POP DUP2 DUP2 SLOAD DUP2 LT PUSH2 0x2245 JUMPI PUSH1 0x0 DUP1 REVERT JUMPDEST SWAP1 PUSH1 0x0 MSTORE PUSH1 0x20 PUSH1 0x0 KECCAK256 ADD PUSH1 0x0 SWAP2 POP SWAP2 POP POP DUP1 PUSH1 0x0 ADD PUSH1 0x0 SWAP1 SLOAD SWAP1 PUSH2 0x100 EXP SWAP1 DIV PUSH1 0xFF AND SWAP1 DUP1 PUSH1 0x0 ADD PUSH1 0x1 SWAP1 SLOAD SWAP1 PUSH2 0x100 EXP SWAP1 DIV PUSH1 0xFF AND SWAP1 DUP1 PUSH1 0x0 ADD PUSH1 0x2 SWAP1 SLOAD SWAP1 PUSH2 0x100 EXP SWAP1 DIV PUSH20 0xFFFFFFFFFFFFFFFFFFFFFFFFFFFFFFFFFFFFFFFF AND SWAP1 POP DUP4 JUMP JUMPDEST PUSH1 0x5 DUP2 DUP1 MLOAD PUSH1 0x20 DUP2 ADD DUP3 ADD DUP1 MLOAD DUP5 DUP3 MSTORE PUSH1 0x20 DUP4 ADD PUSH1 0x20 DUP6 ADD KECCAK256 DUP2 DUP4 MSTORE DUP1 SWAP6 POP POP POP POP POP POP PUSH1 0x0 SWAP2 POP SWAP1 POP SLOAD DUP2 JUMP JUMPDEST PUSH1 0x0 DUP1 PUSH1 0x0 PUSH1 0x1 DUP8 PUSH1 0x40 MLOAD PUSH2 0x22E9 SWAP2 SWAP1 PUSH2 0x310A JUMP JUMPDEST SWAP1 DUP2 MSTORE PUSH1 0x20 ADD PUSH1 0x40 MLOAD DUP1 SWAP2 SUB SWAP1 KECCAK256 PUSH1 0x0 SWAP1 SLOAD SWAP1 PUSH2 0x100 EXP SWAP1 DIV PUSH20 0xFFFFFFFFFFFFFFFFFFFFFFFFFFFFFFFFFFFFFFFF AND PUSH20 0xFFFFFFFFFFFFFFFFFFFFFFFFFFFFFFFFFFFFFFFF AND CALLER PUSH20 0xFFFFFFFFFFFFFFFFFFFFFFFFFFFFFFFFFFFFFFFF AND EQ PUSH2 0x2385 JUMPI PUSH1 0x40 MLOAD PUSH32 0x8C379A000000000000000000000000000000000000000000000000000000000 DUP2 MSTORE PUSH1 0x4 ADD PUSH2 0x237C SWAP1 PUSH2 0x339A JUMP JUMPDEST PUSH1 0x40 MLOAD DUP1 SWAP2 SUB SWAP1 REVERT JUMPDEST PUSH1 0x0 PUSH1 0x1 SWAP1 POP PUSH1 0x0 PUSH1 0x1 SWAP1 POP PUSH1 0x0 PUSH1 0x1 SWAP1 POP PUSH1 0x0 PUSH20 0xFFFFFFFFFFFFFFFFFFFFFFFFFFFFFFFFFFFFFFFF AND PUSH1 0x1 DUP12 PUSH1 0x40 MLOAD PUSH2 0x23BF SWAP2 SWAP1 PUSH2 0x310A JUMP JUMPDEST SWAP1 DUP2 MSTORE PUSH1 0x20 ADD PUSH1 0x40 MLOAD DUP1 SWAP2 SUB SWAP1 KECCAK256 PUSH1 0x0 SWAP1 SLOAD SWAP1 PUSH2 0x100 EXP SWAP1 DIV PUSH20 0xFFFFFFFFFFFFFFFFFFFFFFFFFFFFFFFFFFFFFFFF AND PUSH20 0xFFFFFFFFFFFFFFFFFFFFFFFFFFFFFFFFFFFFFFFF AND EQ ISZERO PUSH2 0x241D JUMPI PUSH1 0x1 DUP1 PUSH1 0x1 SWAP6 POP SWAP6 POP SWAP6 POP POP POP POP PUSH2 0x24AB JUMP JUMPDEST PUSH1 0x0 DUP11 PUSH1 0x40 MLOAD PUSH2 0x242D SWAP2 SWAP1 PUSH2 0x310A JUMP JUMPDEST SWAP1 DUP2 MSTORE PUSH1 0x20 ADD PUSH1 0x40 MLOAD DUP1 SWAP2 SUB SWAP1 KECCAK256 PUSH1 0x2 ADD SLOAD DUP10 EQ PUSH2 0x244A JUMPI PUSH1 0x0 SWAP3 POP JUMPDEST PUSH1 0x4 DUP11 PUSH1 0x40 MLOAD PUSH2 0x245A SWAP2 SWAP1 PUSH2 0x310A JUMP JUMPDEST SWAP1 DUP2 MSTORE PUSH1 0x20 ADD PUSH1 0x40 MLOAD DUP1 SWAP2 SUB SWAP1 KECCAK256 SLOAD DUP8 EQ PUSH2 0x2474 JUMPI PUSH1 0x0 SWAP2 POP JUMPDEST DUP8 PUSH1 0x3 DUP12 PUSH1 0x40 MLOAD PUSH2 0x2485 SWAP2 SWAP1 PUSH2 0x310A JUMP JUMPDEST SWAP1 DUP2 MSTORE PUSH1 0x20 ADD PUSH1 0x40 MLOAD DUP1 SWAP2 SUB SWAP1 KECCAK256 SLOAD EQ PUSH2 0x249E JUMPI PUSH1 0x0 SWAP1 POP JUMPDEST DUP3 DUP3 DUP3 SWAP6 POP SWAP6 POP SWAP6 POP POP POP POP JUMPDEST SWAP5 POP SWAP5 POP SWAP5 SWAP2 POP POP JUMP JUMPDEST PUSH1 0x4 DUP2 DUP1 MLOAD PUSH1 0x20 DUP2 ADD DUP3 ADD DUP1 MLOAD DUP5 DUP3 MSTORE PUSH1 0x20 DUP4 ADD PUSH1 0x20 DUP6 ADD KECCAK256 DUP2 DUP4 MSTORE DUP1 SWAP6 POP POP POP POP POP POP PUSH1 0x0 SWAP2 POP SWAP1 POP SLOAD DUP2 JUMP JUMPDEST PUSH1 0x3 DUP2 DUP1 MLOAD PUSH1 0x20 DUP2 ADD DUP3 ADD DUP1 MLOAD DUP5 DUP3 MSTORE PUSH1 0x20 DUP4 ADD PUSH1 0x20 DUP6 ADD KECCAK256 DUP2 DUP4 MSTORE DUP1 SWAP6 POP POP POP POP POP POP PUSH1 0x0 SWAP2 POP SWAP1 POP SLOAD DUP2 JUMP JUMPDEST PUSH1 0x60 DUP1 PUSH2 0x251C PUSH2 0x288A JUMP JUMPDEST PUSH1 0x2 DUP6 DUP6 PUSH1 0x40 MLOAD PUSH2 0x252E SWAP3 SWAP2 SWAP1 PUSH2 0x30F1 JUMP JUMPDEST SWAP1 DUP2 MSTORE PUSH1 0x20 ADD PUSH1 0x40 MLOAD DUP1 SWAP2 SUB SWAP1 KECCAK256 PUSH1 0x6 DUP7 DUP7 PUSH1 0x40 MLOAD PUSH2 0x254E SWAP3 SWAP2 SWAP1 PUSH2 0x30F1 JUMP JUMPDEST SWAP1 DUP2 MSTORE PUSH1 0x20 ADD PUSH1 0x40 MLOAD DUP1 SWAP2 SUB SWAP1 KECCAK256 PUSH1 0x0 DUP8 DUP8 PUSH1 0x40 MLOAD PUSH2 0x256E SWAP3 SWAP2 SWAP1 PUSH2 0x30F1 JUMP JUMPDEST SWAP1 DUP2 MSTORE PUSH1 0x20 ADD PUSH1 0x40 MLOAD DUP1 SWAP2 SUB SWAP1 KECCAK256 DUP3 DUP1 SLOAD PUSH2 0x2588 SWAP1 PUSH2 0x36A4 JUMP JUMPDEST DUP1 PUSH1 0x1F ADD PUSH1 0x20 DUP1 SWAP2 DIV MUL PUSH1 0x20 ADD PUSH1 0x40 MLOAD SWAP1 DUP2 ADD PUSH1 0x40 MSTORE DUP1 SWAP3 SWAP2 SWAP1 DUP2 DUP2 MSTORE PUSH1 0x20 ADD DUP3 DUP1 SLOAD PUSH2 0x25B4 SWAP1 PUSH2 0x36A4 JUMP JUMPDEST DUP1 ISZERO PUSH2 0x2601 JUMPI DUP1 PUSH1 0x1F LT PUSH2 0x25D6 JUMPI PUSH2 0x100 DUP1 DUP4 SLOAD DIV MUL DUP4 MSTORE SWAP2 PUSH1 0x20 ADD SWAP2 PUSH2 0x2601 JUMP JUMPDEST DUP3 ADD SWAP2 SWAP1 PUSH1 0x0 MSTORE PUSH1 0x20 PUSH1 0x0 KECCAK256 SWAP1 JUMPDEST DUP2 SLOAD DUP2 MSTORE SWAP1 PUSH1 0x1 ADD SWAP1 PUSH1 0x20 ADD DUP1 DUP4 GT PUSH2 0x25E4 JUMPI DUP3 SWAP1 SUB PUSH1 0x1F AND DUP3 ADD SWAP2 JUMPDEST POP POP POP POP POP SWAP3 POP DUP2 DUP1 SLOAD PUSH2 0x2614 SWAP1 PUSH2 0x36A4 JUMP JUMPDEST DUP1 PUSH1 0x1F ADD PUSH1 0x20 DUP1 SWAP2 DIV MUL PUSH1 0x20 ADD PUSH1 0x40 MLOAD SWAP1 DUP2 ADD PUSH1 0x40 MSTORE DUP1 SWAP3 SWAP2 SWAP1 DUP2 DUP2 MSTORE PUSH1 0x20 ADD DUP3 DUP1 SLOAD PUSH2 0x2640 SWAP1 PUSH2 0x36A4 JUMP JUMPDEST DUP1 ISZERO PUSH2 0x268D JUMPI DUP1 PUSH1 0x1F LT PUSH2 0x2662 JUMPI PUSH2 0x100 DUP1 DUP4 SLOAD DIV MUL DUP4 MSTORE SWAP2 PUSH1 0x20 ADD SWAP2 PUSH2 0x268D JUMP JUMPDEST DUP3 ADD SWAP2 SWAP1 PUSH1 0x0 MSTORE PUSH1 0x20 PUSH1 0x0 KECCAK256 SWAP1 JUMPDEST DUP2 SLOAD DUP2 MSTORE SWAP1 PUSH1 0x1 ADD SWAP1 PUSH1 0x20 ADD DUP1 DUP4 GT PUSH2 0x2670 JUMPI DUP3 SWAP1 SUB PUSH1 0x1F AND DUP3 ADD SWAP2 JUMPDEST POP POP POP POP POP SWAP2 POP DUP1 PUSH1 0x40 MLOAD DUP1 PUSH1 0x60 ADD PUSH1 0x40 MSTORE SWAP1 DUP2 PUSH1 0x0 DUP3 ADD SLOAD DUP2 MSTORE PUSH1 0x20 ADD PUSH1 0x1 DUP3 ADD SLOAD DUP2 MSTORE PUSH1 0x20 ADD PUSH1 0x2 DUP3 ADD SLOAD DUP2 MSTORE POP POP SWAP1 POP SWAP3 POP SWAP3 POP SWAP3 POP SWAP3 POP SWAP3 POP SWAP3 JUMP JUMPDEST PUSH1 0x1 DUP2 DUP1 MLOAD PUSH1 0x20 DUP2 ADD DUP3 ADD DUP1 MLOAD DUP5 DUP3 MSTORE PUSH1 0x20 DUP4 ADD PUSH1 0x20 DUP6 ADD KECCAK256 DUP2 DUP4 MSTORE DUP1 SWAP6 POP POP POP POP POP POP PUSH1 0x0 SWAP2 POP SLOAD SWAP1 PUSH2 0x100 EXP SWAP1 DIV PUSH20 0xFFFFFFFFFFFFFFFFFFFFFFFFFFFFFFFFFFFFFFFF AND DUP2 JUMP JUMPDEST PUSH1 0x0 PUSH1 0x8 DUP4 DUP4 PUSH1 0x40 MLOAD PUSH2 0x272A SWAP3 SWAP2 SWAP1 PUSH2 0x30F1 JUMP JUMPDEST SWAP1 DUP2 MSTORE PUSH1 0x20 ADD PUSH1 0x40 MLOAD DUP1 SWAP2 SUB SWAP1 KECCAK256 PUSH1 0x0 SWAP1 SLOAD SWAP1 PUSH2 0x100 EXP SWAP1 DIV PUSH1 0xFF AND SWAP1 POP SWAP3 SWAP2 POP POP JUMP JUMPDEST PUSH1 0x9 DUP2 DUP1 MLOAD PUSH1 0x20 DUP2 ADD DUP3 ADD DUP1 MLOAD DUP5 DUP3 MSTORE PUSH1 0x20 DUP4 ADD PUSH1 0x20 DUP6 ADD KECCAK256 DUP2 DUP4 MSTORE DUP1 SWAP6 POP POP POP POP POP POP PUSH1 0x0 SWAP2 POP SWAP1 POP DUP1 SLOAD PUSH2 0x2783 SWAP1 PUSH2 0x36A4 JUMP JUMPDEST DUP1 PUSH1 0x1F ADD PUSH1 0x20 DUP1 SWAP2 DIV MUL PUSH1 0x20 ADD PUSH1 0x40 MLOAD SWAP1 DUP2 ADD PUSH1 0x40 MSTORE DUP1 SWAP3 SWAP2 SWAP1 DUP2 DUP2 MSTORE PUSH1 0x20 ADD DUP3 DUP1 SLOAD PUSH2 0x27AF SWAP1 PUSH2 0x36A4 JUMP JUMPDEST DUP1 ISZERO PUSH2 0x27FC JUMPI DUP1 PUSH1 0x1F LT PUSH2 0x27D1 JUMPI PUSH2 0x100 DUP1 DUP4 SLOAD DIV MUL DUP4 MSTORE SWAP2 PUSH1 0x20 ADD SWAP2 PUSH2 0x27FC JUMP JUMPDEST DUP3 ADD SWAP2 SWAP1 PUSH1 0x0 MSTORE PUSH1 0x20 PUSH1 0x0 KECCAK256 SWAP1 JUMPDEST DUP2 SLOAD DUP2 MSTORE SWAP1 PUSH1 0x1 ADD SWAP1 PUSH1 0x20 ADD DUP1 DUP4 GT PUSH2 0x27DF JUMPI DUP3 SWAP1 SUB PUSH1 0x1F AND DUP3 ADD SWAP2 JUMPDEST POP POP POP POP POP DUP2 JUMP JUMPDEST DUP3 DUP1 SLOAD PUSH2 0x2810 SWAP1 PUSH2 0x36A4 JUMP JUMPDEST SWAP1 PUSH1 0x0 MSTORE PUSH1 0x20 PUSH1 0x0 KECCAK256 SWAP1 PUSH1 0x1F ADD PUSH1 0x20 SWAP1 DIV DUP2 ADD SWAP3 DUP3 PUSH2 0x2832 JUMPI PUSH1 0x0 DUP6 SSTORE PUSH2 0x2879 JUMP JUMPDEST DUP3 PUSH1 0x1F LT PUSH2 0x284B JUMPI DUP1 MLOAD PUSH1 0xFF NOT AND DUP4 DUP1 ADD OR DUP6 SSTORE PUSH2 0x2879 JUMP JUMPDEST DUP3 DUP1 ADD PUSH1 0x1 ADD DUP6 SSTORE DUP3 ISZERO PUSH2 0x2879 JUMPI SWAP2 DUP3 ADD JUMPDEST DUP3 DUP2 GT ISZERO PUSH2 0x2878 JUMPI DUP3 MLOAD DUP3 SSTORE SWAP2 PUSH1 0x20 ADD SWAP2 SWAP1 PUSH1 0x1 ADD SWAP1 PUSH2 0x285D JUMP JUMPDEST JUMPDEST POP SWAP1 POP PUSH2 0x2886 SWAP2 SWAP1 PUSH2 0x28AB JUMP JUMPDEST POP SWAP1 JUMP JUMPDEST PUSH1 0x40 MLOAD DUP1 PUSH1 0x60 ADD PUSH1 0x40 MSTORE DUP1 PUSH1 0x0 DUP2 MSTORE PUSH1 0x20 ADD PUSH1 0x0 DUP2 MSTORE PUSH1 0x20 ADD PUSH1 0x0 DUP2 MSTORE POP SWAP1 JUMP JUMPDEST JUMPDEST DUP1 DUP3 GT ISZERO PUSH2 0x28C4 JUMPI PUSH1 0x0 DUP2 PUSH1 0x0 SWAP1 SSTORE POP PUSH1 0x1 ADD PUSH2 0x28AC JUMP JUMPDEST POP SWAP1 JUMP JUMPDEST PUSH1 0x0 PUSH2 0x28DB PUSH2 0x28D6 DUP5 PUSH2 0x3491 JUMP JUMPDEST PUSH2 0x346C JUMP JUMPDEST SWAP1 POP DUP3 DUP2 MSTORE PUSH1 0x20 DUP2 ADD DUP5 DUP5 DUP5 ADD GT ISZERO PUSH2 0x28F7 JUMPI PUSH2 0x28F6 PUSH2 0x382B JUMP JUMPDEST JUMPDEST PUSH2 0x2902 DUP5 DUP3 DUP6 PUSH2 0x3662 JUMP JUMPDEST POP SWAP4 SWAP3 POP POP POP JUMP JUMPDEST PUSH1 0x0 DUP2 CALLDATALOAD SWAP1 POP PUSH2 0x2919 DUP2 PUSH2 0x3ACF JUMP JUMPDEST SWAP3 SWAP2 POP POP JUMP JUMPDEST PUSH1 0x0 DUP2 CALLDATALOAD SWAP1 POP PUSH2 0x292E DUP2 PUSH2 0x3AE6 JUMP JUMPDEST SWAP3 SWAP2 POP POP JUMP JUMPDEST PUSH1 0x0 DUP1 DUP4 PUSH1 0x1F DUP5 ADD SLT PUSH2 0x294A JUMPI PUSH2 0x2949 PUSH2 0x3821 JUMP JUMPDEST JUMPDEST DUP3 CALLDATALOAD SWAP1 POP PUSH8 0xFFFFFFFFFFFFFFFF DUP2 GT ISZERO PUSH2 0x2967 JUMPI PUSH2 0x2966 PUSH2 0x381C JUMP JUMPDEST JUMPDEST PUSH1 0x20 DUP4 ADD SWAP2 POP DUP4 PUSH1 0x1 DUP3 MUL DUP4 ADD GT ISZERO PUSH2 0x2983 JUMPI PUSH2 0x2982 PUSH2 0x3826 JUMP JUMPDEST JUMPDEST SWAP3 POP SWAP3 SWAP1 POP JUMP JUMPDEST PUSH1 0x0 DUP3 PUSH1 0x1F DUP4 ADD SLT PUSH2 0x299F JUMPI PUSH2 0x299E PUSH2 0x3821 JUMP JUMPDEST JUMPDEST DUP2 CALLDATALOAD PUSH2 0x29AF DUP5 DUP3 PUSH1 0x20 DUP7 ADD PUSH2 0x28C8 JUMP JUMPDEST SWAP2 POP POP SWAP3 SWAP2 POP POP JUMP JUMPDEST PUSH1 0x0 DUP2 CALLDATALOAD SWAP1 POP PUSH2 0x29C7 DUP2 PUSH2 0x3AFD JUMP JUMPDEST SWAP3 SWAP2 POP POP JUMP JUMPDEST PUSH1 0x0 DUP1 PUSH1 0x0 PUSH1 0x40 DUP5 DUP7 SUB SLT ISZERO PUSH2 0x29E6 JUMPI PUSH2 0x29E5 PUSH2 0x3835 JUMP JUMPDEST JUMPDEST PUSH1 0x0 PUSH2 0x29F4 DUP7 DUP3 DUP8 ADD PUSH2 0x290A JUMP JUMPDEST SWAP4 POP POP PUSH1 0x20 DUP5 ADD CALLDATALOAD PUSH8 0xFFFFFFFFFFFFFFFF DUP2 GT ISZERO PUSH2 0x2A15 JUMPI PUSH2 0x2A14 PUSH2 0x3830 JUMP JUMPDEST JUMPDEST PUSH2 0x2A21 DUP7 DUP3 DUP8 ADD PUSH2 0x2934 JUMP JUMPDEST SWAP3 POP SWAP3 POP POP SWAP3 POP SWAP3 POP SWAP3 JUMP JUMPDEST PUSH1 0x0 DUP1 PUSH1 0x20 DUP4 DUP6 SUB SLT ISZERO PUSH2 0x2A44 JUMPI PUSH2 0x2A43 PUSH2 0x3835 JUMP JUMPDEST JUMPDEST PUSH1 0x0 DUP4 ADD CALLDATALOAD PUSH8 0xFFFFFFFFFFFFFFFF DUP2 GT ISZERO PUSH2 0x2A62 JUMPI PUSH2 0x2A61 PUSH2 0x3830 JUMP JUMPDEST JUMPDEST PUSH2 0x2A6E DUP6 DUP3 DUP7 ADD PUSH2 0x2934 JUMP JUMPDEST SWAP3 POP SWAP3 POP POP SWAP3 POP SWAP3 SWAP1 POP JUMP JUMPDEST PUSH1 0x0 PUSH1 0x20 DUP3 DUP5 SUB SLT ISZERO PUSH2 0x2A90 JUMPI PUSH2 0x2A8F PUSH2 0x3835 JUMP JUMPDEST JUMPDEST PUSH1 0x0 DUP3 ADD CALLDATALOAD PUSH8 0xFFFFFFFFFFFFFFFF DUP2 GT ISZERO PUSH2 0x2AAE JUMPI PUSH2 0x2AAD PUSH2 0x3830 JUMP JUMPDEST JUMPDEST PUSH2 0x2ABA DUP5 DUP3 DUP6 ADD PUSH2 0x298A JUMP JUMPDEST SWAP2 POP POP SWAP3 SWAP2 POP POP JUMP JUMPDEST PUSH1 0x0 DUP1 PUSH1 0x40 DUP4 DUP6 SUB SLT ISZERO PUSH2 0x2ADA JUMPI PUSH2 0x2AD9 PUSH2 0x3835 JUMP JUMPDEST JUMPDEST PUSH1 0x0 DUP4 ADD CALLDATALOAD PUSH8 0xFFFFFFFFFFFFFFFF DUP2 GT ISZERO PUSH2 0x2AF8 JUMPI PUSH2 0x2AF7 PUSH2 0x3830 JUMP JUMPDEST JUMPDEST PUSH2 0x2B04 DUP6 DUP3 DUP7 ADD PUSH2 0x298A JUMP JUMPDEST SWAP3 POP POP PUSH1 0x20 PUSH2 0x2B15 DUP6 DUP3 DUP7 ADD PUSH2 0x290A JUMP JUMPDEST SWAP2 POP POP SWAP3 POP SWAP3 SWAP1 POP JUMP JUMPDEST PUSH1 0x0 DUP1 PUSH1 0x0 PUSH1 0x40 DUP5 DUP7 SUB SLT ISZERO PUSH2 0x2B38 JUMPI PUSH2 0x2B37 PUSH2 0x3835 JUMP JUMPDEST JUMPDEST PUSH1 0x0 DUP5 ADD CALLDATALOAD PUSH8 0xFFFFFFFFFFFFFFFF DUP2 GT ISZERO PUSH2 0x2B56 JUMPI PUSH2 0x2B55 PUSH2 0x3830 JUMP JUMPDEST JUMPDEST PUSH2 0x2B62 DUP7 DUP3 DUP8 ADD PUSH2 0x298A JUMP JUMPDEST SWAP4 POP POP PUSH1 0x20 DUP5 ADD CALLDATALOAD PUSH8 0xFFFFFFFFFFFFFFFF DUP2 GT ISZERO PUSH2 0x2B83 JUMPI PUSH2 0x2B82 PUSH2 0x3830 JUMP JUMPDEST JUMPDEST PUSH2 0x2B8F DUP7 DUP3 DUP8 ADD PUSH2 0x2934 JUMP JUMPDEST SWAP3 POP SWAP3 POP POP SWAP3 POP SWAP3 POP SWAP3 JUMP JUMPDEST PUSH1 0x0 DUP1 PUSH1 0x40 DUP4 DUP6 SUB SLT ISZERO PUSH2 0x2BB2 JUMPI PUSH2 0x2BB1 PUSH2 0x3835 JUMP JUMPDEST JUMPDEST PUSH1 0x0 DUP4 ADD CALLDATALOAD PUSH8 0xFFFFFFFFFFFFFFFF DUP2 GT ISZERO PUSH2 0x2BD0 JUMPI PUSH2 0x2BCF PUSH2 0x3830 JUMP JUMPDEST JUMPDEST PUSH2 0x2BDC DUP6 DUP3 DUP7 ADD PUSH2 0x298A JUMP JUMPDEST SWAP3 POP POP PUSH1 0x20 PUSH2 0x2BED DUP6 DUP3 DUP7 ADD PUSH2 0x29B8 JUMP JUMPDEST SWAP2 POP POP SWAP3 POP SWAP3 SWAP1 POP JUMP JUMPDEST PUSH1 0x0 DUP1 PUSH1 0x0 DUP1 PUSH1 0x80 DUP6 DUP8 SUB SLT ISZERO PUSH2 0x2C11 JUMPI PUSH2 0x2C10 PUSH2 0x3835 JUMP JUMPDEST JUMPDEST PUSH1 0x0 DUP6 ADD CALLDATALOAD PUSH8 0xFFFFFFFFFFFFFFFF DUP2 GT ISZERO PUSH2 0x2C2F JUMPI PUSH2 0x2C2E PUSH2 0x3830 JUMP JUMPDEST JUMPDEST PUSH2 0x2C3B DUP8 DUP3 DUP9 ADD PUSH2 0x298A JUMP JUMPDEST SWAP5 POP POP PUSH1 0x20 PUSH2 0x2C4C DUP8 DUP3 DUP9 ADD PUSH2 0x29B8 JUMP JUMPDEST SWAP4 POP POP PUSH1 0x40 PUSH2 0x2C5D DUP8 DUP3 DUP9 ADD PUSH2 0x29B8 JUMP JUMPDEST SWAP3 POP POP PUSH1 0x60 PUSH2 0x2C6E DUP8 DUP3 DUP9 ADD PUSH2 0x291F JUMP JUMPDEST SWAP2 POP POP SWAP3 SWAP6 SWAP2 SWAP5 POP SWAP3 POP JUMP JUMPDEST PUSH1 0x0 DUP1 PUSH1 0x0 DUP1 PUSH1 0x0 DUP1 PUSH1 0xC0 DUP8 DUP10 SUB SLT ISZERO PUSH2 0x2C97 JUMPI PUSH2 0x2C96 PUSH2 0x3835 JUMP JUMPDEST JUMPDEST PUSH1 0x0 DUP8 ADD CALLDATALOAD PUSH8 0xFFFFFFFFFFFFFFFF DUP2 GT ISZERO PUSH2 0x2CB5 JUMPI PUSH2 0x2CB4 PUSH2 0x3830 JUMP JUMPDEST JUMPDEST PUSH2 0x2CC1 DUP10 DUP3 DUP11 ADD PUSH2 0x298A JUMP JUMPDEST SWAP7 POP POP PUSH1 0x20 PUSH2 0x2CD2 DUP10 DUP3 DUP11 ADD PUSH2 0x29B8 JUMP JUMPDEST SWAP6 POP POP PUSH1 0x40 PUSH2 0x2CE3 DUP10 DUP3 DUP11 ADD PUSH2 0x29B8 JUMP JUMPDEST SWAP5 POP POP PUSH1 0x60 PUSH2 0x2CF4 DUP10 DUP3 DUP11 ADD PUSH2 0x291F JUMP JUMPDEST SWAP4 POP POP PUSH1 0x80 DUP8 ADD CALLDATALOAD PUSH8 0xFFFFFFFFFFFFFFFF DUP2 GT ISZERO PUSH2 0x2D15 JUMPI PUSH2 0x2D14 PUSH2 0x3830 JUMP JUMPDEST JUMPDEST PUSH2 0x2D21 DUP10 DUP3 DUP11 ADD PUSH2 0x298A JUMP JUMPDEST SWAP3 POP POP PUSH1 0xA0 DUP8 ADD CALLDATALOAD PUSH8 0xFFFFFFFFFFFFFFFF DUP2 GT ISZERO PUSH2 0x2D42 JUMPI PUSH2 0x2D41 PUSH2 0x3830 JUMP JUMPDEST JUMPDEST PUSH2 0x2D4E DUP10 DUP3 DUP11 ADD PUSH2 0x298A JUMP JUMPDEST SWAP2 POP POP SWAP3 SWAP6 POP SWAP3 SWAP6 POP SWAP3 SWAP6 JUMP JUMPDEST PUSH1 0x0 PUSH2 0x2D67 DUP4 DUP4 PUSH2 0x3091 JUMP JUMPDEST PUSH1 0x60 DUP4 ADD SWAP1 POP SWAP3 SWAP2 POP POP JUMP JUMPDEST PUSH2 0x2D7C DUP2 PUSH2 0x3603 JUMP JUMPDEST DUP3 MSTORE POP POP JUMP JUMPDEST PUSH2 0x2D8B DUP2 PUSH2 0x3603 JUMP JUMPDEST DUP3 MSTORE POP POP JUMP JUMPDEST PUSH1 0x0 PUSH2 0x2D9C DUP3 PUSH2 0x34D2 JUMP JUMPDEST PUSH2 0x2DA6 DUP2 DUP6 PUSH2 0x34F5 JUMP JUMPDEST SWAP4 POP PUSH2 0x2DB1 DUP4 PUSH2 0x34C2 JUMP JUMPDEST DUP1 PUSH1 0x0 JUMPDEST DUP4 DUP2 LT ISZERO PUSH2 0x2DE2 JUMPI DUP2 MLOAD PUSH2 0x2DC9 DUP9 DUP3 PUSH2 0x2D5B JUMP JUMPDEST SWAP8 POP PUSH2 0x2DD4 DUP4 PUSH2 0x34E8 JUMP JUMPDEST SWAP3 POP POP PUSH1 0x1 DUP2 ADD SWAP1 POP PUSH2 0x2DB5 JUMP JUMPDEST POP DUP6 SWAP4 POP POP POP POP SWAP3 SWAP2 POP POP JUMP JUMPDEST PUSH2 0x2DF8 DUP2 PUSH2 0x3615 JUMP JUMPDEST DUP3 MSTORE POP POP JUMP JUMPDEST PUSH2 0x2E07 DUP2 PUSH2 0x3615 JUMP JUMPDEST DUP3 MSTORE POP POP JUMP JUMPDEST PUSH2 0x2E16 DUP2 PUSH2 0x3621 JUMP JUMPDEST DUP3 MSTORE POP POP JUMP JUMPDEST PUSH1 0x0 PUSH2 0x2E28 DUP4 DUP6 PUSH2 0x3517 JUMP JUMPDEST SWAP4 POP PUSH2 0x2E35 DUP4 DUP6 DUP5 PUSH2 0x3662 JUMP JUMPDEST DUP3 DUP5 ADD SWAP1 POP SWAP4 SWAP3 POP POP POP JUMP JUMPDEST PUSH1 0x0 PUSH2 0x2E4C DUP3 PUSH2 0x34DD JUMP JUMPDEST PUSH2 0x2E56 DUP2 DUP6 PUSH2 0x3506 JUMP JUMPDEST SWAP4 POP PUSH2 0x2E66 DUP2 DUP6 PUSH1 0x20 DUP7 ADD PUSH2 0x3671 JUMP JUMPDEST PUSH2 0x2E6F DUP2 PUSH2 0x383A JUMP JUMPDEST DUP5 ADD SWAP2 POP POP SWAP3 SWAP2 POP POP JUMP JUMPDEST PUSH1 0x0 PUSH2 0x2E85 DUP3 PUSH2 0x34DD JUMP JUMPDEST PUSH2 0x2E8F DUP2 DUP6 PUSH2 0x3517 JUMP JUMPDEST SWAP4 POP PUSH2 0x2E9F DUP2 DUP6 PUSH1 0x20 DUP7 ADD PUSH2 0x3671 JUMP JUMPDEST DUP1 DUP5 ADD SWAP2 POP POP SWAP3 SWAP2 POP POP JUMP JUMPDEST PUSH1 0x0 PUSH2 0x2EB8 PUSH1 0x1F DUP4 PUSH2 0x3506 JUMP JUMPDEST SWAP2 POP PUSH2 0x2EC3 DUP3 PUSH2 0x384B JUMP JUMPDEST PUSH1 0x20 DUP3 ADD SWAP1 POP SWAP2 SWAP1 POP JUMP JUMPDEST PUSH1 0x0 PUSH2 0x2EDB PUSH1 0x19 DUP4 PUSH2 0x3506 JUMP JUMPDEST SWAP2 POP PUSH2 0x2EE6 DUP3 PUSH2 0x3874 JUMP JUMPDEST PUSH1 0x20 DUP3 ADD SWAP1 POP SWAP2 SWAP1 POP JUMP JUMPDEST PUSH1 0x0 PUSH2 0x2EFE PUSH1 0x26 DUP4 PUSH2 0x3506 JUMP JUMPDEST SWAP2 POP PUSH2 0x2F09 DUP3 PUSH2 0x389D JUMP JUMPDEST PUSH1 0x40 DUP3 ADD SWAP1 POP SWAP2 SWAP1 POP JUMP JUMPDEST PUSH1 0x0 PUSH2 0x2F21 PUSH1 0x1C DUP4 PUSH2 0x3506 JUMP JUMPDEST SWAP2 POP PUSH2 0x2F2C DUP3 PUSH2 0x38EC JUMP JUMPDEST PUSH1 0x20 DUP3 ADD SWAP1 POP SWAP2 SWAP1 POP JUMP JUMPDEST PUSH1 0x0 PUSH2 0x2F44 PUSH1 0x15 DUP4 PUSH2 0x3506 JUMP JUMPDEST SWAP2 POP PUSH2 0x2F4F DUP3 PUSH2 0x3915 JUMP JUMPDEST PUSH1 0x20 DUP3 ADD SWAP1 POP SWAP2 SWAP1 POP JUMP JUMPDEST PUSH1 0x0 PUSH2 0x2F67 PUSH1 0x1E DUP4 PUSH2 0x3506 JUMP JUMPDEST SWAP2 POP PUSH2 0x2F72 DUP3 PUSH2 0x393E JUMP JUMPDEST PUSH1 0x20 DUP3 ADD SWAP1 POP SWAP2 SWAP1 POP JUMP JUMPDEST PUSH1 0x0 PUSH2 0x2F8A PUSH1 0x24 DUP4 PUSH2 0x3506 JUMP JUMPDEST SWAP2 POP PUSH2 0x2F95 DUP3 PUSH2 0x3967 JUMP JUMPDEST PUSH1 0x40 DUP3 ADD SWAP1 POP SWAP2 SWAP1 POP JUMP JUMPDEST PUSH1 0x0 PUSH2 0x2FAD PUSH1 0x28 DUP4 PUSH2 0x3506 JUMP JUMPDEST SWAP2 POP PUSH2 0x2FB8 DUP3 PUSH2 0x39B6 JUMP JUMPDEST PUSH1 0x40 DUP3 ADD SWAP1 POP SWAP2 SWAP1 POP JUMP JUMPDEST PUSH1 0x0 PUSH2 0x2FD0 PUSH1 0x14 DUP4 PUSH2 0x3506 JUMP JUMPDEST SWAP2 POP PUSH2 0x2FDB DUP3 PUSH2 0x3A05 JUMP JUMPDEST PUSH1 0x20 DUP3 ADD SWAP1 POP SWAP2 SWAP1 POP JUMP JUMPDEST PUSH1 0x0 PUSH2 0x2FF3 PUSH1 0x20 DUP4 PUSH2 0x3506 JUMP JUMPDEST SWAP2 POP PUSH2 0x2FFE DUP3 PUSH2 0x3A2E JUMP JUMPDEST PUSH1 0x20 DUP3 ADD SWAP1 POP SWAP2 SWAP1 POP JUMP JUMPDEST PUSH1 0x0 PUSH2 0x3016 PUSH1 0x12 DUP4 PUSH2 0x3506 JUMP JUMPDEST SWAP2 POP PUSH2 0x3021 DUP3 PUSH2 0x3A57 JUMP JUMPDEST PUSH1 0x20 DUP3 ADD SWAP1 POP SWAP2 SWAP1 POP JUMP JUMPDEST PUSH1 0x0 PUSH2 0x3039 PUSH1 0x25 DUP4 PUSH2 0x3506 JUMP JUMPDEST SWAP2 POP PUSH2 0x3044 DUP3 PUSH2 0x3A80 JUMP JUMPDEST PUSH1 0x40 DUP3 ADD SWAP1 POP SWAP2 SWAP1 POP JUMP JUMPDEST PUSH1 0x60 DUP3 ADD PUSH1 0x0 DUP3 ADD MLOAD PUSH2 0x3065 PUSH1 0x0 DUP6 ADD DUP3 PUSH2 0x30D3 JUMP JUMPDEST POP PUSH1 0x20 DUP3 ADD MLOAD PUSH2 0x3078 PUSH1 0x20 DUP6 ADD DUP3 PUSH2 0x30D3 JUMP JUMPDEST POP PUSH1 0x40 DUP3 ADD MLOAD PUSH2 0x308B PUSH1 0x40 DUP6 ADD DUP3 PUSH2 0x30D3 JUMP JUMPDEST POP POP POP POP JUMP JUMPDEST PUSH1 0x60 DUP3 ADD PUSH1 0x0 DUP3 ADD MLOAD PUSH2 0x30A7 PUSH1 0x0 DUP6 ADD DUP3 PUSH2 0x2DEF JUMP JUMPDEST POP PUSH1 0x20 DUP3 ADD MLOAD PUSH2 0x30BA PUSH1 0x20 DUP6 ADD DUP3 PUSH2 0x2DEF JUMP JUMPDEST POP PUSH1 0x40 DUP3 ADD MLOAD PUSH2 0x30CD PUSH1 0x40 DUP6 ADD DUP3 PUSH2 0x2D73 JUMP JUMPDEST POP POP POP POP JUMP JUMPDEST PUSH2 0x30DC DUP2 PUSH2 0x364B JUMP JUMPDEST DUP3 MSTORE POP POP JUMP JUMPDEST PUSH2 0x30EB DUP2 PUSH2 0x364B JUMP JUMPDEST DUP3 MSTORE POP POP JUMP JUMPDEST PUSH1 0x0 PUSH2 0x30FE DUP3 DUP5 DUP7 PUSH2 0x2E1C JUMP JUMPDEST SWAP2 POP DUP2 SWAP1 POP SWAP4 SWAP3 POP POP POP JUMP JUMPDEST PUSH1 0x0 PUSH2 0x3116 DUP3 DUP5 PUSH2 0x2E7A JUMP JUMPDEST SWAP2 POP DUP2 SWAP1 POP SWAP3 SWAP2 POP POP JUMP JUMPDEST PUSH1 0x0 PUSH1 0x20 DUP3 ADD SWAP1 POP PUSH2 0x3136 PUSH1 0x0 DUP4 ADD DUP5 PUSH2 0x2D82 JUMP JUMPDEST SWAP3 SWAP2 POP POP JUMP JUMPDEST PUSH1 0x0 PUSH1 0x20 DUP3 ADD SWAP1 POP PUSH2 0x3151 PUSH1 0x0 DUP4 ADD DUP5 PUSH2 0x2DFE JUMP JUMPDEST SWAP3 SWAP2 POP POP JUMP JUMPDEST PUSH1 0x0 PUSH1 0x60 DUP3 ADD SWAP1 POP PUSH2 0x316C PUSH1 0x0 DUP4 ADD DUP7 PUSH2 0x2DFE JUMP JUMPDEST PUSH2 0x3179 PUSH1 0x20 DUP4 ADD DUP6 PUSH2 0x2DFE JUMP JUMPDEST PUSH2 0x3186 PUSH1 0x40 DUP4 ADD DUP5 PUSH2 0x2D82 JUMP JUMPDEST SWAP5 SWAP4 POP POP POP POP JUMP JUMPDEST PUSH1 0x0 PUSH1 0x60 DUP3 ADD SWAP1 POP PUSH2 0x31A3 PUSH1 0x0 DUP4 ADD DUP7 PUSH2 0x2DFE JUMP JUMPDEST PUSH2 0x31B0 PUSH1 0x20 DUP4 ADD DUP6 PUSH2 0x2DFE JUMP JUMPDEST PUSH2 0x31BD PUSH1 0x40 DUP4 ADD DUP5 PUSH2 0x2DFE JUMP JUMPDEST SWAP5 SWAP4 POP POP POP POP JUMP JUMPDEST PUSH1 0x0 PUSH1 0x20 DUP3 ADD SWAP1 POP PUSH2 0x31DA PUSH1 0x0 DUP4 ADD DUP5 PUSH2 0x2E0D JUMP JUMPDEST SWAP3 SWAP2 POP POP JUMP JUMPDEST PUSH1 0x0 PUSH1 0x80 DUP3 ADD SWAP1 POP PUSH2 0x31F5 PUSH1 0x0 DUP4 ADD DUP8 PUSH2 0x2E0D JUMP JUMPDEST DUP2 DUP2 SUB PUSH1 0x20 DUP4 ADD MSTORE PUSH2 0x3207 DUP2 DUP7 PUSH2 0x2E41 JUMP JUMPDEST SWAP1 POP PUSH2 0x3216 PUSH1 0x40 DUP4 ADD DUP6 PUSH2 0x30E2 JUMP JUMPDEST DUP2 DUP2 SUB PUSH1 0x60 DUP4 ADD MSTORE PUSH2 0x3228 DUP2 DUP5 PUSH2 0x2D91 JUMP JUMPDEST SWAP1 POP SWAP6 SWAP5 POP POP POP POP POP JUMP JUMPDEST PUSH1 0x0 PUSH1 0x20 DUP3 ADD SWAP1 POP DUP2 DUP2 SUB PUSH1 0x0 DUP4 ADD MSTORE PUSH2 0x324D DUP2 DUP5 PUSH2 0x2E41 JUMP JUMPDEST SWAP1 POP SWAP3 SWAP2 POP POP JUMP JUMPDEST PUSH1 0x0 PUSH1 0xA0 DUP3 ADD SWAP1 POP DUP2 DUP2 SUB PUSH1 0x0 DUP4 ADD MSTORE PUSH2 0x326F DUP2 DUP7 PUSH2 0x2E41 JUMP JUMPDEST SWAP1 POP DUP2 DUP2 SUB PUSH1 0x20 DUP4 ADD MSTORE PUSH2 0x3283 DUP2 DUP6 PUSH2 0x2E41 JUMP JUMPDEST SWAP1 POP PUSH2 0x3292 PUSH1 0x40 DUP4 ADD DUP5 PUSH2 0x304F JUMP JUMPDEST SWAP5 SWAP4 POP POP POP POP JUMP JUMPDEST PUSH1 0x0 PUSH1 0x20 DUP3 ADD SWAP1 POP DUP2 DUP2 SUB PUSH1 0x0 DUP4 ADD MSTORE PUSH2 0x32B3 DUP2 PUSH2 0x2EAB JUMP JUMPDEST SWAP1 POP SWAP2 SWAP1 POP JUMP JUMPDEST PUSH1 0x0 PUSH1 0x20 DUP3 ADD SWAP1 POP DUP2 DUP2 SUB PUSH1 0x0 DUP4 ADD MSTORE PUSH2 0x32D3 DUP2 PUSH2 0x2ECE JUMP JUMPDEST SWAP1 POP SWAP2 SWAP1 POP JUMP JUMPDEST PUSH1 0x0 PUSH1 0x20 DUP3 ADD SWAP1 POP DUP2 DUP2 SUB PUSH1 0x0 DUP4 ADD MSTORE PUSH2 0x32F3 DUP2 PUSH2 0x2EF1 JUMP JUMPDEST SWAP1 POP SWAP2 SWAP1 POP JUMP JUMPDEST PUSH1 0x0 PUSH1 0x20 DUP3 ADD SWAP1 POP DUP2 DUP2 SUB PUSH1 0x0 DUP4 ADD MSTORE PUSH2 0x3313 DUP2 PUSH2 0x2F14 JUMP JUMPDEST SWAP1 POP SWAP2 SWAP1 POP JUMP JUMPDEST PUSH1 0x0 PUSH1 0x20 DUP3 ADD SWAP1 POP DUP2 DUP2 SUB PUSH1 0x0 DUP4 ADD MSTORE PUSH2 0x3333 DUP2 PUSH2 0x2F37 JUMP JUMPDEST SWAP1 POP SWAP2 SWAP1 POP JUMP JUMPDEST PUSH1 0x0 PUSH1 0x20 DUP3 ADD SWAP1 POP DUP2 DUP2 SUB PUSH1 0x0 DUP4 ADD MSTORE PUSH2 0x3353 DUP2 PUSH2 0x2F5A JUMP JUMPDEST SWAP1 POP SWAP2 SWAP1 POP JUMP JUMPDEST PUSH1 0x0 PUSH1 0x20 DUP3 ADD SWAP1 POP DUP2 DUP2 SUB PUSH1 0x0 DUP4 ADD MSTORE PUSH2 0x3373 DUP2 PUSH2 0x2F7D JUMP JUMPDEST SWAP1 POP SWAP2 SWAP1 POP JUMP JUMPDEST PUSH1 0x0 PUSH1 0x20 DUP3 ADD SWAP1 POP DUP2 DUP2 SUB PUSH1 0x0 DUP4 ADD MSTORE PUSH2 0x3393 DUP2 PUSH2 0x2FA0 JUMP JUMPDEST SWAP1 POP SWAP2 SWAP1 POP JUMP JUMPDEST PUSH1 0x0 PUSH1 0x20 DUP3 ADD SWAP1 POP DUP2 DUP2 SUB PUSH1 0x0 DUP4 ADD MSTORE PUSH2 0x33B3 DUP2 PUSH2 0x2FC3 JUMP JUMPDEST SWAP1 POP SWAP2 SWAP1 POP JUMP JUMPDEST PUSH1 0x0 PUSH1 0x20 DUP3 ADD SWAP1 POP DUP2 DUP2 SUB PUSH1 0x0 DUP4 ADD MSTORE PUSH2 0x33D3 DUP2 PUSH2 0x2FE6 JUMP JUMPDEST SWAP1 POP SWAP2 SWAP1 POP JUMP JUMPDEST PUSH1 0x0 PUSH1 0x20 DUP3 ADD SWAP1 POP DUP2 DUP2 SUB PUSH1 0x0 DUP4 ADD MSTORE PUSH2 0x33F3 DUP2 PUSH2 0x3009 JUMP JUMPDEST SWAP1 POP SWAP2 SWAP1 POP JUMP JUMPDEST PUSH1 0x0 PUSH1 0x20 DUP3 ADD SWAP1 POP DUP2 DUP2 SUB PUSH1 0x0 DUP4 ADD MSTORE PUSH2 0x3413 DUP2 PUSH2 0x302C JUMP JUMPDEST SWAP1 POP SWAP2 SWAP1 POP JUMP JUMPDEST PUSH1 0x0 PUSH1 0x20 DUP3 ADD SWAP1 POP PUSH2 0x342F PUSH1 0x0 DUP4 ADD DUP5 PUSH2 0x30E2 JUMP JUMPDEST SWAP3 SWAP2 POP POP JUMP JUMPDEST PUSH1 0x0 PUSH1 0x60 DUP3 ADD SWAP1 POP PUSH2 0x344A PUSH1 0x0 DUP4 ADD DUP7 PUSH2 0x30E2 JUMP JUMPDEST PUSH2 0x3457 PUSH1 0x20 DUP4 ADD DUP6 PUSH2 0x30E2 JUMP JUMPDEST PUSH2 0x3464 PUSH1 0x40 DUP4 ADD DUP5 PUSH2 0x30E2 JUMP JUMPDEST SWAP5 SWAP4 POP POP POP POP JUMP JUMPDEST PUSH1 0x0 PUSH2 0x3476 PUSH2 0x3487 JUMP JUMPDEST SWAP1 POP PUSH2 0x3482 DUP3 DUP3 PUSH2 0x36D6 JUMP JUMPDEST SWAP2 SWAP1 POP JUMP JUMPDEST PUSH1 0x0 PUSH1 0x40 MLOAD SWAP1 POP SWAP1 JUMP JUMPDEST PUSH1 0x0 PUSH8 0xFFFFFFFFFFFFFFFF DUP3 GT ISZERO PUSH2 0x34AC JUMPI PUSH2 0x34AB PUSH2 0x37ED JUMP JUMPDEST JUMPDEST PUSH2 0x34B5 DUP3 PUSH2 0x383A JUMP JUMPDEST SWAP1 POP PUSH1 0x20 DUP2 ADD SWAP1 POP SWAP2 SWAP1 POP JUMP JUMPDEST PUSH1 0x0 DUP2 SWAP1 POP PUSH1 0x20 DUP3 ADD SWAP1 POP SWAP2 SWAP1 POP JUMP JUMPDEST PUSH1 0x0 DUP2 MLOAD SWAP1 POP SWAP2 SWAP1 POP JUMP JUMPDEST PUSH1 0x0 DUP2 MLOAD SWAP1 POP SWAP2 SWAP1 POP JUMP JUMPDEST PUSH1 0x0 PUSH1 0x20 DUP3 ADD SWAP1 POP SWAP2 SWAP1 POP JUMP JUMPDEST PUSH1 0x0 DUP3 DUP3 MSTORE PUSH1 0x20 DUP3 ADD SWAP1 POP SWAP3 SWAP2 POP POP JUMP JUMPDEST PUSH1 0x0 DUP3 DUP3 MSTORE PUSH1 0x20 DUP3 ADD SWAP1 POP SWAP3 SWAP2 POP POP JUMP JUMPDEST PUSH1 0x0 DUP2 SWAP1 POP SWAP3 SWAP2 POP POP JUMP JUMPDEST PUSH1 0x0 PUSH2 0x352D DUP3 PUSH2 0x364B JUMP JUMPDEST SWAP2 POP PUSH2 0x3538 DUP4 PUSH2 0x364B JUMP JUMPDEST SWAP3 POP DUP3 PUSH32 0xFFFFFFFFFFFFFFFFFFFFFFFFFFFFFFFFFFFFFFFFFFFFFFFFFFFFFFFFFFFFFFFF SUB DUP3 GT ISZERO PUSH2 0x356D JUMPI PUSH2 0x356C PUSH2 0x3731 JUMP JUMPDEST JUMPDEST DUP3 DUP3 ADD SWAP1 POP SWAP3 SWAP2 POP POP JUMP JUMPDEST PUSH1 0x0 PUSH2 0x3583 DUP3 PUSH2 0x364B JUMP JUMPDEST SWAP2 POP PUSH2 0x358E DUP4 PUSH2 0x364B JUMP JUMPDEST SWAP3 POP DUP3 PUSH2 0x359E JUMPI PUSH2 0x359D PUSH2 0x3760 JUMP JUMPDEST JUMPDEST DUP3 DUP3 DIV SWAP1 POP SWAP3 SWAP2 POP POP JUMP JUMPDEST PUSH1 0x0 PUSH2 0x35B4 DUP3 PUSH2 0x364B JUMP JUMPDEST SWAP2 POP PUSH2 0x35BF DUP4 PUSH2 0x364B JUMP JUMPDEST SWAP3 POP DUP2 PUSH32 0xFFFFFFFFFFFFFFFFFFFFFFFFFFFFFFFFFFFFFFFFFFFFFFFFFFFFFFFFFFFFFFFF DIV DUP4 GT DUP3 ISZERO ISZERO AND ISZERO PUSH2 0x35F8 JUMPI PUSH2 0x35F7 PUSH2 0x3731 JUMP JUMPDEST JUMPDEST DUP3 DUP3 MUL SWAP1 POP SWAP3 SWAP2 POP POP JUMP JUMPDEST PUSH1 0x0 PUSH2 0x360E DUP3 PUSH2 0x362B JUMP JUMPDEST SWAP1 POP SWAP2 SWAP1 POP JUMP JUMPDEST PUSH1 0x0 DUP2 ISZERO ISZERO SWAP1 POP SWAP2 SWAP1 POP JUMP JUMPDEST PUSH1 0x0 DUP2 SWAP1 POP SWAP2 SWAP1 POP JUMP JUMPDEST PUSH1 0x0 PUSH20 0xFFFFFFFFFFFFFFFFFFFFFFFFFFFFFFFFFFFFFFFF DUP3 AND SWAP1 POP SWAP2 SWAP1 POP JUMP JUMPDEST PUSH1 0x0 DUP2 SWAP1 POP SWAP2 SWAP1 POP JUMP JUMPDEST PUSH1 0x0 PUSH1 0xFF DUP3 AND SWAP1 POP SWAP2 SWAP1 POP JUMP JUMPDEST DUP3 DUP2 DUP4 CALLDATACOPY PUSH1 0x0 DUP4 DUP4 ADD MSTORE POP POP POP JUMP JUMPDEST PUSH1 0x0 JUMPDEST DUP4 DUP2 LT ISZERO PUSH2 0x368F JUMPI DUP1 DUP3 ADD MLOAD DUP2 DUP5 ADD MSTORE PUSH1 0x20 DUP2 ADD SWAP1 POP PUSH2 0x3674 JUMP JUMPDEST DUP4 DUP2 GT ISZERO PUSH2 0x369E JUMPI PUSH1 0x0 DUP5 DUP5 ADD MSTORE JUMPDEST POP POP POP POP JUMP JUMPDEST PUSH1 0x0 PUSH1 0x2 DUP3 DIV SWAP1 POP PUSH1 0x1 DUP3 AND DUP1 PUSH2 0x36BC JUMPI PUSH1 0x7F DUP3 AND SWAP2 POP JUMPDEST PUSH1 0x20 DUP3 LT DUP2 EQ ISZERO PUSH2 0x36D0 JUMPI PUSH2 0x36CF PUSH2 0x378F JUMP JUMPDEST JUMPDEST POP SWAP2 SWAP1 POP JUMP JUMPDEST PUSH2 0x36DF DUP3 PUSH2 0x383A JUMP JUMPDEST DUP2 ADD DUP2 DUP2 LT PUSH8 0xFFFFFFFFFFFFFFFF DUP3 GT OR ISZERO PUSH2 0x36FE JUMPI PUSH2 0x36FD PUSH2 0x37ED JUMP JUMPDEST JUMPDEST DUP1 PUSH1 0x40 MSTORE POP POP POP JUMP JUMPDEST PUSH1 0x0 PUSH2 0x3712 DUP3 PUSH2 0x3655 JUMP JUMPDEST SWAP2 POP PUSH1 0xFF DUP3 EQ ISZERO PUSH2 0x3726 JUMPI PUSH2 0x3725 PUSH2 0x3731 JUMP JUMPDEST JUMPDEST PUSH1 0x1 DUP3 ADD SWAP1 POP SWAP2 SWAP1 POP JUMP JUMPDEST PUSH32 0x4E487B7100000000000000000000000000000000000000000000000000000000 PUSH1 0x0 MSTORE PUSH1 0x11 PUSH1 0x4 MSTORE PUSH1 0x24 PUSH1 0x0 REVERT JUMPDEST PUSH32 0x4E487B7100000000000000000000000000000000000000000000000000000000 PUSH1 0x0 MSTORE PUSH1 0x12 PUSH1 0x4 MSTORE PUSH1 0x24 PUSH1 0x0 REVERT JUMPDEST PUSH32 0x4E487B7100000000000000000000000000000000000000000000000000000000 PUSH1 0x0 MSTORE PUSH1 0x22 PUSH1 0x4 MSTORE PUSH1 0x24 PUSH1 0x0 REVERT JUMPDEST PUSH32 0x4E487B7100000000000000000000000000000000000000000000000000000000 PUSH1 0x0 MSTORE PUSH1 0x32 PUSH1 0x4 MSTORE PUSH1 0x24 PUSH1 0x0 REVERT JUMPDEST PUSH32 0x4E487B7100000000000000000000000000000000000000000000000000000000 PUSH1 0x0 MSTORE PUSH1 0x41 PUSH1 0x4 MSTORE PUSH1 0x24 PUSH1 0x0 REVERT JUMPDEST PUSH1 0x0 DUP1 REVERT JUMPDEST PUSH1 0x0 DUP1 REVERT JUMPDEST PUSH1 0x0 DUP1 REVERT JUMPDEST PUSH1 0x0 DUP1 REVERT JUMPDEST PUSH1 0x0 DUP1 REVERT JUMPDEST PUSH1 0x0 DUP1 REVERT JUMPDEST PUSH1 0x0 PUSH1 0x1F NOT PUSH1 0x1F DUP4 ADD AND SWAP1 POP SWAP2 SWAP1 POP JUMP JUMPDEST PUSH32 0x526563697069656E7420697320616C7265616479207265676973746572656400 PUSH1 0x0 DUP3 ADD MSTORE POP JUMP JUMPDEST PUSH32 0x50726F706F73616C20616C726561647920637265617465642100000000000000 PUSH1 0x0 DUP3 ADD MSTORE POP JUMP JUMPDEST PUSH32 0x596F75206172656E277420617574686F72697A6520746F20636F6D70696C6520 PUSH1 0x0 DUP3 ADD MSTORE PUSH32 0x42756E646C650000000000000000000000000000000000000000000000000000 PUSH1 0x20 DUP3 ADD MSTORE POP JUMP JUMPDEST PUSH32 0x596F7520616C72656164792073656E74206120726573706F6E73652E00000000 PUSH1 0x0 DUP3 ADD MSTORE POP JUMP JUMPDEST PUSH32 0x496E69746961746F722063616E277420766F7465210000000000000000000000 PUSH1 0x0 DUP3 ADD MSTORE POP JUMP JUMPDEST PUSH32 0x596F7520617265206E6F74207265676973746572656420746F20766F74650000 PUSH1 0x0 DUP3 ADD MSTORE POP JUMP JUMPDEST PUSH32 0x50726F706F73616C206861732072656163686564206974732065787069727920 PUSH1 0x0 DUP3 ADD MSTORE PUSH32 0x6461746500000000000000000000000000000000000000000000000000000000 PUSH1 0x20 DUP3 ADD MSTORE POP JUMP JUMPDEST PUSH32 0x4F6E6C7920696E69746961746F722063616E2072656769737465722061207265 PUSH1 0x0 DUP3 ADD MSTORE PUSH32 0x63697069656E742E000000000000000000000000000000000000000000000000 PUSH1 0x20 DUP3 ADD MSTORE POP JUMP JUMPDEST PUSH32 0x596F75206172656E277420496E69746961746F72000000000000000000000000 PUSH1 0x0 DUP3 ADD MSTORE POP JUMP JUMPDEST PUSH32 0x5665726469637420686173206E6F74206265656E207265616368656420796574 PUSH1 0x0 DUP3 ADD MSTORE POP JUMP JUMPDEST PUSH32 0x566F74696E672068617320657870697265640000000000000000000000000000 PUSH1 0x0 DUP3 ADD MSTORE POP JUMP JUMPDEST PUSH32 0x436F6E73656E7375732068617320616C7265616479206265656E2063616C6375 PUSH1 0x0 DUP3 ADD MSTORE PUSH32 0x6C61746564000000000000000000000000000000000000000000000000000000 PUSH1 0x20 DUP3 ADD MSTORE POP JUMP JUMPDEST PUSH2 0x3AD8 DUP2 PUSH2 0x3603 JUMP JUMPDEST DUP2 EQ PUSH2 0x3AE3 JUMPI PUSH1 0x0 DUP1 REVERT JUMPDEST POP JUMP JUMPDEST PUSH2 0x3AEF DUP2 PUSH2 0x3621 JUMP JUMPDEST DUP2 EQ PUSH2 0x3AFA JUMPI PUSH1 0x0 DUP1 REVERT JUMPDEST POP JUMP JUMPDEST PUSH2 0x3B06 DUP2 PUSH2 0x364B JUMP JUMPDEST DUP2 EQ PUSH2 0x3B11 JUMPI PUSH1 0x0 DUP1 REVERT JUMPDEST POP JUMP INVALID LOG2 PUSH5 0x6970667358 0x22 SLT KECCAK256 CODECOPY MUL SGT PUSH16 0x688464AAC3DA15F66030FBCECF718F0F 0xDD SWAP15 REVERT 0x24 JUMP 0xD5 RETURNDATASIZE 0xD1 0xA5 0x27 0xE5 CALLDATASIZE PUSH5 0x736F6C6343 STOP ADDMOD SMOD STOP CALLER "
				},
				"gasEstimates": {
					"creation": {
						"codeDepositCost": "3035600",
						"executionCost": "3341",
						"totalCost": "3038941"
					},
					"external": {
						"Consensus(string)": "infinite",
						"IDs(string)": "infinite",
						"RegisterVoter(address,string)": "infinite",
						"Vote(string,string)": "infinite",
						"Voters(string,uint256)": "infinite",
						"businessProposals(string)": "infinite",
						"checkConsistency(string,uint256,uint256,bytes32)": "infinite",
						"contents(string)": "infinite",
						"createContract(string,uint256,uint256,bytes32,string,string)": "infinite",
						"expiryLengths(string)": "infinite",
						"finalVerdicts(string)": "infinite",
						"getIsCompiled(string)": "infinite",
						"getIsCreated(string)": "infinite",
						"initiators(string)": "infinite",
						"isCompiled(string)": "infinite",
						"keys(string,uint256)": "infinite",
						"messageDates(string)": "infinite",
						"numApprovals(string)": "infinite",
						"retrieve_bundle(string)": "infinite",
						"subjects(string)": "infinite",
						"voter_maps(string,address)": "infinite"
					}
				},
				"methodIdentifiers": {
					"Consensus(string)": "883a9673",
					"IDs(string)": "11c2b413",
					"RegisterVoter(address,string)": "3d63af0e",
					"Vote(string,string)": "17072d6b",
					"Voters(string,uint256)": "8f6a35b7",
					"businessProposals(string)": "089a4c60",
					"checkConsistency(string,uint256,uint256,bytes32)": "9d6a3125",
					"contents(string)": "a6acce35",
					"createContract(string,uint256,uint256,bytes32,string,string)": "7aa18f88",
					"expiryLengths(string)": "bb9a31f3",
					"finalVerdicts(string)": "233d0fa1",
					"getIsCompiled(string)": "ec548680",
					"getIsCreated(string)": "c9bc42ed",
					"initiators(string)": "e5c8d65f",
					"isCompiled(string)": "31189fe2",
					"keys(string,uint256)": "06699b01",
					"messageDates(string)": "8a3b0d02",
					"numApprovals(string)": "931da6b3",
					"retrieve_bundle(string)": "37f2e190",
					"subjects(string)": "fe290423",
					"voter_maps(string,address)": "33a0b0ab"
				}
			},
			"storageLayout": {
				"storage": [
					{
						"astId": 20,
						"contract": "contracts/BusinessConsensus3.sol:BusinessConsensus3",
						"label": "businessProposals",
						"offset": 0,
						"slot": "0",
						"type": "t_mapping(t_string_memory_ptr,t_struct(Proposal)15_storage)"
					},
					{
						"astId": 24,
						"contract": "contracts/BusinessConsensus3.sol:BusinessConsensus3",
						"label": "initiators",
						"offset": 0,
						"slot": "1",
						"type": "t_mapping(t_string_memory_ptr,t_address)"
					},
					{
						"astId": 28,
						"contract": "contracts/BusinessConsensus3.sol:BusinessConsensus3",
						"label": "IDs",
						"offset": 0,
						"slot": "2",
						"type": "t_mapping(t_string_memory_ptr,t_string_storage)"
					},
					{
						"astId": 32,
						"contract": "contracts/BusinessConsensus3.sol:BusinessConsensus3",
						"label": "expiryLengths",
						"offset": 0,
						"slot": "3",
						"type": "t_mapping(t_string_memory_ptr,t_uint256)"
					},
					{
						"astId": 36,
						"contract": "contracts/BusinessConsensus3.sol:BusinessConsensus3",
						"label": "contents",
						"offset": 0,
						"slot": "4",
						"type": "t_mapping(t_string_memory_ptr,t_bytes32)"
					},
					{
						"astId": 40,
						"contract": "contracts/BusinessConsensus3.sol:BusinessConsensus3",
						"label": "numApprovals",
						"offset": 0,
						"slot": "5",
						"type": "t_mapping(t_string_memory_ptr,t_uint256)"
					},
					{
						"astId": 44,
						"contract": "contracts/BusinessConsensus3.sol:BusinessConsensus3",
						"label": "messageDates",
						"offset": 0,
						"slot": "6",
						"type": "t_mapping(t_string_memory_ptr,t_string_storage)"
					},
					{
						"astId": 48,
						"contract": "contracts/BusinessConsensus3.sol:BusinessConsensus3",
						"label": "finalVerdicts",
						"offset": 0,
						"slot": "7",
						"type": "t_mapping(t_string_memory_ptr,t_bytes32)"
					},
					{
						"astId": 52,
						"contract": "contracts/BusinessConsensus3.sol:BusinessConsensus3",
						"label": "isCompiled",
						"offset": 0,
						"slot": "8",
						"type": "t_mapping(t_string_memory_ptr,t_bool)"
					},
					{
						"astId": 56,
						"contract": "contracts/BusinessConsensus3.sol:BusinessConsensus3",
						"label": "subjects",
						"offset": 0,
						"slot": "9",
						"type": "t_mapping(t_string_memory_ptr,t_string_storage)"
					},
					{
						"astId": 63,
						"contract": "contracts/BusinessConsensus3.sol:BusinessConsensus3",
						"label": "voter_maps",
						"offset": 0,
						"slot": "10",
						"type": "t_mapping(t_string_memory_ptr,t_mapping(t_address,t_struct(Voter)8_storage))"
					},
					{
						"astId": 69,
						"contract": "contracts/BusinessConsensus3.sol:BusinessConsensus3",
						"label": "Voters",
						"offset": 0,
						"slot": "11",
						"type": "t_mapping(t_string_memory_ptr,t_array(t_struct(Voter)8_storage)dyn_storage)"
					},
					{
						"astId": 74,
						"contract": "contracts/BusinessConsensus3.sol:BusinessConsensus3",
						"label": "keys",
						"offset": 0,
						"slot": "12",
						"type": "t_mapping(t_string_memory_ptr,t_array(t_address)dyn_storage)"
					}
				],
				"types": {
					"t_address": {
						"encoding": "inplace",
						"label": "address",
						"numberOfBytes": "20"
					},
					"t_array(t_address)dyn_storage": {
						"base": "t_address",
						"encoding": "dynamic_array",
						"label": "address[]",
						"numberOfBytes": "32"
					},
					"t_array(t_struct(Voter)8_storage)dyn_storage": {
						"base": "t_struct(Voter)8_storage",
						"encoding": "dynamic_array",
						"label": "struct BusinessConsensus3.Voter[]",
						"numberOfBytes": "32"
					},
					"t_bool": {
						"encoding": "inplace",
						"label": "bool",
						"numberOfBytes": "1"
					},
					"t_bytes32": {
						"encoding": "inplace",
						"label": "bytes32",
						"numberOfBytes": "32"
					},
					"t_mapping(t_address,t_struct(Voter)8_storage)": {
						"encoding": "mapping",
						"key": "t_address",
						"label": "mapping(address => struct BusinessConsensus3.Voter)",
						"numberOfBytes": "32",
						"value": "t_struct(Voter)8_storage"
					},
					"t_mapping(t_string_memory_ptr,t_address)": {
						"encoding": "mapping",
						"key": "t_string_memory_ptr",
						"label": "mapping(string => address)",
						"numberOfBytes": "32",
						"value": "t_address"
					},
					"t_mapping(t_string_memory_ptr,t_array(t_address)dyn_storage)": {
						"encoding": "mapping",
						"key": "t_string_memory_ptr",
						"label": "mapping(string => address[])",
						"numberOfBytes": "32",
						"value": "t_array(t_address)dyn_storage"
					},
					"t_mapping(t_string_memory_ptr,t_array(t_struct(Voter)8_storage)dyn_storage)": {
						"encoding": "mapping",
						"key": "t_string_memory_ptr",
						"label": "mapping(string => struct BusinessConsensus3.Voter[])",
						"numberOfBytes": "32",
						"value": "t_array(t_struct(Voter)8_storage)dyn_storage"
					},
					"t_mapping(t_string_memory_ptr,t_bool)": {
						"encoding": "mapping",
						"key": "t_string_memory_ptr",
						"label": "mapping(string => bool)",
						"numberOfBytes": "32",
						"value": "t_bool"
					},
					"t_mapping(t_string_memory_ptr,t_bytes32)": {
						"encoding": "mapping",
						"key": "t_string_memory_ptr",
						"label": "mapping(string => bytes32)",
						"numberOfBytes": "32",
						"value": "t_bytes32"
					},
					"t_mapping(t_string_memory_ptr,t_mapping(t_address,t_struct(Voter)8_storage))": {
						"encoding": "mapping",
						"key": "t_string_memory_ptr",
						"label": "mapping(string => mapping(address => struct BusinessConsensus3.Voter))",
						"numberOfBytes": "32",
						"value": "t_mapping(t_address,t_struct(Voter)8_storage)"
					},
					"t_mapping(t_string_memory_ptr,t_string_storage)": {
						"encoding": "mapping",
						"key": "t_string_memory_ptr",
						"label": "mapping(string => string)",
						"numberOfBytes": "32",
						"value": "t_string_storage"
					},
					"t_mapping(t_string_memory_ptr,t_struct(Proposal)15_storage)": {
						"encoding": "mapping",
						"key": "t_string_memory_ptr",
						"label": "mapping(string => struct BusinessConsensus3.Proposal)",
						"numberOfBytes": "32",
						"value": "t_struct(Proposal)15_storage"
					},
					"t_mapping(t_string_memory_ptr,t_uint256)": {
						"encoding": "mapping",
						"key": "t_string_memory_ptr",
						"label": "mapping(string => uint256)",
						"numberOfBytes": "32",
						"value": "t_uint256"
					},
					"t_string_memory_ptr": {
						"encoding": "bytes",
						"label": "string",
						"numberOfBytes": "32"
					},
					"t_string_storage": {
						"encoding": "bytes",
						"label": "string",
						"numberOfBytes": "32"
					},
					"t_struct(Proposal)15_storage": {
						"encoding": "inplace",
						"label": "struct BusinessConsensus3.Proposal",
						"members": [
							{
								"astId": 10,
								"contract": "contracts/BusinessConsensus3.sol:BusinessConsensus3",
								"label": "voteCount",
								"offset": 0,
								"slot": "0",
								"type": "t_uint256"
							},
							{
								"astId": 12,
								"contract": "contracts/BusinessConsensus3.sol:BusinessConsensus3",
								"label": "expiryDate",
								"offset": 0,
								"slot": "1",
								"type": "t_uint256"
							},
							{
								"astId": 14,
								"contract": "contracts/BusinessConsensus3.sol:BusinessConsensus3",
								"label": "BusinessRequirement",
								"offset": 0,
								"slot": "2",
								"type": "t_uint256"
							}
						],
						"numberOfBytes": "96"
					},
					"t_struct(Voter)8_storage": {
						"encoding": "inplace",
						"label": "struct BusinessConsensus3.Voter",
						"members": [
							{
								"astId": 3,
								"contract": "contracts/BusinessConsensus3.sol:BusinessConsensus3",
								"label": "voted",
								"offset": 0,
								"slot": "0",
								"type": "t_bool"
							},
							{
								"astId": 5,
								"contract": "contracts/BusinessConsensus3.sol:BusinessConsensus3",
								"label": "vote",
								"offset": 1,
								"slot": "0",
								"type": "t_bool"
							},
							{
								"astId": 7,
								"contract": "contracts/BusinessConsensus3.sol:BusinessConsensus3",
								"label": "recipient",
								"offset": 2,
								"slot": "0",
								"type": "t_address"
							}
						],
						"numberOfBytes": "32"
					},
					"t_uint256": {
						"encoding": "inplace",
						"label": "uint256",
						"numberOfBytes": "32"
					}
				}
			},
			"userdoc": {
				"kind": "user",
				"methods": {
					"Consensus(string)": {
						"notice": "compile all relevant information into a Bundle"
					}
				},
				"version": 1
			}
		}
	}
}