{
	"contracts/BusinessConsensus.sol": {
		"BusinessConsensus": {
			"abi": [
				{
					"inputs": [
						{
							"internalType": "string",
							"name": "_messageID",
							"type": "string"
						},
						{
							"internalType": "uint256",
							"name": "expiry",
							"type": "uint256"
						},
						{
							"internalType": "uint256",
							"name": "requiredPercentage",
							"type": "uint256"
						}
					],
					"stateMutability": "nonpayable",
					"type": "constructor"
				},
				{
					"anonymous": false,
					"inputs": [],
					"name": "votingCompleted",
					"type": "event"
				},
				{
					"inputs": [],
					"name": "AccumulatedPercentage",
					"outputs": [
						{
							"internalType": "uint256",
							"name": "",
							"type": "uint256"
						}
					],
					"stateMutability": "view",
					"type": "function"
				},
				{
					"inputs": [],
					"name": "BusinessRequirement",
					"outputs": [
						{
							"internalType": "uint256",
							"name": "",
							"type": "uint256"
						}
					],
					"stateMutability": "view",
					"type": "function"
				},
				{
					"inputs": [],
					"name": "Consensus",
					"outputs": [],
					"stateMutability": "nonpayable",
					"type": "function"
				},
				{
					"inputs": [
						{
							"internalType": "address",
							"name": "voter",
							"type": "address"
						}
					],
					"name": "RegisterVoter",
					"outputs": [],
					"stateMutability": "nonpayable",
					"type": "function"
				},
				{
					"inputs": [
						{
							"internalType": "string",
							"name": "response",
							"type": "string"
						}
					],
					"name": "Vote",
					"outputs": [],
					"stateMutability": "nonpayable",
					"type": "function"
				},
				{
					"inputs": [],
					"name": "bundle",
					"outputs": [
						{
							"internalType": "string",
							"name": "Verdict",
							"type": "string"
						},
						{
							"components": [
								{
									"internalType": "uint256",
									"name": "voteCount",
									"type": "uint256"
								},
								{
									"internalType": "string",
									"name": "messageID",
									"type": "string"
								}
							],
							"internalType": "struct BusinessConsensus.Proposal",
							"name": "businessProposal",
							"type": "tuple"
						}
					],
					"stateMutability": "view",
					"type": "function"
				},
				{
					"inputs": [],
					"name": "contractAddress",
					"outputs": [
						{
							"internalType": "address",
							"name": "",
							"type": "address"
						}
					],
					"stateMutability": "view",
					"type": "function"
				},
				{
					"inputs": [],
					"name": "getParameters",
					"outputs": [
						{
							"internalType": "string",
							"name": "",
							"type": "string"
						},
						{
							"internalType": "uint256",
							"name": "",
							"type": "uint256"
						},
						{
							"internalType": "address",
							"name": "",
							"type": "address"
						},
						{
							"internalType": "uint256",
							"name": "",
							"type": "uint256"
						},
						{
							"internalType": "uint256",
							"name": "",
							"type": "uint256"
						}
					],
					"stateMutability": "view",
					"type": "function"
				},
				{
					"inputs": [
						{
							"internalType": "address",
							"name": "test_address",
							"type": "address"
						}
					],
					"name": "getParameters2",
					"outputs": [
						{
							"internalType": "bool",
							"name": "",
							"type": "bool"
						},
						{
							"internalType": "bool",
							"name": "",
							"type": "bool"
						},
						{
							"internalType": "address",
							"name": "",
							"type": "address"
						}
					],
					"stateMutability": "view",
					"type": "function"
				},
				{
					"inputs": [],
					"name": "getValues",
					"outputs": [
						{
							"internalType": "string",
							"name": "",
							"type": "string"
						}
					],
					"stateMutability": "view",
					"type": "function"
				},
				{
					"inputs": [],
					"name": "initiator",
					"outputs": [
						{
							"internalType": "address",
							"name": "",
							"type": "address"
						}
					],
					"stateMutability": "view",
					"type": "function"
				},
				{
					"inputs": [
						{
							"internalType": "uint256",
							"name": "",
							"type": "uint256"
						}
					],
					"name": "keys",
					"outputs": [
						{
							"internalType": "address",
							"name": "",
							"type": "address"
						}
					],
					"stateMutability": "view",
					"type": "function"
				},
				{
					"inputs": [],
					"name": "numApprovals",
					"outputs": [
						{
							"internalType": "uint256",
							"name": "",
							"type": "uint256"
						}
					],
					"stateMutability": "view",
					"type": "function"
				},
				{
					"inputs": [],
					"name": "numberCompiled",
					"outputs": [
						{
							"internalType": "uint256",
							"name": "",
							"type": "uint256"
						}
					],
					"stateMutability": "view",
					"type": "function"
				},
				{
					"inputs": [],
					"name": "proposal",
					"outputs": [
						{
							"internalType": "uint256",
							"name": "voteCount",
							"type": "uint256"
						},
						{
							"internalType": "string",
							"name": "messageID",
							"type": "string"
						}
					],
					"stateMutability": "view",
					"type": "function"
				},
				{
					"inputs": [],
					"name": "retrieve_bundle",
					"outputs": [
						{
							"components": [
								{
									"internalType": "string",
									"name": "Verdict",
									"type": "string"
								},
								{
									"components": [
										{
											"internalType": "uint256",
											"name": "voteCount",
											"type": "uint256"
										},
										{
											"internalType": "string",
											"name": "messageID",
											"type": "string"
										}
									],
									"internalType": "struct BusinessConsensus.Proposal",
									"name": "businessProposal",
									"type": "tuple"
								},
								{
									"components": [
										{
											"internalType": "bool",
											"name": "voted",
											"type": "bool"
										},
										{
											"internalType": "address",
											"name": "recipient",
											"type": "address"
										},
										{
											"internalType": "bool",
											"name": "vote",
											"type": "bool"
										}
									],
									"internalType": "struct BusinessConsensus.Voter[]",
									"name": "votersList",
									"type": "tuple[]"
								}
							],
							"internalType": "struct BusinessConsensus.Bundle",
							"name": "",
							"type": "tuple"
						}
					],
					"stateMutability": "view",
					"type": "function"
				},
				{
					"inputs": [
						{
							"internalType": "uint256",
							"name": "",
							"type": "uint256"
						}
					],
					"name": "voters",
					"outputs": [
						{
							"internalType": "bool",
							"name": "voted",
							"type": "bool"
						},
						{
							"internalType": "address",
							"name": "recipient",
							"type": "address"
						},
						{
							"internalType": "bool",
							"name": "vote",
							"type": "bool"
						}
					],
					"stateMutability": "view",
					"type": "function"
				},
				{
					"inputs": [
						{
							"internalType": "address",
							"name": "",
							"type": "address"
						}
					],
					"name": "voters_map",
					"outputs": [
						{
							"internalType": "bool",
							"name": "voted",
							"type": "bool"
						},
						{
							"internalType": "address",
							"name": "recipient",
							"type": "address"
						},
						{
							"internalType": "bool",
							"name": "vote",
							"type": "bool"
						}
					],
					"stateMutability": "view",
					"type": "function"
				}
			],
			"devdoc": {
				"kind": "dev",
				"methods": {},
				"version": 1
			},
			"evm": {
				"assembly": "    /* \"contracts/BusinessConsensus.sol\":33:5189  contract BusinessConsensus{... */\n  mstore(0x40, 0x80)\n    /* \"contracts/BusinessConsensus.sol\":1401:1961  constructor(string memory _messageID, uint expiry, uint requiredPercentage) {... */\n  callvalue\n  dup1\n  iszero\n  tag_1\n  jumpi\n  0x00\n  dup1\n  revert\ntag_1:\n  pop\n  mload(0x40)\n  sub(codesize, bytecodeSize)\n  dup1\n  bytecodeSize\n  dup4\n  codecopy\n  dup2\n  dup2\n  add\n  0x40\n  mstore\n  dup2\n  add\n  swap1\n  tag_2\n  swap2\n  swap1\n  tag_3\n  jump\t// in\ntag_2:\n    /* \"contracts/BusinessConsensus.sol\":1500:1510  msg.sender */\n  caller\n    /* \"contracts/BusinessConsensus.sol\":1488:1497  initiator */\n  0x03\n  0x00\n    /* \"contracts/BusinessConsensus.sol\":1488:1510  initiator = msg.sender */\n  0x0100\n  exp\n  dup2\n  sload\n  dup2\n  0xffffffffffffffffffffffffffffffffffffffff\n  mul\n  not\n  and\n  swap1\n  dup4\n  0xffffffffffffffffffffffffffffffffffffffff\n  and\n  mul\n  or\n  swap1\n  sstore\n  pop\n    /* \"contracts/BusinessConsensus.sol\":1552:1558  expiry */\n  dup2\n    /* \"contracts/BusinessConsensus.sol\":1534:1549  block.timestamp */\n  timestamp\n    /* \"contracts/BusinessConsensus.sol\":1534:1558  block.timestamp + expiry */\n  tag_6\n  swap2\n  swap1\n  tag_7\n  jump\t// in\ntag_6:\n    /* \"contracts/BusinessConsensus.sol\":1521:1531  expiryDate */\n  0x01\n    /* \"contracts/BusinessConsensus.sol\":1521:1558  expiryDate = block.timestamp + expiry */\n  dup2\n  swap1\n  sstore\n  pop\n    /* \"contracts/BusinessConsensus.sol\":1591:1609  requiredPercentage */\n  dup1\n    /* \"contracts/BusinessConsensus.sol\":1569:1588  BusinessRequirement */\n  0x04\n    /* \"contracts/BusinessConsensus.sol\":1569:1609  BusinessRequirement = requiredPercentage */\n  dup2\n  swap1\n  sstore\n  pop\n    /* \"contracts/BusinessConsensus.sol\":1644:1645  0 */\n  0x00\n    /* \"contracts/BusinessConsensus.sol\":1620:1641  AccumulatedPercentage */\n  0x05\n    /* \"contracts/BusinessConsensus.sol\":1620:1645  AccumulatedPercentage = 0 */\n  dup2\n  swap1\n  sstore\n  pop\n    /* \"contracts/BusinessConsensus.sol\":1671:1672  0 */\n  0x00\n    /* \"contracts/BusinessConsensus.sol\":1656:1668  numApprovals */\n  0x06\n    /* \"contracts/BusinessConsensus.sol\":1656:1672  numApprovals = 0 */\n  dup2\n  swap1\n  sstore\n  pop\n    /* \"contracts/BusinessConsensus.sol\":1683:1708  finalVerdict = \"Rejected\" */\n  mload(0x40)\n  dup1\n  0x40\n  add\n  0x40\n  mstore\n  dup1\n  0x08\n  dup2\n  mstore\n  0x20\n  add\n  0x52656a6563746564000000000000000000000000000000000000000000000000\n  dup2\n  mstore\n  pop\n    /* \"contracts/BusinessConsensus.sol\":1683:1695  finalVerdict */\n  0x02\n    /* \"contracts/BusinessConsensus.sol\":1683:1708  finalVerdict = \"Rejected\" */\n  swap1\n  dup2\n  tag_8\n  swap2\n  swap1\n  tag_9\n  jump\t// in\ntag_8:\n  pop\n    /* \"contracts/BusinessConsensus.sol\":1745:1749  this */\n  address\n    /* \"contracts/BusinessConsensus.sol\":1719:1734  contractAddress */\n  0x00\n  dup1\n    /* \"contracts/BusinessConsensus.sol\":1719:1750  contractAddress = address(this) */\n  0x0100\n  exp\n  dup2\n  sload\n  dup2\n  0xffffffffffffffffffffffffffffffffffffffff\n  mul\n  not\n  and\n  swap1\n  dup4\n  0xffffffffffffffffffffffffffffffffffffffff\n  and\n  mul\n  or\n  swap1\n  sstore\n  pop\n    /* \"contracts/BusinessConsensus.sol\":1857:1953  Proposal({... */\n  mload(0x40)\n  dup1\n  0x40\n  add\n  0x40\n  mstore\n  dup1\n    /* \"contracts/BusinessConsensus.sol\":1896:1897  0 */\n  0x00\n    /* \"contracts/BusinessConsensus.sol\":1857:1953  Proposal({... */\n  dup2\n  mstore\n  0x20\n  add\n    /* \"contracts/BusinessConsensus.sol\":1927:1937  _messageID */\n  dup5\n    /* \"contracts/BusinessConsensus.sol\":1857:1953  Proposal({... */\n  dup2\n  mstore\n  pop\n    /* \"contracts/BusinessConsensus.sol\":1846:1854  proposal */\n  0x0b\n    /* \"contracts/BusinessConsensus.sol\":1846:1953  proposal = Proposal({... */\n  0x00\n  dup3\n  add\n  mload\n  dup2\n  0x00\n  add\n  sstore\n  0x20\n  dup3\n  add\n  mload\n  dup2\n  0x01\n  add\n  swap1\n  dup2\n  tag_10\n  swap2\n  swap1\n  tag_9\n  jump\t// in\ntag_10:\n  pop\n  swap1\n  pop\n  pop\n    /* \"contracts/BusinessConsensus.sol\":1401:1961  constructor(string memory _messageID, uint expiry, uint requiredPercentage) {... */\n  pop\n  pop\n  pop\n    /* \"contracts/BusinessConsensus.sol\":33:5189  contract BusinessConsensus{... */\n  jump(tag_11)\n    /* \"#utility.yul\":7:82   */\ntag_12:\n    /* \"#utility.yul\":40:46   */\n  0x00\n    /* \"#utility.yul\":73:75   */\n  0x40\n    /* \"#utility.yul\":67:76   */\n  mload\n    /* \"#utility.yul\":57:76   */\n  swap1\n  pop\n    /* \"#utility.yul\":7:82   */\n  swap1\n  jump\t// out\n    /* \"#utility.yul\":88:205   */\ntag_13:\n    /* \"#utility.yul\":197:198   */\n  0x00\n    /* \"#utility.yul\":194:195   */\n  dup1\n    /* \"#utility.yul\":187:199   */\n  revert\n    /* \"#utility.yul\":211:328   */\ntag_14:\n    /* \"#utility.yul\":320:321   */\n  0x00\n    /* \"#utility.yul\":317:318   */\n  dup1\n    /* \"#utility.yul\":310:322   */\n  revert\n    /* \"#utility.yul\":334:451   */\ntag_15:\n    /* \"#utility.yul\":443:444   */\n  0x00\n    /* \"#utility.yul\":440:441   */\n  dup1\n    /* \"#utility.yul\":433:445   */\n  revert\n    /* \"#utility.yul\":457:574   */\ntag_16:\n    /* \"#utility.yul\":566:567   */\n  0x00\n    /* \"#utility.yul\":563:564   */\n  dup1\n    /* \"#utility.yul\":556:568   */\n  revert\n    /* \"#utility.yul\":580:682   */\ntag_17:\n    /* \"#utility.yul\":621:627   */\n  0x00\n    /* \"#utility.yul\":672:674   */\n  0x1f\n    /* \"#utility.yul\":668:675   */\n  not\n    /* \"#utility.yul\":663:665   */\n  0x1f\n    /* \"#utility.yul\":656:661   */\n  dup4\n    /* \"#utility.yul\":652:666   */\n  add\n    /* \"#utility.yul\":648:676   */\n  and\n    /* \"#utility.yul\":638:676   */\n  swap1\n  pop\n    /* \"#utility.yul\":580:682   */\n  swap2\n  swap1\n  pop\n  jump\t// out\n    /* \"#utility.yul\":688:868   */\ntag_18:\n    /* \"#utility.yul\":736:813   */\n  0x4e487b7100000000000000000000000000000000000000000000000000000000\n    /* \"#utility.yul\":733:734   */\n  0x00\n    /* \"#utility.yul\":726:814   */\n  mstore\n    /* \"#utility.yul\":833:837   */\n  0x41\n    /* \"#utility.yul\":830:831   */\n  0x04\n    /* \"#utility.yul\":823:838   */\n  mstore\n    /* \"#utility.yul\":857:861   */\n  0x24\n    /* \"#utility.yul\":854:855   */\n  0x00\n    /* \"#utility.yul\":847:862   */\n  revert\n    /* \"#utility.yul\":874:1155   */\ntag_19:\n    /* \"#utility.yul\":957:984   */\n  tag_56\n    /* \"#utility.yul\":979:983   */\n  dup3\n    /* \"#utility.yul\":957:984   */\n  tag_17\n  jump\t// in\ntag_56:\n    /* \"#utility.yul\":949:955   */\n  dup2\n    /* \"#utility.yul\":945:985   */\n  add\n    /* \"#utility.yul\":1087:1093   */\n  dup2\n    /* \"#utility.yul\":1075:1085   */\n  dup2\n    /* \"#utility.yul\":1072:1094   */\n  lt\n    /* \"#utility.yul\":1051:1069   */\n  0xffffffffffffffff\n    /* \"#utility.yul\":1039:1049   */\n  dup3\n    /* \"#utility.yul\":1036:1070   */\n  gt\n    /* \"#utility.yul\":1033:1095   */\n  or\n    /* \"#utility.yul\":1030:1118   */\n  iszero\n  tag_57\n  jumpi\n    /* \"#utility.yul\":1098:1116   */\n  tag_58\n  tag_18\n  jump\t// in\ntag_58:\n    /* \"#utility.yul\":1030:1118   */\ntag_57:\n    /* \"#utility.yul\":1138:1148   */\n  dup1\n    /* \"#utility.yul\":1134:1136   */\n  0x40\n    /* \"#utility.yul\":1127:1149   */\n  mstore\n    /* \"#utility.yul\":917:1155   */\n  pop\n    /* \"#utility.yul\":874:1155   */\n  pop\n  pop\n  jump\t// out\n    /* \"#utility.yul\":1161:1290   */\ntag_20:\n    /* \"#utility.yul\":1195:1201   */\n  0x00\n    /* \"#utility.yul\":1222:1242   */\n  tag_60\n  tag_12\n  jump\t// in\ntag_60:\n    /* \"#utility.yul\":1212:1242   */\n  swap1\n  pop\n    /* \"#utility.yul\":1251:1284   */\n  tag_61\n    /* \"#utility.yul\":1279:1283   */\n  dup3\n    /* \"#utility.yul\":1271:1277   */\n  dup3\n    /* \"#utility.yul\":1251:1284   */\n  tag_19\n  jump\t// in\ntag_61:\n    /* \"#utility.yul\":1161:1290   */\n  swap2\n  swap1\n  pop\n  jump\t// out\n    /* \"#utility.yul\":1296:1604   */\ntag_21:\n    /* \"#utility.yul\":1358:1362   */\n  0x00\n    /* \"#utility.yul\":1448:1466   */\n  0xffffffffffffffff\n    /* \"#utility.yul\":1440:1446   */\n  dup3\n    /* \"#utility.yul\":1437:1467   */\n  gt\n    /* \"#utility.yul\":1434:1490   */\n  iszero\n  tag_63\n  jumpi\n    /* \"#utility.yul\":1470:1488   */\n  tag_64\n  tag_18\n  jump\t// in\ntag_64:\n    /* \"#utility.yul\":1434:1490   */\ntag_63:\n    /* \"#utility.yul\":1508:1537   */\n  tag_65\n    /* \"#utility.yul\":1530:1536   */\n  dup3\n    /* \"#utility.yul\":1508:1537   */\n  tag_17\n  jump\t// in\ntag_65:\n    /* \"#utility.yul\":1500:1537   */\n  swap1\n  pop\n    /* \"#utility.yul\":1592:1596   */\n  0x20\n    /* \"#utility.yul\":1586:1590   */\n  dup2\n    /* \"#utility.yul\":1582:1597   */\n  add\n    /* \"#utility.yul\":1574:1597   */\n  swap1\n  pop\n    /* \"#utility.yul\":1296:1604   */\n  swap2\n  swap1\n  pop\n  jump\t// out\n    /* \"#utility.yul\":1610:1917   */\ntag_22:\n    /* \"#utility.yul\":1678:1679   */\n  0x00\n    /* \"#utility.yul\":1688:1801   */\ntag_67:\n    /* \"#utility.yul\":1702:1708   */\n  dup4\n    /* \"#utility.yul\":1699:1700   */\n  dup2\n    /* \"#utility.yul\":1696:1709   */\n  lt\n    /* \"#utility.yul\":1688:1801   */\n  iszero\n  tag_69\n  jumpi\n    /* \"#utility.yul\":1787:1788   */\n  dup1\n    /* \"#utility.yul\":1782:1785   */\n  dup3\n    /* \"#utility.yul\":1778:1789   */\n  add\n    /* \"#utility.yul\":1772:1790   */\n  mload\n    /* \"#utility.yul\":1768:1769   */\n  dup2\n    /* \"#utility.yul\":1763:1766   */\n  dup5\n    /* \"#utility.yul\":1759:1770   */\n  add\n    /* \"#utility.yul\":1752:1791   */\n  mstore\n    /* \"#utility.yul\":1724:1726   */\n  0x20\n    /* \"#utility.yul\":1721:1722   */\n  dup2\n    /* \"#utility.yul\":1717:1727   */\n  add\n    /* \"#utility.yul\":1712:1727   */\n  swap1\n  pop\n    /* \"#utility.yul\":1688:1801   */\n  jump(tag_67)\ntag_69:\n    /* \"#utility.yul\":1819:1825   */\n  dup4\n    /* \"#utility.yul\":1816:1817   */\n  dup2\n    /* \"#utility.yul\":1813:1826   */\n  gt\n    /* \"#utility.yul\":1810:1911   */\n  iszero\n  tag_70\n  jumpi\n    /* \"#utility.yul\":1899:1900   */\n  0x00\n    /* \"#utility.yul\":1890:1896   */\n  dup5\n    /* \"#utility.yul\":1885:1888   */\n  dup5\n    /* \"#utility.yul\":1881:1897   */\n  add\n    /* \"#utility.yul\":1874:1901   */\n  mstore\n    /* \"#utility.yul\":1810:1911   */\ntag_70:\n    /* \"#utility.yul\":1659:1917   */\n  pop\n    /* \"#utility.yul\":1610:1917   */\n  pop\n  pop\n  pop\n  jump\t// out\n    /* \"#utility.yul\":1923:2344   */\ntag_23:\n    /* \"#utility.yul\":2012:2017   */\n  0x00\n    /* \"#utility.yul\":2037:2103   */\n  tag_72\n    /* \"#utility.yul\":2053:2102   */\n  tag_73\n    /* \"#utility.yul\":2095:2101   */\n  dup5\n    /* \"#utility.yul\":2053:2102   */\n  tag_21\n  jump\t// in\ntag_73:\n    /* \"#utility.yul\":2037:2103   */\n  tag_20\n  jump\t// in\ntag_72:\n    /* \"#utility.yul\":2028:2103   */\n  swap1\n  pop\n    /* \"#utility.yul\":2126:2132   */\n  dup3\n    /* \"#utility.yul\":2119:2124   */\n  dup2\n    /* \"#utility.yul\":2112:2133   */\n  mstore\n    /* \"#utility.yul\":2164:2168   */\n  0x20\n    /* \"#utility.yul\":2157:2162   */\n  dup2\n    /* \"#utility.yul\":2153:2169   */\n  add\n    /* \"#utility.yul\":2202:2205   */\n  dup5\n    /* \"#utility.yul\":2193:2199   */\n  dup5\n    /* \"#utility.yul\":2188:2191   */\n  dup5\n    /* \"#utility.yul\":2184:2200   */\n  add\n    /* \"#utility.yul\":2181:2206   */\n  gt\n    /* \"#utility.yul\":2178:2290   */\n  iszero\n  tag_74\n  jumpi\n    /* \"#utility.yul\":2209:2288   */\n  tag_75\n  tag_16\n  jump\t// in\ntag_75:\n    /* \"#utility.yul\":2178:2290   */\ntag_74:\n    /* \"#utility.yul\":2299:2338   */\n  tag_76\n    /* \"#utility.yul\":2331:2337   */\n  dup5\n    /* \"#utility.yul\":2326:2329   */\n  dup3\n    /* \"#utility.yul\":2321:2324   */\n  dup6\n    /* \"#utility.yul\":2299:2338   */\n  tag_22\n  jump\t// in\ntag_76:\n    /* \"#utility.yul\":2018:2344   */\n  pop\n    /* \"#utility.yul\":1923:2344   */\n  swap4\n  swap3\n  pop\n  pop\n  pop\n  jump\t// out\n    /* \"#utility.yul\":2364:2719   */\ntag_24:\n    /* \"#utility.yul\":2431:2436   */\n  0x00\n    /* \"#utility.yul\":2480:2483   */\n  dup3\n    /* \"#utility.yul\":2473:2477   */\n  0x1f\n    /* \"#utility.yul\":2465:2471   */\n  dup4\n    /* \"#utility.yul\":2461:2478   */\n  add\n    /* \"#utility.yul\":2457:2484   */\n  slt\n    /* \"#utility.yul\":2447:2569   */\n  tag_78\n  jumpi\n    /* \"#utility.yul\":2488:2567   */\n  tag_79\n  tag_15\n  jump\t// in\ntag_79:\n    /* \"#utility.yul\":2447:2569   */\ntag_78:\n    /* \"#utility.yul\":2598:2604   */\n  dup2\n    /* \"#utility.yul\":2592:2605   */\n  mload\n    /* \"#utility.yul\":2623:2713   */\n  tag_80\n    /* \"#utility.yul\":2709:2712   */\n  dup5\n    /* \"#utility.yul\":2701:2707   */\n  dup3\n    /* \"#utility.yul\":2694:2698   */\n  0x20\n    /* \"#utility.yul\":2686:2692   */\n  dup7\n    /* \"#utility.yul\":2682:2699   */\n  add\n    /* \"#utility.yul\":2623:2713   */\n  tag_23\n  jump\t// in\ntag_80:\n    /* \"#utility.yul\":2614:2713   */\n  swap2\n  pop\n    /* \"#utility.yul\":2437:2719   */\n  pop\n    /* \"#utility.yul\":2364:2719   */\n  swap3\n  swap2\n  pop\n  pop\n  jump\t// out\n    /* \"#utility.yul\":2725:2802   */\ntag_25:\n    /* \"#utility.yul\":2762:2769   */\n  0x00\n    /* \"#utility.yul\":2791:2796   */\n  dup2\n    /* \"#utility.yul\":2780:2796   */\n  swap1\n  pop\n    /* \"#utility.yul\":2725:2802   */\n  swap2\n  swap1\n  pop\n  jump\t// out\n    /* \"#utility.yul\":2808:2930   */\ntag_26:\n    /* \"#utility.yul\":2881:2905   */\n  tag_83\n    /* \"#utility.yul\":2899:2904   */\n  dup2\n    /* \"#utility.yul\":2881:2905   */\n  tag_25\n  jump\t// in\ntag_83:\n    /* \"#utility.yul\":2874:2879   */\n  dup2\n    /* \"#utility.yul\":2871:2906   */\n  eq\n    /* \"#utility.yul\":2861:2924   */\n  tag_84\n  jumpi\n    /* \"#utility.yul\":2920:2921   */\n  0x00\n    /* \"#utility.yul\":2917:2918   */\n  dup1\n    /* \"#utility.yul\":2910:2922   */\n  revert\n    /* \"#utility.yul\":2861:2924   */\ntag_84:\n    /* \"#utility.yul\":2808:2930   */\n  pop\n  jump\t// out\n    /* \"#utility.yul\":2936:3079   */\ntag_27:\n    /* \"#utility.yul\":2993:2998   */\n  0x00\n    /* \"#utility.yul\":3024:3030   */\n  dup2\n    /* \"#utility.yul\":3018:3031   */\n  mload\n    /* \"#utility.yul\":3009:3031   */\n  swap1\n  pop\n    /* \"#utility.yul\":3040:3073   */\n  tag_86\n    /* \"#utility.yul\":3067:3072   */\n  dup2\n    /* \"#utility.yul\":3040:3073   */\n  tag_26\n  jump\t// in\ntag_86:\n    /* \"#utility.yul\":2936:3079   */\n  swap3\n  swap2\n  pop\n  pop\n  jump\t// out\n    /* \"#utility.yul\":3085:3921   */\ntag_3:\n    /* \"#utility.yul\":3183:3189   */\n  0x00\n    /* \"#utility.yul\":3191:3197   */\n  dup1\n    /* \"#utility.yul\":3199:3205   */\n  0x00\n    /* \"#utility.yul\":3248:3250   */\n  0x60\n    /* \"#utility.yul\":3236:3245   */\n  dup5\n    /* \"#utility.yul\":3227:3234   */\n  dup7\n    /* \"#utility.yul\":3223:3246   */\n  sub\n    /* \"#utility.yul\":3219:3251   */\n  slt\n    /* \"#utility.yul\":3216:3335   */\n  iszero\n  tag_88\n  jumpi\n    /* \"#utility.yul\":3254:3333   */\n  tag_89\n  tag_13\n  jump\t// in\ntag_89:\n    /* \"#utility.yul\":3216:3335   */\ntag_88:\n    /* \"#utility.yul\":3395:3396   */\n  0x00\n    /* \"#utility.yul\":3384:3393   */\n  dup5\n    /* \"#utility.yul\":3380:3397   */\n  add\n    /* \"#utility.yul\":3374:3398   */\n  mload\n    /* \"#utility.yul\":3425:3443   */\n  0xffffffffffffffff\n    /* \"#utility.yul\":3417:3423   */\n  dup2\n    /* \"#utility.yul\":3414:3444   */\n  gt\n    /* \"#utility.yul\":3411:3528   */\n  iszero\n  tag_90\n  jumpi\n    /* \"#utility.yul\":3447:3526   */\n  tag_91\n  tag_14\n  jump\t// in\ntag_91:\n    /* \"#utility.yul\":3411:3528   */\ntag_90:\n    /* \"#utility.yul\":3552:3626   */\n  tag_92\n    /* \"#utility.yul\":3618:3625   */\n  dup7\n    /* \"#utility.yul\":3609:3615   */\n  dup3\n    /* \"#utility.yul\":3598:3607   */\n  dup8\n    /* \"#utility.yul\":3594:3616   */\n  add\n    /* \"#utility.yul\":3552:3626   */\n  tag_24\n  jump\t// in\ntag_92:\n    /* \"#utility.yul\":3542:3626   */\n  swap4\n  pop\n    /* \"#utility.yul\":3345:3636   */\n  pop\n    /* \"#utility.yul\":3675:3677   */\n  0x20\n    /* \"#utility.yul\":3701:3765   */\n  tag_93\n    /* \"#utility.yul\":3757:3764   */\n  dup7\n    /* \"#utility.yul\":3748:3754   */\n  dup3\n    /* \"#utility.yul\":3737:3746   */\n  dup8\n    /* \"#utility.yul\":3733:3755   */\n  add\n    /* \"#utility.yul\":3701:3765   */\n  tag_27\n  jump\t// in\ntag_93:\n    /* \"#utility.yul\":3691:3765   */\n  swap3\n  pop\n    /* \"#utility.yul\":3646:3775   */\n  pop\n    /* \"#utility.yul\":3814:3816   */\n  0x40\n    /* \"#utility.yul\":3840:3904   */\n  tag_94\n    /* \"#utility.yul\":3896:3903   */\n  dup7\n    /* \"#utility.yul\":3887:3893   */\n  dup3\n    /* \"#utility.yul\":3876:3885   */\n  dup8\n    /* \"#utility.yul\":3872:3894   */\n  add\n    /* \"#utility.yul\":3840:3904   */\n  tag_27\n  jump\t// in\ntag_94:\n    /* \"#utility.yul\":3830:3904   */\n  swap2\n  pop\n    /* \"#utility.yul\":3785:3914   */\n  pop\n    /* \"#utility.yul\":3085:3921   */\n  swap3\n  pop\n  swap3\n  pop\n  swap3\n  jump\t// out\n    /* \"#utility.yul\":3927:4107   */\ntag_28:\n    /* \"#utility.yul\":3975:4052   */\n  0x4e487b7100000000000000000000000000000000000000000000000000000000\n    /* \"#utility.yul\":3972:3973   */\n  0x00\n    /* \"#utility.yul\":3965:4053   */\n  mstore\n    /* \"#utility.yul\":4072:4076   */\n  0x11\n    /* \"#utility.yul\":4069:4070   */\n  0x04\n    /* \"#utility.yul\":4062:4077   */\n  mstore\n    /* \"#utility.yul\":4096:4100   */\n  0x24\n    /* \"#utility.yul\":4093:4094   */\n  0x00\n    /* \"#utility.yul\":4086:4101   */\n  revert\n    /* \"#utility.yul\":4113:4418   */\ntag_7:\n    /* \"#utility.yul\":4153:4156   */\n  0x00\n    /* \"#utility.yul\":4172:4192   */\n  tag_97\n    /* \"#utility.yul\":4190:4191   */\n  dup3\n    /* \"#utility.yul\":4172:4192   */\n  tag_25\n  jump\t// in\ntag_97:\n    /* \"#utility.yul\":4167:4192   */\n  swap2\n  pop\n    /* \"#utility.yul\":4206:4226   */\n  tag_98\n    /* \"#utility.yul\":4224:4225   */\n  dup4\n    /* \"#utility.yul\":4206:4226   */\n  tag_25\n  jump\t// in\ntag_98:\n    /* \"#utility.yul\":4201:4226   */\n  swap3\n  pop\n    /* \"#utility.yul\":4360:4361   */\n  dup3\n    /* \"#utility.yul\":4292:4358   */\n  0xffffffffffffffffffffffffffffffffffffffffffffffffffffffffffffffff\n    /* \"#utility.yul\":4288:4362   */\n  sub\n    /* \"#utility.yul\":4285:4286   */\n  dup3\n    /* \"#utility.yul\":4282:4363   */\n  gt\n    /* \"#utility.yul\":4279:4386   */\n  iszero\n  tag_99\n  jumpi\n    /* \"#utility.yul\":4366:4384   */\n  tag_100\n  tag_28\n  jump\t// in\ntag_100:\n    /* \"#utility.yul\":4279:4386   */\ntag_99:\n    /* \"#utility.yul\":4410:4411   */\n  dup3\n    /* \"#utility.yul\":4407:4408   */\n  dup3\n    /* \"#utility.yul\":4403:4412   */\n  add\n    /* \"#utility.yul\":4396:4412   */\n  swap1\n  pop\n    /* \"#utility.yul\":4113:4418   */\n  swap3\n  swap2\n  pop\n  pop\n  jump\t// out\n    /* \"#utility.yul\":4424:4523   */\ntag_29:\n    /* \"#utility.yul\":4476:4482   */\n  0x00\n    /* \"#utility.yul\":4510:4515   */\n  dup2\n    /* \"#utility.yul\":4504:4516   */\n  mload\n    /* \"#utility.yul\":4494:4516   */\n  swap1\n  pop\n    /* \"#utility.yul\":4424:4523   */\n  swap2\n  swap1\n  pop\n  jump\t// out\n    /* \"#utility.yul\":4529:4709   */\ntag_30:\n    /* \"#utility.yul\":4577:4654   */\n  0x4e487b7100000000000000000000000000000000000000000000000000000000\n    /* \"#utility.yul\":4574:4575   */\n  0x00\n    /* \"#utility.yul\":4567:4655   */\n  mstore\n    /* \"#utility.yul\":4674:4678   */\n  0x22\n    /* \"#utility.yul\":4671:4672   */\n  0x04\n    /* \"#utility.yul\":4664:4679   */\n  mstore\n    /* \"#utility.yul\":4698:4702   */\n  0x24\n    /* \"#utility.yul\":4695:4696   */\n  0x00\n    /* \"#utility.yul\":4688:4703   */\n  revert\n    /* \"#utility.yul\":4715:5035   */\ntag_31:\n    /* \"#utility.yul\":4759:4765   */\n  0x00\n    /* \"#utility.yul\":4796:4797   */\n  0x02\n    /* \"#utility.yul\":4790:4794   */\n  dup3\n    /* \"#utility.yul\":4786:4798   */\n  div\n    /* \"#utility.yul\":4776:4798   */\n  swap1\n  pop\n    /* \"#utility.yul\":4843:4844   */\n  0x01\n    /* \"#utility.yul\":4837:4841   */\n  dup3\n    /* \"#utility.yul\":4833:4845   */\n  and\n    /* \"#utility.yul\":4864:4882   */\n  dup1\n    /* \"#utility.yul\":4854:4935   */\n  tag_104\n  jumpi\n    /* \"#utility.yul\":4920:4924   */\n  0x7f\n    /* \"#utility.yul\":4912:4918   */\n  dup3\n    /* \"#utility.yul\":4908:4925   */\n  and\n    /* \"#utility.yul\":4898:4925   */\n  swap2\n  pop\n    /* \"#utility.yul\":4854:4935   */\ntag_104:\n    /* \"#utility.yul\":4982:4984   */\n  0x20\n    /* \"#utility.yul\":4974:4980   */\n  dup3\n    /* \"#utility.yul\":4971:4985   */\n  lt\n    /* \"#utility.yul\":4951:4969   */\n  dup2\n    /* \"#utility.yul\":4948:4986   */\n  sub\n    /* \"#utility.yul\":4945:5029   */\n  tag_105\n  jumpi\n    /* \"#utility.yul\":5001:5019   */\n  tag_106\n  tag_30\n  jump\t// in\ntag_106:\n    /* \"#utility.yul\":4945:5029   */\ntag_105:\n    /* \"#utility.yul\":4766:5035   */\n  pop\n    /* \"#utility.yul\":4715:5035   */\n  swap2\n  swap1\n  pop\n  jump\t// out\n    /* \"#utility.yul\":5041:5182   */\ntag_32:\n    /* \"#utility.yul\":5090:5094   */\n  0x00\n    /* \"#utility.yul\":5113:5116   */\n  dup2\n    /* \"#utility.yul\":5105:5116   */\n  swap1\n  pop\n    /* \"#utility.yul\":5136:5139   */\n  dup2\n    /* \"#utility.yul\":5133:5134   */\n  0x00\n    /* \"#utility.yul\":5126:5140   */\n  mstore\n    /* \"#utility.yul\":5170:5174   */\n  0x20\n    /* \"#utility.yul\":5167:5168   */\n  0x00\n    /* \"#utility.yul\":5157:5175   */\n  keccak256\n    /* \"#utility.yul\":5149:5175   */\n  swap1\n  pop\n    /* \"#utility.yul\":5041:5182   */\n  swap2\n  swap1\n  pop\n  jump\t// out\n    /* \"#utility.yul\":5188:5281   */\ntag_33:\n    /* \"#utility.yul\":5225:5231   */\n  0x00\n    /* \"#utility.yul\":5272:5274   */\n  0x20\n    /* \"#utility.yul\":5267:5269   */\n  0x1f\n    /* \"#utility.yul\":5260:5265   */\n  dup4\n    /* \"#utility.yul\":5256:5270   */\n  add\n    /* \"#utility.yul\":5252:5275   */\n  div\n    /* \"#utility.yul\":5242:5275   */\n  swap1\n  pop\n    /* \"#utility.yul\":5188:5281   */\n  swap2\n  swap1\n  pop\n  jump\t// out\n    /* \"#utility.yul\":5287:5394   */\ntag_34:\n    /* \"#utility.yul\":5331:5339   */\n  0x00\n    /* \"#utility.yul\":5381:5386   */\n  dup3\n    /* \"#utility.yul\":5375:5379   */\n  dup3\n    /* \"#utility.yul\":5371:5387   */\n  shl\n    /* \"#utility.yul\":5350:5387   */\n  swap1\n  pop\n    /* \"#utility.yul\":5287:5394   */\n  swap3\n  swap2\n  pop\n  pop\n  jump\t// out\n    /* \"#utility.yul\":5400:5793   */\ntag_35:\n    /* \"#utility.yul\":5469:5475   */\n  0x00\n    /* \"#utility.yul\":5519:5520   */\n  0x08\n    /* \"#utility.yul\":5507:5517   */\n  dup4\n    /* \"#utility.yul\":5503:5521   */\n  mul\n    /* \"#utility.yul\":5542:5639   */\n  tag_111\n    /* \"#utility.yul\":5572:5638   */\n  0xffffffffffffffffffffffffffffffffffffffffffffffffffffffffffffffff\n    /* \"#utility.yul\":5561:5570   */\n  dup3\n    /* \"#utility.yul\":5542:5639   */\n  tag_34\n  jump\t// in\ntag_111:\n    /* \"#utility.yul\":5660:5699   */\n  tag_112\n    /* \"#utility.yul\":5690:5698   */\n  dup7\n    /* \"#utility.yul\":5679:5688   */\n  dup4\n    /* \"#utility.yul\":5660:5699   */\n  tag_34\n  jump\t// in\ntag_112:\n    /* \"#utility.yul\":5648:5699   */\n  swap6\n  pop\n    /* \"#utility.yul\":5732:5736   */\n  dup1\n    /* \"#utility.yul\":5728:5737   */\n  not\n    /* \"#utility.yul\":5721:5726   */\n  dup5\n    /* \"#utility.yul\":5717:5738   */\n  and\n    /* \"#utility.yul\":5708:5738   */\n  swap4\n  pop\n    /* \"#utility.yul\":5781:5785   */\n  dup1\n    /* \"#utility.yul\":5771:5779   */\n  dup7\n    /* \"#utility.yul\":5767:5786   */\n  and\n    /* \"#utility.yul\":5760:5765   */\n  dup5\n    /* \"#utility.yul\":5757:5787   */\n  or\n    /* \"#utility.yul\":5747:5787   */\n  swap3\n  pop\n    /* \"#utility.yul\":5476:5793   */\n  pop\n  pop\n    /* \"#utility.yul\":5400:5793   */\n  swap4\n  swap3\n  pop\n  pop\n  pop\n  jump\t// out\n    /* \"#utility.yul\":5799:5859   */\ntag_36:\n    /* \"#utility.yul\":5827:5830   */\n  0x00\n    /* \"#utility.yul\":5848:5853   */\n  dup2\n    /* \"#utility.yul\":5841:5853   */\n  swap1\n  pop\n    /* \"#utility.yul\":5799:5859   */\n  swap2\n  swap1\n  pop\n  jump\t// out\n    /* \"#utility.yul\":5865:6007   */\ntag_37:\n    /* \"#utility.yul\":5915:5924   */\n  0x00\n    /* \"#utility.yul\":5948:6001   */\n  tag_115\n    /* \"#utility.yul\":5966:6000   */\n  tag_116\n    /* \"#utility.yul\":5975:5999   */\n  tag_117\n    /* \"#utility.yul\":5993:5998   */\n  dup5\n    /* \"#utility.yul\":5975:5999   */\n  tag_25\n  jump\t// in\ntag_117:\n    /* \"#utility.yul\":5966:6000   */\n  tag_36\n  jump\t// in\ntag_116:\n    /* \"#utility.yul\":5948:6001   */\n  tag_25\n  jump\t// in\ntag_115:\n    /* \"#utility.yul\":5935:6001   */\n  swap1\n  pop\n    /* \"#utility.yul\":5865:6007   */\n  swap2\n  swap1\n  pop\n  jump\t// out\n    /* \"#utility.yul\":6013:6088   */\ntag_38:\n    /* \"#utility.yul\":6056:6059   */\n  0x00\n    /* \"#utility.yul\":6077:6082   */\n  dup2\n    /* \"#utility.yul\":6070:6082   */\n  swap1\n  pop\n    /* \"#utility.yul\":6013:6088   */\n  swap2\n  swap1\n  pop\n  jump\t// out\n    /* \"#utility.yul\":6094:6363   */\ntag_39:\n    /* \"#utility.yul\":6204:6243   */\n  tag_120\n    /* \"#utility.yul\":6235:6242   */\n  dup4\n    /* \"#utility.yul\":6204:6243   */\n  tag_37\n  jump\t// in\ntag_120:\n    /* \"#utility.yul\":6265:6356   */\n  tag_121\n    /* \"#utility.yul\":6314:6355   */\n  tag_122\n    /* \"#utility.yul\":6338:6354   */\n  dup3\n    /* \"#utility.yul\":6314:6355   */\n  tag_38\n  jump\t// in\ntag_122:\n    /* \"#utility.yul\":6306:6312   */\n  dup5\n    /* \"#utility.yul\":6299:6303   */\n  dup5\n    /* \"#utility.yul\":6293:6304   */\n  sload\n    /* \"#utility.yul\":6265:6356   */\n  tag_35\n  jump\t// in\ntag_121:\n    /* \"#utility.yul\":6259:6263   */\n  dup3\n    /* \"#utility.yul\":6252:6357   */\n  sstore\n    /* \"#utility.yul\":6170:6363   */\n  pop\n    /* \"#utility.yul\":6094:6363   */\n  pop\n  pop\n  pop\n  jump\t// out\n    /* \"#utility.yul\":6369:6442   */\ntag_40:\n    /* \"#utility.yul\":6414:6417   */\n  0x00\n    /* \"#utility.yul\":6369:6442   */\n  swap1\n  jump\t// out\n    /* \"#utility.yul\":6448:6637   */\ntag_41:\n    /* \"#utility.yul\":6525:6557   */\n  tag_125\n  tag_40\n  jump\t// in\ntag_125:\n    /* \"#utility.yul\":6566:6631   */\n  tag_126\n    /* \"#utility.yul\":6624:6630   */\n  dup2\n    /* \"#utility.yul\":6616:6622   */\n  dup5\n    /* \"#utility.yul\":6610:6614   */\n  dup5\n    /* \"#utility.yul\":6566:6631   */\n  tag_39\n  jump\t// in\ntag_126:\n    /* \"#utility.yul\":6501:6637   */\n  pop\n    /* \"#utility.yul\":6448:6637   */\n  pop\n  pop\n  jump\t// out\n    /* \"#utility.yul\":6643:6829   */\ntag_42:\n    /* \"#utility.yul\":6703:6823   */\ntag_128:\n    /* \"#utility.yul\":6720:6723   */\n  dup2\n    /* \"#utility.yul\":6713:6718   */\n  dup2\n    /* \"#utility.yul\":6710:6724   */\n  lt\n    /* \"#utility.yul\":6703:6823   */\n  iszero\n  tag_130\n  jumpi\n    /* \"#utility.yul\":6774:6813   */\n  tag_131\n    /* \"#utility.yul\":6811:6812   */\n  0x00\n    /* \"#utility.yul\":6804:6809   */\n  dup3\n    /* \"#utility.yul\":6774:6813   */\n  tag_41\n  jump\t// in\ntag_131:\n    /* \"#utility.yul\":6747:6748   */\n  0x01\n    /* \"#utility.yul\":6740:6745   */\n  dup2\n    /* \"#utility.yul\":6736:6749   */\n  add\n    /* \"#utility.yul\":6727:6749   */\n  swap1\n  pop\n    /* \"#utility.yul\":6703:6823   */\n  jump(tag_128)\ntag_130:\n    /* \"#utility.yul\":6643:6829   */\n  pop\n  pop\n  jump\t// out\n    /* \"#utility.yul\":6835:7378   */\ntag_43:\n    /* \"#utility.yul\":6936:6938   */\n  0x1f\n    /* \"#utility.yul\":6931:6934   */\n  dup3\n    /* \"#utility.yul\":6928:6939   */\n  gt\n    /* \"#utility.yul\":6925:7371   */\n  iszero\n  tag_133\n  jumpi\n    /* \"#utility.yul\":6970:7008   */\n  tag_134\n    /* \"#utility.yul\":7002:7007   */\n  dup2\n    /* \"#utility.yul\":6970:7008   */\n  tag_32\n  jump\t// in\ntag_134:\n    /* \"#utility.yul\":7054:7083   */\n  tag_135\n    /* \"#utility.yul\":7072:7082   */\n  dup5\n    /* \"#utility.yul\":7054:7083   */\n  tag_33\n  jump\t// in\ntag_135:\n    /* \"#utility.yul\":7044:7052   */\n  dup2\n    /* \"#utility.yul\":7040:7084   */\n  add\n    /* \"#utility.yul\":7237:7239   */\n  0x20\n    /* \"#utility.yul\":7225:7235   */\n  dup6\n    /* \"#utility.yul\":7222:7240   */\n  lt\n    /* \"#utility.yul\":7219:7268   */\n  iszero\n  tag_136\n  jumpi\n    /* \"#utility.yul\":7258:7266   */\n  dup2\n    /* \"#utility.yul\":7243:7266   */\n  swap1\n  pop\n    /* \"#utility.yul\":7219:7268   */\ntag_136:\n    /* \"#utility.yul\":7281:7361   */\n  tag_137\n    /* \"#utility.yul\":7337:7359   */\n  tag_138\n    /* \"#utility.yul\":7355:7358   */\n  dup6\n    /* \"#utility.yul\":7337:7359   */\n  tag_33\n  jump\t// in\ntag_138:\n    /* \"#utility.yul\":7327:7335   */\n  dup4\n    /* \"#utility.yul\":7323:7360   */\n  add\n    /* \"#utility.yul\":7310:7321   */\n  dup3\n    /* \"#utility.yul\":7281:7361   */\n  tag_42\n  jump\t// in\ntag_137:\n    /* \"#utility.yul\":6940:7371   */\n  pop\n  pop\n    /* \"#utility.yul\":6925:7371   */\ntag_133:\n    /* \"#utility.yul\":6835:7378   */\n  pop\n  pop\n  pop\n  jump\t// out\n    /* \"#utility.yul\":7384:7501   */\ntag_44:\n    /* \"#utility.yul\":7438:7446   */\n  0x00\n    /* \"#utility.yul\":7488:7493   */\n  dup3\n    /* \"#utility.yul\":7482:7486   */\n  dup3\n    /* \"#utility.yul\":7478:7494   */\n  shr\n    /* \"#utility.yul\":7457:7494   */\n  swap1\n  pop\n    /* \"#utility.yul\":7384:7501   */\n  swap3\n  swap2\n  pop\n  pop\n  jump\t// out\n    /* \"#utility.yul\":7507:7676   */\ntag_45:\n    /* \"#utility.yul\":7551:7557   */\n  0x00\n    /* \"#utility.yul\":7584:7635   */\n  tag_141\n    /* \"#utility.yul\":7632:7633   */\n  0x00\n    /* \"#utility.yul\":7628:7634   */\n  not\n    /* \"#utility.yul\":7620:7625   */\n  dup5\n    /* \"#utility.yul\":7617:7618   */\n  0x08\n    /* \"#utility.yul\":7613:7626   */\n  mul\n    /* \"#utility.yul\":7584:7635   */\n  tag_44\n  jump\t// in\ntag_141:\n    /* \"#utility.yul\":7580:7636   */\n  not\n    /* \"#utility.yul\":7665:7669   */\n  dup1\n    /* \"#utility.yul\":7659:7663   */\n  dup4\n    /* \"#utility.yul\":7655:7670   */\n  and\n    /* \"#utility.yul\":7645:7670   */\n  swap2\n  pop\n    /* \"#utility.yul\":7558:7676   */\n  pop\n    /* \"#utility.yul\":7507:7676   */\n  swap3\n  swap2\n  pop\n  pop\n  jump\t// out\n    /* \"#utility.yul\":7681:7976   */\ntag_46:\n    /* \"#utility.yul\":7757:7761   */\n  0x00\n    /* \"#utility.yul\":7903:7932   */\n  tag_143\n    /* \"#utility.yul\":7928:7931   */\n  dup4\n    /* \"#utility.yul\":7922:7926   */\n  dup4\n    /* \"#utility.yul\":7903:7932   */\n  tag_45\n  jump\t// in\ntag_143:\n    /* \"#utility.yul\":7895:7932   */\n  swap2\n  pop\n    /* \"#utility.yul\":7965:7968   */\n  dup3\n    /* \"#utility.yul\":7962:7963   */\n  0x02\n    /* \"#utility.yul\":7958:7969   */\n  mul\n    /* \"#utility.yul\":7952:7956   */\n  dup3\n    /* \"#utility.yul\":7949:7970   */\n  or\n    /* \"#utility.yul\":7941:7970   */\n  swap1\n  pop\n    /* \"#utility.yul\":7681:7976   */\n  swap3\n  swap2\n  pop\n  pop\n  jump\t// out\n    /* \"#utility.yul\":7981:9376   */\ntag_9:\n    /* \"#utility.yul\":8098:8135   */\n  tag_145\n    /* \"#utility.yul\":8131:8134   */\n  dup3\n    /* \"#utility.yul\":8098:8135   */\n  tag_29\n  jump\t// in\ntag_145:\n    /* \"#utility.yul\":8200:8218   */\n  0xffffffffffffffff\n    /* \"#utility.yul\":8192:8198   */\n  dup2\n    /* \"#utility.yul\":8189:8219   */\n  gt\n    /* \"#utility.yul\":8186:8242   */\n  iszero\n  tag_146\n  jumpi\n    /* \"#utility.yul\":8222:8240   */\n  tag_147\n  tag_18\n  jump\t// in\ntag_147:\n    /* \"#utility.yul\":8186:8242   */\ntag_146:\n    /* \"#utility.yul\":8266:8304   */\n  tag_148\n    /* \"#utility.yul\":8298:8302   */\n  dup3\n    /* \"#utility.yul\":8292:8303   */\n  sload\n    /* \"#utility.yul\":8266:8304   */\n  tag_31\n  jump\t// in\ntag_148:\n    /* \"#utility.yul\":8351:8418   */\n  tag_149\n    /* \"#utility.yul\":8411:8417   */\n  dup3\n    /* \"#utility.yul\":8403:8409   */\n  dup3\n    /* \"#utility.yul\":8397:8401   */\n  dup6\n    /* \"#utility.yul\":8351:8418   */\n  tag_43\n  jump\t// in\ntag_149:\n    /* \"#utility.yul\":8445:8446   */\n  0x00\n    /* \"#utility.yul\":8469:8473   */\n  0x20\n    /* \"#utility.yul\":8456:8473   */\n  swap1\n  pop\n    /* \"#utility.yul\":8501:8503   */\n  0x1f\n    /* \"#utility.yul\":8493:8499   */\n  dup4\n    /* \"#utility.yul\":8490:8504   */\n  gt\n    /* \"#utility.yul\":8518:8519   */\n  0x01\n    /* \"#utility.yul\":8513:9131   */\n  dup2\n  eq\n  tag_151\n  jumpi\n    /* \"#utility.yul\":9175:9176   */\n  0x00\n    /* \"#utility.yul\":9192:9198   */\n  dup5\n    /* \"#utility.yul\":9189:9266   */\n  iszero\n  tag_152\n  jumpi\n    /* \"#utility.yul\":9241:9250   */\n  dup3\n    /* \"#utility.yul\":9236:9239   */\n  dup8\n    /* \"#utility.yul\":9232:9251   */\n  add\n    /* \"#utility.yul\":9226:9252   */\n  mload\n    /* \"#utility.yul\":9217:9252   */\n  swap1\n  pop\n    /* \"#utility.yul\":9189:9266   */\ntag_152:\n    /* \"#utility.yul\":9292:9359   */\n  tag_153\n    /* \"#utility.yul\":9352:9358   */\n  dup6\n    /* \"#utility.yul\":9345:9350   */\n  dup3\n    /* \"#utility.yul\":9292:9359   */\n  tag_46\n  jump\t// in\ntag_153:\n    /* \"#utility.yul\":9286:9290   */\n  dup7\n    /* \"#utility.yul\":9279:9360   */\n  sstore\n    /* \"#utility.yul\":9148:9370   */\n  pop\n    /* \"#utility.yul\":8483:9370   */\n  jump(tag_150)\n    /* \"#utility.yul\":8513:9131   */\ntag_151:\n    /* \"#utility.yul\":8565:8569   */\n  0x1f\n    /* \"#utility.yul\":8561:8570   */\n  not\n    /* \"#utility.yul\":8553:8559   */\n  dup5\n    /* \"#utility.yul\":8549:8571   */\n  and\n    /* \"#utility.yul\":8599:8636   */\n  tag_154\n    /* \"#utility.yul\":8631:8635   */\n  dup7\n    /* \"#utility.yul\":8599:8636   */\n  tag_32\n  jump\t// in\ntag_154:\n    /* \"#utility.yul\":8658:8659   */\n  0x00\n    /* \"#utility.yul\":8672:8880   */\ntag_155:\n    /* \"#utility.yul\":8686:8693   */\n  dup3\n    /* \"#utility.yul\":8683:8684   */\n  dup2\n    /* \"#utility.yul\":8680:8694   */\n  lt\n    /* \"#utility.yul\":8672:8880   */\n  iszero\n  tag_157\n  jumpi\n    /* \"#utility.yul\":8765:8774   */\n  dup5\n    /* \"#utility.yul\":8760:8763   */\n  dup10\n    /* \"#utility.yul\":8756:8775   */\n  add\n    /* \"#utility.yul\":8750:8776   */\n  mload\n    /* \"#utility.yul\":8742:8748   */\n  dup3\n    /* \"#utility.yul\":8735:8777   */\n  sstore\n    /* \"#utility.yul\":8816:8817   */\n  0x01\n    /* \"#utility.yul\":8808:8814   */\n  dup3\n    /* \"#utility.yul\":8804:8818   */\n  add\n    /* \"#utility.yul\":8794:8818   */\n  swap2\n  pop\n    /* \"#utility.yul\":8863:8865   */\n  0x20\n    /* \"#utility.yul\":8852:8861   */\n  dup6\n    /* \"#utility.yul\":8848:8866   */\n  add\n    /* \"#utility.yul\":8835:8866   */\n  swap5\n  pop\n    /* \"#utility.yul\":8709:8713   */\n  0x20\n    /* \"#utility.yul\":8706:8707   */\n  dup2\n    /* \"#utility.yul\":8702:8714   */\n  add\n    /* \"#utility.yul\":8697:8714   */\n  swap1\n  pop\n    /* \"#utility.yul\":8672:8880   */\n  jump(tag_155)\ntag_157:\n    /* \"#utility.yul\":8908:8914   */\n  dup7\n    /* \"#utility.yul\":8899:8906   */\n  dup4\n    /* \"#utility.yul\":8896:8915   */\n  lt\n    /* \"#utility.yul\":8893:9072   */\n  iszero\n  tag_158\n  jumpi\n    /* \"#utility.yul\":8966:8975   */\n  dup5\n    /* \"#utility.yul\":8961:8964   */\n  dup10\n    /* \"#utility.yul\":8957:8976   */\n  add\n    /* \"#utility.yul\":8951:8977   */\n  mload\n    /* \"#utility.yul\":9009:9057   */\n  tag_159\n    /* \"#utility.yul\":9051:9055   */\n  0x1f\n    /* \"#utility.yul\":9043:9049   */\n  dup10\n    /* \"#utility.yul\":9039:9056   */\n  and\n    /* \"#utility.yul\":9028:9037   */\n  dup3\n    /* \"#utility.yul\":9009:9057   */\n  tag_45\n  jump\t// in\ntag_159:\n    /* \"#utility.yul\":9001:9007   */\n  dup4\n    /* \"#utility.yul\":8994:9058   */\n  sstore\n    /* \"#utility.yul\":8916:9072   */\n  pop\n    /* \"#utility.yul\":8893:9072   */\ntag_158:\n    /* \"#utility.yul\":9118:9119   */\n  0x01\n    /* \"#utility.yul\":9114:9115   */\n  0x02\n    /* \"#utility.yul\":9106:9112   */\n  dup9\n    /* \"#utility.yul\":9102:9116   */\n  mul\n    /* \"#utility.yul\":9098:9120   */\n  add\n    /* \"#utility.yul\":9092:9096   */\n  dup9\n    /* \"#utility.yul\":9085:9121   */\n  sstore\n    /* \"#utility.yul\":8520:9131   */\n  pop\n  pop\n  pop\n    /* \"#utility.yul\":8483:9370   */\ntag_150:\n  pop\n    /* \"#utility.yul\":8073:9376   */\n  pop\n  pop\n  pop\n    /* \"#utility.yul\":7981:9376   */\n  pop\n  pop\n  jump\t// out\n    /* \"contracts/BusinessConsensus.sol\":33:5189  contract BusinessConsensus{... */\ntag_11:\n  dataSize(sub_0)\n  dup1\n  dataOffset(sub_0)\n  0x00\n  codecopy\n  0x00\n  return\nstop\n\nsub_0: assembly {\n        /* \"contracts/BusinessConsensus.sol\":33:5189  contract BusinessConsensus{... */\n      mstore(0x40, 0x80)\n      callvalue\n      dup1\n      iszero\n      tag_1\n      jumpi\n      0x00\n      dup1\n      revert\n    tag_1:\n      pop\n      jumpi(tag_2, lt(calldatasize, 0x04))\n      shr(0xe0, calldataload(0x00))\n      dup1\n      0x753ec103\n      gt\n      tag_21\n      jumpi\n      dup1\n      0xa5ea11da\n      gt\n      tag_22\n      jumpi\n      dup1\n      0xa5ea11da\n      eq\n      tag_16\n      jumpi\n      dup1\n      0xb9a29250\n      eq\n      tag_17\n      jumpi\n      dup1\n      0xd77aa749\n      eq\n      tag_18\n      jumpi\n      dup1\n      0xda58c7d9\n      eq\n      tag_19\n      jumpi\n      dup1\n      0xf6b4dfb4\n      eq\n      tag_20\n      jumpi\n      jump(tag_2)\n    tag_22:\n      dup1\n      0x753ec103\n      eq\n      tag_12\n      jumpi\n      dup1\n      0x82316745\n      eq\n      tag_13\n      jumpi\n      dup1\n      0x95b02dfa\n      eq\n      tag_14\n      jumpi\n      dup1\n      0x9aa4bbdd\n      eq\n      tag_15\n      jumpi\n      jump(tag_2)\n    tag_21:\n      dup1\n      0x4a1f0ef2\n      gt\n      tag_23\n      jumpi\n      dup1\n      0x4a1f0ef2\n      eq\n      tag_7\n      jumpi\n      dup1\n      0x5361a0ea\n      eq\n      tag_8\n      jumpi\n      dup1\n      0x5c39fcc1\n      eq\n      tag_9\n      jumpi\n      dup1\n      0x604c8333\n      eq\n      tag_10\n      jumpi\n      dup1\n      0x7403c5e5\n      eq\n      tag_11\n      jumpi\n      jump(tag_2)\n    tag_23:\n      dup1\n      0x0cb6aaf1\n      eq\n      tag_3\n      jumpi\n      dup1\n      0x15fe6f1b\n      eq\n      tag_4\n      jumpi\n      dup1\n      0x19eb4a90\n      eq\n      tag_5\n      jumpi\n      dup1\n      0x323082d7\n      eq\n      tag_6\n      jumpi\n    tag_2:\n      0x00\n      dup1\n      revert\n        /* \"contracts/BusinessConsensus.sol\":1191:1212  address[] public keys */\n    tag_3:\n      tag_24\n      0x04\n      dup1\n      calldatasize\n      sub\n      dup2\n      add\n      swap1\n      tag_25\n      swap2\n      swap1\n      tag_26\n      jump\t// in\n    tag_25:\n      tag_27\n      jump\t// in\n    tag_24:\n      mload(0x40)\n      tag_28\n      swap2\n      swap1\n      tag_29\n      jump\t// in\n    tag_28:\n      mload(0x40)\n      dup1\n      swap2\n      sub\n      swap1\n      return\n        /* \"contracts/BusinessConsensus.sol\":2585:3229  function RegisterVoter(address voter) external {... */\n    tag_4:\n      tag_30\n      0x04\n      dup1\n      calldatasize\n      sub\n      dup2\n      add\n      swap1\n      tag_31\n      swap2\n      swap1\n      tag_32\n      jump\t// in\n    tag_31:\n      tag_33\n      jump\t// in\n    tag_30:\n      stop\n        /* \"contracts/BusinessConsensus.sol\":1967:2067  function getValues() public view returns (string memory){... */\n    tag_5:\n      tag_34\n      tag_35\n      jump\t// in\n    tag_34:\n      mload(0x40)\n      tag_36\n      swap2\n      swap1\n      tag_37\n      jump\t// in\n    tag_36:\n      mload(0x40)\n      dup1\n      swap2\n      sub\n      swap1\n      return\n        /* \"contracts/BusinessConsensus.sol\":3284:4218  function Vote(string memory response) external {... */\n    tag_6:\n      tag_38\n      0x04\n      dup1\n      calldatasize\n      sub\n      dup2\n      add\n      swap1\n      tag_39\n      swap2\n      swap1\n      tag_40\n      jump\t// in\n    tag_39:\n      tag_41\n      jump\t// in\n    tag_38:\n      stop\n        /* \"contracts/BusinessConsensus.sol\":1372:1392  Bundle public bundle */\n    tag_7:\n      tag_42\n      tag_43\n      jump\t// in\n    tag_42:\n      mload(0x40)\n      tag_44\n      swap3\n      swap2\n      swap1\n      tag_45\n      jump\t// in\n    tag_44:\n      mload(0x40)\n      dup1\n      swap2\n      sub\n      swap1\n      return\n        /* \"contracts/BusinessConsensus.sol\":2267:2479  function getParameters2(address test_address) public view returns (bool, bool, address){... */\n    tag_8:\n      tag_46\n      0x04\n      dup1\n      calldatasize\n      sub\n      dup2\n      add\n      swap1\n      tag_47\n      swap2\n      swap1\n      tag_32\n      jump\t// in\n    tag_47:\n      tag_48\n      jump\t// in\n    tag_46:\n      mload(0x40)\n      tag_49\n      swap4\n      swap3\n      swap2\n      swap1\n      tag_50\n      jump\t// in\n    tag_49:\n      mload(0x40)\n      dup1\n      swap2\n      sub\n      swap1\n      return\n        /* \"contracts/BusinessConsensus.sol\":982:1006  address public initiator */\n    tag_9:\n      tag_51\n      tag_52\n      jump\t// in\n    tag_51:\n      mload(0x40)\n      tag_53\n      swap2\n      swap1\n      tag_29\n      jump\t// in\n    tag_53:\n      mload(0x40)\n      dup1\n      swap2\n      sub\n      swap1\n      return\n        /* \"contracts/BusinessConsensus.sol\":1055:1088  uint public AccumulatedPercentage */\n    tag_10:\n      tag_54\n      tag_55\n      jump\t// in\n    tag_54:\n      mload(0x40)\n      tag_56\n      swap2\n      swap1\n      tag_57\n      jump\t// in\n    tag_56:\n      mload(0x40)\n      dup1\n      swap2\n      sub\n      swap1\n      return\n        /* \"contracts/BusinessConsensus.sol\":1095:1119  uint public numApprovals */\n    tag_11:\n      tag_58\n      tag_59\n      jump\t// in\n    tag_58:\n      mload(0x40)\n      tag_60\n      swap2\n      swap1\n      tag_57\n      jump\t// in\n    tag_60:\n      mload(0x40)\n      dup1\n      swap2\n      sub\n      swap1\n      return\n        /* \"contracts/BusinessConsensus.sol\":1339:1363  Proposal public proposal */\n    tag_12:\n      tag_61\n      tag_62\n      jump\t// in\n    tag_61:\n      mload(0x40)\n      tag_63\n      swap3\n      swap2\n      swap1\n      tag_64\n      jump\t// in\n    tag_63:\n      mload(0x40)\n      dup1\n      swap2\n      sub\n      swap1\n      return\n        /* \"contracts/BusinessConsensus.sol\":4995:5184  function retrieve_bundle() public view returns (Bundle memory){... */\n    tag_13:\n      tag_65\n      tag_66\n      jump\t// in\n    tag_65:\n      mload(0x40)\n      tag_67\n      swap2\n      swap1\n      tag_68\n      jump\t// in\n    tag_67:\n      mload(0x40)\n      dup1\n      swap2\n      sub\n      swap1\n      return\n        /* \"contracts/BusinessConsensus.sol\":4282:4987  function Consensus() external {... */\n    tag_14:\n      tag_69\n      tag_70\n      jump\t// in\n    tag_69:\n      stop\n        /* \"contracts/BusinessConsensus.sol\":1219:1262  mapping(address => Voter) public voters_map */\n    tag_15:\n      tag_71\n      0x04\n      dup1\n      calldatasize\n      sub\n      dup2\n      add\n      swap1\n      tag_72\n      swap2\n      swap1\n      tag_32\n      jump\t// in\n    tag_72:\n      tag_73\n      jump\t// in\n    tag_71:\n      mload(0x40)\n      tag_74\n      swap4\n      swap3\n      swap2\n      swap1\n      tag_75\n      jump\t// in\n    tag_74:\n      mload(0x40)\n      dup1\n      swap2\n      sub\n      swap1\n      return\n        /* \"contracts/BusinessConsensus.sol\":2073:2261  function getParameters() public view returns (string memory, uint , address ,uint ,uint){... */\n    tag_16:\n      tag_76\n      tag_77\n      jump\t// in\n    tag_76:\n      mload(0x40)\n      tag_78\n      swap6\n      swap5\n      swap4\n      swap3\n      swap2\n      swap1\n      tag_79\n      jump\t// in\n    tag_78:\n      mload(0x40)\n      dup1\n      swap2\n      sub\n      swap1\n      return\n        /* \"contracts/BusinessConsensus.sol\":1128:1154  uint public numberCompiled */\n    tag_17:\n      tag_80\n      tag_81\n      jump\t// in\n    tag_80:\n      mload(0x40)\n      tag_82\n      swap2\n      swap1\n      tag_57\n      jump\t// in\n    tag_82:\n      mload(0x40)\n      dup1\n      swap2\n      sub\n      swap1\n      return\n        /* \"contracts/BusinessConsensus.sol\":1017:1048  uint public BusinessRequirement */\n    tag_18:\n      tag_83\n      tag_84\n      jump\t// in\n    tag_83:\n      mload(0x40)\n      tag_85\n      swap2\n      swap1\n      tag_57\n      jump\t// in\n    tag_85:\n      mload(0x40)\n      dup1\n      swap2\n      sub\n      swap1\n      return\n        /* \"contracts/BusinessConsensus.sol\":1163:1184  Voter[] public voters */\n    tag_19:\n      tag_86\n      0x04\n      dup1\n      calldatasize\n      sub\n      dup2\n      add\n      swap1\n      tag_87\n      swap2\n      swap1\n      tag_26\n      jump\t// in\n    tag_87:\n      tag_88\n      jump\t// in\n    tag_86:\n      mload(0x40)\n      tag_89\n      swap4\n      swap3\n      swap2\n      swap1\n      tag_75\n      jump\t// in\n    tag_89:\n      mload(0x40)\n      dup1\n      swap2\n      sub\n      swap1\n      return\n        /* \"contracts/BusinessConsensus.sol\":716:746  address public contractAddress */\n    tag_20:\n      tag_90\n      tag_91\n      jump\t// in\n    tag_90:\n      mload(0x40)\n      tag_92\n      swap2\n      swap1\n      tag_29\n      jump\t// in\n    tag_92:\n      mload(0x40)\n      dup1\n      swap2\n      sub\n      swap1\n      return\n        /* \"contracts/BusinessConsensus.sol\":1191:1212  address[] public keys */\n    tag_27:\n      0x09\n      dup2\n      dup2\n      sload\n      dup2\n      lt\n      tag_93\n      jumpi\n      0x00\n      dup1\n      revert\n    tag_93:\n      swap1\n      0x00\n      mstore\n      keccak256(0x00, 0x20)\n      add\n      0x00\n      swap2\n      pop\n      sload\n      swap1\n      0x0100\n      exp\n      swap1\n      div\n      0xffffffffffffffffffffffffffffffffffffffff\n      and\n      dup2\n      jump\t// out\n        /* \"contracts/BusinessConsensus.sol\":2585:3229  function RegisterVoter(address voter) external {... */\n    tag_33:\n        /* \"contracts/BusinessConsensus.sol\":2753:2762  initiator */\n      0x03\n      0x00\n      swap1\n      sload\n      swap1\n      0x0100\n      exp\n      swap1\n      div\n      0xffffffffffffffffffffffffffffffffffffffff\n      and\n        /* \"contracts/BusinessConsensus.sol\":2739:2762  msg.sender == initiator */\n      0xffffffffffffffffffffffffffffffffffffffff\n      and\n        /* \"contracts/BusinessConsensus.sol\":2739:2749  msg.sender */\n      caller\n        /* \"contracts/BusinessConsensus.sol\":2739:2762  msg.sender == initiator */\n      0xffffffffffffffffffffffffffffffffffffffff\n      and\n      eq\n        /* \"contracts/BusinessConsensus.sol\":2717:2830  require(... */\n      tag_96\n      jumpi\n      mload(0x40)\n      0x08c379a000000000000000000000000000000000000000000000000000000000\n      dup2\n      mstore\n      0x04\n      add\n      tag_97\n      swap1\n      tag_98\n      jump\t// in\n    tag_97:\n      mload(0x40)\n      dup1\n      swap2\n      sub\n      swap1\n      revert\n    tag_96:\n        /* \"contracts/BusinessConsensus.sol\":2858:2867  initiator */\n      0x03\n      0x00\n      swap1\n      sload\n      swap1\n      0x0100\n      exp\n      swap1\n      div\n      0xffffffffffffffffffffffffffffffffffffffff\n      and\n        /* \"contracts/BusinessConsensus.sol\":2849:2867  voter != initiator */\n      0xffffffffffffffffffffffffffffffffffffffff\n      and\n        /* \"contracts/BusinessConsensus.sol\":2849:2854  voter */\n      dup2\n        /* \"contracts/BusinessConsensus.sol\":2849:2867  voter != initiator */\n      0xffffffffffffffffffffffffffffffffffffffff\n      and\n      sub\n        /* \"contracts/BusinessConsensus.sol\":2841:2893  require(voter != initiator, \"Initiator can't vote!\") */\n      tag_99\n      jumpi\n      mload(0x40)\n      0x08c379a000000000000000000000000000000000000000000000000000000000\n      dup2\n      mstore\n      0x04\n      add\n      tag_100\n      swap1\n      tag_101\n      jump\t// in\n    tag_100:\n      mload(0x40)\n      dup1\n      swap2\n      sub\n      swap1\n      revert\n    tag_99:\n        /* \"contracts/BusinessConsensus.sol\":2953:2954  0 */\n      0x00\n        /* \"contracts/BusinessConsensus.sol\":2914:2955  voters_map[voter].recipient == address(0) */\n      0xffffffffffffffffffffffffffffffffffffffff\n      and\n        /* \"contracts/BusinessConsensus.sol\":2914:2924  voters_map */\n      0x0a\n        /* \"contracts/BusinessConsensus.sol\":2914:2931  voters_map[voter] */\n      0x00\n        /* \"contracts/BusinessConsensus.sol\":2925:2930  voter */\n      dup4\n        /* \"contracts/BusinessConsensus.sol\":2914:2931  voters_map[voter] */\n      0xffffffffffffffffffffffffffffffffffffffff\n      and\n      0xffffffffffffffffffffffffffffffffffffffff\n      and\n      dup2\n      mstore\n      0x20\n      add\n      swap1\n      dup2\n      mstore\n      0x20\n      add\n      0x00\n      keccak256\n        /* \"contracts/BusinessConsensus.sol\":2914:2941  voters_map[voter].recipient */\n      0x00\n      add\n      0x01\n      swap1\n      sload\n      swap1\n      0x0100\n      exp\n      swap1\n      div\n      0xffffffffffffffffffffffffffffffffffffffff\n      and\n        /* \"contracts/BusinessConsensus.sol\":2914:2955  voters_map[voter].recipient == address(0) */\n      0xffffffffffffffffffffffffffffffffffffffff\n      and\n      eq\n        /* \"contracts/BusinessConsensus.sol\":2906:2991  require(voters_map[voter].recipient == address(0), \"Recipient is already registered\") */\n      tag_102\n      jumpi\n      mload(0x40)\n      0x08c379a000000000000000000000000000000000000000000000000000000000\n      dup2\n      mstore\n      0x04\n      add\n      tag_103\n      swap1\n      tag_104\n      jump\t// in\n    tag_103:\n      mload(0x40)\n      dup1\n      swap2\n      sub\n      swap1\n      revert\n    tag_102:\n        /* \"contracts/BusinessConsensus.sol\":3030:3040  expiryDate */\n      sload(0x01)\n        /* \"contracts/BusinessConsensus.sol\":3012:3027  block.timestamp */\n      timestamp\n        /* \"contracts/BusinessConsensus.sol\":3012:3040  block.timestamp < expiryDate */\n      lt\n        /* \"contracts/BusinessConsensus.sol\":3004:3081  require(block.timestamp < expiryDate, \"Proposal has reached its expiry date\") */\n      tag_105\n      jumpi\n      mload(0x40)\n      0x08c379a000000000000000000000000000000000000000000000000000000000\n      dup2\n      mstore\n      0x04\n      add\n      tag_106\n      swap1\n      tag_107\n      jump\t// in\n    tag_106:\n      mload(0x40)\n      dup1\n      swap2\n      sub\n      swap1\n      revert\n    tag_105:\n        /* \"contracts/BusinessConsensus.sol\":3094:3108  Voter memory x */\n      0x00\n        /* \"contracts/BusinessConsensus.sol\":3111:3162  Voter({voted: false,recipient: voter, vote: false}) */\n      mload(0x40)\n      dup1\n      0x60\n      add\n      0x40\n      mstore\n      dup1\n        /* \"contracts/BusinessConsensus.sol\":3125:3130  false */\n      0x00\n        /* \"contracts/BusinessConsensus.sol\":3111:3162  Voter({voted: false,recipient: voter, vote: false}) */\n      iszero\n      iszero\n      dup2\n      mstore\n      0x20\n      add\n        /* \"contracts/BusinessConsensus.sol\":3142:3147  voter */\n      dup4\n        /* \"contracts/BusinessConsensus.sol\":3111:3162  Voter({voted: false,recipient: voter, vote: false}) */\n      0xffffffffffffffffffffffffffffffffffffffff\n      and\n      dup2\n      mstore\n      0x20\n      add\n        /* \"contracts/BusinessConsensus.sol\":3155:3160  false */\n      0x00\n        /* \"contracts/BusinessConsensus.sol\":3111:3162  Voter({voted: false,recipient: voter, vote: false}) */\n      iszero\n      iszero\n      dup2\n      mstore\n      pop\n        /* \"contracts/BusinessConsensus.sol\":3094:3162  Voter memory x = Voter({voted: false,recipient: voter, vote: false}) */\n      swap1\n      pop\n        /* \"contracts/BusinessConsensus.sol\":3193:3194  x */\n      dup1\n        /* \"contracts/BusinessConsensus.sol\":3173:3183  voters_map */\n      0x0a\n        /* \"contracts/BusinessConsensus.sol\":3173:3190  voters_map[voter] */\n      0x00\n        /* \"contracts/BusinessConsensus.sol\":3184:3189  voter */\n      dup5\n        /* \"contracts/BusinessConsensus.sol\":3173:3190  voters_map[voter] */\n      0xffffffffffffffffffffffffffffffffffffffff\n      and\n      0xffffffffffffffffffffffffffffffffffffffff\n      and\n      dup2\n      mstore\n      0x20\n      add\n      swap1\n      dup2\n      mstore\n      0x20\n      add\n      0x00\n      keccak256\n        /* \"contracts/BusinessConsensus.sol\":3173:3194  voters_map[voter] = x */\n      0x00\n      dup3\n      add\n      mload\n      dup2\n      0x00\n      add\n      exp(0x0100, 0x00)\n      dup2\n      sload\n      dup2\n      0xff\n      mul\n      not\n      and\n      swap1\n      dup4\n      iszero\n      iszero\n      mul\n      or\n      swap1\n      sstore\n      pop\n      0x20\n      dup3\n      add\n      mload\n      dup2\n      0x00\n      add\n      exp(0x0100, 0x01)\n      dup2\n      sload\n      dup2\n      0xffffffffffffffffffffffffffffffffffffffff\n      mul\n      not\n      and\n      swap1\n      dup4\n      0xffffffffffffffffffffffffffffffffffffffff\n      and\n      mul\n      or\n      swap1\n      sstore\n      pop\n      0x40\n      dup3\n      add\n      mload\n      dup2\n      0x00\n      add\n      exp(0x0100, 0x15)\n      dup2\n      sload\n      dup2\n      0xff\n      mul\n      not\n      and\n      swap1\n      dup4\n      iszero\n      iszero\n      mul\n      or\n      swap1\n      sstore\n      pop\n      swap1\n      pop\n      pop\n        /* \"contracts/BusinessConsensus.sol\":3205:3209  keys */\n      0x09\n        /* \"contracts/BusinessConsensus.sol\":3215:3220  voter */\n      dup3\n        /* \"contracts/BusinessConsensus.sol\":3205:3221  keys.push(voter) */\n      swap1\n      dup1\n      0x01\n      dup2\n      sload\n      add\n      dup1\n      dup3\n      sstore\n      dup1\n      swap2\n      pop\n      pop\n      0x01\n      swap1\n      sub\n      swap1\n      0x00\n      mstore\n      keccak256(0x00, 0x20)\n      add\n      0x00\n      swap1\n      swap2\n      swap1\n      swap2\n      swap1\n      swap2\n      0x0100\n      exp\n      dup2\n      sload\n      dup2\n      0xffffffffffffffffffffffffffffffffffffffff\n      mul\n      not\n      and\n      swap1\n      dup4\n      0xffffffffffffffffffffffffffffffffffffffff\n      and\n      mul\n      or\n      swap1\n      sstore\n      pop\n        /* \"contracts/BusinessConsensus.sol\":2632:3229  {... */\n      pop\n        /* \"contracts/BusinessConsensus.sol\":2585:3229  function RegisterVoter(address voter) external {... */\n      pop\n      jump\t// out\n        /* \"contracts/BusinessConsensus.sol\":1967:2067  function getValues() public view returns (string memory){... */\n    tag_35:\n        /* \"contracts/BusinessConsensus.sol\":2009:2022  string memory */\n      0x60\n        /* \"contracts/BusinessConsensus.sol\":2041:2049  proposal */\n      0x0b\n        /* \"contracts/BusinessConsensus.sol\":2041:2059  proposal.messageID */\n      0x01\n      add\n        /* \"contracts/BusinessConsensus.sol\":2034:2059  return proposal.messageID */\n      dup1\n      sload\n      tag_110\n      swap1\n      tag_111\n      jump\t// in\n    tag_110:\n      dup1\n      0x1f\n      add\n      0x20\n      dup1\n      swap2\n      div\n      mul\n      0x20\n      add\n      mload(0x40)\n      swap1\n      dup2\n      add\n      0x40\n      mstore\n      dup1\n      swap3\n      swap2\n      swap1\n      dup2\n      dup2\n      mstore\n      0x20\n      add\n      dup3\n      dup1\n      sload\n      tag_112\n      swap1\n      tag_111\n      jump\t// in\n    tag_112:\n      dup1\n      iszero\n      tag_113\n      jumpi\n      dup1\n      0x1f\n      lt\n      tag_114\n      jumpi\n      0x0100\n      dup1\n      dup4\n      sload\n      div\n      mul\n      dup4\n      mstore\n      swap2\n      0x20\n      add\n      swap2\n      jump(tag_113)\n    tag_114:\n      dup3\n      add\n      swap2\n      swap1\n      0x00\n      mstore\n      keccak256(0x00, 0x20)\n      swap1\n    tag_115:\n      dup2\n      sload\n      dup2\n      mstore\n      swap1\n      0x01\n      add\n      swap1\n      0x20\n      add\n      dup1\n      dup4\n      gt\n      tag_115\n      jumpi\n      dup3\n      swap1\n      sub\n      0x1f\n      and\n      dup3\n      add\n      swap2\n    tag_113:\n      pop\n      pop\n      pop\n      pop\n      pop\n      swap1\n      pop\n        /* \"contracts/BusinessConsensus.sol\":1967:2067  function getValues() public view returns (string memory){... */\n      swap1\n      jump\t// out\n        /* \"contracts/BusinessConsensus.sol\":3284:4218  function Vote(string memory response) external {... */\n    tag_41:\n        /* \"contracts/BusinessConsensus.sol\":3398:3408  expiryDate */\n      sload(0x01)\n        /* \"contracts/BusinessConsensus.sol\":3380:3395  block.timestamp */\n      timestamp\n        /* \"contracts/BusinessConsensus.sol\":3380:3408  block.timestamp < expiryDate */\n      lt\n        /* \"contracts/BusinessConsensus.sol\":3372:3431  require(block.timestamp < expiryDate, \"Voting has expired\") */\n      tag_117\n      jumpi\n      mload(0x40)\n      0x08c379a000000000000000000000000000000000000000000000000000000000\n      dup2\n      mstore\n      0x04\n      add\n      tag_118\n      swap1\n      tag_119\n      jump\t// in\n    tag_118:\n      mload(0x40)\n      dup1\n      swap2\n      sub\n      swap1\n      revert\n    tag_117:\n        /* \"contracts/BusinessConsensus.sol\":3442:3469  Voter memory recipientVoter */\n      0x00\n        /* \"contracts/BusinessConsensus.sol\":3472:3482  voters_map */\n      0x0a\n        /* \"contracts/BusinessConsensus.sol\":3472:3494  voters_map[msg.sender] */\n      0x00\n        /* \"contracts/BusinessConsensus.sol\":3483:3493  msg.sender */\n      caller\n        /* \"contracts/BusinessConsensus.sol\":3472:3494  voters_map[msg.sender] */\n      0xffffffffffffffffffffffffffffffffffffffff\n      and\n      0xffffffffffffffffffffffffffffffffffffffff\n      and\n      dup2\n      mstore\n      0x20\n      add\n      swap1\n      dup2\n      mstore\n      0x20\n      add\n      0x00\n      keccak256\n        /* \"contracts/BusinessConsensus.sol\":3442:3494  Voter memory recipientVoter = voters_map[msg.sender] */\n      mload(0x40)\n      dup1\n      0x60\n      add\n      0x40\n      mstore\n      swap1\n      dup2\n      0x00\n      dup3\n      add\n      0x00\n      swap1\n      sload\n      swap1\n      0x0100\n      exp\n      swap1\n      div\n      0xff\n      and\n      iszero\n      iszero\n      iszero\n      iszero\n      dup2\n      mstore\n      0x20\n      add\n      0x00\n      dup3\n      add\n      0x01\n      swap1\n      sload\n      swap1\n      0x0100\n      exp\n      swap1\n      div\n      0xffffffffffffffffffffffffffffffffffffffff\n      and\n      0xffffffffffffffffffffffffffffffffffffffff\n      and\n      0xffffffffffffffffffffffffffffffffffffffff\n      and\n      dup2\n      mstore\n      0x20\n      add\n      0x00\n      dup3\n      add\n      0x15\n      swap1\n      sload\n      swap1\n      0x0100\n      exp\n      swap1\n      div\n      0xff\n      and\n      iszero\n      iszero\n      iszero\n      iszero\n      dup2\n      mstore\n      pop\n      pop\n      swap1\n      pop\n        /* \"contracts/BusinessConsensus.sol\":3549:3552  0x0 */\n      0x00\n        /* \"contracts/BusinessConsensus.sol\":3513:3553  recipientVoter.recipient != address(0x0) */\n      0xffffffffffffffffffffffffffffffffffffffff\n      and\n        /* \"contracts/BusinessConsensus.sol\":3513:3527  recipientVoter */\n      dup2\n        /* \"contracts/BusinessConsensus.sol\":3513:3537  recipientVoter.recipient */\n      0x20\n      add\n      mload\n        /* \"contracts/BusinessConsensus.sol\":3513:3553  recipientVoter.recipient != address(0x0) */\n      0xffffffffffffffffffffffffffffffffffffffff\n      and\n      sub\n        /* \"contracts/BusinessConsensus.sol\":3505:3588  require(recipientVoter.recipient != address(0x0), \"You are not registered to vote\") */\n      tag_120\n      jumpi\n      mload(0x40)\n      0x08c379a000000000000000000000000000000000000000000000000000000000\n      dup2\n      mstore\n      0x04\n      add\n      tag_121\n      swap1\n      tag_122\n      jump\t// in\n    tag_121:\n      mload(0x40)\n      dup1\n      swap2\n      sub\n      swap1\n      revert\n    tag_120:\n        /* \"contracts/BusinessConsensus.sol\":3608:3622  recipientVoter */\n      dup1\n        /* \"contracts/BusinessConsensus.sol\":3608:3628  recipientVoter.voted */\n      0x00\n      add\n      mload\n        /* \"contracts/BusinessConsensus.sol\":3607:3628  !recipientVoter.voted */\n      iszero\n        /* \"contracts/BusinessConsensus.sol\":3599:3661  require(!recipientVoter.voted, \"You already sent a response.\") */\n      tag_123\n      jumpi\n      mload(0x40)\n      0x08c379a000000000000000000000000000000000000000000000000000000000\n      dup2\n      mstore\n      0x04\n      add\n      tag_124\n      swap1\n      tag_125\n      jump\t// in\n    tag_124:\n      mload(0x40)\n      dup1\n      swap2\n      sub\n      swap1\n      revert\n    tag_123:\n        /* \"contracts/BusinessConsensus.sol\":3717:3735  bytes(\"i approve\") */\n      mload(0x40)\n      dup1\n      0x40\n      add\n      0x40\n      mstore\n      dup1\n      0x09\n      dup2\n      mstore\n      0x20\n      add\n      0x6920617070726f76650000000000000000000000000000000000000000000000\n      dup2\n      mstore\n      pop\n        /* \"contracts/BusinessConsensus.sol\":3707:3736  keccak256(bytes(\"i approve\")) */\n      dup1\n      mload\n      swap1\n      0x20\n      add\n      keccak256\n        /* \"contracts/BusinessConsensus.sol\":3693:3701  response */\n      dup3\n        /* \"contracts/BusinessConsensus.sol\":3677:3703  keccak256(bytes(response)) */\n      dup1\n      mload\n      swap1\n      0x20\n      add\n      keccak256\n        /* \"contracts/BusinessConsensus.sol\":3677:3736  keccak256(bytes(response)) == keccak256(bytes(\"i approve\")) */\n      sub\n        /* \"contracts/BusinessConsensus.sol\":3674:4201  if(keccak256(bytes(response)) == keccak256(bytes(\"i approve\"))){... */\n      tag_126\n      jumpi\n        /* \"contracts/BusinessConsensus.sol\":3783:3787  true */\n      0x01\n        /* \"contracts/BusinessConsensus.sol\":3752:3762  voters_map */\n      0x0a\n        /* \"contracts/BusinessConsensus.sol\":3752:3774  voters_map[msg.sender] */\n      0x00\n        /* \"contracts/BusinessConsensus.sol\":3763:3773  msg.sender */\n      caller\n        /* \"contracts/BusinessConsensus.sol\":3752:3774  voters_map[msg.sender] */\n      0xffffffffffffffffffffffffffffffffffffffff\n      and\n      0xffffffffffffffffffffffffffffffffffffffff\n      and\n      dup2\n      mstore\n      0x20\n      add\n      swap1\n      dup2\n      mstore\n      0x20\n      add\n      0x00\n      keccak256\n        /* \"contracts/BusinessConsensus.sol\":3752:3780  voters_map[msg.sender].voted */\n      0x00\n      add\n      0x00\n        /* \"contracts/BusinessConsensus.sol\":3752:3787  voters_map[msg.sender].voted = true */\n      0x0100\n      exp\n      dup2\n      sload\n      dup2\n      0xff\n      mul\n      not\n      and\n      swap1\n      dup4\n      iszero\n      iszero\n      mul\n      or\n      swap1\n      sstore\n      pop\n        /* \"contracts/BusinessConsensus.sol\":3832:3836  true */\n      0x01\n        /* \"contracts/BusinessConsensus.sol\":3802:3812  voters_map */\n      0x0a\n        /* \"contracts/BusinessConsensus.sol\":3802:3824  voters_map[msg.sender] */\n      0x00\n        /* \"contracts/BusinessConsensus.sol\":3813:3823  msg.sender */\n      caller\n        /* \"contracts/BusinessConsensus.sol\":3802:3824  voters_map[msg.sender] */\n      0xffffffffffffffffffffffffffffffffffffffff\n      and\n      0xffffffffffffffffffffffffffffffffffffffff\n      and\n      dup2\n      mstore\n      0x20\n      add\n      swap1\n      dup2\n      mstore\n      0x20\n      add\n      0x00\n      keccak256\n        /* \"contracts/BusinessConsensus.sol\":3802:3829  voters_map[msg.sender].vote */\n      0x00\n      add\n      0x15\n        /* \"contracts/BusinessConsensus.sol\":3802:3836  voters_map[msg.sender].vote = true */\n      0x0100\n      exp\n      dup2\n      sload\n      dup2\n      0xff\n      mul\n      not\n      and\n      swap1\n      dup4\n      iszero\n      iszero\n      mul\n      or\n      swap1\n      sstore\n      pop\n        /* \"contracts/BusinessConsensus.sol\":3867:3868  1 */\n      0x01\n        /* \"contracts/BusinessConsensus.sol\":3851:3863  numApprovals */\n      0x06\n      0x00\n        /* \"contracts/BusinessConsensus.sol\":3851:3868  numApprovals += 1 */\n      dup3\n      dup3\n      sload\n      tag_127\n      swap2\n      swap1\n      tag_128\n      jump\t// in\n    tag_127:\n      swap3\n      pop\n      pop\n      dup2\n      swap1\n      sstore\n      pop\n        /* \"contracts/BusinessConsensus.sol\":3905:3906  1 */\n      0x01\n        /* \"contracts/BusinessConsensus.sol\":3883:3891  proposal */\n      0x0b\n        /* \"contracts/BusinessConsensus.sol\":3883:3901  proposal.voteCount */\n      0x00\n      add\n      0x00\n        /* \"contracts/BusinessConsensus.sol\":3883:3906  proposal.voteCount += 1 */\n      dup3\n      dup3\n      sload\n      tag_129\n      swap2\n      swap1\n      tag_128\n      jump\t// in\n    tag_129:\n      swap3\n      pop\n      pop\n      dup2\n      swap1\n      sstore\n      pop\n        /* \"contracts/BusinessConsensus.sol\":3921:3927  voters */\n      0x08\n        /* \"contracts/BusinessConsensus.sol\":3933:3943  voters_map */\n      0x0a\n        /* \"contracts/BusinessConsensus.sol\":3933:3955  voters_map[msg.sender] */\n      0x00\n        /* \"contracts/BusinessConsensus.sol\":3944:3954  msg.sender */\n      caller\n        /* \"contracts/BusinessConsensus.sol\":3933:3955  voters_map[msg.sender] */\n      0xffffffffffffffffffffffffffffffffffffffff\n      and\n      0xffffffffffffffffffffffffffffffffffffffff\n      and\n      dup2\n      mstore\n      0x20\n      add\n      swap1\n      dup2\n      mstore\n      0x20\n      add\n      0x00\n      keccak256\n        /* \"contracts/BusinessConsensus.sol\":3921:3956  voters.push(voters_map[msg.sender]) */\n      swap1\n      dup1\n      0x01\n      dup2\n      sload\n      add\n      dup1\n      dup3\n      sstore\n      dup1\n      swap2\n      pop\n      pop\n      0x01\n      swap1\n      sub\n      swap1\n      0x00\n      mstore\n      keccak256(0x00, 0x20)\n      add\n      0x00\n      swap1\n      swap2\n      swap1\n      swap2\n      swap1\n      swap2\n      pop\n      0x00\n      dup3\n      add\n      0x00\n      swap1\n      sload\n      swap1\n      0x0100\n      exp\n      swap1\n      div\n      0xff\n      and\n      dup2\n      0x00\n      add\n      exp(0x0100, 0x00)\n      dup2\n      sload\n      dup2\n      0xff\n      mul\n      not\n      and\n      swap1\n      dup4\n      iszero\n      iszero\n      mul\n      or\n      swap1\n      sstore\n      pop\n      0x00\n      dup3\n      add\n      0x01\n      swap1\n      sload\n      swap1\n      0x0100\n      exp\n      swap1\n      div\n      0xffffffffffffffffffffffffffffffffffffffff\n      and\n      dup2\n      0x00\n      add\n      exp(0x0100, 0x01)\n      dup2\n      sload\n      dup2\n      0xffffffffffffffffffffffffffffffffffffffff\n      mul\n      not\n      and\n      swap1\n      dup4\n      0xffffffffffffffffffffffffffffffffffffffff\n      and\n      mul\n      or\n      swap1\n      sstore\n      pop\n      0x00\n      dup3\n      add\n      0x15\n      swap1\n      sload\n      swap1\n      0x0100\n      exp\n      swap1\n      div\n      0xff\n      and\n      dup2\n      0x00\n      add\n      exp(0x0100, 0x15)\n      dup2\n      sload\n      dup2\n      0xff\n      mul\n      not\n      and\n      swap1\n      dup4\n      iszero\n      iszero\n      mul\n      or\n      swap1\n      sstore\n      pop\n      pop\n      pop\n        /* \"contracts/BusinessConsensus.sol\":3674:4201  if(keccak256(bytes(response)) == keccak256(bytes(\"i approve\"))){... */\n      jump(tag_131)\n    tag_126:\n        /* \"contracts/BusinessConsensus.sol\":4028:4049  bytes(\"i disapprove\") */\n      mload(0x40)\n      dup1\n      0x40\n      add\n      0x40\n      mstore\n      dup1\n      0x0c\n      dup2\n      mstore\n      0x20\n      add\n      0x6920646973617070726f76650000000000000000000000000000000000000000\n      dup2\n      mstore\n      pop\n        /* \"contracts/BusinessConsensus.sol\":4018:4050  keccak256(bytes(\"i disapprove\")) */\n      dup1\n      mload\n      swap1\n      0x20\n      add\n      keccak256\n        /* \"contracts/BusinessConsensus.sol\":4004:4012  response */\n      dup3\n        /* \"contracts/BusinessConsensus.sol\":3988:4014  keccak256(bytes(response)) */\n      dup1\n      mload\n      swap1\n      0x20\n      add\n      keccak256\n        /* \"contracts/BusinessConsensus.sol\":3988:4050  keccak256(bytes(response)) == keccak256(bytes(\"i disapprove\")) */\n      sub\n        /* \"contracts/BusinessConsensus.sol\":3985:4201  if(keccak256(bytes(response)) == keccak256(bytes(\"i disapprove\"))){... */\n      tag_132\n      jumpi\n        /* \"contracts/BusinessConsensus.sol\":4097:4101  true */\n      0x01\n        /* \"contracts/BusinessConsensus.sol\":4066:4076  voters_map */\n      0x0a\n        /* \"contracts/BusinessConsensus.sol\":4066:4088  voters_map[msg.sender] */\n      0x00\n        /* \"contracts/BusinessConsensus.sol\":4077:4087  msg.sender */\n      caller\n        /* \"contracts/BusinessConsensus.sol\":4066:4088  voters_map[msg.sender] */\n      0xffffffffffffffffffffffffffffffffffffffff\n      and\n      0xffffffffffffffffffffffffffffffffffffffff\n      and\n      dup2\n      mstore\n      0x20\n      add\n      swap1\n      dup2\n      mstore\n      0x20\n      add\n      0x00\n      keccak256\n        /* \"contracts/BusinessConsensus.sol\":4066:4094  voters_map[msg.sender].voted */\n      0x00\n      add\n      0x00\n        /* \"contracts/BusinessConsensus.sol\":4066:4101  voters_map[msg.sender].voted = true */\n      0x0100\n      exp\n      dup2\n      sload\n      dup2\n      0xff\n      mul\n      not\n      and\n      swap1\n      dup4\n      iszero\n      iszero\n      mul\n      or\n      swap1\n      sstore\n      pop\n        /* \"contracts/BusinessConsensus.sol\":4138:4139  1 */\n      0x01\n        /* \"contracts/BusinessConsensus.sol\":4116:4124  proposal */\n      0x0b\n        /* \"contracts/BusinessConsensus.sol\":4116:4134  proposal.voteCount */\n      0x00\n      add\n      0x00\n        /* \"contracts/BusinessConsensus.sol\":4116:4139  proposal.voteCount += 1 */\n      dup3\n      dup3\n      sload\n      tag_133\n      swap2\n      swap1\n      tag_128\n      jump\t// in\n    tag_133:\n      swap3\n      pop\n      pop\n      dup2\n      swap1\n      sstore\n      pop\n        /* \"contracts/BusinessConsensus.sol\":4154:4160  voters */\n      0x08\n        /* \"contracts/BusinessConsensus.sol\":4166:4176  voters_map */\n      0x0a\n        /* \"contracts/BusinessConsensus.sol\":4166:4188  voters_map[msg.sender] */\n      0x00\n        /* \"contracts/BusinessConsensus.sol\":4177:4187  msg.sender */\n      caller\n        /* \"contracts/BusinessConsensus.sol\":4166:4188  voters_map[msg.sender] */\n      0xffffffffffffffffffffffffffffffffffffffff\n      and\n      0xffffffffffffffffffffffffffffffffffffffff\n      and\n      dup2\n      mstore\n      0x20\n      add\n      swap1\n      dup2\n      mstore\n      0x20\n      add\n      0x00\n      keccak256\n        /* \"contracts/BusinessConsensus.sol\":4154:4189  voters.push(voters_map[msg.sender]) */\n      swap1\n      dup1\n      0x01\n      dup2\n      sload\n      add\n      dup1\n      dup3\n      sstore\n      dup1\n      swap2\n      pop\n      pop\n      0x01\n      swap1\n      sub\n      swap1\n      0x00\n      mstore\n      keccak256(0x00, 0x20)\n      add\n      0x00\n      swap1\n      swap2\n      swap1\n      swap2\n      swap1\n      swap2\n      pop\n      0x00\n      dup3\n      add\n      0x00\n      swap1\n      sload\n      swap1\n      0x0100\n      exp\n      swap1\n      div\n      0xff\n      and\n      dup2\n      0x00\n      add\n      exp(0x0100, 0x00)\n      dup2\n      sload\n      dup2\n      0xff\n      mul\n      not\n      and\n      swap1\n      dup4\n      iszero\n      iszero\n      mul\n      or\n      swap1\n      sstore\n      pop\n      0x00\n      dup3\n      add\n      0x01\n      swap1\n      sload\n      swap1\n      0x0100\n      exp\n      swap1\n      div\n      0xffffffffffffffffffffffffffffffffffffffff\n      and\n      dup2\n      0x00\n      add\n      exp(0x0100, 0x01)\n      dup2\n      sload\n      dup2\n      0xffffffffffffffffffffffffffffffffffffffff\n      mul\n      not\n      and\n      swap1\n      dup4\n      0xffffffffffffffffffffffffffffffffffffffff\n      and\n      mul\n      or\n      swap1\n      sstore\n      pop\n      0x00\n      dup3\n      add\n      0x15\n      swap1\n      sload\n      swap1\n      0x0100\n      exp\n      swap1\n      div\n      0xff\n      and\n      dup2\n      0x00\n      add\n      exp(0x0100, 0x15)\n      dup2\n      sload\n      dup2\n      0xff\n      mul\n      not\n      and\n      swap1\n      dup4\n      iszero\n      iszero\n      mul\n      or\n      swap1\n      sstore\n      pop\n      pop\n      pop\n        /* \"contracts/BusinessConsensus.sol\":3985:4201  if(keccak256(bytes(response)) == keccak256(bytes(\"i disapprove\"))){... */\n    tag_132:\n        /* \"contracts/BusinessConsensus.sol\":3674:4201  if(keccak256(bytes(response)) == keccak256(bytes(\"i approve\"))){... */\n    tag_131:\n        /* \"contracts/BusinessConsensus.sol\":3331:4218  {... */\n      pop\n        /* \"contracts/BusinessConsensus.sol\":3284:4218  function Vote(string memory response) external {... */\n      pop\n      jump\t// out\n        /* \"contracts/BusinessConsensus.sol\":1372:1392  Bundle public bundle */\n    tag_43:\n      0x0d\n      dup1\n      0x00\n      add\n      dup1\n      sload\n      tag_135\n      swap1\n      tag_111\n      jump\t// in\n    tag_135:\n      dup1\n      0x1f\n      add\n      0x20\n      dup1\n      swap2\n      div\n      mul\n      0x20\n      add\n      mload(0x40)\n      swap1\n      dup2\n      add\n      0x40\n      mstore\n      dup1\n      swap3\n      swap2\n      swap1\n      dup2\n      dup2\n      mstore\n      0x20\n      add\n      dup3\n      dup1\n      sload\n      tag_136\n      swap1\n      tag_111\n      jump\t// in\n    tag_136:\n      dup1\n      iszero\n      tag_137\n      jumpi\n      dup1\n      0x1f\n      lt\n      tag_138\n      jumpi\n      0x0100\n      dup1\n      dup4\n      sload\n      div\n      mul\n      dup4\n      mstore\n      swap2\n      0x20\n      add\n      swap2\n      jump(tag_137)\n    tag_138:\n      dup3\n      add\n      swap2\n      swap1\n      0x00\n      mstore\n      keccak256(0x00, 0x20)\n      swap1\n    tag_139:\n      dup2\n      sload\n      dup2\n      mstore\n      swap1\n      0x01\n      add\n      swap1\n      0x20\n      add\n      dup1\n      dup4\n      gt\n      tag_139\n      jumpi\n      dup3\n      swap1\n      sub\n      0x1f\n      and\n      dup3\n      add\n      swap2\n    tag_137:\n      pop\n      pop\n      pop\n      pop\n      pop\n      swap1\n      dup1\n      0x01\n      add\n      mload(0x40)\n      dup1\n      0x40\n      add\n      0x40\n      mstore\n      swap1\n      dup2\n      0x00\n      dup3\n      add\n      sload\n      dup2\n      mstore\n      0x20\n      add\n      0x01\n      dup3\n      add\n      dup1\n      sload\n      tag_140\n      swap1\n      tag_111\n      jump\t// in\n    tag_140:\n      dup1\n      0x1f\n      add\n      0x20\n      dup1\n      swap2\n      div\n      mul\n      0x20\n      add\n      mload(0x40)\n      swap1\n      dup2\n      add\n      0x40\n      mstore\n      dup1\n      swap3\n      swap2\n      swap1\n      dup2\n      dup2\n      mstore\n      0x20\n      add\n      dup3\n      dup1\n      sload\n      tag_141\n      swap1\n      tag_111\n      jump\t// in\n    tag_141:\n      dup1\n      iszero\n      tag_142\n      jumpi\n      dup1\n      0x1f\n      lt\n      tag_143\n      jumpi\n      0x0100\n      dup1\n      dup4\n      sload\n      div\n      mul\n      dup4\n      mstore\n      swap2\n      0x20\n      add\n      swap2\n      jump(tag_142)\n    tag_143:\n      dup3\n      add\n      swap2\n      swap1\n      0x00\n      mstore\n      keccak256(0x00, 0x20)\n      swap1\n    tag_144:\n      dup2\n      sload\n      dup2\n      mstore\n      swap1\n      0x01\n      add\n      swap1\n      0x20\n      add\n      dup1\n      dup4\n      gt\n      tag_144\n      jumpi\n      dup3\n      swap1\n      sub\n      0x1f\n      and\n      dup3\n      add\n      swap2\n    tag_142:\n      pop\n      pop\n      pop\n      pop\n      pop\n      dup2\n      mstore\n      pop\n      pop\n      swap1\n      pop\n      dup3\n      jump\t// out\n        /* \"contracts/BusinessConsensus.sol\":2267:2479  function getParameters2(address test_address) public view returns (bool, bool, address){... */\n    tag_48:\n        /* \"contracts/BusinessConsensus.sol\":2334:2338  bool */\n      0x00\n        /* \"contracts/BusinessConsensus.sol\":2340:2344  bool */\n      dup1\n        /* \"contracts/BusinessConsensus.sol\":2346:2353  address */\n      0x00\n        /* \"contracts/BusinessConsensus.sol\":2373:2383  voters_map */\n      0x0a\n        /* \"contracts/BusinessConsensus.sol\":2373:2397  voters_map[test_address] */\n      0x00\n        /* \"contracts/BusinessConsensus.sol\":2384:2396  test_address */\n      dup6\n        /* \"contracts/BusinessConsensus.sol\":2373:2397  voters_map[test_address] */\n      0xffffffffffffffffffffffffffffffffffffffff\n      and\n      0xffffffffffffffffffffffffffffffffffffffff\n      and\n      dup2\n      mstore\n      0x20\n      add\n      swap1\n      dup2\n      mstore\n      0x20\n      add\n      0x00\n      keccak256\n        /* \"contracts/BusinessConsensus.sol\":2373:2402  voters_map[test_address].vote */\n      0x00\n      add\n      0x15\n      swap1\n      sload\n      swap1\n      0x0100\n      exp\n      swap1\n      div\n      0xff\n      and\n        /* \"contracts/BusinessConsensus.sol\":2404:2414  voters_map */\n      0x0a\n        /* \"contracts/BusinessConsensus.sol\":2404:2428  voters_map[test_address] */\n      0x00\n        /* \"contracts/BusinessConsensus.sol\":2415:2427  test_address */\n      dup7\n        /* \"contracts/BusinessConsensus.sol\":2404:2428  voters_map[test_address] */\n      0xffffffffffffffffffffffffffffffffffffffff\n      and\n      0xffffffffffffffffffffffffffffffffffffffff\n      and\n      dup2\n      mstore\n      0x20\n      add\n      swap1\n      dup2\n      mstore\n      0x20\n      add\n      0x00\n      keccak256\n        /* \"contracts/BusinessConsensus.sol\":2404:2434  voters_map[test_address].voted */\n      0x00\n      add\n      0x00\n      swap1\n      sload\n      swap1\n      0x0100\n      exp\n      swap1\n      div\n      0xff\n      and\n        /* \"contracts/BusinessConsensus.sol\":2436:2446  voters_map */\n      0x0a\n        /* \"contracts/BusinessConsensus.sol\":2436:2460  voters_map[test_address] */\n      0x00\n        /* \"contracts/BusinessConsensus.sol\":2447:2459  test_address */\n      dup8\n        /* \"contracts/BusinessConsensus.sol\":2436:2460  voters_map[test_address] */\n      0xffffffffffffffffffffffffffffffffffffffff\n      and\n      0xffffffffffffffffffffffffffffffffffffffff\n      and\n      dup2\n      mstore\n      0x20\n      add\n      swap1\n      dup2\n      mstore\n      0x20\n      add\n      0x00\n      keccak256\n        /* \"contracts/BusinessConsensus.sol\":2436:2470  voters_map[test_address].recipient */\n      0x00\n      add\n      0x01\n      swap1\n      sload\n      swap1\n      0x0100\n      exp\n      swap1\n      div\n      0xffffffffffffffffffffffffffffffffffffffff\n      and\n        /* \"contracts/BusinessConsensus.sol\":2365:2471  return (voters_map[test_address].vote, voters_map[test_address].voted, voters_map[test_address].recipient) */\n      swap3\n      pop\n      swap3\n      pop\n      swap3\n      pop\n        /* \"contracts/BusinessConsensus.sol\":2267:2479  function getParameters2(address test_address) public view returns (bool, bool, address){... */\n      swap2\n      swap4\n      swap1\n      swap3\n      pop\n      jump\t// out\n        /* \"contracts/BusinessConsensus.sol\":982:1006  address public initiator */\n    tag_52:\n      0x03\n      0x00\n      swap1\n      sload\n      swap1\n      0x0100\n      exp\n      swap1\n      div\n      0xffffffffffffffffffffffffffffffffffffffff\n      and\n      dup2\n      jump\t// out\n        /* \"contracts/BusinessConsensus.sol\":1055:1088  uint public AccumulatedPercentage */\n    tag_55:\n      sload(0x05)\n      dup2\n      jump\t// out\n        /* \"contracts/BusinessConsensus.sol\":1095:1119  uint public numApprovals */\n    tag_59:\n      sload(0x06)\n      dup2\n      jump\t// out\n        /* \"contracts/BusinessConsensus.sol\":1339:1363  Proposal public proposal */\n    tag_62:\n      0x0b\n      dup1\n      0x00\n      add\n      sload\n      swap1\n      dup1\n      0x01\n      add\n      dup1\n      sload\n      tag_146\n      swap1\n      tag_111\n      jump\t// in\n    tag_146:\n      dup1\n      0x1f\n      add\n      0x20\n      dup1\n      swap2\n      div\n      mul\n      0x20\n      add\n      mload(0x40)\n      swap1\n      dup2\n      add\n      0x40\n      mstore\n      dup1\n      swap3\n      swap2\n      swap1\n      dup2\n      dup2\n      mstore\n      0x20\n      add\n      dup3\n      dup1\n      sload\n      tag_147\n      swap1\n      tag_111\n      jump\t// in\n    tag_147:\n      dup1\n      iszero\n      tag_148\n      jumpi\n      dup1\n      0x1f\n      lt\n      tag_149\n      jumpi\n      0x0100\n      dup1\n      dup4\n      sload\n      div\n      mul\n      dup4\n      mstore\n      swap2\n      0x20\n      add\n      swap2\n      jump(tag_148)\n    tag_149:\n      dup3\n      add\n      swap2\n      swap1\n      0x00\n      mstore\n      keccak256(0x00, 0x20)\n      swap1\n    tag_150:\n      dup2\n      sload\n      dup2\n      mstore\n      swap1\n      0x01\n      add\n      swap1\n      0x20\n      add\n      dup1\n      dup4\n      gt\n      tag_150\n      jumpi\n      dup3\n      swap1\n      sub\n      0x1f\n      and\n      dup3\n      add\n      swap2\n    tag_148:\n      pop\n      pop\n      pop\n      pop\n      pop\n      swap1\n      pop\n      dup3\n      jump\t// out\n        /* \"contracts/BusinessConsensus.sol\":4995:5184  function retrieve_bundle() public view returns (Bundle memory){... */\n    tag_66:\n        /* \"contracts/BusinessConsensus.sol\":5043:5056  Bundle memory */\n      tag_151\n      tag_152\n      jump\t// in\n    tag_151:\n        /* \"contracts/BusinessConsensus.sol\":5095:5105  expiryDate */\n      sload(0x01)\n        /* \"contracts/BusinessConsensus.sol\":5076:5091  block.timestamp */\n      timestamp\n        /* \"contracts/BusinessConsensus.sol\":5076:5105  block.timestamp >= expiryDate */\n      lt\n      iszero\n        /* \"contracts/BusinessConsensus.sol\":5068:5142  require(block.timestamp >= expiryDate, \"Verdict has not been reached yet\") */\n      tag_154\n      jumpi\n      mload(0x40)\n      0x08c379a000000000000000000000000000000000000000000000000000000000\n      dup2\n      mstore\n      0x04\n      add\n      tag_155\n      swap1\n      tag_156\n      jump\t// in\n    tag_155:\n      mload(0x40)\n      dup1\n      swap2\n      sub\n      swap1\n      revert\n    tag_154:\n        /* \"contracts/BusinessConsensus.sol\":5160:5166  bundle */\n      0x0d\n        /* \"contracts/BusinessConsensus.sol\":5153:5166  return bundle */\n      mload(0x40)\n      dup1\n      0x60\n      add\n      0x40\n      mstore\n      swap1\n      dup2\n      0x00\n      dup3\n      add\n      dup1\n      sload\n      tag_157\n      swap1\n      tag_111\n      jump\t// in\n    tag_157:\n      dup1\n      0x1f\n      add\n      0x20\n      dup1\n      swap2\n      div\n      mul\n      0x20\n      add\n      mload(0x40)\n      swap1\n      dup2\n      add\n      0x40\n      mstore\n      dup1\n      swap3\n      swap2\n      swap1\n      dup2\n      dup2\n      mstore\n      0x20\n      add\n      dup3\n      dup1\n      sload\n      tag_158\n      swap1\n      tag_111\n      jump\t// in\n    tag_158:\n      dup1\n      iszero\n      tag_159\n      jumpi\n      dup1\n      0x1f\n      lt\n      tag_160\n      jumpi\n      0x0100\n      dup1\n      dup4\n      sload\n      div\n      mul\n      dup4\n      mstore\n      swap2\n      0x20\n      add\n      swap2\n      jump(tag_159)\n    tag_160:\n      dup3\n      add\n      swap2\n      swap1\n      0x00\n      mstore\n      keccak256(0x00, 0x20)\n      swap1\n    tag_161:\n      dup2\n      sload\n      dup2\n      mstore\n      swap1\n      0x01\n      add\n      swap1\n      0x20\n      add\n      dup1\n      dup4\n      gt\n      tag_161\n      jumpi\n      dup3\n      swap1\n      sub\n      0x1f\n      and\n      dup3\n      add\n      swap2\n    tag_159:\n      pop\n      pop\n      pop\n      pop\n      pop\n      dup2\n      mstore\n      0x20\n      add\n      0x01\n      dup3\n      add\n      mload(0x40)\n      dup1\n      0x40\n      add\n      0x40\n      mstore\n      swap1\n      dup2\n      0x00\n      dup3\n      add\n      sload\n      dup2\n      mstore\n      0x20\n      add\n      0x01\n      dup3\n      add\n      dup1\n      sload\n      tag_162\n      swap1\n      tag_111\n      jump\t// in\n    tag_162:\n      dup1\n      0x1f\n      add\n      0x20\n      dup1\n      swap2\n      div\n      mul\n      0x20\n      add\n      mload(0x40)\n      swap1\n      dup2\n      add\n      0x40\n      mstore\n      dup1\n      swap3\n      swap2\n      swap1\n      dup2\n      dup2\n      mstore\n      0x20\n      add\n      dup3\n      dup1\n      sload\n      tag_163\n      swap1\n      tag_111\n      jump\t// in\n    tag_163:\n      dup1\n      iszero\n      tag_164\n      jumpi\n      dup1\n      0x1f\n      lt\n      tag_165\n      jumpi\n      0x0100\n      dup1\n      dup4\n      sload\n      div\n      mul\n      dup4\n      mstore\n      swap2\n      0x20\n      add\n      swap2\n      jump(tag_164)\n    tag_165:\n      dup3\n      add\n      swap2\n      swap1\n      0x00\n      mstore\n      keccak256(0x00, 0x20)\n      swap1\n    tag_166:\n      dup2\n      sload\n      dup2\n      mstore\n      swap1\n      0x01\n      add\n      swap1\n      0x20\n      add\n      dup1\n      dup4\n      gt\n      tag_166\n      jumpi\n      dup3\n      swap1\n      sub\n      0x1f\n      and\n      dup3\n      add\n      swap2\n    tag_164:\n      pop\n      pop\n      pop\n      pop\n      pop\n      dup2\n      mstore\n      pop\n      pop\n      dup2\n      mstore\n      0x20\n      add\n      0x03\n      dup3\n      add\n      dup1\n      sload\n      dup1\n      0x20\n      mul\n      0x20\n      add\n      mload(0x40)\n      swap1\n      dup2\n      add\n      0x40\n      mstore\n      dup1\n      swap3\n      swap2\n      swap1\n      dup2\n      dup2\n      mstore\n      0x20\n      add\n      0x00\n      swap1\n    tag_167:\n      dup3\n      dup3\n      lt\n      iszero\n      tag_168\n      jumpi\n      dup4\n      dup3\n      swap1\n      0x00\n      mstore\n      keccak256(0x00, 0x20)\n      add\n      mload(0x40)\n      dup1\n      0x60\n      add\n      0x40\n      mstore\n      swap1\n      dup2\n      0x00\n      dup3\n      add\n      0x00\n      swap1\n      sload\n      swap1\n      0x0100\n      exp\n      swap1\n      div\n      0xff\n      and\n      iszero\n      iszero\n      iszero\n      iszero\n      dup2\n      mstore\n      0x20\n      add\n      0x00\n      dup3\n      add\n      0x01\n      swap1\n      sload\n      swap1\n      0x0100\n      exp\n      swap1\n      div\n      0xffffffffffffffffffffffffffffffffffffffff\n      and\n      0xffffffffffffffffffffffffffffffffffffffff\n      and\n      0xffffffffffffffffffffffffffffffffffffffff\n      and\n      dup2\n      mstore\n      0x20\n      add\n      0x00\n      dup3\n      add\n      0x15\n      swap1\n      sload\n      swap1\n      0x0100\n      exp\n      swap1\n      div\n      0xff\n      and\n      iszero\n      iszero\n      iszero\n      iszero\n      dup2\n      mstore\n      pop\n      pop\n      dup2\n      mstore\n      0x20\n      add\n      swap1\n      0x01\n      add\n      swap1\n      jump(tag_167)\n    tag_168:\n      pop\n      pop\n      pop\n      pop\n      dup2\n      mstore\n      pop\n      pop\n      swap1\n      pop\n        /* \"contracts/BusinessConsensus.sol\":4995:5184  function retrieve_bundle() public view returns (Bundle memory){... */\n      swap1\n      jump\t// out\n        /* \"contracts/BusinessConsensus.sol\":4282:4987  function Consensus() external {... */\n    tag_70:\n        /* \"contracts/BusinessConsensus.sol\":4350:4360  expiryDate */\n      sload(0x01)\n        /* \"contracts/BusinessConsensus.sol\":4331:4346  block.timestamp */\n      timestamp\n        /* \"contracts/BusinessConsensus.sol\":4331:4360  block.timestamp >= expiryDate */\n      lt\n      iszero\n        /* \"contracts/BusinessConsensus.sol\":4323:4397  require(block.timestamp >= expiryDate, \"Verdict has not been reached yet\") */\n      tag_171\n      jumpi\n      mload(0x40)\n      0x08c379a000000000000000000000000000000000000000000000000000000000\n      dup2\n      mstore\n      0x04\n      add\n      tag_172\n      swap1\n      tag_156\n      jump\t// in\n    tag_172:\n      mload(0x40)\n      dup1\n      swap2\n      sub\n      swap1\n      revert\n    tag_171:\n        /* \"contracts/BusinessConsensus.sol\":4434:4435  1 */\n      0x01\n        /* \"contracts/BusinessConsensus.sol\":4416:4430  numberCompiled */\n      sload(0x07)\n        /* \"contracts/BusinessConsensus.sol\":4416:4435  numberCompiled == 1 */\n      eq\n        /* \"contracts/BusinessConsensus.sol\":4408:4477  require(numberCompiled == 1, \"Consensus has already been calculated\") */\n      tag_173\n      jumpi\n      mload(0x40)\n      0x08c379a000000000000000000000000000000000000000000000000000000000\n      dup2\n      mstore\n      0x04\n      add\n      tag_174\n      swap1\n      tag_175\n      jump\t// in\n    tag_174:\n      mload(0x40)\n      dup1\n      swap2\n      sub\n      swap1\n      revert\n    tag_173:\n        /* \"contracts/BusinessConsensus.sol\":4539:4542  100 */\n      0x64\n        /* \"contracts/BusinessConsensus.sol\":4526:4530  keys */\n      0x09\n        /* \"contracts/BusinessConsensus.sol\":4526:4537  keys.length */\n      dup1\n      sload\n      swap1\n      pop\n        /* \"contracts/BusinessConsensus.sol\":4513:4525  numApprovals */\n      sload(0x06)\n        /* \"contracts/BusinessConsensus.sol\":4513:4537  numApprovals/keys.length */\n      tag_176\n      swap2\n      swap1\n      tag_177\n      jump\t// in\n    tag_176:\n        /* \"contracts/BusinessConsensus.sol\":4512:4542  (numApprovals/keys.length)*100 */\n      tag_178\n      swap2\n      swap1\n      tag_179\n      jump\t// in\n    tag_178:\n        /* \"contracts/BusinessConsensus.sol\":4488:4509  AccumulatedPercentage */\n      0x05\n        /* \"contracts/BusinessConsensus.sol\":4488:4542  AccumulatedPercentage = (numApprovals/keys.length)*100 */\n      dup2\n      swap1\n      sstore\n      pop\n        /* \"contracts/BusinessConsensus.sol\":4581:4600  BusinessRequirement */\n      sload(0x04)\n        /* \"contracts/BusinessConsensus.sol\":4556:4577  AccumulatedPercentage */\n      sload(0x05)\n        /* \"contracts/BusinessConsensus.sol\":4556:4600  AccumulatedPercentage >= BusinessRequirement */\n      lt\n        /* \"contracts/BusinessConsensus.sol\":4553:4653  if(AccumulatedPercentage >= BusinessRequirement){... */\n      tag_180\n      jumpi\n        /* \"contracts/BusinessConsensus.sol\":4616:4641  finalVerdict = \"Accepted\" */\n      mload(0x40)\n      dup1\n      0x40\n      add\n      0x40\n      mstore\n      dup1\n      0x08\n      dup2\n      mstore\n      0x20\n      add\n      0x4163636570746564000000000000000000000000000000000000000000000000\n      dup2\n      mstore\n      pop\n        /* \"contracts/BusinessConsensus.sol\":4616:4628  finalVerdict */\n      0x02\n        /* \"contracts/BusinessConsensus.sol\":4616:4641  finalVerdict = \"Accepted\" */\n      swap1\n      dup2\n      tag_181\n      swap2\n      swap1\n      tag_182\n      jump\t// in\n    tag_181:\n      pop\n        /* \"contracts/BusinessConsensus.sol\":4553:4653  if(AccumulatedPercentage >= BusinessRequirement){... */\n    tag_180:\n        /* \"contracts/BusinessConsensus.sol\":4667:4674  uint8 i */\n      0x00\n        /* \"contracts/BusinessConsensus.sol\":4663:4829  for(uint8 i=0; i< keys.length; i++){... */\n    tag_183:\n        /* \"contracts/BusinessConsensus.sol\":4681:4685  keys */\n      0x09\n        /* \"contracts/BusinessConsensus.sol\":4681:4692  keys.length */\n      dup1\n      sload\n      swap1\n      pop\n        /* \"contracts/BusinessConsensus.sol\":4678:4679  i */\n      dup2\n        /* \"contracts/BusinessConsensus.sol\":4678:4692  i< keys.length */\n      0xff\n      and\n      lt\n        /* \"contracts/BusinessConsensus.sol\":4663:4829  for(uint8 i=0; i< keys.length; i++){... */\n      iszero\n      tag_184\n      jumpi\n        /* \"contracts/BusinessConsensus.sol\":4745:4750  false */\n      0x00\n        /* \"contracts/BusinessConsensus.sol\":4716:4750  voters_map[keys[i]].voted == false */\n      iszero\n      iszero\n        /* \"contracts/BusinessConsensus.sol\":4716:4726  voters_map */\n      0x0a\n        /* \"contracts/BusinessConsensus.sol\":4716:4735  voters_map[keys[i]] */\n      0x00\n        /* \"contracts/BusinessConsensus.sol\":4727:4731  keys */\n      0x09\n        /* \"contracts/BusinessConsensus.sol\":4732:4733  i */\n      dup5\n        /* \"contracts/BusinessConsensus.sol\":4727:4734  keys[i] */\n      0xff\n      and\n      dup2\n      sload\n      dup2\n      lt\n      tag_186\n      jumpi\n      tag_187\n      tag_188\n      jump\t// in\n    tag_187:\n    tag_186:\n      swap1\n      0x00\n      mstore\n      keccak256(0x00, 0x20)\n      add\n      0x00\n      swap1\n      sload\n      swap1\n      0x0100\n      exp\n      swap1\n      div\n      0xffffffffffffffffffffffffffffffffffffffff\n      and\n        /* \"contracts/BusinessConsensus.sol\":4716:4735  voters_map[keys[i]] */\n      0xffffffffffffffffffffffffffffffffffffffff\n      and\n      0xffffffffffffffffffffffffffffffffffffffff\n      and\n      dup2\n      mstore\n      0x20\n      add\n      swap1\n      dup2\n      mstore\n      0x20\n      add\n      0x00\n      keccak256\n        /* \"contracts/BusinessConsensus.sol\":4716:4741  voters_map[keys[i]].voted */\n      0x00\n      add\n      0x00\n      swap1\n      sload\n      swap1\n      0x0100\n      exp\n      swap1\n      div\n      0xff\n      and\n        /* \"contracts/BusinessConsensus.sol\":4716:4750  voters_map[keys[i]].voted == false */\n      iszero\n      iszero\n      sub\n        /* \"contracts/BusinessConsensus.sol\":4713:4818  if(voters_map[keys[i]].voted == false){... */\n      tag_190\n      jumpi\n        /* \"contracts/BusinessConsensus.sol\":4770:4776  voters */\n      0x08\n        /* \"contracts/BusinessConsensus.sol\":4782:4792  voters_map */\n      0x0a\n        /* \"contracts/BusinessConsensus.sol\":4782:4801  voters_map[keys[i]] */\n      0x00\n        /* \"contracts/BusinessConsensus.sol\":4793:4797  keys */\n      0x09\n        /* \"contracts/BusinessConsensus.sol\":4798:4799  i */\n      dup5\n        /* \"contracts/BusinessConsensus.sol\":4793:4800  keys[i] */\n      0xff\n      and\n      dup2\n      sload\n      dup2\n      lt\n      tag_191\n      jumpi\n      tag_192\n      tag_188\n      jump\t// in\n    tag_192:\n    tag_191:\n      swap1\n      0x00\n      mstore\n      keccak256(0x00, 0x20)\n      add\n      0x00\n      swap1\n      sload\n      swap1\n      0x0100\n      exp\n      swap1\n      div\n      0xffffffffffffffffffffffffffffffffffffffff\n      and\n        /* \"contracts/BusinessConsensus.sol\":4782:4801  voters_map[keys[i]] */\n      0xffffffffffffffffffffffffffffffffffffffff\n      and\n      0xffffffffffffffffffffffffffffffffffffffff\n      and\n      dup2\n      mstore\n      0x20\n      add\n      swap1\n      dup2\n      mstore\n      0x20\n      add\n      0x00\n      keccak256\n        /* \"contracts/BusinessConsensus.sol\":4770:4802  voters.push(voters_map[keys[i]]) */\n      swap1\n      dup1\n      0x01\n      dup2\n      sload\n      add\n      dup1\n      dup3\n      sstore\n      dup1\n      swap2\n      pop\n      pop\n      0x01\n      swap1\n      sub\n      swap1\n      0x00\n      mstore\n      keccak256(0x00, 0x20)\n      add\n      0x00\n      swap1\n      swap2\n      swap1\n      swap2\n      swap1\n      swap2\n      pop\n      0x00\n      dup3\n      add\n      0x00\n      swap1\n      sload\n      swap1\n      0x0100\n      exp\n      swap1\n      div\n      0xff\n      and\n      dup2\n      0x00\n      add\n      exp(0x0100, 0x00)\n      dup2\n      sload\n      dup2\n      0xff\n      mul\n      not\n      and\n      swap1\n      dup4\n      iszero\n      iszero\n      mul\n      or\n      swap1\n      sstore\n      pop\n      0x00\n      dup3\n      add\n      0x01\n      swap1\n      sload\n      swap1\n      0x0100\n      exp\n      swap1\n      div\n      0xffffffffffffffffffffffffffffffffffffffff\n      and\n      dup2\n      0x00\n      add\n      exp(0x0100, 0x01)\n      dup2\n      sload\n      dup2\n      0xffffffffffffffffffffffffffffffffffffffff\n      mul\n      not\n      and\n      swap1\n      dup4\n      0xffffffffffffffffffffffffffffffffffffffff\n      and\n      mul\n      or\n      swap1\n      sstore\n      pop\n      0x00\n      dup3\n      add\n      0x15\n      swap1\n      sload\n      swap1\n      0x0100\n      exp\n      swap1\n      div\n      0xff\n      and\n      dup2\n      0x00\n      add\n      exp(0x0100, 0x15)\n      dup2\n      sload\n      dup2\n      0xff\n      mul\n      not\n      and\n      swap1\n      dup4\n      iszero\n      iszero\n      mul\n      or\n      swap1\n      sstore\n      pop\n      pop\n      pop\n        /* \"contracts/BusinessConsensus.sol\":4713:4818  if(voters_map[keys[i]].voted == false){... */\n    tag_190:\n        /* \"contracts/BusinessConsensus.sol\":4694:4697  i++ */\n      dup1\n      dup1\n      tag_195\n      swap1\n      tag_196\n      jump\t// in\n    tag_195:\n      swap2\n      pop\n      pop\n        /* \"contracts/BusinessConsensus.sol\":4663:4829  for(uint8 i=0; i< keys.length; i++){... */\n      jump(tag_183)\n    tag_184:\n      pop\n        /* \"contracts/BusinessConsensus.sol\":4839:4859  Bundle memory bundle */\n      0x00\n        /* \"contracts/BusinessConsensus.sol\":4862:4979  Bundle({... */\n      mload(0x40)\n      dup1\n      0x60\n      add\n      0x40\n      mstore\n      dup1\n        /* \"contracts/BusinessConsensus.sol\":4889:4901  finalVerdict */\n      0x02\n        /* \"contracts/BusinessConsensus.sol\":4862:4979  Bundle({... */\n      dup1\n      sload\n      tag_197\n      swap1\n      tag_111\n      jump\t// in\n    tag_197:\n      dup1\n      0x1f\n      add\n      0x20\n      dup1\n      swap2\n      div\n      mul\n      0x20\n      add\n      mload(0x40)\n      swap1\n      dup2\n      add\n      0x40\n      mstore\n      dup1\n      swap3\n      swap2\n      swap1\n      dup2\n      dup2\n      mstore\n      0x20\n      add\n      dup3\n      dup1\n      sload\n      tag_198\n      swap1\n      tag_111\n      jump\t// in\n    tag_198:\n      dup1\n      iszero\n      tag_199\n      jumpi\n      dup1\n      0x1f\n      lt\n      tag_200\n      jumpi\n      0x0100\n      dup1\n      dup4\n      sload\n      div\n      mul\n      dup4\n      mstore\n      swap2\n      0x20\n      add\n      swap2\n      jump(tag_199)\n    tag_200:\n      dup3\n      add\n      swap2\n      swap1\n      0x00\n      mstore\n      keccak256(0x00, 0x20)\n      swap1\n    tag_201:\n      dup2\n      sload\n      dup2\n      mstore\n      swap1\n      0x01\n      add\n      swap1\n      0x20\n      add\n      dup1\n      dup4\n      gt\n      tag_201\n      jumpi\n      dup3\n      swap1\n      sub\n      0x1f\n      and\n      dup3\n      add\n      swap2\n    tag_199:\n      pop\n      pop\n      pop\n      pop\n      pop\n      dup2\n      mstore\n      0x20\n      add\n        /* \"contracts/BusinessConsensus.sol\":4930:4938  proposal */\n      0x0b\n        /* \"contracts/BusinessConsensus.sol\":4862:4979  Bundle({... */\n      mload(0x40)\n      dup1\n      0x40\n      add\n      0x40\n      mstore\n      swap1\n      dup2\n      0x00\n      dup3\n      add\n      sload\n      dup2\n      mstore\n      0x20\n      add\n      0x01\n      dup3\n      add\n      dup1\n      sload\n      tag_202\n      swap1\n      tag_111\n      jump\t// in\n    tag_202:\n      dup1\n      0x1f\n      add\n      0x20\n      dup1\n      swap2\n      div\n      mul\n      0x20\n      add\n      mload(0x40)\n      swap1\n      dup2\n      add\n      0x40\n      mstore\n      dup1\n      swap3\n      swap2\n      swap1\n      dup2\n      dup2\n      mstore\n      0x20\n      add\n      dup3\n      dup1\n      sload\n      tag_203\n      swap1\n      tag_111\n      jump\t// in\n    tag_203:\n      dup1\n      iszero\n      tag_204\n      jumpi\n      dup1\n      0x1f\n      lt\n      tag_205\n      jumpi\n      0x0100\n      dup1\n      dup4\n      sload\n      div\n      mul\n      dup4\n      mstore\n      swap2\n      0x20\n      add\n      swap2\n      jump(tag_204)\n    tag_205:\n      dup3\n      add\n      swap2\n      swap1\n      0x00\n      mstore\n      keccak256(0x00, 0x20)\n      swap1\n    tag_206:\n      dup2\n      sload\n      dup2\n      mstore\n      swap1\n      0x01\n      add\n      swap1\n      0x20\n      add\n      dup1\n      dup4\n      gt\n      tag_206\n      jumpi\n      dup3\n      swap1\n      sub\n      0x1f\n      and\n      dup3\n      add\n      swap2\n    tag_204:\n      pop\n      pop\n      pop\n      pop\n      pop\n      dup2\n      mstore\n      pop\n      pop\n      dup2\n      mstore\n      0x20\n      add\n        /* \"contracts/BusinessConsensus.sol\":4961:4967  voters */\n      0x08\n        /* \"contracts/BusinessConsensus.sol\":4862:4979  Bundle({... */\n      dup1\n      sload\n      dup1\n      0x20\n      mul\n      0x20\n      add\n      mload(0x40)\n      swap1\n      dup2\n      add\n      0x40\n      mstore\n      dup1\n      swap3\n      swap2\n      swap1\n      dup2\n      dup2\n      mstore\n      0x20\n      add\n      0x00\n      swap1\n    tag_207:\n      dup3\n      dup3\n      lt\n      iszero\n      tag_208\n      jumpi\n      dup4\n      dup3\n      swap1\n      0x00\n      mstore\n      keccak256(0x00, 0x20)\n      add\n      mload(0x40)\n      dup1\n      0x60\n      add\n      0x40\n      mstore\n      swap1\n      dup2\n      0x00\n      dup3\n      add\n      0x00\n      swap1\n      sload\n      swap1\n      0x0100\n      exp\n      swap1\n      div\n      0xff\n      and\n      iszero\n      iszero\n      iszero\n      iszero\n      dup2\n      mstore\n      0x20\n      add\n      0x00\n      dup3\n      add\n      0x01\n      swap1\n      sload\n      swap1\n      0x0100\n      exp\n      swap1\n      div\n      0xffffffffffffffffffffffffffffffffffffffff\n      and\n      0xffffffffffffffffffffffffffffffffffffffff\n      and\n      0xffffffffffffffffffffffffffffffffffffffff\n      and\n      dup2\n      mstore\n      0x20\n      add\n      0x00\n      dup3\n      add\n      0x15\n      swap1\n      sload\n      swap1\n      0x0100\n      exp\n      swap1\n      div\n      0xff\n      and\n      iszero\n      iszero\n      iszero\n      iszero\n      dup2\n      mstore\n      pop\n      pop\n      dup2\n      mstore\n      0x20\n      add\n      swap1\n      0x01\n      add\n      swap1\n      jump(tag_207)\n    tag_208:\n      pop\n      pop\n      pop\n      pop\n      dup2\n      mstore\n      pop\n        /* \"contracts/BusinessConsensus.sol\":4839:4979  Bundle memory bundle = Bundle({... */\n      swap1\n      pop\n        /* \"contracts/BusinessConsensus.sol\":4312:4987  {... */\n      pop\n        /* \"contracts/BusinessConsensus.sol\":4282:4987  function Consensus() external {... */\n      jump\t// out\n        /* \"contracts/BusinessConsensus.sol\":1219:1262  mapping(address => Voter) public voters_map */\n    tag_73:\n      mstore(0x20, 0x0a)\n      dup1\n      0x00\n      mstore\n      keccak256(0x00, 0x40)\n      0x00\n      swap2\n      pop\n      swap1\n      pop\n      dup1\n      0x00\n      add\n      0x00\n      swap1\n      sload\n      swap1\n      0x0100\n      exp\n      swap1\n      div\n      0xff\n      and\n      swap1\n      dup1\n      0x00\n      add\n      0x01\n      swap1\n      sload\n      swap1\n      0x0100\n      exp\n      swap1\n      div\n      0xffffffffffffffffffffffffffffffffffffffff\n      and\n      swap1\n      dup1\n      0x00\n      add\n      0x15\n      swap1\n      sload\n      swap1\n      0x0100\n      exp\n      swap1\n      div\n      0xff\n      and\n      swap1\n      pop\n      dup4\n      jump\t// out\n        /* \"contracts/BusinessConsensus.sol\":2073:2261  function getParameters() public view returns (string memory, uint , address ,uint ,uint){... */\n    tag_77:\n        /* \"contracts/BusinessConsensus.sol\":2119:2132  string memory */\n      0x60\n        /* \"contracts/BusinessConsensus.sol\":2134:2138  uint */\n      0x00\n        /* \"contracts/BusinessConsensus.sol\":2141:2148  address */\n      dup1\n        /* \"contracts/BusinessConsensus.sol\":2150:2154  uint */\n      0x00\n        /* \"contracts/BusinessConsensus.sol\":2156:2160  uint */\n      dup1\n        /* \"contracts/BusinessConsensus.sol\":2180:2188  proposal */\n      0x0b\n        /* \"contracts/BusinessConsensus.sol\":2180:2198  proposal.messageID */\n      0x01\n      add\n        /* \"contracts/BusinessConsensus.sol\":2199:2209  expiryDate */\n      sload(0x01)\n        /* \"contracts/BusinessConsensus.sol\":2210:2219  initiator */\n      0x03\n      0x00\n      swap1\n      sload\n      swap1\n      0x0100\n      exp\n      swap1\n      div\n      0xffffffffffffffffffffffffffffffffffffffff\n      and\n        /* \"contracts/BusinessConsensus.sol\":2220:2239  BusinessRequirement */\n      sload(0x04)\n        /* \"contracts/BusinessConsensus.sol\":2240:2252  numApprovals */\n      sload(0x06)\n        /* \"contracts/BusinessConsensus.sol\":2172:2253  return (proposal.messageID,expiryDate,initiator,BusinessRequirement,numApprovals) */\n      dup5\n      dup1\n      sload\n      tag_211\n      swap1\n      tag_111\n      jump\t// in\n    tag_211:\n      dup1\n      0x1f\n      add\n      0x20\n      dup1\n      swap2\n      div\n      mul\n      0x20\n      add\n      mload(0x40)\n      swap1\n      dup2\n      add\n      0x40\n      mstore\n      dup1\n      swap3\n      swap2\n      swap1\n      dup2\n      dup2\n      mstore\n      0x20\n      add\n      dup3\n      dup1\n      sload\n      tag_212\n      swap1\n      tag_111\n      jump\t// in\n    tag_212:\n      dup1\n      iszero\n      tag_213\n      jumpi\n      dup1\n      0x1f\n      lt\n      tag_214\n      jumpi\n      0x0100\n      dup1\n      dup4\n      sload\n      div\n      mul\n      dup4\n      mstore\n      swap2\n      0x20\n      add\n      swap2\n      jump(tag_213)\n    tag_214:\n      dup3\n      add\n      swap2\n      swap1\n      0x00\n      mstore\n      keccak256(0x00, 0x20)\n      swap1\n    tag_215:\n      dup2\n      sload\n      dup2\n      mstore\n      swap1\n      0x01\n      add\n      swap1\n      0x20\n      add\n      dup1\n      dup4\n      gt\n      tag_215\n      jumpi\n      dup3\n      swap1\n      sub\n      0x1f\n      and\n      dup3\n      add\n      swap2\n    tag_213:\n      pop\n      pop\n      pop\n      pop\n      pop\n      swap5\n      pop\n      swap5\n      pop\n      swap5\n      pop\n      swap5\n      pop\n      swap5\n      pop\n      swap5\n      pop\n        /* \"contracts/BusinessConsensus.sol\":2073:2261  function getParameters() public view returns (string memory, uint , address ,uint ,uint){... */\n      swap1\n      swap2\n      swap3\n      swap4\n      swap5\n      jump\t// out\n        /* \"contracts/BusinessConsensus.sol\":1128:1154  uint public numberCompiled */\n    tag_81:\n      sload(0x07)\n      dup2\n      jump\t// out\n        /* \"contracts/BusinessConsensus.sol\":1017:1048  uint public BusinessRequirement */\n    tag_84:\n      sload(0x04)\n      dup2\n      jump\t// out\n        /* \"contracts/BusinessConsensus.sol\":1163:1184  Voter[] public voters */\n    tag_88:\n      0x08\n      dup2\n      dup2\n      sload\n      dup2\n      lt\n      tag_216\n      jumpi\n      0x00\n      dup1\n      revert\n    tag_216:\n      swap1\n      0x00\n      mstore\n      keccak256(0x00, 0x20)\n      add\n      0x00\n      swap2\n      pop\n      swap1\n      pop\n      dup1\n      0x00\n      add\n      0x00\n      swap1\n      sload\n      swap1\n      0x0100\n      exp\n      swap1\n      div\n      0xff\n      and\n      swap1\n      dup1\n      0x00\n      add\n      0x01\n      swap1\n      sload\n      swap1\n      0x0100\n      exp\n      swap1\n      div\n      0xffffffffffffffffffffffffffffffffffffffff\n      and\n      swap1\n      dup1\n      0x00\n      add\n      0x15\n      swap1\n      sload\n      swap1\n      0x0100\n      exp\n      swap1\n      div\n      0xff\n      and\n      swap1\n      pop\n      dup4\n      jump\t// out\n        /* \"contracts/BusinessConsensus.sol\":716:746  address public contractAddress */\n    tag_91:\n      0x00\n      dup1\n      sload\n      swap1\n      0x0100\n      exp\n      swap1\n      div\n      0xffffffffffffffffffffffffffffffffffffffff\n      and\n      dup2\n      jump\t// out\n    tag_152:\n      mload(0x40)\n      dup1\n      0x60\n      add\n      0x40\n      mstore\n      dup1\n      0x60\n      dup2\n      mstore\n      0x20\n      add\n      tag_218\n      tag_219\n      jump\t// in\n    tag_218:\n      dup2\n      mstore\n      0x20\n      add\n      0x60\n      dup2\n      mstore\n      pop\n      swap1\n      jump\t// out\n    tag_219:\n      mload(0x40)\n      dup1\n      0x40\n      add\n      0x40\n      mstore\n      dup1\n      0x00\n      dup2\n      mstore\n      0x20\n      add\n      0x60\n      dup2\n      mstore\n      pop\n      swap1\n      jump\t// out\n        /* \"#utility.yul\":7:82   */\n    tag_220:\n        /* \"#utility.yul\":40:46   */\n      0x00\n        /* \"#utility.yul\":73:75   */\n      0x40\n        /* \"#utility.yul\":67:76   */\n      mload\n        /* \"#utility.yul\":57:76   */\n      swap1\n      pop\n        /* \"#utility.yul\":7:82   */\n      swap1\n      jump\t// out\n        /* \"#utility.yul\":88:205   */\n    tag_221:\n        /* \"#utility.yul\":197:198   */\n      0x00\n        /* \"#utility.yul\":194:195   */\n      dup1\n        /* \"#utility.yul\":187:199   */\n      revert\n        /* \"#utility.yul\":211:328   */\n    tag_222:\n        /* \"#utility.yul\":320:321   */\n      0x00\n        /* \"#utility.yul\":317:318   */\n      dup1\n        /* \"#utility.yul\":310:322   */\n      revert\n        /* \"#utility.yul\":334:411   */\n    tag_223:\n        /* \"#utility.yul\":371:378   */\n      0x00\n        /* \"#utility.yul\":400:405   */\n      dup2\n        /* \"#utility.yul\":389:405   */\n      swap1\n      pop\n        /* \"#utility.yul\":334:411   */\n      swap2\n      swap1\n      pop\n      jump\t// out\n        /* \"#utility.yul\":417:539   */\n    tag_224:\n        /* \"#utility.yul\":490:514   */\n      tag_306\n        /* \"#utility.yul\":508:513   */\n      dup2\n        /* \"#utility.yul\":490:514   */\n      tag_223\n      jump\t// in\n    tag_306:\n        /* \"#utility.yul\":483:488   */\n      dup2\n        /* \"#utility.yul\":480:515   */\n      eq\n        /* \"#utility.yul\":470:533   */\n      tag_307\n      jumpi\n        /* \"#utility.yul\":529:530   */\n      0x00\n        /* \"#utility.yul\":526:527   */\n      dup1\n        /* \"#utility.yul\":519:531   */\n      revert\n        /* \"#utility.yul\":470:533   */\n    tag_307:\n        /* \"#utility.yul\":417:539   */\n      pop\n      jump\t// out\n        /* \"#utility.yul\":545:684   */\n    tag_225:\n        /* \"#utility.yul\":591:596   */\n      0x00\n        /* \"#utility.yul\":629:635   */\n      dup2\n        /* \"#utility.yul\":616:636   */\n      calldataload\n        /* \"#utility.yul\":607:636   */\n      swap1\n      pop\n        /* \"#utility.yul\":645:678   */\n      tag_309\n        /* \"#utility.yul\":672:677   */\n      dup2\n        /* \"#utility.yul\":645:678   */\n      tag_224\n      jump\t// in\n    tag_309:\n        /* \"#utility.yul\":545:684   */\n      swap3\n      swap2\n      pop\n      pop\n      jump\t// out\n        /* \"#utility.yul\":690:1019   */\n    tag_26:\n        /* \"#utility.yul\":749:755   */\n      0x00\n        /* \"#utility.yul\":798:800   */\n      0x20\n        /* \"#utility.yul\":786:795   */\n      dup3\n        /* \"#utility.yul\":777:784   */\n      dup5\n        /* \"#utility.yul\":773:796   */\n      sub\n        /* \"#utility.yul\":769:801   */\n      slt\n        /* \"#utility.yul\":766:885   */\n      iszero\n      tag_311\n      jumpi\n        /* \"#utility.yul\":804:883   */\n      tag_312\n      tag_221\n      jump\t// in\n    tag_312:\n        /* \"#utility.yul\":766:885   */\n    tag_311:\n        /* \"#utility.yul\":924:925   */\n      0x00\n        /* \"#utility.yul\":949:1002   */\n      tag_313\n        /* \"#utility.yul\":994:1001   */\n      dup5\n        /* \"#utility.yul\":985:991   */\n      dup3\n        /* \"#utility.yul\":974:983   */\n      dup6\n        /* \"#utility.yul\":970:992   */\n      add\n        /* \"#utility.yul\":949:1002   */\n      tag_225\n      jump\t// in\n    tag_313:\n        /* \"#utility.yul\":939:1002   */\n      swap2\n      pop\n        /* \"#utility.yul\":895:1012   */\n      pop\n        /* \"#utility.yul\":690:1019   */\n      swap3\n      swap2\n      pop\n      pop\n      jump\t// out\n        /* \"#utility.yul\":1025:1151   */\n    tag_226:\n        /* \"#utility.yul\":1062:1069   */\n      0x00\n        /* \"#utility.yul\":1102:1144   */\n      0xffffffffffffffffffffffffffffffffffffffff\n        /* \"#utility.yul\":1095:1100   */\n      dup3\n        /* \"#utility.yul\":1091:1145   */\n      and\n        /* \"#utility.yul\":1080:1145   */\n      swap1\n      pop\n        /* \"#utility.yul\":1025:1151   */\n      swap2\n      swap1\n      pop\n      jump\t// out\n        /* \"#utility.yul\":1157:1253   */\n    tag_227:\n        /* \"#utility.yul\":1194:1201   */\n      0x00\n        /* \"#utility.yul\":1223:1247   */\n      tag_316\n        /* \"#utility.yul\":1241:1246   */\n      dup3\n        /* \"#utility.yul\":1223:1247   */\n      tag_226\n      jump\t// in\n    tag_316:\n        /* \"#utility.yul\":1212:1247   */\n      swap1\n      pop\n        /* \"#utility.yul\":1157:1253   */\n      swap2\n      swap1\n      pop\n      jump\t// out\n        /* \"#utility.yul\":1259:1377   */\n    tag_228:\n        /* \"#utility.yul\":1346:1370   */\n      tag_318\n        /* \"#utility.yul\":1364:1369   */\n      dup2\n        /* \"#utility.yul\":1346:1370   */\n      tag_227\n      jump\t// in\n    tag_318:\n        /* \"#utility.yul\":1341:1344   */\n      dup3\n        /* \"#utility.yul\":1334:1371   */\n      mstore\n        /* \"#utility.yul\":1259:1377   */\n      pop\n      pop\n      jump\t// out\n        /* \"#utility.yul\":1383:1605   */\n    tag_29:\n        /* \"#utility.yul\":1476:1480   */\n      0x00\n        /* \"#utility.yul\":1514:1516   */\n      0x20\n        /* \"#utility.yul\":1503:1512   */\n      dup3\n        /* \"#utility.yul\":1499:1517   */\n      add\n        /* \"#utility.yul\":1491:1517   */\n      swap1\n      pop\n        /* \"#utility.yul\":1527:1598   */\n      tag_320\n        /* \"#utility.yul\":1595:1596   */\n      0x00\n        /* \"#utility.yul\":1584:1593   */\n      dup4\n        /* \"#utility.yul\":1580:1597   */\n      add\n        /* \"#utility.yul\":1571:1577   */\n      dup5\n        /* \"#utility.yul\":1527:1598   */\n      tag_228\n      jump\t// in\n    tag_320:\n        /* \"#utility.yul\":1383:1605   */\n      swap3\n      swap2\n      pop\n      pop\n      jump\t// out\n        /* \"#utility.yul\":1611:1733   */\n    tag_229:\n        /* \"#utility.yul\":1684:1708   */\n      tag_322\n        /* \"#utility.yul\":1702:1707   */\n      dup2\n        /* \"#utility.yul\":1684:1708   */\n      tag_227\n      jump\t// in\n    tag_322:\n        /* \"#utility.yul\":1677:1682   */\n      dup2\n        /* \"#utility.yul\":1674:1709   */\n      eq\n        /* \"#utility.yul\":1664:1727   */\n      tag_323\n      jumpi\n        /* \"#utility.yul\":1723:1724   */\n      0x00\n        /* \"#utility.yul\":1720:1721   */\n      dup1\n        /* \"#utility.yul\":1713:1725   */\n      revert\n        /* \"#utility.yul\":1664:1727   */\n    tag_323:\n        /* \"#utility.yul\":1611:1733   */\n      pop\n      jump\t// out\n        /* \"#utility.yul\":1739:1878   */\n    tag_230:\n        /* \"#utility.yul\":1785:1790   */\n      0x00\n        /* \"#utility.yul\":1823:1829   */\n      dup2\n        /* \"#utility.yul\":1810:1830   */\n      calldataload\n        /* \"#utility.yul\":1801:1830   */\n      swap1\n      pop\n        /* \"#utility.yul\":1839:1872   */\n      tag_325\n        /* \"#utility.yul\":1866:1871   */\n      dup2\n        /* \"#utility.yul\":1839:1872   */\n      tag_229\n      jump\t// in\n    tag_325:\n        /* \"#utility.yul\":1739:1878   */\n      swap3\n      swap2\n      pop\n      pop\n      jump\t// out\n        /* \"#utility.yul\":1884:2213   */\n    tag_32:\n        /* \"#utility.yul\":1943:1949   */\n      0x00\n        /* \"#utility.yul\":1992:1994   */\n      0x20\n        /* \"#utility.yul\":1980:1989   */\n      dup3\n        /* \"#utility.yul\":1971:1978   */\n      dup5\n        /* \"#utility.yul\":1967:1990   */\n      sub\n        /* \"#utility.yul\":1963:1995   */\n      slt\n        /* \"#utility.yul\":1960:2079   */\n      iszero\n      tag_327\n      jumpi\n        /* \"#utility.yul\":1998:2077   */\n      tag_328\n      tag_221\n      jump\t// in\n    tag_328:\n        /* \"#utility.yul\":1960:2079   */\n    tag_327:\n        /* \"#utility.yul\":2118:2119   */\n      0x00\n        /* \"#utility.yul\":2143:2196   */\n      tag_329\n        /* \"#utility.yul\":2188:2195   */\n      dup5\n        /* \"#utility.yul\":2179:2185   */\n      dup3\n        /* \"#utility.yul\":2168:2177   */\n      dup6\n        /* \"#utility.yul\":2164:2186   */\n      add\n        /* \"#utility.yul\":2143:2196   */\n      tag_230\n      jump\t// in\n    tag_329:\n        /* \"#utility.yul\":2133:2196   */\n      swap2\n      pop\n        /* \"#utility.yul\":2089:2206   */\n      pop\n        /* \"#utility.yul\":1884:2213   */\n      swap3\n      swap2\n      pop\n      pop\n      jump\t// out\n        /* \"#utility.yul\":2219:2318   */\n    tag_231:\n        /* \"#utility.yul\":2271:2277   */\n      0x00\n        /* \"#utility.yul\":2305:2310   */\n      dup2\n        /* \"#utility.yul\":2299:2311   */\n      mload\n        /* \"#utility.yul\":2289:2311   */\n      swap1\n      pop\n        /* \"#utility.yul\":2219:2318   */\n      swap2\n      swap1\n      pop\n      jump\t// out\n        /* \"#utility.yul\":2324:2493   */\n    tag_232:\n        /* \"#utility.yul\":2408:2419   */\n      0x00\n        /* \"#utility.yul\":2442:2448   */\n      dup3\n        /* \"#utility.yul\":2437:2440   */\n      dup3\n        /* \"#utility.yul\":2430:2449   */\n      mstore\n        /* \"#utility.yul\":2482:2486   */\n      0x20\n        /* \"#utility.yul\":2477:2480   */\n      dup3\n        /* \"#utility.yul\":2473:2487   */\n      add\n        /* \"#utility.yul\":2458:2487   */\n      swap1\n      pop\n        /* \"#utility.yul\":2324:2493   */\n      swap3\n      swap2\n      pop\n      pop\n      jump\t// out\n        /* \"#utility.yul\":2499:2806   */\n    tag_233:\n        /* \"#utility.yul\":2567:2568   */\n      0x00\n        /* \"#utility.yul\":2577:2690   */\n    tag_333:\n        /* \"#utility.yul\":2591:2597   */\n      dup4\n        /* \"#utility.yul\":2588:2589   */\n      dup2\n        /* \"#utility.yul\":2585:2598   */\n      lt\n        /* \"#utility.yul\":2577:2690   */\n      iszero\n      tag_335\n      jumpi\n        /* \"#utility.yul\":2676:2677   */\n      dup1\n        /* \"#utility.yul\":2671:2674   */\n      dup3\n        /* \"#utility.yul\":2667:2678   */\n      add\n        /* \"#utility.yul\":2661:2679   */\n      mload\n        /* \"#utility.yul\":2657:2658   */\n      dup2\n        /* \"#utility.yul\":2652:2655   */\n      dup5\n        /* \"#utility.yul\":2648:2659   */\n      add\n        /* \"#utility.yul\":2641:2680   */\n      mstore\n        /* \"#utility.yul\":2613:2615   */\n      0x20\n        /* \"#utility.yul\":2610:2611   */\n      dup2\n        /* \"#utility.yul\":2606:2616   */\n      add\n        /* \"#utility.yul\":2601:2616   */\n      swap1\n      pop\n        /* \"#utility.yul\":2577:2690   */\n      jump(tag_333)\n    tag_335:\n        /* \"#utility.yul\":2708:2714   */\n      dup4\n        /* \"#utility.yul\":2705:2706   */\n      dup2\n        /* \"#utility.yul\":2702:2715   */\n      gt\n        /* \"#utility.yul\":2699:2800   */\n      iszero\n      tag_336\n      jumpi\n        /* \"#utility.yul\":2788:2789   */\n      0x00\n        /* \"#utility.yul\":2779:2785   */\n      dup5\n        /* \"#utility.yul\":2774:2777   */\n      dup5\n        /* \"#utility.yul\":2770:2786   */\n      add\n        /* \"#utility.yul\":2763:2790   */\n      mstore\n        /* \"#utility.yul\":2699:2800   */\n    tag_336:\n        /* \"#utility.yul\":2548:2806   */\n      pop\n        /* \"#utility.yul\":2499:2806   */\n      pop\n      pop\n      pop\n      jump\t// out\n        /* \"#utility.yul\":2812:2914   */\n    tag_234:\n        /* \"#utility.yul\":2853:2859   */\n      0x00\n        /* \"#utility.yul\":2904:2906   */\n      0x1f\n        /* \"#utility.yul\":2900:2907   */\n      not\n        /* \"#utility.yul\":2895:2897   */\n      0x1f\n        /* \"#utility.yul\":2888:2893   */\n      dup4\n        /* \"#utility.yul\":2884:2898   */\n      add\n        /* \"#utility.yul\":2880:2908   */\n      and\n        /* \"#utility.yul\":2870:2908   */\n      swap1\n      pop\n        /* \"#utility.yul\":2812:2914   */\n      swap2\n      swap1\n      pop\n      jump\t// out\n        /* \"#utility.yul\":2920:3284   */\n    tag_235:\n        /* \"#utility.yul\":3008:3011   */\n      0x00\n        /* \"#utility.yul\":3036:3075   */\n      tag_339\n        /* \"#utility.yul\":3069:3074   */\n      dup3\n        /* \"#utility.yul\":3036:3075   */\n      tag_231\n      jump\t// in\n    tag_339:\n        /* \"#utility.yul\":3091:3162   */\n      tag_340\n        /* \"#utility.yul\":3155:3161   */\n      dup2\n        /* \"#utility.yul\":3150:3153   */\n      dup6\n        /* \"#utility.yul\":3091:3162   */\n      tag_232\n      jump\t// in\n    tag_340:\n        /* \"#utility.yul\":3084:3162   */\n      swap4\n      pop\n        /* \"#utility.yul\":3171:3223   */\n      tag_341\n        /* \"#utility.yul\":3216:3222   */\n      dup2\n        /* \"#utility.yul\":3211:3214   */\n      dup6\n        /* \"#utility.yul\":3204:3208   */\n      0x20\n        /* \"#utility.yul\":3197:3202   */\n      dup7\n        /* \"#utility.yul\":3193:3209   */\n      add\n        /* \"#utility.yul\":3171:3223   */\n      tag_233\n      jump\t// in\n    tag_341:\n        /* \"#utility.yul\":3248:3277   */\n      tag_342\n        /* \"#utility.yul\":3270:3276   */\n      dup2\n        /* \"#utility.yul\":3248:3277   */\n      tag_234\n      jump\t// in\n    tag_342:\n        /* \"#utility.yul\":3243:3246   */\n      dup5\n        /* \"#utility.yul\":3239:3278   */\n      add\n        /* \"#utility.yul\":3232:3278   */\n      swap2\n      pop\n        /* \"#utility.yul\":3012:3284   */\n      pop\n        /* \"#utility.yul\":2920:3284   */\n      swap3\n      swap2\n      pop\n      pop\n      jump\t// out\n        /* \"#utility.yul\":3290:3603   */\n    tag_37:\n        /* \"#utility.yul\":3403:3407   */\n      0x00\n        /* \"#utility.yul\":3441:3443   */\n      0x20\n        /* \"#utility.yul\":3430:3439   */\n      dup3\n        /* \"#utility.yul\":3426:3444   */\n      add\n        /* \"#utility.yul\":3418:3444   */\n      swap1\n      pop\n        /* \"#utility.yul\":3490:3499   */\n      dup2\n        /* \"#utility.yul\":3484:3488   */\n      dup2\n        /* \"#utility.yul\":3480:3500   */\n      sub\n        /* \"#utility.yul\":3476:3477   */\n      0x00\n        /* \"#utility.yul\":3465:3474   */\n      dup4\n        /* \"#utility.yul\":3461:3478   */\n      add\n        /* \"#utility.yul\":3454:3501   */\n      mstore\n        /* \"#utility.yul\":3518:3596   */\n      tag_344\n        /* \"#utility.yul\":3591:3595   */\n      dup2\n        /* \"#utility.yul\":3582:3588   */\n      dup5\n        /* \"#utility.yul\":3518:3596   */\n      tag_235\n      jump\t// in\n    tag_344:\n        /* \"#utility.yul\":3510:3596   */\n      swap1\n      pop\n        /* \"#utility.yul\":3290:3603   */\n      swap3\n      swap2\n      pop\n      pop\n      jump\t// out\n        /* \"#utility.yul\":3609:3726   */\n    tag_236:\n        /* \"#utility.yul\":3718:3719   */\n      0x00\n        /* \"#utility.yul\":3715:3716   */\n      dup1\n        /* \"#utility.yul\":3708:3720   */\n      revert\n        /* \"#utility.yul\":3732:3849   */\n    tag_237:\n        /* \"#utility.yul\":3841:3842   */\n      0x00\n        /* \"#utility.yul\":3838:3839   */\n      dup1\n        /* \"#utility.yul\":3831:3843   */\n      revert\n        /* \"#utility.yul\":3855:4035   */\n    tag_238:\n        /* \"#utility.yul\":3903:3980   */\n      0x4e487b7100000000000000000000000000000000000000000000000000000000\n        /* \"#utility.yul\":3900:3901   */\n      0x00\n        /* \"#utility.yul\":3893:3981   */\n      mstore\n        /* \"#utility.yul\":4000:4004   */\n      0x41\n        /* \"#utility.yul\":3997:3998   */\n      0x04\n        /* \"#utility.yul\":3990:4005   */\n      mstore\n        /* \"#utility.yul\":4024:4028   */\n      0x24\n        /* \"#utility.yul\":4021:4022   */\n      0x00\n        /* \"#utility.yul\":4014:4029   */\n      revert\n        /* \"#utility.yul\":4041:4322   */\n    tag_239:\n        /* \"#utility.yul\":4124:4151   */\n      tag_349\n        /* \"#utility.yul\":4146:4150   */\n      dup3\n        /* \"#utility.yul\":4124:4151   */\n      tag_234\n      jump\t// in\n    tag_349:\n        /* \"#utility.yul\":4116:4122   */\n      dup2\n        /* \"#utility.yul\":4112:4152   */\n      add\n        /* \"#utility.yul\":4254:4260   */\n      dup2\n        /* \"#utility.yul\":4242:4252   */\n      dup2\n        /* \"#utility.yul\":4239:4261   */\n      lt\n        /* \"#utility.yul\":4218:4236   */\n      0xffffffffffffffff\n        /* \"#utility.yul\":4206:4216   */\n      dup3\n        /* \"#utility.yul\":4203:4237   */\n      gt\n        /* \"#utility.yul\":4200:4262   */\n      or\n        /* \"#utility.yul\":4197:4285   */\n      iszero\n      tag_350\n      jumpi\n        /* \"#utility.yul\":4265:4283   */\n      tag_351\n      tag_238\n      jump\t// in\n    tag_351:\n        /* \"#utility.yul\":4197:4285   */\n    tag_350:\n        /* \"#utility.yul\":4305:4315   */\n      dup1\n        /* \"#utility.yul\":4301:4303   */\n      0x40\n        /* \"#utility.yul\":4294:4316   */\n      mstore\n        /* \"#utility.yul\":4084:4322   */\n      pop\n        /* \"#utility.yul\":4041:4322   */\n      pop\n      pop\n      jump\t// out\n        /* \"#utility.yul\":4328:4457   */\n    tag_240:\n        /* \"#utility.yul\":4362:4368   */\n      0x00\n        /* \"#utility.yul\":4389:4409   */\n      tag_353\n      tag_220\n      jump\t// in\n    tag_353:\n        /* \"#utility.yul\":4379:4409   */\n      swap1\n      pop\n        /* \"#utility.yul\":4418:4451   */\n      tag_354\n        /* \"#utility.yul\":4446:4450   */\n      dup3\n        /* \"#utility.yul\":4438:4444   */\n      dup3\n        /* \"#utility.yul\":4418:4451   */\n      tag_239\n      jump\t// in\n    tag_354:\n        /* \"#utility.yul\":4328:4457   */\n      swap2\n      swap1\n      pop\n      jump\t// out\n        /* \"#utility.yul\":4463:4771   */\n    tag_241:\n        /* \"#utility.yul\":4525:4529   */\n      0x00\n        /* \"#utility.yul\":4615:4633   */\n      0xffffffffffffffff\n        /* \"#utility.yul\":4607:4613   */\n      dup3\n        /* \"#utility.yul\":4604:4634   */\n      gt\n        /* \"#utility.yul\":4601:4657   */\n      iszero\n      tag_356\n      jumpi\n        /* \"#utility.yul\":4637:4655   */\n      tag_357\n      tag_238\n      jump\t// in\n    tag_357:\n        /* \"#utility.yul\":4601:4657   */\n    tag_356:\n        /* \"#utility.yul\":4675:4704   */\n      tag_358\n        /* \"#utility.yul\":4697:4703   */\n      dup3\n        /* \"#utility.yul\":4675:4704   */\n      tag_234\n      jump\t// in\n    tag_358:\n        /* \"#utility.yul\":4667:4704   */\n      swap1\n      pop\n        /* \"#utility.yul\":4759:4763   */\n      0x20\n        /* \"#utility.yul\":4753:4757   */\n      dup2\n        /* \"#utility.yul\":4749:4764   */\n      add\n        /* \"#utility.yul\":4741:4764   */\n      swap1\n      pop\n        /* \"#utility.yul\":4463:4771   */\n      swap2\n      swap1\n      pop\n      jump\t// out\n        /* \"#utility.yul\":4777:4931   */\n    tag_242:\n        /* \"#utility.yul\":4861:4867   */\n      dup3\n        /* \"#utility.yul\":4856:4859   */\n      dup2\n        /* \"#utility.yul\":4851:4854   */\n      dup4\n        /* \"#utility.yul\":4838:4868   */\n      calldatacopy\n        /* \"#utility.yul\":4923:4924   */\n      0x00\n        /* \"#utility.yul\":4914:4920   */\n      dup4\n        /* \"#utility.yul\":4909:4912   */\n      dup4\n        /* \"#utility.yul\":4905:4921   */\n      add\n        /* \"#utility.yul\":4898:4925   */\n      mstore\n        /* \"#utility.yul\":4777:4931   */\n      pop\n      pop\n      pop\n      jump\t// out\n        /* \"#utility.yul\":4937:5349   */\n    tag_243:\n        /* \"#utility.yul\":5015:5020   */\n      0x00\n        /* \"#utility.yul\":5040:5106   */\n      tag_361\n        /* \"#utility.yul\":5056:5105   */\n      tag_362\n        /* \"#utility.yul\":5098:5104   */\n      dup5\n        /* \"#utility.yul\":5056:5105   */\n      tag_241\n      jump\t// in\n    tag_362:\n        /* \"#utility.yul\":5040:5106   */\n      tag_240\n      jump\t// in\n    tag_361:\n        /* \"#utility.yul\":5031:5106   */\n      swap1\n      pop\n        /* \"#utility.yul\":5129:5135   */\n      dup3\n        /* \"#utility.yul\":5122:5127   */\n      dup2\n        /* \"#utility.yul\":5115:5136   */\n      mstore\n        /* \"#utility.yul\":5167:5171   */\n      0x20\n        /* \"#utility.yul\":5160:5165   */\n      dup2\n        /* \"#utility.yul\":5156:5172   */\n      add\n        /* \"#utility.yul\":5205:5208   */\n      dup5\n        /* \"#utility.yul\":5196:5202   */\n      dup5\n        /* \"#utility.yul\":5191:5194   */\n      dup5\n        /* \"#utility.yul\":5187:5203   */\n      add\n        /* \"#utility.yul\":5184:5209   */\n      gt\n        /* \"#utility.yul\":5181:5293   */\n      iszero\n      tag_363\n      jumpi\n        /* \"#utility.yul\":5212:5291   */\n      tag_364\n      tag_237\n      jump\t// in\n    tag_364:\n        /* \"#utility.yul\":5181:5293   */\n    tag_363:\n        /* \"#utility.yul\":5302:5343   */\n      tag_365\n        /* \"#utility.yul\":5336:5342   */\n      dup5\n        /* \"#utility.yul\":5331:5334   */\n      dup3\n        /* \"#utility.yul\":5326:5329   */\n      dup6\n        /* \"#utility.yul\":5302:5343   */\n      tag_242\n      jump\t// in\n    tag_365:\n        /* \"#utility.yul\":5021:5349   */\n      pop\n        /* \"#utility.yul\":4937:5349   */\n      swap4\n      swap3\n      pop\n      pop\n      pop\n      jump\t// out\n        /* \"#utility.yul\":5369:5709   */\n    tag_244:\n        /* \"#utility.yul\":5425:5430   */\n      0x00\n        /* \"#utility.yul\":5474:5477   */\n      dup3\n        /* \"#utility.yul\":5467:5471   */\n      0x1f\n        /* \"#utility.yul\":5459:5465   */\n      dup4\n        /* \"#utility.yul\":5455:5472   */\n      add\n        /* \"#utility.yul\":5451:5478   */\n      slt\n        /* \"#utility.yul\":5441:5563   */\n      tag_367\n      jumpi\n        /* \"#utility.yul\":5482:5561   */\n      tag_368\n      tag_236\n      jump\t// in\n    tag_368:\n        /* \"#utility.yul\":5441:5563   */\n    tag_367:\n        /* \"#utility.yul\":5599:5605   */\n      dup2\n        /* \"#utility.yul\":5586:5606   */\n      calldataload\n        /* \"#utility.yul\":5624:5703   */\n      tag_369\n        /* \"#utility.yul\":5699:5702   */\n      dup5\n        /* \"#utility.yul\":5691:5697   */\n      dup3\n        /* \"#utility.yul\":5684:5688   */\n      0x20\n        /* \"#utility.yul\":5676:5682   */\n      dup7\n        /* \"#utility.yul\":5672:5689   */\n      add\n        /* \"#utility.yul\":5624:5703   */\n      tag_243\n      jump\t// in\n    tag_369:\n        /* \"#utility.yul\":5615:5703   */\n      swap2\n      pop\n        /* \"#utility.yul\":5431:5709   */\n      pop\n        /* \"#utility.yul\":5369:5709   */\n      swap3\n      swap2\n      pop\n      pop\n      jump\t// out\n        /* \"#utility.yul\":5715:6224   */\n    tag_40:\n        /* \"#utility.yul\":5784:5790   */\n      0x00\n        /* \"#utility.yul\":5833:5835   */\n      0x20\n        /* \"#utility.yul\":5821:5830   */\n      dup3\n        /* \"#utility.yul\":5812:5819   */\n      dup5\n        /* \"#utility.yul\":5808:5831   */\n      sub\n        /* \"#utility.yul\":5804:5836   */\n      slt\n        /* \"#utility.yul\":5801:5920   */\n      iszero\n      tag_371\n      jumpi\n        /* \"#utility.yul\":5839:5918   */\n      tag_372\n      tag_221\n      jump\t// in\n    tag_372:\n        /* \"#utility.yul\":5801:5920   */\n    tag_371:\n        /* \"#utility.yul\":5987:5988   */\n      0x00\n        /* \"#utility.yul\":5976:5985   */\n      dup3\n        /* \"#utility.yul\":5972:5989   */\n      add\n        /* \"#utility.yul\":5959:5990   */\n      calldataload\n        /* \"#utility.yul\":6017:6035   */\n      0xffffffffffffffff\n        /* \"#utility.yul\":6009:6015   */\n      dup2\n        /* \"#utility.yul\":6006:6036   */\n      gt\n        /* \"#utility.yul\":6003:6120   */\n      iszero\n      tag_373\n      jumpi\n        /* \"#utility.yul\":6039:6118   */\n      tag_374\n      tag_222\n      jump\t// in\n    tag_374:\n        /* \"#utility.yul\":6003:6120   */\n    tag_373:\n        /* \"#utility.yul\":6144:6207   */\n      tag_375\n        /* \"#utility.yul\":6199:6206   */\n      dup5\n        /* \"#utility.yul\":6190:6196   */\n      dup3\n        /* \"#utility.yul\":6179:6188   */\n      dup6\n        /* \"#utility.yul\":6175:6197   */\n      add\n        /* \"#utility.yul\":6144:6207   */\n      tag_244\n      jump\t// in\n    tag_375:\n        /* \"#utility.yul\":6134:6207   */\n      swap2\n      pop\n        /* \"#utility.yul\":5930:6217   */\n      pop\n        /* \"#utility.yul\":5715:6224   */\n      swap3\n      swap2\n      pop\n      pop\n      jump\t// out\n        /* \"#utility.yul\":6230:6338   */\n    tag_245:\n        /* \"#utility.yul\":6307:6331   */\n      tag_377\n        /* \"#utility.yul\":6325:6330   */\n      dup2\n        /* \"#utility.yul\":6307:6331   */\n      tag_223\n      jump\t// in\n    tag_377:\n        /* \"#utility.yul\":6302:6305   */\n      dup3\n        /* \"#utility.yul\":6295:6332   */\n      mstore\n        /* \"#utility.yul\":6230:6338   */\n      pop\n      pop\n      jump\t// out\n        /* \"#utility.yul\":6344:6503   */\n    tag_246:\n        /* \"#utility.yul\":6418:6429   */\n      0x00\n        /* \"#utility.yul\":6452:6458   */\n      dup3\n        /* \"#utility.yul\":6447:6450   */\n      dup3\n        /* \"#utility.yul\":6440:6459   */\n      mstore\n        /* \"#utility.yul\":6492:6496   */\n      0x20\n        /* \"#utility.yul\":6487:6490   */\n      dup3\n        /* \"#utility.yul\":6483:6497   */\n      add\n        /* \"#utility.yul\":6468:6497   */\n      swap1\n      pop\n        /* \"#utility.yul\":6344:6503   */\n      swap3\n      swap2\n      pop\n      pop\n      jump\t// out\n        /* \"#utility.yul\":6509:6853   */\n    tag_247:\n        /* \"#utility.yul\":6587:6590   */\n      0x00\n        /* \"#utility.yul\":6615:6654   */\n      tag_380\n        /* \"#utility.yul\":6648:6653   */\n      dup3\n        /* \"#utility.yul\":6615:6654   */\n      tag_231\n      jump\t// in\n    tag_380:\n        /* \"#utility.yul\":6670:6731   */\n      tag_381\n        /* \"#utility.yul\":6724:6730   */\n      dup2\n        /* \"#utility.yul\":6719:6722   */\n      dup6\n        /* \"#utility.yul\":6670:6731   */\n      tag_246\n      jump\t// in\n    tag_381:\n        /* \"#utility.yul\":6663:6731   */\n      swap4\n      pop\n        /* \"#utility.yul\":6740:6792   */\n      tag_382\n        /* \"#utility.yul\":6785:6791   */\n      dup2\n        /* \"#utility.yul\":6780:6783   */\n      dup6\n        /* \"#utility.yul\":6773:6777   */\n      0x20\n        /* \"#utility.yul\":6766:6771   */\n      dup7\n        /* \"#utility.yul\":6762:6778   */\n      add\n        /* \"#utility.yul\":6740:6792   */\n      tag_233\n      jump\t// in\n    tag_382:\n        /* \"#utility.yul\":6817:6846   */\n      tag_383\n        /* \"#utility.yul\":6839:6845   */\n      dup2\n        /* \"#utility.yul\":6817:6846   */\n      tag_234\n      jump\t// in\n    tag_383:\n        /* \"#utility.yul\":6812:6815   */\n      dup5\n        /* \"#utility.yul\":6808:6847   */\n      add\n        /* \"#utility.yul\":6801:6847   */\n      swap2\n      pop\n        /* \"#utility.yul\":6591:6853   */\n      pop\n        /* \"#utility.yul\":6509:6853   */\n      swap3\n      swap2\n      pop\n      pop\n      jump\t// out\n        /* \"#utility.yul\":6937:7551   */\n    tag_248:\n        /* \"#utility.yul\":7054:7057   */\n      0x00\n        /* \"#utility.yul\":7090:7094   */\n      0x40\n        /* \"#utility.yul\":7085:7088   */\n      dup4\n        /* \"#utility.yul\":7081:7095   */\n      add\n        /* \"#utility.yul\":7182:7186   */\n      0x00\n        /* \"#utility.yul\":7175:7180   */\n      dup4\n        /* \"#utility.yul\":7171:7187   */\n      add\n        /* \"#utility.yul\":7165:7188   */\n      mload\n        /* \"#utility.yul\":7201:7264   */\n      tag_385\n        /* \"#utility.yul\":7258:7262   */\n      0x00\n        /* \"#utility.yul\":7253:7256   */\n      dup7\n        /* \"#utility.yul\":7249:7263   */\n      add\n        /* \"#utility.yul\":7235:7247   */\n      dup3\n        /* \"#utility.yul\":7201:7264   */\n      tag_245\n      jump\t// in\n    tag_385:\n        /* \"#utility.yul\":7105:7274   */\n      pop\n        /* \"#utility.yul\":7361:7365   */\n      0x20\n        /* \"#utility.yul\":7354:7359   */\n      dup4\n        /* \"#utility.yul\":7350:7366   */\n      add\n        /* \"#utility.yul\":7344:7367   */\n      mload\n        /* \"#utility.yul\":7414:7417   */\n      dup5\n        /* \"#utility.yul\":7408:7412   */\n      dup3\n        /* \"#utility.yul\":7404:7418   */\n      sub\n        /* \"#utility.yul\":7397:7401   */\n      0x20\n        /* \"#utility.yul\":7392:7395   */\n      dup7\n        /* \"#utility.yul\":7388:7402   */\n      add\n        /* \"#utility.yul\":7381:7419   */\n      mstore\n        /* \"#utility.yul\":7440:7513   */\n      tag_386\n        /* \"#utility.yul\":7508:7512   */\n      dup3\n        /* \"#utility.yul\":7494:7506   */\n      dup3\n        /* \"#utility.yul\":7440:7513   */\n      tag_247\n      jump\t// in\n    tag_386:\n        /* \"#utility.yul\":7432:7513   */\n      swap2\n      pop\n        /* \"#utility.yul\":7284:7524   */\n      pop\n        /* \"#utility.yul\":7541:7545   */\n      dup1\n        /* \"#utility.yul\":7534:7545   */\n      swap2\n      pop\n        /* \"#utility.yul\":7059:7551   */\n      pop\n        /* \"#utility.yul\":6937:7551   */\n      swap3\n      swap2\n      pop\n      pop\n      jump\t// out\n        /* \"#utility.yul\":7557:8127   */\n    tag_45:\n        /* \"#utility.yul\":7746:7750   */\n      0x00\n        /* \"#utility.yul\":7784:7786   */\n      0x40\n        /* \"#utility.yul\":7773:7782   */\n      dup3\n        /* \"#utility.yul\":7769:7787   */\n      add\n        /* \"#utility.yul\":7761:7787   */\n      swap1\n      pop\n        /* \"#utility.yul\":7833:7842   */\n      dup2\n        /* \"#utility.yul\":7827:7831   */\n      dup2\n        /* \"#utility.yul\":7823:7843   */\n      sub\n        /* \"#utility.yul\":7819:7820   */\n      0x00\n        /* \"#utility.yul\":7808:7817   */\n      dup4\n        /* \"#utility.yul\":7804:7821   */\n      add\n        /* \"#utility.yul\":7797:7844   */\n      mstore\n        /* \"#utility.yul\":7861:7939   */\n      tag_388\n        /* \"#utility.yul\":7934:7938   */\n      dup2\n        /* \"#utility.yul\":7925:7931   */\n      dup6\n        /* \"#utility.yul\":7861:7939   */\n      tag_235\n      jump\t// in\n    tag_388:\n        /* \"#utility.yul\":7853:7939   */\n      swap1\n      pop\n        /* \"#utility.yul\":7986:7995   */\n      dup2\n        /* \"#utility.yul\":7980:7984   */\n      dup2\n        /* \"#utility.yul\":7976:7996   */\n      sub\n        /* \"#utility.yul\":7971:7973   */\n      0x20\n        /* \"#utility.yul\":7960:7969   */\n      dup4\n        /* \"#utility.yul\":7956:7974   */\n      add\n        /* \"#utility.yul\":7949:7997   */\n      mstore\n        /* \"#utility.yul\":8014:8120   */\n      tag_389\n        /* \"#utility.yul\":8115:8119   */\n      dup2\n        /* \"#utility.yul\":8106:8112   */\n      dup5\n        /* \"#utility.yul\":8014:8120   */\n      tag_248\n      jump\t// in\n    tag_389:\n        /* \"#utility.yul\":8006:8120   */\n      swap1\n      pop\n        /* \"#utility.yul\":7557:8127   */\n      swap4\n      swap3\n      pop\n      pop\n      pop\n      jump\t// out\n        /* \"#utility.yul\":8133:8223   */\n    tag_249:\n        /* \"#utility.yul\":8167:8174   */\n      0x00\n        /* \"#utility.yul\":8210:8215   */\n      dup2\n        /* \"#utility.yul\":8203:8216   */\n      iszero\n        /* \"#utility.yul\":8196:8217   */\n      iszero\n        /* \"#utility.yul\":8185:8217   */\n      swap1\n      pop\n        /* \"#utility.yul\":8133:8223   */\n      swap2\n      swap1\n      pop\n      jump\t// out\n        /* \"#utility.yul\":8229:8338   */\n    tag_250:\n        /* \"#utility.yul\":8310:8331   */\n      tag_392\n        /* \"#utility.yul\":8325:8330   */\n      dup2\n        /* \"#utility.yul\":8310:8331   */\n      tag_249\n      jump\t// in\n    tag_392:\n        /* \"#utility.yul\":8305:8308   */\n      dup3\n        /* \"#utility.yul\":8298:8332   */\n      mstore\n        /* \"#utility.yul\":8229:8338   */\n      pop\n      pop\n      jump\t// out\n        /* \"#utility.yul\":8344:8762   */\n    tag_50:\n        /* \"#utility.yul\":8481:8485   */\n      0x00\n        /* \"#utility.yul\":8519:8521   */\n      0x60\n        /* \"#utility.yul\":8508:8517   */\n      dup3\n        /* \"#utility.yul\":8504:8522   */\n      add\n        /* \"#utility.yul\":8496:8522   */\n      swap1\n      pop\n        /* \"#utility.yul\":8532:8597   */\n      tag_394\n        /* \"#utility.yul\":8594:8595   */\n      0x00\n        /* \"#utility.yul\":8583:8592   */\n      dup4\n        /* \"#utility.yul\":8579:8596   */\n      add\n        /* \"#utility.yul\":8570:8576   */\n      dup7\n        /* \"#utility.yul\":8532:8597   */\n      tag_250\n      jump\t// in\n    tag_394:\n        /* \"#utility.yul\":8607:8673   */\n      tag_395\n        /* \"#utility.yul\":8669:8671   */\n      0x20\n        /* \"#utility.yul\":8658:8667   */\n      dup4\n        /* \"#utility.yul\":8654:8672   */\n      add\n        /* \"#utility.yul\":8645:8651   */\n      dup6\n        /* \"#utility.yul\":8607:8673   */\n      tag_250\n      jump\t// in\n    tag_395:\n        /* \"#utility.yul\":8683:8755   */\n      tag_396\n        /* \"#utility.yul\":8751:8753   */\n      0x40\n        /* \"#utility.yul\":8740:8749   */\n      dup4\n        /* \"#utility.yul\":8736:8754   */\n      add\n        /* \"#utility.yul\":8727:8733   */\n      dup5\n        /* \"#utility.yul\":8683:8755   */\n      tag_228\n      jump\t// in\n    tag_396:\n        /* \"#utility.yul\":8344:8762   */\n      swap5\n      swap4\n      pop\n      pop\n      pop\n      pop\n      jump\t// out\n        /* \"#utility.yul\":8768:8886   */\n    tag_251:\n        /* \"#utility.yul\":8855:8879   */\n      tag_398\n        /* \"#utility.yul\":8873:8878   */\n      dup2\n        /* \"#utility.yul\":8855:8879   */\n      tag_223\n      jump\t// in\n    tag_398:\n        /* \"#utility.yul\":8850:8853   */\n      dup3\n        /* \"#utility.yul\":8843:8880   */\n      mstore\n        /* \"#utility.yul\":8768:8886   */\n      pop\n      pop\n      jump\t// out\n        /* \"#utility.yul\":8892:9114   */\n    tag_57:\n        /* \"#utility.yul\":8985:8989   */\n      0x00\n        /* \"#utility.yul\":9023:9025   */\n      0x20\n        /* \"#utility.yul\":9012:9021   */\n      dup3\n        /* \"#utility.yul\":9008:9026   */\n      add\n        /* \"#utility.yul\":9000:9026   */\n      swap1\n      pop\n        /* \"#utility.yul\":9036:9107   */\n      tag_400\n        /* \"#utility.yul\":9104:9105   */\n      0x00\n        /* \"#utility.yul\":9093:9102   */\n      dup4\n        /* \"#utility.yul\":9089:9106   */\n      add\n        /* \"#utility.yul\":9080:9086   */\n      dup5\n        /* \"#utility.yul\":9036:9107   */\n      tag_251\n      jump\t// in\n    tag_400:\n        /* \"#utility.yul\":8892:9114   */\n      swap3\n      swap2\n      pop\n      pop\n      jump\t// out\n        /* \"#utility.yul\":9120:9543   */\n    tag_64:\n        /* \"#utility.yul\":9261:9265   */\n      0x00\n        /* \"#utility.yul\":9299:9301   */\n      0x40\n        /* \"#utility.yul\":9288:9297   */\n      dup3\n        /* \"#utility.yul\":9284:9302   */\n      add\n        /* \"#utility.yul\":9276:9302   */\n      swap1\n      pop\n        /* \"#utility.yul\":9312:9383   */\n      tag_402\n        /* \"#utility.yul\":9380:9381   */\n      0x00\n        /* \"#utility.yul\":9369:9378   */\n      dup4\n        /* \"#utility.yul\":9365:9382   */\n      add\n        /* \"#utility.yul\":9356:9362   */\n      dup6\n        /* \"#utility.yul\":9312:9383   */\n      tag_251\n      jump\t// in\n    tag_402:\n        /* \"#utility.yul\":9430:9439   */\n      dup2\n        /* \"#utility.yul\":9424:9428   */\n      dup2\n        /* \"#utility.yul\":9420:9440   */\n      sub\n        /* \"#utility.yul\":9415:9417   */\n      0x20\n        /* \"#utility.yul\":9404:9413   */\n      dup4\n        /* \"#utility.yul\":9400:9418   */\n      add\n        /* \"#utility.yul\":9393:9441   */\n      mstore\n        /* \"#utility.yul\":9458:9536   */\n      tag_403\n        /* \"#utility.yul\":9531:9535   */\n      dup2\n        /* \"#utility.yul\":9522:9528   */\n      dup5\n        /* \"#utility.yul\":9458:9536   */\n      tag_235\n      jump\t// in\n    tag_403:\n        /* \"#utility.yul\":9450:9536   */\n      swap1\n      pop\n        /* \"#utility.yul\":9120:9543   */\n      swap4\n      swap3\n      pop\n      pop\n      pop\n      jump\t// out\n        /* \"#utility.yul\":9627:10231   */\n    tag_252:\n        /* \"#utility.yul\":9734:9737   */\n      0x00\n        /* \"#utility.yul\":9770:9774   */\n      0x40\n        /* \"#utility.yul\":9765:9768   */\n      dup4\n        /* \"#utility.yul\":9761:9775   */\n      add\n        /* \"#utility.yul\":9862:9866   */\n      0x00\n        /* \"#utility.yul\":9855:9860   */\n      dup4\n        /* \"#utility.yul\":9851:9867   */\n      add\n        /* \"#utility.yul\":9845:9868   */\n      mload\n        /* \"#utility.yul\":9881:9944   */\n      tag_405\n        /* \"#utility.yul\":9938:9942   */\n      0x00\n        /* \"#utility.yul\":9933:9936   */\n      dup7\n        /* \"#utility.yul\":9929:9943   */\n      add\n        /* \"#utility.yul\":9915:9927   */\n      dup3\n        /* \"#utility.yul\":9881:9944   */\n      tag_245\n      jump\t// in\n    tag_405:\n        /* \"#utility.yul\":9785:9954   */\n      pop\n        /* \"#utility.yul\":10041:10045   */\n      0x20\n        /* \"#utility.yul\":10034:10039   */\n      dup4\n        /* \"#utility.yul\":10030:10046   */\n      add\n        /* \"#utility.yul\":10024:10047   */\n      mload\n        /* \"#utility.yul\":10094:10097   */\n      dup5\n        /* \"#utility.yul\":10088:10092   */\n      dup3\n        /* \"#utility.yul\":10084:10098   */\n      sub\n        /* \"#utility.yul\":10077:10081   */\n      0x20\n        /* \"#utility.yul\":10072:10075   */\n      dup7\n        /* \"#utility.yul\":10068:10082   */\n      add\n        /* \"#utility.yul\":10061:10099   */\n      mstore\n        /* \"#utility.yul\":10120:10193   */\n      tag_406\n        /* \"#utility.yul\":10188:10192   */\n      dup3\n        /* \"#utility.yul\":10174:10186   */\n      dup3\n        /* \"#utility.yul\":10120:10193   */\n      tag_247\n      jump\t// in\n    tag_406:\n        /* \"#utility.yul\":10112:10193   */\n      swap2\n      pop\n        /* \"#utility.yul\":9964:10204   */\n      pop\n        /* \"#utility.yul\":10221:10225   */\n      dup1\n        /* \"#utility.yul\":10214:10225   */\n      swap2\n      pop\n        /* \"#utility.yul\":9739:10231   */\n      pop\n        /* \"#utility.yul\":9627:10231   */\n      swap3\n      swap2\n      pop\n      pop\n      jump\t// out\n        /* \"#utility.yul\":10237:10371   */\n    tag_253:\n        /* \"#utility.yul\":10324:10330   */\n      0x00\n        /* \"#utility.yul\":10358:10363   */\n      dup2\n        /* \"#utility.yul\":10352:10364   */\n      mload\n        /* \"#utility.yul\":10342:10364   */\n      swap1\n      pop\n        /* \"#utility.yul\":10237:10371   */\n      swap2\n      swap1\n      pop\n      jump\t// out\n        /* \"#utility.yul\":10377:10571   */\n    tag_254:\n        /* \"#utility.yul\":10486:10497   */\n      0x00\n        /* \"#utility.yul\":10520:10526   */\n      dup3\n        /* \"#utility.yul\":10515:10518   */\n      dup3\n        /* \"#utility.yul\":10508:10527   */\n      mstore\n        /* \"#utility.yul\":10560:10564   */\n      0x20\n        /* \"#utility.yul\":10555:10558   */\n      dup3\n        /* \"#utility.yul\":10551:10565   */\n      add\n        /* \"#utility.yul\":10536:10565   */\n      swap1\n      pop\n        /* \"#utility.yul\":10377:10571   */\n      swap3\n      swap2\n      pop\n      pop\n      jump\t// out\n        /* \"#utility.yul\":10577:10729   */\n    tag_255:\n        /* \"#utility.yul\":10664:10668   */\n      0x00\n        /* \"#utility.yul\":10687:10690   */\n      dup2\n        /* \"#utility.yul\":10679:10690   */\n      swap1\n      pop\n        /* \"#utility.yul\":10717:10721   */\n      0x20\n        /* \"#utility.yul\":10712:10715   */\n      dup3\n        /* \"#utility.yul\":10708:10722   */\n      add\n        /* \"#utility.yul\":10700:10722   */\n      swap1\n      pop\n        /* \"#utility.yul\":10577:10729   */\n      swap2\n      swap1\n      pop\n      jump\t// out\n        /* \"#utility.yul\":10735:10834   */\n    tag_256:\n        /* \"#utility.yul\":10806:10827   */\n      tag_411\n        /* \"#utility.yul\":10821:10826   */\n      dup2\n        /* \"#utility.yul\":10806:10827   */\n      tag_249\n      jump\t// in\n    tag_411:\n        /* \"#utility.yul\":10801:10804   */\n      dup3\n        /* \"#utility.yul\":10794:10828   */\n      mstore\n        /* \"#utility.yul\":10735:10834   */\n      pop\n      pop\n      jump\t// out\n        /* \"#utility.yul\":10840:10948   */\n    tag_257:\n        /* \"#utility.yul\":10917:10941   */\n      tag_413\n        /* \"#utility.yul\":10935:10940   */\n      dup2\n        /* \"#utility.yul\":10917:10941   */\n      tag_227\n      jump\t// in\n    tag_413:\n        /* \"#utility.yul\":10912:10915   */\n      dup3\n        /* \"#utility.yul\":10905:10942   */\n      mstore\n        /* \"#utility.yul\":10840:10948   */\n      pop\n      pop\n      jump\t// out\n        /* \"#utility.yul\":11026:11681   */\n    tag_258:\n        /* \"#utility.yul\":11153:11157   */\n      0x60\n        /* \"#utility.yul\":11148:11151   */\n      dup3\n        /* \"#utility.yul\":11144:11158   */\n      add\n        /* \"#utility.yul\":11241:11245   */\n      0x00\n        /* \"#utility.yul\":11234:11239   */\n      dup3\n        /* \"#utility.yul\":11230:11246   */\n      add\n        /* \"#utility.yul\":11224:11247   */\n      mload\n        /* \"#utility.yul\":11260:11317   */\n      tag_415\n        /* \"#utility.yul\":11311:11315   */\n      0x00\n        /* \"#utility.yul\":11306:11309   */\n      dup6\n        /* \"#utility.yul\":11302:11316   */\n      add\n        /* \"#utility.yul\":11288:11300   */\n      dup3\n        /* \"#utility.yul\":11260:11317   */\n      tag_256\n      jump\t// in\n    tag_415:\n        /* \"#utility.yul\":11168:11327   */\n      pop\n        /* \"#utility.yul\":11414:11418   */\n      0x20\n        /* \"#utility.yul\":11407:11412   */\n      dup3\n        /* \"#utility.yul\":11403:11419   */\n      add\n        /* \"#utility.yul\":11397:11420   */\n      mload\n        /* \"#utility.yul\":11433:11496   */\n      tag_416\n        /* \"#utility.yul\":11490:11494   */\n      0x20\n        /* \"#utility.yul\":11485:11488   */\n      dup6\n        /* \"#utility.yul\":11481:11495   */\n      add\n        /* \"#utility.yul\":11467:11479   */\n      dup3\n        /* \"#utility.yul\":11433:11496   */\n      tag_257\n      jump\t// in\n    tag_416:\n        /* \"#utility.yul\":11337:11506   */\n      pop\n        /* \"#utility.yul\":11588:11592   */\n      0x40\n        /* \"#utility.yul\":11581:11586   */\n      dup3\n        /* \"#utility.yul\":11577:11593   */\n      add\n        /* \"#utility.yul\":11571:11594   */\n      mload\n        /* \"#utility.yul\":11607:11664   */\n      tag_417\n        /* \"#utility.yul\":11658:11662   */\n      0x40\n        /* \"#utility.yul\":11653:11656   */\n      dup6\n        /* \"#utility.yul\":11649:11663   */\n      add\n        /* \"#utility.yul\":11635:11647   */\n      dup3\n        /* \"#utility.yul\":11607:11664   */\n      tag_256\n      jump\t// in\n    tag_417:\n        /* \"#utility.yul\":11516:11674   */\n      pop\n        /* \"#utility.yul\":11122:11681   */\n      pop\n        /* \"#utility.yul\":11026:11681   */\n      pop\n      pop\n      jump\t// out\n        /* \"#utility.yul\":11687:11946   */\n    tag_259:\n        /* \"#utility.yul\":11796:11806   */\n      0x00\n        /* \"#utility.yul\":11817:11903   */\n      tag_419\n        /* \"#utility.yul\":11899:11902   */\n      dup4\n        /* \"#utility.yul\":11891:11897   */\n      dup4\n        /* \"#utility.yul\":11817:11903   */\n      tag_258\n      jump\t// in\n    tag_419:\n        /* \"#utility.yul\":11935:11939   */\n      0x60\n        /* \"#utility.yul\":11930:11933   */\n      dup4\n        /* \"#utility.yul\":11926:11940   */\n      add\n        /* \"#utility.yul\":11912:11940   */\n      swap1\n      pop\n        /* \"#utility.yul\":11687:11946   */\n      swap3\n      swap2\n      pop\n      pop\n      jump\t// out\n        /* \"#utility.yul\":11952:12085   */\n    tag_260:\n        /* \"#utility.yul\":12042:12046   */\n      0x00\n        /* \"#utility.yul\":12074:12078   */\n      0x20\n        /* \"#utility.yul\":12069:12072   */\n      dup3\n        /* \"#utility.yul\":12065:12079   */\n      add\n        /* \"#utility.yul\":12057:12079   */\n      swap1\n      pop\n        /* \"#utility.yul\":11952:12085   */\n      swap2\n      swap1\n      pop\n      jump\t// out\n        /* \"#utility.yul\":12167:13039   */\n    tag_261:\n        /* \"#utility.yul\":12316:12319   */\n      0x00\n        /* \"#utility.yul\":12345:12419   */\n      tag_422\n        /* \"#utility.yul\":12413:12418   */\n      dup3\n        /* \"#utility.yul\":12345:12419   */\n      tag_253\n      jump\t// in\n    tag_422:\n        /* \"#utility.yul\":12435:12531   */\n      tag_423\n        /* \"#utility.yul\":12524:12530   */\n      dup2\n        /* \"#utility.yul\":12519:12522   */\n      dup6\n        /* \"#utility.yul\":12435:12531   */\n      tag_254\n      jump\t// in\n    tag_423:\n        /* \"#utility.yul\":12428:12531   */\n      swap4\n      pop\n        /* \"#utility.yul\":12555:12631   */\n      tag_424\n        /* \"#utility.yul\":12625:12630   */\n      dup4\n        /* \"#utility.yul\":12555:12631   */\n      tag_255\n      jump\t// in\n    tag_424:\n        /* \"#utility.yul\":12654:12661   */\n      dup1\n        /* \"#utility.yul\":12685:12686   */\n      0x00\n        /* \"#utility.yul\":12670:13014   */\n    tag_425:\n        /* \"#utility.yul\":12695:12701   */\n      dup4\n        /* \"#utility.yul\":12692:12693   */\n      dup2\n        /* \"#utility.yul\":12689:12702   */\n      lt\n        /* \"#utility.yul\":12670:13014   */\n      iszero\n      tag_427\n      jumpi\n        /* \"#utility.yul\":12771:12777   */\n      dup2\n        /* \"#utility.yul\":12765:12778   */\n      mload\n        /* \"#utility.yul\":12798:12901   */\n      tag_428\n        /* \"#utility.yul\":12897:12900   */\n      dup9\n        /* \"#utility.yul\":12882:12895   */\n      dup3\n        /* \"#utility.yul\":12798:12901   */\n      tag_259\n      jump\t// in\n    tag_428:\n        /* \"#utility.yul\":12791:12901   */\n      swap8\n      pop\n        /* \"#utility.yul\":12924:13004   */\n      tag_429\n        /* \"#utility.yul\":12997:13003   */\n      dup4\n        /* \"#utility.yul\":12924:13004   */\n      tag_260\n      jump\t// in\n    tag_429:\n        /* \"#utility.yul\":12914:13004   */\n      swap3\n      pop\n        /* \"#utility.yul\":12730:13014   */\n      pop\n        /* \"#utility.yul\":12717:12718   */\n      0x01\n        /* \"#utility.yul\":12714:12715   */\n      dup2\n        /* \"#utility.yul\":12710:12719   */\n      add\n        /* \"#utility.yul\":12705:12719   */\n      swap1\n      pop\n        /* \"#utility.yul\":12670:13014   */\n      jump(tag_425)\n    tag_427:\n        /* \"#utility.yul\":12674:12688   */\n      pop\n        /* \"#utility.yul\":13030:13033   */\n      dup6\n        /* \"#utility.yul\":13023:13033   */\n      swap4\n      pop\n        /* \"#utility.yul\":12321:13039   */\n      pop\n      pop\n      pop\n        /* \"#utility.yul\":12167:13039   */\n      swap3\n      swap2\n      pop\n      pop\n      jump\t// out\n        /* \"#utility.yul\":13119:14154   */\n    tag_262:\n        /* \"#utility.yul\":13232:13235   */\n      0x00\n        /* \"#utility.yul\":13268:13272   */\n      0x60\n        /* \"#utility.yul\":13263:13266   */\n      dup4\n        /* \"#utility.yul\":13259:13273   */\n      add\n        /* \"#utility.yul\":13358:13362   */\n      0x00\n        /* \"#utility.yul\":13351:13356   */\n      dup4\n        /* \"#utility.yul\":13347:13363   */\n      add\n        /* \"#utility.yul\":13341:13364   */\n      mload\n        /* \"#utility.yul\":13411:13414   */\n      dup5\n        /* \"#utility.yul\":13405:13409   */\n      dup3\n        /* \"#utility.yul\":13401:13415   */\n      sub\n        /* \"#utility.yul\":13394:13398   */\n      0x00\n        /* \"#utility.yul\":13389:13392   */\n      dup7\n        /* \"#utility.yul\":13385:13399   */\n      add\n        /* \"#utility.yul\":13378:13416   */\n      mstore\n        /* \"#utility.yul\":13437:13510   */\n      tag_431\n        /* \"#utility.yul\":13505:13509   */\n      dup3\n        /* \"#utility.yul\":13491:13503   */\n      dup3\n        /* \"#utility.yul\":13437:13510   */\n      tag_247\n      jump\t// in\n    tag_431:\n        /* \"#utility.yul\":13429:13510   */\n      swap2\n      pop\n        /* \"#utility.yul\":13283:13521   */\n      pop\n        /* \"#utility.yul\":13615:13619   */\n      0x20\n        /* \"#utility.yul\":13608:13613   */\n      dup4\n        /* \"#utility.yul\":13604:13620   */\n      add\n        /* \"#utility.yul\":13598:13621   */\n      mload\n        /* \"#utility.yul\":13668:13671   */\n      dup5\n        /* \"#utility.yul\":13662:13666   */\n      dup3\n        /* \"#utility.yul\":13658:13672   */\n      sub\n        /* \"#utility.yul\":13651:13655   */\n      0x20\n        /* \"#utility.yul\":13646:13649   */\n      dup7\n        /* \"#utility.yul\":13642:13656   */\n      add\n        /* \"#utility.yul\":13635:13673   */\n      mstore\n        /* \"#utility.yul\":13694:13795   */\n      tag_432\n        /* \"#utility.yul\":13790:13794   */\n      dup3\n        /* \"#utility.yul\":13776:13788   */\n      dup3\n        /* \"#utility.yul\":13694:13795   */\n      tag_252\n      jump\t// in\n    tag_432:\n        /* \"#utility.yul\":13686:13795   */\n      swap2\n      pop\n        /* \"#utility.yul\":13531:13806   */\n      pop\n        /* \"#utility.yul\":13894:13898   */\n      0x40\n        /* \"#utility.yul\":13887:13892   */\n      dup4\n        /* \"#utility.yul\":13883:13899   */\n      add\n        /* \"#utility.yul\":13877:13900   */\n      mload\n        /* \"#utility.yul\":13947:13950   */\n      dup5\n        /* \"#utility.yul\":13941:13945   */\n      dup3\n        /* \"#utility.yul\":13937:13951   */\n      sub\n        /* \"#utility.yul\":13930:13934   */\n      0x40\n        /* \"#utility.yul\":13925:13928   */\n      dup7\n        /* \"#utility.yul\":13921:13935   */\n      add\n        /* \"#utility.yul\":13914:13952   */\n      mstore\n        /* \"#utility.yul\":13973:14116   */\n      tag_433\n        /* \"#utility.yul\":14111:14115   */\n      dup3\n        /* \"#utility.yul\":14097:14109   */\n      dup3\n        /* \"#utility.yul\":13973:14116   */\n      tag_261\n      jump\t// in\n    tag_433:\n        /* \"#utility.yul\":13965:14116   */\n      swap2\n      pop\n        /* \"#utility.yul\":13816:14127   */\n      pop\n        /* \"#utility.yul\":14144:14148   */\n      dup1\n        /* \"#utility.yul\":14137:14148   */\n      swap2\n      pop\n        /* \"#utility.yul\":13237:14154   */\n      pop\n        /* \"#utility.yul\":13119:14154   */\n      swap3\n      swap2\n      pop\n      pop\n      jump\t// out\n        /* \"#utility.yul\":14160:14521   */\n    tag_68:\n        /* \"#utility.yul\":14297:14301   */\n      0x00\n        /* \"#utility.yul\":14335:14337   */\n      0x20\n        /* \"#utility.yul\":14324:14333   */\n      dup3\n        /* \"#utility.yul\":14320:14338   */\n      add\n        /* \"#utility.yul\":14312:14338   */\n      swap1\n      pop\n        /* \"#utility.yul\":14384:14393   */\n      dup2\n        /* \"#utility.yul\":14378:14382   */\n      dup2\n        /* \"#utility.yul\":14374:14394   */\n      sub\n        /* \"#utility.yul\":14370:14371   */\n      0x00\n        /* \"#utility.yul\":14359:14368   */\n      dup4\n        /* \"#utility.yul\":14355:14372   */\n      add\n        /* \"#utility.yul\":14348:14395   */\n      mstore\n        /* \"#utility.yul\":14412:14514   */\n      tag_435\n        /* \"#utility.yul\":14509:14513   */\n      dup2\n        /* \"#utility.yul\":14500:14506   */\n      dup5\n        /* \"#utility.yul\":14412:14514   */\n      tag_262\n      jump\t// in\n    tag_435:\n        /* \"#utility.yul\":14404:14514   */\n      swap1\n      pop\n        /* \"#utility.yul\":14160:14521   */\n      swap3\n      swap2\n      pop\n      pop\n      jump\t// out\n        /* \"#utility.yul\":14527:14945   */\n    tag_75:\n        /* \"#utility.yul\":14664:14668   */\n      0x00\n        /* \"#utility.yul\":14702:14704   */\n      0x60\n        /* \"#utility.yul\":14691:14700   */\n      dup3\n        /* \"#utility.yul\":14687:14705   */\n      add\n        /* \"#utility.yul\":14679:14705   */\n      swap1\n      pop\n        /* \"#utility.yul\":14715:14780   */\n      tag_437\n        /* \"#utility.yul\":14777:14778   */\n      0x00\n        /* \"#utility.yul\":14766:14775   */\n      dup4\n        /* \"#utility.yul\":14762:14779   */\n      add\n        /* \"#utility.yul\":14753:14759   */\n      dup7\n        /* \"#utility.yul\":14715:14780   */\n      tag_250\n      jump\t// in\n    tag_437:\n        /* \"#utility.yul\":14790:14862   */\n      tag_438\n        /* \"#utility.yul\":14858:14860   */\n      0x20\n        /* \"#utility.yul\":14847:14856   */\n      dup4\n        /* \"#utility.yul\":14843:14861   */\n      add\n        /* \"#utility.yul\":14834:14840   */\n      dup6\n        /* \"#utility.yul\":14790:14862   */\n      tag_228\n      jump\t// in\n    tag_438:\n        /* \"#utility.yul\":14872:14938   */\n      tag_439\n        /* \"#utility.yul\":14934:14936   */\n      0x40\n        /* \"#utility.yul\":14923:14932   */\n      dup4\n        /* \"#utility.yul\":14919:14937   */\n      add\n        /* \"#utility.yul\":14910:14916   */\n      dup5\n        /* \"#utility.yul\":14872:14938   */\n      tag_250\n      jump\t// in\n    tag_439:\n        /* \"#utility.yul\":14527:14945   */\n      swap5\n      swap4\n      pop\n      pop\n      pop\n      pop\n      jump\t// out\n        /* \"#utility.yul\":14951:15706   */\n    tag_79:\n        /* \"#utility.yul\":15176:15180   */\n      0x00\n        /* \"#utility.yul\":15214:15217   */\n      0xa0\n        /* \"#utility.yul\":15203:15212   */\n      dup3\n        /* \"#utility.yul\":15199:15218   */\n      add\n        /* \"#utility.yul\":15191:15218   */\n      swap1\n      pop\n        /* \"#utility.yul\":15264:15273   */\n      dup2\n        /* \"#utility.yul\":15258:15262   */\n      dup2\n        /* \"#utility.yul\":15254:15274   */\n      sub\n        /* \"#utility.yul\":15250:15251   */\n      0x00\n        /* \"#utility.yul\":15239:15248   */\n      dup4\n        /* \"#utility.yul\":15235:15252   */\n      add\n        /* \"#utility.yul\":15228:15275   */\n      mstore\n        /* \"#utility.yul\":15292:15370   */\n      tag_441\n        /* \"#utility.yul\":15365:15369   */\n      dup2\n        /* \"#utility.yul\":15356:15362   */\n      dup9\n        /* \"#utility.yul\":15292:15370   */\n      tag_235\n      jump\t// in\n    tag_441:\n        /* \"#utility.yul\":15284:15370   */\n      swap1\n      pop\n        /* \"#utility.yul\":15380:15452   */\n      tag_442\n        /* \"#utility.yul\":15448:15450   */\n      0x20\n        /* \"#utility.yul\":15437:15446   */\n      dup4\n        /* \"#utility.yul\":15433:15451   */\n      add\n        /* \"#utility.yul\":15424:15430   */\n      dup8\n        /* \"#utility.yul\":15380:15452   */\n      tag_251\n      jump\t// in\n    tag_442:\n        /* \"#utility.yul\":15462:15534   */\n      tag_443\n        /* \"#utility.yul\":15530:15532   */\n      0x40\n        /* \"#utility.yul\":15519:15528   */\n      dup4\n        /* \"#utility.yul\":15515:15533   */\n      add\n        /* \"#utility.yul\":15506:15512   */\n      dup7\n        /* \"#utility.yul\":15462:15534   */\n      tag_228\n      jump\t// in\n    tag_443:\n        /* \"#utility.yul\":15544:15616   */\n      tag_444\n        /* \"#utility.yul\":15612:15614   */\n      0x60\n        /* \"#utility.yul\":15601:15610   */\n      dup4\n        /* \"#utility.yul\":15597:15615   */\n      add\n        /* \"#utility.yul\":15588:15594   */\n      dup6\n        /* \"#utility.yul\":15544:15616   */\n      tag_251\n      jump\t// in\n    tag_444:\n        /* \"#utility.yul\":15626:15699   */\n      tag_445\n        /* \"#utility.yul\":15694:15697   */\n      0x80\n        /* \"#utility.yul\":15683:15692   */\n      dup4\n        /* \"#utility.yul\":15679:15698   */\n      add\n        /* \"#utility.yul\":15670:15676   */\n      dup5\n        /* \"#utility.yul\":15626:15699   */\n      tag_251\n      jump\t// in\n    tag_445:\n        /* \"#utility.yul\":14951:15706   */\n      swap7\n      swap6\n      pop\n      pop\n      pop\n      pop\n      pop\n      pop\n      jump\t// out\n        /* \"#utility.yul\":15712:15939   */\n    tag_263:\n        /* \"#utility.yul\":15852:15886   */\n      0x4f6e6c7920696e69746961746f722063616e2072656769737465722061207265\n        /* \"#utility.yul\":15848:15849   */\n      0x00\n        /* \"#utility.yul\":15840:15846   */\n      dup3\n        /* \"#utility.yul\":15836:15850   */\n      add\n        /* \"#utility.yul\":15829:15887   */\n      mstore\n        /* \"#utility.yul\":15921:15931   */\n      0x63697069656e742e000000000000000000000000000000000000000000000000\n        /* \"#utility.yul\":15916:15918   */\n      0x20\n        /* \"#utility.yul\":15908:15914   */\n      dup3\n        /* \"#utility.yul\":15904:15919   */\n      add\n        /* \"#utility.yul\":15897:15932   */\n      mstore\n        /* \"#utility.yul\":15712:15939   */\n      pop\n      jump\t// out\n        /* \"#utility.yul\":15945:16311   */\n    tag_264:\n        /* \"#utility.yul\":16087:16090   */\n      0x00\n        /* \"#utility.yul\":16108:16175   */\n      tag_448\n        /* \"#utility.yul\":16172:16174   */\n      0x28\n        /* \"#utility.yul\":16167:16170   */\n      dup4\n        /* \"#utility.yul\":16108:16175   */\n      tag_232\n      jump\t// in\n    tag_448:\n        /* \"#utility.yul\":16101:16175   */\n      swap2\n      pop\n        /* \"#utility.yul\":16184:16277   */\n      tag_449\n        /* \"#utility.yul\":16273:16276   */\n      dup3\n        /* \"#utility.yul\":16184:16277   */\n      tag_263\n      jump\t// in\n    tag_449:\n        /* \"#utility.yul\":16302:16304   */\n      0x40\n        /* \"#utility.yul\":16297:16300   */\n      dup3\n        /* \"#utility.yul\":16293:16305   */\n      add\n        /* \"#utility.yul\":16286:16305   */\n      swap1\n      pop\n        /* \"#utility.yul\":15945:16311   */\n      swap2\n      swap1\n      pop\n      jump\t// out\n        /* \"#utility.yul\":16317:16736   */\n    tag_98:\n        /* \"#utility.yul\":16483:16487   */\n      0x00\n        /* \"#utility.yul\":16521:16523   */\n      0x20\n        /* \"#utility.yul\":16510:16519   */\n      dup3\n        /* \"#utility.yul\":16506:16524   */\n      add\n        /* \"#utility.yul\":16498:16524   */\n      swap1\n      pop\n        /* \"#utility.yul\":16570:16579   */\n      dup2\n        /* \"#utility.yul\":16564:16568   */\n      dup2\n        /* \"#utility.yul\":16560:16580   */\n      sub\n        /* \"#utility.yul\":16556:16557   */\n      0x00\n        /* \"#utility.yul\":16545:16554   */\n      dup4\n        /* \"#utility.yul\":16541:16558   */\n      add\n        /* \"#utility.yul\":16534:16581   */\n      mstore\n        /* \"#utility.yul\":16598:16729   */\n      tag_451\n        /* \"#utility.yul\":16724:16728   */\n      dup2\n        /* \"#utility.yul\":16598:16729   */\n      tag_264\n      jump\t// in\n    tag_451:\n        /* \"#utility.yul\":16590:16729   */\n      swap1\n      pop\n        /* \"#utility.yul\":16317:16736   */\n      swap2\n      swap1\n      pop\n      jump\t// out\n        /* \"#utility.yul\":16742:16913   */\n    tag_265:\n        /* \"#utility.yul\":16882:16905   */\n      0x496e69746961746f722063616e277420766f7465210000000000000000000000\n        /* \"#utility.yul\":16878:16879   */\n      0x00\n        /* \"#utility.yul\":16870:16876   */\n      dup3\n        /* \"#utility.yul\":16866:16880   */\n      add\n        /* \"#utility.yul\":16859:16906   */\n      mstore\n        /* \"#utility.yul\":16742:16913   */\n      pop\n      jump\t// out\n        /* \"#utility.yul\":16919:17285   */\n    tag_266:\n        /* \"#utility.yul\":17061:17064   */\n      0x00\n        /* \"#utility.yul\":17082:17149   */\n      tag_454\n        /* \"#utility.yul\":17146:17148   */\n      0x15\n        /* \"#utility.yul\":17141:17144   */\n      dup4\n        /* \"#utility.yul\":17082:17149   */\n      tag_232\n      jump\t// in\n    tag_454:\n        /* \"#utility.yul\":17075:17149   */\n      swap2\n      pop\n        /* \"#utility.yul\":17158:17251   */\n      tag_455\n        /* \"#utility.yul\":17247:17250   */\n      dup3\n        /* \"#utility.yul\":17158:17251   */\n      tag_265\n      jump\t// in\n    tag_455:\n        /* \"#utility.yul\":17276:17278   */\n      0x20\n        /* \"#utility.yul\":17271:17274   */\n      dup3\n        /* \"#utility.yul\":17267:17279   */\n      add\n        /* \"#utility.yul\":17260:17279   */\n      swap1\n      pop\n        /* \"#utility.yul\":16919:17285   */\n      swap2\n      swap1\n      pop\n      jump\t// out\n        /* \"#utility.yul\":17291:17710   */\n    tag_101:\n        /* \"#utility.yul\":17457:17461   */\n      0x00\n        /* \"#utility.yul\":17495:17497   */\n      0x20\n        /* \"#utility.yul\":17484:17493   */\n      dup3\n        /* \"#utility.yul\":17480:17498   */\n      add\n        /* \"#utility.yul\":17472:17498   */\n      swap1\n      pop\n        /* \"#utility.yul\":17544:17553   */\n      dup2\n        /* \"#utility.yul\":17538:17542   */\n      dup2\n        /* \"#utility.yul\":17534:17554   */\n      sub\n        /* \"#utility.yul\":17530:17531   */\n      0x00\n        /* \"#utility.yul\":17519:17528   */\n      dup4\n        /* \"#utility.yul\":17515:17532   */\n      add\n        /* \"#utility.yul\":17508:17555   */\n      mstore\n        /* \"#utility.yul\":17572:17703   */\n      tag_457\n        /* \"#utility.yul\":17698:17702   */\n      dup2\n        /* \"#utility.yul\":17572:17703   */\n      tag_266\n      jump\t// in\n    tag_457:\n        /* \"#utility.yul\":17564:17703   */\n      swap1\n      pop\n        /* \"#utility.yul\":17291:17710   */\n      swap2\n      swap1\n      pop\n      jump\t// out\n        /* \"#utility.yul\":17716:17897   */\n    tag_267:\n        /* \"#utility.yul\":17856:17889   */\n      0x526563697069656e7420697320616c7265616479207265676973746572656400\n        /* \"#utility.yul\":17852:17853   */\n      0x00\n        /* \"#utility.yul\":17844:17850   */\n      dup3\n        /* \"#utility.yul\":17840:17854   */\n      add\n        /* \"#utility.yul\":17833:17890   */\n      mstore\n        /* \"#utility.yul\":17716:17897   */\n      pop\n      jump\t// out\n        /* \"#utility.yul\":17903:18269   */\n    tag_268:\n        /* \"#utility.yul\":18045:18048   */\n      0x00\n        /* \"#utility.yul\":18066:18133   */\n      tag_460\n        /* \"#utility.yul\":18130:18132   */\n      0x1f\n        /* \"#utility.yul\":18125:18128   */\n      dup4\n        /* \"#utility.yul\":18066:18133   */\n      tag_232\n      jump\t// in\n    tag_460:\n        /* \"#utility.yul\":18059:18133   */\n      swap2\n      pop\n        /* \"#utility.yul\":18142:18235   */\n      tag_461\n        /* \"#utility.yul\":18231:18234   */\n      dup3\n        /* \"#utility.yul\":18142:18235   */\n      tag_267\n      jump\t// in\n    tag_461:\n        /* \"#utility.yul\":18260:18262   */\n      0x20\n        /* \"#utility.yul\":18255:18258   */\n      dup3\n        /* \"#utility.yul\":18251:18263   */\n      add\n        /* \"#utility.yul\":18244:18263   */\n      swap1\n      pop\n        /* \"#utility.yul\":17903:18269   */\n      swap2\n      swap1\n      pop\n      jump\t// out\n        /* \"#utility.yul\":18275:18694   */\n    tag_104:\n        /* \"#utility.yul\":18441:18445   */\n      0x00\n        /* \"#utility.yul\":18479:18481   */\n      0x20\n        /* \"#utility.yul\":18468:18477   */\n      dup3\n        /* \"#utility.yul\":18464:18482   */\n      add\n        /* \"#utility.yul\":18456:18482   */\n      swap1\n      pop\n        /* \"#utility.yul\":18528:18537   */\n      dup2\n        /* \"#utility.yul\":18522:18526   */\n      dup2\n        /* \"#utility.yul\":18518:18538   */\n      sub\n        /* \"#utility.yul\":18514:18515   */\n      0x00\n        /* \"#utility.yul\":18503:18512   */\n      dup4\n        /* \"#utility.yul\":18499:18516   */\n      add\n        /* \"#utility.yul\":18492:18539   */\n      mstore\n        /* \"#utility.yul\":18556:18687   */\n      tag_463\n        /* \"#utility.yul\":18682:18686   */\n      dup2\n        /* \"#utility.yul\":18556:18687   */\n      tag_268\n      jump\t// in\n    tag_463:\n        /* \"#utility.yul\":18548:18687   */\n      swap1\n      pop\n        /* \"#utility.yul\":18275:18694   */\n      swap2\n      swap1\n      pop\n      jump\t// out\n        /* \"#utility.yul\":18700:18923   */\n    tag_269:\n        /* \"#utility.yul\":18840:18874   */\n      0x50726f706f73616c206861732072656163686564206974732065787069727920\n        /* \"#utility.yul\":18836:18837   */\n      0x00\n        /* \"#utility.yul\":18828:18834   */\n      dup3\n        /* \"#utility.yul\":18824:18838   */\n      add\n        /* \"#utility.yul\":18817:18875   */\n      mstore\n        /* \"#utility.yul\":18909:18915   */\n      0x6461746500000000000000000000000000000000000000000000000000000000\n        /* \"#utility.yul\":18904:18906   */\n      0x20\n        /* \"#utility.yul\":18896:18902   */\n      dup3\n        /* \"#utility.yul\":18892:18907   */\n      add\n        /* \"#utility.yul\":18885:18916   */\n      mstore\n        /* \"#utility.yul\":18700:18923   */\n      pop\n      jump\t// out\n        /* \"#utility.yul\":18929:19295   */\n    tag_270:\n        /* \"#utility.yul\":19071:19074   */\n      0x00\n        /* \"#utility.yul\":19092:19159   */\n      tag_466\n        /* \"#utility.yul\":19156:19158   */\n      0x24\n        /* \"#utility.yul\":19151:19154   */\n      dup4\n        /* \"#utility.yul\":19092:19159   */\n      tag_232\n      jump\t// in\n    tag_466:\n        /* \"#utility.yul\":19085:19159   */\n      swap2\n      pop\n        /* \"#utility.yul\":19168:19261   */\n      tag_467\n        /* \"#utility.yul\":19257:19260   */\n      dup3\n        /* \"#utility.yul\":19168:19261   */\n      tag_269\n      jump\t// in\n    tag_467:\n        /* \"#utility.yul\":19286:19288   */\n      0x40\n        /* \"#utility.yul\":19281:19284   */\n      dup3\n        /* \"#utility.yul\":19277:19289   */\n      add\n        /* \"#utility.yul\":19270:19289   */\n      swap1\n      pop\n        /* \"#utility.yul\":18929:19295   */\n      swap2\n      swap1\n      pop\n      jump\t// out\n        /* \"#utility.yul\":19301:19720   */\n    tag_107:\n        /* \"#utility.yul\":19467:19471   */\n      0x00\n        /* \"#utility.yul\":19505:19507   */\n      0x20\n        /* \"#utility.yul\":19494:19503   */\n      dup3\n        /* \"#utility.yul\":19490:19508   */\n      add\n        /* \"#utility.yul\":19482:19508   */\n      swap1\n      pop\n        /* \"#utility.yul\":19554:19563   */\n      dup2\n        /* \"#utility.yul\":19548:19552   */\n      dup2\n        /* \"#utility.yul\":19544:19564   */\n      sub\n        /* \"#utility.yul\":19540:19541   */\n      0x00\n        /* \"#utility.yul\":19529:19538   */\n      dup4\n        /* \"#utility.yul\":19525:19542   */\n      add\n        /* \"#utility.yul\":19518:19565   */\n      mstore\n        /* \"#utility.yul\":19582:19713   */\n      tag_469\n        /* \"#utility.yul\":19708:19712   */\n      dup2\n        /* \"#utility.yul\":19582:19713   */\n      tag_270\n      jump\t// in\n    tag_469:\n        /* \"#utility.yul\":19574:19713   */\n      swap1\n      pop\n        /* \"#utility.yul\":19301:19720   */\n      swap2\n      swap1\n      pop\n      jump\t// out\n        /* \"#utility.yul\":19726:19906   */\n    tag_271:\n        /* \"#utility.yul\":19774:19851   */\n      0x4e487b7100000000000000000000000000000000000000000000000000000000\n        /* \"#utility.yul\":19771:19772   */\n      0x00\n        /* \"#utility.yul\":19764:19852   */\n      mstore\n        /* \"#utility.yul\":19871:19875   */\n      0x22\n        /* \"#utility.yul\":19868:19869   */\n      0x04\n        /* \"#utility.yul\":19861:19876   */\n      mstore\n        /* \"#utility.yul\":19895:19899   */\n      0x24\n        /* \"#utility.yul\":19892:19893   */\n      0x00\n        /* \"#utility.yul\":19885:19900   */\n      revert\n        /* \"#utility.yul\":19912:20232   */\n    tag_111:\n        /* \"#utility.yul\":19956:19962   */\n      0x00\n        /* \"#utility.yul\":19993:19994   */\n      0x02\n        /* \"#utility.yul\":19987:19991   */\n      dup3\n        /* \"#utility.yul\":19983:19995   */\n      div\n        /* \"#utility.yul\":19973:19995   */\n      swap1\n      pop\n        /* \"#utility.yul\":20040:20041   */\n      0x01\n        /* \"#utility.yul\":20034:20038   */\n      dup3\n        /* \"#utility.yul\":20030:20042   */\n      and\n        /* \"#utility.yul\":20061:20079   */\n      dup1\n        /* \"#utility.yul\":20051:20132   */\n      tag_472\n      jumpi\n        /* \"#utility.yul\":20117:20121   */\n      0x7f\n        /* \"#utility.yul\":20109:20115   */\n      dup3\n        /* \"#utility.yul\":20105:20122   */\n      and\n        /* \"#utility.yul\":20095:20122   */\n      swap2\n      pop\n        /* \"#utility.yul\":20051:20132   */\n    tag_472:\n        /* \"#utility.yul\":20179:20181   */\n      0x20\n        /* \"#utility.yul\":20171:20177   */\n      dup3\n        /* \"#utility.yul\":20168:20182   */\n      lt\n        /* \"#utility.yul\":20148:20166   */\n      dup2\n        /* \"#utility.yul\":20145:20183   */\n      sub\n        /* \"#utility.yul\":20142:20226   */\n      tag_473\n      jumpi\n        /* \"#utility.yul\":20198:20216   */\n      tag_474\n      tag_271\n      jump\t// in\n    tag_474:\n        /* \"#utility.yul\":20142:20226   */\n    tag_473:\n        /* \"#utility.yul\":19963:20232   */\n      pop\n        /* \"#utility.yul\":19912:20232   */\n      swap2\n      swap1\n      pop\n      jump\t// out\n        /* \"#utility.yul\":20238:20406   */\n    tag_272:\n        /* \"#utility.yul\":20378:20398   */\n      0x566f74696e672068617320657870697265640000000000000000000000000000\n        /* \"#utility.yul\":20374:20375   */\n      0x00\n        /* \"#utility.yul\":20366:20372   */\n      dup3\n        /* \"#utility.yul\":20362:20376   */\n      add\n        /* \"#utility.yul\":20355:20399   */\n      mstore\n        /* \"#utility.yul\":20238:20406   */\n      pop\n      jump\t// out\n        /* \"#utility.yul\":20412:20778   */\n    tag_273:\n        /* \"#utility.yul\":20554:20557   */\n      0x00\n        /* \"#utility.yul\":20575:20642   */\n      tag_477\n        /* \"#utility.yul\":20639:20641   */\n      0x12\n        /* \"#utility.yul\":20634:20637   */\n      dup4\n        /* \"#utility.yul\":20575:20642   */\n      tag_232\n      jump\t// in\n    tag_477:\n        /* \"#utility.yul\":20568:20642   */\n      swap2\n      pop\n        /* \"#utility.yul\":20651:20744   */\n      tag_478\n        /* \"#utility.yul\":20740:20743   */\n      dup3\n        /* \"#utility.yul\":20651:20744   */\n      tag_272\n      jump\t// in\n    tag_478:\n        /* \"#utility.yul\":20769:20771   */\n      0x20\n        /* \"#utility.yul\":20764:20767   */\n      dup3\n        /* \"#utility.yul\":20760:20772   */\n      add\n        /* \"#utility.yul\":20753:20772   */\n      swap1\n      pop\n        /* \"#utility.yul\":20412:20778   */\n      swap2\n      swap1\n      pop\n      jump\t// out\n        /* \"#utility.yul\":20784:21203   */\n    tag_119:\n        /* \"#utility.yul\":20950:20954   */\n      0x00\n        /* \"#utility.yul\":20988:20990   */\n      0x20\n        /* \"#utility.yul\":20977:20986   */\n      dup3\n        /* \"#utility.yul\":20973:20991   */\n      add\n        /* \"#utility.yul\":20965:20991   */\n      swap1\n      pop\n        /* \"#utility.yul\":21037:21046   */\n      dup2\n        /* \"#utility.yul\":21031:21035   */\n      dup2\n        /* \"#utility.yul\":21027:21047   */\n      sub\n        /* \"#utility.yul\":21023:21024   */\n      0x00\n        /* \"#utility.yul\":21012:21021   */\n      dup4\n        /* \"#utility.yul\":21008:21025   */\n      add\n        /* \"#utility.yul\":21001:21048   */\n      mstore\n        /* \"#utility.yul\":21065:21196   */\n      tag_480\n        /* \"#utility.yul\":21191:21195   */\n      dup2\n        /* \"#utility.yul\":21065:21196   */\n      tag_273\n      jump\t// in\n    tag_480:\n        /* \"#utility.yul\":21057:21196   */\n      swap1\n      pop\n        /* \"#utility.yul\":20784:21203   */\n      swap2\n      swap1\n      pop\n      jump\t// out\n        /* \"#utility.yul\":21209:21389   */\n    tag_274:\n        /* \"#utility.yul\":21349:21381   */\n      0x596f7520617265206e6f74207265676973746572656420746f20766f74650000\n        /* \"#utility.yul\":21345:21346   */\n      0x00\n        /* \"#utility.yul\":21337:21343   */\n      dup3\n        /* \"#utility.yul\":21333:21347   */\n      add\n        /* \"#utility.yul\":21326:21382   */\n      mstore\n        /* \"#utility.yul\":21209:21389   */\n      pop\n      jump\t// out\n        /* \"#utility.yul\":21395:21761   */\n    tag_275:\n        /* \"#utility.yul\":21537:21540   */\n      0x00\n        /* \"#utility.yul\":21558:21625   */\n      tag_483\n        /* \"#utility.yul\":21622:21624   */\n      0x1e\n        /* \"#utility.yul\":21617:21620   */\n      dup4\n        /* \"#utility.yul\":21558:21625   */\n      tag_232\n      jump\t// in\n    tag_483:\n        /* \"#utility.yul\":21551:21625   */\n      swap2\n      pop\n        /* \"#utility.yul\":21634:21727   */\n      tag_484\n        /* \"#utility.yul\":21723:21726   */\n      dup3\n        /* \"#utility.yul\":21634:21727   */\n      tag_274\n      jump\t// in\n    tag_484:\n        /* \"#utility.yul\":21752:21754   */\n      0x20\n        /* \"#utility.yul\":21747:21750   */\n      dup3\n        /* \"#utility.yul\":21743:21755   */\n      add\n        /* \"#utility.yul\":21736:21755   */\n      swap1\n      pop\n        /* \"#utility.yul\":21395:21761   */\n      swap2\n      swap1\n      pop\n      jump\t// out\n        /* \"#utility.yul\":21767:22186   */\n    tag_122:\n        /* \"#utility.yul\":21933:21937   */\n      0x00\n        /* \"#utility.yul\":21971:21973   */\n      0x20\n        /* \"#utility.yul\":21960:21969   */\n      dup3\n        /* \"#utility.yul\":21956:21974   */\n      add\n        /* \"#utility.yul\":21948:21974   */\n      swap1\n      pop\n        /* \"#utility.yul\":22020:22029   */\n      dup2\n        /* \"#utility.yul\":22014:22018   */\n      dup2\n        /* \"#utility.yul\":22010:22030   */\n      sub\n        /* \"#utility.yul\":22006:22007   */\n      0x00\n        /* \"#utility.yul\":21995:22004   */\n      dup4\n        /* \"#utility.yul\":21991:22008   */\n      add\n        /* \"#utility.yul\":21984:22031   */\n      mstore\n        /* \"#utility.yul\":22048:22179   */\n      tag_486\n        /* \"#utility.yul\":22174:22178   */\n      dup2\n        /* \"#utility.yul\":22048:22179   */\n      tag_275\n      jump\t// in\n    tag_486:\n        /* \"#utility.yul\":22040:22179   */\n      swap1\n      pop\n        /* \"#utility.yul\":21767:22186   */\n      swap2\n      swap1\n      pop\n      jump\t// out\n        /* \"#utility.yul\":22192:22370   */\n    tag_276:\n        /* \"#utility.yul\":22332:22362   */\n      0x596f7520616c72656164792073656e74206120726573706f6e73652e00000000\n        /* \"#utility.yul\":22328:22329   */\n      0x00\n        /* \"#utility.yul\":22320:22326   */\n      dup3\n        /* \"#utility.yul\":22316:22330   */\n      add\n        /* \"#utility.yul\":22309:22363   */\n      mstore\n        /* \"#utility.yul\":22192:22370   */\n      pop\n      jump\t// out\n        /* \"#utility.yul\":22376:22742   */\n    tag_277:\n        /* \"#utility.yul\":22518:22521   */\n      0x00\n        /* \"#utility.yul\":22539:22606   */\n      tag_489\n        /* \"#utility.yul\":22603:22605   */\n      0x1c\n        /* \"#utility.yul\":22598:22601   */\n      dup4\n        /* \"#utility.yul\":22539:22606   */\n      tag_232\n      jump\t// in\n    tag_489:\n        /* \"#utility.yul\":22532:22606   */\n      swap2\n      pop\n        /* \"#utility.yul\":22615:22708   */\n      tag_490\n        /* \"#utility.yul\":22704:22707   */\n      dup3\n        /* \"#utility.yul\":22615:22708   */\n      tag_276\n      jump\t// in\n    tag_490:\n        /* \"#utility.yul\":22733:22735   */\n      0x20\n        /* \"#utility.yul\":22728:22731   */\n      dup3\n        /* \"#utility.yul\":22724:22736   */\n      add\n        /* \"#utility.yul\":22717:22736   */\n      swap1\n      pop\n        /* \"#utility.yul\":22376:22742   */\n      swap2\n      swap1\n      pop\n      jump\t// out\n        /* \"#utility.yul\":22748:23167   */\n    tag_125:\n        /* \"#utility.yul\":22914:22918   */\n      0x00\n        /* \"#utility.yul\":22952:22954   */\n      0x20\n        /* \"#utility.yul\":22941:22950   */\n      dup3\n        /* \"#utility.yul\":22937:22955   */\n      add\n        /* \"#utility.yul\":22929:22955   */\n      swap1\n      pop\n        /* \"#utility.yul\":23001:23010   */\n      dup2\n        /* \"#utility.yul\":22995:22999   */\n      dup2\n        /* \"#utility.yul\":22991:23011   */\n      sub\n        /* \"#utility.yul\":22987:22988   */\n      0x00\n        /* \"#utility.yul\":22976:22985   */\n      dup4\n        /* \"#utility.yul\":22972:22989   */\n      add\n        /* \"#utility.yul\":22965:23012   */\n      mstore\n        /* \"#utility.yul\":23029:23160   */\n      tag_492\n        /* \"#utility.yul\":23155:23159   */\n      dup2\n        /* \"#utility.yul\":23029:23160   */\n      tag_277\n      jump\t// in\n    tag_492:\n        /* \"#utility.yul\":23021:23160   */\n      swap1\n      pop\n        /* \"#utility.yul\":22748:23167   */\n      swap2\n      swap1\n      pop\n      jump\t// out\n        /* \"#utility.yul\":23173:23353   */\n    tag_278:\n        /* \"#utility.yul\":23221:23298   */\n      0x4e487b7100000000000000000000000000000000000000000000000000000000\n        /* \"#utility.yul\":23218:23219   */\n      0x00\n        /* \"#utility.yul\":23211:23299   */\n      mstore\n        /* \"#utility.yul\":23318:23322   */\n      0x11\n        /* \"#utility.yul\":23315:23316   */\n      0x04\n        /* \"#utility.yul\":23308:23323   */\n      mstore\n        /* \"#utility.yul\":23342:23346   */\n      0x24\n        /* \"#utility.yul\":23339:23340   */\n      0x00\n        /* \"#utility.yul\":23332:23347   */\n      revert\n        /* \"#utility.yul\":23359:23664   */\n    tag_128:\n        /* \"#utility.yul\":23399:23402   */\n      0x00\n        /* \"#utility.yul\":23418:23438   */\n      tag_495\n        /* \"#utility.yul\":23436:23437   */\n      dup3\n        /* \"#utility.yul\":23418:23438   */\n      tag_223\n      jump\t// in\n    tag_495:\n        /* \"#utility.yul\":23413:23438   */\n      swap2\n      pop\n        /* \"#utility.yul\":23452:23472   */\n      tag_496\n        /* \"#utility.yul\":23470:23471   */\n      dup4\n        /* \"#utility.yul\":23452:23472   */\n      tag_223\n      jump\t// in\n    tag_496:\n        /* \"#utility.yul\":23447:23472   */\n      swap3\n      pop\n        /* \"#utility.yul\":23606:23607   */\n      dup3\n        /* \"#utility.yul\":23538:23604   */\n      0xffffffffffffffffffffffffffffffffffffffffffffffffffffffffffffffff\n        /* \"#utility.yul\":23534:23608   */\n      sub\n        /* \"#utility.yul\":23531:23532   */\n      dup3\n        /* \"#utility.yul\":23528:23609   */\n      gt\n        /* \"#utility.yul\":23525:23632   */\n      iszero\n      tag_497\n      jumpi\n        /* \"#utility.yul\":23612:23630   */\n      tag_498\n      tag_278\n      jump\t// in\n    tag_498:\n        /* \"#utility.yul\":23525:23632   */\n    tag_497:\n        /* \"#utility.yul\":23656:23657   */\n      dup3\n        /* \"#utility.yul\":23653:23654   */\n      dup3\n        /* \"#utility.yul\":23649:23658   */\n      add\n        /* \"#utility.yul\":23642:23658   */\n      swap1\n      pop\n        /* \"#utility.yul\":23359:23664   */\n      swap3\n      swap2\n      pop\n      pop\n      jump\t// out\n        /* \"#utility.yul\":23670:23852   */\n    tag_279:\n        /* \"#utility.yul\":23810:23844   */\n      0x5665726469637420686173206e6f74206265656e207265616368656420796574\n        /* \"#utility.yul\":23806:23807   */\n      0x00\n        /* \"#utility.yul\":23798:23804   */\n      dup3\n        /* \"#utility.yul\":23794:23808   */\n      add\n        /* \"#utility.yul\":23787:23845   */\n      mstore\n        /* \"#utility.yul\":23670:23852   */\n      pop\n      jump\t// out\n        /* \"#utility.yul\":23858:24224   */\n    tag_280:\n        /* \"#utility.yul\":24000:24003   */\n      0x00\n        /* \"#utility.yul\":24021:24088   */\n      tag_501\n        /* \"#utility.yul\":24085:24087   */\n      0x20\n        /* \"#utility.yul\":24080:24083   */\n      dup4\n        /* \"#utility.yul\":24021:24088   */\n      tag_232\n      jump\t// in\n    tag_501:\n        /* \"#utility.yul\":24014:24088   */\n      swap2\n      pop\n        /* \"#utility.yul\":24097:24190   */\n      tag_502\n        /* \"#utility.yul\":24186:24189   */\n      dup3\n        /* \"#utility.yul\":24097:24190   */\n      tag_279\n      jump\t// in\n    tag_502:\n        /* \"#utility.yul\":24215:24217   */\n      0x20\n        /* \"#utility.yul\":24210:24213   */\n      dup3\n        /* \"#utility.yul\":24206:24218   */\n      add\n        /* \"#utility.yul\":24199:24218   */\n      swap1\n      pop\n        /* \"#utility.yul\":23858:24224   */\n      swap2\n      swap1\n      pop\n      jump\t// out\n        /* \"#utility.yul\":24230:24649   */\n    tag_156:\n        /* \"#utility.yul\":24396:24400   */\n      0x00\n        /* \"#utility.yul\":24434:24436   */\n      0x20\n        /* \"#utility.yul\":24423:24432   */\n      dup3\n        /* \"#utility.yul\":24419:24437   */\n      add\n        /* \"#utility.yul\":24411:24437   */\n      swap1\n      pop\n        /* \"#utility.yul\":24483:24492   */\n      dup2\n        /* \"#utility.yul\":24477:24481   */\n      dup2\n        /* \"#utility.yul\":24473:24493   */\n      sub\n        /* \"#utility.yul\":24469:24470   */\n      0x00\n        /* \"#utility.yul\":24458:24467   */\n      dup4\n        /* \"#utility.yul\":24454:24471   */\n      add\n        /* \"#utility.yul\":24447:24494   */\n      mstore\n        /* \"#utility.yul\":24511:24642   */\n      tag_504\n        /* \"#utility.yul\":24637:24641   */\n      dup2\n        /* \"#utility.yul\":24511:24642   */\n      tag_280\n      jump\t// in\n    tag_504:\n        /* \"#utility.yul\":24503:24642   */\n      swap1\n      pop\n        /* \"#utility.yul\":24230:24649   */\n      swap2\n      swap1\n      pop\n      jump\t// out\n        /* \"#utility.yul\":24655:24879   */\n    tag_281:\n        /* \"#utility.yul\":24795:24829   */\n      0x436f6e73656e7375732068617320616c7265616479206265656e2063616c6375\n        /* \"#utility.yul\":24791:24792   */\n      0x00\n        /* \"#utility.yul\":24783:24789   */\n      dup3\n        /* \"#utility.yul\":24779:24793   */\n      add\n        /* \"#utility.yul\":24772:24830   */\n      mstore\n        /* \"#utility.yul\":24864:24871   */\n      0x6c61746564000000000000000000000000000000000000000000000000000000\n        /* \"#utility.yul\":24859:24861   */\n      0x20\n        /* \"#utility.yul\":24851:24857   */\n      dup3\n        /* \"#utility.yul\":24847:24862   */\n      add\n        /* \"#utility.yul\":24840:24872   */\n      mstore\n        /* \"#utility.yul\":24655:24879   */\n      pop\n      jump\t// out\n        /* \"#utility.yul\":24885:25251   */\n    tag_282:\n        /* \"#utility.yul\":25027:25030   */\n      0x00\n        /* \"#utility.yul\":25048:25115   */\n      tag_507\n        /* \"#utility.yul\":25112:25114   */\n      0x25\n        /* \"#utility.yul\":25107:25110   */\n      dup4\n        /* \"#utility.yul\":25048:25115   */\n      tag_232\n      jump\t// in\n    tag_507:\n        /* \"#utility.yul\":25041:25115   */\n      swap2\n      pop\n        /* \"#utility.yul\":25124:25217   */\n      tag_508\n        /* \"#utility.yul\":25213:25216   */\n      dup3\n        /* \"#utility.yul\":25124:25217   */\n      tag_281\n      jump\t// in\n    tag_508:\n        /* \"#utility.yul\":25242:25244   */\n      0x40\n        /* \"#utility.yul\":25237:25240   */\n      dup3\n        /* \"#utility.yul\":25233:25245   */\n      add\n        /* \"#utility.yul\":25226:25245   */\n      swap1\n      pop\n        /* \"#utility.yul\":24885:25251   */\n      swap2\n      swap1\n      pop\n      jump\t// out\n        /* \"#utility.yul\":25257:25676   */\n    tag_175:\n        /* \"#utility.yul\":25423:25427   */\n      0x00\n        /* \"#utility.yul\":25461:25463   */\n      0x20\n        /* \"#utility.yul\":25450:25459   */\n      dup3\n        /* \"#utility.yul\":25446:25464   */\n      add\n        /* \"#utility.yul\":25438:25464   */\n      swap1\n      pop\n        /* \"#utility.yul\":25510:25519   */\n      dup2\n        /* \"#utility.yul\":25504:25508   */\n      dup2\n        /* \"#utility.yul\":25500:25520   */\n      sub\n        /* \"#utility.yul\":25496:25497   */\n      0x00\n        /* \"#utility.yul\":25485:25494   */\n      dup4\n        /* \"#utility.yul\":25481:25498   */\n      add\n        /* \"#utility.yul\":25474:25521   */\n      mstore\n        /* \"#utility.yul\":25538:25669   */\n      tag_510\n        /* \"#utility.yul\":25664:25668   */\n      dup2\n        /* \"#utility.yul\":25538:25669   */\n      tag_282\n      jump\t// in\n    tag_510:\n        /* \"#utility.yul\":25530:25669   */\n      swap1\n      pop\n        /* \"#utility.yul\":25257:25676   */\n      swap2\n      swap1\n      pop\n      jump\t// out\n        /* \"#utility.yul\":25682:25862   */\n    tag_283:\n        /* \"#utility.yul\":25730:25807   */\n      0x4e487b7100000000000000000000000000000000000000000000000000000000\n        /* \"#utility.yul\":25727:25728   */\n      0x00\n        /* \"#utility.yul\":25720:25808   */\n      mstore\n        /* \"#utility.yul\":25827:25831   */\n      0x12\n        /* \"#utility.yul\":25824:25825   */\n      0x04\n        /* \"#utility.yul\":25817:25832   */\n      mstore\n        /* \"#utility.yul\":25851:25855   */\n      0x24\n        /* \"#utility.yul\":25848:25849   */\n      0x00\n        /* \"#utility.yul\":25841:25856   */\n      revert\n        /* \"#utility.yul\":25868:26053   */\n    tag_177:\n        /* \"#utility.yul\":25908:25909   */\n      0x00\n        /* \"#utility.yul\":25925:25945   */\n      tag_513\n        /* \"#utility.yul\":25943:25944   */\n      dup3\n        /* \"#utility.yul\":25925:25945   */\n      tag_223\n      jump\t// in\n    tag_513:\n        /* \"#utility.yul\":25920:25945   */\n      swap2\n      pop\n        /* \"#utility.yul\":25959:25979   */\n      tag_514\n        /* \"#utility.yul\":25977:25978   */\n      dup4\n        /* \"#utility.yul\":25959:25979   */\n      tag_223\n      jump\t// in\n    tag_514:\n        /* \"#utility.yul\":25954:25979   */\n      swap3\n      pop\n        /* \"#utility.yul\":25998:25999   */\n      dup3\n        /* \"#utility.yul\":25988:26023   */\n      tag_515\n      jumpi\n        /* \"#utility.yul\":26003:26021   */\n      tag_516\n      tag_283\n      jump\t// in\n    tag_516:\n        /* \"#utility.yul\":25988:26023   */\n    tag_515:\n        /* \"#utility.yul\":26045:26046   */\n      dup3\n        /* \"#utility.yul\":26042:26043   */\n      dup3\n        /* \"#utility.yul\":26038:26047   */\n      div\n        /* \"#utility.yul\":26033:26047   */\n      swap1\n      pop\n        /* \"#utility.yul\":25868:26053   */\n      swap3\n      swap2\n      pop\n      pop\n      jump\t// out\n        /* \"#utility.yul\":26059:26407   */\n    tag_179:\n        /* \"#utility.yul\":26099:26106   */\n      0x00\n        /* \"#utility.yul\":26122:26142   */\n      tag_518\n        /* \"#utility.yul\":26140:26141   */\n      dup3\n        /* \"#utility.yul\":26122:26142   */\n      tag_223\n      jump\t// in\n    tag_518:\n        /* \"#utility.yul\":26117:26142   */\n      swap2\n      pop\n        /* \"#utility.yul\":26156:26176   */\n      tag_519\n        /* \"#utility.yul\":26174:26175   */\n      dup4\n        /* \"#utility.yul\":26156:26176   */\n      tag_223\n      jump\t// in\n    tag_519:\n        /* \"#utility.yul\":26151:26176   */\n      swap3\n      pop\n        /* \"#utility.yul\":26344:26345   */\n      dup2\n        /* \"#utility.yul\":26276:26342   */\n      0xffffffffffffffffffffffffffffffffffffffffffffffffffffffffffffffff\n        /* \"#utility.yul\":26272:26346   */\n      div\n        /* \"#utility.yul\":26269:26270   */\n      dup4\n        /* \"#utility.yul\":26266:26347   */\n      gt\n        /* \"#utility.yul\":26261:26262   */\n      dup3\n        /* \"#utility.yul\":26254:26263   */\n      iszero\n        /* \"#utility.yul\":26247:26264   */\n      iszero\n        /* \"#utility.yul\":26243:26348   */\n      and\n        /* \"#utility.yul\":26240:26371   */\n      iszero\n      tag_520\n      jumpi\n        /* \"#utility.yul\":26351:26369   */\n      tag_521\n      tag_278\n      jump\t// in\n    tag_521:\n        /* \"#utility.yul\":26240:26371   */\n    tag_520:\n        /* \"#utility.yul\":26399:26400   */\n      dup3\n        /* \"#utility.yul\":26396:26397   */\n      dup3\n        /* \"#utility.yul\":26392:26401   */\n      mul\n        /* \"#utility.yul\":26381:26401   */\n      swap1\n      pop\n        /* \"#utility.yul\":26059:26407   */\n      swap3\n      swap2\n      pop\n      pop\n      jump\t// out\n        /* \"#utility.yul\":26413:26554   */\n    tag_284:\n        /* \"#utility.yul\":26462:26466   */\n      0x00\n        /* \"#utility.yul\":26485:26488   */\n      dup2\n        /* \"#utility.yul\":26477:26488   */\n      swap1\n      pop\n        /* \"#utility.yul\":26508:26511   */\n      dup2\n        /* \"#utility.yul\":26505:26506   */\n      0x00\n        /* \"#utility.yul\":26498:26512   */\n      mstore\n        /* \"#utility.yul\":26542:26546   */\n      0x20\n        /* \"#utility.yul\":26539:26540   */\n      0x00\n        /* \"#utility.yul\":26529:26547   */\n      keccak256\n        /* \"#utility.yul\":26521:26547   */\n      swap1\n      pop\n        /* \"#utility.yul\":26413:26554   */\n      swap2\n      swap1\n      pop\n      jump\t// out\n        /* \"#utility.yul\":26560:26653   */\n    tag_285:\n        /* \"#utility.yul\":26597:26603   */\n      0x00\n        /* \"#utility.yul\":26644:26646   */\n      0x20\n        /* \"#utility.yul\":26639:26641   */\n      0x1f\n        /* \"#utility.yul\":26632:26637   */\n      dup4\n        /* \"#utility.yul\":26628:26642   */\n      add\n        /* \"#utility.yul\":26624:26647   */\n      div\n        /* \"#utility.yul\":26614:26647   */\n      swap1\n      pop\n        /* \"#utility.yul\":26560:26653   */\n      swap2\n      swap1\n      pop\n      jump\t// out\n        /* \"#utility.yul\":26659:26766   */\n    tag_286:\n        /* \"#utility.yul\":26703:26711   */\n      0x00\n        /* \"#utility.yul\":26753:26758   */\n      dup3\n        /* \"#utility.yul\":26747:26751   */\n      dup3\n        /* \"#utility.yul\":26743:26759   */\n      shl\n        /* \"#utility.yul\":26722:26759   */\n      swap1\n      pop\n        /* \"#utility.yul\":26659:26766   */\n      swap3\n      swap2\n      pop\n      pop\n      jump\t// out\n        /* \"#utility.yul\":26772:27165   */\n    tag_287:\n        /* \"#utility.yul\":26841:26847   */\n      0x00\n        /* \"#utility.yul\":26891:26892   */\n      0x08\n        /* \"#utility.yul\":26879:26889   */\n      dup4\n        /* \"#utility.yul\":26875:26893   */\n      mul\n        /* \"#utility.yul\":26914:27011   */\n      tag_526\n        /* \"#utility.yul\":26944:27010   */\n      0xffffffffffffffffffffffffffffffffffffffffffffffffffffffffffffffff\n        /* \"#utility.yul\":26933:26942   */\n      dup3\n        /* \"#utility.yul\":26914:27011   */\n      tag_286\n      jump\t// in\n    tag_526:\n        /* \"#utility.yul\":27032:27071   */\n      tag_527\n        /* \"#utility.yul\":27062:27070   */\n      dup7\n        /* \"#utility.yul\":27051:27060   */\n      dup4\n        /* \"#utility.yul\":27032:27071   */\n      tag_286\n      jump\t// in\n    tag_527:\n        /* \"#utility.yul\":27020:27071   */\n      swap6\n      pop\n        /* \"#utility.yul\":27104:27108   */\n      dup1\n        /* \"#utility.yul\":27100:27109   */\n      not\n        /* \"#utility.yul\":27093:27098   */\n      dup5\n        /* \"#utility.yul\":27089:27110   */\n      and\n        /* \"#utility.yul\":27080:27110   */\n      swap4\n      pop\n        /* \"#utility.yul\":27153:27157   */\n      dup1\n        /* \"#utility.yul\":27143:27151   */\n      dup7\n        /* \"#utility.yul\":27139:27158   */\n      and\n        /* \"#utility.yul\":27132:27137   */\n      dup5\n        /* \"#utility.yul\":27129:27159   */\n      or\n        /* \"#utility.yul\":27119:27159   */\n      swap3\n      pop\n        /* \"#utility.yul\":26848:27165   */\n      pop\n      pop\n        /* \"#utility.yul\":26772:27165   */\n      swap4\n      swap3\n      pop\n      pop\n      pop\n      jump\t// out\n        /* \"#utility.yul\":27171:27231   */\n    tag_288:\n        /* \"#utility.yul\":27199:27202   */\n      0x00\n        /* \"#utility.yul\":27220:27225   */\n      dup2\n        /* \"#utility.yul\":27213:27225   */\n      swap1\n      pop\n        /* \"#utility.yul\":27171:27231   */\n      swap2\n      swap1\n      pop\n      jump\t// out\n        /* \"#utility.yul\":27237:27379   */\n    tag_289:\n        /* \"#utility.yul\":27287:27296   */\n      0x00\n        /* \"#utility.yul\":27320:27373   */\n      tag_530\n        /* \"#utility.yul\":27338:27372   */\n      tag_531\n        /* \"#utility.yul\":27347:27371   */\n      tag_532\n        /* \"#utility.yul\":27365:27370   */\n      dup5\n        /* \"#utility.yul\":27347:27371   */\n      tag_223\n      jump\t// in\n    tag_532:\n        /* \"#utility.yul\":27338:27372   */\n      tag_288\n      jump\t// in\n    tag_531:\n        /* \"#utility.yul\":27320:27373   */\n      tag_223\n      jump\t// in\n    tag_530:\n        /* \"#utility.yul\":27307:27373   */\n      swap1\n      pop\n        /* \"#utility.yul\":27237:27379   */\n      swap2\n      swap1\n      pop\n      jump\t// out\n        /* \"#utility.yul\":27385:27460   */\n    tag_290:\n        /* \"#utility.yul\":27428:27431   */\n      0x00\n        /* \"#utility.yul\":27449:27454   */\n      dup2\n        /* \"#utility.yul\":27442:27454   */\n      swap1\n      pop\n        /* \"#utility.yul\":27385:27460   */\n      swap2\n      swap1\n      pop\n      jump\t// out\n        /* \"#utility.yul\":27466:27735   */\n    tag_291:\n        /* \"#utility.yul\":27576:27615   */\n      tag_535\n        /* \"#utility.yul\":27607:27614   */\n      dup4\n        /* \"#utility.yul\":27576:27615   */\n      tag_289\n      jump\t// in\n    tag_535:\n        /* \"#utility.yul\":27637:27728   */\n      tag_536\n        /* \"#utility.yul\":27686:27727   */\n      tag_537\n        /* \"#utility.yul\":27710:27726   */\n      dup3\n        /* \"#utility.yul\":27686:27727   */\n      tag_290\n      jump\t// in\n    tag_537:\n        /* \"#utility.yul\":27678:27684   */\n      dup5\n        /* \"#utility.yul\":27671:27675   */\n      dup5\n        /* \"#utility.yul\":27665:27676   */\n      sload\n        /* \"#utility.yul\":27637:27728   */\n      tag_287\n      jump\t// in\n    tag_536:\n        /* \"#utility.yul\":27631:27635   */\n      dup3\n        /* \"#utility.yul\":27624:27729   */\n      sstore\n        /* \"#utility.yul\":27542:27735   */\n      pop\n        /* \"#utility.yul\":27466:27735   */\n      pop\n      pop\n      pop\n      jump\t// out\n        /* \"#utility.yul\":27741:27814   */\n    tag_292:\n        /* \"#utility.yul\":27786:27789   */\n      0x00\n        /* \"#utility.yul\":27741:27814   */\n      swap1\n      jump\t// out\n        /* \"#utility.yul\":27820:28009   */\n    tag_293:\n        /* \"#utility.yul\":27897:27929   */\n      tag_540\n      tag_292\n      jump\t// in\n    tag_540:\n        /* \"#utility.yul\":27938:28003   */\n      tag_541\n        /* \"#utility.yul\":27996:28002   */\n      dup2\n        /* \"#utility.yul\":27988:27994   */\n      dup5\n        /* \"#utility.yul\":27982:27986   */\n      dup5\n        /* \"#utility.yul\":27938:28003   */\n      tag_291\n      jump\t// in\n    tag_541:\n        /* \"#utility.yul\":27873:28009   */\n      pop\n        /* \"#utility.yul\":27820:28009   */\n      pop\n      pop\n      jump\t// out\n        /* \"#utility.yul\":28015:28201   */\n    tag_294:\n        /* \"#utility.yul\":28075:28195   */\n    tag_543:\n        /* \"#utility.yul\":28092:28095   */\n      dup2\n        /* \"#utility.yul\":28085:28090   */\n      dup2\n        /* \"#utility.yul\":28082:28096   */\n      lt\n        /* \"#utility.yul\":28075:28195   */\n      iszero\n      tag_545\n      jumpi\n        /* \"#utility.yul\":28146:28185   */\n      tag_546\n        /* \"#utility.yul\":28183:28184   */\n      0x00\n        /* \"#utility.yul\":28176:28181   */\n      dup3\n        /* \"#utility.yul\":28146:28185   */\n      tag_293\n      jump\t// in\n    tag_546:\n        /* \"#utility.yul\":28119:28120   */\n      0x01\n        /* \"#utility.yul\":28112:28117   */\n      dup2\n        /* \"#utility.yul\":28108:28121   */\n      add\n        /* \"#utility.yul\":28099:28121   */\n      swap1\n      pop\n        /* \"#utility.yul\":28075:28195   */\n      jump(tag_543)\n    tag_545:\n        /* \"#utility.yul\":28015:28201   */\n      pop\n      pop\n      jump\t// out\n        /* \"#utility.yul\":28207:28750   */\n    tag_295:\n        /* \"#utility.yul\":28308:28310   */\n      0x1f\n        /* \"#utility.yul\":28303:28306   */\n      dup3\n        /* \"#utility.yul\":28300:28311   */\n      gt\n        /* \"#utility.yul\":28297:28743   */\n      iszero\n      tag_548\n      jumpi\n        /* \"#utility.yul\":28342:28380   */\n      tag_549\n        /* \"#utility.yul\":28374:28379   */\n      dup2\n        /* \"#utility.yul\":28342:28380   */\n      tag_284\n      jump\t// in\n    tag_549:\n        /* \"#utility.yul\":28426:28455   */\n      tag_550\n        /* \"#utility.yul\":28444:28454   */\n      dup5\n        /* \"#utility.yul\":28426:28455   */\n      tag_285\n      jump\t// in\n    tag_550:\n        /* \"#utility.yul\":28416:28424   */\n      dup2\n        /* \"#utility.yul\":28412:28456   */\n      add\n        /* \"#utility.yul\":28609:28611   */\n      0x20\n        /* \"#utility.yul\":28597:28607   */\n      dup6\n        /* \"#utility.yul\":28594:28612   */\n      lt\n        /* \"#utility.yul\":28591:28640   */\n      iszero\n      tag_551\n      jumpi\n        /* \"#utility.yul\":28630:28638   */\n      dup2\n        /* \"#utility.yul\":28615:28638   */\n      swap1\n      pop\n        /* \"#utility.yul\":28591:28640   */\n    tag_551:\n        /* \"#utility.yul\":28653:28733   */\n      tag_552\n        /* \"#utility.yul\":28709:28731   */\n      tag_553\n        /* \"#utility.yul\":28727:28730   */\n      dup6\n        /* \"#utility.yul\":28709:28731   */\n      tag_285\n      jump\t// in\n    tag_553:\n        /* \"#utility.yul\":28699:28707   */\n      dup4\n        /* \"#utility.yul\":28695:28732   */\n      add\n        /* \"#utility.yul\":28682:28693   */\n      dup3\n        /* \"#utility.yul\":28653:28733   */\n      tag_294\n      jump\t// in\n    tag_552:\n        /* \"#utility.yul\":28312:28743   */\n      pop\n      pop\n        /* \"#utility.yul\":28297:28743   */\n    tag_548:\n        /* \"#utility.yul\":28207:28750   */\n      pop\n      pop\n      pop\n      jump\t// out\n        /* \"#utility.yul\":28756:28873   */\n    tag_296:\n        /* \"#utility.yul\":28810:28818   */\n      0x00\n        /* \"#utility.yul\":28860:28865   */\n      dup3\n        /* \"#utility.yul\":28854:28858   */\n      dup3\n        /* \"#utility.yul\":28850:28866   */\n      shr\n        /* \"#utility.yul\":28829:28866   */\n      swap1\n      pop\n        /* \"#utility.yul\":28756:28873   */\n      swap3\n      swap2\n      pop\n      pop\n      jump\t// out\n        /* \"#utility.yul\":28879:29048   */\n    tag_297:\n        /* \"#utility.yul\":28923:28929   */\n      0x00\n        /* \"#utility.yul\":28956:29007   */\n      tag_556\n        /* \"#utility.yul\":29004:29005   */\n      0x00\n        /* \"#utility.yul\":29000:29006   */\n      not\n        /* \"#utility.yul\":28992:28997   */\n      dup5\n        /* \"#utility.yul\":28989:28990   */\n      0x08\n        /* \"#utility.yul\":28985:28998   */\n      mul\n        /* \"#utility.yul\":28956:29007   */\n      tag_296\n      jump\t// in\n    tag_556:\n        /* \"#utility.yul\":28952:29008   */\n      not\n        /* \"#utility.yul\":29037:29041   */\n      dup1\n        /* \"#utility.yul\":29031:29035   */\n      dup4\n        /* \"#utility.yul\":29027:29042   */\n      and\n        /* \"#utility.yul\":29017:29042   */\n      swap2\n      pop\n        /* \"#utility.yul\":28930:29048   */\n      pop\n        /* \"#utility.yul\":28879:29048   */\n      swap3\n      swap2\n      pop\n      pop\n      jump\t// out\n        /* \"#utility.yul\":29053:29348   */\n    tag_298:\n        /* \"#utility.yul\":29129:29133   */\n      0x00\n        /* \"#utility.yul\":29275:29304   */\n      tag_558\n        /* \"#utility.yul\":29300:29303   */\n      dup4\n        /* \"#utility.yul\":29294:29298   */\n      dup4\n        /* \"#utility.yul\":29275:29304   */\n      tag_297\n      jump\t// in\n    tag_558:\n        /* \"#utility.yul\":29267:29304   */\n      swap2\n      pop\n        /* \"#utility.yul\":29337:29340   */\n      dup3\n        /* \"#utility.yul\":29334:29335   */\n      0x02\n        /* \"#utility.yul\":29330:29341   */\n      mul\n        /* \"#utility.yul\":29324:29328   */\n      dup3\n        /* \"#utility.yul\":29321:29342   */\n      or\n        /* \"#utility.yul\":29313:29342   */\n      swap1\n      pop\n        /* \"#utility.yul\":29053:29348   */\n      swap3\n      swap2\n      pop\n      pop\n      jump\t// out\n        /* \"#utility.yul\":29353:30748   */\n    tag_182:\n        /* \"#utility.yul\":29470:29507   */\n      tag_560\n        /* \"#utility.yul\":29503:29506   */\n      dup3\n        /* \"#utility.yul\":29470:29507   */\n      tag_231\n      jump\t// in\n    tag_560:\n        /* \"#utility.yul\":29572:29590   */\n      0xffffffffffffffff\n        /* \"#utility.yul\":29564:29570   */\n      dup2\n        /* \"#utility.yul\":29561:29591   */\n      gt\n        /* \"#utility.yul\":29558:29614   */\n      iszero\n      tag_561\n      jumpi\n        /* \"#utility.yul\":29594:29612   */\n      tag_562\n      tag_238\n      jump\t// in\n    tag_562:\n        /* \"#utility.yul\":29558:29614   */\n    tag_561:\n        /* \"#utility.yul\":29638:29676   */\n      tag_563\n        /* \"#utility.yul\":29670:29674   */\n      dup3\n        /* \"#utility.yul\":29664:29675   */\n      sload\n        /* \"#utility.yul\":29638:29676   */\n      tag_111\n      jump\t// in\n    tag_563:\n        /* \"#utility.yul\":29723:29790   */\n      tag_564\n        /* \"#utility.yul\":29783:29789   */\n      dup3\n        /* \"#utility.yul\":29775:29781   */\n      dup3\n        /* \"#utility.yul\":29769:29773   */\n      dup6\n        /* \"#utility.yul\":29723:29790   */\n      tag_295\n      jump\t// in\n    tag_564:\n        /* \"#utility.yul\":29817:29818   */\n      0x00\n        /* \"#utility.yul\":29841:29845   */\n      0x20\n        /* \"#utility.yul\":29828:29845   */\n      swap1\n      pop\n        /* \"#utility.yul\":29873:29875   */\n      0x1f\n        /* \"#utility.yul\":29865:29871   */\n      dup4\n        /* \"#utility.yul\":29862:29876   */\n      gt\n        /* \"#utility.yul\":29890:29891   */\n      0x01\n        /* \"#utility.yul\":29885:30503   */\n      dup2\n      eq\n      tag_566\n      jumpi\n        /* \"#utility.yul\":30547:30548   */\n      0x00\n        /* \"#utility.yul\":30564:30570   */\n      dup5\n        /* \"#utility.yul\":30561:30638   */\n      iszero\n      tag_567\n      jumpi\n        /* \"#utility.yul\":30613:30622   */\n      dup3\n        /* \"#utility.yul\":30608:30611   */\n      dup8\n        /* \"#utility.yul\":30604:30623   */\n      add\n        /* \"#utility.yul\":30598:30624   */\n      mload\n        /* \"#utility.yul\":30589:30624   */\n      swap1\n      pop\n        /* \"#utility.yul\":30561:30638   */\n    tag_567:\n        /* \"#utility.yul\":30664:30731   */\n      tag_568\n        /* \"#utility.yul\":30724:30730   */\n      dup6\n        /* \"#utility.yul\":30717:30722   */\n      dup3\n        /* \"#utility.yul\":30664:30731   */\n      tag_298\n      jump\t// in\n    tag_568:\n        /* \"#utility.yul\":30658:30662   */\n      dup7\n        /* \"#utility.yul\":30651:30732   */\n      sstore\n        /* \"#utility.yul\":30520:30742   */\n      pop\n        /* \"#utility.yul\":29855:30742   */\n      jump(tag_565)\n        /* \"#utility.yul\":29885:30503   */\n    tag_566:\n        /* \"#utility.yul\":29937:29941   */\n      0x1f\n        /* \"#utility.yul\":29933:29942   */\n      not\n        /* \"#utility.yul\":29925:29931   */\n      dup5\n        /* \"#utility.yul\":29921:29943   */\n      and\n        /* \"#utility.yul\":29971:30008   */\n      tag_569\n        /* \"#utility.yul\":30003:30007   */\n      dup7\n        /* \"#utility.yul\":29971:30008   */\n      tag_284\n      jump\t// in\n    tag_569:\n        /* \"#utility.yul\":30030:30031   */\n      0x00\n        /* \"#utility.yul\":30044:30252   */\n    tag_570:\n        /* \"#utility.yul\":30058:30065   */\n      dup3\n        /* \"#utility.yul\":30055:30056   */\n      dup2\n        /* \"#utility.yul\":30052:30066   */\n      lt\n        /* \"#utility.yul\":30044:30252   */\n      iszero\n      tag_572\n      jumpi\n        /* \"#utility.yul\":30137:30146   */\n      dup5\n        /* \"#utility.yul\":30132:30135   */\n      dup10\n        /* \"#utility.yul\":30128:30147   */\n      add\n        /* \"#utility.yul\":30122:30148   */\n      mload\n        /* \"#utility.yul\":30114:30120   */\n      dup3\n        /* \"#utility.yul\":30107:30149   */\n      sstore\n        /* \"#utility.yul\":30188:30189   */\n      0x01\n        /* \"#utility.yul\":30180:30186   */\n      dup3\n        /* \"#utility.yul\":30176:30190   */\n      add\n        /* \"#utility.yul\":30166:30190   */\n      swap2\n      pop\n        /* \"#utility.yul\":30235:30237   */\n      0x20\n        /* \"#utility.yul\":30224:30233   */\n      dup6\n        /* \"#utility.yul\":30220:30238   */\n      add\n        /* \"#utility.yul\":30207:30238   */\n      swap5\n      pop\n        /* \"#utility.yul\":30081:30085   */\n      0x20\n        /* \"#utility.yul\":30078:30079   */\n      dup2\n        /* \"#utility.yul\":30074:30086   */\n      add\n        /* \"#utility.yul\":30069:30086   */\n      swap1\n      pop\n        /* \"#utility.yul\":30044:30252   */\n      jump(tag_570)\n    tag_572:\n        /* \"#utility.yul\":30280:30286   */\n      dup7\n        /* \"#utility.yul\":30271:30278   */\n      dup4\n        /* \"#utility.yul\":30268:30287   */\n      lt\n        /* \"#utility.yul\":30265:30444   */\n      iszero\n      tag_573\n      jumpi\n        /* \"#utility.yul\":30338:30347   */\n      dup5\n        /* \"#utility.yul\":30333:30336   */\n      dup10\n        /* \"#utility.yul\":30329:30348   */\n      add\n        /* \"#utility.yul\":30323:30349   */\n      mload\n        /* \"#utility.yul\":30381:30429   */\n      tag_574\n        /* \"#utility.yul\":30423:30427   */\n      0x1f\n        /* \"#utility.yul\":30415:30421   */\n      dup10\n        /* \"#utility.yul\":30411:30428   */\n      and\n        /* \"#utility.yul\":30400:30409   */\n      dup3\n        /* \"#utility.yul\":30381:30429   */\n      tag_297\n      jump\t// in\n    tag_574:\n        /* \"#utility.yul\":30373:30379   */\n      dup4\n        /* \"#utility.yul\":30366:30430   */\n      sstore\n        /* \"#utility.yul\":30288:30444   */\n      pop\n        /* \"#utility.yul\":30265:30444   */\n    tag_573:\n        /* \"#utility.yul\":30490:30491   */\n      0x01\n        /* \"#utility.yul\":30486:30487   */\n      0x02\n        /* \"#utility.yul\":30478:30484   */\n      dup9\n        /* \"#utility.yul\":30474:30488   */\n      mul\n        /* \"#utility.yul\":30470:30492   */\n      add\n        /* \"#utility.yul\":30464:30468   */\n      dup9\n        /* \"#utility.yul\":30457:30493   */\n      sstore\n        /* \"#utility.yul\":29892:30503   */\n      pop\n      pop\n      pop\n        /* \"#utility.yul\":29855:30742   */\n    tag_565:\n      pop\n        /* \"#utility.yul\":29445:30748   */\n      pop\n      pop\n      pop\n        /* \"#utility.yul\":29353:30748   */\n      pop\n      pop\n      jump\t// out\n        /* \"#utility.yul\":30754:30934   */\n    tag_188:\n        /* \"#utility.yul\":30802:30879   */\n      0x4e487b7100000000000000000000000000000000000000000000000000000000\n        /* \"#utility.yul\":30799:30800   */\n      0x00\n        /* \"#utility.yul\":30792:30880   */\n      mstore\n        /* \"#utility.yul\":30899:30903   */\n      0x32\n        /* \"#utility.yul\":30896:30897   */\n      0x04\n        /* \"#utility.yul\":30889:30904   */\n      mstore\n        /* \"#utility.yul\":30923:30927   */\n      0x24\n        /* \"#utility.yul\":30920:30921   */\n      0x00\n        /* \"#utility.yul\":30913:30928   */\n      revert\n        /* \"#utility.yul\":30940:31026   */\n    tag_299:\n        /* \"#utility.yul\":30975:30982   */\n      0x00\n        /* \"#utility.yul\":31015:31019   */\n      0xff\n        /* \"#utility.yul\":31008:31013   */\n      dup3\n        /* \"#utility.yul\":31004:31020   */\n      and\n        /* \"#utility.yul\":30993:31020   */\n      swap1\n      pop\n        /* \"#utility.yul\":30940:31026   */\n      swap2\n      swap1\n      pop\n      jump\t// out\n        /* \"#utility.yul\":31032:31199   */\n    tag_196:\n        /* \"#utility.yul\":31069:31072   */\n      0x00\n        /* \"#utility.yul\":31092:31114   */\n      tag_578\n        /* \"#utility.yul\":31108:31113   */\n      dup3\n        /* \"#utility.yul\":31092:31114   */\n      tag_299\n      jump\t// in\n    tag_578:\n        /* \"#utility.yul\":31083:31114   */\n      swap2\n      pop\n        /* \"#utility.yul\":31136:31140   */\n      0xff\n        /* \"#utility.yul\":31129:31134   */\n      dup3\n        /* \"#utility.yul\":31126:31141   */\n      sub\n        /* \"#utility.yul\":31123:31164   */\n      tag_579\n      jumpi\n        /* \"#utility.yul\":31144:31162   */\n      tag_580\n      tag_278\n      jump\t// in\n    tag_580:\n        /* \"#utility.yul\":31123:31164   */\n    tag_579:\n        /* \"#utility.yul\":31191:31192   */\n      0x01\n        /* \"#utility.yul\":31184:31189   */\n      dup3\n        /* \"#utility.yul\":31180:31193   */\n      add\n        /* \"#utility.yul\":31173:31193   */\n      swap1\n      pop\n        /* \"#utility.yul\":31032:31199   */\n      swap2\n      swap1\n      pop\n      jump\t// out\n\n    auxdata: 0xa26469706673582212204700ffac779826aa017de3dd17f50f9542e94f1781f1a251203ce575f7f2e74564736f6c634300080f0033\n}\n",
				"bytecode": {
					"linkReferences": {},
					"object": "60806040523480156200001157600080fd5b50604051620032f1380380620032f1833981810160405281019062000037919062000348565b33600360006101000a81548173ffffffffffffffffffffffffffffffffffffffff021916908373ffffffffffffffffffffffffffffffffffffffff1602179055508142620000869190620003f2565b60018190555080600481905550600060058190555060006006819055506040518060400160405280600881526020017f52656a656374656400000000000000000000000000000000000000000000000081525060029081620000e9919062000690565b50306000806101000a81548173ffffffffffffffffffffffffffffffffffffffff021916908373ffffffffffffffffffffffffffffffffffffffff16021790555060405180604001604052806000815260200184815250600b60008201518160000155602082015181600101908162000163919062000690565b5090505050505062000777565b6000604051905090565b600080fd5b600080fd5b600080fd5b600080fd5b6000601f19601f8301169050919050565b7f4e487b7100000000000000000000000000000000000000000000000000000000600052604160045260246000fd5b620001d9826200018e565b810181811067ffffffffffffffff82111715620001fb57620001fa6200019f565b5b80604052505050565b60006200021062000170565b90506200021e8282620001ce565b919050565b600067ffffffffffffffff8211156200024157620002406200019f565b5b6200024c826200018e565b9050602081019050919050565b60005b83811015620002795780820151818401526020810190506200025c565b8381111562000289576000848401525b50505050565b6000620002a6620002a08462000223565b62000204565b905082815260208101848484011115620002c557620002c462000189565b5b620002d284828562000259565b509392505050565b600082601f830112620002f257620002f162000184565b5b8151620003048482602086016200028f565b91505092915050565b6000819050919050565b62000322816200030d565b81146200032e57600080fd5b50565b600081519050620003428162000317565b92915050565b6000806000606084860312156200036457620003636200017a565b5b600084015167ffffffffffffffff8111156200038557620003846200017f565b5b6200039386828701620002da565b9350506020620003a68682870162000331565b9250506040620003b98682870162000331565b9150509250925092565b7f4e487b7100000000000000000000000000000000000000000000000000000000600052601160045260246000fd5b6000620003ff826200030d565b91506200040c836200030d565b9250827fffffffffffffffffffffffffffffffffffffffffffffffffffffffffffffffff03821115620004445762000443620003c3565b5b828201905092915050565b600081519050919050565b7f4e487b7100000000000000000000000000000000000000000000000000000000600052602260045260246000fd5b60006002820490506001821680620004a257607f821691505b602082108103620004b857620004b76200045a565b5b50919050565b60008190508160005260206000209050919050565b60006020601f8301049050919050565b600082821b905092915050565b600060088302620005227fffffffffffffffffffffffffffffffffffffffffffffffffffffffffffffffff82620004e3565b6200052e8683620004e3565b95508019841693508086168417925050509392505050565b6000819050919050565b6000620005716200056b62000565846200030d565b62000546565b6200030d565b9050919050565b6000819050919050565b6200058d8362000550565b620005a56200059c8262000578565b848454620004f0565b825550505050565b600090565b620005bc620005ad565b620005c981848462000582565b505050565b5b81811015620005f157620005e5600082620005b2565b600181019050620005cf565b5050565b601f82111562000640576200060a81620004be565b6200061584620004d3565b8101602085101562000625578190505b6200063d6200063485620004d3565b830182620005ce565b50505b505050565b600082821c905092915050565b6000620006656000198460080262000645565b1980831691505092915050565b600062000680838362000652565b9150826002028217905092915050565b6200069b826200044f565b67ffffffffffffffff811115620006b757620006b66200019f565b5b620006c3825462000489565b620006d0828285620005f5565b600060209050601f831160018114620007085760008415620006f3578287015190505b620006ff858262000672565b8655506200076f565b601f1984166200071886620004be565b60005b8281101562000742578489015182556001820191506020850194506020810190506200071b565b868310156200076257848901516200075e601f89168262000652565b8355505b6001600288020188555050505b505050505050565b612b6a80620007876000396000f3fe608060405234801561001057600080fd5b50600436106101165760003560e01c8063753ec103116100a2578063a5ea11da11610071578063a5ea11da146102c5578063b9a29250146102e7578063d77aa74914610305578063da58c7d914610323578063f6b4dfb41461035557610116565b8063753ec1031461024c578063823167451461026b57806395b02dfa146102895780639aa4bbdd1461029357610116565b80634a1f0ef2116100e95780634a1f0ef2146101a15780635361a0ea146101c05780635c39fcc1146101f2578063604c8333146102105780637403c5e51461022e57610116565b80630cb6aaf11461011b57806315fe6f1b1461014b57806319eb4a9014610167578063323082d714610185575b600080fd5b61013560048036038101906101309190611b83565b610373565b6040516101429190611bf1565b60405180910390f35b61016560048036038101906101609190611c38565b6103b2565b005b61016f610753565b60405161017c9190611cfe565b60405180910390f35b61019f600480360381019061019a9190611e55565b6107e8565b005b6101a9610e14565b6040516101b7929190611f34565b60405180910390f35b6101da60048036038101906101d59190611c38565b610f54565b6040516101e993929190611f86565b60405180910390f35b6101fa611069565b6040516102079190611bf1565b60405180910390f35b61021861108f565b6040516102259190611fcc565b60405180910390f35b610236611095565b6040516102439190611fcc565b60405180910390f35b61025461109b565b604051610262929190611fe7565b60405180910390f35b610273611135565b60405161028091906121c1565b60405180910390f35b6102916113bd565b005b6102ad60048036038101906102a89190611c38565b61191e565b6040516102bc939291906121e3565b60405180910390f35b6102cd611982565b6040516102de95949392919061221a565b60405180910390f35b6102ef611a58565b6040516102fc9190611fcc565b60405180910390f35b61030d611a5e565b60405161031a9190611fcc565b60405180910390f35b61033d60048036038101906103389190611b83565b611a64565b60405161034c939291906121e3565b60405180910390f35b61035d611ad4565b60405161036a9190611bf1565b60405180910390f35b6009818154811061038357600080fd5b906000526020600020016000915054906101000a900473ffffffffffffffffffffffffffffffffffffffff1681565b600360009054906101000a900473ffffffffffffffffffffffffffffffffffffffff1673ffffffffffffffffffffffffffffffffffffffff163373ffffffffffffffffffffffffffffffffffffffff1614610442576040517f08c379a0000000000000000000000000000000000000000000000000000000008152600401610439906122e6565b60405180910390fd5b600360009054906101000a900473ffffffffffffffffffffffffffffffffffffffff1673ffffffffffffffffffffffffffffffffffffffff168173ffffffffffffffffffffffffffffffffffffffff16036104d2576040517f08c379a00000000000000000000000000000000000000000000000000000000081526004016104c990612352565b60405180910390fd5b600073ffffffffffffffffffffffffffffffffffffffff16600a60008373ffffffffffffffffffffffffffffffffffffffff1673ffffffffffffffffffffffffffffffffffffffff16815260200190815260200160002060000160019054906101000a900473ffffffffffffffffffffffffffffffffffffffff1673ffffffffffffffffffffffffffffffffffffffff16146105a3576040517f08c379a000000000000000000000000000000000000000000000000000000000815260040161059a906123be565b60405180910390fd5b60015442106105e7576040517f08c379a00000000000000000000000000000000000000000000000000000000081526004016105de90612450565b60405180910390fd5b600060405180606001604052806000151581526020018373ffffffffffffffffffffffffffffffffffffffff16815260200160001515815250905080600a60008473ffffffffffffffffffffffffffffffffffffffff1673ffffffffffffffffffffffffffffffffffffffff16815260200190815260200160002060008201518160000160006101000a81548160ff02191690831515021790555060208201518160000160016101000a81548173ffffffffffffffffffffffffffffffffffffffff021916908373ffffffffffffffffffffffffffffffffffffffff16021790555060408201518160000160156101000a81548160ff0219169083151502179055509050506009829080600181540180825580915050600190039060005260206000200160009091909190916101000a81548173ffffffffffffffffffffffffffffffffffffffff021916908373ffffffffffffffffffffffffffffffffffffffff1602179055505050565b6060600b60010180546107659061249f565b80601f01602080910402602001604051908101604052809291908181526020018280546107919061249f565b80156107de5780601f106107b3576101008083540402835291602001916107de565b820191906000526020600020905b8154815290600101906020018083116107c157829003601f168201915b5050505050905090565b600154421061082c576040517f08c379a00000000000000000000000000000000000000000000000000000000081526004016108239061251c565b60405180910390fd5b6000600a60003373ffffffffffffffffffffffffffffffffffffffff1673ffffffffffffffffffffffffffffffffffffffff1681526020019081526020016000206040518060600160405290816000820160009054906101000a900460ff161515151581526020016000820160019054906101000a900473ffffffffffffffffffffffffffffffffffffffff1673ffffffffffffffffffffffffffffffffffffffff1673ffffffffffffffffffffffffffffffffffffffff1681526020016000820160159054906101000a900460ff1615151515815250509050600073ffffffffffffffffffffffffffffffffffffffff16816020015173ffffffffffffffffffffffffffffffffffffffff1603610979576040517f08c379a000000000000000000000000000000000000000000000000000000000815260040161097090612588565b60405180910390fd5b8060000151156109be576040517f08c379a00000000000000000000000000000000000000000000000000000000081526004016109b5906125f4565b60405180910390fd5b6040518060400160405280600981526020017f6920617070726f7665000000000000000000000000000000000000000000000081525080519060200120828051906020012003610c23576001600a60003373ffffffffffffffffffffffffffffffffffffffff1673ffffffffffffffffffffffffffffffffffffffff16815260200190815260200160002060000160006101000a81548160ff0219169083151502179055506001600a60003373ffffffffffffffffffffffffffffffffffffffff1673ffffffffffffffffffffffffffffffffffffffff16815260200190815260200160002060000160156101000a81548160ff021916908315150217905550600160066000828254610ad19190612643565b925050819055506001600b6000016000828254610aee9190612643565b925050819055506008600a60003373ffffffffffffffffffffffffffffffffffffffff1673ffffffffffffffffffffffffffffffffffffffff168152602001908152602001600020908060018154018082558091505060019003906000526020600020016000909190919091506000820160009054906101000a900460ff168160000160006101000a81548160ff0219169083151502179055506000820160019054906101000a900473ffffffffffffffffffffffffffffffffffffffff168160000160016101000a81548173ffffffffffffffffffffffffffffffffffffffff021916908373ffffffffffffffffffffffffffffffffffffffff1602179055506000820160159054906101000a900460ff168160000160156101000a81548160ff0219169083151502179055505050610e10565b6040518060400160405280600c81526020017f6920646973617070726f7665000000000000000000000000000000000000000081525080519060200120828051906020012003610e0f576001600a60003373ffffffffffffffffffffffffffffffffffffffff1673ffffffffffffffffffffffffffffffffffffffff16815260200190815260200160002060000160006101000a81548160ff0219169083151502179055506001600b6000016000828254610cde9190612643565b925050819055506008600a60003373ffffffffffffffffffffffffffffffffffffffff1673ffffffffffffffffffffffffffffffffffffffff168152602001908152602001600020908060018154018082558091505060019003906000526020600020016000909190919091506000820160009054906101000a900460ff168160000160006101000a81548160ff0219169083151502179055506000820160019054906101000a900473ffffffffffffffffffffffffffffffffffffffff168160000160016101000a81548173ffffffffffffffffffffffffffffffffffffffff021916908373ffffffffffffffffffffffffffffffffffffffff1602179055506000820160159054906101000a900460ff168160000160156101000a81548160ff02191690831515021790555050505b5b5050565b600d806000018054610e259061249f565b80601f0160208091040260200160405190810160405280929190818152602001828054610e519061249f565b8015610e9e5780601f10610e7357610100808354040283529160200191610e9e565b820191906000526020600020905b815481529060010190602001808311610e8157829003601f168201915b5050505050908060010160405180604001604052908160008201548152602001600182018054610ecd9061249f565b80601f0160208091040260200160405190810160405280929190818152602001828054610ef99061249f565b8015610f465780601f10610f1b57610100808354040283529160200191610f46565b820191906000526020600020905b815481529060010190602001808311610f2957829003601f168201915b505050505081525050905082565b6000806000600a60008573ffffffffffffffffffffffffffffffffffffffff1673ffffffffffffffffffffffffffffffffffffffff16815260200190815260200160002060000160159054906101000a900460ff16600a60008673ffffffffffffffffffffffffffffffffffffffff1673ffffffffffffffffffffffffffffffffffffffff16815260200190815260200160002060000160009054906101000a900460ff16600a60008773ffffffffffffffffffffffffffffffffffffffff1673ffffffffffffffffffffffffffffffffffffffff16815260200190815260200160002060000160019054906101000a900473ffffffffffffffffffffffffffffffffffffffff169250925092509193909250565b600360009054906101000a900473ffffffffffffffffffffffffffffffffffffffff1681565b60055481565b60065481565b600b8060000154908060010180546110b29061249f565b80601f01602080910402602001604051908101604052809291908181526020018280546110de9061249f565b801561112b5780601f106111005761010080835404028352916020019161112b565b820191906000526020600020905b81548152906001019060200180831161110e57829003601f168201915b5050505050905082565b61113d611af8565b600154421015611182576040517f08c379a0000000000000000000000000000000000000000000000000000000008152600401611179906126e5565b60405180910390fd5b600d60405180606001604052908160008201805461119f9061249f565b80601f01602080910402602001604051908101604052809291908181526020018280546111cb9061249f565b80156112185780601f106111ed57610100808354040283529160200191611218565b820191906000526020600020905b8154815290600101906020018083116111fb57829003601f168201915b50505050508152602001600182016040518060400160405290816000820154815260200160018201805461124b9061249f565b80601f01602080910402602001604051908101604052809291908181526020018280546112779061249f565b80156112c45780601f10611299576101008083540402835291602001916112c4565b820191906000526020600020905b8154815290600101906020018083116112a757829003601f168201915b505050505081525050815260200160038201805480602002602001604051908101604052809291908181526020016000905b828210156113b0578382906000526020600020016040518060600160405290816000820160009054906101000a900460ff161515151581526020016000820160019054906101000a900473ffffffffffffffffffffffffffffffffffffffff1673ffffffffffffffffffffffffffffffffffffffff1673ffffffffffffffffffffffffffffffffffffffff1681526020016000820160159054906101000a900460ff161515151581525050815260200190600101906112f6565b5050505081525050905090565b600154421015611402576040517f08c379a00000000000000000000000000000000000000000000000000000000081526004016113f9906126e5565b60405180910390fd5b600160075414611447576040517f08c379a000000000000000000000000000000000000000000000000000000000815260040161143e90612777565b60405180910390fd5b606460098054905060065461145c91906127c6565b61146691906127f7565b600581905550600454600554106114bd576040518060400160405280600881526020017f4163636570746564000000000000000000000000000000000000000000000000815250600290816114bb91906129fd565b505b60005b6009805490508160ff1610156116ea5760001515600a600060098460ff16815481106114ef576114ee612acf565b5b9060005260206000200160009054906101000a900473ffffffffffffffffffffffffffffffffffffffff1673ffffffffffffffffffffffffffffffffffffffff1673ffffffffffffffffffffffffffffffffffffffff16815260200190815260200160002060000160009054906101000a900460ff161515036116d7576008600a600060098460ff168154811061158957611588612acf565b5b9060005260206000200160009054906101000a900473ffffffffffffffffffffffffffffffffffffffff1673ffffffffffffffffffffffffffffffffffffffff1673ffffffffffffffffffffffffffffffffffffffff168152602001908152602001600020908060018154018082558091505060019003906000526020600020016000909190919091506000820160009054906101000a900460ff168160000160006101000a81548160ff0219169083151502179055506000820160019054906101000a900473ffffffffffffffffffffffffffffffffffffffff168160000160016101000a81548173ffffffffffffffffffffffffffffffffffffffff021916908373ffffffffffffffffffffffffffffffffffffffff1602179055506000820160159054906101000a900460ff168160000160156101000a81548160ff02191690831515021790555050505b80806116e290612b0b565b9150506114c0565b5060006040518060600160405280600280546117059061249f565b80601f01602080910402602001604051908101604052809291908181526020018280546117319061249f565b801561177e5780601f106117535761010080835404028352916020019161177e565b820191906000526020600020905b81548152906001019060200180831161176157829003601f168201915b50505050508152602001600b604051806040016040529081600082015481526020016001820180546117af9061249f565b80601f01602080910402602001604051908101604052809291908181526020018280546117db9061249f565b80156118285780601f106117fd57610100808354040283529160200191611828565b820191906000526020600020905b81548152906001019060200180831161180b57829003601f168201915b50505050508152505081526020016008805480602002602001604051908101604052809291908181526020016000905b82821015611912578382906000526020600020016040518060600160405290816000820160009054906101000a900460ff161515151581526020016000820160019054906101000a900473ffffffffffffffffffffffffffffffffffffffff1673ffffffffffffffffffffffffffffffffffffffff1673ffffffffffffffffffffffffffffffffffffffff1681526020016000820160159054906101000a900460ff16151515158152505081526020019060010190611858565b50505050815250905050565b600a6020528060005260406000206000915090508060000160009054906101000a900460ff16908060000160019054906101000a900473ffffffffffffffffffffffffffffffffffffffff16908060000160159054906101000a900460ff16905083565b6060600080600080600b600101600154600360009054906101000a900473ffffffffffffffffffffffffffffffffffffffff166004546006548480546119c79061249f565b80601f01602080910402602001604051908101604052809291908181526020018280546119f39061249f565b8015611a405780601f10611a1557610100808354040283529160200191611a40565b820191906000526020600020905b815481529060010190602001808311611a2357829003601f168201915b50505050509450945094509450945094509091929394565b60075481565b60045481565b60088181548110611a7457600080fd5b906000526020600020016000915090508060000160009054906101000a900460ff16908060000160019054906101000a900473ffffffffffffffffffffffffffffffffffffffff16908060000160159054906101000a900460ff16905083565b60008054906101000a900473ffffffffffffffffffffffffffffffffffffffff1681565b604051806060016040528060608152602001611b12611b1f565b8152602001606081525090565b604051806040016040528060008152602001606081525090565b6000604051905090565b600080fd5b600080fd5b6000819050919050565b611b6081611b4d565b8114611b6b57600080fd5b50565b600081359050611b7d81611b57565b92915050565b600060208284031215611b9957611b98611b43565b5b6000611ba784828501611b6e565b91505092915050565b600073ffffffffffffffffffffffffffffffffffffffff82169050919050565b6000611bdb82611bb0565b9050919050565b611beb81611bd0565b82525050565b6000602082019050611c066000830184611be2565b92915050565b611c1581611bd0565b8114611c2057600080fd5b50565b600081359050611c3281611c0c565b92915050565b600060208284031215611c4e57611c4d611b43565b5b6000611c5c84828501611c23565b91505092915050565b600081519050919050565b600082825260208201905092915050565b60005b83811015611c9f578082015181840152602081019050611c84565b83811115611cae576000848401525b50505050565b6000601f19601f8301169050919050565b6000611cd082611c65565b611cda8185611c70565b9350611cea818560208601611c81565b611cf381611cb4565b840191505092915050565b60006020820190508181036000830152611d188184611cc5565b905092915050565b600080fd5b600080fd5b7f4e487b7100000000000000000000000000000000000000000000000000000000600052604160045260246000fd5b611d6282611cb4565b810181811067ffffffffffffffff82111715611d8157611d80611d2a565b5b80604052505050565b6000611d94611b39565b9050611da08282611d59565b919050565b600067ffffffffffffffff821115611dc057611dbf611d2a565b5b611dc982611cb4565b9050602081019050919050565b82818337600083830152505050565b6000611df8611df384611da5565b611d8a565b905082815260208101848484011115611e1457611e13611d25565b5b611e1f848285611dd6565b509392505050565b600082601f830112611e3c57611e3b611d20565b5b8135611e4c848260208601611de5565b91505092915050565b600060208284031215611e6b57611e6a611b43565b5b600082013567ffffffffffffffff811115611e8957611e88611b48565b5b611e9584828501611e27565b91505092915050565b611ea781611b4d565b82525050565b600082825260208201905092915050565b6000611ec982611c65565b611ed38185611ead565b9350611ee3818560208601611c81565b611eec81611cb4565b840191505092915050565b6000604083016000830151611f0f6000860182611e9e565b5060208301518482036020860152611f278282611ebe565b9150508091505092915050565b60006040820190508181036000830152611f4e8185611cc5565b90508181036020830152611f628184611ef7565b90509392505050565b60008115159050919050565b611f8081611f6b565b82525050565b6000606082019050611f9b6000830186611f77565b611fa86020830185611f77565b611fb56040830184611be2565b949350505050565b611fc681611b4d565b82525050565b6000602082019050611fe16000830184611fbd565b92915050565b6000604082019050611ffc6000830185611fbd565b818103602083015261200e8184611cc5565b90509392505050565b600060408301600083015161202f6000860182611e9e565b50602083015184820360208601526120478282611ebe565b9150508091505092915050565b600081519050919050565b600082825260208201905092915050565b6000819050602082019050919050565b61208981611f6b565b82525050565b61209881611bd0565b82525050565b6060820160008201516120b46000850182612080565b5060208201516120c7602085018261208f565b5060408201516120da6040850182612080565b50505050565b60006120ec838361209e565b60608301905092915050565b6000602082019050919050565b600061211082612054565b61211a818561205f565b935061212583612070565b8060005b8381101561215657815161213d88826120e0565b9750612148836120f8565b925050600181019050612129565b5085935050505092915050565b600060608301600083015184820360008601526121808282611ebe565b9150506020830151848203602086015261219a8282612017565b915050604083015184820360408601526121b48282612105565b9150508091505092915050565b600060208201905081810360008301526121db8184612163565b905092915050565b60006060820190506121f86000830186611f77565b6122056020830185611be2565b6122126040830184611f77565b949350505050565b600060a08201905081810360008301526122348188611cc5565b90506122436020830187611fbd565b6122506040830186611be2565b61225d6060830185611fbd565b61226a6080830184611fbd565b9695505050505050565b7f4f6e6c7920696e69746961746f722063616e207265676973746572206120726560008201527f63697069656e742e000000000000000000000000000000000000000000000000602082015250565b60006122d0602883611c70565b91506122db82612274565b604082019050919050565b600060208201905081810360008301526122ff816122c3565b9050919050565b7f496e69746961746f722063616e277420766f7465210000000000000000000000600082015250565b600061233c601583611c70565b915061234782612306565b602082019050919050565b6000602082019050818103600083015261236b8161232f565b9050919050565b7f526563697069656e7420697320616c7265616479207265676973746572656400600082015250565b60006123a8601f83611c70565b91506123b382612372565b602082019050919050565b600060208201905081810360008301526123d78161239b565b9050919050565b7f50726f706f73616c20686173207265616368656420697473206578706972792060008201527f6461746500000000000000000000000000000000000000000000000000000000602082015250565b600061243a602483611c70565b9150612445826123de565b604082019050919050565b600060208201905081810360008301526124698161242d565b9050919050565b7f4e487b7100000000000000000000000000000000000000000000000000000000600052602260045260246000fd5b600060028204905060018216806124b757607f821691505b6020821081036124ca576124c9612470565b5b50919050565b7f566f74696e672068617320657870697265640000000000000000000000000000600082015250565b6000612506601283611c70565b9150612511826124d0565b602082019050919050565b60006020820190508181036000830152612535816124f9565b9050919050565b7f596f7520617265206e6f74207265676973746572656420746f20766f74650000600082015250565b6000612572601e83611c70565b915061257d8261253c565b602082019050919050565b600060208201905081810360008301526125a181612565565b9050919050565b7f596f7520616c72656164792073656e74206120726573706f6e73652e00000000600082015250565b60006125de601c83611c70565b91506125e9826125a8565b602082019050919050565b6000602082019050818103600083015261260d816125d1565b9050919050565b7f4e487b7100000000000000000000000000000000000000000000000000000000600052601160045260246000fd5b600061264e82611b4d565b915061265983611b4d565b9250827fffffffffffffffffffffffffffffffffffffffffffffffffffffffffffffffff0382111561268e5761268d612614565b5b828201905092915050565b7f5665726469637420686173206e6f74206265656e207265616368656420796574600082015250565b60006126cf602083611c70565b91506126da82612699565b602082019050919050565b600060208201905081810360008301526126fe816126c2565b9050919050565b7f436f6e73656e7375732068617320616c7265616479206265656e2063616c637560008201527f6c61746564000000000000000000000000000000000000000000000000000000602082015250565b6000612761602583611c70565b915061276c82612705565b604082019050919050565b6000602082019050818103600083015261279081612754565b9050919050565b7f4e487b7100000000000000000000000000000000000000000000000000000000600052601260045260246000fd5b60006127d182611b4d565b91506127dc83611b4d565b9250826127ec576127eb612797565b5b828204905092915050565b600061280282611b4d565b915061280d83611b4d565b9250817fffffffffffffffffffffffffffffffffffffffffffffffffffffffffffffffff048311821515161561284657612845612614565b5b828202905092915050565b60008190508160005260206000209050919050565b60006020601f8301049050919050565b600082821b905092915050565b6000600883026128b37fffffffffffffffffffffffffffffffffffffffffffffffffffffffffffffffff82612876565b6128bd8683612876565b95508019841693508086168417925050509392505050565b6000819050919050565b60006128fa6128f56128f084611b4d565b6128d5565b611b4d565b9050919050565b6000819050919050565b612914836128df565b61292861292082612901565b848454612883565b825550505050565b600090565b61293d612930565b61294881848461290b565b505050565b5b8181101561296c57612961600082612935565b60018101905061294e565b5050565b601f8211156129b15761298281612851565b61298b84612866565b8101602085101561299a578190505b6129ae6129a685612866565b83018261294d565b50505b505050565b600082821c905092915050565b60006129d4600019846008026129b6565b1980831691505092915050565b60006129ed83836129c3565b9150826002028217905092915050565b612a0682611c65565b67ffffffffffffffff811115612a1f57612a1e611d2a565b5b612a29825461249f565b612a34828285612970565b600060209050601f831160018114612a675760008415612a55578287015190505b612a5f85826129e1565b865550612ac7565b601f198416612a7586612851565b60005b82811015612a9d57848901518255600182019150602085019450602081019050612a78565b86831015612aba5784890151612ab6601f8916826129c3565b8355505b6001600288020188555050505b505050505050565b7f4e487b7100000000000000000000000000000000000000000000000000000000600052603260045260246000fd5b600060ff82169050919050565b6000612b1682612afe565b915060ff8203612b2957612b28612614565b5b60018201905091905056fea26469706673582212204700ffac779826aa017de3dd17f50f9542e94f1781f1a251203ce575f7f2e74564736f6c634300080f0033",
					"opcodes": "PUSH1 0x80 PUSH1 0x40 MSTORE CALLVALUE DUP1 ISZERO PUSH3 0x11 JUMPI PUSH1 0x0 DUP1 REVERT JUMPDEST POP PUSH1 0x40 MLOAD PUSH3 0x32F1 CODESIZE SUB DUP1 PUSH3 0x32F1 DUP4 CODECOPY DUP2 DUP2 ADD PUSH1 0x40 MSTORE DUP2 ADD SWAP1 PUSH3 0x37 SWAP2 SWAP1 PUSH3 0x348 JUMP JUMPDEST CALLER PUSH1 0x3 PUSH1 0x0 PUSH2 0x100 EXP DUP2 SLOAD DUP2 PUSH20 0xFFFFFFFFFFFFFFFFFFFFFFFFFFFFFFFFFFFFFFFF MUL NOT AND SWAP1 DUP4 PUSH20 0xFFFFFFFFFFFFFFFFFFFFFFFFFFFFFFFFFFFFFFFF AND MUL OR SWAP1 SSTORE POP DUP2 TIMESTAMP PUSH3 0x86 SWAP2 SWAP1 PUSH3 0x3F2 JUMP JUMPDEST PUSH1 0x1 DUP2 SWAP1 SSTORE POP DUP1 PUSH1 0x4 DUP2 SWAP1 SSTORE POP PUSH1 0x0 PUSH1 0x5 DUP2 SWAP1 SSTORE POP PUSH1 0x0 PUSH1 0x6 DUP2 SWAP1 SSTORE POP PUSH1 0x40 MLOAD DUP1 PUSH1 0x40 ADD PUSH1 0x40 MSTORE DUP1 PUSH1 0x8 DUP2 MSTORE PUSH1 0x20 ADD PUSH32 0x52656A6563746564000000000000000000000000000000000000000000000000 DUP2 MSTORE POP PUSH1 0x2 SWAP1 DUP2 PUSH3 0xE9 SWAP2 SWAP1 PUSH3 0x690 JUMP JUMPDEST POP ADDRESS PUSH1 0x0 DUP1 PUSH2 0x100 EXP DUP2 SLOAD DUP2 PUSH20 0xFFFFFFFFFFFFFFFFFFFFFFFFFFFFFFFFFFFFFFFF MUL NOT AND SWAP1 DUP4 PUSH20 0xFFFFFFFFFFFFFFFFFFFFFFFFFFFFFFFFFFFFFFFF AND MUL OR SWAP1 SSTORE POP PUSH1 0x40 MLOAD DUP1 PUSH1 0x40 ADD PUSH1 0x40 MSTORE DUP1 PUSH1 0x0 DUP2 MSTORE PUSH1 0x20 ADD DUP5 DUP2 MSTORE POP PUSH1 0xB PUSH1 0x0 DUP3 ADD MLOAD DUP2 PUSH1 0x0 ADD SSTORE PUSH1 0x20 DUP3 ADD MLOAD DUP2 PUSH1 0x1 ADD SWAP1 DUP2 PUSH3 0x163 SWAP2 SWAP1 PUSH3 0x690 JUMP JUMPDEST POP SWAP1 POP POP POP POP POP PUSH3 0x777 JUMP JUMPDEST PUSH1 0x0 PUSH1 0x40 MLOAD SWAP1 POP SWAP1 JUMP JUMPDEST PUSH1 0x0 DUP1 REVERT JUMPDEST PUSH1 0x0 DUP1 REVERT JUMPDEST PUSH1 0x0 DUP1 REVERT JUMPDEST PUSH1 0x0 DUP1 REVERT JUMPDEST PUSH1 0x0 PUSH1 0x1F NOT PUSH1 0x1F DUP4 ADD AND SWAP1 POP SWAP2 SWAP1 POP JUMP JUMPDEST PUSH32 0x4E487B7100000000000000000000000000000000000000000000000000000000 PUSH1 0x0 MSTORE PUSH1 0x41 PUSH1 0x4 MSTORE PUSH1 0x24 PUSH1 0x0 REVERT JUMPDEST PUSH3 0x1D9 DUP3 PUSH3 0x18E JUMP JUMPDEST DUP2 ADD DUP2 DUP2 LT PUSH8 0xFFFFFFFFFFFFFFFF DUP3 GT OR ISZERO PUSH3 0x1FB JUMPI PUSH3 0x1FA PUSH3 0x19F JUMP JUMPDEST JUMPDEST DUP1 PUSH1 0x40 MSTORE POP POP POP JUMP JUMPDEST PUSH1 0x0 PUSH3 0x210 PUSH3 0x170 JUMP JUMPDEST SWAP1 POP PUSH3 0x21E DUP3 DUP3 PUSH3 0x1CE JUMP JUMPDEST SWAP2 SWAP1 POP JUMP JUMPDEST PUSH1 0x0 PUSH8 0xFFFFFFFFFFFFFFFF DUP3 GT ISZERO PUSH3 0x241 JUMPI PUSH3 0x240 PUSH3 0x19F JUMP JUMPDEST JUMPDEST PUSH3 0x24C DUP3 PUSH3 0x18E JUMP JUMPDEST SWAP1 POP PUSH1 0x20 DUP2 ADD SWAP1 POP SWAP2 SWAP1 POP JUMP JUMPDEST PUSH1 0x0 JUMPDEST DUP4 DUP2 LT ISZERO PUSH3 0x279 JUMPI DUP1 DUP3 ADD MLOAD DUP2 DUP5 ADD MSTORE PUSH1 0x20 DUP2 ADD SWAP1 POP PUSH3 0x25C JUMP JUMPDEST DUP4 DUP2 GT ISZERO PUSH3 0x289 JUMPI PUSH1 0x0 DUP5 DUP5 ADD MSTORE JUMPDEST POP POP POP POP JUMP JUMPDEST PUSH1 0x0 PUSH3 0x2A6 PUSH3 0x2A0 DUP5 PUSH3 0x223 JUMP JUMPDEST PUSH3 0x204 JUMP JUMPDEST SWAP1 POP DUP3 DUP2 MSTORE PUSH1 0x20 DUP2 ADD DUP5 DUP5 DUP5 ADD GT ISZERO PUSH3 0x2C5 JUMPI PUSH3 0x2C4 PUSH3 0x189 JUMP JUMPDEST JUMPDEST PUSH3 0x2D2 DUP5 DUP3 DUP6 PUSH3 0x259 JUMP JUMPDEST POP SWAP4 SWAP3 POP POP POP JUMP JUMPDEST PUSH1 0x0 DUP3 PUSH1 0x1F DUP4 ADD SLT PUSH3 0x2F2 JUMPI PUSH3 0x2F1 PUSH3 0x184 JUMP JUMPDEST JUMPDEST DUP2 MLOAD PUSH3 0x304 DUP5 DUP3 PUSH1 0x20 DUP7 ADD PUSH3 0x28F JUMP JUMPDEST SWAP2 POP POP SWAP3 SWAP2 POP POP JUMP JUMPDEST PUSH1 0x0 DUP2 SWAP1 POP SWAP2 SWAP1 POP JUMP JUMPDEST PUSH3 0x322 DUP2 PUSH3 0x30D JUMP JUMPDEST DUP2 EQ PUSH3 0x32E JUMPI PUSH1 0x0 DUP1 REVERT JUMPDEST POP JUMP JUMPDEST PUSH1 0x0 DUP2 MLOAD SWAP1 POP PUSH3 0x342 DUP2 PUSH3 0x317 JUMP JUMPDEST SWAP3 SWAP2 POP POP JUMP JUMPDEST PUSH1 0x0 DUP1 PUSH1 0x0 PUSH1 0x60 DUP5 DUP7 SUB SLT ISZERO PUSH3 0x364 JUMPI PUSH3 0x363 PUSH3 0x17A JUMP JUMPDEST JUMPDEST PUSH1 0x0 DUP5 ADD MLOAD PUSH8 0xFFFFFFFFFFFFFFFF DUP2 GT ISZERO PUSH3 0x385 JUMPI PUSH3 0x384 PUSH3 0x17F JUMP JUMPDEST JUMPDEST PUSH3 0x393 DUP7 DUP3 DUP8 ADD PUSH3 0x2DA JUMP JUMPDEST SWAP4 POP POP PUSH1 0x20 PUSH3 0x3A6 DUP7 DUP3 DUP8 ADD PUSH3 0x331 JUMP JUMPDEST SWAP3 POP POP PUSH1 0x40 PUSH3 0x3B9 DUP7 DUP3 DUP8 ADD PUSH3 0x331 JUMP JUMPDEST SWAP2 POP POP SWAP3 POP SWAP3 POP SWAP3 JUMP JUMPDEST PUSH32 0x4E487B7100000000000000000000000000000000000000000000000000000000 PUSH1 0x0 MSTORE PUSH1 0x11 PUSH1 0x4 MSTORE PUSH1 0x24 PUSH1 0x0 REVERT JUMPDEST PUSH1 0x0 PUSH3 0x3FF DUP3 PUSH3 0x30D JUMP JUMPDEST SWAP2 POP PUSH3 0x40C DUP4 PUSH3 0x30D JUMP JUMPDEST SWAP3 POP DUP3 PUSH32 0xFFFFFFFFFFFFFFFFFFFFFFFFFFFFFFFFFFFFFFFFFFFFFFFFFFFFFFFFFFFFFFFF SUB DUP3 GT ISZERO PUSH3 0x444 JUMPI PUSH3 0x443 PUSH3 0x3C3 JUMP JUMPDEST JUMPDEST DUP3 DUP3 ADD SWAP1 POP SWAP3 SWAP2 POP POP JUMP JUMPDEST PUSH1 0x0 DUP2 MLOAD SWAP1 POP SWAP2 SWAP1 POP JUMP JUMPDEST PUSH32 0x4E487B7100000000000000000000000000000000000000000000000000000000 PUSH1 0x0 MSTORE PUSH1 0x22 PUSH1 0x4 MSTORE PUSH1 0x24 PUSH1 0x0 REVERT JUMPDEST PUSH1 0x0 PUSH1 0x2 DUP3 DIV SWAP1 POP PUSH1 0x1 DUP3 AND DUP1 PUSH3 0x4A2 JUMPI PUSH1 0x7F DUP3 AND SWAP2 POP JUMPDEST PUSH1 0x20 DUP3 LT DUP2 SUB PUSH3 0x4B8 JUMPI PUSH3 0x4B7 PUSH3 0x45A JUMP JUMPDEST JUMPDEST POP SWAP2 SWAP1 POP JUMP JUMPDEST PUSH1 0x0 DUP2 SWAP1 POP DUP2 PUSH1 0x0 MSTORE PUSH1 0x20 PUSH1 0x0 KECCAK256 SWAP1 POP SWAP2 SWAP1 POP JUMP JUMPDEST PUSH1 0x0 PUSH1 0x20 PUSH1 0x1F DUP4 ADD DIV SWAP1 POP SWAP2 SWAP1 POP JUMP JUMPDEST PUSH1 0x0 DUP3 DUP3 SHL SWAP1 POP SWAP3 SWAP2 POP POP JUMP JUMPDEST PUSH1 0x0 PUSH1 0x8 DUP4 MUL PUSH3 0x522 PUSH32 0xFFFFFFFFFFFFFFFFFFFFFFFFFFFFFFFFFFFFFFFFFFFFFFFFFFFFFFFFFFFFFFFF DUP3 PUSH3 0x4E3 JUMP JUMPDEST PUSH3 0x52E DUP7 DUP4 PUSH3 0x4E3 JUMP JUMPDEST SWAP6 POP DUP1 NOT DUP5 AND SWAP4 POP DUP1 DUP7 AND DUP5 OR SWAP3 POP POP POP SWAP4 SWAP3 POP POP POP JUMP JUMPDEST PUSH1 0x0 DUP2 SWAP1 POP SWAP2 SWAP1 POP JUMP JUMPDEST PUSH1 0x0 PUSH3 0x571 PUSH3 0x56B PUSH3 0x565 DUP5 PUSH3 0x30D JUMP JUMPDEST PUSH3 0x546 JUMP JUMPDEST PUSH3 0x30D JUMP JUMPDEST SWAP1 POP SWAP2 SWAP1 POP JUMP JUMPDEST PUSH1 0x0 DUP2 SWAP1 POP SWAP2 SWAP1 POP JUMP JUMPDEST PUSH3 0x58D DUP4 PUSH3 0x550 JUMP JUMPDEST PUSH3 0x5A5 PUSH3 0x59C DUP3 PUSH3 0x578 JUMP JUMPDEST DUP5 DUP5 SLOAD PUSH3 0x4F0 JUMP JUMPDEST DUP3 SSTORE POP POP POP POP JUMP JUMPDEST PUSH1 0x0 SWAP1 JUMP JUMPDEST PUSH3 0x5BC PUSH3 0x5AD JUMP JUMPDEST PUSH3 0x5C9 DUP2 DUP5 DUP5 PUSH3 0x582 JUMP JUMPDEST POP POP POP JUMP JUMPDEST JUMPDEST DUP2 DUP2 LT ISZERO PUSH3 0x5F1 JUMPI PUSH3 0x5E5 PUSH1 0x0 DUP3 PUSH3 0x5B2 JUMP JUMPDEST PUSH1 0x1 DUP2 ADD SWAP1 POP PUSH3 0x5CF JUMP JUMPDEST POP POP JUMP JUMPDEST PUSH1 0x1F DUP3 GT ISZERO PUSH3 0x640 JUMPI PUSH3 0x60A DUP2 PUSH3 0x4BE JUMP JUMPDEST PUSH3 0x615 DUP5 PUSH3 0x4D3 JUMP JUMPDEST DUP2 ADD PUSH1 0x20 DUP6 LT ISZERO PUSH3 0x625 JUMPI DUP2 SWAP1 POP JUMPDEST PUSH3 0x63D PUSH3 0x634 DUP6 PUSH3 0x4D3 JUMP JUMPDEST DUP4 ADD DUP3 PUSH3 0x5CE JUMP JUMPDEST POP POP JUMPDEST POP POP POP JUMP JUMPDEST PUSH1 0x0 DUP3 DUP3 SHR SWAP1 POP SWAP3 SWAP2 POP POP JUMP JUMPDEST PUSH1 0x0 PUSH3 0x665 PUSH1 0x0 NOT DUP5 PUSH1 0x8 MUL PUSH3 0x645 JUMP JUMPDEST NOT DUP1 DUP4 AND SWAP2 POP POP SWAP3 SWAP2 POP POP JUMP JUMPDEST PUSH1 0x0 PUSH3 0x680 DUP4 DUP4 PUSH3 0x652 JUMP JUMPDEST SWAP2 POP DUP3 PUSH1 0x2 MUL DUP3 OR SWAP1 POP SWAP3 SWAP2 POP POP JUMP JUMPDEST PUSH3 0x69B DUP3 PUSH3 0x44F JUMP JUMPDEST PUSH8 0xFFFFFFFFFFFFFFFF DUP2 GT ISZERO PUSH3 0x6B7 JUMPI PUSH3 0x6B6 PUSH3 0x19F JUMP JUMPDEST JUMPDEST PUSH3 0x6C3 DUP3 SLOAD PUSH3 0x489 JUMP JUMPDEST PUSH3 0x6D0 DUP3 DUP3 DUP6 PUSH3 0x5F5 JUMP JUMPDEST PUSH1 0x0 PUSH1 0x20 SWAP1 POP PUSH1 0x1F DUP4 GT PUSH1 0x1 DUP2 EQ PUSH3 0x708 JUMPI PUSH1 0x0 DUP5 ISZERO PUSH3 0x6F3 JUMPI DUP3 DUP8 ADD MLOAD SWAP1 POP JUMPDEST PUSH3 0x6FF DUP6 DUP3 PUSH3 0x672 JUMP JUMPDEST DUP7 SSTORE POP PUSH3 0x76F JUMP JUMPDEST PUSH1 0x1F NOT DUP5 AND PUSH3 0x718 DUP7 PUSH3 0x4BE JUMP JUMPDEST PUSH1 0x0 JUMPDEST DUP3 DUP2 LT ISZERO PUSH3 0x742 JUMPI DUP5 DUP10 ADD MLOAD DUP3 SSTORE PUSH1 0x1 DUP3 ADD SWAP2 POP PUSH1 0x20 DUP6 ADD SWAP5 POP PUSH1 0x20 DUP2 ADD SWAP1 POP PUSH3 0x71B JUMP JUMPDEST DUP7 DUP4 LT ISZERO PUSH3 0x762 JUMPI DUP5 DUP10 ADD MLOAD PUSH3 0x75E PUSH1 0x1F DUP10 AND DUP3 PUSH3 0x652 JUMP JUMPDEST DUP4 SSTORE POP JUMPDEST PUSH1 0x1 PUSH1 0x2 DUP9 MUL ADD DUP9 SSTORE POP POP POP JUMPDEST POP POP POP POP POP POP JUMP JUMPDEST PUSH2 0x2B6A DUP1 PUSH3 0x787 PUSH1 0x0 CODECOPY PUSH1 0x0 RETURN INVALID PUSH1 0x80 PUSH1 0x40 MSTORE CALLVALUE DUP1 ISZERO PUSH2 0x10 JUMPI PUSH1 0x0 DUP1 REVERT JUMPDEST POP PUSH1 0x4 CALLDATASIZE LT PUSH2 0x116 JUMPI PUSH1 0x0 CALLDATALOAD PUSH1 0xE0 SHR DUP1 PUSH4 0x753EC103 GT PUSH2 0xA2 JUMPI DUP1 PUSH4 0xA5EA11DA GT PUSH2 0x71 JUMPI DUP1 PUSH4 0xA5EA11DA EQ PUSH2 0x2C5 JUMPI DUP1 PUSH4 0xB9A29250 EQ PUSH2 0x2E7 JUMPI DUP1 PUSH4 0xD77AA749 EQ PUSH2 0x305 JUMPI DUP1 PUSH4 0xDA58C7D9 EQ PUSH2 0x323 JUMPI DUP1 PUSH4 0xF6B4DFB4 EQ PUSH2 0x355 JUMPI PUSH2 0x116 JUMP JUMPDEST DUP1 PUSH4 0x753EC103 EQ PUSH2 0x24C JUMPI DUP1 PUSH4 0x82316745 EQ PUSH2 0x26B JUMPI DUP1 PUSH4 0x95B02DFA EQ PUSH2 0x289 JUMPI DUP1 PUSH4 0x9AA4BBDD EQ PUSH2 0x293 JUMPI PUSH2 0x116 JUMP JUMPDEST DUP1 PUSH4 0x4A1F0EF2 GT PUSH2 0xE9 JUMPI DUP1 PUSH4 0x4A1F0EF2 EQ PUSH2 0x1A1 JUMPI DUP1 PUSH4 0x5361A0EA EQ PUSH2 0x1C0 JUMPI DUP1 PUSH4 0x5C39FCC1 EQ PUSH2 0x1F2 JUMPI DUP1 PUSH4 0x604C8333 EQ PUSH2 0x210 JUMPI DUP1 PUSH4 0x7403C5E5 EQ PUSH2 0x22E JUMPI PUSH2 0x116 JUMP JUMPDEST DUP1 PUSH4 0xCB6AAF1 EQ PUSH2 0x11B JUMPI DUP1 PUSH4 0x15FE6F1B EQ PUSH2 0x14B JUMPI DUP1 PUSH4 0x19EB4A90 EQ PUSH2 0x167 JUMPI DUP1 PUSH4 0x323082D7 EQ PUSH2 0x185 JUMPI JUMPDEST PUSH1 0x0 DUP1 REVERT JUMPDEST PUSH2 0x135 PUSH1 0x4 DUP1 CALLDATASIZE SUB DUP2 ADD SWAP1 PUSH2 0x130 SWAP2 SWAP1 PUSH2 0x1B83 JUMP JUMPDEST PUSH2 0x373 JUMP JUMPDEST PUSH1 0x40 MLOAD PUSH2 0x142 SWAP2 SWAP1 PUSH2 0x1BF1 JUMP JUMPDEST PUSH1 0x40 MLOAD DUP1 SWAP2 SUB SWAP1 RETURN JUMPDEST PUSH2 0x165 PUSH1 0x4 DUP1 CALLDATASIZE SUB DUP2 ADD SWAP1 PUSH2 0x160 SWAP2 SWAP1 PUSH2 0x1C38 JUMP JUMPDEST PUSH2 0x3B2 JUMP JUMPDEST STOP JUMPDEST PUSH2 0x16F PUSH2 0x753 JUMP JUMPDEST PUSH1 0x40 MLOAD PUSH2 0x17C SWAP2 SWAP1 PUSH2 0x1CFE JUMP JUMPDEST PUSH1 0x40 MLOAD DUP1 SWAP2 SUB SWAP1 RETURN JUMPDEST PUSH2 0x19F PUSH1 0x4 DUP1 CALLDATASIZE SUB DUP2 ADD SWAP1 PUSH2 0x19A SWAP2 SWAP1 PUSH2 0x1E55 JUMP JUMPDEST PUSH2 0x7E8 JUMP JUMPDEST STOP JUMPDEST PUSH2 0x1A9 PUSH2 0xE14 JUMP JUMPDEST PUSH1 0x40 MLOAD PUSH2 0x1B7 SWAP3 SWAP2 SWAP1 PUSH2 0x1F34 JUMP JUMPDEST PUSH1 0x40 MLOAD DUP1 SWAP2 SUB SWAP1 RETURN JUMPDEST PUSH2 0x1DA PUSH1 0x4 DUP1 CALLDATASIZE SUB DUP2 ADD SWAP1 PUSH2 0x1D5 SWAP2 SWAP1 PUSH2 0x1C38 JUMP JUMPDEST PUSH2 0xF54 JUMP JUMPDEST PUSH1 0x40 MLOAD PUSH2 0x1E9 SWAP4 SWAP3 SWAP2 SWAP1 PUSH2 0x1F86 JUMP JUMPDEST PUSH1 0x40 MLOAD DUP1 SWAP2 SUB SWAP1 RETURN JUMPDEST PUSH2 0x1FA PUSH2 0x1069 JUMP JUMPDEST PUSH1 0x40 MLOAD PUSH2 0x207 SWAP2 SWAP1 PUSH2 0x1BF1 JUMP JUMPDEST PUSH1 0x40 MLOAD DUP1 SWAP2 SUB SWAP1 RETURN JUMPDEST PUSH2 0x218 PUSH2 0x108F JUMP JUMPDEST PUSH1 0x40 MLOAD PUSH2 0x225 SWAP2 SWAP1 PUSH2 0x1FCC JUMP JUMPDEST PUSH1 0x40 MLOAD DUP1 SWAP2 SUB SWAP1 RETURN JUMPDEST PUSH2 0x236 PUSH2 0x1095 JUMP JUMPDEST PUSH1 0x40 MLOAD PUSH2 0x243 SWAP2 SWAP1 PUSH2 0x1FCC JUMP JUMPDEST PUSH1 0x40 MLOAD DUP1 SWAP2 SUB SWAP1 RETURN JUMPDEST PUSH2 0x254 PUSH2 0x109B JUMP JUMPDEST PUSH1 0x40 MLOAD PUSH2 0x262 SWAP3 SWAP2 SWAP1 PUSH2 0x1FE7 JUMP JUMPDEST PUSH1 0x40 MLOAD DUP1 SWAP2 SUB SWAP1 RETURN JUMPDEST PUSH2 0x273 PUSH2 0x1135 JUMP JUMPDEST PUSH1 0x40 MLOAD PUSH2 0x280 SWAP2 SWAP1 PUSH2 0x21C1 JUMP JUMPDEST PUSH1 0x40 MLOAD DUP1 SWAP2 SUB SWAP1 RETURN JUMPDEST PUSH2 0x291 PUSH2 0x13BD JUMP JUMPDEST STOP JUMPDEST PUSH2 0x2AD PUSH1 0x4 DUP1 CALLDATASIZE SUB DUP2 ADD SWAP1 PUSH2 0x2A8 SWAP2 SWAP1 PUSH2 0x1C38 JUMP JUMPDEST PUSH2 0x191E JUMP JUMPDEST PUSH1 0x40 MLOAD PUSH2 0x2BC SWAP4 SWAP3 SWAP2 SWAP1 PUSH2 0x21E3 JUMP JUMPDEST PUSH1 0x40 MLOAD DUP1 SWAP2 SUB SWAP1 RETURN JUMPDEST PUSH2 0x2CD PUSH2 0x1982 JUMP JUMPDEST PUSH1 0x40 MLOAD PUSH2 0x2DE SWAP6 SWAP5 SWAP4 SWAP3 SWAP2 SWAP1 PUSH2 0x221A JUMP JUMPDEST PUSH1 0x40 MLOAD DUP1 SWAP2 SUB SWAP1 RETURN JUMPDEST PUSH2 0x2EF PUSH2 0x1A58 JUMP JUMPDEST PUSH1 0x40 MLOAD PUSH2 0x2FC SWAP2 SWAP1 PUSH2 0x1FCC JUMP JUMPDEST PUSH1 0x40 MLOAD DUP1 SWAP2 SUB SWAP1 RETURN JUMPDEST PUSH2 0x30D PUSH2 0x1A5E JUMP JUMPDEST PUSH1 0x40 MLOAD PUSH2 0x31A SWAP2 SWAP1 PUSH2 0x1FCC JUMP JUMPDEST PUSH1 0x40 MLOAD DUP1 SWAP2 SUB SWAP1 RETURN JUMPDEST PUSH2 0x33D PUSH1 0x4 DUP1 CALLDATASIZE SUB DUP2 ADD SWAP1 PUSH2 0x338 SWAP2 SWAP1 PUSH2 0x1B83 JUMP JUMPDEST PUSH2 0x1A64 JUMP JUMPDEST PUSH1 0x40 MLOAD PUSH2 0x34C SWAP4 SWAP3 SWAP2 SWAP1 PUSH2 0x21E3 JUMP JUMPDEST PUSH1 0x40 MLOAD DUP1 SWAP2 SUB SWAP1 RETURN JUMPDEST PUSH2 0x35D PUSH2 0x1AD4 JUMP JUMPDEST PUSH1 0x40 MLOAD PUSH2 0x36A SWAP2 SWAP1 PUSH2 0x1BF1 JUMP JUMPDEST PUSH1 0x40 MLOAD DUP1 SWAP2 SUB SWAP1 RETURN JUMPDEST PUSH1 0x9 DUP2 DUP2 SLOAD DUP2 LT PUSH2 0x383 JUMPI PUSH1 0x0 DUP1 REVERT JUMPDEST SWAP1 PUSH1 0x0 MSTORE PUSH1 0x20 PUSH1 0x0 KECCAK256 ADD PUSH1 0x0 SWAP2 POP SLOAD SWAP1 PUSH2 0x100 EXP SWAP1 DIV PUSH20 0xFFFFFFFFFFFFFFFFFFFFFFFFFFFFFFFFFFFFFFFF AND DUP2 JUMP JUMPDEST PUSH1 0x3 PUSH1 0x0 SWAP1 SLOAD SWAP1 PUSH2 0x100 EXP SWAP1 DIV PUSH20 0xFFFFFFFFFFFFFFFFFFFFFFFFFFFFFFFFFFFFFFFF AND PUSH20 0xFFFFFFFFFFFFFFFFFFFFFFFFFFFFFFFFFFFFFFFF AND CALLER PUSH20 0xFFFFFFFFFFFFFFFFFFFFFFFFFFFFFFFFFFFFFFFF AND EQ PUSH2 0x442 JUMPI PUSH1 0x40 MLOAD PUSH32 0x8C379A000000000000000000000000000000000000000000000000000000000 DUP2 MSTORE PUSH1 0x4 ADD PUSH2 0x439 SWAP1 PUSH2 0x22E6 JUMP JUMPDEST PUSH1 0x40 MLOAD DUP1 SWAP2 SUB SWAP1 REVERT JUMPDEST PUSH1 0x3 PUSH1 0x0 SWAP1 SLOAD SWAP1 PUSH2 0x100 EXP SWAP1 DIV PUSH20 0xFFFFFFFFFFFFFFFFFFFFFFFFFFFFFFFFFFFFFFFF AND PUSH20 0xFFFFFFFFFFFFFFFFFFFFFFFFFFFFFFFFFFFFFFFF AND DUP2 PUSH20 0xFFFFFFFFFFFFFFFFFFFFFFFFFFFFFFFFFFFFFFFF AND SUB PUSH2 0x4D2 JUMPI PUSH1 0x40 MLOAD PUSH32 0x8C379A000000000000000000000000000000000000000000000000000000000 DUP2 MSTORE PUSH1 0x4 ADD PUSH2 0x4C9 SWAP1 PUSH2 0x2352 JUMP JUMPDEST PUSH1 0x40 MLOAD DUP1 SWAP2 SUB SWAP1 REVERT JUMPDEST PUSH1 0x0 PUSH20 0xFFFFFFFFFFFFFFFFFFFFFFFFFFFFFFFFFFFFFFFF AND PUSH1 0xA PUSH1 0x0 DUP4 PUSH20 0xFFFFFFFFFFFFFFFFFFFFFFFFFFFFFFFFFFFFFFFF AND PUSH20 0xFFFFFFFFFFFFFFFFFFFFFFFFFFFFFFFFFFFFFFFF AND DUP2 MSTORE PUSH1 0x20 ADD SWAP1 DUP2 MSTORE PUSH1 0x20 ADD PUSH1 0x0 KECCAK256 PUSH1 0x0 ADD PUSH1 0x1 SWAP1 SLOAD SWAP1 PUSH2 0x100 EXP SWAP1 DIV PUSH20 0xFFFFFFFFFFFFFFFFFFFFFFFFFFFFFFFFFFFFFFFF AND PUSH20 0xFFFFFFFFFFFFFFFFFFFFFFFFFFFFFFFFFFFFFFFF AND EQ PUSH2 0x5A3 JUMPI PUSH1 0x40 MLOAD PUSH32 0x8C379A000000000000000000000000000000000000000000000000000000000 DUP2 MSTORE PUSH1 0x4 ADD PUSH2 0x59A SWAP1 PUSH2 0x23BE JUMP JUMPDEST PUSH1 0x40 MLOAD DUP1 SWAP2 SUB SWAP1 REVERT JUMPDEST PUSH1 0x1 SLOAD TIMESTAMP LT PUSH2 0x5E7 JUMPI PUSH1 0x40 MLOAD PUSH32 0x8C379A000000000000000000000000000000000000000000000000000000000 DUP2 MSTORE PUSH1 0x4 ADD PUSH2 0x5DE SWAP1 PUSH2 0x2450 JUMP JUMPDEST PUSH1 0x40 MLOAD DUP1 SWAP2 SUB SWAP1 REVERT JUMPDEST PUSH1 0x0 PUSH1 0x40 MLOAD DUP1 PUSH1 0x60 ADD PUSH1 0x40 MSTORE DUP1 PUSH1 0x0 ISZERO ISZERO DUP2 MSTORE PUSH1 0x20 ADD DUP4 PUSH20 0xFFFFFFFFFFFFFFFFFFFFFFFFFFFFFFFFFFFFFFFF AND DUP2 MSTORE PUSH1 0x20 ADD PUSH1 0x0 ISZERO ISZERO DUP2 MSTORE POP SWAP1 POP DUP1 PUSH1 0xA PUSH1 0x0 DUP5 PUSH20 0xFFFFFFFFFFFFFFFFFFFFFFFFFFFFFFFFFFFFFFFF AND PUSH20 0xFFFFFFFFFFFFFFFFFFFFFFFFFFFFFFFFFFFFFFFF AND DUP2 MSTORE PUSH1 0x20 ADD SWAP1 DUP2 MSTORE PUSH1 0x20 ADD PUSH1 0x0 KECCAK256 PUSH1 0x0 DUP3 ADD MLOAD DUP2 PUSH1 0x0 ADD PUSH1 0x0 PUSH2 0x100 EXP DUP2 SLOAD DUP2 PUSH1 0xFF MUL NOT AND SWAP1 DUP4 ISZERO ISZERO MUL OR SWAP1 SSTORE POP PUSH1 0x20 DUP3 ADD MLOAD DUP2 PUSH1 0x0 ADD PUSH1 0x1 PUSH2 0x100 EXP DUP2 SLOAD DUP2 PUSH20 0xFFFFFFFFFFFFFFFFFFFFFFFFFFFFFFFFFFFFFFFF MUL NOT AND SWAP1 DUP4 PUSH20 0xFFFFFFFFFFFFFFFFFFFFFFFFFFFFFFFFFFFFFFFF AND MUL OR SWAP1 SSTORE POP PUSH1 0x40 DUP3 ADD MLOAD DUP2 PUSH1 0x0 ADD PUSH1 0x15 PUSH2 0x100 EXP DUP2 SLOAD DUP2 PUSH1 0xFF MUL NOT AND SWAP1 DUP4 ISZERO ISZERO MUL OR SWAP1 SSTORE POP SWAP1 POP POP PUSH1 0x9 DUP3 SWAP1 DUP1 PUSH1 0x1 DUP2 SLOAD ADD DUP1 DUP3 SSTORE DUP1 SWAP2 POP POP PUSH1 0x1 SWAP1 SUB SWAP1 PUSH1 0x0 MSTORE PUSH1 0x20 PUSH1 0x0 KECCAK256 ADD PUSH1 0x0 SWAP1 SWAP2 SWAP1 SWAP2 SWAP1 SWAP2 PUSH2 0x100 EXP DUP2 SLOAD DUP2 PUSH20 0xFFFFFFFFFFFFFFFFFFFFFFFFFFFFFFFFFFFFFFFF MUL NOT AND SWAP1 DUP4 PUSH20 0xFFFFFFFFFFFFFFFFFFFFFFFFFFFFFFFFFFFFFFFF AND MUL OR SWAP1 SSTORE POP POP POP JUMP JUMPDEST PUSH1 0x60 PUSH1 0xB PUSH1 0x1 ADD DUP1 SLOAD PUSH2 0x765 SWAP1 PUSH2 0x249F JUMP JUMPDEST DUP1 PUSH1 0x1F ADD PUSH1 0x20 DUP1 SWAP2 DIV MUL PUSH1 0x20 ADD PUSH1 0x40 MLOAD SWAP1 DUP2 ADD PUSH1 0x40 MSTORE DUP1 SWAP3 SWAP2 SWAP1 DUP2 DUP2 MSTORE PUSH1 0x20 ADD DUP3 DUP1 SLOAD PUSH2 0x791 SWAP1 PUSH2 0x249F JUMP JUMPDEST DUP1 ISZERO PUSH2 0x7DE JUMPI DUP1 PUSH1 0x1F LT PUSH2 0x7B3 JUMPI PUSH2 0x100 DUP1 DUP4 SLOAD DIV MUL DUP4 MSTORE SWAP2 PUSH1 0x20 ADD SWAP2 PUSH2 0x7DE JUMP JUMPDEST DUP3 ADD SWAP2 SWAP1 PUSH1 0x0 MSTORE PUSH1 0x20 PUSH1 0x0 KECCAK256 SWAP1 JUMPDEST DUP2 SLOAD DUP2 MSTORE SWAP1 PUSH1 0x1 ADD SWAP1 PUSH1 0x20 ADD DUP1 DUP4 GT PUSH2 0x7C1 JUMPI DUP3 SWAP1 SUB PUSH1 0x1F AND DUP3 ADD SWAP2 JUMPDEST POP POP POP POP POP SWAP1 POP SWAP1 JUMP JUMPDEST PUSH1 0x1 SLOAD TIMESTAMP LT PUSH2 0x82C JUMPI PUSH1 0x40 MLOAD PUSH32 0x8C379A000000000000000000000000000000000000000000000000000000000 DUP2 MSTORE PUSH1 0x4 ADD PUSH2 0x823 SWAP1 PUSH2 0x251C JUMP JUMPDEST PUSH1 0x40 MLOAD DUP1 SWAP2 SUB SWAP1 REVERT JUMPDEST PUSH1 0x0 PUSH1 0xA PUSH1 0x0 CALLER PUSH20 0xFFFFFFFFFFFFFFFFFFFFFFFFFFFFFFFFFFFFFFFF AND PUSH20 0xFFFFFFFFFFFFFFFFFFFFFFFFFFFFFFFFFFFFFFFF AND DUP2 MSTORE PUSH1 0x20 ADD SWAP1 DUP2 MSTORE PUSH1 0x20 ADD PUSH1 0x0 KECCAK256 PUSH1 0x40 MLOAD DUP1 PUSH1 0x60 ADD PUSH1 0x40 MSTORE SWAP1 DUP2 PUSH1 0x0 DUP3 ADD PUSH1 0x0 SWAP1 SLOAD SWAP1 PUSH2 0x100 EXP SWAP1 DIV PUSH1 0xFF AND ISZERO ISZERO ISZERO ISZERO DUP2 MSTORE PUSH1 0x20 ADD PUSH1 0x0 DUP3 ADD PUSH1 0x1 SWAP1 SLOAD SWAP1 PUSH2 0x100 EXP SWAP1 DIV PUSH20 0xFFFFFFFFFFFFFFFFFFFFFFFFFFFFFFFFFFFFFFFF AND PUSH20 0xFFFFFFFFFFFFFFFFFFFFFFFFFFFFFFFFFFFFFFFF AND PUSH20 0xFFFFFFFFFFFFFFFFFFFFFFFFFFFFFFFFFFFFFFFF AND DUP2 MSTORE PUSH1 0x20 ADD PUSH1 0x0 DUP3 ADD PUSH1 0x15 SWAP1 SLOAD SWAP1 PUSH2 0x100 EXP SWAP1 DIV PUSH1 0xFF AND ISZERO ISZERO ISZERO ISZERO DUP2 MSTORE POP POP SWAP1 POP PUSH1 0x0 PUSH20 0xFFFFFFFFFFFFFFFFFFFFFFFFFFFFFFFFFFFFFFFF AND DUP2 PUSH1 0x20 ADD MLOAD PUSH20 0xFFFFFFFFFFFFFFFFFFFFFFFFFFFFFFFFFFFFFFFF AND SUB PUSH2 0x979 JUMPI PUSH1 0x40 MLOAD PUSH32 0x8C379A000000000000000000000000000000000000000000000000000000000 DUP2 MSTORE PUSH1 0x4 ADD PUSH2 0x970 SWAP1 PUSH2 0x2588 JUMP JUMPDEST PUSH1 0x40 MLOAD DUP1 SWAP2 SUB SWAP1 REVERT JUMPDEST DUP1 PUSH1 0x0 ADD MLOAD ISZERO PUSH2 0x9BE JUMPI PUSH1 0x40 MLOAD PUSH32 0x8C379A000000000000000000000000000000000000000000000000000000000 DUP2 MSTORE PUSH1 0x4 ADD PUSH2 0x9B5 SWAP1 PUSH2 0x25F4 JUMP JUMPDEST PUSH1 0x40 MLOAD DUP1 SWAP2 SUB SWAP1 REVERT JUMPDEST PUSH1 0x40 MLOAD DUP1 PUSH1 0x40 ADD PUSH1 0x40 MSTORE DUP1 PUSH1 0x9 DUP2 MSTORE PUSH1 0x20 ADD PUSH32 0x6920617070726F76650000000000000000000000000000000000000000000000 DUP2 MSTORE POP DUP1 MLOAD SWAP1 PUSH1 0x20 ADD KECCAK256 DUP3 DUP1 MLOAD SWAP1 PUSH1 0x20 ADD KECCAK256 SUB PUSH2 0xC23 JUMPI PUSH1 0x1 PUSH1 0xA PUSH1 0x0 CALLER PUSH20 0xFFFFFFFFFFFFFFFFFFFFFFFFFFFFFFFFFFFFFFFF AND PUSH20 0xFFFFFFFFFFFFFFFFFFFFFFFFFFFFFFFFFFFFFFFF AND DUP2 MSTORE PUSH1 0x20 ADD SWAP1 DUP2 MSTORE PUSH1 0x20 ADD PUSH1 0x0 KECCAK256 PUSH1 0x0 ADD PUSH1 0x0 PUSH2 0x100 EXP DUP2 SLOAD DUP2 PUSH1 0xFF MUL NOT AND SWAP1 DUP4 ISZERO ISZERO MUL OR SWAP1 SSTORE POP PUSH1 0x1 PUSH1 0xA PUSH1 0x0 CALLER PUSH20 0xFFFFFFFFFFFFFFFFFFFFFFFFFFFFFFFFFFFFFFFF AND PUSH20 0xFFFFFFFFFFFFFFFFFFFFFFFFFFFFFFFFFFFFFFFF AND DUP2 MSTORE PUSH1 0x20 ADD SWAP1 DUP2 MSTORE PUSH1 0x20 ADD PUSH1 0x0 KECCAK256 PUSH1 0x0 ADD PUSH1 0x15 PUSH2 0x100 EXP DUP2 SLOAD DUP2 PUSH1 0xFF MUL NOT AND SWAP1 DUP4 ISZERO ISZERO MUL OR SWAP1 SSTORE POP PUSH1 0x1 PUSH1 0x6 PUSH1 0x0 DUP3 DUP3 SLOAD PUSH2 0xAD1 SWAP2 SWAP1 PUSH2 0x2643 JUMP JUMPDEST SWAP3 POP POP DUP2 SWAP1 SSTORE POP PUSH1 0x1 PUSH1 0xB PUSH1 0x0 ADD PUSH1 0x0 DUP3 DUP3 SLOAD PUSH2 0xAEE SWAP2 SWAP1 PUSH2 0x2643 JUMP JUMPDEST SWAP3 POP POP DUP2 SWAP1 SSTORE POP PUSH1 0x8 PUSH1 0xA PUSH1 0x0 CALLER PUSH20 0xFFFFFFFFFFFFFFFFFFFFFFFFFFFFFFFFFFFFFFFF AND PUSH20 0xFFFFFFFFFFFFFFFFFFFFFFFFFFFFFFFFFFFFFFFF AND DUP2 MSTORE PUSH1 0x20 ADD SWAP1 DUP2 MSTORE PUSH1 0x20 ADD PUSH1 0x0 KECCAK256 SWAP1 DUP1 PUSH1 0x1 DUP2 SLOAD ADD DUP1 DUP3 SSTORE DUP1 SWAP2 POP POP PUSH1 0x1 SWAP1 SUB SWAP1 PUSH1 0x0 MSTORE PUSH1 0x20 PUSH1 0x0 KECCAK256 ADD PUSH1 0x0 SWAP1 SWAP2 SWAP1 SWAP2 SWAP1 SWAP2 POP PUSH1 0x0 DUP3 ADD PUSH1 0x0 SWAP1 SLOAD SWAP1 PUSH2 0x100 EXP SWAP1 DIV PUSH1 0xFF AND DUP2 PUSH1 0x0 ADD PUSH1 0x0 PUSH2 0x100 EXP DUP2 SLOAD DUP2 PUSH1 0xFF MUL NOT AND SWAP1 DUP4 ISZERO ISZERO MUL OR SWAP1 SSTORE POP PUSH1 0x0 DUP3 ADD PUSH1 0x1 SWAP1 SLOAD SWAP1 PUSH2 0x100 EXP SWAP1 DIV PUSH20 0xFFFFFFFFFFFFFFFFFFFFFFFFFFFFFFFFFFFFFFFF AND DUP2 PUSH1 0x0 ADD PUSH1 0x1 PUSH2 0x100 EXP DUP2 SLOAD DUP2 PUSH20 0xFFFFFFFFFFFFFFFFFFFFFFFFFFFFFFFFFFFFFFFF MUL NOT AND SWAP1 DUP4 PUSH20 0xFFFFFFFFFFFFFFFFFFFFFFFFFFFFFFFFFFFFFFFF AND MUL OR SWAP1 SSTORE POP PUSH1 0x0 DUP3 ADD PUSH1 0x15 SWAP1 SLOAD SWAP1 PUSH2 0x100 EXP SWAP1 DIV PUSH1 0xFF AND DUP2 PUSH1 0x0 ADD PUSH1 0x15 PUSH2 0x100 EXP DUP2 SLOAD DUP2 PUSH1 0xFF MUL NOT AND SWAP1 DUP4 ISZERO ISZERO MUL OR SWAP1 SSTORE POP POP POP PUSH2 0xE10 JUMP JUMPDEST PUSH1 0x40 MLOAD DUP1 PUSH1 0x40 ADD PUSH1 0x40 MSTORE DUP1 PUSH1 0xC DUP2 MSTORE PUSH1 0x20 ADD PUSH32 0x6920646973617070726F76650000000000000000000000000000000000000000 DUP2 MSTORE POP DUP1 MLOAD SWAP1 PUSH1 0x20 ADD KECCAK256 DUP3 DUP1 MLOAD SWAP1 PUSH1 0x20 ADD KECCAK256 SUB PUSH2 0xE0F JUMPI PUSH1 0x1 PUSH1 0xA PUSH1 0x0 CALLER PUSH20 0xFFFFFFFFFFFFFFFFFFFFFFFFFFFFFFFFFFFFFFFF AND PUSH20 0xFFFFFFFFFFFFFFFFFFFFFFFFFFFFFFFFFFFFFFFF AND DUP2 MSTORE PUSH1 0x20 ADD SWAP1 DUP2 MSTORE PUSH1 0x20 ADD PUSH1 0x0 KECCAK256 PUSH1 0x0 ADD PUSH1 0x0 PUSH2 0x100 EXP DUP2 SLOAD DUP2 PUSH1 0xFF MUL NOT AND SWAP1 DUP4 ISZERO ISZERO MUL OR SWAP1 SSTORE POP PUSH1 0x1 PUSH1 0xB PUSH1 0x0 ADD PUSH1 0x0 DUP3 DUP3 SLOAD PUSH2 0xCDE SWAP2 SWAP1 PUSH2 0x2643 JUMP JUMPDEST SWAP3 POP POP DUP2 SWAP1 SSTORE POP PUSH1 0x8 PUSH1 0xA PUSH1 0x0 CALLER PUSH20 0xFFFFFFFFFFFFFFFFFFFFFFFFFFFFFFFFFFFFFFFF AND PUSH20 0xFFFFFFFFFFFFFFFFFFFFFFFFFFFFFFFFFFFFFFFF AND DUP2 MSTORE PUSH1 0x20 ADD SWAP1 DUP2 MSTORE PUSH1 0x20 ADD PUSH1 0x0 KECCAK256 SWAP1 DUP1 PUSH1 0x1 DUP2 SLOAD ADD DUP1 DUP3 SSTORE DUP1 SWAP2 POP POP PUSH1 0x1 SWAP1 SUB SWAP1 PUSH1 0x0 MSTORE PUSH1 0x20 PUSH1 0x0 KECCAK256 ADD PUSH1 0x0 SWAP1 SWAP2 SWAP1 SWAP2 SWAP1 SWAP2 POP PUSH1 0x0 DUP3 ADD PUSH1 0x0 SWAP1 SLOAD SWAP1 PUSH2 0x100 EXP SWAP1 DIV PUSH1 0xFF AND DUP2 PUSH1 0x0 ADD PUSH1 0x0 PUSH2 0x100 EXP DUP2 SLOAD DUP2 PUSH1 0xFF MUL NOT AND SWAP1 DUP4 ISZERO ISZERO MUL OR SWAP1 SSTORE POP PUSH1 0x0 DUP3 ADD PUSH1 0x1 SWAP1 SLOAD SWAP1 PUSH2 0x100 EXP SWAP1 DIV PUSH20 0xFFFFFFFFFFFFFFFFFFFFFFFFFFFFFFFFFFFFFFFF AND DUP2 PUSH1 0x0 ADD PUSH1 0x1 PUSH2 0x100 EXP DUP2 SLOAD DUP2 PUSH20 0xFFFFFFFFFFFFFFFFFFFFFFFFFFFFFFFFFFFFFFFF MUL NOT AND SWAP1 DUP4 PUSH20 0xFFFFFFFFFFFFFFFFFFFFFFFFFFFFFFFFFFFFFFFF AND MUL OR SWAP1 SSTORE POP PUSH1 0x0 DUP3 ADD PUSH1 0x15 SWAP1 SLOAD SWAP1 PUSH2 0x100 EXP SWAP1 DIV PUSH1 0xFF AND DUP2 PUSH1 0x0 ADD PUSH1 0x15 PUSH2 0x100 EXP DUP2 SLOAD DUP2 PUSH1 0xFF MUL NOT AND SWAP1 DUP4 ISZERO ISZERO MUL OR SWAP1 SSTORE POP POP POP JUMPDEST JUMPDEST POP POP JUMP JUMPDEST PUSH1 0xD DUP1 PUSH1 0x0 ADD DUP1 SLOAD PUSH2 0xE25 SWAP1 PUSH2 0x249F JUMP JUMPDEST DUP1 PUSH1 0x1F ADD PUSH1 0x20 DUP1 SWAP2 DIV MUL PUSH1 0x20 ADD PUSH1 0x40 MLOAD SWAP1 DUP2 ADD PUSH1 0x40 MSTORE DUP1 SWAP3 SWAP2 SWAP1 DUP2 DUP2 MSTORE PUSH1 0x20 ADD DUP3 DUP1 SLOAD PUSH2 0xE51 SWAP1 PUSH2 0x249F JUMP JUMPDEST DUP1 ISZERO PUSH2 0xE9E JUMPI DUP1 PUSH1 0x1F LT PUSH2 0xE73 JUMPI PUSH2 0x100 DUP1 DUP4 SLOAD DIV MUL DUP4 MSTORE SWAP2 PUSH1 0x20 ADD SWAP2 PUSH2 0xE9E JUMP JUMPDEST DUP3 ADD SWAP2 SWAP1 PUSH1 0x0 MSTORE PUSH1 0x20 PUSH1 0x0 KECCAK256 SWAP1 JUMPDEST DUP2 SLOAD DUP2 MSTORE SWAP1 PUSH1 0x1 ADD SWAP1 PUSH1 0x20 ADD DUP1 DUP4 GT PUSH2 0xE81 JUMPI DUP3 SWAP1 SUB PUSH1 0x1F AND DUP3 ADD SWAP2 JUMPDEST POP POP POP POP POP SWAP1 DUP1 PUSH1 0x1 ADD PUSH1 0x40 MLOAD DUP1 PUSH1 0x40 ADD PUSH1 0x40 MSTORE SWAP1 DUP2 PUSH1 0x0 DUP3 ADD SLOAD DUP2 MSTORE PUSH1 0x20 ADD PUSH1 0x1 DUP3 ADD DUP1 SLOAD PUSH2 0xECD SWAP1 PUSH2 0x249F JUMP JUMPDEST DUP1 PUSH1 0x1F ADD PUSH1 0x20 DUP1 SWAP2 DIV MUL PUSH1 0x20 ADD PUSH1 0x40 MLOAD SWAP1 DUP2 ADD PUSH1 0x40 MSTORE DUP1 SWAP3 SWAP2 SWAP1 DUP2 DUP2 MSTORE PUSH1 0x20 ADD DUP3 DUP1 SLOAD PUSH2 0xEF9 SWAP1 PUSH2 0x249F JUMP JUMPDEST DUP1 ISZERO PUSH2 0xF46 JUMPI DUP1 PUSH1 0x1F LT PUSH2 0xF1B JUMPI PUSH2 0x100 DUP1 DUP4 SLOAD DIV MUL DUP4 MSTORE SWAP2 PUSH1 0x20 ADD SWAP2 PUSH2 0xF46 JUMP JUMPDEST DUP3 ADD SWAP2 SWAP1 PUSH1 0x0 MSTORE PUSH1 0x20 PUSH1 0x0 KECCAK256 SWAP1 JUMPDEST DUP2 SLOAD DUP2 MSTORE SWAP1 PUSH1 0x1 ADD SWAP1 PUSH1 0x20 ADD DUP1 DUP4 GT PUSH2 0xF29 JUMPI DUP3 SWAP1 SUB PUSH1 0x1F AND DUP3 ADD SWAP2 JUMPDEST POP POP POP POP POP DUP2 MSTORE POP POP SWAP1 POP DUP3 JUMP JUMPDEST PUSH1 0x0 DUP1 PUSH1 0x0 PUSH1 0xA PUSH1 0x0 DUP6 PUSH20 0xFFFFFFFFFFFFFFFFFFFFFFFFFFFFFFFFFFFFFFFF AND PUSH20 0xFFFFFFFFFFFFFFFFFFFFFFFFFFFFFFFFFFFFFFFF AND DUP2 MSTORE PUSH1 0x20 ADD SWAP1 DUP2 MSTORE PUSH1 0x20 ADD PUSH1 0x0 KECCAK256 PUSH1 0x0 ADD PUSH1 0x15 SWAP1 SLOAD SWAP1 PUSH2 0x100 EXP SWAP1 DIV PUSH1 0xFF AND PUSH1 0xA PUSH1 0x0 DUP7 PUSH20 0xFFFFFFFFFFFFFFFFFFFFFFFFFFFFFFFFFFFFFFFF AND PUSH20 0xFFFFFFFFFFFFFFFFFFFFFFFFFFFFFFFFFFFFFFFF AND DUP2 MSTORE PUSH1 0x20 ADD SWAP1 DUP2 MSTORE PUSH1 0x20 ADD PUSH1 0x0 KECCAK256 PUSH1 0x0 ADD PUSH1 0x0 SWAP1 SLOAD SWAP1 PUSH2 0x100 EXP SWAP1 DIV PUSH1 0xFF AND PUSH1 0xA PUSH1 0x0 DUP8 PUSH20 0xFFFFFFFFFFFFFFFFFFFFFFFFFFFFFFFFFFFFFFFF AND PUSH20 0xFFFFFFFFFFFFFFFFFFFFFFFFFFFFFFFFFFFFFFFF AND DUP2 MSTORE PUSH1 0x20 ADD SWAP1 DUP2 MSTORE PUSH1 0x20 ADD PUSH1 0x0 KECCAK256 PUSH1 0x0 ADD PUSH1 0x1 SWAP1 SLOAD SWAP1 PUSH2 0x100 EXP SWAP1 DIV PUSH20 0xFFFFFFFFFFFFFFFFFFFFFFFFFFFFFFFFFFFFFFFF AND SWAP3 POP SWAP3 POP SWAP3 POP SWAP2 SWAP4 SWAP1 SWAP3 POP JUMP JUMPDEST PUSH1 0x3 PUSH1 0x0 SWAP1 SLOAD SWAP1 PUSH2 0x100 EXP SWAP1 DIV PUSH20 0xFFFFFFFFFFFFFFFFFFFFFFFFFFFFFFFFFFFFFFFF AND DUP2 JUMP JUMPDEST PUSH1 0x5 SLOAD DUP2 JUMP JUMPDEST PUSH1 0x6 SLOAD DUP2 JUMP JUMPDEST PUSH1 0xB DUP1 PUSH1 0x0 ADD SLOAD SWAP1 DUP1 PUSH1 0x1 ADD DUP1 SLOAD PUSH2 0x10B2 SWAP1 PUSH2 0x249F JUMP JUMPDEST DUP1 PUSH1 0x1F ADD PUSH1 0x20 DUP1 SWAP2 DIV MUL PUSH1 0x20 ADD PUSH1 0x40 MLOAD SWAP1 DUP2 ADD PUSH1 0x40 MSTORE DUP1 SWAP3 SWAP2 SWAP1 DUP2 DUP2 MSTORE PUSH1 0x20 ADD DUP3 DUP1 SLOAD PUSH2 0x10DE SWAP1 PUSH2 0x249F JUMP JUMPDEST DUP1 ISZERO PUSH2 0x112B JUMPI DUP1 PUSH1 0x1F LT PUSH2 0x1100 JUMPI PUSH2 0x100 DUP1 DUP4 SLOAD DIV MUL DUP4 MSTORE SWAP2 PUSH1 0x20 ADD SWAP2 PUSH2 0x112B JUMP JUMPDEST DUP3 ADD SWAP2 SWAP1 PUSH1 0x0 MSTORE PUSH1 0x20 PUSH1 0x0 KECCAK256 SWAP1 JUMPDEST DUP2 SLOAD DUP2 MSTORE SWAP1 PUSH1 0x1 ADD SWAP1 PUSH1 0x20 ADD DUP1 DUP4 GT PUSH2 0x110E JUMPI DUP3 SWAP1 SUB PUSH1 0x1F AND DUP3 ADD SWAP2 JUMPDEST POP POP POP POP POP SWAP1 POP DUP3 JUMP JUMPDEST PUSH2 0x113D PUSH2 0x1AF8 JUMP JUMPDEST PUSH1 0x1 SLOAD TIMESTAMP LT ISZERO PUSH2 0x1182 JUMPI PUSH1 0x40 MLOAD PUSH32 0x8C379A000000000000000000000000000000000000000000000000000000000 DUP2 MSTORE PUSH1 0x4 ADD PUSH2 0x1179 SWAP1 PUSH2 0x26E5 JUMP JUMPDEST PUSH1 0x40 MLOAD DUP1 SWAP2 SUB SWAP1 REVERT JUMPDEST PUSH1 0xD PUSH1 0x40 MLOAD DUP1 PUSH1 0x60 ADD PUSH1 0x40 MSTORE SWAP1 DUP2 PUSH1 0x0 DUP3 ADD DUP1 SLOAD PUSH2 0x119F SWAP1 PUSH2 0x249F JUMP JUMPDEST DUP1 PUSH1 0x1F ADD PUSH1 0x20 DUP1 SWAP2 DIV MUL PUSH1 0x20 ADD PUSH1 0x40 MLOAD SWAP1 DUP2 ADD PUSH1 0x40 MSTORE DUP1 SWAP3 SWAP2 SWAP1 DUP2 DUP2 MSTORE PUSH1 0x20 ADD DUP3 DUP1 SLOAD PUSH2 0x11CB SWAP1 PUSH2 0x249F JUMP JUMPDEST DUP1 ISZERO PUSH2 0x1218 JUMPI DUP1 PUSH1 0x1F LT PUSH2 0x11ED JUMPI PUSH2 0x100 DUP1 DUP4 SLOAD DIV MUL DUP4 MSTORE SWAP2 PUSH1 0x20 ADD SWAP2 PUSH2 0x1218 JUMP JUMPDEST DUP3 ADD SWAP2 SWAP1 PUSH1 0x0 MSTORE PUSH1 0x20 PUSH1 0x0 KECCAK256 SWAP1 JUMPDEST DUP2 SLOAD DUP2 MSTORE SWAP1 PUSH1 0x1 ADD SWAP1 PUSH1 0x20 ADD DUP1 DUP4 GT PUSH2 0x11FB JUMPI DUP3 SWAP1 SUB PUSH1 0x1F AND DUP3 ADD SWAP2 JUMPDEST POP POP POP POP POP DUP2 MSTORE PUSH1 0x20 ADD PUSH1 0x1 DUP3 ADD PUSH1 0x40 MLOAD DUP1 PUSH1 0x40 ADD PUSH1 0x40 MSTORE SWAP1 DUP2 PUSH1 0x0 DUP3 ADD SLOAD DUP2 MSTORE PUSH1 0x20 ADD PUSH1 0x1 DUP3 ADD DUP1 SLOAD PUSH2 0x124B SWAP1 PUSH2 0x249F JUMP JUMPDEST DUP1 PUSH1 0x1F ADD PUSH1 0x20 DUP1 SWAP2 DIV MUL PUSH1 0x20 ADD PUSH1 0x40 MLOAD SWAP1 DUP2 ADD PUSH1 0x40 MSTORE DUP1 SWAP3 SWAP2 SWAP1 DUP2 DUP2 MSTORE PUSH1 0x20 ADD DUP3 DUP1 SLOAD PUSH2 0x1277 SWAP1 PUSH2 0x249F JUMP JUMPDEST DUP1 ISZERO PUSH2 0x12C4 JUMPI DUP1 PUSH1 0x1F LT PUSH2 0x1299 JUMPI PUSH2 0x100 DUP1 DUP4 SLOAD DIV MUL DUP4 MSTORE SWAP2 PUSH1 0x20 ADD SWAP2 PUSH2 0x12C4 JUMP JUMPDEST DUP3 ADD SWAP2 SWAP1 PUSH1 0x0 MSTORE PUSH1 0x20 PUSH1 0x0 KECCAK256 SWAP1 JUMPDEST DUP2 SLOAD DUP2 MSTORE SWAP1 PUSH1 0x1 ADD SWAP1 PUSH1 0x20 ADD DUP1 DUP4 GT PUSH2 0x12A7 JUMPI DUP3 SWAP1 SUB PUSH1 0x1F AND DUP3 ADD SWAP2 JUMPDEST POP POP POP POP POP DUP2 MSTORE POP POP DUP2 MSTORE PUSH1 0x20 ADD PUSH1 0x3 DUP3 ADD DUP1 SLOAD DUP1 PUSH1 0x20 MUL PUSH1 0x20 ADD PUSH1 0x40 MLOAD SWAP1 DUP2 ADD PUSH1 0x40 MSTORE DUP1 SWAP3 SWAP2 SWAP1 DUP2 DUP2 MSTORE PUSH1 0x20 ADD PUSH1 0x0 SWAP1 JUMPDEST DUP3 DUP3 LT ISZERO PUSH2 0x13B0 JUMPI DUP4 DUP3 SWAP1 PUSH1 0x0 MSTORE PUSH1 0x20 PUSH1 0x0 KECCAK256 ADD PUSH1 0x40 MLOAD DUP1 PUSH1 0x60 ADD PUSH1 0x40 MSTORE SWAP1 DUP2 PUSH1 0x0 DUP3 ADD PUSH1 0x0 SWAP1 SLOAD SWAP1 PUSH2 0x100 EXP SWAP1 DIV PUSH1 0xFF AND ISZERO ISZERO ISZERO ISZERO DUP2 MSTORE PUSH1 0x20 ADD PUSH1 0x0 DUP3 ADD PUSH1 0x1 SWAP1 SLOAD SWAP1 PUSH2 0x100 EXP SWAP1 DIV PUSH20 0xFFFFFFFFFFFFFFFFFFFFFFFFFFFFFFFFFFFFFFFF AND PUSH20 0xFFFFFFFFFFFFFFFFFFFFFFFFFFFFFFFFFFFFFFFF AND PUSH20 0xFFFFFFFFFFFFFFFFFFFFFFFFFFFFFFFFFFFFFFFF AND DUP2 MSTORE PUSH1 0x20 ADD PUSH1 0x0 DUP3 ADD PUSH1 0x15 SWAP1 SLOAD SWAP1 PUSH2 0x100 EXP SWAP1 DIV PUSH1 0xFF AND ISZERO ISZERO ISZERO ISZERO DUP2 MSTORE POP POP DUP2 MSTORE PUSH1 0x20 ADD SWAP1 PUSH1 0x1 ADD SWAP1 PUSH2 0x12F6 JUMP JUMPDEST POP POP POP POP DUP2 MSTORE POP POP SWAP1 POP SWAP1 JUMP JUMPDEST PUSH1 0x1 SLOAD TIMESTAMP LT ISZERO PUSH2 0x1402 JUMPI PUSH1 0x40 MLOAD PUSH32 0x8C379A000000000000000000000000000000000000000000000000000000000 DUP2 MSTORE PUSH1 0x4 ADD PUSH2 0x13F9 SWAP1 PUSH2 0x26E5 JUMP JUMPDEST PUSH1 0x40 MLOAD DUP1 SWAP2 SUB SWAP1 REVERT JUMPDEST PUSH1 0x1 PUSH1 0x7 SLOAD EQ PUSH2 0x1447 JUMPI PUSH1 0x40 MLOAD PUSH32 0x8C379A000000000000000000000000000000000000000000000000000000000 DUP2 MSTORE PUSH1 0x4 ADD PUSH2 0x143E SWAP1 PUSH2 0x2777 JUMP JUMPDEST PUSH1 0x40 MLOAD DUP1 SWAP2 SUB SWAP1 REVERT JUMPDEST PUSH1 0x64 PUSH1 0x9 DUP1 SLOAD SWAP1 POP PUSH1 0x6 SLOAD PUSH2 0x145C SWAP2 SWAP1 PUSH2 0x27C6 JUMP JUMPDEST PUSH2 0x1466 SWAP2 SWAP1 PUSH2 0x27F7 JUMP JUMPDEST PUSH1 0x5 DUP2 SWAP1 SSTORE POP PUSH1 0x4 SLOAD PUSH1 0x5 SLOAD LT PUSH2 0x14BD JUMPI PUSH1 0x40 MLOAD DUP1 PUSH1 0x40 ADD PUSH1 0x40 MSTORE DUP1 PUSH1 0x8 DUP2 MSTORE PUSH1 0x20 ADD PUSH32 0x4163636570746564000000000000000000000000000000000000000000000000 DUP2 MSTORE POP PUSH1 0x2 SWAP1 DUP2 PUSH2 0x14BB SWAP2 SWAP1 PUSH2 0x29FD JUMP JUMPDEST POP JUMPDEST PUSH1 0x0 JUMPDEST PUSH1 0x9 DUP1 SLOAD SWAP1 POP DUP2 PUSH1 0xFF AND LT ISZERO PUSH2 0x16EA JUMPI PUSH1 0x0 ISZERO ISZERO PUSH1 0xA PUSH1 0x0 PUSH1 0x9 DUP5 PUSH1 0xFF AND DUP2 SLOAD DUP2 LT PUSH2 0x14EF JUMPI PUSH2 0x14EE PUSH2 0x2ACF JUMP JUMPDEST JUMPDEST SWAP1 PUSH1 0x0 MSTORE PUSH1 0x20 PUSH1 0x0 KECCAK256 ADD PUSH1 0x0 SWAP1 SLOAD SWAP1 PUSH2 0x100 EXP SWAP1 DIV PUSH20 0xFFFFFFFFFFFFFFFFFFFFFFFFFFFFFFFFFFFFFFFF AND PUSH20 0xFFFFFFFFFFFFFFFFFFFFFFFFFFFFFFFFFFFFFFFF AND PUSH20 0xFFFFFFFFFFFFFFFFFFFFFFFFFFFFFFFFFFFFFFFF AND DUP2 MSTORE PUSH1 0x20 ADD SWAP1 DUP2 MSTORE PUSH1 0x20 ADD PUSH1 0x0 KECCAK256 PUSH1 0x0 ADD PUSH1 0x0 SWAP1 SLOAD SWAP1 PUSH2 0x100 EXP SWAP1 DIV PUSH1 0xFF AND ISZERO ISZERO SUB PUSH2 0x16D7 JUMPI PUSH1 0x8 PUSH1 0xA PUSH1 0x0 PUSH1 0x9 DUP5 PUSH1 0xFF AND DUP2 SLOAD DUP2 LT PUSH2 0x1589 JUMPI PUSH2 0x1588 PUSH2 0x2ACF JUMP JUMPDEST JUMPDEST SWAP1 PUSH1 0x0 MSTORE PUSH1 0x20 PUSH1 0x0 KECCAK256 ADD PUSH1 0x0 SWAP1 SLOAD SWAP1 PUSH2 0x100 EXP SWAP1 DIV PUSH20 0xFFFFFFFFFFFFFFFFFFFFFFFFFFFFFFFFFFFFFFFF AND PUSH20 0xFFFFFFFFFFFFFFFFFFFFFFFFFFFFFFFFFFFFFFFF AND PUSH20 0xFFFFFFFFFFFFFFFFFFFFFFFFFFFFFFFFFFFFFFFF AND DUP2 MSTORE PUSH1 0x20 ADD SWAP1 DUP2 MSTORE PUSH1 0x20 ADD PUSH1 0x0 KECCAK256 SWAP1 DUP1 PUSH1 0x1 DUP2 SLOAD ADD DUP1 DUP3 SSTORE DUP1 SWAP2 POP POP PUSH1 0x1 SWAP1 SUB SWAP1 PUSH1 0x0 MSTORE PUSH1 0x20 PUSH1 0x0 KECCAK256 ADD PUSH1 0x0 SWAP1 SWAP2 SWAP1 SWAP2 SWAP1 SWAP2 POP PUSH1 0x0 DUP3 ADD PUSH1 0x0 SWAP1 SLOAD SWAP1 PUSH2 0x100 EXP SWAP1 DIV PUSH1 0xFF AND DUP2 PUSH1 0x0 ADD PUSH1 0x0 PUSH2 0x100 EXP DUP2 SLOAD DUP2 PUSH1 0xFF MUL NOT AND SWAP1 DUP4 ISZERO ISZERO MUL OR SWAP1 SSTORE POP PUSH1 0x0 DUP3 ADD PUSH1 0x1 SWAP1 SLOAD SWAP1 PUSH2 0x100 EXP SWAP1 DIV PUSH20 0xFFFFFFFFFFFFFFFFFFFFFFFFFFFFFFFFFFFFFFFF AND DUP2 PUSH1 0x0 ADD PUSH1 0x1 PUSH2 0x100 EXP DUP2 SLOAD DUP2 PUSH20 0xFFFFFFFFFFFFFFFFFFFFFFFFFFFFFFFFFFFFFFFF MUL NOT AND SWAP1 DUP4 PUSH20 0xFFFFFFFFFFFFFFFFFFFFFFFFFFFFFFFFFFFFFFFF AND MUL OR SWAP1 SSTORE POP PUSH1 0x0 DUP3 ADD PUSH1 0x15 SWAP1 SLOAD SWAP1 PUSH2 0x100 EXP SWAP1 DIV PUSH1 0xFF AND DUP2 PUSH1 0x0 ADD PUSH1 0x15 PUSH2 0x100 EXP DUP2 SLOAD DUP2 PUSH1 0xFF MUL NOT AND SWAP1 DUP4 ISZERO ISZERO MUL OR SWAP1 SSTORE POP POP POP JUMPDEST DUP1 DUP1 PUSH2 0x16E2 SWAP1 PUSH2 0x2B0B JUMP JUMPDEST SWAP2 POP POP PUSH2 0x14C0 JUMP JUMPDEST POP PUSH1 0x0 PUSH1 0x40 MLOAD DUP1 PUSH1 0x60 ADD PUSH1 0x40 MSTORE DUP1 PUSH1 0x2 DUP1 SLOAD PUSH2 0x1705 SWAP1 PUSH2 0x249F JUMP JUMPDEST DUP1 PUSH1 0x1F ADD PUSH1 0x20 DUP1 SWAP2 DIV MUL PUSH1 0x20 ADD PUSH1 0x40 MLOAD SWAP1 DUP2 ADD PUSH1 0x40 MSTORE DUP1 SWAP3 SWAP2 SWAP1 DUP2 DUP2 MSTORE PUSH1 0x20 ADD DUP3 DUP1 SLOAD PUSH2 0x1731 SWAP1 PUSH2 0x249F JUMP JUMPDEST DUP1 ISZERO PUSH2 0x177E JUMPI DUP1 PUSH1 0x1F LT PUSH2 0x1753 JUMPI PUSH2 0x100 DUP1 DUP4 SLOAD DIV MUL DUP4 MSTORE SWAP2 PUSH1 0x20 ADD SWAP2 PUSH2 0x177E JUMP JUMPDEST DUP3 ADD SWAP2 SWAP1 PUSH1 0x0 MSTORE PUSH1 0x20 PUSH1 0x0 KECCAK256 SWAP1 JUMPDEST DUP2 SLOAD DUP2 MSTORE SWAP1 PUSH1 0x1 ADD SWAP1 PUSH1 0x20 ADD DUP1 DUP4 GT PUSH2 0x1761 JUMPI DUP3 SWAP1 SUB PUSH1 0x1F AND DUP3 ADD SWAP2 JUMPDEST POP POP POP POP POP DUP2 MSTORE PUSH1 0x20 ADD PUSH1 0xB PUSH1 0x40 MLOAD DUP1 PUSH1 0x40 ADD PUSH1 0x40 MSTORE SWAP1 DUP2 PUSH1 0x0 DUP3 ADD SLOAD DUP2 MSTORE PUSH1 0x20 ADD PUSH1 0x1 DUP3 ADD DUP1 SLOAD PUSH2 0x17AF SWAP1 PUSH2 0x249F JUMP JUMPDEST DUP1 PUSH1 0x1F ADD PUSH1 0x20 DUP1 SWAP2 DIV MUL PUSH1 0x20 ADD PUSH1 0x40 MLOAD SWAP1 DUP2 ADD PUSH1 0x40 MSTORE DUP1 SWAP3 SWAP2 SWAP1 DUP2 DUP2 MSTORE PUSH1 0x20 ADD DUP3 DUP1 SLOAD PUSH2 0x17DB SWAP1 PUSH2 0x249F JUMP JUMPDEST DUP1 ISZERO PUSH2 0x1828 JUMPI DUP1 PUSH1 0x1F LT PUSH2 0x17FD JUMPI PUSH2 0x100 DUP1 DUP4 SLOAD DIV MUL DUP4 MSTORE SWAP2 PUSH1 0x20 ADD SWAP2 PUSH2 0x1828 JUMP JUMPDEST DUP3 ADD SWAP2 SWAP1 PUSH1 0x0 MSTORE PUSH1 0x20 PUSH1 0x0 KECCAK256 SWAP1 JUMPDEST DUP2 SLOAD DUP2 MSTORE SWAP1 PUSH1 0x1 ADD SWAP1 PUSH1 0x20 ADD DUP1 DUP4 GT PUSH2 0x180B JUMPI DUP3 SWAP1 SUB PUSH1 0x1F AND DUP3 ADD SWAP2 JUMPDEST POP POP POP POP POP DUP2 MSTORE POP POP DUP2 MSTORE PUSH1 0x20 ADD PUSH1 0x8 DUP1 SLOAD DUP1 PUSH1 0x20 MUL PUSH1 0x20 ADD PUSH1 0x40 MLOAD SWAP1 DUP2 ADD PUSH1 0x40 MSTORE DUP1 SWAP3 SWAP2 SWAP1 DUP2 DUP2 MSTORE PUSH1 0x20 ADD PUSH1 0x0 SWAP1 JUMPDEST DUP3 DUP3 LT ISZERO PUSH2 0x1912 JUMPI DUP4 DUP3 SWAP1 PUSH1 0x0 MSTORE PUSH1 0x20 PUSH1 0x0 KECCAK256 ADD PUSH1 0x40 MLOAD DUP1 PUSH1 0x60 ADD PUSH1 0x40 MSTORE SWAP1 DUP2 PUSH1 0x0 DUP3 ADD PUSH1 0x0 SWAP1 SLOAD SWAP1 PUSH2 0x100 EXP SWAP1 DIV PUSH1 0xFF AND ISZERO ISZERO ISZERO ISZERO DUP2 MSTORE PUSH1 0x20 ADD PUSH1 0x0 DUP3 ADD PUSH1 0x1 SWAP1 SLOAD SWAP1 PUSH2 0x100 EXP SWAP1 DIV PUSH20 0xFFFFFFFFFFFFFFFFFFFFFFFFFFFFFFFFFFFFFFFF AND PUSH20 0xFFFFFFFFFFFFFFFFFFFFFFFFFFFFFFFFFFFFFFFF AND PUSH20 0xFFFFFFFFFFFFFFFFFFFFFFFFFFFFFFFFFFFFFFFF AND DUP2 MSTORE PUSH1 0x20 ADD PUSH1 0x0 DUP3 ADD PUSH1 0x15 SWAP1 SLOAD SWAP1 PUSH2 0x100 EXP SWAP1 DIV PUSH1 0xFF AND ISZERO ISZERO ISZERO ISZERO DUP2 MSTORE POP POP DUP2 MSTORE PUSH1 0x20 ADD SWAP1 PUSH1 0x1 ADD SWAP1 PUSH2 0x1858 JUMP JUMPDEST POP POP POP POP DUP2 MSTORE POP SWAP1 POP POP JUMP JUMPDEST PUSH1 0xA PUSH1 0x20 MSTORE DUP1 PUSH1 0x0 MSTORE PUSH1 0x40 PUSH1 0x0 KECCAK256 PUSH1 0x0 SWAP2 POP SWAP1 POP DUP1 PUSH1 0x0 ADD PUSH1 0x0 SWAP1 SLOAD SWAP1 PUSH2 0x100 EXP SWAP1 DIV PUSH1 0xFF AND SWAP1 DUP1 PUSH1 0x0 ADD PUSH1 0x1 SWAP1 SLOAD SWAP1 PUSH2 0x100 EXP SWAP1 DIV PUSH20 0xFFFFFFFFFFFFFFFFFFFFFFFFFFFFFFFFFFFFFFFF AND SWAP1 DUP1 PUSH1 0x0 ADD PUSH1 0x15 SWAP1 SLOAD SWAP1 PUSH2 0x100 EXP SWAP1 DIV PUSH1 0xFF AND SWAP1 POP DUP4 JUMP JUMPDEST PUSH1 0x60 PUSH1 0x0 DUP1 PUSH1 0x0 DUP1 PUSH1 0xB PUSH1 0x1 ADD PUSH1 0x1 SLOAD PUSH1 0x3 PUSH1 0x0 SWAP1 SLOAD SWAP1 PUSH2 0x100 EXP SWAP1 DIV PUSH20 0xFFFFFFFFFFFFFFFFFFFFFFFFFFFFFFFFFFFFFFFF AND PUSH1 0x4 SLOAD PUSH1 0x6 SLOAD DUP5 DUP1 SLOAD PUSH2 0x19C7 SWAP1 PUSH2 0x249F JUMP JUMPDEST DUP1 PUSH1 0x1F ADD PUSH1 0x20 DUP1 SWAP2 DIV MUL PUSH1 0x20 ADD PUSH1 0x40 MLOAD SWAP1 DUP2 ADD PUSH1 0x40 MSTORE DUP1 SWAP3 SWAP2 SWAP1 DUP2 DUP2 MSTORE PUSH1 0x20 ADD DUP3 DUP1 SLOAD PUSH2 0x19F3 SWAP1 PUSH2 0x249F JUMP JUMPDEST DUP1 ISZERO PUSH2 0x1A40 JUMPI DUP1 PUSH1 0x1F LT PUSH2 0x1A15 JUMPI PUSH2 0x100 DUP1 DUP4 SLOAD DIV MUL DUP4 MSTORE SWAP2 PUSH1 0x20 ADD SWAP2 PUSH2 0x1A40 JUMP JUMPDEST DUP3 ADD SWAP2 SWAP1 PUSH1 0x0 MSTORE PUSH1 0x20 PUSH1 0x0 KECCAK256 SWAP1 JUMPDEST DUP2 SLOAD DUP2 MSTORE SWAP1 PUSH1 0x1 ADD SWAP1 PUSH1 0x20 ADD DUP1 DUP4 GT PUSH2 0x1A23 JUMPI DUP3 SWAP1 SUB PUSH1 0x1F AND DUP3 ADD SWAP2 JUMPDEST POP POP POP POP POP SWAP5 POP SWAP5 POP SWAP5 POP SWAP5 POP SWAP5 POP SWAP5 POP SWAP1 SWAP2 SWAP3 SWAP4 SWAP5 JUMP JUMPDEST PUSH1 0x7 SLOAD DUP2 JUMP JUMPDEST PUSH1 0x4 SLOAD DUP2 JUMP JUMPDEST PUSH1 0x8 DUP2 DUP2 SLOAD DUP2 LT PUSH2 0x1A74 JUMPI PUSH1 0x0 DUP1 REVERT JUMPDEST SWAP1 PUSH1 0x0 MSTORE PUSH1 0x20 PUSH1 0x0 KECCAK256 ADD PUSH1 0x0 SWAP2 POP SWAP1 POP DUP1 PUSH1 0x0 ADD PUSH1 0x0 SWAP1 SLOAD SWAP1 PUSH2 0x100 EXP SWAP1 DIV PUSH1 0xFF AND SWAP1 DUP1 PUSH1 0x0 ADD PUSH1 0x1 SWAP1 SLOAD SWAP1 PUSH2 0x100 EXP SWAP1 DIV PUSH20 0xFFFFFFFFFFFFFFFFFFFFFFFFFFFFFFFFFFFFFFFF AND SWAP1 DUP1 PUSH1 0x0 ADD PUSH1 0x15 SWAP1 SLOAD SWAP1 PUSH2 0x100 EXP SWAP1 DIV PUSH1 0xFF AND SWAP1 POP DUP4 JUMP JUMPDEST PUSH1 0x0 DUP1 SLOAD SWAP1 PUSH2 0x100 EXP SWAP1 DIV PUSH20 0xFFFFFFFFFFFFFFFFFFFFFFFFFFFFFFFFFFFFFFFF AND DUP2 JUMP JUMPDEST PUSH1 0x40 MLOAD DUP1 PUSH1 0x60 ADD PUSH1 0x40 MSTORE DUP1 PUSH1 0x60 DUP2 MSTORE PUSH1 0x20 ADD PUSH2 0x1B12 PUSH2 0x1B1F JUMP JUMPDEST DUP2 MSTORE PUSH1 0x20 ADD PUSH1 0x60 DUP2 MSTORE POP SWAP1 JUMP JUMPDEST PUSH1 0x40 MLOAD DUP1 PUSH1 0x40 ADD PUSH1 0x40 MSTORE DUP1 PUSH1 0x0 DUP2 MSTORE PUSH1 0x20 ADD PUSH1 0x60 DUP2 MSTORE POP SWAP1 JUMP JUMPDEST PUSH1 0x0 PUSH1 0x40 MLOAD SWAP1 POP SWAP1 JUMP JUMPDEST PUSH1 0x0 DUP1 REVERT JUMPDEST PUSH1 0x0 DUP1 REVERT JUMPDEST PUSH1 0x0 DUP2 SWAP1 POP SWAP2 SWAP1 POP JUMP JUMPDEST PUSH2 0x1B60 DUP2 PUSH2 0x1B4D JUMP JUMPDEST DUP2 EQ PUSH2 0x1B6B JUMPI PUSH1 0x0 DUP1 REVERT JUMPDEST POP JUMP JUMPDEST PUSH1 0x0 DUP2 CALLDATALOAD SWAP1 POP PUSH2 0x1B7D DUP2 PUSH2 0x1B57 JUMP JUMPDEST SWAP3 SWAP2 POP POP JUMP JUMPDEST PUSH1 0x0 PUSH1 0x20 DUP3 DUP5 SUB SLT ISZERO PUSH2 0x1B99 JUMPI PUSH2 0x1B98 PUSH2 0x1B43 JUMP JUMPDEST JUMPDEST PUSH1 0x0 PUSH2 0x1BA7 DUP5 DUP3 DUP6 ADD PUSH2 0x1B6E JUMP JUMPDEST SWAP2 POP POP SWAP3 SWAP2 POP POP JUMP JUMPDEST PUSH1 0x0 PUSH20 0xFFFFFFFFFFFFFFFFFFFFFFFFFFFFFFFFFFFFFFFF DUP3 AND SWAP1 POP SWAP2 SWAP1 POP JUMP JUMPDEST PUSH1 0x0 PUSH2 0x1BDB DUP3 PUSH2 0x1BB0 JUMP JUMPDEST SWAP1 POP SWAP2 SWAP1 POP JUMP JUMPDEST PUSH2 0x1BEB DUP2 PUSH2 0x1BD0 JUMP JUMPDEST DUP3 MSTORE POP POP JUMP JUMPDEST PUSH1 0x0 PUSH1 0x20 DUP3 ADD SWAP1 POP PUSH2 0x1C06 PUSH1 0x0 DUP4 ADD DUP5 PUSH2 0x1BE2 JUMP JUMPDEST SWAP3 SWAP2 POP POP JUMP JUMPDEST PUSH2 0x1C15 DUP2 PUSH2 0x1BD0 JUMP JUMPDEST DUP2 EQ PUSH2 0x1C20 JUMPI PUSH1 0x0 DUP1 REVERT JUMPDEST POP JUMP JUMPDEST PUSH1 0x0 DUP2 CALLDATALOAD SWAP1 POP PUSH2 0x1C32 DUP2 PUSH2 0x1C0C JUMP JUMPDEST SWAP3 SWAP2 POP POP JUMP JUMPDEST PUSH1 0x0 PUSH1 0x20 DUP3 DUP5 SUB SLT ISZERO PUSH2 0x1C4E JUMPI PUSH2 0x1C4D PUSH2 0x1B43 JUMP JUMPDEST JUMPDEST PUSH1 0x0 PUSH2 0x1C5C DUP5 DUP3 DUP6 ADD PUSH2 0x1C23 JUMP JUMPDEST SWAP2 POP POP SWAP3 SWAP2 POP POP JUMP JUMPDEST PUSH1 0x0 DUP2 MLOAD SWAP1 POP SWAP2 SWAP1 POP JUMP JUMPDEST PUSH1 0x0 DUP3 DUP3 MSTORE PUSH1 0x20 DUP3 ADD SWAP1 POP SWAP3 SWAP2 POP POP JUMP JUMPDEST PUSH1 0x0 JUMPDEST DUP4 DUP2 LT ISZERO PUSH2 0x1C9F JUMPI DUP1 DUP3 ADD MLOAD DUP2 DUP5 ADD MSTORE PUSH1 0x20 DUP2 ADD SWAP1 POP PUSH2 0x1C84 JUMP JUMPDEST DUP4 DUP2 GT ISZERO PUSH2 0x1CAE JUMPI PUSH1 0x0 DUP5 DUP5 ADD MSTORE JUMPDEST POP POP POP POP JUMP JUMPDEST PUSH1 0x0 PUSH1 0x1F NOT PUSH1 0x1F DUP4 ADD AND SWAP1 POP SWAP2 SWAP1 POP JUMP JUMPDEST PUSH1 0x0 PUSH2 0x1CD0 DUP3 PUSH2 0x1C65 JUMP JUMPDEST PUSH2 0x1CDA DUP2 DUP6 PUSH2 0x1C70 JUMP JUMPDEST SWAP4 POP PUSH2 0x1CEA DUP2 DUP6 PUSH1 0x20 DUP7 ADD PUSH2 0x1C81 JUMP JUMPDEST PUSH2 0x1CF3 DUP2 PUSH2 0x1CB4 JUMP JUMPDEST DUP5 ADD SWAP2 POP POP SWAP3 SWAP2 POP POP JUMP JUMPDEST PUSH1 0x0 PUSH1 0x20 DUP3 ADD SWAP1 POP DUP2 DUP2 SUB PUSH1 0x0 DUP4 ADD MSTORE PUSH2 0x1D18 DUP2 DUP5 PUSH2 0x1CC5 JUMP JUMPDEST SWAP1 POP SWAP3 SWAP2 POP POP JUMP JUMPDEST PUSH1 0x0 DUP1 REVERT JUMPDEST PUSH1 0x0 DUP1 REVERT JUMPDEST PUSH32 0x4E487B7100000000000000000000000000000000000000000000000000000000 PUSH1 0x0 MSTORE PUSH1 0x41 PUSH1 0x4 MSTORE PUSH1 0x24 PUSH1 0x0 REVERT JUMPDEST PUSH2 0x1D62 DUP3 PUSH2 0x1CB4 JUMP JUMPDEST DUP2 ADD DUP2 DUP2 LT PUSH8 0xFFFFFFFFFFFFFFFF DUP3 GT OR ISZERO PUSH2 0x1D81 JUMPI PUSH2 0x1D80 PUSH2 0x1D2A JUMP JUMPDEST JUMPDEST DUP1 PUSH1 0x40 MSTORE POP POP POP JUMP JUMPDEST PUSH1 0x0 PUSH2 0x1D94 PUSH2 0x1B39 JUMP JUMPDEST SWAP1 POP PUSH2 0x1DA0 DUP3 DUP3 PUSH2 0x1D59 JUMP JUMPDEST SWAP2 SWAP1 POP JUMP JUMPDEST PUSH1 0x0 PUSH8 0xFFFFFFFFFFFFFFFF DUP3 GT ISZERO PUSH2 0x1DC0 JUMPI PUSH2 0x1DBF PUSH2 0x1D2A JUMP JUMPDEST JUMPDEST PUSH2 0x1DC9 DUP3 PUSH2 0x1CB4 JUMP JUMPDEST SWAP1 POP PUSH1 0x20 DUP2 ADD SWAP1 POP SWAP2 SWAP1 POP JUMP JUMPDEST DUP3 DUP2 DUP4 CALLDATACOPY PUSH1 0x0 DUP4 DUP4 ADD MSTORE POP POP POP JUMP JUMPDEST PUSH1 0x0 PUSH2 0x1DF8 PUSH2 0x1DF3 DUP5 PUSH2 0x1DA5 JUMP JUMPDEST PUSH2 0x1D8A JUMP JUMPDEST SWAP1 POP DUP3 DUP2 MSTORE PUSH1 0x20 DUP2 ADD DUP5 DUP5 DUP5 ADD GT ISZERO PUSH2 0x1E14 JUMPI PUSH2 0x1E13 PUSH2 0x1D25 JUMP JUMPDEST JUMPDEST PUSH2 0x1E1F DUP5 DUP3 DUP6 PUSH2 0x1DD6 JUMP JUMPDEST POP SWAP4 SWAP3 POP POP POP JUMP JUMPDEST PUSH1 0x0 DUP3 PUSH1 0x1F DUP4 ADD SLT PUSH2 0x1E3C JUMPI PUSH2 0x1E3B PUSH2 0x1D20 JUMP JUMPDEST JUMPDEST DUP2 CALLDATALOAD PUSH2 0x1E4C DUP5 DUP3 PUSH1 0x20 DUP7 ADD PUSH2 0x1DE5 JUMP JUMPDEST SWAP2 POP POP SWAP3 SWAP2 POP POP JUMP JUMPDEST PUSH1 0x0 PUSH1 0x20 DUP3 DUP5 SUB SLT ISZERO PUSH2 0x1E6B JUMPI PUSH2 0x1E6A PUSH2 0x1B43 JUMP JUMPDEST JUMPDEST PUSH1 0x0 DUP3 ADD CALLDATALOAD PUSH8 0xFFFFFFFFFFFFFFFF DUP2 GT ISZERO PUSH2 0x1E89 JUMPI PUSH2 0x1E88 PUSH2 0x1B48 JUMP JUMPDEST JUMPDEST PUSH2 0x1E95 DUP5 DUP3 DUP6 ADD PUSH2 0x1E27 JUMP JUMPDEST SWAP2 POP POP SWAP3 SWAP2 POP POP JUMP JUMPDEST PUSH2 0x1EA7 DUP2 PUSH2 0x1B4D JUMP JUMPDEST DUP3 MSTORE POP POP JUMP JUMPDEST PUSH1 0x0 DUP3 DUP3 MSTORE PUSH1 0x20 DUP3 ADD SWAP1 POP SWAP3 SWAP2 POP POP JUMP JUMPDEST PUSH1 0x0 PUSH2 0x1EC9 DUP3 PUSH2 0x1C65 JUMP JUMPDEST PUSH2 0x1ED3 DUP2 DUP6 PUSH2 0x1EAD JUMP JUMPDEST SWAP4 POP PUSH2 0x1EE3 DUP2 DUP6 PUSH1 0x20 DUP7 ADD PUSH2 0x1C81 JUMP JUMPDEST PUSH2 0x1EEC DUP2 PUSH2 0x1CB4 JUMP JUMPDEST DUP5 ADD SWAP2 POP POP SWAP3 SWAP2 POP POP JUMP JUMPDEST PUSH1 0x0 PUSH1 0x40 DUP4 ADD PUSH1 0x0 DUP4 ADD MLOAD PUSH2 0x1F0F PUSH1 0x0 DUP7 ADD DUP3 PUSH2 0x1E9E JUMP JUMPDEST POP PUSH1 0x20 DUP4 ADD MLOAD DUP5 DUP3 SUB PUSH1 0x20 DUP7 ADD MSTORE PUSH2 0x1F27 DUP3 DUP3 PUSH2 0x1EBE JUMP JUMPDEST SWAP2 POP POP DUP1 SWAP2 POP POP SWAP3 SWAP2 POP POP JUMP JUMPDEST PUSH1 0x0 PUSH1 0x40 DUP3 ADD SWAP1 POP DUP2 DUP2 SUB PUSH1 0x0 DUP4 ADD MSTORE PUSH2 0x1F4E DUP2 DUP6 PUSH2 0x1CC5 JUMP JUMPDEST SWAP1 POP DUP2 DUP2 SUB PUSH1 0x20 DUP4 ADD MSTORE PUSH2 0x1F62 DUP2 DUP5 PUSH2 0x1EF7 JUMP JUMPDEST SWAP1 POP SWAP4 SWAP3 POP POP POP JUMP JUMPDEST PUSH1 0x0 DUP2 ISZERO ISZERO SWAP1 POP SWAP2 SWAP1 POP JUMP JUMPDEST PUSH2 0x1F80 DUP2 PUSH2 0x1F6B JUMP JUMPDEST DUP3 MSTORE POP POP JUMP JUMPDEST PUSH1 0x0 PUSH1 0x60 DUP3 ADD SWAP1 POP PUSH2 0x1F9B PUSH1 0x0 DUP4 ADD DUP7 PUSH2 0x1F77 JUMP JUMPDEST PUSH2 0x1FA8 PUSH1 0x20 DUP4 ADD DUP6 PUSH2 0x1F77 JUMP JUMPDEST PUSH2 0x1FB5 PUSH1 0x40 DUP4 ADD DUP5 PUSH2 0x1BE2 JUMP JUMPDEST SWAP5 SWAP4 POP POP POP POP JUMP JUMPDEST PUSH2 0x1FC6 DUP2 PUSH2 0x1B4D JUMP JUMPDEST DUP3 MSTORE POP POP JUMP JUMPDEST PUSH1 0x0 PUSH1 0x20 DUP3 ADD SWAP1 POP PUSH2 0x1FE1 PUSH1 0x0 DUP4 ADD DUP5 PUSH2 0x1FBD JUMP JUMPDEST SWAP3 SWAP2 POP POP JUMP JUMPDEST PUSH1 0x0 PUSH1 0x40 DUP3 ADD SWAP1 POP PUSH2 0x1FFC PUSH1 0x0 DUP4 ADD DUP6 PUSH2 0x1FBD JUMP JUMPDEST DUP2 DUP2 SUB PUSH1 0x20 DUP4 ADD MSTORE PUSH2 0x200E DUP2 DUP5 PUSH2 0x1CC5 JUMP JUMPDEST SWAP1 POP SWAP4 SWAP3 POP POP POP JUMP JUMPDEST PUSH1 0x0 PUSH1 0x40 DUP4 ADD PUSH1 0x0 DUP4 ADD MLOAD PUSH2 0x202F PUSH1 0x0 DUP7 ADD DUP3 PUSH2 0x1E9E JUMP JUMPDEST POP PUSH1 0x20 DUP4 ADD MLOAD DUP5 DUP3 SUB PUSH1 0x20 DUP7 ADD MSTORE PUSH2 0x2047 DUP3 DUP3 PUSH2 0x1EBE JUMP JUMPDEST SWAP2 POP POP DUP1 SWAP2 POP POP SWAP3 SWAP2 POP POP JUMP JUMPDEST PUSH1 0x0 DUP2 MLOAD SWAP1 POP SWAP2 SWAP1 POP JUMP JUMPDEST PUSH1 0x0 DUP3 DUP3 MSTORE PUSH1 0x20 DUP3 ADD SWAP1 POP SWAP3 SWAP2 POP POP JUMP JUMPDEST PUSH1 0x0 DUP2 SWAP1 POP PUSH1 0x20 DUP3 ADD SWAP1 POP SWAP2 SWAP1 POP JUMP JUMPDEST PUSH2 0x2089 DUP2 PUSH2 0x1F6B JUMP JUMPDEST DUP3 MSTORE POP POP JUMP JUMPDEST PUSH2 0x2098 DUP2 PUSH2 0x1BD0 JUMP JUMPDEST DUP3 MSTORE POP POP JUMP JUMPDEST PUSH1 0x60 DUP3 ADD PUSH1 0x0 DUP3 ADD MLOAD PUSH2 0x20B4 PUSH1 0x0 DUP6 ADD DUP3 PUSH2 0x2080 JUMP JUMPDEST POP PUSH1 0x20 DUP3 ADD MLOAD PUSH2 0x20C7 PUSH1 0x20 DUP6 ADD DUP3 PUSH2 0x208F JUMP JUMPDEST POP PUSH1 0x40 DUP3 ADD MLOAD PUSH2 0x20DA PUSH1 0x40 DUP6 ADD DUP3 PUSH2 0x2080 JUMP JUMPDEST POP POP POP POP JUMP JUMPDEST PUSH1 0x0 PUSH2 0x20EC DUP4 DUP4 PUSH2 0x209E JUMP JUMPDEST PUSH1 0x60 DUP4 ADD SWAP1 POP SWAP3 SWAP2 POP POP JUMP JUMPDEST PUSH1 0x0 PUSH1 0x20 DUP3 ADD SWAP1 POP SWAP2 SWAP1 POP JUMP JUMPDEST PUSH1 0x0 PUSH2 0x2110 DUP3 PUSH2 0x2054 JUMP JUMPDEST PUSH2 0x211A DUP2 DUP6 PUSH2 0x205F JUMP JUMPDEST SWAP4 POP PUSH2 0x2125 DUP4 PUSH2 0x2070 JUMP JUMPDEST DUP1 PUSH1 0x0 JUMPDEST DUP4 DUP2 LT ISZERO PUSH2 0x2156 JUMPI DUP2 MLOAD PUSH2 0x213D DUP9 DUP3 PUSH2 0x20E0 JUMP JUMPDEST SWAP8 POP PUSH2 0x2148 DUP4 PUSH2 0x20F8 JUMP JUMPDEST SWAP3 POP POP PUSH1 0x1 DUP2 ADD SWAP1 POP PUSH2 0x2129 JUMP JUMPDEST POP DUP6 SWAP4 POP POP POP POP SWAP3 SWAP2 POP POP JUMP JUMPDEST PUSH1 0x0 PUSH1 0x60 DUP4 ADD PUSH1 0x0 DUP4 ADD MLOAD DUP5 DUP3 SUB PUSH1 0x0 DUP7 ADD MSTORE PUSH2 0x2180 DUP3 DUP3 PUSH2 0x1EBE JUMP JUMPDEST SWAP2 POP POP PUSH1 0x20 DUP4 ADD MLOAD DUP5 DUP3 SUB PUSH1 0x20 DUP7 ADD MSTORE PUSH2 0x219A DUP3 DUP3 PUSH2 0x2017 JUMP JUMPDEST SWAP2 POP POP PUSH1 0x40 DUP4 ADD MLOAD DUP5 DUP3 SUB PUSH1 0x40 DUP7 ADD MSTORE PUSH2 0x21B4 DUP3 DUP3 PUSH2 0x2105 JUMP JUMPDEST SWAP2 POP POP DUP1 SWAP2 POP POP SWAP3 SWAP2 POP POP JUMP JUMPDEST PUSH1 0x0 PUSH1 0x20 DUP3 ADD SWAP1 POP DUP2 DUP2 SUB PUSH1 0x0 DUP4 ADD MSTORE PUSH2 0x21DB DUP2 DUP5 PUSH2 0x2163 JUMP JUMPDEST SWAP1 POP SWAP3 SWAP2 POP POP JUMP JUMPDEST PUSH1 0x0 PUSH1 0x60 DUP3 ADD SWAP1 POP PUSH2 0x21F8 PUSH1 0x0 DUP4 ADD DUP7 PUSH2 0x1F77 JUMP JUMPDEST PUSH2 0x2205 PUSH1 0x20 DUP4 ADD DUP6 PUSH2 0x1BE2 JUMP JUMPDEST PUSH2 0x2212 PUSH1 0x40 DUP4 ADD DUP5 PUSH2 0x1F77 JUMP JUMPDEST SWAP5 SWAP4 POP POP POP POP JUMP JUMPDEST PUSH1 0x0 PUSH1 0xA0 DUP3 ADD SWAP1 POP DUP2 DUP2 SUB PUSH1 0x0 DUP4 ADD MSTORE PUSH2 0x2234 DUP2 DUP9 PUSH2 0x1CC5 JUMP JUMPDEST SWAP1 POP PUSH2 0x2243 PUSH1 0x20 DUP4 ADD DUP8 PUSH2 0x1FBD JUMP JUMPDEST PUSH2 0x2250 PUSH1 0x40 DUP4 ADD DUP7 PUSH2 0x1BE2 JUMP JUMPDEST PUSH2 0x225D PUSH1 0x60 DUP4 ADD DUP6 PUSH2 0x1FBD JUMP JUMPDEST PUSH2 0x226A PUSH1 0x80 DUP4 ADD DUP5 PUSH2 0x1FBD JUMP JUMPDEST SWAP7 SWAP6 POP POP POP POP POP POP JUMP JUMPDEST PUSH32 0x4F6E6C7920696E69746961746F722063616E2072656769737465722061207265 PUSH1 0x0 DUP3 ADD MSTORE PUSH32 0x63697069656E742E000000000000000000000000000000000000000000000000 PUSH1 0x20 DUP3 ADD MSTORE POP JUMP JUMPDEST PUSH1 0x0 PUSH2 0x22D0 PUSH1 0x28 DUP4 PUSH2 0x1C70 JUMP JUMPDEST SWAP2 POP PUSH2 0x22DB DUP3 PUSH2 0x2274 JUMP JUMPDEST PUSH1 0x40 DUP3 ADD SWAP1 POP SWAP2 SWAP1 POP JUMP JUMPDEST PUSH1 0x0 PUSH1 0x20 DUP3 ADD SWAP1 POP DUP2 DUP2 SUB PUSH1 0x0 DUP4 ADD MSTORE PUSH2 0x22FF DUP2 PUSH2 0x22C3 JUMP JUMPDEST SWAP1 POP SWAP2 SWAP1 POP JUMP JUMPDEST PUSH32 0x496E69746961746F722063616E277420766F7465210000000000000000000000 PUSH1 0x0 DUP3 ADD MSTORE POP JUMP JUMPDEST PUSH1 0x0 PUSH2 0x233C PUSH1 0x15 DUP4 PUSH2 0x1C70 JUMP JUMPDEST SWAP2 POP PUSH2 0x2347 DUP3 PUSH2 0x2306 JUMP JUMPDEST PUSH1 0x20 DUP3 ADD SWAP1 POP SWAP2 SWAP1 POP JUMP JUMPDEST PUSH1 0x0 PUSH1 0x20 DUP3 ADD SWAP1 POP DUP2 DUP2 SUB PUSH1 0x0 DUP4 ADD MSTORE PUSH2 0x236B DUP2 PUSH2 0x232F JUMP JUMPDEST SWAP1 POP SWAP2 SWAP1 POP JUMP JUMPDEST PUSH32 0x526563697069656E7420697320616C7265616479207265676973746572656400 PUSH1 0x0 DUP3 ADD MSTORE POP JUMP JUMPDEST PUSH1 0x0 PUSH2 0x23A8 PUSH1 0x1F DUP4 PUSH2 0x1C70 JUMP JUMPDEST SWAP2 POP PUSH2 0x23B3 DUP3 PUSH2 0x2372 JUMP JUMPDEST PUSH1 0x20 DUP3 ADD SWAP1 POP SWAP2 SWAP1 POP JUMP JUMPDEST PUSH1 0x0 PUSH1 0x20 DUP3 ADD SWAP1 POP DUP2 DUP2 SUB PUSH1 0x0 DUP4 ADD MSTORE PUSH2 0x23D7 DUP2 PUSH2 0x239B JUMP JUMPDEST SWAP1 POP SWAP2 SWAP1 POP JUMP JUMPDEST PUSH32 0x50726F706F73616C206861732072656163686564206974732065787069727920 PUSH1 0x0 DUP3 ADD MSTORE PUSH32 0x6461746500000000000000000000000000000000000000000000000000000000 PUSH1 0x20 DUP3 ADD MSTORE POP JUMP JUMPDEST PUSH1 0x0 PUSH2 0x243A PUSH1 0x24 DUP4 PUSH2 0x1C70 JUMP JUMPDEST SWAP2 POP PUSH2 0x2445 DUP3 PUSH2 0x23DE JUMP JUMPDEST PUSH1 0x40 DUP3 ADD SWAP1 POP SWAP2 SWAP1 POP JUMP JUMPDEST PUSH1 0x0 PUSH1 0x20 DUP3 ADD SWAP1 POP DUP2 DUP2 SUB PUSH1 0x0 DUP4 ADD MSTORE PUSH2 0x2469 DUP2 PUSH2 0x242D JUMP JUMPDEST SWAP1 POP SWAP2 SWAP1 POP JUMP JUMPDEST PUSH32 0x4E487B7100000000000000000000000000000000000000000000000000000000 PUSH1 0x0 MSTORE PUSH1 0x22 PUSH1 0x4 MSTORE PUSH1 0x24 PUSH1 0x0 REVERT JUMPDEST PUSH1 0x0 PUSH1 0x2 DUP3 DIV SWAP1 POP PUSH1 0x1 DUP3 AND DUP1 PUSH2 0x24B7 JUMPI PUSH1 0x7F DUP3 AND SWAP2 POP JUMPDEST PUSH1 0x20 DUP3 LT DUP2 SUB PUSH2 0x24CA JUMPI PUSH2 0x24C9 PUSH2 0x2470 JUMP JUMPDEST JUMPDEST POP SWAP2 SWAP1 POP JUMP JUMPDEST PUSH32 0x566F74696E672068617320657870697265640000000000000000000000000000 PUSH1 0x0 DUP3 ADD MSTORE POP JUMP JUMPDEST PUSH1 0x0 PUSH2 0x2506 PUSH1 0x12 DUP4 PUSH2 0x1C70 JUMP JUMPDEST SWAP2 POP PUSH2 0x2511 DUP3 PUSH2 0x24D0 JUMP JUMPDEST PUSH1 0x20 DUP3 ADD SWAP1 POP SWAP2 SWAP1 POP JUMP JUMPDEST PUSH1 0x0 PUSH1 0x20 DUP3 ADD SWAP1 POP DUP2 DUP2 SUB PUSH1 0x0 DUP4 ADD MSTORE PUSH2 0x2535 DUP2 PUSH2 0x24F9 JUMP JUMPDEST SWAP1 POP SWAP2 SWAP1 POP JUMP JUMPDEST PUSH32 0x596F7520617265206E6F74207265676973746572656420746F20766F74650000 PUSH1 0x0 DUP3 ADD MSTORE POP JUMP JUMPDEST PUSH1 0x0 PUSH2 0x2572 PUSH1 0x1E DUP4 PUSH2 0x1C70 JUMP JUMPDEST SWAP2 POP PUSH2 0x257D DUP3 PUSH2 0x253C JUMP JUMPDEST PUSH1 0x20 DUP3 ADD SWAP1 POP SWAP2 SWAP1 POP JUMP JUMPDEST PUSH1 0x0 PUSH1 0x20 DUP3 ADD SWAP1 POP DUP2 DUP2 SUB PUSH1 0x0 DUP4 ADD MSTORE PUSH2 0x25A1 DUP2 PUSH2 0x2565 JUMP JUMPDEST SWAP1 POP SWAP2 SWAP1 POP JUMP JUMPDEST PUSH32 0x596F7520616C72656164792073656E74206120726573706F6E73652E00000000 PUSH1 0x0 DUP3 ADD MSTORE POP JUMP JUMPDEST PUSH1 0x0 PUSH2 0x25DE PUSH1 0x1C DUP4 PUSH2 0x1C70 JUMP JUMPDEST SWAP2 POP PUSH2 0x25E9 DUP3 PUSH2 0x25A8 JUMP JUMPDEST PUSH1 0x20 DUP3 ADD SWAP1 POP SWAP2 SWAP1 POP JUMP JUMPDEST PUSH1 0x0 PUSH1 0x20 DUP3 ADD SWAP1 POP DUP2 DUP2 SUB PUSH1 0x0 DUP4 ADD MSTORE PUSH2 0x260D DUP2 PUSH2 0x25D1 JUMP JUMPDEST SWAP1 POP SWAP2 SWAP1 POP JUMP JUMPDEST PUSH32 0x4E487B7100000000000000000000000000000000000000000000000000000000 PUSH1 0x0 MSTORE PUSH1 0x11 PUSH1 0x4 MSTORE PUSH1 0x24 PUSH1 0x0 REVERT JUMPDEST PUSH1 0x0 PUSH2 0x264E DUP3 PUSH2 0x1B4D JUMP JUMPDEST SWAP2 POP PUSH2 0x2659 DUP4 PUSH2 0x1B4D JUMP JUMPDEST SWAP3 POP DUP3 PUSH32 0xFFFFFFFFFFFFFFFFFFFFFFFFFFFFFFFFFFFFFFFFFFFFFFFFFFFFFFFFFFFFFFFF SUB DUP3 GT ISZERO PUSH2 0x268E JUMPI PUSH2 0x268D PUSH2 0x2614 JUMP JUMPDEST JUMPDEST DUP3 DUP3 ADD SWAP1 POP SWAP3 SWAP2 POP POP JUMP JUMPDEST PUSH32 0x5665726469637420686173206E6F74206265656E207265616368656420796574 PUSH1 0x0 DUP3 ADD MSTORE POP JUMP JUMPDEST PUSH1 0x0 PUSH2 0x26CF PUSH1 0x20 DUP4 PUSH2 0x1C70 JUMP JUMPDEST SWAP2 POP PUSH2 0x26DA DUP3 PUSH2 0x2699 JUMP JUMPDEST PUSH1 0x20 DUP3 ADD SWAP1 POP SWAP2 SWAP1 POP JUMP JUMPDEST PUSH1 0x0 PUSH1 0x20 DUP3 ADD SWAP1 POP DUP2 DUP2 SUB PUSH1 0x0 DUP4 ADD MSTORE PUSH2 0x26FE DUP2 PUSH2 0x26C2 JUMP JUMPDEST SWAP1 POP SWAP2 SWAP1 POP JUMP JUMPDEST PUSH32 0x436F6E73656E7375732068617320616C7265616479206265656E2063616C6375 PUSH1 0x0 DUP3 ADD MSTORE PUSH32 0x6C61746564000000000000000000000000000000000000000000000000000000 PUSH1 0x20 DUP3 ADD MSTORE POP JUMP JUMPDEST PUSH1 0x0 PUSH2 0x2761 PUSH1 0x25 DUP4 PUSH2 0x1C70 JUMP JUMPDEST SWAP2 POP PUSH2 0x276C DUP3 PUSH2 0x2705 JUMP JUMPDEST PUSH1 0x40 DUP3 ADD SWAP1 POP SWAP2 SWAP1 POP JUMP JUMPDEST PUSH1 0x0 PUSH1 0x20 DUP3 ADD SWAP1 POP DUP2 DUP2 SUB PUSH1 0x0 DUP4 ADD MSTORE PUSH2 0x2790 DUP2 PUSH2 0x2754 JUMP JUMPDEST SWAP1 POP SWAP2 SWAP1 POP JUMP JUMPDEST PUSH32 0x4E487B7100000000000000000000000000000000000000000000000000000000 PUSH1 0x0 MSTORE PUSH1 0x12 PUSH1 0x4 MSTORE PUSH1 0x24 PUSH1 0x0 REVERT JUMPDEST PUSH1 0x0 PUSH2 0x27D1 DUP3 PUSH2 0x1B4D JUMP JUMPDEST SWAP2 POP PUSH2 0x27DC DUP4 PUSH2 0x1B4D JUMP JUMPDEST SWAP3 POP DUP3 PUSH2 0x27EC JUMPI PUSH2 0x27EB PUSH2 0x2797 JUMP JUMPDEST JUMPDEST DUP3 DUP3 DIV SWAP1 POP SWAP3 SWAP2 POP POP JUMP JUMPDEST PUSH1 0x0 PUSH2 0x2802 DUP3 PUSH2 0x1B4D JUMP JUMPDEST SWAP2 POP PUSH2 0x280D DUP4 PUSH2 0x1B4D JUMP JUMPDEST SWAP3 POP DUP2 PUSH32 0xFFFFFFFFFFFFFFFFFFFFFFFFFFFFFFFFFFFFFFFFFFFFFFFFFFFFFFFFFFFFFFFF DIV DUP4 GT DUP3 ISZERO ISZERO AND ISZERO PUSH2 0x2846 JUMPI PUSH2 0x2845 PUSH2 0x2614 JUMP JUMPDEST JUMPDEST DUP3 DUP3 MUL SWAP1 POP SWAP3 SWAP2 POP POP JUMP JUMPDEST PUSH1 0x0 DUP2 SWAP1 POP DUP2 PUSH1 0x0 MSTORE PUSH1 0x20 PUSH1 0x0 KECCAK256 SWAP1 POP SWAP2 SWAP1 POP JUMP JUMPDEST PUSH1 0x0 PUSH1 0x20 PUSH1 0x1F DUP4 ADD DIV SWAP1 POP SWAP2 SWAP1 POP JUMP JUMPDEST PUSH1 0x0 DUP3 DUP3 SHL SWAP1 POP SWAP3 SWAP2 POP POP JUMP JUMPDEST PUSH1 0x0 PUSH1 0x8 DUP4 MUL PUSH2 0x28B3 PUSH32 0xFFFFFFFFFFFFFFFFFFFFFFFFFFFFFFFFFFFFFFFFFFFFFFFFFFFFFFFFFFFFFFFF DUP3 PUSH2 0x2876 JUMP JUMPDEST PUSH2 0x28BD DUP7 DUP4 PUSH2 0x2876 JUMP JUMPDEST SWAP6 POP DUP1 NOT DUP5 AND SWAP4 POP DUP1 DUP7 AND DUP5 OR SWAP3 POP POP POP SWAP4 SWAP3 POP POP POP JUMP JUMPDEST PUSH1 0x0 DUP2 SWAP1 POP SWAP2 SWAP1 POP JUMP JUMPDEST PUSH1 0x0 PUSH2 0x28FA PUSH2 0x28F5 PUSH2 0x28F0 DUP5 PUSH2 0x1B4D JUMP JUMPDEST PUSH2 0x28D5 JUMP JUMPDEST PUSH2 0x1B4D JUMP JUMPDEST SWAP1 POP SWAP2 SWAP1 POP JUMP JUMPDEST PUSH1 0x0 DUP2 SWAP1 POP SWAP2 SWAP1 POP JUMP JUMPDEST PUSH2 0x2914 DUP4 PUSH2 0x28DF JUMP JUMPDEST PUSH2 0x2928 PUSH2 0x2920 DUP3 PUSH2 0x2901 JUMP JUMPDEST DUP5 DUP5 SLOAD PUSH2 0x2883 JUMP JUMPDEST DUP3 SSTORE POP POP POP POP JUMP JUMPDEST PUSH1 0x0 SWAP1 JUMP JUMPDEST PUSH2 0x293D PUSH2 0x2930 JUMP JUMPDEST PUSH2 0x2948 DUP2 DUP5 DUP5 PUSH2 0x290B JUMP JUMPDEST POP POP POP JUMP JUMPDEST JUMPDEST DUP2 DUP2 LT ISZERO PUSH2 0x296C JUMPI PUSH2 0x2961 PUSH1 0x0 DUP3 PUSH2 0x2935 JUMP JUMPDEST PUSH1 0x1 DUP2 ADD SWAP1 POP PUSH2 0x294E JUMP JUMPDEST POP POP JUMP JUMPDEST PUSH1 0x1F DUP3 GT ISZERO PUSH2 0x29B1 JUMPI PUSH2 0x2982 DUP2 PUSH2 0x2851 JUMP JUMPDEST PUSH2 0x298B DUP5 PUSH2 0x2866 JUMP JUMPDEST DUP2 ADD PUSH1 0x20 DUP6 LT ISZERO PUSH2 0x299A JUMPI DUP2 SWAP1 POP JUMPDEST PUSH2 0x29AE PUSH2 0x29A6 DUP6 PUSH2 0x2866 JUMP JUMPDEST DUP4 ADD DUP3 PUSH2 0x294D JUMP JUMPDEST POP POP JUMPDEST POP POP POP JUMP JUMPDEST PUSH1 0x0 DUP3 DUP3 SHR SWAP1 POP SWAP3 SWAP2 POP POP JUMP JUMPDEST PUSH1 0x0 PUSH2 0x29D4 PUSH1 0x0 NOT DUP5 PUSH1 0x8 MUL PUSH2 0x29B6 JUMP JUMPDEST NOT DUP1 DUP4 AND SWAP2 POP POP SWAP3 SWAP2 POP POP JUMP JUMPDEST PUSH1 0x0 PUSH2 0x29ED DUP4 DUP4 PUSH2 0x29C3 JUMP JUMPDEST SWAP2 POP DUP3 PUSH1 0x2 MUL DUP3 OR SWAP1 POP SWAP3 SWAP2 POP POP JUMP JUMPDEST PUSH2 0x2A06 DUP3 PUSH2 0x1C65 JUMP JUMPDEST PUSH8 0xFFFFFFFFFFFFFFFF DUP2 GT ISZERO PUSH2 0x2A1F JUMPI PUSH2 0x2A1E PUSH2 0x1D2A JUMP JUMPDEST JUMPDEST PUSH2 0x2A29 DUP3 SLOAD PUSH2 0x249F JUMP JUMPDEST PUSH2 0x2A34 DUP3 DUP3 DUP6 PUSH2 0x2970 JUMP JUMPDEST PUSH1 0x0 PUSH1 0x20 SWAP1 POP PUSH1 0x1F DUP4 GT PUSH1 0x1 DUP2 EQ PUSH2 0x2A67 JUMPI PUSH1 0x0 DUP5 ISZERO PUSH2 0x2A55 JUMPI DUP3 DUP8 ADD MLOAD SWAP1 POP JUMPDEST PUSH2 0x2A5F DUP6 DUP3 PUSH2 0x29E1 JUMP JUMPDEST DUP7 SSTORE POP PUSH2 0x2AC7 JUMP JUMPDEST PUSH1 0x1F NOT DUP5 AND PUSH2 0x2A75 DUP7 PUSH2 0x2851 JUMP JUMPDEST PUSH1 0x0 JUMPDEST DUP3 DUP2 LT ISZERO PUSH2 0x2A9D JUMPI DUP5 DUP10 ADD MLOAD DUP3 SSTORE PUSH1 0x1 DUP3 ADD SWAP2 POP PUSH1 0x20 DUP6 ADD SWAP5 POP PUSH1 0x20 DUP2 ADD SWAP1 POP PUSH2 0x2A78 JUMP JUMPDEST DUP7 DUP4 LT ISZERO PUSH2 0x2ABA JUMPI DUP5 DUP10 ADD MLOAD PUSH2 0x2AB6 PUSH1 0x1F DUP10 AND DUP3 PUSH2 0x29C3 JUMP JUMPDEST DUP4 SSTORE POP JUMPDEST PUSH1 0x1 PUSH1 0x2 DUP9 MUL ADD DUP9 SSTORE POP POP POP JUMPDEST POP POP POP POP POP POP JUMP JUMPDEST PUSH32 0x4E487B7100000000000000000000000000000000000000000000000000000000 PUSH1 0x0 MSTORE PUSH1 0x32 PUSH1 0x4 MSTORE PUSH1 0x24 PUSH1 0x0 REVERT JUMPDEST PUSH1 0x0 PUSH1 0xFF DUP3 AND SWAP1 POP SWAP2 SWAP1 POP JUMP JUMPDEST PUSH1 0x0 PUSH2 0x2B16 DUP3 PUSH2 0x2AFE JUMP JUMPDEST SWAP2 POP PUSH1 0xFF DUP3 SUB PUSH2 0x2B29 JUMPI PUSH2 0x2B28 PUSH2 0x2614 JUMP JUMPDEST JUMPDEST PUSH1 0x1 DUP3 ADD SWAP1 POP SWAP2 SWAP1 POP JUMP INVALID LOG2 PUSH5 0x6970667358 0x22 SLT KECCAK256 SELFBALANCE STOP SELFDESTRUCT 0xAC PUSH24 0x9826AA017DE3DD17F50F9542E94F1781F1A251203CE575F7 CALLCODE 0xE7 GASLIMIT PUSH5 0x736F6C6343 STOP ADDMOD 0xF STOP CALLER "
				},
				"gasEstimates": {
					"creation": {
						"codeDepositCost": "2222800",
						"executionCost": "infinite",
						"totalCost": "infinite"
					},
					"external": {
						"AccumulatedPercentage()": "2518",
						"BusinessRequirement()": "2495",
						"Consensus()": "infinite",
						"RegisterVoter(address)": "131014",
						"Vote(string)": "infinite",
						"bundle()": "infinite",
						"contractAddress()": "2621",
						"getParameters()": "infinite",
						"getParameters2(address)": "infinite",
						"getValues()": "infinite",
						"initiator()": "2581",
						"keys(uint256)": "4980",
						"numApprovals()": "2540",
						"numberCompiled()": "2473",
						"proposal()": "infinite",
						"retrieve_bundle()": "infinite",
						"voters(uint256)": "infinite",
						"voters_map(address)": "infinite"
					}
				},
				"methodIdentifiers": {
					"AccumulatedPercentage()": "604c8333",
					"BusinessRequirement()": "d77aa749",
					"Consensus()": "95b02dfa",
					"RegisterVoter(address)": "15fe6f1b",
					"Vote(string)": "323082d7",
					"bundle()": "4a1f0ef2",
					"contractAddress()": "f6b4dfb4",
					"getParameters()": "a5ea11da",
					"getParameters2(address)": "5361a0ea",
					"getValues()": "19eb4a90",
					"initiator()": "5c39fcc1",
					"keys(uint256)": "0cb6aaf1",
					"numApprovals()": "7403c5e5",
					"numberCompiled()": "b9a29250",
					"proposal()": "753ec103",
					"retrieve_bundle()": "82316745",
					"voters(uint256)": "da58c7d9",
					"voters_map(address)": "9aa4bbdd"
				}
			},
			"storageLayout": {
				"storage": [
					{
						"astId": 25,
						"contract": "contracts/BusinessConsensus.sol:BusinessConsensus",
						"label": "contractAddress",
						"offset": 0,
						"slot": "0",
						"type": "t_address"
					},
					{
						"astId": 27,
						"contract": "contracts/BusinessConsensus.sol:BusinessConsensus",
						"label": "expiryDate",
						"offset": 0,
						"slot": "1",
						"type": "t_uint256"
					},
					{
						"astId": 29,
						"contract": "contracts/BusinessConsensus.sol:BusinessConsensus",
						"label": "finalVerdict",
						"offset": 0,
						"slot": "2",
						"type": "t_string_storage"
					},
					{
						"astId": 33,
						"contract": "contracts/BusinessConsensus.sol:BusinessConsensus",
						"label": "initiator",
						"offset": 0,
						"slot": "3",
						"type": "t_address"
					},
					{
						"astId": 35,
						"contract": "contracts/BusinessConsensus.sol:BusinessConsensus",
						"label": "BusinessRequirement",
						"offset": 0,
						"slot": "4",
						"type": "t_uint256"
					},
					{
						"astId": 37,
						"contract": "contracts/BusinessConsensus.sol:BusinessConsensus",
						"label": "AccumulatedPercentage",
						"offset": 0,
						"slot": "5",
						"type": "t_uint256"
					},
					{
						"astId": 39,
						"contract": "contracts/BusinessConsensus.sol:BusinessConsensus",
						"label": "numApprovals",
						"offset": 0,
						"slot": "6",
						"type": "t_uint256"
					},
					{
						"astId": 41,
						"contract": "contracts/BusinessConsensus.sol:BusinessConsensus",
						"label": "numberCompiled",
						"offset": 0,
						"slot": "7",
						"type": "t_uint256"
					},
					{
						"astId": 45,
						"contract": "contracts/BusinessConsensus.sol:BusinessConsensus",
						"label": "voters",
						"offset": 0,
						"slot": "8",
						"type": "t_array(t_struct(Voter)8_storage)dyn_storage"
					},
					{
						"astId": 48,
						"contract": "contracts/BusinessConsensus.sol:BusinessConsensus",
						"label": "keys",
						"offset": 0,
						"slot": "9",
						"type": "t_array(t_address)dyn_storage"
					},
					{
						"astId": 53,
						"contract": "contracts/BusinessConsensus.sol:BusinessConsensus",
						"label": "voters_map",
						"offset": 0,
						"slot": "10",
						"type": "t_mapping(t_address,t_struct(Voter)8_storage)"
					},
					{
						"astId": 56,
						"contract": "contracts/BusinessConsensus.sol:BusinessConsensus",
						"label": "proposal",
						"offset": 0,
						"slot": "11",
						"type": "t_struct(Proposal)23_storage"
					},
					{
						"astId": 59,
						"contract": "contracts/BusinessConsensus.sol:BusinessConsensus",
						"label": "bundle",
						"offset": 0,
						"slot": "13",
						"type": "t_struct(Bundle)18_storage"
					}
				],
				"types": {
					"t_address": {
						"encoding": "inplace",
						"label": "address",
						"numberOfBytes": "20"
					},
					"t_array(t_address)dyn_storage": {
						"base": "t_address",
						"encoding": "dynamic_array",
						"label": "address[]",
						"numberOfBytes": "32"
					},
					"t_array(t_struct(Voter)8_storage)dyn_storage": {
						"base": "t_struct(Voter)8_storage",
						"encoding": "dynamic_array",
						"label": "struct BusinessConsensus.Voter[]",
						"numberOfBytes": "32"
					},
					"t_bool": {
						"encoding": "inplace",
						"label": "bool",
						"numberOfBytes": "1"
					},
					"t_mapping(t_address,t_struct(Voter)8_storage)": {
						"encoding": "mapping",
						"key": "t_address",
						"label": "mapping(address => struct BusinessConsensus.Voter)",
						"numberOfBytes": "32",
						"value": "t_struct(Voter)8_storage"
					},
					"t_string_storage": {
						"encoding": "bytes",
						"label": "string",
						"numberOfBytes": "32"
					},
					"t_struct(Bundle)18_storage": {
						"encoding": "inplace",
						"label": "struct BusinessConsensus.Bundle",
						"members": [
							{
								"astId": 10,
								"contract": "contracts/BusinessConsensus.sol:BusinessConsensus",
								"label": "Verdict",
								"offset": 0,
								"slot": "0",
								"type": "t_string_storage"
							},
							{
								"astId": 13,
								"contract": "contracts/BusinessConsensus.sol:BusinessConsensus",
								"label": "businessProposal",
								"offset": 0,
								"slot": "1",
								"type": "t_struct(Proposal)23_storage"
							},
							{
								"astId": 17,
								"contract": "contracts/BusinessConsensus.sol:BusinessConsensus",
								"label": "votersList",
								"offset": 0,
								"slot": "3",
								"type": "t_array(t_struct(Voter)8_storage)dyn_storage"
							}
						],
						"numberOfBytes": "128"
					},
					"t_struct(Proposal)23_storage": {
						"encoding": "inplace",
						"label": "struct BusinessConsensus.Proposal",
						"members": [
							{
								"astId": 20,
								"contract": "contracts/BusinessConsensus.sol:BusinessConsensus",
								"label": "voteCount",
								"offset": 0,
								"slot": "0",
								"type": "t_uint256"
							},
							{
								"astId": 22,
								"contract": "contracts/BusinessConsensus.sol:BusinessConsensus",
								"label": "messageID",
								"offset": 0,
								"slot": "1",
								"type": "t_string_storage"
							}
						],
						"numberOfBytes": "64"
					},
					"t_struct(Voter)8_storage": {
						"encoding": "inplace",
						"label": "struct BusinessConsensus.Voter",
						"members": [
							{
								"astId": 3,
								"contract": "contracts/BusinessConsensus.sol:BusinessConsensus",
								"label": "voted",
								"offset": 0,
								"slot": "0",
								"type": "t_bool"
							},
							{
								"astId": 5,
								"contract": "contracts/BusinessConsensus.sol:BusinessConsensus",
								"label": "recipient",
								"offset": 1,
								"slot": "0",
								"type": "t_address"
							},
							{
								"astId": 7,
								"contract": "contracts/BusinessConsensus.sol:BusinessConsensus",
								"label": "vote",
								"offset": 21,
								"slot": "0",
								"type": "t_bool"
							}
						],
						"numberOfBytes": "32"
					},
					"t_uint256": {
						"encoding": "inplace",
						"label": "uint256",
						"numberOfBytes": "32"
					}
				}
			},
			"userdoc": {
				"kind": "user",
				"methods": {
					"Consensus()": {
						"notice": "compile all relevant information into a Bundle"
					},
					"Vote(string)": {
						"notice": "Delegate your vote to the voter `to`."
					}
				},
				"version": 1
			}
		}
	}
}