{
	"contracts/BusinessConsensus2.sol": {
		"BusinessConsensus2": {
			"abi": [
				{
					"inputs": [
						{
							"internalType": "string",
							"name": "_messageID",
							"type": "string"
						}
					],
					"name": "Consensus",
					"outputs": [],
					"stateMutability": "nonpayable",
					"type": "function"
				},
				{
					"inputs": [
						{
							"internalType": "address",
							"name": "voter",
							"type": "address"
						},
						{
							"internalType": "string",
							"name": "_messageID",
							"type": "string"
						}
					],
					"name": "RegisterVoter",
					"outputs": [],
					"stateMutability": "nonpayable",
					"type": "function"
				},
				{
					"inputs": [
						{
							"internalType": "string",
							"name": "response",
							"type": "string"
						},
						{
							"internalType": "string",
							"name": "_messageID",
							"type": "string"
						}
					],
					"name": "Vote",
					"outputs": [],
					"stateMutability": "nonpayable",
					"type": "function"
				},
				{
					"inputs": [
						{
							"internalType": "string",
							"name": "",
							"type": "string"
						},
						{
							"internalType": "uint256",
							"name": "",
							"type": "uint256"
						}
					],
					"name": "Voters",
					"outputs": [
						{
							"internalType": "bool",
							"name": "voted",
							"type": "bool"
						},
						{
							"internalType": "bool",
							"name": "vote",
							"type": "bool"
						},
						{
							"internalType": "address",
							"name": "recipient",
							"type": "address"
						}
					],
					"stateMutability": "view",
					"type": "function"
				},
				{
					"inputs": [
						{
							"internalType": "string",
							"name": "",
							"type": "string"
						}
					],
					"name": "businessProposals",
					"outputs": [
						{
							"internalType": "string",
							"name": "messageID",
							"type": "string"
						},
						{
							"internalType": "address",
							"name": "initiator",
							"type": "address"
						},
						{
							"internalType": "address",
							"name": "contractAddress",
							"type": "address"
						},
						{
							"internalType": "uint256",
							"name": "voteCount",
							"type": "uint256"
						},
						{
							"internalType": "uint256",
							"name": "expiryDate",
							"type": "uint256"
						},
						{
							"internalType": "uint256",
							"name": "BusinessRequirement",
							"type": "uint256"
						},
						{
							"internalType": "uint256",
							"name": "numApprovals",
							"type": "uint256"
						},
						{
							"internalType": "bool",
							"name": "isCompiled",
							"type": "bool"
						},
						{
							"internalType": "bytes32",
							"name": "finalVerdict",
							"type": "bytes32"
						},
						{
							"internalType": "string",
							"name": "subject",
							"type": "string"
						},
						{
							"internalType": "string",
							"name": "contents",
							"type": "string"
						}
					],
					"stateMutability": "view",
					"type": "function"
				},
				{
					"inputs": [
						{
							"internalType": "string",
							"name": "_messageID",
							"type": "string"
						},
						{
							"internalType": "uint256",
							"name": "expiry",
							"type": "uint256"
						},
						{
							"internalType": "uint256",
							"name": "requiredPercentage",
							"type": "uint256"
						},
						{
							"internalType": "string",
							"name": "contents",
							"type": "string"
						},
						{
							"internalType": "string",
							"name": "subject",
							"type": "string"
						}
					],
					"name": "createContract",
					"outputs": [],
					"stateMutability": "nonpayable",
					"type": "function"
				},
				{
					"inputs": [
						{
							"internalType": "string",
							"name": "_messageID",
							"type": "string"
						}
					],
					"name": "getIsCompiled",
					"outputs": [
						{
							"internalType": "bool",
							"name": "",
							"type": "bool"
						}
					],
					"stateMutability": "view",
					"type": "function"
				},
				{
					"inputs": [
						{
							"internalType": "string",
							"name": "_messageID",
							"type": "string"
						}
					],
					"name": "getParameters",
					"outputs": [
						{
							"internalType": "string",
							"name": "",
							"type": "string"
						},
						{
							"internalType": "uint256",
							"name": "",
							"type": "uint256"
						},
						{
							"internalType": "address",
							"name": "",
							"type": "address"
						},
						{
							"internalType": "uint256",
							"name": "",
							"type": "uint256"
						},
						{
							"internalType": "uint256",
							"name": "",
							"type": "uint256"
						}
					],
					"stateMutability": "view",
					"type": "function"
				},
				{
					"inputs": [
						{
							"internalType": "address",
							"name": "test_address",
							"type": "address"
						},
						{
							"internalType": "string",
							"name": "_messageID",
							"type": "string"
						}
					],
					"name": "getParameters2",
					"outputs": [
						{
							"internalType": "bool",
							"name": "",
							"type": "bool"
						},
						{
							"internalType": "bool",
							"name": "",
							"type": "bool"
						},
						{
							"internalType": "address",
							"name": "",
							"type": "address"
						}
					],
					"stateMutability": "view",
					"type": "function"
				},
				{
					"inputs": [
						{
							"internalType": "string",
							"name": "_messageID",
							"type": "string"
						}
					],
					"name": "getValues",
					"outputs": [
						{
							"internalType": "string",
							"name": "",
							"type": "string"
						}
					],
					"stateMutability": "view",
					"type": "function"
				},
				{
					"inputs": [
						{
							"internalType": "string",
							"name": "",
							"type": "string"
						},
						{
							"internalType": "uint256",
							"name": "",
							"type": "uint256"
						}
					],
					"name": "keys",
					"outputs": [
						{
							"internalType": "address",
							"name": "",
							"type": "address"
						}
					],
					"stateMutability": "view",
					"type": "function"
				},
				{
					"inputs": [
						{
							"internalType": "string",
							"name": "_messageID",
							"type": "string"
						}
					],
					"name": "retrieve_bundle",
					"outputs": [
						{
							"internalType": "bytes32",
							"name": "",
							"type": "bytes32"
						},
						{
							"internalType": "string",
							"name": "",
							"type": "string"
						},
						{
							"internalType": "uint256",
							"name": "",
							"type": "uint256"
						},
						{
							"components": [
								{
									"internalType": "bool",
									"name": "voted",
									"type": "bool"
								},
								{
									"internalType": "bool",
									"name": "vote",
									"type": "bool"
								},
								{
									"internalType": "address",
									"name": "recipient",
									"type": "address"
								}
							],
							"internalType": "struct BusinessConsensus2.Voter[]",
							"name": "",
							"type": "tuple[]"
						}
					],
					"stateMutability": "view",
					"type": "function"
				},
				{
					"inputs": [
						{
							"internalType": "string",
							"name": "",
							"type": "string"
						},
						{
							"internalType": "address",
							"name": "",
							"type": "address"
						}
					],
					"name": "voter_maps",
					"outputs": [
						{
							"internalType": "bool",
							"name": "voted",
							"type": "bool"
						},
						{
							"internalType": "bool",
							"name": "vote",
							"type": "bool"
						},
						{
							"internalType": "address",
							"name": "recipient",
							"type": "address"
						}
					],
					"stateMutability": "view",
					"type": "function"
				}
			],
			"devdoc": {
				"kind": "dev",
				"methods": {},
				"version": 1
			},
			"evm": {
				"assembly": "    /* \"contracts/BusinessConsensus2.sol\":33:7041  contract BusinessConsensus2{\r... */\n  mstore(0x40, 0x80)\n  callvalue\n  dup1\n  iszero\n  tag_1\n  jumpi\n  0x00\n  dup1\n  revert\ntag_1:\n  pop\n  dataSize(sub_0)\n  dup1\n  dataOffset(sub_0)\n  0x00\n  codecopy\n  0x00\n  return\nstop\n\nsub_0: assembly {\n        /* \"contracts/BusinessConsensus2.sol\":33:7041  contract BusinessConsensus2{\r... */\n      mstore(0x40, 0x80)\n      callvalue\n      dup1\n      iszero\n      tag_1\n      jumpi\n      0x00\n      dup1\n      revert\n    tag_1:\n      pop\n      jumpi(tag_2, lt(calldatasize, 0x04))\n      shr(0xe0, calldataload(0x00))\n      dup1\n      0x3d63af0e\n      gt\n      tag_16\n      jumpi\n      dup1\n      0x883a9673\n      gt\n      tag_17\n      jumpi\n      dup1\n      0x883a9673\n      eq\n      tag_12\n      jumpi\n      dup1\n      0x8f6a35b7\n      eq\n      tag_13\n      jumpi\n      dup1\n      0xc99ba896\n      eq\n      tag_14\n      jumpi\n      dup1\n      0xec548680\n      eq\n      tag_15\n      jumpi\n      jump(tag_2)\n    tag_17:\n      dup1\n      0x3d63af0e\n      eq\n      tag_9\n      jumpi\n      dup1\n      0x5a0a1390\n      eq\n      tag_10\n      jumpi\n      dup1\n      0x7b735c46\n      eq\n      tag_11\n      jumpi\n      jump(tag_2)\n    tag_16:\n      dup1\n      0x06699b01\n      eq\n      tag_3\n      jumpi\n      dup1\n      0x089a4c60\n      eq\n      tag_4\n      jumpi\n      dup1\n      0x0952ed75\n      eq\n      tag_5\n      jumpi\n      dup1\n      0x17072d6b\n      eq\n      tag_6\n      jumpi\n      dup1\n      0x33a0b0ab\n      eq\n      tag_7\n      jumpi\n      dup1\n      0x37f2e190\n      eq\n      tag_8\n      jumpi\n    tag_2:\n      0x00\n      dup1\n      revert\n        /* \"contracts/BusinessConsensus2.sol\":1121:1159  mapping(string=>address[]) public keys */\n    tag_3:\n      tag_18\n      0x04\n      dup1\n      calldatasize\n      sub\n      dup2\n      add\n      swap1\n      tag_19\n      swap2\n      swap1\n      tag_20\n      jump\t// in\n    tag_19:\n      tag_21\n      jump\t// in\n    tag_18:\n      mload(0x40)\n      tag_22\n      swap2\n      swap1\n      tag_23\n      jump\t// in\n    tag_22:\n      mload(0x40)\n      dup1\n      swap2\n      sub\n      swap1\n      return\n        /* \"contracts/BusinessConsensus2.sol\":954:1004  mapping(string=>Proposal) public businessProposals */\n    tag_4:\n      tag_24\n      0x04\n      dup1\n      calldatasize\n      sub\n      dup2\n      add\n      swap1\n      tag_25\n      swap2\n      swap1\n      tag_26\n      jump\t// in\n    tag_25:\n      tag_27\n      jump\t// in\n    tag_24:\n      mload(0x40)\n      tag_28\n      swap12\n      swap11\n      swap10\n      swap9\n      swap8\n      swap7\n      swap6\n      swap5\n      swap4\n      swap3\n      swap2\n      swap1\n      tag_29\n      jump\t// in\n    tag_28:\n      mload(0x40)\n      dup1\n      swap2\n      sub\n      swap1\n      return\n        /* \"contracts/BusinessConsensus2.sol\":1172:2096  function createContract(string memory _messageID, uint256 expiry, uint256 requiredPercentage,string memory contents,string memory subject) external{\r... */\n    tag_5:\n      tag_30\n      0x04\n      dup1\n      calldatasize\n      sub\n      dup2\n      add\n      swap1\n      tag_31\n      swap2\n      swap1\n      tag_32\n      jump\t// in\n    tag_31:\n      tag_33\n      jump\t// in\n    tag_30:\n      stop\n        /* \"contracts/BusinessConsensus2.sol\":3955:5346  function Vote(string memory response,string calldata _messageID) external {\r... */\n    tag_6:\n      tag_34\n      0x04\n      dup1\n      calldatasize\n      sub\n      dup2\n      add\n      swap1\n      tag_35\n      swap2\n      swap1\n      tag_36\n      jump\t// in\n    tag_35:\n      tag_37\n      jump\t// in\n    tag_34:\n      stop\n        /* \"contracts/BusinessConsensus2.sol\":1011:1069  mapping(string=>mapping(address=>Voter)) public voter_maps */\n    tag_7:\n      tag_38\n      0x04\n      dup1\n      calldatasize\n      sub\n      dup2\n      add\n      swap1\n      tag_39\n      swap2\n      swap1\n      tag_40\n      jump\t// in\n    tag_39:\n      tag_41\n      jump\t// in\n    tag_38:\n      mload(0x40)\n      tag_42\n      swap4\n      swap3\n      swap2\n      swap1\n      tag_43\n      jump\t// in\n    tag_42:\n      mload(0x40)\n      dup1\n      swap2\n      sub\n      swap1\n      return\n        /* \"contracts/BusinessConsensus2.sol\":6477:7036  function retrieve_bundle(string calldata _messageID) external view returns (bytes32, string memory, uint256, Voter[] memory){\r... */\n    tag_8:\n      tag_44\n      0x04\n      dup1\n      calldatasize\n      sub\n      dup2\n      add\n      swap1\n      tag_45\n      swap2\n      swap1\n      tag_46\n      jump\t// in\n    tag_45:\n      tag_47\n      jump\t// in\n    tag_44:\n      mload(0x40)\n      tag_48\n      swap5\n      swap4\n      swap3\n      swap2\n      swap1\n      tag_49\n      jump\t// in\n    tag_48:\n      mload(0x40)\n      dup1\n      swap2\n      sub\n      swap1\n      return\n        /* \"contracts/BusinessConsensus2.sol\":3150:3947  function RegisterVoter(address voter,string calldata _messageID) external {\r... */\n    tag_9:\n      tag_50\n      0x04\n      dup1\n      calldatasize\n      sub\n      dup2\n      add\n      swap1\n      tag_51\n      swap2\n      swap1\n      tag_52\n      jump\t// in\n    tag_51:\n      tag_53\n      jump\t// in\n    tag_50:\n      stop\n        /* \"contracts/BusinessConsensus2.sol\":2404:2761  function getParameters(string calldata _messageID) external view returns (string memory, uint , address ,uint ,uint){\r... */\n    tag_10:\n      tag_54\n      0x04\n      dup1\n      calldatasize\n      sub\n      dup2\n      add\n      swap1\n      tag_55\n      swap2\n      swap1\n      tag_46\n      jump\t// in\n    tag_55:\n      tag_56\n      jump\t// in\n    tag_54:\n      mload(0x40)\n      tag_57\n      swap6\n      swap5\n      swap4\n      swap3\n      swap2\n      swap1\n      tag_58\n      jump\t// in\n    tag_57:\n      mload(0x40)\n      dup1\n      swap2\n      sub\n      swap1\n      return\n        /* \"contracts/BusinessConsensus2.sol\":2767:3044  function getParameters2(address test_address,string calldata _messageID) external view returns (bool, bool, address){\r... */\n    tag_11:\n      tag_59\n      0x04\n      dup1\n      calldatasize\n      sub\n      dup2\n      add\n      swap1\n      tag_60\n      swap2\n      swap1\n      tag_52\n      jump\t// in\n    tag_60:\n      tag_61\n      jump\t// in\n    tag_59:\n      mload(0x40)\n      tag_62\n      swap4\n      swap3\n      swap2\n      swap1\n      tag_43\n      jump\t// in\n    tag_62:\n      mload(0x40)\n      dup1\n      swap2\n      sub\n      swap1\n      return\n        /* \"contracts/BusinessConsensus2.sol\":5410:6469  function Consensus(string calldata _messageID) external {\r... */\n    tag_12:\n      tag_63\n      0x04\n      dup1\n      calldatasize\n      sub\n      dup2\n      add\n      swap1\n      tag_64\n      swap2\n      swap1\n      tag_46\n      jump\t// in\n    tag_64:\n      tag_65\n      jump\t// in\n    tag_63:\n      stop\n        /* \"contracts/BusinessConsensus2.sol\":1076:1114  mapping(string=>Voter[]) public Voters */\n    tag_13:\n      tag_66\n      0x04\n      dup1\n      calldatasize\n      sub\n      dup2\n      add\n      swap1\n      tag_67\n      swap2\n      swap1\n      tag_20\n      jump\t// in\n    tag_67:\n      tag_68\n      jump\t// in\n    tag_66:\n      mload(0x40)\n      tag_69\n      swap4\n      swap3\n      swap2\n      swap1\n      tag_43\n      jump\t// in\n    tag_69:\n      mload(0x40)\n      dup1\n      swap2\n      sub\n      swap1\n      return\n        /* \"contracts/BusinessConsensus2.sol\":2102:2249  function getValues(string calldata _messageID) public view returns (string memory){\r... */\n    tag_14:\n      tag_70\n      0x04\n      dup1\n      calldatasize\n      sub\n      dup2\n      add\n      swap1\n      tag_71\n      swap2\n      swap1\n      tag_46\n      jump\t// in\n    tag_71:\n      tag_72\n      jump\t// in\n    tag_70:\n      mload(0x40)\n      tag_73\n      swap2\n      swap1\n      tag_74\n      jump\t// in\n    tag_73:\n      mload(0x40)\n      dup1\n      swap2\n      sub\n      swap1\n      return\n        /* \"contracts/BusinessConsensus2.sol\":2255:2398  function getIsCompiled(string calldata _messageID) public view returns (bool){\r... */\n    tag_15:\n      tag_75\n      0x04\n      dup1\n      calldatasize\n      sub\n      dup2\n      add\n      swap1\n      tag_76\n      swap2\n      swap1\n      tag_46\n      jump\t// in\n    tag_76:\n      tag_77\n      jump\t// in\n    tag_75:\n      mload(0x40)\n      tag_78\n      swap2\n      swap1\n      tag_79\n      jump\t// in\n    tag_78:\n      mload(0x40)\n      dup1\n      swap2\n      sub\n      swap1\n      return\n        /* \"contracts/BusinessConsensus2.sol\":1121:1159  mapping(string=>address[]) public keys */\n    tag_21:\n      0x03\n      dup3\n      dup1\n      mload\n      0x20\n      dup2\n      add\n      dup3\n      add\n      dup1\n      mload\n      dup5\n      dup3\n      mstore\n      0x20\n      dup4\n      add\n      0x20\n      dup6\n      add\n      keccak256\n      dup2\n      dup4\n      mstore\n      dup1\n      swap6\n      pop\n      pop\n      pop\n      pop\n      pop\n      pop\n      dup2\n      dup2\n      sload\n      dup2\n      lt\n      tag_80\n      jumpi\n      0x00\n      dup1\n      revert\n    tag_80:\n      swap1\n      0x00\n      mstore\n      keccak256(0x00, 0x20)\n      add\n      0x00\n      swap2\n      pop\n      swap2\n      pop\n      swap1\n      sload\n      swap1\n      0x0100\n      exp\n      swap1\n      div\n      0xffffffffffffffffffffffffffffffffffffffff\n      and\n      dup2\n      jump\t// out\n        /* \"contracts/BusinessConsensus2.sol\":954:1004  mapping(string=>Proposal) public businessProposals */\n    tag_27:\n      0x00\n      dup2\n      dup1\n      mload\n      0x20\n      dup2\n      add\n      dup3\n      add\n      dup1\n      mload\n      dup5\n      dup3\n      mstore\n      0x20\n      dup4\n      add\n      0x20\n      dup6\n      add\n      keccak256\n      dup2\n      dup4\n      mstore\n      dup1\n      swap6\n      pop\n      pop\n      pop\n      pop\n      pop\n      pop\n      0x00\n      swap2\n      pop\n      swap1\n      pop\n      dup1\n      0x00\n      add\n      dup1\n      sload\n      tag_82\n      swap1\n      tag_83\n      jump\t// in\n    tag_82:\n      dup1\n      0x1f\n      add\n      0x20\n      dup1\n      swap2\n      div\n      mul\n      0x20\n      add\n      mload(0x40)\n      swap1\n      dup2\n      add\n      0x40\n      mstore\n      dup1\n      swap3\n      swap2\n      swap1\n      dup2\n      dup2\n      mstore\n      0x20\n      add\n      dup3\n      dup1\n      sload\n      tag_84\n      swap1\n      tag_83\n      jump\t// in\n    tag_84:\n      dup1\n      iszero\n      tag_85\n      jumpi\n      dup1\n      0x1f\n      lt\n      tag_86\n      jumpi\n      0x0100\n      dup1\n      dup4\n      sload\n      div\n      mul\n      dup4\n      mstore\n      swap2\n      0x20\n      add\n      swap2\n      jump(tag_85)\n    tag_86:\n      dup3\n      add\n      swap2\n      swap1\n      0x00\n      mstore\n      keccak256(0x00, 0x20)\n      swap1\n    tag_87:\n      dup2\n      sload\n      dup2\n      mstore\n      swap1\n      0x01\n      add\n      swap1\n      0x20\n      add\n      dup1\n      dup4\n      gt\n      tag_87\n      jumpi\n      dup3\n      swap1\n      sub\n      0x1f\n      and\n      dup3\n      add\n      swap2\n    tag_85:\n      pop\n      pop\n      pop\n      pop\n      pop\n      swap1\n      dup1\n      0x01\n      add\n      0x00\n      swap1\n      sload\n      swap1\n      0x0100\n      exp\n      swap1\n      div\n      0xffffffffffffffffffffffffffffffffffffffff\n      and\n      swap1\n      dup1\n      0x02\n      add\n      0x00\n      swap1\n      sload\n      swap1\n      0x0100\n      exp\n      swap1\n      div\n      0xffffffffffffffffffffffffffffffffffffffff\n      and\n      swap1\n      dup1\n      0x03\n      add\n      sload\n      swap1\n      dup1\n      0x04\n      add\n      sload\n      swap1\n      dup1\n      0x05\n      add\n      sload\n      swap1\n      dup1\n      0x06\n      add\n      sload\n      swap1\n      dup1\n      0x07\n      add\n      0x00\n      swap1\n      sload\n      swap1\n      0x0100\n      exp\n      swap1\n      div\n      0xff\n      and\n      swap1\n      dup1\n      0x08\n      add\n      sload\n      swap1\n      dup1\n      0x09\n      add\n      dup1\n      sload\n      tag_88\n      swap1\n      tag_83\n      jump\t// in\n    tag_88:\n      dup1\n      0x1f\n      add\n      0x20\n      dup1\n      swap2\n      div\n      mul\n      0x20\n      add\n      mload(0x40)\n      swap1\n      dup2\n      add\n      0x40\n      mstore\n      dup1\n      swap3\n      swap2\n      swap1\n      dup2\n      dup2\n      mstore\n      0x20\n      add\n      dup3\n      dup1\n      sload\n      tag_89\n      swap1\n      tag_83\n      jump\t// in\n    tag_89:\n      dup1\n      iszero\n      tag_90\n      jumpi\n      dup1\n      0x1f\n      lt\n      tag_91\n      jumpi\n      0x0100\n      dup1\n      dup4\n      sload\n      div\n      mul\n      dup4\n      mstore\n      swap2\n      0x20\n      add\n      swap2\n      jump(tag_90)\n    tag_91:\n      dup3\n      add\n      swap2\n      swap1\n      0x00\n      mstore\n      keccak256(0x00, 0x20)\n      swap1\n    tag_92:\n      dup2\n      sload\n      dup2\n      mstore\n      swap1\n      0x01\n      add\n      swap1\n      0x20\n      add\n      dup1\n      dup4\n      gt\n      tag_92\n      jumpi\n      dup3\n      swap1\n      sub\n      0x1f\n      and\n      dup3\n      add\n      swap2\n    tag_90:\n      pop\n      pop\n      pop\n      pop\n      pop\n      swap1\n      dup1\n      0x0a\n      add\n      dup1\n      sload\n      tag_93\n      swap1\n      tag_83\n      jump\t// in\n    tag_93:\n      dup1\n      0x1f\n      add\n      0x20\n      dup1\n      swap2\n      div\n      mul\n      0x20\n      add\n      mload(0x40)\n      swap1\n      dup2\n      add\n      0x40\n      mstore\n      dup1\n      swap3\n      swap2\n      swap1\n      dup2\n      dup2\n      mstore\n      0x20\n      add\n      dup3\n      dup1\n      sload\n      tag_94\n      swap1\n      tag_83\n      jump\t// in\n    tag_94:\n      dup1\n      iszero\n      tag_95\n      jumpi\n      dup1\n      0x1f\n      lt\n      tag_96\n      jumpi\n      0x0100\n      dup1\n      dup4\n      sload\n      div\n      mul\n      dup4\n      mstore\n      swap2\n      0x20\n      add\n      swap2\n      jump(tag_95)\n    tag_96:\n      dup3\n      add\n      swap2\n      swap1\n      0x00\n      mstore\n      keccak256(0x00, 0x20)\n      swap1\n    tag_97:\n      dup2\n      sload\n      dup2\n      mstore\n      swap1\n      0x01\n      add\n      swap1\n      0x20\n      add\n      dup1\n      dup4\n      gt\n      tag_97\n      jumpi\n      dup3\n      swap1\n      sub\n      0x1f\n      and\n      dup3\n      add\n      swap2\n    tag_95:\n      pop\n      pop\n      pop\n      pop\n      pop\n      swap1\n      pop\n      dup12\n      jump\t// out\n        /* \"contracts/BusinessConsensus2.sol\":1172:2096  function createContract(string memory _messageID, uint256 expiry, uint256 requiredPercentage,string memory contents,string memory subject) external{\r... */\n    tag_33:\n        /* \"contracts/BusinessConsensus2.sol\":1474:1475  0 */\n      0x00\n        /* \"contracts/BusinessConsensus2.sol\":1423:1476  businessProposals[_messageID].initiator == address(0) */\n      0xffffffffffffffffffffffffffffffffffffffff\n      and\n        /* \"contracts/BusinessConsensus2.sol\":1423:1440  businessProposals */\n      0x00\n        /* \"contracts/BusinessConsensus2.sol\":1441:1451  _messageID */\n      dup7\n        /* \"contracts/BusinessConsensus2.sol\":1423:1452  businessProposals[_messageID] */\n      mload(0x40)\n      tag_99\n      swap2\n      swap1\n      tag_100\n      jump\t// in\n    tag_99:\n      swap1\n      dup2\n      mstore\n      0x20\n      add\n      mload(0x40)\n      dup1\n      swap2\n      sub\n      swap1\n      keccak256\n        /* \"contracts/BusinessConsensus2.sol\":1423:1462  businessProposals[_messageID].initiator */\n      0x01\n      add\n      0x00\n      swap1\n      sload\n      swap1\n      0x0100\n      exp\n      swap1\n      div\n      0xffffffffffffffffffffffffffffffffffffffff\n      and\n        /* \"contracts/BusinessConsensus2.sol\":1423:1476  businessProposals[_messageID].initiator == address(0) */\n      0xffffffffffffffffffffffffffffffffffffffff\n      and\n      eq\n        /* \"contracts/BusinessConsensus2.sol\":1415:1505  require(businessProposals[_messageID].initiator == address(0),\"Proposal already created!\") */\n      tag_101\n      jumpi\n      mload(0x40)\n      0x08c379a000000000000000000000000000000000000000000000000000000000\n      dup2\n      mstore\n      0x04\n      add\n      tag_102\n      swap1\n      tag_103\n      jump\t// in\n    tag_102:\n      mload(0x40)\n      dup1\n      swap2\n      sub\n      swap1\n      revert\n    tag_101:\n        /* \"contracts/BusinessConsensus2.sol\":1516:1540  Proposal memory proposal */\n      0x00\n        /* \"contracts/BusinessConsensus2.sol\":1543:2033  Proposal({\r... */\n      mload(0x40)\n      dup1\n      0x0160\n      add\n      0x40\n      mstore\n      dup1\n        /* \"contracts/BusinessConsensus2.sol\":1613:1623  _messageID */\n      dup8\n        /* \"contracts/BusinessConsensus2.sol\":1543:2033  Proposal({\r... */\n      dup2\n      mstore\n      0x20\n      add\n        /* \"contracts/BusinessConsensus2.sol\":1785:1795  msg.sender */\n      caller\n        /* \"contracts/BusinessConsensus2.sol\":1543:2033  Proposal({\r... */\n      0xffffffffffffffffffffffffffffffffffffffff\n      and\n      dup2\n      mstore\n      0x20\n      add\n        /* \"contracts/BusinessConsensus2.sol\":1668:1672  this */\n      address\n        /* \"contracts/BusinessConsensus2.sol\":1543:2033  Proposal({\r... */\n      0xffffffffffffffffffffffffffffffffffffffff\n      and\n      dup2\n      mstore\n      0x20\n      add\n        /* \"contracts/BusinessConsensus2.sol\":1582:1583  0 */\n      0x00\n        /* \"contracts/BusinessConsensus2.sol\":1543:2033  Proposal({\r... */\n      dup2\n      mstore\n      0x20\n      add\n        /* \"contracts/BusinessConsensus2.sol\":1845:1851  expiry */\n      dup7\n        /* \"contracts/BusinessConsensus2.sol\":1827:1842  block.timestamp */\n      timestamp\n        /* \"contracts/BusinessConsensus2.sol\":1827:1851  block.timestamp + expiry */\n      tag_104\n      swap2\n      swap1\n      tag_105\n      jump\t// in\n    tag_104:\n        /* \"contracts/BusinessConsensus2.sol\":1543:2033  Proposal({\r... */\n      dup2\n      mstore\n      0x20\n      add\n        /* \"contracts/BusinessConsensus2.sol\":1892:1910  requiredPercentage */\n      dup6\n        /* \"contracts/BusinessConsensus2.sol\":1543:2033  Proposal({\r... */\n      dup2\n      mstore\n      0x20\n      add\n        /* \"contracts/BusinessConsensus2.sol\":1944:1945  0 */\n      0x00\n        /* \"contracts/BusinessConsensus2.sol\":1543:2033  Proposal({\r... */\n      dup2\n      mstore\n      0x20\n      add\n        /* \"contracts/BusinessConsensus2.sol\":1749:1754  false */\n      0x00\n        /* \"contracts/BusinessConsensus2.sol\":1543:2033  Proposal({\r... */\n      iszero\n      iszero\n      dup2\n      mstore\n      0x20\n      add\n      0x52656a6563746564000000000000000000000000000000000000000000000000\n      dup2\n      mstore\n      0x20\n      add\n        /* \"contracts/BusinessConsensus2.sol\":1973:1980  subject */\n      dup4\n        /* \"contracts/BusinessConsensus2.sol\":1543:2033  Proposal({\r... */\n      dup2\n      mstore\n      0x20\n      add\n        /* \"contracts/BusinessConsensus2.sol\":2009:2017  contents */\n      dup5\n        /* \"contracts/BusinessConsensus2.sol\":1543:2033  Proposal({\r... */\n      dup2\n      mstore\n      pop\n        /* \"contracts/BusinessConsensus2.sol\":1516:2033  Proposal memory proposal = Proposal({\r... */\n      swap1\n      pop\n        /* \"contracts/BusinessConsensus2.sol\":2080:2088  proposal */\n      dup1\n        /* \"contracts/BusinessConsensus2.sol\":2048:2065  businessProposals */\n      0x00\n        /* \"contracts/BusinessConsensus2.sol\":2066:2076  _messageID */\n      dup8\n        /* \"contracts/BusinessConsensus2.sol\":2048:2077  businessProposals[_messageID] */\n      mload(0x40)\n      tag_106\n      swap2\n      swap1\n      tag_100\n      jump\t// in\n    tag_106:\n      swap1\n      dup2\n      mstore\n      0x20\n      add\n      mload(0x40)\n      dup1\n      swap2\n      sub\n      swap1\n      keccak256\n        /* \"contracts/BusinessConsensus2.sol\":2048:2088  businessProposals[_messageID] = proposal */\n      0x00\n      dup3\n      add\n      mload\n      dup2\n      0x00\n      add\n      swap1\n      dup1\n      mload\n      swap1\n      0x20\n      add\n      swap1\n      tag_107\n      swap3\n      swap2\n      swap1\n      tag_108\n      jump\t// in\n    tag_107:\n      pop\n      0x20\n      dup3\n      add\n      mload\n      dup2\n      0x01\n      add\n      exp(0x0100, 0x00)\n      dup2\n      sload\n      dup2\n      0xffffffffffffffffffffffffffffffffffffffff\n      mul\n      not\n      and\n      swap1\n      dup4\n      0xffffffffffffffffffffffffffffffffffffffff\n      and\n      mul\n      or\n      swap1\n      sstore\n      pop\n      0x40\n      dup3\n      add\n      mload\n      dup2\n      0x02\n      add\n      exp(0x0100, 0x00)\n      dup2\n      sload\n      dup2\n      0xffffffffffffffffffffffffffffffffffffffff\n      mul\n      not\n      and\n      swap1\n      dup4\n      0xffffffffffffffffffffffffffffffffffffffff\n      and\n      mul\n      or\n      swap1\n      sstore\n      pop\n      0x60\n      dup3\n      add\n      mload\n      dup2\n      0x03\n      add\n      sstore\n      0x80\n      dup3\n      add\n      mload\n      dup2\n      0x04\n      add\n      sstore\n      0xa0\n      dup3\n      add\n      mload\n      dup2\n      0x05\n      add\n      sstore\n      0xc0\n      dup3\n      add\n      mload\n      dup2\n      0x06\n      add\n      sstore\n      0xe0\n      dup3\n      add\n      mload\n      dup2\n      0x07\n      add\n      exp(0x0100, 0x00)\n      dup2\n      sload\n      dup2\n      0xff\n      mul\n      not\n      and\n      swap1\n      dup4\n      iszero\n      iszero\n      mul\n      or\n      swap1\n      sstore\n      pop\n      0x0100\n      dup3\n      add\n      mload\n      dup2\n      0x08\n      add\n      sstore\n      0x0120\n      dup3\n      add\n      mload\n      dup2\n      0x09\n      add\n      swap1\n      dup1\n      mload\n      swap1\n      0x20\n      add\n      swap1\n      tag_109\n      swap3\n      swap2\n      swap1\n      tag_108\n      jump\t// in\n    tag_109:\n      pop\n      0x0140\n      dup3\n      add\n      mload\n      dup2\n      0x0a\n      add\n      swap1\n      dup1\n      mload\n      swap1\n      0x20\n      add\n      swap1\n      tag_110\n      swap3\n      swap2\n      swap1\n      tag_108\n      jump\t// in\n    tag_110:\n      pop\n      swap1\n      pop\n      pop\n        /* \"contracts/BusinessConsensus2.sol\":1319:2096  {\r... */\n      pop\n        /* \"contracts/BusinessConsensus2.sol\":1172:2096  function createContract(string memory _messageID, uint256 expiry, uint256 requiredPercentage,string memory contents,string memory subject) external{\r... */\n      pop\n      pop\n      pop\n      pop\n      pop\n      jump\t// out\n        /* \"contracts/BusinessConsensus2.sol\":3955:5346  function Vote(string memory response,string calldata _messageID) external {\r... */\n    tag_37:\n        /* \"contracts/BusinessConsensus2.sol\":4068:4085  businessProposals */\n      0x00\n        /* \"contracts/BusinessConsensus2.sol\":4086:4096  _messageID */\n      dup3\n      dup3\n        /* \"contracts/BusinessConsensus2.sol\":4068:4097  businessProposals[_messageID] */\n      mload(0x40)\n      tag_112\n      swap3\n      swap2\n      swap1\n      tag_113\n      jump\t// in\n    tag_112:\n      swap1\n      dup2\n      mstore\n      0x20\n      add\n      mload(0x40)\n      dup1\n      swap2\n      sub\n      swap1\n      keccak256\n        /* \"contracts/BusinessConsensus2.sol\":4068:4108  businessProposals[_messageID].expiryDate */\n      0x04\n      add\n      sload\n        /* \"contracts/BusinessConsensus2.sol\":4050:4065  block.timestamp */\n      timestamp\n        /* \"contracts/BusinessConsensus2.sol\":4050:4108  block.timestamp < businessProposals[_messageID].expiryDate */\n      lt\n        /* \"contracts/BusinessConsensus2.sol\":4042:4131  require(block.timestamp < businessProposals[_messageID].expiryDate, \"Voting has expired\") */\n      tag_114\n      jumpi\n      mload(0x40)\n      0x08c379a000000000000000000000000000000000000000000000000000000000\n      dup2\n      mstore\n      0x04\n      add\n      tag_115\n      swap1\n      tag_116\n      jump\t// in\n    tag_115:\n      mload(0x40)\n      dup1\n      swap2\n      sub\n      swap1\n      revert\n    tag_114:\n        /* \"contracts/BusinessConsensus2.sol\":4206:4209  0x0 */\n      0x00\n        /* \"contracts/BusinessConsensus2.sol\":4150:4210  voter_maps[_messageID][msg.sender].recipient != address(0x0) */\n      0xffffffffffffffffffffffffffffffffffffffff\n      and\n        /* \"contracts/BusinessConsensus2.sol\":4150:4160  voter_maps */\n      0x01\n        /* \"contracts/BusinessConsensus2.sol\":4161:4171  _messageID */\n      dup4\n      dup4\n        /* \"contracts/BusinessConsensus2.sol\":4150:4172  voter_maps[_messageID] */\n      mload(0x40)\n      tag_117\n      swap3\n      swap2\n      swap1\n      tag_113\n      jump\t// in\n    tag_117:\n      swap1\n      dup2\n      mstore\n      0x20\n      add\n      mload(0x40)\n      dup1\n      swap2\n      sub\n      swap1\n      keccak256\n        /* \"contracts/BusinessConsensus2.sol\":4150:4184  voter_maps[_messageID][msg.sender] */\n      0x00\n        /* \"contracts/BusinessConsensus2.sol\":4173:4183  msg.sender */\n      caller\n        /* \"contracts/BusinessConsensus2.sol\":4150:4184  voter_maps[_messageID][msg.sender] */\n      0xffffffffffffffffffffffffffffffffffffffff\n      and\n      0xffffffffffffffffffffffffffffffffffffffff\n      and\n      dup2\n      mstore\n      0x20\n      add\n      swap1\n      dup2\n      mstore\n      0x20\n      add\n      0x00\n      keccak256\n        /* \"contracts/BusinessConsensus2.sol\":4150:4194  voter_maps[_messageID][msg.sender].recipient */\n      0x00\n      add\n      0x02\n      swap1\n      sload\n      swap1\n      0x0100\n      exp\n      swap1\n      div\n      0xffffffffffffffffffffffffffffffffffffffff\n      and\n        /* \"contracts/BusinessConsensus2.sol\":4150:4210  voter_maps[_messageID][msg.sender].recipient != address(0x0) */\n      0xffffffffffffffffffffffffffffffffffffffff\n      and\n      eq\n      iszero\n        /* \"contracts/BusinessConsensus2.sol\":4142:4245  require(voter_maps[_messageID][msg.sender].recipient != address(0x0), \"You are not registered to vote\") */\n      tag_118\n      jumpi\n      mload(0x40)\n      0x08c379a000000000000000000000000000000000000000000000000000000000\n      dup2\n      mstore\n      0x04\n      add\n      tag_119\n      swap1\n      tag_120\n      jump\t// in\n    tag_119:\n      mload(0x40)\n      dup1\n      swap2\n      sub\n      swap1\n      revert\n    tag_118:\n        /* \"contracts/BusinessConsensus2.sol\":4265:4275  voter_maps */\n      0x01\n        /* \"contracts/BusinessConsensus2.sol\":4276:4286  _messageID */\n      dup3\n      dup3\n        /* \"contracts/BusinessConsensus2.sol\":4265:4287  voter_maps[_messageID] */\n      mload(0x40)\n      tag_121\n      swap3\n      swap2\n      swap1\n      tag_113\n      jump\t// in\n    tag_121:\n      swap1\n      dup2\n      mstore\n      0x20\n      add\n      mload(0x40)\n      dup1\n      swap2\n      sub\n      swap1\n      keccak256\n        /* \"contracts/BusinessConsensus2.sol\":4265:4299  voter_maps[_messageID][msg.sender] */\n      0x00\n        /* \"contracts/BusinessConsensus2.sol\":4288:4298  msg.sender */\n      caller\n        /* \"contracts/BusinessConsensus2.sol\":4265:4299  voter_maps[_messageID][msg.sender] */\n      0xffffffffffffffffffffffffffffffffffffffff\n      and\n      0xffffffffffffffffffffffffffffffffffffffff\n      and\n      dup2\n      mstore\n      0x20\n      add\n      swap1\n      dup2\n      mstore\n      0x20\n      add\n      0x00\n      keccak256\n        /* \"contracts/BusinessConsensus2.sol\":4265:4305  voter_maps[_messageID][msg.sender].voted */\n      0x00\n      add\n      0x00\n      swap1\n      sload\n      swap1\n      0x0100\n      exp\n      swap1\n      div\n      0xff\n      and\n        /* \"contracts/BusinessConsensus2.sol\":4264:4305  !voter_maps[_messageID][msg.sender].voted */\n      iszero\n        /* \"contracts/BusinessConsensus2.sol\":4256:4338  require(!voter_maps[_messageID][msg.sender].voted, \"You already sent a response.\") */\n      tag_122\n      jumpi\n      mload(0x40)\n      0x08c379a000000000000000000000000000000000000000000000000000000000\n      dup2\n      mstore\n      0x04\n      add\n      tag_123\n      swap1\n      tag_124\n      jump\t// in\n    tag_123:\n      mload(0x40)\n      dup1\n      swap2\n      sub\n      swap1\n      revert\n    tag_122:\n        /* \"contracts/BusinessConsensus2.sol\":4394:4412  bytes(\"i approve\") */\n      mload(0x40)\n      dup1\n      0x40\n      add\n      0x40\n      mstore\n      dup1\n      0x09\n      dup2\n      mstore\n      0x20\n      add\n      0x6920617070726f76650000000000000000000000000000000000000000000000\n      dup2\n      mstore\n      pop\n        /* \"contracts/BusinessConsensus2.sol\":4384:4413  keccak256(bytes(\"i approve\")) */\n      dup1\n      mload\n      swap1\n      0x20\n      add\n      keccak256\n        /* \"contracts/BusinessConsensus2.sol\":4370:4378  response */\n      dup4\n        /* \"contracts/BusinessConsensus2.sol\":4354:4380  keccak256(bytes(response)) */\n      dup1\n      mload\n      swap1\n      0x20\n      add\n      keccak256\n        /* \"contracts/BusinessConsensus2.sol\":4354:4413  keccak256(bytes(response)) == keccak256(bytes(\"i approve\")) */\n      eq\n        /* \"contracts/BusinessConsensus2.sol\":4351:5329  if(keccak256(bytes(response)) == keccak256(bytes(\"i approve\"))){\r... */\n      iszero\n      tag_125\n      jumpi\n        /* \"contracts/BusinessConsensus2.sol\":4472:4476  true */\n      0x01\n        /* \"contracts/BusinessConsensus2.sol\":4429:4439  voter_maps */\n      dup1\n        /* \"contracts/BusinessConsensus2.sol\":4440:4450  _messageID */\n      dup4\n      dup4\n        /* \"contracts/BusinessConsensus2.sol\":4429:4451  voter_maps[_messageID] */\n      mload(0x40)\n      tag_126\n      swap3\n      swap2\n      swap1\n      tag_113\n      jump\t// in\n    tag_126:\n      swap1\n      dup2\n      mstore\n      0x20\n      add\n      mload(0x40)\n      dup1\n      swap2\n      sub\n      swap1\n      keccak256\n        /* \"contracts/BusinessConsensus2.sol\":4429:4463  voter_maps[_messageID][msg.sender] */\n      0x00\n        /* \"contracts/BusinessConsensus2.sol\":4452:4462  msg.sender */\n      caller\n        /* \"contracts/BusinessConsensus2.sol\":4429:4463  voter_maps[_messageID][msg.sender] */\n      0xffffffffffffffffffffffffffffffffffffffff\n      and\n      0xffffffffffffffffffffffffffffffffffffffff\n      and\n      dup2\n      mstore\n      0x20\n      add\n      swap1\n      dup2\n      mstore\n      0x20\n      add\n      0x00\n      keccak256\n        /* \"contracts/BusinessConsensus2.sol\":4429:4469  voter_maps[_messageID][msg.sender].voted */\n      0x00\n      add\n      0x00\n        /* \"contracts/BusinessConsensus2.sol\":4429:4476  voter_maps[_messageID][msg.sender].voted = true */\n      0x0100\n      exp\n      dup2\n      sload\n      dup2\n      0xff\n      mul\n      not\n      and\n      swap1\n      dup4\n      iszero\n      iszero\n      mul\n      or\n      swap1\n      sstore\n      pop\n        /* \"contracts/BusinessConsensus2.sol\":4533:4537  true */\n      0x01\n        /* \"contracts/BusinessConsensus2.sol\":4491:4501  voter_maps */\n      dup1\n        /* \"contracts/BusinessConsensus2.sol\":4502:4512  _messageID */\n      dup4\n      dup4\n        /* \"contracts/BusinessConsensus2.sol\":4491:4513  voter_maps[_messageID] */\n      mload(0x40)\n      tag_127\n      swap3\n      swap2\n      swap1\n      tag_113\n      jump\t// in\n    tag_127:\n      swap1\n      dup2\n      mstore\n      0x20\n      add\n      mload(0x40)\n      dup1\n      swap2\n      sub\n      swap1\n      keccak256\n        /* \"contracts/BusinessConsensus2.sol\":4491:4525  voter_maps[_messageID][msg.sender] */\n      0x00\n        /* \"contracts/BusinessConsensus2.sol\":4514:4524  msg.sender */\n      caller\n        /* \"contracts/BusinessConsensus2.sol\":4491:4525  voter_maps[_messageID][msg.sender] */\n      0xffffffffffffffffffffffffffffffffffffffff\n      and\n      0xffffffffffffffffffffffffffffffffffffffff\n      and\n      dup2\n      mstore\n      0x20\n      add\n      swap1\n      dup2\n      mstore\n      0x20\n      add\n      0x00\n      keccak256\n        /* \"contracts/BusinessConsensus2.sol\":4491:4530  voter_maps[_messageID][msg.sender].vote */\n      0x00\n      add\n      0x01\n        /* \"contracts/BusinessConsensus2.sol\":4491:4537  voter_maps[_messageID][msg.sender].vote = true */\n      0x0100\n      exp\n      dup2\n      sload\n      dup2\n      0xff\n      mul\n      not\n      and\n      swap1\n      dup4\n      iszero\n      iszero\n      mul\n      or\n      swap1\n      sstore\n      pop\n        /* \"contracts/BusinessConsensus2.sol\":4598:4599  1 */\n      0x01\n        /* \"contracts/BusinessConsensus2.sol\":4552:4569  businessProposals */\n      0x00\n        /* \"contracts/BusinessConsensus2.sol\":4570:4580  _messageID */\n      dup4\n      dup4\n        /* \"contracts/BusinessConsensus2.sol\":4552:4581  businessProposals[_messageID] */\n      mload(0x40)\n      tag_128\n      swap3\n      swap2\n      swap1\n      tag_113\n      jump\t// in\n    tag_128:\n      swap1\n      dup2\n      mstore\n      0x20\n      add\n      mload(0x40)\n      dup1\n      swap2\n      sub\n      swap1\n      keccak256\n        /* \"contracts/BusinessConsensus2.sol\":4552:4594  businessProposals[_messageID].numApprovals */\n      0x06\n      add\n      0x00\n        /* \"contracts/BusinessConsensus2.sol\":4552:4599  businessProposals[_messageID].numApprovals += 1 */\n      dup3\n      dup3\n      sload\n      tag_129\n      swap2\n      swap1\n      tag_105\n      jump\t// in\n    tag_129:\n      swap3\n      pop\n      pop\n      dup2\n      swap1\n      sstore\n      pop\n        /* \"contracts/BusinessConsensus2.sol\":4657:4658  1 */\n      0x01\n        /* \"contracts/BusinessConsensus2.sol\":4614:4631  businessProposals */\n      0x00\n        /* \"contracts/BusinessConsensus2.sol\":4632:4642  _messageID */\n      dup4\n      dup4\n        /* \"contracts/BusinessConsensus2.sol\":4614:4643  businessProposals[_messageID] */\n      mload(0x40)\n      tag_130\n      swap3\n      swap2\n      swap1\n      tag_113\n      jump\t// in\n    tag_130:\n      swap1\n      dup2\n      mstore\n      0x20\n      add\n      mload(0x40)\n      dup1\n      swap2\n      sub\n      swap1\n      keccak256\n        /* \"contracts/BusinessConsensus2.sol\":4614:4653  businessProposals[_messageID].voteCount */\n      0x03\n      add\n      0x00\n        /* \"contracts/BusinessConsensus2.sol\":4614:4658  businessProposals[_messageID].voteCount += 1 */\n      dup3\n      dup3\n      sload\n      tag_131\n      swap2\n      swap1\n      tag_105\n      jump\t// in\n    tag_131:\n      swap3\n      pop\n      pop\n      dup2\n      swap1\n      sstore\n      pop\n        /* \"contracts/BusinessConsensus2.sol\":4673:4679  Voters */\n      0x02\n        /* \"contracts/BusinessConsensus2.sol\":4680:4690  _messageID */\n      dup3\n      dup3\n        /* \"contracts/BusinessConsensus2.sol\":4673:4691  Voters[_messageID] */\n      mload(0x40)\n      tag_132\n      swap3\n      swap2\n      swap1\n      tag_113\n      jump\t// in\n    tag_132:\n      swap1\n      dup2\n      mstore\n      0x20\n      add\n      mload(0x40)\n      dup1\n      swap2\n      sub\n      swap1\n      keccak256\n        /* \"contracts/BusinessConsensus2.sol\":4697:4707  voter_maps */\n      0x01\n        /* \"contracts/BusinessConsensus2.sol\":4708:4718  _messageID */\n      dup4\n      dup4\n        /* \"contracts/BusinessConsensus2.sol\":4697:4719  voter_maps[_messageID] */\n      mload(0x40)\n      tag_133\n      swap3\n      swap2\n      swap1\n      tag_113\n      jump\t// in\n    tag_133:\n      swap1\n      dup2\n      mstore\n      0x20\n      add\n      mload(0x40)\n      dup1\n      swap2\n      sub\n      swap1\n      keccak256\n        /* \"contracts/BusinessConsensus2.sol\":4697:4731  voter_maps[_messageID][msg.sender] */\n      0x00\n        /* \"contracts/BusinessConsensus2.sol\":4720:4730  msg.sender */\n      caller\n        /* \"contracts/BusinessConsensus2.sol\":4697:4731  voter_maps[_messageID][msg.sender] */\n      0xffffffffffffffffffffffffffffffffffffffff\n      and\n      0xffffffffffffffffffffffffffffffffffffffff\n      and\n      dup2\n      mstore\n      0x20\n      add\n      swap1\n      dup2\n      mstore\n      0x20\n      add\n      0x00\n      keccak256\n        /* \"contracts/BusinessConsensus2.sol\":4673:4732  Voters[_messageID].push(voter_maps[_messageID][msg.sender]) */\n      swap1\n      dup1\n      0x01\n      dup2\n      sload\n      add\n      dup1\n      dup3\n      sstore\n      dup1\n      swap2\n      pop\n      pop\n      0x01\n      swap1\n      sub\n      swap1\n      0x00\n      mstore\n      keccak256(0x00, 0x20)\n      add\n      0x00\n      swap1\n      swap2\n      swap1\n      swap2\n      swap1\n      swap2\n      pop\n      0x00\n      dup3\n      add\n      0x00\n      swap1\n      sload\n      swap1\n      0x0100\n      exp\n      swap1\n      div\n      0xff\n      and\n      dup2\n      0x00\n      add\n      exp(0x0100, 0x00)\n      dup2\n      sload\n      dup2\n      0xff\n      mul\n      not\n      and\n      swap1\n      dup4\n      iszero\n      iszero\n      mul\n      or\n      swap1\n      sstore\n      pop\n      0x00\n      dup3\n      add\n      0x01\n      swap1\n      sload\n      swap1\n      0x0100\n      exp\n      swap1\n      div\n      0xff\n      and\n      dup2\n      0x00\n      add\n      exp(0x0100, 0x01)\n      dup2\n      sload\n      dup2\n      0xff\n      mul\n      not\n      and\n      swap1\n      dup4\n      iszero\n      iszero\n      mul\n      or\n      swap1\n      sstore\n      pop\n      0x00\n      dup3\n      add\n      0x02\n      swap1\n      sload\n      swap1\n      0x0100\n      exp\n      swap1\n      div\n      0xffffffffffffffffffffffffffffffffffffffff\n      and\n      dup2\n      0x00\n      add\n      exp(0x0100, 0x02)\n      dup2\n      sload\n      dup2\n      0xffffffffffffffffffffffffffffffffffffffff\n      mul\n      not\n      and\n      swap1\n      dup4\n      0xffffffffffffffffffffffffffffffffffffffff\n      and\n      mul\n      or\n      swap1\n      sstore\n      pop\n      pop\n      pop\n        /* \"contracts/BusinessConsensus2.sol\":4351:5329  if(keccak256(bytes(response)) == keccak256(bytes(\"i approve\"))){\r... */\n      jump(tag_135)\n    tag_125:\n        /* \"contracts/BusinessConsensus2.sol\":4804:4825  bytes(\"i disapprove\") */\n      mload(0x40)\n      dup1\n      0x40\n      add\n      0x40\n      mstore\n      dup1\n      0x0c\n      dup2\n      mstore\n      0x20\n      add\n      0x6920646973617070726f76650000000000000000000000000000000000000000\n      dup2\n      mstore\n      pop\n        /* \"contracts/BusinessConsensus2.sol\":4794:4826  keccak256(bytes(\"i disapprove\")) */\n      dup1\n      mload\n      swap1\n      0x20\n      add\n      keccak256\n        /* \"contracts/BusinessConsensus2.sol\":4780:4788  response */\n      dup4\n        /* \"contracts/BusinessConsensus2.sol\":4764:4790  keccak256(bytes(response)) */\n      dup1\n      mload\n      swap1\n      0x20\n      add\n      keccak256\n        /* \"contracts/BusinessConsensus2.sol\":4764:4826  keccak256(bytes(response)) == keccak256(bytes(\"i disapprove\")) */\n      eq\n        /* \"contracts/BusinessConsensus2.sol\":4761:5329  if(keccak256(bytes(response)) == keccak256(bytes(\"i disapprove\"))){\r... */\n      iszero\n      tag_136\n      jumpi\n        /* \"contracts/BusinessConsensus2.sol\":4885:4889  true */\n      0x01\n        /* \"contracts/BusinessConsensus2.sol\":4842:4852  voter_maps */\n      dup1\n        /* \"contracts/BusinessConsensus2.sol\":4853:4863  _messageID */\n      dup4\n      dup4\n        /* \"contracts/BusinessConsensus2.sol\":4842:4864  voter_maps[_messageID] */\n      mload(0x40)\n      tag_137\n      swap3\n      swap2\n      swap1\n      tag_113\n      jump\t// in\n    tag_137:\n      swap1\n      dup2\n      mstore\n      0x20\n      add\n      mload(0x40)\n      dup1\n      swap2\n      sub\n      swap1\n      keccak256\n        /* \"contracts/BusinessConsensus2.sol\":4842:4876  voter_maps[_messageID][msg.sender] */\n      0x00\n        /* \"contracts/BusinessConsensus2.sol\":4865:4875  msg.sender */\n      caller\n        /* \"contracts/BusinessConsensus2.sol\":4842:4876  voter_maps[_messageID][msg.sender] */\n      0xffffffffffffffffffffffffffffffffffffffff\n      and\n      0xffffffffffffffffffffffffffffffffffffffff\n      and\n      dup2\n      mstore\n      0x20\n      add\n      swap1\n      dup2\n      mstore\n      0x20\n      add\n      0x00\n      keccak256\n        /* \"contracts/BusinessConsensus2.sol\":4842:4882  voter_maps[_messageID][msg.sender].voted */\n      0x00\n      add\n      0x00\n        /* \"contracts/BusinessConsensus2.sol\":4842:4889  voter_maps[_messageID][msg.sender].voted = true */\n      0x0100\n      exp\n      dup2\n      sload\n      dup2\n      0xff\n      mul\n      not\n      and\n      swap1\n      dup4\n      iszero\n      iszero\n      mul\n      or\n      swap1\n      sstore\n      pop\n        /* \"contracts/BusinessConsensus2.sol\":4947:4948  1 */\n      0x01\n        /* \"contracts/BusinessConsensus2.sol\":4904:4921  businessProposals */\n      0x00\n        /* \"contracts/BusinessConsensus2.sol\":4922:4932  _messageID */\n      dup4\n      dup4\n        /* \"contracts/BusinessConsensus2.sol\":4904:4933  businessProposals[_messageID] */\n      mload(0x40)\n      tag_138\n      swap3\n      swap2\n      swap1\n      tag_113\n      jump\t// in\n    tag_138:\n      swap1\n      dup2\n      mstore\n      0x20\n      add\n      mload(0x40)\n      dup1\n      swap2\n      sub\n      swap1\n      keccak256\n        /* \"contracts/BusinessConsensus2.sol\":4904:4943  businessProposals[_messageID].voteCount */\n      0x03\n      add\n      0x00\n        /* \"contracts/BusinessConsensus2.sol\":4904:4948  businessProposals[_messageID].voteCount += 1 */\n      dup3\n      dup3\n      sload\n      tag_139\n      swap2\n      swap1\n      tag_105\n      jump\t// in\n    tag_139:\n      swap3\n      pop\n      pop\n      dup2\n      swap1\n      sstore\n      pop\n        /* \"contracts/BusinessConsensus2.sol\":4963:4969  Voters */\n      0x02\n        /* \"contracts/BusinessConsensus2.sol\":4970:4980  _messageID */\n      dup3\n      dup3\n        /* \"contracts/BusinessConsensus2.sol\":4963:4981  Voters[_messageID] */\n      mload(0x40)\n      tag_140\n      swap3\n      swap2\n      swap1\n      tag_113\n      jump\t// in\n    tag_140:\n      swap1\n      dup2\n      mstore\n      0x20\n      add\n      mload(0x40)\n      dup1\n      swap2\n      sub\n      swap1\n      keccak256\n        /* \"contracts/BusinessConsensus2.sol\":4987:4997  voter_maps */\n      0x01\n        /* \"contracts/BusinessConsensus2.sol\":4998:5008  _messageID */\n      dup4\n      dup4\n        /* \"contracts/BusinessConsensus2.sol\":4987:5009  voter_maps[_messageID] */\n      mload(0x40)\n      tag_141\n      swap3\n      swap2\n      swap1\n      tag_113\n      jump\t// in\n    tag_141:\n      swap1\n      dup2\n      mstore\n      0x20\n      add\n      mload(0x40)\n      dup1\n      swap2\n      sub\n      swap1\n      keccak256\n        /* \"contracts/BusinessConsensus2.sol\":4987:5021  voter_maps[_messageID][msg.sender] */\n      0x00\n        /* \"contracts/BusinessConsensus2.sol\":5010:5020  msg.sender */\n      caller\n        /* \"contracts/BusinessConsensus2.sol\":4987:5021  voter_maps[_messageID][msg.sender] */\n      0xffffffffffffffffffffffffffffffffffffffff\n      and\n      0xffffffffffffffffffffffffffffffffffffffff\n      and\n      dup2\n      mstore\n      0x20\n      add\n      swap1\n      dup2\n      mstore\n      0x20\n      add\n      0x00\n      keccak256\n        /* \"contracts/BusinessConsensus2.sol\":4963:5022  Voters[_messageID].push(voter_maps[_messageID][msg.sender]) */\n      swap1\n      dup1\n      0x01\n      dup2\n      sload\n      add\n      dup1\n      dup3\n      sstore\n      dup1\n      swap2\n      pop\n      pop\n      0x01\n      swap1\n      sub\n      swap1\n      0x00\n      mstore\n      keccak256(0x00, 0x20)\n      add\n      0x00\n      swap1\n      swap2\n      swap1\n      swap2\n      swap1\n      swap2\n      pop\n      0x00\n      dup3\n      add\n      0x00\n      swap1\n      sload\n      swap1\n      0x0100\n      exp\n      swap1\n      div\n      0xff\n      and\n      dup2\n      0x00\n      add\n      exp(0x0100, 0x00)\n      dup2\n      sload\n      dup2\n      0xff\n      mul\n      not\n      and\n      swap1\n      dup4\n      iszero\n      iszero\n      mul\n      or\n      swap1\n      sstore\n      pop\n      0x00\n      dup3\n      add\n      0x01\n      swap1\n      sload\n      swap1\n      0x0100\n      exp\n      swap1\n      div\n      0xff\n      and\n      dup2\n      0x00\n      add\n      exp(0x0100, 0x01)\n      dup2\n      sload\n      dup2\n      0xff\n      mul\n      not\n      and\n      swap1\n      dup4\n      iszero\n      iszero\n      mul\n      or\n      swap1\n      sstore\n      pop\n      0x00\n      dup3\n      add\n      0x02\n      swap1\n      sload\n      swap1\n      0x0100\n      exp\n      swap1\n      div\n      0xffffffffffffffffffffffffffffffffffffffff\n      and\n      dup2\n      0x00\n      add\n      exp(0x0100, 0x02)\n      dup2\n      sload\n      dup2\n      0xffffffffffffffffffffffffffffffffffffffff\n      mul\n      not\n      and\n      swap1\n      dup4\n      0xffffffffffffffffffffffffffffffffffffffff\n      and\n      mul\n      or\n      swap1\n      sstore\n      pop\n      pop\n      pop\n        /* \"contracts/BusinessConsensus2.sol\":4761:5329  if(keccak256(bytes(response)) == keccak256(bytes(\"i disapprove\"))){\r... */\n      jump(tag_143)\n    tag_136:\n        /* \"contracts/BusinessConsensus2.sol\":5180:5184  true */\n      0x01\n        /* \"contracts/BusinessConsensus2.sol\":5137:5147  voter_maps */\n      dup1\n        /* \"contracts/BusinessConsensus2.sol\":5148:5158  _messageID */\n      dup4\n      dup4\n        /* \"contracts/BusinessConsensus2.sol\":5137:5159  voter_maps[_messageID] */\n      mload(0x40)\n      tag_144\n      swap3\n      swap2\n      swap1\n      tag_113\n      jump\t// in\n    tag_144:\n      swap1\n      dup2\n      mstore\n      0x20\n      add\n      mload(0x40)\n      dup1\n      swap2\n      sub\n      swap1\n      keccak256\n        /* \"contracts/BusinessConsensus2.sol\":5137:5171  voter_maps[_messageID][msg.sender] */\n      0x00\n        /* \"contracts/BusinessConsensus2.sol\":5160:5170  msg.sender */\n      caller\n        /* \"contracts/BusinessConsensus2.sol\":5137:5171  voter_maps[_messageID][msg.sender] */\n      0xffffffffffffffffffffffffffffffffffffffff\n      and\n      0xffffffffffffffffffffffffffffffffffffffff\n      and\n      dup2\n      mstore\n      0x20\n      add\n      swap1\n      dup2\n      mstore\n      0x20\n      add\n      0x00\n      keccak256\n        /* \"contracts/BusinessConsensus2.sol\":5137:5177  voter_maps[_messageID][msg.sender].voted */\n      0x00\n      add\n      0x00\n        /* \"contracts/BusinessConsensus2.sol\":5137:5184  voter_maps[_messageID][msg.sender].voted = true */\n      0x0100\n      exp\n      dup2\n      sload\n      dup2\n      0xff\n      mul\n      not\n      and\n      swap1\n      dup4\n      iszero\n      iszero\n      mul\n      or\n      swap1\n      sstore\n      pop\n        /* \"contracts/BusinessConsensus2.sol\":5242:5243  1 */\n      0x01\n        /* \"contracts/BusinessConsensus2.sol\":5199:5216  businessProposals */\n      0x00\n        /* \"contracts/BusinessConsensus2.sol\":5217:5227  _messageID */\n      dup4\n      dup4\n        /* \"contracts/BusinessConsensus2.sol\":5199:5228  businessProposals[_messageID] */\n      mload(0x40)\n      tag_145\n      swap3\n      swap2\n      swap1\n      tag_113\n      jump\t// in\n    tag_145:\n      swap1\n      dup2\n      mstore\n      0x20\n      add\n      mload(0x40)\n      dup1\n      swap2\n      sub\n      swap1\n      keccak256\n        /* \"contracts/BusinessConsensus2.sol\":5199:5238  businessProposals[_messageID].voteCount */\n      0x03\n      add\n      0x00\n        /* \"contracts/BusinessConsensus2.sol\":5199:5243  businessProposals[_messageID].voteCount += 1 */\n      dup3\n      dup3\n      sload\n      tag_146\n      swap2\n      swap1\n      tag_105\n      jump\t// in\n    tag_146:\n      swap3\n      pop\n      pop\n      dup2\n      swap1\n      sstore\n      pop\n        /* \"contracts/BusinessConsensus2.sol\":5258:5264  Voters */\n      0x02\n        /* \"contracts/BusinessConsensus2.sol\":5265:5275  _messageID */\n      dup3\n      dup3\n        /* \"contracts/BusinessConsensus2.sol\":5258:5276  Voters[_messageID] */\n      mload(0x40)\n      tag_147\n      swap3\n      swap2\n      swap1\n      tag_113\n      jump\t// in\n    tag_147:\n      swap1\n      dup2\n      mstore\n      0x20\n      add\n      mload(0x40)\n      dup1\n      swap2\n      sub\n      swap1\n      keccak256\n        /* \"contracts/BusinessConsensus2.sol\":5282:5292  voter_maps */\n      0x01\n        /* \"contracts/BusinessConsensus2.sol\":5293:5303  _messageID */\n      dup4\n      dup4\n        /* \"contracts/BusinessConsensus2.sol\":5282:5304  voter_maps[_messageID] */\n      mload(0x40)\n      tag_148\n      swap3\n      swap2\n      swap1\n      tag_113\n      jump\t// in\n    tag_148:\n      swap1\n      dup2\n      mstore\n      0x20\n      add\n      mload(0x40)\n      dup1\n      swap2\n      sub\n      swap1\n      keccak256\n        /* \"contracts/BusinessConsensus2.sol\":5282:5316  voter_maps[_messageID][msg.sender] */\n      0x00\n        /* \"contracts/BusinessConsensus2.sol\":5305:5315  msg.sender */\n      caller\n        /* \"contracts/BusinessConsensus2.sol\":5282:5316  voter_maps[_messageID][msg.sender] */\n      0xffffffffffffffffffffffffffffffffffffffff\n      and\n      0xffffffffffffffffffffffffffffffffffffffff\n      and\n      dup2\n      mstore\n      0x20\n      add\n      swap1\n      dup2\n      mstore\n      0x20\n      add\n      0x00\n      keccak256\n        /* \"contracts/BusinessConsensus2.sol\":5258:5317  Voters[_messageID].push(voter_maps[_messageID][msg.sender]) */\n      swap1\n      dup1\n      0x01\n      dup2\n      sload\n      add\n      dup1\n      dup3\n      sstore\n      dup1\n      swap2\n      pop\n      pop\n      0x01\n      swap1\n      sub\n      swap1\n      0x00\n      mstore\n      keccak256(0x00, 0x20)\n      add\n      0x00\n      swap1\n      swap2\n      swap1\n      swap2\n      swap1\n      swap2\n      pop\n      0x00\n      dup3\n      add\n      0x00\n      swap1\n      sload\n      swap1\n      0x0100\n      exp\n      swap1\n      div\n      0xff\n      and\n      dup2\n      0x00\n      add\n      exp(0x0100, 0x00)\n      dup2\n      sload\n      dup2\n      0xff\n      mul\n      not\n      and\n      swap1\n      dup4\n      iszero\n      iszero\n      mul\n      or\n      swap1\n      sstore\n      pop\n      0x00\n      dup3\n      add\n      0x01\n      swap1\n      sload\n      swap1\n      0x0100\n      exp\n      swap1\n      div\n      0xff\n      and\n      dup2\n      0x00\n      add\n      exp(0x0100, 0x01)\n      dup2\n      sload\n      dup2\n      0xff\n      mul\n      not\n      and\n      swap1\n      dup4\n      iszero\n      iszero\n      mul\n      or\n      swap1\n      sstore\n      pop\n      0x00\n      dup3\n      add\n      0x02\n      swap1\n      sload\n      swap1\n      0x0100\n      exp\n      swap1\n      div\n      0xffffffffffffffffffffffffffffffffffffffff\n      and\n      dup2\n      0x00\n      add\n      exp(0x0100, 0x02)\n      dup2\n      sload\n      dup2\n      0xffffffffffffffffffffffffffffffffffffffff\n      mul\n      not\n      and\n      swap1\n      dup4\n      0xffffffffffffffffffffffffffffffffffffffff\n      and\n      mul\n      or\n      swap1\n      sstore\n      pop\n      pop\n      pop\n        /* \"contracts/BusinessConsensus2.sol\":4761:5329  if(keccak256(bytes(response)) == keccak256(bytes(\"i disapprove\"))){\r... */\n    tag_143:\n        /* \"contracts/BusinessConsensus2.sol\":4351:5329  if(keccak256(bytes(response)) == keccak256(bytes(\"i approve\"))){\r... */\n    tag_135:\n        /* \"contracts/BusinessConsensus2.sol\":3955:5346  function Vote(string memory response,string calldata _messageID) external {\r... */\n      pop\n      pop\n      pop\n      jump\t// out\n        /* \"contracts/BusinessConsensus2.sol\":1011:1069  mapping(string=>mapping(address=>Voter)) public voter_maps */\n    tag_41:\n      0x01\n      dup3\n      dup1\n      mload\n      0x20\n      dup2\n      add\n      dup3\n      add\n      dup1\n      mload\n      dup5\n      dup3\n      mstore\n      0x20\n      dup4\n      add\n      0x20\n      dup6\n      add\n      keccak256\n      dup2\n      dup4\n      mstore\n      dup1\n      swap6\n      pop\n      pop\n      pop\n      pop\n      pop\n      pop\n      0x20\n      mstore\n      dup1\n      0x00\n      mstore\n      keccak256(0x00, 0x40)\n      0x00\n      swap2\n      pop\n      swap2\n      pop\n      pop\n      dup1\n      0x00\n      add\n      0x00\n      swap1\n      sload\n      swap1\n      0x0100\n      exp\n      swap1\n      div\n      0xff\n      and\n      swap1\n      dup1\n      0x00\n      add\n      0x01\n      swap1\n      sload\n      swap1\n      0x0100\n      exp\n      swap1\n      div\n      0xff\n      and\n      swap1\n      dup1\n      0x00\n      add\n      0x02\n      swap1\n      sload\n      swap1\n      0x0100\n      exp\n      swap1\n      div\n      0xffffffffffffffffffffffffffffffffffffffff\n      and\n      swap1\n      pop\n      dup4\n      jump\t// out\n        /* \"contracts/BusinessConsensus2.sol\":6477:7036  function retrieve_bundle(string calldata _messageID) external view returns (bytes32, string memory, uint256, Voter[] memory){\r... */\n    tag_47:\n        /* \"contracts/BusinessConsensus2.sol\":6553:6560  bytes32 */\n      0x00\n        /* \"contracts/BusinessConsensus2.sol\":6562:6575  string memory */\n      0x60\n        /* \"contracts/BusinessConsensus2.sol\":6577:6584  uint256 */\n      0x00\n        /* \"contracts/BusinessConsensus2.sol\":6586:6600  Voter[] memory */\n      0x60\n        /* \"contracts/BusinessConsensus2.sol\":6639:6656  businessProposals */\n      0x00\n        /* \"contracts/BusinessConsensus2.sol\":6657:6667  _messageID */\n      dup7\n      dup7\n        /* \"contracts/BusinessConsensus2.sol\":6639:6668  businessProposals[_messageID] */\n      mload(0x40)\n      tag_151\n      swap3\n      swap2\n      swap1\n      tag_113\n      jump\t// in\n    tag_151:\n      swap1\n      dup2\n      mstore\n      0x20\n      add\n      mload(0x40)\n      dup1\n      swap2\n      sub\n      swap1\n      keccak256\n        /* \"contracts/BusinessConsensus2.sol\":6639:6679  businessProposals[_messageID].expiryDate */\n      0x04\n      add\n      sload\n        /* \"contracts/BusinessConsensus2.sol\":6620:6635  block.timestamp */\n      timestamp\n        /* \"contracts/BusinessConsensus2.sol\":6620:6679  block.timestamp >= businessProposals[_messageID].expiryDate */\n      lt\n      iszero\n        /* \"contracts/BusinessConsensus2.sol\":6612:6716  require(block.timestamp >= businessProposals[_messageID].expiryDate, \"Verdict has not been reached yet\") */\n      tag_152\n      jumpi\n      mload(0x40)\n      0x08c379a000000000000000000000000000000000000000000000000000000000\n      dup2\n      mstore\n      0x04\n      add\n      tag_153\n      swap1\n      tag_154\n      jump\t// in\n    tag_153:\n      mload(0x40)\n      dup1\n      swap2\n      sub\n      swap1\n      revert\n    tag_152:\n        /* \"contracts/BusinessConsensus2.sol\":6727:6748  Voter[] memory voters */\n      0x00\n        /* \"contracts/BusinessConsensus2.sol\":6751:6757  Voters */\n      0x02\n        /* \"contracts/BusinessConsensus2.sol\":6758:6768  _messageID */\n      dup8\n      dup8\n        /* \"contracts/BusinessConsensus2.sol\":6751:6769  Voters[_messageID] */\n      mload(0x40)\n      tag_155\n      swap3\n      swap2\n      swap1\n      tag_113\n      jump\t// in\n    tag_155:\n      swap1\n      dup2\n      mstore\n      0x20\n      add\n      mload(0x40)\n      dup1\n      swap2\n      sub\n      swap1\n      keccak256\n        /* \"contracts/BusinessConsensus2.sol\":6727:6769  Voter[] memory voters = Voters[_messageID] */\n      dup1\n      sload\n      dup1\n      0x20\n      mul\n      0x20\n      add\n      mload(0x40)\n      swap1\n      dup2\n      add\n      0x40\n      mstore\n      dup1\n      swap3\n      swap2\n      swap1\n      dup2\n      dup2\n      mstore\n      0x20\n      add\n      0x00\n      swap1\n    tag_156:\n      dup3\n      dup3\n      lt\n      iszero\n      tag_157\n      jumpi\n      dup4\n      dup3\n      swap1\n      0x00\n      mstore\n      keccak256(0x00, 0x20)\n      add\n      mload(0x40)\n      dup1\n      0x60\n      add\n      0x40\n      mstore\n      swap1\n      dup2\n      0x00\n      dup3\n      add\n      0x00\n      swap1\n      sload\n      swap1\n      0x0100\n      exp\n      swap1\n      div\n      0xff\n      and\n      iszero\n      iszero\n      iszero\n      iszero\n      dup2\n      mstore\n      0x20\n      add\n      0x00\n      dup3\n      add\n      0x01\n      swap1\n      sload\n      swap1\n      0x0100\n      exp\n      swap1\n      div\n      0xff\n      and\n      iszero\n      iszero\n      iszero\n      iszero\n      dup2\n      mstore\n      0x20\n      add\n      0x00\n      dup3\n      add\n      0x02\n      swap1\n      sload\n      swap1\n      0x0100\n      exp\n      swap1\n      div\n      0xffffffffffffffffffffffffffffffffffffffff\n      and\n      0xffffffffffffffffffffffffffffffffffffffff\n      and\n      0xffffffffffffffffffffffffffffffffffffffff\n      and\n      dup2\n      mstore\n      pop\n      pop\n      dup2\n      mstore\n      0x20\n      add\n      swap1\n      0x01\n      add\n      swap1\n      jump(tag_156)\n    tag_157:\n      pop\n      pop\n      pop\n      pop\n      swap1\n      pop\n        /* \"contracts/BusinessConsensus2.sol\":6780:6796  string memory ID */\n      0x00\n        /* \"contracts/BusinessConsensus2.sol\":6799:6816  businessProposals */\n      dup1\n        /* \"contracts/BusinessConsensus2.sol\":6817:6827  _messageID */\n      dup9\n      dup9\n        /* \"contracts/BusinessConsensus2.sol\":6799:6828  businessProposals[_messageID] */\n      mload(0x40)\n      tag_159\n      swap3\n      swap2\n      swap1\n      tag_113\n      jump\t// in\n    tag_159:\n      swap1\n      dup2\n      mstore\n      0x20\n      add\n      mload(0x40)\n      dup1\n      swap2\n      sub\n      swap1\n      keccak256\n        /* \"contracts/BusinessConsensus2.sol\":6799:6838  businessProposals[_messageID].messageID */\n      0x00\n      add\n        /* \"contracts/BusinessConsensus2.sol\":6780:6838  string memory ID = businessProposals[_messageID].messageID */\n      dup1\n      sload\n      tag_160\n      swap1\n      tag_83\n      jump\t// in\n    tag_160:\n      dup1\n      0x1f\n      add\n      0x20\n      dup1\n      swap2\n      div\n      mul\n      0x20\n      add\n      mload(0x40)\n      swap1\n      dup2\n      add\n      0x40\n      mstore\n      dup1\n      swap3\n      swap2\n      swap1\n      dup2\n      dup2\n      mstore\n      0x20\n      add\n      dup3\n      dup1\n      sload\n      tag_161\n      swap1\n      tag_83\n      jump\t// in\n    tag_161:\n      dup1\n      iszero\n      tag_162\n      jumpi\n      dup1\n      0x1f\n      lt\n      tag_163\n      jumpi\n      0x0100\n      dup1\n      dup4\n      sload\n      div\n      mul\n      dup4\n      mstore\n      swap2\n      0x20\n      add\n      swap2\n      jump(tag_162)\n    tag_163:\n      dup3\n      add\n      swap2\n      swap1\n      0x00\n      mstore\n      keccak256(0x00, 0x20)\n      swap1\n    tag_164:\n      dup2\n      sload\n      dup2\n      mstore\n      swap1\n      0x01\n      add\n      swap1\n      0x20\n      add\n      dup1\n      dup4\n      gt\n      tag_164\n      jumpi\n      dup3\n      swap1\n      sub\n      0x1f\n      and\n      dup3\n      add\n      swap2\n    tag_162:\n      pop\n      pop\n      pop\n      pop\n      pop\n      swap1\n      pop\n        /* \"contracts/BusinessConsensus2.sol\":6849:6864  bytes32 verdict */\n      0x00\n        /* \"contracts/BusinessConsensus2.sol\":6867:6884  businessProposals */\n      dup1\n        /* \"contracts/BusinessConsensus2.sol\":6885:6895  _messageID */\n      dup10\n      dup10\n        /* \"contracts/BusinessConsensus2.sol\":6867:6896  businessProposals[_messageID] */\n      mload(0x40)\n      tag_165\n      swap3\n      swap2\n      swap1\n      tag_113\n      jump\t// in\n    tag_165:\n      swap1\n      dup2\n      mstore\n      0x20\n      add\n      mload(0x40)\n      dup1\n      swap2\n      sub\n      swap1\n      keccak256\n        /* \"contracts/BusinessConsensus2.sol\":6867:6909  businessProposals[_messageID].finalVerdict */\n      0x08\n      add\n      sload\n        /* \"contracts/BusinessConsensus2.sol\":6849:6909  bytes32 verdict = businessProposals[_messageID].finalVerdict */\n      swap1\n      pop\n        /* \"contracts/BusinessConsensus2.sol\":6920:6933  uint256 count */\n      0x00\n        /* \"contracts/BusinessConsensus2.sol\":6936:6953  businessProposals */\n      dup1\n        /* \"contracts/BusinessConsensus2.sol\":6954:6964  _messageID */\n      dup11\n      dup11\n        /* \"contracts/BusinessConsensus2.sol\":6936:6965  businessProposals[_messageID] */\n      mload(0x40)\n      tag_166\n      swap3\n      swap2\n      swap1\n      tag_113\n      jump\t// in\n    tag_166:\n      swap1\n      dup2\n      mstore\n      0x20\n      add\n      mload(0x40)\n      dup1\n      swap2\n      sub\n      swap1\n      keccak256\n        /* \"contracts/BusinessConsensus2.sol\":6936:6975  businessProposals[_messageID].voteCount */\n      0x03\n      add\n      sload\n        /* \"contracts/BusinessConsensus2.sol\":6920:6975  uint256 count = businessProposals[_messageID].voteCount */\n      swap1\n      pop\n        /* \"contracts/BusinessConsensus2.sol\":6994:7001  verdict */\n      dup2\n        /* \"contracts/BusinessConsensus2.sol\":7002:7004  ID */\n      dup4\n        /* \"contracts/BusinessConsensus2.sol\":7005:7010  count */\n      dup3\n        /* \"contracts/BusinessConsensus2.sol\":7011:7017  voters */\n      dup7\n        /* \"contracts/BusinessConsensus2.sol\":6986:7018  return (verdict,ID,count,voters) */\n      swap8\n      pop\n      swap8\n      pop\n      swap8\n      pop\n      swap8\n      pop\n      pop\n      pop\n      pop\n      pop\n        /* \"contracts/BusinessConsensus2.sol\":6477:7036  function retrieve_bundle(string calldata _messageID) external view returns (bytes32, string memory, uint256, Voter[] memory){\r... */\n      swap3\n      swap6\n      swap2\n      swap5\n      pop\n      swap3\n      pop\n      jump\t// out\n        /* \"contracts/BusinessConsensus2.sol\":3150:3947  function RegisterVoter(address voter,string calldata _messageID) external {\r... */\n    tag_53:\n        /* \"contracts/BusinessConsensus2.sol\":3345:3362  businessProposals */\n      0x00\n        /* \"contracts/BusinessConsensus2.sol\":3363:3373  _messageID */\n      dup3\n      dup3\n        /* \"contracts/BusinessConsensus2.sol\":3345:3374  businessProposals[_messageID] */\n      mload(0x40)\n      tag_168\n      swap3\n      swap2\n      swap1\n      tag_113\n      jump\t// in\n    tag_168:\n      swap1\n      dup2\n      mstore\n      0x20\n      add\n      mload(0x40)\n      dup1\n      swap2\n      sub\n      swap1\n      keccak256\n        /* \"contracts/BusinessConsensus2.sol\":3345:3384  businessProposals[_messageID].initiator */\n      0x01\n      add\n      0x00\n      swap1\n      sload\n      swap1\n      0x0100\n      exp\n      swap1\n      div\n      0xffffffffffffffffffffffffffffffffffffffff\n      and\n        /* \"contracts/BusinessConsensus2.sol\":3331:3384  msg.sender == businessProposals[_messageID].initiator */\n      0xffffffffffffffffffffffffffffffffffffffff\n      and\n        /* \"contracts/BusinessConsensus2.sol\":3331:3341  msg.sender */\n      caller\n        /* \"contracts/BusinessConsensus2.sol\":3331:3384  msg.sender == businessProposals[_messageID].initiator */\n      0xffffffffffffffffffffffffffffffffffffffff\n      and\n      eq\n        /* \"contracts/BusinessConsensus2.sol\":3309:3452  require(\r... */\n      tag_169\n      jumpi\n      mload(0x40)\n      0x08c379a000000000000000000000000000000000000000000000000000000000\n      dup2\n      mstore\n      0x04\n      add\n      tag_170\n      swap1\n      tag_171\n      jump\t// in\n    tag_170:\n      mload(0x40)\n      dup1\n      swap2\n      sub\n      swap1\n      revert\n    tag_169:\n        /* \"contracts/BusinessConsensus2.sol\":3480:3497  businessProposals */\n      0x00\n        /* \"contracts/BusinessConsensus2.sol\":3498:3508  _messageID */\n      dup3\n      dup3\n        /* \"contracts/BusinessConsensus2.sol\":3480:3509  businessProposals[_messageID] */\n      mload(0x40)\n      tag_172\n      swap3\n      swap2\n      swap1\n      tag_113\n      jump\t// in\n    tag_172:\n      swap1\n      dup2\n      mstore\n      0x20\n      add\n      mload(0x40)\n      dup1\n      swap2\n      sub\n      swap1\n      keccak256\n        /* \"contracts/BusinessConsensus2.sol\":3480:3519  businessProposals[_messageID].initiator */\n      0x01\n      add\n      0x00\n      swap1\n      sload\n      swap1\n      0x0100\n      exp\n      swap1\n      div\n      0xffffffffffffffffffffffffffffffffffffffff\n      and\n        /* \"contracts/BusinessConsensus2.sol\":3471:3519  voter != businessProposals[_messageID].initiator */\n      0xffffffffffffffffffffffffffffffffffffffff\n      and\n        /* \"contracts/BusinessConsensus2.sol\":3471:3476  voter */\n      dup4\n        /* \"contracts/BusinessConsensus2.sol\":3471:3519  voter != businessProposals[_messageID].initiator */\n      0xffffffffffffffffffffffffffffffffffffffff\n      and\n      eq\n      iszero\n        /* \"contracts/BusinessConsensus2.sol\":3463:3545  require(voter != businessProposals[_messageID].initiator, \"Initiator can't vote!\") */\n      tag_173\n      jumpi\n      mload(0x40)\n      0x08c379a000000000000000000000000000000000000000000000000000000000\n      dup2\n      mstore\n      0x04\n      add\n      tag_174\n      swap1\n      tag_175\n      jump\t// in\n    tag_174:\n      mload(0x40)\n      dup1\n      swap2\n      sub\n      swap1\n      revert\n    tag_173:\n        /* \"contracts/BusinessConsensus2.sol\":3617:3618  0 */\n      0x00\n        /* \"contracts/BusinessConsensus2.sol\":3566:3619  voter_maps[_messageID][voter].recipient == address(0) */\n      0xffffffffffffffffffffffffffffffffffffffff\n      and\n        /* \"contracts/BusinessConsensus2.sol\":3566:3576  voter_maps */\n      0x01\n        /* \"contracts/BusinessConsensus2.sol\":3577:3587  _messageID */\n      dup4\n      dup4\n        /* \"contracts/BusinessConsensus2.sol\":3566:3588  voter_maps[_messageID] */\n      mload(0x40)\n      tag_176\n      swap3\n      swap2\n      swap1\n      tag_113\n      jump\t// in\n    tag_176:\n      swap1\n      dup2\n      mstore\n      0x20\n      add\n      mload(0x40)\n      dup1\n      swap2\n      sub\n      swap1\n      keccak256\n        /* \"contracts/BusinessConsensus2.sol\":3566:3595  voter_maps[_messageID][voter] */\n      0x00\n        /* \"contracts/BusinessConsensus2.sol\":3589:3594  voter */\n      dup6\n        /* \"contracts/BusinessConsensus2.sol\":3566:3595  voter_maps[_messageID][voter] */\n      0xffffffffffffffffffffffffffffffffffffffff\n      and\n      0xffffffffffffffffffffffffffffffffffffffff\n      and\n      dup2\n      mstore\n      0x20\n      add\n      swap1\n      dup2\n      mstore\n      0x20\n      add\n      0x00\n      keccak256\n        /* \"contracts/BusinessConsensus2.sol\":3566:3605  voter_maps[_messageID][voter].recipient */\n      0x00\n      add\n      0x02\n      swap1\n      sload\n      swap1\n      0x0100\n      exp\n      swap1\n      div\n      0xffffffffffffffffffffffffffffffffffffffff\n      and\n        /* \"contracts/BusinessConsensus2.sol\":3566:3619  voter_maps[_messageID][voter].recipient == address(0) */\n      0xffffffffffffffffffffffffffffffffffffffff\n      and\n      eq\n        /* \"contracts/BusinessConsensus2.sol\":3558:3655  require(voter_maps[_messageID][voter].recipient == address(0), \"Recipient is already registered\") */\n      tag_177\n      jumpi\n      mload(0x40)\n      0x08c379a000000000000000000000000000000000000000000000000000000000\n      dup2\n      mstore\n      0x04\n      add\n      tag_178\n      swap1\n      tag_179\n      jump\t// in\n    tag_178:\n      mload(0x40)\n      dup1\n      swap2\n      sub\n      swap1\n      revert\n    tag_177:\n        /* \"contracts/BusinessConsensus2.sol\":3694:3711  businessProposals */\n      0x00\n        /* \"contracts/BusinessConsensus2.sol\":3712:3722  _messageID */\n      dup3\n      dup3\n        /* \"contracts/BusinessConsensus2.sol\":3694:3723  businessProposals[_messageID] */\n      mload(0x40)\n      tag_180\n      swap3\n      swap2\n      swap1\n      tag_113\n      jump\t// in\n    tag_180:\n      swap1\n      dup2\n      mstore\n      0x20\n      add\n      mload(0x40)\n      dup1\n      swap2\n      sub\n      swap1\n      keccak256\n        /* \"contracts/BusinessConsensus2.sol\":3694:3734  businessProposals[_messageID].expiryDate */\n      0x04\n      add\n      sload\n        /* \"contracts/BusinessConsensus2.sol\":3676:3691  block.timestamp */\n      timestamp\n        /* \"contracts/BusinessConsensus2.sol\":3676:3734  block.timestamp < businessProposals[_messageID].expiryDate */\n      lt\n        /* \"contracts/BusinessConsensus2.sol\":3668:3775  require(block.timestamp < businessProposals[_messageID].expiryDate, \"Proposal has reached its expiry date\") */\n      tag_181\n      jumpi\n      mload(0x40)\n      0x08c379a000000000000000000000000000000000000000000000000000000000\n      dup2\n      mstore\n      0x04\n      add\n      tag_182\n      swap1\n      tag_183\n      jump\t// in\n    tag_182:\n      mload(0x40)\n      dup1\n      swap2\n      sub\n      swap1\n      revert\n    tag_181:\n        /* \"contracts/BusinessConsensus2.sol\":3788:3802  Voter memory x */\n      0x00\n        /* \"contracts/BusinessConsensus2.sol\":3805:3856  Voter({voted: false,recipient: voter, vote: false}) */\n      mload(0x40)\n      dup1\n      0x60\n      add\n      0x40\n      mstore\n      dup1\n        /* \"contracts/BusinessConsensus2.sol\":3819:3824  false */\n      0x00\n        /* \"contracts/BusinessConsensus2.sol\":3805:3856  Voter({voted: false,recipient: voter, vote: false}) */\n      iszero\n      iszero\n      dup2\n      mstore\n      0x20\n      add\n        /* \"contracts/BusinessConsensus2.sol\":3849:3854  false */\n      0x00\n        /* \"contracts/BusinessConsensus2.sol\":3805:3856  Voter({voted: false,recipient: voter, vote: false}) */\n      iszero\n      iszero\n      dup2\n      mstore\n      0x20\n      add\n        /* \"contracts/BusinessConsensus2.sol\":3836:3841  voter */\n      dup6\n        /* \"contracts/BusinessConsensus2.sol\":3805:3856  Voter({voted: false,recipient: voter, vote: false}) */\n      0xffffffffffffffffffffffffffffffffffffffff\n      and\n      dup2\n      mstore\n      pop\n        /* \"contracts/BusinessConsensus2.sol\":3788:3856  Voter memory x = Voter({voted: false,recipient: voter, vote: false}) */\n      swap1\n      pop\n        /* \"contracts/BusinessConsensus2.sol\":3899:3900  x */\n      dup1\n        /* \"contracts/BusinessConsensus2.sol\":3867:3877  voter_maps */\n      0x01\n        /* \"contracts/BusinessConsensus2.sol\":3878:3888  _messageID */\n      dup5\n      dup5\n        /* \"contracts/BusinessConsensus2.sol\":3867:3889  voter_maps[_messageID] */\n      mload(0x40)\n      tag_184\n      swap3\n      swap2\n      swap1\n      tag_113\n      jump\t// in\n    tag_184:\n      swap1\n      dup2\n      mstore\n      0x20\n      add\n      mload(0x40)\n      dup1\n      swap2\n      sub\n      swap1\n      keccak256\n        /* \"contracts/BusinessConsensus2.sol\":3867:3896  voter_maps[_messageID][voter] */\n      0x00\n        /* \"contracts/BusinessConsensus2.sol\":3890:3895  voter */\n      dup7\n        /* \"contracts/BusinessConsensus2.sol\":3867:3896  voter_maps[_messageID][voter] */\n      0xffffffffffffffffffffffffffffffffffffffff\n      and\n      0xffffffffffffffffffffffffffffffffffffffff\n      and\n      dup2\n      mstore\n      0x20\n      add\n      swap1\n      dup2\n      mstore\n      0x20\n      add\n      0x00\n      keccak256\n        /* \"contracts/BusinessConsensus2.sol\":3867:3900  voter_maps[_messageID][voter] = x */\n      0x00\n      dup3\n      add\n      mload\n      dup2\n      0x00\n      add\n      exp(0x0100, 0x00)\n      dup2\n      sload\n      dup2\n      0xff\n      mul\n      not\n      and\n      swap1\n      dup4\n      iszero\n      iszero\n      mul\n      or\n      swap1\n      sstore\n      pop\n      0x20\n      dup3\n      add\n      mload\n      dup2\n      0x00\n      add\n      exp(0x0100, 0x01)\n      dup2\n      sload\n      dup2\n      0xff\n      mul\n      not\n      and\n      swap1\n      dup4\n      iszero\n      iszero\n      mul\n      or\n      swap1\n      sstore\n      pop\n      0x40\n      dup3\n      add\n      mload\n      dup2\n      0x00\n      add\n      exp(0x0100, 0x02)\n      dup2\n      sload\n      dup2\n      0xffffffffffffffffffffffffffffffffffffffff\n      mul\n      not\n      and\n      swap1\n      dup4\n      0xffffffffffffffffffffffffffffffffffffffff\n      and\n      mul\n      or\n      swap1\n      sstore\n      pop\n      swap1\n      pop\n      pop\n        /* \"contracts/BusinessConsensus2.sol\":3911:3915  keys */\n      0x03\n        /* \"contracts/BusinessConsensus2.sol\":3916:3926  _messageID */\n      dup4\n      dup4\n        /* \"contracts/BusinessConsensus2.sol\":3911:3927  keys[_messageID] */\n      mload(0x40)\n      tag_185\n      swap3\n      swap2\n      swap1\n      tag_113\n      jump\t// in\n    tag_185:\n      swap1\n      dup2\n      mstore\n      0x20\n      add\n      mload(0x40)\n      dup1\n      swap2\n      sub\n      swap1\n      keccak256\n        /* \"contracts/BusinessConsensus2.sol\":3933:3938  voter */\n      dup5\n        /* \"contracts/BusinessConsensus2.sol\":3911:3939  keys[_messageID].push(voter) */\n      swap1\n      dup1\n      0x01\n      dup2\n      sload\n      add\n      dup1\n      dup3\n      sstore\n      dup1\n      swap2\n      pop\n      pop\n      0x01\n      swap1\n      sub\n      swap1\n      0x00\n      mstore\n      keccak256(0x00, 0x20)\n      add\n      0x00\n      swap1\n      swap2\n      swap1\n      swap2\n      swap1\n      swap2\n      0x0100\n      exp\n      dup2\n      sload\n      dup2\n      0xffffffffffffffffffffffffffffffffffffffff\n      mul\n      not\n      and\n      swap1\n      dup4\n      0xffffffffffffffffffffffffffffffffffffffff\n      and\n      mul\n      or\n      swap1\n      sstore\n      pop\n        /* \"contracts/BusinessConsensus2.sol\":3224:3947  {\r... */\n      pop\n        /* \"contracts/BusinessConsensus2.sol\":3150:3947  function RegisterVoter(address voter,string calldata _messageID) external {\r... */\n      pop\n      pop\n      pop\n      jump\t// out\n        /* \"contracts/BusinessConsensus2.sol\":2404:2761  function getParameters(string calldata _messageID) external view returns (string memory, uint , address ,uint ,uint){\r... */\n    tag_56:\n        /* \"contracts/BusinessConsensus2.sol\":2478:2491  string memory */\n      0x60\n        /* \"contracts/BusinessConsensus2.sol\":2493:2497  uint */\n      0x00\n        /* \"contracts/BusinessConsensus2.sol\":2500:2507  address */\n      dup1\n        /* \"contracts/BusinessConsensus2.sol\":2509:2513  uint */\n      0x00\n        /* \"contracts/BusinessConsensus2.sol\":2515:2519  uint */\n      dup1\n        /* \"contracts/BusinessConsensus2.sol\":2539:2556  businessProposals */\n      0x00\n        /* \"contracts/BusinessConsensus2.sol\":2557:2567  _messageID */\n      dup8\n      dup8\n        /* \"contracts/BusinessConsensus2.sol\":2539:2568  businessProposals[_messageID] */\n      mload(0x40)\n      tag_188\n      swap3\n      swap2\n      swap1\n      tag_113\n      jump\t// in\n    tag_188:\n      swap1\n      dup2\n      mstore\n      0x20\n      add\n      mload(0x40)\n      dup1\n      swap2\n      sub\n      swap1\n      keccak256\n        /* \"contracts/BusinessConsensus2.sol\":2539:2578  businessProposals[_messageID].messageID */\n      0x00\n      add\n        /* \"contracts/BusinessConsensus2.sol\":2579:2596  businessProposals */\n      0x00\n        /* \"contracts/BusinessConsensus2.sol\":2597:2607  _messageID */\n      dup9\n      dup9\n        /* \"contracts/BusinessConsensus2.sol\":2579:2608  businessProposals[_messageID] */\n      mload(0x40)\n      tag_189\n      swap3\n      swap2\n      swap1\n      tag_113\n      jump\t// in\n    tag_189:\n      swap1\n      dup2\n      mstore\n      0x20\n      add\n      mload(0x40)\n      dup1\n      swap2\n      sub\n      swap1\n      keccak256\n        /* \"contracts/BusinessConsensus2.sol\":2579:2619  businessProposals[_messageID].expiryDate */\n      0x04\n      add\n      sload\n        /* \"contracts/BusinessConsensus2.sol\":2620:2637  businessProposals */\n      0x00\n        /* \"contracts/BusinessConsensus2.sol\":2638:2648  _messageID */\n      dup10\n      dup10\n        /* \"contracts/BusinessConsensus2.sol\":2620:2649  businessProposals[_messageID] */\n      mload(0x40)\n      tag_190\n      swap3\n      swap2\n      swap1\n      tag_113\n      jump\t// in\n    tag_190:\n      swap1\n      dup2\n      mstore\n      0x20\n      add\n      mload(0x40)\n      dup1\n      swap2\n      sub\n      swap1\n      keccak256\n        /* \"contracts/BusinessConsensus2.sol\":2620:2659  businessProposals[_messageID].initiator */\n      0x01\n      add\n      0x00\n      swap1\n      sload\n      swap1\n      0x0100\n      exp\n      swap1\n      div\n      0xffffffffffffffffffffffffffffffffffffffff\n      and\n        /* \"contracts/BusinessConsensus2.sol\":2660:2677  businessProposals */\n      0x00\n        /* \"contracts/BusinessConsensus2.sol\":2678:2688  _messageID */\n      dup11\n      dup11\n        /* \"contracts/BusinessConsensus2.sol\":2660:2689  businessProposals[_messageID] */\n      mload(0x40)\n      tag_191\n      swap3\n      swap2\n      swap1\n      tag_113\n      jump\t// in\n    tag_191:\n      swap1\n      dup2\n      mstore\n      0x20\n      add\n      mload(0x40)\n      dup1\n      swap2\n      sub\n      swap1\n      keccak256\n        /* \"contracts/BusinessConsensus2.sol\":2660:2709  businessProposals[_messageID].BusinessRequirement */\n      0x05\n      add\n      sload\n        /* \"contracts/BusinessConsensus2.sol\":2710:2727  businessProposals */\n      0x00\n        /* \"contracts/BusinessConsensus2.sol\":2728:2738  _messageID */\n      dup12\n      dup12\n        /* \"contracts/BusinessConsensus2.sol\":2710:2739  businessProposals[_messageID] */\n      mload(0x40)\n      tag_192\n      swap3\n      swap2\n      swap1\n      tag_113\n      jump\t// in\n    tag_192:\n      swap1\n      dup2\n      mstore\n      0x20\n      add\n      mload(0x40)\n      dup1\n      swap2\n      sub\n      swap1\n      keccak256\n        /* \"contracts/BusinessConsensus2.sol\":2710:2752  businessProposals[_messageID].numApprovals */\n      0x06\n      add\n      sload\n        /* \"contracts/BusinessConsensus2.sol\":2531:2753  return (businessProposals[_messageID].messageID,businessProposals[_messageID].expiryDate,businessProposals[_messageID].initiator,businessProposals[_messageID].BusinessRequirement,businessProposals[_messageID].numApprovals) */\n      dup5\n      dup1\n      sload\n      tag_193\n      swap1\n      tag_83\n      jump\t// in\n    tag_193:\n      dup1\n      0x1f\n      add\n      0x20\n      dup1\n      swap2\n      div\n      mul\n      0x20\n      add\n      mload(0x40)\n      swap1\n      dup2\n      add\n      0x40\n      mstore\n      dup1\n      swap3\n      swap2\n      swap1\n      dup2\n      dup2\n      mstore\n      0x20\n      add\n      dup3\n      dup1\n      sload\n      tag_194\n      swap1\n      tag_83\n      jump\t// in\n    tag_194:\n      dup1\n      iszero\n      tag_195\n      jumpi\n      dup1\n      0x1f\n      lt\n      tag_196\n      jumpi\n      0x0100\n      dup1\n      dup4\n      sload\n      div\n      mul\n      dup4\n      mstore\n      swap2\n      0x20\n      add\n      swap2\n      jump(tag_195)\n    tag_196:\n      dup3\n      add\n      swap2\n      swap1\n      0x00\n      mstore\n      keccak256(0x00, 0x20)\n      swap1\n    tag_197:\n      dup2\n      sload\n      dup2\n      mstore\n      swap1\n      0x01\n      add\n      swap1\n      0x20\n      add\n      dup1\n      dup4\n      gt\n      tag_197\n      jumpi\n      dup3\n      swap1\n      sub\n      0x1f\n      and\n      dup3\n      add\n      swap2\n    tag_195:\n      pop\n      pop\n      pop\n      pop\n      pop\n      swap5\n      pop\n      swap5\n      pop\n      swap5\n      pop\n      swap5\n      pop\n      swap5\n      pop\n      swap5\n      pop\n        /* \"contracts/BusinessConsensus2.sol\":2404:2761  function getParameters(string calldata _messageID) external view returns (string memory, uint , address ,uint ,uint){\r... */\n      swap3\n      swap6\n      pop\n      swap3\n      swap6\n      swap1\n      swap4\n      pop\n      jump\t// out\n        /* \"contracts/BusinessConsensus2.sol\":2767:3044  function getParameters2(address test_address,string calldata _messageID) external view returns (bool, bool, address){\r... */\n    tag_61:\n        /* \"contracts/BusinessConsensus2.sol\":2863:2867  bool */\n      0x00\n        /* \"contracts/BusinessConsensus2.sol\":2869:2873  bool */\n      dup1\n        /* \"contracts/BusinessConsensus2.sol\":2875:2882  address */\n      0x00\n        /* \"contracts/BusinessConsensus2.sol\":2902:2912  voter_maps */\n      0x01\n        /* \"contracts/BusinessConsensus2.sol\":2913:2923  _messageID */\n      dup6\n      dup6\n        /* \"contracts/BusinessConsensus2.sol\":2902:2924  voter_maps[_messageID] */\n      mload(0x40)\n      tag_199\n      swap3\n      swap2\n      swap1\n      tag_113\n      jump\t// in\n    tag_199:\n      swap1\n      dup2\n      mstore\n      0x20\n      add\n      mload(0x40)\n      dup1\n      swap2\n      sub\n      swap1\n      keccak256\n        /* \"contracts/BusinessConsensus2.sol\":2902:2938  voter_maps[_messageID][test_address] */\n      0x00\n        /* \"contracts/BusinessConsensus2.sol\":2925:2937  test_address */\n      dup8\n        /* \"contracts/BusinessConsensus2.sol\":2902:2938  voter_maps[_messageID][test_address] */\n      0xffffffffffffffffffffffffffffffffffffffff\n      and\n      0xffffffffffffffffffffffffffffffffffffffff\n      and\n      dup2\n      mstore\n      0x20\n      add\n      swap1\n      dup2\n      mstore\n      0x20\n      add\n      0x00\n      keccak256\n        /* \"contracts/BusinessConsensus2.sol\":2902:2943  voter_maps[_messageID][test_address].vote */\n      0x00\n      add\n      0x01\n      swap1\n      sload\n      swap1\n      0x0100\n      exp\n      swap1\n      div\n      0xff\n      and\n        /* \"contracts/BusinessConsensus2.sol\":2945:2955  voter_maps */\n      0x01\n        /* \"contracts/BusinessConsensus2.sol\":2956:2966  _messageID */\n      dup7\n      dup7\n        /* \"contracts/BusinessConsensus2.sol\":2945:2967  voter_maps[_messageID] */\n      mload(0x40)\n      tag_200\n      swap3\n      swap2\n      swap1\n      tag_113\n      jump\t// in\n    tag_200:\n      swap1\n      dup2\n      mstore\n      0x20\n      add\n      mload(0x40)\n      dup1\n      swap2\n      sub\n      swap1\n      keccak256\n        /* \"contracts/BusinessConsensus2.sol\":2945:2981  voter_maps[_messageID][test_address] */\n      0x00\n        /* \"contracts/BusinessConsensus2.sol\":2968:2980  test_address */\n      dup9\n        /* \"contracts/BusinessConsensus2.sol\":2945:2981  voter_maps[_messageID][test_address] */\n      0xffffffffffffffffffffffffffffffffffffffff\n      and\n      0xffffffffffffffffffffffffffffffffffffffff\n      and\n      dup2\n      mstore\n      0x20\n      add\n      swap1\n      dup2\n      mstore\n      0x20\n      add\n      0x00\n      keccak256\n        /* \"contracts/BusinessConsensus2.sol\":2945:2987  voter_maps[_messageID][test_address].voted */\n      0x00\n      add\n      0x00\n      swap1\n      sload\n      swap1\n      0x0100\n      exp\n      swap1\n      div\n      0xff\n      and\n        /* \"contracts/BusinessConsensus2.sol\":2989:2999  voter_maps */\n      0x01\n        /* \"contracts/BusinessConsensus2.sol\":3000:3010  _messageID */\n      dup8\n      dup8\n        /* \"contracts/BusinessConsensus2.sol\":2989:3011  voter_maps[_messageID] */\n      mload(0x40)\n      tag_201\n      swap3\n      swap2\n      swap1\n      tag_113\n      jump\t// in\n    tag_201:\n      swap1\n      dup2\n      mstore\n      0x20\n      add\n      mload(0x40)\n      dup1\n      swap2\n      sub\n      swap1\n      keccak256\n        /* \"contracts/BusinessConsensus2.sol\":2989:3025  voter_maps[_messageID][test_address] */\n      0x00\n        /* \"contracts/BusinessConsensus2.sol\":3012:3024  test_address */\n      dup10\n        /* \"contracts/BusinessConsensus2.sol\":2989:3025  voter_maps[_messageID][test_address] */\n      0xffffffffffffffffffffffffffffffffffffffff\n      and\n      0xffffffffffffffffffffffffffffffffffffffff\n      and\n      dup2\n      mstore\n      0x20\n      add\n      swap1\n      dup2\n      mstore\n      0x20\n      add\n      0x00\n      keccak256\n        /* \"contracts/BusinessConsensus2.sol\":2989:3035  voter_maps[_messageID][test_address].recipient */\n      0x00\n      add\n      0x02\n      swap1\n      sload\n      swap1\n      0x0100\n      exp\n      swap1\n      div\n      0xffffffffffffffffffffffffffffffffffffffff\n      and\n        /* \"contracts/BusinessConsensus2.sol\":2894:3036  return (voter_maps[_messageID][test_address].vote, voter_maps[_messageID][test_address].voted, voter_maps[_messageID][test_address].recipient) */\n      swap3\n      pop\n      swap3\n      pop\n      swap3\n      pop\n        /* \"contracts/BusinessConsensus2.sol\":2767:3044  function getParameters2(address test_address,string calldata _messageID) external view returns (bool, bool, address){\r... */\n      swap4\n      pop\n      swap4\n      pop\n      swap4\n      swap1\n      pop\n      jump\t// out\n        /* \"contracts/BusinessConsensus2.sol\":5410:6469  function Consensus(string calldata _messageID) external {\r... */\n    tag_65:\n        /* \"contracts/BusinessConsensus2.sol\":5504:5521  businessProposals */\n      0x00\n        /* \"contracts/BusinessConsensus2.sol\":5522:5532  _messageID */\n      dup3\n      dup3\n        /* \"contracts/BusinessConsensus2.sol\":5504:5533  businessProposals[_messageID] */\n      mload(0x40)\n      tag_203\n      swap3\n      swap2\n      swap1\n      tag_113\n      jump\t// in\n    tag_203:\n      swap1\n      dup2\n      mstore\n      0x20\n      add\n      mload(0x40)\n      dup1\n      swap2\n      sub\n      swap1\n      keccak256\n        /* \"contracts/BusinessConsensus2.sol\":5504:5544  businessProposals[_messageID].expiryDate */\n      0x04\n      add\n      sload\n        /* \"contracts/BusinessConsensus2.sol\":5485:5500  block.timestamp */\n      timestamp\n        /* \"contracts/BusinessConsensus2.sol\":5485:5544  block.timestamp >= businessProposals[_messageID].expiryDate */\n      lt\n      iszero\n        /* \"contracts/BusinessConsensus2.sol\":5477:5581  require(block.timestamp >= businessProposals[_messageID].expiryDate, \"Verdict has not been reached yet\") */\n      tag_204\n      jumpi\n      mload(0x40)\n      0x08c379a000000000000000000000000000000000000000000000000000000000\n      dup2\n      mstore\n      0x04\n      add\n      tag_205\n      swap1\n      tag_154\n      jump\t// in\n    tag_205:\n      mload(0x40)\n      dup1\n      swap2\n      sub\n      swap1\n      revert\n    tag_204:\n        /* \"contracts/BusinessConsensus2.sol\":5644:5649  false */\n      0x00\n        /* \"contracts/BusinessConsensus2.sol\":5600:5649  businessProposals[_messageID].isCompiled == false */\n      iszero\n      iszero\n        /* \"contracts/BusinessConsensus2.sol\":5600:5617  businessProposals */\n      0x00\n        /* \"contracts/BusinessConsensus2.sol\":5618:5628  _messageID */\n      dup4\n      dup4\n        /* \"contracts/BusinessConsensus2.sol\":5600:5629  businessProposals[_messageID] */\n      mload(0x40)\n      tag_206\n      swap3\n      swap2\n      swap1\n      tag_113\n      jump\t// in\n    tag_206:\n      swap1\n      dup2\n      mstore\n      0x20\n      add\n      mload(0x40)\n      dup1\n      swap2\n      sub\n      swap1\n      keccak256\n        /* \"contracts/BusinessConsensus2.sol\":5600:5640  businessProposals[_messageID].isCompiled */\n      0x07\n      add\n      0x00\n      swap1\n      sload\n      swap1\n      0x0100\n      exp\n      swap1\n      div\n      0xff\n      and\n        /* \"contracts/BusinessConsensus2.sol\":5600:5649  businessProposals[_messageID].isCompiled == false */\n      iszero\n      iszero\n      eq\n        /* \"contracts/BusinessConsensus2.sol\":5592:5691  require(businessProposals[_messageID].isCompiled == false, \"Consensus has already been calculated\") */\n      tag_207\n      jumpi\n      mload(0x40)\n      0x08c379a000000000000000000000000000000000000000000000000000000000\n      dup2\n      mstore\n      0x04\n      add\n      tag_208\n      swap1\n      tag_209\n      jump\t// in\n    tag_208:\n      mload(0x40)\n      dup1\n      swap2\n      sub\n      swap1\n      revert\n    tag_207:\n        /* \"contracts/BusinessConsensus2.sol\":5724:5741  businessProposals */\n      0x00\n        /* \"contracts/BusinessConsensus2.sol\":5742:5752  _messageID */\n      dup3\n      dup3\n        /* \"contracts/BusinessConsensus2.sol\":5724:5753  businessProposals[_messageID] */\n      mload(0x40)\n      tag_210\n      swap3\n      swap2\n      swap1\n      tag_113\n      jump\t// in\n    tag_210:\n      swap1\n      dup2\n      mstore\n      0x20\n      add\n      mload(0x40)\n      dup1\n      swap2\n      sub\n      swap1\n      keccak256\n        /* \"contracts/BusinessConsensus2.sol\":5724:5763  businessProposals[_messageID].initiator */\n      0x01\n      add\n      0x00\n      swap1\n      sload\n      swap1\n      0x0100\n      exp\n      swap1\n      div\n      0xffffffffffffffffffffffffffffffffffffffff\n      and\n        /* \"contracts/BusinessConsensus2.sol\":5710:5763  msg.sender == businessProposals[_messageID].initiator */\n      0xffffffffffffffffffffffffffffffffffffffff\n      and\n        /* \"contracts/BusinessConsensus2.sol\":5710:5720  msg.sender */\n      caller\n        /* \"contracts/BusinessConsensus2.sol\":5710:5763  msg.sender == businessProposals[_messageID].initiator */\n      0xffffffffffffffffffffffffffffffffffffffff\n      and\n      eq\n        /* \"contracts/BusinessConsensus2.sol\":5710:5827  msg.sender == businessProposals[_messageID].initiator || voter_maps[_messageID][msg.sender].recipient != address(0x0) */\n      dup1\n      tag_211\n      jumpi\n      pop\n        /* \"contracts/BusinessConsensus2.sol\":5823:5826  0x0 */\n      0x00\n        /* \"contracts/BusinessConsensus2.sol\":5767:5827  voter_maps[_messageID][msg.sender].recipient != address(0x0) */\n      0xffffffffffffffffffffffffffffffffffffffff\n      and\n        /* \"contracts/BusinessConsensus2.sol\":5767:5777  voter_maps */\n      0x01\n        /* \"contracts/BusinessConsensus2.sol\":5778:5788  _messageID */\n      dup4\n      dup4\n        /* \"contracts/BusinessConsensus2.sol\":5767:5789  voter_maps[_messageID] */\n      mload(0x40)\n      tag_212\n      swap3\n      swap2\n      swap1\n      tag_113\n      jump\t// in\n    tag_212:\n      swap1\n      dup2\n      mstore\n      0x20\n      add\n      mload(0x40)\n      dup1\n      swap2\n      sub\n      swap1\n      keccak256\n        /* \"contracts/BusinessConsensus2.sol\":5767:5801  voter_maps[_messageID][msg.sender] */\n      0x00\n        /* \"contracts/BusinessConsensus2.sol\":5790:5800  msg.sender */\n      caller\n        /* \"contracts/BusinessConsensus2.sol\":5767:5801  voter_maps[_messageID][msg.sender] */\n      0xffffffffffffffffffffffffffffffffffffffff\n      and\n      0xffffffffffffffffffffffffffffffffffffffff\n      and\n      dup2\n      mstore\n      0x20\n      add\n      swap1\n      dup2\n      mstore\n      0x20\n      add\n      0x00\n      keccak256\n        /* \"contracts/BusinessConsensus2.sol\":5767:5811  voter_maps[_messageID][msg.sender].recipient */\n      0x00\n      add\n      0x02\n      swap1\n      sload\n      swap1\n      0x0100\n      exp\n      swap1\n      div\n      0xffffffffffffffffffffffffffffffffffffffff\n      and\n        /* \"contracts/BusinessConsensus2.sol\":5767:5827  voter_maps[_messageID][msg.sender].recipient != address(0x0) */\n      0xffffffffffffffffffffffffffffffffffffffff\n      and\n      eq\n      iszero\n        /* \"contracts/BusinessConsensus2.sol\":5710:5827  msg.sender == businessProposals[_messageID].initiator || voter_maps[_messageID][msg.sender].recipient != address(0x0) */\n    tag_211:\n        /* \"contracts/BusinessConsensus2.sol\":5702:5870  require(msg.sender == businessProposals[_messageID].initiator || voter_maps[_messageID][msg.sender].recipient != address(0x0), \"You aren't authorize to compile Bundle\") */\n      tag_213\n      jumpi\n      mload(0x40)\n      0x08c379a000000000000000000000000000000000000000000000000000000000\n      dup2\n      mstore\n      0x04\n      add\n      tag_214\n      swap1\n      tag_215\n      jump\t// in\n    tag_214:\n      mload(0x40)\n      dup1\n      swap2\n      sub\n      swap1\n      revert\n    tag_213:\n        /* \"contracts/BusinessConsensus2.sol\":5881:5910  uint256 AccumulatedPercentage */\n      0x00\n        /* \"contracts/BusinessConsensus2.sol\":5982:5985  100 */\n      0x64\n        /* \"contracts/BusinessConsensus2.sol\":5957:5961  keys */\n      0x03\n        /* \"contracts/BusinessConsensus2.sol\":5962:5972  _messageID */\n      dup5\n      dup5\n        /* \"contracts/BusinessConsensus2.sol\":5957:5973  keys[_messageID] */\n      mload(0x40)\n      tag_216\n      swap3\n      swap2\n      swap1\n      tag_113\n      jump\t// in\n    tag_216:\n      swap1\n      dup2\n      mstore\n      0x20\n      add\n      mload(0x40)\n      dup1\n      swap2\n      sub\n      swap1\n      keccak256\n        /* \"contracts/BusinessConsensus2.sol\":5957:5980  keys[_messageID].length */\n      dup1\n      sload\n      swap1\n      pop\n        /* \"contracts/BusinessConsensus2.sol\":5914:5931  businessProposals */\n      0x00\n        /* \"contracts/BusinessConsensus2.sol\":5932:5942  _messageID */\n      dup6\n      dup6\n        /* \"contracts/BusinessConsensus2.sol\":5914:5943  businessProposals[_messageID] */\n      mload(0x40)\n      tag_217\n      swap3\n      swap2\n      swap1\n      tag_113\n      jump\t// in\n    tag_217:\n      swap1\n      dup2\n      mstore\n      0x20\n      add\n      mload(0x40)\n      dup1\n      swap2\n      sub\n      swap1\n      keccak256\n        /* \"contracts/BusinessConsensus2.sol\":5914:5956  businessProposals[_messageID].numApprovals */\n      0x06\n      add\n      sload\n        /* \"contracts/BusinessConsensus2.sol\":5914:5980  businessProposals[_messageID].numApprovals/keys[_messageID].length */\n      tag_218\n      swap2\n      swap1\n      tag_219\n      jump\t// in\n    tag_218:\n        /* \"contracts/BusinessConsensus2.sol\":5913:5985  (businessProposals[_messageID].numApprovals/keys[_messageID].length)*100 */\n      tag_220\n      swap2\n      swap1\n      tag_221\n      jump\t// in\n    tag_220:\n        /* \"contracts/BusinessConsensus2.sol\":5881:5985  uint256 AccumulatedPercentage = (businessProposals[_messageID].numApprovals/keys[_messageID].length)*100 */\n      swap1\n      pop\n        /* \"contracts/BusinessConsensus2.sol\":6024:6041  businessProposals */\n      0x00\n        /* \"contracts/BusinessConsensus2.sol\":6042:6052  _messageID */\n      dup4\n      dup4\n        /* \"contracts/BusinessConsensus2.sol\":6024:6053  businessProposals[_messageID] */\n      mload(0x40)\n      tag_222\n      swap3\n      swap2\n      swap1\n      tag_113\n      jump\t// in\n    tag_222:\n      swap1\n      dup2\n      mstore\n      0x20\n      add\n      mload(0x40)\n      dup1\n      swap2\n      sub\n      swap1\n      keccak256\n        /* \"contracts/BusinessConsensus2.sol\":6024:6073  businessProposals[_messageID].BusinessRequirement */\n      0x05\n      add\n      sload\n        /* \"contracts/BusinessConsensus2.sol\":5999:6020  AccumulatedPercentage */\n      dup2\n        /* \"contracts/BusinessConsensus2.sol\":5999:6073  AccumulatedPercentage >= businessProposals[_messageID].BusinessRequirement */\n      lt\n        /* \"contracts/BusinessConsensus2.sol\":5996:6156  if(AccumulatedPercentage >= businessProposals[_messageID].BusinessRequirement){\r... */\n      tag_223\n      jumpi\n        /* \"contracts/BusinessConsensus2.sol\":6089:6144  businessProposals[_messageID].finalVerdict = \"Accepted\" */\n      0x4163636570746564000000000000000000000000000000000000000000000000\n        /* \"contracts/BusinessConsensus2.sol\":6089:6106  businessProposals */\n      0x00\n        /* \"contracts/BusinessConsensus2.sol\":6107:6117  _messageID */\n      dup5\n      dup5\n        /* \"contracts/BusinessConsensus2.sol\":6089:6118  businessProposals[_messageID] */\n      mload(0x40)\n      tag_224\n      swap3\n      swap2\n      swap1\n      tag_113\n      jump\t// in\n    tag_224:\n      swap1\n      dup2\n      mstore\n      0x20\n      add\n      mload(0x40)\n      dup1\n      swap2\n      sub\n      swap1\n      keccak256\n        /* \"contracts/BusinessConsensus2.sol\":6089:6131  businessProposals[_messageID].finalVerdict */\n      0x08\n      add\n        /* \"contracts/BusinessConsensus2.sol\":6089:6144  businessProposals[_messageID].finalVerdict = \"Accepted\" */\n      dup2\n      swap1\n      sstore\n      pop\n        /* \"contracts/BusinessConsensus2.sol\":5996:6156  if(AccumulatedPercentage >= businessProposals[_messageID].BusinessRequirement){\r... */\n    tag_223:\n        /* \"contracts/BusinessConsensus2.sol\":6170:6177  uint8 i */\n      0x00\n        /* \"contracts/BusinessConsensus2.sol\":6166:6404  for(uint8 i=0; i< keys[_messageID].length; i++){\r... */\n    tag_225:\n        /* \"contracts/BusinessConsensus2.sol\":6184:6188  keys */\n      0x03\n        /* \"contracts/BusinessConsensus2.sol\":6189:6199  _messageID */\n      dup5\n      dup5\n        /* \"contracts/BusinessConsensus2.sol\":6184:6200  keys[_messageID] */\n      mload(0x40)\n      tag_228\n      swap3\n      swap2\n      swap1\n      tag_113\n      jump\t// in\n    tag_228:\n      swap1\n      dup2\n      mstore\n      0x20\n      add\n      mload(0x40)\n      dup1\n      swap2\n      sub\n      swap1\n      keccak256\n        /* \"contracts/BusinessConsensus2.sol\":6184:6207  keys[_messageID].length */\n      dup1\n      sload\n      swap1\n      pop\n        /* \"contracts/BusinessConsensus2.sol\":6181:6182  i */\n      dup2\n        /* \"contracts/BusinessConsensus2.sol\":6181:6207  i< keys[_messageID].length */\n      0xff\n      and\n      lt\n        /* \"contracts/BusinessConsensus2.sol\":6166:6404  for(uint8 i=0; i< keys[_messageID].length; i++){\r... */\n      iszero\n      tag_226\n      jumpi\n        /* \"contracts/BusinessConsensus2.sol\":6284:6289  false */\n      0x00\n        /* \"contracts/BusinessConsensus2.sol\":6231:6289  voter_maps[_messageID][keys[_messageID][i]].voted == false */\n      iszero\n      iszero\n        /* \"contracts/BusinessConsensus2.sol\":6231:6241  voter_maps */\n      0x01\n        /* \"contracts/BusinessConsensus2.sol\":6242:6252  _messageID */\n      dup6\n      dup6\n        /* \"contracts/BusinessConsensus2.sol\":6231:6253  voter_maps[_messageID] */\n      mload(0x40)\n      tag_229\n      swap3\n      swap2\n      swap1\n      tag_113\n      jump\t// in\n    tag_229:\n      swap1\n      dup2\n      mstore\n      0x20\n      add\n      mload(0x40)\n      dup1\n      swap2\n      sub\n      swap1\n      keccak256\n        /* \"contracts/BusinessConsensus2.sol\":6231:6274  voter_maps[_messageID][keys[_messageID][i]] */\n      0x00\n        /* \"contracts/BusinessConsensus2.sol\":6254:6258  keys */\n      0x03\n        /* \"contracts/BusinessConsensus2.sol\":6259:6269  _messageID */\n      dup8\n      dup8\n        /* \"contracts/BusinessConsensus2.sol\":6254:6270  keys[_messageID] */\n      mload(0x40)\n      tag_230\n      swap3\n      swap2\n      swap1\n      tag_113\n      jump\t// in\n    tag_230:\n      swap1\n      dup2\n      mstore\n      0x20\n      add\n      mload(0x40)\n      dup1\n      swap2\n      sub\n      swap1\n      keccak256\n        /* \"contracts/BusinessConsensus2.sol\":6271:6272  i */\n      dup5\n        /* \"contracts/BusinessConsensus2.sol\":6254:6273  keys[_messageID][i] */\n      0xff\n      and\n      dup2\n      sload\n      dup2\n      lt\n      tag_231\n      jumpi\n      tag_232\n      tag_233\n      jump\t// in\n    tag_232:\n    tag_231:\n      swap1\n      0x00\n      mstore\n      keccak256(0x00, 0x20)\n      add\n      0x00\n      swap1\n      sload\n      swap1\n      0x0100\n      exp\n      swap1\n      div\n      0xffffffffffffffffffffffffffffffffffffffff\n      and\n        /* \"contracts/BusinessConsensus2.sol\":6231:6274  voter_maps[_messageID][keys[_messageID][i]] */\n      0xffffffffffffffffffffffffffffffffffffffff\n      and\n      0xffffffffffffffffffffffffffffffffffffffff\n      and\n      dup2\n      mstore\n      0x20\n      add\n      swap1\n      dup2\n      mstore\n      0x20\n      add\n      0x00\n      keccak256\n        /* \"contracts/BusinessConsensus2.sol\":6231:6280  voter_maps[_messageID][keys[_messageID][i]].voted */\n      0x00\n      add\n      0x00\n      swap1\n      sload\n      swap1\n      0x0100\n      exp\n      swap1\n      div\n      0xff\n      and\n        /* \"contracts/BusinessConsensus2.sol\":6231:6289  voter_maps[_messageID][keys[_messageID][i]].voted == false */\n      iszero\n      iszero\n      eq\n        /* \"contracts/BusinessConsensus2.sol\":6228:6393  if(voter_maps[_messageID][keys[_messageID][i]].voted == false){\r... */\n      iszero\n      tag_235\n      jumpi\n        /* \"contracts/BusinessConsensus2.sol\":6309:6315  Voters */\n      0x02\n        /* \"contracts/BusinessConsensus2.sol\":6316:6326  _messageID */\n      dup5\n      dup5\n        /* \"contracts/BusinessConsensus2.sol\":6309:6327  Voters[_messageID] */\n      mload(0x40)\n      tag_236\n      swap3\n      swap2\n      swap1\n      tag_113\n      jump\t// in\n    tag_236:\n      swap1\n      dup2\n      mstore\n      0x20\n      add\n      mload(0x40)\n      dup1\n      swap2\n      sub\n      swap1\n      keccak256\n        /* \"contracts/BusinessConsensus2.sol\":6333:6343  voter_maps */\n      0x01\n        /* \"contracts/BusinessConsensus2.sol\":6344:6354  _messageID */\n      dup6\n      dup6\n        /* \"contracts/BusinessConsensus2.sol\":6333:6355  voter_maps[_messageID] */\n      mload(0x40)\n      tag_237\n      swap3\n      swap2\n      swap1\n      tag_113\n      jump\t// in\n    tag_237:\n      swap1\n      dup2\n      mstore\n      0x20\n      add\n      mload(0x40)\n      dup1\n      swap2\n      sub\n      swap1\n      keccak256\n        /* \"contracts/BusinessConsensus2.sol\":6333:6376  voter_maps[_messageID][keys[_messageID][i]] */\n      0x00\n        /* \"contracts/BusinessConsensus2.sol\":6356:6360  keys */\n      0x03\n        /* \"contracts/BusinessConsensus2.sol\":6361:6371  _messageID */\n      dup8\n      dup8\n        /* \"contracts/BusinessConsensus2.sol\":6356:6372  keys[_messageID] */\n      mload(0x40)\n      tag_238\n      swap3\n      swap2\n      swap1\n      tag_113\n      jump\t// in\n    tag_238:\n      swap1\n      dup2\n      mstore\n      0x20\n      add\n      mload(0x40)\n      dup1\n      swap2\n      sub\n      swap1\n      keccak256\n        /* \"contracts/BusinessConsensus2.sol\":6373:6374  i */\n      dup5\n        /* \"contracts/BusinessConsensus2.sol\":6356:6375  keys[_messageID][i] */\n      0xff\n      and\n      dup2\n      sload\n      dup2\n      lt\n      tag_239\n      jumpi\n      tag_240\n      tag_233\n      jump\t// in\n    tag_240:\n    tag_239:\n      swap1\n      0x00\n      mstore\n      keccak256(0x00, 0x20)\n      add\n      0x00\n      swap1\n      sload\n      swap1\n      0x0100\n      exp\n      swap1\n      div\n      0xffffffffffffffffffffffffffffffffffffffff\n      and\n        /* \"contracts/BusinessConsensus2.sol\":6333:6376  voter_maps[_messageID][keys[_messageID][i]] */\n      0xffffffffffffffffffffffffffffffffffffffff\n      and\n      0xffffffffffffffffffffffffffffffffffffffff\n      and\n      dup2\n      mstore\n      0x20\n      add\n      swap1\n      dup2\n      mstore\n      0x20\n      add\n      0x00\n      keccak256\n        /* \"contracts/BusinessConsensus2.sol\":6309:6377  Voters[_messageID].push(voter_maps[_messageID][keys[_messageID][i]]) */\n      swap1\n      dup1\n      0x01\n      dup2\n      sload\n      add\n      dup1\n      dup3\n      sstore\n      dup1\n      swap2\n      pop\n      pop\n      0x01\n      swap1\n      sub\n      swap1\n      0x00\n      mstore\n      keccak256(0x00, 0x20)\n      add\n      0x00\n      swap1\n      swap2\n      swap1\n      swap2\n      swap1\n      swap2\n      pop\n      0x00\n      dup3\n      add\n      0x00\n      swap1\n      sload\n      swap1\n      0x0100\n      exp\n      swap1\n      div\n      0xff\n      and\n      dup2\n      0x00\n      add\n      exp(0x0100, 0x00)\n      dup2\n      sload\n      dup2\n      0xff\n      mul\n      not\n      and\n      swap1\n      dup4\n      iszero\n      iszero\n      mul\n      or\n      swap1\n      sstore\n      pop\n      0x00\n      dup3\n      add\n      0x01\n      swap1\n      sload\n      swap1\n      0x0100\n      exp\n      swap1\n      div\n      0xff\n      and\n      dup2\n      0x00\n      add\n      exp(0x0100, 0x01)\n      dup2\n      sload\n      dup2\n      0xff\n      mul\n      not\n      and\n      swap1\n      dup4\n      iszero\n      iszero\n      mul\n      or\n      swap1\n      sstore\n      pop\n      0x00\n      dup3\n      add\n      0x02\n      swap1\n      sload\n      swap1\n      0x0100\n      exp\n      swap1\n      div\n      0xffffffffffffffffffffffffffffffffffffffff\n      and\n      dup2\n      0x00\n      add\n      exp(0x0100, 0x02)\n      dup2\n      sload\n      dup2\n      0xffffffffffffffffffffffffffffffffffffffff\n      mul\n      not\n      and\n      swap1\n      dup4\n      0xffffffffffffffffffffffffffffffffffffffff\n      and\n      mul\n      or\n      swap1\n      sstore\n      pop\n      pop\n      pop\n        /* \"contracts/BusinessConsensus2.sol\":6228:6393  if(voter_maps[_messageID][keys[_messageID][i]].voted == false){\r... */\n    tag_235:\n        /* \"contracts/BusinessConsensus2.sol\":6209:6212  i++ */\n      dup1\n      dup1\n      tag_243\n      swap1\n      tag_244\n      jump\t// in\n    tag_243:\n      swap2\n      pop\n      pop\n        /* \"contracts/BusinessConsensus2.sol\":6166:6404  for(uint8 i=0; i< keys[_messageID].length; i++){\r... */\n      jump(tag_225)\n    tag_226:\n      pop\n        /* \"contracts/BusinessConsensus2.sol\":6457:6461  true */\n      0x01\n        /* \"contracts/BusinessConsensus2.sol\":6414:6431  businessProposals */\n      0x00\n        /* \"contracts/BusinessConsensus2.sol\":6432:6442  _messageID */\n      dup5\n      dup5\n        /* \"contracts/BusinessConsensus2.sol\":6414:6443  businessProposals[_messageID] */\n      mload(0x40)\n      tag_245\n      swap3\n      swap2\n      swap1\n      tag_113\n      jump\t// in\n    tag_245:\n      swap1\n      dup2\n      mstore\n      0x20\n      add\n      mload(0x40)\n      dup1\n      swap2\n      sub\n      swap1\n      keccak256\n        /* \"contracts/BusinessConsensus2.sol\":6414:6454  businessProposals[_messageID].isCompiled */\n      0x07\n      add\n      0x00\n        /* \"contracts/BusinessConsensus2.sol\":6414:6461  businessProposals[_messageID].isCompiled = true */\n      0x0100\n      exp\n      dup2\n      sload\n      dup2\n      0xff\n      mul\n      not\n      and\n      swap1\n      dup4\n      iszero\n      iszero\n      mul\n      or\n      swap1\n      sstore\n      pop\n        /* \"contracts/BusinessConsensus2.sol\":5466:6469  {\r... */\n      pop\n        /* \"contracts/BusinessConsensus2.sol\":5410:6469  function Consensus(string calldata _messageID) external {\r... */\n      pop\n      pop\n      jump\t// out\n        /* \"contracts/BusinessConsensus2.sol\":1076:1114  mapping(string=>Voter[]) public Voters */\n    tag_68:\n      0x02\n      dup3\n      dup1\n      mload\n      0x20\n      dup2\n      add\n      dup3\n      add\n      dup1\n      mload\n      dup5\n      dup3\n      mstore\n      0x20\n      dup4\n      add\n      0x20\n      dup6\n      add\n      keccak256\n      dup2\n      dup4\n      mstore\n      dup1\n      swap6\n      pop\n      pop\n      pop\n      pop\n      pop\n      pop\n      dup2\n      dup2\n      sload\n      dup2\n      lt\n      tag_246\n      jumpi\n      0x00\n      dup1\n      revert\n    tag_246:\n      swap1\n      0x00\n      mstore\n      keccak256(0x00, 0x20)\n      add\n      0x00\n      swap2\n      pop\n      swap2\n      pop\n      pop\n      dup1\n      0x00\n      add\n      0x00\n      swap1\n      sload\n      swap1\n      0x0100\n      exp\n      swap1\n      div\n      0xff\n      and\n      swap1\n      dup1\n      0x00\n      add\n      0x01\n      swap1\n      sload\n      swap1\n      0x0100\n      exp\n      swap1\n      div\n      0xff\n      and\n      swap1\n      dup1\n      0x00\n      add\n      0x02\n      swap1\n      sload\n      swap1\n      0x0100\n      exp\n      swap1\n      div\n      0xffffffffffffffffffffffffffffffffffffffff\n      and\n      swap1\n      pop\n      dup4\n      jump\t// out\n        /* \"contracts/BusinessConsensus2.sol\":2102:2249  function getValues(string calldata _messageID) public view returns (string memory){\r... */\n    tag_72:\n        /* \"contracts/BusinessConsensus2.sol\":2170:2183  string memory */\n      0x60\n        /* \"contracts/BusinessConsensus2.sol\":2202:2219  businessProposals */\n      0x00\n        /* \"contracts/BusinessConsensus2.sol\":2220:2230  _messageID */\n      dup4\n      dup4\n        /* \"contracts/BusinessConsensus2.sol\":2202:2231  businessProposals[_messageID] */\n      mload(0x40)\n      tag_249\n      swap3\n      swap2\n      swap1\n      tag_113\n      jump\t// in\n    tag_249:\n      swap1\n      dup2\n      mstore\n      0x20\n      add\n      mload(0x40)\n      dup1\n      swap2\n      sub\n      swap1\n      keccak256\n        /* \"contracts/BusinessConsensus2.sol\":2202:2241  businessProposals[_messageID].messageID */\n      0x00\n      add\n        /* \"contracts/BusinessConsensus2.sol\":2195:2241  return businessProposals[_messageID].messageID */\n      dup1\n      sload\n      tag_250\n      swap1\n      tag_83\n      jump\t// in\n    tag_250:\n      dup1\n      0x1f\n      add\n      0x20\n      dup1\n      swap2\n      div\n      mul\n      0x20\n      add\n      mload(0x40)\n      swap1\n      dup2\n      add\n      0x40\n      mstore\n      dup1\n      swap3\n      swap2\n      swap1\n      dup2\n      dup2\n      mstore\n      0x20\n      add\n      dup3\n      dup1\n      sload\n      tag_251\n      swap1\n      tag_83\n      jump\t// in\n    tag_251:\n      dup1\n      iszero\n      tag_252\n      jumpi\n      dup1\n      0x1f\n      lt\n      tag_253\n      jumpi\n      0x0100\n      dup1\n      dup4\n      sload\n      div\n      mul\n      dup4\n      mstore\n      swap2\n      0x20\n      add\n      swap2\n      jump(tag_252)\n    tag_253:\n      dup3\n      add\n      swap2\n      swap1\n      0x00\n      mstore\n      keccak256(0x00, 0x20)\n      swap1\n    tag_254:\n      dup2\n      sload\n      dup2\n      mstore\n      swap1\n      0x01\n      add\n      swap1\n      0x20\n      add\n      dup1\n      dup4\n      gt\n      tag_254\n      jumpi\n      dup3\n      swap1\n      sub\n      0x1f\n      and\n      dup3\n      add\n      swap2\n    tag_252:\n      pop\n      pop\n      pop\n      pop\n      pop\n      swap1\n      pop\n        /* \"contracts/BusinessConsensus2.sol\":2102:2249  function getValues(string calldata _messageID) public view returns (string memory){\r... */\n      swap3\n      swap2\n      pop\n      pop\n      jump\t// out\n        /* \"contracts/BusinessConsensus2.sol\":2255:2398  function getIsCompiled(string calldata _messageID) public view returns (bool){\r... */\n    tag_77:\n        /* \"contracts/BusinessConsensus2.sol\":2327:2331  bool */\n      0x00\n        /* \"contracts/BusinessConsensus2.sol\":2350:2367  businessProposals */\n      dup1\n        /* \"contracts/BusinessConsensus2.sol\":2368:2378  _messageID */\n      dup4\n      dup4\n        /* \"contracts/BusinessConsensus2.sol\":2350:2379  businessProposals[_messageID] */\n      mload(0x40)\n      tag_256\n      swap3\n      swap2\n      swap1\n      tag_113\n      jump\t// in\n    tag_256:\n      swap1\n      dup2\n      mstore\n      0x20\n      add\n      mload(0x40)\n      dup1\n      swap2\n      sub\n      swap1\n      keccak256\n        /* \"contracts/BusinessConsensus2.sol\":2350:2390  businessProposals[_messageID].isCompiled */\n      0x07\n      add\n      0x00\n      swap1\n      sload\n      swap1\n      0x0100\n      exp\n      swap1\n      div\n      0xff\n      and\n        /* \"contracts/BusinessConsensus2.sol\":2343:2390  return businessProposals[_messageID].isCompiled */\n      swap1\n      pop\n        /* \"contracts/BusinessConsensus2.sol\":2255:2398  function getIsCompiled(string calldata _messageID) public view returns (bool){\r... */\n      swap3\n      swap2\n      pop\n      pop\n      jump\t// out\n    tag_108:\n      dup3\n      dup1\n      sload\n      tag_257\n      swap1\n      tag_83\n      jump\t// in\n    tag_257:\n      swap1\n      0x00\n      mstore\n      keccak256(0x00, 0x20)\n      swap1\n      0x1f\n      add\n      0x20\n      swap1\n      div\n      dup2\n      add\n      swap3\n      dup3\n      tag_259\n      jumpi\n      0x00\n      dup6\n      sstore\n      jump(tag_258)\n    tag_259:\n      dup3\n      0x1f\n      lt\n      tag_260\n      jumpi\n      dup1\n      mload\n      not(0xff)\n      and\n      dup4\n      dup1\n      add\n      or\n      dup6\n      sstore\n      jump(tag_258)\n    tag_260:\n      dup3\n      dup1\n      add\n      0x01\n      add\n      dup6\n      sstore\n      dup3\n      iszero\n      tag_258\n      jumpi\n      swap2\n      dup3\n      add\n    tag_261:\n      dup3\n      dup2\n      gt\n      iszero\n      tag_262\n      jumpi\n      dup3\n      mload\n      dup3\n      sstore\n      swap2\n      0x20\n      add\n      swap2\n      swap1\n      0x01\n      add\n      swap1\n      jump(tag_261)\n    tag_262:\n    tag_258:\n      pop\n      swap1\n      pop\n      tag_263\n      swap2\n      swap1\n      tag_264\n      jump\t// in\n    tag_263:\n      pop\n      swap1\n      jump\t// out\n    tag_264:\n    tag_265:\n      dup1\n      dup3\n      gt\n      iszero\n      tag_266\n      jumpi\n      0x00\n      dup2\n      0x00\n      swap1\n      sstore\n      pop\n      0x01\n      add\n      jump(tag_265)\n    tag_266:\n      pop\n      swap1\n      jump\t// out\n        /* \"#utility.yul\":7:419   */\n    tag_268:\n        /* \"#utility.yul\":85:90   */\n      0x00\n        /* \"#utility.yul\":110:176   */\n      tag_270\n        /* \"#utility.yul\":126:175   */\n      tag_271\n        /* \"#utility.yul\":168:174   */\n      dup5\n        /* \"#utility.yul\":126:175   */\n      tag_272\n      jump\t// in\n    tag_271:\n        /* \"#utility.yul\":110:176   */\n      tag_273\n      jump\t// in\n    tag_270:\n        /* \"#utility.yul\":101:176   */\n      swap1\n      pop\n        /* \"#utility.yul\":199:205   */\n      dup3\n        /* \"#utility.yul\":192:197   */\n      dup2\n        /* \"#utility.yul\":185:206   */\n      mstore\n        /* \"#utility.yul\":237:241   */\n      0x20\n        /* \"#utility.yul\":230:235   */\n      dup2\n        /* \"#utility.yul\":226:242   */\n      add\n        /* \"#utility.yul\":275:278   */\n      dup5\n        /* \"#utility.yul\":266:272   */\n      dup5\n        /* \"#utility.yul\":261:264   */\n      dup5\n        /* \"#utility.yul\":257:273   */\n      add\n        /* \"#utility.yul\":254:279   */\n      gt\n        /* \"#utility.yul\":251:363   */\n      iszero\n      tag_274\n      jumpi\n        /* \"#utility.yul\":282:361   */\n      tag_275\n      tag_276\n      jump\t// in\n    tag_275:\n        /* \"#utility.yul\":251:363   */\n    tag_274:\n        /* \"#utility.yul\":372:413   */\n      tag_277\n        /* \"#utility.yul\":406:412   */\n      dup5\n        /* \"#utility.yul\":401:404   */\n      dup3\n        /* \"#utility.yul\":396:399   */\n      dup6\n        /* \"#utility.yul\":372:413   */\n      tag_278\n      jump\t// in\n    tag_277:\n        /* \"#utility.yul\":91:419   */\n      pop\n        /* \"#utility.yul\":7:419   */\n      swap4\n      swap3\n      pop\n      pop\n      pop\n      jump\t// out\n        /* \"#utility.yul\":425:564   */\n    tag_279:\n        /* \"#utility.yul\":471:476   */\n      0x00\n        /* \"#utility.yul\":509:515   */\n      dup2\n        /* \"#utility.yul\":496:516   */\n      calldataload\n        /* \"#utility.yul\":487:516   */\n      swap1\n      pop\n        /* \"#utility.yul\":525:558   */\n      tag_281\n        /* \"#utility.yul\":552:557   */\n      dup2\n        /* \"#utility.yul\":525:558   */\n      tag_282\n      jump\t// in\n    tag_281:\n        /* \"#utility.yul\":425:564   */\n      swap3\n      swap2\n      pop\n      pop\n      jump\t// out\n        /* \"#utility.yul\":584:1137   */\n    tag_283:\n        /* \"#utility.yul\":642:650   */\n      0x00\n        /* \"#utility.yul\":652:658   */\n      dup1\n        /* \"#utility.yul\":702:705   */\n      dup4\n        /* \"#utility.yul\":695:699   */\n      0x1f\n        /* \"#utility.yul\":687:693   */\n      dup5\n        /* \"#utility.yul\":683:700   */\n      add\n        /* \"#utility.yul\":679:706   */\n      slt\n        /* \"#utility.yul\":669:791   */\n      tag_285\n      jumpi\n        /* \"#utility.yul\":710:789   */\n      tag_286\n      tag_287\n      jump\t// in\n    tag_286:\n        /* \"#utility.yul\":669:791   */\n    tag_285:\n        /* \"#utility.yul\":823:829   */\n      dup3\n        /* \"#utility.yul\":810:830   */\n      calldataload\n        /* \"#utility.yul\":800:830   */\n      swap1\n      pop\n        /* \"#utility.yul\":853:871   */\n      0xffffffffffffffff\n        /* \"#utility.yul\":845:851   */\n      dup2\n        /* \"#utility.yul\":842:872   */\n      gt\n        /* \"#utility.yul\":839:956   */\n      iszero\n      tag_288\n      jumpi\n        /* \"#utility.yul\":875:954   */\n      tag_289\n      tag_290\n      jump\t// in\n    tag_289:\n        /* \"#utility.yul\":839:956   */\n    tag_288:\n        /* \"#utility.yul\":989:993   */\n      0x20\n        /* \"#utility.yul\":981:987   */\n      dup4\n        /* \"#utility.yul\":977:994   */\n      add\n        /* \"#utility.yul\":965:994   */\n      swap2\n      pop\n        /* \"#utility.yul\":1043:1046   */\n      dup4\n        /* \"#utility.yul\":1035:1039   */\n      0x01\n        /* \"#utility.yul\":1027:1033   */\n      dup3\n        /* \"#utility.yul\":1023:1040   */\n      mul\n        /* \"#utility.yul\":1013:1021   */\n      dup4\n        /* \"#utility.yul\":1009:1041   */\n      add\n        /* \"#utility.yul\":1006:1047   */\n      gt\n        /* \"#utility.yul\":1003:1131   */\n      iszero\n      tag_291\n      jumpi\n        /* \"#utility.yul\":1050:1129   */\n      tag_292\n      tag_293\n      jump\t// in\n    tag_292:\n        /* \"#utility.yul\":1003:1131   */\n    tag_291:\n        /* \"#utility.yul\":584:1137   */\n      swap3\n      pop\n      swap3\n      swap1\n      pop\n      jump\t// out\n        /* \"#utility.yul\":1157:1497   */\n    tag_294:\n        /* \"#utility.yul\":1213:1218   */\n      0x00\n        /* \"#utility.yul\":1262:1265   */\n      dup3\n        /* \"#utility.yul\":1255:1259   */\n      0x1f\n        /* \"#utility.yul\":1247:1253   */\n      dup4\n        /* \"#utility.yul\":1243:1260   */\n      add\n        /* \"#utility.yul\":1239:1266   */\n      slt\n        /* \"#utility.yul\":1229:1351   */\n      tag_296\n      jumpi\n        /* \"#utility.yul\":1270:1349   */\n      tag_297\n      tag_287\n      jump\t// in\n    tag_297:\n        /* \"#utility.yul\":1229:1351   */\n    tag_296:\n        /* \"#utility.yul\":1387:1393   */\n      dup2\n        /* \"#utility.yul\":1374:1394   */\n      calldataload\n        /* \"#utility.yul\":1412:1491   */\n      tag_298\n        /* \"#utility.yul\":1487:1490   */\n      dup5\n        /* \"#utility.yul\":1479:1485   */\n      dup3\n        /* \"#utility.yul\":1472:1476   */\n      0x20\n        /* \"#utility.yul\":1464:1470   */\n      dup7\n        /* \"#utility.yul\":1460:1477   */\n      add\n        /* \"#utility.yul\":1412:1491   */\n      tag_268\n      jump\t// in\n    tag_298:\n        /* \"#utility.yul\":1403:1491   */\n      swap2\n      pop\n        /* \"#utility.yul\":1219:1497   */\n      pop\n        /* \"#utility.yul\":1157:1497   */\n      swap3\n      swap2\n      pop\n      pop\n      jump\t// out\n        /* \"#utility.yul\":1503:1642   */\n    tag_299:\n        /* \"#utility.yul\":1549:1554   */\n      0x00\n        /* \"#utility.yul\":1587:1593   */\n      dup2\n        /* \"#utility.yul\":1574:1594   */\n      calldataload\n        /* \"#utility.yul\":1565:1594   */\n      swap1\n      pop\n        /* \"#utility.yul\":1603:1636   */\n      tag_301\n        /* \"#utility.yul\":1630:1635   */\n      dup2\n        /* \"#utility.yul\":1603:1636   */\n      tag_302\n      jump\t// in\n    tag_301:\n        /* \"#utility.yul\":1503:1642   */\n      swap3\n      swap2\n      pop\n      pop\n      jump\t// out\n        /* \"#utility.yul\":1648:2322   */\n    tag_52:\n        /* \"#utility.yul\":1728:1734   */\n      0x00\n        /* \"#utility.yul\":1736:1742   */\n      dup1\n        /* \"#utility.yul\":1744:1750   */\n      0x00\n        /* \"#utility.yul\":1793:1795   */\n      0x40\n        /* \"#utility.yul\":1781:1790   */\n      dup5\n        /* \"#utility.yul\":1772:1779   */\n      dup7\n        /* \"#utility.yul\":1768:1791   */\n      sub\n        /* \"#utility.yul\":1764:1796   */\n      slt\n        /* \"#utility.yul\":1761:1880   */\n      iszero\n      tag_304\n      jumpi\n        /* \"#utility.yul\":1799:1878   */\n      tag_305\n      tag_306\n      jump\t// in\n    tag_305:\n        /* \"#utility.yul\":1761:1880   */\n    tag_304:\n        /* \"#utility.yul\":1919:1920   */\n      0x00\n        /* \"#utility.yul\":1944:1997   */\n      tag_307\n        /* \"#utility.yul\":1989:1996   */\n      dup7\n        /* \"#utility.yul\":1980:1986   */\n      dup3\n        /* \"#utility.yul\":1969:1978   */\n      dup8\n        /* \"#utility.yul\":1965:1987   */\n      add\n        /* \"#utility.yul\":1944:1997   */\n      tag_279\n      jump\t// in\n    tag_307:\n        /* \"#utility.yul\":1934:1997   */\n      swap4\n      pop\n        /* \"#utility.yul\":1890:2007   */\n      pop\n        /* \"#utility.yul\":2074:2076   */\n      0x20\n        /* \"#utility.yul\":2063:2072   */\n      dup5\n        /* \"#utility.yul\":2059:2077   */\n      add\n        /* \"#utility.yul\":2046:2078   */\n      calldataload\n        /* \"#utility.yul\":2105:2123   */\n      0xffffffffffffffff\n        /* \"#utility.yul\":2097:2103   */\n      dup2\n        /* \"#utility.yul\":2094:2124   */\n      gt\n        /* \"#utility.yul\":2091:2208   */\n      iszero\n      tag_308\n      jumpi\n        /* \"#utility.yul\":2127:2206   */\n      tag_309\n      tag_310\n      jump\t// in\n    tag_309:\n        /* \"#utility.yul\":2091:2208   */\n    tag_308:\n        /* \"#utility.yul\":2240:2305   */\n      tag_311\n        /* \"#utility.yul\":2297:2304   */\n      dup7\n        /* \"#utility.yul\":2288:2294   */\n      dup3\n        /* \"#utility.yul\":2277:2286   */\n      dup8\n        /* \"#utility.yul\":2273:2295   */\n      add\n        /* \"#utility.yul\":2240:2305   */\n      tag_283\n      jump\t// in\n    tag_311:\n        /* \"#utility.yul\":2222:2305   */\n      swap3\n      pop\n      swap3\n      pop\n        /* \"#utility.yul\":2017:2315   */\n      pop\n        /* \"#utility.yul\":1648:2322   */\n      swap3\n      pop\n      swap3\n      pop\n      swap3\n      jump\t// out\n        /* \"#utility.yul\":2328:2857   */\n    tag_46:\n        /* \"#utility.yul\":2399:2405   */\n      0x00\n        /* \"#utility.yul\":2407:2413   */\n      dup1\n        /* \"#utility.yul\":2456:2458   */\n      0x20\n        /* \"#utility.yul\":2444:2453   */\n      dup4\n        /* \"#utility.yul\":2435:2442   */\n      dup6\n        /* \"#utility.yul\":2431:2454   */\n      sub\n        /* \"#utility.yul\":2427:2459   */\n      slt\n        /* \"#utility.yul\":2424:2543   */\n      iszero\n      tag_313\n      jumpi\n        /* \"#utility.yul\":2462:2541   */\n      tag_314\n      tag_306\n      jump\t// in\n    tag_314:\n        /* \"#utility.yul\":2424:2543   */\n    tag_313:\n        /* \"#utility.yul\":2610:2611   */\n      0x00\n        /* \"#utility.yul\":2599:2608   */\n      dup4\n        /* \"#utility.yul\":2595:2612   */\n      add\n        /* \"#utility.yul\":2582:2613   */\n      calldataload\n        /* \"#utility.yul\":2640:2658   */\n      0xffffffffffffffff\n        /* \"#utility.yul\":2632:2638   */\n      dup2\n        /* \"#utility.yul\":2629:2659   */\n      gt\n        /* \"#utility.yul\":2626:2743   */\n      iszero\n      tag_315\n      jumpi\n        /* \"#utility.yul\":2662:2741   */\n      tag_316\n      tag_310\n      jump\t// in\n    tag_316:\n        /* \"#utility.yul\":2626:2743   */\n    tag_315:\n        /* \"#utility.yul\":2775:2840   */\n      tag_317\n        /* \"#utility.yul\":2832:2839   */\n      dup6\n        /* \"#utility.yul\":2823:2829   */\n      dup3\n        /* \"#utility.yul\":2812:2821   */\n      dup7\n        /* \"#utility.yul\":2808:2830   */\n      add\n        /* \"#utility.yul\":2775:2840   */\n      tag_283\n      jump\t// in\n    tag_317:\n        /* \"#utility.yul\":2757:2840   */\n      swap3\n      pop\n      swap3\n      pop\n        /* \"#utility.yul\":2553:2850   */\n      pop\n        /* \"#utility.yul\":2328:2857   */\n      swap3\n      pop\n      swap3\n      swap1\n      pop\n      jump\t// out\n        /* \"#utility.yul\":2863:3372   */\n    tag_26:\n        /* \"#utility.yul\":2932:2938   */\n      0x00\n        /* \"#utility.yul\":2981:2983   */\n      0x20\n        /* \"#utility.yul\":2969:2978   */\n      dup3\n        /* \"#utility.yul\":2960:2967   */\n      dup5\n        /* \"#utility.yul\":2956:2979   */\n      sub\n        /* \"#utility.yul\":2952:2984   */\n      slt\n        /* \"#utility.yul\":2949:3068   */\n      iszero\n      tag_319\n      jumpi\n        /* \"#utility.yul\":2987:3066   */\n      tag_320\n      tag_306\n      jump\t// in\n    tag_320:\n        /* \"#utility.yul\":2949:3068   */\n    tag_319:\n        /* \"#utility.yul\":3135:3136   */\n      0x00\n        /* \"#utility.yul\":3124:3133   */\n      dup3\n        /* \"#utility.yul\":3120:3137   */\n      add\n        /* \"#utility.yul\":3107:3138   */\n      calldataload\n        /* \"#utility.yul\":3165:3183   */\n      0xffffffffffffffff\n        /* \"#utility.yul\":3157:3163   */\n      dup2\n        /* \"#utility.yul\":3154:3184   */\n      gt\n        /* \"#utility.yul\":3151:3268   */\n      iszero\n      tag_321\n      jumpi\n        /* \"#utility.yul\":3187:3266   */\n      tag_322\n      tag_310\n      jump\t// in\n    tag_322:\n        /* \"#utility.yul\":3151:3268   */\n    tag_321:\n        /* \"#utility.yul\":3292:3355   */\n      tag_323\n        /* \"#utility.yul\":3347:3354   */\n      dup5\n        /* \"#utility.yul\":3338:3344   */\n      dup3\n        /* \"#utility.yul\":3327:3336   */\n      dup6\n        /* \"#utility.yul\":3323:3345   */\n      add\n        /* \"#utility.yul\":3292:3355   */\n      tag_294\n      jump\t// in\n    tag_323:\n        /* \"#utility.yul\":3282:3355   */\n      swap2\n      pop\n        /* \"#utility.yul\":3078:3365   */\n      pop\n        /* \"#utility.yul\":2863:3372   */\n      swap3\n      swap2\n      pop\n      pop\n      jump\t// out\n        /* \"#utility.yul\":3378:4032   */\n    tag_40:\n        /* \"#utility.yul\":3456:3462   */\n      0x00\n        /* \"#utility.yul\":3464:3470   */\n      dup1\n        /* \"#utility.yul\":3513:3515   */\n      0x40\n        /* \"#utility.yul\":3501:3510   */\n      dup4\n        /* \"#utility.yul\":3492:3499   */\n      dup6\n        /* \"#utility.yul\":3488:3511   */\n      sub\n        /* \"#utility.yul\":3484:3516   */\n      slt\n        /* \"#utility.yul\":3481:3600   */\n      iszero\n      tag_325\n      jumpi\n        /* \"#utility.yul\":3519:3598   */\n      tag_326\n      tag_306\n      jump\t// in\n    tag_326:\n        /* \"#utility.yul\":3481:3600   */\n    tag_325:\n        /* \"#utility.yul\":3667:3668   */\n      0x00\n        /* \"#utility.yul\":3656:3665   */\n      dup4\n        /* \"#utility.yul\":3652:3669   */\n      add\n        /* \"#utility.yul\":3639:3670   */\n      calldataload\n        /* \"#utility.yul\":3697:3715   */\n      0xffffffffffffffff\n        /* \"#utility.yul\":3689:3695   */\n      dup2\n        /* \"#utility.yul\":3686:3716   */\n      gt\n        /* \"#utility.yul\":3683:3800   */\n      iszero\n      tag_327\n      jumpi\n        /* \"#utility.yul\":3719:3798   */\n      tag_328\n      tag_310\n      jump\t// in\n    tag_328:\n        /* \"#utility.yul\":3683:3800   */\n    tag_327:\n        /* \"#utility.yul\":3824:3887   */\n      tag_329\n        /* \"#utility.yul\":3879:3886   */\n      dup6\n        /* \"#utility.yul\":3870:3876   */\n      dup3\n        /* \"#utility.yul\":3859:3868   */\n      dup7\n        /* \"#utility.yul\":3855:3877   */\n      add\n        /* \"#utility.yul\":3824:3887   */\n      tag_294\n      jump\t// in\n    tag_329:\n        /* \"#utility.yul\":3814:3887   */\n      swap3\n      pop\n        /* \"#utility.yul\":3610:3897   */\n      pop\n        /* \"#utility.yul\":3936:3938   */\n      0x20\n        /* \"#utility.yul\":3962:4015   */\n      tag_330\n        /* \"#utility.yul\":4007:4014   */\n      dup6\n        /* \"#utility.yul\":3998:4004   */\n      dup3\n        /* \"#utility.yul\":3987:3996   */\n      dup7\n        /* \"#utility.yul\":3983:4005   */\n      add\n        /* \"#utility.yul\":3962:4015   */\n      tag_279\n      jump\t// in\n    tag_330:\n        /* \"#utility.yul\":3952:4015   */\n      swap2\n      pop\n        /* \"#utility.yul\":3907:4025   */\n      pop\n        /* \"#utility.yul\":3378:4032   */\n      swap3\n      pop\n      swap3\n      swap1\n      pop\n      jump\t// out\n        /* \"#utility.yul\":4038:4892   */\n    tag_36:\n        /* \"#utility.yul\":4128:4134   */\n      0x00\n        /* \"#utility.yul\":4136:4142   */\n      dup1\n        /* \"#utility.yul\":4144:4150   */\n      0x00\n        /* \"#utility.yul\":4193:4195   */\n      0x40\n        /* \"#utility.yul\":4181:4190   */\n      dup5\n        /* \"#utility.yul\":4172:4179   */\n      dup7\n        /* \"#utility.yul\":4168:4191   */\n      sub\n        /* \"#utility.yul\":4164:4196   */\n      slt\n        /* \"#utility.yul\":4161:4280   */\n      iszero\n      tag_332\n      jumpi\n        /* \"#utility.yul\":4199:4278   */\n      tag_333\n      tag_306\n      jump\t// in\n    tag_333:\n        /* \"#utility.yul\":4161:4280   */\n    tag_332:\n        /* \"#utility.yul\":4347:4348   */\n      0x00\n        /* \"#utility.yul\":4336:4345   */\n      dup5\n        /* \"#utility.yul\":4332:4349   */\n      add\n        /* \"#utility.yul\":4319:4350   */\n      calldataload\n        /* \"#utility.yul\":4377:4395   */\n      0xffffffffffffffff\n        /* \"#utility.yul\":4369:4375   */\n      dup2\n        /* \"#utility.yul\":4366:4396   */\n      gt\n        /* \"#utility.yul\":4363:4480   */\n      iszero\n      tag_334\n      jumpi\n        /* \"#utility.yul\":4399:4478   */\n      tag_335\n      tag_310\n      jump\t// in\n    tag_335:\n        /* \"#utility.yul\":4363:4480   */\n    tag_334:\n        /* \"#utility.yul\":4504:4567   */\n      tag_336\n        /* \"#utility.yul\":4559:4566   */\n      dup7\n        /* \"#utility.yul\":4550:4556   */\n      dup3\n        /* \"#utility.yul\":4539:4548   */\n      dup8\n        /* \"#utility.yul\":4535:4557   */\n      add\n        /* \"#utility.yul\":4504:4567   */\n      tag_294\n      jump\t// in\n    tag_336:\n        /* \"#utility.yul\":4494:4567   */\n      swap4\n      pop\n        /* \"#utility.yul\":4290:4577   */\n      pop\n        /* \"#utility.yul\":4644:4646   */\n      0x20\n        /* \"#utility.yul\":4633:4642   */\n      dup5\n        /* \"#utility.yul\":4629:4647   */\n      add\n        /* \"#utility.yul\":4616:4648   */\n      calldataload\n        /* \"#utility.yul\":4675:4693   */\n      0xffffffffffffffff\n        /* \"#utility.yul\":4667:4673   */\n      dup2\n        /* \"#utility.yul\":4664:4694   */\n      gt\n        /* \"#utility.yul\":4661:4778   */\n      iszero\n      tag_337\n      jumpi\n        /* \"#utility.yul\":4697:4776   */\n      tag_338\n      tag_310\n      jump\t// in\n    tag_338:\n        /* \"#utility.yul\":4661:4778   */\n    tag_337:\n        /* \"#utility.yul\":4810:4875   */\n      tag_339\n        /* \"#utility.yul\":4867:4874   */\n      dup7\n        /* \"#utility.yul\":4858:4864   */\n      dup3\n        /* \"#utility.yul\":4847:4856   */\n      dup8\n        /* \"#utility.yul\":4843:4865   */\n      add\n        /* \"#utility.yul\":4810:4875   */\n      tag_283\n      jump\t// in\n    tag_339:\n        /* \"#utility.yul\":4792:4875   */\n      swap3\n      pop\n      swap3\n      pop\n        /* \"#utility.yul\":4587:4885   */\n      pop\n        /* \"#utility.yul\":4038:4892   */\n      swap3\n      pop\n      swap3\n      pop\n      swap3\n      jump\t// out\n        /* \"#utility.yul\":4898:5552   */\n    tag_20:\n        /* \"#utility.yul\":4976:4982   */\n      0x00\n        /* \"#utility.yul\":4984:4990   */\n      dup1\n        /* \"#utility.yul\":5033:5035   */\n      0x40\n        /* \"#utility.yul\":5021:5030   */\n      dup4\n        /* \"#utility.yul\":5012:5019   */\n      dup6\n        /* \"#utility.yul\":5008:5031   */\n      sub\n        /* \"#utility.yul\":5004:5036   */\n      slt\n        /* \"#utility.yul\":5001:5120   */\n      iszero\n      tag_341\n      jumpi\n        /* \"#utility.yul\":5039:5118   */\n      tag_342\n      tag_306\n      jump\t// in\n    tag_342:\n        /* \"#utility.yul\":5001:5120   */\n    tag_341:\n        /* \"#utility.yul\":5187:5188   */\n      0x00\n        /* \"#utility.yul\":5176:5185   */\n      dup4\n        /* \"#utility.yul\":5172:5189   */\n      add\n        /* \"#utility.yul\":5159:5190   */\n      calldataload\n        /* \"#utility.yul\":5217:5235   */\n      0xffffffffffffffff\n        /* \"#utility.yul\":5209:5215   */\n      dup2\n        /* \"#utility.yul\":5206:5236   */\n      gt\n        /* \"#utility.yul\":5203:5320   */\n      iszero\n      tag_343\n      jumpi\n        /* \"#utility.yul\":5239:5318   */\n      tag_344\n      tag_310\n      jump\t// in\n    tag_344:\n        /* \"#utility.yul\":5203:5320   */\n    tag_343:\n        /* \"#utility.yul\":5344:5407   */\n      tag_345\n        /* \"#utility.yul\":5399:5406   */\n      dup6\n        /* \"#utility.yul\":5390:5396   */\n      dup3\n        /* \"#utility.yul\":5379:5388   */\n      dup7\n        /* \"#utility.yul\":5375:5397   */\n      add\n        /* \"#utility.yul\":5344:5407   */\n      tag_294\n      jump\t// in\n    tag_345:\n        /* \"#utility.yul\":5334:5407   */\n      swap3\n      pop\n        /* \"#utility.yul\":5130:5417   */\n      pop\n        /* \"#utility.yul\":5456:5458   */\n      0x20\n        /* \"#utility.yul\":5482:5535   */\n      tag_346\n        /* \"#utility.yul\":5527:5534   */\n      dup6\n        /* \"#utility.yul\":5518:5524   */\n      dup3\n        /* \"#utility.yul\":5507:5516   */\n      dup7\n        /* \"#utility.yul\":5503:5525   */\n      add\n        /* \"#utility.yul\":5482:5535   */\n      tag_299\n      jump\t// in\n    tag_346:\n        /* \"#utility.yul\":5472:5535   */\n      swap2\n      pop\n        /* \"#utility.yul\":5427:5545   */\n      pop\n        /* \"#utility.yul\":4898:5552   */\n      swap3\n      pop\n      swap3\n      swap1\n      pop\n      jump\t// out\n        /* \"#utility.yul\":5558:7009   */\n    tag_32:\n        /* \"#utility.yul\":5683:5689   */\n      0x00\n        /* \"#utility.yul\":5691:5697   */\n      dup1\n        /* \"#utility.yul\":5699:5705   */\n      0x00\n        /* \"#utility.yul\":5707:5713   */\n      dup1\n        /* \"#utility.yul\":5715:5721   */\n      0x00\n        /* \"#utility.yul\":5764:5767   */\n      0xa0\n        /* \"#utility.yul\":5752:5761   */\n      dup7\n        /* \"#utility.yul\":5743:5750   */\n      dup9\n        /* \"#utility.yul\":5739:5762   */\n      sub\n        /* \"#utility.yul\":5735:5768   */\n      slt\n        /* \"#utility.yul\":5732:5852   */\n      iszero\n      tag_348\n      jumpi\n        /* \"#utility.yul\":5771:5850   */\n      tag_349\n      tag_306\n      jump\t// in\n    tag_349:\n        /* \"#utility.yul\":5732:5852   */\n    tag_348:\n        /* \"#utility.yul\":5919:5920   */\n      0x00\n        /* \"#utility.yul\":5908:5917   */\n      dup7\n        /* \"#utility.yul\":5904:5921   */\n      add\n        /* \"#utility.yul\":5891:5922   */\n      calldataload\n        /* \"#utility.yul\":5949:5967   */\n      0xffffffffffffffff\n        /* \"#utility.yul\":5941:5947   */\n      dup2\n        /* \"#utility.yul\":5938:5968   */\n      gt\n        /* \"#utility.yul\":5935:6052   */\n      iszero\n      tag_350\n      jumpi\n        /* \"#utility.yul\":5971:6050   */\n      tag_351\n      tag_310\n      jump\t// in\n    tag_351:\n        /* \"#utility.yul\":5935:6052   */\n    tag_350:\n        /* \"#utility.yul\":6076:6139   */\n      tag_352\n        /* \"#utility.yul\":6131:6138   */\n      dup9\n        /* \"#utility.yul\":6122:6128   */\n      dup3\n        /* \"#utility.yul\":6111:6120   */\n      dup10\n        /* \"#utility.yul\":6107:6129   */\n      add\n        /* \"#utility.yul\":6076:6139   */\n      tag_294\n      jump\t// in\n    tag_352:\n        /* \"#utility.yul\":6066:6139   */\n      swap6\n      pop\n        /* \"#utility.yul\":5862:6149   */\n      pop\n        /* \"#utility.yul\":6188:6190   */\n      0x20\n        /* \"#utility.yul\":6214:6267   */\n      tag_353\n        /* \"#utility.yul\":6259:6266   */\n      dup9\n        /* \"#utility.yul\":6250:6256   */\n      dup3\n        /* \"#utility.yul\":6239:6248   */\n      dup10\n        /* \"#utility.yul\":6235:6257   */\n      add\n        /* \"#utility.yul\":6214:6267   */\n      tag_299\n      jump\t// in\n    tag_353:\n        /* \"#utility.yul\":6204:6267   */\n      swap5\n      pop\n        /* \"#utility.yul\":6159:6277   */\n      pop\n        /* \"#utility.yul\":6316:6318   */\n      0x40\n        /* \"#utility.yul\":6342:6395   */\n      tag_354\n        /* \"#utility.yul\":6387:6394   */\n      dup9\n        /* \"#utility.yul\":6378:6384   */\n      dup3\n        /* \"#utility.yul\":6367:6376   */\n      dup10\n        /* \"#utility.yul\":6363:6385   */\n      add\n        /* \"#utility.yul\":6342:6395   */\n      tag_299\n      jump\t// in\n    tag_354:\n        /* \"#utility.yul\":6332:6395   */\n      swap4\n      pop\n        /* \"#utility.yul\":6287:6405   */\n      pop\n        /* \"#utility.yul\":6472:6474   */\n      0x60\n        /* \"#utility.yul\":6461:6470   */\n      dup7\n        /* \"#utility.yul\":6457:6475   */\n      add\n        /* \"#utility.yul\":6444:6476   */\n      calldataload\n        /* \"#utility.yul\":6503:6521   */\n      0xffffffffffffffff\n        /* \"#utility.yul\":6495:6501   */\n      dup2\n        /* \"#utility.yul\":6492:6522   */\n      gt\n        /* \"#utility.yul\":6489:6606   */\n      iszero\n      tag_355\n      jumpi\n        /* \"#utility.yul\":6525:6604   */\n      tag_356\n      tag_310\n      jump\t// in\n    tag_356:\n        /* \"#utility.yul\":6489:6606   */\n    tag_355:\n        /* \"#utility.yul\":6630:6693   */\n      tag_357\n        /* \"#utility.yul\":6685:6692   */\n      dup9\n        /* \"#utility.yul\":6676:6682   */\n      dup3\n        /* \"#utility.yul\":6665:6674   */\n      dup10\n        /* \"#utility.yul\":6661:6683   */\n      add\n        /* \"#utility.yul\":6630:6693   */\n      tag_294\n      jump\t// in\n    tag_357:\n        /* \"#utility.yul\":6620:6693   */\n      swap3\n      pop\n        /* \"#utility.yul\":6415:6703   */\n      pop\n        /* \"#utility.yul\":6770:6773   */\n      0x80\n        /* \"#utility.yul\":6759:6768   */\n      dup7\n        /* \"#utility.yul\":6755:6774   */\n      add\n        /* \"#utility.yul\":6742:6775   */\n      calldataload\n        /* \"#utility.yul\":6802:6820   */\n      0xffffffffffffffff\n        /* \"#utility.yul\":6794:6800   */\n      dup2\n        /* \"#utility.yul\":6791:6821   */\n      gt\n        /* \"#utility.yul\":6788:6905   */\n      iszero\n      tag_358\n      jumpi\n        /* \"#utility.yul\":6824:6903   */\n      tag_359\n      tag_310\n      jump\t// in\n    tag_359:\n        /* \"#utility.yul\":6788:6905   */\n    tag_358:\n        /* \"#utility.yul\":6929:6992   */\n      tag_360\n        /* \"#utility.yul\":6984:6991   */\n      dup9\n        /* \"#utility.yul\":6975:6981   */\n      dup3\n        /* \"#utility.yul\":6964:6973   */\n      dup10\n        /* \"#utility.yul\":6960:6982   */\n      add\n        /* \"#utility.yul\":6929:6992   */\n      tag_294\n      jump\t// in\n    tag_360:\n        /* \"#utility.yul\":6919:6992   */\n      swap2\n      pop\n        /* \"#utility.yul\":6713:7002   */\n      pop\n        /* \"#utility.yul\":5558:7009   */\n      swap3\n      swap6\n      pop\n      swap3\n      swap6\n      swap1\n      swap4\n      pop\n      jump\t// out\n        /* \"#utility.yul\":7015:7274   */\n    tag_361:\n        /* \"#utility.yul\":7124:7134   */\n      0x00\n        /* \"#utility.yul\":7145:7231   */\n      tag_363\n        /* \"#utility.yul\":7227:7230   */\n      dup4\n        /* \"#utility.yul\":7219:7225   */\n      dup4\n        /* \"#utility.yul\":7145:7231   */\n      tag_364\n      jump\t// in\n    tag_363:\n        /* \"#utility.yul\":7263:7267   */\n      0x60\n        /* \"#utility.yul\":7258:7261   */\n      dup4\n        /* \"#utility.yul\":7254:7268   */\n      add\n        /* \"#utility.yul\":7240:7268   */\n      swap1\n      pop\n        /* \"#utility.yul\":7015:7274   */\n      swap3\n      swap2\n      pop\n      pop\n      jump\t// out\n        /* \"#utility.yul\":7280:7388   */\n    tag_365:\n        /* \"#utility.yul\":7357:7381   */\n      tag_367\n        /* \"#utility.yul\":7375:7380   */\n      dup2\n        /* \"#utility.yul\":7357:7381   */\n      tag_368\n      jump\t// in\n    tag_367:\n        /* \"#utility.yul\":7352:7355   */\n      dup3\n        /* \"#utility.yul\":7345:7382   */\n      mstore\n        /* \"#utility.yul\":7280:7388   */\n      pop\n      pop\n      jump\t// out\n        /* \"#utility.yul\":7394:7512   */\n    tag_369:\n        /* \"#utility.yul\":7481:7505   */\n      tag_371\n        /* \"#utility.yul\":7499:7504   */\n      dup2\n        /* \"#utility.yul\":7481:7505   */\n      tag_368\n      jump\t// in\n    tag_371:\n        /* \"#utility.yul\":7476:7479   */\n      dup3\n        /* \"#utility.yul\":7469:7506   */\n      mstore\n        /* \"#utility.yul\":7394:7512   */\n      pop\n      pop\n      jump\t// out\n        /* \"#utility.yul\":7596:8488   */\n    tag_372:\n        /* \"#utility.yul\":7755:7758   */\n      0x00\n        /* \"#utility.yul\":7784:7858   */\n      tag_374\n        /* \"#utility.yul\":7852:7857   */\n      dup3\n        /* \"#utility.yul\":7784:7858   */\n      tag_375\n      jump\t// in\n    tag_374:\n        /* \"#utility.yul\":7874:7980   */\n      tag_376\n        /* \"#utility.yul\":7973:7979   */\n      dup2\n        /* \"#utility.yul\":7968:7971   */\n      dup6\n        /* \"#utility.yul\":7874:7980   */\n      tag_377\n      jump\t// in\n    tag_376:\n        /* \"#utility.yul\":7867:7980   */\n      swap4\n      pop\n        /* \"#utility.yul\":8004:8080   */\n      tag_378\n        /* \"#utility.yul\":8074:8079   */\n      dup4\n        /* \"#utility.yul\":8004:8080   */\n      tag_379\n      jump\t// in\n    tag_378:\n        /* \"#utility.yul\":8103:8110   */\n      dup1\n        /* \"#utility.yul\":8134:8135   */\n      0x00\n        /* \"#utility.yul\":8119:8463   */\n    tag_380:\n        /* \"#utility.yul\":8144:8150   */\n      dup4\n        /* \"#utility.yul\":8141:8142   */\n      dup2\n        /* \"#utility.yul\":8138:8151   */\n      lt\n        /* \"#utility.yul\":8119:8463   */\n      iszero\n      tag_382\n      jumpi\n        /* \"#utility.yul\":8220:8226   */\n      dup2\n        /* \"#utility.yul\":8214:8227   */\n      mload\n        /* \"#utility.yul\":8247:8350   */\n      tag_383\n        /* \"#utility.yul\":8346:8349   */\n      dup9\n        /* \"#utility.yul\":8331:8344   */\n      dup3\n        /* \"#utility.yul\":8247:8350   */\n      tag_361\n      jump\t// in\n    tag_383:\n        /* \"#utility.yul\":8240:8350   */\n      swap8\n      pop\n        /* \"#utility.yul\":8373:8453   */\n      tag_384\n        /* \"#utility.yul\":8446:8452   */\n      dup4\n        /* \"#utility.yul\":8373:8453   */\n      tag_385\n      jump\t// in\n    tag_384:\n        /* \"#utility.yul\":8363:8453   */\n      swap3\n      pop\n        /* \"#utility.yul\":8179:8463   */\n      pop\n        /* \"#utility.yul\":8166:8167   */\n      0x01\n        /* \"#utility.yul\":8163:8164   */\n      dup2\n        /* \"#utility.yul\":8159:8168   */\n      add\n        /* \"#utility.yul\":8154:8168   */\n      swap1\n      pop\n        /* \"#utility.yul\":8119:8463   */\n      jump(tag_380)\n    tag_382:\n        /* \"#utility.yul\":8123:8137   */\n      pop\n        /* \"#utility.yul\":8479:8482   */\n      dup6\n        /* \"#utility.yul\":8472:8482   */\n      swap4\n      pop\n        /* \"#utility.yul\":7760:8488   */\n      pop\n      pop\n      pop\n        /* \"#utility.yul\":7596:8488   */\n      swap3\n      swap2\n      pop\n      pop\n      jump\t// out\n        /* \"#utility.yul\":8494:8593   */\n    tag_386:\n        /* \"#utility.yul\":8565:8586   */\n      tag_388\n        /* \"#utility.yul\":8580:8585   */\n      dup2\n        /* \"#utility.yul\":8565:8586   */\n      tag_389\n      jump\t// in\n    tag_388:\n        /* \"#utility.yul\":8560:8563   */\n      dup3\n        /* \"#utility.yul\":8553:8587   */\n      mstore\n        /* \"#utility.yul\":8494:8593   */\n      pop\n      pop\n      jump\t// out\n        /* \"#utility.yul\":8599:8708   */\n    tag_390:\n        /* \"#utility.yul\":8680:8701   */\n      tag_392\n        /* \"#utility.yul\":8695:8700   */\n      dup2\n        /* \"#utility.yul\":8680:8701   */\n      tag_389\n      jump\t// in\n    tag_392:\n        /* \"#utility.yul\":8675:8678   */\n      dup3\n        /* \"#utility.yul\":8668:8702   */\n      mstore\n        /* \"#utility.yul\":8599:8708   */\n      pop\n      pop\n      jump\t// out\n        /* \"#utility.yul\":8714:8832   */\n    tag_393:\n        /* \"#utility.yul\":8801:8825   */\n      tag_395\n        /* \"#utility.yul\":8819:8824   */\n      dup2\n        /* \"#utility.yul\":8801:8825   */\n      tag_396\n      jump\t// in\n    tag_395:\n        /* \"#utility.yul\":8796:8799   */\n      dup3\n        /* \"#utility.yul\":8789:8826   */\n      mstore\n        /* \"#utility.yul\":8714:8832   */\n      pop\n      pop\n      jump\t// out\n        /* \"#utility.yul\":8862:9179   */\n    tag_397:\n        /* \"#utility.yul\":8978:8981   */\n      0x00\n        /* \"#utility.yul\":8999:9088   */\n      tag_399\n        /* \"#utility.yul\":9081:9087   */\n      dup4\n        /* \"#utility.yul\":9076:9079   */\n      dup6\n        /* \"#utility.yul\":8999:9088   */\n      tag_400\n      jump\t// in\n    tag_399:\n        /* \"#utility.yul\":8992:9088   */\n      swap4\n      pop\n        /* \"#utility.yul\":9098:9141   */\n      tag_401\n        /* \"#utility.yul\":9134:9140   */\n      dup4\n        /* \"#utility.yul\":9129:9132   */\n      dup6\n        /* \"#utility.yul\":9122:9127   */\n      dup5\n        /* \"#utility.yul\":9098:9141   */\n      tag_278\n      jump\t// in\n    tag_401:\n        /* \"#utility.yul\":9166:9172   */\n      dup3\n        /* \"#utility.yul\":9161:9164   */\n      dup5\n        /* \"#utility.yul\":9157:9173   */\n      add\n        /* \"#utility.yul\":9150:9173   */\n      swap1\n      pop\n        /* \"#utility.yul\":8862:9179   */\n      swap4\n      swap3\n      pop\n      pop\n      pop\n      jump\t// out\n        /* \"#utility.yul\":9185:9549   */\n    tag_402:\n        /* \"#utility.yul\":9273:9276   */\n      0x00\n        /* \"#utility.yul\":9301:9340   */\n      tag_404\n        /* \"#utility.yul\":9334:9339   */\n      dup3\n        /* \"#utility.yul\":9301:9340   */\n      tag_405\n      jump\t// in\n    tag_404:\n        /* \"#utility.yul\":9356:9427   */\n      tag_406\n        /* \"#utility.yul\":9420:9426   */\n      dup2\n        /* \"#utility.yul\":9415:9418   */\n      dup6\n        /* \"#utility.yul\":9356:9427   */\n      tag_407\n      jump\t// in\n    tag_406:\n        /* \"#utility.yul\":9349:9427   */\n      swap4\n      pop\n        /* \"#utility.yul\":9436:9488   */\n      tag_408\n        /* \"#utility.yul\":9481:9487   */\n      dup2\n        /* \"#utility.yul\":9476:9479   */\n      dup6\n        /* \"#utility.yul\":9469:9473   */\n      0x20\n        /* \"#utility.yul\":9462:9467   */\n      dup7\n        /* \"#utility.yul\":9458:9474   */\n      add\n        /* \"#utility.yul\":9436:9488   */\n      tag_409\n      jump\t// in\n    tag_408:\n        /* \"#utility.yul\":9513:9542   */\n      tag_410\n        /* \"#utility.yul\":9535:9541   */\n      dup2\n        /* \"#utility.yul\":9513:9542   */\n      tag_411\n      jump\t// in\n    tag_410:\n        /* \"#utility.yul\":9508:9511   */\n      dup5\n        /* \"#utility.yul\":9504:9543   */\n      add\n        /* \"#utility.yul\":9497:9543   */\n      swap2\n      pop\n        /* \"#utility.yul\":9277:9549   */\n      pop\n        /* \"#utility.yul\":9185:9549   */\n      swap3\n      swap2\n      pop\n      pop\n      jump\t// out\n        /* \"#utility.yul\":9555:9932   */\n    tag_412:\n        /* \"#utility.yul\":9661:9664   */\n      0x00\n        /* \"#utility.yul\":9689:9728   */\n      tag_414\n        /* \"#utility.yul\":9722:9727   */\n      dup3\n        /* \"#utility.yul\":9689:9728   */\n      tag_405\n      jump\t// in\n    tag_414:\n        /* \"#utility.yul\":9744:9833   */\n      tag_415\n        /* \"#utility.yul\":9826:9832   */\n      dup2\n        /* \"#utility.yul\":9821:9824   */\n      dup6\n        /* \"#utility.yul\":9744:9833   */\n      tag_400\n      jump\t// in\n    tag_415:\n        /* \"#utility.yul\":9737:9833   */\n      swap4\n      pop\n        /* \"#utility.yul\":9842:9894   */\n      tag_416\n        /* \"#utility.yul\":9887:9893   */\n      dup2\n        /* \"#utility.yul\":9882:9885   */\n      dup6\n        /* \"#utility.yul\":9875:9879   */\n      0x20\n        /* \"#utility.yul\":9868:9873   */\n      dup7\n        /* \"#utility.yul\":9864:9880   */\n      add\n        /* \"#utility.yul\":9842:9894   */\n      tag_409\n      jump\t// in\n    tag_416:\n        /* \"#utility.yul\":9919:9925   */\n      dup1\n        /* \"#utility.yul\":9914:9917   */\n      dup5\n        /* \"#utility.yul\":9910:9926   */\n      add\n        /* \"#utility.yul\":9903:9926   */\n      swap2\n      pop\n        /* \"#utility.yul\":9665:9932   */\n      pop\n        /* \"#utility.yul\":9555:9932   */\n      swap3\n      swap2\n      pop\n      pop\n      jump\t// out\n        /* \"#utility.yul\":9938:10304   */\n    tag_417:\n        /* \"#utility.yul\":10080:10083   */\n      0x00\n        /* \"#utility.yul\":10101:10168   */\n      tag_419\n        /* \"#utility.yul\":10165:10167   */\n      0x1f\n        /* \"#utility.yul\":10160:10163   */\n      dup4\n        /* \"#utility.yul\":10101:10168   */\n      tag_407\n      jump\t// in\n    tag_419:\n        /* \"#utility.yul\":10094:10168   */\n      swap2\n      pop\n        /* \"#utility.yul\":10177:10270   */\n      tag_420\n        /* \"#utility.yul\":10266:10269   */\n      dup3\n        /* \"#utility.yul\":10177:10270   */\n      tag_421\n      jump\t// in\n    tag_420:\n        /* \"#utility.yul\":10295:10297   */\n      0x20\n        /* \"#utility.yul\":10290:10293   */\n      dup3\n        /* \"#utility.yul\":10286:10298   */\n      add\n        /* \"#utility.yul\":10279:10298   */\n      swap1\n      pop\n        /* \"#utility.yul\":9938:10304   */\n      swap2\n      swap1\n      pop\n      jump\t// out\n        /* \"#utility.yul\":10310:10676   */\n    tag_422:\n        /* \"#utility.yul\":10452:10455   */\n      0x00\n        /* \"#utility.yul\":10473:10540   */\n      tag_424\n        /* \"#utility.yul\":10537:10539   */\n      0x19\n        /* \"#utility.yul\":10532:10535   */\n      dup4\n        /* \"#utility.yul\":10473:10540   */\n      tag_407\n      jump\t// in\n    tag_424:\n        /* \"#utility.yul\":10466:10540   */\n      swap2\n      pop\n        /* \"#utility.yul\":10549:10642   */\n      tag_425\n        /* \"#utility.yul\":10638:10641   */\n      dup3\n        /* \"#utility.yul\":10549:10642   */\n      tag_426\n      jump\t// in\n    tag_425:\n        /* \"#utility.yul\":10667:10669   */\n      0x20\n        /* \"#utility.yul\":10662:10665   */\n      dup3\n        /* \"#utility.yul\":10658:10670   */\n      add\n        /* \"#utility.yul\":10651:10670   */\n      swap1\n      pop\n        /* \"#utility.yul\":10310:10676   */\n      swap2\n      swap1\n      pop\n      jump\t// out\n        /* \"#utility.yul\":10682:11048   */\n    tag_427:\n        /* \"#utility.yul\":10824:10827   */\n      0x00\n        /* \"#utility.yul\":10845:10912   */\n      tag_429\n        /* \"#utility.yul\":10909:10911   */\n      0x26\n        /* \"#utility.yul\":10904:10907   */\n      dup4\n        /* \"#utility.yul\":10845:10912   */\n      tag_407\n      jump\t// in\n    tag_429:\n        /* \"#utility.yul\":10838:10912   */\n      swap2\n      pop\n        /* \"#utility.yul\":10921:11014   */\n      tag_430\n        /* \"#utility.yul\":11010:11013   */\n      dup3\n        /* \"#utility.yul\":10921:11014   */\n      tag_431\n      jump\t// in\n    tag_430:\n        /* \"#utility.yul\":11039:11041   */\n      0x40\n        /* \"#utility.yul\":11034:11037   */\n      dup3\n        /* \"#utility.yul\":11030:11042   */\n      add\n        /* \"#utility.yul\":11023:11042   */\n      swap1\n      pop\n        /* \"#utility.yul\":10682:11048   */\n      swap2\n      swap1\n      pop\n      jump\t// out\n        /* \"#utility.yul\":11054:11420   */\n    tag_432:\n        /* \"#utility.yul\":11196:11199   */\n      0x00\n        /* \"#utility.yul\":11217:11284   */\n      tag_434\n        /* \"#utility.yul\":11281:11283   */\n      0x1c\n        /* \"#utility.yul\":11276:11279   */\n      dup4\n        /* \"#utility.yul\":11217:11284   */\n      tag_407\n      jump\t// in\n    tag_434:\n        /* \"#utility.yul\":11210:11284   */\n      swap2\n      pop\n        /* \"#utility.yul\":11293:11386   */\n      tag_435\n        /* \"#utility.yul\":11382:11385   */\n      dup3\n        /* \"#utility.yul\":11293:11386   */\n      tag_436\n      jump\t// in\n    tag_435:\n        /* \"#utility.yul\":11411:11413   */\n      0x20\n        /* \"#utility.yul\":11406:11409   */\n      dup3\n        /* \"#utility.yul\":11402:11414   */\n      add\n        /* \"#utility.yul\":11395:11414   */\n      swap1\n      pop\n        /* \"#utility.yul\":11054:11420   */\n      swap2\n      swap1\n      pop\n      jump\t// out\n        /* \"#utility.yul\":11426:11792   */\n    tag_437:\n        /* \"#utility.yul\":11568:11571   */\n      0x00\n        /* \"#utility.yul\":11589:11656   */\n      tag_439\n        /* \"#utility.yul\":11653:11655   */\n      0x15\n        /* \"#utility.yul\":11648:11651   */\n      dup4\n        /* \"#utility.yul\":11589:11656   */\n      tag_407\n      jump\t// in\n    tag_439:\n        /* \"#utility.yul\":11582:11656   */\n      swap2\n      pop\n        /* \"#utility.yul\":11665:11758   */\n      tag_440\n        /* \"#utility.yul\":11754:11757   */\n      dup3\n        /* \"#utility.yul\":11665:11758   */\n      tag_441\n      jump\t// in\n    tag_440:\n        /* \"#utility.yul\":11783:11785   */\n      0x20\n        /* \"#utility.yul\":11778:11781   */\n      dup3\n        /* \"#utility.yul\":11774:11786   */\n      add\n        /* \"#utility.yul\":11767:11786   */\n      swap1\n      pop\n        /* \"#utility.yul\":11426:11792   */\n      swap2\n      swap1\n      pop\n      jump\t// out\n        /* \"#utility.yul\":11798:12164   */\n    tag_442:\n        /* \"#utility.yul\":11940:11943   */\n      0x00\n        /* \"#utility.yul\":11961:12028   */\n      tag_444\n        /* \"#utility.yul\":12025:12027   */\n      0x1e\n        /* \"#utility.yul\":12020:12023   */\n      dup4\n        /* \"#utility.yul\":11961:12028   */\n      tag_407\n      jump\t// in\n    tag_444:\n        /* \"#utility.yul\":11954:12028   */\n      swap2\n      pop\n        /* \"#utility.yul\":12037:12130   */\n      tag_445\n        /* \"#utility.yul\":12126:12129   */\n      dup3\n        /* \"#utility.yul\":12037:12130   */\n      tag_446\n      jump\t// in\n    tag_445:\n        /* \"#utility.yul\":12155:12157   */\n      0x20\n        /* \"#utility.yul\":12150:12153   */\n      dup3\n        /* \"#utility.yul\":12146:12158   */\n      add\n        /* \"#utility.yul\":12139:12158   */\n      swap1\n      pop\n        /* \"#utility.yul\":11798:12164   */\n      swap2\n      swap1\n      pop\n      jump\t// out\n        /* \"#utility.yul\":12170:12536   */\n    tag_447:\n        /* \"#utility.yul\":12312:12315   */\n      0x00\n        /* \"#utility.yul\":12333:12400   */\n      tag_449\n        /* \"#utility.yul\":12397:12399   */\n      0x24\n        /* \"#utility.yul\":12392:12395   */\n      dup4\n        /* \"#utility.yul\":12333:12400   */\n      tag_407\n      jump\t// in\n    tag_449:\n        /* \"#utility.yul\":12326:12400   */\n      swap2\n      pop\n        /* \"#utility.yul\":12409:12502   */\n      tag_450\n        /* \"#utility.yul\":12498:12501   */\n      dup3\n        /* \"#utility.yul\":12409:12502   */\n      tag_451\n      jump\t// in\n    tag_450:\n        /* \"#utility.yul\":12527:12529   */\n      0x40\n        /* \"#utility.yul\":12522:12525   */\n      dup3\n        /* \"#utility.yul\":12518:12530   */\n      add\n        /* \"#utility.yul\":12511:12530   */\n      swap1\n      pop\n        /* \"#utility.yul\":12170:12536   */\n      swap2\n      swap1\n      pop\n      jump\t// out\n        /* \"#utility.yul\":12542:12908   */\n    tag_452:\n        /* \"#utility.yul\":12684:12687   */\n      0x00\n        /* \"#utility.yul\":12705:12772   */\n      tag_454\n        /* \"#utility.yul\":12769:12771   */\n      0x28\n        /* \"#utility.yul\":12764:12767   */\n      dup4\n        /* \"#utility.yul\":12705:12772   */\n      tag_407\n      jump\t// in\n    tag_454:\n        /* \"#utility.yul\":12698:12772   */\n      swap2\n      pop\n        /* \"#utility.yul\":12781:12874   */\n      tag_455\n        /* \"#utility.yul\":12870:12873   */\n      dup3\n        /* \"#utility.yul\":12781:12874   */\n      tag_456\n      jump\t// in\n    tag_455:\n        /* \"#utility.yul\":12899:12901   */\n      0x40\n        /* \"#utility.yul\":12894:12897   */\n      dup3\n        /* \"#utility.yul\":12890:12902   */\n      add\n        /* \"#utility.yul\":12883:12902   */\n      swap1\n      pop\n        /* \"#utility.yul\":12542:12908   */\n      swap2\n      swap1\n      pop\n      jump\t// out\n        /* \"#utility.yul\":12914:13280   */\n    tag_457:\n        /* \"#utility.yul\":13056:13059   */\n      0x00\n        /* \"#utility.yul\":13077:13144   */\n      tag_459\n        /* \"#utility.yul\":13141:13143   */\n      0x20\n        /* \"#utility.yul\":13136:13139   */\n      dup4\n        /* \"#utility.yul\":13077:13144   */\n      tag_407\n      jump\t// in\n    tag_459:\n        /* \"#utility.yul\":13070:13144   */\n      swap2\n      pop\n        /* \"#utility.yul\":13153:13246   */\n      tag_460\n        /* \"#utility.yul\":13242:13245   */\n      dup3\n        /* \"#utility.yul\":13153:13246   */\n      tag_461\n      jump\t// in\n    tag_460:\n        /* \"#utility.yul\":13271:13273   */\n      0x20\n        /* \"#utility.yul\":13266:13269   */\n      dup3\n        /* \"#utility.yul\":13262:13274   */\n      add\n        /* \"#utility.yul\":13255:13274   */\n      swap1\n      pop\n        /* \"#utility.yul\":12914:13280   */\n      swap2\n      swap1\n      pop\n      jump\t// out\n        /* \"#utility.yul\":13286:13652   */\n    tag_462:\n        /* \"#utility.yul\":13428:13431   */\n      0x00\n        /* \"#utility.yul\":13449:13516   */\n      tag_464\n        /* \"#utility.yul\":13513:13515   */\n      0x12\n        /* \"#utility.yul\":13508:13511   */\n      dup4\n        /* \"#utility.yul\":13449:13516   */\n      tag_407\n      jump\t// in\n    tag_464:\n        /* \"#utility.yul\":13442:13516   */\n      swap2\n      pop\n        /* \"#utility.yul\":13525:13618   */\n      tag_465\n        /* \"#utility.yul\":13614:13617   */\n      dup3\n        /* \"#utility.yul\":13525:13618   */\n      tag_466\n      jump\t// in\n    tag_465:\n        /* \"#utility.yul\":13643:13645   */\n      0x20\n        /* \"#utility.yul\":13638:13641   */\n      dup3\n        /* \"#utility.yul\":13634:13646   */\n      add\n        /* \"#utility.yul\":13627:13646   */\n      swap1\n      pop\n        /* \"#utility.yul\":13286:13652   */\n      swap2\n      swap1\n      pop\n      jump\t// out\n        /* \"#utility.yul\":13658:14024   */\n    tag_467:\n        /* \"#utility.yul\":13800:13803   */\n      0x00\n        /* \"#utility.yul\":13821:13888   */\n      tag_469\n        /* \"#utility.yul\":13885:13887   */\n      0x25\n        /* \"#utility.yul\":13880:13883   */\n      dup4\n        /* \"#utility.yul\":13821:13888   */\n      tag_407\n      jump\t// in\n    tag_469:\n        /* \"#utility.yul\":13814:13888   */\n      swap2\n      pop\n        /* \"#utility.yul\":13897:13990   */\n      tag_470\n        /* \"#utility.yul\":13986:13989   */\n      dup3\n        /* \"#utility.yul\":13897:13990   */\n      tag_471\n      jump\t// in\n    tag_470:\n        /* \"#utility.yul\":14015:14017   */\n      0x40\n        /* \"#utility.yul\":14010:14013   */\n      dup3\n        /* \"#utility.yul\":14006:14018   */\n      add\n        /* \"#utility.yul\":13999:14018   */\n      swap1\n      pop\n        /* \"#utility.yul\":13658:14024   */\n      swap2\n      swap1\n      pop\n      jump\t// out\n        /* \"#utility.yul\":14104:14759   */\n    tag_364:\n        /* \"#utility.yul\":14231:14235   */\n      0x60\n        /* \"#utility.yul\":14226:14229   */\n      dup3\n        /* \"#utility.yul\":14222:14236   */\n      add\n        /* \"#utility.yul\":14319:14323   */\n      0x00\n        /* \"#utility.yul\":14312:14317   */\n      dup3\n        /* \"#utility.yul\":14308:14324   */\n      add\n        /* \"#utility.yul\":14302:14325   */\n      mload\n        /* \"#utility.yul\":14338:14395   */\n      tag_473\n        /* \"#utility.yul\":14389:14393   */\n      0x00\n        /* \"#utility.yul\":14384:14387   */\n      dup6\n        /* \"#utility.yul\":14380:14394   */\n      add\n        /* \"#utility.yul\":14366:14378   */\n      dup3\n        /* \"#utility.yul\":14338:14395   */\n      tag_386\n      jump\t// in\n    tag_473:\n        /* \"#utility.yul\":14246:14405   */\n      pop\n        /* \"#utility.yul\":14487:14491   */\n      0x20\n        /* \"#utility.yul\":14480:14485   */\n      dup3\n        /* \"#utility.yul\":14476:14492   */\n      add\n        /* \"#utility.yul\":14470:14493   */\n      mload\n        /* \"#utility.yul\":14506:14563   */\n      tag_474\n        /* \"#utility.yul\":14557:14561   */\n      0x20\n        /* \"#utility.yul\":14552:14555   */\n      dup6\n        /* \"#utility.yul\":14548:14562   */\n      add\n        /* \"#utility.yul\":14534:14546   */\n      dup3\n        /* \"#utility.yul\":14506:14563   */\n      tag_386\n      jump\t// in\n    tag_474:\n        /* \"#utility.yul\":14415:14573   */\n      pop\n        /* \"#utility.yul\":14660:14664   */\n      0x40\n        /* \"#utility.yul\":14653:14658   */\n      dup3\n        /* \"#utility.yul\":14649:14665   */\n      add\n        /* \"#utility.yul\":14643:14666   */\n      mload\n        /* \"#utility.yul\":14679:14742   */\n      tag_475\n        /* \"#utility.yul\":14736:14740   */\n      0x40\n        /* \"#utility.yul\":14731:14734   */\n      dup6\n        /* \"#utility.yul\":14727:14741   */\n      add\n        /* \"#utility.yul\":14713:14725   */\n      dup3\n        /* \"#utility.yul\":14679:14742   */\n      tag_365\n      jump\t// in\n    tag_475:\n        /* \"#utility.yul\":14583:14752   */\n      pop\n        /* \"#utility.yul\":14200:14759   */\n      pop\n        /* \"#utility.yul\":14104:14759   */\n      pop\n      pop\n      jump\t// out\n        /* \"#utility.yul\":14765:14883   */\n    tag_476:\n        /* \"#utility.yul\":14852:14876   */\n      tag_478\n        /* \"#utility.yul\":14870:14875   */\n      dup2\n        /* \"#utility.yul\":14852:14876   */\n      tag_479\n      jump\t// in\n    tag_478:\n        /* \"#utility.yul\":14847:14850   */\n      dup3\n        /* \"#utility.yul\":14840:14877   */\n      mstore\n        /* \"#utility.yul\":14765:14883   */\n      pop\n      pop\n      jump\t// out\n        /* \"#utility.yul\":14889:15184   */\n    tag_113:\n        /* \"#utility.yul\":15031:15034   */\n      0x00\n        /* \"#utility.yul\":15053:15158   */\n      tag_481\n        /* \"#utility.yul\":15154:15157   */\n      dup3\n        /* \"#utility.yul\":15145:15151   */\n      dup5\n        /* \"#utility.yul\":15137:15143   */\n      dup7\n        /* \"#utility.yul\":15053:15158   */\n      tag_397\n      jump\t// in\n    tag_481:\n        /* \"#utility.yul\":15046:15158   */\n      swap2\n      pop\n        /* \"#utility.yul\":15175:15178   */\n      dup2\n        /* \"#utility.yul\":15168:15178   */\n      swap1\n      pop\n        /* \"#utility.yul\":14889:15184   */\n      swap4\n      swap3\n      pop\n      pop\n      pop\n      jump\t// out\n        /* \"#utility.yul\":15190:15465   */\n    tag_100:\n        /* \"#utility.yul\":15322:15325   */\n      0x00\n        /* \"#utility.yul\":15344:15439   */\n      tag_483\n        /* \"#utility.yul\":15435:15438   */\n      dup3\n        /* \"#utility.yul\":15426:15432   */\n      dup5\n        /* \"#utility.yul\":15344:15439   */\n      tag_412\n      jump\t// in\n    tag_483:\n        /* \"#utility.yul\":15337:15439   */\n      swap2\n      pop\n        /* \"#utility.yul\":15456:15459   */\n      dup2\n        /* \"#utility.yul\":15449:15459   */\n      swap1\n      pop\n        /* \"#utility.yul\":15190:15465   */\n      swap3\n      swap2\n      pop\n      pop\n      jump\t// out\n        /* \"#utility.yul\":15471:15693   */\n    tag_23:\n        /* \"#utility.yul\":15564:15568   */\n      0x00\n        /* \"#utility.yul\":15602:15604   */\n      0x20\n        /* \"#utility.yul\":15591:15600   */\n      dup3\n        /* \"#utility.yul\":15587:15605   */\n      add\n        /* \"#utility.yul\":15579:15605   */\n      swap1\n      pop\n        /* \"#utility.yul\":15615:15686   */\n      tag_485\n        /* \"#utility.yul\":15683:15684   */\n      0x00\n        /* \"#utility.yul\":15672:15681   */\n      dup4\n        /* \"#utility.yul\":15668:15685   */\n      add\n        /* \"#utility.yul\":15659:15665   */\n      dup5\n        /* \"#utility.yul\":15615:15686   */\n      tag_369\n      jump\t// in\n    tag_485:\n        /* \"#utility.yul\":15471:15693   */\n      swap3\n      swap2\n      pop\n      pop\n      jump\t// out\n        /* \"#utility.yul\":15699:15909   */\n    tag_79:\n        /* \"#utility.yul\":15786:15790   */\n      0x00\n        /* \"#utility.yul\":15824:15826   */\n      0x20\n        /* \"#utility.yul\":15813:15822   */\n      dup3\n        /* \"#utility.yul\":15809:15827   */\n      add\n        /* \"#utility.yul\":15801:15827   */\n      swap1\n      pop\n        /* \"#utility.yul\":15837:15902   */\n      tag_487\n        /* \"#utility.yul\":15899:15900   */\n      0x00\n        /* \"#utility.yul\":15888:15897   */\n      dup4\n        /* \"#utility.yul\":15884:15901   */\n      add\n        /* \"#utility.yul\":15875:15881   */\n      dup5\n        /* \"#utility.yul\":15837:15902   */\n      tag_390\n      jump\t// in\n    tag_487:\n        /* \"#utility.yul\":15699:15909   */\n      swap3\n      swap2\n      pop\n      pop\n      jump\t// out\n        /* \"#utility.yul\":15915:16333   */\n    tag_43:\n        /* \"#utility.yul\":16052:16056   */\n      0x00\n        /* \"#utility.yul\":16090:16092   */\n      0x60\n        /* \"#utility.yul\":16079:16088   */\n      dup3\n        /* \"#utility.yul\":16075:16093   */\n      add\n        /* \"#utility.yul\":16067:16093   */\n      swap1\n      pop\n        /* \"#utility.yul\":16103:16168   */\n      tag_489\n        /* \"#utility.yul\":16165:16166   */\n      0x00\n        /* \"#utility.yul\":16154:16163   */\n      dup4\n        /* \"#utility.yul\":16150:16167   */\n      add\n        /* \"#utility.yul\":16141:16147   */\n      dup7\n        /* \"#utility.yul\":16103:16168   */\n      tag_390\n      jump\t// in\n    tag_489:\n        /* \"#utility.yul\":16178:16244   */\n      tag_490\n        /* \"#utility.yul\":16240:16242   */\n      0x20\n        /* \"#utility.yul\":16229:16238   */\n      dup4\n        /* \"#utility.yul\":16225:16243   */\n      add\n        /* \"#utility.yul\":16216:16222   */\n      dup6\n        /* \"#utility.yul\":16178:16244   */\n      tag_390\n      jump\t// in\n    tag_490:\n        /* \"#utility.yul\":16254:16326   */\n      tag_491\n        /* \"#utility.yul\":16322:16324   */\n      0x40\n        /* \"#utility.yul\":16311:16320   */\n      dup4\n        /* \"#utility.yul\":16307:16325   */\n      add\n        /* \"#utility.yul\":16298:16304   */\n      dup5\n        /* \"#utility.yul\":16254:16326   */\n      tag_369\n      jump\t// in\n    tag_491:\n        /* \"#utility.yul\":15915:16333   */\n      swap5\n      swap4\n      pop\n      pop\n      pop\n      pop\n      jump\t// out\n        /* \"#utility.yul\":16339:17214   */\n    tag_49:\n        /* \"#utility.yul\":16626:16630   */\n      0x00\n        /* \"#utility.yul\":16664:16667   */\n      0x80\n        /* \"#utility.yul\":16653:16662   */\n      dup3\n        /* \"#utility.yul\":16649:16668   */\n      add\n        /* \"#utility.yul\":16641:16668   */\n      swap1\n      pop\n        /* \"#utility.yul\":16678:16749   */\n      tag_493\n        /* \"#utility.yul\":16746:16747   */\n      0x00\n        /* \"#utility.yul\":16735:16744   */\n      dup4\n        /* \"#utility.yul\":16731:16748   */\n      add\n        /* \"#utility.yul\":16722:16728   */\n      dup8\n        /* \"#utility.yul\":16678:16749   */\n      tag_393\n      jump\t// in\n    tag_493:\n        /* \"#utility.yul\":16796:16805   */\n      dup2\n        /* \"#utility.yul\":16790:16794   */\n      dup2\n        /* \"#utility.yul\":16786:16806   */\n      sub\n        /* \"#utility.yul\":16781:16783   */\n      0x20\n        /* \"#utility.yul\":16770:16779   */\n      dup4\n        /* \"#utility.yul\":16766:16784   */\n      add\n        /* \"#utility.yul\":16759:16807   */\n      mstore\n        /* \"#utility.yul\":16824:16902   */\n      tag_494\n        /* \"#utility.yul\":16897:16901   */\n      dup2\n        /* \"#utility.yul\":16888:16894   */\n      dup7\n        /* \"#utility.yul\":16824:16902   */\n      tag_402\n      jump\t// in\n    tag_494:\n        /* \"#utility.yul\":16816:16902   */\n      swap1\n      pop\n        /* \"#utility.yul\":16912:16984   */\n      tag_495\n        /* \"#utility.yul\":16980:16982   */\n      0x40\n        /* \"#utility.yul\":16969:16978   */\n      dup4\n        /* \"#utility.yul\":16965:16983   */\n      add\n        /* \"#utility.yul\":16956:16962   */\n      dup6\n        /* \"#utility.yul\":16912:16984   */\n      tag_476\n      jump\t// in\n    tag_495:\n        /* \"#utility.yul\":17031:17040   */\n      dup2\n        /* \"#utility.yul\":17025:17029   */\n      dup2\n        /* \"#utility.yul\":17021:17041   */\n      sub\n        /* \"#utility.yul\":17016:17018   */\n      0x60\n        /* \"#utility.yul\":17005:17014   */\n      dup4\n        /* \"#utility.yul\":17001:17019   */\n      add\n        /* \"#utility.yul\":16994:17042   */\n      mstore\n        /* \"#utility.yul\":17059:17207   */\n      tag_496\n        /* \"#utility.yul\":17202:17206   */\n      dup2\n        /* \"#utility.yul\":17193:17199   */\n      dup5\n        /* \"#utility.yul\":17059:17207   */\n      tag_372\n      jump\t// in\n    tag_496:\n        /* \"#utility.yul\":17051:17207   */\n      swap1\n      pop\n        /* \"#utility.yul\":16339:17214   */\n      swap6\n      swap5\n      pop\n      pop\n      pop\n      pop\n      pop\n      jump\t// out\n        /* \"#utility.yul\":17220:17533   */\n    tag_74:\n        /* \"#utility.yul\":17333:17337   */\n      0x00\n        /* \"#utility.yul\":17371:17373   */\n      0x20\n        /* \"#utility.yul\":17360:17369   */\n      dup3\n        /* \"#utility.yul\":17356:17374   */\n      add\n        /* \"#utility.yul\":17348:17374   */\n      swap1\n      pop\n        /* \"#utility.yul\":17420:17429   */\n      dup2\n        /* \"#utility.yul\":17414:17418   */\n      dup2\n        /* \"#utility.yul\":17410:17430   */\n      sub\n        /* \"#utility.yul\":17406:17407   */\n      0x00\n        /* \"#utility.yul\":17395:17404   */\n      dup4\n        /* \"#utility.yul\":17391:17408   */\n      add\n        /* \"#utility.yul\":17384:17431   */\n      mstore\n        /* \"#utility.yul\":17448:17526   */\n      tag_498\n        /* \"#utility.yul\":17521:17525   */\n      dup2\n        /* \"#utility.yul\":17512:17518   */\n      dup5\n        /* \"#utility.yul\":17448:17526   */\n      tag_402\n      jump\t// in\n    tag_498:\n        /* \"#utility.yul\":17440:17526   */\n      swap1\n      pop\n        /* \"#utility.yul\":17220:17533   */\n      swap3\n      swap2\n      pop\n      pop\n      jump\t// out\n        /* \"#utility.yul\":17539:19132   */\n    tag_29:\n        /* \"#utility.yul\":17967:17971   */\n      0x00\n        /* \"#utility.yul\":18005:18008   */\n      0x0160\n        /* \"#utility.yul\":17994:18003   */\n      dup3\n        /* \"#utility.yul\":17990:18009   */\n      add\n        /* \"#utility.yul\":17982:18009   */\n      swap1\n      pop\n        /* \"#utility.yul\":18055:18064   */\n      dup2\n        /* \"#utility.yul\":18049:18053   */\n      dup2\n        /* \"#utility.yul\":18045:18065   */\n      sub\n        /* \"#utility.yul\":18041:18042   */\n      0x00\n        /* \"#utility.yul\":18030:18039   */\n      dup4\n        /* \"#utility.yul\":18026:18043   */\n      add\n        /* \"#utility.yul\":18019:18066   */\n      mstore\n        /* \"#utility.yul\":18083:18161   */\n      tag_500\n        /* \"#utility.yul\":18156:18160   */\n      dup2\n        /* \"#utility.yul\":18147:18153   */\n      dup15\n        /* \"#utility.yul\":18083:18161   */\n      tag_402\n      jump\t// in\n    tag_500:\n        /* \"#utility.yul\":18075:18161   */\n      swap1\n      pop\n        /* \"#utility.yul\":18171:18243   */\n      tag_501\n        /* \"#utility.yul\":18239:18241   */\n      0x20\n        /* \"#utility.yul\":18228:18237   */\n      dup4\n        /* \"#utility.yul\":18224:18242   */\n      add\n        /* \"#utility.yul\":18215:18221   */\n      dup14\n        /* \"#utility.yul\":18171:18243   */\n      tag_369\n      jump\t// in\n    tag_501:\n        /* \"#utility.yul\":18253:18325   */\n      tag_502\n        /* \"#utility.yul\":18321:18323   */\n      0x40\n        /* \"#utility.yul\":18310:18319   */\n      dup4\n        /* \"#utility.yul\":18306:18324   */\n      add\n        /* \"#utility.yul\":18297:18303   */\n      dup13\n        /* \"#utility.yul\":18253:18325   */\n      tag_369\n      jump\t// in\n    tag_502:\n        /* \"#utility.yul\":18335:18407   */\n      tag_503\n        /* \"#utility.yul\":18403:18405   */\n      0x60\n        /* \"#utility.yul\":18392:18401   */\n      dup4\n        /* \"#utility.yul\":18388:18406   */\n      add\n        /* \"#utility.yul\":18379:18385   */\n      dup12\n        /* \"#utility.yul\":18335:18407   */\n      tag_476\n      jump\t// in\n    tag_503:\n        /* \"#utility.yul\":18417:18490   */\n      tag_504\n        /* \"#utility.yul\":18485:18488   */\n      0x80\n        /* \"#utility.yul\":18474:18483   */\n      dup4\n        /* \"#utility.yul\":18470:18489   */\n      add\n        /* \"#utility.yul\":18461:18467   */\n      dup11\n        /* \"#utility.yul\":18417:18490   */\n      tag_476\n      jump\t// in\n    tag_504:\n        /* \"#utility.yul\":18500:18573   */\n      tag_505\n        /* \"#utility.yul\":18568:18571   */\n      0xa0\n        /* \"#utility.yul\":18557:18566   */\n      dup4\n        /* \"#utility.yul\":18553:18572   */\n      add\n        /* \"#utility.yul\":18544:18550   */\n      dup10\n        /* \"#utility.yul\":18500:18573   */\n      tag_476\n      jump\t// in\n    tag_505:\n        /* \"#utility.yul\":18583:18656   */\n      tag_506\n        /* \"#utility.yul\":18651:18654   */\n      0xc0\n        /* \"#utility.yul\":18640:18649   */\n      dup4\n        /* \"#utility.yul\":18636:18655   */\n      add\n        /* \"#utility.yul\":18627:18633   */\n      dup9\n        /* \"#utility.yul\":18583:18656   */\n      tag_476\n      jump\t// in\n    tag_506:\n        /* \"#utility.yul\":18666:18733   */\n      tag_507\n        /* \"#utility.yul\":18728:18731   */\n      0xe0\n        /* \"#utility.yul\":18717:18726   */\n      dup4\n        /* \"#utility.yul\":18713:18732   */\n      add\n        /* \"#utility.yul\":18704:18710   */\n      dup8\n        /* \"#utility.yul\":18666:18733   */\n      tag_390\n      jump\t// in\n    tag_507:\n        /* \"#utility.yul\":18743:18816   */\n      tag_508\n        /* \"#utility.yul\":18811:18814   */\n      0x0100\n        /* \"#utility.yul\":18800:18809   */\n      dup4\n        /* \"#utility.yul\":18796:18815   */\n      add\n        /* \"#utility.yul\":18787:18793   */\n      dup7\n        /* \"#utility.yul\":18743:18816   */\n      tag_393\n      jump\t// in\n    tag_508:\n        /* \"#utility.yul\":18864:18873   */\n      dup2\n        /* \"#utility.yul\":18858:18862   */\n      dup2\n        /* \"#utility.yul\":18854:18874   */\n      sub\n        /* \"#utility.yul\":18848:18851   */\n      0x0120\n        /* \"#utility.yul\":18837:18846   */\n      dup4\n        /* \"#utility.yul\":18833:18852   */\n      add\n        /* \"#utility.yul\":18826:18875   */\n      mstore\n        /* \"#utility.yul\":18892:18970   */\n      tag_509\n        /* \"#utility.yul\":18965:18969   */\n      dup2\n        /* \"#utility.yul\":18956:18962   */\n      dup6\n        /* \"#utility.yul\":18892:18970   */\n      tag_402\n      jump\t// in\n    tag_509:\n        /* \"#utility.yul\":18884:18970   */\n      swap1\n      pop\n        /* \"#utility.yul\":19018:19027   */\n      dup2\n        /* \"#utility.yul\":19012:19016   */\n      dup2\n        /* \"#utility.yul\":19008:19028   */\n      sub\n        /* \"#utility.yul\":19002:19005   */\n      0x0140\n        /* \"#utility.yul\":18991:19000   */\n      dup4\n        /* \"#utility.yul\":18987:19006   */\n      add\n        /* \"#utility.yul\":18980:19029   */\n      mstore\n        /* \"#utility.yul\":19046:19125   */\n      tag_510\n        /* \"#utility.yul\":19120:19124   */\n      dup2\n        /* \"#utility.yul\":19110:19117   */\n      dup5\n        /* \"#utility.yul\":19046:19125   */\n      tag_402\n      jump\t// in\n    tag_510:\n        /* \"#utility.yul\":19038:19125   */\n      swap1\n      pop\n        /* \"#utility.yul\":17539:19132   */\n      swap13\n      swap12\n      pop\n      pop\n      pop\n      pop\n      pop\n      pop\n      pop\n      pop\n      pop\n      pop\n      pop\n      pop\n      jump\t// out\n        /* \"#utility.yul\":19138:19893   */\n    tag_58:\n        /* \"#utility.yul\":19363:19367   */\n      0x00\n        /* \"#utility.yul\":19401:19404   */\n      0xa0\n        /* \"#utility.yul\":19390:19399   */\n      dup3\n        /* \"#utility.yul\":19386:19405   */\n      add\n        /* \"#utility.yul\":19378:19405   */\n      swap1\n      pop\n        /* \"#utility.yul\":19451:19460   */\n      dup2\n        /* \"#utility.yul\":19445:19449   */\n      dup2\n        /* \"#utility.yul\":19441:19461   */\n      sub\n        /* \"#utility.yul\":19437:19438   */\n      0x00\n        /* \"#utility.yul\":19426:19435   */\n      dup4\n        /* \"#utility.yul\":19422:19439   */\n      add\n        /* \"#utility.yul\":19415:19462   */\n      mstore\n        /* \"#utility.yul\":19479:19557   */\n      tag_512\n        /* \"#utility.yul\":19552:19556   */\n      dup2\n        /* \"#utility.yul\":19543:19549   */\n      dup9\n        /* \"#utility.yul\":19479:19557   */\n      tag_402\n      jump\t// in\n    tag_512:\n        /* \"#utility.yul\":19471:19557   */\n      swap1\n      pop\n        /* \"#utility.yul\":19567:19639   */\n      tag_513\n        /* \"#utility.yul\":19635:19637   */\n      0x20\n        /* \"#utility.yul\":19624:19633   */\n      dup4\n        /* \"#utility.yul\":19620:19638   */\n      add\n        /* \"#utility.yul\":19611:19617   */\n      dup8\n        /* \"#utility.yul\":19567:19639   */\n      tag_476\n      jump\t// in\n    tag_513:\n        /* \"#utility.yul\":19649:19721   */\n      tag_514\n        /* \"#utility.yul\":19717:19719   */\n      0x40\n        /* \"#utility.yul\":19706:19715   */\n      dup4\n        /* \"#utility.yul\":19702:19720   */\n      add\n        /* \"#utility.yul\":19693:19699   */\n      dup7\n        /* \"#utility.yul\":19649:19721   */\n      tag_369\n      jump\t// in\n    tag_514:\n        /* \"#utility.yul\":19731:19803   */\n      tag_515\n        /* \"#utility.yul\":19799:19801   */\n      0x60\n        /* \"#utility.yul\":19788:19797   */\n      dup4\n        /* \"#utility.yul\":19784:19802   */\n      add\n        /* \"#utility.yul\":19775:19781   */\n      dup6\n        /* \"#utility.yul\":19731:19803   */\n      tag_476\n      jump\t// in\n    tag_515:\n        /* \"#utility.yul\":19813:19886   */\n      tag_516\n        /* \"#utility.yul\":19881:19884   */\n      0x80\n        /* \"#utility.yul\":19870:19879   */\n      dup4\n        /* \"#utility.yul\":19866:19885   */\n      add\n        /* \"#utility.yul\":19857:19863   */\n      dup5\n        /* \"#utility.yul\":19813:19886   */\n      tag_476\n      jump\t// in\n    tag_516:\n        /* \"#utility.yul\":19138:19893   */\n      swap7\n      swap6\n      pop\n      pop\n      pop\n      pop\n      pop\n      pop\n      jump\t// out\n        /* \"#utility.yul\":19899:20318   */\n    tag_179:\n        /* \"#utility.yul\":20065:20069   */\n      0x00\n        /* \"#utility.yul\":20103:20105   */\n      0x20\n        /* \"#utility.yul\":20092:20101   */\n      dup3\n        /* \"#utility.yul\":20088:20106   */\n      add\n        /* \"#utility.yul\":20080:20106   */\n      swap1\n      pop\n        /* \"#utility.yul\":20152:20161   */\n      dup2\n        /* \"#utility.yul\":20146:20150   */\n      dup2\n        /* \"#utility.yul\":20142:20162   */\n      sub\n        /* \"#utility.yul\":20138:20139   */\n      0x00\n        /* \"#utility.yul\":20127:20136   */\n      dup4\n        /* \"#utility.yul\":20123:20140   */\n      add\n        /* \"#utility.yul\":20116:20163   */\n      mstore\n        /* \"#utility.yul\":20180:20311   */\n      tag_518\n        /* \"#utility.yul\":20306:20310   */\n      dup2\n        /* \"#utility.yul\":20180:20311   */\n      tag_417\n      jump\t// in\n    tag_518:\n        /* \"#utility.yul\":20172:20311   */\n      swap1\n      pop\n        /* \"#utility.yul\":19899:20318   */\n      swap2\n      swap1\n      pop\n      jump\t// out\n        /* \"#utility.yul\":20324:20743   */\n    tag_103:\n        /* \"#utility.yul\":20490:20494   */\n      0x00\n        /* \"#utility.yul\":20528:20530   */\n      0x20\n        /* \"#utility.yul\":20517:20526   */\n      dup3\n        /* \"#utility.yul\":20513:20531   */\n      add\n        /* \"#utility.yul\":20505:20531   */\n      swap1\n      pop\n        /* \"#utility.yul\":20577:20586   */\n      dup2\n        /* \"#utility.yul\":20571:20575   */\n      dup2\n        /* \"#utility.yul\":20567:20587   */\n      sub\n        /* \"#utility.yul\":20563:20564   */\n      0x00\n        /* \"#utility.yul\":20552:20561   */\n      dup4\n        /* \"#utility.yul\":20548:20565   */\n      add\n        /* \"#utility.yul\":20541:20588   */\n      mstore\n        /* \"#utility.yul\":20605:20736   */\n      tag_520\n        /* \"#utility.yul\":20731:20735   */\n      dup2\n        /* \"#utility.yul\":20605:20736   */\n      tag_422\n      jump\t// in\n    tag_520:\n        /* \"#utility.yul\":20597:20736   */\n      swap1\n      pop\n        /* \"#utility.yul\":20324:20743   */\n      swap2\n      swap1\n      pop\n      jump\t// out\n        /* \"#utility.yul\":20749:21168   */\n    tag_215:\n        /* \"#utility.yul\":20915:20919   */\n      0x00\n        /* \"#utility.yul\":20953:20955   */\n      0x20\n        /* \"#utility.yul\":20942:20951   */\n      dup3\n        /* \"#utility.yul\":20938:20956   */\n      add\n        /* \"#utility.yul\":20930:20956   */\n      swap1\n      pop\n        /* \"#utility.yul\":21002:21011   */\n      dup2\n        /* \"#utility.yul\":20996:21000   */\n      dup2\n        /* \"#utility.yul\":20992:21012   */\n      sub\n        /* \"#utility.yul\":20988:20989   */\n      0x00\n        /* \"#utility.yul\":20977:20986   */\n      dup4\n        /* \"#utility.yul\":20973:20990   */\n      add\n        /* \"#utility.yul\":20966:21013   */\n      mstore\n        /* \"#utility.yul\":21030:21161   */\n      tag_522\n        /* \"#utility.yul\":21156:21160   */\n      dup2\n        /* \"#utility.yul\":21030:21161   */\n      tag_427\n      jump\t// in\n    tag_522:\n        /* \"#utility.yul\":21022:21161   */\n      swap1\n      pop\n        /* \"#utility.yul\":20749:21168   */\n      swap2\n      swap1\n      pop\n      jump\t// out\n        /* \"#utility.yul\":21174:21593   */\n    tag_124:\n        /* \"#utility.yul\":21340:21344   */\n      0x00\n        /* \"#utility.yul\":21378:21380   */\n      0x20\n        /* \"#utility.yul\":21367:21376   */\n      dup3\n        /* \"#utility.yul\":21363:21381   */\n      add\n        /* \"#utility.yul\":21355:21381   */\n      swap1\n      pop\n        /* \"#utility.yul\":21427:21436   */\n      dup2\n        /* \"#utility.yul\":21421:21425   */\n      dup2\n        /* \"#utility.yul\":21417:21437   */\n      sub\n        /* \"#utility.yul\":21413:21414   */\n      0x00\n        /* \"#utility.yul\":21402:21411   */\n      dup4\n        /* \"#utility.yul\":21398:21415   */\n      add\n        /* \"#utility.yul\":21391:21438   */\n      mstore\n        /* \"#utility.yul\":21455:21586   */\n      tag_524\n        /* \"#utility.yul\":21581:21585   */\n      dup2\n        /* \"#utility.yul\":21455:21586   */\n      tag_432\n      jump\t// in\n    tag_524:\n        /* \"#utility.yul\":21447:21586   */\n      swap1\n      pop\n        /* \"#utility.yul\":21174:21593   */\n      swap2\n      swap1\n      pop\n      jump\t// out\n        /* \"#utility.yul\":21599:22018   */\n    tag_175:\n        /* \"#utility.yul\":21765:21769   */\n      0x00\n        /* \"#utility.yul\":21803:21805   */\n      0x20\n        /* \"#utility.yul\":21792:21801   */\n      dup3\n        /* \"#utility.yul\":21788:21806   */\n      add\n        /* \"#utility.yul\":21780:21806   */\n      swap1\n      pop\n        /* \"#utility.yul\":21852:21861   */\n      dup2\n        /* \"#utility.yul\":21846:21850   */\n      dup2\n        /* \"#utility.yul\":21842:21862   */\n      sub\n        /* \"#utility.yul\":21838:21839   */\n      0x00\n        /* \"#utility.yul\":21827:21836   */\n      dup4\n        /* \"#utility.yul\":21823:21840   */\n      add\n        /* \"#utility.yul\":21816:21863   */\n      mstore\n        /* \"#utility.yul\":21880:22011   */\n      tag_526\n        /* \"#utility.yul\":22006:22010   */\n      dup2\n        /* \"#utility.yul\":21880:22011   */\n      tag_437\n      jump\t// in\n    tag_526:\n        /* \"#utility.yul\":21872:22011   */\n      swap1\n      pop\n        /* \"#utility.yul\":21599:22018   */\n      swap2\n      swap1\n      pop\n      jump\t// out\n        /* \"#utility.yul\":22024:22443   */\n    tag_120:\n        /* \"#utility.yul\":22190:22194   */\n      0x00\n        /* \"#utility.yul\":22228:22230   */\n      0x20\n        /* \"#utility.yul\":22217:22226   */\n      dup3\n        /* \"#utility.yul\":22213:22231   */\n      add\n        /* \"#utility.yul\":22205:22231   */\n      swap1\n      pop\n        /* \"#utility.yul\":22277:22286   */\n      dup2\n        /* \"#utility.yul\":22271:22275   */\n      dup2\n        /* \"#utility.yul\":22267:22287   */\n      sub\n        /* \"#utility.yul\":22263:22264   */\n      0x00\n        /* \"#utility.yul\":22252:22261   */\n      dup4\n        /* \"#utility.yul\":22248:22265   */\n      add\n        /* \"#utility.yul\":22241:22288   */\n      mstore\n        /* \"#utility.yul\":22305:22436   */\n      tag_528\n        /* \"#utility.yul\":22431:22435   */\n      dup2\n        /* \"#utility.yul\":22305:22436   */\n      tag_442\n      jump\t// in\n    tag_528:\n        /* \"#utility.yul\":22297:22436   */\n      swap1\n      pop\n        /* \"#utility.yul\":22024:22443   */\n      swap2\n      swap1\n      pop\n      jump\t// out\n        /* \"#utility.yul\":22449:22868   */\n    tag_183:\n        /* \"#utility.yul\":22615:22619   */\n      0x00\n        /* \"#utility.yul\":22653:22655   */\n      0x20\n        /* \"#utility.yul\":22642:22651   */\n      dup3\n        /* \"#utility.yul\":22638:22656   */\n      add\n        /* \"#utility.yul\":22630:22656   */\n      swap1\n      pop\n        /* \"#utility.yul\":22702:22711   */\n      dup2\n        /* \"#utility.yul\":22696:22700   */\n      dup2\n        /* \"#utility.yul\":22692:22712   */\n      sub\n        /* \"#utility.yul\":22688:22689   */\n      0x00\n        /* \"#utility.yul\":22677:22686   */\n      dup4\n        /* \"#utility.yul\":22673:22690   */\n      add\n        /* \"#utility.yul\":22666:22713   */\n      mstore\n        /* \"#utility.yul\":22730:22861   */\n      tag_530\n        /* \"#utility.yul\":22856:22860   */\n      dup2\n        /* \"#utility.yul\":22730:22861   */\n      tag_447\n      jump\t// in\n    tag_530:\n        /* \"#utility.yul\":22722:22861   */\n      swap1\n      pop\n        /* \"#utility.yul\":22449:22868   */\n      swap2\n      swap1\n      pop\n      jump\t// out\n        /* \"#utility.yul\":22874:23293   */\n    tag_171:\n        /* \"#utility.yul\":23040:23044   */\n      0x00\n        /* \"#utility.yul\":23078:23080   */\n      0x20\n        /* \"#utility.yul\":23067:23076   */\n      dup3\n        /* \"#utility.yul\":23063:23081   */\n      add\n        /* \"#utility.yul\":23055:23081   */\n      swap1\n      pop\n        /* \"#utility.yul\":23127:23136   */\n      dup2\n        /* \"#utility.yul\":23121:23125   */\n      dup2\n        /* \"#utility.yul\":23117:23137   */\n      sub\n        /* \"#utility.yul\":23113:23114   */\n      0x00\n        /* \"#utility.yul\":23102:23111   */\n      dup4\n        /* \"#utility.yul\":23098:23115   */\n      add\n        /* \"#utility.yul\":23091:23138   */\n      mstore\n        /* \"#utility.yul\":23155:23286   */\n      tag_532\n        /* \"#utility.yul\":23281:23285   */\n      dup2\n        /* \"#utility.yul\":23155:23286   */\n      tag_452\n      jump\t// in\n    tag_532:\n        /* \"#utility.yul\":23147:23286   */\n      swap1\n      pop\n        /* \"#utility.yul\":22874:23293   */\n      swap2\n      swap1\n      pop\n      jump\t// out\n        /* \"#utility.yul\":23299:23718   */\n    tag_154:\n        /* \"#utility.yul\":23465:23469   */\n      0x00\n        /* \"#utility.yul\":23503:23505   */\n      0x20\n        /* \"#utility.yul\":23492:23501   */\n      dup3\n        /* \"#utility.yul\":23488:23506   */\n      add\n        /* \"#utility.yul\":23480:23506   */\n      swap1\n      pop\n        /* \"#utility.yul\":23552:23561   */\n      dup2\n        /* \"#utility.yul\":23546:23550   */\n      dup2\n        /* \"#utility.yul\":23542:23562   */\n      sub\n        /* \"#utility.yul\":23538:23539   */\n      0x00\n        /* \"#utility.yul\":23527:23536   */\n      dup4\n        /* \"#utility.yul\":23523:23540   */\n      add\n        /* \"#utility.yul\":23516:23563   */\n      mstore\n        /* \"#utility.yul\":23580:23711   */\n      tag_534\n        /* \"#utility.yul\":23706:23710   */\n      dup2\n        /* \"#utility.yul\":23580:23711   */\n      tag_457\n      jump\t// in\n    tag_534:\n        /* \"#utility.yul\":23572:23711   */\n      swap1\n      pop\n        /* \"#utility.yul\":23299:23718   */\n      swap2\n      swap1\n      pop\n      jump\t// out\n        /* \"#utility.yul\":23724:24143   */\n    tag_116:\n        /* \"#utility.yul\":23890:23894   */\n      0x00\n        /* \"#utility.yul\":23928:23930   */\n      0x20\n        /* \"#utility.yul\":23917:23926   */\n      dup3\n        /* \"#utility.yul\":23913:23931   */\n      add\n        /* \"#utility.yul\":23905:23931   */\n      swap1\n      pop\n        /* \"#utility.yul\":23977:23986   */\n      dup2\n        /* \"#utility.yul\":23971:23975   */\n      dup2\n        /* \"#utility.yul\":23967:23987   */\n      sub\n        /* \"#utility.yul\":23963:23964   */\n      0x00\n        /* \"#utility.yul\":23952:23961   */\n      dup4\n        /* \"#utility.yul\":23948:23965   */\n      add\n        /* \"#utility.yul\":23941:23988   */\n      mstore\n        /* \"#utility.yul\":24005:24136   */\n      tag_536\n        /* \"#utility.yul\":24131:24135   */\n      dup2\n        /* \"#utility.yul\":24005:24136   */\n      tag_462\n      jump\t// in\n    tag_536:\n        /* \"#utility.yul\":23997:24136   */\n      swap1\n      pop\n        /* \"#utility.yul\":23724:24143   */\n      swap2\n      swap1\n      pop\n      jump\t// out\n        /* \"#utility.yul\":24149:24568   */\n    tag_209:\n        /* \"#utility.yul\":24315:24319   */\n      0x00\n        /* \"#utility.yul\":24353:24355   */\n      0x20\n        /* \"#utility.yul\":24342:24351   */\n      dup3\n        /* \"#utility.yul\":24338:24356   */\n      add\n        /* \"#utility.yul\":24330:24356   */\n      swap1\n      pop\n        /* \"#utility.yul\":24402:24411   */\n      dup2\n        /* \"#utility.yul\":24396:24400   */\n      dup2\n        /* \"#utility.yul\":24392:24412   */\n      sub\n        /* \"#utility.yul\":24388:24389   */\n      0x00\n        /* \"#utility.yul\":24377:24386   */\n      dup4\n        /* \"#utility.yul\":24373:24390   */\n      add\n        /* \"#utility.yul\":24366:24413   */\n      mstore\n        /* \"#utility.yul\":24430:24561   */\n      tag_538\n        /* \"#utility.yul\":24556:24560   */\n      dup2\n        /* \"#utility.yul\":24430:24561   */\n      tag_467\n      jump\t// in\n    tag_538:\n        /* \"#utility.yul\":24422:24561   */\n      swap1\n      pop\n        /* \"#utility.yul\":24149:24568   */\n      swap2\n      swap1\n      pop\n      jump\t// out\n        /* \"#utility.yul\":24574:24703   */\n    tag_273:\n        /* \"#utility.yul\":24608:24614   */\n      0x00\n        /* \"#utility.yul\":24635:24655   */\n      tag_540\n      tag_541\n      jump\t// in\n    tag_540:\n        /* \"#utility.yul\":24625:24655   */\n      swap1\n      pop\n        /* \"#utility.yul\":24664:24697   */\n      tag_542\n        /* \"#utility.yul\":24692:24696   */\n      dup3\n        /* \"#utility.yul\":24684:24690   */\n      dup3\n        /* \"#utility.yul\":24664:24697   */\n      tag_543\n      jump\t// in\n    tag_542:\n        /* \"#utility.yul\":24574:24703   */\n      swap2\n      swap1\n      pop\n      jump\t// out\n        /* \"#utility.yul\":24709:24784   */\n    tag_541:\n        /* \"#utility.yul\":24742:24748   */\n      0x00\n        /* \"#utility.yul\":24775:24777   */\n      0x40\n        /* \"#utility.yul\":24769:24778   */\n      mload\n        /* \"#utility.yul\":24759:24778   */\n      swap1\n      pop\n        /* \"#utility.yul\":24709:24784   */\n      swap1\n      jump\t// out\n        /* \"#utility.yul\":24790:25098   */\n    tag_272:\n        /* \"#utility.yul\":24852:24856   */\n      0x00\n        /* \"#utility.yul\":24942:24960   */\n      0xffffffffffffffff\n        /* \"#utility.yul\":24934:24940   */\n      dup3\n        /* \"#utility.yul\":24931:24961   */\n      gt\n        /* \"#utility.yul\":24928:24984   */\n      iszero\n      tag_546\n      jumpi\n        /* \"#utility.yul\":24964:24982   */\n      tag_547\n      tag_548\n      jump\t// in\n    tag_547:\n        /* \"#utility.yul\":24928:24984   */\n    tag_546:\n        /* \"#utility.yul\":25002:25031   */\n      tag_549\n        /* \"#utility.yul\":25024:25030   */\n      dup3\n        /* \"#utility.yul\":25002:25031   */\n      tag_411\n      jump\t// in\n    tag_549:\n        /* \"#utility.yul\":24994:25031   */\n      swap1\n      pop\n        /* \"#utility.yul\":25086:25090   */\n      0x20\n        /* \"#utility.yul\":25080:25084   */\n      dup2\n        /* \"#utility.yul\":25076:25091   */\n      add\n        /* \"#utility.yul\":25068:25091   */\n      swap1\n      pop\n        /* \"#utility.yul\":24790:25098   */\n      swap2\n      swap1\n      pop\n      jump\t// out\n        /* \"#utility.yul\":25104:25256   */\n    tag_379:\n        /* \"#utility.yul\":25191:25195   */\n      0x00\n        /* \"#utility.yul\":25214:25217   */\n      dup2\n        /* \"#utility.yul\":25206:25217   */\n      swap1\n      pop\n        /* \"#utility.yul\":25244:25248   */\n      0x20\n        /* \"#utility.yul\":25239:25242   */\n      dup3\n        /* \"#utility.yul\":25235:25249   */\n      add\n        /* \"#utility.yul\":25227:25249   */\n      swap1\n      pop\n        /* \"#utility.yul\":25104:25256   */\n      swap2\n      swap1\n      pop\n      jump\t// out\n        /* \"#utility.yul\":25262:25396   */\n    tag_375:\n        /* \"#utility.yul\":25349:25355   */\n      0x00\n        /* \"#utility.yul\":25383:25388   */\n      dup2\n        /* \"#utility.yul\":25377:25389   */\n      mload\n        /* \"#utility.yul\":25367:25389   */\n      swap1\n      pop\n        /* \"#utility.yul\":25262:25396   */\n      swap2\n      swap1\n      pop\n      jump\t// out\n        /* \"#utility.yul\":25402:25501   */\n    tag_405:\n        /* \"#utility.yul\":25454:25460   */\n      0x00\n        /* \"#utility.yul\":25488:25493   */\n      dup2\n        /* \"#utility.yul\":25482:25494   */\n      mload\n        /* \"#utility.yul\":25472:25494   */\n      swap1\n      pop\n        /* \"#utility.yul\":25402:25501   */\n      swap2\n      swap1\n      pop\n      jump\t// out\n        /* \"#utility.yul\":25507:25640   */\n    tag_385:\n        /* \"#utility.yul\":25597:25601   */\n      0x00\n        /* \"#utility.yul\":25629:25633   */\n      0x20\n        /* \"#utility.yul\":25624:25627   */\n      dup3\n        /* \"#utility.yul\":25620:25634   */\n      add\n        /* \"#utility.yul\":25612:25634   */\n      swap1\n      pop\n        /* \"#utility.yul\":25507:25640   */\n      swap2\n      swap1\n      pop\n      jump\t// out\n        /* \"#utility.yul\":25646:25850   */\n    tag_377:\n        /* \"#utility.yul\":25765:25776   */\n      0x00\n        /* \"#utility.yul\":25799:25805   */\n      dup3\n        /* \"#utility.yul\":25794:25797   */\n      dup3\n        /* \"#utility.yul\":25787:25806   */\n      mstore\n        /* \"#utility.yul\":25839:25843   */\n      0x20\n        /* \"#utility.yul\":25834:25837   */\n      dup3\n        /* \"#utility.yul\":25830:25844   */\n      add\n        /* \"#utility.yul\":25815:25844   */\n      swap1\n      pop\n        /* \"#utility.yul\":25646:25850   */\n      swap3\n      swap2\n      pop\n      pop\n      jump\t// out\n        /* \"#utility.yul\":25856:26025   */\n    tag_407:\n        /* \"#utility.yul\":25940:25951   */\n      0x00\n        /* \"#utility.yul\":25974:25980   */\n      dup3\n        /* \"#utility.yul\":25969:25972   */\n      dup3\n        /* \"#utility.yul\":25962:25981   */\n      mstore\n        /* \"#utility.yul\":26014:26018   */\n      0x20\n        /* \"#utility.yul\":26009:26012   */\n      dup3\n        /* \"#utility.yul\":26005:26019   */\n      add\n        /* \"#utility.yul\":25990:26019   */\n      swap1\n      pop\n        /* \"#utility.yul\":25856:26025   */\n      swap3\n      swap2\n      pop\n      pop\n      jump\t// out\n        /* \"#utility.yul\":26031:26179   */\n    tag_400:\n        /* \"#utility.yul\":26133:26144   */\n      0x00\n        /* \"#utility.yul\":26170:26173   */\n      dup2\n        /* \"#utility.yul\":26155:26173   */\n      swap1\n      pop\n        /* \"#utility.yul\":26031:26179   */\n      swap3\n      swap2\n      pop\n      pop\n      jump\t// out\n        /* \"#utility.yul\":26185:26490   */\n    tag_105:\n        /* \"#utility.yul\":26225:26228   */\n      0x00\n        /* \"#utility.yul\":26244:26264   */\n      tag_558\n        /* \"#utility.yul\":26262:26263   */\n      dup3\n        /* \"#utility.yul\":26244:26264   */\n      tag_479\n      jump\t// in\n    tag_558:\n        /* \"#utility.yul\":26239:26264   */\n      swap2\n      pop\n        /* \"#utility.yul\":26278:26298   */\n      tag_559\n        /* \"#utility.yul\":26296:26297   */\n      dup4\n        /* \"#utility.yul\":26278:26298   */\n      tag_479\n      jump\t// in\n    tag_559:\n        /* \"#utility.yul\":26273:26298   */\n      swap3\n      pop\n        /* \"#utility.yul\":26432:26433   */\n      dup3\n        /* \"#utility.yul\":26364:26430   */\n      0xffffffffffffffffffffffffffffffffffffffffffffffffffffffffffffffff\n        /* \"#utility.yul\":26360:26434   */\n      sub\n        /* \"#utility.yul\":26357:26358   */\n      dup3\n        /* \"#utility.yul\":26354:26435   */\n      gt\n        /* \"#utility.yul\":26351:26458   */\n      iszero\n      tag_560\n      jumpi\n        /* \"#utility.yul\":26438:26456   */\n      tag_561\n      tag_562\n      jump\t// in\n    tag_561:\n        /* \"#utility.yul\":26351:26458   */\n    tag_560:\n        /* \"#utility.yul\":26482:26483   */\n      dup3\n        /* \"#utility.yul\":26479:26480   */\n      dup3\n        /* \"#utility.yul\":26475:26484   */\n      add\n        /* \"#utility.yul\":26468:26484   */\n      swap1\n      pop\n        /* \"#utility.yul\":26185:26490   */\n      swap3\n      swap2\n      pop\n      pop\n      jump\t// out\n        /* \"#utility.yul\":26496:26681   */\n    tag_219:\n        /* \"#utility.yul\":26536:26537   */\n      0x00\n        /* \"#utility.yul\":26553:26573   */\n      tag_564\n        /* \"#utility.yul\":26571:26572   */\n      dup3\n        /* \"#utility.yul\":26553:26573   */\n      tag_479\n      jump\t// in\n    tag_564:\n        /* \"#utility.yul\":26548:26573   */\n      swap2\n      pop\n        /* \"#utility.yul\":26587:26607   */\n      tag_565\n        /* \"#utility.yul\":26605:26606   */\n      dup4\n        /* \"#utility.yul\":26587:26607   */\n      tag_479\n      jump\t// in\n    tag_565:\n        /* \"#utility.yul\":26582:26607   */\n      swap3\n      pop\n        /* \"#utility.yul\":26626:26627   */\n      dup3\n        /* \"#utility.yul\":26616:26651   */\n      tag_566\n      jumpi\n        /* \"#utility.yul\":26631:26649   */\n      tag_567\n      tag_568\n      jump\t// in\n    tag_567:\n        /* \"#utility.yul\":26616:26651   */\n    tag_566:\n        /* \"#utility.yul\":26673:26674   */\n      dup3\n        /* \"#utility.yul\":26670:26671   */\n      dup3\n        /* \"#utility.yul\":26666:26675   */\n      div\n        /* \"#utility.yul\":26661:26675   */\n      swap1\n      pop\n        /* \"#utility.yul\":26496:26681   */\n      swap3\n      swap2\n      pop\n      pop\n      jump\t// out\n        /* \"#utility.yul\":26687:27035   */\n    tag_221:\n        /* \"#utility.yul\":26727:26734   */\n      0x00\n        /* \"#utility.yul\":26750:26770   */\n      tag_570\n        /* \"#utility.yul\":26768:26769   */\n      dup3\n        /* \"#utility.yul\":26750:26770   */\n      tag_479\n      jump\t// in\n    tag_570:\n        /* \"#utility.yul\":26745:26770   */\n      swap2\n      pop\n        /* \"#utility.yul\":26784:26804   */\n      tag_571\n        /* \"#utility.yul\":26802:26803   */\n      dup4\n        /* \"#utility.yul\":26784:26804   */\n      tag_479\n      jump\t// in\n    tag_571:\n        /* \"#utility.yul\":26779:26804   */\n      swap3\n      pop\n        /* \"#utility.yul\":26972:26973   */\n      dup2\n        /* \"#utility.yul\":26904:26970   */\n      0xffffffffffffffffffffffffffffffffffffffffffffffffffffffffffffffff\n        /* \"#utility.yul\":26900:26974   */\n      div\n        /* \"#utility.yul\":26897:26898   */\n      dup4\n        /* \"#utility.yul\":26894:26975   */\n      gt\n        /* \"#utility.yul\":26889:26890   */\n      dup3\n        /* \"#utility.yul\":26882:26891   */\n      iszero\n        /* \"#utility.yul\":26875:26892   */\n      iszero\n        /* \"#utility.yul\":26871:26976   */\n      and\n        /* \"#utility.yul\":26868:26999   */\n      iszero\n      tag_572\n      jumpi\n        /* \"#utility.yul\":26979:26997   */\n      tag_573\n      tag_562\n      jump\t// in\n    tag_573:\n        /* \"#utility.yul\":26868:26999   */\n    tag_572:\n        /* \"#utility.yul\":27027:27028   */\n      dup3\n        /* \"#utility.yul\":27024:27025   */\n      dup3\n        /* \"#utility.yul\":27020:27029   */\n      mul\n        /* \"#utility.yul\":27009:27029   */\n      swap1\n      pop\n        /* \"#utility.yul\":26687:27035   */\n      swap3\n      swap2\n      pop\n      pop\n      jump\t// out\n        /* \"#utility.yul\":27041:27137   */\n    tag_368:\n        /* \"#utility.yul\":27078:27085   */\n      0x00\n        /* \"#utility.yul\":27107:27131   */\n      tag_575\n        /* \"#utility.yul\":27125:27130   */\n      dup3\n        /* \"#utility.yul\":27107:27131   */\n      tag_576\n      jump\t// in\n    tag_575:\n        /* \"#utility.yul\":27096:27131   */\n      swap1\n      pop\n        /* \"#utility.yul\":27041:27137   */\n      swap2\n      swap1\n      pop\n      jump\t// out\n        /* \"#utility.yul\":27143:27233   */\n    tag_389:\n        /* \"#utility.yul\":27177:27184   */\n      0x00\n        /* \"#utility.yul\":27220:27225   */\n      dup2\n        /* \"#utility.yul\":27213:27226   */\n      iszero\n        /* \"#utility.yul\":27206:27227   */\n      iszero\n        /* \"#utility.yul\":27195:27227   */\n      swap1\n      pop\n        /* \"#utility.yul\":27143:27233   */\n      swap2\n      swap1\n      pop\n      jump\t// out\n        /* \"#utility.yul\":27239:27316   */\n    tag_396:\n        /* \"#utility.yul\":27276:27283   */\n      0x00\n        /* \"#utility.yul\":27305:27310   */\n      dup2\n        /* \"#utility.yul\":27294:27310   */\n      swap1\n      pop\n        /* \"#utility.yul\":27239:27316   */\n      swap2\n      swap1\n      pop\n      jump\t// out\n        /* \"#utility.yul\":27322:27448   */\n    tag_576:\n        /* \"#utility.yul\":27359:27366   */\n      0x00\n        /* \"#utility.yul\":27399:27441   */\n      0xffffffffffffffffffffffffffffffffffffffff\n        /* \"#utility.yul\":27392:27397   */\n      dup3\n        /* \"#utility.yul\":27388:27442   */\n      and\n        /* \"#utility.yul\":27377:27442   */\n      swap1\n      pop\n        /* \"#utility.yul\":27322:27448   */\n      swap2\n      swap1\n      pop\n      jump\t// out\n        /* \"#utility.yul\":27454:27531   */\n    tag_479:\n        /* \"#utility.yul\":27491:27498   */\n      0x00\n        /* \"#utility.yul\":27520:27525   */\n      dup2\n        /* \"#utility.yul\":27509:27525   */\n      swap1\n      pop\n        /* \"#utility.yul\":27454:27531   */\n      swap2\n      swap1\n      pop\n      jump\t// out\n        /* \"#utility.yul\":27537:27623   */\n    tag_581:\n        /* \"#utility.yul\":27572:27579   */\n      0x00\n        /* \"#utility.yul\":27612:27616   */\n      0xff\n        /* \"#utility.yul\":27605:27610   */\n      dup3\n        /* \"#utility.yul\":27601:27617   */\n      and\n        /* \"#utility.yul\":27590:27617   */\n      swap1\n      pop\n        /* \"#utility.yul\":27537:27623   */\n      swap2\n      swap1\n      pop\n      jump\t// out\n        /* \"#utility.yul\":27629:27783   */\n    tag_278:\n        /* \"#utility.yul\":27713:27719   */\n      dup3\n        /* \"#utility.yul\":27708:27711   */\n      dup2\n        /* \"#utility.yul\":27703:27706   */\n      dup4\n        /* \"#utility.yul\":27690:27720   */\n      calldatacopy\n        /* \"#utility.yul\":27775:27776   */\n      0x00\n        /* \"#utility.yul\":27766:27772   */\n      dup4\n        /* \"#utility.yul\":27761:27764   */\n      dup4\n        /* \"#utility.yul\":27757:27773   */\n      add\n        /* \"#utility.yul\":27750:27777   */\n      mstore\n        /* \"#utility.yul\":27629:27783   */\n      pop\n      pop\n      pop\n      jump\t// out\n        /* \"#utility.yul\":27789:28096   */\n    tag_409:\n        /* \"#utility.yul\":27857:27858   */\n      0x00\n        /* \"#utility.yul\":27867:27980   */\n    tag_585:\n        /* \"#utility.yul\":27881:27887   */\n      dup4\n        /* \"#utility.yul\":27878:27879   */\n      dup2\n        /* \"#utility.yul\":27875:27888   */\n      lt\n        /* \"#utility.yul\":27867:27980   */\n      iszero\n      tag_587\n      jumpi\n        /* \"#utility.yul\":27966:27967   */\n      dup1\n        /* \"#utility.yul\":27961:27964   */\n      dup3\n        /* \"#utility.yul\":27957:27968   */\n      add\n        /* \"#utility.yul\":27951:27969   */\n      mload\n        /* \"#utility.yul\":27947:27948   */\n      dup2\n        /* \"#utility.yul\":27942:27945   */\n      dup5\n        /* \"#utility.yul\":27938:27949   */\n      add\n        /* \"#utility.yul\":27931:27970   */\n      mstore\n        /* \"#utility.yul\":27903:27905   */\n      0x20\n        /* \"#utility.yul\":27900:27901   */\n      dup2\n        /* \"#utility.yul\":27896:27906   */\n      add\n        /* \"#utility.yul\":27891:27906   */\n      swap1\n      pop\n        /* \"#utility.yul\":27867:27980   */\n      jump(tag_585)\n    tag_587:\n        /* \"#utility.yul\":27998:28004   */\n      dup4\n        /* \"#utility.yul\":27995:27996   */\n      dup2\n        /* \"#utility.yul\":27992:28005   */\n      gt\n        /* \"#utility.yul\":27989:28090   */\n      iszero\n      tag_588\n      jumpi\n        /* \"#utility.yul\":28078:28079   */\n      0x00\n        /* \"#utility.yul\":28069:28075   */\n      dup5\n        /* \"#utility.yul\":28064:28067   */\n      dup5\n        /* \"#utility.yul\":28060:28076   */\n      add\n        /* \"#utility.yul\":28053:28080   */\n      mstore\n        /* \"#utility.yul\":27989:28090   */\n    tag_588:\n        /* \"#utility.yul\":27838:28096   */\n      pop\n        /* \"#utility.yul\":27789:28096   */\n      pop\n      pop\n      pop\n      jump\t// out\n        /* \"#utility.yul\":28102:28422   */\n    tag_83:\n        /* \"#utility.yul\":28146:28152   */\n      0x00\n        /* \"#utility.yul\":28183:28184   */\n      0x02\n        /* \"#utility.yul\":28177:28181   */\n      dup3\n        /* \"#utility.yul\":28173:28185   */\n      div\n        /* \"#utility.yul\":28163:28185   */\n      swap1\n      pop\n        /* \"#utility.yul\":28230:28231   */\n      0x01\n        /* \"#utility.yul\":28224:28228   */\n      dup3\n        /* \"#utility.yul\":28220:28232   */\n      and\n        /* \"#utility.yul\":28251:28269   */\n      dup1\n        /* \"#utility.yul\":28241:28322   */\n      tag_590\n      jumpi\n        /* \"#utility.yul\":28307:28311   */\n      0x7f\n        /* \"#utility.yul\":28299:28305   */\n      dup3\n        /* \"#utility.yul\":28295:28312   */\n      and\n        /* \"#utility.yul\":28285:28312   */\n      swap2\n      pop\n        /* \"#utility.yul\":28241:28322   */\n    tag_590:\n        /* \"#utility.yul\":28369:28371   */\n      0x20\n        /* \"#utility.yul\":28361:28367   */\n      dup3\n        /* \"#utility.yul\":28358:28372   */\n      lt\n        /* \"#utility.yul\":28338:28356   */\n      dup2\n        /* \"#utility.yul\":28335:28373   */\n      eq\n        /* \"#utility.yul\":28332:28416   */\n      iszero\n      tag_591\n      jumpi\n        /* \"#utility.yul\":28388:28406   */\n      tag_592\n      tag_593\n      jump\t// in\n    tag_592:\n        /* \"#utility.yul\":28332:28416   */\n    tag_591:\n        /* \"#utility.yul\":28153:28422   */\n      pop\n        /* \"#utility.yul\":28102:28422   */\n      swap2\n      swap1\n      pop\n      jump\t// out\n        /* \"#utility.yul\":28428:28709   */\n    tag_543:\n        /* \"#utility.yul\":28511:28538   */\n      tag_595\n        /* \"#utility.yul\":28533:28537   */\n      dup3\n        /* \"#utility.yul\":28511:28538   */\n      tag_411\n      jump\t// in\n    tag_595:\n        /* \"#utility.yul\":28503:28509   */\n      dup2\n        /* \"#utility.yul\":28499:28539   */\n      add\n        /* \"#utility.yul\":28641:28647   */\n      dup2\n        /* \"#utility.yul\":28629:28639   */\n      dup2\n        /* \"#utility.yul\":28626:28648   */\n      lt\n        /* \"#utility.yul\":28605:28623   */\n      0xffffffffffffffff\n        /* \"#utility.yul\":28593:28603   */\n      dup3\n        /* \"#utility.yul\":28590:28624   */\n      gt\n        /* \"#utility.yul\":28587:28649   */\n      or\n        /* \"#utility.yul\":28584:28672   */\n      iszero\n      tag_596\n      jumpi\n        /* \"#utility.yul\":28652:28670   */\n      tag_597\n      tag_548\n      jump\t// in\n    tag_597:\n        /* \"#utility.yul\":28584:28672   */\n    tag_596:\n        /* \"#utility.yul\":28692:28702   */\n      dup1\n        /* \"#utility.yul\":28688:28690   */\n      0x40\n        /* \"#utility.yul\":28681:28703   */\n      mstore\n        /* \"#utility.yul\":28471:28709   */\n      pop\n        /* \"#utility.yul\":28428:28709   */\n      pop\n      pop\n      jump\t// out\n        /* \"#utility.yul\":28715:28882   */\n    tag_244:\n        /* \"#utility.yul\":28752:28755   */\n      0x00\n        /* \"#utility.yul\":28775:28797   */\n      tag_599\n        /* \"#utility.yul\":28791:28796   */\n      dup3\n        /* \"#utility.yul\":28775:28797   */\n      tag_581\n      jump\t// in\n    tag_599:\n        /* \"#utility.yul\":28766:28797   */\n      swap2\n      pop\n        /* \"#utility.yul\":28819:28823   */\n      0xff\n        /* \"#utility.yul\":28812:28817   */\n      dup3\n        /* \"#utility.yul\":28809:28824   */\n      eq\n        /* \"#utility.yul\":28806:28847   */\n      iszero\n      tag_600\n      jumpi\n        /* \"#utility.yul\":28827:28845   */\n      tag_601\n      tag_562\n      jump\t// in\n    tag_601:\n        /* \"#utility.yul\":28806:28847   */\n    tag_600:\n        /* \"#utility.yul\":28874:28875   */\n      0x01\n        /* \"#utility.yul\":28867:28872   */\n      dup3\n        /* \"#utility.yul\":28863:28876   */\n      add\n        /* \"#utility.yul\":28856:28876   */\n      swap1\n      pop\n        /* \"#utility.yul\":28715:28882   */\n      swap2\n      swap1\n      pop\n      jump\t// out\n        /* \"#utility.yul\":28888:29068   */\n    tag_562:\n        /* \"#utility.yul\":28936:29013   */\n      0x4e487b7100000000000000000000000000000000000000000000000000000000\n        /* \"#utility.yul\":28933:28934   */\n      0x00\n        /* \"#utility.yul\":28926:29014   */\n      mstore\n        /* \"#utility.yul\":29033:29037   */\n      0x11\n        /* \"#utility.yul\":29030:29031   */\n      0x04\n        /* \"#utility.yul\":29023:29038   */\n      mstore\n        /* \"#utility.yul\":29057:29061   */\n      0x24\n        /* \"#utility.yul\":29054:29055   */\n      0x00\n        /* \"#utility.yul\":29047:29062   */\n      revert\n        /* \"#utility.yul\":29074:29254   */\n    tag_568:\n        /* \"#utility.yul\":29122:29199   */\n      0x4e487b7100000000000000000000000000000000000000000000000000000000\n        /* \"#utility.yul\":29119:29120   */\n      0x00\n        /* \"#utility.yul\":29112:29200   */\n      mstore\n        /* \"#utility.yul\":29219:29223   */\n      0x12\n        /* \"#utility.yul\":29216:29217   */\n      0x04\n        /* \"#utility.yul\":29209:29224   */\n      mstore\n        /* \"#utility.yul\":29243:29247   */\n      0x24\n        /* \"#utility.yul\":29240:29241   */\n      0x00\n        /* \"#utility.yul\":29233:29248   */\n      revert\n        /* \"#utility.yul\":29260:29440   */\n    tag_593:\n        /* \"#utility.yul\":29308:29385   */\n      0x4e487b7100000000000000000000000000000000000000000000000000000000\n        /* \"#utility.yul\":29305:29306   */\n      0x00\n        /* \"#utility.yul\":29298:29386   */\n      mstore\n        /* \"#utility.yul\":29405:29409   */\n      0x22\n        /* \"#utility.yul\":29402:29403   */\n      0x04\n        /* \"#utility.yul\":29395:29410   */\n      mstore\n        /* \"#utility.yul\":29429:29433   */\n      0x24\n        /* \"#utility.yul\":29426:29427   */\n      0x00\n        /* \"#utility.yul\":29419:29434   */\n      revert\n        /* \"#utility.yul\":29446:29626   */\n    tag_233:\n        /* \"#utility.yul\":29494:29571   */\n      0x4e487b7100000000000000000000000000000000000000000000000000000000\n        /* \"#utility.yul\":29491:29492   */\n      0x00\n        /* \"#utility.yul\":29484:29572   */\n      mstore\n        /* \"#utility.yul\":29591:29595   */\n      0x32\n        /* \"#utility.yul\":29588:29589   */\n      0x04\n        /* \"#utility.yul\":29581:29596   */\n      mstore\n        /* \"#utility.yul\":29615:29619   */\n      0x24\n        /* \"#utility.yul\":29612:29613   */\n      0x00\n        /* \"#utility.yul\":29605:29620   */\n      revert\n        /* \"#utility.yul\":29632:29812   */\n    tag_548:\n        /* \"#utility.yul\":29680:29757   */\n      0x4e487b7100000000000000000000000000000000000000000000000000000000\n        /* \"#utility.yul\":29677:29678   */\n      0x00\n        /* \"#utility.yul\":29670:29758   */\n      mstore\n        /* \"#utility.yul\":29777:29781   */\n      0x41\n        /* \"#utility.yul\":29774:29775   */\n      0x04\n        /* \"#utility.yul\":29767:29782   */\n      mstore\n        /* \"#utility.yul\":29801:29805   */\n      0x24\n        /* \"#utility.yul\":29798:29799   */\n      0x00\n        /* \"#utility.yul\":29791:29806   */\n      revert\n        /* \"#utility.yul\":29818:29935   */\n    tag_290:\n        /* \"#utility.yul\":29927:29928   */\n      0x00\n        /* \"#utility.yul\":29924:29925   */\n      dup1\n        /* \"#utility.yul\":29917:29929   */\n      revert\n        /* \"#utility.yul\":29941:30058   */\n    tag_287:\n        /* \"#utility.yul\":30050:30051   */\n      0x00\n        /* \"#utility.yul\":30047:30048   */\n      dup1\n        /* \"#utility.yul\":30040:30052   */\n      revert\n        /* \"#utility.yul\":30064:30181   */\n    tag_293:\n        /* \"#utility.yul\":30173:30174   */\n      0x00\n        /* \"#utility.yul\":30170:30171   */\n      dup1\n        /* \"#utility.yul\":30163:30175   */\n      revert\n        /* \"#utility.yul\":30187:30304   */\n    tag_276:\n        /* \"#utility.yul\":30296:30297   */\n      0x00\n        /* \"#utility.yul\":30293:30294   */\n      dup1\n        /* \"#utility.yul\":30286:30298   */\n      revert\n        /* \"#utility.yul\":30310:30427   */\n    tag_310:\n        /* \"#utility.yul\":30419:30420   */\n      0x00\n        /* \"#utility.yul\":30416:30417   */\n      dup1\n        /* \"#utility.yul\":30409:30421   */\n      revert\n        /* \"#utility.yul\":30433:30550   */\n    tag_306:\n        /* \"#utility.yul\":30542:30543   */\n      0x00\n        /* \"#utility.yul\":30539:30540   */\n      dup1\n        /* \"#utility.yul\":30532:30544   */\n      revert\n        /* \"#utility.yul\":30556:30658   */\n    tag_411:\n        /* \"#utility.yul\":30597:30603   */\n      0x00\n        /* \"#utility.yul\":30648:30650   */\n      0x1f\n        /* \"#utility.yul\":30644:30651   */\n      not\n        /* \"#utility.yul\":30639:30641   */\n      0x1f\n        /* \"#utility.yul\":30632:30637   */\n      dup4\n        /* \"#utility.yul\":30628:30642   */\n      add\n        /* \"#utility.yul\":30624:30652   */\n      and\n        /* \"#utility.yul\":30614:30652   */\n      swap1\n      pop\n        /* \"#utility.yul\":30556:30658   */\n      swap2\n      swap1\n      pop\n      jump\t// out\n        /* \"#utility.yul\":30664:30845   */\n    tag_421:\n        /* \"#utility.yul\":30804:30837   */\n      0x526563697069656e7420697320616c7265616479207265676973746572656400\n        /* \"#utility.yul\":30800:30801   */\n      0x00\n        /* \"#utility.yul\":30792:30798   */\n      dup3\n        /* \"#utility.yul\":30788:30802   */\n      add\n        /* \"#utility.yul\":30781:30838   */\n      mstore\n        /* \"#utility.yul\":30664:30845   */\n      pop\n      jump\t// out\n        /* \"#utility.yul\":30851:31026   */\n    tag_426:\n        /* \"#utility.yul\":30991:31018   */\n      0x50726f706f73616c20616c726561647920637265617465642100000000000000\n        /* \"#utility.yul\":30987:30988   */\n      0x00\n        /* \"#utility.yul\":30979:30985   */\n      dup3\n        /* \"#utility.yul\":30975:30989   */\n      add\n        /* \"#utility.yul\":30968:31019   */\n      mstore\n        /* \"#utility.yul\":30851:31026   */\n      pop\n      jump\t// out\n        /* \"#utility.yul\":31032:31257   */\n    tag_431:\n        /* \"#utility.yul\":31172:31206   */\n      0x596f75206172656e277420617574686f72697a6520746f20636f6d70696c6520\n        /* \"#utility.yul\":31168:31169   */\n      0x00\n        /* \"#utility.yul\":31160:31166   */\n      dup3\n        /* \"#utility.yul\":31156:31170   */\n      add\n        /* \"#utility.yul\":31149:31207   */\n      mstore\n        /* \"#utility.yul\":31241:31249   */\n      0x42756e646c650000000000000000000000000000000000000000000000000000\n        /* \"#utility.yul\":31236:31238   */\n      0x20\n        /* \"#utility.yul\":31228:31234   */\n      dup3\n        /* \"#utility.yul\":31224:31239   */\n      add\n        /* \"#utility.yul\":31217:31250   */\n      mstore\n        /* \"#utility.yul\":31032:31257   */\n      pop\n      jump\t// out\n        /* \"#utility.yul\":31263:31441   */\n    tag_436:\n        /* \"#utility.yul\":31403:31433   */\n      0x596f7520616c72656164792073656e74206120726573706f6e73652e00000000\n        /* \"#utility.yul\":31399:31400   */\n      0x00\n        /* \"#utility.yul\":31391:31397   */\n      dup3\n        /* \"#utility.yul\":31387:31401   */\n      add\n        /* \"#utility.yul\":31380:31434   */\n      mstore\n        /* \"#utility.yul\":31263:31441   */\n      pop\n      jump\t// out\n        /* \"#utility.yul\":31447:31618   */\n    tag_441:\n        /* \"#utility.yul\":31587:31610   */\n      0x496e69746961746f722063616e277420766f7465210000000000000000000000\n        /* \"#utility.yul\":31583:31584   */\n      0x00\n        /* \"#utility.yul\":31575:31581   */\n      dup3\n        /* \"#utility.yul\":31571:31585   */\n      add\n        /* \"#utility.yul\":31564:31611   */\n      mstore\n        /* \"#utility.yul\":31447:31618   */\n      pop\n      jump\t// out\n        /* \"#utility.yul\":31624:31804   */\n    tag_446:\n        /* \"#utility.yul\":31764:31796   */\n      0x596f7520617265206e6f74207265676973746572656420746f20766f74650000\n        /* \"#utility.yul\":31760:31761   */\n      0x00\n        /* \"#utility.yul\":31752:31758   */\n      dup3\n        /* \"#utility.yul\":31748:31762   */\n      add\n        /* \"#utility.yul\":31741:31797   */\n      mstore\n        /* \"#utility.yul\":31624:31804   */\n      pop\n      jump\t// out\n        /* \"#utility.yul\":31810:32033   */\n    tag_451:\n        /* \"#utility.yul\":31950:31984   */\n      0x50726f706f73616c206861732072656163686564206974732065787069727920\n        /* \"#utility.yul\":31946:31947   */\n      0x00\n        /* \"#utility.yul\":31938:31944   */\n      dup3\n        /* \"#utility.yul\":31934:31948   */\n      add\n        /* \"#utility.yul\":31927:31985   */\n      mstore\n        /* \"#utility.yul\":32019:32025   */\n      0x6461746500000000000000000000000000000000000000000000000000000000\n        /* \"#utility.yul\":32014:32016   */\n      0x20\n        /* \"#utility.yul\":32006:32012   */\n      dup3\n        /* \"#utility.yul\":32002:32017   */\n      add\n        /* \"#utility.yul\":31995:32026   */\n      mstore\n        /* \"#utility.yul\":31810:32033   */\n      pop\n      jump\t// out\n        /* \"#utility.yul\":32039:32266   */\n    tag_456:\n        /* \"#utility.yul\":32179:32213   */\n      0x4f6e6c7920696e69746961746f722063616e2072656769737465722061207265\n        /* \"#utility.yul\":32175:32176   */\n      0x00\n        /* \"#utility.yul\":32167:32173   */\n      dup3\n        /* \"#utility.yul\":32163:32177   */\n      add\n        /* \"#utility.yul\":32156:32214   */\n      mstore\n        /* \"#utility.yul\":32248:32258   */\n      0x63697069656e742e000000000000000000000000000000000000000000000000\n        /* \"#utility.yul\":32243:32245   */\n      0x20\n        /* \"#utility.yul\":32235:32241   */\n      dup3\n        /* \"#utility.yul\":32231:32246   */\n      add\n        /* \"#utility.yul\":32224:32259   */\n      mstore\n        /* \"#utility.yul\":32039:32266   */\n      pop\n      jump\t// out\n        /* \"#utility.yul\":32272:32454   */\n    tag_461:\n        /* \"#utility.yul\":32412:32446   */\n      0x5665726469637420686173206e6f74206265656e207265616368656420796574\n        /* \"#utility.yul\":32408:32409   */\n      0x00\n        /* \"#utility.yul\":32400:32406   */\n      dup3\n        /* \"#utility.yul\":32396:32410   */\n      add\n        /* \"#utility.yul\":32389:32447   */\n      mstore\n        /* \"#utility.yul\":32272:32454   */\n      pop\n      jump\t// out\n        /* \"#utility.yul\":32460:32628   */\n    tag_466:\n        /* \"#utility.yul\":32600:32620   */\n      0x566f74696e672068617320657870697265640000000000000000000000000000\n        /* \"#utility.yul\":32596:32597   */\n      0x00\n        /* \"#utility.yul\":32588:32594   */\n      dup3\n        /* \"#utility.yul\":32584:32598   */\n      add\n        /* \"#utility.yul\":32577:32621   */\n      mstore\n        /* \"#utility.yul\":32460:32628   */\n      pop\n      jump\t// out\n        /* \"#utility.yul\":32634:32858   */\n    tag_471:\n        /* \"#utility.yul\":32774:32808   */\n      0x436f6e73656e7375732068617320616c7265616479206265656e2063616c6375\n        /* \"#utility.yul\":32770:32771   */\n      0x00\n        /* \"#utility.yul\":32762:32768   */\n      dup3\n        /* \"#utility.yul\":32758:32772   */\n      add\n        /* \"#utility.yul\":32751:32809   */\n      mstore\n        /* \"#utility.yul\":32843:32850   */\n      0x6c61746564000000000000000000000000000000000000000000000000000000\n        /* \"#utility.yul\":32838:32840   */\n      0x20\n        /* \"#utility.yul\":32830:32836   */\n      dup3\n        /* \"#utility.yul\":32826:32841   */\n      add\n        /* \"#utility.yul\":32819:32851   */\n      mstore\n        /* \"#utility.yul\":32634:32858   */\n      pop\n      jump\t// out\n        /* \"#utility.yul\":32864:32986   */\n    tag_282:\n        /* \"#utility.yul\":32937:32961   */\n      tag_626\n        /* \"#utility.yul\":32955:32960   */\n      dup2\n        /* \"#utility.yul\":32937:32961   */\n      tag_368\n      jump\t// in\n    tag_626:\n        /* \"#utility.yul\":32930:32935   */\n      dup2\n        /* \"#utility.yul\":32927:32962   */\n      eq\n        /* \"#utility.yul\":32917:32980   */\n      tag_627\n      jumpi\n        /* \"#utility.yul\":32976:32977   */\n      0x00\n        /* \"#utility.yul\":32973:32974   */\n      dup1\n        /* \"#utility.yul\":32966:32978   */\n      revert\n        /* \"#utility.yul\":32917:32980   */\n    tag_627:\n        /* \"#utility.yul\":32864:32986   */\n      pop\n      jump\t// out\n        /* \"#utility.yul\":32992:33114   */\n    tag_302:\n        /* \"#utility.yul\":33065:33089   */\n      tag_629\n        /* \"#utility.yul\":33083:33088   */\n      dup2\n        /* \"#utility.yul\":33065:33089   */\n      tag_479\n      jump\t// in\n    tag_629:\n        /* \"#utility.yul\":33058:33063   */\n      dup2\n        /* \"#utility.yul\":33055:33090   */\n      eq\n        /* \"#utility.yul\":33045:33108   */\n      tag_630\n      jumpi\n        /* \"#utility.yul\":33104:33105   */\n      0x00\n        /* \"#utility.yul\":33101:33102   */\n      dup1\n        /* \"#utility.yul\":33094:33106   */\n      revert\n        /* \"#utility.yul\":33045:33108   */\n    tag_630:\n        /* \"#utility.yul\":32992:33114   */\n      pop\n      jump\t// out\n\n    auxdata: 0xa26469706673582212204f0f58a5ddc27782fa7721eaa1abba649977566bb16909ea4581124c4235beb364736f6c63430008070033\n}\n",
				"bytecode": {
					"linkReferences": {},
					"object": "608060405234801561001057600080fd5b5061361d806100206000396000f3fe608060405234801561001057600080fd5b50600436106100cf5760003560e01c80633d63af0e1161008c578063883a967311610066578063883a96731461025d5780638f6a35b714610279578063c99ba896146102ab578063ec548680146102db576100cf565b80633d63af0e146101db5780635a0a1390146101f75780637b735c461461022b576100cf565b806306699b01146100d4578063089a4c60146101045780630952ed751461013e57806317072d6b1461015a57806333a0b0ab1461017657806337f2e190146101a8575b600080fd5b6100ee60048036038101906100e991906127a6565b61030b565b6040516100fb9190612c23565b60405180910390f35b61011e60048036038101906101199190612685565b61036f565b6040516101359b9a99989796959493929190612d05565b60405180910390f35b61015860048036038101906101539190612802565b6105c4565b005b610174600480360381019061016f919061272a565b610884565b005b610190600480360381019061018b91906126ce565b611229565b60405161019f93929190612c59565b60405180910390f35b6101c260048036038101906101bd9190612638565b6112b0565b6040516101d29493929190612c90565b60405180910390f35b6101f560048036038101906101f091906125d8565b611536565b005b610211600480360381019061020c9190612638565b611997565b604051610222959493929190612dc5565b60405180910390f35b610245600480360381019061024091906125d8565b611b12565b60405161025493929190612c59565b60405180910390f35b61027760048036038101906102729190612638565b611c83565b005b610293600480360381019061028e91906127a6565b6122c2565b6040516102a293929190612c59565b60405180910390f35b6102c560048036038101906102c09190612638565b612355565b6040516102d29190612ce3565b60405180910390f35b6102f560048036038101906102f09190612638565b61240b565b6040516103029190612c3e565b60405180910390f35b600382805160208101820180518482526020830160208501208183528095505050505050818154811061033d57600080fd5b906000526020600020016000915091509054906101000a900473ffffffffffffffffffffffffffffffffffffffff1681565b6000818051602081018201805184825260208301602085012081835280955050505050506000915090508060000180546103a8906131b7565b80601f01602080910402602001604051908101604052809291908181526020018280546103d4906131b7565b80156104215780601f106103f657610100808354040283529160200191610421565b820191906000526020600020905b81548152906001019060200180831161040457829003601f168201915b5050505050908060010160009054906101000a900473ffffffffffffffffffffffffffffffffffffffff16908060020160009054906101000a900473ffffffffffffffffffffffffffffffffffffffff16908060030154908060040154908060050154908060060154908060070160009054906101000a900460ff16908060080154908060090180546104b3906131b7565b80601f01602080910402602001604051908101604052809291908181526020018280546104df906131b7565b801561052c5780601f106105015761010080835404028352916020019161052c565b820191906000526020600020905b81548152906001019060200180831161050f57829003601f168201915b50505050509080600a018054610541906131b7565b80601f016020809104026020016040519081016040528092919081815260200182805461056d906131b7565b80156105ba5780601f1061058f576101008083540402835291602001916105ba565b820191906000526020600020905b81548152906001019060200180831161059d57829003601f168201915b505050505090508b565b600073ffffffffffffffffffffffffffffffffffffffff166000866040516105ec9190612c0c565b908152602001604051809103902060010160009054906101000a900473ffffffffffffffffffffffffffffffffffffffff1673ffffffffffffffffffffffffffffffffffffffff1614610674576040517f08c379a000000000000000000000000000000000000000000000000000000000815260040161066b90612e3f565b60405180910390fd5b60006040518061016001604052808781526020013373ffffffffffffffffffffffffffffffffffffffff1681526020013073ffffffffffffffffffffffffffffffffffffffff1681526020016000815260200186426106d39190613035565b8152602001858152602001600081526020016000151581526020017f52656a65637465640000000000000000000000000000000000000000000000008152602001838152602001848152509050806000876040516107319190612c0c565b9081526020016040518091039020600082015181600001908051906020019061075b929190612445565b5060208201518160010160006101000a81548173ffffffffffffffffffffffffffffffffffffffff021916908373ffffffffffffffffffffffffffffffffffffffff16021790555060408201518160020160006101000a81548173ffffffffffffffffffffffffffffffffffffffff021916908373ffffffffffffffffffffffffffffffffffffffff160217905550606082015181600301556080820151816004015560a0820151816005015560c0820151816006015560e08201518160070160006101000a81548160ff021916908315150217905550610100820151816008015561012082015181600901908051906020019061085a929190612445565b5061014082015181600a019080519060200190610878929190612445565b50905050505050505050565b60008282604051610896929190612bf3565b90815260200160405180910390206004015442106108e9576040517f08c379a00000000000000000000000000000000000000000000000000000000081526004016108e090612f3f565b60405180910390fd5b600073ffffffffffffffffffffffffffffffffffffffff1660018383604051610913929190612bf3565b908152602001604051809103902060003373ffffffffffffffffffffffffffffffffffffffff1673ffffffffffffffffffffffffffffffffffffffff16815260200190815260200160002060000160029054906101000a900473ffffffffffffffffffffffffffffffffffffffff1673ffffffffffffffffffffffffffffffffffffffff1614156109d9576040517f08c379a00000000000000000000000000000000000000000000000000000000081526004016109d090612ebf565b60405180910390fd5b600182826040516109eb929190612bf3565b908152602001604051809103902060003373ffffffffffffffffffffffffffffffffffffffff1673ffffffffffffffffffffffffffffffffffffffff16815260200190815260200160002060000160009054906101000a900460ff1615610a87576040517f08c379a0000000000000000000000000000000000000000000000000000000008152600401610a7e90612e7f565b60405180910390fd5b6040518060400160405280600981526020017f6920617070726f766500000000000000000000000000000000000000000000008152508051906020012083805190602001201415610da2576001808383604051610ae5929190612bf3565b908152602001604051809103902060003373ffffffffffffffffffffffffffffffffffffffff1673ffffffffffffffffffffffffffffffffffffffff16815260200190815260200160002060000160006101000a81548160ff0219169083151502179055506001808383604051610b5d929190612bf3565b908152602001604051809103902060003373ffffffffffffffffffffffffffffffffffffffff1673ffffffffffffffffffffffffffffffffffffffff16815260200190815260200160002060000160016101000a81548160ff021916908315150217905550600160008383604051610bd6929190612bf3565b90815260200160405180910390206006016000828254610bf69190613035565b92505081905550600160008383604051610c11929190612bf3565b90815260200160405180910390206003016000828254610c319190613035565b9250508190555060028282604051610c4a929190612bf3565b908152602001604051809103902060018383604051610c6a929190612bf3565b908152602001604051809103902060003373ffffffffffffffffffffffffffffffffffffffff1673ffffffffffffffffffffffffffffffffffffffff168152602001908152602001600020908060018154018082558091505060019003906000526020600020016000909190919091506000820160009054906101000a900460ff168160000160006101000a81548160ff0219169083151502179055506000820160019054906101000a900460ff168160000160016101000a81548160ff0219169083151502179055506000820160029054906101000a900473ffffffffffffffffffffffffffffffffffffffff168160000160026101000a81548173ffffffffffffffffffffffffffffffffffffffff021916908373ffffffffffffffffffffffffffffffffffffffff1602179055505050611224565b6040518060400160405280600c81526020017f6920646973617070726f76650000000000000000000000000000000000000000815250805190602001208380519060200120141561100a576001808383604051610e00929190612bf3565b908152602001604051809103902060003373ffffffffffffffffffffffffffffffffffffffff1673ffffffffffffffffffffffffffffffffffffffff16815260200190815260200160002060000160006101000a81548160ff021916908315150217905550600160008383604051610e79929190612bf3565b90815260200160405180910390206003016000828254610e999190613035565b9250508190555060028282604051610eb2929190612bf3565b908152602001604051809103902060018383604051610ed2929190612bf3565b908152602001604051809103902060003373ffffffffffffffffffffffffffffffffffffffff1673ffffffffffffffffffffffffffffffffffffffff168152602001908152602001600020908060018154018082558091505060019003906000526020600020016000909190919091506000820160009054906101000a900460ff168160000160006101000a81548160ff0219169083151502179055506000820160019054906101000a900460ff168160000160016101000a81548160ff0219169083151502179055506000820160029054906101000a900473ffffffffffffffffffffffffffffffffffffffff168160000160026101000a81548173ffffffffffffffffffffffffffffffffffffffff021916908373ffffffffffffffffffffffffffffffffffffffff1602179055505050611223565b600180838360405161101d929190612bf3565b908152602001604051809103902060003373ffffffffffffffffffffffffffffffffffffffff1673ffffffffffffffffffffffffffffffffffffffff16815260200190815260200160002060000160006101000a81548160ff021916908315150217905550600160008383604051611096929190612bf3565b908152602001604051809103902060030160008282546110b69190613035565b92505081905550600282826040516110cf929190612bf3565b9081526020016040518091039020600183836040516110ef929190612bf3565b908152602001604051809103902060003373ffffffffffffffffffffffffffffffffffffffff1673ffffffffffffffffffffffffffffffffffffffff168152602001908152602001600020908060018154018082558091505060019003906000526020600020016000909190919091506000820160009054906101000a900460ff168160000160006101000a81548160ff0219169083151502179055506000820160019054906101000a900460ff168160000160016101000a81548160ff0219169083151502179055506000820160029054906101000a900473ffffffffffffffffffffffffffffffffffffffff168160000160026101000a81548173ffffffffffffffffffffffffffffffffffffffff021916908373ffffffffffffffffffffffffffffffffffffffff16021790555050505b5b505050565b600182805160208101820180518482526020830160208501208183528095505050505050602052806000526040600020600091509150508060000160009054906101000a900460ff16908060000160019054906101000a900460ff16908060000160029054906101000a900473ffffffffffffffffffffffffffffffffffffffff16905083565b6000606060006060600086866040516112ca929190612bf3565b90815260200160405180910390206004015442101561131e576040517f08c379a000000000000000000000000000000000000000000000000000000000815260040161131590612f1f565b60405180910390fd5b600060028787604051611332929190612bf3565b9081526020016040518091039020805480602002602001604051908101604052809291908181526020016000905b8282101561141a578382906000526020600020016040518060600160405290816000820160009054906101000a900460ff161515151581526020016000820160019054906101000a900460ff161515151581526020016000820160029054906101000a900473ffffffffffffffffffffffffffffffffffffffff1673ffffffffffffffffffffffffffffffffffffffff1673ffffffffffffffffffffffffffffffffffffffff168152505081526020019060010190611360565b5050505090506000808888604051611433929190612bf3565b9081526020016040518091039020600001805461144f906131b7565b80601f016020809104026020016040519081016040528092919081815260200182805461147b906131b7565b80156114c85780601f1061149d576101008083540402835291602001916114c8565b820191906000526020600020905b8154815290600101906020018083116114ab57829003601f168201915b5050505050905060008089896040516114e2929190612bf3565b90815260200160405180910390206008015490506000808a8a604051611509929190612bf3565b90815260200160405180910390206003015490508183828697509750975097505050505092959194509250565b60008282604051611548929190612bf3565b908152602001604051809103902060010160009054906101000a900473ffffffffffffffffffffffffffffffffffffffff1673ffffffffffffffffffffffffffffffffffffffff163373ffffffffffffffffffffffffffffffffffffffff16146115e7576040517f08c379a00000000000000000000000000000000000000000000000000000000081526004016115de90612eff565b60405180910390fd5b600082826040516115f9929190612bf3565b908152602001604051809103902060010160009054906101000a900473ffffffffffffffffffffffffffffffffffffffff1673ffffffffffffffffffffffffffffffffffffffff168373ffffffffffffffffffffffffffffffffffffffff161415611699576040517f08c379a000000000000000000000000000000000000000000000000000000000815260040161169090612e9f565b60405180910390fd5b600073ffffffffffffffffffffffffffffffffffffffff16600183836040516116c3929190612bf3565b908152602001604051809103902060008573ffffffffffffffffffffffffffffffffffffffff1673ffffffffffffffffffffffffffffffffffffffff16815260200190815260200160002060000160029054906101000a900473ffffffffffffffffffffffffffffffffffffffff1673ffffffffffffffffffffffffffffffffffffffff1614611788576040517f08c379a000000000000000000000000000000000000000000000000000000000815260040161177f90612e1f565b60405180910390fd5b6000828260405161179a929190612bf3565b90815260200160405180910390206004015442106117ed576040517f08c379a00000000000000000000000000000000000000000000000000000000081526004016117e490612edf565b60405180910390fd5b600060405180606001604052806000151581526020016000151581526020018573ffffffffffffffffffffffffffffffffffffffff168152509050806001848460405161183b929190612bf3565b908152602001604051809103902060008673ffffffffffffffffffffffffffffffffffffffff1673ffffffffffffffffffffffffffffffffffffffff16815260200190815260200160002060008201518160000160006101000a81548160ff02191690831515021790555060208201518160000160016101000a81548160ff02191690831515021790555060408201518160000160026101000a81548173ffffffffffffffffffffffffffffffffffffffff021916908373ffffffffffffffffffffffffffffffffffffffff16021790555090505060038383604051611922929190612bf3565b9081526020016040518091039020849080600181540180825580915050600190039060005260206000200160009091909190916101000a81548173ffffffffffffffffffffffffffffffffffffffff021916908373ffffffffffffffffffffffffffffffffffffffff16021790555050505050565b6060600080600080600087876040516119b1929190612bf3565b9081526020016040518091039020600001600088886040516119d4929190612bf3565b908152602001604051809103902060040154600089896040516119f8929190612bf3565b908152602001604051809103902060010160009054906101000a900473ffffffffffffffffffffffffffffffffffffffff1660008a8a604051611a3c929190612bf3565b90815260200160405180910390206005015460008b8b604051611a60929190612bf3565b908152602001604051809103902060060154848054611a7e906131b7565b80601f0160208091040260200160405190810160405280929190818152602001828054611aaa906131b7565b8015611af75780601f10611acc57610100808354040283529160200191611af7565b820191906000526020600020905b815481529060010190602001808311611ada57829003601f168201915b50505050509450945094509450945094509295509295909350565b600080600060018585604051611b29929190612bf3565b908152602001604051809103902060008773ffffffffffffffffffffffffffffffffffffffff1673ffffffffffffffffffffffffffffffffffffffff16815260200190815260200160002060000160019054906101000a900460ff1660018686604051611b97929190612bf3565b908152602001604051809103902060008873ffffffffffffffffffffffffffffffffffffffff1673ffffffffffffffffffffffffffffffffffffffff16815260200190815260200160002060000160009054906101000a900460ff1660018787604051611c05929190612bf3565b908152602001604051809103902060008973ffffffffffffffffffffffffffffffffffffffff1673ffffffffffffffffffffffffffffffffffffffff16815260200190815260200160002060000160029054906101000a900473ffffffffffffffffffffffffffffffffffffffff1692509250925093509350939050565b60008282604051611c95929190612bf3565b908152602001604051809103902060040154421015611ce9576040517f08c379a0000000000000000000000000000000000000000000000000000000008152600401611ce090612f1f565b60405180910390fd5b6000151560008383604051611cff929190612bf3565b908152602001604051809103902060070160009054906101000a900460ff16151514611d60576040517f08c379a0000000000000000000000000000000000000000000000000000000008152600401611d5790612f5f565b60405180910390fd5b60008282604051611d72929190612bf3565b908152602001604051809103902060010160009054906101000a900473ffffffffffffffffffffffffffffffffffffffff1673ffffffffffffffffffffffffffffffffffffffff163373ffffffffffffffffffffffffffffffffffffffff161480611e8a5750600073ffffffffffffffffffffffffffffffffffffffff1660018383604051611e02929190612bf3565b908152602001604051809103902060003373ffffffffffffffffffffffffffffffffffffffff1673ffffffffffffffffffffffffffffffffffffffff16815260200190815260200160002060000160029054906101000a900473ffffffffffffffffffffffffffffffffffffffff1673ffffffffffffffffffffffffffffffffffffffff1614155b611ec9576040517f08c379a0000000000000000000000000000000000000000000000000000000008152600401611ec090612e5f565b60405180910390fd5b6000606460038484604051611edf929190612bf3565b90815260200160405180910390208054905060008585604051611f03929190612bf3565b908152602001604051809103902060060154611f1f919061308b565b611f2991906130bc565b905060008383604051611f3d929190612bf3565b9081526020016040518091039020600501548110611f9e577f416363657074656400000000000000000000000000000000000000000000000060008484604051611f88929190612bf3565b9081526020016040518091039020600801819055505b60005b60038484604051611fb3929190612bf3565b9081526020016040518091039020805490508160ff161015612280576000151560018585604051611fe5929190612bf3565b9081526020016040518091039020600060038787604051612007929190612bf3565b90815260200160405180910390208460ff168154811061202a576120296132d1565b5b9060005260206000200160009054906101000a900473ffffffffffffffffffffffffffffffffffffffff1673ffffffffffffffffffffffffffffffffffffffff1673ffffffffffffffffffffffffffffffffffffffff16815260200190815260200160002060000160009054906101000a900460ff161515141561226d57600284846040516120ba929190612bf3565b9081526020016040518091039020600185856040516120da929190612bf3565b90815260200160405180910390206000600387876040516120fc929190612bf3565b90815260200160405180910390208460ff168154811061211f5761211e6132d1565b5b9060005260206000200160009054906101000a900473ffffffffffffffffffffffffffffffffffffffff1673ffffffffffffffffffffffffffffffffffffffff1673ffffffffffffffffffffffffffffffffffffffff168152602001908152602001600020908060018154018082558091505060019003906000526020600020016000909190919091506000820160009054906101000a900460ff168160000160006101000a81548160ff0219169083151502179055506000820160019054906101000a900460ff168160000160016101000a81548160ff0219169083151502179055506000820160029054906101000a900473ffffffffffffffffffffffffffffffffffffffff168160000160026101000a81548173ffffffffffffffffffffffffffffffffffffffff021916908373ffffffffffffffffffffffffffffffffffffffff16021790555050505b80806122789061321a565b915050611fa1565b50600160008484604051612295929190612bf3565b908152602001604051809103902060070160006101000a81548160ff021916908315150217905550505050565b60028280516020810182018051848252602083016020850120818352809550505050505081815481106122f457600080fd5b90600052602060002001600091509150508060000160009054906101000a900460ff16908060000160019054906101000a900460ff16908060000160029054906101000a900473ffffffffffffffffffffffffffffffffffffffff16905083565b606060008383604051612369929190612bf3565b90815260200160405180910390206000018054612385906131b7565b80601f01602080910402602001604051908101604052809291908181526020018280546123b1906131b7565b80156123fe5780601f106123d3576101008083540402835291602001916123fe565b820191906000526020600020905b8154815290600101906020018083116123e157829003601f168201915b5050505050905092915050565b600080838360405161241e929190612bf3565b908152602001604051809103902060070160009054906101000a900460ff16905092915050565b828054612451906131b7565b90600052602060002090601f01602090048101928261247357600085556124ba565b82601f1061248c57805160ff19168380011785556124ba565b828001600101855582156124ba579182015b828111156124b957825182559160200191906001019061249e565b5b5090506124c791906124cb565b5090565b5b808211156124e45760008160009055506001016124cc565b5090565b60006124fb6124f684612fa4565b612f7f565b9050828152602081018484840111156125175761251661333e565b5b612522848285613175565b509392505050565b600081359050612539816135b9565b92915050565b60008083601f84011261255557612554613334565b5b8235905067ffffffffffffffff8111156125725761257161332f565b5b60208301915083600182028301111561258e5761258d613339565b5b9250929050565b600082601f8301126125aa576125a9613334565b5b81356125ba8482602086016124e8565b91505092915050565b6000813590506125d2816135d0565b92915050565b6000806000604084860312156125f1576125f0613348565b5b60006125ff8682870161252a565b935050602084013567ffffffffffffffff8111156126205761261f613343565b5b61262c8682870161253f565b92509250509250925092565b6000806020838503121561264f5761264e613348565b5b600083013567ffffffffffffffff81111561266d5761266c613343565b5b6126798582860161253f565b92509250509250929050565b60006020828403121561269b5761269a613348565b5b600082013567ffffffffffffffff8111156126b9576126b8613343565b5b6126c584828501612595565b91505092915050565b600080604083850312156126e5576126e4613348565b5b600083013567ffffffffffffffff81111561270357612702613343565b5b61270f85828601612595565b92505060206127208582860161252a565b9150509250929050565b60008060006040848603121561274357612742613348565b5b600084013567ffffffffffffffff81111561276157612760613343565b5b61276d86828701612595565b935050602084013567ffffffffffffffff81111561278e5761278d613343565b5b61279a8682870161253f565b92509250509250925092565b600080604083850312156127bd576127bc613348565b5b600083013567ffffffffffffffff8111156127db576127da613343565b5b6127e785828601612595565b92505060206127f8858286016125c3565b9150509250929050565b600080600080600060a0868803121561281e5761281d613348565b5b600086013567ffffffffffffffff81111561283c5761283b613343565b5b61284888828901612595565b9550506020612859888289016125c3565b945050604061286a888289016125c3565b935050606086013567ffffffffffffffff81111561288b5761288a613343565b5b61289788828901612595565b925050608086013567ffffffffffffffff8111156128b8576128b7613343565b5b6128c488828901612595565b9150509295509295909350565b60006128dd8383612ba2565b60608301905092915050565b6128f281613116565b82525050565b61290181613116565b82525050565b600061291282612fe5565b61291c8185613008565b935061292783612fd5565b8060005b8381101561295857815161293f88826128d1565b975061294a83612ffb565b92505060018101905061292b565b5085935050505092915050565b61296e81613128565b82525050565b61297d81613128565b82525050565b61298c81613134565b82525050565b600061299e838561302a565b93506129ab838584613175565b82840190509392505050565b60006129c282612ff0565b6129cc8185613019565b93506129dc818560208601613184565b6129e58161334d565b840191505092915050565b60006129fb82612ff0565b612a05818561302a565b9350612a15818560208601613184565b80840191505092915050565b6000612a2e601f83613019565b9150612a398261335e565b602082019050919050565b6000612a51601983613019565b9150612a5c82613387565b602082019050919050565b6000612a74602683613019565b9150612a7f826133b0565b604082019050919050565b6000612a97601c83613019565b9150612aa2826133ff565b602082019050919050565b6000612aba601583613019565b9150612ac582613428565b602082019050919050565b6000612add601e83613019565b9150612ae882613451565b602082019050919050565b6000612b00602483613019565b9150612b0b8261347a565b604082019050919050565b6000612b23602883613019565b9150612b2e826134c9565b604082019050919050565b6000612b46602083613019565b9150612b5182613518565b602082019050919050565b6000612b69601283613019565b9150612b7482613541565b602082019050919050565b6000612b8c602583613019565b9150612b978261356a565b604082019050919050565b606082016000820151612bb86000850182612965565b506020820151612bcb6020850182612965565b506040820151612bde60408501826128e9565b50505050565b612bed8161315e565b82525050565b6000612c00828486612992565b91508190509392505050565b6000612c1882846129f0565b915081905092915050565b6000602082019050612c3860008301846128f8565b92915050565b6000602082019050612c536000830184612974565b92915050565b6000606082019050612c6e6000830186612974565b612c7b6020830185612974565b612c8860408301846128f8565b949350505050565b6000608082019050612ca56000830187612983565b8181036020830152612cb781866129b7565b9050612cc66040830185612be4565b8181036060830152612cd88184612907565b905095945050505050565b60006020820190508181036000830152612cfd81846129b7565b905092915050565b6000610160820190508181036000830152612d20818e6129b7565b9050612d2f602083018d6128f8565b612d3c604083018c6128f8565b612d49606083018b612be4565b612d56608083018a612be4565b612d6360a0830189612be4565b612d7060c0830188612be4565b612d7d60e0830187612974565b612d8b610100830186612983565b818103610120830152612d9e81856129b7565b9050818103610140830152612db381846129b7565b90509c9b505050505050505050505050565b600060a0820190508181036000830152612ddf81886129b7565b9050612dee6020830187612be4565b612dfb60408301866128f8565b612e086060830185612be4565b612e156080830184612be4565b9695505050505050565b60006020820190508181036000830152612e3881612a21565b9050919050565b60006020820190508181036000830152612e5881612a44565b9050919050565b60006020820190508181036000830152612e7881612a67565b9050919050565b60006020820190508181036000830152612e9881612a8a565b9050919050565b60006020820190508181036000830152612eb881612aad565b9050919050565b60006020820190508181036000830152612ed881612ad0565b9050919050565b60006020820190508181036000830152612ef881612af3565b9050919050565b60006020820190508181036000830152612f1881612b16565b9050919050565b60006020820190508181036000830152612f3881612b39565b9050919050565b60006020820190508181036000830152612f5881612b5c565b9050919050565b60006020820190508181036000830152612f7881612b7f565b9050919050565b6000612f89612f9a565b9050612f9582826131e9565b919050565b6000604051905090565b600067ffffffffffffffff821115612fbf57612fbe613300565b5b612fc88261334d565b9050602081019050919050565b6000819050602082019050919050565b600081519050919050565b600081519050919050565b6000602082019050919050565b600082825260208201905092915050565b600082825260208201905092915050565b600081905092915050565b60006130408261315e565b915061304b8361315e565b9250827fffffffffffffffffffffffffffffffffffffffffffffffffffffffffffffffff038211156130805761307f613244565b5b828201905092915050565b60006130968261315e565b91506130a18361315e565b9250826130b1576130b0613273565b5b828204905092915050565b60006130c78261315e565b91506130d28361315e565b9250817fffffffffffffffffffffffffffffffffffffffffffffffffffffffffffffffff048311821515161561310b5761310a613244565b5b828202905092915050565b60006131218261313e565b9050919050565b60008115159050919050565b6000819050919050565b600073ffffffffffffffffffffffffffffffffffffffff82169050919050565b6000819050919050565b600060ff82169050919050565b82818337600083830152505050565b60005b838110156131a2578082015181840152602081019050613187565b838111156131b1576000848401525b50505050565b600060028204905060018216806131cf57607f821691505b602082108114156131e3576131e26132a2565b5b50919050565b6131f28261334d565b810181811067ffffffffffffffff8211171561321157613210613300565b5b80604052505050565b600061322582613168565b915060ff82141561323957613238613244565b5b600182019050919050565b7f4e487b7100000000000000000000000000000000000000000000000000000000600052601160045260246000fd5b7f4e487b7100000000000000000000000000000000000000000000000000000000600052601260045260246000fd5b7f4e487b7100000000000000000000000000000000000000000000000000000000600052602260045260246000fd5b7f4e487b7100000000000000000000000000000000000000000000000000000000600052603260045260246000fd5b7f4e487b7100000000000000000000000000000000000000000000000000000000600052604160045260246000fd5b600080fd5b600080fd5b600080fd5b600080fd5b600080fd5b600080fd5b6000601f19601f8301169050919050565b7f526563697069656e7420697320616c7265616479207265676973746572656400600082015250565b7f50726f706f73616c20616c726561647920637265617465642100000000000000600082015250565b7f596f75206172656e277420617574686f72697a6520746f20636f6d70696c652060008201527f42756e646c650000000000000000000000000000000000000000000000000000602082015250565b7f596f7520616c72656164792073656e74206120726573706f6e73652e00000000600082015250565b7f496e69746961746f722063616e277420766f7465210000000000000000000000600082015250565b7f596f7520617265206e6f74207265676973746572656420746f20766f74650000600082015250565b7f50726f706f73616c20686173207265616368656420697473206578706972792060008201527f6461746500000000000000000000000000000000000000000000000000000000602082015250565b7f4f6e6c7920696e69746961746f722063616e207265676973746572206120726560008201527f63697069656e742e000000000000000000000000000000000000000000000000602082015250565b7f5665726469637420686173206e6f74206265656e207265616368656420796574600082015250565b7f566f74696e672068617320657870697265640000000000000000000000000000600082015250565b7f436f6e73656e7375732068617320616c7265616479206265656e2063616c637560008201527f6c61746564000000000000000000000000000000000000000000000000000000602082015250565b6135c281613116565b81146135cd57600080fd5b50565b6135d98161315e565b81146135e457600080fd5b5056fea26469706673582212204f0f58a5ddc27782fa7721eaa1abba649977566bb16909ea4581124c4235beb364736f6c63430008070033",
					"opcodes": "PUSH1 0x80 PUSH1 0x40 MSTORE CALLVALUE DUP1 ISZERO PUSH2 0x10 JUMPI PUSH1 0x0 DUP1 REVERT JUMPDEST POP PUSH2 0x361D DUP1 PUSH2 0x20 PUSH1 0x0 CODECOPY PUSH1 0x0 RETURN INVALID PUSH1 0x80 PUSH1 0x40 MSTORE CALLVALUE DUP1 ISZERO PUSH2 0x10 JUMPI PUSH1 0x0 DUP1 REVERT JUMPDEST POP PUSH1 0x4 CALLDATASIZE LT PUSH2 0xCF JUMPI PUSH1 0x0 CALLDATALOAD PUSH1 0xE0 SHR DUP1 PUSH4 0x3D63AF0E GT PUSH2 0x8C JUMPI DUP1 PUSH4 0x883A9673 GT PUSH2 0x66 JUMPI DUP1 PUSH4 0x883A9673 EQ PUSH2 0x25D JUMPI DUP1 PUSH4 0x8F6A35B7 EQ PUSH2 0x279 JUMPI DUP1 PUSH4 0xC99BA896 EQ PUSH2 0x2AB JUMPI DUP1 PUSH4 0xEC548680 EQ PUSH2 0x2DB JUMPI PUSH2 0xCF JUMP JUMPDEST DUP1 PUSH4 0x3D63AF0E EQ PUSH2 0x1DB JUMPI DUP1 PUSH4 0x5A0A1390 EQ PUSH2 0x1F7 JUMPI DUP1 PUSH4 0x7B735C46 EQ PUSH2 0x22B JUMPI PUSH2 0xCF JUMP JUMPDEST DUP1 PUSH4 0x6699B01 EQ PUSH2 0xD4 JUMPI DUP1 PUSH4 0x89A4C60 EQ PUSH2 0x104 JUMPI DUP1 PUSH4 0x952ED75 EQ PUSH2 0x13E JUMPI DUP1 PUSH4 0x17072D6B EQ PUSH2 0x15A JUMPI DUP1 PUSH4 0x33A0B0AB EQ PUSH2 0x176 JUMPI DUP1 PUSH4 0x37F2E190 EQ PUSH2 0x1A8 JUMPI JUMPDEST PUSH1 0x0 DUP1 REVERT JUMPDEST PUSH2 0xEE PUSH1 0x4 DUP1 CALLDATASIZE SUB DUP2 ADD SWAP1 PUSH2 0xE9 SWAP2 SWAP1 PUSH2 0x27A6 JUMP JUMPDEST PUSH2 0x30B JUMP JUMPDEST PUSH1 0x40 MLOAD PUSH2 0xFB SWAP2 SWAP1 PUSH2 0x2C23 JUMP JUMPDEST PUSH1 0x40 MLOAD DUP1 SWAP2 SUB SWAP1 RETURN JUMPDEST PUSH2 0x11E PUSH1 0x4 DUP1 CALLDATASIZE SUB DUP2 ADD SWAP1 PUSH2 0x119 SWAP2 SWAP1 PUSH2 0x2685 JUMP JUMPDEST PUSH2 0x36F JUMP JUMPDEST PUSH1 0x40 MLOAD PUSH2 0x135 SWAP12 SWAP11 SWAP10 SWAP9 SWAP8 SWAP7 SWAP6 SWAP5 SWAP4 SWAP3 SWAP2 SWAP1 PUSH2 0x2D05 JUMP JUMPDEST PUSH1 0x40 MLOAD DUP1 SWAP2 SUB SWAP1 RETURN JUMPDEST PUSH2 0x158 PUSH1 0x4 DUP1 CALLDATASIZE SUB DUP2 ADD SWAP1 PUSH2 0x153 SWAP2 SWAP1 PUSH2 0x2802 JUMP JUMPDEST PUSH2 0x5C4 JUMP JUMPDEST STOP JUMPDEST PUSH2 0x174 PUSH1 0x4 DUP1 CALLDATASIZE SUB DUP2 ADD SWAP1 PUSH2 0x16F SWAP2 SWAP1 PUSH2 0x272A JUMP JUMPDEST PUSH2 0x884 JUMP JUMPDEST STOP JUMPDEST PUSH2 0x190 PUSH1 0x4 DUP1 CALLDATASIZE SUB DUP2 ADD SWAP1 PUSH2 0x18B SWAP2 SWAP1 PUSH2 0x26CE JUMP JUMPDEST PUSH2 0x1229 JUMP JUMPDEST PUSH1 0x40 MLOAD PUSH2 0x19F SWAP4 SWAP3 SWAP2 SWAP1 PUSH2 0x2C59 JUMP JUMPDEST PUSH1 0x40 MLOAD DUP1 SWAP2 SUB SWAP1 RETURN JUMPDEST PUSH2 0x1C2 PUSH1 0x4 DUP1 CALLDATASIZE SUB DUP2 ADD SWAP1 PUSH2 0x1BD SWAP2 SWAP1 PUSH2 0x2638 JUMP JUMPDEST PUSH2 0x12B0 JUMP JUMPDEST PUSH1 0x40 MLOAD PUSH2 0x1D2 SWAP5 SWAP4 SWAP3 SWAP2 SWAP1 PUSH2 0x2C90 JUMP JUMPDEST PUSH1 0x40 MLOAD DUP1 SWAP2 SUB SWAP1 RETURN JUMPDEST PUSH2 0x1F5 PUSH1 0x4 DUP1 CALLDATASIZE SUB DUP2 ADD SWAP1 PUSH2 0x1F0 SWAP2 SWAP1 PUSH2 0x25D8 JUMP JUMPDEST PUSH2 0x1536 JUMP JUMPDEST STOP JUMPDEST PUSH2 0x211 PUSH1 0x4 DUP1 CALLDATASIZE SUB DUP2 ADD SWAP1 PUSH2 0x20C SWAP2 SWAP1 PUSH2 0x2638 JUMP JUMPDEST PUSH2 0x1997 JUMP JUMPDEST PUSH1 0x40 MLOAD PUSH2 0x222 SWAP6 SWAP5 SWAP4 SWAP3 SWAP2 SWAP1 PUSH2 0x2DC5 JUMP JUMPDEST PUSH1 0x40 MLOAD DUP1 SWAP2 SUB SWAP1 RETURN JUMPDEST PUSH2 0x245 PUSH1 0x4 DUP1 CALLDATASIZE SUB DUP2 ADD SWAP1 PUSH2 0x240 SWAP2 SWAP1 PUSH2 0x25D8 JUMP JUMPDEST PUSH2 0x1B12 JUMP JUMPDEST PUSH1 0x40 MLOAD PUSH2 0x254 SWAP4 SWAP3 SWAP2 SWAP1 PUSH2 0x2C59 JUMP JUMPDEST PUSH1 0x40 MLOAD DUP1 SWAP2 SUB SWAP1 RETURN JUMPDEST PUSH2 0x277 PUSH1 0x4 DUP1 CALLDATASIZE SUB DUP2 ADD SWAP1 PUSH2 0x272 SWAP2 SWAP1 PUSH2 0x2638 JUMP JUMPDEST PUSH2 0x1C83 JUMP JUMPDEST STOP JUMPDEST PUSH2 0x293 PUSH1 0x4 DUP1 CALLDATASIZE SUB DUP2 ADD SWAP1 PUSH2 0x28E SWAP2 SWAP1 PUSH2 0x27A6 JUMP JUMPDEST PUSH2 0x22C2 JUMP JUMPDEST PUSH1 0x40 MLOAD PUSH2 0x2A2 SWAP4 SWAP3 SWAP2 SWAP1 PUSH2 0x2C59 JUMP JUMPDEST PUSH1 0x40 MLOAD DUP1 SWAP2 SUB SWAP1 RETURN JUMPDEST PUSH2 0x2C5 PUSH1 0x4 DUP1 CALLDATASIZE SUB DUP2 ADD SWAP1 PUSH2 0x2C0 SWAP2 SWAP1 PUSH2 0x2638 JUMP JUMPDEST PUSH2 0x2355 JUMP JUMPDEST PUSH1 0x40 MLOAD PUSH2 0x2D2 SWAP2 SWAP1 PUSH2 0x2CE3 JUMP JUMPDEST PUSH1 0x40 MLOAD DUP1 SWAP2 SUB SWAP1 RETURN JUMPDEST PUSH2 0x2F5 PUSH1 0x4 DUP1 CALLDATASIZE SUB DUP2 ADD SWAP1 PUSH2 0x2F0 SWAP2 SWAP1 PUSH2 0x2638 JUMP JUMPDEST PUSH2 0x240B JUMP JUMPDEST PUSH1 0x40 MLOAD PUSH2 0x302 SWAP2 SWAP1 PUSH2 0x2C3E JUMP JUMPDEST PUSH1 0x40 MLOAD DUP1 SWAP2 SUB SWAP1 RETURN JUMPDEST PUSH1 0x3 DUP3 DUP1 MLOAD PUSH1 0x20 DUP2 ADD DUP3 ADD DUP1 MLOAD DUP5 DUP3 MSTORE PUSH1 0x20 DUP4 ADD PUSH1 0x20 DUP6 ADD KECCAK256 DUP2 DUP4 MSTORE DUP1 SWAP6 POP POP POP POP POP POP DUP2 DUP2 SLOAD DUP2 LT PUSH2 0x33D JUMPI PUSH1 0x0 DUP1 REVERT JUMPDEST SWAP1 PUSH1 0x0 MSTORE PUSH1 0x20 PUSH1 0x0 KECCAK256 ADD PUSH1 0x0 SWAP2 POP SWAP2 POP SWAP1 SLOAD SWAP1 PUSH2 0x100 EXP SWAP1 DIV PUSH20 0xFFFFFFFFFFFFFFFFFFFFFFFFFFFFFFFFFFFFFFFF AND DUP2 JUMP JUMPDEST PUSH1 0x0 DUP2 DUP1 MLOAD PUSH1 0x20 DUP2 ADD DUP3 ADD DUP1 MLOAD DUP5 DUP3 MSTORE PUSH1 0x20 DUP4 ADD PUSH1 0x20 DUP6 ADD KECCAK256 DUP2 DUP4 MSTORE DUP1 SWAP6 POP POP POP POP POP POP PUSH1 0x0 SWAP2 POP SWAP1 POP DUP1 PUSH1 0x0 ADD DUP1 SLOAD PUSH2 0x3A8 SWAP1 PUSH2 0x31B7 JUMP JUMPDEST DUP1 PUSH1 0x1F ADD PUSH1 0x20 DUP1 SWAP2 DIV MUL PUSH1 0x20 ADD PUSH1 0x40 MLOAD SWAP1 DUP2 ADD PUSH1 0x40 MSTORE DUP1 SWAP3 SWAP2 SWAP1 DUP2 DUP2 MSTORE PUSH1 0x20 ADD DUP3 DUP1 SLOAD PUSH2 0x3D4 SWAP1 PUSH2 0x31B7 JUMP JUMPDEST DUP1 ISZERO PUSH2 0x421 JUMPI DUP1 PUSH1 0x1F LT PUSH2 0x3F6 JUMPI PUSH2 0x100 DUP1 DUP4 SLOAD DIV MUL DUP4 MSTORE SWAP2 PUSH1 0x20 ADD SWAP2 PUSH2 0x421 JUMP JUMPDEST DUP3 ADD SWAP2 SWAP1 PUSH1 0x0 MSTORE PUSH1 0x20 PUSH1 0x0 KECCAK256 SWAP1 JUMPDEST DUP2 SLOAD DUP2 MSTORE SWAP1 PUSH1 0x1 ADD SWAP1 PUSH1 0x20 ADD DUP1 DUP4 GT PUSH2 0x404 JUMPI DUP3 SWAP1 SUB PUSH1 0x1F AND DUP3 ADD SWAP2 JUMPDEST POP POP POP POP POP SWAP1 DUP1 PUSH1 0x1 ADD PUSH1 0x0 SWAP1 SLOAD SWAP1 PUSH2 0x100 EXP SWAP1 DIV PUSH20 0xFFFFFFFFFFFFFFFFFFFFFFFFFFFFFFFFFFFFFFFF AND SWAP1 DUP1 PUSH1 0x2 ADD PUSH1 0x0 SWAP1 SLOAD SWAP1 PUSH2 0x100 EXP SWAP1 DIV PUSH20 0xFFFFFFFFFFFFFFFFFFFFFFFFFFFFFFFFFFFFFFFF AND SWAP1 DUP1 PUSH1 0x3 ADD SLOAD SWAP1 DUP1 PUSH1 0x4 ADD SLOAD SWAP1 DUP1 PUSH1 0x5 ADD SLOAD SWAP1 DUP1 PUSH1 0x6 ADD SLOAD SWAP1 DUP1 PUSH1 0x7 ADD PUSH1 0x0 SWAP1 SLOAD SWAP1 PUSH2 0x100 EXP SWAP1 DIV PUSH1 0xFF AND SWAP1 DUP1 PUSH1 0x8 ADD SLOAD SWAP1 DUP1 PUSH1 0x9 ADD DUP1 SLOAD PUSH2 0x4B3 SWAP1 PUSH2 0x31B7 JUMP JUMPDEST DUP1 PUSH1 0x1F ADD PUSH1 0x20 DUP1 SWAP2 DIV MUL PUSH1 0x20 ADD PUSH1 0x40 MLOAD SWAP1 DUP2 ADD PUSH1 0x40 MSTORE DUP1 SWAP3 SWAP2 SWAP1 DUP2 DUP2 MSTORE PUSH1 0x20 ADD DUP3 DUP1 SLOAD PUSH2 0x4DF SWAP1 PUSH2 0x31B7 JUMP JUMPDEST DUP1 ISZERO PUSH2 0x52C JUMPI DUP1 PUSH1 0x1F LT PUSH2 0x501 JUMPI PUSH2 0x100 DUP1 DUP4 SLOAD DIV MUL DUP4 MSTORE SWAP2 PUSH1 0x20 ADD SWAP2 PUSH2 0x52C JUMP JUMPDEST DUP3 ADD SWAP2 SWAP1 PUSH1 0x0 MSTORE PUSH1 0x20 PUSH1 0x0 KECCAK256 SWAP1 JUMPDEST DUP2 SLOAD DUP2 MSTORE SWAP1 PUSH1 0x1 ADD SWAP1 PUSH1 0x20 ADD DUP1 DUP4 GT PUSH2 0x50F JUMPI DUP3 SWAP1 SUB PUSH1 0x1F AND DUP3 ADD SWAP2 JUMPDEST POP POP POP POP POP SWAP1 DUP1 PUSH1 0xA ADD DUP1 SLOAD PUSH2 0x541 SWAP1 PUSH2 0x31B7 JUMP JUMPDEST DUP1 PUSH1 0x1F ADD PUSH1 0x20 DUP1 SWAP2 DIV MUL PUSH1 0x20 ADD PUSH1 0x40 MLOAD SWAP1 DUP2 ADD PUSH1 0x40 MSTORE DUP1 SWAP3 SWAP2 SWAP1 DUP2 DUP2 MSTORE PUSH1 0x20 ADD DUP3 DUP1 SLOAD PUSH2 0x56D SWAP1 PUSH2 0x31B7 JUMP JUMPDEST DUP1 ISZERO PUSH2 0x5BA JUMPI DUP1 PUSH1 0x1F LT PUSH2 0x58F JUMPI PUSH2 0x100 DUP1 DUP4 SLOAD DIV MUL DUP4 MSTORE SWAP2 PUSH1 0x20 ADD SWAP2 PUSH2 0x5BA JUMP JUMPDEST DUP3 ADD SWAP2 SWAP1 PUSH1 0x0 MSTORE PUSH1 0x20 PUSH1 0x0 KECCAK256 SWAP1 JUMPDEST DUP2 SLOAD DUP2 MSTORE SWAP1 PUSH1 0x1 ADD SWAP1 PUSH1 0x20 ADD DUP1 DUP4 GT PUSH2 0x59D JUMPI DUP3 SWAP1 SUB PUSH1 0x1F AND DUP3 ADD SWAP2 JUMPDEST POP POP POP POP POP SWAP1 POP DUP12 JUMP JUMPDEST PUSH1 0x0 PUSH20 0xFFFFFFFFFFFFFFFFFFFFFFFFFFFFFFFFFFFFFFFF AND PUSH1 0x0 DUP7 PUSH1 0x40 MLOAD PUSH2 0x5EC SWAP2 SWAP1 PUSH2 0x2C0C JUMP JUMPDEST SWAP1 DUP2 MSTORE PUSH1 0x20 ADD PUSH1 0x40 MLOAD DUP1 SWAP2 SUB SWAP1 KECCAK256 PUSH1 0x1 ADD PUSH1 0x0 SWAP1 SLOAD SWAP1 PUSH2 0x100 EXP SWAP1 DIV PUSH20 0xFFFFFFFFFFFFFFFFFFFFFFFFFFFFFFFFFFFFFFFF AND PUSH20 0xFFFFFFFFFFFFFFFFFFFFFFFFFFFFFFFFFFFFFFFF AND EQ PUSH2 0x674 JUMPI PUSH1 0x40 MLOAD PUSH32 0x8C379A000000000000000000000000000000000000000000000000000000000 DUP2 MSTORE PUSH1 0x4 ADD PUSH2 0x66B SWAP1 PUSH2 0x2E3F JUMP JUMPDEST PUSH1 0x40 MLOAD DUP1 SWAP2 SUB SWAP1 REVERT JUMPDEST PUSH1 0x0 PUSH1 0x40 MLOAD DUP1 PUSH2 0x160 ADD PUSH1 0x40 MSTORE DUP1 DUP8 DUP2 MSTORE PUSH1 0x20 ADD CALLER PUSH20 0xFFFFFFFFFFFFFFFFFFFFFFFFFFFFFFFFFFFFFFFF AND DUP2 MSTORE PUSH1 0x20 ADD ADDRESS PUSH20 0xFFFFFFFFFFFFFFFFFFFFFFFFFFFFFFFFFFFFFFFF AND DUP2 MSTORE PUSH1 0x20 ADD PUSH1 0x0 DUP2 MSTORE PUSH1 0x20 ADD DUP7 TIMESTAMP PUSH2 0x6D3 SWAP2 SWAP1 PUSH2 0x3035 JUMP JUMPDEST DUP2 MSTORE PUSH1 0x20 ADD DUP6 DUP2 MSTORE PUSH1 0x20 ADD PUSH1 0x0 DUP2 MSTORE PUSH1 0x20 ADD PUSH1 0x0 ISZERO ISZERO DUP2 MSTORE PUSH1 0x20 ADD PUSH32 0x52656A6563746564000000000000000000000000000000000000000000000000 DUP2 MSTORE PUSH1 0x20 ADD DUP4 DUP2 MSTORE PUSH1 0x20 ADD DUP5 DUP2 MSTORE POP SWAP1 POP DUP1 PUSH1 0x0 DUP8 PUSH1 0x40 MLOAD PUSH2 0x731 SWAP2 SWAP1 PUSH2 0x2C0C JUMP JUMPDEST SWAP1 DUP2 MSTORE PUSH1 0x20 ADD PUSH1 0x40 MLOAD DUP1 SWAP2 SUB SWAP1 KECCAK256 PUSH1 0x0 DUP3 ADD MLOAD DUP2 PUSH1 0x0 ADD SWAP1 DUP1 MLOAD SWAP1 PUSH1 0x20 ADD SWAP1 PUSH2 0x75B SWAP3 SWAP2 SWAP1 PUSH2 0x2445 JUMP JUMPDEST POP PUSH1 0x20 DUP3 ADD MLOAD DUP2 PUSH1 0x1 ADD PUSH1 0x0 PUSH2 0x100 EXP DUP2 SLOAD DUP2 PUSH20 0xFFFFFFFFFFFFFFFFFFFFFFFFFFFFFFFFFFFFFFFF MUL NOT AND SWAP1 DUP4 PUSH20 0xFFFFFFFFFFFFFFFFFFFFFFFFFFFFFFFFFFFFFFFF AND MUL OR SWAP1 SSTORE POP PUSH1 0x40 DUP3 ADD MLOAD DUP2 PUSH1 0x2 ADD PUSH1 0x0 PUSH2 0x100 EXP DUP2 SLOAD DUP2 PUSH20 0xFFFFFFFFFFFFFFFFFFFFFFFFFFFFFFFFFFFFFFFF MUL NOT AND SWAP1 DUP4 PUSH20 0xFFFFFFFFFFFFFFFFFFFFFFFFFFFFFFFFFFFFFFFF AND MUL OR SWAP1 SSTORE POP PUSH1 0x60 DUP3 ADD MLOAD DUP2 PUSH1 0x3 ADD SSTORE PUSH1 0x80 DUP3 ADD MLOAD DUP2 PUSH1 0x4 ADD SSTORE PUSH1 0xA0 DUP3 ADD MLOAD DUP2 PUSH1 0x5 ADD SSTORE PUSH1 0xC0 DUP3 ADD MLOAD DUP2 PUSH1 0x6 ADD SSTORE PUSH1 0xE0 DUP3 ADD MLOAD DUP2 PUSH1 0x7 ADD PUSH1 0x0 PUSH2 0x100 EXP DUP2 SLOAD DUP2 PUSH1 0xFF MUL NOT AND SWAP1 DUP4 ISZERO ISZERO MUL OR SWAP1 SSTORE POP PUSH2 0x100 DUP3 ADD MLOAD DUP2 PUSH1 0x8 ADD SSTORE PUSH2 0x120 DUP3 ADD MLOAD DUP2 PUSH1 0x9 ADD SWAP1 DUP1 MLOAD SWAP1 PUSH1 0x20 ADD SWAP1 PUSH2 0x85A SWAP3 SWAP2 SWAP1 PUSH2 0x2445 JUMP JUMPDEST POP PUSH2 0x140 DUP3 ADD MLOAD DUP2 PUSH1 0xA ADD SWAP1 DUP1 MLOAD SWAP1 PUSH1 0x20 ADD SWAP1 PUSH2 0x878 SWAP3 SWAP2 SWAP1 PUSH2 0x2445 JUMP JUMPDEST POP SWAP1 POP POP POP POP POP POP POP POP JUMP JUMPDEST PUSH1 0x0 DUP3 DUP3 PUSH1 0x40 MLOAD PUSH2 0x896 SWAP3 SWAP2 SWAP1 PUSH2 0x2BF3 JUMP JUMPDEST SWAP1 DUP2 MSTORE PUSH1 0x20 ADD PUSH1 0x40 MLOAD DUP1 SWAP2 SUB SWAP1 KECCAK256 PUSH1 0x4 ADD SLOAD TIMESTAMP LT PUSH2 0x8E9 JUMPI PUSH1 0x40 MLOAD PUSH32 0x8C379A000000000000000000000000000000000000000000000000000000000 DUP2 MSTORE PUSH1 0x4 ADD PUSH2 0x8E0 SWAP1 PUSH2 0x2F3F JUMP JUMPDEST PUSH1 0x40 MLOAD DUP1 SWAP2 SUB SWAP1 REVERT JUMPDEST PUSH1 0x0 PUSH20 0xFFFFFFFFFFFFFFFFFFFFFFFFFFFFFFFFFFFFFFFF AND PUSH1 0x1 DUP4 DUP4 PUSH1 0x40 MLOAD PUSH2 0x913 SWAP3 SWAP2 SWAP1 PUSH2 0x2BF3 JUMP JUMPDEST SWAP1 DUP2 MSTORE PUSH1 0x20 ADD PUSH1 0x40 MLOAD DUP1 SWAP2 SUB SWAP1 KECCAK256 PUSH1 0x0 CALLER PUSH20 0xFFFFFFFFFFFFFFFFFFFFFFFFFFFFFFFFFFFFFFFF AND PUSH20 0xFFFFFFFFFFFFFFFFFFFFFFFFFFFFFFFFFFFFFFFF AND DUP2 MSTORE PUSH1 0x20 ADD SWAP1 DUP2 MSTORE PUSH1 0x20 ADD PUSH1 0x0 KECCAK256 PUSH1 0x0 ADD PUSH1 0x2 SWAP1 SLOAD SWAP1 PUSH2 0x100 EXP SWAP1 DIV PUSH20 0xFFFFFFFFFFFFFFFFFFFFFFFFFFFFFFFFFFFFFFFF AND PUSH20 0xFFFFFFFFFFFFFFFFFFFFFFFFFFFFFFFFFFFFFFFF AND EQ ISZERO PUSH2 0x9D9 JUMPI PUSH1 0x40 MLOAD PUSH32 0x8C379A000000000000000000000000000000000000000000000000000000000 DUP2 MSTORE PUSH1 0x4 ADD PUSH2 0x9D0 SWAP1 PUSH2 0x2EBF JUMP JUMPDEST PUSH1 0x40 MLOAD DUP1 SWAP2 SUB SWAP1 REVERT JUMPDEST PUSH1 0x1 DUP3 DUP3 PUSH1 0x40 MLOAD PUSH2 0x9EB SWAP3 SWAP2 SWAP1 PUSH2 0x2BF3 JUMP JUMPDEST SWAP1 DUP2 MSTORE PUSH1 0x20 ADD PUSH1 0x40 MLOAD DUP1 SWAP2 SUB SWAP1 KECCAK256 PUSH1 0x0 CALLER PUSH20 0xFFFFFFFFFFFFFFFFFFFFFFFFFFFFFFFFFFFFFFFF AND PUSH20 0xFFFFFFFFFFFFFFFFFFFFFFFFFFFFFFFFFFFFFFFF AND DUP2 MSTORE PUSH1 0x20 ADD SWAP1 DUP2 MSTORE PUSH1 0x20 ADD PUSH1 0x0 KECCAK256 PUSH1 0x0 ADD PUSH1 0x0 SWAP1 SLOAD SWAP1 PUSH2 0x100 EXP SWAP1 DIV PUSH1 0xFF AND ISZERO PUSH2 0xA87 JUMPI PUSH1 0x40 MLOAD PUSH32 0x8C379A000000000000000000000000000000000000000000000000000000000 DUP2 MSTORE PUSH1 0x4 ADD PUSH2 0xA7E SWAP1 PUSH2 0x2E7F JUMP JUMPDEST PUSH1 0x40 MLOAD DUP1 SWAP2 SUB SWAP1 REVERT JUMPDEST PUSH1 0x40 MLOAD DUP1 PUSH1 0x40 ADD PUSH1 0x40 MSTORE DUP1 PUSH1 0x9 DUP2 MSTORE PUSH1 0x20 ADD PUSH32 0x6920617070726F76650000000000000000000000000000000000000000000000 DUP2 MSTORE POP DUP1 MLOAD SWAP1 PUSH1 0x20 ADD KECCAK256 DUP4 DUP1 MLOAD SWAP1 PUSH1 0x20 ADD KECCAK256 EQ ISZERO PUSH2 0xDA2 JUMPI PUSH1 0x1 DUP1 DUP4 DUP4 PUSH1 0x40 MLOAD PUSH2 0xAE5 SWAP3 SWAP2 SWAP1 PUSH2 0x2BF3 JUMP JUMPDEST SWAP1 DUP2 MSTORE PUSH1 0x20 ADD PUSH1 0x40 MLOAD DUP1 SWAP2 SUB SWAP1 KECCAK256 PUSH1 0x0 CALLER PUSH20 0xFFFFFFFFFFFFFFFFFFFFFFFFFFFFFFFFFFFFFFFF AND PUSH20 0xFFFFFFFFFFFFFFFFFFFFFFFFFFFFFFFFFFFFFFFF AND DUP2 MSTORE PUSH1 0x20 ADD SWAP1 DUP2 MSTORE PUSH1 0x20 ADD PUSH1 0x0 KECCAK256 PUSH1 0x0 ADD PUSH1 0x0 PUSH2 0x100 EXP DUP2 SLOAD DUP2 PUSH1 0xFF MUL NOT AND SWAP1 DUP4 ISZERO ISZERO MUL OR SWAP1 SSTORE POP PUSH1 0x1 DUP1 DUP4 DUP4 PUSH1 0x40 MLOAD PUSH2 0xB5D SWAP3 SWAP2 SWAP1 PUSH2 0x2BF3 JUMP JUMPDEST SWAP1 DUP2 MSTORE PUSH1 0x20 ADD PUSH1 0x40 MLOAD DUP1 SWAP2 SUB SWAP1 KECCAK256 PUSH1 0x0 CALLER PUSH20 0xFFFFFFFFFFFFFFFFFFFFFFFFFFFFFFFFFFFFFFFF AND PUSH20 0xFFFFFFFFFFFFFFFFFFFFFFFFFFFFFFFFFFFFFFFF AND DUP2 MSTORE PUSH1 0x20 ADD SWAP1 DUP2 MSTORE PUSH1 0x20 ADD PUSH1 0x0 KECCAK256 PUSH1 0x0 ADD PUSH1 0x1 PUSH2 0x100 EXP DUP2 SLOAD DUP2 PUSH1 0xFF MUL NOT AND SWAP1 DUP4 ISZERO ISZERO MUL OR SWAP1 SSTORE POP PUSH1 0x1 PUSH1 0x0 DUP4 DUP4 PUSH1 0x40 MLOAD PUSH2 0xBD6 SWAP3 SWAP2 SWAP1 PUSH2 0x2BF3 JUMP JUMPDEST SWAP1 DUP2 MSTORE PUSH1 0x20 ADD PUSH1 0x40 MLOAD DUP1 SWAP2 SUB SWAP1 KECCAK256 PUSH1 0x6 ADD PUSH1 0x0 DUP3 DUP3 SLOAD PUSH2 0xBF6 SWAP2 SWAP1 PUSH2 0x3035 JUMP JUMPDEST SWAP3 POP POP DUP2 SWAP1 SSTORE POP PUSH1 0x1 PUSH1 0x0 DUP4 DUP4 PUSH1 0x40 MLOAD PUSH2 0xC11 SWAP3 SWAP2 SWAP1 PUSH2 0x2BF3 JUMP JUMPDEST SWAP1 DUP2 MSTORE PUSH1 0x20 ADD PUSH1 0x40 MLOAD DUP1 SWAP2 SUB SWAP1 KECCAK256 PUSH1 0x3 ADD PUSH1 0x0 DUP3 DUP3 SLOAD PUSH2 0xC31 SWAP2 SWAP1 PUSH2 0x3035 JUMP JUMPDEST SWAP3 POP POP DUP2 SWAP1 SSTORE POP PUSH1 0x2 DUP3 DUP3 PUSH1 0x40 MLOAD PUSH2 0xC4A SWAP3 SWAP2 SWAP1 PUSH2 0x2BF3 JUMP JUMPDEST SWAP1 DUP2 MSTORE PUSH1 0x20 ADD PUSH1 0x40 MLOAD DUP1 SWAP2 SUB SWAP1 KECCAK256 PUSH1 0x1 DUP4 DUP4 PUSH1 0x40 MLOAD PUSH2 0xC6A SWAP3 SWAP2 SWAP1 PUSH2 0x2BF3 JUMP JUMPDEST SWAP1 DUP2 MSTORE PUSH1 0x20 ADD PUSH1 0x40 MLOAD DUP1 SWAP2 SUB SWAP1 KECCAK256 PUSH1 0x0 CALLER PUSH20 0xFFFFFFFFFFFFFFFFFFFFFFFFFFFFFFFFFFFFFFFF AND PUSH20 0xFFFFFFFFFFFFFFFFFFFFFFFFFFFFFFFFFFFFFFFF AND DUP2 MSTORE PUSH1 0x20 ADD SWAP1 DUP2 MSTORE PUSH1 0x20 ADD PUSH1 0x0 KECCAK256 SWAP1 DUP1 PUSH1 0x1 DUP2 SLOAD ADD DUP1 DUP3 SSTORE DUP1 SWAP2 POP POP PUSH1 0x1 SWAP1 SUB SWAP1 PUSH1 0x0 MSTORE PUSH1 0x20 PUSH1 0x0 KECCAK256 ADD PUSH1 0x0 SWAP1 SWAP2 SWAP1 SWAP2 SWAP1 SWAP2 POP PUSH1 0x0 DUP3 ADD PUSH1 0x0 SWAP1 SLOAD SWAP1 PUSH2 0x100 EXP SWAP1 DIV PUSH1 0xFF AND DUP2 PUSH1 0x0 ADD PUSH1 0x0 PUSH2 0x100 EXP DUP2 SLOAD DUP2 PUSH1 0xFF MUL NOT AND SWAP1 DUP4 ISZERO ISZERO MUL OR SWAP1 SSTORE POP PUSH1 0x0 DUP3 ADD PUSH1 0x1 SWAP1 SLOAD SWAP1 PUSH2 0x100 EXP SWAP1 DIV PUSH1 0xFF AND DUP2 PUSH1 0x0 ADD PUSH1 0x1 PUSH2 0x100 EXP DUP2 SLOAD DUP2 PUSH1 0xFF MUL NOT AND SWAP1 DUP4 ISZERO ISZERO MUL OR SWAP1 SSTORE POP PUSH1 0x0 DUP3 ADD PUSH1 0x2 SWAP1 SLOAD SWAP1 PUSH2 0x100 EXP SWAP1 DIV PUSH20 0xFFFFFFFFFFFFFFFFFFFFFFFFFFFFFFFFFFFFFFFF AND DUP2 PUSH1 0x0 ADD PUSH1 0x2 PUSH2 0x100 EXP DUP2 SLOAD DUP2 PUSH20 0xFFFFFFFFFFFFFFFFFFFFFFFFFFFFFFFFFFFFFFFF MUL NOT AND SWAP1 DUP4 PUSH20 0xFFFFFFFFFFFFFFFFFFFFFFFFFFFFFFFFFFFFFFFF AND MUL OR SWAP1 SSTORE POP POP POP PUSH2 0x1224 JUMP JUMPDEST PUSH1 0x40 MLOAD DUP1 PUSH1 0x40 ADD PUSH1 0x40 MSTORE DUP1 PUSH1 0xC DUP2 MSTORE PUSH1 0x20 ADD PUSH32 0x6920646973617070726F76650000000000000000000000000000000000000000 DUP2 MSTORE POP DUP1 MLOAD SWAP1 PUSH1 0x20 ADD KECCAK256 DUP4 DUP1 MLOAD SWAP1 PUSH1 0x20 ADD KECCAK256 EQ ISZERO PUSH2 0x100A JUMPI PUSH1 0x1 DUP1 DUP4 DUP4 PUSH1 0x40 MLOAD PUSH2 0xE00 SWAP3 SWAP2 SWAP1 PUSH2 0x2BF3 JUMP JUMPDEST SWAP1 DUP2 MSTORE PUSH1 0x20 ADD PUSH1 0x40 MLOAD DUP1 SWAP2 SUB SWAP1 KECCAK256 PUSH1 0x0 CALLER PUSH20 0xFFFFFFFFFFFFFFFFFFFFFFFFFFFFFFFFFFFFFFFF AND PUSH20 0xFFFFFFFFFFFFFFFFFFFFFFFFFFFFFFFFFFFFFFFF AND DUP2 MSTORE PUSH1 0x20 ADD SWAP1 DUP2 MSTORE PUSH1 0x20 ADD PUSH1 0x0 KECCAK256 PUSH1 0x0 ADD PUSH1 0x0 PUSH2 0x100 EXP DUP2 SLOAD DUP2 PUSH1 0xFF MUL NOT AND SWAP1 DUP4 ISZERO ISZERO MUL OR SWAP1 SSTORE POP PUSH1 0x1 PUSH1 0x0 DUP4 DUP4 PUSH1 0x40 MLOAD PUSH2 0xE79 SWAP3 SWAP2 SWAP1 PUSH2 0x2BF3 JUMP JUMPDEST SWAP1 DUP2 MSTORE PUSH1 0x20 ADD PUSH1 0x40 MLOAD DUP1 SWAP2 SUB SWAP1 KECCAK256 PUSH1 0x3 ADD PUSH1 0x0 DUP3 DUP3 SLOAD PUSH2 0xE99 SWAP2 SWAP1 PUSH2 0x3035 JUMP JUMPDEST SWAP3 POP POP DUP2 SWAP1 SSTORE POP PUSH1 0x2 DUP3 DUP3 PUSH1 0x40 MLOAD PUSH2 0xEB2 SWAP3 SWAP2 SWAP1 PUSH2 0x2BF3 JUMP JUMPDEST SWAP1 DUP2 MSTORE PUSH1 0x20 ADD PUSH1 0x40 MLOAD DUP1 SWAP2 SUB SWAP1 KECCAK256 PUSH1 0x1 DUP4 DUP4 PUSH1 0x40 MLOAD PUSH2 0xED2 SWAP3 SWAP2 SWAP1 PUSH2 0x2BF3 JUMP JUMPDEST SWAP1 DUP2 MSTORE PUSH1 0x20 ADD PUSH1 0x40 MLOAD DUP1 SWAP2 SUB SWAP1 KECCAK256 PUSH1 0x0 CALLER PUSH20 0xFFFFFFFFFFFFFFFFFFFFFFFFFFFFFFFFFFFFFFFF AND PUSH20 0xFFFFFFFFFFFFFFFFFFFFFFFFFFFFFFFFFFFFFFFF AND DUP2 MSTORE PUSH1 0x20 ADD SWAP1 DUP2 MSTORE PUSH1 0x20 ADD PUSH1 0x0 KECCAK256 SWAP1 DUP1 PUSH1 0x1 DUP2 SLOAD ADD DUP1 DUP3 SSTORE DUP1 SWAP2 POP POP PUSH1 0x1 SWAP1 SUB SWAP1 PUSH1 0x0 MSTORE PUSH1 0x20 PUSH1 0x0 KECCAK256 ADD PUSH1 0x0 SWAP1 SWAP2 SWAP1 SWAP2 SWAP1 SWAP2 POP PUSH1 0x0 DUP3 ADD PUSH1 0x0 SWAP1 SLOAD SWAP1 PUSH2 0x100 EXP SWAP1 DIV PUSH1 0xFF AND DUP2 PUSH1 0x0 ADD PUSH1 0x0 PUSH2 0x100 EXP DUP2 SLOAD DUP2 PUSH1 0xFF MUL NOT AND SWAP1 DUP4 ISZERO ISZERO MUL OR SWAP1 SSTORE POP PUSH1 0x0 DUP3 ADD PUSH1 0x1 SWAP1 SLOAD SWAP1 PUSH2 0x100 EXP SWAP1 DIV PUSH1 0xFF AND DUP2 PUSH1 0x0 ADD PUSH1 0x1 PUSH2 0x100 EXP DUP2 SLOAD DUP2 PUSH1 0xFF MUL NOT AND SWAP1 DUP4 ISZERO ISZERO MUL OR SWAP1 SSTORE POP PUSH1 0x0 DUP3 ADD PUSH1 0x2 SWAP1 SLOAD SWAP1 PUSH2 0x100 EXP SWAP1 DIV PUSH20 0xFFFFFFFFFFFFFFFFFFFFFFFFFFFFFFFFFFFFFFFF AND DUP2 PUSH1 0x0 ADD PUSH1 0x2 PUSH2 0x100 EXP DUP2 SLOAD DUP2 PUSH20 0xFFFFFFFFFFFFFFFFFFFFFFFFFFFFFFFFFFFFFFFF MUL NOT AND SWAP1 DUP4 PUSH20 0xFFFFFFFFFFFFFFFFFFFFFFFFFFFFFFFFFFFFFFFF AND MUL OR SWAP1 SSTORE POP POP POP PUSH2 0x1223 JUMP JUMPDEST PUSH1 0x1 DUP1 DUP4 DUP4 PUSH1 0x40 MLOAD PUSH2 0x101D SWAP3 SWAP2 SWAP1 PUSH2 0x2BF3 JUMP JUMPDEST SWAP1 DUP2 MSTORE PUSH1 0x20 ADD PUSH1 0x40 MLOAD DUP1 SWAP2 SUB SWAP1 KECCAK256 PUSH1 0x0 CALLER PUSH20 0xFFFFFFFFFFFFFFFFFFFFFFFFFFFFFFFFFFFFFFFF AND PUSH20 0xFFFFFFFFFFFFFFFFFFFFFFFFFFFFFFFFFFFFFFFF AND DUP2 MSTORE PUSH1 0x20 ADD SWAP1 DUP2 MSTORE PUSH1 0x20 ADD PUSH1 0x0 KECCAK256 PUSH1 0x0 ADD PUSH1 0x0 PUSH2 0x100 EXP DUP2 SLOAD DUP2 PUSH1 0xFF MUL NOT AND SWAP1 DUP4 ISZERO ISZERO MUL OR SWAP1 SSTORE POP PUSH1 0x1 PUSH1 0x0 DUP4 DUP4 PUSH1 0x40 MLOAD PUSH2 0x1096 SWAP3 SWAP2 SWAP1 PUSH2 0x2BF3 JUMP JUMPDEST SWAP1 DUP2 MSTORE PUSH1 0x20 ADD PUSH1 0x40 MLOAD DUP1 SWAP2 SUB SWAP1 KECCAK256 PUSH1 0x3 ADD PUSH1 0x0 DUP3 DUP3 SLOAD PUSH2 0x10B6 SWAP2 SWAP1 PUSH2 0x3035 JUMP JUMPDEST SWAP3 POP POP DUP2 SWAP1 SSTORE POP PUSH1 0x2 DUP3 DUP3 PUSH1 0x40 MLOAD PUSH2 0x10CF SWAP3 SWAP2 SWAP1 PUSH2 0x2BF3 JUMP JUMPDEST SWAP1 DUP2 MSTORE PUSH1 0x20 ADD PUSH1 0x40 MLOAD DUP1 SWAP2 SUB SWAP1 KECCAK256 PUSH1 0x1 DUP4 DUP4 PUSH1 0x40 MLOAD PUSH2 0x10EF SWAP3 SWAP2 SWAP1 PUSH2 0x2BF3 JUMP JUMPDEST SWAP1 DUP2 MSTORE PUSH1 0x20 ADD PUSH1 0x40 MLOAD DUP1 SWAP2 SUB SWAP1 KECCAK256 PUSH1 0x0 CALLER PUSH20 0xFFFFFFFFFFFFFFFFFFFFFFFFFFFFFFFFFFFFFFFF AND PUSH20 0xFFFFFFFFFFFFFFFFFFFFFFFFFFFFFFFFFFFFFFFF AND DUP2 MSTORE PUSH1 0x20 ADD SWAP1 DUP2 MSTORE PUSH1 0x20 ADD PUSH1 0x0 KECCAK256 SWAP1 DUP1 PUSH1 0x1 DUP2 SLOAD ADD DUP1 DUP3 SSTORE DUP1 SWAP2 POP POP PUSH1 0x1 SWAP1 SUB SWAP1 PUSH1 0x0 MSTORE PUSH1 0x20 PUSH1 0x0 KECCAK256 ADD PUSH1 0x0 SWAP1 SWAP2 SWAP1 SWAP2 SWAP1 SWAP2 POP PUSH1 0x0 DUP3 ADD PUSH1 0x0 SWAP1 SLOAD SWAP1 PUSH2 0x100 EXP SWAP1 DIV PUSH1 0xFF AND DUP2 PUSH1 0x0 ADD PUSH1 0x0 PUSH2 0x100 EXP DUP2 SLOAD DUP2 PUSH1 0xFF MUL NOT AND SWAP1 DUP4 ISZERO ISZERO MUL OR SWAP1 SSTORE POP PUSH1 0x0 DUP3 ADD PUSH1 0x1 SWAP1 SLOAD SWAP1 PUSH2 0x100 EXP SWAP1 DIV PUSH1 0xFF AND DUP2 PUSH1 0x0 ADD PUSH1 0x1 PUSH2 0x100 EXP DUP2 SLOAD DUP2 PUSH1 0xFF MUL NOT AND SWAP1 DUP4 ISZERO ISZERO MUL OR SWAP1 SSTORE POP PUSH1 0x0 DUP3 ADD PUSH1 0x2 SWAP1 SLOAD SWAP1 PUSH2 0x100 EXP SWAP1 DIV PUSH20 0xFFFFFFFFFFFFFFFFFFFFFFFFFFFFFFFFFFFFFFFF AND DUP2 PUSH1 0x0 ADD PUSH1 0x2 PUSH2 0x100 EXP DUP2 SLOAD DUP2 PUSH20 0xFFFFFFFFFFFFFFFFFFFFFFFFFFFFFFFFFFFFFFFF MUL NOT AND SWAP1 DUP4 PUSH20 0xFFFFFFFFFFFFFFFFFFFFFFFFFFFFFFFFFFFFFFFF AND MUL OR SWAP1 SSTORE POP POP POP JUMPDEST JUMPDEST POP POP POP JUMP JUMPDEST PUSH1 0x1 DUP3 DUP1 MLOAD PUSH1 0x20 DUP2 ADD DUP3 ADD DUP1 MLOAD DUP5 DUP3 MSTORE PUSH1 0x20 DUP4 ADD PUSH1 0x20 DUP6 ADD KECCAK256 DUP2 DUP4 MSTORE DUP1 SWAP6 POP POP POP POP POP POP PUSH1 0x20 MSTORE DUP1 PUSH1 0x0 MSTORE PUSH1 0x40 PUSH1 0x0 KECCAK256 PUSH1 0x0 SWAP2 POP SWAP2 POP POP DUP1 PUSH1 0x0 ADD PUSH1 0x0 SWAP1 SLOAD SWAP1 PUSH2 0x100 EXP SWAP1 DIV PUSH1 0xFF AND SWAP1 DUP1 PUSH1 0x0 ADD PUSH1 0x1 SWAP1 SLOAD SWAP1 PUSH2 0x100 EXP SWAP1 DIV PUSH1 0xFF AND SWAP1 DUP1 PUSH1 0x0 ADD PUSH1 0x2 SWAP1 SLOAD SWAP1 PUSH2 0x100 EXP SWAP1 DIV PUSH20 0xFFFFFFFFFFFFFFFFFFFFFFFFFFFFFFFFFFFFFFFF AND SWAP1 POP DUP4 JUMP JUMPDEST PUSH1 0x0 PUSH1 0x60 PUSH1 0x0 PUSH1 0x60 PUSH1 0x0 DUP7 DUP7 PUSH1 0x40 MLOAD PUSH2 0x12CA SWAP3 SWAP2 SWAP1 PUSH2 0x2BF3 JUMP JUMPDEST SWAP1 DUP2 MSTORE PUSH1 0x20 ADD PUSH1 0x40 MLOAD DUP1 SWAP2 SUB SWAP1 KECCAK256 PUSH1 0x4 ADD SLOAD TIMESTAMP LT ISZERO PUSH2 0x131E JUMPI PUSH1 0x40 MLOAD PUSH32 0x8C379A000000000000000000000000000000000000000000000000000000000 DUP2 MSTORE PUSH1 0x4 ADD PUSH2 0x1315 SWAP1 PUSH2 0x2F1F JUMP JUMPDEST PUSH1 0x40 MLOAD DUP1 SWAP2 SUB SWAP1 REVERT JUMPDEST PUSH1 0x0 PUSH1 0x2 DUP8 DUP8 PUSH1 0x40 MLOAD PUSH2 0x1332 SWAP3 SWAP2 SWAP1 PUSH2 0x2BF3 JUMP JUMPDEST SWAP1 DUP2 MSTORE PUSH1 0x20 ADD PUSH1 0x40 MLOAD DUP1 SWAP2 SUB SWAP1 KECCAK256 DUP1 SLOAD DUP1 PUSH1 0x20 MUL PUSH1 0x20 ADD PUSH1 0x40 MLOAD SWAP1 DUP2 ADD PUSH1 0x40 MSTORE DUP1 SWAP3 SWAP2 SWAP1 DUP2 DUP2 MSTORE PUSH1 0x20 ADD PUSH1 0x0 SWAP1 JUMPDEST DUP3 DUP3 LT ISZERO PUSH2 0x141A JUMPI DUP4 DUP3 SWAP1 PUSH1 0x0 MSTORE PUSH1 0x20 PUSH1 0x0 KECCAK256 ADD PUSH1 0x40 MLOAD DUP1 PUSH1 0x60 ADD PUSH1 0x40 MSTORE SWAP1 DUP2 PUSH1 0x0 DUP3 ADD PUSH1 0x0 SWAP1 SLOAD SWAP1 PUSH2 0x100 EXP SWAP1 DIV PUSH1 0xFF AND ISZERO ISZERO ISZERO ISZERO DUP2 MSTORE PUSH1 0x20 ADD PUSH1 0x0 DUP3 ADD PUSH1 0x1 SWAP1 SLOAD SWAP1 PUSH2 0x100 EXP SWAP1 DIV PUSH1 0xFF AND ISZERO ISZERO ISZERO ISZERO DUP2 MSTORE PUSH1 0x20 ADD PUSH1 0x0 DUP3 ADD PUSH1 0x2 SWAP1 SLOAD SWAP1 PUSH2 0x100 EXP SWAP1 DIV PUSH20 0xFFFFFFFFFFFFFFFFFFFFFFFFFFFFFFFFFFFFFFFF AND PUSH20 0xFFFFFFFFFFFFFFFFFFFFFFFFFFFFFFFFFFFFFFFF AND PUSH20 0xFFFFFFFFFFFFFFFFFFFFFFFFFFFFFFFFFFFFFFFF AND DUP2 MSTORE POP POP DUP2 MSTORE PUSH1 0x20 ADD SWAP1 PUSH1 0x1 ADD SWAP1 PUSH2 0x1360 JUMP JUMPDEST POP POP POP POP SWAP1 POP PUSH1 0x0 DUP1 DUP9 DUP9 PUSH1 0x40 MLOAD PUSH2 0x1433 SWAP3 SWAP2 SWAP1 PUSH2 0x2BF3 JUMP JUMPDEST SWAP1 DUP2 MSTORE PUSH1 0x20 ADD PUSH1 0x40 MLOAD DUP1 SWAP2 SUB SWAP1 KECCAK256 PUSH1 0x0 ADD DUP1 SLOAD PUSH2 0x144F SWAP1 PUSH2 0x31B7 JUMP JUMPDEST DUP1 PUSH1 0x1F ADD PUSH1 0x20 DUP1 SWAP2 DIV MUL PUSH1 0x20 ADD PUSH1 0x40 MLOAD SWAP1 DUP2 ADD PUSH1 0x40 MSTORE DUP1 SWAP3 SWAP2 SWAP1 DUP2 DUP2 MSTORE PUSH1 0x20 ADD DUP3 DUP1 SLOAD PUSH2 0x147B SWAP1 PUSH2 0x31B7 JUMP JUMPDEST DUP1 ISZERO PUSH2 0x14C8 JUMPI DUP1 PUSH1 0x1F LT PUSH2 0x149D JUMPI PUSH2 0x100 DUP1 DUP4 SLOAD DIV MUL DUP4 MSTORE SWAP2 PUSH1 0x20 ADD SWAP2 PUSH2 0x14C8 JUMP JUMPDEST DUP3 ADD SWAP2 SWAP1 PUSH1 0x0 MSTORE PUSH1 0x20 PUSH1 0x0 KECCAK256 SWAP1 JUMPDEST DUP2 SLOAD DUP2 MSTORE SWAP1 PUSH1 0x1 ADD SWAP1 PUSH1 0x20 ADD DUP1 DUP4 GT PUSH2 0x14AB JUMPI DUP3 SWAP1 SUB PUSH1 0x1F AND DUP3 ADD SWAP2 JUMPDEST POP POP POP POP POP SWAP1 POP PUSH1 0x0 DUP1 DUP10 DUP10 PUSH1 0x40 MLOAD PUSH2 0x14E2 SWAP3 SWAP2 SWAP1 PUSH2 0x2BF3 JUMP JUMPDEST SWAP1 DUP2 MSTORE PUSH1 0x20 ADD PUSH1 0x40 MLOAD DUP1 SWAP2 SUB SWAP1 KECCAK256 PUSH1 0x8 ADD SLOAD SWAP1 POP PUSH1 0x0 DUP1 DUP11 DUP11 PUSH1 0x40 MLOAD PUSH2 0x1509 SWAP3 SWAP2 SWAP1 PUSH2 0x2BF3 JUMP JUMPDEST SWAP1 DUP2 MSTORE PUSH1 0x20 ADD PUSH1 0x40 MLOAD DUP1 SWAP2 SUB SWAP1 KECCAK256 PUSH1 0x3 ADD SLOAD SWAP1 POP DUP2 DUP4 DUP3 DUP7 SWAP8 POP SWAP8 POP SWAP8 POP SWAP8 POP POP POP POP POP SWAP3 SWAP6 SWAP2 SWAP5 POP SWAP3 POP JUMP JUMPDEST PUSH1 0x0 DUP3 DUP3 PUSH1 0x40 MLOAD PUSH2 0x1548 SWAP3 SWAP2 SWAP1 PUSH2 0x2BF3 JUMP JUMPDEST SWAP1 DUP2 MSTORE PUSH1 0x20 ADD PUSH1 0x40 MLOAD DUP1 SWAP2 SUB SWAP1 KECCAK256 PUSH1 0x1 ADD PUSH1 0x0 SWAP1 SLOAD SWAP1 PUSH2 0x100 EXP SWAP1 DIV PUSH20 0xFFFFFFFFFFFFFFFFFFFFFFFFFFFFFFFFFFFFFFFF AND PUSH20 0xFFFFFFFFFFFFFFFFFFFFFFFFFFFFFFFFFFFFFFFF AND CALLER PUSH20 0xFFFFFFFFFFFFFFFFFFFFFFFFFFFFFFFFFFFFFFFF AND EQ PUSH2 0x15E7 JUMPI PUSH1 0x40 MLOAD PUSH32 0x8C379A000000000000000000000000000000000000000000000000000000000 DUP2 MSTORE PUSH1 0x4 ADD PUSH2 0x15DE SWAP1 PUSH2 0x2EFF JUMP JUMPDEST PUSH1 0x40 MLOAD DUP1 SWAP2 SUB SWAP1 REVERT JUMPDEST PUSH1 0x0 DUP3 DUP3 PUSH1 0x40 MLOAD PUSH2 0x15F9 SWAP3 SWAP2 SWAP1 PUSH2 0x2BF3 JUMP JUMPDEST SWAP1 DUP2 MSTORE PUSH1 0x20 ADD PUSH1 0x40 MLOAD DUP1 SWAP2 SUB SWAP1 KECCAK256 PUSH1 0x1 ADD PUSH1 0x0 SWAP1 SLOAD SWAP1 PUSH2 0x100 EXP SWAP1 DIV PUSH20 0xFFFFFFFFFFFFFFFFFFFFFFFFFFFFFFFFFFFFFFFF AND PUSH20 0xFFFFFFFFFFFFFFFFFFFFFFFFFFFFFFFFFFFFFFFF AND DUP4 PUSH20 0xFFFFFFFFFFFFFFFFFFFFFFFFFFFFFFFFFFFFFFFF AND EQ ISZERO PUSH2 0x1699 JUMPI PUSH1 0x40 MLOAD PUSH32 0x8C379A000000000000000000000000000000000000000000000000000000000 DUP2 MSTORE PUSH1 0x4 ADD PUSH2 0x1690 SWAP1 PUSH2 0x2E9F JUMP JUMPDEST PUSH1 0x40 MLOAD DUP1 SWAP2 SUB SWAP1 REVERT JUMPDEST PUSH1 0x0 PUSH20 0xFFFFFFFFFFFFFFFFFFFFFFFFFFFFFFFFFFFFFFFF AND PUSH1 0x1 DUP4 DUP4 PUSH1 0x40 MLOAD PUSH2 0x16C3 SWAP3 SWAP2 SWAP1 PUSH2 0x2BF3 JUMP JUMPDEST SWAP1 DUP2 MSTORE PUSH1 0x20 ADD PUSH1 0x40 MLOAD DUP1 SWAP2 SUB SWAP1 KECCAK256 PUSH1 0x0 DUP6 PUSH20 0xFFFFFFFFFFFFFFFFFFFFFFFFFFFFFFFFFFFFFFFF AND PUSH20 0xFFFFFFFFFFFFFFFFFFFFFFFFFFFFFFFFFFFFFFFF AND DUP2 MSTORE PUSH1 0x20 ADD SWAP1 DUP2 MSTORE PUSH1 0x20 ADD PUSH1 0x0 KECCAK256 PUSH1 0x0 ADD PUSH1 0x2 SWAP1 SLOAD SWAP1 PUSH2 0x100 EXP SWAP1 DIV PUSH20 0xFFFFFFFFFFFFFFFFFFFFFFFFFFFFFFFFFFFFFFFF AND PUSH20 0xFFFFFFFFFFFFFFFFFFFFFFFFFFFFFFFFFFFFFFFF AND EQ PUSH2 0x1788 JUMPI PUSH1 0x40 MLOAD PUSH32 0x8C379A000000000000000000000000000000000000000000000000000000000 DUP2 MSTORE PUSH1 0x4 ADD PUSH2 0x177F SWAP1 PUSH2 0x2E1F JUMP JUMPDEST PUSH1 0x40 MLOAD DUP1 SWAP2 SUB SWAP1 REVERT JUMPDEST PUSH1 0x0 DUP3 DUP3 PUSH1 0x40 MLOAD PUSH2 0x179A SWAP3 SWAP2 SWAP1 PUSH2 0x2BF3 JUMP JUMPDEST SWAP1 DUP2 MSTORE PUSH1 0x20 ADD PUSH1 0x40 MLOAD DUP1 SWAP2 SUB SWAP1 KECCAK256 PUSH1 0x4 ADD SLOAD TIMESTAMP LT PUSH2 0x17ED JUMPI PUSH1 0x40 MLOAD PUSH32 0x8C379A000000000000000000000000000000000000000000000000000000000 DUP2 MSTORE PUSH1 0x4 ADD PUSH2 0x17E4 SWAP1 PUSH2 0x2EDF JUMP JUMPDEST PUSH1 0x40 MLOAD DUP1 SWAP2 SUB SWAP1 REVERT JUMPDEST PUSH1 0x0 PUSH1 0x40 MLOAD DUP1 PUSH1 0x60 ADD PUSH1 0x40 MSTORE DUP1 PUSH1 0x0 ISZERO ISZERO DUP2 MSTORE PUSH1 0x20 ADD PUSH1 0x0 ISZERO ISZERO DUP2 MSTORE PUSH1 0x20 ADD DUP6 PUSH20 0xFFFFFFFFFFFFFFFFFFFFFFFFFFFFFFFFFFFFFFFF AND DUP2 MSTORE POP SWAP1 POP DUP1 PUSH1 0x1 DUP5 DUP5 PUSH1 0x40 MLOAD PUSH2 0x183B SWAP3 SWAP2 SWAP1 PUSH2 0x2BF3 JUMP JUMPDEST SWAP1 DUP2 MSTORE PUSH1 0x20 ADD PUSH1 0x40 MLOAD DUP1 SWAP2 SUB SWAP1 KECCAK256 PUSH1 0x0 DUP7 PUSH20 0xFFFFFFFFFFFFFFFFFFFFFFFFFFFFFFFFFFFFFFFF AND PUSH20 0xFFFFFFFFFFFFFFFFFFFFFFFFFFFFFFFFFFFFFFFF AND DUP2 MSTORE PUSH1 0x20 ADD SWAP1 DUP2 MSTORE PUSH1 0x20 ADD PUSH1 0x0 KECCAK256 PUSH1 0x0 DUP3 ADD MLOAD DUP2 PUSH1 0x0 ADD PUSH1 0x0 PUSH2 0x100 EXP DUP2 SLOAD DUP2 PUSH1 0xFF MUL NOT AND SWAP1 DUP4 ISZERO ISZERO MUL OR SWAP1 SSTORE POP PUSH1 0x20 DUP3 ADD MLOAD DUP2 PUSH1 0x0 ADD PUSH1 0x1 PUSH2 0x100 EXP DUP2 SLOAD DUP2 PUSH1 0xFF MUL NOT AND SWAP1 DUP4 ISZERO ISZERO MUL OR SWAP1 SSTORE POP PUSH1 0x40 DUP3 ADD MLOAD DUP2 PUSH1 0x0 ADD PUSH1 0x2 PUSH2 0x100 EXP DUP2 SLOAD DUP2 PUSH20 0xFFFFFFFFFFFFFFFFFFFFFFFFFFFFFFFFFFFFFFFF MUL NOT AND SWAP1 DUP4 PUSH20 0xFFFFFFFFFFFFFFFFFFFFFFFFFFFFFFFFFFFFFFFF AND MUL OR SWAP1 SSTORE POP SWAP1 POP POP PUSH1 0x3 DUP4 DUP4 PUSH1 0x40 MLOAD PUSH2 0x1922 SWAP3 SWAP2 SWAP1 PUSH2 0x2BF3 JUMP JUMPDEST SWAP1 DUP2 MSTORE PUSH1 0x20 ADD PUSH1 0x40 MLOAD DUP1 SWAP2 SUB SWAP1 KECCAK256 DUP5 SWAP1 DUP1 PUSH1 0x1 DUP2 SLOAD ADD DUP1 DUP3 SSTORE DUP1 SWAP2 POP POP PUSH1 0x1 SWAP1 SUB SWAP1 PUSH1 0x0 MSTORE PUSH1 0x20 PUSH1 0x0 KECCAK256 ADD PUSH1 0x0 SWAP1 SWAP2 SWAP1 SWAP2 SWAP1 SWAP2 PUSH2 0x100 EXP DUP2 SLOAD DUP2 PUSH20 0xFFFFFFFFFFFFFFFFFFFFFFFFFFFFFFFFFFFFFFFF MUL NOT AND SWAP1 DUP4 PUSH20 0xFFFFFFFFFFFFFFFFFFFFFFFFFFFFFFFFFFFFFFFF AND MUL OR SWAP1 SSTORE POP POP POP POP POP JUMP JUMPDEST PUSH1 0x60 PUSH1 0x0 DUP1 PUSH1 0x0 DUP1 PUSH1 0x0 DUP8 DUP8 PUSH1 0x40 MLOAD PUSH2 0x19B1 SWAP3 SWAP2 SWAP1 PUSH2 0x2BF3 JUMP JUMPDEST SWAP1 DUP2 MSTORE PUSH1 0x20 ADD PUSH1 0x40 MLOAD DUP1 SWAP2 SUB SWAP1 KECCAK256 PUSH1 0x0 ADD PUSH1 0x0 DUP9 DUP9 PUSH1 0x40 MLOAD PUSH2 0x19D4 SWAP3 SWAP2 SWAP1 PUSH2 0x2BF3 JUMP JUMPDEST SWAP1 DUP2 MSTORE PUSH1 0x20 ADD PUSH1 0x40 MLOAD DUP1 SWAP2 SUB SWAP1 KECCAK256 PUSH1 0x4 ADD SLOAD PUSH1 0x0 DUP10 DUP10 PUSH1 0x40 MLOAD PUSH2 0x19F8 SWAP3 SWAP2 SWAP1 PUSH2 0x2BF3 JUMP JUMPDEST SWAP1 DUP2 MSTORE PUSH1 0x20 ADD PUSH1 0x40 MLOAD DUP1 SWAP2 SUB SWAP1 KECCAK256 PUSH1 0x1 ADD PUSH1 0x0 SWAP1 SLOAD SWAP1 PUSH2 0x100 EXP SWAP1 DIV PUSH20 0xFFFFFFFFFFFFFFFFFFFFFFFFFFFFFFFFFFFFFFFF AND PUSH1 0x0 DUP11 DUP11 PUSH1 0x40 MLOAD PUSH2 0x1A3C SWAP3 SWAP2 SWAP1 PUSH2 0x2BF3 JUMP JUMPDEST SWAP1 DUP2 MSTORE PUSH1 0x20 ADD PUSH1 0x40 MLOAD DUP1 SWAP2 SUB SWAP1 KECCAK256 PUSH1 0x5 ADD SLOAD PUSH1 0x0 DUP12 DUP12 PUSH1 0x40 MLOAD PUSH2 0x1A60 SWAP3 SWAP2 SWAP1 PUSH2 0x2BF3 JUMP JUMPDEST SWAP1 DUP2 MSTORE PUSH1 0x20 ADD PUSH1 0x40 MLOAD DUP1 SWAP2 SUB SWAP1 KECCAK256 PUSH1 0x6 ADD SLOAD DUP5 DUP1 SLOAD PUSH2 0x1A7E SWAP1 PUSH2 0x31B7 JUMP JUMPDEST DUP1 PUSH1 0x1F ADD PUSH1 0x20 DUP1 SWAP2 DIV MUL PUSH1 0x20 ADD PUSH1 0x40 MLOAD SWAP1 DUP2 ADD PUSH1 0x40 MSTORE DUP1 SWAP3 SWAP2 SWAP1 DUP2 DUP2 MSTORE PUSH1 0x20 ADD DUP3 DUP1 SLOAD PUSH2 0x1AAA SWAP1 PUSH2 0x31B7 JUMP JUMPDEST DUP1 ISZERO PUSH2 0x1AF7 JUMPI DUP1 PUSH1 0x1F LT PUSH2 0x1ACC JUMPI PUSH2 0x100 DUP1 DUP4 SLOAD DIV MUL DUP4 MSTORE SWAP2 PUSH1 0x20 ADD SWAP2 PUSH2 0x1AF7 JUMP JUMPDEST DUP3 ADD SWAP2 SWAP1 PUSH1 0x0 MSTORE PUSH1 0x20 PUSH1 0x0 KECCAK256 SWAP1 JUMPDEST DUP2 SLOAD DUP2 MSTORE SWAP1 PUSH1 0x1 ADD SWAP1 PUSH1 0x20 ADD DUP1 DUP4 GT PUSH2 0x1ADA JUMPI DUP3 SWAP1 SUB PUSH1 0x1F AND DUP3 ADD SWAP2 JUMPDEST POP POP POP POP POP SWAP5 POP SWAP5 POP SWAP5 POP SWAP5 POP SWAP5 POP SWAP5 POP SWAP3 SWAP6 POP SWAP3 SWAP6 SWAP1 SWAP4 POP JUMP JUMPDEST PUSH1 0x0 DUP1 PUSH1 0x0 PUSH1 0x1 DUP6 DUP6 PUSH1 0x40 MLOAD PUSH2 0x1B29 SWAP3 SWAP2 SWAP1 PUSH2 0x2BF3 JUMP JUMPDEST SWAP1 DUP2 MSTORE PUSH1 0x20 ADD PUSH1 0x40 MLOAD DUP1 SWAP2 SUB SWAP1 KECCAK256 PUSH1 0x0 DUP8 PUSH20 0xFFFFFFFFFFFFFFFFFFFFFFFFFFFFFFFFFFFFFFFF AND PUSH20 0xFFFFFFFFFFFFFFFFFFFFFFFFFFFFFFFFFFFFFFFF AND DUP2 MSTORE PUSH1 0x20 ADD SWAP1 DUP2 MSTORE PUSH1 0x20 ADD PUSH1 0x0 KECCAK256 PUSH1 0x0 ADD PUSH1 0x1 SWAP1 SLOAD SWAP1 PUSH2 0x100 EXP SWAP1 DIV PUSH1 0xFF AND PUSH1 0x1 DUP7 DUP7 PUSH1 0x40 MLOAD PUSH2 0x1B97 SWAP3 SWAP2 SWAP1 PUSH2 0x2BF3 JUMP JUMPDEST SWAP1 DUP2 MSTORE PUSH1 0x20 ADD PUSH1 0x40 MLOAD DUP1 SWAP2 SUB SWAP1 KECCAK256 PUSH1 0x0 DUP9 PUSH20 0xFFFFFFFFFFFFFFFFFFFFFFFFFFFFFFFFFFFFFFFF AND PUSH20 0xFFFFFFFFFFFFFFFFFFFFFFFFFFFFFFFFFFFFFFFF AND DUP2 MSTORE PUSH1 0x20 ADD SWAP1 DUP2 MSTORE PUSH1 0x20 ADD PUSH1 0x0 KECCAK256 PUSH1 0x0 ADD PUSH1 0x0 SWAP1 SLOAD SWAP1 PUSH2 0x100 EXP SWAP1 DIV PUSH1 0xFF AND PUSH1 0x1 DUP8 DUP8 PUSH1 0x40 MLOAD PUSH2 0x1C05 SWAP3 SWAP2 SWAP1 PUSH2 0x2BF3 JUMP JUMPDEST SWAP1 DUP2 MSTORE PUSH1 0x20 ADD PUSH1 0x40 MLOAD DUP1 SWAP2 SUB SWAP1 KECCAK256 PUSH1 0x0 DUP10 PUSH20 0xFFFFFFFFFFFFFFFFFFFFFFFFFFFFFFFFFFFFFFFF AND PUSH20 0xFFFFFFFFFFFFFFFFFFFFFFFFFFFFFFFFFFFFFFFF AND DUP2 MSTORE PUSH1 0x20 ADD SWAP1 DUP2 MSTORE PUSH1 0x20 ADD PUSH1 0x0 KECCAK256 PUSH1 0x0 ADD PUSH1 0x2 SWAP1 SLOAD SWAP1 PUSH2 0x100 EXP SWAP1 DIV PUSH20 0xFFFFFFFFFFFFFFFFFFFFFFFFFFFFFFFFFFFFFFFF AND SWAP3 POP SWAP3 POP SWAP3 POP SWAP4 POP SWAP4 POP SWAP4 SWAP1 POP JUMP JUMPDEST PUSH1 0x0 DUP3 DUP3 PUSH1 0x40 MLOAD PUSH2 0x1C95 SWAP3 SWAP2 SWAP1 PUSH2 0x2BF3 JUMP JUMPDEST SWAP1 DUP2 MSTORE PUSH1 0x20 ADD PUSH1 0x40 MLOAD DUP1 SWAP2 SUB SWAP1 KECCAK256 PUSH1 0x4 ADD SLOAD TIMESTAMP LT ISZERO PUSH2 0x1CE9 JUMPI PUSH1 0x40 MLOAD PUSH32 0x8C379A000000000000000000000000000000000000000000000000000000000 DUP2 MSTORE PUSH1 0x4 ADD PUSH2 0x1CE0 SWAP1 PUSH2 0x2F1F JUMP JUMPDEST PUSH1 0x40 MLOAD DUP1 SWAP2 SUB SWAP1 REVERT JUMPDEST PUSH1 0x0 ISZERO ISZERO PUSH1 0x0 DUP4 DUP4 PUSH1 0x40 MLOAD PUSH2 0x1CFF SWAP3 SWAP2 SWAP1 PUSH2 0x2BF3 JUMP JUMPDEST SWAP1 DUP2 MSTORE PUSH1 0x20 ADD PUSH1 0x40 MLOAD DUP1 SWAP2 SUB SWAP1 KECCAK256 PUSH1 0x7 ADD PUSH1 0x0 SWAP1 SLOAD SWAP1 PUSH2 0x100 EXP SWAP1 DIV PUSH1 0xFF AND ISZERO ISZERO EQ PUSH2 0x1D60 JUMPI PUSH1 0x40 MLOAD PUSH32 0x8C379A000000000000000000000000000000000000000000000000000000000 DUP2 MSTORE PUSH1 0x4 ADD PUSH2 0x1D57 SWAP1 PUSH2 0x2F5F JUMP JUMPDEST PUSH1 0x40 MLOAD DUP1 SWAP2 SUB SWAP1 REVERT JUMPDEST PUSH1 0x0 DUP3 DUP3 PUSH1 0x40 MLOAD PUSH2 0x1D72 SWAP3 SWAP2 SWAP1 PUSH2 0x2BF3 JUMP JUMPDEST SWAP1 DUP2 MSTORE PUSH1 0x20 ADD PUSH1 0x40 MLOAD DUP1 SWAP2 SUB SWAP1 KECCAK256 PUSH1 0x1 ADD PUSH1 0x0 SWAP1 SLOAD SWAP1 PUSH2 0x100 EXP SWAP1 DIV PUSH20 0xFFFFFFFFFFFFFFFFFFFFFFFFFFFFFFFFFFFFFFFF AND PUSH20 0xFFFFFFFFFFFFFFFFFFFFFFFFFFFFFFFFFFFFFFFF AND CALLER PUSH20 0xFFFFFFFFFFFFFFFFFFFFFFFFFFFFFFFFFFFFFFFF AND EQ DUP1 PUSH2 0x1E8A JUMPI POP PUSH1 0x0 PUSH20 0xFFFFFFFFFFFFFFFFFFFFFFFFFFFFFFFFFFFFFFFF AND PUSH1 0x1 DUP4 DUP4 PUSH1 0x40 MLOAD PUSH2 0x1E02 SWAP3 SWAP2 SWAP1 PUSH2 0x2BF3 JUMP JUMPDEST SWAP1 DUP2 MSTORE PUSH1 0x20 ADD PUSH1 0x40 MLOAD DUP1 SWAP2 SUB SWAP1 KECCAK256 PUSH1 0x0 CALLER PUSH20 0xFFFFFFFFFFFFFFFFFFFFFFFFFFFFFFFFFFFFFFFF AND PUSH20 0xFFFFFFFFFFFFFFFFFFFFFFFFFFFFFFFFFFFFFFFF AND DUP2 MSTORE PUSH1 0x20 ADD SWAP1 DUP2 MSTORE PUSH1 0x20 ADD PUSH1 0x0 KECCAK256 PUSH1 0x0 ADD PUSH1 0x2 SWAP1 SLOAD SWAP1 PUSH2 0x100 EXP SWAP1 DIV PUSH20 0xFFFFFFFFFFFFFFFFFFFFFFFFFFFFFFFFFFFFFFFF AND PUSH20 0xFFFFFFFFFFFFFFFFFFFFFFFFFFFFFFFFFFFFFFFF AND EQ ISZERO JUMPDEST PUSH2 0x1EC9 JUMPI PUSH1 0x40 MLOAD PUSH32 0x8C379A000000000000000000000000000000000000000000000000000000000 DUP2 MSTORE PUSH1 0x4 ADD PUSH2 0x1EC0 SWAP1 PUSH2 0x2E5F JUMP JUMPDEST PUSH1 0x40 MLOAD DUP1 SWAP2 SUB SWAP1 REVERT JUMPDEST PUSH1 0x0 PUSH1 0x64 PUSH1 0x3 DUP5 DUP5 PUSH1 0x40 MLOAD PUSH2 0x1EDF SWAP3 SWAP2 SWAP1 PUSH2 0x2BF3 JUMP JUMPDEST SWAP1 DUP2 MSTORE PUSH1 0x20 ADD PUSH1 0x40 MLOAD DUP1 SWAP2 SUB SWAP1 KECCAK256 DUP1 SLOAD SWAP1 POP PUSH1 0x0 DUP6 DUP6 PUSH1 0x40 MLOAD PUSH2 0x1F03 SWAP3 SWAP2 SWAP1 PUSH2 0x2BF3 JUMP JUMPDEST SWAP1 DUP2 MSTORE PUSH1 0x20 ADD PUSH1 0x40 MLOAD DUP1 SWAP2 SUB SWAP1 KECCAK256 PUSH1 0x6 ADD SLOAD PUSH2 0x1F1F SWAP2 SWAP1 PUSH2 0x308B JUMP JUMPDEST PUSH2 0x1F29 SWAP2 SWAP1 PUSH2 0x30BC JUMP JUMPDEST SWAP1 POP PUSH1 0x0 DUP4 DUP4 PUSH1 0x40 MLOAD PUSH2 0x1F3D SWAP3 SWAP2 SWAP1 PUSH2 0x2BF3 JUMP JUMPDEST SWAP1 DUP2 MSTORE PUSH1 0x20 ADD PUSH1 0x40 MLOAD DUP1 SWAP2 SUB SWAP1 KECCAK256 PUSH1 0x5 ADD SLOAD DUP2 LT PUSH2 0x1F9E JUMPI PUSH32 0x4163636570746564000000000000000000000000000000000000000000000000 PUSH1 0x0 DUP5 DUP5 PUSH1 0x40 MLOAD PUSH2 0x1F88 SWAP3 SWAP2 SWAP1 PUSH2 0x2BF3 JUMP JUMPDEST SWAP1 DUP2 MSTORE PUSH1 0x20 ADD PUSH1 0x40 MLOAD DUP1 SWAP2 SUB SWAP1 KECCAK256 PUSH1 0x8 ADD DUP2 SWAP1 SSTORE POP JUMPDEST PUSH1 0x0 JUMPDEST PUSH1 0x3 DUP5 DUP5 PUSH1 0x40 MLOAD PUSH2 0x1FB3 SWAP3 SWAP2 SWAP1 PUSH2 0x2BF3 JUMP JUMPDEST SWAP1 DUP2 MSTORE PUSH1 0x20 ADD PUSH1 0x40 MLOAD DUP1 SWAP2 SUB SWAP1 KECCAK256 DUP1 SLOAD SWAP1 POP DUP2 PUSH1 0xFF AND LT ISZERO PUSH2 0x2280 JUMPI PUSH1 0x0 ISZERO ISZERO PUSH1 0x1 DUP6 DUP6 PUSH1 0x40 MLOAD PUSH2 0x1FE5 SWAP3 SWAP2 SWAP1 PUSH2 0x2BF3 JUMP JUMPDEST SWAP1 DUP2 MSTORE PUSH1 0x20 ADD PUSH1 0x40 MLOAD DUP1 SWAP2 SUB SWAP1 KECCAK256 PUSH1 0x0 PUSH1 0x3 DUP8 DUP8 PUSH1 0x40 MLOAD PUSH2 0x2007 SWAP3 SWAP2 SWAP1 PUSH2 0x2BF3 JUMP JUMPDEST SWAP1 DUP2 MSTORE PUSH1 0x20 ADD PUSH1 0x40 MLOAD DUP1 SWAP2 SUB SWAP1 KECCAK256 DUP5 PUSH1 0xFF AND DUP2 SLOAD DUP2 LT PUSH2 0x202A JUMPI PUSH2 0x2029 PUSH2 0x32D1 JUMP JUMPDEST JUMPDEST SWAP1 PUSH1 0x0 MSTORE PUSH1 0x20 PUSH1 0x0 KECCAK256 ADD PUSH1 0x0 SWAP1 SLOAD SWAP1 PUSH2 0x100 EXP SWAP1 DIV PUSH20 0xFFFFFFFFFFFFFFFFFFFFFFFFFFFFFFFFFFFFFFFF AND PUSH20 0xFFFFFFFFFFFFFFFFFFFFFFFFFFFFFFFFFFFFFFFF AND PUSH20 0xFFFFFFFFFFFFFFFFFFFFFFFFFFFFFFFFFFFFFFFF AND DUP2 MSTORE PUSH1 0x20 ADD SWAP1 DUP2 MSTORE PUSH1 0x20 ADD PUSH1 0x0 KECCAK256 PUSH1 0x0 ADD PUSH1 0x0 SWAP1 SLOAD SWAP1 PUSH2 0x100 EXP SWAP1 DIV PUSH1 0xFF AND ISZERO ISZERO EQ ISZERO PUSH2 0x226D JUMPI PUSH1 0x2 DUP5 DUP5 PUSH1 0x40 MLOAD PUSH2 0x20BA SWAP3 SWAP2 SWAP1 PUSH2 0x2BF3 JUMP JUMPDEST SWAP1 DUP2 MSTORE PUSH1 0x20 ADD PUSH1 0x40 MLOAD DUP1 SWAP2 SUB SWAP1 KECCAK256 PUSH1 0x1 DUP6 DUP6 PUSH1 0x40 MLOAD PUSH2 0x20DA SWAP3 SWAP2 SWAP1 PUSH2 0x2BF3 JUMP JUMPDEST SWAP1 DUP2 MSTORE PUSH1 0x20 ADD PUSH1 0x40 MLOAD DUP1 SWAP2 SUB SWAP1 KECCAK256 PUSH1 0x0 PUSH1 0x3 DUP8 DUP8 PUSH1 0x40 MLOAD PUSH2 0x20FC SWAP3 SWAP2 SWAP1 PUSH2 0x2BF3 JUMP JUMPDEST SWAP1 DUP2 MSTORE PUSH1 0x20 ADD PUSH1 0x40 MLOAD DUP1 SWAP2 SUB SWAP1 KECCAK256 DUP5 PUSH1 0xFF AND DUP2 SLOAD DUP2 LT PUSH2 0x211F JUMPI PUSH2 0x211E PUSH2 0x32D1 JUMP JUMPDEST JUMPDEST SWAP1 PUSH1 0x0 MSTORE PUSH1 0x20 PUSH1 0x0 KECCAK256 ADD PUSH1 0x0 SWAP1 SLOAD SWAP1 PUSH2 0x100 EXP SWAP1 DIV PUSH20 0xFFFFFFFFFFFFFFFFFFFFFFFFFFFFFFFFFFFFFFFF AND PUSH20 0xFFFFFFFFFFFFFFFFFFFFFFFFFFFFFFFFFFFFFFFF AND PUSH20 0xFFFFFFFFFFFFFFFFFFFFFFFFFFFFFFFFFFFFFFFF AND DUP2 MSTORE PUSH1 0x20 ADD SWAP1 DUP2 MSTORE PUSH1 0x20 ADD PUSH1 0x0 KECCAK256 SWAP1 DUP1 PUSH1 0x1 DUP2 SLOAD ADD DUP1 DUP3 SSTORE DUP1 SWAP2 POP POP PUSH1 0x1 SWAP1 SUB SWAP1 PUSH1 0x0 MSTORE PUSH1 0x20 PUSH1 0x0 KECCAK256 ADD PUSH1 0x0 SWAP1 SWAP2 SWAP1 SWAP2 SWAP1 SWAP2 POP PUSH1 0x0 DUP3 ADD PUSH1 0x0 SWAP1 SLOAD SWAP1 PUSH2 0x100 EXP SWAP1 DIV PUSH1 0xFF AND DUP2 PUSH1 0x0 ADD PUSH1 0x0 PUSH2 0x100 EXP DUP2 SLOAD DUP2 PUSH1 0xFF MUL NOT AND SWAP1 DUP4 ISZERO ISZERO MUL OR SWAP1 SSTORE POP PUSH1 0x0 DUP3 ADD PUSH1 0x1 SWAP1 SLOAD SWAP1 PUSH2 0x100 EXP SWAP1 DIV PUSH1 0xFF AND DUP2 PUSH1 0x0 ADD PUSH1 0x1 PUSH2 0x100 EXP DUP2 SLOAD DUP2 PUSH1 0xFF MUL NOT AND SWAP1 DUP4 ISZERO ISZERO MUL OR SWAP1 SSTORE POP PUSH1 0x0 DUP3 ADD PUSH1 0x2 SWAP1 SLOAD SWAP1 PUSH2 0x100 EXP SWAP1 DIV PUSH20 0xFFFFFFFFFFFFFFFFFFFFFFFFFFFFFFFFFFFFFFFF AND DUP2 PUSH1 0x0 ADD PUSH1 0x2 PUSH2 0x100 EXP DUP2 SLOAD DUP2 PUSH20 0xFFFFFFFFFFFFFFFFFFFFFFFFFFFFFFFFFFFFFFFF MUL NOT AND SWAP1 DUP4 PUSH20 0xFFFFFFFFFFFFFFFFFFFFFFFFFFFFFFFFFFFFFFFF AND MUL OR SWAP1 SSTORE POP POP POP JUMPDEST DUP1 DUP1 PUSH2 0x2278 SWAP1 PUSH2 0x321A JUMP JUMPDEST SWAP2 POP POP PUSH2 0x1FA1 JUMP JUMPDEST POP PUSH1 0x1 PUSH1 0x0 DUP5 DUP5 PUSH1 0x40 MLOAD PUSH2 0x2295 SWAP3 SWAP2 SWAP1 PUSH2 0x2BF3 JUMP JUMPDEST SWAP1 DUP2 MSTORE PUSH1 0x20 ADD PUSH1 0x40 MLOAD DUP1 SWAP2 SUB SWAP1 KECCAK256 PUSH1 0x7 ADD PUSH1 0x0 PUSH2 0x100 EXP DUP2 SLOAD DUP2 PUSH1 0xFF MUL NOT AND SWAP1 DUP4 ISZERO ISZERO MUL OR SWAP1 SSTORE POP POP POP POP JUMP JUMPDEST PUSH1 0x2 DUP3 DUP1 MLOAD PUSH1 0x20 DUP2 ADD DUP3 ADD DUP1 MLOAD DUP5 DUP3 MSTORE PUSH1 0x20 DUP4 ADD PUSH1 0x20 DUP6 ADD KECCAK256 DUP2 DUP4 MSTORE DUP1 SWAP6 POP POP POP POP POP POP DUP2 DUP2 SLOAD DUP2 LT PUSH2 0x22F4 JUMPI PUSH1 0x0 DUP1 REVERT JUMPDEST SWAP1 PUSH1 0x0 MSTORE PUSH1 0x20 PUSH1 0x0 KECCAK256 ADD PUSH1 0x0 SWAP2 POP SWAP2 POP POP DUP1 PUSH1 0x0 ADD PUSH1 0x0 SWAP1 SLOAD SWAP1 PUSH2 0x100 EXP SWAP1 DIV PUSH1 0xFF AND SWAP1 DUP1 PUSH1 0x0 ADD PUSH1 0x1 SWAP1 SLOAD SWAP1 PUSH2 0x100 EXP SWAP1 DIV PUSH1 0xFF AND SWAP1 DUP1 PUSH1 0x0 ADD PUSH1 0x2 SWAP1 SLOAD SWAP1 PUSH2 0x100 EXP SWAP1 DIV PUSH20 0xFFFFFFFFFFFFFFFFFFFFFFFFFFFFFFFFFFFFFFFF AND SWAP1 POP DUP4 JUMP JUMPDEST PUSH1 0x60 PUSH1 0x0 DUP4 DUP4 PUSH1 0x40 MLOAD PUSH2 0x2369 SWAP3 SWAP2 SWAP1 PUSH2 0x2BF3 JUMP JUMPDEST SWAP1 DUP2 MSTORE PUSH1 0x20 ADD PUSH1 0x40 MLOAD DUP1 SWAP2 SUB SWAP1 KECCAK256 PUSH1 0x0 ADD DUP1 SLOAD PUSH2 0x2385 SWAP1 PUSH2 0x31B7 JUMP JUMPDEST DUP1 PUSH1 0x1F ADD PUSH1 0x20 DUP1 SWAP2 DIV MUL PUSH1 0x20 ADD PUSH1 0x40 MLOAD SWAP1 DUP2 ADD PUSH1 0x40 MSTORE DUP1 SWAP3 SWAP2 SWAP1 DUP2 DUP2 MSTORE PUSH1 0x20 ADD DUP3 DUP1 SLOAD PUSH2 0x23B1 SWAP1 PUSH2 0x31B7 JUMP JUMPDEST DUP1 ISZERO PUSH2 0x23FE JUMPI DUP1 PUSH1 0x1F LT PUSH2 0x23D3 JUMPI PUSH2 0x100 DUP1 DUP4 SLOAD DIV MUL DUP4 MSTORE SWAP2 PUSH1 0x20 ADD SWAP2 PUSH2 0x23FE JUMP JUMPDEST DUP3 ADD SWAP2 SWAP1 PUSH1 0x0 MSTORE PUSH1 0x20 PUSH1 0x0 KECCAK256 SWAP1 JUMPDEST DUP2 SLOAD DUP2 MSTORE SWAP1 PUSH1 0x1 ADD SWAP1 PUSH1 0x20 ADD DUP1 DUP4 GT PUSH2 0x23E1 JUMPI DUP3 SWAP1 SUB PUSH1 0x1F AND DUP3 ADD SWAP2 JUMPDEST POP POP POP POP POP SWAP1 POP SWAP3 SWAP2 POP POP JUMP JUMPDEST PUSH1 0x0 DUP1 DUP4 DUP4 PUSH1 0x40 MLOAD PUSH2 0x241E SWAP3 SWAP2 SWAP1 PUSH2 0x2BF3 JUMP JUMPDEST SWAP1 DUP2 MSTORE PUSH1 0x20 ADD PUSH1 0x40 MLOAD DUP1 SWAP2 SUB SWAP1 KECCAK256 PUSH1 0x7 ADD PUSH1 0x0 SWAP1 SLOAD SWAP1 PUSH2 0x100 EXP SWAP1 DIV PUSH1 0xFF AND SWAP1 POP SWAP3 SWAP2 POP POP JUMP JUMPDEST DUP3 DUP1 SLOAD PUSH2 0x2451 SWAP1 PUSH2 0x31B7 JUMP JUMPDEST SWAP1 PUSH1 0x0 MSTORE PUSH1 0x20 PUSH1 0x0 KECCAK256 SWAP1 PUSH1 0x1F ADD PUSH1 0x20 SWAP1 DIV DUP2 ADD SWAP3 DUP3 PUSH2 0x2473 JUMPI PUSH1 0x0 DUP6 SSTORE PUSH2 0x24BA JUMP JUMPDEST DUP3 PUSH1 0x1F LT PUSH2 0x248C JUMPI DUP1 MLOAD PUSH1 0xFF NOT AND DUP4 DUP1 ADD OR DUP6 SSTORE PUSH2 0x24BA JUMP JUMPDEST DUP3 DUP1 ADD PUSH1 0x1 ADD DUP6 SSTORE DUP3 ISZERO PUSH2 0x24BA JUMPI SWAP2 DUP3 ADD JUMPDEST DUP3 DUP2 GT ISZERO PUSH2 0x24B9 JUMPI DUP3 MLOAD DUP3 SSTORE SWAP2 PUSH1 0x20 ADD SWAP2 SWAP1 PUSH1 0x1 ADD SWAP1 PUSH2 0x249E JUMP JUMPDEST JUMPDEST POP SWAP1 POP PUSH2 0x24C7 SWAP2 SWAP1 PUSH2 0x24CB JUMP JUMPDEST POP SWAP1 JUMP JUMPDEST JUMPDEST DUP1 DUP3 GT ISZERO PUSH2 0x24E4 JUMPI PUSH1 0x0 DUP2 PUSH1 0x0 SWAP1 SSTORE POP PUSH1 0x1 ADD PUSH2 0x24CC JUMP JUMPDEST POP SWAP1 JUMP JUMPDEST PUSH1 0x0 PUSH2 0x24FB PUSH2 0x24F6 DUP5 PUSH2 0x2FA4 JUMP JUMPDEST PUSH2 0x2F7F JUMP JUMPDEST SWAP1 POP DUP3 DUP2 MSTORE PUSH1 0x20 DUP2 ADD DUP5 DUP5 DUP5 ADD GT ISZERO PUSH2 0x2517 JUMPI PUSH2 0x2516 PUSH2 0x333E JUMP JUMPDEST JUMPDEST PUSH2 0x2522 DUP5 DUP3 DUP6 PUSH2 0x3175 JUMP JUMPDEST POP SWAP4 SWAP3 POP POP POP JUMP JUMPDEST PUSH1 0x0 DUP2 CALLDATALOAD SWAP1 POP PUSH2 0x2539 DUP2 PUSH2 0x35B9 JUMP JUMPDEST SWAP3 SWAP2 POP POP JUMP JUMPDEST PUSH1 0x0 DUP1 DUP4 PUSH1 0x1F DUP5 ADD SLT PUSH2 0x2555 JUMPI PUSH2 0x2554 PUSH2 0x3334 JUMP JUMPDEST JUMPDEST DUP3 CALLDATALOAD SWAP1 POP PUSH8 0xFFFFFFFFFFFFFFFF DUP2 GT ISZERO PUSH2 0x2572 JUMPI PUSH2 0x2571 PUSH2 0x332F JUMP JUMPDEST JUMPDEST PUSH1 0x20 DUP4 ADD SWAP2 POP DUP4 PUSH1 0x1 DUP3 MUL DUP4 ADD GT ISZERO PUSH2 0x258E JUMPI PUSH2 0x258D PUSH2 0x3339 JUMP JUMPDEST JUMPDEST SWAP3 POP SWAP3 SWAP1 POP JUMP JUMPDEST PUSH1 0x0 DUP3 PUSH1 0x1F DUP4 ADD SLT PUSH2 0x25AA JUMPI PUSH2 0x25A9 PUSH2 0x3334 JUMP JUMPDEST JUMPDEST DUP2 CALLDATALOAD PUSH2 0x25BA DUP5 DUP3 PUSH1 0x20 DUP7 ADD PUSH2 0x24E8 JUMP JUMPDEST SWAP2 POP POP SWAP3 SWAP2 POP POP JUMP JUMPDEST PUSH1 0x0 DUP2 CALLDATALOAD SWAP1 POP PUSH2 0x25D2 DUP2 PUSH2 0x35D0 JUMP JUMPDEST SWAP3 SWAP2 POP POP JUMP JUMPDEST PUSH1 0x0 DUP1 PUSH1 0x0 PUSH1 0x40 DUP5 DUP7 SUB SLT ISZERO PUSH2 0x25F1 JUMPI PUSH2 0x25F0 PUSH2 0x3348 JUMP JUMPDEST JUMPDEST PUSH1 0x0 PUSH2 0x25FF DUP7 DUP3 DUP8 ADD PUSH2 0x252A JUMP JUMPDEST SWAP4 POP POP PUSH1 0x20 DUP5 ADD CALLDATALOAD PUSH8 0xFFFFFFFFFFFFFFFF DUP2 GT ISZERO PUSH2 0x2620 JUMPI PUSH2 0x261F PUSH2 0x3343 JUMP JUMPDEST JUMPDEST PUSH2 0x262C DUP7 DUP3 DUP8 ADD PUSH2 0x253F JUMP JUMPDEST SWAP3 POP SWAP3 POP POP SWAP3 POP SWAP3 POP SWAP3 JUMP JUMPDEST PUSH1 0x0 DUP1 PUSH1 0x20 DUP4 DUP6 SUB SLT ISZERO PUSH2 0x264F JUMPI PUSH2 0x264E PUSH2 0x3348 JUMP JUMPDEST JUMPDEST PUSH1 0x0 DUP4 ADD CALLDATALOAD PUSH8 0xFFFFFFFFFFFFFFFF DUP2 GT ISZERO PUSH2 0x266D JUMPI PUSH2 0x266C PUSH2 0x3343 JUMP JUMPDEST JUMPDEST PUSH2 0x2679 DUP6 DUP3 DUP7 ADD PUSH2 0x253F JUMP JUMPDEST SWAP3 POP SWAP3 POP POP SWAP3 POP SWAP3 SWAP1 POP JUMP JUMPDEST PUSH1 0x0 PUSH1 0x20 DUP3 DUP5 SUB SLT ISZERO PUSH2 0x269B JUMPI PUSH2 0x269A PUSH2 0x3348 JUMP JUMPDEST JUMPDEST PUSH1 0x0 DUP3 ADD CALLDATALOAD PUSH8 0xFFFFFFFFFFFFFFFF DUP2 GT ISZERO PUSH2 0x26B9 JUMPI PUSH2 0x26B8 PUSH2 0x3343 JUMP JUMPDEST JUMPDEST PUSH2 0x26C5 DUP5 DUP3 DUP6 ADD PUSH2 0x2595 JUMP JUMPDEST SWAP2 POP POP SWAP3 SWAP2 POP POP JUMP JUMPDEST PUSH1 0x0 DUP1 PUSH1 0x40 DUP4 DUP6 SUB SLT ISZERO PUSH2 0x26E5 JUMPI PUSH2 0x26E4 PUSH2 0x3348 JUMP JUMPDEST JUMPDEST PUSH1 0x0 DUP4 ADD CALLDATALOAD PUSH8 0xFFFFFFFFFFFFFFFF DUP2 GT ISZERO PUSH2 0x2703 JUMPI PUSH2 0x2702 PUSH2 0x3343 JUMP JUMPDEST JUMPDEST PUSH2 0x270F DUP6 DUP3 DUP7 ADD PUSH2 0x2595 JUMP JUMPDEST SWAP3 POP POP PUSH1 0x20 PUSH2 0x2720 DUP6 DUP3 DUP7 ADD PUSH2 0x252A JUMP JUMPDEST SWAP2 POP POP SWAP3 POP SWAP3 SWAP1 POP JUMP JUMPDEST PUSH1 0x0 DUP1 PUSH1 0x0 PUSH1 0x40 DUP5 DUP7 SUB SLT ISZERO PUSH2 0x2743 JUMPI PUSH2 0x2742 PUSH2 0x3348 JUMP JUMPDEST JUMPDEST PUSH1 0x0 DUP5 ADD CALLDATALOAD PUSH8 0xFFFFFFFFFFFFFFFF DUP2 GT ISZERO PUSH2 0x2761 JUMPI PUSH2 0x2760 PUSH2 0x3343 JUMP JUMPDEST JUMPDEST PUSH2 0x276D DUP7 DUP3 DUP8 ADD PUSH2 0x2595 JUMP JUMPDEST SWAP4 POP POP PUSH1 0x20 DUP5 ADD CALLDATALOAD PUSH8 0xFFFFFFFFFFFFFFFF DUP2 GT ISZERO PUSH2 0x278E JUMPI PUSH2 0x278D PUSH2 0x3343 JUMP JUMPDEST JUMPDEST PUSH2 0x279A DUP7 DUP3 DUP8 ADD PUSH2 0x253F JUMP JUMPDEST SWAP3 POP SWAP3 POP POP SWAP3 POP SWAP3 POP SWAP3 JUMP JUMPDEST PUSH1 0x0 DUP1 PUSH1 0x40 DUP4 DUP6 SUB SLT ISZERO PUSH2 0x27BD JUMPI PUSH2 0x27BC PUSH2 0x3348 JUMP JUMPDEST JUMPDEST PUSH1 0x0 DUP4 ADD CALLDATALOAD PUSH8 0xFFFFFFFFFFFFFFFF DUP2 GT ISZERO PUSH2 0x27DB JUMPI PUSH2 0x27DA PUSH2 0x3343 JUMP JUMPDEST JUMPDEST PUSH2 0x27E7 DUP6 DUP3 DUP7 ADD PUSH2 0x2595 JUMP JUMPDEST SWAP3 POP POP PUSH1 0x20 PUSH2 0x27F8 DUP6 DUP3 DUP7 ADD PUSH2 0x25C3 JUMP JUMPDEST SWAP2 POP POP SWAP3 POP SWAP3 SWAP1 POP JUMP JUMPDEST PUSH1 0x0 DUP1 PUSH1 0x0 DUP1 PUSH1 0x0 PUSH1 0xA0 DUP7 DUP9 SUB SLT ISZERO PUSH2 0x281E JUMPI PUSH2 0x281D PUSH2 0x3348 JUMP JUMPDEST JUMPDEST PUSH1 0x0 DUP7 ADD CALLDATALOAD PUSH8 0xFFFFFFFFFFFFFFFF DUP2 GT ISZERO PUSH2 0x283C JUMPI PUSH2 0x283B PUSH2 0x3343 JUMP JUMPDEST JUMPDEST PUSH2 0x2848 DUP9 DUP3 DUP10 ADD PUSH2 0x2595 JUMP JUMPDEST SWAP6 POP POP PUSH1 0x20 PUSH2 0x2859 DUP9 DUP3 DUP10 ADD PUSH2 0x25C3 JUMP JUMPDEST SWAP5 POP POP PUSH1 0x40 PUSH2 0x286A DUP9 DUP3 DUP10 ADD PUSH2 0x25C3 JUMP JUMPDEST SWAP4 POP POP PUSH1 0x60 DUP7 ADD CALLDATALOAD PUSH8 0xFFFFFFFFFFFFFFFF DUP2 GT ISZERO PUSH2 0x288B JUMPI PUSH2 0x288A PUSH2 0x3343 JUMP JUMPDEST JUMPDEST PUSH2 0x2897 DUP9 DUP3 DUP10 ADD PUSH2 0x2595 JUMP JUMPDEST SWAP3 POP POP PUSH1 0x80 DUP7 ADD CALLDATALOAD PUSH8 0xFFFFFFFFFFFFFFFF DUP2 GT ISZERO PUSH2 0x28B8 JUMPI PUSH2 0x28B7 PUSH2 0x3343 JUMP JUMPDEST JUMPDEST PUSH2 0x28C4 DUP9 DUP3 DUP10 ADD PUSH2 0x2595 JUMP JUMPDEST SWAP2 POP POP SWAP3 SWAP6 POP SWAP3 SWAP6 SWAP1 SWAP4 POP JUMP JUMPDEST PUSH1 0x0 PUSH2 0x28DD DUP4 DUP4 PUSH2 0x2BA2 JUMP JUMPDEST PUSH1 0x60 DUP4 ADD SWAP1 POP SWAP3 SWAP2 POP POP JUMP JUMPDEST PUSH2 0x28F2 DUP2 PUSH2 0x3116 JUMP JUMPDEST DUP3 MSTORE POP POP JUMP JUMPDEST PUSH2 0x2901 DUP2 PUSH2 0x3116 JUMP JUMPDEST DUP3 MSTORE POP POP JUMP JUMPDEST PUSH1 0x0 PUSH2 0x2912 DUP3 PUSH2 0x2FE5 JUMP JUMPDEST PUSH2 0x291C DUP2 DUP6 PUSH2 0x3008 JUMP JUMPDEST SWAP4 POP PUSH2 0x2927 DUP4 PUSH2 0x2FD5 JUMP JUMPDEST DUP1 PUSH1 0x0 JUMPDEST DUP4 DUP2 LT ISZERO PUSH2 0x2958 JUMPI DUP2 MLOAD PUSH2 0x293F DUP9 DUP3 PUSH2 0x28D1 JUMP JUMPDEST SWAP8 POP PUSH2 0x294A DUP4 PUSH2 0x2FFB JUMP JUMPDEST SWAP3 POP POP PUSH1 0x1 DUP2 ADD SWAP1 POP PUSH2 0x292B JUMP JUMPDEST POP DUP6 SWAP4 POP POP POP POP SWAP3 SWAP2 POP POP JUMP JUMPDEST PUSH2 0x296E DUP2 PUSH2 0x3128 JUMP JUMPDEST DUP3 MSTORE POP POP JUMP JUMPDEST PUSH2 0x297D DUP2 PUSH2 0x3128 JUMP JUMPDEST DUP3 MSTORE POP POP JUMP JUMPDEST PUSH2 0x298C DUP2 PUSH2 0x3134 JUMP JUMPDEST DUP3 MSTORE POP POP JUMP JUMPDEST PUSH1 0x0 PUSH2 0x299E DUP4 DUP6 PUSH2 0x302A JUMP JUMPDEST SWAP4 POP PUSH2 0x29AB DUP4 DUP6 DUP5 PUSH2 0x3175 JUMP JUMPDEST DUP3 DUP5 ADD SWAP1 POP SWAP4 SWAP3 POP POP POP JUMP JUMPDEST PUSH1 0x0 PUSH2 0x29C2 DUP3 PUSH2 0x2FF0 JUMP JUMPDEST PUSH2 0x29CC DUP2 DUP6 PUSH2 0x3019 JUMP JUMPDEST SWAP4 POP PUSH2 0x29DC DUP2 DUP6 PUSH1 0x20 DUP7 ADD PUSH2 0x3184 JUMP JUMPDEST PUSH2 0x29E5 DUP2 PUSH2 0x334D JUMP JUMPDEST DUP5 ADD SWAP2 POP POP SWAP3 SWAP2 POP POP JUMP JUMPDEST PUSH1 0x0 PUSH2 0x29FB DUP3 PUSH2 0x2FF0 JUMP JUMPDEST PUSH2 0x2A05 DUP2 DUP6 PUSH2 0x302A JUMP JUMPDEST SWAP4 POP PUSH2 0x2A15 DUP2 DUP6 PUSH1 0x20 DUP7 ADD PUSH2 0x3184 JUMP JUMPDEST DUP1 DUP5 ADD SWAP2 POP POP SWAP3 SWAP2 POP POP JUMP JUMPDEST PUSH1 0x0 PUSH2 0x2A2E PUSH1 0x1F DUP4 PUSH2 0x3019 JUMP JUMPDEST SWAP2 POP PUSH2 0x2A39 DUP3 PUSH2 0x335E JUMP JUMPDEST PUSH1 0x20 DUP3 ADD SWAP1 POP SWAP2 SWAP1 POP JUMP JUMPDEST PUSH1 0x0 PUSH2 0x2A51 PUSH1 0x19 DUP4 PUSH2 0x3019 JUMP JUMPDEST SWAP2 POP PUSH2 0x2A5C DUP3 PUSH2 0x3387 JUMP JUMPDEST PUSH1 0x20 DUP3 ADD SWAP1 POP SWAP2 SWAP1 POP JUMP JUMPDEST PUSH1 0x0 PUSH2 0x2A74 PUSH1 0x26 DUP4 PUSH2 0x3019 JUMP JUMPDEST SWAP2 POP PUSH2 0x2A7F DUP3 PUSH2 0x33B0 JUMP JUMPDEST PUSH1 0x40 DUP3 ADD SWAP1 POP SWAP2 SWAP1 POP JUMP JUMPDEST PUSH1 0x0 PUSH2 0x2A97 PUSH1 0x1C DUP4 PUSH2 0x3019 JUMP JUMPDEST SWAP2 POP PUSH2 0x2AA2 DUP3 PUSH2 0x33FF JUMP JUMPDEST PUSH1 0x20 DUP3 ADD SWAP1 POP SWAP2 SWAP1 POP JUMP JUMPDEST PUSH1 0x0 PUSH2 0x2ABA PUSH1 0x15 DUP4 PUSH2 0x3019 JUMP JUMPDEST SWAP2 POP PUSH2 0x2AC5 DUP3 PUSH2 0x3428 JUMP JUMPDEST PUSH1 0x20 DUP3 ADD SWAP1 POP SWAP2 SWAP1 POP JUMP JUMPDEST PUSH1 0x0 PUSH2 0x2ADD PUSH1 0x1E DUP4 PUSH2 0x3019 JUMP JUMPDEST SWAP2 POP PUSH2 0x2AE8 DUP3 PUSH2 0x3451 JUMP JUMPDEST PUSH1 0x20 DUP3 ADD SWAP1 POP SWAP2 SWAP1 POP JUMP JUMPDEST PUSH1 0x0 PUSH2 0x2B00 PUSH1 0x24 DUP4 PUSH2 0x3019 JUMP JUMPDEST SWAP2 POP PUSH2 0x2B0B DUP3 PUSH2 0x347A JUMP JUMPDEST PUSH1 0x40 DUP3 ADD SWAP1 POP SWAP2 SWAP1 POP JUMP JUMPDEST PUSH1 0x0 PUSH2 0x2B23 PUSH1 0x28 DUP4 PUSH2 0x3019 JUMP JUMPDEST SWAP2 POP PUSH2 0x2B2E DUP3 PUSH2 0x34C9 JUMP JUMPDEST PUSH1 0x40 DUP3 ADD SWAP1 POP SWAP2 SWAP1 POP JUMP JUMPDEST PUSH1 0x0 PUSH2 0x2B46 PUSH1 0x20 DUP4 PUSH2 0x3019 JUMP JUMPDEST SWAP2 POP PUSH2 0x2B51 DUP3 PUSH2 0x3518 JUMP JUMPDEST PUSH1 0x20 DUP3 ADD SWAP1 POP SWAP2 SWAP1 POP JUMP JUMPDEST PUSH1 0x0 PUSH2 0x2B69 PUSH1 0x12 DUP4 PUSH2 0x3019 JUMP JUMPDEST SWAP2 POP PUSH2 0x2B74 DUP3 PUSH2 0x3541 JUMP JUMPDEST PUSH1 0x20 DUP3 ADD SWAP1 POP SWAP2 SWAP1 POP JUMP JUMPDEST PUSH1 0x0 PUSH2 0x2B8C PUSH1 0x25 DUP4 PUSH2 0x3019 JUMP JUMPDEST SWAP2 POP PUSH2 0x2B97 DUP3 PUSH2 0x356A JUMP JUMPDEST PUSH1 0x40 DUP3 ADD SWAP1 POP SWAP2 SWAP1 POP JUMP JUMPDEST PUSH1 0x60 DUP3 ADD PUSH1 0x0 DUP3 ADD MLOAD PUSH2 0x2BB8 PUSH1 0x0 DUP6 ADD DUP3 PUSH2 0x2965 JUMP JUMPDEST POP PUSH1 0x20 DUP3 ADD MLOAD PUSH2 0x2BCB PUSH1 0x20 DUP6 ADD DUP3 PUSH2 0x2965 JUMP JUMPDEST POP PUSH1 0x40 DUP3 ADD MLOAD PUSH2 0x2BDE PUSH1 0x40 DUP6 ADD DUP3 PUSH2 0x28E9 JUMP JUMPDEST POP POP POP POP JUMP JUMPDEST PUSH2 0x2BED DUP2 PUSH2 0x315E JUMP JUMPDEST DUP3 MSTORE POP POP JUMP JUMPDEST PUSH1 0x0 PUSH2 0x2C00 DUP3 DUP5 DUP7 PUSH2 0x2992 JUMP JUMPDEST SWAP2 POP DUP2 SWAP1 POP SWAP4 SWAP3 POP POP POP JUMP JUMPDEST PUSH1 0x0 PUSH2 0x2C18 DUP3 DUP5 PUSH2 0x29F0 JUMP JUMPDEST SWAP2 POP DUP2 SWAP1 POP SWAP3 SWAP2 POP POP JUMP JUMPDEST PUSH1 0x0 PUSH1 0x20 DUP3 ADD SWAP1 POP PUSH2 0x2C38 PUSH1 0x0 DUP4 ADD DUP5 PUSH2 0x28F8 JUMP JUMPDEST SWAP3 SWAP2 POP POP JUMP JUMPDEST PUSH1 0x0 PUSH1 0x20 DUP3 ADD SWAP1 POP PUSH2 0x2C53 PUSH1 0x0 DUP4 ADD DUP5 PUSH2 0x2974 JUMP JUMPDEST SWAP3 SWAP2 POP POP JUMP JUMPDEST PUSH1 0x0 PUSH1 0x60 DUP3 ADD SWAP1 POP PUSH2 0x2C6E PUSH1 0x0 DUP4 ADD DUP7 PUSH2 0x2974 JUMP JUMPDEST PUSH2 0x2C7B PUSH1 0x20 DUP4 ADD DUP6 PUSH2 0x2974 JUMP JUMPDEST PUSH2 0x2C88 PUSH1 0x40 DUP4 ADD DUP5 PUSH2 0x28F8 JUMP JUMPDEST SWAP5 SWAP4 POP POP POP POP JUMP JUMPDEST PUSH1 0x0 PUSH1 0x80 DUP3 ADD SWAP1 POP PUSH2 0x2CA5 PUSH1 0x0 DUP4 ADD DUP8 PUSH2 0x2983 JUMP JUMPDEST DUP2 DUP2 SUB PUSH1 0x20 DUP4 ADD MSTORE PUSH2 0x2CB7 DUP2 DUP7 PUSH2 0x29B7 JUMP JUMPDEST SWAP1 POP PUSH2 0x2CC6 PUSH1 0x40 DUP4 ADD DUP6 PUSH2 0x2BE4 JUMP JUMPDEST DUP2 DUP2 SUB PUSH1 0x60 DUP4 ADD MSTORE PUSH2 0x2CD8 DUP2 DUP5 PUSH2 0x2907 JUMP JUMPDEST SWAP1 POP SWAP6 SWAP5 POP POP POP POP POP JUMP JUMPDEST PUSH1 0x0 PUSH1 0x20 DUP3 ADD SWAP1 POP DUP2 DUP2 SUB PUSH1 0x0 DUP4 ADD MSTORE PUSH2 0x2CFD DUP2 DUP5 PUSH2 0x29B7 JUMP JUMPDEST SWAP1 POP SWAP3 SWAP2 POP POP JUMP JUMPDEST PUSH1 0x0 PUSH2 0x160 DUP3 ADD SWAP1 POP DUP2 DUP2 SUB PUSH1 0x0 DUP4 ADD MSTORE PUSH2 0x2D20 DUP2 DUP15 PUSH2 0x29B7 JUMP JUMPDEST SWAP1 POP PUSH2 0x2D2F PUSH1 0x20 DUP4 ADD DUP14 PUSH2 0x28F8 JUMP JUMPDEST PUSH2 0x2D3C PUSH1 0x40 DUP4 ADD DUP13 PUSH2 0x28F8 JUMP JUMPDEST PUSH2 0x2D49 PUSH1 0x60 DUP4 ADD DUP12 PUSH2 0x2BE4 JUMP JUMPDEST PUSH2 0x2D56 PUSH1 0x80 DUP4 ADD DUP11 PUSH2 0x2BE4 JUMP JUMPDEST PUSH2 0x2D63 PUSH1 0xA0 DUP4 ADD DUP10 PUSH2 0x2BE4 JUMP JUMPDEST PUSH2 0x2D70 PUSH1 0xC0 DUP4 ADD DUP9 PUSH2 0x2BE4 JUMP JUMPDEST PUSH2 0x2D7D PUSH1 0xE0 DUP4 ADD DUP8 PUSH2 0x2974 JUMP JUMPDEST PUSH2 0x2D8B PUSH2 0x100 DUP4 ADD DUP7 PUSH2 0x2983 JUMP JUMPDEST DUP2 DUP2 SUB PUSH2 0x120 DUP4 ADD MSTORE PUSH2 0x2D9E DUP2 DUP6 PUSH2 0x29B7 JUMP JUMPDEST SWAP1 POP DUP2 DUP2 SUB PUSH2 0x140 DUP4 ADD MSTORE PUSH2 0x2DB3 DUP2 DUP5 PUSH2 0x29B7 JUMP JUMPDEST SWAP1 POP SWAP13 SWAP12 POP POP POP POP POP POP POP POP POP POP POP POP JUMP JUMPDEST PUSH1 0x0 PUSH1 0xA0 DUP3 ADD SWAP1 POP DUP2 DUP2 SUB PUSH1 0x0 DUP4 ADD MSTORE PUSH2 0x2DDF DUP2 DUP9 PUSH2 0x29B7 JUMP JUMPDEST SWAP1 POP PUSH2 0x2DEE PUSH1 0x20 DUP4 ADD DUP8 PUSH2 0x2BE4 JUMP JUMPDEST PUSH2 0x2DFB PUSH1 0x40 DUP4 ADD DUP7 PUSH2 0x28F8 JUMP JUMPDEST PUSH2 0x2E08 PUSH1 0x60 DUP4 ADD DUP6 PUSH2 0x2BE4 JUMP JUMPDEST PUSH2 0x2E15 PUSH1 0x80 DUP4 ADD DUP5 PUSH2 0x2BE4 JUMP JUMPDEST SWAP7 SWAP6 POP POP POP POP POP POP JUMP JUMPDEST PUSH1 0x0 PUSH1 0x20 DUP3 ADD SWAP1 POP DUP2 DUP2 SUB PUSH1 0x0 DUP4 ADD MSTORE PUSH2 0x2E38 DUP2 PUSH2 0x2A21 JUMP JUMPDEST SWAP1 POP SWAP2 SWAP1 POP JUMP JUMPDEST PUSH1 0x0 PUSH1 0x20 DUP3 ADD SWAP1 POP DUP2 DUP2 SUB PUSH1 0x0 DUP4 ADD MSTORE PUSH2 0x2E58 DUP2 PUSH2 0x2A44 JUMP JUMPDEST SWAP1 POP SWAP2 SWAP1 POP JUMP JUMPDEST PUSH1 0x0 PUSH1 0x20 DUP3 ADD SWAP1 POP DUP2 DUP2 SUB PUSH1 0x0 DUP4 ADD MSTORE PUSH2 0x2E78 DUP2 PUSH2 0x2A67 JUMP JUMPDEST SWAP1 POP SWAP2 SWAP1 POP JUMP JUMPDEST PUSH1 0x0 PUSH1 0x20 DUP3 ADD SWAP1 POP DUP2 DUP2 SUB PUSH1 0x0 DUP4 ADD MSTORE PUSH2 0x2E98 DUP2 PUSH2 0x2A8A JUMP JUMPDEST SWAP1 POP SWAP2 SWAP1 POP JUMP JUMPDEST PUSH1 0x0 PUSH1 0x20 DUP3 ADD SWAP1 POP DUP2 DUP2 SUB PUSH1 0x0 DUP4 ADD MSTORE PUSH2 0x2EB8 DUP2 PUSH2 0x2AAD JUMP JUMPDEST SWAP1 POP SWAP2 SWAP1 POP JUMP JUMPDEST PUSH1 0x0 PUSH1 0x20 DUP3 ADD SWAP1 POP DUP2 DUP2 SUB PUSH1 0x0 DUP4 ADD MSTORE PUSH2 0x2ED8 DUP2 PUSH2 0x2AD0 JUMP JUMPDEST SWAP1 POP SWAP2 SWAP1 POP JUMP JUMPDEST PUSH1 0x0 PUSH1 0x20 DUP3 ADD SWAP1 POP DUP2 DUP2 SUB PUSH1 0x0 DUP4 ADD MSTORE PUSH2 0x2EF8 DUP2 PUSH2 0x2AF3 JUMP JUMPDEST SWAP1 POP SWAP2 SWAP1 POP JUMP JUMPDEST PUSH1 0x0 PUSH1 0x20 DUP3 ADD SWAP1 POP DUP2 DUP2 SUB PUSH1 0x0 DUP4 ADD MSTORE PUSH2 0x2F18 DUP2 PUSH2 0x2B16 JUMP JUMPDEST SWAP1 POP SWAP2 SWAP1 POP JUMP JUMPDEST PUSH1 0x0 PUSH1 0x20 DUP3 ADD SWAP1 POP DUP2 DUP2 SUB PUSH1 0x0 DUP4 ADD MSTORE PUSH2 0x2F38 DUP2 PUSH2 0x2B39 JUMP JUMPDEST SWAP1 POP SWAP2 SWAP1 POP JUMP JUMPDEST PUSH1 0x0 PUSH1 0x20 DUP3 ADD SWAP1 POP DUP2 DUP2 SUB PUSH1 0x0 DUP4 ADD MSTORE PUSH2 0x2F58 DUP2 PUSH2 0x2B5C JUMP JUMPDEST SWAP1 POP SWAP2 SWAP1 POP JUMP JUMPDEST PUSH1 0x0 PUSH1 0x20 DUP3 ADD SWAP1 POP DUP2 DUP2 SUB PUSH1 0x0 DUP4 ADD MSTORE PUSH2 0x2F78 DUP2 PUSH2 0x2B7F JUMP JUMPDEST SWAP1 POP SWAP2 SWAP1 POP JUMP JUMPDEST PUSH1 0x0 PUSH2 0x2F89 PUSH2 0x2F9A JUMP JUMPDEST SWAP1 POP PUSH2 0x2F95 DUP3 DUP3 PUSH2 0x31E9 JUMP JUMPDEST SWAP2 SWAP1 POP JUMP JUMPDEST PUSH1 0x0 PUSH1 0x40 MLOAD SWAP1 POP SWAP1 JUMP JUMPDEST PUSH1 0x0 PUSH8 0xFFFFFFFFFFFFFFFF DUP3 GT ISZERO PUSH2 0x2FBF JUMPI PUSH2 0x2FBE PUSH2 0x3300 JUMP JUMPDEST JUMPDEST PUSH2 0x2FC8 DUP3 PUSH2 0x334D JUMP JUMPDEST SWAP1 POP PUSH1 0x20 DUP2 ADD SWAP1 POP SWAP2 SWAP1 POP JUMP JUMPDEST PUSH1 0x0 DUP2 SWAP1 POP PUSH1 0x20 DUP3 ADD SWAP1 POP SWAP2 SWAP1 POP JUMP JUMPDEST PUSH1 0x0 DUP2 MLOAD SWAP1 POP SWAP2 SWAP1 POP JUMP JUMPDEST PUSH1 0x0 DUP2 MLOAD SWAP1 POP SWAP2 SWAP1 POP JUMP JUMPDEST PUSH1 0x0 PUSH1 0x20 DUP3 ADD SWAP1 POP SWAP2 SWAP1 POP JUMP JUMPDEST PUSH1 0x0 DUP3 DUP3 MSTORE PUSH1 0x20 DUP3 ADD SWAP1 POP SWAP3 SWAP2 POP POP JUMP JUMPDEST PUSH1 0x0 DUP3 DUP3 MSTORE PUSH1 0x20 DUP3 ADD SWAP1 POP SWAP3 SWAP2 POP POP JUMP JUMPDEST PUSH1 0x0 DUP2 SWAP1 POP SWAP3 SWAP2 POP POP JUMP JUMPDEST PUSH1 0x0 PUSH2 0x3040 DUP3 PUSH2 0x315E JUMP JUMPDEST SWAP2 POP PUSH2 0x304B DUP4 PUSH2 0x315E JUMP JUMPDEST SWAP3 POP DUP3 PUSH32 0xFFFFFFFFFFFFFFFFFFFFFFFFFFFFFFFFFFFFFFFFFFFFFFFFFFFFFFFFFFFFFFFF SUB DUP3 GT ISZERO PUSH2 0x3080 JUMPI PUSH2 0x307F PUSH2 0x3244 JUMP JUMPDEST JUMPDEST DUP3 DUP3 ADD SWAP1 POP SWAP3 SWAP2 POP POP JUMP JUMPDEST PUSH1 0x0 PUSH2 0x3096 DUP3 PUSH2 0x315E JUMP JUMPDEST SWAP2 POP PUSH2 0x30A1 DUP4 PUSH2 0x315E JUMP JUMPDEST SWAP3 POP DUP3 PUSH2 0x30B1 JUMPI PUSH2 0x30B0 PUSH2 0x3273 JUMP JUMPDEST JUMPDEST DUP3 DUP3 DIV SWAP1 POP SWAP3 SWAP2 POP POP JUMP JUMPDEST PUSH1 0x0 PUSH2 0x30C7 DUP3 PUSH2 0x315E JUMP JUMPDEST SWAP2 POP PUSH2 0x30D2 DUP4 PUSH2 0x315E JUMP JUMPDEST SWAP3 POP DUP2 PUSH32 0xFFFFFFFFFFFFFFFFFFFFFFFFFFFFFFFFFFFFFFFFFFFFFFFFFFFFFFFFFFFFFFFF DIV DUP4 GT DUP3 ISZERO ISZERO AND ISZERO PUSH2 0x310B JUMPI PUSH2 0x310A PUSH2 0x3244 JUMP JUMPDEST JUMPDEST DUP3 DUP3 MUL SWAP1 POP SWAP3 SWAP2 POP POP JUMP JUMPDEST PUSH1 0x0 PUSH2 0x3121 DUP3 PUSH2 0x313E JUMP JUMPDEST SWAP1 POP SWAP2 SWAP1 POP JUMP JUMPDEST PUSH1 0x0 DUP2 ISZERO ISZERO SWAP1 POP SWAP2 SWAP1 POP JUMP JUMPDEST PUSH1 0x0 DUP2 SWAP1 POP SWAP2 SWAP1 POP JUMP JUMPDEST PUSH1 0x0 PUSH20 0xFFFFFFFFFFFFFFFFFFFFFFFFFFFFFFFFFFFFFFFF DUP3 AND SWAP1 POP SWAP2 SWAP1 POP JUMP JUMPDEST PUSH1 0x0 DUP2 SWAP1 POP SWAP2 SWAP1 POP JUMP JUMPDEST PUSH1 0x0 PUSH1 0xFF DUP3 AND SWAP1 POP SWAP2 SWAP1 POP JUMP JUMPDEST DUP3 DUP2 DUP4 CALLDATACOPY PUSH1 0x0 DUP4 DUP4 ADD MSTORE POP POP POP JUMP JUMPDEST PUSH1 0x0 JUMPDEST DUP4 DUP2 LT ISZERO PUSH2 0x31A2 JUMPI DUP1 DUP3 ADD MLOAD DUP2 DUP5 ADD MSTORE PUSH1 0x20 DUP2 ADD SWAP1 POP PUSH2 0x3187 JUMP JUMPDEST DUP4 DUP2 GT ISZERO PUSH2 0x31B1 JUMPI PUSH1 0x0 DUP5 DUP5 ADD MSTORE JUMPDEST POP POP POP POP JUMP JUMPDEST PUSH1 0x0 PUSH1 0x2 DUP3 DIV SWAP1 POP PUSH1 0x1 DUP3 AND DUP1 PUSH2 0x31CF JUMPI PUSH1 0x7F DUP3 AND SWAP2 POP JUMPDEST PUSH1 0x20 DUP3 LT DUP2 EQ ISZERO PUSH2 0x31E3 JUMPI PUSH2 0x31E2 PUSH2 0x32A2 JUMP JUMPDEST JUMPDEST POP SWAP2 SWAP1 POP JUMP JUMPDEST PUSH2 0x31F2 DUP3 PUSH2 0x334D JUMP JUMPDEST DUP2 ADD DUP2 DUP2 LT PUSH8 0xFFFFFFFFFFFFFFFF DUP3 GT OR ISZERO PUSH2 0x3211 JUMPI PUSH2 0x3210 PUSH2 0x3300 JUMP JUMPDEST JUMPDEST DUP1 PUSH1 0x40 MSTORE POP POP POP JUMP JUMPDEST PUSH1 0x0 PUSH2 0x3225 DUP3 PUSH2 0x3168 JUMP JUMPDEST SWAP2 POP PUSH1 0xFF DUP3 EQ ISZERO PUSH2 0x3239 JUMPI PUSH2 0x3238 PUSH2 0x3244 JUMP JUMPDEST JUMPDEST PUSH1 0x1 DUP3 ADD SWAP1 POP SWAP2 SWAP1 POP JUMP JUMPDEST PUSH32 0x4E487B7100000000000000000000000000000000000000000000000000000000 PUSH1 0x0 MSTORE PUSH1 0x11 PUSH1 0x4 MSTORE PUSH1 0x24 PUSH1 0x0 REVERT JUMPDEST PUSH32 0x4E487B7100000000000000000000000000000000000000000000000000000000 PUSH1 0x0 MSTORE PUSH1 0x12 PUSH1 0x4 MSTORE PUSH1 0x24 PUSH1 0x0 REVERT JUMPDEST PUSH32 0x4E487B7100000000000000000000000000000000000000000000000000000000 PUSH1 0x0 MSTORE PUSH1 0x22 PUSH1 0x4 MSTORE PUSH1 0x24 PUSH1 0x0 REVERT JUMPDEST PUSH32 0x4E487B7100000000000000000000000000000000000000000000000000000000 PUSH1 0x0 MSTORE PUSH1 0x32 PUSH1 0x4 MSTORE PUSH1 0x24 PUSH1 0x0 REVERT JUMPDEST PUSH32 0x4E487B7100000000000000000000000000000000000000000000000000000000 PUSH1 0x0 MSTORE PUSH1 0x41 PUSH1 0x4 MSTORE PUSH1 0x24 PUSH1 0x0 REVERT JUMPDEST PUSH1 0x0 DUP1 REVERT JUMPDEST PUSH1 0x0 DUP1 REVERT JUMPDEST PUSH1 0x0 DUP1 REVERT JUMPDEST PUSH1 0x0 DUP1 REVERT JUMPDEST PUSH1 0x0 DUP1 REVERT JUMPDEST PUSH1 0x0 DUP1 REVERT JUMPDEST PUSH1 0x0 PUSH1 0x1F NOT PUSH1 0x1F DUP4 ADD AND SWAP1 POP SWAP2 SWAP1 POP JUMP JUMPDEST PUSH32 0x526563697069656E7420697320616C7265616479207265676973746572656400 PUSH1 0x0 DUP3 ADD MSTORE POP JUMP JUMPDEST PUSH32 0x50726F706F73616C20616C726561647920637265617465642100000000000000 PUSH1 0x0 DUP3 ADD MSTORE POP JUMP JUMPDEST PUSH32 0x596F75206172656E277420617574686F72697A6520746F20636F6D70696C6520 PUSH1 0x0 DUP3 ADD MSTORE PUSH32 0x42756E646C650000000000000000000000000000000000000000000000000000 PUSH1 0x20 DUP3 ADD MSTORE POP JUMP JUMPDEST PUSH32 0x596F7520616C72656164792073656E74206120726573706F6E73652E00000000 PUSH1 0x0 DUP3 ADD MSTORE POP JUMP JUMPDEST PUSH32 0x496E69746961746F722063616E277420766F7465210000000000000000000000 PUSH1 0x0 DUP3 ADD MSTORE POP JUMP JUMPDEST PUSH32 0x596F7520617265206E6F74207265676973746572656420746F20766F74650000 PUSH1 0x0 DUP3 ADD MSTORE POP JUMP JUMPDEST PUSH32 0x50726F706F73616C206861732072656163686564206974732065787069727920 PUSH1 0x0 DUP3 ADD MSTORE PUSH32 0x6461746500000000000000000000000000000000000000000000000000000000 PUSH1 0x20 DUP3 ADD MSTORE POP JUMP JUMPDEST PUSH32 0x4F6E6C7920696E69746961746F722063616E2072656769737465722061207265 PUSH1 0x0 DUP3 ADD MSTORE PUSH32 0x63697069656E742E000000000000000000000000000000000000000000000000 PUSH1 0x20 DUP3 ADD MSTORE POP JUMP JUMPDEST PUSH32 0x5665726469637420686173206E6F74206265656E207265616368656420796574 PUSH1 0x0 DUP3 ADD MSTORE POP JUMP JUMPDEST PUSH32 0x566F74696E672068617320657870697265640000000000000000000000000000 PUSH1 0x0 DUP3 ADD MSTORE POP JUMP JUMPDEST PUSH32 0x436F6E73656E7375732068617320616C7265616479206265656E2063616C6375 PUSH1 0x0 DUP3 ADD MSTORE PUSH32 0x6C61746564000000000000000000000000000000000000000000000000000000 PUSH1 0x20 DUP3 ADD MSTORE POP JUMP JUMPDEST PUSH2 0x35C2 DUP2 PUSH2 0x3116 JUMP JUMPDEST DUP2 EQ PUSH2 0x35CD JUMPI PUSH1 0x0 DUP1 REVERT JUMPDEST POP JUMP JUMPDEST PUSH2 0x35D9 DUP2 PUSH2 0x315E JUMP JUMPDEST DUP2 EQ PUSH2 0x35E4 JUMPI PUSH1 0x0 DUP1 REVERT JUMPDEST POP JUMP INVALID LOG2 PUSH5 0x6970667358 0x22 SLT KECCAK256 0x4F 0xF PC 0xA5 0xDD 0xC2 PUSH24 0x82FA7721EAA1ABBA649977566BB16909EA4581124C4235BE 0xB3 PUSH5 0x736F6C6343 STOP ADDMOD SMOD STOP CALLER "
				},
				"gasEstimates": {
					"creation": {
						"codeDepositCost": "2770600",
						"executionCost": "3015",
						"totalCost": "2773615"
					},
					"external": {
						"Consensus(string)": "infinite",
						"RegisterVoter(address,string)": "infinite",
						"Vote(string,string)": "infinite",
						"Voters(string,uint256)": "infinite",
						"businessProposals(string)": "infinite",
						"createContract(string,uint256,uint256,string,string)": "infinite",
						"getIsCompiled(string)": "infinite",
						"getParameters(string)": "infinite",
						"getParameters2(address,string)": "infinite",
						"getValues(string)": "infinite",
						"keys(string,uint256)": "infinite",
						"retrieve_bundle(string)": "infinite",
						"voter_maps(string,address)": "infinite"
					}
				},
				"methodIdentifiers": {
					"Consensus(string)": "883a9673",
					"RegisterVoter(address,string)": "3d63af0e",
					"Vote(string,string)": "17072d6b",
					"Voters(string,uint256)": "8f6a35b7",
					"businessProposals(string)": "089a4c60",
					"createContract(string,uint256,uint256,string,string)": "0952ed75",
					"getIsCompiled(string)": "ec548680",
					"getParameters(string)": "5a0a1390",
					"getParameters2(address,string)": "7b735c46",
					"getValues(string)": "c99ba896",
					"keys(string,uint256)": "06699b01",
					"retrieve_bundle(string)": "37f2e190",
					"voter_maps(string,address)": "33a0b0ab"
				}
			},
			"storageLayout": {
				"storage": [
					{
						"astId": 36,
						"contract": "contracts/BusinessConsensus2.sol:BusinessConsensus2",
						"label": "businessProposals",
						"offset": 0,
						"slot": "0",
						"type": "t_mapping(t_string_memory_ptr,t_struct(Proposal)31_storage)"
					},
					{
						"astId": 43,
						"contract": "contracts/BusinessConsensus2.sol:BusinessConsensus2",
						"label": "voter_maps",
						"offset": 0,
						"slot": "1",
						"type": "t_mapping(t_string_memory_ptr,t_mapping(t_address,t_struct(Voter)8_storage))"
					},
					{
						"astId": 49,
						"contract": "contracts/BusinessConsensus2.sol:BusinessConsensus2",
						"label": "Voters",
						"offset": 0,
						"slot": "2",
						"type": "t_mapping(t_string_memory_ptr,t_array(t_struct(Voter)8_storage)dyn_storage)"
					},
					{
						"astId": 54,
						"contract": "contracts/BusinessConsensus2.sol:BusinessConsensus2",
						"label": "keys",
						"offset": 0,
						"slot": "3",
						"type": "t_mapping(t_string_memory_ptr,t_array(t_address)dyn_storage)"
					}
				],
				"types": {
					"t_address": {
						"encoding": "inplace",
						"label": "address",
						"numberOfBytes": "20"
					},
					"t_array(t_address)dyn_storage": {
						"base": "t_address",
						"encoding": "dynamic_array",
						"label": "address[]",
						"numberOfBytes": "32"
					},
					"t_array(t_struct(Voter)8_storage)dyn_storage": {
						"base": "t_struct(Voter)8_storage",
						"encoding": "dynamic_array",
						"label": "struct BusinessConsensus2.Voter[]",
						"numberOfBytes": "32"
					},
					"t_bool": {
						"encoding": "inplace",
						"label": "bool",
						"numberOfBytes": "1"
					},
					"t_bytes32": {
						"encoding": "inplace",
						"label": "bytes32",
						"numberOfBytes": "32"
					},
					"t_mapping(t_address,t_struct(Voter)8_storage)": {
						"encoding": "mapping",
						"key": "t_address",
						"label": "mapping(address => struct BusinessConsensus2.Voter)",
						"numberOfBytes": "32",
						"value": "t_struct(Voter)8_storage"
					},
					"t_mapping(t_string_memory_ptr,t_array(t_address)dyn_storage)": {
						"encoding": "mapping",
						"key": "t_string_memory_ptr",
						"label": "mapping(string => address[])",
						"numberOfBytes": "32",
						"value": "t_array(t_address)dyn_storage"
					},
					"t_mapping(t_string_memory_ptr,t_array(t_struct(Voter)8_storage)dyn_storage)": {
						"encoding": "mapping",
						"key": "t_string_memory_ptr",
						"label": "mapping(string => struct BusinessConsensus2.Voter[])",
						"numberOfBytes": "32",
						"value": "t_array(t_struct(Voter)8_storage)dyn_storage"
					},
					"t_mapping(t_string_memory_ptr,t_mapping(t_address,t_struct(Voter)8_storage))": {
						"encoding": "mapping",
						"key": "t_string_memory_ptr",
						"label": "mapping(string => mapping(address => struct BusinessConsensus2.Voter))",
						"numberOfBytes": "32",
						"value": "t_mapping(t_address,t_struct(Voter)8_storage)"
					},
					"t_mapping(t_string_memory_ptr,t_struct(Proposal)31_storage)": {
						"encoding": "mapping",
						"key": "t_string_memory_ptr",
						"label": "mapping(string => struct BusinessConsensus2.Proposal)",
						"numberOfBytes": "32",
						"value": "t_struct(Proposal)31_storage"
					},
					"t_string_memory_ptr": {
						"encoding": "bytes",
						"label": "string",
						"numberOfBytes": "32"
					},
					"t_string_storage": {
						"encoding": "bytes",
						"label": "string",
						"numberOfBytes": "32"
					},
					"t_struct(Proposal)31_storage": {
						"encoding": "inplace",
						"label": "struct BusinessConsensus2.Proposal",
						"members": [
							{
								"astId": 10,
								"contract": "contracts/BusinessConsensus2.sol:BusinessConsensus2",
								"label": "messageID",
								"offset": 0,
								"slot": "0",
								"type": "t_string_storage"
							},
							{
								"astId": 12,
								"contract": "contracts/BusinessConsensus2.sol:BusinessConsensus2",
								"label": "initiator",
								"offset": 0,
								"slot": "1",
								"type": "t_address"
							},
							{
								"astId": 14,
								"contract": "contracts/BusinessConsensus2.sol:BusinessConsensus2",
								"label": "contractAddress",
								"offset": 0,
								"slot": "2",
								"type": "t_address"
							},
							{
								"astId": 16,
								"contract": "contracts/BusinessConsensus2.sol:BusinessConsensus2",
								"label": "voteCount",
								"offset": 0,
								"slot": "3",
								"type": "t_uint256"
							},
							{
								"astId": 18,
								"contract": "contracts/BusinessConsensus2.sol:BusinessConsensus2",
								"label": "expiryDate",
								"offset": 0,
								"slot": "4",
								"type": "t_uint256"
							},
							{
								"astId": 20,
								"contract": "contracts/BusinessConsensus2.sol:BusinessConsensus2",
								"label": "BusinessRequirement",
								"offset": 0,
								"slot": "5",
								"type": "t_uint256"
							},
							{
								"astId": 22,
								"contract": "contracts/BusinessConsensus2.sol:BusinessConsensus2",
								"label": "numApprovals",
								"offset": 0,
								"slot": "6",
								"type": "t_uint256"
							},
							{
								"astId": 24,
								"contract": "contracts/BusinessConsensus2.sol:BusinessConsensus2",
								"label": "isCompiled",
								"offset": 0,
								"slot": "7",
								"type": "t_bool"
							},
							{
								"astId": 26,
								"contract": "contracts/BusinessConsensus2.sol:BusinessConsensus2",
								"label": "finalVerdict",
								"offset": 0,
								"slot": "8",
								"type": "t_bytes32"
							},
							{
								"astId": 28,
								"contract": "contracts/BusinessConsensus2.sol:BusinessConsensus2",
								"label": "subject",
								"offset": 0,
								"slot": "9",
								"type": "t_string_storage"
							},
							{
								"astId": 30,
								"contract": "contracts/BusinessConsensus2.sol:BusinessConsensus2",
								"label": "contents",
								"offset": 0,
								"slot": "10",
								"type": "t_string_storage"
							}
						],
						"numberOfBytes": "352"
					},
					"t_struct(Voter)8_storage": {
						"encoding": "inplace",
						"label": "struct BusinessConsensus2.Voter",
						"members": [
							{
								"astId": 3,
								"contract": "contracts/BusinessConsensus2.sol:BusinessConsensus2",
								"label": "voted",
								"offset": 0,
								"slot": "0",
								"type": "t_bool"
							},
							{
								"astId": 5,
								"contract": "contracts/BusinessConsensus2.sol:BusinessConsensus2",
								"label": "vote",
								"offset": 1,
								"slot": "0",
								"type": "t_bool"
							},
							{
								"astId": 7,
								"contract": "contracts/BusinessConsensus2.sol:BusinessConsensus2",
								"label": "recipient",
								"offset": 2,
								"slot": "0",
								"type": "t_address"
							}
						],
						"numberOfBytes": "32"
					},
					"t_uint256": {
						"encoding": "inplace",
						"label": "uint256",
						"numberOfBytes": "32"
					}
				}
			},
			"userdoc": {
				"kind": "user",
				"methods": {
					"Consensus(string)": {
						"notice": "compile all relevant information into a Bundle"
					}
				},
				"version": 1
			}
		}
	}
}