{
	"contracts/BusinessConsensus3.sol": {
		"BusinessConsensus3": {
			"abi": [
				{
					"inputs": [
						{
							"internalType": "bytes32",
							"name": "_messageID",
							"type": "bytes32"
						}
					],
					"name": "Consensus",
					"outputs": [],
					"stateMutability": "nonpayable",
					"type": "function"
				},
				{
					"inputs": [
						{
							"internalType": "bytes32",
							"name": "",
							"type": "bytes32"
						}
					],
					"name": "IDs",
					"outputs": [
						{
							"internalType": "bytes32",
							"name": "",
							"type": "bytes32"
						}
					],
					"stateMutability": "view",
					"type": "function"
				},
				{
					"inputs": [
						{
							"internalType": "address",
							"name": "voter",
							"type": "address"
						},
						{
							"internalType": "bytes32",
							"name": "_messageID",
							"type": "bytes32"
						}
					],
					"name": "RegisterVoter",
					"outputs": [],
					"stateMutability": "nonpayable",
					"type": "function"
				},
				{
					"inputs": [
						{
							"internalType": "string",
							"name": "response",
							"type": "string"
						},
						{
							"internalType": "bytes32",
							"name": "_messageID",
							"type": "bytes32"
						}
					],
					"name": "Vote",
					"outputs": [],
					"stateMutability": "nonpayable",
					"type": "function"
				},
				{
					"inputs": [
						{
							"internalType": "bytes32",
							"name": "",
							"type": "bytes32"
						},
						{
							"internalType": "uint256",
							"name": "",
							"type": "uint256"
						}
					],
					"name": "Voters",
					"outputs": [
						{
							"internalType": "bool",
							"name": "voted",
							"type": "bool"
						},
						{
							"internalType": "bool",
							"name": "vote",
							"type": "bool"
						},
						{
							"internalType": "address",
							"name": "recipient",
							"type": "address"
						}
					],
					"stateMutability": "view",
					"type": "function"
				},
				{
					"inputs": [
						{
							"internalType": "bytes32",
							"name": "",
							"type": "bytes32"
						}
					],
					"name": "businessRequirements",
					"outputs": [
						{
							"internalType": "uint256",
							"name": "",
							"type": "uint256"
						}
					],
					"stateMutability": "view",
					"type": "function"
				},
				{
					"inputs": [
						{
							"internalType": "bytes32",
							"name": "_subject",
							"type": "bytes32"
						},
						{
							"internalType": "uint256",
							"name": "_businessRequirement",
							"type": "uint256"
						},
						{
							"internalType": "uint256",
							"name": "_expiryLength",
							"type": "uint256"
						},
						{
							"internalType": "bytes32",
							"name": "_contents",
							"type": "bytes32"
						}
					],
					"name": "checkConsistency",
					"outputs": [
						{
							"internalType": "bool",
							"name": "",
							"type": "bool"
						},
						{
							"internalType": "bool",
							"name": "",
							"type": "bool"
						},
						{
							"internalType": "bool",
							"name": "",
							"type": "bool"
						}
					],
					"stateMutability": "view",
					"type": "function"
				},
				{
					"inputs": [
						{
							"internalType": "bytes32",
							"name": "",
							"type": "bytes32"
						}
					],
					"name": "contents",
					"outputs": [
						{
							"internalType": "bytes32",
							"name": "",
							"type": "bytes32"
						}
					],
					"stateMutability": "view",
					"type": "function"
				},
				{
					"inputs": [
						{
							"internalType": "bytes32",
							"name": "_messageID",
							"type": "bytes32"
						},
						{
							"internalType": "uint256",
							"name": "expiry",
							"type": "uint256"
						},
						{
							"internalType": "uint256",
							"name": "requiredPercentage",
							"type": "uint256"
						},
						{
							"internalType": "bytes32",
							"name": "_contents",
							"type": "bytes32"
						},
						{
							"internalType": "bytes32",
							"name": "subject",
							"type": "bytes32"
						},
						{
							"internalType": "string",
							"name": "_messageDate",
							"type": "string"
						}
					],
					"name": "createContract",
					"outputs": [],
					"stateMutability": "nonpayable",
					"type": "function"
				},
				{
					"inputs": [
						{
							"internalType": "bytes32",
							"name": "",
							"type": "bytes32"
						}
					],
					"name": "expiryDates",
					"outputs": [
						{
							"internalType": "uint256",
							"name": "",
							"type": "uint256"
						}
					],
					"stateMutability": "view",
					"type": "function"
				},
				{
					"inputs": [
						{
							"internalType": "bytes32",
							"name": "",
							"type": "bytes32"
						}
					],
					"name": "expiryLengths",
					"outputs": [
						{
							"internalType": "uint256",
							"name": "",
							"type": "uint256"
						}
					],
					"stateMutability": "view",
					"type": "function"
				},
				{
					"inputs": [
						{
							"internalType": "bytes32",
							"name": "",
							"type": "bytes32"
						}
					],
					"name": "finalVerdicts",
					"outputs": [
						{
							"internalType": "bool",
							"name": "",
							"type": "bool"
						}
					],
					"stateMutability": "view",
					"type": "function"
				},
				{
					"inputs": [
						{
							"internalType": "bytes32",
							"name": "_messageID",
							"type": "bytes32"
						}
					],
					"name": "getIsCompiled",
					"outputs": [
						{
							"internalType": "bool",
							"name": "",
							"type": "bool"
						}
					],
					"stateMutability": "view",
					"type": "function"
				},
				{
					"inputs": [
						{
							"internalType": "bytes32",
							"name": "subject",
							"type": "bytes32"
						}
					],
					"name": "getIsCreated",
					"outputs": [
						{
							"internalType": "bytes32",
							"name": "",
							"type": "bytes32"
						},
						{
							"internalType": "string",
							"name": "",
							"type": "string"
						}
					],
					"stateMutability": "view",
					"type": "function"
				},
				{
					"inputs": [
						{
							"internalType": "bytes32",
							"name": "",
							"type": "bytes32"
						}
					],
					"name": "initiators",
					"outputs": [
						{
							"internalType": "address",
							"name": "",
							"type": "address"
						}
					],
					"stateMutability": "view",
					"type": "function"
				},
				{
					"inputs": [
						{
							"internalType": "bytes32",
							"name": "",
							"type": "bytes32"
						}
					],
					"name": "isCompiled",
					"outputs": [
						{
							"internalType": "bool",
							"name": "",
							"type": "bool"
						}
					],
					"stateMutability": "view",
					"type": "function"
				},
				{
					"inputs": [
						{
							"internalType": "bytes32",
							"name": "",
							"type": "bytes32"
						},
						{
							"internalType": "uint256",
							"name": "",
							"type": "uint256"
						}
					],
					"name": "keys",
					"outputs": [
						{
							"internalType": "address",
							"name": "",
							"type": "address"
						}
					],
					"stateMutability": "view",
					"type": "function"
				},
				{
					"inputs": [
						{
							"internalType": "bytes32",
							"name": "",
							"type": "bytes32"
						}
					],
					"name": "messageDates",
					"outputs": [
						{
							"internalType": "string",
							"name": "",
							"type": "string"
						}
					],
					"stateMutability": "view",
					"type": "function"
				},
				{
					"inputs": [
						{
							"internalType": "bytes32",
							"name": "",
							"type": "bytes32"
						}
					],
					"name": "numApprovals",
					"outputs": [
						{
							"internalType": "uint256",
							"name": "",
							"type": "uint256"
						}
					],
					"stateMutability": "view",
					"type": "function"
				},
				{
					"inputs": [
						{
							"internalType": "bytes32",
							"name": "_messageID",
							"type": "bytes32"
						}
					],
					"name": "retrieve_bundle",
					"outputs": [
						{
							"internalType": "bool",
							"name": "",
							"type": "bool"
						},
						{
							"internalType": "bytes32",
							"name": "",
							"type": "bytes32"
						},
						{
							"internalType": "uint256",
							"name": "",
							"type": "uint256"
						},
						{
							"components": [
								{
									"internalType": "bool",
									"name": "voted",
									"type": "bool"
								},
								{
									"internalType": "bool",
									"name": "vote",
									"type": "bool"
								},
								{
									"internalType": "address",
									"name": "recipient",
									"type": "address"
								}
							],
							"internalType": "struct BusinessConsensus3.Voter[]",
							"name": "",
							"type": "tuple[]"
						}
					],
					"stateMutability": "view",
					"type": "function"
				},
				{
					"inputs": [
						{
							"internalType": "bytes32",
							"name": "",
							"type": "bytes32"
						}
					],
					"name": "subjects",
					"outputs": [
						{
							"internalType": "bytes32",
							"name": "",
							"type": "bytes32"
						}
					],
					"stateMutability": "view",
					"type": "function"
				},
				{
					"inputs": [
						{
							"internalType": "bytes32",
							"name": "",
							"type": "bytes32"
						}
					],
					"name": "voteCounts",
					"outputs": [
						{
							"internalType": "uint256",
							"name": "",
							"type": "uint256"
						}
					],
					"stateMutability": "view",
					"type": "function"
				},
				{
					"inputs": [
						{
							"internalType": "bytes32",
							"name": "",
							"type": "bytes32"
						},
						{
							"internalType": "address",
							"name": "",
							"type": "address"
						}
					],
					"name": "voter_maps",
					"outputs": [
						{
							"internalType": "bool",
							"name": "voted",
							"type": "bool"
						},
						{
							"internalType": "bool",
							"name": "vote",
							"type": "bool"
						},
						{
							"internalType": "address",
							"name": "recipient",
							"type": "address"
						}
					],
					"stateMutability": "view",
					"type": "function"
				}
			],
			"devdoc": {
				"kind": "dev",
				"methods": {},
				"version": 1
			},
			"evm": {
				"assembly": "    /* \"contracts/BusinessConsensus3.sol\":33:7058  contract BusinessConsensus3{\r... */\n  mstore(0x40, 0x80)\n  callvalue\n  dup1\n  iszero\n  tag_1\n  jumpi\n  0x00\n  dup1\n  revert\ntag_1:\n  pop\n  dataSize(sub_0)\n  dup1\n  dataOffset(sub_0)\n  0x00\n  codecopy\n  0x00\n  return\nstop\n\nsub_0: assembly {\n        /* \"contracts/BusinessConsensus3.sol\":33:7058  contract BusinessConsensus3{\r... */\n      mstore(0x40, 0x80)\n      callvalue\n      dup1\n      iszero\n      tag_1\n      jumpi\n      0x00\n      dup1\n      revert\n    tag_1:\n      pop\n      jumpi(tag_2, lt(calldatasize, 0x04))\n      shr(0xe0, calldataload(0x00))\n      dup1\n      0x823a6366\n      gt\n      tag_26\n      jumpi\n      dup1\n      0xa784ef74\n      gt\n      tag_27\n      jumpi\n      dup1\n      0xa784ef74\n      eq\n      tag_20\n      jumpi\n      dup1\n      0xd443560a\n      eq\n      tag_21\n      jumpi\n      dup1\n      0xd468f983\n      eq\n      tag_22\n      jumpi\n      dup1\n      0xe463eaee\n      eq\n      tag_23\n      jumpi\n      dup1\n      0xe5d009bf\n      eq\n      tag_24\n      jumpi\n      dup1\n      0xf20ca12c\n      eq\n      tag_25\n      jumpi\n      jump(tag_2)\n    tag_27:\n      dup1\n      0x823a6366\n      eq\n      tag_14\n      jumpi\n      dup1\n      0x8acc0d10\n      eq\n      tag_15\n      jumpi\n      dup1\n      0x8b0e8a2a\n      eq\n      tag_16\n      jumpi\n      dup1\n      0x97299e99\n      eq\n      tag_17\n      jumpi\n      dup1\n      0xa0d859a3\n      eq\n      tag_18\n      jumpi\n      dup1\n      0xa4a8f426\n      eq\n      tag_19\n      jumpi\n      jump(tag_2)\n    tag_26:\n      dup1\n      0x5273bc48\n      gt\n      tag_28\n      jumpi\n      dup1\n      0x5273bc48\n      eq\n      tag_8\n      jumpi\n      dup1\n      0x56c583d8\n      eq\n      tag_9\n      jumpi\n      dup1\n      0x7a099c6a\n      eq\n      tag_10\n      jumpi\n      dup1\n      0x7d6c570a\n      eq\n      tag_11\n      jumpi\n      dup1\n      0x7ff4c389\n      eq\n      tag_12\n      jumpi\n      dup1\n      0x81d0e37b\n      eq\n      tag_13\n      jumpi\n      jump(tag_2)\n    tag_28:\n      dup1\n      0x13191ade\n      eq\n      tag_3\n      jumpi\n      dup1\n      0x27f0ae92\n      eq\n      tag_4\n      jumpi\n      dup1\n      0x33dfd126\n      eq\n      tag_5\n      jumpi\n      dup1\n      0x38c20a9e\n      eq\n      tag_6\n      jumpi\n      dup1\n      0x4fd3b445\n      eq\n      tag_7\n      jumpi\n    tag_2:\n      0x00\n      dup1\n      revert\n        /* \"contracts/BusinessConsensus3.sol\":558:606  mapping(bytes32 => uint256) public expiryLengths */\n    tag_3:\n      tag_29\n      0x04\n      dup1\n      calldatasize\n      sub\n      dup2\n      add\n      swap1\n      tag_30\n      swap2\n      swap1\n      tag_31\n      jump\t// in\n    tag_30:\n      tag_32\n      jump\t// in\n    tag_29:\n      mload(0x40)\n      tag_33\n      swap2\n      swap1\n      tag_34\n      jump\t// in\n    tag_33:\n      mload(0x40)\n      dup1\n      swap2\n      sub\n      swap1\n      return\n        /* \"contracts/BusinessConsensus3.sol\":6626:7053  function retrieve_bundle(bytes32 _messageID) external view returns (bool, bytes32, uint256, Voter[] memory){\r... */\n    tag_4:\n      tag_35\n      0x04\n      dup1\n      calldatasize\n      sub\n      dup2\n      add\n      swap1\n      tag_36\n      swap2\n      swap1\n      tag_31\n      jump\t// in\n    tag_36:\n      tag_37\n      jump\t// in\n    tag_35:\n      mload(0x40)\n      tag_38\n      swap5\n      swap4\n      swap3\n      swap2\n      swap1\n      tag_39\n      jump\t// in\n    tag_38:\n      mload(0x40)\n      dup1\n      swap2\n      sub\n      swap1\n      return\n        /* \"contracts/BusinessConsensus3.sol\":2514:3332  function checkConsistency(bytes32 _subject, uint256 _businessRequirement, uint256 _expiryLength, bytes32 _contents) public view returns(bool, bool, bool){\r... */\n    tag_5:\n      tag_40\n      0x04\n      dup1\n      calldatasize\n      sub\n      dup2\n      add\n      swap1\n      tag_41\n      swap2\n      swap1\n      tag_42\n      jump\t// in\n    tag_41:\n      tag_43\n      jump\t// in\n    tag_40:\n      mload(0x40)\n      tag_44\n      swap4\n      swap3\n      swap2\n      swap1\n      tag_45\n      jump\t// in\n    tag_44:\n      mload(0x40)\n      dup1\n      swap2\n      sub\n      swap1\n      return\n        /* \"contracts/BusinessConsensus3.sol\":885:930  mapping(bytes32 => bool) public finalVerdicts */\n    tag_6:\n      tag_46\n      0x04\n      dup1\n      calldatasize\n      sub\n      dup2\n      add\n      swap1\n      tag_47\n      swap2\n      swap1\n      tag_31\n      jump\t// in\n    tag_47:\n      tag_48\n      jump\t// in\n    tag_46:\n      mload(0x40)\n      tag_49\n      swap2\n      swap1\n      tag_50\n      jump\t// in\n    tag_49:\n      mload(0x40)\n      dup1\n      swap2\n      sub\n      swap1\n      return\n        /* \"contracts/BusinessConsensus3.sol\":1102:1141  mapping(bytes32=>Voter[]) public Voters */\n    tag_7:\n      tag_51\n      0x04\n      dup1\n      calldatasize\n      sub\n      dup2\n      add\n      swap1\n      tag_52\n      swap2\n      swap1\n      tag_53\n      jump\t// in\n    tag_52:\n      tag_54\n      jump\t// in\n    tag_51:\n      mload(0x40)\n      tag_55\n      swap4\n      swap3\n      swap2\n      swap1\n      tag_56\n      jump\t// in\n    tag_55:\n      mload(0x40)\n      dup1\n      swap2\n      sub\n      swap1\n      return\n        /* \"contracts/BusinessConsensus3.sol\":2391:2508  function getIsCompiled(bytes32 _messageID) public view returns (bool){\r... */\n    tag_8:\n      tag_57\n      0x04\n      dup1\n      calldatasize\n      sub\n      dup2\n      add\n      swap1\n      tag_58\n      swap2\n      swap1\n      tag_31\n      jump\t// in\n    tag_58:\n      tag_59\n      jump\t// in\n    tag_57:\n      mload(0x40)\n      tag_60\n      swap2\n      swap1\n      tag_50\n      jump\t// in\n    tag_60:\n      mload(0x40)\n      dup1\n      swap2\n      sub\n      swap1\n      return\n        /* \"contracts/BusinessConsensus3.sol\":613:659  mapping(bytes32 => uint256) public expiryDates */\n    tag_9:\n      tag_61\n      0x04\n      dup1\n      calldatasize\n      sub\n      dup2\n      add\n      swap1\n      tag_62\n      swap2\n      swap1\n      tag_31\n      jump\t// in\n    tag_62:\n      tag_63\n      jump\t// in\n    tag_61:\n      mload(0x40)\n      tag_64\n      swap2\n      swap1\n      tag_34\n      jump\t// in\n    tag_64:\n      mload(0x40)\n      dup1\n      swap2\n      sub\n      swap1\n      return\n        /* \"contracts/BusinessConsensus3.sol\":770:825  mapping(bytes32 => uint256) public businessRequirements */\n    tag_10:\n      tag_65\n      0x04\n      dup1\n      calldatasize\n      sub\n      dup2\n      add\n      swap1\n      tag_66\n      swap2\n      swap1\n      tag_31\n      jump\t// in\n    tag_66:\n      tag_67\n      jump\t// in\n    tag_65:\n      mload(0x40)\n      tag_68\n      swap2\n      swap1\n      tag_34\n      jump\t// in\n    tag_68:\n      mload(0x40)\n      dup1\n      swap2\n      sub\n      swap1\n      return\n        /* \"contracts/BusinessConsensus3.sol\":5695:6618  function Consensus(bytes32 _messageID) external {\r... */\n    tag_11:\n      tag_69\n      0x04\n      dup1\n      calldatasize\n      sub\n      dup2\n      add\n      swap1\n      tag_70\n      swap2\n      swap1\n      tag_31\n      jump\t// in\n    tag_70:\n      tag_71\n      jump\t// in\n    tag_69:\n      stop\n        /* \"contracts/BusinessConsensus3.sol\":1148:1187  mapping(bytes32=>address[]) public keys */\n    tag_12:\n      tag_72\n      0x04\n      dup1\n      calldatasize\n      sub\n      dup2\n      add\n      swap1\n      tag_73\n      swap2\n      swap1\n      tag_53\n      jump\t// in\n    tag_73:\n      tag_74\n      jump\t// in\n    tag_72:\n      mload(0x40)\n      tag_75\n      swap2\n      swap1\n      tag_76\n      jump\t// in\n    tag_75:\n      mload(0x40)\n      dup1\n      swap2\n      sub\n      swap1\n      return\n        /* \"contracts/BusinessConsensus3.sol\":506:551  mapping(bytes32 => uint256) public voteCounts */\n    tag_13:\n      tag_77\n      0x04\n      dup1\n      calldatasize\n      sub\n      dup2\n      add\n      swap1\n      tag_78\n      swap2\n      swap1\n      tag_31\n      jump\t// in\n    tag_78:\n      tag_79\n      jump\t// in\n    tag_77:\n      mload(0x40)\n      tag_80\n      swap2\n      swap1\n      tag_34\n      jump\t// in\n    tag_80:\n      mload(0x40)\n      dup1\n      swap2\n      sub\n      swap1\n      return\n        /* \"contracts/BusinessConsensus3.sol\":937:979  mapping(bytes32 => bool) public isCompiled */\n    tag_14:\n      tag_81\n      0x04\n      dup1\n      calldatasize\n      sub\n      dup2\n      add\n      swap1\n      tag_82\n      swap2\n      swap1\n      tag_31\n      jump\t// in\n    tag_82:\n      tag_83\n      jump\t// in\n    tag_81:\n      mload(0x40)\n      tag_84\n      swap2\n      swap1\n      tag_50\n      jump\t// in\n    tag_84:\n      mload(0x40)\n      dup1\n      swap2\n      sub\n      swap1\n      return\n        /* \"contracts/BusinessConsensus3.sol\":4334:5631  function Vote(string memory response,bytes32 _messageID) external {\r... */\n    tag_15:\n      tag_85\n      0x04\n      dup1\n      calldatasize\n      sub\n      dup2\n      add\n      swap1\n      tag_86\n      swap2\n      swap1\n      tag_87\n      jump\t// in\n    tag_86:\n      tag_88\n      jump\t// in\n    tag_85:\n      stop\n        /* \"contracts/BusinessConsensus3.sol\":1200:2385  function createContract(bytes32 _messageID, uint256 expiry, uint256 requiredPercentage,bytes32 _contents,bytes32 subject,string memory _messageDate) external{\r... */\n    tag_16:\n      tag_89\n      0x04\n      dup1\n      calldatasize\n      sub\n      dup2\n      add\n      swap1\n      tag_90\n      swap2\n      swap1\n      tag_91\n      jump\t// in\n    tag_90:\n      tag_92\n      jump\t// in\n    tag_89:\n      stop\n        /* \"contracts/BusinessConsensus3.sol\":3338:3482  function getIsCreated(bytes32 subject) public view returns (bytes32,string memory){\r... */\n    tag_17:\n      tag_93\n      0x04\n      dup1\n      calldatasize\n      sub\n      dup2\n      add\n      swap1\n      tag_94\n      swap2\n      swap1\n      tag_31\n      jump\t// in\n    tag_94:\n      tag_95\n      jump\t// in\n    tag_93:\n      mload(0x40)\n      tag_96\n      swap3\n      swap2\n      swap1\n      tag_97\n      jump\t// in\n    tag_96:\n      mload(0x40)\n      dup1\n      swap2\n      sub\n      swap1\n      return\n        /* \"contracts/BusinessConsensus3.sol\":986:1029  mapping(bytes32 => bytes32) public subjects */\n    tag_18:\n      tag_98\n      0x04\n      dup1\n      calldatasize\n      sub\n      dup2\n      add\n      swap1\n      tag_99\n      swap2\n      swap1\n      tag_31\n      jump\t// in\n    tag_99:\n      tag_100\n      jump\t// in\n    tag_98:\n      mload(0x40)\n      tag_101\n      swap2\n      swap1\n      tag_102\n      jump\t// in\n    tag_101:\n      mload(0x40)\n      dup1\n      swap2\n      sub\n      swap1\n      return\n        /* \"contracts/BusinessConsensus3.sol\":832:878  mapping(bytes32 => string) public messageDates */\n    tag_19:\n      tag_103\n      0x04\n      dup1\n      calldatasize\n      sub\n      dup2\n      add\n      swap1\n      tag_104\n      swap2\n      swap1\n      tag_31\n      jump\t// in\n    tag_104:\n      tag_105\n      jump\t// in\n    tag_103:\n      mload(0x40)\n      tag_106\n      swap2\n      swap1\n      tag_107\n      jump\t// in\n    tag_106:\n      mload(0x40)\n      dup1\n      swap2\n      sub\n      swap1\n      return\n        /* \"contracts/BusinessConsensus3.sol\":1036:1095  mapping(bytes32=>mapping(address=>Voter)) public voter_maps */\n    tag_20:\n      tag_108\n      0x04\n      dup1\n      calldatasize\n      sub\n      dup2\n      add\n      swap1\n      tag_109\n      swap2\n      swap1\n      tag_110\n      jump\t// in\n    tag_109:\n      tag_111\n      jump\t// in\n    tag_108:\n      mload(0x40)\n      tag_112\n      swap4\n      swap3\n      swap2\n      swap1\n      tag_56\n      jump\t// in\n    tag_112:\n      mload(0x40)\n      dup1\n      swap2\n      sub\n      swap1\n      return\n        /* \"contracts/BusinessConsensus3.sol\":412:455  mapping(bytes32=>address) public initiators */\n    tag_21:\n      tag_113\n      0x04\n      dup1\n      calldatasize\n      sub\n      dup2\n      add\n      swap1\n      tag_114\n      swap2\n      swap1\n      tag_31\n      jump\t// in\n    tag_114:\n      tag_115\n      jump\t// in\n    tag_113:\n      mload(0x40)\n      tag_116\n      swap2\n      swap1\n      tag_76\n      jump\t// in\n    tag_116:\n      mload(0x40)\n      dup1\n      swap2\n      sub\n      swap1\n      return\n        /* \"contracts/BusinessConsensus3.sol\":3588:4326  function RegisterVoter(address voter,bytes32 _messageID) external {\r... */\n    tag_22:\n      tag_117\n      0x04\n      dup1\n      calldatasize\n      sub\n      dup2\n      add\n      swap1\n      tag_118\n      swap2\n      swap1\n      tag_119\n      jump\t// in\n    tag_118:\n      tag_120\n      jump\t// in\n    tag_117:\n      stop\n        /* \"contracts/BusinessConsensus3.sol\":716:763  mapping(bytes32 => uint256) public numApprovals */\n    tag_23:\n      tag_121\n      0x04\n      dup1\n      calldatasize\n      sub\n      dup2\n      add\n      swap1\n      tag_122\n      swap2\n      swap1\n      tag_31\n      jump\t// in\n    tag_122:\n      tag_123\n      jump\t// in\n    tag_121:\n      mload(0x40)\n      tag_124\n      swap2\n      swap1\n      tag_34\n      jump\t// in\n    tag_124:\n      mload(0x40)\n      dup1\n      swap2\n      sub\n      swap1\n      return\n        /* \"contracts/BusinessConsensus3.sol\":462:499  mapping(bytes32 =>bytes32) public IDs */\n    tag_24:\n      tag_125\n      0x04\n      dup1\n      calldatasize\n      sub\n      dup2\n      add\n      swap1\n      tag_126\n      swap2\n      swap1\n      tag_31\n      jump\t// in\n    tag_126:\n      tag_127\n      jump\t// in\n    tag_125:\n      mload(0x40)\n      tag_128\n      swap2\n      swap1\n      tag_102\n      jump\t// in\n    tag_128:\n      mload(0x40)\n      dup1\n      swap2\n      sub\n      swap1\n      return\n        /* \"contracts/BusinessConsensus3.sol\":666:709  mapping(bytes32 => bytes32) public contents */\n    tag_25:\n      tag_129\n      0x04\n      dup1\n      calldatasize\n      sub\n      dup2\n      add\n      swap1\n      tag_130\n      swap2\n      swap1\n      tag_31\n      jump\t// in\n    tag_130:\n      tag_131\n      jump\t// in\n    tag_129:\n      mload(0x40)\n      tag_132\n      swap2\n      swap1\n      tag_102\n      jump\t// in\n    tag_132:\n      mload(0x40)\n      dup1\n      swap2\n      sub\n      swap1\n      return\n        /* \"contracts/BusinessConsensus3.sol\":558:606  mapping(bytes32 => uint256) public expiryLengths */\n    tag_32:\n      mstore(0x20, 0x03)\n      dup1\n      0x00\n      mstore\n      keccak256(0x00, 0x40)\n      0x00\n      swap2\n      pop\n      swap1\n      pop\n      sload\n      dup2\n      jump\t// out\n        /* \"contracts/BusinessConsensus3.sol\":6626:7053  function retrieve_bundle(bytes32 _messageID) external view returns (bool, bytes32, uint256, Voter[] memory){\r... */\n    tag_37:\n        /* \"contracts/BusinessConsensus3.sol\":6694:6698  bool */\n      0x00\n        /* \"contracts/BusinessConsensus3.sol\":6700:6707  bytes32 */\n      dup1\n        /* \"contracts/BusinessConsensus3.sol\":6709:6716  uint256 */\n      0x00\n        /* \"contracts/BusinessConsensus3.sol\":6718:6732  Voter[] memory */\n      0x60\n        /* \"contracts/BusinessConsensus3.sol\":6771:6782  expiryDates */\n      0x04\n        /* \"contracts/BusinessConsensus3.sol\":6771:6794  expiryDates[_messageID] */\n      0x00\n        /* \"contracts/BusinessConsensus3.sol\":6783:6793  _messageID */\n      dup7\n        /* \"contracts/BusinessConsensus3.sol\":6771:6794  expiryDates[_messageID] */\n      dup2\n      mstore\n      0x20\n      add\n      swap1\n      dup2\n      mstore\n      0x20\n      add\n      0x00\n      keccak256\n      sload\n        /* \"contracts/BusinessConsensus3.sol\":6752:6767  block.timestamp */\n      timestamp\n        /* \"contracts/BusinessConsensus3.sol\":6752:6794  block.timestamp >= expiryDates[_messageID] */\n      lt\n      iszero\n        /* \"contracts/BusinessConsensus3.sol\":6744:6831  require(block.timestamp >= expiryDates[_messageID], \"Verdict has not been reached yet\") */\n      tag_134\n      jumpi\n      mload(0x40)\n      0x08c379a000000000000000000000000000000000000000000000000000000000\n      dup2\n      mstore\n      0x04\n      add\n      tag_135\n      swap1\n      tag_136\n      jump\t// in\n    tag_135:\n      mload(0x40)\n      dup1\n      swap2\n      sub\n      swap1\n      revert\n    tag_134:\n        /* \"contracts/BusinessConsensus3.sol\":6842:6863  Voter[] memory voters */\n      0x00\n        /* \"contracts/BusinessConsensus3.sol\":6866:6872  Voters */\n      0x0d\n        /* \"contracts/BusinessConsensus3.sol\":6866:6884  Voters[_messageID] */\n      0x00\n        /* \"contracts/BusinessConsensus3.sol\":6873:6883  _messageID */\n      dup8\n        /* \"contracts/BusinessConsensus3.sol\":6866:6884  Voters[_messageID] */\n      dup2\n      mstore\n      0x20\n      add\n      swap1\n      dup2\n      mstore\n      0x20\n      add\n      0x00\n      keccak256\n        /* \"contracts/BusinessConsensus3.sol\":6842:6884  Voter[] memory voters = Voters[_messageID] */\n      dup1\n      sload\n      dup1\n      0x20\n      mul\n      0x20\n      add\n      mload(0x40)\n      swap1\n      dup2\n      add\n      0x40\n      mstore\n      dup1\n      swap3\n      swap2\n      swap1\n      dup2\n      dup2\n      mstore\n      0x20\n      add\n      0x00\n      swap1\n    tag_137:\n      dup3\n      dup3\n      lt\n      iszero\n      tag_138\n      jumpi\n      dup4\n      dup3\n      swap1\n      0x00\n      mstore\n      keccak256(0x00, 0x20)\n      add\n      mload(0x40)\n      dup1\n      0x60\n      add\n      0x40\n      mstore\n      swap1\n      dup2\n      0x00\n      dup3\n      add\n      0x00\n      swap1\n      sload\n      swap1\n      0x0100\n      exp\n      swap1\n      div\n      0xff\n      and\n      iszero\n      iszero\n      iszero\n      iszero\n      dup2\n      mstore\n      0x20\n      add\n      0x00\n      dup3\n      add\n      0x01\n      swap1\n      sload\n      swap1\n      0x0100\n      exp\n      swap1\n      div\n      0xff\n      and\n      iszero\n      iszero\n      iszero\n      iszero\n      dup2\n      mstore\n      0x20\n      add\n      0x00\n      dup3\n      add\n      0x02\n      swap1\n      sload\n      swap1\n      0x0100\n      exp\n      swap1\n      div\n      0xffffffffffffffffffffffffffffffffffffffff\n      and\n      0xffffffffffffffffffffffffffffffffffffffff\n      and\n      0xffffffffffffffffffffffffffffffffffffffff\n      and\n      dup2\n      mstore\n      pop\n      pop\n      dup2\n      mstore\n      0x20\n      add\n      swap1\n      0x01\n      add\n      swap1\n      jump(tag_137)\n    tag_138:\n      pop\n      pop\n      pop\n      pop\n      swap1\n      pop\n        /* \"contracts/BusinessConsensus3.sol\":6895:6907  bool verdict */\n      0x00\n        /* \"contracts/BusinessConsensus3.sol\":6910:6923  finalVerdicts */\n      0x09\n        /* \"contracts/BusinessConsensus3.sol\":6910:6935  finalVerdicts[_messageID] */\n      0x00\n        /* \"contracts/BusinessConsensus3.sol\":6924:6934  _messageID */\n      dup9\n        /* \"contracts/BusinessConsensus3.sol\":6910:6935  finalVerdicts[_messageID] */\n      dup2\n      mstore\n      0x20\n      add\n      swap1\n      dup2\n      mstore\n      0x20\n      add\n      0x00\n      keccak256\n      0x00\n      swap1\n      sload\n      swap1\n      0x0100\n      exp\n      swap1\n      div\n      0xff\n      and\n        /* \"contracts/BusinessConsensus3.sol\":6895:6935  bool verdict = finalVerdicts[_messageID] */\n      swap1\n      pop\n        /* \"contracts/BusinessConsensus3.sol\":6946:6959  uint256 count */\n      0x00\n        /* \"contracts/BusinessConsensus3.sol\":6962:6972  voteCounts */\n      0x02\n        /* \"contracts/BusinessConsensus3.sol\":6962:6984  voteCounts[_messageID] */\n      0x00\n        /* \"contracts/BusinessConsensus3.sol\":6973:6983  _messageID */\n      dup10\n        /* \"contracts/BusinessConsensus3.sol\":6962:6984  voteCounts[_messageID] */\n      dup2\n      mstore\n      0x20\n      add\n      swap1\n      dup2\n      mstore\n      0x20\n      add\n      0x00\n      keccak256\n      sload\n        /* \"contracts/BusinessConsensus3.sol\":6946:6984  uint256 count = voteCounts[_messageID] */\n      swap1\n      pop\n        /* \"contracts/BusinessConsensus3.sol\":7003:7010  verdict */\n      dup2\n        /* \"contracts/BusinessConsensus3.sol\":7011:7021  _messageID */\n      dup9\n        /* \"contracts/BusinessConsensus3.sol\":7022:7027  count */\n      dup3\n        /* \"contracts/BusinessConsensus3.sol\":7028:7034  voters */\n      dup6\n        /* \"contracts/BusinessConsensus3.sol\":6995:7035  return (verdict,_messageID,count,voters) */\n      swap7\n      pop\n      swap7\n      pop\n      swap7\n      pop\n      swap7\n      pop\n      pop\n      pop\n      pop\n        /* \"contracts/BusinessConsensus3.sol\":6626:7053  function retrieve_bundle(bytes32 _messageID) external view returns (bool, bytes32, uint256, Voter[] memory){\r... */\n      swap2\n      swap4\n      pop\n      swap2\n      swap4\n      jump\t// out\n        /* \"contracts/BusinessConsensus3.sol\":2514:3332  function checkConsistency(bytes32 _subject, uint256 _businessRequirement, uint256 _expiryLength, bytes32 _contents) public view returns(bool, bool, bool){\r... */\n    tag_43:\n        /* \"contracts/BusinessConsensus3.sol\":2650:2654  bool */\n      0x00\n        /* \"contracts/BusinessConsensus3.sol\":2656:2660  bool */\n      dup1\n        /* \"contracts/BusinessConsensus3.sol\":2662:2666  bool */\n      0x00\n        /* \"contracts/BusinessConsensus3.sol\":2700:2710  initiators */\n      dup1\n        /* \"contracts/BusinessConsensus3.sol\":2700:2720  initiators[_subject] */\n      0x00\n        /* \"contracts/BusinessConsensus3.sol\":2711:2719  _subject */\n      dup9\n        /* \"contracts/BusinessConsensus3.sol\":2700:2720  initiators[_subject] */\n      dup2\n      mstore\n      0x20\n      add\n      swap1\n      dup2\n      mstore\n      0x20\n      add\n      0x00\n      keccak256\n      0x00\n      swap1\n      sload\n      swap1\n      0x0100\n      exp\n      swap1\n      div\n      0xffffffffffffffffffffffffffffffffffffffff\n      and\n        /* \"contracts/BusinessConsensus3.sol\":2686:2720  msg.sender == initiators[_subject] */\n      0xffffffffffffffffffffffffffffffffffffffff\n      and\n        /* \"contracts/BusinessConsensus3.sol\":2686:2696  msg.sender */\n      caller\n        /* \"contracts/BusinessConsensus3.sol\":2686:2720  msg.sender == initiators[_subject] */\n      0xffffffffffffffffffffffffffffffffffffffff\n      and\n      eq\n        /* \"contracts/BusinessConsensus3.sol\":2678:2745  require(msg.sender == initiators[_subject], \"You aren't Initiator\") */\n      tag_141\n      jumpi\n      mload(0x40)\n      0x08c379a000000000000000000000000000000000000000000000000000000000\n      dup2\n      mstore\n      0x04\n      add\n      tag_142\n      swap1\n      tag_143\n      jump\t// in\n    tag_142:\n      mload(0x40)\n      dup1\n      swap2\n      sub\n      swap1\n      revert\n    tag_141:\n        /* \"contracts/BusinessConsensus3.sol\":2756:2767  bool value1 */\n      0x00\n        /* \"contracts/BusinessConsensus3.sol\":2770:2774  true */\n      0x01\n        /* \"contracts/BusinessConsensus3.sol\":2756:2774  bool value1 = true */\n      swap1\n      pop\n        /* \"contracts/BusinessConsensus3.sol\":2785:2796  bool value2 */\n      0x00\n        /* \"contracts/BusinessConsensus3.sol\":2799:2803  true */\n      0x01\n        /* \"contracts/BusinessConsensus3.sol\":2785:2803  bool value2 = true */\n      swap1\n      pop\n        /* \"contracts/BusinessConsensus3.sol\":2814:2825  bool value3 */\n      0x00\n        /* \"contracts/BusinessConsensus3.sol\":2828:2832  true */\n      0x01\n        /* \"contracts/BusinessConsensus3.sol\":2814:2832  bool value3 = true */\n      swap1\n      pop\n        /* \"contracts/BusinessConsensus3.sol\":2878:2879  0 */\n      0x00\n        /* \"contracts/BusinessConsensus3.sol\":2846:2880  initiators[_subject] == address(0) */\n      0xffffffffffffffffffffffffffffffffffffffff\n      and\n        /* \"contracts/BusinessConsensus3.sol\":2846:2856  initiators */\n      0x00\n        /* \"contracts/BusinessConsensus3.sol\":2846:2866  initiators[_subject] */\n      dup1\n        /* \"contracts/BusinessConsensus3.sol\":2857:2865  _subject */\n      dup13\n        /* \"contracts/BusinessConsensus3.sol\":2846:2866  initiators[_subject] */\n      dup2\n      mstore\n      0x20\n      add\n      swap1\n      dup2\n      mstore\n      0x20\n      add\n      0x00\n      keccak256\n      0x00\n      swap1\n      sload\n      swap1\n      0x0100\n      exp\n      swap1\n      div\n      0xffffffffffffffffffffffffffffffffffffffff\n      and\n        /* \"contracts/BusinessConsensus3.sol\":2846:2880  initiators[_subject] == address(0) */\n      0xffffffffffffffffffffffffffffffffffffffff\n      and\n      eq\n        /* \"contracts/BusinessConsensus3.sol\":2843:3325  if(initiators[_subject] == address(0)){\r... */\n      iszero\n      tag_144\n      jumpi\n        /* \"contracts/BusinessConsensus3.sol\":2904:2908  true */\n      0x01\n        /* \"contracts/BusinessConsensus3.sol\":2910:2914  true */\n      dup1\n        /* \"contracts/BusinessConsensus3.sol\":2916:2920  true */\n      0x01\n        /* \"contracts/BusinessConsensus3.sol\":2896:2921  return (true, true, true) */\n      swap6\n      pop\n      swap6\n      pop\n      swap6\n      pop\n      pop\n      pop\n      pop\n      jump(tag_140)\n        /* \"contracts/BusinessConsensus3.sol\":2843:3325  if(initiators[_subject] == address(0)){\r... */\n    tag_144:\n        /* \"contracts/BusinessConsensus3.sol\":2989:3009  businessRequirements */\n      0x07\n        /* \"contracts/BusinessConsensus3.sol\":2989:3019  businessRequirements[_subject] */\n      0x00\n        /* \"contracts/BusinessConsensus3.sol\":3010:3018  _subject */\n      dup12\n        /* \"contracts/BusinessConsensus3.sol\":2989:3019  businessRequirements[_subject] */\n      dup2\n      mstore\n      0x20\n      add\n      swap1\n      dup2\n      mstore\n      0x20\n      add\n      0x00\n      keccak256\n      sload\n        /* \"contracts/BusinessConsensus3.sol\":2965:2985  _businessRequirement */\n      dup10\n        /* \"contracts/BusinessConsensus3.sol\":2965:3019  _businessRequirement != businessRequirements[_subject] */\n      eq\n        /* \"contracts/BusinessConsensus3.sol\":2962:3069  if(_businessRequirement != businessRequirements[_subject]){\r... */\n      tag_146\n      jumpi\n        /* \"contracts/BusinessConsensus3.sol\":3048:3053  false */\n      0x00\n        /* \"contracts/BusinessConsensus3.sol\":3039:3053  value1 = false */\n      swap3\n      pop\n        /* \"contracts/BusinessConsensus3.sol\":2962:3069  if(_businessRequirement != businessRequirements[_subject]){\r... */\n    tag_146:\n        /* \"contracts/BusinessConsensus3.sol\":3099:3107  contents */\n      0x05\n        /* \"contracts/BusinessConsensus3.sol\":3099:3117  contents[_subject] */\n      0x00\n        /* \"contracts/BusinessConsensus3.sol\":3108:3116  _subject */\n      dup12\n        /* \"contracts/BusinessConsensus3.sol\":3099:3117  contents[_subject] */\n      dup2\n      mstore\n      0x20\n      add\n      swap1\n      dup2\n      mstore\n      0x20\n      add\n      0x00\n      keccak256\n      sload\n        /* \"contracts/BusinessConsensus3.sol\":3086:3095  _contents */\n      dup8\n        /* \"contracts/BusinessConsensus3.sol\":3086:3117  _contents != contents[_subject] */\n      eq\n        /* \"contracts/BusinessConsensus3.sol\":3083:3167  if(_contents != contents[_subject]){\r... */\n      tag_147\n      jumpi\n        /* \"contracts/BusinessConsensus3.sol\":3146:3151  false */\n      0x00\n        /* \"contracts/BusinessConsensus3.sol\":3137:3151  value2 = false */\n      swap2\n      pop\n        /* \"contracts/BusinessConsensus3.sol\":3083:3167  if(_contents != contents[_subject]){\r... */\n    tag_147:\n        /* \"contracts/BusinessConsensus3.sol\":3211:3224  _expiryLength */\n      dup8\n        /* \"contracts/BusinessConsensus3.sol\":3184:3197  expiryLengths */\n      0x03\n        /* \"contracts/BusinessConsensus3.sol\":3184:3207  expiryLengths[_subject] */\n      0x00\n        /* \"contracts/BusinessConsensus3.sol\":3198:3206  _subject */\n      dup13\n        /* \"contracts/BusinessConsensus3.sol\":3184:3207  expiryLengths[_subject] */\n      dup2\n      mstore\n      0x20\n      add\n      swap1\n      dup2\n      mstore\n      0x20\n      add\n      0x00\n      keccak256\n      sload\n        /* \"contracts/BusinessConsensus3.sol\":3184:3224  expiryLengths[_subject] != _expiryLength */\n      eq\n        /* \"contracts/BusinessConsensus3.sol\":3181:3274  if(expiryLengths[_subject] != _expiryLength){\r... */\n      tag_148\n      jumpi\n        /* \"contracts/BusinessConsensus3.sol\":3253:3258  false */\n      0x00\n        /* \"contracts/BusinessConsensus3.sol\":3244:3258  value3 = false */\n      swap1\n      pop\n        /* \"contracts/BusinessConsensus3.sol\":3181:3274  if(expiryLengths[_subject] != _expiryLength){\r... */\n    tag_148:\n        /* \"contracts/BusinessConsensus3.sol\":3292:3298  value1 */\n      dup3\n        /* \"contracts/BusinessConsensus3.sol\":3299:3305  value2 */\n      dup3\n        /* \"contracts/BusinessConsensus3.sol\":3306:3312  value3 */\n      dup3\n        /* \"contracts/BusinessConsensus3.sol\":3284:3313  return (value1,value2,value3) */\n      swap6\n      pop\n      swap6\n      pop\n      swap6\n      pop\n      pop\n      pop\n      pop\n        /* \"contracts/BusinessConsensus3.sol\":2514:3332  function checkConsistency(bytes32 _subject, uint256 _businessRequirement, uint256 _expiryLength, bytes32 _contents) public view returns(bool, bool, bool){\r... */\n    tag_140:\n      swap5\n      pop\n      swap5\n      pop\n      swap5\n      swap2\n      pop\n      pop\n      jump\t// out\n        /* \"contracts/BusinessConsensus3.sol\":885:930  mapping(bytes32 => bool) public finalVerdicts */\n    tag_48:\n      mstore(0x20, 0x09)\n      dup1\n      0x00\n      mstore\n      keccak256(0x00, 0x40)\n      0x00\n      swap2\n      pop\n      sload\n      swap1\n      0x0100\n      exp\n      swap1\n      div\n      0xff\n      and\n      dup2\n      jump\t// out\n        /* \"contracts/BusinessConsensus3.sol\":1102:1141  mapping(bytes32=>Voter[]) public Voters */\n    tag_54:\n      mstore(0x20, 0x0d)\n      dup2\n      0x00\n      mstore\n      keccak256(0x00, 0x40)\n      dup2\n      dup2\n      sload\n      dup2\n      lt\n      tag_149\n      jumpi\n      0x00\n      dup1\n      revert\n    tag_149:\n      swap1\n      0x00\n      mstore\n      keccak256(0x00, 0x20)\n      add\n      0x00\n      swap2\n      pop\n      swap2\n      pop\n      pop\n      dup1\n      0x00\n      add\n      0x00\n      swap1\n      sload\n      swap1\n      0x0100\n      exp\n      swap1\n      div\n      0xff\n      and\n      swap1\n      dup1\n      0x00\n      add\n      0x01\n      swap1\n      sload\n      swap1\n      0x0100\n      exp\n      swap1\n      div\n      0xff\n      and\n      swap1\n      dup1\n      0x00\n      add\n      0x02\n      swap1\n      sload\n      swap1\n      0x0100\n      exp\n      swap1\n      div\n      0xffffffffffffffffffffffffffffffffffffffff\n      and\n      swap1\n      pop\n      dup4\n      jump\t// out\n        /* \"contracts/BusinessConsensus3.sol\":2391:2508  function getIsCompiled(bytes32 _messageID) public view returns (bool){\r... */\n    tag_59:\n        /* \"contracts/BusinessConsensus3.sol\":2455:2459  bool */\n      0x00\n        /* \"contracts/BusinessConsensus3.sol\":2478:2488  isCompiled */\n      0x0a\n        /* \"contracts/BusinessConsensus3.sol\":2478:2500  isCompiled[_messageID] */\n      0x00\n        /* \"contracts/BusinessConsensus3.sol\":2489:2499  _messageID */\n      dup4\n        /* \"contracts/BusinessConsensus3.sol\":2478:2500  isCompiled[_messageID] */\n      dup2\n      mstore\n      0x20\n      add\n      swap1\n      dup2\n      mstore\n      0x20\n      add\n      0x00\n      keccak256\n      0x00\n      swap1\n      sload\n      swap1\n      0x0100\n      exp\n      swap1\n      div\n      0xff\n      and\n        /* \"contracts/BusinessConsensus3.sol\":2471:2500  return isCompiled[_messageID] */\n      swap1\n      pop\n        /* \"contracts/BusinessConsensus3.sol\":2391:2508  function getIsCompiled(bytes32 _messageID) public view returns (bool){\r... */\n      swap2\n      swap1\n      pop\n      jump\t// out\n        /* \"contracts/BusinessConsensus3.sol\":613:659  mapping(bytes32 => uint256) public expiryDates */\n    tag_63:\n      mstore(0x20, 0x04)\n      dup1\n      0x00\n      mstore\n      keccak256(0x00, 0x40)\n      0x00\n      swap2\n      pop\n      swap1\n      pop\n      sload\n      dup2\n      jump\t// out\n        /* \"contracts/BusinessConsensus3.sol\":770:825  mapping(bytes32 => uint256) public businessRequirements */\n    tag_67:\n      mstore(0x20, 0x07)\n      dup1\n      0x00\n      mstore\n      keccak256(0x00, 0x40)\n      0x00\n      swap2\n      pop\n      swap1\n      pop\n      sload\n      dup2\n      jump\t// out\n        /* \"contracts/BusinessConsensus3.sol\":5695:6618  function Consensus(bytes32 _messageID) external {\r... */\n    tag_71:\n        /* \"contracts/BusinessConsensus3.sol\":5781:5792  expiryDates */\n      0x04\n        /* \"contracts/BusinessConsensus3.sol\":5781:5804  expiryDates[_messageID] */\n      0x00\n        /* \"contracts/BusinessConsensus3.sol\":5793:5803  _messageID */\n      dup3\n        /* \"contracts/BusinessConsensus3.sol\":5781:5804  expiryDates[_messageID] */\n      dup2\n      mstore\n      0x20\n      add\n      swap1\n      dup2\n      mstore\n      0x20\n      add\n      0x00\n      keccak256\n      sload\n        /* \"contracts/BusinessConsensus3.sol\":5762:5777  block.timestamp */\n      timestamp\n        /* \"contracts/BusinessConsensus3.sol\":5762:5804  block.timestamp >= expiryDates[_messageID] */\n      lt\n      iszero\n        /* \"contracts/BusinessConsensus3.sol\":5754:5841  require(block.timestamp >= expiryDates[_messageID], \"Verdict has not been reached yet\") */\n      tag_153\n      jumpi\n      mload(0x40)\n      0x08c379a000000000000000000000000000000000000000000000000000000000\n      dup2\n      mstore\n      0x04\n      add\n      tag_154\n      swap1\n      tag_136\n      jump\t// in\n    tag_154:\n      mload(0x40)\n      dup1\n      swap2\n      sub\n      swap1\n      revert\n    tag_153:\n        /* \"contracts/BusinessConsensus3.sol\":5886:5891  false */\n      0x00\n        /* \"contracts/BusinessConsensus3.sol\":5860:5891  isCompiled[_messageID] == false */\n      iszero\n      iszero\n        /* \"contracts/BusinessConsensus3.sol\":5860:5870  isCompiled */\n      0x0a\n        /* \"contracts/BusinessConsensus3.sol\":5860:5882  isCompiled[_messageID] */\n      0x00\n        /* \"contracts/BusinessConsensus3.sol\":5871:5881  _messageID */\n      dup4\n        /* \"contracts/BusinessConsensus3.sol\":5860:5882  isCompiled[_messageID] */\n      dup2\n      mstore\n      0x20\n      add\n      swap1\n      dup2\n      mstore\n      0x20\n      add\n      0x00\n      keccak256\n      0x00\n      swap1\n      sload\n      swap1\n      0x0100\n      exp\n      swap1\n      div\n      0xff\n      and\n        /* \"contracts/BusinessConsensus3.sol\":5860:5891  isCompiled[_messageID] == false */\n      iszero\n      iszero\n      eq\n        /* \"contracts/BusinessConsensus3.sol\":5852:5933  require(isCompiled[_messageID] == false, \"Consensus has already been calculated\") */\n      tag_155\n      jumpi\n      mload(0x40)\n      0x08c379a000000000000000000000000000000000000000000000000000000000\n      dup2\n      mstore\n      0x04\n      add\n      tag_156\n      swap1\n      tag_157\n      jump\t// in\n    tag_156:\n      mload(0x40)\n      dup1\n      swap2\n      sub\n      swap1\n      revert\n    tag_155:\n        /* \"contracts/BusinessConsensus3.sol\":5966:5976  initiators */\n      0x00\n        /* \"contracts/BusinessConsensus3.sol\":5966:5988  initiators[_messageID] */\n      dup1\n        /* \"contracts/BusinessConsensus3.sol\":5977:5987  _messageID */\n      dup3\n        /* \"contracts/BusinessConsensus3.sol\":5966:5988  initiators[_messageID] */\n      dup2\n      mstore\n      0x20\n      add\n      swap1\n      dup2\n      mstore\n      0x20\n      add\n      0x00\n      keccak256\n      0x00\n      swap1\n      sload\n      swap1\n      0x0100\n      exp\n      swap1\n      div\n      0xffffffffffffffffffffffffffffffffffffffff\n      and\n        /* \"contracts/BusinessConsensus3.sol\":5952:5988  msg.sender == initiators[_messageID] */\n      0xffffffffffffffffffffffffffffffffffffffff\n      and\n        /* \"contracts/BusinessConsensus3.sol\":5952:5962  msg.sender */\n      caller\n        /* \"contracts/BusinessConsensus3.sol\":5952:5988  msg.sender == initiators[_messageID] */\n      0xffffffffffffffffffffffffffffffffffffffff\n      and\n      eq\n        /* \"contracts/BusinessConsensus3.sol\":5952:6052  msg.sender == initiators[_messageID] || voter_maps[_messageID][msg.sender].recipient != address(0x0) */\n      dup1\n      tag_158\n      jumpi\n      pop\n        /* \"contracts/BusinessConsensus3.sol\":6048:6051  0x0 */\n      0x00\n        /* \"contracts/BusinessConsensus3.sol\":5992:6052  voter_maps[_messageID][msg.sender].recipient != address(0x0) */\n      0xffffffffffffffffffffffffffffffffffffffff\n      and\n        /* \"contracts/BusinessConsensus3.sol\":5992:6002  voter_maps */\n      0x0c\n        /* \"contracts/BusinessConsensus3.sol\":5992:6014  voter_maps[_messageID] */\n      0x00\n        /* \"contracts/BusinessConsensus3.sol\":6003:6013  _messageID */\n      dup4\n        /* \"contracts/BusinessConsensus3.sol\":5992:6014  voter_maps[_messageID] */\n      dup2\n      mstore\n      0x20\n      add\n      swap1\n      dup2\n      mstore\n      0x20\n      add\n      0x00\n      keccak256\n        /* \"contracts/BusinessConsensus3.sol\":5992:6026  voter_maps[_messageID][msg.sender] */\n      0x00\n        /* \"contracts/BusinessConsensus3.sol\":6015:6025  msg.sender */\n      caller\n        /* \"contracts/BusinessConsensus3.sol\":5992:6026  voter_maps[_messageID][msg.sender] */\n      0xffffffffffffffffffffffffffffffffffffffff\n      and\n      0xffffffffffffffffffffffffffffffffffffffff\n      and\n      dup2\n      mstore\n      0x20\n      add\n      swap1\n      dup2\n      mstore\n      0x20\n      add\n      0x00\n      keccak256\n        /* \"contracts/BusinessConsensus3.sol\":5992:6036  voter_maps[_messageID][msg.sender].recipient */\n      0x00\n      add\n      0x02\n      swap1\n      sload\n      swap1\n      0x0100\n      exp\n      swap1\n      div\n      0xffffffffffffffffffffffffffffffffffffffff\n      and\n        /* \"contracts/BusinessConsensus3.sol\":5992:6052  voter_maps[_messageID][msg.sender].recipient != address(0x0) */\n      0xffffffffffffffffffffffffffffffffffffffff\n      and\n      eq\n      iszero\n        /* \"contracts/BusinessConsensus3.sol\":5952:6052  msg.sender == initiators[_messageID] || voter_maps[_messageID][msg.sender].recipient != address(0x0) */\n    tag_158:\n        /* \"contracts/BusinessConsensus3.sol\":5944:6095  require(msg.sender == initiators[_messageID] || voter_maps[_messageID][msg.sender].recipient != address(0x0), \"You aren't authorize to compile Bundle\") */\n      tag_159\n      jumpi\n      mload(0x40)\n      0x08c379a000000000000000000000000000000000000000000000000000000000\n      dup2\n      mstore\n      0x04\n      add\n      tag_160\n      swap1\n      tag_161\n      jump\t// in\n    tag_160:\n      mload(0x40)\n      dup1\n      swap2\n      sub\n      swap1\n      revert\n    tag_159:\n        /* \"contracts/BusinessConsensus3.sol\":6106:6135  uint256 AccumulatedPercentage */\n      0x00\n        /* \"contracts/BusinessConsensus3.sol\":6189:6192  100 */\n      0x64\n        /* \"contracts/BusinessConsensus3.sol\":6164:6168  keys */\n      0x0e\n        /* \"contracts/BusinessConsensus3.sol\":6164:6180  keys[_messageID] */\n      0x00\n        /* \"contracts/BusinessConsensus3.sol\":6169:6179  _messageID */\n      dup5\n        /* \"contracts/BusinessConsensus3.sol\":6164:6180  keys[_messageID] */\n      dup2\n      mstore\n      0x20\n      add\n      swap1\n      dup2\n      mstore\n      0x20\n      add\n      0x00\n      keccak256\n        /* \"contracts/BusinessConsensus3.sol\":6164:6187  keys[_messageID].length */\n      dup1\n      sload\n      swap1\n      pop\n        /* \"contracts/BusinessConsensus3.sol\":6139:6151  numApprovals */\n      0x06\n        /* \"contracts/BusinessConsensus3.sol\":6139:6163  numApprovals[_messageID] */\n      0x00\n        /* \"contracts/BusinessConsensus3.sol\":6152:6162  _messageID */\n      dup6\n        /* \"contracts/BusinessConsensus3.sol\":6139:6163  numApprovals[_messageID] */\n      dup2\n      mstore\n      0x20\n      add\n      swap1\n      dup2\n      mstore\n      0x20\n      add\n      0x00\n      keccak256\n      sload\n        /* \"contracts/BusinessConsensus3.sol\":6139:6187  numApprovals[_messageID]/keys[_messageID].length */\n      tag_162\n      swap2\n      swap1\n      tag_163\n      jump\t// in\n    tag_162:\n        /* \"contracts/BusinessConsensus3.sol\":6138:6192  (numApprovals[_messageID]/keys[_messageID].length)*100 */\n      tag_164\n      swap2\n      swap1\n      tag_165\n      jump\t// in\n    tag_164:\n        /* \"contracts/BusinessConsensus3.sol\":6106:6192  uint256 AccumulatedPercentage = (numApprovals[_messageID]/keys[_messageID].length)*100 */\n      swap1\n      pop\n        /* \"contracts/BusinessConsensus3.sol\":6231:6251  businessRequirements */\n      0x07\n        /* \"contracts/BusinessConsensus3.sol\":6231:6263  businessRequirements[_messageID] */\n      0x00\n        /* \"contracts/BusinessConsensus3.sol\":6252:6262  _messageID */\n      dup4\n        /* \"contracts/BusinessConsensus3.sol\":6231:6263  businessRequirements[_messageID] */\n      dup2\n      mstore\n      0x20\n      add\n      swap1\n      dup2\n      mstore\n      0x20\n      add\n      0x00\n      keccak256\n      sload\n        /* \"contracts/BusinessConsensus3.sol\":6206:6227  AccumulatedPercentage */\n      dup2\n        /* \"contracts/BusinessConsensus3.sol\":6206:6263  AccumulatedPercentage >= businessRequirements[_messageID] */\n      lt\n        /* \"contracts/BusinessConsensus3.sol\":6203:6323  if(AccumulatedPercentage >= businessRequirements[_messageID]){\r... */\n      tag_166\n      jumpi\n        /* \"contracts/BusinessConsensus3.sol\":6307:6311  true */\n      0x01\n        /* \"contracts/BusinessConsensus3.sol\":6279:6292  finalVerdicts */\n      0x09\n        /* \"contracts/BusinessConsensus3.sol\":6279:6304  finalVerdicts[_messageID] */\n      0x00\n        /* \"contracts/BusinessConsensus3.sol\":6293:6303  _messageID */\n      dup5\n        /* \"contracts/BusinessConsensus3.sol\":6279:6304  finalVerdicts[_messageID] */\n      dup2\n      mstore\n      0x20\n      add\n      swap1\n      dup2\n      mstore\n      0x20\n      add\n      0x00\n      keccak256\n      0x00\n        /* \"contracts/BusinessConsensus3.sol\":6279:6311  finalVerdicts[_messageID] = true */\n      0x0100\n      exp\n      dup2\n      sload\n      dup2\n      0xff\n      mul\n      not\n      and\n      swap1\n      dup4\n      iszero\n      iszero\n      mul\n      or\n      swap1\n      sstore\n      pop\n        /* \"contracts/BusinessConsensus3.sol\":6203:6323  if(AccumulatedPercentage >= businessRequirements[_messageID]){\r... */\n    tag_166:\n        /* \"contracts/BusinessConsensus3.sol\":6337:6344  uint8 i */\n      0x00\n        /* \"contracts/BusinessConsensus3.sol\":6333:6571  for(uint8 i=0; i< keys[_messageID].length; i++){\r... */\n    tag_167:\n        /* \"contracts/BusinessConsensus3.sol\":6351:6355  keys */\n      0x0e\n        /* \"contracts/BusinessConsensus3.sol\":6351:6367  keys[_messageID] */\n      0x00\n        /* \"contracts/BusinessConsensus3.sol\":6356:6366  _messageID */\n      dup5\n        /* \"contracts/BusinessConsensus3.sol\":6351:6367  keys[_messageID] */\n      dup2\n      mstore\n      0x20\n      add\n      swap1\n      dup2\n      mstore\n      0x20\n      add\n      0x00\n      keccak256\n        /* \"contracts/BusinessConsensus3.sol\":6351:6374  keys[_messageID].length */\n      dup1\n      sload\n      swap1\n      pop\n        /* \"contracts/BusinessConsensus3.sol\":6348:6349  i */\n      dup2\n        /* \"contracts/BusinessConsensus3.sol\":6348:6374  i< keys[_messageID].length */\n      0xff\n      and\n      lt\n        /* \"contracts/BusinessConsensus3.sol\":6333:6571  for(uint8 i=0; i< keys[_messageID].length; i++){\r... */\n      iszero\n      tag_168\n      jumpi\n        /* \"contracts/BusinessConsensus3.sol\":6451:6456  false */\n      0x00\n        /* \"contracts/BusinessConsensus3.sol\":6398:6456  voter_maps[_messageID][keys[_messageID][i]].voted == false */\n      iszero\n      iszero\n        /* \"contracts/BusinessConsensus3.sol\":6398:6408  voter_maps */\n      0x0c\n        /* \"contracts/BusinessConsensus3.sol\":6398:6420  voter_maps[_messageID] */\n      0x00\n        /* \"contracts/BusinessConsensus3.sol\":6409:6419  _messageID */\n      dup6\n        /* \"contracts/BusinessConsensus3.sol\":6398:6420  voter_maps[_messageID] */\n      dup2\n      mstore\n      0x20\n      add\n      swap1\n      dup2\n      mstore\n      0x20\n      add\n      0x00\n      keccak256\n        /* \"contracts/BusinessConsensus3.sol\":6398:6441  voter_maps[_messageID][keys[_messageID][i]] */\n      0x00\n        /* \"contracts/BusinessConsensus3.sol\":6421:6425  keys */\n      0x0e\n        /* \"contracts/BusinessConsensus3.sol\":6421:6437  keys[_messageID] */\n      0x00\n        /* \"contracts/BusinessConsensus3.sol\":6426:6436  _messageID */\n      dup8\n        /* \"contracts/BusinessConsensus3.sol\":6421:6437  keys[_messageID] */\n      dup2\n      mstore\n      0x20\n      add\n      swap1\n      dup2\n      mstore\n      0x20\n      add\n      0x00\n      keccak256\n        /* \"contracts/BusinessConsensus3.sol\":6438:6439  i */\n      dup5\n        /* \"contracts/BusinessConsensus3.sol\":6421:6440  keys[_messageID][i] */\n      0xff\n      and\n      dup2\n      sload\n      dup2\n      lt\n      tag_170\n      jumpi\n      tag_171\n      tag_172\n      jump\t// in\n    tag_171:\n    tag_170:\n      swap1\n      0x00\n      mstore\n      keccak256(0x00, 0x20)\n      add\n      0x00\n      swap1\n      sload\n      swap1\n      0x0100\n      exp\n      swap1\n      div\n      0xffffffffffffffffffffffffffffffffffffffff\n      and\n        /* \"contracts/BusinessConsensus3.sol\":6398:6441  voter_maps[_messageID][keys[_messageID][i]] */\n      0xffffffffffffffffffffffffffffffffffffffff\n      and\n      0xffffffffffffffffffffffffffffffffffffffff\n      and\n      dup2\n      mstore\n      0x20\n      add\n      swap1\n      dup2\n      mstore\n      0x20\n      add\n      0x00\n      keccak256\n        /* \"contracts/BusinessConsensus3.sol\":6398:6447  voter_maps[_messageID][keys[_messageID][i]].voted */\n      0x00\n      add\n      0x00\n      swap1\n      sload\n      swap1\n      0x0100\n      exp\n      swap1\n      div\n      0xff\n      and\n        /* \"contracts/BusinessConsensus3.sol\":6398:6456  voter_maps[_messageID][keys[_messageID][i]].voted == false */\n      iszero\n      iszero\n      eq\n        /* \"contracts/BusinessConsensus3.sol\":6395:6560  if(voter_maps[_messageID][keys[_messageID][i]].voted == false){\r... */\n      iszero\n      tag_174\n      jumpi\n        /* \"contracts/BusinessConsensus3.sol\":6476:6482  Voters */\n      0x0d\n        /* \"contracts/BusinessConsensus3.sol\":6476:6494  Voters[_messageID] */\n      0x00\n        /* \"contracts/BusinessConsensus3.sol\":6483:6493  _messageID */\n      dup5\n        /* \"contracts/BusinessConsensus3.sol\":6476:6494  Voters[_messageID] */\n      dup2\n      mstore\n      0x20\n      add\n      swap1\n      dup2\n      mstore\n      0x20\n      add\n      0x00\n      keccak256\n        /* \"contracts/BusinessConsensus3.sol\":6500:6510  voter_maps */\n      0x0c\n        /* \"contracts/BusinessConsensus3.sol\":6500:6522  voter_maps[_messageID] */\n      0x00\n        /* \"contracts/BusinessConsensus3.sol\":6511:6521  _messageID */\n      dup6\n        /* \"contracts/BusinessConsensus3.sol\":6500:6522  voter_maps[_messageID] */\n      dup2\n      mstore\n      0x20\n      add\n      swap1\n      dup2\n      mstore\n      0x20\n      add\n      0x00\n      keccak256\n        /* \"contracts/BusinessConsensus3.sol\":6500:6543  voter_maps[_messageID][keys[_messageID][i]] */\n      0x00\n        /* \"contracts/BusinessConsensus3.sol\":6523:6527  keys */\n      0x0e\n        /* \"contracts/BusinessConsensus3.sol\":6523:6539  keys[_messageID] */\n      0x00\n        /* \"contracts/BusinessConsensus3.sol\":6528:6538  _messageID */\n      dup8\n        /* \"contracts/BusinessConsensus3.sol\":6523:6539  keys[_messageID] */\n      dup2\n      mstore\n      0x20\n      add\n      swap1\n      dup2\n      mstore\n      0x20\n      add\n      0x00\n      keccak256\n        /* \"contracts/BusinessConsensus3.sol\":6540:6541  i */\n      dup5\n        /* \"contracts/BusinessConsensus3.sol\":6523:6542  keys[_messageID][i] */\n      0xff\n      and\n      dup2\n      sload\n      dup2\n      lt\n      tag_175\n      jumpi\n      tag_176\n      tag_172\n      jump\t// in\n    tag_176:\n    tag_175:\n      swap1\n      0x00\n      mstore\n      keccak256(0x00, 0x20)\n      add\n      0x00\n      swap1\n      sload\n      swap1\n      0x0100\n      exp\n      swap1\n      div\n      0xffffffffffffffffffffffffffffffffffffffff\n      and\n        /* \"contracts/BusinessConsensus3.sol\":6500:6543  voter_maps[_messageID][keys[_messageID][i]] */\n      0xffffffffffffffffffffffffffffffffffffffff\n      and\n      0xffffffffffffffffffffffffffffffffffffffff\n      and\n      dup2\n      mstore\n      0x20\n      add\n      swap1\n      dup2\n      mstore\n      0x20\n      add\n      0x00\n      keccak256\n        /* \"contracts/BusinessConsensus3.sol\":6476:6544  Voters[_messageID].push(voter_maps[_messageID][keys[_messageID][i]]) */\n      swap1\n      dup1\n      0x01\n      dup2\n      sload\n      add\n      dup1\n      dup3\n      sstore\n      dup1\n      swap2\n      pop\n      pop\n      0x01\n      swap1\n      sub\n      swap1\n      0x00\n      mstore\n      keccak256(0x00, 0x20)\n      add\n      0x00\n      swap1\n      swap2\n      swap1\n      swap2\n      swap1\n      swap2\n      pop\n      0x00\n      dup3\n      add\n      0x00\n      swap1\n      sload\n      swap1\n      0x0100\n      exp\n      swap1\n      div\n      0xff\n      and\n      dup2\n      0x00\n      add\n      exp(0x0100, 0x00)\n      dup2\n      sload\n      dup2\n      0xff\n      mul\n      not\n      and\n      swap1\n      dup4\n      iszero\n      iszero\n      mul\n      or\n      swap1\n      sstore\n      pop\n      0x00\n      dup3\n      add\n      0x01\n      swap1\n      sload\n      swap1\n      0x0100\n      exp\n      swap1\n      div\n      0xff\n      and\n      dup2\n      0x00\n      add\n      exp(0x0100, 0x01)\n      dup2\n      sload\n      dup2\n      0xff\n      mul\n      not\n      and\n      swap1\n      dup4\n      iszero\n      iszero\n      mul\n      or\n      swap1\n      sstore\n      pop\n      0x00\n      dup3\n      add\n      0x02\n      swap1\n      sload\n      swap1\n      0x0100\n      exp\n      swap1\n      div\n      0xffffffffffffffffffffffffffffffffffffffff\n      and\n      dup2\n      0x00\n      add\n      exp(0x0100, 0x02)\n      dup2\n      sload\n      dup2\n      0xffffffffffffffffffffffffffffffffffffffff\n      mul\n      not\n      and\n      swap1\n      dup4\n      0xffffffffffffffffffffffffffffffffffffffff\n      and\n      mul\n      or\n      swap1\n      sstore\n      pop\n      pop\n      pop\n        /* \"contracts/BusinessConsensus3.sol\":6395:6560  if(voter_maps[_messageID][keys[_messageID][i]].voted == false){\r... */\n    tag_174:\n        /* \"contracts/BusinessConsensus3.sol\":6376:6379  i++ */\n      dup1\n      dup1\n      tag_179\n      swap1\n      tag_180\n      jump\t// in\n    tag_179:\n      swap2\n      pop\n      pop\n        /* \"contracts/BusinessConsensus3.sol\":6333:6571  for(uint8 i=0; i< keys[_messageID].length; i++){\r... */\n      jump(tag_167)\n    tag_168:\n      pop\n        /* \"contracts/BusinessConsensus3.sol\":6606:6610  true */\n      0x01\n        /* \"contracts/BusinessConsensus3.sol\":6581:6591  isCompiled */\n      0x0a\n        /* \"contracts/BusinessConsensus3.sol\":6581:6603  isCompiled[_messageID] */\n      0x00\n        /* \"contracts/BusinessConsensus3.sol\":6592:6602  _messageID */\n      dup5\n        /* \"contracts/BusinessConsensus3.sol\":6581:6603  isCompiled[_messageID] */\n      dup2\n      mstore\n      0x20\n      add\n      swap1\n      dup2\n      mstore\n      0x20\n      add\n      0x00\n      keccak256\n      0x00\n        /* \"contracts/BusinessConsensus3.sol\":6581:6610  isCompiled[_messageID] = true */\n      0x0100\n      exp\n      dup2\n      sload\n      dup2\n      0xff\n      mul\n      not\n      and\n      swap1\n      dup4\n      iszero\n      iszero\n      mul\n      or\n      swap1\n      sstore\n      pop\n        /* \"contracts/BusinessConsensus3.sol\":5743:6618  {\r... */\n      pop\n        /* \"contracts/BusinessConsensus3.sol\":5695:6618  function Consensus(bytes32 _messageID) external {\r... */\n      pop\n      jump\t// out\n        /* \"contracts/BusinessConsensus3.sol\":1148:1187  mapping(bytes32=>address[]) public keys */\n    tag_74:\n      mstore(0x20, 0x0e)\n      dup2\n      0x00\n      mstore\n      keccak256(0x00, 0x40)\n      dup2\n      dup2\n      sload\n      dup2\n      lt\n      tag_181\n      jumpi\n      0x00\n      dup1\n      revert\n    tag_181:\n      swap1\n      0x00\n      mstore\n      keccak256(0x00, 0x20)\n      add\n      0x00\n      swap2\n      pop\n      swap2\n      pop\n      swap1\n      sload\n      swap1\n      0x0100\n      exp\n      swap1\n      div\n      0xffffffffffffffffffffffffffffffffffffffff\n      and\n      dup2\n      jump\t// out\n        /* \"contracts/BusinessConsensus3.sol\":506:551  mapping(bytes32 => uint256) public voteCounts */\n    tag_79:\n      mstore(0x20, 0x02)\n      dup1\n      0x00\n      mstore\n      keccak256(0x00, 0x40)\n      0x00\n      swap2\n      pop\n      swap1\n      pop\n      sload\n      dup2\n      jump\t// out\n        /* \"contracts/BusinessConsensus3.sol\":937:979  mapping(bytes32 => bool) public isCompiled */\n    tag_83:\n      mstore(0x20, 0x0a)\n      dup1\n      0x00\n      mstore\n      keccak256(0x00, 0x40)\n      0x00\n      swap2\n      pop\n      sload\n      swap1\n      0x0100\n      exp\n      swap1\n      div\n      0xff\n      and\n      dup2\n      jump\t// out\n        /* \"contracts/BusinessConsensus3.sol\":4334:5631  function Vote(string memory response,bytes32 _messageID) external {\r... */\n    tag_88:\n        /* \"contracts/BusinessConsensus3.sol\":4439:4450  expiryDates */\n      0x04\n        /* \"contracts/BusinessConsensus3.sol\":4439:4462  expiryDates[_messageID] */\n      0x00\n        /* \"contracts/BusinessConsensus3.sol\":4451:4461  _messageID */\n      dup3\n        /* \"contracts/BusinessConsensus3.sol\":4439:4462  expiryDates[_messageID] */\n      dup2\n      mstore\n      0x20\n      add\n      swap1\n      dup2\n      mstore\n      0x20\n      add\n      0x00\n      keccak256\n      sload\n        /* \"contracts/BusinessConsensus3.sol\":4421:4436  block.timestamp */\n      timestamp\n        /* \"contracts/BusinessConsensus3.sol\":4421:4462  block.timestamp < expiryDates[_messageID] */\n      lt\n        /* \"contracts/BusinessConsensus3.sol\":4413:4485  require(block.timestamp < expiryDates[_messageID], \"Voting has expired\") */\n      tag_184\n      jumpi\n      mload(0x40)\n      0x08c379a000000000000000000000000000000000000000000000000000000000\n      dup2\n      mstore\n      0x04\n      add\n      tag_185\n      swap1\n      tag_186\n      jump\t// in\n    tag_185:\n      mload(0x40)\n      dup1\n      swap2\n      sub\n      swap1\n      revert\n    tag_184:\n        /* \"contracts/BusinessConsensus3.sol\":4560:4563  0x0 */\n      0x00\n        /* \"contracts/BusinessConsensus3.sol\":4504:4564  voter_maps[_messageID][msg.sender].recipient != address(0x0) */\n      0xffffffffffffffffffffffffffffffffffffffff\n      and\n        /* \"contracts/BusinessConsensus3.sol\":4504:4514  voter_maps */\n      0x0c\n        /* \"contracts/BusinessConsensus3.sol\":4504:4526  voter_maps[_messageID] */\n      0x00\n        /* \"contracts/BusinessConsensus3.sol\":4515:4525  _messageID */\n      dup4\n        /* \"contracts/BusinessConsensus3.sol\":4504:4526  voter_maps[_messageID] */\n      dup2\n      mstore\n      0x20\n      add\n      swap1\n      dup2\n      mstore\n      0x20\n      add\n      0x00\n      keccak256\n        /* \"contracts/BusinessConsensus3.sol\":4504:4538  voter_maps[_messageID][msg.sender] */\n      0x00\n        /* \"contracts/BusinessConsensus3.sol\":4527:4537  msg.sender */\n      caller\n        /* \"contracts/BusinessConsensus3.sol\":4504:4538  voter_maps[_messageID][msg.sender] */\n      0xffffffffffffffffffffffffffffffffffffffff\n      and\n      0xffffffffffffffffffffffffffffffffffffffff\n      and\n      dup2\n      mstore\n      0x20\n      add\n      swap1\n      dup2\n      mstore\n      0x20\n      add\n      0x00\n      keccak256\n        /* \"contracts/BusinessConsensus3.sol\":4504:4548  voter_maps[_messageID][msg.sender].recipient */\n      0x00\n      add\n      0x02\n      swap1\n      sload\n      swap1\n      0x0100\n      exp\n      swap1\n      div\n      0xffffffffffffffffffffffffffffffffffffffff\n      and\n        /* \"contracts/BusinessConsensus3.sol\":4504:4564  voter_maps[_messageID][msg.sender].recipient != address(0x0) */\n      0xffffffffffffffffffffffffffffffffffffffff\n      and\n      eq\n      iszero\n        /* \"contracts/BusinessConsensus3.sol\":4496:4599  require(voter_maps[_messageID][msg.sender].recipient != address(0x0), \"You are not registered to vote\") */\n      tag_187\n      jumpi\n      mload(0x40)\n      0x08c379a000000000000000000000000000000000000000000000000000000000\n      dup2\n      mstore\n      0x04\n      add\n      tag_188\n      swap1\n      tag_189\n      jump\t// in\n    tag_188:\n      mload(0x40)\n      dup1\n      swap2\n      sub\n      swap1\n      revert\n    tag_187:\n        /* \"contracts/BusinessConsensus3.sol\":4619:4629  voter_maps */\n      0x0c\n        /* \"contracts/BusinessConsensus3.sol\":4619:4641  voter_maps[_messageID] */\n      0x00\n        /* \"contracts/BusinessConsensus3.sol\":4630:4640  _messageID */\n      dup3\n        /* \"contracts/BusinessConsensus3.sol\":4619:4641  voter_maps[_messageID] */\n      dup2\n      mstore\n      0x20\n      add\n      swap1\n      dup2\n      mstore\n      0x20\n      add\n      0x00\n      keccak256\n        /* \"contracts/BusinessConsensus3.sol\":4619:4653  voter_maps[_messageID][msg.sender] */\n      0x00\n        /* \"contracts/BusinessConsensus3.sol\":4642:4652  msg.sender */\n      caller\n        /* \"contracts/BusinessConsensus3.sol\":4619:4653  voter_maps[_messageID][msg.sender] */\n      0xffffffffffffffffffffffffffffffffffffffff\n      and\n      0xffffffffffffffffffffffffffffffffffffffff\n      and\n      dup2\n      mstore\n      0x20\n      add\n      swap1\n      dup2\n      mstore\n      0x20\n      add\n      0x00\n      keccak256\n        /* \"contracts/BusinessConsensus3.sol\":4619:4659  voter_maps[_messageID][msg.sender].voted */\n      0x00\n      add\n      0x00\n      swap1\n      sload\n      swap1\n      0x0100\n      exp\n      swap1\n      div\n      0xff\n      and\n        /* \"contracts/BusinessConsensus3.sol\":4618:4659  !voter_maps[_messageID][msg.sender].voted */\n      iszero\n        /* \"contracts/BusinessConsensus3.sol\":4610:4692  require(!voter_maps[_messageID][msg.sender].voted, \"You already sent a response.\") */\n      tag_190\n      jumpi\n      mload(0x40)\n      0x08c379a000000000000000000000000000000000000000000000000000000000\n      dup2\n      mstore\n      0x04\n      add\n      tag_191\n      swap1\n      tag_192\n      jump\t// in\n    tag_191:\n      mload(0x40)\n      dup1\n      swap2\n      sub\n      swap1\n      revert\n    tag_190:\n        /* \"contracts/BusinessConsensus3.sol\":4748:4766  bytes(\"i approve\") */\n      mload(0x40)\n      dup1\n      0x40\n      add\n      0x40\n      mstore\n      dup1\n      0x09\n      dup2\n      mstore\n      0x20\n      add\n      0x6920617070726f76650000000000000000000000000000000000000000000000\n      dup2\n      mstore\n      pop\n        /* \"contracts/BusinessConsensus3.sol\":4738:4767  keccak256(bytes(\"i approve\")) */\n      dup1\n      mload\n      swap1\n      0x20\n      add\n      keccak256\n        /* \"contracts/BusinessConsensus3.sol\":4724:4732  response */\n      dup3\n        /* \"contracts/BusinessConsensus3.sol\":4708:4734  keccak256(bytes(response)) */\n      dup1\n      mload\n      swap1\n      0x20\n      add\n      keccak256\n        /* \"contracts/BusinessConsensus3.sol\":4708:4767  keccak256(bytes(response)) == keccak256(bytes(\"i approve\")) */\n      eq\n        /* \"contracts/BusinessConsensus3.sol\":4705:5614  if(keccak256(bytes(response)) == keccak256(bytes(\"i approve\"))){\r... */\n      iszero\n      tag_193\n      jumpi\n        /* \"contracts/BusinessConsensus3.sol\":4826:4830  true */\n      0x01\n        /* \"contracts/BusinessConsensus3.sol\":4783:4793  voter_maps */\n      0x0c\n        /* \"contracts/BusinessConsensus3.sol\":4783:4805  voter_maps[_messageID] */\n      0x00\n        /* \"contracts/BusinessConsensus3.sol\":4794:4804  _messageID */\n      dup4\n        /* \"contracts/BusinessConsensus3.sol\":4783:4805  voter_maps[_messageID] */\n      dup2\n      mstore\n      0x20\n      add\n      swap1\n      dup2\n      mstore\n      0x20\n      add\n      0x00\n      keccak256\n        /* \"contracts/BusinessConsensus3.sol\":4783:4817  voter_maps[_messageID][msg.sender] */\n      0x00\n        /* \"contracts/BusinessConsensus3.sol\":4806:4816  msg.sender */\n      caller\n        /* \"contracts/BusinessConsensus3.sol\":4783:4817  voter_maps[_messageID][msg.sender] */\n      0xffffffffffffffffffffffffffffffffffffffff\n      and\n      0xffffffffffffffffffffffffffffffffffffffff\n      and\n      dup2\n      mstore\n      0x20\n      add\n      swap1\n      dup2\n      mstore\n      0x20\n      add\n      0x00\n      keccak256\n        /* \"contracts/BusinessConsensus3.sol\":4783:4823  voter_maps[_messageID][msg.sender].voted */\n      0x00\n      add\n      0x00\n        /* \"contracts/BusinessConsensus3.sol\":4783:4830  voter_maps[_messageID][msg.sender].voted = true */\n      0x0100\n      exp\n      dup2\n      sload\n      dup2\n      0xff\n      mul\n      not\n      and\n      swap1\n      dup4\n      iszero\n      iszero\n      mul\n      or\n      swap1\n      sstore\n      pop\n        /* \"contracts/BusinessConsensus3.sol\":4887:4891  true */\n      0x01\n        /* \"contracts/BusinessConsensus3.sol\":4845:4855  voter_maps */\n      0x0c\n        /* \"contracts/BusinessConsensus3.sol\":4845:4867  voter_maps[_messageID] */\n      0x00\n        /* \"contracts/BusinessConsensus3.sol\":4856:4866  _messageID */\n      dup4\n        /* \"contracts/BusinessConsensus3.sol\":4845:4867  voter_maps[_messageID] */\n      dup2\n      mstore\n      0x20\n      add\n      swap1\n      dup2\n      mstore\n      0x20\n      add\n      0x00\n      keccak256\n        /* \"contracts/BusinessConsensus3.sol\":4845:4879  voter_maps[_messageID][msg.sender] */\n      0x00\n        /* \"contracts/BusinessConsensus3.sol\":4868:4878  msg.sender */\n      caller\n        /* \"contracts/BusinessConsensus3.sol\":4845:4879  voter_maps[_messageID][msg.sender] */\n      0xffffffffffffffffffffffffffffffffffffffff\n      and\n      0xffffffffffffffffffffffffffffffffffffffff\n      and\n      dup2\n      mstore\n      0x20\n      add\n      swap1\n      dup2\n      mstore\n      0x20\n      add\n      0x00\n      keccak256\n        /* \"contracts/BusinessConsensus3.sol\":4845:4884  voter_maps[_messageID][msg.sender].vote */\n      0x00\n      add\n      0x01\n        /* \"contracts/BusinessConsensus3.sol\":4845:4891  voter_maps[_messageID][msg.sender].vote = true */\n      0x0100\n      exp\n      dup2\n      sload\n      dup2\n      0xff\n      mul\n      not\n      and\n      swap1\n      dup4\n      iszero\n      iszero\n      mul\n      or\n      swap1\n      sstore\n      pop\n        /* \"contracts/BusinessConsensus3.sol\":4934:4935  1 */\n      0x01\n        /* \"contracts/BusinessConsensus3.sol\":4906:4918  numApprovals */\n      0x06\n        /* \"contracts/BusinessConsensus3.sol\":4906:4930  numApprovals[_messageID] */\n      0x00\n        /* \"contracts/BusinessConsensus3.sol\":4919:4929  _messageID */\n      dup4\n        /* \"contracts/BusinessConsensus3.sol\":4906:4930  numApprovals[_messageID] */\n      dup2\n      mstore\n      0x20\n      add\n      swap1\n      dup2\n      mstore\n      0x20\n      add\n      0x00\n      keccak256\n      0x00\n        /* \"contracts/BusinessConsensus3.sol\":4906:4935  numApprovals[_messageID] += 1 */\n      dup3\n      dup3\n      sload\n      tag_194\n      swap2\n      swap1\n      tag_195\n      jump\t// in\n    tag_194:\n      swap3\n      pop\n      pop\n      dup2\n      swap1\n      sstore\n      pop\n        /* \"contracts/BusinessConsensus3.sol\":4976:4977  1 */\n      0x01\n        /* \"contracts/BusinessConsensus3.sol\":4950:4960  voteCounts */\n      0x02\n        /* \"contracts/BusinessConsensus3.sol\":4950:4972  voteCounts[_messageID] */\n      0x00\n        /* \"contracts/BusinessConsensus3.sol\":4961:4971  _messageID */\n      dup4\n        /* \"contracts/BusinessConsensus3.sol\":4950:4972  voteCounts[_messageID] */\n      dup2\n      mstore\n      0x20\n      add\n      swap1\n      dup2\n      mstore\n      0x20\n      add\n      0x00\n      keccak256\n      0x00\n        /* \"contracts/BusinessConsensus3.sol\":4950:4977  voteCounts[_messageID] += 1 */\n      dup3\n      dup3\n      sload\n      tag_196\n      swap2\n      swap1\n      tag_195\n      jump\t// in\n    tag_196:\n      swap3\n      pop\n      pop\n      dup2\n      swap1\n      sstore\n      pop\n        /* \"contracts/BusinessConsensus3.sol\":4992:4998  Voters */\n      0x0d\n        /* \"contracts/BusinessConsensus3.sol\":4992:5010  Voters[_messageID] */\n      0x00\n        /* \"contracts/BusinessConsensus3.sol\":4999:5009  _messageID */\n      dup3\n        /* \"contracts/BusinessConsensus3.sol\":4992:5010  Voters[_messageID] */\n      dup2\n      mstore\n      0x20\n      add\n      swap1\n      dup2\n      mstore\n      0x20\n      add\n      0x00\n      keccak256\n        /* \"contracts/BusinessConsensus3.sol\":5016:5026  voter_maps */\n      0x0c\n        /* \"contracts/BusinessConsensus3.sol\":5016:5038  voter_maps[_messageID] */\n      0x00\n        /* \"contracts/BusinessConsensus3.sol\":5027:5037  _messageID */\n      dup4\n        /* \"contracts/BusinessConsensus3.sol\":5016:5038  voter_maps[_messageID] */\n      dup2\n      mstore\n      0x20\n      add\n      swap1\n      dup2\n      mstore\n      0x20\n      add\n      0x00\n      keccak256\n        /* \"contracts/BusinessConsensus3.sol\":5016:5050  voter_maps[_messageID][msg.sender] */\n      0x00\n        /* \"contracts/BusinessConsensus3.sol\":5039:5049  msg.sender */\n      caller\n        /* \"contracts/BusinessConsensus3.sol\":5016:5050  voter_maps[_messageID][msg.sender] */\n      0xffffffffffffffffffffffffffffffffffffffff\n      and\n      0xffffffffffffffffffffffffffffffffffffffff\n      and\n      dup2\n      mstore\n      0x20\n      add\n      swap1\n      dup2\n      mstore\n      0x20\n      add\n      0x00\n      keccak256\n        /* \"contracts/BusinessConsensus3.sol\":4992:5051  Voters[_messageID].push(voter_maps[_messageID][msg.sender]) */\n      swap1\n      dup1\n      0x01\n      dup2\n      sload\n      add\n      dup1\n      dup3\n      sstore\n      dup1\n      swap2\n      pop\n      pop\n      0x01\n      swap1\n      sub\n      swap1\n      0x00\n      mstore\n      keccak256(0x00, 0x20)\n      add\n      0x00\n      swap1\n      swap2\n      swap1\n      swap2\n      swap1\n      swap2\n      pop\n      0x00\n      dup3\n      add\n      0x00\n      swap1\n      sload\n      swap1\n      0x0100\n      exp\n      swap1\n      div\n      0xff\n      and\n      dup2\n      0x00\n      add\n      exp(0x0100, 0x00)\n      dup2\n      sload\n      dup2\n      0xff\n      mul\n      not\n      and\n      swap1\n      dup4\n      iszero\n      iszero\n      mul\n      or\n      swap1\n      sstore\n      pop\n      0x00\n      dup3\n      add\n      0x01\n      swap1\n      sload\n      swap1\n      0x0100\n      exp\n      swap1\n      div\n      0xff\n      and\n      dup2\n      0x00\n      add\n      exp(0x0100, 0x01)\n      dup2\n      sload\n      dup2\n      0xff\n      mul\n      not\n      and\n      swap1\n      dup4\n      iszero\n      iszero\n      mul\n      or\n      swap1\n      sstore\n      pop\n      0x00\n      dup3\n      add\n      0x02\n      swap1\n      sload\n      swap1\n      0x0100\n      exp\n      swap1\n      div\n      0xffffffffffffffffffffffffffffffffffffffff\n      and\n      dup2\n      0x00\n      add\n      exp(0x0100, 0x02)\n      dup2\n      sload\n      dup2\n      0xffffffffffffffffffffffffffffffffffffffff\n      mul\n      not\n      and\n      swap1\n      dup4\n      0xffffffffffffffffffffffffffffffffffffffff\n      and\n      mul\n      or\n      swap1\n      sstore\n      pop\n      pop\n      pop\n        /* \"contracts/BusinessConsensus3.sol\":4705:5614  if(keccak256(bytes(response)) == keccak256(bytes(\"i approve\"))){\r... */\n      jump(tag_198)\n    tag_193:\n        /* \"contracts/BusinessConsensus3.sol\":5123:5144  bytes(\"i disapprove\") */\n      mload(0x40)\n      dup1\n      0x40\n      add\n      0x40\n      mstore\n      dup1\n      0x0c\n      dup2\n      mstore\n      0x20\n      add\n      0x6920646973617070726f76650000000000000000000000000000000000000000\n      dup2\n      mstore\n      pop\n        /* \"contracts/BusinessConsensus3.sol\":5113:5145  keccak256(bytes(\"i disapprove\")) */\n      dup1\n      mload\n      swap1\n      0x20\n      add\n      keccak256\n        /* \"contracts/BusinessConsensus3.sol\":5099:5107  response */\n      dup3\n        /* \"contracts/BusinessConsensus3.sol\":5083:5109  keccak256(bytes(response)) */\n      dup1\n      mload\n      swap1\n      0x20\n      add\n      keccak256\n        /* \"contracts/BusinessConsensus3.sol\":5083:5145  keccak256(bytes(response)) == keccak256(bytes(\"i disapprove\")) */\n      eq\n        /* \"contracts/BusinessConsensus3.sol\":5080:5614  if(keccak256(bytes(response)) == keccak256(bytes(\"i disapprove\"))){\r... */\n      iszero\n      tag_199\n      jumpi\n        /* \"contracts/BusinessConsensus3.sol\":5204:5208  true */\n      0x01\n        /* \"contracts/BusinessConsensus3.sol\":5161:5171  voter_maps */\n      0x0c\n        /* \"contracts/BusinessConsensus3.sol\":5161:5183  voter_maps[_messageID] */\n      0x00\n        /* \"contracts/BusinessConsensus3.sol\":5172:5182  _messageID */\n      dup4\n        /* \"contracts/BusinessConsensus3.sol\":5161:5183  voter_maps[_messageID] */\n      dup2\n      mstore\n      0x20\n      add\n      swap1\n      dup2\n      mstore\n      0x20\n      add\n      0x00\n      keccak256\n        /* \"contracts/BusinessConsensus3.sol\":5161:5195  voter_maps[_messageID][msg.sender] */\n      0x00\n        /* \"contracts/BusinessConsensus3.sol\":5184:5194  msg.sender */\n      caller\n        /* \"contracts/BusinessConsensus3.sol\":5161:5195  voter_maps[_messageID][msg.sender] */\n      0xffffffffffffffffffffffffffffffffffffffff\n      and\n      0xffffffffffffffffffffffffffffffffffffffff\n      and\n      dup2\n      mstore\n      0x20\n      add\n      swap1\n      dup2\n      mstore\n      0x20\n      add\n      0x00\n      keccak256\n        /* \"contracts/BusinessConsensus3.sol\":5161:5201  voter_maps[_messageID][msg.sender].voted */\n      0x00\n      add\n      0x00\n        /* \"contracts/BusinessConsensus3.sol\":5161:5208  voter_maps[_messageID][msg.sender].voted = true */\n      0x0100\n      exp\n      dup2\n      sload\n      dup2\n      0xff\n      mul\n      not\n      and\n      swap1\n      dup4\n      iszero\n      iszero\n      mul\n      or\n      swap1\n      sstore\n      pop\n        /* \"contracts/BusinessConsensus3.sol\":5249:5250  1 */\n      0x01\n        /* \"contracts/BusinessConsensus3.sol\":5223:5233  voteCounts */\n      0x02\n        /* \"contracts/BusinessConsensus3.sol\":5223:5245  voteCounts[_messageID] */\n      0x00\n        /* \"contracts/BusinessConsensus3.sol\":5234:5244  _messageID */\n      dup4\n        /* \"contracts/BusinessConsensus3.sol\":5223:5245  voteCounts[_messageID] */\n      dup2\n      mstore\n      0x20\n      add\n      swap1\n      dup2\n      mstore\n      0x20\n      add\n      0x00\n      keccak256\n      0x00\n        /* \"contracts/BusinessConsensus3.sol\":5223:5250  voteCounts[_messageID] += 1 */\n      dup3\n      dup3\n      sload\n      tag_200\n      swap2\n      swap1\n      tag_195\n      jump\t// in\n    tag_200:\n      swap3\n      pop\n      pop\n      dup2\n      swap1\n      sstore\n      pop\n        /* \"contracts/BusinessConsensus3.sol\":5265:5271  Voters */\n      0x0d\n        /* \"contracts/BusinessConsensus3.sol\":5265:5283  Voters[_messageID] */\n      0x00\n        /* \"contracts/BusinessConsensus3.sol\":5272:5282  _messageID */\n      dup3\n        /* \"contracts/BusinessConsensus3.sol\":5265:5283  Voters[_messageID] */\n      dup2\n      mstore\n      0x20\n      add\n      swap1\n      dup2\n      mstore\n      0x20\n      add\n      0x00\n      keccak256\n        /* \"contracts/BusinessConsensus3.sol\":5289:5299  voter_maps */\n      0x0c\n        /* \"contracts/BusinessConsensus3.sol\":5289:5311  voter_maps[_messageID] */\n      0x00\n        /* \"contracts/BusinessConsensus3.sol\":5300:5310  _messageID */\n      dup4\n        /* \"contracts/BusinessConsensus3.sol\":5289:5311  voter_maps[_messageID] */\n      dup2\n      mstore\n      0x20\n      add\n      swap1\n      dup2\n      mstore\n      0x20\n      add\n      0x00\n      keccak256\n        /* \"contracts/BusinessConsensus3.sol\":5289:5323  voter_maps[_messageID][msg.sender] */\n      0x00\n        /* \"contracts/BusinessConsensus3.sol\":5312:5322  msg.sender */\n      caller\n        /* \"contracts/BusinessConsensus3.sol\":5289:5323  voter_maps[_messageID][msg.sender] */\n      0xffffffffffffffffffffffffffffffffffffffff\n      and\n      0xffffffffffffffffffffffffffffffffffffffff\n      and\n      dup2\n      mstore\n      0x20\n      add\n      swap1\n      dup2\n      mstore\n      0x20\n      add\n      0x00\n      keccak256\n        /* \"contracts/BusinessConsensus3.sol\":5265:5324  Voters[_messageID].push(voter_maps[_messageID][msg.sender]) */\n      swap1\n      dup1\n      0x01\n      dup2\n      sload\n      add\n      dup1\n      dup3\n      sstore\n      dup1\n      swap2\n      pop\n      pop\n      0x01\n      swap1\n      sub\n      swap1\n      0x00\n      mstore\n      keccak256(0x00, 0x20)\n      add\n      0x00\n      swap1\n      swap2\n      swap1\n      swap2\n      swap1\n      swap2\n      pop\n      0x00\n      dup3\n      add\n      0x00\n      swap1\n      sload\n      swap1\n      0x0100\n      exp\n      swap1\n      div\n      0xff\n      and\n      dup2\n      0x00\n      add\n      exp(0x0100, 0x00)\n      dup2\n      sload\n      dup2\n      0xff\n      mul\n      not\n      and\n      swap1\n      dup4\n      iszero\n      iszero\n      mul\n      or\n      swap1\n      sstore\n      pop\n      0x00\n      dup3\n      add\n      0x01\n      swap1\n      sload\n      swap1\n      0x0100\n      exp\n      swap1\n      div\n      0xff\n      and\n      dup2\n      0x00\n      add\n      exp(0x0100, 0x01)\n      dup2\n      sload\n      dup2\n      0xff\n      mul\n      not\n      and\n      swap1\n      dup4\n      iszero\n      iszero\n      mul\n      or\n      swap1\n      sstore\n      pop\n      0x00\n      dup3\n      add\n      0x02\n      swap1\n      sload\n      swap1\n      0x0100\n      exp\n      swap1\n      div\n      0xffffffffffffffffffffffffffffffffffffffff\n      and\n      dup2\n      0x00\n      add\n      exp(0x0100, 0x02)\n      dup2\n      sload\n      dup2\n      0xffffffffffffffffffffffffffffffffffffffff\n      mul\n      not\n      and\n      swap1\n      dup4\n      0xffffffffffffffffffffffffffffffffffffffff\n      and\n      mul\n      or\n      swap1\n      sstore\n      pop\n      pop\n      pop\n        /* \"contracts/BusinessConsensus3.sol\":5080:5614  if(keccak256(bytes(response)) == keccak256(bytes(\"i disapprove\"))){\r... */\n      jump(tag_202)\n    tag_199:\n        /* \"contracts/BusinessConsensus3.sol\":5482:5486  true */\n      0x01\n        /* \"contracts/BusinessConsensus3.sol\":5439:5449  voter_maps */\n      0x0c\n        /* \"contracts/BusinessConsensus3.sol\":5439:5461  voter_maps[_messageID] */\n      0x00\n        /* \"contracts/BusinessConsensus3.sol\":5450:5460  _messageID */\n      dup4\n        /* \"contracts/BusinessConsensus3.sol\":5439:5461  voter_maps[_messageID] */\n      dup2\n      mstore\n      0x20\n      add\n      swap1\n      dup2\n      mstore\n      0x20\n      add\n      0x00\n      keccak256\n        /* \"contracts/BusinessConsensus3.sol\":5439:5473  voter_maps[_messageID][msg.sender] */\n      0x00\n        /* \"contracts/BusinessConsensus3.sol\":5462:5472  msg.sender */\n      caller\n        /* \"contracts/BusinessConsensus3.sol\":5439:5473  voter_maps[_messageID][msg.sender] */\n      0xffffffffffffffffffffffffffffffffffffffff\n      and\n      0xffffffffffffffffffffffffffffffffffffffff\n      and\n      dup2\n      mstore\n      0x20\n      add\n      swap1\n      dup2\n      mstore\n      0x20\n      add\n      0x00\n      keccak256\n        /* \"contracts/BusinessConsensus3.sol\":5439:5479  voter_maps[_messageID][msg.sender].voted */\n      0x00\n      add\n      0x00\n        /* \"contracts/BusinessConsensus3.sol\":5439:5486  voter_maps[_messageID][msg.sender].voted = true */\n      0x0100\n      exp\n      dup2\n      sload\n      dup2\n      0xff\n      mul\n      not\n      and\n      swap1\n      dup4\n      iszero\n      iszero\n      mul\n      or\n      swap1\n      sstore\n      pop\n        /* \"contracts/BusinessConsensus3.sol\":5527:5528  1 */\n      0x01\n        /* \"contracts/BusinessConsensus3.sol\":5501:5511  voteCounts */\n      0x02\n        /* \"contracts/BusinessConsensus3.sol\":5501:5523  voteCounts[_messageID] */\n      0x00\n        /* \"contracts/BusinessConsensus3.sol\":5512:5522  _messageID */\n      dup4\n        /* \"contracts/BusinessConsensus3.sol\":5501:5523  voteCounts[_messageID] */\n      dup2\n      mstore\n      0x20\n      add\n      swap1\n      dup2\n      mstore\n      0x20\n      add\n      0x00\n      keccak256\n      0x00\n        /* \"contracts/BusinessConsensus3.sol\":5501:5528  voteCounts[_messageID] += 1 */\n      dup3\n      dup3\n      sload\n      tag_203\n      swap2\n      swap1\n      tag_195\n      jump\t// in\n    tag_203:\n      swap3\n      pop\n      pop\n      dup2\n      swap1\n      sstore\n      pop\n        /* \"contracts/BusinessConsensus3.sol\":5543:5549  Voters */\n      0x0d\n        /* \"contracts/BusinessConsensus3.sol\":5543:5561  Voters[_messageID] */\n      0x00\n        /* \"contracts/BusinessConsensus3.sol\":5550:5560  _messageID */\n      dup3\n        /* \"contracts/BusinessConsensus3.sol\":5543:5561  Voters[_messageID] */\n      dup2\n      mstore\n      0x20\n      add\n      swap1\n      dup2\n      mstore\n      0x20\n      add\n      0x00\n      keccak256\n        /* \"contracts/BusinessConsensus3.sol\":5567:5577  voter_maps */\n      0x0c\n        /* \"contracts/BusinessConsensus3.sol\":5567:5589  voter_maps[_messageID] */\n      0x00\n        /* \"contracts/BusinessConsensus3.sol\":5578:5588  _messageID */\n      dup4\n        /* \"contracts/BusinessConsensus3.sol\":5567:5589  voter_maps[_messageID] */\n      dup2\n      mstore\n      0x20\n      add\n      swap1\n      dup2\n      mstore\n      0x20\n      add\n      0x00\n      keccak256\n        /* \"contracts/BusinessConsensus3.sol\":5567:5601  voter_maps[_messageID][msg.sender] */\n      0x00\n        /* \"contracts/BusinessConsensus3.sol\":5590:5600  msg.sender */\n      caller\n        /* \"contracts/BusinessConsensus3.sol\":5567:5601  voter_maps[_messageID][msg.sender] */\n      0xffffffffffffffffffffffffffffffffffffffff\n      and\n      0xffffffffffffffffffffffffffffffffffffffff\n      and\n      dup2\n      mstore\n      0x20\n      add\n      swap1\n      dup2\n      mstore\n      0x20\n      add\n      0x00\n      keccak256\n        /* \"contracts/BusinessConsensus3.sol\":5543:5602  Voters[_messageID].push(voter_maps[_messageID][msg.sender]) */\n      swap1\n      dup1\n      0x01\n      dup2\n      sload\n      add\n      dup1\n      dup3\n      sstore\n      dup1\n      swap2\n      pop\n      pop\n      0x01\n      swap1\n      sub\n      swap1\n      0x00\n      mstore\n      keccak256(0x00, 0x20)\n      add\n      0x00\n      swap1\n      swap2\n      swap1\n      swap2\n      swap1\n      swap2\n      pop\n      0x00\n      dup3\n      add\n      0x00\n      swap1\n      sload\n      swap1\n      0x0100\n      exp\n      swap1\n      div\n      0xff\n      and\n      dup2\n      0x00\n      add\n      exp(0x0100, 0x00)\n      dup2\n      sload\n      dup2\n      0xff\n      mul\n      not\n      and\n      swap1\n      dup4\n      iszero\n      iszero\n      mul\n      or\n      swap1\n      sstore\n      pop\n      0x00\n      dup3\n      add\n      0x01\n      swap1\n      sload\n      swap1\n      0x0100\n      exp\n      swap1\n      div\n      0xff\n      and\n      dup2\n      0x00\n      add\n      exp(0x0100, 0x01)\n      dup2\n      sload\n      dup2\n      0xff\n      mul\n      not\n      and\n      swap1\n      dup4\n      iszero\n      iszero\n      mul\n      or\n      swap1\n      sstore\n      pop\n      0x00\n      dup3\n      add\n      0x02\n      swap1\n      sload\n      swap1\n      0x0100\n      exp\n      swap1\n      div\n      0xffffffffffffffffffffffffffffffffffffffff\n      and\n      dup2\n      0x00\n      add\n      exp(0x0100, 0x02)\n      dup2\n      sload\n      dup2\n      0xffffffffffffffffffffffffffffffffffffffff\n      mul\n      not\n      and\n      swap1\n      dup4\n      0xffffffffffffffffffffffffffffffffffffffff\n      and\n      mul\n      or\n      swap1\n      sstore\n      pop\n      pop\n      pop\n        /* \"contracts/BusinessConsensus3.sol\":5080:5614  if(keccak256(bytes(response)) == keccak256(bytes(\"i disapprove\"))){\r... */\n    tag_202:\n        /* \"contracts/BusinessConsensus3.sol\":4705:5614  if(keccak256(bytes(response)) == keccak256(bytes(\"i approve\"))){\r... */\n    tag_198:\n        /* \"contracts/BusinessConsensus3.sol\":4334:5631  function Vote(string memory response,bytes32 _messageID) external {\r... */\n      pop\n      pop\n      jump\t// out\n        /* \"contracts/BusinessConsensus3.sol\":1200:2385  function createContract(bytes32 _messageID, uint256 expiry, uint256 requiredPercentage,bytes32 _contents,bytes32 subject,string memory _messageDate) external{\r... */\n    tag_92:\n        /* \"contracts/BusinessConsensus3.sol\":1495:1496  0 */\n      0x00\n        /* \"contracts/BusinessConsensus3.sol\":1461:1497  initiators[_messageID] == address(0) */\n      0xffffffffffffffffffffffffffffffffffffffff\n      and\n        /* \"contracts/BusinessConsensus3.sol\":1461:1471  initiators */\n      0x00\n        /* \"contracts/BusinessConsensus3.sol\":1461:1483  initiators[_messageID] */\n      dup1\n        /* \"contracts/BusinessConsensus3.sol\":1472:1482  _messageID */\n      dup9\n        /* \"contracts/BusinessConsensus3.sol\":1461:1483  initiators[_messageID] */\n      dup2\n      mstore\n      0x20\n      add\n      swap1\n      dup2\n      mstore\n      0x20\n      add\n      0x00\n      keccak256\n      0x00\n      swap1\n      sload\n      swap1\n      0x0100\n      exp\n      swap1\n      div\n      0xffffffffffffffffffffffffffffffffffffffff\n      and\n        /* \"contracts/BusinessConsensus3.sol\":1461:1497  initiators[_messageID] == address(0) */\n      0xffffffffffffffffffffffffffffffffffffffff\n      and\n      eq\n        /* \"contracts/BusinessConsensus3.sol\":1453:1526  require(initiators[_messageID] == address(0),\"Proposal already created!\") */\n      tag_206\n      jumpi\n      mload(0x40)\n      0x08c379a000000000000000000000000000000000000000000000000000000000\n      dup2\n      mstore\n      0x04\n      add\n      tag_207\n      swap1\n      tag_208\n      jump\t// in\n    tag_207:\n      mload(0x40)\n      dup1\n      swap2\n      sub\n      swap1\n      revert\n    tag_206:\n        /* \"contracts/BusinessConsensus3.sol\":1566:1567  0 */\n      0x00\n        /* \"contracts/BusinessConsensus3.sol\":1541:1551  voteCounts */\n      0x02\n        /* \"contracts/BusinessConsensus3.sol\":1541:1563  voteCounts[_messageID] */\n      0x00\n        /* \"contracts/BusinessConsensus3.sol\":1552:1562  _messageID */\n      dup9\n        /* \"contracts/BusinessConsensus3.sol\":1541:1563  voteCounts[_messageID] */\n      dup2\n      mstore\n      0x20\n      add\n      swap1\n      dup2\n      mstore\n      0x20\n      add\n      0x00\n      keccak256\n        /* \"contracts/BusinessConsensus3.sol\":1541:1567  voteCounts[_messageID] = 0 */\n      dup2\n      swap1\n      sstore\n      pop\n        /* \"contracts/BusinessConsensus3.sol\":1627:1633  expiry */\n      dup5\n        /* \"contracts/BusinessConsensus3.sol\":1609:1624  block.timestamp */\n      timestamp\n        /* \"contracts/BusinessConsensus3.sol\":1609:1633  block.timestamp + expiry */\n      tag_209\n      swap2\n      swap1\n      tag_195\n      jump\t// in\n    tag_209:\n        /* \"contracts/BusinessConsensus3.sol\":1582:1593  expiryDates */\n      0x04\n        /* \"contracts/BusinessConsensus3.sol\":1582:1605  expiryDates[_messageID] */\n      0x00\n        /* \"contracts/BusinessConsensus3.sol\":1594:1604  _messageID */\n      dup9\n        /* \"contracts/BusinessConsensus3.sol\":1582:1605  expiryDates[_messageID] */\n      dup2\n      mstore\n      0x20\n      add\n      swap1\n      dup2\n      mstore\n      0x20\n      add\n      0x00\n      keccak256\n        /* \"contracts/BusinessConsensus3.sol\":1582:1633  expiryDates[_messageID] =  block.timestamp + expiry */\n      dup2\n      swap1\n      sstore\n      pop\n        /* \"contracts/BusinessConsensus3.sol\":1663:1673  _messageID */\n      dup6\n        /* \"contracts/BusinessConsensus3.sol\":1648:1651  IDs */\n      0x01\n        /* \"contracts/BusinessConsensus3.sol\":1648:1660  IDs[subject] */\n      0x00\n        /* \"contracts/BusinessConsensus3.sol\":1652:1659  subject */\n      dup5\n        /* \"contracts/BusinessConsensus3.sol\":1648:1660  IDs[subject] */\n      dup2\n      mstore\n      0x20\n      add\n      swap1\n      dup2\n      mstore\n      0x20\n      add\n      0x00\n      keccak256\n        /* \"contracts/BusinessConsensus3.sol\":1648:1673  IDs[subject] = _messageID */\n      dup2\n      swap1\n      sstore\n      pop\n        /* \"contracts/BusinessConsensus3.sol\":1713:1718  false */\n      0x00\n        /* \"contracts/BusinessConsensus3.sol\":1688:1698  isCompiled */\n      0x0a\n        /* \"contracts/BusinessConsensus3.sol\":1688:1710  isCompiled[_messageID] */\n      0x00\n        /* \"contracts/BusinessConsensus3.sol\":1699:1709  _messageID */\n      dup9\n        /* \"contracts/BusinessConsensus3.sol\":1688:1710  isCompiled[_messageID] */\n      dup2\n      mstore\n      0x20\n      add\n      swap1\n      dup2\n      mstore\n      0x20\n      add\n      0x00\n      keccak256\n      0x00\n        /* \"contracts/BusinessConsensus3.sol\":1688:1718  isCompiled[_messageID] = false */\n      0x0100\n      exp\n      dup2\n      sload\n      dup2\n      0xff\n      mul\n      not\n      and\n      swap1\n      dup4\n      iszero\n      iszero\n      mul\n      or\n      swap1\n      sstore\n      pop\n        /* \"contracts/BusinessConsensus3.sol\":1768:1786  requiredPercentage */\n      dup4\n        /* \"contracts/BusinessConsensus3.sol\":1733:1753  businessRequirements */\n      0x07\n        /* \"contracts/BusinessConsensus3.sol\":1733:1765  businessRequirements[_messageID] */\n      0x00\n        /* \"contracts/BusinessConsensus3.sol\":1754:1764  _messageID */\n      dup9\n        /* \"contracts/BusinessConsensus3.sol\":1733:1765  businessRequirements[_messageID] */\n      dup2\n      mstore\n      0x20\n      add\n      swap1\n      dup2\n      mstore\n      0x20\n      add\n      0x00\n      keccak256\n        /* \"contracts/BusinessConsensus3.sol\":1733:1786  businessRequirements[_messageID] = requiredPercentage */\n      dup2\n      swap1\n      sstore\n      pop\n        /* \"contracts/BusinessConsensus3.sol\":1833:1851  requiredPercentage */\n      dup4\n        /* \"contracts/BusinessConsensus3.sol\":1801:1821  businessRequirements */\n      0x07\n        /* \"contracts/BusinessConsensus3.sol\":1801:1830  businessRequirements[subject] */\n      0x00\n        /* \"contracts/BusinessConsensus3.sol\":1822:1829  subject */\n      dup5\n        /* \"contracts/BusinessConsensus3.sol\":1801:1830  businessRequirements[subject] */\n      dup2\n      mstore\n      0x20\n      add\n      swap1\n      dup2\n      mstore\n      0x20\n      add\n      0x00\n      keccak256\n        /* \"contracts/BusinessConsensus3.sol\":1801:1851  businessRequirements[subject] = requiredPercentage */\n      dup2\n      swap1\n      sstore\n      pop\n        /* \"contracts/BusinessConsensus3.sol\":1894:1899  false */\n      0x00\n        /* \"contracts/BusinessConsensus3.sol\":1866:1879  finalVerdicts */\n      0x09\n        /* \"contracts/BusinessConsensus3.sol\":1866:1891  finalVerdicts[_messageID] */\n      0x00\n        /* \"contracts/BusinessConsensus3.sol\":1880:1890  _messageID */\n      dup9\n        /* \"contracts/BusinessConsensus3.sol\":1866:1891  finalVerdicts[_messageID] */\n      dup2\n      mstore\n      0x20\n      add\n      swap1\n      dup2\n      mstore\n      0x20\n      add\n      0x00\n      keccak256\n      0x00\n        /* \"contracts/BusinessConsensus3.sol\":1866:1899  finalVerdicts[_messageID] = false */\n      0x0100\n      exp\n      dup2\n      sload\n      dup2\n      0xff\n      mul\n      not\n      and\n      swap1\n      dup4\n      iszero\n      iszero\n      mul\n      or\n      swap1\n      sstore\n      pop\n        /* \"contracts/BusinessConsensus3.sol\":1942:1948  expiry */\n      dup5\n        /* \"contracts/BusinessConsensus3.sol\":1914:1927  expiryLengths */\n      0x03\n        /* \"contracts/BusinessConsensus3.sol\":1914:1939  expiryLengths[_messageID] */\n      0x00\n        /* \"contracts/BusinessConsensus3.sol\":1928:1938  _messageID */\n      dup9\n        /* \"contracts/BusinessConsensus3.sol\":1914:1939  expiryLengths[_messageID] */\n      dup2\n      mstore\n      0x20\n      add\n      swap1\n      dup2\n      mstore\n      0x20\n      add\n      0x00\n      keccak256\n        /* \"contracts/BusinessConsensus3.sol\":1914:1948  expiryLengths[_messageID] = expiry */\n      dup2\n      swap1\n      sstore\n      pop\n        /* \"contracts/BusinessConsensus3.sol\":1988:1994  expiry */\n      dup5\n        /* \"contracts/BusinessConsensus3.sol\":1963:1976  expiryLengths */\n      0x03\n        /* \"contracts/BusinessConsensus3.sol\":1963:1985  expiryLengths[subject] */\n      0x00\n        /* \"contracts/BusinessConsensus3.sol\":1977:1984  subject */\n      dup5\n        /* \"contracts/BusinessConsensus3.sol\":1963:1985  expiryLengths[subject] */\n      dup2\n      mstore\n      0x20\n      add\n      swap1\n      dup2\n      mstore\n      0x20\n      add\n      0x00\n      keccak256\n        /* \"contracts/BusinessConsensus3.sol\":1963:1994  expiryLengths[subject] = expiry */\n      dup2\n      swap1\n      sstore\n      pop\n        /* \"contracts/BusinessConsensus3.sol\":2032:2041  _contents */\n      dup3\n        /* \"contracts/BusinessConsensus3.sol\":2009:2017  contents */\n      0x05\n        /* \"contracts/BusinessConsensus3.sol\":2009:2029  contents[_messageID] */\n      0x00\n        /* \"contracts/BusinessConsensus3.sol\":2018:2028  _messageID */\n      dup9\n        /* \"contracts/BusinessConsensus3.sol\":2009:2029  contents[_messageID] */\n      dup2\n      mstore\n      0x20\n      add\n      swap1\n      dup2\n      mstore\n      0x20\n      add\n      0x00\n      keccak256\n        /* \"contracts/BusinessConsensus3.sol\":2009:2041  contents[_messageID] = _contents */\n      dup2\n      swap1\n      sstore\n      pop\n        /* \"contracts/BusinessConsensus3.sol\":2076:2085  _contents */\n      dup3\n        /* \"contracts/BusinessConsensus3.sol\":2056:2064  contents */\n      0x05\n        /* \"contracts/BusinessConsensus3.sol\":2056:2073  contents[subject] */\n      0x00\n        /* \"contracts/BusinessConsensus3.sol\":2065:2072  subject */\n      dup5\n        /* \"contracts/BusinessConsensus3.sol\":2056:2073  contents[subject] */\n      dup2\n      mstore\n      0x20\n      add\n      swap1\n      dup2\n      mstore\n      0x20\n      add\n      0x00\n      keccak256\n        /* \"contracts/BusinessConsensus3.sol\":2056:2085  contents[subject] = _contents */\n      dup2\n      swap1\n      sstore\n      pop\n        /* \"contracts/BusinessConsensus3.sol\":2123:2130  subject */\n      dup2\n        /* \"contracts/BusinessConsensus3.sol\":2100:2108  subjects */\n      0x0b\n        /* \"contracts/BusinessConsensus3.sol\":2100:2120  subjects[_messageID] */\n      0x00\n        /* \"contracts/BusinessConsensus3.sol\":2109:2119  _messageID */\n      dup9\n        /* \"contracts/BusinessConsensus3.sol\":2100:2120  subjects[_messageID] */\n      dup2\n      mstore\n      0x20\n      add\n      swap1\n      dup2\n      mstore\n      0x20\n      add\n      0x00\n      keccak256\n        /* \"contracts/BusinessConsensus3.sol\":2100:2130  subjects[_messageID] = subject */\n      dup2\n      swap1\n      sstore\n      pop\n        /* \"contracts/BusinessConsensus3.sol\":2172:2184  _messageDate */\n      dup1\n        /* \"contracts/BusinessConsensus3.sol\":2145:2157  messageDates */\n      0x08\n        /* \"contracts/BusinessConsensus3.sol\":2145:2169  messageDates[_messageID] */\n      0x00\n        /* \"contracts/BusinessConsensus3.sol\":2158:2168  _messageID */\n      dup9\n        /* \"contracts/BusinessConsensus3.sol\":2145:2169  messageDates[_messageID] */\n      dup2\n      mstore\n      0x20\n      add\n      swap1\n      dup2\n      mstore\n      0x20\n      add\n      0x00\n      keccak256\n        /* \"contracts/BusinessConsensus3.sol\":2145:2184  messageDates[_messageID] = _messageDate */\n      swap1\n      dup1\n      mload\n      swap1\n      0x20\n      add\n      swap1\n      tag_210\n      swap3\n      swap2\n      swap1\n      tag_211\n      jump\t// in\n    tag_210:\n      pop\n        /* \"contracts/BusinessConsensus3.sol\":2223:2235  _messageDate */\n      dup1\n        /* \"contracts/BusinessConsensus3.sol\":2199:2211  messageDates */\n      0x08\n        /* \"contracts/BusinessConsensus3.sol\":2199:2220  messageDates[subject] */\n      0x00\n        /* \"contracts/BusinessConsensus3.sol\":2212:2219  subject */\n      dup5\n        /* \"contracts/BusinessConsensus3.sol\":2199:2220  messageDates[subject] */\n      dup2\n      mstore\n      0x20\n      add\n      swap1\n      dup2\n      mstore\n      0x20\n      add\n      0x00\n      keccak256\n        /* \"contracts/BusinessConsensus3.sol\":2199:2235  messageDates[subject] = _messageDate */\n      swap1\n      dup1\n      mload\n      swap1\n      0x20\n      add\n      swap1\n      tag_212\n      swap3\n      swap2\n      swap1\n      tag_211\n      jump\t// in\n    tag_212:\n      pop\n        /* \"contracts/BusinessConsensus3.sol\":2277:2278  0 */\n      0x00\n        /* \"contracts/BusinessConsensus3.sol\":2250:2262  numApprovals */\n      0x06\n        /* \"contracts/BusinessConsensus3.sol\":2250:2274  numApprovals[_messageID] */\n      0x00\n        /* \"contracts/BusinessConsensus3.sol\":2263:2273  _messageID */\n      dup9\n        /* \"contracts/BusinessConsensus3.sol\":2250:2274  numApprovals[_messageID] */\n      dup2\n      mstore\n      0x20\n      add\n      swap1\n      dup2\n      mstore\n      0x20\n      add\n      0x00\n      keccak256\n        /* \"contracts/BusinessConsensus3.sol\":2250:2278  numApprovals[_messageID] = 0 */\n      dup2\n      swap1\n      sstore\n      pop\n        /* \"contracts/BusinessConsensus3.sol\":2318:2328  msg.sender */\n      caller\n        /* \"contracts/BusinessConsensus3.sol\":2293:2303  initiators */\n      0x00\n        /* \"contracts/BusinessConsensus3.sol\":2293:2315  initiators[_messageID] */\n      dup1\n        /* \"contracts/BusinessConsensus3.sol\":2304:2314  _messageID */\n      dup9\n        /* \"contracts/BusinessConsensus3.sol\":2293:2315  initiators[_messageID] */\n      dup2\n      mstore\n      0x20\n      add\n      swap1\n      dup2\n      mstore\n      0x20\n      add\n      0x00\n      keccak256\n      0x00\n        /* \"contracts/BusinessConsensus3.sol\":2293:2328  initiators[_messageID] = msg.sender */\n      0x0100\n      exp\n      dup2\n      sload\n      dup2\n      0xffffffffffffffffffffffffffffffffffffffff\n      mul\n      not\n      and\n      swap1\n      dup4\n      0xffffffffffffffffffffffffffffffffffffffff\n      and\n      mul\n      or\n      swap1\n      sstore\n      pop\n        /* \"contracts/BusinessConsensus3.sol\":2365:2375  msg.sender */\n      caller\n        /* \"contracts/BusinessConsensus3.sol\":2343:2353  initiators */\n      0x00\n        /* \"contracts/BusinessConsensus3.sol\":2343:2362  initiators[subject] */\n      dup1\n        /* \"contracts/BusinessConsensus3.sol\":2354:2361  subject */\n      dup5\n        /* \"contracts/BusinessConsensus3.sol\":2343:2362  initiators[subject] */\n      dup2\n      mstore\n      0x20\n      add\n      swap1\n      dup2\n      mstore\n      0x20\n      add\n      0x00\n      keccak256\n      0x00\n        /* \"contracts/BusinessConsensus3.sol\":2343:2375  initiators[subject] = msg.sender */\n      0x0100\n      exp\n      dup2\n      sload\n      dup2\n      0xffffffffffffffffffffffffffffffffffffffff\n      mul\n      not\n      and\n      swap1\n      dup4\n      0xffffffffffffffffffffffffffffffffffffffff\n      and\n      mul\n      or\n      swap1\n      sstore\n      pop\n        /* \"contracts/BusinessConsensus3.sol\":1200:2385  function createContract(bytes32 _messageID, uint256 expiry, uint256 requiredPercentage,bytes32 _contents,bytes32 subject,string memory _messageDate) external{\r... */\n      pop\n      pop\n      pop\n      pop\n      pop\n      pop\n      jump\t// out\n        /* \"contracts/BusinessConsensus3.sol\":3338:3482  function getIsCreated(bytes32 subject) public view returns (bytes32,string memory){\r... */\n    tag_95:\n        /* \"contracts/BusinessConsensus3.sol\":3398:3405  bytes32 */\n      0x00\n        /* \"contracts/BusinessConsensus3.sol\":3406:3419  string memory */\n      0x60\n        /* \"contracts/BusinessConsensus3.sol\":3439:3442  IDs */\n      0x01\n        /* \"contracts/BusinessConsensus3.sol\":3439:3451  IDs[subject] */\n      0x00\n        /* \"contracts/BusinessConsensus3.sol\":3443:3450  subject */\n      dup5\n        /* \"contracts/BusinessConsensus3.sol\":3439:3451  IDs[subject] */\n      dup2\n      mstore\n      0x20\n      add\n      swap1\n      dup2\n      mstore\n      0x20\n      add\n      0x00\n      keccak256\n      sload\n        /* \"contracts/BusinessConsensus3.sol\":3452:3464  messageDates */\n      0x08\n        /* \"contracts/BusinessConsensus3.sol\":3452:3473  messageDates[subject] */\n      0x00\n        /* \"contracts/BusinessConsensus3.sol\":3465:3472  subject */\n      dup6\n        /* \"contracts/BusinessConsensus3.sol\":3452:3473  messageDates[subject] */\n      dup2\n      mstore\n      0x20\n      add\n      swap1\n      dup2\n      mstore\n      0x20\n      add\n      0x00\n      keccak256\n        /* \"contracts/BusinessConsensus3.sol\":3431:3474  return (IDs[subject],messageDates[subject]) */\n      dup1\n      dup1\n      sload\n      tag_214\n      swap1\n      tag_215\n      jump\t// in\n    tag_214:\n      dup1\n      0x1f\n      add\n      0x20\n      dup1\n      swap2\n      div\n      mul\n      0x20\n      add\n      mload(0x40)\n      swap1\n      dup2\n      add\n      0x40\n      mstore\n      dup1\n      swap3\n      swap2\n      swap1\n      dup2\n      dup2\n      mstore\n      0x20\n      add\n      dup3\n      dup1\n      sload\n      tag_216\n      swap1\n      tag_215\n      jump\t// in\n    tag_216:\n      dup1\n      iszero\n      tag_217\n      jumpi\n      dup1\n      0x1f\n      lt\n      tag_218\n      jumpi\n      0x0100\n      dup1\n      dup4\n      sload\n      div\n      mul\n      dup4\n      mstore\n      swap2\n      0x20\n      add\n      swap2\n      jump(tag_217)\n    tag_218:\n      dup3\n      add\n      swap2\n      swap1\n      0x00\n      mstore\n      keccak256(0x00, 0x20)\n      swap1\n    tag_219:\n      dup2\n      sload\n      dup2\n      mstore\n      swap1\n      0x01\n      add\n      swap1\n      0x20\n      add\n      dup1\n      dup4\n      gt\n      tag_219\n      jumpi\n      dup3\n      swap1\n      sub\n      0x1f\n      and\n      dup3\n      add\n      swap2\n    tag_217:\n      pop\n      pop\n      pop\n      pop\n      pop\n      swap1\n      pop\n      swap2\n      pop\n      swap2\n      pop\n        /* \"contracts/BusinessConsensus3.sol\":3338:3482  function getIsCreated(bytes32 subject) public view returns (bytes32,string memory){\r... */\n      swap2\n      pop\n      swap2\n      jump\t// out\n        /* \"contracts/BusinessConsensus3.sol\":986:1029  mapping(bytes32 => bytes32) public subjects */\n    tag_100:\n      mstore(0x20, 0x0b)\n      dup1\n      0x00\n      mstore\n      keccak256(0x00, 0x40)\n      0x00\n      swap2\n      pop\n      swap1\n      pop\n      sload\n      dup2\n      jump\t// out\n        /* \"contracts/BusinessConsensus3.sol\":832:878  mapping(bytes32 => string) public messageDates */\n    tag_105:\n      mstore(0x20, 0x08)\n      dup1\n      0x00\n      mstore\n      keccak256(0x00, 0x40)\n      0x00\n      swap2\n      pop\n      swap1\n      pop\n      dup1\n      sload\n      tag_220\n      swap1\n      tag_215\n      jump\t// in\n    tag_220:\n      dup1\n      0x1f\n      add\n      0x20\n      dup1\n      swap2\n      div\n      mul\n      0x20\n      add\n      mload(0x40)\n      swap1\n      dup2\n      add\n      0x40\n      mstore\n      dup1\n      swap3\n      swap2\n      swap1\n      dup2\n      dup2\n      mstore\n      0x20\n      add\n      dup3\n      dup1\n      sload\n      tag_221\n      swap1\n      tag_215\n      jump\t// in\n    tag_221:\n      dup1\n      iszero\n      tag_222\n      jumpi\n      dup1\n      0x1f\n      lt\n      tag_223\n      jumpi\n      0x0100\n      dup1\n      dup4\n      sload\n      div\n      mul\n      dup4\n      mstore\n      swap2\n      0x20\n      add\n      swap2\n      jump(tag_222)\n    tag_223:\n      dup3\n      add\n      swap2\n      swap1\n      0x00\n      mstore\n      keccak256(0x00, 0x20)\n      swap1\n    tag_224:\n      dup2\n      sload\n      dup2\n      mstore\n      swap1\n      0x01\n      add\n      swap1\n      0x20\n      add\n      dup1\n      dup4\n      gt\n      tag_224\n      jumpi\n      dup3\n      swap1\n      sub\n      0x1f\n      and\n      dup3\n      add\n      swap2\n    tag_222:\n      pop\n      pop\n      pop\n      pop\n      pop\n      dup2\n      jump\t// out\n        /* \"contracts/BusinessConsensus3.sol\":1036:1095  mapping(bytes32=>mapping(address=>Voter)) public voter_maps */\n    tag_111:\n      mstore(0x20, 0x0c)\n      dup2\n      0x00\n      mstore\n      mstore(0x20, keccak256(0x00, 0x40))\n      dup1\n      0x00\n      mstore\n      keccak256(0x00, 0x40)\n      0x00\n      swap2\n      pop\n      swap2\n      pop\n      pop\n      dup1\n      0x00\n      add\n      0x00\n      swap1\n      sload\n      swap1\n      0x0100\n      exp\n      swap1\n      div\n      0xff\n      and\n      swap1\n      dup1\n      0x00\n      add\n      0x01\n      swap1\n      sload\n      swap1\n      0x0100\n      exp\n      swap1\n      div\n      0xff\n      and\n      swap1\n      dup1\n      0x00\n      add\n      0x02\n      swap1\n      sload\n      swap1\n      0x0100\n      exp\n      swap1\n      div\n      0xffffffffffffffffffffffffffffffffffffffff\n      and\n      swap1\n      pop\n      dup4\n      jump\t// out\n        /* \"contracts/BusinessConsensus3.sol\":412:455  mapping(bytes32=>address) public initiators */\n    tag_115:\n      mstore(0x20, 0x00)\n      dup1\n      0x00\n      mstore\n      keccak256(0x00, 0x40)\n      0x00\n      swap2\n      pop\n      sload\n      swap1\n      0x0100\n      exp\n      swap1\n      div\n      0xffffffffffffffffffffffffffffffffffffffff\n      and\n      dup2\n      jump\t// out\n        /* \"contracts/BusinessConsensus3.sol\":3588:4326  function RegisterVoter(address voter,bytes32 _messageID) external {\r... */\n    tag_120:\n        /* \"contracts/BusinessConsensus3.sol\":3775:3785  initiators */\n      0x00\n        /* \"contracts/BusinessConsensus3.sol\":3775:3797  initiators[_messageID] */\n      dup1\n        /* \"contracts/BusinessConsensus3.sol\":3786:3796  _messageID */\n      dup3\n        /* \"contracts/BusinessConsensus3.sol\":3775:3797  initiators[_messageID] */\n      dup2\n      mstore\n      0x20\n      add\n      swap1\n      dup2\n      mstore\n      0x20\n      add\n      0x00\n      keccak256\n      0x00\n      swap1\n      sload\n      swap1\n      0x0100\n      exp\n      swap1\n      div\n      0xffffffffffffffffffffffffffffffffffffffff\n      and\n        /* \"contracts/BusinessConsensus3.sol\":3761:3797  msg.sender == initiators[_messageID] */\n      0xffffffffffffffffffffffffffffffffffffffff\n      and\n        /* \"contracts/BusinessConsensus3.sol\":3761:3771  msg.sender */\n      caller\n        /* \"contracts/BusinessConsensus3.sol\":3761:3797  msg.sender == initiators[_messageID] */\n      0xffffffffffffffffffffffffffffffffffffffff\n      and\n      eq\n        /* \"contracts/BusinessConsensus3.sol\":3739:3865  require(\r... */\n      tag_226\n      jumpi\n      mload(0x40)\n      0x08c379a000000000000000000000000000000000000000000000000000000000\n      dup2\n      mstore\n      0x04\n      add\n      tag_227\n      swap1\n      tag_228\n      jump\t// in\n    tag_227:\n      mload(0x40)\n      dup1\n      swap2\n      sub\n      swap1\n      revert\n    tag_226:\n        /* \"contracts/BusinessConsensus3.sol\":3893:3903  initiators */\n      0x00\n        /* \"contracts/BusinessConsensus3.sol\":3893:3915  initiators[_messageID] */\n      dup1\n        /* \"contracts/BusinessConsensus3.sol\":3904:3914  _messageID */\n      dup3\n        /* \"contracts/BusinessConsensus3.sol\":3893:3915  initiators[_messageID] */\n      dup2\n      mstore\n      0x20\n      add\n      swap1\n      dup2\n      mstore\n      0x20\n      add\n      0x00\n      keccak256\n      0x00\n      swap1\n      sload\n      swap1\n      0x0100\n      exp\n      swap1\n      div\n      0xffffffffffffffffffffffffffffffffffffffff\n      and\n        /* \"contracts/BusinessConsensus3.sol\":3884:3915  voter != initiators[_messageID] */\n      0xffffffffffffffffffffffffffffffffffffffff\n      and\n        /* \"contracts/BusinessConsensus3.sol\":3884:3889  voter */\n      dup3\n        /* \"contracts/BusinessConsensus3.sol\":3884:3915  voter != initiators[_messageID] */\n      0xffffffffffffffffffffffffffffffffffffffff\n      and\n      eq\n      iszero\n        /* \"contracts/BusinessConsensus3.sol\":3876:3941  require(voter != initiators[_messageID], \"Initiator can't vote!\") */\n      tag_229\n      jumpi\n      mload(0x40)\n      0x08c379a000000000000000000000000000000000000000000000000000000000\n      dup2\n      mstore\n      0x04\n      add\n      tag_230\n      swap1\n      tag_231\n      jump\t// in\n    tag_230:\n      mload(0x40)\n      dup1\n      swap2\n      sub\n      swap1\n      revert\n    tag_229:\n        /* \"contracts/BusinessConsensus3.sol\":4013:4014  0 */\n      0x00\n        /* \"contracts/BusinessConsensus3.sol\":3962:4015  voter_maps[_messageID][voter].recipient == address(0) */\n      0xffffffffffffffffffffffffffffffffffffffff\n      and\n        /* \"contracts/BusinessConsensus3.sol\":3962:3972  voter_maps */\n      0x0c\n        /* \"contracts/BusinessConsensus3.sol\":3962:3984  voter_maps[_messageID] */\n      0x00\n        /* \"contracts/BusinessConsensus3.sol\":3973:3983  _messageID */\n      dup4\n        /* \"contracts/BusinessConsensus3.sol\":3962:3984  voter_maps[_messageID] */\n      dup2\n      mstore\n      0x20\n      add\n      swap1\n      dup2\n      mstore\n      0x20\n      add\n      0x00\n      keccak256\n        /* \"contracts/BusinessConsensus3.sol\":3962:3991  voter_maps[_messageID][voter] */\n      0x00\n        /* \"contracts/BusinessConsensus3.sol\":3985:3990  voter */\n      dup5\n        /* \"contracts/BusinessConsensus3.sol\":3962:3991  voter_maps[_messageID][voter] */\n      0xffffffffffffffffffffffffffffffffffffffff\n      and\n      0xffffffffffffffffffffffffffffffffffffffff\n      and\n      dup2\n      mstore\n      0x20\n      add\n      swap1\n      dup2\n      mstore\n      0x20\n      add\n      0x00\n      keccak256\n        /* \"contracts/BusinessConsensus3.sol\":3962:4001  voter_maps[_messageID][voter].recipient */\n      0x00\n      add\n      0x02\n      swap1\n      sload\n      swap1\n      0x0100\n      exp\n      swap1\n      div\n      0xffffffffffffffffffffffffffffffffffffffff\n      and\n        /* \"contracts/BusinessConsensus3.sol\":3962:4015  voter_maps[_messageID][voter].recipient == address(0) */\n      0xffffffffffffffffffffffffffffffffffffffff\n      and\n      eq\n        /* \"contracts/BusinessConsensus3.sol\":3954:4051  require(voter_maps[_messageID][voter].recipient == address(0), \"Recipient is already registered\") */\n      tag_232\n      jumpi\n      mload(0x40)\n      0x08c379a000000000000000000000000000000000000000000000000000000000\n      dup2\n      mstore\n      0x04\n      add\n      tag_233\n      swap1\n      tag_234\n      jump\t// in\n    tag_233:\n      mload(0x40)\n      dup1\n      swap2\n      sub\n      swap1\n      revert\n    tag_232:\n        /* \"contracts/BusinessConsensus3.sol\":4090:4101  expiryDates */\n      0x04\n        /* \"contracts/BusinessConsensus3.sol\":4090:4113  expiryDates[_messageID] */\n      0x00\n        /* \"contracts/BusinessConsensus3.sol\":4102:4112  _messageID */\n      dup3\n        /* \"contracts/BusinessConsensus3.sol\":4090:4113  expiryDates[_messageID] */\n      dup2\n      mstore\n      0x20\n      add\n      swap1\n      dup2\n      mstore\n      0x20\n      add\n      0x00\n      keccak256\n      sload\n        /* \"contracts/BusinessConsensus3.sol\":4072:4087  block.timestamp */\n      timestamp\n        /* \"contracts/BusinessConsensus3.sol\":4072:4113  block.timestamp < expiryDates[_messageID] */\n      lt\n        /* \"contracts/BusinessConsensus3.sol\":4064:4154  require(block.timestamp < expiryDates[_messageID], \"Proposal has reached its expiry date\") */\n      tag_235\n      jumpi\n      mload(0x40)\n      0x08c379a000000000000000000000000000000000000000000000000000000000\n      dup2\n      mstore\n      0x04\n      add\n      tag_236\n      swap1\n      tag_237\n      jump\t// in\n    tag_236:\n      mload(0x40)\n      dup1\n      swap2\n      sub\n      swap1\n      revert\n    tag_235:\n        /* \"contracts/BusinessConsensus3.sol\":4167:4181  Voter memory x */\n      0x00\n        /* \"contracts/BusinessConsensus3.sol\":4184:4235  Voter({voted: false,recipient: voter, vote: false}) */\n      mload(0x40)\n      dup1\n      0x60\n      add\n      0x40\n      mstore\n      dup1\n        /* \"contracts/BusinessConsensus3.sol\":4198:4203  false */\n      0x00\n        /* \"contracts/BusinessConsensus3.sol\":4184:4235  Voter({voted: false,recipient: voter, vote: false}) */\n      iszero\n      iszero\n      dup2\n      mstore\n      0x20\n      add\n        /* \"contracts/BusinessConsensus3.sol\":4228:4233  false */\n      0x00\n        /* \"contracts/BusinessConsensus3.sol\":4184:4235  Voter({voted: false,recipient: voter, vote: false}) */\n      iszero\n      iszero\n      dup2\n      mstore\n      0x20\n      add\n        /* \"contracts/BusinessConsensus3.sol\":4215:4220  voter */\n      dup5\n        /* \"contracts/BusinessConsensus3.sol\":4184:4235  Voter({voted: false,recipient: voter, vote: false}) */\n      0xffffffffffffffffffffffffffffffffffffffff\n      and\n      dup2\n      mstore\n      pop\n        /* \"contracts/BusinessConsensus3.sol\":4167:4235  Voter memory x = Voter({voted: false,recipient: voter, vote: false}) */\n      swap1\n      pop\n        /* \"contracts/BusinessConsensus3.sol\":4278:4279  x */\n      dup1\n        /* \"contracts/BusinessConsensus3.sol\":4246:4256  voter_maps */\n      0x0c\n        /* \"contracts/BusinessConsensus3.sol\":4246:4268  voter_maps[_messageID] */\n      0x00\n        /* \"contracts/BusinessConsensus3.sol\":4257:4267  _messageID */\n      dup5\n        /* \"contracts/BusinessConsensus3.sol\":4246:4268  voter_maps[_messageID] */\n      dup2\n      mstore\n      0x20\n      add\n      swap1\n      dup2\n      mstore\n      0x20\n      add\n      0x00\n      keccak256\n        /* \"contracts/BusinessConsensus3.sol\":4246:4275  voter_maps[_messageID][voter] */\n      0x00\n        /* \"contracts/BusinessConsensus3.sol\":4269:4274  voter */\n      dup6\n        /* \"contracts/BusinessConsensus3.sol\":4246:4275  voter_maps[_messageID][voter] */\n      0xffffffffffffffffffffffffffffffffffffffff\n      and\n      0xffffffffffffffffffffffffffffffffffffffff\n      and\n      dup2\n      mstore\n      0x20\n      add\n      swap1\n      dup2\n      mstore\n      0x20\n      add\n      0x00\n      keccak256\n        /* \"contracts/BusinessConsensus3.sol\":4246:4279  voter_maps[_messageID][voter] = x */\n      0x00\n      dup3\n      add\n      mload\n      dup2\n      0x00\n      add\n      exp(0x0100, 0x00)\n      dup2\n      sload\n      dup2\n      0xff\n      mul\n      not\n      and\n      swap1\n      dup4\n      iszero\n      iszero\n      mul\n      or\n      swap1\n      sstore\n      pop\n      0x20\n      dup3\n      add\n      mload\n      dup2\n      0x00\n      add\n      exp(0x0100, 0x01)\n      dup2\n      sload\n      dup2\n      0xff\n      mul\n      not\n      and\n      swap1\n      dup4\n      iszero\n      iszero\n      mul\n      or\n      swap1\n      sstore\n      pop\n      0x40\n      dup3\n      add\n      mload\n      dup2\n      0x00\n      add\n      exp(0x0100, 0x02)\n      dup2\n      sload\n      dup2\n      0xffffffffffffffffffffffffffffffffffffffff\n      mul\n      not\n      and\n      swap1\n      dup4\n      0xffffffffffffffffffffffffffffffffffffffff\n      and\n      mul\n      or\n      swap1\n      sstore\n      pop\n      swap1\n      pop\n      pop\n        /* \"contracts/BusinessConsensus3.sol\":4290:4294  keys */\n      0x0e\n        /* \"contracts/BusinessConsensus3.sol\":4290:4306  keys[_messageID] */\n      0x00\n        /* \"contracts/BusinessConsensus3.sol\":4295:4305  _messageID */\n      dup4\n        /* \"contracts/BusinessConsensus3.sol\":4290:4306  keys[_messageID] */\n      dup2\n      mstore\n      0x20\n      add\n      swap1\n      dup2\n      mstore\n      0x20\n      add\n      0x00\n      keccak256\n        /* \"contracts/BusinessConsensus3.sol\":4312:4317  voter */\n      dup4\n        /* \"contracts/BusinessConsensus3.sol\":4290:4318  keys[_messageID].push(voter) */\n      swap1\n      dup1\n      0x01\n      dup2\n      sload\n      add\n      dup1\n      dup3\n      sstore\n      dup1\n      swap2\n      pop\n      pop\n      0x01\n      swap1\n      sub\n      swap1\n      0x00\n      mstore\n      keccak256(0x00, 0x20)\n      add\n      0x00\n      swap1\n      swap2\n      swap1\n      swap2\n      swap1\n      swap2\n      0x0100\n      exp\n      dup2\n      sload\n      dup2\n      0xffffffffffffffffffffffffffffffffffffffff\n      mul\n      not\n      and\n      swap1\n      dup4\n      0xffffffffffffffffffffffffffffffffffffffff\n      and\n      mul\n      or\n      swap1\n      sstore\n      pop\n        /* \"contracts/BusinessConsensus3.sol\":3654:4326  {\r... */\n      pop\n        /* \"contracts/BusinessConsensus3.sol\":3588:4326  function RegisterVoter(address voter,bytes32 _messageID) external {\r... */\n      pop\n      pop\n      jump\t// out\n        /* \"contracts/BusinessConsensus3.sol\":716:763  mapping(bytes32 => uint256) public numApprovals */\n    tag_123:\n      mstore(0x20, 0x06)\n      dup1\n      0x00\n      mstore\n      keccak256(0x00, 0x40)\n      0x00\n      swap2\n      pop\n      swap1\n      pop\n      sload\n      dup2\n      jump\t// out\n        /* \"contracts/BusinessConsensus3.sol\":462:499  mapping(bytes32 =>bytes32) public IDs */\n    tag_127:\n      mstore(0x20, 0x01)\n      dup1\n      0x00\n      mstore\n      keccak256(0x00, 0x40)\n      0x00\n      swap2\n      pop\n      swap1\n      pop\n      sload\n      dup2\n      jump\t// out\n        /* \"contracts/BusinessConsensus3.sol\":666:709  mapping(bytes32 => bytes32) public contents */\n    tag_131:\n      mstore(0x20, 0x05)\n      dup1\n      0x00\n      mstore\n      keccak256(0x00, 0x40)\n      0x00\n      swap2\n      pop\n      swap1\n      pop\n      sload\n      dup2\n      jump\t// out\n    tag_211:\n      dup3\n      dup1\n      sload\n      tag_239\n      swap1\n      tag_215\n      jump\t// in\n    tag_239:\n      swap1\n      0x00\n      mstore\n      keccak256(0x00, 0x20)\n      swap1\n      0x1f\n      add\n      0x20\n      swap1\n      div\n      dup2\n      add\n      swap3\n      dup3\n      tag_241\n      jumpi\n      0x00\n      dup6\n      sstore\n      jump(tag_240)\n    tag_241:\n      dup3\n      0x1f\n      lt\n      tag_242\n      jumpi\n      dup1\n      mload\n      not(0xff)\n      and\n      dup4\n      dup1\n      add\n      or\n      dup6\n      sstore\n      jump(tag_240)\n    tag_242:\n      dup3\n      dup1\n      add\n      0x01\n      add\n      dup6\n      sstore\n      dup3\n      iszero\n      tag_240\n      jumpi\n      swap2\n      dup3\n      add\n    tag_243:\n      dup3\n      dup2\n      gt\n      iszero\n      tag_244\n      jumpi\n      dup3\n      mload\n      dup3\n      sstore\n      swap2\n      0x20\n      add\n      swap2\n      swap1\n      0x01\n      add\n      swap1\n      jump(tag_243)\n    tag_244:\n    tag_240:\n      pop\n      swap1\n      pop\n      tag_245\n      swap2\n      swap1\n      tag_246\n      jump\t// in\n    tag_245:\n      pop\n      swap1\n      jump\t// out\n    tag_246:\n    tag_247:\n      dup1\n      dup3\n      gt\n      iszero\n      tag_248\n      jumpi\n      0x00\n      dup2\n      0x00\n      swap1\n      sstore\n      pop\n      0x01\n      add\n      jump(tag_247)\n    tag_248:\n      pop\n      swap1\n      jump\t// out\n        /* \"#utility.yul\":7:419   */\n    tag_250:\n        /* \"#utility.yul\":85:90   */\n      0x00\n        /* \"#utility.yul\":110:176   */\n      tag_252\n        /* \"#utility.yul\":126:175   */\n      tag_253\n        /* \"#utility.yul\":168:174   */\n      dup5\n        /* \"#utility.yul\":126:175   */\n      tag_254\n      jump\t// in\n    tag_253:\n        /* \"#utility.yul\":110:176   */\n      tag_255\n      jump\t// in\n    tag_252:\n        /* \"#utility.yul\":101:176   */\n      swap1\n      pop\n        /* \"#utility.yul\":199:205   */\n      dup3\n        /* \"#utility.yul\":192:197   */\n      dup2\n        /* \"#utility.yul\":185:206   */\n      mstore\n        /* \"#utility.yul\":237:241   */\n      0x20\n        /* \"#utility.yul\":230:235   */\n      dup2\n        /* \"#utility.yul\":226:242   */\n      add\n        /* \"#utility.yul\":275:278   */\n      dup5\n        /* \"#utility.yul\":266:272   */\n      dup5\n        /* \"#utility.yul\":261:264   */\n      dup5\n        /* \"#utility.yul\":257:273   */\n      add\n        /* \"#utility.yul\":254:279   */\n      gt\n        /* \"#utility.yul\":251:363   */\n      iszero\n      tag_256\n      jumpi\n        /* \"#utility.yul\":282:361   */\n      tag_257\n      tag_258\n      jump\t// in\n    tag_257:\n        /* \"#utility.yul\":251:363   */\n    tag_256:\n        /* \"#utility.yul\":372:413   */\n      tag_259\n        /* \"#utility.yul\":406:412   */\n      dup5\n        /* \"#utility.yul\":401:404   */\n      dup3\n        /* \"#utility.yul\":396:399   */\n      dup6\n        /* \"#utility.yul\":372:413   */\n      tag_260\n      jump\t// in\n    tag_259:\n        /* \"#utility.yul\":91:419   */\n      pop\n        /* \"#utility.yul\":7:419   */\n      swap4\n      swap3\n      pop\n      pop\n      pop\n      jump\t// out\n        /* \"#utility.yul\":425:564   */\n    tag_261:\n        /* \"#utility.yul\":471:476   */\n      0x00\n        /* \"#utility.yul\":509:515   */\n      dup2\n        /* \"#utility.yul\":496:516   */\n      calldataload\n        /* \"#utility.yul\":487:516   */\n      swap1\n      pop\n        /* \"#utility.yul\":525:558   */\n      tag_263\n        /* \"#utility.yul\":552:557   */\n      dup2\n        /* \"#utility.yul\":525:558   */\n      tag_264\n      jump\t// in\n    tag_263:\n        /* \"#utility.yul\":425:564   */\n      swap3\n      swap2\n      pop\n      pop\n      jump\t// out\n        /* \"#utility.yul\":570:709   */\n    tag_265:\n        /* \"#utility.yul\":616:621   */\n      0x00\n        /* \"#utility.yul\":654:660   */\n      dup2\n        /* \"#utility.yul\":641:661   */\n      calldataload\n        /* \"#utility.yul\":632:661   */\n      swap1\n      pop\n        /* \"#utility.yul\":670:703   */\n      tag_267\n        /* \"#utility.yul\":697:702   */\n      dup2\n        /* \"#utility.yul\":670:703   */\n      tag_268\n      jump\t// in\n    tag_267:\n        /* \"#utility.yul\":570:709   */\n      swap3\n      swap2\n      pop\n      pop\n      jump\t// out\n        /* \"#utility.yul\":729:1069   */\n    tag_269:\n        /* \"#utility.yul\":785:790   */\n      0x00\n        /* \"#utility.yul\":834:837   */\n      dup3\n        /* \"#utility.yul\":827:831   */\n      0x1f\n        /* \"#utility.yul\":819:825   */\n      dup4\n        /* \"#utility.yul\":815:832   */\n      add\n        /* \"#utility.yul\":811:838   */\n      slt\n        /* \"#utility.yul\":801:923   */\n      tag_271\n      jumpi\n        /* \"#utility.yul\":842:921   */\n      tag_272\n      tag_273\n      jump\t// in\n    tag_272:\n        /* \"#utility.yul\":801:923   */\n    tag_271:\n        /* \"#utility.yul\":959:965   */\n      dup2\n        /* \"#utility.yul\":946:966   */\n      calldataload\n        /* \"#utility.yul\":984:1063   */\n      tag_274\n        /* \"#utility.yul\":1059:1062   */\n      dup5\n        /* \"#utility.yul\":1051:1057   */\n      dup3\n        /* \"#utility.yul\":1044:1048   */\n      0x20\n        /* \"#utility.yul\":1036:1042   */\n      dup7\n        /* \"#utility.yul\":1032:1049   */\n      add\n        /* \"#utility.yul\":984:1063   */\n      tag_250\n      jump\t// in\n    tag_274:\n        /* \"#utility.yul\":975:1063   */\n      swap2\n      pop\n        /* \"#utility.yul\":791:1069   */\n      pop\n        /* \"#utility.yul\":729:1069   */\n      swap3\n      swap2\n      pop\n      pop\n      jump\t// out\n        /* \"#utility.yul\":1075:1214   */\n    tag_275:\n        /* \"#utility.yul\":1121:1126   */\n      0x00\n        /* \"#utility.yul\":1159:1165   */\n      dup2\n        /* \"#utility.yul\":1146:1166   */\n      calldataload\n        /* \"#utility.yul\":1137:1166   */\n      swap1\n      pop\n        /* \"#utility.yul\":1175:1208   */\n      tag_277\n        /* \"#utility.yul\":1202:1207   */\n      dup2\n        /* \"#utility.yul\":1175:1208   */\n      tag_278\n      jump\t// in\n    tag_277:\n        /* \"#utility.yul\":1075:1214   */\n      swap3\n      swap2\n      pop\n      pop\n      jump\t// out\n        /* \"#utility.yul\":1220:1694   */\n    tag_119:\n        /* \"#utility.yul\":1288:1294   */\n      0x00\n        /* \"#utility.yul\":1296:1302   */\n      dup1\n        /* \"#utility.yul\":1345:1347   */\n      0x40\n        /* \"#utility.yul\":1333:1342   */\n      dup4\n        /* \"#utility.yul\":1324:1331   */\n      dup6\n        /* \"#utility.yul\":1320:1343   */\n      sub\n        /* \"#utility.yul\":1316:1348   */\n      slt\n        /* \"#utility.yul\":1313:1432   */\n      iszero\n      tag_280\n      jumpi\n        /* \"#utility.yul\":1351:1430   */\n      tag_281\n      tag_282\n      jump\t// in\n    tag_281:\n        /* \"#utility.yul\":1313:1432   */\n    tag_280:\n        /* \"#utility.yul\":1471:1472   */\n      0x00\n        /* \"#utility.yul\":1496:1549   */\n      tag_283\n        /* \"#utility.yul\":1541:1548   */\n      dup6\n        /* \"#utility.yul\":1532:1538   */\n      dup3\n        /* \"#utility.yul\":1521:1530   */\n      dup7\n        /* \"#utility.yul\":1517:1539   */\n      add\n        /* \"#utility.yul\":1496:1549   */\n      tag_261\n      jump\t// in\n    tag_283:\n        /* \"#utility.yul\":1486:1549   */\n      swap3\n      pop\n        /* \"#utility.yul\":1442:1559   */\n      pop\n        /* \"#utility.yul\":1598:1600   */\n      0x20\n        /* \"#utility.yul\":1624:1677   */\n      tag_284\n        /* \"#utility.yul\":1669:1676   */\n      dup6\n        /* \"#utility.yul\":1660:1666   */\n      dup3\n        /* \"#utility.yul\":1649:1658   */\n      dup7\n        /* \"#utility.yul\":1645:1667   */\n      add\n        /* \"#utility.yul\":1624:1677   */\n      tag_265\n      jump\t// in\n    tag_284:\n        /* \"#utility.yul\":1614:1677   */\n      swap2\n      pop\n        /* \"#utility.yul\":1569:1687   */\n      pop\n        /* \"#utility.yul\":1220:1694   */\n      swap3\n      pop\n      swap3\n      swap1\n      pop\n      jump\t// out\n        /* \"#utility.yul\":1700:2029   */\n    tag_31:\n        /* \"#utility.yul\":1759:1765   */\n      0x00\n        /* \"#utility.yul\":1808:1810   */\n      0x20\n        /* \"#utility.yul\":1796:1805   */\n      dup3\n        /* \"#utility.yul\":1787:1794   */\n      dup5\n        /* \"#utility.yul\":1783:1806   */\n      sub\n        /* \"#utility.yul\":1779:1811   */\n      slt\n        /* \"#utility.yul\":1776:1895   */\n      iszero\n      tag_286\n      jumpi\n        /* \"#utility.yul\":1814:1893   */\n      tag_287\n      tag_282\n      jump\t// in\n    tag_287:\n        /* \"#utility.yul\":1776:1895   */\n    tag_286:\n        /* \"#utility.yul\":1934:1935   */\n      0x00\n        /* \"#utility.yul\":1959:2012   */\n      tag_288\n        /* \"#utility.yul\":2004:2011   */\n      dup5\n        /* \"#utility.yul\":1995:2001   */\n      dup3\n        /* \"#utility.yul\":1984:1993   */\n      dup6\n        /* \"#utility.yul\":1980:2002   */\n      add\n        /* \"#utility.yul\":1959:2012   */\n      tag_265\n      jump\t// in\n    tag_288:\n        /* \"#utility.yul\":1949:2012   */\n      swap2\n      pop\n        /* \"#utility.yul\":1905:2022   */\n      pop\n        /* \"#utility.yul\":1700:2029   */\n      swap3\n      swap2\n      pop\n      pop\n      jump\t// out\n        /* \"#utility.yul\":2035:2509   */\n    tag_110:\n        /* \"#utility.yul\":2103:2109   */\n      0x00\n        /* \"#utility.yul\":2111:2117   */\n      dup1\n        /* \"#utility.yul\":2160:2162   */\n      0x40\n        /* \"#utility.yul\":2148:2157   */\n      dup4\n        /* \"#utility.yul\":2139:2146   */\n      dup6\n        /* \"#utility.yul\":2135:2158   */\n      sub\n        /* \"#utility.yul\":2131:2163   */\n      slt\n        /* \"#utility.yul\":2128:2247   */\n      iszero\n      tag_290\n      jumpi\n        /* \"#utility.yul\":2166:2245   */\n      tag_291\n      tag_282\n      jump\t// in\n    tag_291:\n        /* \"#utility.yul\":2128:2247   */\n    tag_290:\n        /* \"#utility.yul\":2286:2287   */\n      0x00\n        /* \"#utility.yul\":2311:2364   */\n      tag_292\n        /* \"#utility.yul\":2356:2363   */\n      dup6\n        /* \"#utility.yul\":2347:2353   */\n      dup3\n        /* \"#utility.yul\":2336:2345   */\n      dup7\n        /* \"#utility.yul\":2332:2354   */\n      add\n        /* \"#utility.yul\":2311:2364   */\n      tag_265\n      jump\t// in\n    tag_292:\n        /* \"#utility.yul\":2301:2364   */\n      swap3\n      pop\n        /* \"#utility.yul\":2257:2374   */\n      pop\n        /* \"#utility.yul\":2413:2415   */\n      0x20\n        /* \"#utility.yul\":2439:2492   */\n      tag_293\n        /* \"#utility.yul\":2484:2491   */\n      dup6\n        /* \"#utility.yul\":2475:2481   */\n      dup3\n        /* \"#utility.yul\":2464:2473   */\n      dup7\n        /* \"#utility.yul\":2460:2482   */\n      add\n        /* \"#utility.yul\":2439:2492   */\n      tag_261\n      jump\t// in\n    tag_293:\n        /* \"#utility.yul\":2429:2492   */\n      swap2\n      pop\n        /* \"#utility.yul\":2384:2502   */\n      pop\n        /* \"#utility.yul\":2035:2509   */\n      swap3\n      pop\n      swap3\n      swap1\n      pop\n      jump\t// out\n        /* \"#utility.yul\":2515:2989   */\n    tag_53:\n        /* \"#utility.yul\":2583:2589   */\n      0x00\n        /* \"#utility.yul\":2591:2597   */\n      dup1\n        /* \"#utility.yul\":2640:2642   */\n      0x40\n        /* \"#utility.yul\":2628:2637   */\n      dup4\n        /* \"#utility.yul\":2619:2626   */\n      dup6\n        /* \"#utility.yul\":2615:2638   */\n      sub\n        /* \"#utility.yul\":2611:2643   */\n      slt\n        /* \"#utility.yul\":2608:2727   */\n      iszero\n      tag_295\n      jumpi\n        /* \"#utility.yul\":2646:2725   */\n      tag_296\n      tag_282\n      jump\t// in\n    tag_296:\n        /* \"#utility.yul\":2608:2727   */\n    tag_295:\n        /* \"#utility.yul\":2766:2767   */\n      0x00\n        /* \"#utility.yul\":2791:2844   */\n      tag_297\n        /* \"#utility.yul\":2836:2843   */\n      dup6\n        /* \"#utility.yul\":2827:2833   */\n      dup3\n        /* \"#utility.yul\":2816:2825   */\n      dup7\n        /* \"#utility.yul\":2812:2834   */\n      add\n        /* \"#utility.yul\":2791:2844   */\n      tag_265\n      jump\t// in\n    tag_297:\n        /* \"#utility.yul\":2781:2844   */\n      swap3\n      pop\n        /* \"#utility.yul\":2737:2854   */\n      pop\n        /* \"#utility.yul\":2893:2895   */\n      0x20\n        /* \"#utility.yul\":2919:2972   */\n      tag_298\n        /* \"#utility.yul\":2964:2971   */\n      dup6\n        /* \"#utility.yul\":2955:2961   */\n      dup3\n        /* \"#utility.yul\":2944:2953   */\n      dup7\n        /* \"#utility.yul\":2940:2962   */\n      add\n        /* \"#utility.yul\":2919:2972   */\n      tag_275\n      jump\t// in\n    tag_298:\n        /* \"#utility.yul\":2909:2972   */\n      swap2\n      pop\n        /* \"#utility.yul\":2864:2982   */\n      pop\n        /* \"#utility.yul\":2515:2989   */\n      swap3\n      pop\n      swap3\n      swap1\n      pop\n      jump\t// out\n        /* \"#utility.yul\":2995:3760   */\n    tag_42:\n        /* \"#utility.yul\":3081:3087   */\n      0x00\n        /* \"#utility.yul\":3089:3095   */\n      dup1\n        /* \"#utility.yul\":3097:3103   */\n      0x00\n        /* \"#utility.yul\":3105:3111   */\n      dup1\n        /* \"#utility.yul\":3154:3157   */\n      0x80\n        /* \"#utility.yul\":3142:3151   */\n      dup6\n        /* \"#utility.yul\":3133:3140   */\n      dup8\n        /* \"#utility.yul\":3129:3152   */\n      sub\n        /* \"#utility.yul\":3125:3158   */\n      slt\n        /* \"#utility.yul\":3122:3242   */\n      iszero\n      tag_300\n      jumpi\n        /* \"#utility.yul\":3161:3240   */\n      tag_301\n      tag_282\n      jump\t// in\n    tag_301:\n        /* \"#utility.yul\":3122:3242   */\n    tag_300:\n        /* \"#utility.yul\":3281:3282   */\n      0x00\n        /* \"#utility.yul\":3306:3359   */\n      tag_302\n        /* \"#utility.yul\":3351:3358   */\n      dup8\n        /* \"#utility.yul\":3342:3348   */\n      dup3\n        /* \"#utility.yul\":3331:3340   */\n      dup9\n        /* \"#utility.yul\":3327:3349   */\n      add\n        /* \"#utility.yul\":3306:3359   */\n      tag_265\n      jump\t// in\n    tag_302:\n        /* \"#utility.yul\":3296:3359   */\n      swap5\n      pop\n        /* \"#utility.yul\":3252:3369   */\n      pop\n        /* \"#utility.yul\":3408:3410   */\n      0x20\n        /* \"#utility.yul\":3434:3487   */\n      tag_303\n        /* \"#utility.yul\":3479:3486   */\n      dup8\n        /* \"#utility.yul\":3470:3476   */\n      dup3\n        /* \"#utility.yul\":3459:3468   */\n      dup9\n        /* \"#utility.yul\":3455:3477   */\n      add\n        /* \"#utility.yul\":3434:3487   */\n      tag_275\n      jump\t// in\n    tag_303:\n        /* \"#utility.yul\":3424:3487   */\n      swap4\n      pop\n        /* \"#utility.yul\":3379:3497   */\n      pop\n        /* \"#utility.yul\":3536:3538   */\n      0x40\n        /* \"#utility.yul\":3562:3615   */\n      tag_304\n        /* \"#utility.yul\":3607:3614   */\n      dup8\n        /* \"#utility.yul\":3598:3604   */\n      dup3\n        /* \"#utility.yul\":3587:3596   */\n      dup9\n        /* \"#utility.yul\":3583:3605   */\n      add\n        /* \"#utility.yul\":3562:3615   */\n      tag_275\n      jump\t// in\n    tag_304:\n        /* \"#utility.yul\":3552:3615   */\n      swap3\n      pop\n        /* \"#utility.yul\":3507:3625   */\n      pop\n        /* \"#utility.yul\":3664:3666   */\n      0x60\n        /* \"#utility.yul\":3690:3743   */\n      tag_305\n        /* \"#utility.yul\":3735:3742   */\n      dup8\n        /* \"#utility.yul\":3726:3732   */\n      dup3\n        /* \"#utility.yul\":3715:3724   */\n      dup9\n        /* \"#utility.yul\":3711:3733   */\n      add\n        /* \"#utility.yul\":3690:3743   */\n      tag_265\n      jump\t// in\n    tag_305:\n        /* \"#utility.yul\":3680:3743   */\n      swap2\n      pop\n        /* \"#utility.yul\":3635:3753   */\n      pop\n        /* \"#utility.yul\":2995:3760   */\n      swap3\n      swap6\n      swap2\n      swap5\n      pop\n      swap3\n      pop\n      jump\t// out\n        /* \"#utility.yul\":3766:5003   */\n    tag_91:\n        /* \"#utility.yul\":3880:3886   */\n      0x00\n        /* \"#utility.yul\":3888:3894   */\n      dup1\n        /* \"#utility.yul\":3896:3902   */\n      0x00\n        /* \"#utility.yul\":3904:3910   */\n      dup1\n        /* \"#utility.yul\":3912:3918   */\n      0x00\n        /* \"#utility.yul\":3920:3926   */\n      dup1\n        /* \"#utility.yul\":3969:3972   */\n      0xc0\n        /* \"#utility.yul\":3957:3966   */\n      dup8\n        /* \"#utility.yul\":3948:3955   */\n      dup10\n        /* \"#utility.yul\":3944:3967   */\n      sub\n        /* \"#utility.yul\":3940:3973   */\n      slt\n        /* \"#utility.yul\":3937:4057   */\n      iszero\n      tag_307\n      jumpi\n        /* \"#utility.yul\":3976:4055   */\n      tag_308\n      tag_282\n      jump\t// in\n    tag_308:\n        /* \"#utility.yul\":3937:4057   */\n    tag_307:\n        /* \"#utility.yul\":4096:4097   */\n      0x00\n        /* \"#utility.yul\":4121:4174   */\n      tag_309\n        /* \"#utility.yul\":4166:4173   */\n      dup10\n        /* \"#utility.yul\":4157:4163   */\n      dup3\n        /* \"#utility.yul\":4146:4155   */\n      dup11\n        /* \"#utility.yul\":4142:4164   */\n      add\n        /* \"#utility.yul\":4121:4174   */\n      tag_265\n      jump\t// in\n    tag_309:\n        /* \"#utility.yul\":4111:4174   */\n      swap7\n      pop\n        /* \"#utility.yul\":4067:4184   */\n      pop\n        /* \"#utility.yul\":4223:4225   */\n      0x20\n        /* \"#utility.yul\":4249:4302   */\n      tag_310\n        /* \"#utility.yul\":4294:4301   */\n      dup10\n        /* \"#utility.yul\":4285:4291   */\n      dup3\n        /* \"#utility.yul\":4274:4283   */\n      dup11\n        /* \"#utility.yul\":4270:4292   */\n      add\n        /* \"#utility.yul\":4249:4302   */\n      tag_275\n      jump\t// in\n    tag_310:\n        /* \"#utility.yul\":4239:4302   */\n      swap6\n      pop\n        /* \"#utility.yul\":4194:4312   */\n      pop\n        /* \"#utility.yul\":4351:4353   */\n      0x40\n        /* \"#utility.yul\":4377:4430   */\n      tag_311\n        /* \"#utility.yul\":4422:4429   */\n      dup10\n        /* \"#utility.yul\":4413:4419   */\n      dup3\n        /* \"#utility.yul\":4402:4411   */\n      dup11\n        /* \"#utility.yul\":4398:4420   */\n      add\n        /* \"#utility.yul\":4377:4430   */\n      tag_275\n      jump\t// in\n    tag_311:\n        /* \"#utility.yul\":4367:4430   */\n      swap5\n      pop\n        /* \"#utility.yul\":4322:4440   */\n      pop\n        /* \"#utility.yul\":4479:4481   */\n      0x60\n        /* \"#utility.yul\":4505:4558   */\n      tag_312\n        /* \"#utility.yul\":4550:4557   */\n      dup10\n        /* \"#utility.yul\":4541:4547   */\n      dup3\n        /* \"#utility.yul\":4530:4539   */\n      dup11\n        /* \"#utility.yul\":4526:4548   */\n      add\n        /* \"#utility.yul\":4505:4558   */\n      tag_265\n      jump\t// in\n    tag_312:\n        /* \"#utility.yul\":4495:4558   */\n      swap4\n      pop\n        /* \"#utility.yul\":4450:4568   */\n      pop\n        /* \"#utility.yul\":4607:4610   */\n      0x80\n        /* \"#utility.yul\":4634:4687   */\n      tag_313\n        /* \"#utility.yul\":4679:4686   */\n      dup10\n        /* \"#utility.yul\":4670:4676   */\n      dup3\n        /* \"#utility.yul\":4659:4668   */\n      dup11\n        /* \"#utility.yul\":4655:4677   */\n      add\n        /* \"#utility.yul\":4634:4687   */\n      tag_265\n      jump\t// in\n    tag_313:\n        /* \"#utility.yul\":4624:4687   */\n      swap3\n      pop\n        /* \"#utility.yul\":4578:4697   */\n      pop\n        /* \"#utility.yul\":4764:4767   */\n      0xa0\n        /* \"#utility.yul\":4753:4762   */\n      dup8\n        /* \"#utility.yul\":4749:4768   */\n      add\n        /* \"#utility.yul\":4736:4769   */\n      calldataload\n        /* \"#utility.yul\":4796:4814   */\n      0xffffffffffffffff\n        /* \"#utility.yul\":4788:4794   */\n      dup2\n        /* \"#utility.yul\":4785:4815   */\n      gt\n        /* \"#utility.yul\":4782:4899   */\n      iszero\n      tag_314\n      jumpi\n        /* \"#utility.yul\":4818:4897   */\n      tag_315\n      tag_316\n      jump\t// in\n    tag_315:\n        /* \"#utility.yul\":4782:4899   */\n    tag_314:\n        /* \"#utility.yul\":4923:4986   */\n      tag_317\n        /* \"#utility.yul\":4978:4985   */\n      dup10\n        /* \"#utility.yul\":4969:4975   */\n      dup3\n        /* \"#utility.yul\":4958:4967   */\n      dup11\n        /* \"#utility.yul\":4954:4976   */\n      add\n        /* \"#utility.yul\":4923:4986   */\n      tag_269\n      jump\t// in\n    tag_317:\n        /* \"#utility.yul\":4913:4986   */\n      swap2\n      pop\n        /* \"#utility.yul\":4707:4996   */\n      pop\n        /* \"#utility.yul\":3766:5003   */\n      swap3\n      swap6\n      pop\n      swap3\n      swap6\n      pop\n      swap3\n      swap6\n      jump\t// out\n        /* \"#utility.yul\":5009:5663   */\n    tag_87:\n        /* \"#utility.yul\":5087:5093   */\n      0x00\n        /* \"#utility.yul\":5095:5101   */\n      dup1\n        /* \"#utility.yul\":5144:5146   */\n      0x40\n        /* \"#utility.yul\":5132:5141   */\n      dup4\n        /* \"#utility.yul\":5123:5130   */\n      dup6\n        /* \"#utility.yul\":5119:5142   */\n      sub\n        /* \"#utility.yul\":5115:5147   */\n      slt\n        /* \"#utility.yul\":5112:5231   */\n      iszero\n      tag_319\n      jumpi\n        /* \"#utility.yul\":5150:5229   */\n      tag_320\n      tag_282\n      jump\t// in\n    tag_320:\n        /* \"#utility.yul\":5112:5231   */\n    tag_319:\n        /* \"#utility.yul\":5298:5299   */\n      0x00\n        /* \"#utility.yul\":5287:5296   */\n      dup4\n        /* \"#utility.yul\":5283:5300   */\n      add\n        /* \"#utility.yul\":5270:5301   */\n      calldataload\n        /* \"#utility.yul\":5328:5346   */\n      0xffffffffffffffff\n        /* \"#utility.yul\":5320:5326   */\n      dup2\n        /* \"#utility.yul\":5317:5347   */\n      gt\n        /* \"#utility.yul\":5314:5431   */\n      iszero\n      tag_321\n      jumpi\n        /* \"#utility.yul\":5350:5429   */\n      tag_322\n      tag_316\n      jump\t// in\n    tag_322:\n        /* \"#utility.yul\":5314:5431   */\n    tag_321:\n        /* \"#utility.yul\":5455:5518   */\n      tag_323\n        /* \"#utility.yul\":5510:5517   */\n      dup6\n        /* \"#utility.yul\":5501:5507   */\n      dup3\n        /* \"#utility.yul\":5490:5499   */\n      dup7\n        /* \"#utility.yul\":5486:5508   */\n      add\n        /* \"#utility.yul\":5455:5518   */\n      tag_269\n      jump\t// in\n    tag_323:\n        /* \"#utility.yul\":5445:5518   */\n      swap3\n      pop\n        /* \"#utility.yul\":5241:5528   */\n      pop\n        /* \"#utility.yul\":5567:5569   */\n      0x20\n        /* \"#utility.yul\":5593:5646   */\n      tag_324\n        /* \"#utility.yul\":5638:5645   */\n      dup6\n        /* \"#utility.yul\":5629:5635   */\n      dup3\n        /* \"#utility.yul\":5618:5627   */\n      dup7\n        /* \"#utility.yul\":5614:5636   */\n      add\n        /* \"#utility.yul\":5593:5646   */\n      tag_265\n      jump\t// in\n    tag_324:\n        /* \"#utility.yul\":5583:5646   */\n      swap2\n      pop\n        /* \"#utility.yul\":5538:5656   */\n      pop\n        /* \"#utility.yul\":5009:5663   */\n      swap3\n      pop\n      swap3\n      swap1\n      pop\n      jump\t// out\n        /* \"#utility.yul\":5669:5928   */\n    tag_325:\n        /* \"#utility.yul\":5778:5788   */\n      0x00\n        /* \"#utility.yul\":5799:5885   */\n      tag_327\n        /* \"#utility.yul\":5881:5884   */\n      dup4\n        /* \"#utility.yul\":5873:5879   */\n      dup4\n        /* \"#utility.yul\":5799:5885   */\n      tag_328\n      jump\t// in\n    tag_327:\n        /* \"#utility.yul\":5917:5921   */\n      0x60\n        /* \"#utility.yul\":5912:5915   */\n      dup4\n        /* \"#utility.yul\":5908:5922   */\n      add\n        /* \"#utility.yul\":5894:5922   */\n      swap1\n      pop\n        /* \"#utility.yul\":5669:5928   */\n      swap3\n      swap2\n      pop\n      pop\n      jump\t// out\n        /* \"#utility.yul\":5934:6042   */\n    tag_329:\n        /* \"#utility.yul\":6011:6035   */\n      tag_331\n        /* \"#utility.yul\":6029:6034   */\n      dup2\n        /* \"#utility.yul\":6011:6035   */\n      tag_332\n      jump\t// in\n    tag_331:\n        /* \"#utility.yul\":6006:6009   */\n      dup3\n        /* \"#utility.yul\":5999:6036   */\n      mstore\n        /* \"#utility.yul\":5934:6042   */\n      pop\n      pop\n      jump\t// out\n        /* \"#utility.yul\":6048:6166   */\n    tag_333:\n        /* \"#utility.yul\":6135:6159   */\n      tag_335\n        /* \"#utility.yul\":6153:6158   */\n      dup2\n        /* \"#utility.yul\":6135:6159   */\n      tag_332\n      jump\t// in\n    tag_335:\n        /* \"#utility.yul\":6130:6133   */\n      dup3\n        /* \"#utility.yul\":6123:6160   */\n      mstore\n        /* \"#utility.yul\":6048:6166   */\n      pop\n      pop\n      jump\t// out\n        /* \"#utility.yul\":6250:7142   */\n    tag_336:\n        /* \"#utility.yul\":6409:6412   */\n      0x00\n        /* \"#utility.yul\":6438:6512   */\n      tag_338\n        /* \"#utility.yul\":6506:6511   */\n      dup3\n        /* \"#utility.yul\":6438:6512   */\n      tag_339\n      jump\t// in\n    tag_338:\n        /* \"#utility.yul\":6528:6634   */\n      tag_340\n        /* \"#utility.yul\":6627:6633   */\n      dup2\n        /* \"#utility.yul\":6622:6625   */\n      dup6\n        /* \"#utility.yul\":6528:6634   */\n      tag_341\n      jump\t// in\n    tag_340:\n        /* \"#utility.yul\":6521:6634   */\n      swap4\n      pop\n        /* \"#utility.yul\":6658:6734   */\n      tag_342\n        /* \"#utility.yul\":6728:6733   */\n      dup4\n        /* \"#utility.yul\":6658:6734   */\n      tag_343\n      jump\t// in\n    tag_342:\n        /* \"#utility.yul\":6757:6764   */\n      dup1\n        /* \"#utility.yul\":6788:6789   */\n      0x00\n        /* \"#utility.yul\":6773:7117   */\n    tag_344:\n        /* \"#utility.yul\":6798:6804   */\n      dup4\n        /* \"#utility.yul\":6795:6796   */\n      dup2\n        /* \"#utility.yul\":6792:6805   */\n      lt\n        /* \"#utility.yul\":6773:7117   */\n      iszero\n      tag_346\n      jumpi\n        /* \"#utility.yul\":6874:6880   */\n      dup2\n        /* \"#utility.yul\":6868:6881   */\n      mload\n        /* \"#utility.yul\":6901:7004   */\n      tag_347\n        /* \"#utility.yul\":7000:7003   */\n      dup9\n        /* \"#utility.yul\":6985:6998   */\n      dup3\n        /* \"#utility.yul\":6901:7004   */\n      tag_325\n      jump\t// in\n    tag_347:\n        /* \"#utility.yul\":6894:7004   */\n      swap8\n      pop\n        /* \"#utility.yul\":7027:7107   */\n      tag_348\n        /* \"#utility.yul\":7100:7106   */\n      dup4\n        /* \"#utility.yul\":7027:7107   */\n      tag_349\n      jump\t// in\n    tag_348:\n        /* \"#utility.yul\":7017:7107   */\n      swap3\n      pop\n        /* \"#utility.yul\":6833:7117   */\n      pop\n        /* \"#utility.yul\":6820:6821   */\n      0x01\n        /* \"#utility.yul\":6817:6818   */\n      dup2\n        /* \"#utility.yul\":6813:6822   */\n      add\n        /* \"#utility.yul\":6808:6822   */\n      swap1\n      pop\n        /* \"#utility.yul\":6773:7117   */\n      jump(tag_344)\n    tag_346:\n        /* \"#utility.yul\":6777:6791   */\n      pop\n        /* \"#utility.yul\":7133:7136   */\n      dup6\n        /* \"#utility.yul\":7126:7136   */\n      swap4\n      pop\n        /* \"#utility.yul\":6414:7142   */\n      pop\n      pop\n      pop\n        /* \"#utility.yul\":6250:7142   */\n      swap3\n      swap2\n      pop\n      pop\n      jump\t// out\n        /* \"#utility.yul\":7148:7247   */\n    tag_350:\n        /* \"#utility.yul\":7219:7240   */\n      tag_352\n        /* \"#utility.yul\":7234:7239   */\n      dup2\n        /* \"#utility.yul\":7219:7240   */\n      tag_353\n      jump\t// in\n    tag_352:\n        /* \"#utility.yul\":7214:7217   */\n      dup3\n        /* \"#utility.yul\":7207:7241   */\n      mstore\n        /* \"#utility.yul\":7148:7247   */\n      pop\n      pop\n      jump\t// out\n        /* \"#utility.yul\":7253:7362   */\n    tag_354:\n        /* \"#utility.yul\":7334:7355   */\n      tag_356\n        /* \"#utility.yul\":7349:7354   */\n      dup2\n        /* \"#utility.yul\":7334:7355   */\n      tag_353\n      jump\t// in\n    tag_356:\n        /* \"#utility.yul\":7329:7332   */\n      dup3\n        /* \"#utility.yul\":7322:7356   */\n      mstore\n        /* \"#utility.yul\":7253:7362   */\n      pop\n      pop\n      jump\t// out\n        /* \"#utility.yul\":7368:7486   */\n    tag_357:\n        /* \"#utility.yul\":7455:7479   */\n      tag_359\n        /* \"#utility.yul\":7473:7478   */\n      dup2\n        /* \"#utility.yul\":7455:7479   */\n      tag_360\n      jump\t// in\n    tag_359:\n        /* \"#utility.yul\":7450:7453   */\n      dup3\n        /* \"#utility.yul\":7443:7480   */\n      mstore\n        /* \"#utility.yul\":7368:7486   */\n      pop\n      pop\n      jump\t// out\n        /* \"#utility.yul\":7492:7856   */\n    tag_361:\n        /* \"#utility.yul\":7580:7583   */\n      0x00\n        /* \"#utility.yul\":7608:7647   */\n      tag_363\n        /* \"#utility.yul\":7641:7646   */\n      dup3\n        /* \"#utility.yul\":7608:7647   */\n      tag_364\n      jump\t// in\n    tag_363:\n        /* \"#utility.yul\":7663:7734   */\n      tag_365\n        /* \"#utility.yul\":7727:7733   */\n      dup2\n        /* \"#utility.yul\":7722:7725   */\n      dup6\n        /* \"#utility.yul\":7663:7734   */\n      tag_366\n      jump\t// in\n    tag_365:\n        /* \"#utility.yul\":7656:7734   */\n      swap4\n      pop\n        /* \"#utility.yul\":7743:7795   */\n      tag_367\n        /* \"#utility.yul\":7788:7794   */\n      dup2\n        /* \"#utility.yul\":7783:7786   */\n      dup6\n        /* \"#utility.yul\":7776:7780   */\n      0x20\n        /* \"#utility.yul\":7769:7774   */\n      dup7\n        /* \"#utility.yul\":7765:7781   */\n      add\n        /* \"#utility.yul\":7743:7795   */\n      tag_368\n      jump\t// in\n    tag_367:\n        /* \"#utility.yul\":7820:7849   */\n      tag_369\n        /* \"#utility.yul\":7842:7848   */\n      dup2\n        /* \"#utility.yul\":7820:7849   */\n      tag_370\n      jump\t// in\n    tag_369:\n        /* \"#utility.yul\":7815:7818   */\n      dup5\n        /* \"#utility.yul\":7811:7850   */\n      add\n        /* \"#utility.yul\":7804:7850   */\n      swap2\n      pop\n        /* \"#utility.yul\":7584:7856   */\n      pop\n        /* \"#utility.yul\":7492:7856   */\n      swap3\n      swap2\n      pop\n      pop\n      jump\t// out\n        /* \"#utility.yul\":7862:8228   */\n    tag_371:\n        /* \"#utility.yul\":8004:8007   */\n      0x00\n        /* \"#utility.yul\":8025:8092   */\n      tag_373\n        /* \"#utility.yul\":8089:8091   */\n      0x1f\n        /* \"#utility.yul\":8084:8087   */\n      dup4\n        /* \"#utility.yul\":8025:8092   */\n      tag_366\n      jump\t// in\n    tag_373:\n        /* \"#utility.yul\":8018:8092   */\n      swap2\n      pop\n        /* \"#utility.yul\":8101:8194   */\n      tag_374\n        /* \"#utility.yul\":8190:8193   */\n      dup3\n        /* \"#utility.yul\":8101:8194   */\n      tag_375\n      jump\t// in\n    tag_374:\n        /* \"#utility.yul\":8219:8221   */\n      0x20\n        /* \"#utility.yul\":8214:8217   */\n      dup3\n        /* \"#utility.yul\":8210:8222   */\n      add\n        /* \"#utility.yul\":8203:8222   */\n      swap1\n      pop\n        /* \"#utility.yul\":7862:8228   */\n      swap2\n      swap1\n      pop\n      jump\t// out\n        /* \"#utility.yul\":8234:8600   */\n    tag_376:\n        /* \"#utility.yul\":8376:8379   */\n      0x00\n        /* \"#utility.yul\":8397:8464   */\n      tag_378\n        /* \"#utility.yul\":8461:8463   */\n      0x19\n        /* \"#utility.yul\":8456:8459   */\n      dup4\n        /* \"#utility.yul\":8397:8464   */\n      tag_366\n      jump\t// in\n    tag_378:\n        /* \"#utility.yul\":8390:8464   */\n      swap2\n      pop\n        /* \"#utility.yul\":8473:8566   */\n      tag_379\n        /* \"#utility.yul\":8562:8565   */\n      dup3\n        /* \"#utility.yul\":8473:8566   */\n      tag_380\n      jump\t// in\n    tag_379:\n        /* \"#utility.yul\":8591:8593   */\n      0x20\n        /* \"#utility.yul\":8586:8589   */\n      dup3\n        /* \"#utility.yul\":8582:8594   */\n      add\n        /* \"#utility.yul\":8575:8594   */\n      swap1\n      pop\n        /* \"#utility.yul\":8234:8600   */\n      swap2\n      swap1\n      pop\n      jump\t// out\n        /* \"#utility.yul\":8606:8972   */\n    tag_381:\n        /* \"#utility.yul\":8748:8751   */\n      0x00\n        /* \"#utility.yul\":8769:8836   */\n      tag_383\n        /* \"#utility.yul\":8833:8835   */\n      0x26\n        /* \"#utility.yul\":8828:8831   */\n      dup4\n        /* \"#utility.yul\":8769:8836   */\n      tag_366\n      jump\t// in\n    tag_383:\n        /* \"#utility.yul\":8762:8836   */\n      swap2\n      pop\n        /* \"#utility.yul\":8845:8938   */\n      tag_384\n        /* \"#utility.yul\":8934:8937   */\n      dup3\n        /* \"#utility.yul\":8845:8938   */\n      tag_385\n      jump\t// in\n    tag_384:\n        /* \"#utility.yul\":8963:8965   */\n      0x40\n        /* \"#utility.yul\":8958:8961   */\n      dup3\n        /* \"#utility.yul\":8954:8966   */\n      add\n        /* \"#utility.yul\":8947:8966   */\n      swap1\n      pop\n        /* \"#utility.yul\":8606:8972   */\n      swap2\n      swap1\n      pop\n      jump\t// out\n        /* \"#utility.yul\":8978:9344   */\n    tag_386:\n        /* \"#utility.yul\":9120:9123   */\n      0x00\n        /* \"#utility.yul\":9141:9208   */\n      tag_388\n        /* \"#utility.yul\":9205:9207   */\n      0x1c\n        /* \"#utility.yul\":9200:9203   */\n      dup4\n        /* \"#utility.yul\":9141:9208   */\n      tag_366\n      jump\t// in\n    tag_388:\n        /* \"#utility.yul\":9134:9208   */\n      swap2\n      pop\n        /* \"#utility.yul\":9217:9310   */\n      tag_389\n        /* \"#utility.yul\":9306:9309   */\n      dup3\n        /* \"#utility.yul\":9217:9310   */\n      tag_390\n      jump\t// in\n    tag_389:\n        /* \"#utility.yul\":9335:9337   */\n      0x20\n        /* \"#utility.yul\":9330:9333   */\n      dup3\n        /* \"#utility.yul\":9326:9338   */\n      add\n        /* \"#utility.yul\":9319:9338   */\n      swap1\n      pop\n        /* \"#utility.yul\":8978:9344   */\n      swap2\n      swap1\n      pop\n      jump\t// out\n        /* \"#utility.yul\":9350:9716   */\n    tag_391:\n        /* \"#utility.yul\":9492:9495   */\n      0x00\n        /* \"#utility.yul\":9513:9580   */\n      tag_393\n        /* \"#utility.yul\":9577:9579   */\n      0x15\n        /* \"#utility.yul\":9572:9575   */\n      dup4\n        /* \"#utility.yul\":9513:9580   */\n      tag_366\n      jump\t// in\n    tag_393:\n        /* \"#utility.yul\":9506:9580   */\n      swap2\n      pop\n        /* \"#utility.yul\":9589:9682   */\n      tag_394\n        /* \"#utility.yul\":9678:9681   */\n      dup3\n        /* \"#utility.yul\":9589:9682   */\n      tag_395\n      jump\t// in\n    tag_394:\n        /* \"#utility.yul\":9707:9709   */\n      0x20\n        /* \"#utility.yul\":9702:9705   */\n      dup3\n        /* \"#utility.yul\":9698:9710   */\n      add\n        /* \"#utility.yul\":9691:9710   */\n      swap1\n      pop\n        /* \"#utility.yul\":9350:9716   */\n      swap2\n      swap1\n      pop\n      jump\t// out\n        /* \"#utility.yul\":9722:10088   */\n    tag_396:\n        /* \"#utility.yul\":9864:9867   */\n      0x00\n        /* \"#utility.yul\":9885:9952   */\n      tag_398\n        /* \"#utility.yul\":9949:9951   */\n      0x1e\n        /* \"#utility.yul\":9944:9947   */\n      dup4\n        /* \"#utility.yul\":9885:9952   */\n      tag_366\n      jump\t// in\n    tag_398:\n        /* \"#utility.yul\":9878:9952   */\n      swap2\n      pop\n        /* \"#utility.yul\":9961:10054   */\n      tag_399\n        /* \"#utility.yul\":10050:10053   */\n      dup3\n        /* \"#utility.yul\":9961:10054   */\n      tag_400\n      jump\t// in\n    tag_399:\n        /* \"#utility.yul\":10079:10081   */\n      0x20\n        /* \"#utility.yul\":10074:10077   */\n      dup3\n        /* \"#utility.yul\":10070:10082   */\n      add\n        /* \"#utility.yul\":10063:10082   */\n      swap1\n      pop\n        /* \"#utility.yul\":9722:10088   */\n      swap2\n      swap1\n      pop\n      jump\t// out\n        /* \"#utility.yul\":10094:10460   */\n    tag_401:\n        /* \"#utility.yul\":10236:10239   */\n      0x00\n        /* \"#utility.yul\":10257:10324   */\n      tag_403\n        /* \"#utility.yul\":10321:10323   */\n      0x24\n        /* \"#utility.yul\":10316:10319   */\n      dup4\n        /* \"#utility.yul\":10257:10324   */\n      tag_366\n      jump\t// in\n    tag_403:\n        /* \"#utility.yul\":10250:10324   */\n      swap2\n      pop\n        /* \"#utility.yul\":10333:10426   */\n      tag_404\n        /* \"#utility.yul\":10422:10425   */\n      dup3\n        /* \"#utility.yul\":10333:10426   */\n      tag_405\n      jump\t// in\n    tag_404:\n        /* \"#utility.yul\":10451:10453   */\n      0x40\n        /* \"#utility.yul\":10446:10449   */\n      dup3\n        /* \"#utility.yul\":10442:10454   */\n      add\n        /* \"#utility.yul\":10435:10454   */\n      swap1\n      pop\n        /* \"#utility.yul\":10094:10460   */\n      swap2\n      swap1\n      pop\n      jump\t// out\n        /* \"#utility.yul\":10466:10832   */\n    tag_406:\n        /* \"#utility.yul\":10608:10611   */\n      0x00\n        /* \"#utility.yul\":10629:10696   */\n      tag_408\n        /* \"#utility.yul\":10693:10695   */\n      0x28\n        /* \"#utility.yul\":10688:10691   */\n      dup4\n        /* \"#utility.yul\":10629:10696   */\n      tag_366\n      jump\t// in\n    tag_408:\n        /* \"#utility.yul\":10622:10696   */\n      swap2\n      pop\n        /* \"#utility.yul\":10705:10798   */\n      tag_409\n        /* \"#utility.yul\":10794:10797   */\n      dup3\n        /* \"#utility.yul\":10705:10798   */\n      tag_410\n      jump\t// in\n    tag_409:\n        /* \"#utility.yul\":10823:10825   */\n      0x40\n        /* \"#utility.yul\":10818:10821   */\n      dup3\n        /* \"#utility.yul\":10814:10826   */\n      add\n        /* \"#utility.yul\":10807:10826   */\n      swap1\n      pop\n        /* \"#utility.yul\":10466:10832   */\n      swap2\n      swap1\n      pop\n      jump\t// out\n        /* \"#utility.yul\":10838:11204   */\n    tag_411:\n        /* \"#utility.yul\":10980:10983   */\n      0x00\n        /* \"#utility.yul\":11001:11068   */\n      tag_413\n        /* \"#utility.yul\":11065:11067   */\n      0x14\n        /* \"#utility.yul\":11060:11063   */\n      dup4\n        /* \"#utility.yul\":11001:11068   */\n      tag_366\n      jump\t// in\n    tag_413:\n        /* \"#utility.yul\":10994:11068   */\n      swap2\n      pop\n        /* \"#utility.yul\":11077:11170   */\n      tag_414\n        /* \"#utility.yul\":11166:11169   */\n      dup3\n        /* \"#utility.yul\":11077:11170   */\n      tag_415\n      jump\t// in\n    tag_414:\n        /* \"#utility.yul\":11195:11197   */\n      0x20\n        /* \"#utility.yul\":11190:11193   */\n      dup3\n        /* \"#utility.yul\":11186:11198   */\n      add\n        /* \"#utility.yul\":11179:11198   */\n      swap1\n      pop\n        /* \"#utility.yul\":10838:11204   */\n      swap2\n      swap1\n      pop\n      jump\t// out\n        /* \"#utility.yul\":11210:11576   */\n    tag_416:\n        /* \"#utility.yul\":11352:11355   */\n      0x00\n        /* \"#utility.yul\":11373:11440   */\n      tag_418\n        /* \"#utility.yul\":11437:11439   */\n      0x20\n        /* \"#utility.yul\":11432:11435   */\n      dup4\n        /* \"#utility.yul\":11373:11440   */\n      tag_366\n      jump\t// in\n    tag_418:\n        /* \"#utility.yul\":11366:11440   */\n      swap2\n      pop\n        /* \"#utility.yul\":11449:11542   */\n      tag_419\n        /* \"#utility.yul\":11538:11541   */\n      dup3\n        /* \"#utility.yul\":11449:11542   */\n      tag_420\n      jump\t// in\n    tag_419:\n        /* \"#utility.yul\":11567:11569   */\n      0x20\n        /* \"#utility.yul\":11562:11565   */\n      dup3\n        /* \"#utility.yul\":11558:11570   */\n      add\n        /* \"#utility.yul\":11551:11570   */\n      swap1\n      pop\n        /* \"#utility.yul\":11210:11576   */\n      swap2\n      swap1\n      pop\n      jump\t// out\n        /* \"#utility.yul\":11582:11948   */\n    tag_421:\n        /* \"#utility.yul\":11724:11727   */\n      0x00\n        /* \"#utility.yul\":11745:11812   */\n      tag_423\n        /* \"#utility.yul\":11809:11811   */\n      0x12\n        /* \"#utility.yul\":11804:11807   */\n      dup4\n        /* \"#utility.yul\":11745:11812   */\n      tag_366\n      jump\t// in\n    tag_423:\n        /* \"#utility.yul\":11738:11812   */\n      swap2\n      pop\n        /* \"#utility.yul\":11821:11914   */\n      tag_424\n        /* \"#utility.yul\":11910:11913   */\n      dup3\n        /* \"#utility.yul\":11821:11914   */\n      tag_425\n      jump\t// in\n    tag_424:\n        /* \"#utility.yul\":11939:11941   */\n      0x20\n        /* \"#utility.yul\":11934:11937   */\n      dup3\n        /* \"#utility.yul\":11930:11942   */\n      add\n        /* \"#utility.yul\":11923:11942   */\n      swap1\n      pop\n        /* \"#utility.yul\":11582:11948   */\n      swap2\n      swap1\n      pop\n      jump\t// out\n        /* \"#utility.yul\":11954:12320   */\n    tag_426:\n        /* \"#utility.yul\":12096:12099   */\n      0x00\n        /* \"#utility.yul\":12117:12184   */\n      tag_428\n        /* \"#utility.yul\":12181:12183   */\n      0x25\n        /* \"#utility.yul\":12176:12179   */\n      dup4\n        /* \"#utility.yul\":12117:12184   */\n      tag_366\n      jump\t// in\n    tag_428:\n        /* \"#utility.yul\":12110:12184   */\n      swap2\n      pop\n        /* \"#utility.yul\":12193:12286   */\n      tag_429\n        /* \"#utility.yul\":12282:12285   */\n      dup3\n        /* \"#utility.yul\":12193:12286   */\n      tag_430\n      jump\t// in\n    tag_429:\n        /* \"#utility.yul\":12311:12313   */\n      0x40\n        /* \"#utility.yul\":12306:12309   */\n      dup3\n        /* \"#utility.yul\":12302:12314   */\n      add\n        /* \"#utility.yul\":12295:12314   */\n      swap1\n      pop\n        /* \"#utility.yul\":11954:12320   */\n      swap2\n      swap1\n      pop\n      jump\t// out\n        /* \"#utility.yul\":12400:13055   */\n    tag_328:\n        /* \"#utility.yul\":12527:12531   */\n      0x60\n        /* \"#utility.yul\":12522:12525   */\n      dup3\n        /* \"#utility.yul\":12518:12532   */\n      add\n        /* \"#utility.yul\":12615:12619   */\n      0x00\n        /* \"#utility.yul\":12608:12613   */\n      dup3\n        /* \"#utility.yul\":12604:12620   */\n      add\n        /* \"#utility.yul\":12598:12621   */\n      mload\n        /* \"#utility.yul\":12634:12691   */\n      tag_432\n        /* \"#utility.yul\":12685:12689   */\n      0x00\n        /* \"#utility.yul\":12680:12683   */\n      dup6\n        /* \"#utility.yul\":12676:12690   */\n      add\n        /* \"#utility.yul\":12662:12674   */\n      dup3\n        /* \"#utility.yul\":12634:12691   */\n      tag_350\n      jump\t// in\n    tag_432:\n        /* \"#utility.yul\":12542:12701   */\n      pop\n        /* \"#utility.yul\":12783:12787   */\n      0x20\n        /* \"#utility.yul\":12776:12781   */\n      dup3\n        /* \"#utility.yul\":12772:12788   */\n      add\n        /* \"#utility.yul\":12766:12789   */\n      mload\n        /* \"#utility.yul\":12802:12859   */\n      tag_433\n        /* \"#utility.yul\":12853:12857   */\n      0x20\n        /* \"#utility.yul\":12848:12851   */\n      dup6\n        /* \"#utility.yul\":12844:12858   */\n      add\n        /* \"#utility.yul\":12830:12842   */\n      dup3\n        /* \"#utility.yul\":12802:12859   */\n      tag_350\n      jump\t// in\n    tag_433:\n        /* \"#utility.yul\":12711:12869   */\n      pop\n        /* \"#utility.yul\":12956:12960   */\n      0x40\n        /* \"#utility.yul\":12949:12954   */\n      dup3\n        /* \"#utility.yul\":12945:12961   */\n      add\n        /* \"#utility.yul\":12939:12962   */\n      mload\n        /* \"#utility.yul\":12975:13038   */\n      tag_434\n        /* \"#utility.yul\":13032:13036   */\n      0x40\n        /* \"#utility.yul\":13027:13030   */\n      dup6\n        /* \"#utility.yul\":13023:13037   */\n      add\n        /* \"#utility.yul\":13009:13021   */\n      dup3\n        /* \"#utility.yul\":12975:13038   */\n      tag_329\n      jump\t// in\n    tag_434:\n        /* \"#utility.yul\":12879:13048   */\n      pop\n        /* \"#utility.yul\":12496:13055   */\n      pop\n        /* \"#utility.yul\":12400:13055   */\n      pop\n      pop\n      jump\t// out\n        /* \"#utility.yul\":13061:13179   */\n    tag_435:\n        /* \"#utility.yul\":13148:13172   */\n      tag_437\n        /* \"#utility.yul\":13166:13171   */\n      dup2\n        /* \"#utility.yul\":13148:13172   */\n      tag_438\n      jump\t// in\n    tag_437:\n        /* \"#utility.yul\":13143:13146   */\n      dup3\n        /* \"#utility.yul\":13136:13173   */\n      mstore\n        /* \"#utility.yul\":13061:13179   */\n      pop\n      pop\n      jump\t// out\n        /* \"#utility.yul\":13185:13407   */\n    tag_76:\n        /* \"#utility.yul\":13278:13282   */\n      0x00\n        /* \"#utility.yul\":13316:13318   */\n      0x20\n        /* \"#utility.yul\":13305:13314   */\n      dup3\n        /* \"#utility.yul\":13301:13319   */\n      add\n        /* \"#utility.yul\":13293:13319   */\n      swap1\n      pop\n        /* \"#utility.yul\":13329:13400   */\n      tag_440\n        /* \"#utility.yul\":13397:13398   */\n      0x00\n        /* \"#utility.yul\":13386:13395   */\n      dup4\n        /* \"#utility.yul\":13382:13399   */\n      add\n        /* \"#utility.yul\":13373:13379   */\n      dup5\n        /* \"#utility.yul\":13329:13400   */\n      tag_333\n      jump\t// in\n    tag_440:\n        /* \"#utility.yul\":13185:13407   */\n      swap3\n      swap2\n      pop\n      pop\n      jump\t// out\n        /* \"#utility.yul\":13413:13623   */\n    tag_50:\n        /* \"#utility.yul\":13500:13504   */\n      0x00\n        /* \"#utility.yul\":13538:13540   */\n      0x20\n        /* \"#utility.yul\":13527:13536   */\n      dup3\n        /* \"#utility.yul\":13523:13541   */\n      add\n        /* \"#utility.yul\":13515:13541   */\n      swap1\n      pop\n        /* \"#utility.yul\":13551:13616   */\n      tag_442\n        /* \"#utility.yul\":13613:13614   */\n      0x00\n        /* \"#utility.yul\":13602:13611   */\n      dup4\n        /* \"#utility.yul\":13598:13615   */\n      add\n        /* \"#utility.yul\":13589:13595   */\n      dup5\n        /* \"#utility.yul\":13551:13616   */\n      tag_354\n      jump\t// in\n    tag_442:\n        /* \"#utility.yul\":13413:13623   */\n      swap3\n      swap2\n      pop\n      pop\n      jump\t// out\n        /* \"#utility.yul\":13629:14047   */\n    tag_56:\n        /* \"#utility.yul\":13766:13770   */\n      0x00\n        /* \"#utility.yul\":13804:13806   */\n      0x60\n        /* \"#utility.yul\":13793:13802   */\n      dup3\n        /* \"#utility.yul\":13789:13807   */\n      add\n        /* \"#utility.yul\":13781:13807   */\n      swap1\n      pop\n        /* \"#utility.yul\":13817:13882   */\n      tag_444\n        /* \"#utility.yul\":13879:13880   */\n      0x00\n        /* \"#utility.yul\":13868:13877   */\n      dup4\n        /* \"#utility.yul\":13864:13881   */\n      add\n        /* \"#utility.yul\":13855:13861   */\n      dup7\n        /* \"#utility.yul\":13817:13882   */\n      tag_354\n      jump\t// in\n    tag_444:\n        /* \"#utility.yul\":13892:13958   */\n      tag_445\n        /* \"#utility.yul\":13954:13956   */\n      0x20\n        /* \"#utility.yul\":13943:13952   */\n      dup4\n        /* \"#utility.yul\":13939:13957   */\n      add\n        /* \"#utility.yul\":13930:13936   */\n      dup6\n        /* \"#utility.yul\":13892:13958   */\n      tag_354\n      jump\t// in\n    tag_445:\n        /* \"#utility.yul\":13968:14040   */\n      tag_446\n        /* \"#utility.yul\":14036:14038   */\n      0x40\n        /* \"#utility.yul\":14025:14034   */\n      dup4\n        /* \"#utility.yul\":14021:14039   */\n      add\n        /* \"#utility.yul\":14012:14018   */\n      dup5\n        /* \"#utility.yul\":13968:14040   */\n      tag_333\n      jump\t// in\n    tag_446:\n        /* \"#utility.yul\":13629:14047   */\n      swap5\n      swap4\n      pop\n      pop\n      pop\n      pop\n      jump\t// out\n        /* \"#utility.yul\":14053:14459   */\n    tag_45:\n        /* \"#utility.yul\":14184:14188   */\n      0x00\n        /* \"#utility.yul\":14222:14224   */\n      0x60\n        /* \"#utility.yul\":14211:14220   */\n      dup3\n        /* \"#utility.yul\":14207:14225   */\n      add\n        /* \"#utility.yul\":14199:14225   */\n      swap1\n      pop\n        /* \"#utility.yul\":14235:14300   */\n      tag_448\n        /* \"#utility.yul\":14297:14298   */\n      0x00\n        /* \"#utility.yul\":14286:14295   */\n      dup4\n        /* \"#utility.yul\":14282:14299   */\n      add\n        /* \"#utility.yul\":14273:14279   */\n      dup7\n        /* \"#utility.yul\":14235:14300   */\n      tag_354\n      jump\t// in\n    tag_448:\n        /* \"#utility.yul\":14310:14376   */\n      tag_449\n        /* \"#utility.yul\":14372:14374   */\n      0x20\n        /* \"#utility.yul\":14361:14370   */\n      dup4\n        /* \"#utility.yul\":14357:14375   */\n      add\n        /* \"#utility.yul\":14348:14354   */\n      dup6\n        /* \"#utility.yul\":14310:14376   */\n      tag_354\n      jump\t// in\n    tag_449:\n        /* \"#utility.yul\":14386:14452   */\n      tag_450\n        /* \"#utility.yul\":14448:14450   */\n      0x40\n        /* \"#utility.yul\":14437:14446   */\n      dup4\n        /* \"#utility.yul\":14433:14451   */\n      add\n        /* \"#utility.yul\":14424:14430   */\n      dup5\n        /* \"#utility.yul\":14386:14452   */\n      tag_354\n      jump\t// in\n    tag_450:\n        /* \"#utility.yul\":14053:14459   */\n      swap5\n      swap4\n      pop\n      pop\n      pop\n      pop\n      jump\t// out\n        /* \"#utility.yul\":14465:15237   */\n    tag_39:\n        /* \"#utility.yul\":14726:14730   */\n      0x00\n        /* \"#utility.yul\":14764:14767   */\n      0x80\n        /* \"#utility.yul\":14753:14762   */\n      dup3\n        /* \"#utility.yul\":14749:14768   */\n      add\n        /* \"#utility.yul\":14741:14768   */\n      swap1\n      pop\n        /* \"#utility.yul\":14778:14843   */\n      tag_452\n        /* \"#utility.yul\":14840:14841   */\n      0x00\n        /* \"#utility.yul\":14829:14838   */\n      dup4\n        /* \"#utility.yul\":14825:14842   */\n      add\n        /* \"#utility.yul\":14816:14822   */\n      dup8\n        /* \"#utility.yul\":14778:14843   */\n      tag_354\n      jump\t// in\n    tag_452:\n        /* \"#utility.yul\":14853:14925   */\n      tag_453\n        /* \"#utility.yul\":14921:14923   */\n      0x20\n        /* \"#utility.yul\":14910:14919   */\n      dup4\n        /* \"#utility.yul\":14906:14924   */\n      add\n        /* \"#utility.yul\":14897:14903   */\n      dup7\n        /* \"#utility.yul\":14853:14925   */\n      tag_357\n      jump\t// in\n    tag_453:\n        /* \"#utility.yul\":14935:15007   */\n      tag_454\n        /* \"#utility.yul\":15003:15005   */\n      0x40\n        /* \"#utility.yul\":14992:15001   */\n      dup4\n        /* \"#utility.yul\":14988:15006   */\n      add\n        /* \"#utility.yul\":14979:14985   */\n      dup6\n        /* \"#utility.yul\":14935:15007   */\n      tag_435\n      jump\t// in\n    tag_454:\n        /* \"#utility.yul\":15054:15063   */\n      dup2\n        /* \"#utility.yul\":15048:15052   */\n      dup2\n        /* \"#utility.yul\":15044:15064   */\n      sub\n        /* \"#utility.yul\":15039:15041   */\n      0x60\n        /* \"#utility.yul\":15028:15037   */\n      dup4\n        /* \"#utility.yul\":15024:15042   */\n      add\n        /* \"#utility.yul\":15017:15065   */\n      mstore\n        /* \"#utility.yul\":15082:15230   */\n      tag_455\n        /* \"#utility.yul\":15225:15229   */\n      dup2\n        /* \"#utility.yul\":15216:15222   */\n      dup5\n        /* \"#utility.yul\":15082:15230   */\n      tag_336\n      jump\t// in\n    tag_455:\n        /* \"#utility.yul\":15074:15230   */\n      swap1\n      pop\n        /* \"#utility.yul\":14465:15237   */\n      swap6\n      swap5\n      pop\n      pop\n      pop\n      pop\n      pop\n      jump\t// out\n        /* \"#utility.yul\":15243:15465   */\n    tag_102:\n        /* \"#utility.yul\":15336:15340   */\n      0x00\n        /* \"#utility.yul\":15374:15376   */\n      0x20\n        /* \"#utility.yul\":15363:15372   */\n      dup3\n        /* \"#utility.yul\":15359:15377   */\n      add\n        /* \"#utility.yul\":15351:15377   */\n      swap1\n      pop\n        /* \"#utility.yul\":15387:15458   */\n      tag_457\n        /* \"#utility.yul\":15455:15456   */\n      0x00\n        /* \"#utility.yul\":15444:15453   */\n      dup4\n        /* \"#utility.yul\":15440:15457   */\n      add\n        /* \"#utility.yul\":15431:15437   */\n      dup5\n        /* \"#utility.yul\":15387:15458   */\n      tag_357\n      jump\t// in\n    tag_457:\n        /* \"#utility.yul\":15243:15465   */\n      swap3\n      swap2\n      pop\n      pop\n      jump\t// out\n        /* \"#utility.yul\":15471:15894   */\n    tag_97:\n        /* \"#utility.yul\":15612:15616   */\n      0x00\n        /* \"#utility.yul\":15650:15652   */\n      0x40\n        /* \"#utility.yul\":15639:15648   */\n      dup3\n        /* \"#utility.yul\":15635:15653   */\n      add\n        /* \"#utility.yul\":15627:15653   */\n      swap1\n      pop\n        /* \"#utility.yul\":15663:15734   */\n      tag_459\n        /* \"#utility.yul\":15731:15732   */\n      0x00\n        /* \"#utility.yul\":15720:15729   */\n      dup4\n        /* \"#utility.yul\":15716:15733   */\n      add\n        /* \"#utility.yul\":15707:15713   */\n      dup6\n        /* \"#utility.yul\":15663:15734   */\n      tag_357\n      jump\t// in\n    tag_459:\n        /* \"#utility.yul\":15781:15790   */\n      dup2\n        /* \"#utility.yul\":15775:15779   */\n      dup2\n        /* \"#utility.yul\":15771:15791   */\n      sub\n        /* \"#utility.yul\":15766:15768   */\n      0x20\n        /* \"#utility.yul\":15755:15764   */\n      dup4\n        /* \"#utility.yul\":15751:15769   */\n      add\n        /* \"#utility.yul\":15744:15792   */\n      mstore\n        /* \"#utility.yul\":15809:15887   */\n      tag_460\n        /* \"#utility.yul\":15882:15886   */\n      dup2\n        /* \"#utility.yul\":15873:15879   */\n      dup5\n        /* \"#utility.yul\":15809:15887   */\n      tag_361\n      jump\t// in\n    tag_460:\n        /* \"#utility.yul\":15801:15887   */\n      swap1\n      pop\n        /* \"#utility.yul\":15471:15894   */\n      swap4\n      swap3\n      pop\n      pop\n      pop\n      jump\t// out\n        /* \"#utility.yul\":15900:16213   */\n    tag_107:\n        /* \"#utility.yul\":16013:16017   */\n      0x00\n        /* \"#utility.yul\":16051:16053   */\n      0x20\n        /* \"#utility.yul\":16040:16049   */\n      dup3\n        /* \"#utility.yul\":16036:16054   */\n      add\n        /* \"#utility.yul\":16028:16054   */\n      swap1\n      pop\n        /* \"#utility.yul\":16100:16109   */\n      dup2\n        /* \"#utility.yul\":16094:16098   */\n      dup2\n        /* \"#utility.yul\":16090:16110   */\n      sub\n        /* \"#utility.yul\":16086:16087   */\n      0x00\n        /* \"#utility.yul\":16075:16084   */\n      dup4\n        /* \"#utility.yul\":16071:16088   */\n      add\n        /* \"#utility.yul\":16064:16111   */\n      mstore\n        /* \"#utility.yul\":16128:16206   */\n      tag_462\n        /* \"#utility.yul\":16201:16205   */\n      dup2\n        /* \"#utility.yul\":16192:16198   */\n      dup5\n        /* \"#utility.yul\":16128:16206   */\n      tag_361\n      jump\t// in\n    tag_462:\n        /* \"#utility.yul\":16120:16206   */\n      swap1\n      pop\n        /* \"#utility.yul\":15900:16213   */\n      swap3\n      swap2\n      pop\n      pop\n      jump\t// out\n        /* \"#utility.yul\":16219:16638   */\n    tag_234:\n        /* \"#utility.yul\":16385:16389   */\n      0x00\n        /* \"#utility.yul\":16423:16425   */\n      0x20\n        /* \"#utility.yul\":16412:16421   */\n      dup3\n        /* \"#utility.yul\":16408:16426   */\n      add\n        /* \"#utility.yul\":16400:16426   */\n      swap1\n      pop\n        /* \"#utility.yul\":16472:16481   */\n      dup2\n        /* \"#utility.yul\":16466:16470   */\n      dup2\n        /* \"#utility.yul\":16462:16482   */\n      sub\n        /* \"#utility.yul\":16458:16459   */\n      0x00\n        /* \"#utility.yul\":16447:16456   */\n      dup4\n        /* \"#utility.yul\":16443:16460   */\n      add\n        /* \"#utility.yul\":16436:16483   */\n      mstore\n        /* \"#utility.yul\":16500:16631   */\n      tag_464\n        /* \"#utility.yul\":16626:16630   */\n      dup2\n        /* \"#utility.yul\":16500:16631   */\n      tag_371\n      jump\t// in\n    tag_464:\n        /* \"#utility.yul\":16492:16631   */\n      swap1\n      pop\n        /* \"#utility.yul\":16219:16638   */\n      swap2\n      swap1\n      pop\n      jump\t// out\n        /* \"#utility.yul\":16644:17063   */\n    tag_208:\n        /* \"#utility.yul\":16810:16814   */\n      0x00\n        /* \"#utility.yul\":16848:16850   */\n      0x20\n        /* \"#utility.yul\":16837:16846   */\n      dup3\n        /* \"#utility.yul\":16833:16851   */\n      add\n        /* \"#utility.yul\":16825:16851   */\n      swap1\n      pop\n        /* \"#utility.yul\":16897:16906   */\n      dup2\n        /* \"#utility.yul\":16891:16895   */\n      dup2\n        /* \"#utility.yul\":16887:16907   */\n      sub\n        /* \"#utility.yul\":16883:16884   */\n      0x00\n        /* \"#utility.yul\":16872:16881   */\n      dup4\n        /* \"#utility.yul\":16868:16885   */\n      add\n        /* \"#utility.yul\":16861:16908   */\n      mstore\n        /* \"#utility.yul\":16925:17056   */\n      tag_466\n        /* \"#utility.yul\":17051:17055   */\n      dup2\n        /* \"#utility.yul\":16925:17056   */\n      tag_376\n      jump\t// in\n    tag_466:\n        /* \"#utility.yul\":16917:17056   */\n      swap1\n      pop\n        /* \"#utility.yul\":16644:17063   */\n      swap2\n      swap1\n      pop\n      jump\t// out\n        /* \"#utility.yul\":17069:17488   */\n    tag_161:\n        /* \"#utility.yul\":17235:17239   */\n      0x00\n        /* \"#utility.yul\":17273:17275   */\n      0x20\n        /* \"#utility.yul\":17262:17271   */\n      dup3\n        /* \"#utility.yul\":17258:17276   */\n      add\n        /* \"#utility.yul\":17250:17276   */\n      swap1\n      pop\n        /* \"#utility.yul\":17322:17331   */\n      dup2\n        /* \"#utility.yul\":17316:17320   */\n      dup2\n        /* \"#utility.yul\":17312:17332   */\n      sub\n        /* \"#utility.yul\":17308:17309   */\n      0x00\n        /* \"#utility.yul\":17297:17306   */\n      dup4\n        /* \"#utility.yul\":17293:17310   */\n      add\n        /* \"#utility.yul\":17286:17333   */\n      mstore\n        /* \"#utility.yul\":17350:17481   */\n      tag_468\n        /* \"#utility.yul\":17476:17480   */\n      dup2\n        /* \"#utility.yul\":17350:17481   */\n      tag_381\n      jump\t// in\n    tag_468:\n        /* \"#utility.yul\":17342:17481   */\n      swap1\n      pop\n        /* \"#utility.yul\":17069:17488   */\n      swap2\n      swap1\n      pop\n      jump\t// out\n        /* \"#utility.yul\":17494:17913   */\n    tag_192:\n        /* \"#utility.yul\":17660:17664   */\n      0x00\n        /* \"#utility.yul\":17698:17700   */\n      0x20\n        /* \"#utility.yul\":17687:17696   */\n      dup3\n        /* \"#utility.yul\":17683:17701   */\n      add\n        /* \"#utility.yul\":17675:17701   */\n      swap1\n      pop\n        /* \"#utility.yul\":17747:17756   */\n      dup2\n        /* \"#utility.yul\":17741:17745   */\n      dup2\n        /* \"#utility.yul\":17737:17757   */\n      sub\n        /* \"#utility.yul\":17733:17734   */\n      0x00\n        /* \"#utility.yul\":17722:17731   */\n      dup4\n        /* \"#utility.yul\":17718:17735   */\n      add\n        /* \"#utility.yul\":17711:17758   */\n      mstore\n        /* \"#utility.yul\":17775:17906   */\n      tag_470\n        /* \"#utility.yul\":17901:17905   */\n      dup2\n        /* \"#utility.yul\":17775:17906   */\n      tag_386\n      jump\t// in\n    tag_470:\n        /* \"#utility.yul\":17767:17906   */\n      swap1\n      pop\n        /* \"#utility.yul\":17494:17913   */\n      swap2\n      swap1\n      pop\n      jump\t// out\n        /* \"#utility.yul\":17919:18338   */\n    tag_231:\n        /* \"#utility.yul\":18085:18089   */\n      0x00\n        /* \"#utility.yul\":18123:18125   */\n      0x20\n        /* \"#utility.yul\":18112:18121   */\n      dup3\n        /* \"#utility.yul\":18108:18126   */\n      add\n        /* \"#utility.yul\":18100:18126   */\n      swap1\n      pop\n        /* \"#utility.yul\":18172:18181   */\n      dup2\n        /* \"#utility.yul\":18166:18170   */\n      dup2\n        /* \"#utility.yul\":18162:18182   */\n      sub\n        /* \"#utility.yul\":18158:18159   */\n      0x00\n        /* \"#utility.yul\":18147:18156   */\n      dup4\n        /* \"#utility.yul\":18143:18160   */\n      add\n        /* \"#utility.yul\":18136:18183   */\n      mstore\n        /* \"#utility.yul\":18200:18331   */\n      tag_472\n        /* \"#utility.yul\":18326:18330   */\n      dup2\n        /* \"#utility.yul\":18200:18331   */\n      tag_391\n      jump\t// in\n    tag_472:\n        /* \"#utility.yul\":18192:18331   */\n      swap1\n      pop\n        /* \"#utility.yul\":17919:18338   */\n      swap2\n      swap1\n      pop\n      jump\t// out\n        /* \"#utility.yul\":18344:18763   */\n    tag_189:\n        /* \"#utility.yul\":18510:18514   */\n      0x00\n        /* \"#utility.yul\":18548:18550   */\n      0x20\n        /* \"#utility.yul\":18537:18546   */\n      dup3\n        /* \"#utility.yul\":18533:18551   */\n      add\n        /* \"#utility.yul\":18525:18551   */\n      swap1\n      pop\n        /* \"#utility.yul\":18597:18606   */\n      dup2\n        /* \"#utility.yul\":18591:18595   */\n      dup2\n        /* \"#utility.yul\":18587:18607   */\n      sub\n        /* \"#utility.yul\":18583:18584   */\n      0x00\n        /* \"#utility.yul\":18572:18581   */\n      dup4\n        /* \"#utility.yul\":18568:18585   */\n      add\n        /* \"#utility.yul\":18561:18608   */\n      mstore\n        /* \"#utility.yul\":18625:18756   */\n      tag_474\n        /* \"#utility.yul\":18751:18755   */\n      dup2\n        /* \"#utility.yul\":18625:18756   */\n      tag_396\n      jump\t// in\n    tag_474:\n        /* \"#utility.yul\":18617:18756   */\n      swap1\n      pop\n        /* \"#utility.yul\":18344:18763   */\n      swap2\n      swap1\n      pop\n      jump\t// out\n        /* \"#utility.yul\":18769:19188   */\n    tag_237:\n        /* \"#utility.yul\":18935:18939   */\n      0x00\n        /* \"#utility.yul\":18973:18975   */\n      0x20\n        /* \"#utility.yul\":18962:18971   */\n      dup3\n        /* \"#utility.yul\":18958:18976   */\n      add\n        /* \"#utility.yul\":18950:18976   */\n      swap1\n      pop\n        /* \"#utility.yul\":19022:19031   */\n      dup2\n        /* \"#utility.yul\":19016:19020   */\n      dup2\n        /* \"#utility.yul\":19012:19032   */\n      sub\n        /* \"#utility.yul\":19008:19009   */\n      0x00\n        /* \"#utility.yul\":18997:19006   */\n      dup4\n        /* \"#utility.yul\":18993:19010   */\n      add\n        /* \"#utility.yul\":18986:19033   */\n      mstore\n        /* \"#utility.yul\":19050:19181   */\n      tag_476\n        /* \"#utility.yul\":19176:19180   */\n      dup2\n        /* \"#utility.yul\":19050:19181   */\n      tag_401\n      jump\t// in\n    tag_476:\n        /* \"#utility.yul\":19042:19181   */\n      swap1\n      pop\n        /* \"#utility.yul\":18769:19188   */\n      swap2\n      swap1\n      pop\n      jump\t// out\n        /* \"#utility.yul\":19194:19613   */\n    tag_228:\n        /* \"#utility.yul\":19360:19364   */\n      0x00\n        /* \"#utility.yul\":19398:19400   */\n      0x20\n        /* \"#utility.yul\":19387:19396   */\n      dup3\n        /* \"#utility.yul\":19383:19401   */\n      add\n        /* \"#utility.yul\":19375:19401   */\n      swap1\n      pop\n        /* \"#utility.yul\":19447:19456   */\n      dup2\n        /* \"#utility.yul\":19441:19445   */\n      dup2\n        /* \"#utility.yul\":19437:19457   */\n      sub\n        /* \"#utility.yul\":19433:19434   */\n      0x00\n        /* \"#utility.yul\":19422:19431   */\n      dup4\n        /* \"#utility.yul\":19418:19435   */\n      add\n        /* \"#utility.yul\":19411:19458   */\n      mstore\n        /* \"#utility.yul\":19475:19606   */\n      tag_478\n        /* \"#utility.yul\":19601:19605   */\n      dup2\n        /* \"#utility.yul\":19475:19606   */\n      tag_406\n      jump\t// in\n    tag_478:\n        /* \"#utility.yul\":19467:19606   */\n      swap1\n      pop\n        /* \"#utility.yul\":19194:19613   */\n      swap2\n      swap1\n      pop\n      jump\t// out\n        /* \"#utility.yul\":19619:20038   */\n    tag_143:\n        /* \"#utility.yul\":19785:19789   */\n      0x00\n        /* \"#utility.yul\":19823:19825   */\n      0x20\n        /* \"#utility.yul\":19812:19821   */\n      dup3\n        /* \"#utility.yul\":19808:19826   */\n      add\n        /* \"#utility.yul\":19800:19826   */\n      swap1\n      pop\n        /* \"#utility.yul\":19872:19881   */\n      dup2\n        /* \"#utility.yul\":19866:19870   */\n      dup2\n        /* \"#utility.yul\":19862:19882   */\n      sub\n        /* \"#utility.yul\":19858:19859   */\n      0x00\n        /* \"#utility.yul\":19847:19856   */\n      dup4\n        /* \"#utility.yul\":19843:19860   */\n      add\n        /* \"#utility.yul\":19836:19883   */\n      mstore\n        /* \"#utility.yul\":19900:20031   */\n      tag_480\n        /* \"#utility.yul\":20026:20030   */\n      dup2\n        /* \"#utility.yul\":19900:20031   */\n      tag_411\n      jump\t// in\n    tag_480:\n        /* \"#utility.yul\":19892:20031   */\n      swap1\n      pop\n        /* \"#utility.yul\":19619:20038   */\n      swap2\n      swap1\n      pop\n      jump\t// out\n        /* \"#utility.yul\":20044:20463   */\n    tag_136:\n        /* \"#utility.yul\":20210:20214   */\n      0x00\n        /* \"#utility.yul\":20248:20250   */\n      0x20\n        /* \"#utility.yul\":20237:20246   */\n      dup3\n        /* \"#utility.yul\":20233:20251   */\n      add\n        /* \"#utility.yul\":20225:20251   */\n      swap1\n      pop\n        /* \"#utility.yul\":20297:20306   */\n      dup2\n        /* \"#utility.yul\":20291:20295   */\n      dup2\n        /* \"#utility.yul\":20287:20307   */\n      sub\n        /* \"#utility.yul\":20283:20284   */\n      0x00\n        /* \"#utility.yul\":20272:20281   */\n      dup4\n        /* \"#utility.yul\":20268:20285   */\n      add\n        /* \"#utility.yul\":20261:20308   */\n      mstore\n        /* \"#utility.yul\":20325:20456   */\n      tag_482\n        /* \"#utility.yul\":20451:20455   */\n      dup2\n        /* \"#utility.yul\":20325:20456   */\n      tag_416\n      jump\t// in\n    tag_482:\n        /* \"#utility.yul\":20317:20456   */\n      swap1\n      pop\n        /* \"#utility.yul\":20044:20463   */\n      swap2\n      swap1\n      pop\n      jump\t// out\n        /* \"#utility.yul\":20469:20888   */\n    tag_186:\n        /* \"#utility.yul\":20635:20639   */\n      0x00\n        /* \"#utility.yul\":20673:20675   */\n      0x20\n        /* \"#utility.yul\":20662:20671   */\n      dup3\n        /* \"#utility.yul\":20658:20676   */\n      add\n        /* \"#utility.yul\":20650:20676   */\n      swap1\n      pop\n        /* \"#utility.yul\":20722:20731   */\n      dup2\n        /* \"#utility.yul\":20716:20720   */\n      dup2\n        /* \"#utility.yul\":20712:20732   */\n      sub\n        /* \"#utility.yul\":20708:20709   */\n      0x00\n        /* \"#utility.yul\":20697:20706   */\n      dup4\n        /* \"#utility.yul\":20693:20710   */\n      add\n        /* \"#utility.yul\":20686:20733   */\n      mstore\n        /* \"#utility.yul\":20750:20881   */\n      tag_484\n        /* \"#utility.yul\":20876:20880   */\n      dup2\n        /* \"#utility.yul\":20750:20881   */\n      tag_421\n      jump\t// in\n    tag_484:\n        /* \"#utility.yul\":20742:20881   */\n      swap1\n      pop\n        /* \"#utility.yul\":20469:20888   */\n      swap2\n      swap1\n      pop\n      jump\t// out\n        /* \"#utility.yul\":20894:21313   */\n    tag_157:\n        /* \"#utility.yul\":21060:21064   */\n      0x00\n        /* \"#utility.yul\":21098:21100   */\n      0x20\n        /* \"#utility.yul\":21087:21096   */\n      dup3\n        /* \"#utility.yul\":21083:21101   */\n      add\n        /* \"#utility.yul\":21075:21101   */\n      swap1\n      pop\n        /* \"#utility.yul\":21147:21156   */\n      dup2\n        /* \"#utility.yul\":21141:21145   */\n      dup2\n        /* \"#utility.yul\":21137:21157   */\n      sub\n        /* \"#utility.yul\":21133:21134   */\n      0x00\n        /* \"#utility.yul\":21122:21131   */\n      dup4\n        /* \"#utility.yul\":21118:21135   */\n      add\n        /* \"#utility.yul\":21111:21158   */\n      mstore\n        /* \"#utility.yul\":21175:21306   */\n      tag_486\n        /* \"#utility.yul\":21301:21305   */\n      dup2\n        /* \"#utility.yul\":21175:21306   */\n      tag_426\n      jump\t// in\n    tag_486:\n        /* \"#utility.yul\":21167:21306   */\n      swap1\n      pop\n        /* \"#utility.yul\":20894:21313   */\n      swap2\n      swap1\n      pop\n      jump\t// out\n        /* \"#utility.yul\":21319:21541   */\n    tag_34:\n        /* \"#utility.yul\":21412:21416   */\n      0x00\n        /* \"#utility.yul\":21450:21452   */\n      0x20\n        /* \"#utility.yul\":21439:21448   */\n      dup3\n        /* \"#utility.yul\":21435:21453   */\n      add\n        /* \"#utility.yul\":21427:21453   */\n      swap1\n      pop\n        /* \"#utility.yul\":21463:21534   */\n      tag_488\n        /* \"#utility.yul\":21531:21532   */\n      0x00\n        /* \"#utility.yul\":21520:21529   */\n      dup4\n        /* \"#utility.yul\":21516:21533   */\n      add\n        /* \"#utility.yul\":21507:21513   */\n      dup5\n        /* \"#utility.yul\":21463:21534   */\n      tag_435\n      jump\t// in\n    tag_488:\n        /* \"#utility.yul\":21319:21541   */\n      swap3\n      swap2\n      pop\n      pop\n      jump\t// out\n        /* \"#utility.yul\":21547:21676   */\n    tag_255:\n        /* \"#utility.yul\":21581:21587   */\n      0x00\n        /* \"#utility.yul\":21608:21628   */\n      tag_490\n      tag_491\n      jump\t// in\n    tag_490:\n        /* \"#utility.yul\":21598:21628   */\n      swap1\n      pop\n        /* \"#utility.yul\":21637:21670   */\n      tag_492\n        /* \"#utility.yul\":21665:21669   */\n      dup3\n        /* \"#utility.yul\":21657:21663   */\n      dup3\n        /* \"#utility.yul\":21637:21670   */\n      tag_493\n      jump\t// in\n    tag_492:\n        /* \"#utility.yul\":21547:21676   */\n      swap2\n      swap1\n      pop\n      jump\t// out\n        /* \"#utility.yul\":21682:21757   */\n    tag_491:\n        /* \"#utility.yul\":21715:21721   */\n      0x00\n        /* \"#utility.yul\":21748:21750   */\n      0x40\n        /* \"#utility.yul\":21742:21751   */\n      mload\n        /* \"#utility.yul\":21732:21751   */\n      swap1\n      pop\n        /* \"#utility.yul\":21682:21757   */\n      swap1\n      jump\t// out\n        /* \"#utility.yul\":21763:22071   */\n    tag_254:\n        /* \"#utility.yul\":21825:21829   */\n      0x00\n        /* \"#utility.yul\":21915:21933   */\n      0xffffffffffffffff\n        /* \"#utility.yul\":21907:21913   */\n      dup3\n        /* \"#utility.yul\":21904:21934   */\n      gt\n        /* \"#utility.yul\":21901:21957   */\n      iszero\n      tag_496\n      jumpi\n        /* \"#utility.yul\":21937:21955   */\n      tag_497\n      tag_498\n      jump\t// in\n    tag_497:\n        /* \"#utility.yul\":21901:21957   */\n    tag_496:\n        /* \"#utility.yul\":21975:22004   */\n      tag_499\n        /* \"#utility.yul\":21997:22003   */\n      dup3\n        /* \"#utility.yul\":21975:22004   */\n      tag_370\n      jump\t// in\n    tag_499:\n        /* \"#utility.yul\":21967:22004   */\n      swap1\n      pop\n        /* \"#utility.yul\":22059:22063   */\n      0x20\n        /* \"#utility.yul\":22053:22057   */\n      dup2\n        /* \"#utility.yul\":22049:22064   */\n      add\n        /* \"#utility.yul\":22041:22064   */\n      swap1\n      pop\n        /* \"#utility.yul\":21763:22071   */\n      swap2\n      swap1\n      pop\n      jump\t// out\n        /* \"#utility.yul\":22077:22229   */\n    tag_343:\n        /* \"#utility.yul\":22164:22168   */\n      0x00\n        /* \"#utility.yul\":22187:22190   */\n      dup2\n        /* \"#utility.yul\":22179:22190   */\n      swap1\n      pop\n        /* \"#utility.yul\":22217:22221   */\n      0x20\n        /* \"#utility.yul\":22212:22215   */\n      dup3\n        /* \"#utility.yul\":22208:22222   */\n      add\n        /* \"#utility.yul\":22200:22222   */\n      swap1\n      pop\n        /* \"#utility.yul\":22077:22229   */\n      swap2\n      swap1\n      pop\n      jump\t// out\n        /* \"#utility.yul\":22235:22369   */\n    tag_339:\n        /* \"#utility.yul\":22322:22328   */\n      0x00\n        /* \"#utility.yul\":22356:22361   */\n      dup2\n        /* \"#utility.yul\":22350:22362   */\n      mload\n        /* \"#utility.yul\":22340:22362   */\n      swap1\n      pop\n        /* \"#utility.yul\":22235:22369   */\n      swap2\n      swap1\n      pop\n      jump\t// out\n        /* \"#utility.yul\":22375:22474   */\n    tag_364:\n        /* \"#utility.yul\":22427:22433   */\n      0x00\n        /* \"#utility.yul\":22461:22466   */\n      dup2\n        /* \"#utility.yul\":22455:22467   */\n      mload\n        /* \"#utility.yul\":22445:22467   */\n      swap1\n      pop\n        /* \"#utility.yul\":22375:22474   */\n      swap2\n      swap1\n      pop\n      jump\t// out\n        /* \"#utility.yul\":22480:22613   */\n    tag_349:\n        /* \"#utility.yul\":22570:22574   */\n      0x00\n        /* \"#utility.yul\":22602:22606   */\n      0x20\n        /* \"#utility.yul\":22597:22600   */\n      dup3\n        /* \"#utility.yul\":22593:22607   */\n      add\n        /* \"#utility.yul\":22585:22607   */\n      swap1\n      pop\n        /* \"#utility.yul\":22480:22613   */\n      swap2\n      swap1\n      pop\n      jump\t// out\n        /* \"#utility.yul\":22619:22823   */\n    tag_341:\n        /* \"#utility.yul\":22738:22749   */\n      0x00\n        /* \"#utility.yul\":22772:22778   */\n      dup3\n        /* \"#utility.yul\":22767:22770   */\n      dup3\n        /* \"#utility.yul\":22760:22779   */\n      mstore\n        /* \"#utility.yul\":22812:22816   */\n      0x20\n        /* \"#utility.yul\":22807:22810   */\n      dup3\n        /* \"#utility.yul\":22803:22817   */\n      add\n        /* \"#utility.yul\":22788:22817   */\n      swap1\n      pop\n        /* \"#utility.yul\":22619:22823   */\n      swap3\n      swap2\n      pop\n      pop\n      jump\t// out\n        /* \"#utility.yul\":22829:22998   */\n    tag_366:\n        /* \"#utility.yul\":22913:22924   */\n      0x00\n        /* \"#utility.yul\":22947:22953   */\n      dup3\n        /* \"#utility.yul\":22942:22945   */\n      dup3\n        /* \"#utility.yul\":22935:22954   */\n      mstore\n        /* \"#utility.yul\":22987:22991   */\n      0x20\n        /* \"#utility.yul\":22982:22985   */\n      dup3\n        /* \"#utility.yul\":22978:22992   */\n      add\n        /* \"#utility.yul\":22963:22992   */\n      swap1\n      pop\n        /* \"#utility.yul\":22829:22998   */\n      swap3\n      swap2\n      pop\n      pop\n      jump\t// out\n        /* \"#utility.yul\":23004:23309   */\n    tag_195:\n        /* \"#utility.yul\":23044:23047   */\n      0x00\n        /* \"#utility.yul\":23063:23083   */\n      tag_507\n        /* \"#utility.yul\":23081:23082   */\n      dup3\n        /* \"#utility.yul\":23063:23083   */\n      tag_438\n      jump\t// in\n    tag_507:\n        /* \"#utility.yul\":23058:23083   */\n      swap2\n      pop\n        /* \"#utility.yul\":23097:23117   */\n      tag_508\n        /* \"#utility.yul\":23115:23116   */\n      dup4\n        /* \"#utility.yul\":23097:23117   */\n      tag_438\n      jump\t// in\n    tag_508:\n        /* \"#utility.yul\":23092:23117   */\n      swap3\n      pop\n        /* \"#utility.yul\":23251:23252   */\n      dup3\n        /* \"#utility.yul\":23183:23249   */\n      0xffffffffffffffffffffffffffffffffffffffffffffffffffffffffffffffff\n        /* \"#utility.yul\":23179:23253   */\n      sub\n        /* \"#utility.yul\":23176:23177   */\n      dup3\n        /* \"#utility.yul\":23173:23254   */\n      gt\n        /* \"#utility.yul\":23170:23277   */\n      iszero\n      tag_509\n      jumpi\n        /* \"#utility.yul\":23257:23275   */\n      tag_510\n      tag_511\n      jump\t// in\n    tag_510:\n        /* \"#utility.yul\":23170:23277   */\n    tag_509:\n        /* \"#utility.yul\":23301:23302   */\n      dup3\n        /* \"#utility.yul\":23298:23299   */\n      dup3\n        /* \"#utility.yul\":23294:23303   */\n      add\n        /* \"#utility.yul\":23287:23303   */\n      swap1\n      pop\n        /* \"#utility.yul\":23004:23309   */\n      swap3\n      swap2\n      pop\n      pop\n      jump\t// out\n        /* \"#utility.yul\":23315:23500   */\n    tag_163:\n        /* \"#utility.yul\":23355:23356   */\n      0x00\n        /* \"#utility.yul\":23372:23392   */\n      tag_513\n        /* \"#utility.yul\":23390:23391   */\n      dup3\n        /* \"#utility.yul\":23372:23392   */\n      tag_438\n      jump\t// in\n    tag_513:\n        /* \"#utility.yul\":23367:23392   */\n      swap2\n      pop\n        /* \"#utility.yul\":23406:23426   */\n      tag_514\n        /* \"#utility.yul\":23424:23425   */\n      dup4\n        /* \"#utility.yul\":23406:23426   */\n      tag_438\n      jump\t// in\n    tag_514:\n        /* \"#utility.yul\":23401:23426   */\n      swap3\n      pop\n        /* \"#utility.yul\":23445:23446   */\n      dup3\n        /* \"#utility.yul\":23435:23470   */\n      tag_515\n      jumpi\n        /* \"#utility.yul\":23450:23468   */\n      tag_516\n      tag_517\n      jump\t// in\n    tag_516:\n        /* \"#utility.yul\":23435:23470   */\n    tag_515:\n        /* \"#utility.yul\":23492:23493   */\n      dup3\n        /* \"#utility.yul\":23489:23490   */\n      dup3\n        /* \"#utility.yul\":23485:23494   */\n      div\n        /* \"#utility.yul\":23480:23494   */\n      swap1\n      pop\n        /* \"#utility.yul\":23315:23500   */\n      swap3\n      swap2\n      pop\n      pop\n      jump\t// out\n        /* \"#utility.yul\":23506:23854   */\n    tag_165:\n        /* \"#utility.yul\":23546:23553   */\n      0x00\n        /* \"#utility.yul\":23569:23589   */\n      tag_519\n        /* \"#utility.yul\":23587:23588   */\n      dup3\n        /* \"#utility.yul\":23569:23589   */\n      tag_438\n      jump\t// in\n    tag_519:\n        /* \"#utility.yul\":23564:23589   */\n      swap2\n      pop\n        /* \"#utility.yul\":23603:23623   */\n      tag_520\n        /* \"#utility.yul\":23621:23622   */\n      dup4\n        /* \"#utility.yul\":23603:23623   */\n      tag_438\n      jump\t// in\n    tag_520:\n        /* \"#utility.yul\":23598:23623   */\n      swap3\n      pop\n        /* \"#utility.yul\":23791:23792   */\n      dup2\n        /* \"#utility.yul\":23723:23789   */\n      0xffffffffffffffffffffffffffffffffffffffffffffffffffffffffffffffff\n        /* \"#utility.yul\":23719:23793   */\n      div\n        /* \"#utility.yul\":23716:23717   */\n      dup4\n        /* \"#utility.yul\":23713:23794   */\n      gt\n        /* \"#utility.yul\":23708:23709   */\n      dup3\n        /* \"#utility.yul\":23701:23710   */\n      iszero\n        /* \"#utility.yul\":23694:23711   */\n      iszero\n        /* \"#utility.yul\":23690:23795   */\n      and\n        /* \"#utility.yul\":23687:23818   */\n      iszero\n      tag_521\n      jumpi\n        /* \"#utility.yul\":23798:23816   */\n      tag_522\n      tag_511\n      jump\t// in\n    tag_522:\n        /* \"#utility.yul\":23687:23818   */\n    tag_521:\n        /* \"#utility.yul\":23846:23847   */\n      dup3\n        /* \"#utility.yul\":23843:23844   */\n      dup3\n        /* \"#utility.yul\":23839:23848   */\n      mul\n        /* \"#utility.yul\":23828:23848   */\n      swap1\n      pop\n        /* \"#utility.yul\":23506:23854   */\n      swap3\n      swap2\n      pop\n      pop\n      jump\t// out\n        /* \"#utility.yul\":23860:23956   */\n    tag_332:\n        /* \"#utility.yul\":23897:23904   */\n      0x00\n        /* \"#utility.yul\":23926:23950   */\n      tag_524\n        /* \"#utility.yul\":23944:23949   */\n      dup3\n        /* \"#utility.yul\":23926:23950   */\n      tag_525\n      jump\t// in\n    tag_524:\n        /* \"#utility.yul\":23915:23950   */\n      swap1\n      pop\n        /* \"#utility.yul\":23860:23956   */\n      swap2\n      swap1\n      pop\n      jump\t// out\n        /* \"#utility.yul\":23962:24052   */\n    tag_353:\n        /* \"#utility.yul\":23996:24003   */\n      0x00\n        /* \"#utility.yul\":24039:24044   */\n      dup2\n        /* \"#utility.yul\":24032:24045   */\n      iszero\n        /* \"#utility.yul\":24025:24046   */\n      iszero\n        /* \"#utility.yul\":24014:24046   */\n      swap1\n      pop\n        /* \"#utility.yul\":23962:24052   */\n      swap2\n      swap1\n      pop\n      jump\t// out\n        /* \"#utility.yul\":24058:24135   */\n    tag_360:\n        /* \"#utility.yul\":24095:24102   */\n      0x00\n        /* \"#utility.yul\":24124:24129   */\n      dup2\n        /* \"#utility.yul\":24113:24129   */\n      swap1\n      pop\n        /* \"#utility.yul\":24058:24135   */\n      swap2\n      swap1\n      pop\n      jump\t// out\n        /* \"#utility.yul\":24141:24267   */\n    tag_525:\n        /* \"#utility.yul\":24178:24185   */\n      0x00\n        /* \"#utility.yul\":24218:24260   */\n      0xffffffffffffffffffffffffffffffffffffffff\n        /* \"#utility.yul\":24211:24216   */\n      dup3\n        /* \"#utility.yul\":24207:24261   */\n      and\n        /* \"#utility.yul\":24196:24261   */\n      swap1\n      pop\n        /* \"#utility.yul\":24141:24267   */\n      swap2\n      swap1\n      pop\n      jump\t// out\n        /* \"#utility.yul\":24273:24350   */\n    tag_438:\n        /* \"#utility.yul\":24310:24317   */\n      0x00\n        /* \"#utility.yul\":24339:24344   */\n      dup2\n        /* \"#utility.yul\":24328:24344   */\n      swap1\n      pop\n        /* \"#utility.yul\":24273:24350   */\n      swap2\n      swap1\n      pop\n      jump\t// out\n        /* \"#utility.yul\":24356:24442   */\n    tag_530:\n        /* \"#utility.yul\":24391:24398   */\n      0x00\n        /* \"#utility.yul\":24431:24435   */\n      0xff\n        /* \"#utility.yul\":24424:24429   */\n      dup3\n        /* \"#utility.yul\":24420:24436   */\n      and\n        /* \"#utility.yul\":24409:24436   */\n      swap1\n      pop\n        /* \"#utility.yul\":24356:24442   */\n      swap2\n      swap1\n      pop\n      jump\t// out\n        /* \"#utility.yul\":24448:24602   */\n    tag_260:\n        /* \"#utility.yul\":24532:24538   */\n      dup3\n        /* \"#utility.yul\":24527:24530   */\n      dup2\n        /* \"#utility.yul\":24522:24525   */\n      dup4\n        /* \"#utility.yul\":24509:24539   */\n      calldatacopy\n        /* \"#utility.yul\":24594:24595   */\n      0x00\n        /* \"#utility.yul\":24585:24591   */\n      dup4\n        /* \"#utility.yul\":24580:24583   */\n      dup4\n        /* \"#utility.yul\":24576:24592   */\n      add\n        /* \"#utility.yul\":24569:24596   */\n      mstore\n        /* \"#utility.yul\":24448:24602   */\n      pop\n      pop\n      pop\n      jump\t// out\n        /* \"#utility.yul\":24608:24915   */\n    tag_368:\n        /* \"#utility.yul\":24676:24677   */\n      0x00\n        /* \"#utility.yul\":24686:24799   */\n    tag_534:\n        /* \"#utility.yul\":24700:24706   */\n      dup4\n        /* \"#utility.yul\":24697:24698   */\n      dup2\n        /* \"#utility.yul\":24694:24707   */\n      lt\n        /* \"#utility.yul\":24686:24799   */\n      iszero\n      tag_536\n      jumpi\n        /* \"#utility.yul\":24785:24786   */\n      dup1\n        /* \"#utility.yul\":24780:24783   */\n      dup3\n        /* \"#utility.yul\":24776:24787   */\n      add\n        /* \"#utility.yul\":24770:24788   */\n      mload\n        /* \"#utility.yul\":24766:24767   */\n      dup2\n        /* \"#utility.yul\":24761:24764   */\n      dup5\n        /* \"#utility.yul\":24757:24768   */\n      add\n        /* \"#utility.yul\":24750:24789   */\n      mstore\n        /* \"#utility.yul\":24722:24724   */\n      0x20\n        /* \"#utility.yul\":24719:24720   */\n      dup2\n        /* \"#utility.yul\":24715:24725   */\n      add\n        /* \"#utility.yul\":24710:24725   */\n      swap1\n      pop\n        /* \"#utility.yul\":24686:24799   */\n      jump(tag_534)\n    tag_536:\n        /* \"#utility.yul\":24817:24823   */\n      dup4\n        /* \"#utility.yul\":24814:24815   */\n      dup2\n        /* \"#utility.yul\":24811:24824   */\n      gt\n        /* \"#utility.yul\":24808:24909   */\n      iszero\n      tag_537\n      jumpi\n        /* \"#utility.yul\":24897:24898   */\n      0x00\n        /* \"#utility.yul\":24888:24894   */\n      dup5\n        /* \"#utility.yul\":24883:24886   */\n      dup5\n        /* \"#utility.yul\":24879:24895   */\n      add\n        /* \"#utility.yul\":24872:24899   */\n      mstore\n        /* \"#utility.yul\":24808:24909   */\n    tag_537:\n        /* \"#utility.yul\":24657:24915   */\n      pop\n        /* \"#utility.yul\":24608:24915   */\n      pop\n      pop\n      pop\n      jump\t// out\n        /* \"#utility.yul\":24921:25241   */\n    tag_215:\n        /* \"#utility.yul\":24965:24971   */\n      0x00\n        /* \"#utility.yul\":25002:25003   */\n      0x02\n        /* \"#utility.yul\":24996:25000   */\n      dup3\n        /* \"#utility.yul\":24992:25004   */\n      div\n        /* \"#utility.yul\":24982:25004   */\n      swap1\n      pop\n        /* \"#utility.yul\":25049:25050   */\n      0x01\n        /* \"#utility.yul\":25043:25047   */\n      dup3\n        /* \"#utility.yul\":25039:25051   */\n      and\n        /* \"#utility.yul\":25070:25088   */\n      dup1\n        /* \"#utility.yul\":25060:25141   */\n      tag_539\n      jumpi\n        /* \"#utility.yul\":25126:25130   */\n      0x7f\n        /* \"#utility.yul\":25118:25124   */\n      dup3\n        /* \"#utility.yul\":25114:25131   */\n      and\n        /* \"#utility.yul\":25104:25131   */\n      swap2\n      pop\n        /* \"#utility.yul\":25060:25141   */\n    tag_539:\n        /* \"#utility.yul\":25188:25190   */\n      0x20\n        /* \"#utility.yul\":25180:25186   */\n      dup3\n        /* \"#utility.yul\":25177:25191   */\n      lt\n        /* \"#utility.yul\":25157:25175   */\n      dup2\n        /* \"#utility.yul\":25154:25192   */\n      eq\n        /* \"#utility.yul\":25151:25235   */\n      iszero\n      tag_540\n      jumpi\n        /* \"#utility.yul\":25207:25225   */\n      tag_541\n      tag_542\n      jump\t// in\n    tag_541:\n        /* \"#utility.yul\":25151:25235   */\n    tag_540:\n        /* \"#utility.yul\":24972:25241   */\n      pop\n        /* \"#utility.yul\":24921:25241   */\n      swap2\n      swap1\n      pop\n      jump\t// out\n        /* \"#utility.yul\":25247:25528   */\n    tag_493:\n        /* \"#utility.yul\":25330:25357   */\n      tag_544\n        /* \"#utility.yul\":25352:25356   */\n      dup3\n        /* \"#utility.yul\":25330:25357   */\n      tag_370\n      jump\t// in\n    tag_544:\n        /* \"#utility.yul\":25322:25328   */\n      dup2\n        /* \"#utility.yul\":25318:25358   */\n      add\n        /* \"#utility.yul\":25460:25466   */\n      dup2\n        /* \"#utility.yul\":25448:25458   */\n      dup2\n        /* \"#utility.yul\":25445:25467   */\n      lt\n        /* \"#utility.yul\":25424:25442   */\n      0xffffffffffffffff\n        /* \"#utility.yul\":25412:25422   */\n      dup3\n        /* \"#utility.yul\":25409:25443   */\n      gt\n        /* \"#utility.yul\":25406:25468   */\n      or\n        /* \"#utility.yul\":25403:25491   */\n      iszero\n      tag_545\n      jumpi\n        /* \"#utility.yul\":25471:25489   */\n      tag_546\n      tag_498\n      jump\t// in\n    tag_546:\n        /* \"#utility.yul\":25403:25491   */\n    tag_545:\n        /* \"#utility.yul\":25511:25521   */\n      dup1\n        /* \"#utility.yul\":25507:25509   */\n      0x40\n        /* \"#utility.yul\":25500:25522   */\n      mstore\n        /* \"#utility.yul\":25290:25528   */\n      pop\n        /* \"#utility.yul\":25247:25528   */\n      pop\n      pop\n      jump\t// out\n        /* \"#utility.yul\":25534:25701   */\n    tag_180:\n        /* \"#utility.yul\":25571:25574   */\n      0x00\n        /* \"#utility.yul\":25594:25616   */\n      tag_548\n        /* \"#utility.yul\":25610:25615   */\n      dup3\n        /* \"#utility.yul\":25594:25616   */\n      tag_530\n      jump\t// in\n    tag_548:\n        /* \"#utility.yul\":25585:25616   */\n      swap2\n      pop\n        /* \"#utility.yul\":25638:25642   */\n      0xff\n        /* \"#utility.yul\":25631:25636   */\n      dup3\n        /* \"#utility.yul\":25628:25643   */\n      eq\n        /* \"#utility.yul\":25625:25666   */\n      iszero\n      tag_549\n      jumpi\n        /* \"#utility.yul\":25646:25664   */\n      tag_550\n      tag_511\n      jump\t// in\n    tag_550:\n        /* \"#utility.yul\":25625:25666   */\n    tag_549:\n        /* \"#utility.yul\":25693:25694   */\n      0x01\n        /* \"#utility.yul\":25686:25691   */\n      dup3\n        /* \"#utility.yul\":25682:25695   */\n      add\n        /* \"#utility.yul\":25675:25695   */\n      swap1\n      pop\n        /* \"#utility.yul\":25534:25701   */\n      swap2\n      swap1\n      pop\n      jump\t// out\n        /* \"#utility.yul\":25707:25887   */\n    tag_511:\n        /* \"#utility.yul\":25755:25832   */\n      0x4e487b7100000000000000000000000000000000000000000000000000000000\n        /* \"#utility.yul\":25752:25753   */\n      0x00\n        /* \"#utility.yul\":25745:25833   */\n      mstore\n        /* \"#utility.yul\":25852:25856   */\n      0x11\n        /* \"#utility.yul\":25849:25850   */\n      0x04\n        /* \"#utility.yul\":25842:25857   */\n      mstore\n        /* \"#utility.yul\":25876:25880   */\n      0x24\n        /* \"#utility.yul\":25873:25874   */\n      0x00\n        /* \"#utility.yul\":25866:25881   */\n      revert\n        /* \"#utility.yul\":25893:26073   */\n    tag_517:\n        /* \"#utility.yul\":25941:26018   */\n      0x4e487b7100000000000000000000000000000000000000000000000000000000\n        /* \"#utility.yul\":25938:25939   */\n      0x00\n        /* \"#utility.yul\":25931:26019   */\n      mstore\n        /* \"#utility.yul\":26038:26042   */\n      0x12\n        /* \"#utility.yul\":26035:26036   */\n      0x04\n        /* \"#utility.yul\":26028:26043   */\n      mstore\n        /* \"#utility.yul\":26062:26066   */\n      0x24\n        /* \"#utility.yul\":26059:26060   */\n      0x00\n        /* \"#utility.yul\":26052:26067   */\n      revert\n        /* \"#utility.yul\":26079:26259   */\n    tag_542:\n        /* \"#utility.yul\":26127:26204   */\n      0x4e487b7100000000000000000000000000000000000000000000000000000000\n        /* \"#utility.yul\":26124:26125   */\n      0x00\n        /* \"#utility.yul\":26117:26205   */\n      mstore\n        /* \"#utility.yul\":26224:26228   */\n      0x22\n        /* \"#utility.yul\":26221:26222   */\n      0x04\n        /* \"#utility.yul\":26214:26229   */\n      mstore\n        /* \"#utility.yul\":26248:26252   */\n      0x24\n        /* \"#utility.yul\":26245:26246   */\n      0x00\n        /* \"#utility.yul\":26238:26253   */\n      revert\n        /* \"#utility.yul\":26265:26445   */\n    tag_172:\n        /* \"#utility.yul\":26313:26390   */\n      0x4e487b7100000000000000000000000000000000000000000000000000000000\n        /* \"#utility.yul\":26310:26311   */\n      0x00\n        /* \"#utility.yul\":26303:26391   */\n      mstore\n        /* \"#utility.yul\":26410:26414   */\n      0x32\n        /* \"#utility.yul\":26407:26408   */\n      0x04\n        /* \"#utility.yul\":26400:26415   */\n      mstore\n        /* \"#utility.yul\":26434:26438   */\n      0x24\n        /* \"#utility.yul\":26431:26432   */\n      0x00\n        /* \"#utility.yul\":26424:26439   */\n      revert\n        /* \"#utility.yul\":26451:26631   */\n    tag_498:\n        /* \"#utility.yul\":26499:26576   */\n      0x4e487b7100000000000000000000000000000000000000000000000000000000\n        /* \"#utility.yul\":26496:26497   */\n      0x00\n        /* \"#utility.yul\":26489:26577   */\n      mstore\n        /* \"#utility.yul\":26596:26600   */\n      0x41\n        /* \"#utility.yul\":26593:26594   */\n      0x04\n        /* \"#utility.yul\":26586:26601   */\n      mstore\n        /* \"#utility.yul\":26620:26624   */\n      0x24\n        /* \"#utility.yul\":26617:26618   */\n      0x00\n        /* \"#utility.yul\":26610:26625   */\n      revert\n        /* \"#utility.yul\":26637:26754   */\n    tag_273:\n        /* \"#utility.yul\":26746:26747   */\n      0x00\n        /* \"#utility.yul\":26743:26744   */\n      dup1\n        /* \"#utility.yul\":26736:26748   */\n      revert\n        /* \"#utility.yul\":26760:26877   */\n    tag_258:\n        /* \"#utility.yul\":26869:26870   */\n      0x00\n        /* \"#utility.yul\":26866:26867   */\n      dup1\n        /* \"#utility.yul\":26859:26871   */\n      revert\n        /* \"#utility.yul\":26883:27000   */\n    tag_316:\n        /* \"#utility.yul\":26992:26993   */\n      0x00\n        /* \"#utility.yul\":26989:26990   */\n      dup1\n        /* \"#utility.yul\":26982:26994   */\n      revert\n        /* \"#utility.yul\":27006:27123   */\n    tag_282:\n        /* \"#utility.yul\":27115:27116   */\n      0x00\n        /* \"#utility.yul\":27112:27113   */\n      dup1\n        /* \"#utility.yul\":27105:27117   */\n      revert\n        /* \"#utility.yul\":27129:27231   */\n    tag_370:\n        /* \"#utility.yul\":27170:27176   */\n      0x00\n        /* \"#utility.yul\":27221:27223   */\n      0x1f\n        /* \"#utility.yul\":27217:27224   */\n      not\n        /* \"#utility.yul\":27212:27214   */\n      0x1f\n        /* \"#utility.yul\":27205:27210   */\n      dup4\n        /* \"#utility.yul\":27201:27215   */\n      add\n        /* \"#utility.yul\":27197:27225   */\n      and\n        /* \"#utility.yul\":27187:27225   */\n      swap1\n      pop\n        /* \"#utility.yul\":27129:27231   */\n      swap2\n      swap1\n      pop\n      jump\t// out\n        /* \"#utility.yul\":27237:27418   */\n    tag_375:\n        /* \"#utility.yul\":27377:27410   */\n      0x526563697069656e7420697320616c7265616479207265676973746572656400\n        /* \"#utility.yul\":27373:27374   */\n      0x00\n        /* \"#utility.yul\":27365:27371   */\n      dup3\n        /* \"#utility.yul\":27361:27375   */\n      add\n        /* \"#utility.yul\":27354:27411   */\n      mstore\n        /* \"#utility.yul\":27237:27418   */\n      pop\n      jump\t// out\n        /* \"#utility.yul\":27424:27599   */\n    tag_380:\n        /* \"#utility.yul\":27564:27591   */\n      0x50726f706f73616c20616c726561647920637265617465642100000000000000\n        /* \"#utility.yul\":27560:27561   */\n      0x00\n        /* \"#utility.yul\":27552:27558   */\n      dup3\n        /* \"#utility.yul\":27548:27562   */\n      add\n        /* \"#utility.yul\":27541:27592   */\n      mstore\n        /* \"#utility.yul\":27424:27599   */\n      pop\n      jump\t// out\n        /* \"#utility.yul\":27605:27830   */\n    tag_385:\n        /* \"#utility.yul\":27745:27779   */\n      0x596f75206172656e277420617574686f72697a6520746f20636f6d70696c6520\n        /* \"#utility.yul\":27741:27742   */\n      0x00\n        /* \"#utility.yul\":27733:27739   */\n      dup3\n        /* \"#utility.yul\":27729:27743   */\n      add\n        /* \"#utility.yul\":27722:27780   */\n      mstore\n        /* \"#utility.yul\":27814:27822   */\n      0x42756e646c650000000000000000000000000000000000000000000000000000\n        /* \"#utility.yul\":27809:27811   */\n      0x20\n        /* \"#utility.yul\":27801:27807   */\n      dup3\n        /* \"#utility.yul\":27797:27812   */\n      add\n        /* \"#utility.yul\":27790:27823   */\n      mstore\n        /* \"#utility.yul\":27605:27830   */\n      pop\n      jump\t// out\n        /* \"#utility.yul\":27836:28014   */\n    tag_390:\n        /* \"#utility.yul\":27976:28006   */\n      0x596f7520616c72656164792073656e74206120726573706f6e73652e00000000\n        /* \"#utility.yul\":27972:27973   */\n      0x00\n        /* \"#utility.yul\":27964:27970   */\n      dup3\n        /* \"#utility.yul\":27960:27974   */\n      add\n        /* \"#utility.yul\":27953:28007   */\n      mstore\n        /* \"#utility.yul\":27836:28014   */\n      pop\n      jump\t// out\n        /* \"#utility.yul\":28020:28191   */\n    tag_395:\n        /* \"#utility.yul\":28160:28183   */\n      0x496e69746961746f722063616e277420766f7465210000000000000000000000\n        /* \"#utility.yul\":28156:28157   */\n      0x00\n        /* \"#utility.yul\":28148:28154   */\n      dup3\n        /* \"#utility.yul\":28144:28158   */\n      add\n        /* \"#utility.yul\":28137:28184   */\n      mstore\n        /* \"#utility.yul\":28020:28191   */\n      pop\n      jump\t// out\n        /* \"#utility.yul\":28197:28377   */\n    tag_400:\n        /* \"#utility.yul\":28337:28369   */\n      0x596f7520617265206e6f74207265676973746572656420746f20766f74650000\n        /* \"#utility.yul\":28333:28334   */\n      0x00\n        /* \"#utility.yul\":28325:28331   */\n      dup3\n        /* \"#utility.yul\":28321:28335   */\n      add\n        /* \"#utility.yul\":28314:28370   */\n      mstore\n        /* \"#utility.yul\":28197:28377   */\n      pop\n      jump\t// out\n        /* \"#utility.yul\":28383:28606   */\n    tag_405:\n        /* \"#utility.yul\":28523:28557   */\n      0x50726f706f73616c206861732072656163686564206974732065787069727920\n        /* \"#utility.yul\":28519:28520   */\n      0x00\n        /* \"#utility.yul\":28511:28517   */\n      dup3\n        /* \"#utility.yul\":28507:28521   */\n      add\n        /* \"#utility.yul\":28500:28558   */\n      mstore\n        /* \"#utility.yul\":28592:28598   */\n      0x6461746500000000000000000000000000000000000000000000000000000000\n        /* \"#utility.yul\":28587:28589   */\n      0x20\n        /* \"#utility.yul\":28579:28585   */\n      dup3\n        /* \"#utility.yul\":28575:28590   */\n      add\n        /* \"#utility.yul\":28568:28599   */\n      mstore\n        /* \"#utility.yul\":28383:28606   */\n      pop\n      jump\t// out\n        /* \"#utility.yul\":28612:28839   */\n    tag_410:\n        /* \"#utility.yul\":28752:28786   */\n      0x4f6e6c7920696e69746961746f722063616e2072656769737465722061207265\n        /* \"#utility.yul\":28748:28749   */\n      0x00\n        /* \"#utility.yul\":28740:28746   */\n      dup3\n        /* \"#utility.yul\":28736:28750   */\n      add\n        /* \"#utility.yul\":28729:28787   */\n      mstore\n        /* \"#utility.yul\":28821:28831   */\n      0x63697069656e742e000000000000000000000000000000000000000000000000\n        /* \"#utility.yul\":28816:28818   */\n      0x20\n        /* \"#utility.yul\":28808:28814   */\n      dup3\n        /* \"#utility.yul\":28804:28819   */\n      add\n        /* \"#utility.yul\":28797:28832   */\n      mstore\n        /* \"#utility.yul\":28612:28839   */\n      pop\n      jump\t// out\n        /* \"#utility.yul\":28845:29015   */\n    tag_415:\n        /* \"#utility.yul\":28985:29007   */\n      0x596f75206172656e277420496e69746961746f72000000000000000000000000\n        /* \"#utility.yul\":28981:28982   */\n      0x00\n        /* \"#utility.yul\":28973:28979   */\n      dup3\n        /* \"#utility.yul\":28969:28983   */\n      add\n        /* \"#utility.yul\":28962:29008   */\n      mstore\n        /* \"#utility.yul\":28845:29015   */\n      pop\n      jump\t// out\n        /* \"#utility.yul\":29021:29203   */\n    tag_420:\n        /* \"#utility.yul\":29161:29195   */\n      0x5665726469637420686173206e6f74206265656e207265616368656420796574\n        /* \"#utility.yul\":29157:29158   */\n      0x00\n        /* \"#utility.yul\":29149:29155   */\n      dup3\n        /* \"#utility.yul\":29145:29159   */\n      add\n        /* \"#utility.yul\":29138:29196   */\n      mstore\n        /* \"#utility.yul\":29021:29203   */\n      pop\n      jump\t// out\n        /* \"#utility.yul\":29209:29377   */\n    tag_425:\n        /* \"#utility.yul\":29349:29369   */\n      0x566f74696e672068617320657870697265640000000000000000000000000000\n        /* \"#utility.yul\":29345:29346   */\n      0x00\n        /* \"#utility.yul\":29337:29343   */\n      dup3\n        /* \"#utility.yul\":29333:29347   */\n      add\n        /* \"#utility.yul\":29326:29370   */\n      mstore\n        /* \"#utility.yul\":29209:29377   */\n      pop\n      jump\t// out\n        /* \"#utility.yul\":29383:29607   */\n    tag_430:\n        /* \"#utility.yul\":29523:29557   */\n      0x436f6e73656e7375732068617320616c7265616479206265656e2063616c6375\n        /* \"#utility.yul\":29519:29520   */\n      0x00\n        /* \"#utility.yul\":29511:29517   */\n      dup3\n        /* \"#utility.yul\":29507:29521   */\n      add\n        /* \"#utility.yul\":29500:29558   */\n      mstore\n        /* \"#utility.yul\":29592:29599   */\n      0x6c61746564000000000000000000000000000000000000000000000000000000\n        /* \"#utility.yul\":29587:29589   */\n      0x20\n        /* \"#utility.yul\":29579:29585   */\n      dup3\n        /* \"#utility.yul\":29575:29590   */\n      add\n        /* \"#utility.yul\":29568:29600   */\n      mstore\n        /* \"#utility.yul\":29383:29607   */\n      pop\n      jump\t// out\n        /* \"#utility.yul\":29613:29735   */\n    tag_264:\n        /* \"#utility.yul\":29686:29710   */\n      tag_574\n        /* \"#utility.yul\":29704:29709   */\n      dup2\n        /* \"#utility.yul\":29686:29710   */\n      tag_332\n      jump\t// in\n    tag_574:\n        /* \"#utility.yul\":29679:29684   */\n      dup2\n        /* \"#utility.yul\":29676:29711   */\n      eq\n        /* \"#utility.yul\":29666:29729   */\n      tag_575\n      jumpi\n        /* \"#utility.yul\":29725:29726   */\n      0x00\n        /* \"#utility.yul\":29722:29723   */\n      dup1\n        /* \"#utility.yul\":29715:29727   */\n      revert\n        /* \"#utility.yul\":29666:29729   */\n    tag_575:\n        /* \"#utility.yul\":29613:29735   */\n      pop\n      jump\t// out\n        /* \"#utility.yul\":29741:29863   */\n    tag_268:\n        /* \"#utility.yul\":29814:29838   */\n      tag_577\n        /* \"#utility.yul\":29832:29837   */\n      dup2\n        /* \"#utility.yul\":29814:29838   */\n      tag_360\n      jump\t// in\n    tag_577:\n        /* \"#utility.yul\":29807:29812   */\n      dup2\n        /* \"#utility.yul\":29804:29839   */\n      eq\n        /* \"#utility.yul\":29794:29857   */\n      tag_578\n      jumpi\n        /* \"#utility.yul\":29853:29854   */\n      0x00\n        /* \"#utility.yul\":29850:29851   */\n      dup1\n        /* \"#utility.yul\":29843:29855   */\n      revert\n        /* \"#utility.yul\":29794:29857   */\n    tag_578:\n        /* \"#utility.yul\":29741:29863   */\n      pop\n      jump\t// out\n        /* \"#utility.yul\":29869:29991   */\n    tag_278:\n        /* \"#utility.yul\":29942:29966   */\n      tag_580\n        /* \"#utility.yul\":29960:29965   */\n      dup2\n        /* \"#utility.yul\":29942:29966   */\n      tag_438\n      jump\t// in\n    tag_580:\n        /* \"#utility.yul\":29935:29940   */\n      dup2\n        /* \"#utility.yul\":29932:29967   */\n      eq\n        /* \"#utility.yul\":29922:29985   */\n      tag_581\n      jumpi\n        /* \"#utility.yul\":29981:29982   */\n      0x00\n        /* \"#utility.yul\":29978:29979   */\n      dup1\n        /* \"#utility.yul\":29971:29983   */\n      revert\n        /* \"#utility.yul\":29922:29985   */\n    tag_581:\n        /* \"#utility.yul\":29869:29991   */\n      pop\n      jump\t// out\n\n    auxdata: 0xa26469706673582212204e5b0dcded3bb2e242cca880216e9978ffdd16520ccd2d957a03012afa91e36364736f6c63430008070033\n}\n",
				"bytecode": {
					"linkReferences": {},
					"object": "608060405234801561001057600080fd5b5061321e806100206000396000f3fe608060405234801561001057600080fd5b506004361061014d5760003560e01c8063823a6366116100c3578063a784ef741161007c578063a784ef741461044e578063d443560a14610480578063d468f983146104b0578063e463eaee146104cc578063e5d009bf146104fc578063f20ca12c1461052c5761014d565b8063823a6366146103555780638acc0d10146103855780638b0e8a2a146103a157806397299e99146103bd578063a0d859a3146103ee578063a4a8f4261461041e5761014d565b80635273bc48116101155780635273bc481461024957806356c583d8146102795780637a099c6a146102a95780637d6c570a146102d95780637ff4c389146102f557806381d0e37b146103255761014d565b806313191ade1461015257806327f0ae921461018257806333dfd126146101b557806338c20a9e146101e75780634fd3b44514610217575b600080fd5b61016c60048036038101906101679190612355565b61055c565b6040516101799190612b3a565b60405180910390f35b61019c60048036038101906101979190612355565b610574565b6040516101ac9493929190612901565b60405180910390f35b6101cf60048036038101906101ca9190612402565b610719565b6040516101de939291906128ca565b60405180910390f35b61020160048036038101906101fc9190612355565b6108be565b60405161020e9190612878565b60405180910390f35b610231600480360381019061022c91906123c2565b6108de565b60405161024093929190612893565b60405180910390f35b610263600480360381019061025e9190612355565b61095b565b6040516102709190612878565b60405180910390f35b610293600480360381019061028e9190612355565b610985565b6040516102a09190612b3a565b60405180910390f35b6102c360048036038101906102be9190612355565b61099d565b6040516102d09190612b3a565b60405180910390f35b6102f360048036038101906102ee9190612355565b6109b5565b005b61030f600480360381019061030a91906123c2565b610f0e565b60405161031c919061285d565b60405180910390f35b61033f600480360381019061033a9190612355565b610f5c565b60405161034c9190612b3a565b60405180910390f35b61036f600480360381019061036a9190612355565b610f74565b60405161037c9190612878565b60405180910390f35b61039f600480360381019061039a9190612512565b610f94565b005b6103bb60048036038101906103b69190612469565b611850565b005b6103d760048036038101906103d29190612355565b611b58565b6040516103e5929190612968565b60405180910390f35b61040860048036038101906104039190612355565b611c18565b604051610415919061294d565b60405180910390f35b61043860048036038101906104339190612355565b611c30565b6040516104459190612998565b60405180910390f35b61046860048036038101906104639190612382565b611cd0565b60405161047793929190612893565b60405180910390f35b61049a60048036038101906104959190612355565b611d41565b6040516104a7919061285d565b60405180910390f35b6104ca60048036038101906104c59190612315565b611d74565b005b6104e660048036038101906104e19190612355565b61217b565b6040516104f39190612b3a565b60405180910390f35b61051660048036038101906105119190612355565b612193565b604051610523919061294d565b60405180910390f35b61054660048036038101906105419190612355565b6121ab565b604051610553919061294d565b60405180910390f35b60036020528060005260406000206000915090505481565b6000806000606060046000868152602001908152602001600020544210156105d1576040517f08c379a00000000000000000000000000000000000000000000000000000000081526004016105c890612ada565b60405180910390fd5b6000600d6000878152602001908152602001600020805480602002602001604051908101604052809291908181526020016000905b828210156106c0578382906000526020600020016040518060600160405290816000820160009054906101000a900460ff161515151581526020016000820160019054906101000a900460ff161515151581526020016000820160029054906101000a900473ffffffffffffffffffffffffffffffffffffffff1673ffffffffffffffffffffffffffffffffffffffff1673ffffffffffffffffffffffffffffffffffffffff168152505081526020019060010190610606565b50505050905060006009600088815260200190815260200160002060009054906101000a900460ff1690506000600260008981526020019081526020016000205490508188828596509650965096505050509193509193565b600080600080600088815260200190815260200160002060009054906101000a900473ffffffffffffffffffffffffffffffffffffffff1673ffffffffffffffffffffffffffffffffffffffff163373ffffffffffffffffffffffffffffffffffffffff16146107be576040517f08c379a00000000000000000000000000000000000000000000000000000000081526004016107b590612aba565b60405180910390fd5b600060019050600060019050600060019050600073ffffffffffffffffffffffffffffffffffffffff166000808c815260200190815260200160002060009054906101000a900473ffffffffffffffffffffffffffffffffffffffff1673ffffffffffffffffffffffffffffffffffffffff16141561084a5760018060019550955095505050506108b4565b600760008b815260200190815260200160002054891461086957600092505b600560008b815260200190815260200160002054871461088857600091505b87600360008c815260200190815260200160002054146108a757600090505b8282829550955095505050505b9450945094915050565b60096020528060005260406000206000915054906101000a900460ff1681565b600d60205281600052604060002081815481106108fa57600080fd5b90600052602060002001600091509150508060000160009054906101000a900460ff16908060000160019054906101000a900460ff16908060000160029054906101000a900473ffffffffffffffffffffffffffffffffffffffff16905083565b6000600a600083815260200190815260200160002060009054906101000a900460ff169050919050565b60046020528060005260406000206000915090505481565b60076020528060005260406000206000915090505481565b6004600082815260200190815260200160002054421015610a0b576040517f08c379a0000000000000000000000000000000000000000000000000000000008152600401610a0290612ada565b60405180910390fd5b60001515600a600083815260200190815260200160002060009054906101000a900460ff16151514610a72576040517f08c379a0000000000000000000000000000000000000000000000000000000008152600401610a6990612b1a565b60405180910390fd5b60008082815260200190815260200160002060009054906101000a900473ffffffffffffffffffffffffffffffffffffffff1673ffffffffffffffffffffffffffffffffffffffff163373ffffffffffffffffffffffffffffffffffffffff161480610b7e5750600073ffffffffffffffffffffffffffffffffffffffff16600c600083815260200190815260200160002060003373ffffffffffffffffffffffffffffffffffffffff1673ffffffffffffffffffffffffffffffffffffffff16815260200190815260200160002060000160029054906101000a900473ffffffffffffffffffffffffffffffffffffffff1673ffffffffffffffffffffffffffffffffffffffff1614155b610bbd576040517f08c379a0000000000000000000000000000000000000000000000000000000008152600401610bb4906129fa565b60405180910390fd5b60006064600e6000848152602001908152602001600020805490506006600085815260200190815260200160002054610bf69190612c56565b610c009190612c87565b905060076000838152602001908152602001600020548110610c495760016009600084815260200190815260200160002060006101000a81548160ff0219169083151502179055505b60005b600e6000848152602001908152602001600020805490508160ff161015610edd5760001515600c60008581526020019081526020016000206000600e60008781526020019081526020016000208460ff1681548110610cae57610cad612e9c565b5b9060005260206000200160009054906101000a900473ffffffffffffffffffffffffffffffffffffffff1673ffffffffffffffffffffffffffffffffffffffff1673ffffffffffffffffffffffffffffffffffffffff16815260200190815260200160002060000160009054906101000a900460ff1615151415610eca57600d6000848152602001908152602001600020600c60008581526020019081526020016000206000600e60008781526020019081526020016000208460ff1681548110610d7c57610d7b612e9c565b5b9060005260206000200160009054906101000a900473ffffffffffffffffffffffffffffffffffffffff1673ffffffffffffffffffffffffffffffffffffffff1673ffffffffffffffffffffffffffffffffffffffff168152602001908152602001600020908060018154018082558091505060019003906000526020600020016000909190919091506000820160009054906101000a900460ff168160000160006101000a81548160ff0219169083151502179055506000820160019054906101000a900460ff168160000160016101000a81548160ff0219169083151502179055506000820160029054906101000a900473ffffffffffffffffffffffffffffffffffffffff168160000160026101000a81548173ffffffffffffffffffffffffffffffffffffffff021916908373ffffffffffffffffffffffffffffffffffffffff16021790555050505b8080610ed590612de5565b915050610c4c565b506001600a600084815260200190815260200160002060006101000a81548160ff0219169083151502179055505050565b600e6020528160005260406000208181548110610f2a57600080fd5b906000526020600020016000915091509054906101000a900473ffffffffffffffffffffffffffffffffffffffff1681565b60026020528060005260406000206000915090505481565b600a6020528060005260406000206000915054906101000a900460ff1681565b60046000828152602001908152602001600020544210610fe9576040517f08c379a0000000000000000000000000000000000000000000000000000000008152600401610fe090612afa565b60405180910390fd5b600073ffffffffffffffffffffffffffffffffffffffff16600c600083815260200190815260200160002060003373ffffffffffffffffffffffffffffffffffffffff1673ffffffffffffffffffffffffffffffffffffffff16815260200190815260200160002060000160029054906101000a900473ffffffffffffffffffffffffffffffffffffffff1673ffffffffffffffffffffffffffffffffffffffff1614156110cc576040517f08c379a00000000000000000000000000000000000000000000000000000000081526004016110c390612a5a565b60405180910390fd5b600c600082815260200190815260200160002060003373ffffffffffffffffffffffffffffffffffffffff1673ffffffffffffffffffffffffffffffffffffffff16815260200190815260200160002060000160009054906101000a900460ff161561116d576040517f08c379a000000000000000000000000000000000000000000000000000000000815260040161116490612a1a565b60405180910390fd5b6040518060400160405280600981526020017f6920617070726f766500000000000000000000000000000000000000000000008152508051906020012082805190602001201415611436576001600c600083815260200190815260200160002060003373ffffffffffffffffffffffffffffffffffffffff1673ffffffffffffffffffffffffffffffffffffffff16815260200190815260200160002060000160006101000a81548160ff0219169083151502179055506001600c600083815260200190815260200160002060003373ffffffffffffffffffffffffffffffffffffffff1673ffffffffffffffffffffffffffffffffffffffff16815260200190815260200160002060000160016101000a81548160ff02191690831515021790555060016006600083815260200190815260200160002060008282546112b49190612c00565b9250508190555060016002600083815260200190815260200160002060008282546112df9190612c00565b92505081905550600d6000828152602001908152602001600020600c600083815260200190815260200160002060003373ffffffffffffffffffffffffffffffffffffffff1673ffffffffffffffffffffffffffffffffffffffff168152602001908152602001600020908060018154018082558091505060019003906000526020600020016000909190919091506000820160009054906101000a900460ff168160000160006101000a81548160ff0219169083151502179055506000820160019054906101000a900460ff168160000160016101000a81548160ff0219169083151502179055506000820160029054906101000a900473ffffffffffffffffffffffffffffffffffffffff168160000160026101000a81548173ffffffffffffffffffffffffffffffffffffffff021916908373ffffffffffffffffffffffffffffffffffffffff160217905550505061184c565b6040518060400160405280600c81526020017f6920646973617070726f766500000000000000000000000000000000000000008152508051906020012082805190602001201415611668576001600c600083815260200190815260200160002060003373ffffffffffffffffffffffffffffffffffffffff1673ffffffffffffffffffffffffffffffffffffffff16815260200190815260200160002060000160006101000a81548160ff02191690831515021790555060016002600083815260200190815260200160002060008282546115119190612c00565b92505081905550600d6000828152602001908152602001600020600c600083815260200190815260200160002060003373ffffffffffffffffffffffffffffffffffffffff1673ffffffffffffffffffffffffffffffffffffffff168152602001908152602001600020908060018154018082558091505060019003906000526020600020016000909190919091506000820160009054906101000a900460ff168160000160006101000a81548160ff0219169083151502179055506000820160019054906101000a900460ff168160000160016101000a81548160ff0219169083151502179055506000820160029054906101000a900473ffffffffffffffffffffffffffffffffffffffff168160000160026101000a81548173ffffffffffffffffffffffffffffffffffffffff021916908373ffffffffffffffffffffffffffffffffffffffff160217905550505061184b565b6001600c600083815260200190815260200160002060003373ffffffffffffffffffffffffffffffffffffffff1673ffffffffffffffffffffffffffffffffffffffff16815260200190815260200160002060000160006101000a81548160ff02191690831515021790555060016002600083815260200190815260200160002060008282546116f89190612c00565b92505081905550600d6000828152602001908152602001600020600c600083815260200190815260200160002060003373ffffffffffffffffffffffffffffffffffffffff1673ffffffffffffffffffffffffffffffffffffffff168152602001908152602001600020908060018154018082558091505060019003906000526020600020016000909190919091506000820160009054906101000a900460ff168160000160006101000a81548160ff0219169083151502179055506000820160019054906101000a900460ff168160000160016101000a81548160ff0219169083151502179055506000820160029054906101000a900473ffffffffffffffffffffffffffffffffffffffff168160000160026101000a81548173ffffffffffffffffffffffffffffffffffffffff021916908373ffffffffffffffffffffffffffffffffffffffff16021790555050505b5b5050565b600073ffffffffffffffffffffffffffffffffffffffff1660008088815260200190815260200160002060009054906101000a900473ffffffffffffffffffffffffffffffffffffffff1673ffffffffffffffffffffffffffffffffffffffff16146118f1576040517f08c379a00000000000000000000000000000000000000000000000000000000081526004016118e8906129da565b60405180910390fd5b6000600260008881526020019081526020016000208190555084426119169190612c00565b60046000888152602001908152602001600020819055508560016000848152602001908152602001600020819055506000600a600088815260200190815260200160002060006101000a81548160ff02191690831515021790555083600760008881526020019081526020016000208190555083600760008481526020019081526020016000208190555060006009600088815260200190815260200160002060006101000a81548160ff02191690831515021790555084600360008881526020019081526020016000208190555084600360008481526020019081526020016000208190555082600560008881526020019081526020016000208190555082600560008481526020019081526020016000208190555081600b60008881526020019081526020016000208190555080600860008881526020019081526020016000209080519060200190611a6c9291906121c3565b5080600860008481526020019081526020016000209080519060200190611a949291906121c3565b50600060066000888152602001908152602001600020819055503360008088815260200190815260200160002060006101000a81548173ffffffffffffffffffffffffffffffffffffffff021916908373ffffffffffffffffffffffffffffffffffffffff1602179055503360008084815260200190815260200160002060006101000a81548173ffffffffffffffffffffffffffffffffffffffff021916908373ffffffffffffffffffffffffffffffffffffffff160217905550505050505050565b60006060600160008481526020019081526020016000205460086000858152602001908152602001600020808054611b8f90612d82565b80601f0160208091040260200160405190810160405280929190818152602001828054611bbb90612d82565b8015611c085780601f10611bdd57610100808354040283529160200191611c08565b820191906000526020600020905b815481529060010190602001808311611beb57829003601f168201915b5050505050905091509150915091565b600b6020528060005260406000206000915090505481565b60086020528060005260406000206000915090508054611c4f90612d82565b80601f0160208091040260200160405190810160405280929190818152602001828054611c7b90612d82565b8015611cc85780601f10611c9d57610100808354040283529160200191611cc8565b820191906000526020600020905b815481529060010190602001808311611cab57829003601f168201915b505050505081565b600c602052816000526040600020602052806000526040600020600091509150508060000160009054906101000a900460ff16908060000160019054906101000a900460ff16908060000160029054906101000a900473ffffffffffffffffffffffffffffffffffffffff16905083565b60006020528060005260406000206000915054906101000a900473ffffffffffffffffffffffffffffffffffffffff1681565b60008082815260200190815260200160002060009054906101000a900473ffffffffffffffffffffffffffffffffffffffff1673ffffffffffffffffffffffffffffffffffffffff163373ffffffffffffffffffffffffffffffffffffffff1614611e14576040517f08c379a0000000000000000000000000000000000000000000000000000000008152600401611e0b90612a9a565b60405180910390fd5b60008082815260200190815260200160002060009054906101000a900473ffffffffffffffffffffffffffffffffffffffff1673ffffffffffffffffffffffffffffffffffffffff168273ffffffffffffffffffffffffffffffffffffffff161415611eb5576040517f08c379a0000000000000000000000000000000000000000000000000000000008152600401611eac90612a3a565b60405180910390fd5b600073ffffffffffffffffffffffffffffffffffffffff16600c600083815260200190815260200160002060008473ffffffffffffffffffffffffffffffffffffffff1673ffffffffffffffffffffffffffffffffffffffff16815260200190815260200160002060000160029054906101000a900473ffffffffffffffffffffffffffffffffffffffff1673ffffffffffffffffffffffffffffffffffffffff1614611f97576040517f08c379a0000000000000000000000000000000000000000000000000000000008152600401611f8e906129ba565b60405180910390fd5b60046000828152602001908152602001600020544210611fec576040517f08c379a0000000000000000000000000000000000000000000000000000000008152600401611fe390612a7a565b60405180910390fd5b600060405180606001604052806000151581526020016000151581526020018473ffffffffffffffffffffffffffffffffffffffff16815250905080600c600084815260200190815260200160002060008573ffffffffffffffffffffffffffffffffffffffff1673ffffffffffffffffffffffffffffffffffffffff16815260200190815260200160002060008201518160000160006101000a81548160ff02191690831515021790555060208201518160000160016101000a81548160ff02191690831515021790555060408201518160000160026101000a81548173ffffffffffffffffffffffffffffffffffffffff021916908373ffffffffffffffffffffffffffffffffffffffff160217905550905050600e6000838152602001908152602001600020839080600181540180825580915050600190039060005260206000200160009091909190916101000a81548173ffffffffffffffffffffffffffffffffffffffff021916908373ffffffffffffffffffffffffffffffffffffffff160217905550505050565b60066020528060005260406000206000915090505481565b60016020528060005260406000206000915090505481565b60056020528060005260406000206000915090505481565b8280546121cf90612d82565b90600052602060002090601f0160209004810192826121f15760008555612238565b82601f1061220a57805160ff1916838001178555612238565b82800160010185558215612238579182015b8281111561223757825182559160200191906001019061221c565b5b5090506122459190612249565b5090565b5b8082111561226257600081600090555060010161224a565b5090565b600061227961227484612b7a565b612b55565b90508281526020810184848401111561229557612294612eff565b5b6122a0848285612d40565b509392505050565b6000813590506122b7816131a3565b92915050565b6000813590506122cc816131ba565b92915050565b600082601f8301126122e7576122e6612efa565b5b81356122f7848260208601612266565b91505092915050565b60008135905061230f816131d1565b92915050565b6000806040838503121561232c5761232b612f09565b5b600061233a858286016122a8565b925050602061234b858286016122bd565b9150509250929050565b60006020828403121561236b5761236a612f09565b5b6000612379848285016122bd565b91505092915050565b6000806040838503121561239957612398612f09565b5b60006123a7858286016122bd565b92505060206123b8858286016122a8565b9150509250929050565b600080604083850312156123d9576123d8612f09565b5b60006123e7858286016122bd565b92505060206123f885828601612300565b9150509250929050565b6000806000806080858703121561241c5761241b612f09565b5b600061242a878288016122bd565b945050602061243b87828801612300565b935050604061244c87828801612300565b925050606061245d878288016122bd565b91505092959194509250565b60008060008060008060c0878903121561248657612485612f09565b5b600061249489828a016122bd565b96505060206124a589828a01612300565b95505060406124b689828a01612300565b94505060606124c789828a016122bd565b93505060806124d889828a016122bd565b92505060a087013567ffffffffffffffff8111156124f9576124f8612f04565b5b61250589828a016122d2565b9150509295509295509295565b6000806040838503121561252957612528612f09565b5b600083013567ffffffffffffffff81111561254757612546612f04565b5b612553858286016122d2565b9250506020612564858286016122bd565b9150509250929050565b600061257a838361280c565b60608301905092915050565b61258f81612ce1565b82525050565b61259e81612ce1565b82525050565b60006125af82612bbb565b6125b98185612bde565b93506125c483612bab565b8060005b838110156125f55781516125dc888261256e565b97506125e783612bd1565b9250506001810190506125c8565b5085935050505092915050565b61260b81612cf3565b82525050565b61261a81612cf3565b82525050565b61262981612cff565b82525050565b600061263a82612bc6565b6126448185612bef565b9350612654818560208601612d4f565b61265d81612f0e565b840191505092915050565b6000612675601f83612bef565b915061268082612f1f565b602082019050919050565b6000612698601983612bef565b91506126a382612f48565b602082019050919050565b60006126bb602683612bef565b91506126c682612f71565b604082019050919050565b60006126de601c83612bef565b91506126e982612fc0565b602082019050919050565b6000612701601583612bef565b915061270c82612fe9565b602082019050919050565b6000612724601e83612bef565b915061272f82613012565b602082019050919050565b6000612747602483612bef565b91506127528261303b565b604082019050919050565b600061276a602883612bef565b91506127758261308a565b604082019050919050565b600061278d601483612bef565b9150612798826130d9565b602082019050919050565b60006127b0602083612bef565b91506127bb82613102565b602082019050919050565b60006127d3601283612bef565b91506127de8261312b565b602082019050919050565b60006127f6602583612bef565b915061280182613154565b604082019050919050565b6060820160008201516128226000850182612602565b5060208201516128356020850182612602565b5060408201516128486040850182612586565b50505050565b61285781612d29565b82525050565b60006020820190506128726000830184612595565b92915050565b600060208201905061288d6000830184612611565b92915050565b60006060820190506128a86000830186612611565b6128b56020830185612611565b6128c26040830184612595565b949350505050565b60006060820190506128df6000830186612611565b6128ec6020830185612611565b6128f96040830184612611565b949350505050565b60006080820190506129166000830187612611565b6129236020830186612620565b612930604083018561284e565b818103606083015261294281846125a4565b905095945050505050565b60006020820190506129626000830184612620565b92915050565b600060408201905061297d6000830185612620565b818103602083015261298f818461262f565b90509392505050565b600060208201905081810360008301526129b2818461262f565b905092915050565b600060208201905081810360008301526129d381612668565b9050919050565b600060208201905081810360008301526129f38161268b565b9050919050565b60006020820190508181036000830152612a13816126ae565b9050919050565b60006020820190508181036000830152612a33816126d1565b9050919050565b60006020820190508181036000830152612a53816126f4565b9050919050565b60006020820190508181036000830152612a7381612717565b9050919050565b60006020820190508181036000830152612a938161273a565b9050919050565b60006020820190508181036000830152612ab38161275d565b9050919050565b60006020820190508181036000830152612ad381612780565b9050919050565b60006020820190508181036000830152612af3816127a3565b9050919050565b60006020820190508181036000830152612b13816127c6565b9050919050565b60006020820190508181036000830152612b33816127e9565b9050919050565b6000602082019050612b4f600083018461284e565b92915050565b6000612b5f612b70565b9050612b6b8282612db4565b919050565b6000604051905090565b600067ffffffffffffffff821115612b9557612b94612ecb565b5b612b9e82612f0e565b9050602081019050919050565b6000819050602082019050919050565b600081519050919050565b600081519050919050565b6000602082019050919050565b600082825260208201905092915050565b600082825260208201905092915050565b6000612c0b82612d29565b9150612c1683612d29565b9250827fffffffffffffffffffffffffffffffffffffffffffffffffffffffffffffffff03821115612c4b57612c4a612e0f565b5b828201905092915050565b6000612c6182612d29565b9150612c6c83612d29565b925082612c7c57612c7b612e3e565b5b828204905092915050565b6000612c9282612d29565b9150612c9d83612d29565b9250817fffffffffffffffffffffffffffffffffffffffffffffffffffffffffffffffff0483118215151615612cd657612cd5612e0f565b5b828202905092915050565b6000612cec82612d09565b9050919050565b60008115159050919050565b6000819050919050565b600073ffffffffffffffffffffffffffffffffffffffff82169050919050565b6000819050919050565b600060ff82169050919050565b82818337600083830152505050565b60005b83811015612d6d578082015181840152602081019050612d52565b83811115612d7c576000848401525b50505050565b60006002820490506001821680612d9a57607f821691505b60208210811415612dae57612dad612e6d565b5b50919050565b612dbd82612f0e565b810181811067ffffffffffffffff82111715612ddc57612ddb612ecb565b5b80604052505050565b6000612df082612d33565b915060ff821415612e0457612e03612e0f565b5b600182019050919050565b7f4e487b7100000000000000000000000000000000000000000000000000000000600052601160045260246000fd5b7f4e487b7100000000000000000000000000000000000000000000000000000000600052601260045260246000fd5b7f4e487b7100000000000000000000000000000000000000000000000000000000600052602260045260246000fd5b7f4e487b7100000000000000000000000000000000000000000000000000000000600052603260045260246000fd5b7f4e487b7100000000000000000000000000000000000000000000000000000000600052604160045260246000fd5b600080fd5b600080fd5b600080fd5b600080fd5b6000601f19601f8301169050919050565b7f526563697069656e7420697320616c7265616479207265676973746572656400600082015250565b7f50726f706f73616c20616c726561647920637265617465642100000000000000600082015250565b7f596f75206172656e277420617574686f72697a6520746f20636f6d70696c652060008201527f42756e646c650000000000000000000000000000000000000000000000000000602082015250565b7f596f7520616c72656164792073656e74206120726573706f6e73652e00000000600082015250565b7f496e69746961746f722063616e277420766f7465210000000000000000000000600082015250565b7f596f7520617265206e6f74207265676973746572656420746f20766f74650000600082015250565b7f50726f706f73616c20686173207265616368656420697473206578706972792060008201527f6461746500000000000000000000000000000000000000000000000000000000602082015250565b7f4f6e6c7920696e69746961746f722063616e207265676973746572206120726560008201527f63697069656e742e000000000000000000000000000000000000000000000000602082015250565b7f596f75206172656e277420496e69746961746f72000000000000000000000000600082015250565b7f5665726469637420686173206e6f74206265656e207265616368656420796574600082015250565b7f566f74696e672068617320657870697265640000000000000000000000000000600082015250565b7f436f6e73656e7375732068617320616c7265616479206265656e2063616c637560008201527f6c61746564000000000000000000000000000000000000000000000000000000602082015250565b6131ac81612ce1565b81146131b757600080fd5b50565b6131c381612cff565b81146131ce57600080fd5b50565b6131da81612d29565b81146131e557600080fd5b5056fea26469706673582212204e5b0dcded3bb2e242cca880216e9978ffdd16520ccd2d957a03012afa91e36364736f6c63430008070033",
					"opcodes": "PUSH1 0x80 PUSH1 0x40 MSTORE CALLVALUE DUP1 ISZERO PUSH2 0x10 JUMPI PUSH1 0x0 DUP1 REVERT JUMPDEST POP PUSH2 0x321E DUP1 PUSH2 0x20 PUSH1 0x0 CODECOPY PUSH1 0x0 RETURN INVALID PUSH1 0x80 PUSH1 0x40 MSTORE CALLVALUE DUP1 ISZERO PUSH2 0x10 JUMPI PUSH1 0x0 DUP1 REVERT JUMPDEST POP PUSH1 0x4 CALLDATASIZE LT PUSH2 0x14D JUMPI PUSH1 0x0 CALLDATALOAD PUSH1 0xE0 SHR DUP1 PUSH4 0x823A6366 GT PUSH2 0xC3 JUMPI DUP1 PUSH4 0xA784EF74 GT PUSH2 0x7C JUMPI DUP1 PUSH4 0xA784EF74 EQ PUSH2 0x44E JUMPI DUP1 PUSH4 0xD443560A EQ PUSH2 0x480 JUMPI DUP1 PUSH4 0xD468F983 EQ PUSH2 0x4B0 JUMPI DUP1 PUSH4 0xE463EAEE EQ PUSH2 0x4CC JUMPI DUP1 PUSH4 0xE5D009BF EQ PUSH2 0x4FC JUMPI DUP1 PUSH4 0xF20CA12C EQ PUSH2 0x52C JUMPI PUSH2 0x14D JUMP JUMPDEST DUP1 PUSH4 0x823A6366 EQ PUSH2 0x355 JUMPI DUP1 PUSH4 0x8ACC0D10 EQ PUSH2 0x385 JUMPI DUP1 PUSH4 0x8B0E8A2A EQ PUSH2 0x3A1 JUMPI DUP1 PUSH4 0x97299E99 EQ PUSH2 0x3BD JUMPI DUP1 PUSH4 0xA0D859A3 EQ PUSH2 0x3EE JUMPI DUP1 PUSH4 0xA4A8F426 EQ PUSH2 0x41E JUMPI PUSH2 0x14D JUMP JUMPDEST DUP1 PUSH4 0x5273BC48 GT PUSH2 0x115 JUMPI DUP1 PUSH4 0x5273BC48 EQ PUSH2 0x249 JUMPI DUP1 PUSH4 0x56C583D8 EQ PUSH2 0x279 JUMPI DUP1 PUSH4 0x7A099C6A EQ PUSH2 0x2A9 JUMPI DUP1 PUSH4 0x7D6C570A EQ PUSH2 0x2D9 JUMPI DUP1 PUSH4 0x7FF4C389 EQ PUSH2 0x2F5 JUMPI DUP1 PUSH4 0x81D0E37B EQ PUSH2 0x325 JUMPI PUSH2 0x14D JUMP JUMPDEST DUP1 PUSH4 0x13191ADE EQ PUSH2 0x152 JUMPI DUP1 PUSH4 0x27F0AE92 EQ PUSH2 0x182 JUMPI DUP1 PUSH4 0x33DFD126 EQ PUSH2 0x1B5 JUMPI DUP1 PUSH4 0x38C20A9E EQ PUSH2 0x1E7 JUMPI DUP1 PUSH4 0x4FD3B445 EQ PUSH2 0x217 JUMPI JUMPDEST PUSH1 0x0 DUP1 REVERT JUMPDEST PUSH2 0x16C PUSH1 0x4 DUP1 CALLDATASIZE SUB DUP2 ADD SWAP1 PUSH2 0x167 SWAP2 SWAP1 PUSH2 0x2355 JUMP JUMPDEST PUSH2 0x55C JUMP JUMPDEST PUSH1 0x40 MLOAD PUSH2 0x179 SWAP2 SWAP1 PUSH2 0x2B3A JUMP JUMPDEST PUSH1 0x40 MLOAD DUP1 SWAP2 SUB SWAP1 RETURN JUMPDEST PUSH2 0x19C PUSH1 0x4 DUP1 CALLDATASIZE SUB DUP2 ADD SWAP1 PUSH2 0x197 SWAP2 SWAP1 PUSH2 0x2355 JUMP JUMPDEST PUSH2 0x574 JUMP JUMPDEST PUSH1 0x40 MLOAD PUSH2 0x1AC SWAP5 SWAP4 SWAP3 SWAP2 SWAP1 PUSH2 0x2901 JUMP JUMPDEST PUSH1 0x40 MLOAD DUP1 SWAP2 SUB SWAP1 RETURN JUMPDEST PUSH2 0x1CF PUSH1 0x4 DUP1 CALLDATASIZE SUB DUP2 ADD SWAP1 PUSH2 0x1CA SWAP2 SWAP1 PUSH2 0x2402 JUMP JUMPDEST PUSH2 0x719 JUMP JUMPDEST PUSH1 0x40 MLOAD PUSH2 0x1DE SWAP4 SWAP3 SWAP2 SWAP1 PUSH2 0x28CA JUMP JUMPDEST PUSH1 0x40 MLOAD DUP1 SWAP2 SUB SWAP1 RETURN JUMPDEST PUSH2 0x201 PUSH1 0x4 DUP1 CALLDATASIZE SUB DUP2 ADD SWAP1 PUSH2 0x1FC SWAP2 SWAP1 PUSH2 0x2355 JUMP JUMPDEST PUSH2 0x8BE JUMP JUMPDEST PUSH1 0x40 MLOAD PUSH2 0x20E SWAP2 SWAP1 PUSH2 0x2878 JUMP JUMPDEST PUSH1 0x40 MLOAD DUP1 SWAP2 SUB SWAP1 RETURN JUMPDEST PUSH2 0x231 PUSH1 0x4 DUP1 CALLDATASIZE SUB DUP2 ADD SWAP1 PUSH2 0x22C SWAP2 SWAP1 PUSH2 0x23C2 JUMP JUMPDEST PUSH2 0x8DE JUMP JUMPDEST PUSH1 0x40 MLOAD PUSH2 0x240 SWAP4 SWAP3 SWAP2 SWAP1 PUSH2 0x2893 JUMP JUMPDEST PUSH1 0x40 MLOAD DUP1 SWAP2 SUB SWAP1 RETURN JUMPDEST PUSH2 0x263 PUSH1 0x4 DUP1 CALLDATASIZE SUB DUP2 ADD SWAP1 PUSH2 0x25E SWAP2 SWAP1 PUSH2 0x2355 JUMP JUMPDEST PUSH2 0x95B JUMP JUMPDEST PUSH1 0x40 MLOAD PUSH2 0x270 SWAP2 SWAP1 PUSH2 0x2878 JUMP JUMPDEST PUSH1 0x40 MLOAD DUP1 SWAP2 SUB SWAP1 RETURN JUMPDEST PUSH2 0x293 PUSH1 0x4 DUP1 CALLDATASIZE SUB DUP2 ADD SWAP1 PUSH2 0x28E SWAP2 SWAP1 PUSH2 0x2355 JUMP JUMPDEST PUSH2 0x985 JUMP JUMPDEST PUSH1 0x40 MLOAD PUSH2 0x2A0 SWAP2 SWAP1 PUSH2 0x2B3A JUMP JUMPDEST PUSH1 0x40 MLOAD DUP1 SWAP2 SUB SWAP1 RETURN JUMPDEST PUSH2 0x2C3 PUSH1 0x4 DUP1 CALLDATASIZE SUB DUP2 ADD SWAP1 PUSH2 0x2BE SWAP2 SWAP1 PUSH2 0x2355 JUMP JUMPDEST PUSH2 0x99D JUMP JUMPDEST PUSH1 0x40 MLOAD PUSH2 0x2D0 SWAP2 SWAP1 PUSH2 0x2B3A JUMP JUMPDEST PUSH1 0x40 MLOAD DUP1 SWAP2 SUB SWAP1 RETURN JUMPDEST PUSH2 0x2F3 PUSH1 0x4 DUP1 CALLDATASIZE SUB DUP2 ADD SWAP1 PUSH2 0x2EE SWAP2 SWAP1 PUSH2 0x2355 JUMP JUMPDEST PUSH2 0x9B5 JUMP JUMPDEST STOP JUMPDEST PUSH2 0x30F PUSH1 0x4 DUP1 CALLDATASIZE SUB DUP2 ADD SWAP1 PUSH2 0x30A SWAP2 SWAP1 PUSH2 0x23C2 JUMP JUMPDEST PUSH2 0xF0E JUMP JUMPDEST PUSH1 0x40 MLOAD PUSH2 0x31C SWAP2 SWAP1 PUSH2 0x285D JUMP JUMPDEST PUSH1 0x40 MLOAD DUP1 SWAP2 SUB SWAP1 RETURN JUMPDEST PUSH2 0x33F PUSH1 0x4 DUP1 CALLDATASIZE SUB DUP2 ADD SWAP1 PUSH2 0x33A SWAP2 SWAP1 PUSH2 0x2355 JUMP JUMPDEST PUSH2 0xF5C JUMP JUMPDEST PUSH1 0x40 MLOAD PUSH2 0x34C SWAP2 SWAP1 PUSH2 0x2B3A JUMP JUMPDEST PUSH1 0x40 MLOAD DUP1 SWAP2 SUB SWAP1 RETURN JUMPDEST PUSH2 0x36F PUSH1 0x4 DUP1 CALLDATASIZE SUB DUP2 ADD SWAP1 PUSH2 0x36A SWAP2 SWAP1 PUSH2 0x2355 JUMP JUMPDEST PUSH2 0xF74 JUMP JUMPDEST PUSH1 0x40 MLOAD PUSH2 0x37C SWAP2 SWAP1 PUSH2 0x2878 JUMP JUMPDEST PUSH1 0x40 MLOAD DUP1 SWAP2 SUB SWAP1 RETURN JUMPDEST PUSH2 0x39F PUSH1 0x4 DUP1 CALLDATASIZE SUB DUP2 ADD SWAP1 PUSH2 0x39A SWAP2 SWAP1 PUSH2 0x2512 JUMP JUMPDEST PUSH2 0xF94 JUMP JUMPDEST STOP JUMPDEST PUSH2 0x3BB PUSH1 0x4 DUP1 CALLDATASIZE SUB DUP2 ADD SWAP1 PUSH2 0x3B6 SWAP2 SWAP1 PUSH2 0x2469 JUMP JUMPDEST PUSH2 0x1850 JUMP JUMPDEST STOP JUMPDEST PUSH2 0x3D7 PUSH1 0x4 DUP1 CALLDATASIZE SUB DUP2 ADD SWAP1 PUSH2 0x3D2 SWAP2 SWAP1 PUSH2 0x2355 JUMP JUMPDEST PUSH2 0x1B58 JUMP JUMPDEST PUSH1 0x40 MLOAD PUSH2 0x3E5 SWAP3 SWAP2 SWAP1 PUSH2 0x2968 JUMP JUMPDEST PUSH1 0x40 MLOAD DUP1 SWAP2 SUB SWAP1 RETURN JUMPDEST PUSH2 0x408 PUSH1 0x4 DUP1 CALLDATASIZE SUB DUP2 ADD SWAP1 PUSH2 0x403 SWAP2 SWAP1 PUSH2 0x2355 JUMP JUMPDEST PUSH2 0x1C18 JUMP JUMPDEST PUSH1 0x40 MLOAD PUSH2 0x415 SWAP2 SWAP1 PUSH2 0x294D JUMP JUMPDEST PUSH1 0x40 MLOAD DUP1 SWAP2 SUB SWAP1 RETURN JUMPDEST PUSH2 0x438 PUSH1 0x4 DUP1 CALLDATASIZE SUB DUP2 ADD SWAP1 PUSH2 0x433 SWAP2 SWAP1 PUSH2 0x2355 JUMP JUMPDEST PUSH2 0x1C30 JUMP JUMPDEST PUSH1 0x40 MLOAD PUSH2 0x445 SWAP2 SWAP1 PUSH2 0x2998 JUMP JUMPDEST PUSH1 0x40 MLOAD DUP1 SWAP2 SUB SWAP1 RETURN JUMPDEST PUSH2 0x468 PUSH1 0x4 DUP1 CALLDATASIZE SUB DUP2 ADD SWAP1 PUSH2 0x463 SWAP2 SWAP1 PUSH2 0x2382 JUMP JUMPDEST PUSH2 0x1CD0 JUMP JUMPDEST PUSH1 0x40 MLOAD PUSH2 0x477 SWAP4 SWAP3 SWAP2 SWAP1 PUSH2 0x2893 JUMP JUMPDEST PUSH1 0x40 MLOAD DUP1 SWAP2 SUB SWAP1 RETURN JUMPDEST PUSH2 0x49A PUSH1 0x4 DUP1 CALLDATASIZE SUB DUP2 ADD SWAP1 PUSH2 0x495 SWAP2 SWAP1 PUSH2 0x2355 JUMP JUMPDEST PUSH2 0x1D41 JUMP JUMPDEST PUSH1 0x40 MLOAD PUSH2 0x4A7 SWAP2 SWAP1 PUSH2 0x285D JUMP JUMPDEST PUSH1 0x40 MLOAD DUP1 SWAP2 SUB SWAP1 RETURN JUMPDEST PUSH2 0x4CA PUSH1 0x4 DUP1 CALLDATASIZE SUB DUP2 ADD SWAP1 PUSH2 0x4C5 SWAP2 SWAP1 PUSH2 0x2315 JUMP JUMPDEST PUSH2 0x1D74 JUMP JUMPDEST STOP JUMPDEST PUSH2 0x4E6 PUSH1 0x4 DUP1 CALLDATASIZE SUB DUP2 ADD SWAP1 PUSH2 0x4E1 SWAP2 SWAP1 PUSH2 0x2355 JUMP JUMPDEST PUSH2 0x217B JUMP JUMPDEST PUSH1 0x40 MLOAD PUSH2 0x4F3 SWAP2 SWAP1 PUSH2 0x2B3A JUMP JUMPDEST PUSH1 0x40 MLOAD DUP1 SWAP2 SUB SWAP1 RETURN JUMPDEST PUSH2 0x516 PUSH1 0x4 DUP1 CALLDATASIZE SUB DUP2 ADD SWAP1 PUSH2 0x511 SWAP2 SWAP1 PUSH2 0x2355 JUMP JUMPDEST PUSH2 0x2193 JUMP JUMPDEST PUSH1 0x40 MLOAD PUSH2 0x523 SWAP2 SWAP1 PUSH2 0x294D JUMP JUMPDEST PUSH1 0x40 MLOAD DUP1 SWAP2 SUB SWAP1 RETURN JUMPDEST PUSH2 0x546 PUSH1 0x4 DUP1 CALLDATASIZE SUB DUP2 ADD SWAP1 PUSH2 0x541 SWAP2 SWAP1 PUSH2 0x2355 JUMP JUMPDEST PUSH2 0x21AB JUMP JUMPDEST PUSH1 0x40 MLOAD PUSH2 0x553 SWAP2 SWAP1 PUSH2 0x294D JUMP JUMPDEST PUSH1 0x40 MLOAD DUP1 SWAP2 SUB SWAP1 RETURN JUMPDEST PUSH1 0x3 PUSH1 0x20 MSTORE DUP1 PUSH1 0x0 MSTORE PUSH1 0x40 PUSH1 0x0 KECCAK256 PUSH1 0x0 SWAP2 POP SWAP1 POP SLOAD DUP2 JUMP JUMPDEST PUSH1 0x0 DUP1 PUSH1 0x0 PUSH1 0x60 PUSH1 0x4 PUSH1 0x0 DUP7 DUP2 MSTORE PUSH1 0x20 ADD SWAP1 DUP2 MSTORE PUSH1 0x20 ADD PUSH1 0x0 KECCAK256 SLOAD TIMESTAMP LT ISZERO PUSH2 0x5D1 JUMPI PUSH1 0x40 MLOAD PUSH32 0x8C379A000000000000000000000000000000000000000000000000000000000 DUP2 MSTORE PUSH1 0x4 ADD PUSH2 0x5C8 SWAP1 PUSH2 0x2ADA JUMP JUMPDEST PUSH1 0x40 MLOAD DUP1 SWAP2 SUB SWAP1 REVERT JUMPDEST PUSH1 0x0 PUSH1 0xD PUSH1 0x0 DUP8 DUP2 MSTORE PUSH1 0x20 ADD SWAP1 DUP2 MSTORE PUSH1 0x20 ADD PUSH1 0x0 KECCAK256 DUP1 SLOAD DUP1 PUSH1 0x20 MUL PUSH1 0x20 ADD PUSH1 0x40 MLOAD SWAP1 DUP2 ADD PUSH1 0x40 MSTORE DUP1 SWAP3 SWAP2 SWAP1 DUP2 DUP2 MSTORE PUSH1 0x20 ADD PUSH1 0x0 SWAP1 JUMPDEST DUP3 DUP3 LT ISZERO PUSH2 0x6C0 JUMPI DUP4 DUP3 SWAP1 PUSH1 0x0 MSTORE PUSH1 0x20 PUSH1 0x0 KECCAK256 ADD PUSH1 0x40 MLOAD DUP1 PUSH1 0x60 ADD PUSH1 0x40 MSTORE SWAP1 DUP2 PUSH1 0x0 DUP3 ADD PUSH1 0x0 SWAP1 SLOAD SWAP1 PUSH2 0x100 EXP SWAP1 DIV PUSH1 0xFF AND ISZERO ISZERO ISZERO ISZERO DUP2 MSTORE PUSH1 0x20 ADD PUSH1 0x0 DUP3 ADD PUSH1 0x1 SWAP1 SLOAD SWAP1 PUSH2 0x100 EXP SWAP1 DIV PUSH1 0xFF AND ISZERO ISZERO ISZERO ISZERO DUP2 MSTORE PUSH1 0x20 ADD PUSH1 0x0 DUP3 ADD PUSH1 0x2 SWAP1 SLOAD SWAP1 PUSH2 0x100 EXP SWAP1 DIV PUSH20 0xFFFFFFFFFFFFFFFFFFFFFFFFFFFFFFFFFFFFFFFF AND PUSH20 0xFFFFFFFFFFFFFFFFFFFFFFFFFFFFFFFFFFFFFFFF AND PUSH20 0xFFFFFFFFFFFFFFFFFFFFFFFFFFFFFFFFFFFFFFFF AND DUP2 MSTORE POP POP DUP2 MSTORE PUSH1 0x20 ADD SWAP1 PUSH1 0x1 ADD SWAP1 PUSH2 0x606 JUMP JUMPDEST POP POP POP POP SWAP1 POP PUSH1 0x0 PUSH1 0x9 PUSH1 0x0 DUP9 DUP2 MSTORE PUSH1 0x20 ADD SWAP1 DUP2 MSTORE PUSH1 0x20 ADD PUSH1 0x0 KECCAK256 PUSH1 0x0 SWAP1 SLOAD SWAP1 PUSH2 0x100 EXP SWAP1 DIV PUSH1 0xFF AND SWAP1 POP PUSH1 0x0 PUSH1 0x2 PUSH1 0x0 DUP10 DUP2 MSTORE PUSH1 0x20 ADD SWAP1 DUP2 MSTORE PUSH1 0x20 ADD PUSH1 0x0 KECCAK256 SLOAD SWAP1 POP DUP2 DUP9 DUP3 DUP6 SWAP7 POP SWAP7 POP SWAP7 POP SWAP7 POP POP POP POP SWAP2 SWAP4 POP SWAP2 SWAP4 JUMP JUMPDEST PUSH1 0x0 DUP1 PUSH1 0x0 DUP1 PUSH1 0x0 DUP9 DUP2 MSTORE PUSH1 0x20 ADD SWAP1 DUP2 MSTORE PUSH1 0x20 ADD PUSH1 0x0 KECCAK256 PUSH1 0x0 SWAP1 SLOAD SWAP1 PUSH2 0x100 EXP SWAP1 DIV PUSH20 0xFFFFFFFFFFFFFFFFFFFFFFFFFFFFFFFFFFFFFFFF AND PUSH20 0xFFFFFFFFFFFFFFFFFFFFFFFFFFFFFFFFFFFFFFFF AND CALLER PUSH20 0xFFFFFFFFFFFFFFFFFFFFFFFFFFFFFFFFFFFFFFFF AND EQ PUSH2 0x7BE JUMPI PUSH1 0x40 MLOAD PUSH32 0x8C379A000000000000000000000000000000000000000000000000000000000 DUP2 MSTORE PUSH1 0x4 ADD PUSH2 0x7B5 SWAP1 PUSH2 0x2ABA JUMP JUMPDEST PUSH1 0x40 MLOAD DUP1 SWAP2 SUB SWAP1 REVERT JUMPDEST PUSH1 0x0 PUSH1 0x1 SWAP1 POP PUSH1 0x0 PUSH1 0x1 SWAP1 POP PUSH1 0x0 PUSH1 0x1 SWAP1 POP PUSH1 0x0 PUSH20 0xFFFFFFFFFFFFFFFFFFFFFFFFFFFFFFFFFFFFFFFF AND PUSH1 0x0 DUP1 DUP13 DUP2 MSTORE PUSH1 0x20 ADD SWAP1 DUP2 MSTORE PUSH1 0x20 ADD PUSH1 0x0 KECCAK256 PUSH1 0x0 SWAP1 SLOAD SWAP1 PUSH2 0x100 EXP SWAP1 DIV PUSH20 0xFFFFFFFFFFFFFFFFFFFFFFFFFFFFFFFFFFFFFFFF AND PUSH20 0xFFFFFFFFFFFFFFFFFFFFFFFFFFFFFFFFFFFFFFFF AND EQ ISZERO PUSH2 0x84A JUMPI PUSH1 0x1 DUP1 PUSH1 0x1 SWAP6 POP SWAP6 POP SWAP6 POP POP POP POP PUSH2 0x8B4 JUMP JUMPDEST PUSH1 0x7 PUSH1 0x0 DUP12 DUP2 MSTORE PUSH1 0x20 ADD SWAP1 DUP2 MSTORE PUSH1 0x20 ADD PUSH1 0x0 KECCAK256 SLOAD DUP10 EQ PUSH2 0x869 JUMPI PUSH1 0x0 SWAP3 POP JUMPDEST PUSH1 0x5 PUSH1 0x0 DUP12 DUP2 MSTORE PUSH1 0x20 ADD SWAP1 DUP2 MSTORE PUSH1 0x20 ADD PUSH1 0x0 KECCAK256 SLOAD DUP8 EQ PUSH2 0x888 JUMPI PUSH1 0x0 SWAP2 POP JUMPDEST DUP8 PUSH1 0x3 PUSH1 0x0 DUP13 DUP2 MSTORE PUSH1 0x20 ADD SWAP1 DUP2 MSTORE PUSH1 0x20 ADD PUSH1 0x0 KECCAK256 SLOAD EQ PUSH2 0x8A7 JUMPI PUSH1 0x0 SWAP1 POP JUMPDEST DUP3 DUP3 DUP3 SWAP6 POP SWAP6 POP SWAP6 POP POP POP POP JUMPDEST SWAP5 POP SWAP5 POP SWAP5 SWAP2 POP POP JUMP JUMPDEST PUSH1 0x9 PUSH1 0x20 MSTORE DUP1 PUSH1 0x0 MSTORE PUSH1 0x40 PUSH1 0x0 KECCAK256 PUSH1 0x0 SWAP2 POP SLOAD SWAP1 PUSH2 0x100 EXP SWAP1 DIV PUSH1 0xFF AND DUP2 JUMP JUMPDEST PUSH1 0xD PUSH1 0x20 MSTORE DUP2 PUSH1 0x0 MSTORE PUSH1 0x40 PUSH1 0x0 KECCAK256 DUP2 DUP2 SLOAD DUP2 LT PUSH2 0x8FA JUMPI PUSH1 0x0 DUP1 REVERT JUMPDEST SWAP1 PUSH1 0x0 MSTORE PUSH1 0x20 PUSH1 0x0 KECCAK256 ADD PUSH1 0x0 SWAP2 POP SWAP2 POP POP DUP1 PUSH1 0x0 ADD PUSH1 0x0 SWAP1 SLOAD SWAP1 PUSH2 0x100 EXP SWAP1 DIV PUSH1 0xFF AND SWAP1 DUP1 PUSH1 0x0 ADD PUSH1 0x1 SWAP1 SLOAD SWAP1 PUSH2 0x100 EXP SWAP1 DIV PUSH1 0xFF AND SWAP1 DUP1 PUSH1 0x0 ADD PUSH1 0x2 SWAP1 SLOAD SWAP1 PUSH2 0x100 EXP SWAP1 DIV PUSH20 0xFFFFFFFFFFFFFFFFFFFFFFFFFFFFFFFFFFFFFFFF AND SWAP1 POP DUP4 JUMP JUMPDEST PUSH1 0x0 PUSH1 0xA PUSH1 0x0 DUP4 DUP2 MSTORE PUSH1 0x20 ADD SWAP1 DUP2 MSTORE PUSH1 0x20 ADD PUSH1 0x0 KECCAK256 PUSH1 0x0 SWAP1 SLOAD SWAP1 PUSH2 0x100 EXP SWAP1 DIV PUSH1 0xFF AND SWAP1 POP SWAP2 SWAP1 POP JUMP JUMPDEST PUSH1 0x4 PUSH1 0x20 MSTORE DUP1 PUSH1 0x0 MSTORE PUSH1 0x40 PUSH1 0x0 KECCAK256 PUSH1 0x0 SWAP2 POP SWAP1 POP SLOAD DUP2 JUMP JUMPDEST PUSH1 0x7 PUSH1 0x20 MSTORE DUP1 PUSH1 0x0 MSTORE PUSH1 0x40 PUSH1 0x0 KECCAK256 PUSH1 0x0 SWAP2 POP SWAP1 POP SLOAD DUP2 JUMP JUMPDEST PUSH1 0x4 PUSH1 0x0 DUP3 DUP2 MSTORE PUSH1 0x20 ADD SWAP1 DUP2 MSTORE PUSH1 0x20 ADD PUSH1 0x0 KECCAK256 SLOAD TIMESTAMP LT ISZERO PUSH2 0xA0B JUMPI PUSH1 0x40 MLOAD PUSH32 0x8C379A000000000000000000000000000000000000000000000000000000000 DUP2 MSTORE PUSH1 0x4 ADD PUSH2 0xA02 SWAP1 PUSH2 0x2ADA JUMP JUMPDEST PUSH1 0x40 MLOAD DUP1 SWAP2 SUB SWAP1 REVERT JUMPDEST PUSH1 0x0 ISZERO ISZERO PUSH1 0xA PUSH1 0x0 DUP4 DUP2 MSTORE PUSH1 0x20 ADD SWAP1 DUP2 MSTORE PUSH1 0x20 ADD PUSH1 0x0 KECCAK256 PUSH1 0x0 SWAP1 SLOAD SWAP1 PUSH2 0x100 EXP SWAP1 DIV PUSH1 0xFF AND ISZERO ISZERO EQ PUSH2 0xA72 JUMPI PUSH1 0x40 MLOAD PUSH32 0x8C379A000000000000000000000000000000000000000000000000000000000 DUP2 MSTORE PUSH1 0x4 ADD PUSH2 0xA69 SWAP1 PUSH2 0x2B1A JUMP JUMPDEST PUSH1 0x40 MLOAD DUP1 SWAP2 SUB SWAP1 REVERT JUMPDEST PUSH1 0x0 DUP1 DUP3 DUP2 MSTORE PUSH1 0x20 ADD SWAP1 DUP2 MSTORE PUSH1 0x20 ADD PUSH1 0x0 KECCAK256 PUSH1 0x0 SWAP1 SLOAD SWAP1 PUSH2 0x100 EXP SWAP1 DIV PUSH20 0xFFFFFFFFFFFFFFFFFFFFFFFFFFFFFFFFFFFFFFFF AND PUSH20 0xFFFFFFFFFFFFFFFFFFFFFFFFFFFFFFFFFFFFFFFF AND CALLER PUSH20 0xFFFFFFFFFFFFFFFFFFFFFFFFFFFFFFFFFFFFFFFF AND EQ DUP1 PUSH2 0xB7E JUMPI POP PUSH1 0x0 PUSH20 0xFFFFFFFFFFFFFFFFFFFFFFFFFFFFFFFFFFFFFFFF AND PUSH1 0xC PUSH1 0x0 DUP4 DUP2 MSTORE PUSH1 0x20 ADD SWAP1 DUP2 MSTORE PUSH1 0x20 ADD PUSH1 0x0 KECCAK256 PUSH1 0x0 CALLER PUSH20 0xFFFFFFFFFFFFFFFFFFFFFFFFFFFFFFFFFFFFFFFF AND PUSH20 0xFFFFFFFFFFFFFFFFFFFFFFFFFFFFFFFFFFFFFFFF AND DUP2 MSTORE PUSH1 0x20 ADD SWAP1 DUP2 MSTORE PUSH1 0x20 ADD PUSH1 0x0 KECCAK256 PUSH1 0x0 ADD PUSH1 0x2 SWAP1 SLOAD SWAP1 PUSH2 0x100 EXP SWAP1 DIV PUSH20 0xFFFFFFFFFFFFFFFFFFFFFFFFFFFFFFFFFFFFFFFF AND PUSH20 0xFFFFFFFFFFFFFFFFFFFFFFFFFFFFFFFFFFFFFFFF AND EQ ISZERO JUMPDEST PUSH2 0xBBD JUMPI PUSH1 0x40 MLOAD PUSH32 0x8C379A000000000000000000000000000000000000000000000000000000000 DUP2 MSTORE PUSH1 0x4 ADD PUSH2 0xBB4 SWAP1 PUSH2 0x29FA JUMP JUMPDEST PUSH1 0x40 MLOAD DUP1 SWAP2 SUB SWAP1 REVERT JUMPDEST PUSH1 0x0 PUSH1 0x64 PUSH1 0xE PUSH1 0x0 DUP5 DUP2 MSTORE PUSH1 0x20 ADD SWAP1 DUP2 MSTORE PUSH1 0x20 ADD PUSH1 0x0 KECCAK256 DUP1 SLOAD SWAP1 POP PUSH1 0x6 PUSH1 0x0 DUP6 DUP2 MSTORE PUSH1 0x20 ADD SWAP1 DUP2 MSTORE PUSH1 0x20 ADD PUSH1 0x0 KECCAK256 SLOAD PUSH2 0xBF6 SWAP2 SWAP1 PUSH2 0x2C56 JUMP JUMPDEST PUSH2 0xC00 SWAP2 SWAP1 PUSH2 0x2C87 JUMP JUMPDEST SWAP1 POP PUSH1 0x7 PUSH1 0x0 DUP4 DUP2 MSTORE PUSH1 0x20 ADD SWAP1 DUP2 MSTORE PUSH1 0x20 ADD PUSH1 0x0 KECCAK256 SLOAD DUP2 LT PUSH2 0xC49 JUMPI PUSH1 0x1 PUSH1 0x9 PUSH1 0x0 DUP5 DUP2 MSTORE PUSH1 0x20 ADD SWAP1 DUP2 MSTORE PUSH1 0x20 ADD PUSH1 0x0 KECCAK256 PUSH1 0x0 PUSH2 0x100 EXP DUP2 SLOAD DUP2 PUSH1 0xFF MUL NOT AND SWAP1 DUP4 ISZERO ISZERO MUL OR SWAP1 SSTORE POP JUMPDEST PUSH1 0x0 JUMPDEST PUSH1 0xE PUSH1 0x0 DUP5 DUP2 MSTORE PUSH1 0x20 ADD SWAP1 DUP2 MSTORE PUSH1 0x20 ADD PUSH1 0x0 KECCAK256 DUP1 SLOAD SWAP1 POP DUP2 PUSH1 0xFF AND LT ISZERO PUSH2 0xEDD JUMPI PUSH1 0x0 ISZERO ISZERO PUSH1 0xC PUSH1 0x0 DUP6 DUP2 MSTORE PUSH1 0x20 ADD SWAP1 DUP2 MSTORE PUSH1 0x20 ADD PUSH1 0x0 KECCAK256 PUSH1 0x0 PUSH1 0xE PUSH1 0x0 DUP8 DUP2 MSTORE PUSH1 0x20 ADD SWAP1 DUP2 MSTORE PUSH1 0x20 ADD PUSH1 0x0 KECCAK256 DUP5 PUSH1 0xFF AND DUP2 SLOAD DUP2 LT PUSH2 0xCAE JUMPI PUSH2 0xCAD PUSH2 0x2E9C JUMP JUMPDEST JUMPDEST SWAP1 PUSH1 0x0 MSTORE PUSH1 0x20 PUSH1 0x0 KECCAK256 ADD PUSH1 0x0 SWAP1 SLOAD SWAP1 PUSH2 0x100 EXP SWAP1 DIV PUSH20 0xFFFFFFFFFFFFFFFFFFFFFFFFFFFFFFFFFFFFFFFF AND PUSH20 0xFFFFFFFFFFFFFFFFFFFFFFFFFFFFFFFFFFFFFFFF AND PUSH20 0xFFFFFFFFFFFFFFFFFFFFFFFFFFFFFFFFFFFFFFFF AND DUP2 MSTORE PUSH1 0x20 ADD SWAP1 DUP2 MSTORE PUSH1 0x20 ADD PUSH1 0x0 KECCAK256 PUSH1 0x0 ADD PUSH1 0x0 SWAP1 SLOAD SWAP1 PUSH2 0x100 EXP SWAP1 DIV PUSH1 0xFF AND ISZERO ISZERO EQ ISZERO PUSH2 0xECA JUMPI PUSH1 0xD PUSH1 0x0 DUP5 DUP2 MSTORE PUSH1 0x20 ADD SWAP1 DUP2 MSTORE PUSH1 0x20 ADD PUSH1 0x0 KECCAK256 PUSH1 0xC PUSH1 0x0 DUP6 DUP2 MSTORE PUSH1 0x20 ADD SWAP1 DUP2 MSTORE PUSH1 0x20 ADD PUSH1 0x0 KECCAK256 PUSH1 0x0 PUSH1 0xE PUSH1 0x0 DUP8 DUP2 MSTORE PUSH1 0x20 ADD SWAP1 DUP2 MSTORE PUSH1 0x20 ADD PUSH1 0x0 KECCAK256 DUP5 PUSH1 0xFF AND DUP2 SLOAD DUP2 LT PUSH2 0xD7C JUMPI PUSH2 0xD7B PUSH2 0x2E9C JUMP JUMPDEST JUMPDEST SWAP1 PUSH1 0x0 MSTORE PUSH1 0x20 PUSH1 0x0 KECCAK256 ADD PUSH1 0x0 SWAP1 SLOAD SWAP1 PUSH2 0x100 EXP SWAP1 DIV PUSH20 0xFFFFFFFFFFFFFFFFFFFFFFFFFFFFFFFFFFFFFFFF AND PUSH20 0xFFFFFFFFFFFFFFFFFFFFFFFFFFFFFFFFFFFFFFFF AND PUSH20 0xFFFFFFFFFFFFFFFFFFFFFFFFFFFFFFFFFFFFFFFF AND DUP2 MSTORE PUSH1 0x20 ADD SWAP1 DUP2 MSTORE PUSH1 0x20 ADD PUSH1 0x0 KECCAK256 SWAP1 DUP1 PUSH1 0x1 DUP2 SLOAD ADD DUP1 DUP3 SSTORE DUP1 SWAP2 POP POP PUSH1 0x1 SWAP1 SUB SWAP1 PUSH1 0x0 MSTORE PUSH1 0x20 PUSH1 0x0 KECCAK256 ADD PUSH1 0x0 SWAP1 SWAP2 SWAP1 SWAP2 SWAP1 SWAP2 POP PUSH1 0x0 DUP3 ADD PUSH1 0x0 SWAP1 SLOAD SWAP1 PUSH2 0x100 EXP SWAP1 DIV PUSH1 0xFF AND DUP2 PUSH1 0x0 ADD PUSH1 0x0 PUSH2 0x100 EXP DUP2 SLOAD DUP2 PUSH1 0xFF MUL NOT AND SWAP1 DUP4 ISZERO ISZERO MUL OR SWAP1 SSTORE POP PUSH1 0x0 DUP3 ADD PUSH1 0x1 SWAP1 SLOAD SWAP1 PUSH2 0x100 EXP SWAP1 DIV PUSH1 0xFF AND DUP2 PUSH1 0x0 ADD PUSH1 0x1 PUSH2 0x100 EXP DUP2 SLOAD DUP2 PUSH1 0xFF MUL NOT AND SWAP1 DUP4 ISZERO ISZERO MUL OR SWAP1 SSTORE POP PUSH1 0x0 DUP3 ADD PUSH1 0x2 SWAP1 SLOAD SWAP1 PUSH2 0x100 EXP SWAP1 DIV PUSH20 0xFFFFFFFFFFFFFFFFFFFFFFFFFFFFFFFFFFFFFFFF AND DUP2 PUSH1 0x0 ADD PUSH1 0x2 PUSH2 0x100 EXP DUP2 SLOAD DUP2 PUSH20 0xFFFFFFFFFFFFFFFFFFFFFFFFFFFFFFFFFFFFFFFF MUL NOT AND SWAP1 DUP4 PUSH20 0xFFFFFFFFFFFFFFFFFFFFFFFFFFFFFFFFFFFFFFFF AND MUL OR SWAP1 SSTORE POP POP POP JUMPDEST DUP1 DUP1 PUSH2 0xED5 SWAP1 PUSH2 0x2DE5 JUMP JUMPDEST SWAP2 POP POP PUSH2 0xC4C JUMP JUMPDEST POP PUSH1 0x1 PUSH1 0xA PUSH1 0x0 DUP5 DUP2 MSTORE PUSH1 0x20 ADD SWAP1 DUP2 MSTORE PUSH1 0x20 ADD PUSH1 0x0 KECCAK256 PUSH1 0x0 PUSH2 0x100 EXP DUP2 SLOAD DUP2 PUSH1 0xFF MUL NOT AND SWAP1 DUP4 ISZERO ISZERO MUL OR SWAP1 SSTORE POP POP POP JUMP JUMPDEST PUSH1 0xE PUSH1 0x20 MSTORE DUP2 PUSH1 0x0 MSTORE PUSH1 0x40 PUSH1 0x0 KECCAK256 DUP2 DUP2 SLOAD DUP2 LT PUSH2 0xF2A JUMPI PUSH1 0x0 DUP1 REVERT JUMPDEST SWAP1 PUSH1 0x0 MSTORE PUSH1 0x20 PUSH1 0x0 KECCAK256 ADD PUSH1 0x0 SWAP2 POP SWAP2 POP SWAP1 SLOAD SWAP1 PUSH2 0x100 EXP SWAP1 DIV PUSH20 0xFFFFFFFFFFFFFFFFFFFFFFFFFFFFFFFFFFFFFFFF AND DUP2 JUMP JUMPDEST PUSH1 0x2 PUSH1 0x20 MSTORE DUP1 PUSH1 0x0 MSTORE PUSH1 0x40 PUSH1 0x0 KECCAK256 PUSH1 0x0 SWAP2 POP SWAP1 POP SLOAD DUP2 JUMP JUMPDEST PUSH1 0xA PUSH1 0x20 MSTORE DUP1 PUSH1 0x0 MSTORE PUSH1 0x40 PUSH1 0x0 KECCAK256 PUSH1 0x0 SWAP2 POP SLOAD SWAP1 PUSH2 0x100 EXP SWAP1 DIV PUSH1 0xFF AND DUP2 JUMP JUMPDEST PUSH1 0x4 PUSH1 0x0 DUP3 DUP2 MSTORE PUSH1 0x20 ADD SWAP1 DUP2 MSTORE PUSH1 0x20 ADD PUSH1 0x0 KECCAK256 SLOAD TIMESTAMP LT PUSH2 0xFE9 JUMPI PUSH1 0x40 MLOAD PUSH32 0x8C379A000000000000000000000000000000000000000000000000000000000 DUP2 MSTORE PUSH1 0x4 ADD PUSH2 0xFE0 SWAP1 PUSH2 0x2AFA JUMP JUMPDEST PUSH1 0x40 MLOAD DUP1 SWAP2 SUB SWAP1 REVERT JUMPDEST PUSH1 0x0 PUSH20 0xFFFFFFFFFFFFFFFFFFFFFFFFFFFFFFFFFFFFFFFF AND PUSH1 0xC PUSH1 0x0 DUP4 DUP2 MSTORE PUSH1 0x20 ADD SWAP1 DUP2 MSTORE PUSH1 0x20 ADD PUSH1 0x0 KECCAK256 PUSH1 0x0 CALLER PUSH20 0xFFFFFFFFFFFFFFFFFFFFFFFFFFFFFFFFFFFFFFFF AND PUSH20 0xFFFFFFFFFFFFFFFFFFFFFFFFFFFFFFFFFFFFFFFF AND DUP2 MSTORE PUSH1 0x20 ADD SWAP1 DUP2 MSTORE PUSH1 0x20 ADD PUSH1 0x0 KECCAK256 PUSH1 0x0 ADD PUSH1 0x2 SWAP1 SLOAD SWAP1 PUSH2 0x100 EXP SWAP1 DIV PUSH20 0xFFFFFFFFFFFFFFFFFFFFFFFFFFFFFFFFFFFFFFFF AND PUSH20 0xFFFFFFFFFFFFFFFFFFFFFFFFFFFFFFFFFFFFFFFF AND EQ ISZERO PUSH2 0x10CC JUMPI PUSH1 0x40 MLOAD PUSH32 0x8C379A000000000000000000000000000000000000000000000000000000000 DUP2 MSTORE PUSH1 0x4 ADD PUSH2 0x10C3 SWAP1 PUSH2 0x2A5A JUMP JUMPDEST PUSH1 0x40 MLOAD DUP1 SWAP2 SUB SWAP1 REVERT JUMPDEST PUSH1 0xC PUSH1 0x0 DUP3 DUP2 MSTORE PUSH1 0x20 ADD SWAP1 DUP2 MSTORE PUSH1 0x20 ADD PUSH1 0x0 KECCAK256 PUSH1 0x0 CALLER PUSH20 0xFFFFFFFFFFFFFFFFFFFFFFFFFFFFFFFFFFFFFFFF AND PUSH20 0xFFFFFFFFFFFFFFFFFFFFFFFFFFFFFFFFFFFFFFFF AND DUP2 MSTORE PUSH1 0x20 ADD SWAP1 DUP2 MSTORE PUSH1 0x20 ADD PUSH1 0x0 KECCAK256 PUSH1 0x0 ADD PUSH1 0x0 SWAP1 SLOAD SWAP1 PUSH2 0x100 EXP SWAP1 DIV PUSH1 0xFF AND ISZERO PUSH2 0x116D JUMPI PUSH1 0x40 MLOAD PUSH32 0x8C379A000000000000000000000000000000000000000000000000000000000 DUP2 MSTORE PUSH1 0x4 ADD PUSH2 0x1164 SWAP1 PUSH2 0x2A1A JUMP JUMPDEST PUSH1 0x40 MLOAD DUP1 SWAP2 SUB SWAP1 REVERT JUMPDEST PUSH1 0x40 MLOAD DUP1 PUSH1 0x40 ADD PUSH1 0x40 MSTORE DUP1 PUSH1 0x9 DUP2 MSTORE PUSH1 0x20 ADD PUSH32 0x6920617070726F76650000000000000000000000000000000000000000000000 DUP2 MSTORE POP DUP1 MLOAD SWAP1 PUSH1 0x20 ADD KECCAK256 DUP3 DUP1 MLOAD SWAP1 PUSH1 0x20 ADD KECCAK256 EQ ISZERO PUSH2 0x1436 JUMPI PUSH1 0x1 PUSH1 0xC PUSH1 0x0 DUP4 DUP2 MSTORE PUSH1 0x20 ADD SWAP1 DUP2 MSTORE PUSH1 0x20 ADD PUSH1 0x0 KECCAK256 PUSH1 0x0 CALLER PUSH20 0xFFFFFFFFFFFFFFFFFFFFFFFFFFFFFFFFFFFFFFFF AND PUSH20 0xFFFFFFFFFFFFFFFFFFFFFFFFFFFFFFFFFFFFFFFF AND DUP2 MSTORE PUSH1 0x20 ADD SWAP1 DUP2 MSTORE PUSH1 0x20 ADD PUSH1 0x0 KECCAK256 PUSH1 0x0 ADD PUSH1 0x0 PUSH2 0x100 EXP DUP2 SLOAD DUP2 PUSH1 0xFF MUL NOT AND SWAP1 DUP4 ISZERO ISZERO MUL OR SWAP1 SSTORE POP PUSH1 0x1 PUSH1 0xC PUSH1 0x0 DUP4 DUP2 MSTORE PUSH1 0x20 ADD SWAP1 DUP2 MSTORE PUSH1 0x20 ADD PUSH1 0x0 KECCAK256 PUSH1 0x0 CALLER PUSH20 0xFFFFFFFFFFFFFFFFFFFFFFFFFFFFFFFFFFFFFFFF AND PUSH20 0xFFFFFFFFFFFFFFFFFFFFFFFFFFFFFFFFFFFFFFFF AND DUP2 MSTORE PUSH1 0x20 ADD SWAP1 DUP2 MSTORE PUSH1 0x20 ADD PUSH1 0x0 KECCAK256 PUSH1 0x0 ADD PUSH1 0x1 PUSH2 0x100 EXP DUP2 SLOAD DUP2 PUSH1 0xFF MUL NOT AND SWAP1 DUP4 ISZERO ISZERO MUL OR SWAP1 SSTORE POP PUSH1 0x1 PUSH1 0x6 PUSH1 0x0 DUP4 DUP2 MSTORE PUSH1 0x20 ADD SWAP1 DUP2 MSTORE PUSH1 0x20 ADD PUSH1 0x0 KECCAK256 PUSH1 0x0 DUP3 DUP3 SLOAD PUSH2 0x12B4 SWAP2 SWAP1 PUSH2 0x2C00 JUMP JUMPDEST SWAP3 POP POP DUP2 SWAP1 SSTORE POP PUSH1 0x1 PUSH1 0x2 PUSH1 0x0 DUP4 DUP2 MSTORE PUSH1 0x20 ADD SWAP1 DUP2 MSTORE PUSH1 0x20 ADD PUSH1 0x0 KECCAK256 PUSH1 0x0 DUP3 DUP3 SLOAD PUSH2 0x12DF SWAP2 SWAP1 PUSH2 0x2C00 JUMP JUMPDEST SWAP3 POP POP DUP2 SWAP1 SSTORE POP PUSH1 0xD PUSH1 0x0 DUP3 DUP2 MSTORE PUSH1 0x20 ADD SWAP1 DUP2 MSTORE PUSH1 0x20 ADD PUSH1 0x0 KECCAK256 PUSH1 0xC PUSH1 0x0 DUP4 DUP2 MSTORE PUSH1 0x20 ADD SWAP1 DUP2 MSTORE PUSH1 0x20 ADD PUSH1 0x0 KECCAK256 PUSH1 0x0 CALLER PUSH20 0xFFFFFFFFFFFFFFFFFFFFFFFFFFFFFFFFFFFFFFFF AND PUSH20 0xFFFFFFFFFFFFFFFFFFFFFFFFFFFFFFFFFFFFFFFF AND DUP2 MSTORE PUSH1 0x20 ADD SWAP1 DUP2 MSTORE PUSH1 0x20 ADD PUSH1 0x0 KECCAK256 SWAP1 DUP1 PUSH1 0x1 DUP2 SLOAD ADD DUP1 DUP3 SSTORE DUP1 SWAP2 POP POP PUSH1 0x1 SWAP1 SUB SWAP1 PUSH1 0x0 MSTORE PUSH1 0x20 PUSH1 0x0 KECCAK256 ADD PUSH1 0x0 SWAP1 SWAP2 SWAP1 SWAP2 SWAP1 SWAP2 POP PUSH1 0x0 DUP3 ADD PUSH1 0x0 SWAP1 SLOAD SWAP1 PUSH2 0x100 EXP SWAP1 DIV PUSH1 0xFF AND DUP2 PUSH1 0x0 ADD PUSH1 0x0 PUSH2 0x100 EXP DUP2 SLOAD DUP2 PUSH1 0xFF MUL NOT AND SWAP1 DUP4 ISZERO ISZERO MUL OR SWAP1 SSTORE POP PUSH1 0x0 DUP3 ADD PUSH1 0x1 SWAP1 SLOAD SWAP1 PUSH2 0x100 EXP SWAP1 DIV PUSH1 0xFF AND DUP2 PUSH1 0x0 ADD PUSH1 0x1 PUSH2 0x100 EXP DUP2 SLOAD DUP2 PUSH1 0xFF MUL NOT AND SWAP1 DUP4 ISZERO ISZERO MUL OR SWAP1 SSTORE POP PUSH1 0x0 DUP3 ADD PUSH1 0x2 SWAP1 SLOAD SWAP1 PUSH2 0x100 EXP SWAP1 DIV PUSH20 0xFFFFFFFFFFFFFFFFFFFFFFFFFFFFFFFFFFFFFFFF AND DUP2 PUSH1 0x0 ADD PUSH1 0x2 PUSH2 0x100 EXP DUP2 SLOAD DUP2 PUSH20 0xFFFFFFFFFFFFFFFFFFFFFFFFFFFFFFFFFFFFFFFF MUL NOT AND SWAP1 DUP4 PUSH20 0xFFFFFFFFFFFFFFFFFFFFFFFFFFFFFFFFFFFFFFFF AND MUL OR SWAP1 SSTORE POP POP POP PUSH2 0x184C JUMP JUMPDEST PUSH1 0x40 MLOAD DUP1 PUSH1 0x40 ADD PUSH1 0x40 MSTORE DUP1 PUSH1 0xC DUP2 MSTORE PUSH1 0x20 ADD PUSH32 0x6920646973617070726F76650000000000000000000000000000000000000000 DUP2 MSTORE POP DUP1 MLOAD SWAP1 PUSH1 0x20 ADD KECCAK256 DUP3 DUP1 MLOAD SWAP1 PUSH1 0x20 ADD KECCAK256 EQ ISZERO PUSH2 0x1668 JUMPI PUSH1 0x1 PUSH1 0xC PUSH1 0x0 DUP4 DUP2 MSTORE PUSH1 0x20 ADD SWAP1 DUP2 MSTORE PUSH1 0x20 ADD PUSH1 0x0 KECCAK256 PUSH1 0x0 CALLER PUSH20 0xFFFFFFFFFFFFFFFFFFFFFFFFFFFFFFFFFFFFFFFF AND PUSH20 0xFFFFFFFFFFFFFFFFFFFFFFFFFFFFFFFFFFFFFFFF AND DUP2 MSTORE PUSH1 0x20 ADD SWAP1 DUP2 MSTORE PUSH1 0x20 ADD PUSH1 0x0 KECCAK256 PUSH1 0x0 ADD PUSH1 0x0 PUSH2 0x100 EXP DUP2 SLOAD DUP2 PUSH1 0xFF MUL NOT AND SWAP1 DUP4 ISZERO ISZERO MUL OR SWAP1 SSTORE POP PUSH1 0x1 PUSH1 0x2 PUSH1 0x0 DUP4 DUP2 MSTORE PUSH1 0x20 ADD SWAP1 DUP2 MSTORE PUSH1 0x20 ADD PUSH1 0x0 KECCAK256 PUSH1 0x0 DUP3 DUP3 SLOAD PUSH2 0x1511 SWAP2 SWAP1 PUSH2 0x2C00 JUMP JUMPDEST SWAP3 POP POP DUP2 SWAP1 SSTORE POP PUSH1 0xD PUSH1 0x0 DUP3 DUP2 MSTORE PUSH1 0x20 ADD SWAP1 DUP2 MSTORE PUSH1 0x20 ADD PUSH1 0x0 KECCAK256 PUSH1 0xC PUSH1 0x0 DUP4 DUP2 MSTORE PUSH1 0x20 ADD SWAP1 DUP2 MSTORE PUSH1 0x20 ADD PUSH1 0x0 KECCAK256 PUSH1 0x0 CALLER PUSH20 0xFFFFFFFFFFFFFFFFFFFFFFFFFFFFFFFFFFFFFFFF AND PUSH20 0xFFFFFFFFFFFFFFFFFFFFFFFFFFFFFFFFFFFFFFFF AND DUP2 MSTORE PUSH1 0x20 ADD SWAP1 DUP2 MSTORE PUSH1 0x20 ADD PUSH1 0x0 KECCAK256 SWAP1 DUP1 PUSH1 0x1 DUP2 SLOAD ADD DUP1 DUP3 SSTORE DUP1 SWAP2 POP POP PUSH1 0x1 SWAP1 SUB SWAP1 PUSH1 0x0 MSTORE PUSH1 0x20 PUSH1 0x0 KECCAK256 ADD PUSH1 0x0 SWAP1 SWAP2 SWAP1 SWAP2 SWAP1 SWAP2 POP PUSH1 0x0 DUP3 ADD PUSH1 0x0 SWAP1 SLOAD SWAP1 PUSH2 0x100 EXP SWAP1 DIV PUSH1 0xFF AND DUP2 PUSH1 0x0 ADD PUSH1 0x0 PUSH2 0x100 EXP DUP2 SLOAD DUP2 PUSH1 0xFF MUL NOT AND SWAP1 DUP4 ISZERO ISZERO MUL OR SWAP1 SSTORE POP PUSH1 0x0 DUP3 ADD PUSH1 0x1 SWAP1 SLOAD SWAP1 PUSH2 0x100 EXP SWAP1 DIV PUSH1 0xFF AND DUP2 PUSH1 0x0 ADD PUSH1 0x1 PUSH2 0x100 EXP DUP2 SLOAD DUP2 PUSH1 0xFF MUL NOT AND SWAP1 DUP4 ISZERO ISZERO MUL OR SWAP1 SSTORE POP PUSH1 0x0 DUP3 ADD PUSH1 0x2 SWAP1 SLOAD SWAP1 PUSH2 0x100 EXP SWAP1 DIV PUSH20 0xFFFFFFFFFFFFFFFFFFFFFFFFFFFFFFFFFFFFFFFF AND DUP2 PUSH1 0x0 ADD PUSH1 0x2 PUSH2 0x100 EXP DUP2 SLOAD DUP2 PUSH20 0xFFFFFFFFFFFFFFFFFFFFFFFFFFFFFFFFFFFFFFFF MUL NOT AND SWAP1 DUP4 PUSH20 0xFFFFFFFFFFFFFFFFFFFFFFFFFFFFFFFFFFFFFFFF AND MUL OR SWAP1 SSTORE POP POP POP PUSH2 0x184B JUMP JUMPDEST PUSH1 0x1 PUSH1 0xC PUSH1 0x0 DUP4 DUP2 MSTORE PUSH1 0x20 ADD SWAP1 DUP2 MSTORE PUSH1 0x20 ADD PUSH1 0x0 KECCAK256 PUSH1 0x0 CALLER PUSH20 0xFFFFFFFFFFFFFFFFFFFFFFFFFFFFFFFFFFFFFFFF AND PUSH20 0xFFFFFFFFFFFFFFFFFFFFFFFFFFFFFFFFFFFFFFFF AND DUP2 MSTORE PUSH1 0x20 ADD SWAP1 DUP2 MSTORE PUSH1 0x20 ADD PUSH1 0x0 KECCAK256 PUSH1 0x0 ADD PUSH1 0x0 PUSH2 0x100 EXP DUP2 SLOAD DUP2 PUSH1 0xFF MUL NOT AND SWAP1 DUP4 ISZERO ISZERO MUL OR SWAP1 SSTORE POP PUSH1 0x1 PUSH1 0x2 PUSH1 0x0 DUP4 DUP2 MSTORE PUSH1 0x20 ADD SWAP1 DUP2 MSTORE PUSH1 0x20 ADD PUSH1 0x0 KECCAK256 PUSH1 0x0 DUP3 DUP3 SLOAD PUSH2 0x16F8 SWAP2 SWAP1 PUSH2 0x2C00 JUMP JUMPDEST SWAP3 POP POP DUP2 SWAP1 SSTORE POP PUSH1 0xD PUSH1 0x0 DUP3 DUP2 MSTORE PUSH1 0x20 ADD SWAP1 DUP2 MSTORE PUSH1 0x20 ADD PUSH1 0x0 KECCAK256 PUSH1 0xC PUSH1 0x0 DUP4 DUP2 MSTORE PUSH1 0x20 ADD SWAP1 DUP2 MSTORE PUSH1 0x20 ADD PUSH1 0x0 KECCAK256 PUSH1 0x0 CALLER PUSH20 0xFFFFFFFFFFFFFFFFFFFFFFFFFFFFFFFFFFFFFFFF AND PUSH20 0xFFFFFFFFFFFFFFFFFFFFFFFFFFFFFFFFFFFFFFFF AND DUP2 MSTORE PUSH1 0x20 ADD SWAP1 DUP2 MSTORE PUSH1 0x20 ADD PUSH1 0x0 KECCAK256 SWAP1 DUP1 PUSH1 0x1 DUP2 SLOAD ADD DUP1 DUP3 SSTORE DUP1 SWAP2 POP POP PUSH1 0x1 SWAP1 SUB SWAP1 PUSH1 0x0 MSTORE PUSH1 0x20 PUSH1 0x0 KECCAK256 ADD PUSH1 0x0 SWAP1 SWAP2 SWAP1 SWAP2 SWAP1 SWAP2 POP PUSH1 0x0 DUP3 ADD PUSH1 0x0 SWAP1 SLOAD SWAP1 PUSH2 0x100 EXP SWAP1 DIV PUSH1 0xFF AND DUP2 PUSH1 0x0 ADD PUSH1 0x0 PUSH2 0x100 EXP DUP2 SLOAD DUP2 PUSH1 0xFF MUL NOT AND SWAP1 DUP4 ISZERO ISZERO MUL OR SWAP1 SSTORE POP PUSH1 0x0 DUP3 ADD PUSH1 0x1 SWAP1 SLOAD SWAP1 PUSH2 0x100 EXP SWAP1 DIV PUSH1 0xFF AND DUP2 PUSH1 0x0 ADD PUSH1 0x1 PUSH2 0x100 EXP DUP2 SLOAD DUP2 PUSH1 0xFF MUL NOT AND SWAP1 DUP4 ISZERO ISZERO MUL OR SWAP1 SSTORE POP PUSH1 0x0 DUP3 ADD PUSH1 0x2 SWAP1 SLOAD SWAP1 PUSH2 0x100 EXP SWAP1 DIV PUSH20 0xFFFFFFFFFFFFFFFFFFFFFFFFFFFFFFFFFFFFFFFF AND DUP2 PUSH1 0x0 ADD PUSH1 0x2 PUSH2 0x100 EXP DUP2 SLOAD DUP2 PUSH20 0xFFFFFFFFFFFFFFFFFFFFFFFFFFFFFFFFFFFFFFFF MUL NOT AND SWAP1 DUP4 PUSH20 0xFFFFFFFFFFFFFFFFFFFFFFFFFFFFFFFFFFFFFFFF AND MUL OR SWAP1 SSTORE POP POP POP JUMPDEST JUMPDEST POP POP JUMP JUMPDEST PUSH1 0x0 PUSH20 0xFFFFFFFFFFFFFFFFFFFFFFFFFFFFFFFFFFFFFFFF AND PUSH1 0x0 DUP1 DUP9 DUP2 MSTORE PUSH1 0x20 ADD SWAP1 DUP2 MSTORE PUSH1 0x20 ADD PUSH1 0x0 KECCAK256 PUSH1 0x0 SWAP1 SLOAD SWAP1 PUSH2 0x100 EXP SWAP1 DIV PUSH20 0xFFFFFFFFFFFFFFFFFFFFFFFFFFFFFFFFFFFFFFFF AND PUSH20 0xFFFFFFFFFFFFFFFFFFFFFFFFFFFFFFFFFFFFFFFF AND EQ PUSH2 0x18F1 JUMPI PUSH1 0x40 MLOAD PUSH32 0x8C379A000000000000000000000000000000000000000000000000000000000 DUP2 MSTORE PUSH1 0x4 ADD PUSH2 0x18E8 SWAP1 PUSH2 0x29DA JUMP JUMPDEST PUSH1 0x40 MLOAD DUP1 SWAP2 SUB SWAP1 REVERT JUMPDEST PUSH1 0x0 PUSH1 0x2 PUSH1 0x0 DUP9 DUP2 MSTORE PUSH1 0x20 ADD SWAP1 DUP2 MSTORE PUSH1 0x20 ADD PUSH1 0x0 KECCAK256 DUP2 SWAP1 SSTORE POP DUP5 TIMESTAMP PUSH2 0x1916 SWAP2 SWAP1 PUSH2 0x2C00 JUMP JUMPDEST PUSH1 0x4 PUSH1 0x0 DUP9 DUP2 MSTORE PUSH1 0x20 ADD SWAP1 DUP2 MSTORE PUSH1 0x20 ADD PUSH1 0x0 KECCAK256 DUP2 SWAP1 SSTORE POP DUP6 PUSH1 0x1 PUSH1 0x0 DUP5 DUP2 MSTORE PUSH1 0x20 ADD SWAP1 DUP2 MSTORE PUSH1 0x20 ADD PUSH1 0x0 KECCAK256 DUP2 SWAP1 SSTORE POP PUSH1 0x0 PUSH1 0xA PUSH1 0x0 DUP9 DUP2 MSTORE PUSH1 0x20 ADD SWAP1 DUP2 MSTORE PUSH1 0x20 ADD PUSH1 0x0 KECCAK256 PUSH1 0x0 PUSH2 0x100 EXP DUP2 SLOAD DUP2 PUSH1 0xFF MUL NOT AND SWAP1 DUP4 ISZERO ISZERO MUL OR SWAP1 SSTORE POP DUP4 PUSH1 0x7 PUSH1 0x0 DUP9 DUP2 MSTORE PUSH1 0x20 ADD SWAP1 DUP2 MSTORE PUSH1 0x20 ADD PUSH1 0x0 KECCAK256 DUP2 SWAP1 SSTORE POP DUP4 PUSH1 0x7 PUSH1 0x0 DUP5 DUP2 MSTORE PUSH1 0x20 ADD SWAP1 DUP2 MSTORE PUSH1 0x20 ADD PUSH1 0x0 KECCAK256 DUP2 SWAP1 SSTORE POP PUSH1 0x0 PUSH1 0x9 PUSH1 0x0 DUP9 DUP2 MSTORE PUSH1 0x20 ADD SWAP1 DUP2 MSTORE PUSH1 0x20 ADD PUSH1 0x0 KECCAK256 PUSH1 0x0 PUSH2 0x100 EXP DUP2 SLOAD DUP2 PUSH1 0xFF MUL NOT AND SWAP1 DUP4 ISZERO ISZERO MUL OR SWAP1 SSTORE POP DUP5 PUSH1 0x3 PUSH1 0x0 DUP9 DUP2 MSTORE PUSH1 0x20 ADD SWAP1 DUP2 MSTORE PUSH1 0x20 ADD PUSH1 0x0 KECCAK256 DUP2 SWAP1 SSTORE POP DUP5 PUSH1 0x3 PUSH1 0x0 DUP5 DUP2 MSTORE PUSH1 0x20 ADD SWAP1 DUP2 MSTORE PUSH1 0x20 ADD PUSH1 0x0 KECCAK256 DUP2 SWAP1 SSTORE POP DUP3 PUSH1 0x5 PUSH1 0x0 DUP9 DUP2 MSTORE PUSH1 0x20 ADD SWAP1 DUP2 MSTORE PUSH1 0x20 ADD PUSH1 0x0 KECCAK256 DUP2 SWAP1 SSTORE POP DUP3 PUSH1 0x5 PUSH1 0x0 DUP5 DUP2 MSTORE PUSH1 0x20 ADD SWAP1 DUP2 MSTORE PUSH1 0x20 ADD PUSH1 0x0 KECCAK256 DUP2 SWAP1 SSTORE POP DUP2 PUSH1 0xB PUSH1 0x0 DUP9 DUP2 MSTORE PUSH1 0x20 ADD SWAP1 DUP2 MSTORE PUSH1 0x20 ADD PUSH1 0x0 KECCAK256 DUP2 SWAP1 SSTORE POP DUP1 PUSH1 0x8 PUSH1 0x0 DUP9 DUP2 MSTORE PUSH1 0x20 ADD SWAP1 DUP2 MSTORE PUSH1 0x20 ADD PUSH1 0x0 KECCAK256 SWAP1 DUP1 MLOAD SWAP1 PUSH1 0x20 ADD SWAP1 PUSH2 0x1A6C SWAP3 SWAP2 SWAP1 PUSH2 0x21C3 JUMP JUMPDEST POP DUP1 PUSH1 0x8 PUSH1 0x0 DUP5 DUP2 MSTORE PUSH1 0x20 ADD SWAP1 DUP2 MSTORE PUSH1 0x20 ADD PUSH1 0x0 KECCAK256 SWAP1 DUP1 MLOAD SWAP1 PUSH1 0x20 ADD SWAP1 PUSH2 0x1A94 SWAP3 SWAP2 SWAP1 PUSH2 0x21C3 JUMP JUMPDEST POP PUSH1 0x0 PUSH1 0x6 PUSH1 0x0 DUP9 DUP2 MSTORE PUSH1 0x20 ADD SWAP1 DUP2 MSTORE PUSH1 0x20 ADD PUSH1 0x0 KECCAK256 DUP2 SWAP1 SSTORE POP CALLER PUSH1 0x0 DUP1 DUP9 DUP2 MSTORE PUSH1 0x20 ADD SWAP1 DUP2 MSTORE PUSH1 0x20 ADD PUSH1 0x0 KECCAK256 PUSH1 0x0 PUSH2 0x100 EXP DUP2 SLOAD DUP2 PUSH20 0xFFFFFFFFFFFFFFFFFFFFFFFFFFFFFFFFFFFFFFFF MUL NOT AND SWAP1 DUP4 PUSH20 0xFFFFFFFFFFFFFFFFFFFFFFFFFFFFFFFFFFFFFFFF AND MUL OR SWAP1 SSTORE POP CALLER PUSH1 0x0 DUP1 DUP5 DUP2 MSTORE PUSH1 0x20 ADD SWAP1 DUP2 MSTORE PUSH1 0x20 ADD PUSH1 0x0 KECCAK256 PUSH1 0x0 PUSH2 0x100 EXP DUP2 SLOAD DUP2 PUSH20 0xFFFFFFFFFFFFFFFFFFFFFFFFFFFFFFFFFFFFFFFF MUL NOT AND SWAP1 DUP4 PUSH20 0xFFFFFFFFFFFFFFFFFFFFFFFFFFFFFFFFFFFFFFFF AND MUL OR SWAP1 SSTORE POP POP POP POP POP POP POP JUMP JUMPDEST PUSH1 0x0 PUSH1 0x60 PUSH1 0x1 PUSH1 0x0 DUP5 DUP2 MSTORE PUSH1 0x20 ADD SWAP1 DUP2 MSTORE PUSH1 0x20 ADD PUSH1 0x0 KECCAK256 SLOAD PUSH1 0x8 PUSH1 0x0 DUP6 DUP2 MSTORE PUSH1 0x20 ADD SWAP1 DUP2 MSTORE PUSH1 0x20 ADD PUSH1 0x0 KECCAK256 DUP1 DUP1 SLOAD PUSH2 0x1B8F SWAP1 PUSH2 0x2D82 JUMP JUMPDEST DUP1 PUSH1 0x1F ADD PUSH1 0x20 DUP1 SWAP2 DIV MUL PUSH1 0x20 ADD PUSH1 0x40 MLOAD SWAP1 DUP2 ADD PUSH1 0x40 MSTORE DUP1 SWAP3 SWAP2 SWAP1 DUP2 DUP2 MSTORE PUSH1 0x20 ADD DUP3 DUP1 SLOAD PUSH2 0x1BBB SWAP1 PUSH2 0x2D82 JUMP JUMPDEST DUP1 ISZERO PUSH2 0x1C08 JUMPI DUP1 PUSH1 0x1F LT PUSH2 0x1BDD JUMPI PUSH2 0x100 DUP1 DUP4 SLOAD DIV MUL DUP4 MSTORE SWAP2 PUSH1 0x20 ADD SWAP2 PUSH2 0x1C08 JUMP JUMPDEST DUP3 ADD SWAP2 SWAP1 PUSH1 0x0 MSTORE PUSH1 0x20 PUSH1 0x0 KECCAK256 SWAP1 JUMPDEST DUP2 SLOAD DUP2 MSTORE SWAP1 PUSH1 0x1 ADD SWAP1 PUSH1 0x20 ADD DUP1 DUP4 GT PUSH2 0x1BEB JUMPI DUP3 SWAP1 SUB PUSH1 0x1F AND DUP3 ADD SWAP2 JUMPDEST POP POP POP POP POP SWAP1 POP SWAP2 POP SWAP2 POP SWAP2 POP SWAP2 JUMP JUMPDEST PUSH1 0xB PUSH1 0x20 MSTORE DUP1 PUSH1 0x0 MSTORE PUSH1 0x40 PUSH1 0x0 KECCAK256 PUSH1 0x0 SWAP2 POP SWAP1 POP SLOAD DUP2 JUMP JUMPDEST PUSH1 0x8 PUSH1 0x20 MSTORE DUP1 PUSH1 0x0 MSTORE PUSH1 0x40 PUSH1 0x0 KECCAK256 PUSH1 0x0 SWAP2 POP SWAP1 POP DUP1 SLOAD PUSH2 0x1C4F SWAP1 PUSH2 0x2D82 JUMP JUMPDEST DUP1 PUSH1 0x1F ADD PUSH1 0x20 DUP1 SWAP2 DIV MUL PUSH1 0x20 ADD PUSH1 0x40 MLOAD SWAP1 DUP2 ADD PUSH1 0x40 MSTORE DUP1 SWAP3 SWAP2 SWAP1 DUP2 DUP2 MSTORE PUSH1 0x20 ADD DUP3 DUP1 SLOAD PUSH2 0x1C7B SWAP1 PUSH2 0x2D82 JUMP JUMPDEST DUP1 ISZERO PUSH2 0x1CC8 JUMPI DUP1 PUSH1 0x1F LT PUSH2 0x1C9D JUMPI PUSH2 0x100 DUP1 DUP4 SLOAD DIV MUL DUP4 MSTORE SWAP2 PUSH1 0x20 ADD SWAP2 PUSH2 0x1CC8 JUMP JUMPDEST DUP3 ADD SWAP2 SWAP1 PUSH1 0x0 MSTORE PUSH1 0x20 PUSH1 0x0 KECCAK256 SWAP1 JUMPDEST DUP2 SLOAD DUP2 MSTORE SWAP1 PUSH1 0x1 ADD SWAP1 PUSH1 0x20 ADD DUP1 DUP4 GT PUSH2 0x1CAB JUMPI DUP3 SWAP1 SUB PUSH1 0x1F AND DUP3 ADD SWAP2 JUMPDEST POP POP POP POP POP DUP2 JUMP JUMPDEST PUSH1 0xC PUSH1 0x20 MSTORE DUP2 PUSH1 0x0 MSTORE PUSH1 0x40 PUSH1 0x0 KECCAK256 PUSH1 0x20 MSTORE DUP1 PUSH1 0x0 MSTORE PUSH1 0x40 PUSH1 0x0 KECCAK256 PUSH1 0x0 SWAP2 POP SWAP2 POP POP DUP1 PUSH1 0x0 ADD PUSH1 0x0 SWAP1 SLOAD SWAP1 PUSH2 0x100 EXP SWAP1 DIV PUSH1 0xFF AND SWAP1 DUP1 PUSH1 0x0 ADD PUSH1 0x1 SWAP1 SLOAD SWAP1 PUSH2 0x100 EXP SWAP1 DIV PUSH1 0xFF AND SWAP1 DUP1 PUSH1 0x0 ADD PUSH1 0x2 SWAP1 SLOAD SWAP1 PUSH2 0x100 EXP SWAP1 DIV PUSH20 0xFFFFFFFFFFFFFFFFFFFFFFFFFFFFFFFFFFFFFFFF AND SWAP1 POP DUP4 JUMP JUMPDEST PUSH1 0x0 PUSH1 0x20 MSTORE DUP1 PUSH1 0x0 MSTORE PUSH1 0x40 PUSH1 0x0 KECCAK256 PUSH1 0x0 SWAP2 POP SLOAD SWAP1 PUSH2 0x100 EXP SWAP1 DIV PUSH20 0xFFFFFFFFFFFFFFFFFFFFFFFFFFFFFFFFFFFFFFFF AND DUP2 JUMP JUMPDEST PUSH1 0x0 DUP1 DUP3 DUP2 MSTORE PUSH1 0x20 ADD SWAP1 DUP2 MSTORE PUSH1 0x20 ADD PUSH1 0x0 KECCAK256 PUSH1 0x0 SWAP1 SLOAD SWAP1 PUSH2 0x100 EXP SWAP1 DIV PUSH20 0xFFFFFFFFFFFFFFFFFFFFFFFFFFFFFFFFFFFFFFFF AND PUSH20 0xFFFFFFFFFFFFFFFFFFFFFFFFFFFFFFFFFFFFFFFF AND CALLER PUSH20 0xFFFFFFFFFFFFFFFFFFFFFFFFFFFFFFFFFFFFFFFF AND EQ PUSH2 0x1E14 JUMPI PUSH1 0x40 MLOAD PUSH32 0x8C379A000000000000000000000000000000000000000000000000000000000 DUP2 MSTORE PUSH1 0x4 ADD PUSH2 0x1E0B SWAP1 PUSH2 0x2A9A JUMP JUMPDEST PUSH1 0x40 MLOAD DUP1 SWAP2 SUB SWAP1 REVERT JUMPDEST PUSH1 0x0 DUP1 DUP3 DUP2 MSTORE PUSH1 0x20 ADD SWAP1 DUP2 MSTORE PUSH1 0x20 ADD PUSH1 0x0 KECCAK256 PUSH1 0x0 SWAP1 SLOAD SWAP1 PUSH2 0x100 EXP SWAP1 DIV PUSH20 0xFFFFFFFFFFFFFFFFFFFFFFFFFFFFFFFFFFFFFFFF AND PUSH20 0xFFFFFFFFFFFFFFFFFFFFFFFFFFFFFFFFFFFFFFFF AND DUP3 PUSH20 0xFFFFFFFFFFFFFFFFFFFFFFFFFFFFFFFFFFFFFFFF AND EQ ISZERO PUSH2 0x1EB5 JUMPI PUSH1 0x40 MLOAD PUSH32 0x8C379A000000000000000000000000000000000000000000000000000000000 DUP2 MSTORE PUSH1 0x4 ADD PUSH2 0x1EAC SWAP1 PUSH2 0x2A3A JUMP JUMPDEST PUSH1 0x40 MLOAD DUP1 SWAP2 SUB SWAP1 REVERT JUMPDEST PUSH1 0x0 PUSH20 0xFFFFFFFFFFFFFFFFFFFFFFFFFFFFFFFFFFFFFFFF AND PUSH1 0xC PUSH1 0x0 DUP4 DUP2 MSTORE PUSH1 0x20 ADD SWAP1 DUP2 MSTORE PUSH1 0x20 ADD PUSH1 0x0 KECCAK256 PUSH1 0x0 DUP5 PUSH20 0xFFFFFFFFFFFFFFFFFFFFFFFFFFFFFFFFFFFFFFFF AND PUSH20 0xFFFFFFFFFFFFFFFFFFFFFFFFFFFFFFFFFFFFFFFF AND DUP2 MSTORE PUSH1 0x20 ADD SWAP1 DUP2 MSTORE PUSH1 0x20 ADD PUSH1 0x0 KECCAK256 PUSH1 0x0 ADD PUSH1 0x2 SWAP1 SLOAD SWAP1 PUSH2 0x100 EXP SWAP1 DIV PUSH20 0xFFFFFFFFFFFFFFFFFFFFFFFFFFFFFFFFFFFFFFFF AND PUSH20 0xFFFFFFFFFFFFFFFFFFFFFFFFFFFFFFFFFFFFFFFF AND EQ PUSH2 0x1F97 JUMPI PUSH1 0x40 MLOAD PUSH32 0x8C379A000000000000000000000000000000000000000000000000000000000 DUP2 MSTORE PUSH1 0x4 ADD PUSH2 0x1F8E SWAP1 PUSH2 0x29BA JUMP JUMPDEST PUSH1 0x40 MLOAD DUP1 SWAP2 SUB SWAP1 REVERT JUMPDEST PUSH1 0x4 PUSH1 0x0 DUP3 DUP2 MSTORE PUSH1 0x20 ADD SWAP1 DUP2 MSTORE PUSH1 0x20 ADD PUSH1 0x0 KECCAK256 SLOAD TIMESTAMP LT PUSH2 0x1FEC JUMPI PUSH1 0x40 MLOAD PUSH32 0x8C379A000000000000000000000000000000000000000000000000000000000 DUP2 MSTORE PUSH1 0x4 ADD PUSH2 0x1FE3 SWAP1 PUSH2 0x2A7A JUMP JUMPDEST PUSH1 0x40 MLOAD DUP1 SWAP2 SUB SWAP1 REVERT JUMPDEST PUSH1 0x0 PUSH1 0x40 MLOAD DUP1 PUSH1 0x60 ADD PUSH1 0x40 MSTORE DUP1 PUSH1 0x0 ISZERO ISZERO DUP2 MSTORE PUSH1 0x20 ADD PUSH1 0x0 ISZERO ISZERO DUP2 MSTORE PUSH1 0x20 ADD DUP5 PUSH20 0xFFFFFFFFFFFFFFFFFFFFFFFFFFFFFFFFFFFFFFFF AND DUP2 MSTORE POP SWAP1 POP DUP1 PUSH1 0xC PUSH1 0x0 DUP5 DUP2 MSTORE PUSH1 0x20 ADD SWAP1 DUP2 MSTORE PUSH1 0x20 ADD PUSH1 0x0 KECCAK256 PUSH1 0x0 DUP6 PUSH20 0xFFFFFFFFFFFFFFFFFFFFFFFFFFFFFFFFFFFFFFFF AND PUSH20 0xFFFFFFFFFFFFFFFFFFFFFFFFFFFFFFFFFFFFFFFF AND DUP2 MSTORE PUSH1 0x20 ADD SWAP1 DUP2 MSTORE PUSH1 0x20 ADD PUSH1 0x0 KECCAK256 PUSH1 0x0 DUP3 ADD MLOAD DUP2 PUSH1 0x0 ADD PUSH1 0x0 PUSH2 0x100 EXP DUP2 SLOAD DUP2 PUSH1 0xFF MUL NOT AND SWAP1 DUP4 ISZERO ISZERO MUL OR SWAP1 SSTORE POP PUSH1 0x20 DUP3 ADD MLOAD DUP2 PUSH1 0x0 ADD PUSH1 0x1 PUSH2 0x100 EXP DUP2 SLOAD DUP2 PUSH1 0xFF MUL NOT AND SWAP1 DUP4 ISZERO ISZERO MUL OR SWAP1 SSTORE POP PUSH1 0x40 DUP3 ADD MLOAD DUP2 PUSH1 0x0 ADD PUSH1 0x2 PUSH2 0x100 EXP DUP2 SLOAD DUP2 PUSH20 0xFFFFFFFFFFFFFFFFFFFFFFFFFFFFFFFFFFFFFFFF MUL NOT AND SWAP1 DUP4 PUSH20 0xFFFFFFFFFFFFFFFFFFFFFFFFFFFFFFFFFFFFFFFF AND MUL OR SWAP1 SSTORE POP SWAP1 POP POP PUSH1 0xE PUSH1 0x0 DUP4 DUP2 MSTORE PUSH1 0x20 ADD SWAP1 DUP2 MSTORE PUSH1 0x20 ADD PUSH1 0x0 KECCAK256 DUP4 SWAP1 DUP1 PUSH1 0x1 DUP2 SLOAD ADD DUP1 DUP3 SSTORE DUP1 SWAP2 POP POP PUSH1 0x1 SWAP1 SUB SWAP1 PUSH1 0x0 MSTORE PUSH1 0x20 PUSH1 0x0 KECCAK256 ADD PUSH1 0x0 SWAP1 SWAP2 SWAP1 SWAP2 SWAP1 SWAP2 PUSH2 0x100 EXP DUP2 SLOAD DUP2 PUSH20 0xFFFFFFFFFFFFFFFFFFFFFFFFFFFFFFFFFFFFFFFF MUL NOT AND SWAP1 DUP4 PUSH20 0xFFFFFFFFFFFFFFFFFFFFFFFFFFFFFFFFFFFFFFFF AND MUL OR SWAP1 SSTORE POP POP POP POP JUMP JUMPDEST PUSH1 0x6 PUSH1 0x20 MSTORE DUP1 PUSH1 0x0 MSTORE PUSH1 0x40 PUSH1 0x0 KECCAK256 PUSH1 0x0 SWAP2 POP SWAP1 POP SLOAD DUP2 JUMP JUMPDEST PUSH1 0x1 PUSH1 0x20 MSTORE DUP1 PUSH1 0x0 MSTORE PUSH1 0x40 PUSH1 0x0 KECCAK256 PUSH1 0x0 SWAP2 POP SWAP1 POP SLOAD DUP2 JUMP JUMPDEST PUSH1 0x5 PUSH1 0x20 MSTORE DUP1 PUSH1 0x0 MSTORE PUSH1 0x40 PUSH1 0x0 KECCAK256 PUSH1 0x0 SWAP2 POP SWAP1 POP SLOAD DUP2 JUMP JUMPDEST DUP3 DUP1 SLOAD PUSH2 0x21CF SWAP1 PUSH2 0x2D82 JUMP JUMPDEST SWAP1 PUSH1 0x0 MSTORE PUSH1 0x20 PUSH1 0x0 KECCAK256 SWAP1 PUSH1 0x1F ADD PUSH1 0x20 SWAP1 DIV DUP2 ADD SWAP3 DUP3 PUSH2 0x21F1 JUMPI PUSH1 0x0 DUP6 SSTORE PUSH2 0x2238 JUMP JUMPDEST DUP3 PUSH1 0x1F LT PUSH2 0x220A JUMPI DUP1 MLOAD PUSH1 0xFF NOT AND DUP4 DUP1 ADD OR DUP6 SSTORE PUSH2 0x2238 JUMP JUMPDEST DUP3 DUP1 ADD PUSH1 0x1 ADD DUP6 SSTORE DUP3 ISZERO PUSH2 0x2238 JUMPI SWAP2 DUP3 ADD JUMPDEST DUP3 DUP2 GT ISZERO PUSH2 0x2237 JUMPI DUP3 MLOAD DUP3 SSTORE SWAP2 PUSH1 0x20 ADD SWAP2 SWAP1 PUSH1 0x1 ADD SWAP1 PUSH2 0x221C JUMP JUMPDEST JUMPDEST POP SWAP1 POP PUSH2 0x2245 SWAP2 SWAP1 PUSH2 0x2249 JUMP JUMPDEST POP SWAP1 JUMP JUMPDEST JUMPDEST DUP1 DUP3 GT ISZERO PUSH2 0x2262 JUMPI PUSH1 0x0 DUP2 PUSH1 0x0 SWAP1 SSTORE POP PUSH1 0x1 ADD PUSH2 0x224A JUMP JUMPDEST POP SWAP1 JUMP JUMPDEST PUSH1 0x0 PUSH2 0x2279 PUSH2 0x2274 DUP5 PUSH2 0x2B7A JUMP JUMPDEST PUSH2 0x2B55 JUMP JUMPDEST SWAP1 POP DUP3 DUP2 MSTORE PUSH1 0x20 DUP2 ADD DUP5 DUP5 DUP5 ADD GT ISZERO PUSH2 0x2295 JUMPI PUSH2 0x2294 PUSH2 0x2EFF JUMP JUMPDEST JUMPDEST PUSH2 0x22A0 DUP5 DUP3 DUP6 PUSH2 0x2D40 JUMP JUMPDEST POP SWAP4 SWAP3 POP POP POP JUMP JUMPDEST PUSH1 0x0 DUP2 CALLDATALOAD SWAP1 POP PUSH2 0x22B7 DUP2 PUSH2 0x31A3 JUMP JUMPDEST SWAP3 SWAP2 POP POP JUMP JUMPDEST PUSH1 0x0 DUP2 CALLDATALOAD SWAP1 POP PUSH2 0x22CC DUP2 PUSH2 0x31BA JUMP JUMPDEST SWAP3 SWAP2 POP POP JUMP JUMPDEST PUSH1 0x0 DUP3 PUSH1 0x1F DUP4 ADD SLT PUSH2 0x22E7 JUMPI PUSH2 0x22E6 PUSH2 0x2EFA JUMP JUMPDEST JUMPDEST DUP2 CALLDATALOAD PUSH2 0x22F7 DUP5 DUP3 PUSH1 0x20 DUP7 ADD PUSH2 0x2266 JUMP JUMPDEST SWAP2 POP POP SWAP3 SWAP2 POP POP JUMP JUMPDEST PUSH1 0x0 DUP2 CALLDATALOAD SWAP1 POP PUSH2 0x230F DUP2 PUSH2 0x31D1 JUMP JUMPDEST SWAP3 SWAP2 POP POP JUMP JUMPDEST PUSH1 0x0 DUP1 PUSH1 0x40 DUP4 DUP6 SUB SLT ISZERO PUSH2 0x232C JUMPI PUSH2 0x232B PUSH2 0x2F09 JUMP JUMPDEST JUMPDEST PUSH1 0x0 PUSH2 0x233A DUP6 DUP3 DUP7 ADD PUSH2 0x22A8 JUMP JUMPDEST SWAP3 POP POP PUSH1 0x20 PUSH2 0x234B DUP6 DUP3 DUP7 ADD PUSH2 0x22BD JUMP JUMPDEST SWAP2 POP POP SWAP3 POP SWAP3 SWAP1 POP JUMP JUMPDEST PUSH1 0x0 PUSH1 0x20 DUP3 DUP5 SUB SLT ISZERO PUSH2 0x236B JUMPI PUSH2 0x236A PUSH2 0x2F09 JUMP JUMPDEST JUMPDEST PUSH1 0x0 PUSH2 0x2379 DUP5 DUP3 DUP6 ADD PUSH2 0x22BD JUMP JUMPDEST SWAP2 POP POP SWAP3 SWAP2 POP POP JUMP JUMPDEST PUSH1 0x0 DUP1 PUSH1 0x40 DUP4 DUP6 SUB SLT ISZERO PUSH2 0x2399 JUMPI PUSH2 0x2398 PUSH2 0x2F09 JUMP JUMPDEST JUMPDEST PUSH1 0x0 PUSH2 0x23A7 DUP6 DUP3 DUP7 ADD PUSH2 0x22BD JUMP JUMPDEST SWAP3 POP POP PUSH1 0x20 PUSH2 0x23B8 DUP6 DUP3 DUP7 ADD PUSH2 0x22A8 JUMP JUMPDEST SWAP2 POP POP SWAP3 POP SWAP3 SWAP1 POP JUMP JUMPDEST PUSH1 0x0 DUP1 PUSH1 0x40 DUP4 DUP6 SUB SLT ISZERO PUSH2 0x23D9 JUMPI PUSH2 0x23D8 PUSH2 0x2F09 JUMP JUMPDEST JUMPDEST PUSH1 0x0 PUSH2 0x23E7 DUP6 DUP3 DUP7 ADD PUSH2 0x22BD JUMP JUMPDEST SWAP3 POP POP PUSH1 0x20 PUSH2 0x23F8 DUP6 DUP3 DUP7 ADD PUSH2 0x2300 JUMP JUMPDEST SWAP2 POP POP SWAP3 POP SWAP3 SWAP1 POP JUMP JUMPDEST PUSH1 0x0 DUP1 PUSH1 0x0 DUP1 PUSH1 0x80 DUP6 DUP8 SUB SLT ISZERO PUSH2 0x241C JUMPI PUSH2 0x241B PUSH2 0x2F09 JUMP JUMPDEST JUMPDEST PUSH1 0x0 PUSH2 0x242A DUP8 DUP3 DUP9 ADD PUSH2 0x22BD JUMP JUMPDEST SWAP5 POP POP PUSH1 0x20 PUSH2 0x243B DUP8 DUP3 DUP9 ADD PUSH2 0x2300 JUMP JUMPDEST SWAP4 POP POP PUSH1 0x40 PUSH2 0x244C DUP8 DUP3 DUP9 ADD PUSH2 0x2300 JUMP JUMPDEST SWAP3 POP POP PUSH1 0x60 PUSH2 0x245D DUP8 DUP3 DUP9 ADD PUSH2 0x22BD JUMP JUMPDEST SWAP2 POP POP SWAP3 SWAP6 SWAP2 SWAP5 POP SWAP3 POP JUMP JUMPDEST PUSH1 0x0 DUP1 PUSH1 0x0 DUP1 PUSH1 0x0 DUP1 PUSH1 0xC0 DUP8 DUP10 SUB SLT ISZERO PUSH2 0x2486 JUMPI PUSH2 0x2485 PUSH2 0x2F09 JUMP JUMPDEST JUMPDEST PUSH1 0x0 PUSH2 0x2494 DUP10 DUP3 DUP11 ADD PUSH2 0x22BD JUMP JUMPDEST SWAP7 POP POP PUSH1 0x20 PUSH2 0x24A5 DUP10 DUP3 DUP11 ADD PUSH2 0x2300 JUMP JUMPDEST SWAP6 POP POP PUSH1 0x40 PUSH2 0x24B6 DUP10 DUP3 DUP11 ADD PUSH2 0x2300 JUMP JUMPDEST SWAP5 POP POP PUSH1 0x60 PUSH2 0x24C7 DUP10 DUP3 DUP11 ADD PUSH2 0x22BD JUMP JUMPDEST SWAP4 POP POP PUSH1 0x80 PUSH2 0x24D8 DUP10 DUP3 DUP11 ADD PUSH2 0x22BD JUMP JUMPDEST SWAP3 POP POP PUSH1 0xA0 DUP8 ADD CALLDATALOAD PUSH8 0xFFFFFFFFFFFFFFFF DUP2 GT ISZERO PUSH2 0x24F9 JUMPI PUSH2 0x24F8 PUSH2 0x2F04 JUMP JUMPDEST JUMPDEST PUSH2 0x2505 DUP10 DUP3 DUP11 ADD PUSH2 0x22D2 JUMP JUMPDEST SWAP2 POP POP SWAP3 SWAP6 POP SWAP3 SWAP6 POP SWAP3 SWAP6 JUMP JUMPDEST PUSH1 0x0 DUP1 PUSH1 0x40 DUP4 DUP6 SUB SLT ISZERO PUSH2 0x2529 JUMPI PUSH2 0x2528 PUSH2 0x2F09 JUMP JUMPDEST JUMPDEST PUSH1 0x0 DUP4 ADD CALLDATALOAD PUSH8 0xFFFFFFFFFFFFFFFF DUP2 GT ISZERO PUSH2 0x2547 JUMPI PUSH2 0x2546 PUSH2 0x2F04 JUMP JUMPDEST JUMPDEST PUSH2 0x2553 DUP6 DUP3 DUP7 ADD PUSH2 0x22D2 JUMP JUMPDEST SWAP3 POP POP PUSH1 0x20 PUSH2 0x2564 DUP6 DUP3 DUP7 ADD PUSH2 0x22BD JUMP JUMPDEST SWAP2 POP POP SWAP3 POP SWAP3 SWAP1 POP JUMP JUMPDEST PUSH1 0x0 PUSH2 0x257A DUP4 DUP4 PUSH2 0x280C JUMP JUMPDEST PUSH1 0x60 DUP4 ADD SWAP1 POP SWAP3 SWAP2 POP POP JUMP JUMPDEST PUSH2 0x258F DUP2 PUSH2 0x2CE1 JUMP JUMPDEST DUP3 MSTORE POP POP JUMP JUMPDEST PUSH2 0x259E DUP2 PUSH2 0x2CE1 JUMP JUMPDEST DUP3 MSTORE POP POP JUMP JUMPDEST PUSH1 0x0 PUSH2 0x25AF DUP3 PUSH2 0x2BBB JUMP JUMPDEST PUSH2 0x25B9 DUP2 DUP6 PUSH2 0x2BDE JUMP JUMPDEST SWAP4 POP PUSH2 0x25C4 DUP4 PUSH2 0x2BAB JUMP JUMPDEST DUP1 PUSH1 0x0 JUMPDEST DUP4 DUP2 LT ISZERO PUSH2 0x25F5 JUMPI DUP2 MLOAD PUSH2 0x25DC DUP9 DUP3 PUSH2 0x256E JUMP JUMPDEST SWAP8 POP PUSH2 0x25E7 DUP4 PUSH2 0x2BD1 JUMP JUMPDEST SWAP3 POP POP PUSH1 0x1 DUP2 ADD SWAP1 POP PUSH2 0x25C8 JUMP JUMPDEST POP DUP6 SWAP4 POP POP POP POP SWAP3 SWAP2 POP POP JUMP JUMPDEST PUSH2 0x260B DUP2 PUSH2 0x2CF3 JUMP JUMPDEST DUP3 MSTORE POP POP JUMP JUMPDEST PUSH2 0x261A DUP2 PUSH2 0x2CF3 JUMP JUMPDEST DUP3 MSTORE POP POP JUMP JUMPDEST PUSH2 0x2629 DUP2 PUSH2 0x2CFF JUMP JUMPDEST DUP3 MSTORE POP POP JUMP JUMPDEST PUSH1 0x0 PUSH2 0x263A DUP3 PUSH2 0x2BC6 JUMP JUMPDEST PUSH2 0x2644 DUP2 DUP6 PUSH2 0x2BEF JUMP JUMPDEST SWAP4 POP PUSH2 0x2654 DUP2 DUP6 PUSH1 0x20 DUP7 ADD PUSH2 0x2D4F JUMP JUMPDEST PUSH2 0x265D DUP2 PUSH2 0x2F0E JUMP JUMPDEST DUP5 ADD SWAP2 POP POP SWAP3 SWAP2 POP POP JUMP JUMPDEST PUSH1 0x0 PUSH2 0x2675 PUSH1 0x1F DUP4 PUSH2 0x2BEF JUMP JUMPDEST SWAP2 POP PUSH2 0x2680 DUP3 PUSH2 0x2F1F JUMP JUMPDEST PUSH1 0x20 DUP3 ADD SWAP1 POP SWAP2 SWAP1 POP JUMP JUMPDEST PUSH1 0x0 PUSH2 0x2698 PUSH1 0x19 DUP4 PUSH2 0x2BEF JUMP JUMPDEST SWAP2 POP PUSH2 0x26A3 DUP3 PUSH2 0x2F48 JUMP JUMPDEST PUSH1 0x20 DUP3 ADD SWAP1 POP SWAP2 SWAP1 POP JUMP JUMPDEST PUSH1 0x0 PUSH2 0x26BB PUSH1 0x26 DUP4 PUSH2 0x2BEF JUMP JUMPDEST SWAP2 POP PUSH2 0x26C6 DUP3 PUSH2 0x2F71 JUMP JUMPDEST PUSH1 0x40 DUP3 ADD SWAP1 POP SWAP2 SWAP1 POP JUMP JUMPDEST PUSH1 0x0 PUSH2 0x26DE PUSH1 0x1C DUP4 PUSH2 0x2BEF JUMP JUMPDEST SWAP2 POP PUSH2 0x26E9 DUP3 PUSH2 0x2FC0 JUMP JUMPDEST PUSH1 0x20 DUP3 ADD SWAP1 POP SWAP2 SWAP1 POP JUMP JUMPDEST PUSH1 0x0 PUSH2 0x2701 PUSH1 0x15 DUP4 PUSH2 0x2BEF JUMP JUMPDEST SWAP2 POP PUSH2 0x270C DUP3 PUSH2 0x2FE9 JUMP JUMPDEST PUSH1 0x20 DUP3 ADD SWAP1 POP SWAP2 SWAP1 POP JUMP JUMPDEST PUSH1 0x0 PUSH2 0x2724 PUSH1 0x1E DUP4 PUSH2 0x2BEF JUMP JUMPDEST SWAP2 POP PUSH2 0x272F DUP3 PUSH2 0x3012 JUMP JUMPDEST PUSH1 0x20 DUP3 ADD SWAP1 POP SWAP2 SWAP1 POP JUMP JUMPDEST PUSH1 0x0 PUSH2 0x2747 PUSH1 0x24 DUP4 PUSH2 0x2BEF JUMP JUMPDEST SWAP2 POP PUSH2 0x2752 DUP3 PUSH2 0x303B JUMP JUMPDEST PUSH1 0x40 DUP3 ADD SWAP1 POP SWAP2 SWAP1 POP JUMP JUMPDEST PUSH1 0x0 PUSH2 0x276A PUSH1 0x28 DUP4 PUSH2 0x2BEF JUMP JUMPDEST SWAP2 POP PUSH2 0x2775 DUP3 PUSH2 0x308A JUMP JUMPDEST PUSH1 0x40 DUP3 ADD SWAP1 POP SWAP2 SWAP1 POP JUMP JUMPDEST PUSH1 0x0 PUSH2 0x278D PUSH1 0x14 DUP4 PUSH2 0x2BEF JUMP JUMPDEST SWAP2 POP PUSH2 0x2798 DUP3 PUSH2 0x30D9 JUMP JUMPDEST PUSH1 0x20 DUP3 ADD SWAP1 POP SWAP2 SWAP1 POP JUMP JUMPDEST PUSH1 0x0 PUSH2 0x27B0 PUSH1 0x20 DUP4 PUSH2 0x2BEF JUMP JUMPDEST SWAP2 POP PUSH2 0x27BB DUP3 PUSH2 0x3102 JUMP JUMPDEST PUSH1 0x20 DUP3 ADD SWAP1 POP SWAP2 SWAP1 POP JUMP JUMPDEST PUSH1 0x0 PUSH2 0x27D3 PUSH1 0x12 DUP4 PUSH2 0x2BEF JUMP JUMPDEST SWAP2 POP PUSH2 0x27DE DUP3 PUSH2 0x312B JUMP JUMPDEST PUSH1 0x20 DUP3 ADD SWAP1 POP SWAP2 SWAP1 POP JUMP JUMPDEST PUSH1 0x0 PUSH2 0x27F6 PUSH1 0x25 DUP4 PUSH2 0x2BEF JUMP JUMPDEST SWAP2 POP PUSH2 0x2801 DUP3 PUSH2 0x3154 JUMP JUMPDEST PUSH1 0x40 DUP3 ADD SWAP1 POP SWAP2 SWAP1 POP JUMP JUMPDEST PUSH1 0x60 DUP3 ADD PUSH1 0x0 DUP3 ADD MLOAD PUSH2 0x2822 PUSH1 0x0 DUP6 ADD DUP3 PUSH2 0x2602 JUMP JUMPDEST POP PUSH1 0x20 DUP3 ADD MLOAD PUSH2 0x2835 PUSH1 0x20 DUP6 ADD DUP3 PUSH2 0x2602 JUMP JUMPDEST POP PUSH1 0x40 DUP3 ADD MLOAD PUSH2 0x2848 PUSH1 0x40 DUP6 ADD DUP3 PUSH2 0x2586 JUMP JUMPDEST POP POP POP POP JUMP JUMPDEST PUSH2 0x2857 DUP2 PUSH2 0x2D29 JUMP JUMPDEST DUP3 MSTORE POP POP JUMP JUMPDEST PUSH1 0x0 PUSH1 0x20 DUP3 ADD SWAP1 POP PUSH2 0x2872 PUSH1 0x0 DUP4 ADD DUP5 PUSH2 0x2595 JUMP JUMPDEST SWAP3 SWAP2 POP POP JUMP JUMPDEST PUSH1 0x0 PUSH1 0x20 DUP3 ADD SWAP1 POP PUSH2 0x288D PUSH1 0x0 DUP4 ADD DUP5 PUSH2 0x2611 JUMP JUMPDEST SWAP3 SWAP2 POP POP JUMP JUMPDEST PUSH1 0x0 PUSH1 0x60 DUP3 ADD SWAP1 POP PUSH2 0x28A8 PUSH1 0x0 DUP4 ADD DUP7 PUSH2 0x2611 JUMP JUMPDEST PUSH2 0x28B5 PUSH1 0x20 DUP4 ADD DUP6 PUSH2 0x2611 JUMP JUMPDEST PUSH2 0x28C2 PUSH1 0x40 DUP4 ADD DUP5 PUSH2 0x2595 JUMP JUMPDEST SWAP5 SWAP4 POP POP POP POP JUMP JUMPDEST PUSH1 0x0 PUSH1 0x60 DUP3 ADD SWAP1 POP PUSH2 0x28DF PUSH1 0x0 DUP4 ADD DUP7 PUSH2 0x2611 JUMP JUMPDEST PUSH2 0x28EC PUSH1 0x20 DUP4 ADD DUP6 PUSH2 0x2611 JUMP JUMPDEST PUSH2 0x28F9 PUSH1 0x40 DUP4 ADD DUP5 PUSH2 0x2611 JUMP JUMPDEST SWAP5 SWAP4 POP POP POP POP JUMP JUMPDEST PUSH1 0x0 PUSH1 0x80 DUP3 ADD SWAP1 POP PUSH2 0x2916 PUSH1 0x0 DUP4 ADD DUP8 PUSH2 0x2611 JUMP JUMPDEST PUSH2 0x2923 PUSH1 0x20 DUP4 ADD DUP7 PUSH2 0x2620 JUMP JUMPDEST PUSH2 0x2930 PUSH1 0x40 DUP4 ADD DUP6 PUSH2 0x284E JUMP JUMPDEST DUP2 DUP2 SUB PUSH1 0x60 DUP4 ADD MSTORE PUSH2 0x2942 DUP2 DUP5 PUSH2 0x25A4 JUMP JUMPDEST SWAP1 POP SWAP6 SWAP5 POP POP POP POP POP JUMP JUMPDEST PUSH1 0x0 PUSH1 0x20 DUP3 ADD SWAP1 POP PUSH2 0x2962 PUSH1 0x0 DUP4 ADD DUP5 PUSH2 0x2620 JUMP JUMPDEST SWAP3 SWAP2 POP POP JUMP JUMPDEST PUSH1 0x0 PUSH1 0x40 DUP3 ADD SWAP1 POP PUSH2 0x297D PUSH1 0x0 DUP4 ADD DUP6 PUSH2 0x2620 JUMP JUMPDEST DUP2 DUP2 SUB PUSH1 0x20 DUP4 ADD MSTORE PUSH2 0x298F DUP2 DUP5 PUSH2 0x262F JUMP JUMPDEST SWAP1 POP SWAP4 SWAP3 POP POP POP JUMP JUMPDEST PUSH1 0x0 PUSH1 0x20 DUP3 ADD SWAP1 POP DUP2 DUP2 SUB PUSH1 0x0 DUP4 ADD MSTORE PUSH2 0x29B2 DUP2 DUP5 PUSH2 0x262F JUMP JUMPDEST SWAP1 POP SWAP3 SWAP2 POP POP JUMP JUMPDEST PUSH1 0x0 PUSH1 0x20 DUP3 ADD SWAP1 POP DUP2 DUP2 SUB PUSH1 0x0 DUP4 ADD MSTORE PUSH2 0x29D3 DUP2 PUSH2 0x2668 JUMP JUMPDEST SWAP1 POP SWAP2 SWAP1 POP JUMP JUMPDEST PUSH1 0x0 PUSH1 0x20 DUP3 ADD SWAP1 POP DUP2 DUP2 SUB PUSH1 0x0 DUP4 ADD MSTORE PUSH2 0x29F3 DUP2 PUSH2 0x268B JUMP JUMPDEST SWAP1 POP SWAP2 SWAP1 POP JUMP JUMPDEST PUSH1 0x0 PUSH1 0x20 DUP3 ADD SWAP1 POP DUP2 DUP2 SUB PUSH1 0x0 DUP4 ADD MSTORE PUSH2 0x2A13 DUP2 PUSH2 0x26AE JUMP JUMPDEST SWAP1 POP SWAP2 SWAP1 POP JUMP JUMPDEST PUSH1 0x0 PUSH1 0x20 DUP3 ADD SWAP1 POP DUP2 DUP2 SUB PUSH1 0x0 DUP4 ADD MSTORE PUSH2 0x2A33 DUP2 PUSH2 0x26D1 JUMP JUMPDEST SWAP1 POP SWAP2 SWAP1 POP JUMP JUMPDEST PUSH1 0x0 PUSH1 0x20 DUP3 ADD SWAP1 POP DUP2 DUP2 SUB PUSH1 0x0 DUP4 ADD MSTORE PUSH2 0x2A53 DUP2 PUSH2 0x26F4 JUMP JUMPDEST SWAP1 POP SWAP2 SWAP1 POP JUMP JUMPDEST PUSH1 0x0 PUSH1 0x20 DUP3 ADD SWAP1 POP DUP2 DUP2 SUB PUSH1 0x0 DUP4 ADD MSTORE PUSH2 0x2A73 DUP2 PUSH2 0x2717 JUMP JUMPDEST SWAP1 POP SWAP2 SWAP1 POP JUMP JUMPDEST PUSH1 0x0 PUSH1 0x20 DUP3 ADD SWAP1 POP DUP2 DUP2 SUB PUSH1 0x0 DUP4 ADD MSTORE PUSH2 0x2A93 DUP2 PUSH2 0x273A JUMP JUMPDEST SWAP1 POP SWAP2 SWAP1 POP JUMP JUMPDEST PUSH1 0x0 PUSH1 0x20 DUP3 ADD SWAP1 POP DUP2 DUP2 SUB PUSH1 0x0 DUP4 ADD MSTORE PUSH2 0x2AB3 DUP2 PUSH2 0x275D JUMP JUMPDEST SWAP1 POP SWAP2 SWAP1 POP JUMP JUMPDEST PUSH1 0x0 PUSH1 0x20 DUP3 ADD SWAP1 POP DUP2 DUP2 SUB PUSH1 0x0 DUP4 ADD MSTORE PUSH2 0x2AD3 DUP2 PUSH2 0x2780 JUMP JUMPDEST SWAP1 POP SWAP2 SWAP1 POP JUMP JUMPDEST PUSH1 0x0 PUSH1 0x20 DUP3 ADD SWAP1 POP DUP2 DUP2 SUB PUSH1 0x0 DUP4 ADD MSTORE PUSH2 0x2AF3 DUP2 PUSH2 0x27A3 JUMP JUMPDEST SWAP1 POP SWAP2 SWAP1 POP JUMP JUMPDEST PUSH1 0x0 PUSH1 0x20 DUP3 ADD SWAP1 POP DUP2 DUP2 SUB PUSH1 0x0 DUP4 ADD MSTORE PUSH2 0x2B13 DUP2 PUSH2 0x27C6 JUMP JUMPDEST SWAP1 POP SWAP2 SWAP1 POP JUMP JUMPDEST PUSH1 0x0 PUSH1 0x20 DUP3 ADD SWAP1 POP DUP2 DUP2 SUB PUSH1 0x0 DUP4 ADD MSTORE PUSH2 0x2B33 DUP2 PUSH2 0x27E9 JUMP JUMPDEST SWAP1 POP SWAP2 SWAP1 POP JUMP JUMPDEST PUSH1 0x0 PUSH1 0x20 DUP3 ADD SWAP1 POP PUSH2 0x2B4F PUSH1 0x0 DUP4 ADD DUP5 PUSH2 0x284E JUMP JUMPDEST SWAP3 SWAP2 POP POP JUMP JUMPDEST PUSH1 0x0 PUSH2 0x2B5F PUSH2 0x2B70 JUMP JUMPDEST SWAP1 POP PUSH2 0x2B6B DUP3 DUP3 PUSH2 0x2DB4 JUMP JUMPDEST SWAP2 SWAP1 POP JUMP JUMPDEST PUSH1 0x0 PUSH1 0x40 MLOAD SWAP1 POP SWAP1 JUMP JUMPDEST PUSH1 0x0 PUSH8 0xFFFFFFFFFFFFFFFF DUP3 GT ISZERO PUSH2 0x2B95 JUMPI PUSH2 0x2B94 PUSH2 0x2ECB JUMP JUMPDEST JUMPDEST PUSH2 0x2B9E DUP3 PUSH2 0x2F0E JUMP JUMPDEST SWAP1 POP PUSH1 0x20 DUP2 ADD SWAP1 POP SWAP2 SWAP1 POP JUMP JUMPDEST PUSH1 0x0 DUP2 SWAP1 POP PUSH1 0x20 DUP3 ADD SWAP1 POP SWAP2 SWAP1 POP JUMP JUMPDEST PUSH1 0x0 DUP2 MLOAD SWAP1 POP SWAP2 SWAP1 POP JUMP JUMPDEST PUSH1 0x0 DUP2 MLOAD SWAP1 POP SWAP2 SWAP1 POP JUMP JUMPDEST PUSH1 0x0 PUSH1 0x20 DUP3 ADD SWAP1 POP SWAP2 SWAP1 POP JUMP JUMPDEST PUSH1 0x0 DUP3 DUP3 MSTORE PUSH1 0x20 DUP3 ADD SWAP1 POP SWAP3 SWAP2 POP POP JUMP JUMPDEST PUSH1 0x0 DUP3 DUP3 MSTORE PUSH1 0x20 DUP3 ADD SWAP1 POP SWAP3 SWAP2 POP POP JUMP JUMPDEST PUSH1 0x0 PUSH2 0x2C0B DUP3 PUSH2 0x2D29 JUMP JUMPDEST SWAP2 POP PUSH2 0x2C16 DUP4 PUSH2 0x2D29 JUMP JUMPDEST SWAP3 POP DUP3 PUSH32 0xFFFFFFFFFFFFFFFFFFFFFFFFFFFFFFFFFFFFFFFFFFFFFFFFFFFFFFFFFFFFFFFF SUB DUP3 GT ISZERO PUSH2 0x2C4B JUMPI PUSH2 0x2C4A PUSH2 0x2E0F JUMP JUMPDEST JUMPDEST DUP3 DUP3 ADD SWAP1 POP SWAP3 SWAP2 POP POP JUMP JUMPDEST PUSH1 0x0 PUSH2 0x2C61 DUP3 PUSH2 0x2D29 JUMP JUMPDEST SWAP2 POP PUSH2 0x2C6C DUP4 PUSH2 0x2D29 JUMP JUMPDEST SWAP3 POP DUP3 PUSH2 0x2C7C JUMPI PUSH2 0x2C7B PUSH2 0x2E3E JUMP JUMPDEST JUMPDEST DUP3 DUP3 DIV SWAP1 POP SWAP3 SWAP2 POP POP JUMP JUMPDEST PUSH1 0x0 PUSH2 0x2C92 DUP3 PUSH2 0x2D29 JUMP JUMPDEST SWAP2 POP PUSH2 0x2C9D DUP4 PUSH2 0x2D29 JUMP JUMPDEST SWAP3 POP DUP2 PUSH32 0xFFFFFFFFFFFFFFFFFFFFFFFFFFFFFFFFFFFFFFFFFFFFFFFFFFFFFFFFFFFFFFFF DIV DUP4 GT DUP3 ISZERO ISZERO AND ISZERO PUSH2 0x2CD6 JUMPI PUSH2 0x2CD5 PUSH2 0x2E0F JUMP JUMPDEST JUMPDEST DUP3 DUP3 MUL SWAP1 POP SWAP3 SWAP2 POP POP JUMP JUMPDEST PUSH1 0x0 PUSH2 0x2CEC DUP3 PUSH2 0x2D09 JUMP JUMPDEST SWAP1 POP SWAP2 SWAP1 POP JUMP JUMPDEST PUSH1 0x0 DUP2 ISZERO ISZERO SWAP1 POP SWAP2 SWAP1 POP JUMP JUMPDEST PUSH1 0x0 DUP2 SWAP1 POP SWAP2 SWAP1 POP JUMP JUMPDEST PUSH1 0x0 PUSH20 0xFFFFFFFFFFFFFFFFFFFFFFFFFFFFFFFFFFFFFFFF DUP3 AND SWAP1 POP SWAP2 SWAP1 POP JUMP JUMPDEST PUSH1 0x0 DUP2 SWAP1 POP SWAP2 SWAP1 POP JUMP JUMPDEST PUSH1 0x0 PUSH1 0xFF DUP3 AND SWAP1 POP SWAP2 SWAP1 POP JUMP JUMPDEST DUP3 DUP2 DUP4 CALLDATACOPY PUSH1 0x0 DUP4 DUP4 ADD MSTORE POP POP POP JUMP JUMPDEST PUSH1 0x0 JUMPDEST DUP4 DUP2 LT ISZERO PUSH2 0x2D6D JUMPI DUP1 DUP3 ADD MLOAD DUP2 DUP5 ADD MSTORE PUSH1 0x20 DUP2 ADD SWAP1 POP PUSH2 0x2D52 JUMP JUMPDEST DUP4 DUP2 GT ISZERO PUSH2 0x2D7C JUMPI PUSH1 0x0 DUP5 DUP5 ADD MSTORE JUMPDEST POP POP POP POP JUMP JUMPDEST PUSH1 0x0 PUSH1 0x2 DUP3 DIV SWAP1 POP PUSH1 0x1 DUP3 AND DUP1 PUSH2 0x2D9A JUMPI PUSH1 0x7F DUP3 AND SWAP2 POP JUMPDEST PUSH1 0x20 DUP3 LT DUP2 EQ ISZERO PUSH2 0x2DAE JUMPI PUSH2 0x2DAD PUSH2 0x2E6D JUMP JUMPDEST JUMPDEST POP SWAP2 SWAP1 POP JUMP JUMPDEST PUSH2 0x2DBD DUP3 PUSH2 0x2F0E JUMP JUMPDEST DUP2 ADD DUP2 DUP2 LT PUSH8 0xFFFFFFFFFFFFFFFF DUP3 GT OR ISZERO PUSH2 0x2DDC JUMPI PUSH2 0x2DDB PUSH2 0x2ECB JUMP JUMPDEST JUMPDEST DUP1 PUSH1 0x40 MSTORE POP POP POP JUMP JUMPDEST PUSH1 0x0 PUSH2 0x2DF0 DUP3 PUSH2 0x2D33 JUMP JUMPDEST SWAP2 POP PUSH1 0xFF DUP3 EQ ISZERO PUSH2 0x2E04 JUMPI PUSH2 0x2E03 PUSH2 0x2E0F JUMP JUMPDEST JUMPDEST PUSH1 0x1 DUP3 ADD SWAP1 POP SWAP2 SWAP1 POP JUMP JUMPDEST PUSH32 0x4E487B7100000000000000000000000000000000000000000000000000000000 PUSH1 0x0 MSTORE PUSH1 0x11 PUSH1 0x4 MSTORE PUSH1 0x24 PUSH1 0x0 REVERT JUMPDEST PUSH32 0x4E487B7100000000000000000000000000000000000000000000000000000000 PUSH1 0x0 MSTORE PUSH1 0x12 PUSH1 0x4 MSTORE PUSH1 0x24 PUSH1 0x0 REVERT JUMPDEST PUSH32 0x4E487B7100000000000000000000000000000000000000000000000000000000 PUSH1 0x0 MSTORE PUSH1 0x22 PUSH1 0x4 MSTORE PUSH1 0x24 PUSH1 0x0 REVERT JUMPDEST PUSH32 0x4E487B7100000000000000000000000000000000000000000000000000000000 PUSH1 0x0 MSTORE PUSH1 0x32 PUSH1 0x4 MSTORE PUSH1 0x24 PUSH1 0x0 REVERT JUMPDEST PUSH32 0x4E487B7100000000000000000000000000000000000000000000000000000000 PUSH1 0x0 MSTORE PUSH1 0x41 PUSH1 0x4 MSTORE PUSH1 0x24 PUSH1 0x0 REVERT JUMPDEST PUSH1 0x0 DUP1 REVERT JUMPDEST PUSH1 0x0 DUP1 REVERT JUMPDEST PUSH1 0x0 DUP1 REVERT JUMPDEST PUSH1 0x0 DUP1 REVERT JUMPDEST PUSH1 0x0 PUSH1 0x1F NOT PUSH1 0x1F DUP4 ADD AND SWAP1 POP SWAP2 SWAP1 POP JUMP JUMPDEST PUSH32 0x526563697069656E7420697320616C7265616479207265676973746572656400 PUSH1 0x0 DUP3 ADD MSTORE POP JUMP JUMPDEST PUSH32 0x50726F706F73616C20616C726561647920637265617465642100000000000000 PUSH1 0x0 DUP3 ADD MSTORE POP JUMP JUMPDEST PUSH32 0x596F75206172656E277420617574686F72697A6520746F20636F6D70696C6520 PUSH1 0x0 DUP3 ADD MSTORE PUSH32 0x42756E646C650000000000000000000000000000000000000000000000000000 PUSH1 0x20 DUP3 ADD MSTORE POP JUMP JUMPDEST PUSH32 0x596F7520616C72656164792073656E74206120726573706F6E73652E00000000 PUSH1 0x0 DUP3 ADD MSTORE POP JUMP JUMPDEST PUSH32 0x496E69746961746F722063616E277420766F7465210000000000000000000000 PUSH1 0x0 DUP3 ADD MSTORE POP JUMP JUMPDEST PUSH32 0x596F7520617265206E6F74207265676973746572656420746F20766F74650000 PUSH1 0x0 DUP3 ADD MSTORE POP JUMP JUMPDEST PUSH32 0x50726F706F73616C206861732072656163686564206974732065787069727920 PUSH1 0x0 DUP3 ADD MSTORE PUSH32 0x6461746500000000000000000000000000000000000000000000000000000000 PUSH1 0x20 DUP3 ADD MSTORE POP JUMP JUMPDEST PUSH32 0x4F6E6C7920696E69746961746F722063616E2072656769737465722061207265 PUSH1 0x0 DUP3 ADD MSTORE PUSH32 0x63697069656E742E000000000000000000000000000000000000000000000000 PUSH1 0x20 DUP3 ADD MSTORE POP JUMP JUMPDEST PUSH32 0x596F75206172656E277420496E69746961746F72000000000000000000000000 PUSH1 0x0 DUP3 ADD MSTORE POP JUMP JUMPDEST PUSH32 0x5665726469637420686173206E6F74206265656E207265616368656420796574 PUSH1 0x0 DUP3 ADD MSTORE POP JUMP JUMPDEST PUSH32 0x566F74696E672068617320657870697265640000000000000000000000000000 PUSH1 0x0 DUP3 ADD MSTORE POP JUMP JUMPDEST PUSH32 0x436F6E73656E7375732068617320616C7265616479206265656E2063616C6375 PUSH1 0x0 DUP3 ADD MSTORE PUSH32 0x6C61746564000000000000000000000000000000000000000000000000000000 PUSH1 0x20 DUP3 ADD MSTORE POP JUMP JUMPDEST PUSH2 0x31AC DUP2 PUSH2 0x2CE1 JUMP JUMPDEST DUP2 EQ PUSH2 0x31B7 JUMPI PUSH1 0x0 DUP1 REVERT JUMPDEST POP JUMP JUMPDEST PUSH2 0x31C3 DUP2 PUSH2 0x2CFF JUMP JUMPDEST DUP2 EQ PUSH2 0x31CE JUMPI PUSH1 0x0 DUP1 REVERT JUMPDEST POP JUMP JUMPDEST PUSH2 0x31DA DUP2 PUSH2 0x2D29 JUMP JUMPDEST DUP2 EQ PUSH2 0x31E5 JUMPI PUSH1 0x0 DUP1 REVERT JUMPDEST POP JUMP INVALID LOG2 PUSH5 0x6970667358 0x22 SLT KECCAK256 0x4E JUMPDEST 0xD 0xCD 0xED EXTCODESIZE 0xB2 0xE2 TIMESTAMP 0xCC 0xA8 DUP1 0x21 PUSH15 0x9978FFDD16520CCD2D957A03012AFA SWAP2 0xE3 PUSH4 0x64736F6C PUSH4 0x43000807 STOP CALLER "
				},
				"gasEstimates": {
					"creation": {
						"codeDepositCost": "2566000",
						"executionCost": "2771",
						"totalCost": "2568771"
					},
					"external": {
						"Consensus(bytes32)": "infinite",
						"IDs(bytes32)": "infinite",
						"RegisterVoter(address,bytes32)": "131678",
						"Vote(string,bytes32)": "infinite",
						"Voters(bytes32,uint256)": "infinite",
						"businessRequirements(bytes32)": "2832",
						"checkConsistency(bytes32,uint256,uint256,bytes32)": "infinite",
						"contents(bytes32)": "infinite",
						"createContract(bytes32,uint256,uint256,bytes32,bytes32,string)": "infinite",
						"expiryDates(bytes32)": "2810",
						"expiryLengths(bytes32)": "2789",
						"finalVerdicts(bytes32)": "2886",
						"getIsCompiled(bytes32)": "2845",
						"getIsCreated(bytes32)": "infinite",
						"initiators(bytes32)": "2883",
						"isCompiled(bytes32)": "2819",
						"keys(bytes32,uint256)": "5309",
						"messageDates(bytes32)": "infinite",
						"numApprovals(bytes32)": "2853",
						"retrieve_bundle(bytes32)": "infinite",
						"subjects(bytes32)": "infinite",
						"voteCounts(bytes32)": "2898",
						"voter_maps(bytes32,address)": "infinite"
					}
				},
				"methodIdentifiers": {
					"Consensus(bytes32)": "7d6c570a",
					"IDs(bytes32)": "e5d009bf",
					"RegisterVoter(address,bytes32)": "d468f983",
					"Vote(string,bytes32)": "8acc0d10",
					"Voters(bytes32,uint256)": "4fd3b445",
					"businessRequirements(bytes32)": "7a099c6a",
					"checkConsistency(bytes32,uint256,uint256,bytes32)": "33dfd126",
					"contents(bytes32)": "f20ca12c",
					"createContract(bytes32,uint256,uint256,bytes32,bytes32,string)": "8b0e8a2a",
					"expiryDates(bytes32)": "56c583d8",
					"expiryLengths(bytes32)": "13191ade",
					"finalVerdicts(bytes32)": "38c20a9e",
					"getIsCompiled(bytes32)": "5273bc48",
					"getIsCreated(bytes32)": "97299e99",
					"initiators(bytes32)": "d443560a",
					"isCompiled(bytes32)": "823a6366",
					"keys(bytes32,uint256)": "7ff4c389",
					"messageDates(bytes32)": "a4a8f426",
					"numApprovals(bytes32)": "e463eaee",
					"retrieve_bundle(bytes32)": "27f0ae92",
					"subjects(bytes32)": "a0d859a3",
					"voteCounts(bytes32)": "81d0e37b",
					"voter_maps(bytes32,address)": "a784ef74"
				}
			},
			"storageLayout": {
				"storage": [
					{
						"astId": 12,
						"contract": "contracts/BusinessConsensus3.sol:BusinessConsensus3",
						"label": "initiators",
						"offset": 0,
						"slot": "0",
						"type": "t_mapping(t_bytes32,t_address)"
					},
					{
						"astId": 16,
						"contract": "contracts/BusinessConsensus3.sol:BusinessConsensus3",
						"label": "IDs",
						"offset": 0,
						"slot": "1",
						"type": "t_mapping(t_bytes32,t_bytes32)"
					},
					{
						"astId": 20,
						"contract": "contracts/BusinessConsensus3.sol:BusinessConsensus3",
						"label": "voteCounts",
						"offset": 0,
						"slot": "2",
						"type": "t_mapping(t_bytes32,t_uint256)"
					},
					{
						"astId": 24,
						"contract": "contracts/BusinessConsensus3.sol:BusinessConsensus3",
						"label": "expiryLengths",
						"offset": 0,
						"slot": "3",
						"type": "t_mapping(t_bytes32,t_uint256)"
					},
					{
						"astId": 28,
						"contract": "contracts/BusinessConsensus3.sol:BusinessConsensus3",
						"label": "expiryDates",
						"offset": 0,
						"slot": "4",
						"type": "t_mapping(t_bytes32,t_uint256)"
					},
					{
						"astId": 32,
						"contract": "contracts/BusinessConsensus3.sol:BusinessConsensus3",
						"label": "contents",
						"offset": 0,
						"slot": "5",
						"type": "t_mapping(t_bytes32,t_bytes32)"
					},
					{
						"astId": 36,
						"contract": "contracts/BusinessConsensus3.sol:BusinessConsensus3",
						"label": "numApprovals",
						"offset": 0,
						"slot": "6",
						"type": "t_mapping(t_bytes32,t_uint256)"
					},
					{
						"astId": 40,
						"contract": "contracts/BusinessConsensus3.sol:BusinessConsensus3",
						"label": "businessRequirements",
						"offset": 0,
						"slot": "7",
						"type": "t_mapping(t_bytes32,t_uint256)"
					},
					{
						"astId": 44,
						"contract": "contracts/BusinessConsensus3.sol:BusinessConsensus3",
						"label": "messageDates",
						"offset": 0,
						"slot": "8",
						"type": "t_mapping(t_bytes32,t_string_storage)"
					},
					{
						"astId": 48,
						"contract": "contracts/BusinessConsensus3.sol:BusinessConsensus3",
						"label": "finalVerdicts",
						"offset": 0,
						"slot": "9",
						"type": "t_mapping(t_bytes32,t_bool)"
					},
					{
						"astId": 52,
						"contract": "contracts/BusinessConsensus3.sol:BusinessConsensus3",
						"label": "isCompiled",
						"offset": 0,
						"slot": "10",
						"type": "t_mapping(t_bytes32,t_bool)"
					},
					{
						"astId": 56,
						"contract": "contracts/BusinessConsensus3.sol:BusinessConsensus3",
						"label": "subjects",
						"offset": 0,
						"slot": "11",
						"type": "t_mapping(t_bytes32,t_bytes32)"
					},
					{
						"astId": 63,
						"contract": "contracts/BusinessConsensus3.sol:BusinessConsensus3",
						"label": "voter_maps",
						"offset": 0,
						"slot": "12",
						"type": "t_mapping(t_bytes32,t_mapping(t_address,t_struct(Voter)8_storage))"
					},
					{
						"astId": 69,
						"contract": "contracts/BusinessConsensus3.sol:BusinessConsensus3",
						"label": "Voters",
						"offset": 0,
						"slot": "13",
						"type": "t_mapping(t_bytes32,t_array(t_struct(Voter)8_storage)dyn_storage)"
					},
					{
						"astId": 74,
						"contract": "contracts/BusinessConsensus3.sol:BusinessConsensus3",
						"label": "keys",
						"offset": 0,
						"slot": "14",
						"type": "t_mapping(t_bytes32,t_array(t_address)dyn_storage)"
					}
				],
				"types": {
					"t_address": {
						"encoding": "inplace",
						"label": "address",
						"numberOfBytes": "20"
					},
					"t_array(t_address)dyn_storage": {
						"base": "t_address",
						"encoding": "dynamic_array",
						"label": "address[]",
						"numberOfBytes": "32"
					},
					"t_array(t_struct(Voter)8_storage)dyn_storage": {
						"base": "t_struct(Voter)8_storage",
						"encoding": "dynamic_array",
						"label": "struct BusinessConsensus3.Voter[]",
						"numberOfBytes": "32"
					},
					"t_bool": {
						"encoding": "inplace",
						"label": "bool",
						"numberOfBytes": "1"
					},
					"t_bytes32": {
						"encoding": "inplace",
						"label": "bytes32",
						"numberOfBytes": "32"
					},
					"t_mapping(t_address,t_struct(Voter)8_storage)": {
						"encoding": "mapping",
						"key": "t_address",
						"label": "mapping(address => struct BusinessConsensus3.Voter)",
						"numberOfBytes": "32",
						"value": "t_struct(Voter)8_storage"
					},
					"t_mapping(t_bytes32,t_address)": {
						"encoding": "mapping",
						"key": "t_bytes32",
						"label": "mapping(bytes32 => address)",
						"numberOfBytes": "32",
						"value": "t_address"
					},
					"t_mapping(t_bytes32,t_array(t_address)dyn_storage)": {
						"encoding": "mapping",
						"key": "t_bytes32",
						"label": "mapping(bytes32 => address[])",
						"numberOfBytes": "32",
						"value": "t_array(t_address)dyn_storage"
					},
					"t_mapping(t_bytes32,t_array(t_struct(Voter)8_storage)dyn_storage)": {
						"encoding": "mapping",
						"key": "t_bytes32",
						"label": "mapping(bytes32 => struct BusinessConsensus3.Voter[])",
						"numberOfBytes": "32",
						"value": "t_array(t_struct(Voter)8_storage)dyn_storage"
					},
					"t_mapping(t_bytes32,t_bool)": {
						"encoding": "mapping",
						"key": "t_bytes32",
						"label": "mapping(bytes32 => bool)",
						"numberOfBytes": "32",
						"value": "t_bool"
					},
					"t_mapping(t_bytes32,t_bytes32)": {
						"encoding": "mapping",
						"key": "t_bytes32",
						"label": "mapping(bytes32 => bytes32)",
						"numberOfBytes": "32",
						"value": "t_bytes32"
					},
					"t_mapping(t_bytes32,t_mapping(t_address,t_struct(Voter)8_storage))": {
						"encoding": "mapping",
						"key": "t_bytes32",
						"label": "mapping(bytes32 => mapping(address => struct BusinessConsensus3.Voter))",
						"numberOfBytes": "32",
						"value": "t_mapping(t_address,t_struct(Voter)8_storage)"
					},
					"t_mapping(t_bytes32,t_string_storage)": {
						"encoding": "mapping",
						"key": "t_bytes32",
						"label": "mapping(bytes32 => string)",
						"numberOfBytes": "32",
						"value": "t_string_storage"
					},
					"t_mapping(t_bytes32,t_uint256)": {
						"encoding": "mapping",
						"key": "t_bytes32",
						"label": "mapping(bytes32 => uint256)",
						"numberOfBytes": "32",
						"value": "t_uint256"
					},
					"t_string_storage": {
						"encoding": "bytes",
						"label": "string",
						"numberOfBytes": "32"
					},
					"t_struct(Voter)8_storage": {
						"encoding": "inplace",
						"label": "struct BusinessConsensus3.Voter",
						"members": [
							{
								"astId": 3,
								"contract": "contracts/BusinessConsensus3.sol:BusinessConsensus3",
								"label": "voted",
								"offset": 0,
								"slot": "0",
								"type": "t_bool"
							},
							{
								"astId": 5,
								"contract": "contracts/BusinessConsensus3.sol:BusinessConsensus3",
								"label": "vote",
								"offset": 1,
								"slot": "0",
								"type": "t_bool"
							},
							{
								"astId": 7,
								"contract": "contracts/BusinessConsensus3.sol:BusinessConsensus3",
								"label": "recipient",
								"offset": 2,
								"slot": "0",
								"type": "t_address"
							}
						],
						"numberOfBytes": "32"
					},
					"t_uint256": {
						"encoding": "inplace",
						"label": "uint256",
						"numberOfBytes": "32"
					}
				}
			},
			"userdoc": {
				"kind": "user",
				"methods": {
					"Consensus(bytes32)": {
						"notice": "compile all relevant information into a Bundle"
					}
				},
				"version": 1
			}
		}
	}
}