{
	"contracts/BusinessConsensus.sol": {
		"BusinessConsensus": {
			"abi": [
				{
					"inputs": [
						{
							"internalType": "string",
							"name": "_messageID",
							"type": "string"
						},
						{
							"internalType": "uint256",
							"name": "expiry",
							"type": "uint256"
						},
						{
							"internalType": "uint256",
							"name": "requiredPercentage",
							"type": "uint256"
						}
					],
					"stateMutability": "nonpayable",
					"type": "constructor"
				},
				{
					"anonymous": false,
					"inputs": [],
					"name": "votingCompleted",
					"type": "event"
				},
				{
					"inputs": [],
					"name": "AccumulatedPercentage",
					"outputs": [
						{
							"internalType": "uint256",
							"name": "",
							"type": "uint256"
						}
					],
					"stateMutability": "view",
					"type": "function"
				},
				{
					"inputs": [],
					"name": "Bundle",
					"outputs": [
						{
							"internalType": "string",
							"name": "",
							"type": "string"
						},
						{
							"components": [
								{
									"internalType": "uint256",
									"name": "voteCount",
									"type": "uint256"
								},
								{
									"internalType": "string",
									"name": "messageID",
									"type": "string"
								}
							],
							"internalType": "struct BusinessConsensus.Proposal",
							"name": "",
							"type": "tuple"
						},
						{
							"components": [
								{
									"internalType": "bool",
									"name": "voted",
									"type": "bool"
								},
								{
									"internalType": "address",
									"name": "recipient",
									"type": "address"
								},
								{
									"internalType": "bool",
									"name": "vote",
									"type": "bool"
								}
							],
							"internalType": "struct BusinessConsensus.Voter[]",
							"name": "",
							"type": "tuple[]"
						}
					],
					"stateMutability": "view",
					"type": "function"
				},
				{
					"inputs": [],
					"name": "BusinessRequirement",
					"outputs": [
						{
							"internalType": "uint256",
							"name": "",
							"type": "uint256"
						}
					],
					"stateMutability": "view",
					"type": "function"
				},
				{
					"inputs": [],
					"name": "Consensus",
					"outputs": [],
					"stateMutability": "nonpayable",
					"type": "function"
				},
				{
					"inputs": [
						{
							"internalType": "address",
							"name": "voter",
							"type": "address"
						}
					],
					"name": "RegisterVoter",
					"outputs": [],
					"stateMutability": "nonpayable",
					"type": "function"
				},
				{
					"inputs": [
						{
							"internalType": "string",
							"name": "response",
							"type": "string"
						}
					],
					"name": "Vote",
					"outputs": [],
					"stateMutability": "nonpayable",
					"type": "function"
				},
				{
					"inputs": [],
					"name": "contractAddress",
					"outputs": [
						{
							"internalType": "address",
							"name": "",
							"type": "address"
						}
					],
					"stateMutability": "view",
					"type": "function"
				},
				{
					"inputs": [
						{
							"internalType": "address",
							"name": "test_address",
							"type": "address"
						}
					],
					"name": "getParameters",
					"outputs": [
						{
							"internalType": "string",
							"name": "",
							"type": "string"
						},
						{
							"internalType": "uint256",
							"name": "",
							"type": "uint256"
						},
						{
							"internalType": "address",
							"name": "",
							"type": "address"
						},
						{
							"internalType": "uint256",
							"name": "",
							"type": "uint256"
						},
						{
							"internalType": "uint256",
							"name": "",
							"type": "uint256"
						}
					],
					"stateMutability": "view",
					"type": "function"
				},
				{
					"inputs": [],
					"name": "getValues",
					"outputs": [
						{
							"internalType": "string",
							"name": "",
							"type": "string"
						}
					],
					"stateMutability": "view",
					"type": "function"
				},
				{
					"inputs": [
						{
							"internalType": "address",
							"name": "voter",
							"type": "address"
						}
					],
					"name": "getVote",
					"outputs": [
						{
							"internalType": "bool",
							"name": "",
							"type": "bool"
						}
					],
					"stateMutability": "view",
					"type": "function"
				},
				{
					"inputs": [
						{
							"internalType": "address",
							"name": "voter",
							"type": "address"
						}
					],
					"name": "getVoters",
					"outputs": [
						{
							"internalType": "bool",
							"name": "",
							"type": "bool"
						}
					],
					"stateMutability": "view",
					"type": "function"
				},
				{
					"inputs": [],
					"name": "initiator",
					"outputs": [
						{
							"internalType": "address",
							"name": "",
							"type": "address"
						}
					],
					"stateMutability": "view",
					"type": "function"
				},
				{
					"inputs": [
						{
							"internalType": "uint256",
							"name": "",
							"type": "uint256"
						}
					],
					"name": "keys",
					"outputs": [
						{
							"internalType": "address",
							"name": "",
							"type": "address"
						}
					],
					"stateMutability": "view",
					"type": "function"
				},
				{
					"inputs": [],
					"name": "numApprovals",
					"outputs": [
						{
							"internalType": "uint256",
							"name": "",
							"type": "uint256"
						}
					],
					"stateMutability": "view",
					"type": "function"
				},
				{
					"inputs": [],
					"name": "proposal",
					"outputs": [
						{
							"internalType": "uint256",
							"name": "voteCount",
							"type": "uint256"
						},
						{
							"internalType": "string",
							"name": "messageID",
							"type": "string"
						}
					],
					"stateMutability": "view",
					"type": "function"
				},
				{
					"inputs": [
						{
							"internalType": "uint256",
							"name": "",
							"type": "uint256"
						}
					],
					"name": "voters",
					"outputs": [
						{
							"internalType": "bool",
							"name": "voted",
							"type": "bool"
						},
						{
							"internalType": "address",
							"name": "recipient",
							"type": "address"
						},
						{
							"internalType": "bool",
							"name": "vote",
							"type": "bool"
						}
					],
					"stateMutability": "view",
					"type": "function"
				},
				{
					"inputs": [
						{
							"internalType": "address",
							"name": "",
							"type": "address"
						}
					],
					"name": "voters_map",
					"outputs": [
						{
							"internalType": "bool",
							"name": "voted",
							"type": "bool"
						},
						{
							"internalType": "address",
							"name": "recipient",
							"type": "address"
						},
						{
							"internalType": "bool",
							"name": "vote",
							"type": "bool"
						}
					],
					"stateMutability": "view",
					"type": "function"
				}
			],
			"devdoc": {
				"kind": "dev",
				"methods": {},
				"version": 1
			},
			"evm": {
				"assembly": "    /* \"contracts/BusinessConsensus.sol\":33:4802  contract BusinessConsensus{... */\n  mstore(0x40, 0x80)\n    /* \"contracts/BusinessConsensus.sol\":1217:1777  constructor(string memory _messageID, uint expiry, uint requiredPercentage) {... */\n  callvalue\n  dup1\n  iszero\n  tag_1\n  jumpi\n  0x00\n  dup1\n  revert\ntag_1:\n  pop\n  mload(0x40)\n  sub(codesize, bytecodeSize)\n  dup1\n  bytecodeSize\n  dup4\n  codecopy\n  dup2\n  dup2\n  add\n  0x40\n  mstore\n  dup2\n  add\n  swap1\n  tag_2\n  swap2\n  swap1\n  tag_3\n  jump\t// in\ntag_2:\n    /* \"contracts/BusinessConsensus.sol\":1316:1326  msg.sender */\n  caller\n    /* \"contracts/BusinessConsensus.sol\":1304:1313  initiator */\n  0x03\n  0x00\n    /* \"contracts/BusinessConsensus.sol\":1304:1326  initiator = msg.sender */\n  0x0100\n  exp\n  dup2\n  sload\n  dup2\n  0xffffffffffffffffffffffffffffffffffffffff\n  mul\n  not\n  and\n  swap1\n  dup4\n  0xffffffffffffffffffffffffffffffffffffffff\n  and\n  mul\n  or\n  swap1\n  sstore\n  pop\n    /* \"contracts/BusinessConsensus.sol\":1368:1374  expiry */\n  dup2\n    /* \"contracts/BusinessConsensus.sol\":1350:1365  block.timestamp */\n  timestamp\n    /* \"contracts/BusinessConsensus.sol\":1350:1374  block.timestamp + expiry */\n  tag_6\n  swap2\n  swap1\n  tag_7\n  jump\t// in\ntag_6:\n    /* \"contracts/BusinessConsensus.sol\":1337:1347  expiryDate */\n  0x01\n    /* \"contracts/BusinessConsensus.sol\":1337:1374  expiryDate = block.timestamp + expiry */\n  dup2\n  swap1\n  sstore\n  pop\n    /* \"contracts/BusinessConsensus.sol\":1407:1425  requiredPercentage */\n  dup1\n    /* \"contracts/BusinessConsensus.sol\":1385:1404  BusinessRequirement */\n  0x04\n    /* \"contracts/BusinessConsensus.sol\":1385:1425  BusinessRequirement = requiredPercentage */\n  dup2\n  swap1\n  sstore\n  pop\n    /* \"contracts/BusinessConsensus.sol\":1460:1461  0 */\n  0x00\n    /* \"contracts/BusinessConsensus.sol\":1436:1457  AccumulatedPercentage */\n  0x05\n    /* \"contracts/BusinessConsensus.sol\":1436:1461  AccumulatedPercentage = 0 */\n  dup2\n  swap1\n  sstore\n  pop\n    /* \"contracts/BusinessConsensus.sol\":1487:1488  0 */\n  0x00\n    /* \"contracts/BusinessConsensus.sol\":1472:1484  numApprovals */\n  0x06\n    /* \"contracts/BusinessConsensus.sol\":1472:1488  numApprovals = 0 */\n  dup2\n  swap1\n  sstore\n  pop\n    /* \"contracts/BusinessConsensus.sol\":1499:1524  finalVerdict = \"Rejected\" */\n  mload(0x40)\n  dup1\n  0x40\n  add\n  0x40\n  mstore\n  dup1\n  0x08\n  dup2\n  mstore\n  0x20\n  add\n  0x52656a6563746564000000000000000000000000000000000000000000000000\n  dup2\n  mstore\n  pop\n    /* \"contracts/BusinessConsensus.sol\":1499:1511  finalVerdict */\n  0x02\n    /* \"contracts/BusinessConsensus.sol\":1499:1524  finalVerdict = \"Rejected\" */\n  swap1\n  dup2\n  tag_8\n  swap2\n  swap1\n  tag_9\n  jump\t// in\ntag_8:\n  pop\n    /* \"contracts/BusinessConsensus.sol\":1561:1565  this */\n  address\n    /* \"contracts/BusinessConsensus.sol\":1535:1550  contractAddress */\n  0x00\n  dup1\n    /* \"contracts/BusinessConsensus.sol\":1535:1566  contractAddress = address(this) */\n  0x0100\n  exp\n  dup2\n  sload\n  dup2\n  0xffffffffffffffffffffffffffffffffffffffff\n  mul\n  not\n  and\n  swap1\n  dup4\n  0xffffffffffffffffffffffffffffffffffffffff\n  and\n  mul\n  or\n  swap1\n  sstore\n  pop\n    /* \"contracts/BusinessConsensus.sol\":1673:1769  Proposal({... */\n  mload(0x40)\n  dup1\n  0x40\n  add\n  0x40\n  mstore\n  dup1\n    /* \"contracts/BusinessConsensus.sol\":1712:1713  0 */\n  0x00\n    /* \"contracts/BusinessConsensus.sol\":1673:1769  Proposal({... */\n  dup2\n  mstore\n  0x20\n  add\n    /* \"contracts/BusinessConsensus.sol\":1743:1753  _messageID */\n  dup5\n    /* \"contracts/BusinessConsensus.sol\":1673:1769  Proposal({... */\n  dup2\n  mstore\n  pop\n    /* \"contracts/BusinessConsensus.sol\":1662:1670  proposal */\n  0x0a\n    /* \"contracts/BusinessConsensus.sol\":1662:1769  proposal = Proposal({... */\n  0x00\n  dup3\n  add\n  mload\n  dup2\n  0x00\n  add\n  sstore\n  0x20\n  dup3\n  add\n  mload\n  dup2\n  0x01\n  add\n  swap1\n  dup2\n  tag_10\n  swap2\n  swap1\n  tag_9\n  jump\t// in\ntag_10:\n  pop\n  swap1\n  pop\n  pop\n    /* \"contracts/BusinessConsensus.sol\":1217:1777  constructor(string memory _messageID, uint expiry, uint requiredPercentage) {... */\n  pop\n  pop\n  pop\n    /* \"contracts/BusinessConsensus.sol\":33:4802  contract BusinessConsensus{... */\n  jump(tag_11)\n    /* \"#utility.yul\":7:82   */\ntag_12:\n    /* \"#utility.yul\":40:46   */\n  0x00\n    /* \"#utility.yul\":73:75   */\n  0x40\n    /* \"#utility.yul\":67:76   */\n  mload\n    /* \"#utility.yul\":57:76   */\n  swap1\n  pop\n    /* \"#utility.yul\":7:82   */\n  swap1\n  jump\t// out\n    /* \"#utility.yul\":88:205   */\ntag_13:\n    /* \"#utility.yul\":197:198   */\n  0x00\n    /* \"#utility.yul\":194:195   */\n  dup1\n    /* \"#utility.yul\":187:199   */\n  revert\n    /* \"#utility.yul\":211:328   */\ntag_14:\n    /* \"#utility.yul\":320:321   */\n  0x00\n    /* \"#utility.yul\":317:318   */\n  dup1\n    /* \"#utility.yul\":310:322   */\n  revert\n    /* \"#utility.yul\":334:451   */\ntag_15:\n    /* \"#utility.yul\":443:444   */\n  0x00\n    /* \"#utility.yul\":440:441   */\n  dup1\n    /* \"#utility.yul\":433:445   */\n  revert\n    /* \"#utility.yul\":457:574   */\ntag_16:\n    /* \"#utility.yul\":566:567   */\n  0x00\n    /* \"#utility.yul\":563:564   */\n  dup1\n    /* \"#utility.yul\":556:568   */\n  revert\n    /* \"#utility.yul\":580:682   */\ntag_17:\n    /* \"#utility.yul\":621:627   */\n  0x00\n    /* \"#utility.yul\":672:674   */\n  0x1f\n    /* \"#utility.yul\":668:675   */\n  not\n    /* \"#utility.yul\":663:665   */\n  0x1f\n    /* \"#utility.yul\":656:661   */\n  dup4\n    /* \"#utility.yul\":652:666   */\n  add\n    /* \"#utility.yul\":648:676   */\n  and\n    /* \"#utility.yul\":638:676   */\n  swap1\n  pop\n    /* \"#utility.yul\":580:682   */\n  swap2\n  swap1\n  pop\n  jump\t// out\n    /* \"#utility.yul\":688:868   */\ntag_18:\n    /* \"#utility.yul\":736:813   */\n  0x4e487b7100000000000000000000000000000000000000000000000000000000\n    /* \"#utility.yul\":733:734   */\n  0x00\n    /* \"#utility.yul\":726:814   */\n  mstore\n    /* \"#utility.yul\":833:837   */\n  0x41\n    /* \"#utility.yul\":830:831   */\n  0x04\n    /* \"#utility.yul\":823:838   */\n  mstore\n    /* \"#utility.yul\":857:861   */\n  0x24\n    /* \"#utility.yul\":854:855   */\n  0x00\n    /* \"#utility.yul\":847:862   */\n  revert\n    /* \"#utility.yul\":874:1155   */\ntag_19:\n    /* \"#utility.yul\":957:984   */\n  tag_56\n    /* \"#utility.yul\":979:983   */\n  dup3\n    /* \"#utility.yul\":957:984   */\n  tag_17\n  jump\t// in\ntag_56:\n    /* \"#utility.yul\":949:955   */\n  dup2\n    /* \"#utility.yul\":945:985   */\n  add\n    /* \"#utility.yul\":1087:1093   */\n  dup2\n    /* \"#utility.yul\":1075:1085   */\n  dup2\n    /* \"#utility.yul\":1072:1094   */\n  lt\n    /* \"#utility.yul\":1051:1069   */\n  0xffffffffffffffff\n    /* \"#utility.yul\":1039:1049   */\n  dup3\n    /* \"#utility.yul\":1036:1070   */\n  gt\n    /* \"#utility.yul\":1033:1095   */\n  or\n    /* \"#utility.yul\":1030:1118   */\n  iszero\n  tag_57\n  jumpi\n    /* \"#utility.yul\":1098:1116   */\n  tag_58\n  tag_18\n  jump\t// in\ntag_58:\n    /* \"#utility.yul\":1030:1118   */\ntag_57:\n    /* \"#utility.yul\":1138:1148   */\n  dup1\n    /* \"#utility.yul\":1134:1136   */\n  0x40\n    /* \"#utility.yul\":1127:1149   */\n  mstore\n    /* \"#utility.yul\":917:1155   */\n  pop\n    /* \"#utility.yul\":874:1155   */\n  pop\n  pop\n  jump\t// out\n    /* \"#utility.yul\":1161:1290   */\ntag_20:\n    /* \"#utility.yul\":1195:1201   */\n  0x00\n    /* \"#utility.yul\":1222:1242   */\n  tag_60\n  tag_12\n  jump\t// in\ntag_60:\n    /* \"#utility.yul\":1212:1242   */\n  swap1\n  pop\n    /* \"#utility.yul\":1251:1284   */\n  tag_61\n    /* \"#utility.yul\":1279:1283   */\n  dup3\n    /* \"#utility.yul\":1271:1277   */\n  dup3\n    /* \"#utility.yul\":1251:1284   */\n  tag_19\n  jump\t// in\ntag_61:\n    /* \"#utility.yul\":1161:1290   */\n  swap2\n  swap1\n  pop\n  jump\t// out\n    /* \"#utility.yul\":1296:1604   */\ntag_21:\n    /* \"#utility.yul\":1358:1362   */\n  0x00\n    /* \"#utility.yul\":1448:1466   */\n  0xffffffffffffffff\n    /* \"#utility.yul\":1440:1446   */\n  dup3\n    /* \"#utility.yul\":1437:1467   */\n  gt\n    /* \"#utility.yul\":1434:1490   */\n  iszero\n  tag_63\n  jumpi\n    /* \"#utility.yul\":1470:1488   */\n  tag_64\n  tag_18\n  jump\t// in\ntag_64:\n    /* \"#utility.yul\":1434:1490   */\ntag_63:\n    /* \"#utility.yul\":1508:1537   */\n  tag_65\n    /* \"#utility.yul\":1530:1536   */\n  dup3\n    /* \"#utility.yul\":1508:1537   */\n  tag_17\n  jump\t// in\ntag_65:\n    /* \"#utility.yul\":1500:1537   */\n  swap1\n  pop\n    /* \"#utility.yul\":1592:1596   */\n  0x20\n    /* \"#utility.yul\":1586:1590   */\n  dup2\n    /* \"#utility.yul\":1582:1597   */\n  add\n    /* \"#utility.yul\":1574:1597   */\n  swap1\n  pop\n    /* \"#utility.yul\":1296:1604   */\n  swap2\n  swap1\n  pop\n  jump\t// out\n    /* \"#utility.yul\":1610:1917   */\ntag_22:\n    /* \"#utility.yul\":1678:1679   */\n  0x00\n    /* \"#utility.yul\":1688:1801   */\ntag_67:\n    /* \"#utility.yul\":1702:1708   */\n  dup4\n    /* \"#utility.yul\":1699:1700   */\n  dup2\n    /* \"#utility.yul\":1696:1709   */\n  lt\n    /* \"#utility.yul\":1688:1801   */\n  iszero\n  tag_69\n  jumpi\n    /* \"#utility.yul\":1787:1788   */\n  dup1\n    /* \"#utility.yul\":1782:1785   */\n  dup3\n    /* \"#utility.yul\":1778:1789   */\n  add\n    /* \"#utility.yul\":1772:1790   */\n  mload\n    /* \"#utility.yul\":1768:1769   */\n  dup2\n    /* \"#utility.yul\":1763:1766   */\n  dup5\n    /* \"#utility.yul\":1759:1770   */\n  add\n    /* \"#utility.yul\":1752:1791   */\n  mstore\n    /* \"#utility.yul\":1724:1726   */\n  0x20\n    /* \"#utility.yul\":1721:1722   */\n  dup2\n    /* \"#utility.yul\":1717:1727   */\n  add\n    /* \"#utility.yul\":1712:1727   */\n  swap1\n  pop\n    /* \"#utility.yul\":1688:1801   */\n  jump(tag_67)\ntag_69:\n    /* \"#utility.yul\":1819:1825   */\n  dup4\n    /* \"#utility.yul\":1816:1817   */\n  dup2\n    /* \"#utility.yul\":1813:1826   */\n  gt\n    /* \"#utility.yul\":1810:1911   */\n  iszero\n  tag_70\n  jumpi\n    /* \"#utility.yul\":1899:1900   */\n  0x00\n    /* \"#utility.yul\":1890:1896   */\n  dup5\n    /* \"#utility.yul\":1885:1888   */\n  dup5\n    /* \"#utility.yul\":1881:1897   */\n  add\n    /* \"#utility.yul\":1874:1901   */\n  mstore\n    /* \"#utility.yul\":1810:1911   */\ntag_70:\n    /* \"#utility.yul\":1659:1917   */\n  pop\n    /* \"#utility.yul\":1610:1917   */\n  pop\n  pop\n  pop\n  jump\t// out\n    /* \"#utility.yul\":1923:2344   */\ntag_23:\n    /* \"#utility.yul\":2012:2017   */\n  0x00\n    /* \"#utility.yul\":2037:2103   */\n  tag_72\n    /* \"#utility.yul\":2053:2102   */\n  tag_73\n    /* \"#utility.yul\":2095:2101   */\n  dup5\n    /* \"#utility.yul\":2053:2102   */\n  tag_21\n  jump\t// in\ntag_73:\n    /* \"#utility.yul\":2037:2103   */\n  tag_20\n  jump\t// in\ntag_72:\n    /* \"#utility.yul\":2028:2103   */\n  swap1\n  pop\n    /* \"#utility.yul\":2126:2132   */\n  dup3\n    /* \"#utility.yul\":2119:2124   */\n  dup2\n    /* \"#utility.yul\":2112:2133   */\n  mstore\n    /* \"#utility.yul\":2164:2168   */\n  0x20\n    /* \"#utility.yul\":2157:2162   */\n  dup2\n    /* \"#utility.yul\":2153:2169   */\n  add\n    /* \"#utility.yul\":2202:2205   */\n  dup5\n    /* \"#utility.yul\":2193:2199   */\n  dup5\n    /* \"#utility.yul\":2188:2191   */\n  dup5\n    /* \"#utility.yul\":2184:2200   */\n  add\n    /* \"#utility.yul\":2181:2206   */\n  gt\n    /* \"#utility.yul\":2178:2290   */\n  iszero\n  tag_74\n  jumpi\n    /* \"#utility.yul\":2209:2288   */\n  tag_75\n  tag_16\n  jump\t// in\ntag_75:\n    /* \"#utility.yul\":2178:2290   */\ntag_74:\n    /* \"#utility.yul\":2299:2338   */\n  tag_76\n    /* \"#utility.yul\":2331:2337   */\n  dup5\n    /* \"#utility.yul\":2326:2329   */\n  dup3\n    /* \"#utility.yul\":2321:2324   */\n  dup6\n    /* \"#utility.yul\":2299:2338   */\n  tag_22\n  jump\t// in\ntag_76:\n    /* \"#utility.yul\":2018:2344   */\n  pop\n    /* \"#utility.yul\":1923:2344   */\n  swap4\n  swap3\n  pop\n  pop\n  pop\n  jump\t// out\n    /* \"#utility.yul\":2364:2719   */\ntag_24:\n    /* \"#utility.yul\":2431:2436   */\n  0x00\n    /* \"#utility.yul\":2480:2483   */\n  dup3\n    /* \"#utility.yul\":2473:2477   */\n  0x1f\n    /* \"#utility.yul\":2465:2471   */\n  dup4\n    /* \"#utility.yul\":2461:2478   */\n  add\n    /* \"#utility.yul\":2457:2484   */\n  slt\n    /* \"#utility.yul\":2447:2569   */\n  tag_78\n  jumpi\n    /* \"#utility.yul\":2488:2567   */\n  tag_79\n  tag_15\n  jump\t// in\ntag_79:\n    /* \"#utility.yul\":2447:2569   */\ntag_78:\n    /* \"#utility.yul\":2598:2604   */\n  dup2\n    /* \"#utility.yul\":2592:2605   */\n  mload\n    /* \"#utility.yul\":2623:2713   */\n  tag_80\n    /* \"#utility.yul\":2709:2712   */\n  dup5\n    /* \"#utility.yul\":2701:2707   */\n  dup3\n    /* \"#utility.yul\":2694:2698   */\n  0x20\n    /* \"#utility.yul\":2686:2692   */\n  dup7\n    /* \"#utility.yul\":2682:2699   */\n  add\n    /* \"#utility.yul\":2623:2713   */\n  tag_23\n  jump\t// in\ntag_80:\n    /* \"#utility.yul\":2614:2713   */\n  swap2\n  pop\n    /* \"#utility.yul\":2437:2719   */\n  pop\n    /* \"#utility.yul\":2364:2719   */\n  swap3\n  swap2\n  pop\n  pop\n  jump\t// out\n    /* \"#utility.yul\":2725:2802   */\ntag_25:\n    /* \"#utility.yul\":2762:2769   */\n  0x00\n    /* \"#utility.yul\":2791:2796   */\n  dup2\n    /* \"#utility.yul\":2780:2796   */\n  swap1\n  pop\n    /* \"#utility.yul\":2725:2802   */\n  swap2\n  swap1\n  pop\n  jump\t// out\n    /* \"#utility.yul\":2808:2930   */\ntag_26:\n    /* \"#utility.yul\":2881:2905   */\n  tag_83\n    /* \"#utility.yul\":2899:2904   */\n  dup2\n    /* \"#utility.yul\":2881:2905   */\n  tag_25\n  jump\t// in\ntag_83:\n    /* \"#utility.yul\":2874:2879   */\n  dup2\n    /* \"#utility.yul\":2871:2906   */\n  eq\n    /* \"#utility.yul\":2861:2924   */\n  tag_84\n  jumpi\n    /* \"#utility.yul\":2920:2921   */\n  0x00\n    /* \"#utility.yul\":2917:2918   */\n  dup1\n    /* \"#utility.yul\":2910:2922   */\n  revert\n    /* \"#utility.yul\":2861:2924   */\ntag_84:\n    /* \"#utility.yul\":2808:2930   */\n  pop\n  jump\t// out\n    /* \"#utility.yul\":2936:3079   */\ntag_27:\n    /* \"#utility.yul\":2993:2998   */\n  0x00\n    /* \"#utility.yul\":3024:3030   */\n  dup2\n    /* \"#utility.yul\":3018:3031   */\n  mload\n    /* \"#utility.yul\":3009:3031   */\n  swap1\n  pop\n    /* \"#utility.yul\":3040:3073   */\n  tag_86\n    /* \"#utility.yul\":3067:3072   */\n  dup2\n    /* \"#utility.yul\":3040:3073   */\n  tag_26\n  jump\t// in\ntag_86:\n    /* \"#utility.yul\":2936:3079   */\n  swap3\n  swap2\n  pop\n  pop\n  jump\t// out\n    /* \"#utility.yul\":3085:3921   */\ntag_3:\n    /* \"#utility.yul\":3183:3189   */\n  0x00\n    /* \"#utility.yul\":3191:3197   */\n  dup1\n    /* \"#utility.yul\":3199:3205   */\n  0x00\n    /* \"#utility.yul\":3248:3250   */\n  0x60\n    /* \"#utility.yul\":3236:3245   */\n  dup5\n    /* \"#utility.yul\":3227:3234   */\n  dup7\n    /* \"#utility.yul\":3223:3246   */\n  sub\n    /* \"#utility.yul\":3219:3251   */\n  slt\n    /* \"#utility.yul\":3216:3335   */\n  iszero\n  tag_88\n  jumpi\n    /* \"#utility.yul\":3254:3333   */\n  tag_89\n  tag_13\n  jump\t// in\ntag_89:\n    /* \"#utility.yul\":3216:3335   */\ntag_88:\n    /* \"#utility.yul\":3395:3396   */\n  0x00\n    /* \"#utility.yul\":3384:3393   */\n  dup5\n    /* \"#utility.yul\":3380:3397   */\n  add\n    /* \"#utility.yul\":3374:3398   */\n  mload\n    /* \"#utility.yul\":3425:3443   */\n  0xffffffffffffffff\n    /* \"#utility.yul\":3417:3423   */\n  dup2\n    /* \"#utility.yul\":3414:3444   */\n  gt\n    /* \"#utility.yul\":3411:3528   */\n  iszero\n  tag_90\n  jumpi\n    /* \"#utility.yul\":3447:3526   */\n  tag_91\n  tag_14\n  jump\t// in\ntag_91:\n    /* \"#utility.yul\":3411:3528   */\ntag_90:\n    /* \"#utility.yul\":3552:3626   */\n  tag_92\n    /* \"#utility.yul\":3618:3625   */\n  dup7\n    /* \"#utility.yul\":3609:3615   */\n  dup3\n    /* \"#utility.yul\":3598:3607   */\n  dup8\n    /* \"#utility.yul\":3594:3616   */\n  add\n    /* \"#utility.yul\":3552:3626   */\n  tag_24\n  jump\t// in\ntag_92:\n    /* \"#utility.yul\":3542:3626   */\n  swap4\n  pop\n    /* \"#utility.yul\":3345:3636   */\n  pop\n    /* \"#utility.yul\":3675:3677   */\n  0x20\n    /* \"#utility.yul\":3701:3765   */\n  tag_93\n    /* \"#utility.yul\":3757:3764   */\n  dup7\n    /* \"#utility.yul\":3748:3754   */\n  dup3\n    /* \"#utility.yul\":3737:3746   */\n  dup8\n    /* \"#utility.yul\":3733:3755   */\n  add\n    /* \"#utility.yul\":3701:3765   */\n  tag_27\n  jump\t// in\ntag_93:\n    /* \"#utility.yul\":3691:3765   */\n  swap3\n  pop\n    /* \"#utility.yul\":3646:3775   */\n  pop\n    /* \"#utility.yul\":3814:3816   */\n  0x40\n    /* \"#utility.yul\":3840:3904   */\n  tag_94\n    /* \"#utility.yul\":3896:3903   */\n  dup7\n    /* \"#utility.yul\":3887:3893   */\n  dup3\n    /* \"#utility.yul\":3876:3885   */\n  dup8\n    /* \"#utility.yul\":3872:3894   */\n  add\n    /* \"#utility.yul\":3840:3904   */\n  tag_27\n  jump\t// in\ntag_94:\n    /* \"#utility.yul\":3830:3904   */\n  swap2\n  pop\n    /* \"#utility.yul\":3785:3914   */\n  pop\n    /* \"#utility.yul\":3085:3921   */\n  swap3\n  pop\n  swap3\n  pop\n  swap3\n  jump\t// out\n    /* \"#utility.yul\":3927:4107   */\ntag_28:\n    /* \"#utility.yul\":3975:4052   */\n  0x4e487b7100000000000000000000000000000000000000000000000000000000\n    /* \"#utility.yul\":3972:3973   */\n  0x00\n    /* \"#utility.yul\":3965:4053   */\n  mstore\n    /* \"#utility.yul\":4072:4076   */\n  0x11\n    /* \"#utility.yul\":4069:4070   */\n  0x04\n    /* \"#utility.yul\":4062:4077   */\n  mstore\n    /* \"#utility.yul\":4096:4100   */\n  0x24\n    /* \"#utility.yul\":4093:4094   */\n  0x00\n    /* \"#utility.yul\":4086:4101   */\n  revert\n    /* \"#utility.yul\":4113:4418   */\ntag_7:\n    /* \"#utility.yul\":4153:4156   */\n  0x00\n    /* \"#utility.yul\":4172:4192   */\n  tag_97\n    /* \"#utility.yul\":4190:4191   */\n  dup3\n    /* \"#utility.yul\":4172:4192   */\n  tag_25\n  jump\t// in\ntag_97:\n    /* \"#utility.yul\":4167:4192   */\n  swap2\n  pop\n    /* \"#utility.yul\":4206:4226   */\n  tag_98\n    /* \"#utility.yul\":4224:4225   */\n  dup4\n    /* \"#utility.yul\":4206:4226   */\n  tag_25\n  jump\t// in\ntag_98:\n    /* \"#utility.yul\":4201:4226   */\n  swap3\n  pop\n    /* \"#utility.yul\":4360:4361   */\n  dup3\n    /* \"#utility.yul\":4292:4358   */\n  0xffffffffffffffffffffffffffffffffffffffffffffffffffffffffffffffff\n    /* \"#utility.yul\":4288:4362   */\n  sub\n    /* \"#utility.yul\":4285:4286   */\n  dup3\n    /* \"#utility.yul\":4282:4363   */\n  gt\n    /* \"#utility.yul\":4279:4386   */\n  iszero\n  tag_99\n  jumpi\n    /* \"#utility.yul\":4366:4384   */\n  tag_100\n  tag_28\n  jump\t// in\ntag_100:\n    /* \"#utility.yul\":4279:4386   */\ntag_99:\n    /* \"#utility.yul\":4410:4411   */\n  dup3\n    /* \"#utility.yul\":4407:4408   */\n  dup3\n    /* \"#utility.yul\":4403:4412   */\n  add\n    /* \"#utility.yul\":4396:4412   */\n  swap1\n  pop\n    /* \"#utility.yul\":4113:4418   */\n  swap3\n  swap2\n  pop\n  pop\n  jump\t// out\n    /* \"#utility.yul\":4424:4523   */\ntag_29:\n    /* \"#utility.yul\":4476:4482   */\n  0x00\n    /* \"#utility.yul\":4510:4515   */\n  dup2\n    /* \"#utility.yul\":4504:4516   */\n  mload\n    /* \"#utility.yul\":4494:4516   */\n  swap1\n  pop\n    /* \"#utility.yul\":4424:4523   */\n  swap2\n  swap1\n  pop\n  jump\t// out\n    /* \"#utility.yul\":4529:4709   */\ntag_30:\n    /* \"#utility.yul\":4577:4654   */\n  0x4e487b7100000000000000000000000000000000000000000000000000000000\n    /* \"#utility.yul\":4574:4575   */\n  0x00\n    /* \"#utility.yul\":4567:4655   */\n  mstore\n    /* \"#utility.yul\":4674:4678   */\n  0x22\n    /* \"#utility.yul\":4671:4672   */\n  0x04\n    /* \"#utility.yul\":4664:4679   */\n  mstore\n    /* \"#utility.yul\":4698:4702   */\n  0x24\n    /* \"#utility.yul\":4695:4696   */\n  0x00\n    /* \"#utility.yul\":4688:4703   */\n  revert\n    /* \"#utility.yul\":4715:5035   */\ntag_31:\n    /* \"#utility.yul\":4759:4765   */\n  0x00\n    /* \"#utility.yul\":4796:4797   */\n  0x02\n    /* \"#utility.yul\":4790:4794   */\n  dup3\n    /* \"#utility.yul\":4786:4798   */\n  div\n    /* \"#utility.yul\":4776:4798   */\n  swap1\n  pop\n    /* \"#utility.yul\":4843:4844   */\n  0x01\n    /* \"#utility.yul\":4837:4841   */\n  dup3\n    /* \"#utility.yul\":4833:4845   */\n  and\n    /* \"#utility.yul\":4864:4882   */\n  dup1\n    /* \"#utility.yul\":4854:4935   */\n  tag_104\n  jumpi\n    /* \"#utility.yul\":4920:4924   */\n  0x7f\n    /* \"#utility.yul\":4912:4918   */\n  dup3\n    /* \"#utility.yul\":4908:4925   */\n  and\n    /* \"#utility.yul\":4898:4925   */\n  swap2\n  pop\n    /* \"#utility.yul\":4854:4935   */\ntag_104:\n    /* \"#utility.yul\":4982:4984   */\n  0x20\n    /* \"#utility.yul\":4974:4980   */\n  dup3\n    /* \"#utility.yul\":4971:4985   */\n  lt\n    /* \"#utility.yul\":4951:4969   */\n  dup2\n    /* \"#utility.yul\":4948:4986   */\n  sub\n    /* \"#utility.yul\":4945:5029   */\n  tag_105\n  jumpi\n    /* \"#utility.yul\":5001:5019   */\n  tag_106\n  tag_30\n  jump\t// in\ntag_106:\n    /* \"#utility.yul\":4945:5029   */\ntag_105:\n    /* \"#utility.yul\":4766:5035   */\n  pop\n    /* \"#utility.yul\":4715:5035   */\n  swap2\n  swap1\n  pop\n  jump\t// out\n    /* \"#utility.yul\":5041:5182   */\ntag_32:\n    /* \"#utility.yul\":5090:5094   */\n  0x00\n    /* \"#utility.yul\":5113:5116   */\n  dup2\n    /* \"#utility.yul\":5105:5116   */\n  swap1\n  pop\n    /* \"#utility.yul\":5136:5139   */\n  dup2\n    /* \"#utility.yul\":5133:5134   */\n  0x00\n    /* \"#utility.yul\":5126:5140   */\n  mstore\n    /* \"#utility.yul\":5170:5174   */\n  0x20\n    /* \"#utility.yul\":5167:5168   */\n  0x00\n    /* \"#utility.yul\":5157:5175   */\n  keccak256\n    /* \"#utility.yul\":5149:5175   */\n  swap1\n  pop\n    /* \"#utility.yul\":5041:5182   */\n  swap2\n  swap1\n  pop\n  jump\t// out\n    /* \"#utility.yul\":5188:5281   */\ntag_33:\n    /* \"#utility.yul\":5225:5231   */\n  0x00\n    /* \"#utility.yul\":5272:5274   */\n  0x20\n    /* \"#utility.yul\":5267:5269   */\n  0x1f\n    /* \"#utility.yul\":5260:5265   */\n  dup4\n    /* \"#utility.yul\":5256:5270   */\n  add\n    /* \"#utility.yul\":5252:5275   */\n  div\n    /* \"#utility.yul\":5242:5275   */\n  swap1\n  pop\n    /* \"#utility.yul\":5188:5281   */\n  swap2\n  swap1\n  pop\n  jump\t// out\n    /* \"#utility.yul\":5287:5394   */\ntag_34:\n    /* \"#utility.yul\":5331:5339   */\n  0x00\n    /* \"#utility.yul\":5381:5386   */\n  dup3\n    /* \"#utility.yul\":5375:5379   */\n  dup3\n    /* \"#utility.yul\":5371:5387   */\n  shl\n    /* \"#utility.yul\":5350:5387   */\n  swap1\n  pop\n    /* \"#utility.yul\":5287:5394   */\n  swap3\n  swap2\n  pop\n  pop\n  jump\t// out\n    /* \"#utility.yul\":5400:5793   */\ntag_35:\n    /* \"#utility.yul\":5469:5475   */\n  0x00\n    /* \"#utility.yul\":5519:5520   */\n  0x08\n    /* \"#utility.yul\":5507:5517   */\n  dup4\n    /* \"#utility.yul\":5503:5521   */\n  mul\n    /* \"#utility.yul\":5542:5639   */\n  tag_111\n    /* \"#utility.yul\":5572:5638   */\n  0xffffffffffffffffffffffffffffffffffffffffffffffffffffffffffffffff\n    /* \"#utility.yul\":5561:5570   */\n  dup3\n    /* \"#utility.yul\":5542:5639   */\n  tag_34\n  jump\t// in\ntag_111:\n    /* \"#utility.yul\":5660:5699   */\n  tag_112\n    /* \"#utility.yul\":5690:5698   */\n  dup7\n    /* \"#utility.yul\":5679:5688   */\n  dup4\n    /* \"#utility.yul\":5660:5699   */\n  tag_34\n  jump\t// in\ntag_112:\n    /* \"#utility.yul\":5648:5699   */\n  swap6\n  pop\n    /* \"#utility.yul\":5732:5736   */\n  dup1\n    /* \"#utility.yul\":5728:5737   */\n  not\n    /* \"#utility.yul\":5721:5726   */\n  dup5\n    /* \"#utility.yul\":5717:5738   */\n  and\n    /* \"#utility.yul\":5708:5738   */\n  swap4\n  pop\n    /* \"#utility.yul\":5781:5785   */\n  dup1\n    /* \"#utility.yul\":5771:5779   */\n  dup7\n    /* \"#utility.yul\":5767:5786   */\n  and\n    /* \"#utility.yul\":5760:5765   */\n  dup5\n    /* \"#utility.yul\":5757:5787   */\n  or\n    /* \"#utility.yul\":5747:5787   */\n  swap3\n  pop\n    /* \"#utility.yul\":5476:5793   */\n  pop\n  pop\n    /* \"#utility.yul\":5400:5793   */\n  swap4\n  swap3\n  pop\n  pop\n  pop\n  jump\t// out\n    /* \"#utility.yul\":5799:5859   */\ntag_36:\n    /* \"#utility.yul\":5827:5830   */\n  0x00\n    /* \"#utility.yul\":5848:5853   */\n  dup2\n    /* \"#utility.yul\":5841:5853   */\n  swap1\n  pop\n    /* \"#utility.yul\":5799:5859   */\n  swap2\n  swap1\n  pop\n  jump\t// out\n    /* \"#utility.yul\":5865:6007   */\ntag_37:\n    /* \"#utility.yul\":5915:5924   */\n  0x00\n    /* \"#utility.yul\":5948:6001   */\n  tag_115\n    /* \"#utility.yul\":5966:6000   */\n  tag_116\n    /* \"#utility.yul\":5975:5999   */\n  tag_117\n    /* \"#utility.yul\":5993:5998   */\n  dup5\n    /* \"#utility.yul\":5975:5999   */\n  tag_25\n  jump\t// in\ntag_117:\n    /* \"#utility.yul\":5966:6000   */\n  tag_36\n  jump\t// in\ntag_116:\n    /* \"#utility.yul\":5948:6001   */\n  tag_25\n  jump\t// in\ntag_115:\n    /* \"#utility.yul\":5935:6001   */\n  swap1\n  pop\n    /* \"#utility.yul\":5865:6007   */\n  swap2\n  swap1\n  pop\n  jump\t// out\n    /* \"#utility.yul\":6013:6088   */\ntag_38:\n    /* \"#utility.yul\":6056:6059   */\n  0x00\n    /* \"#utility.yul\":6077:6082   */\n  dup2\n    /* \"#utility.yul\":6070:6082   */\n  swap1\n  pop\n    /* \"#utility.yul\":6013:6088   */\n  swap2\n  swap1\n  pop\n  jump\t// out\n    /* \"#utility.yul\":6094:6363   */\ntag_39:\n    /* \"#utility.yul\":6204:6243   */\n  tag_120\n    /* \"#utility.yul\":6235:6242   */\n  dup4\n    /* \"#utility.yul\":6204:6243   */\n  tag_37\n  jump\t// in\ntag_120:\n    /* \"#utility.yul\":6265:6356   */\n  tag_121\n    /* \"#utility.yul\":6314:6355   */\n  tag_122\n    /* \"#utility.yul\":6338:6354   */\n  dup3\n    /* \"#utility.yul\":6314:6355   */\n  tag_38\n  jump\t// in\ntag_122:\n    /* \"#utility.yul\":6306:6312   */\n  dup5\n    /* \"#utility.yul\":6299:6303   */\n  dup5\n    /* \"#utility.yul\":6293:6304   */\n  sload\n    /* \"#utility.yul\":6265:6356   */\n  tag_35\n  jump\t// in\ntag_121:\n    /* \"#utility.yul\":6259:6263   */\n  dup3\n    /* \"#utility.yul\":6252:6357   */\n  sstore\n    /* \"#utility.yul\":6170:6363   */\n  pop\n    /* \"#utility.yul\":6094:6363   */\n  pop\n  pop\n  pop\n  jump\t// out\n    /* \"#utility.yul\":6369:6442   */\ntag_40:\n    /* \"#utility.yul\":6414:6417   */\n  0x00\n    /* \"#utility.yul\":6369:6442   */\n  swap1\n  jump\t// out\n    /* \"#utility.yul\":6448:6637   */\ntag_41:\n    /* \"#utility.yul\":6525:6557   */\n  tag_125\n  tag_40\n  jump\t// in\ntag_125:\n    /* \"#utility.yul\":6566:6631   */\n  tag_126\n    /* \"#utility.yul\":6624:6630   */\n  dup2\n    /* \"#utility.yul\":6616:6622   */\n  dup5\n    /* \"#utility.yul\":6610:6614   */\n  dup5\n    /* \"#utility.yul\":6566:6631   */\n  tag_39\n  jump\t// in\ntag_126:\n    /* \"#utility.yul\":6501:6637   */\n  pop\n    /* \"#utility.yul\":6448:6637   */\n  pop\n  pop\n  jump\t// out\n    /* \"#utility.yul\":6643:6829   */\ntag_42:\n    /* \"#utility.yul\":6703:6823   */\ntag_128:\n    /* \"#utility.yul\":6720:6723   */\n  dup2\n    /* \"#utility.yul\":6713:6718   */\n  dup2\n    /* \"#utility.yul\":6710:6724   */\n  lt\n    /* \"#utility.yul\":6703:6823   */\n  iszero\n  tag_130\n  jumpi\n    /* \"#utility.yul\":6774:6813   */\n  tag_131\n    /* \"#utility.yul\":6811:6812   */\n  0x00\n    /* \"#utility.yul\":6804:6809   */\n  dup3\n    /* \"#utility.yul\":6774:6813   */\n  tag_41\n  jump\t// in\ntag_131:\n    /* \"#utility.yul\":6747:6748   */\n  0x01\n    /* \"#utility.yul\":6740:6745   */\n  dup2\n    /* \"#utility.yul\":6736:6749   */\n  add\n    /* \"#utility.yul\":6727:6749   */\n  swap1\n  pop\n    /* \"#utility.yul\":6703:6823   */\n  jump(tag_128)\ntag_130:\n    /* \"#utility.yul\":6643:6829   */\n  pop\n  pop\n  jump\t// out\n    /* \"#utility.yul\":6835:7378   */\ntag_43:\n    /* \"#utility.yul\":6936:6938   */\n  0x1f\n    /* \"#utility.yul\":6931:6934   */\n  dup3\n    /* \"#utility.yul\":6928:6939   */\n  gt\n    /* \"#utility.yul\":6925:7371   */\n  iszero\n  tag_133\n  jumpi\n    /* \"#utility.yul\":6970:7008   */\n  tag_134\n    /* \"#utility.yul\":7002:7007   */\n  dup2\n    /* \"#utility.yul\":6970:7008   */\n  tag_32\n  jump\t// in\ntag_134:\n    /* \"#utility.yul\":7054:7083   */\n  tag_135\n    /* \"#utility.yul\":7072:7082   */\n  dup5\n    /* \"#utility.yul\":7054:7083   */\n  tag_33\n  jump\t// in\ntag_135:\n    /* \"#utility.yul\":7044:7052   */\n  dup2\n    /* \"#utility.yul\":7040:7084   */\n  add\n    /* \"#utility.yul\":7237:7239   */\n  0x20\n    /* \"#utility.yul\":7225:7235   */\n  dup6\n    /* \"#utility.yul\":7222:7240   */\n  lt\n    /* \"#utility.yul\":7219:7268   */\n  iszero\n  tag_136\n  jumpi\n    /* \"#utility.yul\":7258:7266   */\n  dup2\n    /* \"#utility.yul\":7243:7266   */\n  swap1\n  pop\n    /* \"#utility.yul\":7219:7268   */\ntag_136:\n    /* \"#utility.yul\":7281:7361   */\n  tag_137\n    /* \"#utility.yul\":7337:7359   */\n  tag_138\n    /* \"#utility.yul\":7355:7358   */\n  dup6\n    /* \"#utility.yul\":7337:7359   */\n  tag_33\n  jump\t// in\ntag_138:\n    /* \"#utility.yul\":7327:7335   */\n  dup4\n    /* \"#utility.yul\":7323:7360   */\n  add\n    /* \"#utility.yul\":7310:7321   */\n  dup3\n    /* \"#utility.yul\":7281:7361   */\n  tag_42\n  jump\t// in\ntag_137:\n    /* \"#utility.yul\":6940:7371   */\n  pop\n  pop\n    /* \"#utility.yul\":6925:7371   */\ntag_133:\n    /* \"#utility.yul\":6835:7378   */\n  pop\n  pop\n  pop\n  jump\t// out\n    /* \"#utility.yul\":7384:7501   */\ntag_44:\n    /* \"#utility.yul\":7438:7446   */\n  0x00\n    /* \"#utility.yul\":7488:7493   */\n  dup3\n    /* \"#utility.yul\":7482:7486   */\n  dup3\n    /* \"#utility.yul\":7478:7494   */\n  shr\n    /* \"#utility.yul\":7457:7494   */\n  swap1\n  pop\n    /* \"#utility.yul\":7384:7501   */\n  swap3\n  swap2\n  pop\n  pop\n  jump\t// out\n    /* \"#utility.yul\":7507:7676   */\ntag_45:\n    /* \"#utility.yul\":7551:7557   */\n  0x00\n    /* \"#utility.yul\":7584:7635   */\n  tag_141\n    /* \"#utility.yul\":7632:7633   */\n  0x00\n    /* \"#utility.yul\":7628:7634   */\n  not\n    /* \"#utility.yul\":7620:7625   */\n  dup5\n    /* \"#utility.yul\":7617:7618   */\n  0x08\n    /* \"#utility.yul\":7613:7626   */\n  mul\n    /* \"#utility.yul\":7584:7635   */\n  tag_44\n  jump\t// in\ntag_141:\n    /* \"#utility.yul\":7580:7636   */\n  not\n    /* \"#utility.yul\":7665:7669   */\n  dup1\n    /* \"#utility.yul\":7659:7663   */\n  dup4\n    /* \"#utility.yul\":7655:7670   */\n  and\n    /* \"#utility.yul\":7645:7670   */\n  swap2\n  pop\n    /* \"#utility.yul\":7558:7676   */\n  pop\n    /* \"#utility.yul\":7507:7676   */\n  swap3\n  swap2\n  pop\n  pop\n  jump\t// out\n    /* \"#utility.yul\":7681:7976   */\ntag_46:\n    /* \"#utility.yul\":7757:7761   */\n  0x00\n    /* \"#utility.yul\":7903:7932   */\n  tag_143\n    /* \"#utility.yul\":7928:7931   */\n  dup4\n    /* \"#utility.yul\":7922:7926   */\n  dup4\n    /* \"#utility.yul\":7903:7932   */\n  tag_45\n  jump\t// in\ntag_143:\n    /* \"#utility.yul\":7895:7932   */\n  swap2\n  pop\n    /* \"#utility.yul\":7965:7968   */\n  dup3\n    /* \"#utility.yul\":7962:7963   */\n  0x02\n    /* \"#utility.yul\":7958:7969   */\n  mul\n    /* \"#utility.yul\":7952:7956   */\n  dup3\n    /* \"#utility.yul\":7949:7970   */\n  or\n    /* \"#utility.yul\":7941:7970   */\n  swap1\n  pop\n    /* \"#utility.yul\":7681:7976   */\n  swap3\n  swap2\n  pop\n  pop\n  jump\t// out\n    /* \"#utility.yul\":7981:9376   */\ntag_9:\n    /* \"#utility.yul\":8098:8135   */\n  tag_145\n    /* \"#utility.yul\":8131:8134   */\n  dup3\n    /* \"#utility.yul\":8098:8135   */\n  tag_29\n  jump\t// in\ntag_145:\n    /* \"#utility.yul\":8200:8218   */\n  0xffffffffffffffff\n    /* \"#utility.yul\":8192:8198   */\n  dup2\n    /* \"#utility.yul\":8189:8219   */\n  gt\n    /* \"#utility.yul\":8186:8242   */\n  iszero\n  tag_146\n  jumpi\n    /* \"#utility.yul\":8222:8240   */\n  tag_147\n  tag_18\n  jump\t// in\ntag_147:\n    /* \"#utility.yul\":8186:8242   */\ntag_146:\n    /* \"#utility.yul\":8266:8304   */\n  tag_148\n    /* \"#utility.yul\":8298:8302   */\n  dup3\n    /* \"#utility.yul\":8292:8303   */\n  sload\n    /* \"#utility.yul\":8266:8304   */\n  tag_31\n  jump\t// in\ntag_148:\n    /* \"#utility.yul\":8351:8418   */\n  tag_149\n    /* \"#utility.yul\":8411:8417   */\n  dup3\n    /* \"#utility.yul\":8403:8409   */\n  dup3\n    /* \"#utility.yul\":8397:8401   */\n  dup6\n    /* \"#utility.yul\":8351:8418   */\n  tag_43\n  jump\t// in\ntag_149:\n    /* \"#utility.yul\":8445:8446   */\n  0x00\n    /* \"#utility.yul\":8469:8473   */\n  0x20\n    /* \"#utility.yul\":8456:8473   */\n  swap1\n  pop\n    /* \"#utility.yul\":8501:8503   */\n  0x1f\n    /* \"#utility.yul\":8493:8499   */\n  dup4\n    /* \"#utility.yul\":8490:8504   */\n  gt\n    /* \"#utility.yul\":8518:8519   */\n  0x01\n    /* \"#utility.yul\":8513:9131   */\n  dup2\n  eq\n  tag_151\n  jumpi\n    /* \"#utility.yul\":9175:9176   */\n  0x00\n    /* \"#utility.yul\":9192:9198   */\n  dup5\n    /* \"#utility.yul\":9189:9266   */\n  iszero\n  tag_152\n  jumpi\n    /* \"#utility.yul\":9241:9250   */\n  dup3\n    /* \"#utility.yul\":9236:9239   */\n  dup8\n    /* \"#utility.yul\":9232:9251   */\n  add\n    /* \"#utility.yul\":9226:9252   */\n  mload\n    /* \"#utility.yul\":9217:9252   */\n  swap1\n  pop\n    /* \"#utility.yul\":9189:9266   */\ntag_152:\n    /* \"#utility.yul\":9292:9359   */\n  tag_153\n    /* \"#utility.yul\":9352:9358   */\n  dup6\n    /* \"#utility.yul\":9345:9350   */\n  dup3\n    /* \"#utility.yul\":9292:9359   */\n  tag_46\n  jump\t// in\ntag_153:\n    /* \"#utility.yul\":9286:9290   */\n  dup7\n    /* \"#utility.yul\":9279:9360   */\n  sstore\n    /* \"#utility.yul\":9148:9370   */\n  pop\n    /* \"#utility.yul\":8483:9370   */\n  jump(tag_150)\n    /* \"#utility.yul\":8513:9131   */\ntag_151:\n    /* \"#utility.yul\":8565:8569   */\n  0x1f\n    /* \"#utility.yul\":8561:8570   */\n  not\n    /* \"#utility.yul\":8553:8559   */\n  dup5\n    /* \"#utility.yul\":8549:8571   */\n  and\n    /* \"#utility.yul\":8599:8636   */\n  tag_154\n    /* \"#utility.yul\":8631:8635   */\n  dup7\n    /* \"#utility.yul\":8599:8636   */\n  tag_32\n  jump\t// in\ntag_154:\n    /* \"#utility.yul\":8658:8659   */\n  0x00\n    /* \"#utility.yul\":8672:8880   */\ntag_155:\n    /* \"#utility.yul\":8686:8693   */\n  dup3\n    /* \"#utility.yul\":8683:8684   */\n  dup2\n    /* \"#utility.yul\":8680:8694   */\n  lt\n    /* \"#utility.yul\":8672:8880   */\n  iszero\n  tag_157\n  jumpi\n    /* \"#utility.yul\":8765:8774   */\n  dup5\n    /* \"#utility.yul\":8760:8763   */\n  dup10\n    /* \"#utility.yul\":8756:8775   */\n  add\n    /* \"#utility.yul\":8750:8776   */\n  mload\n    /* \"#utility.yul\":8742:8748   */\n  dup3\n    /* \"#utility.yul\":8735:8777   */\n  sstore\n    /* \"#utility.yul\":8816:8817   */\n  0x01\n    /* \"#utility.yul\":8808:8814   */\n  dup3\n    /* \"#utility.yul\":8804:8818   */\n  add\n    /* \"#utility.yul\":8794:8818   */\n  swap2\n  pop\n    /* \"#utility.yul\":8863:8865   */\n  0x20\n    /* \"#utility.yul\":8852:8861   */\n  dup6\n    /* \"#utility.yul\":8848:8866   */\n  add\n    /* \"#utility.yul\":8835:8866   */\n  swap5\n  pop\n    /* \"#utility.yul\":8709:8713   */\n  0x20\n    /* \"#utility.yul\":8706:8707   */\n  dup2\n    /* \"#utility.yul\":8702:8714   */\n  add\n    /* \"#utility.yul\":8697:8714   */\n  swap1\n  pop\n    /* \"#utility.yul\":8672:8880   */\n  jump(tag_155)\ntag_157:\n    /* \"#utility.yul\":8908:8914   */\n  dup7\n    /* \"#utility.yul\":8899:8906   */\n  dup4\n    /* \"#utility.yul\":8896:8915   */\n  lt\n    /* \"#utility.yul\":8893:9072   */\n  iszero\n  tag_158\n  jumpi\n    /* \"#utility.yul\":8966:8975   */\n  dup5\n    /* \"#utility.yul\":8961:8964   */\n  dup10\n    /* \"#utility.yul\":8957:8976   */\n  add\n    /* \"#utility.yul\":8951:8977   */\n  mload\n    /* \"#utility.yul\":9009:9057   */\n  tag_159\n    /* \"#utility.yul\":9051:9055   */\n  0x1f\n    /* \"#utility.yul\":9043:9049   */\n  dup10\n    /* \"#utility.yul\":9039:9056   */\n  and\n    /* \"#utility.yul\":9028:9037   */\n  dup3\n    /* \"#utility.yul\":9009:9057   */\n  tag_45\n  jump\t// in\ntag_159:\n    /* \"#utility.yul\":9001:9007   */\n  dup4\n    /* \"#utility.yul\":8994:9058   */\n  sstore\n    /* \"#utility.yul\":8916:9072   */\n  pop\n    /* \"#utility.yul\":8893:9072   */\ntag_158:\n    /* \"#utility.yul\":9118:9119   */\n  0x01\n    /* \"#utility.yul\":9114:9115   */\n  0x02\n    /* \"#utility.yul\":9106:9112   */\n  dup9\n    /* \"#utility.yul\":9102:9116   */\n  mul\n    /* \"#utility.yul\":9098:9120   */\n  add\n    /* \"#utility.yul\":9092:9096   */\n  dup9\n    /* \"#utility.yul\":9085:9121   */\n  sstore\n    /* \"#utility.yul\":8520:9131   */\n  pop\n  pop\n  pop\n    /* \"#utility.yul\":8483:9370   */\ntag_150:\n  pop\n    /* \"#utility.yul\":8073:9376   */\n  pop\n  pop\n  pop\n    /* \"#utility.yul\":7981:9376   */\n  pop\n  pop\n  jump\t// out\n    /* \"contracts/BusinessConsensus.sol\":33:4802  contract BusinessConsensus{... */\ntag_11:\n  dataSize(sub_0)\n  dup1\n  dataOffset(sub_0)\n  0x00\n  codecopy\n  0x00\n  return\nstop\n\nsub_0: assembly {\n        /* \"contracts/BusinessConsensus.sol\":33:4802  contract BusinessConsensus{... */\n      mstore(0x40, 0x80)\n      callvalue\n      dup1\n      iszero\n      tag_1\n      jumpi\n      0x00\n      dup1\n      revert\n    tag_1:\n      pop\n      jumpi(tag_2, lt(calldatasize, 0x04))\n      shr(0xe0, calldataload(0x00))\n      dup1\n      0x7403c5e5\n      gt\n      tag_20\n      jumpi\n      dup1\n      0x9aa4bbdd\n      gt\n      tag_21\n      jumpi\n      dup1\n      0x9aa4bbdd\n      eq\n      tag_15\n      jumpi\n      dup1\n      0xd77aa749\n      eq\n      tag_16\n      jumpi\n      dup1\n      0xda58c7d9\n      eq\n      tag_17\n      jumpi\n      dup1\n      0xf6b4dfb4\n      eq\n      tag_18\n      jumpi\n      dup1\n      0xfe8ff236\n      eq\n      tag_19\n      jumpi\n      jump(tag_2)\n    tag_21:\n      dup1\n      0x7403c5e5\n      eq\n      tag_11\n      jumpi\n      dup1\n      0x753ec103\n      eq\n      tag_12\n      jumpi\n      dup1\n      0x8d337b81\n      eq\n      tag_13\n      jumpi\n      dup1\n      0x95b02dfa\n      eq\n      tag_14\n      jumpi\n      jump(tag_2)\n    tag_20:\n      dup1\n      0x323082d7\n      gt\n      tag_22\n      jumpi\n      dup1\n      0x323082d7\n      eq\n      tag_7\n      jumpi\n      dup1\n      0x59c96c11\n      eq\n      tag_8\n      jumpi\n      dup1\n      0x5c39fcc1\n      eq\n      tag_9\n      jumpi\n      dup1\n      0x604c8333\n      eq\n      tag_10\n      jumpi\n      jump(tag_2)\n    tag_22:\n      dup1\n      0x0cb6aaf1\n      eq\n      tag_3\n      jumpi\n      dup1\n      0x15fe6f1b\n      eq\n      tag_4\n      jumpi\n      dup1\n      0x19eb4a90\n      eq\n      tag_5\n      jumpi\n      dup1\n      0x2d15cc04\n      eq\n      tag_6\n      jumpi\n    tag_2:\n      0x00\n      dup1\n      revert\n        /* \"contracts/BusinessConsensus.sol\":1036:1057  address[] public keys */\n    tag_3:\n      tag_23\n      0x04\n      dup1\n      calldatasize\n      sub\n      dup2\n      add\n      swap1\n      tag_24\n      swap2\n      swap1\n      tag_25\n      jump\t// in\n    tag_24:\n      tag_26\n      jump\t// in\n    tag_23:\n      mload(0x40)\n      tag_27\n      swap2\n      swap1\n      tag_28\n      jump\t// in\n    tag_27:\n      mload(0x40)\n      dup1\n      swap2\n      sub\n      swap1\n      return\n        /* \"contracts/BusinessConsensus.sol\":2203:2784  function RegisterVoter(address voter) external {... */\n    tag_4:\n      tag_29\n      0x04\n      dup1\n      calldatasize\n      sub\n      dup2\n      add\n      swap1\n      tag_30\n      swap2\n      swap1\n      tag_31\n      jump\t// in\n    tag_30:\n      tag_32\n      jump\t// in\n    tag_29:\n      stop\n        /* \"contracts/BusinessConsensus.sol\":1783:1883  function getValues() public view returns (string memory){... */\n    tag_5:\n      tag_33\n      tag_34\n      jump\t// in\n    tag_33:\n      mload(0x40)\n      tag_35\n      swap2\n      swap1\n      tag_36\n      jump\t// in\n    tag_35:\n      mload(0x40)\n      dup1\n      swap2\n      sub\n      swap1\n      return\n        /* \"contracts/BusinessConsensus.sol\":2792:2900  function getVoters(address voter) public view returns(bool){... */\n    tag_6:\n      tag_37\n      0x04\n      dup1\n      calldatasize\n      sub\n      dup2\n      add\n      swap1\n      tag_38\n      swap2\n      swap1\n      tag_31\n      jump\t// in\n    tag_38:\n      tag_39\n      jump\t// in\n    tag_37:\n      mload(0x40)\n      tag_40\n      swap2\n      swap1\n      tag_41\n      jump\t// in\n    tag_40:\n      mload(0x40)\n      dup1\n      swap2\n      sub\n      swap1\n      return\n        /* \"contracts/BusinessConsensus.sol\":3068:4002  function Vote(string memory response) external {... */\n    tag_7:\n      tag_42\n      0x04\n      dup1\n      calldatasize\n      sub\n      dup2\n      add\n      swap1\n      tag_43\n      swap2\n      swap1\n      tag_44\n      jump\t// in\n    tag_43:\n      tag_45\n      jump\t// in\n    tag_42:\n      stop\n        /* \"contracts/BusinessConsensus.sol\":1889:2097  function getParameters(address test_address) public view returns (string memory, uint , address ,uint ,uint){... */\n    tag_8:\n      tag_46\n      0x04\n      dup1\n      calldatasize\n      sub\n      dup2\n      add\n      swap1\n      tag_47\n      swap2\n      swap1\n      tag_31\n      jump\t// in\n    tag_47:\n      tag_48\n      jump\t// in\n    tag_46:\n      mload(0x40)\n      tag_49\n      swap6\n      swap5\n      swap4\n      swap3\n      swap2\n      swap1\n      tag_50\n      jump\t// in\n    tag_49:\n      mload(0x40)\n      dup1\n      swap2\n      sub\n      swap1\n      return\n        /* \"contracts/BusinessConsensus.sol\":862:886  address public initiator */\n    tag_9:\n      tag_51\n      tag_52\n      jump\t// in\n    tag_51:\n      mload(0x40)\n      tag_53\n      swap2\n      swap1\n      tag_28\n      jump\t// in\n    tag_53:\n      mload(0x40)\n      dup1\n      swap2\n      sub\n      swap1\n      return\n        /* \"contracts/BusinessConsensus.sol\":935:968  uint public AccumulatedPercentage */\n    tag_10:\n      tag_54\n      tag_55\n      jump\t// in\n    tag_54:\n      mload(0x40)\n      tag_56\n      swap2\n      swap1\n      tag_57\n      jump\t// in\n    tag_56:\n      mload(0x40)\n      dup1\n      swap2\n      sub\n      swap1\n      return\n        /* \"contracts/BusinessConsensus.sol\":975:999  uint public numApprovals */\n    tag_11:\n      tag_58\n      tag_59\n      jump\t// in\n    tag_58:\n      mload(0x40)\n      tag_60\n      swap2\n      swap1\n      tag_57\n      jump\t// in\n    tag_60:\n      mload(0x40)\n      dup1\n      swap2\n      sub\n      swap1\n      return\n        /* \"contracts/BusinessConsensus.sol\":1184:1208  Proposal public proposal */\n    tag_12:\n      tag_61\n      tag_62\n      jump\t// in\n    tag_61:\n      mload(0x40)\n      tag_63\n      swap3\n      swap2\n      swap1\n      tag_64\n      jump\t// in\n    tag_63:\n      mload(0x40)\n      dup1\n      swap2\n      sub\n      swap1\n      return\n        /* \"contracts/BusinessConsensus.sol\":2908:3013  function getVote(address voter) public view returns(bool){... */\n    tag_13:\n      tag_65\n      0x04\n      dup1\n      calldatasize\n      sub\n      dup2\n      add\n      swap1\n      tag_66\n      swap2\n      swap1\n      tag_31\n      jump\t// in\n    tag_66:\n      tag_67\n      jump\t// in\n    tag_65:\n      mload(0x40)\n      tag_68\n      swap2\n      swap1\n      tag_41\n      jump\t// in\n    tag_68:\n      mload(0x40)\n      dup1\n      swap2\n      sub\n      swap1\n      return\n        /* \"contracts/BusinessConsensus.sol\":4066:4550  function Consensus() external {... */\n    tag_14:\n      tag_69\n      tag_70\n      jump\t// in\n    tag_69:\n      stop\n        /* \"contracts/BusinessConsensus.sol\":1064:1107  mapping(address => Voter) public voters_map */\n    tag_15:\n      tag_71\n      0x04\n      dup1\n      calldatasize\n      sub\n      dup2\n      add\n      swap1\n      tag_72\n      swap2\n      swap1\n      tag_31\n      jump\t// in\n    tag_72:\n      tag_73\n      jump\t// in\n    tag_71:\n      mload(0x40)\n      tag_74\n      swap4\n      swap3\n      swap2\n      swap1\n      tag_75\n      jump\t// in\n    tag_74:\n      mload(0x40)\n      dup1\n      swap2\n      sub\n      swap1\n      return\n        /* \"contracts/BusinessConsensus.sol\":897:928  uint public BusinessRequirement */\n    tag_16:\n      tag_76\n      tag_77\n      jump\t// in\n    tag_76:\n      mload(0x40)\n      tag_78\n      swap2\n      swap1\n      tag_57\n      jump\t// in\n    tag_78:\n      mload(0x40)\n      dup1\n      swap2\n      sub\n      swap1\n      return\n        /* \"contracts/BusinessConsensus.sol\":1008:1029  Voter[] public voters */\n    tag_17:\n      tag_79\n      0x04\n      dup1\n      calldatasize\n      sub\n      dup2\n      add\n      swap1\n      tag_80\n      swap2\n      swap1\n      tag_25\n      jump\t// in\n    tag_80:\n      tag_81\n      jump\t// in\n    tag_79:\n      mload(0x40)\n      tag_82\n      swap4\n      swap3\n      swap2\n      swap1\n      tag_75\n      jump\t// in\n    tag_82:\n      mload(0x40)\n      dup1\n      swap2\n      sub\n      swap1\n      return\n        /* \"contracts/BusinessConsensus.sol\":596:626  address public contractAddress */\n    tag_18:\n      tag_83\n      tag_84\n      jump\t// in\n    tag_83:\n      mload(0x40)\n      tag_85\n      swap2\n      swap1\n      tag_28\n      jump\t// in\n    tag_85:\n      mload(0x40)\n      dup1\n      swap2\n      sub\n      swap1\n      return\n        /* \"contracts/BusinessConsensus.sol\":4558:4797  function Bundle() public view returns (string memory, Proposal memory, Voter[] memory){... */\n    tag_19:\n      tag_86\n      tag_87\n      jump\t// in\n    tag_86:\n      mload(0x40)\n      tag_88\n      swap4\n      swap3\n      swap2\n      swap1\n      tag_89\n      jump\t// in\n    tag_88:\n      mload(0x40)\n      dup1\n      swap2\n      sub\n      swap1\n      return\n        /* \"contracts/BusinessConsensus.sol\":1036:1057  address[] public keys */\n    tag_26:\n      0x08\n      dup2\n      dup2\n      sload\n      dup2\n      lt\n      tag_90\n      jumpi\n      0x00\n      dup1\n      revert\n    tag_90:\n      swap1\n      0x00\n      mstore\n      keccak256(0x00, 0x20)\n      add\n      0x00\n      swap2\n      pop\n      sload\n      swap1\n      0x0100\n      exp\n      swap1\n      div\n      0xffffffffffffffffffffffffffffffffffffffff\n      and\n      dup2\n      jump\t// out\n        /* \"contracts/BusinessConsensus.sol\":2203:2784  function RegisterVoter(address voter) external {... */\n    tag_32:\n        /* \"contracts/BusinessConsensus.sol\":2371:2380  initiator */\n      0x03\n      0x00\n      swap1\n      sload\n      swap1\n      0x0100\n      exp\n      swap1\n      div\n      0xffffffffffffffffffffffffffffffffffffffff\n      and\n        /* \"contracts/BusinessConsensus.sol\":2357:2380  msg.sender == initiator */\n      0xffffffffffffffffffffffffffffffffffffffff\n      and\n        /* \"contracts/BusinessConsensus.sol\":2357:2367  msg.sender */\n      caller\n        /* \"contracts/BusinessConsensus.sol\":2357:2380  msg.sender == initiator */\n      0xffffffffffffffffffffffffffffffffffffffff\n      and\n      eq\n        /* \"contracts/BusinessConsensus.sol\":2335:2448  require(... */\n      tag_93\n      jumpi\n      mload(0x40)\n      0x08c379a000000000000000000000000000000000000000000000000000000000\n      dup2\n      mstore\n      0x04\n      add\n      tag_94\n      swap1\n      tag_95\n      jump\t// in\n    tag_94:\n      mload(0x40)\n      dup1\n      swap2\n      sub\n      swap1\n      revert\n    tag_93:\n        /* \"contracts/BusinessConsensus.sol\":2508:2509  0 */\n      0x00\n        /* \"contracts/BusinessConsensus.sol\":2469:2510  voters_map[voter].recipient == address(0) */\n      0xffffffffffffffffffffffffffffffffffffffff\n      and\n        /* \"contracts/BusinessConsensus.sol\":2469:2479  voters_map */\n      0x09\n        /* \"contracts/BusinessConsensus.sol\":2469:2486  voters_map[voter] */\n      0x00\n        /* \"contracts/BusinessConsensus.sol\":2480:2485  voter */\n      dup4\n        /* \"contracts/BusinessConsensus.sol\":2469:2486  voters_map[voter] */\n      0xffffffffffffffffffffffffffffffffffffffff\n      and\n      0xffffffffffffffffffffffffffffffffffffffff\n      and\n      dup2\n      mstore\n      0x20\n      add\n      swap1\n      dup2\n      mstore\n      0x20\n      add\n      0x00\n      keccak256\n        /* \"contracts/BusinessConsensus.sol\":2469:2496  voters_map[voter].recipient */\n      0x00\n      add\n      0x01\n      swap1\n      sload\n      swap1\n      0x0100\n      exp\n      swap1\n      div\n      0xffffffffffffffffffffffffffffffffffffffff\n      and\n        /* \"contracts/BusinessConsensus.sol\":2469:2510  voters_map[voter].recipient == address(0) */\n      0xffffffffffffffffffffffffffffffffffffffff\n      and\n      eq\n        /* \"contracts/BusinessConsensus.sol\":2461:2546  require(voters_map[voter].recipient == address(0), \"Recipient is already registered\") */\n      tag_96\n      jumpi\n      mload(0x40)\n      0x08c379a000000000000000000000000000000000000000000000000000000000\n      dup2\n      mstore\n      0x04\n      add\n      tag_97\n      swap1\n      tag_98\n      jump\t// in\n    tag_97:\n      mload(0x40)\n      dup1\n      swap2\n      sub\n      swap1\n      revert\n    tag_96:\n        /* \"contracts/BusinessConsensus.sol\":2585:2595  expiryDate */\n      sload(0x01)\n        /* \"contracts/BusinessConsensus.sol\":2567:2582  block.timestamp */\n      timestamp\n        /* \"contracts/BusinessConsensus.sol\":2567:2595  block.timestamp < expiryDate */\n      lt\n        /* \"contracts/BusinessConsensus.sol\":2559:2636  require(block.timestamp < expiryDate, \"Proposal has reached its expiry date\") */\n      tag_99\n      jumpi\n      mload(0x40)\n      0x08c379a000000000000000000000000000000000000000000000000000000000\n      dup2\n      mstore\n      0x04\n      add\n      tag_100\n      swap1\n      tag_101\n      jump\t// in\n    tag_100:\n      mload(0x40)\n      dup1\n      swap2\n      sub\n      swap1\n      revert\n    tag_99:\n        /* \"contracts/BusinessConsensus.sol\":2649:2663  Voter memory x */\n      0x00\n        /* \"contracts/BusinessConsensus.sol\":2666:2717  Voter({voted: false,recipient: voter, vote: false}) */\n      mload(0x40)\n      dup1\n      0x60\n      add\n      0x40\n      mstore\n      dup1\n        /* \"contracts/BusinessConsensus.sol\":2680:2685  false */\n      0x00\n        /* \"contracts/BusinessConsensus.sol\":2666:2717  Voter({voted: false,recipient: voter, vote: false}) */\n      iszero\n      iszero\n      dup2\n      mstore\n      0x20\n      add\n        /* \"contracts/BusinessConsensus.sol\":2697:2702  voter */\n      dup4\n        /* \"contracts/BusinessConsensus.sol\":2666:2717  Voter({voted: false,recipient: voter, vote: false}) */\n      0xffffffffffffffffffffffffffffffffffffffff\n      and\n      dup2\n      mstore\n      0x20\n      add\n        /* \"contracts/BusinessConsensus.sol\":2710:2715  false */\n      0x00\n        /* \"contracts/BusinessConsensus.sol\":2666:2717  Voter({voted: false,recipient: voter, vote: false}) */\n      iszero\n      iszero\n      dup2\n      mstore\n      pop\n        /* \"contracts/BusinessConsensus.sol\":2649:2717  Voter memory x = Voter({voted: false,recipient: voter, vote: false}) */\n      swap1\n      pop\n        /* \"contracts/BusinessConsensus.sol\":2748:2749  x */\n      dup1\n        /* \"contracts/BusinessConsensus.sol\":2728:2738  voters_map */\n      0x09\n        /* \"contracts/BusinessConsensus.sol\":2728:2745  voters_map[voter] */\n      0x00\n        /* \"contracts/BusinessConsensus.sol\":2739:2744  voter */\n      dup5\n        /* \"contracts/BusinessConsensus.sol\":2728:2745  voters_map[voter] */\n      0xffffffffffffffffffffffffffffffffffffffff\n      and\n      0xffffffffffffffffffffffffffffffffffffffff\n      and\n      dup2\n      mstore\n      0x20\n      add\n      swap1\n      dup2\n      mstore\n      0x20\n      add\n      0x00\n      keccak256\n        /* \"contracts/BusinessConsensus.sol\":2728:2749  voters_map[voter] = x */\n      0x00\n      dup3\n      add\n      mload\n      dup2\n      0x00\n      add\n      exp(0x0100, 0x00)\n      dup2\n      sload\n      dup2\n      0xff\n      mul\n      not\n      and\n      swap1\n      dup4\n      iszero\n      iszero\n      mul\n      or\n      swap1\n      sstore\n      pop\n      0x20\n      dup3\n      add\n      mload\n      dup2\n      0x00\n      add\n      exp(0x0100, 0x01)\n      dup2\n      sload\n      dup2\n      0xffffffffffffffffffffffffffffffffffffffff\n      mul\n      not\n      and\n      swap1\n      dup4\n      0xffffffffffffffffffffffffffffffffffffffff\n      and\n      mul\n      or\n      swap1\n      sstore\n      pop\n      0x40\n      dup3\n      add\n      mload\n      dup2\n      0x00\n      add\n      exp(0x0100, 0x15)\n      dup2\n      sload\n      dup2\n      0xff\n      mul\n      not\n      and\n      swap1\n      dup4\n      iszero\n      iszero\n      mul\n      or\n      swap1\n      sstore\n      pop\n      swap1\n      pop\n      pop\n        /* \"contracts/BusinessConsensus.sol\":2760:2764  keys */\n      0x08\n        /* \"contracts/BusinessConsensus.sol\":2770:2775  voter */\n      dup3\n        /* \"contracts/BusinessConsensus.sol\":2760:2776  keys.push(voter) */\n      swap1\n      dup1\n      0x01\n      dup2\n      sload\n      add\n      dup1\n      dup3\n      sstore\n      dup1\n      swap2\n      pop\n      pop\n      0x01\n      swap1\n      sub\n      swap1\n      0x00\n      mstore\n      keccak256(0x00, 0x20)\n      add\n      0x00\n      swap1\n      swap2\n      swap1\n      swap2\n      swap1\n      swap2\n      0x0100\n      exp\n      dup2\n      sload\n      dup2\n      0xffffffffffffffffffffffffffffffffffffffff\n      mul\n      not\n      and\n      swap1\n      dup4\n      0xffffffffffffffffffffffffffffffffffffffff\n      and\n      mul\n      or\n      swap1\n      sstore\n      pop\n        /* \"contracts/BusinessConsensus.sol\":2250:2784  {... */\n      pop\n        /* \"contracts/BusinessConsensus.sol\":2203:2784  function RegisterVoter(address voter) external {... */\n      pop\n      jump\t// out\n        /* \"contracts/BusinessConsensus.sol\":1783:1883  function getValues() public view returns (string memory){... */\n    tag_34:\n        /* \"contracts/BusinessConsensus.sol\":1825:1838  string memory */\n      0x60\n        /* \"contracts/BusinessConsensus.sol\":1857:1865  proposal */\n      0x0a\n        /* \"contracts/BusinessConsensus.sol\":1857:1875  proposal.messageID */\n      0x01\n      add\n        /* \"contracts/BusinessConsensus.sol\":1850:1875  return proposal.messageID */\n      dup1\n      sload\n      tag_104\n      swap1\n      tag_105\n      jump\t// in\n    tag_104:\n      dup1\n      0x1f\n      add\n      0x20\n      dup1\n      swap2\n      div\n      mul\n      0x20\n      add\n      mload(0x40)\n      swap1\n      dup2\n      add\n      0x40\n      mstore\n      dup1\n      swap3\n      swap2\n      swap1\n      dup2\n      dup2\n      mstore\n      0x20\n      add\n      dup3\n      dup1\n      sload\n      tag_106\n      swap1\n      tag_105\n      jump\t// in\n    tag_106:\n      dup1\n      iszero\n      tag_107\n      jumpi\n      dup1\n      0x1f\n      lt\n      tag_108\n      jumpi\n      0x0100\n      dup1\n      dup4\n      sload\n      div\n      mul\n      dup4\n      mstore\n      swap2\n      0x20\n      add\n      swap2\n      jump(tag_107)\n    tag_108:\n      dup3\n      add\n      swap2\n      swap1\n      0x00\n      mstore\n      keccak256(0x00, 0x20)\n      swap1\n    tag_109:\n      dup2\n      sload\n      dup2\n      mstore\n      swap1\n      0x01\n      add\n      swap1\n      0x20\n      add\n      dup1\n      dup4\n      gt\n      tag_109\n      jumpi\n      dup3\n      swap1\n      sub\n      0x1f\n      and\n      dup3\n      add\n      swap2\n    tag_107:\n      pop\n      pop\n      pop\n      pop\n      pop\n      swap1\n      pop\n        /* \"contracts/BusinessConsensus.sol\":1783:1883  function getValues() public view returns (string memory){... */\n      swap1\n      jump\t// out\n        /* \"contracts/BusinessConsensus.sol\":2792:2900  function getVoters(address voter) public view returns(bool){... */\n    tag_39:\n        /* \"contracts/BusinessConsensus.sol\":2846:2850  bool */\n      0x00\n        /* \"contracts/BusinessConsensus.sol\":2869:2879  voters_map */\n      0x09\n        /* \"contracts/BusinessConsensus.sol\":2869:2886  voters_map[voter] */\n      0x00\n        /* \"contracts/BusinessConsensus.sol\":2880:2885  voter */\n      dup4\n        /* \"contracts/BusinessConsensus.sol\":2869:2886  voters_map[voter] */\n      0xffffffffffffffffffffffffffffffffffffffff\n      and\n      0xffffffffffffffffffffffffffffffffffffffff\n      and\n      dup2\n      mstore\n      0x20\n      add\n      swap1\n      dup2\n      mstore\n      0x20\n      add\n      0x00\n      keccak256\n        /* \"contracts/BusinessConsensus.sol\":2869:2892  voters_map[voter].voted */\n      0x00\n      add\n      0x00\n      swap1\n      sload\n      swap1\n      0x0100\n      exp\n      swap1\n      div\n      0xff\n      and\n        /* \"contracts/BusinessConsensus.sol\":2862:2892  return voters_map[voter].voted */\n      swap1\n      pop\n        /* \"contracts/BusinessConsensus.sol\":2792:2900  function getVoters(address voter) public view returns(bool){... */\n      swap2\n      swap1\n      pop\n      jump\t// out\n        /* \"contracts/BusinessConsensus.sol\":3068:4002  function Vote(string memory response) external {... */\n    tag_45:\n        /* \"contracts/BusinessConsensus.sol\":3182:3192  expiryDate */\n      sload(0x01)\n        /* \"contracts/BusinessConsensus.sol\":3164:3179  block.timestamp */\n      timestamp\n        /* \"contracts/BusinessConsensus.sol\":3164:3192  block.timestamp < expiryDate */\n      lt\n        /* \"contracts/BusinessConsensus.sol\":3156:3215  require(block.timestamp < expiryDate, \"Voting has expired\") */\n      tag_112\n      jumpi\n      mload(0x40)\n      0x08c379a000000000000000000000000000000000000000000000000000000000\n      dup2\n      mstore\n      0x04\n      add\n      tag_113\n      swap1\n      tag_114\n      jump\t// in\n    tag_113:\n      mload(0x40)\n      dup1\n      swap2\n      sub\n      swap1\n      revert\n    tag_112:\n        /* \"contracts/BusinessConsensus.sol\":3226:3253  Voter memory recipientVoter */\n      0x00\n        /* \"contracts/BusinessConsensus.sol\":3256:3266  voters_map */\n      0x09\n        /* \"contracts/BusinessConsensus.sol\":3256:3278  voters_map[msg.sender] */\n      0x00\n        /* \"contracts/BusinessConsensus.sol\":3267:3277  msg.sender */\n      caller\n        /* \"contracts/BusinessConsensus.sol\":3256:3278  voters_map[msg.sender] */\n      0xffffffffffffffffffffffffffffffffffffffff\n      and\n      0xffffffffffffffffffffffffffffffffffffffff\n      and\n      dup2\n      mstore\n      0x20\n      add\n      swap1\n      dup2\n      mstore\n      0x20\n      add\n      0x00\n      keccak256\n        /* \"contracts/BusinessConsensus.sol\":3226:3278  Voter memory recipientVoter = voters_map[msg.sender] */\n      mload(0x40)\n      dup1\n      0x60\n      add\n      0x40\n      mstore\n      swap1\n      dup2\n      0x00\n      dup3\n      add\n      0x00\n      swap1\n      sload\n      swap1\n      0x0100\n      exp\n      swap1\n      div\n      0xff\n      and\n      iszero\n      iszero\n      iszero\n      iszero\n      dup2\n      mstore\n      0x20\n      add\n      0x00\n      dup3\n      add\n      0x01\n      swap1\n      sload\n      swap1\n      0x0100\n      exp\n      swap1\n      div\n      0xffffffffffffffffffffffffffffffffffffffff\n      and\n      0xffffffffffffffffffffffffffffffffffffffff\n      and\n      0xffffffffffffffffffffffffffffffffffffffff\n      and\n      dup2\n      mstore\n      0x20\n      add\n      0x00\n      dup3\n      add\n      0x15\n      swap1\n      sload\n      swap1\n      0x0100\n      exp\n      swap1\n      div\n      0xff\n      and\n      iszero\n      iszero\n      iszero\n      iszero\n      dup2\n      mstore\n      pop\n      pop\n      swap1\n      pop\n        /* \"contracts/BusinessConsensus.sol\":3333:3336  0x0 */\n      0x00\n        /* \"contracts/BusinessConsensus.sol\":3297:3337  recipientVoter.recipient != address(0x0) */\n      0xffffffffffffffffffffffffffffffffffffffff\n      and\n        /* \"contracts/BusinessConsensus.sol\":3297:3311  recipientVoter */\n      dup2\n        /* \"contracts/BusinessConsensus.sol\":3297:3321  recipientVoter.recipient */\n      0x20\n      add\n      mload\n        /* \"contracts/BusinessConsensus.sol\":3297:3337  recipientVoter.recipient != address(0x0) */\n      0xffffffffffffffffffffffffffffffffffffffff\n      and\n      sub\n        /* \"contracts/BusinessConsensus.sol\":3289:3372  require(recipientVoter.recipient != address(0x0), \"You are not registered to vote\") */\n      tag_115\n      jumpi\n      mload(0x40)\n      0x08c379a000000000000000000000000000000000000000000000000000000000\n      dup2\n      mstore\n      0x04\n      add\n      tag_116\n      swap1\n      tag_117\n      jump\t// in\n    tag_116:\n      mload(0x40)\n      dup1\n      swap2\n      sub\n      swap1\n      revert\n    tag_115:\n        /* \"contracts/BusinessConsensus.sol\":3392:3406  recipientVoter */\n      dup1\n        /* \"contracts/BusinessConsensus.sol\":3392:3412  recipientVoter.voted */\n      0x00\n      add\n      mload\n        /* \"contracts/BusinessConsensus.sol\":3391:3412  !recipientVoter.voted */\n      iszero\n        /* \"contracts/BusinessConsensus.sol\":3383:3445  require(!recipientVoter.voted, \"You already sent a response.\") */\n      tag_118\n      jumpi\n      mload(0x40)\n      0x08c379a000000000000000000000000000000000000000000000000000000000\n      dup2\n      mstore\n      0x04\n      add\n      tag_119\n      swap1\n      tag_120\n      jump\t// in\n    tag_119:\n      mload(0x40)\n      dup1\n      swap2\n      sub\n      swap1\n      revert\n    tag_118:\n        /* \"contracts/BusinessConsensus.sol\":3501:3519  bytes(\"i approve\") */\n      mload(0x40)\n      dup1\n      0x40\n      add\n      0x40\n      mstore\n      dup1\n      0x09\n      dup2\n      mstore\n      0x20\n      add\n      0x6920617070726f76650000000000000000000000000000000000000000000000\n      dup2\n      mstore\n      pop\n        /* \"contracts/BusinessConsensus.sol\":3491:3520  keccak256(bytes(\"i approve\")) */\n      dup1\n      mload\n      swap1\n      0x20\n      add\n      keccak256\n        /* \"contracts/BusinessConsensus.sol\":3477:3485  response */\n      dup3\n        /* \"contracts/BusinessConsensus.sol\":3461:3487  keccak256(bytes(response)) */\n      dup1\n      mload\n      swap1\n      0x20\n      add\n      keccak256\n        /* \"contracts/BusinessConsensus.sol\":3461:3520  keccak256(bytes(response)) == keccak256(bytes(\"i approve\")) */\n      sub\n        /* \"contracts/BusinessConsensus.sol\":3458:3985  if(keccak256(bytes(response)) == keccak256(bytes(\"i approve\"))){... */\n      tag_121\n      jumpi\n        /* \"contracts/BusinessConsensus.sol\":3567:3571  true */\n      0x01\n        /* \"contracts/BusinessConsensus.sol\":3536:3546  voters_map */\n      0x09\n        /* \"contracts/BusinessConsensus.sol\":3536:3558  voters_map[msg.sender] */\n      0x00\n        /* \"contracts/BusinessConsensus.sol\":3547:3557  msg.sender */\n      caller\n        /* \"contracts/BusinessConsensus.sol\":3536:3558  voters_map[msg.sender] */\n      0xffffffffffffffffffffffffffffffffffffffff\n      and\n      0xffffffffffffffffffffffffffffffffffffffff\n      and\n      dup2\n      mstore\n      0x20\n      add\n      swap1\n      dup2\n      mstore\n      0x20\n      add\n      0x00\n      keccak256\n        /* \"contracts/BusinessConsensus.sol\":3536:3564  voters_map[msg.sender].voted */\n      0x00\n      add\n      0x00\n        /* \"contracts/BusinessConsensus.sol\":3536:3571  voters_map[msg.sender].voted = true */\n      0x0100\n      exp\n      dup2\n      sload\n      dup2\n      0xff\n      mul\n      not\n      and\n      swap1\n      dup4\n      iszero\n      iszero\n      mul\n      or\n      swap1\n      sstore\n      pop\n        /* \"contracts/BusinessConsensus.sol\":3616:3620  true */\n      0x01\n        /* \"contracts/BusinessConsensus.sol\":3586:3596  voters_map */\n      0x09\n        /* \"contracts/BusinessConsensus.sol\":3586:3608  voters_map[msg.sender] */\n      0x00\n        /* \"contracts/BusinessConsensus.sol\":3597:3607  msg.sender */\n      caller\n        /* \"contracts/BusinessConsensus.sol\":3586:3608  voters_map[msg.sender] */\n      0xffffffffffffffffffffffffffffffffffffffff\n      and\n      0xffffffffffffffffffffffffffffffffffffffff\n      and\n      dup2\n      mstore\n      0x20\n      add\n      swap1\n      dup2\n      mstore\n      0x20\n      add\n      0x00\n      keccak256\n        /* \"contracts/BusinessConsensus.sol\":3586:3613  voters_map[msg.sender].vote */\n      0x00\n      add\n      0x15\n        /* \"contracts/BusinessConsensus.sol\":3586:3620  voters_map[msg.sender].vote = true */\n      0x0100\n      exp\n      dup2\n      sload\n      dup2\n      0xff\n      mul\n      not\n      and\n      swap1\n      dup4\n      iszero\n      iszero\n      mul\n      or\n      swap1\n      sstore\n      pop\n        /* \"contracts/BusinessConsensus.sol\":3651:3652  1 */\n      0x01\n        /* \"contracts/BusinessConsensus.sol\":3635:3647  numApprovals */\n      0x06\n      0x00\n        /* \"contracts/BusinessConsensus.sol\":3635:3652  numApprovals += 1 */\n      dup3\n      dup3\n      sload\n      tag_122\n      swap2\n      swap1\n      tag_123\n      jump\t// in\n    tag_122:\n      swap3\n      pop\n      pop\n      dup2\n      swap1\n      sstore\n      pop\n        /* \"contracts/BusinessConsensus.sol\":3689:3690  1 */\n      0x01\n        /* \"contracts/BusinessConsensus.sol\":3667:3675  proposal */\n      0x0a\n        /* \"contracts/BusinessConsensus.sol\":3667:3685  proposal.voteCount */\n      0x00\n      add\n      0x00\n        /* \"contracts/BusinessConsensus.sol\":3667:3690  proposal.voteCount += 1 */\n      dup3\n      dup3\n      sload\n      tag_124\n      swap2\n      swap1\n      tag_123\n      jump\t// in\n    tag_124:\n      swap3\n      pop\n      pop\n      dup2\n      swap1\n      sstore\n      pop\n        /* \"contracts/BusinessConsensus.sol\":3705:3711  voters */\n      0x07\n        /* \"contracts/BusinessConsensus.sol\":3717:3727  voters_map */\n      0x09\n        /* \"contracts/BusinessConsensus.sol\":3717:3739  voters_map[msg.sender] */\n      0x00\n        /* \"contracts/BusinessConsensus.sol\":3728:3738  msg.sender */\n      caller\n        /* \"contracts/BusinessConsensus.sol\":3717:3739  voters_map[msg.sender] */\n      0xffffffffffffffffffffffffffffffffffffffff\n      and\n      0xffffffffffffffffffffffffffffffffffffffff\n      and\n      dup2\n      mstore\n      0x20\n      add\n      swap1\n      dup2\n      mstore\n      0x20\n      add\n      0x00\n      keccak256\n        /* \"contracts/BusinessConsensus.sol\":3705:3740  voters.push(voters_map[msg.sender]) */\n      swap1\n      dup1\n      0x01\n      dup2\n      sload\n      add\n      dup1\n      dup3\n      sstore\n      dup1\n      swap2\n      pop\n      pop\n      0x01\n      swap1\n      sub\n      swap1\n      0x00\n      mstore\n      keccak256(0x00, 0x20)\n      add\n      0x00\n      swap1\n      swap2\n      swap1\n      swap2\n      swap1\n      swap2\n      pop\n      0x00\n      dup3\n      add\n      0x00\n      swap1\n      sload\n      swap1\n      0x0100\n      exp\n      swap1\n      div\n      0xff\n      and\n      dup2\n      0x00\n      add\n      exp(0x0100, 0x00)\n      dup2\n      sload\n      dup2\n      0xff\n      mul\n      not\n      and\n      swap1\n      dup4\n      iszero\n      iszero\n      mul\n      or\n      swap1\n      sstore\n      pop\n      0x00\n      dup3\n      add\n      0x01\n      swap1\n      sload\n      swap1\n      0x0100\n      exp\n      swap1\n      div\n      0xffffffffffffffffffffffffffffffffffffffff\n      and\n      dup2\n      0x00\n      add\n      exp(0x0100, 0x01)\n      dup2\n      sload\n      dup2\n      0xffffffffffffffffffffffffffffffffffffffff\n      mul\n      not\n      and\n      swap1\n      dup4\n      0xffffffffffffffffffffffffffffffffffffffff\n      and\n      mul\n      or\n      swap1\n      sstore\n      pop\n      0x00\n      dup3\n      add\n      0x15\n      swap1\n      sload\n      swap1\n      0x0100\n      exp\n      swap1\n      div\n      0xff\n      and\n      dup2\n      0x00\n      add\n      exp(0x0100, 0x15)\n      dup2\n      sload\n      dup2\n      0xff\n      mul\n      not\n      and\n      swap1\n      dup4\n      iszero\n      iszero\n      mul\n      or\n      swap1\n      sstore\n      pop\n      pop\n      pop\n        /* \"contracts/BusinessConsensus.sol\":3458:3985  if(keccak256(bytes(response)) == keccak256(bytes(\"i approve\"))){... */\n      jump(tag_126)\n    tag_121:\n        /* \"contracts/BusinessConsensus.sol\":3812:3833  bytes(\"i disapprove\") */\n      mload(0x40)\n      dup1\n      0x40\n      add\n      0x40\n      mstore\n      dup1\n      0x0c\n      dup2\n      mstore\n      0x20\n      add\n      0x6920646973617070726f76650000000000000000000000000000000000000000\n      dup2\n      mstore\n      pop\n        /* \"contracts/BusinessConsensus.sol\":3802:3834  keccak256(bytes(\"i disapprove\")) */\n      dup1\n      mload\n      swap1\n      0x20\n      add\n      keccak256\n        /* \"contracts/BusinessConsensus.sol\":3788:3796  response */\n      dup3\n        /* \"contracts/BusinessConsensus.sol\":3772:3798  keccak256(bytes(response)) */\n      dup1\n      mload\n      swap1\n      0x20\n      add\n      keccak256\n        /* \"contracts/BusinessConsensus.sol\":3772:3834  keccak256(bytes(response)) == keccak256(bytes(\"i disapprove\")) */\n      sub\n        /* \"contracts/BusinessConsensus.sol\":3769:3985  if(keccak256(bytes(response)) == keccak256(bytes(\"i disapprove\"))){... */\n      tag_127\n      jumpi\n        /* \"contracts/BusinessConsensus.sol\":3881:3885  true */\n      0x01\n        /* \"contracts/BusinessConsensus.sol\":3850:3860  voters_map */\n      0x09\n        /* \"contracts/BusinessConsensus.sol\":3850:3872  voters_map[msg.sender] */\n      0x00\n        /* \"contracts/BusinessConsensus.sol\":3861:3871  msg.sender */\n      caller\n        /* \"contracts/BusinessConsensus.sol\":3850:3872  voters_map[msg.sender] */\n      0xffffffffffffffffffffffffffffffffffffffff\n      and\n      0xffffffffffffffffffffffffffffffffffffffff\n      and\n      dup2\n      mstore\n      0x20\n      add\n      swap1\n      dup2\n      mstore\n      0x20\n      add\n      0x00\n      keccak256\n        /* \"contracts/BusinessConsensus.sol\":3850:3878  voters_map[msg.sender].voted */\n      0x00\n      add\n      0x00\n        /* \"contracts/BusinessConsensus.sol\":3850:3885  voters_map[msg.sender].voted = true */\n      0x0100\n      exp\n      dup2\n      sload\n      dup2\n      0xff\n      mul\n      not\n      and\n      swap1\n      dup4\n      iszero\n      iszero\n      mul\n      or\n      swap1\n      sstore\n      pop\n        /* \"contracts/BusinessConsensus.sol\":3922:3923  1 */\n      0x01\n        /* \"contracts/BusinessConsensus.sol\":3900:3908  proposal */\n      0x0a\n        /* \"contracts/BusinessConsensus.sol\":3900:3918  proposal.voteCount */\n      0x00\n      add\n      0x00\n        /* \"contracts/BusinessConsensus.sol\":3900:3923  proposal.voteCount += 1 */\n      dup3\n      dup3\n      sload\n      tag_128\n      swap2\n      swap1\n      tag_123\n      jump\t// in\n    tag_128:\n      swap3\n      pop\n      pop\n      dup2\n      swap1\n      sstore\n      pop\n        /* \"contracts/BusinessConsensus.sol\":3938:3944  voters */\n      0x07\n        /* \"contracts/BusinessConsensus.sol\":3950:3960  voters_map */\n      0x09\n        /* \"contracts/BusinessConsensus.sol\":3950:3972  voters_map[msg.sender] */\n      0x00\n        /* \"contracts/BusinessConsensus.sol\":3961:3971  msg.sender */\n      caller\n        /* \"contracts/BusinessConsensus.sol\":3950:3972  voters_map[msg.sender] */\n      0xffffffffffffffffffffffffffffffffffffffff\n      and\n      0xffffffffffffffffffffffffffffffffffffffff\n      and\n      dup2\n      mstore\n      0x20\n      add\n      swap1\n      dup2\n      mstore\n      0x20\n      add\n      0x00\n      keccak256\n        /* \"contracts/BusinessConsensus.sol\":3938:3973  voters.push(voters_map[msg.sender]) */\n      swap1\n      dup1\n      0x01\n      dup2\n      sload\n      add\n      dup1\n      dup3\n      sstore\n      dup1\n      swap2\n      pop\n      pop\n      0x01\n      swap1\n      sub\n      swap1\n      0x00\n      mstore\n      keccak256(0x00, 0x20)\n      add\n      0x00\n      swap1\n      swap2\n      swap1\n      swap2\n      swap1\n      swap2\n      pop\n      0x00\n      dup3\n      add\n      0x00\n      swap1\n      sload\n      swap1\n      0x0100\n      exp\n      swap1\n      div\n      0xff\n      and\n      dup2\n      0x00\n      add\n      exp(0x0100, 0x00)\n      dup2\n      sload\n      dup2\n      0xff\n      mul\n      not\n      and\n      swap1\n      dup4\n      iszero\n      iszero\n      mul\n      or\n      swap1\n      sstore\n      pop\n      0x00\n      dup3\n      add\n      0x01\n      swap1\n      sload\n      swap1\n      0x0100\n      exp\n      swap1\n      div\n      0xffffffffffffffffffffffffffffffffffffffff\n      and\n      dup2\n      0x00\n      add\n      exp(0x0100, 0x01)\n      dup2\n      sload\n      dup2\n      0xffffffffffffffffffffffffffffffffffffffff\n      mul\n      not\n      and\n      swap1\n      dup4\n      0xffffffffffffffffffffffffffffffffffffffff\n      and\n      mul\n      or\n      swap1\n      sstore\n      pop\n      0x00\n      dup3\n      add\n      0x15\n      swap1\n      sload\n      swap1\n      0x0100\n      exp\n      swap1\n      div\n      0xff\n      and\n      dup2\n      0x00\n      add\n      exp(0x0100, 0x15)\n      dup2\n      sload\n      dup2\n      0xff\n      mul\n      not\n      and\n      swap1\n      dup4\n      iszero\n      iszero\n      mul\n      or\n      swap1\n      sstore\n      pop\n      pop\n      pop\n        /* \"contracts/BusinessConsensus.sol\":3769:3985  if(keccak256(bytes(response)) == keccak256(bytes(\"i disapprove\"))){... */\n    tag_127:\n        /* \"contracts/BusinessConsensus.sol\":3458:3985  if(keccak256(bytes(response)) == keccak256(bytes(\"i approve\"))){... */\n    tag_126:\n        /* \"contracts/BusinessConsensus.sol\":3115:4002  {... */\n      pop\n        /* \"contracts/BusinessConsensus.sol\":3068:4002  function Vote(string memory response) external {... */\n      pop\n      jump\t// out\n        /* \"contracts/BusinessConsensus.sol\":1889:2097  function getParameters(address test_address) public view returns (string memory, uint , address ,uint ,uint){... */\n    tag_48:\n        /* \"contracts/BusinessConsensus.sol\":1955:1968  string memory */\n      0x60\n        /* \"contracts/BusinessConsensus.sol\":1970:1974  uint */\n      0x00\n        /* \"contracts/BusinessConsensus.sol\":1977:1984  address */\n      dup1\n        /* \"contracts/BusinessConsensus.sol\":1986:1990  uint */\n      0x00\n        /* \"contracts/BusinessConsensus.sol\":1992:1996  uint */\n      dup1\n        /* \"contracts/BusinessConsensus.sol\":2016:2024  proposal */\n      0x0a\n        /* \"contracts/BusinessConsensus.sol\":2016:2034  proposal.messageID */\n      0x01\n      add\n        /* \"contracts/BusinessConsensus.sol\":2035:2045  expiryDate */\n      sload(0x01)\n        /* \"contracts/BusinessConsensus.sol\":2046:2055  initiator */\n      0x03\n      0x00\n      swap1\n      sload\n      swap1\n      0x0100\n      exp\n      swap1\n      div\n      0xffffffffffffffffffffffffffffffffffffffff\n      and\n        /* \"contracts/BusinessConsensus.sol\":2056:2075  BusinessRequirement */\n      sload(0x04)\n        /* \"contracts/BusinessConsensus.sol\":2076:2088  numApprovals */\n      sload(0x06)\n        /* \"contracts/BusinessConsensus.sol\":2008:2089  return (proposal.messageID,expiryDate,initiator,BusinessRequirement,numApprovals) */\n      dup5\n      dup1\n      sload\n      tag_131\n      swap1\n      tag_105\n      jump\t// in\n    tag_131:\n      dup1\n      0x1f\n      add\n      0x20\n      dup1\n      swap2\n      div\n      mul\n      0x20\n      add\n      mload(0x40)\n      swap1\n      dup2\n      add\n      0x40\n      mstore\n      dup1\n      swap3\n      swap2\n      swap1\n      dup2\n      dup2\n      mstore\n      0x20\n      add\n      dup3\n      dup1\n      sload\n      tag_132\n      swap1\n      tag_105\n      jump\t// in\n    tag_132:\n      dup1\n      iszero\n      tag_133\n      jumpi\n      dup1\n      0x1f\n      lt\n      tag_134\n      jumpi\n      0x0100\n      dup1\n      dup4\n      sload\n      div\n      mul\n      dup4\n      mstore\n      swap2\n      0x20\n      add\n      swap2\n      jump(tag_133)\n    tag_134:\n      dup3\n      add\n      swap2\n      swap1\n      0x00\n      mstore\n      keccak256(0x00, 0x20)\n      swap1\n    tag_135:\n      dup2\n      sload\n      dup2\n      mstore\n      swap1\n      0x01\n      add\n      swap1\n      0x20\n      add\n      dup1\n      dup4\n      gt\n      tag_135\n      jumpi\n      dup3\n      swap1\n      sub\n      0x1f\n      and\n      dup3\n      add\n      swap2\n    tag_133:\n      pop\n      pop\n      pop\n      pop\n      pop\n      swap5\n      pop\n      swap5\n      pop\n      swap5\n      pop\n      swap5\n      pop\n      swap5\n      pop\n      swap5\n      pop\n        /* \"contracts/BusinessConsensus.sol\":1889:2097  function getParameters(address test_address) public view returns (string memory, uint , address ,uint ,uint){... */\n      swap2\n      swap4\n      swap6\n      swap1\n      swap3\n      swap5\n      pop\n      jump\t// out\n        /* \"contracts/BusinessConsensus.sol\":862:886  address public initiator */\n    tag_52:\n      0x03\n      0x00\n      swap1\n      sload\n      swap1\n      0x0100\n      exp\n      swap1\n      div\n      0xffffffffffffffffffffffffffffffffffffffff\n      and\n      dup2\n      jump\t// out\n        /* \"contracts/BusinessConsensus.sol\":935:968  uint public AccumulatedPercentage */\n    tag_55:\n      sload(0x05)\n      dup2\n      jump\t// out\n        /* \"contracts/BusinessConsensus.sol\":975:999  uint public numApprovals */\n    tag_59:\n      sload(0x06)\n      dup2\n      jump\t// out\n        /* \"contracts/BusinessConsensus.sol\":1184:1208  Proposal public proposal */\n    tag_62:\n      0x0a\n      dup1\n      0x00\n      add\n      sload\n      swap1\n      dup1\n      0x01\n      add\n      dup1\n      sload\n      tag_136\n      swap1\n      tag_105\n      jump\t// in\n    tag_136:\n      dup1\n      0x1f\n      add\n      0x20\n      dup1\n      swap2\n      div\n      mul\n      0x20\n      add\n      mload(0x40)\n      swap1\n      dup2\n      add\n      0x40\n      mstore\n      dup1\n      swap3\n      swap2\n      swap1\n      dup2\n      dup2\n      mstore\n      0x20\n      add\n      dup3\n      dup1\n      sload\n      tag_137\n      swap1\n      tag_105\n      jump\t// in\n    tag_137:\n      dup1\n      iszero\n      tag_138\n      jumpi\n      dup1\n      0x1f\n      lt\n      tag_139\n      jumpi\n      0x0100\n      dup1\n      dup4\n      sload\n      div\n      mul\n      dup4\n      mstore\n      swap2\n      0x20\n      add\n      swap2\n      jump(tag_138)\n    tag_139:\n      dup3\n      add\n      swap2\n      swap1\n      0x00\n      mstore\n      keccak256(0x00, 0x20)\n      swap1\n    tag_140:\n      dup2\n      sload\n      dup2\n      mstore\n      swap1\n      0x01\n      add\n      swap1\n      0x20\n      add\n      dup1\n      dup4\n      gt\n      tag_140\n      jumpi\n      dup3\n      swap1\n      sub\n      0x1f\n      and\n      dup3\n      add\n      swap2\n    tag_138:\n      pop\n      pop\n      pop\n      pop\n      pop\n      swap1\n      pop\n      dup3\n      jump\t// out\n        /* \"contracts/BusinessConsensus.sol\":2908:3013  function getVote(address voter) public view returns(bool){... */\n    tag_67:\n        /* \"contracts/BusinessConsensus.sol\":2960:2964  bool */\n      0x00\n        /* \"contracts/BusinessConsensus.sol\":2983:2993  voters_map */\n      0x09\n        /* \"contracts/BusinessConsensus.sol\":2983:3000  voters_map[voter] */\n      0x00\n        /* \"contracts/BusinessConsensus.sol\":2994:2999  voter */\n      dup4\n        /* \"contracts/BusinessConsensus.sol\":2983:3000  voters_map[voter] */\n      0xffffffffffffffffffffffffffffffffffffffff\n      and\n      0xffffffffffffffffffffffffffffffffffffffff\n      and\n      dup2\n      mstore\n      0x20\n      add\n      swap1\n      dup2\n      mstore\n      0x20\n      add\n      0x00\n      keccak256\n        /* \"contracts/BusinessConsensus.sol\":2983:3005  voters_map[voter].vote */\n      0x00\n      add\n      0x15\n      swap1\n      sload\n      swap1\n      0x0100\n      exp\n      swap1\n      div\n      0xff\n      and\n        /* \"contracts/BusinessConsensus.sol\":2976:3005  return voters_map[voter].vote */\n      swap1\n      pop\n        /* \"contracts/BusinessConsensus.sol\":2908:3013  function getVote(address voter) public view returns(bool){... */\n      swap2\n      swap1\n      pop\n      jump\t// out\n        /* \"contracts/BusinessConsensus.sol\":4066:4550  function Consensus() external {... */\n    tag_70:\n        /* \"contracts/BusinessConsensus.sol\":4134:4144  expiryDate */\n      sload(0x01)\n        /* \"contracts/BusinessConsensus.sol\":4115:4130  block.timestamp */\n      timestamp\n        /* \"contracts/BusinessConsensus.sol\":4115:4144  block.timestamp >= expiryDate */\n      lt\n      iszero\n        /* \"contracts/BusinessConsensus.sol\":4107:4181  require(block.timestamp >= expiryDate, \"Verdict has not been reached yet\") */\n      tag_143\n      jumpi\n      mload(0x40)\n      0x08c379a000000000000000000000000000000000000000000000000000000000\n      dup2\n      mstore\n      0x04\n      add\n      tag_144\n      swap1\n      tag_145\n      jump\t// in\n    tag_144:\n      mload(0x40)\n      dup1\n      swap2\n      sub\n      swap1\n      revert\n    tag_143:\n        /* \"contracts/BusinessConsensus.sol\":4243:4246  100 */\n      0x64\n        /* \"contracts/BusinessConsensus.sol\":4230:4234  keys */\n      0x08\n        /* \"contracts/BusinessConsensus.sol\":4230:4241  keys.length */\n      dup1\n      sload\n      swap1\n      pop\n        /* \"contracts/BusinessConsensus.sol\":4217:4229  numApprovals */\n      sload(0x06)\n        /* \"contracts/BusinessConsensus.sol\":4217:4241  numApprovals/keys.length */\n      tag_146\n      swap2\n      swap1\n      tag_147\n      jump\t// in\n    tag_146:\n        /* \"contracts/BusinessConsensus.sol\":4216:4246  (numApprovals/keys.length)*100 */\n      tag_148\n      swap2\n      swap1\n      tag_149\n      jump\t// in\n    tag_148:\n        /* \"contracts/BusinessConsensus.sol\":4192:4213  AccumulatedPercentage */\n      0x05\n        /* \"contracts/BusinessConsensus.sol\":4192:4246  AccumulatedPercentage = (numApprovals/keys.length)*100 */\n      dup2\n      swap1\n      sstore\n      pop\n        /* \"contracts/BusinessConsensus.sol\":4285:4304  BusinessRequirement */\n      sload(0x04)\n        /* \"contracts/BusinessConsensus.sol\":4260:4281  AccumulatedPercentage */\n      sload(0x05)\n        /* \"contracts/BusinessConsensus.sol\":4260:4304  AccumulatedPercentage >= BusinessRequirement */\n      lt\n        /* \"contracts/BusinessConsensus.sol\":4257:4357  if(AccumulatedPercentage >= BusinessRequirement){... */\n      tag_150\n      jumpi\n        /* \"contracts/BusinessConsensus.sol\":4320:4345  finalVerdict = \"Accepted\" */\n      mload(0x40)\n      dup1\n      0x40\n      add\n      0x40\n      mstore\n      dup1\n      0x08\n      dup2\n      mstore\n      0x20\n      add\n      0x4163636570746564000000000000000000000000000000000000000000000000\n      dup2\n      mstore\n      pop\n        /* \"contracts/BusinessConsensus.sol\":4320:4332  finalVerdict */\n      0x02\n        /* \"contracts/BusinessConsensus.sol\":4320:4345  finalVerdict = \"Accepted\" */\n      swap1\n      dup2\n      tag_151\n      swap2\n      swap1\n      tag_152\n      jump\t// in\n    tag_151:\n      pop\n        /* \"contracts/BusinessConsensus.sol\":4257:4357  if(AccumulatedPercentage >= BusinessRequirement){... */\n    tag_150:\n        /* \"contracts/BusinessConsensus.sol\":4371:4378  uint8 i */\n      0x00\n        /* \"contracts/BusinessConsensus.sol\":4367:4533  for(uint8 i=0; i< keys.length; i++){... */\n    tag_153:\n        /* \"contracts/BusinessConsensus.sol\":4385:4389  keys */\n      0x08\n        /* \"contracts/BusinessConsensus.sol\":4385:4396  keys.length */\n      dup1\n      sload\n      swap1\n      pop\n        /* \"contracts/BusinessConsensus.sol\":4382:4383  i */\n      dup2\n        /* \"contracts/BusinessConsensus.sol\":4382:4396  i< keys.length */\n      0xff\n      and\n      lt\n        /* \"contracts/BusinessConsensus.sol\":4367:4533  for(uint8 i=0; i< keys.length; i++){... */\n      iszero\n      tag_154\n      jumpi\n        /* \"contracts/BusinessConsensus.sol\":4449:4454  false */\n      0x00\n        /* \"contracts/BusinessConsensus.sol\":4420:4454  voters_map[keys[i]].voted == false */\n      iszero\n      iszero\n        /* \"contracts/BusinessConsensus.sol\":4420:4430  voters_map */\n      0x09\n        /* \"contracts/BusinessConsensus.sol\":4420:4439  voters_map[keys[i]] */\n      0x00\n        /* \"contracts/BusinessConsensus.sol\":4431:4435  keys */\n      0x08\n        /* \"contracts/BusinessConsensus.sol\":4436:4437  i */\n      dup5\n        /* \"contracts/BusinessConsensus.sol\":4431:4438  keys[i] */\n      0xff\n      and\n      dup2\n      sload\n      dup2\n      lt\n      tag_156\n      jumpi\n      tag_157\n      tag_158\n      jump\t// in\n    tag_157:\n    tag_156:\n      swap1\n      0x00\n      mstore\n      keccak256(0x00, 0x20)\n      add\n      0x00\n      swap1\n      sload\n      swap1\n      0x0100\n      exp\n      swap1\n      div\n      0xffffffffffffffffffffffffffffffffffffffff\n      and\n        /* \"contracts/BusinessConsensus.sol\":4420:4439  voters_map[keys[i]] */\n      0xffffffffffffffffffffffffffffffffffffffff\n      and\n      0xffffffffffffffffffffffffffffffffffffffff\n      and\n      dup2\n      mstore\n      0x20\n      add\n      swap1\n      dup2\n      mstore\n      0x20\n      add\n      0x00\n      keccak256\n        /* \"contracts/BusinessConsensus.sol\":4420:4445  voters_map[keys[i]].voted */\n      0x00\n      add\n      0x00\n      swap1\n      sload\n      swap1\n      0x0100\n      exp\n      swap1\n      div\n      0xff\n      and\n        /* \"contracts/BusinessConsensus.sol\":4420:4454  voters_map[keys[i]].voted == false */\n      iszero\n      iszero\n      sub\n        /* \"contracts/BusinessConsensus.sol\":4417:4522  if(voters_map[keys[i]].voted == false){... */\n      tag_160\n      jumpi\n        /* \"contracts/BusinessConsensus.sol\":4474:4480  voters */\n      0x07\n        /* \"contracts/BusinessConsensus.sol\":4486:4496  voters_map */\n      0x09\n        /* \"contracts/BusinessConsensus.sol\":4486:4505  voters_map[keys[i]] */\n      0x00\n        /* \"contracts/BusinessConsensus.sol\":4497:4501  keys */\n      0x08\n        /* \"contracts/BusinessConsensus.sol\":4502:4503  i */\n      dup5\n        /* \"contracts/BusinessConsensus.sol\":4497:4504  keys[i] */\n      0xff\n      and\n      dup2\n      sload\n      dup2\n      lt\n      tag_161\n      jumpi\n      tag_162\n      tag_158\n      jump\t// in\n    tag_162:\n    tag_161:\n      swap1\n      0x00\n      mstore\n      keccak256(0x00, 0x20)\n      add\n      0x00\n      swap1\n      sload\n      swap1\n      0x0100\n      exp\n      swap1\n      div\n      0xffffffffffffffffffffffffffffffffffffffff\n      and\n        /* \"contracts/BusinessConsensus.sol\":4486:4505  voters_map[keys[i]] */\n      0xffffffffffffffffffffffffffffffffffffffff\n      and\n      0xffffffffffffffffffffffffffffffffffffffff\n      and\n      dup2\n      mstore\n      0x20\n      add\n      swap1\n      dup2\n      mstore\n      0x20\n      add\n      0x00\n      keccak256\n        /* \"contracts/BusinessConsensus.sol\":4474:4506  voters.push(voters_map[keys[i]]) */\n      swap1\n      dup1\n      0x01\n      dup2\n      sload\n      add\n      dup1\n      dup3\n      sstore\n      dup1\n      swap2\n      pop\n      pop\n      0x01\n      swap1\n      sub\n      swap1\n      0x00\n      mstore\n      keccak256(0x00, 0x20)\n      add\n      0x00\n      swap1\n      swap2\n      swap1\n      swap2\n      swap1\n      swap2\n      pop\n      0x00\n      dup3\n      add\n      0x00\n      swap1\n      sload\n      swap1\n      0x0100\n      exp\n      swap1\n      div\n      0xff\n      and\n      dup2\n      0x00\n      add\n      exp(0x0100, 0x00)\n      dup2\n      sload\n      dup2\n      0xff\n      mul\n      not\n      and\n      swap1\n      dup4\n      iszero\n      iszero\n      mul\n      or\n      swap1\n      sstore\n      pop\n      0x00\n      dup3\n      add\n      0x01\n      swap1\n      sload\n      swap1\n      0x0100\n      exp\n      swap1\n      div\n      0xffffffffffffffffffffffffffffffffffffffff\n      and\n      dup2\n      0x00\n      add\n      exp(0x0100, 0x01)\n      dup2\n      sload\n      dup2\n      0xffffffffffffffffffffffffffffffffffffffff\n      mul\n      not\n      and\n      swap1\n      dup4\n      0xffffffffffffffffffffffffffffffffffffffff\n      and\n      mul\n      or\n      swap1\n      sstore\n      pop\n      0x00\n      dup3\n      add\n      0x15\n      swap1\n      sload\n      swap1\n      0x0100\n      exp\n      swap1\n      div\n      0xff\n      and\n      dup2\n      0x00\n      add\n      exp(0x0100, 0x15)\n      dup2\n      sload\n      dup2\n      0xff\n      mul\n      not\n      and\n      swap1\n      dup4\n      iszero\n      iszero\n      mul\n      or\n      swap1\n      sstore\n      pop\n      pop\n      pop\n        /* \"contracts/BusinessConsensus.sol\":4417:4522  if(voters_map[keys[i]].voted == false){... */\n    tag_160:\n        /* \"contracts/BusinessConsensus.sol\":4398:4401  i++ */\n      dup1\n      dup1\n      tag_165\n      swap1\n      tag_166\n      jump\t// in\n    tag_165:\n      swap2\n      pop\n      pop\n        /* \"contracts/BusinessConsensus.sol\":4367:4533  for(uint8 i=0; i< keys.length; i++){... */\n      jump(tag_153)\n    tag_154:\n      pop\n        /* \"contracts/BusinessConsensus.sol\":4066:4550  function Consensus() external {... */\n      jump\t// out\n        /* \"contracts/BusinessConsensus.sol\":1064:1107  mapping(address => Voter) public voters_map */\n    tag_73:\n      mstore(0x20, 0x09)\n      dup1\n      0x00\n      mstore\n      keccak256(0x00, 0x40)\n      0x00\n      swap2\n      pop\n      swap1\n      pop\n      dup1\n      0x00\n      add\n      0x00\n      swap1\n      sload\n      swap1\n      0x0100\n      exp\n      swap1\n      div\n      0xff\n      and\n      swap1\n      dup1\n      0x00\n      add\n      0x01\n      swap1\n      sload\n      swap1\n      0x0100\n      exp\n      swap1\n      div\n      0xffffffffffffffffffffffffffffffffffffffff\n      and\n      swap1\n      dup1\n      0x00\n      add\n      0x15\n      swap1\n      sload\n      swap1\n      0x0100\n      exp\n      swap1\n      div\n      0xff\n      and\n      swap1\n      pop\n      dup4\n      jump\t// out\n        /* \"contracts/BusinessConsensus.sol\":897:928  uint public BusinessRequirement */\n    tag_77:\n      sload(0x04)\n      dup2\n      jump\t// out\n        /* \"contracts/BusinessConsensus.sol\":1008:1029  Voter[] public voters */\n    tag_81:\n      0x07\n      dup2\n      dup2\n      sload\n      dup2\n      lt\n      tag_167\n      jumpi\n      0x00\n      dup1\n      revert\n    tag_167:\n      swap1\n      0x00\n      mstore\n      keccak256(0x00, 0x20)\n      add\n      0x00\n      swap2\n      pop\n      swap1\n      pop\n      dup1\n      0x00\n      add\n      0x00\n      swap1\n      sload\n      swap1\n      0x0100\n      exp\n      swap1\n      div\n      0xff\n      and\n      swap1\n      dup1\n      0x00\n      add\n      0x01\n      swap1\n      sload\n      swap1\n      0x0100\n      exp\n      swap1\n      div\n      0xffffffffffffffffffffffffffffffffffffffff\n      and\n      swap1\n      dup1\n      0x00\n      add\n      0x15\n      swap1\n      sload\n      swap1\n      0x0100\n      exp\n      swap1\n      div\n      0xff\n      and\n      swap1\n      pop\n      dup4\n      jump\t// out\n        /* \"contracts/BusinessConsensus.sol\":596:626  address public contractAddress */\n    tag_84:\n      0x00\n      dup1\n      sload\n      swap1\n      0x0100\n      exp\n      swap1\n      div\n      0xffffffffffffffffffffffffffffffffffffffff\n      and\n      dup2\n      jump\t// out\n        /* \"contracts/BusinessConsensus.sol\":4558:4797  function Bundle() public view returns (string memory, Proposal memory, Voter[] memory){... */\n    tag_87:\n        /* \"contracts/BusinessConsensus.sol\":4597:4610  string memory */\n      0x60\n        /* \"contracts/BusinessConsensus.sol\":4612:4627  Proposal memory */\n      tag_169\n      tag_170\n      jump\t// in\n    tag_169:\n        /* \"contracts/BusinessConsensus.sol\":4629:4643  Voter[] memory */\n      0x60\n        /* \"contracts/BusinessConsensus.sol\":4682:4692  expiryDate */\n      sload(0x01)\n        /* \"contracts/BusinessConsensus.sol\":4663:4678  block.timestamp */\n      timestamp\n        /* \"contracts/BusinessConsensus.sol\":4663:4692  block.timestamp >= expiryDate */\n      lt\n      iszero\n        /* \"contracts/BusinessConsensus.sol\":4655:4729  require(block.timestamp >= expiryDate, \"Verdict has not been reached yet\") */\n      tag_172\n      jumpi\n      mload(0x40)\n      0x08c379a000000000000000000000000000000000000000000000000000000000\n      dup2\n      mstore\n      0x04\n      add\n      tag_173\n      swap1\n      tag_145\n      jump\t// in\n    tag_173:\n      mload(0x40)\n      dup1\n      swap2\n      sub\n      swap1\n      revert\n    tag_172:\n        /* \"contracts/BusinessConsensus.sol\":4748:4760  finalVerdict */\n      0x02\n        /* \"contracts/BusinessConsensus.sol\":4762:4770  proposal */\n      0x0a\n        /* \"contracts/BusinessConsensus.sol\":4772:4778  voters */\n      0x07\n        /* \"contracts/BusinessConsensus.sol\":4740:4779  return (finalVerdict, proposal, voters) */\n      dup3\n      dup1\n      sload\n      tag_174\n      swap1\n      tag_105\n      jump\t// in\n    tag_174:\n      dup1\n      0x1f\n      add\n      0x20\n      dup1\n      swap2\n      div\n      mul\n      0x20\n      add\n      mload(0x40)\n      swap1\n      dup2\n      add\n      0x40\n      mstore\n      dup1\n      swap3\n      swap2\n      swap1\n      dup2\n      dup2\n      mstore\n      0x20\n      add\n      dup3\n      dup1\n      sload\n      tag_175\n      swap1\n      tag_105\n      jump\t// in\n    tag_175:\n      dup1\n      iszero\n      tag_176\n      jumpi\n      dup1\n      0x1f\n      lt\n      tag_177\n      jumpi\n      0x0100\n      dup1\n      dup4\n      sload\n      div\n      mul\n      dup4\n      mstore\n      swap2\n      0x20\n      add\n      swap2\n      jump(tag_176)\n    tag_177:\n      dup3\n      add\n      swap2\n      swap1\n      0x00\n      mstore\n      keccak256(0x00, 0x20)\n      swap1\n    tag_178:\n      dup2\n      sload\n      dup2\n      mstore\n      swap1\n      0x01\n      add\n      swap1\n      0x20\n      add\n      dup1\n      dup4\n      gt\n      tag_178\n      jumpi\n      dup3\n      swap1\n      sub\n      0x1f\n      and\n      dup3\n      add\n      swap2\n    tag_176:\n      pop\n      pop\n      pop\n      pop\n      pop\n      swap3\n      pop\n      dup2\n      mload(0x40)\n      dup1\n      0x40\n      add\n      0x40\n      mstore\n      swap1\n      dup2\n      0x00\n      dup3\n      add\n      sload\n      dup2\n      mstore\n      0x20\n      add\n      0x01\n      dup3\n      add\n      dup1\n      sload\n      tag_179\n      swap1\n      tag_105\n      jump\t// in\n    tag_179:\n      dup1\n      0x1f\n      add\n      0x20\n      dup1\n      swap2\n      div\n      mul\n      0x20\n      add\n      mload(0x40)\n      swap1\n      dup2\n      add\n      0x40\n      mstore\n      dup1\n      swap3\n      swap2\n      swap1\n      dup2\n      dup2\n      mstore\n      0x20\n      add\n      dup3\n      dup1\n      sload\n      tag_180\n      swap1\n      tag_105\n      jump\t// in\n    tag_180:\n      dup1\n      iszero\n      tag_181\n      jumpi\n      dup1\n      0x1f\n      lt\n      tag_182\n      jumpi\n      0x0100\n      dup1\n      dup4\n      sload\n      div\n      mul\n      dup4\n      mstore\n      swap2\n      0x20\n      add\n      swap2\n      jump(tag_181)\n    tag_182:\n      dup3\n      add\n      swap2\n      swap1\n      0x00\n      mstore\n      keccak256(0x00, 0x20)\n      swap1\n    tag_183:\n      dup2\n      sload\n      dup2\n      mstore\n      swap1\n      0x01\n      add\n      swap1\n      0x20\n      add\n      dup1\n      dup4\n      gt\n      tag_183\n      jumpi\n      dup3\n      swap1\n      sub\n      0x1f\n      and\n      dup3\n      add\n      swap2\n    tag_181:\n      pop\n      pop\n      pop\n      pop\n      pop\n      dup2\n      mstore\n      pop\n      pop\n      swap2\n      pop\n      dup1\n      dup1\n      sload\n      dup1\n      0x20\n      mul\n      0x20\n      add\n      mload(0x40)\n      swap1\n      dup2\n      add\n      0x40\n      mstore\n      dup1\n      swap3\n      swap2\n      swap1\n      dup2\n      dup2\n      mstore\n      0x20\n      add\n      0x00\n      swap1\n    tag_184:\n      dup3\n      dup3\n      lt\n      iszero\n      tag_185\n      jumpi\n      dup4\n      dup3\n      swap1\n      0x00\n      mstore\n      keccak256(0x00, 0x20)\n      add\n      mload(0x40)\n      dup1\n      0x60\n      add\n      0x40\n      mstore\n      swap1\n      dup2\n      0x00\n      dup3\n      add\n      0x00\n      swap1\n      sload\n      swap1\n      0x0100\n      exp\n      swap1\n      div\n      0xff\n      and\n      iszero\n      iszero\n      iszero\n      iszero\n      dup2\n      mstore\n      0x20\n      add\n      0x00\n      dup3\n      add\n      0x01\n      swap1\n      sload\n      swap1\n      0x0100\n      exp\n      swap1\n      div\n      0xffffffffffffffffffffffffffffffffffffffff\n      and\n      0xffffffffffffffffffffffffffffffffffffffff\n      and\n      0xffffffffffffffffffffffffffffffffffffffff\n      and\n      dup2\n      mstore\n      0x20\n      add\n      0x00\n      dup3\n      add\n      0x15\n      swap1\n      sload\n      swap1\n      0x0100\n      exp\n      swap1\n      div\n      0xff\n      and\n      iszero\n      iszero\n      iszero\n      iszero\n      dup2\n      mstore\n      pop\n      pop\n      dup2\n      mstore\n      0x20\n      add\n      swap1\n      0x01\n      add\n      swap1\n      jump(tag_184)\n    tag_185:\n      pop\n      pop\n      pop\n      pop\n      swap1\n      pop\n      swap3\n      pop\n      swap3\n      pop\n      swap3\n      pop\n        /* \"contracts/BusinessConsensus.sol\":4558:4797  function Bundle() public view returns (string memory, Proposal memory, Voter[] memory){... */\n      swap1\n      swap2\n      swap3\n      jump\t// out\n    tag_170:\n      mload(0x40)\n      dup1\n      0x40\n      add\n      0x40\n      mstore\n      dup1\n      0x00\n      dup2\n      mstore\n      0x20\n      add\n      0x60\n      dup2\n      mstore\n      pop\n      swap1\n      jump\t// out\n        /* \"#utility.yul\":7:82   */\n    tag_187:\n        /* \"#utility.yul\":40:46   */\n      0x00\n        /* \"#utility.yul\":73:75   */\n      0x40\n        /* \"#utility.yul\":67:76   */\n      mload\n        /* \"#utility.yul\":57:76   */\n      swap1\n      pop\n        /* \"#utility.yul\":7:82   */\n      swap1\n      jump\t// out\n        /* \"#utility.yul\":88:205   */\n    tag_188:\n        /* \"#utility.yul\":197:198   */\n      0x00\n        /* \"#utility.yul\":194:195   */\n      dup1\n        /* \"#utility.yul\":187:199   */\n      revert\n        /* \"#utility.yul\":211:328   */\n    tag_189:\n        /* \"#utility.yul\":320:321   */\n      0x00\n        /* \"#utility.yul\":317:318   */\n      dup1\n        /* \"#utility.yul\":310:322   */\n      revert\n        /* \"#utility.yul\":334:411   */\n    tag_190:\n        /* \"#utility.yul\":371:378   */\n      0x00\n        /* \"#utility.yul\":400:405   */\n      dup2\n        /* \"#utility.yul\":389:405   */\n      swap1\n      pop\n        /* \"#utility.yul\":334:411   */\n      swap2\n      swap1\n      pop\n      jump\t// out\n        /* \"#utility.yul\":417:539   */\n    tag_191:\n        /* \"#utility.yul\":490:514   */\n      tag_267\n        /* \"#utility.yul\":508:513   */\n      dup2\n        /* \"#utility.yul\":490:514   */\n      tag_190\n      jump\t// in\n    tag_267:\n        /* \"#utility.yul\":483:488   */\n      dup2\n        /* \"#utility.yul\":480:515   */\n      eq\n        /* \"#utility.yul\":470:533   */\n      tag_268\n      jumpi\n        /* \"#utility.yul\":529:530   */\n      0x00\n        /* \"#utility.yul\":526:527   */\n      dup1\n        /* \"#utility.yul\":519:531   */\n      revert\n        /* \"#utility.yul\":470:533   */\n    tag_268:\n        /* \"#utility.yul\":417:539   */\n      pop\n      jump\t// out\n        /* \"#utility.yul\":545:684   */\n    tag_192:\n        /* \"#utility.yul\":591:596   */\n      0x00\n        /* \"#utility.yul\":629:635   */\n      dup2\n        /* \"#utility.yul\":616:636   */\n      calldataload\n        /* \"#utility.yul\":607:636   */\n      swap1\n      pop\n        /* \"#utility.yul\":645:678   */\n      tag_270\n        /* \"#utility.yul\":672:677   */\n      dup2\n        /* \"#utility.yul\":645:678   */\n      tag_191\n      jump\t// in\n    tag_270:\n        /* \"#utility.yul\":545:684   */\n      swap3\n      swap2\n      pop\n      pop\n      jump\t// out\n        /* \"#utility.yul\":690:1019   */\n    tag_25:\n        /* \"#utility.yul\":749:755   */\n      0x00\n        /* \"#utility.yul\":798:800   */\n      0x20\n        /* \"#utility.yul\":786:795   */\n      dup3\n        /* \"#utility.yul\":777:784   */\n      dup5\n        /* \"#utility.yul\":773:796   */\n      sub\n        /* \"#utility.yul\":769:801   */\n      slt\n        /* \"#utility.yul\":766:885   */\n      iszero\n      tag_272\n      jumpi\n        /* \"#utility.yul\":804:883   */\n      tag_273\n      tag_188\n      jump\t// in\n    tag_273:\n        /* \"#utility.yul\":766:885   */\n    tag_272:\n        /* \"#utility.yul\":924:925   */\n      0x00\n        /* \"#utility.yul\":949:1002   */\n      tag_274\n        /* \"#utility.yul\":994:1001   */\n      dup5\n        /* \"#utility.yul\":985:991   */\n      dup3\n        /* \"#utility.yul\":974:983   */\n      dup6\n        /* \"#utility.yul\":970:992   */\n      add\n        /* \"#utility.yul\":949:1002   */\n      tag_192\n      jump\t// in\n    tag_274:\n        /* \"#utility.yul\":939:1002   */\n      swap2\n      pop\n        /* \"#utility.yul\":895:1012   */\n      pop\n        /* \"#utility.yul\":690:1019   */\n      swap3\n      swap2\n      pop\n      pop\n      jump\t// out\n        /* \"#utility.yul\":1025:1151   */\n    tag_193:\n        /* \"#utility.yul\":1062:1069   */\n      0x00\n        /* \"#utility.yul\":1102:1144   */\n      0xffffffffffffffffffffffffffffffffffffffff\n        /* \"#utility.yul\":1095:1100   */\n      dup3\n        /* \"#utility.yul\":1091:1145   */\n      and\n        /* \"#utility.yul\":1080:1145   */\n      swap1\n      pop\n        /* \"#utility.yul\":1025:1151   */\n      swap2\n      swap1\n      pop\n      jump\t// out\n        /* \"#utility.yul\":1157:1253   */\n    tag_194:\n        /* \"#utility.yul\":1194:1201   */\n      0x00\n        /* \"#utility.yul\":1223:1247   */\n      tag_277\n        /* \"#utility.yul\":1241:1246   */\n      dup3\n        /* \"#utility.yul\":1223:1247   */\n      tag_193\n      jump\t// in\n    tag_277:\n        /* \"#utility.yul\":1212:1247   */\n      swap1\n      pop\n        /* \"#utility.yul\":1157:1253   */\n      swap2\n      swap1\n      pop\n      jump\t// out\n        /* \"#utility.yul\":1259:1377   */\n    tag_195:\n        /* \"#utility.yul\":1346:1370   */\n      tag_279\n        /* \"#utility.yul\":1364:1369   */\n      dup2\n        /* \"#utility.yul\":1346:1370   */\n      tag_194\n      jump\t// in\n    tag_279:\n        /* \"#utility.yul\":1341:1344   */\n      dup3\n        /* \"#utility.yul\":1334:1371   */\n      mstore\n        /* \"#utility.yul\":1259:1377   */\n      pop\n      pop\n      jump\t// out\n        /* \"#utility.yul\":1383:1605   */\n    tag_28:\n        /* \"#utility.yul\":1476:1480   */\n      0x00\n        /* \"#utility.yul\":1514:1516   */\n      0x20\n        /* \"#utility.yul\":1503:1512   */\n      dup3\n        /* \"#utility.yul\":1499:1517   */\n      add\n        /* \"#utility.yul\":1491:1517   */\n      swap1\n      pop\n        /* \"#utility.yul\":1527:1598   */\n      tag_281\n        /* \"#utility.yul\":1595:1596   */\n      0x00\n        /* \"#utility.yul\":1584:1593   */\n      dup4\n        /* \"#utility.yul\":1580:1597   */\n      add\n        /* \"#utility.yul\":1571:1577   */\n      dup5\n        /* \"#utility.yul\":1527:1598   */\n      tag_195\n      jump\t// in\n    tag_281:\n        /* \"#utility.yul\":1383:1605   */\n      swap3\n      swap2\n      pop\n      pop\n      jump\t// out\n        /* \"#utility.yul\":1611:1733   */\n    tag_196:\n        /* \"#utility.yul\":1684:1708   */\n      tag_283\n        /* \"#utility.yul\":1702:1707   */\n      dup2\n        /* \"#utility.yul\":1684:1708   */\n      tag_194\n      jump\t// in\n    tag_283:\n        /* \"#utility.yul\":1677:1682   */\n      dup2\n        /* \"#utility.yul\":1674:1709   */\n      eq\n        /* \"#utility.yul\":1664:1727   */\n      tag_284\n      jumpi\n        /* \"#utility.yul\":1723:1724   */\n      0x00\n        /* \"#utility.yul\":1720:1721   */\n      dup1\n        /* \"#utility.yul\":1713:1725   */\n      revert\n        /* \"#utility.yul\":1664:1727   */\n    tag_284:\n        /* \"#utility.yul\":1611:1733   */\n      pop\n      jump\t// out\n        /* \"#utility.yul\":1739:1878   */\n    tag_197:\n        /* \"#utility.yul\":1785:1790   */\n      0x00\n        /* \"#utility.yul\":1823:1829   */\n      dup2\n        /* \"#utility.yul\":1810:1830   */\n      calldataload\n        /* \"#utility.yul\":1801:1830   */\n      swap1\n      pop\n        /* \"#utility.yul\":1839:1872   */\n      tag_286\n        /* \"#utility.yul\":1866:1871   */\n      dup2\n        /* \"#utility.yul\":1839:1872   */\n      tag_196\n      jump\t// in\n    tag_286:\n        /* \"#utility.yul\":1739:1878   */\n      swap3\n      swap2\n      pop\n      pop\n      jump\t// out\n        /* \"#utility.yul\":1884:2213   */\n    tag_31:\n        /* \"#utility.yul\":1943:1949   */\n      0x00\n        /* \"#utility.yul\":1992:1994   */\n      0x20\n        /* \"#utility.yul\":1980:1989   */\n      dup3\n        /* \"#utility.yul\":1971:1978   */\n      dup5\n        /* \"#utility.yul\":1967:1990   */\n      sub\n        /* \"#utility.yul\":1963:1995   */\n      slt\n        /* \"#utility.yul\":1960:2079   */\n      iszero\n      tag_288\n      jumpi\n        /* \"#utility.yul\":1998:2077   */\n      tag_289\n      tag_188\n      jump\t// in\n    tag_289:\n        /* \"#utility.yul\":1960:2079   */\n    tag_288:\n        /* \"#utility.yul\":2118:2119   */\n      0x00\n        /* \"#utility.yul\":2143:2196   */\n      tag_290\n        /* \"#utility.yul\":2188:2195   */\n      dup5\n        /* \"#utility.yul\":2179:2185   */\n      dup3\n        /* \"#utility.yul\":2168:2177   */\n      dup6\n        /* \"#utility.yul\":2164:2186   */\n      add\n        /* \"#utility.yul\":2143:2196   */\n      tag_197\n      jump\t// in\n    tag_290:\n        /* \"#utility.yul\":2133:2196   */\n      swap2\n      pop\n        /* \"#utility.yul\":2089:2206   */\n      pop\n        /* \"#utility.yul\":1884:2213   */\n      swap3\n      swap2\n      pop\n      pop\n      jump\t// out\n        /* \"#utility.yul\":2219:2318   */\n    tag_198:\n        /* \"#utility.yul\":2271:2277   */\n      0x00\n        /* \"#utility.yul\":2305:2310   */\n      dup2\n        /* \"#utility.yul\":2299:2311   */\n      mload\n        /* \"#utility.yul\":2289:2311   */\n      swap1\n      pop\n        /* \"#utility.yul\":2219:2318   */\n      swap2\n      swap1\n      pop\n      jump\t// out\n        /* \"#utility.yul\":2324:2493   */\n    tag_199:\n        /* \"#utility.yul\":2408:2419   */\n      0x00\n        /* \"#utility.yul\":2442:2448   */\n      dup3\n        /* \"#utility.yul\":2437:2440   */\n      dup3\n        /* \"#utility.yul\":2430:2449   */\n      mstore\n        /* \"#utility.yul\":2482:2486   */\n      0x20\n        /* \"#utility.yul\":2477:2480   */\n      dup3\n        /* \"#utility.yul\":2473:2487   */\n      add\n        /* \"#utility.yul\":2458:2487   */\n      swap1\n      pop\n        /* \"#utility.yul\":2324:2493   */\n      swap3\n      swap2\n      pop\n      pop\n      jump\t// out\n        /* \"#utility.yul\":2499:2806   */\n    tag_200:\n        /* \"#utility.yul\":2567:2568   */\n      0x00\n        /* \"#utility.yul\":2577:2690   */\n    tag_294:\n        /* \"#utility.yul\":2591:2597   */\n      dup4\n        /* \"#utility.yul\":2588:2589   */\n      dup2\n        /* \"#utility.yul\":2585:2598   */\n      lt\n        /* \"#utility.yul\":2577:2690   */\n      iszero\n      tag_296\n      jumpi\n        /* \"#utility.yul\":2676:2677   */\n      dup1\n        /* \"#utility.yul\":2671:2674   */\n      dup3\n        /* \"#utility.yul\":2667:2678   */\n      add\n        /* \"#utility.yul\":2661:2679   */\n      mload\n        /* \"#utility.yul\":2657:2658   */\n      dup2\n        /* \"#utility.yul\":2652:2655   */\n      dup5\n        /* \"#utility.yul\":2648:2659   */\n      add\n        /* \"#utility.yul\":2641:2680   */\n      mstore\n        /* \"#utility.yul\":2613:2615   */\n      0x20\n        /* \"#utility.yul\":2610:2611   */\n      dup2\n        /* \"#utility.yul\":2606:2616   */\n      add\n        /* \"#utility.yul\":2601:2616   */\n      swap1\n      pop\n        /* \"#utility.yul\":2577:2690   */\n      jump(tag_294)\n    tag_296:\n        /* \"#utility.yul\":2708:2714   */\n      dup4\n        /* \"#utility.yul\":2705:2706   */\n      dup2\n        /* \"#utility.yul\":2702:2715   */\n      gt\n        /* \"#utility.yul\":2699:2800   */\n      iszero\n      tag_297\n      jumpi\n        /* \"#utility.yul\":2788:2789   */\n      0x00\n        /* \"#utility.yul\":2779:2785   */\n      dup5\n        /* \"#utility.yul\":2774:2777   */\n      dup5\n        /* \"#utility.yul\":2770:2786   */\n      add\n        /* \"#utility.yul\":2763:2790   */\n      mstore\n        /* \"#utility.yul\":2699:2800   */\n    tag_297:\n        /* \"#utility.yul\":2548:2806   */\n      pop\n        /* \"#utility.yul\":2499:2806   */\n      pop\n      pop\n      pop\n      jump\t// out\n        /* \"#utility.yul\":2812:2914   */\n    tag_201:\n        /* \"#utility.yul\":2853:2859   */\n      0x00\n        /* \"#utility.yul\":2904:2906   */\n      0x1f\n        /* \"#utility.yul\":2900:2907   */\n      not\n        /* \"#utility.yul\":2895:2897   */\n      0x1f\n        /* \"#utility.yul\":2888:2893   */\n      dup4\n        /* \"#utility.yul\":2884:2898   */\n      add\n        /* \"#utility.yul\":2880:2908   */\n      and\n        /* \"#utility.yul\":2870:2908   */\n      swap1\n      pop\n        /* \"#utility.yul\":2812:2914   */\n      swap2\n      swap1\n      pop\n      jump\t// out\n        /* \"#utility.yul\":2920:3284   */\n    tag_202:\n        /* \"#utility.yul\":3008:3011   */\n      0x00\n        /* \"#utility.yul\":3036:3075   */\n      tag_300\n        /* \"#utility.yul\":3069:3074   */\n      dup3\n        /* \"#utility.yul\":3036:3075   */\n      tag_198\n      jump\t// in\n    tag_300:\n        /* \"#utility.yul\":3091:3162   */\n      tag_301\n        /* \"#utility.yul\":3155:3161   */\n      dup2\n        /* \"#utility.yul\":3150:3153   */\n      dup6\n        /* \"#utility.yul\":3091:3162   */\n      tag_199\n      jump\t// in\n    tag_301:\n        /* \"#utility.yul\":3084:3162   */\n      swap4\n      pop\n        /* \"#utility.yul\":3171:3223   */\n      tag_302\n        /* \"#utility.yul\":3216:3222   */\n      dup2\n        /* \"#utility.yul\":3211:3214   */\n      dup6\n        /* \"#utility.yul\":3204:3208   */\n      0x20\n        /* \"#utility.yul\":3197:3202   */\n      dup7\n        /* \"#utility.yul\":3193:3209   */\n      add\n        /* \"#utility.yul\":3171:3223   */\n      tag_200\n      jump\t// in\n    tag_302:\n        /* \"#utility.yul\":3248:3277   */\n      tag_303\n        /* \"#utility.yul\":3270:3276   */\n      dup2\n        /* \"#utility.yul\":3248:3277   */\n      tag_201\n      jump\t// in\n    tag_303:\n        /* \"#utility.yul\":3243:3246   */\n      dup5\n        /* \"#utility.yul\":3239:3278   */\n      add\n        /* \"#utility.yul\":3232:3278   */\n      swap2\n      pop\n        /* \"#utility.yul\":3012:3284   */\n      pop\n        /* \"#utility.yul\":2920:3284   */\n      swap3\n      swap2\n      pop\n      pop\n      jump\t// out\n        /* \"#utility.yul\":3290:3603   */\n    tag_36:\n        /* \"#utility.yul\":3403:3407   */\n      0x00\n        /* \"#utility.yul\":3441:3443   */\n      0x20\n        /* \"#utility.yul\":3430:3439   */\n      dup3\n        /* \"#utility.yul\":3426:3444   */\n      add\n        /* \"#utility.yul\":3418:3444   */\n      swap1\n      pop\n        /* \"#utility.yul\":3490:3499   */\n      dup2\n        /* \"#utility.yul\":3484:3488   */\n      dup2\n        /* \"#utility.yul\":3480:3500   */\n      sub\n        /* \"#utility.yul\":3476:3477   */\n      0x00\n        /* \"#utility.yul\":3465:3474   */\n      dup4\n        /* \"#utility.yul\":3461:3478   */\n      add\n        /* \"#utility.yul\":3454:3501   */\n      mstore\n        /* \"#utility.yul\":3518:3596   */\n      tag_305\n        /* \"#utility.yul\":3591:3595   */\n      dup2\n        /* \"#utility.yul\":3582:3588   */\n      dup5\n        /* \"#utility.yul\":3518:3596   */\n      tag_202\n      jump\t// in\n    tag_305:\n        /* \"#utility.yul\":3510:3596   */\n      swap1\n      pop\n        /* \"#utility.yul\":3290:3603   */\n      swap3\n      swap2\n      pop\n      pop\n      jump\t// out\n        /* \"#utility.yul\":3609:3699   */\n    tag_203:\n        /* \"#utility.yul\":3643:3650   */\n      0x00\n        /* \"#utility.yul\":3686:3691   */\n      dup2\n        /* \"#utility.yul\":3679:3692   */\n      iszero\n        /* \"#utility.yul\":3672:3693   */\n      iszero\n        /* \"#utility.yul\":3661:3693   */\n      swap1\n      pop\n        /* \"#utility.yul\":3609:3699   */\n      swap2\n      swap1\n      pop\n      jump\t// out\n        /* \"#utility.yul\":3705:3814   */\n    tag_204:\n        /* \"#utility.yul\":3786:3807   */\n      tag_308\n        /* \"#utility.yul\":3801:3806   */\n      dup2\n        /* \"#utility.yul\":3786:3807   */\n      tag_203\n      jump\t// in\n    tag_308:\n        /* \"#utility.yul\":3781:3784   */\n      dup3\n        /* \"#utility.yul\":3774:3808   */\n      mstore\n        /* \"#utility.yul\":3705:3814   */\n      pop\n      pop\n      jump\t// out\n        /* \"#utility.yul\":3820:4030   */\n    tag_41:\n        /* \"#utility.yul\":3907:3911   */\n      0x00\n        /* \"#utility.yul\":3945:3947   */\n      0x20\n        /* \"#utility.yul\":3934:3943   */\n      dup3\n        /* \"#utility.yul\":3930:3948   */\n      add\n        /* \"#utility.yul\":3922:3948   */\n      swap1\n      pop\n        /* \"#utility.yul\":3958:4023   */\n      tag_310\n        /* \"#utility.yul\":4020:4021   */\n      0x00\n        /* \"#utility.yul\":4009:4018   */\n      dup4\n        /* \"#utility.yul\":4005:4022   */\n      add\n        /* \"#utility.yul\":3996:4002   */\n      dup5\n        /* \"#utility.yul\":3958:4023   */\n      tag_204\n      jump\t// in\n    tag_310:\n        /* \"#utility.yul\":3820:4030   */\n      swap3\n      swap2\n      pop\n      pop\n      jump\t// out\n        /* \"#utility.yul\":4036:4153   */\n    tag_205:\n        /* \"#utility.yul\":4145:4146   */\n      0x00\n        /* \"#utility.yul\":4142:4143   */\n      dup1\n        /* \"#utility.yul\":4135:4147   */\n      revert\n        /* \"#utility.yul\":4159:4276   */\n    tag_206:\n        /* \"#utility.yul\":4268:4269   */\n      0x00\n        /* \"#utility.yul\":4265:4266   */\n      dup1\n        /* \"#utility.yul\":4258:4270   */\n      revert\n        /* \"#utility.yul\":4282:4462   */\n    tag_207:\n        /* \"#utility.yul\":4330:4407   */\n      0x4e487b7100000000000000000000000000000000000000000000000000000000\n        /* \"#utility.yul\":4327:4328   */\n      0x00\n        /* \"#utility.yul\":4320:4408   */\n      mstore\n        /* \"#utility.yul\":4427:4431   */\n      0x41\n        /* \"#utility.yul\":4424:4425   */\n      0x04\n        /* \"#utility.yul\":4417:4432   */\n      mstore\n        /* \"#utility.yul\":4451:4455   */\n      0x24\n        /* \"#utility.yul\":4448:4449   */\n      0x00\n        /* \"#utility.yul\":4441:4456   */\n      revert\n        /* \"#utility.yul\":4468:4749   */\n    tag_208:\n        /* \"#utility.yul\":4551:4578   */\n      tag_315\n        /* \"#utility.yul\":4573:4577   */\n      dup3\n        /* \"#utility.yul\":4551:4578   */\n      tag_201\n      jump\t// in\n    tag_315:\n        /* \"#utility.yul\":4543:4549   */\n      dup2\n        /* \"#utility.yul\":4539:4579   */\n      add\n        /* \"#utility.yul\":4681:4687   */\n      dup2\n        /* \"#utility.yul\":4669:4679   */\n      dup2\n        /* \"#utility.yul\":4666:4688   */\n      lt\n        /* \"#utility.yul\":4645:4663   */\n      0xffffffffffffffff\n        /* \"#utility.yul\":4633:4643   */\n      dup3\n        /* \"#utility.yul\":4630:4664   */\n      gt\n        /* \"#utility.yul\":4627:4689   */\n      or\n        /* \"#utility.yul\":4624:4712   */\n      iszero\n      tag_316\n      jumpi\n        /* \"#utility.yul\":4692:4710   */\n      tag_317\n      tag_207\n      jump\t// in\n    tag_317:\n        /* \"#utility.yul\":4624:4712   */\n    tag_316:\n        /* \"#utility.yul\":4732:4742   */\n      dup1\n        /* \"#utility.yul\":4728:4730   */\n      0x40\n        /* \"#utility.yul\":4721:4743   */\n      mstore\n        /* \"#utility.yul\":4511:4749   */\n      pop\n        /* \"#utility.yul\":4468:4749   */\n      pop\n      pop\n      jump\t// out\n        /* \"#utility.yul\":4755:4884   */\n    tag_209:\n        /* \"#utility.yul\":4789:4795   */\n      0x00\n        /* \"#utility.yul\":4816:4836   */\n      tag_319\n      tag_187\n      jump\t// in\n    tag_319:\n        /* \"#utility.yul\":4806:4836   */\n      swap1\n      pop\n        /* \"#utility.yul\":4845:4878   */\n      tag_320\n        /* \"#utility.yul\":4873:4877   */\n      dup3\n        /* \"#utility.yul\":4865:4871   */\n      dup3\n        /* \"#utility.yul\":4845:4878   */\n      tag_208\n      jump\t// in\n    tag_320:\n        /* \"#utility.yul\":4755:4884   */\n      swap2\n      swap1\n      pop\n      jump\t// out\n        /* \"#utility.yul\":4890:5198   */\n    tag_210:\n        /* \"#utility.yul\":4952:4956   */\n      0x00\n        /* \"#utility.yul\":5042:5060   */\n      0xffffffffffffffff\n        /* \"#utility.yul\":5034:5040   */\n      dup3\n        /* \"#utility.yul\":5031:5061   */\n      gt\n        /* \"#utility.yul\":5028:5084   */\n      iszero\n      tag_322\n      jumpi\n        /* \"#utility.yul\":5064:5082   */\n      tag_323\n      tag_207\n      jump\t// in\n    tag_323:\n        /* \"#utility.yul\":5028:5084   */\n    tag_322:\n        /* \"#utility.yul\":5102:5131   */\n      tag_324\n        /* \"#utility.yul\":5124:5130   */\n      dup3\n        /* \"#utility.yul\":5102:5131   */\n      tag_201\n      jump\t// in\n    tag_324:\n        /* \"#utility.yul\":5094:5131   */\n      swap1\n      pop\n        /* \"#utility.yul\":5186:5190   */\n      0x20\n        /* \"#utility.yul\":5180:5184   */\n      dup2\n        /* \"#utility.yul\":5176:5191   */\n      add\n        /* \"#utility.yul\":5168:5191   */\n      swap1\n      pop\n        /* \"#utility.yul\":4890:5198   */\n      swap2\n      swap1\n      pop\n      jump\t// out\n        /* \"#utility.yul\":5204:5358   */\n    tag_211:\n        /* \"#utility.yul\":5288:5294   */\n      dup3\n        /* \"#utility.yul\":5283:5286   */\n      dup2\n        /* \"#utility.yul\":5278:5281   */\n      dup4\n        /* \"#utility.yul\":5265:5295   */\n      calldatacopy\n        /* \"#utility.yul\":5350:5351   */\n      0x00\n        /* \"#utility.yul\":5341:5347   */\n      dup4\n        /* \"#utility.yul\":5336:5339   */\n      dup4\n        /* \"#utility.yul\":5332:5348   */\n      add\n        /* \"#utility.yul\":5325:5352   */\n      mstore\n        /* \"#utility.yul\":5204:5358   */\n      pop\n      pop\n      pop\n      jump\t// out\n        /* \"#utility.yul\":5364:5776   */\n    tag_212:\n        /* \"#utility.yul\":5442:5447   */\n      0x00\n        /* \"#utility.yul\":5467:5533   */\n      tag_327\n        /* \"#utility.yul\":5483:5532   */\n      tag_328\n        /* \"#utility.yul\":5525:5531   */\n      dup5\n        /* \"#utility.yul\":5483:5532   */\n      tag_210\n      jump\t// in\n    tag_328:\n        /* \"#utility.yul\":5467:5533   */\n      tag_209\n      jump\t// in\n    tag_327:\n        /* \"#utility.yul\":5458:5533   */\n      swap1\n      pop\n        /* \"#utility.yul\":5556:5562   */\n      dup3\n        /* \"#utility.yul\":5549:5554   */\n      dup2\n        /* \"#utility.yul\":5542:5563   */\n      mstore\n        /* \"#utility.yul\":5594:5598   */\n      0x20\n        /* \"#utility.yul\":5587:5592   */\n      dup2\n        /* \"#utility.yul\":5583:5599   */\n      add\n        /* \"#utility.yul\":5632:5635   */\n      dup5\n        /* \"#utility.yul\":5623:5629   */\n      dup5\n        /* \"#utility.yul\":5618:5621   */\n      dup5\n        /* \"#utility.yul\":5614:5630   */\n      add\n        /* \"#utility.yul\":5611:5636   */\n      gt\n        /* \"#utility.yul\":5608:5720   */\n      iszero\n      tag_329\n      jumpi\n        /* \"#utility.yul\":5639:5718   */\n      tag_330\n      tag_206\n      jump\t// in\n    tag_330:\n        /* \"#utility.yul\":5608:5720   */\n    tag_329:\n        /* \"#utility.yul\":5729:5770   */\n      tag_331\n        /* \"#utility.yul\":5763:5769   */\n      dup5\n        /* \"#utility.yul\":5758:5761   */\n      dup3\n        /* \"#utility.yul\":5753:5756   */\n      dup6\n        /* \"#utility.yul\":5729:5770   */\n      tag_211\n      jump\t// in\n    tag_331:\n        /* \"#utility.yul\":5448:5776   */\n      pop\n        /* \"#utility.yul\":5364:5776   */\n      swap4\n      swap3\n      pop\n      pop\n      pop\n      jump\t// out\n        /* \"#utility.yul\":5796:6136   */\n    tag_213:\n        /* \"#utility.yul\":5852:5857   */\n      0x00\n        /* \"#utility.yul\":5901:5904   */\n      dup3\n        /* \"#utility.yul\":5894:5898   */\n      0x1f\n        /* \"#utility.yul\":5886:5892   */\n      dup4\n        /* \"#utility.yul\":5882:5899   */\n      add\n        /* \"#utility.yul\":5878:5905   */\n      slt\n        /* \"#utility.yul\":5868:5990   */\n      tag_333\n      jumpi\n        /* \"#utility.yul\":5909:5988   */\n      tag_334\n      tag_205\n      jump\t// in\n    tag_334:\n        /* \"#utility.yul\":5868:5990   */\n    tag_333:\n        /* \"#utility.yul\":6026:6032   */\n      dup2\n        /* \"#utility.yul\":6013:6033   */\n      calldataload\n        /* \"#utility.yul\":6051:6130   */\n      tag_335\n        /* \"#utility.yul\":6126:6129   */\n      dup5\n        /* \"#utility.yul\":6118:6124   */\n      dup3\n        /* \"#utility.yul\":6111:6115   */\n      0x20\n        /* \"#utility.yul\":6103:6109   */\n      dup7\n        /* \"#utility.yul\":6099:6116   */\n      add\n        /* \"#utility.yul\":6051:6130   */\n      tag_212\n      jump\t// in\n    tag_335:\n        /* \"#utility.yul\":6042:6130   */\n      swap2\n      pop\n        /* \"#utility.yul\":5858:6136   */\n      pop\n        /* \"#utility.yul\":5796:6136   */\n      swap3\n      swap2\n      pop\n      pop\n      jump\t// out\n        /* \"#utility.yul\":6142:6651   */\n    tag_44:\n        /* \"#utility.yul\":6211:6217   */\n      0x00\n        /* \"#utility.yul\":6260:6262   */\n      0x20\n        /* \"#utility.yul\":6248:6257   */\n      dup3\n        /* \"#utility.yul\":6239:6246   */\n      dup5\n        /* \"#utility.yul\":6235:6258   */\n      sub\n        /* \"#utility.yul\":6231:6263   */\n      slt\n        /* \"#utility.yul\":6228:6347   */\n      iszero\n      tag_337\n      jumpi\n        /* \"#utility.yul\":6266:6345   */\n      tag_338\n      tag_188\n      jump\t// in\n    tag_338:\n        /* \"#utility.yul\":6228:6347   */\n    tag_337:\n        /* \"#utility.yul\":6414:6415   */\n      0x00\n        /* \"#utility.yul\":6403:6412   */\n      dup3\n        /* \"#utility.yul\":6399:6416   */\n      add\n        /* \"#utility.yul\":6386:6417   */\n      calldataload\n        /* \"#utility.yul\":6444:6462   */\n      0xffffffffffffffff\n        /* \"#utility.yul\":6436:6442   */\n      dup2\n        /* \"#utility.yul\":6433:6463   */\n      gt\n        /* \"#utility.yul\":6430:6547   */\n      iszero\n      tag_339\n      jumpi\n        /* \"#utility.yul\":6466:6545   */\n      tag_340\n      tag_189\n      jump\t// in\n    tag_340:\n        /* \"#utility.yul\":6430:6547   */\n    tag_339:\n        /* \"#utility.yul\":6571:6634   */\n      tag_341\n        /* \"#utility.yul\":6626:6633   */\n      dup5\n        /* \"#utility.yul\":6617:6623   */\n      dup3\n        /* \"#utility.yul\":6606:6615   */\n      dup6\n        /* \"#utility.yul\":6602:6624   */\n      add\n        /* \"#utility.yul\":6571:6634   */\n      tag_213\n      jump\t// in\n    tag_341:\n        /* \"#utility.yul\":6561:6634   */\n      swap2\n      pop\n        /* \"#utility.yul\":6357:6644   */\n      pop\n        /* \"#utility.yul\":6142:6651   */\n      swap3\n      swap2\n      pop\n      pop\n      jump\t// out\n        /* \"#utility.yul\":6657:6775   */\n    tag_214:\n        /* \"#utility.yul\":6744:6768   */\n      tag_343\n        /* \"#utility.yul\":6762:6767   */\n      dup2\n        /* \"#utility.yul\":6744:6768   */\n      tag_190\n      jump\t// in\n    tag_343:\n        /* \"#utility.yul\":6739:6742   */\n      dup3\n        /* \"#utility.yul\":6732:6769   */\n      mstore\n        /* \"#utility.yul\":6657:6775   */\n      pop\n      pop\n      jump\t// out\n        /* \"#utility.yul\":6781:7536   */\n    tag_50:\n        /* \"#utility.yul\":7006:7010   */\n      0x00\n        /* \"#utility.yul\":7044:7047   */\n      0xa0\n        /* \"#utility.yul\":7033:7042   */\n      dup3\n        /* \"#utility.yul\":7029:7048   */\n      add\n        /* \"#utility.yul\":7021:7048   */\n      swap1\n      pop\n        /* \"#utility.yul\":7094:7103   */\n      dup2\n        /* \"#utility.yul\":7088:7092   */\n      dup2\n        /* \"#utility.yul\":7084:7104   */\n      sub\n        /* \"#utility.yul\":7080:7081   */\n      0x00\n        /* \"#utility.yul\":7069:7078   */\n      dup4\n        /* \"#utility.yul\":7065:7082   */\n      add\n        /* \"#utility.yul\":7058:7105   */\n      mstore\n        /* \"#utility.yul\":7122:7200   */\n      tag_345\n        /* \"#utility.yul\":7195:7199   */\n      dup2\n        /* \"#utility.yul\":7186:7192   */\n      dup9\n        /* \"#utility.yul\":7122:7200   */\n      tag_202\n      jump\t// in\n    tag_345:\n        /* \"#utility.yul\":7114:7200   */\n      swap1\n      pop\n        /* \"#utility.yul\":7210:7282   */\n      tag_346\n        /* \"#utility.yul\":7278:7280   */\n      0x20\n        /* \"#utility.yul\":7267:7276   */\n      dup4\n        /* \"#utility.yul\":7263:7281   */\n      add\n        /* \"#utility.yul\":7254:7260   */\n      dup8\n        /* \"#utility.yul\":7210:7282   */\n      tag_214\n      jump\t// in\n    tag_346:\n        /* \"#utility.yul\":7292:7364   */\n      tag_347\n        /* \"#utility.yul\":7360:7362   */\n      0x40\n        /* \"#utility.yul\":7349:7358   */\n      dup4\n        /* \"#utility.yul\":7345:7363   */\n      add\n        /* \"#utility.yul\":7336:7342   */\n      dup7\n        /* \"#utility.yul\":7292:7364   */\n      tag_195\n      jump\t// in\n    tag_347:\n        /* \"#utility.yul\":7374:7446   */\n      tag_348\n        /* \"#utility.yul\":7442:7444   */\n      0x60\n        /* \"#utility.yul\":7431:7440   */\n      dup4\n        /* \"#utility.yul\":7427:7445   */\n      add\n        /* \"#utility.yul\":7418:7424   */\n      dup6\n        /* \"#utility.yul\":7374:7446   */\n      tag_214\n      jump\t// in\n    tag_348:\n        /* \"#utility.yul\":7456:7529   */\n      tag_349\n        /* \"#utility.yul\":7524:7527   */\n      0x80\n        /* \"#utility.yul\":7513:7522   */\n      dup4\n        /* \"#utility.yul\":7509:7528   */\n      add\n        /* \"#utility.yul\":7500:7506   */\n      dup5\n        /* \"#utility.yul\":7456:7529   */\n      tag_214\n      jump\t// in\n    tag_349:\n        /* \"#utility.yul\":6781:7536   */\n      swap7\n      swap6\n      pop\n      pop\n      pop\n      pop\n      pop\n      pop\n      jump\t// out\n        /* \"#utility.yul\":7542:7764   */\n    tag_57:\n        /* \"#utility.yul\":7635:7639   */\n      0x00\n        /* \"#utility.yul\":7673:7675   */\n      0x20\n        /* \"#utility.yul\":7662:7671   */\n      dup3\n        /* \"#utility.yul\":7658:7676   */\n      add\n        /* \"#utility.yul\":7650:7676   */\n      swap1\n      pop\n        /* \"#utility.yul\":7686:7757   */\n      tag_351\n        /* \"#utility.yul\":7754:7755   */\n      0x00\n        /* \"#utility.yul\":7743:7752   */\n      dup4\n        /* \"#utility.yul\":7739:7756   */\n      add\n        /* \"#utility.yul\":7730:7736   */\n      dup5\n        /* \"#utility.yul\":7686:7757   */\n      tag_214\n      jump\t// in\n    tag_351:\n        /* \"#utility.yul\":7542:7764   */\n      swap3\n      swap2\n      pop\n      pop\n      jump\t// out\n        /* \"#utility.yul\":7770:8193   */\n    tag_64:\n        /* \"#utility.yul\":7911:7915   */\n      0x00\n        /* \"#utility.yul\":7949:7951   */\n      0x40\n        /* \"#utility.yul\":7938:7947   */\n      dup3\n        /* \"#utility.yul\":7934:7952   */\n      add\n        /* \"#utility.yul\":7926:7952   */\n      swap1\n      pop\n        /* \"#utility.yul\":7962:8033   */\n      tag_353\n        /* \"#utility.yul\":8030:8031   */\n      0x00\n        /* \"#utility.yul\":8019:8028   */\n      dup4\n        /* \"#utility.yul\":8015:8032   */\n      add\n        /* \"#utility.yul\":8006:8012   */\n      dup6\n        /* \"#utility.yul\":7962:8033   */\n      tag_214\n      jump\t// in\n    tag_353:\n        /* \"#utility.yul\":8080:8089   */\n      dup2\n        /* \"#utility.yul\":8074:8078   */\n      dup2\n        /* \"#utility.yul\":8070:8090   */\n      sub\n        /* \"#utility.yul\":8065:8067   */\n      0x20\n        /* \"#utility.yul\":8054:8063   */\n      dup4\n        /* \"#utility.yul\":8050:8068   */\n      add\n        /* \"#utility.yul\":8043:8091   */\n      mstore\n        /* \"#utility.yul\":8108:8186   */\n      tag_354\n        /* \"#utility.yul\":8181:8185   */\n      dup2\n        /* \"#utility.yul\":8172:8178   */\n      dup5\n        /* \"#utility.yul\":8108:8186   */\n      tag_202\n      jump\t// in\n    tag_354:\n        /* \"#utility.yul\":8100:8186   */\n      swap1\n      pop\n        /* \"#utility.yul\":7770:8193   */\n      swap4\n      swap3\n      pop\n      pop\n      pop\n      jump\t// out\n        /* \"#utility.yul\":8199:8617   */\n    tag_75:\n        /* \"#utility.yul\":8336:8340   */\n      0x00\n        /* \"#utility.yul\":8374:8376   */\n      0x60\n        /* \"#utility.yul\":8363:8372   */\n      dup3\n        /* \"#utility.yul\":8359:8377   */\n      add\n        /* \"#utility.yul\":8351:8377   */\n      swap1\n      pop\n        /* \"#utility.yul\":8387:8452   */\n      tag_356\n        /* \"#utility.yul\":8449:8450   */\n      0x00\n        /* \"#utility.yul\":8438:8447   */\n      dup4\n        /* \"#utility.yul\":8434:8451   */\n      add\n        /* \"#utility.yul\":8425:8431   */\n      dup7\n        /* \"#utility.yul\":8387:8452   */\n      tag_204\n      jump\t// in\n    tag_356:\n        /* \"#utility.yul\":8462:8534   */\n      tag_357\n        /* \"#utility.yul\":8530:8532   */\n      0x20\n        /* \"#utility.yul\":8519:8528   */\n      dup4\n        /* \"#utility.yul\":8515:8533   */\n      add\n        /* \"#utility.yul\":8506:8512   */\n      dup6\n        /* \"#utility.yul\":8462:8534   */\n      tag_195\n      jump\t// in\n    tag_357:\n        /* \"#utility.yul\":8544:8610   */\n      tag_358\n        /* \"#utility.yul\":8606:8608   */\n      0x40\n        /* \"#utility.yul\":8595:8604   */\n      dup4\n        /* \"#utility.yul\":8591:8609   */\n      add\n        /* \"#utility.yul\":8582:8588   */\n      dup5\n        /* \"#utility.yul\":8544:8610   */\n      tag_204\n      jump\t// in\n    tag_358:\n        /* \"#utility.yul\":8199:8617   */\n      swap5\n      swap4\n      pop\n      pop\n      pop\n      pop\n      jump\t// out\n        /* \"#utility.yul\":8623:8731   */\n    tag_215:\n        /* \"#utility.yul\":8700:8724   */\n      tag_360\n        /* \"#utility.yul\":8718:8723   */\n      dup2\n        /* \"#utility.yul\":8700:8724   */\n      tag_190\n      jump\t// in\n    tag_360:\n        /* \"#utility.yul\":8695:8698   */\n      dup3\n        /* \"#utility.yul\":8688:8725   */\n      mstore\n        /* \"#utility.yul\":8623:8731   */\n      pop\n      pop\n      jump\t// out\n        /* \"#utility.yul\":8737:8896   */\n    tag_216:\n        /* \"#utility.yul\":8811:8822   */\n      0x00\n        /* \"#utility.yul\":8845:8851   */\n      dup3\n        /* \"#utility.yul\":8840:8843   */\n      dup3\n        /* \"#utility.yul\":8833:8852   */\n      mstore\n        /* \"#utility.yul\":8885:8889   */\n      0x20\n        /* \"#utility.yul\":8880:8883   */\n      dup3\n        /* \"#utility.yul\":8876:8890   */\n      add\n        /* \"#utility.yul\":8861:8890   */\n      swap1\n      pop\n        /* \"#utility.yul\":8737:8896   */\n      swap3\n      swap2\n      pop\n      pop\n      jump\t// out\n        /* \"#utility.yul\":8902:9246   */\n    tag_217:\n        /* \"#utility.yul\":8980:8983   */\n      0x00\n        /* \"#utility.yul\":9008:9047   */\n      tag_363\n        /* \"#utility.yul\":9041:9046   */\n      dup3\n        /* \"#utility.yul\":9008:9047   */\n      tag_198\n      jump\t// in\n    tag_363:\n        /* \"#utility.yul\":9063:9124   */\n      tag_364\n        /* \"#utility.yul\":9117:9123   */\n      dup2\n        /* \"#utility.yul\":9112:9115   */\n      dup6\n        /* \"#utility.yul\":9063:9124   */\n      tag_216\n      jump\t// in\n    tag_364:\n        /* \"#utility.yul\":9056:9124   */\n      swap4\n      pop\n        /* \"#utility.yul\":9133:9185   */\n      tag_365\n        /* \"#utility.yul\":9178:9184   */\n      dup2\n        /* \"#utility.yul\":9173:9176   */\n      dup6\n        /* \"#utility.yul\":9166:9170   */\n      0x20\n        /* \"#utility.yul\":9159:9164   */\n      dup7\n        /* \"#utility.yul\":9155:9171   */\n      add\n        /* \"#utility.yul\":9133:9185   */\n      tag_200\n      jump\t// in\n    tag_365:\n        /* \"#utility.yul\":9210:9239   */\n      tag_366\n        /* \"#utility.yul\":9232:9238   */\n      dup2\n        /* \"#utility.yul\":9210:9239   */\n      tag_201\n      jump\t// in\n    tag_366:\n        /* \"#utility.yul\":9205:9208   */\n      dup5\n        /* \"#utility.yul\":9201:9240   */\n      add\n        /* \"#utility.yul\":9194:9240   */\n      swap2\n      pop\n        /* \"#utility.yul\":8984:9246   */\n      pop\n        /* \"#utility.yul\":8902:9246   */\n      swap3\n      swap2\n      pop\n      pop\n      jump\t// out\n        /* \"#utility.yul\":9330:9944   */\n    tag_218:\n        /* \"#utility.yul\":9447:9450   */\n      0x00\n        /* \"#utility.yul\":9483:9487   */\n      0x40\n        /* \"#utility.yul\":9478:9481   */\n      dup4\n        /* \"#utility.yul\":9474:9488   */\n      add\n        /* \"#utility.yul\":9575:9579   */\n      0x00\n        /* \"#utility.yul\":9568:9573   */\n      dup4\n        /* \"#utility.yul\":9564:9580   */\n      add\n        /* \"#utility.yul\":9558:9581   */\n      mload\n        /* \"#utility.yul\":9594:9657   */\n      tag_368\n        /* \"#utility.yul\":9651:9655   */\n      0x00\n        /* \"#utility.yul\":9646:9649   */\n      dup7\n        /* \"#utility.yul\":9642:9656   */\n      add\n        /* \"#utility.yul\":9628:9640   */\n      dup3\n        /* \"#utility.yul\":9594:9657   */\n      tag_215\n      jump\t// in\n    tag_368:\n        /* \"#utility.yul\":9498:9667   */\n      pop\n        /* \"#utility.yul\":9754:9758   */\n      0x20\n        /* \"#utility.yul\":9747:9752   */\n      dup4\n        /* \"#utility.yul\":9743:9759   */\n      add\n        /* \"#utility.yul\":9737:9760   */\n      mload\n        /* \"#utility.yul\":9807:9810   */\n      dup5\n        /* \"#utility.yul\":9801:9805   */\n      dup3\n        /* \"#utility.yul\":9797:9811   */\n      sub\n        /* \"#utility.yul\":9790:9794   */\n      0x20\n        /* \"#utility.yul\":9785:9788   */\n      dup7\n        /* \"#utility.yul\":9781:9795   */\n      add\n        /* \"#utility.yul\":9774:9812   */\n      mstore\n        /* \"#utility.yul\":9833:9906   */\n      tag_369\n        /* \"#utility.yul\":9901:9905   */\n      dup3\n        /* \"#utility.yul\":9887:9899   */\n      dup3\n        /* \"#utility.yul\":9833:9906   */\n      tag_217\n      jump\t// in\n    tag_369:\n        /* \"#utility.yul\":9825:9906   */\n      swap2\n      pop\n        /* \"#utility.yul\":9677:9917   */\n      pop\n        /* \"#utility.yul\":9934:9938   */\n      dup1\n        /* \"#utility.yul\":9927:9938   */\n      swap2\n      pop\n        /* \"#utility.yul\":9452:9944   */\n      pop\n        /* \"#utility.yul\":9330:9944   */\n      swap3\n      swap2\n      pop\n      pop\n      jump\t// out\n        /* \"#utility.yul\":9950:10084   */\n    tag_219:\n        /* \"#utility.yul\":10037:10043   */\n      0x00\n        /* \"#utility.yul\":10071:10076   */\n      dup2\n        /* \"#utility.yul\":10065:10077   */\n      mload\n        /* \"#utility.yul\":10055:10077   */\n      swap1\n      pop\n        /* \"#utility.yul\":9950:10084   */\n      swap2\n      swap1\n      pop\n      jump\t// out\n        /* \"#utility.yul\":10090:10294   */\n    tag_220:\n        /* \"#utility.yul\":10209:10220   */\n      0x00\n        /* \"#utility.yul\":10243:10249   */\n      dup3\n        /* \"#utility.yul\":10238:10241   */\n      dup3\n        /* \"#utility.yul\":10231:10250   */\n      mstore\n        /* \"#utility.yul\":10283:10287   */\n      0x20\n        /* \"#utility.yul\":10278:10281   */\n      dup3\n        /* \"#utility.yul\":10274:10288   */\n      add\n        /* \"#utility.yul\":10259:10288   */\n      swap1\n      pop\n        /* \"#utility.yul\":10090:10294   */\n      swap3\n      swap2\n      pop\n      pop\n      jump\t// out\n        /* \"#utility.yul\":10300:10452   */\n    tag_221:\n        /* \"#utility.yul\":10387:10391   */\n      0x00\n        /* \"#utility.yul\":10410:10413   */\n      dup2\n        /* \"#utility.yul\":10402:10413   */\n      swap1\n      pop\n        /* \"#utility.yul\":10440:10444   */\n      0x20\n        /* \"#utility.yul\":10435:10438   */\n      dup3\n        /* \"#utility.yul\":10431:10445   */\n      add\n        /* \"#utility.yul\":10423:10445   */\n      swap1\n      pop\n        /* \"#utility.yul\":10300:10452   */\n      swap2\n      swap1\n      pop\n      jump\t// out\n        /* \"#utility.yul\":10458:10557   */\n    tag_222:\n        /* \"#utility.yul\":10529:10550   */\n      tag_374\n        /* \"#utility.yul\":10544:10549   */\n      dup2\n        /* \"#utility.yul\":10529:10550   */\n      tag_203\n      jump\t// in\n    tag_374:\n        /* \"#utility.yul\":10524:10527   */\n      dup3\n        /* \"#utility.yul\":10517:10551   */\n      mstore\n        /* \"#utility.yul\":10458:10557   */\n      pop\n      pop\n      jump\t// out\n        /* \"#utility.yul\":10563:10671   */\n    tag_223:\n        /* \"#utility.yul\":10640:10664   */\n      tag_376\n        /* \"#utility.yul\":10658:10663   */\n      dup2\n        /* \"#utility.yul\":10640:10664   */\n      tag_194\n      jump\t// in\n    tag_376:\n        /* \"#utility.yul\":10635:10638   */\n      dup3\n        /* \"#utility.yul\":10628:10665   */\n      mstore\n        /* \"#utility.yul\":10563:10671   */\n      pop\n      pop\n      jump\t// out\n        /* \"#utility.yul\":10749:11404   */\n    tag_224:\n        /* \"#utility.yul\":10876:10880   */\n      0x60\n        /* \"#utility.yul\":10871:10874   */\n      dup3\n        /* \"#utility.yul\":10867:10881   */\n      add\n        /* \"#utility.yul\":10964:10968   */\n      0x00\n        /* \"#utility.yul\":10957:10962   */\n      dup3\n        /* \"#utility.yul\":10953:10969   */\n      add\n        /* \"#utility.yul\":10947:10970   */\n      mload\n        /* \"#utility.yul\":10983:11040   */\n      tag_378\n        /* \"#utility.yul\":11034:11038   */\n      0x00\n        /* \"#utility.yul\":11029:11032   */\n      dup6\n        /* \"#utility.yul\":11025:11039   */\n      add\n        /* \"#utility.yul\":11011:11023   */\n      dup3\n        /* \"#utility.yul\":10983:11040   */\n      tag_222\n      jump\t// in\n    tag_378:\n        /* \"#utility.yul\":10891:11050   */\n      pop\n        /* \"#utility.yul\":11137:11141   */\n      0x20\n        /* \"#utility.yul\":11130:11135   */\n      dup3\n        /* \"#utility.yul\":11126:11142   */\n      add\n        /* \"#utility.yul\":11120:11143   */\n      mload\n        /* \"#utility.yul\":11156:11219   */\n      tag_379\n        /* \"#utility.yul\":11213:11217   */\n      0x20\n        /* \"#utility.yul\":11208:11211   */\n      dup6\n        /* \"#utility.yul\":11204:11218   */\n      add\n        /* \"#utility.yul\":11190:11202   */\n      dup3\n        /* \"#utility.yul\":11156:11219   */\n      tag_223\n      jump\t// in\n    tag_379:\n        /* \"#utility.yul\":11060:11229   */\n      pop\n        /* \"#utility.yul\":11311:11315   */\n      0x40\n        /* \"#utility.yul\":11304:11309   */\n      dup3\n        /* \"#utility.yul\":11300:11316   */\n      add\n        /* \"#utility.yul\":11294:11317   */\n      mload\n        /* \"#utility.yul\":11330:11387   */\n      tag_380\n        /* \"#utility.yul\":11381:11385   */\n      0x40\n        /* \"#utility.yul\":11376:11379   */\n      dup6\n        /* \"#utility.yul\":11372:11386   */\n      add\n        /* \"#utility.yul\":11358:11370   */\n      dup3\n        /* \"#utility.yul\":11330:11387   */\n      tag_222\n      jump\t// in\n    tag_380:\n        /* \"#utility.yul\":11239:11397   */\n      pop\n        /* \"#utility.yul\":10845:11404   */\n      pop\n        /* \"#utility.yul\":10749:11404   */\n      pop\n      pop\n      jump\t// out\n        /* \"#utility.yul\":11410:11669   */\n    tag_225:\n        /* \"#utility.yul\":11519:11529   */\n      0x00\n        /* \"#utility.yul\":11540:11626   */\n      tag_382\n        /* \"#utility.yul\":11622:11625   */\n      dup4\n        /* \"#utility.yul\":11614:11620   */\n      dup4\n        /* \"#utility.yul\":11540:11626   */\n      tag_224\n      jump\t// in\n    tag_382:\n        /* \"#utility.yul\":11658:11662   */\n      0x60\n        /* \"#utility.yul\":11653:11656   */\n      dup4\n        /* \"#utility.yul\":11649:11663   */\n      add\n        /* \"#utility.yul\":11635:11663   */\n      swap1\n      pop\n        /* \"#utility.yul\":11410:11669   */\n      swap3\n      swap2\n      pop\n      pop\n      jump\t// out\n        /* \"#utility.yul\":11675:11808   */\n    tag_226:\n        /* \"#utility.yul\":11765:11769   */\n      0x00\n        /* \"#utility.yul\":11797:11801   */\n      0x20\n        /* \"#utility.yul\":11792:11795   */\n      dup3\n        /* \"#utility.yul\":11788:11802   */\n      add\n        /* \"#utility.yul\":11780:11802   */\n      swap1\n      pop\n        /* \"#utility.yul\":11675:11808   */\n      swap2\n      swap1\n      pop\n      jump\t// out\n        /* \"#utility.yul\":11890:12782   */\n    tag_227:\n        /* \"#utility.yul\":12049:12052   */\n      0x00\n        /* \"#utility.yul\":12078:12152   */\n      tag_385\n        /* \"#utility.yul\":12146:12151   */\n      dup3\n        /* \"#utility.yul\":12078:12152   */\n      tag_219\n      jump\t// in\n    tag_385:\n        /* \"#utility.yul\":12168:12274   */\n      tag_386\n        /* \"#utility.yul\":12267:12273   */\n      dup2\n        /* \"#utility.yul\":12262:12265   */\n      dup6\n        /* \"#utility.yul\":12168:12274   */\n      tag_220\n      jump\t// in\n    tag_386:\n        /* \"#utility.yul\":12161:12274   */\n      swap4\n      pop\n        /* \"#utility.yul\":12298:12374   */\n      tag_387\n        /* \"#utility.yul\":12368:12373   */\n      dup4\n        /* \"#utility.yul\":12298:12374   */\n      tag_221\n      jump\t// in\n    tag_387:\n        /* \"#utility.yul\":12397:12404   */\n      dup1\n        /* \"#utility.yul\":12428:12429   */\n      0x00\n        /* \"#utility.yul\":12413:12757   */\n    tag_388:\n        /* \"#utility.yul\":12438:12444   */\n      dup4\n        /* \"#utility.yul\":12435:12436   */\n      dup2\n        /* \"#utility.yul\":12432:12445   */\n      lt\n        /* \"#utility.yul\":12413:12757   */\n      iszero\n      tag_390\n      jumpi\n        /* \"#utility.yul\":12514:12520   */\n      dup2\n        /* \"#utility.yul\":12508:12521   */\n      mload\n        /* \"#utility.yul\":12541:12644   */\n      tag_391\n        /* \"#utility.yul\":12640:12643   */\n      dup9\n        /* \"#utility.yul\":12625:12638   */\n      dup3\n        /* \"#utility.yul\":12541:12644   */\n      tag_225\n      jump\t// in\n    tag_391:\n        /* \"#utility.yul\":12534:12644   */\n      swap8\n      pop\n        /* \"#utility.yul\":12667:12747   */\n      tag_392\n        /* \"#utility.yul\":12740:12746   */\n      dup4\n        /* \"#utility.yul\":12667:12747   */\n      tag_226\n      jump\t// in\n    tag_392:\n        /* \"#utility.yul\":12657:12747   */\n      swap3\n      pop\n        /* \"#utility.yul\":12473:12757   */\n      pop\n        /* \"#utility.yul\":12460:12461   */\n      0x01\n        /* \"#utility.yul\":12457:12458   */\n      dup2\n        /* \"#utility.yul\":12453:12462   */\n      add\n        /* \"#utility.yul\":12448:12462   */\n      swap1\n      pop\n        /* \"#utility.yul\":12413:12757   */\n      jump(tag_388)\n    tag_390:\n        /* \"#utility.yul\":12417:12431   */\n      pop\n        /* \"#utility.yul\":12773:12776   */\n      dup6\n        /* \"#utility.yul\":12766:12776   */\n      swap4\n      pop\n        /* \"#utility.yul\":12054:12782   */\n      pop\n      pop\n      pop\n        /* \"#utility.yul\":11890:12782   */\n      swap3\n      swap2\n      pop\n      pop\n      jump\t// out\n        /* \"#utility.yul\":12788:13699   */\n    tag_89:\n        /* \"#utility.yul\":13095:13099   */\n      0x00\n        /* \"#utility.yul\":13133:13135   */\n      0x60\n        /* \"#utility.yul\":13122:13131   */\n      dup3\n        /* \"#utility.yul\":13118:13136   */\n      add\n        /* \"#utility.yul\":13110:13136   */\n      swap1\n      pop\n        /* \"#utility.yul\":13182:13191   */\n      dup2\n        /* \"#utility.yul\":13176:13180   */\n      dup2\n        /* \"#utility.yul\":13172:13192   */\n      sub\n        /* \"#utility.yul\":13168:13169   */\n      0x00\n        /* \"#utility.yul\":13157:13166   */\n      dup4\n        /* \"#utility.yul\":13153:13170   */\n      add\n        /* \"#utility.yul\":13146:13193   */\n      mstore\n        /* \"#utility.yul\":13210:13288   */\n      tag_394\n        /* \"#utility.yul\":13283:13287   */\n      dup2\n        /* \"#utility.yul\":13274:13280   */\n      dup7\n        /* \"#utility.yul\":13210:13288   */\n      tag_202\n      jump\t// in\n    tag_394:\n        /* \"#utility.yul\":13202:13288   */\n      swap1\n      pop\n        /* \"#utility.yul\":13335:13344   */\n      dup2\n        /* \"#utility.yul\":13329:13333   */\n      dup2\n        /* \"#utility.yul\":13325:13345   */\n      sub\n        /* \"#utility.yul\":13320:13322   */\n      0x20\n        /* \"#utility.yul\":13309:13318   */\n      dup4\n        /* \"#utility.yul\":13305:13323   */\n      add\n        /* \"#utility.yul\":13298:13346   */\n      mstore\n        /* \"#utility.yul\":13363:13469   */\n      tag_395\n        /* \"#utility.yul\":13464:13468   */\n      dup2\n        /* \"#utility.yul\":13455:13461   */\n      dup6\n        /* \"#utility.yul\":13363:13469   */\n      tag_218\n      jump\t// in\n    tag_395:\n        /* \"#utility.yul\":13355:13469   */\n      swap1\n      pop\n        /* \"#utility.yul\":13516:13525   */\n      dup2\n        /* \"#utility.yul\":13510:13514   */\n      dup2\n        /* \"#utility.yul\":13506:13526   */\n      sub\n        /* \"#utility.yul\":13501:13503   */\n      0x40\n        /* \"#utility.yul\":13490:13499   */\n      dup4\n        /* \"#utility.yul\":13486:13504   */\n      add\n        /* \"#utility.yul\":13479:13527   */\n      mstore\n        /* \"#utility.yul\":13544:13692   */\n      tag_396\n        /* \"#utility.yul\":13687:13691   */\n      dup2\n        /* \"#utility.yul\":13678:13684   */\n      dup5\n        /* \"#utility.yul\":13544:13692   */\n      tag_227\n      jump\t// in\n    tag_396:\n        /* \"#utility.yul\":13536:13692   */\n      swap1\n      pop\n        /* \"#utility.yul\":12788:13699   */\n      swap5\n      swap4\n      pop\n      pop\n      pop\n      pop\n      jump\t// out\n        /* \"#utility.yul\":13705:13932   */\n    tag_228:\n        /* \"#utility.yul\":13845:13879   */\n      0x4f6e6c7920696e69746961746f722063616e2072656769737465722061207265\n        /* \"#utility.yul\":13841:13842   */\n      0x00\n        /* \"#utility.yul\":13833:13839   */\n      dup3\n        /* \"#utility.yul\":13829:13843   */\n      add\n        /* \"#utility.yul\":13822:13880   */\n      mstore\n        /* \"#utility.yul\":13914:13924   */\n      0x63697069656e742e000000000000000000000000000000000000000000000000\n        /* \"#utility.yul\":13909:13911   */\n      0x20\n        /* \"#utility.yul\":13901:13907   */\n      dup3\n        /* \"#utility.yul\":13897:13912   */\n      add\n        /* \"#utility.yul\":13890:13925   */\n      mstore\n        /* \"#utility.yul\":13705:13932   */\n      pop\n      jump\t// out\n        /* \"#utility.yul\":13938:14304   */\n    tag_229:\n        /* \"#utility.yul\":14080:14083   */\n      0x00\n        /* \"#utility.yul\":14101:14168   */\n      tag_399\n        /* \"#utility.yul\":14165:14167   */\n      0x28\n        /* \"#utility.yul\":14160:14163   */\n      dup4\n        /* \"#utility.yul\":14101:14168   */\n      tag_199\n      jump\t// in\n    tag_399:\n        /* \"#utility.yul\":14094:14168   */\n      swap2\n      pop\n        /* \"#utility.yul\":14177:14270   */\n      tag_400\n        /* \"#utility.yul\":14266:14269   */\n      dup3\n        /* \"#utility.yul\":14177:14270   */\n      tag_228\n      jump\t// in\n    tag_400:\n        /* \"#utility.yul\":14295:14297   */\n      0x40\n        /* \"#utility.yul\":14290:14293   */\n      dup3\n        /* \"#utility.yul\":14286:14298   */\n      add\n        /* \"#utility.yul\":14279:14298   */\n      swap1\n      pop\n        /* \"#utility.yul\":13938:14304   */\n      swap2\n      swap1\n      pop\n      jump\t// out\n        /* \"#utility.yul\":14310:14729   */\n    tag_95:\n        /* \"#utility.yul\":14476:14480   */\n      0x00\n        /* \"#utility.yul\":14514:14516   */\n      0x20\n        /* \"#utility.yul\":14503:14512   */\n      dup3\n        /* \"#utility.yul\":14499:14517   */\n      add\n        /* \"#utility.yul\":14491:14517   */\n      swap1\n      pop\n        /* \"#utility.yul\":14563:14572   */\n      dup2\n        /* \"#utility.yul\":14557:14561   */\n      dup2\n        /* \"#utility.yul\":14553:14573   */\n      sub\n        /* \"#utility.yul\":14549:14550   */\n      0x00\n        /* \"#utility.yul\":14538:14547   */\n      dup4\n        /* \"#utility.yul\":14534:14551   */\n      add\n        /* \"#utility.yul\":14527:14574   */\n      mstore\n        /* \"#utility.yul\":14591:14722   */\n      tag_402\n        /* \"#utility.yul\":14717:14721   */\n      dup2\n        /* \"#utility.yul\":14591:14722   */\n      tag_229\n      jump\t// in\n    tag_402:\n        /* \"#utility.yul\":14583:14722   */\n      swap1\n      pop\n        /* \"#utility.yul\":14310:14729   */\n      swap2\n      swap1\n      pop\n      jump\t// out\n        /* \"#utility.yul\":14735:14916   */\n    tag_230:\n        /* \"#utility.yul\":14875:14908   */\n      0x526563697069656e7420697320616c7265616479207265676973746572656400\n        /* \"#utility.yul\":14871:14872   */\n      0x00\n        /* \"#utility.yul\":14863:14869   */\n      dup3\n        /* \"#utility.yul\":14859:14873   */\n      add\n        /* \"#utility.yul\":14852:14909   */\n      mstore\n        /* \"#utility.yul\":14735:14916   */\n      pop\n      jump\t// out\n        /* \"#utility.yul\":14922:15288   */\n    tag_231:\n        /* \"#utility.yul\":15064:15067   */\n      0x00\n        /* \"#utility.yul\":15085:15152   */\n      tag_405\n        /* \"#utility.yul\":15149:15151   */\n      0x1f\n        /* \"#utility.yul\":15144:15147   */\n      dup4\n        /* \"#utility.yul\":15085:15152   */\n      tag_199\n      jump\t// in\n    tag_405:\n        /* \"#utility.yul\":15078:15152   */\n      swap2\n      pop\n        /* \"#utility.yul\":15161:15254   */\n      tag_406\n        /* \"#utility.yul\":15250:15253   */\n      dup3\n        /* \"#utility.yul\":15161:15254   */\n      tag_230\n      jump\t// in\n    tag_406:\n        /* \"#utility.yul\":15279:15281   */\n      0x20\n        /* \"#utility.yul\":15274:15277   */\n      dup3\n        /* \"#utility.yul\":15270:15282   */\n      add\n        /* \"#utility.yul\":15263:15282   */\n      swap1\n      pop\n        /* \"#utility.yul\":14922:15288   */\n      swap2\n      swap1\n      pop\n      jump\t// out\n        /* \"#utility.yul\":15294:15713   */\n    tag_98:\n        /* \"#utility.yul\":15460:15464   */\n      0x00\n        /* \"#utility.yul\":15498:15500   */\n      0x20\n        /* \"#utility.yul\":15487:15496   */\n      dup3\n        /* \"#utility.yul\":15483:15501   */\n      add\n        /* \"#utility.yul\":15475:15501   */\n      swap1\n      pop\n        /* \"#utility.yul\":15547:15556   */\n      dup2\n        /* \"#utility.yul\":15541:15545   */\n      dup2\n        /* \"#utility.yul\":15537:15557   */\n      sub\n        /* \"#utility.yul\":15533:15534   */\n      0x00\n        /* \"#utility.yul\":15522:15531   */\n      dup4\n        /* \"#utility.yul\":15518:15535   */\n      add\n        /* \"#utility.yul\":15511:15558   */\n      mstore\n        /* \"#utility.yul\":15575:15706   */\n      tag_408\n        /* \"#utility.yul\":15701:15705   */\n      dup2\n        /* \"#utility.yul\":15575:15706   */\n      tag_231\n      jump\t// in\n    tag_408:\n        /* \"#utility.yul\":15567:15706   */\n      swap1\n      pop\n        /* \"#utility.yul\":15294:15713   */\n      swap2\n      swap1\n      pop\n      jump\t// out\n        /* \"#utility.yul\":15719:15942   */\n    tag_232:\n        /* \"#utility.yul\":15859:15893   */\n      0x50726f706f73616c206861732072656163686564206974732065787069727920\n        /* \"#utility.yul\":15855:15856   */\n      0x00\n        /* \"#utility.yul\":15847:15853   */\n      dup3\n        /* \"#utility.yul\":15843:15857   */\n      add\n        /* \"#utility.yul\":15836:15894   */\n      mstore\n        /* \"#utility.yul\":15928:15934   */\n      0x6461746500000000000000000000000000000000000000000000000000000000\n        /* \"#utility.yul\":15923:15925   */\n      0x20\n        /* \"#utility.yul\":15915:15921   */\n      dup3\n        /* \"#utility.yul\":15911:15926   */\n      add\n        /* \"#utility.yul\":15904:15935   */\n      mstore\n        /* \"#utility.yul\":15719:15942   */\n      pop\n      jump\t// out\n        /* \"#utility.yul\":15948:16314   */\n    tag_233:\n        /* \"#utility.yul\":16090:16093   */\n      0x00\n        /* \"#utility.yul\":16111:16178   */\n      tag_411\n        /* \"#utility.yul\":16175:16177   */\n      0x24\n        /* \"#utility.yul\":16170:16173   */\n      dup4\n        /* \"#utility.yul\":16111:16178   */\n      tag_199\n      jump\t// in\n    tag_411:\n        /* \"#utility.yul\":16104:16178   */\n      swap2\n      pop\n        /* \"#utility.yul\":16187:16280   */\n      tag_412\n        /* \"#utility.yul\":16276:16279   */\n      dup3\n        /* \"#utility.yul\":16187:16280   */\n      tag_232\n      jump\t// in\n    tag_412:\n        /* \"#utility.yul\":16305:16307   */\n      0x40\n        /* \"#utility.yul\":16300:16303   */\n      dup3\n        /* \"#utility.yul\":16296:16308   */\n      add\n        /* \"#utility.yul\":16289:16308   */\n      swap1\n      pop\n        /* \"#utility.yul\":15948:16314   */\n      swap2\n      swap1\n      pop\n      jump\t// out\n        /* \"#utility.yul\":16320:16739   */\n    tag_101:\n        /* \"#utility.yul\":16486:16490   */\n      0x00\n        /* \"#utility.yul\":16524:16526   */\n      0x20\n        /* \"#utility.yul\":16513:16522   */\n      dup3\n        /* \"#utility.yul\":16509:16527   */\n      add\n        /* \"#utility.yul\":16501:16527   */\n      swap1\n      pop\n        /* \"#utility.yul\":16573:16582   */\n      dup2\n        /* \"#utility.yul\":16567:16571   */\n      dup2\n        /* \"#utility.yul\":16563:16583   */\n      sub\n        /* \"#utility.yul\":16559:16560   */\n      0x00\n        /* \"#utility.yul\":16548:16557   */\n      dup4\n        /* \"#utility.yul\":16544:16561   */\n      add\n        /* \"#utility.yul\":16537:16584   */\n      mstore\n        /* \"#utility.yul\":16601:16732   */\n      tag_414\n        /* \"#utility.yul\":16727:16731   */\n      dup2\n        /* \"#utility.yul\":16601:16732   */\n      tag_233\n      jump\t// in\n    tag_414:\n        /* \"#utility.yul\":16593:16732   */\n      swap1\n      pop\n        /* \"#utility.yul\":16320:16739   */\n      swap2\n      swap1\n      pop\n      jump\t// out\n        /* \"#utility.yul\":16745:16925   */\n    tag_234:\n        /* \"#utility.yul\":16793:16870   */\n      0x4e487b7100000000000000000000000000000000000000000000000000000000\n        /* \"#utility.yul\":16790:16791   */\n      0x00\n        /* \"#utility.yul\":16783:16871   */\n      mstore\n        /* \"#utility.yul\":16890:16894   */\n      0x22\n        /* \"#utility.yul\":16887:16888   */\n      0x04\n        /* \"#utility.yul\":16880:16895   */\n      mstore\n        /* \"#utility.yul\":16914:16918   */\n      0x24\n        /* \"#utility.yul\":16911:16912   */\n      0x00\n        /* \"#utility.yul\":16904:16919   */\n      revert\n        /* \"#utility.yul\":16931:17251   */\n    tag_105:\n        /* \"#utility.yul\":16975:16981   */\n      0x00\n        /* \"#utility.yul\":17012:17013   */\n      0x02\n        /* \"#utility.yul\":17006:17010   */\n      dup3\n        /* \"#utility.yul\":17002:17014   */\n      div\n        /* \"#utility.yul\":16992:17014   */\n      swap1\n      pop\n        /* \"#utility.yul\":17059:17060   */\n      0x01\n        /* \"#utility.yul\":17053:17057   */\n      dup3\n        /* \"#utility.yul\":17049:17061   */\n      and\n        /* \"#utility.yul\":17080:17098   */\n      dup1\n        /* \"#utility.yul\":17070:17151   */\n      tag_417\n      jumpi\n        /* \"#utility.yul\":17136:17140   */\n      0x7f\n        /* \"#utility.yul\":17128:17134   */\n      dup3\n        /* \"#utility.yul\":17124:17141   */\n      and\n        /* \"#utility.yul\":17114:17141   */\n      swap2\n      pop\n        /* \"#utility.yul\":17070:17151   */\n    tag_417:\n        /* \"#utility.yul\":17198:17200   */\n      0x20\n        /* \"#utility.yul\":17190:17196   */\n      dup3\n        /* \"#utility.yul\":17187:17201   */\n      lt\n        /* \"#utility.yul\":17167:17185   */\n      dup2\n        /* \"#utility.yul\":17164:17202   */\n      sub\n        /* \"#utility.yul\":17161:17245   */\n      tag_418\n      jumpi\n        /* \"#utility.yul\":17217:17235   */\n      tag_419\n      tag_234\n      jump\t// in\n    tag_419:\n        /* \"#utility.yul\":17161:17245   */\n    tag_418:\n        /* \"#utility.yul\":16982:17251   */\n      pop\n        /* \"#utility.yul\":16931:17251   */\n      swap2\n      swap1\n      pop\n      jump\t// out\n        /* \"#utility.yul\":17257:17425   */\n    tag_235:\n        /* \"#utility.yul\":17397:17417   */\n      0x566f74696e672068617320657870697265640000000000000000000000000000\n        /* \"#utility.yul\":17393:17394   */\n      0x00\n        /* \"#utility.yul\":17385:17391   */\n      dup3\n        /* \"#utility.yul\":17381:17395   */\n      add\n        /* \"#utility.yul\":17374:17418   */\n      mstore\n        /* \"#utility.yul\":17257:17425   */\n      pop\n      jump\t// out\n        /* \"#utility.yul\":17431:17797   */\n    tag_236:\n        /* \"#utility.yul\":17573:17576   */\n      0x00\n        /* \"#utility.yul\":17594:17661   */\n      tag_422\n        /* \"#utility.yul\":17658:17660   */\n      0x12\n        /* \"#utility.yul\":17653:17656   */\n      dup4\n        /* \"#utility.yul\":17594:17661   */\n      tag_199\n      jump\t// in\n    tag_422:\n        /* \"#utility.yul\":17587:17661   */\n      swap2\n      pop\n        /* \"#utility.yul\":17670:17763   */\n      tag_423\n        /* \"#utility.yul\":17759:17762   */\n      dup3\n        /* \"#utility.yul\":17670:17763   */\n      tag_235\n      jump\t// in\n    tag_423:\n        /* \"#utility.yul\":17788:17790   */\n      0x20\n        /* \"#utility.yul\":17783:17786   */\n      dup3\n        /* \"#utility.yul\":17779:17791   */\n      add\n        /* \"#utility.yul\":17772:17791   */\n      swap1\n      pop\n        /* \"#utility.yul\":17431:17797   */\n      swap2\n      swap1\n      pop\n      jump\t// out\n        /* \"#utility.yul\":17803:18222   */\n    tag_114:\n        /* \"#utility.yul\":17969:17973   */\n      0x00\n        /* \"#utility.yul\":18007:18009   */\n      0x20\n        /* \"#utility.yul\":17996:18005   */\n      dup3\n        /* \"#utility.yul\":17992:18010   */\n      add\n        /* \"#utility.yul\":17984:18010   */\n      swap1\n      pop\n        /* \"#utility.yul\":18056:18065   */\n      dup2\n        /* \"#utility.yul\":18050:18054   */\n      dup2\n        /* \"#utility.yul\":18046:18066   */\n      sub\n        /* \"#utility.yul\":18042:18043   */\n      0x00\n        /* \"#utility.yul\":18031:18040   */\n      dup4\n        /* \"#utility.yul\":18027:18044   */\n      add\n        /* \"#utility.yul\":18020:18067   */\n      mstore\n        /* \"#utility.yul\":18084:18215   */\n      tag_425\n        /* \"#utility.yul\":18210:18214   */\n      dup2\n        /* \"#utility.yul\":18084:18215   */\n      tag_236\n      jump\t// in\n    tag_425:\n        /* \"#utility.yul\":18076:18215   */\n      swap1\n      pop\n        /* \"#utility.yul\":17803:18222   */\n      swap2\n      swap1\n      pop\n      jump\t// out\n        /* \"#utility.yul\":18228:18408   */\n    tag_237:\n        /* \"#utility.yul\":18368:18400   */\n      0x596f7520617265206e6f74207265676973746572656420746f20766f74650000\n        /* \"#utility.yul\":18364:18365   */\n      0x00\n        /* \"#utility.yul\":18356:18362   */\n      dup3\n        /* \"#utility.yul\":18352:18366   */\n      add\n        /* \"#utility.yul\":18345:18401   */\n      mstore\n        /* \"#utility.yul\":18228:18408   */\n      pop\n      jump\t// out\n        /* \"#utility.yul\":18414:18780   */\n    tag_238:\n        /* \"#utility.yul\":18556:18559   */\n      0x00\n        /* \"#utility.yul\":18577:18644   */\n      tag_428\n        /* \"#utility.yul\":18641:18643   */\n      0x1e\n        /* \"#utility.yul\":18636:18639   */\n      dup4\n        /* \"#utility.yul\":18577:18644   */\n      tag_199\n      jump\t// in\n    tag_428:\n        /* \"#utility.yul\":18570:18644   */\n      swap2\n      pop\n        /* \"#utility.yul\":18653:18746   */\n      tag_429\n        /* \"#utility.yul\":18742:18745   */\n      dup3\n        /* \"#utility.yul\":18653:18746   */\n      tag_237\n      jump\t// in\n    tag_429:\n        /* \"#utility.yul\":18771:18773   */\n      0x20\n        /* \"#utility.yul\":18766:18769   */\n      dup3\n        /* \"#utility.yul\":18762:18774   */\n      add\n        /* \"#utility.yul\":18755:18774   */\n      swap1\n      pop\n        /* \"#utility.yul\":18414:18780   */\n      swap2\n      swap1\n      pop\n      jump\t// out\n        /* \"#utility.yul\":18786:19205   */\n    tag_117:\n        /* \"#utility.yul\":18952:18956   */\n      0x00\n        /* \"#utility.yul\":18990:18992   */\n      0x20\n        /* \"#utility.yul\":18979:18988   */\n      dup3\n        /* \"#utility.yul\":18975:18993   */\n      add\n        /* \"#utility.yul\":18967:18993   */\n      swap1\n      pop\n        /* \"#utility.yul\":19039:19048   */\n      dup2\n        /* \"#utility.yul\":19033:19037   */\n      dup2\n        /* \"#utility.yul\":19029:19049   */\n      sub\n        /* \"#utility.yul\":19025:19026   */\n      0x00\n        /* \"#utility.yul\":19014:19023   */\n      dup4\n        /* \"#utility.yul\":19010:19027   */\n      add\n        /* \"#utility.yul\":19003:19050   */\n      mstore\n        /* \"#utility.yul\":19067:19198   */\n      tag_431\n        /* \"#utility.yul\":19193:19197   */\n      dup2\n        /* \"#utility.yul\":19067:19198   */\n      tag_238\n      jump\t// in\n    tag_431:\n        /* \"#utility.yul\":19059:19198   */\n      swap1\n      pop\n        /* \"#utility.yul\":18786:19205   */\n      swap2\n      swap1\n      pop\n      jump\t// out\n        /* \"#utility.yul\":19211:19389   */\n    tag_239:\n        /* \"#utility.yul\":19351:19381   */\n      0x596f7520616c72656164792073656e74206120726573706f6e73652e00000000\n        /* \"#utility.yul\":19347:19348   */\n      0x00\n        /* \"#utility.yul\":19339:19345   */\n      dup3\n        /* \"#utility.yul\":19335:19349   */\n      add\n        /* \"#utility.yul\":19328:19382   */\n      mstore\n        /* \"#utility.yul\":19211:19389   */\n      pop\n      jump\t// out\n        /* \"#utility.yul\":19395:19761   */\n    tag_240:\n        /* \"#utility.yul\":19537:19540   */\n      0x00\n        /* \"#utility.yul\":19558:19625   */\n      tag_434\n        /* \"#utility.yul\":19622:19624   */\n      0x1c\n        /* \"#utility.yul\":19617:19620   */\n      dup4\n        /* \"#utility.yul\":19558:19625   */\n      tag_199\n      jump\t// in\n    tag_434:\n        /* \"#utility.yul\":19551:19625   */\n      swap2\n      pop\n        /* \"#utility.yul\":19634:19727   */\n      tag_435\n        /* \"#utility.yul\":19723:19726   */\n      dup3\n        /* \"#utility.yul\":19634:19727   */\n      tag_239\n      jump\t// in\n    tag_435:\n        /* \"#utility.yul\":19752:19754   */\n      0x20\n        /* \"#utility.yul\":19747:19750   */\n      dup3\n        /* \"#utility.yul\":19743:19755   */\n      add\n        /* \"#utility.yul\":19736:19755   */\n      swap1\n      pop\n        /* \"#utility.yul\":19395:19761   */\n      swap2\n      swap1\n      pop\n      jump\t// out\n        /* \"#utility.yul\":19767:20186   */\n    tag_120:\n        /* \"#utility.yul\":19933:19937   */\n      0x00\n        /* \"#utility.yul\":19971:19973   */\n      0x20\n        /* \"#utility.yul\":19960:19969   */\n      dup3\n        /* \"#utility.yul\":19956:19974   */\n      add\n        /* \"#utility.yul\":19948:19974   */\n      swap1\n      pop\n        /* \"#utility.yul\":20020:20029   */\n      dup2\n        /* \"#utility.yul\":20014:20018   */\n      dup2\n        /* \"#utility.yul\":20010:20030   */\n      sub\n        /* \"#utility.yul\":20006:20007   */\n      0x00\n        /* \"#utility.yul\":19995:20004   */\n      dup4\n        /* \"#utility.yul\":19991:20008   */\n      add\n        /* \"#utility.yul\":19984:20031   */\n      mstore\n        /* \"#utility.yul\":20048:20179   */\n      tag_437\n        /* \"#utility.yul\":20174:20178   */\n      dup2\n        /* \"#utility.yul\":20048:20179   */\n      tag_240\n      jump\t// in\n    tag_437:\n        /* \"#utility.yul\":20040:20179   */\n      swap1\n      pop\n        /* \"#utility.yul\":19767:20186   */\n      swap2\n      swap1\n      pop\n      jump\t// out\n        /* \"#utility.yul\":20192:20372   */\n    tag_241:\n        /* \"#utility.yul\":20240:20317   */\n      0x4e487b7100000000000000000000000000000000000000000000000000000000\n        /* \"#utility.yul\":20237:20238   */\n      0x00\n        /* \"#utility.yul\":20230:20318   */\n      mstore\n        /* \"#utility.yul\":20337:20341   */\n      0x11\n        /* \"#utility.yul\":20334:20335   */\n      0x04\n        /* \"#utility.yul\":20327:20342   */\n      mstore\n        /* \"#utility.yul\":20361:20365   */\n      0x24\n        /* \"#utility.yul\":20358:20359   */\n      0x00\n        /* \"#utility.yul\":20351:20366   */\n      revert\n        /* \"#utility.yul\":20378:20683   */\n    tag_123:\n        /* \"#utility.yul\":20418:20421   */\n      0x00\n        /* \"#utility.yul\":20437:20457   */\n      tag_440\n        /* \"#utility.yul\":20455:20456   */\n      dup3\n        /* \"#utility.yul\":20437:20457   */\n      tag_190\n      jump\t// in\n    tag_440:\n        /* \"#utility.yul\":20432:20457   */\n      swap2\n      pop\n        /* \"#utility.yul\":20471:20491   */\n      tag_441\n        /* \"#utility.yul\":20489:20490   */\n      dup4\n        /* \"#utility.yul\":20471:20491   */\n      tag_190\n      jump\t// in\n    tag_441:\n        /* \"#utility.yul\":20466:20491   */\n      swap3\n      pop\n        /* \"#utility.yul\":20625:20626   */\n      dup3\n        /* \"#utility.yul\":20557:20623   */\n      0xffffffffffffffffffffffffffffffffffffffffffffffffffffffffffffffff\n        /* \"#utility.yul\":20553:20627   */\n      sub\n        /* \"#utility.yul\":20550:20551   */\n      dup3\n        /* \"#utility.yul\":20547:20628   */\n      gt\n        /* \"#utility.yul\":20544:20651   */\n      iszero\n      tag_442\n      jumpi\n        /* \"#utility.yul\":20631:20649   */\n      tag_443\n      tag_241\n      jump\t// in\n    tag_443:\n        /* \"#utility.yul\":20544:20651   */\n    tag_442:\n        /* \"#utility.yul\":20675:20676   */\n      dup3\n        /* \"#utility.yul\":20672:20673   */\n      dup3\n        /* \"#utility.yul\":20668:20677   */\n      add\n        /* \"#utility.yul\":20661:20677   */\n      swap1\n      pop\n        /* \"#utility.yul\":20378:20683   */\n      swap3\n      swap2\n      pop\n      pop\n      jump\t// out\n        /* \"#utility.yul\":20689:20871   */\n    tag_242:\n        /* \"#utility.yul\":20829:20863   */\n      0x5665726469637420686173206e6f74206265656e207265616368656420796574\n        /* \"#utility.yul\":20825:20826   */\n      0x00\n        /* \"#utility.yul\":20817:20823   */\n      dup3\n        /* \"#utility.yul\":20813:20827   */\n      add\n        /* \"#utility.yul\":20806:20864   */\n      mstore\n        /* \"#utility.yul\":20689:20871   */\n      pop\n      jump\t// out\n        /* \"#utility.yul\":20877:21243   */\n    tag_243:\n        /* \"#utility.yul\":21019:21022   */\n      0x00\n        /* \"#utility.yul\":21040:21107   */\n      tag_446\n        /* \"#utility.yul\":21104:21106   */\n      0x20\n        /* \"#utility.yul\":21099:21102   */\n      dup4\n        /* \"#utility.yul\":21040:21107   */\n      tag_199\n      jump\t// in\n    tag_446:\n        /* \"#utility.yul\":21033:21107   */\n      swap2\n      pop\n        /* \"#utility.yul\":21116:21209   */\n      tag_447\n        /* \"#utility.yul\":21205:21208   */\n      dup3\n        /* \"#utility.yul\":21116:21209   */\n      tag_242\n      jump\t// in\n    tag_447:\n        /* \"#utility.yul\":21234:21236   */\n      0x20\n        /* \"#utility.yul\":21229:21232   */\n      dup3\n        /* \"#utility.yul\":21225:21237   */\n      add\n        /* \"#utility.yul\":21218:21237   */\n      swap1\n      pop\n        /* \"#utility.yul\":20877:21243   */\n      swap2\n      swap1\n      pop\n      jump\t// out\n        /* \"#utility.yul\":21249:21668   */\n    tag_145:\n        /* \"#utility.yul\":21415:21419   */\n      0x00\n        /* \"#utility.yul\":21453:21455   */\n      0x20\n        /* \"#utility.yul\":21442:21451   */\n      dup3\n        /* \"#utility.yul\":21438:21456   */\n      add\n        /* \"#utility.yul\":21430:21456   */\n      swap1\n      pop\n        /* \"#utility.yul\":21502:21511   */\n      dup2\n        /* \"#utility.yul\":21496:21500   */\n      dup2\n        /* \"#utility.yul\":21492:21512   */\n      sub\n        /* \"#utility.yul\":21488:21489   */\n      0x00\n        /* \"#utility.yul\":21477:21486   */\n      dup4\n        /* \"#utility.yul\":21473:21490   */\n      add\n        /* \"#utility.yul\":21466:21513   */\n      mstore\n        /* \"#utility.yul\":21530:21661   */\n      tag_449\n        /* \"#utility.yul\":21656:21660   */\n      dup2\n        /* \"#utility.yul\":21530:21661   */\n      tag_243\n      jump\t// in\n    tag_449:\n        /* \"#utility.yul\":21522:21661   */\n      swap1\n      pop\n        /* \"#utility.yul\":21249:21668   */\n      swap2\n      swap1\n      pop\n      jump\t// out\n        /* \"#utility.yul\":21674:21854   */\n    tag_244:\n        /* \"#utility.yul\":21722:21799   */\n      0x4e487b7100000000000000000000000000000000000000000000000000000000\n        /* \"#utility.yul\":21719:21720   */\n      0x00\n        /* \"#utility.yul\":21712:21800   */\n      mstore\n        /* \"#utility.yul\":21819:21823   */\n      0x12\n        /* \"#utility.yul\":21816:21817   */\n      0x04\n        /* \"#utility.yul\":21809:21824   */\n      mstore\n        /* \"#utility.yul\":21843:21847   */\n      0x24\n        /* \"#utility.yul\":21840:21841   */\n      0x00\n        /* \"#utility.yul\":21833:21848   */\n      revert\n        /* \"#utility.yul\":21860:22045   */\n    tag_147:\n        /* \"#utility.yul\":21900:21901   */\n      0x00\n        /* \"#utility.yul\":21917:21937   */\n      tag_452\n        /* \"#utility.yul\":21935:21936   */\n      dup3\n        /* \"#utility.yul\":21917:21937   */\n      tag_190\n      jump\t// in\n    tag_452:\n        /* \"#utility.yul\":21912:21937   */\n      swap2\n      pop\n        /* \"#utility.yul\":21951:21971   */\n      tag_453\n        /* \"#utility.yul\":21969:21970   */\n      dup4\n        /* \"#utility.yul\":21951:21971   */\n      tag_190\n      jump\t// in\n    tag_453:\n        /* \"#utility.yul\":21946:21971   */\n      swap3\n      pop\n        /* \"#utility.yul\":21990:21991   */\n      dup3\n        /* \"#utility.yul\":21980:22015   */\n      tag_454\n      jumpi\n        /* \"#utility.yul\":21995:22013   */\n      tag_455\n      tag_244\n      jump\t// in\n    tag_455:\n        /* \"#utility.yul\":21980:22015   */\n    tag_454:\n        /* \"#utility.yul\":22037:22038   */\n      dup3\n        /* \"#utility.yul\":22034:22035   */\n      dup3\n        /* \"#utility.yul\":22030:22039   */\n      div\n        /* \"#utility.yul\":22025:22039   */\n      swap1\n      pop\n        /* \"#utility.yul\":21860:22045   */\n      swap3\n      swap2\n      pop\n      pop\n      jump\t// out\n        /* \"#utility.yul\":22051:22399   */\n    tag_149:\n        /* \"#utility.yul\":22091:22098   */\n      0x00\n        /* \"#utility.yul\":22114:22134   */\n      tag_457\n        /* \"#utility.yul\":22132:22133   */\n      dup3\n        /* \"#utility.yul\":22114:22134   */\n      tag_190\n      jump\t// in\n    tag_457:\n        /* \"#utility.yul\":22109:22134   */\n      swap2\n      pop\n        /* \"#utility.yul\":22148:22168   */\n      tag_458\n        /* \"#utility.yul\":22166:22167   */\n      dup4\n        /* \"#utility.yul\":22148:22168   */\n      tag_190\n      jump\t// in\n    tag_458:\n        /* \"#utility.yul\":22143:22168   */\n      swap3\n      pop\n        /* \"#utility.yul\":22336:22337   */\n      dup2\n        /* \"#utility.yul\":22268:22334   */\n      0xffffffffffffffffffffffffffffffffffffffffffffffffffffffffffffffff\n        /* \"#utility.yul\":22264:22338   */\n      div\n        /* \"#utility.yul\":22261:22262   */\n      dup4\n        /* \"#utility.yul\":22258:22339   */\n      gt\n        /* \"#utility.yul\":22253:22254   */\n      dup3\n        /* \"#utility.yul\":22246:22255   */\n      iszero\n        /* \"#utility.yul\":22239:22256   */\n      iszero\n        /* \"#utility.yul\":22235:22340   */\n      and\n        /* \"#utility.yul\":22232:22363   */\n      iszero\n      tag_459\n      jumpi\n        /* \"#utility.yul\":22343:22361   */\n      tag_460\n      tag_241\n      jump\t// in\n    tag_460:\n        /* \"#utility.yul\":22232:22363   */\n    tag_459:\n        /* \"#utility.yul\":22391:22392   */\n      dup3\n        /* \"#utility.yul\":22388:22389   */\n      dup3\n        /* \"#utility.yul\":22384:22393   */\n      mul\n        /* \"#utility.yul\":22373:22393   */\n      swap1\n      pop\n        /* \"#utility.yul\":22051:22399   */\n      swap3\n      swap2\n      pop\n      pop\n      jump\t// out\n        /* \"#utility.yul\":22405:22546   */\n    tag_245:\n        /* \"#utility.yul\":22454:22458   */\n      0x00\n        /* \"#utility.yul\":22477:22480   */\n      dup2\n        /* \"#utility.yul\":22469:22480   */\n      swap1\n      pop\n        /* \"#utility.yul\":22500:22503   */\n      dup2\n        /* \"#utility.yul\":22497:22498   */\n      0x00\n        /* \"#utility.yul\":22490:22504   */\n      mstore\n        /* \"#utility.yul\":22534:22538   */\n      0x20\n        /* \"#utility.yul\":22531:22532   */\n      0x00\n        /* \"#utility.yul\":22521:22539   */\n      keccak256\n        /* \"#utility.yul\":22513:22539   */\n      swap1\n      pop\n        /* \"#utility.yul\":22405:22546   */\n      swap2\n      swap1\n      pop\n      jump\t// out\n        /* \"#utility.yul\":22552:22645   */\n    tag_246:\n        /* \"#utility.yul\":22589:22595   */\n      0x00\n        /* \"#utility.yul\":22636:22638   */\n      0x20\n        /* \"#utility.yul\":22631:22633   */\n      0x1f\n        /* \"#utility.yul\":22624:22629   */\n      dup4\n        /* \"#utility.yul\":22620:22634   */\n      add\n        /* \"#utility.yul\":22616:22639   */\n      div\n        /* \"#utility.yul\":22606:22639   */\n      swap1\n      pop\n        /* \"#utility.yul\":22552:22645   */\n      swap2\n      swap1\n      pop\n      jump\t// out\n        /* \"#utility.yul\":22651:22758   */\n    tag_247:\n        /* \"#utility.yul\":22695:22703   */\n      0x00\n        /* \"#utility.yul\":22745:22750   */\n      dup3\n        /* \"#utility.yul\":22739:22743   */\n      dup3\n        /* \"#utility.yul\":22735:22751   */\n      shl\n        /* \"#utility.yul\":22714:22751   */\n      swap1\n      pop\n        /* \"#utility.yul\":22651:22758   */\n      swap3\n      swap2\n      pop\n      pop\n      jump\t// out\n        /* \"#utility.yul\":22764:23157   */\n    tag_248:\n        /* \"#utility.yul\":22833:22839   */\n      0x00\n        /* \"#utility.yul\":22883:22884   */\n      0x08\n        /* \"#utility.yul\":22871:22881   */\n      dup4\n        /* \"#utility.yul\":22867:22885   */\n      mul\n        /* \"#utility.yul\":22906:23003   */\n      tag_465\n        /* \"#utility.yul\":22936:23002   */\n      0xffffffffffffffffffffffffffffffffffffffffffffffffffffffffffffffff\n        /* \"#utility.yul\":22925:22934   */\n      dup3\n        /* \"#utility.yul\":22906:23003   */\n      tag_247\n      jump\t// in\n    tag_465:\n        /* \"#utility.yul\":23024:23063   */\n      tag_466\n        /* \"#utility.yul\":23054:23062   */\n      dup7\n        /* \"#utility.yul\":23043:23052   */\n      dup4\n        /* \"#utility.yul\":23024:23063   */\n      tag_247\n      jump\t// in\n    tag_466:\n        /* \"#utility.yul\":23012:23063   */\n      swap6\n      pop\n        /* \"#utility.yul\":23096:23100   */\n      dup1\n        /* \"#utility.yul\":23092:23101   */\n      not\n        /* \"#utility.yul\":23085:23090   */\n      dup5\n        /* \"#utility.yul\":23081:23102   */\n      and\n        /* \"#utility.yul\":23072:23102   */\n      swap4\n      pop\n        /* \"#utility.yul\":23145:23149   */\n      dup1\n        /* \"#utility.yul\":23135:23143   */\n      dup7\n        /* \"#utility.yul\":23131:23150   */\n      and\n        /* \"#utility.yul\":23124:23129   */\n      dup5\n        /* \"#utility.yul\":23121:23151   */\n      or\n        /* \"#utility.yul\":23111:23151   */\n      swap3\n      pop\n        /* \"#utility.yul\":22840:23157   */\n      pop\n      pop\n        /* \"#utility.yul\":22764:23157   */\n      swap4\n      swap3\n      pop\n      pop\n      pop\n      jump\t// out\n        /* \"#utility.yul\":23163:23223   */\n    tag_249:\n        /* \"#utility.yul\":23191:23194   */\n      0x00\n        /* \"#utility.yul\":23212:23217   */\n      dup2\n        /* \"#utility.yul\":23205:23217   */\n      swap1\n      pop\n        /* \"#utility.yul\":23163:23223   */\n      swap2\n      swap1\n      pop\n      jump\t// out\n        /* \"#utility.yul\":23229:23371   */\n    tag_250:\n        /* \"#utility.yul\":23279:23288   */\n      0x00\n        /* \"#utility.yul\":23312:23365   */\n      tag_469\n        /* \"#utility.yul\":23330:23364   */\n      tag_470\n        /* \"#utility.yul\":23339:23363   */\n      tag_471\n        /* \"#utility.yul\":23357:23362   */\n      dup5\n        /* \"#utility.yul\":23339:23363   */\n      tag_190\n      jump\t// in\n    tag_471:\n        /* \"#utility.yul\":23330:23364   */\n      tag_249\n      jump\t// in\n    tag_470:\n        /* \"#utility.yul\":23312:23365   */\n      tag_190\n      jump\t// in\n    tag_469:\n        /* \"#utility.yul\":23299:23365   */\n      swap1\n      pop\n        /* \"#utility.yul\":23229:23371   */\n      swap2\n      swap1\n      pop\n      jump\t// out\n        /* \"#utility.yul\":23377:23452   */\n    tag_251:\n        /* \"#utility.yul\":23420:23423   */\n      0x00\n        /* \"#utility.yul\":23441:23446   */\n      dup2\n        /* \"#utility.yul\":23434:23446   */\n      swap1\n      pop\n        /* \"#utility.yul\":23377:23452   */\n      swap2\n      swap1\n      pop\n      jump\t// out\n        /* \"#utility.yul\":23458:23727   */\n    tag_252:\n        /* \"#utility.yul\":23568:23607   */\n      tag_474\n        /* \"#utility.yul\":23599:23606   */\n      dup4\n        /* \"#utility.yul\":23568:23607   */\n      tag_250\n      jump\t// in\n    tag_474:\n        /* \"#utility.yul\":23629:23720   */\n      tag_475\n        /* \"#utility.yul\":23678:23719   */\n      tag_476\n        /* \"#utility.yul\":23702:23718   */\n      dup3\n        /* \"#utility.yul\":23678:23719   */\n      tag_251\n      jump\t// in\n    tag_476:\n        /* \"#utility.yul\":23670:23676   */\n      dup5\n        /* \"#utility.yul\":23663:23667   */\n      dup5\n        /* \"#utility.yul\":23657:23668   */\n      sload\n        /* \"#utility.yul\":23629:23720   */\n      tag_248\n      jump\t// in\n    tag_475:\n        /* \"#utility.yul\":23623:23627   */\n      dup3\n        /* \"#utility.yul\":23616:23721   */\n      sstore\n        /* \"#utility.yul\":23534:23727   */\n      pop\n        /* \"#utility.yul\":23458:23727   */\n      pop\n      pop\n      pop\n      jump\t// out\n        /* \"#utility.yul\":23733:23806   */\n    tag_253:\n        /* \"#utility.yul\":23778:23781   */\n      0x00\n        /* \"#utility.yul\":23733:23806   */\n      swap1\n      jump\t// out\n        /* \"#utility.yul\":23812:24001   */\n    tag_254:\n        /* \"#utility.yul\":23889:23921   */\n      tag_479\n      tag_253\n      jump\t// in\n    tag_479:\n        /* \"#utility.yul\":23930:23995   */\n      tag_480\n        /* \"#utility.yul\":23988:23994   */\n      dup2\n        /* \"#utility.yul\":23980:23986   */\n      dup5\n        /* \"#utility.yul\":23974:23978   */\n      dup5\n        /* \"#utility.yul\":23930:23995   */\n      tag_252\n      jump\t// in\n    tag_480:\n        /* \"#utility.yul\":23865:24001   */\n      pop\n        /* \"#utility.yul\":23812:24001   */\n      pop\n      pop\n      jump\t// out\n        /* \"#utility.yul\":24007:24193   */\n    tag_255:\n        /* \"#utility.yul\":24067:24187   */\n    tag_482:\n        /* \"#utility.yul\":24084:24087   */\n      dup2\n        /* \"#utility.yul\":24077:24082   */\n      dup2\n        /* \"#utility.yul\":24074:24088   */\n      lt\n        /* \"#utility.yul\":24067:24187   */\n      iszero\n      tag_484\n      jumpi\n        /* \"#utility.yul\":24138:24177   */\n      tag_485\n        /* \"#utility.yul\":24175:24176   */\n      0x00\n        /* \"#utility.yul\":24168:24173   */\n      dup3\n        /* \"#utility.yul\":24138:24177   */\n      tag_254\n      jump\t// in\n    tag_485:\n        /* \"#utility.yul\":24111:24112   */\n      0x01\n        /* \"#utility.yul\":24104:24109   */\n      dup2\n        /* \"#utility.yul\":24100:24113   */\n      add\n        /* \"#utility.yul\":24091:24113   */\n      swap1\n      pop\n        /* \"#utility.yul\":24067:24187   */\n      jump(tag_482)\n    tag_484:\n        /* \"#utility.yul\":24007:24193   */\n      pop\n      pop\n      jump\t// out\n        /* \"#utility.yul\":24199:24742   */\n    tag_256:\n        /* \"#utility.yul\":24300:24302   */\n      0x1f\n        /* \"#utility.yul\":24295:24298   */\n      dup3\n        /* \"#utility.yul\":24292:24303   */\n      gt\n        /* \"#utility.yul\":24289:24735   */\n      iszero\n      tag_487\n      jumpi\n        /* \"#utility.yul\":24334:24372   */\n      tag_488\n        /* \"#utility.yul\":24366:24371   */\n      dup2\n        /* \"#utility.yul\":24334:24372   */\n      tag_245\n      jump\t// in\n    tag_488:\n        /* \"#utility.yul\":24418:24447   */\n      tag_489\n        /* \"#utility.yul\":24436:24446   */\n      dup5\n        /* \"#utility.yul\":24418:24447   */\n      tag_246\n      jump\t// in\n    tag_489:\n        /* \"#utility.yul\":24408:24416   */\n      dup2\n        /* \"#utility.yul\":24404:24448   */\n      add\n        /* \"#utility.yul\":24601:24603   */\n      0x20\n        /* \"#utility.yul\":24589:24599   */\n      dup6\n        /* \"#utility.yul\":24586:24604   */\n      lt\n        /* \"#utility.yul\":24583:24632   */\n      iszero\n      tag_490\n      jumpi\n        /* \"#utility.yul\":24622:24630   */\n      dup2\n        /* \"#utility.yul\":24607:24630   */\n      swap1\n      pop\n        /* \"#utility.yul\":24583:24632   */\n    tag_490:\n        /* \"#utility.yul\":24645:24725   */\n      tag_491\n        /* \"#utility.yul\":24701:24723   */\n      tag_492\n        /* \"#utility.yul\":24719:24722   */\n      dup6\n        /* \"#utility.yul\":24701:24723   */\n      tag_246\n      jump\t// in\n    tag_492:\n        /* \"#utility.yul\":24691:24699   */\n      dup4\n        /* \"#utility.yul\":24687:24724   */\n      add\n        /* \"#utility.yul\":24674:24685   */\n      dup3\n        /* \"#utility.yul\":24645:24725   */\n      tag_255\n      jump\t// in\n    tag_491:\n        /* \"#utility.yul\":24304:24735   */\n      pop\n      pop\n        /* \"#utility.yul\":24289:24735   */\n    tag_487:\n        /* \"#utility.yul\":24199:24742   */\n      pop\n      pop\n      pop\n      jump\t// out\n        /* \"#utility.yul\":24748:24865   */\n    tag_257:\n        /* \"#utility.yul\":24802:24810   */\n      0x00\n        /* \"#utility.yul\":24852:24857   */\n      dup3\n        /* \"#utility.yul\":24846:24850   */\n      dup3\n        /* \"#utility.yul\":24842:24858   */\n      shr\n        /* \"#utility.yul\":24821:24858   */\n      swap1\n      pop\n        /* \"#utility.yul\":24748:24865   */\n      swap3\n      swap2\n      pop\n      pop\n      jump\t// out\n        /* \"#utility.yul\":24871:25040   */\n    tag_258:\n        /* \"#utility.yul\":24915:24921   */\n      0x00\n        /* \"#utility.yul\":24948:24999   */\n      tag_495\n        /* \"#utility.yul\":24996:24997   */\n      0x00\n        /* \"#utility.yul\":24992:24998   */\n      not\n        /* \"#utility.yul\":24984:24989   */\n      dup5\n        /* \"#utility.yul\":24981:24982   */\n      0x08\n        /* \"#utility.yul\":24977:24990   */\n      mul\n        /* \"#utility.yul\":24948:24999   */\n      tag_257\n      jump\t// in\n    tag_495:\n        /* \"#utility.yul\":24944:25000   */\n      not\n        /* \"#utility.yul\":25029:25033   */\n      dup1\n        /* \"#utility.yul\":25023:25027   */\n      dup4\n        /* \"#utility.yul\":25019:25034   */\n      and\n        /* \"#utility.yul\":25009:25034   */\n      swap2\n      pop\n        /* \"#utility.yul\":24922:25040   */\n      pop\n        /* \"#utility.yul\":24871:25040   */\n      swap3\n      swap2\n      pop\n      pop\n      jump\t// out\n        /* \"#utility.yul\":25045:25340   */\n    tag_259:\n        /* \"#utility.yul\":25121:25125   */\n      0x00\n        /* \"#utility.yul\":25267:25296   */\n      tag_497\n        /* \"#utility.yul\":25292:25295   */\n      dup4\n        /* \"#utility.yul\":25286:25290   */\n      dup4\n        /* \"#utility.yul\":25267:25296   */\n      tag_258\n      jump\t// in\n    tag_497:\n        /* \"#utility.yul\":25259:25296   */\n      swap2\n      pop\n        /* \"#utility.yul\":25329:25332   */\n      dup3\n        /* \"#utility.yul\":25326:25327   */\n      0x02\n        /* \"#utility.yul\":25322:25333   */\n      mul\n        /* \"#utility.yul\":25316:25320   */\n      dup3\n        /* \"#utility.yul\":25313:25334   */\n      or\n        /* \"#utility.yul\":25305:25334   */\n      swap1\n      pop\n        /* \"#utility.yul\":25045:25340   */\n      swap3\n      swap2\n      pop\n      pop\n      jump\t// out\n        /* \"#utility.yul\":25345:26740   */\n    tag_152:\n        /* \"#utility.yul\":25462:25499   */\n      tag_499\n        /* \"#utility.yul\":25495:25498   */\n      dup3\n        /* \"#utility.yul\":25462:25499   */\n      tag_198\n      jump\t// in\n    tag_499:\n        /* \"#utility.yul\":25564:25582   */\n      0xffffffffffffffff\n        /* \"#utility.yul\":25556:25562   */\n      dup2\n        /* \"#utility.yul\":25553:25583   */\n      gt\n        /* \"#utility.yul\":25550:25606   */\n      iszero\n      tag_500\n      jumpi\n        /* \"#utility.yul\":25586:25604   */\n      tag_501\n      tag_207\n      jump\t// in\n    tag_501:\n        /* \"#utility.yul\":25550:25606   */\n    tag_500:\n        /* \"#utility.yul\":25630:25668   */\n      tag_502\n        /* \"#utility.yul\":25662:25666   */\n      dup3\n        /* \"#utility.yul\":25656:25667   */\n      sload\n        /* \"#utility.yul\":25630:25668   */\n      tag_105\n      jump\t// in\n    tag_502:\n        /* \"#utility.yul\":25715:25782   */\n      tag_503\n        /* \"#utility.yul\":25775:25781   */\n      dup3\n        /* \"#utility.yul\":25767:25773   */\n      dup3\n        /* \"#utility.yul\":25761:25765   */\n      dup6\n        /* \"#utility.yul\":25715:25782   */\n      tag_256\n      jump\t// in\n    tag_503:\n        /* \"#utility.yul\":25809:25810   */\n      0x00\n        /* \"#utility.yul\":25833:25837   */\n      0x20\n        /* \"#utility.yul\":25820:25837   */\n      swap1\n      pop\n        /* \"#utility.yul\":25865:25867   */\n      0x1f\n        /* \"#utility.yul\":25857:25863   */\n      dup4\n        /* \"#utility.yul\":25854:25868   */\n      gt\n        /* \"#utility.yul\":25882:25883   */\n      0x01\n        /* \"#utility.yul\":25877:26495   */\n      dup2\n      eq\n      tag_505\n      jumpi\n        /* \"#utility.yul\":26539:26540   */\n      0x00\n        /* \"#utility.yul\":26556:26562   */\n      dup5\n        /* \"#utility.yul\":26553:26630   */\n      iszero\n      tag_506\n      jumpi\n        /* \"#utility.yul\":26605:26614   */\n      dup3\n        /* \"#utility.yul\":26600:26603   */\n      dup8\n        /* \"#utility.yul\":26596:26615   */\n      add\n        /* \"#utility.yul\":26590:26616   */\n      mload\n        /* \"#utility.yul\":26581:26616   */\n      swap1\n      pop\n        /* \"#utility.yul\":26553:26630   */\n    tag_506:\n        /* \"#utility.yul\":26656:26723   */\n      tag_507\n        /* \"#utility.yul\":26716:26722   */\n      dup6\n        /* \"#utility.yul\":26709:26714   */\n      dup3\n        /* \"#utility.yul\":26656:26723   */\n      tag_259\n      jump\t// in\n    tag_507:\n        /* \"#utility.yul\":26650:26654   */\n      dup7\n        /* \"#utility.yul\":26643:26724   */\n      sstore\n        /* \"#utility.yul\":26512:26734   */\n      pop\n        /* \"#utility.yul\":25847:26734   */\n      jump(tag_504)\n        /* \"#utility.yul\":25877:26495   */\n    tag_505:\n        /* \"#utility.yul\":25929:25933   */\n      0x1f\n        /* \"#utility.yul\":25925:25934   */\n      not\n        /* \"#utility.yul\":25917:25923   */\n      dup5\n        /* \"#utility.yul\":25913:25935   */\n      and\n        /* \"#utility.yul\":25963:26000   */\n      tag_508\n        /* \"#utility.yul\":25995:25999   */\n      dup7\n        /* \"#utility.yul\":25963:26000   */\n      tag_245\n      jump\t// in\n    tag_508:\n        /* \"#utility.yul\":26022:26023   */\n      0x00\n        /* \"#utility.yul\":26036:26244   */\n    tag_509:\n        /* \"#utility.yul\":26050:26057   */\n      dup3\n        /* \"#utility.yul\":26047:26048   */\n      dup2\n        /* \"#utility.yul\":26044:26058   */\n      lt\n        /* \"#utility.yul\":26036:26244   */\n      iszero\n      tag_511\n      jumpi\n        /* \"#utility.yul\":26129:26138   */\n      dup5\n        /* \"#utility.yul\":26124:26127   */\n      dup10\n        /* \"#utility.yul\":26120:26139   */\n      add\n        /* \"#utility.yul\":26114:26140   */\n      mload\n        /* \"#utility.yul\":26106:26112   */\n      dup3\n        /* \"#utility.yul\":26099:26141   */\n      sstore\n        /* \"#utility.yul\":26180:26181   */\n      0x01\n        /* \"#utility.yul\":26172:26178   */\n      dup3\n        /* \"#utility.yul\":26168:26182   */\n      add\n        /* \"#utility.yul\":26158:26182   */\n      swap2\n      pop\n        /* \"#utility.yul\":26227:26229   */\n      0x20\n        /* \"#utility.yul\":26216:26225   */\n      dup6\n        /* \"#utility.yul\":26212:26230   */\n      add\n        /* \"#utility.yul\":26199:26230   */\n      swap5\n      pop\n        /* \"#utility.yul\":26073:26077   */\n      0x20\n        /* \"#utility.yul\":26070:26071   */\n      dup2\n        /* \"#utility.yul\":26066:26078   */\n      add\n        /* \"#utility.yul\":26061:26078   */\n      swap1\n      pop\n        /* \"#utility.yul\":26036:26244   */\n      jump(tag_509)\n    tag_511:\n        /* \"#utility.yul\":26272:26278   */\n      dup7\n        /* \"#utility.yul\":26263:26270   */\n      dup4\n        /* \"#utility.yul\":26260:26279   */\n      lt\n        /* \"#utility.yul\":26257:26436   */\n      iszero\n      tag_512\n      jumpi\n        /* \"#utility.yul\":26330:26339   */\n      dup5\n        /* \"#utility.yul\":26325:26328   */\n      dup10\n        /* \"#utility.yul\":26321:26340   */\n      add\n        /* \"#utility.yul\":26315:26341   */\n      mload\n        /* \"#utility.yul\":26373:26421   */\n      tag_513\n        /* \"#utility.yul\":26415:26419   */\n      0x1f\n        /* \"#utility.yul\":26407:26413   */\n      dup10\n        /* \"#utility.yul\":26403:26420   */\n      and\n        /* \"#utility.yul\":26392:26401   */\n      dup3\n        /* \"#utility.yul\":26373:26421   */\n      tag_258\n      jump\t// in\n    tag_513:\n        /* \"#utility.yul\":26365:26371   */\n      dup4\n        /* \"#utility.yul\":26358:26422   */\n      sstore\n        /* \"#utility.yul\":26280:26436   */\n      pop\n        /* \"#utility.yul\":26257:26436   */\n    tag_512:\n        /* \"#utility.yul\":26482:26483   */\n      0x01\n        /* \"#utility.yul\":26478:26479   */\n      0x02\n        /* \"#utility.yul\":26470:26476   */\n      dup9\n        /* \"#utility.yul\":26466:26480   */\n      mul\n        /* \"#utility.yul\":26462:26484   */\n      add\n        /* \"#utility.yul\":26456:26460   */\n      dup9\n        /* \"#utility.yul\":26449:26485   */\n      sstore\n        /* \"#utility.yul\":25884:26495   */\n      pop\n      pop\n      pop\n        /* \"#utility.yul\":25847:26734   */\n    tag_504:\n      pop\n        /* \"#utility.yul\":25437:26740   */\n      pop\n      pop\n      pop\n        /* \"#utility.yul\":25345:26740   */\n      pop\n      pop\n      jump\t// out\n        /* \"#utility.yul\":26746:26926   */\n    tag_158:\n        /* \"#utility.yul\":26794:26871   */\n      0x4e487b7100000000000000000000000000000000000000000000000000000000\n        /* \"#utility.yul\":26791:26792   */\n      0x00\n        /* \"#utility.yul\":26784:26872   */\n      mstore\n        /* \"#utility.yul\":26891:26895   */\n      0x32\n        /* \"#utility.yul\":26888:26889   */\n      0x04\n        /* \"#utility.yul\":26881:26896   */\n      mstore\n        /* \"#utility.yul\":26915:26919   */\n      0x24\n        /* \"#utility.yul\":26912:26913   */\n      0x00\n        /* \"#utility.yul\":26905:26920   */\n      revert\n        /* \"#utility.yul\":26932:27018   */\n    tag_260:\n        /* \"#utility.yul\":26967:26974   */\n      0x00\n        /* \"#utility.yul\":27007:27011   */\n      0xff\n        /* \"#utility.yul\":27000:27005   */\n      dup3\n        /* \"#utility.yul\":26996:27012   */\n      and\n        /* \"#utility.yul\":26985:27012   */\n      swap1\n      pop\n        /* \"#utility.yul\":26932:27018   */\n      swap2\n      swap1\n      pop\n      jump\t// out\n        /* \"#utility.yul\":27024:27191   */\n    tag_166:\n        /* \"#utility.yul\":27061:27064   */\n      0x00\n        /* \"#utility.yul\":27084:27106   */\n      tag_517\n        /* \"#utility.yul\":27100:27105   */\n      dup3\n        /* \"#utility.yul\":27084:27106   */\n      tag_260\n      jump\t// in\n    tag_517:\n        /* \"#utility.yul\":27075:27106   */\n      swap2\n      pop\n        /* \"#utility.yul\":27128:27132   */\n      0xff\n        /* \"#utility.yul\":27121:27126   */\n      dup3\n        /* \"#utility.yul\":27118:27133   */\n      sub\n        /* \"#utility.yul\":27115:27156   */\n      tag_518\n      jumpi\n        /* \"#utility.yul\":27136:27154   */\n      tag_519\n      tag_241\n      jump\t// in\n    tag_519:\n        /* \"#utility.yul\":27115:27156   */\n    tag_518:\n        /* \"#utility.yul\":27183:27184   */\n      0x01\n        /* \"#utility.yul\":27176:27181   */\n      dup3\n        /* \"#utility.yul\":27172:27185   */\n      add\n        /* \"#utility.yul\":27165:27185   */\n      swap1\n      pop\n        /* \"#utility.yul\":27024:27191   */\n      swap2\n      swap1\n      pop\n      jump\t// out\n\n    auxdata: 0xa2646970667358221220b580375f4b2878ccf0de3abe668aca9aee6fac1f3aa9c6e5025bd66f6d59a30a64736f6c634300080f0033\n}\n",
				"bytecode": {
					"linkReferences": {},
					"object": "60806040523480156200001157600080fd5b5060405162002c4638038062002c46833981810160405281019062000037919062000348565b33600360006101000a81548173ffffffffffffffffffffffffffffffffffffffff021916908373ffffffffffffffffffffffffffffffffffffffff1602179055508142620000869190620003f2565b60018190555080600481905550600060058190555060006006819055506040518060400160405280600881526020017f52656a656374656400000000000000000000000000000000000000000000000081525060029081620000e9919062000690565b50306000806101000a81548173ffffffffffffffffffffffffffffffffffffffff021916908373ffffffffffffffffffffffffffffffffffffffff16021790555060405180604001604052806000815260200184815250600a60008201518160000155602082015181600101908162000163919062000690565b5090505050505062000777565b6000604051905090565b600080fd5b600080fd5b600080fd5b600080fd5b6000601f19601f8301169050919050565b7f4e487b7100000000000000000000000000000000000000000000000000000000600052604160045260246000fd5b620001d9826200018e565b810181811067ffffffffffffffff82111715620001fb57620001fa6200019f565b5b80604052505050565b60006200021062000170565b90506200021e8282620001ce565b919050565b600067ffffffffffffffff8211156200024157620002406200019f565b5b6200024c826200018e565b9050602081019050919050565b60005b83811015620002795780820151818401526020810190506200025c565b8381111562000289576000848401525b50505050565b6000620002a6620002a08462000223565b62000204565b905082815260208101848484011115620002c557620002c462000189565b5b620002d284828562000259565b509392505050565b600082601f830112620002f257620002f162000184565b5b8151620003048482602086016200028f565b91505092915050565b6000819050919050565b62000322816200030d565b81146200032e57600080fd5b50565b600081519050620003428162000317565b92915050565b6000806000606084860312156200036457620003636200017a565b5b600084015167ffffffffffffffff8111156200038557620003846200017f565b5b6200039386828701620002da565b9350506020620003a68682870162000331565b9250506040620003b98682870162000331565b9150509250925092565b7f4e487b7100000000000000000000000000000000000000000000000000000000600052601160045260246000fd5b6000620003ff826200030d565b91506200040c836200030d565b9250827fffffffffffffffffffffffffffffffffffffffffffffffffffffffffffffffff03821115620004445762000443620003c3565b5b828201905092915050565b600081519050919050565b7f4e487b7100000000000000000000000000000000000000000000000000000000600052602260045260246000fd5b60006002820490506001821680620004a257607f821691505b602082108103620004b857620004b76200045a565b5b50919050565b60008190508160005260206000209050919050565b60006020601f8301049050919050565b600082821b905092915050565b600060088302620005227fffffffffffffffffffffffffffffffffffffffffffffffffffffffffffffffff82620004e3565b6200052e8683620004e3565b95508019841693508086168417925050509392505050565b6000819050919050565b6000620005716200056b62000565846200030d565b62000546565b6200030d565b9050919050565b6000819050919050565b6200058d8362000550565b620005a56200059c8262000578565b848454620004f0565b825550505050565b600090565b620005bc620005ad565b620005c981848462000582565b505050565b5b81811015620005f157620005e5600082620005b2565b600181019050620005cf565b5050565b601f82111562000640576200060a81620004be565b6200061584620004d3565b8101602085101562000625578190505b6200063d6200063485620004d3565b830182620005ce565b50505b505050565b600082821c905092915050565b6000620006656000198460080262000645565b1980831691505092915050565b600062000680838362000652565b9150826002028217905092915050565b6200069b826200044f565b67ffffffffffffffff811115620006b757620006b66200019f565b5b620006c3825462000489565b620006d0828285620005f5565b600060209050601f831160018114620007085760008415620006f3578287015190505b620006ff858262000672565b8655506200076f565b601f1984166200071886620004be565b60005b8281101562000742578489015182556001820191506020850194506020810190506200071b565b868310156200076257848901516200075e601f89168262000652565b8355505b6001600288020188555050505b505050505050565b6124bf80620007876000396000f3fe608060405234801561001057600080fd5b506004361061010b5760003560e01c80637403c5e5116100a25780639aa4bbdd116100715780639aa4bbdd146102ad578063d77aa749146102df578063da58c7d9146102fd578063f6b4dfb41461032f578063fe8ff2361461034d5761010b565b80637403c5e514610236578063753ec103146102545780638d337b811461027357806395b02dfa146102a35761010b565b8063323082d7116100de578063323082d7146101aa57806359c96c11146101c65780635c39fcc1146101fa578063604c8333146102185761010b565b80630cb6aaf11461011057806315fe6f1b1461014057806319eb4a901461015c5780632d15cc041461017a575b600080fd5b61012a6004803603810190610125919061169a565b61036d565b6040516101379190611708565b60405180910390f35b61015a6004803603810190610155919061174f565b6103ac565b005b6101646106bd565b6040516101719190611815565b60405180910390f35b610194600480360381019061018f919061174f565b610752565b6040516101a19190611852565b60405180910390f35b6101c460048036038101906101bf91906119a2565b6107ab565b005b6101e060048036038101906101db919061174f565b610dd7565b6040516101f19594939291906119fa565b60405180910390f35b610202610eaf565b60405161020f9190611708565b60405180910390f35b610220610ed5565b60405161022d9190611a54565b60405180910390f35b61023e610edb565b60405161024b9190611a54565b60405180910390f35b61025c610ee1565b60405161026a929190611a6f565b60405180910390f35b61028d6004803603810190610288919061174f565b610f7b565b60405161029a9190611852565b60405180910390f35b6102ab610fd4565b005b6102c760048036038101906102c2919061174f565b6112bf565b6040516102d693929190611a9f565b60405180910390f35b6102e7611323565b6040516102f49190611a54565b60405180910390f35b6103176004803603810190610312919061169a565b611329565b60405161032693929190611a9f565b60405180910390f35b610337611399565b6040516103449190611708565b60405180910390f35b6103556113bd565b60405161036493929190611c7b565b60405180910390f35b6008818154811061037d57600080fd5b906000526020600020016000915054906101000a900473ffffffffffffffffffffffffffffffffffffffff1681565b600360009054906101000a900473ffffffffffffffffffffffffffffffffffffffff1673ffffffffffffffffffffffffffffffffffffffff163373ffffffffffffffffffffffffffffffffffffffff161461043c576040517f08c379a000000000000000000000000000000000000000000000000000000000815260040161043390611d39565b60405180910390fd5b600073ffffffffffffffffffffffffffffffffffffffff16600960008373ffffffffffffffffffffffffffffffffffffffff1673ffffffffffffffffffffffffffffffffffffffff16815260200190815260200160002060000160019054906101000a900473ffffffffffffffffffffffffffffffffffffffff1673ffffffffffffffffffffffffffffffffffffffff161461050d576040517f08c379a000000000000000000000000000000000000000000000000000000000815260040161050490611da5565b60405180910390fd5b6001544210610551576040517f08c379a000000000000000000000000000000000000000000000000000000000815260040161054890611e37565b60405180910390fd5b600060405180606001604052806000151581526020018373ffffffffffffffffffffffffffffffffffffffff16815260200160001515815250905080600960008473ffffffffffffffffffffffffffffffffffffffff1673ffffffffffffffffffffffffffffffffffffffff16815260200190815260200160002060008201518160000160006101000a81548160ff02191690831515021790555060208201518160000160016101000a81548173ffffffffffffffffffffffffffffffffffffffff021916908373ffffffffffffffffffffffffffffffffffffffff16021790555060408201518160000160156101000a81548160ff0219169083151502179055509050506008829080600181540180825580915050600190039060005260206000200160009091909190916101000a81548173ffffffffffffffffffffffffffffffffffffffff021916908373ffffffffffffffffffffffffffffffffffffffff1602179055505050565b6060600a60010180546106cf90611e86565b80601f01602080910402602001604051908101604052809291908181526020018280546106fb90611e86565b80156107485780601f1061071d57610100808354040283529160200191610748565b820191906000526020600020905b81548152906001019060200180831161072b57829003601f168201915b5050505050905090565b6000600960008373ffffffffffffffffffffffffffffffffffffffff1673ffffffffffffffffffffffffffffffffffffffff16815260200190815260200160002060000160009054906101000a900460ff169050919050565b60015442106107ef576040517f08c379a00000000000000000000000000000000000000000000000000000000081526004016107e690611f03565b60405180910390fd5b6000600960003373ffffffffffffffffffffffffffffffffffffffff1673ffffffffffffffffffffffffffffffffffffffff1681526020019081526020016000206040518060600160405290816000820160009054906101000a900460ff161515151581526020016000820160019054906101000a900473ffffffffffffffffffffffffffffffffffffffff1673ffffffffffffffffffffffffffffffffffffffff1673ffffffffffffffffffffffffffffffffffffffff1681526020016000820160159054906101000a900460ff1615151515815250509050600073ffffffffffffffffffffffffffffffffffffffff16816020015173ffffffffffffffffffffffffffffffffffffffff160361093c576040517f08c379a000000000000000000000000000000000000000000000000000000000815260040161093390611f6f565b60405180910390fd5b806000015115610981576040517f08c379a000000000000000000000000000000000000000000000000000000000815260040161097890611fdb565b60405180910390fd5b6040518060400160405280600981526020017f6920617070726f7665000000000000000000000000000000000000000000000081525080519060200120828051906020012003610be6576001600960003373ffffffffffffffffffffffffffffffffffffffff1673ffffffffffffffffffffffffffffffffffffffff16815260200190815260200160002060000160006101000a81548160ff0219169083151502179055506001600960003373ffffffffffffffffffffffffffffffffffffffff1673ffffffffffffffffffffffffffffffffffffffff16815260200190815260200160002060000160156101000a81548160ff021916908315150217905550600160066000828254610a94919061202a565b925050819055506001600a6000016000828254610ab1919061202a565b925050819055506007600960003373ffffffffffffffffffffffffffffffffffffffff1673ffffffffffffffffffffffffffffffffffffffff168152602001908152602001600020908060018154018082558091505060019003906000526020600020016000909190919091506000820160009054906101000a900460ff168160000160006101000a81548160ff0219169083151502179055506000820160019054906101000a900473ffffffffffffffffffffffffffffffffffffffff168160000160016101000a81548173ffffffffffffffffffffffffffffffffffffffff021916908373ffffffffffffffffffffffffffffffffffffffff1602179055506000820160159054906101000a900460ff168160000160156101000a81548160ff0219169083151502179055505050610dd3565b6040518060400160405280600c81526020017f6920646973617070726f7665000000000000000000000000000000000000000081525080519060200120828051906020012003610dd2576001600960003373ffffffffffffffffffffffffffffffffffffffff1673ffffffffffffffffffffffffffffffffffffffff16815260200190815260200160002060000160006101000a81548160ff0219169083151502179055506001600a6000016000828254610ca1919061202a565b925050819055506007600960003373ffffffffffffffffffffffffffffffffffffffff1673ffffffffffffffffffffffffffffffffffffffff168152602001908152602001600020908060018154018082558091505060019003906000526020600020016000909190919091506000820160009054906101000a900460ff168160000160006101000a81548160ff0219169083151502179055506000820160019054906101000a900473ffffffffffffffffffffffffffffffffffffffff168160000160016101000a81548173ffffffffffffffffffffffffffffffffffffffff021916908373ffffffffffffffffffffffffffffffffffffffff1602179055506000820160159054906101000a900460ff168160000160156101000a81548160ff02191690831515021790555050505b5b5050565b6060600080600080600a600101600154600360009054906101000a900473ffffffffffffffffffffffffffffffffffffffff16600454600654848054610e1c90611e86565b80601f0160208091040260200160405190810160405280929190818152602001828054610e4890611e86565b8015610e955780601f10610e6a57610100808354040283529160200191610e95565b820191906000526020600020905b815481529060010190602001808311610e7857829003601f168201915b505050505094509450945094509450945091939590929450565b600360009054906101000a900473ffffffffffffffffffffffffffffffffffffffff1681565b60055481565b60065481565b600a806000015490806001018054610ef890611e86565b80601f0160208091040260200160405190810160405280929190818152602001828054610f2490611e86565b8015610f715780601f10610f4657610100808354040283529160200191610f71565b820191906000526020600020905b815481529060010190602001808311610f5457829003601f168201915b5050505050905082565b6000600960008373ffffffffffffffffffffffffffffffffffffffff1673ffffffffffffffffffffffffffffffffffffffff16815260200190815260200160002060000160159054906101000a900460ff169050919050565b600154421015611019576040517f08c379a0000000000000000000000000000000000000000000000000000000008152600401611010906120cc565b60405180910390fd5b606460088054905060065461102e919061211b565b611038919061214c565b6005819055506004546005541061108f576040518060400160405280600881526020017f41636365707465640000000000000000000000000000000000000000000000008152506002908161108d9190612352565b505b60005b6008805490508160ff1610156112bc57600015156009600060088460ff16815481106110c1576110c0612424565b5b9060005260206000200160009054906101000a900473ffffffffffffffffffffffffffffffffffffffff1673ffffffffffffffffffffffffffffffffffffffff1673ffffffffffffffffffffffffffffffffffffffff16815260200190815260200160002060000160009054906101000a900460ff161515036112a95760076009600060088460ff168154811061115b5761115a612424565b5b9060005260206000200160009054906101000a900473ffffffffffffffffffffffffffffffffffffffff1673ffffffffffffffffffffffffffffffffffffffff1673ffffffffffffffffffffffffffffffffffffffff168152602001908152602001600020908060018154018082558091505060019003906000526020600020016000909190919091506000820160009054906101000a900460ff168160000160006101000a81548160ff0219169083151502179055506000820160019054906101000a900473ffffffffffffffffffffffffffffffffffffffff168160000160016101000a81548173ffffffffffffffffffffffffffffffffffffffff021916908373ffffffffffffffffffffffffffffffffffffffff1602179055506000820160159054906101000a900460ff168160000160156101000a81548160ff02191690831515021790555050505b80806112b490612460565b915050611092565b50565b60096020528060005260406000206000915090508060000160009054906101000a900460ff16908060000160019054906101000a900473ffffffffffffffffffffffffffffffffffffffff16908060000160159054906101000a900460ff16905083565b60045481565b6007818154811061133957600080fd5b906000526020600020016000915090508060000160009054906101000a900460ff16908060000160019054906101000a900473ffffffffffffffffffffffffffffffffffffffff16908060000160159054906101000a900460ff16905083565b60008054906101000a900473ffffffffffffffffffffffffffffffffffffffff1681565b60606113c7611636565b606060015442101561140e576040517f08c379a0000000000000000000000000000000000000000000000000000000008152600401611405906120cc565b60405180910390fd5b6002600a600782805461142090611e86565b80601f016020809104026020016040519081016040528092919081815260200182805461144c90611e86565b80156114995780601f1061146e57610100808354040283529160200191611499565b820191906000526020600020905b81548152906001019060200180831161147c57829003601f168201915b5050505050925081604051806040016040529081600082015481526020016001820180546114c690611e86565b80601f01602080910402602001604051908101604052809291908181526020018280546114f290611e86565b801561153f5780601f106115145761010080835404028352916020019161153f565b820191906000526020600020905b81548152906001019060200180831161152257829003601f168201915b505050505081525050915080805480602002602001604051908101604052809291908181526020016000905b82821015611625578382906000526020600020016040518060600160405290816000820160009054906101000a900460ff161515151581526020016000820160019054906101000a900473ffffffffffffffffffffffffffffffffffffffff1673ffffffffffffffffffffffffffffffffffffffff1673ffffffffffffffffffffffffffffffffffffffff1681526020016000820160159054906101000a900460ff1615151515815250508152602001906001019061156b565b505050509050925092509250909192565b604051806040016040528060008152602001606081525090565b6000604051905090565b600080fd5b600080fd5b6000819050919050565b61167781611664565b811461168257600080fd5b50565b6000813590506116948161166e565b92915050565b6000602082840312156116b0576116af61165a565b5b60006116be84828501611685565b91505092915050565b600073ffffffffffffffffffffffffffffffffffffffff82169050919050565b60006116f2826116c7565b9050919050565b611702816116e7565b82525050565b600060208201905061171d60008301846116f9565b92915050565b61172c816116e7565b811461173757600080fd5b50565b60008135905061174981611723565b92915050565b6000602082840312156117655761176461165a565b5b60006117738482850161173a565b91505092915050565b600081519050919050565b600082825260208201905092915050565b60005b838110156117b657808201518184015260208101905061179b565b838111156117c5576000848401525b50505050565b6000601f19601f8301169050919050565b60006117e78261177c565b6117f18185611787565b9350611801818560208601611798565b61180a816117cb565b840191505092915050565b6000602082019050818103600083015261182f81846117dc565b905092915050565b60008115159050919050565b61184c81611837565b82525050565b60006020820190506118676000830184611843565b92915050565b600080fd5b600080fd5b7f4e487b7100000000000000000000000000000000000000000000000000000000600052604160045260246000fd5b6118af826117cb565b810181811067ffffffffffffffff821117156118ce576118cd611877565b5b80604052505050565b60006118e1611650565b90506118ed82826118a6565b919050565b600067ffffffffffffffff82111561190d5761190c611877565b5b611916826117cb565b9050602081019050919050565b82818337600083830152505050565b6000611945611940846118f2565b6118d7565b90508281526020810184848401111561196157611960611872565b5b61196c848285611923565b509392505050565b600082601f8301126119895761198861186d565b5b8135611999848260208601611932565b91505092915050565b6000602082840312156119b8576119b761165a565b5b600082013567ffffffffffffffff8111156119d6576119d561165f565b5b6119e284828501611974565b91505092915050565b6119f481611664565b82525050565b600060a0820190508181036000830152611a1481886117dc565b9050611a2360208301876119eb565b611a3060408301866116f9565b611a3d60608301856119eb565b611a4a60808301846119eb565b9695505050505050565b6000602082019050611a6960008301846119eb565b92915050565b6000604082019050611a8460008301856119eb565b8181036020830152611a9681846117dc565b90509392505050565b6000606082019050611ab46000830186611843565b611ac160208301856116f9565b611ace6040830184611843565b949350505050565b611adf81611664565b82525050565b600082825260208201905092915050565b6000611b018261177c565b611b0b8185611ae5565b9350611b1b818560208601611798565b611b24816117cb565b840191505092915050565b6000604083016000830151611b476000860182611ad6565b5060208301518482036020860152611b5f8282611af6565b9150508091505092915050565b600081519050919050565b600082825260208201905092915050565b6000819050602082019050919050565b611ba181611837565b82525050565b611bb0816116e7565b82525050565b606082016000820151611bcc6000850182611b98565b506020820151611bdf6020850182611ba7565b506040820151611bf26040850182611b98565b50505050565b6000611c048383611bb6565b60608301905092915050565b6000602082019050919050565b6000611c2882611b6c565b611c328185611b77565b9350611c3d83611b88565b8060005b83811015611c6e578151611c558882611bf8565b9750611c6083611c10565b925050600181019050611c41565b5085935050505092915050565b60006060820190508181036000830152611c9581866117dc565b90508181036020830152611ca98185611b2f565b90508181036040830152611cbd8184611c1d565b9050949350505050565b7f4f6e6c7920696e69746961746f722063616e207265676973746572206120726560008201527f63697069656e742e000000000000000000000000000000000000000000000000602082015250565b6000611d23602883611787565b9150611d2e82611cc7565b604082019050919050565b60006020820190508181036000830152611d5281611d16565b9050919050565b7f526563697069656e7420697320616c7265616479207265676973746572656400600082015250565b6000611d8f601f83611787565b9150611d9a82611d59565b602082019050919050565b60006020820190508181036000830152611dbe81611d82565b9050919050565b7f50726f706f73616c20686173207265616368656420697473206578706972792060008201527f6461746500000000000000000000000000000000000000000000000000000000602082015250565b6000611e21602483611787565b9150611e2c82611dc5565b604082019050919050565b60006020820190508181036000830152611e5081611e14565b9050919050565b7f4e487b7100000000000000000000000000000000000000000000000000000000600052602260045260246000fd5b60006002820490506001821680611e9e57607f821691505b602082108103611eb157611eb0611e57565b5b50919050565b7f566f74696e672068617320657870697265640000000000000000000000000000600082015250565b6000611eed601283611787565b9150611ef882611eb7565b602082019050919050565b60006020820190508181036000830152611f1c81611ee0565b9050919050565b7f596f7520617265206e6f74207265676973746572656420746f20766f74650000600082015250565b6000611f59601e83611787565b9150611f6482611f23565b602082019050919050565b60006020820190508181036000830152611f8881611f4c565b9050919050565b7f596f7520616c72656164792073656e74206120726573706f6e73652e00000000600082015250565b6000611fc5601c83611787565b9150611fd082611f8f565b602082019050919050565b60006020820190508181036000830152611ff481611fb8565b9050919050565b7f4e487b7100000000000000000000000000000000000000000000000000000000600052601160045260246000fd5b600061203582611664565b915061204083611664565b9250827fffffffffffffffffffffffffffffffffffffffffffffffffffffffffffffffff0382111561207557612074611ffb565b5b828201905092915050565b7f5665726469637420686173206e6f74206265656e207265616368656420796574600082015250565b60006120b6602083611787565b91506120c182612080565b602082019050919050565b600060208201905081810360008301526120e5816120a9565b9050919050565b7f4e487b7100000000000000000000000000000000000000000000000000000000600052601260045260246000fd5b600061212682611664565b915061213183611664565b925082612141576121406120ec565b5b828204905092915050565b600061215782611664565b915061216283611664565b9250817fffffffffffffffffffffffffffffffffffffffffffffffffffffffffffffffff048311821515161561219b5761219a611ffb565b5b828202905092915050565b60008190508160005260206000209050919050565b60006020601f8301049050919050565b600082821b905092915050565b6000600883026122087fffffffffffffffffffffffffffffffffffffffffffffffffffffffffffffffff826121cb565b61221286836121cb565b95508019841693508086168417925050509392505050565b6000819050919050565b600061224f61224a61224584611664565b61222a565b611664565b9050919050565b6000819050919050565b61226983612234565b61227d61227582612256565b8484546121d8565b825550505050565b600090565b612292612285565b61229d818484612260565b505050565b5b818110156122c1576122b660008261228a565b6001810190506122a3565b5050565b601f821115612306576122d7816121a6565b6122e0846121bb565b810160208510156122ef578190505b6123036122fb856121bb565b8301826122a2565b50505b505050565b600082821c905092915050565b60006123296000198460080261230b565b1980831691505092915050565b60006123428383612318565b9150826002028217905092915050565b61235b8261177c565b67ffffffffffffffff81111561237457612373611877565b5b61237e8254611e86565b6123898282856122c5565b600060209050601f8311600181146123bc57600084156123aa578287015190505b6123b48582612336565b86555061241c565b601f1984166123ca866121a6565b60005b828110156123f2578489015182556001820191506020850194506020810190506123cd565b8683101561240f578489015161240b601f891682612318565b8355505b6001600288020188555050505b505050505050565b7f4e487b7100000000000000000000000000000000000000000000000000000000600052603260045260246000fd5b600060ff82169050919050565b600061246b82612453565b915060ff820361247e5761247d611ffb565b5b60018201905091905056fea2646970667358221220b580375f4b2878ccf0de3abe668aca9aee6fac1f3aa9c6e5025bd66f6d59a30a64736f6c634300080f0033",
					"opcodes": "PUSH1 0x80 PUSH1 0x40 MSTORE CALLVALUE DUP1 ISZERO PUSH3 0x11 JUMPI PUSH1 0x0 DUP1 REVERT JUMPDEST POP PUSH1 0x40 MLOAD PUSH3 0x2C46 CODESIZE SUB DUP1 PUSH3 0x2C46 DUP4 CODECOPY DUP2 DUP2 ADD PUSH1 0x40 MSTORE DUP2 ADD SWAP1 PUSH3 0x37 SWAP2 SWAP1 PUSH3 0x348 JUMP JUMPDEST CALLER PUSH1 0x3 PUSH1 0x0 PUSH2 0x100 EXP DUP2 SLOAD DUP2 PUSH20 0xFFFFFFFFFFFFFFFFFFFFFFFFFFFFFFFFFFFFFFFF MUL NOT AND SWAP1 DUP4 PUSH20 0xFFFFFFFFFFFFFFFFFFFFFFFFFFFFFFFFFFFFFFFF AND MUL OR SWAP1 SSTORE POP DUP2 TIMESTAMP PUSH3 0x86 SWAP2 SWAP1 PUSH3 0x3F2 JUMP JUMPDEST PUSH1 0x1 DUP2 SWAP1 SSTORE POP DUP1 PUSH1 0x4 DUP2 SWAP1 SSTORE POP PUSH1 0x0 PUSH1 0x5 DUP2 SWAP1 SSTORE POP PUSH1 0x0 PUSH1 0x6 DUP2 SWAP1 SSTORE POP PUSH1 0x40 MLOAD DUP1 PUSH1 0x40 ADD PUSH1 0x40 MSTORE DUP1 PUSH1 0x8 DUP2 MSTORE PUSH1 0x20 ADD PUSH32 0x52656A6563746564000000000000000000000000000000000000000000000000 DUP2 MSTORE POP PUSH1 0x2 SWAP1 DUP2 PUSH3 0xE9 SWAP2 SWAP1 PUSH3 0x690 JUMP JUMPDEST POP ADDRESS PUSH1 0x0 DUP1 PUSH2 0x100 EXP DUP2 SLOAD DUP2 PUSH20 0xFFFFFFFFFFFFFFFFFFFFFFFFFFFFFFFFFFFFFFFF MUL NOT AND SWAP1 DUP4 PUSH20 0xFFFFFFFFFFFFFFFFFFFFFFFFFFFFFFFFFFFFFFFF AND MUL OR SWAP1 SSTORE POP PUSH1 0x40 MLOAD DUP1 PUSH1 0x40 ADD PUSH1 0x40 MSTORE DUP1 PUSH1 0x0 DUP2 MSTORE PUSH1 0x20 ADD DUP5 DUP2 MSTORE POP PUSH1 0xA PUSH1 0x0 DUP3 ADD MLOAD DUP2 PUSH1 0x0 ADD SSTORE PUSH1 0x20 DUP3 ADD MLOAD DUP2 PUSH1 0x1 ADD SWAP1 DUP2 PUSH3 0x163 SWAP2 SWAP1 PUSH3 0x690 JUMP JUMPDEST POP SWAP1 POP POP POP POP POP PUSH3 0x777 JUMP JUMPDEST PUSH1 0x0 PUSH1 0x40 MLOAD SWAP1 POP SWAP1 JUMP JUMPDEST PUSH1 0x0 DUP1 REVERT JUMPDEST PUSH1 0x0 DUP1 REVERT JUMPDEST PUSH1 0x0 DUP1 REVERT JUMPDEST PUSH1 0x0 DUP1 REVERT JUMPDEST PUSH1 0x0 PUSH1 0x1F NOT PUSH1 0x1F DUP4 ADD AND SWAP1 POP SWAP2 SWAP1 POP JUMP JUMPDEST PUSH32 0x4E487B7100000000000000000000000000000000000000000000000000000000 PUSH1 0x0 MSTORE PUSH1 0x41 PUSH1 0x4 MSTORE PUSH1 0x24 PUSH1 0x0 REVERT JUMPDEST PUSH3 0x1D9 DUP3 PUSH3 0x18E JUMP JUMPDEST DUP2 ADD DUP2 DUP2 LT PUSH8 0xFFFFFFFFFFFFFFFF DUP3 GT OR ISZERO PUSH3 0x1FB JUMPI PUSH3 0x1FA PUSH3 0x19F JUMP JUMPDEST JUMPDEST DUP1 PUSH1 0x40 MSTORE POP POP POP JUMP JUMPDEST PUSH1 0x0 PUSH3 0x210 PUSH3 0x170 JUMP JUMPDEST SWAP1 POP PUSH3 0x21E DUP3 DUP3 PUSH3 0x1CE JUMP JUMPDEST SWAP2 SWAP1 POP JUMP JUMPDEST PUSH1 0x0 PUSH8 0xFFFFFFFFFFFFFFFF DUP3 GT ISZERO PUSH3 0x241 JUMPI PUSH3 0x240 PUSH3 0x19F JUMP JUMPDEST JUMPDEST PUSH3 0x24C DUP3 PUSH3 0x18E JUMP JUMPDEST SWAP1 POP PUSH1 0x20 DUP2 ADD SWAP1 POP SWAP2 SWAP1 POP JUMP JUMPDEST PUSH1 0x0 JUMPDEST DUP4 DUP2 LT ISZERO PUSH3 0x279 JUMPI DUP1 DUP3 ADD MLOAD DUP2 DUP5 ADD MSTORE PUSH1 0x20 DUP2 ADD SWAP1 POP PUSH3 0x25C JUMP JUMPDEST DUP4 DUP2 GT ISZERO PUSH3 0x289 JUMPI PUSH1 0x0 DUP5 DUP5 ADD MSTORE JUMPDEST POP POP POP POP JUMP JUMPDEST PUSH1 0x0 PUSH3 0x2A6 PUSH3 0x2A0 DUP5 PUSH3 0x223 JUMP JUMPDEST PUSH3 0x204 JUMP JUMPDEST SWAP1 POP DUP3 DUP2 MSTORE PUSH1 0x20 DUP2 ADD DUP5 DUP5 DUP5 ADD GT ISZERO PUSH3 0x2C5 JUMPI PUSH3 0x2C4 PUSH3 0x189 JUMP JUMPDEST JUMPDEST PUSH3 0x2D2 DUP5 DUP3 DUP6 PUSH3 0x259 JUMP JUMPDEST POP SWAP4 SWAP3 POP POP POP JUMP JUMPDEST PUSH1 0x0 DUP3 PUSH1 0x1F DUP4 ADD SLT PUSH3 0x2F2 JUMPI PUSH3 0x2F1 PUSH3 0x184 JUMP JUMPDEST JUMPDEST DUP2 MLOAD PUSH3 0x304 DUP5 DUP3 PUSH1 0x20 DUP7 ADD PUSH3 0x28F JUMP JUMPDEST SWAP2 POP POP SWAP3 SWAP2 POP POP JUMP JUMPDEST PUSH1 0x0 DUP2 SWAP1 POP SWAP2 SWAP1 POP JUMP JUMPDEST PUSH3 0x322 DUP2 PUSH3 0x30D JUMP JUMPDEST DUP2 EQ PUSH3 0x32E JUMPI PUSH1 0x0 DUP1 REVERT JUMPDEST POP JUMP JUMPDEST PUSH1 0x0 DUP2 MLOAD SWAP1 POP PUSH3 0x342 DUP2 PUSH3 0x317 JUMP JUMPDEST SWAP3 SWAP2 POP POP JUMP JUMPDEST PUSH1 0x0 DUP1 PUSH1 0x0 PUSH1 0x60 DUP5 DUP7 SUB SLT ISZERO PUSH3 0x364 JUMPI PUSH3 0x363 PUSH3 0x17A JUMP JUMPDEST JUMPDEST PUSH1 0x0 DUP5 ADD MLOAD PUSH8 0xFFFFFFFFFFFFFFFF DUP2 GT ISZERO PUSH3 0x385 JUMPI PUSH3 0x384 PUSH3 0x17F JUMP JUMPDEST JUMPDEST PUSH3 0x393 DUP7 DUP3 DUP8 ADD PUSH3 0x2DA JUMP JUMPDEST SWAP4 POP POP PUSH1 0x20 PUSH3 0x3A6 DUP7 DUP3 DUP8 ADD PUSH3 0x331 JUMP JUMPDEST SWAP3 POP POP PUSH1 0x40 PUSH3 0x3B9 DUP7 DUP3 DUP8 ADD PUSH3 0x331 JUMP JUMPDEST SWAP2 POP POP SWAP3 POP SWAP3 POP SWAP3 JUMP JUMPDEST PUSH32 0x4E487B7100000000000000000000000000000000000000000000000000000000 PUSH1 0x0 MSTORE PUSH1 0x11 PUSH1 0x4 MSTORE PUSH1 0x24 PUSH1 0x0 REVERT JUMPDEST PUSH1 0x0 PUSH3 0x3FF DUP3 PUSH3 0x30D JUMP JUMPDEST SWAP2 POP PUSH3 0x40C DUP4 PUSH3 0x30D JUMP JUMPDEST SWAP3 POP DUP3 PUSH32 0xFFFFFFFFFFFFFFFFFFFFFFFFFFFFFFFFFFFFFFFFFFFFFFFFFFFFFFFFFFFFFFFF SUB DUP3 GT ISZERO PUSH3 0x444 JUMPI PUSH3 0x443 PUSH3 0x3C3 JUMP JUMPDEST JUMPDEST DUP3 DUP3 ADD SWAP1 POP SWAP3 SWAP2 POP POP JUMP JUMPDEST PUSH1 0x0 DUP2 MLOAD SWAP1 POP SWAP2 SWAP1 POP JUMP JUMPDEST PUSH32 0x4E487B7100000000000000000000000000000000000000000000000000000000 PUSH1 0x0 MSTORE PUSH1 0x22 PUSH1 0x4 MSTORE PUSH1 0x24 PUSH1 0x0 REVERT JUMPDEST PUSH1 0x0 PUSH1 0x2 DUP3 DIV SWAP1 POP PUSH1 0x1 DUP3 AND DUP1 PUSH3 0x4A2 JUMPI PUSH1 0x7F DUP3 AND SWAP2 POP JUMPDEST PUSH1 0x20 DUP3 LT DUP2 SUB PUSH3 0x4B8 JUMPI PUSH3 0x4B7 PUSH3 0x45A JUMP JUMPDEST JUMPDEST POP SWAP2 SWAP1 POP JUMP JUMPDEST PUSH1 0x0 DUP2 SWAP1 POP DUP2 PUSH1 0x0 MSTORE PUSH1 0x20 PUSH1 0x0 KECCAK256 SWAP1 POP SWAP2 SWAP1 POP JUMP JUMPDEST PUSH1 0x0 PUSH1 0x20 PUSH1 0x1F DUP4 ADD DIV SWAP1 POP SWAP2 SWAP1 POP JUMP JUMPDEST PUSH1 0x0 DUP3 DUP3 SHL SWAP1 POP SWAP3 SWAP2 POP POP JUMP JUMPDEST PUSH1 0x0 PUSH1 0x8 DUP4 MUL PUSH3 0x522 PUSH32 0xFFFFFFFFFFFFFFFFFFFFFFFFFFFFFFFFFFFFFFFFFFFFFFFFFFFFFFFFFFFFFFFF DUP3 PUSH3 0x4E3 JUMP JUMPDEST PUSH3 0x52E DUP7 DUP4 PUSH3 0x4E3 JUMP JUMPDEST SWAP6 POP DUP1 NOT DUP5 AND SWAP4 POP DUP1 DUP7 AND DUP5 OR SWAP3 POP POP POP SWAP4 SWAP3 POP POP POP JUMP JUMPDEST PUSH1 0x0 DUP2 SWAP1 POP SWAP2 SWAP1 POP JUMP JUMPDEST PUSH1 0x0 PUSH3 0x571 PUSH3 0x56B PUSH3 0x565 DUP5 PUSH3 0x30D JUMP JUMPDEST PUSH3 0x546 JUMP JUMPDEST PUSH3 0x30D JUMP JUMPDEST SWAP1 POP SWAP2 SWAP1 POP JUMP JUMPDEST PUSH1 0x0 DUP2 SWAP1 POP SWAP2 SWAP1 POP JUMP JUMPDEST PUSH3 0x58D DUP4 PUSH3 0x550 JUMP JUMPDEST PUSH3 0x5A5 PUSH3 0x59C DUP3 PUSH3 0x578 JUMP JUMPDEST DUP5 DUP5 SLOAD PUSH3 0x4F0 JUMP JUMPDEST DUP3 SSTORE POP POP POP POP JUMP JUMPDEST PUSH1 0x0 SWAP1 JUMP JUMPDEST PUSH3 0x5BC PUSH3 0x5AD JUMP JUMPDEST PUSH3 0x5C9 DUP2 DUP5 DUP5 PUSH3 0x582 JUMP JUMPDEST POP POP POP JUMP JUMPDEST JUMPDEST DUP2 DUP2 LT ISZERO PUSH3 0x5F1 JUMPI PUSH3 0x5E5 PUSH1 0x0 DUP3 PUSH3 0x5B2 JUMP JUMPDEST PUSH1 0x1 DUP2 ADD SWAP1 POP PUSH3 0x5CF JUMP JUMPDEST POP POP JUMP JUMPDEST PUSH1 0x1F DUP3 GT ISZERO PUSH3 0x640 JUMPI PUSH3 0x60A DUP2 PUSH3 0x4BE JUMP JUMPDEST PUSH3 0x615 DUP5 PUSH3 0x4D3 JUMP JUMPDEST DUP2 ADD PUSH1 0x20 DUP6 LT ISZERO PUSH3 0x625 JUMPI DUP2 SWAP1 POP JUMPDEST PUSH3 0x63D PUSH3 0x634 DUP6 PUSH3 0x4D3 JUMP JUMPDEST DUP4 ADD DUP3 PUSH3 0x5CE JUMP JUMPDEST POP POP JUMPDEST POP POP POP JUMP JUMPDEST PUSH1 0x0 DUP3 DUP3 SHR SWAP1 POP SWAP3 SWAP2 POP POP JUMP JUMPDEST PUSH1 0x0 PUSH3 0x665 PUSH1 0x0 NOT DUP5 PUSH1 0x8 MUL PUSH3 0x645 JUMP JUMPDEST NOT DUP1 DUP4 AND SWAP2 POP POP SWAP3 SWAP2 POP POP JUMP JUMPDEST PUSH1 0x0 PUSH3 0x680 DUP4 DUP4 PUSH3 0x652 JUMP JUMPDEST SWAP2 POP DUP3 PUSH1 0x2 MUL DUP3 OR SWAP1 POP SWAP3 SWAP2 POP POP JUMP JUMPDEST PUSH3 0x69B DUP3 PUSH3 0x44F JUMP JUMPDEST PUSH8 0xFFFFFFFFFFFFFFFF DUP2 GT ISZERO PUSH3 0x6B7 JUMPI PUSH3 0x6B6 PUSH3 0x19F JUMP JUMPDEST JUMPDEST PUSH3 0x6C3 DUP3 SLOAD PUSH3 0x489 JUMP JUMPDEST PUSH3 0x6D0 DUP3 DUP3 DUP6 PUSH3 0x5F5 JUMP JUMPDEST PUSH1 0x0 PUSH1 0x20 SWAP1 POP PUSH1 0x1F DUP4 GT PUSH1 0x1 DUP2 EQ PUSH3 0x708 JUMPI PUSH1 0x0 DUP5 ISZERO PUSH3 0x6F3 JUMPI DUP3 DUP8 ADD MLOAD SWAP1 POP JUMPDEST PUSH3 0x6FF DUP6 DUP3 PUSH3 0x672 JUMP JUMPDEST DUP7 SSTORE POP PUSH3 0x76F JUMP JUMPDEST PUSH1 0x1F NOT DUP5 AND PUSH3 0x718 DUP7 PUSH3 0x4BE JUMP JUMPDEST PUSH1 0x0 JUMPDEST DUP3 DUP2 LT ISZERO PUSH3 0x742 JUMPI DUP5 DUP10 ADD MLOAD DUP3 SSTORE PUSH1 0x1 DUP3 ADD SWAP2 POP PUSH1 0x20 DUP6 ADD SWAP5 POP PUSH1 0x20 DUP2 ADD SWAP1 POP PUSH3 0x71B JUMP JUMPDEST DUP7 DUP4 LT ISZERO PUSH3 0x762 JUMPI DUP5 DUP10 ADD MLOAD PUSH3 0x75E PUSH1 0x1F DUP10 AND DUP3 PUSH3 0x652 JUMP JUMPDEST DUP4 SSTORE POP JUMPDEST PUSH1 0x1 PUSH1 0x2 DUP9 MUL ADD DUP9 SSTORE POP POP POP JUMPDEST POP POP POP POP POP POP JUMP JUMPDEST PUSH2 0x24BF DUP1 PUSH3 0x787 PUSH1 0x0 CODECOPY PUSH1 0x0 RETURN INVALID PUSH1 0x80 PUSH1 0x40 MSTORE CALLVALUE DUP1 ISZERO PUSH2 0x10 JUMPI PUSH1 0x0 DUP1 REVERT JUMPDEST POP PUSH1 0x4 CALLDATASIZE LT PUSH2 0x10B JUMPI PUSH1 0x0 CALLDATALOAD PUSH1 0xE0 SHR DUP1 PUSH4 0x7403C5E5 GT PUSH2 0xA2 JUMPI DUP1 PUSH4 0x9AA4BBDD GT PUSH2 0x71 JUMPI DUP1 PUSH4 0x9AA4BBDD EQ PUSH2 0x2AD JUMPI DUP1 PUSH4 0xD77AA749 EQ PUSH2 0x2DF JUMPI DUP1 PUSH4 0xDA58C7D9 EQ PUSH2 0x2FD JUMPI DUP1 PUSH4 0xF6B4DFB4 EQ PUSH2 0x32F JUMPI DUP1 PUSH4 0xFE8FF236 EQ PUSH2 0x34D JUMPI PUSH2 0x10B JUMP JUMPDEST DUP1 PUSH4 0x7403C5E5 EQ PUSH2 0x236 JUMPI DUP1 PUSH4 0x753EC103 EQ PUSH2 0x254 JUMPI DUP1 PUSH4 0x8D337B81 EQ PUSH2 0x273 JUMPI DUP1 PUSH4 0x95B02DFA EQ PUSH2 0x2A3 JUMPI PUSH2 0x10B JUMP JUMPDEST DUP1 PUSH4 0x323082D7 GT PUSH2 0xDE JUMPI DUP1 PUSH4 0x323082D7 EQ PUSH2 0x1AA JUMPI DUP1 PUSH4 0x59C96C11 EQ PUSH2 0x1C6 JUMPI DUP1 PUSH4 0x5C39FCC1 EQ PUSH2 0x1FA JUMPI DUP1 PUSH4 0x604C8333 EQ PUSH2 0x218 JUMPI PUSH2 0x10B JUMP JUMPDEST DUP1 PUSH4 0xCB6AAF1 EQ PUSH2 0x110 JUMPI DUP1 PUSH4 0x15FE6F1B EQ PUSH2 0x140 JUMPI DUP1 PUSH4 0x19EB4A90 EQ PUSH2 0x15C JUMPI DUP1 PUSH4 0x2D15CC04 EQ PUSH2 0x17A JUMPI JUMPDEST PUSH1 0x0 DUP1 REVERT JUMPDEST PUSH2 0x12A PUSH1 0x4 DUP1 CALLDATASIZE SUB DUP2 ADD SWAP1 PUSH2 0x125 SWAP2 SWAP1 PUSH2 0x169A JUMP JUMPDEST PUSH2 0x36D JUMP JUMPDEST PUSH1 0x40 MLOAD PUSH2 0x137 SWAP2 SWAP1 PUSH2 0x1708 JUMP JUMPDEST PUSH1 0x40 MLOAD DUP1 SWAP2 SUB SWAP1 RETURN JUMPDEST PUSH2 0x15A PUSH1 0x4 DUP1 CALLDATASIZE SUB DUP2 ADD SWAP1 PUSH2 0x155 SWAP2 SWAP1 PUSH2 0x174F JUMP JUMPDEST PUSH2 0x3AC JUMP JUMPDEST STOP JUMPDEST PUSH2 0x164 PUSH2 0x6BD JUMP JUMPDEST PUSH1 0x40 MLOAD PUSH2 0x171 SWAP2 SWAP1 PUSH2 0x1815 JUMP JUMPDEST PUSH1 0x40 MLOAD DUP1 SWAP2 SUB SWAP1 RETURN JUMPDEST PUSH2 0x194 PUSH1 0x4 DUP1 CALLDATASIZE SUB DUP2 ADD SWAP1 PUSH2 0x18F SWAP2 SWAP1 PUSH2 0x174F JUMP JUMPDEST PUSH2 0x752 JUMP JUMPDEST PUSH1 0x40 MLOAD PUSH2 0x1A1 SWAP2 SWAP1 PUSH2 0x1852 JUMP JUMPDEST PUSH1 0x40 MLOAD DUP1 SWAP2 SUB SWAP1 RETURN JUMPDEST PUSH2 0x1C4 PUSH1 0x4 DUP1 CALLDATASIZE SUB DUP2 ADD SWAP1 PUSH2 0x1BF SWAP2 SWAP1 PUSH2 0x19A2 JUMP JUMPDEST PUSH2 0x7AB JUMP JUMPDEST STOP JUMPDEST PUSH2 0x1E0 PUSH1 0x4 DUP1 CALLDATASIZE SUB DUP2 ADD SWAP1 PUSH2 0x1DB SWAP2 SWAP1 PUSH2 0x174F JUMP JUMPDEST PUSH2 0xDD7 JUMP JUMPDEST PUSH1 0x40 MLOAD PUSH2 0x1F1 SWAP6 SWAP5 SWAP4 SWAP3 SWAP2 SWAP1 PUSH2 0x19FA JUMP JUMPDEST PUSH1 0x40 MLOAD DUP1 SWAP2 SUB SWAP1 RETURN JUMPDEST PUSH2 0x202 PUSH2 0xEAF JUMP JUMPDEST PUSH1 0x40 MLOAD PUSH2 0x20F SWAP2 SWAP1 PUSH2 0x1708 JUMP JUMPDEST PUSH1 0x40 MLOAD DUP1 SWAP2 SUB SWAP1 RETURN JUMPDEST PUSH2 0x220 PUSH2 0xED5 JUMP JUMPDEST PUSH1 0x40 MLOAD PUSH2 0x22D SWAP2 SWAP1 PUSH2 0x1A54 JUMP JUMPDEST PUSH1 0x40 MLOAD DUP1 SWAP2 SUB SWAP1 RETURN JUMPDEST PUSH2 0x23E PUSH2 0xEDB JUMP JUMPDEST PUSH1 0x40 MLOAD PUSH2 0x24B SWAP2 SWAP1 PUSH2 0x1A54 JUMP JUMPDEST PUSH1 0x40 MLOAD DUP1 SWAP2 SUB SWAP1 RETURN JUMPDEST PUSH2 0x25C PUSH2 0xEE1 JUMP JUMPDEST PUSH1 0x40 MLOAD PUSH2 0x26A SWAP3 SWAP2 SWAP1 PUSH2 0x1A6F JUMP JUMPDEST PUSH1 0x40 MLOAD DUP1 SWAP2 SUB SWAP1 RETURN JUMPDEST PUSH2 0x28D PUSH1 0x4 DUP1 CALLDATASIZE SUB DUP2 ADD SWAP1 PUSH2 0x288 SWAP2 SWAP1 PUSH2 0x174F JUMP JUMPDEST PUSH2 0xF7B JUMP JUMPDEST PUSH1 0x40 MLOAD PUSH2 0x29A SWAP2 SWAP1 PUSH2 0x1852 JUMP JUMPDEST PUSH1 0x40 MLOAD DUP1 SWAP2 SUB SWAP1 RETURN JUMPDEST PUSH2 0x2AB PUSH2 0xFD4 JUMP JUMPDEST STOP JUMPDEST PUSH2 0x2C7 PUSH1 0x4 DUP1 CALLDATASIZE SUB DUP2 ADD SWAP1 PUSH2 0x2C2 SWAP2 SWAP1 PUSH2 0x174F JUMP JUMPDEST PUSH2 0x12BF JUMP JUMPDEST PUSH1 0x40 MLOAD PUSH2 0x2D6 SWAP4 SWAP3 SWAP2 SWAP1 PUSH2 0x1A9F JUMP JUMPDEST PUSH1 0x40 MLOAD DUP1 SWAP2 SUB SWAP1 RETURN JUMPDEST PUSH2 0x2E7 PUSH2 0x1323 JUMP JUMPDEST PUSH1 0x40 MLOAD PUSH2 0x2F4 SWAP2 SWAP1 PUSH2 0x1A54 JUMP JUMPDEST PUSH1 0x40 MLOAD DUP1 SWAP2 SUB SWAP1 RETURN JUMPDEST PUSH2 0x317 PUSH1 0x4 DUP1 CALLDATASIZE SUB DUP2 ADD SWAP1 PUSH2 0x312 SWAP2 SWAP1 PUSH2 0x169A JUMP JUMPDEST PUSH2 0x1329 JUMP JUMPDEST PUSH1 0x40 MLOAD PUSH2 0x326 SWAP4 SWAP3 SWAP2 SWAP1 PUSH2 0x1A9F JUMP JUMPDEST PUSH1 0x40 MLOAD DUP1 SWAP2 SUB SWAP1 RETURN JUMPDEST PUSH2 0x337 PUSH2 0x1399 JUMP JUMPDEST PUSH1 0x40 MLOAD PUSH2 0x344 SWAP2 SWAP1 PUSH2 0x1708 JUMP JUMPDEST PUSH1 0x40 MLOAD DUP1 SWAP2 SUB SWAP1 RETURN JUMPDEST PUSH2 0x355 PUSH2 0x13BD JUMP JUMPDEST PUSH1 0x40 MLOAD PUSH2 0x364 SWAP4 SWAP3 SWAP2 SWAP1 PUSH2 0x1C7B JUMP JUMPDEST PUSH1 0x40 MLOAD DUP1 SWAP2 SUB SWAP1 RETURN JUMPDEST PUSH1 0x8 DUP2 DUP2 SLOAD DUP2 LT PUSH2 0x37D JUMPI PUSH1 0x0 DUP1 REVERT JUMPDEST SWAP1 PUSH1 0x0 MSTORE PUSH1 0x20 PUSH1 0x0 KECCAK256 ADD PUSH1 0x0 SWAP2 POP SLOAD SWAP1 PUSH2 0x100 EXP SWAP1 DIV PUSH20 0xFFFFFFFFFFFFFFFFFFFFFFFFFFFFFFFFFFFFFFFF AND DUP2 JUMP JUMPDEST PUSH1 0x3 PUSH1 0x0 SWAP1 SLOAD SWAP1 PUSH2 0x100 EXP SWAP1 DIV PUSH20 0xFFFFFFFFFFFFFFFFFFFFFFFFFFFFFFFFFFFFFFFF AND PUSH20 0xFFFFFFFFFFFFFFFFFFFFFFFFFFFFFFFFFFFFFFFF AND CALLER PUSH20 0xFFFFFFFFFFFFFFFFFFFFFFFFFFFFFFFFFFFFFFFF AND EQ PUSH2 0x43C JUMPI PUSH1 0x40 MLOAD PUSH32 0x8C379A000000000000000000000000000000000000000000000000000000000 DUP2 MSTORE PUSH1 0x4 ADD PUSH2 0x433 SWAP1 PUSH2 0x1D39 JUMP JUMPDEST PUSH1 0x40 MLOAD DUP1 SWAP2 SUB SWAP1 REVERT JUMPDEST PUSH1 0x0 PUSH20 0xFFFFFFFFFFFFFFFFFFFFFFFFFFFFFFFFFFFFFFFF AND PUSH1 0x9 PUSH1 0x0 DUP4 PUSH20 0xFFFFFFFFFFFFFFFFFFFFFFFFFFFFFFFFFFFFFFFF AND PUSH20 0xFFFFFFFFFFFFFFFFFFFFFFFFFFFFFFFFFFFFFFFF AND DUP2 MSTORE PUSH1 0x20 ADD SWAP1 DUP2 MSTORE PUSH1 0x20 ADD PUSH1 0x0 KECCAK256 PUSH1 0x0 ADD PUSH1 0x1 SWAP1 SLOAD SWAP1 PUSH2 0x100 EXP SWAP1 DIV PUSH20 0xFFFFFFFFFFFFFFFFFFFFFFFFFFFFFFFFFFFFFFFF AND PUSH20 0xFFFFFFFFFFFFFFFFFFFFFFFFFFFFFFFFFFFFFFFF AND EQ PUSH2 0x50D JUMPI PUSH1 0x40 MLOAD PUSH32 0x8C379A000000000000000000000000000000000000000000000000000000000 DUP2 MSTORE PUSH1 0x4 ADD PUSH2 0x504 SWAP1 PUSH2 0x1DA5 JUMP JUMPDEST PUSH1 0x40 MLOAD DUP1 SWAP2 SUB SWAP1 REVERT JUMPDEST PUSH1 0x1 SLOAD TIMESTAMP LT PUSH2 0x551 JUMPI PUSH1 0x40 MLOAD PUSH32 0x8C379A000000000000000000000000000000000000000000000000000000000 DUP2 MSTORE PUSH1 0x4 ADD PUSH2 0x548 SWAP1 PUSH2 0x1E37 JUMP JUMPDEST PUSH1 0x40 MLOAD DUP1 SWAP2 SUB SWAP1 REVERT JUMPDEST PUSH1 0x0 PUSH1 0x40 MLOAD DUP1 PUSH1 0x60 ADD PUSH1 0x40 MSTORE DUP1 PUSH1 0x0 ISZERO ISZERO DUP2 MSTORE PUSH1 0x20 ADD DUP4 PUSH20 0xFFFFFFFFFFFFFFFFFFFFFFFFFFFFFFFFFFFFFFFF AND DUP2 MSTORE PUSH1 0x20 ADD PUSH1 0x0 ISZERO ISZERO DUP2 MSTORE POP SWAP1 POP DUP1 PUSH1 0x9 PUSH1 0x0 DUP5 PUSH20 0xFFFFFFFFFFFFFFFFFFFFFFFFFFFFFFFFFFFFFFFF AND PUSH20 0xFFFFFFFFFFFFFFFFFFFFFFFFFFFFFFFFFFFFFFFF AND DUP2 MSTORE PUSH1 0x20 ADD SWAP1 DUP2 MSTORE PUSH1 0x20 ADD PUSH1 0x0 KECCAK256 PUSH1 0x0 DUP3 ADD MLOAD DUP2 PUSH1 0x0 ADD PUSH1 0x0 PUSH2 0x100 EXP DUP2 SLOAD DUP2 PUSH1 0xFF MUL NOT AND SWAP1 DUP4 ISZERO ISZERO MUL OR SWAP1 SSTORE POP PUSH1 0x20 DUP3 ADD MLOAD DUP2 PUSH1 0x0 ADD PUSH1 0x1 PUSH2 0x100 EXP DUP2 SLOAD DUP2 PUSH20 0xFFFFFFFFFFFFFFFFFFFFFFFFFFFFFFFFFFFFFFFF MUL NOT AND SWAP1 DUP4 PUSH20 0xFFFFFFFFFFFFFFFFFFFFFFFFFFFFFFFFFFFFFFFF AND MUL OR SWAP1 SSTORE POP PUSH1 0x40 DUP3 ADD MLOAD DUP2 PUSH1 0x0 ADD PUSH1 0x15 PUSH2 0x100 EXP DUP2 SLOAD DUP2 PUSH1 0xFF MUL NOT AND SWAP1 DUP4 ISZERO ISZERO MUL OR SWAP1 SSTORE POP SWAP1 POP POP PUSH1 0x8 DUP3 SWAP1 DUP1 PUSH1 0x1 DUP2 SLOAD ADD DUP1 DUP3 SSTORE DUP1 SWAP2 POP POP PUSH1 0x1 SWAP1 SUB SWAP1 PUSH1 0x0 MSTORE PUSH1 0x20 PUSH1 0x0 KECCAK256 ADD PUSH1 0x0 SWAP1 SWAP2 SWAP1 SWAP2 SWAP1 SWAP2 PUSH2 0x100 EXP DUP2 SLOAD DUP2 PUSH20 0xFFFFFFFFFFFFFFFFFFFFFFFFFFFFFFFFFFFFFFFF MUL NOT AND SWAP1 DUP4 PUSH20 0xFFFFFFFFFFFFFFFFFFFFFFFFFFFFFFFFFFFFFFFF AND MUL OR SWAP1 SSTORE POP POP POP JUMP JUMPDEST PUSH1 0x60 PUSH1 0xA PUSH1 0x1 ADD DUP1 SLOAD PUSH2 0x6CF SWAP1 PUSH2 0x1E86 JUMP JUMPDEST DUP1 PUSH1 0x1F ADD PUSH1 0x20 DUP1 SWAP2 DIV MUL PUSH1 0x20 ADD PUSH1 0x40 MLOAD SWAP1 DUP2 ADD PUSH1 0x40 MSTORE DUP1 SWAP3 SWAP2 SWAP1 DUP2 DUP2 MSTORE PUSH1 0x20 ADD DUP3 DUP1 SLOAD PUSH2 0x6FB SWAP1 PUSH2 0x1E86 JUMP JUMPDEST DUP1 ISZERO PUSH2 0x748 JUMPI DUP1 PUSH1 0x1F LT PUSH2 0x71D JUMPI PUSH2 0x100 DUP1 DUP4 SLOAD DIV MUL DUP4 MSTORE SWAP2 PUSH1 0x20 ADD SWAP2 PUSH2 0x748 JUMP JUMPDEST DUP3 ADD SWAP2 SWAP1 PUSH1 0x0 MSTORE PUSH1 0x20 PUSH1 0x0 KECCAK256 SWAP1 JUMPDEST DUP2 SLOAD DUP2 MSTORE SWAP1 PUSH1 0x1 ADD SWAP1 PUSH1 0x20 ADD DUP1 DUP4 GT PUSH2 0x72B JUMPI DUP3 SWAP1 SUB PUSH1 0x1F AND DUP3 ADD SWAP2 JUMPDEST POP POP POP POP POP SWAP1 POP SWAP1 JUMP JUMPDEST PUSH1 0x0 PUSH1 0x9 PUSH1 0x0 DUP4 PUSH20 0xFFFFFFFFFFFFFFFFFFFFFFFFFFFFFFFFFFFFFFFF AND PUSH20 0xFFFFFFFFFFFFFFFFFFFFFFFFFFFFFFFFFFFFFFFF AND DUP2 MSTORE PUSH1 0x20 ADD SWAP1 DUP2 MSTORE PUSH1 0x20 ADD PUSH1 0x0 KECCAK256 PUSH1 0x0 ADD PUSH1 0x0 SWAP1 SLOAD SWAP1 PUSH2 0x100 EXP SWAP1 DIV PUSH1 0xFF AND SWAP1 POP SWAP2 SWAP1 POP JUMP JUMPDEST PUSH1 0x1 SLOAD TIMESTAMP LT PUSH2 0x7EF JUMPI PUSH1 0x40 MLOAD PUSH32 0x8C379A000000000000000000000000000000000000000000000000000000000 DUP2 MSTORE PUSH1 0x4 ADD PUSH2 0x7E6 SWAP1 PUSH2 0x1F03 JUMP JUMPDEST PUSH1 0x40 MLOAD DUP1 SWAP2 SUB SWAP1 REVERT JUMPDEST PUSH1 0x0 PUSH1 0x9 PUSH1 0x0 CALLER PUSH20 0xFFFFFFFFFFFFFFFFFFFFFFFFFFFFFFFFFFFFFFFF AND PUSH20 0xFFFFFFFFFFFFFFFFFFFFFFFFFFFFFFFFFFFFFFFF AND DUP2 MSTORE PUSH1 0x20 ADD SWAP1 DUP2 MSTORE PUSH1 0x20 ADD PUSH1 0x0 KECCAK256 PUSH1 0x40 MLOAD DUP1 PUSH1 0x60 ADD PUSH1 0x40 MSTORE SWAP1 DUP2 PUSH1 0x0 DUP3 ADD PUSH1 0x0 SWAP1 SLOAD SWAP1 PUSH2 0x100 EXP SWAP1 DIV PUSH1 0xFF AND ISZERO ISZERO ISZERO ISZERO DUP2 MSTORE PUSH1 0x20 ADD PUSH1 0x0 DUP3 ADD PUSH1 0x1 SWAP1 SLOAD SWAP1 PUSH2 0x100 EXP SWAP1 DIV PUSH20 0xFFFFFFFFFFFFFFFFFFFFFFFFFFFFFFFFFFFFFFFF AND PUSH20 0xFFFFFFFFFFFFFFFFFFFFFFFFFFFFFFFFFFFFFFFF AND PUSH20 0xFFFFFFFFFFFFFFFFFFFFFFFFFFFFFFFFFFFFFFFF AND DUP2 MSTORE PUSH1 0x20 ADD PUSH1 0x0 DUP3 ADD PUSH1 0x15 SWAP1 SLOAD SWAP1 PUSH2 0x100 EXP SWAP1 DIV PUSH1 0xFF AND ISZERO ISZERO ISZERO ISZERO DUP2 MSTORE POP POP SWAP1 POP PUSH1 0x0 PUSH20 0xFFFFFFFFFFFFFFFFFFFFFFFFFFFFFFFFFFFFFFFF AND DUP2 PUSH1 0x20 ADD MLOAD PUSH20 0xFFFFFFFFFFFFFFFFFFFFFFFFFFFFFFFFFFFFFFFF AND SUB PUSH2 0x93C JUMPI PUSH1 0x40 MLOAD PUSH32 0x8C379A000000000000000000000000000000000000000000000000000000000 DUP2 MSTORE PUSH1 0x4 ADD PUSH2 0x933 SWAP1 PUSH2 0x1F6F JUMP JUMPDEST PUSH1 0x40 MLOAD DUP1 SWAP2 SUB SWAP1 REVERT JUMPDEST DUP1 PUSH1 0x0 ADD MLOAD ISZERO PUSH2 0x981 JUMPI PUSH1 0x40 MLOAD PUSH32 0x8C379A000000000000000000000000000000000000000000000000000000000 DUP2 MSTORE PUSH1 0x4 ADD PUSH2 0x978 SWAP1 PUSH2 0x1FDB JUMP JUMPDEST PUSH1 0x40 MLOAD DUP1 SWAP2 SUB SWAP1 REVERT JUMPDEST PUSH1 0x40 MLOAD DUP1 PUSH1 0x40 ADD PUSH1 0x40 MSTORE DUP1 PUSH1 0x9 DUP2 MSTORE PUSH1 0x20 ADD PUSH32 0x6920617070726F76650000000000000000000000000000000000000000000000 DUP2 MSTORE POP DUP1 MLOAD SWAP1 PUSH1 0x20 ADD KECCAK256 DUP3 DUP1 MLOAD SWAP1 PUSH1 0x20 ADD KECCAK256 SUB PUSH2 0xBE6 JUMPI PUSH1 0x1 PUSH1 0x9 PUSH1 0x0 CALLER PUSH20 0xFFFFFFFFFFFFFFFFFFFFFFFFFFFFFFFFFFFFFFFF AND PUSH20 0xFFFFFFFFFFFFFFFFFFFFFFFFFFFFFFFFFFFFFFFF AND DUP2 MSTORE PUSH1 0x20 ADD SWAP1 DUP2 MSTORE PUSH1 0x20 ADD PUSH1 0x0 KECCAK256 PUSH1 0x0 ADD PUSH1 0x0 PUSH2 0x100 EXP DUP2 SLOAD DUP2 PUSH1 0xFF MUL NOT AND SWAP1 DUP4 ISZERO ISZERO MUL OR SWAP1 SSTORE POP PUSH1 0x1 PUSH1 0x9 PUSH1 0x0 CALLER PUSH20 0xFFFFFFFFFFFFFFFFFFFFFFFFFFFFFFFFFFFFFFFF AND PUSH20 0xFFFFFFFFFFFFFFFFFFFFFFFFFFFFFFFFFFFFFFFF AND DUP2 MSTORE PUSH1 0x20 ADD SWAP1 DUP2 MSTORE PUSH1 0x20 ADD PUSH1 0x0 KECCAK256 PUSH1 0x0 ADD PUSH1 0x15 PUSH2 0x100 EXP DUP2 SLOAD DUP2 PUSH1 0xFF MUL NOT AND SWAP1 DUP4 ISZERO ISZERO MUL OR SWAP1 SSTORE POP PUSH1 0x1 PUSH1 0x6 PUSH1 0x0 DUP3 DUP3 SLOAD PUSH2 0xA94 SWAP2 SWAP1 PUSH2 0x202A JUMP JUMPDEST SWAP3 POP POP DUP2 SWAP1 SSTORE POP PUSH1 0x1 PUSH1 0xA PUSH1 0x0 ADD PUSH1 0x0 DUP3 DUP3 SLOAD PUSH2 0xAB1 SWAP2 SWAP1 PUSH2 0x202A JUMP JUMPDEST SWAP3 POP POP DUP2 SWAP1 SSTORE POP PUSH1 0x7 PUSH1 0x9 PUSH1 0x0 CALLER PUSH20 0xFFFFFFFFFFFFFFFFFFFFFFFFFFFFFFFFFFFFFFFF AND PUSH20 0xFFFFFFFFFFFFFFFFFFFFFFFFFFFFFFFFFFFFFFFF AND DUP2 MSTORE PUSH1 0x20 ADD SWAP1 DUP2 MSTORE PUSH1 0x20 ADD PUSH1 0x0 KECCAK256 SWAP1 DUP1 PUSH1 0x1 DUP2 SLOAD ADD DUP1 DUP3 SSTORE DUP1 SWAP2 POP POP PUSH1 0x1 SWAP1 SUB SWAP1 PUSH1 0x0 MSTORE PUSH1 0x20 PUSH1 0x0 KECCAK256 ADD PUSH1 0x0 SWAP1 SWAP2 SWAP1 SWAP2 SWAP1 SWAP2 POP PUSH1 0x0 DUP3 ADD PUSH1 0x0 SWAP1 SLOAD SWAP1 PUSH2 0x100 EXP SWAP1 DIV PUSH1 0xFF AND DUP2 PUSH1 0x0 ADD PUSH1 0x0 PUSH2 0x100 EXP DUP2 SLOAD DUP2 PUSH1 0xFF MUL NOT AND SWAP1 DUP4 ISZERO ISZERO MUL OR SWAP1 SSTORE POP PUSH1 0x0 DUP3 ADD PUSH1 0x1 SWAP1 SLOAD SWAP1 PUSH2 0x100 EXP SWAP1 DIV PUSH20 0xFFFFFFFFFFFFFFFFFFFFFFFFFFFFFFFFFFFFFFFF AND DUP2 PUSH1 0x0 ADD PUSH1 0x1 PUSH2 0x100 EXP DUP2 SLOAD DUP2 PUSH20 0xFFFFFFFFFFFFFFFFFFFFFFFFFFFFFFFFFFFFFFFF MUL NOT AND SWAP1 DUP4 PUSH20 0xFFFFFFFFFFFFFFFFFFFFFFFFFFFFFFFFFFFFFFFF AND MUL OR SWAP1 SSTORE POP PUSH1 0x0 DUP3 ADD PUSH1 0x15 SWAP1 SLOAD SWAP1 PUSH2 0x100 EXP SWAP1 DIV PUSH1 0xFF AND DUP2 PUSH1 0x0 ADD PUSH1 0x15 PUSH2 0x100 EXP DUP2 SLOAD DUP2 PUSH1 0xFF MUL NOT AND SWAP1 DUP4 ISZERO ISZERO MUL OR SWAP1 SSTORE POP POP POP PUSH2 0xDD3 JUMP JUMPDEST PUSH1 0x40 MLOAD DUP1 PUSH1 0x40 ADD PUSH1 0x40 MSTORE DUP1 PUSH1 0xC DUP2 MSTORE PUSH1 0x20 ADD PUSH32 0x6920646973617070726F76650000000000000000000000000000000000000000 DUP2 MSTORE POP DUP1 MLOAD SWAP1 PUSH1 0x20 ADD KECCAK256 DUP3 DUP1 MLOAD SWAP1 PUSH1 0x20 ADD KECCAK256 SUB PUSH2 0xDD2 JUMPI PUSH1 0x1 PUSH1 0x9 PUSH1 0x0 CALLER PUSH20 0xFFFFFFFFFFFFFFFFFFFFFFFFFFFFFFFFFFFFFFFF AND PUSH20 0xFFFFFFFFFFFFFFFFFFFFFFFFFFFFFFFFFFFFFFFF AND DUP2 MSTORE PUSH1 0x20 ADD SWAP1 DUP2 MSTORE PUSH1 0x20 ADD PUSH1 0x0 KECCAK256 PUSH1 0x0 ADD PUSH1 0x0 PUSH2 0x100 EXP DUP2 SLOAD DUP2 PUSH1 0xFF MUL NOT AND SWAP1 DUP4 ISZERO ISZERO MUL OR SWAP1 SSTORE POP PUSH1 0x1 PUSH1 0xA PUSH1 0x0 ADD PUSH1 0x0 DUP3 DUP3 SLOAD PUSH2 0xCA1 SWAP2 SWAP1 PUSH2 0x202A JUMP JUMPDEST SWAP3 POP POP DUP2 SWAP1 SSTORE POP PUSH1 0x7 PUSH1 0x9 PUSH1 0x0 CALLER PUSH20 0xFFFFFFFFFFFFFFFFFFFFFFFFFFFFFFFFFFFFFFFF AND PUSH20 0xFFFFFFFFFFFFFFFFFFFFFFFFFFFFFFFFFFFFFFFF AND DUP2 MSTORE PUSH1 0x20 ADD SWAP1 DUP2 MSTORE PUSH1 0x20 ADD PUSH1 0x0 KECCAK256 SWAP1 DUP1 PUSH1 0x1 DUP2 SLOAD ADD DUP1 DUP3 SSTORE DUP1 SWAP2 POP POP PUSH1 0x1 SWAP1 SUB SWAP1 PUSH1 0x0 MSTORE PUSH1 0x20 PUSH1 0x0 KECCAK256 ADD PUSH1 0x0 SWAP1 SWAP2 SWAP1 SWAP2 SWAP1 SWAP2 POP PUSH1 0x0 DUP3 ADD PUSH1 0x0 SWAP1 SLOAD SWAP1 PUSH2 0x100 EXP SWAP1 DIV PUSH1 0xFF AND DUP2 PUSH1 0x0 ADD PUSH1 0x0 PUSH2 0x100 EXP DUP2 SLOAD DUP2 PUSH1 0xFF MUL NOT AND SWAP1 DUP4 ISZERO ISZERO MUL OR SWAP1 SSTORE POP PUSH1 0x0 DUP3 ADD PUSH1 0x1 SWAP1 SLOAD SWAP1 PUSH2 0x100 EXP SWAP1 DIV PUSH20 0xFFFFFFFFFFFFFFFFFFFFFFFFFFFFFFFFFFFFFFFF AND DUP2 PUSH1 0x0 ADD PUSH1 0x1 PUSH2 0x100 EXP DUP2 SLOAD DUP2 PUSH20 0xFFFFFFFFFFFFFFFFFFFFFFFFFFFFFFFFFFFFFFFF MUL NOT AND SWAP1 DUP4 PUSH20 0xFFFFFFFFFFFFFFFFFFFFFFFFFFFFFFFFFFFFFFFF AND MUL OR SWAP1 SSTORE POP PUSH1 0x0 DUP3 ADD PUSH1 0x15 SWAP1 SLOAD SWAP1 PUSH2 0x100 EXP SWAP1 DIV PUSH1 0xFF AND DUP2 PUSH1 0x0 ADD PUSH1 0x15 PUSH2 0x100 EXP DUP2 SLOAD DUP2 PUSH1 0xFF MUL NOT AND SWAP1 DUP4 ISZERO ISZERO MUL OR SWAP1 SSTORE POP POP POP JUMPDEST JUMPDEST POP POP JUMP JUMPDEST PUSH1 0x60 PUSH1 0x0 DUP1 PUSH1 0x0 DUP1 PUSH1 0xA PUSH1 0x1 ADD PUSH1 0x1 SLOAD PUSH1 0x3 PUSH1 0x0 SWAP1 SLOAD SWAP1 PUSH2 0x100 EXP SWAP1 DIV PUSH20 0xFFFFFFFFFFFFFFFFFFFFFFFFFFFFFFFFFFFFFFFF AND PUSH1 0x4 SLOAD PUSH1 0x6 SLOAD DUP5 DUP1 SLOAD PUSH2 0xE1C SWAP1 PUSH2 0x1E86 JUMP JUMPDEST DUP1 PUSH1 0x1F ADD PUSH1 0x20 DUP1 SWAP2 DIV MUL PUSH1 0x20 ADD PUSH1 0x40 MLOAD SWAP1 DUP2 ADD PUSH1 0x40 MSTORE DUP1 SWAP3 SWAP2 SWAP1 DUP2 DUP2 MSTORE PUSH1 0x20 ADD DUP3 DUP1 SLOAD PUSH2 0xE48 SWAP1 PUSH2 0x1E86 JUMP JUMPDEST DUP1 ISZERO PUSH2 0xE95 JUMPI DUP1 PUSH1 0x1F LT PUSH2 0xE6A JUMPI PUSH2 0x100 DUP1 DUP4 SLOAD DIV MUL DUP4 MSTORE SWAP2 PUSH1 0x20 ADD SWAP2 PUSH2 0xE95 JUMP JUMPDEST DUP3 ADD SWAP2 SWAP1 PUSH1 0x0 MSTORE PUSH1 0x20 PUSH1 0x0 KECCAK256 SWAP1 JUMPDEST DUP2 SLOAD DUP2 MSTORE SWAP1 PUSH1 0x1 ADD SWAP1 PUSH1 0x20 ADD DUP1 DUP4 GT PUSH2 0xE78 JUMPI DUP3 SWAP1 SUB PUSH1 0x1F AND DUP3 ADD SWAP2 JUMPDEST POP POP POP POP POP SWAP5 POP SWAP5 POP SWAP5 POP SWAP5 POP SWAP5 POP SWAP5 POP SWAP2 SWAP4 SWAP6 SWAP1 SWAP3 SWAP5 POP JUMP JUMPDEST PUSH1 0x3 PUSH1 0x0 SWAP1 SLOAD SWAP1 PUSH2 0x100 EXP SWAP1 DIV PUSH20 0xFFFFFFFFFFFFFFFFFFFFFFFFFFFFFFFFFFFFFFFF AND DUP2 JUMP JUMPDEST PUSH1 0x5 SLOAD DUP2 JUMP JUMPDEST PUSH1 0x6 SLOAD DUP2 JUMP JUMPDEST PUSH1 0xA DUP1 PUSH1 0x0 ADD SLOAD SWAP1 DUP1 PUSH1 0x1 ADD DUP1 SLOAD PUSH2 0xEF8 SWAP1 PUSH2 0x1E86 JUMP JUMPDEST DUP1 PUSH1 0x1F ADD PUSH1 0x20 DUP1 SWAP2 DIV MUL PUSH1 0x20 ADD PUSH1 0x40 MLOAD SWAP1 DUP2 ADD PUSH1 0x40 MSTORE DUP1 SWAP3 SWAP2 SWAP1 DUP2 DUP2 MSTORE PUSH1 0x20 ADD DUP3 DUP1 SLOAD PUSH2 0xF24 SWAP1 PUSH2 0x1E86 JUMP JUMPDEST DUP1 ISZERO PUSH2 0xF71 JUMPI DUP1 PUSH1 0x1F LT PUSH2 0xF46 JUMPI PUSH2 0x100 DUP1 DUP4 SLOAD DIV MUL DUP4 MSTORE SWAP2 PUSH1 0x20 ADD SWAP2 PUSH2 0xF71 JUMP JUMPDEST DUP3 ADD SWAP2 SWAP1 PUSH1 0x0 MSTORE PUSH1 0x20 PUSH1 0x0 KECCAK256 SWAP1 JUMPDEST DUP2 SLOAD DUP2 MSTORE SWAP1 PUSH1 0x1 ADD SWAP1 PUSH1 0x20 ADD DUP1 DUP4 GT PUSH2 0xF54 JUMPI DUP3 SWAP1 SUB PUSH1 0x1F AND DUP3 ADD SWAP2 JUMPDEST POP POP POP POP POP SWAP1 POP DUP3 JUMP JUMPDEST PUSH1 0x0 PUSH1 0x9 PUSH1 0x0 DUP4 PUSH20 0xFFFFFFFFFFFFFFFFFFFFFFFFFFFFFFFFFFFFFFFF AND PUSH20 0xFFFFFFFFFFFFFFFFFFFFFFFFFFFFFFFFFFFFFFFF AND DUP2 MSTORE PUSH1 0x20 ADD SWAP1 DUP2 MSTORE PUSH1 0x20 ADD PUSH1 0x0 KECCAK256 PUSH1 0x0 ADD PUSH1 0x15 SWAP1 SLOAD SWAP1 PUSH2 0x100 EXP SWAP1 DIV PUSH1 0xFF AND SWAP1 POP SWAP2 SWAP1 POP JUMP JUMPDEST PUSH1 0x1 SLOAD TIMESTAMP LT ISZERO PUSH2 0x1019 JUMPI PUSH1 0x40 MLOAD PUSH32 0x8C379A000000000000000000000000000000000000000000000000000000000 DUP2 MSTORE PUSH1 0x4 ADD PUSH2 0x1010 SWAP1 PUSH2 0x20CC JUMP JUMPDEST PUSH1 0x40 MLOAD DUP1 SWAP2 SUB SWAP1 REVERT JUMPDEST PUSH1 0x64 PUSH1 0x8 DUP1 SLOAD SWAP1 POP PUSH1 0x6 SLOAD PUSH2 0x102E SWAP2 SWAP1 PUSH2 0x211B JUMP JUMPDEST PUSH2 0x1038 SWAP2 SWAP1 PUSH2 0x214C JUMP JUMPDEST PUSH1 0x5 DUP2 SWAP1 SSTORE POP PUSH1 0x4 SLOAD PUSH1 0x5 SLOAD LT PUSH2 0x108F JUMPI PUSH1 0x40 MLOAD DUP1 PUSH1 0x40 ADD PUSH1 0x40 MSTORE DUP1 PUSH1 0x8 DUP2 MSTORE PUSH1 0x20 ADD PUSH32 0x4163636570746564000000000000000000000000000000000000000000000000 DUP2 MSTORE POP PUSH1 0x2 SWAP1 DUP2 PUSH2 0x108D SWAP2 SWAP1 PUSH2 0x2352 JUMP JUMPDEST POP JUMPDEST PUSH1 0x0 JUMPDEST PUSH1 0x8 DUP1 SLOAD SWAP1 POP DUP2 PUSH1 0xFF AND LT ISZERO PUSH2 0x12BC JUMPI PUSH1 0x0 ISZERO ISZERO PUSH1 0x9 PUSH1 0x0 PUSH1 0x8 DUP5 PUSH1 0xFF AND DUP2 SLOAD DUP2 LT PUSH2 0x10C1 JUMPI PUSH2 0x10C0 PUSH2 0x2424 JUMP JUMPDEST JUMPDEST SWAP1 PUSH1 0x0 MSTORE PUSH1 0x20 PUSH1 0x0 KECCAK256 ADD PUSH1 0x0 SWAP1 SLOAD SWAP1 PUSH2 0x100 EXP SWAP1 DIV PUSH20 0xFFFFFFFFFFFFFFFFFFFFFFFFFFFFFFFFFFFFFFFF AND PUSH20 0xFFFFFFFFFFFFFFFFFFFFFFFFFFFFFFFFFFFFFFFF AND PUSH20 0xFFFFFFFFFFFFFFFFFFFFFFFFFFFFFFFFFFFFFFFF AND DUP2 MSTORE PUSH1 0x20 ADD SWAP1 DUP2 MSTORE PUSH1 0x20 ADD PUSH1 0x0 KECCAK256 PUSH1 0x0 ADD PUSH1 0x0 SWAP1 SLOAD SWAP1 PUSH2 0x100 EXP SWAP1 DIV PUSH1 0xFF AND ISZERO ISZERO SUB PUSH2 0x12A9 JUMPI PUSH1 0x7 PUSH1 0x9 PUSH1 0x0 PUSH1 0x8 DUP5 PUSH1 0xFF AND DUP2 SLOAD DUP2 LT PUSH2 0x115B JUMPI PUSH2 0x115A PUSH2 0x2424 JUMP JUMPDEST JUMPDEST SWAP1 PUSH1 0x0 MSTORE PUSH1 0x20 PUSH1 0x0 KECCAK256 ADD PUSH1 0x0 SWAP1 SLOAD SWAP1 PUSH2 0x100 EXP SWAP1 DIV PUSH20 0xFFFFFFFFFFFFFFFFFFFFFFFFFFFFFFFFFFFFFFFF AND PUSH20 0xFFFFFFFFFFFFFFFFFFFFFFFFFFFFFFFFFFFFFFFF AND PUSH20 0xFFFFFFFFFFFFFFFFFFFFFFFFFFFFFFFFFFFFFFFF AND DUP2 MSTORE PUSH1 0x20 ADD SWAP1 DUP2 MSTORE PUSH1 0x20 ADD PUSH1 0x0 KECCAK256 SWAP1 DUP1 PUSH1 0x1 DUP2 SLOAD ADD DUP1 DUP3 SSTORE DUP1 SWAP2 POP POP PUSH1 0x1 SWAP1 SUB SWAP1 PUSH1 0x0 MSTORE PUSH1 0x20 PUSH1 0x0 KECCAK256 ADD PUSH1 0x0 SWAP1 SWAP2 SWAP1 SWAP2 SWAP1 SWAP2 POP PUSH1 0x0 DUP3 ADD PUSH1 0x0 SWAP1 SLOAD SWAP1 PUSH2 0x100 EXP SWAP1 DIV PUSH1 0xFF AND DUP2 PUSH1 0x0 ADD PUSH1 0x0 PUSH2 0x100 EXP DUP2 SLOAD DUP2 PUSH1 0xFF MUL NOT AND SWAP1 DUP4 ISZERO ISZERO MUL OR SWAP1 SSTORE POP PUSH1 0x0 DUP3 ADD PUSH1 0x1 SWAP1 SLOAD SWAP1 PUSH2 0x100 EXP SWAP1 DIV PUSH20 0xFFFFFFFFFFFFFFFFFFFFFFFFFFFFFFFFFFFFFFFF AND DUP2 PUSH1 0x0 ADD PUSH1 0x1 PUSH2 0x100 EXP DUP2 SLOAD DUP2 PUSH20 0xFFFFFFFFFFFFFFFFFFFFFFFFFFFFFFFFFFFFFFFF MUL NOT AND SWAP1 DUP4 PUSH20 0xFFFFFFFFFFFFFFFFFFFFFFFFFFFFFFFFFFFFFFFF AND MUL OR SWAP1 SSTORE POP PUSH1 0x0 DUP3 ADD PUSH1 0x15 SWAP1 SLOAD SWAP1 PUSH2 0x100 EXP SWAP1 DIV PUSH1 0xFF AND DUP2 PUSH1 0x0 ADD PUSH1 0x15 PUSH2 0x100 EXP DUP2 SLOAD DUP2 PUSH1 0xFF MUL NOT AND SWAP1 DUP4 ISZERO ISZERO MUL OR SWAP1 SSTORE POP POP POP JUMPDEST DUP1 DUP1 PUSH2 0x12B4 SWAP1 PUSH2 0x2460 JUMP JUMPDEST SWAP2 POP POP PUSH2 0x1092 JUMP JUMPDEST POP JUMP JUMPDEST PUSH1 0x9 PUSH1 0x20 MSTORE DUP1 PUSH1 0x0 MSTORE PUSH1 0x40 PUSH1 0x0 KECCAK256 PUSH1 0x0 SWAP2 POP SWAP1 POP DUP1 PUSH1 0x0 ADD PUSH1 0x0 SWAP1 SLOAD SWAP1 PUSH2 0x100 EXP SWAP1 DIV PUSH1 0xFF AND SWAP1 DUP1 PUSH1 0x0 ADD PUSH1 0x1 SWAP1 SLOAD SWAP1 PUSH2 0x100 EXP SWAP1 DIV PUSH20 0xFFFFFFFFFFFFFFFFFFFFFFFFFFFFFFFFFFFFFFFF AND SWAP1 DUP1 PUSH1 0x0 ADD PUSH1 0x15 SWAP1 SLOAD SWAP1 PUSH2 0x100 EXP SWAP1 DIV PUSH1 0xFF AND SWAP1 POP DUP4 JUMP JUMPDEST PUSH1 0x4 SLOAD DUP2 JUMP JUMPDEST PUSH1 0x7 DUP2 DUP2 SLOAD DUP2 LT PUSH2 0x1339 JUMPI PUSH1 0x0 DUP1 REVERT JUMPDEST SWAP1 PUSH1 0x0 MSTORE PUSH1 0x20 PUSH1 0x0 KECCAK256 ADD PUSH1 0x0 SWAP2 POP SWAP1 POP DUP1 PUSH1 0x0 ADD PUSH1 0x0 SWAP1 SLOAD SWAP1 PUSH2 0x100 EXP SWAP1 DIV PUSH1 0xFF AND SWAP1 DUP1 PUSH1 0x0 ADD PUSH1 0x1 SWAP1 SLOAD SWAP1 PUSH2 0x100 EXP SWAP1 DIV PUSH20 0xFFFFFFFFFFFFFFFFFFFFFFFFFFFFFFFFFFFFFFFF AND SWAP1 DUP1 PUSH1 0x0 ADD PUSH1 0x15 SWAP1 SLOAD SWAP1 PUSH2 0x100 EXP SWAP1 DIV PUSH1 0xFF AND SWAP1 POP DUP4 JUMP JUMPDEST PUSH1 0x0 DUP1 SLOAD SWAP1 PUSH2 0x100 EXP SWAP1 DIV PUSH20 0xFFFFFFFFFFFFFFFFFFFFFFFFFFFFFFFFFFFFFFFF AND DUP2 JUMP JUMPDEST PUSH1 0x60 PUSH2 0x13C7 PUSH2 0x1636 JUMP JUMPDEST PUSH1 0x60 PUSH1 0x1 SLOAD TIMESTAMP LT ISZERO PUSH2 0x140E JUMPI PUSH1 0x40 MLOAD PUSH32 0x8C379A000000000000000000000000000000000000000000000000000000000 DUP2 MSTORE PUSH1 0x4 ADD PUSH2 0x1405 SWAP1 PUSH2 0x20CC JUMP JUMPDEST PUSH1 0x40 MLOAD DUP1 SWAP2 SUB SWAP1 REVERT JUMPDEST PUSH1 0x2 PUSH1 0xA PUSH1 0x7 DUP3 DUP1 SLOAD PUSH2 0x1420 SWAP1 PUSH2 0x1E86 JUMP JUMPDEST DUP1 PUSH1 0x1F ADD PUSH1 0x20 DUP1 SWAP2 DIV MUL PUSH1 0x20 ADD PUSH1 0x40 MLOAD SWAP1 DUP2 ADD PUSH1 0x40 MSTORE DUP1 SWAP3 SWAP2 SWAP1 DUP2 DUP2 MSTORE PUSH1 0x20 ADD DUP3 DUP1 SLOAD PUSH2 0x144C SWAP1 PUSH2 0x1E86 JUMP JUMPDEST DUP1 ISZERO PUSH2 0x1499 JUMPI DUP1 PUSH1 0x1F LT PUSH2 0x146E JUMPI PUSH2 0x100 DUP1 DUP4 SLOAD DIV MUL DUP4 MSTORE SWAP2 PUSH1 0x20 ADD SWAP2 PUSH2 0x1499 JUMP JUMPDEST DUP3 ADD SWAP2 SWAP1 PUSH1 0x0 MSTORE PUSH1 0x20 PUSH1 0x0 KECCAK256 SWAP1 JUMPDEST DUP2 SLOAD DUP2 MSTORE SWAP1 PUSH1 0x1 ADD SWAP1 PUSH1 0x20 ADD DUP1 DUP4 GT PUSH2 0x147C JUMPI DUP3 SWAP1 SUB PUSH1 0x1F AND DUP3 ADD SWAP2 JUMPDEST POP POP POP POP POP SWAP3 POP DUP2 PUSH1 0x40 MLOAD DUP1 PUSH1 0x40 ADD PUSH1 0x40 MSTORE SWAP1 DUP2 PUSH1 0x0 DUP3 ADD SLOAD DUP2 MSTORE PUSH1 0x20 ADD PUSH1 0x1 DUP3 ADD DUP1 SLOAD PUSH2 0x14C6 SWAP1 PUSH2 0x1E86 JUMP JUMPDEST DUP1 PUSH1 0x1F ADD PUSH1 0x20 DUP1 SWAP2 DIV MUL PUSH1 0x20 ADD PUSH1 0x40 MLOAD SWAP1 DUP2 ADD PUSH1 0x40 MSTORE DUP1 SWAP3 SWAP2 SWAP1 DUP2 DUP2 MSTORE PUSH1 0x20 ADD DUP3 DUP1 SLOAD PUSH2 0x14F2 SWAP1 PUSH2 0x1E86 JUMP JUMPDEST DUP1 ISZERO PUSH2 0x153F JUMPI DUP1 PUSH1 0x1F LT PUSH2 0x1514 JUMPI PUSH2 0x100 DUP1 DUP4 SLOAD DIV MUL DUP4 MSTORE SWAP2 PUSH1 0x20 ADD SWAP2 PUSH2 0x153F JUMP JUMPDEST DUP3 ADD SWAP2 SWAP1 PUSH1 0x0 MSTORE PUSH1 0x20 PUSH1 0x0 KECCAK256 SWAP1 JUMPDEST DUP2 SLOAD DUP2 MSTORE SWAP1 PUSH1 0x1 ADD SWAP1 PUSH1 0x20 ADD DUP1 DUP4 GT PUSH2 0x1522 JUMPI DUP3 SWAP1 SUB PUSH1 0x1F AND DUP3 ADD SWAP2 JUMPDEST POP POP POP POP POP DUP2 MSTORE POP POP SWAP2 POP DUP1 DUP1 SLOAD DUP1 PUSH1 0x20 MUL PUSH1 0x20 ADD PUSH1 0x40 MLOAD SWAP1 DUP2 ADD PUSH1 0x40 MSTORE DUP1 SWAP3 SWAP2 SWAP1 DUP2 DUP2 MSTORE PUSH1 0x20 ADD PUSH1 0x0 SWAP1 JUMPDEST DUP3 DUP3 LT ISZERO PUSH2 0x1625 JUMPI DUP4 DUP3 SWAP1 PUSH1 0x0 MSTORE PUSH1 0x20 PUSH1 0x0 KECCAK256 ADD PUSH1 0x40 MLOAD DUP1 PUSH1 0x60 ADD PUSH1 0x40 MSTORE SWAP1 DUP2 PUSH1 0x0 DUP3 ADD PUSH1 0x0 SWAP1 SLOAD SWAP1 PUSH2 0x100 EXP SWAP1 DIV PUSH1 0xFF AND ISZERO ISZERO ISZERO ISZERO DUP2 MSTORE PUSH1 0x20 ADD PUSH1 0x0 DUP3 ADD PUSH1 0x1 SWAP1 SLOAD SWAP1 PUSH2 0x100 EXP SWAP1 DIV PUSH20 0xFFFFFFFFFFFFFFFFFFFFFFFFFFFFFFFFFFFFFFFF AND PUSH20 0xFFFFFFFFFFFFFFFFFFFFFFFFFFFFFFFFFFFFFFFF AND PUSH20 0xFFFFFFFFFFFFFFFFFFFFFFFFFFFFFFFFFFFFFFFF AND DUP2 MSTORE PUSH1 0x20 ADD PUSH1 0x0 DUP3 ADD PUSH1 0x15 SWAP1 SLOAD SWAP1 PUSH2 0x100 EXP SWAP1 DIV PUSH1 0xFF AND ISZERO ISZERO ISZERO ISZERO DUP2 MSTORE POP POP DUP2 MSTORE PUSH1 0x20 ADD SWAP1 PUSH1 0x1 ADD SWAP1 PUSH2 0x156B JUMP JUMPDEST POP POP POP POP SWAP1 POP SWAP3 POP SWAP3 POP SWAP3 POP SWAP1 SWAP2 SWAP3 JUMP JUMPDEST PUSH1 0x40 MLOAD DUP1 PUSH1 0x40 ADD PUSH1 0x40 MSTORE DUP1 PUSH1 0x0 DUP2 MSTORE PUSH1 0x20 ADD PUSH1 0x60 DUP2 MSTORE POP SWAP1 JUMP JUMPDEST PUSH1 0x0 PUSH1 0x40 MLOAD SWAP1 POP SWAP1 JUMP JUMPDEST PUSH1 0x0 DUP1 REVERT JUMPDEST PUSH1 0x0 DUP1 REVERT JUMPDEST PUSH1 0x0 DUP2 SWAP1 POP SWAP2 SWAP1 POP JUMP JUMPDEST PUSH2 0x1677 DUP2 PUSH2 0x1664 JUMP JUMPDEST DUP2 EQ PUSH2 0x1682 JUMPI PUSH1 0x0 DUP1 REVERT JUMPDEST POP JUMP JUMPDEST PUSH1 0x0 DUP2 CALLDATALOAD SWAP1 POP PUSH2 0x1694 DUP2 PUSH2 0x166E JUMP JUMPDEST SWAP3 SWAP2 POP POP JUMP JUMPDEST PUSH1 0x0 PUSH1 0x20 DUP3 DUP5 SUB SLT ISZERO PUSH2 0x16B0 JUMPI PUSH2 0x16AF PUSH2 0x165A JUMP JUMPDEST JUMPDEST PUSH1 0x0 PUSH2 0x16BE DUP5 DUP3 DUP6 ADD PUSH2 0x1685 JUMP JUMPDEST SWAP2 POP POP SWAP3 SWAP2 POP POP JUMP JUMPDEST PUSH1 0x0 PUSH20 0xFFFFFFFFFFFFFFFFFFFFFFFFFFFFFFFFFFFFFFFF DUP3 AND SWAP1 POP SWAP2 SWAP1 POP JUMP JUMPDEST PUSH1 0x0 PUSH2 0x16F2 DUP3 PUSH2 0x16C7 JUMP JUMPDEST SWAP1 POP SWAP2 SWAP1 POP JUMP JUMPDEST PUSH2 0x1702 DUP2 PUSH2 0x16E7 JUMP JUMPDEST DUP3 MSTORE POP POP JUMP JUMPDEST PUSH1 0x0 PUSH1 0x20 DUP3 ADD SWAP1 POP PUSH2 0x171D PUSH1 0x0 DUP4 ADD DUP5 PUSH2 0x16F9 JUMP JUMPDEST SWAP3 SWAP2 POP POP JUMP JUMPDEST PUSH2 0x172C DUP2 PUSH2 0x16E7 JUMP JUMPDEST DUP2 EQ PUSH2 0x1737 JUMPI PUSH1 0x0 DUP1 REVERT JUMPDEST POP JUMP JUMPDEST PUSH1 0x0 DUP2 CALLDATALOAD SWAP1 POP PUSH2 0x1749 DUP2 PUSH2 0x1723 JUMP JUMPDEST SWAP3 SWAP2 POP POP JUMP JUMPDEST PUSH1 0x0 PUSH1 0x20 DUP3 DUP5 SUB SLT ISZERO PUSH2 0x1765 JUMPI PUSH2 0x1764 PUSH2 0x165A JUMP JUMPDEST JUMPDEST PUSH1 0x0 PUSH2 0x1773 DUP5 DUP3 DUP6 ADD PUSH2 0x173A JUMP JUMPDEST SWAP2 POP POP SWAP3 SWAP2 POP POP JUMP JUMPDEST PUSH1 0x0 DUP2 MLOAD SWAP1 POP SWAP2 SWAP1 POP JUMP JUMPDEST PUSH1 0x0 DUP3 DUP3 MSTORE PUSH1 0x20 DUP3 ADD SWAP1 POP SWAP3 SWAP2 POP POP JUMP JUMPDEST PUSH1 0x0 JUMPDEST DUP4 DUP2 LT ISZERO PUSH2 0x17B6 JUMPI DUP1 DUP3 ADD MLOAD DUP2 DUP5 ADD MSTORE PUSH1 0x20 DUP2 ADD SWAP1 POP PUSH2 0x179B JUMP JUMPDEST DUP4 DUP2 GT ISZERO PUSH2 0x17C5 JUMPI PUSH1 0x0 DUP5 DUP5 ADD MSTORE JUMPDEST POP POP POP POP JUMP JUMPDEST PUSH1 0x0 PUSH1 0x1F NOT PUSH1 0x1F DUP4 ADD AND SWAP1 POP SWAP2 SWAP1 POP JUMP JUMPDEST PUSH1 0x0 PUSH2 0x17E7 DUP3 PUSH2 0x177C JUMP JUMPDEST PUSH2 0x17F1 DUP2 DUP6 PUSH2 0x1787 JUMP JUMPDEST SWAP4 POP PUSH2 0x1801 DUP2 DUP6 PUSH1 0x20 DUP7 ADD PUSH2 0x1798 JUMP JUMPDEST PUSH2 0x180A DUP2 PUSH2 0x17CB JUMP JUMPDEST DUP5 ADD SWAP2 POP POP SWAP3 SWAP2 POP POP JUMP JUMPDEST PUSH1 0x0 PUSH1 0x20 DUP3 ADD SWAP1 POP DUP2 DUP2 SUB PUSH1 0x0 DUP4 ADD MSTORE PUSH2 0x182F DUP2 DUP5 PUSH2 0x17DC JUMP JUMPDEST SWAP1 POP SWAP3 SWAP2 POP POP JUMP JUMPDEST PUSH1 0x0 DUP2 ISZERO ISZERO SWAP1 POP SWAP2 SWAP1 POP JUMP JUMPDEST PUSH2 0x184C DUP2 PUSH2 0x1837 JUMP JUMPDEST DUP3 MSTORE POP POP JUMP JUMPDEST PUSH1 0x0 PUSH1 0x20 DUP3 ADD SWAP1 POP PUSH2 0x1867 PUSH1 0x0 DUP4 ADD DUP5 PUSH2 0x1843 JUMP JUMPDEST SWAP3 SWAP2 POP POP JUMP JUMPDEST PUSH1 0x0 DUP1 REVERT JUMPDEST PUSH1 0x0 DUP1 REVERT JUMPDEST PUSH32 0x4E487B7100000000000000000000000000000000000000000000000000000000 PUSH1 0x0 MSTORE PUSH1 0x41 PUSH1 0x4 MSTORE PUSH1 0x24 PUSH1 0x0 REVERT JUMPDEST PUSH2 0x18AF DUP3 PUSH2 0x17CB JUMP JUMPDEST DUP2 ADD DUP2 DUP2 LT PUSH8 0xFFFFFFFFFFFFFFFF DUP3 GT OR ISZERO PUSH2 0x18CE JUMPI PUSH2 0x18CD PUSH2 0x1877 JUMP JUMPDEST JUMPDEST DUP1 PUSH1 0x40 MSTORE POP POP POP JUMP JUMPDEST PUSH1 0x0 PUSH2 0x18E1 PUSH2 0x1650 JUMP JUMPDEST SWAP1 POP PUSH2 0x18ED DUP3 DUP3 PUSH2 0x18A6 JUMP JUMPDEST SWAP2 SWAP1 POP JUMP JUMPDEST PUSH1 0x0 PUSH8 0xFFFFFFFFFFFFFFFF DUP3 GT ISZERO PUSH2 0x190D JUMPI PUSH2 0x190C PUSH2 0x1877 JUMP JUMPDEST JUMPDEST PUSH2 0x1916 DUP3 PUSH2 0x17CB JUMP JUMPDEST SWAP1 POP PUSH1 0x20 DUP2 ADD SWAP1 POP SWAP2 SWAP1 POP JUMP JUMPDEST DUP3 DUP2 DUP4 CALLDATACOPY PUSH1 0x0 DUP4 DUP4 ADD MSTORE POP POP POP JUMP JUMPDEST PUSH1 0x0 PUSH2 0x1945 PUSH2 0x1940 DUP5 PUSH2 0x18F2 JUMP JUMPDEST PUSH2 0x18D7 JUMP JUMPDEST SWAP1 POP DUP3 DUP2 MSTORE PUSH1 0x20 DUP2 ADD DUP5 DUP5 DUP5 ADD GT ISZERO PUSH2 0x1961 JUMPI PUSH2 0x1960 PUSH2 0x1872 JUMP JUMPDEST JUMPDEST PUSH2 0x196C DUP5 DUP3 DUP6 PUSH2 0x1923 JUMP JUMPDEST POP SWAP4 SWAP3 POP POP POP JUMP JUMPDEST PUSH1 0x0 DUP3 PUSH1 0x1F DUP4 ADD SLT PUSH2 0x1989 JUMPI PUSH2 0x1988 PUSH2 0x186D JUMP JUMPDEST JUMPDEST DUP2 CALLDATALOAD PUSH2 0x1999 DUP5 DUP3 PUSH1 0x20 DUP7 ADD PUSH2 0x1932 JUMP JUMPDEST SWAP2 POP POP SWAP3 SWAP2 POP POP JUMP JUMPDEST PUSH1 0x0 PUSH1 0x20 DUP3 DUP5 SUB SLT ISZERO PUSH2 0x19B8 JUMPI PUSH2 0x19B7 PUSH2 0x165A JUMP JUMPDEST JUMPDEST PUSH1 0x0 DUP3 ADD CALLDATALOAD PUSH8 0xFFFFFFFFFFFFFFFF DUP2 GT ISZERO PUSH2 0x19D6 JUMPI PUSH2 0x19D5 PUSH2 0x165F JUMP JUMPDEST JUMPDEST PUSH2 0x19E2 DUP5 DUP3 DUP6 ADD PUSH2 0x1974 JUMP JUMPDEST SWAP2 POP POP SWAP3 SWAP2 POP POP JUMP JUMPDEST PUSH2 0x19F4 DUP2 PUSH2 0x1664 JUMP JUMPDEST DUP3 MSTORE POP POP JUMP JUMPDEST PUSH1 0x0 PUSH1 0xA0 DUP3 ADD SWAP1 POP DUP2 DUP2 SUB PUSH1 0x0 DUP4 ADD MSTORE PUSH2 0x1A14 DUP2 DUP9 PUSH2 0x17DC JUMP JUMPDEST SWAP1 POP PUSH2 0x1A23 PUSH1 0x20 DUP4 ADD DUP8 PUSH2 0x19EB JUMP JUMPDEST PUSH2 0x1A30 PUSH1 0x40 DUP4 ADD DUP7 PUSH2 0x16F9 JUMP JUMPDEST PUSH2 0x1A3D PUSH1 0x60 DUP4 ADD DUP6 PUSH2 0x19EB JUMP JUMPDEST PUSH2 0x1A4A PUSH1 0x80 DUP4 ADD DUP5 PUSH2 0x19EB JUMP JUMPDEST SWAP7 SWAP6 POP POP POP POP POP POP JUMP JUMPDEST PUSH1 0x0 PUSH1 0x20 DUP3 ADD SWAP1 POP PUSH2 0x1A69 PUSH1 0x0 DUP4 ADD DUP5 PUSH2 0x19EB JUMP JUMPDEST SWAP3 SWAP2 POP POP JUMP JUMPDEST PUSH1 0x0 PUSH1 0x40 DUP3 ADD SWAP1 POP PUSH2 0x1A84 PUSH1 0x0 DUP4 ADD DUP6 PUSH2 0x19EB JUMP JUMPDEST DUP2 DUP2 SUB PUSH1 0x20 DUP4 ADD MSTORE PUSH2 0x1A96 DUP2 DUP5 PUSH2 0x17DC JUMP JUMPDEST SWAP1 POP SWAP4 SWAP3 POP POP POP JUMP JUMPDEST PUSH1 0x0 PUSH1 0x60 DUP3 ADD SWAP1 POP PUSH2 0x1AB4 PUSH1 0x0 DUP4 ADD DUP7 PUSH2 0x1843 JUMP JUMPDEST PUSH2 0x1AC1 PUSH1 0x20 DUP4 ADD DUP6 PUSH2 0x16F9 JUMP JUMPDEST PUSH2 0x1ACE PUSH1 0x40 DUP4 ADD DUP5 PUSH2 0x1843 JUMP JUMPDEST SWAP5 SWAP4 POP POP POP POP JUMP JUMPDEST PUSH2 0x1ADF DUP2 PUSH2 0x1664 JUMP JUMPDEST DUP3 MSTORE POP POP JUMP JUMPDEST PUSH1 0x0 DUP3 DUP3 MSTORE PUSH1 0x20 DUP3 ADD SWAP1 POP SWAP3 SWAP2 POP POP JUMP JUMPDEST PUSH1 0x0 PUSH2 0x1B01 DUP3 PUSH2 0x177C JUMP JUMPDEST PUSH2 0x1B0B DUP2 DUP6 PUSH2 0x1AE5 JUMP JUMPDEST SWAP4 POP PUSH2 0x1B1B DUP2 DUP6 PUSH1 0x20 DUP7 ADD PUSH2 0x1798 JUMP JUMPDEST PUSH2 0x1B24 DUP2 PUSH2 0x17CB JUMP JUMPDEST DUP5 ADD SWAP2 POP POP SWAP3 SWAP2 POP POP JUMP JUMPDEST PUSH1 0x0 PUSH1 0x40 DUP4 ADD PUSH1 0x0 DUP4 ADD MLOAD PUSH2 0x1B47 PUSH1 0x0 DUP7 ADD DUP3 PUSH2 0x1AD6 JUMP JUMPDEST POP PUSH1 0x20 DUP4 ADD MLOAD DUP5 DUP3 SUB PUSH1 0x20 DUP7 ADD MSTORE PUSH2 0x1B5F DUP3 DUP3 PUSH2 0x1AF6 JUMP JUMPDEST SWAP2 POP POP DUP1 SWAP2 POP POP SWAP3 SWAP2 POP POP JUMP JUMPDEST PUSH1 0x0 DUP2 MLOAD SWAP1 POP SWAP2 SWAP1 POP JUMP JUMPDEST PUSH1 0x0 DUP3 DUP3 MSTORE PUSH1 0x20 DUP3 ADD SWAP1 POP SWAP3 SWAP2 POP POP JUMP JUMPDEST PUSH1 0x0 DUP2 SWAP1 POP PUSH1 0x20 DUP3 ADD SWAP1 POP SWAP2 SWAP1 POP JUMP JUMPDEST PUSH2 0x1BA1 DUP2 PUSH2 0x1837 JUMP JUMPDEST DUP3 MSTORE POP POP JUMP JUMPDEST PUSH2 0x1BB0 DUP2 PUSH2 0x16E7 JUMP JUMPDEST DUP3 MSTORE POP POP JUMP JUMPDEST PUSH1 0x60 DUP3 ADD PUSH1 0x0 DUP3 ADD MLOAD PUSH2 0x1BCC PUSH1 0x0 DUP6 ADD DUP3 PUSH2 0x1B98 JUMP JUMPDEST POP PUSH1 0x20 DUP3 ADD MLOAD PUSH2 0x1BDF PUSH1 0x20 DUP6 ADD DUP3 PUSH2 0x1BA7 JUMP JUMPDEST POP PUSH1 0x40 DUP3 ADD MLOAD PUSH2 0x1BF2 PUSH1 0x40 DUP6 ADD DUP3 PUSH2 0x1B98 JUMP JUMPDEST POP POP POP POP JUMP JUMPDEST PUSH1 0x0 PUSH2 0x1C04 DUP4 DUP4 PUSH2 0x1BB6 JUMP JUMPDEST PUSH1 0x60 DUP4 ADD SWAP1 POP SWAP3 SWAP2 POP POP JUMP JUMPDEST PUSH1 0x0 PUSH1 0x20 DUP3 ADD SWAP1 POP SWAP2 SWAP1 POP JUMP JUMPDEST PUSH1 0x0 PUSH2 0x1C28 DUP3 PUSH2 0x1B6C JUMP JUMPDEST PUSH2 0x1C32 DUP2 DUP6 PUSH2 0x1B77 JUMP JUMPDEST SWAP4 POP PUSH2 0x1C3D DUP4 PUSH2 0x1B88 JUMP JUMPDEST DUP1 PUSH1 0x0 JUMPDEST DUP4 DUP2 LT ISZERO PUSH2 0x1C6E JUMPI DUP2 MLOAD PUSH2 0x1C55 DUP9 DUP3 PUSH2 0x1BF8 JUMP JUMPDEST SWAP8 POP PUSH2 0x1C60 DUP4 PUSH2 0x1C10 JUMP JUMPDEST SWAP3 POP POP PUSH1 0x1 DUP2 ADD SWAP1 POP PUSH2 0x1C41 JUMP JUMPDEST POP DUP6 SWAP4 POP POP POP POP SWAP3 SWAP2 POP POP JUMP JUMPDEST PUSH1 0x0 PUSH1 0x60 DUP3 ADD SWAP1 POP DUP2 DUP2 SUB PUSH1 0x0 DUP4 ADD MSTORE PUSH2 0x1C95 DUP2 DUP7 PUSH2 0x17DC JUMP JUMPDEST SWAP1 POP DUP2 DUP2 SUB PUSH1 0x20 DUP4 ADD MSTORE PUSH2 0x1CA9 DUP2 DUP6 PUSH2 0x1B2F JUMP JUMPDEST SWAP1 POP DUP2 DUP2 SUB PUSH1 0x40 DUP4 ADD MSTORE PUSH2 0x1CBD DUP2 DUP5 PUSH2 0x1C1D JUMP JUMPDEST SWAP1 POP SWAP5 SWAP4 POP POP POP POP JUMP JUMPDEST PUSH32 0x4F6E6C7920696E69746961746F722063616E2072656769737465722061207265 PUSH1 0x0 DUP3 ADD MSTORE PUSH32 0x63697069656E742E000000000000000000000000000000000000000000000000 PUSH1 0x20 DUP3 ADD MSTORE POP JUMP JUMPDEST PUSH1 0x0 PUSH2 0x1D23 PUSH1 0x28 DUP4 PUSH2 0x1787 JUMP JUMPDEST SWAP2 POP PUSH2 0x1D2E DUP3 PUSH2 0x1CC7 JUMP JUMPDEST PUSH1 0x40 DUP3 ADD SWAP1 POP SWAP2 SWAP1 POP JUMP JUMPDEST PUSH1 0x0 PUSH1 0x20 DUP3 ADD SWAP1 POP DUP2 DUP2 SUB PUSH1 0x0 DUP4 ADD MSTORE PUSH2 0x1D52 DUP2 PUSH2 0x1D16 JUMP JUMPDEST SWAP1 POP SWAP2 SWAP1 POP JUMP JUMPDEST PUSH32 0x526563697069656E7420697320616C7265616479207265676973746572656400 PUSH1 0x0 DUP3 ADD MSTORE POP JUMP JUMPDEST PUSH1 0x0 PUSH2 0x1D8F PUSH1 0x1F DUP4 PUSH2 0x1787 JUMP JUMPDEST SWAP2 POP PUSH2 0x1D9A DUP3 PUSH2 0x1D59 JUMP JUMPDEST PUSH1 0x20 DUP3 ADD SWAP1 POP SWAP2 SWAP1 POP JUMP JUMPDEST PUSH1 0x0 PUSH1 0x20 DUP3 ADD SWAP1 POP DUP2 DUP2 SUB PUSH1 0x0 DUP4 ADD MSTORE PUSH2 0x1DBE DUP2 PUSH2 0x1D82 JUMP JUMPDEST SWAP1 POP SWAP2 SWAP1 POP JUMP JUMPDEST PUSH32 0x50726F706F73616C206861732072656163686564206974732065787069727920 PUSH1 0x0 DUP3 ADD MSTORE PUSH32 0x6461746500000000000000000000000000000000000000000000000000000000 PUSH1 0x20 DUP3 ADD MSTORE POP JUMP JUMPDEST PUSH1 0x0 PUSH2 0x1E21 PUSH1 0x24 DUP4 PUSH2 0x1787 JUMP JUMPDEST SWAP2 POP PUSH2 0x1E2C DUP3 PUSH2 0x1DC5 JUMP JUMPDEST PUSH1 0x40 DUP3 ADD SWAP1 POP SWAP2 SWAP1 POP JUMP JUMPDEST PUSH1 0x0 PUSH1 0x20 DUP3 ADD SWAP1 POP DUP2 DUP2 SUB PUSH1 0x0 DUP4 ADD MSTORE PUSH2 0x1E50 DUP2 PUSH2 0x1E14 JUMP JUMPDEST SWAP1 POP SWAP2 SWAP1 POP JUMP JUMPDEST PUSH32 0x4E487B7100000000000000000000000000000000000000000000000000000000 PUSH1 0x0 MSTORE PUSH1 0x22 PUSH1 0x4 MSTORE PUSH1 0x24 PUSH1 0x0 REVERT JUMPDEST PUSH1 0x0 PUSH1 0x2 DUP3 DIV SWAP1 POP PUSH1 0x1 DUP3 AND DUP1 PUSH2 0x1E9E JUMPI PUSH1 0x7F DUP3 AND SWAP2 POP JUMPDEST PUSH1 0x20 DUP3 LT DUP2 SUB PUSH2 0x1EB1 JUMPI PUSH2 0x1EB0 PUSH2 0x1E57 JUMP JUMPDEST JUMPDEST POP SWAP2 SWAP1 POP JUMP JUMPDEST PUSH32 0x566F74696E672068617320657870697265640000000000000000000000000000 PUSH1 0x0 DUP3 ADD MSTORE POP JUMP JUMPDEST PUSH1 0x0 PUSH2 0x1EED PUSH1 0x12 DUP4 PUSH2 0x1787 JUMP JUMPDEST SWAP2 POP PUSH2 0x1EF8 DUP3 PUSH2 0x1EB7 JUMP JUMPDEST PUSH1 0x20 DUP3 ADD SWAP1 POP SWAP2 SWAP1 POP JUMP JUMPDEST PUSH1 0x0 PUSH1 0x20 DUP3 ADD SWAP1 POP DUP2 DUP2 SUB PUSH1 0x0 DUP4 ADD MSTORE PUSH2 0x1F1C DUP2 PUSH2 0x1EE0 JUMP JUMPDEST SWAP1 POP SWAP2 SWAP1 POP JUMP JUMPDEST PUSH32 0x596F7520617265206E6F74207265676973746572656420746F20766F74650000 PUSH1 0x0 DUP3 ADD MSTORE POP JUMP JUMPDEST PUSH1 0x0 PUSH2 0x1F59 PUSH1 0x1E DUP4 PUSH2 0x1787 JUMP JUMPDEST SWAP2 POP PUSH2 0x1F64 DUP3 PUSH2 0x1F23 JUMP JUMPDEST PUSH1 0x20 DUP3 ADD SWAP1 POP SWAP2 SWAP1 POP JUMP JUMPDEST PUSH1 0x0 PUSH1 0x20 DUP3 ADD SWAP1 POP DUP2 DUP2 SUB PUSH1 0x0 DUP4 ADD MSTORE PUSH2 0x1F88 DUP2 PUSH2 0x1F4C JUMP JUMPDEST SWAP1 POP SWAP2 SWAP1 POP JUMP JUMPDEST PUSH32 0x596F7520616C72656164792073656E74206120726573706F6E73652E00000000 PUSH1 0x0 DUP3 ADD MSTORE POP JUMP JUMPDEST PUSH1 0x0 PUSH2 0x1FC5 PUSH1 0x1C DUP4 PUSH2 0x1787 JUMP JUMPDEST SWAP2 POP PUSH2 0x1FD0 DUP3 PUSH2 0x1F8F JUMP JUMPDEST PUSH1 0x20 DUP3 ADD SWAP1 POP SWAP2 SWAP1 POP JUMP JUMPDEST PUSH1 0x0 PUSH1 0x20 DUP3 ADD SWAP1 POP DUP2 DUP2 SUB PUSH1 0x0 DUP4 ADD MSTORE PUSH2 0x1FF4 DUP2 PUSH2 0x1FB8 JUMP JUMPDEST SWAP1 POP SWAP2 SWAP1 POP JUMP JUMPDEST PUSH32 0x4E487B7100000000000000000000000000000000000000000000000000000000 PUSH1 0x0 MSTORE PUSH1 0x11 PUSH1 0x4 MSTORE PUSH1 0x24 PUSH1 0x0 REVERT JUMPDEST PUSH1 0x0 PUSH2 0x2035 DUP3 PUSH2 0x1664 JUMP JUMPDEST SWAP2 POP PUSH2 0x2040 DUP4 PUSH2 0x1664 JUMP JUMPDEST SWAP3 POP DUP3 PUSH32 0xFFFFFFFFFFFFFFFFFFFFFFFFFFFFFFFFFFFFFFFFFFFFFFFFFFFFFFFFFFFFFFFF SUB DUP3 GT ISZERO PUSH2 0x2075 JUMPI PUSH2 0x2074 PUSH2 0x1FFB JUMP JUMPDEST JUMPDEST DUP3 DUP3 ADD SWAP1 POP SWAP3 SWAP2 POP POP JUMP JUMPDEST PUSH32 0x5665726469637420686173206E6F74206265656E207265616368656420796574 PUSH1 0x0 DUP3 ADD MSTORE POP JUMP JUMPDEST PUSH1 0x0 PUSH2 0x20B6 PUSH1 0x20 DUP4 PUSH2 0x1787 JUMP JUMPDEST SWAP2 POP PUSH2 0x20C1 DUP3 PUSH2 0x2080 JUMP JUMPDEST PUSH1 0x20 DUP3 ADD SWAP1 POP SWAP2 SWAP1 POP JUMP JUMPDEST PUSH1 0x0 PUSH1 0x20 DUP3 ADD SWAP1 POP DUP2 DUP2 SUB PUSH1 0x0 DUP4 ADD MSTORE PUSH2 0x20E5 DUP2 PUSH2 0x20A9 JUMP JUMPDEST SWAP1 POP SWAP2 SWAP1 POP JUMP JUMPDEST PUSH32 0x4E487B7100000000000000000000000000000000000000000000000000000000 PUSH1 0x0 MSTORE PUSH1 0x12 PUSH1 0x4 MSTORE PUSH1 0x24 PUSH1 0x0 REVERT JUMPDEST PUSH1 0x0 PUSH2 0x2126 DUP3 PUSH2 0x1664 JUMP JUMPDEST SWAP2 POP PUSH2 0x2131 DUP4 PUSH2 0x1664 JUMP JUMPDEST SWAP3 POP DUP3 PUSH2 0x2141 JUMPI PUSH2 0x2140 PUSH2 0x20EC JUMP JUMPDEST JUMPDEST DUP3 DUP3 DIV SWAP1 POP SWAP3 SWAP2 POP POP JUMP JUMPDEST PUSH1 0x0 PUSH2 0x2157 DUP3 PUSH2 0x1664 JUMP JUMPDEST SWAP2 POP PUSH2 0x2162 DUP4 PUSH2 0x1664 JUMP JUMPDEST SWAP3 POP DUP2 PUSH32 0xFFFFFFFFFFFFFFFFFFFFFFFFFFFFFFFFFFFFFFFFFFFFFFFFFFFFFFFFFFFFFFFF DIV DUP4 GT DUP3 ISZERO ISZERO AND ISZERO PUSH2 0x219B JUMPI PUSH2 0x219A PUSH2 0x1FFB JUMP JUMPDEST JUMPDEST DUP3 DUP3 MUL SWAP1 POP SWAP3 SWAP2 POP POP JUMP JUMPDEST PUSH1 0x0 DUP2 SWAP1 POP DUP2 PUSH1 0x0 MSTORE PUSH1 0x20 PUSH1 0x0 KECCAK256 SWAP1 POP SWAP2 SWAP1 POP JUMP JUMPDEST PUSH1 0x0 PUSH1 0x20 PUSH1 0x1F DUP4 ADD DIV SWAP1 POP SWAP2 SWAP1 POP JUMP JUMPDEST PUSH1 0x0 DUP3 DUP3 SHL SWAP1 POP SWAP3 SWAP2 POP POP JUMP JUMPDEST PUSH1 0x0 PUSH1 0x8 DUP4 MUL PUSH2 0x2208 PUSH32 0xFFFFFFFFFFFFFFFFFFFFFFFFFFFFFFFFFFFFFFFFFFFFFFFFFFFFFFFFFFFFFFFF DUP3 PUSH2 0x21CB JUMP JUMPDEST PUSH2 0x2212 DUP7 DUP4 PUSH2 0x21CB JUMP JUMPDEST SWAP6 POP DUP1 NOT DUP5 AND SWAP4 POP DUP1 DUP7 AND DUP5 OR SWAP3 POP POP POP SWAP4 SWAP3 POP POP POP JUMP JUMPDEST PUSH1 0x0 DUP2 SWAP1 POP SWAP2 SWAP1 POP JUMP JUMPDEST PUSH1 0x0 PUSH2 0x224F PUSH2 0x224A PUSH2 0x2245 DUP5 PUSH2 0x1664 JUMP JUMPDEST PUSH2 0x222A JUMP JUMPDEST PUSH2 0x1664 JUMP JUMPDEST SWAP1 POP SWAP2 SWAP1 POP JUMP JUMPDEST PUSH1 0x0 DUP2 SWAP1 POP SWAP2 SWAP1 POP JUMP JUMPDEST PUSH2 0x2269 DUP4 PUSH2 0x2234 JUMP JUMPDEST PUSH2 0x227D PUSH2 0x2275 DUP3 PUSH2 0x2256 JUMP JUMPDEST DUP5 DUP5 SLOAD PUSH2 0x21D8 JUMP JUMPDEST DUP3 SSTORE POP POP POP POP JUMP JUMPDEST PUSH1 0x0 SWAP1 JUMP JUMPDEST PUSH2 0x2292 PUSH2 0x2285 JUMP JUMPDEST PUSH2 0x229D DUP2 DUP5 DUP5 PUSH2 0x2260 JUMP JUMPDEST POP POP POP JUMP JUMPDEST JUMPDEST DUP2 DUP2 LT ISZERO PUSH2 0x22C1 JUMPI PUSH2 0x22B6 PUSH1 0x0 DUP3 PUSH2 0x228A JUMP JUMPDEST PUSH1 0x1 DUP2 ADD SWAP1 POP PUSH2 0x22A3 JUMP JUMPDEST POP POP JUMP JUMPDEST PUSH1 0x1F DUP3 GT ISZERO PUSH2 0x2306 JUMPI PUSH2 0x22D7 DUP2 PUSH2 0x21A6 JUMP JUMPDEST PUSH2 0x22E0 DUP5 PUSH2 0x21BB JUMP JUMPDEST DUP2 ADD PUSH1 0x20 DUP6 LT ISZERO PUSH2 0x22EF JUMPI DUP2 SWAP1 POP JUMPDEST PUSH2 0x2303 PUSH2 0x22FB DUP6 PUSH2 0x21BB JUMP JUMPDEST DUP4 ADD DUP3 PUSH2 0x22A2 JUMP JUMPDEST POP POP JUMPDEST POP POP POP JUMP JUMPDEST PUSH1 0x0 DUP3 DUP3 SHR SWAP1 POP SWAP3 SWAP2 POP POP JUMP JUMPDEST PUSH1 0x0 PUSH2 0x2329 PUSH1 0x0 NOT DUP5 PUSH1 0x8 MUL PUSH2 0x230B JUMP JUMPDEST NOT DUP1 DUP4 AND SWAP2 POP POP SWAP3 SWAP2 POP POP JUMP JUMPDEST PUSH1 0x0 PUSH2 0x2342 DUP4 DUP4 PUSH2 0x2318 JUMP JUMPDEST SWAP2 POP DUP3 PUSH1 0x2 MUL DUP3 OR SWAP1 POP SWAP3 SWAP2 POP POP JUMP JUMPDEST PUSH2 0x235B DUP3 PUSH2 0x177C JUMP JUMPDEST PUSH8 0xFFFFFFFFFFFFFFFF DUP2 GT ISZERO PUSH2 0x2374 JUMPI PUSH2 0x2373 PUSH2 0x1877 JUMP JUMPDEST JUMPDEST PUSH2 0x237E DUP3 SLOAD PUSH2 0x1E86 JUMP JUMPDEST PUSH2 0x2389 DUP3 DUP3 DUP6 PUSH2 0x22C5 JUMP JUMPDEST PUSH1 0x0 PUSH1 0x20 SWAP1 POP PUSH1 0x1F DUP4 GT PUSH1 0x1 DUP2 EQ PUSH2 0x23BC JUMPI PUSH1 0x0 DUP5 ISZERO PUSH2 0x23AA JUMPI DUP3 DUP8 ADD MLOAD SWAP1 POP JUMPDEST PUSH2 0x23B4 DUP6 DUP3 PUSH2 0x2336 JUMP JUMPDEST DUP7 SSTORE POP PUSH2 0x241C JUMP JUMPDEST PUSH1 0x1F NOT DUP5 AND PUSH2 0x23CA DUP7 PUSH2 0x21A6 JUMP JUMPDEST PUSH1 0x0 JUMPDEST DUP3 DUP2 LT ISZERO PUSH2 0x23F2 JUMPI DUP5 DUP10 ADD MLOAD DUP3 SSTORE PUSH1 0x1 DUP3 ADD SWAP2 POP PUSH1 0x20 DUP6 ADD SWAP5 POP PUSH1 0x20 DUP2 ADD SWAP1 POP PUSH2 0x23CD JUMP JUMPDEST DUP7 DUP4 LT ISZERO PUSH2 0x240F JUMPI DUP5 DUP10 ADD MLOAD PUSH2 0x240B PUSH1 0x1F DUP10 AND DUP3 PUSH2 0x2318 JUMP JUMPDEST DUP4 SSTORE POP JUMPDEST PUSH1 0x1 PUSH1 0x2 DUP9 MUL ADD DUP9 SSTORE POP POP POP JUMPDEST POP POP POP POP POP POP JUMP JUMPDEST PUSH32 0x4E487B7100000000000000000000000000000000000000000000000000000000 PUSH1 0x0 MSTORE PUSH1 0x32 PUSH1 0x4 MSTORE PUSH1 0x24 PUSH1 0x0 REVERT JUMPDEST PUSH1 0x0 PUSH1 0xFF DUP3 AND SWAP1 POP SWAP2 SWAP1 POP JUMP JUMPDEST PUSH1 0x0 PUSH2 0x246B DUP3 PUSH2 0x2453 JUMP JUMPDEST SWAP2 POP PUSH1 0xFF DUP3 SUB PUSH2 0x247E JUMPI PUSH2 0x247D PUSH2 0x1FFB JUMP JUMPDEST JUMPDEST PUSH1 0x1 DUP3 ADD SWAP1 POP SWAP2 SWAP1 POP JUMP INVALID LOG2 PUSH5 0x6970667358 0x22 SLT KECCAK256 0xB5 DUP1 CALLDATACOPY 0x5F 0x4B 0x28 PUSH25 0xCCF0DE3ABE668ACA9AEE6FAC1F3AA9C6E5025BD66F6D59A30A PUSH5 0x736F6C6343 STOP ADDMOD 0xF STOP CALLER "
				},
				"gasEstimates": {
					"creation": {
						"codeDepositCost": "1881400",
						"executionCost": "infinite",
						"totalCost": "infinite"
					},
					"external": {
						"AccumulatedPercentage()": "2518",
						"Bundle()": "infinite",
						"BusinessRequirement()": "2473",
						"Consensus()": "infinite",
						"RegisterVoter(address)": "128843",
						"Vote(string)": "infinite",
						"contractAddress()": "2599",
						"getParameters(address)": "infinite",
						"getValues()": "infinite",
						"getVote(address)": "3006",
						"getVoters(address)": "2979",
						"initiator()": "2581",
						"keys(uint256)": "4980",
						"numApprovals()": "2452",
						"proposal()": "infinite",
						"voters(uint256)": "infinite",
						"voters_map(address)": "infinite"
					}
				},
				"methodIdentifiers": {
					"AccumulatedPercentage()": "604c8333",
					"Bundle()": "fe8ff236",
					"BusinessRequirement()": "d77aa749",
					"Consensus()": "95b02dfa",
					"RegisterVoter(address)": "15fe6f1b",
					"Vote(string)": "323082d7",
					"contractAddress()": "f6b4dfb4",
					"getParameters(address)": "59c96c11",
					"getValues()": "19eb4a90",
					"getVote(address)": "8d337b81",
					"getVoters(address)": "2d15cc04",
					"initiator()": "5c39fcc1",
					"keys(uint256)": "0cb6aaf1",
					"numApprovals()": "7403c5e5",
					"proposal()": "753ec103",
					"voters(uint256)": "da58c7d9",
					"voters_map(address)": "9aa4bbdd"
				}
			},
			"storageLayout": {
				"storage": [
					{
						"astId": 15,
						"contract": "contracts/BusinessConsensus.sol:BusinessConsensus",
						"label": "contractAddress",
						"offset": 0,
						"slot": "0",
						"type": "t_address"
					},
					{
						"astId": 17,
						"contract": "contracts/BusinessConsensus.sol:BusinessConsensus",
						"label": "expiryDate",
						"offset": 0,
						"slot": "1",
						"type": "t_uint256"
					},
					{
						"astId": 19,
						"contract": "contracts/BusinessConsensus.sol:BusinessConsensus",
						"label": "finalVerdict",
						"offset": 0,
						"slot": "2",
						"type": "t_string_storage"
					},
					{
						"astId": 23,
						"contract": "contracts/BusinessConsensus.sol:BusinessConsensus",
						"label": "initiator",
						"offset": 0,
						"slot": "3",
						"type": "t_address"
					},
					{
						"astId": 25,
						"contract": "contracts/BusinessConsensus.sol:BusinessConsensus",
						"label": "BusinessRequirement",
						"offset": 0,
						"slot": "4",
						"type": "t_uint256"
					},
					{
						"astId": 27,
						"contract": "contracts/BusinessConsensus.sol:BusinessConsensus",
						"label": "AccumulatedPercentage",
						"offset": 0,
						"slot": "5",
						"type": "t_uint256"
					},
					{
						"astId": 29,
						"contract": "contracts/BusinessConsensus.sol:BusinessConsensus",
						"label": "numApprovals",
						"offset": 0,
						"slot": "6",
						"type": "t_uint256"
					},
					{
						"astId": 33,
						"contract": "contracts/BusinessConsensus.sol:BusinessConsensus",
						"label": "voters",
						"offset": 0,
						"slot": "7",
						"type": "t_array(t_struct(Voter)8_storage)dyn_storage"
					},
					{
						"astId": 36,
						"contract": "contracts/BusinessConsensus.sol:BusinessConsensus",
						"label": "keys",
						"offset": 0,
						"slot": "8",
						"type": "t_array(t_address)dyn_storage"
					},
					{
						"astId": 41,
						"contract": "contracts/BusinessConsensus.sol:BusinessConsensus",
						"label": "voters_map",
						"offset": 0,
						"slot": "9",
						"type": "t_mapping(t_address,t_struct(Voter)8_storage)"
					},
					{
						"astId": 44,
						"contract": "contracts/BusinessConsensus.sol:BusinessConsensus",
						"label": "proposal",
						"offset": 0,
						"slot": "10",
						"type": "t_struct(Proposal)13_storage"
					}
				],
				"types": {
					"t_address": {
						"encoding": "inplace",
						"label": "address",
						"numberOfBytes": "20"
					},
					"t_array(t_address)dyn_storage": {
						"base": "t_address",
						"encoding": "dynamic_array",
						"label": "address[]",
						"numberOfBytes": "32"
					},
					"t_array(t_struct(Voter)8_storage)dyn_storage": {
						"base": "t_struct(Voter)8_storage",
						"encoding": "dynamic_array",
						"label": "struct BusinessConsensus.Voter[]",
						"numberOfBytes": "32"
					},
					"t_bool": {
						"encoding": "inplace",
						"label": "bool",
						"numberOfBytes": "1"
					},
					"t_mapping(t_address,t_struct(Voter)8_storage)": {
						"encoding": "mapping",
						"key": "t_address",
						"label": "mapping(address => struct BusinessConsensus.Voter)",
						"numberOfBytes": "32",
						"value": "t_struct(Voter)8_storage"
					},
					"t_string_storage": {
						"encoding": "bytes",
						"label": "string",
						"numberOfBytes": "32"
					},
					"t_struct(Proposal)13_storage": {
						"encoding": "inplace",
						"label": "struct BusinessConsensus.Proposal",
						"members": [
							{
								"astId": 10,
								"contract": "contracts/BusinessConsensus.sol:BusinessConsensus",
								"label": "voteCount",
								"offset": 0,
								"slot": "0",
								"type": "t_uint256"
							},
							{
								"astId": 12,
								"contract": "contracts/BusinessConsensus.sol:BusinessConsensus",
								"label": "messageID",
								"offset": 0,
								"slot": "1",
								"type": "t_string_storage"
							}
						],
						"numberOfBytes": "64"
					},
					"t_struct(Voter)8_storage": {
						"encoding": "inplace",
						"label": "struct BusinessConsensus.Voter",
						"members": [
							{
								"astId": 3,
								"contract": "contracts/BusinessConsensus.sol:BusinessConsensus",
								"label": "voted",
								"offset": 0,
								"slot": "0",
								"type": "t_bool"
							},
							{
								"astId": 5,
								"contract": "contracts/BusinessConsensus.sol:BusinessConsensus",
								"label": "recipient",
								"offset": 1,
								"slot": "0",
								"type": "t_address"
							},
							{
								"astId": 7,
								"contract": "contracts/BusinessConsensus.sol:BusinessConsensus",
								"label": "vote",
								"offset": 21,
								"slot": "0",
								"type": "t_bool"
							}
						],
						"numberOfBytes": "32"
					},
					"t_uint256": {
						"encoding": "inplace",
						"label": "uint256",
						"numberOfBytes": "32"
					}
				}
			},
			"userdoc": {
				"kind": "user",
				"methods": {
					"Consensus()": {
						"notice": "compile all relevant information into a Bundle"
					},
					"Vote(string)": {
						"notice": "Delegate your vote to the voter `to`."
					}
				},
				"version": 1
			}
		}
	}
}