{
	"contracts/BusinessConsensus.sol": {
		"BusinessConsensus": {
			"abi": [
				{
					"inputs": [
						{
							"internalType": "string",
							"name": "_messageID",
							"type": "string"
						},
						{
							"internalType": "uint256",
							"name": "expiry",
							"type": "uint256"
						},
						{
							"internalType": "uint256",
							"name": "requiredPercentage",
							"type": "uint256"
						}
					],
					"stateMutability": "nonpayable",
					"type": "constructor"
				},
				{
					"anonymous": false,
					"inputs": [],
					"name": "votingCompleted",
					"type": "event"
				},
				{
					"inputs": [],
					"name": "AccumulatedPercentage",
					"outputs": [
						{
							"internalType": "uint256",
							"name": "",
							"type": "uint256"
						}
					],
					"stateMutability": "view",
					"type": "function"
				},
				{
					"inputs": [],
					"name": "BusinessRequirement",
					"outputs": [
						{
							"internalType": "uint256",
							"name": "",
							"type": "uint256"
						}
					],
					"stateMutability": "view",
					"type": "function"
				},
				{
					"inputs": [],
					"name": "Consensus",
					"outputs": [],
					"stateMutability": "nonpayable",
					"type": "function"
				},
				{
					"inputs": [
						{
							"internalType": "address",
							"name": "voter",
							"type": "address"
						}
					],
					"name": "RegisterVoter",
					"outputs": [],
					"stateMutability": "nonpayable",
					"type": "function"
				},
				{
					"inputs": [
						{
							"internalType": "string",
							"name": "response",
							"type": "string"
						}
					],
					"name": "Vote",
					"outputs": [],
					"stateMutability": "nonpayable",
					"type": "function"
				},
				{
					"inputs": [],
					"name": "compile_bundle",
					"outputs": [
						{
							"components": [
								{
									"internalType": "string",
									"name": "Verdict",
									"type": "string"
								},
								{
									"components": [
										{
											"internalType": "uint256",
											"name": "voteCount",
											"type": "uint256"
										},
										{
											"internalType": "string",
											"name": "messageID",
											"type": "string"
										}
									],
									"internalType": "struct BusinessConsensus.Proposal",
									"name": "businessProposal",
									"type": "tuple"
								},
								{
									"components": [
										{
											"internalType": "bool",
											"name": "voted",
											"type": "bool"
										},
										{
											"internalType": "address",
											"name": "recipient",
											"type": "address"
										},
										{
											"internalType": "bool",
											"name": "vote",
											"type": "bool"
										}
									],
									"internalType": "struct BusinessConsensus.Voter[]",
									"name": "votersList",
									"type": "tuple[]"
								}
							],
							"internalType": "struct BusinessConsensus.Bundle",
							"name": "",
							"type": "tuple"
						}
					],
					"stateMutability": "view",
					"type": "function"
				},
				{
					"inputs": [],
					"name": "contractAddress",
					"outputs": [
						{
							"internalType": "address",
							"name": "",
							"type": "address"
						}
					],
					"stateMutability": "view",
					"type": "function"
				},
				{
					"inputs": [],
					"name": "getParameters",
					"outputs": [
						{
							"internalType": "string",
							"name": "",
							"type": "string"
						},
						{
							"internalType": "uint256",
							"name": "",
							"type": "uint256"
						},
						{
							"internalType": "address",
							"name": "",
							"type": "address"
						},
						{
							"internalType": "uint256",
							"name": "",
							"type": "uint256"
						},
						{
							"internalType": "uint256",
							"name": "",
							"type": "uint256"
						}
					],
					"stateMutability": "view",
					"type": "function"
				},
				{
					"inputs": [
						{
							"internalType": "address",
							"name": "test_address",
							"type": "address"
						}
					],
					"name": "getParameters2",
					"outputs": [
						{
							"internalType": "bool",
							"name": "",
							"type": "bool"
						},
						{
							"internalType": "bool",
							"name": "",
							"type": "bool"
						},
						{
							"internalType": "address",
							"name": "",
							"type": "address"
						}
					],
					"stateMutability": "view",
					"type": "function"
				},
				{
					"inputs": [],
					"name": "getValues",
					"outputs": [
						{
							"internalType": "string",
							"name": "",
							"type": "string"
						}
					],
					"stateMutability": "view",
					"type": "function"
				},
				{
					"inputs": [],
					"name": "initiator",
					"outputs": [
						{
							"internalType": "address",
							"name": "",
							"type": "address"
						}
					],
					"stateMutability": "view",
					"type": "function"
				},
				{
					"inputs": [
						{
							"internalType": "uint256",
							"name": "",
							"type": "uint256"
						}
					],
					"name": "keys",
					"outputs": [
						{
							"internalType": "address",
							"name": "",
							"type": "address"
						}
					],
					"stateMutability": "view",
					"type": "function"
				},
				{
					"inputs": [],
					"name": "numApprovals",
					"outputs": [
						{
							"internalType": "uint256",
							"name": "",
							"type": "uint256"
						}
					],
					"stateMutability": "view",
					"type": "function"
				},
				{
					"inputs": [],
					"name": "numberCompiled",
					"outputs": [
						{
							"internalType": "uint256",
							"name": "",
							"type": "uint256"
						}
					],
					"stateMutability": "view",
					"type": "function"
				},
				{
					"inputs": [],
					"name": "proposal",
					"outputs": [
						{
							"internalType": "uint256",
							"name": "voteCount",
							"type": "uint256"
						},
						{
							"internalType": "string",
							"name": "messageID",
							"type": "string"
						}
					],
					"stateMutability": "view",
					"type": "function"
				},
				{
					"inputs": [
						{
							"internalType": "uint256",
							"name": "",
							"type": "uint256"
						}
					],
					"name": "voters",
					"outputs": [
						{
							"internalType": "bool",
							"name": "voted",
							"type": "bool"
						},
						{
							"internalType": "address",
							"name": "recipient",
							"type": "address"
						},
						{
							"internalType": "bool",
							"name": "vote",
							"type": "bool"
						}
					],
					"stateMutability": "view",
					"type": "function"
				},
				{
					"inputs": [
						{
							"internalType": "address",
							"name": "",
							"type": "address"
						}
					],
					"name": "voters_map",
					"outputs": [
						{
							"internalType": "bool",
							"name": "voted",
							"type": "bool"
						},
						{
							"internalType": "address",
							"name": "recipient",
							"type": "address"
						},
						{
							"internalType": "bool",
							"name": "vote",
							"type": "bool"
						}
					],
					"stateMutability": "view",
					"type": "function"
				}
			],
			"devdoc": {
				"kind": "dev",
				"methods": {},
				"version": 1
			},
			"evm": {
				"assembly": "    /* \"contracts/BusinessConsensus.sol\":33:5084  contract BusinessConsensus{... */\n  mstore(0x40, 0x80)\n    /* \"contracts/BusinessConsensus.sol\":1438:1998  constructor(string memory _messageID, uint expiry, uint requiredPercentage) {... */\n  callvalue\n  dup1\n  iszero\n  tag_1\n  jumpi\n  0x00\n  dup1\n  revert\ntag_1:\n  pop\n  mload(0x40)\n  sub(codesize, bytecodeSize)\n  dup1\n  bytecodeSize\n  dup4\n  codecopy\n  dup2\n  dup2\n  add\n  0x40\n  mstore\n  dup2\n  add\n  swap1\n  tag_2\n  swap2\n  swap1\n  tag_3\n  jump\t// in\ntag_2:\n    /* \"contracts/BusinessConsensus.sol\":1537:1547  msg.sender */\n  caller\n    /* \"contracts/BusinessConsensus.sol\":1525:1534  initiator */\n  0x03\n  0x00\n    /* \"contracts/BusinessConsensus.sol\":1525:1547  initiator = msg.sender */\n  0x0100\n  exp\n  dup2\n  sload\n  dup2\n  0xffffffffffffffffffffffffffffffffffffffff\n  mul\n  not\n  and\n  swap1\n  dup4\n  0xffffffffffffffffffffffffffffffffffffffff\n  and\n  mul\n  or\n  swap1\n  sstore\n  pop\n    /* \"contracts/BusinessConsensus.sol\":1589:1595  expiry */\n  dup2\n    /* \"contracts/BusinessConsensus.sol\":1571:1586  block.timestamp */\n  timestamp\n    /* \"contracts/BusinessConsensus.sol\":1571:1595  block.timestamp + expiry */\n  tag_6\n  swap2\n  swap1\n  tag_7\n  jump\t// in\ntag_6:\n    /* \"contracts/BusinessConsensus.sol\":1558:1568  expiryDate */\n  0x01\n    /* \"contracts/BusinessConsensus.sol\":1558:1595  expiryDate = block.timestamp + expiry */\n  dup2\n  swap1\n  sstore\n  pop\n    /* \"contracts/BusinessConsensus.sol\":1628:1646  requiredPercentage */\n  dup1\n    /* \"contracts/BusinessConsensus.sol\":1606:1625  BusinessRequirement */\n  0x04\n    /* \"contracts/BusinessConsensus.sol\":1606:1646  BusinessRequirement = requiredPercentage */\n  dup2\n  swap1\n  sstore\n  pop\n    /* \"contracts/BusinessConsensus.sol\":1681:1682  0 */\n  0x00\n    /* \"contracts/BusinessConsensus.sol\":1657:1678  AccumulatedPercentage */\n  0x05\n    /* \"contracts/BusinessConsensus.sol\":1657:1682  AccumulatedPercentage = 0 */\n  dup2\n  swap1\n  sstore\n  pop\n    /* \"contracts/BusinessConsensus.sol\":1708:1709  0 */\n  0x00\n    /* \"contracts/BusinessConsensus.sol\":1693:1705  numApprovals */\n  0x06\n    /* \"contracts/BusinessConsensus.sol\":1693:1709  numApprovals = 0 */\n  dup2\n  swap1\n  sstore\n  pop\n    /* \"contracts/BusinessConsensus.sol\":1720:1745  finalVerdict = \"Rejected\" */\n  mload(0x40)\n  dup1\n  0x40\n  add\n  0x40\n  mstore\n  dup1\n  0x08\n  dup2\n  mstore\n  0x20\n  add\n  0x52656a6563746564000000000000000000000000000000000000000000000000\n  dup2\n  mstore\n  pop\n    /* \"contracts/BusinessConsensus.sol\":1720:1732  finalVerdict */\n  0x02\n    /* \"contracts/BusinessConsensus.sol\":1720:1745  finalVerdict = \"Rejected\" */\n  swap1\n  dup2\n  tag_8\n  swap2\n  swap1\n  tag_9\n  jump\t// in\ntag_8:\n  pop\n    /* \"contracts/BusinessConsensus.sol\":1782:1786  this */\n  address\n    /* \"contracts/BusinessConsensus.sol\":1756:1771  contractAddress */\n  0x00\n  dup1\n    /* \"contracts/BusinessConsensus.sol\":1756:1787  contractAddress = address(this) */\n  0x0100\n  exp\n  dup2\n  sload\n  dup2\n  0xffffffffffffffffffffffffffffffffffffffff\n  mul\n  not\n  and\n  swap1\n  dup4\n  0xffffffffffffffffffffffffffffffffffffffff\n  and\n  mul\n  or\n  swap1\n  sstore\n  pop\n    /* \"contracts/BusinessConsensus.sol\":1894:1990  Proposal({... */\n  mload(0x40)\n  dup1\n  0x40\n  add\n  0x40\n  mstore\n  dup1\n    /* \"contracts/BusinessConsensus.sol\":1933:1934  0 */\n  0x00\n    /* \"contracts/BusinessConsensus.sol\":1894:1990  Proposal({... */\n  dup2\n  mstore\n  0x20\n  add\n    /* \"contracts/BusinessConsensus.sol\":1964:1974  _messageID */\n  dup5\n    /* \"contracts/BusinessConsensus.sol\":1894:1990  Proposal({... */\n  dup2\n  mstore\n  pop\n    /* \"contracts/BusinessConsensus.sol\":1883:1891  proposal */\n  0x0b\n    /* \"contracts/BusinessConsensus.sol\":1883:1990  proposal = Proposal({... */\n  0x00\n  dup3\n  add\n  mload\n  dup2\n  0x00\n  add\n  sstore\n  0x20\n  dup3\n  add\n  mload\n  dup2\n  0x01\n  add\n  swap1\n  dup2\n  tag_10\n  swap2\n  swap1\n  tag_9\n  jump\t// in\ntag_10:\n  pop\n  swap1\n  pop\n  pop\n    /* \"contracts/BusinessConsensus.sol\":1438:1998  constructor(string memory _messageID, uint expiry, uint requiredPercentage) {... */\n  pop\n  pop\n  pop\n    /* \"contracts/BusinessConsensus.sol\":33:5084  contract BusinessConsensus{... */\n  jump(tag_11)\n    /* \"#utility.yul\":7:82   */\ntag_12:\n    /* \"#utility.yul\":40:46   */\n  0x00\n    /* \"#utility.yul\":73:75   */\n  0x40\n    /* \"#utility.yul\":67:76   */\n  mload\n    /* \"#utility.yul\":57:76   */\n  swap1\n  pop\n    /* \"#utility.yul\":7:82   */\n  swap1\n  jump\t// out\n    /* \"#utility.yul\":88:205   */\ntag_13:\n    /* \"#utility.yul\":197:198   */\n  0x00\n    /* \"#utility.yul\":194:195   */\n  dup1\n    /* \"#utility.yul\":187:199   */\n  revert\n    /* \"#utility.yul\":211:328   */\ntag_14:\n    /* \"#utility.yul\":320:321   */\n  0x00\n    /* \"#utility.yul\":317:318   */\n  dup1\n    /* \"#utility.yul\":310:322   */\n  revert\n    /* \"#utility.yul\":334:451   */\ntag_15:\n    /* \"#utility.yul\":443:444   */\n  0x00\n    /* \"#utility.yul\":440:441   */\n  dup1\n    /* \"#utility.yul\":433:445   */\n  revert\n    /* \"#utility.yul\":457:574   */\ntag_16:\n    /* \"#utility.yul\":566:567   */\n  0x00\n    /* \"#utility.yul\":563:564   */\n  dup1\n    /* \"#utility.yul\":556:568   */\n  revert\n    /* \"#utility.yul\":580:682   */\ntag_17:\n    /* \"#utility.yul\":621:627   */\n  0x00\n    /* \"#utility.yul\":672:674   */\n  0x1f\n    /* \"#utility.yul\":668:675   */\n  not\n    /* \"#utility.yul\":663:665   */\n  0x1f\n    /* \"#utility.yul\":656:661   */\n  dup4\n    /* \"#utility.yul\":652:666   */\n  add\n    /* \"#utility.yul\":648:676   */\n  and\n    /* \"#utility.yul\":638:676   */\n  swap1\n  pop\n    /* \"#utility.yul\":580:682   */\n  swap2\n  swap1\n  pop\n  jump\t// out\n    /* \"#utility.yul\":688:868   */\ntag_18:\n    /* \"#utility.yul\":736:813   */\n  0x4e487b7100000000000000000000000000000000000000000000000000000000\n    /* \"#utility.yul\":733:734   */\n  0x00\n    /* \"#utility.yul\":726:814   */\n  mstore\n    /* \"#utility.yul\":833:837   */\n  0x41\n    /* \"#utility.yul\":830:831   */\n  0x04\n    /* \"#utility.yul\":823:838   */\n  mstore\n    /* \"#utility.yul\":857:861   */\n  0x24\n    /* \"#utility.yul\":854:855   */\n  0x00\n    /* \"#utility.yul\":847:862   */\n  revert\n    /* \"#utility.yul\":874:1155   */\ntag_19:\n    /* \"#utility.yul\":957:984   */\n  tag_56\n    /* \"#utility.yul\":979:983   */\n  dup3\n    /* \"#utility.yul\":957:984   */\n  tag_17\n  jump\t// in\ntag_56:\n    /* \"#utility.yul\":949:955   */\n  dup2\n    /* \"#utility.yul\":945:985   */\n  add\n    /* \"#utility.yul\":1087:1093   */\n  dup2\n    /* \"#utility.yul\":1075:1085   */\n  dup2\n    /* \"#utility.yul\":1072:1094   */\n  lt\n    /* \"#utility.yul\":1051:1069   */\n  0xffffffffffffffff\n    /* \"#utility.yul\":1039:1049   */\n  dup3\n    /* \"#utility.yul\":1036:1070   */\n  gt\n    /* \"#utility.yul\":1033:1095   */\n  or\n    /* \"#utility.yul\":1030:1118   */\n  iszero\n  tag_57\n  jumpi\n    /* \"#utility.yul\":1098:1116   */\n  tag_58\n  tag_18\n  jump\t// in\ntag_58:\n    /* \"#utility.yul\":1030:1118   */\ntag_57:\n    /* \"#utility.yul\":1138:1148   */\n  dup1\n    /* \"#utility.yul\":1134:1136   */\n  0x40\n    /* \"#utility.yul\":1127:1149   */\n  mstore\n    /* \"#utility.yul\":917:1155   */\n  pop\n    /* \"#utility.yul\":874:1155   */\n  pop\n  pop\n  jump\t// out\n    /* \"#utility.yul\":1161:1290   */\ntag_20:\n    /* \"#utility.yul\":1195:1201   */\n  0x00\n    /* \"#utility.yul\":1222:1242   */\n  tag_60\n  tag_12\n  jump\t// in\ntag_60:\n    /* \"#utility.yul\":1212:1242   */\n  swap1\n  pop\n    /* \"#utility.yul\":1251:1284   */\n  tag_61\n    /* \"#utility.yul\":1279:1283   */\n  dup3\n    /* \"#utility.yul\":1271:1277   */\n  dup3\n    /* \"#utility.yul\":1251:1284   */\n  tag_19\n  jump\t// in\ntag_61:\n    /* \"#utility.yul\":1161:1290   */\n  swap2\n  swap1\n  pop\n  jump\t// out\n    /* \"#utility.yul\":1296:1604   */\ntag_21:\n    /* \"#utility.yul\":1358:1362   */\n  0x00\n    /* \"#utility.yul\":1448:1466   */\n  0xffffffffffffffff\n    /* \"#utility.yul\":1440:1446   */\n  dup3\n    /* \"#utility.yul\":1437:1467   */\n  gt\n    /* \"#utility.yul\":1434:1490   */\n  iszero\n  tag_63\n  jumpi\n    /* \"#utility.yul\":1470:1488   */\n  tag_64\n  tag_18\n  jump\t// in\ntag_64:\n    /* \"#utility.yul\":1434:1490   */\ntag_63:\n    /* \"#utility.yul\":1508:1537   */\n  tag_65\n    /* \"#utility.yul\":1530:1536   */\n  dup3\n    /* \"#utility.yul\":1508:1537   */\n  tag_17\n  jump\t// in\ntag_65:\n    /* \"#utility.yul\":1500:1537   */\n  swap1\n  pop\n    /* \"#utility.yul\":1592:1596   */\n  0x20\n    /* \"#utility.yul\":1586:1590   */\n  dup2\n    /* \"#utility.yul\":1582:1597   */\n  add\n    /* \"#utility.yul\":1574:1597   */\n  swap1\n  pop\n    /* \"#utility.yul\":1296:1604   */\n  swap2\n  swap1\n  pop\n  jump\t// out\n    /* \"#utility.yul\":1610:1917   */\ntag_22:\n    /* \"#utility.yul\":1678:1679   */\n  0x00\n    /* \"#utility.yul\":1688:1801   */\ntag_67:\n    /* \"#utility.yul\":1702:1708   */\n  dup4\n    /* \"#utility.yul\":1699:1700   */\n  dup2\n    /* \"#utility.yul\":1696:1709   */\n  lt\n    /* \"#utility.yul\":1688:1801   */\n  iszero\n  tag_69\n  jumpi\n    /* \"#utility.yul\":1787:1788   */\n  dup1\n    /* \"#utility.yul\":1782:1785   */\n  dup3\n    /* \"#utility.yul\":1778:1789   */\n  add\n    /* \"#utility.yul\":1772:1790   */\n  mload\n    /* \"#utility.yul\":1768:1769   */\n  dup2\n    /* \"#utility.yul\":1763:1766   */\n  dup5\n    /* \"#utility.yul\":1759:1770   */\n  add\n    /* \"#utility.yul\":1752:1791   */\n  mstore\n    /* \"#utility.yul\":1724:1726   */\n  0x20\n    /* \"#utility.yul\":1721:1722   */\n  dup2\n    /* \"#utility.yul\":1717:1727   */\n  add\n    /* \"#utility.yul\":1712:1727   */\n  swap1\n  pop\n    /* \"#utility.yul\":1688:1801   */\n  jump(tag_67)\ntag_69:\n    /* \"#utility.yul\":1819:1825   */\n  dup4\n    /* \"#utility.yul\":1816:1817   */\n  dup2\n    /* \"#utility.yul\":1813:1826   */\n  gt\n    /* \"#utility.yul\":1810:1911   */\n  iszero\n  tag_70\n  jumpi\n    /* \"#utility.yul\":1899:1900   */\n  0x00\n    /* \"#utility.yul\":1890:1896   */\n  dup5\n    /* \"#utility.yul\":1885:1888   */\n  dup5\n    /* \"#utility.yul\":1881:1897   */\n  add\n    /* \"#utility.yul\":1874:1901   */\n  mstore\n    /* \"#utility.yul\":1810:1911   */\ntag_70:\n    /* \"#utility.yul\":1659:1917   */\n  pop\n    /* \"#utility.yul\":1610:1917   */\n  pop\n  pop\n  pop\n  jump\t// out\n    /* \"#utility.yul\":1923:2344   */\ntag_23:\n    /* \"#utility.yul\":2012:2017   */\n  0x00\n    /* \"#utility.yul\":2037:2103   */\n  tag_72\n    /* \"#utility.yul\":2053:2102   */\n  tag_73\n    /* \"#utility.yul\":2095:2101   */\n  dup5\n    /* \"#utility.yul\":2053:2102   */\n  tag_21\n  jump\t// in\ntag_73:\n    /* \"#utility.yul\":2037:2103   */\n  tag_20\n  jump\t// in\ntag_72:\n    /* \"#utility.yul\":2028:2103   */\n  swap1\n  pop\n    /* \"#utility.yul\":2126:2132   */\n  dup3\n    /* \"#utility.yul\":2119:2124   */\n  dup2\n    /* \"#utility.yul\":2112:2133   */\n  mstore\n    /* \"#utility.yul\":2164:2168   */\n  0x20\n    /* \"#utility.yul\":2157:2162   */\n  dup2\n    /* \"#utility.yul\":2153:2169   */\n  add\n    /* \"#utility.yul\":2202:2205   */\n  dup5\n    /* \"#utility.yul\":2193:2199   */\n  dup5\n    /* \"#utility.yul\":2188:2191   */\n  dup5\n    /* \"#utility.yul\":2184:2200   */\n  add\n    /* \"#utility.yul\":2181:2206   */\n  gt\n    /* \"#utility.yul\":2178:2290   */\n  iszero\n  tag_74\n  jumpi\n    /* \"#utility.yul\":2209:2288   */\n  tag_75\n  tag_16\n  jump\t// in\ntag_75:\n    /* \"#utility.yul\":2178:2290   */\ntag_74:\n    /* \"#utility.yul\":2299:2338   */\n  tag_76\n    /* \"#utility.yul\":2331:2337   */\n  dup5\n    /* \"#utility.yul\":2326:2329   */\n  dup3\n    /* \"#utility.yul\":2321:2324   */\n  dup6\n    /* \"#utility.yul\":2299:2338   */\n  tag_22\n  jump\t// in\ntag_76:\n    /* \"#utility.yul\":2018:2344   */\n  pop\n    /* \"#utility.yul\":1923:2344   */\n  swap4\n  swap3\n  pop\n  pop\n  pop\n  jump\t// out\n    /* \"#utility.yul\":2364:2719   */\ntag_24:\n    /* \"#utility.yul\":2431:2436   */\n  0x00\n    /* \"#utility.yul\":2480:2483   */\n  dup3\n    /* \"#utility.yul\":2473:2477   */\n  0x1f\n    /* \"#utility.yul\":2465:2471   */\n  dup4\n    /* \"#utility.yul\":2461:2478   */\n  add\n    /* \"#utility.yul\":2457:2484   */\n  slt\n    /* \"#utility.yul\":2447:2569   */\n  tag_78\n  jumpi\n    /* \"#utility.yul\":2488:2567   */\n  tag_79\n  tag_15\n  jump\t// in\ntag_79:\n    /* \"#utility.yul\":2447:2569   */\ntag_78:\n    /* \"#utility.yul\":2598:2604   */\n  dup2\n    /* \"#utility.yul\":2592:2605   */\n  mload\n    /* \"#utility.yul\":2623:2713   */\n  tag_80\n    /* \"#utility.yul\":2709:2712   */\n  dup5\n    /* \"#utility.yul\":2701:2707   */\n  dup3\n    /* \"#utility.yul\":2694:2698   */\n  0x20\n    /* \"#utility.yul\":2686:2692   */\n  dup7\n    /* \"#utility.yul\":2682:2699   */\n  add\n    /* \"#utility.yul\":2623:2713   */\n  tag_23\n  jump\t// in\ntag_80:\n    /* \"#utility.yul\":2614:2713   */\n  swap2\n  pop\n    /* \"#utility.yul\":2437:2719   */\n  pop\n    /* \"#utility.yul\":2364:2719   */\n  swap3\n  swap2\n  pop\n  pop\n  jump\t// out\n    /* \"#utility.yul\":2725:2802   */\ntag_25:\n    /* \"#utility.yul\":2762:2769   */\n  0x00\n    /* \"#utility.yul\":2791:2796   */\n  dup2\n    /* \"#utility.yul\":2780:2796   */\n  swap1\n  pop\n    /* \"#utility.yul\":2725:2802   */\n  swap2\n  swap1\n  pop\n  jump\t// out\n    /* \"#utility.yul\":2808:2930   */\ntag_26:\n    /* \"#utility.yul\":2881:2905   */\n  tag_83\n    /* \"#utility.yul\":2899:2904   */\n  dup2\n    /* \"#utility.yul\":2881:2905   */\n  tag_25\n  jump\t// in\ntag_83:\n    /* \"#utility.yul\":2874:2879   */\n  dup2\n    /* \"#utility.yul\":2871:2906   */\n  eq\n    /* \"#utility.yul\":2861:2924   */\n  tag_84\n  jumpi\n    /* \"#utility.yul\":2920:2921   */\n  0x00\n    /* \"#utility.yul\":2917:2918   */\n  dup1\n    /* \"#utility.yul\":2910:2922   */\n  revert\n    /* \"#utility.yul\":2861:2924   */\ntag_84:\n    /* \"#utility.yul\":2808:2930   */\n  pop\n  jump\t// out\n    /* \"#utility.yul\":2936:3079   */\ntag_27:\n    /* \"#utility.yul\":2993:2998   */\n  0x00\n    /* \"#utility.yul\":3024:3030   */\n  dup2\n    /* \"#utility.yul\":3018:3031   */\n  mload\n    /* \"#utility.yul\":3009:3031   */\n  swap1\n  pop\n    /* \"#utility.yul\":3040:3073   */\n  tag_86\n    /* \"#utility.yul\":3067:3072   */\n  dup2\n    /* \"#utility.yul\":3040:3073   */\n  tag_26\n  jump\t// in\ntag_86:\n    /* \"#utility.yul\":2936:3079   */\n  swap3\n  swap2\n  pop\n  pop\n  jump\t// out\n    /* \"#utility.yul\":3085:3921   */\ntag_3:\n    /* \"#utility.yul\":3183:3189   */\n  0x00\n    /* \"#utility.yul\":3191:3197   */\n  dup1\n    /* \"#utility.yul\":3199:3205   */\n  0x00\n    /* \"#utility.yul\":3248:3250   */\n  0x60\n    /* \"#utility.yul\":3236:3245   */\n  dup5\n    /* \"#utility.yul\":3227:3234   */\n  dup7\n    /* \"#utility.yul\":3223:3246   */\n  sub\n    /* \"#utility.yul\":3219:3251   */\n  slt\n    /* \"#utility.yul\":3216:3335   */\n  iszero\n  tag_88\n  jumpi\n    /* \"#utility.yul\":3254:3333   */\n  tag_89\n  tag_13\n  jump\t// in\ntag_89:\n    /* \"#utility.yul\":3216:3335   */\ntag_88:\n    /* \"#utility.yul\":3395:3396   */\n  0x00\n    /* \"#utility.yul\":3384:3393   */\n  dup5\n    /* \"#utility.yul\":3380:3397   */\n  add\n    /* \"#utility.yul\":3374:3398   */\n  mload\n    /* \"#utility.yul\":3425:3443   */\n  0xffffffffffffffff\n    /* \"#utility.yul\":3417:3423   */\n  dup2\n    /* \"#utility.yul\":3414:3444   */\n  gt\n    /* \"#utility.yul\":3411:3528   */\n  iszero\n  tag_90\n  jumpi\n    /* \"#utility.yul\":3447:3526   */\n  tag_91\n  tag_14\n  jump\t// in\ntag_91:\n    /* \"#utility.yul\":3411:3528   */\ntag_90:\n    /* \"#utility.yul\":3552:3626   */\n  tag_92\n    /* \"#utility.yul\":3618:3625   */\n  dup7\n    /* \"#utility.yul\":3609:3615   */\n  dup3\n    /* \"#utility.yul\":3598:3607   */\n  dup8\n    /* \"#utility.yul\":3594:3616   */\n  add\n    /* \"#utility.yul\":3552:3626   */\n  tag_24\n  jump\t// in\ntag_92:\n    /* \"#utility.yul\":3542:3626   */\n  swap4\n  pop\n    /* \"#utility.yul\":3345:3636   */\n  pop\n    /* \"#utility.yul\":3675:3677   */\n  0x20\n    /* \"#utility.yul\":3701:3765   */\n  tag_93\n    /* \"#utility.yul\":3757:3764   */\n  dup7\n    /* \"#utility.yul\":3748:3754   */\n  dup3\n    /* \"#utility.yul\":3737:3746   */\n  dup8\n    /* \"#utility.yul\":3733:3755   */\n  add\n    /* \"#utility.yul\":3701:3765   */\n  tag_27\n  jump\t// in\ntag_93:\n    /* \"#utility.yul\":3691:3765   */\n  swap3\n  pop\n    /* \"#utility.yul\":3646:3775   */\n  pop\n    /* \"#utility.yul\":3814:3816   */\n  0x40\n    /* \"#utility.yul\":3840:3904   */\n  tag_94\n    /* \"#utility.yul\":3896:3903   */\n  dup7\n    /* \"#utility.yul\":3887:3893   */\n  dup3\n    /* \"#utility.yul\":3876:3885   */\n  dup8\n    /* \"#utility.yul\":3872:3894   */\n  add\n    /* \"#utility.yul\":3840:3904   */\n  tag_27\n  jump\t// in\ntag_94:\n    /* \"#utility.yul\":3830:3904   */\n  swap2\n  pop\n    /* \"#utility.yul\":3785:3914   */\n  pop\n    /* \"#utility.yul\":3085:3921   */\n  swap3\n  pop\n  swap3\n  pop\n  swap3\n  jump\t// out\n    /* \"#utility.yul\":3927:4107   */\ntag_28:\n    /* \"#utility.yul\":3975:4052   */\n  0x4e487b7100000000000000000000000000000000000000000000000000000000\n    /* \"#utility.yul\":3972:3973   */\n  0x00\n    /* \"#utility.yul\":3965:4053   */\n  mstore\n    /* \"#utility.yul\":4072:4076   */\n  0x11\n    /* \"#utility.yul\":4069:4070   */\n  0x04\n    /* \"#utility.yul\":4062:4077   */\n  mstore\n    /* \"#utility.yul\":4096:4100   */\n  0x24\n    /* \"#utility.yul\":4093:4094   */\n  0x00\n    /* \"#utility.yul\":4086:4101   */\n  revert\n    /* \"#utility.yul\":4113:4418   */\ntag_7:\n    /* \"#utility.yul\":4153:4156   */\n  0x00\n    /* \"#utility.yul\":4172:4192   */\n  tag_97\n    /* \"#utility.yul\":4190:4191   */\n  dup3\n    /* \"#utility.yul\":4172:4192   */\n  tag_25\n  jump\t// in\ntag_97:\n    /* \"#utility.yul\":4167:4192   */\n  swap2\n  pop\n    /* \"#utility.yul\":4206:4226   */\n  tag_98\n    /* \"#utility.yul\":4224:4225   */\n  dup4\n    /* \"#utility.yul\":4206:4226   */\n  tag_25\n  jump\t// in\ntag_98:\n    /* \"#utility.yul\":4201:4226   */\n  swap3\n  pop\n    /* \"#utility.yul\":4360:4361   */\n  dup3\n    /* \"#utility.yul\":4292:4358   */\n  0xffffffffffffffffffffffffffffffffffffffffffffffffffffffffffffffff\n    /* \"#utility.yul\":4288:4362   */\n  sub\n    /* \"#utility.yul\":4285:4286   */\n  dup3\n    /* \"#utility.yul\":4282:4363   */\n  gt\n    /* \"#utility.yul\":4279:4386   */\n  iszero\n  tag_99\n  jumpi\n    /* \"#utility.yul\":4366:4384   */\n  tag_100\n  tag_28\n  jump\t// in\ntag_100:\n    /* \"#utility.yul\":4279:4386   */\ntag_99:\n    /* \"#utility.yul\":4410:4411   */\n  dup3\n    /* \"#utility.yul\":4407:4408   */\n  dup3\n    /* \"#utility.yul\":4403:4412   */\n  add\n    /* \"#utility.yul\":4396:4412   */\n  swap1\n  pop\n    /* \"#utility.yul\":4113:4418   */\n  swap3\n  swap2\n  pop\n  pop\n  jump\t// out\n    /* \"#utility.yul\":4424:4523   */\ntag_29:\n    /* \"#utility.yul\":4476:4482   */\n  0x00\n    /* \"#utility.yul\":4510:4515   */\n  dup2\n    /* \"#utility.yul\":4504:4516   */\n  mload\n    /* \"#utility.yul\":4494:4516   */\n  swap1\n  pop\n    /* \"#utility.yul\":4424:4523   */\n  swap2\n  swap1\n  pop\n  jump\t// out\n    /* \"#utility.yul\":4529:4709   */\ntag_30:\n    /* \"#utility.yul\":4577:4654   */\n  0x4e487b7100000000000000000000000000000000000000000000000000000000\n    /* \"#utility.yul\":4574:4575   */\n  0x00\n    /* \"#utility.yul\":4567:4655   */\n  mstore\n    /* \"#utility.yul\":4674:4678   */\n  0x22\n    /* \"#utility.yul\":4671:4672   */\n  0x04\n    /* \"#utility.yul\":4664:4679   */\n  mstore\n    /* \"#utility.yul\":4698:4702   */\n  0x24\n    /* \"#utility.yul\":4695:4696   */\n  0x00\n    /* \"#utility.yul\":4688:4703   */\n  revert\n    /* \"#utility.yul\":4715:5035   */\ntag_31:\n    /* \"#utility.yul\":4759:4765   */\n  0x00\n    /* \"#utility.yul\":4796:4797   */\n  0x02\n    /* \"#utility.yul\":4790:4794   */\n  dup3\n    /* \"#utility.yul\":4786:4798   */\n  div\n    /* \"#utility.yul\":4776:4798   */\n  swap1\n  pop\n    /* \"#utility.yul\":4843:4844   */\n  0x01\n    /* \"#utility.yul\":4837:4841   */\n  dup3\n    /* \"#utility.yul\":4833:4845   */\n  and\n    /* \"#utility.yul\":4864:4882   */\n  dup1\n    /* \"#utility.yul\":4854:4935   */\n  tag_104\n  jumpi\n    /* \"#utility.yul\":4920:4924   */\n  0x7f\n    /* \"#utility.yul\":4912:4918   */\n  dup3\n    /* \"#utility.yul\":4908:4925   */\n  and\n    /* \"#utility.yul\":4898:4925   */\n  swap2\n  pop\n    /* \"#utility.yul\":4854:4935   */\ntag_104:\n    /* \"#utility.yul\":4982:4984   */\n  0x20\n    /* \"#utility.yul\":4974:4980   */\n  dup3\n    /* \"#utility.yul\":4971:4985   */\n  lt\n    /* \"#utility.yul\":4951:4969   */\n  dup2\n    /* \"#utility.yul\":4948:4986   */\n  sub\n    /* \"#utility.yul\":4945:5029   */\n  tag_105\n  jumpi\n    /* \"#utility.yul\":5001:5019   */\n  tag_106\n  tag_30\n  jump\t// in\ntag_106:\n    /* \"#utility.yul\":4945:5029   */\ntag_105:\n    /* \"#utility.yul\":4766:5035   */\n  pop\n    /* \"#utility.yul\":4715:5035   */\n  swap2\n  swap1\n  pop\n  jump\t// out\n    /* \"#utility.yul\":5041:5182   */\ntag_32:\n    /* \"#utility.yul\":5090:5094   */\n  0x00\n    /* \"#utility.yul\":5113:5116   */\n  dup2\n    /* \"#utility.yul\":5105:5116   */\n  swap1\n  pop\n    /* \"#utility.yul\":5136:5139   */\n  dup2\n    /* \"#utility.yul\":5133:5134   */\n  0x00\n    /* \"#utility.yul\":5126:5140   */\n  mstore\n    /* \"#utility.yul\":5170:5174   */\n  0x20\n    /* \"#utility.yul\":5167:5168   */\n  0x00\n    /* \"#utility.yul\":5157:5175   */\n  keccak256\n    /* \"#utility.yul\":5149:5175   */\n  swap1\n  pop\n    /* \"#utility.yul\":5041:5182   */\n  swap2\n  swap1\n  pop\n  jump\t// out\n    /* \"#utility.yul\":5188:5281   */\ntag_33:\n    /* \"#utility.yul\":5225:5231   */\n  0x00\n    /* \"#utility.yul\":5272:5274   */\n  0x20\n    /* \"#utility.yul\":5267:5269   */\n  0x1f\n    /* \"#utility.yul\":5260:5265   */\n  dup4\n    /* \"#utility.yul\":5256:5270   */\n  add\n    /* \"#utility.yul\":5252:5275   */\n  div\n    /* \"#utility.yul\":5242:5275   */\n  swap1\n  pop\n    /* \"#utility.yul\":5188:5281   */\n  swap2\n  swap1\n  pop\n  jump\t// out\n    /* \"#utility.yul\":5287:5394   */\ntag_34:\n    /* \"#utility.yul\":5331:5339   */\n  0x00\n    /* \"#utility.yul\":5381:5386   */\n  dup3\n    /* \"#utility.yul\":5375:5379   */\n  dup3\n    /* \"#utility.yul\":5371:5387   */\n  shl\n    /* \"#utility.yul\":5350:5387   */\n  swap1\n  pop\n    /* \"#utility.yul\":5287:5394   */\n  swap3\n  swap2\n  pop\n  pop\n  jump\t// out\n    /* \"#utility.yul\":5400:5793   */\ntag_35:\n    /* \"#utility.yul\":5469:5475   */\n  0x00\n    /* \"#utility.yul\":5519:5520   */\n  0x08\n    /* \"#utility.yul\":5507:5517   */\n  dup4\n    /* \"#utility.yul\":5503:5521   */\n  mul\n    /* \"#utility.yul\":5542:5639   */\n  tag_111\n    /* \"#utility.yul\":5572:5638   */\n  0xffffffffffffffffffffffffffffffffffffffffffffffffffffffffffffffff\n    /* \"#utility.yul\":5561:5570   */\n  dup3\n    /* \"#utility.yul\":5542:5639   */\n  tag_34\n  jump\t// in\ntag_111:\n    /* \"#utility.yul\":5660:5699   */\n  tag_112\n    /* \"#utility.yul\":5690:5698   */\n  dup7\n    /* \"#utility.yul\":5679:5688   */\n  dup4\n    /* \"#utility.yul\":5660:5699   */\n  tag_34\n  jump\t// in\ntag_112:\n    /* \"#utility.yul\":5648:5699   */\n  swap6\n  pop\n    /* \"#utility.yul\":5732:5736   */\n  dup1\n    /* \"#utility.yul\":5728:5737   */\n  not\n    /* \"#utility.yul\":5721:5726   */\n  dup5\n    /* \"#utility.yul\":5717:5738   */\n  and\n    /* \"#utility.yul\":5708:5738   */\n  swap4\n  pop\n    /* \"#utility.yul\":5781:5785   */\n  dup1\n    /* \"#utility.yul\":5771:5779   */\n  dup7\n    /* \"#utility.yul\":5767:5786   */\n  and\n    /* \"#utility.yul\":5760:5765   */\n  dup5\n    /* \"#utility.yul\":5757:5787   */\n  or\n    /* \"#utility.yul\":5747:5787   */\n  swap3\n  pop\n    /* \"#utility.yul\":5476:5793   */\n  pop\n  pop\n    /* \"#utility.yul\":5400:5793   */\n  swap4\n  swap3\n  pop\n  pop\n  pop\n  jump\t// out\n    /* \"#utility.yul\":5799:5859   */\ntag_36:\n    /* \"#utility.yul\":5827:5830   */\n  0x00\n    /* \"#utility.yul\":5848:5853   */\n  dup2\n    /* \"#utility.yul\":5841:5853   */\n  swap1\n  pop\n    /* \"#utility.yul\":5799:5859   */\n  swap2\n  swap1\n  pop\n  jump\t// out\n    /* \"#utility.yul\":5865:6007   */\ntag_37:\n    /* \"#utility.yul\":5915:5924   */\n  0x00\n    /* \"#utility.yul\":5948:6001   */\n  tag_115\n    /* \"#utility.yul\":5966:6000   */\n  tag_116\n    /* \"#utility.yul\":5975:5999   */\n  tag_117\n    /* \"#utility.yul\":5993:5998   */\n  dup5\n    /* \"#utility.yul\":5975:5999   */\n  tag_25\n  jump\t// in\ntag_117:\n    /* \"#utility.yul\":5966:6000   */\n  tag_36\n  jump\t// in\ntag_116:\n    /* \"#utility.yul\":5948:6001   */\n  tag_25\n  jump\t// in\ntag_115:\n    /* \"#utility.yul\":5935:6001   */\n  swap1\n  pop\n    /* \"#utility.yul\":5865:6007   */\n  swap2\n  swap1\n  pop\n  jump\t// out\n    /* \"#utility.yul\":6013:6088   */\ntag_38:\n    /* \"#utility.yul\":6056:6059   */\n  0x00\n    /* \"#utility.yul\":6077:6082   */\n  dup2\n    /* \"#utility.yul\":6070:6082   */\n  swap1\n  pop\n    /* \"#utility.yul\":6013:6088   */\n  swap2\n  swap1\n  pop\n  jump\t// out\n    /* \"#utility.yul\":6094:6363   */\ntag_39:\n    /* \"#utility.yul\":6204:6243   */\n  tag_120\n    /* \"#utility.yul\":6235:6242   */\n  dup4\n    /* \"#utility.yul\":6204:6243   */\n  tag_37\n  jump\t// in\ntag_120:\n    /* \"#utility.yul\":6265:6356   */\n  tag_121\n    /* \"#utility.yul\":6314:6355   */\n  tag_122\n    /* \"#utility.yul\":6338:6354   */\n  dup3\n    /* \"#utility.yul\":6314:6355   */\n  tag_38\n  jump\t// in\ntag_122:\n    /* \"#utility.yul\":6306:6312   */\n  dup5\n    /* \"#utility.yul\":6299:6303   */\n  dup5\n    /* \"#utility.yul\":6293:6304   */\n  sload\n    /* \"#utility.yul\":6265:6356   */\n  tag_35\n  jump\t// in\ntag_121:\n    /* \"#utility.yul\":6259:6263   */\n  dup3\n    /* \"#utility.yul\":6252:6357   */\n  sstore\n    /* \"#utility.yul\":6170:6363   */\n  pop\n    /* \"#utility.yul\":6094:6363   */\n  pop\n  pop\n  pop\n  jump\t// out\n    /* \"#utility.yul\":6369:6442   */\ntag_40:\n    /* \"#utility.yul\":6414:6417   */\n  0x00\n    /* \"#utility.yul\":6369:6442   */\n  swap1\n  jump\t// out\n    /* \"#utility.yul\":6448:6637   */\ntag_41:\n    /* \"#utility.yul\":6525:6557   */\n  tag_125\n  tag_40\n  jump\t// in\ntag_125:\n    /* \"#utility.yul\":6566:6631   */\n  tag_126\n    /* \"#utility.yul\":6624:6630   */\n  dup2\n    /* \"#utility.yul\":6616:6622   */\n  dup5\n    /* \"#utility.yul\":6610:6614   */\n  dup5\n    /* \"#utility.yul\":6566:6631   */\n  tag_39\n  jump\t// in\ntag_126:\n    /* \"#utility.yul\":6501:6637   */\n  pop\n    /* \"#utility.yul\":6448:6637   */\n  pop\n  pop\n  jump\t// out\n    /* \"#utility.yul\":6643:6829   */\ntag_42:\n    /* \"#utility.yul\":6703:6823   */\ntag_128:\n    /* \"#utility.yul\":6720:6723   */\n  dup2\n    /* \"#utility.yul\":6713:6718   */\n  dup2\n    /* \"#utility.yul\":6710:6724   */\n  lt\n    /* \"#utility.yul\":6703:6823   */\n  iszero\n  tag_130\n  jumpi\n    /* \"#utility.yul\":6774:6813   */\n  tag_131\n    /* \"#utility.yul\":6811:6812   */\n  0x00\n    /* \"#utility.yul\":6804:6809   */\n  dup3\n    /* \"#utility.yul\":6774:6813   */\n  tag_41\n  jump\t// in\ntag_131:\n    /* \"#utility.yul\":6747:6748   */\n  0x01\n    /* \"#utility.yul\":6740:6745   */\n  dup2\n    /* \"#utility.yul\":6736:6749   */\n  add\n    /* \"#utility.yul\":6727:6749   */\n  swap1\n  pop\n    /* \"#utility.yul\":6703:6823   */\n  jump(tag_128)\ntag_130:\n    /* \"#utility.yul\":6643:6829   */\n  pop\n  pop\n  jump\t// out\n    /* \"#utility.yul\":6835:7378   */\ntag_43:\n    /* \"#utility.yul\":6936:6938   */\n  0x1f\n    /* \"#utility.yul\":6931:6934   */\n  dup3\n    /* \"#utility.yul\":6928:6939   */\n  gt\n    /* \"#utility.yul\":6925:7371   */\n  iszero\n  tag_133\n  jumpi\n    /* \"#utility.yul\":6970:7008   */\n  tag_134\n    /* \"#utility.yul\":7002:7007   */\n  dup2\n    /* \"#utility.yul\":6970:7008   */\n  tag_32\n  jump\t// in\ntag_134:\n    /* \"#utility.yul\":7054:7083   */\n  tag_135\n    /* \"#utility.yul\":7072:7082   */\n  dup5\n    /* \"#utility.yul\":7054:7083   */\n  tag_33\n  jump\t// in\ntag_135:\n    /* \"#utility.yul\":7044:7052   */\n  dup2\n    /* \"#utility.yul\":7040:7084   */\n  add\n    /* \"#utility.yul\":7237:7239   */\n  0x20\n    /* \"#utility.yul\":7225:7235   */\n  dup6\n    /* \"#utility.yul\":7222:7240   */\n  lt\n    /* \"#utility.yul\":7219:7268   */\n  iszero\n  tag_136\n  jumpi\n    /* \"#utility.yul\":7258:7266   */\n  dup2\n    /* \"#utility.yul\":7243:7266   */\n  swap1\n  pop\n    /* \"#utility.yul\":7219:7268   */\ntag_136:\n    /* \"#utility.yul\":7281:7361   */\n  tag_137\n    /* \"#utility.yul\":7337:7359   */\n  tag_138\n    /* \"#utility.yul\":7355:7358   */\n  dup6\n    /* \"#utility.yul\":7337:7359   */\n  tag_33\n  jump\t// in\ntag_138:\n    /* \"#utility.yul\":7327:7335   */\n  dup4\n    /* \"#utility.yul\":7323:7360   */\n  add\n    /* \"#utility.yul\":7310:7321   */\n  dup3\n    /* \"#utility.yul\":7281:7361   */\n  tag_42\n  jump\t// in\ntag_137:\n    /* \"#utility.yul\":6940:7371   */\n  pop\n  pop\n    /* \"#utility.yul\":6925:7371   */\ntag_133:\n    /* \"#utility.yul\":6835:7378   */\n  pop\n  pop\n  pop\n  jump\t// out\n    /* \"#utility.yul\":7384:7501   */\ntag_44:\n    /* \"#utility.yul\":7438:7446   */\n  0x00\n    /* \"#utility.yul\":7488:7493   */\n  dup3\n    /* \"#utility.yul\":7482:7486   */\n  dup3\n    /* \"#utility.yul\":7478:7494   */\n  shr\n    /* \"#utility.yul\":7457:7494   */\n  swap1\n  pop\n    /* \"#utility.yul\":7384:7501   */\n  swap3\n  swap2\n  pop\n  pop\n  jump\t// out\n    /* \"#utility.yul\":7507:7676   */\ntag_45:\n    /* \"#utility.yul\":7551:7557   */\n  0x00\n    /* \"#utility.yul\":7584:7635   */\n  tag_141\n    /* \"#utility.yul\":7632:7633   */\n  0x00\n    /* \"#utility.yul\":7628:7634   */\n  not\n    /* \"#utility.yul\":7620:7625   */\n  dup5\n    /* \"#utility.yul\":7617:7618   */\n  0x08\n    /* \"#utility.yul\":7613:7626   */\n  mul\n    /* \"#utility.yul\":7584:7635   */\n  tag_44\n  jump\t// in\ntag_141:\n    /* \"#utility.yul\":7580:7636   */\n  not\n    /* \"#utility.yul\":7665:7669   */\n  dup1\n    /* \"#utility.yul\":7659:7663   */\n  dup4\n    /* \"#utility.yul\":7655:7670   */\n  and\n    /* \"#utility.yul\":7645:7670   */\n  swap2\n  pop\n    /* \"#utility.yul\":7558:7676   */\n  pop\n    /* \"#utility.yul\":7507:7676   */\n  swap3\n  swap2\n  pop\n  pop\n  jump\t// out\n    /* \"#utility.yul\":7681:7976   */\ntag_46:\n    /* \"#utility.yul\":7757:7761   */\n  0x00\n    /* \"#utility.yul\":7903:7932   */\n  tag_143\n    /* \"#utility.yul\":7928:7931   */\n  dup4\n    /* \"#utility.yul\":7922:7926   */\n  dup4\n    /* \"#utility.yul\":7903:7932   */\n  tag_45\n  jump\t// in\ntag_143:\n    /* \"#utility.yul\":7895:7932   */\n  swap2\n  pop\n    /* \"#utility.yul\":7965:7968   */\n  dup3\n    /* \"#utility.yul\":7962:7963   */\n  0x02\n    /* \"#utility.yul\":7958:7969   */\n  mul\n    /* \"#utility.yul\":7952:7956   */\n  dup3\n    /* \"#utility.yul\":7949:7970   */\n  or\n    /* \"#utility.yul\":7941:7970   */\n  swap1\n  pop\n    /* \"#utility.yul\":7681:7976   */\n  swap3\n  swap2\n  pop\n  pop\n  jump\t// out\n    /* \"#utility.yul\":7981:9376   */\ntag_9:\n    /* \"#utility.yul\":8098:8135   */\n  tag_145\n    /* \"#utility.yul\":8131:8134   */\n  dup3\n    /* \"#utility.yul\":8098:8135   */\n  tag_29\n  jump\t// in\ntag_145:\n    /* \"#utility.yul\":8200:8218   */\n  0xffffffffffffffff\n    /* \"#utility.yul\":8192:8198   */\n  dup2\n    /* \"#utility.yul\":8189:8219   */\n  gt\n    /* \"#utility.yul\":8186:8242   */\n  iszero\n  tag_146\n  jumpi\n    /* \"#utility.yul\":8222:8240   */\n  tag_147\n  tag_18\n  jump\t// in\ntag_147:\n    /* \"#utility.yul\":8186:8242   */\ntag_146:\n    /* \"#utility.yul\":8266:8304   */\n  tag_148\n    /* \"#utility.yul\":8298:8302   */\n  dup3\n    /* \"#utility.yul\":8292:8303   */\n  sload\n    /* \"#utility.yul\":8266:8304   */\n  tag_31\n  jump\t// in\ntag_148:\n    /* \"#utility.yul\":8351:8418   */\n  tag_149\n    /* \"#utility.yul\":8411:8417   */\n  dup3\n    /* \"#utility.yul\":8403:8409   */\n  dup3\n    /* \"#utility.yul\":8397:8401   */\n  dup6\n    /* \"#utility.yul\":8351:8418   */\n  tag_43\n  jump\t// in\ntag_149:\n    /* \"#utility.yul\":8445:8446   */\n  0x00\n    /* \"#utility.yul\":8469:8473   */\n  0x20\n    /* \"#utility.yul\":8456:8473   */\n  swap1\n  pop\n    /* \"#utility.yul\":8501:8503   */\n  0x1f\n    /* \"#utility.yul\":8493:8499   */\n  dup4\n    /* \"#utility.yul\":8490:8504   */\n  gt\n    /* \"#utility.yul\":8518:8519   */\n  0x01\n    /* \"#utility.yul\":8513:9131   */\n  dup2\n  eq\n  tag_151\n  jumpi\n    /* \"#utility.yul\":9175:9176   */\n  0x00\n    /* \"#utility.yul\":9192:9198   */\n  dup5\n    /* \"#utility.yul\":9189:9266   */\n  iszero\n  tag_152\n  jumpi\n    /* \"#utility.yul\":9241:9250   */\n  dup3\n    /* \"#utility.yul\":9236:9239   */\n  dup8\n    /* \"#utility.yul\":9232:9251   */\n  add\n    /* \"#utility.yul\":9226:9252   */\n  mload\n    /* \"#utility.yul\":9217:9252   */\n  swap1\n  pop\n    /* \"#utility.yul\":9189:9266   */\ntag_152:\n    /* \"#utility.yul\":9292:9359   */\n  tag_153\n    /* \"#utility.yul\":9352:9358   */\n  dup6\n    /* \"#utility.yul\":9345:9350   */\n  dup3\n    /* \"#utility.yul\":9292:9359   */\n  tag_46\n  jump\t// in\ntag_153:\n    /* \"#utility.yul\":9286:9290   */\n  dup7\n    /* \"#utility.yul\":9279:9360   */\n  sstore\n    /* \"#utility.yul\":9148:9370   */\n  pop\n    /* \"#utility.yul\":8483:9370   */\n  jump(tag_150)\n    /* \"#utility.yul\":8513:9131   */\ntag_151:\n    /* \"#utility.yul\":8565:8569   */\n  0x1f\n    /* \"#utility.yul\":8561:8570   */\n  not\n    /* \"#utility.yul\":8553:8559   */\n  dup5\n    /* \"#utility.yul\":8549:8571   */\n  and\n    /* \"#utility.yul\":8599:8636   */\n  tag_154\n    /* \"#utility.yul\":8631:8635   */\n  dup7\n    /* \"#utility.yul\":8599:8636   */\n  tag_32\n  jump\t// in\ntag_154:\n    /* \"#utility.yul\":8658:8659   */\n  0x00\n    /* \"#utility.yul\":8672:8880   */\ntag_155:\n    /* \"#utility.yul\":8686:8693   */\n  dup3\n    /* \"#utility.yul\":8683:8684   */\n  dup2\n    /* \"#utility.yul\":8680:8694   */\n  lt\n    /* \"#utility.yul\":8672:8880   */\n  iszero\n  tag_157\n  jumpi\n    /* \"#utility.yul\":8765:8774   */\n  dup5\n    /* \"#utility.yul\":8760:8763   */\n  dup10\n    /* \"#utility.yul\":8756:8775   */\n  add\n    /* \"#utility.yul\":8750:8776   */\n  mload\n    /* \"#utility.yul\":8742:8748   */\n  dup3\n    /* \"#utility.yul\":8735:8777   */\n  sstore\n    /* \"#utility.yul\":8816:8817   */\n  0x01\n    /* \"#utility.yul\":8808:8814   */\n  dup3\n    /* \"#utility.yul\":8804:8818   */\n  add\n    /* \"#utility.yul\":8794:8818   */\n  swap2\n  pop\n    /* \"#utility.yul\":8863:8865   */\n  0x20\n    /* \"#utility.yul\":8852:8861   */\n  dup6\n    /* \"#utility.yul\":8848:8866   */\n  add\n    /* \"#utility.yul\":8835:8866   */\n  swap5\n  pop\n    /* \"#utility.yul\":8709:8713   */\n  0x20\n    /* \"#utility.yul\":8706:8707   */\n  dup2\n    /* \"#utility.yul\":8702:8714   */\n  add\n    /* \"#utility.yul\":8697:8714   */\n  swap1\n  pop\n    /* \"#utility.yul\":8672:8880   */\n  jump(tag_155)\ntag_157:\n    /* \"#utility.yul\":8908:8914   */\n  dup7\n    /* \"#utility.yul\":8899:8906   */\n  dup4\n    /* \"#utility.yul\":8896:8915   */\n  lt\n    /* \"#utility.yul\":8893:9072   */\n  iszero\n  tag_158\n  jumpi\n    /* \"#utility.yul\":8966:8975   */\n  dup5\n    /* \"#utility.yul\":8961:8964   */\n  dup10\n    /* \"#utility.yul\":8957:8976   */\n  add\n    /* \"#utility.yul\":8951:8977   */\n  mload\n    /* \"#utility.yul\":9009:9057   */\n  tag_159\n    /* \"#utility.yul\":9051:9055   */\n  0x1f\n    /* \"#utility.yul\":9043:9049   */\n  dup10\n    /* \"#utility.yul\":9039:9056   */\n  and\n    /* \"#utility.yul\":9028:9037   */\n  dup3\n    /* \"#utility.yul\":9009:9057   */\n  tag_45\n  jump\t// in\ntag_159:\n    /* \"#utility.yul\":9001:9007   */\n  dup4\n    /* \"#utility.yul\":8994:9058   */\n  sstore\n    /* \"#utility.yul\":8916:9072   */\n  pop\n    /* \"#utility.yul\":8893:9072   */\ntag_158:\n    /* \"#utility.yul\":9118:9119   */\n  0x01\n    /* \"#utility.yul\":9114:9115   */\n  0x02\n    /* \"#utility.yul\":9106:9112   */\n  dup9\n    /* \"#utility.yul\":9102:9116   */\n  mul\n    /* \"#utility.yul\":9098:9120   */\n  add\n    /* \"#utility.yul\":9092:9096   */\n  dup9\n    /* \"#utility.yul\":9085:9121   */\n  sstore\n    /* \"#utility.yul\":8520:9131   */\n  pop\n  pop\n  pop\n    /* \"#utility.yul\":8483:9370   */\ntag_150:\n  pop\n    /* \"#utility.yul\":8073:9376   */\n  pop\n  pop\n  pop\n    /* \"#utility.yul\":7981:9376   */\n  pop\n  pop\n  jump\t// out\n    /* \"contracts/BusinessConsensus.sol\":33:5084  contract BusinessConsensus{... */\ntag_11:\n  dataSize(sub_0)\n  dup1\n  dataOffset(sub_0)\n  0x00\n  codecopy\n  0x00\n  return\nstop\n\nsub_0: assembly {\n        /* \"contracts/BusinessConsensus.sol\":33:5084  contract BusinessConsensus{... */\n      mstore(0x40, 0x80)\n      callvalue\n      dup1\n      iszero\n      tag_1\n      jumpi\n      0x00\n      dup1\n      revert\n    tag_1:\n      pop\n      jumpi(tag_2, lt(calldatasize, 0x04))\n      shr(0xe0, calldataload(0x00))\n      dup1\n      0x753ec103\n      gt\n      tag_20\n      jumpi\n      dup1\n      0xa5ea11da\n      gt\n      tag_21\n      jumpi\n      dup1\n      0xa5ea11da\n      eq\n      tag_15\n      jumpi\n      dup1\n      0xb9a29250\n      eq\n      tag_16\n      jumpi\n      dup1\n      0xd77aa749\n      eq\n      tag_17\n      jumpi\n      dup1\n      0xda58c7d9\n      eq\n      tag_18\n      jumpi\n      dup1\n      0xf6b4dfb4\n      eq\n      tag_19\n      jumpi\n      jump(tag_2)\n    tag_21:\n      dup1\n      0x753ec103\n      eq\n      tag_11\n      jumpi\n      dup1\n      0x95b02dfa\n      eq\n      tag_12\n      jumpi\n      dup1\n      0x977c6c2f\n      eq\n      tag_13\n      jumpi\n      dup1\n      0x9aa4bbdd\n      eq\n      tag_14\n      jumpi\n      jump(tag_2)\n    tag_20:\n      dup1\n      0x5361a0ea\n      gt\n      tag_22\n      jumpi\n      dup1\n      0x5361a0ea\n      eq\n      tag_7\n      jumpi\n      dup1\n      0x5c39fcc1\n      eq\n      tag_8\n      jumpi\n      dup1\n      0x604c8333\n      eq\n      tag_9\n      jumpi\n      dup1\n      0x7403c5e5\n      eq\n      tag_10\n      jumpi\n      jump(tag_2)\n    tag_22:\n      dup1\n      0x0cb6aaf1\n      eq\n      tag_3\n      jumpi\n      dup1\n      0x15fe6f1b\n      eq\n      tag_4\n      jumpi\n      dup1\n      0x19eb4a90\n      eq\n      tag_5\n      jumpi\n      dup1\n      0x323082d7\n      eq\n      tag_6\n      jumpi\n    tag_2:\n      0x00\n      dup1\n      revert\n        /* \"contracts/BusinessConsensus.sol\":1191:1212  address[] public keys */\n    tag_3:\n      tag_23\n      0x04\n      dup1\n      calldatasize\n      sub\n      dup2\n      add\n      swap1\n      tag_24\n      swap2\n      swap1\n      tag_25\n      jump\t// in\n    tag_24:\n      tag_26\n      jump\t// in\n    tag_23:\n      mload(0x40)\n      tag_27\n      swap2\n      swap1\n      tag_28\n      jump\t// in\n    tag_27:\n      mload(0x40)\n      dup1\n      swap2\n      sub\n      swap1\n      return\n        /* \"contracts/BusinessConsensus.sol\":2622:3266  function RegisterVoter(address voter) external {... */\n    tag_4:\n      tag_29\n      0x04\n      dup1\n      calldatasize\n      sub\n      dup2\n      add\n      swap1\n      tag_30\n      swap2\n      swap1\n      tag_31\n      jump\t// in\n    tag_30:\n      tag_32\n      jump\t// in\n    tag_29:\n      stop\n        /* \"contracts/BusinessConsensus.sol\":2004:2104  function getValues() public view returns (string memory){... */\n    tag_5:\n      tag_33\n      tag_34\n      jump\t// in\n    tag_33:\n      mload(0x40)\n      tag_35\n      swap2\n      swap1\n      tag_36\n      jump\t// in\n    tag_35:\n      mload(0x40)\n      dup1\n      swap2\n      sub\n      swap1\n      return\n        /* \"contracts/BusinessConsensus.sol\":3321:4255  function Vote(string memory response) external {... */\n    tag_6:\n      tag_37\n      0x04\n      dup1\n      calldatasize\n      sub\n      dup2\n      add\n      swap1\n      tag_38\n      swap2\n      swap1\n      tag_39\n      jump\t// in\n    tag_38:\n      tag_40\n      jump\t// in\n    tag_37:\n      stop\n        /* \"contracts/BusinessConsensus.sol\":2304:2516  function getParameters2(address test_address) public view returns (bool, bool, address){... */\n    tag_7:\n      tag_41\n      0x04\n      dup1\n      calldatasize\n      sub\n      dup2\n      add\n      swap1\n      tag_42\n      swap2\n      swap1\n      tag_31\n      jump\t// in\n    tag_42:\n      tag_43\n      jump\t// in\n    tag_41:\n      mload(0x40)\n      tag_44\n      swap4\n      swap3\n      swap2\n      swap1\n      tag_45\n      jump\t// in\n    tag_44:\n      mload(0x40)\n      dup1\n      swap2\n      sub\n      swap1\n      return\n        /* \"contracts/BusinessConsensus.sol\":982:1006  address public initiator */\n    tag_8:\n      tag_46\n      tag_47\n      jump\t// in\n    tag_46:\n      mload(0x40)\n      tag_48\n      swap2\n      swap1\n      tag_28\n      jump\t// in\n    tag_48:\n      mload(0x40)\n      dup1\n      swap2\n      sub\n      swap1\n      return\n        /* \"contracts/BusinessConsensus.sol\":1055:1088  uint public AccumulatedPercentage */\n    tag_9:\n      tag_49\n      tag_50\n      jump\t// in\n    tag_49:\n      mload(0x40)\n      tag_51\n      swap2\n      swap1\n      tag_52\n      jump\t// in\n    tag_51:\n      mload(0x40)\n      dup1\n      swap2\n      sub\n      swap1\n      return\n        /* \"contracts/BusinessConsensus.sol\":1095:1119  uint public numApprovals */\n    tag_10:\n      tag_53\n      tag_54\n      jump\t// in\n    tag_53:\n      mload(0x40)\n      tag_55\n      swap2\n      swap1\n      tag_52\n      jump\t// in\n    tag_55:\n      mload(0x40)\n      dup1\n      swap2\n      sub\n      swap1\n      return\n        /* \"contracts/BusinessConsensus.sol\":1339:1363  Proposal public proposal */\n    tag_11:\n      tag_56\n      tag_57\n      jump\t// in\n    tag_56:\n      mload(0x40)\n      tag_58\n      swap3\n      swap2\n      swap1\n      tag_59\n      jump\t// in\n    tag_58:\n      mload(0x40)\n      dup1\n      swap2\n      sub\n      swap1\n      return\n        /* \"contracts/BusinessConsensus.sol\":4319:4883  function Consensus() external {... */\n    tag_12:\n      tag_60\n      tag_61\n      jump\t// in\n    tag_60:\n      stop\n        /* \"contracts/BusinessConsensus.sol\":4891:5079  function compile_bundle() public view returns (Bundle memory){... */\n    tag_13:\n      tag_62\n      tag_63\n      jump\t// in\n    tag_62:\n      mload(0x40)\n      tag_64\n      swap2\n      swap1\n      tag_65\n      jump\t// in\n    tag_64:\n      mload(0x40)\n      dup1\n      swap2\n      sub\n      swap1\n      return\n        /* \"contracts/BusinessConsensus.sol\":1219:1262  mapping(address => Voter) public voters_map */\n    tag_14:\n      tag_66\n      0x04\n      dup1\n      calldatasize\n      sub\n      dup2\n      add\n      swap1\n      tag_67\n      swap2\n      swap1\n      tag_31\n      jump\t// in\n    tag_67:\n      tag_68\n      jump\t// in\n    tag_66:\n      mload(0x40)\n      tag_69\n      swap4\n      swap3\n      swap2\n      swap1\n      tag_70\n      jump\t// in\n    tag_69:\n      mload(0x40)\n      dup1\n      swap2\n      sub\n      swap1\n      return\n        /* \"contracts/BusinessConsensus.sol\":2110:2298  function getParameters() public view returns (string memory, uint , address ,uint ,uint){... */\n    tag_15:\n      tag_71\n      tag_72\n      jump\t// in\n    tag_71:\n      mload(0x40)\n      tag_73\n      swap6\n      swap5\n      swap4\n      swap3\n      swap2\n      swap1\n      tag_74\n      jump\t// in\n    tag_73:\n      mload(0x40)\n      dup1\n      swap2\n      sub\n      swap1\n      return\n        /* \"contracts/BusinessConsensus.sol\":1128:1154  uint public numberCompiled */\n    tag_16:\n      tag_75\n      tag_76\n      jump\t// in\n    tag_75:\n      mload(0x40)\n      tag_77\n      swap2\n      swap1\n      tag_52\n      jump\t// in\n    tag_77:\n      mload(0x40)\n      dup1\n      swap2\n      sub\n      swap1\n      return\n        /* \"contracts/BusinessConsensus.sol\":1017:1048  uint public BusinessRequirement */\n    tag_17:\n      tag_78\n      tag_79\n      jump\t// in\n    tag_78:\n      mload(0x40)\n      tag_80\n      swap2\n      swap1\n      tag_52\n      jump\t// in\n    tag_80:\n      mload(0x40)\n      dup1\n      swap2\n      sub\n      swap1\n      return\n        /* \"contracts/BusinessConsensus.sol\":1163:1184  Voter[] public voters */\n    tag_18:\n      tag_81\n      0x04\n      dup1\n      calldatasize\n      sub\n      dup2\n      add\n      swap1\n      tag_82\n      swap2\n      swap1\n      tag_25\n      jump\t// in\n    tag_82:\n      tag_83\n      jump\t// in\n    tag_81:\n      mload(0x40)\n      tag_84\n      swap4\n      swap3\n      swap2\n      swap1\n      tag_70\n      jump\t// in\n    tag_84:\n      mload(0x40)\n      dup1\n      swap2\n      sub\n      swap1\n      return\n        /* \"contracts/BusinessConsensus.sol\":716:746  address public contractAddress */\n    tag_19:\n      tag_85\n      tag_86\n      jump\t// in\n    tag_85:\n      mload(0x40)\n      tag_87\n      swap2\n      swap1\n      tag_28\n      jump\t// in\n    tag_87:\n      mload(0x40)\n      dup1\n      swap2\n      sub\n      swap1\n      return\n        /* \"contracts/BusinessConsensus.sol\":1191:1212  address[] public keys */\n    tag_26:\n      0x09\n      dup2\n      dup2\n      sload\n      dup2\n      lt\n      tag_88\n      jumpi\n      0x00\n      dup1\n      revert\n    tag_88:\n      swap1\n      0x00\n      mstore\n      keccak256(0x00, 0x20)\n      add\n      0x00\n      swap2\n      pop\n      sload\n      swap1\n      0x0100\n      exp\n      swap1\n      div\n      0xffffffffffffffffffffffffffffffffffffffff\n      and\n      dup2\n      jump\t// out\n        /* \"contracts/BusinessConsensus.sol\":2622:3266  function RegisterVoter(address voter) external {... */\n    tag_32:\n        /* \"contracts/BusinessConsensus.sol\":2790:2799  initiator */\n      0x03\n      0x00\n      swap1\n      sload\n      swap1\n      0x0100\n      exp\n      swap1\n      div\n      0xffffffffffffffffffffffffffffffffffffffff\n      and\n        /* \"contracts/BusinessConsensus.sol\":2776:2799  msg.sender == initiator */\n      0xffffffffffffffffffffffffffffffffffffffff\n      and\n        /* \"contracts/BusinessConsensus.sol\":2776:2786  msg.sender */\n      caller\n        /* \"contracts/BusinessConsensus.sol\":2776:2799  msg.sender == initiator */\n      0xffffffffffffffffffffffffffffffffffffffff\n      and\n      eq\n        /* \"contracts/BusinessConsensus.sol\":2754:2867  require(... */\n      tag_91\n      jumpi\n      mload(0x40)\n      0x08c379a000000000000000000000000000000000000000000000000000000000\n      dup2\n      mstore\n      0x04\n      add\n      tag_92\n      swap1\n      tag_93\n      jump\t// in\n    tag_92:\n      mload(0x40)\n      dup1\n      swap2\n      sub\n      swap1\n      revert\n    tag_91:\n        /* \"contracts/BusinessConsensus.sol\":2895:2904  initiator */\n      0x03\n      0x00\n      swap1\n      sload\n      swap1\n      0x0100\n      exp\n      swap1\n      div\n      0xffffffffffffffffffffffffffffffffffffffff\n      and\n        /* \"contracts/BusinessConsensus.sol\":2886:2904  voter != initiator */\n      0xffffffffffffffffffffffffffffffffffffffff\n      and\n        /* \"contracts/BusinessConsensus.sol\":2886:2891  voter */\n      dup2\n        /* \"contracts/BusinessConsensus.sol\":2886:2904  voter != initiator */\n      0xffffffffffffffffffffffffffffffffffffffff\n      and\n      sub\n        /* \"contracts/BusinessConsensus.sol\":2878:2930  require(voter != initiator, \"Initiator can't vote!\") */\n      tag_94\n      jumpi\n      mload(0x40)\n      0x08c379a000000000000000000000000000000000000000000000000000000000\n      dup2\n      mstore\n      0x04\n      add\n      tag_95\n      swap1\n      tag_96\n      jump\t// in\n    tag_95:\n      mload(0x40)\n      dup1\n      swap2\n      sub\n      swap1\n      revert\n    tag_94:\n        /* \"contracts/BusinessConsensus.sol\":2990:2991  0 */\n      0x00\n        /* \"contracts/BusinessConsensus.sol\":2951:2992  voters_map[voter].recipient == address(0) */\n      0xffffffffffffffffffffffffffffffffffffffff\n      and\n        /* \"contracts/BusinessConsensus.sol\":2951:2961  voters_map */\n      0x0a\n        /* \"contracts/BusinessConsensus.sol\":2951:2968  voters_map[voter] */\n      0x00\n        /* \"contracts/BusinessConsensus.sol\":2962:2967  voter */\n      dup4\n        /* \"contracts/BusinessConsensus.sol\":2951:2968  voters_map[voter] */\n      0xffffffffffffffffffffffffffffffffffffffff\n      and\n      0xffffffffffffffffffffffffffffffffffffffff\n      and\n      dup2\n      mstore\n      0x20\n      add\n      swap1\n      dup2\n      mstore\n      0x20\n      add\n      0x00\n      keccak256\n        /* \"contracts/BusinessConsensus.sol\":2951:2978  voters_map[voter].recipient */\n      0x00\n      add\n      0x01\n      swap1\n      sload\n      swap1\n      0x0100\n      exp\n      swap1\n      div\n      0xffffffffffffffffffffffffffffffffffffffff\n      and\n        /* \"contracts/BusinessConsensus.sol\":2951:2992  voters_map[voter].recipient == address(0) */\n      0xffffffffffffffffffffffffffffffffffffffff\n      and\n      eq\n        /* \"contracts/BusinessConsensus.sol\":2943:3028  require(voters_map[voter].recipient == address(0), \"Recipient is already registered\") */\n      tag_97\n      jumpi\n      mload(0x40)\n      0x08c379a000000000000000000000000000000000000000000000000000000000\n      dup2\n      mstore\n      0x04\n      add\n      tag_98\n      swap1\n      tag_99\n      jump\t// in\n    tag_98:\n      mload(0x40)\n      dup1\n      swap2\n      sub\n      swap1\n      revert\n    tag_97:\n        /* \"contracts/BusinessConsensus.sol\":3067:3077  expiryDate */\n      sload(0x01)\n        /* \"contracts/BusinessConsensus.sol\":3049:3064  block.timestamp */\n      timestamp\n        /* \"contracts/BusinessConsensus.sol\":3049:3077  block.timestamp < expiryDate */\n      lt\n        /* \"contracts/BusinessConsensus.sol\":3041:3118  require(block.timestamp < expiryDate, \"Proposal has reached its expiry date\") */\n      tag_100\n      jumpi\n      mload(0x40)\n      0x08c379a000000000000000000000000000000000000000000000000000000000\n      dup2\n      mstore\n      0x04\n      add\n      tag_101\n      swap1\n      tag_102\n      jump\t// in\n    tag_101:\n      mload(0x40)\n      dup1\n      swap2\n      sub\n      swap1\n      revert\n    tag_100:\n        /* \"contracts/BusinessConsensus.sol\":3131:3145  Voter memory x */\n      0x00\n        /* \"contracts/BusinessConsensus.sol\":3148:3199  Voter({voted: false,recipient: voter, vote: false}) */\n      mload(0x40)\n      dup1\n      0x60\n      add\n      0x40\n      mstore\n      dup1\n        /* \"contracts/BusinessConsensus.sol\":3162:3167  false */\n      0x00\n        /* \"contracts/BusinessConsensus.sol\":3148:3199  Voter({voted: false,recipient: voter, vote: false}) */\n      iszero\n      iszero\n      dup2\n      mstore\n      0x20\n      add\n        /* \"contracts/BusinessConsensus.sol\":3179:3184  voter */\n      dup4\n        /* \"contracts/BusinessConsensus.sol\":3148:3199  Voter({voted: false,recipient: voter, vote: false}) */\n      0xffffffffffffffffffffffffffffffffffffffff\n      and\n      dup2\n      mstore\n      0x20\n      add\n        /* \"contracts/BusinessConsensus.sol\":3192:3197  false */\n      0x00\n        /* \"contracts/BusinessConsensus.sol\":3148:3199  Voter({voted: false,recipient: voter, vote: false}) */\n      iszero\n      iszero\n      dup2\n      mstore\n      pop\n        /* \"contracts/BusinessConsensus.sol\":3131:3199  Voter memory x = Voter({voted: false,recipient: voter, vote: false}) */\n      swap1\n      pop\n        /* \"contracts/BusinessConsensus.sol\":3230:3231  x */\n      dup1\n        /* \"contracts/BusinessConsensus.sol\":3210:3220  voters_map */\n      0x0a\n        /* \"contracts/BusinessConsensus.sol\":3210:3227  voters_map[voter] */\n      0x00\n        /* \"contracts/BusinessConsensus.sol\":3221:3226  voter */\n      dup5\n        /* \"contracts/BusinessConsensus.sol\":3210:3227  voters_map[voter] */\n      0xffffffffffffffffffffffffffffffffffffffff\n      and\n      0xffffffffffffffffffffffffffffffffffffffff\n      and\n      dup2\n      mstore\n      0x20\n      add\n      swap1\n      dup2\n      mstore\n      0x20\n      add\n      0x00\n      keccak256\n        /* \"contracts/BusinessConsensus.sol\":3210:3231  voters_map[voter] = x */\n      0x00\n      dup3\n      add\n      mload\n      dup2\n      0x00\n      add\n      exp(0x0100, 0x00)\n      dup2\n      sload\n      dup2\n      0xff\n      mul\n      not\n      and\n      swap1\n      dup4\n      iszero\n      iszero\n      mul\n      or\n      swap1\n      sstore\n      pop\n      0x20\n      dup3\n      add\n      mload\n      dup2\n      0x00\n      add\n      exp(0x0100, 0x01)\n      dup2\n      sload\n      dup2\n      0xffffffffffffffffffffffffffffffffffffffff\n      mul\n      not\n      and\n      swap1\n      dup4\n      0xffffffffffffffffffffffffffffffffffffffff\n      and\n      mul\n      or\n      swap1\n      sstore\n      pop\n      0x40\n      dup3\n      add\n      mload\n      dup2\n      0x00\n      add\n      exp(0x0100, 0x15)\n      dup2\n      sload\n      dup2\n      0xff\n      mul\n      not\n      and\n      swap1\n      dup4\n      iszero\n      iszero\n      mul\n      or\n      swap1\n      sstore\n      pop\n      swap1\n      pop\n      pop\n        /* \"contracts/BusinessConsensus.sol\":3242:3246  keys */\n      0x09\n        /* \"contracts/BusinessConsensus.sol\":3252:3257  voter */\n      dup3\n        /* \"contracts/BusinessConsensus.sol\":3242:3258  keys.push(voter) */\n      swap1\n      dup1\n      0x01\n      dup2\n      sload\n      add\n      dup1\n      dup3\n      sstore\n      dup1\n      swap2\n      pop\n      pop\n      0x01\n      swap1\n      sub\n      swap1\n      0x00\n      mstore\n      keccak256(0x00, 0x20)\n      add\n      0x00\n      swap1\n      swap2\n      swap1\n      swap2\n      swap1\n      swap2\n      0x0100\n      exp\n      dup2\n      sload\n      dup2\n      0xffffffffffffffffffffffffffffffffffffffff\n      mul\n      not\n      and\n      swap1\n      dup4\n      0xffffffffffffffffffffffffffffffffffffffff\n      and\n      mul\n      or\n      swap1\n      sstore\n      pop\n        /* \"contracts/BusinessConsensus.sol\":2669:3266  {... */\n      pop\n        /* \"contracts/BusinessConsensus.sol\":2622:3266  function RegisterVoter(address voter) external {... */\n      pop\n      jump\t// out\n        /* \"contracts/BusinessConsensus.sol\":2004:2104  function getValues() public view returns (string memory){... */\n    tag_34:\n        /* \"contracts/BusinessConsensus.sol\":2046:2059  string memory */\n      0x60\n        /* \"contracts/BusinessConsensus.sol\":2078:2086  proposal */\n      0x0b\n        /* \"contracts/BusinessConsensus.sol\":2078:2096  proposal.messageID */\n      0x01\n      add\n        /* \"contracts/BusinessConsensus.sol\":2071:2096  return proposal.messageID */\n      dup1\n      sload\n      tag_105\n      swap1\n      tag_106\n      jump\t// in\n    tag_105:\n      dup1\n      0x1f\n      add\n      0x20\n      dup1\n      swap2\n      div\n      mul\n      0x20\n      add\n      mload(0x40)\n      swap1\n      dup2\n      add\n      0x40\n      mstore\n      dup1\n      swap3\n      swap2\n      swap1\n      dup2\n      dup2\n      mstore\n      0x20\n      add\n      dup3\n      dup1\n      sload\n      tag_107\n      swap1\n      tag_106\n      jump\t// in\n    tag_107:\n      dup1\n      iszero\n      tag_108\n      jumpi\n      dup1\n      0x1f\n      lt\n      tag_109\n      jumpi\n      0x0100\n      dup1\n      dup4\n      sload\n      div\n      mul\n      dup4\n      mstore\n      swap2\n      0x20\n      add\n      swap2\n      jump(tag_108)\n    tag_109:\n      dup3\n      add\n      swap2\n      swap1\n      0x00\n      mstore\n      keccak256(0x00, 0x20)\n      swap1\n    tag_110:\n      dup2\n      sload\n      dup2\n      mstore\n      swap1\n      0x01\n      add\n      swap1\n      0x20\n      add\n      dup1\n      dup4\n      gt\n      tag_110\n      jumpi\n      dup3\n      swap1\n      sub\n      0x1f\n      and\n      dup3\n      add\n      swap2\n    tag_108:\n      pop\n      pop\n      pop\n      pop\n      pop\n      swap1\n      pop\n        /* \"contracts/BusinessConsensus.sol\":2004:2104  function getValues() public view returns (string memory){... */\n      swap1\n      jump\t// out\n        /* \"contracts/BusinessConsensus.sol\":3321:4255  function Vote(string memory response) external {... */\n    tag_40:\n        /* \"contracts/BusinessConsensus.sol\":3435:3445  expiryDate */\n      sload(0x01)\n        /* \"contracts/BusinessConsensus.sol\":3417:3432  block.timestamp */\n      timestamp\n        /* \"contracts/BusinessConsensus.sol\":3417:3445  block.timestamp < expiryDate */\n      lt\n        /* \"contracts/BusinessConsensus.sol\":3409:3468  require(block.timestamp < expiryDate, \"Voting has expired\") */\n      tag_112\n      jumpi\n      mload(0x40)\n      0x08c379a000000000000000000000000000000000000000000000000000000000\n      dup2\n      mstore\n      0x04\n      add\n      tag_113\n      swap1\n      tag_114\n      jump\t// in\n    tag_113:\n      mload(0x40)\n      dup1\n      swap2\n      sub\n      swap1\n      revert\n    tag_112:\n        /* \"contracts/BusinessConsensus.sol\":3479:3506  Voter memory recipientVoter */\n      0x00\n        /* \"contracts/BusinessConsensus.sol\":3509:3519  voters_map */\n      0x0a\n        /* \"contracts/BusinessConsensus.sol\":3509:3531  voters_map[msg.sender] */\n      0x00\n        /* \"contracts/BusinessConsensus.sol\":3520:3530  msg.sender */\n      caller\n        /* \"contracts/BusinessConsensus.sol\":3509:3531  voters_map[msg.sender] */\n      0xffffffffffffffffffffffffffffffffffffffff\n      and\n      0xffffffffffffffffffffffffffffffffffffffff\n      and\n      dup2\n      mstore\n      0x20\n      add\n      swap1\n      dup2\n      mstore\n      0x20\n      add\n      0x00\n      keccak256\n        /* \"contracts/BusinessConsensus.sol\":3479:3531  Voter memory recipientVoter = voters_map[msg.sender] */\n      mload(0x40)\n      dup1\n      0x60\n      add\n      0x40\n      mstore\n      swap1\n      dup2\n      0x00\n      dup3\n      add\n      0x00\n      swap1\n      sload\n      swap1\n      0x0100\n      exp\n      swap1\n      div\n      0xff\n      and\n      iszero\n      iszero\n      iszero\n      iszero\n      dup2\n      mstore\n      0x20\n      add\n      0x00\n      dup3\n      add\n      0x01\n      swap1\n      sload\n      swap1\n      0x0100\n      exp\n      swap1\n      div\n      0xffffffffffffffffffffffffffffffffffffffff\n      and\n      0xffffffffffffffffffffffffffffffffffffffff\n      and\n      0xffffffffffffffffffffffffffffffffffffffff\n      and\n      dup2\n      mstore\n      0x20\n      add\n      0x00\n      dup3\n      add\n      0x15\n      swap1\n      sload\n      swap1\n      0x0100\n      exp\n      swap1\n      div\n      0xff\n      and\n      iszero\n      iszero\n      iszero\n      iszero\n      dup2\n      mstore\n      pop\n      pop\n      swap1\n      pop\n        /* \"contracts/BusinessConsensus.sol\":3586:3589  0x0 */\n      0x00\n        /* \"contracts/BusinessConsensus.sol\":3550:3590  recipientVoter.recipient != address(0x0) */\n      0xffffffffffffffffffffffffffffffffffffffff\n      and\n        /* \"contracts/BusinessConsensus.sol\":3550:3564  recipientVoter */\n      dup2\n        /* \"contracts/BusinessConsensus.sol\":3550:3574  recipientVoter.recipient */\n      0x20\n      add\n      mload\n        /* \"contracts/BusinessConsensus.sol\":3550:3590  recipientVoter.recipient != address(0x0) */\n      0xffffffffffffffffffffffffffffffffffffffff\n      and\n      sub\n        /* \"contracts/BusinessConsensus.sol\":3542:3625  require(recipientVoter.recipient != address(0x0), \"You are not registered to vote\") */\n      tag_115\n      jumpi\n      mload(0x40)\n      0x08c379a000000000000000000000000000000000000000000000000000000000\n      dup2\n      mstore\n      0x04\n      add\n      tag_116\n      swap1\n      tag_117\n      jump\t// in\n    tag_116:\n      mload(0x40)\n      dup1\n      swap2\n      sub\n      swap1\n      revert\n    tag_115:\n        /* \"contracts/BusinessConsensus.sol\":3645:3659  recipientVoter */\n      dup1\n        /* \"contracts/BusinessConsensus.sol\":3645:3665  recipientVoter.voted */\n      0x00\n      add\n      mload\n        /* \"contracts/BusinessConsensus.sol\":3644:3665  !recipientVoter.voted */\n      iszero\n        /* \"contracts/BusinessConsensus.sol\":3636:3698  require(!recipientVoter.voted, \"You already sent a response.\") */\n      tag_118\n      jumpi\n      mload(0x40)\n      0x08c379a000000000000000000000000000000000000000000000000000000000\n      dup2\n      mstore\n      0x04\n      add\n      tag_119\n      swap1\n      tag_120\n      jump\t// in\n    tag_119:\n      mload(0x40)\n      dup1\n      swap2\n      sub\n      swap1\n      revert\n    tag_118:\n        /* \"contracts/BusinessConsensus.sol\":3754:3772  bytes(\"i approve\") */\n      mload(0x40)\n      dup1\n      0x40\n      add\n      0x40\n      mstore\n      dup1\n      0x09\n      dup2\n      mstore\n      0x20\n      add\n      0x6920617070726f76650000000000000000000000000000000000000000000000\n      dup2\n      mstore\n      pop\n        /* \"contracts/BusinessConsensus.sol\":3744:3773  keccak256(bytes(\"i approve\")) */\n      dup1\n      mload\n      swap1\n      0x20\n      add\n      keccak256\n        /* \"contracts/BusinessConsensus.sol\":3730:3738  response */\n      dup3\n        /* \"contracts/BusinessConsensus.sol\":3714:3740  keccak256(bytes(response)) */\n      dup1\n      mload\n      swap1\n      0x20\n      add\n      keccak256\n        /* \"contracts/BusinessConsensus.sol\":3714:3773  keccak256(bytes(response)) == keccak256(bytes(\"i approve\")) */\n      sub\n        /* \"contracts/BusinessConsensus.sol\":3711:4238  if(keccak256(bytes(response)) == keccak256(bytes(\"i approve\"))){... */\n      tag_121\n      jumpi\n        /* \"contracts/BusinessConsensus.sol\":3820:3824  true */\n      0x01\n        /* \"contracts/BusinessConsensus.sol\":3789:3799  voters_map */\n      0x0a\n        /* \"contracts/BusinessConsensus.sol\":3789:3811  voters_map[msg.sender] */\n      0x00\n        /* \"contracts/BusinessConsensus.sol\":3800:3810  msg.sender */\n      caller\n        /* \"contracts/BusinessConsensus.sol\":3789:3811  voters_map[msg.sender] */\n      0xffffffffffffffffffffffffffffffffffffffff\n      and\n      0xffffffffffffffffffffffffffffffffffffffff\n      and\n      dup2\n      mstore\n      0x20\n      add\n      swap1\n      dup2\n      mstore\n      0x20\n      add\n      0x00\n      keccak256\n        /* \"contracts/BusinessConsensus.sol\":3789:3817  voters_map[msg.sender].voted */\n      0x00\n      add\n      0x00\n        /* \"contracts/BusinessConsensus.sol\":3789:3824  voters_map[msg.sender].voted = true */\n      0x0100\n      exp\n      dup2\n      sload\n      dup2\n      0xff\n      mul\n      not\n      and\n      swap1\n      dup4\n      iszero\n      iszero\n      mul\n      or\n      swap1\n      sstore\n      pop\n        /* \"contracts/BusinessConsensus.sol\":3869:3873  true */\n      0x01\n        /* \"contracts/BusinessConsensus.sol\":3839:3849  voters_map */\n      0x0a\n        /* \"contracts/BusinessConsensus.sol\":3839:3861  voters_map[msg.sender] */\n      0x00\n        /* \"contracts/BusinessConsensus.sol\":3850:3860  msg.sender */\n      caller\n        /* \"contracts/BusinessConsensus.sol\":3839:3861  voters_map[msg.sender] */\n      0xffffffffffffffffffffffffffffffffffffffff\n      and\n      0xffffffffffffffffffffffffffffffffffffffff\n      and\n      dup2\n      mstore\n      0x20\n      add\n      swap1\n      dup2\n      mstore\n      0x20\n      add\n      0x00\n      keccak256\n        /* \"contracts/BusinessConsensus.sol\":3839:3866  voters_map[msg.sender].vote */\n      0x00\n      add\n      0x15\n        /* \"contracts/BusinessConsensus.sol\":3839:3873  voters_map[msg.sender].vote = true */\n      0x0100\n      exp\n      dup2\n      sload\n      dup2\n      0xff\n      mul\n      not\n      and\n      swap1\n      dup4\n      iszero\n      iszero\n      mul\n      or\n      swap1\n      sstore\n      pop\n        /* \"contracts/BusinessConsensus.sol\":3904:3905  1 */\n      0x01\n        /* \"contracts/BusinessConsensus.sol\":3888:3900  numApprovals */\n      0x06\n      0x00\n        /* \"contracts/BusinessConsensus.sol\":3888:3905  numApprovals += 1 */\n      dup3\n      dup3\n      sload\n      tag_122\n      swap2\n      swap1\n      tag_123\n      jump\t// in\n    tag_122:\n      swap3\n      pop\n      pop\n      dup2\n      swap1\n      sstore\n      pop\n        /* \"contracts/BusinessConsensus.sol\":3942:3943  1 */\n      0x01\n        /* \"contracts/BusinessConsensus.sol\":3920:3928  proposal */\n      0x0b\n        /* \"contracts/BusinessConsensus.sol\":3920:3938  proposal.voteCount */\n      0x00\n      add\n      0x00\n        /* \"contracts/BusinessConsensus.sol\":3920:3943  proposal.voteCount += 1 */\n      dup3\n      dup3\n      sload\n      tag_124\n      swap2\n      swap1\n      tag_123\n      jump\t// in\n    tag_124:\n      swap3\n      pop\n      pop\n      dup2\n      swap1\n      sstore\n      pop\n        /* \"contracts/BusinessConsensus.sol\":3958:3964  voters */\n      0x08\n        /* \"contracts/BusinessConsensus.sol\":3970:3980  voters_map */\n      0x0a\n        /* \"contracts/BusinessConsensus.sol\":3970:3992  voters_map[msg.sender] */\n      0x00\n        /* \"contracts/BusinessConsensus.sol\":3981:3991  msg.sender */\n      caller\n        /* \"contracts/BusinessConsensus.sol\":3970:3992  voters_map[msg.sender] */\n      0xffffffffffffffffffffffffffffffffffffffff\n      and\n      0xffffffffffffffffffffffffffffffffffffffff\n      and\n      dup2\n      mstore\n      0x20\n      add\n      swap1\n      dup2\n      mstore\n      0x20\n      add\n      0x00\n      keccak256\n        /* \"contracts/BusinessConsensus.sol\":3958:3993  voters.push(voters_map[msg.sender]) */\n      swap1\n      dup1\n      0x01\n      dup2\n      sload\n      add\n      dup1\n      dup3\n      sstore\n      dup1\n      swap2\n      pop\n      pop\n      0x01\n      swap1\n      sub\n      swap1\n      0x00\n      mstore\n      keccak256(0x00, 0x20)\n      add\n      0x00\n      swap1\n      swap2\n      swap1\n      swap2\n      swap1\n      swap2\n      pop\n      0x00\n      dup3\n      add\n      0x00\n      swap1\n      sload\n      swap1\n      0x0100\n      exp\n      swap1\n      div\n      0xff\n      and\n      dup2\n      0x00\n      add\n      exp(0x0100, 0x00)\n      dup2\n      sload\n      dup2\n      0xff\n      mul\n      not\n      and\n      swap1\n      dup4\n      iszero\n      iszero\n      mul\n      or\n      swap1\n      sstore\n      pop\n      0x00\n      dup3\n      add\n      0x01\n      swap1\n      sload\n      swap1\n      0x0100\n      exp\n      swap1\n      div\n      0xffffffffffffffffffffffffffffffffffffffff\n      and\n      dup2\n      0x00\n      add\n      exp(0x0100, 0x01)\n      dup2\n      sload\n      dup2\n      0xffffffffffffffffffffffffffffffffffffffff\n      mul\n      not\n      and\n      swap1\n      dup4\n      0xffffffffffffffffffffffffffffffffffffffff\n      and\n      mul\n      or\n      swap1\n      sstore\n      pop\n      0x00\n      dup3\n      add\n      0x15\n      swap1\n      sload\n      swap1\n      0x0100\n      exp\n      swap1\n      div\n      0xff\n      and\n      dup2\n      0x00\n      add\n      exp(0x0100, 0x15)\n      dup2\n      sload\n      dup2\n      0xff\n      mul\n      not\n      and\n      swap1\n      dup4\n      iszero\n      iszero\n      mul\n      or\n      swap1\n      sstore\n      pop\n      pop\n      pop\n        /* \"contracts/BusinessConsensus.sol\":3711:4238  if(keccak256(bytes(response)) == keccak256(bytes(\"i approve\"))){... */\n      jump(tag_126)\n    tag_121:\n        /* \"contracts/BusinessConsensus.sol\":4065:4086  bytes(\"i disapprove\") */\n      mload(0x40)\n      dup1\n      0x40\n      add\n      0x40\n      mstore\n      dup1\n      0x0c\n      dup2\n      mstore\n      0x20\n      add\n      0x6920646973617070726f76650000000000000000000000000000000000000000\n      dup2\n      mstore\n      pop\n        /* \"contracts/BusinessConsensus.sol\":4055:4087  keccak256(bytes(\"i disapprove\")) */\n      dup1\n      mload\n      swap1\n      0x20\n      add\n      keccak256\n        /* \"contracts/BusinessConsensus.sol\":4041:4049  response */\n      dup3\n        /* \"contracts/BusinessConsensus.sol\":4025:4051  keccak256(bytes(response)) */\n      dup1\n      mload\n      swap1\n      0x20\n      add\n      keccak256\n        /* \"contracts/BusinessConsensus.sol\":4025:4087  keccak256(bytes(response)) == keccak256(bytes(\"i disapprove\")) */\n      sub\n        /* \"contracts/BusinessConsensus.sol\":4022:4238  if(keccak256(bytes(response)) == keccak256(bytes(\"i disapprove\"))){... */\n      tag_127\n      jumpi\n        /* \"contracts/BusinessConsensus.sol\":4134:4138  true */\n      0x01\n        /* \"contracts/BusinessConsensus.sol\":4103:4113  voters_map */\n      0x0a\n        /* \"contracts/BusinessConsensus.sol\":4103:4125  voters_map[msg.sender] */\n      0x00\n        /* \"contracts/BusinessConsensus.sol\":4114:4124  msg.sender */\n      caller\n        /* \"contracts/BusinessConsensus.sol\":4103:4125  voters_map[msg.sender] */\n      0xffffffffffffffffffffffffffffffffffffffff\n      and\n      0xffffffffffffffffffffffffffffffffffffffff\n      and\n      dup2\n      mstore\n      0x20\n      add\n      swap1\n      dup2\n      mstore\n      0x20\n      add\n      0x00\n      keccak256\n        /* \"contracts/BusinessConsensus.sol\":4103:4131  voters_map[msg.sender].voted */\n      0x00\n      add\n      0x00\n        /* \"contracts/BusinessConsensus.sol\":4103:4138  voters_map[msg.sender].voted = true */\n      0x0100\n      exp\n      dup2\n      sload\n      dup2\n      0xff\n      mul\n      not\n      and\n      swap1\n      dup4\n      iszero\n      iszero\n      mul\n      or\n      swap1\n      sstore\n      pop\n        /* \"contracts/BusinessConsensus.sol\":4175:4176  1 */\n      0x01\n        /* \"contracts/BusinessConsensus.sol\":4153:4161  proposal */\n      0x0b\n        /* \"contracts/BusinessConsensus.sol\":4153:4171  proposal.voteCount */\n      0x00\n      add\n      0x00\n        /* \"contracts/BusinessConsensus.sol\":4153:4176  proposal.voteCount += 1 */\n      dup3\n      dup3\n      sload\n      tag_128\n      swap2\n      swap1\n      tag_123\n      jump\t// in\n    tag_128:\n      swap3\n      pop\n      pop\n      dup2\n      swap1\n      sstore\n      pop\n        /* \"contracts/BusinessConsensus.sol\":4191:4197  voters */\n      0x08\n        /* \"contracts/BusinessConsensus.sol\":4203:4213  voters_map */\n      0x0a\n        /* \"contracts/BusinessConsensus.sol\":4203:4225  voters_map[msg.sender] */\n      0x00\n        /* \"contracts/BusinessConsensus.sol\":4214:4224  msg.sender */\n      caller\n        /* \"contracts/BusinessConsensus.sol\":4203:4225  voters_map[msg.sender] */\n      0xffffffffffffffffffffffffffffffffffffffff\n      and\n      0xffffffffffffffffffffffffffffffffffffffff\n      and\n      dup2\n      mstore\n      0x20\n      add\n      swap1\n      dup2\n      mstore\n      0x20\n      add\n      0x00\n      keccak256\n        /* \"contracts/BusinessConsensus.sol\":4191:4226  voters.push(voters_map[msg.sender]) */\n      swap1\n      dup1\n      0x01\n      dup2\n      sload\n      add\n      dup1\n      dup3\n      sstore\n      dup1\n      swap2\n      pop\n      pop\n      0x01\n      swap1\n      sub\n      swap1\n      0x00\n      mstore\n      keccak256(0x00, 0x20)\n      add\n      0x00\n      swap1\n      swap2\n      swap1\n      swap2\n      swap1\n      swap2\n      pop\n      0x00\n      dup3\n      add\n      0x00\n      swap1\n      sload\n      swap1\n      0x0100\n      exp\n      swap1\n      div\n      0xff\n      and\n      dup2\n      0x00\n      add\n      exp(0x0100, 0x00)\n      dup2\n      sload\n      dup2\n      0xff\n      mul\n      not\n      and\n      swap1\n      dup4\n      iszero\n      iszero\n      mul\n      or\n      swap1\n      sstore\n      pop\n      0x00\n      dup3\n      add\n      0x01\n      swap1\n      sload\n      swap1\n      0x0100\n      exp\n      swap1\n      div\n      0xffffffffffffffffffffffffffffffffffffffff\n      and\n      dup2\n      0x00\n      add\n      exp(0x0100, 0x01)\n      dup2\n      sload\n      dup2\n      0xffffffffffffffffffffffffffffffffffffffff\n      mul\n      not\n      and\n      swap1\n      dup4\n      0xffffffffffffffffffffffffffffffffffffffff\n      and\n      mul\n      or\n      swap1\n      sstore\n      pop\n      0x00\n      dup3\n      add\n      0x15\n      swap1\n      sload\n      swap1\n      0x0100\n      exp\n      swap1\n      div\n      0xff\n      and\n      dup2\n      0x00\n      add\n      exp(0x0100, 0x15)\n      dup2\n      sload\n      dup2\n      0xff\n      mul\n      not\n      and\n      swap1\n      dup4\n      iszero\n      iszero\n      mul\n      or\n      swap1\n      sstore\n      pop\n      pop\n      pop\n        /* \"contracts/BusinessConsensus.sol\":4022:4238  if(keccak256(bytes(response)) == keccak256(bytes(\"i disapprove\"))){... */\n    tag_127:\n        /* \"contracts/BusinessConsensus.sol\":3711:4238  if(keccak256(bytes(response)) == keccak256(bytes(\"i approve\"))){... */\n    tag_126:\n        /* \"contracts/BusinessConsensus.sol\":3368:4255  {... */\n      pop\n        /* \"contracts/BusinessConsensus.sol\":3321:4255  function Vote(string memory response) external {... */\n      pop\n      jump\t// out\n        /* \"contracts/BusinessConsensus.sol\":2304:2516  function getParameters2(address test_address) public view returns (bool, bool, address){... */\n    tag_43:\n        /* \"contracts/BusinessConsensus.sol\":2371:2375  bool */\n      0x00\n        /* \"contracts/BusinessConsensus.sol\":2377:2381  bool */\n      dup1\n        /* \"contracts/BusinessConsensus.sol\":2383:2390  address */\n      0x00\n        /* \"contracts/BusinessConsensus.sol\":2410:2420  voters_map */\n      0x0a\n        /* \"contracts/BusinessConsensus.sol\":2410:2434  voters_map[test_address] */\n      0x00\n        /* \"contracts/BusinessConsensus.sol\":2421:2433  test_address */\n      dup6\n        /* \"contracts/BusinessConsensus.sol\":2410:2434  voters_map[test_address] */\n      0xffffffffffffffffffffffffffffffffffffffff\n      and\n      0xffffffffffffffffffffffffffffffffffffffff\n      and\n      dup2\n      mstore\n      0x20\n      add\n      swap1\n      dup2\n      mstore\n      0x20\n      add\n      0x00\n      keccak256\n        /* \"contracts/BusinessConsensus.sol\":2410:2439  voters_map[test_address].vote */\n      0x00\n      add\n      0x15\n      swap1\n      sload\n      swap1\n      0x0100\n      exp\n      swap1\n      div\n      0xff\n      and\n        /* \"contracts/BusinessConsensus.sol\":2441:2451  voters_map */\n      0x0a\n        /* \"contracts/BusinessConsensus.sol\":2441:2465  voters_map[test_address] */\n      0x00\n        /* \"contracts/BusinessConsensus.sol\":2452:2464  test_address */\n      dup7\n        /* \"contracts/BusinessConsensus.sol\":2441:2465  voters_map[test_address] */\n      0xffffffffffffffffffffffffffffffffffffffff\n      and\n      0xffffffffffffffffffffffffffffffffffffffff\n      and\n      dup2\n      mstore\n      0x20\n      add\n      swap1\n      dup2\n      mstore\n      0x20\n      add\n      0x00\n      keccak256\n        /* \"contracts/BusinessConsensus.sol\":2441:2471  voters_map[test_address].voted */\n      0x00\n      add\n      0x00\n      swap1\n      sload\n      swap1\n      0x0100\n      exp\n      swap1\n      div\n      0xff\n      and\n        /* \"contracts/BusinessConsensus.sol\":2473:2483  voters_map */\n      0x0a\n        /* \"contracts/BusinessConsensus.sol\":2473:2497  voters_map[test_address] */\n      0x00\n        /* \"contracts/BusinessConsensus.sol\":2484:2496  test_address */\n      dup8\n        /* \"contracts/BusinessConsensus.sol\":2473:2497  voters_map[test_address] */\n      0xffffffffffffffffffffffffffffffffffffffff\n      and\n      0xffffffffffffffffffffffffffffffffffffffff\n      and\n      dup2\n      mstore\n      0x20\n      add\n      swap1\n      dup2\n      mstore\n      0x20\n      add\n      0x00\n      keccak256\n        /* \"contracts/BusinessConsensus.sol\":2473:2507  voters_map[test_address].recipient */\n      0x00\n      add\n      0x01\n      swap1\n      sload\n      swap1\n      0x0100\n      exp\n      swap1\n      div\n      0xffffffffffffffffffffffffffffffffffffffff\n      and\n        /* \"contracts/BusinessConsensus.sol\":2402:2508  return (voters_map[test_address].vote, voters_map[test_address].voted, voters_map[test_address].recipient) */\n      swap3\n      pop\n      swap3\n      pop\n      swap3\n      pop\n        /* \"contracts/BusinessConsensus.sol\":2304:2516  function getParameters2(address test_address) public view returns (bool, bool, address){... */\n      swap2\n      swap4\n      swap1\n      swap3\n      pop\n      jump\t// out\n        /* \"contracts/BusinessConsensus.sol\":982:1006  address public initiator */\n    tag_47:\n      0x03\n      0x00\n      swap1\n      sload\n      swap1\n      0x0100\n      exp\n      swap1\n      div\n      0xffffffffffffffffffffffffffffffffffffffff\n      and\n      dup2\n      jump\t// out\n        /* \"contracts/BusinessConsensus.sol\":1055:1088  uint public AccumulatedPercentage */\n    tag_50:\n      sload(0x05)\n      dup2\n      jump\t// out\n        /* \"contracts/BusinessConsensus.sol\":1095:1119  uint public numApprovals */\n    tag_54:\n      sload(0x06)\n      dup2\n      jump\t// out\n        /* \"contracts/BusinessConsensus.sol\":1339:1363  Proposal public proposal */\n    tag_57:\n      0x0b\n      dup1\n      0x00\n      add\n      sload\n      swap1\n      dup1\n      0x01\n      add\n      dup1\n      sload\n      tag_131\n      swap1\n      tag_106\n      jump\t// in\n    tag_131:\n      dup1\n      0x1f\n      add\n      0x20\n      dup1\n      swap2\n      div\n      mul\n      0x20\n      add\n      mload(0x40)\n      swap1\n      dup2\n      add\n      0x40\n      mstore\n      dup1\n      swap3\n      swap2\n      swap1\n      dup2\n      dup2\n      mstore\n      0x20\n      add\n      dup3\n      dup1\n      sload\n      tag_132\n      swap1\n      tag_106\n      jump\t// in\n    tag_132:\n      dup1\n      iszero\n      tag_133\n      jumpi\n      dup1\n      0x1f\n      lt\n      tag_134\n      jumpi\n      0x0100\n      dup1\n      dup4\n      sload\n      div\n      mul\n      dup4\n      mstore\n      swap2\n      0x20\n      add\n      swap2\n      jump(tag_133)\n    tag_134:\n      dup3\n      add\n      swap2\n      swap1\n      0x00\n      mstore\n      keccak256(0x00, 0x20)\n      swap1\n    tag_135:\n      dup2\n      sload\n      dup2\n      mstore\n      swap1\n      0x01\n      add\n      swap1\n      0x20\n      add\n      dup1\n      dup4\n      gt\n      tag_135\n      jumpi\n      dup3\n      swap1\n      sub\n      0x1f\n      and\n      dup3\n      add\n      swap2\n    tag_133:\n      pop\n      pop\n      pop\n      pop\n      pop\n      swap1\n      pop\n      dup3\n      jump\t// out\n        /* \"contracts/BusinessConsensus.sol\":4319:4883  function Consensus() external {... */\n    tag_61:\n        /* \"contracts/BusinessConsensus.sol\":4387:4397  expiryDate */\n      sload(0x01)\n        /* \"contracts/BusinessConsensus.sol\":4368:4383  block.timestamp */\n      timestamp\n        /* \"contracts/BusinessConsensus.sol\":4368:4397  block.timestamp >= expiryDate */\n      lt\n      iszero\n        /* \"contracts/BusinessConsensus.sol\":4360:4434  require(block.timestamp >= expiryDate, \"Verdict has not been reached yet\") */\n      tag_137\n      jumpi\n      mload(0x40)\n      0x08c379a000000000000000000000000000000000000000000000000000000000\n      dup2\n      mstore\n      0x04\n      add\n      tag_138\n      swap1\n      tag_139\n      jump\t// in\n    tag_138:\n      mload(0x40)\n      dup1\n      swap2\n      sub\n      swap1\n      revert\n    tag_137:\n        /* \"contracts/BusinessConsensus.sol\":4471:4472  1 */\n      0x01\n        /* \"contracts/BusinessConsensus.sol\":4453:4467  numberCompiled */\n      sload(0x07)\n        /* \"contracts/BusinessConsensus.sol\":4453:4472  numberCompiled == 1 */\n      eq\n        /* \"contracts/BusinessConsensus.sol\":4445:4514  require(numberCompiled == 1, \"Consensus has already been calculated\") */\n      tag_140\n      jumpi\n      mload(0x40)\n      0x08c379a000000000000000000000000000000000000000000000000000000000\n      dup2\n      mstore\n      0x04\n      add\n      tag_141\n      swap1\n      tag_142\n      jump\t// in\n    tag_141:\n      mload(0x40)\n      dup1\n      swap2\n      sub\n      swap1\n      revert\n    tag_140:\n        /* \"contracts/BusinessConsensus.sol\":4576:4579  100 */\n      0x64\n        /* \"contracts/BusinessConsensus.sol\":4563:4567  keys */\n      0x09\n        /* \"contracts/BusinessConsensus.sol\":4563:4574  keys.length */\n      dup1\n      sload\n      swap1\n      pop\n        /* \"contracts/BusinessConsensus.sol\":4550:4562  numApprovals */\n      sload(0x06)\n        /* \"contracts/BusinessConsensus.sol\":4550:4574  numApprovals/keys.length */\n      tag_143\n      swap2\n      swap1\n      tag_144\n      jump\t// in\n    tag_143:\n        /* \"contracts/BusinessConsensus.sol\":4549:4579  (numApprovals/keys.length)*100 */\n      tag_145\n      swap2\n      swap1\n      tag_146\n      jump\t// in\n    tag_145:\n        /* \"contracts/BusinessConsensus.sol\":4525:4546  AccumulatedPercentage */\n      0x05\n        /* \"contracts/BusinessConsensus.sol\":4525:4579  AccumulatedPercentage = (numApprovals/keys.length)*100 */\n      dup2\n      swap1\n      sstore\n      pop\n        /* \"contracts/BusinessConsensus.sol\":4618:4637  BusinessRequirement */\n      sload(0x04)\n        /* \"contracts/BusinessConsensus.sol\":4593:4614  AccumulatedPercentage */\n      sload(0x05)\n        /* \"contracts/BusinessConsensus.sol\":4593:4637  AccumulatedPercentage >= BusinessRequirement */\n      lt\n        /* \"contracts/BusinessConsensus.sol\":4590:4690  if(AccumulatedPercentage >= BusinessRequirement){... */\n      tag_147\n      jumpi\n        /* \"contracts/BusinessConsensus.sol\":4653:4678  finalVerdict = \"Accepted\" */\n      mload(0x40)\n      dup1\n      0x40\n      add\n      0x40\n      mstore\n      dup1\n      0x08\n      dup2\n      mstore\n      0x20\n      add\n      0x4163636570746564000000000000000000000000000000000000000000000000\n      dup2\n      mstore\n      pop\n        /* \"contracts/BusinessConsensus.sol\":4653:4665  finalVerdict */\n      0x02\n        /* \"contracts/BusinessConsensus.sol\":4653:4678  finalVerdict = \"Accepted\" */\n      swap1\n      dup2\n      tag_148\n      swap2\n      swap1\n      tag_149\n      jump\t// in\n    tag_148:\n      pop\n        /* \"contracts/BusinessConsensus.sol\":4590:4690  if(AccumulatedPercentage >= BusinessRequirement){... */\n    tag_147:\n        /* \"contracts/BusinessConsensus.sol\":4704:4711  uint8 i */\n      0x00\n        /* \"contracts/BusinessConsensus.sol\":4700:4866  for(uint8 i=0; i< keys.length; i++){... */\n    tag_150:\n        /* \"contracts/BusinessConsensus.sol\":4718:4722  keys */\n      0x09\n        /* \"contracts/BusinessConsensus.sol\":4718:4729  keys.length */\n      dup1\n      sload\n      swap1\n      pop\n        /* \"contracts/BusinessConsensus.sol\":4715:4716  i */\n      dup2\n        /* \"contracts/BusinessConsensus.sol\":4715:4729  i< keys.length */\n      0xff\n      and\n      lt\n        /* \"contracts/BusinessConsensus.sol\":4700:4866  for(uint8 i=0; i< keys.length; i++){... */\n      iszero\n      tag_151\n      jumpi\n        /* \"contracts/BusinessConsensus.sol\":4782:4787  false */\n      0x00\n        /* \"contracts/BusinessConsensus.sol\":4753:4787  voters_map[keys[i]].voted == false */\n      iszero\n      iszero\n        /* \"contracts/BusinessConsensus.sol\":4753:4763  voters_map */\n      0x0a\n        /* \"contracts/BusinessConsensus.sol\":4753:4772  voters_map[keys[i]] */\n      0x00\n        /* \"contracts/BusinessConsensus.sol\":4764:4768  keys */\n      0x09\n        /* \"contracts/BusinessConsensus.sol\":4769:4770  i */\n      dup5\n        /* \"contracts/BusinessConsensus.sol\":4764:4771  keys[i] */\n      0xff\n      and\n      dup2\n      sload\n      dup2\n      lt\n      tag_153\n      jumpi\n      tag_154\n      tag_155\n      jump\t// in\n    tag_154:\n    tag_153:\n      swap1\n      0x00\n      mstore\n      keccak256(0x00, 0x20)\n      add\n      0x00\n      swap1\n      sload\n      swap1\n      0x0100\n      exp\n      swap1\n      div\n      0xffffffffffffffffffffffffffffffffffffffff\n      and\n        /* \"contracts/BusinessConsensus.sol\":4753:4772  voters_map[keys[i]] */\n      0xffffffffffffffffffffffffffffffffffffffff\n      and\n      0xffffffffffffffffffffffffffffffffffffffff\n      and\n      dup2\n      mstore\n      0x20\n      add\n      swap1\n      dup2\n      mstore\n      0x20\n      add\n      0x00\n      keccak256\n        /* \"contracts/BusinessConsensus.sol\":4753:4778  voters_map[keys[i]].voted */\n      0x00\n      add\n      0x00\n      swap1\n      sload\n      swap1\n      0x0100\n      exp\n      swap1\n      div\n      0xff\n      and\n        /* \"contracts/BusinessConsensus.sol\":4753:4787  voters_map[keys[i]].voted == false */\n      iszero\n      iszero\n      sub\n        /* \"contracts/BusinessConsensus.sol\":4750:4855  if(voters_map[keys[i]].voted == false){... */\n      tag_157\n      jumpi\n        /* \"contracts/BusinessConsensus.sol\":4807:4813  voters */\n      0x08\n        /* \"contracts/BusinessConsensus.sol\":4819:4829  voters_map */\n      0x0a\n        /* \"contracts/BusinessConsensus.sol\":4819:4838  voters_map[keys[i]] */\n      0x00\n        /* \"contracts/BusinessConsensus.sol\":4830:4834  keys */\n      0x09\n        /* \"contracts/BusinessConsensus.sol\":4835:4836  i */\n      dup5\n        /* \"contracts/BusinessConsensus.sol\":4830:4837  keys[i] */\n      0xff\n      and\n      dup2\n      sload\n      dup2\n      lt\n      tag_158\n      jumpi\n      tag_159\n      tag_155\n      jump\t// in\n    tag_159:\n    tag_158:\n      swap1\n      0x00\n      mstore\n      keccak256(0x00, 0x20)\n      add\n      0x00\n      swap1\n      sload\n      swap1\n      0x0100\n      exp\n      swap1\n      div\n      0xffffffffffffffffffffffffffffffffffffffff\n      and\n        /* \"contracts/BusinessConsensus.sol\":4819:4838  voters_map[keys[i]] */\n      0xffffffffffffffffffffffffffffffffffffffff\n      and\n      0xffffffffffffffffffffffffffffffffffffffff\n      and\n      dup2\n      mstore\n      0x20\n      add\n      swap1\n      dup2\n      mstore\n      0x20\n      add\n      0x00\n      keccak256\n        /* \"contracts/BusinessConsensus.sol\":4807:4839  voters.push(voters_map[keys[i]]) */\n      swap1\n      dup1\n      0x01\n      dup2\n      sload\n      add\n      dup1\n      dup3\n      sstore\n      dup1\n      swap2\n      pop\n      pop\n      0x01\n      swap1\n      sub\n      swap1\n      0x00\n      mstore\n      keccak256(0x00, 0x20)\n      add\n      0x00\n      swap1\n      swap2\n      swap1\n      swap2\n      swap1\n      swap2\n      pop\n      0x00\n      dup3\n      add\n      0x00\n      swap1\n      sload\n      swap1\n      0x0100\n      exp\n      swap1\n      div\n      0xff\n      and\n      dup2\n      0x00\n      add\n      exp(0x0100, 0x00)\n      dup2\n      sload\n      dup2\n      0xff\n      mul\n      not\n      and\n      swap1\n      dup4\n      iszero\n      iszero\n      mul\n      or\n      swap1\n      sstore\n      pop\n      0x00\n      dup3\n      add\n      0x01\n      swap1\n      sload\n      swap1\n      0x0100\n      exp\n      swap1\n      div\n      0xffffffffffffffffffffffffffffffffffffffff\n      and\n      dup2\n      0x00\n      add\n      exp(0x0100, 0x01)\n      dup2\n      sload\n      dup2\n      0xffffffffffffffffffffffffffffffffffffffff\n      mul\n      not\n      and\n      swap1\n      dup4\n      0xffffffffffffffffffffffffffffffffffffffff\n      and\n      mul\n      or\n      swap1\n      sstore\n      pop\n      0x00\n      dup3\n      add\n      0x15\n      swap1\n      sload\n      swap1\n      0x0100\n      exp\n      swap1\n      div\n      0xff\n      and\n      dup2\n      0x00\n      add\n      exp(0x0100, 0x15)\n      dup2\n      sload\n      dup2\n      0xff\n      mul\n      not\n      and\n      swap1\n      dup4\n      iszero\n      iszero\n      mul\n      or\n      swap1\n      sstore\n      pop\n      pop\n      pop\n        /* \"contracts/BusinessConsensus.sol\":4750:4855  if(voters_map[keys[i]].voted == false){... */\n    tag_157:\n        /* \"contracts/BusinessConsensus.sol\":4731:4734  i++ */\n      dup1\n      dup1\n      tag_162\n      swap1\n      tag_163\n      jump\t// in\n    tag_162:\n      swap2\n      pop\n      pop\n        /* \"contracts/BusinessConsensus.sol\":4700:4866  for(uint8 i=0; i< keys.length; i++){... */\n      jump(tag_150)\n    tag_151:\n      pop\n        /* \"contracts/BusinessConsensus.sol\":4319:4883  function Consensus() external {... */\n      jump\t// out\n        /* \"contracts/BusinessConsensus.sol\":4891:5079  function compile_bundle() public view returns (Bundle memory){... */\n    tag_63:\n        /* \"contracts/BusinessConsensus.sol\":4938:4951  Bundle memory */\n      tag_164\n      tag_165\n      jump\t// in\n    tag_164:\n        /* \"contracts/BusinessConsensus.sol\":4990:5000  expiryDate */\n      sload(0x01)\n        /* \"contracts/BusinessConsensus.sol\":4971:4986  block.timestamp */\n      timestamp\n        /* \"contracts/BusinessConsensus.sol\":4971:5000  block.timestamp >= expiryDate */\n      lt\n      iszero\n        /* \"contracts/BusinessConsensus.sol\":4963:5037  require(block.timestamp >= expiryDate, \"Verdict has not been reached yet\") */\n      tag_167\n      jumpi\n      mload(0x40)\n      0x08c379a000000000000000000000000000000000000000000000000000000000\n      dup2\n      mstore\n      0x04\n      add\n      tag_168\n      swap1\n      tag_139\n      jump\t// in\n    tag_168:\n      mload(0x40)\n      dup1\n      swap2\n      sub\n      swap1\n      revert\n    tag_167:\n        /* \"contracts/BusinessConsensus.sol\":5055:5061  bundle */\n      0x0d\n        /* \"contracts/BusinessConsensus.sol\":5048:5061  return bundle */\n      mload(0x40)\n      dup1\n      0x60\n      add\n      0x40\n      mstore\n      swap1\n      dup2\n      0x00\n      dup3\n      add\n      dup1\n      sload\n      tag_169\n      swap1\n      tag_106\n      jump\t// in\n    tag_169:\n      dup1\n      0x1f\n      add\n      0x20\n      dup1\n      swap2\n      div\n      mul\n      0x20\n      add\n      mload(0x40)\n      swap1\n      dup2\n      add\n      0x40\n      mstore\n      dup1\n      swap3\n      swap2\n      swap1\n      dup2\n      dup2\n      mstore\n      0x20\n      add\n      dup3\n      dup1\n      sload\n      tag_170\n      swap1\n      tag_106\n      jump\t// in\n    tag_170:\n      dup1\n      iszero\n      tag_171\n      jumpi\n      dup1\n      0x1f\n      lt\n      tag_172\n      jumpi\n      0x0100\n      dup1\n      dup4\n      sload\n      div\n      mul\n      dup4\n      mstore\n      swap2\n      0x20\n      add\n      swap2\n      jump(tag_171)\n    tag_172:\n      dup3\n      add\n      swap2\n      swap1\n      0x00\n      mstore\n      keccak256(0x00, 0x20)\n      swap1\n    tag_173:\n      dup2\n      sload\n      dup2\n      mstore\n      swap1\n      0x01\n      add\n      swap1\n      0x20\n      add\n      dup1\n      dup4\n      gt\n      tag_173\n      jumpi\n      dup3\n      swap1\n      sub\n      0x1f\n      and\n      dup3\n      add\n      swap2\n    tag_171:\n      pop\n      pop\n      pop\n      pop\n      pop\n      dup2\n      mstore\n      0x20\n      add\n      0x01\n      dup3\n      add\n      mload(0x40)\n      dup1\n      0x40\n      add\n      0x40\n      mstore\n      swap1\n      dup2\n      0x00\n      dup3\n      add\n      sload\n      dup2\n      mstore\n      0x20\n      add\n      0x01\n      dup3\n      add\n      dup1\n      sload\n      tag_174\n      swap1\n      tag_106\n      jump\t// in\n    tag_174:\n      dup1\n      0x1f\n      add\n      0x20\n      dup1\n      swap2\n      div\n      mul\n      0x20\n      add\n      mload(0x40)\n      swap1\n      dup2\n      add\n      0x40\n      mstore\n      dup1\n      swap3\n      swap2\n      swap1\n      dup2\n      dup2\n      mstore\n      0x20\n      add\n      dup3\n      dup1\n      sload\n      tag_175\n      swap1\n      tag_106\n      jump\t// in\n    tag_175:\n      dup1\n      iszero\n      tag_176\n      jumpi\n      dup1\n      0x1f\n      lt\n      tag_177\n      jumpi\n      0x0100\n      dup1\n      dup4\n      sload\n      div\n      mul\n      dup4\n      mstore\n      swap2\n      0x20\n      add\n      swap2\n      jump(tag_176)\n    tag_177:\n      dup3\n      add\n      swap2\n      swap1\n      0x00\n      mstore\n      keccak256(0x00, 0x20)\n      swap1\n    tag_178:\n      dup2\n      sload\n      dup2\n      mstore\n      swap1\n      0x01\n      add\n      swap1\n      0x20\n      add\n      dup1\n      dup4\n      gt\n      tag_178\n      jumpi\n      dup3\n      swap1\n      sub\n      0x1f\n      and\n      dup3\n      add\n      swap2\n    tag_176:\n      pop\n      pop\n      pop\n      pop\n      pop\n      dup2\n      mstore\n      pop\n      pop\n      dup2\n      mstore\n      0x20\n      add\n      0x03\n      dup3\n      add\n      dup1\n      sload\n      dup1\n      0x20\n      mul\n      0x20\n      add\n      mload(0x40)\n      swap1\n      dup2\n      add\n      0x40\n      mstore\n      dup1\n      swap3\n      swap2\n      swap1\n      dup2\n      dup2\n      mstore\n      0x20\n      add\n      0x00\n      swap1\n    tag_179:\n      dup3\n      dup3\n      lt\n      iszero\n      tag_180\n      jumpi\n      dup4\n      dup3\n      swap1\n      0x00\n      mstore\n      keccak256(0x00, 0x20)\n      add\n      mload(0x40)\n      dup1\n      0x60\n      add\n      0x40\n      mstore\n      swap1\n      dup2\n      0x00\n      dup3\n      add\n      0x00\n      swap1\n      sload\n      swap1\n      0x0100\n      exp\n      swap1\n      div\n      0xff\n      and\n      iszero\n      iszero\n      iszero\n      iszero\n      dup2\n      mstore\n      0x20\n      add\n      0x00\n      dup3\n      add\n      0x01\n      swap1\n      sload\n      swap1\n      0x0100\n      exp\n      swap1\n      div\n      0xffffffffffffffffffffffffffffffffffffffff\n      and\n      0xffffffffffffffffffffffffffffffffffffffff\n      and\n      0xffffffffffffffffffffffffffffffffffffffff\n      and\n      dup2\n      mstore\n      0x20\n      add\n      0x00\n      dup3\n      add\n      0x15\n      swap1\n      sload\n      swap1\n      0x0100\n      exp\n      swap1\n      div\n      0xff\n      and\n      iszero\n      iszero\n      iszero\n      iszero\n      dup2\n      mstore\n      pop\n      pop\n      dup2\n      mstore\n      0x20\n      add\n      swap1\n      0x01\n      add\n      swap1\n      jump(tag_179)\n    tag_180:\n      pop\n      pop\n      pop\n      pop\n      dup2\n      mstore\n      pop\n      pop\n      swap1\n      pop\n        /* \"contracts/BusinessConsensus.sol\":4891:5079  function compile_bundle() public view returns (Bundle memory){... */\n      swap1\n      jump\t// out\n        /* \"contracts/BusinessConsensus.sol\":1219:1262  mapping(address => Voter) public voters_map */\n    tag_68:\n      mstore(0x20, 0x0a)\n      dup1\n      0x00\n      mstore\n      keccak256(0x00, 0x40)\n      0x00\n      swap2\n      pop\n      swap1\n      pop\n      dup1\n      0x00\n      add\n      0x00\n      swap1\n      sload\n      swap1\n      0x0100\n      exp\n      swap1\n      div\n      0xff\n      and\n      swap1\n      dup1\n      0x00\n      add\n      0x01\n      swap1\n      sload\n      swap1\n      0x0100\n      exp\n      swap1\n      div\n      0xffffffffffffffffffffffffffffffffffffffff\n      and\n      swap1\n      dup1\n      0x00\n      add\n      0x15\n      swap1\n      sload\n      swap1\n      0x0100\n      exp\n      swap1\n      div\n      0xff\n      and\n      swap1\n      pop\n      dup4\n      jump\t// out\n        /* \"contracts/BusinessConsensus.sol\":2110:2298  function getParameters() public view returns (string memory, uint , address ,uint ,uint){... */\n    tag_72:\n        /* \"contracts/BusinessConsensus.sol\":2156:2169  string memory */\n      0x60\n        /* \"contracts/BusinessConsensus.sol\":2171:2175  uint */\n      0x00\n        /* \"contracts/BusinessConsensus.sol\":2178:2185  address */\n      dup1\n        /* \"contracts/BusinessConsensus.sol\":2187:2191  uint */\n      0x00\n        /* \"contracts/BusinessConsensus.sol\":2193:2197  uint */\n      dup1\n        /* \"contracts/BusinessConsensus.sol\":2217:2225  proposal */\n      0x0b\n        /* \"contracts/BusinessConsensus.sol\":2217:2235  proposal.messageID */\n      0x01\n      add\n        /* \"contracts/BusinessConsensus.sol\":2236:2246  expiryDate */\n      sload(0x01)\n        /* \"contracts/BusinessConsensus.sol\":2247:2256  initiator */\n      0x03\n      0x00\n      swap1\n      sload\n      swap1\n      0x0100\n      exp\n      swap1\n      div\n      0xffffffffffffffffffffffffffffffffffffffff\n      and\n        /* \"contracts/BusinessConsensus.sol\":2257:2276  BusinessRequirement */\n      sload(0x04)\n        /* \"contracts/BusinessConsensus.sol\":2277:2289  numApprovals */\n      sload(0x06)\n        /* \"contracts/BusinessConsensus.sol\":2209:2290  return (proposal.messageID,expiryDate,initiator,BusinessRequirement,numApprovals) */\n      dup5\n      dup1\n      sload\n      tag_183\n      swap1\n      tag_106\n      jump\t// in\n    tag_183:\n      dup1\n      0x1f\n      add\n      0x20\n      dup1\n      swap2\n      div\n      mul\n      0x20\n      add\n      mload(0x40)\n      swap1\n      dup2\n      add\n      0x40\n      mstore\n      dup1\n      swap3\n      swap2\n      swap1\n      dup2\n      dup2\n      mstore\n      0x20\n      add\n      dup3\n      dup1\n      sload\n      tag_184\n      swap1\n      tag_106\n      jump\t// in\n    tag_184:\n      dup1\n      iszero\n      tag_185\n      jumpi\n      dup1\n      0x1f\n      lt\n      tag_186\n      jumpi\n      0x0100\n      dup1\n      dup4\n      sload\n      div\n      mul\n      dup4\n      mstore\n      swap2\n      0x20\n      add\n      swap2\n      jump(tag_185)\n    tag_186:\n      dup3\n      add\n      swap2\n      swap1\n      0x00\n      mstore\n      keccak256(0x00, 0x20)\n      swap1\n    tag_187:\n      dup2\n      sload\n      dup2\n      mstore\n      swap1\n      0x01\n      add\n      swap1\n      0x20\n      add\n      dup1\n      dup4\n      gt\n      tag_187\n      jumpi\n      dup3\n      swap1\n      sub\n      0x1f\n      and\n      dup3\n      add\n      swap2\n    tag_185:\n      pop\n      pop\n      pop\n      pop\n      pop\n      swap5\n      pop\n      swap5\n      pop\n      swap5\n      pop\n      swap5\n      pop\n      swap5\n      pop\n      swap5\n      pop\n        /* \"contracts/BusinessConsensus.sol\":2110:2298  function getParameters() public view returns (string memory, uint , address ,uint ,uint){... */\n      swap1\n      swap2\n      swap3\n      swap4\n      swap5\n      jump\t// out\n        /* \"contracts/BusinessConsensus.sol\":1128:1154  uint public numberCompiled */\n    tag_76:\n      sload(0x07)\n      dup2\n      jump\t// out\n        /* \"contracts/BusinessConsensus.sol\":1017:1048  uint public BusinessRequirement */\n    tag_79:\n      sload(0x04)\n      dup2\n      jump\t// out\n        /* \"contracts/BusinessConsensus.sol\":1163:1184  Voter[] public voters */\n    tag_83:\n      0x08\n      dup2\n      dup2\n      sload\n      dup2\n      lt\n      tag_188\n      jumpi\n      0x00\n      dup1\n      revert\n    tag_188:\n      swap1\n      0x00\n      mstore\n      keccak256(0x00, 0x20)\n      add\n      0x00\n      swap2\n      pop\n      swap1\n      pop\n      dup1\n      0x00\n      add\n      0x00\n      swap1\n      sload\n      swap1\n      0x0100\n      exp\n      swap1\n      div\n      0xff\n      and\n      swap1\n      dup1\n      0x00\n      add\n      0x01\n      swap1\n      sload\n      swap1\n      0x0100\n      exp\n      swap1\n      div\n      0xffffffffffffffffffffffffffffffffffffffff\n      and\n      swap1\n      dup1\n      0x00\n      add\n      0x15\n      swap1\n      sload\n      swap1\n      0x0100\n      exp\n      swap1\n      div\n      0xff\n      and\n      swap1\n      pop\n      dup4\n      jump\t// out\n        /* \"contracts/BusinessConsensus.sol\":716:746  address public contractAddress */\n    tag_86:\n      0x00\n      dup1\n      sload\n      swap1\n      0x0100\n      exp\n      swap1\n      div\n      0xffffffffffffffffffffffffffffffffffffffff\n      and\n      dup2\n      jump\t// out\n    tag_165:\n      mload(0x40)\n      dup1\n      0x60\n      add\n      0x40\n      mstore\n      dup1\n      0x60\n      dup2\n      mstore\n      0x20\n      add\n      tag_190\n      tag_191\n      jump\t// in\n    tag_190:\n      dup2\n      mstore\n      0x20\n      add\n      0x60\n      dup2\n      mstore\n      pop\n      swap1\n      jump\t// out\n    tag_191:\n      mload(0x40)\n      dup1\n      0x40\n      add\n      0x40\n      mstore\n      dup1\n      0x00\n      dup2\n      mstore\n      0x20\n      add\n      0x60\n      dup2\n      mstore\n      pop\n      swap1\n      jump\t// out\n        /* \"#utility.yul\":7:82   */\n    tag_192:\n        /* \"#utility.yul\":40:46   */\n      0x00\n        /* \"#utility.yul\":73:75   */\n      0x40\n        /* \"#utility.yul\":67:76   */\n      mload\n        /* \"#utility.yul\":57:76   */\n      swap1\n      pop\n        /* \"#utility.yul\":7:82   */\n      swap1\n      jump\t// out\n        /* \"#utility.yul\":88:205   */\n    tag_193:\n        /* \"#utility.yul\":197:198   */\n      0x00\n        /* \"#utility.yul\":194:195   */\n      dup1\n        /* \"#utility.yul\":187:199   */\n      revert\n        /* \"#utility.yul\":211:328   */\n    tag_194:\n        /* \"#utility.yul\":320:321   */\n      0x00\n        /* \"#utility.yul\":317:318   */\n      dup1\n        /* \"#utility.yul\":310:322   */\n      revert\n        /* \"#utility.yul\":334:411   */\n    tag_195:\n        /* \"#utility.yul\":371:378   */\n      0x00\n        /* \"#utility.yul\":400:405   */\n      dup2\n        /* \"#utility.yul\":389:405   */\n      swap1\n      pop\n        /* \"#utility.yul\":334:411   */\n      swap2\n      swap1\n      pop\n      jump\t// out\n        /* \"#utility.yul\":417:539   */\n    tag_196:\n        /* \"#utility.yul\":490:514   */\n      tag_277\n        /* \"#utility.yul\":508:513   */\n      dup2\n        /* \"#utility.yul\":490:514   */\n      tag_195\n      jump\t// in\n    tag_277:\n        /* \"#utility.yul\":483:488   */\n      dup2\n        /* \"#utility.yul\":480:515   */\n      eq\n        /* \"#utility.yul\":470:533   */\n      tag_278\n      jumpi\n        /* \"#utility.yul\":529:530   */\n      0x00\n        /* \"#utility.yul\":526:527   */\n      dup1\n        /* \"#utility.yul\":519:531   */\n      revert\n        /* \"#utility.yul\":470:533   */\n    tag_278:\n        /* \"#utility.yul\":417:539   */\n      pop\n      jump\t// out\n        /* \"#utility.yul\":545:684   */\n    tag_197:\n        /* \"#utility.yul\":591:596   */\n      0x00\n        /* \"#utility.yul\":629:635   */\n      dup2\n        /* \"#utility.yul\":616:636   */\n      calldataload\n        /* \"#utility.yul\":607:636   */\n      swap1\n      pop\n        /* \"#utility.yul\":645:678   */\n      tag_280\n        /* \"#utility.yul\":672:677   */\n      dup2\n        /* \"#utility.yul\":645:678   */\n      tag_196\n      jump\t// in\n    tag_280:\n        /* \"#utility.yul\":545:684   */\n      swap3\n      swap2\n      pop\n      pop\n      jump\t// out\n        /* \"#utility.yul\":690:1019   */\n    tag_25:\n        /* \"#utility.yul\":749:755   */\n      0x00\n        /* \"#utility.yul\":798:800   */\n      0x20\n        /* \"#utility.yul\":786:795   */\n      dup3\n        /* \"#utility.yul\":777:784   */\n      dup5\n        /* \"#utility.yul\":773:796   */\n      sub\n        /* \"#utility.yul\":769:801   */\n      slt\n        /* \"#utility.yul\":766:885   */\n      iszero\n      tag_282\n      jumpi\n        /* \"#utility.yul\":804:883   */\n      tag_283\n      tag_193\n      jump\t// in\n    tag_283:\n        /* \"#utility.yul\":766:885   */\n    tag_282:\n        /* \"#utility.yul\":924:925   */\n      0x00\n        /* \"#utility.yul\":949:1002   */\n      tag_284\n        /* \"#utility.yul\":994:1001   */\n      dup5\n        /* \"#utility.yul\":985:991   */\n      dup3\n        /* \"#utility.yul\":974:983   */\n      dup6\n        /* \"#utility.yul\":970:992   */\n      add\n        /* \"#utility.yul\":949:1002   */\n      tag_197\n      jump\t// in\n    tag_284:\n        /* \"#utility.yul\":939:1002   */\n      swap2\n      pop\n        /* \"#utility.yul\":895:1012   */\n      pop\n        /* \"#utility.yul\":690:1019   */\n      swap3\n      swap2\n      pop\n      pop\n      jump\t// out\n        /* \"#utility.yul\":1025:1151   */\n    tag_198:\n        /* \"#utility.yul\":1062:1069   */\n      0x00\n        /* \"#utility.yul\":1102:1144   */\n      0xffffffffffffffffffffffffffffffffffffffff\n        /* \"#utility.yul\":1095:1100   */\n      dup3\n        /* \"#utility.yul\":1091:1145   */\n      and\n        /* \"#utility.yul\":1080:1145   */\n      swap1\n      pop\n        /* \"#utility.yul\":1025:1151   */\n      swap2\n      swap1\n      pop\n      jump\t// out\n        /* \"#utility.yul\":1157:1253   */\n    tag_199:\n        /* \"#utility.yul\":1194:1201   */\n      0x00\n        /* \"#utility.yul\":1223:1247   */\n      tag_287\n        /* \"#utility.yul\":1241:1246   */\n      dup3\n        /* \"#utility.yul\":1223:1247   */\n      tag_198\n      jump\t// in\n    tag_287:\n        /* \"#utility.yul\":1212:1247   */\n      swap1\n      pop\n        /* \"#utility.yul\":1157:1253   */\n      swap2\n      swap1\n      pop\n      jump\t// out\n        /* \"#utility.yul\":1259:1377   */\n    tag_200:\n        /* \"#utility.yul\":1346:1370   */\n      tag_289\n        /* \"#utility.yul\":1364:1369   */\n      dup2\n        /* \"#utility.yul\":1346:1370   */\n      tag_199\n      jump\t// in\n    tag_289:\n        /* \"#utility.yul\":1341:1344   */\n      dup3\n        /* \"#utility.yul\":1334:1371   */\n      mstore\n        /* \"#utility.yul\":1259:1377   */\n      pop\n      pop\n      jump\t// out\n        /* \"#utility.yul\":1383:1605   */\n    tag_28:\n        /* \"#utility.yul\":1476:1480   */\n      0x00\n        /* \"#utility.yul\":1514:1516   */\n      0x20\n        /* \"#utility.yul\":1503:1512   */\n      dup3\n        /* \"#utility.yul\":1499:1517   */\n      add\n        /* \"#utility.yul\":1491:1517   */\n      swap1\n      pop\n        /* \"#utility.yul\":1527:1598   */\n      tag_291\n        /* \"#utility.yul\":1595:1596   */\n      0x00\n        /* \"#utility.yul\":1584:1593   */\n      dup4\n        /* \"#utility.yul\":1580:1597   */\n      add\n        /* \"#utility.yul\":1571:1577   */\n      dup5\n        /* \"#utility.yul\":1527:1598   */\n      tag_200\n      jump\t// in\n    tag_291:\n        /* \"#utility.yul\":1383:1605   */\n      swap3\n      swap2\n      pop\n      pop\n      jump\t// out\n        /* \"#utility.yul\":1611:1733   */\n    tag_201:\n        /* \"#utility.yul\":1684:1708   */\n      tag_293\n        /* \"#utility.yul\":1702:1707   */\n      dup2\n        /* \"#utility.yul\":1684:1708   */\n      tag_199\n      jump\t// in\n    tag_293:\n        /* \"#utility.yul\":1677:1682   */\n      dup2\n        /* \"#utility.yul\":1674:1709   */\n      eq\n        /* \"#utility.yul\":1664:1727   */\n      tag_294\n      jumpi\n        /* \"#utility.yul\":1723:1724   */\n      0x00\n        /* \"#utility.yul\":1720:1721   */\n      dup1\n        /* \"#utility.yul\":1713:1725   */\n      revert\n        /* \"#utility.yul\":1664:1727   */\n    tag_294:\n        /* \"#utility.yul\":1611:1733   */\n      pop\n      jump\t// out\n        /* \"#utility.yul\":1739:1878   */\n    tag_202:\n        /* \"#utility.yul\":1785:1790   */\n      0x00\n        /* \"#utility.yul\":1823:1829   */\n      dup2\n        /* \"#utility.yul\":1810:1830   */\n      calldataload\n        /* \"#utility.yul\":1801:1830   */\n      swap1\n      pop\n        /* \"#utility.yul\":1839:1872   */\n      tag_296\n        /* \"#utility.yul\":1866:1871   */\n      dup2\n        /* \"#utility.yul\":1839:1872   */\n      tag_201\n      jump\t// in\n    tag_296:\n        /* \"#utility.yul\":1739:1878   */\n      swap3\n      swap2\n      pop\n      pop\n      jump\t// out\n        /* \"#utility.yul\":1884:2213   */\n    tag_31:\n        /* \"#utility.yul\":1943:1949   */\n      0x00\n        /* \"#utility.yul\":1992:1994   */\n      0x20\n        /* \"#utility.yul\":1980:1989   */\n      dup3\n        /* \"#utility.yul\":1971:1978   */\n      dup5\n        /* \"#utility.yul\":1967:1990   */\n      sub\n        /* \"#utility.yul\":1963:1995   */\n      slt\n        /* \"#utility.yul\":1960:2079   */\n      iszero\n      tag_298\n      jumpi\n        /* \"#utility.yul\":1998:2077   */\n      tag_299\n      tag_193\n      jump\t// in\n    tag_299:\n        /* \"#utility.yul\":1960:2079   */\n    tag_298:\n        /* \"#utility.yul\":2118:2119   */\n      0x00\n        /* \"#utility.yul\":2143:2196   */\n      tag_300\n        /* \"#utility.yul\":2188:2195   */\n      dup5\n        /* \"#utility.yul\":2179:2185   */\n      dup3\n        /* \"#utility.yul\":2168:2177   */\n      dup6\n        /* \"#utility.yul\":2164:2186   */\n      add\n        /* \"#utility.yul\":2143:2196   */\n      tag_202\n      jump\t// in\n    tag_300:\n        /* \"#utility.yul\":2133:2196   */\n      swap2\n      pop\n        /* \"#utility.yul\":2089:2206   */\n      pop\n        /* \"#utility.yul\":1884:2213   */\n      swap3\n      swap2\n      pop\n      pop\n      jump\t// out\n        /* \"#utility.yul\":2219:2318   */\n    tag_203:\n        /* \"#utility.yul\":2271:2277   */\n      0x00\n        /* \"#utility.yul\":2305:2310   */\n      dup2\n        /* \"#utility.yul\":2299:2311   */\n      mload\n        /* \"#utility.yul\":2289:2311   */\n      swap1\n      pop\n        /* \"#utility.yul\":2219:2318   */\n      swap2\n      swap1\n      pop\n      jump\t// out\n        /* \"#utility.yul\":2324:2493   */\n    tag_204:\n        /* \"#utility.yul\":2408:2419   */\n      0x00\n        /* \"#utility.yul\":2442:2448   */\n      dup3\n        /* \"#utility.yul\":2437:2440   */\n      dup3\n        /* \"#utility.yul\":2430:2449   */\n      mstore\n        /* \"#utility.yul\":2482:2486   */\n      0x20\n        /* \"#utility.yul\":2477:2480   */\n      dup3\n        /* \"#utility.yul\":2473:2487   */\n      add\n        /* \"#utility.yul\":2458:2487   */\n      swap1\n      pop\n        /* \"#utility.yul\":2324:2493   */\n      swap3\n      swap2\n      pop\n      pop\n      jump\t// out\n        /* \"#utility.yul\":2499:2806   */\n    tag_205:\n        /* \"#utility.yul\":2567:2568   */\n      0x00\n        /* \"#utility.yul\":2577:2690   */\n    tag_304:\n        /* \"#utility.yul\":2591:2597   */\n      dup4\n        /* \"#utility.yul\":2588:2589   */\n      dup2\n        /* \"#utility.yul\":2585:2598   */\n      lt\n        /* \"#utility.yul\":2577:2690   */\n      iszero\n      tag_306\n      jumpi\n        /* \"#utility.yul\":2676:2677   */\n      dup1\n        /* \"#utility.yul\":2671:2674   */\n      dup3\n        /* \"#utility.yul\":2667:2678   */\n      add\n        /* \"#utility.yul\":2661:2679   */\n      mload\n        /* \"#utility.yul\":2657:2658   */\n      dup2\n        /* \"#utility.yul\":2652:2655   */\n      dup5\n        /* \"#utility.yul\":2648:2659   */\n      add\n        /* \"#utility.yul\":2641:2680   */\n      mstore\n        /* \"#utility.yul\":2613:2615   */\n      0x20\n        /* \"#utility.yul\":2610:2611   */\n      dup2\n        /* \"#utility.yul\":2606:2616   */\n      add\n        /* \"#utility.yul\":2601:2616   */\n      swap1\n      pop\n        /* \"#utility.yul\":2577:2690   */\n      jump(tag_304)\n    tag_306:\n        /* \"#utility.yul\":2708:2714   */\n      dup4\n        /* \"#utility.yul\":2705:2706   */\n      dup2\n        /* \"#utility.yul\":2702:2715   */\n      gt\n        /* \"#utility.yul\":2699:2800   */\n      iszero\n      tag_307\n      jumpi\n        /* \"#utility.yul\":2788:2789   */\n      0x00\n        /* \"#utility.yul\":2779:2785   */\n      dup5\n        /* \"#utility.yul\":2774:2777   */\n      dup5\n        /* \"#utility.yul\":2770:2786   */\n      add\n        /* \"#utility.yul\":2763:2790   */\n      mstore\n        /* \"#utility.yul\":2699:2800   */\n    tag_307:\n        /* \"#utility.yul\":2548:2806   */\n      pop\n        /* \"#utility.yul\":2499:2806   */\n      pop\n      pop\n      pop\n      jump\t// out\n        /* \"#utility.yul\":2812:2914   */\n    tag_206:\n        /* \"#utility.yul\":2853:2859   */\n      0x00\n        /* \"#utility.yul\":2904:2906   */\n      0x1f\n        /* \"#utility.yul\":2900:2907   */\n      not\n        /* \"#utility.yul\":2895:2897   */\n      0x1f\n        /* \"#utility.yul\":2888:2893   */\n      dup4\n        /* \"#utility.yul\":2884:2898   */\n      add\n        /* \"#utility.yul\":2880:2908   */\n      and\n        /* \"#utility.yul\":2870:2908   */\n      swap1\n      pop\n        /* \"#utility.yul\":2812:2914   */\n      swap2\n      swap1\n      pop\n      jump\t// out\n        /* \"#utility.yul\":2920:3284   */\n    tag_207:\n        /* \"#utility.yul\":3008:3011   */\n      0x00\n        /* \"#utility.yul\":3036:3075   */\n      tag_310\n        /* \"#utility.yul\":3069:3074   */\n      dup3\n        /* \"#utility.yul\":3036:3075   */\n      tag_203\n      jump\t// in\n    tag_310:\n        /* \"#utility.yul\":3091:3162   */\n      tag_311\n        /* \"#utility.yul\":3155:3161   */\n      dup2\n        /* \"#utility.yul\":3150:3153   */\n      dup6\n        /* \"#utility.yul\":3091:3162   */\n      tag_204\n      jump\t// in\n    tag_311:\n        /* \"#utility.yul\":3084:3162   */\n      swap4\n      pop\n        /* \"#utility.yul\":3171:3223   */\n      tag_312\n        /* \"#utility.yul\":3216:3222   */\n      dup2\n        /* \"#utility.yul\":3211:3214   */\n      dup6\n        /* \"#utility.yul\":3204:3208   */\n      0x20\n        /* \"#utility.yul\":3197:3202   */\n      dup7\n        /* \"#utility.yul\":3193:3209   */\n      add\n        /* \"#utility.yul\":3171:3223   */\n      tag_205\n      jump\t// in\n    tag_312:\n        /* \"#utility.yul\":3248:3277   */\n      tag_313\n        /* \"#utility.yul\":3270:3276   */\n      dup2\n        /* \"#utility.yul\":3248:3277   */\n      tag_206\n      jump\t// in\n    tag_313:\n        /* \"#utility.yul\":3243:3246   */\n      dup5\n        /* \"#utility.yul\":3239:3278   */\n      add\n        /* \"#utility.yul\":3232:3278   */\n      swap2\n      pop\n        /* \"#utility.yul\":3012:3284   */\n      pop\n        /* \"#utility.yul\":2920:3284   */\n      swap3\n      swap2\n      pop\n      pop\n      jump\t// out\n        /* \"#utility.yul\":3290:3603   */\n    tag_36:\n        /* \"#utility.yul\":3403:3407   */\n      0x00\n        /* \"#utility.yul\":3441:3443   */\n      0x20\n        /* \"#utility.yul\":3430:3439   */\n      dup3\n        /* \"#utility.yul\":3426:3444   */\n      add\n        /* \"#utility.yul\":3418:3444   */\n      swap1\n      pop\n        /* \"#utility.yul\":3490:3499   */\n      dup2\n        /* \"#utility.yul\":3484:3488   */\n      dup2\n        /* \"#utility.yul\":3480:3500   */\n      sub\n        /* \"#utility.yul\":3476:3477   */\n      0x00\n        /* \"#utility.yul\":3465:3474   */\n      dup4\n        /* \"#utility.yul\":3461:3478   */\n      add\n        /* \"#utility.yul\":3454:3501   */\n      mstore\n        /* \"#utility.yul\":3518:3596   */\n      tag_315\n        /* \"#utility.yul\":3591:3595   */\n      dup2\n        /* \"#utility.yul\":3582:3588   */\n      dup5\n        /* \"#utility.yul\":3518:3596   */\n      tag_207\n      jump\t// in\n    tag_315:\n        /* \"#utility.yul\":3510:3596   */\n      swap1\n      pop\n        /* \"#utility.yul\":3290:3603   */\n      swap3\n      swap2\n      pop\n      pop\n      jump\t// out\n        /* \"#utility.yul\":3609:3726   */\n    tag_208:\n        /* \"#utility.yul\":3718:3719   */\n      0x00\n        /* \"#utility.yul\":3715:3716   */\n      dup1\n        /* \"#utility.yul\":3708:3720   */\n      revert\n        /* \"#utility.yul\":3732:3849   */\n    tag_209:\n        /* \"#utility.yul\":3841:3842   */\n      0x00\n        /* \"#utility.yul\":3838:3839   */\n      dup1\n        /* \"#utility.yul\":3831:3843   */\n      revert\n        /* \"#utility.yul\":3855:4035   */\n    tag_210:\n        /* \"#utility.yul\":3903:3980   */\n      0x4e487b7100000000000000000000000000000000000000000000000000000000\n        /* \"#utility.yul\":3900:3901   */\n      0x00\n        /* \"#utility.yul\":3893:3981   */\n      mstore\n        /* \"#utility.yul\":4000:4004   */\n      0x41\n        /* \"#utility.yul\":3997:3998   */\n      0x04\n        /* \"#utility.yul\":3990:4005   */\n      mstore\n        /* \"#utility.yul\":4024:4028   */\n      0x24\n        /* \"#utility.yul\":4021:4022   */\n      0x00\n        /* \"#utility.yul\":4014:4029   */\n      revert\n        /* \"#utility.yul\":4041:4322   */\n    tag_211:\n        /* \"#utility.yul\":4124:4151   */\n      tag_320\n        /* \"#utility.yul\":4146:4150   */\n      dup3\n        /* \"#utility.yul\":4124:4151   */\n      tag_206\n      jump\t// in\n    tag_320:\n        /* \"#utility.yul\":4116:4122   */\n      dup2\n        /* \"#utility.yul\":4112:4152   */\n      add\n        /* \"#utility.yul\":4254:4260   */\n      dup2\n        /* \"#utility.yul\":4242:4252   */\n      dup2\n        /* \"#utility.yul\":4239:4261   */\n      lt\n        /* \"#utility.yul\":4218:4236   */\n      0xffffffffffffffff\n        /* \"#utility.yul\":4206:4216   */\n      dup3\n        /* \"#utility.yul\":4203:4237   */\n      gt\n        /* \"#utility.yul\":4200:4262   */\n      or\n        /* \"#utility.yul\":4197:4285   */\n      iszero\n      tag_321\n      jumpi\n        /* \"#utility.yul\":4265:4283   */\n      tag_322\n      tag_210\n      jump\t// in\n    tag_322:\n        /* \"#utility.yul\":4197:4285   */\n    tag_321:\n        /* \"#utility.yul\":4305:4315   */\n      dup1\n        /* \"#utility.yul\":4301:4303   */\n      0x40\n        /* \"#utility.yul\":4294:4316   */\n      mstore\n        /* \"#utility.yul\":4084:4322   */\n      pop\n        /* \"#utility.yul\":4041:4322   */\n      pop\n      pop\n      jump\t// out\n        /* \"#utility.yul\":4328:4457   */\n    tag_212:\n        /* \"#utility.yul\":4362:4368   */\n      0x00\n        /* \"#utility.yul\":4389:4409   */\n      tag_324\n      tag_192\n      jump\t// in\n    tag_324:\n        /* \"#utility.yul\":4379:4409   */\n      swap1\n      pop\n        /* \"#utility.yul\":4418:4451   */\n      tag_325\n        /* \"#utility.yul\":4446:4450   */\n      dup3\n        /* \"#utility.yul\":4438:4444   */\n      dup3\n        /* \"#utility.yul\":4418:4451   */\n      tag_211\n      jump\t// in\n    tag_325:\n        /* \"#utility.yul\":4328:4457   */\n      swap2\n      swap1\n      pop\n      jump\t// out\n        /* \"#utility.yul\":4463:4771   */\n    tag_213:\n        /* \"#utility.yul\":4525:4529   */\n      0x00\n        /* \"#utility.yul\":4615:4633   */\n      0xffffffffffffffff\n        /* \"#utility.yul\":4607:4613   */\n      dup3\n        /* \"#utility.yul\":4604:4634   */\n      gt\n        /* \"#utility.yul\":4601:4657   */\n      iszero\n      tag_327\n      jumpi\n        /* \"#utility.yul\":4637:4655   */\n      tag_328\n      tag_210\n      jump\t// in\n    tag_328:\n        /* \"#utility.yul\":4601:4657   */\n    tag_327:\n        /* \"#utility.yul\":4675:4704   */\n      tag_329\n        /* \"#utility.yul\":4697:4703   */\n      dup3\n        /* \"#utility.yul\":4675:4704   */\n      tag_206\n      jump\t// in\n    tag_329:\n        /* \"#utility.yul\":4667:4704   */\n      swap1\n      pop\n        /* \"#utility.yul\":4759:4763   */\n      0x20\n        /* \"#utility.yul\":4753:4757   */\n      dup2\n        /* \"#utility.yul\":4749:4764   */\n      add\n        /* \"#utility.yul\":4741:4764   */\n      swap1\n      pop\n        /* \"#utility.yul\":4463:4771   */\n      swap2\n      swap1\n      pop\n      jump\t// out\n        /* \"#utility.yul\":4777:4931   */\n    tag_214:\n        /* \"#utility.yul\":4861:4867   */\n      dup3\n        /* \"#utility.yul\":4856:4859   */\n      dup2\n        /* \"#utility.yul\":4851:4854   */\n      dup4\n        /* \"#utility.yul\":4838:4868   */\n      calldatacopy\n        /* \"#utility.yul\":4923:4924   */\n      0x00\n        /* \"#utility.yul\":4914:4920   */\n      dup4\n        /* \"#utility.yul\":4909:4912   */\n      dup4\n        /* \"#utility.yul\":4905:4921   */\n      add\n        /* \"#utility.yul\":4898:4925   */\n      mstore\n        /* \"#utility.yul\":4777:4931   */\n      pop\n      pop\n      pop\n      jump\t// out\n        /* \"#utility.yul\":4937:5349   */\n    tag_215:\n        /* \"#utility.yul\":5015:5020   */\n      0x00\n        /* \"#utility.yul\":5040:5106   */\n      tag_332\n        /* \"#utility.yul\":5056:5105   */\n      tag_333\n        /* \"#utility.yul\":5098:5104   */\n      dup5\n        /* \"#utility.yul\":5056:5105   */\n      tag_213\n      jump\t// in\n    tag_333:\n        /* \"#utility.yul\":5040:5106   */\n      tag_212\n      jump\t// in\n    tag_332:\n        /* \"#utility.yul\":5031:5106   */\n      swap1\n      pop\n        /* \"#utility.yul\":5129:5135   */\n      dup3\n        /* \"#utility.yul\":5122:5127   */\n      dup2\n        /* \"#utility.yul\":5115:5136   */\n      mstore\n        /* \"#utility.yul\":5167:5171   */\n      0x20\n        /* \"#utility.yul\":5160:5165   */\n      dup2\n        /* \"#utility.yul\":5156:5172   */\n      add\n        /* \"#utility.yul\":5205:5208   */\n      dup5\n        /* \"#utility.yul\":5196:5202   */\n      dup5\n        /* \"#utility.yul\":5191:5194   */\n      dup5\n        /* \"#utility.yul\":5187:5203   */\n      add\n        /* \"#utility.yul\":5184:5209   */\n      gt\n        /* \"#utility.yul\":5181:5293   */\n      iszero\n      tag_334\n      jumpi\n        /* \"#utility.yul\":5212:5291   */\n      tag_335\n      tag_209\n      jump\t// in\n    tag_335:\n        /* \"#utility.yul\":5181:5293   */\n    tag_334:\n        /* \"#utility.yul\":5302:5343   */\n      tag_336\n        /* \"#utility.yul\":5336:5342   */\n      dup5\n        /* \"#utility.yul\":5331:5334   */\n      dup3\n        /* \"#utility.yul\":5326:5329   */\n      dup6\n        /* \"#utility.yul\":5302:5343   */\n      tag_214\n      jump\t// in\n    tag_336:\n        /* \"#utility.yul\":5021:5349   */\n      pop\n        /* \"#utility.yul\":4937:5349   */\n      swap4\n      swap3\n      pop\n      pop\n      pop\n      jump\t// out\n        /* \"#utility.yul\":5369:5709   */\n    tag_216:\n        /* \"#utility.yul\":5425:5430   */\n      0x00\n        /* \"#utility.yul\":5474:5477   */\n      dup3\n        /* \"#utility.yul\":5467:5471   */\n      0x1f\n        /* \"#utility.yul\":5459:5465   */\n      dup4\n        /* \"#utility.yul\":5455:5472   */\n      add\n        /* \"#utility.yul\":5451:5478   */\n      slt\n        /* \"#utility.yul\":5441:5563   */\n      tag_338\n      jumpi\n        /* \"#utility.yul\":5482:5561   */\n      tag_339\n      tag_208\n      jump\t// in\n    tag_339:\n        /* \"#utility.yul\":5441:5563   */\n    tag_338:\n        /* \"#utility.yul\":5599:5605   */\n      dup2\n        /* \"#utility.yul\":5586:5606   */\n      calldataload\n        /* \"#utility.yul\":5624:5703   */\n      tag_340\n        /* \"#utility.yul\":5699:5702   */\n      dup5\n        /* \"#utility.yul\":5691:5697   */\n      dup3\n        /* \"#utility.yul\":5684:5688   */\n      0x20\n        /* \"#utility.yul\":5676:5682   */\n      dup7\n        /* \"#utility.yul\":5672:5689   */\n      add\n        /* \"#utility.yul\":5624:5703   */\n      tag_215\n      jump\t// in\n    tag_340:\n        /* \"#utility.yul\":5615:5703   */\n      swap2\n      pop\n        /* \"#utility.yul\":5431:5709   */\n      pop\n        /* \"#utility.yul\":5369:5709   */\n      swap3\n      swap2\n      pop\n      pop\n      jump\t// out\n        /* \"#utility.yul\":5715:6224   */\n    tag_39:\n        /* \"#utility.yul\":5784:5790   */\n      0x00\n        /* \"#utility.yul\":5833:5835   */\n      0x20\n        /* \"#utility.yul\":5821:5830   */\n      dup3\n        /* \"#utility.yul\":5812:5819   */\n      dup5\n        /* \"#utility.yul\":5808:5831   */\n      sub\n        /* \"#utility.yul\":5804:5836   */\n      slt\n        /* \"#utility.yul\":5801:5920   */\n      iszero\n      tag_342\n      jumpi\n        /* \"#utility.yul\":5839:5918   */\n      tag_343\n      tag_193\n      jump\t// in\n    tag_343:\n        /* \"#utility.yul\":5801:5920   */\n    tag_342:\n        /* \"#utility.yul\":5987:5988   */\n      0x00\n        /* \"#utility.yul\":5976:5985   */\n      dup3\n        /* \"#utility.yul\":5972:5989   */\n      add\n        /* \"#utility.yul\":5959:5990   */\n      calldataload\n        /* \"#utility.yul\":6017:6035   */\n      0xffffffffffffffff\n        /* \"#utility.yul\":6009:6015   */\n      dup2\n        /* \"#utility.yul\":6006:6036   */\n      gt\n        /* \"#utility.yul\":6003:6120   */\n      iszero\n      tag_344\n      jumpi\n        /* \"#utility.yul\":6039:6118   */\n      tag_345\n      tag_194\n      jump\t// in\n    tag_345:\n        /* \"#utility.yul\":6003:6120   */\n    tag_344:\n        /* \"#utility.yul\":6144:6207   */\n      tag_346\n        /* \"#utility.yul\":6199:6206   */\n      dup5\n        /* \"#utility.yul\":6190:6196   */\n      dup3\n        /* \"#utility.yul\":6179:6188   */\n      dup6\n        /* \"#utility.yul\":6175:6197   */\n      add\n        /* \"#utility.yul\":6144:6207   */\n      tag_216\n      jump\t// in\n    tag_346:\n        /* \"#utility.yul\":6134:6207   */\n      swap2\n      pop\n        /* \"#utility.yul\":5930:6217   */\n      pop\n        /* \"#utility.yul\":5715:6224   */\n      swap3\n      swap2\n      pop\n      pop\n      jump\t// out\n        /* \"#utility.yul\":6230:6320   */\n    tag_217:\n        /* \"#utility.yul\":6264:6271   */\n      0x00\n        /* \"#utility.yul\":6307:6312   */\n      dup2\n        /* \"#utility.yul\":6300:6313   */\n      iszero\n        /* \"#utility.yul\":6293:6314   */\n      iszero\n        /* \"#utility.yul\":6282:6314   */\n      swap1\n      pop\n        /* \"#utility.yul\":6230:6320   */\n      swap2\n      swap1\n      pop\n      jump\t// out\n        /* \"#utility.yul\":6326:6435   */\n    tag_218:\n        /* \"#utility.yul\":6407:6428   */\n      tag_349\n        /* \"#utility.yul\":6422:6427   */\n      dup2\n        /* \"#utility.yul\":6407:6428   */\n      tag_217\n      jump\t// in\n    tag_349:\n        /* \"#utility.yul\":6402:6405   */\n      dup3\n        /* \"#utility.yul\":6395:6429   */\n      mstore\n        /* \"#utility.yul\":6326:6435   */\n      pop\n      pop\n      jump\t// out\n        /* \"#utility.yul\":6441:6859   */\n    tag_45:\n        /* \"#utility.yul\":6578:6582   */\n      0x00\n        /* \"#utility.yul\":6616:6618   */\n      0x60\n        /* \"#utility.yul\":6605:6614   */\n      dup3\n        /* \"#utility.yul\":6601:6619   */\n      add\n        /* \"#utility.yul\":6593:6619   */\n      swap1\n      pop\n        /* \"#utility.yul\":6629:6694   */\n      tag_351\n        /* \"#utility.yul\":6691:6692   */\n      0x00\n        /* \"#utility.yul\":6680:6689   */\n      dup4\n        /* \"#utility.yul\":6676:6693   */\n      add\n        /* \"#utility.yul\":6667:6673   */\n      dup7\n        /* \"#utility.yul\":6629:6694   */\n      tag_218\n      jump\t// in\n    tag_351:\n        /* \"#utility.yul\":6704:6770   */\n      tag_352\n        /* \"#utility.yul\":6766:6768   */\n      0x20\n        /* \"#utility.yul\":6755:6764   */\n      dup4\n        /* \"#utility.yul\":6751:6769   */\n      add\n        /* \"#utility.yul\":6742:6748   */\n      dup6\n        /* \"#utility.yul\":6704:6770   */\n      tag_218\n      jump\t// in\n    tag_352:\n        /* \"#utility.yul\":6780:6852   */\n      tag_353\n        /* \"#utility.yul\":6848:6850   */\n      0x40\n        /* \"#utility.yul\":6837:6846   */\n      dup4\n        /* \"#utility.yul\":6833:6851   */\n      add\n        /* \"#utility.yul\":6824:6830   */\n      dup5\n        /* \"#utility.yul\":6780:6852   */\n      tag_200\n      jump\t// in\n    tag_353:\n        /* \"#utility.yul\":6441:6859   */\n      swap5\n      swap4\n      pop\n      pop\n      pop\n      pop\n      jump\t// out\n        /* \"#utility.yul\":6865:6983   */\n    tag_219:\n        /* \"#utility.yul\":6952:6976   */\n      tag_355\n        /* \"#utility.yul\":6970:6975   */\n      dup2\n        /* \"#utility.yul\":6952:6976   */\n      tag_195\n      jump\t// in\n    tag_355:\n        /* \"#utility.yul\":6947:6950   */\n      dup3\n        /* \"#utility.yul\":6940:6977   */\n      mstore\n        /* \"#utility.yul\":6865:6983   */\n      pop\n      pop\n      jump\t// out\n        /* \"#utility.yul\":6989:7211   */\n    tag_52:\n        /* \"#utility.yul\":7082:7086   */\n      0x00\n        /* \"#utility.yul\":7120:7122   */\n      0x20\n        /* \"#utility.yul\":7109:7118   */\n      dup3\n        /* \"#utility.yul\":7105:7123   */\n      add\n        /* \"#utility.yul\":7097:7123   */\n      swap1\n      pop\n        /* \"#utility.yul\":7133:7204   */\n      tag_357\n        /* \"#utility.yul\":7201:7202   */\n      0x00\n        /* \"#utility.yul\":7190:7199   */\n      dup4\n        /* \"#utility.yul\":7186:7203   */\n      add\n        /* \"#utility.yul\":7177:7183   */\n      dup5\n        /* \"#utility.yul\":7133:7204   */\n      tag_219\n      jump\t// in\n    tag_357:\n        /* \"#utility.yul\":6989:7211   */\n      swap3\n      swap2\n      pop\n      pop\n      jump\t// out\n        /* \"#utility.yul\":7217:7640   */\n    tag_59:\n        /* \"#utility.yul\":7358:7362   */\n      0x00\n        /* \"#utility.yul\":7396:7398   */\n      0x40\n        /* \"#utility.yul\":7385:7394   */\n      dup3\n        /* \"#utility.yul\":7381:7399   */\n      add\n        /* \"#utility.yul\":7373:7399   */\n      swap1\n      pop\n        /* \"#utility.yul\":7409:7480   */\n      tag_359\n        /* \"#utility.yul\":7477:7478   */\n      0x00\n        /* \"#utility.yul\":7466:7475   */\n      dup4\n        /* \"#utility.yul\":7462:7479   */\n      add\n        /* \"#utility.yul\":7453:7459   */\n      dup6\n        /* \"#utility.yul\":7409:7480   */\n      tag_219\n      jump\t// in\n    tag_359:\n        /* \"#utility.yul\":7527:7536   */\n      dup2\n        /* \"#utility.yul\":7521:7525   */\n      dup2\n        /* \"#utility.yul\":7517:7537   */\n      sub\n        /* \"#utility.yul\":7512:7514   */\n      0x20\n        /* \"#utility.yul\":7501:7510   */\n      dup4\n        /* \"#utility.yul\":7497:7515   */\n      add\n        /* \"#utility.yul\":7490:7538   */\n      mstore\n        /* \"#utility.yul\":7555:7633   */\n      tag_360\n        /* \"#utility.yul\":7628:7632   */\n      dup2\n        /* \"#utility.yul\":7619:7625   */\n      dup5\n        /* \"#utility.yul\":7555:7633   */\n      tag_207\n      jump\t// in\n    tag_360:\n        /* \"#utility.yul\":7547:7633   */\n      swap1\n      pop\n        /* \"#utility.yul\":7217:7640   */\n      swap4\n      swap3\n      pop\n      pop\n      pop\n      jump\t// out\n        /* \"#utility.yul\":7646:7805   */\n    tag_220:\n        /* \"#utility.yul\":7720:7731   */\n      0x00\n        /* \"#utility.yul\":7754:7760   */\n      dup3\n        /* \"#utility.yul\":7749:7752   */\n      dup3\n        /* \"#utility.yul\":7742:7761   */\n      mstore\n        /* \"#utility.yul\":7794:7798   */\n      0x20\n        /* \"#utility.yul\":7789:7792   */\n      dup3\n        /* \"#utility.yul\":7785:7799   */\n      add\n        /* \"#utility.yul\":7770:7799   */\n      swap1\n      pop\n        /* \"#utility.yul\":7646:7805   */\n      swap3\n      swap2\n      pop\n      pop\n      jump\t// out\n        /* \"#utility.yul\":7811:8155   */\n    tag_221:\n        /* \"#utility.yul\":7889:7892   */\n      0x00\n        /* \"#utility.yul\":7917:7956   */\n      tag_363\n        /* \"#utility.yul\":7950:7955   */\n      dup3\n        /* \"#utility.yul\":7917:7956   */\n      tag_203\n      jump\t// in\n    tag_363:\n        /* \"#utility.yul\":7972:8033   */\n      tag_364\n        /* \"#utility.yul\":8026:8032   */\n      dup2\n        /* \"#utility.yul\":8021:8024   */\n      dup6\n        /* \"#utility.yul\":7972:8033   */\n      tag_220\n      jump\t// in\n    tag_364:\n        /* \"#utility.yul\":7965:8033   */\n      swap4\n      pop\n        /* \"#utility.yul\":8042:8094   */\n      tag_365\n        /* \"#utility.yul\":8087:8093   */\n      dup2\n        /* \"#utility.yul\":8082:8085   */\n      dup6\n        /* \"#utility.yul\":8075:8079   */\n      0x20\n        /* \"#utility.yul\":8068:8073   */\n      dup7\n        /* \"#utility.yul\":8064:8080   */\n      add\n        /* \"#utility.yul\":8042:8094   */\n      tag_205\n      jump\t// in\n    tag_365:\n        /* \"#utility.yul\":8119:8148   */\n      tag_366\n        /* \"#utility.yul\":8141:8147   */\n      dup2\n        /* \"#utility.yul\":8119:8148   */\n      tag_206\n      jump\t// in\n    tag_366:\n        /* \"#utility.yul\":8114:8117   */\n      dup5\n        /* \"#utility.yul\":8110:8149   */\n      add\n        /* \"#utility.yul\":8103:8149   */\n      swap2\n      pop\n        /* \"#utility.yul\":7893:8155   */\n      pop\n        /* \"#utility.yul\":7811:8155   */\n      swap3\n      swap2\n      pop\n      pop\n      jump\t// out\n        /* \"#utility.yul\":8161:8269   */\n    tag_222:\n        /* \"#utility.yul\":8238:8262   */\n      tag_368\n        /* \"#utility.yul\":8256:8261   */\n      dup2\n        /* \"#utility.yul\":8238:8262   */\n      tag_195\n      jump\t// in\n    tag_368:\n        /* \"#utility.yul\":8233:8236   */\n      dup3\n        /* \"#utility.yul\":8226:8263   */\n      mstore\n        /* \"#utility.yul\":8161:8269   */\n      pop\n      pop\n      jump\t// out\n        /* \"#utility.yul\":8353:8957   */\n    tag_223:\n        /* \"#utility.yul\":8460:8463   */\n      0x00\n        /* \"#utility.yul\":8496:8500   */\n      0x40\n        /* \"#utility.yul\":8491:8494   */\n      dup4\n        /* \"#utility.yul\":8487:8501   */\n      add\n        /* \"#utility.yul\":8588:8592   */\n      0x00\n        /* \"#utility.yul\":8581:8586   */\n      dup4\n        /* \"#utility.yul\":8577:8593   */\n      add\n        /* \"#utility.yul\":8571:8594   */\n      mload\n        /* \"#utility.yul\":8607:8670   */\n      tag_370\n        /* \"#utility.yul\":8664:8668   */\n      0x00\n        /* \"#utility.yul\":8659:8662   */\n      dup7\n        /* \"#utility.yul\":8655:8669   */\n      add\n        /* \"#utility.yul\":8641:8653   */\n      dup3\n        /* \"#utility.yul\":8607:8670   */\n      tag_222\n      jump\t// in\n    tag_370:\n        /* \"#utility.yul\":8511:8680   */\n      pop\n        /* \"#utility.yul\":8767:8771   */\n      0x20\n        /* \"#utility.yul\":8760:8765   */\n      dup4\n        /* \"#utility.yul\":8756:8772   */\n      add\n        /* \"#utility.yul\":8750:8773   */\n      mload\n        /* \"#utility.yul\":8820:8823   */\n      dup5\n        /* \"#utility.yul\":8814:8818   */\n      dup3\n        /* \"#utility.yul\":8810:8824   */\n      sub\n        /* \"#utility.yul\":8803:8807   */\n      0x20\n        /* \"#utility.yul\":8798:8801   */\n      dup7\n        /* \"#utility.yul\":8794:8808   */\n      add\n        /* \"#utility.yul\":8787:8825   */\n      mstore\n        /* \"#utility.yul\":8846:8919   */\n      tag_371\n        /* \"#utility.yul\":8914:8918   */\n      dup3\n        /* \"#utility.yul\":8900:8912   */\n      dup3\n        /* \"#utility.yul\":8846:8919   */\n      tag_221\n      jump\t// in\n    tag_371:\n        /* \"#utility.yul\":8838:8919   */\n      swap2\n      pop\n        /* \"#utility.yul\":8690:8930   */\n      pop\n        /* \"#utility.yul\":8947:8951   */\n      dup1\n        /* \"#utility.yul\":8940:8951   */\n      swap2\n      pop\n        /* \"#utility.yul\":8465:8957   */\n      pop\n        /* \"#utility.yul\":8353:8957   */\n      swap3\n      swap2\n      pop\n      pop\n      jump\t// out\n        /* \"#utility.yul\":8963:9097   */\n    tag_224:\n        /* \"#utility.yul\":9050:9056   */\n      0x00\n        /* \"#utility.yul\":9084:9089   */\n      dup2\n        /* \"#utility.yul\":9078:9090   */\n      mload\n        /* \"#utility.yul\":9068:9090   */\n      swap1\n      pop\n        /* \"#utility.yul\":8963:9097   */\n      swap2\n      swap1\n      pop\n      jump\t// out\n        /* \"#utility.yul\":9103:9297   */\n    tag_225:\n        /* \"#utility.yul\":9212:9223   */\n      0x00\n        /* \"#utility.yul\":9246:9252   */\n      dup3\n        /* \"#utility.yul\":9241:9244   */\n      dup3\n        /* \"#utility.yul\":9234:9253   */\n      mstore\n        /* \"#utility.yul\":9286:9290   */\n      0x20\n        /* \"#utility.yul\":9281:9284   */\n      dup3\n        /* \"#utility.yul\":9277:9291   */\n      add\n        /* \"#utility.yul\":9262:9291   */\n      swap1\n      pop\n        /* \"#utility.yul\":9103:9297   */\n      swap3\n      swap2\n      pop\n      pop\n      jump\t// out\n        /* \"#utility.yul\":9303:9455   */\n    tag_226:\n        /* \"#utility.yul\":9390:9394   */\n      0x00\n        /* \"#utility.yul\":9413:9416   */\n      dup2\n        /* \"#utility.yul\":9405:9416   */\n      swap1\n      pop\n        /* \"#utility.yul\":9443:9447   */\n      0x20\n        /* \"#utility.yul\":9438:9441   */\n      dup3\n        /* \"#utility.yul\":9434:9448   */\n      add\n        /* \"#utility.yul\":9426:9448   */\n      swap1\n      pop\n        /* \"#utility.yul\":9303:9455   */\n      swap2\n      swap1\n      pop\n      jump\t// out\n        /* \"#utility.yul\":9461:9560   */\n    tag_227:\n        /* \"#utility.yul\":9532:9553   */\n      tag_376\n        /* \"#utility.yul\":9547:9552   */\n      dup2\n        /* \"#utility.yul\":9532:9553   */\n      tag_217\n      jump\t// in\n    tag_376:\n        /* \"#utility.yul\":9527:9530   */\n      dup3\n        /* \"#utility.yul\":9520:9554   */\n      mstore\n        /* \"#utility.yul\":9461:9560   */\n      pop\n      pop\n      jump\t// out\n        /* \"#utility.yul\":9566:9674   */\n    tag_228:\n        /* \"#utility.yul\":9643:9667   */\n      tag_378\n        /* \"#utility.yul\":9661:9666   */\n      dup2\n        /* \"#utility.yul\":9643:9667   */\n      tag_199\n      jump\t// in\n    tag_378:\n        /* \"#utility.yul\":9638:9641   */\n      dup3\n        /* \"#utility.yul\":9631:9668   */\n      mstore\n        /* \"#utility.yul\":9566:9674   */\n      pop\n      pop\n      jump\t// out\n        /* \"#utility.yul\":9752:10407   */\n    tag_229:\n        /* \"#utility.yul\":9879:9883   */\n      0x60\n        /* \"#utility.yul\":9874:9877   */\n      dup3\n        /* \"#utility.yul\":9870:9884   */\n      add\n        /* \"#utility.yul\":9967:9971   */\n      0x00\n        /* \"#utility.yul\":9960:9965   */\n      dup3\n        /* \"#utility.yul\":9956:9972   */\n      add\n        /* \"#utility.yul\":9950:9973   */\n      mload\n        /* \"#utility.yul\":9986:10043   */\n      tag_380\n        /* \"#utility.yul\":10037:10041   */\n      0x00\n        /* \"#utility.yul\":10032:10035   */\n      dup6\n        /* \"#utility.yul\":10028:10042   */\n      add\n        /* \"#utility.yul\":10014:10026   */\n      dup3\n        /* \"#utility.yul\":9986:10043   */\n      tag_227\n      jump\t// in\n    tag_380:\n        /* \"#utility.yul\":9894:10053   */\n      pop\n        /* \"#utility.yul\":10140:10144   */\n      0x20\n        /* \"#utility.yul\":10133:10138   */\n      dup3\n        /* \"#utility.yul\":10129:10145   */\n      add\n        /* \"#utility.yul\":10123:10146   */\n      mload\n        /* \"#utility.yul\":10159:10222   */\n      tag_381\n        /* \"#utility.yul\":10216:10220   */\n      0x20\n        /* \"#utility.yul\":10211:10214   */\n      dup6\n        /* \"#utility.yul\":10207:10221   */\n      add\n        /* \"#utility.yul\":10193:10205   */\n      dup3\n        /* \"#utility.yul\":10159:10222   */\n      tag_228\n      jump\t// in\n    tag_381:\n        /* \"#utility.yul\":10063:10232   */\n      pop\n        /* \"#utility.yul\":10314:10318   */\n      0x40\n        /* \"#utility.yul\":10307:10312   */\n      dup3\n        /* \"#utility.yul\":10303:10319   */\n      add\n        /* \"#utility.yul\":10297:10320   */\n      mload\n        /* \"#utility.yul\":10333:10390   */\n      tag_382\n        /* \"#utility.yul\":10384:10388   */\n      0x40\n        /* \"#utility.yul\":10379:10382   */\n      dup6\n        /* \"#utility.yul\":10375:10389   */\n      add\n        /* \"#utility.yul\":10361:10373   */\n      dup3\n        /* \"#utility.yul\":10333:10390   */\n      tag_227\n      jump\t// in\n    tag_382:\n        /* \"#utility.yul\":10242:10400   */\n      pop\n        /* \"#utility.yul\":9848:10407   */\n      pop\n        /* \"#utility.yul\":9752:10407   */\n      pop\n      pop\n      jump\t// out\n        /* \"#utility.yul\":10413:10672   */\n    tag_230:\n        /* \"#utility.yul\":10522:10532   */\n      0x00\n        /* \"#utility.yul\":10543:10629   */\n      tag_384\n        /* \"#utility.yul\":10625:10628   */\n      dup4\n        /* \"#utility.yul\":10617:10623   */\n      dup4\n        /* \"#utility.yul\":10543:10629   */\n      tag_229\n      jump\t// in\n    tag_384:\n        /* \"#utility.yul\":10661:10665   */\n      0x60\n        /* \"#utility.yul\":10656:10659   */\n      dup4\n        /* \"#utility.yul\":10652:10666   */\n      add\n        /* \"#utility.yul\":10638:10666   */\n      swap1\n      pop\n        /* \"#utility.yul\":10413:10672   */\n      swap3\n      swap2\n      pop\n      pop\n      jump\t// out\n        /* \"#utility.yul\":10678:10811   */\n    tag_231:\n        /* \"#utility.yul\":10768:10772   */\n      0x00\n        /* \"#utility.yul\":10800:10804   */\n      0x20\n        /* \"#utility.yul\":10795:10798   */\n      dup3\n        /* \"#utility.yul\":10791:10805   */\n      add\n        /* \"#utility.yul\":10783:10805   */\n      swap1\n      pop\n        /* \"#utility.yul\":10678:10811   */\n      swap2\n      swap1\n      pop\n      jump\t// out\n        /* \"#utility.yul\":10893:11765   */\n    tag_232:\n        /* \"#utility.yul\":11042:11045   */\n      0x00\n        /* \"#utility.yul\":11071:11145   */\n      tag_387\n        /* \"#utility.yul\":11139:11144   */\n      dup3\n        /* \"#utility.yul\":11071:11145   */\n      tag_224\n      jump\t// in\n    tag_387:\n        /* \"#utility.yul\":11161:11257   */\n      tag_388\n        /* \"#utility.yul\":11250:11256   */\n      dup2\n        /* \"#utility.yul\":11245:11248   */\n      dup6\n        /* \"#utility.yul\":11161:11257   */\n      tag_225\n      jump\t// in\n    tag_388:\n        /* \"#utility.yul\":11154:11257   */\n      swap4\n      pop\n        /* \"#utility.yul\":11281:11357   */\n      tag_389\n        /* \"#utility.yul\":11351:11356   */\n      dup4\n        /* \"#utility.yul\":11281:11357   */\n      tag_226\n      jump\t// in\n    tag_389:\n        /* \"#utility.yul\":11380:11387   */\n      dup1\n        /* \"#utility.yul\":11411:11412   */\n      0x00\n        /* \"#utility.yul\":11396:11740   */\n    tag_390:\n        /* \"#utility.yul\":11421:11427   */\n      dup4\n        /* \"#utility.yul\":11418:11419   */\n      dup2\n        /* \"#utility.yul\":11415:11428   */\n      lt\n        /* \"#utility.yul\":11396:11740   */\n      iszero\n      tag_392\n      jumpi\n        /* \"#utility.yul\":11497:11503   */\n      dup2\n        /* \"#utility.yul\":11491:11504   */\n      mload\n        /* \"#utility.yul\":11524:11627   */\n      tag_393\n        /* \"#utility.yul\":11623:11626   */\n      dup9\n        /* \"#utility.yul\":11608:11621   */\n      dup3\n        /* \"#utility.yul\":11524:11627   */\n      tag_230\n      jump\t// in\n    tag_393:\n        /* \"#utility.yul\":11517:11627   */\n      swap8\n      pop\n        /* \"#utility.yul\":11650:11730   */\n      tag_394\n        /* \"#utility.yul\":11723:11729   */\n      dup4\n        /* \"#utility.yul\":11650:11730   */\n      tag_231\n      jump\t// in\n    tag_394:\n        /* \"#utility.yul\":11640:11730   */\n      swap3\n      pop\n        /* \"#utility.yul\":11456:11740   */\n      pop\n        /* \"#utility.yul\":11443:11444   */\n      0x01\n        /* \"#utility.yul\":11440:11441   */\n      dup2\n        /* \"#utility.yul\":11436:11445   */\n      add\n        /* \"#utility.yul\":11431:11445   */\n      swap1\n      pop\n        /* \"#utility.yul\":11396:11740   */\n      jump(tag_390)\n    tag_392:\n        /* \"#utility.yul\":11400:11414   */\n      pop\n        /* \"#utility.yul\":11756:11759   */\n      dup6\n        /* \"#utility.yul\":11749:11759   */\n      swap4\n      pop\n        /* \"#utility.yul\":11047:11765   */\n      pop\n      pop\n      pop\n        /* \"#utility.yul\":10893:11765   */\n      swap3\n      swap2\n      pop\n      pop\n      jump\t// out\n        /* \"#utility.yul\":11845:12880   */\n    tag_233:\n        /* \"#utility.yul\":11958:11961   */\n      0x00\n        /* \"#utility.yul\":11994:11998   */\n      0x60\n        /* \"#utility.yul\":11989:11992   */\n      dup4\n        /* \"#utility.yul\":11985:11999   */\n      add\n        /* \"#utility.yul\":12084:12088   */\n      0x00\n        /* \"#utility.yul\":12077:12082   */\n      dup4\n        /* \"#utility.yul\":12073:12089   */\n      add\n        /* \"#utility.yul\":12067:12090   */\n      mload\n        /* \"#utility.yul\":12137:12140   */\n      dup5\n        /* \"#utility.yul\":12131:12135   */\n      dup3\n        /* \"#utility.yul\":12127:12141   */\n      sub\n        /* \"#utility.yul\":12120:12124   */\n      0x00\n        /* \"#utility.yul\":12115:12118   */\n      dup7\n        /* \"#utility.yul\":12111:12125   */\n      add\n        /* \"#utility.yul\":12104:12142   */\n      mstore\n        /* \"#utility.yul\":12163:12236   */\n      tag_396\n        /* \"#utility.yul\":12231:12235   */\n      dup3\n        /* \"#utility.yul\":12217:12229   */\n      dup3\n        /* \"#utility.yul\":12163:12236   */\n      tag_221\n      jump\t// in\n    tag_396:\n        /* \"#utility.yul\":12155:12236   */\n      swap2\n      pop\n        /* \"#utility.yul\":12009:12247   */\n      pop\n        /* \"#utility.yul\":12341:12345   */\n      0x20\n        /* \"#utility.yul\":12334:12339   */\n      dup4\n        /* \"#utility.yul\":12330:12346   */\n      add\n        /* \"#utility.yul\":12324:12347   */\n      mload\n        /* \"#utility.yul\":12394:12397   */\n      dup5\n        /* \"#utility.yul\":12388:12392   */\n      dup3\n        /* \"#utility.yul\":12384:12398   */\n      sub\n        /* \"#utility.yul\":12377:12381   */\n      0x20\n        /* \"#utility.yul\":12372:12375   */\n      dup7\n        /* \"#utility.yul\":12368:12382   */\n      add\n        /* \"#utility.yul\":12361:12399   */\n      mstore\n        /* \"#utility.yul\":12420:12521   */\n      tag_397\n        /* \"#utility.yul\":12516:12520   */\n      dup3\n        /* \"#utility.yul\":12502:12514   */\n      dup3\n        /* \"#utility.yul\":12420:12521   */\n      tag_223\n      jump\t// in\n    tag_397:\n        /* \"#utility.yul\":12412:12521   */\n      swap2\n      pop\n        /* \"#utility.yul\":12257:12532   */\n      pop\n        /* \"#utility.yul\":12620:12624   */\n      0x40\n        /* \"#utility.yul\":12613:12618   */\n      dup4\n        /* \"#utility.yul\":12609:12625   */\n      add\n        /* \"#utility.yul\":12603:12626   */\n      mload\n        /* \"#utility.yul\":12673:12676   */\n      dup5\n        /* \"#utility.yul\":12667:12671   */\n      dup3\n        /* \"#utility.yul\":12663:12677   */\n      sub\n        /* \"#utility.yul\":12656:12660   */\n      0x40\n        /* \"#utility.yul\":12651:12654   */\n      dup7\n        /* \"#utility.yul\":12647:12661   */\n      add\n        /* \"#utility.yul\":12640:12678   */\n      mstore\n        /* \"#utility.yul\":12699:12842   */\n      tag_398\n        /* \"#utility.yul\":12837:12841   */\n      dup3\n        /* \"#utility.yul\":12823:12835   */\n      dup3\n        /* \"#utility.yul\":12699:12842   */\n      tag_232\n      jump\t// in\n    tag_398:\n        /* \"#utility.yul\":12691:12842   */\n      swap2\n      pop\n        /* \"#utility.yul\":12542:12853   */\n      pop\n        /* \"#utility.yul\":12870:12874   */\n      dup1\n        /* \"#utility.yul\":12863:12874   */\n      swap2\n      pop\n        /* \"#utility.yul\":11963:12880   */\n      pop\n        /* \"#utility.yul\":11845:12880   */\n      swap3\n      swap2\n      pop\n      pop\n      jump\t// out\n        /* \"#utility.yul\":12886:13247   */\n    tag_65:\n        /* \"#utility.yul\":13023:13027   */\n      0x00\n        /* \"#utility.yul\":13061:13063   */\n      0x20\n        /* \"#utility.yul\":13050:13059   */\n      dup3\n        /* \"#utility.yul\":13046:13064   */\n      add\n        /* \"#utility.yul\":13038:13064   */\n      swap1\n      pop\n        /* \"#utility.yul\":13110:13119   */\n      dup2\n        /* \"#utility.yul\":13104:13108   */\n      dup2\n        /* \"#utility.yul\":13100:13120   */\n      sub\n        /* \"#utility.yul\":13096:13097   */\n      0x00\n        /* \"#utility.yul\":13085:13094   */\n      dup4\n        /* \"#utility.yul\":13081:13098   */\n      add\n        /* \"#utility.yul\":13074:13121   */\n      mstore\n        /* \"#utility.yul\":13138:13240   */\n      tag_400\n        /* \"#utility.yul\":13235:13239   */\n      dup2\n        /* \"#utility.yul\":13226:13232   */\n      dup5\n        /* \"#utility.yul\":13138:13240   */\n      tag_233\n      jump\t// in\n    tag_400:\n        /* \"#utility.yul\":13130:13240   */\n      swap1\n      pop\n        /* \"#utility.yul\":12886:13247   */\n      swap3\n      swap2\n      pop\n      pop\n      jump\t// out\n        /* \"#utility.yul\":13253:13671   */\n    tag_70:\n        /* \"#utility.yul\":13390:13394   */\n      0x00\n        /* \"#utility.yul\":13428:13430   */\n      0x60\n        /* \"#utility.yul\":13417:13426   */\n      dup3\n        /* \"#utility.yul\":13413:13431   */\n      add\n        /* \"#utility.yul\":13405:13431   */\n      swap1\n      pop\n        /* \"#utility.yul\":13441:13506   */\n      tag_402\n        /* \"#utility.yul\":13503:13504   */\n      0x00\n        /* \"#utility.yul\":13492:13501   */\n      dup4\n        /* \"#utility.yul\":13488:13505   */\n      add\n        /* \"#utility.yul\":13479:13485   */\n      dup7\n        /* \"#utility.yul\":13441:13506   */\n      tag_218\n      jump\t// in\n    tag_402:\n        /* \"#utility.yul\":13516:13588   */\n      tag_403\n        /* \"#utility.yul\":13584:13586   */\n      0x20\n        /* \"#utility.yul\":13573:13582   */\n      dup4\n        /* \"#utility.yul\":13569:13587   */\n      add\n        /* \"#utility.yul\":13560:13566   */\n      dup6\n        /* \"#utility.yul\":13516:13588   */\n      tag_200\n      jump\t// in\n    tag_403:\n        /* \"#utility.yul\":13598:13664   */\n      tag_404\n        /* \"#utility.yul\":13660:13662   */\n      0x40\n        /* \"#utility.yul\":13649:13658   */\n      dup4\n        /* \"#utility.yul\":13645:13663   */\n      add\n        /* \"#utility.yul\":13636:13642   */\n      dup5\n        /* \"#utility.yul\":13598:13664   */\n      tag_218\n      jump\t// in\n    tag_404:\n        /* \"#utility.yul\":13253:13671   */\n      swap5\n      swap4\n      pop\n      pop\n      pop\n      pop\n      jump\t// out\n        /* \"#utility.yul\":13677:14432   */\n    tag_74:\n        /* \"#utility.yul\":13902:13906   */\n      0x00\n        /* \"#utility.yul\":13940:13943   */\n      0xa0\n        /* \"#utility.yul\":13929:13938   */\n      dup3\n        /* \"#utility.yul\":13925:13944   */\n      add\n        /* \"#utility.yul\":13917:13944   */\n      swap1\n      pop\n        /* \"#utility.yul\":13990:13999   */\n      dup2\n        /* \"#utility.yul\":13984:13988   */\n      dup2\n        /* \"#utility.yul\":13980:14000   */\n      sub\n        /* \"#utility.yul\":13976:13977   */\n      0x00\n        /* \"#utility.yul\":13965:13974   */\n      dup4\n        /* \"#utility.yul\":13961:13978   */\n      add\n        /* \"#utility.yul\":13954:14001   */\n      mstore\n        /* \"#utility.yul\":14018:14096   */\n      tag_406\n        /* \"#utility.yul\":14091:14095   */\n      dup2\n        /* \"#utility.yul\":14082:14088   */\n      dup9\n        /* \"#utility.yul\":14018:14096   */\n      tag_207\n      jump\t// in\n    tag_406:\n        /* \"#utility.yul\":14010:14096   */\n      swap1\n      pop\n        /* \"#utility.yul\":14106:14178   */\n      tag_407\n        /* \"#utility.yul\":14174:14176   */\n      0x20\n        /* \"#utility.yul\":14163:14172   */\n      dup4\n        /* \"#utility.yul\":14159:14177   */\n      add\n        /* \"#utility.yul\":14150:14156   */\n      dup8\n        /* \"#utility.yul\":14106:14178   */\n      tag_219\n      jump\t// in\n    tag_407:\n        /* \"#utility.yul\":14188:14260   */\n      tag_408\n        /* \"#utility.yul\":14256:14258   */\n      0x40\n        /* \"#utility.yul\":14245:14254   */\n      dup4\n        /* \"#utility.yul\":14241:14259   */\n      add\n        /* \"#utility.yul\":14232:14238   */\n      dup7\n        /* \"#utility.yul\":14188:14260   */\n      tag_200\n      jump\t// in\n    tag_408:\n        /* \"#utility.yul\":14270:14342   */\n      tag_409\n        /* \"#utility.yul\":14338:14340   */\n      0x60\n        /* \"#utility.yul\":14327:14336   */\n      dup4\n        /* \"#utility.yul\":14323:14341   */\n      add\n        /* \"#utility.yul\":14314:14320   */\n      dup6\n        /* \"#utility.yul\":14270:14342   */\n      tag_219\n      jump\t// in\n    tag_409:\n        /* \"#utility.yul\":14352:14425   */\n      tag_410\n        /* \"#utility.yul\":14420:14423   */\n      0x80\n        /* \"#utility.yul\":14409:14418   */\n      dup4\n        /* \"#utility.yul\":14405:14424   */\n      add\n        /* \"#utility.yul\":14396:14402   */\n      dup5\n        /* \"#utility.yul\":14352:14425   */\n      tag_219\n      jump\t// in\n    tag_410:\n        /* \"#utility.yul\":13677:14432   */\n      swap7\n      swap6\n      pop\n      pop\n      pop\n      pop\n      pop\n      pop\n      jump\t// out\n        /* \"#utility.yul\":14438:14665   */\n    tag_234:\n        /* \"#utility.yul\":14578:14612   */\n      0x4f6e6c7920696e69746961746f722063616e2072656769737465722061207265\n        /* \"#utility.yul\":14574:14575   */\n      0x00\n        /* \"#utility.yul\":14566:14572   */\n      dup3\n        /* \"#utility.yul\":14562:14576   */\n      add\n        /* \"#utility.yul\":14555:14613   */\n      mstore\n        /* \"#utility.yul\":14647:14657   */\n      0x63697069656e742e000000000000000000000000000000000000000000000000\n        /* \"#utility.yul\":14642:14644   */\n      0x20\n        /* \"#utility.yul\":14634:14640   */\n      dup3\n        /* \"#utility.yul\":14630:14645   */\n      add\n        /* \"#utility.yul\":14623:14658   */\n      mstore\n        /* \"#utility.yul\":14438:14665   */\n      pop\n      jump\t// out\n        /* \"#utility.yul\":14671:15037   */\n    tag_235:\n        /* \"#utility.yul\":14813:14816   */\n      0x00\n        /* \"#utility.yul\":14834:14901   */\n      tag_413\n        /* \"#utility.yul\":14898:14900   */\n      0x28\n        /* \"#utility.yul\":14893:14896   */\n      dup4\n        /* \"#utility.yul\":14834:14901   */\n      tag_204\n      jump\t// in\n    tag_413:\n        /* \"#utility.yul\":14827:14901   */\n      swap2\n      pop\n        /* \"#utility.yul\":14910:15003   */\n      tag_414\n        /* \"#utility.yul\":14999:15002   */\n      dup3\n        /* \"#utility.yul\":14910:15003   */\n      tag_234\n      jump\t// in\n    tag_414:\n        /* \"#utility.yul\":15028:15030   */\n      0x40\n        /* \"#utility.yul\":15023:15026   */\n      dup3\n        /* \"#utility.yul\":15019:15031   */\n      add\n        /* \"#utility.yul\":15012:15031   */\n      swap1\n      pop\n        /* \"#utility.yul\":14671:15037   */\n      swap2\n      swap1\n      pop\n      jump\t// out\n        /* \"#utility.yul\":15043:15462   */\n    tag_93:\n        /* \"#utility.yul\":15209:15213   */\n      0x00\n        /* \"#utility.yul\":15247:15249   */\n      0x20\n        /* \"#utility.yul\":15236:15245   */\n      dup3\n        /* \"#utility.yul\":15232:15250   */\n      add\n        /* \"#utility.yul\":15224:15250   */\n      swap1\n      pop\n        /* \"#utility.yul\":15296:15305   */\n      dup2\n        /* \"#utility.yul\":15290:15294   */\n      dup2\n        /* \"#utility.yul\":15286:15306   */\n      sub\n        /* \"#utility.yul\":15282:15283   */\n      0x00\n        /* \"#utility.yul\":15271:15280   */\n      dup4\n        /* \"#utility.yul\":15267:15284   */\n      add\n        /* \"#utility.yul\":15260:15307   */\n      mstore\n        /* \"#utility.yul\":15324:15455   */\n      tag_416\n        /* \"#utility.yul\":15450:15454   */\n      dup2\n        /* \"#utility.yul\":15324:15455   */\n      tag_235\n      jump\t// in\n    tag_416:\n        /* \"#utility.yul\":15316:15455   */\n      swap1\n      pop\n        /* \"#utility.yul\":15043:15462   */\n      swap2\n      swap1\n      pop\n      jump\t// out\n        /* \"#utility.yul\":15468:15639   */\n    tag_236:\n        /* \"#utility.yul\":15608:15631   */\n      0x496e69746961746f722063616e277420766f7465210000000000000000000000\n        /* \"#utility.yul\":15604:15605   */\n      0x00\n        /* \"#utility.yul\":15596:15602   */\n      dup3\n        /* \"#utility.yul\":15592:15606   */\n      add\n        /* \"#utility.yul\":15585:15632   */\n      mstore\n        /* \"#utility.yul\":15468:15639   */\n      pop\n      jump\t// out\n        /* \"#utility.yul\":15645:16011   */\n    tag_237:\n        /* \"#utility.yul\":15787:15790   */\n      0x00\n        /* \"#utility.yul\":15808:15875   */\n      tag_419\n        /* \"#utility.yul\":15872:15874   */\n      0x15\n        /* \"#utility.yul\":15867:15870   */\n      dup4\n        /* \"#utility.yul\":15808:15875   */\n      tag_204\n      jump\t// in\n    tag_419:\n        /* \"#utility.yul\":15801:15875   */\n      swap2\n      pop\n        /* \"#utility.yul\":15884:15977   */\n      tag_420\n        /* \"#utility.yul\":15973:15976   */\n      dup3\n        /* \"#utility.yul\":15884:15977   */\n      tag_236\n      jump\t// in\n    tag_420:\n        /* \"#utility.yul\":16002:16004   */\n      0x20\n        /* \"#utility.yul\":15997:16000   */\n      dup3\n        /* \"#utility.yul\":15993:16005   */\n      add\n        /* \"#utility.yul\":15986:16005   */\n      swap1\n      pop\n        /* \"#utility.yul\":15645:16011   */\n      swap2\n      swap1\n      pop\n      jump\t// out\n        /* \"#utility.yul\":16017:16436   */\n    tag_96:\n        /* \"#utility.yul\":16183:16187   */\n      0x00\n        /* \"#utility.yul\":16221:16223   */\n      0x20\n        /* \"#utility.yul\":16210:16219   */\n      dup3\n        /* \"#utility.yul\":16206:16224   */\n      add\n        /* \"#utility.yul\":16198:16224   */\n      swap1\n      pop\n        /* \"#utility.yul\":16270:16279   */\n      dup2\n        /* \"#utility.yul\":16264:16268   */\n      dup2\n        /* \"#utility.yul\":16260:16280   */\n      sub\n        /* \"#utility.yul\":16256:16257   */\n      0x00\n        /* \"#utility.yul\":16245:16254   */\n      dup4\n        /* \"#utility.yul\":16241:16258   */\n      add\n        /* \"#utility.yul\":16234:16281   */\n      mstore\n        /* \"#utility.yul\":16298:16429   */\n      tag_422\n        /* \"#utility.yul\":16424:16428   */\n      dup2\n        /* \"#utility.yul\":16298:16429   */\n      tag_237\n      jump\t// in\n    tag_422:\n        /* \"#utility.yul\":16290:16429   */\n      swap1\n      pop\n        /* \"#utility.yul\":16017:16436   */\n      swap2\n      swap1\n      pop\n      jump\t// out\n        /* \"#utility.yul\":16442:16623   */\n    tag_238:\n        /* \"#utility.yul\":16582:16615   */\n      0x526563697069656e7420697320616c7265616479207265676973746572656400\n        /* \"#utility.yul\":16578:16579   */\n      0x00\n        /* \"#utility.yul\":16570:16576   */\n      dup3\n        /* \"#utility.yul\":16566:16580   */\n      add\n        /* \"#utility.yul\":16559:16616   */\n      mstore\n        /* \"#utility.yul\":16442:16623   */\n      pop\n      jump\t// out\n        /* \"#utility.yul\":16629:16995   */\n    tag_239:\n        /* \"#utility.yul\":16771:16774   */\n      0x00\n        /* \"#utility.yul\":16792:16859   */\n      tag_425\n        /* \"#utility.yul\":16856:16858   */\n      0x1f\n        /* \"#utility.yul\":16851:16854   */\n      dup4\n        /* \"#utility.yul\":16792:16859   */\n      tag_204\n      jump\t// in\n    tag_425:\n        /* \"#utility.yul\":16785:16859   */\n      swap2\n      pop\n        /* \"#utility.yul\":16868:16961   */\n      tag_426\n        /* \"#utility.yul\":16957:16960   */\n      dup3\n        /* \"#utility.yul\":16868:16961   */\n      tag_238\n      jump\t// in\n    tag_426:\n        /* \"#utility.yul\":16986:16988   */\n      0x20\n        /* \"#utility.yul\":16981:16984   */\n      dup3\n        /* \"#utility.yul\":16977:16989   */\n      add\n        /* \"#utility.yul\":16970:16989   */\n      swap1\n      pop\n        /* \"#utility.yul\":16629:16995   */\n      swap2\n      swap1\n      pop\n      jump\t// out\n        /* \"#utility.yul\":17001:17420   */\n    tag_99:\n        /* \"#utility.yul\":17167:17171   */\n      0x00\n        /* \"#utility.yul\":17205:17207   */\n      0x20\n        /* \"#utility.yul\":17194:17203   */\n      dup3\n        /* \"#utility.yul\":17190:17208   */\n      add\n        /* \"#utility.yul\":17182:17208   */\n      swap1\n      pop\n        /* \"#utility.yul\":17254:17263   */\n      dup2\n        /* \"#utility.yul\":17248:17252   */\n      dup2\n        /* \"#utility.yul\":17244:17264   */\n      sub\n        /* \"#utility.yul\":17240:17241   */\n      0x00\n        /* \"#utility.yul\":17229:17238   */\n      dup4\n        /* \"#utility.yul\":17225:17242   */\n      add\n        /* \"#utility.yul\":17218:17265   */\n      mstore\n        /* \"#utility.yul\":17282:17413   */\n      tag_428\n        /* \"#utility.yul\":17408:17412   */\n      dup2\n        /* \"#utility.yul\":17282:17413   */\n      tag_239\n      jump\t// in\n    tag_428:\n        /* \"#utility.yul\":17274:17413   */\n      swap1\n      pop\n        /* \"#utility.yul\":17001:17420   */\n      swap2\n      swap1\n      pop\n      jump\t// out\n        /* \"#utility.yul\":17426:17649   */\n    tag_240:\n        /* \"#utility.yul\":17566:17600   */\n      0x50726f706f73616c206861732072656163686564206974732065787069727920\n        /* \"#utility.yul\":17562:17563   */\n      0x00\n        /* \"#utility.yul\":17554:17560   */\n      dup3\n        /* \"#utility.yul\":17550:17564   */\n      add\n        /* \"#utility.yul\":17543:17601   */\n      mstore\n        /* \"#utility.yul\":17635:17641   */\n      0x6461746500000000000000000000000000000000000000000000000000000000\n        /* \"#utility.yul\":17630:17632   */\n      0x20\n        /* \"#utility.yul\":17622:17628   */\n      dup3\n        /* \"#utility.yul\":17618:17633   */\n      add\n        /* \"#utility.yul\":17611:17642   */\n      mstore\n        /* \"#utility.yul\":17426:17649   */\n      pop\n      jump\t// out\n        /* \"#utility.yul\":17655:18021   */\n    tag_241:\n        /* \"#utility.yul\":17797:17800   */\n      0x00\n        /* \"#utility.yul\":17818:17885   */\n      tag_431\n        /* \"#utility.yul\":17882:17884   */\n      0x24\n        /* \"#utility.yul\":17877:17880   */\n      dup4\n        /* \"#utility.yul\":17818:17885   */\n      tag_204\n      jump\t// in\n    tag_431:\n        /* \"#utility.yul\":17811:17885   */\n      swap2\n      pop\n        /* \"#utility.yul\":17894:17987   */\n      tag_432\n        /* \"#utility.yul\":17983:17986   */\n      dup3\n        /* \"#utility.yul\":17894:17987   */\n      tag_240\n      jump\t// in\n    tag_432:\n        /* \"#utility.yul\":18012:18014   */\n      0x40\n        /* \"#utility.yul\":18007:18010   */\n      dup3\n        /* \"#utility.yul\":18003:18015   */\n      add\n        /* \"#utility.yul\":17996:18015   */\n      swap1\n      pop\n        /* \"#utility.yul\":17655:18021   */\n      swap2\n      swap1\n      pop\n      jump\t// out\n        /* \"#utility.yul\":18027:18446   */\n    tag_102:\n        /* \"#utility.yul\":18193:18197   */\n      0x00\n        /* \"#utility.yul\":18231:18233   */\n      0x20\n        /* \"#utility.yul\":18220:18229   */\n      dup3\n        /* \"#utility.yul\":18216:18234   */\n      add\n        /* \"#utility.yul\":18208:18234   */\n      swap1\n      pop\n        /* \"#utility.yul\":18280:18289   */\n      dup2\n        /* \"#utility.yul\":18274:18278   */\n      dup2\n        /* \"#utility.yul\":18270:18290   */\n      sub\n        /* \"#utility.yul\":18266:18267   */\n      0x00\n        /* \"#utility.yul\":18255:18264   */\n      dup4\n        /* \"#utility.yul\":18251:18268   */\n      add\n        /* \"#utility.yul\":18244:18291   */\n      mstore\n        /* \"#utility.yul\":18308:18439   */\n      tag_434\n        /* \"#utility.yul\":18434:18438   */\n      dup2\n        /* \"#utility.yul\":18308:18439   */\n      tag_241\n      jump\t// in\n    tag_434:\n        /* \"#utility.yul\":18300:18439   */\n      swap1\n      pop\n        /* \"#utility.yul\":18027:18446   */\n      swap2\n      swap1\n      pop\n      jump\t// out\n        /* \"#utility.yul\":18452:18632   */\n    tag_242:\n        /* \"#utility.yul\":18500:18577   */\n      0x4e487b7100000000000000000000000000000000000000000000000000000000\n        /* \"#utility.yul\":18497:18498   */\n      0x00\n        /* \"#utility.yul\":18490:18578   */\n      mstore\n        /* \"#utility.yul\":18597:18601   */\n      0x22\n        /* \"#utility.yul\":18594:18595   */\n      0x04\n        /* \"#utility.yul\":18587:18602   */\n      mstore\n        /* \"#utility.yul\":18621:18625   */\n      0x24\n        /* \"#utility.yul\":18618:18619   */\n      0x00\n        /* \"#utility.yul\":18611:18626   */\n      revert\n        /* \"#utility.yul\":18638:18958   */\n    tag_106:\n        /* \"#utility.yul\":18682:18688   */\n      0x00\n        /* \"#utility.yul\":18719:18720   */\n      0x02\n        /* \"#utility.yul\":18713:18717   */\n      dup3\n        /* \"#utility.yul\":18709:18721   */\n      div\n        /* \"#utility.yul\":18699:18721   */\n      swap1\n      pop\n        /* \"#utility.yul\":18766:18767   */\n      0x01\n        /* \"#utility.yul\":18760:18764   */\n      dup3\n        /* \"#utility.yul\":18756:18768   */\n      and\n        /* \"#utility.yul\":18787:18805   */\n      dup1\n        /* \"#utility.yul\":18777:18858   */\n      tag_437\n      jumpi\n        /* \"#utility.yul\":18843:18847   */\n      0x7f\n        /* \"#utility.yul\":18835:18841   */\n      dup3\n        /* \"#utility.yul\":18831:18848   */\n      and\n        /* \"#utility.yul\":18821:18848   */\n      swap2\n      pop\n        /* \"#utility.yul\":18777:18858   */\n    tag_437:\n        /* \"#utility.yul\":18905:18907   */\n      0x20\n        /* \"#utility.yul\":18897:18903   */\n      dup3\n        /* \"#utility.yul\":18894:18908   */\n      lt\n        /* \"#utility.yul\":18874:18892   */\n      dup2\n        /* \"#utility.yul\":18871:18909   */\n      sub\n        /* \"#utility.yul\":18868:18952   */\n      tag_438\n      jumpi\n        /* \"#utility.yul\":18924:18942   */\n      tag_439\n      tag_242\n      jump\t// in\n    tag_439:\n        /* \"#utility.yul\":18868:18952   */\n    tag_438:\n        /* \"#utility.yul\":18689:18958   */\n      pop\n        /* \"#utility.yul\":18638:18958   */\n      swap2\n      swap1\n      pop\n      jump\t// out\n        /* \"#utility.yul\":18964:19132   */\n    tag_243:\n        /* \"#utility.yul\":19104:19124   */\n      0x566f74696e672068617320657870697265640000000000000000000000000000\n        /* \"#utility.yul\":19100:19101   */\n      0x00\n        /* \"#utility.yul\":19092:19098   */\n      dup3\n        /* \"#utility.yul\":19088:19102   */\n      add\n        /* \"#utility.yul\":19081:19125   */\n      mstore\n        /* \"#utility.yul\":18964:19132   */\n      pop\n      jump\t// out\n        /* \"#utility.yul\":19138:19504   */\n    tag_244:\n        /* \"#utility.yul\":19280:19283   */\n      0x00\n        /* \"#utility.yul\":19301:19368   */\n      tag_442\n        /* \"#utility.yul\":19365:19367   */\n      0x12\n        /* \"#utility.yul\":19360:19363   */\n      dup4\n        /* \"#utility.yul\":19301:19368   */\n      tag_204\n      jump\t// in\n    tag_442:\n        /* \"#utility.yul\":19294:19368   */\n      swap2\n      pop\n        /* \"#utility.yul\":19377:19470   */\n      tag_443\n        /* \"#utility.yul\":19466:19469   */\n      dup3\n        /* \"#utility.yul\":19377:19470   */\n      tag_243\n      jump\t// in\n    tag_443:\n        /* \"#utility.yul\":19495:19497   */\n      0x20\n        /* \"#utility.yul\":19490:19493   */\n      dup3\n        /* \"#utility.yul\":19486:19498   */\n      add\n        /* \"#utility.yul\":19479:19498   */\n      swap1\n      pop\n        /* \"#utility.yul\":19138:19504   */\n      swap2\n      swap1\n      pop\n      jump\t// out\n        /* \"#utility.yul\":19510:19929   */\n    tag_114:\n        /* \"#utility.yul\":19676:19680   */\n      0x00\n        /* \"#utility.yul\":19714:19716   */\n      0x20\n        /* \"#utility.yul\":19703:19712   */\n      dup3\n        /* \"#utility.yul\":19699:19717   */\n      add\n        /* \"#utility.yul\":19691:19717   */\n      swap1\n      pop\n        /* \"#utility.yul\":19763:19772   */\n      dup2\n        /* \"#utility.yul\":19757:19761   */\n      dup2\n        /* \"#utility.yul\":19753:19773   */\n      sub\n        /* \"#utility.yul\":19749:19750   */\n      0x00\n        /* \"#utility.yul\":19738:19747   */\n      dup4\n        /* \"#utility.yul\":19734:19751   */\n      add\n        /* \"#utility.yul\":19727:19774   */\n      mstore\n        /* \"#utility.yul\":19791:19922   */\n      tag_445\n        /* \"#utility.yul\":19917:19921   */\n      dup2\n        /* \"#utility.yul\":19791:19922   */\n      tag_244\n      jump\t// in\n    tag_445:\n        /* \"#utility.yul\":19783:19922   */\n      swap1\n      pop\n        /* \"#utility.yul\":19510:19929   */\n      swap2\n      swap1\n      pop\n      jump\t// out\n        /* \"#utility.yul\":19935:20115   */\n    tag_245:\n        /* \"#utility.yul\":20075:20107   */\n      0x596f7520617265206e6f74207265676973746572656420746f20766f74650000\n        /* \"#utility.yul\":20071:20072   */\n      0x00\n        /* \"#utility.yul\":20063:20069   */\n      dup3\n        /* \"#utility.yul\":20059:20073   */\n      add\n        /* \"#utility.yul\":20052:20108   */\n      mstore\n        /* \"#utility.yul\":19935:20115   */\n      pop\n      jump\t// out\n        /* \"#utility.yul\":20121:20487   */\n    tag_246:\n        /* \"#utility.yul\":20263:20266   */\n      0x00\n        /* \"#utility.yul\":20284:20351   */\n      tag_448\n        /* \"#utility.yul\":20348:20350   */\n      0x1e\n        /* \"#utility.yul\":20343:20346   */\n      dup4\n        /* \"#utility.yul\":20284:20351   */\n      tag_204\n      jump\t// in\n    tag_448:\n        /* \"#utility.yul\":20277:20351   */\n      swap2\n      pop\n        /* \"#utility.yul\":20360:20453   */\n      tag_449\n        /* \"#utility.yul\":20449:20452   */\n      dup3\n        /* \"#utility.yul\":20360:20453   */\n      tag_245\n      jump\t// in\n    tag_449:\n        /* \"#utility.yul\":20478:20480   */\n      0x20\n        /* \"#utility.yul\":20473:20476   */\n      dup3\n        /* \"#utility.yul\":20469:20481   */\n      add\n        /* \"#utility.yul\":20462:20481   */\n      swap1\n      pop\n        /* \"#utility.yul\":20121:20487   */\n      swap2\n      swap1\n      pop\n      jump\t// out\n        /* \"#utility.yul\":20493:20912   */\n    tag_117:\n        /* \"#utility.yul\":20659:20663   */\n      0x00\n        /* \"#utility.yul\":20697:20699   */\n      0x20\n        /* \"#utility.yul\":20686:20695   */\n      dup3\n        /* \"#utility.yul\":20682:20700   */\n      add\n        /* \"#utility.yul\":20674:20700   */\n      swap1\n      pop\n        /* \"#utility.yul\":20746:20755   */\n      dup2\n        /* \"#utility.yul\":20740:20744   */\n      dup2\n        /* \"#utility.yul\":20736:20756   */\n      sub\n        /* \"#utility.yul\":20732:20733   */\n      0x00\n        /* \"#utility.yul\":20721:20730   */\n      dup4\n        /* \"#utility.yul\":20717:20734   */\n      add\n        /* \"#utility.yul\":20710:20757   */\n      mstore\n        /* \"#utility.yul\":20774:20905   */\n      tag_451\n        /* \"#utility.yul\":20900:20904   */\n      dup2\n        /* \"#utility.yul\":20774:20905   */\n      tag_246\n      jump\t// in\n    tag_451:\n        /* \"#utility.yul\":20766:20905   */\n      swap1\n      pop\n        /* \"#utility.yul\":20493:20912   */\n      swap2\n      swap1\n      pop\n      jump\t// out\n        /* \"#utility.yul\":20918:21096   */\n    tag_247:\n        /* \"#utility.yul\":21058:21088   */\n      0x596f7520616c72656164792073656e74206120726573706f6e73652e00000000\n        /* \"#utility.yul\":21054:21055   */\n      0x00\n        /* \"#utility.yul\":21046:21052   */\n      dup3\n        /* \"#utility.yul\":21042:21056   */\n      add\n        /* \"#utility.yul\":21035:21089   */\n      mstore\n        /* \"#utility.yul\":20918:21096   */\n      pop\n      jump\t// out\n        /* \"#utility.yul\":21102:21468   */\n    tag_248:\n        /* \"#utility.yul\":21244:21247   */\n      0x00\n        /* \"#utility.yul\":21265:21332   */\n      tag_454\n        /* \"#utility.yul\":21329:21331   */\n      0x1c\n        /* \"#utility.yul\":21324:21327   */\n      dup4\n        /* \"#utility.yul\":21265:21332   */\n      tag_204\n      jump\t// in\n    tag_454:\n        /* \"#utility.yul\":21258:21332   */\n      swap2\n      pop\n        /* \"#utility.yul\":21341:21434   */\n      tag_455\n        /* \"#utility.yul\":21430:21433   */\n      dup3\n        /* \"#utility.yul\":21341:21434   */\n      tag_247\n      jump\t// in\n    tag_455:\n        /* \"#utility.yul\":21459:21461   */\n      0x20\n        /* \"#utility.yul\":21454:21457   */\n      dup3\n        /* \"#utility.yul\":21450:21462   */\n      add\n        /* \"#utility.yul\":21443:21462   */\n      swap1\n      pop\n        /* \"#utility.yul\":21102:21468   */\n      swap2\n      swap1\n      pop\n      jump\t// out\n        /* \"#utility.yul\":21474:21893   */\n    tag_120:\n        /* \"#utility.yul\":21640:21644   */\n      0x00\n        /* \"#utility.yul\":21678:21680   */\n      0x20\n        /* \"#utility.yul\":21667:21676   */\n      dup3\n        /* \"#utility.yul\":21663:21681   */\n      add\n        /* \"#utility.yul\":21655:21681   */\n      swap1\n      pop\n        /* \"#utility.yul\":21727:21736   */\n      dup2\n        /* \"#utility.yul\":21721:21725   */\n      dup2\n        /* \"#utility.yul\":21717:21737   */\n      sub\n        /* \"#utility.yul\":21713:21714   */\n      0x00\n        /* \"#utility.yul\":21702:21711   */\n      dup4\n        /* \"#utility.yul\":21698:21715   */\n      add\n        /* \"#utility.yul\":21691:21738   */\n      mstore\n        /* \"#utility.yul\":21755:21886   */\n      tag_457\n        /* \"#utility.yul\":21881:21885   */\n      dup2\n        /* \"#utility.yul\":21755:21886   */\n      tag_248\n      jump\t// in\n    tag_457:\n        /* \"#utility.yul\":21747:21886   */\n      swap1\n      pop\n        /* \"#utility.yul\":21474:21893   */\n      swap2\n      swap1\n      pop\n      jump\t// out\n        /* \"#utility.yul\":21899:22079   */\n    tag_249:\n        /* \"#utility.yul\":21947:22024   */\n      0x4e487b7100000000000000000000000000000000000000000000000000000000\n        /* \"#utility.yul\":21944:21945   */\n      0x00\n        /* \"#utility.yul\":21937:22025   */\n      mstore\n        /* \"#utility.yul\":22044:22048   */\n      0x11\n        /* \"#utility.yul\":22041:22042   */\n      0x04\n        /* \"#utility.yul\":22034:22049   */\n      mstore\n        /* \"#utility.yul\":22068:22072   */\n      0x24\n        /* \"#utility.yul\":22065:22066   */\n      0x00\n        /* \"#utility.yul\":22058:22073   */\n      revert\n        /* \"#utility.yul\":22085:22390   */\n    tag_123:\n        /* \"#utility.yul\":22125:22128   */\n      0x00\n        /* \"#utility.yul\":22144:22164   */\n      tag_460\n        /* \"#utility.yul\":22162:22163   */\n      dup3\n        /* \"#utility.yul\":22144:22164   */\n      tag_195\n      jump\t// in\n    tag_460:\n        /* \"#utility.yul\":22139:22164   */\n      swap2\n      pop\n        /* \"#utility.yul\":22178:22198   */\n      tag_461\n        /* \"#utility.yul\":22196:22197   */\n      dup4\n        /* \"#utility.yul\":22178:22198   */\n      tag_195\n      jump\t// in\n    tag_461:\n        /* \"#utility.yul\":22173:22198   */\n      swap3\n      pop\n        /* \"#utility.yul\":22332:22333   */\n      dup3\n        /* \"#utility.yul\":22264:22330   */\n      0xffffffffffffffffffffffffffffffffffffffffffffffffffffffffffffffff\n        /* \"#utility.yul\":22260:22334   */\n      sub\n        /* \"#utility.yul\":22257:22258   */\n      dup3\n        /* \"#utility.yul\":22254:22335   */\n      gt\n        /* \"#utility.yul\":22251:22358   */\n      iszero\n      tag_462\n      jumpi\n        /* \"#utility.yul\":22338:22356   */\n      tag_463\n      tag_249\n      jump\t// in\n    tag_463:\n        /* \"#utility.yul\":22251:22358   */\n    tag_462:\n        /* \"#utility.yul\":22382:22383   */\n      dup3\n        /* \"#utility.yul\":22379:22380   */\n      dup3\n        /* \"#utility.yul\":22375:22384   */\n      add\n        /* \"#utility.yul\":22368:22384   */\n      swap1\n      pop\n        /* \"#utility.yul\":22085:22390   */\n      swap3\n      swap2\n      pop\n      pop\n      jump\t// out\n        /* \"#utility.yul\":22396:22578   */\n    tag_250:\n        /* \"#utility.yul\":22536:22570   */\n      0x5665726469637420686173206e6f74206265656e207265616368656420796574\n        /* \"#utility.yul\":22532:22533   */\n      0x00\n        /* \"#utility.yul\":22524:22530   */\n      dup3\n        /* \"#utility.yul\":22520:22534   */\n      add\n        /* \"#utility.yul\":22513:22571   */\n      mstore\n        /* \"#utility.yul\":22396:22578   */\n      pop\n      jump\t// out\n        /* \"#utility.yul\":22584:22950   */\n    tag_251:\n        /* \"#utility.yul\":22726:22729   */\n      0x00\n        /* \"#utility.yul\":22747:22814   */\n      tag_466\n        /* \"#utility.yul\":22811:22813   */\n      0x20\n        /* \"#utility.yul\":22806:22809   */\n      dup4\n        /* \"#utility.yul\":22747:22814   */\n      tag_204\n      jump\t// in\n    tag_466:\n        /* \"#utility.yul\":22740:22814   */\n      swap2\n      pop\n        /* \"#utility.yul\":22823:22916   */\n      tag_467\n        /* \"#utility.yul\":22912:22915   */\n      dup3\n        /* \"#utility.yul\":22823:22916   */\n      tag_250\n      jump\t// in\n    tag_467:\n        /* \"#utility.yul\":22941:22943   */\n      0x20\n        /* \"#utility.yul\":22936:22939   */\n      dup3\n        /* \"#utility.yul\":22932:22944   */\n      add\n        /* \"#utility.yul\":22925:22944   */\n      swap1\n      pop\n        /* \"#utility.yul\":22584:22950   */\n      swap2\n      swap1\n      pop\n      jump\t// out\n        /* \"#utility.yul\":22956:23375   */\n    tag_139:\n        /* \"#utility.yul\":23122:23126   */\n      0x00\n        /* \"#utility.yul\":23160:23162   */\n      0x20\n        /* \"#utility.yul\":23149:23158   */\n      dup3\n        /* \"#utility.yul\":23145:23163   */\n      add\n        /* \"#utility.yul\":23137:23163   */\n      swap1\n      pop\n        /* \"#utility.yul\":23209:23218   */\n      dup2\n        /* \"#utility.yul\":23203:23207   */\n      dup2\n        /* \"#utility.yul\":23199:23219   */\n      sub\n        /* \"#utility.yul\":23195:23196   */\n      0x00\n        /* \"#utility.yul\":23184:23193   */\n      dup4\n        /* \"#utility.yul\":23180:23197   */\n      add\n        /* \"#utility.yul\":23173:23220   */\n      mstore\n        /* \"#utility.yul\":23237:23368   */\n      tag_469\n        /* \"#utility.yul\":23363:23367   */\n      dup2\n        /* \"#utility.yul\":23237:23368   */\n      tag_251\n      jump\t// in\n    tag_469:\n        /* \"#utility.yul\":23229:23368   */\n      swap1\n      pop\n        /* \"#utility.yul\":22956:23375   */\n      swap2\n      swap1\n      pop\n      jump\t// out\n        /* \"#utility.yul\":23381:23605   */\n    tag_252:\n        /* \"#utility.yul\":23521:23555   */\n      0x436f6e73656e7375732068617320616c7265616479206265656e2063616c6375\n        /* \"#utility.yul\":23517:23518   */\n      0x00\n        /* \"#utility.yul\":23509:23515   */\n      dup3\n        /* \"#utility.yul\":23505:23519   */\n      add\n        /* \"#utility.yul\":23498:23556   */\n      mstore\n        /* \"#utility.yul\":23590:23597   */\n      0x6c61746564000000000000000000000000000000000000000000000000000000\n        /* \"#utility.yul\":23585:23587   */\n      0x20\n        /* \"#utility.yul\":23577:23583   */\n      dup3\n        /* \"#utility.yul\":23573:23588   */\n      add\n        /* \"#utility.yul\":23566:23598   */\n      mstore\n        /* \"#utility.yul\":23381:23605   */\n      pop\n      jump\t// out\n        /* \"#utility.yul\":23611:23977   */\n    tag_253:\n        /* \"#utility.yul\":23753:23756   */\n      0x00\n        /* \"#utility.yul\":23774:23841   */\n      tag_472\n        /* \"#utility.yul\":23838:23840   */\n      0x25\n        /* \"#utility.yul\":23833:23836   */\n      dup4\n        /* \"#utility.yul\":23774:23841   */\n      tag_204\n      jump\t// in\n    tag_472:\n        /* \"#utility.yul\":23767:23841   */\n      swap2\n      pop\n        /* \"#utility.yul\":23850:23943   */\n      tag_473\n        /* \"#utility.yul\":23939:23942   */\n      dup3\n        /* \"#utility.yul\":23850:23943   */\n      tag_252\n      jump\t// in\n    tag_473:\n        /* \"#utility.yul\":23968:23970   */\n      0x40\n        /* \"#utility.yul\":23963:23966   */\n      dup3\n        /* \"#utility.yul\":23959:23971   */\n      add\n        /* \"#utility.yul\":23952:23971   */\n      swap1\n      pop\n        /* \"#utility.yul\":23611:23977   */\n      swap2\n      swap1\n      pop\n      jump\t// out\n        /* \"#utility.yul\":23983:24402   */\n    tag_142:\n        /* \"#utility.yul\":24149:24153   */\n      0x00\n        /* \"#utility.yul\":24187:24189   */\n      0x20\n        /* \"#utility.yul\":24176:24185   */\n      dup3\n        /* \"#utility.yul\":24172:24190   */\n      add\n        /* \"#utility.yul\":24164:24190   */\n      swap1\n      pop\n        /* \"#utility.yul\":24236:24245   */\n      dup2\n        /* \"#utility.yul\":24230:24234   */\n      dup2\n        /* \"#utility.yul\":24226:24246   */\n      sub\n        /* \"#utility.yul\":24222:24223   */\n      0x00\n        /* \"#utility.yul\":24211:24220   */\n      dup4\n        /* \"#utility.yul\":24207:24224   */\n      add\n        /* \"#utility.yul\":24200:24247   */\n      mstore\n        /* \"#utility.yul\":24264:24395   */\n      tag_475\n        /* \"#utility.yul\":24390:24394   */\n      dup2\n        /* \"#utility.yul\":24264:24395   */\n      tag_253\n      jump\t// in\n    tag_475:\n        /* \"#utility.yul\":24256:24395   */\n      swap1\n      pop\n        /* \"#utility.yul\":23983:24402   */\n      swap2\n      swap1\n      pop\n      jump\t// out\n        /* \"#utility.yul\":24408:24588   */\n    tag_254:\n        /* \"#utility.yul\":24456:24533   */\n      0x4e487b7100000000000000000000000000000000000000000000000000000000\n        /* \"#utility.yul\":24453:24454   */\n      0x00\n        /* \"#utility.yul\":24446:24534   */\n      mstore\n        /* \"#utility.yul\":24553:24557   */\n      0x12\n        /* \"#utility.yul\":24550:24551   */\n      0x04\n        /* \"#utility.yul\":24543:24558   */\n      mstore\n        /* \"#utility.yul\":24577:24581   */\n      0x24\n        /* \"#utility.yul\":24574:24575   */\n      0x00\n        /* \"#utility.yul\":24567:24582   */\n      revert\n        /* \"#utility.yul\":24594:24779   */\n    tag_144:\n        /* \"#utility.yul\":24634:24635   */\n      0x00\n        /* \"#utility.yul\":24651:24671   */\n      tag_478\n        /* \"#utility.yul\":24669:24670   */\n      dup3\n        /* \"#utility.yul\":24651:24671   */\n      tag_195\n      jump\t// in\n    tag_478:\n        /* \"#utility.yul\":24646:24671   */\n      swap2\n      pop\n        /* \"#utility.yul\":24685:24705   */\n      tag_479\n        /* \"#utility.yul\":24703:24704   */\n      dup4\n        /* \"#utility.yul\":24685:24705   */\n      tag_195\n      jump\t// in\n    tag_479:\n        /* \"#utility.yul\":24680:24705   */\n      swap3\n      pop\n        /* \"#utility.yul\":24724:24725   */\n      dup3\n        /* \"#utility.yul\":24714:24749   */\n      tag_480\n      jumpi\n        /* \"#utility.yul\":24729:24747   */\n      tag_481\n      tag_254\n      jump\t// in\n    tag_481:\n        /* \"#utility.yul\":24714:24749   */\n    tag_480:\n        /* \"#utility.yul\":24771:24772   */\n      dup3\n        /* \"#utility.yul\":24768:24769   */\n      dup3\n        /* \"#utility.yul\":24764:24773   */\n      div\n        /* \"#utility.yul\":24759:24773   */\n      swap1\n      pop\n        /* \"#utility.yul\":24594:24779   */\n      swap3\n      swap2\n      pop\n      pop\n      jump\t// out\n        /* \"#utility.yul\":24785:25133   */\n    tag_146:\n        /* \"#utility.yul\":24825:24832   */\n      0x00\n        /* \"#utility.yul\":24848:24868   */\n      tag_483\n        /* \"#utility.yul\":24866:24867   */\n      dup3\n        /* \"#utility.yul\":24848:24868   */\n      tag_195\n      jump\t// in\n    tag_483:\n        /* \"#utility.yul\":24843:24868   */\n      swap2\n      pop\n        /* \"#utility.yul\":24882:24902   */\n      tag_484\n        /* \"#utility.yul\":24900:24901   */\n      dup4\n        /* \"#utility.yul\":24882:24902   */\n      tag_195\n      jump\t// in\n    tag_484:\n        /* \"#utility.yul\":24877:24902   */\n      swap3\n      pop\n        /* \"#utility.yul\":25070:25071   */\n      dup2\n        /* \"#utility.yul\":25002:25068   */\n      0xffffffffffffffffffffffffffffffffffffffffffffffffffffffffffffffff\n        /* \"#utility.yul\":24998:25072   */\n      div\n        /* \"#utility.yul\":24995:24996   */\n      dup4\n        /* \"#utility.yul\":24992:25073   */\n      gt\n        /* \"#utility.yul\":24987:24988   */\n      dup3\n        /* \"#utility.yul\":24980:24989   */\n      iszero\n        /* \"#utility.yul\":24973:24990   */\n      iszero\n        /* \"#utility.yul\":24969:25074   */\n      and\n        /* \"#utility.yul\":24966:25097   */\n      iszero\n      tag_485\n      jumpi\n        /* \"#utility.yul\":25077:25095   */\n      tag_486\n      tag_249\n      jump\t// in\n    tag_486:\n        /* \"#utility.yul\":24966:25097   */\n    tag_485:\n        /* \"#utility.yul\":25125:25126   */\n      dup3\n        /* \"#utility.yul\":25122:25123   */\n      dup3\n        /* \"#utility.yul\":25118:25127   */\n      mul\n        /* \"#utility.yul\":25107:25127   */\n      swap1\n      pop\n        /* \"#utility.yul\":24785:25133   */\n      swap3\n      swap2\n      pop\n      pop\n      jump\t// out\n        /* \"#utility.yul\":25139:25280   */\n    tag_255:\n        /* \"#utility.yul\":25188:25192   */\n      0x00\n        /* \"#utility.yul\":25211:25214   */\n      dup2\n        /* \"#utility.yul\":25203:25214   */\n      swap1\n      pop\n        /* \"#utility.yul\":25234:25237   */\n      dup2\n        /* \"#utility.yul\":25231:25232   */\n      0x00\n        /* \"#utility.yul\":25224:25238   */\n      mstore\n        /* \"#utility.yul\":25268:25272   */\n      0x20\n        /* \"#utility.yul\":25265:25266   */\n      0x00\n        /* \"#utility.yul\":25255:25273   */\n      keccak256\n        /* \"#utility.yul\":25247:25273   */\n      swap1\n      pop\n        /* \"#utility.yul\":25139:25280   */\n      swap2\n      swap1\n      pop\n      jump\t// out\n        /* \"#utility.yul\":25286:25379   */\n    tag_256:\n        /* \"#utility.yul\":25323:25329   */\n      0x00\n        /* \"#utility.yul\":25370:25372   */\n      0x20\n        /* \"#utility.yul\":25365:25367   */\n      0x1f\n        /* \"#utility.yul\":25358:25363   */\n      dup4\n        /* \"#utility.yul\":25354:25368   */\n      add\n        /* \"#utility.yul\":25350:25373   */\n      div\n        /* \"#utility.yul\":25340:25373   */\n      swap1\n      pop\n        /* \"#utility.yul\":25286:25379   */\n      swap2\n      swap1\n      pop\n      jump\t// out\n        /* \"#utility.yul\":25385:25492   */\n    tag_257:\n        /* \"#utility.yul\":25429:25437   */\n      0x00\n        /* \"#utility.yul\":25479:25484   */\n      dup3\n        /* \"#utility.yul\":25473:25477   */\n      dup3\n        /* \"#utility.yul\":25469:25485   */\n      shl\n        /* \"#utility.yul\":25448:25485   */\n      swap1\n      pop\n        /* \"#utility.yul\":25385:25492   */\n      swap3\n      swap2\n      pop\n      pop\n      jump\t// out\n        /* \"#utility.yul\":25498:25891   */\n    tag_258:\n        /* \"#utility.yul\":25567:25573   */\n      0x00\n        /* \"#utility.yul\":25617:25618   */\n      0x08\n        /* \"#utility.yul\":25605:25615   */\n      dup4\n        /* \"#utility.yul\":25601:25619   */\n      mul\n        /* \"#utility.yul\":25640:25737   */\n      tag_491\n        /* \"#utility.yul\":25670:25736   */\n      0xffffffffffffffffffffffffffffffffffffffffffffffffffffffffffffffff\n        /* \"#utility.yul\":25659:25668   */\n      dup3\n        /* \"#utility.yul\":25640:25737   */\n      tag_257\n      jump\t// in\n    tag_491:\n        /* \"#utility.yul\":25758:25797   */\n      tag_492\n        /* \"#utility.yul\":25788:25796   */\n      dup7\n        /* \"#utility.yul\":25777:25786   */\n      dup4\n        /* \"#utility.yul\":25758:25797   */\n      tag_257\n      jump\t// in\n    tag_492:\n        /* \"#utility.yul\":25746:25797   */\n      swap6\n      pop\n        /* \"#utility.yul\":25830:25834   */\n      dup1\n        /* \"#utility.yul\":25826:25835   */\n      not\n        /* \"#utility.yul\":25819:25824   */\n      dup5\n        /* \"#utility.yul\":25815:25836   */\n      and\n        /* \"#utility.yul\":25806:25836   */\n      swap4\n      pop\n        /* \"#utility.yul\":25879:25883   */\n      dup1\n        /* \"#utility.yul\":25869:25877   */\n      dup7\n        /* \"#utility.yul\":25865:25884   */\n      and\n        /* \"#utility.yul\":25858:25863   */\n      dup5\n        /* \"#utility.yul\":25855:25885   */\n      or\n        /* \"#utility.yul\":25845:25885   */\n      swap3\n      pop\n        /* \"#utility.yul\":25574:25891   */\n      pop\n      pop\n        /* \"#utility.yul\":25498:25891   */\n      swap4\n      swap3\n      pop\n      pop\n      pop\n      jump\t// out\n        /* \"#utility.yul\":25897:25957   */\n    tag_259:\n        /* \"#utility.yul\":25925:25928   */\n      0x00\n        /* \"#utility.yul\":25946:25951   */\n      dup2\n        /* \"#utility.yul\":25939:25951   */\n      swap1\n      pop\n        /* \"#utility.yul\":25897:25957   */\n      swap2\n      swap1\n      pop\n      jump\t// out\n        /* \"#utility.yul\":25963:26105   */\n    tag_260:\n        /* \"#utility.yul\":26013:26022   */\n      0x00\n        /* \"#utility.yul\":26046:26099   */\n      tag_495\n        /* \"#utility.yul\":26064:26098   */\n      tag_496\n        /* \"#utility.yul\":26073:26097   */\n      tag_497\n        /* \"#utility.yul\":26091:26096   */\n      dup5\n        /* \"#utility.yul\":26073:26097   */\n      tag_195\n      jump\t// in\n    tag_497:\n        /* \"#utility.yul\":26064:26098   */\n      tag_259\n      jump\t// in\n    tag_496:\n        /* \"#utility.yul\":26046:26099   */\n      tag_195\n      jump\t// in\n    tag_495:\n        /* \"#utility.yul\":26033:26099   */\n      swap1\n      pop\n        /* \"#utility.yul\":25963:26105   */\n      swap2\n      swap1\n      pop\n      jump\t// out\n        /* \"#utility.yul\":26111:26186   */\n    tag_261:\n        /* \"#utility.yul\":26154:26157   */\n      0x00\n        /* \"#utility.yul\":26175:26180   */\n      dup2\n        /* \"#utility.yul\":26168:26180   */\n      swap1\n      pop\n        /* \"#utility.yul\":26111:26186   */\n      swap2\n      swap1\n      pop\n      jump\t// out\n        /* \"#utility.yul\":26192:26461   */\n    tag_262:\n        /* \"#utility.yul\":26302:26341   */\n      tag_500\n        /* \"#utility.yul\":26333:26340   */\n      dup4\n        /* \"#utility.yul\":26302:26341   */\n      tag_260\n      jump\t// in\n    tag_500:\n        /* \"#utility.yul\":26363:26454   */\n      tag_501\n        /* \"#utility.yul\":26412:26453   */\n      tag_502\n        /* \"#utility.yul\":26436:26452   */\n      dup3\n        /* \"#utility.yul\":26412:26453   */\n      tag_261\n      jump\t// in\n    tag_502:\n        /* \"#utility.yul\":26404:26410   */\n      dup5\n        /* \"#utility.yul\":26397:26401   */\n      dup5\n        /* \"#utility.yul\":26391:26402   */\n      sload\n        /* \"#utility.yul\":26363:26454   */\n      tag_258\n      jump\t// in\n    tag_501:\n        /* \"#utility.yul\":26357:26361   */\n      dup3\n        /* \"#utility.yul\":26350:26455   */\n      sstore\n        /* \"#utility.yul\":26268:26461   */\n      pop\n        /* \"#utility.yul\":26192:26461   */\n      pop\n      pop\n      pop\n      jump\t// out\n        /* \"#utility.yul\":26467:26540   */\n    tag_263:\n        /* \"#utility.yul\":26512:26515   */\n      0x00\n        /* \"#utility.yul\":26467:26540   */\n      swap1\n      jump\t// out\n        /* \"#utility.yul\":26546:26735   */\n    tag_264:\n        /* \"#utility.yul\":26623:26655   */\n      tag_505\n      tag_263\n      jump\t// in\n    tag_505:\n        /* \"#utility.yul\":26664:26729   */\n      tag_506\n        /* \"#utility.yul\":26722:26728   */\n      dup2\n        /* \"#utility.yul\":26714:26720   */\n      dup5\n        /* \"#utility.yul\":26708:26712   */\n      dup5\n        /* \"#utility.yul\":26664:26729   */\n      tag_262\n      jump\t// in\n    tag_506:\n        /* \"#utility.yul\":26599:26735   */\n      pop\n        /* \"#utility.yul\":26546:26735   */\n      pop\n      pop\n      jump\t// out\n        /* \"#utility.yul\":26741:26927   */\n    tag_265:\n        /* \"#utility.yul\":26801:26921   */\n    tag_508:\n        /* \"#utility.yul\":26818:26821   */\n      dup2\n        /* \"#utility.yul\":26811:26816   */\n      dup2\n        /* \"#utility.yul\":26808:26822   */\n      lt\n        /* \"#utility.yul\":26801:26921   */\n      iszero\n      tag_510\n      jumpi\n        /* \"#utility.yul\":26872:26911   */\n      tag_511\n        /* \"#utility.yul\":26909:26910   */\n      0x00\n        /* \"#utility.yul\":26902:26907   */\n      dup3\n        /* \"#utility.yul\":26872:26911   */\n      tag_264\n      jump\t// in\n    tag_511:\n        /* \"#utility.yul\":26845:26846   */\n      0x01\n        /* \"#utility.yul\":26838:26843   */\n      dup2\n        /* \"#utility.yul\":26834:26847   */\n      add\n        /* \"#utility.yul\":26825:26847   */\n      swap1\n      pop\n        /* \"#utility.yul\":26801:26921   */\n      jump(tag_508)\n    tag_510:\n        /* \"#utility.yul\":26741:26927   */\n      pop\n      pop\n      jump\t// out\n        /* \"#utility.yul\":26933:27476   */\n    tag_266:\n        /* \"#utility.yul\":27034:27036   */\n      0x1f\n        /* \"#utility.yul\":27029:27032   */\n      dup3\n        /* \"#utility.yul\":27026:27037   */\n      gt\n        /* \"#utility.yul\":27023:27469   */\n      iszero\n      tag_513\n      jumpi\n        /* \"#utility.yul\":27068:27106   */\n      tag_514\n        /* \"#utility.yul\":27100:27105   */\n      dup2\n        /* \"#utility.yul\":27068:27106   */\n      tag_255\n      jump\t// in\n    tag_514:\n        /* \"#utility.yul\":27152:27181   */\n      tag_515\n        /* \"#utility.yul\":27170:27180   */\n      dup5\n        /* \"#utility.yul\":27152:27181   */\n      tag_256\n      jump\t// in\n    tag_515:\n        /* \"#utility.yul\":27142:27150   */\n      dup2\n        /* \"#utility.yul\":27138:27182   */\n      add\n        /* \"#utility.yul\":27335:27337   */\n      0x20\n        /* \"#utility.yul\":27323:27333   */\n      dup6\n        /* \"#utility.yul\":27320:27338   */\n      lt\n        /* \"#utility.yul\":27317:27366   */\n      iszero\n      tag_516\n      jumpi\n        /* \"#utility.yul\":27356:27364   */\n      dup2\n        /* \"#utility.yul\":27341:27364   */\n      swap1\n      pop\n        /* \"#utility.yul\":27317:27366   */\n    tag_516:\n        /* \"#utility.yul\":27379:27459   */\n      tag_517\n        /* \"#utility.yul\":27435:27457   */\n      tag_518\n        /* \"#utility.yul\":27453:27456   */\n      dup6\n        /* \"#utility.yul\":27435:27457   */\n      tag_256\n      jump\t// in\n    tag_518:\n        /* \"#utility.yul\":27425:27433   */\n      dup4\n        /* \"#utility.yul\":27421:27458   */\n      add\n        /* \"#utility.yul\":27408:27419   */\n      dup3\n        /* \"#utility.yul\":27379:27459   */\n      tag_265\n      jump\t// in\n    tag_517:\n        /* \"#utility.yul\":27038:27469   */\n      pop\n      pop\n        /* \"#utility.yul\":27023:27469   */\n    tag_513:\n        /* \"#utility.yul\":26933:27476   */\n      pop\n      pop\n      pop\n      jump\t// out\n        /* \"#utility.yul\":27482:27599   */\n    tag_267:\n        /* \"#utility.yul\":27536:27544   */\n      0x00\n        /* \"#utility.yul\":27586:27591   */\n      dup3\n        /* \"#utility.yul\":27580:27584   */\n      dup3\n        /* \"#utility.yul\":27576:27592   */\n      shr\n        /* \"#utility.yul\":27555:27592   */\n      swap1\n      pop\n        /* \"#utility.yul\":27482:27599   */\n      swap3\n      swap2\n      pop\n      pop\n      jump\t// out\n        /* \"#utility.yul\":27605:27774   */\n    tag_268:\n        /* \"#utility.yul\":27649:27655   */\n      0x00\n        /* \"#utility.yul\":27682:27733   */\n      tag_521\n        /* \"#utility.yul\":27730:27731   */\n      0x00\n        /* \"#utility.yul\":27726:27732   */\n      not\n        /* \"#utility.yul\":27718:27723   */\n      dup5\n        /* \"#utility.yul\":27715:27716   */\n      0x08\n        /* \"#utility.yul\":27711:27724   */\n      mul\n        /* \"#utility.yul\":27682:27733   */\n      tag_267\n      jump\t// in\n    tag_521:\n        /* \"#utility.yul\":27678:27734   */\n      not\n        /* \"#utility.yul\":27763:27767   */\n      dup1\n        /* \"#utility.yul\":27757:27761   */\n      dup4\n        /* \"#utility.yul\":27753:27768   */\n      and\n        /* \"#utility.yul\":27743:27768   */\n      swap2\n      pop\n        /* \"#utility.yul\":27656:27774   */\n      pop\n        /* \"#utility.yul\":27605:27774   */\n      swap3\n      swap2\n      pop\n      pop\n      jump\t// out\n        /* \"#utility.yul\":27779:28074   */\n    tag_269:\n        /* \"#utility.yul\":27855:27859   */\n      0x00\n        /* \"#utility.yul\":28001:28030   */\n      tag_523\n        /* \"#utility.yul\":28026:28029   */\n      dup4\n        /* \"#utility.yul\":28020:28024   */\n      dup4\n        /* \"#utility.yul\":28001:28030   */\n      tag_268\n      jump\t// in\n    tag_523:\n        /* \"#utility.yul\":27993:28030   */\n      swap2\n      pop\n        /* \"#utility.yul\":28063:28066   */\n      dup3\n        /* \"#utility.yul\":28060:28061   */\n      0x02\n        /* \"#utility.yul\":28056:28067   */\n      mul\n        /* \"#utility.yul\":28050:28054   */\n      dup3\n        /* \"#utility.yul\":28047:28068   */\n      or\n        /* \"#utility.yul\":28039:28068   */\n      swap1\n      pop\n        /* \"#utility.yul\":27779:28074   */\n      swap3\n      swap2\n      pop\n      pop\n      jump\t// out\n        /* \"#utility.yul\":28079:29474   */\n    tag_149:\n        /* \"#utility.yul\":28196:28233   */\n      tag_525\n        /* \"#utility.yul\":28229:28232   */\n      dup3\n        /* \"#utility.yul\":28196:28233   */\n      tag_203\n      jump\t// in\n    tag_525:\n        /* \"#utility.yul\":28298:28316   */\n      0xffffffffffffffff\n        /* \"#utility.yul\":28290:28296   */\n      dup2\n        /* \"#utility.yul\":28287:28317   */\n      gt\n        /* \"#utility.yul\":28284:28340   */\n      iszero\n      tag_526\n      jumpi\n        /* \"#utility.yul\":28320:28338   */\n      tag_527\n      tag_210\n      jump\t// in\n    tag_527:\n        /* \"#utility.yul\":28284:28340   */\n    tag_526:\n        /* \"#utility.yul\":28364:28402   */\n      tag_528\n        /* \"#utility.yul\":28396:28400   */\n      dup3\n        /* \"#utility.yul\":28390:28401   */\n      sload\n        /* \"#utility.yul\":28364:28402   */\n      tag_106\n      jump\t// in\n    tag_528:\n        /* \"#utility.yul\":28449:28516   */\n      tag_529\n        /* \"#utility.yul\":28509:28515   */\n      dup3\n        /* \"#utility.yul\":28501:28507   */\n      dup3\n        /* \"#utility.yul\":28495:28499   */\n      dup6\n        /* \"#utility.yul\":28449:28516   */\n      tag_266\n      jump\t// in\n    tag_529:\n        /* \"#utility.yul\":28543:28544   */\n      0x00\n        /* \"#utility.yul\":28567:28571   */\n      0x20\n        /* \"#utility.yul\":28554:28571   */\n      swap1\n      pop\n        /* \"#utility.yul\":28599:28601   */\n      0x1f\n        /* \"#utility.yul\":28591:28597   */\n      dup4\n        /* \"#utility.yul\":28588:28602   */\n      gt\n        /* \"#utility.yul\":28616:28617   */\n      0x01\n        /* \"#utility.yul\":28611:29229   */\n      dup2\n      eq\n      tag_531\n      jumpi\n        /* \"#utility.yul\":29273:29274   */\n      0x00\n        /* \"#utility.yul\":29290:29296   */\n      dup5\n        /* \"#utility.yul\":29287:29364   */\n      iszero\n      tag_532\n      jumpi\n        /* \"#utility.yul\":29339:29348   */\n      dup3\n        /* \"#utility.yul\":29334:29337   */\n      dup8\n        /* \"#utility.yul\":29330:29349   */\n      add\n        /* \"#utility.yul\":29324:29350   */\n      mload\n        /* \"#utility.yul\":29315:29350   */\n      swap1\n      pop\n        /* \"#utility.yul\":29287:29364   */\n    tag_532:\n        /* \"#utility.yul\":29390:29457   */\n      tag_533\n        /* \"#utility.yul\":29450:29456   */\n      dup6\n        /* \"#utility.yul\":29443:29448   */\n      dup3\n        /* \"#utility.yul\":29390:29457   */\n      tag_269\n      jump\t// in\n    tag_533:\n        /* \"#utility.yul\":29384:29388   */\n      dup7\n        /* \"#utility.yul\":29377:29458   */\n      sstore\n        /* \"#utility.yul\":29246:29468   */\n      pop\n        /* \"#utility.yul\":28581:29468   */\n      jump(tag_530)\n        /* \"#utility.yul\":28611:29229   */\n    tag_531:\n        /* \"#utility.yul\":28663:28667   */\n      0x1f\n        /* \"#utility.yul\":28659:28668   */\n      not\n        /* \"#utility.yul\":28651:28657   */\n      dup5\n        /* \"#utility.yul\":28647:28669   */\n      and\n        /* \"#utility.yul\":28697:28734   */\n      tag_534\n        /* \"#utility.yul\":28729:28733   */\n      dup7\n        /* \"#utility.yul\":28697:28734   */\n      tag_255\n      jump\t// in\n    tag_534:\n        /* \"#utility.yul\":28756:28757   */\n      0x00\n        /* \"#utility.yul\":28770:28978   */\n    tag_535:\n        /* \"#utility.yul\":28784:28791   */\n      dup3\n        /* \"#utility.yul\":28781:28782   */\n      dup2\n        /* \"#utility.yul\":28778:28792   */\n      lt\n        /* \"#utility.yul\":28770:28978   */\n      iszero\n      tag_537\n      jumpi\n        /* \"#utility.yul\":28863:28872   */\n      dup5\n        /* \"#utility.yul\":28858:28861   */\n      dup10\n        /* \"#utility.yul\":28854:28873   */\n      add\n        /* \"#utility.yul\":28848:28874   */\n      mload\n        /* \"#utility.yul\":28840:28846   */\n      dup3\n        /* \"#utility.yul\":28833:28875   */\n      sstore\n        /* \"#utility.yul\":28914:28915   */\n      0x01\n        /* \"#utility.yul\":28906:28912   */\n      dup3\n        /* \"#utility.yul\":28902:28916   */\n      add\n        /* \"#utility.yul\":28892:28916   */\n      swap2\n      pop\n        /* \"#utility.yul\":28961:28963   */\n      0x20\n        /* \"#utility.yul\":28950:28959   */\n      dup6\n        /* \"#utility.yul\":28946:28964   */\n      add\n        /* \"#utility.yul\":28933:28964   */\n      swap5\n      pop\n        /* \"#utility.yul\":28807:28811   */\n      0x20\n        /* \"#utility.yul\":28804:28805   */\n      dup2\n        /* \"#utility.yul\":28800:28812   */\n      add\n        /* \"#utility.yul\":28795:28812   */\n      swap1\n      pop\n        /* \"#utility.yul\":28770:28978   */\n      jump(tag_535)\n    tag_537:\n        /* \"#utility.yul\":29006:29012   */\n      dup7\n        /* \"#utility.yul\":28997:29004   */\n      dup4\n        /* \"#utility.yul\":28994:29013   */\n      lt\n        /* \"#utility.yul\":28991:29170   */\n      iszero\n      tag_538\n      jumpi\n        /* \"#utility.yul\":29064:29073   */\n      dup5\n        /* \"#utility.yul\":29059:29062   */\n      dup10\n        /* \"#utility.yul\":29055:29074   */\n      add\n        /* \"#utility.yul\":29049:29075   */\n      mload\n        /* \"#utility.yul\":29107:29155   */\n      tag_539\n        /* \"#utility.yul\":29149:29153   */\n      0x1f\n        /* \"#utility.yul\":29141:29147   */\n      dup10\n        /* \"#utility.yul\":29137:29154   */\n      and\n        /* \"#utility.yul\":29126:29135   */\n      dup3\n        /* \"#utility.yul\":29107:29155   */\n      tag_268\n      jump\t// in\n    tag_539:\n        /* \"#utility.yul\":29099:29105   */\n      dup4\n        /* \"#utility.yul\":29092:29156   */\n      sstore\n        /* \"#utility.yul\":29014:29170   */\n      pop\n        /* \"#utility.yul\":28991:29170   */\n    tag_538:\n        /* \"#utility.yul\":29216:29217   */\n      0x01\n        /* \"#utility.yul\":29212:29213   */\n      0x02\n        /* \"#utility.yul\":29204:29210   */\n      dup9\n        /* \"#utility.yul\":29200:29214   */\n      mul\n        /* \"#utility.yul\":29196:29218   */\n      add\n        /* \"#utility.yul\":29190:29194   */\n      dup9\n        /* \"#utility.yul\":29183:29219   */\n      sstore\n        /* \"#utility.yul\":28618:29229   */\n      pop\n      pop\n      pop\n        /* \"#utility.yul\":28581:29468   */\n    tag_530:\n      pop\n        /* \"#utility.yul\":28171:29474   */\n      pop\n      pop\n      pop\n        /* \"#utility.yul\":28079:29474   */\n      pop\n      pop\n      jump\t// out\n        /* \"#utility.yul\":29480:29660   */\n    tag_155:\n        /* \"#utility.yul\":29528:29605   */\n      0x4e487b7100000000000000000000000000000000000000000000000000000000\n        /* \"#utility.yul\":29525:29526   */\n      0x00\n        /* \"#utility.yul\":29518:29606   */\n      mstore\n        /* \"#utility.yul\":29625:29629   */\n      0x32\n        /* \"#utility.yul\":29622:29623   */\n      0x04\n        /* \"#utility.yul\":29615:29630   */\n      mstore\n        /* \"#utility.yul\":29649:29653   */\n      0x24\n        /* \"#utility.yul\":29646:29647   */\n      0x00\n        /* \"#utility.yul\":29639:29654   */\n      revert\n        /* \"#utility.yul\":29666:29752   */\n    tag_270:\n        /* \"#utility.yul\":29701:29708   */\n      0x00\n        /* \"#utility.yul\":29741:29745   */\n      0xff\n        /* \"#utility.yul\":29734:29739   */\n      dup3\n        /* \"#utility.yul\":29730:29746   */\n      and\n        /* \"#utility.yul\":29719:29746   */\n      swap1\n      pop\n        /* \"#utility.yul\":29666:29752   */\n      swap2\n      swap1\n      pop\n      jump\t// out\n        /* \"#utility.yul\":29758:29925   */\n    tag_163:\n        /* \"#utility.yul\":29795:29798   */\n      0x00\n        /* \"#utility.yul\":29818:29840   */\n      tag_543\n        /* \"#utility.yul\":29834:29839   */\n      dup3\n        /* \"#utility.yul\":29818:29840   */\n      tag_270\n      jump\t// in\n    tag_543:\n        /* \"#utility.yul\":29809:29840   */\n      swap2\n      pop\n        /* \"#utility.yul\":29862:29866   */\n      0xff\n        /* \"#utility.yul\":29855:29860   */\n      dup3\n        /* \"#utility.yul\":29852:29867   */\n      sub\n        /* \"#utility.yul\":29849:29890   */\n      tag_544\n      jumpi\n        /* \"#utility.yul\":29870:29888   */\n      tag_545\n      tag_249\n      jump\t// in\n    tag_545:\n        /* \"#utility.yul\":29849:29890   */\n    tag_544:\n        /* \"#utility.yul\":29917:29918   */\n      0x01\n        /* \"#utility.yul\":29910:29915   */\n      dup3\n        /* \"#utility.yul\":29906:29919   */\n      add\n        /* \"#utility.yul\":29899:29919   */\n      swap1\n      pop\n        /* \"#utility.yul\":29758:29925   */\n      swap2\n      swap1\n      pop\n      jump\t// out\n\n    auxdata: 0xa26469706673582212203558aae042917696b8c08a7bcb414159e29c93d1025a9105203818754edded5964736f6c634300080f0033\n}\n",
				"bytecode": {
					"linkReferences": {},
					"object": "60806040523480156200001157600080fd5b5060405162002ee238038062002ee2833981810160405281019062000037919062000348565b33600360006101000a81548173ffffffffffffffffffffffffffffffffffffffff021916908373ffffffffffffffffffffffffffffffffffffffff1602179055508142620000869190620003f2565b60018190555080600481905550600060058190555060006006819055506040518060400160405280600881526020017f52656a656374656400000000000000000000000000000000000000000000000081525060029081620000e9919062000690565b50306000806101000a81548173ffffffffffffffffffffffffffffffffffffffff021916908373ffffffffffffffffffffffffffffffffffffffff16021790555060405180604001604052806000815260200184815250600b60008201518160000155602082015181600101908162000163919062000690565b5090505050505062000777565b6000604051905090565b600080fd5b600080fd5b600080fd5b600080fd5b6000601f19601f8301169050919050565b7f4e487b7100000000000000000000000000000000000000000000000000000000600052604160045260246000fd5b620001d9826200018e565b810181811067ffffffffffffffff82111715620001fb57620001fa6200019f565b5b80604052505050565b60006200021062000170565b90506200021e8282620001ce565b919050565b600067ffffffffffffffff8211156200024157620002406200019f565b5b6200024c826200018e565b9050602081019050919050565b60005b83811015620002795780820151818401526020810190506200025c565b8381111562000289576000848401525b50505050565b6000620002a6620002a08462000223565b62000204565b905082815260208101848484011115620002c557620002c462000189565b5b620002d284828562000259565b509392505050565b600082601f830112620002f257620002f162000184565b5b8151620003048482602086016200028f565b91505092915050565b6000819050919050565b62000322816200030d565b81146200032e57600080fd5b50565b600081519050620003428162000317565b92915050565b6000806000606084860312156200036457620003636200017a565b5b600084015167ffffffffffffffff8111156200038557620003846200017f565b5b6200039386828701620002da565b9350506020620003a68682870162000331565b9250506040620003b98682870162000331565b9150509250925092565b7f4e487b7100000000000000000000000000000000000000000000000000000000600052601160045260246000fd5b6000620003ff826200030d565b91506200040c836200030d565b9250827fffffffffffffffffffffffffffffffffffffffffffffffffffffffffffffffff03821115620004445762000443620003c3565b5b828201905092915050565b600081519050919050565b7f4e487b7100000000000000000000000000000000000000000000000000000000600052602260045260246000fd5b60006002820490506001821680620004a257607f821691505b602082108103620004b857620004b76200045a565b5b50919050565b60008190508160005260206000209050919050565b60006020601f8301049050919050565b600082821b905092915050565b600060088302620005227fffffffffffffffffffffffffffffffffffffffffffffffffffffffffffffffff82620004e3565b6200052e8683620004e3565b95508019841693508086168417925050509392505050565b6000819050919050565b6000620005716200056b62000565846200030d565b62000546565b6200030d565b9050919050565b6000819050919050565b6200058d8362000550565b620005a56200059c8262000578565b848454620004f0565b825550505050565b600090565b620005bc620005ad565b620005c981848462000582565b505050565b5b81811015620005f157620005e5600082620005b2565b600181019050620005cf565b5050565b601f82111562000640576200060a81620004be565b6200061584620004d3565b8101602085101562000625578190505b6200063d6200063485620004d3565b830182620005ce565b50505b505050565b600082821c905092915050565b6000620006656000198460080262000645565b1980831691505092915050565b600062000680838362000652565b9150826002028217905092915050565b6200069b826200044f565b67ffffffffffffffff811115620006b757620006b66200019f565b5b620006c3825462000489565b620006d0828285620005f5565b600060209050601f831160018114620007085760008415620006f3578287015190505b620006ff858262000672565b8655506200076f565b601f1984166200071886620004be565b60005b8281101562000742578489015182556001820191506020850194506020810190506200071b565b868310156200076257848901516200075e601f89168262000652565b8355505b6001600288020188555050505b505050505050565b61275b80620007876000396000f3fe608060405234801561001057600080fd5b506004361061010b5760003560e01c8063753ec103116100a2578063a5ea11da11610071578063a5ea11da1461029b578063b9a29250146102bd578063d77aa749146102db578063da58c7d9146102f9578063f6b4dfb41461032b5761010b565b8063753ec1031461022257806395b02dfa14610241578063977c6c2f1461024b5780639aa4bbdd146102695761010b565b80635361a0ea116100de5780635361a0ea146101965780635c39fcc1146101c8578063604c8333146101e65780637403c5e5146102045761010b565b80630cb6aaf11461011057806315fe6f1b1461014057806319eb4a901461015c578063323082d71461017a575b600080fd5b61012a600480360381019061012591906117e8565b610349565b6040516101379190611856565b60405180910390f35b61015a6004803603810190610155919061189d565b610388565b005b610164610729565b6040516101719190611963565b60405180910390f35b610194600480360381019061018f9190611aba565b6107be565b005b6101b060048036038101906101ab919061189d565b610dea565b6040516101bf93929190611b1e565b60405180910390f35b6101d0610eff565b6040516101dd9190611856565b60405180910390f35b6101ee610f25565b6040516101fb9190611b64565b60405180910390f35b61020c610f2b565b6040516102199190611b64565b60405180910390f35b61022a610f31565b604051610238929190611b7f565b60405180910390f35b610249610fcb565b005b6102536112fb565b6040516102609190611db2565b60405180910390f35b610283600480360381019061027e919061189d565b611583565b60405161029293929190611dd4565b60405180910390f35b6102a36115e7565b6040516102b4959493929190611e0b565b60405180910390f35b6102c56116bd565b6040516102d29190611b64565b60405180910390f35b6102e36116c3565b6040516102f09190611b64565b60405180910390f35b610313600480360381019061030e91906117e8565b6116c9565b60405161032293929190611dd4565b60405180910390f35b610333611739565b6040516103409190611856565b60405180910390f35b6009818154811061035957600080fd5b906000526020600020016000915054906101000a900473ffffffffffffffffffffffffffffffffffffffff1681565b600360009054906101000a900473ffffffffffffffffffffffffffffffffffffffff1673ffffffffffffffffffffffffffffffffffffffff163373ffffffffffffffffffffffffffffffffffffffff1614610418576040517f08c379a000000000000000000000000000000000000000000000000000000000815260040161040f90611ed7565b60405180910390fd5b600360009054906101000a900473ffffffffffffffffffffffffffffffffffffffff1673ffffffffffffffffffffffffffffffffffffffff168173ffffffffffffffffffffffffffffffffffffffff16036104a8576040517f08c379a000000000000000000000000000000000000000000000000000000000815260040161049f90611f43565b60405180910390fd5b600073ffffffffffffffffffffffffffffffffffffffff16600a60008373ffffffffffffffffffffffffffffffffffffffff1673ffffffffffffffffffffffffffffffffffffffff16815260200190815260200160002060000160019054906101000a900473ffffffffffffffffffffffffffffffffffffffff1673ffffffffffffffffffffffffffffffffffffffff1614610579576040517f08c379a000000000000000000000000000000000000000000000000000000000815260040161057090611faf565b60405180910390fd5b60015442106105bd576040517f08c379a00000000000000000000000000000000000000000000000000000000081526004016105b490612041565b60405180910390fd5b600060405180606001604052806000151581526020018373ffffffffffffffffffffffffffffffffffffffff16815260200160001515815250905080600a60008473ffffffffffffffffffffffffffffffffffffffff1673ffffffffffffffffffffffffffffffffffffffff16815260200190815260200160002060008201518160000160006101000a81548160ff02191690831515021790555060208201518160000160016101000a81548173ffffffffffffffffffffffffffffffffffffffff021916908373ffffffffffffffffffffffffffffffffffffffff16021790555060408201518160000160156101000a81548160ff0219169083151502179055509050506009829080600181540180825580915050600190039060005260206000200160009091909190916101000a81548173ffffffffffffffffffffffffffffffffffffffff021916908373ffffffffffffffffffffffffffffffffffffffff1602179055505050565b6060600b600101805461073b90612090565b80601f016020809104026020016040519081016040528092919081815260200182805461076790612090565b80156107b45780601f10610789576101008083540402835291602001916107b4565b820191906000526020600020905b81548152906001019060200180831161079757829003601f168201915b5050505050905090565b6001544210610802576040517f08c379a00000000000000000000000000000000000000000000000000000000081526004016107f99061210d565b60405180910390fd5b6000600a60003373ffffffffffffffffffffffffffffffffffffffff1673ffffffffffffffffffffffffffffffffffffffff1681526020019081526020016000206040518060600160405290816000820160009054906101000a900460ff161515151581526020016000820160019054906101000a900473ffffffffffffffffffffffffffffffffffffffff1673ffffffffffffffffffffffffffffffffffffffff1673ffffffffffffffffffffffffffffffffffffffff1681526020016000820160159054906101000a900460ff1615151515815250509050600073ffffffffffffffffffffffffffffffffffffffff16816020015173ffffffffffffffffffffffffffffffffffffffff160361094f576040517f08c379a000000000000000000000000000000000000000000000000000000000815260040161094690612179565b60405180910390fd5b806000015115610994576040517f08c379a000000000000000000000000000000000000000000000000000000000815260040161098b906121e5565b60405180910390fd5b6040518060400160405280600981526020017f6920617070726f7665000000000000000000000000000000000000000000000081525080519060200120828051906020012003610bf9576001600a60003373ffffffffffffffffffffffffffffffffffffffff1673ffffffffffffffffffffffffffffffffffffffff16815260200190815260200160002060000160006101000a81548160ff0219169083151502179055506001600a60003373ffffffffffffffffffffffffffffffffffffffff1673ffffffffffffffffffffffffffffffffffffffff16815260200190815260200160002060000160156101000a81548160ff021916908315150217905550600160066000828254610aa79190612234565b925050819055506001600b6000016000828254610ac49190612234565b925050819055506008600a60003373ffffffffffffffffffffffffffffffffffffffff1673ffffffffffffffffffffffffffffffffffffffff168152602001908152602001600020908060018154018082558091505060019003906000526020600020016000909190919091506000820160009054906101000a900460ff168160000160006101000a81548160ff0219169083151502179055506000820160019054906101000a900473ffffffffffffffffffffffffffffffffffffffff168160000160016101000a81548173ffffffffffffffffffffffffffffffffffffffff021916908373ffffffffffffffffffffffffffffffffffffffff1602179055506000820160159054906101000a900460ff168160000160156101000a81548160ff0219169083151502179055505050610de6565b6040518060400160405280600c81526020017f6920646973617070726f7665000000000000000000000000000000000000000081525080519060200120828051906020012003610de5576001600a60003373ffffffffffffffffffffffffffffffffffffffff1673ffffffffffffffffffffffffffffffffffffffff16815260200190815260200160002060000160006101000a81548160ff0219169083151502179055506001600b6000016000828254610cb49190612234565b925050819055506008600a60003373ffffffffffffffffffffffffffffffffffffffff1673ffffffffffffffffffffffffffffffffffffffff168152602001908152602001600020908060018154018082558091505060019003906000526020600020016000909190919091506000820160009054906101000a900460ff168160000160006101000a81548160ff0219169083151502179055506000820160019054906101000a900473ffffffffffffffffffffffffffffffffffffffff168160000160016101000a81548173ffffffffffffffffffffffffffffffffffffffff021916908373ffffffffffffffffffffffffffffffffffffffff1602179055506000820160159054906101000a900460ff168160000160156101000a81548160ff02191690831515021790555050505b5b5050565b6000806000600a60008573ffffffffffffffffffffffffffffffffffffffff1673ffffffffffffffffffffffffffffffffffffffff16815260200190815260200160002060000160159054906101000a900460ff16600a60008673ffffffffffffffffffffffffffffffffffffffff1673ffffffffffffffffffffffffffffffffffffffff16815260200190815260200160002060000160009054906101000a900460ff16600a60008773ffffffffffffffffffffffffffffffffffffffff1673ffffffffffffffffffffffffffffffffffffffff16815260200190815260200160002060000160019054906101000a900473ffffffffffffffffffffffffffffffffffffffff169250925092509193909250565b600360009054906101000a900473ffffffffffffffffffffffffffffffffffffffff1681565b60055481565b60065481565b600b806000015490806001018054610f4890612090565b80601f0160208091040260200160405190810160405280929190818152602001828054610f7490612090565b8015610fc15780601f10610f9657610100808354040283529160200191610fc1565b820191906000526020600020905b815481529060010190602001808311610fa457829003601f168201915b5050505050905082565b600154421015611010576040517f08c379a0000000000000000000000000000000000000000000000000000000008152600401611007906122d6565b60405180910390fd5b600160075414611055576040517f08c379a000000000000000000000000000000000000000000000000000000000815260040161104c90612368565b60405180910390fd5b606460098054905060065461106a91906123b7565b61107491906123e8565b600581905550600454600554106110cb576040518060400160405280600881526020017f4163636570746564000000000000000000000000000000000000000000000000815250600290816110c991906125ee565b505b60005b6009805490508160ff1610156112f85760001515600a600060098460ff16815481106110fd576110fc6126c0565b5b9060005260206000200160009054906101000a900473ffffffffffffffffffffffffffffffffffffffff1673ffffffffffffffffffffffffffffffffffffffff1673ffffffffffffffffffffffffffffffffffffffff16815260200190815260200160002060000160009054906101000a900460ff161515036112e5576008600a600060098460ff1681548110611197576111966126c0565b5b9060005260206000200160009054906101000a900473ffffffffffffffffffffffffffffffffffffffff1673ffffffffffffffffffffffffffffffffffffffff1673ffffffffffffffffffffffffffffffffffffffff168152602001908152602001600020908060018154018082558091505060019003906000526020600020016000909190919091506000820160009054906101000a900460ff168160000160006101000a81548160ff0219169083151502179055506000820160019054906101000a900473ffffffffffffffffffffffffffffffffffffffff168160000160016101000a81548173ffffffffffffffffffffffffffffffffffffffff021916908373ffffffffffffffffffffffffffffffffffffffff1602179055506000820160159054906101000a900460ff168160000160156101000a81548160ff02191690831515021790555050505b80806112f0906126fc565b9150506110ce565b50565b61130361175d565b600154421015611348576040517f08c379a000000000000000000000000000000000000000000000000000000000815260040161133f906122d6565b60405180910390fd5b600d60405180606001604052908160008201805461136590612090565b80601f016020809104026020016040519081016040528092919081815260200182805461139190612090565b80156113de5780601f106113b3576101008083540402835291602001916113de565b820191906000526020600020905b8154815290600101906020018083116113c157829003601f168201915b50505050508152602001600182016040518060400160405290816000820154815260200160018201805461141190612090565b80601f016020809104026020016040519081016040528092919081815260200182805461143d90612090565b801561148a5780601f1061145f5761010080835404028352916020019161148a565b820191906000526020600020905b81548152906001019060200180831161146d57829003601f168201915b505050505081525050815260200160038201805480602002602001604051908101604052809291908181526020016000905b82821015611576578382906000526020600020016040518060600160405290816000820160009054906101000a900460ff161515151581526020016000820160019054906101000a900473ffffffffffffffffffffffffffffffffffffffff1673ffffffffffffffffffffffffffffffffffffffff1673ffffffffffffffffffffffffffffffffffffffff1681526020016000820160159054906101000a900460ff161515151581525050815260200190600101906114bc565b5050505081525050905090565b600a6020528060005260406000206000915090508060000160009054906101000a900460ff16908060000160019054906101000a900473ffffffffffffffffffffffffffffffffffffffff16908060000160159054906101000a900460ff16905083565b6060600080600080600b600101600154600360009054906101000a900473ffffffffffffffffffffffffffffffffffffffff1660045460065484805461162c90612090565b80601f016020809104026020016040519081016040528092919081815260200182805461165890612090565b80156116a55780601f1061167a576101008083540402835291602001916116a5565b820191906000526020600020905b81548152906001019060200180831161168857829003601f168201915b50505050509450945094509450945094509091929394565b60075481565b60045481565b600881815481106116d957600080fd5b906000526020600020016000915090508060000160009054906101000a900460ff16908060000160019054906101000a900473ffffffffffffffffffffffffffffffffffffffff16908060000160159054906101000a900460ff16905083565b60008054906101000a900473ffffffffffffffffffffffffffffffffffffffff1681565b604051806060016040528060608152602001611777611784565b8152602001606081525090565b604051806040016040528060008152602001606081525090565b6000604051905090565b600080fd5b600080fd5b6000819050919050565b6117c5816117b2565b81146117d057600080fd5b50565b6000813590506117e2816117bc565b92915050565b6000602082840312156117fe576117fd6117a8565b5b600061180c848285016117d3565b91505092915050565b600073ffffffffffffffffffffffffffffffffffffffff82169050919050565b600061184082611815565b9050919050565b61185081611835565b82525050565b600060208201905061186b6000830184611847565b92915050565b61187a81611835565b811461188557600080fd5b50565b60008135905061189781611871565b92915050565b6000602082840312156118b3576118b26117a8565b5b60006118c184828501611888565b91505092915050565b600081519050919050565b600082825260208201905092915050565b60005b838110156119045780820151818401526020810190506118e9565b83811115611913576000848401525b50505050565b6000601f19601f8301169050919050565b6000611935826118ca565b61193f81856118d5565b935061194f8185602086016118e6565b61195881611919565b840191505092915050565b6000602082019050818103600083015261197d818461192a565b905092915050565b600080fd5b600080fd5b7f4e487b7100000000000000000000000000000000000000000000000000000000600052604160045260246000fd5b6119c782611919565b810181811067ffffffffffffffff821117156119e6576119e561198f565b5b80604052505050565b60006119f961179e565b9050611a0582826119be565b919050565b600067ffffffffffffffff821115611a2557611a2461198f565b5b611a2e82611919565b9050602081019050919050565b82818337600083830152505050565b6000611a5d611a5884611a0a565b6119ef565b905082815260208101848484011115611a7957611a7861198a565b5b611a84848285611a3b565b509392505050565b600082601f830112611aa157611aa0611985565b5b8135611ab1848260208601611a4a565b91505092915050565b600060208284031215611ad057611acf6117a8565b5b600082013567ffffffffffffffff811115611aee57611aed6117ad565b5b611afa84828501611a8c565b91505092915050565b60008115159050919050565b611b1881611b03565b82525050565b6000606082019050611b336000830186611b0f565b611b406020830185611b0f565b611b4d6040830184611847565b949350505050565b611b5e816117b2565b82525050565b6000602082019050611b796000830184611b55565b92915050565b6000604082019050611b946000830185611b55565b8181036020830152611ba6818461192a565b90509392505050565b600082825260208201905092915050565b6000611bcb826118ca565b611bd58185611baf565b9350611be58185602086016118e6565b611bee81611919565b840191505092915050565b611c02816117b2565b82525050565b6000604083016000830151611c206000860182611bf9565b5060208301518482036020860152611c388282611bc0565b9150508091505092915050565b600081519050919050565b600082825260208201905092915050565b6000819050602082019050919050565b611c7a81611b03565b82525050565b611c8981611835565b82525050565b606082016000820151611ca56000850182611c71565b506020820151611cb86020850182611c80565b506040820151611ccb6040850182611c71565b50505050565b6000611cdd8383611c8f565b60608301905092915050565b6000602082019050919050565b6000611d0182611c45565b611d0b8185611c50565b9350611d1683611c61565b8060005b83811015611d47578151611d2e8882611cd1565b9750611d3983611ce9565b925050600181019050611d1a565b5085935050505092915050565b60006060830160008301518482036000860152611d718282611bc0565b91505060208301518482036020860152611d8b8282611c08565b91505060408301518482036040860152611da58282611cf6565b9150508091505092915050565b60006020820190508181036000830152611dcc8184611d54565b905092915050565b6000606082019050611de96000830186611b0f565b611df66020830185611847565b611e036040830184611b0f565b949350505050565b600060a0820190508181036000830152611e25818861192a565b9050611e346020830187611b55565b611e416040830186611847565b611e4e6060830185611b55565b611e5b6080830184611b55565b9695505050505050565b7f4f6e6c7920696e69746961746f722063616e207265676973746572206120726560008201527f63697069656e742e000000000000000000000000000000000000000000000000602082015250565b6000611ec16028836118d5565b9150611ecc82611e65565b604082019050919050565b60006020820190508181036000830152611ef081611eb4565b9050919050565b7f496e69746961746f722063616e277420766f7465210000000000000000000000600082015250565b6000611f2d6015836118d5565b9150611f3882611ef7565b602082019050919050565b60006020820190508181036000830152611f5c81611f20565b9050919050565b7f526563697069656e7420697320616c7265616479207265676973746572656400600082015250565b6000611f99601f836118d5565b9150611fa482611f63565b602082019050919050565b60006020820190508181036000830152611fc881611f8c565b9050919050565b7f50726f706f73616c20686173207265616368656420697473206578706972792060008201527f6461746500000000000000000000000000000000000000000000000000000000602082015250565b600061202b6024836118d5565b915061203682611fcf565b604082019050919050565b6000602082019050818103600083015261205a8161201e565b9050919050565b7f4e487b7100000000000000000000000000000000000000000000000000000000600052602260045260246000fd5b600060028204905060018216806120a857607f821691505b6020821081036120bb576120ba612061565b5b50919050565b7f566f74696e672068617320657870697265640000000000000000000000000000600082015250565b60006120f76012836118d5565b9150612102826120c1565b602082019050919050565b60006020820190508181036000830152612126816120ea565b9050919050565b7f596f7520617265206e6f74207265676973746572656420746f20766f74650000600082015250565b6000612163601e836118d5565b915061216e8261212d565b602082019050919050565b6000602082019050818103600083015261219281612156565b9050919050565b7f596f7520616c72656164792073656e74206120726573706f6e73652e00000000600082015250565b60006121cf601c836118d5565b91506121da82612199565b602082019050919050565b600060208201905081810360008301526121fe816121c2565b9050919050565b7f4e487b7100000000000000000000000000000000000000000000000000000000600052601160045260246000fd5b600061223f826117b2565b915061224a836117b2565b9250827fffffffffffffffffffffffffffffffffffffffffffffffffffffffffffffffff0382111561227f5761227e612205565b5b828201905092915050565b7f5665726469637420686173206e6f74206265656e207265616368656420796574600082015250565b60006122c06020836118d5565b91506122cb8261228a565b602082019050919050565b600060208201905081810360008301526122ef816122b3565b9050919050565b7f436f6e73656e7375732068617320616c7265616479206265656e2063616c637560008201527f6c61746564000000000000000000000000000000000000000000000000000000602082015250565b60006123526025836118d5565b915061235d826122f6565b604082019050919050565b6000602082019050818103600083015261238181612345565b9050919050565b7f4e487b7100000000000000000000000000000000000000000000000000000000600052601260045260246000fd5b60006123c2826117b2565b91506123cd836117b2565b9250826123dd576123dc612388565b5b828204905092915050565b60006123f3826117b2565b91506123fe836117b2565b9250817fffffffffffffffffffffffffffffffffffffffffffffffffffffffffffffffff048311821515161561243757612436612205565b5b828202905092915050565b60008190508160005260206000209050919050565b60006020601f8301049050919050565b600082821b905092915050565b6000600883026124a47fffffffffffffffffffffffffffffffffffffffffffffffffffffffffffffffff82612467565b6124ae8683612467565b95508019841693508086168417925050509392505050565b6000819050919050565b60006124eb6124e66124e1846117b2565b6124c6565b6117b2565b9050919050565b6000819050919050565b612505836124d0565b612519612511826124f2565b848454612474565b825550505050565b600090565b61252e612521565b6125398184846124fc565b505050565b5b8181101561255d57612552600082612526565b60018101905061253f565b5050565b601f8211156125a25761257381612442565b61257c84612457565b8101602085101561258b578190505b61259f61259785612457565b83018261253e565b50505b505050565b600082821c905092915050565b60006125c5600019846008026125a7565b1980831691505092915050565b60006125de83836125b4565b9150826002028217905092915050565b6125f7826118ca565b67ffffffffffffffff8111156126105761260f61198f565b5b61261a8254612090565b612625828285612561565b600060209050601f8311600181146126585760008415612646578287015190505b61265085826125d2565b8655506126b8565b601f19841661266686612442565b60005b8281101561268e57848901518255600182019150602085019450602081019050612669565b868310156126ab57848901516126a7601f8916826125b4565b8355505b6001600288020188555050505b505050505050565b7f4e487b7100000000000000000000000000000000000000000000000000000000600052603260045260246000fd5b600060ff82169050919050565b6000612707826126ef565b915060ff820361271a57612719612205565b5b60018201905091905056fea26469706673582212203558aae042917696b8c08a7bcb414159e29c93d1025a9105203818754edded5964736f6c634300080f0033",
					"opcodes": "PUSH1 0x80 PUSH1 0x40 MSTORE CALLVALUE DUP1 ISZERO PUSH3 0x11 JUMPI PUSH1 0x0 DUP1 REVERT JUMPDEST POP PUSH1 0x40 MLOAD PUSH3 0x2EE2 CODESIZE SUB DUP1 PUSH3 0x2EE2 DUP4 CODECOPY DUP2 DUP2 ADD PUSH1 0x40 MSTORE DUP2 ADD SWAP1 PUSH3 0x37 SWAP2 SWAP1 PUSH3 0x348 JUMP JUMPDEST CALLER PUSH1 0x3 PUSH1 0x0 PUSH2 0x100 EXP DUP2 SLOAD DUP2 PUSH20 0xFFFFFFFFFFFFFFFFFFFFFFFFFFFFFFFFFFFFFFFF MUL NOT AND SWAP1 DUP4 PUSH20 0xFFFFFFFFFFFFFFFFFFFFFFFFFFFFFFFFFFFFFFFF AND MUL OR SWAP1 SSTORE POP DUP2 TIMESTAMP PUSH3 0x86 SWAP2 SWAP1 PUSH3 0x3F2 JUMP JUMPDEST PUSH1 0x1 DUP2 SWAP1 SSTORE POP DUP1 PUSH1 0x4 DUP2 SWAP1 SSTORE POP PUSH1 0x0 PUSH1 0x5 DUP2 SWAP1 SSTORE POP PUSH1 0x0 PUSH1 0x6 DUP2 SWAP1 SSTORE POP PUSH1 0x40 MLOAD DUP1 PUSH1 0x40 ADD PUSH1 0x40 MSTORE DUP1 PUSH1 0x8 DUP2 MSTORE PUSH1 0x20 ADD PUSH32 0x52656A6563746564000000000000000000000000000000000000000000000000 DUP2 MSTORE POP PUSH1 0x2 SWAP1 DUP2 PUSH3 0xE9 SWAP2 SWAP1 PUSH3 0x690 JUMP JUMPDEST POP ADDRESS PUSH1 0x0 DUP1 PUSH2 0x100 EXP DUP2 SLOAD DUP2 PUSH20 0xFFFFFFFFFFFFFFFFFFFFFFFFFFFFFFFFFFFFFFFF MUL NOT AND SWAP1 DUP4 PUSH20 0xFFFFFFFFFFFFFFFFFFFFFFFFFFFFFFFFFFFFFFFF AND MUL OR SWAP1 SSTORE POP PUSH1 0x40 MLOAD DUP1 PUSH1 0x40 ADD PUSH1 0x40 MSTORE DUP1 PUSH1 0x0 DUP2 MSTORE PUSH1 0x20 ADD DUP5 DUP2 MSTORE POP PUSH1 0xB PUSH1 0x0 DUP3 ADD MLOAD DUP2 PUSH1 0x0 ADD SSTORE PUSH1 0x20 DUP3 ADD MLOAD DUP2 PUSH1 0x1 ADD SWAP1 DUP2 PUSH3 0x163 SWAP2 SWAP1 PUSH3 0x690 JUMP JUMPDEST POP SWAP1 POP POP POP POP POP PUSH3 0x777 JUMP JUMPDEST PUSH1 0x0 PUSH1 0x40 MLOAD SWAP1 POP SWAP1 JUMP JUMPDEST PUSH1 0x0 DUP1 REVERT JUMPDEST PUSH1 0x0 DUP1 REVERT JUMPDEST PUSH1 0x0 DUP1 REVERT JUMPDEST PUSH1 0x0 DUP1 REVERT JUMPDEST PUSH1 0x0 PUSH1 0x1F NOT PUSH1 0x1F DUP4 ADD AND SWAP1 POP SWAP2 SWAP1 POP JUMP JUMPDEST PUSH32 0x4E487B7100000000000000000000000000000000000000000000000000000000 PUSH1 0x0 MSTORE PUSH1 0x41 PUSH1 0x4 MSTORE PUSH1 0x24 PUSH1 0x0 REVERT JUMPDEST PUSH3 0x1D9 DUP3 PUSH3 0x18E JUMP JUMPDEST DUP2 ADD DUP2 DUP2 LT PUSH8 0xFFFFFFFFFFFFFFFF DUP3 GT OR ISZERO PUSH3 0x1FB JUMPI PUSH3 0x1FA PUSH3 0x19F JUMP JUMPDEST JUMPDEST DUP1 PUSH1 0x40 MSTORE POP POP POP JUMP JUMPDEST PUSH1 0x0 PUSH3 0x210 PUSH3 0x170 JUMP JUMPDEST SWAP1 POP PUSH3 0x21E DUP3 DUP3 PUSH3 0x1CE JUMP JUMPDEST SWAP2 SWAP1 POP JUMP JUMPDEST PUSH1 0x0 PUSH8 0xFFFFFFFFFFFFFFFF DUP3 GT ISZERO PUSH3 0x241 JUMPI PUSH3 0x240 PUSH3 0x19F JUMP JUMPDEST JUMPDEST PUSH3 0x24C DUP3 PUSH3 0x18E JUMP JUMPDEST SWAP1 POP PUSH1 0x20 DUP2 ADD SWAP1 POP SWAP2 SWAP1 POP JUMP JUMPDEST PUSH1 0x0 JUMPDEST DUP4 DUP2 LT ISZERO PUSH3 0x279 JUMPI DUP1 DUP3 ADD MLOAD DUP2 DUP5 ADD MSTORE PUSH1 0x20 DUP2 ADD SWAP1 POP PUSH3 0x25C JUMP JUMPDEST DUP4 DUP2 GT ISZERO PUSH3 0x289 JUMPI PUSH1 0x0 DUP5 DUP5 ADD MSTORE JUMPDEST POP POP POP POP JUMP JUMPDEST PUSH1 0x0 PUSH3 0x2A6 PUSH3 0x2A0 DUP5 PUSH3 0x223 JUMP JUMPDEST PUSH3 0x204 JUMP JUMPDEST SWAP1 POP DUP3 DUP2 MSTORE PUSH1 0x20 DUP2 ADD DUP5 DUP5 DUP5 ADD GT ISZERO PUSH3 0x2C5 JUMPI PUSH3 0x2C4 PUSH3 0x189 JUMP JUMPDEST JUMPDEST PUSH3 0x2D2 DUP5 DUP3 DUP6 PUSH3 0x259 JUMP JUMPDEST POP SWAP4 SWAP3 POP POP POP JUMP JUMPDEST PUSH1 0x0 DUP3 PUSH1 0x1F DUP4 ADD SLT PUSH3 0x2F2 JUMPI PUSH3 0x2F1 PUSH3 0x184 JUMP JUMPDEST JUMPDEST DUP2 MLOAD PUSH3 0x304 DUP5 DUP3 PUSH1 0x20 DUP7 ADD PUSH3 0x28F JUMP JUMPDEST SWAP2 POP POP SWAP3 SWAP2 POP POP JUMP JUMPDEST PUSH1 0x0 DUP2 SWAP1 POP SWAP2 SWAP1 POP JUMP JUMPDEST PUSH3 0x322 DUP2 PUSH3 0x30D JUMP JUMPDEST DUP2 EQ PUSH3 0x32E JUMPI PUSH1 0x0 DUP1 REVERT JUMPDEST POP JUMP JUMPDEST PUSH1 0x0 DUP2 MLOAD SWAP1 POP PUSH3 0x342 DUP2 PUSH3 0x317 JUMP JUMPDEST SWAP3 SWAP2 POP POP JUMP JUMPDEST PUSH1 0x0 DUP1 PUSH1 0x0 PUSH1 0x60 DUP5 DUP7 SUB SLT ISZERO PUSH3 0x364 JUMPI PUSH3 0x363 PUSH3 0x17A JUMP JUMPDEST JUMPDEST PUSH1 0x0 DUP5 ADD MLOAD PUSH8 0xFFFFFFFFFFFFFFFF DUP2 GT ISZERO PUSH3 0x385 JUMPI PUSH3 0x384 PUSH3 0x17F JUMP JUMPDEST JUMPDEST PUSH3 0x393 DUP7 DUP3 DUP8 ADD PUSH3 0x2DA JUMP JUMPDEST SWAP4 POP POP PUSH1 0x20 PUSH3 0x3A6 DUP7 DUP3 DUP8 ADD PUSH3 0x331 JUMP JUMPDEST SWAP3 POP POP PUSH1 0x40 PUSH3 0x3B9 DUP7 DUP3 DUP8 ADD PUSH3 0x331 JUMP JUMPDEST SWAP2 POP POP SWAP3 POP SWAP3 POP SWAP3 JUMP JUMPDEST PUSH32 0x4E487B7100000000000000000000000000000000000000000000000000000000 PUSH1 0x0 MSTORE PUSH1 0x11 PUSH1 0x4 MSTORE PUSH1 0x24 PUSH1 0x0 REVERT JUMPDEST PUSH1 0x0 PUSH3 0x3FF DUP3 PUSH3 0x30D JUMP JUMPDEST SWAP2 POP PUSH3 0x40C DUP4 PUSH3 0x30D JUMP JUMPDEST SWAP3 POP DUP3 PUSH32 0xFFFFFFFFFFFFFFFFFFFFFFFFFFFFFFFFFFFFFFFFFFFFFFFFFFFFFFFFFFFFFFFF SUB DUP3 GT ISZERO PUSH3 0x444 JUMPI PUSH3 0x443 PUSH3 0x3C3 JUMP JUMPDEST JUMPDEST DUP3 DUP3 ADD SWAP1 POP SWAP3 SWAP2 POP POP JUMP JUMPDEST PUSH1 0x0 DUP2 MLOAD SWAP1 POP SWAP2 SWAP1 POP JUMP JUMPDEST PUSH32 0x4E487B7100000000000000000000000000000000000000000000000000000000 PUSH1 0x0 MSTORE PUSH1 0x22 PUSH1 0x4 MSTORE PUSH1 0x24 PUSH1 0x0 REVERT JUMPDEST PUSH1 0x0 PUSH1 0x2 DUP3 DIV SWAP1 POP PUSH1 0x1 DUP3 AND DUP1 PUSH3 0x4A2 JUMPI PUSH1 0x7F DUP3 AND SWAP2 POP JUMPDEST PUSH1 0x20 DUP3 LT DUP2 SUB PUSH3 0x4B8 JUMPI PUSH3 0x4B7 PUSH3 0x45A JUMP JUMPDEST JUMPDEST POP SWAP2 SWAP1 POP JUMP JUMPDEST PUSH1 0x0 DUP2 SWAP1 POP DUP2 PUSH1 0x0 MSTORE PUSH1 0x20 PUSH1 0x0 KECCAK256 SWAP1 POP SWAP2 SWAP1 POP JUMP JUMPDEST PUSH1 0x0 PUSH1 0x20 PUSH1 0x1F DUP4 ADD DIV SWAP1 POP SWAP2 SWAP1 POP JUMP JUMPDEST PUSH1 0x0 DUP3 DUP3 SHL SWAP1 POP SWAP3 SWAP2 POP POP JUMP JUMPDEST PUSH1 0x0 PUSH1 0x8 DUP4 MUL PUSH3 0x522 PUSH32 0xFFFFFFFFFFFFFFFFFFFFFFFFFFFFFFFFFFFFFFFFFFFFFFFFFFFFFFFFFFFFFFFF DUP3 PUSH3 0x4E3 JUMP JUMPDEST PUSH3 0x52E DUP7 DUP4 PUSH3 0x4E3 JUMP JUMPDEST SWAP6 POP DUP1 NOT DUP5 AND SWAP4 POP DUP1 DUP7 AND DUP5 OR SWAP3 POP POP POP SWAP4 SWAP3 POP POP POP JUMP JUMPDEST PUSH1 0x0 DUP2 SWAP1 POP SWAP2 SWAP1 POP JUMP JUMPDEST PUSH1 0x0 PUSH3 0x571 PUSH3 0x56B PUSH3 0x565 DUP5 PUSH3 0x30D JUMP JUMPDEST PUSH3 0x546 JUMP JUMPDEST PUSH3 0x30D JUMP JUMPDEST SWAP1 POP SWAP2 SWAP1 POP JUMP JUMPDEST PUSH1 0x0 DUP2 SWAP1 POP SWAP2 SWAP1 POP JUMP JUMPDEST PUSH3 0x58D DUP4 PUSH3 0x550 JUMP JUMPDEST PUSH3 0x5A5 PUSH3 0x59C DUP3 PUSH3 0x578 JUMP JUMPDEST DUP5 DUP5 SLOAD PUSH3 0x4F0 JUMP JUMPDEST DUP3 SSTORE POP POP POP POP JUMP JUMPDEST PUSH1 0x0 SWAP1 JUMP JUMPDEST PUSH3 0x5BC PUSH3 0x5AD JUMP JUMPDEST PUSH3 0x5C9 DUP2 DUP5 DUP5 PUSH3 0x582 JUMP JUMPDEST POP POP POP JUMP JUMPDEST JUMPDEST DUP2 DUP2 LT ISZERO PUSH3 0x5F1 JUMPI PUSH3 0x5E5 PUSH1 0x0 DUP3 PUSH3 0x5B2 JUMP JUMPDEST PUSH1 0x1 DUP2 ADD SWAP1 POP PUSH3 0x5CF JUMP JUMPDEST POP POP JUMP JUMPDEST PUSH1 0x1F DUP3 GT ISZERO PUSH3 0x640 JUMPI PUSH3 0x60A DUP2 PUSH3 0x4BE JUMP JUMPDEST PUSH3 0x615 DUP5 PUSH3 0x4D3 JUMP JUMPDEST DUP2 ADD PUSH1 0x20 DUP6 LT ISZERO PUSH3 0x625 JUMPI DUP2 SWAP1 POP JUMPDEST PUSH3 0x63D PUSH3 0x634 DUP6 PUSH3 0x4D3 JUMP JUMPDEST DUP4 ADD DUP3 PUSH3 0x5CE JUMP JUMPDEST POP POP JUMPDEST POP POP POP JUMP JUMPDEST PUSH1 0x0 DUP3 DUP3 SHR SWAP1 POP SWAP3 SWAP2 POP POP JUMP JUMPDEST PUSH1 0x0 PUSH3 0x665 PUSH1 0x0 NOT DUP5 PUSH1 0x8 MUL PUSH3 0x645 JUMP JUMPDEST NOT DUP1 DUP4 AND SWAP2 POP POP SWAP3 SWAP2 POP POP JUMP JUMPDEST PUSH1 0x0 PUSH3 0x680 DUP4 DUP4 PUSH3 0x652 JUMP JUMPDEST SWAP2 POP DUP3 PUSH1 0x2 MUL DUP3 OR SWAP1 POP SWAP3 SWAP2 POP POP JUMP JUMPDEST PUSH3 0x69B DUP3 PUSH3 0x44F JUMP JUMPDEST PUSH8 0xFFFFFFFFFFFFFFFF DUP2 GT ISZERO PUSH3 0x6B7 JUMPI PUSH3 0x6B6 PUSH3 0x19F JUMP JUMPDEST JUMPDEST PUSH3 0x6C3 DUP3 SLOAD PUSH3 0x489 JUMP JUMPDEST PUSH3 0x6D0 DUP3 DUP3 DUP6 PUSH3 0x5F5 JUMP JUMPDEST PUSH1 0x0 PUSH1 0x20 SWAP1 POP PUSH1 0x1F DUP4 GT PUSH1 0x1 DUP2 EQ PUSH3 0x708 JUMPI PUSH1 0x0 DUP5 ISZERO PUSH3 0x6F3 JUMPI DUP3 DUP8 ADD MLOAD SWAP1 POP JUMPDEST PUSH3 0x6FF DUP6 DUP3 PUSH3 0x672 JUMP JUMPDEST DUP7 SSTORE POP PUSH3 0x76F JUMP JUMPDEST PUSH1 0x1F NOT DUP5 AND PUSH3 0x718 DUP7 PUSH3 0x4BE JUMP JUMPDEST PUSH1 0x0 JUMPDEST DUP3 DUP2 LT ISZERO PUSH3 0x742 JUMPI DUP5 DUP10 ADD MLOAD DUP3 SSTORE PUSH1 0x1 DUP3 ADD SWAP2 POP PUSH1 0x20 DUP6 ADD SWAP5 POP PUSH1 0x20 DUP2 ADD SWAP1 POP PUSH3 0x71B JUMP JUMPDEST DUP7 DUP4 LT ISZERO PUSH3 0x762 JUMPI DUP5 DUP10 ADD MLOAD PUSH3 0x75E PUSH1 0x1F DUP10 AND DUP3 PUSH3 0x652 JUMP JUMPDEST DUP4 SSTORE POP JUMPDEST PUSH1 0x1 PUSH1 0x2 DUP9 MUL ADD DUP9 SSTORE POP POP POP JUMPDEST POP POP POP POP POP POP JUMP JUMPDEST PUSH2 0x275B DUP1 PUSH3 0x787 PUSH1 0x0 CODECOPY PUSH1 0x0 RETURN INVALID PUSH1 0x80 PUSH1 0x40 MSTORE CALLVALUE DUP1 ISZERO PUSH2 0x10 JUMPI PUSH1 0x0 DUP1 REVERT JUMPDEST POP PUSH1 0x4 CALLDATASIZE LT PUSH2 0x10B JUMPI PUSH1 0x0 CALLDATALOAD PUSH1 0xE0 SHR DUP1 PUSH4 0x753EC103 GT PUSH2 0xA2 JUMPI DUP1 PUSH4 0xA5EA11DA GT PUSH2 0x71 JUMPI DUP1 PUSH4 0xA5EA11DA EQ PUSH2 0x29B JUMPI DUP1 PUSH4 0xB9A29250 EQ PUSH2 0x2BD JUMPI DUP1 PUSH4 0xD77AA749 EQ PUSH2 0x2DB JUMPI DUP1 PUSH4 0xDA58C7D9 EQ PUSH2 0x2F9 JUMPI DUP1 PUSH4 0xF6B4DFB4 EQ PUSH2 0x32B JUMPI PUSH2 0x10B JUMP JUMPDEST DUP1 PUSH4 0x753EC103 EQ PUSH2 0x222 JUMPI DUP1 PUSH4 0x95B02DFA EQ PUSH2 0x241 JUMPI DUP1 PUSH4 0x977C6C2F EQ PUSH2 0x24B JUMPI DUP1 PUSH4 0x9AA4BBDD EQ PUSH2 0x269 JUMPI PUSH2 0x10B JUMP JUMPDEST DUP1 PUSH4 0x5361A0EA GT PUSH2 0xDE JUMPI DUP1 PUSH4 0x5361A0EA EQ PUSH2 0x196 JUMPI DUP1 PUSH4 0x5C39FCC1 EQ PUSH2 0x1C8 JUMPI DUP1 PUSH4 0x604C8333 EQ PUSH2 0x1E6 JUMPI DUP1 PUSH4 0x7403C5E5 EQ PUSH2 0x204 JUMPI PUSH2 0x10B JUMP JUMPDEST DUP1 PUSH4 0xCB6AAF1 EQ PUSH2 0x110 JUMPI DUP1 PUSH4 0x15FE6F1B EQ PUSH2 0x140 JUMPI DUP1 PUSH4 0x19EB4A90 EQ PUSH2 0x15C JUMPI DUP1 PUSH4 0x323082D7 EQ PUSH2 0x17A JUMPI JUMPDEST PUSH1 0x0 DUP1 REVERT JUMPDEST PUSH2 0x12A PUSH1 0x4 DUP1 CALLDATASIZE SUB DUP2 ADD SWAP1 PUSH2 0x125 SWAP2 SWAP1 PUSH2 0x17E8 JUMP JUMPDEST PUSH2 0x349 JUMP JUMPDEST PUSH1 0x40 MLOAD PUSH2 0x137 SWAP2 SWAP1 PUSH2 0x1856 JUMP JUMPDEST PUSH1 0x40 MLOAD DUP1 SWAP2 SUB SWAP1 RETURN JUMPDEST PUSH2 0x15A PUSH1 0x4 DUP1 CALLDATASIZE SUB DUP2 ADD SWAP1 PUSH2 0x155 SWAP2 SWAP1 PUSH2 0x189D JUMP JUMPDEST PUSH2 0x388 JUMP JUMPDEST STOP JUMPDEST PUSH2 0x164 PUSH2 0x729 JUMP JUMPDEST PUSH1 0x40 MLOAD PUSH2 0x171 SWAP2 SWAP1 PUSH2 0x1963 JUMP JUMPDEST PUSH1 0x40 MLOAD DUP1 SWAP2 SUB SWAP1 RETURN JUMPDEST PUSH2 0x194 PUSH1 0x4 DUP1 CALLDATASIZE SUB DUP2 ADD SWAP1 PUSH2 0x18F SWAP2 SWAP1 PUSH2 0x1ABA JUMP JUMPDEST PUSH2 0x7BE JUMP JUMPDEST STOP JUMPDEST PUSH2 0x1B0 PUSH1 0x4 DUP1 CALLDATASIZE SUB DUP2 ADD SWAP1 PUSH2 0x1AB SWAP2 SWAP1 PUSH2 0x189D JUMP JUMPDEST PUSH2 0xDEA JUMP JUMPDEST PUSH1 0x40 MLOAD PUSH2 0x1BF SWAP4 SWAP3 SWAP2 SWAP1 PUSH2 0x1B1E JUMP JUMPDEST PUSH1 0x40 MLOAD DUP1 SWAP2 SUB SWAP1 RETURN JUMPDEST PUSH2 0x1D0 PUSH2 0xEFF JUMP JUMPDEST PUSH1 0x40 MLOAD PUSH2 0x1DD SWAP2 SWAP1 PUSH2 0x1856 JUMP JUMPDEST PUSH1 0x40 MLOAD DUP1 SWAP2 SUB SWAP1 RETURN JUMPDEST PUSH2 0x1EE PUSH2 0xF25 JUMP JUMPDEST PUSH1 0x40 MLOAD PUSH2 0x1FB SWAP2 SWAP1 PUSH2 0x1B64 JUMP JUMPDEST PUSH1 0x40 MLOAD DUP1 SWAP2 SUB SWAP1 RETURN JUMPDEST PUSH2 0x20C PUSH2 0xF2B JUMP JUMPDEST PUSH1 0x40 MLOAD PUSH2 0x219 SWAP2 SWAP1 PUSH2 0x1B64 JUMP JUMPDEST PUSH1 0x40 MLOAD DUP1 SWAP2 SUB SWAP1 RETURN JUMPDEST PUSH2 0x22A PUSH2 0xF31 JUMP JUMPDEST PUSH1 0x40 MLOAD PUSH2 0x238 SWAP3 SWAP2 SWAP1 PUSH2 0x1B7F JUMP JUMPDEST PUSH1 0x40 MLOAD DUP1 SWAP2 SUB SWAP1 RETURN JUMPDEST PUSH2 0x249 PUSH2 0xFCB JUMP JUMPDEST STOP JUMPDEST PUSH2 0x253 PUSH2 0x12FB JUMP JUMPDEST PUSH1 0x40 MLOAD PUSH2 0x260 SWAP2 SWAP1 PUSH2 0x1DB2 JUMP JUMPDEST PUSH1 0x40 MLOAD DUP1 SWAP2 SUB SWAP1 RETURN JUMPDEST PUSH2 0x283 PUSH1 0x4 DUP1 CALLDATASIZE SUB DUP2 ADD SWAP1 PUSH2 0x27E SWAP2 SWAP1 PUSH2 0x189D JUMP JUMPDEST PUSH2 0x1583 JUMP JUMPDEST PUSH1 0x40 MLOAD PUSH2 0x292 SWAP4 SWAP3 SWAP2 SWAP1 PUSH2 0x1DD4 JUMP JUMPDEST PUSH1 0x40 MLOAD DUP1 SWAP2 SUB SWAP1 RETURN JUMPDEST PUSH2 0x2A3 PUSH2 0x15E7 JUMP JUMPDEST PUSH1 0x40 MLOAD PUSH2 0x2B4 SWAP6 SWAP5 SWAP4 SWAP3 SWAP2 SWAP1 PUSH2 0x1E0B JUMP JUMPDEST PUSH1 0x40 MLOAD DUP1 SWAP2 SUB SWAP1 RETURN JUMPDEST PUSH2 0x2C5 PUSH2 0x16BD JUMP JUMPDEST PUSH1 0x40 MLOAD PUSH2 0x2D2 SWAP2 SWAP1 PUSH2 0x1B64 JUMP JUMPDEST PUSH1 0x40 MLOAD DUP1 SWAP2 SUB SWAP1 RETURN JUMPDEST PUSH2 0x2E3 PUSH2 0x16C3 JUMP JUMPDEST PUSH1 0x40 MLOAD PUSH2 0x2F0 SWAP2 SWAP1 PUSH2 0x1B64 JUMP JUMPDEST PUSH1 0x40 MLOAD DUP1 SWAP2 SUB SWAP1 RETURN JUMPDEST PUSH2 0x313 PUSH1 0x4 DUP1 CALLDATASIZE SUB DUP2 ADD SWAP1 PUSH2 0x30E SWAP2 SWAP1 PUSH2 0x17E8 JUMP JUMPDEST PUSH2 0x16C9 JUMP JUMPDEST PUSH1 0x40 MLOAD PUSH2 0x322 SWAP4 SWAP3 SWAP2 SWAP1 PUSH2 0x1DD4 JUMP JUMPDEST PUSH1 0x40 MLOAD DUP1 SWAP2 SUB SWAP1 RETURN JUMPDEST PUSH2 0x333 PUSH2 0x1739 JUMP JUMPDEST PUSH1 0x40 MLOAD PUSH2 0x340 SWAP2 SWAP1 PUSH2 0x1856 JUMP JUMPDEST PUSH1 0x40 MLOAD DUP1 SWAP2 SUB SWAP1 RETURN JUMPDEST PUSH1 0x9 DUP2 DUP2 SLOAD DUP2 LT PUSH2 0x359 JUMPI PUSH1 0x0 DUP1 REVERT JUMPDEST SWAP1 PUSH1 0x0 MSTORE PUSH1 0x20 PUSH1 0x0 KECCAK256 ADD PUSH1 0x0 SWAP2 POP SLOAD SWAP1 PUSH2 0x100 EXP SWAP1 DIV PUSH20 0xFFFFFFFFFFFFFFFFFFFFFFFFFFFFFFFFFFFFFFFF AND DUP2 JUMP JUMPDEST PUSH1 0x3 PUSH1 0x0 SWAP1 SLOAD SWAP1 PUSH2 0x100 EXP SWAP1 DIV PUSH20 0xFFFFFFFFFFFFFFFFFFFFFFFFFFFFFFFFFFFFFFFF AND PUSH20 0xFFFFFFFFFFFFFFFFFFFFFFFFFFFFFFFFFFFFFFFF AND CALLER PUSH20 0xFFFFFFFFFFFFFFFFFFFFFFFFFFFFFFFFFFFFFFFF AND EQ PUSH2 0x418 JUMPI PUSH1 0x40 MLOAD PUSH32 0x8C379A000000000000000000000000000000000000000000000000000000000 DUP2 MSTORE PUSH1 0x4 ADD PUSH2 0x40F SWAP1 PUSH2 0x1ED7 JUMP JUMPDEST PUSH1 0x40 MLOAD DUP1 SWAP2 SUB SWAP1 REVERT JUMPDEST PUSH1 0x3 PUSH1 0x0 SWAP1 SLOAD SWAP1 PUSH2 0x100 EXP SWAP1 DIV PUSH20 0xFFFFFFFFFFFFFFFFFFFFFFFFFFFFFFFFFFFFFFFF AND PUSH20 0xFFFFFFFFFFFFFFFFFFFFFFFFFFFFFFFFFFFFFFFF AND DUP2 PUSH20 0xFFFFFFFFFFFFFFFFFFFFFFFFFFFFFFFFFFFFFFFF AND SUB PUSH2 0x4A8 JUMPI PUSH1 0x40 MLOAD PUSH32 0x8C379A000000000000000000000000000000000000000000000000000000000 DUP2 MSTORE PUSH1 0x4 ADD PUSH2 0x49F SWAP1 PUSH2 0x1F43 JUMP JUMPDEST PUSH1 0x40 MLOAD DUP1 SWAP2 SUB SWAP1 REVERT JUMPDEST PUSH1 0x0 PUSH20 0xFFFFFFFFFFFFFFFFFFFFFFFFFFFFFFFFFFFFFFFF AND PUSH1 0xA PUSH1 0x0 DUP4 PUSH20 0xFFFFFFFFFFFFFFFFFFFFFFFFFFFFFFFFFFFFFFFF AND PUSH20 0xFFFFFFFFFFFFFFFFFFFFFFFFFFFFFFFFFFFFFFFF AND DUP2 MSTORE PUSH1 0x20 ADD SWAP1 DUP2 MSTORE PUSH1 0x20 ADD PUSH1 0x0 KECCAK256 PUSH1 0x0 ADD PUSH1 0x1 SWAP1 SLOAD SWAP1 PUSH2 0x100 EXP SWAP1 DIV PUSH20 0xFFFFFFFFFFFFFFFFFFFFFFFFFFFFFFFFFFFFFFFF AND PUSH20 0xFFFFFFFFFFFFFFFFFFFFFFFFFFFFFFFFFFFFFFFF AND EQ PUSH2 0x579 JUMPI PUSH1 0x40 MLOAD PUSH32 0x8C379A000000000000000000000000000000000000000000000000000000000 DUP2 MSTORE PUSH1 0x4 ADD PUSH2 0x570 SWAP1 PUSH2 0x1FAF JUMP JUMPDEST PUSH1 0x40 MLOAD DUP1 SWAP2 SUB SWAP1 REVERT JUMPDEST PUSH1 0x1 SLOAD TIMESTAMP LT PUSH2 0x5BD JUMPI PUSH1 0x40 MLOAD PUSH32 0x8C379A000000000000000000000000000000000000000000000000000000000 DUP2 MSTORE PUSH1 0x4 ADD PUSH2 0x5B4 SWAP1 PUSH2 0x2041 JUMP JUMPDEST PUSH1 0x40 MLOAD DUP1 SWAP2 SUB SWAP1 REVERT JUMPDEST PUSH1 0x0 PUSH1 0x40 MLOAD DUP1 PUSH1 0x60 ADD PUSH1 0x40 MSTORE DUP1 PUSH1 0x0 ISZERO ISZERO DUP2 MSTORE PUSH1 0x20 ADD DUP4 PUSH20 0xFFFFFFFFFFFFFFFFFFFFFFFFFFFFFFFFFFFFFFFF AND DUP2 MSTORE PUSH1 0x20 ADD PUSH1 0x0 ISZERO ISZERO DUP2 MSTORE POP SWAP1 POP DUP1 PUSH1 0xA PUSH1 0x0 DUP5 PUSH20 0xFFFFFFFFFFFFFFFFFFFFFFFFFFFFFFFFFFFFFFFF AND PUSH20 0xFFFFFFFFFFFFFFFFFFFFFFFFFFFFFFFFFFFFFFFF AND DUP2 MSTORE PUSH1 0x20 ADD SWAP1 DUP2 MSTORE PUSH1 0x20 ADD PUSH1 0x0 KECCAK256 PUSH1 0x0 DUP3 ADD MLOAD DUP2 PUSH1 0x0 ADD PUSH1 0x0 PUSH2 0x100 EXP DUP2 SLOAD DUP2 PUSH1 0xFF MUL NOT AND SWAP1 DUP4 ISZERO ISZERO MUL OR SWAP1 SSTORE POP PUSH1 0x20 DUP3 ADD MLOAD DUP2 PUSH1 0x0 ADD PUSH1 0x1 PUSH2 0x100 EXP DUP2 SLOAD DUP2 PUSH20 0xFFFFFFFFFFFFFFFFFFFFFFFFFFFFFFFFFFFFFFFF MUL NOT AND SWAP1 DUP4 PUSH20 0xFFFFFFFFFFFFFFFFFFFFFFFFFFFFFFFFFFFFFFFF AND MUL OR SWAP1 SSTORE POP PUSH1 0x40 DUP3 ADD MLOAD DUP2 PUSH1 0x0 ADD PUSH1 0x15 PUSH2 0x100 EXP DUP2 SLOAD DUP2 PUSH1 0xFF MUL NOT AND SWAP1 DUP4 ISZERO ISZERO MUL OR SWAP1 SSTORE POP SWAP1 POP POP PUSH1 0x9 DUP3 SWAP1 DUP1 PUSH1 0x1 DUP2 SLOAD ADD DUP1 DUP3 SSTORE DUP1 SWAP2 POP POP PUSH1 0x1 SWAP1 SUB SWAP1 PUSH1 0x0 MSTORE PUSH1 0x20 PUSH1 0x0 KECCAK256 ADD PUSH1 0x0 SWAP1 SWAP2 SWAP1 SWAP2 SWAP1 SWAP2 PUSH2 0x100 EXP DUP2 SLOAD DUP2 PUSH20 0xFFFFFFFFFFFFFFFFFFFFFFFFFFFFFFFFFFFFFFFF MUL NOT AND SWAP1 DUP4 PUSH20 0xFFFFFFFFFFFFFFFFFFFFFFFFFFFFFFFFFFFFFFFF AND MUL OR SWAP1 SSTORE POP POP POP JUMP JUMPDEST PUSH1 0x60 PUSH1 0xB PUSH1 0x1 ADD DUP1 SLOAD PUSH2 0x73B SWAP1 PUSH2 0x2090 JUMP JUMPDEST DUP1 PUSH1 0x1F ADD PUSH1 0x20 DUP1 SWAP2 DIV MUL PUSH1 0x20 ADD PUSH1 0x40 MLOAD SWAP1 DUP2 ADD PUSH1 0x40 MSTORE DUP1 SWAP3 SWAP2 SWAP1 DUP2 DUP2 MSTORE PUSH1 0x20 ADD DUP3 DUP1 SLOAD PUSH2 0x767 SWAP1 PUSH2 0x2090 JUMP JUMPDEST DUP1 ISZERO PUSH2 0x7B4 JUMPI DUP1 PUSH1 0x1F LT PUSH2 0x789 JUMPI PUSH2 0x100 DUP1 DUP4 SLOAD DIV MUL DUP4 MSTORE SWAP2 PUSH1 0x20 ADD SWAP2 PUSH2 0x7B4 JUMP JUMPDEST DUP3 ADD SWAP2 SWAP1 PUSH1 0x0 MSTORE PUSH1 0x20 PUSH1 0x0 KECCAK256 SWAP1 JUMPDEST DUP2 SLOAD DUP2 MSTORE SWAP1 PUSH1 0x1 ADD SWAP1 PUSH1 0x20 ADD DUP1 DUP4 GT PUSH2 0x797 JUMPI DUP3 SWAP1 SUB PUSH1 0x1F AND DUP3 ADD SWAP2 JUMPDEST POP POP POP POP POP SWAP1 POP SWAP1 JUMP JUMPDEST PUSH1 0x1 SLOAD TIMESTAMP LT PUSH2 0x802 JUMPI PUSH1 0x40 MLOAD PUSH32 0x8C379A000000000000000000000000000000000000000000000000000000000 DUP2 MSTORE PUSH1 0x4 ADD PUSH2 0x7F9 SWAP1 PUSH2 0x210D JUMP JUMPDEST PUSH1 0x40 MLOAD DUP1 SWAP2 SUB SWAP1 REVERT JUMPDEST PUSH1 0x0 PUSH1 0xA PUSH1 0x0 CALLER PUSH20 0xFFFFFFFFFFFFFFFFFFFFFFFFFFFFFFFFFFFFFFFF AND PUSH20 0xFFFFFFFFFFFFFFFFFFFFFFFFFFFFFFFFFFFFFFFF AND DUP2 MSTORE PUSH1 0x20 ADD SWAP1 DUP2 MSTORE PUSH1 0x20 ADD PUSH1 0x0 KECCAK256 PUSH1 0x40 MLOAD DUP1 PUSH1 0x60 ADD PUSH1 0x40 MSTORE SWAP1 DUP2 PUSH1 0x0 DUP3 ADD PUSH1 0x0 SWAP1 SLOAD SWAP1 PUSH2 0x100 EXP SWAP1 DIV PUSH1 0xFF AND ISZERO ISZERO ISZERO ISZERO DUP2 MSTORE PUSH1 0x20 ADD PUSH1 0x0 DUP3 ADD PUSH1 0x1 SWAP1 SLOAD SWAP1 PUSH2 0x100 EXP SWAP1 DIV PUSH20 0xFFFFFFFFFFFFFFFFFFFFFFFFFFFFFFFFFFFFFFFF AND PUSH20 0xFFFFFFFFFFFFFFFFFFFFFFFFFFFFFFFFFFFFFFFF AND PUSH20 0xFFFFFFFFFFFFFFFFFFFFFFFFFFFFFFFFFFFFFFFF AND DUP2 MSTORE PUSH1 0x20 ADD PUSH1 0x0 DUP3 ADD PUSH1 0x15 SWAP1 SLOAD SWAP1 PUSH2 0x100 EXP SWAP1 DIV PUSH1 0xFF AND ISZERO ISZERO ISZERO ISZERO DUP2 MSTORE POP POP SWAP1 POP PUSH1 0x0 PUSH20 0xFFFFFFFFFFFFFFFFFFFFFFFFFFFFFFFFFFFFFFFF AND DUP2 PUSH1 0x20 ADD MLOAD PUSH20 0xFFFFFFFFFFFFFFFFFFFFFFFFFFFFFFFFFFFFFFFF AND SUB PUSH2 0x94F JUMPI PUSH1 0x40 MLOAD PUSH32 0x8C379A000000000000000000000000000000000000000000000000000000000 DUP2 MSTORE PUSH1 0x4 ADD PUSH2 0x946 SWAP1 PUSH2 0x2179 JUMP JUMPDEST PUSH1 0x40 MLOAD DUP1 SWAP2 SUB SWAP1 REVERT JUMPDEST DUP1 PUSH1 0x0 ADD MLOAD ISZERO PUSH2 0x994 JUMPI PUSH1 0x40 MLOAD PUSH32 0x8C379A000000000000000000000000000000000000000000000000000000000 DUP2 MSTORE PUSH1 0x4 ADD PUSH2 0x98B SWAP1 PUSH2 0x21E5 JUMP JUMPDEST PUSH1 0x40 MLOAD DUP1 SWAP2 SUB SWAP1 REVERT JUMPDEST PUSH1 0x40 MLOAD DUP1 PUSH1 0x40 ADD PUSH1 0x40 MSTORE DUP1 PUSH1 0x9 DUP2 MSTORE PUSH1 0x20 ADD PUSH32 0x6920617070726F76650000000000000000000000000000000000000000000000 DUP2 MSTORE POP DUP1 MLOAD SWAP1 PUSH1 0x20 ADD KECCAK256 DUP3 DUP1 MLOAD SWAP1 PUSH1 0x20 ADD KECCAK256 SUB PUSH2 0xBF9 JUMPI PUSH1 0x1 PUSH1 0xA PUSH1 0x0 CALLER PUSH20 0xFFFFFFFFFFFFFFFFFFFFFFFFFFFFFFFFFFFFFFFF AND PUSH20 0xFFFFFFFFFFFFFFFFFFFFFFFFFFFFFFFFFFFFFFFF AND DUP2 MSTORE PUSH1 0x20 ADD SWAP1 DUP2 MSTORE PUSH1 0x20 ADD PUSH1 0x0 KECCAK256 PUSH1 0x0 ADD PUSH1 0x0 PUSH2 0x100 EXP DUP2 SLOAD DUP2 PUSH1 0xFF MUL NOT AND SWAP1 DUP4 ISZERO ISZERO MUL OR SWAP1 SSTORE POP PUSH1 0x1 PUSH1 0xA PUSH1 0x0 CALLER PUSH20 0xFFFFFFFFFFFFFFFFFFFFFFFFFFFFFFFFFFFFFFFF AND PUSH20 0xFFFFFFFFFFFFFFFFFFFFFFFFFFFFFFFFFFFFFFFF AND DUP2 MSTORE PUSH1 0x20 ADD SWAP1 DUP2 MSTORE PUSH1 0x20 ADD PUSH1 0x0 KECCAK256 PUSH1 0x0 ADD PUSH1 0x15 PUSH2 0x100 EXP DUP2 SLOAD DUP2 PUSH1 0xFF MUL NOT AND SWAP1 DUP4 ISZERO ISZERO MUL OR SWAP1 SSTORE POP PUSH1 0x1 PUSH1 0x6 PUSH1 0x0 DUP3 DUP3 SLOAD PUSH2 0xAA7 SWAP2 SWAP1 PUSH2 0x2234 JUMP JUMPDEST SWAP3 POP POP DUP2 SWAP1 SSTORE POP PUSH1 0x1 PUSH1 0xB PUSH1 0x0 ADD PUSH1 0x0 DUP3 DUP3 SLOAD PUSH2 0xAC4 SWAP2 SWAP1 PUSH2 0x2234 JUMP JUMPDEST SWAP3 POP POP DUP2 SWAP1 SSTORE POP PUSH1 0x8 PUSH1 0xA PUSH1 0x0 CALLER PUSH20 0xFFFFFFFFFFFFFFFFFFFFFFFFFFFFFFFFFFFFFFFF AND PUSH20 0xFFFFFFFFFFFFFFFFFFFFFFFFFFFFFFFFFFFFFFFF AND DUP2 MSTORE PUSH1 0x20 ADD SWAP1 DUP2 MSTORE PUSH1 0x20 ADD PUSH1 0x0 KECCAK256 SWAP1 DUP1 PUSH1 0x1 DUP2 SLOAD ADD DUP1 DUP3 SSTORE DUP1 SWAP2 POP POP PUSH1 0x1 SWAP1 SUB SWAP1 PUSH1 0x0 MSTORE PUSH1 0x20 PUSH1 0x0 KECCAK256 ADD PUSH1 0x0 SWAP1 SWAP2 SWAP1 SWAP2 SWAP1 SWAP2 POP PUSH1 0x0 DUP3 ADD PUSH1 0x0 SWAP1 SLOAD SWAP1 PUSH2 0x100 EXP SWAP1 DIV PUSH1 0xFF AND DUP2 PUSH1 0x0 ADD PUSH1 0x0 PUSH2 0x100 EXP DUP2 SLOAD DUP2 PUSH1 0xFF MUL NOT AND SWAP1 DUP4 ISZERO ISZERO MUL OR SWAP1 SSTORE POP PUSH1 0x0 DUP3 ADD PUSH1 0x1 SWAP1 SLOAD SWAP1 PUSH2 0x100 EXP SWAP1 DIV PUSH20 0xFFFFFFFFFFFFFFFFFFFFFFFFFFFFFFFFFFFFFFFF AND DUP2 PUSH1 0x0 ADD PUSH1 0x1 PUSH2 0x100 EXP DUP2 SLOAD DUP2 PUSH20 0xFFFFFFFFFFFFFFFFFFFFFFFFFFFFFFFFFFFFFFFF MUL NOT AND SWAP1 DUP4 PUSH20 0xFFFFFFFFFFFFFFFFFFFFFFFFFFFFFFFFFFFFFFFF AND MUL OR SWAP1 SSTORE POP PUSH1 0x0 DUP3 ADD PUSH1 0x15 SWAP1 SLOAD SWAP1 PUSH2 0x100 EXP SWAP1 DIV PUSH1 0xFF AND DUP2 PUSH1 0x0 ADD PUSH1 0x15 PUSH2 0x100 EXP DUP2 SLOAD DUP2 PUSH1 0xFF MUL NOT AND SWAP1 DUP4 ISZERO ISZERO MUL OR SWAP1 SSTORE POP POP POP PUSH2 0xDE6 JUMP JUMPDEST PUSH1 0x40 MLOAD DUP1 PUSH1 0x40 ADD PUSH1 0x40 MSTORE DUP1 PUSH1 0xC DUP2 MSTORE PUSH1 0x20 ADD PUSH32 0x6920646973617070726F76650000000000000000000000000000000000000000 DUP2 MSTORE POP DUP1 MLOAD SWAP1 PUSH1 0x20 ADD KECCAK256 DUP3 DUP1 MLOAD SWAP1 PUSH1 0x20 ADD KECCAK256 SUB PUSH2 0xDE5 JUMPI PUSH1 0x1 PUSH1 0xA PUSH1 0x0 CALLER PUSH20 0xFFFFFFFFFFFFFFFFFFFFFFFFFFFFFFFFFFFFFFFF AND PUSH20 0xFFFFFFFFFFFFFFFFFFFFFFFFFFFFFFFFFFFFFFFF AND DUP2 MSTORE PUSH1 0x20 ADD SWAP1 DUP2 MSTORE PUSH1 0x20 ADD PUSH1 0x0 KECCAK256 PUSH1 0x0 ADD PUSH1 0x0 PUSH2 0x100 EXP DUP2 SLOAD DUP2 PUSH1 0xFF MUL NOT AND SWAP1 DUP4 ISZERO ISZERO MUL OR SWAP1 SSTORE POP PUSH1 0x1 PUSH1 0xB PUSH1 0x0 ADD PUSH1 0x0 DUP3 DUP3 SLOAD PUSH2 0xCB4 SWAP2 SWAP1 PUSH2 0x2234 JUMP JUMPDEST SWAP3 POP POP DUP2 SWAP1 SSTORE POP PUSH1 0x8 PUSH1 0xA PUSH1 0x0 CALLER PUSH20 0xFFFFFFFFFFFFFFFFFFFFFFFFFFFFFFFFFFFFFFFF AND PUSH20 0xFFFFFFFFFFFFFFFFFFFFFFFFFFFFFFFFFFFFFFFF AND DUP2 MSTORE PUSH1 0x20 ADD SWAP1 DUP2 MSTORE PUSH1 0x20 ADD PUSH1 0x0 KECCAK256 SWAP1 DUP1 PUSH1 0x1 DUP2 SLOAD ADD DUP1 DUP3 SSTORE DUP1 SWAP2 POP POP PUSH1 0x1 SWAP1 SUB SWAP1 PUSH1 0x0 MSTORE PUSH1 0x20 PUSH1 0x0 KECCAK256 ADD PUSH1 0x0 SWAP1 SWAP2 SWAP1 SWAP2 SWAP1 SWAP2 POP PUSH1 0x0 DUP3 ADD PUSH1 0x0 SWAP1 SLOAD SWAP1 PUSH2 0x100 EXP SWAP1 DIV PUSH1 0xFF AND DUP2 PUSH1 0x0 ADD PUSH1 0x0 PUSH2 0x100 EXP DUP2 SLOAD DUP2 PUSH1 0xFF MUL NOT AND SWAP1 DUP4 ISZERO ISZERO MUL OR SWAP1 SSTORE POP PUSH1 0x0 DUP3 ADD PUSH1 0x1 SWAP1 SLOAD SWAP1 PUSH2 0x100 EXP SWAP1 DIV PUSH20 0xFFFFFFFFFFFFFFFFFFFFFFFFFFFFFFFFFFFFFFFF AND DUP2 PUSH1 0x0 ADD PUSH1 0x1 PUSH2 0x100 EXP DUP2 SLOAD DUP2 PUSH20 0xFFFFFFFFFFFFFFFFFFFFFFFFFFFFFFFFFFFFFFFF MUL NOT AND SWAP1 DUP4 PUSH20 0xFFFFFFFFFFFFFFFFFFFFFFFFFFFFFFFFFFFFFFFF AND MUL OR SWAP1 SSTORE POP PUSH1 0x0 DUP3 ADD PUSH1 0x15 SWAP1 SLOAD SWAP1 PUSH2 0x100 EXP SWAP1 DIV PUSH1 0xFF AND DUP2 PUSH1 0x0 ADD PUSH1 0x15 PUSH2 0x100 EXP DUP2 SLOAD DUP2 PUSH1 0xFF MUL NOT AND SWAP1 DUP4 ISZERO ISZERO MUL OR SWAP1 SSTORE POP POP POP JUMPDEST JUMPDEST POP POP JUMP JUMPDEST PUSH1 0x0 DUP1 PUSH1 0x0 PUSH1 0xA PUSH1 0x0 DUP6 PUSH20 0xFFFFFFFFFFFFFFFFFFFFFFFFFFFFFFFFFFFFFFFF AND PUSH20 0xFFFFFFFFFFFFFFFFFFFFFFFFFFFFFFFFFFFFFFFF AND DUP2 MSTORE PUSH1 0x20 ADD SWAP1 DUP2 MSTORE PUSH1 0x20 ADD PUSH1 0x0 KECCAK256 PUSH1 0x0 ADD PUSH1 0x15 SWAP1 SLOAD SWAP1 PUSH2 0x100 EXP SWAP1 DIV PUSH1 0xFF AND PUSH1 0xA PUSH1 0x0 DUP7 PUSH20 0xFFFFFFFFFFFFFFFFFFFFFFFFFFFFFFFFFFFFFFFF AND PUSH20 0xFFFFFFFFFFFFFFFFFFFFFFFFFFFFFFFFFFFFFFFF AND DUP2 MSTORE PUSH1 0x20 ADD SWAP1 DUP2 MSTORE PUSH1 0x20 ADD PUSH1 0x0 KECCAK256 PUSH1 0x0 ADD PUSH1 0x0 SWAP1 SLOAD SWAP1 PUSH2 0x100 EXP SWAP1 DIV PUSH1 0xFF AND PUSH1 0xA PUSH1 0x0 DUP8 PUSH20 0xFFFFFFFFFFFFFFFFFFFFFFFFFFFFFFFFFFFFFFFF AND PUSH20 0xFFFFFFFFFFFFFFFFFFFFFFFFFFFFFFFFFFFFFFFF AND DUP2 MSTORE PUSH1 0x20 ADD SWAP1 DUP2 MSTORE PUSH1 0x20 ADD PUSH1 0x0 KECCAK256 PUSH1 0x0 ADD PUSH1 0x1 SWAP1 SLOAD SWAP1 PUSH2 0x100 EXP SWAP1 DIV PUSH20 0xFFFFFFFFFFFFFFFFFFFFFFFFFFFFFFFFFFFFFFFF AND SWAP3 POP SWAP3 POP SWAP3 POP SWAP2 SWAP4 SWAP1 SWAP3 POP JUMP JUMPDEST PUSH1 0x3 PUSH1 0x0 SWAP1 SLOAD SWAP1 PUSH2 0x100 EXP SWAP1 DIV PUSH20 0xFFFFFFFFFFFFFFFFFFFFFFFFFFFFFFFFFFFFFFFF AND DUP2 JUMP JUMPDEST PUSH1 0x5 SLOAD DUP2 JUMP JUMPDEST PUSH1 0x6 SLOAD DUP2 JUMP JUMPDEST PUSH1 0xB DUP1 PUSH1 0x0 ADD SLOAD SWAP1 DUP1 PUSH1 0x1 ADD DUP1 SLOAD PUSH2 0xF48 SWAP1 PUSH2 0x2090 JUMP JUMPDEST DUP1 PUSH1 0x1F ADD PUSH1 0x20 DUP1 SWAP2 DIV MUL PUSH1 0x20 ADD PUSH1 0x40 MLOAD SWAP1 DUP2 ADD PUSH1 0x40 MSTORE DUP1 SWAP3 SWAP2 SWAP1 DUP2 DUP2 MSTORE PUSH1 0x20 ADD DUP3 DUP1 SLOAD PUSH2 0xF74 SWAP1 PUSH2 0x2090 JUMP JUMPDEST DUP1 ISZERO PUSH2 0xFC1 JUMPI DUP1 PUSH1 0x1F LT PUSH2 0xF96 JUMPI PUSH2 0x100 DUP1 DUP4 SLOAD DIV MUL DUP4 MSTORE SWAP2 PUSH1 0x20 ADD SWAP2 PUSH2 0xFC1 JUMP JUMPDEST DUP3 ADD SWAP2 SWAP1 PUSH1 0x0 MSTORE PUSH1 0x20 PUSH1 0x0 KECCAK256 SWAP1 JUMPDEST DUP2 SLOAD DUP2 MSTORE SWAP1 PUSH1 0x1 ADD SWAP1 PUSH1 0x20 ADD DUP1 DUP4 GT PUSH2 0xFA4 JUMPI DUP3 SWAP1 SUB PUSH1 0x1F AND DUP3 ADD SWAP2 JUMPDEST POP POP POP POP POP SWAP1 POP DUP3 JUMP JUMPDEST PUSH1 0x1 SLOAD TIMESTAMP LT ISZERO PUSH2 0x1010 JUMPI PUSH1 0x40 MLOAD PUSH32 0x8C379A000000000000000000000000000000000000000000000000000000000 DUP2 MSTORE PUSH1 0x4 ADD PUSH2 0x1007 SWAP1 PUSH2 0x22D6 JUMP JUMPDEST PUSH1 0x40 MLOAD DUP1 SWAP2 SUB SWAP1 REVERT JUMPDEST PUSH1 0x1 PUSH1 0x7 SLOAD EQ PUSH2 0x1055 JUMPI PUSH1 0x40 MLOAD PUSH32 0x8C379A000000000000000000000000000000000000000000000000000000000 DUP2 MSTORE PUSH1 0x4 ADD PUSH2 0x104C SWAP1 PUSH2 0x2368 JUMP JUMPDEST PUSH1 0x40 MLOAD DUP1 SWAP2 SUB SWAP1 REVERT JUMPDEST PUSH1 0x64 PUSH1 0x9 DUP1 SLOAD SWAP1 POP PUSH1 0x6 SLOAD PUSH2 0x106A SWAP2 SWAP1 PUSH2 0x23B7 JUMP JUMPDEST PUSH2 0x1074 SWAP2 SWAP1 PUSH2 0x23E8 JUMP JUMPDEST PUSH1 0x5 DUP2 SWAP1 SSTORE POP PUSH1 0x4 SLOAD PUSH1 0x5 SLOAD LT PUSH2 0x10CB JUMPI PUSH1 0x40 MLOAD DUP1 PUSH1 0x40 ADD PUSH1 0x40 MSTORE DUP1 PUSH1 0x8 DUP2 MSTORE PUSH1 0x20 ADD PUSH32 0x4163636570746564000000000000000000000000000000000000000000000000 DUP2 MSTORE POP PUSH1 0x2 SWAP1 DUP2 PUSH2 0x10C9 SWAP2 SWAP1 PUSH2 0x25EE JUMP JUMPDEST POP JUMPDEST PUSH1 0x0 JUMPDEST PUSH1 0x9 DUP1 SLOAD SWAP1 POP DUP2 PUSH1 0xFF AND LT ISZERO PUSH2 0x12F8 JUMPI PUSH1 0x0 ISZERO ISZERO PUSH1 0xA PUSH1 0x0 PUSH1 0x9 DUP5 PUSH1 0xFF AND DUP2 SLOAD DUP2 LT PUSH2 0x10FD JUMPI PUSH2 0x10FC PUSH2 0x26C0 JUMP JUMPDEST JUMPDEST SWAP1 PUSH1 0x0 MSTORE PUSH1 0x20 PUSH1 0x0 KECCAK256 ADD PUSH1 0x0 SWAP1 SLOAD SWAP1 PUSH2 0x100 EXP SWAP1 DIV PUSH20 0xFFFFFFFFFFFFFFFFFFFFFFFFFFFFFFFFFFFFFFFF AND PUSH20 0xFFFFFFFFFFFFFFFFFFFFFFFFFFFFFFFFFFFFFFFF AND PUSH20 0xFFFFFFFFFFFFFFFFFFFFFFFFFFFFFFFFFFFFFFFF AND DUP2 MSTORE PUSH1 0x20 ADD SWAP1 DUP2 MSTORE PUSH1 0x20 ADD PUSH1 0x0 KECCAK256 PUSH1 0x0 ADD PUSH1 0x0 SWAP1 SLOAD SWAP1 PUSH2 0x100 EXP SWAP1 DIV PUSH1 0xFF AND ISZERO ISZERO SUB PUSH2 0x12E5 JUMPI PUSH1 0x8 PUSH1 0xA PUSH1 0x0 PUSH1 0x9 DUP5 PUSH1 0xFF AND DUP2 SLOAD DUP2 LT PUSH2 0x1197 JUMPI PUSH2 0x1196 PUSH2 0x26C0 JUMP JUMPDEST JUMPDEST SWAP1 PUSH1 0x0 MSTORE PUSH1 0x20 PUSH1 0x0 KECCAK256 ADD PUSH1 0x0 SWAP1 SLOAD SWAP1 PUSH2 0x100 EXP SWAP1 DIV PUSH20 0xFFFFFFFFFFFFFFFFFFFFFFFFFFFFFFFFFFFFFFFF AND PUSH20 0xFFFFFFFFFFFFFFFFFFFFFFFFFFFFFFFFFFFFFFFF AND PUSH20 0xFFFFFFFFFFFFFFFFFFFFFFFFFFFFFFFFFFFFFFFF AND DUP2 MSTORE PUSH1 0x20 ADD SWAP1 DUP2 MSTORE PUSH1 0x20 ADD PUSH1 0x0 KECCAK256 SWAP1 DUP1 PUSH1 0x1 DUP2 SLOAD ADD DUP1 DUP3 SSTORE DUP1 SWAP2 POP POP PUSH1 0x1 SWAP1 SUB SWAP1 PUSH1 0x0 MSTORE PUSH1 0x20 PUSH1 0x0 KECCAK256 ADD PUSH1 0x0 SWAP1 SWAP2 SWAP1 SWAP2 SWAP1 SWAP2 POP PUSH1 0x0 DUP3 ADD PUSH1 0x0 SWAP1 SLOAD SWAP1 PUSH2 0x100 EXP SWAP1 DIV PUSH1 0xFF AND DUP2 PUSH1 0x0 ADD PUSH1 0x0 PUSH2 0x100 EXP DUP2 SLOAD DUP2 PUSH1 0xFF MUL NOT AND SWAP1 DUP4 ISZERO ISZERO MUL OR SWAP1 SSTORE POP PUSH1 0x0 DUP3 ADD PUSH1 0x1 SWAP1 SLOAD SWAP1 PUSH2 0x100 EXP SWAP1 DIV PUSH20 0xFFFFFFFFFFFFFFFFFFFFFFFFFFFFFFFFFFFFFFFF AND DUP2 PUSH1 0x0 ADD PUSH1 0x1 PUSH2 0x100 EXP DUP2 SLOAD DUP2 PUSH20 0xFFFFFFFFFFFFFFFFFFFFFFFFFFFFFFFFFFFFFFFF MUL NOT AND SWAP1 DUP4 PUSH20 0xFFFFFFFFFFFFFFFFFFFFFFFFFFFFFFFFFFFFFFFF AND MUL OR SWAP1 SSTORE POP PUSH1 0x0 DUP3 ADD PUSH1 0x15 SWAP1 SLOAD SWAP1 PUSH2 0x100 EXP SWAP1 DIV PUSH1 0xFF AND DUP2 PUSH1 0x0 ADD PUSH1 0x15 PUSH2 0x100 EXP DUP2 SLOAD DUP2 PUSH1 0xFF MUL NOT AND SWAP1 DUP4 ISZERO ISZERO MUL OR SWAP1 SSTORE POP POP POP JUMPDEST DUP1 DUP1 PUSH2 0x12F0 SWAP1 PUSH2 0x26FC JUMP JUMPDEST SWAP2 POP POP PUSH2 0x10CE JUMP JUMPDEST POP JUMP JUMPDEST PUSH2 0x1303 PUSH2 0x175D JUMP JUMPDEST PUSH1 0x1 SLOAD TIMESTAMP LT ISZERO PUSH2 0x1348 JUMPI PUSH1 0x40 MLOAD PUSH32 0x8C379A000000000000000000000000000000000000000000000000000000000 DUP2 MSTORE PUSH1 0x4 ADD PUSH2 0x133F SWAP1 PUSH2 0x22D6 JUMP JUMPDEST PUSH1 0x40 MLOAD DUP1 SWAP2 SUB SWAP1 REVERT JUMPDEST PUSH1 0xD PUSH1 0x40 MLOAD DUP1 PUSH1 0x60 ADD PUSH1 0x40 MSTORE SWAP1 DUP2 PUSH1 0x0 DUP3 ADD DUP1 SLOAD PUSH2 0x1365 SWAP1 PUSH2 0x2090 JUMP JUMPDEST DUP1 PUSH1 0x1F ADD PUSH1 0x20 DUP1 SWAP2 DIV MUL PUSH1 0x20 ADD PUSH1 0x40 MLOAD SWAP1 DUP2 ADD PUSH1 0x40 MSTORE DUP1 SWAP3 SWAP2 SWAP1 DUP2 DUP2 MSTORE PUSH1 0x20 ADD DUP3 DUP1 SLOAD PUSH2 0x1391 SWAP1 PUSH2 0x2090 JUMP JUMPDEST DUP1 ISZERO PUSH2 0x13DE JUMPI DUP1 PUSH1 0x1F LT PUSH2 0x13B3 JUMPI PUSH2 0x100 DUP1 DUP4 SLOAD DIV MUL DUP4 MSTORE SWAP2 PUSH1 0x20 ADD SWAP2 PUSH2 0x13DE JUMP JUMPDEST DUP3 ADD SWAP2 SWAP1 PUSH1 0x0 MSTORE PUSH1 0x20 PUSH1 0x0 KECCAK256 SWAP1 JUMPDEST DUP2 SLOAD DUP2 MSTORE SWAP1 PUSH1 0x1 ADD SWAP1 PUSH1 0x20 ADD DUP1 DUP4 GT PUSH2 0x13C1 JUMPI DUP3 SWAP1 SUB PUSH1 0x1F AND DUP3 ADD SWAP2 JUMPDEST POP POP POP POP POP DUP2 MSTORE PUSH1 0x20 ADD PUSH1 0x1 DUP3 ADD PUSH1 0x40 MLOAD DUP1 PUSH1 0x40 ADD PUSH1 0x40 MSTORE SWAP1 DUP2 PUSH1 0x0 DUP3 ADD SLOAD DUP2 MSTORE PUSH1 0x20 ADD PUSH1 0x1 DUP3 ADD DUP1 SLOAD PUSH2 0x1411 SWAP1 PUSH2 0x2090 JUMP JUMPDEST DUP1 PUSH1 0x1F ADD PUSH1 0x20 DUP1 SWAP2 DIV MUL PUSH1 0x20 ADD PUSH1 0x40 MLOAD SWAP1 DUP2 ADD PUSH1 0x40 MSTORE DUP1 SWAP3 SWAP2 SWAP1 DUP2 DUP2 MSTORE PUSH1 0x20 ADD DUP3 DUP1 SLOAD PUSH2 0x143D SWAP1 PUSH2 0x2090 JUMP JUMPDEST DUP1 ISZERO PUSH2 0x148A JUMPI DUP1 PUSH1 0x1F LT PUSH2 0x145F JUMPI PUSH2 0x100 DUP1 DUP4 SLOAD DIV MUL DUP4 MSTORE SWAP2 PUSH1 0x20 ADD SWAP2 PUSH2 0x148A JUMP JUMPDEST DUP3 ADD SWAP2 SWAP1 PUSH1 0x0 MSTORE PUSH1 0x20 PUSH1 0x0 KECCAK256 SWAP1 JUMPDEST DUP2 SLOAD DUP2 MSTORE SWAP1 PUSH1 0x1 ADD SWAP1 PUSH1 0x20 ADD DUP1 DUP4 GT PUSH2 0x146D JUMPI DUP3 SWAP1 SUB PUSH1 0x1F AND DUP3 ADD SWAP2 JUMPDEST POP POP POP POP POP DUP2 MSTORE POP POP DUP2 MSTORE PUSH1 0x20 ADD PUSH1 0x3 DUP3 ADD DUP1 SLOAD DUP1 PUSH1 0x20 MUL PUSH1 0x20 ADD PUSH1 0x40 MLOAD SWAP1 DUP2 ADD PUSH1 0x40 MSTORE DUP1 SWAP3 SWAP2 SWAP1 DUP2 DUP2 MSTORE PUSH1 0x20 ADD PUSH1 0x0 SWAP1 JUMPDEST DUP3 DUP3 LT ISZERO PUSH2 0x1576 JUMPI DUP4 DUP3 SWAP1 PUSH1 0x0 MSTORE PUSH1 0x20 PUSH1 0x0 KECCAK256 ADD PUSH1 0x40 MLOAD DUP1 PUSH1 0x60 ADD PUSH1 0x40 MSTORE SWAP1 DUP2 PUSH1 0x0 DUP3 ADD PUSH1 0x0 SWAP1 SLOAD SWAP1 PUSH2 0x100 EXP SWAP1 DIV PUSH1 0xFF AND ISZERO ISZERO ISZERO ISZERO DUP2 MSTORE PUSH1 0x20 ADD PUSH1 0x0 DUP3 ADD PUSH1 0x1 SWAP1 SLOAD SWAP1 PUSH2 0x100 EXP SWAP1 DIV PUSH20 0xFFFFFFFFFFFFFFFFFFFFFFFFFFFFFFFFFFFFFFFF AND PUSH20 0xFFFFFFFFFFFFFFFFFFFFFFFFFFFFFFFFFFFFFFFF AND PUSH20 0xFFFFFFFFFFFFFFFFFFFFFFFFFFFFFFFFFFFFFFFF AND DUP2 MSTORE PUSH1 0x20 ADD PUSH1 0x0 DUP3 ADD PUSH1 0x15 SWAP1 SLOAD SWAP1 PUSH2 0x100 EXP SWAP1 DIV PUSH1 0xFF AND ISZERO ISZERO ISZERO ISZERO DUP2 MSTORE POP POP DUP2 MSTORE PUSH1 0x20 ADD SWAP1 PUSH1 0x1 ADD SWAP1 PUSH2 0x14BC JUMP JUMPDEST POP POP POP POP DUP2 MSTORE POP POP SWAP1 POP SWAP1 JUMP JUMPDEST PUSH1 0xA PUSH1 0x20 MSTORE DUP1 PUSH1 0x0 MSTORE PUSH1 0x40 PUSH1 0x0 KECCAK256 PUSH1 0x0 SWAP2 POP SWAP1 POP DUP1 PUSH1 0x0 ADD PUSH1 0x0 SWAP1 SLOAD SWAP1 PUSH2 0x100 EXP SWAP1 DIV PUSH1 0xFF AND SWAP1 DUP1 PUSH1 0x0 ADD PUSH1 0x1 SWAP1 SLOAD SWAP1 PUSH2 0x100 EXP SWAP1 DIV PUSH20 0xFFFFFFFFFFFFFFFFFFFFFFFFFFFFFFFFFFFFFFFF AND SWAP1 DUP1 PUSH1 0x0 ADD PUSH1 0x15 SWAP1 SLOAD SWAP1 PUSH2 0x100 EXP SWAP1 DIV PUSH1 0xFF AND SWAP1 POP DUP4 JUMP JUMPDEST PUSH1 0x60 PUSH1 0x0 DUP1 PUSH1 0x0 DUP1 PUSH1 0xB PUSH1 0x1 ADD PUSH1 0x1 SLOAD PUSH1 0x3 PUSH1 0x0 SWAP1 SLOAD SWAP1 PUSH2 0x100 EXP SWAP1 DIV PUSH20 0xFFFFFFFFFFFFFFFFFFFFFFFFFFFFFFFFFFFFFFFF AND PUSH1 0x4 SLOAD PUSH1 0x6 SLOAD DUP5 DUP1 SLOAD PUSH2 0x162C SWAP1 PUSH2 0x2090 JUMP JUMPDEST DUP1 PUSH1 0x1F ADD PUSH1 0x20 DUP1 SWAP2 DIV MUL PUSH1 0x20 ADD PUSH1 0x40 MLOAD SWAP1 DUP2 ADD PUSH1 0x40 MSTORE DUP1 SWAP3 SWAP2 SWAP1 DUP2 DUP2 MSTORE PUSH1 0x20 ADD DUP3 DUP1 SLOAD PUSH2 0x1658 SWAP1 PUSH2 0x2090 JUMP JUMPDEST DUP1 ISZERO PUSH2 0x16A5 JUMPI DUP1 PUSH1 0x1F LT PUSH2 0x167A JUMPI PUSH2 0x100 DUP1 DUP4 SLOAD DIV MUL DUP4 MSTORE SWAP2 PUSH1 0x20 ADD SWAP2 PUSH2 0x16A5 JUMP JUMPDEST DUP3 ADD SWAP2 SWAP1 PUSH1 0x0 MSTORE PUSH1 0x20 PUSH1 0x0 KECCAK256 SWAP1 JUMPDEST DUP2 SLOAD DUP2 MSTORE SWAP1 PUSH1 0x1 ADD SWAP1 PUSH1 0x20 ADD DUP1 DUP4 GT PUSH2 0x1688 JUMPI DUP3 SWAP1 SUB PUSH1 0x1F AND DUP3 ADD SWAP2 JUMPDEST POP POP POP POP POP SWAP5 POP SWAP5 POP SWAP5 POP SWAP5 POP SWAP5 POP SWAP5 POP SWAP1 SWAP2 SWAP3 SWAP4 SWAP5 JUMP JUMPDEST PUSH1 0x7 SLOAD DUP2 JUMP JUMPDEST PUSH1 0x4 SLOAD DUP2 JUMP JUMPDEST PUSH1 0x8 DUP2 DUP2 SLOAD DUP2 LT PUSH2 0x16D9 JUMPI PUSH1 0x0 DUP1 REVERT JUMPDEST SWAP1 PUSH1 0x0 MSTORE PUSH1 0x20 PUSH1 0x0 KECCAK256 ADD PUSH1 0x0 SWAP2 POP SWAP1 POP DUP1 PUSH1 0x0 ADD PUSH1 0x0 SWAP1 SLOAD SWAP1 PUSH2 0x100 EXP SWAP1 DIV PUSH1 0xFF AND SWAP1 DUP1 PUSH1 0x0 ADD PUSH1 0x1 SWAP1 SLOAD SWAP1 PUSH2 0x100 EXP SWAP1 DIV PUSH20 0xFFFFFFFFFFFFFFFFFFFFFFFFFFFFFFFFFFFFFFFF AND SWAP1 DUP1 PUSH1 0x0 ADD PUSH1 0x15 SWAP1 SLOAD SWAP1 PUSH2 0x100 EXP SWAP1 DIV PUSH1 0xFF AND SWAP1 POP DUP4 JUMP JUMPDEST PUSH1 0x0 DUP1 SLOAD SWAP1 PUSH2 0x100 EXP SWAP1 DIV PUSH20 0xFFFFFFFFFFFFFFFFFFFFFFFFFFFFFFFFFFFFFFFF AND DUP2 JUMP JUMPDEST PUSH1 0x40 MLOAD DUP1 PUSH1 0x60 ADD PUSH1 0x40 MSTORE DUP1 PUSH1 0x60 DUP2 MSTORE PUSH1 0x20 ADD PUSH2 0x1777 PUSH2 0x1784 JUMP JUMPDEST DUP2 MSTORE PUSH1 0x20 ADD PUSH1 0x60 DUP2 MSTORE POP SWAP1 JUMP JUMPDEST PUSH1 0x40 MLOAD DUP1 PUSH1 0x40 ADD PUSH1 0x40 MSTORE DUP1 PUSH1 0x0 DUP2 MSTORE PUSH1 0x20 ADD PUSH1 0x60 DUP2 MSTORE POP SWAP1 JUMP JUMPDEST PUSH1 0x0 PUSH1 0x40 MLOAD SWAP1 POP SWAP1 JUMP JUMPDEST PUSH1 0x0 DUP1 REVERT JUMPDEST PUSH1 0x0 DUP1 REVERT JUMPDEST PUSH1 0x0 DUP2 SWAP1 POP SWAP2 SWAP1 POP JUMP JUMPDEST PUSH2 0x17C5 DUP2 PUSH2 0x17B2 JUMP JUMPDEST DUP2 EQ PUSH2 0x17D0 JUMPI PUSH1 0x0 DUP1 REVERT JUMPDEST POP JUMP JUMPDEST PUSH1 0x0 DUP2 CALLDATALOAD SWAP1 POP PUSH2 0x17E2 DUP2 PUSH2 0x17BC JUMP JUMPDEST SWAP3 SWAP2 POP POP JUMP JUMPDEST PUSH1 0x0 PUSH1 0x20 DUP3 DUP5 SUB SLT ISZERO PUSH2 0x17FE JUMPI PUSH2 0x17FD PUSH2 0x17A8 JUMP JUMPDEST JUMPDEST PUSH1 0x0 PUSH2 0x180C DUP5 DUP3 DUP6 ADD PUSH2 0x17D3 JUMP JUMPDEST SWAP2 POP POP SWAP3 SWAP2 POP POP JUMP JUMPDEST PUSH1 0x0 PUSH20 0xFFFFFFFFFFFFFFFFFFFFFFFFFFFFFFFFFFFFFFFF DUP3 AND SWAP1 POP SWAP2 SWAP1 POP JUMP JUMPDEST PUSH1 0x0 PUSH2 0x1840 DUP3 PUSH2 0x1815 JUMP JUMPDEST SWAP1 POP SWAP2 SWAP1 POP JUMP JUMPDEST PUSH2 0x1850 DUP2 PUSH2 0x1835 JUMP JUMPDEST DUP3 MSTORE POP POP JUMP JUMPDEST PUSH1 0x0 PUSH1 0x20 DUP3 ADD SWAP1 POP PUSH2 0x186B PUSH1 0x0 DUP4 ADD DUP5 PUSH2 0x1847 JUMP JUMPDEST SWAP3 SWAP2 POP POP JUMP JUMPDEST PUSH2 0x187A DUP2 PUSH2 0x1835 JUMP JUMPDEST DUP2 EQ PUSH2 0x1885 JUMPI PUSH1 0x0 DUP1 REVERT JUMPDEST POP JUMP JUMPDEST PUSH1 0x0 DUP2 CALLDATALOAD SWAP1 POP PUSH2 0x1897 DUP2 PUSH2 0x1871 JUMP JUMPDEST SWAP3 SWAP2 POP POP JUMP JUMPDEST PUSH1 0x0 PUSH1 0x20 DUP3 DUP5 SUB SLT ISZERO PUSH2 0x18B3 JUMPI PUSH2 0x18B2 PUSH2 0x17A8 JUMP JUMPDEST JUMPDEST PUSH1 0x0 PUSH2 0x18C1 DUP5 DUP3 DUP6 ADD PUSH2 0x1888 JUMP JUMPDEST SWAP2 POP POP SWAP3 SWAP2 POP POP JUMP JUMPDEST PUSH1 0x0 DUP2 MLOAD SWAP1 POP SWAP2 SWAP1 POP JUMP JUMPDEST PUSH1 0x0 DUP3 DUP3 MSTORE PUSH1 0x20 DUP3 ADD SWAP1 POP SWAP3 SWAP2 POP POP JUMP JUMPDEST PUSH1 0x0 JUMPDEST DUP4 DUP2 LT ISZERO PUSH2 0x1904 JUMPI DUP1 DUP3 ADD MLOAD DUP2 DUP5 ADD MSTORE PUSH1 0x20 DUP2 ADD SWAP1 POP PUSH2 0x18E9 JUMP JUMPDEST DUP4 DUP2 GT ISZERO PUSH2 0x1913 JUMPI PUSH1 0x0 DUP5 DUP5 ADD MSTORE JUMPDEST POP POP POP POP JUMP JUMPDEST PUSH1 0x0 PUSH1 0x1F NOT PUSH1 0x1F DUP4 ADD AND SWAP1 POP SWAP2 SWAP1 POP JUMP JUMPDEST PUSH1 0x0 PUSH2 0x1935 DUP3 PUSH2 0x18CA JUMP JUMPDEST PUSH2 0x193F DUP2 DUP6 PUSH2 0x18D5 JUMP JUMPDEST SWAP4 POP PUSH2 0x194F DUP2 DUP6 PUSH1 0x20 DUP7 ADD PUSH2 0x18E6 JUMP JUMPDEST PUSH2 0x1958 DUP2 PUSH2 0x1919 JUMP JUMPDEST DUP5 ADD SWAP2 POP POP SWAP3 SWAP2 POP POP JUMP JUMPDEST PUSH1 0x0 PUSH1 0x20 DUP3 ADD SWAP1 POP DUP2 DUP2 SUB PUSH1 0x0 DUP4 ADD MSTORE PUSH2 0x197D DUP2 DUP5 PUSH2 0x192A JUMP JUMPDEST SWAP1 POP SWAP3 SWAP2 POP POP JUMP JUMPDEST PUSH1 0x0 DUP1 REVERT JUMPDEST PUSH1 0x0 DUP1 REVERT JUMPDEST PUSH32 0x4E487B7100000000000000000000000000000000000000000000000000000000 PUSH1 0x0 MSTORE PUSH1 0x41 PUSH1 0x4 MSTORE PUSH1 0x24 PUSH1 0x0 REVERT JUMPDEST PUSH2 0x19C7 DUP3 PUSH2 0x1919 JUMP JUMPDEST DUP2 ADD DUP2 DUP2 LT PUSH8 0xFFFFFFFFFFFFFFFF DUP3 GT OR ISZERO PUSH2 0x19E6 JUMPI PUSH2 0x19E5 PUSH2 0x198F JUMP JUMPDEST JUMPDEST DUP1 PUSH1 0x40 MSTORE POP POP POP JUMP JUMPDEST PUSH1 0x0 PUSH2 0x19F9 PUSH2 0x179E JUMP JUMPDEST SWAP1 POP PUSH2 0x1A05 DUP3 DUP3 PUSH2 0x19BE JUMP JUMPDEST SWAP2 SWAP1 POP JUMP JUMPDEST PUSH1 0x0 PUSH8 0xFFFFFFFFFFFFFFFF DUP3 GT ISZERO PUSH2 0x1A25 JUMPI PUSH2 0x1A24 PUSH2 0x198F JUMP JUMPDEST JUMPDEST PUSH2 0x1A2E DUP3 PUSH2 0x1919 JUMP JUMPDEST SWAP1 POP PUSH1 0x20 DUP2 ADD SWAP1 POP SWAP2 SWAP1 POP JUMP JUMPDEST DUP3 DUP2 DUP4 CALLDATACOPY PUSH1 0x0 DUP4 DUP4 ADD MSTORE POP POP POP JUMP JUMPDEST PUSH1 0x0 PUSH2 0x1A5D PUSH2 0x1A58 DUP5 PUSH2 0x1A0A JUMP JUMPDEST PUSH2 0x19EF JUMP JUMPDEST SWAP1 POP DUP3 DUP2 MSTORE PUSH1 0x20 DUP2 ADD DUP5 DUP5 DUP5 ADD GT ISZERO PUSH2 0x1A79 JUMPI PUSH2 0x1A78 PUSH2 0x198A JUMP JUMPDEST JUMPDEST PUSH2 0x1A84 DUP5 DUP3 DUP6 PUSH2 0x1A3B JUMP JUMPDEST POP SWAP4 SWAP3 POP POP POP JUMP JUMPDEST PUSH1 0x0 DUP3 PUSH1 0x1F DUP4 ADD SLT PUSH2 0x1AA1 JUMPI PUSH2 0x1AA0 PUSH2 0x1985 JUMP JUMPDEST JUMPDEST DUP2 CALLDATALOAD PUSH2 0x1AB1 DUP5 DUP3 PUSH1 0x20 DUP7 ADD PUSH2 0x1A4A JUMP JUMPDEST SWAP2 POP POP SWAP3 SWAP2 POP POP JUMP JUMPDEST PUSH1 0x0 PUSH1 0x20 DUP3 DUP5 SUB SLT ISZERO PUSH2 0x1AD0 JUMPI PUSH2 0x1ACF PUSH2 0x17A8 JUMP JUMPDEST JUMPDEST PUSH1 0x0 DUP3 ADD CALLDATALOAD PUSH8 0xFFFFFFFFFFFFFFFF DUP2 GT ISZERO PUSH2 0x1AEE JUMPI PUSH2 0x1AED PUSH2 0x17AD JUMP JUMPDEST JUMPDEST PUSH2 0x1AFA DUP5 DUP3 DUP6 ADD PUSH2 0x1A8C JUMP JUMPDEST SWAP2 POP POP SWAP3 SWAP2 POP POP JUMP JUMPDEST PUSH1 0x0 DUP2 ISZERO ISZERO SWAP1 POP SWAP2 SWAP1 POP JUMP JUMPDEST PUSH2 0x1B18 DUP2 PUSH2 0x1B03 JUMP JUMPDEST DUP3 MSTORE POP POP JUMP JUMPDEST PUSH1 0x0 PUSH1 0x60 DUP3 ADD SWAP1 POP PUSH2 0x1B33 PUSH1 0x0 DUP4 ADD DUP7 PUSH2 0x1B0F JUMP JUMPDEST PUSH2 0x1B40 PUSH1 0x20 DUP4 ADD DUP6 PUSH2 0x1B0F JUMP JUMPDEST PUSH2 0x1B4D PUSH1 0x40 DUP4 ADD DUP5 PUSH2 0x1847 JUMP JUMPDEST SWAP5 SWAP4 POP POP POP POP JUMP JUMPDEST PUSH2 0x1B5E DUP2 PUSH2 0x17B2 JUMP JUMPDEST DUP3 MSTORE POP POP JUMP JUMPDEST PUSH1 0x0 PUSH1 0x20 DUP3 ADD SWAP1 POP PUSH2 0x1B79 PUSH1 0x0 DUP4 ADD DUP5 PUSH2 0x1B55 JUMP JUMPDEST SWAP3 SWAP2 POP POP JUMP JUMPDEST PUSH1 0x0 PUSH1 0x40 DUP3 ADD SWAP1 POP PUSH2 0x1B94 PUSH1 0x0 DUP4 ADD DUP6 PUSH2 0x1B55 JUMP JUMPDEST DUP2 DUP2 SUB PUSH1 0x20 DUP4 ADD MSTORE PUSH2 0x1BA6 DUP2 DUP5 PUSH2 0x192A JUMP JUMPDEST SWAP1 POP SWAP4 SWAP3 POP POP POP JUMP JUMPDEST PUSH1 0x0 DUP3 DUP3 MSTORE PUSH1 0x20 DUP3 ADD SWAP1 POP SWAP3 SWAP2 POP POP JUMP JUMPDEST PUSH1 0x0 PUSH2 0x1BCB DUP3 PUSH2 0x18CA JUMP JUMPDEST PUSH2 0x1BD5 DUP2 DUP6 PUSH2 0x1BAF JUMP JUMPDEST SWAP4 POP PUSH2 0x1BE5 DUP2 DUP6 PUSH1 0x20 DUP7 ADD PUSH2 0x18E6 JUMP JUMPDEST PUSH2 0x1BEE DUP2 PUSH2 0x1919 JUMP JUMPDEST DUP5 ADD SWAP2 POP POP SWAP3 SWAP2 POP POP JUMP JUMPDEST PUSH2 0x1C02 DUP2 PUSH2 0x17B2 JUMP JUMPDEST DUP3 MSTORE POP POP JUMP JUMPDEST PUSH1 0x0 PUSH1 0x40 DUP4 ADD PUSH1 0x0 DUP4 ADD MLOAD PUSH2 0x1C20 PUSH1 0x0 DUP7 ADD DUP3 PUSH2 0x1BF9 JUMP JUMPDEST POP PUSH1 0x20 DUP4 ADD MLOAD DUP5 DUP3 SUB PUSH1 0x20 DUP7 ADD MSTORE PUSH2 0x1C38 DUP3 DUP3 PUSH2 0x1BC0 JUMP JUMPDEST SWAP2 POP POP DUP1 SWAP2 POP POP SWAP3 SWAP2 POP POP JUMP JUMPDEST PUSH1 0x0 DUP2 MLOAD SWAP1 POP SWAP2 SWAP1 POP JUMP JUMPDEST PUSH1 0x0 DUP3 DUP3 MSTORE PUSH1 0x20 DUP3 ADD SWAP1 POP SWAP3 SWAP2 POP POP JUMP JUMPDEST PUSH1 0x0 DUP2 SWAP1 POP PUSH1 0x20 DUP3 ADD SWAP1 POP SWAP2 SWAP1 POP JUMP JUMPDEST PUSH2 0x1C7A DUP2 PUSH2 0x1B03 JUMP JUMPDEST DUP3 MSTORE POP POP JUMP JUMPDEST PUSH2 0x1C89 DUP2 PUSH2 0x1835 JUMP JUMPDEST DUP3 MSTORE POP POP JUMP JUMPDEST PUSH1 0x60 DUP3 ADD PUSH1 0x0 DUP3 ADD MLOAD PUSH2 0x1CA5 PUSH1 0x0 DUP6 ADD DUP3 PUSH2 0x1C71 JUMP JUMPDEST POP PUSH1 0x20 DUP3 ADD MLOAD PUSH2 0x1CB8 PUSH1 0x20 DUP6 ADD DUP3 PUSH2 0x1C80 JUMP JUMPDEST POP PUSH1 0x40 DUP3 ADD MLOAD PUSH2 0x1CCB PUSH1 0x40 DUP6 ADD DUP3 PUSH2 0x1C71 JUMP JUMPDEST POP POP POP POP JUMP JUMPDEST PUSH1 0x0 PUSH2 0x1CDD DUP4 DUP4 PUSH2 0x1C8F JUMP JUMPDEST PUSH1 0x60 DUP4 ADD SWAP1 POP SWAP3 SWAP2 POP POP JUMP JUMPDEST PUSH1 0x0 PUSH1 0x20 DUP3 ADD SWAP1 POP SWAP2 SWAP1 POP JUMP JUMPDEST PUSH1 0x0 PUSH2 0x1D01 DUP3 PUSH2 0x1C45 JUMP JUMPDEST PUSH2 0x1D0B DUP2 DUP6 PUSH2 0x1C50 JUMP JUMPDEST SWAP4 POP PUSH2 0x1D16 DUP4 PUSH2 0x1C61 JUMP JUMPDEST DUP1 PUSH1 0x0 JUMPDEST DUP4 DUP2 LT ISZERO PUSH2 0x1D47 JUMPI DUP2 MLOAD PUSH2 0x1D2E DUP9 DUP3 PUSH2 0x1CD1 JUMP JUMPDEST SWAP8 POP PUSH2 0x1D39 DUP4 PUSH2 0x1CE9 JUMP JUMPDEST SWAP3 POP POP PUSH1 0x1 DUP2 ADD SWAP1 POP PUSH2 0x1D1A JUMP JUMPDEST POP DUP6 SWAP4 POP POP POP POP SWAP3 SWAP2 POP POP JUMP JUMPDEST PUSH1 0x0 PUSH1 0x60 DUP4 ADD PUSH1 0x0 DUP4 ADD MLOAD DUP5 DUP3 SUB PUSH1 0x0 DUP7 ADD MSTORE PUSH2 0x1D71 DUP3 DUP3 PUSH2 0x1BC0 JUMP JUMPDEST SWAP2 POP POP PUSH1 0x20 DUP4 ADD MLOAD DUP5 DUP3 SUB PUSH1 0x20 DUP7 ADD MSTORE PUSH2 0x1D8B DUP3 DUP3 PUSH2 0x1C08 JUMP JUMPDEST SWAP2 POP POP PUSH1 0x40 DUP4 ADD MLOAD DUP5 DUP3 SUB PUSH1 0x40 DUP7 ADD MSTORE PUSH2 0x1DA5 DUP3 DUP3 PUSH2 0x1CF6 JUMP JUMPDEST SWAP2 POP POP DUP1 SWAP2 POP POP SWAP3 SWAP2 POP POP JUMP JUMPDEST PUSH1 0x0 PUSH1 0x20 DUP3 ADD SWAP1 POP DUP2 DUP2 SUB PUSH1 0x0 DUP4 ADD MSTORE PUSH2 0x1DCC DUP2 DUP5 PUSH2 0x1D54 JUMP JUMPDEST SWAP1 POP SWAP3 SWAP2 POP POP JUMP JUMPDEST PUSH1 0x0 PUSH1 0x60 DUP3 ADD SWAP1 POP PUSH2 0x1DE9 PUSH1 0x0 DUP4 ADD DUP7 PUSH2 0x1B0F JUMP JUMPDEST PUSH2 0x1DF6 PUSH1 0x20 DUP4 ADD DUP6 PUSH2 0x1847 JUMP JUMPDEST PUSH2 0x1E03 PUSH1 0x40 DUP4 ADD DUP5 PUSH2 0x1B0F JUMP JUMPDEST SWAP5 SWAP4 POP POP POP POP JUMP JUMPDEST PUSH1 0x0 PUSH1 0xA0 DUP3 ADD SWAP1 POP DUP2 DUP2 SUB PUSH1 0x0 DUP4 ADD MSTORE PUSH2 0x1E25 DUP2 DUP9 PUSH2 0x192A JUMP JUMPDEST SWAP1 POP PUSH2 0x1E34 PUSH1 0x20 DUP4 ADD DUP8 PUSH2 0x1B55 JUMP JUMPDEST PUSH2 0x1E41 PUSH1 0x40 DUP4 ADD DUP7 PUSH2 0x1847 JUMP JUMPDEST PUSH2 0x1E4E PUSH1 0x60 DUP4 ADD DUP6 PUSH2 0x1B55 JUMP JUMPDEST PUSH2 0x1E5B PUSH1 0x80 DUP4 ADD DUP5 PUSH2 0x1B55 JUMP JUMPDEST SWAP7 SWAP6 POP POP POP POP POP POP JUMP JUMPDEST PUSH32 0x4F6E6C7920696E69746961746F722063616E2072656769737465722061207265 PUSH1 0x0 DUP3 ADD MSTORE PUSH32 0x63697069656E742E000000000000000000000000000000000000000000000000 PUSH1 0x20 DUP3 ADD MSTORE POP JUMP JUMPDEST PUSH1 0x0 PUSH2 0x1EC1 PUSH1 0x28 DUP4 PUSH2 0x18D5 JUMP JUMPDEST SWAP2 POP PUSH2 0x1ECC DUP3 PUSH2 0x1E65 JUMP JUMPDEST PUSH1 0x40 DUP3 ADD SWAP1 POP SWAP2 SWAP1 POP JUMP JUMPDEST PUSH1 0x0 PUSH1 0x20 DUP3 ADD SWAP1 POP DUP2 DUP2 SUB PUSH1 0x0 DUP4 ADD MSTORE PUSH2 0x1EF0 DUP2 PUSH2 0x1EB4 JUMP JUMPDEST SWAP1 POP SWAP2 SWAP1 POP JUMP JUMPDEST PUSH32 0x496E69746961746F722063616E277420766F7465210000000000000000000000 PUSH1 0x0 DUP3 ADD MSTORE POP JUMP JUMPDEST PUSH1 0x0 PUSH2 0x1F2D PUSH1 0x15 DUP4 PUSH2 0x18D5 JUMP JUMPDEST SWAP2 POP PUSH2 0x1F38 DUP3 PUSH2 0x1EF7 JUMP JUMPDEST PUSH1 0x20 DUP3 ADD SWAP1 POP SWAP2 SWAP1 POP JUMP JUMPDEST PUSH1 0x0 PUSH1 0x20 DUP3 ADD SWAP1 POP DUP2 DUP2 SUB PUSH1 0x0 DUP4 ADD MSTORE PUSH2 0x1F5C DUP2 PUSH2 0x1F20 JUMP JUMPDEST SWAP1 POP SWAP2 SWAP1 POP JUMP JUMPDEST PUSH32 0x526563697069656E7420697320616C7265616479207265676973746572656400 PUSH1 0x0 DUP3 ADD MSTORE POP JUMP JUMPDEST PUSH1 0x0 PUSH2 0x1F99 PUSH1 0x1F DUP4 PUSH2 0x18D5 JUMP JUMPDEST SWAP2 POP PUSH2 0x1FA4 DUP3 PUSH2 0x1F63 JUMP JUMPDEST PUSH1 0x20 DUP3 ADD SWAP1 POP SWAP2 SWAP1 POP JUMP JUMPDEST PUSH1 0x0 PUSH1 0x20 DUP3 ADD SWAP1 POP DUP2 DUP2 SUB PUSH1 0x0 DUP4 ADD MSTORE PUSH2 0x1FC8 DUP2 PUSH2 0x1F8C JUMP JUMPDEST SWAP1 POP SWAP2 SWAP1 POP JUMP JUMPDEST PUSH32 0x50726F706F73616C206861732072656163686564206974732065787069727920 PUSH1 0x0 DUP3 ADD MSTORE PUSH32 0x6461746500000000000000000000000000000000000000000000000000000000 PUSH1 0x20 DUP3 ADD MSTORE POP JUMP JUMPDEST PUSH1 0x0 PUSH2 0x202B PUSH1 0x24 DUP4 PUSH2 0x18D5 JUMP JUMPDEST SWAP2 POP PUSH2 0x2036 DUP3 PUSH2 0x1FCF JUMP JUMPDEST PUSH1 0x40 DUP3 ADD SWAP1 POP SWAP2 SWAP1 POP JUMP JUMPDEST PUSH1 0x0 PUSH1 0x20 DUP3 ADD SWAP1 POP DUP2 DUP2 SUB PUSH1 0x0 DUP4 ADD MSTORE PUSH2 0x205A DUP2 PUSH2 0x201E JUMP JUMPDEST SWAP1 POP SWAP2 SWAP1 POP JUMP JUMPDEST PUSH32 0x4E487B7100000000000000000000000000000000000000000000000000000000 PUSH1 0x0 MSTORE PUSH1 0x22 PUSH1 0x4 MSTORE PUSH1 0x24 PUSH1 0x0 REVERT JUMPDEST PUSH1 0x0 PUSH1 0x2 DUP3 DIV SWAP1 POP PUSH1 0x1 DUP3 AND DUP1 PUSH2 0x20A8 JUMPI PUSH1 0x7F DUP3 AND SWAP2 POP JUMPDEST PUSH1 0x20 DUP3 LT DUP2 SUB PUSH2 0x20BB JUMPI PUSH2 0x20BA PUSH2 0x2061 JUMP JUMPDEST JUMPDEST POP SWAP2 SWAP1 POP JUMP JUMPDEST PUSH32 0x566F74696E672068617320657870697265640000000000000000000000000000 PUSH1 0x0 DUP3 ADD MSTORE POP JUMP JUMPDEST PUSH1 0x0 PUSH2 0x20F7 PUSH1 0x12 DUP4 PUSH2 0x18D5 JUMP JUMPDEST SWAP2 POP PUSH2 0x2102 DUP3 PUSH2 0x20C1 JUMP JUMPDEST PUSH1 0x20 DUP3 ADD SWAP1 POP SWAP2 SWAP1 POP JUMP JUMPDEST PUSH1 0x0 PUSH1 0x20 DUP3 ADD SWAP1 POP DUP2 DUP2 SUB PUSH1 0x0 DUP4 ADD MSTORE PUSH2 0x2126 DUP2 PUSH2 0x20EA JUMP JUMPDEST SWAP1 POP SWAP2 SWAP1 POP JUMP JUMPDEST PUSH32 0x596F7520617265206E6F74207265676973746572656420746F20766F74650000 PUSH1 0x0 DUP3 ADD MSTORE POP JUMP JUMPDEST PUSH1 0x0 PUSH2 0x2163 PUSH1 0x1E DUP4 PUSH2 0x18D5 JUMP JUMPDEST SWAP2 POP PUSH2 0x216E DUP3 PUSH2 0x212D JUMP JUMPDEST PUSH1 0x20 DUP3 ADD SWAP1 POP SWAP2 SWAP1 POP JUMP JUMPDEST PUSH1 0x0 PUSH1 0x20 DUP3 ADD SWAP1 POP DUP2 DUP2 SUB PUSH1 0x0 DUP4 ADD MSTORE PUSH2 0x2192 DUP2 PUSH2 0x2156 JUMP JUMPDEST SWAP1 POP SWAP2 SWAP1 POP JUMP JUMPDEST PUSH32 0x596F7520616C72656164792073656E74206120726573706F6E73652E00000000 PUSH1 0x0 DUP3 ADD MSTORE POP JUMP JUMPDEST PUSH1 0x0 PUSH2 0x21CF PUSH1 0x1C DUP4 PUSH2 0x18D5 JUMP JUMPDEST SWAP2 POP PUSH2 0x21DA DUP3 PUSH2 0x2199 JUMP JUMPDEST PUSH1 0x20 DUP3 ADD SWAP1 POP SWAP2 SWAP1 POP JUMP JUMPDEST PUSH1 0x0 PUSH1 0x20 DUP3 ADD SWAP1 POP DUP2 DUP2 SUB PUSH1 0x0 DUP4 ADD MSTORE PUSH2 0x21FE DUP2 PUSH2 0x21C2 JUMP JUMPDEST SWAP1 POP SWAP2 SWAP1 POP JUMP JUMPDEST PUSH32 0x4E487B7100000000000000000000000000000000000000000000000000000000 PUSH1 0x0 MSTORE PUSH1 0x11 PUSH1 0x4 MSTORE PUSH1 0x24 PUSH1 0x0 REVERT JUMPDEST PUSH1 0x0 PUSH2 0x223F DUP3 PUSH2 0x17B2 JUMP JUMPDEST SWAP2 POP PUSH2 0x224A DUP4 PUSH2 0x17B2 JUMP JUMPDEST SWAP3 POP DUP3 PUSH32 0xFFFFFFFFFFFFFFFFFFFFFFFFFFFFFFFFFFFFFFFFFFFFFFFFFFFFFFFFFFFFFFFF SUB DUP3 GT ISZERO PUSH2 0x227F JUMPI PUSH2 0x227E PUSH2 0x2205 JUMP JUMPDEST JUMPDEST DUP3 DUP3 ADD SWAP1 POP SWAP3 SWAP2 POP POP JUMP JUMPDEST PUSH32 0x5665726469637420686173206E6F74206265656E207265616368656420796574 PUSH1 0x0 DUP3 ADD MSTORE POP JUMP JUMPDEST PUSH1 0x0 PUSH2 0x22C0 PUSH1 0x20 DUP4 PUSH2 0x18D5 JUMP JUMPDEST SWAP2 POP PUSH2 0x22CB DUP3 PUSH2 0x228A JUMP JUMPDEST PUSH1 0x20 DUP3 ADD SWAP1 POP SWAP2 SWAP1 POP JUMP JUMPDEST PUSH1 0x0 PUSH1 0x20 DUP3 ADD SWAP1 POP DUP2 DUP2 SUB PUSH1 0x0 DUP4 ADD MSTORE PUSH2 0x22EF DUP2 PUSH2 0x22B3 JUMP JUMPDEST SWAP1 POP SWAP2 SWAP1 POP JUMP JUMPDEST PUSH32 0x436F6E73656E7375732068617320616C7265616479206265656E2063616C6375 PUSH1 0x0 DUP3 ADD MSTORE PUSH32 0x6C61746564000000000000000000000000000000000000000000000000000000 PUSH1 0x20 DUP3 ADD MSTORE POP JUMP JUMPDEST PUSH1 0x0 PUSH2 0x2352 PUSH1 0x25 DUP4 PUSH2 0x18D5 JUMP JUMPDEST SWAP2 POP PUSH2 0x235D DUP3 PUSH2 0x22F6 JUMP JUMPDEST PUSH1 0x40 DUP3 ADD SWAP1 POP SWAP2 SWAP1 POP JUMP JUMPDEST PUSH1 0x0 PUSH1 0x20 DUP3 ADD SWAP1 POP DUP2 DUP2 SUB PUSH1 0x0 DUP4 ADD MSTORE PUSH2 0x2381 DUP2 PUSH2 0x2345 JUMP JUMPDEST SWAP1 POP SWAP2 SWAP1 POP JUMP JUMPDEST PUSH32 0x4E487B7100000000000000000000000000000000000000000000000000000000 PUSH1 0x0 MSTORE PUSH1 0x12 PUSH1 0x4 MSTORE PUSH1 0x24 PUSH1 0x0 REVERT JUMPDEST PUSH1 0x0 PUSH2 0x23C2 DUP3 PUSH2 0x17B2 JUMP JUMPDEST SWAP2 POP PUSH2 0x23CD DUP4 PUSH2 0x17B2 JUMP JUMPDEST SWAP3 POP DUP3 PUSH2 0x23DD JUMPI PUSH2 0x23DC PUSH2 0x2388 JUMP JUMPDEST JUMPDEST DUP3 DUP3 DIV SWAP1 POP SWAP3 SWAP2 POP POP JUMP JUMPDEST PUSH1 0x0 PUSH2 0x23F3 DUP3 PUSH2 0x17B2 JUMP JUMPDEST SWAP2 POP PUSH2 0x23FE DUP4 PUSH2 0x17B2 JUMP JUMPDEST SWAP3 POP DUP2 PUSH32 0xFFFFFFFFFFFFFFFFFFFFFFFFFFFFFFFFFFFFFFFFFFFFFFFFFFFFFFFFFFFFFFFF DIV DUP4 GT DUP3 ISZERO ISZERO AND ISZERO PUSH2 0x2437 JUMPI PUSH2 0x2436 PUSH2 0x2205 JUMP JUMPDEST JUMPDEST DUP3 DUP3 MUL SWAP1 POP SWAP3 SWAP2 POP POP JUMP JUMPDEST PUSH1 0x0 DUP2 SWAP1 POP DUP2 PUSH1 0x0 MSTORE PUSH1 0x20 PUSH1 0x0 KECCAK256 SWAP1 POP SWAP2 SWAP1 POP JUMP JUMPDEST PUSH1 0x0 PUSH1 0x20 PUSH1 0x1F DUP4 ADD DIV SWAP1 POP SWAP2 SWAP1 POP JUMP JUMPDEST PUSH1 0x0 DUP3 DUP3 SHL SWAP1 POP SWAP3 SWAP2 POP POP JUMP JUMPDEST PUSH1 0x0 PUSH1 0x8 DUP4 MUL PUSH2 0x24A4 PUSH32 0xFFFFFFFFFFFFFFFFFFFFFFFFFFFFFFFFFFFFFFFFFFFFFFFFFFFFFFFFFFFFFFFF DUP3 PUSH2 0x2467 JUMP JUMPDEST PUSH2 0x24AE DUP7 DUP4 PUSH2 0x2467 JUMP JUMPDEST SWAP6 POP DUP1 NOT DUP5 AND SWAP4 POP DUP1 DUP7 AND DUP5 OR SWAP3 POP POP POP SWAP4 SWAP3 POP POP POP JUMP JUMPDEST PUSH1 0x0 DUP2 SWAP1 POP SWAP2 SWAP1 POP JUMP JUMPDEST PUSH1 0x0 PUSH2 0x24EB PUSH2 0x24E6 PUSH2 0x24E1 DUP5 PUSH2 0x17B2 JUMP JUMPDEST PUSH2 0x24C6 JUMP JUMPDEST PUSH2 0x17B2 JUMP JUMPDEST SWAP1 POP SWAP2 SWAP1 POP JUMP JUMPDEST PUSH1 0x0 DUP2 SWAP1 POP SWAP2 SWAP1 POP JUMP JUMPDEST PUSH2 0x2505 DUP4 PUSH2 0x24D0 JUMP JUMPDEST PUSH2 0x2519 PUSH2 0x2511 DUP3 PUSH2 0x24F2 JUMP JUMPDEST DUP5 DUP5 SLOAD PUSH2 0x2474 JUMP JUMPDEST DUP3 SSTORE POP POP POP POP JUMP JUMPDEST PUSH1 0x0 SWAP1 JUMP JUMPDEST PUSH2 0x252E PUSH2 0x2521 JUMP JUMPDEST PUSH2 0x2539 DUP2 DUP5 DUP5 PUSH2 0x24FC JUMP JUMPDEST POP POP POP JUMP JUMPDEST JUMPDEST DUP2 DUP2 LT ISZERO PUSH2 0x255D JUMPI PUSH2 0x2552 PUSH1 0x0 DUP3 PUSH2 0x2526 JUMP JUMPDEST PUSH1 0x1 DUP2 ADD SWAP1 POP PUSH2 0x253F JUMP JUMPDEST POP POP JUMP JUMPDEST PUSH1 0x1F DUP3 GT ISZERO PUSH2 0x25A2 JUMPI PUSH2 0x2573 DUP2 PUSH2 0x2442 JUMP JUMPDEST PUSH2 0x257C DUP5 PUSH2 0x2457 JUMP JUMPDEST DUP2 ADD PUSH1 0x20 DUP6 LT ISZERO PUSH2 0x258B JUMPI DUP2 SWAP1 POP JUMPDEST PUSH2 0x259F PUSH2 0x2597 DUP6 PUSH2 0x2457 JUMP JUMPDEST DUP4 ADD DUP3 PUSH2 0x253E JUMP JUMPDEST POP POP JUMPDEST POP POP POP JUMP JUMPDEST PUSH1 0x0 DUP3 DUP3 SHR SWAP1 POP SWAP3 SWAP2 POP POP JUMP JUMPDEST PUSH1 0x0 PUSH2 0x25C5 PUSH1 0x0 NOT DUP5 PUSH1 0x8 MUL PUSH2 0x25A7 JUMP JUMPDEST NOT DUP1 DUP4 AND SWAP2 POP POP SWAP3 SWAP2 POP POP JUMP JUMPDEST PUSH1 0x0 PUSH2 0x25DE DUP4 DUP4 PUSH2 0x25B4 JUMP JUMPDEST SWAP2 POP DUP3 PUSH1 0x2 MUL DUP3 OR SWAP1 POP SWAP3 SWAP2 POP POP JUMP JUMPDEST PUSH2 0x25F7 DUP3 PUSH2 0x18CA JUMP JUMPDEST PUSH8 0xFFFFFFFFFFFFFFFF DUP2 GT ISZERO PUSH2 0x2610 JUMPI PUSH2 0x260F PUSH2 0x198F JUMP JUMPDEST JUMPDEST PUSH2 0x261A DUP3 SLOAD PUSH2 0x2090 JUMP JUMPDEST PUSH2 0x2625 DUP3 DUP3 DUP6 PUSH2 0x2561 JUMP JUMPDEST PUSH1 0x0 PUSH1 0x20 SWAP1 POP PUSH1 0x1F DUP4 GT PUSH1 0x1 DUP2 EQ PUSH2 0x2658 JUMPI PUSH1 0x0 DUP5 ISZERO PUSH2 0x2646 JUMPI DUP3 DUP8 ADD MLOAD SWAP1 POP JUMPDEST PUSH2 0x2650 DUP6 DUP3 PUSH2 0x25D2 JUMP JUMPDEST DUP7 SSTORE POP PUSH2 0x26B8 JUMP JUMPDEST PUSH1 0x1F NOT DUP5 AND PUSH2 0x2666 DUP7 PUSH2 0x2442 JUMP JUMPDEST PUSH1 0x0 JUMPDEST DUP3 DUP2 LT ISZERO PUSH2 0x268E JUMPI DUP5 DUP10 ADD MLOAD DUP3 SSTORE PUSH1 0x1 DUP3 ADD SWAP2 POP PUSH1 0x20 DUP6 ADD SWAP5 POP PUSH1 0x20 DUP2 ADD SWAP1 POP PUSH2 0x2669 JUMP JUMPDEST DUP7 DUP4 LT ISZERO PUSH2 0x26AB JUMPI DUP5 DUP10 ADD MLOAD PUSH2 0x26A7 PUSH1 0x1F DUP10 AND DUP3 PUSH2 0x25B4 JUMP JUMPDEST DUP4 SSTORE POP JUMPDEST PUSH1 0x1 PUSH1 0x2 DUP9 MUL ADD DUP9 SSTORE POP POP POP JUMPDEST POP POP POP POP POP POP JUMP JUMPDEST PUSH32 0x4E487B7100000000000000000000000000000000000000000000000000000000 PUSH1 0x0 MSTORE PUSH1 0x32 PUSH1 0x4 MSTORE PUSH1 0x24 PUSH1 0x0 REVERT JUMPDEST PUSH1 0x0 PUSH1 0xFF DUP3 AND SWAP1 POP SWAP2 SWAP1 POP JUMP JUMPDEST PUSH1 0x0 PUSH2 0x2707 DUP3 PUSH2 0x26EF JUMP JUMPDEST SWAP2 POP PUSH1 0xFF DUP3 SUB PUSH2 0x271A JUMPI PUSH2 0x2719 PUSH2 0x2205 JUMP JUMPDEST JUMPDEST PUSH1 0x1 DUP3 ADD SWAP1 POP SWAP2 SWAP1 POP JUMP INVALID LOG2 PUSH5 0x6970667358 0x22 SLT KECCAK256 CALLDATALOAD PC 0xAA 0xE0 TIMESTAMP SWAP2 PUSH23 0x96B8C08A7BCB414159E29C93D1025A9105203818754EDD 0xED MSIZE PUSH5 0x736F6C6343 STOP ADDMOD 0xF STOP CALLER "
				},
				"gasEstimates": {
					"creation": {
						"codeDepositCost": "2015000",
						"executionCost": "infinite",
						"totalCost": "infinite"
					},
					"external": {
						"AccumulatedPercentage()": "2496",
						"BusinessRequirement()": "2495",
						"Consensus()": "infinite",
						"RegisterVoter(address)": "131014",
						"Vote(string)": "infinite",
						"compile_bundle()": "infinite",
						"contractAddress()": "2621",
						"getParameters()": "infinite",
						"getParameters2(address)": "infinite",
						"getValues()": "infinite",
						"initiator()": "2559",
						"keys(uint256)": "4980",
						"numApprovals()": "2518",
						"numberCompiled()": "2473",
						"proposal()": "infinite",
						"voters(uint256)": "infinite",
						"voters_map(address)": "infinite"
					}
				},
				"methodIdentifiers": {
					"AccumulatedPercentage()": "604c8333",
					"BusinessRequirement()": "d77aa749",
					"Consensus()": "95b02dfa",
					"RegisterVoter(address)": "15fe6f1b",
					"Vote(string)": "323082d7",
					"compile_bundle()": "977c6c2f",
					"contractAddress()": "f6b4dfb4",
					"getParameters()": "a5ea11da",
					"getParameters2(address)": "5361a0ea",
					"getValues()": "19eb4a90",
					"initiator()": "5c39fcc1",
					"keys(uint256)": "0cb6aaf1",
					"numApprovals()": "7403c5e5",
					"numberCompiled()": "b9a29250",
					"proposal()": "753ec103",
					"voters(uint256)": "da58c7d9",
					"voters_map(address)": "9aa4bbdd"
				}
			},
			"storageLayout": {
				"storage": [
					{
						"astId": 25,
						"contract": "contracts/BusinessConsensus.sol:BusinessConsensus",
						"label": "contractAddress",
						"offset": 0,
						"slot": "0",
						"type": "t_address"
					},
					{
						"astId": 27,
						"contract": "contracts/BusinessConsensus.sol:BusinessConsensus",
						"label": "expiryDate",
						"offset": 0,
						"slot": "1",
						"type": "t_uint256"
					},
					{
						"astId": 29,
						"contract": "contracts/BusinessConsensus.sol:BusinessConsensus",
						"label": "finalVerdict",
						"offset": 0,
						"slot": "2",
						"type": "t_string_storage"
					},
					{
						"astId": 33,
						"contract": "contracts/BusinessConsensus.sol:BusinessConsensus",
						"label": "initiator",
						"offset": 0,
						"slot": "3",
						"type": "t_address"
					},
					{
						"astId": 35,
						"contract": "contracts/BusinessConsensus.sol:BusinessConsensus",
						"label": "BusinessRequirement",
						"offset": 0,
						"slot": "4",
						"type": "t_uint256"
					},
					{
						"astId": 37,
						"contract": "contracts/BusinessConsensus.sol:BusinessConsensus",
						"label": "AccumulatedPercentage",
						"offset": 0,
						"slot": "5",
						"type": "t_uint256"
					},
					{
						"astId": 39,
						"contract": "contracts/BusinessConsensus.sol:BusinessConsensus",
						"label": "numApprovals",
						"offset": 0,
						"slot": "6",
						"type": "t_uint256"
					},
					{
						"astId": 41,
						"contract": "contracts/BusinessConsensus.sol:BusinessConsensus",
						"label": "numberCompiled",
						"offset": 0,
						"slot": "7",
						"type": "t_uint256"
					},
					{
						"astId": 45,
						"contract": "contracts/BusinessConsensus.sol:BusinessConsensus",
						"label": "voters",
						"offset": 0,
						"slot": "8",
						"type": "t_array(t_struct(Voter)8_storage)dyn_storage"
					},
					{
						"astId": 48,
						"contract": "contracts/BusinessConsensus.sol:BusinessConsensus",
						"label": "keys",
						"offset": 0,
						"slot": "9",
						"type": "t_array(t_address)dyn_storage"
					},
					{
						"astId": 53,
						"contract": "contracts/BusinessConsensus.sol:BusinessConsensus",
						"label": "voters_map",
						"offset": 0,
						"slot": "10",
						"type": "t_mapping(t_address,t_struct(Voter)8_storage)"
					},
					{
						"astId": 56,
						"contract": "contracts/BusinessConsensus.sol:BusinessConsensus",
						"label": "proposal",
						"offset": 0,
						"slot": "11",
						"type": "t_struct(Proposal)23_storage"
					},
					{
						"astId": 59,
						"contract": "contracts/BusinessConsensus.sol:BusinessConsensus",
						"label": "bundle",
						"offset": 0,
						"slot": "13",
						"type": "t_struct(Bundle)18_storage"
					}
				],
				"types": {
					"t_address": {
						"encoding": "inplace",
						"label": "address",
						"numberOfBytes": "20"
					},
					"t_array(t_address)dyn_storage": {
						"base": "t_address",
						"encoding": "dynamic_array",
						"label": "address[]",
						"numberOfBytes": "32"
					},
					"t_array(t_struct(Voter)8_storage)dyn_storage": {
						"base": "t_struct(Voter)8_storage",
						"encoding": "dynamic_array",
						"label": "struct BusinessConsensus.Voter[]",
						"numberOfBytes": "32"
					},
					"t_bool": {
						"encoding": "inplace",
						"label": "bool",
						"numberOfBytes": "1"
					},
					"t_mapping(t_address,t_struct(Voter)8_storage)": {
						"encoding": "mapping",
						"key": "t_address",
						"label": "mapping(address => struct BusinessConsensus.Voter)",
						"numberOfBytes": "32",
						"value": "t_struct(Voter)8_storage"
					},
					"t_string_storage": {
						"encoding": "bytes",
						"label": "string",
						"numberOfBytes": "32"
					},
					"t_struct(Bundle)18_storage": {
						"encoding": "inplace",
						"label": "struct BusinessConsensus.Bundle",
						"members": [
							{
								"astId": 10,
								"contract": "contracts/BusinessConsensus.sol:BusinessConsensus",
								"label": "Verdict",
								"offset": 0,
								"slot": "0",
								"type": "t_string_storage"
							},
							{
								"astId": 13,
								"contract": "contracts/BusinessConsensus.sol:BusinessConsensus",
								"label": "businessProposal",
								"offset": 0,
								"slot": "1",
								"type": "t_struct(Proposal)23_storage"
							},
							{
								"astId": 17,
								"contract": "contracts/BusinessConsensus.sol:BusinessConsensus",
								"label": "votersList",
								"offset": 0,
								"slot": "3",
								"type": "t_array(t_struct(Voter)8_storage)dyn_storage"
							}
						],
						"numberOfBytes": "128"
					},
					"t_struct(Proposal)23_storage": {
						"encoding": "inplace",
						"label": "struct BusinessConsensus.Proposal",
						"members": [
							{
								"astId": 20,
								"contract": "contracts/BusinessConsensus.sol:BusinessConsensus",
								"label": "voteCount",
								"offset": 0,
								"slot": "0",
								"type": "t_uint256"
							},
							{
								"astId": 22,
								"contract": "contracts/BusinessConsensus.sol:BusinessConsensus",
								"label": "messageID",
								"offset": 0,
								"slot": "1",
								"type": "t_string_storage"
							}
						],
						"numberOfBytes": "64"
					},
					"t_struct(Voter)8_storage": {
						"encoding": "inplace",
						"label": "struct BusinessConsensus.Voter",
						"members": [
							{
								"astId": 3,
								"contract": "contracts/BusinessConsensus.sol:BusinessConsensus",
								"label": "voted",
								"offset": 0,
								"slot": "0",
								"type": "t_bool"
							},
							{
								"astId": 5,
								"contract": "contracts/BusinessConsensus.sol:BusinessConsensus",
								"label": "recipient",
								"offset": 1,
								"slot": "0",
								"type": "t_address"
							},
							{
								"astId": 7,
								"contract": "contracts/BusinessConsensus.sol:BusinessConsensus",
								"label": "vote",
								"offset": 21,
								"slot": "0",
								"type": "t_bool"
							}
						],
						"numberOfBytes": "32"
					},
					"t_uint256": {
						"encoding": "inplace",
						"label": "uint256",
						"numberOfBytes": "32"
					}
				}
			},
			"userdoc": {
				"kind": "user",
				"methods": {
					"Consensus()": {
						"notice": "compile all relevant information into a Bundle"
					},
					"Vote(string)": {
						"notice": "Delegate your vote to the voter `to`."
					}
				},
				"version": 1
			}
		}
	}
}